{
	"contracts/pig2.0.sol": {
		"PIG2": {
			"abi": [
				{
					"inputs": [],
					"stateMutability": "nonpayable",
					"type": "constructor"
				},
				{
					"anonymous": false,
					"inputs": [
						{
							"indexed": true,
							"internalType": "address",
							"name": "owner",
							"type": "address"
						},
						{
							"indexed": true,
							"internalType": "address",
							"name": "spender",
							"type": "address"
						},
						{
							"indexed": false,
							"internalType": "uint256",
							"name": "value",
							"type": "uint256"
						}
					],
					"name": "Approval",
					"type": "event"
				},
				{
					"anonymous": false,
					"inputs": [
						{
							"indexed": true,
							"internalType": "address",
							"name": "previousOwner",
							"type": "address"
						},
						{
							"indexed": true,
							"internalType": "address",
							"name": "newOwner",
							"type": "address"
						}
					],
					"name": "OwnershipTransferred",
					"type": "event"
				},
				{
					"anonymous": false,
					"inputs": [
						{
							"indexed": true,
							"internalType": "address",
							"name": "from",
							"type": "address"
						},
						{
							"indexed": true,
							"internalType": "address",
							"name": "to",
							"type": "address"
						},
						{
							"indexed": false,
							"internalType": "uint256",
							"name": "value",
							"type": "uint256"
						}
					],
					"name": "Transfer",
					"type": "event"
				},
				{
					"anonymous": false,
					"inputs": [
						{
							"indexed": false,
							"internalType": "address",
							"name": "newLpPair",
							"type": "address"
						}
					],
					"name": "_changePair",
					"type": "event"
				},
				{
					"anonymous": false,
					"inputs": [
						{
							"indexed": false,
							"internalType": "address",
							"name": "marketing",
							"type": "address"
						}
					],
					"name": "_changeWallets",
					"type": "event"
				},
				{
					"anonymous": false,
					"inputs": [],
					"name": "_enableTrading",
					"type": "event"
				},
				{
					"anonymous": false,
					"inputs": [
						{
							"indexed": false,
							"internalType": "address",
							"name": "account",
							"type": "address"
						},
						{
							"indexed": false,
							"internalType": "bool",
							"name": "enabled",
							"type": "bool"
						}
					],
					"name": "_setPresaleAddress",
					"type": "event"
				},
				{
					"anonymous": false,
					"inputs": [
						{
							"indexed": false,
							"internalType": "bool",
							"name": "enabled",
							"type": "bool"
						}
					],
					"name": "_toggleCanSwapFees",
					"type": "event"
				},
				{
					"inputs": [],
					"name": "DEAD",
					"outputs": [
						{
							"internalType": "address",
							"name": "",
							"type": "address"
						}
					],
					"stateMutability": "view",
					"type": "function"
				},
				{
					"inputs": [],
					"name": "_totalSupply",
					"outputs": [
						{
							"internalType": "uint256",
							"name": "",
							"type": "uint256"
						}
					],
					"stateMutability": "view",
					"type": "function"
				},
				{
					"inputs": [
						{
							"internalType": "address",
							"name": "holder",
							"type": "address"
						},
						{
							"internalType": "address",
							"name": "spender",
							"type": "address"
						}
					],
					"name": "allowance",
					"outputs": [
						{
							"internalType": "uint256",
							"name": "",
							"type": "uint256"
						}
					],
					"stateMutability": "view",
					"type": "function"
				},
				{
					"inputs": [
						{
							"internalType": "address",
							"name": "spender",
							"type": "address"
						},
						{
							"internalType": "uint256",
							"name": "amount",
							"type": "uint256"
						}
					],
					"name": "approve",
					"outputs": [
						{
							"internalType": "bool",
							"name": "",
							"type": "bool"
						}
					],
					"stateMutability": "nonpayable",
					"type": "function"
				},
				{
					"inputs": [
						{
							"internalType": "address",
							"name": "account",
							"type": "address"
						}
					],
					"name": "balanceOf",
					"outputs": [
						{
							"internalType": "uint256",
							"name": "",
							"type": "uint256"
						}
					],
					"stateMutability": "view",
					"type": "function"
				},
				{
					"inputs": [],
					"name": "buyfee",
					"outputs": [
						{
							"internalType": "uint256",
							"name": "",
							"type": "uint256"
						}
					],
					"stateMutability": "view",
					"type": "function"
				},
				{
					"inputs": [
						{
							"internalType": "address",
							"name": "newPair",
							"type": "address"
						}
					],
					"name": "changeLpPair",
					"outputs": [],
					"stateMutability": "nonpayable",
					"type": "function"
				},
				{
					"inputs": [
						{
							"internalType": "address",
							"name": "marketing",
							"type": "address"
						}
					],
					"name": "changeWallets",
					"outputs": [],
					"stateMutability": "nonpayable",
					"type": "function"
				},
				{
					"inputs": [],
					"name": "decimals",
					"outputs": [
						{
							"internalType": "uint8",
							"name": "",
							"type": "uint8"
						}
					],
					"stateMutability": "pure",
					"type": "function"
				},
				{
					"inputs": [],
					"name": "enableTrading",
					"outputs": [],
					"stateMutability": "nonpayable",
					"type": "function"
				},
				{
					"inputs": [],
					"name": "fee_denominator",
					"outputs": [
						{
							"internalType": "uint256",
							"name": "",
							"type": "uint256"
						}
					],
					"stateMutability": "view",
					"type": "function"
				},
				{
					"inputs": [],
					"name": "getOwner",
					"outputs": [
						{
							"internalType": "address",
							"name": "",
							"type": "address"
						}
					],
					"stateMutability": "view",
					"type": "function"
				},
				{
					"inputs": [
						{
							"internalType": "address",
							"name": "account",
							"type": "address"
						}
					],
					"name": "isNoFeeWallet",
					"outputs": [
						{
							"internalType": "bool",
							"name": "",
							"type": "bool"
						}
					],
					"stateMutability": "view",
					"type": "function"
				},
				{
					"inputs": [],
					"name": "isTradingEnabled",
					"outputs": [
						{
							"internalType": "bool",
							"name": "",
							"type": "bool"
						}
					],
					"stateMutability": "view",
					"type": "function"
				},
				{
					"inputs": [],
					"name": "lpPair",
					"outputs": [
						{
							"internalType": "address",
							"name": "",
							"type": "address"
						}
					],
					"stateMutability": "view",
					"type": "function"
				},
				{
					"inputs": [],
					"name": "name",
					"outputs": [
						{
							"internalType": "string",
							"name": "",
							"type": "string"
						}
					],
					"stateMutability": "pure",
					"type": "function"
				},
				{
					"inputs": [],
					"name": "owner",
					"outputs": [
						{
							"internalType": "address",
							"name": "",
							"type": "address"
						}
					],
					"stateMutability": "view",
					"type": "function"
				},
				{
					"inputs": [],
					"name": "renounceOwnership",
					"outputs": [],
					"stateMutability": "nonpayable",
					"type": "function"
				},
				{
					"inputs": [],
					"name": "sellfee",
					"outputs": [
						{
							"internalType": "uint256",
							"name": "",
							"type": "uint256"
						}
					],
					"stateMutability": "view",
					"type": "function"
				},
				{
					"inputs": [
						{
							"internalType": "address",
							"name": "account",
							"type": "address"
						},
						{
							"internalType": "bool",
							"name": "enabled",
							"type": "bool"
						}
					],
					"name": "setNoFeeWallet",
					"outputs": [],
					"stateMutability": "nonpayable",
					"type": "function"
				},
				{
					"inputs": [
						{
							"internalType": "address",
							"name": "presale",
							"type": "address"
						},
						{
							"internalType": "bool",
							"name": "yesno",
							"type": "bool"
						}
					],
					"name": "setPresaleAddress",
					"outputs": [],
					"stateMutability": "nonpayable",
					"type": "function"
				},
				{
					"inputs": [],
					"name": "swapRouter",
					"outputs": [
						{
							"internalType": "contract IRouter02",
							"name": "",
							"type": "address"
						}
					],
					"stateMutability": "view",
					"type": "function"
				},
				{
					"inputs": [],
					"name": "swapThreshold",
					"outputs": [
						{
							"internalType": "uint256",
							"name": "",
							"type": "uint256"
						}
					],
					"stateMutability": "view",
					"type": "function"
				},
				{
					"inputs": [],
					"name": "symbol",
					"outputs": [
						{
							"internalType": "string",
							"name": "",
							"type": "string"
						}
					],
					"stateMutability": "pure",
					"type": "function"
				},
				{
					"inputs": [
						{
							"internalType": "bool",
							"name": "yesno",
							"type": "bool"
						}
					],
					"name": "toggleCanSwapFees",
					"outputs": [],
					"stateMutability": "nonpayable",
					"type": "function"
				},
				{
					"inputs": [],
					"name": "totalSupply",
					"outputs": [
						{
							"internalType": "uint256",
							"name": "",
							"type": "uint256"
						}
					],
					"stateMutability": "pure",
					"type": "function"
				},
				{
					"inputs": [
						{
							"internalType": "address",
							"name": "recipient",
							"type": "address"
						},
						{
							"internalType": "uint256",
							"name": "amount",
							"type": "uint256"
						}
					],
					"name": "transfer",
					"outputs": [
						{
							"internalType": "bool",
							"name": "",
							"type": "bool"
						}
					],
					"stateMutability": "nonpayable",
					"type": "function"
				},
				{
					"inputs": [
						{
							"internalType": "address",
							"name": "sender",
							"type": "address"
						},
						{
							"internalType": "address",
							"name": "recipient",
							"type": "address"
						},
						{
							"internalType": "uint256",
							"name": "amount",
							"type": "uint256"
						}
					],
					"name": "transferFrom",
					"outputs": [
						{
							"internalType": "bool",
							"name": "",
							"type": "bool"
						}
					],
					"stateMutability": "nonpayable",
					"type": "function"
				},
				{
					"inputs": [
						{
							"internalType": "address",
							"name": "newOwner",
							"type": "address"
						}
					],
					"name": "transferOwnership",
					"outputs": [],
					"stateMutability": "nonpayable",
					"type": "function"
				},
				{
					"inputs": [],
					"name": "transferfee",
					"outputs": [
						{
							"internalType": "uint256",
							"name": "",
							"type": "uint256"
						}
					],
					"stateMutability": "view",
					"type": "function"
				},
				{
					"stateMutability": "payable",
					"type": "receive"
				}
			],
			"devdoc": {
				"kind": "dev",
				"methods": {},
				"version": 1
			},
			"evm": {
				"assembly": "    /* \"contracts/pig2.0.sol\":4944:14098  contract PIG2 is Context, Ownable, IERC20 {... */\n  mstore(0x40, 0x80)\n    /* \"contracts/pig2.0.sol\":6466:6470  true */\n  0x01\n    /* \"contracts/pig2.0.sol\":6439:6470  bool private canSwapFees = true */\n  0x07\n  exp(0x0100, 0x00)\n  dup2\n  sload\n  dup2\n  0xff\n  mul\n  not\n  and\n  swap1\n  dup4\n  iszero\n  iszero\n  mul\n  or\n  swap1\n  sstore\n  pop\n    /* \"contracts/pig2.0.sol\":6528:6570  0x0E44805772a5f6Bd858942276fc20504a5618A79 */\n  0x0e44805772a5f6bd858942276fc20504a5618a79\n    /* \"contracts/pig2.0.sol\":6477:6571  address payable private marketingAddress = payable(0x0E44805772a5f6Bd858942276fc20504a5618A79) */\n  0x07\n  exp(0x0100, 0x01)\n  dup2\n  sload\n  dup2\n  0xffffffffffffffffffffffffffffffffffffffff\n  mul\n  not\n  and\n  swap1\n  dup4\n  0xffffffffffffffffffffffffffffffffffffffff\n  and\n  mul\n  or\n  swap1\n  sstore\n  pop\n    /* \"contracts/pig2.0.sol\":6895:6900  false */\n  0x00\n    /* \"contracts/pig2.0.sol\":6864:6900  bool public isTradingEnabled = false */\n  0x09\n  exp(0x0100, 0x14)\n  dup2\n  sload\n  dup2\n  0xff\n  mul\n  not\n  and\n  swap1\n  dup4\n  iszero\n  iszero\n  mul\n  or\n  swap1\n  sstore\n  pop\n    /* \"contracts/pig2.0.sol\":7267:8484  constructor () {... */\n  callvalue\n  dup1\n  iszero\n  tag_1\n  jumpi\n  0x00\n  dup1\n  revert\ntag_1:\n  pop\n    /* \"contracts/pig2.0.sol\":659:682  _setOwner(_msgSender()) */\n  tag_7\n    /* \"contracts/pig2.0.sol\":669:681  _msgSender() */\n  tag_8\n    /* \"contracts/pig2.0.sol\":669:679  _msgSender */\n  shl(0x20, tag_9)\n    /* \"contracts/pig2.0.sol\":669:681  _msgSender() */\n  0x20\n  shr\n  jump\t// in\ntag_8:\n    /* \"contracts/pig2.0.sol\":659:668  _setOwner */\n  shl(0x20, tag_10)\n    /* \"contracts/pig2.0.sol\":659:682  _setOwner(_msgSender()) */\n  0x20\n  shr\n  jump\t// in\ntag_7:\n    /* \"contracts/pig2.0.sol\":7314:7318  true */\n  0x01\n    /* \"contracts/pig2.0.sol\":7293:7299  _noFee */\n  0x02\n    /* \"contracts/pig2.0.sol\":7293:7311  _noFee[msg.sender] */\n  0x00\n    /* \"contracts/pig2.0.sol\":7300:7310  msg.sender */\n  caller\n    /* \"contracts/pig2.0.sol\":7293:7311  _noFee[msg.sender] */\n  0xffffffffffffffffffffffffffffffffffffffff\n  and\n  0xffffffffffffffffffffffffffffffffffffffff\n  and\n  dup2\n  mstore\n  0x20\n  add\n  swap1\n  dup2\n  mstore\n  0x20\n  add\n  0x00\n  keccak256\n  0x00\n    /* \"contracts/pig2.0.sol\":7293:7318  _noFee[msg.sender] = true */\n  0x0100\n  exp\n  dup2\n  sload\n  dup2\n  0xff\n  mul\n  not\n  and\n  swap1\n  dup4\n  iszero\n  iszero\n  mul\n  or\n  swap1\n  sstore\n  pop\n    /* \"contracts/pig2.0.sol\":7352:7354  56 */\n  0x38\n    /* \"contracts/pig2.0.sol\":7335:7348  block.chainid */\n  chainid\n    /* \"contracts/pig2.0.sol\":7335:7354  block.chainid == 56 */\n  sub\n    /* \"contracts/pig2.0.sol\":7331:8050  if (block.chainid == 56) {... */\n  tag_12\n  jumpi\n    /* \"contracts/pig2.0.sol\":7394:7436  0x10ED43C718714eb63d5aA57B78B54704E256024E */\n  0x10ed43c718714eb63d5aa57b78b54704e256024e\n    /* \"contracts/pig2.0.sol\":7371:7381  swapRouter */\n  0x08\n  0x00\n    /* \"contracts/pig2.0.sol\":7371:7437  swapRouter = IRouter02(0x10ED43C718714eb63d5aA57B78B54704E256024E) */\n  0x0100\n  exp\n  dup2\n  sload\n  dup2\n  0xffffffffffffffffffffffffffffffffffffffff\n  mul\n  not\n  and\n  swap1\n  dup4\n  0xffffffffffffffffffffffffffffffffffffffff\n  and\n  mul\n  or\n  swap1\n  sstore\n  pop\n    /* \"contracts/pig2.0.sol\":7331:8050  if (block.chainid == 56) {... */\n  jump(tag_13)\ntag_12:\n    /* \"contracts/pig2.0.sol\":7476:7478  97 */\n  0x61\n    /* \"contracts/pig2.0.sol\":7459:7472  block.chainid */\n  chainid\n    /* \"contracts/pig2.0.sol\":7459:7478  block.chainid == 97 */\n  sub\n    /* \"contracts/pig2.0.sol\":7455:8050  if (block.chainid == 97) {... */\n  tag_14\n  jumpi\n    /* \"contracts/pig2.0.sol\":7518:7560  0xD99D1c33F9fC3444f8101754aBC46c52416550D1 */\n  0xd99d1c33f9fc3444f8101754abc46c52416550d1\n    /* \"contracts/pig2.0.sol\":7495:7505  swapRouter */\n  0x08\n  0x00\n    /* \"contracts/pig2.0.sol\":7495:7561  swapRouter = IRouter02(0xD99D1c33F9fC3444f8101754aBC46c52416550D1) */\n  0x0100\n  exp\n  dup2\n  sload\n  dup2\n  0xffffffffffffffffffffffffffffffffffffffff\n  mul\n  not\n  and\n  swap1\n  dup4\n  0xffffffffffffffffffffffffffffffffffffffff\n  and\n  mul\n  or\n  swap1\n  sstore\n  pop\n    /* \"contracts/pig2.0.sol\":7455:8050  if (block.chainid == 97) {... */\n  jump(tag_15)\ntag_14:\n    /* \"contracts/pig2.0.sol\":7600:7601  1 */\n  0x01\n    /* \"contracts/pig2.0.sol\":7583:7596  block.chainid */\n  chainid\n    /* \"contracts/pig2.0.sol\":7583:7601  block.chainid == 1 */\n  eq\n    /* \"contracts/pig2.0.sol\":7583:7623  block.chainid == 1 || block.chainid == 4 */\n  dup1\n  tag_16\n  jumpi\n  pop\n    /* \"contracts/pig2.0.sol\":7622:7623  4 */\n  0x04\n    /* \"contracts/pig2.0.sol\":7605:7618  block.chainid */\n  chainid\n    /* \"contracts/pig2.0.sol\":7605:7623  block.chainid == 4 */\n  eq\n    /* \"contracts/pig2.0.sol\":7583:7623  block.chainid == 1 || block.chainid == 4 */\ntag_16:\n    /* \"contracts/pig2.0.sol\":7583:7645  block.chainid == 1 || block.chainid == 4 || block.chainid == 3 */\n  dup1\n  tag_17\n  jumpi\n  pop\n    /* \"contracts/pig2.0.sol\":7644:7645  3 */\n  0x03\n    /* \"contracts/pig2.0.sol\":7627:7640  block.chainid */\n  chainid\n    /* \"contracts/pig2.0.sol\":7627:7645  block.chainid == 3 */\n  eq\n    /* \"contracts/pig2.0.sol\":7583:7645  block.chainid == 1 || block.chainid == 4 || block.chainid == 3 */\ntag_17:\n    /* \"contracts/pig2.0.sol\":7579:8050  if (block.chainid == 1 || block.chainid == 4 || block.chainid == 3) {... */\n  iszero\n  tag_18\n  jumpi\n    /* \"contracts/pig2.0.sol\":7685:7727  0x7a250d5630B4cF539739dF2C5dAcb4c659F2488D */\n  0x7a250d5630b4cf539739df2c5dacb4c659f2488d\n    /* \"contracts/pig2.0.sol\":7662:7672  swapRouter */\n  0x08\n  0x00\n    /* \"contracts/pig2.0.sol\":7662:7728  swapRouter = IRouter02(0x7a250d5630B4cF539739dF2C5dAcb4c659F2488D) */\n  0x0100\n  exp\n  dup2\n  sload\n  dup2\n  0xffffffffffffffffffffffffffffffffffffffff\n  mul\n  not\n  and\n  swap1\n  dup4\n  0xffffffffffffffffffffffffffffffffffffffff\n  and\n  mul\n  or\n  swap1\n  sstore\n  pop\n    /* \"contracts/pig2.0.sol\":7579:8050  if (block.chainid == 1 || block.chainid == 4 || block.chainid == 3) {... */\n  jump(tag_19)\ntag_18:\n    /* \"contracts/pig2.0.sol\":7767:7772  43114 */\n  0xa86a\n    /* \"contracts/pig2.0.sol\":7750:7763  block.chainid */\n  chainid\n    /* \"contracts/pig2.0.sol\":7750:7772  block.chainid == 43114 */\n  sub\n    /* \"contracts/pig2.0.sol\":7746:8050  if (block.chainid == 43114) {... */\n  tag_20\n  jumpi\n    /* \"contracts/pig2.0.sol\":7812:7854  0x60aE616a2155Ee3d9A68541Ba4544862310933d4 */\n  0x60ae616a2155ee3d9a68541ba4544862310933d4\n    /* \"contracts/pig2.0.sol\":7789:7799  swapRouter */\n  0x08\n  0x00\n    /* \"contracts/pig2.0.sol\":7789:7855  swapRouter = IRouter02(0x60aE616a2155Ee3d9A68541Ba4544862310933d4) */\n  0x0100\n  exp\n  dup2\n  sload\n  dup2\n  0xffffffffffffffffffffffffffffffffffffffff\n  mul\n  not\n  and\n  swap1\n  dup4\n  0xffffffffffffffffffffffffffffffffffffffff\n  and\n  mul\n  or\n  swap1\n  sstore\n  pop\n    /* \"contracts/pig2.0.sol\":7746:8050  if (block.chainid == 43114) {... */\n  jump(tag_21)\ntag_20:\n    /* \"contracts/pig2.0.sol\":7894:7897  250 */\n  0xfa\n    /* \"contracts/pig2.0.sol\":7877:7890  block.chainid */\n  chainid\n    /* \"contracts/pig2.0.sol\":7877:7897  block.chainid == 250 */\n  sub\n    /* \"contracts/pig2.0.sol\":7873:8050  if (block.chainid == 250) {... */\n  tag_22\n  jumpi\n    /* \"contracts/pig2.0.sol\":7937:7979  0xF491e7B69E4244ad4002BC14e878a34207E38c29 */\n  0xf491e7b69e4244ad4002bc14e878a34207e38c29\n    /* \"contracts/pig2.0.sol\":7914:7924  swapRouter */\n  0x08\n  0x00\n    /* \"contracts/pig2.0.sol\":7914:7980  swapRouter = IRouter02(0xF491e7B69E4244ad4002BC14e878a34207E38c29) */\n  0x0100\n  exp\n  dup2\n  sload\n  dup2\n  0xffffffffffffffffffffffffffffffffffffffff\n  mul\n  not\n  and\n  swap1\n  dup4\n  0xffffffffffffffffffffffffffffffffffffffff\n  and\n  mul\n  or\n  swap1\n  sstore\n  pop\n    /* \"contracts/pig2.0.sol\":7873:8050  if (block.chainid == 250) {... */\n  jump(tag_23)\ntag_22:\n    /* \"contracts/pig2.0.sol\":8013:8038  revert(\"Chain not valid\") */\n  mload(0x40)\n  0x08c379a000000000000000000000000000000000000000000000000000000000\n  dup2\n  mstore\n  0x04\n  add\n  tag_24\n  swap1\n  tag_25\n  jump\t// in\ntag_24:\n  mload(0x40)\n  dup1\n  swap2\n  sub\n  swap1\n  revert\n    /* \"contracts/pig2.0.sol\":7873:8050  if (block.chainid == 250) {... */\ntag_23:\n    /* \"contracts/pig2.0.sol\":7746:8050  if (block.chainid == 43114) {... */\ntag_21:\n    /* \"contracts/pig2.0.sol\":7579:8050  if (block.chainid == 1 || block.chainid == 4 || block.chainid == 3) {... */\ntag_19:\n    /* \"contracts/pig2.0.sol\":7455:8050  if (block.chainid == 97) {... */\ntag_15:\n    /* \"contracts/pig2.0.sol\":7331:8050  if (block.chainid == 56) {... */\ntag_13:\n    /* \"contracts/pig2.0.sol\":8087:8091  true */\n  0x01\n    /* \"contracts/pig2.0.sol\":8060:8072  liquidityAdd */\n  0x03\n    /* \"contracts/pig2.0.sol\":8060:8084  liquidityAdd[msg.sender] */\n  0x00\n    /* \"contracts/pig2.0.sol\":8073:8083  msg.sender */\n  caller\n    /* \"contracts/pig2.0.sol\":8060:8084  liquidityAdd[msg.sender] */\n  0xffffffffffffffffffffffffffffffffffffffff\n  and\n  0xffffffffffffffffffffffffffffffffffffffff\n  and\n  dup2\n  mstore\n  0x20\n  add\n  swap1\n  dup2\n  mstore\n  0x20\n  add\n  0x00\n  keccak256\n  0x00\n    /* \"contracts/pig2.0.sol\":8060:8091  liquidityAdd[msg.sender] = true */\n  0x0100\n  exp\n  dup2\n  sload\n  dup2\n  0xff\n  mul\n  not\n  and\n  swap1\n  dup4\n  iszero\n  iszero\n  mul\n  or\n  swap1\n  sstore\n  pop\n    /* \"contracts/pig2.0.sol\":6153:6180  420_690_000_000_000 * 10**9 */\n  0x5915a68d88da6a080000\n    /* \"contracts/pig2.0.sol\":8102:8109  balance */\n  0x06\n    /* \"contracts/pig2.0.sol\":8102:8121  balance[msg.sender] */\n  0x00\n    /* \"contracts/pig2.0.sol\":8110:8120  msg.sender */\n  caller\n    /* \"contracts/pig2.0.sol\":8102:8121  balance[msg.sender] */\n  0xffffffffffffffffffffffffffffffffffffffff\n  and\n  0xffffffffffffffffffffffffffffffffffffffff\n  and\n  dup2\n  mstore\n  0x20\n  add\n  swap1\n  dup2\n  mstore\n  0x20\n  add\n  0x00\n  keccak256\n    /* \"contracts/pig2.0.sol\":8102:8136  balance[msg.sender] = _totalSupply */\n  dup2\n  swap1\n  sstore\n  pop\n    /* \"contracts/pig2.0.sol\":8173:8183  msg.sender */\n  caller\n    /* \"contracts/pig2.0.sol\":8152:8198  Transfer(address(0), msg.sender, _totalSupply) */\n  0xffffffffffffffffffffffffffffffffffffffff\n  and\n    /* \"contracts/pig2.0.sol\":8169:8170  0 */\n  0x00\n    /* \"contracts/pig2.0.sol\":8152:8198  Transfer(address(0), msg.sender, _totalSupply) */\n  0xffffffffffffffffffffffffffffffffffffffff\n  and\n  0xddf252ad1be2c89b69c2b068fc378daa952ba7f163c4a11628f55a4df523b3ef\n    /* \"contracts/pig2.0.sol\":6153:6180  420_690_000_000_000 * 10**9 */\n  0x5915a68d88da6a080000\n    /* \"contracts/pig2.0.sol\":8152:8198  Transfer(address(0), msg.sender, _totalSupply) */\n  mload(0x40)\n  tag_26\n  swap2\n  swap1\n  tag_27\n  jump\t// in\ntag_26:\n  mload(0x40)\n  dup1\n  swap2\n  sub\n  swap1\n  log3\n    /* \"contracts/pig2.0.sol\":8231:8241  swapRouter */\n  0x08\n  0x00\n  swap1\n  sload\n  swap1\n  0x0100\n  exp\n  swap1\n  div\n  0xffffffffffffffffffffffffffffffffffffffff\n  and\n    /* \"contracts/pig2.0.sol\":8231:8249  swapRouter.factory */\n  0xffffffffffffffffffffffffffffffffffffffff\n  and\n  0xc45a0155\n    /* \"contracts/pig2.0.sol\":8231:8251  swapRouter.factory() */\n  mload(0x40)\n  dup2\n  0xffffffff\n  and\n  0xe0\n  shl\n  dup2\n  mstore\n  0x04\n  add\n  0x20\n  mload(0x40)\n  dup1\n  dup4\n  sub\n  dup2\n  dup7\n  gas\n  staticcall\n  iszero\n  dup1\n  iszero\n  tag_29\n  jumpi\n  returndatasize\n  0x00\n  dup1\n  returndatacopy\n  revert(0x00, returndatasize)\ntag_29:\n  pop\n  pop\n  pop\n  pop\n  mload(0x40)\n  returndatasize\n  not(0x1f)\n  0x1f\n  dup3\n  add\n  and\n  dup3\n  add\n  dup1\n  0x40\n  mstore\n  pop\n  dup2\n  add\n  swap1\n  tag_30\n  swap2\n  swap1\n  tag_31\n  jump\t// in\ntag_30:\n    /* \"contracts/pig2.0.sol\":8220:8263  IFactoryV2(swapRouter.factory()).createPair */\n  0xffffffffffffffffffffffffffffffffffffffff\n  and\n  0xc9c65396\n    /* \"contracts/pig2.0.sol\":8264:8274  swapRouter */\n  0x08\n  0x00\n  swap1\n  sload\n  swap1\n  0x0100\n  exp\n  swap1\n  div\n  0xffffffffffffffffffffffffffffffffffffffff\n  and\n    /* \"contracts/pig2.0.sol\":8264:8279  swapRouter.WETH */\n  0xffffffffffffffffffffffffffffffffffffffff\n  and\n  0xad5c4648\n    /* \"contracts/pig2.0.sol\":8264:8281  swapRouter.WETH() */\n  mload(0x40)\n  dup2\n  0xffffffff\n  and\n  0xe0\n  shl\n  dup2\n  mstore\n  0x04\n  add\n  0x20\n  mload(0x40)\n  dup1\n  dup4\n  sub\n  dup2\n  dup7\n  gas\n  staticcall\n  iszero\n  dup1\n  iszero\n  tag_33\n  jumpi\n  returndatasize\n  0x00\n  dup1\n  returndatacopy\n  revert(0x00, returndatasize)\ntag_33:\n  pop\n  pop\n  pop\n  pop\n  mload(0x40)\n  returndatasize\n  not(0x1f)\n  0x1f\n  dup3\n  add\n  and\n  dup3\n  add\n  dup1\n  0x40\n  mstore\n  pop\n  dup2\n  add\n  swap1\n  tag_34\n  swap2\n  swap1\n  tag_31\n  jump\t// in\ntag_34:\n    /* \"contracts/pig2.0.sol\":8291:8295  this */\n  address\n    /* \"contracts/pig2.0.sol\":8220:8297  IFactoryV2(swapRouter.factory()).createPair(swapRouter.WETH(), address(this)) */\n  mload(0x40)\n  dup4\n  0xffffffff\n  and\n  0xe0\n  shl\n  dup2\n  mstore\n  0x04\n  add\n  tag_35\n  swap3\n  swap2\n  swap1\n  tag_36\n  jump\t// in\ntag_35:\n  0x20\n  mload(0x40)\n  dup1\n  dup4\n  sub\n  dup2\n  0x00\n  dup8\n  gas\n  call\n  iszero\n  dup1\n  iszero\n  tag_38\n  jumpi\n  returndatasize\n  0x00\n  dup1\n  returndatacopy\n  revert(0x00, returndatasize)\ntag_38:\n  pop\n  pop\n  pop\n  pop\n  mload(0x40)\n  returndatasize\n  not(0x1f)\n  0x1f\n  dup3\n  add\n  and\n  dup3\n  add\n  dup1\n  0x40\n  mstore\n  pop\n  dup2\n  add\n  swap1\n  tag_39\n  swap2\n  swap1\n  tag_31\n  jump\t// in\ntag_39:\n    /* \"contracts/pig2.0.sol\":8211:8217  lpPair */\n  0x09\n  0x00\n    /* \"contracts/pig2.0.sol\":8211:8297  lpPair = IFactoryV2(swapRouter.factory()).createPair(swapRouter.WETH(), address(this)) */\n  0x0100\n  exp\n  dup2\n  sload\n  dup2\n  0xffffffffffffffffffffffffffffffffffffffff\n  mul\n  not\n  and\n  swap1\n  dup4\n  0xffffffffffffffffffffffffffffffffffffffff\n  and\n  mul\n  or\n  swap1\n  sstore\n  pop\n    /* \"contracts/pig2.0.sol\":8327:8331  true */\n  0x01\n    /* \"contracts/pig2.0.sol\":8308:8316  isLpPair */\n  0x04\n    /* \"contracts/pig2.0.sol\":8308:8324  isLpPair[lpPair] */\n  0x00\n    /* \"contracts/pig2.0.sol\":8317:8323  lpPair */\n  0x09\n  0x00\n  swap1\n  sload\n  swap1\n  0x0100\n  exp\n  swap1\n  div\n  0xffffffffffffffffffffffffffffffffffffffff\n  and\n    /* \"contracts/pig2.0.sol\":8308:8324  isLpPair[lpPair] */\n  0xffffffffffffffffffffffffffffffffffffffff\n  and\n  0xffffffffffffffffffffffffffffffffffffffff\n  and\n  dup2\n  mstore\n  0x20\n  add\n  swap1\n  dup2\n  mstore\n  0x20\n  add\n  0x00\n  keccak256\n  0x00\n    /* \"contracts/pig2.0.sol\":8308:8331  isLpPair[lpPair] = true */\n  0x0100\n  exp\n  dup2\n  sload\n  dup2\n  0xff\n  mul\n  not\n  and\n  swap1\n  dup4\n  iszero\n  iszero\n  mul\n  or\n  swap1\n  sstore\n  pop\n    /* \"contracts/pig2.0.sol\":8342:8402  _approve(msg.sender, address(swapRouter), type(uint256).max) */\n  tag_40\n    /* \"contracts/pig2.0.sol\":8351:8361  msg.sender */\n  caller\n    /* \"contracts/pig2.0.sol\":8371:8381  swapRouter */\n  0x08\n  0x00\n  swap1\n  sload\n  swap1\n  0x0100\n  exp\n  swap1\n  div\n  0xffffffffffffffffffffffffffffffffffffffff\n  and\n    /* \"contracts/pig2.0.sol\":8384:8401  type(uint256).max */\n  0xffffffffffffffffffffffffffffffffffffffffffffffffffffffffffffffff\n    /* \"contracts/pig2.0.sol\":8342:8350  _approve */\n  shl(0x20, tag_41)\n    /* \"contracts/pig2.0.sol\":8342:8402  _approve(msg.sender, address(swapRouter), type(uint256).max) */\n  0x20\n  shr\n  jump\t// in\ntag_40:\n    /* \"contracts/pig2.0.sol\":8413:8476  _approve(address(this), address(swapRouter), type(uint256).max) */\n  tag_42\n    /* \"contracts/pig2.0.sol\":8430:8434  this */\n  address\n    /* \"contracts/pig2.0.sol\":8445:8455  swapRouter */\n  0x08\n  0x00\n  swap1\n  sload\n  swap1\n  0x0100\n  exp\n  swap1\n  div\n  0xffffffffffffffffffffffffffffffffffffffff\n  and\n    /* \"contracts/pig2.0.sol\":8458:8475  type(uint256).max */\n  0xffffffffffffffffffffffffffffffffffffffffffffffffffffffffffffffff\n    /* \"contracts/pig2.0.sol\":8413:8421  _approve */\n  shl(0x20, tag_41)\n    /* \"contracts/pig2.0.sol\":8413:8476  _approve(address(this), address(swapRouter), type(uint256).max) */\n  0x20\n  shr\n  jump\t// in\ntag_42:\n    /* \"contracts/pig2.0.sol\":4944:14098  contract PIG2 is Context, Ownable, IERC20 {... */\n  jump(tag_43)\n    /* \"contracts/pig2.0.sol\":218:325  function _msgSender() internal view returns (address payable) {... */\ntag_9:\n    /* \"contracts/pig2.0.sol\":263:278  address payable */\n  0x00\n    /* \"contracts/pig2.0.sol\":306:316  msg.sender */\n  caller\n    /* \"contracts/pig2.0.sol\":291:317  return payable(msg.sender) */\n  swap1\n  pop\n    /* \"contracts/pig2.0.sol\":218:325  function _msgSender() internal view returns (address payable) {... */\n  swap1\n  jump\t// out\n    /* \"contracts/pig2.0.sol\":1223:1396  function _setOwner(address newOwner) private {... */\ntag_10:\n    /* \"contracts/pig2.0.sol\":1279:1295  address oldOwner */\n  0x00\n    /* \"contracts/pig2.0.sol\":1298:1304  _owner */\n  dup1\n  0x00\n  swap1\n  sload\n  swap1\n  0x0100\n  exp\n  swap1\n  div\n  0xffffffffffffffffffffffffffffffffffffffff\n  and\n    /* \"contracts/pig2.0.sol\":1279:1304  address oldOwner = _owner */\n  swap1\n  pop\n    /* \"contracts/pig2.0.sol\":1324:1332  newOwner */\n  dup2\n    /* \"contracts/pig2.0.sol\":1315:1321  _owner */\n  0x00\n  dup1\n    /* \"contracts/pig2.0.sol\":1315:1332  _owner = newOwner */\n  0x0100\n  exp\n  dup2\n  sload\n  dup2\n  0xffffffffffffffffffffffffffffffffffffffff\n  mul\n  not\n  and\n  swap1\n  dup4\n  0xffffffffffffffffffffffffffffffffffffffff\n  and\n  mul\n  or\n  swap1\n  sstore\n  pop\n    /* \"contracts/pig2.0.sol\":1379:1387  newOwner */\n  dup2\n    /* \"contracts/pig2.0.sol\":1348:1388  OwnershipTransferred(oldOwner, newOwner) */\n  0xffffffffffffffffffffffffffffffffffffffff\n  and\n    /* \"contracts/pig2.0.sol\":1369:1377  oldOwner */\n  dup2\n    /* \"contracts/pig2.0.sol\":1348:1388  OwnershipTransferred(oldOwner, newOwner) */\n  0xffffffffffffffffffffffffffffffffffffffff\n  and\n  0x8be0079c531659141344cd1fd0a4f28419497f9722a3daafe3b4186f6b6457e0\n  mload(0x40)\n  mload(0x40)\n  dup1\n  swap2\n  sub\n  swap1\n  log3\n    /* \"contracts/pig2.0.sol\":1268:1396  {... */\n  pop\n    /* \"contracts/pig2.0.sol\":1223:1396  function _setOwner(address newOwner) private {... */\n  pop\n  jump\t// out\n    /* \"contracts/pig2.0.sol\":8887:9148  function _approve(address sender, address spender, uint256 amount) internal {... */\ntag_41:\n    /* \"contracts/pig2.0.sol\":9000:9001  0 */\n  0x00\n    /* \"contracts/pig2.0.sol\":8982:9002  sender != address(0) */\n  0xffffffffffffffffffffffffffffffffffffffff\n  and\n    /* \"contracts/pig2.0.sol\":8982:8988  sender */\n  dup4\n    /* \"contracts/pig2.0.sol\":8982:9002  sender != address(0) */\n  0xffffffffffffffffffffffffffffffffffffffff\n  and\n  sub\n    /* \"contracts/pig2.0.sol\":8974:9026  require(sender != address(0), \"ERC20: Zero Address\") */\n  tag_47\n  jumpi\n  mload(0x40)\n  0x08c379a000000000000000000000000000000000000000000000000000000000\n  dup2\n  mstore\n  0x04\n  add\n  tag_48\n  swap1\n  tag_49\n  jump\t// in\ntag_48:\n  mload(0x40)\n  dup1\n  swap2\n  sub\n  swap1\n  revert\ntag_47:\n    /* \"contracts/pig2.0.sol\":9064:9065  0 */\n  0x00\n    /* \"contracts/pig2.0.sol\":9045:9066  spender != address(0) */\n  0xffffffffffffffffffffffffffffffffffffffff\n  and\n    /* \"contracts/pig2.0.sol\":9045:9052  spender */\n  dup3\n    /* \"contracts/pig2.0.sol\":9045:9066  spender != address(0) */\n  0xffffffffffffffffffffffffffffffffffffffff\n  and\n  sub\n    /* \"contracts/pig2.0.sol\":9037:9090  require(spender != address(0), \"ERC20: Zero Address\") */\n  tag_50\n  jumpi\n  mload(0x40)\n  0x08c379a000000000000000000000000000000000000000000000000000000000\n  dup2\n  mstore\n  0x04\n  add\n  tag_51\n  swap1\n  tag_49\n  jump\t// in\ntag_51:\n  mload(0x40)\n  dup1\n  swap2\n  sub\n  swap1\n  revert\ntag_50:\n    /* \"contracts/pig2.0.sol\":9134:9140  amount */\n  dup1\n    /* \"contracts/pig2.0.sol\":9103:9114  _allowances */\n  0x01\n    /* \"contracts/pig2.0.sol\":9103:9122  _allowances[sender] */\n  0x00\n    /* \"contracts/pig2.0.sol\":9115:9121  sender */\n  dup6\n    /* \"contracts/pig2.0.sol\":9103:9122  _allowances[sender] */\n  0xffffffffffffffffffffffffffffffffffffffff\n  and\n  0xffffffffffffffffffffffffffffffffffffffff\n  and\n  dup2\n  mstore\n  0x20\n  add\n  swap1\n  dup2\n  mstore\n  0x20\n  add\n  0x00\n  keccak256\n    /* \"contracts/pig2.0.sol\":9103:9131  _allowances[sender][spender] */\n  0x00\n    /* \"contracts/pig2.0.sol\":9123:9130  spender */\n  dup5\n    /* \"contracts/pig2.0.sol\":9103:9131  _allowances[sender][spender] */\n  0xffffffffffffffffffffffffffffffffffffffff\n  and\n  0xffffffffffffffffffffffffffffffffffffffff\n  and\n  dup2\n  mstore\n  0x20\n  add\n  swap1\n  dup2\n  mstore\n  0x20\n  add\n  0x00\n  keccak256\n    /* \"contracts/pig2.0.sol\":9103:9140  _allowances[sender][spender] = amount */\n  dup2\n  swap1\n  sstore\n  pop\n    /* \"contracts/pig2.0.sol\":8887:9148  function _approve(address sender, address spender, uint256 amount) internal {... */\n  pop\n  pop\n  pop\n  jump\t// out\n    /* \"#utility.yul\":7:176   */\ntag_52:\n    /* \"#utility.yul\":91:102   */\n  0x00\n    /* \"#utility.yul\":125:131   */\n  dup3\n    /* \"#utility.yul\":120:123   */\n  dup3\n    /* \"#utility.yul\":113:132   */\n  mstore\n    /* \"#utility.yul\":165:169   */\n  0x20\n    /* \"#utility.yul\":160:163   */\n  dup3\n    /* \"#utility.yul\":156:170   */\n  add\n    /* \"#utility.yul\":141:170   */\n  swap1\n  pop\n    /* \"#utility.yul\":7:176   */\n  swap3\n  swap2\n  pop\n  pop\n  jump\t// out\n    /* \"#utility.yul\":182:347   */\ntag_53:\n    /* \"#utility.yul\":322:339   */\n  0x436861696e206e6f742076616c69640000000000000000000000000000000000\n    /* \"#utility.yul\":318:319   */\n  0x00\n    /* \"#utility.yul\":310:316   */\n  dup3\n    /* \"#utility.yul\":306:320   */\n  add\n    /* \"#utility.yul\":299:340   */\n  mstore\n    /* \"#utility.yul\":182:347   */\n  pop\n  jump\t// out\n    /* \"#utility.yul\":353:719   */\ntag_54:\n    /* \"#utility.yul\":495:498   */\n  0x00\n    /* \"#utility.yul\":516:583   */\n  tag_71\n    /* \"#utility.yul\":580:582   */\n  0x0f\n    /* \"#utility.yul\":575:578   */\n  dup4\n    /* \"#utility.yul\":516:583   */\n  tag_52\n  jump\t// in\ntag_71:\n    /* \"#utility.yul\":509:583   */\n  swap2\n  pop\n    /* \"#utility.yul\":592:685   */\n  tag_72\n    /* \"#utility.yul\":681:684   */\n  dup3\n    /* \"#utility.yul\":592:685   */\n  tag_53\n  jump\t// in\ntag_72:\n    /* \"#utility.yul\":710:712   */\n  0x20\n    /* \"#utility.yul\":705:708   */\n  dup3\n    /* \"#utility.yul\":701:713   */\n  add\n    /* \"#utility.yul\":694:713   */\n  swap1\n  pop\n    /* \"#utility.yul\":353:719   */\n  swap2\n  swap1\n  pop\n  jump\t// out\n    /* \"#utility.yul\":725:1144   */\ntag_25:\n    /* \"#utility.yul\":891:895   */\n  0x00\n    /* \"#utility.yul\":929:931   */\n  0x20\n    /* \"#utility.yul\":918:927   */\n  dup3\n    /* \"#utility.yul\":914:932   */\n  add\n    /* \"#utility.yul\":906:932   */\n  swap1\n  pop\n    /* \"#utility.yul\":978:987   */\n  dup2\n    /* \"#utility.yul\":972:976   */\n  dup2\n    /* \"#utility.yul\":968:988   */\n  sub\n    /* \"#utility.yul\":964:965   */\n  0x00\n    /* \"#utility.yul\":953:962   */\n  dup4\n    /* \"#utility.yul\":949:966   */\n  add\n    /* \"#utility.yul\":942:989   */\n  mstore\n    /* \"#utility.yul\":1006:1137   */\n  tag_74\n    /* \"#utility.yul\":1132:1136   */\n  dup2\n    /* \"#utility.yul\":1006:1137   */\n  tag_54\n  jump\t// in\ntag_74:\n    /* \"#utility.yul\":998:1137   */\n  swap1\n  pop\n    /* \"#utility.yul\":725:1144   */\n  swap2\n  swap1\n  pop\n  jump\t// out\n    /* \"#utility.yul\":1150:1227   */\ntag_55:\n    /* \"#utility.yul\":1187:1194   */\n  0x00\n    /* \"#utility.yul\":1216:1221   */\n  dup2\n    /* \"#utility.yul\":1205:1221   */\n  swap1\n  pop\n    /* \"#utility.yul\":1150:1227   */\n  swap2\n  swap1\n  pop\n  jump\t// out\n    /* \"#utility.yul\":1233:1351   */\ntag_56:\n    /* \"#utility.yul\":1320:1344   */\n  tag_77\n    /* \"#utility.yul\":1338:1343   */\n  dup2\n    /* \"#utility.yul\":1320:1344   */\n  tag_55\n  jump\t// in\ntag_77:\n    /* \"#utility.yul\":1315:1318   */\n  dup3\n    /* \"#utility.yul\":1308:1345   */\n  mstore\n    /* \"#utility.yul\":1233:1351   */\n  pop\n  pop\n  jump\t// out\n    /* \"#utility.yul\":1357:1579   */\ntag_27:\n    /* \"#utility.yul\":1450:1454   */\n  0x00\n    /* \"#utility.yul\":1488:1490   */\n  0x20\n    /* \"#utility.yul\":1477:1486   */\n  dup3\n    /* \"#utility.yul\":1473:1491   */\n  add\n    /* \"#utility.yul\":1465:1491   */\n  swap1\n  pop\n    /* \"#utility.yul\":1501:1572   */\n  tag_79\n    /* \"#utility.yul\":1569:1570   */\n  0x00\n    /* \"#utility.yul\":1558:1567   */\n  dup4\n    /* \"#utility.yul\":1554:1571   */\n  add\n    /* \"#utility.yul\":1545:1551   */\n  dup5\n    /* \"#utility.yul\":1501:1572   */\n  tag_56\n  jump\t// in\ntag_79:\n    /* \"#utility.yul\":1357:1579   */\n  swap3\n  swap2\n  pop\n  pop\n  jump\t// out\n    /* \"#utility.yul\":1666:1783   */\ntag_58:\n    /* \"#utility.yul\":1775:1776   */\n  0x00\n    /* \"#utility.yul\":1772:1773   */\n  dup1\n    /* \"#utility.yul\":1765:1777   */\n  revert\n    /* \"#utility.yul\":1912:2038   */\ntag_60:\n    /* \"#utility.yul\":1949:1956   */\n  0x00\n    /* \"#utility.yul\":1989:2031   */\n  0xffffffffffffffffffffffffffffffffffffffff\n    /* \"#utility.yul\":1982:1987   */\n  dup3\n    /* \"#utility.yul\":1978:2032   */\n  and\n    /* \"#utility.yul\":1967:2032   */\n  swap1\n  pop\n    /* \"#utility.yul\":1912:2038   */\n  swap2\n  swap1\n  pop\n  jump\t// out\n    /* \"#utility.yul\":2044:2140   */\ntag_61:\n    /* \"#utility.yul\":2081:2088   */\n  0x00\n    /* \"#utility.yul\":2110:2134   */\n  tag_85\n    /* \"#utility.yul\":2128:2133   */\n  dup3\n    /* \"#utility.yul\":2110:2134   */\n  tag_60\n  jump\t// in\ntag_85:\n    /* \"#utility.yul\":2099:2134   */\n  swap1\n  pop\n    /* \"#utility.yul\":2044:2140   */\n  swap2\n  swap1\n  pop\n  jump\t// out\n    /* \"#utility.yul\":2146:2268   */\ntag_62:\n    /* \"#utility.yul\":2219:2243   */\n  tag_87\n    /* \"#utility.yul\":2237:2242   */\n  dup2\n    /* \"#utility.yul\":2219:2243   */\n  tag_61\n  jump\t// in\ntag_87:\n    /* \"#utility.yul\":2212:2217   */\n  dup2\n    /* \"#utility.yul\":2209:2244   */\n  eq\n    /* \"#utility.yul\":2199:2262   */\n  tag_88\n  jumpi\n    /* \"#utility.yul\":2258:2259   */\n  0x00\n    /* \"#utility.yul\":2255:2256   */\n  dup1\n    /* \"#utility.yul\":2248:2260   */\n  revert\n    /* \"#utility.yul\":2199:2262   */\ntag_88:\n    /* \"#utility.yul\":2146:2268   */\n  pop\n  jump\t// out\n    /* \"#utility.yul\":2274:2417   */\ntag_63:\n    /* \"#utility.yul\":2331:2336   */\n  0x00\n    /* \"#utility.yul\":2362:2368   */\n  dup2\n    /* \"#utility.yul\":2356:2369   */\n  mload\n    /* \"#utility.yul\":2347:2369   */\n  swap1\n  pop\n    /* \"#utility.yul\":2378:2411   */\n  tag_90\n    /* \"#utility.yul\":2405:2410   */\n  dup2\n    /* \"#utility.yul\":2378:2411   */\n  tag_62\n  jump\t// in\ntag_90:\n    /* \"#utility.yul\":2274:2417   */\n  swap3\n  swap2\n  pop\n  pop\n  jump\t// out\n    /* \"#utility.yul\":2423:2774   */\ntag_31:\n    /* \"#utility.yul\":2493:2499   */\n  0x00\n    /* \"#utility.yul\":2542:2544   */\n  0x20\n    /* \"#utility.yul\":2530:2539   */\n  dup3\n    /* \"#utility.yul\":2521:2528   */\n  dup5\n    /* \"#utility.yul\":2517:2540   */\n  sub\n    /* \"#utility.yul\":2513:2545   */\n  slt\n    /* \"#utility.yul\":2510:2629   */\n  iszero\n  tag_92\n  jumpi\n    /* \"#utility.yul\":2548:2627   */\n  tag_93\n  tag_58\n  jump\t// in\ntag_93:\n    /* \"#utility.yul\":2510:2629   */\ntag_92:\n    /* \"#utility.yul\":2668:2669   */\n  0x00\n    /* \"#utility.yul\":2693:2757   */\n  tag_94\n    /* \"#utility.yul\":2749:2756   */\n  dup5\n    /* \"#utility.yul\":2740:2746   */\n  dup3\n    /* \"#utility.yul\":2729:2738   */\n  dup6\n    /* \"#utility.yul\":2725:2747   */\n  add\n    /* \"#utility.yul\":2693:2757   */\n  tag_63\n  jump\t// in\ntag_94:\n    /* \"#utility.yul\":2683:2757   */\n  swap2\n  pop\n    /* \"#utility.yul\":2639:2767   */\n  pop\n    /* \"#utility.yul\":2423:2774   */\n  swap3\n  swap2\n  pop\n  pop\n  jump\t// out\n    /* \"#utility.yul\":2780:2898   */\ntag_64:\n    /* \"#utility.yul\":2867:2891   */\n  tag_96\n    /* \"#utility.yul\":2885:2890   */\n  dup2\n    /* \"#utility.yul\":2867:2891   */\n  tag_61\n  jump\t// in\ntag_96:\n    /* \"#utility.yul\":2862:2865   */\n  dup3\n    /* \"#utility.yul\":2855:2892   */\n  mstore\n    /* \"#utility.yul\":2780:2898   */\n  pop\n  pop\n  jump\t// out\n    /* \"#utility.yul\":2904:3236   */\ntag_36:\n    /* \"#utility.yul\":3025:3029   */\n  0x00\n    /* \"#utility.yul\":3063:3065   */\n  0x40\n    /* \"#utility.yul\":3052:3061   */\n  dup3\n    /* \"#utility.yul\":3048:3066   */\n  add\n    /* \"#utility.yul\":3040:3066   */\n  swap1\n  pop\n    /* \"#utility.yul\":3076:3147   */\n  tag_98\n    /* \"#utility.yul\":3144:3145   */\n  0x00\n    /* \"#utility.yul\":3133:3142   */\n  dup4\n    /* \"#utility.yul\":3129:3146   */\n  add\n    /* \"#utility.yul\":3120:3126   */\n  dup6\n    /* \"#utility.yul\":3076:3147   */\n  tag_64\n  jump\t// in\ntag_98:\n    /* \"#utility.yul\":3157:3229   */\n  tag_99\n    /* \"#utility.yul\":3225:3227   */\n  0x20\n    /* \"#utility.yul\":3214:3223   */\n  dup4\n    /* \"#utility.yul\":3210:3228   */\n  add\n    /* \"#utility.yul\":3201:3207   */\n  dup5\n    /* \"#utility.yul\":3157:3229   */\n  tag_64\n  jump\t// in\ntag_99:\n    /* \"#utility.yul\":2904:3236   */\n  swap4\n  swap3\n  pop\n  pop\n  pop\n  jump\t// out\n    /* \"#utility.yul\":3242:3411   */\ntag_65:\n    /* \"#utility.yul\":3382:3403   */\n  0x45524332303a205a65726f204164647265737300000000000000000000000000\n    /* \"#utility.yul\":3378:3379   */\n  0x00\n    /* \"#utility.yul\":3370:3376   */\n  dup3\n    /* \"#utility.yul\":3366:3380   */\n  add\n    /* \"#utility.yul\":3359:3404   */\n  mstore\n    /* \"#utility.yul\":3242:3411   */\n  pop\n  jump\t// out\n    /* \"#utility.yul\":3417:3783   */\ntag_66:\n    /* \"#utility.yul\":3559:3562   */\n  0x00\n    /* \"#utility.yul\":3580:3647   */\n  tag_102\n    /* \"#utility.yul\":3644:3646   */\n  0x13\n    /* \"#utility.yul\":3639:3642   */\n  dup4\n    /* \"#utility.yul\":3580:3647   */\n  tag_52\n  jump\t// in\ntag_102:\n    /* \"#utility.yul\":3573:3647   */\n  swap2\n  pop\n    /* \"#utility.yul\":3656:3749   */\n  tag_103\n    /* \"#utility.yul\":3745:3748   */\n  dup3\n    /* \"#utility.yul\":3656:3749   */\n  tag_65\n  jump\t// in\ntag_103:\n    /* \"#utility.yul\":3774:3776   */\n  0x20\n    /* \"#utility.yul\":3769:3772   */\n  dup3\n    /* \"#utility.yul\":3765:3777   */\n  add\n    /* \"#utility.yul\":3758:3777   */\n  swap1\n  pop\n    /* \"#utility.yul\":3417:3783   */\n  swap2\n  swap1\n  pop\n  jump\t// out\n    /* \"#utility.yul\":3789:4208   */\ntag_49:\n    /* \"#utility.yul\":3955:3959   */\n  0x00\n    /* \"#utility.yul\":3993:3995   */\n  0x20\n    /* \"#utility.yul\":3982:3991   */\n  dup3\n    /* \"#utility.yul\":3978:3996   */\n  add\n    /* \"#utility.yul\":3970:3996   */\n  swap1\n  pop\n    /* \"#utility.yul\":4042:4051   */\n  dup2\n    /* \"#utility.yul\":4036:4040   */\n  dup2\n    /* \"#utility.yul\":4032:4052   */\n  sub\n    /* \"#utility.yul\":4028:4029   */\n  0x00\n    /* \"#utility.yul\":4017:4026   */\n  dup4\n    /* \"#utility.yul\":4013:4030   */\n  add\n    /* \"#utility.yul\":4006:4053   */\n  mstore\n    /* \"#utility.yul\":4070:4201   */\n  tag_105\n    /* \"#utility.yul\":4196:4200   */\n  dup2\n    /* \"#utility.yul\":4070:4201   */\n  tag_66\n  jump\t// in\ntag_105:\n    /* \"#utility.yul\":4062:4201   */\n  swap1\n  pop\n    /* \"#utility.yul\":3789:4208   */\n  swap2\n  swap1\n  pop\n  jump\t// out\n    /* \"contracts/pig2.0.sol\":4944:14098  contract PIG2 is Context, Ownable, IERC20 {... */\ntag_43:\n  dataSize(sub_0)\n  dup1\n  dataOffset(sub_0)\n  0x00\n  codecopy\n  0x00\n  return\nstop\n\nsub_0: assembly {\n        /* \"contracts/pig2.0.sol\":4944:14098  contract PIG2 is Context, Ownable, IERC20 {... */\n      mstore(0x40, 0x80)\n      jumpi(tag_1, lt(calldatasize, 0x04))\n      shr(0xe0, calldataload(0x00))\n      dup1\n      0x54de7bee\n      gt\n      tag_33\n      jumpi\n      dup1\n      0xa9059cbb\n      gt\n      tag_34\n      jumpi\n      dup1\n      0xdc9d75b0\n      gt\n      tag_35\n      jumpi\n      dup1\n      0xdc9d75b0\n      eq\n      tag_29\n      jumpi\n      dup1\n      0xdd62ed3e\n      eq\n      tag_30\n      jumpi\n      dup1\n      0xe9451f5f\n      eq\n      tag_31\n      jumpi\n      dup1\n      0xf2fde38b\n      eq\n      tag_32\n      jumpi\n      jump(tag_2)\n    tag_35:\n      dup1\n      0xa9059cbb\n      eq\n      tag_25\n      jumpi\n      dup1\n      0xc31c9c07\n      eq\n      tag_26\n      jumpi\n      dup1\n      0xc4ab12b5\n      eq\n      tag_27\n      jumpi\n      dup1\n      0xd5914dc0\n      eq\n      tag_28\n      jumpi\n      jump(tag_2)\n    tag_34:\n      dup1\n      0x893d20e8\n      gt\n      tag_36\n      jumpi\n      dup1\n      0x893d20e8\n      eq\n      tag_21\n      jumpi\n      dup1\n      0x8a8c523c\n      eq\n      tag_22\n      jumpi\n      dup1\n      0x8da5cb5b\n      eq\n      tag_23\n      jumpi\n      dup1\n      0x95d89b41\n      eq\n      tag_24\n      jumpi\n      jump(tag_2)\n    tag_36:\n      dup1\n      0x54de7bee\n      eq\n      tag_18\n      jumpi\n      dup1\n      0x70a08231\n      eq\n      tag_19\n      jumpi\n      dup1\n      0x715018a6\n      eq\n      tag_20\n      jumpi\n      jump(tag_2)\n    tag_33:\n      dup1\n      0x18160ddd\n      gt\n      tag_37\n      jumpi\n      dup1\n      0x313ce567\n      gt\n      tag_38\n      jumpi\n      dup1\n      0x313ce567\n      eq\n      tag_14\n      jumpi\n      dup1\n      0x3cd17c96\n      eq\n      tag_15\n      jumpi\n      dup1\n      0x3eaaf86b\n      eq\n      tag_16\n      jumpi\n      dup1\n      0x452ed4f1\n      eq\n      tag_17\n      jumpi\n      jump(tag_2)\n    tag_38:\n      dup1\n      0x18160ddd\n      eq\n      tag_10\n      jumpi\n      dup1\n      0x1dc36945\n      eq\n      tag_11\n      jumpi\n      dup1\n      0x23b872dd\n      eq\n      tag_12\n      jumpi\n      dup1\n      0x27889862\n      eq\n      tag_13\n      jumpi\n      jump(tag_2)\n    tag_37:\n      dup1\n      0x06fdde03\n      gt\n      tag_39\n      jumpi\n      dup1\n      0x06fdde03\n      eq\n      tag_6\n      jumpi\n      dup1\n      0x095ea7b3\n      eq\n      tag_7\n      jumpi\n      dup1\n      0x0faba554\n      eq\n      tag_8\n      jumpi\n      dup1\n      0x111a60b0\n      eq\n      tag_9\n      jumpi\n      jump(tag_2)\n    tag_39:\n      dup1\n      0x03fd2a45\n      eq\n      tag_3\n      jumpi\n      dup1\n      0x0445b667\n      eq\n      tag_4\n      jumpi\n      dup1\n      0x064a59d0\n      eq\n      tag_5\n      jumpi\n      jump(tag_2)\n    tag_1:\n      jumpi(tag_2, calldatasize)\n      stop\n    tag_2:\n      0x00\n      dup1\n      revert\n        /* \"contracts/pig2.0.sol\":6756:6829  address constant public DEAD = 0x000000000000000000000000000000000000dEaD */\n    tag_3:\n      callvalue\n      dup1\n      iszero\n      tag_42\n      jumpi\n      0x00\n      dup1\n      revert\n    tag_42:\n      pop\n      tag_43\n      tag_44\n      jump\t// in\n    tag_43:\n      mload(0x40)\n      tag_45\n      swap2\n      swap1\n      tag_46\n      jump\t// in\n    tag_45:\n      mload(0x40)\n      dup1\n      swap2\n      sub\n      swap1\n      return\n        /* \"contracts/pig2.0.sol\":6187:6247  uint256 constant public swapThreshold = _totalSupply / 5_000 */\n    tag_4:\n      callvalue\n      dup1\n      iszero\n      tag_47\n      jumpi\n      0x00\n      dup1\n      revert\n    tag_47:\n      pop\n      tag_48\n      tag_49\n      jump\t// in\n    tag_48:\n      mload(0x40)\n      tag_50\n      swap2\n      swap1\n      tag_51\n      jump\t// in\n    tag_50:\n      mload(0x40)\n      dup1\n      swap2\n      sub\n      swap1\n      return\n        /* \"contracts/pig2.0.sol\":6864:6900  bool public isTradingEnabled = false */\n    tag_5:\n      callvalue\n      dup1\n      iszero\n      tag_52\n      jumpi\n      0x00\n      dup1\n      revert\n    tag_52:\n      pop\n      tag_53\n      tag_54\n      jump\t// in\n    tag_53:\n      mload(0x40)\n      tag_55\n      swap2\n      swap1\n      tag_56\n      jump\t// in\n    tag_55:\n      mload(0x40)\n      dup1\n      swap2\n      sub\n      swap1\n      return\n        /* \"contracts/pig2.0.sol\":5339:5419  function name() external pure override returns (string memory) { return _name; } */\n    tag_6:\n      callvalue\n      dup1\n      iszero\n      tag_57\n      jumpi\n      0x00\n      dup1\n      revert\n    tag_57:\n      pop\n      tag_58\n      tag_59\n      jump\t// in\n    tag_58:\n      mload(0x40)\n      tag_60\n      swap2\n      swap1\n      tag_61\n      jump\t// in\n    tag_60:\n      mload(0x40)\n      dup1\n      swap2\n      sub\n      swap1\n      return\n        /* \"contracts/pig2.0.sol\":8714:8875  function approve(address spender, uint256 amount) external override returns (bool) {... */\n    tag_7:\n      callvalue\n      dup1\n      iszero\n      tag_62\n      jumpi\n      0x00\n      dup1\n      revert\n    tag_62:\n      pop\n      tag_63\n      0x04\n      dup1\n      calldatasize\n      sub\n      dup2\n      add\n      swap1\n      tag_64\n      swap2\n      swap1\n      tag_65\n      jump\t// in\n    tag_64:\n      tag_66\n      jump\t// in\n    tag_63:\n      mload(0x40)\n      tag_67\n      swap2\n      swap1\n      tag_56\n      jump\t// in\n    tag_67:\n      mload(0x40)\n      dup1\n      swap2\n      sub\n      swap1\n      return\n        /* \"contracts/pig2.0.sol\":9589:9705  function setNoFeeWallet(address account, bool enabled) public onlyOwner {... */\n    tag_8:\n      callvalue\n      dup1\n      iszero\n      tag_68\n      jumpi\n      0x00\n      dup1\n      revert\n    tag_68:\n      pop\n      tag_69\n      0x04\n      dup1\n      calldatasize\n      sub\n      dup2\n      add\n      swap1\n      tag_70\n      swap2\n      swap1\n      tag_71\n      jump\t// in\n    tag_70:\n      tag_72\n      jump\t// in\n    tag_69:\n      stop\n        /* \"contracts/pig2.0.sol\":10751:10947  function toggleCanSwapFees(bool yesno) external onlyOwner {... */\n    tag_9:\n      callvalue\n      dup1\n      iszero\n      tag_73\n      jumpi\n      0x00\n      dup1\n      revert\n    tag_73:\n      pop\n      tag_74\n      0x04\n      dup1\n      calldatasize\n      sub\n      dup2\n      add\n      swap1\n      tag_75\n      swap2\n      swap1\n      tag_76\n      jump\t// in\n    tag_75:\n      tag_77\n      jump\t// in\n    tag_74:\n      stop\n        /* \"contracts/pig2.0.sol\":4995:5120  function totalSupply() external pure override returns (uint256) { if (_totalSupply == 0) { revert(); } return _totalSupply; } */\n    tag_10:\n      callvalue\n      dup1\n      iszero\n      tag_78\n      jumpi\n      0x00\n      dup1\n      revert\n    tag_78:\n      pop\n      tag_79\n      tag_80\n      jump\t// in\n    tag_79:\n      mload(0x40)\n      tag_81\n      swap2\n      swap1\n      tag_51\n      jump\t// in\n    tag_81:\n      mload(0x40)\n      dup1\n      swap2\n      sub\n      swap1\n      return\n        /* \"contracts/pig2.0.sol\":6254:6289  uint256 constant public buyfee = 10 */\n    tag_11:\n      callvalue\n      dup1\n      iszero\n      tag_82\n      jumpi\n      0x00\n      dup1\n      revert\n    tag_82:\n      pop\n      tag_83\n      tag_84\n      jump\t// in\n    tag_83:\n      mload(0x40)\n      tag_85\n      swap2\n      swap1\n      tag_51\n      jump\t// in\n    tag_85:\n      mload(0x40)\n      dup1\n      swap2\n      sub\n      swap1\n      return\n        /* \"contracts/pig2.0.sol\":9160:9466  function transferFrom(address sender, address recipient, uint256 amount) external override returns (bool) {... */\n    tag_12:\n      callvalue\n      dup1\n      iszero\n      tag_86\n      jumpi\n      0x00\n      dup1\n      revert\n    tag_86:\n      pop\n      tag_87\n      0x04\n      dup1\n      calldatasize\n      sub\n      dup2\n      add\n      swap1\n      tag_88\n      swap2\n      swap1\n      tag_89\n      jump\t// in\n    tag_88:\n      tag_90\n      jump\t// in\n    tag_87:\n      mload(0x40)\n      tag_91\n      swap2\n      swap1\n      tag_56\n      jump\t// in\n    tag_91:\n      mload(0x40)\n      dup1\n      swap2\n      sub\n      swap1\n      return\n        /* \"contracts/pig2.0.sol\":9472:9581  function isNoFeeWallet(address account) external view returns(bool) {... */\n    tag_13:\n      callvalue\n      dup1\n      iszero\n      tag_92\n      jumpi\n      0x00\n      dup1\n      revert\n    tag_92:\n      pop\n      tag_93\n      0x04\n      dup1\n      calldatasize\n      sub\n      dup2\n      add\n      swap1\n      tag_94\n      swap2\n      swap1\n      tag_95\n      jump\t// in\n    tag_94:\n      tag_96\n      jump\t// in\n    tag_93:\n      mload(0x40)\n      tag_97\n      swap2\n      swap1\n      tag_56\n      jump\t// in\n    tag_97:\n      mload(0x40)\n      dup1\n      swap2\n      sub\n      swap1\n      return\n        /* \"contracts/pig2.0.sol\":5126:5243  function decimals() external pure override returns (uint8) { if (_totalSupply == 0) { revert(); } return _decimals; } */\n    tag_14:\n      callvalue\n      dup1\n      iszero\n      tag_98\n      jumpi\n      0x00\n      dup1\n      revert\n    tag_98:\n      pop\n      tag_99\n      tag_100\n      jump\t// in\n    tag_99:\n      mload(0x40)\n      tag_101\n      swap2\n      swap1\n      tag_102\n      jump\t// in\n    tag_101:\n      mload(0x40)\n      dup1\n      swap2\n      sub\n      swap1\n      return\n        /* \"contracts/pig2.0.sol\":13538:13879  function setPresaleAddress(address presale, bool yesno) external onlyOwner {... */\n    tag_15:\n      callvalue\n      dup1\n      iszero\n      tag_103\n      jumpi\n      0x00\n      dup1\n      revert\n    tag_103:\n      pop\n      tag_104\n      0x04\n      dup1\n      calldatasize\n      sub\n      dup2\n      add\n      swap1\n      tag_105\n      swap2\n      swap1\n      tag_71\n      jump\t// in\n    tag_105:\n      tag_106\n      jump\t// in\n    tag_104:\n      stop\n        /* \"contracts/pig2.0.sol\":6114:6180  uint256 constant public _totalSupply = 420_690_000_000_000 * 10**9 */\n    tag_16:\n      callvalue\n      dup1\n      iszero\n      tag_107\n      jumpi\n      0x00\n      dup1\n      revert\n    tag_107:\n      pop\n      tag_108\n      tag_109\n      jump\t// in\n    tag_108:\n      mload(0x40)\n      tag_110\n      swap2\n      swap1\n      tag_51\n      jump\t// in\n    tag_110:\n      mload(0x40)\n      dup1\n      swap2\n      sub\n      swap1\n      return\n        /* \"contracts/pig2.0.sol\":6836:6857  address public lpPair */\n    tag_17:\n      callvalue\n      dup1\n      iszero\n      tag_111\n      jumpi\n      0x00\n      dup1\n      revert\n    tag_111:\n      pop\n      tag_112\n      tag_113\n      jump\t// in\n    tag_112:\n      mload(0x40)\n      tag_114\n      swap2\n      swap1\n      tag_46\n      jump\t// in\n    tag_114:\n      mload(0x40)\n      dup1\n      swap2\n      sub\n      swap1\n      return\n        /* \"contracts/pig2.0.sol\":6339:6378  uint256 constant public transferfee = 0 */\n    tag_18:\n      callvalue\n      dup1\n      iszero\n      tag_115\n      jumpi\n      0x00\n      dup1\n      revert\n    tag_115:\n      pop\n      tag_116\n      tag_117\n      jump\t// in\n    tag_116:\n      mload(0x40)\n      tag_118\n      swap2\n      swap1\n      tag_51\n      jump\t// in\n    tag_118:\n      mload(0x40)\n      dup1\n      swap2\n      sub\n      swap1\n      return\n        /* \"contracts/pig2.0.sol\":5650:5767  function balanceOf(address account) public view override returns (uint256) {... */\n    tag_19:\n      callvalue\n      dup1\n      iszero\n      tag_119\n      jumpi\n      0x00\n      dup1\n      revert\n    tag_119:\n      pop\n      tag_120\n      0x04\n      dup1\n      calldatasize\n      sub\n      dup2\n      add\n      swap1\n      tag_121\n      swap2\n      swap1\n      tag_95\n      jump\t// in\n    tag_121:\n      tag_122\n      jump\t// in\n    tag_120:\n      mload(0x40)\n      tag_123\n      swap2\n      swap1\n      tag_51\n      jump\t// in\n    tag_123:\n      mload(0x40)\n      dup1\n      swap2\n      sub\n      swap1\n      return\n        /* \"contracts/pig2.0.sol\":921:1015  function renounceOwnership() public virtual onlyOwner {... */\n    tag_20:\n      callvalue\n      dup1\n      iszero\n      tag_124\n      jumpi\n      0x00\n      dup1\n      revert\n    tag_124:\n      pop\n      tag_125\n      tag_126\n      jump\t// in\n    tag_125:\n      stop\n        /* \"contracts/pig2.0.sol\":5425:5505  function getOwner() external view override returns (address) { return owner(); } */\n    tag_21:\n      callvalue\n      dup1\n      iszero\n      tag_127\n      jumpi\n      0x00\n      dup1\n      revert\n    tag_127:\n      pop\n      tag_128\n      tag_129\n      jump\t// in\n    tag_128:\n      mload(0x40)\n      tag_130\n      swap2\n      swap1\n      tag_46\n      jump\t// in\n    tag_130:\n      mload(0x40)\n      dup1\n      swap2\n      sub\n      swap1\n      return\n        /* \"contracts/pig2.0.sol\":13891:14089  function enableTrading() external onlyOwner {... */\n    tag_22:\n      callvalue\n      dup1\n      iszero\n      tag_131\n      jumpi\n      0x00\n      dup1\n      revert\n    tag_131:\n      pop\n      tag_132\n      tag_133\n      jump\t// in\n    tag_132:\n      stop\n        /* \"contracts/pig2.0.sol\":698:785  function owner() public view virtual returns (address) {... */\n    tag_23:\n      callvalue\n      dup1\n      iszero\n      tag_134\n      jumpi\n      0x00\n      dup1\n      revert\n    tag_134:\n      pop\n      tag_135\n      tag_136\n      jump\t// in\n    tag_135:\n      mload(0x40)\n      tag_137\n      swap2\n      swap1\n      tag_46\n      jump\t// in\n    tag_137:\n      mload(0x40)\n      dup1\n      swap2\n      sub\n      swap1\n      return\n        /* \"contracts/pig2.0.sol\":5249:5333  function symbol() external pure override returns (string memory) { return _symbol; } */\n    tag_24:\n      callvalue\n      dup1\n      iszero\n      tag_138\n      jumpi\n      0x00\n      dup1\n      revert\n    tag_138:\n      pop\n      tag_139\n      tag_140\n      jump\t// in\n    tag_139:\n      mload(0x40)\n      tag_141\n      swap2\n      swap1\n      tag_61\n      jump\t// in\n    tag_141:\n      mload(0x40)\n      dup1\n      swap2\n      sub\n      swap1\n      return\n        /* \"contracts/pig2.0.sol\":8537:8702  function transfer(address recipient, uint256 amount) public override returns (bool) {... */\n    tag_25:\n      callvalue\n      dup1\n      iszero\n      tag_142\n      jumpi\n      0x00\n      dup1\n      revert\n    tag_142:\n      pop\n      tag_143\n      0x04\n      dup1\n      calldatasize\n      sub\n      dup2\n      add\n      swap1\n      tag_144\n      swap2\n      swap1\n      tag_65\n      jump\t// in\n    tag_144:\n      tag_145\n      jump\t// in\n    tag_143:\n      mload(0x40)\n      tag_146\n      swap2\n      swap1\n      tag_56\n      jump\t// in\n    tag_146:\n      mload(0x40)\n      dup1\n      swap2\n      sub\n      swap1\n      return\n        /* \"contracts/pig2.0.sol\":6582:6609  IRouter02 public swapRouter */\n    tag_26:\n      callvalue\n      dup1\n      iszero\n      tag_147\n      jumpi\n      0x00\n      dup1\n      revert\n    tag_147:\n      pop\n      tag_148\n      tag_149\n      jump\t// in\n    tag_148:\n      mload(0x40)\n      tag_150\n      swap2\n      swap1\n      tag_151\n      jump\t// in\n    tag_150:\n      mload(0x40)\n      dup1\n      swap2\n      sub\n      swap1\n      return\n        /* \"contracts/pig2.0.sol\":12018:12176  function changeWallets(address marketing) external onlyOwner {... */\n    tag_27:\n      callvalue\n      dup1\n      iszero\n      tag_152\n      jumpi\n      0x00\n      dup1\n      revert\n    tag_152:\n      pop\n      tag_153\n      0x04\n      dup1\n      calldatasize\n      sub\n      dup2\n      add\n      swap1\n      tag_154\n      swap2\n      swap1\n      tag_95\n      jump\t// in\n    tag_154:\n      tag_155\n      jump\t// in\n    tag_153:\n      stop\n        /* \"contracts/pig2.0.sol\":10606:10743  function changeLpPair(address newPair) external onlyOwner {... */\n    tag_28:\n      callvalue\n      dup1\n      iszero\n      tag_156\n      jumpi\n      0x00\n      dup1\n      revert\n    tag_156:\n      pop\n      tag_157\n      0x04\n      dup1\n      calldatasize\n      sub\n      dup2\n      add\n      swap1\n      tag_158\n      swap2\n      swap1\n      tag_95\n      jump\t// in\n    tag_158:\n      tag_159\n      jump\t// in\n    tag_157:\n      stop\n        /* \"contracts/pig2.0.sol\":6385:6432  uint256 constant public fee_denominator = 1_000 */\n    tag_29:\n      callvalue\n      dup1\n      iszero\n      tag_160\n      jumpi\n      0x00\n      dup1\n      revert\n    tag_160:\n      pop\n      tag_161\n      tag_162\n      jump\t// in\n    tag_161:\n      mload(0x40)\n      tag_163\n      swap2\n      swap1\n      tag_51\n      jump\t// in\n    tag_163:\n      mload(0x40)\n      dup1\n      swap2\n      sub\n      swap1\n      return\n        /* \"contracts/pig2.0.sol\":5511:5644  function allowance(address holder, address spender) external view override returns (uint256) { return _allowances[holder][spender]; } */\n    tag_30:\n      callvalue\n      dup1\n      iszero\n      tag_164\n      jumpi\n      0x00\n      dup1\n      revert\n    tag_164:\n      pop\n      tag_165\n      0x04\n      dup1\n      calldatasize\n      sub\n      dup2\n      add\n      swap1\n      tag_166\n      swap2\n      swap1\n      tag_167\n      jump\t// in\n    tag_166:\n      tag_168\n      jump\t// in\n    tag_165:\n      mload(0x40)\n      tag_169\n      swap2\n      swap1\n      tag_51\n      jump\t// in\n    tag_169:\n      mload(0x40)\n      dup1\n      swap2\n      sub\n      swap1\n      return\n        /* \"contracts/pig2.0.sol\":6296:6332  uint256 constant public sellfee = 10 */\n    tag_31:\n      callvalue\n      dup1\n      iszero\n      tag_170\n      jumpi\n      0x00\n      dup1\n      revert\n    tag_170:\n      pop\n      tag_171\n      tag_172\n      jump\t// in\n    tag_171:\n      mload(0x40)\n      tag_173\n      swap2\n      swap1\n      tag_51\n      jump\t// in\n    tag_173:\n      mload(0x40)\n      dup1\n      swap2\n      sub\n      swap1\n      return\n        /* \"contracts/pig2.0.sol\":1023:1215  function transferOwnership(address newOwner) public virtual onlyOwner {... */\n    tag_32:\n      callvalue\n      dup1\n      iszero\n      tag_174\n      jumpi\n      0x00\n      dup1\n      revert\n    tag_174:\n      pop\n      tag_175\n      0x04\n      dup1\n      calldatasize\n      sub\n      dup2\n      add\n      swap1\n      tag_176\n      swap2\n      swap1\n      tag_95\n      jump\t// in\n    tag_176:\n      tag_177\n      jump\t// in\n    tag_175:\n      stop\n        /* \"contracts/pig2.0.sol\":6756:6829  address constant public DEAD = 0x000000000000000000000000000000000000dEaD */\n    tag_44:\n        /* \"contracts/pig2.0.sol\":6787:6829  0x000000000000000000000000000000000000dEaD */\n      0xdead\n        /* \"contracts/pig2.0.sol\":6756:6829  address constant public DEAD = 0x000000000000000000000000000000000000dEaD */\n      dup2\n      jump\t// out\n        /* \"contracts/pig2.0.sol\":6187:6247  uint256 constant public swapThreshold = _totalSupply / 5_000 */\n    tag_49:\n        /* \"contracts/pig2.0.sol\":6242:6247  5_000 */\n      0x1388\n        /* \"contracts/pig2.0.sol\":6153:6180  420_690_000_000_000 * 10**9 */\n      0x5915a68d88da6a080000\n        /* \"contracts/pig2.0.sol\":6227:6247  _totalSupply / 5_000 */\n      tag_178\n      swap2\n      swap1\n      tag_179\n      jump\t// in\n    tag_178:\n        /* \"contracts/pig2.0.sol\":6187:6247  uint256 constant public swapThreshold = _totalSupply / 5_000 */\n      dup2\n      jump\t// out\n        /* \"contracts/pig2.0.sol\":6864:6900  bool public isTradingEnabled = false */\n    tag_54:\n      0x09\n      0x14\n      swap1\n      sload\n      swap1\n      0x0100\n      exp\n      swap1\n      div\n      0xff\n      and\n      dup2\n      jump\t// out\n        /* \"contracts/pig2.0.sol\":5339:5419  function name() external pure override returns (string memory) { return _name; } */\n    tag_59:\n        /* \"contracts/pig2.0.sol\":5387:5400  string memory */\n      0x60\n        /* \"contracts/pig2.0.sol\":5411:5416  _name */\n      mload(0x40)\n      dup1\n      0x40\n      add\n      0x40\n      mstore\n      dup1\n      0x07\n      dup2\n      mstore\n      0x20\n      add\n      0x50696720322e3000000000000000000000000000000000000000000000000000\n      dup2\n      mstore\n      pop\n        /* \"contracts/pig2.0.sol\":5404:5416  return _name */\n      swap1\n      pop\n        /* \"contracts/pig2.0.sol\":5339:5419  function name() external pure override returns (string memory) { return _name; } */\n      swap1\n      jump\t// out\n        /* \"contracts/pig2.0.sol\":8714:8875  function approve(address spender, uint256 amount) external override returns (bool) {... */\n    tag_66:\n        /* \"contracts/pig2.0.sol\":8791:8795  bool */\n      0x00\n        /* \"contracts/pig2.0.sol\":8808:8845  _approve(msg.sender, spender, amount) */\n      tag_182\n        /* \"contracts/pig2.0.sol\":8817:8827  msg.sender */\n      caller\n        /* \"contracts/pig2.0.sol\":8829:8836  spender */\n      dup5\n        /* \"contracts/pig2.0.sol\":8838:8844  amount */\n      dup5\n        /* \"contracts/pig2.0.sol\":8808:8816  _approve */\n      tag_183\n        /* \"contracts/pig2.0.sol\":8808:8845  _approve(msg.sender, spender, amount) */\n      jump\t// in\n    tag_182:\n        /* \"contracts/pig2.0.sol\":8863:8867  true */\n      0x01\n        /* \"contracts/pig2.0.sol\":8856:8867  return true */\n      swap1\n      pop\n        /* \"contracts/pig2.0.sol\":8714:8875  function approve(address spender, uint256 amount) external override returns (bool) {... */\n      swap3\n      swap2\n      pop\n      pop\n      jump\t// out\n        /* \"contracts/pig2.0.sol\":9589:9705  function setNoFeeWallet(address account, bool enabled) public onlyOwner {... */\n    tag_72:\n        /* \"contracts/pig2.0.sol\":844:856  _msgSender() */\n      tag_185\n        /* \"contracts/pig2.0.sol\":844:854  _msgSender */\n      tag_186\n        /* \"contracts/pig2.0.sol\":844:856  _msgSender() */\n      jump\t// in\n    tag_185:\n        /* \"contracts/pig2.0.sol\":833:856  owner() == _msgSender() */\n      0xffffffffffffffffffffffffffffffffffffffff\n      and\n        /* \"contracts/pig2.0.sol\":833:840  owner() */\n      tag_187\n        /* \"contracts/pig2.0.sol\":833:838  owner */\n      tag_136\n        /* \"contracts/pig2.0.sol\":833:840  owner() */\n      jump\t// in\n    tag_187:\n        /* \"contracts/pig2.0.sol\":833:856  owner() == _msgSender() */\n      0xffffffffffffffffffffffffffffffffffffffff\n      and\n      eq\n        /* \"contracts/pig2.0.sol\":825:893  require(owner() == _msgSender(), \"Ownable: caller is not the owner\") */\n      tag_188\n      jumpi\n      mload(0x40)\n      0x08c379a000000000000000000000000000000000000000000000000000000000\n      dup2\n      mstore\n      0x04\n      add\n      tag_189\n      swap1\n      tag_190\n      jump\t// in\n    tag_189:\n      mload(0x40)\n      dup1\n      swap2\n      sub\n      swap1\n      revert\n    tag_188:\n        /* \"contracts/pig2.0.sol\":9690:9697  enabled */\n      dup1\n        /* \"contracts/pig2.0.sol\":9672:9678  _noFee */\n      0x02\n        /* \"contracts/pig2.0.sol\":9672:9687  _noFee[account] */\n      0x00\n        /* \"contracts/pig2.0.sol\":9679:9686  account */\n      dup5\n        /* \"contracts/pig2.0.sol\":9672:9687  _noFee[account] */\n      0xffffffffffffffffffffffffffffffffffffffff\n      and\n      0xffffffffffffffffffffffffffffffffffffffff\n      and\n      dup2\n      mstore\n      0x20\n      add\n      swap1\n      dup2\n      mstore\n      0x20\n      add\n      0x00\n      keccak256\n      0x00\n        /* \"contracts/pig2.0.sol\":9672:9697  _noFee[account] = enabled */\n      0x0100\n      exp\n      dup2\n      sload\n      dup2\n      0xff\n      mul\n      not\n      and\n      swap1\n      dup4\n      iszero\n      iszero\n      mul\n      or\n      swap1\n      sstore\n      pop\n        /* \"contracts/pig2.0.sol\":9589:9705  function setNoFeeWallet(address account, bool enabled) public onlyOwner {... */\n      pop\n      pop\n      jump\t// out\n        /* \"contracts/pig2.0.sol\":10751:10947  function toggleCanSwapFees(bool yesno) external onlyOwner {... */\n    tag_77:\n        /* \"contracts/pig2.0.sol\":844:856  _msgSender() */\n      tag_193\n        /* \"contracts/pig2.0.sol\":844:854  _msgSender */\n      tag_186\n        /* \"contracts/pig2.0.sol\":844:856  _msgSender() */\n      jump\t// in\n    tag_193:\n        /* \"contracts/pig2.0.sol\":833:856  owner() == _msgSender() */\n      0xffffffffffffffffffffffffffffffffffffffff\n      and\n        /* \"contracts/pig2.0.sol\":833:840  owner() */\n      tag_194\n        /* \"contracts/pig2.0.sol\":833:838  owner */\n      tag_136\n        /* \"contracts/pig2.0.sol\":833:840  owner() */\n      jump\t// in\n    tag_194:\n        /* \"contracts/pig2.0.sol\":833:856  owner() == _msgSender() */\n      0xffffffffffffffffffffffffffffffffffffffff\n      and\n      eq\n        /* \"contracts/pig2.0.sol\":825:893  require(owner() == _msgSender(), \"Ownable: caller is not the owner\") */\n      tag_195\n      jumpi\n      mload(0x40)\n      0x08c379a000000000000000000000000000000000000000000000000000000000\n      dup2\n      mstore\n      0x04\n      add\n      tag_196\n      swap1\n      tag_190\n      jump\t// in\n    tag_196:\n      mload(0x40)\n      dup1\n      swap2\n      sub\n      swap1\n      revert\n    tag_195:\n        /* \"contracts/pig2.0.sol\":10843:10848  yesno */\n      dup1\n        /* \"contracts/pig2.0.sol\":10828:10848  canSwapFees != yesno */\n      iszero\n      iszero\n        /* \"contracts/pig2.0.sol\":10828:10839  canSwapFees */\n      0x07\n      0x00\n      swap1\n      sload\n      swap1\n      0x0100\n      exp\n      swap1\n      div\n      0xff\n      and\n        /* \"contracts/pig2.0.sol\":10828:10848  canSwapFees != yesno */\n      iszero\n      iszero\n      sub\n        /* \"contracts/pig2.0.sol\":10820:10868  require(canSwapFees != yesno,\"Bool is the same\") */\n      tag_198\n      jumpi\n      mload(0x40)\n      0x08c379a000000000000000000000000000000000000000000000000000000000\n      dup2\n      mstore\n      0x04\n      add\n      tag_199\n      swap1\n      tag_200\n      jump\t// in\n    tag_199:\n      mload(0x40)\n      dup1\n      swap2\n      sub\n      swap1\n      revert\n    tag_198:\n        /* \"contracts/pig2.0.sol\":10893:10898  yesno */\n      dup1\n        /* \"contracts/pig2.0.sol\":10879:10890  canSwapFees */\n      0x07\n      0x00\n        /* \"contracts/pig2.0.sol\":10879:10898  canSwapFees = yesno */\n      0x0100\n      exp\n      dup2\n      sload\n      dup2\n      0xff\n      mul\n      not\n      and\n      swap1\n      dup4\n      iszero\n      iszero\n      mul\n      or\n      swap1\n      sstore\n      pop\n        /* \"contracts/pig2.0.sol\":10914:10939  _toggleCanSwapFees(yesno) */\n      0x4686eea8d0ea8d72497b77f908906325d7bbafd9f1d6753522573258958656e8\n        /* \"contracts/pig2.0.sol\":10933:10938  yesno */\n      dup2\n        /* \"contracts/pig2.0.sol\":10914:10939  _toggleCanSwapFees(yesno) */\n      mload(0x40)\n      tag_201\n      swap2\n      swap1\n      tag_56\n      jump\t// in\n    tag_201:\n      mload(0x40)\n      dup1\n      swap2\n      sub\n      swap1\n      log1\n        /* \"contracts/pig2.0.sol\":10751:10947  function toggleCanSwapFees(bool yesno) external onlyOwner {... */\n      pop\n      jump\t// out\n        /* \"contracts/pig2.0.sol\":4995:5120  function totalSupply() external pure override returns (uint256) { if (_totalSupply == 0) { revert(); } return _totalSupply; } */\n    tag_80:\n        /* \"contracts/pig2.0.sol\":5050:5057  uint256 */\n      0x00\n        /* \"contracts/pig2.0.sol\":5081:5082  0 */\n      dup1\n        /* \"contracts/pig2.0.sol\":6153:6180  420_690_000_000_000 * 10**9 */\n      0x5915a68d88da6a080000\n        /* \"contracts/pig2.0.sol\":5065:5082  _totalSupply == 0 */\n      sub\n        /* \"contracts/pig2.0.sol\":5061:5097  if (_totalSupply == 0) { revert(); } */\n      tag_203\n      jumpi\n        /* \"contracts/pig2.0.sol\":5086:5094  revert() */\n      0x00\n      dup1\n      revert\n        /* \"contracts/pig2.0.sol\":5061:5097  if (_totalSupply == 0) { revert(); } */\n    tag_203:\n        /* \"contracts/pig2.0.sol\":6153:6180  420_690_000_000_000 * 10**9 */\n      0x5915a68d88da6a080000\n        /* \"contracts/pig2.0.sol\":5098:5117  return _totalSupply */\n      swap1\n      pop\n        /* \"contracts/pig2.0.sol\":4995:5120  function totalSupply() external pure override returns (uint256) { if (_totalSupply == 0) { revert(); } return _totalSupply; } */\n      swap1\n      jump\t// out\n        /* \"contracts/pig2.0.sol\":6254:6289  uint256 constant public buyfee = 10 */\n    tag_84:\n        /* \"contracts/pig2.0.sol\":6287:6289  10 */\n      0x0a\n        /* \"contracts/pig2.0.sol\":6254:6289  uint256 constant public buyfee = 10 */\n      dup2\n      jump\t// out\n        /* \"contracts/pig2.0.sol\":9160:9466  function transferFrom(address sender, address recipient, uint256 amount) external override returns (bool) {... */\n    tag_90:\n        /* \"contracts/pig2.0.sol\":9260:9264  bool */\n      0x00\n        /* \"contracts/pig2.0.sol\":9316:9333  type(uint256).max */\n      0xffffffffffffffffffffffffffffffffffffffffffffffffffffffffffffffff\n        /* \"contracts/pig2.0.sol\":9281:9292  _allowances */\n      0x01\n        /* \"contracts/pig2.0.sol\":9281:9300  _allowances[sender] */\n      0x00\n        /* \"contracts/pig2.0.sol\":9293:9299  sender */\n      dup7\n        /* \"contracts/pig2.0.sol\":9281:9300  _allowances[sender] */\n      0xffffffffffffffffffffffffffffffffffffffff\n      and\n      0xffffffffffffffffffffffffffffffffffffffff\n      and\n      dup2\n      mstore\n      0x20\n      add\n      swap1\n      dup2\n      mstore\n      0x20\n      add\n      0x00\n      keccak256\n        /* \"contracts/pig2.0.sol\":9281:9312  _allowances[sender][msg.sender] */\n      0x00\n        /* \"contracts/pig2.0.sol\":9301:9311  msg.sender */\n      caller\n        /* \"contracts/pig2.0.sol\":9281:9312  _allowances[sender][msg.sender] */\n      0xffffffffffffffffffffffffffffffffffffffff\n      and\n      0xffffffffffffffffffffffffffffffffffffffff\n      and\n      dup2\n      mstore\n      0x20\n      add\n      swap1\n      dup2\n      mstore\n      0x20\n      add\n      0x00\n      keccak256\n      sload\n        /* \"contracts/pig2.0.sol\":9281:9333  _allowances[sender][msg.sender] != type(uint256).max */\n      eq\n        /* \"contracts/pig2.0.sol\":9277:9403  if (_allowances[sender][msg.sender] != type(uint256).max) {... */\n      tag_205\n      jumpi\n        /* \"contracts/pig2.0.sol\":9385:9391  amount */\n      dup2\n        /* \"contracts/pig2.0.sol\":9350:9361  _allowances */\n      0x01\n        /* \"contracts/pig2.0.sol\":9350:9369  _allowances[sender] */\n      0x00\n        /* \"contracts/pig2.0.sol\":9362:9368  sender */\n      dup7\n        /* \"contracts/pig2.0.sol\":9350:9369  _allowances[sender] */\n      0xffffffffffffffffffffffffffffffffffffffff\n      and\n      0xffffffffffffffffffffffffffffffffffffffff\n      and\n      dup2\n      mstore\n      0x20\n      add\n      swap1\n      dup2\n      mstore\n      0x20\n      add\n      0x00\n      keccak256\n        /* \"contracts/pig2.0.sol\":9350:9381  _allowances[sender][msg.sender] */\n      0x00\n        /* \"contracts/pig2.0.sol\":9370:9380  msg.sender */\n      caller\n        /* \"contracts/pig2.0.sol\":9350:9381  _allowances[sender][msg.sender] */\n      0xffffffffffffffffffffffffffffffffffffffff\n      and\n      0xffffffffffffffffffffffffffffffffffffffff\n      and\n      dup2\n      mstore\n      0x20\n      add\n      swap1\n      dup2\n      mstore\n      0x20\n      add\n      0x00\n      keccak256\n      0x00\n        /* \"contracts/pig2.0.sol\":9350:9391  _allowances[sender][msg.sender] -= amount */\n      dup3\n      dup3\n      sload\n      tag_206\n      swap2\n      swap1\n      tag_207\n      jump\t// in\n    tag_206:\n      swap3\n      pop\n      pop\n      dup2\n      swap1\n      sstore\n      pop\n        /* \"contracts/pig2.0.sol\":9277:9403  if (_allowances[sender][msg.sender] != type(uint256).max) {... */\n    tag_205:\n        /* \"contracts/pig2.0.sol\":9422:9458  _transfer(sender, recipient, amount) */\n      tag_208\n        /* \"contracts/pig2.0.sol\":9432:9438  sender */\n      dup5\n        /* \"contracts/pig2.0.sol\":9440:9449  recipient */\n      dup5\n        /* \"contracts/pig2.0.sol\":9451:9457  amount */\n      dup5\n        /* \"contracts/pig2.0.sol\":9422:9431  _transfer */\n      tag_209\n        /* \"contracts/pig2.0.sol\":9422:9458  _transfer(sender, recipient, amount) */\n      jump\t// in\n    tag_208:\n        /* \"contracts/pig2.0.sol\":9415:9458  return _transfer(sender, recipient, amount) */\n      swap1\n      pop\n        /* \"contracts/pig2.0.sol\":9160:9466  function transferFrom(address sender, address recipient, uint256 amount) external override returns (bool) {... */\n      swap4\n      swap3\n      pop\n      pop\n      pop\n      jump\t// out\n        /* \"contracts/pig2.0.sol\":9472:9581  function isNoFeeWallet(address account) external view returns(bool) {... */\n    tag_96:\n        /* \"contracts/pig2.0.sol\":9534:9538  bool */\n      0x00\n        /* \"contracts/pig2.0.sol\":9558:9564  _noFee */\n      0x02\n        /* \"contracts/pig2.0.sol\":9558:9573  _noFee[account] */\n      0x00\n        /* \"contracts/pig2.0.sol\":9565:9572  account */\n      dup4\n        /* \"contracts/pig2.0.sol\":9558:9573  _noFee[account] */\n      0xffffffffffffffffffffffffffffffffffffffff\n      and\n      0xffffffffffffffffffffffffffffffffffffffff\n      and\n      dup2\n      mstore\n      0x20\n      add\n      swap1\n      dup2\n      mstore\n      0x20\n      add\n      0x00\n      keccak256\n      0x00\n      swap1\n      sload\n      swap1\n      0x0100\n      exp\n      swap1\n      div\n      0xff\n      and\n        /* \"contracts/pig2.0.sol\":9551:9573  return _noFee[account] */\n      swap1\n      pop\n        /* \"contracts/pig2.0.sol\":9472:9581  function isNoFeeWallet(address account) external view returns(bool) {... */\n      swap2\n      swap1\n      pop\n      jump\t// out\n        /* \"contracts/pig2.0.sol\":5126:5243  function decimals() external pure override returns (uint8) { if (_totalSupply == 0) { revert(); } return _decimals; } */\n    tag_100:\n        /* \"contracts/pig2.0.sol\":5178:5183  uint8 */\n      0x00\n        /* \"contracts/pig2.0.sol\":5207:5208  0 */\n      dup1\n        /* \"contracts/pig2.0.sol\":6153:6180  420_690_000_000_000 * 10**9 */\n      0x5915a68d88da6a080000\n        /* \"contracts/pig2.0.sol\":5191:5208  _totalSupply == 0 */\n      sub\n        /* \"contracts/pig2.0.sol\":5187:5223  if (_totalSupply == 0) { revert(); } */\n      tag_212\n      jumpi\n        /* \"contracts/pig2.0.sol\":5212:5220  revert() */\n      0x00\n      dup1\n      revert\n        /* \"contracts/pig2.0.sol\":5187:5223  if (_totalSupply == 0) { revert(); } */\n    tag_212:\n        /* \"contracts/pig2.0.sol\":6748:6749  9 */\n      0x09\n        /* \"contracts/pig2.0.sol\":5224:5240  return _decimals */\n      swap1\n      pop\n        /* \"contracts/pig2.0.sol\":5126:5243  function decimals() external pure override returns (uint8) { if (_totalSupply == 0) { revert(); } return _decimals; } */\n      swap1\n      jump\t// out\n        /* \"contracts/pig2.0.sol\":13538:13879  function setPresaleAddress(address presale, bool yesno) external onlyOwner {... */\n    tag_106:\n        /* \"contracts/pig2.0.sol\":844:856  _msgSender() */\n      tag_214\n        /* \"contracts/pig2.0.sol\":844:854  _msgSender */\n      tag_186\n        /* \"contracts/pig2.0.sol\":844:856  _msgSender() */\n      jump\t// in\n    tag_214:\n        /* \"contracts/pig2.0.sol\":833:856  owner() == _msgSender() */\n      0xffffffffffffffffffffffffffffffffffffffff\n      and\n        /* \"contracts/pig2.0.sol\":833:840  owner() */\n      tag_215\n        /* \"contracts/pig2.0.sol\":833:838  owner */\n      tag_136\n        /* \"contracts/pig2.0.sol\":833:840  owner() */\n      jump\t// in\n    tag_215:\n        /* \"contracts/pig2.0.sol\":833:856  owner() == _msgSender() */\n      0xffffffffffffffffffffffffffffffffffffffff\n      and\n      eq\n        /* \"contracts/pig2.0.sol\":825:893  require(owner() == _msgSender(), \"Ownable: caller is not the owner\") */\n      tag_216\n      jumpi\n      mload(0x40)\n      0x08c379a000000000000000000000000000000000000000000000000000000000\n      dup2\n      mstore\n      0x04\n      add\n      tag_217\n      swap1\n      tag_190\n      jump\t// in\n    tag_217:\n      mload(0x40)\n      dup1\n      swap2\n      sub\n      swap1\n      revert\n    tag_216:\n        /* \"contracts/pig2.0.sol\":13665:13670  yesno */\n      dup1\n        /* \"contracts/pig2.0.sol\":13636:13670  isPresaleAddress[presale] != yesno */\n      iszero\n      iszero\n        /* \"contracts/pig2.0.sol\":13636:13652  isPresaleAddress */\n      0x05\n        /* \"contracts/pig2.0.sol\":13636:13661  isPresaleAddress[presale] */\n      0x00\n        /* \"contracts/pig2.0.sol\":13653:13660  presale */\n      dup5\n        /* \"contracts/pig2.0.sol\":13636:13661  isPresaleAddress[presale] */\n      0xffffffffffffffffffffffffffffffffffffffff\n      and\n      0xffffffffffffffffffffffffffffffffffffffff\n      and\n      dup2\n      mstore\n      0x20\n      add\n      swap1\n      dup2\n      mstore\n      0x20\n      add\n      0x00\n      keccak256\n      0x00\n      swap1\n      sload\n      swap1\n      0x0100\n      exp\n      swap1\n      div\n      0xff\n      and\n        /* \"contracts/pig2.0.sol\":13636:13670  isPresaleAddress[presale] != yesno */\n      iszero\n      iszero\n      sub\n        /* \"contracts/pig2.0.sol\":13628:13683  require(isPresaleAddress[presale] != yesno,\"Same bool\") */\n      tag_219\n      jumpi\n      mload(0x40)\n      0x08c379a000000000000000000000000000000000000000000000000000000000\n      dup2\n      mstore\n      0x04\n      add\n      tag_220\n      swap1\n      tag_221\n      jump\t// in\n    tag_220:\n      mload(0x40)\n      dup1\n      swap2\n      sub\n      swap1\n      revert\n    tag_219:\n        /* \"contracts/pig2.0.sol\":13726:13731  yesno */\n      dup1\n        /* \"contracts/pig2.0.sol\":13698:13714  isPresaleAddress */\n      0x05\n        /* \"contracts/pig2.0.sol\":13698:13723  isPresaleAddress[presale] */\n      0x00\n        /* \"contracts/pig2.0.sol\":13715:13722  presale */\n      dup5\n        /* \"contracts/pig2.0.sol\":13698:13723  isPresaleAddress[presale] */\n      0xffffffffffffffffffffffffffffffffffffffff\n      and\n      0xffffffffffffffffffffffffffffffffffffffff\n      and\n      dup2\n      mstore\n      0x20\n      add\n      swap1\n      dup2\n      mstore\n      0x20\n      add\n      0x00\n      keccak256\n      0x00\n        /* \"contracts/pig2.0.sol\":13698:13731  isPresaleAddress[presale] = yesno */\n      0x0100\n      exp\n      dup2\n      sload\n      dup2\n      0xff\n      mul\n      not\n      and\n      swap1\n      dup4\n      iszero\n      iszero\n      mul\n      or\n      swap1\n      sstore\n      pop\n        /* \"contracts/pig2.0.sol\":13764:13769  yesno */\n      dup1\n        /* \"contracts/pig2.0.sol\":13746:13752  _noFee */\n      0x02\n        /* \"contracts/pig2.0.sol\":13746:13761  _noFee[presale] */\n      0x00\n        /* \"contracts/pig2.0.sol\":13753:13760  presale */\n      dup5\n        /* \"contracts/pig2.0.sol\":13746:13761  _noFee[presale] */\n      0xffffffffffffffffffffffffffffffffffffffff\n      and\n      0xffffffffffffffffffffffffffffffffffffffff\n      and\n      dup2\n      mstore\n      0x20\n      add\n      swap1\n      dup2\n      mstore\n      0x20\n      add\n      0x00\n      keccak256\n      0x00\n        /* \"contracts/pig2.0.sol\":13746:13769  _noFee[presale] = yesno */\n      0x0100\n      exp\n      dup2\n      sload\n      dup2\n      0xff\n      mul\n      not\n      and\n      swap1\n      dup4\n      iszero\n      iszero\n      mul\n      or\n      swap1\n      sstore\n      pop\n        /* \"contracts/pig2.0.sol\":13808:13813  yesno */\n      dup1\n        /* \"contracts/pig2.0.sol\":13784:13796  liquidityAdd */\n      0x03\n        /* \"contracts/pig2.0.sol\":13784:13805  liquidityAdd[presale] */\n      0x00\n        /* \"contracts/pig2.0.sol\":13797:13804  presale */\n      dup5\n        /* \"contracts/pig2.0.sol\":13784:13805  liquidityAdd[presale] */\n      0xffffffffffffffffffffffffffffffffffffffff\n      and\n      0xffffffffffffffffffffffffffffffffffffffff\n      and\n      dup2\n      mstore\n      0x20\n      add\n      swap1\n      dup2\n      mstore\n      0x20\n      add\n      0x00\n      keccak256\n      0x00\n        /* \"contracts/pig2.0.sol\":13784:13813  liquidityAdd[presale] = yesno */\n      0x0100\n      exp\n      dup2\n      sload\n      dup2\n      0xff\n      mul\n      not\n      and\n      swap1\n      dup4\n      iszero\n      iszero\n      mul\n      or\n      swap1\n      sstore\n      pop\n        /* \"contracts/pig2.0.sol\":13833:13867  _setPresaleAddress(presale, yesno) */\n      0x7f7f90cb020c1deb8939c26cf0790751e539157b1fd2039166fcd09a8b764513\n        /* \"contracts/pig2.0.sol\":13852:13859  presale */\n      dup3\n        /* \"contracts/pig2.0.sol\":13861:13866  yesno */\n      dup3\n        /* \"contracts/pig2.0.sol\":13833:13867  _setPresaleAddress(presale, yesno) */\n      mload(0x40)\n      tag_222\n      swap3\n      swap2\n      swap1\n      tag_223\n      jump\t// in\n    tag_222:\n      mload(0x40)\n      dup1\n      swap2\n      sub\n      swap1\n      log1\n        /* \"contracts/pig2.0.sol\":13538:13879  function setPresaleAddress(address presale, bool yesno) external onlyOwner {... */\n      pop\n      pop\n      jump\t// out\n        /* \"contracts/pig2.0.sol\":6114:6180  uint256 constant public _totalSupply = 420_690_000_000_000 * 10**9 */\n    tag_109:\n        /* \"contracts/pig2.0.sol\":6153:6180  420_690_000_000_000 * 10**9 */\n      0x5915a68d88da6a080000\n        /* \"contracts/pig2.0.sol\":6114:6180  uint256 constant public _totalSupply = 420_690_000_000_000 * 10**9 */\n      dup2\n      jump\t// out\n        /* \"contracts/pig2.0.sol\":6836:6857  address public lpPair */\n    tag_113:\n      0x09\n      0x00\n      swap1\n      sload\n      swap1\n      0x0100\n      exp\n      swap1\n      div\n      0xffffffffffffffffffffffffffffffffffffffff\n      and\n      dup2\n      jump\t// out\n        /* \"contracts/pig2.0.sol\":6339:6378  uint256 constant public transferfee = 0 */\n    tag_117:\n        /* \"contracts/pig2.0.sol\":6377:6378  0 */\n      0x00\n        /* \"contracts/pig2.0.sol\":6339:6378  uint256 constant public transferfee = 0 */\n      dup2\n      jump\t// out\n        /* \"contracts/pig2.0.sol\":5650:5767  function balanceOf(address account) public view override returns (uint256) {... */\n    tag_122:\n        /* \"contracts/pig2.0.sol\":5716:5723  uint256 */\n      0x00\n        /* \"contracts/pig2.0.sol\":5743:5750  balance */\n      0x06\n        /* \"contracts/pig2.0.sol\":5743:5759  balance[account] */\n      0x00\n        /* \"contracts/pig2.0.sol\":5751:5758  account */\n      dup4\n        /* \"contracts/pig2.0.sol\":5743:5759  balance[account] */\n      0xffffffffffffffffffffffffffffffffffffffff\n      and\n      0xffffffffffffffffffffffffffffffffffffffff\n      and\n      dup2\n      mstore\n      0x20\n      add\n      swap1\n      dup2\n      mstore\n      0x20\n      add\n      0x00\n      keccak256\n      sload\n        /* \"contracts/pig2.0.sol\":5736:5759  return balance[account] */\n      swap1\n      pop\n        /* \"contracts/pig2.0.sol\":5650:5767  function balanceOf(address account) public view override returns (uint256) {... */\n      swap2\n      swap1\n      pop\n      jump\t// out\n        /* \"contracts/pig2.0.sol\":921:1015  function renounceOwnership() public virtual onlyOwner {... */\n    tag_126:\n        /* \"contracts/pig2.0.sol\":844:856  _msgSender() */\n      tag_226\n        /* \"contracts/pig2.0.sol\":844:854  _msgSender */\n      tag_186\n        /* \"contracts/pig2.0.sol\":844:856  _msgSender() */\n      jump\t// in\n    tag_226:\n        /* \"contracts/pig2.0.sol\":833:856  owner() == _msgSender() */\n      0xffffffffffffffffffffffffffffffffffffffff\n      and\n        /* \"contracts/pig2.0.sol\":833:840  owner() */\n      tag_227\n        /* \"contracts/pig2.0.sol\":833:838  owner */\n      tag_136\n        /* \"contracts/pig2.0.sol\":833:840  owner() */\n      jump\t// in\n    tag_227:\n        /* \"contracts/pig2.0.sol\":833:856  owner() == _msgSender() */\n      0xffffffffffffffffffffffffffffffffffffffff\n      and\n      eq\n        /* \"contracts/pig2.0.sol\":825:893  require(owner() == _msgSender(), \"Ownable: caller is not the owner\") */\n      tag_228\n      jumpi\n      mload(0x40)\n      0x08c379a000000000000000000000000000000000000000000000000000000000\n      dup2\n      mstore\n      0x04\n      add\n      tag_229\n      swap1\n      tag_190\n      jump\t// in\n    tag_229:\n      mload(0x40)\n      dup1\n      swap2\n      sub\n      swap1\n      revert\n    tag_228:\n        /* \"contracts/pig2.0.sol\":986:1007  _setOwner(address(0)) */\n      tag_231\n        /* \"contracts/pig2.0.sol\":1004:1005  0 */\n      0x00\n        /* \"contracts/pig2.0.sol\":986:995  _setOwner */\n      tag_232\n        /* \"contracts/pig2.0.sol\":986:1007  _setOwner(address(0)) */\n      jump\t// in\n    tag_231:\n        /* \"contracts/pig2.0.sol\":921:1015  function renounceOwnership() public virtual onlyOwner {... */\n      jump\t// out\n        /* \"contracts/pig2.0.sol\":5425:5505  function getOwner() external view override returns (address) { return owner(); } */\n    tag_129:\n        /* \"contracts/pig2.0.sol\":5477:5484  address */\n      0x00\n        /* \"contracts/pig2.0.sol\":5495:5502  owner() */\n      tag_234\n        /* \"contracts/pig2.0.sol\":5495:5500  owner */\n      tag_136\n        /* \"contracts/pig2.0.sol\":5495:5502  owner() */\n      jump\t// in\n    tag_234:\n        /* \"contracts/pig2.0.sol\":5488:5502  return owner() */\n      swap1\n      pop\n        /* \"contracts/pig2.0.sol\":5425:5505  function getOwner() external view override returns (address) { return owner(); } */\n      swap1\n      jump\t// out\n        /* \"contracts/pig2.0.sol\":13891:14089  function enableTrading() external onlyOwner {... */\n    tag_133:\n        /* \"contracts/pig2.0.sol\":844:856  _msgSender() */\n      tag_236\n        /* \"contracts/pig2.0.sol\":844:854  _msgSender */\n      tag_186\n        /* \"contracts/pig2.0.sol\":844:856  _msgSender() */\n      jump\t// in\n    tag_236:\n        /* \"contracts/pig2.0.sol\":833:856  owner() == _msgSender() */\n      0xffffffffffffffffffffffffffffffffffffffff\n      and\n        /* \"contracts/pig2.0.sol\":833:840  owner() */\n      tag_237\n        /* \"contracts/pig2.0.sol\":833:838  owner */\n      tag_136\n        /* \"contracts/pig2.0.sol\":833:840  owner() */\n      jump\t// in\n    tag_237:\n        /* \"contracts/pig2.0.sol\":833:856  owner() == _msgSender() */\n      0xffffffffffffffffffffffffffffffffffffffff\n      and\n      eq\n        /* \"contracts/pig2.0.sol\":825:893  require(owner() == _msgSender(), \"Ownable: caller is not the owner\") */\n      tag_238\n      jumpi\n      mload(0x40)\n      0x08c379a000000000000000000000000000000000000000000000000000000000\n      dup2\n      mstore\n      0x04\n      add\n      tag_239\n      swap1\n      tag_190\n      jump\t// in\n    tag_239:\n      mload(0x40)\n      dup1\n      swap2\n      sub\n      swap1\n      revert\n    tag_238:\n        /* \"contracts/pig2.0.sol\":13959:13975  isTradingEnabled */\n      0x09\n      0x14\n      swap1\n      sload\n      swap1\n      0x0100\n      exp\n      swap1\n      div\n      0xff\n      and\n        /* \"contracts/pig2.0.sol\":13958:13975  !isTradingEnabled */\n      iszero\n        /* \"contracts/pig2.0.sol\":13950:14003  require(!isTradingEnabled, \"Trading already enabled\") */\n      tag_241\n      jumpi\n      mload(0x40)\n      0x08c379a000000000000000000000000000000000000000000000000000000000\n      dup2\n      mstore\n      0x04\n      add\n      tag_242\n      swap1\n      tag_243\n      jump\t// in\n    tag_242:\n      mload(0x40)\n      dup1\n      swap2\n      sub\n      swap1\n      revert\n    tag_241:\n        /* \"contracts/pig2.0.sol\":14037:14041  true */\n      0x01\n        /* \"contracts/pig2.0.sol\":14018:14034  isTradingEnabled */\n      0x09\n      0x14\n        /* \"contracts/pig2.0.sol\":14018:14041  isTradingEnabled = true */\n      0x0100\n      exp\n      dup2\n      sload\n      dup2\n      0xff\n      mul\n      not\n      and\n      swap1\n      dup4\n      iszero\n      iszero\n      mul\n      or\n      swap1\n      sstore\n      pop\n        /* \"contracts/pig2.0.sol\":14061:14077  _enableTrading() */\n      0xa0ac5e19ca3a09af9a3a13c5c51f911c89eefd4b9eb548f4766b991b14ad6868\n      mload(0x40)\n      mload(0x40)\n      dup1\n      swap2\n      sub\n      swap1\n      log1\n        /* \"contracts/pig2.0.sol\":13891:14089  function enableTrading() external onlyOwner {... */\n      jump\t// out\n        /* \"contracts/pig2.0.sol\":698:785  function owner() public view virtual returns (address) {... */\n    tag_136:\n        /* \"contracts/pig2.0.sol\":744:751  address */\n      0x00\n        /* \"contracts/pig2.0.sol\":771:777  _owner */\n      dup1\n      0x00\n      swap1\n      sload\n      swap1\n      0x0100\n      exp\n      swap1\n      div\n      0xffffffffffffffffffffffffffffffffffffffff\n      and\n        /* \"contracts/pig2.0.sol\":764:777  return _owner */\n      swap1\n      pop\n        /* \"contracts/pig2.0.sol\":698:785  function owner() public view virtual returns (address) {... */\n      swap1\n      jump\t// out\n        /* \"contracts/pig2.0.sol\":5249:5333  function symbol() external pure override returns (string memory) { return _symbol; } */\n    tag_140:\n        /* \"contracts/pig2.0.sol\":5299:5312  string memory */\n      0x60\n        /* \"contracts/pig2.0.sol\":5323:5330  _symbol */\n      mload(0x40)\n      dup1\n      0x40\n      add\n      0x40\n      mstore\n      dup1\n      0x06\n      dup2\n      mstore\n      0x20\n      add\n      0x504947322e300000000000000000000000000000000000000000000000000000\n      dup2\n      mstore\n      pop\n        /* \"contracts/pig2.0.sol\":5316:5330  return _symbol */\n      swap1\n      pop\n        /* \"contracts/pig2.0.sol\":5249:5333  function symbol() external pure override returns (string memory) { return _symbol; } */\n      swap1\n      jump\t// out\n        /* \"contracts/pig2.0.sol\":8537:8702  function transfer(address recipient, uint256 amount) public override returns (bool) {... */\n    tag_145:\n        /* \"contracts/pig2.0.sol\":8615:8619  bool */\n      0x00\n        /* \"contracts/pig2.0.sol\":8632:8672  _transfer(msg.sender, recipient, amount) */\n      tag_247\n        /* \"contracts/pig2.0.sol\":8642:8652  msg.sender */\n      caller\n        /* \"contracts/pig2.0.sol\":8654:8663  recipient */\n      dup5\n        /* \"contracts/pig2.0.sol\":8665:8671  amount */\n      dup5\n        /* \"contracts/pig2.0.sol\":8632:8641  _transfer */\n      tag_209\n        /* \"contracts/pig2.0.sol\":8632:8672  _transfer(msg.sender, recipient, amount) */\n      jump\t// in\n    tag_247:\n      pop\n        /* \"contracts/pig2.0.sol\":8690:8694  true */\n      0x01\n        /* \"contracts/pig2.0.sol\":8683:8694  return true */\n      swap1\n      pop\n        /* \"contracts/pig2.0.sol\":8537:8702  function transfer(address recipient, uint256 amount) public override returns (bool) {... */\n      swap3\n      swap2\n      pop\n      pop\n      jump\t// out\n        /* \"contracts/pig2.0.sol\":6582:6609  IRouter02 public swapRouter */\n    tag_149:\n      0x08\n      0x00\n      swap1\n      sload\n      swap1\n      0x0100\n      exp\n      swap1\n      div\n      0xffffffffffffffffffffffffffffffffffffffff\n      and\n      dup2\n      jump\t// out\n        /* \"contracts/pig2.0.sol\":12018:12176  function changeWallets(address marketing) external onlyOwner {... */\n    tag_155:\n        /* \"contracts/pig2.0.sol\":844:856  _msgSender() */\n      tag_249\n        /* \"contracts/pig2.0.sol\":844:854  _msgSender */\n      tag_186\n        /* \"contracts/pig2.0.sol\":844:856  _msgSender() */\n      jump\t// in\n    tag_249:\n        /* \"contracts/pig2.0.sol\":833:856  owner() == _msgSender() */\n      0xffffffffffffffffffffffffffffffffffffffff\n      and\n        /* \"contracts/pig2.0.sol\":833:840  owner() */\n      tag_250\n        /* \"contracts/pig2.0.sol\":833:838  owner */\n      tag_136\n        /* \"contracts/pig2.0.sol\":833:840  owner() */\n      jump\t// in\n    tag_250:\n        /* \"contracts/pig2.0.sol\":833:856  owner() == _msgSender() */\n      0xffffffffffffffffffffffffffffffffffffffff\n      and\n      eq\n        /* \"contracts/pig2.0.sol\":825:893  require(owner() == _msgSender(), \"Ownable: caller is not the owner\") */\n      tag_251\n      jumpi\n      mload(0x40)\n      0x08c379a000000000000000000000000000000000000000000000000000000000\n      dup2\n      mstore\n      0x04\n      add\n      tag_252\n      swap1\n      tag_190\n      jump\t// in\n    tag_252:\n      mload(0x40)\n      dup1\n      swap2\n      sub\n      swap1\n      revert\n    tag_251:\n        /* \"contracts/pig2.0.sol\":12117:12126  marketing */\n      dup1\n        /* \"contracts/pig2.0.sol\":12090:12106  marketingAddress */\n      0x07\n      0x01\n        /* \"contracts/pig2.0.sol\":12090:12127  marketingAddress = payable(marketing) */\n      0x0100\n      exp\n      dup2\n      sload\n      dup2\n      0xffffffffffffffffffffffffffffffffffffffff\n      mul\n      not\n      and\n      swap1\n      dup4\n      0xffffffffffffffffffffffffffffffffffffffff\n      and\n      mul\n      or\n      swap1\n      sstore\n      pop\n        /* \"contracts/pig2.0.sol\":12143:12168  _changeWallets(marketing) */\n      0xb074145dac98cbf04c5e3a6d58501e8e3aa6eb107008ec598af2309ae5179dfe\n        /* \"contracts/pig2.0.sol\":12158:12167  marketing */\n      dup2\n        /* \"contracts/pig2.0.sol\":12143:12168  _changeWallets(marketing) */\n      mload(0x40)\n      tag_254\n      swap2\n      swap1\n      tag_46\n      jump\t// in\n    tag_254:\n      mload(0x40)\n      dup1\n      swap2\n      sub\n      swap1\n      log1\n        /* \"contracts/pig2.0.sol\":12018:12176  function changeWallets(address marketing) external onlyOwner {... */\n      pop\n      jump\t// out\n        /* \"contracts/pig2.0.sol\":10606:10743  function changeLpPair(address newPair) external onlyOwner {... */\n    tag_159:\n        /* \"contracts/pig2.0.sol\":844:856  _msgSender() */\n      tag_256\n        /* \"contracts/pig2.0.sol\":844:854  _msgSender */\n      tag_186\n        /* \"contracts/pig2.0.sol\":844:856  _msgSender() */\n      jump\t// in\n    tag_256:\n        /* \"contracts/pig2.0.sol\":833:856  owner() == _msgSender() */\n      0xffffffffffffffffffffffffffffffffffffffff\n      and\n        /* \"contracts/pig2.0.sol\":833:840  owner() */\n      tag_257\n        /* \"contracts/pig2.0.sol\":833:838  owner */\n      tag_136\n        /* \"contracts/pig2.0.sol\":833:840  owner() */\n      jump\t// in\n    tag_257:\n        /* \"contracts/pig2.0.sol\":833:856  owner() == _msgSender() */\n      0xffffffffffffffffffffffffffffffffffffffff\n      and\n      eq\n        /* \"contracts/pig2.0.sol\":825:893  require(owner() == _msgSender(), \"Ownable: caller is not the owner\") */\n      tag_258\n      jumpi\n      mload(0x40)\n      0x08c379a000000000000000000000000000000000000000000000000000000000\n      dup2\n      mstore\n      0x04\n      add\n      tag_259\n      swap1\n      tag_190\n      jump\t// in\n    tag_259:\n      mload(0x40)\n      dup1\n      swap2\n      sub\n      swap1\n      revert\n    tag_258:\n        /* \"contracts/pig2.0.sol\":10695:10699  true */\n      0x01\n        /* \"contracts/pig2.0.sol\":10675:10683  isLpPair */\n      0x04\n        /* \"contracts/pig2.0.sol\":10675:10692  isLpPair[newPair] */\n      0x00\n        /* \"contracts/pig2.0.sol\":10684:10691  newPair */\n      dup4\n        /* \"contracts/pig2.0.sol\":10675:10692  isLpPair[newPair] */\n      0xffffffffffffffffffffffffffffffffffffffff\n      and\n      0xffffffffffffffffffffffffffffffffffffffff\n      and\n      dup2\n      mstore\n      0x20\n      add\n      swap1\n      dup2\n      mstore\n      0x20\n      add\n      0x00\n      keccak256\n      0x00\n        /* \"contracts/pig2.0.sol\":10675:10699  isLpPair[newPair] = true */\n      0x0100\n      exp\n      dup2\n      sload\n      dup2\n      0xff\n      mul\n      not\n      and\n      swap1\n      dup4\n      iszero\n      iszero\n      mul\n      or\n      swap1\n      sstore\n      pop\n        /* \"contracts/pig2.0.sol\":10715:10735  _changePair(newPair) */\n      0x03b62011431502c791d443ee6149c9ec9b43632aeb5eb55c621104c128fe02f7\n        /* \"contracts/pig2.0.sol\":10727:10734  newPair */\n      dup2\n        /* \"contracts/pig2.0.sol\":10715:10735  _changePair(newPair) */\n      mload(0x40)\n      tag_261\n      swap2\n      swap1\n      tag_46\n      jump\t// in\n    tag_261:\n      mload(0x40)\n      dup1\n      swap2\n      sub\n      swap1\n      log1\n        /* \"contracts/pig2.0.sol\":10606:10743  function changeLpPair(address newPair) external onlyOwner {... */\n      pop\n      jump\t// out\n        /* \"contracts/pig2.0.sol\":6385:6432  uint256 constant public fee_denominator = 1_000 */\n    tag_162:\n        /* \"contracts/pig2.0.sol\":6427:6432  1_000 */\n      0x03e8\n        /* \"contracts/pig2.0.sol\":6385:6432  uint256 constant public fee_denominator = 1_000 */\n      dup2\n      jump\t// out\n        /* \"contracts/pig2.0.sol\":5511:5644  function allowance(address holder, address spender) external view override returns (uint256) { return _allowances[holder][spender]; } */\n    tag_168:\n        /* \"contracts/pig2.0.sol\":5595:5602  uint256 */\n      0x00\n        /* \"contracts/pig2.0.sol\":5613:5624  _allowances */\n      0x01\n        /* \"contracts/pig2.0.sol\":5613:5632  _allowances[holder] */\n      0x00\n        /* \"contracts/pig2.0.sol\":5625:5631  holder */\n      dup5\n        /* \"contracts/pig2.0.sol\":5613:5632  _allowances[holder] */\n      0xffffffffffffffffffffffffffffffffffffffff\n      and\n      0xffffffffffffffffffffffffffffffffffffffff\n      and\n      dup2\n      mstore\n      0x20\n      add\n      swap1\n      dup2\n      mstore\n      0x20\n      add\n      0x00\n      keccak256\n        /* \"contracts/pig2.0.sol\":5613:5641  _allowances[holder][spender] */\n      0x00\n        /* \"contracts/pig2.0.sol\":5633:5640  spender */\n      dup4\n        /* \"contracts/pig2.0.sol\":5613:5641  _allowances[holder][spender] */\n      0xffffffffffffffffffffffffffffffffffffffff\n      and\n      0xffffffffffffffffffffffffffffffffffffffff\n      and\n      dup2\n      mstore\n      0x20\n      add\n      swap1\n      dup2\n      mstore\n      0x20\n      add\n      0x00\n      keccak256\n      sload\n        /* \"contracts/pig2.0.sol\":5606:5641  return _allowances[holder][spender] */\n      swap1\n      pop\n        /* \"contracts/pig2.0.sol\":5511:5644  function allowance(address holder, address spender) external view override returns (uint256) { return _allowances[holder][spender]; } */\n      swap3\n      swap2\n      pop\n      pop\n      jump\t// out\n        /* \"contracts/pig2.0.sol\":6296:6332  uint256 constant public sellfee = 10 */\n    tag_172:\n        /* \"contracts/pig2.0.sol\":6330:6332  10 */\n      0x0a\n        /* \"contracts/pig2.0.sol\":6296:6332  uint256 constant public sellfee = 10 */\n      dup2\n      jump\t// out\n        /* \"contracts/pig2.0.sol\":1023:1215  function transferOwnership(address newOwner) public virtual onlyOwner {... */\n    tag_177:\n        /* \"contracts/pig2.0.sol\":844:856  _msgSender() */\n      tag_264\n        /* \"contracts/pig2.0.sol\":844:854  _msgSender */\n      tag_186\n        /* \"contracts/pig2.0.sol\":844:856  _msgSender() */\n      jump\t// in\n    tag_264:\n        /* \"contracts/pig2.0.sol\":833:856  owner() == _msgSender() */\n      0xffffffffffffffffffffffffffffffffffffffff\n      and\n        /* \"contracts/pig2.0.sol\":833:840  owner() */\n      tag_265\n        /* \"contracts/pig2.0.sol\":833:838  owner */\n      tag_136\n        /* \"contracts/pig2.0.sol\":833:840  owner() */\n      jump\t// in\n    tag_265:\n        /* \"contracts/pig2.0.sol\":833:856  owner() == _msgSender() */\n      0xffffffffffffffffffffffffffffffffffffffff\n      and\n      eq\n        /* \"contracts/pig2.0.sol\":825:893  require(owner() == _msgSender(), \"Ownable: caller is not the owner\") */\n      tag_266\n      jumpi\n      mload(0x40)\n      0x08c379a000000000000000000000000000000000000000000000000000000000\n      dup2\n      mstore\n      0x04\n      add\n      tag_267\n      swap1\n      tag_190\n      jump\t// in\n    tag_267:\n      mload(0x40)\n      dup1\n      swap2\n      sub\n      swap1\n      revert\n    tag_266:\n        /* \"contracts/pig2.0.sol\":1132:1133  0 */\n      0x00\n        /* \"contracts/pig2.0.sol\":1112:1134  newOwner != address(0) */\n      0xffffffffffffffffffffffffffffffffffffffff\n      and\n        /* \"contracts/pig2.0.sol\":1112:1120  newOwner */\n      dup2\n        /* \"contracts/pig2.0.sol\":1112:1134  newOwner != address(0) */\n      0xffffffffffffffffffffffffffffffffffffffff\n      and\n      sub\n        /* \"contracts/pig2.0.sol\":1104:1177  require(newOwner != address(0), \"Ownable: new owner is the zero address\") */\n      tag_269\n      jumpi\n      mload(0x40)\n      0x08c379a000000000000000000000000000000000000000000000000000000000\n      dup2\n      mstore\n      0x04\n      add\n      tag_270\n      swap1\n      tag_271\n      jump\t// in\n    tag_270:\n      mload(0x40)\n      dup1\n      swap2\n      sub\n      swap1\n      revert\n    tag_269:\n        /* \"contracts/pig2.0.sol\":1188:1207  _setOwner(newOwner) */\n      tag_272\n        /* \"contracts/pig2.0.sol\":1198:1206  newOwner */\n      dup2\n        /* \"contracts/pig2.0.sol\":1188:1197  _setOwner */\n      tag_232\n        /* \"contracts/pig2.0.sol\":1188:1207  _setOwner(newOwner) */\n      jump\t// in\n    tag_272:\n        /* \"contracts/pig2.0.sol\":1023:1215  function transferOwnership(address newOwner) public virtual onlyOwner {... */\n      pop\n      jump\t// out\n        /* \"contracts/pig2.0.sol\":8887:9148  function _approve(address sender, address spender, uint256 amount) internal {... */\n    tag_183:\n        /* \"contracts/pig2.0.sol\":9000:9001  0 */\n      0x00\n        /* \"contracts/pig2.0.sol\":8982:9002  sender != address(0) */\n      0xffffffffffffffffffffffffffffffffffffffff\n      and\n        /* \"contracts/pig2.0.sol\":8982:8988  sender */\n      dup4\n        /* \"contracts/pig2.0.sol\":8982:9002  sender != address(0) */\n      0xffffffffffffffffffffffffffffffffffffffff\n      and\n      sub\n        /* \"contracts/pig2.0.sol\":8974:9026  require(sender != address(0), \"ERC20: Zero Address\") */\n      tag_274\n      jumpi\n      mload(0x40)\n      0x08c379a000000000000000000000000000000000000000000000000000000000\n      dup2\n      mstore\n      0x04\n      add\n      tag_275\n      swap1\n      tag_276\n      jump\t// in\n    tag_275:\n      mload(0x40)\n      dup1\n      swap2\n      sub\n      swap1\n      revert\n    tag_274:\n        /* \"contracts/pig2.0.sol\":9064:9065  0 */\n      0x00\n        /* \"contracts/pig2.0.sol\":9045:9066  spender != address(0) */\n      0xffffffffffffffffffffffffffffffffffffffff\n      and\n        /* \"contracts/pig2.0.sol\":9045:9052  spender */\n      dup3\n        /* \"contracts/pig2.0.sol\":9045:9066  spender != address(0) */\n      0xffffffffffffffffffffffffffffffffffffffff\n      and\n      sub\n        /* \"contracts/pig2.0.sol\":9037:9090  require(spender != address(0), \"ERC20: Zero Address\") */\n      tag_277\n      jumpi\n      mload(0x40)\n      0x08c379a000000000000000000000000000000000000000000000000000000000\n      dup2\n      mstore\n      0x04\n      add\n      tag_278\n      swap1\n      tag_276\n      jump\t// in\n    tag_278:\n      mload(0x40)\n      dup1\n      swap2\n      sub\n      swap1\n      revert\n    tag_277:\n        /* \"contracts/pig2.0.sol\":9134:9140  amount */\n      dup1\n        /* \"contracts/pig2.0.sol\":9103:9114  _allowances */\n      0x01\n        /* \"contracts/pig2.0.sol\":9103:9122  _allowances[sender] */\n      0x00\n        /* \"contracts/pig2.0.sol\":9115:9121  sender */\n      dup6\n        /* \"contracts/pig2.0.sol\":9103:9122  _allowances[sender] */\n      0xffffffffffffffffffffffffffffffffffffffff\n      and\n      0xffffffffffffffffffffffffffffffffffffffff\n      and\n      dup2\n      mstore\n      0x20\n      add\n      swap1\n      dup2\n      mstore\n      0x20\n      add\n      0x00\n      keccak256\n        /* \"contracts/pig2.0.sol\":9103:9131  _allowances[sender][spender] */\n      0x00\n        /* \"contracts/pig2.0.sol\":9123:9130  spender */\n      dup5\n        /* \"contracts/pig2.0.sol\":9103:9131  _allowances[sender][spender] */\n      0xffffffffffffffffffffffffffffffffffffffff\n      and\n      0xffffffffffffffffffffffffffffffffffffffff\n      and\n      dup2\n      mstore\n      0x20\n      add\n      swap1\n      dup2\n      mstore\n      0x20\n      add\n      0x00\n      keccak256\n        /* \"contracts/pig2.0.sol\":9103:9140  _allowances[sender][spender] = amount */\n      dup2\n      swap1\n      sstore\n      pop\n        /* \"contracts/pig2.0.sol\":8887:9148  function _approve(address sender, address spender, uint256 amount) internal {... */\n      pop\n      pop\n      pop\n      jump\t// out\n        /* \"contracts/pig2.0.sol\":218:325  function _msgSender() internal view returns (address payable) {... */\n    tag_186:\n        /* \"contracts/pig2.0.sol\":263:278  address payable */\n      0x00\n        /* \"contracts/pig2.0.sol\":306:316  msg.sender */\n      caller\n        /* \"contracts/pig2.0.sol\":291:317  return payable(msg.sender) */\n      swap1\n      pop\n        /* \"contracts/pig2.0.sol\":218:325  function _msgSender() internal view returns (address payable) {... */\n      swap1\n      jump\t// out\n        /* \"contracts/pig2.0.sol\":10955:12010  function _transfer(address from, address to, uint256 amount) internal returns  (bool) {... */\n    tag_209:\n        /* \"contracts/pig2.0.sol\":11035:11039  bool */\n      0x00\n        /* \"contracts/pig2.0.sol\":11052:11064  bool takeFee */\n      dup1\n        /* \"contracts/pig2.0.sol\":11067:11071  true */\n      0x01\n        /* \"contracts/pig2.0.sol\":11052:11071  bool takeFee = true */\n      swap1\n      pop\n        /* \"contracts/pig2.0.sol\":11104:11105  0 */\n      0x00\n        /* \"contracts/pig2.0.sol\":11090:11106  to != address(0) */\n      0xffffffffffffffffffffffffffffffffffffffff\n      and\n        /* \"contracts/pig2.0.sol\":11090:11092  to */\n      dup5\n        /* \"contracts/pig2.0.sol\":11090:11106  to != address(0) */\n      0xffffffffffffffffffffffffffffffffffffffff\n      and\n      sub\n        /* \"contracts/pig2.0.sol\":11082:11146  require(to != address(0), \"ERC20: transfer to the zero address\") */\n      tag_281\n      jumpi\n      mload(0x40)\n      0x08c379a000000000000000000000000000000000000000000000000000000000\n      dup2\n      mstore\n      0x04\n      add\n      tag_282\n      swap1\n      tag_283\n      jump\t// in\n    tag_282:\n      mload(0x40)\n      dup1\n      swap2\n      sub\n      swap1\n      revert\n    tag_281:\n        /* \"contracts/pig2.0.sol\":11181:11182  0 */\n      0x00\n        /* \"contracts/pig2.0.sol\":11165:11183  from != address(0) */\n      0xffffffffffffffffffffffffffffffffffffffff\n      and\n        /* \"contracts/pig2.0.sol\":11165:11169  from */\n      dup6\n        /* \"contracts/pig2.0.sol\":11165:11183  from != address(0) */\n      0xffffffffffffffffffffffffffffffffffffffff\n      and\n      sub\n        /* \"contracts/pig2.0.sol\":11157:11225  require(from != address(0), \"ERC20: transfer from the zero address\") */\n      tag_284\n      jumpi\n      mload(0x40)\n      0x08c379a000000000000000000000000000000000000000000000000000000000\n      dup2\n      mstore\n      0x04\n      add\n      tag_285\n      swap1\n      tag_286\n      jump\t// in\n    tag_285:\n      mload(0x40)\n      dup1\n      swap2\n      sub\n      swap1\n      revert\n    tag_284:\n        /* \"contracts/pig2.0.sol\":11253:11254  0 */\n      0x00\n        /* \"contracts/pig2.0.sol\":11244:11250  amount */\n      dup4\n        /* \"contracts/pig2.0.sol\":11244:11254  amount > 0 */\n      gt\n        /* \"contracts/pig2.0.sol\":11236:11300  require(amount > 0, \"Transfer amount must be greater than zero\") */\n      tag_287\n      jumpi\n      mload(0x40)\n      0x08c379a000000000000000000000000000000000000000000000000000000000\n      dup2\n      mstore\n      0x04\n      add\n      tag_288\n      swap1\n      tag_289\n      jump\t// in\n    tag_288:\n      mload(0x40)\n      dup1\n      swap2\n      sub\n      swap1\n      revert\n    tag_287:\n        /* \"contracts/pig2.0.sol\":11317:11342  isLimitedAddress(from,to) */\n      tag_290\n        /* \"contracts/pig2.0.sol\":11334:11338  from */\n      dup6\n        /* \"contracts/pig2.0.sol\":11339:11341  to */\n      dup6\n        /* \"contracts/pig2.0.sol\":11317:11333  isLimitedAddress */\n      tag_291\n        /* \"contracts/pig2.0.sol\":11317:11342  isLimitedAddress(from,to) */\n      jump\t// in\n    tag_290:\n        /* \"contracts/pig2.0.sol\":11313:11421  if (isLimitedAddress(from,to)) {... */\n      iszero\n      tag_292\n      jumpi\n        /* \"contracts/pig2.0.sol\":11367:11383  isTradingEnabled */\n      0x09\n      0x14\n      swap1\n      sload\n      swap1\n      0x0100\n      exp\n      swap1\n      div\n      0xff\n      and\n        /* \"contracts/pig2.0.sol\":11359:11409  require(isTradingEnabled,\"Trading is not enabled\") */\n      tag_293\n      jumpi\n      mload(0x40)\n      0x08c379a000000000000000000000000000000000000000000000000000000000\n      dup2\n      mstore\n      0x04\n      add\n      tag_294\n      swap1\n      tag_295\n      jump\t// in\n    tag_294:\n      mload(0x40)\n      dup1\n      swap2\n      sub\n      swap1\n      revert\n    tag_293:\n        /* \"contracts/pig2.0.sol\":11313:11421  if (isLimitedAddress(from,to)) {... */\n    tag_292:\n        /* \"contracts/pig2.0.sol\":11438:11455  is_sell(from, to) */\n      tag_296\n        /* \"contracts/pig2.0.sol\":11446:11450  from */\n      dup6\n        /* \"contracts/pig2.0.sol\":11452:11454  to */\n      dup6\n        /* \"contracts/pig2.0.sol\":11438:11445  is_sell */\n      tag_297\n        /* \"contracts/pig2.0.sol\":11438:11455  is_sell(from, to) */\n      jump\t// in\n    tag_296:\n        /* \"contracts/pig2.0.sol\":11438:11467  is_sell(from, to) &&  !inSwap */\n      dup1\n      iszero\n      tag_298\n      jumpi\n      pop\n        /* \"contracts/pig2.0.sol\":11461:11467  inSwap */\n      0x09\n      0x15\n      swap1\n      sload\n      swap1\n      0x0100\n      exp\n      swap1\n      div\n      0xff\n      and\n        /* \"contracts/pig2.0.sol\":11460:11467  !inSwap */\n      iszero\n        /* \"contracts/pig2.0.sol\":11438:11467  is_sell(from, to) &&  !inSwap */\n    tag_298:\n        /* \"contracts/pig2.0.sol\":11438:11488  is_sell(from, to) &&  !inSwap && canSwap(from, to) */\n      dup1\n      iszero\n      tag_299\n      jumpi\n      pop\n        /* \"contracts/pig2.0.sol\":11471:11488  canSwap(from, to) */\n      tag_300\n        /* \"contracts/pig2.0.sol\":11479:11483  from */\n      dup6\n        /* \"contracts/pig2.0.sol\":11485:11487  to */\n      dup6\n        /* \"contracts/pig2.0.sol\":11471:11478  canSwap */\n      tag_301\n        /* \"contracts/pig2.0.sol\":11471:11488  canSwap(from, to) */\n      jump\t// in\n    tag_300:\n        /* \"contracts/pig2.0.sol\":11438:11488  is_sell(from, to) &&  !inSwap && canSwap(from, to) */\n    tag_299:\n        /* \"contracts/pig2.0.sol\":11435:11667  if(is_sell(from, to) &&  !inSwap && canSwap(from, to)) {... */\n      iszero\n      tag_302\n      jumpi\n        /* \"contracts/pig2.0.sol\":11505:11533  uint256 contractTokenBalance */\n      0x00\n        /* \"contracts/pig2.0.sol\":11536:11560  balanceOf(address(this)) */\n      tag_303\n        /* \"contracts/pig2.0.sol\":11554:11558  this */\n      address\n        /* \"contracts/pig2.0.sol\":11536:11545  balanceOf */\n      tag_122\n        /* \"contracts/pig2.0.sol\":11536:11560  balanceOf(address(this)) */\n      jump\t// in\n    tag_303:\n        /* \"contracts/pig2.0.sol\":11505:11560  uint256 contractTokenBalance = balanceOf(address(this)) */\n      swap1\n      pop\n        /* \"contracts/pig2.0.sol\":6242:6247  5_000 */\n      0x1388\n        /* \"contracts/pig2.0.sol\":6153:6180  420_690_000_000_000 * 10**9 */\n      0x5915a68d88da6a080000\n        /* \"contracts/pig2.0.sol\":6227:6247  _totalSupply / 5_000 */\n      tag_304\n      swap2\n      swap1\n      tag_179\n      jump\t// in\n    tag_304:\n        /* \"contracts/pig2.0.sol\":11578:11598  contractTokenBalance */\n      dup2\n        /* \"contracts/pig2.0.sol\":11578:11615  contractTokenBalance >= swapThreshold */\n      lt\n        /* \"contracts/pig2.0.sol\":11575:11656  if(contractTokenBalance >= swapThreshold) { internalSwap(contractTokenBalance); } */\n      tag_305\n      jumpi\n        /* \"contracts/pig2.0.sol\":11619:11653  internalSwap(contractTokenBalance) */\n      tag_306\n        /* \"contracts/pig2.0.sol\":11632:11652  contractTokenBalance */\n      dup2\n        /* \"contracts/pig2.0.sol\":11619:11631  internalSwap */\n      tag_307\n        /* \"contracts/pig2.0.sol\":11619:11653  internalSwap(contractTokenBalance) */\n      jump\t// in\n    tag_306:\n        /* \"contracts/pig2.0.sol\":11575:11656  if(contractTokenBalance >= swapThreshold) { internalSwap(contractTokenBalance); } */\n    tag_305:\n        /* \"contracts/pig2.0.sol\":11490:11667  {... */\n      pop\n        /* \"contracts/pig2.0.sol\":11435:11667  if(is_sell(from, to) &&  !inSwap && canSwap(from, to)) {... */\n    tag_302:\n        /* \"contracts/pig2.0.sol\":11683:11689  _noFee */\n      0x02\n        /* \"contracts/pig2.0.sol\":11683:11695  _noFee[from] */\n      0x00\n        /* \"contracts/pig2.0.sol\":11690:11694  from */\n      dup7\n        /* \"contracts/pig2.0.sol\":11683:11695  _noFee[from] */\n      0xffffffffffffffffffffffffffffffffffffffff\n      and\n      0xffffffffffffffffffffffffffffffffffffffff\n      and\n      dup2\n      mstore\n      0x20\n      add\n      swap1\n      dup2\n      mstore\n      0x20\n      add\n      0x00\n      keccak256\n      0x00\n      swap1\n      sload\n      swap1\n      0x0100\n      exp\n      swap1\n      div\n      0xff\n      and\n        /* \"contracts/pig2.0.sol\":11683:11709  _noFee[from] || _noFee[to] */\n      dup1\n      tag_308\n      jumpi\n      pop\n        /* \"contracts/pig2.0.sol\":11699:11705  _noFee */\n      0x02\n        /* \"contracts/pig2.0.sol\":11699:11709  _noFee[to] */\n      0x00\n        /* \"contracts/pig2.0.sol\":11706:11708  to */\n      dup6\n        /* \"contracts/pig2.0.sol\":11699:11709  _noFee[to] */\n      0xffffffffffffffffffffffffffffffffffffffff\n      and\n      0xffffffffffffffffffffffffffffffffffffffff\n      and\n      dup2\n      mstore\n      0x20\n      add\n      swap1\n      dup2\n      mstore\n      0x20\n      add\n      0x00\n      keccak256\n      0x00\n      swap1\n      sload\n      swap1\n      0x0100\n      exp\n      swap1\n      div\n      0xff\n      and\n        /* \"contracts/pig2.0.sol\":11683:11709  _noFee[from] || _noFee[to] */\n    tag_308:\n        /* \"contracts/pig2.0.sol\":11679:11752  if (_noFee[from] || _noFee[to]){... */\n      iszero\n      tag_309\n      jumpi\n        /* \"contracts/pig2.0.sol\":11735:11740  false */\n      0x00\n        /* \"contracts/pig2.0.sol\":11725:11740  takeFee = false */\n      swap1\n      pop\n        /* \"contracts/pig2.0.sol\":11679:11752  if (_noFee[from] || _noFee[to]){... */\n    tag_309:\n        /* \"contracts/pig2.0.sol\":11781:11787  amount */\n      dup3\n        /* \"contracts/pig2.0.sol\":11764:11771  balance */\n      0x06\n        /* \"contracts/pig2.0.sol\":11764:11777  balance[from] */\n      0x00\n        /* \"contracts/pig2.0.sol\":11772:11776  from */\n      dup8\n        /* \"contracts/pig2.0.sol\":11764:11777  balance[from] */\n      0xffffffffffffffffffffffffffffffffffffffff\n      and\n      0xffffffffffffffffffffffffffffffffffffffff\n      and\n      dup2\n      mstore\n      0x20\n      add\n      swap1\n      dup2\n      mstore\n      0x20\n      add\n      0x00\n      keccak256\n      0x00\n        /* \"contracts/pig2.0.sol\":11764:11787  balance[from] -= amount */\n      dup3\n      dup3\n      sload\n      tag_310\n      swap2\n      swap1\n      tag_207\n      jump\t// in\n    tag_310:\n      swap3\n      pop\n      pop\n      dup2\n      swap1\n      sstore\n      pop\n        /* \"contracts/pig2.0.sol\":11789:11811  uint256 amountAfterFee */\n      0x00\n        /* \"contracts/pig2.0.sol\":11815:11822  takeFee */\n      dup2\n        /* \"contracts/pig2.0.sol\":11814:11895  (takeFee) ? takeTaxes(from, is_buy(from, to), is_sell(from, to), amount) : amount */\n      tag_311\n      jumpi\n        /* \"contracts/pig2.0.sol\":11889:11895  amount */\n      dup4\n        /* \"contracts/pig2.0.sol\":11814:11895  (takeFee) ? takeTaxes(from, is_buy(from, to), is_sell(from, to), amount) : amount */\n      jump(tag_312)\n    tag_311:\n        /* \"contracts/pig2.0.sol\":11826:11886  takeTaxes(from, is_buy(from, to), is_sell(from, to), amount) */\n      tag_313\n        /* \"contracts/pig2.0.sol\":11836:11840  from */\n      dup7\n        /* \"contracts/pig2.0.sol\":11842:11858  is_buy(from, to) */\n      tag_314\n        /* \"contracts/pig2.0.sol\":11849:11853  from */\n      dup9\n        /* \"contracts/pig2.0.sol\":11855:11857  to */\n      dup9\n        /* \"contracts/pig2.0.sol\":11842:11848  is_buy */\n      tag_315\n        /* \"contracts/pig2.0.sol\":11842:11858  is_buy(from, to) */\n      jump\t// in\n    tag_314:\n        /* \"contracts/pig2.0.sol\":11860:11877  is_sell(from, to) */\n      tag_316\n        /* \"contracts/pig2.0.sol\":11868:11872  from */\n      dup10\n        /* \"contracts/pig2.0.sol\":11874:11876  to */\n      dup10\n        /* \"contracts/pig2.0.sol\":11860:11867  is_sell */\n      tag_297\n        /* \"contracts/pig2.0.sol\":11860:11877  is_sell(from, to) */\n      jump\t// in\n    tag_316:\n        /* \"contracts/pig2.0.sol\":11879:11885  amount */\n      dup8\n        /* \"contracts/pig2.0.sol\":11826:11835  takeTaxes */\n      tag_317\n        /* \"contracts/pig2.0.sol\":11826:11886  takeTaxes(from, is_buy(from, to), is_sell(from, to), amount) */\n      jump\t// in\n    tag_313:\n        /* \"contracts/pig2.0.sol\":11814:11895  (takeFee) ? takeTaxes(from, is_buy(from, to), is_sell(from, to), amount) : amount */\n    tag_312:\n        /* \"contracts/pig2.0.sol\":11789:11895  uint256 amountAfterFee = (takeFee) ? takeTaxes(from, is_buy(from, to), is_sell(from, to), amount) : amount */\n      swap1\n      pop\n        /* \"contracts/pig2.0.sol\":11921:11935  amountAfterFee */\n      dup1\n        /* \"contracts/pig2.0.sol\":11906:11913  balance */\n      0x06\n        /* \"contracts/pig2.0.sol\":11906:11917  balance[to] */\n      0x00\n        /* \"contracts/pig2.0.sol\":11914:11916  to */\n      dup8\n        /* \"contracts/pig2.0.sol\":11906:11917  balance[to] */\n      0xffffffffffffffffffffffffffffffffffffffff\n      and\n      0xffffffffffffffffffffffffffffffffffffffff\n      and\n      dup2\n      mstore\n      0x20\n      add\n      swap1\n      dup2\n      mstore\n      0x20\n      add\n      0x00\n      keccak256\n      0x00\n        /* \"contracts/pig2.0.sol\":11906:11935  balance[to] += amountAfterFee */\n      dup3\n      dup3\n      sload\n      tag_318\n      swap2\n      swap1\n      tag_319\n      jump\t// in\n    tag_318:\n      swap3\n      pop\n      pop\n      dup2\n      swap1\n      sstore\n      pop\n        /* \"contracts/pig2.0.sol\":11957:11959  to */\n      dup5\n        /* \"contracts/pig2.0.sol\":11942:11976  Transfer(from, to, amountAfterFee) */\n      0xffffffffffffffffffffffffffffffffffffffff\n      and\n        /* \"contracts/pig2.0.sol\":11951:11955  from */\n      dup7\n        /* \"contracts/pig2.0.sol\":11942:11976  Transfer(from, to, amountAfterFee) */\n      0xffffffffffffffffffffffffffffffffffffffff\n      and\n      0xddf252ad1be2c89b69c2b068fc378daa952ba7f163c4a11628f55a4df523b3ef\n        /* \"contracts/pig2.0.sol\":11961:11975  amountAfterFee */\n      dup4\n        /* \"contracts/pig2.0.sol\":11942:11976  Transfer(from, to, amountAfterFee) */\n      mload(0x40)\n      tag_320\n      swap2\n      swap1\n      tag_51\n      jump\t// in\n    tag_320:\n      mload(0x40)\n      dup1\n      swap2\n      sub\n      swap1\n      log3\n        /* \"contracts/pig2.0.sol\":11996:12000  true */\n      0x01\n        /* \"contracts/pig2.0.sol\":11989:12000  return true */\n      swap3\n      pop\n      pop\n      pop\n        /* \"contracts/pig2.0.sol\":10955:12010  function _transfer(address from, address to, uint256 amount) internal returns  (bool) {... */\n      swap4\n      swap3\n      pop\n      pop\n      pop\n      jump\t// out\n        /* \"contracts/pig2.0.sol\":1223:1396  function _setOwner(address newOwner) private {... */\n    tag_232:\n        /* \"contracts/pig2.0.sol\":1279:1295  address oldOwner */\n      0x00\n        /* \"contracts/pig2.0.sol\":1298:1304  _owner */\n      dup1\n      0x00\n      swap1\n      sload\n      swap1\n      0x0100\n      exp\n      swap1\n      div\n      0xffffffffffffffffffffffffffffffffffffffff\n      and\n        /* \"contracts/pig2.0.sol\":1279:1304  address oldOwner = _owner */\n      swap1\n      pop\n        /* \"contracts/pig2.0.sol\":1324:1332  newOwner */\n      dup2\n        /* \"contracts/pig2.0.sol\":1315:1321  _owner */\n      0x00\n      dup1\n        /* \"contracts/pig2.0.sol\":1315:1332  _owner = newOwner */\n      0x0100\n      exp\n      dup2\n      sload\n      dup2\n      0xffffffffffffffffffffffffffffffffffffffff\n      mul\n      not\n      and\n      swap1\n      dup4\n      0xffffffffffffffffffffffffffffffffffffffff\n      and\n      mul\n      or\n      swap1\n      sstore\n      pop\n        /* \"contracts/pig2.0.sol\":1379:1387  newOwner */\n      dup2\n        /* \"contracts/pig2.0.sol\":1348:1388  OwnershipTransferred(oldOwner, newOwner) */\n      0xffffffffffffffffffffffffffffffffffffffff\n      and\n        /* \"contracts/pig2.0.sol\":1369:1377  oldOwner */\n      dup2\n        /* \"contracts/pig2.0.sol\":1348:1388  OwnershipTransferred(oldOwner, newOwner) */\n      0xffffffffffffffffffffffffffffffffffffffff\n      and\n      0x8be0079c531659141344cd1fd0a4f28419497f9722a3daafe3b4186f6b6457e0\n      mload(0x40)\n      mload(0x40)\n      dup1\n      swap2\n      sub\n      swap1\n      log3\n        /* \"contracts/pig2.0.sol\":1268:1396  {... */\n      pop\n        /* \"contracts/pig2.0.sol\":1223:1396  function _setOwner(address newOwner) private {... */\n      pop\n      jump\t// out\n        /* \"contracts/pig2.0.sol\":9713:10051  function isLimitedAddress(address ins, address out) internal view returns (bool) {... */\n    tag_291:\n        /* \"contracts/pig2.0.sol\":9788:9792  bool */\n      0x00\n        /* \"contracts/pig2.0.sol\":9807:9821  bool isLimited */\n      dup1\n        /* \"contracts/pig2.0.sol\":9831:9838  owner() */\n      tag_323\n        /* \"contracts/pig2.0.sol\":9831:9836  owner */\n      tag_136\n        /* \"contracts/pig2.0.sol\":9831:9838  owner() */\n      jump\t// in\n    tag_323:\n        /* \"contracts/pig2.0.sol\":9824:9838  ins != owner() */\n      0xffffffffffffffffffffffffffffffffffffffff\n      and\n        /* \"contracts/pig2.0.sol\":9824:9827  ins */\n      dup5\n        /* \"contracts/pig2.0.sol\":9824:9838  ins != owner() */\n      0xffffffffffffffffffffffffffffffffffffffff\n      and\n      eq\n      iszero\n        /* \"contracts/pig2.0.sol\":9824:9869  ins != owner()... */\n      dup1\n      iszero\n      tag_324\n      jumpi\n      pop\n        /* \"contracts/pig2.0.sol\":9862:9869  owner() */\n      tag_325\n        /* \"contracts/pig2.0.sol\":9862:9867  owner */\n      tag_136\n        /* \"contracts/pig2.0.sol\":9862:9869  owner() */\n      jump\t// in\n    tag_325:\n        /* \"contracts/pig2.0.sol\":9855:9869  out != owner() */\n      0xffffffffffffffffffffffffffffffffffffffff\n      and\n        /* \"contracts/pig2.0.sol\":9855:9858  out */\n      dup4\n        /* \"contracts/pig2.0.sol\":9855:9869  out != owner() */\n      0xffffffffffffffffffffffffffffffffffffffff\n      and\n      eq\n      iszero\n        /* \"contracts/pig2.0.sol\":9824:9869  ins != owner()... */\n    tag_324:\n        /* \"contracts/pig2.0.sol\":9824:9894  ins != owner()... */\n      dup1\n      iszero\n      tag_326\n      jumpi\n      pop\n        /* \"contracts/pig2.0.sol\":9887:9894  owner() */\n      tag_327\n        /* \"contracts/pig2.0.sol\":9887:9892  owner */\n      tag_136\n        /* \"contracts/pig2.0.sol\":9887:9894  owner() */\n      jump\t// in\n    tag_327:\n        /* \"contracts/pig2.0.sol\":9873:9894  msg.sender != owner() */\n      0xffffffffffffffffffffffffffffffffffffffff\n      and\n        /* \"contracts/pig2.0.sol\":9873:9883  msg.sender */\n      caller\n        /* \"contracts/pig2.0.sol\":9873:9894  msg.sender != owner() */\n      0xffffffffffffffffffffffffffffffffffffffff\n      and\n      eq\n      iszero\n        /* \"contracts/pig2.0.sol\":9824:9894  ins != owner()... */\n    tag_326:\n        /* \"contracts/pig2.0.sol\":9824:9929  ins != owner()... */\n      dup1\n      iszero\n      tag_328\n      jumpi\n      pop\n        /* \"contracts/pig2.0.sol\":9912:9924  liquidityAdd */\n      0x03\n        /* \"contracts/pig2.0.sol\":9912:9929  liquidityAdd[ins] */\n      0x00\n        /* \"contracts/pig2.0.sol\":9925:9928  ins */\n      dup6\n        /* \"contracts/pig2.0.sol\":9912:9929  liquidityAdd[ins] */\n      0xffffffffffffffffffffffffffffffffffffffff\n      and\n      0xffffffffffffffffffffffffffffffffffffffff\n      and\n      dup2\n      mstore\n      0x20\n      add\n      swap1\n      dup2\n      mstore\n      0x20\n      add\n      0x00\n      keccak256\n      0x00\n      swap1\n      sload\n      swap1\n      0x0100\n      exp\n      swap1\n      div\n      0xff\n      and\n        /* \"contracts/pig2.0.sol\":9911:9929  !liquidityAdd[ins] */\n      iszero\n        /* \"contracts/pig2.0.sol\":9824:9929  ins != owner()... */\n    tag_328:\n        /* \"contracts/pig2.0.sol\":9824:9952  ins != owner()... */\n      dup1\n      iszero\n      tag_329\n      jumpi\n      pop\n        /* \"contracts/pig2.0.sol\":9935:9947  liquidityAdd */\n      0x03\n        /* \"contracts/pig2.0.sol\":9935:9952  liquidityAdd[out] */\n      0x00\n        /* \"contracts/pig2.0.sol\":9948:9951  out */\n      dup5\n        /* \"contracts/pig2.0.sol\":9935:9952  liquidityAdd[out] */\n      0xffffffffffffffffffffffffffffffffffffffff\n      and\n      0xffffffffffffffffffffffffffffffffffffffff\n      and\n      dup2\n      mstore\n      0x20\n      add\n      swap1\n      dup2\n      mstore\n      0x20\n      add\n      0x00\n      keccak256\n      0x00\n      swap1\n      sload\n      swap1\n      0x0100\n      exp\n      swap1\n      div\n      0xff\n      and\n        /* \"contracts/pig2.0.sol\":9934:9952  !liquidityAdd[out] */\n      iszero\n        /* \"contracts/pig2.0.sol\":9824:9952  ins != owner()... */\n    tag_329:\n        /* \"contracts/pig2.0.sol\":9824:9967  ins != owner()... */\n      dup1\n      iszero\n      tag_330\n      jumpi\n      pop\n        /* \"contracts/pig2.0.sol\":6787:6829  0x000000000000000000000000000000000000dEaD */\n      0xdead\n        /* \"contracts/pig2.0.sol\":9956:9967  out != DEAD */\n      0xffffffffffffffffffffffffffffffffffffffff\n      and\n        /* \"contracts/pig2.0.sol\":9956:9959  out */\n      dup4\n        /* \"contracts/pig2.0.sol\":9956:9967  out != DEAD */\n      0xffffffffffffffffffffffffffffffffffffffff\n      and\n      eq\n      iszero\n        /* \"contracts/pig2.0.sol\":9824:9967  ins != owner()... */\n    tag_330:\n        /* \"contracts/pig2.0.sol\":9824:9988  ins != owner()... */\n      dup1\n      iszero\n      tag_331\n      jumpi\n      pop\n        /* \"contracts/pig2.0.sol\":9986:9987  0 */\n      0x00\n        /* \"contracts/pig2.0.sol\":9971:9988  out != address(0) */\n      0xffffffffffffffffffffffffffffffffffffffff\n      and\n        /* \"contracts/pig2.0.sol\":9971:9974  out */\n      dup4\n        /* \"contracts/pig2.0.sol\":9971:9988  out != address(0) */\n      0xffffffffffffffffffffffffffffffffffffffff\n      and\n      eq\n      iszero\n        /* \"contracts/pig2.0.sol\":9824:9988  ins != owner()... */\n    tag_331:\n        /* \"contracts/pig2.0.sol\":9824:10012  ins != owner()... */\n      dup1\n      iszero\n      tag_332\n      jumpi\n      pop\n        /* \"contracts/pig2.0.sol\":10007:10011  this */\n      address\n        /* \"contracts/pig2.0.sol\":9992:10012  out != address(this) */\n      0xffffffffffffffffffffffffffffffffffffffff\n      and\n        /* \"contracts/pig2.0.sol\":9992:9995  out */\n      dup4\n        /* \"contracts/pig2.0.sol\":9992:10012  out != address(this) */\n      0xffffffffffffffffffffffffffffffffffffffff\n      and\n      eq\n      iszero\n        /* \"contracts/pig2.0.sol\":9824:10012  ins != owner()... */\n    tag_332:\n        /* \"contracts/pig2.0.sol\":9807:10012  bool isLimited = ins != owner()... */\n      swap1\n      pop\n        /* \"contracts/pig2.0.sol\":10034:10043  isLimited */\n      dup1\n        /* \"contracts/pig2.0.sol\":10027:10043  return isLimited */\n      swap2\n      pop\n      pop\n        /* \"contracts/pig2.0.sol\":9713:10051  function isLimitedAddress(address ins, address out) internal view returns (bool) {... */\n      swap3\n      swap2\n      pop\n      pop\n      jump\t// out\n        /* \"contracts/pig2.0.sol\":10228:10393  function is_sell(address ins, address out) internal view returns (bool) { ... */\n    tag_297:\n        /* \"contracts/pig2.0.sol\":10294:10298  bool */\n      0x00\n        /* \"contracts/pig2.0.sol\":10312:10325  bool _is_sell */\n      dup1\n        /* \"contracts/pig2.0.sol\":10328:10336  isLpPair */\n      0x04\n        /* \"contracts/pig2.0.sol\":10328:10341  isLpPair[out] */\n      0x00\n        /* \"contracts/pig2.0.sol\":10337:10340  out */\n      dup5\n        /* \"contracts/pig2.0.sol\":10328:10341  isLpPair[out] */\n      0xffffffffffffffffffffffffffffffffffffffff\n      and\n      0xffffffffffffffffffffffffffffffffffffffff\n      and\n      dup2\n      mstore\n      0x20\n      add\n      swap1\n      dup2\n      mstore\n      0x20\n      add\n      0x00\n      keccak256\n      0x00\n      swap1\n      sload\n      swap1\n      0x0100\n      exp\n      swap1\n      div\n      0xff\n      and\n        /* \"contracts/pig2.0.sol\":10328:10359  isLpPair[out] && !isLpPair[ins] */\n      dup1\n      iszero\n      tag_334\n      jumpi\n      pop\n        /* \"contracts/pig2.0.sol\":10346:10354  isLpPair */\n      0x04\n        /* \"contracts/pig2.0.sol\":10346:10359  isLpPair[ins] */\n      0x00\n        /* \"contracts/pig2.0.sol\":10355:10358  ins */\n      dup6\n        /* \"contracts/pig2.0.sol\":10346:10359  isLpPair[ins] */\n      0xffffffffffffffffffffffffffffffffffffffff\n      and\n      0xffffffffffffffffffffffffffffffffffffffff\n      and\n      dup2\n      mstore\n      0x20\n      add\n      swap1\n      dup2\n      mstore\n      0x20\n      add\n      0x00\n      keccak256\n      0x00\n      swap1\n      sload\n      swap1\n      0x0100\n      exp\n      swap1\n      div\n      0xff\n      and\n        /* \"contracts/pig2.0.sol\":10345:10359  !isLpPair[ins] */\n      iszero\n        /* \"contracts/pig2.0.sol\":10328:10359  isLpPair[out] && !isLpPair[ins] */\n    tag_334:\n        /* \"contracts/pig2.0.sol\":10312:10359  bool _is_sell = isLpPair[out] && !isLpPair[ins] */\n      swap1\n      pop\n        /* \"contracts/pig2.0.sol\":10377:10385  _is_sell */\n      dup1\n        /* \"contracts/pig2.0.sol\":10370:10385  return _is_sell */\n      swap2\n      pop\n      pop\n        /* \"contracts/pig2.0.sol\":10228:10393  function is_sell(address ins, address out) internal view returns (bool) { ... */\n      swap3\n      swap2\n      pop\n      pop\n      jump\t// out\n        /* \"contracts/pig2.0.sol\":10402:10598  function canSwap(address ins, address out) internal view returns (bool) {... */\n    tag_301:\n        /* \"contracts/pig2.0.sol\":10468:10472  bool */\n      0x00\n        /* \"contracts/pig2.0.sol\":10485:10497  bool canswap */\n      dup1\n        /* \"contracts/pig2.0.sol\":10500:10511  canSwapFees */\n      0x07\n      0x00\n      swap1\n      sload\n      swap1\n      0x0100\n      exp\n      swap1\n      div\n      0xff\n      and\n        /* \"contracts/pig2.0.sol\":10500:10537  canSwapFees && !isPresaleAddress[ins] */\n      dup1\n      iszero\n      tag_336\n      jumpi\n      pop\n        /* \"contracts/pig2.0.sol\":10516:10532  isPresaleAddress */\n      0x05\n        /* \"contracts/pig2.0.sol\":10516:10537  isPresaleAddress[ins] */\n      0x00\n        /* \"contracts/pig2.0.sol\":10533:10536  ins */\n      dup6\n        /* \"contracts/pig2.0.sol\":10516:10537  isPresaleAddress[ins] */\n      0xffffffffffffffffffffffffffffffffffffffff\n      and\n      0xffffffffffffffffffffffffffffffffffffffff\n      and\n      dup2\n      mstore\n      0x20\n      add\n      swap1\n      dup2\n      mstore\n      0x20\n      add\n      0x00\n      keccak256\n      0x00\n      swap1\n      sload\n      swap1\n      0x0100\n      exp\n      swap1\n      div\n      0xff\n      and\n        /* \"contracts/pig2.0.sol\":10515:10537  !isPresaleAddress[ins] */\n      iszero\n        /* \"contracts/pig2.0.sol\":10500:10537  canSwapFees && !isPresaleAddress[ins] */\n    tag_336:\n        /* \"contracts/pig2.0.sol\":10500:10563  canSwapFees && !isPresaleAddress[ins] && !isPresaleAddress[out] */\n      dup1\n      iszero\n      tag_337\n      jumpi\n      pop\n        /* \"contracts/pig2.0.sol\":10542:10558  isPresaleAddress */\n      0x05\n        /* \"contracts/pig2.0.sol\":10542:10563  isPresaleAddress[out] */\n      0x00\n        /* \"contracts/pig2.0.sol\":10559:10562  out */\n      dup5\n        /* \"contracts/pig2.0.sol\":10542:10563  isPresaleAddress[out] */\n      0xffffffffffffffffffffffffffffffffffffffff\n      and\n      0xffffffffffffffffffffffffffffffffffffffff\n      and\n      dup2\n      mstore\n      0x20\n      add\n      swap1\n      dup2\n      mstore\n      0x20\n      add\n      0x00\n      keccak256\n      0x00\n      swap1\n      sload\n      swap1\n      0x0100\n      exp\n      swap1\n      div\n      0xff\n      and\n        /* \"contracts/pig2.0.sol\":10541:10563  !isPresaleAddress[out] */\n      iszero\n        /* \"contracts/pig2.0.sol\":10500:10563  canSwapFees && !isPresaleAddress[ins] && !isPresaleAddress[out] */\n    tag_337:\n        /* \"contracts/pig2.0.sol\":10485:10563  bool canswap = canSwapFees && !isPresaleAddress[ins] && !isPresaleAddress[out] */\n      swap1\n      pop\n        /* \"contracts/pig2.0.sol\":10583:10590  canswap */\n      dup1\n        /* \"contracts/pig2.0.sol\":10576:10590  return canswap */\n      swap2\n      pop\n      pop\n        /* \"contracts/pig2.0.sol\":10402:10598  function canSwap(address ins, address out) internal view returns (bool) {... */\n      swap3\n      swap2\n      pop\n      pop\n      jump\t// out\n        /* \"contracts/pig2.0.sol\":12724:13526  function internalSwap(uint256 contractTokenBalance) internal inSwapFlag {... */\n    tag_307:\n        /* \"contracts/pig2.0.sol\":6979:6983  true */\n      0x01\n        /* \"contracts/pig2.0.sol\":6970:6976  inSwap */\n      0x09\n      0x15\n        /* \"contracts/pig2.0.sol\":6970:6983  inSwap = true */\n      0x0100\n      exp\n      dup2\n      sload\n      dup2\n      0xff\n      mul\n      not\n      and\n      swap1\n      dup4\n      iszero\n      iszero\n      mul\n      or\n      swap1\n      sstore\n      pop\n        /* \"contracts/pig2.0.sol\":12817:12838  address[] memory path */\n      0x00\n        /* \"contracts/pig2.0.sol\":12855:12856  2 */\n      0x02\n        /* \"contracts/pig2.0.sol\":12841:12857  new address[](2) */\n      0xffffffffffffffff\n      dup2\n      gt\n      iszero\n      tag_340\n      jumpi\n      tag_341\n      tag_342\n      jump\t// in\n    tag_341:\n    tag_340:\n      mload(0x40)\n      swap1\n      dup1\n      dup3\n      mstore\n      dup1\n      0x20\n      mul\n      0x20\n      add\n      dup3\n      add\n      0x40\n      mstore\n      dup1\n      iszero\n      tag_343\n      jumpi\n      dup2\n      0x20\n      add\n      0x20\n      dup3\n      mul\n      dup1\n      calldatasize\n      dup4\n      calldatacopy\n      dup1\n      dup3\n      add\n      swap2\n      pop\n      pop\n      swap1\n      pop\n    tag_343:\n      pop\n        /* \"contracts/pig2.0.sol\":12817:12857  address[] memory path = new address[](2) */\n      swap1\n      pop\n        /* \"contracts/pig2.0.sol\":12886:12890  this */\n      address\n        /* \"contracts/pig2.0.sol\":12868:12872  path */\n      dup2\n        /* \"contracts/pig2.0.sol\":12873:12874  0 */\n      0x00\n        /* \"contracts/pig2.0.sol\":12868:12875  path[0] */\n      dup2\n      mload\n      dup2\n      lt\n      tag_344\n      jumpi\n      tag_345\n      tag_346\n      jump\t// in\n    tag_345:\n    tag_344:\n      0x20\n      mul\n      0x20\n      add\n      add\n        /* \"contracts/pig2.0.sol\":12868:12891  path[0] = address(this) */\n      swap1\n      0xffffffffffffffffffffffffffffffffffffffff\n      and\n      swap1\n      dup2\n      0xffffffffffffffffffffffffffffffffffffffff\n      and\n      dup2\n      mstore\n      pop\n      pop\n        /* \"contracts/pig2.0.sol\":12912:12922  swapRouter */\n      0x08\n      0x00\n      swap1\n      sload\n      swap1\n      0x0100\n      exp\n      swap1\n      div\n      0xffffffffffffffffffffffffffffffffffffffff\n      and\n        /* \"contracts/pig2.0.sol\":12912:12927  swapRouter.WETH */\n      0xffffffffffffffffffffffffffffffffffffffff\n      and\n      0xad5c4648\n        /* \"contracts/pig2.0.sol\":12912:12929  swapRouter.WETH() */\n      mload(0x40)\n      dup2\n      0xffffffff\n      and\n      0xe0\n      shl\n      dup2\n      mstore\n      0x04\n      add\n      0x20\n      mload(0x40)\n      dup1\n      dup4\n      sub\n      dup2\n      dup7\n      gas\n      staticcall\n      iszero\n      dup1\n      iszero\n      tag_348\n      jumpi\n      returndatasize\n      0x00\n      dup1\n      returndatacopy\n      revert(0x00, returndatasize)\n    tag_348:\n      pop\n      pop\n      pop\n      pop\n      mload(0x40)\n      returndatasize\n      not(0x1f)\n      0x1f\n      dup3\n      add\n      and\n      dup3\n      add\n      dup1\n      0x40\n      mstore\n      pop\n      dup2\n      add\n      swap1\n      tag_349\n      swap2\n      swap1\n      tag_350\n      jump\t// in\n    tag_349:\n        /* \"contracts/pig2.0.sol\":12902:12906  path */\n      dup2\n        /* \"contracts/pig2.0.sol\":12907:12908  1 */\n      0x01\n        /* \"contracts/pig2.0.sol\":12902:12909  path[1] */\n      dup2\n      mload\n      dup2\n      lt\n      tag_351\n      jumpi\n      tag_352\n      tag_346\n      jump\t// in\n    tag_352:\n    tag_351:\n      0x20\n      mul\n      0x20\n      add\n      add\n        /* \"contracts/pig2.0.sol\":12902:12929  path[1] = swapRouter.WETH() */\n      swap1\n      0xffffffffffffffffffffffffffffffffffffffff\n      and\n      swap1\n      dup2\n      0xffffffffffffffffffffffffffffffffffffffff\n      and\n      dup2\n      mstore\n      pop\n      pop\n        /* \"contracts/pig2.0.sol\":12997:13014  type(uint256).max */\n      0xffffffffffffffffffffffffffffffffffffffffffffffffffffffffffffffff\n        /* \"contracts/pig2.0.sol\":12946:12957  _allowances */\n      0x01\n        /* \"contracts/pig2.0.sol\":12946:12972  _allowances[address(this)] */\n      0x00\n        /* \"contracts/pig2.0.sol\":12966:12970  this */\n      address\n        /* \"contracts/pig2.0.sol\":12946:12972  _allowances[address(this)] */\n      0xffffffffffffffffffffffffffffffffffffffff\n      and\n      0xffffffffffffffffffffffffffffffffffffffff\n      and\n      dup2\n      mstore\n      0x20\n      add\n      swap1\n      dup2\n      mstore\n      0x20\n      add\n      0x00\n      keccak256\n        /* \"contracts/pig2.0.sol\":12946:12993  _allowances[address(this)][address(swapRouter)] */\n      0x00\n        /* \"contracts/pig2.0.sol\":12981:12991  swapRouter */\n      0x08\n      0x00\n      swap1\n      sload\n      swap1\n      0x0100\n      exp\n      swap1\n      div\n      0xffffffffffffffffffffffffffffffffffffffff\n      and\n        /* \"contracts/pig2.0.sol\":12946:12993  _allowances[address(this)][address(swapRouter)] */\n      0xffffffffffffffffffffffffffffffffffffffff\n      and\n      0xffffffffffffffffffffffffffffffffffffffff\n      and\n      dup2\n      mstore\n      0x20\n      add\n      swap1\n      dup2\n      mstore\n      0x20\n      add\n      0x00\n      keccak256\n      sload\n        /* \"contracts/pig2.0.sol\":12946:13014  _allowances[address(this)][address(swapRouter)] != type(uint256).max */\n      eq\n        /* \"contracts/pig2.0.sol\":12942:13110  if (_allowances[address(this)][address(swapRouter)] != type(uint256).max) {... */\n      tag_353\n      jumpi\n        /* \"contracts/pig2.0.sol\":13081:13098  type(uint256).max */\n      0xffffffffffffffffffffffffffffffffffffffffffffffffffffffffffffffff\n        /* \"contracts/pig2.0.sol\":13031:13042  _allowances */\n      0x01\n        /* \"contracts/pig2.0.sol\":13031:13057  _allowances[address(this)] */\n      0x00\n        /* \"contracts/pig2.0.sol\":13051:13055  this */\n      address\n        /* \"contracts/pig2.0.sol\":13031:13057  _allowances[address(this)] */\n      0xffffffffffffffffffffffffffffffffffffffff\n      and\n      0xffffffffffffffffffffffffffffffffffffffff\n      and\n      dup2\n      mstore\n      0x20\n      add\n      swap1\n      dup2\n      mstore\n      0x20\n      add\n      0x00\n      keccak256\n        /* \"contracts/pig2.0.sol\":13031:13078  _allowances[address(this)][address(swapRouter)] */\n      0x00\n        /* \"contracts/pig2.0.sol\":13066:13076  swapRouter */\n      0x08\n      0x00\n      swap1\n      sload\n      swap1\n      0x0100\n      exp\n      swap1\n      div\n      0xffffffffffffffffffffffffffffffffffffffff\n      and\n        /* \"contracts/pig2.0.sol\":13031:13078  _allowances[address(this)][address(swapRouter)] */\n      0xffffffffffffffffffffffffffffffffffffffff\n      and\n      0xffffffffffffffffffffffffffffffffffffffff\n      and\n      dup2\n      mstore\n      0x20\n      add\n      swap1\n      dup2\n      mstore\n      0x20\n      add\n      0x00\n      keccak256\n        /* \"contracts/pig2.0.sol\":13031:13098  _allowances[address(this)][address(swapRouter)] = type(uint256).max */\n      dup2\n      swap1\n      sstore\n      pop\n        /* \"contracts/pig2.0.sol\":12942:13110  if (_allowances[address(this)][address(swapRouter)] != type(uint256).max) {... */\n    tag_353:\n        /* \"contracts/pig2.0.sol\":13126:13136  swapRouter */\n      0x08\n      0x00\n      swap1\n      sload\n      swap1\n      0x0100\n      exp\n      swap1\n      div\n      0xffffffffffffffffffffffffffffffffffffffff\n      and\n        /* \"contracts/pig2.0.sol\":13126:13187  swapRouter.swapExactTokensForETHSupportingFeeOnTransferTokens */\n      0xffffffffffffffffffffffffffffffffffffffff\n      and\n      0x791ac947\n        /* \"contracts/pig2.0.sol\":13202:13222  contractTokenBalance */\n      dup4\n        /* \"contracts/pig2.0.sol\":13237:13238  0 */\n      0x00\n        /* \"contracts/pig2.0.sol\":13253:13257  path */\n      dup5\n        /* \"contracts/pig2.0.sol\":13280:13284  this */\n      address\n        /* \"contracts/pig2.0.sol\":13300:13315  block.timestamp */\n      timestamp\n        /* \"contracts/pig2.0.sol\":13126:13326  swapRouter.swapExactTokensForETHSupportingFeeOnTransferTokens(... */\n      mload(0x40)\n      dup7\n      0xffffffff\n      and\n      0xe0\n      shl\n      dup2\n      mstore\n      0x04\n      add\n      tag_354\n      swap6\n      swap5\n      swap4\n      swap3\n      swap2\n      swap1\n      tag_355\n      jump\t// in\n    tag_354:\n      0x00\n      mload(0x40)\n      dup1\n      dup4\n      sub\n      dup2\n      0x00\n      dup8\n      dup1\n      extcodesize\n      iszero\n      dup1\n      iszero\n      tag_356\n      jumpi\n      0x00\n      dup1\n      revert\n    tag_356:\n      pop\n      gas\n      call\n      swap3\n      pop\n      pop\n      pop\n      dup1\n      iszero\n      tag_357\n      jumpi\n      pop\n      0x01\n    tag_357:\n        /* \"contracts/pig2.0.sol\":13122:13369  try swapRouter.swapExactTokensForETHSupportingFeeOnTransferTokens(... */\n      tag_358\n      jumpi\n        /* \"contracts/pig2.0.sol\":13351:13358  return; */\n      pop\n      jump(tag_339)\n        /* \"contracts/pig2.0.sol\":13122:13369  try swapRouter.swapExactTokensForETHSupportingFeeOnTransferTokens(... */\n    tag_358:\n        /* \"contracts/pig2.0.sol\":13379:13391  bool success */\n      0x00\n        /* \"contracts/pig2.0.sol\":13431:13432  0 */\n      dup1\n        /* \"contracts/pig2.0.sol\":13407:13428  address(this).balance */\n      selfbalance\n        /* \"contracts/pig2.0.sol\":13407:13432  address(this).balance > 0 */\n      gt\n        /* \"contracts/pig2.0.sol\":13404:13517  if(address(this).balance > 0) {(success,) = marketingAddress.call{value: address(this).balance, gas: 35000}(\"\");} */\n      iszero\n      tag_363\n      jumpi\n        /* \"contracts/pig2.0.sol\":13448:13464  marketingAddress */\n      0x07\n      0x01\n      swap1\n      sload\n      swap1\n      0x0100\n      exp\n      swap1\n      div\n      0xffffffffffffffffffffffffffffffffffffffff\n      and\n        /* \"contracts/pig2.0.sol\":13448:13469  marketingAddress.call */\n      0xffffffffffffffffffffffffffffffffffffffff\n      and\n        /* \"contracts/pig2.0.sol\":13477:13498  address(this).balance */\n      selfbalance\n        /* \"contracts/pig2.0.sol\":13505:13510  35000 */\n      0x88b8\n        /* \"contracts/pig2.0.sol\":13448:13515  marketingAddress.call{value: address(this).balance, gas: 35000}(\"\") */\n      swap1\n      mload(0x40)\n      tag_364\n      swap1\n      tag_365\n      jump\t// in\n    tag_364:\n      0x00\n      mload(0x40)\n      dup1\n      dup4\n      sub\n      dup2\n      dup6\n      dup9\n      dup9\n      call\n      swap4\n      pop\n      pop\n      pop\n      pop\n      returndatasize\n      dup1\n      0x00\n      dup2\n      eq\n      tag_368\n      jumpi\n      mload(0x40)\n      swap2\n      pop\n      and(add(returndatasize, 0x3f), not(0x1f))\n      dup3\n      add\n      0x40\n      mstore\n      returndatasize\n      dup3\n      mstore\n      returndatasize\n      0x00\n      0x20\n      dup5\n      add\n      returndatacopy\n      jump(tag_367)\n    tag_368:\n      0x60\n      swap2\n      pop\n    tag_367:\n      pop\n        /* \"contracts/pig2.0.sol\":13435:13515  (success,) = marketingAddress.call{value: address(this).balance, gas: 35000}(\"\") */\n      pop\n      dup1\n      swap2\n      pop\n      pop\n        /* \"contracts/pig2.0.sol\":13404:13517  if(address(this).balance > 0) {(success,) = marketingAddress.call{value: address(this).balance, gas: 35000}(\"\");} */\n    tag_363:\n        /* \"contracts/pig2.0.sol\":12796:13526  {... */\n      pop\n      pop\n        /* \"contracts/pig2.0.sol\":6994:6995  _ */\n    tag_339:\n        /* \"contracts/pig2.0.sol\":7015:7020  false */\n      0x00\n        /* \"contracts/pig2.0.sol\":7006:7012  inSwap */\n      0x09\n      0x15\n        /* \"contracts/pig2.0.sol\":7006:7020  inSwap = false */\n      0x0100\n      exp\n      dup2\n      sload\n      dup2\n      0xff\n      mul\n      not\n      and\n      swap1\n      dup4\n      iszero\n      iszero\n      mul\n      or\n      swap1\n      sstore\n      pop\n        /* \"contracts/pig2.0.sol\":12724:13526  function internalSwap(uint256 contractTokenBalance) internal inSwapFlag {... */\n      pop\n      jump\t// out\n        /* \"contracts/pig2.0.sol\":10059:10220  function is_buy(address ins, address out) internal view returns (bool) {... */\n    tag_315:\n        /* \"contracts/pig2.0.sol\":10124:10128  bool */\n      0x00\n        /* \"contracts/pig2.0.sol\":10141:10153  bool _is_buy */\n      dup1\n        /* \"contracts/pig2.0.sol\":10157:10165  isLpPair */\n      0x04\n        /* \"contracts/pig2.0.sol\":10157:10170  isLpPair[out] */\n      0x00\n        /* \"contracts/pig2.0.sol\":10166:10169  out */\n      dup5\n        /* \"contracts/pig2.0.sol\":10157:10170  isLpPair[out] */\n      0xffffffffffffffffffffffffffffffffffffffff\n      and\n      0xffffffffffffffffffffffffffffffffffffffff\n      and\n      dup2\n      mstore\n      0x20\n      add\n      swap1\n      dup2\n      mstore\n      0x20\n      add\n      0x00\n      keccak256\n      0x00\n      swap1\n      sload\n      swap1\n      0x0100\n      exp\n      swap1\n      div\n      0xff\n      and\n        /* \"contracts/pig2.0.sol\":10156:10170  !isLpPair[out] */\n      iszero\n        /* \"contracts/pig2.0.sol\":10156:10187  !isLpPair[out] && isLpPair[ins] */\n      dup1\n      iszero\n      tag_370\n      jumpi\n      pop\n        /* \"contracts/pig2.0.sol\":10174:10182  isLpPair */\n      0x04\n        /* \"contracts/pig2.0.sol\":10174:10187  isLpPair[ins] */\n      0x00\n        /* \"contracts/pig2.0.sol\":10183:10186  ins */\n      dup6\n        /* \"contracts/pig2.0.sol\":10174:10187  isLpPair[ins] */\n      0xffffffffffffffffffffffffffffffffffffffff\n      and\n      0xffffffffffffffffffffffffffffffffffffffff\n      and\n      dup2\n      mstore\n      0x20\n      add\n      swap1\n      dup2\n      mstore\n      0x20\n      add\n      0x00\n      keccak256\n      0x00\n      swap1\n      sload\n      swap1\n      0x0100\n      exp\n      swap1\n      div\n      0xff\n      and\n        /* \"contracts/pig2.0.sol\":10156:10187  !isLpPair[out] && isLpPair[ins] */\n    tag_370:\n        /* \"contracts/pig2.0.sol\":10141:10187  bool _is_buy = !isLpPair[out] && isLpPair[ins] */\n      swap1\n      pop\n        /* \"contracts/pig2.0.sol\":10205:10212  _is_buy */\n      dup1\n        /* \"contracts/pig2.0.sol\":10198:10212  return _is_buy */\n      swap2\n      pop\n      pop\n        /* \"contracts/pig2.0.sol\":10059:10220  function is_buy(address ins, address out) internal view returns (bool) {... */\n      swap3\n      swap2\n      pop\n      pop\n      jump\t// out\n        /* \"contracts/pig2.0.sol\":12186:12716  function takeTaxes(address from, bool isbuy, bool issell, uint256 amount) internal returns (uint256) {... */\n    tag_317:\n        /* \"contracts/pig2.0.sol\":12278:12285  uint256 */\n      0x00\n        /* \"contracts/pig2.0.sol\":12298:12309  uint256 fee */\n      dup1\n        /* \"contracts/pig2.0.sol\":12324:12329  isbuy */\n      dup5\n        /* \"contracts/pig2.0.sol\":12320:12404  if (isbuy)  fee = buyfee;  else if (issell)  fee = sellfee;  else  fee = transferfee */\n      iszero\n      tag_372\n      jumpi\n        /* \"contracts/pig2.0.sol\":6287:6289  10 */\n      0x0a\n        /* \"contracts/pig2.0.sol\":12332:12344  fee = buyfee */\n      swap1\n      pop\n        /* \"contracts/pig2.0.sol\":12320:12404  if (isbuy)  fee = buyfee;  else if (issell)  fee = sellfee;  else  fee = transferfee */\n      jump(tag_373)\n    tag_372:\n        /* \"contracts/pig2.0.sol\":12356:12362  issell */\n      dup4\n        /* \"contracts/pig2.0.sol\":12352:12404  if (issell)  fee = sellfee;  else  fee = transferfee */\n      iszero\n      tag_374\n      jumpi\n        /* \"contracts/pig2.0.sol\":6330:6332  10 */\n      0x0a\n        /* \"contracts/pig2.0.sol\":12365:12378  fee = sellfee */\n      swap1\n      pop\n        /* \"contracts/pig2.0.sol\":12352:12404  if (issell)  fee = sellfee;  else  fee = transferfee */\n      jump(tag_375)\n    tag_374:\n        /* \"contracts/pig2.0.sol\":6377:6378  0 */\n      0x00\n        /* \"contracts/pig2.0.sol\":12387:12404  fee = transferfee */\n      swap1\n      pop\n        /* \"contracts/pig2.0.sol\":12352:12404  if (issell)  fee = sellfee;  else  fee = transferfee */\n    tag_375:\n        /* \"contracts/pig2.0.sol\":12320:12404  if (isbuy)  fee = buyfee;  else if (issell)  fee = sellfee;  else  fee = transferfee */\n    tag_373:\n        /* \"contracts/pig2.0.sol\":12427:12428  0 */\n      0x00\n        /* \"contracts/pig2.0.sol\":12420:12423  fee */\n      dup2\n        /* \"contracts/pig2.0.sol\":12420:12428  fee == 0 */\n      sub\n        /* \"contracts/pig2.0.sol\":12416:12444  if (fee == 0)  return amount */\n      tag_376\n      jumpi\n        /* \"contracts/pig2.0.sol\":12438:12444  amount */\n      dup3\n        /* \"contracts/pig2.0.sol\":12431:12444  return amount */\n      swap2\n      pop\n      pop\n      jump(tag_371)\n        /* \"contracts/pig2.0.sol\":12416:12444  if (fee == 0)  return amount */\n    tag_376:\n        /* \"contracts/pig2.0.sol\":12455:12472  uint256 feeAmount */\n      0x00\n        /* \"contracts/pig2.0.sol\":6427:6432  1_000 */\n      0x03e8\n        /* \"contracts/pig2.0.sol\":12484:12487  fee */\n      dup3\n        /* \"contracts/pig2.0.sol\":12475:12481  amount */\n      dup6\n        /* \"contracts/pig2.0.sol\":12475:12487  amount * fee */\n      tag_377\n      swap2\n      swap1\n      tag_378\n      jump\t// in\n    tag_377:\n        /* \"contracts/pig2.0.sol\":12475:12505  amount * fee / fee_denominator */\n      tag_379\n      swap2\n      swap1\n      tag_179\n      jump\t// in\n    tag_379:\n        /* \"contracts/pig2.0.sol\":12455:12505  uint256 feeAmount = amount * fee / fee_denominator */\n      swap1\n      pop\n        /* \"contracts/pig2.0.sol\":12532:12533  0 */\n      0x00\n        /* \"contracts/pig2.0.sol\":12520:12529  feeAmount */\n      dup2\n        /* \"contracts/pig2.0.sol\":12520:12533  feeAmount > 0 */\n      gt\n        /* \"contracts/pig2.0.sol\":12516:12673  if (feeAmount > 0) {... */\n      iszero\n      tag_380\n      jumpi\n        /* \"contracts/pig2.0.sol\":12578:12587  feeAmount */\n      dup1\n        /* \"contracts/pig2.0.sol\":12552:12559  balance */\n      0x06\n        /* \"contracts/pig2.0.sol\":12552:12574  balance[address(this)] */\n      0x00\n        /* \"contracts/pig2.0.sol\":12568:12572  this */\n      address\n        /* \"contracts/pig2.0.sol\":12552:12574  balance[address(this)] */\n      0xffffffffffffffffffffffffffffffffffffffff\n      and\n      0xffffffffffffffffffffffffffffffffffffffff\n      and\n      dup2\n      mstore\n      0x20\n      add\n      swap1\n      dup2\n      mstore\n      0x20\n      add\n      0x00\n      keccak256\n      0x00\n        /* \"contracts/pig2.0.sol\":12552:12587  balance[address(this)] += feeAmount */\n      dup3\n      dup3\n      sload\n      tag_381\n      swap2\n      swap1\n      tag_319\n      jump\t// in\n    tag_381:\n      swap3\n      pop\n      pop\n      dup2\n      swap1\n      sstore\n      pop\n        /* \"contracts/pig2.0.sol\":12630:12634  this */\n      address\n        /* \"contracts/pig2.0.sol\":12607:12647  Transfer(from, address(this), feeAmount) */\n      0xffffffffffffffffffffffffffffffffffffffff\n      and\n        /* \"contracts/pig2.0.sol\":12616:12620  from */\n      dup8\n        /* \"contracts/pig2.0.sol\":12607:12647  Transfer(from, address(this), feeAmount) */\n      0xffffffffffffffffffffffffffffffffffffffff\n      and\n      0xddf252ad1be2c89b69c2b068fc378daa952ba7f163c4a11628f55a4df523b3ef\n        /* \"contracts/pig2.0.sol\":12637:12646  feeAmount */\n      dup4\n        /* \"contracts/pig2.0.sol\":12607:12647  Transfer(from, address(this), feeAmount) */\n      mload(0x40)\n      tag_382\n      swap2\n      swap1\n      tag_51\n      jump\t// in\n    tag_382:\n      mload(0x40)\n      dup1\n      swap2\n      sub\n      swap1\n      log3\n        /* \"contracts/pig2.0.sol\":12516:12673  if (feeAmount > 0) {... */\n    tag_380:\n        /* \"contracts/pig2.0.sol\":12699:12708  feeAmount */\n      dup1\n        /* \"contracts/pig2.0.sol\":12690:12696  amount */\n      dup5\n        /* \"contracts/pig2.0.sol\":12690:12708  amount - feeAmount */\n      tag_383\n      swap2\n      swap1\n      tag_207\n      jump\t// in\n    tag_383:\n        /* \"contracts/pig2.0.sol\":12683:12708  return amount - feeAmount */\n      swap3\n      pop\n      pop\n      pop\n        /* \"contracts/pig2.0.sol\":12186:12716  function takeTaxes(address from, bool isbuy, bool issell, uint256 amount) internal returns (uint256) {... */\n    tag_371:\n      swap5\n      swap4\n      pop\n      pop\n      pop\n      pop\n      jump\t// out\n        /* \"#utility.yul\":7:133   */\n    tag_384:\n        /* \"#utility.yul\":44:51   */\n      0x00\n        /* \"#utility.yul\":84:126   */\n      0xffffffffffffffffffffffffffffffffffffffff\n        /* \"#utility.yul\":77:82   */\n      dup3\n        /* \"#utility.yul\":73:127   */\n      and\n        /* \"#utility.yul\":62:127   */\n      swap1\n      pop\n        /* \"#utility.yul\":7:133   */\n      swap2\n      swap1\n      pop\n      jump\t// out\n        /* \"#utility.yul\":139:235   */\n    tag_385:\n        /* \"#utility.yul\":176:183   */\n      0x00\n        /* \"#utility.yul\":205:229   */\n      tag_451\n        /* \"#utility.yul\":223:228   */\n      dup3\n        /* \"#utility.yul\":205:229   */\n      tag_384\n      jump\t// in\n    tag_451:\n        /* \"#utility.yul\":194:229   */\n      swap1\n      pop\n        /* \"#utility.yul\":139:235   */\n      swap2\n      swap1\n      pop\n      jump\t// out\n        /* \"#utility.yul\":241:359   */\n    tag_386:\n        /* \"#utility.yul\":328:352   */\n      tag_453\n        /* \"#utility.yul\":346:351   */\n      dup2\n        /* \"#utility.yul\":328:352   */\n      tag_385\n      jump\t// in\n    tag_453:\n        /* \"#utility.yul\":323:326   */\n      dup3\n        /* \"#utility.yul\":316:353   */\n      mstore\n        /* \"#utility.yul\":241:359   */\n      pop\n      pop\n      jump\t// out\n        /* \"#utility.yul\":365:587   */\n    tag_46:\n        /* \"#utility.yul\":458:462   */\n      0x00\n        /* \"#utility.yul\":496:498   */\n      0x20\n        /* \"#utility.yul\":485:494   */\n      dup3\n        /* \"#utility.yul\":481:499   */\n      add\n        /* \"#utility.yul\":473:499   */\n      swap1\n      pop\n        /* \"#utility.yul\":509:580   */\n      tag_455\n        /* \"#utility.yul\":577:578   */\n      0x00\n        /* \"#utility.yul\":566:575   */\n      dup4\n        /* \"#utility.yul\":562:579   */\n      add\n        /* \"#utility.yul\":553:559   */\n      dup5\n        /* \"#utility.yul\":509:580   */\n      tag_386\n      jump\t// in\n    tag_455:\n        /* \"#utility.yul\":365:587   */\n      swap3\n      swap2\n      pop\n      pop\n      jump\t// out\n        /* \"#utility.yul\":593:670   */\n    tag_387:\n        /* \"#utility.yul\":630:637   */\n      0x00\n        /* \"#utility.yul\":659:664   */\n      dup2\n        /* \"#utility.yul\":648:664   */\n      swap1\n      pop\n        /* \"#utility.yul\":593:670   */\n      swap2\n      swap1\n      pop\n      jump\t// out\n        /* \"#utility.yul\":676:794   */\n    tag_388:\n        /* \"#utility.yul\":763:787   */\n      tag_458\n        /* \"#utility.yul\":781:786   */\n      dup2\n        /* \"#utility.yul\":763:787   */\n      tag_387\n      jump\t// in\n    tag_458:\n        /* \"#utility.yul\":758:761   */\n      dup3\n        /* \"#utility.yul\":751:788   */\n      mstore\n        /* \"#utility.yul\":676:794   */\n      pop\n      pop\n      jump\t// out\n        /* \"#utility.yul\":800:1022   */\n    tag_51:\n        /* \"#utility.yul\":893:897   */\n      0x00\n        /* \"#utility.yul\":931:933   */\n      0x20\n        /* \"#utility.yul\":920:929   */\n      dup3\n        /* \"#utility.yul\":916:934   */\n      add\n        /* \"#utility.yul\":908:934   */\n      swap1\n      pop\n        /* \"#utility.yul\":944:1015   */\n      tag_460\n        /* \"#utility.yul\":1012:1013   */\n      0x00\n        /* \"#utility.yul\":1001:1010   */\n      dup4\n        /* \"#utility.yul\":997:1014   */\n      add\n        /* \"#utility.yul\":988:994   */\n      dup5\n        /* \"#utility.yul\":944:1015   */\n      tag_388\n      jump\t// in\n    tag_460:\n        /* \"#utility.yul\":800:1022   */\n      swap3\n      swap2\n      pop\n      pop\n      jump\t// out\n        /* \"#utility.yul\":1028:1118   */\n    tag_389:\n        /* \"#utility.yul\":1062:1069   */\n      0x00\n        /* \"#utility.yul\":1105:1110   */\n      dup2\n        /* \"#utility.yul\":1098:1111   */\n      iszero\n        /* \"#utility.yul\":1091:1112   */\n      iszero\n        /* \"#utility.yul\":1080:1112   */\n      swap1\n      pop\n        /* \"#utility.yul\":1028:1118   */\n      swap2\n      swap1\n      pop\n      jump\t// out\n        /* \"#utility.yul\":1124:1233   */\n    tag_390:\n        /* \"#utility.yul\":1205:1226   */\n      tag_463\n        /* \"#utility.yul\":1220:1225   */\n      dup2\n        /* \"#utility.yul\":1205:1226   */\n      tag_389\n      jump\t// in\n    tag_463:\n        /* \"#utility.yul\":1200:1203   */\n      dup3\n        /* \"#utility.yul\":1193:1227   */\n      mstore\n        /* \"#utility.yul\":1124:1233   */\n      pop\n      pop\n      jump\t// out\n        /* \"#utility.yul\":1239:1449   */\n    tag_56:\n        /* \"#utility.yul\":1326:1330   */\n      0x00\n        /* \"#utility.yul\":1364:1366   */\n      0x20\n        /* \"#utility.yul\":1353:1362   */\n      dup3\n        /* \"#utility.yul\":1349:1367   */\n      add\n        /* \"#utility.yul\":1341:1367   */\n      swap1\n      pop\n        /* \"#utility.yul\":1377:1442   */\n      tag_465\n        /* \"#utility.yul\":1439:1440   */\n      0x00\n        /* \"#utility.yul\":1428:1437   */\n      dup4\n        /* \"#utility.yul\":1424:1441   */\n      add\n        /* \"#utility.yul\":1415:1421   */\n      dup5\n        /* \"#utility.yul\":1377:1442   */\n      tag_390\n      jump\t// in\n    tag_465:\n        /* \"#utility.yul\":1239:1449   */\n      swap3\n      swap2\n      pop\n      pop\n      jump\t// out\n        /* \"#utility.yul\":1455:1554   */\n    tag_391:\n        /* \"#utility.yul\":1507:1513   */\n      0x00\n        /* \"#utility.yul\":1541:1546   */\n      dup2\n        /* \"#utility.yul\":1535:1547   */\n      mload\n        /* \"#utility.yul\":1525:1547   */\n      swap1\n      pop\n        /* \"#utility.yul\":1455:1554   */\n      swap2\n      swap1\n      pop\n      jump\t// out\n        /* \"#utility.yul\":1560:1729   */\n    tag_392:\n        /* \"#utility.yul\":1644:1655   */\n      0x00\n        /* \"#utility.yul\":1678:1684   */\n      dup3\n        /* \"#utility.yul\":1673:1676   */\n      dup3\n        /* \"#utility.yul\":1666:1685   */\n      mstore\n        /* \"#utility.yul\":1718:1722   */\n      0x20\n        /* \"#utility.yul\":1713:1716   */\n      dup3\n        /* \"#utility.yul\":1709:1723   */\n      add\n        /* \"#utility.yul\":1694:1723   */\n      swap1\n      pop\n        /* \"#utility.yul\":1560:1729   */\n      swap3\n      swap2\n      pop\n      pop\n      jump\t// out\n        /* \"#utility.yul\":1735:1981   */\n    tag_393:\n        /* \"#utility.yul\":1816:1817   */\n      0x00\n        /* \"#utility.yul\":1826:1939   */\n    tag_469:\n        /* \"#utility.yul\":1840:1846   */\n      dup4\n        /* \"#utility.yul\":1837:1838   */\n      dup2\n        /* \"#utility.yul\":1834:1847   */\n      lt\n        /* \"#utility.yul\":1826:1939   */\n      iszero\n      tag_471\n      jumpi\n        /* \"#utility.yul\":1925:1926   */\n      dup1\n        /* \"#utility.yul\":1920:1923   */\n      dup3\n        /* \"#utility.yul\":1916:1927   */\n      add\n        /* \"#utility.yul\":1910:1928   */\n      mload\n        /* \"#utility.yul\":1906:1907   */\n      dup2\n        /* \"#utility.yul\":1901:1904   */\n      dup5\n        /* \"#utility.yul\":1897:1908   */\n      add\n        /* \"#utility.yul\":1890:1929   */\n      mstore\n        /* \"#utility.yul\":1862:1864   */\n      0x20\n        /* \"#utility.yul\":1859:1860   */\n      dup2\n        /* \"#utility.yul\":1855:1865   */\n      add\n        /* \"#utility.yul\":1850:1865   */\n      swap1\n      pop\n        /* \"#utility.yul\":1826:1939   */\n      jump(tag_469)\n    tag_471:\n        /* \"#utility.yul\":1973:1974   */\n      0x00\n        /* \"#utility.yul\":1964:1970   */\n      dup5\n        /* \"#utility.yul\":1959:1962   */\n      dup5\n        /* \"#utility.yul\":1955:1971   */\n      add\n        /* \"#utility.yul\":1948:1975   */\n      mstore\n        /* \"#utility.yul\":1797:1981   */\n      pop\n        /* \"#utility.yul\":1735:1981   */\n      pop\n      pop\n      pop\n      jump\t// out\n        /* \"#utility.yul\":1987:2089   */\n    tag_394:\n        /* \"#utility.yul\":2028:2034   */\n      0x00\n        /* \"#utility.yul\":2079:2081   */\n      0x1f\n        /* \"#utility.yul\":2075:2082   */\n      not\n        /* \"#utility.yul\":2070:2072   */\n      0x1f\n        /* \"#utility.yul\":2063:2068   */\n      dup4\n        /* \"#utility.yul\":2059:2073   */\n      add\n        /* \"#utility.yul\":2055:2083   */\n      and\n        /* \"#utility.yul\":2045:2083   */\n      swap1\n      pop\n        /* \"#utility.yul\":1987:2089   */\n      swap2\n      swap1\n      pop\n      jump\t// out\n        /* \"#utility.yul\":2095:2472   */\n    tag_395:\n        /* \"#utility.yul\":2183:2186   */\n      0x00\n        /* \"#utility.yul\":2211:2250   */\n      tag_474\n        /* \"#utility.yul\":2244:2249   */\n      dup3\n        /* \"#utility.yul\":2211:2250   */\n      tag_391\n      jump\t// in\n    tag_474:\n        /* \"#utility.yul\":2266:2337   */\n      tag_475\n        /* \"#utility.yul\":2330:2336   */\n      dup2\n        /* \"#utility.yul\":2325:2328   */\n      dup6\n        /* \"#utility.yul\":2266:2337   */\n      tag_392\n      jump\t// in\n    tag_475:\n        /* \"#utility.yul\":2259:2337   */\n      swap4\n      pop\n        /* \"#utility.yul\":2346:2411   */\n      tag_476\n        /* \"#utility.yul\":2404:2410   */\n      dup2\n        /* \"#utility.yul\":2399:2402   */\n      dup6\n        /* \"#utility.yul\":2392:2396   */\n      0x20\n        /* \"#utility.yul\":2385:2390   */\n      dup7\n        /* \"#utility.yul\":2381:2397   */\n      add\n        /* \"#utility.yul\":2346:2411   */\n      tag_393\n      jump\t// in\n    tag_476:\n        /* \"#utility.yul\":2436:2465   */\n      tag_477\n        /* \"#utility.yul\":2458:2464   */\n      dup2\n        /* \"#utility.yul\":2436:2465   */\n      tag_394\n      jump\t// in\n    tag_477:\n        /* \"#utility.yul\":2431:2434   */\n      dup5\n        /* \"#utility.yul\":2427:2466   */\n      add\n        /* \"#utility.yul\":2420:2466   */\n      swap2\n      pop\n        /* \"#utility.yul\":2187:2472   */\n      pop\n        /* \"#utility.yul\":2095:2472   */\n      swap3\n      swap2\n      pop\n      pop\n      jump\t// out\n        /* \"#utility.yul\":2478:2791   */\n    tag_61:\n        /* \"#utility.yul\":2591:2595   */\n      0x00\n        /* \"#utility.yul\":2629:2631   */\n      0x20\n        /* \"#utility.yul\":2618:2627   */\n      dup3\n        /* \"#utility.yul\":2614:2632   */\n      add\n        /* \"#utility.yul\":2606:2632   */\n      swap1\n      pop\n        /* \"#utility.yul\":2678:2687   */\n      dup2\n        /* \"#utility.yul\":2672:2676   */\n      dup2\n        /* \"#utility.yul\":2668:2688   */\n      sub\n        /* \"#utility.yul\":2664:2665   */\n      0x00\n        /* \"#utility.yul\":2653:2662   */\n      dup4\n        /* \"#utility.yul\":2649:2666   */\n      add\n        /* \"#utility.yul\":2642:2689   */\n      mstore\n        /* \"#utility.yul\":2706:2784   */\n      tag_479\n        /* \"#utility.yul\":2779:2783   */\n      dup2\n        /* \"#utility.yul\":2770:2776   */\n      dup5\n        /* \"#utility.yul\":2706:2784   */\n      tag_395\n      jump\t// in\n    tag_479:\n        /* \"#utility.yul\":2698:2784   */\n      swap1\n      pop\n        /* \"#utility.yul\":2478:2791   */\n      swap3\n      swap2\n      pop\n      pop\n      jump\t// out\n        /* \"#utility.yul\":2878:2995   */\n    tag_397:\n        /* \"#utility.yul\":2987:2988   */\n      0x00\n        /* \"#utility.yul\":2984:2985   */\n      dup1\n        /* \"#utility.yul\":2977:2989   */\n      revert\n        /* \"#utility.yul\":3124:3246   */\n    tag_399:\n        /* \"#utility.yul\":3197:3221   */\n      tag_484\n        /* \"#utility.yul\":3215:3220   */\n      dup2\n        /* \"#utility.yul\":3197:3221   */\n      tag_385\n      jump\t// in\n    tag_484:\n        /* \"#utility.yul\":3190:3195   */\n      dup2\n        /* \"#utility.yul\":3187:3222   */\n      eq\n        /* \"#utility.yul\":3177:3240   */\n      tag_485\n      jumpi\n        /* \"#utility.yul\":3236:3237   */\n      0x00\n        /* \"#utility.yul\":3233:3234   */\n      dup1\n        /* \"#utility.yul\":3226:3238   */\n      revert\n        /* \"#utility.yul\":3177:3240   */\n    tag_485:\n        /* \"#utility.yul\":3124:3246   */\n      pop\n      jump\t// out\n        /* \"#utility.yul\":3252:3391   */\n    tag_400:\n        /* \"#utility.yul\":3298:3303   */\n      0x00\n        /* \"#utility.yul\":3336:3342   */\n      dup2\n        /* \"#utility.yul\":3323:3343   */\n      calldataload\n        /* \"#utility.yul\":3314:3343   */\n      swap1\n      pop\n        /* \"#utility.yul\":3352:3385   */\n      tag_487\n        /* \"#utility.yul\":3379:3384   */\n      dup2\n        /* \"#utility.yul\":3352:3385   */\n      tag_399\n      jump\t// in\n    tag_487:\n        /* \"#utility.yul\":3252:3391   */\n      swap3\n      swap2\n      pop\n      pop\n      jump\t// out\n        /* \"#utility.yul\":3397:3519   */\n    tag_401:\n        /* \"#utility.yul\":3470:3494   */\n      tag_489\n        /* \"#utility.yul\":3488:3493   */\n      dup2\n        /* \"#utility.yul\":3470:3494   */\n      tag_387\n      jump\t// in\n    tag_489:\n        /* \"#utility.yul\":3463:3468   */\n      dup2\n        /* \"#utility.yul\":3460:3495   */\n      eq\n        /* \"#utility.yul\":3450:3513   */\n      tag_490\n      jumpi\n        /* \"#utility.yul\":3509:3510   */\n      0x00\n        /* \"#utility.yul\":3506:3507   */\n      dup1\n        /* \"#utility.yul\":3499:3511   */\n      revert\n        /* \"#utility.yul\":3450:3513   */\n    tag_490:\n        /* \"#utility.yul\":3397:3519   */\n      pop\n      jump\t// out\n        /* \"#utility.yul\":3525:3664   */\n    tag_402:\n        /* \"#utility.yul\":3571:3576   */\n      0x00\n        /* \"#utility.yul\":3609:3615   */\n      dup2\n        /* \"#utility.yul\":3596:3616   */\n      calldataload\n        /* \"#utility.yul\":3587:3616   */\n      swap1\n      pop\n        /* \"#utility.yul\":3625:3658   */\n      tag_492\n        /* \"#utility.yul\":3652:3657   */\n      dup2\n        /* \"#utility.yul\":3625:3658   */\n      tag_401\n      jump\t// in\n    tag_492:\n        /* \"#utility.yul\":3525:3664   */\n      swap3\n      swap2\n      pop\n      pop\n      jump\t// out\n        /* \"#utility.yul\":3670:4144   */\n    tag_65:\n        /* \"#utility.yul\":3738:3744   */\n      0x00\n        /* \"#utility.yul\":3746:3752   */\n      dup1\n        /* \"#utility.yul\":3795:3797   */\n      0x40\n        /* \"#utility.yul\":3783:3792   */\n      dup4\n        /* \"#utility.yul\":3774:3781   */\n      dup6\n        /* \"#utility.yul\":3770:3793   */\n      sub\n        /* \"#utility.yul\":3766:3798   */\n      slt\n        /* \"#utility.yul\":3763:3882   */\n      iszero\n      tag_494\n      jumpi\n        /* \"#utility.yul\":3801:3880   */\n      tag_495\n      tag_397\n      jump\t// in\n    tag_495:\n        /* \"#utility.yul\":3763:3882   */\n    tag_494:\n        /* \"#utility.yul\":3921:3922   */\n      0x00\n        /* \"#utility.yul\":3946:3999   */\n      tag_496\n        /* \"#utility.yul\":3991:3998   */\n      dup6\n        /* \"#utility.yul\":3982:3988   */\n      dup3\n        /* \"#utility.yul\":3971:3980   */\n      dup7\n        /* \"#utility.yul\":3967:3989   */\n      add\n        /* \"#utility.yul\":3946:3999   */\n      tag_400\n      jump\t// in\n    tag_496:\n        /* \"#utility.yul\":3936:3999   */\n      swap3\n      pop\n        /* \"#utility.yul\":3892:4009   */\n      pop\n        /* \"#utility.yul\":4048:4050   */\n      0x20\n        /* \"#utility.yul\":4074:4127   */\n      tag_497\n        /* \"#utility.yul\":4119:4126   */\n      dup6\n        /* \"#utility.yul\":4110:4116   */\n      dup3\n        /* \"#utility.yul\":4099:4108   */\n      dup7\n        /* \"#utility.yul\":4095:4117   */\n      add\n        /* \"#utility.yul\":4074:4127   */\n      tag_402\n      jump\t// in\n    tag_497:\n        /* \"#utility.yul\":4064:4127   */\n      swap2\n      pop\n        /* \"#utility.yul\":4019:4137   */\n      pop\n        /* \"#utility.yul\":3670:4144   */\n      swap3\n      pop\n      swap3\n      swap1\n      pop\n      jump\t// out\n        /* \"#utility.yul\":4150:4266   */\n    tag_403:\n        /* \"#utility.yul\":4220:4241   */\n      tag_499\n        /* \"#utility.yul\":4235:4240   */\n      dup2\n        /* \"#utility.yul\":4220:4241   */\n      tag_389\n      jump\t// in\n    tag_499:\n        /* \"#utility.yul\":4213:4218   */\n      dup2\n        /* \"#utility.yul\":4210:4242   */\n      eq\n        /* \"#utility.yul\":4200:4260   */\n      tag_500\n      jumpi\n        /* \"#utility.yul\":4256:4257   */\n      0x00\n        /* \"#utility.yul\":4253:4254   */\n      dup1\n        /* \"#utility.yul\":4246:4258   */\n      revert\n        /* \"#utility.yul\":4200:4260   */\n    tag_500:\n        /* \"#utility.yul\":4150:4266   */\n      pop\n      jump\t// out\n        /* \"#utility.yul\":4272:4405   */\n    tag_404:\n        /* \"#utility.yul\":4315:4320   */\n      0x00\n        /* \"#utility.yul\":4353:4359   */\n      dup2\n        /* \"#utility.yul\":4340:4360   */\n      calldataload\n        /* \"#utility.yul\":4331:4360   */\n      swap1\n      pop\n        /* \"#utility.yul\":4369:4399   */\n      tag_502\n        /* \"#utility.yul\":4393:4398   */\n      dup2\n        /* \"#utility.yul\":4369:4399   */\n      tag_403\n      jump\t// in\n    tag_502:\n        /* \"#utility.yul\":4272:4405   */\n      swap3\n      swap2\n      pop\n      pop\n      jump\t// out\n        /* \"#utility.yul\":4411:4879   */\n    tag_71:\n        /* \"#utility.yul\":4476:4482   */\n      0x00\n        /* \"#utility.yul\":4484:4490   */\n      dup1\n        /* \"#utility.yul\":4533:4535   */\n      0x40\n        /* \"#utility.yul\":4521:4530   */\n      dup4\n        /* \"#utility.yul\":4512:4519   */\n      dup6\n        /* \"#utility.yul\":4508:4531   */\n      sub\n        /* \"#utility.yul\":4504:4536   */\n      slt\n        /* \"#utility.yul\":4501:4620   */\n      iszero\n      tag_504\n      jumpi\n        /* \"#utility.yul\":4539:4618   */\n      tag_505\n      tag_397\n      jump\t// in\n    tag_505:\n        /* \"#utility.yul\":4501:4620   */\n    tag_504:\n        /* \"#utility.yul\":4659:4660   */\n      0x00\n        /* \"#utility.yul\":4684:4737   */\n      tag_506\n        /* \"#utility.yul\":4729:4736   */\n      dup6\n        /* \"#utility.yul\":4720:4726   */\n      dup3\n        /* \"#utility.yul\":4709:4718   */\n      dup7\n        /* \"#utility.yul\":4705:4727   */\n      add\n        /* \"#utility.yul\":4684:4737   */\n      tag_400\n      jump\t// in\n    tag_506:\n        /* \"#utility.yul\":4674:4737   */\n      swap3\n      pop\n        /* \"#utility.yul\":4630:4747   */\n      pop\n        /* \"#utility.yul\":4786:4788   */\n      0x20\n        /* \"#utility.yul\":4812:4862   */\n      tag_507\n        /* \"#utility.yul\":4854:4861   */\n      dup6\n        /* \"#utility.yul\":4845:4851   */\n      dup3\n        /* \"#utility.yul\":4834:4843   */\n      dup7\n        /* \"#utility.yul\":4830:4852   */\n      add\n        /* \"#utility.yul\":4812:4862   */\n      tag_404\n      jump\t// in\n    tag_507:\n        /* \"#utility.yul\":4802:4862   */\n      swap2\n      pop\n        /* \"#utility.yul\":4757:4872   */\n      pop\n        /* \"#utility.yul\":4411:4879   */\n      swap3\n      pop\n      swap3\n      swap1\n      pop\n      jump\t// out\n        /* \"#utility.yul\":4885:5208   */\n    tag_76:\n        /* \"#utility.yul\":4941:4947   */\n      0x00\n        /* \"#utility.yul\":4990:4992   */\n      0x20\n        /* \"#utility.yul\":4978:4987   */\n      dup3\n        /* \"#utility.yul\":4969:4976   */\n      dup5\n        /* \"#utility.yul\":4965:4988   */\n      sub\n        /* \"#utility.yul\":4961:4993   */\n      slt\n        /* \"#utility.yul\":4958:5077   */\n      iszero\n      tag_509\n      jumpi\n        /* \"#utility.yul\":4996:5075   */\n      tag_510\n      tag_397\n      jump\t// in\n    tag_510:\n        /* \"#utility.yul\":4958:5077   */\n    tag_509:\n        /* \"#utility.yul\":5116:5117   */\n      0x00\n        /* \"#utility.yul\":5141:5191   */\n      tag_511\n        /* \"#utility.yul\":5183:5190   */\n      dup5\n        /* \"#utility.yul\":5174:5180   */\n      dup3\n        /* \"#utility.yul\":5163:5172   */\n      dup6\n        /* \"#utility.yul\":5159:5181   */\n      add\n        /* \"#utility.yul\":5141:5191   */\n      tag_404\n      jump\t// in\n    tag_511:\n        /* \"#utility.yul\":5131:5191   */\n      swap2\n      pop\n        /* \"#utility.yul\":5087:5201   */\n      pop\n        /* \"#utility.yul\":4885:5208   */\n      swap3\n      swap2\n      pop\n      pop\n      jump\t// out\n        /* \"#utility.yul\":5214:5833   */\n    tag_89:\n        /* \"#utility.yul\":5291:5297   */\n      0x00\n        /* \"#utility.yul\":5299:5305   */\n      dup1\n        /* \"#utility.yul\":5307:5313   */\n      0x00\n        /* \"#utility.yul\":5356:5358   */\n      0x60\n        /* \"#utility.yul\":5344:5353   */\n      dup5\n        /* \"#utility.yul\":5335:5342   */\n      dup7\n        /* \"#utility.yul\":5331:5354   */\n      sub\n        /* \"#utility.yul\":5327:5359   */\n      slt\n        /* \"#utility.yul\":5324:5443   */\n      iszero\n      tag_513\n      jumpi\n        /* \"#utility.yul\":5362:5441   */\n      tag_514\n      tag_397\n      jump\t// in\n    tag_514:\n        /* \"#utility.yul\":5324:5443   */\n    tag_513:\n        /* \"#utility.yul\":5482:5483   */\n      0x00\n        /* \"#utility.yul\":5507:5560   */\n      tag_515\n        /* \"#utility.yul\":5552:5559   */\n      dup7\n        /* \"#utility.yul\":5543:5549   */\n      dup3\n        /* \"#utility.yul\":5532:5541   */\n      dup8\n        /* \"#utility.yul\":5528:5550   */\n      add\n        /* \"#utility.yul\":5507:5560   */\n      tag_400\n      jump\t// in\n    tag_515:\n        /* \"#utility.yul\":5497:5560   */\n      swap4\n      pop\n        /* \"#utility.yul\":5453:5570   */\n      pop\n        /* \"#utility.yul\":5609:5611   */\n      0x20\n        /* \"#utility.yul\":5635:5688   */\n      tag_516\n        /* \"#utility.yul\":5680:5687   */\n      dup7\n        /* \"#utility.yul\":5671:5677   */\n      dup3\n        /* \"#utility.yul\":5660:5669   */\n      dup8\n        /* \"#utility.yul\":5656:5678   */\n      add\n        /* \"#utility.yul\":5635:5688   */\n      tag_400\n      jump\t// in\n    tag_516:\n        /* \"#utility.yul\":5625:5688   */\n      swap3\n      pop\n        /* \"#utility.yul\":5580:5698   */\n      pop\n        /* \"#utility.yul\":5737:5739   */\n      0x40\n        /* \"#utility.yul\":5763:5816   */\n      tag_517\n        /* \"#utility.yul\":5808:5815   */\n      dup7\n        /* \"#utility.yul\":5799:5805   */\n      dup3\n        /* \"#utility.yul\":5788:5797   */\n      dup8\n        /* \"#utility.yul\":5784:5806   */\n      add\n        /* \"#utility.yul\":5763:5816   */\n      tag_402\n      jump\t// in\n    tag_517:\n        /* \"#utility.yul\":5753:5816   */\n      swap2\n      pop\n        /* \"#utility.yul\":5708:5826   */\n      pop\n        /* \"#utility.yul\":5214:5833   */\n      swap3\n      pop\n      swap3\n      pop\n      swap3\n      jump\t// out\n        /* \"#utility.yul\":5839:6168   */\n    tag_95:\n        /* \"#utility.yul\":5898:5904   */\n      0x00\n        /* \"#utility.yul\":5947:5949   */\n      0x20\n        /* \"#utility.yul\":5935:5944   */\n      dup3\n        /* \"#utility.yul\":5926:5933   */\n      dup5\n        /* \"#utility.yul\":5922:5945   */\n      sub\n        /* \"#utility.yul\":5918:5950   */\n      slt\n        /* \"#utility.yul\":5915:6034   */\n      iszero\n      tag_519\n      jumpi\n        /* \"#utility.yul\":5953:6032   */\n      tag_520\n      tag_397\n      jump\t// in\n    tag_520:\n        /* \"#utility.yul\":5915:6034   */\n    tag_519:\n        /* \"#utility.yul\":6073:6074   */\n      0x00\n        /* \"#utility.yul\":6098:6151   */\n      tag_521\n        /* \"#utility.yul\":6143:6150   */\n      dup5\n        /* \"#utility.yul\":6134:6140   */\n      dup3\n        /* \"#utility.yul\":6123:6132   */\n      dup6\n        /* \"#utility.yul\":6119:6141   */\n      add\n        /* \"#utility.yul\":6098:6151   */\n      tag_400\n      jump\t// in\n    tag_521:\n        /* \"#utility.yul\":6088:6151   */\n      swap2\n      pop\n        /* \"#utility.yul\":6044:6161   */\n      pop\n        /* \"#utility.yul\":5839:6168   */\n      swap3\n      swap2\n      pop\n      pop\n      jump\t// out\n        /* \"#utility.yul\":6174:6260   */\n    tag_405:\n        /* \"#utility.yul\":6209:6216   */\n      0x00\n        /* \"#utility.yul\":6249:6253   */\n      0xff\n        /* \"#utility.yul\":6242:6247   */\n      dup3\n        /* \"#utility.yul\":6238:6254   */\n      and\n        /* \"#utility.yul\":6227:6254   */\n      swap1\n      pop\n        /* \"#utility.yul\":6174:6260   */\n      swap2\n      swap1\n      pop\n      jump\t// out\n        /* \"#utility.yul\":6266:6378   */\n    tag_406:\n        /* \"#utility.yul\":6349:6371   */\n      tag_524\n        /* \"#utility.yul\":6365:6370   */\n      dup2\n        /* \"#utility.yul\":6349:6371   */\n      tag_405\n      jump\t// in\n    tag_524:\n        /* \"#utility.yul\":6344:6347   */\n      dup3\n        /* \"#utility.yul\":6337:6372   */\n      mstore\n        /* \"#utility.yul\":6266:6378   */\n      pop\n      pop\n      jump\t// out\n        /* \"#utility.yul\":6384:6598   */\n    tag_102:\n        /* \"#utility.yul\":6473:6477   */\n      0x00\n        /* \"#utility.yul\":6511:6513   */\n      0x20\n        /* \"#utility.yul\":6500:6509   */\n      dup3\n        /* \"#utility.yul\":6496:6514   */\n      add\n        /* \"#utility.yul\":6488:6514   */\n      swap1\n      pop\n        /* \"#utility.yul\":6524:6591   */\n      tag_526\n        /* \"#utility.yul\":6588:6589   */\n      0x00\n        /* \"#utility.yul\":6577:6586   */\n      dup4\n        /* \"#utility.yul\":6573:6590   */\n      add\n        /* \"#utility.yul\":6564:6570   */\n      dup5\n        /* \"#utility.yul\":6524:6591   */\n      tag_406\n      jump\t// in\n    tag_526:\n        /* \"#utility.yul\":6384:6598   */\n      swap3\n      swap2\n      pop\n      pop\n      jump\t// out\n        /* \"#utility.yul\":6604:6664   */\n    tag_407:\n        /* \"#utility.yul\":6632:6635   */\n      0x00\n        /* \"#utility.yul\":6653:6658   */\n      dup2\n        /* \"#utility.yul\":6646:6658   */\n      swap1\n      pop\n        /* \"#utility.yul\":6604:6664   */\n      swap2\n      swap1\n      pop\n      jump\t// out\n        /* \"#utility.yul\":6670:6812   */\n    tag_408:\n        /* \"#utility.yul\":6720:6729   */\n      0x00\n        /* \"#utility.yul\":6753:6806   */\n      tag_529\n        /* \"#utility.yul\":6771:6805   */\n      tag_530\n        /* \"#utility.yul\":6780:6804   */\n      tag_531\n        /* \"#utility.yul\":6798:6803   */\n      dup5\n        /* \"#utility.yul\":6780:6804   */\n      tag_384\n      jump\t// in\n    tag_531:\n        /* \"#utility.yul\":6771:6805   */\n      tag_407\n      jump\t// in\n    tag_530:\n        /* \"#utility.yul\":6753:6806   */\n      tag_384\n      jump\t// in\n    tag_529:\n        /* \"#utility.yul\":6740:6806   */\n      swap1\n      pop\n        /* \"#utility.yul\":6670:6812   */\n      swap2\n      swap1\n      pop\n      jump\t// out\n        /* \"#utility.yul\":6818:6944   */\n    tag_409:\n        /* \"#utility.yul\":6868:6877   */\n      0x00\n        /* \"#utility.yul\":6901:6938   */\n      tag_533\n        /* \"#utility.yul\":6932:6937   */\n      dup3\n        /* \"#utility.yul\":6901:6938   */\n      tag_408\n      jump\t// in\n    tag_533:\n        /* \"#utility.yul\":6888:6938   */\n      swap1\n      pop\n        /* \"#utility.yul\":6818:6944   */\n      swap2\n      swap1\n      pop\n      jump\t// out\n        /* \"#utility.yul\":6950:7093   */\n    tag_410:\n        /* \"#utility.yul\":7017:7026   */\n      0x00\n        /* \"#utility.yul\":7050:7087   */\n      tag_535\n        /* \"#utility.yul\":7081:7086   */\n      dup3\n        /* \"#utility.yul\":7050:7087   */\n      tag_409\n      jump\t// in\n    tag_535:\n        /* \"#utility.yul\":7037:7087   */\n      swap1\n      pop\n        /* \"#utility.yul\":6950:7093   */\n      swap2\n      swap1\n      pop\n      jump\t// out\n        /* \"#utility.yul\":7099:7264   */\n    tag_411:\n        /* \"#utility.yul\":7203:7257   */\n      tag_537\n        /* \"#utility.yul\":7251:7256   */\n      dup2\n        /* \"#utility.yul\":7203:7257   */\n      tag_410\n      jump\t// in\n    tag_537:\n        /* \"#utility.yul\":7198:7201   */\n      dup3\n        /* \"#utility.yul\":7191:7258   */\n      mstore\n        /* \"#utility.yul\":7099:7264   */\n      pop\n      pop\n      jump\t// out\n        /* \"#utility.yul\":7270:7526   */\n    tag_151:\n        /* \"#utility.yul\":7380:7384   */\n      0x00\n        /* \"#utility.yul\":7418:7420   */\n      0x20\n        /* \"#utility.yul\":7407:7416   */\n      dup3\n        /* \"#utility.yul\":7403:7421   */\n      add\n        /* \"#utility.yul\":7395:7421   */\n      swap1\n      pop\n        /* \"#utility.yul\":7431:7519   */\n      tag_539\n        /* \"#utility.yul\":7516:7517   */\n      0x00\n        /* \"#utility.yul\":7505:7514   */\n      dup4\n        /* \"#utility.yul\":7501:7518   */\n      add\n        /* \"#utility.yul\":7492:7498   */\n      dup5\n        /* \"#utility.yul\":7431:7519   */\n      tag_411\n      jump\t// in\n    tag_539:\n        /* \"#utility.yul\":7270:7526   */\n      swap3\n      swap2\n      pop\n      pop\n      jump\t// out\n        /* \"#utility.yul\":7532:8006   */\n    tag_167:\n        /* \"#utility.yul\":7600:7606   */\n      0x00\n        /* \"#utility.yul\":7608:7614   */\n      dup1\n        /* \"#utility.yul\":7657:7659   */\n      0x40\n        /* \"#utility.yul\":7645:7654   */\n      dup4\n        /* \"#utility.yul\":7636:7643   */\n      dup6\n        /* \"#utility.yul\":7632:7655   */\n      sub\n        /* \"#utility.yul\":7628:7660   */\n      slt\n        /* \"#utility.yul\":7625:7744   */\n      iszero\n      tag_541\n      jumpi\n        /* \"#utility.yul\":7663:7742   */\n      tag_542\n      tag_397\n      jump\t// in\n    tag_542:\n        /* \"#utility.yul\":7625:7744   */\n    tag_541:\n        /* \"#utility.yul\":7783:7784   */\n      0x00\n        /* \"#utility.yul\":7808:7861   */\n      tag_543\n        /* \"#utility.yul\":7853:7860   */\n      dup6\n        /* \"#utility.yul\":7844:7850   */\n      dup3\n        /* \"#utility.yul\":7833:7842   */\n      dup7\n        /* \"#utility.yul\":7829:7851   */\n      add\n        /* \"#utility.yul\":7808:7861   */\n      tag_400\n      jump\t// in\n    tag_543:\n        /* \"#utility.yul\":7798:7861   */\n      swap3\n      pop\n        /* \"#utility.yul\":7754:7871   */\n      pop\n        /* \"#utility.yul\":7910:7912   */\n      0x20\n        /* \"#utility.yul\":7936:7989   */\n      tag_544\n        /* \"#utility.yul\":7981:7988   */\n      dup6\n        /* \"#utility.yul\":7972:7978   */\n      dup3\n        /* \"#utility.yul\":7961:7970   */\n      dup7\n        /* \"#utility.yul\":7957:7979   */\n      add\n        /* \"#utility.yul\":7936:7989   */\n      tag_400\n      jump\t// in\n    tag_544:\n        /* \"#utility.yul\":7926:7989   */\n      swap2\n      pop\n        /* \"#utility.yul\":7881:7999   */\n      pop\n        /* \"#utility.yul\":7532:8006   */\n      swap3\n      pop\n      swap3\n      swap1\n      pop\n      jump\t// out\n        /* \"#utility.yul\":8012:8192   */\n    tag_412:\n        /* \"#utility.yul\":8060:8137   */\n      0x4e487b7100000000000000000000000000000000000000000000000000000000\n        /* \"#utility.yul\":8057:8058   */\n      0x00\n        /* \"#utility.yul\":8050:8138   */\n      mstore\n        /* \"#utility.yul\":8157:8161   */\n      0x12\n        /* \"#utility.yul\":8154:8155   */\n      0x04\n        /* \"#utility.yul\":8147:8162   */\n      mstore\n        /* \"#utility.yul\":8181:8185   */\n      0x24\n        /* \"#utility.yul\":8178:8179   */\n      0x00\n        /* \"#utility.yul\":8171:8186   */\n      revert\n        /* \"#utility.yul\":8198:8378   */\n    tag_413:\n        /* \"#utility.yul\":8246:8323   */\n      0x4e487b7100000000000000000000000000000000000000000000000000000000\n        /* \"#utility.yul\":8243:8244   */\n      0x00\n        /* \"#utility.yul\":8236:8324   */\n      mstore\n        /* \"#utility.yul\":8343:8347   */\n      0x11\n        /* \"#utility.yul\":8340:8341   */\n      0x04\n        /* \"#utility.yul\":8333:8348   */\n      mstore\n        /* \"#utility.yul\":8367:8371   */\n      0x24\n        /* \"#utility.yul\":8364:8365   */\n      0x00\n        /* \"#utility.yul\":8357:8372   */\n      revert\n        /* \"#utility.yul\":8384:8569   */\n    tag_179:\n        /* \"#utility.yul\":8424:8425   */\n      0x00\n        /* \"#utility.yul\":8441:8461   */\n      tag_548\n        /* \"#utility.yul\":8459:8460   */\n      dup3\n        /* \"#utility.yul\":8441:8461   */\n      tag_387\n      jump\t// in\n    tag_548:\n        /* \"#utility.yul\":8436:8461   */\n      swap2\n      pop\n        /* \"#utility.yul\":8475:8495   */\n      tag_549\n        /* \"#utility.yul\":8493:8494   */\n      dup4\n        /* \"#utility.yul\":8475:8495   */\n      tag_387\n      jump\t// in\n    tag_549:\n        /* \"#utility.yul\":8470:8495   */\n      swap3\n      pop\n        /* \"#utility.yul\":8514:8515   */\n      dup3\n        /* \"#utility.yul\":8504:8539   */\n      tag_550\n      jumpi\n        /* \"#utility.yul\":8519:8537   */\n      tag_551\n      tag_412\n      jump\t// in\n    tag_551:\n        /* \"#utility.yul\":8504:8539   */\n    tag_550:\n        /* \"#utility.yul\":8561:8562   */\n      dup3\n        /* \"#utility.yul\":8558:8559   */\n      dup3\n        /* \"#utility.yul\":8554:8563   */\n      div\n        /* \"#utility.yul\":8549:8563   */\n      swap1\n      pop\n        /* \"#utility.yul\":8384:8569   */\n      swap3\n      swap2\n      pop\n      pop\n      jump\t// out\n        /* \"#utility.yul\":8575:8757   */\n    tag_414:\n        /* \"#utility.yul\":8715:8749   */\n      0x4f776e61626c653a2063616c6c6572206973206e6f7420746865206f776e6572\n        /* \"#utility.yul\":8711:8712   */\n      0x00\n        /* \"#utility.yul\":8703:8709   */\n      dup3\n        /* \"#utility.yul\":8699:8713   */\n      add\n        /* \"#utility.yul\":8692:8750   */\n      mstore\n        /* \"#utility.yul\":8575:8757   */\n      pop\n      jump\t// out\n        /* \"#utility.yul\":8763:9129   */\n    tag_415:\n        /* \"#utility.yul\":8905:8908   */\n      0x00\n        /* \"#utility.yul\":8926:8993   */\n      tag_554\n        /* \"#utility.yul\":8990:8992   */\n      0x20\n        /* \"#utility.yul\":8985:8988   */\n      dup4\n        /* \"#utility.yul\":8926:8993   */\n      tag_392\n      jump\t// in\n    tag_554:\n        /* \"#utility.yul\":8919:8993   */\n      swap2\n      pop\n        /* \"#utility.yul\":9002:9095   */\n      tag_555\n        /* \"#utility.yul\":9091:9094   */\n      dup3\n        /* \"#utility.yul\":9002:9095   */\n      tag_414\n      jump\t// in\n    tag_555:\n        /* \"#utility.yul\":9120:9122   */\n      0x20\n        /* \"#utility.yul\":9115:9118   */\n      dup3\n        /* \"#utility.yul\":9111:9123   */\n      add\n        /* \"#utility.yul\":9104:9123   */\n      swap1\n      pop\n        /* \"#utility.yul\":8763:9129   */\n      swap2\n      swap1\n      pop\n      jump\t// out\n        /* \"#utility.yul\":9135:9554   */\n    tag_190:\n        /* \"#utility.yul\":9301:9305   */\n      0x00\n        /* \"#utility.yul\":9339:9341   */\n      0x20\n        /* \"#utility.yul\":9328:9337   */\n      dup3\n        /* \"#utility.yul\":9324:9342   */\n      add\n        /* \"#utility.yul\":9316:9342   */\n      swap1\n      pop\n        /* \"#utility.yul\":9388:9397   */\n      dup2\n        /* \"#utility.yul\":9382:9386   */\n      dup2\n        /* \"#utility.yul\":9378:9398   */\n      sub\n        /* \"#utility.yul\":9374:9375   */\n      0x00\n        /* \"#utility.yul\":9363:9372   */\n      dup4\n        /* \"#utility.yul\":9359:9376   */\n      add\n        /* \"#utility.yul\":9352:9399   */\n      mstore\n        /* \"#utility.yul\":9416:9547   */\n      tag_557\n        /* \"#utility.yul\":9542:9546   */\n      dup2\n        /* \"#utility.yul\":9416:9547   */\n      tag_415\n      jump\t// in\n    tag_557:\n        /* \"#utility.yul\":9408:9547   */\n      swap1\n      pop\n        /* \"#utility.yul\":9135:9554   */\n      swap2\n      swap1\n      pop\n      jump\t// out\n        /* \"#utility.yul\":9560:9726   */\n    tag_416:\n        /* \"#utility.yul\":9700:9718   */\n      0x426f6f6c206973207468652073616d6500000000000000000000000000000000\n        /* \"#utility.yul\":9696:9697   */\n      0x00\n        /* \"#utility.yul\":9688:9694   */\n      dup3\n        /* \"#utility.yul\":9684:9698   */\n      add\n        /* \"#utility.yul\":9677:9719   */\n      mstore\n        /* \"#utility.yul\":9560:9726   */\n      pop\n      jump\t// out\n        /* \"#utility.yul\":9732:10098   */\n    tag_417:\n        /* \"#utility.yul\":9874:9877   */\n      0x00\n        /* \"#utility.yul\":9895:9962   */\n      tag_560\n        /* \"#utility.yul\":9959:9961   */\n      0x10\n        /* \"#utility.yul\":9954:9957   */\n      dup4\n        /* \"#utility.yul\":9895:9962   */\n      tag_392\n      jump\t// in\n    tag_560:\n        /* \"#utility.yul\":9888:9962   */\n      swap2\n      pop\n        /* \"#utility.yul\":9971:10064   */\n      tag_561\n        /* \"#utility.yul\":10060:10063   */\n      dup3\n        /* \"#utility.yul\":9971:10064   */\n      tag_416\n      jump\t// in\n    tag_561:\n        /* \"#utility.yul\":10089:10091   */\n      0x20\n        /* \"#utility.yul\":10084:10087   */\n      dup3\n        /* \"#utility.yul\":10080:10092   */\n      add\n        /* \"#utility.yul\":10073:10092   */\n      swap1\n      pop\n        /* \"#utility.yul\":9732:10098   */\n      swap2\n      swap1\n      pop\n      jump\t// out\n        /* \"#utility.yul\":10104:10523   */\n    tag_200:\n        /* \"#utility.yul\":10270:10274   */\n      0x00\n        /* \"#utility.yul\":10308:10310   */\n      0x20\n        /* \"#utility.yul\":10297:10306   */\n      dup3\n        /* \"#utility.yul\":10293:10311   */\n      add\n        /* \"#utility.yul\":10285:10311   */\n      swap1\n      pop\n        /* \"#utility.yul\":10357:10366   */\n      dup2\n        /* \"#utility.yul\":10351:10355   */\n      dup2\n        /* \"#utility.yul\":10347:10367   */\n      sub\n        /* \"#utility.yul\":10343:10344   */\n      0x00\n        /* \"#utility.yul\":10332:10341   */\n      dup4\n        /* \"#utility.yul\":10328:10345   */\n      add\n        /* \"#utility.yul\":10321:10368   */\n      mstore\n        /* \"#utility.yul\":10385:10516   */\n      tag_563\n        /* \"#utility.yul\":10511:10515   */\n      dup2\n        /* \"#utility.yul\":10385:10516   */\n      tag_417\n      jump\t// in\n    tag_563:\n        /* \"#utility.yul\":10377:10516   */\n      swap1\n      pop\n        /* \"#utility.yul\":10104:10523   */\n      swap2\n      swap1\n      pop\n      jump\t// out\n        /* \"#utility.yul\":10529:10723   */\n    tag_207:\n        /* \"#utility.yul\":10569:10573   */\n      0x00\n        /* \"#utility.yul\":10589:10609   */\n      tag_565\n        /* \"#utility.yul\":10607:10608   */\n      dup3\n        /* \"#utility.yul\":10589:10609   */\n      tag_387\n      jump\t// in\n    tag_565:\n        /* \"#utility.yul\":10584:10609   */\n      swap2\n      pop\n        /* \"#utility.yul\":10623:10643   */\n      tag_566\n        /* \"#utility.yul\":10641:10642   */\n      dup4\n        /* \"#utility.yul\":10623:10643   */\n      tag_387\n      jump\t// in\n    tag_566:\n        /* \"#utility.yul\":10618:10643   */\n      swap3\n      pop\n        /* \"#utility.yul\":10667:10668   */\n      dup3\n        /* \"#utility.yul\":10664:10665   */\n      dup3\n        /* \"#utility.yul\":10660:10669   */\n      sub\n        /* \"#utility.yul\":10652:10669   */\n      swap1\n      pop\n        /* \"#utility.yul\":10691:10692   */\n      dup2\n        /* \"#utility.yul\":10685:10689   */\n      dup2\n        /* \"#utility.yul\":10682:10693   */\n      gt\n        /* \"#utility.yul\":10679:10716   */\n      iszero\n      tag_567\n      jumpi\n        /* \"#utility.yul\":10696:10714   */\n      tag_568\n      tag_413\n      jump\t// in\n    tag_568:\n        /* \"#utility.yul\":10679:10716   */\n    tag_567:\n        /* \"#utility.yul\":10529:10723   */\n      swap3\n      swap2\n      pop\n      pop\n      jump\t// out\n        /* \"#utility.yul\":10729:10888   */\n    tag_418:\n        /* \"#utility.yul\":10869:10880   */\n      0x53616d6520626f6f6c0000000000000000000000000000000000000000000000\n        /* \"#utility.yul\":10865:10866   */\n      0x00\n        /* \"#utility.yul\":10857:10863   */\n      dup3\n        /* \"#utility.yul\":10853:10867   */\n      add\n        /* \"#utility.yul\":10846:10881   */\n      mstore\n        /* \"#utility.yul\":10729:10888   */\n      pop\n      jump\t// out\n        /* \"#utility.yul\":10894:11259   */\n    tag_419:\n        /* \"#utility.yul\":11036:11039   */\n      0x00\n        /* \"#utility.yul\":11057:11123   */\n      tag_571\n        /* \"#utility.yul\":11121:11122   */\n      0x09\n        /* \"#utility.yul\":11116:11119   */\n      dup4\n        /* \"#utility.yul\":11057:11123   */\n      tag_392\n      jump\t// in\n    tag_571:\n        /* \"#utility.yul\":11050:11123   */\n      swap2\n      pop\n        /* \"#utility.yul\":11132:11225   */\n      tag_572\n        /* \"#utility.yul\":11221:11224   */\n      dup3\n        /* \"#utility.yul\":11132:11225   */\n      tag_418\n      jump\t// in\n    tag_572:\n        /* \"#utility.yul\":11250:11252   */\n      0x20\n        /* \"#utility.yul\":11245:11248   */\n      dup3\n        /* \"#utility.yul\":11241:11253   */\n      add\n        /* \"#utility.yul\":11234:11253   */\n      swap1\n      pop\n        /* \"#utility.yul\":10894:11259   */\n      swap2\n      swap1\n      pop\n      jump\t// out\n        /* \"#utility.yul\":11265:11684   */\n    tag_221:\n        /* \"#utility.yul\":11431:11435   */\n      0x00\n        /* \"#utility.yul\":11469:11471   */\n      0x20\n        /* \"#utility.yul\":11458:11467   */\n      dup3\n        /* \"#utility.yul\":11454:11472   */\n      add\n        /* \"#utility.yul\":11446:11472   */\n      swap1\n      pop\n        /* \"#utility.yul\":11518:11527   */\n      dup2\n        /* \"#utility.yul\":11512:11516   */\n      dup2\n        /* \"#utility.yul\":11508:11528   */\n      sub\n        /* \"#utility.yul\":11504:11505   */\n      0x00\n        /* \"#utility.yul\":11493:11502   */\n      dup4\n        /* \"#utility.yul\":11489:11506   */\n      add\n        /* \"#utility.yul\":11482:11529   */\n      mstore\n        /* \"#utility.yul\":11546:11677   */\n      tag_574\n        /* \"#utility.yul\":11672:11676   */\n      dup2\n        /* \"#utility.yul\":11546:11677   */\n      tag_419\n      jump\t// in\n    tag_574:\n        /* \"#utility.yul\":11538:11677   */\n      swap1\n      pop\n        /* \"#utility.yul\":11265:11684   */\n      swap2\n      swap1\n      pop\n      jump\t// out\n        /* \"#utility.yul\":11690:12010   */\n    tag_223:\n        /* \"#utility.yul\":11805:11809   */\n      0x00\n        /* \"#utility.yul\":11843:11845   */\n      0x40\n        /* \"#utility.yul\":11832:11841   */\n      dup3\n        /* \"#utility.yul\":11828:11846   */\n      add\n        /* \"#utility.yul\":11820:11846   */\n      swap1\n      pop\n        /* \"#utility.yul\":11856:11927   */\n      tag_576\n        /* \"#utility.yul\":11924:11925   */\n      0x00\n        /* \"#utility.yul\":11913:11922   */\n      dup4\n        /* \"#utility.yul\":11909:11926   */\n      add\n        /* \"#utility.yul\":11900:11906   */\n      dup6\n        /* \"#utility.yul\":11856:11927   */\n      tag_386\n      jump\t// in\n    tag_576:\n        /* \"#utility.yul\":11937:12003   */\n      tag_577\n        /* \"#utility.yul\":11999:12001   */\n      0x20\n        /* \"#utility.yul\":11988:11997   */\n      dup4\n        /* \"#utility.yul\":11984:12002   */\n      add\n        /* \"#utility.yul\":11975:11981   */\n      dup5\n        /* \"#utility.yul\":11937:12003   */\n      tag_390\n      jump\t// in\n    tag_577:\n        /* \"#utility.yul\":11690:12010   */\n      swap4\n      swap3\n      pop\n      pop\n      pop\n      jump\t// out\n        /* \"#utility.yul\":12016:12189   */\n    tag_420:\n        /* \"#utility.yul\":12156:12181   */\n      0x54726164696e6720616c726561647920656e61626c6564000000000000000000\n        /* \"#utility.yul\":12152:12153   */\n      0x00\n        /* \"#utility.yul\":12144:12150   */\n      dup3\n        /* \"#utility.yul\":12140:12154   */\n      add\n        /* \"#utility.yul\":12133:12182   */\n      mstore\n        /* \"#utility.yul\":12016:12189   */\n      pop\n      jump\t// out\n        /* \"#utility.yul\":12195:12561   */\n    tag_421:\n        /* \"#utility.yul\":12337:12340   */\n      0x00\n        /* \"#utility.yul\":12358:12425   */\n      tag_580\n        /* \"#utility.yul\":12422:12424   */\n      0x17\n        /* \"#utility.yul\":12417:12420   */\n      dup4\n        /* \"#utility.yul\":12358:12425   */\n      tag_392\n      jump\t// in\n    tag_580:\n        /* \"#utility.yul\":12351:12425   */\n      swap2\n      pop\n        /* \"#utility.yul\":12434:12527   */\n      tag_581\n        /* \"#utility.yul\":12523:12526   */\n      dup3\n        /* \"#utility.yul\":12434:12527   */\n      tag_420\n      jump\t// in\n    tag_581:\n        /* \"#utility.yul\":12552:12554   */\n      0x20\n        /* \"#utility.yul\":12547:12550   */\n      dup3\n        /* \"#utility.yul\":12543:12555   */\n      add\n        /* \"#utility.yul\":12536:12555   */\n      swap1\n      pop\n        /* \"#utility.yul\":12195:12561   */\n      swap2\n      swap1\n      pop\n      jump\t// out\n        /* \"#utility.yul\":12567:12986   */\n    tag_243:\n        /* \"#utility.yul\":12733:12737   */\n      0x00\n        /* \"#utility.yul\":12771:12773   */\n      0x20\n        /* \"#utility.yul\":12760:12769   */\n      dup3\n        /* \"#utility.yul\":12756:12774   */\n      add\n        /* \"#utility.yul\":12748:12774   */\n      swap1\n      pop\n        /* \"#utility.yul\":12820:12829   */\n      dup2\n        /* \"#utility.yul\":12814:12818   */\n      dup2\n        /* \"#utility.yul\":12810:12830   */\n      sub\n        /* \"#utility.yul\":12806:12807   */\n      0x00\n        /* \"#utility.yul\":12795:12804   */\n      dup4\n        /* \"#utility.yul\":12791:12808   */\n      add\n        /* \"#utility.yul\":12784:12831   */\n      mstore\n        /* \"#utility.yul\":12848:12979   */\n      tag_583\n        /* \"#utility.yul\":12974:12978   */\n      dup2\n        /* \"#utility.yul\":12848:12979   */\n      tag_421\n      jump\t// in\n    tag_583:\n        /* \"#utility.yul\":12840:12979   */\n      swap1\n      pop\n        /* \"#utility.yul\":12567:12986   */\n      swap2\n      swap1\n      pop\n      jump\t// out\n        /* \"#utility.yul\":12992:13217   */\n    tag_422:\n        /* \"#utility.yul\":13132:13166   */\n      0x4f776e61626c653a206e6577206f776e657220697320746865207a65726f2061\n        /* \"#utility.yul\":13128:13129   */\n      0x00\n        /* \"#utility.yul\":13120:13126   */\n      dup3\n        /* \"#utility.yul\":13116:13130   */\n      add\n        /* \"#utility.yul\":13109:13167   */\n      mstore\n        /* \"#utility.yul\":13201:13209   */\n      0x6464726573730000000000000000000000000000000000000000000000000000\n        /* \"#utility.yul\":13196:13198   */\n      0x20\n        /* \"#utility.yul\":13188:13194   */\n      dup3\n        /* \"#utility.yul\":13184:13199   */\n      add\n        /* \"#utility.yul\":13177:13210   */\n      mstore\n        /* \"#utility.yul\":12992:13217   */\n      pop\n      jump\t// out\n        /* \"#utility.yul\":13223:13589   */\n    tag_423:\n        /* \"#utility.yul\":13365:13368   */\n      0x00\n        /* \"#utility.yul\":13386:13453   */\n      tag_586\n        /* \"#utility.yul\":13450:13452   */\n      0x26\n        /* \"#utility.yul\":13445:13448   */\n      dup4\n        /* \"#utility.yul\":13386:13453   */\n      tag_392\n      jump\t// in\n    tag_586:\n        /* \"#utility.yul\":13379:13453   */\n      swap2\n      pop\n        /* \"#utility.yul\":13462:13555   */\n      tag_587\n        /* \"#utility.yul\":13551:13554   */\n      dup3\n        /* \"#utility.yul\":13462:13555   */\n      tag_422\n      jump\t// in\n    tag_587:\n        /* \"#utility.yul\":13580:13582   */\n      0x40\n        /* \"#utility.yul\":13575:13578   */\n      dup3\n        /* \"#utility.yul\":13571:13583   */\n      add\n        /* \"#utility.yul\":13564:13583   */\n      swap1\n      pop\n        /* \"#utility.yul\":13223:13589   */\n      swap2\n      swap1\n      pop\n      jump\t// out\n        /* \"#utility.yul\":13595:14014   */\n    tag_271:\n        /* \"#utility.yul\":13761:13765   */\n      0x00\n        /* \"#utility.yul\":13799:13801   */\n      0x20\n        /* \"#utility.yul\":13788:13797   */\n      dup3\n        /* \"#utility.yul\":13784:13802   */\n      add\n        /* \"#utility.yul\":13776:13802   */\n      swap1\n      pop\n        /* \"#utility.yul\":13848:13857   */\n      dup2\n        /* \"#utility.yul\":13842:13846   */\n      dup2\n        /* \"#utility.yul\":13838:13858   */\n      sub\n        /* \"#utility.yul\":13834:13835   */\n      0x00\n        /* \"#utility.yul\":13823:13832   */\n      dup4\n        /* \"#utility.yul\":13819:13836   */\n      add\n        /* \"#utility.yul\":13812:13859   */\n      mstore\n        /* \"#utility.yul\":13876:14007   */\n      tag_589\n        /* \"#utility.yul\":14002:14006   */\n      dup2\n        /* \"#utility.yul\":13876:14007   */\n      tag_423\n      jump\t// in\n    tag_589:\n        /* \"#utility.yul\":13868:14007   */\n      swap1\n      pop\n        /* \"#utility.yul\":13595:14014   */\n      swap2\n      swap1\n      pop\n      jump\t// out\n        /* \"#utility.yul\":14020:14189   */\n    tag_424:\n        /* \"#utility.yul\":14160:14181   */\n      0x45524332303a205a65726f204164647265737300000000000000000000000000\n        /* \"#utility.yul\":14156:14157   */\n      0x00\n        /* \"#utility.yul\":14148:14154   */\n      dup3\n        /* \"#utility.yul\":14144:14158   */\n      add\n        /* \"#utility.yul\":14137:14182   */\n      mstore\n        /* \"#utility.yul\":14020:14189   */\n      pop\n      jump\t// out\n        /* \"#utility.yul\":14195:14561   */\n    tag_425:\n        /* \"#utility.yul\":14337:14340   */\n      0x00\n        /* \"#utility.yul\":14358:14425   */\n      tag_592\n        /* \"#utility.yul\":14422:14424   */\n      0x13\n        /* \"#utility.yul\":14417:14420   */\n      dup4\n        /* \"#utility.yul\":14358:14425   */\n      tag_392\n      jump\t// in\n    tag_592:\n        /* \"#utility.yul\":14351:14425   */\n      swap2\n      pop\n        /* \"#utility.yul\":14434:14527   */\n      tag_593\n        /* \"#utility.yul\":14523:14526   */\n      dup3\n        /* \"#utility.yul\":14434:14527   */\n      tag_424\n      jump\t// in\n    tag_593:\n        /* \"#utility.yul\":14552:14554   */\n      0x20\n        /* \"#utility.yul\":14547:14550   */\n      dup3\n        /* \"#utility.yul\":14543:14555   */\n      add\n        /* \"#utility.yul\":14536:14555   */\n      swap1\n      pop\n        /* \"#utility.yul\":14195:14561   */\n      swap2\n      swap1\n      pop\n      jump\t// out\n        /* \"#utility.yul\":14567:14986   */\n    tag_276:\n        /* \"#utility.yul\":14733:14737   */\n      0x00\n        /* \"#utility.yul\":14771:14773   */\n      0x20\n        /* \"#utility.yul\":14760:14769   */\n      dup3\n        /* \"#utility.yul\":14756:14774   */\n      add\n        /* \"#utility.yul\":14748:14774   */\n      swap1\n      pop\n        /* \"#utility.yul\":14820:14829   */\n      dup2\n        /* \"#utility.yul\":14814:14818   */\n      dup2\n        /* \"#utility.yul\":14810:14830   */\n      sub\n        /* \"#utility.yul\":14806:14807   */\n      0x00\n        /* \"#utility.yul\":14795:14804   */\n      dup4\n        /* \"#utility.yul\":14791:14808   */\n      add\n        /* \"#utility.yul\":14784:14831   */\n      mstore\n        /* \"#utility.yul\":14848:14979   */\n      tag_595\n        /* \"#utility.yul\":14974:14978   */\n      dup2\n        /* \"#utility.yul\":14848:14979   */\n      tag_425\n      jump\t// in\n    tag_595:\n        /* \"#utility.yul\":14840:14979   */\n      swap1\n      pop\n        /* \"#utility.yul\":14567:14986   */\n      swap2\n      swap1\n      pop\n      jump\t// out\n        /* \"#utility.yul\":14992:15214   */\n    tag_426:\n        /* \"#utility.yul\":15132:15166   */\n      0x45524332303a207472616e7366657220746f20746865207a65726f2061646472\n        /* \"#utility.yul\":15128:15129   */\n      0x00\n        /* \"#utility.yul\":15120:15126   */\n      dup3\n        /* \"#utility.yul\":15116:15130   */\n      add\n        /* \"#utility.yul\":15109:15167   */\n      mstore\n        /* \"#utility.yul\":15201:15206   */\n      0x6573730000000000000000000000000000000000000000000000000000000000\n        /* \"#utility.yul\":15196:15198   */\n      0x20\n        /* \"#utility.yul\":15188:15194   */\n      dup3\n        /* \"#utility.yul\":15184:15199   */\n      add\n        /* \"#utility.yul\":15177:15207   */\n      mstore\n        /* \"#utility.yul\":14992:15214   */\n      pop\n      jump\t// out\n        /* \"#utility.yul\":15220:15586   */\n    tag_427:\n        /* \"#utility.yul\":15362:15365   */\n      0x00\n        /* \"#utility.yul\":15383:15450   */\n      tag_598\n        /* \"#utility.yul\":15447:15449   */\n      0x23\n        /* \"#utility.yul\":15442:15445   */\n      dup4\n        /* \"#utility.yul\":15383:15450   */\n      tag_392\n      jump\t// in\n    tag_598:\n        /* \"#utility.yul\":15376:15450   */\n      swap2\n      pop\n        /* \"#utility.yul\":15459:15552   */\n      tag_599\n        /* \"#utility.yul\":15548:15551   */\n      dup3\n        /* \"#utility.yul\":15459:15552   */\n      tag_426\n      jump\t// in\n    tag_599:\n        /* \"#utility.yul\":15577:15579   */\n      0x40\n        /* \"#utility.yul\":15572:15575   */\n      dup3\n        /* \"#utility.yul\":15568:15580   */\n      add\n        /* \"#utility.yul\":15561:15580   */\n      swap1\n      pop\n        /* \"#utility.yul\":15220:15586   */\n      swap2\n      swap1\n      pop\n      jump\t// out\n        /* \"#utility.yul\":15592:16011   */\n    tag_283:\n        /* \"#utility.yul\":15758:15762   */\n      0x00\n        /* \"#utility.yul\":15796:15798   */\n      0x20\n        /* \"#utility.yul\":15785:15794   */\n      dup3\n        /* \"#utility.yul\":15781:15799   */\n      add\n        /* \"#utility.yul\":15773:15799   */\n      swap1\n      pop\n        /* \"#utility.yul\":15845:15854   */\n      dup2\n        /* \"#utility.yul\":15839:15843   */\n      dup2\n        /* \"#utility.yul\":15835:15855   */\n      sub\n        /* \"#utility.yul\":15831:15832   */\n      0x00\n        /* \"#utility.yul\":15820:15829   */\n      dup4\n        /* \"#utility.yul\":15816:15833   */\n      add\n        /* \"#utility.yul\":15809:15856   */\n      mstore\n        /* \"#utility.yul\":15873:16004   */\n      tag_601\n        /* \"#utility.yul\":15999:16003   */\n      dup2\n        /* \"#utility.yul\":15873:16004   */\n      tag_427\n      jump\t// in\n    tag_601:\n        /* \"#utility.yul\":15865:16004   */\n      swap1\n      pop\n        /* \"#utility.yul\":15592:16011   */\n      swap2\n      swap1\n      pop\n      jump\t// out\n        /* \"#utility.yul\":16017:16241   */\n    tag_428:\n        /* \"#utility.yul\":16157:16191   */\n      0x45524332303a207472616e736665722066726f6d20746865207a65726f206164\n        /* \"#utility.yul\":16153:16154   */\n      0x00\n        /* \"#utility.yul\":16145:16151   */\n      dup3\n        /* \"#utility.yul\":16141:16155   */\n      add\n        /* \"#utility.yul\":16134:16192   */\n      mstore\n        /* \"#utility.yul\":16226:16233   */\n      0x6472657373000000000000000000000000000000000000000000000000000000\n        /* \"#utility.yul\":16221:16223   */\n      0x20\n        /* \"#utility.yul\":16213:16219   */\n      dup3\n        /* \"#utility.yul\":16209:16224   */\n      add\n        /* \"#utility.yul\":16202:16234   */\n      mstore\n        /* \"#utility.yul\":16017:16241   */\n      pop\n      jump\t// out\n        /* \"#utility.yul\":16247:16613   */\n    tag_429:\n        /* \"#utility.yul\":16389:16392   */\n      0x00\n        /* \"#utility.yul\":16410:16477   */\n      tag_604\n        /* \"#utility.yul\":16474:16476   */\n      0x25\n        /* \"#utility.yul\":16469:16472   */\n      dup4\n        /* \"#utility.yul\":16410:16477   */\n      tag_392\n      jump\t// in\n    tag_604:\n        /* \"#utility.yul\":16403:16477   */\n      swap2\n      pop\n        /* \"#utility.yul\":16486:16579   */\n      tag_605\n        /* \"#utility.yul\":16575:16578   */\n      dup3\n        /* \"#utility.yul\":16486:16579   */\n      tag_428\n      jump\t// in\n    tag_605:\n        /* \"#utility.yul\":16604:16606   */\n      0x40\n        /* \"#utility.yul\":16599:16602   */\n      dup3\n        /* \"#utility.yul\":16595:16607   */\n      add\n        /* \"#utility.yul\":16588:16607   */\n      swap1\n      pop\n        /* \"#utility.yul\":16247:16613   */\n      swap2\n      swap1\n      pop\n      jump\t// out\n        /* \"#utility.yul\":16619:17038   */\n    tag_286:\n        /* \"#utility.yul\":16785:16789   */\n      0x00\n        /* \"#utility.yul\":16823:16825   */\n      0x20\n        /* \"#utility.yul\":16812:16821   */\n      dup3\n        /* \"#utility.yul\":16808:16826   */\n      add\n        /* \"#utility.yul\":16800:16826   */\n      swap1\n      pop\n        /* \"#utility.yul\":16872:16881   */\n      dup2\n        /* \"#utility.yul\":16866:16870   */\n      dup2\n        /* \"#utility.yul\":16862:16882   */\n      sub\n        /* \"#utility.yul\":16858:16859   */\n      0x00\n        /* \"#utility.yul\":16847:16856   */\n      dup4\n        /* \"#utility.yul\":16843:16860   */\n      add\n        /* \"#utility.yul\":16836:16883   */\n      mstore\n        /* \"#utility.yul\":16900:17031   */\n      tag_607\n        /* \"#utility.yul\":17026:17030   */\n      dup2\n        /* \"#utility.yul\":16900:17031   */\n      tag_429\n      jump\t// in\n    tag_607:\n        /* \"#utility.yul\":16892:17031   */\n      swap1\n      pop\n        /* \"#utility.yul\":16619:17038   */\n      swap2\n      swap1\n      pop\n      jump\t// out\n        /* \"#utility.yul\":17044:17272   */\n    tag_430:\n        /* \"#utility.yul\":17184:17218   */\n      0x5472616e7366657220616d6f756e74206d757374206265206772656174657220\n        /* \"#utility.yul\":17180:17181   */\n      0x00\n        /* \"#utility.yul\":17172:17178   */\n      dup3\n        /* \"#utility.yul\":17168:17182   */\n      add\n        /* \"#utility.yul\":17161:17219   */\n      mstore\n        /* \"#utility.yul\":17253:17264   */\n      0x7468616e207a65726f0000000000000000000000000000000000000000000000\n        /* \"#utility.yul\":17248:17250   */\n      0x20\n        /* \"#utility.yul\":17240:17246   */\n      dup3\n        /* \"#utility.yul\":17236:17251   */\n      add\n        /* \"#utility.yul\":17229:17265   */\n      mstore\n        /* \"#utility.yul\":17044:17272   */\n      pop\n      jump\t// out\n        /* \"#utility.yul\":17278:17644   */\n    tag_431:\n        /* \"#utility.yul\":17420:17423   */\n      0x00\n        /* \"#utility.yul\":17441:17508   */\n      tag_610\n        /* \"#utility.yul\":17505:17507   */\n      0x29\n        /* \"#utility.yul\":17500:17503   */\n      dup4\n        /* \"#utility.yul\":17441:17508   */\n      tag_392\n      jump\t// in\n    tag_610:\n        /* \"#utility.yul\":17434:17508   */\n      swap2\n      pop\n        /* \"#utility.yul\":17517:17610   */\n      tag_611\n        /* \"#utility.yul\":17606:17609   */\n      dup3\n        /* \"#utility.yul\":17517:17610   */\n      tag_430\n      jump\t// in\n    tag_611:\n        /* \"#utility.yul\":17635:17637   */\n      0x40\n        /* \"#utility.yul\":17630:17633   */\n      dup3\n        /* \"#utility.yul\":17626:17638   */\n      add\n        /* \"#utility.yul\":17619:17638   */\n      swap1\n      pop\n        /* \"#utility.yul\":17278:17644   */\n      swap2\n      swap1\n      pop\n      jump\t// out\n        /* \"#utility.yul\":17650:18069   */\n    tag_289:\n        /* \"#utility.yul\":17816:17820   */\n      0x00\n        /* \"#utility.yul\":17854:17856   */\n      0x20\n        /* \"#utility.yul\":17843:17852   */\n      dup3\n        /* \"#utility.yul\":17839:17857   */\n      add\n        /* \"#utility.yul\":17831:17857   */\n      swap1\n      pop\n        /* \"#utility.yul\":17903:17912   */\n      dup2\n        /* \"#utility.yul\":17897:17901   */\n      dup2\n        /* \"#utility.yul\":17893:17913   */\n      sub\n        /* \"#utility.yul\":17889:17890   */\n      0x00\n        /* \"#utility.yul\":17878:17887   */\n      dup4\n        /* \"#utility.yul\":17874:17891   */\n      add\n        /* \"#utility.yul\":17867:17914   */\n      mstore\n        /* \"#utility.yul\":17931:18062   */\n      tag_613\n        /* \"#utility.yul\":18057:18061   */\n      dup2\n        /* \"#utility.yul\":17931:18062   */\n      tag_431\n      jump\t// in\n    tag_613:\n        /* \"#utility.yul\":17923:18062   */\n      swap1\n      pop\n        /* \"#utility.yul\":17650:18069   */\n      swap2\n      swap1\n      pop\n      jump\t// out\n        /* \"#utility.yul\":18075:18247   */\n    tag_432:\n        /* \"#utility.yul\":18215:18239   */\n      0x54726164696e67206973206e6f7420656e61626c656400000000000000000000\n        /* \"#utility.yul\":18211:18212   */\n      0x00\n        /* \"#utility.yul\":18203:18209   */\n      dup3\n        /* \"#utility.yul\":18199:18213   */\n      add\n        /* \"#utility.yul\":18192:18240   */\n      mstore\n        /* \"#utility.yul\":18075:18247   */\n      pop\n      jump\t// out\n        /* \"#utility.yul\":18253:18619   */\n    tag_433:\n        /* \"#utility.yul\":18395:18398   */\n      0x00\n        /* \"#utility.yul\":18416:18483   */\n      tag_616\n        /* \"#utility.yul\":18480:18482   */\n      0x16\n        /* \"#utility.yul\":18475:18478   */\n      dup4\n        /* \"#utility.yul\":18416:18483   */\n      tag_392\n      jump\t// in\n    tag_616:\n        /* \"#utility.yul\":18409:18483   */\n      swap2\n      pop\n        /* \"#utility.yul\":18492:18585   */\n      tag_617\n        /* \"#utility.yul\":18581:18584   */\n      dup3\n        /* \"#utility.yul\":18492:18585   */\n      tag_432\n      jump\t// in\n    tag_617:\n        /* \"#utility.yul\":18610:18612   */\n      0x20\n        /* \"#utility.yul\":18605:18608   */\n      dup3\n        /* \"#utility.yul\":18601:18613   */\n      add\n        /* \"#utility.yul\":18594:18613   */\n      swap1\n      pop\n        /* \"#utility.yul\":18253:18619   */\n      swap2\n      swap1\n      pop\n      jump\t// out\n        /* \"#utility.yul\":18625:19044   */\n    tag_295:\n        /* \"#utility.yul\":18791:18795   */\n      0x00\n        /* \"#utility.yul\":18829:18831   */\n      0x20\n        /* \"#utility.yul\":18818:18827   */\n      dup3\n        /* \"#utility.yul\":18814:18832   */\n      add\n        /* \"#utility.yul\":18806:18832   */\n      swap1\n      pop\n        /* \"#utility.yul\":18878:18887   */\n      dup2\n        /* \"#utility.yul\":18872:18876   */\n      dup2\n        /* \"#utility.yul\":18868:18888   */\n      sub\n        /* \"#utility.yul\":18864:18865   */\n      0x00\n        /* \"#utility.yul\":18853:18862   */\n      dup4\n        /* \"#utility.yul\":18849:18866   */\n      add\n        /* \"#utility.yul\":18842:18889   */\n      mstore\n        /* \"#utility.yul\":18906:19037   */\n      tag_619\n        /* \"#utility.yul\":19032:19036   */\n      dup2\n        /* \"#utility.yul\":18906:19037   */\n      tag_433\n      jump\t// in\n    tag_619:\n        /* \"#utility.yul\":18898:19037   */\n      swap1\n      pop\n        /* \"#utility.yul\":18625:19044   */\n      swap2\n      swap1\n      pop\n      jump\t// out\n        /* \"#utility.yul\":19050:19241   */\n    tag_319:\n        /* \"#utility.yul\":19090:19093   */\n      0x00\n        /* \"#utility.yul\":19109:19129   */\n      tag_621\n        /* \"#utility.yul\":19127:19128   */\n      dup3\n        /* \"#utility.yul\":19109:19129   */\n      tag_387\n      jump\t// in\n    tag_621:\n        /* \"#utility.yul\":19104:19129   */\n      swap2\n      pop\n        /* \"#utility.yul\":19143:19163   */\n      tag_622\n        /* \"#utility.yul\":19161:19162   */\n      dup4\n        /* \"#utility.yul\":19143:19163   */\n      tag_387\n      jump\t// in\n    tag_622:\n        /* \"#utility.yul\":19138:19163   */\n      swap3\n      pop\n        /* \"#utility.yul\":19186:19187   */\n      dup3\n        /* \"#utility.yul\":19183:19184   */\n      dup3\n        /* \"#utility.yul\":19179:19188   */\n      add\n        /* \"#utility.yul\":19172:19188   */\n      swap1\n      pop\n        /* \"#utility.yul\":19207:19210   */\n      dup1\n        /* \"#utility.yul\":19204:19205   */\n      dup3\n        /* \"#utility.yul\":19201:19211   */\n      gt\n        /* \"#utility.yul\":19198:19234   */\n      iszero\n      tag_623\n      jumpi\n        /* \"#utility.yul\":19214:19232   */\n      tag_624\n      tag_413\n      jump\t// in\n    tag_624:\n        /* \"#utility.yul\":19198:19234   */\n    tag_623:\n        /* \"#utility.yul\":19050:19241   */\n      swap3\n      swap2\n      pop\n      pop\n      jump\t// out\n        /* \"#utility.yul\":19247:19427   */\n    tag_342:\n        /* \"#utility.yul\":19295:19372   */\n      0x4e487b7100000000000000000000000000000000000000000000000000000000\n        /* \"#utility.yul\":19292:19293   */\n      0x00\n        /* \"#utility.yul\":19285:19373   */\n      mstore\n        /* \"#utility.yul\":19392:19396   */\n      0x41\n        /* \"#utility.yul\":19389:19390   */\n      0x04\n        /* \"#utility.yul\":19382:19397   */\n      mstore\n        /* \"#utility.yul\":19416:19420   */\n      0x24\n        /* \"#utility.yul\":19413:19414   */\n      0x00\n        /* \"#utility.yul\":19406:19421   */\n      revert\n        /* \"#utility.yul\":19433:19613   */\n    tag_346:\n        /* \"#utility.yul\":19481:19558   */\n      0x4e487b7100000000000000000000000000000000000000000000000000000000\n        /* \"#utility.yul\":19478:19479   */\n      0x00\n        /* \"#utility.yul\":19471:19559   */\n      mstore\n        /* \"#utility.yul\":19578:19582   */\n      0x32\n        /* \"#utility.yul\":19575:19576   */\n      0x04\n        /* \"#utility.yul\":19568:19583   */\n      mstore\n        /* \"#utility.yul\":19602:19606   */\n      0x24\n        /* \"#utility.yul\":19599:19600   */\n      0x00\n        /* \"#utility.yul\":19592:19607   */\n      revert\n        /* \"#utility.yul\":19619:19762   */\n    tag_434:\n        /* \"#utility.yul\":19676:19681   */\n      0x00\n        /* \"#utility.yul\":19707:19713   */\n      dup2\n        /* \"#utility.yul\":19701:19714   */\n      mload\n        /* \"#utility.yul\":19692:19714   */\n      swap1\n      pop\n        /* \"#utility.yul\":19723:19756   */\n      tag_628\n        /* \"#utility.yul\":19750:19755   */\n      dup2\n        /* \"#utility.yul\":19723:19756   */\n      tag_399\n      jump\t// in\n    tag_628:\n        /* \"#utility.yul\":19619:19762   */\n      swap3\n      swap2\n      pop\n      pop\n      jump\t// out\n        /* \"#utility.yul\":19768:20119   */\n    tag_350:\n        /* \"#utility.yul\":19838:19844   */\n      0x00\n        /* \"#utility.yul\":19887:19889   */\n      0x20\n        /* \"#utility.yul\":19875:19884   */\n      dup3\n        /* \"#utility.yul\":19866:19873   */\n      dup5\n        /* \"#utility.yul\":19862:19885   */\n      sub\n        /* \"#utility.yul\":19858:19890   */\n      slt\n        /* \"#utility.yul\":19855:19974   */\n      iszero\n      tag_630\n      jumpi\n        /* \"#utility.yul\":19893:19972   */\n      tag_631\n      tag_397\n      jump\t// in\n    tag_631:\n        /* \"#utility.yul\":19855:19974   */\n    tag_630:\n        /* \"#utility.yul\":20013:20014   */\n      0x00\n        /* \"#utility.yul\":20038:20102   */\n      tag_632\n        /* \"#utility.yul\":20094:20101   */\n      dup5\n        /* \"#utility.yul\":20085:20091   */\n      dup3\n        /* \"#utility.yul\":20074:20083   */\n      dup6\n        /* \"#utility.yul\":20070:20092   */\n      add\n        /* \"#utility.yul\":20038:20102   */\n      tag_434\n      jump\t// in\n    tag_632:\n        /* \"#utility.yul\":20028:20102   */\n      swap2\n      pop\n        /* \"#utility.yul\":19984:20112   */\n      pop\n        /* \"#utility.yul\":19768:20119   */\n      swap3\n      swap2\n      pop\n      pop\n      jump\t// out\n        /* \"#utility.yul\":20125:20210   */\n    tag_435:\n        /* \"#utility.yul\":20170:20177   */\n      0x00\n        /* \"#utility.yul\":20199:20204   */\n      dup2\n        /* \"#utility.yul\":20188:20204   */\n      swap1\n      pop\n        /* \"#utility.yul\":20125:20210   */\n      swap2\n      swap1\n      pop\n      jump\t// out\n        /* \"#utility.yul\":20216:20374   */\n    tag_436:\n        /* \"#utility.yul\":20274:20283   */\n      0x00\n        /* \"#utility.yul\":20307:20368   */\n      tag_635\n        /* \"#utility.yul\":20325:20367   */\n      tag_636\n        /* \"#utility.yul\":20334:20366   */\n      tag_637\n        /* \"#utility.yul\":20360:20365   */\n      dup5\n        /* \"#utility.yul\":20334:20366   */\n      tag_435\n      jump\t// in\n    tag_637:\n        /* \"#utility.yul\":20325:20367   */\n      tag_407\n      jump\t// in\n    tag_636:\n        /* \"#utility.yul\":20307:20368   */\n      tag_387\n      jump\t// in\n    tag_635:\n        /* \"#utility.yul\":20294:20368   */\n      swap1\n      pop\n        /* \"#utility.yul\":20216:20374   */\n      swap2\n      swap1\n      pop\n      jump\t// out\n        /* \"#utility.yul\":20380:20527   */\n    tag_437:\n        /* \"#utility.yul\":20475:20520   */\n      tag_639\n        /* \"#utility.yul\":20514:20519   */\n      dup2\n        /* \"#utility.yul\":20475:20520   */\n      tag_436\n      jump\t// in\n    tag_639:\n        /* \"#utility.yul\":20470:20473   */\n      dup3\n        /* \"#utility.yul\":20463:20521   */\n      mstore\n        /* \"#utility.yul\":20380:20527   */\n      pop\n      pop\n      jump\t// out\n        /* \"#utility.yul\":20533:20647   */\n    tag_438:\n        /* \"#utility.yul\":20600:20606   */\n      0x00\n        /* \"#utility.yul\":20634:20639   */\n      dup2\n        /* \"#utility.yul\":20628:20640   */\n      mload\n        /* \"#utility.yul\":20618:20640   */\n      swap1\n      pop\n        /* \"#utility.yul\":20533:20647   */\n      swap2\n      swap1\n      pop\n      jump\t// out\n        /* \"#utility.yul\":20653:20837   */\n    tag_439:\n        /* \"#utility.yul\":20752:20763   */\n      0x00\n        /* \"#utility.yul\":20786:20792   */\n      dup3\n        /* \"#utility.yul\":20781:20784   */\n      dup3\n        /* \"#utility.yul\":20774:20793   */\n      mstore\n        /* \"#utility.yul\":20826:20830   */\n      0x20\n        /* \"#utility.yul\":20821:20824   */\n      dup3\n        /* \"#utility.yul\":20817:20831   */\n      add\n        /* \"#utility.yul\":20802:20831   */\n      swap1\n      pop\n        /* \"#utility.yul\":20653:20837   */\n      swap3\n      swap2\n      pop\n      pop\n      jump\t// out\n        /* \"#utility.yul\":20843:20975   */\n    tag_440:\n        /* \"#utility.yul\":20910:20914   */\n      0x00\n        /* \"#utility.yul\":20933:20936   */\n      dup2\n        /* \"#utility.yul\":20925:20936   */\n      swap1\n      pop\n        /* \"#utility.yul\":20963:20967   */\n      0x20\n        /* \"#utility.yul\":20958:20961   */\n      dup3\n        /* \"#utility.yul\":20954:20968   */\n      add\n        /* \"#utility.yul\":20946:20968   */\n      swap1\n      pop\n        /* \"#utility.yul\":20843:20975   */\n      swap2\n      swap1\n      pop\n      jump\t// out\n        /* \"#utility.yul\":20981:21089   */\n    tag_441:\n        /* \"#utility.yul\":21058:21082   */\n      tag_644\n        /* \"#utility.yul\":21076:21081   */\n      dup2\n        /* \"#utility.yul\":21058:21082   */\n      tag_385\n      jump\t// in\n    tag_644:\n        /* \"#utility.yul\":21053:21056   */\n      dup3\n        /* \"#utility.yul\":21046:21083   */\n      mstore\n        /* \"#utility.yul\":20981:21089   */\n      pop\n      pop\n      jump\t// out\n        /* \"#utility.yul\":21095:21274   */\n    tag_442:\n        /* \"#utility.yul\":21164:21174   */\n      0x00\n        /* \"#utility.yul\":21185:21231   */\n      tag_646\n        /* \"#utility.yul\":21227:21230   */\n      dup4\n        /* \"#utility.yul\":21219:21225   */\n      dup4\n        /* \"#utility.yul\":21185:21231   */\n      tag_441\n      jump\t// in\n    tag_646:\n        /* \"#utility.yul\":21263:21267   */\n      0x20\n        /* \"#utility.yul\":21258:21261   */\n      dup4\n        /* \"#utility.yul\":21254:21268   */\n      add\n        /* \"#utility.yul\":21240:21268   */\n      swap1\n      pop\n        /* \"#utility.yul\":21095:21274   */\n      swap3\n      swap2\n      pop\n      pop\n      jump\t// out\n        /* \"#utility.yul\":21280:21393   */\n    tag_443:\n        /* \"#utility.yul\":21350:21354   */\n      0x00\n        /* \"#utility.yul\":21382:21386   */\n      0x20\n        /* \"#utility.yul\":21377:21380   */\n      dup3\n        /* \"#utility.yul\":21373:21387   */\n      add\n        /* \"#utility.yul\":21365:21387   */\n      swap1\n      pop\n        /* \"#utility.yul\":21280:21393   */\n      swap2\n      swap1\n      pop\n      jump\t// out\n        /* \"#utility.yul\":21429:22161   */\n    tag_444:\n        /* \"#utility.yul\":21548:21551   */\n      0x00\n        /* \"#utility.yul\":21577:21631   */\n      tag_649\n        /* \"#utility.yul\":21625:21630   */\n      dup3\n        /* \"#utility.yul\":21577:21631   */\n      tag_438\n      jump\t// in\n    tag_649:\n        /* \"#utility.yul\":21647:21733   */\n      tag_650\n        /* \"#utility.yul\":21726:21732   */\n      dup2\n        /* \"#utility.yul\":21721:21724   */\n      dup6\n        /* \"#utility.yul\":21647:21733   */\n      tag_439\n      jump\t// in\n    tag_650:\n        /* \"#utility.yul\":21640:21733   */\n      swap4\n      pop\n        /* \"#utility.yul\":21757:21813   */\n      tag_651\n        /* \"#utility.yul\":21807:21812   */\n      dup4\n        /* \"#utility.yul\":21757:21813   */\n      tag_440\n      jump\t// in\n    tag_651:\n        /* \"#utility.yul\":21836:21843   */\n      dup1\n        /* \"#utility.yul\":21867:21868   */\n      0x00\n        /* \"#utility.yul\":21852:22136   */\n    tag_652:\n        /* \"#utility.yul\":21877:21883   */\n      dup4\n        /* \"#utility.yul\":21874:21875   */\n      dup2\n        /* \"#utility.yul\":21871:21884   */\n      lt\n        /* \"#utility.yul\":21852:22136   */\n      iszero\n      tag_654\n      jumpi\n        /* \"#utility.yul\":21953:21959   */\n      dup2\n        /* \"#utility.yul\":21947:21960   */\n      mload\n        /* \"#utility.yul\":21980:22043   */\n      tag_655\n        /* \"#utility.yul\":22039:22042   */\n      dup9\n        /* \"#utility.yul\":22024:22037   */\n      dup3\n        /* \"#utility.yul\":21980:22043   */\n      tag_442\n      jump\t// in\n    tag_655:\n        /* \"#utility.yul\":21973:22043   */\n      swap8\n      pop\n        /* \"#utility.yul\":22066:22126   */\n      tag_656\n        /* \"#utility.yul\":22119:22125   */\n      dup4\n        /* \"#utility.yul\":22066:22126   */\n      tag_443\n      jump\t// in\n    tag_656:\n        /* \"#utility.yul\":22056:22126   */\n      swap3\n      pop\n        /* \"#utility.yul\":21912:22136   */\n      pop\n        /* \"#utility.yul\":21899:21900   */\n      0x01\n        /* \"#utility.yul\":21896:21897   */\n      dup2\n        /* \"#utility.yul\":21892:21901   */\n      add\n        /* \"#utility.yul\":21887:21901   */\n      swap1\n      pop\n        /* \"#utility.yul\":21852:22136   */\n      jump(tag_652)\n    tag_654:\n        /* \"#utility.yul\":21856:21870   */\n      pop\n        /* \"#utility.yul\":22152:22155   */\n      dup6\n        /* \"#utility.yul\":22145:22155   */\n      swap4\n      pop\n        /* \"#utility.yul\":21553:22161   */\n      pop\n      pop\n      pop\n        /* \"#utility.yul\":21429:22161   */\n      swap3\n      swap2\n      pop\n      pop\n      jump\t// out\n        /* \"#utility.yul\":22167:22998   */\n    tag_355:\n        /* \"#utility.yul\":22430:22434   */\n      0x00\n        /* \"#utility.yul\":22468:22471   */\n      0xa0\n        /* \"#utility.yul\":22457:22466   */\n      dup3\n        /* \"#utility.yul\":22453:22472   */\n      add\n        /* \"#utility.yul\":22445:22472   */\n      swap1\n      pop\n        /* \"#utility.yul\":22482:22553   */\n      tag_658\n        /* \"#utility.yul\":22550:22551   */\n      0x00\n        /* \"#utility.yul\":22539:22548   */\n      dup4\n        /* \"#utility.yul\":22535:22552   */\n      add\n        /* \"#utility.yul\":22526:22532   */\n      dup9\n        /* \"#utility.yul\":22482:22553   */\n      tag_388\n      jump\t// in\n    tag_658:\n        /* \"#utility.yul\":22563:22643   */\n      tag_659\n        /* \"#utility.yul\":22639:22641   */\n      0x20\n        /* \"#utility.yul\":22628:22637   */\n      dup4\n        /* \"#utility.yul\":22624:22642   */\n      add\n        /* \"#utility.yul\":22615:22621   */\n      dup8\n        /* \"#utility.yul\":22563:22643   */\n      tag_437\n      jump\t// in\n    tag_659:\n        /* \"#utility.yul\":22690:22699   */\n      dup2\n        /* \"#utility.yul\":22684:22688   */\n      dup2\n        /* \"#utility.yul\":22680:22700   */\n      sub\n        /* \"#utility.yul\":22675:22677   */\n      0x40\n        /* \"#utility.yul\":22664:22673   */\n      dup4\n        /* \"#utility.yul\":22660:22678   */\n      add\n        /* \"#utility.yul\":22653:22701   */\n      mstore\n        /* \"#utility.yul\":22718:22826   */\n      tag_660\n        /* \"#utility.yul\":22821:22825   */\n      dup2\n        /* \"#utility.yul\":22812:22818   */\n      dup7\n        /* \"#utility.yul\":22718:22826   */\n      tag_444\n      jump\t// in\n    tag_660:\n        /* \"#utility.yul\":22710:22826   */\n      swap1\n      pop\n        /* \"#utility.yul\":22836:22908   */\n      tag_661\n        /* \"#utility.yul\":22904:22906   */\n      0x60\n        /* \"#utility.yul\":22893:22902   */\n      dup4\n        /* \"#utility.yul\":22889:22907   */\n      add\n        /* \"#utility.yul\":22880:22886   */\n      dup6\n        /* \"#utility.yul\":22836:22908   */\n      tag_386\n      jump\t// in\n    tag_661:\n        /* \"#utility.yul\":22918:22991   */\n      tag_662\n        /* \"#utility.yul\":22986:22989   */\n      0x80\n        /* \"#utility.yul\":22975:22984   */\n      dup4\n        /* \"#utility.yul\":22971:22990   */\n      add\n        /* \"#utility.yul\":22962:22968   */\n      dup5\n        /* \"#utility.yul\":22918:22991   */\n      tag_388\n      jump\t// in\n    tag_662:\n        /* \"#utility.yul\":22167:22998   */\n      swap7\n      swap6\n      pop\n      pop\n      pop\n      pop\n      pop\n      pop\n      jump\t// out\n        /* \"#utility.yul\":23004:23151   */\n    tag_445:\n        /* \"#utility.yul\":23105:23116   */\n      0x00\n        /* \"#utility.yul\":23142:23145   */\n      dup2\n        /* \"#utility.yul\":23127:23145   */\n      swap1\n      pop\n        /* \"#utility.yul\":23004:23151   */\n      swap3\n      swap2\n      pop\n      pop\n      jump\t// out\n        /* \"#utility.yul\":23157:23271   */\n    tag_446:\n      pop\n      jump\t// out\n        /* \"#utility.yul\":23277:23675   */\n    tag_447:\n        /* \"#utility.yul\":23436:23439   */\n      0x00\n        /* \"#utility.yul\":23457:23540   */\n      tag_666\n        /* \"#utility.yul\":23538:23539   */\n      0x00\n        /* \"#utility.yul\":23533:23536   */\n      dup4\n        /* \"#utility.yul\":23457:23540   */\n      tag_445\n      jump\t// in\n    tag_666:\n        /* \"#utility.yul\":23450:23540   */\n      swap2\n      pop\n        /* \"#utility.yul\":23549:23642   */\n      tag_667\n        /* \"#utility.yul\":23638:23641   */\n      dup3\n        /* \"#utility.yul\":23549:23642   */\n      tag_446\n      jump\t// in\n    tag_667:\n        /* \"#utility.yul\":23667:23668   */\n      0x00\n        /* \"#utility.yul\":23662:23665   */\n      dup3\n        /* \"#utility.yul\":23658:23669   */\n      add\n        /* \"#utility.yul\":23651:23669   */\n      swap1\n      pop\n        /* \"#utility.yul\":23277:23675   */\n      swap2\n      swap1\n      pop\n      jump\t// out\n        /* \"#utility.yul\":23681:24060   */\n    tag_365:\n        /* \"#utility.yul\":23865:23868   */\n      0x00\n        /* \"#utility.yul\":23887:24034   */\n      tag_669\n        /* \"#utility.yul\":24030:24033   */\n      dup3\n        /* \"#utility.yul\":23887:24034   */\n      tag_447\n      jump\t// in\n    tag_669:\n        /* \"#utility.yul\":23880:24034   */\n      swap2\n      pop\n        /* \"#utility.yul\":24051:24054   */\n      dup2\n        /* \"#utility.yul\":24044:24054   */\n      swap1\n      pop\n        /* \"#utility.yul\":23681:24060   */\n      swap2\n      swap1\n      pop\n      jump\t// out\n        /* \"#utility.yul\":24066:24476   */\n    tag_378:\n        /* \"#utility.yul\":24106:24113   */\n      0x00\n        /* \"#utility.yul\":24129:24149   */\n      tag_671\n        /* \"#utility.yul\":24147:24148   */\n      dup3\n        /* \"#utility.yul\":24129:24149   */\n      tag_387\n      jump\t// in\n    tag_671:\n        /* \"#utility.yul\":24124:24149   */\n      swap2\n      pop\n        /* \"#utility.yul\":24163:24183   */\n      tag_672\n        /* \"#utility.yul\":24181:24182   */\n      dup4\n        /* \"#utility.yul\":24163:24183   */\n      tag_387\n      jump\t// in\n    tag_672:\n        /* \"#utility.yul\":24158:24183   */\n      swap3\n      pop\n        /* \"#utility.yul\":24218:24219   */\n      dup3\n        /* \"#utility.yul\":24215:24216   */\n      dup3\n        /* \"#utility.yul\":24211:24220   */\n      mul\n        /* \"#utility.yul\":24240:24270   */\n      tag_673\n        /* \"#utility.yul\":24258:24269   */\n      dup2\n        /* \"#utility.yul\":24240:24270   */\n      tag_387\n      jump\t// in\n    tag_673:\n        /* \"#utility.yul\":24229:24270   */\n      swap2\n      pop\n        /* \"#utility.yul\":24419:24420   */\n      dup3\n        /* \"#utility.yul\":24410:24417   */\n      dup3\n        /* \"#utility.yul\":24406:24421   */\n      div\n        /* \"#utility.yul\":24403:24404   */\n      dup5\n        /* \"#utility.yul\":24400:24422   */\n      eq\n        /* \"#utility.yul\":24380:24381   */\n      dup4\n        /* \"#utility.yul\":24373:24382   */\n      iszero\n        /* \"#utility.yul\":24353:24436   */\n      or\n        /* \"#utility.yul\":24330:24469   */\n      tag_674\n      jumpi\n        /* \"#utility.yul\":24449:24467   */\n      tag_675\n      tag_413\n      jump\t// in\n    tag_675:\n        /* \"#utility.yul\":24330:24469   */\n    tag_674:\n        /* \"#utility.yul\":24114:24476   */\n      pop\n        /* \"#utility.yul\":24066:24476   */\n      swap3\n      swap2\n      pop\n      pop\n      jump\t// out\n\n    auxdata: 0xa264697066735822122044728b2bbf6689d8b0d8b1eebe01c643aac8d46ea0a5513363601b3ecbad5f3864736f6c63430008130033\n}\n",
				"bytecode": {
					"linkReferences": {},
					"object": "60806040526001600760006101000a81548160ff021916908315150217905550730e44805772a5f6bd858942276fc20504a5618a79600760016101000a81548173ffffffffffffffffffffffffffffffffffffffff021916908373ffffffffffffffffffffffffffffffffffffffff1602179055506000600960146101000a81548160ff0219169083151502179055503480156200009c57600080fd5b50620000bd620000b16200078f60201b60201c565b6200079760201b60201c565b6001600260003373ffffffffffffffffffffffffffffffffffffffff1673ffffffffffffffffffffffffffffffffffffffff16815260200190815260200160002060006101000a81548160ff0219169083151502179055506038460362000179577310ed43c718714eb63d5aa57b78b54704e256024e600860006101000a81548173ffffffffffffffffffffffffffffffffffffffff021916908373ffffffffffffffffffffffffffffffffffffffff16021790555062000364565b60614603620001dd5773d99d1c33f9fc3444f8101754abc46c52416550d1600860006101000a81548173ffffffffffffffffffffffffffffffffffffffff021916908373ffffffffffffffffffffffffffffffffffffffff16021790555062000363565b6001461480620001ed5750600446145b80620001f95750600346145b156200025a57737a250d5630b4cf539739df2c5dacb4c659f2488d600860006101000a81548173ffffffffffffffffffffffffffffffffffffffff021916908373ffffffffffffffffffffffffffffffffffffffff16021790555062000362565b61a86a4603620002bf577360ae616a2155ee3d9a68541ba4544862310933d4600860006101000a81548173ffffffffffffffffffffffffffffffffffffffff021916908373ffffffffffffffffffffffffffffffffffffffff16021790555062000361565b60fa4603620003235773f491e7b69e4244ad4002bc14e878a34207e38c29600860006101000a81548173ffffffffffffffffffffffffffffffffffffffff021916908373ffffffffffffffffffffffffffffffffffffffff16021790555062000360565b6040517f08c379a0000000000000000000000000000000000000000000000000000000008152600401620003579062000a26565b60405180910390fd5b5b5b5b5b6001600360003373ffffffffffffffffffffffffffffffffffffffff1673ffffffffffffffffffffffffffffffffffffffff16815260200190815260200160002060006101000a81548160ff021916908315150217905550695915a68d88da6a080000600660003373ffffffffffffffffffffffffffffffffffffffff1673ffffffffffffffffffffffffffffffffffffffff168152602001908152602001600020819055503373ffffffffffffffffffffffffffffffffffffffff16600073ffffffffffffffffffffffffffffffffffffffff167fddf252ad1be2c89b69c2b068fc378daa952ba7f163c4a11628f55a4df523b3ef695915a68d88da6a08000060405162000474919062000a63565b60405180910390a3600860009054906101000a900473ffffffffffffffffffffffffffffffffffffffff1673ffffffffffffffffffffffffffffffffffffffff1663c45a01556040518163ffffffff1660e01b8152600401602060405180830381865afa158015620004ea573d6000803e3d6000fd5b505050506040513d601f19601f8201168201806040525081019062000510919062000aea565b73ffffffffffffffffffffffffffffffffffffffff1663c9c65396600860009054906101000a900473ffffffffffffffffffffffffffffffffffffffff1673ffffffffffffffffffffffffffffffffffffffff1663ad5c46486040518163ffffffff1660e01b8152600401602060405180830381865afa15801562000599573d6000803e3d6000fd5b505050506040513d601f19601f82011682018060405250810190620005bf919062000aea565b306040518363ffffffff1660e01b8152600401620005df92919062000b2d565b6020604051808303816000875af1158015620005ff573d6000803e3d6000fd5b505050506040513d601f19601f8201168201806040525081019062000625919062000aea565b600960006101000a81548173ffffffffffffffffffffffffffffffffffffffff021916908373ffffffffffffffffffffffffffffffffffffffff160217905550600160046000600960009054906101000a900473ffffffffffffffffffffffffffffffffffffffff1673ffffffffffffffffffffffffffffffffffffffff1673ffffffffffffffffffffffffffffffffffffffff16815260200190815260200160002060006101000a81548160ff0219169083151502179055506200073433600860009054906101000a900473ffffffffffffffffffffffffffffffffffffffff167fffffffffffffffffffffffffffffffffffffffffffffffffffffffffffffffff6200085b60201b60201c565b6200078930600860009054906101000a900473ffffffffffffffffffffffffffffffffffffffff167fffffffffffffffffffffffffffffffffffffffffffffffffffffffffffffffff6200085b60201b60201c565b62000bcc565b600033905090565b60008060009054906101000a900473ffffffffffffffffffffffffffffffffffffffff169050816000806101000a81548173ffffffffffffffffffffffffffffffffffffffff021916908373ffffffffffffffffffffffffffffffffffffffff1602179055508173ffffffffffffffffffffffffffffffffffffffff168173ffffffffffffffffffffffffffffffffffffffff167f8be0079c531659141344cd1fd0a4f28419497f9722a3daafe3b4186f6b6457e060405160405180910390a35050565b600073ffffffffffffffffffffffffffffffffffffffff168373ffffffffffffffffffffffffffffffffffffffff1603620008cd576040517f08c379a0000000000000000000000000000000000000000000000000000000008152600401620008c49062000baa565b60405180910390fd5b600073ffffffffffffffffffffffffffffffffffffffff168273ffffffffffffffffffffffffffffffffffffffff16036200093f576040517f08c379a0000000000000000000000000000000000000000000000000000000008152600401620009369062000baa565b60405180910390fd5b80600160008573ffffffffffffffffffffffffffffffffffffffff1673ffffffffffffffffffffffffffffffffffffffff16815260200190815260200160002060008473ffffffffffffffffffffffffffffffffffffffff1673ffffffffffffffffffffffffffffffffffffffff16815260200190815260200160002081905550505050565b600082825260208201905092915050565b7f436861696e206e6f742076616c69640000000000000000000000000000000000600082015250565b600062000a0e600f83620009c5565b915062000a1b82620009d6565b602082019050919050565b6000602082019050818103600083015262000a4181620009ff565b9050919050565b6000819050919050565b62000a5d8162000a48565b82525050565b600060208201905062000a7a600083018462000a52565b92915050565b600080fd5b600073ffffffffffffffffffffffffffffffffffffffff82169050919050565b600062000ab28262000a85565b9050919050565b62000ac48162000aa5565b811462000ad057600080fd5b50565b60008151905062000ae48162000ab9565b92915050565b60006020828403121562000b035762000b0262000a80565b5b600062000b138482850162000ad3565b91505092915050565b62000b278162000aa5565b82525050565b600060408201905062000b44600083018562000b1c565b62000b53602083018462000b1c565b9392505050565b7f45524332303a205a65726f204164647265737300000000000000000000000000600082015250565b600062000b92601383620009c5565b915062000b9f8262000b5a565b602082019050919050565b6000602082019050818103600083015262000bc58162000b83565b9050919050565b6131168062000bdc6000396000f3fe6080604052600436106101d15760003560e01c806354de7bee116100f7578063a9059cbb11610095578063dc9d75b011610064578063dc9d75b014610663578063dd62ed3e1461068e578063e9451f5f146106cb578063f2fde38b146106f6576101d8565b8063a9059cbb146105a9578063c31c9c07146105e6578063c4ab12b514610611578063d5914dc01461063a576101d8565b8063893d20e8116100d1578063893d20e8146105115780638a8c523c1461053c5780638da5cb5b1461055357806395d89b411461057e576101d8565b806354de7bee1461049257806370a08231146104bd578063715018a6146104fa576101d8565b806318160ddd1161016f578063313ce5671161013e578063313ce567146103e85780633cd17c96146104135780633eaaf86b1461043c578063452ed4f114610467576101d8565b806318160ddd146103185780631dc369451461034357806323b872dd1461036e57806327889862146103ab576101d8565b806306fdde03116101ab57806306fdde031461025e578063095ea7b3146102895780630faba554146102c6578063111a60b0146102ef576101d8565b806303fd2a45146101dd5780630445b66714610208578063064a59d014610233576101d8565b366101d857005b600080fd5b3480156101e957600080fd5b506101f261071f565b6040516101ff9190612497565b60405180910390f35b34801561021457600080fd5b5061021d610725565b60405161022a91906124cb565b60405180910390f35b34801561023f57600080fd5b50610248610740565b6040516102559190612501565b60405180910390f35b34801561026a57600080fd5b50610273610753565b60405161028091906125ac565b60405180910390f35b34801561029557600080fd5b506102b060048036038101906102ab919061262b565b610790565b6040516102bd9190612501565b60405180910390f35b3480156102d257600080fd5b506102ed60048036038101906102e89190612697565b6107a7565b005b3480156102fb57600080fd5b50610316600480360381019061031191906126d7565b61087e565b005b34801561032457600080fd5b5061032d6109a3565b60405161033a91906124cb565b60405180910390f35b34801561034f57600080fd5b506103586109cb565b60405161036591906124cb565b60405180910390f35b34801561037a57600080fd5b5061039560048036038101906103909190612704565b6109d0565b6040516103a29190612501565b60405180910390f35b3480156103b757600080fd5b506103d260048036038101906103cd9190612757565b610b1d565b6040516103df9190612501565b60405180910390f35b3480156103f457600080fd5b506103fd610b73565b60405161040a91906127a0565b60405180910390f35b34801561041f57600080fd5b5061043a60048036038101906104359190612697565b610b92565b005b34801561044857600080fd5b50610451610de2565b60405161045e91906124cb565b60405180910390f35b34801561047357600080fd5b5061047c610df0565b6040516104899190612497565b60405180910390f35b34801561049e57600080fd5b506104a7610e16565b6040516104b491906124cb565b60405180910390f35b3480156104c957600080fd5b506104e460048036038101906104df9190612757565b610e1b565b6040516104f191906124cb565b60405180910390f35b34801561050657600080fd5b5061050f610e64565b005b34801561051d57600080fd5b50610526610eec565b6040516105339190612497565b60405180910390f35b34801561054857600080fd5b50610551610efb565b005b34801561055f57600080fd5b50610568611010565b6040516105759190612497565b60405180910390f35b34801561058a57600080fd5b50610593611039565b6040516105a091906125ac565b60405180910390f35b3480156105b557600080fd5b506105d060048036038101906105cb919061262b565b611076565b6040516105dd9190612501565b60405180910390f35b3480156105f257600080fd5b506105fb61108e565b604051610608919061281a565b60405180910390f35b34801561061d57600080fd5b5061063860048036038101906106339190612757565b6110b4565b005b34801561064657600080fd5b50610661600480360381019061065c9190612757565b6111ab565b005b34801561066f57600080fd5b506106786112b9565b60405161068591906124cb565b60405180910390f35b34801561069a57600080fd5b506106b560048036038101906106b09190612835565b6112bf565b6040516106c291906124cb565b60405180910390f35b3480156106d757600080fd5b506106e0611346565b6040516106ed91906124cb565b60405180910390f35b34801561070257600080fd5b5061071d60048036038101906107189190612757565b61134b565b005b61dead81565b611388695915a68d88da6a08000061073d91906128d3565b81565b600960149054906101000a900460ff1681565b60606040518060400160405280600781526020017f50696720322e3000000000000000000000000000000000000000000000000000815250905090565b600061079d338484611442565b6001905092915050565b6107af6115a6565b73ffffffffffffffffffffffffffffffffffffffff166107cd611010565b73ffffffffffffffffffffffffffffffffffffffff1614610823576040517f08c379a000000000000000000000000000000000000000000000000000000000815260040161081a90612950565b60405180910390fd5b80600260008473ffffffffffffffffffffffffffffffffffffffff1673ffffffffffffffffffffffffffffffffffffffff16815260200190815260200160002060006101000a81548160ff0219169083151502179055505050565b6108866115a6565b73ffffffffffffffffffffffffffffffffffffffff166108a4611010565b73ffffffffffffffffffffffffffffffffffffffff16146108fa576040517f08c379a00000000000000000000000000000000000000000000000000000000081526004016108f190612950565b60405180910390fd5b801515600760009054906101000a900460ff1615150361094f576040517f08c379a0000000000000000000000000000000000000000000000000000000008152600401610946906129bc565b60405180910390fd5b80600760006101000a81548160ff0219169083151502179055507f4686eea8d0ea8d72497b77f908906325d7bbafd9f1d6753522573258958656e8816040516109989190612501565b60405180910390a150565b600080695915a68d88da6a080000036109bb57600080fd5b695915a68d88da6a080000905090565b600a81565b60007fffffffffffffffffffffffffffffffffffffffffffffffffffffffffffffffff600160008673ffffffffffffffffffffffffffffffffffffffff1673ffffffffffffffffffffffffffffffffffffffff16815260200190815260200160002060003373ffffffffffffffffffffffffffffffffffffffff1673ffffffffffffffffffffffffffffffffffffffff1681526020019081526020016000205414610b095781600160008673ffffffffffffffffffffffffffffffffffffffff1673ffffffffffffffffffffffffffffffffffffffff16815260200190815260200160002060003373ffffffffffffffffffffffffffffffffffffffff1673ffffffffffffffffffffffffffffffffffffffff1681526020019081526020016000206000828254610b0191906129dc565b925050819055505b610b148484846115ae565b90509392505050565b6000600260008373ffffffffffffffffffffffffffffffffffffffff1673ffffffffffffffffffffffffffffffffffffffff16815260200190815260200160002060009054906101000a900460ff169050919050565b600080695915a68d88da6a08000003610b8b57600080fd5b6009905090565b610b9a6115a6565b73ffffffffffffffffffffffffffffffffffffffff16610bb8611010565b73ffffffffffffffffffffffffffffffffffffffff1614610c0e576040517f08c379a0000000000000000000000000000000000000000000000000000000008152600401610c0590612950565b60405180910390fd5b801515600560008473ffffffffffffffffffffffffffffffffffffffff1673ffffffffffffffffffffffffffffffffffffffff16815260200190815260200160002060009054906101000a900460ff16151503610ca0576040517f08c379a0000000000000000000000000000000000000000000000000000000008152600401610c9790612a5c565b60405180910390fd5b80600560008473ffffffffffffffffffffffffffffffffffffffff1673ffffffffffffffffffffffffffffffffffffffff16815260200190815260200160002060006101000a81548160ff02191690831515021790555080600260008473ffffffffffffffffffffffffffffffffffffffff1673ffffffffffffffffffffffffffffffffffffffff16815260200190815260200160002060006101000a81548160ff02191690831515021790555080600360008473ffffffffffffffffffffffffffffffffffffffff1673ffffffffffffffffffffffffffffffffffffffff16815260200190815260200160002060006101000a81548160ff0219169083151502179055507f7f7f90cb020c1deb8939c26cf0790751e539157b1fd2039166fcd09a8b7645138282604051610dd6929190612a7c565b60405180910390a15050565b695915a68d88da6a08000081565b600960009054906101000a900473ffffffffffffffffffffffffffffffffffffffff1681565b600081565b6000600660008373ffffffffffffffffffffffffffffffffffffffff1673ffffffffffffffffffffffffffffffffffffffff168152602001908152602001600020549050919050565b610e6c6115a6565b73ffffffffffffffffffffffffffffffffffffffff16610e8a611010565b73ffffffffffffffffffffffffffffffffffffffff1614610ee0576040517f08c379a0000000000000000000000000000000000000000000000000000000008152600401610ed790612950565b60405180910390fd5b610eea600061199d565b565b6000610ef6611010565b905090565b610f036115a6565b73ffffffffffffffffffffffffffffffffffffffff16610f21611010565b73ffffffffffffffffffffffffffffffffffffffff1614610f77576040517f08c379a0000000000000000000000000000000000000000000000000000000008152600401610f6e90612950565b60405180910390fd5b600960149054906101000a900460ff1615610fc7576040517f08c379a0000000000000000000000000000000000000000000000000000000008152600401610fbe90612af1565b60405180910390fd5b6001600960146101000a81548160ff0219169083151502179055507fa0ac5e19ca3a09af9a3a13c5c51f911c89eefd4b9eb548f4766b991b14ad686860405160405180910390a1565b60008060009054906101000a900473ffffffffffffffffffffffffffffffffffffffff16905090565b60606040518060400160405280600681526020017f504947322e300000000000000000000000000000000000000000000000000000815250905090565b60006110833384846115ae565b506001905092915050565b600860009054906101000a900473ffffffffffffffffffffffffffffffffffffffff1681565b6110bc6115a6565b73ffffffffffffffffffffffffffffffffffffffff166110da611010565b73ffffffffffffffffffffffffffffffffffffffff1614611130576040517f08c379a000000000000000000000000000000000000000000000000000000000815260040161112790612950565b60405180910390fd5b80600760016101000a81548173ffffffffffffffffffffffffffffffffffffffff021916908373ffffffffffffffffffffffffffffffffffffffff1602179055507fb074145dac98cbf04c5e3a6d58501e8e3aa6eb107008ec598af2309ae5179dfe816040516111a09190612497565b60405180910390a150565b6111b36115a6565b73ffffffffffffffffffffffffffffffffffffffff166111d1611010565b73ffffffffffffffffffffffffffffffffffffffff1614611227576040517f08c379a000000000000000000000000000000000000000000000000000000000815260040161121e90612950565b60405180910390fd5b6001600460008373ffffffffffffffffffffffffffffffffffffffff1673ffffffffffffffffffffffffffffffffffffffff16815260200190815260200160002060006101000a81548160ff0219169083151502179055507f03b62011431502c791d443ee6149c9ec9b43632aeb5eb55c621104c128fe02f7816040516112ae9190612497565b60405180910390a150565b6103e881565b6000600160008473ffffffffffffffffffffffffffffffffffffffff1673ffffffffffffffffffffffffffffffffffffffff16815260200190815260200160002060008373ffffffffffffffffffffffffffffffffffffffff1673ffffffffffffffffffffffffffffffffffffffff16815260200190815260200160002054905092915050565b600a81565b6113536115a6565b73ffffffffffffffffffffffffffffffffffffffff16611371611010565b73ffffffffffffffffffffffffffffffffffffffff16146113c7576040517f08c379a00000000000000000000000000000000000000000000000000000000081526004016113be90612950565b60405180910390fd5b600073ffffffffffffffffffffffffffffffffffffffff168173ffffffffffffffffffffffffffffffffffffffff1603611436576040517f08c379a000000000000000000000000000000000000000000000000000000000815260040161142d90612b83565b60405180910390fd5b61143f8161199d565b50565b600073ffffffffffffffffffffffffffffffffffffffff168373ffffffffffffffffffffffffffffffffffffffff16036114b1576040517f08c379a00000000000000000000000000000000000000000000000000000000081526004016114a890612bef565b60405180910390fd5b600073ffffffffffffffffffffffffffffffffffffffff168273ffffffffffffffffffffffffffffffffffffffff1603611520576040517f08c379a000000000000000000000000000000000000000000000000000000000815260040161151790612bef565b60405180910390fd5b80600160008573ffffffffffffffffffffffffffffffffffffffff1673ffffffffffffffffffffffffffffffffffffffff16815260200190815260200160002060008473ffffffffffffffffffffffffffffffffffffffff1673ffffffffffffffffffffffffffffffffffffffff16815260200190815260200160002081905550505050565b600033905090565b60008060019050600073ffffffffffffffffffffffffffffffffffffffff168473ffffffffffffffffffffffffffffffffffffffff1603611624576040517f08c379a000000000000000000000000000000000000000000000000000000000815260040161161b90612c81565b60405180910390fd5b600073ffffffffffffffffffffffffffffffffffffffff168573ffffffffffffffffffffffffffffffffffffffff1603611693576040517f08c379a000000000000000000000000000000000000000000000000000000000815260040161168a90612d13565b60405180910390fd5b600083116116d6576040517f08c379a00000000000000000000000000000000000000000000000000000000081526004016116cd90612da5565b60405180910390fd5b6116e08585611a61565b1561173557600960149054906101000a900460ff16611734576040517f08c379a000000000000000000000000000000000000000000000000000000000815260040161172b90612e11565b60405180910390fd5b5b61173f8585611c7c565b80156117585750600960159054906101000a900460ff16155b801561176a57506117698585611d2e565b5b156117a657600061177a30610e1b565b9050611388695915a68d88da6a08000061179491906128d3565b81106117a4576117a381611df9565b5b505b600260008673ffffffffffffffffffffffffffffffffffffffff1673ffffffffffffffffffffffffffffffffffffffff16815260200190815260200160002060009054906101000a900460ff16806118475750600260008573ffffffffffffffffffffffffffffffffffffffff1673ffffffffffffffffffffffffffffffffffffffff16815260200190815260200160002060009054906101000a900460ff165b1561185157600090505b82600660008773ffffffffffffffffffffffffffffffffffffffff1673ffffffffffffffffffffffffffffffffffffffff16815260200190815260200160002060008282546118a091906129dc565b925050819055506000816118b457836118d3565b6118d2866118c28888612271565b6118cc8989611c7c565b87612323565b5b905080600660008773ffffffffffffffffffffffffffffffffffffffff1673ffffffffffffffffffffffffffffffffffffffff16815260200190815260200160002060008282546119249190612e31565b925050819055508473ffffffffffffffffffffffffffffffffffffffff168673ffffffffffffffffffffffffffffffffffffffff167fddf252ad1be2c89b69c2b068fc378daa952ba7f163c4a11628f55a4df523b3ef8360405161198891906124cb565b60405180910390a36001925050509392505050565b60008060009054906101000a900473ffffffffffffffffffffffffffffffffffffffff169050816000806101000a81548173ffffffffffffffffffffffffffffffffffffffff021916908373ffffffffffffffffffffffffffffffffffffffff1602179055508173ffffffffffffffffffffffffffffffffffffffff168173ffffffffffffffffffffffffffffffffffffffff167f8be0079c531659141344cd1fd0a4f28419497f9722a3daafe3b4186f6b6457e060405160405180910390a35050565b600080611a6c611010565b73ffffffffffffffffffffffffffffffffffffffff168473ffffffffffffffffffffffffffffffffffffffff1614158015611ada5750611aaa611010565b73ffffffffffffffffffffffffffffffffffffffff168373ffffffffffffffffffffffffffffffffffffffff1614155b8015611b195750611ae9611010565b73ffffffffffffffffffffffffffffffffffffffff163373ffffffffffffffffffffffffffffffffffffffff1614155b8015611b6f5750600360008573ffffffffffffffffffffffffffffffffffffffff1673ffffffffffffffffffffffffffffffffffffffff16815260200190815260200160002060009054906101000a900460ff16155b8015611bc55750600360008473ffffffffffffffffffffffffffffffffffffffff1673ffffffffffffffffffffffffffffffffffffffff16815260200190815260200160002060009054906101000a900460ff16155b8015611bff575061dead73ffffffffffffffffffffffffffffffffffffffff168373ffffffffffffffffffffffffffffffffffffffff1614155b8015611c385750600073ffffffffffffffffffffffffffffffffffffffff168373ffffffffffffffffffffffffffffffffffffffff1614155b8015611c7057503073ffffffffffffffffffffffffffffffffffffffff168373ffffffffffffffffffffffffffffffffffffffff1614155b90508091505092915050565b600080600460008473ffffffffffffffffffffffffffffffffffffffff1673ffffffffffffffffffffffffffffffffffffffff16815260200190815260200160002060009054906101000a900460ff168015611d225750600460008573ffffffffffffffffffffffffffffffffffffffff1673ffffffffffffffffffffffffffffffffffffffff16815260200190815260200160002060009054906101000a900460ff16155b90508091505092915050565b600080600760009054906101000a900460ff168015611d975750600560008573ffffffffffffffffffffffffffffffffffffffff1673ffffffffffffffffffffffffffffffffffffffff16815260200190815260200160002060009054906101000a900460ff16155b8015611ded5750600560008473ffffffffffffffffffffffffffffffffffffffff1673ffffffffffffffffffffffffffffffffffffffff16815260200190815260200160002060009054906101000a900460ff16155b90508091505092915050565b6001600960156101000a81548160ff0219169083151502179055506000600267ffffffffffffffff811115611e3157611e30612e65565b5b604051908082528060200260200182016040528015611e5f5781602001602082028036833780820191505090505b5090503081600081518110611e7757611e76612e94565b5b602002602001019073ffffffffffffffffffffffffffffffffffffffff16908173ffffffffffffffffffffffffffffffffffffffff1681525050600860009054906101000a900473ffffffffffffffffffffffffffffffffffffffff1673ffffffffffffffffffffffffffffffffffffffff1663ad5c46486040518163ffffffff1660e01b8152600401602060405180830381865afa158015611f1e573d6000803e3d6000fd5b505050506040513d601f19601f82011682018060405250810190611f429190612ed8565b81600181518110611f5657611f55612e94565b5b602002602001019073ffffffffffffffffffffffffffffffffffffffff16908173ffffffffffffffffffffffffffffffffffffffff16815250507fffffffffffffffffffffffffffffffffffffffffffffffffffffffffffffffff600160003073ffffffffffffffffffffffffffffffffffffffff1673ffffffffffffffffffffffffffffffffffffffff1681526020019081526020016000206000600860009054906101000a900473ffffffffffffffffffffffffffffffffffffffff1673ffffffffffffffffffffffffffffffffffffffff1673ffffffffffffffffffffffffffffffffffffffff1681526020019081526020016000205414612119577fffffffffffffffffffffffffffffffffffffffffffffffffffffffffffffffff600160003073ffffffffffffffffffffffffffffffffffffffff1673ffffffffffffffffffffffffffffffffffffffff1681526020019081526020016000206000600860009054906101000a900473ffffffffffffffffffffffffffffffffffffffff1673ffffffffffffffffffffffffffffffffffffffff1673ffffffffffffffffffffffffffffffffffffffff168152602001908152602001600020819055505b600860009054906101000a900473ffffffffffffffffffffffffffffffffffffffff1673ffffffffffffffffffffffffffffffffffffffff1663791ac9478360008430426040518663ffffffff1660e01b815260040161217d959493929190612ffe565b600060405180830381600087803b15801561219757600080fd5b505af19250505080156121a8575060015b6121b25750612253565b60008047111561225057600760019054906101000a900473ffffffffffffffffffffffffffffffffffffffff1673ffffffffffffffffffffffffffffffffffffffff16476188b89060405161220690613089565b600060405180830381858888f193505050503d8060008114612244576040519150601f19603f3d011682016040523d82523d6000602084013e612249565b606091505b5050809150505b50505b6000600960156101000a81548160ff02191690831515021790555050565b600080600460008473ffffffffffffffffffffffffffffffffffffffff1673ffffffffffffffffffffffffffffffffffffffff16815260200190815260200160002060009054906101000a900460ff161580156123175750600460008573ffffffffffffffffffffffffffffffffffffffff1673ffffffffffffffffffffffffffffffffffffffff16815260200190815260200160002060009054906101000a900460ff165b90508091505092915050565b600080841561233557600a905061234a565b831561234457600a9050612349565b600090505b5b6000810361235b578291505061244e565b60006103e8828561236c919061309e565b61237691906128d3565b9050600081111561243d5780600660003073ffffffffffffffffffffffffffffffffffffffff1673ffffffffffffffffffffffffffffffffffffffff16815260200190815260200160002060008282546123d09190612e31565b925050819055503073ffffffffffffffffffffffffffffffffffffffff168773ffffffffffffffffffffffffffffffffffffffff167fddf252ad1be2c89b69c2b068fc378daa952ba7f163c4a11628f55a4df523b3ef8360405161243491906124cb565b60405180910390a35b808461244991906129dc565b925050505b949350505050565b600073ffffffffffffffffffffffffffffffffffffffff82169050919050565b600061248182612456565b9050919050565b61249181612476565b82525050565b60006020820190506124ac6000830184612488565b92915050565b6000819050919050565b6124c5816124b2565b82525050565b60006020820190506124e060008301846124bc565b92915050565b60008115159050919050565b6124fb816124e6565b82525050565b600060208201905061251660008301846124f2565b92915050565b600081519050919050565b600082825260208201905092915050565b60005b8381101561255657808201518184015260208101905061253b565b60008484015250505050565b6000601f19601f8301169050919050565b600061257e8261251c565b6125888185612527565b9350612598818560208601612538565b6125a181612562565b840191505092915050565b600060208201905081810360008301526125c68184612573565b905092915050565b600080fd5b6125dc81612476565b81146125e757600080fd5b50565b6000813590506125f9816125d3565b92915050565b612608816124b2565b811461261357600080fd5b50565b600081359050612625816125ff565b92915050565b60008060408385031215612642576126416125ce565b5b6000612650858286016125ea565b925050602061266185828601612616565b9150509250929050565b612674816124e6565b811461267f57600080fd5b50565b6000813590506126918161266b565b92915050565b600080604083850312156126ae576126ad6125ce565b5b60006126bc858286016125ea565b92505060206126cd85828601612682565b9150509250929050565b6000602082840312156126ed576126ec6125ce565b5b60006126fb84828501612682565b91505092915050565b60008060006060848603121561271d5761271c6125ce565b5b600061272b868287016125ea565b935050602061273c868287016125ea565b925050604061274d86828701612616565b9150509250925092565b60006020828403121561276d5761276c6125ce565b5b600061277b848285016125ea565b91505092915050565b600060ff82169050919050565b61279a81612784565b82525050565b60006020820190506127b56000830184612791565b92915050565b6000819050919050565b60006127e06127db6127d684612456565b6127bb565b612456565b9050919050565b60006127f2826127c5565b9050919050565b6000612804826127e7565b9050919050565b612814816127f9565b82525050565b600060208201905061282f600083018461280b565b92915050565b6000806040838503121561284c5761284b6125ce565b5b600061285a858286016125ea565b925050602061286b858286016125ea565b9150509250929050565b7f4e487b7100000000000000000000000000000000000000000000000000000000600052601260045260246000fd5b7f4e487b7100000000000000000000000000000000000000000000000000000000600052601160045260246000fd5b60006128de826124b2565b91506128e9836124b2565b9250826128f9576128f8612875565b5b828204905092915050565b7f4f776e61626c653a2063616c6c6572206973206e6f7420746865206f776e6572600082015250565b600061293a602083612527565b915061294582612904565b602082019050919050565b600060208201905081810360008301526129698161292d565b9050919050565b7f426f6f6c206973207468652073616d6500000000000000000000000000000000600082015250565b60006129a6601083612527565b91506129b182612970565b602082019050919050565b600060208201905081810360008301526129d581612999565b9050919050565b60006129e7826124b2565b91506129f2836124b2565b9250828203905081811115612a0a57612a096128a4565b5b92915050565b7f53616d6520626f6f6c0000000000000000000000000000000000000000000000600082015250565b6000612a46600983612527565b9150612a5182612a10565b602082019050919050565b60006020820190508181036000830152612a7581612a39565b9050919050565b6000604082019050612a916000830185612488565b612a9e60208301846124f2565b9392505050565b7f54726164696e6720616c726561647920656e61626c6564000000000000000000600082015250565b6000612adb601783612527565b9150612ae682612aa5565b602082019050919050565b60006020820190508181036000830152612b0a81612ace565b9050919050565b7f4f776e61626c653a206e6577206f776e657220697320746865207a65726f206160008201527f6464726573730000000000000000000000000000000000000000000000000000602082015250565b6000612b6d602683612527565b9150612b7882612b11565b604082019050919050565b60006020820190508181036000830152612b9c81612b60565b9050919050565b7f45524332303a205a65726f204164647265737300000000000000000000000000600082015250565b6000612bd9601383612527565b9150612be482612ba3565b602082019050919050565b60006020820190508181036000830152612c0881612bcc565b9050919050565b7f45524332303a207472616e7366657220746f20746865207a65726f206164647260008201527f6573730000000000000000000000000000000000000000000000000000000000602082015250565b6000612c6b602383612527565b9150612c7682612c0f565b604082019050919050565b60006020820190508181036000830152612c9a81612c5e565b9050919050565b7f45524332303a207472616e736665722066726f6d20746865207a65726f20616460008201527f6472657373000000000000000000000000000000000000000000000000000000602082015250565b6000612cfd602583612527565b9150612d0882612ca1565b604082019050919050565b60006020820190508181036000830152612d2c81612cf0565b9050919050565b7f5472616e7366657220616d6f756e74206d75737420626520677265617465722060008201527f7468616e207a65726f0000000000000000000000000000000000000000000000602082015250565b6000612d8f602983612527565b9150612d9a82612d33565b604082019050919050565b60006020820190508181036000830152612dbe81612d82565b9050919050565b7f54726164696e67206973206e6f7420656e61626c656400000000000000000000600082015250565b6000612dfb601683612527565b9150612e0682612dc5565b602082019050919050565b60006020820190508181036000830152612e2a81612dee565b9050919050565b6000612e3c826124b2565b9150612e47836124b2565b9250828201905080821115612e5f57612e5e6128a4565b5b92915050565b7f4e487b7100000000000000000000000000000000000000000000000000000000600052604160045260246000fd5b7f4e487b7100000000000000000000000000000000000000000000000000000000600052603260045260246000fd5b600081519050612ed2816125d3565b92915050565b600060208284031215612eee57612eed6125ce565b5b6000612efc84828501612ec3565b91505092915050565b6000819050919050565b6000612f2a612f25612f2084612f05565b6127bb565b6124b2565b9050919050565b612f3a81612f0f565b82525050565b600081519050919050565b600082825260208201905092915050565b6000819050602082019050919050565b612f7581612476565b82525050565b6000612f878383612f6c565b60208301905092915050565b6000602082019050919050565b6000612fab82612f40565b612fb58185612f4b565b9350612fc083612f5c565b8060005b83811015612ff1578151612fd88882612f7b565b9750612fe383612f93565b925050600181019050612fc4565b5085935050505092915050565b600060a08201905061301360008301886124bc565b6130206020830187612f31565b81810360408301526130328186612fa0565b90506130416060830185612488565b61304e60808301846124bc565b9695505050505050565b600081905092915050565b50565b6000613073600083613058565b915061307e82613063565b600082019050919050565b600061309482613066565b9150819050919050565b60006130a9826124b2565b91506130b4836124b2565b92508282026130c2816124b2565b915082820484148315176130d9576130d86128a4565b5b509291505056fea264697066735822122044728b2bbf6689d8b0d8b1eebe01c643aac8d46ea0a5513363601b3ecbad5f3864736f6c63430008130033",
					"opcodes": "PUSH1 0x80 PUSH1 0x40 MSTORE PUSH1 0x1 PUSH1 0x7 PUSH1 0x0 PUSH2 0x100 EXP DUP2 SLOAD DUP2 PUSH1 0xFF MUL NOT AND SWAP1 DUP4 ISZERO ISZERO MUL OR SWAP1 SSTORE POP PUSH20 0xE44805772A5F6BD858942276FC20504A5618A79 PUSH1 0x7 PUSH1 0x1 PUSH2 0x100 EXP DUP2 SLOAD DUP2 PUSH20 0xFFFFFFFFFFFFFFFFFFFFFFFFFFFFFFFFFFFFFFFF MUL NOT AND SWAP1 DUP4 PUSH20 0xFFFFFFFFFFFFFFFFFFFFFFFFFFFFFFFFFFFFFFFF AND MUL OR SWAP1 SSTORE POP PUSH1 0x0 PUSH1 0x9 PUSH1 0x14 PUSH2 0x100 EXP DUP2 SLOAD DUP2 PUSH1 0xFF MUL NOT AND SWAP1 DUP4 ISZERO ISZERO MUL OR SWAP1 SSTORE POP CALLVALUE DUP1 ISZERO PUSH3 0x9C JUMPI PUSH1 0x0 DUP1 REVERT JUMPDEST POP PUSH3 0xBD PUSH3 0xB1 PUSH3 0x78F PUSH1 0x20 SHL PUSH1 0x20 SHR JUMP JUMPDEST PUSH3 0x797 PUSH1 0x20 SHL PUSH1 0x20 SHR JUMP JUMPDEST PUSH1 0x1 PUSH1 0x2 PUSH1 0x0 CALLER PUSH20 0xFFFFFFFFFFFFFFFFFFFFFFFFFFFFFFFFFFFFFFFF AND PUSH20 0xFFFFFFFFFFFFFFFFFFFFFFFFFFFFFFFFFFFFFFFF AND DUP2 MSTORE PUSH1 0x20 ADD SWAP1 DUP2 MSTORE PUSH1 0x20 ADD PUSH1 0x0 KECCAK256 PUSH1 0x0 PUSH2 0x100 EXP DUP2 SLOAD DUP2 PUSH1 0xFF MUL NOT AND SWAP1 DUP4 ISZERO ISZERO MUL OR SWAP1 SSTORE POP PUSH1 0x38 CHAINID SUB PUSH3 0x179 JUMPI PUSH20 0x10ED43C718714EB63D5AA57B78B54704E256024E PUSH1 0x8 PUSH1 0x0 PUSH2 0x100 EXP DUP2 SLOAD DUP2 PUSH20 0xFFFFFFFFFFFFFFFFFFFFFFFFFFFFFFFFFFFFFFFF MUL NOT AND SWAP1 DUP4 PUSH20 0xFFFFFFFFFFFFFFFFFFFFFFFFFFFFFFFFFFFFFFFF AND MUL OR SWAP1 SSTORE POP PUSH3 0x364 JUMP JUMPDEST PUSH1 0x61 CHAINID SUB PUSH3 0x1DD JUMPI PUSH20 0xD99D1C33F9FC3444F8101754ABC46C52416550D1 PUSH1 0x8 PUSH1 0x0 PUSH2 0x100 EXP DUP2 SLOAD DUP2 PUSH20 0xFFFFFFFFFFFFFFFFFFFFFFFFFFFFFFFFFFFFFFFF MUL NOT AND SWAP1 DUP4 PUSH20 0xFFFFFFFFFFFFFFFFFFFFFFFFFFFFFFFFFFFFFFFF AND MUL OR SWAP1 SSTORE POP PUSH3 0x363 JUMP JUMPDEST PUSH1 0x1 CHAINID EQ DUP1 PUSH3 0x1ED JUMPI POP PUSH1 0x4 CHAINID EQ JUMPDEST DUP1 PUSH3 0x1F9 JUMPI POP PUSH1 0x3 CHAINID EQ JUMPDEST ISZERO PUSH3 0x25A JUMPI PUSH20 0x7A250D5630B4CF539739DF2C5DACB4C659F2488D PUSH1 0x8 PUSH1 0x0 PUSH2 0x100 EXP DUP2 SLOAD DUP2 PUSH20 0xFFFFFFFFFFFFFFFFFFFFFFFFFFFFFFFFFFFFFFFF MUL NOT AND SWAP1 DUP4 PUSH20 0xFFFFFFFFFFFFFFFFFFFFFFFFFFFFFFFFFFFFFFFF AND MUL OR SWAP1 SSTORE POP PUSH3 0x362 JUMP JUMPDEST PUSH2 0xA86A CHAINID SUB PUSH3 0x2BF JUMPI PUSH20 0x60AE616A2155EE3D9A68541BA4544862310933D4 PUSH1 0x8 PUSH1 0x0 PUSH2 0x100 EXP DUP2 SLOAD DUP2 PUSH20 0xFFFFFFFFFFFFFFFFFFFFFFFFFFFFFFFFFFFFFFFF MUL NOT AND SWAP1 DUP4 PUSH20 0xFFFFFFFFFFFFFFFFFFFFFFFFFFFFFFFFFFFFFFFF AND MUL OR SWAP1 SSTORE POP PUSH3 0x361 JUMP JUMPDEST PUSH1 0xFA CHAINID SUB PUSH3 0x323 JUMPI PUSH20 0xF491E7B69E4244AD4002BC14E878A34207E38C29 PUSH1 0x8 PUSH1 0x0 PUSH2 0x100 EXP DUP2 SLOAD DUP2 PUSH20 0xFFFFFFFFFFFFFFFFFFFFFFFFFFFFFFFFFFFFFFFF MUL NOT AND SWAP1 DUP4 PUSH20 0xFFFFFFFFFFFFFFFFFFFFFFFFFFFFFFFFFFFFFFFF AND MUL OR SWAP1 SSTORE POP PUSH3 0x360 JUMP JUMPDEST PUSH1 0x40 MLOAD PUSH32 0x8C379A000000000000000000000000000000000000000000000000000000000 DUP2 MSTORE PUSH1 0x4 ADD PUSH3 0x357 SWAP1 PUSH3 0xA26 JUMP JUMPDEST PUSH1 0x40 MLOAD DUP1 SWAP2 SUB SWAP1 REVERT JUMPDEST JUMPDEST JUMPDEST JUMPDEST JUMPDEST PUSH1 0x1 PUSH1 0x3 PUSH1 0x0 CALLER PUSH20 0xFFFFFFFFFFFFFFFFFFFFFFFFFFFFFFFFFFFFFFFF AND PUSH20 0xFFFFFFFFFFFFFFFFFFFFFFFFFFFFFFFFFFFFFFFF AND DUP2 MSTORE PUSH1 0x20 ADD SWAP1 DUP2 MSTORE PUSH1 0x20 ADD PUSH1 0x0 KECCAK256 PUSH1 0x0 PUSH2 0x100 EXP DUP2 SLOAD DUP2 PUSH1 0xFF MUL NOT AND SWAP1 DUP4 ISZERO ISZERO MUL OR SWAP1 SSTORE POP PUSH10 0x5915A68D88DA6A080000 PUSH1 0x6 PUSH1 0x0 CALLER PUSH20 0xFFFFFFFFFFFFFFFFFFFFFFFFFFFFFFFFFFFFFFFF AND PUSH20 0xFFFFFFFFFFFFFFFFFFFFFFFFFFFFFFFFFFFFFFFF AND DUP2 MSTORE PUSH1 0x20 ADD SWAP1 DUP2 MSTORE PUSH1 0x20 ADD PUSH1 0x0 KECCAK256 DUP2 SWAP1 SSTORE POP CALLER PUSH20 0xFFFFFFFFFFFFFFFFFFFFFFFFFFFFFFFFFFFFFFFF AND PUSH1 0x0 PUSH20 0xFFFFFFFFFFFFFFFFFFFFFFFFFFFFFFFFFFFFFFFF AND PUSH32 0xDDF252AD1BE2C89B69C2B068FC378DAA952BA7F163C4A11628F55A4DF523B3EF PUSH10 0x5915A68D88DA6A080000 PUSH1 0x40 MLOAD PUSH3 0x474 SWAP2 SWAP1 PUSH3 0xA63 JUMP JUMPDEST PUSH1 0x40 MLOAD DUP1 SWAP2 SUB SWAP1 LOG3 PUSH1 0x8 PUSH1 0x0 SWAP1 SLOAD SWAP1 PUSH2 0x100 EXP SWAP1 DIV PUSH20 0xFFFFFFFFFFFFFFFFFFFFFFFFFFFFFFFFFFFFFFFF AND PUSH20 0xFFFFFFFFFFFFFFFFFFFFFFFFFFFFFFFFFFFFFFFF AND PUSH4 0xC45A0155 PUSH1 0x40 MLOAD DUP2 PUSH4 0xFFFFFFFF AND PUSH1 0xE0 SHL DUP2 MSTORE PUSH1 0x4 ADD PUSH1 0x20 PUSH1 0x40 MLOAD DUP1 DUP4 SUB DUP2 DUP7 GAS STATICCALL ISZERO DUP1 ISZERO PUSH3 0x4EA JUMPI RETURNDATASIZE PUSH1 0x0 DUP1 RETURNDATACOPY RETURNDATASIZE PUSH1 0x0 REVERT JUMPDEST POP POP POP POP PUSH1 0x40 MLOAD RETURNDATASIZE PUSH1 0x1F NOT PUSH1 0x1F DUP3 ADD AND DUP3 ADD DUP1 PUSH1 0x40 MSTORE POP DUP2 ADD SWAP1 PUSH3 0x510 SWAP2 SWAP1 PUSH3 0xAEA JUMP JUMPDEST PUSH20 0xFFFFFFFFFFFFFFFFFFFFFFFFFFFFFFFFFFFFFFFF AND PUSH4 0xC9C65396 PUSH1 0x8 PUSH1 0x0 SWAP1 SLOAD SWAP1 PUSH2 0x100 EXP SWAP1 DIV PUSH20 0xFFFFFFFFFFFFFFFFFFFFFFFFFFFFFFFFFFFFFFFF AND PUSH20 0xFFFFFFFFFFFFFFFFFFFFFFFFFFFFFFFFFFFFFFFF AND PUSH4 0xAD5C4648 PUSH1 0x40 MLOAD DUP2 PUSH4 0xFFFFFFFF AND PUSH1 0xE0 SHL DUP2 MSTORE PUSH1 0x4 ADD PUSH1 0x20 PUSH1 0x40 MLOAD DUP1 DUP4 SUB DUP2 DUP7 GAS STATICCALL ISZERO DUP1 ISZERO PUSH3 0x599 JUMPI RETURNDATASIZE PUSH1 0x0 DUP1 RETURNDATACOPY RETURNDATASIZE PUSH1 0x0 REVERT JUMPDEST POP POP POP POP PUSH1 0x40 MLOAD RETURNDATASIZE PUSH1 0x1F NOT PUSH1 0x1F DUP3 ADD AND DUP3 ADD DUP1 PUSH1 0x40 MSTORE POP DUP2 ADD SWAP1 PUSH3 0x5BF SWAP2 SWAP1 PUSH3 0xAEA JUMP JUMPDEST ADDRESS PUSH1 0x40 MLOAD DUP4 PUSH4 0xFFFFFFFF AND PUSH1 0xE0 SHL DUP2 MSTORE PUSH1 0x4 ADD PUSH3 0x5DF SWAP3 SWAP2 SWAP1 PUSH3 0xB2D JUMP JUMPDEST PUSH1 0x20 PUSH1 0x40 MLOAD DUP1 DUP4 SUB DUP2 PUSH1 0x0 DUP8 GAS CALL ISZERO DUP1 ISZERO PUSH3 0x5FF JUMPI RETURNDATASIZE PUSH1 0x0 DUP1 RETURNDATACOPY RETURNDATASIZE PUSH1 0x0 REVERT JUMPDEST POP POP POP POP PUSH1 0x40 MLOAD RETURNDATASIZE PUSH1 0x1F NOT PUSH1 0x1F DUP3 ADD AND DUP3 ADD DUP1 PUSH1 0x40 MSTORE POP DUP2 ADD SWAP1 PUSH3 0x625 SWAP2 SWAP1 PUSH3 0xAEA JUMP JUMPDEST PUSH1 0x9 PUSH1 0x0 PUSH2 0x100 EXP DUP2 SLOAD DUP2 PUSH20 0xFFFFFFFFFFFFFFFFFFFFFFFFFFFFFFFFFFFFFFFF MUL NOT AND SWAP1 DUP4 PUSH20 0xFFFFFFFFFFFFFFFFFFFFFFFFFFFFFFFFFFFFFFFF AND MUL OR SWAP1 SSTORE POP PUSH1 0x1 PUSH1 0x4 PUSH1 0x0 PUSH1 0x9 PUSH1 0x0 SWAP1 SLOAD SWAP1 PUSH2 0x100 EXP SWAP1 DIV PUSH20 0xFFFFFFFFFFFFFFFFFFFFFFFFFFFFFFFFFFFFFFFF AND PUSH20 0xFFFFFFFFFFFFFFFFFFFFFFFFFFFFFFFFFFFFFFFF AND PUSH20 0xFFFFFFFFFFFFFFFFFFFFFFFFFFFFFFFFFFFFFFFF AND DUP2 MSTORE PUSH1 0x20 ADD SWAP1 DUP2 MSTORE PUSH1 0x20 ADD PUSH1 0x0 KECCAK256 PUSH1 0x0 PUSH2 0x100 EXP DUP2 SLOAD DUP2 PUSH1 0xFF MUL NOT AND SWAP1 DUP4 ISZERO ISZERO MUL OR SWAP1 SSTORE POP PUSH3 0x734 CALLER PUSH1 0x8 PUSH1 0x0 SWAP1 SLOAD SWAP1 PUSH2 0x100 EXP SWAP1 DIV PUSH20 0xFFFFFFFFFFFFFFFFFFFFFFFFFFFFFFFFFFFFFFFF AND PUSH32 0xFFFFFFFFFFFFFFFFFFFFFFFFFFFFFFFFFFFFFFFFFFFFFFFFFFFFFFFFFFFFFFFF PUSH3 0x85B PUSH1 0x20 SHL PUSH1 0x20 SHR JUMP JUMPDEST PUSH3 0x789 ADDRESS PUSH1 0x8 PUSH1 0x0 SWAP1 SLOAD SWAP1 PUSH2 0x100 EXP SWAP1 DIV PUSH20 0xFFFFFFFFFFFFFFFFFFFFFFFFFFFFFFFFFFFFFFFF AND PUSH32 0xFFFFFFFFFFFFFFFFFFFFFFFFFFFFFFFFFFFFFFFFFFFFFFFFFFFFFFFFFFFFFFFF PUSH3 0x85B PUSH1 0x20 SHL PUSH1 0x20 SHR JUMP JUMPDEST PUSH3 0xBCC JUMP JUMPDEST PUSH1 0x0 CALLER SWAP1 POP SWAP1 JUMP JUMPDEST PUSH1 0x0 DUP1 PUSH1 0x0 SWAP1 SLOAD SWAP1 PUSH2 0x100 EXP SWAP1 DIV PUSH20 0xFFFFFFFFFFFFFFFFFFFFFFFFFFFFFFFFFFFFFFFF AND SWAP1 POP DUP2 PUSH1 0x0 DUP1 PUSH2 0x100 EXP DUP2 SLOAD DUP2 PUSH20 0xFFFFFFFFFFFFFFFFFFFFFFFFFFFFFFFFFFFFFFFF MUL NOT AND SWAP1 DUP4 PUSH20 0xFFFFFFFFFFFFFFFFFFFFFFFFFFFFFFFFFFFFFFFF AND MUL OR SWAP1 SSTORE POP DUP2 PUSH20 0xFFFFFFFFFFFFFFFFFFFFFFFFFFFFFFFFFFFFFFFF AND DUP2 PUSH20 0xFFFFFFFFFFFFFFFFFFFFFFFFFFFFFFFFFFFFFFFF AND PUSH32 0x8BE0079C531659141344CD1FD0A4F28419497F9722A3DAAFE3B4186F6B6457E0 PUSH1 0x40 MLOAD PUSH1 0x40 MLOAD DUP1 SWAP2 SUB SWAP1 LOG3 POP POP JUMP JUMPDEST PUSH1 0x0 PUSH20 0xFFFFFFFFFFFFFFFFFFFFFFFFFFFFFFFFFFFFFFFF AND DUP4 PUSH20 0xFFFFFFFFFFFFFFFFFFFFFFFFFFFFFFFFFFFFFFFF AND SUB PUSH3 0x8CD JUMPI PUSH1 0x40 MLOAD PUSH32 0x8C379A000000000000000000000000000000000000000000000000000000000 DUP2 MSTORE PUSH1 0x4 ADD PUSH3 0x8C4 SWAP1 PUSH3 0xBAA JUMP JUMPDEST PUSH1 0x40 MLOAD DUP1 SWAP2 SUB SWAP1 REVERT JUMPDEST PUSH1 0x0 PUSH20 0xFFFFFFFFFFFFFFFFFFFFFFFFFFFFFFFFFFFFFFFF AND DUP3 PUSH20 0xFFFFFFFFFFFFFFFFFFFFFFFFFFFFFFFFFFFFFFFF AND SUB PUSH3 0x93F JUMPI PUSH1 0x40 MLOAD PUSH32 0x8C379A000000000000000000000000000000000000000000000000000000000 DUP2 MSTORE PUSH1 0x4 ADD PUSH3 0x936 SWAP1 PUSH3 0xBAA JUMP JUMPDEST PUSH1 0x40 MLOAD DUP1 SWAP2 SUB SWAP1 REVERT JUMPDEST DUP1 PUSH1 0x1 PUSH1 0x0 DUP6 PUSH20 0xFFFFFFFFFFFFFFFFFFFFFFFFFFFFFFFFFFFFFFFF AND PUSH20 0xFFFFFFFFFFFFFFFFFFFFFFFFFFFFFFFFFFFFFFFF AND DUP2 MSTORE PUSH1 0x20 ADD SWAP1 DUP2 MSTORE PUSH1 0x20 ADD PUSH1 0x0 KECCAK256 PUSH1 0x0 DUP5 PUSH20 0xFFFFFFFFFFFFFFFFFFFFFFFFFFFFFFFFFFFFFFFF AND PUSH20 0xFFFFFFFFFFFFFFFFFFFFFFFFFFFFFFFFFFFFFFFF AND DUP2 MSTORE PUSH1 0x20 ADD SWAP1 DUP2 MSTORE PUSH1 0x20 ADD PUSH1 0x0 KECCAK256 DUP2 SWAP1 SSTORE POP POP POP POP JUMP JUMPDEST PUSH1 0x0 DUP3 DUP3 MSTORE PUSH1 0x20 DUP3 ADD SWAP1 POP SWAP3 SWAP2 POP POP JUMP JUMPDEST PUSH32 0x436861696E206E6F742076616C69640000000000000000000000000000000000 PUSH1 0x0 DUP3 ADD MSTORE POP JUMP JUMPDEST PUSH1 0x0 PUSH3 0xA0E PUSH1 0xF DUP4 PUSH3 0x9C5 JUMP JUMPDEST SWAP2 POP PUSH3 0xA1B DUP3 PUSH3 0x9D6 JUMP JUMPDEST PUSH1 0x20 DUP3 ADD SWAP1 POP SWAP2 SWAP1 POP JUMP JUMPDEST PUSH1 0x0 PUSH1 0x20 DUP3 ADD SWAP1 POP DUP2 DUP2 SUB PUSH1 0x0 DUP4 ADD MSTORE PUSH3 0xA41 DUP2 PUSH3 0x9FF JUMP JUMPDEST SWAP1 POP SWAP2 SWAP1 POP JUMP JUMPDEST PUSH1 0x0 DUP2 SWAP1 POP SWAP2 SWAP1 POP JUMP JUMPDEST PUSH3 0xA5D DUP2 PUSH3 0xA48 JUMP JUMPDEST DUP3 MSTORE POP POP JUMP JUMPDEST PUSH1 0x0 PUSH1 0x20 DUP3 ADD SWAP1 POP PUSH3 0xA7A PUSH1 0x0 DUP4 ADD DUP5 PUSH3 0xA52 JUMP JUMPDEST SWAP3 SWAP2 POP POP JUMP JUMPDEST PUSH1 0x0 DUP1 REVERT JUMPDEST PUSH1 0x0 PUSH20 0xFFFFFFFFFFFFFFFFFFFFFFFFFFFFFFFFFFFFFFFF DUP3 AND SWAP1 POP SWAP2 SWAP1 POP JUMP JUMPDEST PUSH1 0x0 PUSH3 0xAB2 DUP3 PUSH3 0xA85 JUMP JUMPDEST SWAP1 POP SWAP2 SWAP1 POP JUMP JUMPDEST PUSH3 0xAC4 DUP2 PUSH3 0xAA5 JUMP JUMPDEST DUP2 EQ PUSH3 0xAD0 JUMPI PUSH1 0x0 DUP1 REVERT JUMPDEST POP JUMP JUMPDEST PUSH1 0x0 DUP2 MLOAD SWAP1 POP PUSH3 0xAE4 DUP2 PUSH3 0xAB9 JUMP JUMPDEST SWAP3 SWAP2 POP POP JUMP JUMPDEST PUSH1 0x0 PUSH1 0x20 DUP3 DUP5 SUB SLT ISZERO PUSH3 0xB03 JUMPI PUSH3 0xB02 PUSH3 0xA80 JUMP JUMPDEST JUMPDEST PUSH1 0x0 PUSH3 0xB13 DUP5 DUP3 DUP6 ADD PUSH3 0xAD3 JUMP JUMPDEST SWAP2 POP POP SWAP3 SWAP2 POP POP JUMP JUMPDEST PUSH3 0xB27 DUP2 PUSH3 0xAA5 JUMP JUMPDEST DUP3 MSTORE POP POP JUMP JUMPDEST PUSH1 0x0 PUSH1 0x40 DUP3 ADD SWAP1 POP PUSH3 0xB44 PUSH1 0x0 DUP4 ADD DUP6 PUSH3 0xB1C JUMP JUMPDEST PUSH3 0xB53 PUSH1 0x20 DUP4 ADD DUP5 PUSH3 0xB1C JUMP JUMPDEST SWAP4 SWAP3 POP POP POP JUMP JUMPDEST PUSH32 0x45524332303A205A65726F204164647265737300000000000000000000000000 PUSH1 0x0 DUP3 ADD MSTORE POP JUMP JUMPDEST PUSH1 0x0 PUSH3 0xB92 PUSH1 0x13 DUP4 PUSH3 0x9C5 JUMP JUMPDEST SWAP2 POP PUSH3 0xB9F DUP3 PUSH3 0xB5A JUMP JUMPDEST PUSH1 0x20 DUP3 ADD SWAP1 POP SWAP2 SWAP1 POP JUMP JUMPDEST PUSH1 0x0 PUSH1 0x20 DUP3 ADD SWAP1 POP DUP2 DUP2 SUB PUSH1 0x0 DUP4 ADD MSTORE PUSH3 0xBC5 DUP2 PUSH3 0xB83 JUMP JUMPDEST SWAP1 POP SWAP2 SWAP1 POP JUMP JUMPDEST PUSH2 0x3116 DUP1 PUSH3 0xBDC PUSH1 0x0 CODECOPY PUSH1 0x0 RETURN INVALID PUSH1 0x80 PUSH1 0x40 MSTORE PUSH1 0x4 CALLDATASIZE LT PUSH2 0x1D1 JUMPI PUSH1 0x0 CALLDATALOAD PUSH1 0xE0 SHR DUP1 PUSH4 0x54DE7BEE GT PUSH2 0xF7 JUMPI DUP1 PUSH4 0xA9059CBB GT PUSH2 0x95 JUMPI DUP1 PUSH4 0xDC9D75B0 GT PUSH2 0x64 JUMPI DUP1 PUSH4 0xDC9D75B0 EQ PUSH2 0x663 JUMPI DUP1 PUSH4 0xDD62ED3E EQ PUSH2 0x68E JUMPI DUP1 PUSH4 0xE9451F5F EQ PUSH2 0x6CB JUMPI DUP1 PUSH4 0xF2FDE38B EQ PUSH2 0x6F6 JUMPI PUSH2 0x1D8 JUMP JUMPDEST DUP1 PUSH4 0xA9059CBB EQ PUSH2 0x5A9 JUMPI DUP1 PUSH4 0xC31C9C07 EQ PUSH2 0x5E6 JUMPI DUP1 PUSH4 0xC4AB12B5 EQ PUSH2 0x611 JUMPI DUP1 PUSH4 0xD5914DC0 EQ PUSH2 0x63A JUMPI PUSH2 0x1D8 JUMP JUMPDEST DUP1 PUSH4 0x893D20E8 GT PUSH2 0xD1 JUMPI DUP1 PUSH4 0x893D20E8 EQ PUSH2 0x511 JUMPI DUP1 PUSH4 0x8A8C523C EQ PUSH2 0x53C JUMPI DUP1 PUSH4 0x8DA5CB5B EQ PUSH2 0x553 JUMPI DUP1 PUSH4 0x95D89B41 EQ PUSH2 0x57E JUMPI PUSH2 0x1D8 JUMP JUMPDEST DUP1 PUSH4 0x54DE7BEE EQ PUSH2 0x492 JUMPI DUP1 PUSH4 0x70A08231 EQ PUSH2 0x4BD JUMPI DUP1 PUSH4 0x715018A6 EQ PUSH2 0x4FA JUMPI PUSH2 0x1D8 JUMP JUMPDEST DUP1 PUSH4 0x18160DDD GT PUSH2 0x16F JUMPI DUP1 PUSH4 0x313CE567 GT PUSH2 0x13E JUMPI DUP1 PUSH4 0x313CE567 EQ PUSH2 0x3E8 JUMPI DUP1 PUSH4 0x3CD17C96 EQ PUSH2 0x413 JUMPI DUP1 PUSH4 0x3EAAF86B EQ PUSH2 0x43C JUMPI DUP1 PUSH4 0x452ED4F1 EQ PUSH2 0x467 JUMPI PUSH2 0x1D8 JUMP JUMPDEST DUP1 PUSH4 0x18160DDD EQ PUSH2 0x318 JUMPI DUP1 PUSH4 0x1DC36945 EQ PUSH2 0x343 JUMPI DUP1 PUSH4 0x23B872DD EQ PUSH2 0x36E JUMPI DUP1 PUSH4 0x27889862 EQ PUSH2 0x3AB JUMPI PUSH2 0x1D8 JUMP JUMPDEST DUP1 PUSH4 0x6FDDE03 GT PUSH2 0x1AB JUMPI DUP1 PUSH4 0x6FDDE03 EQ PUSH2 0x25E JUMPI DUP1 PUSH4 0x95EA7B3 EQ PUSH2 0x289 JUMPI DUP1 PUSH4 0xFABA554 EQ PUSH2 0x2C6 JUMPI DUP1 PUSH4 0x111A60B0 EQ PUSH2 0x2EF JUMPI PUSH2 0x1D8 JUMP JUMPDEST DUP1 PUSH4 0x3FD2A45 EQ PUSH2 0x1DD JUMPI DUP1 PUSH4 0x445B667 EQ PUSH2 0x208 JUMPI DUP1 PUSH4 0x64A59D0 EQ PUSH2 0x233 JUMPI PUSH2 0x1D8 JUMP JUMPDEST CALLDATASIZE PUSH2 0x1D8 JUMPI STOP JUMPDEST PUSH1 0x0 DUP1 REVERT JUMPDEST CALLVALUE DUP1 ISZERO PUSH2 0x1E9 JUMPI PUSH1 0x0 DUP1 REVERT JUMPDEST POP PUSH2 0x1F2 PUSH2 0x71F JUMP JUMPDEST PUSH1 0x40 MLOAD PUSH2 0x1FF SWAP2 SWAP1 PUSH2 0x2497 JUMP JUMPDEST PUSH1 0x40 MLOAD DUP1 SWAP2 SUB SWAP1 RETURN JUMPDEST CALLVALUE DUP1 ISZERO PUSH2 0x214 JUMPI PUSH1 0x0 DUP1 REVERT JUMPDEST POP PUSH2 0x21D PUSH2 0x725 JUMP JUMPDEST PUSH1 0x40 MLOAD PUSH2 0x22A SWAP2 SWAP1 PUSH2 0x24CB JUMP JUMPDEST PUSH1 0x40 MLOAD DUP1 SWAP2 SUB SWAP1 RETURN JUMPDEST CALLVALUE DUP1 ISZERO PUSH2 0x23F JUMPI PUSH1 0x0 DUP1 REVERT JUMPDEST POP PUSH2 0x248 PUSH2 0x740 JUMP JUMPDEST PUSH1 0x40 MLOAD PUSH2 0x255 SWAP2 SWAP1 PUSH2 0x2501 JUMP JUMPDEST PUSH1 0x40 MLOAD DUP1 SWAP2 SUB SWAP1 RETURN JUMPDEST CALLVALUE DUP1 ISZERO PUSH2 0x26A JUMPI PUSH1 0x0 DUP1 REVERT JUMPDEST POP PUSH2 0x273 PUSH2 0x753 JUMP JUMPDEST PUSH1 0x40 MLOAD PUSH2 0x280 SWAP2 SWAP1 PUSH2 0x25AC JUMP JUMPDEST PUSH1 0x40 MLOAD DUP1 SWAP2 SUB SWAP1 RETURN JUMPDEST CALLVALUE DUP1 ISZERO PUSH2 0x295 JUMPI PUSH1 0x0 DUP1 REVERT JUMPDEST POP PUSH2 0x2B0 PUSH1 0x4 DUP1 CALLDATASIZE SUB DUP2 ADD SWAP1 PUSH2 0x2AB SWAP2 SWAP1 PUSH2 0x262B JUMP JUMPDEST PUSH2 0x790 JUMP JUMPDEST PUSH1 0x40 MLOAD PUSH2 0x2BD SWAP2 SWAP1 PUSH2 0x2501 JUMP JUMPDEST PUSH1 0x40 MLOAD DUP1 SWAP2 SUB SWAP1 RETURN JUMPDEST CALLVALUE DUP1 ISZERO PUSH2 0x2D2 JUMPI PUSH1 0x0 DUP1 REVERT JUMPDEST POP PUSH2 0x2ED PUSH1 0x4 DUP1 CALLDATASIZE SUB DUP2 ADD SWAP1 PUSH2 0x2E8 SWAP2 SWAP1 PUSH2 0x2697 JUMP JUMPDEST PUSH2 0x7A7 JUMP JUMPDEST STOP JUMPDEST CALLVALUE DUP1 ISZERO PUSH2 0x2FB JUMPI PUSH1 0x0 DUP1 REVERT JUMPDEST POP PUSH2 0x316 PUSH1 0x4 DUP1 CALLDATASIZE SUB DUP2 ADD SWAP1 PUSH2 0x311 SWAP2 SWAP1 PUSH2 0x26D7 JUMP JUMPDEST PUSH2 0x87E JUMP JUMPDEST STOP JUMPDEST CALLVALUE DUP1 ISZERO PUSH2 0x324 JUMPI PUSH1 0x0 DUP1 REVERT JUMPDEST POP PUSH2 0x32D PUSH2 0x9A3 JUMP JUMPDEST PUSH1 0x40 MLOAD PUSH2 0x33A SWAP2 SWAP1 PUSH2 0x24CB JUMP JUMPDEST PUSH1 0x40 MLOAD DUP1 SWAP2 SUB SWAP1 RETURN JUMPDEST CALLVALUE DUP1 ISZERO PUSH2 0x34F JUMPI PUSH1 0x0 DUP1 REVERT JUMPDEST POP PUSH2 0x358 PUSH2 0x9CB JUMP JUMPDEST PUSH1 0x40 MLOAD PUSH2 0x365 SWAP2 SWAP1 PUSH2 0x24CB JUMP JUMPDEST PUSH1 0x40 MLOAD DUP1 SWAP2 SUB SWAP1 RETURN JUMPDEST CALLVALUE DUP1 ISZERO PUSH2 0x37A JUMPI PUSH1 0x0 DUP1 REVERT JUMPDEST POP PUSH2 0x395 PUSH1 0x4 DUP1 CALLDATASIZE SUB DUP2 ADD SWAP1 PUSH2 0x390 SWAP2 SWAP1 PUSH2 0x2704 JUMP JUMPDEST PUSH2 0x9D0 JUMP JUMPDEST PUSH1 0x40 MLOAD PUSH2 0x3A2 SWAP2 SWAP1 PUSH2 0x2501 JUMP JUMPDEST PUSH1 0x40 MLOAD DUP1 SWAP2 SUB SWAP1 RETURN JUMPDEST CALLVALUE DUP1 ISZERO PUSH2 0x3B7 JUMPI PUSH1 0x0 DUP1 REVERT JUMPDEST POP PUSH2 0x3D2 PUSH1 0x4 DUP1 CALLDATASIZE SUB DUP2 ADD SWAP1 PUSH2 0x3CD SWAP2 SWAP1 PUSH2 0x2757 JUMP JUMPDEST PUSH2 0xB1D JUMP JUMPDEST PUSH1 0x40 MLOAD PUSH2 0x3DF SWAP2 SWAP1 PUSH2 0x2501 JUMP JUMPDEST PUSH1 0x40 MLOAD DUP1 SWAP2 SUB SWAP1 RETURN JUMPDEST CALLVALUE DUP1 ISZERO PUSH2 0x3F4 JUMPI PUSH1 0x0 DUP1 REVERT JUMPDEST POP PUSH2 0x3FD PUSH2 0xB73 JUMP JUMPDEST PUSH1 0x40 MLOAD PUSH2 0x40A SWAP2 SWAP1 PUSH2 0x27A0 JUMP JUMPDEST PUSH1 0x40 MLOAD DUP1 SWAP2 SUB SWAP1 RETURN JUMPDEST CALLVALUE DUP1 ISZERO PUSH2 0x41F JUMPI PUSH1 0x0 DUP1 REVERT JUMPDEST POP PUSH2 0x43A PUSH1 0x4 DUP1 CALLDATASIZE SUB DUP2 ADD SWAP1 PUSH2 0x435 SWAP2 SWAP1 PUSH2 0x2697 JUMP JUMPDEST PUSH2 0xB92 JUMP JUMPDEST STOP JUMPDEST CALLVALUE DUP1 ISZERO PUSH2 0x448 JUMPI PUSH1 0x0 DUP1 REVERT JUMPDEST POP PUSH2 0x451 PUSH2 0xDE2 JUMP JUMPDEST PUSH1 0x40 MLOAD PUSH2 0x45E SWAP2 SWAP1 PUSH2 0x24CB JUMP JUMPDEST PUSH1 0x40 MLOAD DUP1 SWAP2 SUB SWAP1 RETURN JUMPDEST CALLVALUE DUP1 ISZERO PUSH2 0x473 JUMPI PUSH1 0x0 DUP1 REVERT JUMPDEST POP PUSH2 0x47C PUSH2 0xDF0 JUMP JUMPDEST PUSH1 0x40 MLOAD PUSH2 0x489 SWAP2 SWAP1 PUSH2 0x2497 JUMP JUMPDEST PUSH1 0x40 MLOAD DUP1 SWAP2 SUB SWAP1 RETURN JUMPDEST CALLVALUE DUP1 ISZERO PUSH2 0x49E JUMPI PUSH1 0x0 DUP1 REVERT JUMPDEST POP PUSH2 0x4A7 PUSH2 0xE16 JUMP JUMPDEST PUSH1 0x40 MLOAD PUSH2 0x4B4 SWAP2 SWAP1 PUSH2 0x24CB JUMP JUMPDEST PUSH1 0x40 MLOAD DUP1 SWAP2 SUB SWAP1 RETURN JUMPDEST CALLVALUE DUP1 ISZERO PUSH2 0x4C9 JUMPI PUSH1 0x0 DUP1 REVERT JUMPDEST POP PUSH2 0x4E4 PUSH1 0x4 DUP1 CALLDATASIZE SUB DUP2 ADD SWAP1 PUSH2 0x4DF SWAP2 SWAP1 PUSH2 0x2757 JUMP JUMPDEST PUSH2 0xE1B JUMP JUMPDEST PUSH1 0x40 MLOAD PUSH2 0x4F1 SWAP2 SWAP1 PUSH2 0x24CB JUMP JUMPDEST PUSH1 0x40 MLOAD DUP1 SWAP2 SUB SWAP1 RETURN JUMPDEST CALLVALUE DUP1 ISZERO PUSH2 0x506 JUMPI PUSH1 0x0 DUP1 REVERT JUMPDEST POP PUSH2 0x50F PUSH2 0xE64 JUMP JUMPDEST STOP JUMPDEST CALLVALUE DUP1 ISZERO PUSH2 0x51D JUMPI PUSH1 0x0 DUP1 REVERT JUMPDEST POP PUSH2 0x526 PUSH2 0xEEC JUMP JUMPDEST PUSH1 0x40 MLOAD PUSH2 0x533 SWAP2 SWAP1 PUSH2 0x2497 JUMP JUMPDEST PUSH1 0x40 MLOAD DUP1 SWAP2 SUB SWAP1 RETURN JUMPDEST CALLVALUE DUP1 ISZERO PUSH2 0x548 JUMPI PUSH1 0x0 DUP1 REVERT JUMPDEST POP PUSH2 0x551 PUSH2 0xEFB JUMP JUMPDEST STOP JUMPDEST CALLVALUE DUP1 ISZERO PUSH2 0x55F JUMPI PUSH1 0x0 DUP1 REVERT JUMPDEST POP PUSH2 0x568 PUSH2 0x1010 JUMP JUMPDEST PUSH1 0x40 MLOAD PUSH2 0x575 SWAP2 SWAP1 PUSH2 0x2497 JUMP JUMPDEST PUSH1 0x40 MLOAD DUP1 SWAP2 SUB SWAP1 RETURN JUMPDEST CALLVALUE DUP1 ISZERO PUSH2 0x58A JUMPI PUSH1 0x0 DUP1 REVERT JUMPDEST POP PUSH2 0x593 PUSH2 0x1039 JUMP JUMPDEST PUSH1 0x40 MLOAD PUSH2 0x5A0 SWAP2 SWAP1 PUSH2 0x25AC JUMP JUMPDEST PUSH1 0x40 MLOAD DUP1 SWAP2 SUB SWAP1 RETURN JUMPDEST CALLVALUE DUP1 ISZERO PUSH2 0x5B5 JUMPI PUSH1 0x0 DUP1 REVERT JUMPDEST POP PUSH2 0x5D0 PUSH1 0x4 DUP1 CALLDATASIZE SUB DUP2 ADD SWAP1 PUSH2 0x5CB SWAP2 SWAP1 PUSH2 0x262B JUMP JUMPDEST PUSH2 0x1076 JUMP JUMPDEST PUSH1 0x40 MLOAD PUSH2 0x5DD SWAP2 SWAP1 PUSH2 0x2501 JUMP JUMPDEST PUSH1 0x40 MLOAD DUP1 SWAP2 SUB SWAP1 RETURN JUMPDEST CALLVALUE DUP1 ISZERO PUSH2 0x5F2 JUMPI PUSH1 0x0 DUP1 REVERT JUMPDEST POP PUSH2 0x5FB PUSH2 0x108E JUMP JUMPDEST PUSH1 0x40 MLOAD PUSH2 0x608 SWAP2 SWAP1 PUSH2 0x281A JUMP JUMPDEST PUSH1 0x40 MLOAD DUP1 SWAP2 SUB SWAP1 RETURN JUMPDEST CALLVALUE DUP1 ISZERO PUSH2 0x61D JUMPI PUSH1 0x0 DUP1 REVERT JUMPDEST POP PUSH2 0x638 PUSH1 0x4 DUP1 CALLDATASIZE SUB DUP2 ADD SWAP1 PUSH2 0x633 SWAP2 SWAP1 PUSH2 0x2757 JUMP JUMPDEST PUSH2 0x10B4 JUMP JUMPDEST STOP JUMPDEST CALLVALUE DUP1 ISZERO PUSH2 0x646 JUMPI PUSH1 0x0 DUP1 REVERT JUMPDEST POP PUSH2 0x661 PUSH1 0x4 DUP1 CALLDATASIZE SUB DUP2 ADD SWAP1 PUSH2 0x65C SWAP2 SWAP1 PUSH2 0x2757 JUMP JUMPDEST PUSH2 0x11AB JUMP JUMPDEST STOP JUMPDEST CALLVALUE DUP1 ISZERO PUSH2 0x66F JUMPI PUSH1 0x0 DUP1 REVERT JUMPDEST POP PUSH2 0x678 PUSH2 0x12B9 JUMP JUMPDEST PUSH1 0x40 MLOAD PUSH2 0x685 SWAP2 SWAP1 PUSH2 0x24CB JUMP JUMPDEST PUSH1 0x40 MLOAD DUP1 SWAP2 SUB SWAP1 RETURN JUMPDEST CALLVALUE DUP1 ISZERO PUSH2 0x69A JUMPI PUSH1 0x0 DUP1 REVERT JUMPDEST POP PUSH2 0x6B5 PUSH1 0x4 DUP1 CALLDATASIZE SUB DUP2 ADD SWAP1 PUSH2 0x6B0 SWAP2 SWAP1 PUSH2 0x2835 JUMP JUMPDEST PUSH2 0x12BF JUMP JUMPDEST PUSH1 0x40 MLOAD PUSH2 0x6C2 SWAP2 SWAP1 PUSH2 0x24CB JUMP JUMPDEST PUSH1 0x40 MLOAD DUP1 SWAP2 SUB SWAP1 RETURN JUMPDEST CALLVALUE DUP1 ISZERO PUSH2 0x6D7 JUMPI PUSH1 0x0 DUP1 REVERT JUMPDEST POP PUSH2 0x6E0 PUSH2 0x1346 JUMP JUMPDEST PUSH1 0x40 MLOAD PUSH2 0x6ED SWAP2 SWAP1 PUSH2 0x24CB JUMP JUMPDEST PUSH1 0x40 MLOAD DUP1 SWAP2 SUB SWAP1 RETURN JUMPDEST CALLVALUE DUP1 ISZERO PUSH2 0x702 JUMPI PUSH1 0x0 DUP1 REVERT JUMPDEST POP PUSH2 0x71D PUSH1 0x4 DUP1 CALLDATASIZE SUB DUP2 ADD SWAP1 PUSH2 0x718 SWAP2 SWAP1 PUSH2 0x2757 JUMP JUMPDEST PUSH2 0x134B JUMP JUMPDEST STOP JUMPDEST PUSH2 0xDEAD DUP2 JUMP JUMPDEST PUSH2 0x1388 PUSH10 0x5915A68D88DA6A080000 PUSH2 0x73D SWAP2 SWAP1 PUSH2 0x28D3 JUMP JUMPDEST DUP2 JUMP JUMPDEST PUSH1 0x9 PUSH1 0x14 SWAP1 SLOAD SWAP1 PUSH2 0x100 EXP SWAP1 DIV PUSH1 0xFF AND DUP2 JUMP JUMPDEST PUSH1 0x60 PUSH1 0x40 MLOAD DUP1 PUSH1 0x40 ADD PUSH1 0x40 MSTORE DUP1 PUSH1 0x7 DUP2 MSTORE PUSH1 0x20 ADD PUSH32 0x50696720322E3000000000000000000000000000000000000000000000000000 DUP2 MSTORE POP SWAP1 POP SWAP1 JUMP JUMPDEST PUSH1 0x0 PUSH2 0x79D CALLER DUP5 DUP5 PUSH2 0x1442 JUMP JUMPDEST PUSH1 0x1 SWAP1 POP SWAP3 SWAP2 POP POP JUMP JUMPDEST PUSH2 0x7AF PUSH2 0x15A6 JUMP JUMPDEST PUSH20 0xFFFFFFFFFFFFFFFFFFFFFFFFFFFFFFFFFFFFFFFF AND PUSH2 0x7CD PUSH2 0x1010 JUMP JUMPDEST PUSH20 0xFFFFFFFFFFFFFFFFFFFFFFFFFFFFFFFFFFFFFFFF AND EQ PUSH2 0x823 JUMPI PUSH1 0x40 MLOAD PUSH32 0x8C379A000000000000000000000000000000000000000000000000000000000 DUP2 MSTORE PUSH1 0x4 ADD PUSH2 0x81A SWAP1 PUSH2 0x2950 JUMP JUMPDEST PUSH1 0x40 MLOAD DUP1 SWAP2 SUB SWAP1 REVERT JUMPDEST DUP1 PUSH1 0x2 PUSH1 0x0 DUP5 PUSH20 0xFFFFFFFFFFFFFFFFFFFFFFFFFFFFFFFFFFFFFFFF AND PUSH20 0xFFFFFFFFFFFFFFFFFFFFFFFFFFFFFFFFFFFFFFFF AND DUP2 MSTORE PUSH1 0x20 ADD SWAP1 DUP2 MSTORE PUSH1 0x20 ADD PUSH1 0x0 KECCAK256 PUSH1 0x0 PUSH2 0x100 EXP DUP2 SLOAD DUP2 PUSH1 0xFF MUL NOT AND SWAP1 DUP4 ISZERO ISZERO MUL OR SWAP1 SSTORE POP POP POP JUMP JUMPDEST PUSH2 0x886 PUSH2 0x15A6 JUMP JUMPDEST PUSH20 0xFFFFFFFFFFFFFFFFFFFFFFFFFFFFFFFFFFFFFFFF AND PUSH2 0x8A4 PUSH2 0x1010 JUMP JUMPDEST PUSH20 0xFFFFFFFFFFFFFFFFFFFFFFFFFFFFFFFFFFFFFFFF AND EQ PUSH2 0x8FA JUMPI PUSH1 0x40 MLOAD PUSH32 0x8C379A000000000000000000000000000000000000000000000000000000000 DUP2 MSTORE PUSH1 0x4 ADD PUSH2 0x8F1 SWAP1 PUSH2 0x2950 JUMP JUMPDEST PUSH1 0x40 MLOAD DUP1 SWAP2 SUB SWAP1 REVERT JUMPDEST DUP1 ISZERO ISZERO PUSH1 0x7 PUSH1 0x0 SWAP1 SLOAD SWAP1 PUSH2 0x100 EXP SWAP1 DIV PUSH1 0xFF AND ISZERO ISZERO SUB PUSH2 0x94F JUMPI PUSH1 0x40 MLOAD PUSH32 0x8C379A000000000000000000000000000000000000000000000000000000000 DUP2 MSTORE PUSH1 0x4 ADD PUSH2 0x946 SWAP1 PUSH2 0x29BC JUMP JUMPDEST PUSH1 0x40 MLOAD DUP1 SWAP2 SUB SWAP1 REVERT JUMPDEST DUP1 PUSH1 0x7 PUSH1 0x0 PUSH2 0x100 EXP DUP2 SLOAD DUP2 PUSH1 0xFF MUL NOT AND SWAP1 DUP4 ISZERO ISZERO MUL OR SWAP1 SSTORE POP PUSH32 0x4686EEA8D0EA8D72497B77F908906325D7BBAFD9F1D6753522573258958656E8 DUP2 PUSH1 0x40 MLOAD PUSH2 0x998 SWAP2 SWAP1 PUSH2 0x2501 JUMP JUMPDEST PUSH1 0x40 MLOAD DUP1 SWAP2 SUB SWAP1 LOG1 POP JUMP JUMPDEST PUSH1 0x0 DUP1 PUSH10 0x5915A68D88DA6A080000 SUB PUSH2 0x9BB JUMPI PUSH1 0x0 DUP1 REVERT JUMPDEST PUSH10 0x5915A68D88DA6A080000 SWAP1 POP SWAP1 JUMP JUMPDEST PUSH1 0xA DUP2 JUMP JUMPDEST PUSH1 0x0 PUSH32 0xFFFFFFFFFFFFFFFFFFFFFFFFFFFFFFFFFFFFFFFFFFFFFFFFFFFFFFFFFFFFFFFF PUSH1 0x1 PUSH1 0x0 DUP7 PUSH20 0xFFFFFFFFFFFFFFFFFFFFFFFFFFFFFFFFFFFFFFFF AND PUSH20 0xFFFFFFFFFFFFFFFFFFFFFFFFFFFFFFFFFFFFFFFF AND DUP2 MSTORE PUSH1 0x20 ADD SWAP1 DUP2 MSTORE PUSH1 0x20 ADD PUSH1 0x0 KECCAK256 PUSH1 0x0 CALLER PUSH20 0xFFFFFFFFFFFFFFFFFFFFFFFFFFFFFFFFFFFFFFFF AND PUSH20 0xFFFFFFFFFFFFFFFFFFFFFFFFFFFFFFFFFFFFFFFF AND DUP2 MSTORE PUSH1 0x20 ADD SWAP1 DUP2 MSTORE PUSH1 0x20 ADD PUSH1 0x0 KECCAK256 SLOAD EQ PUSH2 0xB09 JUMPI DUP2 PUSH1 0x1 PUSH1 0x0 DUP7 PUSH20 0xFFFFFFFFFFFFFFFFFFFFFFFFFFFFFFFFFFFFFFFF AND PUSH20 0xFFFFFFFFFFFFFFFFFFFFFFFFFFFFFFFFFFFFFFFF AND DUP2 MSTORE PUSH1 0x20 ADD SWAP1 DUP2 MSTORE PUSH1 0x20 ADD PUSH1 0x0 KECCAK256 PUSH1 0x0 CALLER PUSH20 0xFFFFFFFFFFFFFFFFFFFFFFFFFFFFFFFFFFFFFFFF AND PUSH20 0xFFFFFFFFFFFFFFFFFFFFFFFFFFFFFFFFFFFFFFFF AND DUP2 MSTORE PUSH1 0x20 ADD SWAP1 DUP2 MSTORE PUSH1 0x20 ADD PUSH1 0x0 KECCAK256 PUSH1 0x0 DUP3 DUP3 SLOAD PUSH2 0xB01 SWAP2 SWAP1 PUSH2 0x29DC JUMP JUMPDEST SWAP3 POP POP DUP2 SWAP1 SSTORE POP JUMPDEST PUSH2 0xB14 DUP5 DUP5 DUP5 PUSH2 0x15AE JUMP JUMPDEST SWAP1 POP SWAP4 SWAP3 POP POP POP JUMP JUMPDEST PUSH1 0x0 PUSH1 0x2 PUSH1 0x0 DUP4 PUSH20 0xFFFFFFFFFFFFFFFFFFFFFFFFFFFFFFFFFFFFFFFF AND PUSH20 0xFFFFFFFFFFFFFFFFFFFFFFFFFFFFFFFFFFFFFFFF AND DUP2 MSTORE PUSH1 0x20 ADD SWAP1 DUP2 MSTORE PUSH1 0x20 ADD PUSH1 0x0 KECCAK256 PUSH1 0x0 SWAP1 SLOAD SWAP1 PUSH2 0x100 EXP SWAP1 DIV PUSH1 0xFF AND SWAP1 POP SWAP2 SWAP1 POP JUMP JUMPDEST PUSH1 0x0 DUP1 PUSH10 0x5915A68D88DA6A080000 SUB PUSH2 0xB8B JUMPI PUSH1 0x0 DUP1 REVERT JUMPDEST PUSH1 0x9 SWAP1 POP SWAP1 JUMP JUMPDEST PUSH2 0xB9A PUSH2 0x15A6 JUMP JUMPDEST PUSH20 0xFFFFFFFFFFFFFFFFFFFFFFFFFFFFFFFFFFFFFFFF AND PUSH2 0xBB8 PUSH2 0x1010 JUMP JUMPDEST PUSH20 0xFFFFFFFFFFFFFFFFFFFFFFFFFFFFFFFFFFFFFFFF AND EQ PUSH2 0xC0E JUMPI PUSH1 0x40 MLOAD PUSH32 0x8C379A000000000000000000000000000000000000000000000000000000000 DUP2 MSTORE PUSH1 0x4 ADD PUSH2 0xC05 SWAP1 PUSH2 0x2950 JUMP JUMPDEST PUSH1 0x40 MLOAD DUP1 SWAP2 SUB SWAP1 REVERT JUMPDEST DUP1 ISZERO ISZERO PUSH1 0x5 PUSH1 0x0 DUP5 PUSH20 0xFFFFFFFFFFFFFFFFFFFFFFFFFFFFFFFFFFFFFFFF AND PUSH20 0xFFFFFFFFFFFFFFFFFFFFFFFFFFFFFFFFFFFFFFFF AND DUP2 MSTORE PUSH1 0x20 ADD SWAP1 DUP2 MSTORE PUSH1 0x20 ADD PUSH1 0x0 KECCAK256 PUSH1 0x0 SWAP1 SLOAD SWAP1 PUSH2 0x100 EXP SWAP1 DIV PUSH1 0xFF AND ISZERO ISZERO SUB PUSH2 0xCA0 JUMPI PUSH1 0x40 MLOAD PUSH32 0x8C379A000000000000000000000000000000000000000000000000000000000 DUP2 MSTORE PUSH1 0x4 ADD PUSH2 0xC97 SWAP1 PUSH2 0x2A5C JUMP JUMPDEST PUSH1 0x40 MLOAD DUP1 SWAP2 SUB SWAP1 REVERT JUMPDEST DUP1 PUSH1 0x5 PUSH1 0x0 DUP5 PUSH20 0xFFFFFFFFFFFFFFFFFFFFFFFFFFFFFFFFFFFFFFFF AND PUSH20 0xFFFFFFFFFFFFFFFFFFFFFFFFFFFFFFFFFFFFFFFF AND DUP2 MSTORE PUSH1 0x20 ADD SWAP1 DUP2 MSTORE PUSH1 0x20 ADD PUSH1 0x0 KECCAK256 PUSH1 0x0 PUSH2 0x100 EXP DUP2 SLOAD DUP2 PUSH1 0xFF MUL NOT AND SWAP1 DUP4 ISZERO ISZERO MUL OR SWAP1 SSTORE POP DUP1 PUSH1 0x2 PUSH1 0x0 DUP5 PUSH20 0xFFFFFFFFFFFFFFFFFFFFFFFFFFFFFFFFFFFFFFFF AND PUSH20 0xFFFFFFFFFFFFFFFFFFFFFFFFFFFFFFFFFFFFFFFF AND DUP2 MSTORE PUSH1 0x20 ADD SWAP1 DUP2 MSTORE PUSH1 0x20 ADD PUSH1 0x0 KECCAK256 PUSH1 0x0 PUSH2 0x100 EXP DUP2 SLOAD DUP2 PUSH1 0xFF MUL NOT AND SWAP1 DUP4 ISZERO ISZERO MUL OR SWAP1 SSTORE POP DUP1 PUSH1 0x3 PUSH1 0x0 DUP5 PUSH20 0xFFFFFFFFFFFFFFFFFFFFFFFFFFFFFFFFFFFFFFFF AND PUSH20 0xFFFFFFFFFFFFFFFFFFFFFFFFFFFFFFFFFFFFFFFF AND DUP2 MSTORE PUSH1 0x20 ADD SWAP1 DUP2 MSTORE PUSH1 0x20 ADD PUSH1 0x0 KECCAK256 PUSH1 0x0 PUSH2 0x100 EXP DUP2 SLOAD DUP2 PUSH1 0xFF MUL NOT AND SWAP1 DUP4 ISZERO ISZERO MUL OR SWAP1 SSTORE POP PUSH32 0x7F7F90CB020C1DEB8939C26CF0790751E539157B1FD2039166FCD09A8B764513 DUP3 DUP3 PUSH1 0x40 MLOAD PUSH2 0xDD6 SWAP3 SWAP2 SWAP1 PUSH2 0x2A7C JUMP JUMPDEST PUSH1 0x40 MLOAD DUP1 SWAP2 SUB SWAP1 LOG1 POP POP JUMP JUMPDEST PUSH10 0x5915A68D88DA6A080000 DUP2 JUMP JUMPDEST PUSH1 0x9 PUSH1 0x0 SWAP1 SLOAD SWAP1 PUSH2 0x100 EXP SWAP1 DIV PUSH20 0xFFFFFFFFFFFFFFFFFFFFFFFFFFFFFFFFFFFFFFFF AND DUP2 JUMP JUMPDEST PUSH1 0x0 DUP2 JUMP JUMPDEST PUSH1 0x0 PUSH1 0x6 PUSH1 0x0 DUP4 PUSH20 0xFFFFFFFFFFFFFFFFFFFFFFFFFFFFFFFFFFFFFFFF AND PUSH20 0xFFFFFFFFFFFFFFFFFFFFFFFFFFFFFFFFFFFFFFFF AND DUP2 MSTORE PUSH1 0x20 ADD SWAP1 DUP2 MSTORE PUSH1 0x20 ADD PUSH1 0x0 KECCAK256 SLOAD SWAP1 POP SWAP2 SWAP1 POP JUMP JUMPDEST PUSH2 0xE6C PUSH2 0x15A6 JUMP JUMPDEST PUSH20 0xFFFFFFFFFFFFFFFFFFFFFFFFFFFFFFFFFFFFFFFF AND PUSH2 0xE8A PUSH2 0x1010 JUMP JUMPDEST PUSH20 0xFFFFFFFFFFFFFFFFFFFFFFFFFFFFFFFFFFFFFFFF AND EQ PUSH2 0xEE0 JUMPI PUSH1 0x40 MLOAD PUSH32 0x8C379A000000000000000000000000000000000000000000000000000000000 DUP2 MSTORE PUSH1 0x4 ADD PUSH2 0xED7 SWAP1 PUSH2 0x2950 JUMP JUMPDEST PUSH1 0x40 MLOAD DUP1 SWAP2 SUB SWAP1 REVERT JUMPDEST PUSH2 0xEEA PUSH1 0x0 PUSH2 0x199D JUMP JUMPDEST JUMP JUMPDEST PUSH1 0x0 PUSH2 0xEF6 PUSH2 0x1010 JUMP JUMPDEST SWAP1 POP SWAP1 JUMP JUMPDEST PUSH2 0xF03 PUSH2 0x15A6 JUMP JUMPDEST PUSH20 0xFFFFFFFFFFFFFFFFFFFFFFFFFFFFFFFFFFFFFFFF AND PUSH2 0xF21 PUSH2 0x1010 JUMP JUMPDEST PUSH20 0xFFFFFFFFFFFFFFFFFFFFFFFFFFFFFFFFFFFFFFFF AND EQ PUSH2 0xF77 JUMPI PUSH1 0x40 MLOAD PUSH32 0x8C379A000000000000000000000000000000000000000000000000000000000 DUP2 MSTORE PUSH1 0x4 ADD PUSH2 0xF6E SWAP1 PUSH2 0x2950 JUMP JUMPDEST PUSH1 0x40 MLOAD DUP1 SWAP2 SUB SWAP1 REVERT JUMPDEST PUSH1 0x9 PUSH1 0x14 SWAP1 SLOAD SWAP1 PUSH2 0x100 EXP SWAP1 DIV PUSH1 0xFF AND ISZERO PUSH2 0xFC7 JUMPI PUSH1 0x40 MLOAD PUSH32 0x8C379A000000000000000000000000000000000000000000000000000000000 DUP2 MSTORE PUSH1 0x4 ADD PUSH2 0xFBE SWAP1 PUSH2 0x2AF1 JUMP JUMPDEST PUSH1 0x40 MLOAD DUP1 SWAP2 SUB SWAP1 REVERT JUMPDEST PUSH1 0x1 PUSH1 0x9 PUSH1 0x14 PUSH2 0x100 EXP DUP2 SLOAD DUP2 PUSH1 0xFF MUL NOT AND SWAP1 DUP4 ISZERO ISZERO MUL OR SWAP1 SSTORE POP PUSH32 0xA0AC5E19CA3A09AF9A3A13C5C51F911C89EEFD4B9EB548F4766B991B14AD6868 PUSH1 0x40 MLOAD PUSH1 0x40 MLOAD DUP1 SWAP2 SUB SWAP1 LOG1 JUMP JUMPDEST PUSH1 0x0 DUP1 PUSH1 0x0 SWAP1 SLOAD SWAP1 PUSH2 0x100 EXP SWAP1 DIV PUSH20 0xFFFFFFFFFFFFFFFFFFFFFFFFFFFFFFFFFFFFFFFF AND SWAP1 POP SWAP1 JUMP JUMPDEST PUSH1 0x60 PUSH1 0x40 MLOAD DUP1 PUSH1 0x40 ADD PUSH1 0x40 MSTORE DUP1 PUSH1 0x6 DUP2 MSTORE PUSH1 0x20 ADD PUSH32 0x504947322E300000000000000000000000000000000000000000000000000000 DUP2 MSTORE POP SWAP1 POP SWAP1 JUMP JUMPDEST PUSH1 0x0 PUSH2 0x1083 CALLER DUP5 DUP5 PUSH2 0x15AE JUMP JUMPDEST POP PUSH1 0x1 SWAP1 POP SWAP3 SWAP2 POP POP JUMP JUMPDEST PUSH1 0x8 PUSH1 0x0 SWAP1 SLOAD SWAP1 PUSH2 0x100 EXP SWAP1 DIV PUSH20 0xFFFFFFFFFFFFFFFFFFFFFFFFFFFFFFFFFFFFFFFF AND DUP2 JUMP JUMPDEST PUSH2 0x10BC PUSH2 0x15A6 JUMP JUMPDEST PUSH20 0xFFFFFFFFFFFFFFFFFFFFFFFFFFFFFFFFFFFFFFFF AND PUSH2 0x10DA PUSH2 0x1010 JUMP JUMPDEST PUSH20 0xFFFFFFFFFFFFFFFFFFFFFFFFFFFFFFFFFFFFFFFF AND EQ PUSH2 0x1130 JUMPI PUSH1 0x40 MLOAD PUSH32 0x8C379A000000000000000000000000000000000000000000000000000000000 DUP2 MSTORE PUSH1 0x4 ADD PUSH2 0x1127 SWAP1 PUSH2 0x2950 JUMP JUMPDEST PUSH1 0x40 MLOAD DUP1 SWAP2 SUB SWAP1 REVERT JUMPDEST DUP1 PUSH1 0x7 PUSH1 0x1 PUSH2 0x100 EXP DUP2 SLOAD DUP2 PUSH20 0xFFFFFFFFFFFFFFFFFFFFFFFFFFFFFFFFFFFFFFFF MUL NOT AND SWAP1 DUP4 PUSH20 0xFFFFFFFFFFFFFFFFFFFFFFFFFFFFFFFFFFFFFFFF AND MUL OR SWAP1 SSTORE POP PUSH32 0xB074145DAC98CBF04C5E3A6D58501E8E3AA6EB107008EC598AF2309AE5179DFE DUP2 PUSH1 0x40 MLOAD PUSH2 0x11A0 SWAP2 SWAP1 PUSH2 0x2497 JUMP JUMPDEST PUSH1 0x40 MLOAD DUP1 SWAP2 SUB SWAP1 LOG1 POP JUMP JUMPDEST PUSH2 0x11B3 PUSH2 0x15A6 JUMP JUMPDEST PUSH20 0xFFFFFFFFFFFFFFFFFFFFFFFFFFFFFFFFFFFFFFFF AND PUSH2 0x11D1 PUSH2 0x1010 JUMP JUMPDEST PUSH20 0xFFFFFFFFFFFFFFFFFFFFFFFFFFFFFFFFFFFFFFFF AND EQ PUSH2 0x1227 JUMPI PUSH1 0x40 MLOAD PUSH32 0x8C379A000000000000000000000000000000000000000000000000000000000 DUP2 MSTORE PUSH1 0x4 ADD PUSH2 0x121E SWAP1 PUSH2 0x2950 JUMP JUMPDEST PUSH1 0x40 MLOAD DUP1 SWAP2 SUB SWAP1 REVERT JUMPDEST PUSH1 0x1 PUSH1 0x4 PUSH1 0x0 DUP4 PUSH20 0xFFFFFFFFFFFFFFFFFFFFFFFFFFFFFFFFFFFFFFFF AND PUSH20 0xFFFFFFFFFFFFFFFFFFFFFFFFFFFFFFFFFFFFFFFF AND DUP2 MSTORE PUSH1 0x20 ADD SWAP1 DUP2 MSTORE PUSH1 0x20 ADD PUSH1 0x0 KECCAK256 PUSH1 0x0 PUSH2 0x100 EXP DUP2 SLOAD DUP2 PUSH1 0xFF MUL NOT AND SWAP1 DUP4 ISZERO ISZERO MUL OR SWAP1 SSTORE POP PUSH32 0x3B62011431502C791D443EE6149C9EC9B43632AEB5EB55C621104C128FE02F7 DUP2 PUSH1 0x40 MLOAD PUSH2 0x12AE SWAP2 SWAP1 PUSH2 0x2497 JUMP JUMPDEST PUSH1 0x40 MLOAD DUP1 SWAP2 SUB SWAP1 LOG1 POP JUMP JUMPDEST PUSH2 0x3E8 DUP2 JUMP JUMPDEST PUSH1 0x0 PUSH1 0x1 PUSH1 0x0 DUP5 PUSH20 0xFFFFFFFFFFFFFFFFFFFFFFFFFFFFFFFFFFFFFFFF AND PUSH20 0xFFFFFFFFFFFFFFFFFFFFFFFFFFFFFFFFFFFFFFFF AND DUP2 MSTORE PUSH1 0x20 ADD SWAP1 DUP2 MSTORE PUSH1 0x20 ADD PUSH1 0x0 KECCAK256 PUSH1 0x0 DUP4 PUSH20 0xFFFFFFFFFFFFFFFFFFFFFFFFFFFFFFFFFFFFFFFF AND PUSH20 0xFFFFFFFFFFFFFFFFFFFFFFFFFFFFFFFFFFFFFFFF AND DUP2 MSTORE PUSH1 0x20 ADD SWAP1 DUP2 MSTORE PUSH1 0x20 ADD PUSH1 0x0 KECCAK256 SLOAD SWAP1 POP SWAP3 SWAP2 POP POP JUMP JUMPDEST PUSH1 0xA DUP2 JUMP JUMPDEST PUSH2 0x1353 PUSH2 0x15A6 JUMP JUMPDEST PUSH20 0xFFFFFFFFFFFFFFFFFFFFFFFFFFFFFFFFFFFFFFFF AND PUSH2 0x1371 PUSH2 0x1010 JUMP JUMPDEST PUSH20 0xFFFFFFFFFFFFFFFFFFFFFFFFFFFFFFFFFFFFFFFF AND EQ PUSH2 0x13C7 JUMPI PUSH1 0x40 MLOAD PUSH32 0x8C379A000000000000000000000000000000000000000000000000000000000 DUP2 MSTORE PUSH1 0x4 ADD PUSH2 0x13BE SWAP1 PUSH2 0x2950 JUMP JUMPDEST PUSH1 0x40 MLOAD DUP1 SWAP2 SUB SWAP1 REVERT JUMPDEST PUSH1 0x0 PUSH20 0xFFFFFFFFFFFFFFFFFFFFFFFFFFFFFFFFFFFFFFFF AND DUP2 PUSH20 0xFFFFFFFFFFFFFFFFFFFFFFFFFFFFFFFFFFFFFFFF AND SUB PUSH2 0x1436 JUMPI PUSH1 0x40 MLOAD PUSH32 0x8C379A000000000000000000000000000000000000000000000000000000000 DUP2 MSTORE PUSH1 0x4 ADD PUSH2 0x142D SWAP1 PUSH2 0x2B83 JUMP JUMPDEST PUSH1 0x40 MLOAD DUP1 SWAP2 SUB SWAP1 REVERT JUMPDEST PUSH2 0x143F DUP2 PUSH2 0x199D JUMP JUMPDEST POP JUMP JUMPDEST PUSH1 0x0 PUSH20 0xFFFFFFFFFFFFFFFFFFFFFFFFFFFFFFFFFFFFFFFF AND DUP4 PUSH20 0xFFFFFFFFFFFFFFFFFFFFFFFFFFFFFFFFFFFFFFFF AND SUB PUSH2 0x14B1 JUMPI PUSH1 0x40 MLOAD PUSH32 0x8C379A000000000000000000000000000000000000000000000000000000000 DUP2 MSTORE PUSH1 0x4 ADD PUSH2 0x14A8 SWAP1 PUSH2 0x2BEF JUMP JUMPDEST PUSH1 0x40 MLOAD DUP1 SWAP2 SUB SWAP1 REVERT JUMPDEST PUSH1 0x0 PUSH20 0xFFFFFFFFFFFFFFFFFFFFFFFFFFFFFFFFFFFFFFFF AND DUP3 PUSH20 0xFFFFFFFFFFFFFFFFFFFFFFFFFFFFFFFFFFFFFFFF AND SUB PUSH2 0x1520 JUMPI PUSH1 0x40 MLOAD PUSH32 0x8C379A000000000000000000000000000000000000000000000000000000000 DUP2 MSTORE PUSH1 0x4 ADD PUSH2 0x1517 SWAP1 PUSH2 0x2BEF JUMP JUMPDEST PUSH1 0x40 MLOAD DUP1 SWAP2 SUB SWAP1 REVERT JUMPDEST DUP1 PUSH1 0x1 PUSH1 0x0 DUP6 PUSH20 0xFFFFFFFFFFFFFFFFFFFFFFFFFFFFFFFFFFFFFFFF AND PUSH20 0xFFFFFFFFFFFFFFFFFFFFFFFFFFFFFFFFFFFFFFFF AND DUP2 MSTORE PUSH1 0x20 ADD SWAP1 DUP2 MSTORE PUSH1 0x20 ADD PUSH1 0x0 KECCAK256 PUSH1 0x0 DUP5 PUSH20 0xFFFFFFFFFFFFFFFFFFFFFFFFFFFFFFFFFFFFFFFF AND PUSH20 0xFFFFFFFFFFFFFFFFFFFFFFFFFFFFFFFFFFFFFFFF AND DUP2 MSTORE PUSH1 0x20 ADD SWAP1 DUP2 MSTORE PUSH1 0x20 ADD PUSH1 0x0 KECCAK256 DUP2 SWAP1 SSTORE POP POP POP POP JUMP JUMPDEST PUSH1 0x0 CALLER SWAP1 POP SWAP1 JUMP JUMPDEST PUSH1 0x0 DUP1 PUSH1 0x1 SWAP1 POP PUSH1 0x0 PUSH20 0xFFFFFFFFFFFFFFFFFFFFFFFFFFFFFFFFFFFFFFFF AND DUP5 PUSH20 0xFFFFFFFFFFFFFFFFFFFFFFFFFFFFFFFFFFFFFFFF AND SUB PUSH2 0x1624 JUMPI PUSH1 0x40 MLOAD PUSH32 0x8C379A000000000000000000000000000000000000000000000000000000000 DUP2 MSTORE PUSH1 0x4 ADD PUSH2 0x161B SWAP1 PUSH2 0x2C81 JUMP JUMPDEST PUSH1 0x40 MLOAD DUP1 SWAP2 SUB SWAP1 REVERT JUMPDEST PUSH1 0x0 PUSH20 0xFFFFFFFFFFFFFFFFFFFFFFFFFFFFFFFFFFFFFFFF AND DUP6 PUSH20 0xFFFFFFFFFFFFFFFFFFFFFFFFFFFFFFFFFFFFFFFF AND SUB PUSH2 0x1693 JUMPI PUSH1 0x40 MLOAD PUSH32 0x8C379A000000000000000000000000000000000000000000000000000000000 DUP2 MSTORE PUSH1 0x4 ADD PUSH2 0x168A SWAP1 PUSH2 0x2D13 JUMP JUMPDEST PUSH1 0x40 MLOAD DUP1 SWAP2 SUB SWAP1 REVERT JUMPDEST PUSH1 0x0 DUP4 GT PUSH2 0x16D6 JUMPI PUSH1 0x40 MLOAD PUSH32 0x8C379A000000000000000000000000000000000000000000000000000000000 DUP2 MSTORE PUSH1 0x4 ADD PUSH2 0x16CD SWAP1 PUSH2 0x2DA5 JUMP JUMPDEST PUSH1 0x40 MLOAD DUP1 SWAP2 SUB SWAP1 REVERT JUMPDEST PUSH2 0x16E0 DUP6 DUP6 PUSH2 0x1A61 JUMP JUMPDEST ISZERO PUSH2 0x1735 JUMPI PUSH1 0x9 PUSH1 0x14 SWAP1 SLOAD SWAP1 PUSH2 0x100 EXP SWAP1 DIV PUSH1 0xFF AND PUSH2 0x1734 JUMPI PUSH1 0x40 MLOAD PUSH32 0x8C379A000000000000000000000000000000000000000000000000000000000 DUP2 MSTORE PUSH1 0x4 ADD PUSH2 0x172B SWAP1 PUSH2 0x2E11 JUMP JUMPDEST PUSH1 0x40 MLOAD DUP1 SWAP2 SUB SWAP1 REVERT JUMPDEST JUMPDEST PUSH2 0x173F DUP6 DUP6 PUSH2 0x1C7C JUMP JUMPDEST DUP1 ISZERO PUSH2 0x1758 JUMPI POP PUSH1 0x9 PUSH1 0x15 SWAP1 SLOAD SWAP1 PUSH2 0x100 EXP SWAP1 DIV PUSH1 0xFF AND ISZERO JUMPDEST DUP1 ISZERO PUSH2 0x176A JUMPI POP PUSH2 0x1769 DUP6 DUP6 PUSH2 0x1D2E JUMP JUMPDEST JUMPDEST ISZERO PUSH2 0x17A6 JUMPI PUSH1 0x0 PUSH2 0x177A ADDRESS PUSH2 0xE1B JUMP JUMPDEST SWAP1 POP PUSH2 0x1388 PUSH10 0x5915A68D88DA6A080000 PUSH2 0x1794 SWAP2 SWAP1 PUSH2 0x28D3 JUMP JUMPDEST DUP2 LT PUSH2 0x17A4 JUMPI PUSH2 0x17A3 DUP2 PUSH2 0x1DF9 JUMP JUMPDEST JUMPDEST POP JUMPDEST PUSH1 0x2 PUSH1 0x0 DUP7 PUSH20 0xFFFFFFFFFFFFFFFFFFFFFFFFFFFFFFFFFFFFFFFF AND PUSH20 0xFFFFFFFFFFFFFFFFFFFFFFFFFFFFFFFFFFFFFFFF AND DUP2 MSTORE PUSH1 0x20 ADD SWAP1 DUP2 MSTORE PUSH1 0x20 ADD PUSH1 0x0 KECCAK256 PUSH1 0x0 SWAP1 SLOAD SWAP1 PUSH2 0x100 EXP SWAP1 DIV PUSH1 0xFF AND DUP1 PUSH2 0x1847 JUMPI POP PUSH1 0x2 PUSH1 0x0 DUP6 PUSH20 0xFFFFFFFFFFFFFFFFFFFFFFFFFFFFFFFFFFFFFFFF AND PUSH20 0xFFFFFFFFFFFFFFFFFFFFFFFFFFFFFFFFFFFFFFFF AND DUP2 MSTORE PUSH1 0x20 ADD SWAP1 DUP2 MSTORE PUSH1 0x20 ADD PUSH1 0x0 KECCAK256 PUSH1 0x0 SWAP1 SLOAD SWAP1 PUSH2 0x100 EXP SWAP1 DIV PUSH1 0xFF AND JUMPDEST ISZERO PUSH2 0x1851 JUMPI PUSH1 0x0 SWAP1 POP JUMPDEST DUP3 PUSH1 0x6 PUSH1 0x0 DUP8 PUSH20 0xFFFFFFFFFFFFFFFFFFFFFFFFFFFFFFFFFFFFFFFF AND PUSH20 0xFFFFFFFFFFFFFFFFFFFFFFFFFFFFFFFFFFFFFFFF AND DUP2 MSTORE PUSH1 0x20 ADD SWAP1 DUP2 MSTORE PUSH1 0x20 ADD PUSH1 0x0 KECCAK256 PUSH1 0x0 DUP3 DUP3 SLOAD PUSH2 0x18A0 SWAP2 SWAP1 PUSH2 0x29DC JUMP JUMPDEST SWAP3 POP POP DUP2 SWAP1 SSTORE POP PUSH1 0x0 DUP2 PUSH2 0x18B4 JUMPI DUP4 PUSH2 0x18D3 JUMP JUMPDEST PUSH2 0x18D2 DUP7 PUSH2 0x18C2 DUP9 DUP9 PUSH2 0x2271 JUMP JUMPDEST PUSH2 0x18CC DUP10 DUP10 PUSH2 0x1C7C JUMP JUMPDEST DUP8 PUSH2 0x2323 JUMP JUMPDEST JUMPDEST SWAP1 POP DUP1 PUSH1 0x6 PUSH1 0x0 DUP8 PUSH20 0xFFFFFFFFFFFFFFFFFFFFFFFFFFFFFFFFFFFFFFFF AND PUSH20 0xFFFFFFFFFFFFFFFFFFFFFFFFFFFFFFFFFFFFFFFF AND DUP2 MSTORE PUSH1 0x20 ADD SWAP1 DUP2 MSTORE PUSH1 0x20 ADD PUSH1 0x0 KECCAK256 PUSH1 0x0 DUP3 DUP3 SLOAD PUSH2 0x1924 SWAP2 SWAP1 PUSH2 0x2E31 JUMP JUMPDEST SWAP3 POP POP DUP2 SWAP1 SSTORE POP DUP5 PUSH20 0xFFFFFFFFFFFFFFFFFFFFFFFFFFFFFFFFFFFFFFFF AND DUP7 PUSH20 0xFFFFFFFFFFFFFFFFFFFFFFFFFFFFFFFFFFFFFFFF AND PUSH32 0xDDF252AD1BE2C89B69C2B068FC378DAA952BA7F163C4A11628F55A4DF523B3EF DUP4 PUSH1 0x40 MLOAD PUSH2 0x1988 SWAP2 SWAP1 PUSH2 0x24CB JUMP JUMPDEST PUSH1 0x40 MLOAD DUP1 SWAP2 SUB SWAP1 LOG3 PUSH1 0x1 SWAP3 POP POP POP SWAP4 SWAP3 POP POP POP JUMP JUMPDEST PUSH1 0x0 DUP1 PUSH1 0x0 SWAP1 SLOAD SWAP1 PUSH2 0x100 EXP SWAP1 DIV PUSH20 0xFFFFFFFFFFFFFFFFFFFFFFFFFFFFFFFFFFFFFFFF AND SWAP1 POP DUP2 PUSH1 0x0 DUP1 PUSH2 0x100 EXP DUP2 SLOAD DUP2 PUSH20 0xFFFFFFFFFFFFFFFFFFFFFFFFFFFFFFFFFFFFFFFF MUL NOT AND SWAP1 DUP4 PUSH20 0xFFFFFFFFFFFFFFFFFFFFFFFFFFFFFFFFFFFFFFFF AND MUL OR SWAP1 SSTORE POP DUP2 PUSH20 0xFFFFFFFFFFFFFFFFFFFFFFFFFFFFFFFFFFFFFFFF AND DUP2 PUSH20 0xFFFFFFFFFFFFFFFFFFFFFFFFFFFFFFFFFFFFFFFF AND PUSH32 0x8BE0079C531659141344CD1FD0A4F28419497F9722A3DAAFE3B4186F6B6457E0 PUSH1 0x40 MLOAD PUSH1 0x40 MLOAD DUP1 SWAP2 SUB SWAP1 LOG3 POP POP JUMP JUMPDEST PUSH1 0x0 DUP1 PUSH2 0x1A6C PUSH2 0x1010 JUMP JUMPDEST PUSH20 0xFFFFFFFFFFFFFFFFFFFFFFFFFFFFFFFFFFFFFFFF AND DUP5 PUSH20 0xFFFFFFFFFFFFFFFFFFFFFFFFFFFFFFFFFFFFFFFF AND EQ ISZERO DUP1 ISZERO PUSH2 0x1ADA JUMPI POP PUSH2 0x1AAA PUSH2 0x1010 JUMP JUMPDEST PUSH20 0xFFFFFFFFFFFFFFFFFFFFFFFFFFFFFFFFFFFFFFFF AND DUP4 PUSH20 0xFFFFFFFFFFFFFFFFFFFFFFFFFFFFFFFFFFFFFFFF AND EQ ISZERO JUMPDEST DUP1 ISZERO PUSH2 0x1B19 JUMPI POP PUSH2 0x1AE9 PUSH2 0x1010 JUMP JUMPDEST PUSH20 0xFFFFFFFFFFFFFFFFFFFFFFFFFFFFFFFFFFFFFFFF AND CALLER PUSH20 0xFFFFFFFFFFFFFFFFFFFFFFFFFFFFFFFFFFFFFFFF AND EQ ISZERO JUMPDEST DUP1 ISZERO PUSH2 0x1B6F JUMPI POP PUSH1 0x3 PUSH1 0x0 DUP6 PUSH20 0xFFFFFFFFFFFFFFFFFFFFFFFFFFFFFFFFFFFFFFFF AND PUSH20 0xFFFFFFFFFFFFFFFFFFFFFFFFFFFFFFFFFFFFFFFF AND DUP2 MSTORE PUSH1 0x20 ADD SWAP1 DUP2 MSTORE PUSH1 0x20 ADD PUSH1 0x0 KECCAK256 PUSH1 0x0 SWAP1 SLOAD SWAP1 PUSH2 0x100 EXP SWAP1 DIV PUSH1 0xFF AND ISZERO JUMPDEST DUP1 ISZERO PUSH2 0x1BC5 JUMPI POP PUSH1 0x3 PUSH1 0x0 DUP5 PUSH20 0xFFFFFFFFFFFFFFFFFFFFFFFFFFFFFFFFFFFFFFFF AND PUSH20 0xFFFFFFFFFFFFFFFFFFFFFFFFFFFFFFFFFFFFFFFF AND DUP2 MSTORE PUSH1 0x20 ADD SWAP1 DUP2 MSTORE PUSH1 0x20 ADD PUSH1 0x0 KECCAK256 PUSH1 0x0 SWAP1 SLOAD SWAP1 PUSH2 0x100 EXP SWAP1 DIV PUSH1 0xFF AND ISZERO JUMPDEST DUP1 ISZERO PUSH2 0x1BFF JUMPI POP PUSH2 0xDEAD PUSH20 0xFFFFFFFFFFFFFFFFFFFFFFFFFFFFFFFFFFFFFFFF AND DUP4 PUSH20 0xFFFFFFFFFFFFFFFFFFFFFFFFFFFFFFFFFFFFFFFF AND EQ ISZERO JUMPDEST DUP1 ISZERO PUSH2 0x1C38 JUMPI POP PUSH1 0x0 PUSH20 0xFFFFFFFFFFFFFFFFFFFFFFFFFFFFFFFFFFFFFFFF AND DUP4 PUSH20 0xFFFFFFFFFFFFFFFFFFFFFFFFFFFFFFFFFFFFFFFF AND EQ ISZERO JUMPDEST DUP1 ISZERO PUSH2 0x1C70 JUMPI POP ADDRESS PUSH20 0xFFFFFFFFFFFFFFFFFFFFFFFFFFFFFFFFFFFFFFFF AND DUP4 PUSH20 0xFFFFFFFFFFFFFFFFFFFFFFFFFFFFFFFFFFFFFFFF AND EQ ISZERO JUMPDEST SWAP1 POP DUP1 SWAP2 POP POP SWAP3 SWAP2 POP POP JUMP JUMPDEST PUSH1 0x0 DUP1 PUSH1 0x4 PUSH1 0x0 DUP5 PUSH20 0xFFFFFFFFFFFFFFFFFFFFFFFFFFFFFFFFFFFFFFFF AND PUSH20 0xFFFFFFFFFFFFFFFFFFFFFFFFFFFFFFFFFFFFFFFF AND DUP2 MSTORE PUSH1 0x20 ADD SWAP1 DUP2 MSTORE PUSH1 0x20 ADD PUSH1 0x0 KECCAK256 PUSH1 0x0 SWAP1 SLOAD SWAP1 PUSH2 0x100 EXP SWAP1 DIV PUSH1 0xFF AND DUP1 ISZERO PUSH2 0x1D22 JUMPI POP PUSH1 0x4 PUSH1 0x0 DUP6 PUSH20 0xFFFFFFFFFFFFFFFFFFFFFFFFFFFFFFFFFFFFFFFF AND PUSH20 0xFFFFFFFFFFFFFFFFFFFFFFFFFFFFFFFFFFFFFFFF AND DUP2 MSTORE PUSH1 0x20 ADD SWAP1 DUP2 MSTORE PUSH1 0x20 ADD PUSH1 0x0 KECCAK256 PUSH1 0x0 SWAP1 SLOAD SWAP1 PUSH2 0x100 EXP SWAP1 DIV PUSH1 0xFF AND ISZERO JUMPDEST SWAP1 POP DUP1 SWAP2 POP POP SWAP3 SWAP2 POP POP JUMP JUMPDEST PUSH1 0x0 DUP1 PUSH1 0x7 PUSH1 0x0 SWAP1 SLOAD SWAP1 PUSH2 0x100 EXP SWAP1 DIV PUSH1 0xFF AND DUP1 ISZERO PUSH2 0x1D97 JUMPI POP PUSH1 0x5 PUSH1 0x0 DUP6 PUSH20 0xFFFFFFFFFFFFFFFFFFFFFFFFFFFFFFFFFFFFFFFF AND PUSH20 0xFFFFFFFFFFFFFFFFFFFFFFFFFFFFFFFFFFFFFFFF AND DUP2 MSTORE PUSH1 0x20 ADD SWAP1 DUP2 MSTORE PUSH1 0x20 ADD PUSH1 0x0 KECCAK256 PUSH1 0x0 SWAP1 SLOAD SWAP1 PUSH2 0x100 EXP SWAP1 DIV PUSH1 0xFF AND ISZERO JUMPDEST DUP1 ISZERO PUSH2 0x1DED JUMPI POP PUSH1 0x5 PUSH1 0x0 DUP5 PUSH20 0xFFFFFFFFFFFFFFFFFFFFFFFFFFFFFFFFFFFFFFFF AND PUSH20 0xFFFFFFFFFFFFFFFFFFFFFFFFFFFFFFFFFFFFFFFF AND DUP2 MSTORE PUSH1 0x20 ADD SWAP1 DUP2 MSTORE PUSH1 0x20 ADD PUSH1 0x0 KECCAK256 PUSH1 0x0 SWAP1 SLOAD SWAP1 PUSH2 0x100 EXP SWAP1 DIV PUSH1 0xFF AND ISZERO JUMPDEST SWAP1 POP DUP1 SWAP2 POP POP SWAP3 SWAP2 POP POP JUMP JUMPDEST PUSH1 0x1 PUSH1 0x9 PUSH1 0x15 PUSH2 0x100 EXP DUP2 SLOAD DUP2 PUSH1 0xFF MUL NOT AND SWAP1 DUP4 ISZERO ISZERO MUL OR SWAP1 SSTORE POP PUSH1 0x0 PUSH1 0x2 PUSH8 0xFFFFFFFFFFFFFFFF DUP2 GT ISZERO PUSH2 0x1E31 JUMPI PUSH2 0x1E30 PUSH2 0x2E65 JUMP JUMPDEST JUMPDEST PUSH1 0x40 MLOAD SWAP1 DUP1 DUP3 MSTORE DUP1 PUSH1 0x20 MUL PUSH1 0x20 ADD DUP3 ADD PUSH1 0x40 MSTORE DUP1 ISZERO PUSH2 0x1E5F JUMPI DUP2 PUSH1 0x20 ADD PUSH1 0x20 DUP3 MUL DUP1 CALLDATASIZE DUP4 CALLDATACOPY DUP1 DUP3 ADD SWAP2 POP POP SWAP1 POP JUMPDEST POP SWAP1 POP ADDRESS DUP2 PUSH1 0x0 DUP2 MLOAD DUP2 LT PUSH2 0x1E77 JUMPI PUSH2 0x1E76 PUSH2 0x2E94 JUMP JUMPDEST JUMPDEST PUSH1 0x20 MUL PUSH1 0x20 ADD ADD SWAP1 PUSH20 0xFFFFFFFFFFFFFFFFFFFFFFFFFFFFFFFFFFFFFFFF AND SWAP1 DUP2 PUSH20 0xFFFFFFFFFFFFFFFFFFFFFFFFFFFFFFFFFFFFFFFF AND DUP2 MSTORE POP POP PUSH1 0x8 PUSH1 0x0 SWAP1 SLOAD SWAP1 PUSH2 0x100 EXP SWAP1 DIV PUSH20 0xFFFFFFFFFFFFFFFFFFFFFFFFFFFFFFFFFFFFFFFF AND PUSH20 0xFFFFFFFFFFFFFFFFFFFFFFFFFFFFFFFFFFFFFFFF AND PUSH4 0xAD5C4648 PUSH1 0x40 MLOAD DUP2 PUSH4 0xFFFFFFFF AND PUSH1 0xE0 SHL DUP2 MSTORE PUSH1 0x4 ADD PUSH1 0x20 PUSH1 0x40 MLOAD DUP1 DUP4 SUB DUP2 DUP7 GAS STATICCALL ISZERO DUP1 ISZERO PUSH2 0x1F1E JUMPI RETURNDATASIZE PUSH1 0x0 DUP1 RETURNDATACOPY RETURNDATASIZE PUSH1 0x0 REVERT JUMPDEST POP POP POP POP PUSH1 0x40 MLOAD RETURNDATASIZE PUSH1 0x1F NOT PUSH1 0x1F DUP3 ADD AND DUP3 ADD DUP1 PUSH1 0x40 MSTORE POP DUP2 ADD SWAP1 PUSH2 0x1F42 SWAP2 SWAP1 PUSH2 0x2ED8 JUMP JUMPDEST DUP2 PUSH1 0x1 DUP2 MLOAD DUP2 LT PUSH2 0x1F56 JUMPI PUSH2 0x1F55 PUSH2 0x2E94 JUMP JUMPDEST JUMPDEST PUSH1 0x20 MUL PUSH1 0x20 ADD ADD SWAP1 PUSH20 0xFFFFFFFFFFFFFFFFFFFFFFFFFFFFFFFFFFFFFFFF AND SWAP1 DUP2 PUSH20 0xFFFFFFFFFFFFFFFFFFFFFFFFFFFFFFFFFFFFFFFF AND DUP2 MSTORE POP POP PUSH32 0xFFFFFFFFFFFFFFFFFFFFFFFFFFFFFFFFFFFFFFFFFFFFFFFFFFFFFFFFFFFFFFFF PUSH1 0x1 PUSH1 0x0 ADDRESS PUSH20 0xFFFFFFFFFFFFFFFFFFFFFFFFFFFFFFFFFFFFFFFF AND PUSH20 0xFFFFFFFFFFFFFFFFFFFFFFFFFFFFFFFFFFFFFFFF AND DUP2 MSTORE PUSH1 0x20 ADD SWAP1 DUP2 MSTORE PUSH1 0x20 ADD PUSH1 0x0 KECCAK256 PUSH1 0x0 PUSH1 0x8 PUSH1 0x0 SWAP1 SLOAD SWAP1 PUSH2 0x100 EXP SWAP1 DIV PUSH20 0xFFFFFFFFFFFFFFFFFFFFFFFFFFFFFFFFFFFFFFFF AND PUSH20 0xFFFFFFFFFFFFFFFFFFFFFFFFFFFFFFFFFFFFFFFF AND PUSH20 0xFFFFFFFFFFFFFFFFFFFFFFFFFFFFFFFFFFFFFFFF AND DUP2 MSTORE PUSH1 0x20 ADD SWAP1 DUP2 MSTORE PUSH1 0x20 ADD PUSH1 0x0 KECCAK256 SLOAD EQ PUSH2 0x2119 JUMPI PUSH32 0xFFFFFFFFFFFFFFFFFFFFFFFFFFFFFFFFFFFFFFFFFFFFFFFFFFFFFFFFFFFFFFFF PUSH1 0x1 PUSH1 0x0 ADDRESS PUSH20 0xFFFFFFFFFFFFFFFFFFFFFFFFFFFFFFFFFFFFFFFF AND PUSH20 0xFFFFFFFFFFFFFFFFFFFFFFFFFFFFFFFFFFFFFFFF AND DUP2 MSTORE PUSH1 0x20 ADD SWAP1 DUP2 MSTORE PUSH1 0x20 ADD PUSH1 0x0 KECCAK256 PUSH1 0x0 PUSH1 0x8 PUSH1 0x0 SWAP1 SLOAD SWAP1 PUSH2 0x100 EXP SWAP1 DIV PUSH20 0xFFFFFFFFFFFFFFFFFFFFFFFFFFFFFFFFFFFFFFFF AND PUSH20 0xFFFFFFFFFFFFFFFFFFFFFFFFFFFFFFFFFFFFFFFF AND PUSH20 0xFFFFFFFFFFFFFFFFFFFFFFFFFFFFFFFFFFFFFFFF AND DUP2 MSTORE PUSH1 0x20 ADD SWAP1 DUP2 MSTORE PUSH1 0x20 ADD PUSH1 0x0 KECCAK256 DUP2 SWAP1 SSTORE POP JUMPDEST PUSH1 0x8 PUSH1 0x0 SWAP1 SLOAD SWAP1 PUSH2 0x100 EXP SWAP1 DIV PUSH20 0xFFFFFFFFFFFFFFFFFFFFFFFFFFFFFFFFFFFFFFFF AND PUSH20 0xFFFFFFFFFFFFFFFFFFFFFFFFFFFFFFFFFFFFFFFF AND PUSH4 0x791AC947 DUP4 PUSH1 0x0 DUP5 ADDRESS TIMESTAMP PUSH1 0x40 MLOAD DUP7 PUSH4 0xFFFFFFFF AND PUSH1 0xE0 SHL DUP2 MSTORE PUSH1 0x4 ADD PUSH2 0x217D SWAP6 SWAP5 SWAP4 SWAP3 SWAP2 SWAP1 PUSH2 0x2FFE JUMP JUMPDEST PUSH1 0x0 PUSH1 0x40 MLOAD DUP1 DUP4 SUB DUP2 PUSH1 0x0 DUP8 DUP1 EXTCODESIZE ISZERO DUP1 ISZERO PUSH2 0x2197 JUMPI PUSH1 0x0 DUP1 REVERT JUMPDEST POP GAS CALL SWAP3 POP POP POP DUP1 ISZERO PUSH2 0x21A8 JUMPI POP PUSH1 0x1 JUMPDEST PUSH2 0x21B2 JUMPI POP PUSH2 0x2253 JUMP JUMPDEST PUSH1 0x0 DUP1 SELFBALANCE GT ISZERO PUSH2 0x2250 JUMPI PUSH1 0x7 PUSH1 0x1 SWAP1 SLOAD SWAP1 PUSH2 0x100 EXP SWAP1 DIV PUSH20 0xFFFFFFFFFFFFFFFFFFFFFFFFFFFFFFFFFFFFFFFF AND PUSH20 0xFFFFFFFFFFFFFFFFFFFFFFFFFFFFFFFFFFFFFFFF AND SELFBALANCE PUSH2 0x88B8 SWAP1 PUSH1 0x40 MLOAD PUSH2 0x2206 SWAP1 PUSH2 0x3089 JUMP JUMPDEST PUSH1 0x0 PUSH1 0x40 MLOAD DUP1 DUP4 SUB DUP2 DUP6 DUP9 DUP9 CALL SWAP4 POP POP POP POP RETURNDATASIZE DUP1 PUSH1 0x0 DUP2 EQ PUSH2 0x2244 JUMPI PUSH1 0x40 MLOAD SWAP2 POP PUSH1 0x1F NOT PUSH1 0x3F RETURNDATASIZE ADD AND DUP3 ADD PUSH1 0x40 MSTORE RETURNDATASIZE DUP3 MSTORE RETURNDATASIZE PUSH1 0x0 PUSH1 0x20 DUP5 ADD RETURNDATACOPY PUSH2 0x2249 JUMP JUMPDEST PUSH1 0x60 SWAP2 POP JUMPDEST POP POP DUP1 SWAP2 POP POP JUMPDEST POP POP JUMPDEST PUSH1 0x0 PUSH1 0x9 PUSH1 0x15 PUSH2 0x100 EXP DUP2 SLOAD DUP2 PUSH1 0xFF MUL NOT AND SWAP1 DUP4 ISZERO ISZERO MUL OR SWAP1 SSTORE POP POP JUMP JUMPDEST PUSH1 0x0 DUP1 PUSH1 0x4 PUSH1 0x0 DUP5 PUSH20 0xFFFFFFFFFFFFFFFFFFFFFFFFFFFFFFFFFFFFFFFF AND PUSH20 0xFFFFFFFFFFFFFFFFFFFFFFFFFFFFFFFFFFFFFFFF AND DUP2 MSTORE PUSH1 0x20 ADD SWAP1 DUP2 MSTORE PUSH1 0x20 ADD PUSH1 0x0 KECCAK256 PUSH1 0x0 SWAP1 SLOAD SWAP1 PUSH2 0x100 EXP SWAP1 DIV PUSH1 0xFF AND ISZERO DUP1 ISZERO PUSH2 0x2317 JUMPI POP PUSH1 0x4 PUSH1 0x0 DUP6 PUSH20 0xFFFFFFFFFFFFFFFFFFFFFFFFFFFFFFFFFFFFFFFF AND PUSH20 0xFFFFFFFFFFFFFFFFFFFFFFFFFFFFFFFFFFFFFFFF AND DUP2 MSTORE PUSH1 0x20 ADD SWAP1 DUP2 MSTORE PUSH1 0x20 ADD PUSH1 0x0 KECCAK256 PUSH1 0x0 SWAP1 SLOAD SWAP1 PUSH2 0x100 EXP SWAP1 DIV PUSH1 0xFF AND JUMPDEST SWAP1 POP DUP1 SWAP2 POP POP SWAP3 SWAP2 POP POP JUMP JUMPDEST PUSH1 0x0 DUP1 DUP5 ISZERO PUSH2 0x2335 JUMPI PUSH1 0xA SWAP1 POP PUSH2 0x234A JUMP JUMPDEST DUP4 ISZERO PUSH2 0x2344 JUMPI PUSH1 0xA SWAP1 POP PUSH2 0x2349 JUMP JUMPDEST PUSH1 0x0 SWAP1 POP JUMPDEST JUMPDEST PUSH1 0x0 DUP2 SUB PUSH2 0x235B JUMPI DUP3 SWAP2 POP POP PUSH2 0x244E JUMP JUMPDEST PUSH1 0x0 PUSH2 0x3E8 DUP3 DUP6 PUSH2 0x236C SWAP2 SWAP1 PUSH2 0x309E JUMP JUMPDEST PUSH2 0x2376 SWAP2 SWAP1 PUSH2 0x28D3 JUMP JUMPDEST SWAP1 POP PUSH1 0x0 DUP2 GT ISZERO PUSH2 0x243D JUMPI DUP1 PUSH1 0x6 PUSH1 0x0 ADDRESS PUSH20 0xFFFFFFFFFFFFFFFFFFFFFFFFFFFFFFFFFFFFFFFF AND PUSH20 0xFFFFFFFFFFFFFFFFFFFFFFFFFFFFFFFFFFFFFFFF AND DUP2 MSTORE PUSH1 0x20 ADD SWAP1 DUP2 MSTORE PUSH1 0x20 ADD PUSH1 0x0 KECCAK256 PUSH1 0x0 DUP3 DUP3 SLOAD PUSH2 0x23D0 SWAP2 SWAP1 PUSH2 0x2E31 JUMP JUMPDEST SWAP3 POP POP DUP2 SWAP1 SSTORE POP ADDRESS PUSH20 0xFFFFFFFFFFFFFFFFFFFFFFFFFFFFFFFFFFFFFFFF AND DUP8 PUSH20 0xFFFFFFFFFFFFFFFFFFFFFFFFFFFFFFFFFFFFFFFF AND PUSH32 0xDDF252AD1BE2C89B69C2B068FC378DAA952BA7F163C4A11628F55A4DF523B3EF DUP4 PUSH1 0x40 MLOAD PUSH2 0x2434 SWAP2 SWAP1 PUSH2 0x24CB JUMP JUMPDEST PUSH1 0x40 MLOAD DUP1 SWAP2 SUB SWAP1 LOG3 JUMPDEST DUP1 DUP5 PUSH2 0x2449 SWAP2 SWAP1 PUSH2 0x29DC JUMP JUMPDEST SWAP3 POP POP POP JUMPDEST SWAP5 SWAP4 POP POP POP POP JUMP JUMPDEST PUSH1 0x0 PUSH20 0xFFFFFFFFFFFFFFFFFFFFFFFFFFFFFFFFFFFFFFFF DUP3 AND SWAP1 POP SWAP2 SWAP1 POP JUMP JUMPDEST PUSH1 0x0 PUSH2 0x2481 DUP3 PUSH2 0x2456 JUMP JUMPDEST SWAP1 POP SWAP2 SWAP1 POP JUMP JUMPDEST PUSH2 0x2491 DUP2 PUSH2 0x2476 JUMP JUMPDEST DUP3 MSTORE POP POP JUMP JUMPDEST PUSH1 0x0 PUSH1 0x20 DUP3 ADD SWAP1 POP PUSH2 0x24AC PUSH1 0x0 DUP4 ADD DUP5 PUSH2 0x2488 JUMP JUMPDEST SWAP3 SWAP2 POP POP JUMP JUMPDEST PUSH1 0x0 DUP2 SWAP1 POP SWAP2 SWAP1 POP JUMP JUMPDEST PUSH2 0x24C5 DUP2 PUSH2 0x24B2 JUMP JUMPDEST DUP3 MSTORE POP POP JUMP JUMPDEST PUSH1 0x0 PUSH1 0x20 DUP3 ADD SWAP1 POP PUSH2 0x24E0 PUSH1 0x0 DUP4 ADD DUP5 PUSH2 0x24BC JUMP JUMPDEST SWAP3 SWAP2 POP POP JUMP JUMPDEST PUSH1 0x0 DUP2 ISZERO ISZERO SWAP1 POP SWAP2 SWAP1 POP JUMP JUMPDEST PUSH2 0x24FB DUP2 PUSH2 0x24E6 JUMP JUMPDEST DUP3 MSTORE POP POP JUMP JUMPDEST PUSH1 0x0 PUSH1 0x20 DUP3 ADD SWAP1 POP PUSH2 0x2516 PUSH1 0x0 DUP4 ADD DUP5 PUSH2 0x24F2 JUMP JUMPDEST SWAP3 SWAP2 POP POP JUMP JUMPDEST PUSH1 0x0 DUP2 MLOAD SWAP1 POP SWAP2 SWAP1 POP JUMP JUMPDEST PUSH1 0x0 DUP3 DUP3 MSTORE PUSH1 0x20 DUP3 ADD SWAP1 POP SWAP3 SWAP2 POP POP JUMP JUMPDEST PUSH1 0x0 JUMPDEST DUP4 DUP2 LT ISZERO PUSH2 0x2556 JUMPI DUP1 DUP3 ADD MLOAD DUP2 DUP5 ADD MSTORE PUSH1 0x20 DUP2 ADD SWAP1 POP PUSH2 0x253B JUMP JUMPDEST PUSH1 0x0 DUP5 DUP5 ADD MSTORE POP POP POP POP JUMP JUMPDEST PUSH1 0x0 PUSH1 0x1F NOT PUSH1 0x1F DUP4 ADD AND SWAP1 POP SWAP2 SWAP1 POP JUMP JUMPDEST PUSH1 0x0 PUSH2 0x257E DUP3 PUSH2 0x251C JUMP JUMPDEST PUSH2 0x2588 DUP2 DUP6 PUSH2 0x2527 JUMP JUMPDEST SWAP4 POP PUSH2 0x2598 DUP2 DUP6 PUSH1 0x20 DUP7 ADD PUSH2 0x2538 JUMP JUMPDEST PUSH2 0x25A1 DUP2 PUSH2 0x2562 JUMP JUMPDEST DUP5 ADD SWAP2 POP POP SWAP3 SWAP2 POP POP JUMP JUMPDEST PUSH1 0x0 PUSH1 0x20 DUP3 ADD SWAP1 POP DUP2 DUP2 SUB PUSH1 0x0 DUP4 ADD MSTORE PUSH2 0x25C6 DUP2 DUP5 PUSH2 0x2573 JUMP JUMPDEST SWAP1 POP SWAP3 SWAP2 POP POP JUMP JUMPDEST PUSH1 0x0 DUP1 REVERT JUMPDEST PUSH2 0x25DC DUP2 PUSH2 0x2476 JUMP JUMPDEST DUP2 EQ PUSH2 0x25E7 JUMPI PUSH1 0x0 DUP1 REVERT JUMPDEST POP JUMP JUMPDEST PUSH1 0x0 DUP2 CALLDATALOAD SWAP1 POP PUSH2 0x25F9 DUP2 PUSH2 0x25D3 JUMP JUMPDEST SWAP3 SWAP2 POP POP JUMP JUMPDEST PUSH2 0x2608 DUP2 PUSH2 0x24B2 JUMP JUMPDEST DUP2 EQ PUSH2 0x2613 JUMPI PUSH1 0x0 DUP1 REVERT JUMPDEST POP JUMP JUMPDEST PUSH1 0x0 DUP2 CALLDATALOAD SWAP1 POP PUSH2 0x2625 DUP2 PUSH2 0x25FF JUMP JUMPDEST SWAP3 SWAP2 POP POP JUMP JUMPDEST PUSH1 0x0 DUP1 PUSH1 0x40 DUP4 DUP6 SUB SLT ISZERO PUSH2 0x2642 JUMPI PUSH2 0x2641 PUSH2 0x25CE JUMP JUMPDEST JUMPDEST PUSH1 0x0 PUSH2 0x2650 DUP6 DUP3 DUP7 ADD PUSH2 0x25EA JUMP JUMPDEST SWAP3 POP POP PUSH1 0x20 PUSH2 0x2661 DUP6 DUP3 DUP7 ADD PUSH2 0x2616 JUMP JUMPDEST SWAP2 POP POP SWAP3 POP SWAP3 SWAP1 POP JUMP JUMPDEST PUSH2 0x2674 DUP2 PUSH2 0x24E6 JUMP JUMPDEST DUP2 EQ PUSH2 0x267F JUMPI PUSH1 0x0 DUP1 REVERT JUMPDEST POP JUMP JUMPDEST PUSH1 0x0 DUP2 CALLDATALOAD SWAP1 POP PUSH2 0x2691 DUP2 PUSH2 0x266B JUMP JUMPDEST SWAP3 SWAP2 POP POP JUMP JUMPDEST PUSH1 0x0 DUP1 PUSH1 0x40 DUP4 DUP6 SUB SLT ISZERO PUSH2 0x26AE JUMPI PUSH2 0x26AD PUSH2 0x25CE JUMP JUMPDEST JUMPDEST PUSH1 0x0 PUSH2 0x26BC DUP6 DUP3 DUP7 ADD PUSH2 0x25EA JUMP JUMPDEST SWAP3 POP POP PUSH1 0x20 PUSH2 0x26CD DUP6 DUP3 DUP7 ADD PUSH2 0x2682 JUMP JUMPDEST SWAP2 POP POP SWAP3 POP SWAP3 SWAP1 POP JUMP JUMPDEST PUSH1 0x0 PUSH1 0x20 DUP3 DUP5 SUB SLT ISZERO PUSH2 0x26ED JUMPI PUSH2 0x26EC PUSH2 0x25CE JUMP JUMPDEST JUMPDEST PUSH1 0x0 PUSH2 0x26FB DUP5 DUP3 DUP6 ADD PUSH2 0x2682 JUMP JUMPDEST SWAP2 POP POP SWAP3 SWAP2 POP POP JUMP JUMPDEST PUSH1 0x0 DUP1 PUSH1 0x0 PUSH1 0x60 DUP5 DUP7 SUB SLT ISZERO PUSH2 0x271D JUMPI PUSH2 0x271C PUSH2 0x25CE JUMP JUMPDEST JUMPDEST PUSH1 0x0 PUSH2 0x272B DUP7 DUP3 DUP8 ADD PUSH2 0x25EA JUMP JUMPDEST SWAP4 POP POP PUSH1 0x20 PUSH2 0x273C DUP7 DUP3 DUP8 ADD PUSH2 0x25EA JUMP JUMPDEST SWAP3 POP POP PUSH1 0x40 PUSH2 0x274D DUP7 DUP3 DUP8 ADD PUSH2 0x2616 JUMP JUMPDEST SWAP2 POP POP SWAP3 POP SWAP3 POP SWAP3 JUMP JUMPDEST PUSH1 0x0 PUSH1 0x20 DUP3 DUP5 SUB SLT ISZERO PUSH2 0x276D JUMPI PUSH2 0x276C PUSH2 0x25CE JUMP JUMPDEST JUMPDEST PUSH1 0x0 PUSH2 0x277B DUP5 DUP3 DUP6 ADD PUSH2 0x25EA JUMP JUMPDEST SWAP2 POP POP SWAP3 SWAP2 POP POP JUMP JUMPDEST PUSH1 0x0 PUSH1 0xFF DUP3 AND SWAP1 POP SWAP2 SWAP1 POP JUMP JUMPDEST PUSH2 0x279A DUP2 PUSH2 0x2784 JUMP JUMPDEST DUP3 MSTORE POP POP JUMP JUMPDEST PUSH1 0x0 PUSH1 0x20 DUP3 ADD SWAP1 POP PUSH2 0x27B5 PUSH1 0x0 DUP4 ADD DUP5 PUSH2 0x2791 JUMP JUMPDEST SWAP3 SWAP2 POP POP JUMP JUMPDEST PUSH1 0x0 DUP2 SWAP1 POP SWAP2 SWAP1 POP JUMP JUMPDEST PUSH1 0x0 PUSH2 0x27E0 PUSH2 0x27DB PUSH2 0x27D6 DUP5 PUSH2 0x2456 JUMP JUMPDEST PUSH2 0x27BB JUMP JUMPDEST PUSH2 0x2456 JUMP JUMPDEST SWAP1 POP SWAP2 SWAP1 POP JUMP JUMPDEST PUSH1 0x0 PUSH2 0x27F2 DUP3 PUSH2 0x27C5 JUMP JUMPDEST SWAP1 POP SWAP2 SWAP1 POP JUMP JUMPDEST PUSH1 0x0 PUSH2 0x2804 DUP3 PUSH2 0x27E7 JUMP JUMPDEST SWAP1 POP SWAP2 SWAP1 POP JUMP JUMPDEST PUSH2 0x2814 DUP2 PUSH2 0x27F9 JUMP JUMPDEST DUP3 MSTORE POP POP JUMP JUMPDEST PUSH1 0x0 PUSH1 0x20 DUP3 ADD SWAP1 POP PUSH2 0x282F PUSH1 0x0 DUP4 ADD DUP5 PUSH2 0x280B JUMP JUMPDEST SWAP3 SWAP2 POP POP JUMP JUMPDEST PUSH1 0x0 DUP1 PUSH1 0x40 DUP4 DUP6 SUB SLT ISZERO PUSH2 0x284C JUMPI PUSH2 0x284B PUSH2 0x25CE JUMP JUMPDEST JUMPDEST PUSH1 0x0 PUSH2 0x285A DUP6 DUP3 DUP7 ADD PUSH2 0x25EA JUMP JUMPDEST SWAP3 POP POP PUSH1 0x20 PUSH2 0x286B DUP6 DUP3 DUP7 ADD PUSH2 0x25EA JUMP JUMPDEST SWAP2 POP POP SWAP3 POP SWAP3 SWAP1 POP JUMP JUMPDEST PUSH32 0x4E487B7100000000000000000000000000000000000000000000000000000000 PUSH1 0x0 MSTORE PUSH1 0x12 PUSH1 0x4 MSTORE PUSH1 0x24 PUSH1 0x0 REVERT JUMPDEST PUSH32 0x4E487B7100000000000000000000000000000000000000000000000000000000 PUSH1 0x0 MSTORE PUSH1 0x11 PUSH1 0x4 MSTORE PUSH1 0x24 PUSH1 0x0 REVERT JUMPDEST PUSH1 0x0 PUSH2 0x28DE DUP3 PUSH2 0x24B2 JUMP JUMPDEST SWAP2 POP PUSH2 0x28E9 DUP4 PUSH2 0x24B2 JUMP JUMPDEST SWAP3 POP DUP3 PUSH2 0x28F9 JUMPI PUSH2 0x28F8 PUSH2 0x2875 JUMP JUMPDEST JUMPDEST DUP3 DUP3 DIV SWAP1 POP SWAP3 SWAP2 POP POP JUMP JUMPDEST PUSH32 0x4F776E61626C653A2063616C6C6572206973206E6F7420746865206F776E6572 PUSH1 0x0 DUP3 ADD MSTORE POP JUMP JUMPDEST PUSH1 0x0 PUSH2 0x293A PUSH1 0x20 DUP4 PUSH2 0x2527 JUMP JUMPDEST SWAP2 POP PUSH2 0x2945 DUP3 PUSH2 0x2904 JUMP JUMPDEST PUSH1 0x20 DUP3 ADD SWAP1 POP SWAP2 SWAP1 POP JUMP JUMPDEST PUSH1 0x0 PUSH1 0x20 DUP3 ADD SWAP1 POP DUP2 DUP2 SUB PUSH1 0x0 DUP4 ADD MSTORE PUSH2 0x2969 DUP2 PUSH2 0x292D JUMP JUMPDEST SWAP1 POP SWAP2 SWAP1 POP JUMP JUMPDEST PUSH32 0x426F6F6C206973207468652073616D6500000000000000000000000000000000 PUSH1 0x0 DUP3 ADD MSTORE POP JUMP JUMPDEST PUSH1 0x0 PUSH2 0x29A6 PUSH1 0x10 DUP4 PUSH2 0x2527 JUMP JUMPDEST SWAP2 POP PUSH2 0x29B1 DUP3 PUSH2 0x2970 JUMP JUMPDEST PUSH1 0x20 DUP3 ADD SWAP1 POP SWAP2 SWAP1 POP JUMP JUMPDEST PUSH1 0x0 PUSH1 0x20 DUP3 ADD SWAP1 POP DUP2 DUP2 SUB PUSH1 0x0 DUP4 ADD MSTORE PUSH2 0x29D5 DUP2 PUSH2 0x2999 JUMP JUMPDEST SWAP1 POP SWAP2 SWAP1 POP JUMP JUMPDEST PUSH1 0x0 PUSH2 0x29E7 DUP3 PUSH2 0x24B2 JUMP JUMPDEST SWAP2 POP PUSH2 0x29F2 DUP4 PUSH2 0x24B2 JUMP JUMPDEST SWAP3 POP DUP3 DUP3 SUB SWAP1 POP DUP2 DUP2 GT ISZERO PUSH2 0x2A0A JUMPI PUSH2 0x2A09 PUSH2 0x28A4 JUMP JUMPDEST JUMPDEST SWAP3 SWAP2 POP POP JUMP JUMPDEST PUSH32 0x53616D6520626F6F6C0000000000000000000000000000000000000000000000 PUSH1 0x0 DUP3 ADD MSTORE POP JUMP JUMPDEST PUSH1 0x0 PUSH2 0x2A46 PUSH1 0x9 DUP4 PUSH2 0x2527 JUMP JUMPDEST SWAP2 POP PUSH2 0x2A51 DUP3 PUSH2 0x2A10 JUMP JUMPDEST PUSH1 0x20 DUP3 ADD SWAP1 POP SWAP2 SWAP1 POP JUMP JUMPDEST PUSH1 0x0 PUSH1 0x20 DUP3 ADD SWAP1 POP DUP2 DUP2 SUB PUSH1 0x0 DUP4 ADD MSTORE PUSH2 0x2A75 DUP2 PUSH2 0x2A39 JUMP JUMPDEST SWAP1 POP SWAP2 SWAP1 POP JUMP JUMPDEST PUSH1 0x0 PUSH1 0x40 DUP3 ADD SWAP1 POP PUSH2 0x2A91 PUSH1 0x0 DUP4 ADD DUP6 PUSH2 0x2488 JUMP JUMPDEST PUSH2 0x2A9E PUSH1 0x20 DUP4 ADD DUP5 PUSH2 0x24F2 JUMP JUMPDEST SWAP4 SWAP3 POP POP POP JUMP JUMPDEST PUSH32 0x54726164696E6720616C726561647920656E61626C6564000000000000000000 PUSH1 0x0 DUP3 ADD MSTORE POP JUMP JUMPDEST PUSH1 0x0 PUSH2 0x2ADB PUSH1 0x17 DUP4 PUSH2 0x2527 JUMP JUMPDEST SWAP2 POP PUSH2 0x2AE6 DUP3 PUSH2 0x2AA5 JUMP JUMPDEST PUSH1 0x20 DUP3 ADD SWAP1 POP SWAP2 SWAP1 POP JUMP JUMPDEST PUSH1 0x0 PUSH1 0x20 DUP3 ADD SWAP1 POP DUP2 DUP2 SUB PUSH1 0x0 DUP4 ADD MSTORE PUSH2 0x2B0A DUP2 PUSH2 0x2ACE JUMP JUMPDEST SWAP1 POP SWAP2 SWAP1 POP JUMP JUMPDEST PUSH32 0x4F776E61626C653A206E6577206F776E657220697320746865207A65726F2061 PUSH1 0x0 DUP3 ADD MSTORE PUSH32 0x6464726573730000000000000000000000000000000000000000000000000000 PUSH1 0x20 DUP3 ADD MSTORE POP JUMP JUMPDEST PUSH1 0x0 PUSH2 0x2B6D PUSH1 0x26 DUP4 PUSH2 0x2527 JUMP JUMPDEST SWAP2 POP PUSH2 0x2B78 DUP3 PUSH2 0x2B11 JUMP JUMPDEST PUSH1 0x40 DUP3 ADD SWAP1 POP SWAP2 SWAP1 POP JUMP JUMPDEST PUSH1 0x0 PUSH1 0x20 DUP3 ADD SWAP1 POP DUP2 DUP2 SUB PUSH1 0x0 DUP4 ADD MSTORE PUSH2 0x2B9C DUP2 PUSH2 0x2B60 JUMP JUMPDEST SWAP1 POP SWAP2 SWAP1 POP JUMP JUMPDEST PUSH32 0x45524332303A205A65726F204164647265737300000000000000000000000000 PUSH1 0x0 DUP3 ADD MSTORE POP JUMP JUMPDEST PUSH1 0x0 PUSH2 0x2BD9 PUSH1 0x13 DUP4 PUSH2 0x2527 JUMP JUMPDEST SWAP2 POP PUSH2 0x2BE4 DUP3 PUSH2 0x2BA3 JUMP JUMPDEST PUSH1 0x20 DUP3 ADD SWAP1 POP SWAP2 SWAP1 POP JUMP JUMPDEST PUSH1 0x0 PUSH1 0x20 DUP3 ADD SWAP1 POP DUP2 DUP2 SUB PUSH1 0x0 DUP4 ADD MSTORE PUSH2 0x2C08 DUP2 PUSH2 0x2BCC JUMP JUMPDEST SWAP1 POP SWAP2 SWAP1 POP JUMP JUMPDEST PUSH32 0x45524332303A207472616E7366657220746F20746865207A65726F2061646472 PUSH1 0x0 DUP3 ADD MSTORE PUSH32 0x6573730000000000000000000000000000000000000000000000000000000000 PUSH1 0x20 DUP3 ADD MSTORE POP JUMP JUMPDEST PUSH1 0x0 PUSH2 0x2C6B PUSH1 0x23 DUP4 PUSH2 0x2527 JUMP JUMPDEST SWAP2 POP PUSH2 0x2C76 DUP3 PUSH2 0x2C0F JUMP JUMPDEST PUSH1 0x40 DUP3 ADD SWAP1 POP SWAP2 SWAP1 POP JUMP JUMPDEST PUSH1 0x0 PUSH1 0x20 DUP3 ADD SWAP1 POP DUP2 DUP2 SUB PUSH1 0x0 DUP4 ADD MSTORE PUSH2 0x2C9A DUP2 PUSH2 0x2C5E JUMP JUMPDEST SWAP1 POP SWAP2 SWAP1 POP JUMP JUMPDEST PUSH32 0x45524332303A207472616E736665722066726F6D20746865207A65726F206164 PUSH1 0x0 DUP3 ADD MSTORE PUSH32 0x6472657373000000000000000000000000000000000000000000000000000000 PUSH1 0x20 DUP3 ADD MSTORE POP JUMP JUMPDEST PUSH1 0x0 PUSH2 0x2CFD PUSH1 0x25 DUP4 PUSH2 0x2527 JUMP JUMPDEST SWAP2 POP PUSH2 0x2D08 DUP3 PUSH2 0x2CA1 JUMP JUMPDEST PUSH1 0x40 DUP3 ADD SWAP1 POP SWAP2 SWAP1 POP JUMP JUMPDEST PUSH1 0x0 PUSH1 0x20 DUP3 ADD SWAP1 POP DUP2 DUP2 SUB PUSH1 0x0 DUP4 ADD MSTORE PUSH2 0x2D2C DUP2 PUSH2 0x2CF0 JUMP JUMPDEST SWAP1 POP SWAP2 SWAP1 POP JUMP JUMPDEST PUSH32 0x5472616E7366657220616D6F756E74206D757374206265206772656174657220 PUSH1 0x0 DUP3 ADD MSTORE PUSH32 0x7468616E207A65726F0000000000000000000000000000000000000000000000 PUSH1 0x20 DUP3 ADD MSTORE POP JUMP JUMPDEST PUSH1 0x0 PUSH2 0x2D8F PUSH1 0x29 DUP4 PUSH2 0x2527 JUMP JUMPDEST SWAP2 POP PUSH2 0x2D9A DUP3 PUSH2 0x2D33 JUMP JUMPDEST PUSH1 0x40 DUP3 ADD SWAP1 POP SWAP2 SWAP1 POP JUMP JUMPDEST PUSH1 0x0 PUSH1 0x20 DUP3 ADD SWAP1 POP DUP2 DUP2 SUB PUSH1 0x0 DUP4 ADD MSTORE PUSH2 0x2DBE DUP2 PUSH2 0x2D82 JUMP JUMPDEST SWAP1 POP SWAP2 SWAP1 POP JUMP JUMPDEST PUSH32 0x54726164696E67206973206E6F7420656E61626C656400000000000000000000 PUSH1 0x0 DUP3 ADD MSTORE POP JUMP JUMPDEST PUSH1 0x0 PUSH2 0x2DFB PUSH1 0x16 DUP4 PUSH2 0x2527 JUMP JUMPDEST SWAP2 POP PUSH2 0x2E06 DUP3 PUSH2 0x2DC5 JUMP JUMPDEST PUSH1 0x20 DUP3 ADD SWAP1 POP SWAP2 SWAP1 POP JUMP JUMPDEST PUSH1 0x0 PUSH1 0x20 DUP3 ADD SWAP1 POP DUP2 DUP2 SUB PUSH1 0x0 DUP4 ADD MSTORE PUSH2 0x2E2A DUP2 PUSH2 0x2DEE JUMP JUMPDEST SWAP1 POP SWAP2 SWAP1 POP JUMP JUMPDEST PUSH1 0x0 PUSH2 0x2E3C DUP3 PUSH2 0x24B2 JUMP JUMPDEST SWAP2 POP PUSH2 0x2E47 DUP4 PUSH2 0x24B2 JUMP JUMPDEST SWAP3 POP DUP3 DUP3 ADD SWAP1 POP DUP1 DUP3 GT ISZERO PUSH2 0x2E5F JUMPI PUSH2 0x2E5E PUSH2 0x28A4 JUMP JUMPDEST JUMPDEST SWAP3 SWAP2 POP POP JUMP JUMPDEST PUSH32 0x4E487B7100000000000000000000000000000000000000000000000000000000 PUSH1 0x0 MSTORE PUSH1 0x41 PUSH1 0x4 MSTORE PUSH1 0x24 PUSH1 0x0 REVERT JUMPDEST PUSH32 0x4E487B7100000000000000000000000000000000000000000000000000000000 PUSH1 0x0 MSTORE PUSH1 0x32 PUSH1 0x4 MSTORE PUSH1 0x24 PUSH1 0x0 REVERT JUMPDEST PUSH1 0x0 DUP2 MLOAD SWAP1 POP PUSH2 0x2ED2 DUP2 PUSH2 0x25D3 JUMP JUMPDEST SWAP3 SWAP2 POP POP JUMP JUMPDEST PUSH1 0x0 PUSH1 0x20 DUP3 DUP5 SUB SLT ISZERO PUSH2 0x2EEE JUMPI PUSH2 0x2EED PUSH2 0x25CE JUMP JUMPDEST JUMPDEST PUSH1 0x0 PUSH2 0x2EFC DUP5 DUP3 DUP6 ADD PUSH2 0x2EC3 JUMP JUMPDEST SWAP2 POP POP SWAP3 SWAP2 POP POP JUMP JUMPDEST PUSH1 0x0 DUP2 SWAP1 POP SWAP2 SWAP1 POP JUMP JUMPDEST PUSH1 0x0 PUSH2 0x2F2A PUSH2 0x2F25 PUSH2 0x2F20 DUP5 PUSH2 0x2F05 JUMP JUMPDEST PUSH2 0x27BB JUMP JUMPDEST PUSH2 0x24B2 JUMP JUMPDEST SWAP1 POP SWAP2 SWAP1 POP JUMP JUMPDEST PUSH2 0x2F3A DUP2 PUSH2 0x2F0F JUMP JUMPDEST DUP3 MSTORE POP POP JUMP JUMPDEST PUSH1 0x0 DUP2 MLOAD SWAP1 POP SWAP2 SWAP1 POP JUMP JUMPDEST PUSH1 0x0 DUP3 DUP3 MSTORE PUSH1 0x20 DUP3 ADD SWAP1 POP SWAP3 SWAP2 POP POP JUMP JUMPDEST PUSH1 0x0 DUP2 SWAP1 POP PUSH1 0x20 DUP3 ADD SWAP1 POP SWAP2 SWAP1 POP JUMP JUMPDEST PUSH2 0x2F75 DUP2 PUSH2 0x2476 JUMP JUMPDEST DUP3 MSTORE POP POP JUMP JUMPDEST PUSH1 0x0 PUSH2 0x2F87 DUP4 DUP4 PUSH2 0x2F6C JUMP JUMPDEST PUSH1 0x20 DUP4 ADD SWAP1 POP SWAP3 SWAP2 POP POP JUMP JUMPDEST PUSH1 0x0 PUSH1 0x20 DUP3 ADD SWAP1 POP SWAP2 SWAP1 POP JUMP JUMPDEST PUSH1 0x0 PUSH2 0x2FAB DUP3 PUSH2 0x2F40 JUMP JUMPDEST PUSH2 0x2FB5 DUP2 DUP6 PUSH2 0x2F4B JUMP JUMPDEST SWAP4 POP PUSH2 0x2FC0 DUP4 PUSH2 0x2F5C JUMP JUMPDEST DUP1 PUSH1 0x0 JUMPDEST DUP4 DUP2 LT ISZERO PUSH2 0x2FF1 JUMPI DUP2 MLOAD PUSH2 0x2FD8 DUP9 DUP3 PUSH2 0x2F7B JUMP JUMPDEST SWAP8 POP PUSH2 0x2FE3 DUP4 PUSH2 0x2F93 JUMP JUMPDEST SWAP3 POP POP PUSH1 0x1 DUP2 ADD SWAP1 POP PUSH2 0x2FC4 JUMP JUMPDEST POP DUP6 SWAP4 POP POP POP POP SWAP3 SWAP2 POP POP JUMP JUMPDEST PUSH1 0x0 PUSH1 0xA0 DUP3 ADD SWAP1 POP PUSH2 0x3013 PUSH1 0x0 DUP4 ADD DUP9 PUSH2 0x24BC JUMP JUMPDEST PUSH2 0x3020 PUSH1 0x20 DUP4 ADD DUP8 PUSH2 0x2F31 JUMP JUMPDEST DUP2 DUP2 SUB PUSH1 0x40 DUP4 ADD MSTORE PUSH2 0x3032 DUP2 DUP7 PUSH2 0x2FA0 JUMP JUMPDEST SWAP1 POP PUSH2 0x3041 PUSH1 0x60 DUP4 ADD DUP6 PUSH2 0x2488 JUMP JUMPDEST PUSH2 0x304E PUSH1 0x80 DUP4 ADD DUP5 PUSH2 0x24BC JUMP JUMPDEST SWAP7 SWAP6 POP POP POP POP POP POP JUMP JUMPDEST PUSH1 0x0 DUP2 SWAP1 POP SWAP3 SWAP2 POP POP JUMP JUMPDEST POP JUMP JUMPDEST PUSH1 0x0 PUSH2 0x3073 PUSH1 0x0 DUP4 PUSH2 0x3058 JUMP JUMPDEST SWAP2 POP PUSH2 0x307E DUP3 PUSH2 0x3063 JUMP JUMPDEST PUSH1 0x0 DUP3 ADD SWAP1 POP SWAP2 SWAP1 POP JUMP JUMPDEST PUSH1 0x0 PUSH2 0x3094 DUP3 PUSH2 0x3066 JUMP JUMPDEST SWAP2 POP DUP2 SWAP1 POP SWAP2 SWAP1 POP JUMP JUMPDEST PUSH1 0x0 PUSH2 0x30A9 DUP3 PUSH2 0x24B2 JUMP JUMPDEST SWAP2 POP PUSH2 0x30B4 DUP4 PUSH2 0x24B2 JUMP JUMPDEST SWAP3 POP DUP3 DUP3 MUL PUSH2 0x30C2 DUP2 PUSH2 0x24B2 JUMP JUMPDEST SWAP2 POP DUP3 DUP3 DIV DUP5 EQ DUP4 ISZERO OR PUSH2 0x30D9 JUMPI PUSH2 0x30D8 PUSH2 0x28A4 JUMP JUMPDEST JUMPDEST POP SWAP3 SWAP2 POP POP JUMP INVALID LOG2 PUSH5 0x6970667358 0x22 SLT KECCAK256 PREVRANDAO PUSH19 0x8B2BBF6689D8B0D8B1EEBE01C643AAC8D46EA0 0xA5 MLOAD CALLER PUSH4 0x601B3ECB 0xAD 0x5F CODESIZE PUSH5 0x736F6C6343 STOP ADDMOD SGT STOP CALLER "
				},
				"gasEstimates": {
					"creation": {
						"codeDepositCost": "2513200",
						"executionCost": "infinite",
						"totalCost": "infinite"
					},
					"external": {
						"DEAD()": "425",
						"_totalSupply()": "418",
						"allowance(address,address)": "infinite",
						"approve(address,uint256)": "23300",
						"balanceOf(address)": "2909",
						"buyfee()": "397",
						"changeLpPair(address)": "infinite",
						"changeWallets(address)": "infinite",
						"decimals()": "411",
						"enableTrading()": "29751",
						"fee_denominator()": "373",
						"getOwner()": "2602",
						"isNoFeeWallet(address)": "2995",
						"isTradingEnabled()": "2612",
						"lpPair()": "2625",
						"name()": "infinite",
						"owner()": "2611",
						"renounceOwnership()": "30464",
						"sellfee()": "417",
						"setNoFeeWallet(address,bool)": "27321",
						"setPresaleAddress(address,bool)": "infinite",
						"swapRouter()": "infinite",
						"swapThreshold()": "infinite",
						"symbol()": "infinite",
						"toggleCanSwapFees(bool)": "infinite",
						"totalSupply()": "406",
						"transfer(address,uint256)": "infinite",
						"transferFrom(address,address,uint256)": "infinite",
						"transferOwnership(address)": "30830",
						"transferfee()": "375"
					},
					"internal": {
						"_approve(address,address,uint256)": "infinite",
						"_transfer(address,address,uint256)": "infinite",
						"canSwap(address,address)": "6693",
						"internalSwap(uint256)": "infinite",
						"isLimitedAddress(address,address)": "infinite",
						"is_buy(address,address)": "4529",
						"is_sell(address,address)": "4529",
						"takeTaxes(address,bool,bool,uint256)": "infinite"
					}
				},
				"methodIdentifiers": {
					"DEAD()": "03fd2a45",
					"_totalSupply()": "3eaaf86b",
					"allowance(address,address)": "dd62ed3e",
					"approve(address,uint256)": "095ea7b3",
					"balanceOf(address)": "70a08231",
					"buyfee()": "1dc36945",
					"changeLpPair(address)": "d5914dc0",
					"changeWallets(address)": "c4ab12b5",
					"decimals()": "313ce567",
					"enableTrading()": "8a8c523c",
					"fee_denominator()": "dc9d75b0",
					"getOwner()": "893d20e8",
					"isNoFeeWallet(address)": "27889862",
					"isTradingEnabled()": "064a59d0",
					"lpPair()": "452ed4f1",
					"name()": "06fdde03",
					"owner()": "8da5cb5b",
					"renounceOwnership()": "715018a6",
					"sellfee()": "e9451f5f",
					"setNoFeeWallet(address,bool)": "0faba554",
					"setPresaleAddress(address,bool)": "3cd17c96",
					"swapRouter()": "c31c9c07",
					"swapThreshold()": "0445b667",
					"symbol()": "95d89b41",
					"toggleCanSwapFees(bool)": "111a60b0",
					"totalSupply()": "18160ddd",
					"transfer(address,uint256)": "a9059cbb",
					"transferFrom(address,address,uint256)": "23b872dd",
					"transferOwnership(address)": "f2fde38b",
					"transferfee()": "54de7bee"
				}
			},
			"storageLayout": {
				"storage": [
					{
						"astId": 33,
						"contract": "contracts/pig2.0.sol:PIG2",
						"label": "_owner",
						"offset": 0,
						"slot": "0",
						"type": "t_address"
					},
					{
						"astId": 516,
						"contract": "contracts/pig2.0.sol:PIG2",
						"label": "_allowances",
						"offset": 0,
						"slot": "1",
						"type": "t_mapping(t_address,t_mapping(t_address,t_uint256))"
					},
					{
						"astId": 520,
						"contract": "contracts/pig2.0.sol:PIG2",
						"label": "_noFee",
						"offset": 0,
						"slot": "2",
						"type": "t_mapping(t_address,t_bool)"
					},
					{
						"astId": 524,
						"contract": "contracts/pig2.0.sol:PIG2",
						"label": "liquidityAdd",
						"offset": 0,
						"slot": "3",
						"type": "t_mapping(t_address,t_bool)"
					},
					{
						"astId": 528,
						"contract": "contracts/pig2.0.sol:PIG2",
						"label": "isLpPair",
						"offset": 0,
						"slot": "4",
						"type": "t_mapping(t_address,t_bool)"
					},
					{
						"astId": 532,
						"contract": "contracts/pig2.0.sol:PIG2",
						"label": "isPresaleAddress",
						"offset": 0,
						"slot": "5",
						"type": "t_mapping(t_address,t_bool)"
					},
					{
						"astId": 536,
						"contract": "contracts/pig2.0.sol:PIG2",
						"label": "balance",
						"offset": 0,
						"slot": "6",
						"type": "t_mapping(t_address,t_uint256)"
					},
					{
						"astId": 563,
						"contract": "contracts/pig2.0.sol:PIG2",
						"label": "canSwapFees",
						"offset": 0,
						"slot": "7",
						"type": "t_bool"
					},
					{
						"astId": 569,
						"contract": "contracts/pig2.0.sol:PIG2",
						"label": "marketingAddress",
						"offset": 1,
						"slot": "7",
						"type": "t_address_payable"
					},
					{
						"astId": 572,
						"contract": "contracts/pig2.0.sol:PIG2",
						"label": "swapRouter",
						"offset": 0,
						"slot": "8",
						"type": "t_contract(IRouter02)325"
					},
					{
						"astId": 586,
						"contract": "contracts/pig2.0.sol:PIG2",
						"label": "lpPair",
						"offset": 0,
						"slot": "9",
						"type": "t_address"
					},
					{
						"astId": 589,
						"contract": "contracts/pig2.0.sol:PIG2",
						"label": "isTradingEnabled",
						"offset": 20,
						"slot": "9",
						"type": "t_bool"
					},
					{
						"astId": 591,
						"contract": "contracts/pig2.0.sol:PIG2",
						"label": "inSwap",
						"offset": 21,
						"slot": "9",
						"type": "t_bool"
					}
				],
				"types": {
					"t_address": {
						"encoding": "inplace",
						"label": "address",
						"numberOfBytes": "20"
					},
					"t_address_payable": {
						"encoding": "inplace",
						"label": "address payable",
						"numberOfBytes": "20"
					},
					"t_bool": {
						"encoding": "inplace",
						"label": "bool",
						"numberOfBytes": "1"
					},
					"t_contract(IRouter02)325": {
						"encoding": "inplace",
						"label": "contract IRouter02",
						"numberOfBytes": "20"
					},
					"t_mapping(t_address,t_bool)": {
						"encoding": "mapping",
						"key": "t_address",
						"label": "mapping(address => bool)",
						"numberOfBytes": "32",
						"value": "t_bool"
					},
					"t_mapping(t_address,t_mapping(t_address,t_uint256))": {
						"encoding": "mapping",
						"key": "t_address",
						"label": "mapping(address => mapping(address => uint256))",
						"numberOfBytes": "32",
						"value": "t_mapping(t_address,t_uint256)"
					},
					"t_mapping(t_address,t_uint256)": {
						"encoding": "mapping",
						"key": "t_address",
						"label": "mapping(address => uint256)",
						"numberOfBytes": "32",
						"value": "t_uint256"
					},
					"t_uint256": {
						"encoding": "inplace",
						"label": "uint256",
						"numberOfBytes": "32"
					}
				}
			},
			"userdoc": {
				"kind": "user",
				"methods": {},
				"version": 1
			}
		}
	}
}