{
	"contracts/hundred.sol": {
		"HUNDRED": {
			"abi": [
				{
					"inputs": [
						{
							"internalType": "address",
							"name": "_pancakeSwapRouterAddress",
							"type": "address"
						}
					],
					"stateMutability": "nonpayable",
					"type": "constructor"
				},
				{
					"anonymous": false,
					"inputs": [
						{
							"indexed": true,
							"internalType": "address",
							"name": "owner",
							"type": "address"
						},
						{
							"indexed": true,
							"internalType": "address",
							"name": "spender",
							"type": "address"
						},
						{
							"indexed": false,
							"internalType": "uint256",
							"name": "value",
							"type": "uint256"
						}
					],
					"name": "Approval",
					"type": "event"
				},
				{
					"anonymous": false,
					"inputs": [
						{
							"indexed": true,
							"internalType": "address",
							"name": "account",
							"type": "address"
						}
					],
					"name": "Blacklisted",
					"type": "event"
				},
				{
					"anonymous": false,
					"inputs": [
						{
							"indexed": true,
							"internalType": "address",
							"name": "account",
							"type": "address"
						}
					],
					"name": "ExcludedFromLockPeriod",
					"type": "event"
				},
				{
					"anonymous": false,
					"inputs": [
						{
							"indexed": true,
							"internalType": "address",
							"name": "account",
							"type": "address"
						}
					],
					"name": "IncludedInTimeLock",
					"type": "event"
				},
				{
					"anonymous": false,
					"inputs": [
						{
							"indexed": true,
							"internalType": "address",
							"name": "previousOwner",
							"type": "address"
						},
						{
							"indexed": true,
							"internalType": "address",
							"name": "newOwner",
							"type": "address"
						}
					],
					"name": "OwnershipTransferred",
					"type": "event"
				},
				{
					"anonymous": false,
					"inputs": [
						{
							"indexed": true,
							"internalType": "address",
							"name": "oldRouter",
							"type": "address"
						},
						{
							"indexed": true,
							"internalType": "address",
							"name": "newRouter",
							"type": "address"
						},
						{
							"indexed": true,
							"internalType": "address",
							"name": "newPair",
							"type": "address"
						}
					],
					"name": "RouterUpdated",
					"type": "event"
				},
				{
					"anonymous": false,
					"inputs": [
						{
							"indexed": true,
							"internalType": "address",
							"name": "from",
							"type": "address"
						},
						{
							"indexed": true,
							"internalType": "address",
							"name": "to",
							"type": "address"
						},
						{
							"indexed": false,
							"internalType": "uint256",
							"name": "value",
							"type": "uint256"
						}
					],
					"name": "Transfer",
					"type": "event"
				},
				{
					"anonymous": false,
					"inputs": [
						{
							"indexed": true,
							"internalType": "address",
							"name": "account",
							"type": "address"
						}
					],
					"name": "Unblacklisted",
					"type": "event"
				},
				{
					"inputs": [
						{
							"internalType": "address",
							"name": "owner",
							"type": "address"
						},
						{
							"internalType": "address",
							"name": "spender",
							"type": "address"
						}
					],
					"name": "allowance",
					"outputs": [
						{
							"internalType": "uint256",
							"name": "",
							"type": "uint256"
						}
					],
					"stateMutability": "view",
					"type": "function"
				},
				{
					"inputs": [
						{
							"internalType": "address",
							"name": "spender",
							"type": "address"
						},
						{
							"internalType": "uint256",
							"name": "amount",
							"type": "uint256"
						}
					],
					"name": "approve",
					"outputs": [
						{
							"internalType": "bool",
							"name": "",
							"type": "bool"
						}
					],
					"stateMutability": "nonpayable",
					"type": "function"
				},
				{
					"inputs": [
						{
							"internalType": "address",
							"name": "account",
							"type": "address"
						}
					],
					"name": "balanceOf",
					"outputs": [
						{
							"internalType": "uint256",
							"name": "",
							"type": "uint256"
						}
					],
					"stateMutability": "view",
					"type": "function"
				},
				{
					"inputs": [
						{
							"internalType": "address",
							"name": "_address",
							"type": "address"
						}
					],
					"name": "blacklistAddress",
					"outputs": [],
					"stateMutability": "nonpayable",
					"type": "function"
				},
				{
					"inputs": [
						{
							"internalType": "address",
							"name": "",
							"type": "address"
						}
					],
					"name": "blacklisted",
					"outputs": [
						{
							"internalType": "bool",
							"name": "",
							"type": "bool"
						}
					],
					"stateMutability": "view",
					"type": "function"
				},
				{
					"inputs": [],
					"name": "decimals",
					"outputs": [
						{
							"internalType": "uint8",
							"name": "",
							"type": "uint8"
						}
					],
					"stateMutability": "view",
					"type": "function"
				},
				{
					"inputs": [
						{
							"internalType": "address",
							"name": "spender",
							"type": "address"
						},
						{
							"internalType": "uint256",
							"name": "subtractedValue",
							"type": "uint256"
						}
					],
					"name": "decreaseAllowance",
					"outputs": [
						{
							"internalType": "bool",
							"name": "",
							"type": "bool"
						}
					],
					"stateMutability": "nonpayable",
					"type": "function"
				},
				{
					"inputs": [
						{
							"internalType": "address",
							"name": "_address",
							"type": "address"
						}
					],
					"name": "excludeFromLockPeriod",
					"outputs": [],
					"stateMutability": "nonpayable",
					"type": "function"
				},
				{
					"inputs": [
						{
							"internalType": "address",
							"name": "",
							"type": "address"
						}
					],
					"name": "excludedFromLockPeriod",
					"outputs": [
						{
							"internalType": "bool",
							"name": "",
							"type": "bool"
						}
					],
					"stateMutability": "view",
					"type": "function"
				},
				{
					"inputs": [
						{
							"internalType": "address",
							"name": "_address",
							"type": "address"
						}
					],
					"name": "includeInTimeLock",
					"outputs": [],
					"stateMutability": "nonpayable",
					"type": "function"
				},
				{
					"inputs": [
						{
							"internalType": "address",
							"name": "spender",
							"type": "address"
						},
						{
							"internalType": "uint256",
							"name": "addedValue",
							"type": "uint256"
						}
					],
					"name": "increaseAllowance",
					"outputs": [
						{
							"internalType": "bool",
							"name": "",
							"type": "bool"
						}
					],
					"stateMutability": "nonpayable",
					"type": "function"
				},
				{
					"inputs": [],
					"name": "lockPeriod",
					"outputs": [
						{
							"internalType": "uint256",
							"name": "",
							"type": "uint256"
						}
					],
					"stateMutability": "view",
					"type": "function"
				},
				{
					"inputs": [],
					"name": "name",
					"outputs": [
						{
							"internalType": "string",
							"name": "",
							"type": "string"
						}
					],
					"stateMutability": "view",
					"type": "function"
				},
				{
					"inputs": [],
					"name": "owner",
					"outputs": [
						{
							"internalType": "address",
							"name": "",
							"type": "address"
						}
					],
					"stateMutability": "view",
					"type": "function"
				},
				{
					"inputs": [],
					"name": "pancakeSwapPair",
					"outputs": [
						{
							"internalType": "address",
							"name": "",
							"type": "address"
						}
					],
					"stateMutability": "view",
					"type": "function"
				},
				{
					"inputs": [
						{
							"internalType": "address",
							"name": "",
							"type": "address"
						}
					],
					"name": "pancakeSwapPairs",
					"outputs": [
						{
							"internalType": "bool",
							"name": "",
							"type": "bool"
						}
					],
					"stateMutability": "view",
					"type": "function"
				},
				{
					"inputs": [],
					"name": "pancakeSwapRouter",
					"outputs": [
						{
							"internalType": "contract IPancakeSwapV2Router02",
							"name": "",
							"type": "address"
						}
					],
					"stateMutability": "view",
					"type": "function"
				},
				{
					"inputs": [],
					"name": "renounceOwnership",
					"outputs": [],
					"stateMutability": "nonpayable",
					"type": "function"
				},
				{
					"inputs": [
						{
							"internalType": "address",
							"name": "_newRouterAddress",
							"type": "address"
						}
					],
					"name": "setNewRouter",
					"outputs": [],
					"stateMutability": "nonpayable",
					"type": "function"
				},
				{
					"inputs": [],
					"name": "symbol",
					"outputs": [
						{
							"internalType": "string",
							"name": "",
							"type": "string"
						}
					],
					"stateMutability": "view",
					"type": "function"
				},
				{
					"inputs": [
						{
							"internalType": "address",
							"name": "",
							"type": "address"
						}
					],
					"name": "timeStamps",
					"outputs": [
						{
							"internalType": "uint256",
							"name": "",
							"type": "uint256"
						}
					],
					"stateMutability": "view",
					"type": "function"
				},
				{
					"inputs": [],
					"name": "totalSupply",
					"outputs": [
						{
							"internalType": "uint256",
							"name": "",
							"type": "uint256"
						}
					],
					"stateMutability": "view",
					"type": "function"
				},
				{
					"inputs": [
						{
							"internalType": "address",
							"name": "recipient",
							"type": "address"
						},
						{
							"internalType": "uint256",
							"name": "amount",
							"type": "uint256"
						}
					],
					"name": "transfer",
					"outputs": [
						{
							"internalType": "bool",
							"name": "",
							"type": "bool"
						}
					],
					"stateMutability": "nonpayable",
					"type": "function"
				},
				{
					"inputs": [
						{
							"internalType": "address",
							"name": "sender",
							"type": "address"
						},
						{
							"internalType": "address",
							"name": "recipient",
							"type": "address"
						},
						{
							"internalType": "uint256",
							"name": "amount",
							"type": "uint256"
						}
					],
					"name": "transferFrom",
					"outputs": [
						{
							"internalType": "bool",
							"name": "",
							"type": "bool"
						}
					],
					"stateMutability": "nonpayable",
					"type": "function"
				},
				{
					"inputs": [
						{
							"internalType": "address",
							"name": "newOwner",
							"type": "address"
						}
					],
					"name": "transferOwnership",
					"outputs": [],
					"stateMutability": "nonpayable",
					"type": "function"
				},
				{
					"inputs": [
						{
							"internalType": "address",
							"name": "_address",
							"type": "address"
						}
					],
					"name": "unblacklistAddress",
					"outputs": [],
					"stateMutability": "nonpayable",
					"type": "function"
				}
			],
			"devdoc": {
				"events": {
					"Approval(address,address,uint256)": {
						"details": "Emitted when the allowance of a `spender` for an `owner` is set by a call to {approve}. `value` is the new allowance."
					},
					"Transfer(address,address,uint256)": {
						"details": "Emitted when `value` tokens are moved from one account (`from`) to another (`to`). Note that `value` may be zero."
					}
				},
				"kind": "dev",
				"methods": {
					"allowance(address,address)": {
						"details": "See {IERC20-allowance}."
					},
					"approve(address,uint256)": {
						"details": "See {IERC20-approve}. NOTE: If `amount` is the maximum `uint256`, the allowance is not updated on `transferFrom`. This is semantically equivalent to an infinite approval. Requirements: - `spender` cannot be the zero address."
					},
					"balanceOf(address)": {
						"details": "See {IERC20-balanceOf}."
					},
					"decimals()": {
						"details": "Returns the number of decimals used to get its user representation. For example, if `decimals` equals `2`, a balance of `505` tokens should be displayed to a user as `5.05` (`505 / 10 ** 2`). Tokens usually opt for a value of 18, imitating the relationship between Ether and Wei. This is the default value returned by this function, unless it's overridden. NOTE: This information is only used for _display_ purposes: it in no way affects any of the arithmetic of the contract, including {IERC20-balanceOf} and {IERC20-transfer}."
					},
					"decreaseAllowance(address,uint256)": {
						"details": "Atomically decreases the allowance granted to `spender` by the caller. This is an alternative to {approve} that can be used as a mitigation for problems described in {IERC20-approve}. Emits an {Approval} event indicating the updated allowance. Requirements: - `spender` cannot be the zero address. - `spender` must have allowance for the caller of at least `subtractedValue`."
					},
					"increaseAllowance(address,uint256)": {
						"details": "Atomically increases the allowance granted to `spender` by the caller. This is an alternative to {approve} that can be used as a mitigation for problems described in {IERC20-approve}. Emits an {Approval} event indicating the updated allowance. Requirements: - `spender` cannot be the zero address."
					},
					"name()": {
						"details": "Returns the name of the token."
					},
					"owner()": {
						"details": "Returns the address of the current owner."
					},
					"renounceOwnership()": {
						"details": "Leaves the contract without owner. It will not be possible to call `onlyOwner` functions. Can only be called by the current owner. NOTE: Renouncing ownership will leave the contract without an owner, thereby disabling any functionality that is only available to the owner."
					},
					"symbol()": {
						"details": "Returns the symbol of the token, usually a shorter version of the name."
					},
					"totalSupply()": {
						"details": "See {IERC20-totalSupply}."
					},
					"transferOwnership(address)": {
						"details": "Transfers ownership of the contract to a new account (`newOwner`). Can only be called by the current owner."
					}
				},
				"version": 1
			},
			"evm": {
				"assembly": "    /* \"contracts/hundred.sol\":1179:5579  contract HUNDRED is ERC20, Ownable {... */\n  mstore(0x40, 0x80)\n    /* \"contracts/hundred.sol\":1987:2676  constructor(address _pancakeSwapRouterAddress) ERC20(\"HUNDRED\", \"HUNDRED\") {... */\n  callvalue\n  dup1\n  iszero\n  tag_1\n  jumpi\n  0x00\n  dup1\n  revert\ntag_1:\n  pop\n  mload(0x40)\n  sub(codesize, bytecodeSize)\n  dup1\n  bytecodeSize\n  dup4\n  codecopy\n  dup2\n  add\n  0x40\n  dup2\n  swap1\n  mstore\n  tag_2\n  swap2\n  tag_3\n  jump\t// in\ntag_2:\n    /* \"@openzeppelin/contracts/token/ERC20/ERC20.sol\":1980:2093  constructor(string memory name_, string memory symbol_) {... */\n  0x40\n  dup1\n  mload\n  dup1\n  dup3\n  add\n  dup3\n  mstore\n  0x07\n  dup1\n  dup3\n  mstore\n  shl(0xca, 0x12155391149151)\n  0x20\n  dup1\n  dup5\n  add\n  dup3\n  swap1\n  mstore\n  dup5\n  mload\n  dup1\n  dup7\n  add\n  swap1\n  swap6\n  mstore\n  swap2\n  dup5\n  mstore\n  swap1\n  dup4\n  add\n  mstore\n  swap1\n    /* \"@openzeppelin/contracts/token/ERC20/ERC20.sol\":2046:2051  _name */\n  0x03\n    /* \"@openzeppelin/contracts/token/ERC20/ERC20.sol\":2046:2059  _name = name_ */\n  tag_8\n    /* \"@openzeppelin/contracts/token/ERC20/ERC20.sol\":1980:2093  constructor(string memory name_, string memory symbol_) {... */\n  dup4\n    /* \"@openzeppelin/contracts/token/ERC20/ERC20.sol\":2046:2051  _name */\n  dup3\n    /* \"@openzeppelin/contracts/token/ERC20/ERC20.sol\":2046:2059  _name = name_ */\n  tag_9\n  jump\t// in\ntag_8:\n  pop\n    /* \"@openzeppelin/contracts/token/ERC20/ERC20.sol\":2069:2076  _symbol */\n  0x04\n    /* \"@openzeppelin/contracts/token/ERC20/ERC20.sol\":2069:2086  _symbol = symbol_ */\n  tag_10\n    /* \"@openzeppelin/contracts/token/ERC20/ERC20.sol\":2079:2086  symbol_ */\n  dup3\n    /* \"@openzeppelin/contracts/token/ERC20/ERC20.sol\":2069:2076  _symbol */\n  dup3\n    /* \"@openzeppelin/contracts/token/ERC20/ERC20.sol\":2069:2086  _symbol = symbol_ */\n  tag_9\n  jump\t// in\ntag_10:\n  pop\n    /* \"@openzeppelin/contracts/token/ERC20/ERC20.sol\":1980:2093  constructor(string memory name_, string memory symbol_) {... */\n  pop\n  pop\n    /* \"@openzeppelin/contracts/access/Ownable.sol\":936:968  _transferOwnership(_msgSender()) */\n  tag_12\n    /* \"@openzeppelin/contracts/access/Ownable.sol\":955:967  _msgSender() */\n  tag_13\n    /* \"@openzeppelin/contracts/access/Ownable.sol\":955:965  _msgSender */\n  shl(0x20, tag_14)\n    /* \"@openzeppelin/contracts/access/Ownable.sol\":955:967  _msgSender() */\n  0x20\n  shr\n  jump\t// in\ntag_13:\n    /* \"@openzeppelin/contracts/access/Ownable.sol\":936:954  _transferOwnership */\n  tag_15\n    /* \"@openzeppelin/contracts/access/Ownable.sol\":936:968  _transferOwnership(_msgSender()) */\n  jump\t// in\ntag_12:\n    /* \"contracts/hundred.sol\":2069:2100  _mint(msg.sender, TOTAL_SUPPLY) */\n  tag_17\n    /* \"contracts/hundred.sol\":2075:2085  msg.sender */\n  caller\n    /* \"contracts/hundred.sol\":1263:1287  101_000_000_000 * 10**18 */\n  0x0146593deb0d42980788000000\n    /* \"contracts/hundred.sol\":2069:2074  _mint */\n  tag_18\n    /* \"contracts/hundred.sol\":2069:2100  _mint(msg.sender, TOTAL_SUPPLY) */\n  jump\t// in\ntag_17:\n    /* \"contracts/hundred.sol\":2207:2224  pancakeSwapRouter */\n  0x07\n    /* \"contracts/hundred.sol\":2207:2245  pancakeSwapRouter = _pancakeSwapRouter */\n  dup1\n  sload\n  not(sub(shl(0xa0, 0x01), 0x01))\n  and\n  sub(shl(0xa0, 0x01), 0x01)\n  dup4\n  and\n  swap1\n  dup2\n  or\n  swap1\n  swap2\n  sstore\n    /* \"contracts/hundred.sol\":2292:2320  _pancakeSwapRouter.factory() */\n  0x40\n  dup1\n  mload\n  shl(0xe0, 0xc45a0155)\n  dup2\n  mstore\n  swap1\n  mload\n    /* \"contracts/hundred.sol\":2207:2245  pancakeSwapRouter = _pancakeSwapRouter */\n  dup4\n  swap3\n  swap2\n    /* \"contracts/hundred.sol\":2292:2318  _pancakeSwapRouter.factory */\n  0xc45a0155\n  swap2\n    /* \"contracts/hundred.sol\":2292:2320  _pancakeSwapRouter.factory() */\n  0x04\n  dup1\n  dup4\n  add\n  swap3\n  0x20\n  swap3\n  swap2\n  swap1\n  dup3\n  swap1\n  sub\n  add\n  dup2\n    /* \"contracts/hundred.sol\":2207:2245  pancakeSwapRouter = _pancakeSwapRouter */\n  dup7\n    /* \"contracts/hundred.sol\":2292:2320  _pancakeSwapRouter.factory() */\n  gas\n  staticcall\n  iszero\n  dup1\n  iszero\n  tag_20\n  jumpi\n  returndatasize\n  0x00\n  dup1\n  returndatacopy\n  revert(0x00, returndatasize)\ntag_20:\n  pop\n  pop\n  pop\n  pop\n  mload(0x40)\n  returndatasize\n  not(0x1f)\n  0x1f\n  dup3\n  add\n  and\n  dup3\n  add\n  dup1\n  0x40\n  mstore\n  pop\n  dup2\n  add\n  swap1\n  tag_21\n  swap2\n  swap1\n  tag_3\n  jump\t// in\ntag_21:\n  sub(shl(0xa0, 0x01), 0x01)\n    /* \"contracts/hundred.sol\":2270:2338  IPancakeSwapV2Factory(_pancakeSwapRouter.factory())... */\n  and\n  0xc9c65396\n    /* \"contracts/hundred.sol\":2347:2351  this */\n  address\n    /* \"contracts/hundred.sol\":2354:2372  _pancakeSwapRouter */\n  dup4\n  sub(shl(0xa0, 0x01), 0x01)\n    /* \"contracts/hundred.sol\":2354:2377  _pancakeSwapRouter.WETH */\n  and\n  0xad5c4648\n    /* \"contracts/hundred.sol\":2354:2379  _pancakeSwapRouter.WETH() */\n  mload(0x40)\n  dup2\n  0xffffffff\n  and\n  0xe0\n  shl\n  dup2\n  mstore\n  0x04\n  add\n  0x20\n  mload(0x40)\n  dup1\n  dup4\n  sub\n  dup2\n  dup7\n  gas\n  staticcall\n  iszero\n  dup1\n  iszero\n  tag_23\n  jumpi\n  returndatasize\n  0x00\n  dup1\n  returndatacopy\n  revert(0x00, returndatasize)\ntag_23:\n  pop\n  pop\n  pop\n  pop\n  mload(0x40)\n  returndatasize\n  not(0x1f)\n  0x1f\n  dup3\n  add\n  and\n  dup3\n  add\n  dup1\n  0x40\n  mstore\n  pop\n  dup2\n  add\n  swap1\n  tag_24\n  swap2\n  swap1\n  tag_3\n  jump\t// in\ntag_24:\n    /* \"contracts/hundred.sol\":2270:2380  IPancakeSwapV2Factory(_pancakeSwapRouter.factory())... */\n  mload(0x40)\n  not(sub(shl(0xe0, 0x01), 0x01))\n  0xe0\n  dup6\n  swap1\n  shl\n  and\n  dup2\n  mstore\n  sub(shl(0xa0, 0x01), 0x01)\n    /* \"#utility.yul\":3260:3275   */\n  swap3\n  dup4\n  and\n    /* \"contracts/hundred.sol\":2270:2380  IPancakeSwapV2Factory(_pancakeSwapRouter.factory())... */\n  0x04\n  dup3\n  add\n    /* \"#utility.yul\":3242:3276   */\n  mstore\n    /* \"#utility.yul\":3312:3327   */\n  swap2\n  and\n    /* \"#utility.yul\":3292:3310   */\n  0x24\n  dup3\n  add\n    /* \"#utility.yul\":3285:3328   */\n  mstore\n    /* \"#utility.yul\":3177:3195   */\n  0x44\n  add\n    /* \"contracts/hundred.sol\":2270:2380  IPancakeSwapV2Factory(_pancakeSwapRouter.factory())... */\n  0x20\n  mload(0x40)\n  dup1\n  dup4\n  sub\n  dup2\n  0x00\n  dup8\n  gas\n  call\n  iszero\n  dup1\n  iszero\n  tag_28\n  jumpi\n  returndatasize\n  0x00\n  dup1\n  returndatacopy\n  revert(0x00, returndatasize)\ntag_28:\n  pop\n  pop\n  pop\n  pop\n  mload(0x40)\n  returndatasize\n  not(0x1f)\n  0x1f\n  dup3\n  add\n  and\n  dup3\n  add\n  dup1\n  0x40\n  mstore\n  pop\n  dup2\n  add\n  swap1\n  tag_29\n  swap2\n  swap1\n  tag_3\n  jump\t// in\ntag_29:\n    /* \"contracts/hundred.sol\":2252:2267  pancakeSwapPair */\n  0x06\n    /* \"contracts/hundred.sol\":2252:2380  pancakeSwapPair = IPancakeSwapV2Factory(_pancakeSwapRouter.factory())... */\n  dup1\n  sload\n  not(sub(shl(0xa0, 0x01), 0x01))\n  and\n  sub(shl(0xa0, 0x01), 0x01)\n  swap3\n  dup4\n  and\n  or\n  swap1\n  sstore\n    /* \"contracts/hundred.sol\":2476:2486  msg.sender */\n  caller\n  0x00\n    /* \"contracts/hundred.sol\":2453:2487  excludedFromLockPeriod[msg.sender] */\n  dup2\n  dup2\n  mstore\n    /* \"contracts/hundred.sol\":2453:2475  excludedFromLockPeriod */\n  0x09\n    /* \"contracts/hundred.sol\":2453:2487  excludedFromLockPeriod[msg.sender] */\n  0x20\n  mstore\n  0x40\n  dup1\n  dup3\n  keccak256\n    /* \"contracts/hundred.sol\":2453:2494  excludedFromLockPeriod[msg.sender] = true */\n  dup1\n  sload\n  not(0xff)\n  swap1\n  dup2\n  and\n  0x01\n  swap1\n  dup2\n  or\n  swap1\n  swap3\n  sstore\n    /* \"contracts/hundred.sol\":2532:2549  pancakeSwapRouter */\n  sload(0x07)\n  swap1\n  swap6\n  and\n    /* \"contracts/hundred.sol\":2501:2551  excludedFromLockPeriod[address(pancakeSwapRouter)] */\n  dup4\n  mstore\n  dup2\n  dup4\n  keccak256\n    /* \"contracts/hundred.sol\":2501:2558  excludedFromLockPeriod[address(pancakeSwapRouter)] = true */\n  dup1\n  sload\n  swap1\n  swap6\n  and\n  or\n  swap1\n  swap4\n  sstore\n    /* \"contracts/hundred.sol\":2572:2606  ExcludedFromLockPeriod(msg.sender) */\n  swap2\n  mload\n    /* \"contracts/hundred.sol\":2476:2486  msg.sender */\n  swap1\n  swap2\n  0x00\n  dup1\n  mload\n  0x20\n  data_4676e9525129958bed49b43fa7e56d15bfab1bc03bb4ebe3ffe4fe604a81e165\n  dup4\n  codecopy\n  dup2\n  mload\n  swap2\n  mstore\n    /* \"contracts/hundred.sol\":2572:2606  ExcludedFromLockPeriod(msg.sender) */\n  swap2\n  log2\n    /* \"contracts/hundred.sol\":2649:2666  pancakeSwapRouter */\n  sload(0x07)\n    /* \"contracts/hundred.sol\":2618:2668  ExcludedFromLockPeriod(address(pancakeSwapRouter)) */\n  mload(0x40)\n  sub(shl(0xa0, 0x01), 0x01)\n    /* \"contracts/hundred.sol\":2649:2666  pancakeSwapRouter */\n  swap1\n  swap2\n  and\n  swap1\n  0x00\n  dup1\n  mload\n  0x20\n  data_4676e9525129958bed49b43fa7e56d15bfab1bc03bb4ebe3ffe4fe604a81e165\n  dup4\n  codecopy\n  dup2\n  mload\n  swap2\n  mstore\n    /* \"contracts/hundred.sol\":2618:2668  ExcludedFromLockPeriod(address(pancakeSwapRouter)) */\n  swap1\n    /* \"contracts/hundred.sol\":2649:2666  pancakeSwapRouter */\n  0x00\n  swap1\n    /* \"contracts/hundred.sol\":2618:2668  ExcludedFromLockPeriod(address(pancakeSwapRouter)) */\n  log2\n    /* \"contracts/hundred.sol\":2062:2676  {... */\n  pop\n    /* \"contracts/hundred.sol\":1987:2676  constructor(address _pancakeSwapRouterAddress) ERC20(\"HUNDRED\", \"HUNDRED\") {... */\n  pop\n    /* \"contracts/hundred.sol\":1179:5579  contract HUNDRED is ERC20, Ownable {... */\n  jump(tag_52)\n    /* \"@openzeppelin/contracts/utils/Context.sol\":640:736  function _msgSender() internal view virtual returns (address) {... */\ntag_14:\n    /* \"@openzeppelin/contracts/utils/Context.sol\":719:729  msg.sender */\n  caller\n  swap1\n    /* \"@openzeppelin/contracts/utils/Context.sol\":640:736  function _msgSender() internal view virtual returns (address) {... */\n  jump\t// out\n    /* \"@openzeppelin/contracts/access/Ownable.sol\":2426:2613  function _transferOwnership(address newOwner) internal virtual {... */\ntag_15:\n    /* \"@openzeppelin/contracts/access/Ownable.sol\":2518:2524  _owner */\n  0x05\n  dup1\n  sload\n  sub(shl(0xa0, 0x01), 0x01)\n    /* \"@openzeppelin/contracts/access/Ownable.sol\":2534:2551  _owner = newOwner */\n  dup4\n  dup2\n  and\n  not(sub(shl(0xa0, 0x01), 0x01))\n  dup4\n  and\n  dup2\n  or\n  swap1\n  swap4\n  sstore\n    /* \"@openzeppelin/contracts/access/Ownable.sol\":2566:2606  OwnershipTransferred(oldOwner, newOwner) */\n  mload(0x40)\n    /* \"@openzeppelin/contracts/access/Ownable.sol\":2518:2524  _owner */\n  swap2\n  and\n  swap2\n    /* \"@openzeppelin/contracts/access/Ownable.sol\":2534:2551  _owner = newOwner */\n  swap1\n    /* \"@openzeppelin/contracts/access/Ownable.sol\":2518:2524  _owner */\n  dup3\n  swap1\n    /* \"@openzeppelin/contracts/access/Ownable.sol\":2566:2606  OwnershipTransferred(oldOwner, newOwner) */\n  0x8be0079c531659141344cd1fd0a4f28419497f9722a3daafe3b4186f6b6457e0\n  swap1\n    /* \"@openzeppelin/contracts/access/Ownable.sol\":2499:2515  address oldOwner */\n  0x00\n  swap1\n    /* \"@openzeppelin/contracts/access/Ownable.sol\":2566:2606  OwnershipTransferred(oldOwner, newOwner) */\n  log3\n    /* \"@openzeppelin/contracts/access/Ownable.sol\":2489:2613  {... */\n  pop\n    /* \"@openzeppelin/contracts/access/Ownable.sol\":2426:2613  function _transferOwnership(address newOwner) internal virtual {... */\n  pop\n  jump\t// out\n    /* \"@openzeppelin/contracts/token/ERC20/ERC20.sol\":8520:9055  function _mint(address account, uint256 amount) internal virtual {... */\ntag_18:\n  sub(shl(0xa0, 0x01), 0x01)\n    /* \"@openzeppelin/contracts/token/ERC20/ERC20.sol\":8603:8624  account != address(0) */\n  dup3\n  and\n    /* \"@openzeppelin/contracts/token/ERC20/ERC20.sol\":8595:8660  require(account != address(0), \"ERC20: mint to the zero address\") */\n  tag_34\n  jumpi\n  mload(0x40)\n  shl(0xe5, 0x461bcd)\n  dup2\n  mstore\n    /* \"#utility.yul\":3541:3543   */\n  0x20\n    /* \"@openzeppelin/contracts/token/ERC20/ERC20.sol\":8595:8660  require(account != address(0), \"ERC20: mint to the zero address\") */\n  0x04\n  dup3\n  add\n    /* \"#utility.yul\":3523:3544   */\n  mstore\n    /* \"#utility.yul\":3580:3582   */\n  0x1f\n    /* \"#utility.yul\":3560:3578   */\n  0x24\n  dup3\n  add\n    /* \"#utility.yul\":3553:3583   */\n  mstore\n    /* \"#utility.yul\":3619:3652   */\n  0x45524332303a206d696e7420746f20746865207a65726f206164647265737300\n    /* \"#utility.yul\":3599:3617   */\n  0x44\n  dup3\n  add\n    /* \"#utility.yul\":3592:3653   */\n  mstore\n    /* \"#utility.yul\":3670:3688   */\n  0x64\n  add\n    /* \"@openzeppelin/contracts/token/ERC20/ERC20.sol\":8595:8660  require(account != address(0), \"ERC20: mint to the zero address\") */\n  mload(0x40)\n  dup1\n  swap2\n  sub\n  swap1\n  revert\ntag_34:\n    /* \"@openzeppelin/contracts/token/ERC20/ERC20.sol\":8747:8753  amount */\n  dup1\n    /* \"@openzeppelin/contracts/token/ERC20/ERC20.sol\":8731:8743  _totalSupply */\n  0x02\n  0x00\n    /* \"@openzeppelin/contracts/token/ERC20/ERC20.sol\":8731:8753  _totalSupply += amount */\n  dup3\n  dup3\n  sload\n  tag_39\n  swap2\n  swap1\n  tag_40\n  jump\t// in\ntag_39:\n  swap1\n  swap2\n  sstore\n  pop\n  pop\n  sub(shl(0xa0, 0x01), 0x01)\n    /* \"@openzeppelin/contracts/token/ERC20/ERC20.sol\":8899:8917  _balances[account] */\n  dup3\n  and\n    /* \"@openzeppelin/contracts/token/ERC20/ERC20.sol\":8899:8908  _balances */\n  0x00\n    /* \"@openzeppelin/contracts/token/ERC20/ERC20.sol\":8899:8917  _balances[account] */\n  dup2\n  dup2\n  mstore\n  0x20\n  dup2\n  dup2\n  mstore\n  0x40\n  dup1\n  dup4\n  keccak256\n    /* \"@openzeppelin/contracts/token/ERC20/ERC20.sol\":8899:8927  _balances[account] += amount */\n  dup1\n  sload\n  dup7\n  add\n  swap1\n  sstore\n    /* \"@openzeppelin/contracts/token/ERC20/ERC20.sol\":8952:8989  Transfer(address(0), account, amount) */\n  mload\n    /* \"#utility.yul\":4072:4097   */\n  dup5\n  dup2\n  mstore\n    /* \"@openzeppelin/contracts/token/ERC20/ERC20.sol\":8952:8989  Transfer(address(0), account, amount) */\n  0xddf252ad1be2c89b69c2b068fc378daa952ba7f163c4a11628f55a4df523b3ef\n  swap2\n    /* \"#utility.yul\":4045:4063   */\n  add\n    /* \"@openzeppelin/contracts/token/ERC20/ERC20.sol\":8952:8989  Transfer(address(0), account, amount) */\n  mload(0x40)\n  dup1\n  swap2\n  sub\n  swap1\n  log3\n    /* \"@openzeppelin/contracts/token/ERC20/ERC20.sol\":8520:9055  function _mint(address account, uint256 amount) internal virtual {... */\n  pop\n  pop\n  jump\t// out\n    /* \"@openzeppelin/contracts/token/ERC20/ERC20.sol\":12073:12164  function _beforeTokenTransfer(address from, address to, uint256 amount) internal virtual {} */\ntag_38:\n  pop\n  pop\n  pop\n  jump\t// out\n    /* \"#utility.yul\":14:304   */\ntag_3:\n    /* \"#utility.yul\":84:90   */\n  0x00\n    /* \"#utility.yul\":137:139   */\n  0x20\n    /* \"#utility.yul\":125:134   */\n  dup3\n    /* \"#utility.yul\":116:123   */\n  dup5\n    /* \"#utility.yul\":112:135   */\n  sub\n    /* \"#utility.yul\":108:140   */\n  slt\n    /* \"#utility.yul\":105:157   */\n  iszero\n  tag_54\n  jumpi\n    /* \"#utility.yul\":153:154   */\n  0x00\n    /* \"#utility.yul\":150:151   */\n  dup1\n    /* \"#utility.yul\":143:155   */\n  revert\n    /* \"#utility.yul\":105:157   */\ntag_54:\n    /* \"#utility.yul\":179:195   */\n  dup2\n  mload\n  sub(shl(0xa0, 0x01), 0x01)\n    /* \"#utility.yul\":224:255   */\n  dup2\n  and\n    /* \"#utility.yul\":214:256   */\n  dup2\n  eq\n    /* \"#utility.yul\":204:274   */\n  tag_55\n  jumpi\n    /* \"#utility.yul\":270:271   */\n  0x00\n    /* \"#utility.yul\":267:268   */\n  dup1\n    /* \"#utility.yul\":260:272   */\n  revert\n    /* \"#utility.yul\":204:274   */\ntag_55:\n    /* \"#utility.yul\":293:298   */\n  swap4\n    /* \"#utility.yul\":14:304   */\n  swap3\n  pop\n  pop\n  pop\n  jump\t// out\n    /* \"#utility.yul\":309:436   */\ntag_47:\n    /* \"#utility.yul\":370:380   */\n  0x4e487b71\n    /* \"#utility.yul\":365:368   */\n  0xe0\n    /* \"#utility.yul\":361:381   */\n  shl\n    /* \"#utility.yul\":358:359   */\n  0x00\n    /* \"#utility.yul\":351:382   */\n  mstore\n    /* \"#utility.yul\":401:405   */\n  0x41\n    /* \"#utility.yul\":398:399   */\n  0x04\n    /* \"#utility.yul\":391:406   */\n  mstore\n    /* \"#utility.yul\":425:429   */\n  0x24\n    /* \"#utility.yul\":422:423   */\n  0x00\n    /* \"#utility.yul\":415:430   */\n  revert\n    /* \"#utility.yul\":441:821   */\ntag_48:\n    /* \"#utility.yul\":520:521   */\n  0x01\n    /* \"#utility.yul\":516:528   */\n  dup2\n  dup2\n  shr\n  swap1\n    /* \"#utility.yul\":563:575   */\n  dup3\n  and\n  dup1\n    /* \"#utility.yul\":584:645   */\n  tag_58\n  jumpi\n    /* \"#utility.yul\":638:642   */\n  0x7f\n    /* \"#utility.yul\":630:636   */\n  dup3\n    /* \"#utility.yul\":626:643   */\n  and\n    /* \"#utility.yul\":616:643   */\n  swap2\n  pop\n    /* \"#utility.yul\":584:645   */\ntag_58:\n    /* \"#utility.yul\":691:693   */\n  0x20\n    /* \"#utility.yul\":683:689   */\n  dup3\n    /* \"#utility.yul\":680:694   */\n  lt\n    /* \"#utility.yul\":660:678   */\n  dup2\n    /* \"#utility.yul\":657:695   */\n  sub\n    /* \"#utility.yul\":654:815   */\n  tag_59\n  jumpi\n    /* \"#utility.yul\":737:747   */\n  0x4e487b71\n    /* \"#utility.yul\":732:735   */\n  0xe0\n    /* \"#utility.yul\":728:748   */\n  shl\n    /* \"#utility.yul\":725:726   */\n  0x00\n    /* \"#utility.yul\":718:749   */\n  mstore\n    /* \"#utility.yul\":772:776   */\n  0x22\n    /* \"#utility.yul\":769:770   */\n  0x04\n    /* \"#utility.yul\":762:777   */\n  mstore\n    /* \"#utility.yul\":800:804   */\n  0x24\n    /* \"#utility.yul\":797:798   */\n  0x00\n    /* \"#utility.yul\":790:805   */\n  revert\n    /* \"#utility.yul\":654:815   */\ntag_59:\n  pop\n    /* \"#utility.yul\":441:821   */\n  swap2\n  swap1\n  pop\n  jump\t// out\n    /* \"#utility.yul\":952:1497   */\ntag_50:\n    /* \"#utility.yul\":1054:1056   */\n  0x1f\n    /* \"#utility.yul\":1049:1052   */\n  dup3\n    /* \"#utility.yul\":1046:1057   */\n  gt\n    /* \"#utility.yul\":1043:1491   */\n  iszero\n  tag_38\n  jumpi\n    /* \"#utility.yul\":1090:1091   */\n  0x00\n    /* \"#utility.yul\":1115:1120   */\n  dup2\n    /* \"#utility.yul\":1111:1113   */\n  dup2\n    /* \"#utility.yul\":1104:1121   */\n  mstore\n    /* \"#utility.yul\":1160:1164   */\n  0x20\n    /* \"#utility.yul\":1156:1158   */\n  dup2\n    /* \"#utility.yul\":1146:1165   */\n  keccak256\n    /* \"#utility.yul\":1230:1232   */\n  0x1f\n    /* \"#utility.yul\":1218:1228   */\n  dup6\n    /* \"#utility.yul\":1214:1233   */\n  add\n    /* \"#utility.yul\":1211:1212   */\n  0x05\n    /* \"#utility.yul\":1207:1234   */\n  shr\n    /* \"#utility.yul\":1201:1205   */\n  dup2\n    /* \"#utility.yul\":1197:1235   */\n  add\n    /* \"#utility.yul\":1266:1270   */\n  0x20\n    /* \"#utility.yul\":1254:1264   */\n  dup7\n    /* \"#utility.yul\":1251:1271   */\n  lt\n    /* \"#utility.yul\":1248:1295   */\n  iszero\n  tag_63\n  jumpi\n  pop\n    /* \"#utility.yul\":1289:1293   */\n  dup1\n    /* \"#utility.yul\":1248:1295   */\ntag_63:\n    /* \"#utility.yul\":1344:1346   */\n  0x1f\n    /* \"#utility.yul\":1339:1342   */\n  dup6\n    /* \"#utility.yul\":1335:1347   */\n  add\n    /* \"#utility.yul\":1332:1333   */\n  0x05\n    /* \"#utility.yul\":1328:1348   */\n  shr\n    /* \"#utility.yul\":1322:1326   */\n  dup3\n    /* \"#utility.yul\":1318:1349   */\n  add\n    /* \"#utility.yul\":1308:1349   */\n  swap2\n  pop\n    /* \"#utility.yul\":1399:1481   */\ntag_64:\n    /* \"#utility.yul\":1417:1419   */\n  dup2\n    /* \"#utility.yul\":1410:1415   */\n  dup2\n    /* \"#utility.yul\":1407:1420   */\n  lt\n    /* \"#utility.yul\":1399:1481   */\n  iszero\n  tag_66\n  jumpi\n    /* \"#utility.yul\":1462:1479   */\n  dup3\n  dup2\n  sstore\n    /* \"#utility.yul\":1443:1444   */\n  0x01\n    /* \"#utility.yul\":1432:1445   */\n  add\n    /* \"#utility.yul\":1399:1481   */\n  jump(tag_64)\ntag_66:\n    /* \"#utility.yul\":1403:1406   */\n  pop\n  pop\n  pop\n    /* \"#utility.yul\":952:1497   */\n  pop\n  pop\n  pop\n  jump\t// out\n    /* \"#utility.yul\":1673:3025   */\ntag_9:\n    /* \"#utility.yul\":1793:1803   */\n  dup2\n  mload\n  sub(shl(0x40, 0x01), 0x01)\n    /* \"#utility.yul\":1815:1845   */\n  dup2\n  gt\n    /* \"#utility.yul\":1812:1868   */\n  iszero\n  tag_70\n  jumpi\n    /* \"#utility.yul\":1848:1866   */\n  tag_70\n  tag_47\n  jump\t// in\ntag_70:\n    /* \"#utility.yul\":1877:1974   */\n  tag_71\n    /* \"#utility.yul\":1967:1973   */\n  dup2\n    /* \"#utility.yul\":1927:1965   */\n  tag_72\n    /* \"#utility.yul\":1959:1963   */\n  dup5\n    /* \"#utility.yul\":1953:1964   */\n  sload\n    /* \"#utility.yul\":1927:1965   */\n  tag_48\n  jump\t// in\ntag_72:\n    /* \"#utility.yul\":1921:1925   */\n  dup5\n    /* \"#utility.yul\":1877:1974   */\n  tag_50\n  jump\t// in\ntag_71:\n    /* \"#utility.yul\":2029:2033   */\n  0x20\n  dup1\n    /* \"#utility.yul\":2093:2095   */\n  0x1f\n    /* \"#utility.yul\":2082:2096   */\n  dup4\n  gt\n    /* \"#utility.yul\":2110:2111   */\n  0x01\n    /* \"#utility.yul\":2105:2768   */\n  dup2\n  eq\n  tag_74\n  jumpi\n    /* \"#utility.yul\":2812:2813   */\n  0x00\n    /* \"#utility.yul\":2829:2835   */\n  dup5\n    /* \"#utility.yul\":2826:2915   */\n  iszero\n  tag_75\n  jumpi\n  pop\n    /* \"#utility.yul\":2881:2900   */\n  dup6\n  dup4\n  add\n    /* \"#utility.yul\":2875:2901   */\n  mload\n    /* \"#utility.yul\":2826:2915   */\ntag_75:\n  not(0x00)\n    /* \"#utility.yul\":1630:1631   */\n  0x03\n    /* \"#utility.yul\":1626:1637   */\n  dup7\n  swap1\n  shl\n    /* \"#utility.yul\":1622:1646   */\n  shr\n    /* \"#utility.yul\":1618:1647   */\n  not\n    /* \"#utility.yul\":1608:1648   */\n  and\n    /* \"#utility.yul\":1654:1655   */\n  0x01\n    /* \"#utility.yul\":1650:1661   */\n  dup6\n  swap1\n  shl\n    /* \"#utility.yul\":1605:1662   */\n  or\n    /* \"#utility.yul\":2928:3009   */\n  dup6\n  sstore\n    /* \"#utility.yul\":2075:3019   */\n  jump(tag_66)\n    /* \"#utility.yul\":2105:2768   */\ntag_74:\n    /* \"#utility.yul\":899:900   */\n  0x00\n    /* \"#utility.yul\":892:906   */\n  dup6\n  dup2\n  mstore\n    /* \"#utility.yul\":936:940   */\n  0x20\n    /* \"#utility.yul\":923:941   */\n  dup2\n  keccak256\n  not(0x1f)\n    /* \"#utility.yul\":2141:2161   */\n  dup7\n  and\n  swap2\n    /* \"#utility.yul\":2259:2495   */\ntag_78:\n    /* \"#utility.yul\":2273:2280   */\n  dup3\n    /* \"#utility.yul\":2270:2271   */\n  dup2\n    /* \"#utility.yul\":2267:2281   */\n  lt\n    /* \"#utility.yul\":2259:2495   */\n  iszero\n  tag_80\n  jumpi\n    /* \"#utility.yul\":2362:2381   */\n  dup9\n  dup7\n  add\n    /* \"#utility.yul\":2356:2382   */\n  mload\n    /* \"#utility.yul\":2341:2383   */\n  dup3\n  sstore\n    /* \"#utility.yul\":2454:2481   */\n  swap5\n  dup5\n  add\n  swap5\n    /* \"#utility.yul\":2422:2423   */\n  0x01\n    /* \"#utility.yul\":2410:2424   */\n  swap1\n  swap2\n  add\n  swap1\n    /* \"#utility.yul\":2289:2308   */\n  dup5\n  add\n    /* \"#utility.yul\":2259:2495   */\n  jump(tag_78)\ntag_80:\n    /* \"#utility.yul\":2263:2266   */\n  pop\n    /* \"#utility.yul\":2523:2529   */\n  dup6\n    /* \"#utility.yul\":2514:2521   */\n  dup3\n    /* \"#utility.yul\":2511:2530   */\n  lt\n    /* \"#utility.yul\":2508:2709   */\n  iszero\n  tag_81\n  jumpi\n    /* \"#utility.yul\":2584:2603   */\n  dup8\n  dup6\n  add\n    /* \"#utility.yul\":2578:2604   */\n  mload\n  not(0x00)\n    /* \"#utility.yul\":2667:2668   */\n  0x03\n    /* \"#utility.yul\":2663:2677   */\n  dup9\n  swap1\n  shl\n    /* \"#utility.yul\":2679:2682   */\n  0xf8\n    /* \"#utility.yul\":2659:2683   */\n  and\n    /* \"#utility.yul\":2655:2692   */\n  shr\n    /* \"#utility.yul\":2651:2693   */\n  not\n    /* \"#utility.yul\":2636:2694   */\n  and\n    /* \"#utility.yul\":2621:2695   */\n  dup2\n  sstore\n    /* \"#utility.yul\":2508:2709   */\ntag_81:\n  pop\n  pop\n  pop\n  pop\n  pop\n    /* \"#utility.yul\":2755:2756   */\n  0x01\n    /* \"#utility.yul\":2739:2753   */\n  swap1\n  dup2\n  shl\n    /* \"#utility.yul\":2735:2757   */\n  add\n    /* \"#utility.yul\":2722:2758   */\n  swap1\n  sstore\n  pop\n    /* \"#utility.yul\":1673:3025   */\n  jump\t// out\n    /* \"#utility.yul\":3699:3921   */\ntag_40:\n    /* \"#utility.yul\":3764:3773   */\n  dup1\n  dup3\n  add\n    /* \"#utility.yul\":3785:3795   */\n  dup1\n  dup3\n  gt\n    /* \"#utility.yul\":3782:3915   */\n  iszero\n  tag_85\n  jumpi\n    /* \"#utility.yul\":3837:3847   */\n  0x4e487b71\n    /* \"#utility.yul\":3832:3835   */\n  0xe0\n    /* \"#utility.yul\":3828:3848   */\n  shl\n    /* \"#utility.yul\":3825:3826   */\n  0x00\n    /* \"#utility.yul\":3818:3849   */\n  mstore\n    /* \"#utility.yul\":3872:3876   */\n  0x11\n    /* \"#utility.yul\":3869:3870   */\n  0x04\n    /* \"#utility.yul\":3862:3877   */\n  mstore\n    /* \"#utility.yul\":3900:3904   */\n  0x24\n    /* \"#utility.yul\":3897:3898   */\n  0x00\n    /* \"#utility.yul\":3890:3905   */\n  revert\n    /* \"#utility.yul\":3782:3915   */\ntag_85:\n    /* \"#utility.yul\":3699:3921   */\n  swap3\n  swap2\n  pop\n  pop\n  jump\t// out\n    /* \"#utility.yul\":3926:4103   */\ntag_52:\n    /* \"contracts/hundred.sol\":1179:5579  contract HUNDRED is ERC20, Ownable {... */\n  dataSize(sub_0)\n  dup1\n  dataOffset(sub_0)\n  0x00\n  codecopy\n  0x00\n  return\nstop\ndata_4676e9525129958bed49b43fa7e56d15bfab1bc03bb4ebe3ffe4fe604a81e165 c93bc17a700271bf59796cbfa01b47b8b95654209793470e3cdbadf87465a843\n\nsub_0: assembly {\n        /* \"contracts/hundred.sol\":1179:5579  contract HUNDRED is ERC20, Ownable {... */\n      mstore(0x40, 0x80)\n      callvalue\n      dup1\n      iszero\n      tag_1\n      jumpi\n      0x00\n      dup1\n      revert\n    tag_1:\n      pop\n      jumpi(tag_2, lt(calldatasize, 0x04))\n      shr(0xe0, calldataload(0x00))\n      dup1\n      0x715018a6\n      gt\n      tag_29\n      jumpi\n      dup1\n      0xdbac26e9\n      gt\n      tag_30\n      jumpi\n      dup1\n      0xeafb5a3c\n      gt\n      tag_31\n      jumpi\n      dup1\n      0xeafb5a3c\n      eq\n      tag_25\n      jumpi\n      dup1\n      0xf2fde38b\n      eq\n      tag_26\n      jumpi\n      dup1\n      0xf3290d75\n      eq\n      tag_27\n      jumpi\n      dup1\n      0xfdf3dd9c\n      eq\n      tag_28\n      jumpi\n      0x00\n      dup1\n      revert\n    tag_31:\n      dup1\n      0xdbac26e9\n      eq\n      tag_22\n      jumpi\n      dup1\n      0xdd2c6c13\n      eq\n      tag_23\n      jumpi\n      dup1\n      0xdd62ed3e\n      eq\n      tag_24\n      jumpi\n      0x00\n      dup1\n      revert\n    tag_30:\n      dup1\n      0x715018a6\n      eq\n      tag_16\n      jumpi\n      dup1\n      0x8da5cb5b\n      eq\n      tag_17\n      jumpi\n      dup1\n      0x95d89b41\n      eq\n      tag_18\n      jumpi\n      dup1\n      0xa457c2d7\n      eq\n      tag_19\n      jumpi\n      dup1\n      0xa9059cbb\n      eq\n      tag_20\n      jumpi\n      dup1\n      0xc831f606\n      eq\n      tag_21\n      jumpi\n      0x00\n      dup1\n      revert\n    tag_29:\n      dup1\n      0x3078381c\n      gt\n      tag_32\n      jumpi\n      dup1\n      0x3fd8b02f\n      gt\n      tag_33\n      jumpi\n      dup1\n      0x3fd8b02f\n      eq\n      tag_12\n      jumpi\n      dup1\n      0x429494f2\n      eq\n      tag_13\n      jumpi\n      dup1\n      0x45e34949\n      eq\n      tag_14\n      jumpi\n      dup1\n      0x70a08231\n      eq\n      tag_15\n      jumpi\n      0x00\n      dup1\n      revert\n    tag_33:\n      dup1\n      0x3078381c\n      eq\n      tag_9\n      jumpi\n      dup1\n      0x313ce567\n      eq\n      tag_10\n      jumpi\n      dup1\n      0x39509351\n      eq\n      tag_11\n      jumpi\n      0x00\n      dup1\n      revert\n    tag_32:\n      dup1\n      0x06fdde03\n      eq\n      tag_3\n      jumpi\n      dup1\n      0x095ea7b3\n      eq\n      tag_4\n      jumpi\n      dup1\n      0x18160ddd\n      eq\n      tag_5\n      jumpi\n      dup1\n      0x227b453f\n      eq\n      tag_6\n      jumpi\n      dup1\n      0x23b872dd\n      eq\n      tag_7\n      jumpi\n      dup1\n      0x24558995\n      eq\n      tag_8\n      jumpi\n    tag_2:\n      0x00\n      dup1\n      revert\n        /* \"@openzeppelin/contracts/token/ERC20/ERC20.sol\":2158:2256  function name() public view virtual override returns (string memory) {... */\n    tag_3:\n      tag_34\n      tag_35\n      jump\t// in\n    tag_34:\n      mload(0x40)\n      tag_36\n      swap2\n      swap1\n      tag_37\n      jump\t// in\n    tag_36:\n      mload(0x40)\n      dup1\n      swap2\n      sub\n      swap1\n      return\n        /* \"@openzeppelin/contracts/token/ERC20/ERC20.sol\":4444:4641  function approve(address spender, uint256 amount) public virtual override returns (bool) {... */\n    tag_4:\n      tag_38\n      tag_39\n      calldatasize\n      0x04\n      tag_40\n      jump\t// in\n    tag_39:\n      tag_41\n      jump\t// in\n    tag_38:\n      mload(0x40)\n        /* \"#utility.yul\":1188:1202   */\n      swap1\n      iszero\n        /* \"#utility.yul\":1181:1203   */\n      iszero\n        /* \"#utility.yul\":1163:1204   */\n      dup2\n      mstore\n        /* \"#utility.yul\":1151:1153   */\n      0x20\n        /* \"#utility.yul\":1136:1154   */\n      add\n        /* \"@openzeppelin/contracts/token/ERC20/ERC20.sol\":4444:4641  function approve(address spender, uint256 amount) public virtual override returns (bool) {... */\n      tag_36\n        /* \"#utility.yul\":1023:1210   */\n      jump\n        /* \"@openzeppelin/contracts/token/ERC20/ERC20.sol\":3255:3361  function totalSupply() public view virtual override returns (uint256) {... */\n    tag_5:\n        /* \"@openzeppelin/contracts/token/ERC20/ERC20.sol\":3342:3354  _totalSupply */\n      sload(0x02)\n        /* \"@openzeppelin/contracts/token/ERC20/ERC20.sol\":3255:3361  function totalSupply() public view virtual override returns (uint256) {... */\n    tag_44:\n      mload(0x40)\n        /* \"#utility.yul\":1361:1386   */\n      swap1\n      dup2\n      mstore\n        /* \"#utility.yul\":1349:1351   */\n      0x20\n        /* \"#utility.yul\":1334:1352   */\n      add\n        /* \"@openzeppelin/contracts/token/ERC20/ERC20.sol\":3255:3361  function totalSupply() public view virtual override returns (uint256) {... */\n      tag_36\n        /* \"#utility.yul\":1215:1392   */\n      jump\n        /* \"contracts/hundred.sol\":3395:3514  function includeInTimeLock(address _address) external onlyOwner {... */\n    tag_6:\n      tag_48\n      tag_49\n      calldatasize\n      0x04\n      tag_50\n      jump\t// in\n    tag_49:\n      tag_51\n      jump\t// in\n    tag_48:\n      stop\n        /* \"contracts/hundred.sol\":3726:4114  function transferFrom(address sender, address recipient, uint256 amount) public override returns (bool) {... */\n    tag_7:\n      tag_38\n      tag_53\n      calldatasize\n      0x04\n      tag_54\n      jump\t// in\n    tag_53:\n      tag_55\n      jump\t// in\n        /* \"contracts/hundred.sol\":1386:1433  IPancakeSwapV2Router02 public pancakeSwapRouter */\n    tag_8:\n      sload(0x07)\n      tag_57\n      swap1\n      sub(shl(0xa0, 0x01), 0x01)\n      and\n      dup2\n      jump\n    tag_57:\n      mload(0x40)\n      sub(shl(0xa0, 0x01), 0x01)\n        /* \"#utility.yul\":2304:2336   */\n      swap1\n      swap2\n      and\n        /* \"#utility.yul\":2286:2337   */\n      dup2\n      mstore\n        /* \"#utility.yul\":2274:2276   */\n      0x20\n        /* \"#utility.yul\":2259:2277   */\n      add\n        /* \"contracts/hundred.sol\":1386:1433  IPancakeSwapV2Router02 public pancakeSwapRouter */\n      tag_36\n        /* \"#utility.yul\":2110:2343   */\n      jump\n        /* \"contracts/hundred.sol\":1817:1871  mapping(address => bool) public excludedFromLockPeriod */\n    tag_9:\n      tag_38\n      tag_62\n      calldatasize\n      0x04\n      tag_50\n      jump\t// in\n    tag_62:\n      mstore(0x20, 0x09)\n      0x00\n      swap1\n      dup2\n      mstore\n      0x40\n      swap1\n      keccak256\n      sload\n      0xff\n      and\n      dup2\n      jump\n        /* \"@openzeppelin/contracts/token/ERC20/ERC20.sol\":3104:3195  function decimals() public view virtual override returns (uint8) {... */\n    tag_10:\n      mload(0x40)\n        /* \"@openzeppelin/contracts/token/ERC20/ERC20.sol\":3186:3188  18 */\n      0x12\n        /* \"#utility.yul\":2490:2526   */\n      dup2\n      mstore\n        /* \"#utility.yul\":2478:2480   */\n      0x20\n        /* \"#utility.yul\":2463:2481   */\n      add\n        /* \"@openzeppelin/contracts/token/ERC20/ERC20.sol\":3104:3195  function decimals() public view virtual override returns (uint8) {... */\n      tag_36\n        /* \"#utility.yul\":2348:2532   */\n      jump\n        /* \"@openzeppelin/contracts/token/ERC20/ERC20.sol\":5854:6088  function increaseAllowance(address spender, uint256 addedValue) public virtual returns (bool) {... */\n    tag_11:\n      tag_38\n      tag_70\n      calldatasize\n      0x04\n      tag_40\n      jump\t// in\n    tag_70:\n      tag_71\n      jump\t// in\n        /* \"contracts/hundred.sol\":1294:1340  uint256 public constant lockPeriod = 100 hours */\n    tag_12:\n      tag_44\n        /* \"contracts/hundred.sol\":1331:1340  100 hours */\n      0x057e40\n        /* \"contracts/hundred.sol\":1294:1340  uint256 public constant lockPeriod = 100 hours */\n      dup2\n      jump\n        /* \"contracts/hundred.sol\":1349:1379  address public pancakeSwapPair */\n    tag_13:\n      sload(0x06)\n      tag_57\n      swap1\n      sub(shl(0xa0, 0x01), 0x01)\n      and\n      dup2\n      jump\n        /* \"contracts/hundred.sol\":5367:5574  function unblacklistAddress(address _address) external onlyOwner {... */\n    tag_14:\n      tag_48\n      tag_81\n      calldatasize\n      0x04\n      tag_50\n      jump\t// in\n    tag_81:\n      tag_82\n      jump\t// in\n        /* \"@openzeppelin/contracts/token/ERC20/ERC20.sol\":3419:3544  function balanceOf(address account) public view virtual override returns (uint256) {... */\n    tag_15:\n      tag_44\n      tag_84\n      calldatasize\n      0x04\n      tag_50\n      jump\t// in\n    tag_84:\n      sub(shl(0xa0, 0x01), 0x01)\n        /* \"@openzeppelin/contracts/token/ERC20/ERC20.sol\":3519:3537  _balances[account] */\n      and\n        /* \"@openzeppelin/contracts/token/ERC20/ERC20.sol\":3493:3500  uint256 */\n      0x00\n        /* \"@openzeppelin/contracts/token/ERC20/ERC20.sol\":3519:3537  _balances[account] */\n      swap1\n      dup2\n      mstore\n      0x20\n      dup2\n      swap1\n      mstore\n      0x40\n      swap1\n      keccak256\n      sload\n      swap1\n        /* \"@openzeppelin/contracts/token/ERC20/ERC20.sol\":3419:3544  function balanceOf(address account) public view virtual override returns (uint256) {... */\n      jump\n        /* \"@openzeppelin/contracts/access/Ownable.sol\":1824:1925  function renounceOwnership() public virtual onlyOwner {... */\n    tag_16:\n      tag_48\n      tag_88\n      jump\t// in\n        /* \"@openzeppelin/contracts/access/Ownable.sol\":1201:1286  function owner() public view virtual returns (address) {... */\n    tag_17:\n        /* \"@openzeppelin/contracts/access/Ownable.sol\":1273:1279  _owner */\n      and(sub(shl(0xa0, 0x01), 0x01), sload(0x05))\n        /* \"@openzeppelin/contracts/access/Ownable.sol\":1201:1286  function owner() public view virtual returns (address) {... */\n      jump(tag_57)\n        /* \"@openzeppelin/contracts/token/ERC20/ERC20.sol\":2369:2471  function symbol() public view virtual override returns (string memory) {... */\n    tag_18:\n      tag_34\n      tag_93\n      jump\t// in\n        /* \"@openzeppelin/contracts/token/ERC20/ERC20.sol\":6575:7002  function decreaseAllowance(address spender, uint256 subtractedValue) public virtual returns (bool) {... */\n    tag_19:\n      tag_38\n      tag_96\n      calldatasize\n      0x04\n      tag_40\n      jump\t// in\n    tag_96:\n      tag_97\n      jump\t// in\n        /* \"contracts/hundred.sol\":3528:3718  function transfer(address recipient, uint256 amount) public override returns (bool) {... */\n    tag_20:\n      tag_38\n      tag_100\n      calldatasize\n      0x04\n      tag_40\n      jump\t// in\n    tag_100:\n      tag_101\n      jump\t// in\n        /* \"contracts/hundred.sol\":1765:1810  mapping(address => uint256) public timeStamps */\n    tag_21:\n      tag_44\n      tag_104\n      calldatasize\n      0x04\n      tag_50\n      jump\t// in\n    tag_104:\n      mstore(0x20, 0x08)\n      0x00\n      swap1\n      dup2\n      mstore\n      0x40\n      swap1\n      keccak256\n      sload\n      dup2\n      jump\n        /* \"contracts/hundred.sol\":1933:1976  mapping(address => bool) public blacklisted */\n    tag_22:\n      tag_38\n      tag_108\n      calldatasize\n      0x04\n      tag_50\n      jump\t// in\n    tag_108:\n      mstore(0x20, 0x0b)\n      0x00\n      swap1\n      dup2\n      mstore\n      0x40\n      swap1\n      keccak256\n      sload\n      0xff\n      and\n      dup2\n      jump\n        /* \"contracts/hundred.sol\":1878:1926  mapping(address => bool) public pancakeSwapPairs */\n    tag_23:\n      tag_38\n      tag_112\n      calldatasize\n      0x04\n      tag_50\n      jump\t// in\n    tag_112:\n      mstore(0x20, 0x0a)\n      0x00\n      swap1\n      dup2\n      mstore\n      0x40\n      swap1\n      keccak256\n      sload\n      0xff\n      and\n      dup2\n      jump\n        /* \"@openzeppelin/contracts/token/ERC20/ERC20.sol\":3987:4136  function allowance(address owner, address spender) public view virtual override returns (uint256) {... */\n    tag_24:\n      tag_44\n      tag_116\n      calldatasize\n      0x04\n      tag_117\n      jump\t// in\n    tag_116:\n      tag_118\n      jump\t// in\n        /* \"contracts/hundred.sol\":2691:3254  function setNewRouter(address _newRouterAddress) external onlyOwner {... */\n    tag_25:\n      tag_48\n      tag_121\n      calldatasize\n      0x04\n      tag_50\n      jump\t// in\n    tag_121:\n      tag_122\n      jump\t// in\n        /* \"@openzeppelin/contracts/access/Ownable.sol\":2074:2272  function transferOwnership(address newOwner) public virtual onlyOwner {... */\n    tag_26:\n      tag_48\n      tag_124\n      calldatasize\n      0x04\n      tag_50\n      jump\t// in\n    tag_124:\n      tag_125\n      jump\t// in\n        /* \"contracts/hundred.sol\":5152:5359  function blacklistAddress(address _address) external onlyOwner {... */\n    tag_27:\n      tag_48\n      tag_127\n      calldatasize\n      0x04\n      tag_50\n      jump\t// in\n    tag_127:\n      tag_128\n      jump\t// in\n        /* \"contracts/hundred.sol\":3262:3384  function excludeFromLockPeriod(address _address) external onlyOwner {... */\n    tag_28:\n      tag_48\n      tag_130\n      calldatasize\n      0x04\n      tag_50\n      jump\t// in\n    tag_130:\n      tag_131\n      jump\t// in\n        /* \"@openzeppelin/contracts/token/ERC20/ERC20.sol\":2158:2256  function name() public view virtual override returns (string memory) {... */\n    tag_35:\n        /* \"@openzeppelin/contracts/token/ERC20/ERC20.sol\":2212:2225  string memory */\n      0x60\n        /* \"@openzeppelin/contracts/token/ERC20/ERC20.sol\":2244:2249  _name */\n      0x03\n        /* \"@openzeppelin/contracts/token/ERC20/ERC20.sol\":2237:2249  return _name */\n      dup1\n      sload\n      tag_133\n      swap1\n      tag_134\n      jump\t// in\n    tag_133:\n      dup1\n      0x1f\n      add\n      0x20\n      dup1\n      swap2\n      div\n      mul\n      0x20\n      add\n      mload(0x40)\n      swap1\n      dup2\n      add\n      0x40\n      mstore\n      dup1\n      swap3\n      swap2\n      swap1\n      dup2\n      dup2\n      mstore\n      0x20\n      add\n      dup3\n      dup1\n      sload\n      tag_135\n      swap1\n      tag_134\n      jump\t// in\n    tag_135:\n      dup1\n      iszero\n      tag_136\n      jumpi\n      dup1\n      0x1f\n      lt\n      tag_137\n      jumpi\n      0x0100\n      dup1\n      dup4\n      sload\n      div\n      mul\n      dup4\n      mstore\n      swap2\n      0x20\n      add\n      swap2\n      jump(tag_136)\n    tag_137:\n      dup3\n      add\n      swap2\n      swap1\n      0x00\n      mstore\n      keccak256(0x00, 0x20)\n      swap1\n    tag_138:\n      dup2\n      sload\n      dup2\n      mstore\n      swap1\n      0x01\n      add\n      swap1\n      0x20\n      add\n      dup1\n      dup4\n      gt\n      tag_138\n      jumpi\n      dup3\n      swap1\n      sub\n      0x1f\n      and\n      dup3\n      add\n      swap2\n    tag_136:\n      pop\n      pop\n      pop\n      pop\n      pop\n      swap1\n      pop\n        /* \"@openzeppelin/contracts/token/ERC20/ERC20.sol\":2158:2256  function name() public view virtual override returns (string memory) {... */\n      swap1\n      jump\t// out\n        /* \"@openzeppelin/contracts/token/ERC20/ERC20.sol\":4444:4641  function approve(address spender, uint256 amount) public virtual override returns (bool) {... */\n    tag_41:\n        /* \"@openzeppelin/contracts/token/ERC20/ERC20.sol\":4527:4531  bool */\n      0x00\n        /* \"@openzeppelin/contracts/utils/Context.sol\":719:729  msg.sender */\n      caller\n        /* \"@openzeppelin/contracts/token/ERC20/ERC20.sol\":4581:4613  _approve(owner, spender, amount) */\n      tag_142\n        /* \"@openzeppelin/contracts/utils/Context.sol\":719:729  msg.sender */\n      dup2\n        /* \"@openzeppelin/contracts/token/ERC20/ERC20.sol\":4597:4604  spender */\n      dup6\n        /* \"@openzeppelin/contracts/token/ERC20/ERC20.sol\":4606:4612  amount */\n      dup6\n        /* \"@openzeppelin/contracts/token/ERC20/ERC20.sol\":4581:4589  _approve */\n      tag_143\n        /* \"@openzeppelin/contracts/token/ERC20/ERC20.sol\":4581:4613  _approve(owner, spender, amount) */\n      jump\t// in\n    tag_142:\n        /* \"@openzeppelin/contracts/token/ERC20/ERC20.sol\":4630:4634  true */\n      0x01\n        /* \"@openzeppelin/contracts/token/ERC20/ERC20.sol\":4623:4634  return true */\n      swap2\n      pop\n      pop\n        /* \"@openzeppelin/contracts/token/ERC20/ERC20.sol\":4444:4641  function approve(address spender, uint256 amount) public virtual override returns (bool) {... */\n    tag_139:\n      swap3\n      swap2\n      pop\n      pop\n      jump\t// out\n        /* \"contracts/hundred.sol\":3395:3514  function includeInTimeLock(address _address) external onlyOwner {... */\n    tag_51:\n        /* \"@openzeppelin/contracts/access/Ownable.sol\":1094:1107  _checkOwner() */\n      tag_146\n        /* \"@openzeppelin/contracts/access/Ownable.sol\":1094:1105  _checkOwner */\n      tag_147\n        /* \"@openzeppelin/contracts/access/Ownable.sol\":1094:1107  _checkOwner() */\n      jump\t// in\n    tag_146:\n      sub(shl(0xa0, 0x01), 0x01)\n        /* \"contracts/hundred.sol\":3466:3498  excludedFromLockPeriod[_address] */\n      and\n        /* \"contracts/hundred.sol\":3501:3506  false */\n      0x00\n        /* \"contracts/hundred.sol\":3466:3498  excludedFromLockPeriod[_address] */\n      swap1\n      dup2\n      mstore\n        /* \"contracts/hundred.sol\":3466:3488  excludedFromLockPeriod */\n      0x09\n        /* \"contracts/hundred.sol\":3466:3498  excludedFromLockPeriod[_address] */\n      0x20\n      mstore\n      0x40\n      swap1\n      keccak256\n        /* \"contracts/hundred.sol\":3466:3506  excludedFromLockPeriod[_address] = false */\n      dup1\n      sload\n      not(0xff)\n      and\n      swap1\n      sstore\n        /* \"contracts/hundred.sol\":3395:3514  function includeInTimeLock(address _address) external onlyOwner {... */\n      jump\t// out\n        /* \"contracts/hundred.sol\":3726:4114  function transferFrom(address sender, address recipient, uint256 amount) public override returns (bool) {... */\n    tag_55:\n        /* \"contracts/hundred.sol\":3824:3828  bool */\n      0x00\n        /* \"contracts/hundred.sol\":3837:3873  _transfer(sender, recipient, amount) */\n      tag_150\n        /* \"contracts/hundred.sol\":3847:3853  sender */\n      dup5\n        /* \"contracts/hundred.sol\":3855:3864  recipient */\n      dup5\n        /* \"contracts/hundred.sol\":3866:3872  amount */\n      dup5\n        /* \"contracts/hundred.sol\":3837:3846  _transfer */\n      tag_151\n        /* \"contracts/hundred.sol\":3837:3873  _transfer(sender, recipient, amount) */\n      jump\t// in\n    tag_150:\n        /* \"contracts/hundred.sol\":3880:3904  uint256 currentAllowance */\n      0x00\n        /* \"contracts/hundred.sol\":3907:3938  allowance(sender, _msgSender()) */\n      tag_152\n        /* \"contracts/hundred.sol\":3917:3923  sender */\n      dup6\n        /* \"@openzeppelin/contracts/utils/Context.sol\":719:729  msg.sender */\n      caller\n        /* \"@openzeppelin/contracts/token/ERC20/ERC20.sol\":3987:4136  function allowance(address owner, address spender) public view virtual override returns (uint256) {... */\n      tag_118\n      jump\t// in\n        /* \"contracts/hundred.sol\":3907:3938  allowance(sender, _msgSender()) */\n    tag_152:\n        /* \"contracts/hundred.sol\":3880:3938  uint256 currentAllowance = allowance(sender, _msgSender()) */\n      swap1\n      pop\n        /* \"contracts/hundred.sol\":3973:3979  amount */\n      dup3\n        /* \"contracts/hundred.sol\":3953:3969  currentAllowance */\n      dup2\n        /* \"contracts/hundred.sol\":3953:3979  currentAllowance >= amount */\n      lt\n      iszero\n        /* \"contracts/hundred.sol\":3945:4024  require(currentAllowance >= amount, \"ERC20: transfer amount exceeds allowance\") */\n      tag_154\n      jumpi\n      mload(0x40)\n      shl(0xe5, 0x461bcd)\n      dup2\n      mstore\n        /* \"#utility.yul\":3725:3727   */\n      0x20\n        /* \"contracts/hundred.sol\":3945:4024  require(currentAllowance >= amount, \"ERC20: transfer amount exceeds allowance\") */\n      0x04\n      dup3\n      add\n        /* \"#utility.yul\":3707:3728   */\n      mstore\n        /* \"#utility.yul\":3764:3766   */\n      0x28\n        /* \"#utility.yul\":3744:3762   */\n      0x24\n      dup3\n      add\n        /* \"#utility.yul\":3737:3767   */\n      mstore\n        /* \"#utility.yul\":3803:3837   */\n      0x45524332303a207472616e7366657220616d6f756e7420657863656564732061\n        /* \"#utility.yul\":3783:3801   */\n      0x44\n      dup3\n      add\n        /* \"#utility.yul\":3776:3838   */\n      mstore\n      shl(0xc0, 0x6c6c6f77616e6365)\n        /* \"#utility.yul\":3854:3872   */\n      0x64\n      dup3\n      add\n        /* \"#utility.yul\":3847:3885   */\n      mstore\n        /* \"#utility.yul\":3902:3921   */\n      0x84\n      add\n        /* \"contracts/hundred.sol\":3945:4024  require(currentAllowance >= amount, \"ERC20: transfer amount exceeds allowance\") */\n    tag_155:\n      mload(0x40)\n      dup1\n      swap2\n      sub\n      swap1\n      revert\n    tag_154:\n        /* \"contracts/hundred.sol\":4031:4088  _approve(sender, _msgSender(), currentAllowance - amount) */\n      tag_157\n        /* \"contracts/hundred.sol\":4040:4046  sender */\n      dup6\n        /* \"@openzeppelin/contracts/utils/Context.sol\":719:729  msg.sender */\n      caller\n        /* \"contracts/hundred.sol\":4062:4087  currentAllowance - amount */\n      tag_159\n        /* \"contracts/hundred.sol\":4081:4087  amount */\n      dup7\n        /* \"contracts/hundred.sol\":4062:4078  currentAllowance */\n      dup6\n        /* \"contracts/hundred.sol\":4062:4087  currentAllowance - amount */\n      tag_160\n      jump\t// in\n    tag_159:\n        /* \"contracts/hundred.sol\":4031:4039  _approve */\n      tag_143\n        /* \"contracts/hundred.sol\":4031:4088  _approve(sender, _msgSender(), currentAllowance - amount) */\n      jump\t// in\n    tag_157:\n      pop\n        /* \"contracts/hundred.sol\":4102:4106  true */\n      0x01\n      swap5\n        /* \"contracts/hundred.sol\":3726:4114  function transferFrom(address sender, address recipient, uint256 amount) public override returns (bool) {... */\n      swap4\n      pop\n      pop\n      pop\n      pop\n      jump\t// out\n        /* \"@openzeppelin/contracts/token/ERC20/ERC20.sol\":5854:6088  function increaseAllowance(address spender, uint256 addedValue) public virtual returns (bool) {... */\n    tag_71:\n        /* \"@openzeppelin/contracts/token/ERC20/ERC20.sol\":5942:5946  bool */\n      0x00\n        /* \"@openzeppelin/contracts/utils/Context.sol\":719:729  msg.sender */\n      caller\n        /* \"@openzeppelin/contracts/token/ERC20/ERC20.sol\":5996:6060  _approve(owner, spender, allowance(owner, spender) + addedValue) */\n      tag_142\n        /* \"@openzeppelin/contracts/utils/Context.sol\":719:729  msg.sender */\n      dup2\n        /* \"@openzeppelin/contracts/token/ERC20/ERC20.sol\":6012:6019  spender */\n      dup6\n        /* \"@openzeppelin/contracts/token/ERC20/ERC20.sol\":6049:6059  addedValue */\n      dup6\n        /* \"@openzeppelin/contracts/token/ERC20/ERC20.sol\":6021:6046  allowance(owner, spender) */\n      tag_165\n        /* \"@openzeppelin/contracts/utils/Context.sol\":719:729  msg.sender */\n      dup4\n        /* \"@openzeppelin/contracts/token/ERC20/ERC20.sol\":6012:6019  spender */\n      dup4\n        /* \"@openzeppelin/contracts/token/ERC20/ERC20.sol\":6021:6030  allowance */\n      tag_118\n        /* \"@openzeppelin/contracts/token/ERC20/ERC20.sol\":6021:6046  allowance(owner, spender) */\n      jump\t// in\n    tag_165:\n        /* \"@openzeppelin/contracts/token/ERC20/ERC20.sol\":6021:6059  allowance(owner, spender) + addedValue */\n      tag_159\n      swap2\n      swap1\n      tag_167\n      jump\t// in\n        /* \"contracts/hundred.sol\":5367:5574  function unblacklistAddress(address _address) external onlyOwner {... */\n    tag_82:\n        /* \"@openzeppelin/contracts/access/Ownable.sol\":1094:1107  _checkOwner() */\n      tag_169\n        /* \"@openzeppelin/contracts/access/Ownable.sol\":1094:1105  _checkOwner */\n      tag_147\n        /* \"@openzeppelin/contracts/access/Ownable.sol\":1094:1107  _checkOwner() */\n      jump\t// in\n    tag_169:\n      sub(shl(0xa0, 0x01), 0x01)\n        /* \"contracts/hundred.sol\":5447:5468  blacklisted[_address] */\n      dup2\n      and\n      0x00\n      swap1\n      dup2\n      mstore\n        /* \"contracts/hundred.sol\":5447:5458  blacklisted */\n      0x0b\n        /* \"contracts/hundred.sol\":5447:5468  blacklisted[_address] */\n      0x20\n      mstore\n      0x40\n      swap1\n      keccak256\n      sload\n      0xff\n      and\n        /* \"contracts/hundred.sol\":5439:5499  require(blacklisted[_address], \"Address is not blacklisted\") */\n      tag_171\n      jumpi\n      mload(0x40)\n      shl(0xe5, 0x461bcd)\n      dup2\n      mstore\n        /* \"#utility.yul\":4529:4531   */\n      0x20\n        /* \"contracts/hundred.sol\":5439:5499  require(blacklisted[_address], \"Address is not blacklisted\") */\n      0x04\n      dup3\n      add\n        /* \"#utility.yul\":4511:4532   */\n      mstore\n        /* \"#utility.yul\":4568:4570   */\n      0x1a\n        /* \"#utility.yul\":4548:4566   */\n      0x24\n      dup3\n      add\n        /* \"#utility.yul\":4541:4571   */\n      mstore\n        /* \"#utility.yul\":4607:4635   */\n      0x41646472657373206973206e6f7420626c61636b6c6973746564000000000000\n        /* \"#utility.yul\":4587:4605   */\n      0x44\n      dup3\n      add\n        /* \"#utility.yul\":4580:4636   */\n      mstore\n        /* \"#utility.yul\":4653:4671   */\n      0x64\n      add\n        /* \"contracts/hundred.sol\":5439:5499  require(blacklisted[_address], \"Address is not blacklisted\") */\n      tag_155\n        /* \"#utility.yul\":4327:4677   */\n      jump\n        /* \"contracts/hundred.sol\":5439:5499  require(blacklisted[_address], \"Address is not blacklisted\") */\n    tag_171:\n      sub(shl(0xa0, 0x01), 0x01)\n        /* \"contracts/hundred.sol\":5506:5527  blacklisted[_address] */\n      dup2\n      and\n        /* \"contracts/hundred.sol\":5530:5535  false */\n      0x00\n        /* \"contracts/hundred.sol\":5506:5527  blacklisted[_address] */\n      dup2\n      dup2\n      mstore\n        /* \"contracts/hundred.sol\":5506:5517  blacklisted */\n      0x0b\n        /* \"contracts/hundred.sol\":5506:5527  blacklisted[_address] */\n      0x20\n      mstore\n      0x40\n      dup1\n      dup3\n      keccak256\n        /* \"contracts/hundred.sol\":5506:5535  blacklisted[_address] = false */\n      dup1\n      sload\n      not(0xff)\n      and\n      swap1\n      sstore\n        /* \"contracts/hundred.sol\":5547:5570  Unblacklisted(_address) */\n      mload\n      0x7534c63860313c46c473e4e98328f37017e9674e2162faf1a3ad7a96236c3b7b\n      swap2\n        /* \"contracts/hundred.sol\":5530:5535  false */\n      swap1\n        /* \"contracts/hundred.sol\":5547:5570  Unblacklisted(_address) */\n      log2\n        /* \"contracts/hundred.sol\":5367:5574  function unblacklistAddress(address _address) external onlyOwner {... */\n      pop\n      jump\t// out\n        /* \"@openzeppelin/contracts/access/Ownable.sol\":1824:1925  function renounceOwnership() public virtual onlyOwner {... */\n    tag_88:\n        /* \"@openzeppelin/contracts/access/Ownable.sol\":1094:1107  _checkOwner() */\n      tag_176\n        /* \"@openzeppelin/contracts/access/Ownable.sol\":1094:1105  _checkOwner */\n      tag_147\n        /* \"@openzeppelin/contracts/access/Ownable.sol\":1094:1107  _checkOwner() */\n      jump\t// in\n    tag_176:\n        /* \"@openzeppelin/contracts/access/Ownable.sol\":1888:1918  _transferOwnership(address(0)) */\n      tag_178\n        /* \"@openzeppelin/contracts/access/Ownable.sol\":1915:1916  0 */\n      0x00\n        /* \"@openzeppelin/contracts/access/Ownable.sol\":1888:1906  _transferOwnership */\n      tag_179\n        /* \"@openzeppelin/contracts/access/Ownable.sol\":1888:1918  _transferOwnership(address(0)) */\n      jump\t// in\n    tag_178:\n        /* \"@openzeppelin/contracts/access/Ownable.sol\":1824:1925  function renounceOwnership() public virtual onlyOwner {... */\n      jump\t// out\n        /* \"@openzeppelin/contracts/token/ERC20/ERC20.sol\":2369:2471  function symbol() public view virtual override returns (string memory) {... */\n    tag_93:\n        /* \"@openzeppelin/contracts/token/ERC20/ERC20.sol\":2425:2438  string memory */\n      0x60\n        /* \"@openzeppelin/contracts/token/ERC20/ERC20.sol\":2457:2464  _symbol */\n      0x04\n        /* \"@openzeppelin/contracts/token/ERC20/ERC20.sol\":2450:2464  return _symbol */\n      dup1\n      sload\n      tag_133\n      swap1\n      tag_134\n      jump\t// in\n        /* \"@openzeppelin/contracts/token/ERC20/ERC20.sol\":6575:7002  function decreaseAllowance(address spender, uint256 subtractedValue) public virtual returns (bool) {... */\n    tag_97:\n        /* \"@openzeppelin/contracts/token/ERC20/ERC20.sol\":6668:6672  bool */\n      0x00\n        /* \"@openzeppelin/contracts/utils/Context.sol\":719:729  msg.sender */\n      caller\n        /* \"@openzeppelin/contracts/token/ERC20/ERC20.sol\":6668:6672  bool */\n      dup2\n        /* \"@openzeppelin/contracts/token/ERC20/ERC20.sol\":6749:6774  allowance(owner, spender) */\n      tag_189\n        /* \"@openzeppelin/contracts/utils/Context.sol\":719:729  msg.sender */\n      dup3\n        /* \"@openzeppelin/contracts/token/ERC20/ERC20.sol\":6766:6773  spender */\n      dup7\n        /* \"@openzeppelin/contracts/token/ERC20/ERC20.sol\":6749:6758  allowance */\n      tag_118\n        /* \"@openzeppelin/contracts/token/ERC20/ERC20.sol\":6749:6774  allowance(owner, spender) */\n      jump\t// in\n    tag_189:\n        /* \"@openzeppelin/contracts/token/ERC20/ERC20.sol\":6722:6774  uint256 currentAllowance = allowance(owner, spender) */\n      swap1\n      pop\n        /* \"@openzeppelin/contracts/token/ERC20/ERC20.sol\":6812:6827  subtractedValue */\n      dup4\n        /* \"@openzeppelin/contracts/token/ERC20/ERC20.sol\":6792:6808  currentAllowance */\n      dup2\n        /* \"@openzeppelin/contracts/token/ERC20/ERC20.sol\":6792:6827  currentAllowance >= subtractedValue */\n      lt\n      iszero\n        /* \"@openzeppelin/contracts/token/ERC20/ERC20.sol\":6784:6869  require(currentAllowance >= subtractedValue, \"ERC20: decreased allowance below zero\") */\n      tag_190\n      jumpi\n      mload(0x40)\n      shl(0xe5, 0x461bcd)\n      dup2\n      mstore\n        /* \"#utility.yul\":4884:4886   */\n      0x20\n        /* \"@openzeppelin/contracts/token/ERC20/ERC20.sol\":6784:6869  require(currentAllowance >= subtractedValue, \"ERC20: decreased allowance below zero\") */\n      0x04\n      dup3\n      add\n        /* \"#utility.yul\":4866:4887   */\n      mstore\n        /* \"#utility.yul\":4923:4925   */\n      0x25\n        /* \"#utility.yul\":4903:4921   */\n      0x24\n      dup3\n      add\n        /* \"#utility.yul\":4896:4926   */\n      mstore\n        /* \"#utility.yul\":4962:4996   */\n      0x45524332303a2064656372656173656420616c6c6f77616e63652062656c6f77\n        /* \"#utility.yul\":4942:4960   */\n      0x44\n      dup3\n      add\n        /* \"#utility.yul\":4935:4997   */\n      mstore\n      shl(0xd8, 0x207a65726f)\n        /* \"#utility.yul\":5013:5031   */\n      0x64\n      dup3\n      add\n        /* \"#utility.yul\":5006:5041   */\n      mstore\n        /* \"#utility.yul\":5058:5077   */\n      0x84\n      add\n        /* \"@openzeppelin/contracts/token/ERC20/ERC20.sol\":6784:6869  require(currentAllowance >= subtractedValue, \"ERC20: decreased allowance below zero\") */\n      tag_155\n        /* \"#utility.yul\":4682:5083   */\n      jump\n        /* \"@openzeppelin/contracts/token/ERC20/ERC20.sol\":6784:6869  require(currentAllowance >= subtractedValue, \"ERC20: decreased allowance below zero\") */\n    tag_190:\n        /* \"@openzeppelin/contracts/token/ERC20/ERC20.sol\":6903:6963  _approve(owner, spender, currentAllowance - subtractedValue) */\n      tag_157\n        /* \"@openzeppelin/contracts/token/ERC20/ERC20.sol\":6912:6917  owner */\n      dup3\n        /* \"@openzeppelin/contracts/token/ERC20/ERC20.sol\":6919:6926  spender */\n      dup7\n        /* \"@openzeppelin/contracts/token/ERC20/ERC20.sol\":6947:6962  subtractedValue */\n      dup7\n        /* \"@openzeppelin/contracts/token/ERC20/ERC20.sol\":6928:6944  currentAllowance */\n      dup5\n        /* \"@openzeppelin/contracts/token/ERC20/ERC20.sol\":6928:6962  currentAllowance - subtractedValue */\n      sub\n        /* \"@openzeppelin/contracts/token/ERC20/ERC20.sol\":6903:6911  _approve */\n      tag_143\n        /* \"@openzeppelin/contracts/token/ERC20/ERC20.sol\":6903:6963  _approve(owner, spender, currentAllowance - subtractedValue) */\n      jump\t// in\n        /* \"contracts/hundred.sol\":3528:3718  function transfer(address recipient, uint256 amount) public override returns (bool) {... */\n    tag_101:\n        /* \"contracts/hundred.sol\":3606:3610  bool */\n      0x00\n        /* \"@openzeppelin/contracts/utils/Context.sol\":719:729  msg.sender */\n      caller\n        /* \"contracts/hundred.sol\":3655:3691  _transfer(sender, recipient, amount) */\n      tag_142\n        /* \"@openzeppelin/contracts/utils/Context.sol\":719:729  msg.sender */\n      dup2\n        /* \"contracts/hundred.sol\":3673:3682  recipient */\n      dup6\n        /* \"contracts/hundred.sol\":3684:3690  amount */\n      dup6\n        /* \"contracts/hundred.sol\":3655:3664  _transfer */\n      tag_151\n        /* \"contracts/hundred.sol\":3655:3691  _transfer(sender, recipient, amount) */\n      jump\t// in\n        /* \"@openzeppelin/contracts/token/ERC20/ERC20.sol\":3987:4136  function allowance(address owner, address spender) public view virtual override returns (uint256) {... */\n    tag_118:\n      sub(shl(0xa0, 0x01), 0x01)\n        /* \"@openzeppelin/contracts/token/ERC20/ERC20.sol\":4102:4120  _allowances[owner] */\n      swap2\n      dup3\n      and\n        /* \"@openzeppelin/contracts/token/ERC20/ERC20.sol\":4076:4083  uint256 */\n      0x00\n        /* \"@openzeppelin/contracts/token/ERC20/ERC20.sol\":4102:4120  _allowances[owner] */\n      swap1\n      dup2\n      mstore\n        /* \"@openzeppelin/contracts/token/ERC20/ERC20.sol\":4102:4113  _allowances */\n      0x01\n        /* \"@openzeppelin/contracts/token/ERC20/ERC20.sol\":4102:4120  _allowances[owner] */\n      0x20\n      swap1\n      dup2\n      mstore\n      0x40\n      dup1\n      dup4\n      keccak256\n        /* \"@openzeppelin/contracts/token/ERC20/ERC20.sol\":4102:4129  _allowances[owner][spender] */\n      swap4\n      swap1\n      swap5\n      and\n      dup3\n      mstore\n      swap2\n      swap1\n      swap2\n      mstore\n      keccak256\n      sload\n      swap1\n        /* \"@openzeppelin/contracts/token/ERC20/ERC20.sol\":3987:4136  function allowance(address owner, address spender) public view virtual override returns (uint256) {... */\n      jump\t// out\n        /* \"contracts/hundred.sol\":2691:3254  function setNewRouter(address _newRouterAddress) external onlyOwner {... */\n    tag_122:\n        /* \"@openzeppelin/contracts/access/Ownable.sol\":1094:1107  _checkOwner() */\n      tag_199\n        /* \"@openzeppelin/contracts/access/Ownable.sol\":1094:1105  _checkOwner */\n      tag_147\n        /* \"@openzeppelin/contracts/access/Ownable.sol\":1094:1107  _checkOwner() */\n      jump\t// in\n    tag_199:\n      sub(shl(0xa0, 0x01), 0x01)\n        /* \"contracts/hundred.sol\":2774:2805  _newRouterAddress != address(0) */\n      dup2\n      and\n        /* \"contracts/hundred.sol\":2766:2855  require(_newRouterAddress != address(0), \"New router address cannot be the zero address\") */\n      tag_201\n      jumpi\n      mload(0x40)\n      shl(0xe5, 0x461bcd)\n      dup2\n      mstore\n        /* \"#utility.yul\":5290:5292   */\n      0x20\n        /* \"contracts/hundred.sol\":2766:2855  require(_newRouterAddress != address(0), \"New router address cannot be the zero address\") */\n      0x04\n      dup3\n      add\n        /* \"#utility.yul\":5272:5293   */\n      mstore\n        /* \"#utility.yul\":5329:5331   */\n      0x2d\n        /* \"#utility.yul\":5309:5327   */\n      0x24\n      dup3\n      add\n        /* \"#utility.yul\":5302:5332   */\n      mstore\n        /* \"#utility.yul\":5368:5402   */\n      0x4e657720726f7574657220616464726573732063616e6e6f7420626520746865\n        /* \"#utility.yul\":5348:5366   */\n      0x44\n      dup3\n      add\n        /* \"#utility.yul\":5341:5403   */\n      mstore\n      shl(0x98, 0x207a65726f2061646472657373)\n        /* \"#utility.yul\":5419:5437   */\n      0x64\n      dup3\n      add\n        /* \"#utility.yul\":5412:5455   */\n      mstore\n        /* \"#utility.yul\":5472:5491   */\n      0x84\n      add\n        /* \"contracts/hundred.sol\":2766:2855  require(_newRouterAddress != address(0), \"New router address cannot be the zero address\") */\n      tag_155\n        /* \"#utility.yul\":5088:5497   */\n      jump\n        /* \"contracts/hundred.sol\":2766:2855  require(_newRouterAddress != address(0), \"New router address cannot be the zero address\") */\n    tag_201:\n        /* \"contracts/hundred.sol\":2862:2895  IPancakeSwapV2Router02 _newRouter */\n      0x00\n        /* \"contracts/hundred.sol\":2921:2938  _newRouterAddress */\n      dup2\n        /* \"contracts/hundred.sol\":2862:2939  IPancakeSwapV2Router02 _newRouter = IPancakeSwapV2Router02(_newRouterAddress) */\n      swap1\n      pop\n        /* \"contracts/hundred.sol\":2946:2959  address _pair */\n      0x00\n        /* \"contracts/hundred.sol\":2984:2994  _newRouter */\n      dup2\n      sub(shl(0xa0, 0x01), 0x01)\n        /* \"contracts/hundred.sol\":2984:3002  _newRouter.factory */\n      and\n      0xc45a0155\n        /* \"contracts/hundred.sol\":2984:3004  _newRouter.factory() */\n      mload(0x40)\n      dup2\n      0xffffffff\n      and\n      0xe0\n      shl\n      dup2\n      mstore\n      0x04\n      add\n      0x20\n      mload(0x40)\n      dup1\n      dup4\n      sub\n      dup2\n      dup7\n      gas\n      staticcall\n      iszero\n      dup1\n      iszero\n      tag_205\n      jumpi\n      returndatasize\n      0x00\n      dup1\n      returndatacopy\n      revert(0x00, returndatasize)\n    tag_205:\n      pop\n      pop\n      pop\n      pop\n      mload(0x40)\n      returndatasize\n      not(0x1f)\n      0x1f\n      dup3\n      add\n      and\n      dup3\n      add\n      dup1\n      0x40\n      mstore\n      pop\n      dup2\n      add\n      swap1\n      tag_206\n      swap2\n      swap1\n      tag_207\n      jump\t// in\n    tag_206:\n      sub(shl(0xa0, 0x01), 0x01)\n        /* \"contracts/hundred.sol\":2962:3016  IPancakeSwapV2Factory(_newRouter.factory()).createPair */\n      and\n      0xc9c65396\n        /* \"contracts/hundred.sol\":3025:3029  this */\n      address\n        /* \"contracts/hundred.sol\":3032:3042  _newRouter */\n      dup5\n      sub(shl(0xa0, 0x01), 0x01)\n        /* \"contracts/hundred.sol\":3032:3047  _newRouter.WETH */\n      and\n      0xad5c4648\n        /* \"contracts/hundred.sol\":3032:3049  _newRouter.WETH() */\n      mload(0x40)\n      dup2\n      0xffffffff\n      and\n      0xe0\n      shl\n      dup2\n      mstore\n      0x04\n      add\n      0x20\n      mload(0x40)\n      dup1\n      dup4\n      sub\n      dup2\n      dup7\n      gas\n      staticcall\n      iszero\n      dup1\n      iszero\n      tag_209\n      jumpi\n      returndatasize\n      0x00\n      dup1\n      returndatacopy\n      revert(0x00, returndatasize)\n    tag_209:\n      pop\n      pop\n      pop\n      pop\n      mload(0x40)\n      returndatasize\n      not(0x1f)\n      0x1f\n      dup3\n      add\n      and\n      dup3\n      add\n      dup1\n      0x40\n      mstore\n      pop\n      dup2\n      add\n      swap1\n      tag_210\n      swap2\n      swap1\n      tag_207\n      jump\t// in\n    tag_210:\n        /* \"contracts/hundred.sol\":2962:3050  IPancakeSwapV2Factory(_newRouter.factory()).createPair(address(this), _newRouter.WETH()) */\n      mload(0x40)\n      not(sub(shl(0xe0, 0x01), 0x01))\n      0xe0\n      dup6\n      swap1\n      shl\n      and\n      dup2\n      mstore\n      sub(shl(0xa0, 0x01), 0x01)\n        /* \"#utility.yul\":5988:6003   */\n      swap3\n      dup4\n      and\n        /* \"contracts/hundred.sol\":2962:3050  IPancakeSwapV2Factory(_newRouter.factory()).createPair(address(this), _newRouter.WETH()) */\n      0x04\n      dup3\n      add\n        /* \"#utility.yul\":5970:6004   */\n      mstore\n        /* \"#utility.yul\":6040:6055   */\n      swap2\n      and\n        /* \"#utility.yul\":6020:6038   */\n      0x24\n      dup3\n      add\n        /* \"#utility.yul\":6013:6056   */\n      mstore\n        /* \"#utility.yul\":5905:5923   */\n      0x44\n      add\n        /* \"contracts/hundred.sol\":2962:3050  IPancakeSwapV2Factory(_newRouter.factory()).createPair(address(this), _newRouter.WETH()) */\n      0x20\n      mload(0x40)\n      dup1\n      dup4\n      sub\n      dup2\n      0x00\n      dup8\n      gas\n      call\n      iszero\n      dup1\n      iszero\n      tag_214\n      jumpi\n      returndatasize\n      0x00\n      dup1\n      returndatacopy\n      revert(0x00, returndatasize)\n    tag_214:\n      pop\n      pop\n      pop\n      pop\n      mload(0x40)\n      returndatasize\n      not(0x1f)\n      0x1f\n      dup3\n      add\n      and\n      dup3\n      add\n      dup1\n      0x40\n      mstore\n      pop\n      dup2\n      add\n      swap1\n      tag_215\n      swap2\n      swap1\n      tag_207\n      jump\t// in\n    tag_215:\n        /* \"contracts/hundred.sol\":2946:3050  address _pair = IPancakeSwapV2Factory(_newRouter.factory()).createPair(address(this), _newRouter.WETH()) */\n      swap1\n      pop\n      sub(shl(0xa0, 0x01), 0x01)\n        /* \"contracts/hundred.sol\":3065:3084  _pair != address(0) */\n      dup2\n      and\n        /* \"contracts/hundred.sol\":3057:3107  require(_pair != address(0), \"New pair not found\") */\n      tag_216\n      jumpi\n      mload(0x40)\n      shl(0xe5, 0x461bcd)\n      dup2\n      mstore\n        /* \"#utility.yul\":6269:6271   */\n      0x20\n        /* \"contracts/hundred.sol\":3057:3107  require(_pair != address(0), \"New pair not found\") */\n      0x04\n      dup3\n      add\n        /* \"#utility.yul\":6251:6272   */\n      mstore\n        /* \"#utility.yul\":6308:6310   */\n      0x12\n        /* \"#utility.yul\":6288:6306   */\n      0x24\n      dup3\n      add\n        /* \"#utility.yul\":6281:6311   */\n      mstore\n      shl(0x72, 0x13995dc81c185a5c881b9bdd08199bdd5b99)\n        /* \"#utility.yul\":6327:6345   */\n      0x44\n      dup3\n      add\n        /* \"#utility.yul\":6320:6368   */\n      mstore\n        /* \"#utility.yul\":6385:6403   */\n      0x64\n      add\n        /* \"contracts/hundred.sol\":3057:3107  require(_pair != address(0), \"New pair not found\") */\n      tag_155\n        /* \"#utility.yul\":6067:6409   */\n      jump\n        /* \"contracts/hundred.sol\":3057:3107  require(_pair != address(0), \"New pair not found\") */\n    tag_216:\n        /* \"contracts/hundred.sol\":3183:3200  pancakeSwapRouter */\n      0x07\n        /* \"contracts/hundred.sol\":3183:3213  pancakeSwapRouter = _newRouter */\n      dup1\n      sload\n      not(sub(shl(0xa0, 0x01), 0x01))\n      and\n      sub(shl(0xa0, 0x01), 0x01)\n      swap4\n      dup5\n      and\n      or\n      swap1\n      sstore\n        /* \"contracts/hundred.sol\":3220:3243  pancakeSwapPairs[_pair] */\n      and\n      0x00\n      swap1\n      dup2\n      mstore\n        /* \"contracts/hundred.sol\":3220:3236  pancakeSwapPairs */\n      0x0a\n        /* \"contracts/hundred.sol\":3220:3243  pancakeSwapPairs[_pair] */\n      0x20\n      mstore\n      0x40\n      swap1\n      keccak256\n        /* \"contracts/hundred.sol\":3220:3250  pancakeSwapPairs[_pair] = true */\n      dup1\n      sload\n      not(0xff)\n      and\n      0x01\n      or\n      swap1\n      sstore\n      pop\n        /* \"contracts/hundred.sol\":2691:3254  function setNewRouter(address _newRouterAddress) external onlyOwner {... */\n      jump\t// out\n        /* \"@openzeppelin/contracts/access/Ownable.sol\":2074:2272  function transferOwnership(address newOwner) public virtual onlyOwner {... */\n    tag_125:\n        /* \"@openzeppelin/contracts/access/Ownable.sol\":1094:1107  _checkOwner() */\n      tag_220\n        /* \"@openzeppelin/contracts/access/Ownable.sol\":1094:1105  _checkOwner */\n      tag_147\n        /* \"@openzeppelin/contracts/access/Ownable.sol\":1094:1107  _checkOwner() */\n      jump\t// in\n    tag_220:\n      sub(shl(0xa0, 0x01), 0x01)\n        /* \"@openzeppelin/contracts/access/Ownable.sol\":2162:2184  newOwner != address(0) */\n      dup2\n      and\n        /* \"@openzeppelin/contracts/access/Ownable.sol\":2154:2227  require(newOwner != address(0), \"Ownable: new owner is the zero address\") */\n      tag_222\n      jumpi\n      mload(0x40)\n      shl(0xe5, 0x461bcd)\n      dup2\n      mstore\n        /* \"#utility.yul\":6616:6618   */\n      0x20\n        /* \"@openzeppelin/contracts/access/Ownable.sol\":2154:2227  require(newOwner != address(0), \"Ownable: new owner is the zero address\") */\n      0x04\n      dup3\n      add\n        /* \"#utility.yul\":6598:6619   */\n      mstore\n        /* \"#utility.yul\":6655:6657   */\n      0x26\n        /* \"#utility.yul\":6635:6653   */\n      0x24\n      dup3\n      add\n        /* \"#utility.yul\":6628:6658   */\n      mstore\n        /* \"#utility.yul\":6694:6728   */\n      0x4f776e61626c653a206e6577206f776e657220697320746865207a65726f2061\n        /* \"#utility.yul\":6674:6692   */\n      0x44\n      dup3\n      add\n        /* \"#utility.yul\":6667:6729   */\n      mstore\n      shl(0xd0, 0x646472657373)\n        /* \"#utility.yul\":6745:6763   */\n      0x64\n      dup3\n      add\n        /* \"#utility.yul\":6738:6774   */\n      mstore\n        /* \"#utility.yul\":6791:6810   */\n      0x84\n      add\n        /* \"@openzeppelin/contracts/access/Ownable.sol\":2154:2227  require(newOwner != address(0), \"Ownable: new owner is the zero address\") */\n      tag_155\n        /* \"#utility.yul\":6414:6816   */\n      jump\n        /* \"@openzeppelin/contracts/access/Ownable.sol\":2154:2227  require(newOwner != address(0), \"Ownable: new owner is the zero address\") */\n    tag_222:\n        /* \"@openzeppelin/contracts/access/Ownable.sol\":2237:2265  _transferOwnership(newOwner) */\n      tag_225\n        /* \"@openzeppelin/contracts/access/Ownable.sol\":2256:2264  newOwner */\n      dup2\n        /* \"@openzeppelin/contracts/access/Ownable.sol\":2237:2255  _transferOwnership */\n      tag_179\n        /* \"@openzeppelin/contracts/access/Ownable.sol\":2237:2265  _transferOwnership(newOwner) */\n      jump\t// in\n    tag_225:\n        /* \"@openzeppelin/contracts/access/Ownable.sol\":2074:2272  function transferOwnership(address newOwner) public virtual onlyOwner {... */\n      pop\n      jump\t// out\n        /* \"contracts/hundred.sol\":5152:5359  function blacklistAddress(address _address) external onlyOwner {... */\n    tag_128:\n        /* \"@openzeppelin/contracts/access/Ownable.sol\":1094:1107  _checkOwner() */\n      tag_227\n        /* \"@openzeppelin/contracts/access/Ownable.sol\":1094:1105  _checkOwner */\n      tag_147\n        /* \"@openzeppelin/contracts/access/Ownable.sol\":1094:1107  _checkOwner() */\n      jump\t// in\n    tag_227:\n      sub(shl(0xa0, 0x01), 0x01)\n        /* \"contracts/hundred.sol\":5231:5252  blacklisted[_address] */\n      dup2\n      and\n      0x00\n      swap1\n      dup2\n      mstore\n        /* \"contracts/hundred.sol\":5231:5242  blacklisted */\n      0x0b\n        /* \"contracts/hundred.sol\":5231:5252  blacklisted[_address] */\n      0x20\n      mstore\n      0x40\n      swap1\n      keccak256\n      sload\n      0xff\n      and\n        /* \"contracts/hundred.sol\":5230:5252  !blacklisted[_address] */\n      iszero\n        /* \"contracts/hundred.sol\":5222:5287  require(!blacklisted[_address], \"Address is already blacklisted\") */\n      tag_229\n      jumpi\n      mload(0x40)\n      shl(0xe5, 0x461bcd)\n      dup2\n      mstore\n        /* \"#utility.yul\":7023:7025   */\n      0x20\n        /* \"contracts/hundred.sol\":5222:5287  require(!blacklisted[_address], \"Address is already blacklisted\") */\n      0x04\n      dup3\n      add\n        /* \"#utility.yul\":7005:7026   */\n      mstore\n        /* \"#utility.yul\":7062:7064   */\n      0x1e\n        /* \"#utility.yul\":7042:7060   */\n      0x24\n      dup3\n      add\n        /* \"#utility.yul\":7035:7065   */\n      mstore\n        /* \"#utility.yul\":7101:7133   */\n      0x4164647265737320697320616c726561647920626c61636b6c69737465640000\n        /* \"#utility.yul\":7081:7099   */\n      0x44\n      dup3\n      add\n        /* \"#utility.yul\":7074:7134   */\n      mstore\n        /* \"#utility.yul\":7151:7169   */\n      0x64\n      add\n        /* \"contracts/hundred.sol\":5222:5287  require(!blacklisted[_address], \"Address is already blacklisted\") */\n      tag_155\n        /* \"#utility.yul\":6821:7175   */\n      jump\n        /* \"contracts/hundred.sol\":5222:5287  require(!blacklisted[_address], \"Address is already blacklisted\") */\n    tag_229:\n      sub(shl(0xa0, 0x01), 0x01)\n        /* \"contracts/hundred.sol\":5294:5315  blacklisted[_address] */\n      dup2\n      and\n      0x00\n      dup2\n      dup2\n      mstore\n        /* \"contracts/hundred.sol\":5294:5305  blacklisted */\n      0x0b\n        /* \"contracts/hundred.sol\":5294:5315  blacklisted[_address] */\n      0x20\n      mstore\n      0x40\n      dup1\n      dup3\n      keccak256\n        /* \"contracts/hundred.sol\":5294:5322  blacklisted[_address] = true */\n      dup1\n      sload\n      not(0xff)\n      and\n        /* \"contracts/hundred.sol\":5318:5322  true */\n      0x01\n        /* \"contracts/hundred.sol\":5294:5322  blacklisted[_address] = true */\n      or\n      swap1\n      sstore\n        /* \"contracts/hundred.sol\":5334:5355  Blacklisted(_address) */\n      mload\n      0xffa4e6181777692565cf28528fc88fd1516ea86b56da075235fa575af6a4b855\n      swap2\n        /* \"contracts/hundred.sol\":5294:5315  blacklisted[_address] */\n      swap1\n        /* \"contracts/hundred.sol\":5334:5355  Blacklisted(_address) */\n      log2\n        /* \"contracts/hundred.sol\":5152:5359  function blacklistAddress(address _address) external onlyOwner {... */\n      pop\n      jump\t// out\n        /* \"contracts/hundred.sol\":3262:3384  function excludeFromLockPeriod(address _address) external onlyOwner {... */\n    tag_131:\n        /* \"@openzeppelin/contracts/access/Ownable.sol\":1094:1107  _checkOwner() */\n      tag_233\n        /* \"@openzeppelin/contracts/access/Ownable.sol\":1094:1105  _checkOwner */\n      tag_147\n        /* \"@openzeppelin/contracts/access/Ownable.sol\":1094:1107  _checkOwner() */\n      jump\t// in\n    tag_233:\n      sub(shl(0xa0, 0x01), 0x01)\n        /* \"contracts/hundred.sol\":3337:3369  excludedFromLockPeriod[_address] */\n      and\n      0x00\n      swap1\n      dup2\n      mstore\n        /* \"contracts/hundred.sol\":3337:3359  excludedFromLockPeriod */\n      0x09\n        /* \"contracts/hundred.sol\":3337:3369  excludedFromLockPeriod[_address] */\n      0x20\n      mstore\n      0x40\n      swap1\n      keccak256\n        /* \"contracts/hundred.sol\":3337:3376  excludedFromLockPeriod[_address] = true */\n      dup1\n      sload\n      not(0xff)\n      and\n        /* \"contracts/hundred.sol\":3372:3376  true */\n      0x01\n        /* \"contracts/hundred.sol\":3337:3376  excludedFromLockPeriod[_address] = true */\n      or\n      swap1\n      sstore\n        /* \"contracts/hundred.sol\":3262:3384  function excludeFromLockPeriod(address _address) external onlyOwner {... */\n      jump\t// out\n        /* \"@openzeppelin/contracts/token/ERC20/ERC20.sol\":10457:10797  function _approve(address owner, address spender, uint256 amount) internal virtual {... */\n    tag_143:\n      sub(shl(0xa0, 0x01), 0x01)\n        /* \"@openzeppelin/contracts/token/ERC20/ERC20.sol\":10558:10577  owner != address(0) */\n      dup4\n      and\n        /* \"@openzeppelin/contracts/token/ERC20/ERC20.sol\":10550:10618  require(owner != address(0), \"ERC20: approve from the zero address\") */\n      tag_237\n      jumpi\n      mload(0x40)\n      shl(0xe5, 0x461bcd)\n      dup2\n      mstore\n        /* \"#utility.yul\":7382:7384   */\n      0x20\n        /* \"@openzeppelin/contracts/token/ERC20/ERC20.sol\":10550:10618  require(owner != address(0), \"ERC20: approve from the zero address\") */\n      0x04\n      dup3\n      add\n        /* \"#utility.yul\":7364:7385   */\n      mstore\n        /* \"#utility.yul\":7421:7423   */\n      0x24\n        /* \"#utility.yul\":7401:7419   */\n      dup1\n      dup3\n      add\n        /* \"#utility.yul\":7394:7424   */\n      mstore\n        /* \"#utility.yul\":7460:7494   */\n      0x45524332303a20617070726f76652066726f6d20746865207a65726f20616464\n        /* \"#utility.yul\":7440:7458   */\n      0x44\n      dup3\n      add\n        /* \"#utility.yul\":7433:7495   */\n      mstore\n      shl(0xe0, 0x72657373)\n        /* \"#utility.yul\":7511:7529   */\n      0x64\n      dup3\n      add\n        /* \"#utility.yul\":7504:7538   */\n      mstore\n        /* \"#utility.yul\":7555:7574   */\n      0x84\n      add\n        /* \"@openzeppelin/contracts/token/ERC20/ERC20.sol\":10550:10618  require(owner != address(0), \"ERC20: approve from the zero address\") */\n      tag_155\n        /* \"#utility.yul\":7180:7580   */\n      jump\n        /* \"@openzeppelin/contracts/token/ERC20/ERC20.sol\":10550:10618  require(owner != address(0), \"ERC20: approve from the zero address\") */\n    tag_237:\n      sub(shl(0xa0, 0x01), 0x01)\n        /* \"@openzeppelin/contracts/token/ERC20/ERC20.sol\":10636:10657  spender != address(0) */\n      dup3\n      and\n        /* \"@openzeppelin/contracts/token/ERC20/ERC20.sol\":10628:10696  require(spender != address(0), \"ERC20: approve to the zero address\") */\n      tag_240\n      jumpi\n      mload(0x40)\n      shl(0xe5, 0x461bcd)\n      dup2\n      mstore\n        /* \"#utility.yul\":7787:7789   */\n      0x20\n        /* \"@openzeppelin/contracts/token/ERC20/ERC20.sol\":10628:10696  require(spender != address(0), \"ERC20: approve to the zero address\") */\n      0x04\n      dup3\n      add\n        /* \"#utility.yul\":7769:7790   */\n      mstore\n        /* \"#utility.yul\":7826:7828   */\n      0x22\n        /* \"#utility.yul\":7806:7824   */\n      0x24\n      dup3\n      add\n        /* \"#utility.yul\":7799:7829   */\n      mstore\n        /* \"#utility.yul\":7865:7899   */\n      0x45524332303a20617070726f766520746f20746865207a65726f206164647265\n        /* \"#utility.yul\":7845:7863   */\n      0x44\n      dup3\n      add\n        /* \"#utility.yul\":7838:7900   */\n      mstore\n      shl(0xf0, 0x7373)\n        /* \"#utility.yul\":7916:7934   */\n      0x64\n      dup3\n      add\n        /* \"#utility.yul\":7909:7941   */\n      mstore\n        /* \"#utility.yul\":7958:7977   */\n      0x84\n      add\n        /* \"@openzeppelin/contracts/token/ERC20/ERC20.sol\":10628:10696  require(spender != address(0), \"ERC20: approve to the zero address\") */\n      tag_155\n        /* \"#utility.yul\":7585:7983   */\n      jump\n        /* \"@openzeppelin/contracts/token/ERC20/ERC20.sol\":10628:10696  require(spender != address(0), \"ERC20: approve to the zero address\") */\n    tag_240:\n      sub(shl(0xa0, 0x01), 0x01)\n        /* \"@openzeppelin/contracts/token/ERC20/ERC20.sol\":10707:10725  _allowances[owner] */\n      dup4\n      dup2\n      and\n      0x00\n      dup2\n      dup2\n      mstore\n        /* \"@openzeppelin/contracts/token/ERC20/ERC20.sol\":10707:10718  _allowances */\n      0x01\n        /* \"@openzeppelin/contracts/token/ERC20/ERC20.sol\":10707:10725  _allowances[owner] */\n      0x20\n      swap1\n      dup2\n      mstore\n      0x40\n      dup1\n      dup4\n      keccak256\n        /* \"@openzeppelin/contracts/token/ERC20/ERC20.sol\":10707:10734  _allowances[owner][spender] */\n      swap5\n      dup8\n      and\n      dup1\n      dup5\n      mstore\n      swap5\n      dup3\n      mstore\n      swap2\n      dup3\n      swap1\n      keccak256\n        /* \"@openzeppelin/contracts/token/ERC20/ERC20.sol\":10707:10743  _allowances[owner][spender] = amount */\n      dup6\n      swap1\n      sstore\n        /* \"@openzeppelin/contracts/token/ERC20/ERC20.sol\":10758:10790  Approval(owner, spender, amount) */\n      swap1\n      mload\n        /* \"#utility.yul\":1361:1386   */\n      dup5\n      dup2\n      mstore\n        /* \"@openzeppelin/contracts/token/ERC20/ERC20.sol\":10758:10790  Approval(owner, spender, amount) */\n      0x8c5be1e5ebec7d5bd14f71427d1e84f3dd0314c0f7b2291e5b200ac8c7c3b925\n      swap2\n        /* \"#utility.yul\":1334:1352   */\n      add\n        /* \"@openzeppelin/contracts/token/ERC20/ERC20.sol\":10758:10790  Approval(owner, spender, amount) */\n      mload(0x40)\n      dup1\n      swap2\n      sub\n      swap1\n      log3\n        /* \"@openzeppelin/contracts/token/ERC20/ERC20.sol\":10457:10797  function _approve(address owner, address spender, uint256 amount) internal virtual {... */\n      pop\n      pop\n      pop\n      jump\t// out\n        /* \"@openzeppelin/contracts/access/Ownable.sol\":1359:1489  function _checkOwner() internal view virtual {... */\n    tag_147:\n        /* \"@openzeppelin/contracts/access/Ownable.sol\":1273:1279  _owner */\n      and(sub(shl(0xa0, 0x01), 0x01), sload(0x05))\n        /* \"@openzeppelin/contracts/utils/Context.sol\":719:729  msg.sender */\n      caller\n        /* \"@openzeppelin/contracts/access/Ownable.sol\":1422:1445  owner() == _msgSender() */\n      eq\n        /* \"@openzeppelin/contracts/access/Ownable.sol\":1414:1482  require(owner() == _msgSender(), \"Ownable: caller is not the owner\") */\n      tag_178\n      jumpi\n      mload(0x40)\n      shl(0xe5, 0x461bcd)\n      dup2\n      mstore\n        /* \"#utility.yul\":8190:8192   */\n      0x20\n        /* \"@openzeppelin/contracts/access/Ownable.sol\":1414:1482  require(owner() == _msgSender(), \"Ownable: caller is not the owner\") */\n      0x04\n      dup3\n      add\n        /* \"#utility.yul\":8172:8193   */\n      dup2\n      swap1\n      mstore\n        /* \"#utility.yul\":8209:8227   */\n      0x24\n      dup3\n      add\n        /* \"#utility.yul\":8202:8232   */\n      mstore\n        /* \"#utility.yul\":8268:8302   */\n      0x4f776e61626c653a2063616c6c6572206973206e6f7420746865206f776e6572\n        /* \"#utility.yul\":8248:8266   */\n      0x44\n      dup3\n      add\n        /* \"#utility.yul\":8241:8303   */\n      mstore\n        /* \"#utility.yul\":8320:8338   */\n      0x64\n      add\n        /* \"@openzeppelin/contracts/access/Ownable.sol\":1414:1482  require(owner() == _msgSender(), \"Ownable: caller is not the owner\") */\n      tag_155\n        /* \"#utility.yul\":7988:8344   */\n      jump\n        /* \"contracts/hundred.sol\":4126:5144  function _transfer(address sender, address recipient, uint256 amount) internal override {... */\n    tag_151:\n      sub(shl(0xa0, 0x01), 0x01)\n        /* \"contracts/hundred.sol\":4230:4249  blacklisted[sender] */\n      dup4\n      and\n      0x00\n      swap1\n      dup2\n      mstore\n        /* \"contracts/hundred.sol\":4230:4241  blacklisted */\n      0x0b\n        /* \"contracts/hundred.sol\":4230:4249  blacklisted[sender] */\n      0x20\n      mstore\n      0x40\n      swap1\n      keccak256\n      sload\n      0xff\n      and\n        /* \"contracts/hundred.sol\":4229:4249  !blacklisted[sender] */\n      iszero\n        /* \"contracts/hundred.sol\":4221:4275  require(!blacklisted[sender], \"Sender is blacklisted\") */\n      tag_251\n      jumpi\n      mload(0x40)\n      shl(0xe5, 0x461bcd)\n      dup2\n      mstore\n        /* \"#utility.yul\":8551:8553   */\n      0x20\n        /* \"contracts/hundred.sol\":4221:4275  require(!blacklisted[sender], \"Sender is blacklisted\") */\n      0x04\n      dup3\n      add\n        /* \"#utility.yul\":8533:8554   */\n      mstore\n        /* \"#utility.yul\":8590:8592   */\n      0x15\n        /* \"#utility.yul\":8570:8588   */\n      0x24\n      dup3\n      add\n        /* \"#utility.yul\":8563:8593   */\n      mstore\n      shl(0x5a, 0x14d95b99195c881a5cc8189b1858dadb1a5cdd1959)\n        /* \"#utility.yul\":8609:8627   */\n      0x44\n      dup3\n      add\n        /* \"#utility.yul\":8602:8653   */\n      mstore\n        /* \"#utility.yul\":8670:8688   */\n      0x64\n      add\n        /* \"contracts/hundred.sol\":4221:4275  require(!blacklisted[sender], \"Sender is blacklisted\") */\n      tag_155\n        /* \"#utility.yul\":8349:8694   */\n      jump\n        /* \"contracts/hundred.sol\":4221:4275  require(!blacklisted[sender], \"Sender is blacklisted\") */\n    tag_251:\n      sub(shl(0xa0, 0x01), 0x01)\n        /* \"contracts/hundred.sol\":4291:4313  blacklisted[recipient] */\n      dup3\n      and\n      0x00\n      swap1\n      dup2\n      mstore\n        /* \"contracts/hundred.sol\":4291:4302  blacklisted */\n      0x0b\n        /* \"contracts/hundred.sol\":4291:4313  blacklisted[recipient] */\n      0x20\n      mstore\n      0x40\n      swap1\n      keccak256\n      sload\n      0xff\n      and\n        /* \"contracts/hundred.sol\":4290:4313  !blacklisted[recipient] */\n      iszero\n        /* \"contracts/hundred.sol\":4282:4342  require(!blacklisted[recipient], \"Recipient is blacklisted\") */\n      tag_254\n      jumpi\n      mload(0x40)\n      shl(0xe5, 0x461bcd)\n      dup2\n      mstore\n        /* \"#utility.yul\":8901:8903   */\n      0x20\n        /* \"contracts/hundred.sol\":4282:4342  require(!blacklisted[recipient], \"Recipient is blacklisted\") */\n      0x04\n      dup3\n      add\n        /* \"#utility.yul\":8883:8904   */\n      mstore\n        /* \"#utility.yul\":8940:8942   */\n      0x18\n        /* \"#utility.yul\":8920:8938   */\n      0x24\n      dup3\n      add\n        /* \"#utility.yul\":8913:8943   */\n      mstore\n        /* \"#utility.yul\":8979:9005   */\n      0x526563697069656e7420697320626c61636b6c69737465640000000000000000\n        /* \"#utility.yul\":8959:8977   */\n      0x44\n      dup3\n      add\n        /* \"#utility.yul\":8952:9006   */\n      mstore\n        /* \"#utility.yul\":9023:9041   */\n      0x64\n      add\n        /* \"contracts/hundred.sol\":4282:4342  require(!blacklisted[recipient], \"Recipient is blacklisted\") */\n      tag_155\n        /* \"#utility.yul\":8699:9047   */\n      jump\n        /* \"contracts/hundred.sol\":4282:4342  require(!blacklisted[recipient], \"Recipient is blacklisted\") */\n    tag_254:\n        /* \"contracts/hundred.sol\":4368:4369  0 */\n      0x00\n        /* \"contracts/hundred.sol\":4359:4365  amount */\n      dup2\n        /* \"contracts/hundred.sol\":4359:4369  amount > 0 */\n      gt\n        /* \"contracts/hundred.sol\":4351:4415  require(amount > 0, \"Transfer amount must be greater than zero\") */\n      tag_257\n      jumpi\n      mload(0x40)\n      shl(0xe5, 0x461bcd)\n      dup2\n      mstore\n        /* \"#utility.yul\":9254:9256   */\n      0x20\n        /* \"contracts/hundred.sol\":4351:4415  require(amount > 0, \"Transfer amount must be greater than zero\") */\n      0x04\n      dup3\n      add\n        /* \"#utility.yul\":9236:9257   */\n      mstore\n        /* \"#utility.yul\":9293:9295   */\n      0x29\n        /* \"#utility.yul\":9273:9291   */\n      0x24\n      dup3\n      add\n        /* \"#utility.yul\":9266:9296   */\n      mstore\n        /* \"#utility.yul\":9332:9366   */\n      0x5472616e7366657220616d6f756e74206d757374206265206772656174657220\n        /* \"#utility.yul\":9312:9330   */\n      0x44\n      dup3\n      add\n        /* \"#utility.yul\":9305:9367   */\n      mstore\n      shl(0xb8, 0x7468616e207a65726f)\n        /* \"#utility.yul\":9383:9401   */\n      0x64\n      dup3\n      add\n        /* \"#utility.yul\":9376:9415   */\n      mstore\n        /* \"#utility.yul\":9432:9451   */\n      0x84\n      add\n        /* \"contracts/hundred.sol\":4351:4415  require(amount > 0, \"Transfer amount must be greater than zero\") */\n      tag_155\n        /* \"#utility.yul\":9052:9457   */\n      jump\n        /* \"contracts/hundred.sol\":4351:4415  require(amount > 0, \"Transfer amount must be greater than zero\") */\n    tag_257:\n        /* \"contracts/hundred.sol\":4451:4457  amount */\n      dup1\n        /* \"contracts/hundred.sol\":4430:4447  balanceOf(sender) */\n      tag_260\n        /* \"contracts/hundred.sol\":4440:4446  sender */\n      dup5\n      sub(shl(0xa0, 0x01), 0x01)\n        /* \"@openzeppelin/contracts/token/ERC20/ERC20.sol\":3519:3537  _balances[account] */\n      and\n        /* \"@openzeppelin/contracts/token/ERC20/ERC20.sol\":3493:3500  uint256 */\n      0x00\n        /* \"@openzeppelin/contracts/token/ERC20/ERC20.sol\":3519:3537  _balances[account] */\n      swap1\n      dup2\n      mstore\n      0x20\n      dup2\n      swap1\n      mstore\n      0x40\n      swap1\n      keccak256\n      sload\n      swap1\n        /* \"@openzeppelin/contracts/token/ERC20/ERC20.sol\":3419:3544  function balanceOf(address account) public view virtual override returns (uint256) {... */\n      jump\n        /* \"contracts/hundred.sol\":4430:4447  balanceOf(sender) */\n    tag_260:\n        /* \"contracts/hundred.sol\":4430:4457  balanceOf(sender) >= amount */\n      lt\n      iszero\n        /* \"contracts/hundred.sol\":4422:4482  require(balanceOf(sender) >= amount, \"Insufficient balance\") */\n      tag_261\n      jumpi\n      mload(0x40)\n      shl(0xe5, 0x461bcd)\n      dup2\n      mstore\n        /* \"#utility.yul\":9664:9666   */\n      0x20\n        /* \"contracts/hundred.sol\":4422:4482  require(balanceOf(sender) >= amount, \"Insufficient balance\") */\n      0x04\n      dup3\n      add\n        /* \"#utility.yul\":9646:9667   */\n      mstore\n        /* \"#utility.yul\":9703:9705   */\n      0x14\n        /* \"#utility.yul\":9683:9701   */\n      0x24\n      dup3\n      add\n        /* \"#utility.yul\":9676:9706   */\n      mstore\n      shl(0x60, 0x496e73756666696369656e742062616c616e6365)\n        /* \"#utility.yul\":9722:9740   */\n      0x44\n      dup3\n      add\n        /* \"#utility.yul\":9715:9765   */\n      mstore\n        /* \"#utility.yul\":9782:9800   */\n      0x64\n      add\n        /* \"contracts/hundred.sol\":4422:4482  require(balanceOf(sender) >= amount, \"Insufficient balance\") */\n      tag_155\n        /* \"#utility.yul\":9462:9806   */\n      jump\n        /* \"contracts/hundred.sol\":4422:4482  require(balanceOf(sender) >= amount, \"Insufficient balance\") */\n    tag_261:\n      sub(shl(0xa0, 0x01), 0x01)\n        /* \"contracts/hundred.sol\":4547:4577  excludedFromLockPeriod[sender] */\n      dup4\n      and\n      0x00\n      swap1\n      dup2\n      mstore\n        /* \"contracts/hundred.sol\":4547:4569  excludedFromLockPeriod */\n      0x09\n        /* \"contracts/hundred.sol\":4547:4577  excludedFromLockPeriod[sender] */\n      0x20\n      mstore\n      0x40\n      swap1\n      keccak256\n      sload\n      0xff\n      and\n        /* \"contracts/hundred.sol\":4546:4577  !excludedFromLockPeriod[sender] */\n      iszero\n        /* \"contracts/hundred.sol\":4546:4598  !excludedFromLockPeriod[sender] && sender != owner() */\n      dup1\n      iszero\n      tag_264\n      jumpi\n      pop\n        /* \"@openzeppelin/contracts/access/Ownable.sol\":1273:1279  _owner */\n      sload(0x05)\n      sub(shl(0xa0, 0x01), 0x01)\n        /* \"contracts/hundred.sol\":4581:4598  sender != owner() */\n      dup5\n      dup2\n      and\n        /* \"@openzeppelin/contracts/access/Ownable.sol\":1273:1279  _owner */\n      swap2\n      and\n        /* \"contracts/hundred.sol\":4581:4598  sender != owner() */\n      eq\n      iszero\n        /* \"contracts/hundred.sol\":4546:4598  !excludedFromLockPeriod[sender] && sender != owner() */\n    tag_264:\n        /* \"contracts/hundred.sol\":4546:4638  !excludedFromLockPeriod[sender] && sender != owner() && sender != address(pancakeSwapRouter) */\n      dup1\n      iszero\n      tag_266\n      jumpi\n      pop\n        /* \"contracts/hundred.sol\":4620:4637  pancakeSwapRouter */\n      sload(0x07)\n      sub(shl(0xa0, 0x01), 0x01)\n        /* \"contracts/hundred.sol\":4602:4638  sender != address(pancakeSwapRouter) */\n      dup5\n      dup2\n      and\n        /* \"contracts/hundred.sol\":4620:4637  pancakeSwapRouter */\n      swap2\n      and\n        /* \"contracts/hundred.sol\":4602:4638  sender != address(pancakeSwapRouter) */\n      eq\n      iszero\n        /* \"contracts/hundred.sol\":4546:4638  !excludedFromLockPeriod[sender] && sender != owner() && sender != address(pancakeSwapRouter) */\n    tag_266:\n        /* \"contracts/hundred.sol\":4542:4734  if (!excludedFromLockPeriod[sender] && sender != owner() && sender != address(pancakeSwapRouter)) {... */\n      iszero\n      tag_268\n      jumpi\n      sub(shl(0xa0, 0x01), 0x01)\n        /* \"contracts/hundred.sol\":4678:4696  timeStamps[sender] */\n      dup4\n      and\n      0x00\n      swap1\n      dup2\n      mstore\n        /* \"contracts/hundred.sol\":4678:4688  timeStamps */\n      0x08\n        /* \"contracts/hundred.sol\":4678:4696  timeStamps[sender] */\n      0x20\n      mstore\n      0x40\n      swap1\n      keccak256\n      sload\n        /* \"contracts/hundred.sol\":4659:4674  block.timestamp */\n      timestamp\n        /* \"contracts/hundred.sol\":4659:4696  block.timestamp >= timeStamps[sender] */\n      lt\n      iszero\n        /* \"contracts/hundred.sol\":4651:4726  require(block.timestamp >= timeStamps[sender], \"Time lock is still active\") */\n      tag_268\n      jumpi\n      mload(0x40)\n      shl(0xe5, 0x461bcd)\n      dup2\n      mstore\n        /* \"#utility.yul\":10013:10015   */\n      0x20\n        /* \"contracts/hundred.sol\":4651:4726  require(block.timestamp >= timeStamps[sender], \"Time lock is still active\") */\n      0x04\n      dup3\n      add\n        /* \"#utility.yul\":9995:10016   */\n      mstore\n        /* \"#utility.yul\":10052:10054   */\n      0x19\n        /* \"#utility.yul\":10032:10050   */\n      0x24\n      dup3\n      add\n        /* \"#utility.yul\":10025:10055   */\n      mstore\n        /* \"#utility.yul\":10091:10118   */\n      0x54696d65206c6f636b206973207374696c6c2061637469766500000000000000\n        /* \"#utility.yul\":10071:10089   */\n      0x44\n      dup3\n      add\n        /* \"#utility.yul\":10064:10119   */\n      mstore\n        /* \"#utility.yul\":10136:10154   */\n      0x64\n      add\n        /* \"contracts/hundred.sol\":4651:4726  require(block.timestamp >= timeStamps[sender], \"Time lock is still active\") */\n      tag_155\n        /* \"#utility.yul\":9811:10160   */\n      jump\n        /* \"contracts/hundred.sol\":4651:4726  require(block.timestamp >= timeStamps[sender], \"Time lock is still active\") */\n    tag_268:\n      sub(shl(0xa0, 0x01), 0x01)\n        /* \"contracts/hundred.sol\":4801:4834  excludedFromLockPeriod[recipient] */\n      dup3\n      and\n      0x00\n      swap1\n      dup2\n      mstore\n        /* \"contracts/hundred.sol\":4801:4823  excludedFromLockPeriod */\n      0x09\n        /* \"contracts/hundred.sol\":4801:4834  excludedFromLockPeriod[recipient] */\n      0x20\n      mstore\n      0x40\n      swap1\n      keccak256\n      sload\n      0xff\n      and\n        /* \"contracts/hundred.sol\":4800:4834  !excludedFromLockPeriod[recipient] */\n      iszero\n        /* \"contracts/hundred.sol\":4800:4858  !excludedFromLockPeriod[recipient] && recipient != owner() */\n      dup1\n      iszero\n      tag_271\n      jumpi\n      pop\n        /* \"@openzeppelin/contracts/access/Ownable.sol\":1273:1279  _owner */\n      sload(0x05)\n      sub(shl(0xa0, 0x01), 0x01)\n        /* \"contracts/hundred.sol\":4838:4858  recipient != owner() */\n      dup4\n      dup2\n      and\n        /* \"@openzeppelin/contracts/access/Ownable.sol\":1273:1279  _owner */\n      swap2\n      and\n        /* \"contracts/hundred.sol\":4838:4858  recipient != owner() */\n      eq\n      iszero\n        /* \"contracts/hundred.sol\":4800:4858  !excludedFromLockPeriod[recipient] && recipient != owner() */\n    tag_271:\n        /* \"contracts/hundred.sol\":4800:4901  !excludedFromLockPeriod[recipient] && recipient != owner() && recipient != address(pancakeSwapRouter) */\n      dup1\n      iszero\n      tag_273\n      jumpi\n      pop\n        /* \"contracts/hundred.sol\":4883:4900  pancakeSwapRouter */\n      sload(0x07)\n      sub(shl(0xa0, 0x01), 0x01)\n        /* \"contracts/hundred.sol\":4862:4901  recipient != address(pancakeSwapRouter) */\n      dup4\n      dup2\n      and\n        /* \"contracts/hundred.sol\":4883:4900  pancakeSwapRouter */\n      swap2\n      and\n        /* \"contracts/hundred.sol\":4862:4901  recipient != address(pancakeSwapRouter) */\n      eq\n      iszero\n        /* \"contracts/hundred.sol\":4800:4901  !excludedFromLockPeriod[recipient] && recipient != owner() && recipient != address(pancakeSwapRouter) */\n    tag_273:\n        /* \"contracts/hundred.sol\":4796:5090  if (!excludedFromLockPeriod[recipient] && recipient != owner() && recipient != address(pancakeSwapRouter)) {... */\n      iszero\n      tag_274\n      jumpi\n      sub(shl(0xa0, 0x01), 0x01)\n        /* \"contracts/hundred.sol\":4922:4943  timeStamps[recipient] */\n      dup3\n      and\n      0x00\n      swap1\n      dup2\n      mstore\n        /* \"contracts/hundred.sol\":4922:4932  timeStamps */\n      0x08\n        /* \"contracts/hundred.sol\":4922:4943  timeStamps[recipient] */\n      0x20\n      mstore\n      0x40\n      swap1\n      keccak256\n      sload\n        /* \"contracts/hundred.sol\":4922:4948  timeStamps[recipient] == 0 */\n      iszero\n      dup1\n        /* \"contracts/hundred.sol\":4922:4992  timeStamps[recipient] == 0 || block.timestamp >= timeStamps[recipient] */\n      tag_275\n      jumpi\n      pop\n      sub(shl(0xa0, 0x01), 0x01)\n        /* \"contracts/hundred.sol\":4971:4992  timeStamps[recipient] */\n      dup3\n      and\n      0x00\n      swap1\n      dup2\n      mstore\n        /* \"contracts/hundred.sol\":4971:4981  timeStamps */\n      0x08\n        /* \"contracts/hundred.sol\":4971:4992  timeStamps[recipient] */\n      0x20\n      mstore\n      0x40\n      swap1\n      keccak256\n      sload\n        /* \"contracts/hundred.sol\":4952:4967  block.timestamp */\n      timestamp\n        /* \"contracts/hundred.sol\":4952:4992  block.timestamp >= timeStamps[recipient] */\n      lt\n      iszero\n        /* \"contracts/hundred.sol\":4922:4992  timeStamps[recipient] == 0 || block.timestamp >= timeStamps[recipient] */\n    tag_275:\n        /* \"contracts/hundred.sol\":4914:5019  require(timeStamps[recipient] == 0 || block.timestamp >= timeStamps[recipient], \"Recipient in time lock\") */\n      tag_276\n      jumpi\n      mload(0x40)\n      shl(0xe5, 0x461bcd)\n      dup2\n      mstore\n        /* \"#utility.yul\":10367:10369   */\n      0x20\n        /* \"contracts/hundred.sol\":4914:5019  require(timeStamps[recipient] == 0 || block.timestamp >= timeStamps[recipient], \"Recipient in time lock\") */\n      0x04\n      dup3\n      add\n        /* \"#utility.yul\":10349:10370   */\n      mstore\n        /* \"#utility.yul\":10406:10408   */\n      0x16\n        /* \"#utility.yul\":10386:10404   */\n      0x24\n      dup3\n      add\n        /* \"#utility.yul\":10379:10409   */\n      mstore\n      shl(0x50, 0x526563697069656e7420696e2074696d65206c6f636b)\n        /* \"#utility.yul\":10425:10443   */\n      0x44\n      dup3\n      add\n        /* \"#utility.yul\":10418:10470   */\n      mstore\n        /* \"#utility.yul\":10487:10505   */\n      0x64\n      add\n        /* \"contracts/hundred.sol\":4914:5019  require(timeStamps[recipient] == 0 || block.timestamp >= timeStamps[recipient], \"Recipient in time lock\") */\n      tag_155\n        /* \"#utility.yul\":10165:10511   */\n      jump\n        /* \"contracts/hundred.sol\":4914:5019  require(timeStamps[recipient] == 0 || block.timestamp >= timeStamps[recipient], \"Recipient in time lock\") */\n    tag_276:\n        /* \"contracts/hundred.sol\":5054:5082  block.timestamp + lockPeriod */\n      tag_279\n        /* \"contracts/hundred.sol\":1331:1340  100 hours */\n      0x057e40\n        /* \"contracts/hundred.sol\":5054:5069  block.timestamp */\n      timestamp\n        /* \"contracts/hundred.sol\":5054:5082  block.timestamp + lockPeriod */\n      tag_167\n      jump\t// in\n    tag_279:\n      sub(shl(0xa0, 0x01), 0x01)\n        /* \"contracts/hundred.sol\":5030:5051  timeStamps[recipient] */\n      dup4\n      and\n      0x00\n      swap1\n      dup2\n      mstore\n        /* \"contracts/hundred.sol\":5030:5040  timeStamps */\n      0x08\n        /* \"contracts/hundred.sol\":5030:5051  timeStamps[recipient] */\n      0x20\n      mstore\n      0x40\n      swap1\n      keccak256\n        /* \"contracts/hundred.sol\":5030:5082  timeStamps[recipient] = block.timestamp + lockPeriod */\n      sstore\n        /* \"contracts/hundred.sol\":4796:5090  if (!excludedFromLockPeriod[recipient] && recipient != owner() && recipient != address(pancakeSwapRouter)) {... */\n    tag_274:\n        /* \"contracts/hundred.sol\":5098:5140  super._transfer(sender, recipient, amount) */\n      tag_280\n        /* \"contracts/hundred.sol\":5114:5120  sender */\n      dup4\n        /* \"contracts/hundred.sol\":5122:5131  recipient */\n      dup4\n        /* \"contracts/hundred.sol\":5133:5139  amount */\n      dup4\n        /* \"contracts/hundred.sol\":5098:5113  super._transfer */\n      tag_281\n        /* \"contracts/hundred.sol\":5098:5140  super._transfer(sender, recipient, amount) */\n      jump\t// in\n    tag_280:\n        /* \"contracts/hundred.sol\":4126:5144  function _transfer(address sender, address recipient, uint256 amount) internal override {... */\n      pop\n      pop\n      pop\n      jump\t// out\n        /* \"@openzeppelin/contracts/access/Ownable.sol\":2426:2613  function _transferOwnership(address newOwner) internal virtual {... */\n    tag_179:\n        /* \"@openzeppelin/contracts/access/Ownable.sol\":2518:2524  _owner */\n      0x05\n      dup1\n      sload\n      sub(shl(0xa0, 0x01), 0x01)\n        /* \"@openzeppelin/contracts/access/Ownable.sol\":2534:2551  _owner = newOwner */\n      dup4\n      dup2\n      and\n      not(sub(shl(0xa0, 0x01), 0x01))\n      dup4\n      and\n      dup2\n      or\n      swap1\n      swap4\n      sstore\n        /* \"@openzeppelin/contracts/access/Ownable.sol\":2566:2606  OwnershipTransferred(oldOwner, newOwner) */\n      mload(0x40)\n        /* \"@openzeppelin/contracts/access/Ownable.sol\":2518:2524  _owner */\n      swap2\n      and\n      swap2\n        /* \"@openzeppelin/contracts/access/Ownable.sol\":2534:2551  _owner = newOwner */\n      swap1\n        /* \"@openzeppelin/contracts/access/Ownable.sol\":2518:2524  _owner */\n      dup3\n      swap1\n        /* \"@openzeppelin/contracts/access/Ownable.sol\":2566:2606  OwnershipTransferred(oldOwner, newOwner) */\n      0x8be0079c531659141344cd1fd0a4f28419497f9722a3daafe3b4186f6b6457e0\n      swap1\n        /* \"@openzeppelin/contracts/access/Ownable.sol\":2499:2515  address oldOwner */\n      0x00\n      swap1\n        /* \"@openzeppelin/contracts/access/Ownable.sol\":2566:2606  OwnershipTransferred(oldOwner, newOwner) */\n      log3\n        /* \"@openzeppelin/contracts/access/Ownable.sol\":2489:2613  {... */\n      pop\n        /* \"@openzeppelin/contracts/access/Ownable.sol\":2426:2613  function _transferOwnership(address newOwner) internal virtual {... */\n      pop\n      jump\t// out\n        /* \"@openzeppelin/contracts/token/ERC20/ERC20.sol\":7456:8244  function _transfer(address from, address to, uint256 amount) internal virtual {... */\n    tag_281:\n      sub(shl(0xa0, 0x01), 0x01)\n        /* \"@openzeppelin/contracts/token/ERC20/ERC20.sol\":7552:7570  from != address(0) */\n      dup4\n      and\n        /* \"@openzeppelin/contracts/token/ERC20/ERC20.sol\":7544:7612  require(from != address(0), \"ERC20: transfer from the zero address\") */\n      tag_284\n      jumpi\n      mload(0x40)\n      shl(0xe5, 0x461bcd)\n      dup2\n      mstore\n        /* \"#utility.yul\":10718:10720   */\n      0x20\n        /* \"@openzeppelin/contracts/token/ERC20/ERC20.sol\":7544:7612  require(from != address(0), \"ERC20: transfer from the zero address\") */\n      0x04\n      dup3\n      add\n        /* \"#utility.yul\":10700:10721   */\n      mstore\n        /* \"#utility.yul\":10757:10759   */\n      0x25\n        /* \"#utility.yul\":10737:10755   */\n      0x24\n      dup3\n      add\n        /* \"#utility.yul\":10730:10760   */\n      mstore\n        /* \"#utility.yul\":10796:10830   */\n      0x45524332303a207472616e736665722066726f6d20746865207a65726f206164\n        /* \"#utility.yul\":10776:10794   */\n      0x44\n      dup3\n      add\n        /* \"#utility.yul\":10769:10831   */\n      mstore\n      shl(0xd8, 0x6472657373)\n        /* \"#utility.yul\":10847:10865   */\n      0x64\n      dup3\n      add\n        /* \"#utility.yul\":10840:10875   */\n      mstore\n        /* \"#utility.yul\":10892:10911   */\n      0x84\n      add\n        /* \"@openzeppelin/contracts/token/ERC20/ERC20.sol\":7544:7612  require(from != address(0), \"ERC20: transfer from the zero address\") */\n      tag_155\n        /* \"#utility.yul\":10516:10917   */\n      jump\n        /* \"@openzeppelin/contracts/token/ERC20/ERC20.sol\":7544:7612  require(from != address(0), \"ERC20: transfer from the zero address\") */\n    tag_284:\n      sub(shl(0xa0, 0x01), 0x01)\n        /* \"@openzeppelin/contracts/token/ERC20/ERC20.sol\":7630:7646  to != address(0) */\n      dup3\n      and\n        /* \"@openzeppelin/contracts/token/ERC20/ERC20.sol\":7622:7686  require(to != address(0), \"ERC20: transfer to the zero address\") */\n      tag_287\n      jumpi\n      mload(0x40)\n      shl(0xe5, 0x461bcd)\n      dup2\n      mstore\n        /* \"#utility.yul\":11124:11126   */\n      0x20\n        /* \"@openzeppelin/contracts/token/ERC20/ERC20.sol\":7622:7686  require(to != address(0), \"ERC20: transfer to the zero address\") */\n      0x04\n      dup3\n      add\n        /* \"#utility.yul\":11106:11127   */\n      mstore\n        /* \"#utility.yul\":11163:11165   */\n      0x23\n        /* \"#utility.yul\":11143:11161   */\n      0x24\n      dup3\n      add\n        /* \"#utility.yul\":11136:11166   */\n      mstore\n        /* \"#utility.yul\":11202:11236   */\n      0x45524332303a207472616e7366657220746f20746865207a65726f2061646472\n        /* \"#utility.yul\":11182:11200   */\n      0x44\n      dup3\n      add\n        /* \"#utility.yul\":11175:11237   */\n      mstore\n      shl(0xe8, 0x657373)\n        /* \"#utility.yul\":11253:11271   */\n      0x64\n      dup3\n      add\n        /* \"#utility.yul\":11246:11279   */\n      mstore\n        /* \"#utility.yul\":11296:11315   */\n      0x84\n      add\n        /* \"@openzeppelin/contracts/token/ERC20/ERC20.sol\":7622:7686  require(to != address(0), \"ERC20: transfer to the zero address\") */\n      tag_155\n        /* \"#utility.yul\":10922:11321   */\n      jump\n        /* \"@openzeppelin/contracts/token/ERC20/ERC20.sol\":7622:7686  require(to != address(0), \"ERC20: transfer to the zero address\") */\n    tag_287:\n      sub(shl(0xa0, 0x01), 0x01)\n        /* \"@openzeppelin/contracts/token/ERC20/ERC20.sol\":7768:7783  _balances[from] */\n      dup4\n      and\n        /* \"@openzeppelin/contracts/token/ERC20/ERC20.sol\":7746:7765  uint256 fromBalance */\n      0x00\n        /* \"@openzeppelin/contracts/token/ERC20/ERC20.sol\":7768:7783  _balances[from] */\n      swap1\n      dup2\n      mstore\n      0x20\n      dup2\n      swap1\n      mstore\n      0x40\n      swap1\n      keccak256\n      sload\n        /* \"@openzeppelin/contracts/token/ERC20/ERC20.sol\":7801:7822  fromBalance >= amount */\n      dup2\n      dup2\n      lt\n      iszero\n        /* \"@openzeppelin/contracts/token/ERC20/ERC20.sol\":7793:7865  require(fromBalance >= amount, \"ERC20: transfer amount exceeds balance\") */\n      tag_292\n      jumpi\n      mload(0x40)\n      shl(0xe5, 0x461bcd)\n      dup2\n      mstore\n        /* \"#utility.yul\":11528:11530   */\n      0x20\n        /* \"@openzeppelin/contracts/token/ERC20/ERC20.sol\":7793:7865  require(fromBalance >= amount, \"ERC20: transfer amount exceeds balance\") */\n      0x04\n      dup3\n      add\n        /* \"#utility.yul\":11510:11531   */\n      mstore\n        /* \"#utility.yul\":11567:11569   */\n      0x26\n        /* \"#utility.yul\":11547:11565   */\n      0x24\n      dup3\n      add\n        /* \"#utility.yul\":11540:11570   */\n      mstore\n        /* \"#utility.yul\":11606:11640   */\n      0x45524332303a207472616e7366657220616d6f756e7420657863656564732062\n        /* \"#utility.yul\":11586:11604   */\n      0x44\n      dup3\n      add\n        /* \"#utility.yul\":11579:11641   */\n      mstore\n      shl(0xd0, 0x616c616e6365)\n        /* \"#utility.yul\":11657:11675   */\n      0x64\n      dup3\n      add\n        /* \"#utility.yul\":11650:11686   */\n      mstore\n        /* \"#utility.yul\":11703:11722   */\n      0x84\n      add\n        /* \"@openzeppelin/contracts/token/ERC20/ERC20.sol\":7793:7865  require(fromBalance >= amount, \"ERC20: transfer amount exceeds balance\") */\n      tag_155\n        /* \"#utility.yul\":11326:11728   */\n      jump\n        /* \"@openzeppelin/contracts/token/ERC20/ERC20.sol\":7793:7865  require(fromBalance >= amount, \"ERC20: transfer amount exceeds balance\") */\n    tag_292:\n      sub(shl(0xa0, 0x01), 0x01)\n        /* \"@openzeppelin/contracts/token/ERC20/ERC20.sol\":7899:7914  _balances[from] */\n      dup5\n      dup2\n      and\n        /* \"@openzeppelin/contracts/token/ERC20/ERC20.sol\":7899:7908  _balances */\n      0x00\n        /* \"@openzeppelin/contracts/token/ERC20/ERC20.sol\":7899:7914  _balances[from] */\n      dup2\n      dup2\n      mstore\n      0x20\n      dup2\n      dup2\n      mstore\n      0x40\n      dup1\n      dup4\n      keccak256\n        /* \"@openzeppelin/contracts/token/ERC20/ERC20.sol\":7917:7937  fromBalance - amount */\n      dup8\n      dup8\n      sub\n        /* \"@openzeppelin/contracts/token/ERC20/ERC20.sol\":7899:7937  _balances[from] = fromBalance - amount */\n      swap1\n      sstore\n        /* \"@openzeppelin/contracts/token/ERC20/ERC20.sol\":8114:8127  _balances[to] */\n      swap4\n      dup8\n      and\n      dup1\n      dup4\n      mstore\n      swap2\n      dup5\n      swap1\n      keccak256\n        /* \"@openzeppelin/contracts/token/ERC20/ERC20.sol\":8114:8137  _balances[to] += amount */\n      dup1\n      sload\n      dup8\n      add\n      swap1\n      sstore\n        /* \"@openzeppelin/contracts/token/ERC20/ERC20.sol\":8163:8189  Transfer(from, to, amount) */\n      swap3\n      mload\n        /* \"#utility.yul\":1361:1386   */\n      dup6\n      dup2\n      mstore\n        /* \"@openzeppelin/contracts/token/ERC20/ERC20.sol\":8114:8127  _balances[to] */\n      swap1\n      swap3\n        /* \"@openzeppelin/contracts/token/ERC20/ERC20.sol\":8163:8189  Transfer(from, to, amount) */\n      0xddf252ad1be2c89b69c2b068fc378daa952ba7f163c4a11628f55a4df523b3ef\n      swap2\n        /* \"#utility.yul\":1334:1352   */\n      add\n        /* \"@openzeppelin/contracts/token/ERC20/ERC20.sol\":8163:8189  Transfer(from, to, amount) */\n      mload(0x40)\n      dup1\n      swap2\n      sub\n      swap1\n      log3\n        /* \"@openzeppelin/contracts/token/ERC20/ERC20.sol\":7534:8244  {... */\n      pop\n        /* \"@openzeppelin/contracts/token/ERC20/ERC20.sol\":7456:8244  function _transfer(address from, address to, uint256 amount) internal virtual {... */\n      pop\n      pop\n      pop\n      jump\t// out\n        /* \"#utility.yul\":14:562   */\n    tag_37:\n        /* \"#utility.yul\":126:130   */\n      0x00\n        /* \"#utility.yul\":155:157   */\n      0x20\n        /* \"#utility.yul\":184:186   */\n      dup1\n        /* \"#utility.yul\":173:182   */\n      dup4\n        /* \"#utility.yul\":166:187   */\n      mstore\n        /* \"#utility.yul\":216:222   */\n      dup4\n        /* \"#utility.yul\":210:223   */\n      mload\n        /* \"#utility.yul\":259:265   */\n      dup1\n        /* \"#utility.yul\":254:256   */\n      dup3\n        /* \"#utility.yul\":243:252   */\n      dup6\n        /* \"#utility.yul\":239:257   */\n      add\n        /* \"#utility.yul\":232:266   */\n      mstore\n        /* \"#utility.yul\":284:285   */\n      0x00\n        /* \"#utility.yul\":294:434   */\n    tag_304:\n        /* \"#utility.yul\":308:314   */\n      dup2\n        /* \"#utility.yul\":305:306   */\n      dup2\n        /* \"#utility.yul\":302:315   */\n      lt\n        /* \"#utility.yul\":294:434   */\n      iszero\n      tag_306\n      jumpi\n        /* \"#utility.yul\":403:417   */\n      dup6\n      dup2\n      add\n        /* \"#utility.yul\":399:422   */\n      dup4\n      add\n        /* \"#utility.yul\":393:423   */\n      mload\n        /* \"#utility.yul\":369:386   */\n      dup6\n      dup3\n      add\n        /* \"#utility.yul\":388:390   */\n      0x40\n        /* \"#utility.yul\":365:391   */\n      add\n        /* \"#utility.yul\":358:424   */\n      mstore\n        /* \"#utility.yul\":323:333   */\n      dup3\n      add\n        /* \"#utility.yul\":294:434   */\n      jump(tag_304)\n    tag_306:\n        /* \"#utility.yul\":298:301   */\n      pop\n        /* \"#utility.yul\":483:484   */\n      0x00\n        /* \"#utility.yul\":478:480   */\n      0x40\n        /* \"#utility.yul\":469:475   */\n      dup3\n        /* \"#utility.yul\":458:467   */\n      dup7\n        /* \"#utility.yul\":454:476   */\n      add\n        /* \"#utility.yul\":450:481   */\n      add\n        /* \"#utility.yul\":443:485   */\n      mstore\n        /* \"#utility.yul\":553:555   */\n      0x40\n        /* \"#utility.yul\":546:548   */\n      0x1f\n        /* \"#utility.yul\":542:549   */\n      not\n        /* \"#utility.yul\":537:539   */\n      0x1f\n        /* \"#utility.yul\":529:535   */\n      dup4\n        /* \"#utility.yul\":525:540   */\n      add\n        /* \"#utility.yul\":521:550   */\n      and\n        /* \"#utility.yul\":510:519   */\n      dup6\n        /* \"#utility.yul\":506:551   */\n      add\n        /* \"#utility.yul\":502:556   */\n      add\n        /* \"#utility.yul\":494:556   */\n      swap3\n      pop\n      pop\n      pop\n        /* \"#utility.yul\":14:562   */\n      swap3\n      swap2\n      pop\n      pop\n      jump\t// out\n        /* \"#utility.yul\":567:698   */\n    tag_300:\n      sub(shl(0xa0, 0x01), 0x01)\n        /* \"#utility.yul\":642:673   */\n      dup2\n      and\n        /* \"#utility.yul\":632:674   */\n      dup2\n      eq\n        /* \"#utility.yul\":622:692   */\n      tag_225\n      jumpi\n        /* \"#utility.yul\":688:689   */\n      0x00\n        /* \"#utility.yul\":685:686   */\n      dup1\n        /* \"#utility.yul\":678:690   */\n      revert\n        /* \"#utility.yul\":703:1018   */\n    tag_40:\n        /* \"#utility.yul\":771:777   */\n      0x00\n        /* \"#utility.yul\":779:785   */\n      dup1\n        /* \"#utility.yul\":832:834   */\n      0x40\n        /* \"#utility.yul\":820:829   */\n      dup4\n        /* \"#utility.yul\":811:818   */\n      dup6\n        /* \"#utility.yul\":807:830   */\n      sub\n        /* \"#utility.yul\":803:835   */\n      slt\n        /* \"#utility.yul\":800:852   */\n      iszero\n      tag_310\n      jumpi\n        /* \"#utility.yul\":848:849   */\n      0x00\n        /* \"#utility.yul\":845:846   */\n      dup1\n        /* \"#utility.yul\":838:850   */\n      revert\n        /* \"#utility.yul\":800:852   */\n    tag_310:\n        /* \"#utility.yul\":887:896   */\n      dup3\n        /* \"#utility.yul\":874:897   */\n      calldataload\n        /* \"#utility.yul\":906:937   */\n      tag_311\n        /* \"#utility.yul\":931:936   */\n      dup2\n        /* \"#utility.yul\":906:937   */\n      tag_300\n      jump\t// in\n    tag_311:\n        /* \"#utility.yul\":956:961   */\n      swap5\n        /* \"#utility.yul\":1008:1010   */\n      0x20\n        /* \"#utility.yul\":993:1011   */\n      swap4\n      swap1\n      swap4\n      add\n        /* \"#utility.yul\":980:1012   */\n      calldataload\n      swap4\n      pop\n      pop\n      pop\n        /* \"#utility.yul\":703:1018   */\n      jump\t// out\n        /* \"#utility.yul\":1397:1644   */\n    tag_50:\n        /* \"#utility.yul\":1456:1462   */\n      0x00\n        /* \"#utility.yul\":1509:1511   */\n      0x20\n        /* \"#utility.yul\":1497:1506   */\n      dup3\n        /* \"#utility.yul\":1488:1495   */\n      dup5\n        /* \"#utility.yul\":1484:1507   */\n      sub\n        /* \"#utility.yul\":1480:1512   */\n      slt\n        /* \"#utility.yul\":1477:1529   */\n      iszero\n      tag_315\n      jumpi\n        /* \"#utility.yul\":1525:1526   */\n      0x00\n        /* \"#utility.yul\":1522:1523   */\n      dup1\n        /* \"#utility.yul\":1515:1527   */\n      revert\n        /* \"#utility.yul\":1477:1529   */\n    tag_315:\n        /* \"#utility.yul\":1564:1573   */\n      dup2\n        /* \"#utility.yul\":1551:1574   */\n      calldataload\n        /* \"#utility.yul\":1583:1614   */\n      tag_316\n        /* \"#utility.yul\":1608:1613   */\n      dup2\n        /* \"#utility.yul\":1583:1614   */\n      tag_300\n      jump\t// in\n    tag_316:\n        /* \"#utility.yul\":1633:1638   */\n      swap4\n        /* \"#utility.yul\":1397:1644   */\n      swap3\n      pop\n      pop\n      pop\n      jump\t// out\n        /* \"#utility.yul\":1649:2105   */\n    tag_54:\n        /* \"#utility.yul\":1726:1732   */\n      0x00\n        /* \"#utility.yul\":1734:1740   */\n      dup1\n        /* \"#utility.yul\":1742:1748   */\n      0x00\n        /* \"#utility.yul\":1795:1797   */\n      0x60\n        /* \"#utility.yul\":1783:1792   */\n      dup5\n        /* \"#utility.yul\":1774:1781   */\n      dup7\n        /* \"#utility.yul\":1770:1793   */\n      sub\n        /* \"#utility.yul\":1766:1798   */\n      slt\n        /* \"#utility.yul\":1763:1815   */\n      iszero\n      tag_318\n      jumpi\n        /* \"#utility.yul\":1811:1812   */\n      0x00\n        /* \"#utility.yul\":1808:1809   */\n      dup1\n        /* \"#utility.yul\":1801:1813   */\n      revert\n        /* \"#utility.yul\":1763:1815   */\n    tag_318:\n        /* \"#utility.yul\":1850:1859   */\n      dup4\n        /* \"#utility.yul\":1837:1860   */\n      calldataload\n        /* \"#utility.yul\":1869:1900   */\n      tag_319\n        /* \"#utility.yul\":1894:1899   */\n      dup2\n        /* \"#utility.yul\":1869:1900   */\n      tag_300\n      jump\t// in\n    tag_319:\n        /* \"#utility.yul\":1919:1924   */\n      swap3\n      pop\n        /* \"#utility.yul\":1976:1978   */\n      0x20\n        /* \"#utility.yul\":1961:1979   */\n      dup5\n      add\n        /* \"#utility.yul\":1948:1980   */\n      calldataload\n        /* \"#utility.yul\":1989:2022   */\n      tag_320\n        /* \"#utility.yul\":1948:1980   */\n      dup2\n        /* \"#utility.yul\":1989:2022   */\n      tag_300\n      jump\t// in\n    tag_320:\n        /* \"#utility.yul\":1649:2105   */\n      swap3\n      swap6\n        /* \"#utility.yul\":2041:2048   */\n      swap3\n      swap5\n      pop\n      pop\n      pop\n        /* \"#utility.yul\":2095:2097   */\n      0x40\n        /* \"#utility.yul\":2080:2098   */\n      swap2\n      swap1\n      swap2\n      add\n        /* \"#utility.yul\":2067:2099   */\n      calldataload\n      swap1\n        /* \"#utility.yul\":1649:2105   */\n      jump\t// out\n        /* \"#utility.yul\":2745:3133   */\n    tag_117:\n        /* \"#utility.yul\":2813:2819   */\n      0x00\n        /* \"#utility.yul\":2821:2827   */\n      dup1\n        /* \"#utility.yul\":2874:2876   */\n      0x40\n        /* \"#utility.yul\":2862:2871   */\n      dup4\n        /* \"#utility.yul\":2853:2860   */\n      dup6\n        /* \"#utility.yul\":2849:2872   */\n      sub\n        /* \"#utility.yul\":2845:2877   */\n      slt\n        /* \"#utility.yul\":2842:2894   */\n      iszero\n      tag_325\n      jumpi\n        /* \"#utility.yul\":2890:2891   */\n      0x00\n        /* \"#utility.yul\":2887:2888   */\n      dup1\n        /* \"#utility.yul\":2880:2892   */\n      revert\n        /* \"#utility.yul\":2842:2894   */\n    tag_325:\n        /* \"#utility.yul\":2929:2938   */\n      dup3\n        /* \"#utility.yul\":2916:2939   */\n      calldataload\n        /* \"#utility.yul\":2948:2979   */\n      tag_326\n        /* \"#utility.yul\":2973:2978   */\n      dup2\n        /* \"#utility.yul\":2948:2979   */\n      tag_300\n      jump\t// in\n    tag_326:\n        /* \"#utility.yul\":2998:3003   */\n      swap2\n      pop\n        /* \"#utility.yul\":3055:3057   */\n      0x20\n        /* \"#utility.yul\":3040:3058   */\n      dup4\n      add\n        /* \"#utility.yul\":3027:3059   */\n      calldataload\n        /* \"#utility.yul\":3068:3101   */\n      tag_327\n        /* \"#utility.yul\":3027:3059   */\n      dup2\n        /* \"#utility.yul\":3068:3101   */\n      tag_300\n      jump\t// in\n    tag_327:\n        /* \"#utility.yul\":3120:3127   */\n      dup1\n        /* \"#utility.yul\":3110:3127   */\n      swap2\n      pop\n      pop\n        /* \"#utility.yul\":2745:3133   */\n      swap3\n      pop\n      swap3\n      swap1\n      pop\n      jump\t// out\n        /* \"#utility.yul\":3138:3518   */\n    tag_134:\n        /* \"#utility.yul\":3217:3218   */\n      0x01\n        /* \"#utility.yul\":3213:3225   */\n      dup2\n      dup2\n      shr\n      swap1\n        /* \"#utility.yul\":3260:3272   */\n      dup3\n      and\n      dup1\n        /* \"#utility.yul\":3281:3342   */\n      tag_329\n      jumpi\n        /* \"#utility.yul\":3335:3339   */\n      0x7f\n        /* \"#utility.yul\":3327:3333   */\n      dup3\n        /* \"#utility.yul\":3323:3340   */\n      and\n        /* \"#utility.yul\":3313:3340   */\n      swap2\n      pop\n        /* \"#utility.yul\":3281:3342   */\n    tag_329:\n        /* \"#utility.yul\":3388:3390   */\n      0x20\n        /* \"#utility.yul\":3380:3386   */\n      dup3\n        /* \"#utility.yul\":3377:3391   */\n      lt\n        /* \"#utility.yul\":3357:3375   */\n      dup2\n        /* \"#utility.yul\":3354:3392   */\n      sub\n        /* \"#utility.yul\":3351:3512   */\n      tag_330\n      jumpi\n        /* \"#utility.yul\":3434:3444   */\n      0x4e487b71\n        /* \"#utility.yul\":3429:3432   */\n      0xe0\n        /* \"#utility.yul\":3425:3445   */\n      shl\n        /* \"#utility.yul\":3422:3423   */\n      0x00\n        /* \"#utility.yul\":3415:3446   */\n      mstore\n        /* \"#utility.yul\":3469:3473   */\n      0x22\n        /* \"#utility.yul\":3466:3467   */\n      0x04\n        /* \"#utility.yul\":3459:3474   */\n      mstore\n        /* \"#utility.yul\":3497:3501   */\n      0x24\n        /* \"#utility.yul\":3494:3495   */\n      0x00\n        /* \"#utility.yul\":3487:3502   */\n      revert\n        /* \"#utility.yul\":3351:3512   */\n    tag_330:\n      pop\n        /* \"#utility.yul\":3138:3518   */\n      swap2\n      swap1\n      pop\n      jump\t// out\n        /* \"#utility.yul\":3932:4059   */\n    tag_301:\n        /* \"#utility.yul\":3993:4003   */\n      0x4e487b71\n        /* \"#utility.yul\":3988:3991   */\n      0xe0\n        /* \"#utility.yul\":3984:4004   */\n      shl\n        /* \"#utility.yul\":3981:3982   */\n      0x00\n        /* \"#utility.yul\":3974:4005   */\n      mstore\n        /* \"#utility.yul\":4024:4028   */\n      0x11\n        /* \"#utility.yul\":4021:4022   */\n      0x04\n        /* \"#utility.yul\":4014:4029   */\n      mstore\n        /* \"#utility.yul\":4048:4052   */\n      0x24\n        /* \"#utility.yul\":4045:4046   */\n      0x00\n        /* \"#utility.yul\":4038:4053   */\n      revert\n        /* \"#utility.yul\":4064:4192   */\n    tag_160:\n        /* \"#utility.yul\":4131:4140   */\n      dup2\n      dup2\n      sub\n        /* \"#utility.yul\":4152:4163   */\n      dup2\n      dup2\n      gt\n        /* \"#utility.yul\":4149:4186   */\n      iszero\n      tag_139\n      jumpi\n        /* \"#utility.yul\":4166:4184   */\n      tag_139\n      tag_301\n      jump\t// in\n        /* \"#utility.yul\":4197:4322   */\n    tag_167:\n        /* \"#utility.yul\":4262:4271   */\n      dup1\n      dup3\n      add\n        /* \"#utility.yul\":4283:4293   */\n      dup1\n      dup3\n      gt\n        /* \"#utility.yul\":4280:4316   */\n      iszero\n      tag_139\n      jumpi\n        /* \"#utility.yul\":4296:4314   */\n      tag_139\n      tag_301\n      jump\t// in\n        /* \"#utility.yul\":5502:5753   */\n    tag_207:\n        /* \"#utility.yul\":5572:5578   */\n      0x00\n        /* \"#utility.yul\":5625:5627   */\n      0x20\n        /* \"#utility.yul\":5613:5622   */\n      dup3\n        /* \"#utility.yul\":5604:5611   */\n      dup5\n        /* \"#utility.yul\":5600:5623   */\n      sub\n        /* \"#utility.yul\":5596:5628   */\n      slt\n        /* \"#utility.yul\":5593:5645   */\n      iszero\n      tag_343\n      jumpi\n        /* \"#utility.yul\":5641:5642   */\n      0x00\n        /* \"#utility.yul\":5638:5639   */\n      dup1\n        /* \"#utility.yul\":5631:5643   */\n      revert\n        /* \"#utility.yul\":5593:5645   */\n    tag_343:\n        /* \"#utility.yul\":5673:5682   */\n      dup2\n        /* \"#utility.yul\":5667:5683   */\n      mload\n        /* \"#utility.yul\":5692:5723   */\n      tag_316\n        /* \"#utility.yul\":5717:5722   */\n      dup2\n        /* \"#utility.yul\":5692:5723   */\n      tag_300\n      jump\t// in\n\n    auxdata: 0xa2646970667358221220601d33d79632e0b5afdb9ced779d14299cd8934366a4a8a5716f7afe3cfdac4464736f6c63430008120033\n}\n",
				"bytecode": {
					"linkReferences": {},
					"object": "60806040523480156200001157600080fd5b5060405162001947380380620019478339810160408190526200003491620003d8565b6040805180820182526007808252661215539114915160ca1b6020808401829052845180860190955291845290830152906003620000738382620004ae565b506004620000828282620004ae565b5050506200009f62000099620002b760201b60201c565b620002bb565b620000b8336c0146593deb0d429807880000006200030d565b600780546001600160a01b0319166001600160a01b0383169081179091556040805163c45a015560e01b8152905183929163c45a01559160048083019260209291908290030181865afa15801562000114573d6000803e3d6000fd5b505050506040513d601f19601f820116820180604052508101906200013a9190620003d8565b6001600160a01b031663c9c6539630836001600160a01b031663ad5c46486040518163ffffffff1660e01b8152600401602060405180830381865afa15801562000188573d6000803e3d6000fd5b505050506040513d601f19601f82011682018060405250810190620001ae9190620003d8565b6040516001600160e01b031960e085901b1681526001600160a01b039283166004820152911660248201526044016020604051808303816000875af1158015620001fc573d6000803e3d6000fd5b505050506040513d601f19601f82011682018060405250810190620002229190620003d8565b600680546001600160a01b0319166001600160a01b0392831617905533600081815260096020526040808220805460ff1990811660019081179092556007549095168352818320805490951617909355915190916000805160206200192783398151915291a26007546040516001600160a01b03909116906000805160206200192783398151915290600090a25050620005a2565b3390565b600580546001600160a01b038381166001600160a01b0319831681179093556040519116919082907f8be0079c531659141344cd1fd0a4f28419497f9722a3daafe3b4186f6b6457e090600090a35050565b6001600160a01b038216620003685760405162461bcd60e51b815260206004820152601f60248201527f45524332303a206d696e7420746f20746865207a65726f206164647265737300604482015260640160405180910390fd5b80600260008282546200037c91906200057a565b90915550506001600160a01b038216600081815260208181526040808320805486019055518481527fddf252ad1be2c89b69c2b068fc378daa952ba7f163c4a11628f55a4df523b3ef910160405180910390a35050565b505050565b600060208284031215620003eb57600080fd5b81516001600160a01b03811681146200040357600080fd5b9392505050565b634e487b7160e01b600052604160045260246000fd5b600181811c908216806200043557607f821691505b6020821081036200045657634e487b7160e01b600052602260045260246000fd5b50919050565b601f821115620003d357600081815260208120601f850160051c81016020861015620004855750805b601f850160051c820191505b81811015620004a65782815560010162000491565b505050505050565b81516001600160401b03811115620004ca57620004ca6200040a565b620004e281620004db845462000420565b846200045c565b602080601f8311600181146200051a5760008415620005015750858301515b600019600386901b1c1916600185901b178555620004a6565b600085815260208120601f198616915b828110156200054b578886015182559484019460019091019084016200052a565b50858210156200056a5787850151600019600388901b60f8161c191681555b5050505050600190811b01905550565b808201808211156200059c57634e487b7160e01b600052601160045260246000fd5b92915050565b61137580620005b26000396000f3fe608060405234801561001057600080fd5b506004361061018e5760003560e01c8063715018a6116100de578063dbac26e911610097578063eafb5a3c11610071578063eafb5a3c14610397578063f2fde38b146103aa578063f3290d75146103bd578063fdf3dd9c146103d057600080fd5b8063dbac26e91461033e578063dd2c6c1314610361578063dd62ed3e1461038457600080fd5b8063715018a6146102d75780638da5cb5b146102df57806395d89b41146102f0578063a457c2d7146102f8578063a9059cbb1461030b578063c831f6061461031e57600080fd5b80633078381c1161014b5780633fd8b02f116101255780633fd8b02f1461027e578063429494f21461028857806345e349491461029b57806370a08231146102ae57600080fd5b80633078381c14610239578063313ce5671461025c578063395093511461026b57600080fd5b806306fdde0314610193578063095ea7b3146101b157806318160ddd146101d4578063227b453f146101e657806323b872dd146101fb578063245589951461020e575b600080fd5b61019b6103e3565b6040516101a8919061117f565b60405180910390f35b6101c46101bf3660046111e2565b610475565b60405190151581526020016101a8565b6002545b6040519081526020016101a8565b6101f96101f436600461120e565b61048f565b005b6101c4610209366004611232565b6104b8565b600754610221906001600160a01b031681565b6040516001600160a01b0390911681526020016101a8565b6101c461024736600461120e565b60096020526000908152604090205460ff1681565b604051601281526020016101a8565b6101c46102793660046111e2565b610558565b6101d862057e4081565b600654610221906001600160a01b031681565b6101f96102a936600461120e565b610575565b6101d86102bc36600461120e565b6001600160a01b031660009081526020819052604090205490565b6101f961062e565b6005546001600160a01b0316610221565b61019b610642565b6101c46103063660046111e2565b610651565b6101c46103193660046111e2565b6106cc565b6101d861032c36600461120e565b60086020526000908152604090205481565b6101c461034c36600461120e565b600b6020526000908152604090205460ff1681565b6101c461036f36600461120e565b600a6020526000908152604090205460ff1681565b6101d8610392366004611273565b6106da565b6101f96103a536600461120e565b610705565b6101f96103b836600461120e565b61094a565b6101f96103cb36600461120e565b6109c3565b6101f96103de36600461120e565b610a80565b6060600380546103f2906112ac565b80601f016020809104026020016040519081016040528092919081815260200182805461041e906112ac565b801561046b5780601f106104405761010080835404028352916020019161046b565b820191906000526020600020905b81548152906001019060200180831161044e57829003601f168201915b5050505050905090565b600033610483818585610aac565b60019150505b92915050565b610497610bd0565b6001600160a01b03166000908152600960205260409020805460ff19169055565b60006104c5848484610c2a565b60006104d185336106da565b9050828110156105395760405162461bcd60e51b815260206004820152602860248201527f45524332303a207472616e7366657220616d6f756e74206578636565647320616044820152676c6c6f77616e636560c01b60648201526084015b60405180910390fd5b61054d853361054886856112fc565b610aac565b506001949350505050565b60003361048381858561056b83836106da565b610548919061130f565b61057d610bd0565b6001600160a01b0381166000908152600b602052604090205460ff166105e55760405162461bcd60e51b815260206004820152601a60248201527f41646472657373206973206e6f7420626c61636b6c69737465640000000000006044820152606401610530565b6001600160a01b0381166000818152600b6020526040808220805460ff19169055517f7534c63860313c46c473e4e98328f37017e9674e2162faf1a3ad7a96236c3b7b9190a250565b610636610bd0565b6106406000610f88565b565b6060600480546103f2906112ac565b6000338161065f82866106da565b9050838110156106bf5760405162461bcd60e51b815260206004820152602560248201527f45524332303a2064656372656173656420616c6c6f77616e63652062656c6f77604482015264207a65726f60d81b6064820152608401610530565b61054d8286868403610aac565b600033610483818585610c2a565b6001600160a01b03918216600090815260016020908152604080832093909416825291909152205490565b61070d610bd0565b6001600160a01b0381166107795760405162461bcd60e51b815260206004820152602d60248201527f4e657720726f7574657220616464726573732063616e6e6f742062652074686560448201526c207a65726f206164647265737360981b6064820152608401610530565b60008190506000816001600160a01b031663c45a01556040518163ffffffff1660e01b8152600401602060405180830381865afa1580156107be573d6000803e3d6000fd5b505050506040513d601f19601f820116820180604052508101906107e29190611322565b6001600160a01b031663c9c6539630846001600160a01b031663ad5c46486040518163ffffffff1660e01b8152600401602060405180830381865afa15801561082f573d6000803e3d6000fd5b505050506040513d601f19601f820116820180604052508101906108539190611322565b6040516001600160e01b031960e085901b1681526001600160a01b039283166004820152911660248201526044016020604051808303816000875af11580156108a0573d6000803e3d6000fd5b505050506040513d601f19601f820116820180604052508101906108c49190611322565b90506001600160a01b0381166109115760405162461bcd60e51b815260206004820152601260248201527113995dc81c185a5c881b9bdd08199bdd5b9960721b6044820152606401610530565b600780546001600160a01b0319166001600160a01b03938416179055166000908152600a60205260409020805460ff1916600117905550565b610952610bd0565b6001600160a01b0381166109b75760405162461bcd60e51b815260206004820152602660248201527f4f776e61626c653a206e6577206f776e657220697320746865207a65726f206160448201526564647265737360d01b6064820152608401610530565b6109c081610f88565b50565b6109cb610bd0565b6001600160a01b0381166000908152600b602052604090205460ff1615610a345760405162461bcd60e51b815260206004820152601e60248201527f4164647265737320697320616c726561647920626c61636b6c697374656400006044820152606401610530565b6001600160a01b0381166000818152600b6020526040808220805460ff19166001179055517fffa4e6181777692565cf28528fc88fd1516ea86b56da075235fa575af6a4b8559190a250565b610a88610bd0565b6001600160a01b03166000908152600960205260409020805460ff19166001179055565b6001600160a01b038316610b0e5760405162461bcd60e51b8152602060048201526024808201527f45524332303a20617070726f76652066726f6d20746865207a65726f206164646044820152637265737360e01b6064820152608401610530565b6001600160a01b038216610b6f5760405162461bcd60e51b815260206004820152602260248201527f45524332303a20617070726f766520746f20746865207a65726f206164647265604482015261737360f01b6064820152608401610530565b6001600160a01b0383811660008181526001602090815260408083209487168084529482529182902085905590518481527f8c5be1e5ebec7d5bd14f71427d1e84f3dd0314c0f7b2291e5b200ac8c7c3b925910160405180910390a3505050565b6005546001600160a01b031633146106405760405162461bcd60e51b815260206004820181905260248201527f4f776e61626c653a2063616c6c6572206973206e6f7420746865206f776e65726044820152606401610530565b6001600160a01b0383166000908152600b602052604090205460ff1615610c8b5760405162461bcd60e51b815260206004820152601560248201527414d95b99195c881a5cc8189b1858dadb1a5cdd1959605a1b6044820152606401610530565b6001600160a01b0382166000908152600b602052604090205460ff1615610cf45760405162461bcd60e51b815260206004820152601860248201527f526563697069656e7420697320626c61636b6c697374656400000000000000006044820152606401610530565b60008111610d565760405162461bcd60e51b815260206004820152602960248201527f5472616e7366657220616d6f756e74206d7573742062652067726561746572206044820152687468616e207a65726f60b81b6064820152608401610530565b80610d76846001600160a01b031660009081526020819052604090205490565b1015610dbb5760405162461bcd60e51b8152602060048201526014602482015273496e73756666696369656e742062616c616e636560601b6044820152606401610530565b6001600160a01b03831660009081526009602052604090205460ff16158015610df257506005546001600160a01b03848116911614155b8015610e0c57506007546001600160a01b03848116911614155b15610e79576001600160a01b038316600090815260086020526040902054421015610e795760405162461bcd60e51b815260206004820152601960248201527f54696d65206c6f636b206973207374696c6c20616374697665000000000000006044820152606401610530565b6001600160a01b03821660009081526009602052604090205460ff16158015610eb057506005546001600160a01b03838116911614155b8015610eca57506007546001600160a01b03838116911614155b15610f78576001600160a01b0382166000908152600860205260409020541580610f0c57506001600160a01b0382166000908152600860205260409020544210155b610f515760405162461bcd60e51b8152602060048201526016602482015275526563697069656e7420696e2074696d65206c6f636b60501b6044820152606401610530565b610f5e62057e404261130f565b6001600160a01b0383166000908152600860205260409020555b610f83838383610fda565b505050565b600580546001600160a01b038381166001600160a01b0319831681179093556040519116919082907f8be0079c531659141344cd1fd0a4f28419497f9722a3daafe3b4186f6b6457e090600090a35050565b6001600160a01b03831661103e5760405162461bcd60e51b815260206004820152602560248201527f45524332303a207472616e736665722066726f6d20746865207a65726f206164604482015264647265737360d81b6064820152608401610530565b6001600160a01b0382166110a05760405162461bcd60e51b815260206004820152602360248201527f45524332303a207472616e7366657220746f20746865207a65726f206164647260448201526265737360e81b6064820152608401610530565b6001600160a01b038316600090815260208190526040902054818110156111185760405162461bcd60e51b815260206004820152602660248201527f45524332303a207472616e7366657220616d6f756e7420657863656564732062604482015265616c616e636560d01b6064820152608401610530565b6001600160a01b03848116600081815260208181526040808320878703905593871680835291849020805487019055925185815290927fddf252ad1be2c89b69c2b068fc378daa952ba7f163c4a11628f55a4df523b3ef910160405180910390a350505050565b600060208083528351808285015260005b818110156111ac57858101830151858201604001528201611190565b506000604082860101526040601f19601f8301168501019250505092915050565b6001600160a01b03811681146109c057600080fd5b600080604083850312156111f557600080fd5b8235611200816111cd565b946020939093013593505050565b60006020828403121561122057600080fd5b813561122b816111cd565b9392505050565b60008060006060848603121561124757600080fd5b8335611252816111cd565b92506020840135611262816111cd565b929592945050506040919091013590565b6000806040838503121561128657600080fd5b8235611291816111cd565b915060208301356112a1816111cd565b809150509250929050565b600181811c908216806112c057607f821691505b6020821081036112e057634e487b7160e01b600052602260045260246000fd5b50919050565b634e487b7160e01b600052601160045260246000fd5b81810381811115610489576104896112e6565b80820180821115610489576104896112e6565b60006020828403121561133457600080fd5b815161122b816111cd56fea2646970667358221220601d33d79632e0b5afdb9ced779d14299cd8934366a4a8a5716f7afe3cfdac4464736f6c63430008120033c93bc17a700271bf59796cbfa01b47b8b95654209793470e3cdbadf87465a843",
					"opcodes": "PUSH1 0x80 PUSH1 0x40 MSTORE CALLVALUE DUP1 ISZERO PUSH3 0x11 JUMPI PUSH1 0x0 DUP1 REVERT JUMPDEST POP PUSH1 0x40 MLOAD PUSH3 0x1947 CODESIZE SUB DUP1 PUSH3 0x1947 DUP4 CODECOPY DUP2 ADD PUSH1 0x40 DUP2 SWAP1 MSTORE PUSH3 0x34 SWAP2 PUSH3 0x3D8 JUMP JUMPDEST PUSH1 0x40 DUP1 MLOAD DUP1 DUP3 ADD DUP3 MSTORE PUSH1 0x7 DUP1 DUP3 MSTORE PUSH7 0x12155391149151 PUSH1 0xCA SHL PUSH1 0x20 DUP1 DUP5 ADD DUP3 SWAP1 MSTORE DUP5 MLOAD DUP1 DUP7 ADD SWAP1 SWAP6 MSTORE SWAP2 DUP5 MSTORE SWAP1 DUP4 ADD MSTORE SWAP1 PUSH1 0x3 PUSH3 0x73 DUP4 DUP3 PUSH3 0x4AE JUMP JUMPDEST POP PUSH1 0x4 PUSH3 0x82 DUP3 DUP3 PUSH3 0x4AE JUMP JUMPDEST POP POP POP PUSH3 0x9F PUSH3 0x99 PUSH3 0x2B7 PUSH1 0x20 SHL PUSH1 0x20 SHR JUMP JUMPDEST PUSH3 0x2BB JUMP JUMPDEST PUSH3 0xB8 CALLER PUSH13 0x146593DEB0D42980788000000 PUSH3 0x30D JUMP JUMPDEST PUSH1 0x7 DUP1 SLOAD PUSH1 0x1 PUSH1 0x1 PUSH1 0xA0 SHL SUB NOT AND PUSH1 0x1 PUSH1 0x1 PUSH1 0xA0 SHL SUB DUP4 AND SWAP1 DUP2 OR SWAP1 SWAP2 SSTORE PUSH1 0x40 DUP1 MLOAD PUSH4 0xC45A0155 PUSH1 0xE0 SHL DUP2 MSTORE SWAP1 MLOAD DUP4 SWAP3 SWAP2 PUSH4 0xC45A0155 SWAP2 PUSH1 0x4 DUP1 DUP4 ADD SWAP3 PUSH1 0x20 SWAP3 SWAP2 SWAP1 DUP3 SWAP1 SUB ADD DUP2 DUP7 GAS STATICCALL ISZERO DUP1 ISZERO PUSH3 0x114 JUMPI RETURNDATASIZE PUSH1 0x0 DUP1 RETURNDATACOPY RETURNDATASIZE PUSH1 0x0 REVERT JUMPDEST POP POP POP POP PUSH1 0x40 MLOAD RETURNDATASIZE PUSH1 0x1F NOT PUSH1 0x1F DUP3 ADD AND DUP3 ADD DUP1 PUSH1 0x40 MSTORE POP DUP2 ADD SWAP1 PUSH3 0x13A SWAP2 SWAP1 PUSH3 0x3D8 JUMP JUMPDEST PUSH1 0x1 PUSH1 0x1 PUSH1 0xA0 SHL SUB AND PUSH4 0xC9C65396 ADDRESS DUP4 PUSH1 0x1 PUSH1 0x1 PUSH1 0xA0 SHL SUB AND PUSH4 0xAD5C4648 PUSH1 0x40 MLOAD DUP2 PUSH4 0xFFFFFFFF AND PUSH1 0xE0 SHL DUP2 MSTORE PUSH1 0x4 ADD PUSH1 0x20 PUSH1 0x40 MLOAD DUP1 DUP4 SUB DUP2 DUP7 GAS STATICCALL ISZERO DUP1 ISZERO PUSH3 0x188 JUMPI RETURNDATASIZE PUSH1 0x0 DUP1 RETURNDATACOPY RETURNDATASIZE PUSH1 0x0 REVERT JUMPDEST POP POP POP POP PUSH1 0x40 MLOAD RETURNDATASIZE PUSH1 0x1F NOT PUSH1 0x1F DUP3 ADD AND DUP3 ADD DUP1 PUSH1 0x40 MSTORE POP DUP2 ADD SWAP1 PUSH3 0x1AE SWAP2 SWAP1 PUSH3 0x3D8 JUMP JUMPDEST PUSH1 0x40 MLOAD PUSH1 0x1 PUSH1 0x1 PUSH1 0xE0 SHL SUB NOT PUSH1 0xE0 DUP6 SWAP1 SHL AND DUP2 MSTORE PUSH1 0x1 PUSH1 0x1 PUSH1 0xA0 SHL SUB SWAP3 DUP4 AND PUSH1 0x4 DUP3 ADD MSTORE SWAP2 AND PUSH1 0x24 DUP3 ADD MSTORE PUSH1 0x44 ADD PUSH1 0x20 PUSH1 0x40 MLOAD DUP1 DUP4 SUB DUP2 PUSH1 0x0 DUP8 GAS CALL ISZERO DUP1 ISZERO PUSH3 0x1FC JUMPI RETURNDATASIZE PUSH1 0x0 DUP1 RETURNDATACOPY RETURNDATASIZE PUSH1 0x0 REVERT JUMPDEST POP POP POP POP PUSH1 0x40 MLOAD RETURNDATASIZE PUSH1 0x1F NOT PUSH1 0x1F DUP3 ADD AND DUP3 ADD DUP1 PUSH1 0x40 MSTORE POP DUP2 ADD SWAP1 PUSH3 0x222 SWAP2 SWAP1 PUSH3 0x3D8 JUMP JUMPDEST PUSH1 0x6 DUP1 SLOAD PUSH1 0x1 PUSH1 0x1 PUSH1 0xA0 SHL SUB NOT AND PUSH1 0x1 PUSH1 0x1 PUSH1 0xA0 SHL SUB SWAP3 DUP4 AND OR SWAP1 SSTORE CALLER PUSH1 0x0 DUP2 DUP2 MSTORE PUSH1 0x9 PUSH1 0x20 MSTORE PUSH1 0x40 DUP1 DUP3 KECCAK256 DUP1 SLOAD PUSH1 0xFF NOT SWAP1 DUP2 AND PUSH1 0x1 SWAP1 DUP2 OR SWAP1 SWAP3 SSTORE PUSH1 0x7 SLOAD SWAP1 SWAP6 AND DUP4 MSTORE DUP2 DUP4 KECCAK256 DUP1 SLOAD SWAP1 SWAP6 AND OR SWAP1 SWAP4 SSTORE SWAP2 MLOAD SWAP1 SWAP2 PUSH1 0x0 DUP1 MLOAD PUSH1 0x20 PUSH3 0x1927 DUP4 CODECOPY DUP2 MLOAD SWAP2 MSTORE SWAP2 LOG2 PUSH1 0x7 SLOAD PUSH1 0x40 MLOAD PUSH1 0x1 PUSH1 0x1 PUSH1 0xA0 SHL SUB SWAP1 SWAP2 AND SWAP1 PUSH1 0x0 DUP1 MLOAD PUSH1 0x20 PUSH3 0x1927 DUP4 CODECOPY DUP2 MLOAD SWAP2 MSTORE SWAP1 PUSH1 0x0 SWAP1 LOG2 POP POP PUSH3 0x5A2 JUMP JUMPDEST CALLER SWAP1 JUMP JUMPDEST PUSH1 0x5 DUP1 SLOAD PUSH1 0x1 PUSH1 0x1 PUSH1 0xA0 SHL SUB DUP4 DUP2 AND PUSH1 0x1 PUSH1 0x1 PUSH1 0xA0 SHL SUB NOT DUP4 AND DUP2 OR SWAP1 SWAP4 SSTORE PUSH1 0x40 MLOAD SWAP2 AND SWAP2 SWAP1 DUP3 SWAP1 PUSH32 0x8BE0079C531659141344CD1FD0A4F28419497F9722A3DAAFE3B4186F6B6457E0 SWAP1 PUSH1 0x0 SWAP1 LOG3 POP POP JUMP JUMPDEST PUSH1 0x1 PUSH1 0x1 PUSH1 0xA0 SHL SUB DUP3 AND PUSH3 0x368 JUMPI PUSH1 0x40 MLOAD PUSH3 0x461BCD PUSH1 0xE5 SHL DUP2 MSTORE PUSH1 0x20 PUSH1 0x4 DUP3 ADD MSTORE PUSH1 0x1F PUSH1 0x24 DUP3 ADD MSTORE PUSH32 0x45524332303A206D696E7420746F20746865207A65726F206164647265737300 PUSH1 0x44 DUP3 ADD MSTORE PUSH1 0x64 ADD PUSH1 0x40 MLOAD DUP1 SWAP2 SUB SWAP1 REVERT JUMPDEST DUP1 PUSH1 0x2 PUSH1 0x0 DUP3 DUP3 SLOAD PUSH3 0x37C SWAP2 SWAP1 PUSH3 0x57A JUMP JUMPDEST SWAP1 SWAP2 SSTORE POP POP PUSH1 0x1 PUSH1 0x1 PUSH1 0xA0 SHL SUB DUP3 AND PUSH1 0x0 DUP2 DUP2 MSTORE PUSH1 0x20 DUP2 DUP2 MSTORE PUSH1 0x40 DUP1 DUP4 KECCAK256 DUP1 SLOAD DUP7 ADD SWAP1 SSTORE MLOAD DUP5 DUP2 MSTORE PUSH32 0xDDF252AD1BE2C89B69C2B068FC378DAA952BA7F163C4A11628F55A4DF523B3EF SWAP2 ADD PUSH1 0x40 MLOAD DUP1 SWAP2 SUB SWAP1 LOG3 POP POP JUMP JUMPDEST POP POP POP JUMP JUMPDEST PUSH1 0x0 PUSH1 0x20 DUP3 DUP5 SUB SLT ISZERO PUSH3 0x3EB JUMPI PUSH1 0x0 DUP1 REVERT JUMPDEST DUP2 MLOAD PUSH1 0x1 PUSH1 0x1 PUSH1 0xA0 SHL SUB DUP2 AND DUP2 EQ PUSH3 0x403 JUMPI PUSH1 0x0 DUP1 REVERT JUMPDEST SWAP4 SWAP3 POP POP POP JUMP JUMPDEST PUSH4 0x4E487B71 PUSH1 0xE0 SHL PUSH1 0x0 MSTORE PUSH1 0x41 PUSH1 0x4 MSTORE PUSH1 0x24 PUSH1 0x0 REVERT JUMPDEST PUSH1 0x1 DUP2 DUP2 SHR SWAP1 DUP3 AND DUP1 PUSH3 0x435 JUMPI PUSH1 0x7F DUP3 AND SWAP2 POP JUMPDEST PUSH1 0x20 DUP3 LT DUP2 SUB PUSH3 0x456 JUMPI PUSH4 0x4E487B71 PUSH1 0xE0 SHL PUSH1 0x0 MSTORE PUSH1 0x22 PUSH1 0x4 MSTORE PUSH1 0x24 PUSH1 0x0 REVERT JUMPDEST POP SWAP2 SWAP1 POP JUMP JUMPDEST PUSH1 0x1F DUP3 GT ISZERO PUSH3 0x3D3 JUMPI PUSH1 0x0 DUP2 DUP2 MSTORE PUSH1 0x20 DUP2 KECCAK256 PUSH1 0x1F DUP6 ADD PUSH1 0x5 SHR DUP2 ADD PUSH1 0x20 DUP7 LT ISZERO PUSH3 0x485 JUMPI POP DUP1 JUMPDEST PUSH1 0x1F DUP6 ADD PUSH1 0x5 SHR DUP3 ADD SWAP2 POP JUMPDEST DUP2 DUP2 LT ISZERO PUSH3 0x4A6 JUMPI DUP3 DUP2 SSTORE PUSH1 0x1 ADD PUSH3 0x491 JUMP JUMPDEST POP POP POP POP POP POP JUMP JUMPDEST DUP2 MLOAD PUSH1 0x1 PUSH1 0x1 PUSH1 0x40 SHL SUB DUP2 GT ISZERO PUSH3 0x4CA JUMPI PUSH3 0x4CA PUSH3 0x40A JUMP JUMPDEST PUSH3 0x4E2 DUP2 PUSH3 0x4DB DUP5 SLOAD PUSH3 0x420 JUMP JUMPDEST DUP5 PUSH3 0x45C JUMP JUMPDEST PUSH1 0x20 DUP1 PUSH1 0x1F DUP4 GT PUSH1 0x1 DUP2 EQ PUSH3 0x51A JUMPI PUSH1 0x0 DUP5 ISZERO PUSH3 0x501 JUMPI POP DUP6 DUP4 ADD MLOAD JUMPDEST PUSH1 0x0 NOT PUSH1 0x3 DUP7 SWAP1 SHL SHR NOT AND PUSH1 0x1 DUP6 SWAP1 SHL OR DUP6 SSTORE PUSH3 0x4A6 JUMP JUMPDEST PUSH1 0x0 DUP6 DUP2 MSTORE PUSH1 0x20 DUP2 KECCAK256 PUSH1 0x1F NOT DUP7 AND SWAP2 JUMPDEST DUP3 DUP2 LT ISZERO PUSH3 0x54B JUMPI DUP9 DUP7 ADD MLOAD DUP3 SSTORE SWAP5 DUP5 ADD SWAP5 PUSH1 0x1 SWAP1 SWAP2 ADD SWAP1 DUP5 ADD PUSH3 0x52A JUMP JUMPDEST POP DUP6 DUP3 LT ISZERO PUSH3 0x56A JUMPI DUP8 DUP6 ADD MLOAD PUSH1 0x0 NOT PUSH1 0x3 DUP9 SWAP1 SHL PUSH1 0xF8 AND SHR NOT AND DUP2 SSTORE JUMPDEST POP POP POP POP POP PUSH1 0x1 SWAP1 DUP2 SHL ADD SWAP1 SSTORE POP JUMP JUMPDEST DUP1 DUP3 ADD DUP1 DUP3 GT ISZERO PUSH3 0x59C JUMPI PUSH4 0x4E487B71 PUSH1 0xE0 SHL PUSH1 0x0 MSTORE PUSH1 0x11 PUSH1 0x4 MSTORE PUSH1 0x24 PUSH1 0x0 REVERT JUMPDEST SWAP3 SWAP2 POP POP JUMP JUMPDEST PUSH2 0x1375 DUP1 PUSH3 0x5B2 PUSH1 0x0 CODECOPY PUSH1 0x0 RETURN INVALID PUSH1 0x80 PUSH1 0x40 MSTORE CALLVALUE DUP1 ISZERO PUSH2 0x10 JUMPI PUSH1 0x0 DUP1 REVERT JUMPDEST POP PUSH1 0x4 CALLDATASIZE LT PUSH2 0x18E JUMPI PUSH1 0x0 CALLDATALOAD PUSH1 0xE0 SHR DUP1 PUSH4 0x715018A6 GT PUSH2 0xDE JUMPI DUP1 PUSH4 0xDBAC26E9 GT PUSH2 0x97 JUMPI DUP1 PUSH4 0xEAFB5A3C GT PUSH2 0x71 JUMPI DUP1 PUSH4 0xEAFB5A3C EQ PUSH2 0x397 JUMPI DUP1 PUSH4 0xF2FDE38B EQ PUSH2 0x3AA JUMPI DUP1 PUSH4 0xF3290D75 EQ PUSH2 0x3BD JUMPI DUP1 PUSH4 0xFDF3DD9C EQ PUSH2 0x3D0 JUMPI PUSH1 0x0 DUP1 REVERT JUMPDEST DUP1 PUSH4 0xDBAC26E9 EQ PUSH2 0x33E JUMPI DUP1 PUSH4 0xDD2C6C13 EQ PUSH2 0x361 JUMPI DUP1 PUSH4 0xDD62ED3E EQ PUSH2 0x384 JUMPI PUSH1 0x0 DUP1 REVERT JUMPDEST DUP1 PUSH4 0x715018A6 EQ PUSH2 0x2D7 JUMPI DUP1 PUSH4 0x8DA5CB5B EQ PUSH2 0x2DF JUMPI DUP1 PUSH4 0x95D89B41 EQ PUSH2 0x2F0 JUMPI DUP1 PUSH4 0xA457C2D7 EQ PUSH2 0x2F8 JUMPI DUP1 PUSH4 0xA9059CBB EQ PUSH2 0x30B JUMPI DUP1 PUSH4 0xC831F606 EQ PUSH2 0x31E JUMPI PUSH1 0x0 DUP1 REVERT JUMPDEST DUP1 PUSH4 0x3078381C GT PUSH2 0x14B JUMPI DUP1 PUSH4 0x3FD8B02F GT PUSH2 0x125 JUMPI DUP1 PUSH4 0x3FD8B02F EQ PUSH2 0x27E JUMPI DUP1 PUSH4 0x429494F2 EQ PUSH2 0x288 JUMPI DUP1 PUSH4 0x45E34949 EQ PUSH2 0x29B JUMPI DUP1 PUSH4 0x70A08231 EQ PUSH2 0x2AE JUMPI PUSH1 0x0 DUP1 REVERT JUMPDEST DUP1 PUSH4 0x3078381C EQ PUSH2 0x239 JUMPI DUP1 PUSH4 0x313CE567 EQ PUSH2 0x25C JUMPI DUP1 PUSH4 0x39509351 EQ PUSH2 0x26B JUMPI PUSH1 0x0 DUP1 REVERT JUMPDEST DUP1 PUSH4 0x6FDDE03 EQ PUSH2 0x193 JUMPI DUP1 PUSH4 0x95EA7B3 EQ PUSH2 0x1B1 JUMPI DUP1 PUSH4 0x18160DDD EQ PUSH2 0x1D4 JUMPI DUP1 PUSH4 0x227B453F EQ PUSH2 0x1E6 JUMPI DUP1 PUSH4 0x23B872DD EQ PUSH2 0x1FB JUMPI DUP1 PUSH4 0x24558995 EQ PUSH2 0x20E JUMPI JUMPDEST PUSH1 0x0 DUP1 REVERT JUMPDEST PUSH2 0x19B PUSH2 0x3E3 JUMP JUMPDEST PUSH1 0x40 MLOAD PUSH2 0x1A8 SWAP2 SWAP1 PUSH2 0x117F JUMP JUMPDEST PUSH1 0x40 MLOAD DUP1 SWAP2 SUB SWAP1 RETURN JUMPDEST PUSH2 0x1C4 PUSH2 0x1BF CALLDATASIZE PUSH1 0x4 PUSH2 0x11E2 JUMP JUMPDEST PUSH2 0x475 JUMP JUMPDEST PUSH1 0x40 MLOAD SWAP1 ISZERO ISZERO DUP2 MSTORE PUSH1 0x20 ADD PUSH2 0x1A8 JUMP JUMPDEST PUSH1 0x2 SLOAD JUMPDEST PUSH1 0x40 MLOAD SWAP1 DUP2 MSTORE PUSH1 0x20 ADD PUSH2 0x1A8 JUMP JUMPDEST PUSH2 0x1F9 PUSH2 0x1F4 CALLDATASIZE PUSH1 0x4 PUSH2 0x120E JUMP JUMPDEST PUSH2 0x48F JUMP JUMPDEST STOP JUMPDEST PUSH2 0x1C4 PUSH2 0x209 CALLDATASIZE PUSH1 0x4 PUSH2 0x1232 JUMP JUMPDEST PUSH2 0x4B8 JUMP JUMPDEST PUSH1 0x7 SLOAD PUSH2 0x221 SWAP1 PUSH1 0x1 PUSH1 0x1 PUSH1 0xA0 SHL SUB AND DUP2 JUMP JUMPDEST PUSH1 0x40 MLOAD PUSH1 0x1 PUSH1 0x1 PUSH1 0xA0 SHL SUB SWAP1 SWAP2 AND DUP2 MSTORE PUSH1 0x20 ADD PUSH2 0x1A8 JUMP JUMPDEST PUSH2 0x1C4 PUSH2 0x247 CALLDATASIZE PUSH1 0x4 PUSH2 0x120E JUMP JUMPDEST PUSH1 0x9 PUSH1 0x20 MSTORE PUSH1 0x0 SWAP1 DUP2 MSTORE PUSH1 0x40 SWAP1 KECCAK256 SLOAD PUSH1 0xFF AND DUP2 JUMP JUMPDEST PUSH1 0x40 MLOAD PUSH1 0x12 DUP2 MSTORE PUSH1 0x20 ADD PUSH2 0x1A8 JUMP JUMPDEST PUSH2 0x1C4 PUSH2 0x279 CALLDATASIZE PUSH1 0x4 PUSH2 0x11E2 JUMP JUMPDEST PUSH2 0x558 JUMP JUMPDEST PUSH2 0x1D8 PUSH3 0x57E40 DUP2 JUMP JUMPDEST PUSH1 0x6 SLOAD PUSH2 0x221 SWAP1 PUSH1 0x1 PUSH1 0x1 PUSH1 0xA0 SHL SUB AND DUP2 JUMP JUMPDEST PUSH2 0x1F9 PUSH2 0x2A9 CALLDATASIZE PUSH1 0x4 PUSH2 0x120E JUMP JUMPDEST PUSH2 0x575 JUMP JUMPDEST PUSH2 0x1D8 PUSH2 0x2BC CALLDATASIZE PUSH1 0x4 PUSH2 0x120E JUMP JUMPDEST PUSH1 0x1 PUSH1 0x1 PUSH1 0xA0 SHL SUB AND PUSH1 0x0 SWAP1 DUP2 MSTORE PUSH1 0x20 DUP2 SWAP1 MSTORE PUSH1 0x40 SWAP1 KECCAK256 SLOAD SWAP1 JUMP JUMPDEST PUSH2 0x1F9 PUSH2 0x62E JUMP JUMPDEST PUSH1 0x5 SLOAD PUSH1 0x1 PUSH1 0x1 PUSH1 0xA0 SHL SUB AND PUSH2 0x221 JUMP JUMPDEST PUSH2 0x19B PUSH2 0x642 JUMP JUMPDEST PUSH2 0x1C4 PUSH2 0x306 CALLDATASIZE PUSH1 0x4 PUSH2 0x11E2 JUMP JUMPDEST PUSH2 0x651 JUMP JUMPDEST PUSH2 0x1C4 PUSH2 0x319 CALLDATASIZE PUSH1 0x4 PUSH2 0x11E2 JUMP JUMPDEST PUSH2 0x6CC JUMP JUMPDEST PUSH2 0x1D8 PUSH2 0x32C CALLDATASIZE PUSH1 0x4 PUSH2 0x120E JUMP JUMPDEST PUSH1 0x8 PUSH1 0x20 MSTORE PUSH1 0x0 SWAP1 DUP2 MSTORE PUSH1 0x40 SWAP1 KECCAK256 SLOAD DUP2 JUMP JUMPDEST PUSH2 0x1C4 PUSH2 0x34C CALLDATASIZE PUSH1 0x4 PUSH2 0x120E JUMP JUMPDEST PUSH1 0xB PUSH1 0x20 MSTORE PUSH1 0x0 SWAP1 DUP2 MSTORE PUSH1 0x40 SWAP1 KECCAK256 SLOAD PUSH1 0xFF AND DUP2 JUMP JUMPDEST PUSH2 0x1C4 PUSH2 0x36F CALLDATASIZE PUSH1 0x4 PUSH2 0x120E JUMP JUMPDEST PUSH1 0xA PUSH1 0x20 MSTORE PUSH1 0x0 SWAP1 DUP2 MSTORE PUSH1 0x40 SWAP1 KECCAK256 SLOAD PUSH1 0xFF AND DUP2 JUMP JUMPDEST PUSH2 0x1D8 PUSH2 0x392 CALLDATASIZE PUSH1 0x4 PUSH2 0x1273 JUMP JUMPDEST PUSH2 0x6DA JUMP JUMPDEST PUSH2 0x1F9 PUSH2 0x3A5 CALLDATASIZE PUSH1 0x4 PUSH2 0x120E JUMP JUMPDEST PUSH2 0x705 JUMP JUMPDEST PUSH2 0x1F9 PUSH2 0x3B8 CALLDATASIZE PUSH1 0x4 PUSH2 0x120E JUMP JUMPDEST PUSH2 0x94A JUMP JUMPDEST PUSH2 0x1F9 PUSH2 0x3CB CALLDATASIZE PUSH1 0x4 PUSH2 0x120E JUMP JUMPDEST PUSH2 0x9C3 JUMP JUMPDEST PUSH2 0x1F9 PUSH2 0x3DE CALLDATASIZE PUSH1 0x4 PUSH2 0x120E JUMP JUMPDEST PUSH2 0xA80 JUMP JUMPDEST PUSH1 0x60 PUSH1 0x3 DUP1 SLOAD PUSH2 0x3F2 SWAP1 PUSH2 0x12AC JUMP JUMPDEST DUP1 PUSH1 0x1F ADD PUSH1 0x20 DUP1 SWAP2 DIV MUL PUSH1 0x20 ADD PUSH1 0x40 MLOAD SWAP1 DUP2 ADD PUSH1 0x40 MSTORE DUP1 SWAP3 SWAP2 SWAP1 DUP2 DUP2 MSTORE PUSH1 0x20 ADD DUP3 DUP1 SLOAD PUSH2 0x41E SWAP1 PUSH2 0x12AC JUMP JUMPDEST DUP1 ISZERO PUSH2 0x46B JUMPI DUP1 PUSH1 0x1F LT PUSH2 0x440 JUMPI PUSH2 0x100 DUP1 DUP4 SLOAD DIV MUL DUP4 MSTORE SWAP2 PUSH1 0x20 ADD SWAP2 PUSH2 0x46B JUMP JUMPDEST DUP3 ADD SWAP2 SWAP1 PUSH1 0x0 MSTORE PUSH1 0x20 PUSH1 0x0 KECCAK256 SWAP1 JUMPDEST DUP2 SLOAD DUP2 MSTORE SWAP1 PUSH1 0x1 ADD SWAP1 PUSH1 0x20 ADD DUP1 DUP4 GT PUSH2 0x44E JUMPI DUP3 SWAP1 SUB PUSH1 0x1F AND DUP3 ADD SWAP2 JUMPDEST POP POP POP POP POP SWAP1 POP SWAP1 JUMP JUMPDEST PUSH1 0x0 CALLER PUSH2 0x483 DUP2 DUP6 DUP6 PUSH2 0xAAC JUMP JUMPDEST PUSH1 0x1 SWAP2 POP POP JUMPDEST SWAP3 SWAP2 POP POP JUMP JUMPDEST PUSH2 0x497 PUSH2 0xBD0 JUMP JUMPDEST PUSH1 0x1 PUSH1 0x1 PUSH1 0xA0 SHL SUB AND PUSH1 0x0 SWAP1 DUP2 MSTORE PUSH1 0x9 PUSH1 0x20 MSTORE PUSH1 0x40 SWAP1 KECCAK256 DUP1 SLOAD PUSH1 0xFF NOT AND SWAP1 SSTORE JUMP JUMPDEST PUSH1 0x0 PUSH2 0x4C5 DUP5 DUP5 DUP5 PUSH2 0xC2A JUMP JUMPDEST PUSH1 0x0 PUSH2 0x4D1 DUP6 CALLER PUSH2 0x6DA JUMP JUMPDEST SWAP1 POP DUP3 DUP2 LT ISZERO PUSH2 0x539 JUMPI PUSH1 0x40 MLOAD PUSH3 0x461BCD PUSH1 0xE5 SHL DUP2 MSTORE PUSH1 0x20 PUSH1 0x4 DUP3 ADD MSTORE PUSH1 0x28 PUSH1 0x24 DUP3 ADD MSTORE PUSH32 0x45524332303A207472616E7366657220616D6F756E7420657863656564732061 PUSH1 0x44 DUP3 ADD MSTORE PUSH8 0x6C6C6F77616E6365 PUSH1 0xC0 SHL PUSH1 0x64 DUP3 ADD MSTORE PUSH1 0x84 ADD JUMPDEST PUSH1 0x40 MLOAD DUP1 SWAP2 SUB SWAP1 REVERT JUMPDEST PUSH2 0x54D DUP6 CALLER PUSH2 0x548 DUP7 DUP6 PUSH2 0x12FC JUMP JUMPDEST PUSH2 0xAAC JUMP JUMPDEST POP PUSH1 0x1 SWAP5 SWAP4 POP POP POP POP JUMP JUMPDEST PUSH1 0x0 CALLER PUSH2 0x483 DUP2 DUP6 DUP6 PUSH2 0x56B DUP4 DUP4 PUSH2 0x6DA JUMP JUMPDEST PUSH2 0x548 SWAP2 SWAP1 PUSH2 0x130F JUMP JUMPDEST PUSH2 0x57D PUSH2 0xBD0 JUMP JUMPDEST PUSH1 0x1 PUSH1 0x1 PUSH1 0xA0 SHL SUB DUP2 AND PUSH1 0x0 SWAP1 DUP2 MSTORE PUSH1 0xB PUSH1 0x20 MSTORE PUSH1 0x40 SWAP1 KECCAK256 SLOAD PUSH1 0xFF AND PUSH2 0x5E5 JUMPI PUSH1 0x40 MLOAD PUSH3 0x461BCD PUSH1 0xE5 SHL DUP2 MSTORE PUSH1 0x20 PUSH1 0x4 DUP3 ADD MSTORE PUSH1 0x1A PUSH1 0x24 DUP3 ADD MSTORE PUSH32 0x41646472657373206973206E6F7420626C61636B6C6973746564000000000000 PUSH1 0x44 DUP3 ADD MSTORE PUSH1 0x64 ADD PUSH2 0x530 JUMP JUMPDEST PUSH1 0x1 PUSH1 0x1 PUSH1 0xA0 SHL SUB DUP2 AND PUSH1 0x0 DUP2 DUP2 MSTORE PUSH1 0xB PUSH1 0x20 MSTORE PUSH1 0x40 DUP1 DUP3 KECCAK256 DUP1 SLOAD PUSH1 0xFF NOT AND SWAP1 SSTORE MLOAD PUSH32 0x7534C63860313C46C473E4E98328F37017E9674E2162FAF1A3AD7A96236C3B7B SWAP2 SWAP1 LOG2 POP JUMP JUMPDEST PUSH2 0x636 PUSH2 0xBD0 JUMP JUMPDEST PUSH2 0x640 PUSH1 0x0 PUSH2 0xF88 JUMP JUMPDEST JUMP JUMPDEST PUSH1 0x60 PUSH1 0x4 DUP1 SLOAD PUSH2 0x3F2 SWAP1 PUSH2 0x12AC JUMP JUMPDEST PUSH1 0x0 CALLER DUP2 PUSH2 0x65F DUP3 DUP7 PUSH2 0x6DA JUMP JUMPDEST SWAP1 POP DUP4 DUP2 LT ISZERO PUSH2 0x6BF JUMPI PUSH1 0x40 MLOAD PUSH3 0x461BCD PUSH1 0xE5 SHL DUP2 MSTORE PUSH1 0x20 PUSH1 0x4 DUP3 ADD MSTORE PUSH1 0x25 PUSH1 0x24 DUP3 ADD MSTORE PUSH32 0x45524332303A2064656372656173656420616C6C6F77616E63652062656C6F77 PUSH1 0x44 DUP3 ADD MSTORE PUSH5 0x207A65726F PUSH1 0xD8 SHL PUSH1 0x64 DUP3 ADD MSTORE PUSH1 0x84 ADD PUSH2 0x530 JUMP JUMPDEST PUSH2 0x54D DUP3 DUP7 DUP7 DUP5 SUB PUSH2 0xAAC JUMP JUMPDEST PUSH1 0x0 CALLER PUSH2 0x483 DUP2 DUP6 DUP6 PUSH2 0xC2A JUMP JUMPDEST PUSH1 0x1 PUSH1 0x1 PUSH1 0xA0 SHL SUB SWAP2 DUP3 AND PUSH1 0x0 SWAP1 DUP2 MSTORE PUSH1 0x1 PUSH1 0x20 SWAP1 DUP2 MSTORE PUSH1 0x40 DUP1 DUP4 KECCAK256 SWAP4 SWAP1 SWAP5 AND DUP3 MSTORE SWAP2 SWAP1 SWAP2 MSTORE KECCAK256 SLOAD SWAP1 JUMP JUMPDEST PUSH2 0x70D PUSH2 0xBD0 JUMP JUMPDEST PUSH1 0x1 PUSH1 0x1 PUSH1 0xA0 SHL SUB DUP2 AND PUSH2 0x779 JUMPI PUSH1 0x40 MLOAD PUSH3 0x461BCD PUSH1 0xE5 SHL DUP2 MSTORE PUSH1 0x20 PUSH1 0x4 DUP3 ADD MSTORE PUSH1 0x2D PUSH1 0x24 DUP3 ADD MSTORE PUSH32 0x4E657720726F7574657220616464726573732063616E6E6F7420626520746865 PUSH1 0x44 DUP3 ADD MSTORE PUSH13 0x207A65726F2061646472657373 PUSH1 0x98 SHL PUSH1 0x64 DUP3 ADD MSTORE PUSH1 0x84 ADD PUSH2 0x530 JUMP JUMPDEST PUSH1 0x0 DUP2 SWAP1 POP PUSH1 0x0 DUP2 PUSH1 0x1 PUSH1 0x1 PUSH1 0xA0 SHL SUB AND PUSH4 0xC45A0155 PUSH1 0x40 MLOAD DUP2 PUSH4 0xFFFFFFFF AND PUSH1 0xE0 SHL DUP2 MSTORE PUSH1 0x4 ADD PUSH1 0x20 PUSH1 0x40 MLOAD DUP1 DUP4 SUB DUP2 DUP7 GAS STATICCALL ISZERO DUP1 ISZERO PUSH2 0x7BE JUMPI RETURNDATASIZE PUSH1 0x0 DUP1 RETURNDATACOPY RETURNDATASIZE PUSH1 0x0 REVERT JUMPDEST POP POP POP POP PUSH1 0x40 MLOAD RETURNDATASIZE PUSH1 0x1F NOT PUSH1 0x1F DUP3 ADD AND DUP3 ADD DUP1 PUSH1 0x40 MSTORE POP DUP2 ADD SWAP1 PUSH2 0x7E2 SWAP2 SWAP1 PUSH2 0x1322 JUMP JUMPDEST PUSH1 0x1 PUSH1 0x1 PUSH1 0xA0 SHL SUB AND PUSH4 0xC9C65396 ADDRESS DUP5 PUSH1 0x1 PUSH1 0x1 PUSH1 0xA0 SHL SUB AND PUSH4 0xAD5C4648 PUSH1 0x40 MLOAD DUP2 PUSH4 0xFFFFFFFF AND PUSH1 0xE0 SHL DUP2 MSTORE PUSH1 0x4 ADD PUSH1 0x20 PUSH1 0x40 MLOAD DUP1 DUP4 SUB DUP2 DUP7 GAS STATICCALL ISZERO DUP1 ISZERO PUSH2 0x82F JUMPI RETURNDATASIZE PUSH1 0x0 DUP1 RETURNDATACOPY RETURNDATASIZE PUSH1 0x0 REVERT JUMPDEST POP POP POP POP PUSH1 0x40 MLOAD RETURNDATASIZE PUSH1 0x1F NOT PUSH1 0x1F DUP3 ADD AND DUP3 ADD DUP1 PUSH1 0x40 MSTORE POP DUP2 ADD SWAP1 PUSH2 0x853 SWAP2 SWAP1 PUSH2 0x1322 JUMP JUMPDEST PUSH1 0x40 MLOAD PUSH1 0x1 PUSH1 0x1 PUSH1 0xE0 SHL SUB NOT PUSH1 0xE0 DUP6 SWAP1 SHL AND DUP2 MSTORE PUSH1 0x1 PUSH1 0x1 PUSH1 0xA0 SHL SUB SWAP3 DUP4 AND PUSH1 0x4 DUP3 ADD MSTORE SWAP2 AND PUSH1 0x24 DUP3 ADD MSTORE PUSH1 0x44 ADD PUSH1 0x20 PUSH1 0x40 MLOAD DUP1 DUP4 SUB DUP2 PUSH1 0x0 DUP8 GAS CALL ISZERO DUP1 ISZERO PUSH2 0x8A0 JUMPI RETURNDATASIZE PUSH1 0x0 DUP1 RETURNDATACOPY RETURNDATASIZE PUSH1 0x0 REVERT JUMPDEST POP POP POP POP PUSH1 0x40 MLOAD RETURNDATASIZE PUSH1 0x1F NOT PUSH1 0x1F DUP3 ADD AND DUP3 ADD DUP1 PUSH1 0x40 MSTORE POP DUP2 ADD SWAP1 PUSH2 0x8C4 SWAP2 SWAP1 PUSH2 0x1322 JUMP JUMPDEST SWAP1 POP PUSH1 0x1 PUSH1 0x1 PUSH1 0xA0 SHL SUB DUP2 AND PUSH2 0x911 JUMPI PUSH1 0x40 MLOAD PUSH3 0x461BCD PUSH1 0xE5 SHL DUP2 MSTORE PUSH1 0x20 PUSH1 0x4 DUP3 ADD MSTORE PUSH1 0x12 PUSH1 0x24 DUP3 ADD MSTORE PUSH18 0x13995DC81C185A5C881B9BDD08199BDD5B99 PUSH1 0x72 SHL PUSH1 0x44 DUP3 ADD MSTORE PUSH1 0x64 ADD PUSH2 0x530 JUMP JUMPDEST PUSH1 0x7 DUP1 SLOAD PUSH1 0x1 PUSH1 0x1 PUSH1 0xA0 SHL SUB NOT AND PUSH1 0x1 PUSH1 0x1 PUSH1 0xA0 SHL SUB SWAP4 DUP5 AND OR SWAP1 SSTORE AND PUSH1 0x0 SWAP1 DUP2 MSTORE PUSH1 0xA PUSH1 0x20 MSTORE PUSH1 0x40 SWAP1 KECCAK256 DUP1 SLOAD PUSH1 0xFF NOT AND PUSH1 0x1 OR SWAP1 SSTORE POP JUMP JUMPDEST PUSH2 0x952 PUSH2 0xBD0 JUMP JUMPDEST PUSH1 0x1 PUSH1 0x1 PUSH1 0xA0 SHL SUB DUP2 AND PUSH2 0x9B7 JUMPI PUSH1 0x40 MLOAD PUSH3 0x461BCD PUSH1 0xE5 SHL DUP2 MSTORE PUSH1 0x20 PUSH1 0x4 DUP3 ADD MSTORE PUSH1 0x26 PUSH1 0x24 DUP3 ADD MSTORE PUSH32 0x4F776E61626C653A206E6577206F776E657220697320746865207A65726F2061 PUSH1 0x44 DUP3 ADD MSTORE PUSH6 0x646472657373 PUSH1 0xD0 SHL PUSH1 0x64 DUP3 ADD MSTORE PUSH1 0x84 ADD PUSH2 0x530 JUMP JUMPDEST PUSH2 0x9C0 DUP2 PUSH2 0xF88 JUMP JUMPDEST POP JUMP JUMPDEST PUSH2 0x9CB PUSH2 0xBD0 JUMP JUMPDEST PUSH1 0x1 PUSH1 0x1 PUSH1 0xA0 SHL SUB DUP2 AND PUSH1 0x0 SWAP1 DUP2 MSTORE PUSH1 0xB PUSH1 0x20 MSTORE PUSH1 0x40 SWAP1 KECCAK256 SLOAD PUSH1 0xFF AND ISZERO PUSH2 0xA34 JUMPI PUSH1 0x40 MLOAD PUSH3 0x461BCD PUSH1 0xE5 SHL DUP2 MSTORE PUSH1 0x20 PUSH1 0x4 DUP3 ADD MSTORE PUSH1 0x1E PUSH1 0x24 DUP3 ADD MSTORE PUSH32 0x4164647265737320697320616C726561647920626C61636B6C69737465640000 PUSH1 0x44 DUP3 ADD MSTORE PUSH1 0x64 ADD PUSH2 0x530 JUMP JUMPDEST PUSH1 0x1 PUSH1 0x1 PUSH1 0xA0 SHL SUB DUP2 AND PUSH1 0x0 DUP2 DUP2 MSTORE PUSH1 0xB PUSH1 0x20 MSTORE PUSH1 0x40 DUP1 DUP3 KECCAK256 DUP1 SLOAD PUSH1 0xFF NOT AND PUSH1 0x1 OR SWAP1 SSTORE MLOAD PUSH32 0xFFA4E6181777692565CF28528FC88FD1516EA86B56DA075235FA575AF6A4B855 SWAP2 SWAP1 LOG2 POP JUMP JUMPDEST PUSH2 0xA88 PUSH2 0xBD0 JUMP JUMPDEST PUSH1 0x1 PUSH1 0x1 PUSH1 0xA0 SHL SUB AND PUSH1 0x0 SWAP1 DUP2 MSTORE PUSH1 0x9 PUSH1 0x20 MSTORE PUSH1 0x40 SWAP1 KECCAK256 DUP1 SLOAD PUSH1 0xFF NOT AND PUSH1 0x1 OR SWAP1 SSTORE JUMP JUMPDEST PUSH1 0x1 PUSH1 0x1 PUSH1 0xA0 SHL SUB DUP4 AND PUSH2 0xB0E JUMPI PUSH1 0x40 MLOAD PUSH3 0x461BCD PUSH1 0xE5 SHL DUP2 MSTORE PUSH1 0x20 PUSH1 0x4 DUP3 ADD MSTORE PUSH1 0x24 DUP1 DUP3 ADD MSTORE PUSH32 0x45524332303A20617070726F76652066726F6D20746865207A65726F20616464 PUSH1 0x44 DUP3 ADD MSTORE PUSH4 0x72657373 PUSH1 0xE0 SHL PUSH1 0x64 DUP3 ADD MSTORE PUSH1 0x84 ADD PUSH2 0x530 JUMP JUMPDEST PUSH1 0x1 PUSH1 0x1 PUSH1 0xA0 SHL SUB DUP3 AND PUSH2 0xB6F JUMPI PUSH1 0x40 MLOAD PUSH3 0x461BCD PUSH1 0xE5 SHL DUP2 MSTORE PUSH1 0x20 PUSH1 0x4 DUP3 ADD MSTORE PUSH1 0x22 PUSH1 0x24 DUP3 ADD MSTORE PUSH32 0x45524332303A20617070726F766520746F20746865207A65726F206164647265 PUSH1 0x44 DUP3 ADD MSTORE PUSH2 0x7373 PUSH1 0xF0 SHL PUSH1 0x64 DUP3 ADD MSTORE PUSH1 0x84 ADD PUSH2 0x530 JUMP JUMPDEST PUSH1 0x1 PUSH1 0x1 PUSH1 0xA0 SHL SUB DUP4 DUP2 AND PUSH1 0x0 DUP2 DUP2 MSTORE PUSH1 0x1 PUSH1 0x20 SWAP1 DUP2 MSTORE PUSH1 0x40 DUP1 DUP4 KECCAK256 SWAP5 DUP8 AND DUP1 DUP5 MSTORE SWAP5 DUP3 MSTORE SWAP2 DUP3 SWAP1 KECCAK256 DUP6 SWAP1 SSTORE SWAP1 MLOAD DUP5 DUP2 MSTORE PUSH32 0x8C5BE1E5EBEC7D5BD14F71427D1E84F3DD0314C0F7B2291E5B200AC8C7C3B925 SWAP2 ADD PUSH1 0x40 MLOAD DUP1 SWAP2 SUB SWAP1 LOG3 POP POP POP JUMP JUMPDEST PUSH1 0x5 SLOAD PUSH1 0x1 PUSH1 0x1 PUSH1 0xA0 SHL SUB AND CALLER EQ PUSH2 0x640 JUMPI PUSH1 0x40 MLOAD PUSH3 0x461BCD PUSH1 0xE5 SHL DUP2 MSTORE PUSH1 0x20 PUSH1 0x4 DUP3 ADD DUP2 SWAP1 MSTORE PUSH1 0x24 DUP3 ADD MSTORE PUSH32 0x4F776E61626C653A2063616C6C6572206973206E6F7420746865206F776E6572 PUSH1 0x44 DUP3 ADD MSTORE PUSH1 0x64 ADD PUSH2 0x530 JUMP JUMPDEST PUSH1 0x1 PUSH1 0x1 PUSH1 0xA0 SHL SUB DUP4 AND PUSH1 0x0 SWAP1 DUP2 MSTORE PUSH1 0xB PUSH1 0x20 MSTORE PUSH1 0x40 SWAP1 KECCAK256 SLOAD PUSH1 0xFF AND ISZERO PUSH2 0xC8B JUMPI PUSH1 0x40 MLOAD PUSH3 0x461BCD PUSH1 0xE5 SHL DUP2 MSTORE PUSH1 0x20 PUSH1 0x4 DUP3 ADD MSTORE PUSH1 0x15 PUSH1 0x24 DUP3 ADD MSTORE PUSH21 0x14D95B99195C881A5CC8189B1858DADB1A5CDD1959 PUSH1 0x5A SHL PUSH1 0x44 DUP3 ADD MSTORE PUSH1 0x64 ADD PUSH2 0x530 JUMP JUMPDEST PUSH1 0x1 PUSH1 0x1 PUSH1 0xA0 SHL SUB DUP3 AND PUSH1 0x0 SWAP1 DUP2 MSTORE PUSH1 0xB PUSH1 0x20 MSTORE PUSH1 0x40 SWAP1 KECCAK256 SLOAD PUSH1 0xFF AND ISZERO PUSH2 0xCF4 JUMPI PUSH1 0x40 MLOAD PUSH3 0x461BCD PUSH1 0xE5 SHL DUP2 MSTORE PUSH1 0x20 PUSH1 0x4 DUP3 ADD MSTORE PUSH1 0x18 PUSH1 0x24 DUP3 ADD MSTORE PUSH32 0x526563697069656E7420697320626C61636B6C69737465640000000000000000 PUSH1 0x44 DUP3 ADD MSTORE PUSH1 0x64 ADD PUSH2 0x530 JUMP JUMPDEST PUSH1 0x0 DUP2 GT PUSH2 0xD56 JUMPI PUSH1 0x40 MLOAD PUSH3 0x461BCD PUSH1 0xE5 SHL DUP2 MSTORE PUSH1 0x20 PUSH1 0x4 DUP3 ADD MSTORE PUSH1 0x29 PUSH1 0x24 DUP3 ADD MSTORE PUSH32 0x5472616E7366657220616D6F756E74206D757374206265206772656174657220 PUSH1 0x44 DUP3 ADD MSTORE PUSH9 0x7468616E207A65726F PUSH1 0xB8 SHL PUSH1 0x64 DUP3 ADD MSTORE PUSH1 0x84 ADD PUSH2 0x530 JUMP JUMPDEST DUP1 PUSH2 0xD76 DUP5 PUSH1 0x1 PUSH1 0x1 PUSH1 0xA0 SHL SUB AND PUSH1 0x0 SWAP1 DUP2 MSTORE PUSH1 0x20 DUP2 SWAP1 MSTORE PUSH1 0x40 SWAP1 KECCAK256 SLOAD SWAP1 JUMP JUMPDEST LT ISZERO PUSH2 0xDBB JUMPI PUSH1 0x40 MLOAD PUSH3 0x461BCD PUSH1 0xE5 SHL DUP2 MSTORE PUSH1 0x20 PUSH1 0x4 DUP3 ADD MSTORE PUSH1 0x14 PUSH1 0x24 DUP3 ADD MSTORE PUSH20 0x496E73756666696369656E742062616C616E6365 PUSH1 0x60 SHL PUSH1 0x44 DUP3 ADD MSTORE PUSH1 0x64 ADD PUSH2 0x530 JUMP JUMPDEST PUSH1 0x1 PUSH1 0x1 PUSH1 0xA0 SHL SUB DUP4 AND PUSH1 0x0 SWAP1 DUP2 MSTORE PUSH1 0x9 PUSH1 0x20 MSTORE PUSH1 0x40 SWAP1 KECCAK256 SLOAD PUSH1 0xFF AND ISZERO DUP1 ISZERO PUSH2 0xDF2 JUMPI POP PUSH1 0x5 SLOAD PUSH1 0x1 PUSH1 0x1 PUSH1 0xA0 SHL SUB DUP5 DUP2 AND SWAP2 AND EQ ISZERO JUMPDEST DUP1 ISZERO PUSH2 0xE0C JUMPI POP PUSH1 0x7 SLOAD PUSH1 0x1 PUSH1 0x1 PUSH1 0xA0 SHL SUB DUP5 DUP2 AND SWAP2 AND EQ ISZERO JUMPDEST ISZERO PUSH2 0xE79 JUMPI PUSH1 0x1 PUSH1 0x1 PUSH1 0xA0 SHL SUB DUP4 AND PUSH1 0x0 SWAP1 DUP2 MSTORE PUSH1 0x8 PUSH1 0x20 MSTORE PUSH1 0x40 SWAP1 KECCAK256 SLOAD TIMESTAMP LT ISZERO PUSH2 0xE79 JUMPI PUSH1 0x40 MLOAD PUSH3 0x461BCD PUSH1 0xE5 SHL DUP2 MSTORE PUSH1 0x20 PUSH1 0x4 DUP3 ADD MSTORE PUSH1 0x19 PUSH1 0x24 DUP3 ADD MSTORE PUSH32 0x54696D65206C6F636B206973207374696C6C2061637469766500000000000000 PUSH1 0x44 DUP3 ADD MSTORE PUSH1 0x64 ADD PUSH2 0x530 JUMP JUMPDEST PUSH1 0x1 PUSH1 0x1 PUSH1 0xA0 SHL SUB DUP3 AND PUSH1 0x0 SWAP1 DUP2 MSTORE PUSH1 0x9 PUSH1 0x20 MSTORE PUSH1 0x40 SWAP1 KECCAK256 SLOAD PUSH1 0xFF AND ISZERO DUP1 ISZERO PUSH2 0xEB0 JUMPI POP PUSH1 0x5 SLOAD PUSH1 0x1 PUSH1 0x1 PUSH1 0xA0 SHL SUB DUP4 DUP2 AND SWAP2 AND EQ ISZERO JUMPDEST DUP1 ISZERO PUSH2 0xECA JUMPI POP PUSH1 0x7 SLOAD PUSH1 0x1 PUSH1 0x1 PUSH1 0xA0 SHL SUB DUP4 DUP2 AND SWAP2 AND EQ ISZERO JUMPDEST ISZERO PUSH2 0xF78 JUMPI PUSH1 0x1 PUSH1 0x1 PUSH1 0xA0 SHL SUB DUP3 AND PUSH1 0x0 SWAP1 DUP2 MSTORE PUSH1 0x8 PUSH1 0x20 MSTORE PUSH1 0x40 SWAP1 KECCAK256 SLOAD ISZERO DUP1 PUSH2 0xF0C JUMPI POP PUSH1 0x1 PUSH1 0x1 PUSH1 0xA0 SHL SUB DUP3 AND PUSH1 0x0 SWAP1 DUP2 MSTORE PUSH1 0x8 PUSH1 0x20 MSTORE PUSH1 0x40 SWAP1 KECCAK256 SLOAD TIMESTAMP LT ISZERO JUMPDEST PUSH2 0xF51 JUMPI PUSH1 0x40 MLOAD PUSH3 0x461BCD PUSH1 0xE5 SHL DUP2 MSTORE PUSH1 0x20 PUSH1 0x4 DUP3 ADD MSTORE PUSH1 0x16 PUSH1 0x24 DUP3 ADD MSTORE PUSH22 0x526563697069656E7420696E2074696D65206C6F636B PUSH1 0x50 SHL PUSH1 0x44 DUP3 ADD MSTORE PUSH1 0x64 ADD PUSH2 0x530 JUMP JUMPDEST PUSH2 0xF5E PUSH3 0x57E40 TIMESTAMP PUSH2 0x130F JUMP JUMPDEST PUSH1 0x1 PUSH1 0x1 PUSH1 0xA0 SHL SUB DUP4 AND PUSH1 0x0 SWAP1 DUP2 MSTORE PUSH1 0x8 PUSH1 0x20 MSTORE PUSH1 0x40 SWAP1 KECCAK256 SSTORE JUMPDEST PUSH2 0xF83 DUP4 DUP4 DUP4 PUSH2 0xFDA JUMP JUMPDEST POP POP POP JUMP JUMPDEST PUSH1 0x5 DUP1 SLOAD PUSH1 0x1 PUSH1 0x1 PUSH1 0xA0 SHL SUB DUP4 DUP2 AND PUSH1 0x1 PUSH1 0x1 PUSH1 0xA0 SHL SUB NOT DUP4 AND DUP2 OR SWAP1 SWAP4 SSTORE PUSH1 0x40 MLOAD SWAP2 AND SWAP2 SWAP1 DUP3 SWAP1 PUSH32 0x8BE0079C531659141344CD1FD0A4F28419497F9722A3DAAFE3B4186F6B6457E0 SWAP1 PUSH1 0x0 SWAP1 LOG3 POP POP JUMP JUMPDEST PUSH1 0x1 PUSH1 0x1 PUSH1 0xA0 SHL SUB DUP4 AND PUSH2 0x103E JUMPI PUSH1 0x40 MLOAD PUSH3 0x461BCD PUSH1 0xE5 SHL DUP2 MSTORE PUSH1 0x20 PUSH1 0x4 DUP3 ADD MSTORE PUSH1 0x25 PUSH1 0x24 DUP3 ADD MSTORE PUSH32 0x45524332303A207472616E736665722066726F6D20746865207A65726F206164 PUSH1 0x44 DUP3 ADD MSTORE PUSH5 0x6472657373 PUSH1 0xD8 SHL PUSH1 0x64 DUP3 ADD MSTORE PUSH1 0x84 ADD PUSH2 0x530 JUMP JUMPDEST PUSH1 0x1 PUSH1 0x1 PUSH1 0xA0 SHL SUB DUP3 AND PUSH2 0x10A0 JUMPI PUSH1 0x40 MLOAD PUSH3 0x461BCD PUSH1 0xE5 SHL DUP2 MSTORE PUSH1 0x20 PUSH1 0x4 DUP3 ADD MSTORE PUSH1 0x23 PUSH1 0x24 DUP3 ADD MSTORE PUSH32 0x45524332303A207472616E7366657220746F20746865207A65726F2061646472 PUSH1 0x44 DUP3 ADD MSTORE PUSH3 0x657373 PUSH1 0xE8 SHL PUSH1 0x64 DUP3 ADD MSTORE PUSH1 0x84 ADD PUSH2 0x530 JUMP JUMPDEST PUSH1 0x1 PUSH1 0x1 PUSH1 0xA0 SHL SUB DUP4 AND PUSH1 0x0 SWAP1 DUP2 MSTORE PUSH1 0x20 DUP2 SWAP1 MSTORE PUSH1 0x40 SWAP1 KECCAK256 SLOAD DUP2 DUP2 LT ISZERO PUSH2 0x1118 JUMPI PUSH1 0x40 MLOAD PUSH3 0x461BCD PUSH1 0xE5 SHL DUP2 MSTORE PUSH1 0x20 PUSH1 0x4 DUP3 ADD MSTORE PUSH1 0x26 PUSH1 0x24 DUP3 ADD MSTORE PUSH32 0x45524332303A207472616E7366657220616D6F756E7420657863656564732062 PUSH1 0x44 DUP3 ADD MSTORE PUSH6 0x616C616E6365 PUSH1 0xD0 SHL PUSH1 0x64 DUP3 ADD MSTORE PUSH1 0x84 ADD PUSH2 0x530 JUMP JUMPDEST PUSH1 0x1 PUSH1 0x1 PUSH1 0xA0 SHL SUB DUP5 DUP2 AND PUSH1 0x0 DUP2 DUP2 MSTORE PUSH1 0x20 DUP2 DUP2 MSTORE PUSH1 0x40 DUP1 DUP4 KECCAK256 DUP8 DUP8 SUB SWAP1 SSTORE SWAP4 DUP8 AND DUP1 DUP4 MSTORE SWAP2 DUP5 SWAP1 KECCAK256 DUP1 SLOAD DUP8 ADD SWAP1 SSTORE SWAP3 MLOAD DUP6 DUP2 MSTORE SWAP1 SWAP3 PUSH32 0xDDF252AD1BE2C89B69C2B068FC378DAA952BA7F163C4A11628F55A4DF523B3EF SWAP2 ADD PUSH1 0x40 MLOAD DUP1 SWAP2 SUB SWAP1 LOG3 POP POP POP POP JUMP JUMPDEST PUSH1 0x0 PUSH1 0x20 DUP1 DUP4 MSTORE DUP4 MLOAD DUP1 DUP3 DUP6 ADD MSTORE PUSH1 0x0 JUMPDEST DUP2 DUP2 LT ISZERO PUSH2 0x11AC JUMPI DUP6 DUP2 ADD DUP4 ADD MLOAD DUP6 DUP3 ADD PUSH1 0x40 ADD MSTORE DUP3 ADD PUSH2 0x1190 JUMP JUMPDEST POP PUSH1 0x0 PUSH1 0x40 DUP3 DUP7 ADD ADD MSTORE PUSH1 0x40 PUSH1 0x1F NOT PUSH1 0x1F DUP4 ADD AND DUP6 ADD ADD SWAP3 POP POP POP SWAP3 SWAP2 POP POP JUMP JUMPDEST PUSH1 0x1 PUSH1 0x1 PUSH1 0xA0 SHL SUB DUP2 AND DUP2 EQ PUSH2 0x9C0 JUMPI PUSH1 0x0 DUP1 REVERT JUMPDEST PUSH1 0x0 DUP1 PUSH1 0x40 DUP4 DUP6 SUB SLT ISZERO PUSH2 0x11F5 JUMPI PUSH1 0x0 DUP1 REVERT JUMPDEST DUP3 CALLDATALOAD PUSH2 0x1200 DUP2 PUSH2 0x11CD JUMP JUMPDEST SWAP5 PUSH1 0x20 SWAP4 SWAP1 SWAP4 ADD CALLDATALOAD SWAP4 POP POP POP JUMP JUMPDEST PUSH1 0x0 PUSH1 0x20 DUP3 DUP5 SUB SLT ISZERO PUSH2 0x1220 JUMPI PUSH1 0x0 DUP1 REVERT JUMPDEST DUP2 CALLDATALOAD PUSH2 0x122B DUP2 PUSH2 0x11CD JUMP JUMPDEST SWAP4 SWAP3 POP POP POP JUMP JUMPDEST PUSH1 0x0 DUP1 PUSH1 0x0 PUSH1 0x60 DUP5 DUP7 SUB SLT ISZERO PUSH2 0x1247 JUMPI PUSH1 0x0 DUP1 REVERT JUMPDEST DUP4 CALLDATALOAD PUSH2 0x1252 DUP2 PUSH2 0x11CD JUMP JUMPDEST SWAP3 POP PUSH1 0x20 DUP5 ADD CALLDATALOAD PUSH2 0x1262 DUP2 PUSH2 0x11CD JUMP JUMPDEST SWAP3 SWAP6 SWAP3 SWAP5 POP POP POP PUSH1 0x40 SWAP2 SWAP1 SWAP2 ADD CALLDATALOAD SWAP1 JUMP JUMPDEST PUSH1 0x0 DUP1 PUSH1 0x40 DUP4 DUP6 SUB SLT ISZERO PUSH2 0x1286 JUMPI PUSH1 0x0 DUP1 REVERT JUMPDEST DUP3 CALLDATALOAD PUSH2 0x1291 DUP2 PUSH2 0x11CD JUMP JUMPDEST SWAP2 POP PUSH1 0x20 DUP4 ADD CALLDATALOAD PUSH2 0x12A1 DUP2 PUSH2 0x11CD JUMP JUMPDEST DUP1 SWAP2 POP POP SWAP3 POP SWAP3 SWAP1 POP JUMP JUMPDEST PUSH1 0x1 DUP2 DUP2 SHR SWAP1 DUP3 AND DUP1 PUSH2 0x12C0 JUMPI PUSH1 0x7F DUP3 AND SWAP2 POP JUMPDEST PUSH1 0x20 DUP3 LT DUP2 SUB PUSH2 0x12E0 JUMPI PUSH4 0x4E487B71 PUSH1 0xE0 SHL PUSH1 0x0 MSTORE PUSH1 0x22 PUSH1 0x4 MSTORE PUSH1 0x24 PUSH1 0x0 REVERT JUMPDEST POP SWAP2 SWAP1 POP JUMP JUMPDEST PUSH4 0x4E487B71 PUSH1 0xE0 SHL PUSH1 0x0 MSTORE PUSH1 0x11 PUSH1 0x4 MSTORE PUSH1 0x24 PUSH1 0x0 REVERT JUMPDEST DUP2 DUP2 SUB DUP2 DUP2 GT ISZERO PUSH2 0x489 JUMPI PUSH2 0x489 PUSH2 0x12E6 JUMP JUMPDEST DUP1 DUP3 ADD DUP1 DUP3 GT ISZERO PUSH2 0x489 JUMPI PUSH2 0x489 PUSH2 0x12E6 JUMP JUMPDEST PUSH1 0x0 PUSH1 0x20 DUP3 DUP5 SUB SLT ISZERO PUSH2 0x1334 JUMPI PUSH1 0x0 DUP1 REVERT JUMPDEST DUP2 MLOAD PUSH2 0x122B DUP2 PUSH2 0x11CD JUMP INVALID LOG2 PUSH5 0x6970667358 0x22 SLT KECCAK256 PUSH1 0x1D CALLER 0xD7 SWAP7 ORIGIN 0xE0 0xB5 0xAF 0xDB SWAP13 0xED PUSH24 0x9D14299CD8934366A4A8A5716F7AFE3CFDAC4464736F6C63 NUMBER STOP ADDMOD SLT STOP CALLER 0xC9 EXTCODESIZE 0xC1 PUSH27 0x700271BF59796CBFA01B47B8B95654209793470E3CDBADF87465A8 NUMBER "
				},
				"gasEstimates": {
					"creation": {
						"codeDepositCost": "996200",
						"executionCost": "infinite",
						"totalCost": "infinite"
					},
					"external": {
						"allowance(address,address)": "infinite",
						"approve(address,uint256)": "24645",
						"balanceOf(address)": "2645",
						"blacklistAddress(address)": "30214",
						"blacklisted(address)": "2570",
						"decimals()": "245",
						"decreaseAllowance(address,uint256)": "27033",
						"excludeFromLockPeriod(address)": "26878",
						"excludedFromLockPeriod(address)": "2571",
						"includeInTimeLock(address)": "26852",
						"increaseAllowance(address,uint256)": "infinite",
						"lockPeriod()": "240",
						"name()": "infinite",
						"owner()": "2376",
						"pancakeSwapPair()": "2404",
						"pancakeSwapPairs(address)": "2592",
						"pancakeSwapRouter()": "2471",
						"renounceOwnership()": "infinite",
						"setNewRouter(address)": "infinite",
						"symbol()": "infinite",
						"timeStamps(address)": "2646",
						"totalSupply()": "2349",
						"transfer(address,uint256)": "infinite",
						"transferFrom(address,address,uint256)": "infinite",
						"transferOwnership(address)": "infinite",
						"unblacklistAddress(address)": "30206"
					},
					"internal": {
						"_transfer(address,address,uint256)": "infinite"
					}
				},
				"methodIdentifiers": {
					"allowance(address,address)": "dd62ed3e",
					"approve(address,uint256)": "095ea7b3",
					"balanceOf(address)": "70a08231",
					"blacklistAddress(address)": "f3290d75",
					"blacklisted(address)": "dbac26e9",
					"decimals()": "313ce567",
					"decreaseAllowance(address,uint256)": "a457c2d7",
					"excludeFromLockPeriod(address)": "fdf3dd9c",
					"excludedFromLockPeriod(address)": "3078381c",
					"includeInTimeLock(address)": "227b453f",
					"increaseAllowance(address,uint256)": "39509351",
					"lockPeriod()": "3fd8b02f",
					"name()": "06fdde03",
					"owner()": "8da5cb5b",
					"pancakeSwapPair()": "429494f2",
					"pancakeSwapPairs(address)": "dd2c6c13",
					"pancakeSwapRouter()": "24558995",
					"renounceOwnership()": "715018a6",
					"setNewRouter(address)": "eafb5a3c",
					"symbol()": "95d89b41",
					"timeStamps(address)": "c831f606",
					"totalSupply()": "18160ddd",
					"transfer(address,uint256)": "a9059cbb",
					"transferFrom(address,address,uint256)": "23b872dd",
					"transferOwnership(address)": "f2fde38b",
					"unblacklistAddress(address)": "45e34949"
				}
			},
			"storageLayout": {
				"storage": [
					{
						"astId": 193,
						"contract": "contracts/hundred.sol:HUNDRED",
						"label": "_balances",
						"offset": 0,
						"slot": "0",
						"type": "t_mapping(t_address,t_uint256)"
					},
					{
						"astId": 199,
						"contract": "contracts/hundred.sol:HUNDRED",
						"label": "_allowances",
						"offset": 0,
						"slot": "1",
						"type": "t_mapping(t_address,t_mapping(t_address,t_uint256))"
					},
					{
						"astId": 201,
						"contract": "contracts/hundred.sol:HUNDRED",
						"label": "_totalSupply",
						"offset": 0,
						"slot": "2",
						"type": "t_uint256"
					},
					{
						"astId": 203,
						"contract": "contracts/hundred.sol:HUNDRED",
						"label": "_name",
						"offset": 0,
						"slot": "3",
						"type": "t_string_storage"
					},
					{
						"astId": 205,
						"contract": "contracts/hundred.sol:HUNDRED",
						"label": "_symbol",
						"offset": 0,
						"slot": "4",
						"type": "t_string_storage"
					},
					{
						"astId": 7,
						"contract": "contracts/hundred.sol:HUNDRED",
						"label": "_owner",
						"offset": 0,
						"slot": "5",
						"type": "t_address"
					},
					{
						"astId": 978,
						"contract": "contracts/hundred.sol:HUNDRED",
						"label": "pancakeSwapPair",
						"offset": 0,
						"slot": "6",
						"type": "t_address"
					},
					{
						"astId": 981,
						"contract": "contracts/hundred.sol:HUNDRED",
						"label": "pancakeSwapRouter",
						"offset": 0,
						"slot": "7",
						"type": "t_contract(IPancakeSwapV2Router02)962"
					},
					{
						"astId": 1009,
						"contract": "contracts/hundred.sol:HUNDRED",
						"label": "timeStamps",
						"offset": 0,
						"slot": "8",
						"type": "t_mapping(t_address,t_uint256)"
					},
					{
						"astId": 1013,
						"contract": "contracts/hundred.sol:HUNDRED",
						"label": "excludedFromLockPeriod",
						"offset": 0,
						"slot": "9",
						"type": "t_mapping(t_address,t_bool)"
					},
					{
						"astId": 1017,
						"contract": "contracts/hundred.sol:HUNDRED",
						"label": "pancakeSwapPairs",
						"offset": 0,
						"slot": "10",
						"type": "t_mapping(t_address,t_bool)"
					},
					{
						"astId": 1021,
						"contract": "contracts/hundred.sol:HUNDRED",
						"label": "blacklisted",
						"offset": 0,
						"slot": "11",
						"type": "t_mapping(t_address,t_bool)"
					}
				],
				"types": {
					"t_address": {
						"encoding": "inplace",
						"label": "address",
						"numberOfBytes": "20"
					},
					"t_bool": {
						"encoding": "inplace",
						"label": "bool",
						"numberOfBytes": "1"
					},
					"t_contract(IPancakeSwapV2Router02)962": {
						"encoding": "inplace",
						"label": "contract IPancakeSwapV2Router02",
						"numberOfBytes": "20"
					},
					"t_mapping(t_address,t_bool)": {
						"encoding": "mapping",
						"key": "t_address",
						"label": "mapping(address => bool)",
						"numberOfBytes": "32",
						"value": "t_bool"
					},
					"t_mapping(t_address,t_mapping(t_address,t_uint256))": {
						"encoding": "mapping",
						"key": "t_address",
						"label": "mapping(address => mapping(address => uint256))",
						"numberOfBytes": "32",
						"value": "t_mapping(t_address,t_uint256)"
					},
					"t_mapping(t_address,t_uint256)": {
						"encoding": "mapping",
						"key": "t_address",
						"label": "mapping(address => uint256)",
						"numberOfBytes": "32",
						"value": "t_uint256"
					},
					"t_string_storage": {
						"encoding": "bytes",
						"label": "string",
						"numberOfBytes": "32"
					},
					"t_uint256": {
						"encoding": "inplace",
						"label": "uint256",
						"numberOfBytes": "32"
					}
				}
			},
			"userdoc": {
				"kind": "user",
				"methods": {},
				"version": 1
			}
		}
	}
}