{
	"contracts/shia20.sol": {
		"OneAnonataTime": {
			"abi": [
				{
					"inputs": [],
					"stateMutability": "nonpayable",
					"type": "constructor"
				},
				{
					"anonymous": false,
					"inputs": [
						{
							"indexed": true,
							"internalType": "address",
							"name": "owner",
							"type": "address"
						},
						{
							"indexed": true,
							"internalType": "address",
							"name": "spender",
							"type": "address"
						},
						{
							"indexed": false,
							"internalType": "uint256",
							"name": "value",
							"type": "uint256"
						}
					],
					"name": "Approval",
					"type": "event"
				},
				{
					"anonymous": false,
					"inputs": [
						{
							"indexed": false,
							"internalType": "uint256",
							"name": "_maxTxAmount",
							"type": "uint256"
						}
					],
					"name": "MaxTxAmountUpdated",
					"type": "event"
				},
				{
					"anonymous": false,
					"inputs": [
						{
							"indexed": true,
							"internalType": "address",
							"name": "previousOwner",
							"type": "address"
						},
						{
							"indexed": true,
							"internalType": "address",
							"name": "newOwner",
							"type": "address"
						}
					],
					"name": "OwnershipTransferred",
					"type": "event"
				},
				{
					"anonymous": false,
					"inputs": [
						{
							"indexed": true,
							"internalType": "address",
							"name": "from",
							"type": "address"
						},
						{
							"indexed": true,
							"internalType": "address",
							"name": "to",
							"type": "address"
						},
						{
							"indexed": false,
							"internalType": "uint256",
							"name": "value",
							"type": "uint256"
						}
					],
					"name": "Transfer",
					"type": "event"
				},
				{
					"inputs": [],
					"name": "DEAD_WALLET",
					"outputs": [
						{
							"internalType": "address",
							"name": "",
							"type": "address"
						}
					],
					"stateMutability": "view",
					"type": "function"
				},
				{
					"inputs": [],
					"name": "_maxTaxSwap",
					"outputs": [
						{
							"internalType": "uint256",
							"name": "",
							"type": "uint256"
						}
					],
					"stateMutability": "view",
					"type": "function"
				},
				{
					"inputs": [],
					"name": "_maxTxAmount",
					"outputs": [
						{
							"internalType": "uint256",
							"name": "",
							"type": "uint256"
						}
					],
					"stateMutability": "view",
					"type": "function"
				},
				{
					"inputs": [],
					"name": "_maxWalletSize",
					"outputs": [
						{
							"internalType": "uint256",
							"name": "",
							"type": "uint256"
						}
					],
					"stateMutability": "view",
					"type": "function"
				},
				{
					"inputs": [],
					"name": "_taxSwapThreshold",
					"outputs": [
						{
							"internalType": "uint256",
							"name": "",
							"type": "uint256"
						}
					],
					"stateMutability": "view",
					"type": "function"
				},
				{
					"inputs": [
						{
							"internalType": "address",
							"name": "owner",
							"type": "address"
						},
						{
							"internalType": "address",
							"name": "spender",
							"type": "address"
						}
					],
					"name": "allowance",
					"outputs": [
						{
							"internalType": "uint256",
							"name": "",
							"type": "uint256"
						}
					],
					"stateMutability": "view",
					"type": "function"
				},
				{
					"inputs": [
						{
							"internalType": "address",
							"name": "spender",
							"type": "address"
						},
						{
							"internalType": "uint256",
							"name": "amount",
							"type": "uint256"
						}
					],
					"name": "approve",
					"outputs": [
						{
							"internalType": "bool",
							"name": "",
							"type": "bool"
						}
					],
					"stateMutability": "nonpayable",
					"type": "function"
				},
				{
					"inputs": [
						{
							"internalType": "address",
							"name": "account",
							"type": "address"
						}
					],
					"name": "balanceOf",
					"outputs": [
						{
							"internalType": "uint256",
							"name": "",
							"type": "uint256"
						}
					],
					"stateMutability": "view",
					"type": "function"
				},
				{
					"inputs": [],
					"name": "decimals",
					"outputs": [
						{
							"internalType": "uint8",
							"name": "",
							"type": "uint8"
						}
					],
					"stateMutability": "pure",
					"type": "function"
				},
				{
					"inputs": [],
					"name": "manualSwap",
					"outputs": [],
					"stateMutability": "nonpayable",
					"type": "function"
				},
				{
					"inputs": [],
					"name": "name",
					"outputs": [
						{
							"internalType": "string",
							"name": "",
							"type": "string"
						}
					],
					"stateMutability": "pure",
					"type": "function"
				},
				{
					"inputs": [],
					"name": "owner",
					"outputs": [
						{
							"internalType": "address",
							"name": "",
							"type": "address"
						}
					],
					"stateMutability": "view",
					"type": "function"
				},
				{
					"inputs": [],
					"name": "removeLimits",
					"outputs": [],
					"stateMutability": "nonpayable",
					"type": "function"
				},
				{
					"inputs": [],
					"name": "renounceOwnership",
					"outputs": [],
					"stateMutability": "nonpayable",
					"type": "function"
				},
				{
					"inputs": [],
					"name": "symbol",
					"outputs": [
						{
							"internalType": "string",
							"name": "",
							"type": "string"
						}
					],
					"stateMutability": "pure",
					"type": "function"
				},
				{
					"inputs": [],
					"name": "totalSupply",
					"outputs": [
						{
							"internalType": "uint256",
							"name": "",
							"type": "uint256"
						}
					],
					"stateMutability": "pure",
					"type": "function"
				},
				{
					"inputs": [
						{
							"internalType": "address",
							"name": "recipient",
							"type": "address"
						},
						{
							"internalType": "uint256",
							"name": "amount",
							"type": "uint256"
						}
					],
					"name": "transfer",
					"outputs": [
						{
							"internalType": "bool",
							"name": "",
							"type": "bool"
						}
					],
					"stateMutability": "nonpayable",
					"type": "function"
				},
				{
					"inputs": [],
					"name": "transferDelayEnabled",
					"outputs": [
						{
							"internalType": "bool",
							"name": "",
							"type": "bool"
						}
					],
					"stateMutability": "view",
					"type": "function"
				},
				{
					"inputs": [
						{
							"internalType": "address",
							"name": "sender",
							"type": "address"
						},
						{
							"internalType": "address",
							"name": "recipient",
							"type": "address"
						},
						{
							"internalType": "uint256",
							"name": "amount",
							"type": "uint256"
						}
					],
					"name": "transferFrom",
					"outputs": [
						{
							"internalType": "bool",
							"name": "",
							"type": "bool"
						}
					],
					"stateMutability": "nonpayable",
					"type": "function"
				},
				{
					"stateMutability": "payable",
					"type": "receive"
				}
			],
			"devdoc": {
				"kind": "dev",
				"methods": {},
				"version": 1
			},
			"evm": {
				"assembly": "    /* \"contracts/shia20.sol\":4119:12179  contract OneAnonataTime is Context, IERC20, Ownable {... */\n  mstore(0x40, 0x80)\n    /* \"contracts/shia20.sol\":4515:4554  bool public transferDelayEnabled = true */\n  0x06\n  dup1\n  sload\n  not(0xff)\n  and\n    /* \"contracts/shia20.sol\":4550:4554  true */\n  0x01\n    /* \"contracts/shia20.sol\":4515:4554  bool public transferDelayEnabled = true */\n  or\n  swap1\n  sstore\n    /* \"contracts/shia20.sol\":4722:4724  10 */\n  0x0a\n    /* \"contracts/shia20.sol\":4691:4724  uint256 private _initialBuyTax=10 */\n  0x07\n  dup2\n  swap1\n  sstore\n    /* \"contracts/shia20.sol\":4763:4765  15 */\n  0x0f\n    /* \"contracts/shia20.sol\":4731:4765  uint256 private _initialSellTax=15 */\n  0x08\n  dup2\n  swap1\n  sstore\n    /* \"contracts/shia20.sol\":4801:4802  2 */\n  0x02\n    /* \"contracts/shia20.sol\":4772:4802  uint256 private _finalBuyTax=2 */\n  0x09\n  dup2\n  swap1\n  sstore\n    /* \"contracts/shia20.sol\":4809:4840  uint256 private _finalSellTax=2 */\n  dup3\n  sstore\n    /* \"contracts/shia20.sol\":4847:4881  uint256 private _reduceBuyTaxAt=15 */\n  0x0b\n  dup2\n  swap1\n  sstore\n    /* \"contracts/shia20.sol\":4888:4923  uint256 private _reduceSellTaxAt=15 */\n  0x0c\n  sstore\n    /* \"contracts/shia20.sol\":4965:4966  5 */\n  0x05\n    /* \"contracts/shia20.sol\":4930:4966  uint256 private _preventSwapBefore=5 */\n  0x0d\n  sstore\n    /* \"contracts/shia20.sol\":4515:4554  bool public transferDelayEnabled = true */\n  0x00\n    /* \"contracts/shia20.sol\":4973:5000  uint256 private _buyCount=0 */\n  0x0e\n  sstore\n    /* \"contracts/shia20.sol\":5272:5285  10**_decimals */\n  tag_1\n  swap1\n    /* \"contracts/shia20.sol\":5044:5046  18 */\n  0x12\n  swap1\n    /* \"contracts/shia20.sol\":5272:5285  10**_decimals */\n  tag_2\n  jump\t// in\ntag_1:\n    /* \"contracts/shia20.sol\":5261:5285  10000000 * 10**_decimals */\n  tag_3\n  swap1\n    /* \"contracts/shia20.sol\":5261:5269  10000000 */\n  0x989680\n    /* \"contracts/shia20.sol\":5261:5285  10000000 * 10**_decimals */\n  tag_4\n  jump\t// in\ntag_3:\n    /* \"contracts/shia20.sol\":5231:5285  uint256 public _maxTxAmount = 10000000 * 10**_decimals */\n  0x0f\n  sstore\n    /* \"contracts/shia20.sol\":5335:5348  10**_decimals */\n  tag_5\n    /* \"contracts/shia20.sol\":5044:5046  18 */\n  0x12\n    /* \"contracts/shia20.sol\":5335:5337  10 */\n  0x0a\n    /* \"contracts/shia20.sol\":5335:5348  10**_decimals */\n  tag_2\n  jump\t// in\ntag_5:\n    /* \"contracts/shia20.sol\":5324:5348  10000000 * 10**_decimals */\n  tag_6\n  swap1\n    /* \"contracts/shia20.sol\":5324:5332  10000000 */\n  0x989680\n    /* \"contracts/shia20.sol\":5324:5348  10000000 * 10**_decimals */\n  tag_4\n  jump\t// in\ntag_6:\n    /* \"contracts/shia20.sol\":5292:5348  uint256 public _maxWalletSize = 10000000 * 10**_decimals */\n  0x10\n  sstore\n    /* \"contracts/shia20.sol\":5399:5412  10**_decimals */\n  tag_7\n    /* \"contracts/shia20.sol\":5044:5046  18 */\n  0x12\n    /* \"contracts/shia20.sol\":5399:5401  10 */\n  0x0a\n    /* \"contracts/shia20.sol\":5399:5412  10**_decimals */\n  tag_2\n  jump\t// in\ntag_7:\n    /* \"contracts/shia20.sol\":5389:5412  1000000 * 10**_decimals */\n  tag_8\n  swap1\n    /* \"contracts/shia20.sol\":5389:5396  1000000 */\n  0x0f4240\n    /* \"contracts/shia20.sol\":5389:5412  1000000 * 10**_decimals */\n  tag_4\n  jump\t// in\ntag_8:\n    /* \"contracts/shia20.sol\":5355:5412  uint256 public _taxSwapThreshold= 1000000 * 10**_decimals */\n  0x11\n  sstore\n    /* \"contracts/shia20.sol\":5457:5470  10**_decimals */\n  tag_9\n    /* \"contracts/shia20.sol\":5044:5046  18 */\n  0x12\n    /* \"contracts/shia20.sol\":5457:5459  10 */\n  0x0a\n    /* \"contracts/shia20.sol\":5457:5470  10**_decimals */\n  tag_2\n  jump\t// in\ntag_9:\n    /* \"contracts/shia20.sol\":5447:5470  3000000 * 10**_decimals */\n  tag_10\n  swap1\n    /* \"contracts/shia20.sol\":5447:5454  3000000 */\n  0x2dc6c0\n    /* \"contracts/shia20.sol\":5447:5470  3000000 * 10**_decimals */\n  tag_4\n  jump\t// in\ntag_10:\n    /* \"contracts/shia20.sol\":5419:5470  uint256 public _maxTaxSwap= 3000000 * 10**_decimals */\n  0x12\n  sstore\n    /* \"contracts/shia20.sol\":5595:5622  bool private inSwap = false */\n  0x14\n  dup1\n  sload\n  not(shl(0xa8, 0xffff))\n    /* \"contracts/shia20.sol\":5629:5661  bool private swapEnabled = false */\n  and\n  swap1\n  sstore\n    /* \"contracts/shia20.sol\":5818:6799  constructor () {... */\n  callvalue\n  dup1\n  iszero\n  tag_11\n  jumpi\n  0x00\n  dup1\n  revert\ntag_11:\n  pop\n    /* \"contracts/shia20.sol\":2850:2867  address msgSender */\n  0x00\n    /* \"contracts/shia20.sol\":2893:2911  _owner = msgSender */\n  dup1\n  sload\n  not(sub(shl(0xa0, 0x01), 0x01))\n  and\n    /* \"contracts/shia20.sol\":821:831  msg.sender */\n  caller\n    /* \"contracts/shia20.sol\":2893:2911  _owner = msgSender */\n  swap1\n  dup2\n  or\n  dup3\n  sstore\n    /* \"contracts/shia20.sol\":2927:2970  OwnershipTransferred(address(0), msgSender) */\n  mload(0x40)\n    /* \"contracts/shia20.sol\":821:831  msg.sender */\n  swap1\n  swap2\n  dup3\n  swap2\n    /* \"contracts/shia20.sol\":2927:2970  OwnershipTransferred(address(0), msgSender) */\n  0x8be0079c531659141344cd1fd0a4f28419497f9722a3daafe3b4186f6b6457e0\n  swap1\n    /* \"contracts/shia20.sol\":2850:2867  address msgSender */\n  dup3\n  swap1\n    /* \"contracts/shia20.sol\":2927:2970  OwnershipTransferred(address(0), msgSender) */\n  log3\n  pop\n    /* \"contracts/shia20.sol\":5846:5861  uniswapV2Router */\n  0x13\n    /* \"contracts/shia20.sol\":5846:5926  uniswapV2Router = IUniswapV2Router02(0x7a250d5630B4cF539739dF2C5dAcb4c659F2488D) */\n  dup1\n  sload\n  not(sub(shl(0xa0, 0x01), 0x01))\n  and\n    /* \"contracts/shia20.sol\":5883:5925  0x7a250d5630B4cF539739dF2C5dAcb4c659F2488D */\n  0x7a250d5630b4cf539739df2c5dacb4c659f2488d\n    /* \"contracts/shia20.sol\":5846:5926  uniswapV2Router = IUniswapV2Router02(0x7a250d5630B4cF539739dF2C5dAcb4c659F2488D) */\n  swap1\n  dup2\n  or\n  swap1\n  swap2\n  sstore\n    /* \"contracts/shia20.sol\":5987:6045  _approve(address(this), address(uniswapV2Router), _tTotal) */\n  tag_18\n  swap1\n    /* \"contracts/shia20.sol\":6004:6008  this */\n  address\n  swap1\n    /* \"contracts/shia20.sol\":5101:5114  10**_decimals */\n  tag_19\n    /* \"contracts/shia20.sol\":5044:5046  18 */\n  0x12\n    /* \"contracts/shia20.sol\":5101:5103  10 */\n  0x0a\n    /* \"contracts/shia20.sol\":5101:5114  10**_decimals */\n  tag_2\n  jump\t// in\ntag_19:\n    /* \"contracts/shia20.sol\":5088:5114  1000000000 * 10**_decimals */\n  tag_20\n  swap1\n    /* \"contracts/shia20.sol\":5088:5098  1000000000 */\n  0x3b9aca00\n    /* \"contracts/shia20.sol\":5088:5114  1000000000 * 10**_decimals */\n  tag_4\n  jump\t// in\ntag_20:\n    /* \"contracts/shia20.sol\":5987:5995  _approve */\n  tag_21\n    /* \"contracts/shia20.sol\":5987:6045  _approve(address(this), address(uniswapV2Router), _tTotal) */\n  jump\t// in\ntag_18:\n    /* \"contracts/shia20.sol\":6090:6105  uniswapV2Router */\n  0x13\n  0x00\n  swap1\n  sload\n  swap1\n  0x0100\n  exp\n  swap1\n  div\n  sub(shl(0xa0, 0x01), 0x01)\n  and\n  sub(shl(0xa0, 0x01), 0x01)\n    /* \"contracts/shia20.sol\":6090:6113  uniswapV2Router.factory */\n  and\n  0xc45a0155\n    /* \"contracts/shia20.sol\":6090:6115  uniswapV2Router.factory() */\n  mload(0x40)\n  dup2\n  0xffffffff\n  and\n  0xe0\n  shl\n  dup2\n  mstore\n  0x04\n  add\n  0x20\n  mload(0x40)\n  dup1\n  dup4\n  sub\n  dup2\n  dup7\n  gas\n  staticcall\n  iszero\n  dup1\n  iszero\n  tag_23\n  jumpi\n  returndatasize\n  0x00\n  dup1\n  returndatacopy\n  revert(0x00, returndatasize)\ntag_23:\n  pop\n  pop\n  pop\n  pop\n  mload(0x40)\n  returndatasize\n  not(0x1f)\n  0x1f\n  dup3\n  add\n  and\n  dup3\n  add\n  dup1\n  0x40\n  mstore\n  pop\n  dup2\n  add\n  swap1\n  tag_24\n  swap2\n  swap1\n  tag_25\n  jump\t// in\ntag_24:\n  sub(shl(0xa0, 0x01), 0x01)\n    /* \"contracts/shia20.sol\":6072:6127  IUniswapV2Factory(uniswapV2Router.factory()).createPair */\n  and\n  0xc9c65396\n    /* \"contracts/shia20.sol\":6136:6140  this */\n  address\n    /* \"contracts/shia20.sol\":6143:6158  uniswapV2Router */\n  0x13\n  0x00\n  swap1\n  sload\n  swap1\n  0x0100\n  exp\n  swap1\n  div\n  sub(shl(0xa0, 0x01), 0x01)\n  and\n  sub(shl(0xa0, 0x01), 0x01)\n    /* \"contracts/shia20.sol\":6143:6163  uniswapV2Router.WETH */\n  and\n  0xad5c4648\n    /* \"contracts/shia20.sol\":6143:6165  uniswapV2Router.WETH() */\n  mload(0x40)\n  dup2\n  0xffffffff\n  and\n  0xe0\n  shl\n  dup2\n  mstore\n  0x04\n  add\n  0x20\n  mload(0x40)\n  dup1\n  dup4\n  sub\n  dup2\n  dup7\n  gas\n  staticcall\n  iszero\n  dup1\n  iszero\n  tag_27\n  jumpi\n  returndatasize\n  0x00\n  dup1\n  returndatacopy\n  revert(0x00, returndatasize)\ntag_27:\n  pop\n  pop\n  pop\n  pop\n  mload(0x40)\n  returndatasize\n  not(0x1f)\n  0x1f\n  dup3\n  add\n  and\n  dup3\n  add\n  dup1\n  0x40\n  mstore\n  pop\n  dup2\n  add\n  swap1\n  tag_28\n  swap2\n  swap1\n  tag_25\n  jump\t// in\ntag_28:\n    /* \"contracts/shia20.sol\":6072:6166  IUniswapV2Factory(uniswapV2Router.factory()).createPair(address(this), uniswapV2Router.WETH()) */\n  mload(0x40)\n  not(sub(shl(0xe0, 0x01), 0x01))\n  0xe0\n  dup6\n  swap1\n  shl\n  and\n  dup2\n  mstore\n  sub(shl(0xa0, 0x01), 0x01)\n    /* \"#utility.yul\":2227:2242   */\n  swap3\n  dup4\n  and\n    /* \"contracts/shia20.sol\":6072:6166  IUniswapV2Factory(uniswapV2Router.factory()).createPair(address(this), uniswapV2Router.WETH()) */\n  0x04\n  dup3\n  add\n    /* \"#utility.yul\":2209:2243   */\n  mstore\n    /* \"#utility.yul\":2279:2294   */\n  swap2\n  and\n    /* \"#utility.yul\":2259:2277   */\n  0x24\n  dup3\n  add\n    /* \"#utility.yul\":2252:2295   */\n  mstore\n    /* \"#utility.yul\":2144:2162   */\n  0x44\n  add\n    /* \"contracts/shia20.sol\":6072:6166  IUniswapV2Factory(uniswapV2Router.factory()).createPair(address(this), uniswapV2Router.WETH()) */\n  0x20\n  mload(0x40)\n  dup1\n  dup4\n  sub\n  dup2\n  0x00\n  dup8\n  gas\n  call\n  iszero\n  dup1\n  iszero\n  tag_32\n  jumpi\n  returndatasize\n  0x00\n  dup1\n  returndatacopy\n  revert(0x00, returndatasize)\ntag_32:\n  pop\n  pop\n  pop\n  pop\n  mload(0x40)\n  returndatasize\n  not(0x1f)\n  0x1f\n  dup3\n  add\n  and\n  dup3\n  add\n  dup1\n  0x40\n  mstore\n  pop\n  dup2\n  add\n  swap1\n  tag_33\n  swap2\n  swap1\n  tag_25\n  jump\t// in\ntag_33:\n    /* \"contracts/shia20.sol\":6056:6069  uniswapV2Pair */\n  0x14\n    /* \"contracts/shia20.sol\":6056:6166  uniswapV2Pair = IUniswapV2Factory(uniswapV2Router.factory()).createPair(address(this), uniswapV2Router.WETH()) */\n  dup1\n  sload\n  not(sub(shl(0xa0, 0x01), 0x01))\n  and\n  sub(shl(0xa0, 0x01), 0x01)\n  swap3\n  dup4\n  and\n  or\n  swap1\n  sstore\n    /* \"contracts/shia20.sol\":6177:6192  uniswapV2Router */\n  sload(0x13)\n  and\n    /* \"contracts/shia20.sol\":6177:6208  uniswapV2Router.addLiquidityETH */\n  0xf305d719\n    /* \"contracts/shia20.sol\":6216:6237  address(this).balance */\n  selfbalance\n    /* \"contracts/shia20.sol\":6247:6251  this */\n  address\n    /* \"contracts/shia20.sol\":6253:6277  balanceOf(address(this)) */\n  tag_34\n    /* \"contracts/shia20.sol\":6247:6251  this */\n  dup2\n  sub(shl(0xa0, 0x01), 0x01)\n    /* \"contracts/shia20.sol\":7280:7298  _balances[account] */\n  and\n    /* \"contracts/shia20.sol\":7253:7260  uint256 */\n  0x00\n    /* \"contracts/shia20.sol\":7280:7298  _balances[account] */\n  swap1\n  dup2\n  mstore\n    /* \"contracts/shia20.sol\":7280:7289  _balances */\n  0x01\n    /* \"contracts/shia20.sol\":7280:7298  _balances[account] */\n  0x20\n  mstore\n  0x40\n  swap1\n  keccak256\n  sload\n  swap1\n    /* \"contracts/shia20.sol\":7187:7306  function balanceOf(address account) public view override returns (uint256) {... */\n  jump\n    /* \"contracts/shia20.sol\":6253:6277  balanceOf(address(this)) */\ntag_34:\n    /* \"contracts/shia20.sol\":6278:6279  0 */\n  0x00\n  dup1\n    /* \"contracts/shia20.sol\":6282:6289  owner() */\n  tag_36\n    /* \"contracts/shia20.sol\":3024:3031  address */\n  0x00\n    /* \"contracts/shia20.sol\":3051:3057  _owner */\n  sload\n  sub(shl(0xa0, 0x01), 0x01)\n  and\n  swap1\n    /* \"contracts/shia20.sol\":2986:3065  function owner() public view returns (address) {... */\n  jump\n    /* \"contracts/shia20.sol\":6282:6289  owner() */\ntag_36:\n    /* \"contracts/shia20.sol\":6177:6306  uniswapV2Router.addLiquidityETH{value: address(this).balance}(address(this),balanceOf(address(this)),0,0,owner(),block.timestamp) */\n  mload(0x40)\n  0xe0\n  dup9\n  swap1\n  shl\n  not(sub(shl(0xe0, 0x01), 0x01))\n  and\n  dup2\n  mstore\n  sub(shl(0xa0, 0x01), 0x01)\n    /* \"#utility.yul\":2665:2680   */\n  swap6\n  dup7\n  and\n    /* \"contracts/shia20.sol\":6177:6306  uniswapV2Router.addLiquidityETH{value: address(this).balance}(address(this),balanceOf(address(this)),0,0,owner(),block.timestamp) */\n  0x04\n  dup3\n  add\n    /* \"#utility.yul\":2647:2681   */\n  mstore\n    /* \"#utility.yul\":2697:2715   */\n  0x24\n  dup2\n  add\n    /* \"#utility.yul\":2690:2724   */\n  swap5\n  swap1\n  swap5\n  mstore\n    /* \"#utility.yul\":2740:2758   */\n  0x44\n  dup5\n  add\n    /* \"#utility.yul\":2733:2767   */\n  swap3\n  swap1\n  swap3\n  mstore\n    /* \"#utility.yul\":2783:2801   */\n  0x64\n  dup4\n  add\n    /* \"#utility.yul\":2776:2810   */\n  mstore\n    /* \"#utility.yul\":2847:2862   */\n  swap1\n  swap2\n  and\n    /* \"#utility.yul\":2826:2845   */\n  0x84\n  dup3\n  add\n    /* \"#utility.yul\":2819:2863   */\n  mstore\n    /* \"contracts/shia20.sol\":6290:6305  block.timestamp */\n  timestamp\n    /* \"#utility.yul\":2879:2898   */\n  0xa4\n  dup3\n  add\n    /* \"#utility.yul\":2872:2907   */\n  mstore\n    /* \"#utility.yul\":2581:2600   */\n  0xc4\n  add\n    /* \"contracts/shia20.sol\":6177:6306  uniswapV2Router.addLiquidityETH{value: address(this).balance}(address(this),balanceOf(address(this)),0,0,owner(),block.timestamp) */\n  0x60\n  mload(0x40)\n  dup1\n  dup4\n  sub\n  dup2\n  dup6\n  dup9\n  gas\n  call\n  iszero\n  dup1\n  iszero\n  tag_41\n  jumpi\n  returndatasize\n  0x00\n  dup1\n  returndatacopy\n  revert(0x00, returndatasize)\ntag_41:\n  pop\n  pop\n  pop\n  pop\n  pop\n  mload(0x40)\n  returndatasize\n  not(0x1f)\n  0x1f\n  dup3\n  add\n  and\n  dup3\n  add\n  dup1\n  0x40\n  mstore\n  pop\n  dup2\n  add\n  swap1\n  tag_42\n  swap2\n  swap1\n  tag_43\n  jump\t// in\ntag_42:\n  pop\n  pop\n    /* \"contracts/shia20.sol\":6324:6337  uniswapV2Pair */\n  sload(0x14)\n    /* \"contracts/shia20.sol\":6355:6370  uniswapV2Router */\n  sload(0x13)\n    /* \"contracts/shia20.sol\":6317:6388  IERC20(uniswapV2Pair).approve(address(uniswapV2Router), type(uint).max) */\n  mload(0x40)\n  shl(0xe0, 0x095ea7b3)\n  dup2\n  mstore\n  sub(shl(0xa0, 0x01), 0x01)\n    /* \"contracts/shia20.sol\":6355:6370  uniswapV2Router */\n  swap2\n  dup3\n  and\n    /* \"contracts/shia20.sol\":6317:6388  IERC20(uniswapV2Pair).approve(address(uniswapV2Router), type(uint).max) */\n  0x04\n  dup3\n  add\n    /* \"#utility.yul\":3403:3454   */\n  mstore\n  not(0x00)\n    /* \"#utility.yul\":3470:3488   */\n  0x24\n  dup3\n  add\n    /* \"#utility.yul\":3463:3497   */\n  mstore\n    /* \"contracts/shia20.sol\":6324:6337  uniswapV2Pair */\n  swap2\n  and\n  swap2\n  pop\n    /* \"contracts/shia20.sol\":6317:6346  IERC20(uniswapV2Pair).approve */\n  0x095ea7b3\n  swap1\n    /* \"#utility.yul\":3376:3394   */\n  0x44\n  add\n    /* \"contracts/shia20.sol\":6317:6388  IERC20(uniswapV2Pair).approve(address(uniswapV2Router), type(uint).max) */\n  0x20\n  mload(0x40)\n  dup1\n  dup4\n  sub\n  dup2\n  0x00\n  dup8\n  gas\n  call\n  iszero\n  dup1\n  iszero\n  tag_47\n  jumpi\n  returndatasize\n  0x00\n  dup1\n  returndatacopy\n  revert(0x00, returndatasize)\ntag_47:\n  pop\n  pop\n  pop\n  pop\n  mload(0x40)\n  returndatasize\n  not(0x1f)\n  0x1f\n  dup3\n  add\n  and\n  dup3\n  add\n  dup1\n  0x40\n  mstore\n  pop\n  dup2\n  add\n  swap1\n  tag_48\n  swap2\n  swap1\n  tag_49\n  jump\t// in\ntag_48:\n  pop\n    /* \"contracts/shia20.sol\":6399:6410  swapEnabled */\n  0x14\n    /* \"contracts/shia20.sol\":6399:6417  swapEnabled = true */\n  dup1\n  sload\n  not(shl(0xa0, 0xff00ff))\n    /* \"contracts/shia20.sol\":6428:6446  tradingOpen = true */\n  and\n  shl(0xa0, 0x010001)\n  or\n  swap1\n  sstore\n    /* \"contracts/shia20.sol\":6480:6492  _msgSender() */\n  tag_50\n    /* \"contracts/shia20.sol\":821:831  msg.sender */\n  caller\n  swap1\n    /* \"contracts/shia20.sol\":741:839  function _msgSender() internal view virtual returns (address) {... */\n  jump\n    /* \"contracts/shia20.sol\":6480:6492  _msgSender() */\ntag_50:\n    /* \"contracts/shia20.sol\":6459:6469  _taxWallet */\n  0x06\n    /* \"contracts/shia20.sol\":6459:6493  _taxWallet = payable(_msgSender()) */\n  dup1\n  sload\n  sub(shl(0xa0, 0x01), 0x01)\n  swap3\n  swap1\n  swap3\n  and\n  0x0100\n  mul\n  not(sub(shl(0xa8, 0x01), 0x0100))\n  swap1\n  swap3\n  and\n  swap2\n  swap1\n  swap2\n  or\n  swap1\n  sstore\n    /* \"contracts/shia20.sol\":5101:5114  10**_decimals */\n  tag_51\n    /* \"contracts/shia20.sol\":5044:5046  18 */\n  0x12\n    /* \"contracts/shia20.sol\":5101:5103  10 */\n  0x0a\n    /* \"contracts/shia20.sol\":5101:5114  10**_decimals */\n  tag_2\n  jump\t// in\ntag_51:\n    /* \"contracts/shia20.sol\":5088:5114  1000000000 * 10**_decimals */\n  tag_52\n  swap1\n    /* \"contracts/shia20.sol\":5088:5098  1000000000 */\n  0x3b9aca00\n    /* \"contracts/shia20.sol\":5088:5114  1000000000 * 10**_decimals */\n  tag_4\n  jump\t// in\ntag_52:\n    /* \"contracts/shia20.sol\":821:831  msg.sender */\n  caller\n    /* \"contracts/shia20.sol\":6504:6527  _balances[_msgSender()] */\n  0x00\n  swap1\n  dup2\n  mstore\n    /* \"contracts/shia20.sol\":6504:6513  _balances */\n  0x01\n    /* \"contracts/shia20.sol\":6504:6527  _balances[_msgSender()] */\n  0x20\n  dup2\n  swap1\n  mstore\n  0x40\n  dup3\n  keccak256\n    /* \"contracts/shia20.sol\":6504:6537  _balances[_msgSender()] = _tTotal */\n  swap3\n  swap1\n  swap3\n  sstore\n    /* \"contracts/shia20.sol\":6548:6566  _isExcludedFromFee */\n  0x03\n  swap1\n    /* \"contracts/shia20.sol\":6567:6574  owner() */\n  tag_54\n    /* \"contracts/shia20.sol\":3024:3031  address */\n  0x00\n    /* \"contracts/shia20.sol\":3051:3057  _owner */\n  sload\n  sub(shl(0xa0, 0x01), 0x01)\n  and\n  swap1\n    /* \"contracts/shia20.sol\":2986:3065  function owner() public view returns (address) {... */\n  jump\n    /* \"contracts/shia20.sol\":6567:6574  owner() */\ntag_54:\n  sub(shl(0xa0, 0x01), 0x01)\n    /* \"contracts/shia20.sol\":6548:6575  _isExcludedFromFee[owner()] */\n  swap1\n  dup2\n  and\n  dup3\n  mstore\n  0x20\n  dup1\n  dup4\n  add\n  swap4\n  swap1\n  swap4\n  mstore\n  0x40\n  swap2\n  dup3\n  add\n  0x00\n  swap1\n  dup2\n  keccak256\n    /* \"contracts/shia20.sol\":6548:6582  _isExcludedFromFee[owner()] = true */\n  dup1\n  sload\n  swap6\n  iszero\n  iszero\n  not(0xff)\n  swap7\n  dup8\n  and\n  or\n  swap1\n  sstore\n    /* \"contracts/shia20.sol\":6620:6624  this */\n  address\n    /* \"contracts/shia20.sol\":6593:6626  _isExcludedFromFee[address(this)] */\n  dup2\n  mstore\n    /* \"contracts/shia20.sol\":6593:6611  _isExcludedFromFee */\n  0x03\n    /* \"contracts/shia20.sol\":6593:6626  _isExcludedFromFee[address(this)] */\n  swap1\n  swap4\n  mstore\n  dup2\n  dup4\n  keccak256\n    /* \"contracts/shia20.sol\":6593:6633  _isExcludedFromFee[address(this)] = true */\n  dup1\n  sload\n  dup6\n  and\n    /* \"contracts/shia20.sol\":6548:6582  _isExcludedFromFee[owner()] = true */\n  0x01\n    /* \"contracts/shia20.sol\":6593:6633  _isExcludedFromFee[address(this)] = true */\n  swap1\n  dup2\n  or\n  swap1\n  swap2\n  sstore\n    /* \"contracts/shia20.sol\":6663:6673  _taxWallet */\n  sload(0x06)\n    /* \"contracts/shia20.sol\":6548:6582  _isExcludedFromFee[owner()] = true */\n  0x0100\n    /* \"contracts/shia20.sol\":6663:6673  _taxWallet */\n  swap1\n  div\n  swap1\n  swap2\n  and\n    /* \"contracts/shia20.sol\":6644:6674  _isExcludedFromFee[_taxWallet] */\n  dup4\n  mstore\n  swap1\n  dup3\n  keccak256\n    /* \"contracts/shia20.sol\":6644:6681  _isExcludedFromFee[_taxWallet] = true */\n  dup1\n  sload\n  dup5\n  and\n  dup3\n  or\n  swap1\n  sstore\n    /* \"contracts/shia20.sol\":4640:4682  0x000000000000000000000000000000000000dEaD */\n  0xdead\n    /* \"contracts/shia20.sol\":6692:6723  _isExcludedFromFee[DEAD_WALLET] */\n  swap1\n  swap2\n  mstore\n  0x262bb27bbdd95c1cdc8e16957e36e38579ea44f7f6413dd7a9c75939def06b2c\n    /* \"contracts/shia20.sol\":6692:6730  _isExcludedFromFee[DEAD_WALLET] = true */\n  dup1\n  sload\n  swap1\n  swap3\n  and\n  or\n  swap1\n  sstore\n    /* \"contracts/shia20.sol\":6769:6781  _msgSender() */\n  tag_55\n    /* \"contracts/shia20.sol\":821:831  msg.sender */\n  caller\n  swap1\n    /* \"contracts/shia20.sol\":741:839  function _msgSender() internal view virtual returns (address) {... */\n  jump\n    /* \"contracts/shia20.sol\":6769:6781  _msgSender() */\ntag_55:\n  sub(shl(0xa0, 0x01), 0x01)\n    /* \"contracts/shia20.sol\":6748:6791  Transfer(address(0), _msgSender(), _tTotal) */\n  and\n    /* \"contracts/shia20.sol\":6765:6766  0 */\n  0x00\n    /* \"contracts/shia20.sol\":6748:6791  Transfer(address(0), _msgSender(), _tTotal) */\n  0xddf252ad1be2c89b69c2b068fc378daa952ba7f163c4a11628f55a4df523b3ef\n    /* \"contracts/shia20.sol\":5101:5114  10**_decimals */\n  tag_56\n    /* \"contracts/shia20.sol\":5044:5046  18 */\n  0x12\n    /* \"contracts/shia20.sol\":5101:5103  10 */\n  0x0a\n    /* \"contracts/shia20.sol\":5101:5114  10**_decimals */\n  tag_2\n  jump\t// in\ntag_56:\n    /* \"contracts/shia20.sol\":5088:5114  1000000000 * 10**_decimals */\n  tag_57\n  swap1\n    /* \"contracts/shia20.sol\":5088:5098  1000000000 */\n  0x3b9aca00\n    /* \"contracts/shia20.sol\":5088:5114  1000000000 * 10**_decimals */\n  tag_4\n  jump\t// in\ntag_57:\n    /* \"contracts/shia20.sol\":6748:6791  Transfer(address(0), _msgSender(), _tTotal) */\n  mload(0x40)\n    /* \"#utility.yul\":3936:3961   */\n  swap1\n  dup2\n  mstore\n    /* \"#utility.yul\":3924:3926   */\n  0x20\n    /* \"#utility.yul\":3909:3927   */\n  add\n    /* \"contracts/shia20.sol\":6748:6791  Transfer(address(0), _msgSender(), _tTotal) */\n  mload(0x40)\n  dup1\n  swap2\n  sub\n  swap1\n  log3\n    /* \"contracts/shia20.sol\":4119:12179  contract OneAnonataTime is Context, IERC20, Ownable {... */\n  jump(tag_75)\n    /* \"contracts/shia20.sol\":8130:8465  function _approve(address owner, address spender, uint256 amount) private {... */\ntag_21:\n  sub(shl(0xa0, 0x01), 0x01)\n    /* \"contracts/shia20.sol\":8223:8242  owner != address(0) */\n  dup4\n  and\n    /* \"contracts/shia20.sol\":8215:8283  require(owner != address(0), \"ERC20: approve from the zero address\") */\n  tag_63\n  jumpi\n  mload(0x40)\n  shl(0xe5, 0x461bcd)\n  dup2\n  mstore\n    /* \"#utility.yul\":4174:4176   */\n  0x20\n    /* \"contracts/shia20.sol\":8215:8283  require(owner != address(0), \"ERC20: approve from the zero address\") */\n  0x04\n  dup3\n  add\n    /* \"#utility.yul\":4156:4177   */\n  mstore\n    /* \"#utility.yul\":4213:4215   */\n  0x24\n    /* \"#utility.yul\":4193:4211   */\n  dup1\n  dup3\n  add\n    /* \"#utility.yul\":4186:4216   */\n  mstore\n    /* \"#utility.yul\":4252:4286   */\n  0x45524332303a20617070726f76652066726f6d20746865207a65726f20616464\n    /* \"#utility.yul\":4232:4250   */\n  0x44\n  dup3\n  add\n    /* \"#utility.yul\":4225:4287   */\n  mstore\n  shl(0xe0, 0x72657373)\n    /* \"#utility.yul\":4303:4321   */\n  0x64\n  dup3\n  add\n    /* \"#utility.yul\":4296:4330   */\n  mstore\n    /* \"#utility.yul\":4347:4366   */\n  0x84\n  add\n    /* \"contracts/shia20.sol\":8215:8283  require(owner != address(0), \"ERC20: approve from the zero address\") */\ntag_64:\n  mload(0x40)\n  dup1\n  swap2\n  sub\n  swap1\n  revert\ntag_63:\n  sub(shl(0xa0, 0x01), 0x01)\n    /* \"contracts/shia20.sol\":8302:8323  spender != address(0) */\n  dup3\n  and\n    /* \"contracts/shia20.sol\":8294:8362  require(spender != address(0), \"ERC20: approve to the zero address\") */\n  tag_66\n  jumpi\n  mload(0x40)\n  shl(0xe5, 0x461bcd)\n  dup2\n  mstore\n    /* \"#utility.yul\":4579:4581   */\n  0x20\n    /* \"contracts/shia20.sol\":8294:8362  require(spender != address(0), \"ERC20: approve to the zero address\") */\n  0x04\n  dup3\n  add\n    /* \"#utility.yul\":4561:4582   */\n  mstore\n    /* \"#utility.yul\":4618:4620   */\n  0x22\n    /* \"#utility.yul\":4598:4616   */\n  0x24\n  dup3\n  add\n    /* \"#utility.yul\":4591:4621   */\n  mstore\n    /* \"#utility.yul\":4657:4691   */\n  0x45524332303a20617070726f766520746f20746865207a65726f206164647265\n    /* \"#utility.yul\":4637:4655   */\n  0x44\n  dup3\n  add\n    /* \"#utility.yul\":4630:4692   */\n  mstore\n  shl(0xf0, 0x7373)\n    /* \"#utility.yul\":4708:4726   */\n  0x64\n  dup3\n  add\n    /* \"#utility.yul\":4701:4733   */\n  mstore\n    /* \"#utility.yul\":4750:4769   */\n  0x84\n  add\n    /* \"contracts/shia20.sol\":8294:8362  require(spender != address(0), \"ERC20: approve to the zero address\") */\n  tag_64\n    /* \"#utility.yul\":4377:4775   */\n  jump\n    /* \"contracts/shia20.sol\":8294:8362  require(spender != address(0), \"ERC20: approve to the zero address\") */\ntag_66:\n  sub(shl(0xa0, 0x01), 0x01)\n    /* \"contracts/shia20.sol\":8373:8391  _allowances[owner] */\n  dup4\n  dup2\n  and\n  0x00\n  dup2\n  dup2\n  mstore\n    /* \"contracts/shia20.sol\":8373:8384  _allowances */\n  0x02\n    /* \"contracts/shia20.sol\":8373:8391  _allowances[owner] */\n  0x20\n  swap1\n  dup2\n  mstore\n  0x40\n  dup1\n  dup4\n  keccak256\n    /* \"contracts/shia20.sol\":8373:8400  _allowances[owner][spender] */\n  swap5\n  dup8\n  and\n  dup1\n  dup5\n  mstore\n  swap5\n  dup3\n  mstore\n  swap2\n  dup3\n  swap1\n  keccak256\n    /* \"contracts/shia20.sol\":8373:8409  _allowances[owner][spender] = amount */\n  dup6\n  swap1\n  sstore\n    /* \"contracts/shia20.sol\":8425:8457  Approval(owner, spender, amount) */\n  swap1\n  mload\n    /* \"#utility.yul\":3936:3961   */\n  dup5\n  dup2\n  mstore\n    /* \"contracts/shia20.sol\":8425:8457  Approval(owner, spender, amount) */\n  0x8c5be1e5ebec7d5bd14f71427d1e84f3dd0314c0f7b2291e5b200ac8c7c3b925\n  swap2\n    /* \"#utility.yul\":3909:3927   */\n  add\n    /* \"contracts/shia20.sol\":8425:8457  Approval(owner, spender, amount) */\n  mload(0x40)\n  dup1\n  swap2\n  sub\n  swap1\n  log3\n    /* \"contracts/shia20.sol\":8130:8465  function _approve(address owner, address spender, uint256 amount) private {... */\n  pop\n  pop\n  pop\n  jump\t// out\n    /* \"#utility.yul\":14:141   */\ntag_72:\n    /* \"#utility.yul\":75:85   */\n  0x4e487b71\n    /* \"#utility.yul\":70:73   */\n  0xe0\n    /* \"#utility.yul\":66:86   */\n  shl\n    /* \"#utility.yul\":63:64   */\n  0x00\n    /* \"#utility.yul\":56:87   */\n  mstore\n    /* \"#utility.yul\":106:110   */\n  0x11\n    /* \"#utility.yul\":103:104   */\n  0x04\n    /* \"#utility.yul\":96:111   */\n  mstore\n    /* \"#utility.yul\":130:134   */\n  0x24\n    /* \"#utility.yul\":127:128   */\n  0x00\n    /* \"#utility.yul\":120:135   */\n  revert\n    /* \"#utility.yul\":146:568   */\ntag_73:\n    /* \"#utility.yul\":235:236   */\n  0x01\n    /* \"#utility.yul\":278:283   */\n  dup2\n    /* \"#utility.yul\":235:236   */\n  dup2\n    /* \"#utility.yul\":292:562   */\ntag_78:\n    /* \"#utility.yul\":313:320   */\n  dup1\n    /* \"#utility.yul\":303:311   */\n  dup6\n    /* \"#utility.yul\":300:321   */\n  gt\n    /* \"#utility.yul\":292:562   */\n  iszero\n  tag_80\n  jumpi\n    /* \"#utility.yul\":372:376   */\n  dup2\n    /* \"#utility.yul\":368:369   */\n  0x00\n    /* \"#utility.yul\":364:370   */\n  not\n    /* \"#utility.yul\":360:377   */\n  div\n    /* \"#utility.yul\":354:358   */\n  dup3\n    /* \"#utility.yul\":351:378   */\n  gt\n    /* \"#utility.yul\":348:401   */\n  iszero\n  tag_82\n  jumpi\n    /* \"#utility.yul\":381:399   */\n  tag_82\n  tag_72\n  jump\t// in\ntag_82:\n    /* \"#utility.yul\":431:438   */\n  dup1\n    /* \"#utility.yul\":421:429   */\n  dup6\n    /* \"#utility.yul\":417:439   */\n  and\n    /* \"#utility.yul\":414:469   */\n  iszero\n  tag_83\n  jumpi\n    /* \"#utility.yul\":451:467   */\n  swap2\n  dup2\n  mul\n  swap2\n    /* \"#utility.yul\":414:469   */\ntag_83:\n    /* \"#utility.yul\":530:552   */\n  swap4\n  dup5\n  shr\n  swap4\n    /* \"#utility.yul\":490:505   */\n  swap1\n  dup1\n  mul\n  swap1\n    /* \"#utility.yul\":292:562   */\n  jump(tag_78)\ntag_80:\n    /* \"#utility.yul\":296:299   */\n  pop\n    /* \"#utility.yul\":146:568   */\n  swap3\n  pop\n  swap3\n  swap1\n  pop\n  jump\t// out\n    /* \"#utility.yul\":573:1379   */\ntag_74:\n    /* \"#utility.yul\":622:627   */\n  0x00\n    /* \"#utility.yul\":652:660   */\n  dup3\n    /* \"#utility.yul\":642:722   */\n  tag_85\n  jumpi\n  pop\n    /* \"#utility.yul\":693:694   */\n  0x01\n    /* \"#utility.yul\":707:712   */\n  jump(tag_84)\n    /* \"#utility.yul\":642:722   */\ntag_85:\n    /* \"#utility.yul\":741:745   */\n  dup2\n    /* \"#utility.yul\":731:807   */\n  tag_86\n  jumpi\n  pop\n    /* \"#utility.yul\":778:779   */\n  0x00\n    /* \"#utility.yul\":792:797   */\n  jump(tag_84)\n    /* \"#utility.yul\":731:807   */\ntag_86:\n    /* \"#utility.yul\":823:827   */\n  dup2\n    /* \"#utility.yul\":841:842   */\n  0x01\n    /* \"#utility.yul\":836:895   */\n  dup2\n  eq\n  tag_88\n  jumpi\n    /* \"#utility.yul\":909:910   */\n  0x02\n    /* \"#utility.yul\":904:1034   */\n  dup2\n  eq\n  tag_89\n  jumpi\n    /* \"#utility.yul\":816:1034   */\n  jump(tag_87)\n    /* \"#utility.yul\":836:895   */\ntag_88:\n    /* \"#utility.yul\":866:867   */\n  0x01\n    /* \"#utility.yul\":857:867   */\n  swap2\n  pop\n    /* \"#utility.yul\":880:885   */\n  pop\n  jump(tag_84)\n    /* \"#utility.yul\":904:1034   */\ntag_89:\n    /* \"#utility.yul\":941:944   */\n  0xff\n    /* \"#utility.yul\":931:939   */\n  dup5\n    /* \"#utility.yul\":928:945   */\n  gt\n    /* \"#utility.yul\":925:968   */\n  iszero\n  tag_91\n  jumpi\n    /* \"#utility.yul\":948:966   */\n  tag_91\n  tag_72\n  jump\t// in\ntag_91:\n  pop\n  pop\n    /* \"#utility.yul\":1004:1005   */\n  0x01\n    /* \"#utility.yul\":990:1006   */\n  dup3\n  shl\n    /* \"#utility.yul\":1019:1024   */\n  jump(tag_84)\n    /* \"#utility.yul\":816:1034   */\ntag_87:\n  pop\n    /* \"#utility.yul\":1118:1120   */\n  0x20\n    /* \"#utility.yul\":1108:1116   */\n  dup4\n    /* \"#utility.yul\":1105:1121   */\n  lt\n    /* \"#utility.yul\":1099:1102   */\n  0x0133\n    /* \"#utility.yul\":1093:1097   */\n  dup4\n    /* \"#utility.yul\":1090:1103   */\n  lt\n    /* \"#utility.yul\":1086:1122   */\n  and\n    /* \"#utility.yul\":1080:1082   */\n  0x4e\n    /* \"#utility.yul\":1070:1078   */\n  dup5\n    /* \"#utility.yul\":1067:1083   */\n  lt\n    /* \"#utility.yul\":1062:1064   */\n  0x0b\n    /* \"#utility.yul\":1056:1060   */\n  dup5\n    /* \"#utility.yul\":1053:1065   */\n  lt\n    /* \"#utility.yul\":1049:1084   */\n  and\n    /* \"#utility.yul\":1046:1123   */\n  or\n    /* \"#utility.yul\":1043:1202   */\n  iszero\n  tag_92\n  jumpi\n  pop\n    /* \"#utility.yul\":1155:1174   */\n  dup2\n  dup2\n  exp\n    /* \"#utility.yul\":1187:1192   */\n  jump(tag_84)\n    /* \"#utility.yul\":1043:1202   */\ntag_92:\n    /* \"#utility.yul\":1234:1268   */\n  tag_93\n    /* \"#utility.yul\":1259:1267   */\n  dup4\n    /* \"#utility.yul\":1253:1257   */\n  dup4\n    /* \"#utility.yul\":1234:1268   */\n  tag_73\n  jump\t// in\ntag_93:\n    /* \"#utility.yul\":1304:1310   */\n  dup1\n    /* \"#utility.yul\":1300:1301   */\n  0x00\n    /* \"#utility.yul\":1296:1302   */\n  not\n    /* \"#utility.yul\":1292:1311   */\n  div\n    /* \"#utility.yul\":1283:1290   */\n  dup3\n    /* \"#utility.yul\":1280:1312   */\n  gt\n    /* \"#utility.yul\":1277:1335   */\n  iszero\n  tag_95\n  jumpi\n    /* \"#utility.yul\":1315:1333   */\n  tag_95\n  tag_72\n  jump\t// in\ntag_95:\n    /* \"#utility.yul\":1353:1373   */\n  mul\n  swap1\n  pop\n    /* \"#utility.yul\":573:1379   */\ntag_84:\n  swap3\n  swap2\n  pop\n  pop\n  jump\t// out\n    /* \"#utility.yul\":1384:1524   */\ntag_2:\n    /* \"#utility.yul\":1442:1447   */\n  0x00\n    /* \"#utility.yul\":1471:1518   */\n  tag_97\n    /* \"#utility.yul\":1512:1516   */\n  0xff\n    /* \"#utility.yul\":1502:1510   */\n  dup5\n    /* \"#utility.yul\":1498:1517   */\n  and\n    /* \"#utility.yul\":1492:1496   */\n  dup4\n    /* \"#utility.yul\":1471:1518   */\n  tag_74\n  jump\t// in\ntag_97:\n    /* \"#utility.yul\":1462:1518   */\n  swap4\n    /* \"#utility.yul\":1384:1524   */\n  swap3\n  pop\n  pop\n  pop\n  jump\t// out\n    /* \"#utility.yul\":1529:1697   */\ntag_4:\n    /* \"#utility.yul\":1602:1611   */\n  dup1\n  dup3\n  mul\n    /* \"#utility.yul\":1633:1642   */\n  dup2\n  iszero\n    /* \"#utility.yul\":1650:1665   */\n  dup3\n  dup3\n  div\n    /* \"#utility.yul\":1644:1666   */\n  dup5\n  eq\n    /* \"#utility.yul\":1630:1667   */\n  or\n    /* \"#utility.yul\":1620:1691   */\n  tag_84\n  jumpi\n    /* \"#utility.yul\":1671:1689   */\n  tag_84\n  tag_72\n  jump\t// in\n    /* \"#utility.yul\":1702:1992   */\ntag_25:\n    /* \"#utility.yul\":1772:1778   */\n  0x00\n    /* \"#utility.yul\":1825:1827   */\n  0x20\n    /* \"#utility.yul\":1813:1822   */\n  dup3\n    /* \"#utility.yul\":1804:1811   */\n  dup5\n    /* \"#utility.yul\":1800:1823   */\n  sub\n    /* \"#utility.yul\":1796:1828   */\n  slt\n    /* \"#utility.yul\":1793:1845   */\n  iszero\n  tag_102\n  jumpi\n    /* \"#utility.yul\":1841:1842   */\n  0x00\n    /* \"#utility.yul\":1838:1839   */\n  dup1\n    /* \"#utility.yul\":1831:1843   */\n  revert\n    /* \"#utility.yul\":1793:1845   */\ntag_102:\n    /* \"#utility.yul\":1867:1883   */\n  dup2\n  mload\n  sub(shl(0xa0, 0x01), 0x01)\n    /* \"#utility.yul\":1912:1943   */\n  dup2\n  and\n    /* \"#utility.yul\":1902:1944   */\n  dup2\n  eq\n    /* \"#utility.yul\":1892:1962   */\n  tag_97\n  jumpi\n    /* \"#utility.yul\":1958:1959   */\n  0x00\n    /* \"#utility.yul\":1955:1956   */\n  dup1\n    /* \"#utility.yul\":1948:1960   */\n  revert\n    /* \"#utility.yul\":2918:3224   */\ntag_43:\n    /* \"#utility.yul\":3006:3012   */\n  0x00\n    /* \"#utility.yul\":3014:3020   */\n  dup1\n    /* \"#utility.yul\":3022:3028   */\n  0x00\n    /* \"#utility.yul\":3075:3077   */\n  0x60\n    /* \"#utility.yul\":3063:3072   */\n  dup5\n    /* \"#utility.yul\":3054:3061   */\n  dup7\n    /* \"#utility.yul\":3050:3073   */\n  sub\n    /* \"#utility.yul\":3046:3078   */\n  slt\n    /* \"#utility.yul\":3043:3095   */\n  iszero\n  tag_107\n  jumpi\n    /* \"#utility.yul\":3091:3092   */\n  0x00\n    /* \"#utility.yul\":3088:3089   */\n  dup1\n    /* \"#utility.yul\":3081:3093   */\n  revert\n    /* \"#utility.yul\":3043:3095   */\ntag_107:\n    /* \"#utility.yul\":3120:3129   */\n  dup4\n    /* \"#utility.yul\":3114:3130   */\n  mload\n    /* \"#utility.yul\":3104:3130   */\n  swap3\n  pop\n    /* \"#utility.yul\":3170:3172   */\n  0x20\n    /* \"#utility.yul\":3159:3168   */\n  dup5\n    /* \"#utility.yul\":3155:3173   */\n  add\n    /* \"#utility.yul\":3149:3174   */\n  mload\n    /* \"#utility.yul\":3139:3174   */\n  swap2\n  pop\n    /* \"#utility.yul\":3214:3216   */\n  0x40\n    /* \"#utility.yul\":3203:3212   */\n  dup5\n    /* \"#utility.yul\":3199:3217   */\n  add\n    /* \"#utility.yul\":3193:3218   */\n  mload\n    /* \"#utility.yul\":3183:3218   */\n  swap1\n  pop\n    /* \"#utility.yul\":2918:3224   */\n  swap3\n  pop\n  swap3\n  pop\n  swap3\n  jump\t// out\n    /* \"#utility.yul\":3508:3785   */\ntag_49:\n    /* \"#utility.yul\":3575:3581   */\n  0x00\n    /* \"#utility.yul\":3628:3630   */\n  0x20\n    /* \"#utility.yul\":3616:3625   */\n  dup3\n    /* \"#utility.yul\":3607:3614   */\n  dup5\n    /* \"#utility.yul\":3603:3626   */\n  sub\n    /* \"#utility.yul\":3599:3631   */\n  slt\n    /* \"#utility.yul\":3596:3648   */\n  iszero\n  tag_110\n  jumpi\n    /* \"#utility.yul\":3644:3645   */\n  0x00\n    /* \"#utility.yul\":3641:3642   */\n  dup1\n    /* \"#utility.yul\":3634:3646   */\n  revert\n    /* \"#utility.yul\":3596:3648   */\ntag_110:\n    /* \"#utility.yul\":3676:3685   */\n  dup2\n    /* \"#utility.yul\":3670:3686   */\n  mload\n    /* \"#utility.yul\":3729:3734   */\n  dup1\n    /* \"#utility.yul\":3722:3735   */\n  iszero\n    /* \"#utility.yul\":3715:3736   */\n  iszero\n    /* \"#utility.yul\":3708:3713   */\n  dup2\n    /* \"#utility.yul\":3705:3737   */\n  eq\n    /* \"#utility.yul\":3695:3755   */\n  tag_97\n  jumpi\n    /* \"#utility.yul\":3751:3752   */\n  0x00\n    /* \"#utility.yul\":3748:3749   */\n  dup1\n    /* \"#utility.yul\":3741:3753   */\n  revert\n    /* \"#utility.yul\":4377:4775   */\ntag_75:\n    /* \"contracts/shia20.sol\":4119:12179  contract OneAnonataTime is Context, IERC20, Ownable {... */\n  dataSize(sub_0)\n  dup1\n  dataOffset(sub_0)\n  0x00\n  codecopy\n  0x00\n  return\nstop\n\nsub_0: assembly {\n        /* \"contracts/shia20.sol\":4119:12179  contract OneAnonataTime is Context, IERC20, Ownable {... */\n      mstore(0x40, 0x80)\n      jumpi(tag_1, lt(calldatasize, 0x04))\n      shr(0xe0, calldataload(0x00))\n      dup1\n      0x751039fc\n      gt\n      tag_22\n      jumpi\n      dup1\n      0xa01c3483\n      gt\n      tag_23\n      jumpi\n      dup1\n      0xa01c3483\n      eq\n      tag_17\n      jumpi\n      dup1\n      0xa9059cbb\n      eq\n      tag_18\n      jumpi\n      dup1\n      0xbf474bed\n      eq\n      tag_19\n      jumpi\n      dup1\n      0xc876d0b9\n      eq\n      tag_20\n      jumpi\n      dup1\n      0xdd62ed3e\n      eq\n      tag_21\n      jumpi\n      0x00\n      dup1\n      revert\n    tag_23:\n      dup1\n      0x751039fc\n      eq\n      tag_12\n      jumpi\n      dup1\n      0x7d1db4a5\n      eq\n      tag_13\n      jumpi\n      dup1\n      0x8da5cb5b\n      eq\n      tag_14\n      jumpi\n      dup1\n      0x8f9a55c0\n      eq\n      tag_15\n      jumpi\n      dup1\n      0x95d89b41\n      eq\n      tag_16\n      jumpi\n      0x00\n      dup1\n      revert\n    tag_22:\n      dup1\n      0x23b872dd\n      gt\n      tag_24\n      jumpi\n      dup1\n      0x23b872dd\n      eq\n      tag_7\n      jumpi\n      dup1\n      0x313ce567\n      eq\n      tag_8\n      jumpi\n      dup1\n      0x51bc3c85\n      eq\n      tag_9\n      jumpi\n      dup1\n      0x70a08231\n      eq\n      tag_10\n      jumpi\n      dup1\n      0x715018a6\n      eq\n      tag_11\n      jumpi\n      0x00\n      dup1\n      revert\n    tag_24:\n      dup1\n      0x06fdde03\n      eq\n      tag_3\n      jumpi\n      dup1\n      0x095ea7b3\n      eq\n      tag_4\n      jumpi\n      dup1\n      0x0faee56f\n      eq\n      tag_5\n      jumpi\n      dup1\n      0x18160ddd\n      eq\n      tag_6\n      jumpi\n      0x00\n      dup1\n      revert\n    tag_1:\n      jumpi(tag_2, calldatasize)\n      stop\n    tag_2:\n      0x00\n      dup1\n      revert\n        /* \"contracts/shia20.sol\":6807:6890  function name() public pure returns (string memory) {... */\n    tag_3:\n      callvalue\n      dup1\n      iszero\n      tag_27\n      jumpi\n      0x00\n      dup1\n      revert\n    tag_27:\n      pop\n        /* \"contracts/shia20.sol\":6877:6882  _name */\n      0x40\n      dup1\n      mload\n      dup1\n      dup3\n      add\n      swap1\n      swap2\n      mstore\n      0x08\n      dup2\n      mstore\n      shl(0xc1, 0x27b7329020b737b7)\n      0x20\n      dup3\n      add\n      mstore\n        /* \"contracts/shia20.sol\":6807:6890  function name() public pure returns (string memory) {... */\n    tag_28:\n      mload(0x40)\n      tag_30\n      swap2\n      swap1\n      tag_31\n      jump\t// in\n    tag_30:\n      mload(0x40)\n      dup1\n      swap2\n      sub\n      swap1\n      return\n        /* \"contracts/shia20.sol\":7640:7801  function approve(address spender, uint256 amount) public override returns (bool) {... */\n    tag_4:\n      callvalue\n      dup1\n      iszero\n      tag_32\n      jumpi\n      0x00\n      dup1\n      revert\n    tag_32:\n      pop\n      tag_33\n      tag_34\n      calldatasize\n      0x04\n      tag_35\n      jump\t// in\n    tag_34:\n      tag_36\n      jump\t// in\n    tag_33:\n      mload(0x40)\n        /* \"#utility.yul\":1188:1202   */\n      swap1\n      iszero\n        /* \"#utility.yul\":1181:1203   */\n      iszero\n        /* \"#utility.yul\":1163:1204   */\n      dup2\n      mstore\n        /* \"#utility.yul\":1151:1153   */\n      0x20\n        /* \"#utility.yul\":1136:1154   */\n      add\n        /* \"contracts/shia20.sol\":7640:7801  function approve(address spender, uint256 amount) public override returns (bool) {... */\n      tag_30\n        /* \"#utility.yul\":1023:1210   */\n      jump\n        /* \"contracts/shia20.sol\":5419:5470  uint256 public _maxTaxSwap= 3000000 * 10**_decimals */\n    tag_5:\n      callvalue\n      dup1\n      iszero\n      tag_39\n      jumpi\n      0x00\n      dup1\n      revert\n    tag_39:\n      pop\n      tag_40\n      sload(0x12)\n      dup2\n      jump\n    tag_40:\n      mload(0x40)\n        /* \"#utility.yul\":1361:1386   */\n      swap1\n      dup2\n      mstore\n        /* \"#utility.yul\":1349:1351   */\n      0x20\n        /* \"#utility.yul\":1334:1352   */\n      add\n        /* \"contracts/shia20.sol\":5419:5470  uint256 public _maxTaxSwap= 3000000 * 10**_decimals */\n      tag_30\n        /* \"#utility.yul\":1215:1392   */\n      jump\n        /* \"contracts/shia20.sol\":7084:7179  function totalSupply() public pure override returns (uint256) {... */\n    tag_6:\n      callvalue\n      dup1\n      iszero\n      tag_44\n      jumpi\n      0x00\n      dup1\n      revert\n    tag_44:\n      pop\n      tag_40\n      tag_46\n      jump\t// in\n        /* \"contracts/shia20.sol\":7809:8122  function transferFrom(address sender, address recipient, uint256 amount) public override returns (bool) {... */\n    tag_7:\n      callvalue\n      dup1\n      iszero\n      tag_48\n      jumpi\n      0x00\n      dup1\n      revert\n    tag_48:\n      pop\n      tag_33\n      tag_50\n      calldatasize\n      0x04\n      tag_51\n      jump\t// in\n    tag_50:\n      tag_52\n      jump\t// in\n        /* \"contracts/shia20.sol\":6993:7076  function decimals() public pure returns (uint8) {... */\n    tag_8:\n      callvalue\n      dup1\n      iszero\n      tag_54\n      jumpi\n      0x00\n      dup1\n      revert\n    tag_54:\n      pop\n      mload(0x40)\n        /* \"contracts/shia20.sol\":5044:5046  18 */\n      0x12\n        /* \"#utility.yul\":2000:2036   */\n      dup2\n      mstore\n        /* \"#utility.yul\":1988:1990   */\n      0x20\n        /* \"#utility.yul\":1973:1991   */\n      add\n        /* \"contracts/shia20.sol\":6993:7076  function decimals() public pure returns (uint8) {... */\n      tag_30\n        /* \"#utility.yul\":1858:2042   */\n      jump\n        /* \"contracts/shia20.sol\":11828:12176  function manualSwap() external {... */\n    tag_9:\n      callvalue\n      dup1\n      iszero\n      tag_59\n      jumpi\n      0x00\n      dup1\n      revert\n    tag_59:\n      pop\n      tag_60\n      tag_61\n      jump\t// in\n    tag_60:\n      stop\n        /* \"contracts/shia20.sol\":7187:7306  function balanceOf(address account) public view override returns (uint256) {... */\n    tag_10:\n      callvalue\n      dup1\n      iszero\n      tag_62\n      jumpi\n      0x00\n      dup1\n      revert\n    tag_62:\n      pop\n      tag_40\n      tag_64\n      calldatasize\n      0x04\n      tag_65\n      jump\t// in\n    tag_64:\n      sub(shl(0xa0, 0x01), 0x01)\n        /* \"contracts/shia20.sol\":7280:7298  _balances[account] */\n      and\n        /* \"contracts/shia20.sol\":7253:7260  uint256 */\n      0x00\n        /* \"contracts/shia20.sol\":7280:7298  _balances[account] */\n      swap1\n      dup2\n      mstore\n        /* \"contracts/shia20.sol\":7280:7289  _balances */\n      0x01\n        /* \"contracts/shia20.sol\":7280:7298  _balances[account] */\n      0x20\n      mstore\n      0x40\n      swap1\n      keccak256\n      sload\n      swap1\n        /* \"contracts/shia20.sol\":7187:7306  function balanceOf(address account) public view override returns (uint256) {... */\n      jump\n        /* \"contracts/shia20.sol\":3200:3348  function renounceOwnership() public virtual onlyOwner {... */\n    tag_11:\n      callvalue\n      dup1\n      iszero\n      tag_68\n      jumpi\n      0x00\n      dup1\n      revert\n    tag_68:\n      pop\n      tag_60\n      tag_70\n      jump\t// in\n        /* \"contracts/shia20.sol\":11487:11683  function removeLimits() external onlyOwner{... */\n    tag_12:\n      callvalue\n      dup1\n      iszero\n      tag_71\n      jumpi\n      0x00\n      dup1\n      revert\n    tag_71:\n      pop\n      tag_60\n      tag_73\n      jump\t// in\n        /* \"contracts/shia20.sol\":5231:5285  uint256 public _maxTxAmount = 10000000 * 10**_decimals */\n    tag_13:\n      callvalue\n      dup1\n      iszero\n      tag_74\n      jumpi\n      0x00\n      dup1\n      revert\n    tag_74:\n      pop\n      tag_40\n      sload(0x0f)\n      dup2\n      jump\n        /* \"contracts/shia20.sol\":2986:3065  function owner() public view returns (address) {... */\n    tag_14:\n      callvalue\n      dup1\n      iszero\n      tag_78\n      jumpi\n      0x00\n      dup1\n      revert\n    tag_78:\n      pop\n        /* \"contracts/shia20.sol\":3024:3031  address */\n      0x00\n        /* \"contracts/shia20.sol\":3051:3057  _owner */\n      sload\n      sub(shl(0xa0, 0x01), 0x01)\n      and\n        /* \"contracts/shia20.sol\":2986:3065  function owner() public view returns (address) {... */\n    tag_79:\n      mload(0x40)\n      sub(shl(0xa0, 0x01), 0x01)\n        /* \"#utility.yul\":2463:2495   */\n      swap1\n      swap2\n      and\n        /* \"#utility.yul\":2445:2496   */\n      dup2\n      mstore\n        /* \"#utility.yul\":2433:2435   */\n      0x20\n        /* \"#utility.yul\":2418:2436   */\n      add\n        /* \"contracts/shia20.sol\":2986:3065  function owner() public view returns (address) {... */\n      tag_30\n        /* \"#utility.yul\":2299:2502   */\n      jump\n        /* \"contracts/shia20.sol\":5292:5348  uint256 public _maxWalletSize = 10000000 * 10**_decimals */\n    tag_15:\n      callvalue\n      dup1\n      iszero\n      tag_83\n      jumpi\n      0x00\n      dup1\n      revert\n    tag_83:\n      pop\n      tag_40\n      sload(0x10)\n      dup2\n      jump\n        /* \"contracts/shia20.sol\":6898:6985  function symbol() public pure returns (string memory) {... */\n    tag_16:\n      callvalue\n      dup1\n      iszero\n      tag_87\n      jumpi\n      0x00\n      dup1\n      revert\n    tag_87:\n      pop\n        /* \"contracts/shia20.sol\":6970:6977  _symbol */\n      0x40\n      dup1\n      mload\n      dup1\n      dup3\n      add\n      swap1\n      swap2\n      mstore\n      0x04\n      dup2\n      mstore\n      shl(0xe2, 0x0913d055)\n      0x20\n      dup3\n      add\n      mstore\n        /* \"contracts/shia20.sol\":6898:6985  function symbol() public pure returns (string memory) {... */\n      jump(tag_28)\n        /* \"contracts/shia20.sol\":4602:4682  address public constant DEAD_WALLET = 0x000000000000000000000000000000000000dEaD */\n    tag_17:\n      callvalue\n      dup1\n      iszero\n      tag_91\n      jumpi\n      0x00\n      dup1\n      revert\n    tag_91:\n      pop\n      tag_79\n        /* \"contracts/shia20.sol\":4640:4682  0x000000000000000000000000000000000000dEaD */\n      0xdead\n        /* \"contracts/shia20.sol\":4602:4682  address public constant DEAD_WALLET = 0x000000000000000000000000000000000000dEaD */\n      dup2\n      jump\n        /* \"contracts/shia20.sol\":7314:7481  function transfer(address recipient, uint256 amount) public override returns (bool) {... */\n    tag_18:\n      callvalue\n      dup1\n      iszero\n      tag_95\n      jumpi\n      0x00\n      dup1\n      revert\n    tag_95:\n      pop\n      tag_33\n      tag_97\n      calldatasize\n      0x04\n      tag_35\n      jump\t// in\n    tag_97:\n      tag_98\n      jump\t// in\n        /* \"contracts/shia20.sol\":5355:5412  uint256 public _taxSwapThreshold= 1000000 * 10**_decimals */\n    tag_19:\n      callvalue\n      dup1\n      iszero\n      tag_100\n      jumpi\n      0x00\n      dup1\n      revert\n    tag_100:\n      pop\n      tag_40\n      sload(0x11)\n      dup2\n      jump\n        /* \"contracts/shia20.sol\":4515:4554  bool public transferDelayEnabled = true */\n    tag_20:\n      callvalue\n      dup1\n      iszero\n      tag_104\n      jumpi\n      0x00\n      dup1\n      revert\n    tag_104:\n      pop\n      sload(0x06)\n      tag_33\n      swap1\n      0xff\n      and\n      dup2\n      jump\n        /* \"contracts/shia20.sol\":7489:7632  function allowance(address owner, address spender) public view override returns (uint256) {... */\n    tag_21:\n      callvalue\n      dup1\n      iszero\n      tag_108\n      jumpi\n      0x00\n      dup1\n      revert\n    tag_108:\n      pop\n      tag_40\n      tag_110\n      calldatasize\n      0x04\n      tag_111\n      jump\t// in\n    tag_110:\n      sub(shl(0xa0, 0x01), 0x01)\n        /* \"contracts/shia20.sol\":7597:7615  _allowances[owner] */\n      swap2\n      dup3\n      and\n        /* \"contracts/shia20.sol\":7570:7577  uint256 */\n      0x00\n        /* \"contracts/shia20.sol\":7597:7615  _allowances[owner] */\n      swap1\n      dup2\n      mstore\n        /* \"contracts/shia20.sol\":7597:7608  _allowances */\n      0x02\n        /* \"contracts/shia20.sol\":7597:7615  _allowances[owner] */\n      0x20\n      swap1\n      dup2\n      mstore\n      0x40\n      dup1\n      dup4\n      keccak256\n        /* \"contracts/shia20.sol\":7597:7624  _allowances[owner][spender] */\n      swap4\n      swap1\n      swap5\n      and\n      dup3\n      mstore\n      swap2\n      swap1\n      swap2\n      mstore\n      keccak256\n      sload\n      swap1\n        /* \"contracts/shia20.sol\":7489:7632  function allowance(address owner, address spender) public view override returns (uint256) {... */\n      jump\n        /* \"contracts/shia20.sol\":7640:7801  function approve(address spender, uint256 amount) public override returns (bool) {... */\n    tag_36:\n        /* \"contracts/shia20.sol\":7715:7719  bool */\n      0x00\n        /* \"contracts/shia20.sol\":7732:7771  _approve(_msgSender(), spender, amount) */\n      tag_116\n        /* \"contracts/shia20.sol\":821:831  msg.sender */\n      caller\n        /* \"contracts/shia20.sol\":7755:7762  spender */\n      dup5\n        /* \"contracts/shia20.sol\":7764:7770  amount */\n      dup5\n        /* \"contracts/shia20.sol\":7732:7740  _approve */\n      tag_119\n        /* \"contracts/shia20.sol\":7732:7771  _approve(_msgSender(), spender, amount) */\n      jump\t// in\n    tag_116:\n      pop\n        /* \"contracts/shia20.sol\":7789:7793  true */\n      0x01\n        /* \"contracts/shia20.sol\":7640:7801  function approve(address spender, uint256 amount) public override returns (bool) {... */\n    tag_115:\n      swap3\n      swap2\n      pop\n      pop\n      jump\t// out\n        /* \"contracts/shia20.sol\":7084:7179  function totalSupply() public pure override returns (uint256) {... */\n    tag_46:\n        /* \"contracts/shia20.sol\":7137:7144  uint256 */\n      0x00\n        /* \"contracts/shia20.sol\":5101:5114  10**_decimals */\n      tag_121\n        /* \"contracts/shia20.sol\":5044:5046  18 */\n      0x12\n        /* \"contracts/shia20.sol\":5101:5103  10 */\n      0x0a\n        /* \"contracts/shia20.sol\":5101:5114  10**_decimals */\n      tag_122\n      jump\t// in\n    tag_121:\n        /* \"contracts/shia20.sol\":5088:5114  1000000000 * 10**_decimals */\n      tag_123\n      swap1\n        /* \"contracts/shia20.sol\":5088:5098  1000000000 */\n      0x3b9aca00\n        /* \"contracts/shia20.sol\":5088:5114  1000000000 * 10**_decimals */\n      tag_124\n      jump\t// in\n    tag_123:\n        /* \"contracts/shia20.sol\":7157:7171  return _tTotal */\n      swap1\n      pop\n        /* \"contracts/shia20.sol\":7084:7179  function totalSupply() public pure override returns (uint256) {... */\n      swap1\n      jump\t// out\n        /* \"contracts/shia20.sol\":7809:8122  function transferFrom(address sender, address recipient, uint256 amount) public override returns (bool) {... */\n    tag_52:\n        /* \"contracts/shia20.sol\":7907:7911  bool */\n      0x00\n        /* \"contracts/shia20.sol\":7924:7960  _transfer(sender, recipient, amount) */\n      tag_126\n        /* \"contracts/shia20.sol\":7934:7940  sender */\n      dup5\n        /* \"contracts/shia20.sol\":7942:7951  recipient */\n      dup5\n        /* \"contracts/shia20.sol\":7953:7959  amount */\n      dup5\n        /* \"contracts/shia20.sol\":7924:7933  _transfer */\n      tag_127\n        /* \"contracts/shia20.sol\":7924:7960  _transfer(sender, recipient, amount) */\n      jump\t// in\n    tag_126:\n        /* \"contracts/shia20.sol\":7971:8092  _approve(sender, _msgSender(), _allowances[sender][_msgSender()].sub(amount, \"ERC20: transfer amount exceeds allowance\")) */\n      tag_128\n        /* \"contracts/shia20.sol\":7980:7986  sender */\n      dup5\n        /* \"contracts/shia20.sol\":821:831  msg.sender */\n      caller\n        /* \"contracts/shia20.sol\":8002:8091  _allowances[sender][_msgSender()].sub(amount, \"ERC20: transfer amount exceeds allowance\") */\n      tag_130\n        /* \"contracts/shia20.sol\":8040:8046  amount */\n      dup6\n        /* \"contracts/shia20.sol\":8002:8091  _allowances[sender][_msgSender()].sub(amount, \"ERC20: transfer amount exceeds allowance\") */\n      mload(0x40)\n      dup1\n      0x60\n      add\n      0x40\n      mstore\n      dup1\n      0x28\n      dup2\n      mstore\n      0x20\n      add\n      data_974d1b4421da69cc60b481194f0dad36a5bb4e23da810da7a7fb30cdba178330\n      0x28\n      swap2\n      codecopy\n      sub(shl(0xa0, 0x01), 0x01)\n        /* \"contracts/shia20.sol\":8002:8021  _allowances[sender] */\n      dup11\n      and\n      0x00\n      swap1\n      dup2\n      mstore\n        /* \"contracts/shia20.sol\":8002:8013  _allowances */\n      0x02\n        /* \"contracts/shia20.sol\":8002:8021  _allowances[sender] */\n      0x20\n      swap1\n      dup2\n      mstore\n      0x40\n      dup1\n      dup4\n      keccak256\n        /* \"contracts/shia20.sol\":821:831  msg.sender */\n      caller\n        /* \"contracts/shia20.sol\":8002:8035  _allowances[sender][_msgSender()] */\n      dup5\n      mstore\n      swap1\n      swap2\n      mstore\n      swap1\n      keccak256\n      sload\n      swap2\n      swap1\n        /* \"contracts/shia20.sol\":8002:8039  _allowances[sender][_msgSender()].sub */\n      tag_132\n        /* \"contracts/shia20.sol\":8002:8091  _allowances[sender][_msgSender()].sub(amount, \"ERC20: transfer amount exceeds allowance\") */\n      jump\t// in\n    tag_130:\n        /* \"contracts/shia20.sol\":7971:7979  _approve */\n      tag_119\n        /* \"contracts/shia20.sol\":7971:8092  _approve(sender, _msgSender(), _allowances[sender][_msgSender()].sub(amount, \"ERC20: transfer amount exceeds allowance\")) */\n      jump\t// in\n    tag_128:\n      pop\n        /* \"contracts/shia20.sol\":8110:8114  true */\n      0x01\n        /* \"contracts/shia20.sol\":7809:8122  function transferFrom(address sender, address recipient, uint256 amount) public override returns (bool) {... */\n      swap4\n      swap3\n      pop\n      pop\n      pop\n      jump\t// out\n        /* \"contracts/shia20.sol\":11828:12176  function manualSwap() external {... */\n    tag_61:\n        /* \"contracts/shia20.sol\":11892:11902  _taxWallet */\n      sload(0x06)\n      0x0100\n      swap1\n      div\n      sub(shl(0xa0, 0x01), 0x01)\n      and\n        /* \"contracts/shia20.sol\":821:831  msg.sender */\n      caller\n      sub(shl(0xa0, 0x01), 0x01)\n        /* \"contracts/shia20.sol\":11878:11902  _msgSender()==_taxWallet */\n      and\n      eq\n        /* \"contracts/shia20.sol\":11870:11903  require(_msgSender()==_taxWallet) */\n      tag_136\n      jumpi\n      0x00\n      dup1\n      revert\n    tag_136:\n        /* \"contracts/shia20.sol\":11953:11957  this */\n      address\n        /* \"contracts/shia20.sol\":11914:11934  uint256 tokenBalance */\n      0x00\n        /* \"contracts/shia20.sol\":7280:7298  _balances[account] */\n      swap1\n      dup2\n      mstore\n        /* \"contracts/shia20.sol\":7280:7289  _balances */\n      0x01\n        /* \"contracts/shia20.sol\":7280:7298  _balances[account] */\n      0x20\n      mstore\n      0x40\n      swap1\n      keccak256\n      sload\n        /* \"contracts/shia20.sol\":11973:11987  tokenBalance>0 */\n      dup1\n      iszero\n        /* \"contracts/shia20.sol\":11970:12043  if(tokenBalance>0){... */\n      tag_139\n      jumpi\n        /* \"contracts/shia20.sol\":12001:12031  swapTokensForEth(tokenBalance) */\n      tag_139\n        /* \"contracts/shia20.sol\":12018:12030  tokenBalance */\n      dup2\n        /* \"contracts/shia20.sol\":12001:12017  swapTokensForEth */\n      tag_140\n        /* \"contracts/shia20.sol\":12001:12031  swapTokensForEth(tokenBalance) */\n      jump\t// in\n    tag_139:\n        /* \"contracts/shia20.sol\":12072:12093  address(this).balance */\n      selfbalance\n        /* \"contracts/shia20.sol\":12107:12119  ethBalance>0 */\n      dup1\n      iszero\n        /* \"contracts/shia20.sol\":12104:12169  if(ethBalance>0){... */\n      tag_142\n      jumpi\n        /* \"contracts/shia20.sol\":12133:12157  sendETHToFee(ethBalance) */\n      tag_142\n        /* \"contracts/shia20.sol\":12146:12156  ethBalance */\n      dup2\n        /* \"contracts/shia20.sol\":12133:12145  sendETHToFee */\n      tag_143\n        /* \"contracts/shia20.sol\":12133:12157  sendETHToFee(ethBalance) */\n      jump\t// in\n    tag_142:\n        /* \"contracts/shia20.sol\":11859:12176  {... */\n      pop\n      pop\n        /* \"contracts/shia20.sol\":11828:12176  function manualSwap() external {... */\n      jump\t// out\n        /* \"contracts/shia20.sol\":3200:3348  function renounceOwnership() public virtual onlyOwner {... */\n    tag_70:\n        /* \"contracts/shia20.sol\":3113:3119  _owner */\n      and(sub(shl(0xa0, 0x01), 0x01), sload(0x00))\n        /* \"contracts/shia20.sol\":821:831  msg.sender */\n      caller\n        /* \"contracts/shia20.sol\":3113:3135  _owner == _msgSender() */\n      eq\n        /* \"contracts/shia20.sol\":3105:3172  require(_owner == _msgSender(), \"Ownable: caller is not the owner\") */\n      tag_147\n      jumpi\n      mload(0x40)\n      shl(0xe5, 0x461bcd)\n      dup2\n      mstore\n        /* \"#utility.yul\":4790:4792   */\n      0x20\n        /* \"contracts/shia20.sol\":3105:3172  require(_owner == _msgSender(), \"Ownable: caller is not the owner\") */\n      0x04\n      dup3\n      add\n        /* \"#utility.yul\":4772:4793   */\n      dup2\n      swap1\n      mstore\n        /* \"#utility.yul\":4809:4827   */\n      0x24\n      dup3\n      add\n        /* \"#utility.yul\":4802:4832   */\n      mstore\n        /* \"#utility.yul\":4868:4902   */\n      0x4f776e61626c653a2063616c6c6572206973206e6f7420746865206f776e6572\n        /* \"#utility.yul\":4848:4866   */\n      0x44\n      dup3\n      add\n        /* \"#utility.yul\":4841:4903   */\n      mstore\n        /* \"#utility.yul\":4920:4938   */\n      0x64\n      add\n        /* \"contracts/shia20.sol\":3105:3172  require(_owner == _msgSender(), \"Ownable: caller is not the owner\") */\n    tag_148:\n      mload(0x40)\n      dup1\n      swap2\n      sub\n      swap1\n      revert\n    tag_147:\n        /* \"contracts/shia20.sol\":3307:3308  0 */\n      0x00\n        /* \"contracts/shia20.sol\":3291:3297  _owner */\n      dup1\n      sload\n        /* \"contracts/shia20.sol\":3270:3310  OwnershipTransferred(_owner, address(0)) */\n      mload(0x40)\n      sub(shl(0xa0, 0x01), 0x01)\n        /* \"contracts/shia20.sol\":3291:3297  _owner */\n      swap1\n      swap2\n      and\n      swap1\n        /* \"contracts/shia20.sol\":3270:3310  OwnershipTransferred(_owner, address(0)) */\n      0x8be0079c531659141344cd1fd0a4f28419497f9722a3daafe3b4186f6b6457e0\n      swap1\n        /* \"contracts/shia20.sol\":3307:3308  0 */\n      dup4\n      swap1\n        /* \"contracts/shia20.sol\":3270:3310  OwnershipTransferred(_owner, address(0)) */\n      log3\n        /* \"contracts/shia20.sol\":3338:3339  0 */\n      0x00\n        /* \"contracts/shia20.sol\":3321:3340  _owner = address(0) */\n      dup1\n      sload\n      not(sub(shl(0xa0, 0x01), 0x01))\n      and\n      swap1\n      sstore\n        /* \"contracts/shia20.sol\":3200:3348  function renounceOwnership() public virtual onlyOwner {... */\n      jump\t// out\n        /* \"contracts/shia20.sol\":11487:11683  function removeLimits() external onlyOwner{... */\n    tag_73:\n        /* \"contracts/shia20.sol\":3113:3119  _owner */\n      and(sub(shl(0xa0, 0x01), 0x01), sload(0x00))\n        /* \"contracts/shia20.sol\":821:831  msg.sender */\n      caller\n        /* \"contracts/shia20.sol\":3113:3135  _owner == _msgSender() */\n      eq\n        /* \"contracts/shia20.sol\":3105:3172  require(_owner == _msgSender(), \"Ownable: caller is not the owner\") */\n      tag_153\n      jumpi\n      mload(0x40)\n      shl(0xe5, 0x461bcd)\n      dup2\n      mstore\n        /* \"#utility.yul\":4790:4792   */\n      0x20\n        /* \"contracts/shia20.sol\":3105:3172  require(_owner == _msgSender(), \"Ownable: caller is not the owner\") */\n      0x04\n      dup3\n      add\n        /* \"#utility.yul\":4772:4793   */\n      dup2\n      swap1\n      mstore\n        /* \"#utility.yul\":4809:4827   */\n      0x24\n      dup3\n      add\n        /* \"#utility.yul\":4802:4832   */\n      mstore\n        /* \"#utility.yul\":4868:4902   */\n      0x4f776e61626c653a2063616c6c6572206973206e6f7420746865206f776e6572\n        /* \"#utility.yul\":4848:4866   */\n      0x44\n      dup3\n      add\n        /* \"#utility.yul\":4841:4903   */\n      mstore\n        /* \"#utility.yul\":4920:4938   */\n      0x64\n      add\n        /* \"contracts/shia20.sol\":3105:3172  require(_owner == _msgSender(), \"Ownable: caller is not the owner\") */\n      tag_148\n        /* \"#utility.yul\":4588:4944   */\n      jump\n        /* \"contracts/shia20.sol\":3105:3172  require(_owner == _msgSender(), \"Ownable: caller is not the owner\") */\n    tag_153:\n        /* \"contracts/shia20.sol\":5101:5114  10**_decimals */\n      tag_156\n        /* \"contracts/shia20.sol\":5044:5046  18 */\n      0x12\n        /* \"contracts/shia20.sol\":5101:5103  10 */\n      0x0a\n        /* \"contracts/shia20.sol\":5101:5114  10**_decimals */\n      tag_122\n      jump\t// in\n    tag_156:\n        /* \"contracts/shia20.sol\":5088:5114  1000000000 * 10**_decimals */\n      tag_157\n      swap1\n        /* \"contracts/shia20.sol\":5088:5098  1000000000 */\n      0x3b9aca00\n        /* \"contracts/shia20.sol\":5088:5114  1000000000 * 10**_decimals */\n      tag_124\n      jump\t// in\n    tag_157:\n        /* \"contracts/shia20.sol\":11540:11552  _maxTxAmount */\n      0x0f\n        /* \"contracts/shia20.sol\":11540:11562  _maxTxAmount = _tTotal */\n      sstore\n        /* \"contracts/shia20.sol\":5101:5114  10**_decimals */\n      tag_158\n        /* \"contracts/shia20.sol\":5044:5046  18 */\n      0x12\n        /* \"contracts/shia20.sol\":5101:5103  10 */\n      0x0a\n        /* \"contracts/shia20.sol\":5101:5114  10**_decimals */\n      tag_122\n      jump\t// in\n    tag_158:\n        /* \"contracts/shia20.sol\":5088:5114  1000000000 * 10**_decimals */\n      tag_159\n      swap1\n        /* \"contracts/shia20.sol\":5088:5098  1000000000 */\n      0x3b9aca00\n        /* \"contracts/shia20.sol\":5088:5114  1000000000 * 10**_decimals */\n      tag_124\n      jump\t// in\n    tag_159:\n        /* \"contracts/shia20.sol\":11573:11587  _maxWalletSize */\n      0x10\n        /* \"contracts/shia20.sol\":11573:11595  _maxWalletSize=_tTotal */\n      sstore\n        /* \"contracts/shia20.sol\":11606:11626  transferDelayEnabled */\n      0x06\n        /* \"contracts/shia20.sol\":11606:11632  transferDelayEnabled=false */\n      dup1\n      sload\n      not(0xff)\n      and\n      swap1\n      sstore\n        /* \"contracts/shia20.sol\":11648:11675  MaxTxAmountUpdated(_tTotal) */\n      0x947f344d56e1e8c70dc492fb94c4ddddd490c016aab685f5e7e47b2e85cb44cf\n        /* \"contracts/shia20.sol\":5101:5114  10**_decimals */\n      tag_160\n        /* \"contracts/shia20.sol\":5044:5046  18 */\n      0x12\n      0x0a\n        /* \"contracts/shia20.sol\":5101:5114  10**_decimals */\n      tag_122\n      jump\t// in\n    tag_160:\n        /* \"contracts/shia20.sol\":5088:5114  1000000000 * 10**_decimals */\n      tag_161\n      swap1\n        /* \"contracts/shia20.sol\":5088:5098  1000000000 */\n      0x3b9aca00\n        /* \"contracts/shia20.sol\":5088:5114  1000000000 * 10**_decimals */\n      tag_124\n      jump\t// in\n    tag_161:\n        /* \"contracts/shia20.sol\":11648:11675  MaxTxAmountUpdated(_tTotal) */\n      mload(0x40)\n        /* \"#utility.yul\":1361:1386   */\n      swap1\n      dup2\n      mstore\n        /* \"#utility.yul\":1349:1351   */\n      0x20\n        /* \"#utility.yul\":1334:1352   */\n      add\n        /* \"contracts/shia20.sol\":11648:11675  MaxTxAmountUpdated(_tTotal) */\n      mload(0x40)\n      dup1\n      swap2\n      sub\n      swap1\n      log1\n        /* \"contracts/shia20.sol\":11487:11683  function removeLimits() external onlyOwner{... */\n      jump\t// out\n        /* \"contracts/shia20.sol\":7314:7481  function transfer(address recipient, uint256 amount) public override returns (bool) {... */\n    tag_98:\n        /* \"contracts/shia20.sol\":7392:7396  bool */\n      0x00\n        /* \"contracts/shia20.sol\":7409:7451  _transfer(_msgSender(), recipient, amount) */\n      tag_116\n        /* \"contracts/shia20.sol\":821:831  msg.sender */\n      caller\n        /* \"contracts/shia20.sol\":7433:7442  recipient */\n      dup5\n        /* \"contracts/shia20.sol\":7444:7450  amount */\n      dup5\n        /* \"contracts/shia20.sol\":7409:7418  _transfer */\n      tag_127\n        /* \"contracts/shia20.sol\":7409:7451  _transfer(_msgSender(), recipient, amount) */\n      jump\t// in\n        /* \"contracts/shia20.sol\":8130:8465  function _approve(address owner, address spender, uint256 amount) private {... */\n    tag_119:\n      sub(shl(0xa0, 0x01), 0x01)\n        /* \"contracts/shia20.sol\":8223:8242  owner != address(0) */\n      dup4\n      and\n        /* \"contracts/shia20.sol\":8215:8283  require(owner != address(0), \"ERC20: approve from the zero address\") */\n      tag_171\n      jumpi\n      mload(0x40)\n      shl(0xe5, 0x461bcd)\n      dup2\n      mstore\n        /* \"#utility.yul\":5151:5153   */\n      0x20\n        /* \"contracts/shia20.sol\":8215:8283  require(owner != address(0), \"ERC20: approve from the zero address\") */\n      0x04\n      dup3\n      add\n        /* \"#utility.yul\":5133:5154   */\n      mstore\n        /* \"#utility.yul\":5190:5192   */\n      0x24\n        /* \"#utility.yul\":5170:5188   */\n      dup1\n      dup3\n      add\n        /* \"#utility.yul\":5163:5193   */\n      mstore\n        /* \"#utility.yul\":5229:5263   */\n      0x45524332303a20617070726f76652066726f6d20746865207a65726f20616464\n        /* \"#utility.yul\":5209:5227   */\n      0x44\n      dup3\n      add\n        /* \"#utility.yul\":5202:5264   */\n      mstore\n      shl(0xe0, 0x72657373)\n        /* \"#utility.yul\":5280:5298   */\n      0x64\n      dup3\n      add\n        /* \"#utility.yul\":5273:5307   */\n      mstore\n        /* \"#utility.yul\":5324:5343   */\n      0x84\n      add\n        /* \"contracts/shia20.sol\":8215:8283  require(owner != address(0), \"ERC20: approve from the zero address\") */\n      tag_148\n        /* \"#utility.yul\":4949:5349   */\n      jump\n        /* \"contracts/shia20.sol\":8215:8283  require(owner != address(0), \"ERC20: approve from the zero address\") */\n    tag_171:\n      sub(shl(0xa0, 0x01), 0x01)\n        /* \"contracts/shia20.sol\":8302:8323  spender != address(0) */\n      dup3\n      and\n        /* \"contracts/shia20.sol\":8294:8362  require(spender != address(0), \"ERC20: approve to the zero address\") */\n      tag_174\n      jumpi\n      mload(0x40)\n      shl(0xe5, 0x461bcd)\n      dup2\n      mstore\n        /* \"#utility.yul\":5556:5558   */\n      0x20\n        /* \"contracts/shia20.sol\":8294:8362  require(spender != address(0), \"ERC20: approve to the zero address\") */\n      0x04\n      dup3\n      add\n        /* \"#utility.yul\":5538:5559   */\n      mstore\n        /* \"#utility.yul\":5595:5597   */\n      0x22\n        /* \"#utility.yul\":5575:5593   */\n      0x24\n      dup3\n      add\n        /* \"#utility.yul\":5568:5598   */\n      mstore\n        /* \"#utility.yul\":5634:5668   */\n      0x45524332303a20617070726f766520746f20746865207a65726f206164647265\n        /* \"#utility.yul\":5614:5632   */\n      0x44\n      dup3\n      add\n        /* \"#utility.yul\":5607:5669   */\n      mstore\n      shl(0xf0, 0x7373)\n        /* \"#utility.yul\":5685:5703   */\n      0x64\n      dup3\n      add\n        /* \"#utility.yul\":5678:5710   */\n      mstore\n        /* \"#utility.yul\":5727:5746   */\n      0x84\n      add\n        /* \"contracts/shia20.sol\":8294:8362  require(spender != address(0), \"ERC20: approve to the zero address\") */\n      tag_148\n        /* \"#utility.yul\":5354:5752   */\n      jump\n        /* \"contracts/shia20.sol\":8294:8362  require(spender != address(0), \"ERC20: approve to the zero address\") */\n    tag_174:\n      sub(shl(0xa0, 0x01), 0x01)\n        /* \"contracts/shia20.sol\":8373:8391  _allowances[owner] */\n      dup4\n      dup2\n      and\n      0x00\n      dup2\n      dup2\n      mstore\n        /* \"contracts/shia20.sol\":8373:8384  _allowances */\n      0x02\n        /* \"contracts/shia20.sol\":8373:8391  _allowances[owner] */\n      0x20\n      swap1\n      dup2\n      mstore\n      0x40\n      dup1\n      dup4\n      keccak256\n        /* \"contracts/shia20.sol\":8373:8400  _allowances[owner][spender] */\n      swap5\n      dup8\n      and\n      dup1\n      dup5\n      mstore\n      swap5\n      dup3\n      mstore\n      swap2\n      dup3\n      swap1\n      keccak256\n        /* \"contracts/shia20.sol\":8373:8409  _allowances[owner][spender] = amount */\n      dup6\n      swap1\n      sstore\n        /* \"contracts/shia20.sol\":8425:8457  Approval(owner, spender, amount) */\n      swap1\n      mload\n        /* \"#utility.yul\":1361:1386   */\n      dup5\n      dup2\n      mstore\n        /* \"contracts/shia20.sol\":8425:8457  Approval(owner, spender, amount) */\n      0x8c5be1e5ebec7d5bd14f71427d1e84f3dd0314c0f7b2291e5b200ac8c7c3b925\n      swap2\n        /* \"#utility.yul\":1334:1352   */\n      add\n        /* \"contracts/shia20.sol\":8425:8457  Approval(owner, spender, amount) */\n      mload(0x40)\n      dup1\n      swap2\n      sub\n      swap1\n      log3\n        /* \"contracts/shia20.sol\":8130:8465  function _approve(address owner, address spender, uint256 amount) private {... */\n      pop\n      pop\n      pop\n      jump\t// out\n        /* \"contracts/shia20.sol\":8473:10880  function _transfer(address from, address to, uint256 amount) private {... */\n    tag_127:\n      sub(shl(0xa0, 0x01), 0x01)\n        /* \"contracts/shia20.sol\":8561:8579  from != address(0) */\n      dup4\n      and\n        /* \"contracts/shia20.sol\":8553:8621  require(from != address(0), \"ERC20: transfer from the zero address\") */\n      tag_179\n      jumpi\n      mload(0x40)\n      shl(0xe5, 0x461bcd)\n      dup2\n      mstore\n        /* \"#utility.yul\":5959:5961   */\n      0x20\n        /* \"contracts/shia20.sol\":8553:8621  require(from != address(0), \"ERC20: transfer from the zero address\") */\n      0x04\n      dup3\n      add\n        /* \"#utility.yul\":5941:5962   */\n      mstore\n        /* \"#utility.yul\":5998:6000   */\n      0x25\n        /* \"#utility.yul\":5978:5996   */\n      0x24\n      dup3\n      add\n        /* \"#utility.yul\":5971:6001   */\n      mstore\n        /* \"#utility.yul\":6037:6071   */\n      0x45524332303a207472616e736665722066726f6d20746865207a65726f206164\n        /* \"#utility.yul\":6017:6035   */\n      0x44\n      dup3\n      add\n        /* \"#utility.yul\":6010:6072   */\n      mstore\n      shl(0xd8, 0x6472657373)\n        /* \"#utility.yul\":6088:6106   */\n      0x64\n      dup3\n      add\n        /* \"#utility.yul\":6081:6116   */\n      mstore\n        /* \"#utility.yul\":6133:6152   */\n      0x84\n      add\n        /* \"contracts/shia20.sol\":8553:8621  require(from != address(0), \"ERC20: transfer from the zero address\") */\n      tag_148\n        /* \"#utility.yul\":5757:6158   */\n      jump\n        /* \"contracts/shia20.sol\":8553:8621  require(from != address(0), \"ERC20: transfer from the zero address\") */\n    tag_179:\n      sub(shl(0xa0, 0x01), 0x01)\n        /* \"contracts/shia20.sol\":8640:8656  to != address(0) */\n      dup3\n      and\n        /* \"contracts/shia20.sol\":8632:8696  require(to != address(0), \"ERC20: transfer to the zero address\") */\n      tag_182\n      jumpi\n      mload(0x40)\n      shl(0xe5, 0x461bcd)\n      dup2\n      mstore\n        /* \"#utility.yul\":6365:6367   */\n      0x20\n        /* \"contracts/shia20.sol\":8632:8696  require(to != address(0), \"ERC20: transfer to the zero address\") */\n      0x04\n      dup3\n      add\n        /* \"#utility.yul\":6347:6368   */\n      mstore\n        /* \"#utility.yul\":6404:6406   */\n      0x23\n        /* \"#utility.yul\":6384:6402   */\n      0x24\n      dup3\n      add\n        /* \"#utility.yul\":6377:6407   */\n      mstore\n        /* \"#utility.yul\":6443:6477   */\n      0x45524332303a207472616e7366657220746f20746865207a65726f2061646472\n        /* \"#utility.yul\":6423:6441   */\n      0x44\n      dup3\n      add\n        /* \"#utility.yul\":6416:6478   */\n      mstore\n      shl(0xe8, 0x657373)\n        /* \"#utility.yul\":6494:6512   */\n      0x64\n      dup3\n      add\n        /* \"#utility.yul\":6487:6520   */\n      mstore\n        /* \"#utility.yul\":6537:6556   */\n      0x84\n      add\n        /* \"contracts/shia20.sol\":8632:8696  require(to != address(0), \"ERC20: transfer to the zero address\") */\n      tag_148\n        /* \"#utility.yul\":6163:6562   */\n      jump\n        /* \"contracts/shia20.sol\":8632:8696  require(to != address(0), \"ERC20: transfer to the zero address\") */\n    tag_182:\n        /* \"contracts/shia20.sol\":8724:8725  0 */\n      0x00\n        /* \"contracts/shia20.sol\":8715:8721  amount */\n      dup2\n        /* \"contracts/shia20.sol\":8715:8725  amount > 0 */\n      gt\n        /* \"contracts/shia20.sol\":8707:8771  require(amount > 0, \"Transfer amount must be greater than zero\") */\n      tag_185\n      jumpi\n      mload(0x40)\n      shl(0xe5, 0x461bcd)\n      dup2\n      mstore\n        /* \"#utility.yul\":6769:6771   */\n      0x20\n        /* \"contracts/shia20.sol\":8707:8771  require(amount > 0, \"Transfer amount must be greater than zero\") */\n      0x04\n      dup3\n      add\n        /* \"#utility.yul\":6751:6772   */\n      mstore\n        /* \"#utility.yul\":6808:6810   */\n      0x29\n        /* \"#utility.yul\":6788:6806   */\n      0x24\n      dup3\n      add\n        /* \"#utility.yul\":6781:6811   */\n      mstore\n        /* \"#utility.yul\":6847:6881   */\n      0x5472616e7366657220616d6f756e74206d757374206265206772656174657220\n        /* \"#utility.yul\":6827:6845   */\n      0x44\n      dup3\n      add\n        /* \"#utility.yul\":6820:6882   */\n      mstore\n      shl(0xb8, 0x7468616e207a65726f)\n        /* \"#utility.yul\":6898:6916   */\n      0x64\n      dup3\n      add\n        /* \"#utility.yul\":6891:6930   */\n      mstore\n        /* \"#utility.yul\":6947:6966   */\n      0x84\n      add\n        /* \"contracts/shia20.sol\":8707:8771  require(amount > 0, \"Transfer amount must be greater than zero\") */\n      tag_148\n        /* \"#utility.yul\":6567:6972   */\n      jump\n        /* \"contracts/shia20.sol\":8707:8771  require(amount > 0, \"Transfer amount must be greater than zero\") */\n    tag_185:\n        /* \"contracts/shia20.sol\":8782:8799  uint256 taxAmount */\n      0x00\n        /* \"contracts/shia20.sol\":3051:3057  _owner */\n      dup1\n      sload\n      sub(shl(0xa0, 0x01), 0x01)\n        /* \"contracts/shia20.sol\":8816:8831  from != owner() */\n      dup6\n      dup2\n      and\n        /* \"contracts/shia20.sol\":3051:3057  _owner */\n      swap2\n      and\n        /* \"contracts/shia20.sol\":8816:8831  from != owner() */\n      eq\n      dup1\n      iszero\n      swap1\n        /* \"contracts/shia20.sol\":8816:8848  from != owner() && to != owner() */\n      tag_189\n      jumpi\n      pop\n        /* \"contracts/shia20.sol\":3024:3031  address */\n      0x00\n        /* \"contracts/shia20.sol\":3051:3057  _owner */\n      sload\n      sub(shl(0xa0, 0x01), 0x01)\n        /* \"contracts/shia20.sol\":8835:8848  to != owner() */\n      dup5\n      dup2\n      and\n        /* \"contracts/shia20.sol\":3051:3057  _owner */\n      swap2\n      and\n        /* \"contracts/shia20.sol\":8835:8848  to != owner() */\n      eq\n      iszero\n        /* \"contracts/shia20.sol\":8816:8848  from != owner() && to != owner() */\n    tag_189:\n        /* \"contracts/shia20.sol\":8812:10524  if (from != owner() && to != owner()) {... */\n      iszero\n      tag_191\n      jumpi\n        /* \"contracts/shia20.sol\":8877:8953  amount.mul((_buyCount>_reduceBuyTaxAt)?_finalBuyTax:_initialBuyTax).div(100) */\n      tag_192\n        /* \"contracts/shia20.sol\":8949:8952  100 */\n      0x64\n        /* \"contracts/shia20.sol\":8877:8944  amount.mul((_buyCount>_reduceBuyTaxAt)?_finalBuyTax:_initialBuyTax) */\n      tag_193\n        /* \"contracts/shia20.sol\":8899:8914  _reduceBuyTaxAt */\n      sload(0x0b)\n        /* \"contracts/shia20.sol\":8889:8898  _buyCount */\n      sload(0x0e)\n        /* \"contracts/shia20.sol\":8889:8914  _buyCount>_reduceBuyTaxAt */\n      gt\n        /* \"contracts/shia20.sol\":8888:8943  (_buyCount>_reduceBuyTaxAt)?_finalBuyTax:_initialBuyTax */\n      tag_194\n      jumpi\n        /* \"contracts/shia20.sol\":8929:8943  _initialBuyTax */\n      sload(0x07)\n        /* \"contracts/shia20.sol\":8888:8943  (_buyCount>_reduceBuyTaxAt)?_finalBuyTax:_initialBuyTax */\n      jump(tag_195)\n    tag_194:\n        /* \"contracts/shia20.sol\":8916:8928  _finalBuyTax */\n      sload(0x09)\n        /* \"contracts/shia20.sol\":8888:8943  (_buyCount>_reduceBuyTaxAt)?_finalBuyTax:_initialBuyTax */\n    tag_195:\n        /* \"contracts/shia20.sol\":8877:8883  amount */\n      dup6\n      swap1\n        /* \"contracts/shia20.sol\":8877:8887  amount.mul */\n      tag_196\n        /* \"contracts/shia20.sol\":8877:8944  amount.mul((_buyCount>_reduceBuyTaxAt)?_finalBuyTax:_initialBuyTax) */\n      jump\t// in\n    tag_193:\n        /* \"contracts/shia20.sol\":8877:8948  amount.mul((_buyCount>_reduceBuyTaxAt)?_finalBuyTax:_initialBuyTax).div */\n      swap1\n      tag_197\n        /* \"contracts/shia20.sol\":8877:8953  amount.mul((_buyCount>_reduceBuyTaxAt)?_finalBuyTax:_initialBuyTax).div(100) */\n      jump\t// in\n    tag_192:\n        /* \"contracts/shia20.sol\":8974:8994  transferDelayEnabled */\n      sload(0x06)\n        /* \"contracts/shia20.sol\":8865:8953  taxAmount = amount.mul((_buyCount>_reduceBuyTaxAt)?_finalBuyTax:_initialBuyTax).div(100) */\n      swap1\n      swap2\n      pop\n        /* \"contracts/shia20.sol\":8974:8994  transferDelayEnabled */\n      0xff\n      and\n        /* \"contracts/shia20.sol\":8970:9478  if (transferDelayEnabled) {... */\n      iszero\n      tag_200\n      jumpi\n        /* \"contracts/shia20.sol\":9035:9050  uniswapV2Router */\n      sload(0x13)\n      sub(shl(0xa0, 0x01), 0x01)\n        /* \"contracts/shia20.sol\":9021:9051  to != address(uniswapV2Router) */\n      dup5\n      dup2\n      and\n        /* \"contracts/shia20.sol\":9035:9050  uniswapV2Router */\n      swap2\n      and\n        /* \"contracts/shia20.sol\":9021:9051  to != address(uniswapV2Router) */\n      eq\n      dup1\n      iszero\n      swap1\n        /* \"contracts/shia20.sol\":9021:9083  to != address(uniswapV2Router) && to != address(uniswapV2Pair) */\n      tag_199\n      jumpi\n      pop\n        /* \"contracts/shia20.sol\":9069:9082  uniswapV2Pair */\n      sload(0x14)\n      sub(shl(0xa0, 0x01), 0x01)\n        /* \"contracts/shia20.sol\":9055:9083  to != address(uniswapV2Pair) */\n      dup5\n      dup2\n      and\n        /* \"contracts/shia20.sol\":9069:9082  uniswapV2Pair */\n      swap2\n      and\n        /* \"contracts/shia20.sol\":9055:9083  to != address(uniswapV2Pair) */\n      eq\n      iszero\n        /* \"contracts/shia20.sol\":9021:9083  to != address(uniswapV2Router) && to != address(uniswapV2Pair) */\n    tag_199:\n        /* \"contracts/shia20.sol\":9017:9461  if (to != address(uniswapV2Router) && to != address(uniswapV2Pair)) {... */\n      iszero\n      tag_200\n      jumpi\n        /* \"contracts/shia20.sol\":9175:9184  tx.origin */\n      origin\n        /* \"contracts/shia20.sol\":9146:9185  _holderLastTransferTimestamp[tx.origin] */\n      0x00\n      swap1\n      dup2\n      mstore\n        /* \"contracts/shia20.sol\":9146:9174  _holderLastTransferTimestamp */\n      0x05\n        /* \"contracts/shia20.sol\":9146:9185  _holderLastTransferTimestamp[tx.origin] */\n      0x20\n      mstore\n      0x40\n      swap1\n      keccak256\n      sload\n        /* \"contracts/shia20.sol\":9219:9231  block.number */\n      number\n      gt\n        /* \"contracts/shia20.sol\":9110:9360  require(... */\n      tag_201\n      jumpi\n      mload(0x40)\n      shl(0xe5, 0x461bcd)\n      dup2\n      mstore\n        /* \"#utility.yul\":7179:7181   */\n      0x20\n        /* \"contracts/shia20.sol\":9110:9360  require(... */\n      0x04\n      dup3\n      add\n        /* \"#utility.yul\":7161:7182   */\n      mstore\n        /* \"#utility.yul\":7218:7220   */\n      0x49\n        /* \"#utility.yul\":7198:7216   */\n      0x24\n      dup3\n      add\n        /* \"#utility.yul\":7191:7221   */\n      mstore\n        /* \"#utility.yul\":7257:7291   */\n      0x5f7472616e736665723a3a205472616e736665722044656c617920656e61626c\n        /* \"#utility.yul\":7237:7255   */\n      0x44\n      dup3\n      add\n        /* \"#utility.yul\":7230:7292   */\n      mstore\n        /* \"#utility.yul\":7328:7362   */\n      0x65642e20204f6e6c79206f6e652070757263686173652070657220626c6f636b\n        /* \"#utility.yul\":7308:7326   */\n      0x64\n      dup3\n      add\n        /* \"#utility.yul\":7301:7363   */\n      mstore\n      shl(0xb9, 0x1030b63637bbb2b217)\n        /* \"#utility.yul\":7379:7398   */\n      0x84\n      dup3\n      add\n        /* \"#utility.yul\":7372:7412   */\n      mstore\n        /* \"#utility.yul\":7429:7448   */\n      0xa4\n      add\n        /* \"contracts/shia20.sol\":9110:9360  require(... */\n      tag_148\n        /* \"#utility.yul\":6977:7454   */\n      jump\n        /* \"contracts/shia20.sol\":9110:9360  require(... */\n    tag_201:\n        /* \"contracts/shia20.sol\":9414:9423  tx.origin */\n      origin\n        /* \"contracts/shia20.sol\":9385:9424  _holderLastTransferTimestamp[tx.origin] */\n      0x00\n      swap1\n      dup2\n      mstore\n        /* \"contracts/shia20.sol\":9385:9413  _holderLastTransferTimestamp */\n      0x05\n        /* \"contracts/shia20.sol\":9385:9424  _holderLastTransferTimestamp[tx.origin] */\n      0x20\n      mstore\n      0x40\n      swap1\n      keccak256\n        /* \"contracts/shia20.sol\":9427:9439  block.number */\n      number\n        /* \"contracts/shia20.sol\":9385:9439  _holderLastTransferTimestamp[tx.origin] = block.number */\n      swap1\n      sstore\n        /* \"contracts/shia20.sol\":9017:9461  if (to != address(uniswapV2Router) && to != address(uniswapV2Pair)) {... */\n    tag_200:\n        /* \"contracts/shia20.sol\":9506:9519  uniswapV2Pair */\n      sload(0x14)\n      sub(shl(0xa0, 0x01), 0x01)\n        /* \"contracts/shia20.sol\":9498:9519  from == uniswapV2Pair */\n      dup6\n      dup2\n      and\n        /* \"contracts/shia20.sol\":9506:9519  uniswapV2Pair */\n      swap2\n      and\n        /* \"contracts/shia20.sol\":9498:9519  from == uniswapV2Pair */\n      eq\n        /* \"contracts/shia20.sol\":9498:9553  from == uniswapV2Pair && to != address(uniswapV2Router) */\n      dup1\n      iszero\n      tag_204\n      jumpi\n      pop\n        /* \"contracts/shia20.sol\":9537:9552  uniswapV2Router */\n      sload(0x13)\n      sub(shl(0xa0, 0x01), 0x01)\n        /* \"contracts/shia20.sol\":9523:9553  to != address(uniswapV2Router) */\n      dup5\n      dup2\n      and\n        /* \"contracts/shia20.sol\":9537:9552  uniswapV2Router */\n      swap2\n      and\n        /* \"contracts/shia20.sol\":9523:9553  to != address(uniswapV2Router) */\n      eq\n      iszero\n        /* \"contracts/shia20.sol\":9498:9553  from == uniswapV2Pair && to != address(uniswapV2Router) */\n    tag_204:\n        /* \"contracts/shia20.sol\":9498:9581  from == uniswapV2Pair && to != address(uniswapV2Router) && ! _isExcludedFromFee[to] */\n      dup1\n      iszero\n      tag_205\n      jumpi\n      pop\n      sub(shl(0xa0, 0x01), 0x01)\n        /* \"contracts/shia20.sol\":9559:9581  _isExcludedFromFee[to] */\n      dup4\n      and\n      0x00\n      swap1\n      dup2\n      mstore\n        /* \"contracts/shia20.sol\":9559:9577  _isExcludedFromFee */\n      0x03\n        /* \"contracts/shia20.sol\":9559:9581  _isExcludedFromFee[to] */\n      0x20\n      mstore\n      0x40\n      swap1\n      keccak256\n      sload\n      0xff\n      and\n        /* \"contracts/shia20.sol\":9557:9581  ! _isExcludedFromFee[to] */\n      iszero\n        /* \"contracts/shia20.sol\":9498:9581  from == uniswapV2Pair && to != address(uniswapV2Router) && ! _isExcludedFromFee[to] */\n    tag_205:\n        /* \"contracts/shia20.sol\":9494:9807  if (from == uniswapV2Pair && to != address(uniswapV2Router) && ! _isExcludedFromFee[to] ) {... */\n      iszero\n      tag_206\n      jumpi\n        /* \"contracts/shia20.sol\":9621:9633  _maxTxAmount */\n      sload(0x0f)\n        /* \"contracts/shia20.sol\":9611:9617  amount */\n      dup3\n        /* \"contracts/shia20.sol\":9611:9633  amount <= _maxTxAmount */\n      gt\n      iszero\n        /* \"contracts/shia20.sol\":9603:9663  require(amount <= _maxTxAmount, \"Exceeds the _maxTxAmount.\") */\n      tag_207\n      jumpi\n      mload(0x40)\n      shl(0xe5, 0x461bcd)\n      dup2\n      mstore\n        /* \"#utility.yul\":7661:7663   */\n      0x20\n        /* \"contracts/shia20.sol\":9603:9663  require(amount <= _maxTxAmount, \"Exceeds the _maxTxAmount.\") */\n      0x04\n      dup3\n      add\n        /* \"#utility.yul\":7643:7664   */\n      mstore\n        /* \"#utility.yul\":7700:7702   */\n      0x19\n        /* \"#utility.yul\":7680:7698   */\n      0x24\n      dup3\n      add\n        /* \"#utility.yul\":7673:7703   */\n      mstore\n        /* \"#utility.yul\":7739:7766   */\n      0x4578636565647320746865205f6d61785478416d6f756e742e00000000000000\n        /* \"#utility.yul\":7719:7737   */\n      0x44\n      dup3\n      add\n        /* \"#utility.yul\":7712:7767   */\n      mstore\n        /* \"#utility.yul\":7784:7802   */\n      0x64\n      add\n        /* \"contracts/shia20.sol\":9603:9663  require(amount <= _maxTxAmount, \"Exceeds the _maxTxAmount.\") */\n      tag_148\n        /* \"#utility.yul\":7459:7808   */\n      jump\n        /* \"contracts/shia20.sol\":9603:9663  require(amount <= _maxTxAmount, \"Exceeds the _maxTxAmount.\") */\n    tag_207:\n        /* \"contracts/shia20.sol\":9716:9730  _maxWalletSize */\n      sload(0x10)\n        /* \"contracts/shia20.sol\":9706:9712  amount */\n      dup3\n        /* \"contracts/shia20.sol\":9690:9703  balanceOf(to) */\n      tag_210\n        /* \"contracts/shia20.sol\":9700:9702  to */\n      dup6\n      sub(shl(0xa0, 0x01), 0x01)\n        /* \"contracts/shia20.sol\":7280:7298  _balances[account] */\n      and\n        /* \"contracts/shia20.sol\":7253:7260  uint256 */\n      0x00\n        /* \"contracts/shia20.sol\":7280:7298  _balances[account] */\n      swap1\n      dup2\n      mstore\n        /* \"contracts/shia20.sol\":7280:7289  _balances */\n      0x01\n        /* \"contracts/shia20.sol\":7280:7298  _balances[account] */\n      0x20\n      mstore\n      0x40\n      swap1\n      keccak256\n      sload\n      swap1\n        /* \"contracts/shia20.sol\":7187:7306  function balanceOf(address account) public view override returns (uint256) {... */\n      jump\n        /* \"contracts/shia20.sol\":9690:9703  balanceOf(to) */\n    tag_210:\n        /* \"contracts/shia20.sol\":9690:9712  balanceOf(to) + amount */\n      tag_211\n      swap2\n      swap1\n      tag_212\n      jump\t// in\n    tag_211:\n        /* \"contracts/shia20.sol\":9690:9730  balanceOf(to) + amount <= _maxWalletSize */\n      gt\n      iszero\n        /* \"contracts/shia20.sol\":9682:9761  require(balanceOf(to) + amount <= _maxWalletSize, \"Exceeds the maxWalletSize.\") */\n      tag_213\n      jumpi\n      mload(0x40)\n      shl(0xe5, 0x461bcd)\n      dup2\n      mstore\n        /* \"#utility.yul\":8145:8147   */\n      0x20\n        /* \"contracts/shia20.sol\":9682:9761  require(balanceOf(to) + amount <= _maxWalletSize, \"Exceeds the maxWalletSize.\") */\n      0x04\n      dup3\n      add\n        /* \"#utility.yul\":8127:8148   */\n      mstore\n        /* \"#utility.yul\":8184:8186   */\n      0x1a\n        /* \"#utility.yul\":8164:8182   */\n      0x24\n      dup3\n      add\n        /* \"#utility.yul\":8157:8187   */\n      mstore\n        /* \"#utility.yul\":8223:8251   */\n      0x4578636565647320746865206d617857616c6c657453697a652e000000000000\n        /* \"#utility.yul\":8203:8221   */\n      0x44\n      dup3\n      add\n        /* \"#utility.yul\":8196:8252   */\n      mstore\n        /* \"#utility.yul\":8269:8287   */\n      0x64\n      add\n        /* \"contracts/shia20.sol\":9682:9761  require(balanceOf(to) + amount <= _maxWalletSize, \"Exceeds the maxWalletSize.\") */\n      tag_148\n        /* \"#utility.yul\":7943:8293   */\n      jump\n        /* \"contracts/shia20.sol\":9682:9761  require(balanceOf(to) + amount <= _maxWalletSize, \"Exceeds the maxWalletSize.\") */\n    tag_213:\n        /* \"contracts/shia20.sol\":9780:9789  _buyCount */\n      0x0e\n        /* \"contracts/shia20.sol\":9780:9791  _buyCount++ */\n      dup1\n      sload\n      swap1\n        /* \"contracts/shia20.sol\":9780:9789  _buyCount */\n      0x00\n        /* \"contracts/shia20.sol\":9780:9791  _buyCount++ */\n      tag_216\n      dup4\n      tag_217\n      jump\t// in\n    tag_216:\n      swap2\n      swap1\n      pop\n      sstore\n      pop\n        /* \"contracts/shia20.sol\":9494:9807  if (from == uniswapV2Pair && to != address(uniswapV2Router) && ! _isExcludedFromFee[to] ) {... */\n    tag_206:\n        /* \"contracts/shia20.sol\":9832:9845  uniswapV2Pair */\n      sload(0x14)\n      sub(shl(0xa0, 0x01), 0x01)\n        /* \"contracts/shia20.sol\":9826:9845  to == uniswapV2Pair */\n      dup5\n      dup2\n      and\n        /* \"contracts/shia20.sol\":9832:9845  uniswapV2Pair */\n      swap2\n      and\n        /* \"contracts/shia20.sol\":9826:9845  to == uniswapV2Pair */\n      eq\n        /* \"contracts/shia20.sol\":9826:9869  to == uniswapV2Pair && from!= address(this) */\n      dup1\n      iszero\n      tag_218\n      jumpi\n      pop\n      sub(shl(0xa0, 0x01), 0x01)\n        /* \"contracts/shia20.sol\":9849:9869  from!= address(this) */\n      dup5\n      and\n        /* \"contracts/shia20.sol\":9864:9868  this */\n      address\n        /* \"contracts/shia20.sol\":9849:9869  from!= address(this) */\n      eq\n      iszero\n        /* \"contracts/shia20.sol\":9826:9869  to == uniswapV2Pair && from!= address(this) */\n    tag_218:\n        /* \"contracts/shia20.sol\":9823:9997  if(to == uniswapV2Pair && from!= address(this) ){... */\n      iszero\n      tag_219\n      jumpi\n        /* \"contracts/shia20.sol\":9902:9981  amount.mul((_buyCount>_reduceSellTaxAt)?_finalSellTax:_initialSellTax).div(100) */\n      tag_220\n        /* \"contracts/shia20.sol\":9977:9980  100 */\n      0x64\n        /* \"contracts/shia20.sol\":9902:9972  amount.mul((_buyCount>_reduceSellTaxAt)?_finalSellTax:_initialSellTax) */\n      tag_193\n        /* \"contracts/shia20.sol\":9924:9940  _reduceSellTaxAt */\n      sload(0x0c)\n        /* \"contracts/shia20.sol\":9914:9923  _buyCount */\n      sload(0x0e)\n        /* \"contracts/shia20.sol\":9914:9940  _buyCount>_reduceSellTaxAt */\n      gt\n        /* \"contracts/shia20.sol\":9913:9971  (_buyCount>_reduceSellTaxAt)?_finalSellTax:_initialSellTax */\n      tag_222\n      jumpi\n        /* \"contracts/shia20.sol\":9956:9971  _initialSellTax */\n      sload(0x08)\n        /* \"contracts/shia20.sol\":9913:9971  (_buyCount>_reduceSellTaxAt)?_finalSellTax:_initialSellTax */\n      jump(tag_195)\n    tag_222:\n        /* \"contracts/shia20.sol\":9942:9955  _finalSellTax */\n      sload(0x0a)\n        /* \"contracts/shia20.sol\":9902:9908  amount */\n      dup6\n      swap1\n        /* \"contracts/shia20.sol\":9902:9912  amount.mul */\n      tag_196\n        /* \"contracts/shia20.sol\":9902:9972  amount.mul((_buyCount>_reduceSellTaxAt)?_finalSellTax:_initialSellTax) */\n      jump\t// in\n        /* \"contracts/shia20.sol\":9902:9981  amount.mul((_buyCount>_reduceSellTaxAt)?_finalSellTax:_initialSellTax).div(100) */\n    tag_220:\n        /* \"contracts/shia20.sol\":9890:9981  taxAmount = amount.mul((_buyCount>_reduceSellTaxAt)?_finalSellTax:_initialSellTax).div(100) */\n      swap1\n      pop\n        /* \"contracts/shia20.sol\":9823:9997  if(to == uniswapV2Pair && from!= address(this) ){... */\n    tag_219:\n        /* \"contracts/shia20.sol\":10062:10066  this */\n      address\n        /* \"contracts/shia20.sol\":10013:10041  uint256 contractTokenBalance */\n      0x00\n        /* \"contracts/shia20.sol\":7280:7298  _balances[account] */\n      swap1\n      dup2\n      mstore\n        /* \"contracts/shia20.sol\":7280:7289  _balances */\n      0x01\n        /* \"contracts/shia20.sol\":7280:7298  _balances[account] */\n      0x20\n      mstore\n      0x40\n      swap1\n      keccak256\n      sload\n        /* \"contracts/shia20.sol\":10088:10094  inSwap */\n      sload(0x14)\n      shl(0xa8, 0x01)\n      swap1\n      div\n      0xff\n      and\n        /* \"contracts/shia20.sol\":10087:10094  !inSwap */\n      iszero\n        /* \"contracts/shia20.sol\":10087:10119  !inSwap && to   == uniswapV2Pair */\n      dup1\n      iszero\n      tag_225\n      jumpi\n      pop\n        /* \"contracts/shia20.sol\":10106:10119  uniswapV2Pair */\n      sload(0x14)\n      sub(shl(0xa0, 0x01), 0x01)\n        /* \"contracts/shia20.sol\":10098:10119  to   == uniswapV2Pair */\n      dup6\n      dup2\n      and\n        /* \"contracts/shia20.sol\":10106:10119  uniswapV2Pair */\n      swap2\n      and\n        /* \"contracts/shia20.sol\":10098:10119  to   == uniswapV2Pair */\n      eq\n        /* \"contracts/shia20.sol\":10087:10119  !inSwap && to   == uniswapV2Pair */\n    tag_225:\n        /* \"contracts/shia20.sol\":10087:10134  !inSwap && to   == uniswapV2Pair && swapEnabled */\n      dup1\n      iszero\n      tag_226\n      jumpi\n      pop\n        /* \"contracts/shia20.sol\":10123:10134  swapEnabled */\n      sload(0x14)\n      shl(0xb0, 0x01)\n      swap1\n      div\n      0xff\n      and\n        /* \"contracts/shia20.sol\":10087:10134  !inSwap && to   == uniswapV2Pair && swapEnabled */\n    tag_226:\n        /* \"contracts/shia20.sol\":10087:10176  !inSwap && to   == uniswapV2Pair && swapEnabled && contractTokenBalance>_taxSwapThreshold */\n      dup1\n      iszero\n      tag_227\n      jumpi\n      pop\n        /* \"contracts/shia20.sol\":10159:10176  _taxSwapThreshold */\n      sload(0x11)\n        /* \"contracts/shia20.sol\":10138:10158  contractTokenBalance */\n      dup2\n        /* \"contracts/shia20.sol\":10138:10176  contractTokenBalance>_taxSwapThreshold */\n      gt\n        /* \"contracts/shia20.sol\":10087:10176  !inSwap && to   == uniswapV2Pair && swapEnabled && contractTokenBalance>_taxSwapThreshold */\n    tag_227:\n        /* \"contracts/shia20.sol\":10087:10208  !inSwap && to   == uniswapV2Pair && swapEnabled && contractTokenBalance>_taxSwapThreshold && _buyCount>_preventSwapBefore */\n      dup1\n      iszero\n      tag_228\n      jumpi\n      pop\n        /* \"contracts/shia20.sol\":10190:10208  _preventSwapBefore */\n      sload(0x0d)\n        /* \"contracts/shia20.sol\":10180:10189  _buyCount */\n      sload(0x0e)\n        /* \"contracts/shia20.sol\":10180:10208  _buyCount>_preventSwapBefore */\n      gt\n        /* \"contracts/shia20.sol\":10087:10208  !inSwap && to   == uniswapV2Pair && swapEnabled && contractTokenBalance>_taxSwapThreshold && _buyCount>_preventSwapBefore */\n    tag_228:\n        /* \"contracts/shia20.sol\":10083:10513  if (!inSwap && to   == uniswapV2Pair && swapEnabled && contractTokenBalance>_taxSwapThreshold && _buyCount>_preventSwapBefore) {... */\n      iszero\n      tag_229\n      jumpi\n        /* \"contracts/shia20.sol\":10229:10296  swapTokensForEth(min(amount,min(contractTokenBalance,_maxTaxSwap))) */\n      tag_230\n        /* \"contracts/shia20.sol\":10246:10295  min(amount,min(contractTokenBalance,_maxTaxSwap)) */\n      tag_231\n        /* \"contracts/shia20.sol\":10250:10256  amount */\n      dup5\n        /* \"contracts/shia20.sol\":10257:10294  min(contractTokenBalance,_maxTaxSwap) */\n      tag_232\n        /* \"contracts/shia20.sol\":10261:10281  contractTokenBalance */\n      dup5\n        /* \"contracts/shia20.sol\":10282:10293  _maxTaxSwap */\n      sload(0x12)\n        /* \"contracts/shia20.sol\":10257:10260  min */\n      tag_233\n        /* \"contracts/shia20.sol\":10257:10294  min(contractTokenBalance,_maxTaxSwap) */\n      jump\t// in\n    tag_232:\n        /* \"contracts/shia20.sol\":10246:10249  min */\n      tag_233\n        /* \"contracts/shia20.sol\":10246:10295  min(amount,min(contractTokenBalance,_maxTaxSwap)) */\n      jump\t// in\n    tag_231:\n        /* \"contracts/shia20.sol\":10229:10245  swapTokensForEth */\n      tag_140\n        /* \"contracts/shia20.sol\":10229:10296  swapTokensForEth(min(amount,min(contractTokenBalance,_maxTaxSwap))) */\n      jump\t// in\n    tag_230:\n        /* \"contracts/shia20.sol\":10344:10365  address(this).balance */\n      selfbalance\n        /* \"contracts/shia20.sol\":10408:10418  0.05 ether */\n      0xb1a2bc2ec50000\n        /* \"contracts/shia20.sol\":10387:10418  contractETHBalance > 0.05 ether */\n      dup2\n      gt\n        /* \"contracts/shia20.sol\":10384:10498  if(contractETHBalance > 0.05 ether) {... */\n      iszero\n      tag_235\n      jumpi\n        /* \"contracts/shia20.sol\":10443:10478  sendETHToFee(address(this).balance) */\n      tag_235\n        /* \"contracts/shia20.sol\":10456:10477  address(this).balance */\n      selfbalance\n        /* \"contracts/shia20.sol\":10443:10455  sendETHToFee */\n      tag_143\n        /* \"contracts/shia20.sol\":10443:10478  sendETHToFee(address(this).balance) */\n      jump\t// in\n    tag_235:\n        /* \"contracts/shia20.sol\":10210:10513  {... */\n      pop\n        /* \"contracts/shia20.sol\":10083:10513  if (!inSwap && to   == uniswapV2Pair && swapEnabled && contractTokenBalance>_taxSwapThreshold && _buyCount>_preventSwapBefore) {... */\n    tag_229:\n        /* \"contracts/shia20.sol\":8850:10524  {... */\n      pop\n        /* \"contracts/shia20.sol\":8812:10524  if (from != owner() && to != owner()) {... */\n    tag_191:\n        /* \"contracts/shia20.sol\":10539:10550  taxAmount>0 */\n      dup1\n      iszero\n        /* \"contracts/shia20.sol\":10536:10697  if(taxAmount>0){... */\n      tag_236\n      jumpi\n        /* \"contracts/shia20.sol\":10607:10611  this */\n      address\n        /* \"contracts/shia20.sol\":10589:10613  _balances[address(this)] */\n      0x00\n      swap1\n      dup2\n      mstore\n        /* \"contracts/shia20.sol\":10589:10598  _balances */\n      0x01\n        /* \"contracts/shia20.sol\":10589:10613  _balances[address(this)] */\n      0x20\n      mstore\n      0x40\n      swap1\n      keccak256\n      sload\n        /* \"contracts/shia20.sol\":10589:10628  _balances[address(this)].add(taxAmount) */\n      tag_237\n      swap1\n        /* \"contracts/shia20.sol\":10618:10627  taxAmount */\n      dup3\n        /* \"contracts/shia20.sol\":10589:10617  _balances[address(this)].add */\n      tag_238\n        /* \"contracts/shia20.sol\":10589:10628  _balances[address(this)].add(taxAmount) */\n      jump\t// in\n    tag_237:\n        /* \"contracts/shia20.sol\":10582:10586  this */\n      address\n        /* \"contracts/shia20.sol\":10564:10588  _balances[address(this)] */\n      0x00\n      dup2\n      dup2\n      mstore\n        /* \"contracts/shia20.sol\":10564:10573  _balances */\n      0x01\n        /* \"contracts/shia20.sol\":10564:10588  _balances[address(this)] */\n      0x20\n      mstore\n      0x40\n      swap1\n      dup2\n      swap1\n      keccak256\n        /* \"contracts/shia20.sol\":10564:10628  _balances[address(this)]=_balances[address(this)].add(taxAmount) */\n      swap3\n      swap1\n      swap3\n      sstore\n        /* \"contracts/shia20.sol\":10646:10685  Transfer(from, address(this),taxAmount) */\n      swap1\n      mload\n      sub(shl(0xa0, 0x01), 0x01)\n      dup7\n      and\n      swap1\n      0xddf252ad1be2c89b69c2b068fc378daa952ba7f163c4a11628f55a4df523b3ef\n      swap1\n      tag_239\n      swap1\n        /* \"contracts/shia20.sol\":10675:10684  taxAmount */\n      dup6\n        /* \"#utility.yul\":1361:1386   */\n      dup2\n      mstore\n        /* \"#utility.yul\":1349:1351   */\n      0x20\n        /* \"#utility.yul\":1334:1352   */\n      add\n      swap1\n        /* \"#utility.yul\":1215:1392   */\n      jump\n        /* \"contracts/shia20.sol\":10646:10685  Transfer(from, address(this),taxAmount) */\n    tag_239:\n      mload(0x40)\n      dup1\n      swap2\n      sub\n      swap1\n      log3\n        /* \"contracts/shia20.sol\":10536:10697  if(taxAmount>0){... */\n    tag_236:\n      sub(shl(0xa0, 0x01), 0x01)\n        /* \"contracts/shia20.sol\":10723:10738  _balances[from] */\n      dup5\n      and\n      0x00\n      swap1\n      dup2\n      mstore\n        /* \"contracts/shia20.sol\":10723:10732  _balances */\n      0x01\n        /* \"contracts/shia20.sol\":10723:10738  _balances[from] */\n      0x20\n      mstore\n      0x40\n      swap1\n      keccak256\n      sload\n        /* \"contracts/shia20.sol\":10723:10750  _balances[from].sub(amount) */\n      tag_240\n      swap1\n        /* \"contracts/shia20.sol\":10743:10749  amount */\n      dup4\n        /* \"contracts/shia20.sol\":10723:10742  _balances[from].sub */\n      tag_241\n        /* \"contracts/shia20.sol\":10723:10750  _balances[from].sub(amount) */\n      jump\t// in\n    tag_240:\n      sub(shl(0xa0, 0x01), 0x01)\n        /* \"contracts/shia20.sol\":10707:10722  _balances[from] */\n      dup6\n      and\n      0x00\n      swap1\n      dup2\n      mstore\n        /* \"contracts/shia20.sol\":10707:10716  _balances */\n      0x01\n        /* \"contracts/shia20.sol\":10707:10722  _balances[from] */\n      0x20\n      mstore\n      0x40\n      swap1\n      keccak256\n        /* \"contracts/shia20.sol\":10707:10750  _balances[from]=_balances[from].sub(amount) */\n      sstore\n        /* \"contracts/shia20.sol\":10775:10815  _balances[to].add(amount.sub(taxAmount)) */\n      tag_242\n        /* \"contracts/shia20.sol\":10793:10814  amount.sub(taxAmount) */\n      tag_243\n        /* \"contracts/shia20.sol\":10793:10799  amount */\n      dup4\n        /* \"contracts/shia20.sol\":10804:10813  taxAmount */\n      dup4\n        /* \"contracts/shia20.sol\":10793:10803  amount.sub */\n      tag_241\n        /* \"contracts/shia20.sol\":10793:10814  amount.sub(taxAmount) */\n      jump\t// in\n    tag_243:\n      sub(shl(0xa0, 0x01), 0x01)\n        /* \"contracts/shia20.sol\":10775:10788  _balances[to] */\n      dup6\n      and\n      0x00\n      swap1\n      dup2\n      mstore\n        /* \"contracts/shia20.sol\":10775:10784  _balances */\n      0x01\n        /* \"contracts/shia20.sol\":10775:10788  _balances[to] */\n      0x20\n      mstore\n      0x40\n      swap1\n      keccak256\n      sload\n      swap1\n        /* \"contracts/shia20.sol\":10775:10792  _balances[to].add */\n      tag_238\n        /* \"contracts/shia20.sol\":10775:10815  _balances[to].add(amount.sub(taxAmount)) */\n      jump\t// in\n    tag_242:\n      sub(shl(0xa0, 0x01), 0x01)\n        /* \"contracts/shia20.sol\":10761:10774  _balances[to] */\n      dup1\n      dup6\n      and\n      0x00\n      dup2\n      dup2\n      mstore\n        /* \"contracts/shia20.sol\":10761:10770  _balances */\n      0x01\n        /* \"contracts/shia20.sol\":10761:10774  _balances[to] */\n      0x20\n      mstore\n      0x40\n      swap1\n      keccak256\n        /* \"contracts/shia20.sol\":10761:10815  _balances[to]=_balances[to].add(amount.sub(taxAmount)) */\n      swap3\n      swap1\n      swap3\n      sstore\n        /* \"contracts/shia20.sol\":10831:10872  Transfer(from, to, amount.sub(taxAmount)) */\n      dup6\n      and\n      0xddf252ad1be2c89b69c2b068fc378daa952ba7f163c4a11628f55a4df523b3ef\n        /* \"contracts/shia20.sol\":10850:10871  amount.sub(taxAmount) */\n      tag_244\n        /* \"contracts/shia20.sol\":10850:10856  amount */\n      dup6\n        /* \"contracts/shia20.sol\":10861:10870  taxAmount */\n      dup6\n        /* \"contracts/shia20.sol\":10850:10860  amount.sub */\n      tag_241\n        /* \"contracts/shia20.sol\":10850:10871  amount.sub(taxAmount) */\n      jump\t// in\n    tag_244:\n        /* \"contracts/shia20.sol\":10831:10872  Transfer(from, to, amount.sub(taxAmount)) */\n      mload(0x40)\n        /* \"#utility.yul\":1361:1386   */\n      swap1\n      dup2\n      mstore\n        /* \"#utility.yul\":1349:1351   */\n      0x20\n        /* \"#utility.yul\":1334:1352   */\n      add\n        /* \"contracts/shia20.sol\":10831:10872  Transfer(from, to, amount.sub(taxAmount)) */\n      mload(0x40)\n      dup1\n      swap2\n      sub\n      swap1\n      log3\n        /* \"contracts/shia20.sol\":8542:10880  {... */\n      pop\n        /* \"contracts/shia20.sol\":8473:10880  function _transfer(address from, address to, uint256 amount) private {... */\n      pop\n      pop\n      pop\n      jump\t// out\n        /* \"contracts/shia20.sol\":1878:2068  function sub(uint256 a, uint256 b, string memory errorMessage) internal pure returns (uint256) {... */\n    tag_132:\n        /* \"contracts/shia20.sol\":1964:1971  uint256 */\n      0x00\n        /* \"contracts/shia20.sol\":2000:2012  errorMessage */\n      dup2\n        /* \"contracts/shia20.sol\":1992:1998  b <= a */\n      dup5\n      dup5\n      gt\n      iszero\n        /* \"contracts/shia20.sol\":1984:2013  require(b <= a, errorMessage) */\n      tag_247\n      jumpi\n      mload(0x40)\n      shl(0xe5, 0x461bcd)\n      dup2\n      mstore\n      0x04\n      add\n      tag_148\n      swap2\n      swap1\n      tag_31\n      jump\t// in\n    tag_247:\n      pop\n        /* \"contracts/shia20.sol\":2024:2033  uint256 c */\n      0x00\n        /* \"contracts/shia20.sol\":2036:2041  a - b */\n      tag_249\n        /* \"contracts/shia20.sol\":2040:2041  b */\n      dup5\n        /* \"contracts/shia20.sol\":2036:2037  a */\n      dup7\n        /* \"contracts/shia20.sol\":2036:2041  a - b */\n      tag_250\n      jump\t// in\n    tag_249:\n        /* \"contracts/shia20.sol\":2024:2041  uint256 c = a - b */\n      swap6\n        /* \"contracts/shia20.sol\":1878:2068  function sub(uint256 a, uint256 b, string memory errorMessage) internal pure returns (uint256) {... */\n      swap5\n      pop\n      pop\n      pop\n      pop\n      pop\n      jump\t// out\n        /* \"contracts/shia20.sol\":10996:11479  function swapTokensForEth(uint256 tokenAmount) private lockTheSwap {... */\n    tag_140:\n        /* \"contracts/shia20.sol\":5752:5758  inSwap */\n      0x14\n        /* \"contracts/shia20.sol\":5752:5765  inSwap = true */\n      dup1\n      sload\n      not(shl(0xa8, 0xff))\n      and\n      shl(0xa8, 0x01)\n      or\n      swap1\n      sstore\n        /* \"contracts/shia20.sol\":11098:11114  new address[](2) */\n      0x40\n      dup1\n      mload\n        /* \"contracts/shia20.sol\":11112:11113  2 */\n      0x02\n        /* \"contracts/shia20.sol\":11098:11114  new address[](2) */\n      dup1\n      dup3\n      mstore\n      0x60\n      dup3\n      add\n      dup4\n      mstore\n      0x00\n      swap3\n      0x20\n      dup4\n      add\n      swap1\n      dup1\n      calldatasize\n      dup4\n      calldatacopy\n      add\n      swap1\n      pop\n      pop\n        /* \"contracts/shia20.sol\":11074:11114  address[] memory path = new address[](2) */\n      swap1\n      pop\n        /* \"contracts/shia20.sol\":11143:11147  this */\n      address\n        /* \"contracts/shia20.sol\":11125:11129  path */\n      dup2\n        /* \"contracts/shia20.sol\":11130:11131  0 */\n      0x00\n        /* \"contracts/shia20.sol\":11125:11132  path[0] */\n      dup2\n      mload\n      dup2\n      lt\n      tag_258\n      jumpi\n      tag_258\n      tag_259\n      jump\t// in\n    tag_258:\n      sub(shl(0xa0, 0x01), 0x01)\n        /* \"contracts/shia20.sol\":11125:11148  path[0] = address(this) */\n      swap3\n      dup4\n      and\n        /* \"contracts/shia20.sol\":11125:11132  path[0] */\n      0x20\n      swap2\n      dup3\n      mul\n      swap3\n      swap1\n      swap3\n      add\n      dup2\n      add\n        /* \"contracts/shia20.sol\":11125:11148  path[0] = address(this) */\n      swap2\n      swap1\n      swap2\n      mstore\n        /* \"contracts/shia20.sol\":11169:11184  uniswapV2Router */\n      sload(0x13)\n        /* \"contracts/shia20.sol\":11169:11191  uniswapV2Router.WETH() */\n      0x40\n      dup1\n      mload\n      shl(0xe3, 0x15ab88c9)\n      dup2\n      mstore\n      swap1\n      mload\n        /* \"contracts/shia20.sol\":11169:11184  uniswapV2Router */\n      swap2\n      swap1\n      swap4\n      and\n      swap3\n        /* \"contracts/shia20.sol\":11169:11189  uniswapV2Router.WETH */\n      0xad5c4648\n      swap3\n        /* \"contracts/shia20.sol\":11169:11191  uniswapV2Router.WETH() */\n      0x04\n      dup1\n      dup4\n      add\n      swap4\n        /* \"contracts/shia20.sol\":11125:11132  path[0] */\n      swap2\n      swap3\n        /* \"contracts/shia20.sol\":11169:11191  uniswapV2Router.WETH() */\n      dup3\n      swap1\n      sub\n      add\n      dup2\n        /* \"contracts/shia20.sol\":11169:11184  uniswapV2Router */\n      dup7\n        /* \"contracts/shia20.sol\":11169:11191  uniswapV2Router.WETH() */\n      gas\n      staticcall\n      iszero\n      dup1\n      iszero\n      tag_261\n      jumpi\n      returndatasize\n      0x00\n      dup1\n      returndatacopy\n      revert(0x00, returndatasize)\n    tag_261:\n      pop\n      pop\n      pop\n      pop\n      mload(0x40)\n      returndatasize\n      not(0x1f)\n      0x1f\n      dup3\n      add\n      and\n      dup3\n      add\n      dup1\n      0x40\n      mstore\n      pop\n      dup2\n      add\n      swap1\n      tag_262\n      swap2\n      swap1\n      tag_263\n      jump\t// in\n    tag_262:\n        /* \"contracts/shia20.sol\":11159:11163  path */\n      dup2\n        /* \"contracts/shia20.sol\":11164:11165  1 */\n      0x01\n        /* \"contracts/shia20.sol\":11159:11166  path[1] */\n      dup2\n      mload\n      dup2\n      lt\n      tag_265\n      jumpi\n      tag_265\n      tag_259\n      jump\t// in\n    tag_265:\n      sub(shl(0xa0, 0x01), 0x01)\n        /* \"contracts/shia20.sol\":11159:11191  path[1] = uniswapV2Router.WETH() */\n      swap3\n      dup4\n      and\n        /* \"contracts/shia20.sol\":11159:11166  path[1] */\n      0x20\n      swap2\n      dup3\n      mul\n      swap3\n      swap1\n      swap3\n      add\n      add\n        /* \"contracts/shia20.sol\":11159:11191  path[1] = uniswapV2Router.WETH() */\n      mstore\n        /* \"contracts/shia20.sol\":11234:11249  uniswapV2Router */\n      sload(0x13)\n        /* \"contracts/shia20.sol\":11202:11264  _approve(address(this), address(uniswapV2Router), tokenAmount) */\n      tag_266\n      swap2\n        /* \"contracts/shia20.sol\":11219:11223  this */\n      address\n      swap2\n        /* \"contracts/shia20.sol\":11234:11249  uniswapV2Router */\n      and\n        /* \"contracts/shia20.sol\":11252:11263  tokenAmount */\n      dup5\n        /* \"contracts/shia20.sol\":11202:11210  _approve */\n      tag_119\n        /* \"contracts/shia20.sol\":11202:11264  _approve(address(this), address(uniswapV2Router), tokenAmount) */\n      jump\t// in\n    tag_266:\n        /* \"contracts/shia20.sol\":11275:11290  uniswapV2Router */\n      sload(0x13)\n        /* \"contracts/shia20.sol\":11275:11471  uniswapV2Router.swapExactTokensForETHSupportingFeeOnTransferTokens(... */\n      mload(0x40)\n      shl(0xe0, 0x791ac947)\n      dup2\n      mstore\n      sub(shl(0xa0, 0x01), 0x01)\n        /* \"contracts/shia20.sol\":11275:11290  uniswapV2Router */\n      swap1\n      swap2\n      and\n      swap1\n        /* \"contracts/shia20.sol\":11275:11341  uniswapV2Router.swapExactTokensForETHSupportingFeeOnTransferTokens */\n      0x791ac947\n      swap1\n        /* \"contracts/shia20.sol\":11275:11471  uniswapV2Router.swapExactTokensForETHSupportingFeeOnTransferTokens(... */\n      tag_267\n      swap1\n        /* \"contracts/shia20.sol\":11356:11367  tokenAmount */\n      dup6\n      swap1\n        /* \"contracts/shia20.sol\":11275:11290  uniswapV2Router */\n      0x00\n      swap1\n        /* \"contracts/shia20.sol\":11398:11402  path */\n      dup7\n      swap1\n        /* \"contracts/shia20.sol\":11425:11429  this */\n      address\n      swap1\n        /* \"contracts/shia20.sol\":11445:11460  block.timestamp */\n      timestamp\n      swap1\n        /* \"contracts/shia20.sol\":11275:11471  uniswapV2Router.swapExactTokensForETHSupportingFeeOnTransferTokens(... */\n      0x04\n      add\n      tag_268\n      jump\t// in\n    tag_267:\n      0x00\n      mload(0x40)\n      dup1\n      dup4\n      sub\n      dup2\n      0x00\n      dup8\n      dup1\n      extcodesize\n      iszero\n      dup1\n      iszero\n      tag_269\n      jumpi\n      0x00\n      dup1\n      revert\n    tag_269:\n      pop\n      gas\n      call\n      iszero\n      dup1\n      iszero\n      tag_271\n      jumpi\n      returndatasize\n      0x00\n      dup1\n      returndatacopy\n      revert(0x00, returndatasize)\n    tag_271:\n      pop\n      pop\n        /* \"contracts/shia20.sol\":5788:5794  inSwap */\n      0x14\n        /* \"contracts/shia20.sol\":5788:5802  inSwap = false */\n      dup1\n      sload\n      not(shl(0xa8, 0xff))\n      and\n      swap1\n      sstore\n      pop\n      pop\n      pop\n      pop\n        /* \"contracts/shia20.sol\":10996:11479  function swapTokensForEth(uint256 tokenAmount) private lockTheSwap {... */\n      jump\t// out\n        /* \"contracts/shia20.sol\":11691:11783  function sendETHToFee(uint256 amount) private {... */\n    tag_143:\n        /* \"contracts/shia20.sol\":11748:11758  _taxWallet */\n      sload(0x06)\n        /* \"contracts/shia20.sol\":11748:11775  _taxWallet.transfer(amount) */\n      mload(0x40)\n        /* \"contracts/shia20.sol\":11748:11758  _taxWallet */\n      0x0100\n      swap1\n      swap2\n      div\n      sub(shl(0xa0, 0x01), 0x01)\n      and\n      swap1\n        /* \"contracts/shia20.sol\":11748:11775  _taxWallet.transfer(amount) */\n      0x08fc\n      dup4\n      iszero\n      mul\n      swap1\n      dup4\n      swap1\n      0x00\n      dup2\n      dup2\n      dup2\n      dup6\n        /* \"contracts/shia20.sol\":11748:11758  _taxWallet */\n      dup9\n        /* \"contracts/shia20.sol\":11748:11775  _taxWallet.transfer(amount) */\n      dup9\n      call\n      swap4\n      pop\n      pop\n      pop\n      pop\n      iszero\n      dup1\n      iszero\n      tag_142\n      jumpi\n      returndatasize\n      0x00\n      dup1\n      returndatacopy\n      revert(0x00, returndatasize)\n        /* \"contracts/shia20.sol\":2076:2322  function mul(uint256 a, uint256 b) internal pure returns (uint256) {... */\n    tag_196:\n        /* \"contracts/shia20.sol\":2134:2141  uint256 */\n      0x00\n        /* \"contracts/shia20.sol\":2158:2159  a */\n      dup3\n        /* \"contracts/shia20.sol\":2163:2164  0 */\n      0x00\n        /* \"contracts/shia20.sol\":2158:2164  a == 0 */\n      sub\n        /* \"contracts/shia20.sol\":2154:2201  if (a == 0) {... */\n      tag_276\n      jumpi\n      pop\n        /* \"contracts/shia20.sol\":2188:2189  0 */\n      0x00\n        /* \"contracts/shia20.sol\":2181:2189  return 0 */\n      jump(tag_115)\n        /* \"contracts/shia20.sol\":2154:2201  if (a == 0) {... */\n    tag_276:\n        /* \"contracts/shia20.sol\":2211:2220  uint256 c */\n      0x00\n        /* \"contracts/shia20.sol\":2223:2228  a * b */\n      tag_277\n        /* \"contracts/shia20.sol\":2227:2228  b */\n      dup4\n        /* \"contracts/shia20.sol\":2223:2224  a */\n      dup6\n        /* \"contracts/shia20.sol\":2223:2228  a * b */\n      tag_124\n      jump\t// in\n    tag_277:\n        /* \"contracts/shia20.sol\":2211:2228  uint256 c = a * b */\n      swap1\n      pop\n        /* \"contracts/shia20.sol\":2256:2257  b */\n      dup3\n        /* \"contracts/shia20.sol\":2247:2252  c / a */\n      tag_278\n        /* \"contracts/shia20.sol\":2251:2252  a */\n      dup6\n        /* \"contracts/shia20.sol\":2211:2228  uint256 c = a * b */\n      dup4\n        /* \"contracts/shia20.sol\":2247:2252  c / a */\n      tag_279\n      jump\t// in\n    tag_278:\n        /* \"contracts/shia20.sol\":2247:2257  c / a == b */\n      eq\n        /* \"contracts/shia20.sol\":2239:2295  require(c / a == b, \"SafeMath: multiplication overflow\") */\n      tag_280\n      jumpi\n      mload(0x40)\n      shl(0xe5, 0x461bcd)\n      dup2\n      mstore\n        /* \"#utility.yul\":10500:10502   */\n      0x20\n        /* \"contracts/shia20.sol\":2239:2295  require(c / a == b, \"SafeMath: multiplication overflow\") */\n      0x04\n      dup3\n      add\n        /* \"#utility.yul\":10482:10503   */\n      mstore\n        /* \"#utility.yul\":10539:10541   */\n      0x21\n        /* \"#utility.yul\":10519:10537   */\n      0x24\n      dup3\n      add\n        /* \"#utility.yul\":10512:10542   */\n      mstore\n        /* \"#utility.yul\":10578:10612   */\n      0x536166654d6174683a206d756c7469706c69636174696f6e206f766572666c6f\n        /* \"#utility.yul\":10558:10576   */\n      0x44\n      dup3\n      add\n        /* \"#utility.yul\":10551:10613   */\n      mstore\n      shl(0xf8, 0x77)\n        /* \"#utility.yul\":10629:10647   */\n      0x64\n      dup3\n      add\n        /* \"#utility.yul\":10622:10653   */\n      mstore\n        /* \"#utility.yul\":10670:10689   */\n      0x84\n      add\n        /* \"contracts/shia20.sol\":2239:2295  require(c / a == b, \"SafeMath: multiplication overflow\") */\n      tag_148\n        /* \"#utility.yul\":10298:10695   */\n      jump\n        /* \"contracts/shia20.sol\":2239:2295  require(c / a == b, \"SafeMath: multiplication overflow\") */\n    tag_280:\n        /* \"contracts/shia20.sol\":2313:2314  c */\n      swap4\n        /* \"contracts/shia20.sol\":2076:2322  function mul(uint256 a, uint256 b) internal pure returns (uint256) {... */\n      swap3\n      pop\n      pop\n      pop\n      jump\t// out\n        /* \"contracts/shia20.sol\":2330:2462  function div(uint256 a, uint256 b) internal pure returns (uint256) {... */\n    tag_197:\n        /* \"contracts/shia20.sol\":2388:2395  uint256 */\n      0x00\n        /* \"contracts/shia20.sol\":2415:2454  div(a, b, \"SafeMath: division by zero\") */\n      tag_280\n        /* \"contracts/shia20.sol\":2419:2420  a */\n      dup4\n        /* \"contracts/shia20.sol\":2422:2423  b */\n      dup4\n        /* \"contracts/shia20.sol\":2415:2454  div(a, b, \"SafeMath: division by zero\") */\n      mload(0x40)\n      dup1\n      0x40\n      add\n      0x40\n      mstore\n      dup1\n      0x1a\n      dup2\n      mstore\n      0x20\n      add\n      0x536166654d6174683a206469766973696f6e206279207a65726f000000000000\n      dup2\n      mstore\n      pop\n        /* \"contracts/shia20.sol\":2415:2418  div */\n      tag_285\n        /* \"contracts/shia20.sol\":2415:2454  div(a, b, \"SafeMath: division by zero\") */\n      jump\t// in\n        /* \"contracts/shia20.sol\":10890:10988  function min(uint256 a, uint256 b) private pure returns (uint256){... */\n    tag_233:\n        /* \"contracts/shia20.sol\":10947:10954  uint256 */\n      0x00\n        /* \"contracts/shia20.sol\":10974:10975  b */\n      dup2\n        /* \"contracts/shia20.sol\":10972:10973  a */\n      dup4\n        /* \"contracts/shia20.sol\":10972:10975  a>b */\n      gt\n        /* \"contracts/shia20.sol\":10971:10980  (a>b)?b:a */\n      tag_287\n      jumpi\n        /* \"contracts/shia20.sol\":10979:10980  a */\n      dup3\n        /* \"contracts/shia20.sol\":10971:10980  (a>b)?b:a */\n      jump(tag_280)\n    tag_287:\n      pop\n        /* \"contracts/shia20.sol\":10977:10978  b */\n      swap2\n        /* \"contracts/shia20.sol\":10890:10988  function min(uint256 a, uint256 b) private pure returns (uint256){... */\n      swap1\n      pop\n      jump\t// out\n        /* \"contracts/shia20.sol\":1547:1726  function add(uint256 a, uint256 b) internal pure returns (uint256) {... */\n    tag_238:\n        /* \"contracts/shia20.sol\":1605:1612  uint256 */\n      0x00\n      dup1\n        /* \"contracts/shia20.sol\":1637:1642  a + b */\n      tag_290\n        /* \"contracts/shia20.sol\":1641:1642  b */\n      dup4\n        /* \"contracts/shia20.sol\":1637:1638  a */\n      dup6\n        /* \"contracts/shia20.sol\":1637:1642  a + b */\n      tag_212\n      jump\t// in\n    tag_290:\n        /* \"contracts/shia20.sol\":1625:1642  uint256 c = a + b */\n      swap1\n      pop\n        /* \"contracts/shia20.sol\":1666:1667  a */\n      dup4\n        /* \"contracts/shia20.sol\":1661:1662  c */\n      dup2\n        /* \"contracts/shia20.sol\":1661:1667  c >= a */\n      lt\n      iszero\n        /* \"contracts/shia20.sol\":1653:1699  require(c >= a, \"SafeMath: addition overflow\") */\n      tag_280\n      jumpi\n      mload(0x40)\n      shl(0xe5, 0x461bcd)\n      dup2\n      mstore\n        /* \"#utility.yul\":10902:10904   */\n      0x20\n        /* \"contracts/shia20.sol\":1653:1699  require(c >= a, \"SafeMath: addition overflow\") */\n      0x04\n      dup3\n      add\n        /* \"#utility.yul\":10884:10905   */\n      mstore\n        /* \"#utility.yul\":10941:10943   */\n      0x1b\n        /* \"#utility.yul\":10921:10939   */\n      0x24\n      dup3\n      add\n        /* \"#utility.yul\":10914:10944   */\n      mstore\n        /* \"#utility.yul\":10980:11009   */\n      0x536166654d6174683a206164646974696f6e206f766572666c6f770000000000\n        /* \"#utility.yul\":10960:10978   */\n      0x44\n      dup3\n      add\n        /* \"#utility.yul\":10953:11010   */\n      mstore\n        /* \"#utility.yul\":11027:11045   */\n      0x64\n      add\n        /* \"contracts/shia20.sol\":1653:1699  require(c >= a, \"SafeMath: addition overflow\") */\n      tag_148\n        /* \"#utility.yul\":10700:11051   */\n      jump\n        /* \"contracts/shia20.sol\":1734:1870  function sub(uint256 a, uint256 b) internal pure returns (uint256) {... */\n    tag_241:\n        /* \"contracts/shia20.sol\":1792:1799  uint256 */\n      0x00\n        /* \"contracts/shia20.sol\":1819:1862  sub(a, b, \"SafeMath: subtraction overflow\") */\n      tag_280\n        /* \"contracts/shia20.sol\":1823:1824  a */\n      dup4\n        /* \"contracts/shia20.sol\":1826:1827  b */\n      dup4\n        /* \"contracts/shia20.sol\":1819:1862  sub(a, b, \"SafeMath: subtraction overflow\") */\n      mload(0x40)\n      dup1\n      0x40\n      add\n      0x40\n      mstore\n      dup1\n      0x1e\n      dup2\n      mstore\n      0x20\n      add\n      0x536166654d6174683a207375627472616374696f6e206f766572666c6f770000\n      dup2\n      mstore\n      pop\n        /* \"contracts/shia20.sol\":1819:1822  sub */\n      tag_132\n        /* \"contracts/shia20.sol\":1819:1862  sub(a, b, \"SafeMath: subtraction overflow\") */\n      jump\t// in\n        /* \"contracts/shia20.sol\":2470:2659  function div(uint256 a, uint256 b, string memory errorMessage) internal pure returns (uint256) {... */\n    tag_285:\n        /* \"contracts/shia20.sol\":2556:2563  uint256 */\n      0x00\n        /* \"contracts/shia20.sol\":2591:2603  errorMessage */\n      dup2\n        /* \"contracts/shia20.sol\":2584:2589  b > 0 */\n      dup4\n        /* \"contracts/shia20.sol\":2576:2604  require(b > 0, errorMessage) */\n      tag_297\n      jumpi\n      mload(0x40)\n      shl(0xe5, 0x461bcd)\n      dup2\n      mstore\n      0x04\n      add\n      tag_148\n      swap2\n      swap1\n      tag_31\n      jump\t// in\n    tag_297:\n      pop\n        /* \"contracts/shia20.sol\":2615:2624  uint256 c */\n      0x00\n        /* \"contracts/shia20.sol\":2627:2632  a / b */\n      tag_249\n        /* \"contracts/shia20.sol\":2631:2632  b */\n      dup5\n        /* \"contracts/shia20.sol\":2627:2628  a */\n      dup7\n        /* \"contracts/shia20.sol\":2627:2632  a / b */\n      tag_279\n      jump\t// in\n        /* \"#utility.yul\":14:562   */\n    tag_31:\n        /* \"#utility.yul\":126:130   */\n      0x00\n        /* \"#utility.yul\":155:157   */\n      0x20\n        /* \"#utility.yul\":184:186   */\n      dup1\n        /* \"#utility.yul\":173:182   */\n      dup4\n        /* \"#utility.yul\":166:187   */\n      mstore\n        /* \"#utility.yul\":216:222   */\n      dup4\n        /* \"#utility.yul\":210:223   */\n      mload\n        /* \"#utility.yul\":259:265   */\n      dup1\n        /* \"#utility.yul\":254:256   */\n      dup3\n        /* \"#utility.yul\":243:252   */\n      dup6\n        /* \"#utility.yul\":239:257   */\n      add\n        /* \"#utility.yul\":232:266   */\n      mstore\n        /* \"#utility.yul\":284:285   */\n      0x00\n        /* \"#utility.yul\":294:434   */\n    tag_306:\n        /* \"#utility.yul\":308:314   */\n      dup2\n        /* \"#utility.yul\":305:306   */\n      dup2\n        /* \"#utility.yul\":302:315   */\n      lt\n        /* \"#utility.yul\":294:434   */\n      iszero\n      tag_308\n      jumpi\n        /* \"#utility.yul\":403:417   */\n      dup6\n      dup2\n      add\n        /* \"#utility.yul\":399:422   */\n      dup4\n      add\n        /* \"#utility.yul\":393:423   */\n      mload\n        /* \"#utility.yul\":369:386   */\n      dup6\n      dup3\n      add\n        /* \"#utility.yul\":388:390   */\n      0x40\n        /* \"#utility.yul\":365:391   */\n      add\n        /* \"#utility.yul\":358:424   */\n      mstore\n        /* \"#utility.yul\":323:333   */\n      dup3\n      add\n        /* \"#utility.yul\":294:434   */\n      jump(tag_306)\n    tag_308:\n        /* \"#utility.yul\":298:301   */\n      pop\n        /* \"#utility.yul\":483:484   */\n      0x00\n        /* \"#utility.yul\":478:480   */\n      0x40\n        /* \"#utility.yul\":469:475   */\n      dup3\n        /* \"#utility.yul\":458:467   */\n      dup7\n        /* \"#utility.yul\":454:476   */\n      add\n        /* \"#utility.yul\":450:481   */\n      add\n        /* \"#utility.yul\":443:485   */\n      mstore\n        /* \"#utility.yul\":553:555   */\n      0x40\n        /* \"#utility.yul\":546:548   */\n      0x1f\n        /* \"#utility.yul\":542:549   */\n      not\n        /* \"#utility.yul\":537:539   */\n      0x1f\n        /* \"#utility.yul\":529:535   */\n      dup4\n        /* \"#utility.yul\":525:540   */\n      add\n        /* \"#utility.yul\":521:550   */\n      and\n        /* \"#utility.yul\":510:519   */\n      dup6\n        /* \"#utility.yul\":506:551   */\n      add\n        /* \"#utility.yul\":502:556   */\n      add\n        /* \"#utility.yul\":494:556   */\n      swap3\n      pop\n      pop\n      pop\n        /* \"#utility.yul\":14:562   */\n      swap3\n      swap2\n      pop\n      pop\n      jump\t// out\n        /* \"#utility.yul\":567:698   */\n    tag_300:\n      sub(shl(0xa0, 0x01), 0x01)\n        /* \"#utility.yul\":642:673   */\n      dup2\n      and\n        /* \"#utility.yul\":632:674   */\n      dup2\n      eq\n        /* \"#utility.yul\":622:692   */\n      tag_310\n      jumpi\n        /* \"#utility.yul\":688:689   */\n      0x00\n        /* \"#utility.yul\":685:686   */\n      dup1\n        /* \"#utility.yul\":678:690   */\n      revert\n        /* \"#utility.yul\":622:692   */\n    tag_310:\n        /* \"#utility.yul\":567:698   */\n      pop\n      jump\t// out\n        /* \"#utility.yul\":703:1018   */\n    tag_35:\n        /* \"#utility.yul\":771:777   */\n      0x00\n        /* \"#utility.yul\":779:785   */\n      dup1\n        /* \"#utility.yul\":832:834   */\n      0x40\n        /* \"#utility.yul\":820:829   */\n      dup4\n        /* \"#utility.yul\":811:818   */\n      dup6\n        /* \"#utility.yul\":807:830   */\n      sub\n        /* \"#utility.yul\":803:835   */\n      slt\n        /* \"#utility.yul\":800:852   */\n      iszero\n      tag_312\n      jumpi\n        /* \"#utility.yul\":848:849   */\n      0x00\n        /* \"#utility.yul\":845:846   */\n      dup1\n        /* \"#utility.yul\":838:850   */\n      revert\n        /* \"#utility.yul\":800:852   */\n    tag_312:\n        /* \"#utility.yul\":887:896   */\n      dup3\n        /* \"#utility.yul\":874:897   */\n      calldataload\n        /* \"#utility.yul\":906:937   */\n      tag_313\n        /* \"#utility.yul\":931:936   */\n      dup2\n        /* \"#utility.yul\":906:937   */\n      tag_300\n      jump\t// in\n    tag_313:\n        /* \"#utility.yul\":956:961   */\n      swap5\n        /* \"#utility.yul\":1008:1010   */\n      0x20\n        /* \"#utility.yul\":993:1011   */\n      swap4\n      swap1\n      swap4\n      add\n        /* \"#utility.yul\":980:1012   */\n      calldataload\n      swap4\n      pop\n      pop\n      pop\n        /* \"#utility.yul\":703:1018   */\n      jump\t// out\n        /* \"#utility.yul\":1397:1853   */\n    tag_51:\n        /* \"#utility.yul\":1474:1480   */\n      0x00\n        /* \"#utility.yul\":1482:1488   */\n      dup1\n        /* \"#utility.yul\":1490:1496   */\n      0x00\n        /* \"#utility.yul\":1543:1545   */\n      0x60\n        /* \"#utility.yul\":1531:1540   */\n      dup5\n        /* \"#utility.yul\":1522:1529   */\n      dup7\n        /* \"#utility.yul\":1518:1541   */\n      sub\n        /* \"#utility.yul\":1514:1546   */\n      slt\n        /* \"#utility.yul\":1511:1563   */\n      iszero\n      tag_317\n      jumpi\n        /* \"#utility.yul\":1559:1560   */\n      0x00\n        /* \"#utility.yul\":1556:1557   */\n      dup1\n        /* \"#utility.yul\":1549:1561   */\n      revert\n        /* \"#utility.yul\":1511:1563   */\n    tag_317:\n        /* \"#utility.yul\":1598:1607   */\n      dup4\n        /* \"#utility.yul\":1585:1608   */\n      calldataload\n        /* \"#utility.yul\":1617:1648   */\n      tag_318\n        /* \"#utility.yul\":1642:1647   */\n      dup2\n        /* \"#utility.yul\":1617:1648   */\n      tag_300\n      jump\t// in\n    tag_318:\n        /* \"#utility.yul\":1667:1672   */\n      swap3\n      pop\n        /* \"#utility.yul\":1724:1726   */\n      0x20\n        /* \"#utility.yul\":1709:1727   */\n      dup5\n      add\n        /* \"#utility.yul\":1696:1728   */\n      calldataload\n        /* \"#utility.yul\":1737:1770   */\n      tag_319\n        /* \"#utility.yul\":1696:1728   */\n      dup2\n        /* \"#utility.yul\":1737:1770   */\n      tag_300\n      jump\t// in\n    tag_319:\n        /* \"#utility.yul\":1397:1853   */\n      swap3\n      swap6\n        /* \"#utility.yul\":1789:1796   */\n      swap3\n      swap5\n      pop\n      pop\n      pop\n        /* \"#utility.yul\":1843:1845   */\n      0x40\n        /* \"#utility.yul\":1828:1846   */\n      swap2\n      swap1\n      swap2\n      add\n        /* \"#utility.yul\":1815:1847   */\n      calldataload\n      swap1\n        /* \"#utility.yul\":1397:1853   */\n      jump\t// out\n        /* \"#utility.yul\":2047:2294   */\n    tag_65:\n        /* \"#utility.yul\":2106:2112   */\n      0x00\n        /* \"#utility.yul\":2159:2161   */\n      0x20\n        /* \"#utility.yul\":2147:2156   */\n      dup3\n        /* \"#utility.yul\":2138:2145   */\n      dup5\n        /* \"#utility.yul\":2134:2157   */\n      sub\n        /* \"#utility.yul\":2130:2162   */\n      slt\n        /* \"#utility.yul\":2127:2179   */\n      iszero\n      tag_322\n      jumpi\n        /* \"#utility.yul\":2175:2176   */\n      0x00\n        /* \"#utility.yul\":2172:2173   */\n      dup1\n        /* \"#utility.yul\":2165:2177   */\n      revert\n        /* \"#utility.yul\":2127:2179   */\n    tag_322:\n        /* \"#utility.yul\":2214:2223   */\n      dup2\n        /* \"#utility.yul\":2201:2224   */\n      calldataload\n        /* \"#utility.yul\":2233:2264   */\n      tag_280\n        /* \"#utility.yul\":2258:2263   */\n      dup2\n        /* \"#utility.yul\":2233:2264   */\n      tag_300\n      jump\t// in\n        /* \"#utility.yul\":2507:2895   */\n    tag_111:\n        /* \"#utility.yul\":2575:2581   */\n      0x00\n        /* \"#utility.yul\":2583:2589   */\n      dup1\n        /* \"#utility.yul\":2636:2638   */\n      0x40\n        /* \"#utility.yul\":2624:2633   */\n      dup4\n        /* \"#utility.yul\":2615:2622   */\n      dup6\n        /* \"#utility.yul\":2611:2634   */\n      sub\n        /* \"#utility.yul\":2607:2639   */\n      slt\n        /* \"#utility.yul\":2604:2656   */\n      iszero\n      tag_326\n      jumpi\n        /* \"#utility.yul\":2652:2653   */\n      0x00\n        /* \"#utility.yul\":2649:2650   */\n      dup1\n        /* \"#utility.yul\":2642:2654   */\n      revert\n        /* \"#utility.yul\":2604:2656   */\n    tag_326:\n        /* \"#utility.yul\":2691:2700   */\n      dup3\n        /* \"#utility.yul\":2678:2701   */\n      calldataload\n        /* \"#utility.yul\":2710:2741   */\n      tag_327\n        /* \"#utility.yul\":2735:2740   */\n      dup2\n        /* \"#utility.yul\":2710:2741   */\n      tag_300\n      jump\t// in\n    tag_327:\n        /* \"#utility.yul\":2760:2765   */\n      swap2\n      pop\n        /* \"#utility.yul\":2817:2819   */\n      0x20\n        /* \"#utility.yul\":2802:2820   */\n      dup4\n      add\n        /* \"#utility.yul\":2789:2821   */\n      calldataload\n        /* \"#utility.yul\":2830:2863   */\n      tag_328\n        /* \"#utility.yul\":2789:2821   */\n      dup2\n        /* \"#utility.yul\":2830:2863   */\n      tag_300\n      jump\t// in\n    tag_328:\n        /* \"#utility.yul\":2882:2889   */\n      dup1\n        /* \"#utility.yul\":2872:2889   */\n      swap2\n      pop\n      pop\n        /* \"#utility.yul\":2507:2895   */\n      swap3\n      pop\n      swap3\n      swap1\n      pop\n      jump\t// out\n        /* \"#utility.yul\":2900:3027   */\n    tag_301:\n        /* \"#utility.yul\":2961:2971   */\n      0x4e487b71\n        /* \"#utility.yul\":2956:2959   */\n      0xe0\n        /* \"#utility.yul\":2952:2972   */\n      shl\n        /* \"#utility.yul\":2949:2950   */\n      0x00\n        /* \"#utility.yul\":2942:2973   */\n      mstore\n        /* \"#utility.yul\":2992:2996   */\n      0x11\n        /* \"#utility.yul\":2989:2990   */\n      0x04\n        /* \"#utility.yul\":2982:2997   */\n      mstore\n        /* \"#utility.yul\":3016:3020   */\n      0x24\n        /* \"#utility.yul\":3013:3014   */\n      0x00\n        /* \"#utility.yul\":3006:3021   */\n      revert\n        /* \"#utility.yul\":3032:3454   */\n    tag_302:\n        /* \"#utility.yul\":3121:3122   */\n      0x01\n        /* \"#utility.yul\":3164:3169   */\n      dup2\n        /* \"#utility.yul\":3121:3122   */\n      dup2\n        /* \"#utility.yul\":3178:3448   */\n    tag_331:\n        /* \"#utility.yul\":3199:3206   */\n      dup1\n        /* \"#utility.yul\":3189:3197   */\n      dup6\n        /* \"#utility.yul\":3186:3207   */\n      gt\n        /* \"#utility.yul\":3178:3448   */\n      iszero\n      tag_333\n      jumpi\n        /* \"#utility.yul\":3258:3262   */\n      dup2\n        /* \"#utility.yul\":3254:3255   */\n      0x00\n        /* \"#utility.yul\":3250:3256   */\n      not\n        /* \"#utility.yul\":3246:3263   */\n      div\n        /* \"#utility.yul\":3240:3244   */\n      dup3\n        /* \"#utility.yul\":3237:3264   */\n      gt\n        /* \"#utility.yul\":3234:3287   */\n      iszero\n      tag_335\n      jumpi\n        /* \"#utility.yul\":3267:3285   */\n      tag_335\n      tag_301\n      jump\t// in\n    tag_335:\n        /* \"#utility.yul\":3317:3324   */\n      dup1\n        /* \"#utility.yul\":3307:3315   */\n      dup6\n        /* \"#utility.yul\":3303:3325   */\n      and\n        /* \"#utility.yul\":3300:3355   */\n      iszero\n      tag_336\n      jumpi\n        /* \"#utility.yul\":3337:3353   */\n      swap2\n      dup2\n      mul\n      swap2\n        /* \"#utility.yul\":3300:3355   */\n    tag_336:\n        /* \"#utility.yul\":3416:3438   */\n      swap4\n      dup5\n      shr\n      swap4\n        /* \"#utility.yul\":3376:3391   */\n      swap1\n      dup1\n      mul\n      swap1\n        /* \"#utility.yul\":3178:3448   */\n      jump(tag_331)\n    tag_333:\n        /* \"#utility.yul\":3182:3185   */\n      pop\n        /* \"#utility.yul\":3032:3454   */\n      swap3\n      pop\n      swap3\n      swap1\n      pop\n      jump\t// out\n        /* \"#utility.yul\":3459:4265   */\n    tag_303:\n        /* \"#utility.yul\":3508:3513   */\n      0x00\n        /* \"#utility.yul\":3538:3546   */\n      dup3\n        /* \"#utility.yul\":3528:3608   */\n      tag_338\n      jumpi\n      pop\n        /* \"#utility.yul\":3579:3580   */\n      0x01\n        /* \"#utility.yul\":3593:3598   */\n      jump(tag_115)\n        /* \"#utility.yul\":3528:3608   */\n    tag_338:\n        /* \"#utility.yul\":3627:3631   */\n      dup2\n        /* \"#utility.yul\":3617:3693   */\n      tag_339\n      jumpi\n      pop\n        /* \"#utility.yul\":3664:3665   */\n      0x00\n        /* \"#utility.yul\":3678:3683   */\n      jump(tag_115)\n        /* \"#utility.yul\":3617:3693   */\n    tag_339:\n        /* \"#utility.yul\":3709:3713   */\n      dup2\n        /* \"#utility.yul\":3727:3728   */\n      0x01\n        /* \"#utility.yul\":3722:3781   */\n      dup2\n      eq\n      tag_341\n      jumpi\n        /* \"#utility.yul\":3795:3796   */\n      0x02\n        /* \"#utility.yul\":3790:3920   */\n      dup2\n      eq\n      tag_342\n      jumpi\n        /* \"#utility.yul\":3702:3920   */\n      jump(tag_340)\n        /* \"#utility.yul\":3722:3781   */\n    tag_341:\n        /* \"#utility.yul\":3752:3753   */\n      0x01\n        /* \"#utility.yul\":3743:3753   */\n      swap2\n      pop\n        /* \"#utility.yul\":3766:3771   */\n      pop\n      jump(tag_115)\n        /* \"#utility.yul\":3790:3920   */\n    tag_342:\n        /* \"#utility.yul\":3827:3830   */\n      0xff\n        /* \"#utility.yul\":3817:3825   */\n      dup5\n        /* \"#utility.yul\":3814:3831   */\n      gt\n        /* \"#utility.yul\":3811:3854   */\n      iszero\n      tag_344\n      jumpi\n        /* \"#utility.yul\":3834:3852   */\n      tag_344\n      tag_301\n      jump\t// in\n    tag_344:\n      pop\n      pop\n        /* \"#utility.yul\":3890:3891   */\n      0x01\n        /* \"#utility.yul\":3876:3892   */\n      dup3\n      shl\n        /* \"#utility.yul\":3905:3910   */\n      jump(tag_115)\n        /* \"#utility.yul\":3702:3920   */\n    tag_340:\n      pop\n        /* \"#utility.yul\":4004:4006   */\n      0x20\n        /* \"#utility.yul\":3994:4002   */\n      dup4\n        /* \"#utility.yul\":3991:4007   */\n      lt\n        /* \"#utility.yul\":3985:3988   */\n      0x0133\n        /* \"#utility.yul\":3979:3983   */\n      dup4\n        /* \"#utility.yul\":3976:3989   */\n      lt\n        /* \"#utility.yul\":3972:4008   */\n      and\n        /* \"#utility.yul\":3966:3968   */\n      0x4e\n        /* \"#utility.yul\":3956:3964   */\n      dup5\n        /* \"#utility.yul\":3953:3969   */\n      lt\n        /* \"#utility.yul\":3948:3950   */\n      0x0b\n        /* \"#utility.yul\":3942:3946   */\n      dup5\n        /* \"#utility.yul\":3939:3951   */\n      lt\n        /* \"#utility.yul\":3935:3970   */\n      and\n        /* \"#utility.yul\":3932:4009   */\n      or\n        /* \"#utility.yul\":3929:4088   */\n      iszero\n      tag_345\n      jumpi\n      pop\n        /* \"#utility.yul\":4041:4060   */\n      dup2\n      dup2\n      exp\n        /* \"#utility.yul\":4073:4078   */\n      jump(tag_115)\n        /* \"#utility.yul\":3929:4088   */\n    tag_345:\n        /* \"#utility.yul\":4120:4154   */\n      tag_346\n        /* \"#utility.yul\":4145:4153   */\n      dup4\n        /* \"#utility.yul\":4139:4143   */\n      dup4\n        /* \"#utility.yul\":4120:4154   */\n      tag_302\n      jump\t// in\n    tag_346:\n        /* \"#utility.yul\":4190:4196   */\n      dup1\n        /* \"#utility.yul\":4186:4187   */\n      0x00\n        /* \"#utility.yul\":4182:4188   */\n      not\n        /* \"#utility.yul\":4178:4197   */\n      div\n        /* \"#utility.yul\":4169:4176   */\n      dup3\n        /* \"#utility.yul\":4166:4198   */\n      gt\n        /* \"#utility.yul\":4163:4221   */\n      iszero\n      tag_348\n      jumpi\n        /* \"#utility.yul\":4201:4219   */\n      tag_348\n      tag_301\n      jump\t// in\n    tag_348:\n        /* \"#utility.yul\":4239:4259   */\n      mul\n      swap4\n        /* \"#utility.yul\":3459:4265   */\n      swap3\n      pop\n      pop\n      pop\n      jump\t// out\n        /* \"#utility.yul\":4270:4410   */\n    tag_122:\n        /* \"#utility.yul\":4328:4333   */\n      0x00\n        /* \"#utility.yul\":4357:4404   */\n      tag_280\n        /* \"#utility.yul\":4398:4402   */\n      0xff\n        /* \"#utility.yul\":4388:4396   */\n      dup5\n        /* \"#utility.yul\":4384:4403   */\n      and\n        /* \"#utility.yul\":4378:4382   */\n      dup4\n        /* \"#utility.yul\":4357:4404   */\n      tag_303\n      jump\t// in\n        /* \"#utility.yul\":4415:4583   */\n    tag_124:\n        /* \"#utility.yul\":4488:4497   */\n      dup1\n      dup3\n      mul\n        /* \"#utility.yul\":4519:4528   */\n      dup2\n      iszero\n        /* \"#utility.yul\":4536:4551   */\n      dup3\n      dup3\n      div\n        /* \"#utility.yul\":4530:4552   */\n      dup5\n      eq\n        /* \"#utility.yul\":4516:4553   */\n      or\n        /* \"#utility.yul\":4506:4577   */\n      tag_115\n      jumpi\n        /* \"#utility.yul\":4557:4575   */\n      tag_115\n      tag_301\n      jump\t// in\n        /* \"#utility.yul\":7813:7938   */\n    tag_212:\n        /* \"#utility.yul\":7878:7887   */\n      dup1\n      dup3\n      add\n        /* \"#utility.yul\":7899:7909   */\n      dup1\n      dup3\n      gt\n        /* \"#utility.yul\":7896:7932   */\n      iszero\n      tag_115\n      jumpi\n        /* \"#utility.yul\":7912:7930   */\n      tag_115\n      tag_301\n      jump\t// in\n        /* \"#utility.yul\":8298:8433   */\n    tag_217:\n        /* \"#utility.yul\":8337:8340   */\n      0x00\n        /* \"#utility.yul\":8358:8375   */\n      0x01\n      dup3\n      add\n        /* \"#utility.yul\":8355:8398   */\n      tag_368\n      jumpi\n        /* \"#utility.yul\":8378:8396   */\n      tag_368\n      tag_301\n      jump\t// in\n    tag_368:\n      pop\n        /* \"#utility.yul\":8425:8426   */\n      0x01\n        /* \"#utility.yul\":8414:8427   */\n      add\n      swap1\n        /* \"#utility.yul\":8298:8433   */\n      jump\t// out\n        /* \"#utility.yul\":8438:8566   */\n    tag_250:\n        /* \"#utility.yul\":8505:8514   */\n      dup2\n      dup2\n      sub\n        /* \"#utility.yul\":8526:8537   */\n      dup2\n      dup2\n      gt\n        /* \"#utility.yul\":8523:8560   */\n      iszero\n      tag_115\n      jumpi\n        /* \"#utility.yul\":8540:8558   */\n      tag_115\n      tag_301\n      jump\t// in\n        /* \"#utility.yul\":8703:8830   */\n    tag_259:\n        /* \"#utility.yul\":8764:8774   */\n      0x4e487b71\n        /* \"#utility.yul\":8759:8762   */\n      0xe0\n        /* \"#utility.yul\":8755:8775   */\n      shl\n        /* \"#utility.yul\":8752:8753   */\n      0x00\n        /* \"#utility.yul\":8745:8776   */\n      mstore\n        /* \"#utility.yul\":8795:8799   */\n      0x32\n        /* \"#utility.yul\":8792:8793   */\n      0x04\n        /* \"#utility.yul\":8785:8800   */\n      mstore\n        /* \"#utility.yul\":8819:8823   */\n      0x24\n        /* \"#utility.yul\":8816:8817   */\n      0x00\n        /* \"#utility.yul\":8809:8824   */\n      revert\n        /* \"#utility.yul\":8835:9086   */\n    tag_263:\n        /* \"#utility.yul\":8905:8911   */\n      0x00\n        /* \"#utility.yul\":8958:8960   */\n      0x20\n        /* \"#utility.yul\":8946:8955   */\n      dup3\n        /* \"#utility.yul\":8937:8944   */\n      dup5\n        /* \"#utility.yul\":8933:8956   */\n      sub\n        /* \"#utility.yul\":8929:8961   */\n      slt\n        /* \"#utility.yul\":8926:8978   */\n      iszero\n      tag_375\n      jumpi\n        /* \"#utility.yul\":8974:8975   */\n      0x00\n        /* \"#utility.yul\":8971:8972   */\n      dup1\n        /* \"#utility.yul\":8964:8976   */\n      revert\n        /* \"#utility.yul\":8926:8978   */\n    tag_375:\n        /* \"#utility.yul\":9006:9015   */\n      dup2\n        /* \"#utility.yul\":9000:9016   */\n      mload\n        /* \"#utility.yul\":9025:9056   */\n      tag_280\n        /* \"#utility.yul\":9050:9055   */\n      dup2\n        /* \"#utility.yul\":9025:9056   */\n      tag_300\n      jump\t// in\n        /* \"#utility.yul\":9091:10071   */\n    tag_268:\n        /* \"#utility.yul\":9353:9357   */\n      0x00\n        /* \"#utility.yul\":9401:9404   */\n      0xa0\n        /* \"#utility.yul\":9390:9399   */\n      dup3\n        /* \"#utility.yul\":9386:9405   */\n      add\n        /* \"#utility.yul\":9432:9438   */\n      dup8\n        /* \"#utility.yul\":9421:9430   */\n      dup4\n        /* \"#utility.yul\":9414:9439   */\n      mstore\n        /* \"#utility.yul\":9458:9460   */\n      0x20\n        /* \"#utility.yul\":9496:9502   */\n      dup8\n        /* \"#utility.yul\":9491:9493   */\n      dup2\n        /* \"#utility.yul\":9480:9489   */\n      dup6\n        /* \"#utility.yul\":9476:9494   */\n      add\n        /* \"#utility.yul\":9469:9503   */\n      mstore\n        /* \"#utility.yul\":9539:9542   */\n      0xa0\n        /* \"#utility.yul\":9534:9536   */\n      0x40\n        /* \"#utility.yul\":9523:9532   */\n      dup6\n        /* \"#utility.yul\":9519:9537   */\n      add\n        /* \"#utility.yul\":9512:9543   */\n      mstore\n        /* \"#utility.yul\":9563:9569   */\n      dup2\n        /* \"#utility.yul\":9598:9604   */\n      dup8\n        /* \"#utility.yul\":9592:9605   */\n      mload\n        /* \"#utility.yul\":9629:9635   */\n      dup1\n        /* \"#utility.yul\":9621:9627   */\n      dup5\n        /* \"#utility.yul\":9614:9636   */\n      mstore\n        /* \"#utility.yul\":9667:9670   */\n      0xc0\n        /* \"#utility.yul\":9656:9665   */\n      dup7\n        /* \"#utility.yul\":9652:9671   */\n      add\n        /* \"#utility.yul\":9645:9671   */\n      swap2\n      pop\n        /* \"#utility.yul\":9706:9708   */\n      dup3\n        /* \"#utility.yul\":9698:9704   */\n      dup10\n        /* \"#utility.yul\":9694:9709   */\n      add\n        /* \"#utility.yul\":9680:9709   */\n      swap4\n      pop\n        /* \"#utility.yul\":9727:9728   */\n      0x00\n        /* \"#utility.yul\":9737:9932   */\n    tag_378:\n        /* \"#utility.yul\":9751:9757   */\n      dup2\n        /* \"#utility.yul\":9748:9749   */\n      dup2\n        /* \"#utility.yul\":9745:9758   */\n      lt\n        /* \"#utility.yul\":9737:9932   */\n      iszero\n      tag_380\n      jumpi\n        /* \"#utility.yul\":9816:9829   */\n      dup5\n      mload\n      sub(shl(0xa0, 0x01), 0x01)\n        /* \"#utility.yul\":9812:9851   */\n      and\n        /* \"#utility.yul\":9800:9852   */\n      dup4\n      mstore\n        /* \"#utility.yul\":9907:9922   */\n      swap4\n      dup4\n      add\n      swap4\n        /* \"#utility.yul\":9872:9884   */\n      swap2\n      dup4\n      add\n      swap2\n        /* \"#utility.yul\":9848:9849   */\n      0x01\n        /* \"#utility.yul\":9766:9775   */\n      add\n        /* \"#utility.yul\":9737:9932   */\n      jump(tag_378)\n    tag_380:\n      pop\n      pop\n      sub(shl(0xa0, 0x01), 0x01)\n        /* \"#utility.yul\":9988:10020   */\n      swap7\n      swap1\n      swap7\n      and\n        /* \"#utility.yul\":9983:9985   */\n      0x60\n        /* \"#utility.yul\":9968:9986   */\n      dup6\n      add\n        /* \"#utility.yul\":9961:10021   */\n      mstore\n      pop\n      pop\n      pop\n        /* \"#utility.yul\":10052:10055   */\n      0x80\n        /* \"#utility.yul\":10037:10056   */\n      add\n        /* \"#utility.yul\":10030:10065   */\n      mstore\n        /* \"#utility.yul\":9949:9952   */\n      swap4\n        /* \"#utility.yul\":9091:10071   */\n      swap3\n      pop\n      pop\n      pop\n      jump\t// out\n        /* \"#utility.yul\":10076:10293   */\n    tag_279:\n        /* \"#utility.yul\":10116:10117   */\n      0x00\n        /* \"#utility.yul\":10142:10143   */\n      dup3\n        /* \"#utility.yul\":10132:10264   */\n      tag_382\n      jumpi\n        /* \"#utility.yul\":10186:10196   */\n      0x4e487b71\n        /* \"#utility.yul\":10181:10184   */\n      0xe0\n        /* \"#utility.yul\":10177:10197   */\n      shl\n        /* \"#utility.yul\":10174:10175   */\n      0x00\n        /* \"#utility.yul\":10167:10198   */\n      mstore\n        /* \"#utility.yul\":10221:10225   */\n      0x12\n        /* \"#utility.yul\":10218:10219   */\n      0x04\n        /* \"#utility.yul\":10211:10226   */\n      mstore\n        /* \"#utility.yul\":10249:10253   */\n      0x24\n        /* \"#utility.yul\":10246:10247   */\n      0x00\n        /* \"#utility.yul\":10239:10254   */\n      revert\n        /* \"#utility.yul\":10132:10264   */\n    tag_382:\n      pop\n        /* \"#utility.yul\":10278:10287   */\n      div\n      swap1\n        /* \"#utility.yul\":10076:10293   */\n      jump\t// out\n    stop\n    data_974d1b4421da69cc60b481194f0dad36a5bb4e23da810da7a7fb30cdba178330 45524332303a207472616e7366657220616d6f756e74206578636565647320616c6c6f77616e6365\n\n    auxdata: 0xa2646970667358221220ca64cb599f8e0ccf62a2c899c246a15023b5410348955ac66d3c3196b1c9ea6d64736f6c63430008120033\n}\n",
				"bytecode": {
					"linkReferences": {},
					"object": "60806040526006805460ff19166001179055600a6007819055600f6008819055600260098190558255600b819055600c556005600d556000600e55620000489060129062000815565b6200005790629896806200082d565b600f55620000686012600a62000815565b6200007790629896806200082d565b601055620000886012600a62000815565b6200009790620f42406200082d565b601155620000a86012600a62000815565b620000b790622dc6c06200082d565b6012556014805461ffff60a81b19169055348015620000d557600080fd5b50600080546001600160a01b031916339081178255604051909182917f8be0079c531659141344cd1fd0a4f28419497f9722a3daafe3b4186f6b6457e0908290a350601380546001600160a01b031916737a250d5630b4cf539739df2c5dacb4c659f2488d9081179091556200016b903090620001556012600a62000815565b6200016590633b9aca006200082d565b620005d4565b601360009054906101000a90046001600160a01b03166001600160a01b031663c45a01556040518163ffffffff1660e01b8152600401602060405180830381865afa158015620001bf573d6000803e3d6000fd5b505050506040513d601f19601f82011682018060405250810190620001e5919062000847565b6001600160a01b031663c9c6539630601360009054906101000a90046001600160a01b03166001600160a01b031663ad5c46486040518163ffffffff1660e01b8152600401602060405180830381865afa15801562000248573d6000803e3d6000fd5b505050506040513d601f19601f820116820180604052508101906200026e919062000847565b6040516001600160e01b031960e085901b1681526001600160a01b039283166004820152911660248201526044016020604051808303816000875af1158015620002bc573d6000803e3d6000fd5b505050506040513d601f19601f82011682018060405250810190620002e2919062000847565b601480546001600160a01b0319166001600160a01b039283161790556013541663f305d719473062000329816001600160a01b031660009081526001602052604090205490565b6000806200033f6000546001600160a01b031690565b60405160e088901b6001600160e01b03191681526001600160a01b03958616600482015260248101949094526044840192909252606483015290911660848201524260a482015260c40160606040518083038185885af1158015620003a8573d6000803e3d6000fd5b50505050506040513d601f19601f82011682018060405250810190620003cf919062000872565b505060145460135460405163095ea7b360e01b81526001600160a01b03918216600482015260001960248201529116915063095ea7b3906044016020604051808303816000875af115801562000429573d6000803e3d6000fd5b505050506040513d601f19601f820116820180604052508101906200044f9190620008a1565b506014805462ff00ff60a01b19166201000160a01b1790556200046f3390565b600680546001600160a01b039290921661010002610100600160a81b0319909216919091179055620004a46012600a62000815565b620004b490633b9aca006200082d565b336000908152600160208190526040822092909255600390620004df6000546001600160a01b031690565b6001600160a01b03908116825260208083019390935260409182016000908120805495151560ff19968716179055308152600390935281832080548516600190811790915560065461010090049091168352908220805484168217905561dead9091527f262bb27bbdd95c1cdc8e16957e36e38579ea44f7f6413dd7a9c75939def06b2c8054909216179055620005733390565b6001600160a01b031660007fddf252ad1be2c89b69c2b068fc378daa952ba7f163c4a11628f55a4df523b3ef620005ad6012600a62000815565b620005bd90633b9aca006200082d565b60405190815260200160405180910390a3620008c5565b6001600160a01b0383166200063c5760405162461bcd60e51b8152602060048201526024808201527f45524332303a20617070726f76652066726f6d20746865207a65726f206164646044820152637265737360e01b60648201526084015b60405180910390fd5b6001600160a01b0382166200069f5760405162461bcd60e51b815260206004820152602260248201527f45524332303a20617070726f766520746f20746865207a65726f206164647265604482015261737360f01b606482015260840162000633565b6001600160a01b0383811660008181526002602090815260408083209487168084529482529182902085905590518481527f8c5be1e5ebec7d5bd14f71427d1e84f3dd0314c0f7b2291e5b200ac8c7c3b925910160405180910390a3505050565b634e487b7160e01b600052601160045260246000fd5b600181815b80851115620007575781600019048211156200073b576200073b62000700565b808516156200074957918102915b93841c93908002906200071b565b509250929050565b60008262000770575060016200080f565b816200077f575060006200080f565b8160018114620007985760028114620007a357620007c3565b60019150506200080f565b60ff841115620007b757620007b762000700565b50506001821b6200080f565b5060208310610133831016604e8410600b8410161715620007e8575081810a6200080f565b620007f4838362000716565b80600019048211156200080b576200080b62000700565b0290505b92915050565b60006200082660ff8416836200075f565b9392505050565b80820281158282048414176200080f576200080f62000700565b6000602082840312156200085a57600080fd5b81516001600160a01b03811681146200082657600080fd5b6000806000606084860312156200088857600080fd5b8351925060208401519150604084015190509250925092565b600060208284031215620008b457600080fd5b815180151581146200082657600080fd5b6114a980620008d56000396000f3fe6080604052600436106101185760003560e01c8063751039fc116100a0578063a01c348311610064578063a01c34831461030e578063a9059cbb14610324578063bf474bed14610344578063c876d0b91461035a578063dd62ed3e1461037457600080fd5b8063751039fc1461026e5780637d1db4a5146102835780638da5cb5b146102995780638f9a55c0146102cb57806395d89b41146102e157600080fd5b806323b872dd116100e757806323b872dd146101d0578063313ce567146101f057806351bc3c851461020c57806370a0823114610223578063715018a61461025957600080fd5b806306fdde0314610124578063095ea7b3146101675780630faee56f1461019757806318160ddd146101bb57600080fd5b3661011f57005b600080fd5b34801561013057600080fd5b5060408051808201909152600881526727b7329020b737b760c11b60208201525b60405161015e91906110fd565b60405180910390f35b34801561017357600080fd5b50610187610182366004611163565b6103ba565b604051901515815260200161015e565b3480156101a357600080fd5b506101ad60125481565b60405190815260200161015e565b3480156101c757600080fd5b506101ad6103d1565b3480156101dc57600080fd5b506101876101eb36600461118f565b6103f2565b3480156101fc57600080fd5b506040516012815260200161015e565b34801561021857600080fd5b5061022161045b565b005b34801561022f57600080fd5b506101ad61023e3660046111d0565b6001600160a01b031660009081526001602052604090205490565b34801561026557600080fd5b506102216104b3565b34801561027a57600080fd5b5061022161055c565b34801561028f57600080fd5b506101ad600f5481565b3480156102a557600080fd5b506000546001600160a01b03165b6040516001600160a01b03909116815260200161015e565b3480156102d757600080fd5b506101ad60105481565b3480156102ed57600080fd5b506040805180820190915260048152630913d05560e21b6020820152610151565b34801561031a57600080fd5b506102b361dead81565b34801561033057600080fd5b5061018761033f366004611163565b610648565b34801561035057600080fd5b506101ad60115481565b34801561036657600080fd5b506006546101879060ff1681565b34801561038057600080fd5b506101ad61038f3660046111ed565b6001600160a01b03918216600090815260026020908152604080832093909416825291909152205490565b60006103c7338484610655565b5060015b92915050565b60006103df6012600a611320565b6103ed90633b9aca0061132f565b905090565b60006103ff848484610779565b610451843361044c8560405180606001604052806028815260200161144c602891396001600160a01b038a1660009081526002602090815260408083203384529091529020549190610d5c565b610655565b5060019392505050565b60065461010090046001600160a01b0316336001600160a01b03161461048057600080fd5b30600090815260016020526040902054801561049f5761049f81610d96565b4780156104af576104af81610f10565b5050565b6000546001600160a01b031633146105125760405162461bcd60e51b815260206004820181905260248201527f4f776e61626c653a2063616c6c6572206973206e6f7420746865206f776e657260448201526064015b60405180910390fd5b600080546040516001600160a01b03909116907f8be0079c531659141344cd1fd0a4f28419497f9722a3daafe3b4186f6b6457e0908390a3600080546001600160a01b0319169055565b6000546001600160a01b031633146105b65760405162461bcd60e51b815260206004820181905260248201527f4f776e61626c653a2063616c6c6572206973206e6f7420746865206f776e65726044820152606401610509565b6105c26012600a611320565b6105d090633b9aca0061132f565b600f556105df6012600a611320565b6105ed90633b9aca0061132f565b6010556006805460ff191690557f947f344d56e1e8c70dc492fb94c4ddddd490c016aab685f5e7e47b2e85cb44cf6106276012600a611320565b61063590633b9aca0061132f565b60405190815260200160405180910390a1565b60006103c7338484610779565b6001600160a01b0383166106b75760405162461bcd60e51b8152602060048201526024808201527f45524332303a20617070726f76652066726f6d20746865207a65726f206164646044820152637265737360e01b6064820152608401610509565b6001600160a01b0382166107185760405162461bcd60e51b815260206004820152602260248201527f45524332303a20617070726f766520746f20746865207a65726f206164647265604482015261737360f01b6064820152608401610509565b6001600160a01b0383811660008181526002602090815260408083209487168084529482529182902085905590518481527f8c5be1e5ebec7d5bd14f71427d1e84f3dd0314c0f7b2291e5b200ac8c7c3b925910160405180910390a3505050565b6001600160a01b0383166107dd5760405162461bcd60e51b815260206004820152602560248201527f45524332303a207472616e736665722066726f6d20746865207a65726f206164604482015264647265737360d81b6064820152608401610509565b6001600160a01b03821661083f5760405162461bcd60e51b815260206004820152602360248201527f45524332303a207472616e7366657220746f20746865207a65726f206164647260448201526265737360e81b6064820152608401610509565b600081116108a15760405162461bcd60e51b815260206004820152602960248201527f5472616e7366657220616d6f756e74206d7573742062652067726561746572206044820152687468616e207a65726f60b81b6064820152608401610509565b600080546001600160a01b038581169116148015906108ce57506000546001600160a01b03848116911614155b15610c19576108ff60646108f9600b54600e54116108ee576007546108f2565b6009545b8590610f4e565b90610fd7565b60065490915060ff16156109e7576013546001600160a01b0384811691161480159061093957506014546001600160a01b03848116911614155b156109e7573260009081526005602052604090205443116109d45760405162461bcd60e51b815260206004820152604960248201527f5f7472616e736665723a3a205472616e736665722044656c617920656e61626c60448201527f65642e20204f6e6c79206f6e652070757263686173652070657220626c6f636b6064820152681030b63637bbb2b21760b91b608482015260a401610509565b3260009081526005602052604090204390555b6014546001600160a01b038581169116148015610a1257506013546001600160a01b03848116911614155b8015610a3757506001600160a01b03831660009081526003602052604090205460ff16155b15610b1f57600f54821115610a8e5760405162461bcd60e51b815260206004820152601960248201527f4578636565647320746865205f6d61785478416d6f756e742e000000000000006044820152606401610509565b60105482610ab1856001600160a01b031660009081526001602052604090205490565b610abb9190611346565b1115610b095760405162461bcd60e51b815260206004820152601a60248201527f4578636565647320746865206d617857616c6c657453697a652e0000000000006044820152606401610509565b600e8054906000610b1983611359565b91905055505b6014546001600160a01b038481169116148015610b4557506001600160a01b0384163014155b15610b7257610b6f60646108f9600c54600e5411610b65576008546108f2565b600a548590610f4e565b90505b30600090815260016020526040902054601454600160a81b900460ff16158015610ba957506014546001600160a01b038581169116145b8015610bbe5750601454600160b01b900460ff165b8015610bcb575060115481115b8015610bda5750600d54600e54115b15610c1757610bfc610bf784610bf284601254611019565b611019565b610d96565b4766b1a2bc2ec50000811115610c1557610c1547610f10565b505b505b8015610c935730600090815260016020526040902054610c39908261102e565b30600081815260016020526040908190209290925590516001600160a01b038616907fddf252ad1be2c89b69c2b068fc378daa952ba7f163c4a11628f55a4df523b3ef90610c8a9085815260200190565b60405180910390a35b6001600160a01b038416600090815260016020526040902054610cb6908361108d565b6001600160a01b038516600090815260016020526040902055610cfb610cdc838361108d565b6001600160a01b0385166000908152600160205260409020549061102e565b6001600160a01b0380851660008181526001602052604090209290925585167fddf252ad1be2c89b69c2b068fc378daa952ba7f163c4a11628f55a4df523b3ef610d45858561108d565b60405190815260200160405180910390a350505050565b60008184841115610d805760405162461bcd60e51b815260040161050991906110fd565b506000610d8d8486611372565b95945050505050565b6014805460ff60a81b1916600160a81b1790556040805160028082526060820183526000926020830190803683370190505090503081600081518110610dde57610dde611385565b6001600160a01b03928316602091820292909201810191909152601354604080516315ab88c960e31b81529051919093169263ad5c46489260048083019391928290030181865afa158015610e37573d6000803e3d6000fd5b505050506040513d601f19601f82011682018060405250810190610e5b919061139b565b81600181518110610e6e57610e6e611385565b6001600160a01b039283166020918202929092010152601354610e949130911684610655565b60135460405163791ac94760e01b81526001600160a01b039091169063791ac94790610ecd9085906000908690309042906004016113b8565b600060405180830381600087803b158015610ee757600080fd5b505af1158015610efb573d6000803e3d6000fd5b50506014805460ff60a81b1916905550505050565b6006546040516101009091046001600160a01b0316906108fc8315029083906000818181858888f193505050501580156104af573d6000803e3d6000fd5b600082600003610f60575060006103cb565b6000610f6c838561132f565b905082610f798583611429565b14610fd05760405162461bcd60e51b815260206004820152602160248201527f536166654d6174683a206d756c7469706c69636174696f6e206f766572666c6f6044820152607760f81b6064820152608401610509565b9392505050565b6000610fd083836040518060400160405280601a81526020017f536166654d6174683a206469766973696f6e206279207a65726f0000000000008152506110cf565b60008183116110285782610fd0565b50919050565b60008061103b8385611346565b905083811015610fd05760405162461bcd60e51b815260206004820152601b60248201527f536166654d6174683a206164646974696f6e206f766572666c6f7700000000006044820152606401610509565b6000610fd083836040518060400160405280601e81526020017f536166654d6174683a207375627472616374696f6e206f766572666c6f770000815250610d5c565b600081836110f05760405162461bcd60e51b815260040161050991906110fd565b506000610d8d8486611429565b600060208083528351808285015260005b8181101561112a5785810183015185820160400152820161110e565b506000604082860101526040601f19601f8301168501019250505092915050565b6001600160a01b038116811461116057600080fd5b50565b6000806040838503121561117657600080fd5b82356111818161114b565b946020939093013593505050565b6000806000606084860312156111a457600080fd5b83356111af8161114b565b925060208401356111bf8161114b565b929592945050506040919091013590565b6000602082840312156111e257600080fd5b8135610fd08161114b565b6000806040838503121561120057600080fd5b823561120b8161114b565b9150602083013561121b8161114b565b809150509250929050565b634e487b7160e01b600052601160045260246000fd5b600181815b8085111561127757816000190482111561125d5761125d611226565b8085161561126a57918102915b93841c9390800290611241565b509250929050565b60008261128e575060016103cb565b8161129b575060006103cb565b81600181146112b157600281146112bb576112d7565b60019150506103cb565b60ff8411156112cc576112cc611226565b50506001821b6103cb565b5060208310610133831016604e8410600b84101617156112fa575081810a6103cb565b611304838361123c565b806000190482111561131857611318611226565b029392505050565b6000610fd060ff84168361127f565b80820281158282048414176103cb576103cb611226565b808201808211156103cb576103cb611226565b60006001820161136b5761136b611226565b5060010190565b818103818111156103cb576103cb611226565b634e487b7160e01b600052603260045260246000fd5b6000602082840312156113ad57600080fd5b8151610fd08161114b565b600060a082018783526020878185015260a0604085015281875180845260c086019150828901935060005b818110156114085784516001600160a01b0316835293830193918301916001016113e3565b50506001600160a01b03969096166060850152505050608001529392505050565b60008261144657634e487b7160e01b600052601260045260246000fd5b50049056fe45524332303a207472616e7366657220616d6f756e74206578636565647320616c6c6f77616e6365a2646970667358221220ca64cb599f8e0ccf62a2c899c246a15023b5410348955ac66d3c3196b1c9ea6d64736f6c63430008120033",
					"opcodes": "PUSH1 0x80 PUSH1 0x40 MSTORE PUSH1 0x6 DUP1 SLOAD PUSH1 0xFF NOT AND PUSH1 0x1 OR SWAP1 SSTORE PUSH1 0xA PUSH1 0x7 DUP2 SWAP1 SSTORE PUSH1 0xF PUSH1 0x8 DUP2 SWAP1 SSTORE PUSH1 0x2 PUSH1 0x9 DUP2 SWAP1 SSTORE DUP3 SSTORE PUSH1 0xB DUP2 SWAP1 SSTORE PUSH1 0xC SSTORE PUSH1 0x5 PUSH1 0xD SSTORE PUSH1 0x0 PUSH1 0xE SSTORE PUSH3 0x48 SWAP1 PUSH1 0x12 SWAP1 PUSH3 0x815 JUMP JUMPDEST PUSH3 0x57 SWAP1 PUSH3 0x989680 PUSH3 0x82D JUMP JUMPDEST PUSH1 0xF SSTORE PUSH3 0x68 PUSH1 0x12 PUSH1 0xA PUSH3 0x815 JUMP JUMPDEST PUSH3 0x77 SWAP1 PUSH3 0x989680 PUSH3 0x82D JUMP JUMPDEST PUSH1 0x10 SSTORE PUSH3 0x88 PUSH1 0x12 PUSH1 0xA PUSH3 0x815 JUMP JUMPDEST PUSH3 0x97 SWAP1 PUSH3 0xF4240 PUSH3 0x82D JUMP JUMPDEST PUSH1 0x11 SSTORE PUSH3 0xA8 PUSH1 0x12 PUSH1 0xA PUSH3 0x815 JUMP JUMPDEST PUSH3 0xB7 SWAP1 PUSH3 0x2DC6C0 PUSH3 0x82D JUMP JUMPDEST PUSH1 0x12 SSTORE PUSH1 0x14 DUP1 SLOAD PUSH2 0xFFFF PUSH1 0xA8 SHL NOT AND SWAP1 SSTORE CALLVALUE DUP1 ISZERO PUSH3 0xD5 JUMPI PUSH1 0x0 DUP1 REVERT JUMPDEST POP PUSH1 0x0 DUP1 SLOAD PUSH1 0x1 PUSH1 0x1 PUSH1 0xA0 SHL SUB NOT AND CALLER SWAP1 DUP2 OR DUP3 SSTORE PUSH1 0x40 MLOAD SWAP1 SWAP2 DUP3 SWAP2 PUSH32 0x8BE0079C531659141344CD1FD0A4F28419497F9722A3DAAFE3B4186F6B6457E0 SWAP1 DUP3 SWAP1 LOG3 POP PUSH1 0x13 DUP1 SLOAD PUSH1 0x1 PUSH1 0x1 PUSH1 0xA0 SHL SUB NOT AND PUSH20 0x7A250D5630B4CF539739DF2C5DACB4C659F2488D SWAP1 DUP2 OR SWAP1 SWAP2 SSTORE PUSH3 0x16B SWAP1 ADDRESS SWAP1 PUSH3 0x155 PUSH1 0x12 PUSH1 0xA PUSH3 0x815 JUMP JUMPDEST PUSH3 0x165 SWAP1 PUSH4 0x3B9ACA00 PUSH3 0x82D JUMP JUMPDEST PUSH3 0x5D4 JUMP JUMPDEST PUSH1 0x13 PUSH1 0x0 SWAP1 SLOAD SWAP1 PUSH2 0x100 EXP SWAP1 DIV PUSH1 0x1 PUSH1 0x1 PUSH1 0xA0 SHL SUB AND PUSH1 0x1 PUSH1 0x1 PUSH1 0xA0 SHL SUB AND PUSH4 0xC45A0155 PUSH1 0x40 MLOAD DUP2 PUSH4 0xFFFFFFFF AND PUSH1 0xE0 SHL DUP2 MSTORE PUSH1 0x4 ADD PUSH1 0x20 PUSH1 0x40 MLOAD DUP1 DUP4 SUB DUP2 DUP7 GAS STATICCALL ISZERO DUP1 ISZERO PUSH3 0x1BF JUMPI RETURNDATASIZE PUSH1 0x0 DUP1 RETURNDATACOPY RETURNDATASIZE PUSH1 0x0 REVERT JUMPDEST POP POP POP POP PUSH1 0x40 MLOAD RETURNDATASIZE PUSH1 0x1F NOT PUSH1 0x1F DUP3 ADD AND DUP3 ADD DUP1 PUSH1 0x40 MSTORE POP DUP2 ADD SWAP1 PUSH3 0x1E5 SWAP2 SWAP1 PUSH3 0x847 JUMP JUMPDEST PUSH1 0x1 PUSH1 0x1 PUSH1 0xA0 SHL SUB AND PUSH4 0xC9C65396 ADDRESS PUSH1 0x13 PUSH1 0x0 SWAP1 SLOAD SWAP1 PUSH2 0x100 EXP SWAP1 DIV PUSH1 0x1 PUSH1 0x1 PUSH1 0xA0 SHL SUB AND PUSH1 0x1 PUSH1 0x1 PUSH1 0xA0 SHL SUB AND PUSH4 0xAD5C4648 PUSH1 0x40 MLOAD DUP2 PUSH4 0xFFFFFFFF AND PUSH1 0xE0 SHL DUP2 MSTORE PUSH1 0x4 ADD PUSH1 0x20 PUSH1 0x40 MLOAD DUP1 DUP4 SUB DUP2 DUP7 GAS STATICCALL ISZERO DUP1 ISZERO PUSH3 0x248 JUMPI RETURNDATASIZE PUSH1 0x0 DUP1 RETURNDATACOPY RETURNDATASIZE PUSH1 0x0 REVERT JUMPDEST POP POP POP POP PUSH1 0x40 MLOAD RETURNDATASIZE PUSH1 0x1F NOT PUSH1 0x1F DUP3 ADD AND DUP3 ADD DUP1 PUSH1 0x40 MSTORE POP DUP2 ADD SWAP1 PUSH3 0x26E SWAP2 SWAP1 PUSH3 0x847 JUMP JUMPDEST PUSH1 0x40 MLOAD PUSH1 0x1 PUSH1 0x1 PUSH1 0xE0 SHL SUB NOT PUSH1 0xE0 DUP6 SWAP1 SHL AND DUP2 MSTORE PUSH1 0x1 PUSH1 0x1 PUSH1 0xA0 SHL SUB SWAP3 DUP4 AND PUSH1 0x4 DUP3 ADD MSTORE SWAP2 AND PUSH1 0x24 DUP3 ADD MSTORE PUSH1 0x44 ADD PUSH1 0x20 PUSH1 0x40 MLOAD DUP1 DUP4 SUB DUP2 PUSH1 0x0 DUP8 GAS CALL ISZERO DUP1 ISZERO PUSH3 0x2BC JUMPI RETURNDATASIZE PUSH1 0x0 DUP1 RETURNDATACOPY RETURNDATASIZE PUSH1 0x0 REVERT JUMPDEST POP POP POP POP PUSH1 0x40 MLOAD RETURNDATASIZE PUSH1 0x1F NOT PUSH1 0x1F DUP3 ADD AND DUP3 ADD DUP1 PUSH1 0x40 MSTORE POP DUP2 ADD SWAP1 PUSH3 0x2E2 SWAP2 SWAP1 PUSH3 0x847 JUMP JUMPDEST PUSH1 0x14 DUP1 SLOAD PUSH1 0x1 PUSH1 0x1 PUSH1 0xA0 SHL SUB NOT AND PUSH1 0x1 PUSH1 0x1 PUSH1 0xA0 SHL SUB SWAP3 DUP4 AND OR SWAP1 SSTORE PUSH1 0x13 SLOAD AND PUSH4 0xF305D719 SELFBALANCE ADDRESS PUSH3 0x329 DUP2 PUSH1 0x1 PUSH1 0x1 PUSH1 0xA0 SHL SUB AND PUSH1 0x0 SWAP1 DUP2 MSTORE PUSH1 0x1 PUSH1 0x20 MSTORE PUSH1 0x40 SWAP1 KECCAK256 SLOAD SWAP1 JUMP JUMPDEST PUSH1 0x0 DUP1 PUSH3 0x33F PUSH1 0x0 SLOAD PUSH1 0x1 PUSH1 0x1 PUSH1 0xA0 SHL SUB AND SWAP1 JUMP JUMPDEST PUSH1 0x40 MLOAD PUSH1 0xE0 DUP9 SWAP1 SHL PUSH1 0x1 PUSH1 0x1 PUSH1 0xE0 SHL SUB NOT AND DUP2 MSTORE PUSH1 0x1 PUSH1 0x1 PUSH1 0xA0 SHL SUB SWAP6 DUP7 AND PUSH1 0x4 DUP3 ADD MSTORE PUSH1 0x24 DUP2 ADD SWAP5 SWAP1 SWAP5 MSTORE PUSH1 0x44 DUP5 ADD SWAP3 SWAP1 SWAP3 MSTORE PUSH1 0x64 DUP4 ADD MSTORE SWAP1 SWAP2 AND PUSH1 0x84 DUP3 ADD MSTORE TIMESTAMP PUSH1 0xA4 DUP3 ADD MSTORE PUSH1 0xC4 ADD PUSH1 0x60 PUSH1 0x40 MLOAD DUP1 DUP4 SUB DUP2 DUP6 DUP9 GAS CALL ISZERO DUP1 ISZERO PUSH3 0x3A8 JUMPI RETURNDATASIZE PUSH1 0x0 DUP1 RETURNDATACOPY RETURNDATASIZE PUSH1 0x0 REVERT JUMPDEST POP POP POP POP POP PUSH1 0x40 MLOAD RETURNDATASIZE PUSH1 0x1F NOT PUSH1 0x1F DUP3 ADD AND DUP3 ADD DUP1 PUSH1 0x40 MSTORE POP DUP2 ADD SWAP1 PUSH3 0x3CF SWAP2 SWAP1 PUSH3 0x872 JUMP JUMPDEST POP POP PUSH1 0x14 SLOAD PUSH1 0x13 SLOAD PUSH1 0x40 MLOAD PUSH4 0x95EA7B3 PUSH1 0xE0 SHL DUP2 MSTORE PUSH1 0x1 PUSH1 0x1 PUSH1 0xA0 SHL SUB SWAP2 DUP3 AND PUSH1 0x4 DUP3 ADD MSTORE PUSH1 0x0 NOT PUSH1 0x24 DUP3 ADD MSTORE SWAP2 AND SWAP2 POP PUSH4 0x95EA7B3 SWAP1 PUSH1 0x44 ADD PUSH1 0x20 PUSH1 0x40 MLOAD DUP1 DUP4 SUB DUP2 PUSH1 0x0 DUP8 GAS CALL ISZERO DUP1 ISZERO PUSH3 0x429 JUMPI RETURNDATASIZE PUSH1 0x0 DUP1 RETURNDATACOPY RETURNDATASIZE PUSH1 0x0 REVERT JUMPDEST POP POP POP POP PUSH1 0x40 MLOAD RETURNDATASIZE PUSH1 0x1F NOT PUSH1 0x1F DUP3 ADD AND DUP3 ADD DUP1 PUSH1 0x40 MSTORE POP DUP2 ADD SWAP1 PUSH3 0x44F SWAP2 SWAP1 PUSH3 0x8A1 JUMP JUMPDEST POP PUSH1 0x14 DUP1 SLOAD PUSH3 0xFF00FF PUSH1 0xA0 SHL NOT AND PUSH3 0x10001 PUSH1 0xA0 SHL OR SWAP1 SSTORE PUSH3 0x46F CALLER SWAP1 JUMP JUMPDEST PUSH1 0x6 DUP1 SLOAD PUSH1 0x1 PUSH1 0x1 PUSH1 0xA0 SHL SUB SWAP3 SWAP1 SWAP3 AND PUSH2 0x100 MUL PUSH2 0x100 PUSH1 0x1 PUSH1 0xA8 SHL SUB NOT SWAP1 SWAP3 AND SWAP2 SWAP1 SWAP2 OR SWAP1 SSTORE PUSH3 0x4A4 PUSH1 0x12 PUSH1 0xA PUSH3 0x815 JUMP JUMPDEST PUSH3 0x4B4 SWAP1 PUSH4 0x3B9ACA00 PUSH3 0x82D JUMP JUMPDEST CALLER PUSH1 0x0 SWAP1 DUP2 MSTORE PUSH1 0x1 PUSH1 0x20 DUP2 SWAP1 MSTORE PUSH1 0x40 DUP3 KECCAK256 SWAP3 SWAP1 SWAP3 SSTORE PUSH1 0x3 SWAP1 PUSH3 0x4DF PUSH1 0x0 SLOAD PUSH1 0x1 PUSH1 0x1 PUSH1 0xA0 SHL SUB AND SWAP1 JUMP JUMPDEST PUSH1 0x1 PUSH1 0x1 PUSH1 0xA0 SHL SUB SWAP1 DUP2 AND DUP3 MSTORE PUSH1 0x20 DUP1 DUP4 ADD SWAP4 SWAP1 SWAP4 MSTORE PUSH1 0x40 SWAP2 DUP3 ADD PUSH1 0x0 SWAP1 DUP2 KECCAK256 DUP1 SLOAD SWAP6 ISZERO ISZERO PUSH1 0xFF NOT SWAP7 DUP8 AND OR SWAP1 SSTORE ADDRESS DUP2 MSTORE PUSH1 0x3 SWAP1 SWAP4 MSTORE DUP2 DUP4 KECCAK256 DUP1 SLOAD DUP6 AND PUSH1 0x1 SWAP1 DUP2 OR SWAP1 SWAP2 SSTORE PUSH1 0x6 SLOAD PUSH2 0x100 SWAP1 DIV SWAP1 SWAP2 AND DUP4 MSTORE SWAP1 DUP3 KECCAK256 DUP1 SLOAD DUP5 AND DUP3 OR SWAP1 SSTORE PUSH2 0xDEAD SWAP1 SWAP2 MSTORE PUSH32 0x262BB27BBDD95C1CDC8E16957E36E38579EA44F7F6413DD7A9C75939DEF06B2C DUP1 SLOAD SWAP1 SWAP3 AND OR SWAP1 SSTORE PUSH3 0x573 CALLER SWAP1 JUMP JUMPDEST PUSH1 0x1 PUSH1 0x1 PUSH1 0xA0 SHL SUB AND PUSH1 0x0 PUSH32 0xDDF252AD1BE2C89B69C2B068FC378DAA952BA7F163C4A11628F55A4DF523B3EF PUSH3 0x5AD PUSH1 0x12 PUSH1 0xA PUSH3 0x815 JUMP JUMPDEST PUSH3 0x5BD SWAP1 PUSH4 0x3B9ACA00 PUSH3 0x82D JUMP JUMPDEST PUSH1 0x40 MLOAD SWAP1 DUP2 MSTORE PUSH1 0x20 ADD PUSH1 0x40 MLOAD DUP1 SWAP2 SUB SWAP1 LOG3 PUSH3 0x8C5 JUMP JUMPDEST PUSH1 0x1 PUSH1 0x1 PUSH1 0xA0 SHL SUB DUP4 AND PUSH3 0x63C JUMPI PUSH1 0x40 MLOAD PUSH3 0x461BCD PUSH1 0xE5 SHL DUP2 MSTORE PUSH1 0x20 PUSH1 0x4 DUP3 ADD MSTORE PUSH1 0x24 DUP1 DUP3 ADD MSTORE PUSH32 0x45524332303A20617070726F76652066726F6D20746865207A65726F20616464 PUSH1 0x44 DUP3 ADD MSTORE PUSH4 0x72657373 PUSH1 0xE0 SHL PUSH1 0x64 DUP3 ADD MSTORE PUSH1 0x84 ADD JUMPDEST PUSH1 0x40 MLOAD DUP1 SWAP2 SUB SWAP1 REVERT JUMPDEST PUSH1 0x1 PUSH1 0x1 PUSH1 0xA0 SHL SUB DUP3 AND PUSH3 0x69F JUMPI PUSH1 0x40 MLOAD PUSH3 0x461BCD PUSH1 0xE5 SHL DUP2 MSTORE PUSH1 0x20 PUSH1 0x4 DUP3 ADD MSTORE PUSH1 0x22 PUSH1 0x24 DUP3 ADD MSTORE PUSH32 0x45524332303A20617070726F766520746F20746865207A65726F206164647265 PUSH1 0x44 DUP3 ADD MSTORE PUSH2 0x7373 PUSH1 0xF0 SHL PUSH1 0x64 DUP3 ADD MSTORE PUSH1 0x84 ADD PUSH3 0x633 JUMP JUMPDEST PUSH1 0x1 PUSH1 0x1 PUSH1 0xA0 SHL SUB DUP4 DUP2 AND PUSH1 0x0 DUP2 DUP2 MSTORE PUSH1 0x2 PUSH1 0x20 SWAP1 DUP2 MSTORE PUSH1 0x40 DUP1 DUP4 KECCAK256 SWAP5 DUP8 AND DUP1 DUP5 MSTORE SWAP5 DUP3 MSTORE SWAP2 DUP3 SWAP1 KECCAK256 DUP6 SWAP1 SSTORE SWAP1 MLOAD DUP5 DUP2 MSTORE PUSH32 0x8C5BE1E5EBEC7D5BD14F71427D1E84F3DD0314C0F7B2291E5B200AC8C7C3B925 SWAP2 ADD PUSH1 0x40 MLOAD DUP1 SWAP2 SUB SWAP1 LOG3 POP POP POP JUMP JUMPDEST PUSH4 0x4E487B71 PUSH1 0xE0 SHL PUSH1 0x0 MSTORE PUSH1 0x11 PUSH1 0x4 MSTORE PUSH1 0x24 PUSH1 0x0 REVERT JUMPDEST PUSH1 0x1 DUP2 DUP2 JUMPDEST DUP1 DUP6 GT ISZERO PUSH3 0x757 JUMPI DUP2 PUSH1 0x0 NOT DIV DUP3 GT ISZERO PUSH3 0x73B JUMPI PUSH3 0x73B PUSH3 0x700 JUMP JUMPDEST DUP1 DUP6 AND ISZERO PUSH3 0x749 JUMPI SWAP2 DUP2 MUL SWAP2 JUMPDEST SWAP4 DUP5 SHR SWAP4 SWAP1 DUP1 MUL SWAP1 PUSH3 0x71B JUMP JUMPDEST POP SWAP3 POP SWAP3 SWAP1 POP JUMP JUMPDEST PUSH1 0x0 DUP3 PUSH3 0x770 JUMPI POP PUSH1 0x1 PUSH3 0x80F JUMP JUMPDEST DUP2 PUSH3 0x77F JUMPI POP PUSH1 0x0 PUSH3 0x80F JUMP JUMPDEST DUP2 PUSH1 0x1 DUP2 EQ PUSH3 0x798 JUMPI PUSH1 0x2 DUP2 EQ PUSH3 0x7A3 JUMPI PUSH3 0x7C3 JUMP JUMPDEST PUSH1 0x1 SWAP2 POP POP PUSH3 0x80F JUMP JUMPDEST PUSH1 0xFF DUP5 GT ISZERO PUSH3 0x7B7 JUMPI PUSH3 0x7B7 PUSH3 0x700 JUMP JUMPDEST POP POP PUSH1 0x1 DUP3 SHL PUSH3 0x80F JUMP JUMPDEST POP PUSH1 0x20 DUP4 LT PUSH2 0x133 DUP4 LT AND PUSH1 0x4E DUP5 LT PUSH1 0xB DUP5 LT AND OR ISZERO PUSH3 0x7E8 JUMPI POP DUP2 DUP2 EXP PUSH3 0x80F JUMP JUMPDEST PUSH3 0x7F4 DUP4 DUP4 PUSH3 0x716 JUMP JUMPDEST DUP1 PUSH1 0x0 NOT DIV DUP3 GT ISZERO PUSH3 0x80B JUMPI PUSH3 0x80B PUSH3 0x700 JUMP JUMPDEST MUL SWAP1 POP JUMPDEST SWAP3 SWAP2 POP POP JUMP JUMPDEST PUSH1 0x0 PUSH3 0x826 PUSH1 0xFF DUP5 AND DUP4 PUSH3 0x75F JUMP JUMPDEST SWAP4 SWAP3 POP POP POP JUMP JUMPDEST DUP1 DUP3 MUL DUP2 ISZERO DUP3 DUP3 DIV DUP5 EQ OR PUSH3 0x80F JUMPI PUSH3 0x80F PUSH3 0x700 JUMP JUMPDEST PUSH1 0x0 PUSH1 0x20 DUP3 DUP5 SUB SLT ISZERO PUSH3 0x85A JUMPI PUSH1 0x0 DUP1 REVERT JUMPDEST DUP2 MLOAD PUSH1 0x1 PUSH1 0x1 PUSH1 0xA0 SHL SUB DUP2 AND DUP2 EQ PUSH3 0x826 JUMPI PUSH1 0x0 DUP1 REVERT JUMPDEST PUSH1 0x0 DUP1 PUSH1 0x0 PUSH1 0x60 DUP5 DUP7 SUB SLT ISZERO PUSH3 0x888 JUMPI PUSH1 0x0 DUP1 REVERT JUMPDEST DUP4 MLOAD SWAP3 POP PUSH1 0x20 DUP5 ADD MLOAD SWAP2 POP PUSH1 0x40 DUP5 ADD MLOAD SWAP1 POP SWAP3 POP SWAP3 POP SWAP3 JUMP JUMPDEST PUSH1 0x0 PUSH1 0x20 DUP3 DUP5 SUB SLT ISZERO PUSH3 0x8B4 JUMPI PUSH1 0x0 DUP1 REVERT JUMPDEST DUP2 MLOAD DUP1 ISZERO ISZERO DUP2 EQ PUSH3 0x826 JUMPI PUSH1 0x0 DUP1 REVERT JUMPDEST PUSH2 0x14A9 DUP1 PUSH3 0x8D5 PUSH1 0x0 CODECOPY PUSH1 0x0 RETURN INVALID PUSH1 0x80 PUSH1 0x40 MSTORE PUSH1 0x4 CALLDATASIZE LT PUSH2 0x118 JUMPI PUSH1 0x0 CALLDATALOAD PUSH1 0xE0 SHR DUP1 PUSH4 0x751039FC GT PUSH2 0xA0 JUMPI DUP1 PUSH4 0xA01C3483 GT PUSH2 0x64 JUMPI DUP1 PUSH4 0xA01C3483 EQ PUSH2 0x30E JUMPI DUP1 PUSH4 0xA9059CBB EQ PUSH2 0x324 JUMPI DUP1 PUSH4 0xBF474BED EQ PUSH2 0x344 JUMPI DUP1 PUSH4 0xC876D0B9 EQ PUSH2 0x35A JUMPI DUP1 PUSH4 0xDD62ED3E EQ PUSH2 0x374 JUMPI PUSH1 0x0 DUP1 REVERT JUMPDEST DUP1 PUSH4 0x751039FC EQ PUSH2 0x26E JUMPI DUP1 PUSH4 0x7D1DB4A5 EQ PUSH2 0x283 JUMPI DUP1 PUSH4 0x8DA5CB5B EQ PUSH2 0x299 JUMPI DUP1 PUSH4 0x8F9A55C0 EQ PUSH2 0x2CB JUMPI DUP1 PUSH4 0x95D89B41 EQ PUSH2 0x2E1 JUMPI PUSH1 0x0 DUP1 REVERT JUMPDEST DUP1 PUSH4 0x23B872DD GT PUSH2 0xE7 JUMPI DUP1 PUSH4 0x23B872DD EQ PUSH2 0x1D0 JUMPI DUP1 PUSH4 0x313CE567 EQ PUSH2 0x1F0 JUMPI DUP1 PUSH4 0x51BC3C85 EQ PUSH2 0x20C JUMPI DUP1 PUSH4 0x70A08231 EQ PUSH2 0x223 JUMPI DUP1 PUSH4 0x715018A6 EQ PUSH2 0x259 JUMPI PUSH1 0x0 DUP1 REVERT JUMPDEST DUP1 PUSH4 0x6FDDE03 EQ PUSH2 0x124 JUMPI DUP1 PUSH4 0x95EA7B3 EQ PUSH2 0x167 JUMPI DUP1 PUSH4 0xFAEE56F EQ PUSH2 0x197 JUMPI DUP1 PUSH4 0x18160DDD EQ PUSH2 0x1BB JUMPI PUSH1 0x0 DUP1 REVERT JUMPDEST CALLDATASIZE PUSH2 0x11F JUMPI STOP JUMPDEST PUSH1 0x0 DUP1 REVERT JUMPDEST CALLVALUE DUP1 ISZERO PUSH2 0x130 JUMPI PUSH1 0x0 DUP1 REVERT JUMPDEST POP PUSH1 0x40 DUP1 MLOAD DUP1 DUP3 ADD SWAP1 SWAP2 MSTORE PUSH1 0x8 DUP2 MSTORE PUSH8 0x27B7329020B737B7 PUSH1 0xC1 SHL PUSH1 0x20 DUP3 ADD MSTORE JUMPDEST PUSH1 0x40 MLOAD PUSH2 0x15E SWAP2 SWAP1 PUSH2 0x10FD JUMP JUMPDEST PUSH1 0x40 MLOAD DUP1 SWAP2 SUB SWAP1 RETURN JUMPDEST CALLVALUE DUP1 ISZERO PUSH2 0x173 JUMPI PUSH1 0x0 DUP1 REVERT JUMPDEST POP PUSH2 0x187 PUSH2 0x182 CALLDATASIZE PUSH1 0x4 PUSH2 0x1163 JUMP JUMPDEST PUSH2 0x3BA JUMP JUMPDEST PUSH1 0x40 MLOAD SWAP1 ISZERO ISZERO DUP2 MSTORE PUSH1 0x20 ADD PUSH2 0x15E JUMP JUMPDEST CALLVALUE DUP1 ISZERO PUSH2 0x1A3 JUMPI PUSH1 0x0 DUP1 REVERT JUMPDEST POP PUSH2 0x1AD PUSH1 0x12 SLOAD DUP2 JUMP JUMPDEST PUSH1 0x40 MLOAD SWAP1 DUP2 MSTORE PUSH1 0x20 ADD PUSH2 0x15E JUMP JUMPDEST CALLVALUE DUP1 ISZERO PUSH2 0x1C7 JUMPI PUSH1 0x0 DUP1 REVERT JUMPDEST POP PUSH2 0x1AD PUSH2 0x3D1 JUMP JUMPDEST CALLVALUE DUP1 ISZERO PUSH2 0x1DC JUMPI PUSH1 0x0 DUP1 REVERT JUMPDEST POP PUSH2 0x187 PUSH2 0x1EB CALLDATASIZE PUSH1 0x4 PUSH2 0x118F JUMP JUMPDEST PUSH2 0x3F2 JUMP JUMPDEST CALLVALUE DUP1 ISZERO PUSH2 0x1FC JUMPI PUSH1 0x0 DUP1 REVERT JUMPDEST POP PUSH1 0x40 MLOAD PUSH1 0x12 DUP2 MSTORE PUSH1 0x20 ADD PUSH2 0x15E JUMP JUMPDEST CALLVALUE DUP1 ISZERO PUSH2 0x218 JUMPI PUSH1 0x0 DUP1 REVERT JUMPDEST POP PUSH2 0x221 PUSH2 0x45B JUMP JUMPDEST STOP JUMPDEST CALLVALUE DUP1 ISZERO PUSH2 0x22F JUMPI PUSH1 0x0 DUP1 REVERT JUMPDEST POP PUSH2 0x1AD PUSH2 0x23E CALLDATASIZE PUSH1 0x4 PUSH2 0x11D0 JUMP JUMPDEST PUSH1 0x1 PUSH1 0x1 PUSH1 0xA0 SHL SUB AND PUSH1 0x0 SWAP1 DUP2 MSTORE PUSH1 0x1 PUSH1 0x20 MSTORE PUSH1 0x40 SWAP1 KECCAK256 SLOAD SWAP1 JUMP JUMPDEST CALLVALUE DUP1 ISZERO PUSH2 0x265 JUMPI PUSH1 0x0 DUP1 REVERT JUMPDEST POP PUSH2 0x221 PUSH2 0x4B3 JUMP JUMPDEST CALLVALUE DUP1 ISZERO PUSH2 0x27A JUMPI PUSH1 0x0 DUP1 REVERT JUMPDEST POP PUSH2 0x221 PUSH2 0x55C JUMP JUMPDEST CALLVALUE DUP1 ISZERO PUSH2 0x28F JUMPI PUSH1 0x0 DUP1 REVERT JUMPDEST POP PUSH2 0x1AD PUSH1 0xF SLOAD DUP2 JUMP JUMPDEST CALLVALUE DUP1 ISZERO PUSH2 0x2A5 JUMPI PUSH1 0x0 DUP1 REVERT JUMPDEST POP PUSH1 0x0 SLOAD PUSH1 0x1 PUSH1 0x1 PUSH1 0xA0 SHL SUB AND JUMPDEST PUSH1 0x40 MLOAD PUSH1 0x1 PUSH1 0x1 PUSH1 0xA0 SHL SUB SWAP1 SWAP2 AND DUP2 MSTORE PUSH1 0x20 ADD PUSH2 0x15E JUMP JUMPDEST CALLVALUE DUP1 ISZERO PUSH2 0x2D7 JUMPI PUSH1 0x0 DUP1 REVERT JUMPDEST POP PUSH2 0x1AD PUSH1 0x10 SLOAD DUP2 JUMP JUMPDEST CALLVALUE DUP1 ISZERO PUSH2 0x2ED JUMPI PUSH1 0x0 DUP1 REVERT JUMPDEST POP PUSH1 0x40 DUP1 MLOAD DUP1 DUP3 ADD SWAP1 SWAP2 MSTORE PUSH1 0x4 DUP2 MSTORE PUSH4 0x913D055 PUSH1 0xE2 SHL PUSH1 0x20 DUP3 ADD MSTORE PUSH2 0x151 JUMP JUMPDEST CALLVALUE DUP1 ISZERO PUSH2 0x31A JUMPI PUSH1 0x0 DUP1 REVERT JUMPDEST POP PUSH2 0x2B3 PUSH2 0xDEAD DUP2 JUMP JUMPDEST CALLVALUE DUP1 ISZERO PUSH2 0x330 JUMPI PUSH1 0x0 DUP1 REVERT JUMPDEST POP PUSH2 0x187 PUSH2 0x33F CALLDATASIZE PUSH1 0x4 PUSH2 0x1163 JUMP JUMPDEST PUSH2 0x648 JUMP JUMPDEST CALLVALUE DUP1 ISZERO PUSH2 0x350 JUMPI PUSH1 0x0 DUP1 REVERT JUMPDEST POP PUSH2 0x1AD PUSH1 0x11 SLOAD DUP2 JUMP JUMPDEST CALLVALUE DUP1 ISZERO PUSH2 0x366 JUMPI PUSH1 0x0 DUP1 REVERT JUMPDEST POP PUSH1 0x6 SLOAD PUSH2 0x187 SWAP1 PUSH1 0xFF AND DUP2 JUMP JUMPDEST CALLVALUE DUP1 ISZERO PUSH2 0x380 JUMPI PUSH1 0x0 DUP1 REVERT JUMPDEST POP PUSH2 0x1AD PUSH2 0x38F CALLDATASIZE PUSH1 0x4 PUSH2 0x11ED JUMP JUMPDEST PUSH1 0x1 PUSH1 0x1 PUSH1 0xA0 SHL SUB SWAP2 DUP3 AND PUSH1 0x0 SWAP1 DUP2 MSTORE PUSH1 0x2 PUSH1 0x20 SWAP1 DUP2 MSTORE PUSH1 0x40 DUP1 DUP4 KECCAK256 SWAP4 SWAP1 SWAP5 AND DUP3 MSTORE SWAP2 SWAP1 SWAP2 MSTORE KECCAK256 SLOAD SWAP1 JUMP JUMPDEST PUSH1 0x0 PUSH2 0x3C7 CALLER DUP5 DUP5 PUSH2 0x655 JUMP JUMPDEST POP PUSH1 0x1 JUMPDEST SWAP3 SWAP2 POP POP JUMP JUMPDEST PUSH1 0x0 PUSH2 0x3DF PUSH1 0x12 PUSH1 0xA PUSH2 0x1320 JUMP JUMPDEST PUSH2 0x3ED SWAP1 PUSH4 0x3B9ACA00 PUSH2 0x132F JUMP JUMPDEST SWAP1 POP SWAP1 JUMP JUMPDEST PUSH1 0x0 PUSH2 0x3FF DUP5 DUP5 DUP5 PUSH2 0x779 JUMP JUMPDEST PUSH2 0x451 DUP5 CALLER PUSH2 0x44C DUP6 PUSH1 0x40 MLOAD DUP1 PUSH1 0x60 ADD PUSH1 0x40 MSTORE DUP1 PUSH1 0x28 DUP2 MSTORE PUSH1 0x20 ADD PUSH2 0x144C PUSH1 0x28 SWAP2 CODECOPY PUSH1 0x1 PUSH1 0x1 PUSH1 0xA0 SHL SUB DUP11 AND PUSH1 0x0 SWAP1 DUP2 MSTORE PUSH1 0x2 PUSH1 0x20 SWAP1 DUP2 MSTORE PUSH1 0x40 DUP1 DUP4 KECCAK256 CALLER DUP5 MSTORE SWAP1 SWAP2 MSTORE SWAP1 KECCAK256 SLOAD SWAP2 SWAP1 PUSH2 0xD5C JUMP JUMPDEST PUSH2 0x655 JUMP JUMPDEST POP PUSH1 0x1 SWAP4 SWAP3 POP POP POP JUMP JUMPDEST PUSH1 0x6 SLOAD PUSH2 0x100 SWAP1 DIV PUSH1 0x1 PUSH1 0x1 PUSH1 0xA0 SHL SUB AND CALLER PUSH1 0x1 PUSH1 0x1 PUSH1 0xA0 SHL SUB AND EQ PUSH2 0x480 JUMPI PUSH1 0x0 DUP1 REVERT JUMPDEST ADDRESS PUSH1 0x0 SWAP1 DUP2 MSTORE PUSH1 0x1 PUSH1 0x20 MSTORE PUSH1 0x40 SWAP1 KECCAK256 SLOAD DUP1 ISZERO PUSH2 0x49F JUMPI PUSH2 0x49F DUP2 PUSH2 0xD96 JUMP JUMPDEST SELFBALANCE DUP1 ISZERO PUSH2 0x4AF JUMPI PUSH2 0x4AF DUP2 PUSH2 0xF10 JUMP JUMPDEST POP POP JUMP JUMPDEST PUSH1 0x0 SLOAD PUSH1 0x1 PUSH1 0x1 PUSH1 0xA0 SHL SUB AND CALLER EQ PUSH2 0x512 JUMPI PUSH1 0x40 MLOAD PUSH3 0x461BCD PUSH1 0xE5 SHL DUP2 MSTORE PUSH1 0x20 PUSH1 0x4 DUP3 ADD DUP2 SWAP1 MSTORE PUSH1 0x24 DUP3 ADD MSTORE PUSH32 0x4F776E61626C653A2063616C6C6572206973206E6F7420746865206F776E6572 PUSH1 0x44 DUP3 ADD MSTORE PUSH1 0x64 ADD JUMPDEST PUSH1 0x40 MLOAD DUP1 SWAP2 SUB SWAP1 REVERT JUMPDEST PUSH1 0x0 DUP1 SLOAD PUSH1 0x40 MLOAD PUSH1 0x1 PUSH1 0x1 PUSH1 0xA0 SHL SUB SWAP1 SWAP2 AND SWAP1 PUSH32 0x8BE0079C531659141344CD1FD0A4F28419497F9722A3DAAFE3B4186F6B6457E0 SWAP1 DUP4 SWAP1 LOG3 PUSH1 0x0 DUP1 SLOAD PUSH1 0x1 PUSH1 0x1 PUSH1 0xA0 SHL SUB NOT AND SWAP1 SSTORE JUMP JUMPDEST PUSH1 0x0 SLOAD PUSH1 0x1 PUSH1 0x1 PUSH1 0xA0 SHL SUB AND CALLER EQ PUSH2 0x5B6 JUMPI PUSH1 0x40 MLOAD PUSH3 0x461BCD PUSH1 0xE5 SHL DUP2 MSTORE PUSH1 0x20 PUSH1 0x4 DUP3 ADD DUP2 SWAP1 MSTORE PUSH1 0x24 DUP3 ADD MSTORE PUSH32 0x4F776E61626C653A2063616C6C6572206973206E6F7420746865206F776E6572 PUSH1 0x44 DUP3 ADD MSTORE PUSH1 0x64 ADD PUSH2 0x509 JUMP JUMPDEST PUSH2 0x5C2 PUSH1 0x12 PUSH1 0xA PUSH2 0x1320 JUMP JUMPDEST PUSH2 0x5D0 SWAP1 PUSH4 0x3B9ACA00 PUSH2 0x132F JUMP JUMPDEST PUSH1 0xF SSTORE PUSH2 0x5DF PUSH1 0x12 PUSH1 0xA PUSH2 0x1320 JUMP JUMPDEST PUSH2 0x5ED SWAP1 PUSH4 0x3B9ACA00 PUSH2 0x132F JUMP JUMPDEST PUSH1 0x10 SSTORE PUSH1 0x6 DUP1 SLOAD PUSH1 0xFF NOT AND SWAP1 SSTORE PUSH32 0x947F344D56E1E8C70DC492FB94C4DDDDD490C016AAB685F5E7E47B2E85CB44CF PUSH2 0x627 PUSH1 0x12 PUSH1 0xA PUSH2 0x1320 JUMP JUMPDEST PUSH2 0x635 SWAP1 PUSH4 0x3B9ACA00 PUSH2 0x132F JUMP JUMPDEST PUSH1 0x40 MLOAD SWAP1 DUP2 MSTORE PUSH1 0x20 ADD PUSH1 0x40 MLOAD DUP1 SWAP2 SUB SWAP1 LOG1 JUMP JUMPDEST PUSH1 0x0 PUSH2 0x3C7 CALLER DUP5 DUP5 PUSH2 0x779 JUMP JUMPDEST PUSH1 0x1 PUSH1 0x1 PUSH1 0xA0 SHL SUB DUP4 AND PUSH2 0x6B7 JUMPI PUSH1 0x40 MLOAD PUSH3 0x461BCD PUSH1 0xE5 SHL DUP2 MSTORE PUSH1 0x20 PUSH1 0x4 DUP3 ADD MSTORE PUSH1 0x24 DUP1 DUP3 ADD MSTORE PUSH32 0x45524332303A20617070726F76652066726F6D20746865207A65726F20616464 PUSH1 0x44 DUP3 ADD MSTORE PUSH4 0x72657373 PUSH1 0xE0 SHL PUSH1 0x64 DUP3 ADD MSTORE PUSH1 0x84 ADD PUSH2 0x509 JUMP JUMPDEST PUSH1 0x1 PUSH1 0x1 PUSH1 0xA0 SHL SUB DUP3 AND PUSH2 0x718 JUMPI PUSH1 0x40 MLOAD PUSH3 0x461BCD PUSH1 0xE5 SHL DUP2 MSTORE PUSH1 0x20 PUSH1 0x4 DUP3 ADD MSTORE PUSH1 0x22 PUSH1 0x24 DUP3 ADD MSTORE PUSH32 0x45524332303A20617070726F766520746F20746865207A65726F206164647265 PUSH1 0x44 DUP3 ADD MSTORE PUSH2 0x7373 PUSH1 0xF0 SHL PUSH1 0x64 DUP3 ADD MSTORE PUSH1 0x84 ADD PUSH2 0x509 JUMP JUMPDEST PUSH1 0x1 PUSH1 0x1 PUSH1 0xA0 SHL SUB DUP4 DUP2 AND PUSH1 0x0 DUP2 DUP2 MSTORE PUSH1 0x2 PUSH1 0x20 SWAP1 DUP2 MSTORE PUSH1 0x40 DUP1 DUP4 KECCAK256 SWAP5 DUP8 AND DUP1 DUP5 MSTORE SWAP5 DUP3 MSTORE SWAP2 DUP3 SWAP1 KECCAK256 DUP6 SWAP1 SSTORE SWAP1 MLOAD DUP5 DUP2 MSTORE PUSH32 0x8C5BE1E5EBEC7D5BD14F71427D1E84F3DD0314C0F7B2291E5B200AC8C7C3B925 SWAP2 ADD PUSH1 0x40 MLOAD DUP1 SWAP2 SUB SWAP1 LOG3 POP POP POP JUMP JUMPDEST PUSH1 0x1 PUSH1 0x1 PUSH1 0xA0 SHL SUB DUP4 AND PUSH2 0x7DD JUMPI PUSH1 0x40 MLOAD PUSH3 0x461BCD PUSH1 0xE5 SHL DUP2 MSTORE PUSH1 0x20 PUSH1 0x4 DUP3 ADD MSTORE PUSH1 0x25 PUSH1 0x24 DUP3 ADD MSTORE PUSH32 0x45524332303A207472616E736665722066726F6D20746865207A65726F206164 PUSH1 0x44 DUP3 ADD MSTORE PUSH5 0x6472657373 PUSH1 0xD8 SHL PUSH1 0x64 DUP3 ADD MSTORE PUSH1 0x84 ADD PUSH2 0x509 JUMP JUMPDEST PUSH1 0x1 PUSH1 0x1 PUSH1 0xA0 SHL SUB DUP3 AND PUSH2 0x83F JUMPI PUSH1 0x40 MLOAD PUSH3 0x461BCD PUSH1 0xE5 SHL DUP2 MSTORE PUSH1 0x20 PUSH1 0x4 DUP3 ADD MSTORE PUSH1 0x23 PUSH1 0x24 DUP3 ADD MSTORE PUSH32 0x45524332303A207472616E7366657220746F20746865207A65726F2061646472 PUSH1 0x44 DUP3 ADD MSTORE PUSH3 0x657373 PUSH1 0xE8 SHL PUSH1 0x64 DUP3 ADD MSTORE PUSH1 0x84 ADD PUSH2 0x509 JUMP JUMPDEST PUSH1 0x0 DUP2 GT PUSH2 0x8A1 JUMPI PUSH1 0x40 MLOAD PUSH3 0x461BCD PUSH1 0xE5 SHL DUP2 MSTORE PUSH1 0x20 PUSH1 0x4 DUP3 ADD MSTORE PUSH1 0x29 PUSH1 0x24 DUP3 ADD MSTORE PUSH32 0x5472616E7366657220616D6F756E74206D757374206265206772656174657220 PUSH1 0x44 DUP3 ADD MSTORE PUSH9 0x7468616E207A65726F PUSH1 0xB8 SHL PUSH1 0x64 DUP3 ADD MSTORE PUSH1 0x84 ADD PUSH2 0x509 JUMP JUMPDEST PUSH1 0x0 DUP1 SLOAD PUSH1 0x1 PUSH1 0x1 PUSH1 0xA0 SHL SUB DUP6 DUP2 AND SWAP2 AND EQ DUP1 ISZERO SWAP1 PUSH2 0x8CE JUMPI POP PUSH1 0x0 SLOAD PUSH1 0x1 PUSH1 0x1 PUSH1 0xA0 SHL SUB DUP5 DUP2 AND SWAP2 AND EQ ISZERO JUMPDEST ISZERO PUSH2 0xC19 JUMPI PUSH2 0x8FF PUSH1 0x64 PUSH2 0x8F9 PUSH1 0xB SLOAD PUSH1 0xE SLOAD GT PUSH2 0x8EE JUMPI PUSH1 0x7 SLOAD PUSH2 0x8F2 JUMP JUMPDEST PUSH1 0x9 SLOAD JUMPDEST DUP6 SWAP1 PUSH2 0xF4E JUMP JUMPDEST SWAP1 PUSH2 0xFD7 JUMP JUMPDEST PUSH1 0x6 SLOAD SWAP1 SWAP2 POP PUSH1 0xFF AND ISZERO PUSH2 0x9E7 JUMPI PUSH1 0x13 SLOAD PUSH1 0x1 PUSH1 0x1 PUSH1 0xA0 SHL SUB DUP5 DUP2 AND SWAP2 AND EQ DUP1 ISZERO SWAP1 PUSH2 0x939 JUMPI POP PUSH1 0x14 SLOAD PUSH1 0x1 PUSH1 0x1 PUSH1 0xA0 SHL SUB DUP5 DUP2 AND SWAP2 AND EQ ISZERO JUMPDEST ISZERO PUSH2 0x9E7 JUMPI ORIGIN PUSH1 0x0 SWAP1 DUP2 MSTORE PUSH1 0x5 PUSH1 0x20 MSTORE PUSH1 0x40 SWAP1 KECCAK256 SLOAD NUMBER GT PUSH2 0x9D4 JUMPI PUSH1 0x40 MLOAD PUSH3 0x461BCD PUSH1 0xE5 SHL DUP2 MSTORE PUSH1 0x20 PUSH1 0x4 DUP3 ADD MSTORE PUSH1 0x49 PUSH1 0x24 DUP3 ADD MSTORE PUSH32 0x5F7472616E736665723A3A205472616E736665722044656C617920656E61626C PUSH1 0x44 DUP3 ADD MSTORE PUSH32 0x65642E20204F6E6C79206F6E652070757263686173652070657220626C6F636B PUSH1 0x64 DUP3 ADD MSTORE PUSH9 0x1030B63637BBB2B217 PUSH1 0xB9 SHL PUSH1 0x84 DUP3 ADD MSTORE PUSH1 0xA4 ADD PUSH2 0x509 JUMP JUMPDEST ORIGIN PUSH1 0x0 SWAP1 DUP2 MSTORE PUSH1 0x5 PUSH1 0x20 MSTORE PUSH1 0x40 SWAP1 KECCAK256 NUMBER SWAP1 SSTORE JUMPDEST PUSH1 0x14 SLOAD PUSH1 0x1 PUSH1 0x1 PUSH1 0xA0 SHL SUB DUP6 DUP2 AND SWAP2 AND EQ DUP1 ISZERO PUSH2 0xA12 JUMPI POP PUSH1 0x13 SLOAD PUSH1 0x1 PUSH1 0x1 PUSH1 0xA0 SHL SUB DUP5 DUP2 AND SWAP2 AND EQ ISZERO JUMPDEST DUP1 ISZERO PUSH2 0xA37 JUMPI POP PUSH1 0x1 PUSH1 0x1 PUSH1 0xA0 SHL SUB DUP4 AND PUSH1 0x0 SWAP1 DUP2 MSTORE PUSH1 0x3 PUSH1 0x20 MSTORE PUSH1 0x40 SWAP1 KECCAK256 SLOAD PUSH1 0xFF AND ISZERO JUMPDEST ISZERO PUSH2 0xB1F JUMPI PUSH1 0xF SLOAD DUP3 GT ISZERO PUSH2 0xA8E JUMPI PUSH1 0x40 MLOAD PUSH3 0x461BCD PUSH1 0xE5 SHL DUP2 MSTORE PUSH1 0x20 PUSH1 0x4 DUP3 ADD MSTORE PUSH1 0x19 PUSH1 0x24 DUP3 ADD MSTORE PUSH32 0x4578636565647320746865205F6D61785478416D6F756E742E00000000000000 PUSH1 0x44 DUP3 ADD MSTORE PUSH1 0x64 ADD PUSH2 0x509 JUMP JUMPDEST PUSH1 0x10 SLOAD DUP3 PUSH2 0xAB1 DUP6 PUSH1 0x1 PUSH1 0x1 PUSH1 0xA0 SHL SUB AND PUSH1 0x0 SWAP1 DUP2 MSTORE PUSH1 0x1 PUSH1 0x20 MSTORE PUSH1 0x40 SWAP1 KECCAK256 SLOAD SWAP1 JUMP JUMPDEST PUSH2 0xABB SWAP2 SWAP1 PUSH2 0x1346 JUMP JUMPDEST GT ISZERO PUSH2 0xB09 JUMPI PUSH1 0x40 MLOAD PUSH3 0x461BCD PUSH1 0xE5 SHL DUP2 MSTORE PUSH1 0x20 PUSH1 0x4 DUP3 ADD MSTORE PUSH1 0x1A PUSH1 0x24 DUP3 ADD MSTORE PUSH32 0x4578636565647320746865206D617857616C6C657453697A652E000000000000 PUSH1 0x44 DUP3 ADD MSTORE PUSH1 0x64 ADD PUSH2 0x509 JUMP JUMPDEST PUSH1 0xE DUP1 SLOAD SWAP1 PUSH1 0x0 PUSH2 0xB19 DUP4 PUSH2 0x1359 JUMP JUMPDEST SWAP2 SWAP1 POP SSTORE POP JUMPDEST PUSH1 0x14 SLOAD PUSH1 0x1 PUSH1 0x1 PUSH1 0xA0 SHL SUB DUP5 DUP2 AND SWAP2 AND EQ DUP1 ISZERO PUSH2 0xB45 JUMPI POP PUSH1 0x1 PUSH1 0x1 PUSH1 0xA0 SHL SUB DUP5 AND ADDRESS EQ ISZERO JUMPDEST ISZERO PUSH2 0xB72 JUMPI PUSH2 0xB6F PUSH1 0x64 PUSH2 0x8F9 PUSH1 0xC SLOAD PUSH1 0xE SLOAD GT PUSH2 0xB65 JUMPI PUSH1 0x8 SLOAD PUSH2 0x8F2 JUMP JUMPDEST PUSH1 0xA SLOAD DUP6 SWAP1 PUSH2 0xF4E JUMP JUMPDEST SWAP1 POP JUMPDEST ADDRESS PUSH1 0x0 SWAP1 DUP2 MSTORE PUSH1 0x1 PUSH1 0x20 MSTORE PUSH1 0x40 SWAP1 KECCAK256 SLOAD PUSH1 0x14 SLOAD PUSH1 0x1 PUSH1 0xA8 SHL SWAP1 DIV PUSH1 0xFF AND ISZERO DUP1 ISZERO PUSH2 0xBA9 JUMPI POP PUSH1 0x14 SLOAD PUSH1 0x1 PUSH1 0x1 PUSH1 0xA0 SHL SUB DUP6 DUP2 AND SWAP2 AND EQ JUMPDEST DUP1 ISZERO PUSH2 0xBBE JUMPI POP PUSH1 0x14 SLOAD PUSH1 0x1 PUSH1 0xB0 SHL SWAP1 DIV PUSH1 0xFF AND JUMPDEST DUP1 ISZERO PUSH2 0xBCB JUMPI POP PUSH1 0x11 SLOAD DUP2 GT JUMPDEST DUP1 ISZERO PUSH2 0xBDA JUMPI POP PUSH1 0xD SLOAD PUSH1 0xE SLOAD GT JUMPDEST ISZERO PUSH2 0xC17 JUMPI PUSH2 0xBFC PUSH2 0xBF7 DUP5 PUSH2 0xBF2 DUP5 PUSH1 0x12 SLOAD PUSH2 0x1019 JUMP JUMPDEST PUSH2 0x1019 JUMP JUMPDEST PUSH2 0xD96 JUMP JUMPDEST SELFBALANCE PUSH7 0xB1A2BC2EC50000 DUP2 GT ISZERO PUSH2 0xC15 JUMPI PUSH2 0xC15 SELFBALANCE PUSH2 0xF10 JUMP JUMPDEST POP JUMPDEST POP JUMPDEST DUP1 ISZERO PUSH2 0xC93 JUMPI ADDRESS PUSH1 0x0 SWAP1 DUP2 MSTORE PUSH1 0x1 PUSH1 0x20 MSTORE PUSH1 0x40 SWAP1 KECCAK256 SLOAD PUSH2 0xC39 SWAP1 DUP3 PUSH2 0x102E JUMP JUMPDEST ADDRESS PUSH1 0x0 DUP2 DUP2 MSTORE PUSH1 0x1 PUSH1 0x20 MSTORE PUSH1 0x40 SWAP1 DUP2 SWAP1 KECCAK256 SWAP3 SWAP1 SWAP3 SSTORE SWAP1 MLOAD PUSH1 0x1 PUSH1 0x1 PUSH1 0xA0 SHL SUB DUP7 AND SWAP1 PUSH32 0xDDF252AD1BE2C89B69C2B068FC378DAA952BA7F163C4A11628F55A4DF523B3EF SWAP1 PUSH2 0xC8A SWAP1 DUP6 DUP2 MSTORE PUSH1 0x20 ADD SWAP1 JUMP JUMPDEST PUSH1 0x40 MLOAD DUP1 SWAP2 SUB SWAP1 LOG3 JUMPDEST PUSH1 0x1 PUSH1 0x1 PUSH1 0xA0 SHL SUB DUP5 AND PUSH1 0x0 SWAP1 DUP2 MSTORE PUSH1 0x1 PUSH1 0x20 MSTORE PUSH1 0x40 SWAP1 KECCAK256 SLOAD PUSH2 0xCB6 SWAP1 DUP4 PUSH2 0x108D JUMP JUMPDEST PUSH1 0x1 PUSH1 0x1 PUSH1 0xA0 SHL SUB DUP6 AND PUSH1 0x0 SWAP1 DUP2 MSTORE PUSH1 0x1 PUSH1 0x20 MSTORE PUSH1 0x40 SWAP1 KECCAK256 SSTORE PUSH2 0xCFB PUSH2 0xCDC DUP4 DUP4 PUSH2 0x108D JUMP JUMPDEST PUSH1 0x1 PUSH1 0x1 PUSH1 0xA0 SHL SUB DUP6 AND PUSH1 0x0 SWAP1 DUP2 MSTORE PUSH1 0x1 PUSH1 0x20 MSTORE PUSH1 0x40 SWAP1 KECCAK256 SLOAD SWAP1 PUSH2 0x102E JUMP JUMPDEST PUSH1 0x1 PUSH1 0x1 PUSH1 0xA0 SHL SUB DUP1 DUP6 AND PUSH1 0x0 DUP2 DUP2 MSTORE PUSH1 0x1 PUSH1 0x20 MSTORE PUSH1 0x40 SWAP1 KECCAK256 SWAP3 SWAP1 SWAP3 SSTORE DUP6 AND PUSH32 0xDDF252AD1BE2C89B69C2B068FC378DAA952BA7F163C4A11628F55A4DF523B3EF PUSH2 0xD45 DUP6 DUP6 PUSH2 0x108D JUMP JUMPDEST PUSH1 0x40 MLOAD SWAP1 DUP2 MSTORE PUSH1 0x20 ADD PUSH1 0x40 MLOAD DUP1 SWAP2 SUB SWAP1 LOG3 POP POP POP POP JUMP JUMPDEST PUSH1 0x0 DUP2 DUP5 DUP5 GT ISZERO PUSH2 0xD80 JUMPI PUSH1 0x40 MLOAD PUSH3 0x461BCD PUSH1 0xE5 SHL DUP2 MSTORE PUSH1 0x4 ADD PUSH2 0x509 SWAP2 SWAP1 PUSH2 0x10FD JUMP JUMPDEST POP PUSH1 0x0 PUSH2 0xD8D DUP5 DUP7 PUSH2 0x1372 JUMP JUMPDEST SWAP6 SWAP5 POP POP POP POP POP JUMP JUMPDEST PUSH1 0x14 DUP1 SLOAD PUSH1 0xFF PUSH1 0xA8 SHL NOT AND PUSH1 0x1 PUSH1 0xA8 SHL OR SWAP1 SSTORE PUSH1 0x40 DUP1 MLOAD PUSH1 0x2 DUP1 DUP3 MSTORE PUSH1 0x60 DUP3 ADD DUP4 MSTORE PUSH1 0x0 SWAP3 PUSH1 0x20 DUP4 ADD SWAP1 DUP1 CALLDATASIZE DUP4 CALLDATACOPY ADD SWAP1 POP POP SWAP1 POP ADDRESS DUP2 PUSH1 0x0 DUP2 MLOAD DUP2 LT PUSH2 0xDDE JUMPI PUSH2 0xDDE PUSH2 0x1385 JUMP JUMPDEST PUSH1 0x1 PUSH1 0x1 PUSH1 0xA0 SHL SUB SWAP3 DUP4 AND PUSH1 0x20 SWAP2 DUP3 MUL SWAP3 SWAP1 SWAP3 ADD DUP2 ADD SWAP2 SWAP1 SWAP2 MSTORE PUSH1 0x13 SLOAD PUSH1 0x40 DUP1 MLOAD PUSH4 0x15AB88C9 PUSH1 0xE3 SHL DUP2 MSTORE SWAP1 MLOAD SWAP2 SWAP1 SWAP4 AND SWAP3 PUSH4 0xAD5C4648 SWAP3 PUSH1 0x4 DUP1 DUP4 ADD SWAP4 SWAP2 SWAP3 DUP3 SWAP1 SUB ADD DUP2 DUP7 GAS STATICCALL ISZERO DUP1 ISZERO PUSH2 0xE37 JUMPI RETURNDATASIZE PUSH1 0x0 DUP1 RETURNDATACOPY RETURNDATASIZE PUSH1 0x0 REVERT JUMPDEST POP POP POP POP PUSH1 0x40 MLOAD RETURNDATASIZE PUSH1 0x1F NOT PUSH1 0x1F DUP3 ADD AND DUP3 ADD DUP1 PUSH1 0x40 MSTORE POP DUP2 ADD SWAP1 PUSH2 0xE5B SWAP2 SWAP1 PUSH2 0x139B JUMP JUMPDEST DUP2 PUSH1 0x1 DUP2 MLOAD DUP2 LT PUSH2 0xE6E JUMPI PUSH2 0xE6E PUSH2 0x1385 JUMP JUMPDEST PUSH1 0x1 PUSH1 0x1 PUSH1 0xA0 SHL SUB SWAP3 DUP4 AND PUSH1 0x20 SWAP2 DUP3 MUL SWAP3 SWAP1 SWAP3 ADD ADD MSTORE PUSH1 0x13 SLOAD PUSH2 0xE94 SWAP2 ADDRESS SWAP2 AND DUP5 PUSH2 0x655 JUMP JUMPDEST PUSH1 0x13 SLOAD PUSH1 0x40 MLOAD PUSH4 0x791AC947 PUSH1 0xE0 SHL DUP2 MSTORE PUSH1 0x1 PUSH1 0x1 PUSH1 0xA0 SHL SUB SWAP1 SWAP2 AND SWAP1 PUSH4 0x791AC947 SWAP1 PUSH2 0xECD SWAP1 DUP6 SWAP1 PUSH1 0x0 SWAP1 DUP7 SWAP1 ADDRESS SWAP1 TIMESTAMP SWAP1 PUSH1 0x4 ADD PUSH2 0x13B8 JUMP JUMPDEST PUSH1 0x0 PUSH1 0x40 MLOAD DUP1 DUP4 SUB DUP2 PUSH1 0x0 DUP8 DUP1 EXTCODESIZE ISZERO DUP1 ISZERO PUSH2 0xEE7 JUMPI PUSH1 0x0 DUP1 REVERT JUMPDEST POP GAS CALL ISZERO DUP1 ISZERO PUSH2 0xEFB JUMPI RETURNDATASIZE PUSH1 0x0 DUP1 RETURNDATACOPY RETURNDATASIZE PUSH1 0x0 REVERT JUMPDEST POP POP PUSH1 0x14 DUP1 SLOAD PUSH1 0xFF PUSH1 0xA8 SHL NOT AND SWAP1 SSTORE POP POP POP POP JUMP JUMPDEST PUSH1 0x6 SLOAD PUSH1 0x40 MLOAD PUSH2 0x100 SWAP1 SWAP2 DIV PUSH1 0x1 PUSH1 0x1 PUSH1 0xA0 SHL SUB AND SWAP1 PUSH2 0x8FC DUP4 ISZERO MUL SWAP1 DUP4 SWAP1 PUSH1 0x0 DUP2 DUP2 DUP2 DUP6 DUP9 DUP9 CALL SWAP4 POP POP POP POP ISZERO DUP1 ISZERO PUSH2 0x4AF JUMPI RETURNDATASIZE PUSH1 0x0 DUP1 RETURNDATACOPY RETURNDATASIZE PUSH1 0x0 REVERT JUMPDEST PUSH1 0x0 DUP3 PUSH1 0x0 SUB PUSH2 0xF60 JUMPI POP PUSH1 0x0 PUSH2 0x3CB JUMP JUMPDEST PUSH1 0x0 PUSH2 0xF6C DUP4 DUP6 PUSH2 0x132F JUMP JUMPDEST SWAP1 POP DUP3 PUSH2 0xF79 DUP6 DUP4 PUSH2 0x1429 JUMP JUMPDEST EQ PUSH2 0xFD0 JUMPI PUSH1 0x40 MLOAD PUSH3 0x461BCD PUSH1 0xE5 SHL DUP2 MSTORE PUSH1 0x20 PUSH1 0x4 DUP3 ADD MSTORE PUSH1 0x21 PUSH1 0x24 DUP3 ADD MSTORE PUSH32 0x536166654D6174683A206D756C7469706C69636174696F6E206F766572666C6F PUSH1 0x44 DUP3 ADD MSTORE PUSH1 0x77 PUSH1 0xF8 SHL PUSH1 0x64 DUP3 ADD MSTORE PUSH1 0x84 ADD PUSH2 0x509 JUMP JUMPDEST SWAP4 SWAP3 POP POP POP JUMP JUMPDEST PUSH1 0x0 PUSH2 0xFD0 DUP4 DUP4 PUSH1 0x40 MLOAD DUP1 PUSH1 0x40 ADD PUSH1 0x40 MSTORE DUP1 PUSH1 0x1A DUP2 MSTORE PUSH1 0x20 ADD PUSH32 0x536166654D6174683A206469766973696F6E206279207A65726F000000000000 DUP2 MSTORE POP PUSH2 0x10CF JUMP JUMPDEST PUSH1 0x0 DUP2 DUP4 GT PUSH2 0x1028 JUMPI DUP3 PUSH2 0xFD0 JUMP JUMPDEST POP SWAP2 SWAP1 POP JUMP JUMPDEST PUSH1 0x0 DUP1 PUSH2 0x103B DUP4 DUP6 PUSH2 0x1346 JUMP JUMPDEST SWAP1 POP DUP4 DUP2 LT ISZERO PUSH2 0xFD0 JUMPI PUSH1 0x40 MLOAD PUSH3 0x461BCD PUSH1 0xE5 SHL DUP2 MSTORE PUSH1 0x20 PUSH1 0x4 DUP3 ADD MSTORE PUSH1 0x1B PUSH1 0x24 DUP3 ADD MSTORE PUSH32 0x536166654D6174683A206164646974696F6E206F766572666C6F770000000000 PUSH1 0x44 DUP3 ADD MSTORE PUSH1 0x64 ADD PUSH2 0x509 JUMP JUMPDEST PUSH1 0x0 PUSH2 0xFD0 DUP4 DUP4 PUSH1 0x40 MLOAD DUP1 PUSH1 0x40 ADD PUSH1 0x40 MSTORE DUP1 PUSH1 0x1E DUP2 MSTORE PUSH1 0x20 ADD PUSH32 0x536166654D6174683A207375627472616374696F6E206F766572666C6F770000 DUP2 MSTORE POP PUSH2 0xD5C JUMP JUMPDEST PUSH1 0x0 DUP2 DUP4 PUSH2 0x10F0 JUMPI PUSH1 0x40 MLOAD PUSH3 0x461BCD PUSH1 0xE5 SHL DUP2 MSTORE PUSH1 0x4 ADD PUSH2 0x509 SWAP2 SWAP1 PUSH2 0x10FD JUMP JUMPDEST POP PUSH1 0x0 PUSH2 0xD8D DUP5 DUP7 PUSH2 0x1429 JUMP JUMPDEST PUSH1 0x0 PUSH1 0x20 DUP1 DUP4 MSTORE DUP4 MLOAD DUP1 DUP3 DUP6 ADD MSTORE PUSH1 0x0 JUMPDEST DUP2 DUP2 LT ISZERO PUSH2 0x112A JUMPI DUP6 DUP2 ADD DUP4 ADD MLOAD DUP6 DUP3 ADD PUSH1 0x40 ADD MSTORE DUP3 ADD PUSH2 0x110E JUMP JUMPDEST POP PUSH1 0x0 PUSH1 0x40 DUP3 DUP7 ADD ADD MSTORE PUSH1 0x40 PUSH1 0x1F NOT PUSH1 0x1F DUP4 ADD AND DUP6 ADD ADD SWAP3 POP POP POP SWAP3 SWAP2 POP POP JUMP JUMPDEST PUSH1 0x1 PUSH1 0x1 PUSH1 0xA0 SHL SUB DUP2 AND DUP2 EQ PUSH2 0x1160 JUMPI PUSH1 0x0 DUP1 REVERT JUMPDEST POP JUMP JUMPDEST PUSH1 0x0 DUP1 PUSH1 0x40 DUP4 DUP6 SUB SLT ISZERO PUSH2 0x1176 JUMPI PUSH1 0x0 DUP1 REVERT JUMPDEST DUP3 CALLDATALOAD PUSH2 0x1181 DUP2 PUSH2 0x114B JUMP JUMPDEST SWAP5 PUSH1 0x20 SWAP4 SWAP1 SWAP4 ADD CALLDATALOAD SWAP4 POP POP POP JUMP JUMPDEST PUSH1 0x0 DUP1 PUSH1 0x0 PUSH1 0x60 DUP5 DUP7 SUB SLT ISZERO PUSH2 0x11A4 JUMPI PUSH1 0x0 DUP1 REVERT JUMPDEST DUP4 CALLDATALOAD PUSH2 0x11AF DUP2 PUSH2 0x114B JUMP JUMPDEST SWAP3 POP PUSH1 0x20 DUP5 ADD CALLDATALOAD PUSH2 0x11BF DUP2 PUSH2 0x114B JUMP JUMPDEST SWAP3 SWAP6 SWAP3 SWAP5 POP POP POP PUSH1 0x40 SWAP2 SWAP1 SWAP2 ADD CALLDATALOAD SWAP1 JUMP JUMPDEST PUSH1 0x0 PUSH1 0x20 DUP3 DUP5 SUB SLT ISZERO PUSH2 0x11E2 JUMPI PUSH1 0x0 DUP1 REVERT JUMPDEST DUP2 CALLDATALOAD PUSH2 0xFD0 DUP2 PUSH2 0x114B JUMP JUMPDEST PUSH1 0x0 DUP1 PUSH1 0x40 DUP4 DUP6 SUB SLT ISZERO PUSH2 0x1200 JUMPI PUSH1 0x0 DUP1 REVERT JUMPDEST DUP3 CALLDATALOAD PUSH2 0x120B DUP2 PUSH2 0x114B JUMP JUMPDEST SWAP2 POP PUSH1 0x20 DUP4 ADD CALLDATALOAD PUSH2 0x121B DUP2 PUSH2 0x114B JUMP JUMPDEST DUP1 SWAP2 POP POP SWAP3 POP SWAP3 SWAP1 POP JUMP JUMPDEST PUSH4 0x4E487B71 PUSH1 0xE0 SHL PUSH1 0x0 MSTORE PUSH1 0x11 PUSH1 0x4 MSTORE PUSH1 0x24 PUSH1 0x0 REVERT JUMPDEST PUSH1 0x1 DUP2 DUP2 JUMPDEST DUP1 DUP6 GT ISZERO PUSH2 0x1277 JUMPI DUP2 PUSH1 0x0 NOT DIV DUP3 GT ISZERO PUSH2 0x125D JUMPI PUSH2 0x125D PUSH2 0x1226 JUMP JUMPDEST DUP1 DUP6 AND ISZERO PUSH2 0x126A JUMPI SWAP2 DUP2 MUL SWAP2 JUMPDEST SWAP4 DUP5 SHR SWAP4 SWAP1 DUP1 MUL SWAP1 PUSH2 0x1241 JUMP JUMPDEST POP SWAP3 POP SWAP3 SWAP1 POP JUMP JUMPDEST PUSH1 0x0 DUP3 PUSH2 0x128E JUMPI POP PUSH1 0x1 PUSH2 0x3CB JUMP JUMPDEST DUP2 PUSH2 0x129B JUMPI POP PUSH1 0x0 PUSH2 0x3CB JUMP JUMPDEST DUP2 PUSH1 0x1 DUP2 EQ PUSH2 0x12B1 JUMPI PUSH1 0x2 DUP2 EQ PUSH2 0x12BB JUMPI PUSH2 0x12D7 JUMP JUMPDEST PUSH1 0x1 SWAP2 POP POP PUSH2 0x3CB JUMP JUMPDEST PUSH1 0xFF DUP5 GT ISZERO PUSH2 0x12CC JUMPI PUSH2 0x12CC PUSH2 0x1226 JUMP JUMPDEST POP POP PUSH1 0x1 DUP3 SHL PUSH2 0x3CB JUMP JUMPDEST POP PUSH1 0x20 DUP4 LT PUSH2 0x133 DUP4 LT AND PUSH1 0x4E DUP5 LT PUSH1 0xB DUP5 LT AND OR ISZERO PUSH2 0x12FA JUMPI POP DUP2 DUP2 EXP PUSH2 0x3CB JUMP JUMPDEST PUSH2 0x1304 DUP4 DUP4 PUSH2 0x123C JUMP JUMPDEST DUP1 PUSH1 0x0 NOT DIV DUP3 GT ISZERO PUSH2 0x1318 JUMPI PUSH2 0x1318 PUSH2 0x1226 JUMP JUMPDEST MUL SWAP4 SWAP3 POP POP POP JUMP JUMPDEST PUSH1 0x0 PUSH2 0xFD0 PUSH1 0xFF DUP5 AND DUP4 PUSH2 0x127F JUMP JUMPDEST DUP1 DUP3 MUL DUP2 ISZERO DUP3 DUP3 DIV DUP5 EQ OR PUSH2 0x3CB JUMPI PUSH2 0x3CB PUSH2 0x1226 JUMP JUMPDEST DUP1 DUP3 ADD DUP1 DUP3 GT ISZERO PUSH2 0x3CB JUMPI PUSH2 0x3CB PUSH2 0x1226 JUMP JUMPDEST PUSH1 0x0 PUSH1 0x1 DUP3 ADD PUSH2 0x136B JUMPI PUSH2 0x136B PUSH2 0x1226 JUMP JUMPDEST POP PUSH1 0x1 ADD SWAP1 JUMP JUMPDEST DUP2 DUP2 SUB DUP2 DUP2 GT ISZERO PUSH2 0x3CB JUMPI PUSH2 0x3CB PUSH2 0x1226 JUMP JUMPDEST PUSH4 0x4E487B71 PUSH1 0xE0 SHL PUSH1 0x0 MSTORE PUSH1 0x32 PUSH1 0x4 MSTORE PUSH1 0x24 PUSH1 0x0 REVERT JUMPDEST PUSH1 0x0 PUSH1 0x20 DUP3 DUP5 SUB SLT ISZERO PUSH2 0x13AD JUMPI PUSH1 0x0 DUP1 REVERT JUMPDEST DUP2 MLOAD PUSH2 0xFD0 DUP2 PUSH2 0x114B JUMP JUMPDEST PUSH1 0x0 PUSH1 0xA0 DUP3 ADD DUP8 DUP4 MSTORE PUSH1 0x20 DUP8 DUP2 DUP6 ADD MSTORE PUSH1 0xA0 PUSH1 0x40 DUP6 ADD MSTORE DUP2 DUP8 MLOAD DUP1 DUP5 MSTORE PUSH1 0xC0 DUP7 ADD SWAP2 POP DUP3 DUP10 ADD SWAP4 POP PUSH1 0x0 JUMPDEST DUP2 DUP2 LT ISZERO PUSH2 0x1408 JUMPI DUP5 MLOAD PUSH1 0x1 PUSH1 0x1 PUSH1 0xA0 SHL SUB AND DUP4 MSTORE SWAP4 DUP4 ADD SWAP4 SWAP2 DUP4 ADD SWAP2 PUSH1 0x1 ADD PUSH2 0x13E3 JUMP JUMPDEST POP POP PUSH1 0x1 PUSH1 0x1 PUSH1 0xA0 SHL SUB SWAP7 SWAP1 SWAP7 AND PUSH1 0x60 DUP6 ADD MSTORE POP POP POP PUSH1 0x80 ADD MSTORE SWAP4 SWAP3 POP POP POP JUMP JUMPDEST PUSH1 0x0 DUP3 PUSH2 0x1446 JUMPI PUSH4 0x4E487B71 PUSH1 0xE0 SHL PUSH1 0x0 MSTORE PUSH1 0x12 PUSH1 0x4 MSTORE PUSH1 0x24 PUSH1 0x0 REVERT JUMPDEST POP DIV SWAP1 JUMP INVALID GASLIMIT MSTORE NUMBER ORIGIN ADDRESS GASPRICE KECCAK256 PUSH21 0x72616E7366657220616D6F756E7420657863656564 PUSH20 0x20616C6C6F77616E6365A2646970667358221220 0xCA PUSH5 0xCB599F8E0C 0xCF PUSH3 0xA2C899 0xC2 CHAINID LOG1 POP 0x23 0xB5 COINBASE SUB BASEFEE SWAP6 GAS 0xC6 PUSH14 0x3C3196B1C9EA6D64736F6C634300 ADDMOD SLT STOP CALLER "
				},
				"gasEstimates": {
					"creation": {
						"codeDepositCost": "1057800",
						"executionCost": "infinite",
						"totalCost": "infinite"
					},
					"external": {
						"DEAD_WALLET()": "238",
						"_maxTaxSwap()": "2363",
						"_maxTxAmount()": "2340",
						"_maxWalletSize()": "2384",
						"_taxSwapThreshold()": "2361",
						"allowance(address,address)": "infinite",
						"approve(address,uint256)": "24637",
						"balanceOf(address)": "2620",
						"decimals()": "222",
						"manualSwap()": "infinite",
						"name()": "infinite",
						"owner()": "2387",
						"removeLimits()": "infinite",
						"renounceOwnership()": "30276",
						"symbol()": "infinite",
						"totalSupply()": "infinite",
						"transfer(address,uint256)": "infinite",
						"transferDelayEnabled()": "2398",
						"transferFrom(address,address,uint256)": "infinite"
					},
					"internal": {
						"_approve(address,address,uint256)": "infinite",
						"_transfer(address,address,uint256)": "infinite",
						"min(uint256,uint256)": "61",
						"sendETHToFee(uint256)": "infinite",
						"swapTokensForEth(uint256)": "infinite"
					}
				},
				"methodIdentifiers": {
					"DEAD_WALLET()": "a01c3483",
					"_maxTaxSwap()": "0faee56f",
					"_maxTxAmount()": "7d1db4a5",
					"_maxWalletSize()": "8f9a55c0",
					"_taxSwapThreshold()": "bf474bed",
					"allowance(address,address)": "dd62ed3e",
					"approve(address,uint256)": "095ea7b3",
					"balanceOf(address)": "70a08231",
					"decimals()": "313ce567",
					"manualSwap()": "51bc3c85",
					"name()": "06fdde03",
					"owner()": "8da5cb5b",
					"removeLimits()": "751039fc",
					"renounceOwnership()": "715018a6",
					"symbol()": "95d89b41",
					"totalSupply()": "18160ddd",
					"transfer(address,uint256)": "a9059cbb",
					"transferDelayEnabled()": "c876d0b9",
					"transferFrom(address,address,uint256)": "23b872dd"
				}
			},
			"storageLayout": {
				"storage": [
					{
						"astId": 228,
						"contract": "contracts/shia20.sol:OneAnonataTime",
						"label": "_owner",
						"offset": 0,
						"slot": "0",
						"type": "t_address"
					},
					{
						"astId": 366,
						"contract": "contracts/shia20.sol:OneAnonataTime",
						"label": "_balances",
						"offset": 0,
						"slot": "1",
						"type": "t_mapping(t_address,t_uint256)"
					},
					{
						"astId": 372,
						"contract": "contracts/shia20.sol:OneAnonataTime",
						"label": "_allowances",
						"offset": 0,
						"slot": "2",
						"type": "t_mapping(t_address,t_mapping(t_address,t_uint256))"
					},
					{
						"astId": 376,
						"contract": "contracts/shia20.sol:OneAnonataTime",
						"label": "_isExcludedFromFee",
						"offset": 0,
						"slot": "3",
						"type": "t_mapping(t_address,t_bool)"
					},
					{
						"astId": 380,
						"contract": "contracts/shia20.sol:OneAnonataTime",
						"label": "bots",
						"offset": 0,
						"slot": "4",
						"type": "t_mapping(t_address,t_bool)"
					},
					{
						"astId": 384,
						"contract": "contracts/shia20.sol:OneAnonataTime",
						"label": "_holderLastTransferTimestamp",
						"offset": 0,
						"slot": "5",
						"type": "t_mapping(t_address,t_uint256)"
					},
					{
						"astId": 387,
						"contract": "contracts/shia20.sol:OneAnonataTime",
						"label": "transferDelayEnabled",
						"offset": 0,
						"slot": "6",
						"type": "t_bool"
					},
					{
						"astId": 389,
						"contract": "contracts/shia20.sol:OneAnonataTime",
						"label": "_taxWallet",
						"offset": 1,
						"slot": "6",
						"type": "t_address_payable"
					},
					{
						"astId": 395,
						"contract": "contracts/shia20.sol:OneAnonataTime",
						"label": "_initialBuyTax",
						"offset": 0,
						"slot": "7",
						"type": "t_uint256"
					},
					{
						"astId": 398,
						"contract": "contracts/shia20.sol:OneAnonataTime",
						"label": "_initialSellTax",
						"offset": 0,
						"slot": "8",
						"type": "t_uint256"
					},
					{
						"astId": 401,
						"contract": "contracts/shia20.sol:OneAnonataTime",
						"label": "_finalBuyTax",
						"offset": 0,
						"slot": "9",
						"type": "t_uint256"
					},
					{
						"astId": 404,
						"contract": "contracts/shia20.sol:OneAnonataTime",
						"label": "_finalSellTax",
						"offset": 0,
						"slot": "10",
						"type": "t_uint256"
					},
					{
						"astId": 407,
						"contract": "contracts/shia20.sol:OneAnonataTime",
						"label": "_reduceBuyTaxAt",
						"offset": 0,
						"slot": "11",
						"type": "t_uint256"
					},
					{
						"astId": 410,
						"contract": "contracts/shia20.sol:OneAnonataTime",
						"label": "_reduceSellTaxAt",
						"offset": 0,
						"slot": "12",
						"type": "t_uint256"
					},
					{
						"astId": 413,
						"contract": "contracts/shia20.sol:OneAnonataTime",
						"label": "_preventSwapBefore",
						"offset": 0,
						"slot": "13",
						"type": "t_uint256"
					},
					{
						"astId": 416,
						"contract": "contracts/shia20.sol:OneAnonataTime",
						"label": "_buyCount",
						"offset": 0,
						"slot": "14",
						"type": "t_uint256"
					},
					{
						"astId": 439,
						"contract": "contracts/shia20.sol:OneAnonataTime",
						"label": "_maxTxAmount",
						"offset": 0,
						"slot": "15",
						"type": "t_uint256"
					},
					{
						"astId": 446,
						"contract": "contracts/shia20.sol:OneAnonataTime",
						"label": "_maxWalletSize",
						"offset": 0,
						"slot": "16",
						"type": "t_uint256"
					},
					{
						"astId": 453,
						"contract": "contracts/shia20.sol:OneAnonataTime",
						"label": "_taxSwapThreshold",
						"offset": 0,
						"slot": "17",
						"type": "t_uint256"
					},
					{
						"astId": 460,
						"contract": "contracts/shia20.sol:OneAnonataTime",
						"label": "_maxTaxSwap",
						"offset": 0,
						"slot": "18",
						"type": "t_uint256"
					},
					{
						"astId": 463,
						"contract": "contracts/shia20.sol:OneAnonataTime",
						"label": "uniswapV2Router",
						"offset": 0,
						"slot": "19",
						"type": "t_contract(IUniswapV2Router02)353"
					},
					{
						"astId": 465,
						"contract": "contracts/shia20.sol:OneAnonataTime",
						"label": "uniswapV2Pair",
						"offset": 0,
						"slot": "20",
						"type": "t_address"
					},
					{
						"astId": 467,
						"contract": "contracts/shia20.sol:OneAnonataTime",
						"label": "tradingOpen",
						"offset": 20,
						"slot": "20",
						"type": "t_bool"
					},
					{
						"astId": 470,
						"contract": "contracts/shia20.sol:OneAnonataTime",
						"label": "inSwap",
						"offset": 21,
						"slot": "20",
						"type": "t_bool"
					},
					{
						"astId": 473,
						"contract": "contracts/shia20.sol:OneAnonataTime",
						"label": "swapEnabled",
						"offset": 22,
						"slot": "20",
						"type": "t_bool"
					}
				],
				"types": {
					"t_address": {
						"encoding": "inplace",
						"label": "address",
						"numberOfBytes": "20"
					},
					"t_address_payable": {
						"encoding": "inplace",
						"label": "address payable",
						"numberOfBytes": "20"
					},
					"t_bool": {
						"encoding": "inplace",
						"label": "bool",
						"numberOfBytes": "1"
					},
					"t_contract(IUniswapV2Router02)353": {
						"encoding": "inplace",
						"label": "contract IUniswapV2Router02",
						"numberOfBytes": "20"
					},
					"t_mapping(t_address,t_bool)": {
						"encoding": "mapping",
						"key": "t_address",
						"label": "mapping(address => bool)",
						"numberOfBytes": "32",
						"value": "t_bool"
					},
					"t_mapping(t_address,t_mapping(t_address,t_uint256))": {
						"encoding": "mapping",
						"key": "t_address",
						"label": "mapping(address => mapping(address => uint256))",
						"numberOfBytes": "32",
						"value": "t_mapping(t_address,t_uint256)"
					},
					"t_mapping(t_address,t_uint256)": {
						"encoding": "mapping",
						"key": "t_address",
						"label": "mapping(address => uint256)",
						"numberOfBytes": "32",
						"value": "t_uint256"
					},
					"t_uint256": {
						"encoding": "inplace",
						"label": "uint256",
						"numberOfBytes": "32"
					}
				}
			},
			"userdoc": {
				"kind": "user",
				"methods": {},
				"version": 1
			}
		}
	}
}