{
	"contracts/1minuteAnon.sol": {
		"ANON1MINUTE": {
			"abi": [
				{
					"inputs": [],
					"stateMutability": "nonpayable",
					"type": "constructor"
				},
				{
					"anonymous": false,
					"inputs": [
						{
							"indexed": true,
							"internalType": "address",
							"name": "owner",
							"type": "address"
						},
						{
							"indexed": true,
							"internalType": "address",
							"name": "spender",
							"type": "address"
						},
						{
							"indexed": false,
							"internalType": "uint256",
							"name": "value",
							"type": "uint256"
						}
					],
					"name": "Approval",
					"type": "event"
				},
				{
					"anonymous": false,
					"inputs": [
						{
							"indexed": true,
							"internalType": "address",
							"name": "account",
							"type": "address"
						}
					],
					"name": "ExcludedFromLockPeriod",
					"type": "event"
				},
				{
					"anonymous": false,
					"inputs": [
						{
							"indexed": true,
							"internalType": "address",
							"name": "account",
							"type": "address"
						}
					],
					"name": "IncludedInTimeLock",
					"type": "event"
				},
				{
					"anonymous": false,
					"inputs": [
						{
							"indexed": true,
							"internalType": "address",
							"name": "previousOwner",
							"type": "address"
						}
					],
					"name": "OwnershipRenounced",
					"type": "event"
				},
				{
					"anonymous": false,
					"inputs": [
						{
							"indexed": true,
							"internalType": "address",
							"name": "previousOwner",
							"type": "address"
						},
						{
							"indexed": true,
							"internalType": "address",
							"name": "newOwner",
							"type": "address"
						}
					],
					"name": "OwnershipTransferred",
					"type": "event"
				},
				{
					"anonymous": false,
					"inputs": [
						{
							"indexed": true,
							"internalType": "address",
							"name": "oldRouter",
							"type": "address"
						},
						{
							"indexed": true,
							"internalType": "address",
							"name": "newRouter",
							"type": "address"
						},
						{
							"indexed": true,
							"internalType": "address",
							"name": "newPair",
							"type": "address"
						}
					],
					"name": "RouterUpdated",
					"type": "event"
				},
				{
					"anonymous": false,
					"inputs": [
						{
							"indexed": true,
							"internalType": "address",
							"name": "from",
							"type": "address"
						},
						{
							"indexed": true,
							"internalType": "address",
							"name": "to",
							"type": "address"
						},
						{
							"indexed": false,
							"internalType": "uint256",
							"name": "value",
							"type": "uint256"
						}
					],
					"name": "Transfer",
					"type": "event"
				},
				{
					"inputs": [],
					"name": "BBWallet",
					"outputs": [
						{
							"internalType": "address payable",
							"name": "",
							"type": "address"
						}
					],
					"stateMutability": "view",
					"type": "function"
				},
				{
					"inputs": [],
					"name": "CIRCULATING_SUPPLY",
					"outputs": [
						{
							"internalType": "uint256",
							"name": "",
							"type": "uint256"
						}
					],
					"stateMutability": "view",
					"type": "function"
				},
				{
					"inputs": [],
					"name": "DEAD_WALLET",
					"outputs": [
						{
							"internalType": "address",
							"name": "",
							"type": "address"
						}
					],
					"stateMutability": "view",
					"type": "function"
				},
				{
					"inputs": [],
					"name": "_owner",
					"outputs": [
						{
							"internalType": "address",
							"name": "",
							"type": "address"
						}
					],
					"stateMutability": "view",
					"type": "function"
				},
				{
					"inputs": [
						{
							"internalType": "address",
							"name": "owner",
							"type": "address"
						},
						{
							"internalType": "address",
							"name": "spender",
							"type": "address"
						}
					],
					"name": "allowance",
					"outputs": [
						{
							"internalType": "uint256",
							"name": "",
							"type": "uint256"
						}
					],
					"stateMutability": "view",
					"type": "function"
				},
				{
					"inputs": [
						{
							"internalType": "address",
							"name": "spender",
							"type": "address"
						},
						{
							"internalType": "uint256",
							"name": "amount",
							"type": "uint256"
						}
					],
					"name": "approve",
					"outputs": [
						{
							"internalType": "bool",
							"name": "",
							"type": "bool"
						}
					],
					"stateMutability": "nonpayable",
					"type": "function"
				},
				{
					"inputs": [
						{
							"internalType": "address",
							"name": "account",
							"type": "address"
						}
					],
					"name": "balanceOf",
					"outputs": [
						{
							"internalType": "uint256",
							"name": "",
							"type": "uint256"
						}
					],
					"stateMutability": "view",
					"type": "function"
				},
				{
					"inputs": [
						{
							"internalType": "uint256",
							"name": "amount",
							"type": "uint256"
						}
					],
					"name": "burn",
					"outputs": [],
					"stateMutability": "nonpayable",
					"type": "function"
				},
				{
					"inputs": [],
					"name": "buyfee",
					"outputs": [
						{
							"internalType": "uint256",
							"name": "",
							"type": "uint256"
						}
					],
					"stateMutability": "view",
					"type": "function"
				},
				{
					"inputs": [],
					"name": "circulatingSupply",
					"outputs": [
						{
							"internalType": "uint256",
							"name": "",
							"type": "uint256"
						}
					],
					"stateMutability": "view",
					"type": "function"
				},
				{
					"inputs": [],
					"name": "decimals",
					"outputs": [
						{
							"internalType": "uint8",
							"name": "",
							"type": "uint8"
						}
					],
					"stateMutability": "view",
					"type": "function"
				},
				{
					"inputs": [
						{
							"internalType": "address",
							"name": "spender",
							"type": "address"
						},
						{
							"internalType": "uint256",
							"name": "subtractedValue",
							"type": "uint256"
						}
					],
					"name": "decreaseAllowance",
					"outputs": [
						{
							"internalType": "bool",
							"name": "",
							"type": "bool"
						}
					],
					"stateMutability": "nonpayable",
					"type": "function"
				},
				{
					"inputs": [
						{
							"internalType": "address",
							"name": "_address",
							"type": "address"
						}
					],
					"name": "excludeFromLockPeriod",
					"outputs": [],
					"stateMutability": "nonpayable",
					"type": "function"
				},
				{
					"inputs": [
						{
							"internalType": "address",
							"name": "",
							"type": "address"
						}
					],
					"name": "excludedFromLockPeriod",
					"outputs": [
						{
							"internalType": "bool",
							"name": "",
							"type": "bool"
						}
					],
					"stateMutability": "view",
					"type": "function"
				},
				{
					"inputs": [],
					"name": "fee_denominator",
					"outputs": [
						{
							"internalType": "uint256",
							"name": "",
							"type": "uint256"
						}
					],
					"stateMutability": "view",
					"type": "function"
				},
				{
					"inputs": [
						{
							"internalType": "address",
							"name": "_address",
							"type": "address"
						}
					],
					"name": "includeInTimeLock",
					"outputs": [],
					"stateMutability": "nonpayable",
					"type": "function"
				},
				{
					"inputs": [
						{
							"internalType": "address",
							"name": "spender",
							"type": "address"
						},
						{
							"internalType": "uint256",
							"name": "addedValue",
							"type": "uint256"
						}
					],
					"name": "increaseAllowance",
					"outputs": [
						{
							"internalType": "bool",
							"name": "",
							"type": "bool"
						}
					],
					"stateMutability": "nonpayable",
					"type": "function"
				},
				{
					"inputs": [],
					"name": "lockPeriod",
					"outputs": [
						{
							"internalType": "uint256",
							"name": "",
							"type": "uint256"
						}
					],
					"stateMutability": "view",
					"type": "function"
				},
				{
					"inputs": [],
					"name": "maxTokensPerWallet",
					"outputs": [
						{
							"internalType": "uint256",
							"name": "",
							"type": "uint256"
						}
					],
					"stateMutability": "view",
					"type": "function"
				},
				{
					"inputs": [],
					"name": "name",
					"outputs": [
						{
							"internalType": "string",
							"name": "",
							"type": "string"
						}
					],
					"stateMutability": "view",
					"type": "function"
				},
				{
					"inputs": [],
					"name": "owner",
					"outputs": [
						{
							"internalType": "address",
							"name": "",
							"type": "address"
						}
					],
					"stateMutability": "view",
					"type": "function"
				},
				{
					"inputs": [],
					"name": "renounceOwnership",
					"outputs": [],
					"stateMutability": "nonpayable",
					"type": "function"
				},
				{
					"inputs": [
						{
							"internalType": "address",
							"name": "tokenAdd",
							"type": "address"
						},
						{
							"internalType": "uint256",
							"name": "amount",
							"type": "uint256"
						}
					],
					"name": "rescueERC20",
					"outputs": [],
					"stateMutability": "nonpayable",
					"type": "function"
				},
				{
					"inputs": [],
					"name": "sellfee",
					"outputs": [
						{
							"internalType": "uint256",
							"name": "",
							"type": "uint256"
						}
					],
					"stateMutability": "view",
					"type": "function"
				},
				{
					"inputs": [
						{
							"internalType": "address",
							"name": "_newRouterAddress",
							"type": "address"
						}
					],
					"name": "setNewRouter",
					"outputs": [],
					"stateMutability": "nonpayable",
					"type": "function"
				},
				{
					"inputs": [],
					"name": "swapRouter",
					"outputs": [
						{
							"internalType": "contract IUniswapV2Router02",
							"name": "",
							"type": "address"
						}
					],
					"stateMutability": "view",
					"type": "function"
				},
				{
					"inputs": [],
					"name": "symbol",
					"outputs": [
						{
							"internalType": "string",
							"name": "",
							"type": "string"
						}
					],
					"stateMutability": "view",
					"type": "function"
				},
				{
					"inputs": [
						{
							"internalType": "address",
							"name": "",
							"type": "address"
						}
					],
					"name": "timeStamps",
					"outputs": [
						{
							"internalType": "uint256",
							"name": "",
							"type": "uint256"
						}
					],
					"stateMutability": "view",
					"type": "function"
				},
				{
					"inputs": [],
					"name": "totalBurned",
					"outputs": [
						{
							"internalType": "uint256",
							"name": "",
							"type": "uint256"
						}
					],
					"stateMutability": "view",
					"type": "function"
				},
				{
					"inputs": [],
					"name": "totalSupply",
					"outputs": [
						{
							"internalType": "uint256",
							"name": "",
							"type": "uint256"
						}
					],
					"stateMutability": "view",
					"type": "function"
				},
				{
					"inputs": [
						{
							"internalType": "address",
							"name": "recipient",
							"type": "address"
						},
						{
							"internalType": "uint256",
							"name": "amount",
							"type": "uint256"
						}
					],
					"name": "transfer",
					"outputs": [
						{
							"internalType": "bool",
							"name": "",
							"type": "bool"
						}
					],
					"stateMutability": "nonpayable",
					"type": "function"
				},
				{
					"inputs": [
						{
							"internalType": "address",
							"name": "sender",
							"type": "address"
						},
						{
							"internalType": "address",
							"name": "recipient",
							"type": "address"
						},
						{
							"internalType": "uint256",
							"name": "amount",
							"type": "uint256"
						}
					],
					"name": "transferFrom",
					"outputs": [
						{
							"internalType": "bool",
							"name": "",
							"type": "bool"
						}
					],
					"stateMutability": "nonpayable",
					"type": "function"
				},
				{
					"inputs": [
						{
							"internalType": "address",
							"name": "newOwner",
							"type": "address"
						}
					],
					"name": "transferOwnership",
					"outputs": [],
					"stateMutability": "nonpayable",
					"type": "function"
				},
				{
					"inputs": [],
					"name": "transferfee",
					"outputs": [
						{
							"internalType": "uint256",
							"name": "",
							"type": "uint256"
						}
					],
					"stateMutability": "view",
					"type": "function"
				},
				{
					"inputs": [],
					"name": "uniswapPair",
					"outputs": [
						{
							"internalType": "address",
							"name": "",
							"type": "address"
						}
					],
					"stateMutability": "view",
					"type": "function"
				},
				{
					"inputs": [
						{
							"internalType": "address",
							"name": "",
							"type": "address"
						}
					],
					"name": "uniswapPairs",
					"outputs": [
						{
							"internalType": "bool",
							"name": "",
							"type": "bool"
						}
					],
					"stateMutability": "view",
					"type": "function"
				},
				{
					"inputs": [],
					"name": "uniswapRouter",
					"outputs": [
						{
							"internalType": "contract IUniswapV2Router02",
							"name": "",
							"type": "address"
						}
					],
					"stateMutability": "view",
					"type": "function"
				},
				{
					"stateMutability": "payable",
					"type": "receive"
				}
			],
			"devdoc": {
				"kind": "dev",
				"methods": {
					"allowance(address,address)": {
						"details": "See {IERC20-allowance}."
					},
					"approve(address,uint256)": {
						"details": "See {IERC20-approve}. NOTE: If `amount` is the maximum `uint256`, the allowance is not updated on `transferFrom`. This is semantically equivalent to an infinite approval. Requirements: - `spender` cannot be the zero address."
					},
					"balanceOf(address)": {
						"details": "See {IERC20-balanceOf}."
					},
					"decimals()": {
						"details": "Returns the number of decimals used to get its user representation. For example, if `decimals` equals `2`, a balance of `505` tokens should be displayed to a user as `5.05` (`505 / 10 ** 2`). Tokens usually opt for a value of 18, imitating the relationship between Ether and Wei. This is the default value returned by this function, unless it's overridden. NOTE: This information is only used for _display_ purposes: it in no way affects any of the arithmetic of the contract, including {IERC20-balanceOf} and {IERC20-transfer}."
					},
					"decreaseAllowance(address,uint256)": {
						"details": "Atomically decreases the allowance granted to `spender` by the caller. This is an alternative to {approve} that can be used as a mitigation for problems described in {IERC20-approve}. Emits an {Approval} event indicating the updated allowance. Requirements: - `spender` cannot be the zero address. - `spender` must have allowance for the caller of at least `subtractedValue`."
					},
					"increaseAllowance(address,uint256)": {
						"details": "Atomically increases the allowance granted to `spender` by the caller. This is an alternative to {approve} that can be used as a mitigation for problems described in {IERC20-approve}. Emits an {Approval} event indicating the updated allowance. Requirements: - `spender` cannot be the zero address."
					},
					"name()": {
						"details": "Returns the name of the token."
					},
					"owner()": {
						"details": "Returns the address of the current owner."
					},
					"renounceOwnership()": {
						"details": "Leaves the contract without owner. It will not be possible to call `onlyOwner` functions. Can only be called by the current owner. NOTE: Renouncing ownership will leave the contract without an owner, thereby disabling any functionality that is only available to the owner."
					},
					"symbol()": {
						"details": "Returns the symbol of the token, usually a shorter version of the name."
					},
					"totalSupply()": {
						"details": "See {IERC20-totalSupply}."
					},
					"transferOwnership(address)": {
						"details": "Transfers ownership of the contract to a new account (`newOwner`). Can only be called by the current owner."
					}
				},
				"version": 1
			},
			"evm": {
				"assembly": "    /* \"contracts/1minuteAnon.sol\":2020:10785  contract ANON1MINUTE is ERC20, Ownable {... */\n  mstore(0x40, 0x80)\n    /* \"contracts/1minuteAnon.sol\":2798:2802  1000 */\n  0x03e8\n    /* \"contracts/1minuteAnon.sol\":2777:2795  CIRCULATING_SUPPLY */\n  sload(0x09)\n    /* \"contracts/1minuteAnon.sol\":2777:2802  CIRCULATING_SUPPLY / 1000 */\n  tag_1\n  swap2\n  swap1\n  tag_2\n  jump\t// in\ntag_1:\n    /* \"contracts/1minuteAnon.sol\":2741:2802  uint256 public maxTokensPerWallet = CIRCULATING_SUPPLY / 1000 */\n  0x07\n  sstore\n    /* \"contracts/1minuteAnon.sol\":2843:2928  address payable public BBWallet = payable(0x76E98f575E5B6382ff3Bc9E988F9920984F2A576) */\n  0x08\n  dup1\n  sload\n  not(sub(shl(0xa0, 0x01), 0x01))\n  and\n    /* \"contracts/1minuteAnon.sol\":2885:2927  0x76E98f575E5B6382ff3Bc9E988F9920984F2A576 */\n  0x76e98f575e5b6382ff3bc9e988f9920984f2a576\n    /* \"contracts/1minuteAnon.sol\":2843:2928  address payable public BBWallet = payable(0x76E98f575E5B6382ff3Bc9E988F9920984F2A576) */\n  or\n  swap1\n  sstore\n    /* \"contracts/1minuteAnon.sol\":2973:3015  0x000000000000000000000000000000000000dEaD */\n  0xdead\n  0x00\n    /* \"@openzeppelin/contracts/token/ERC20/ERC20.sol\":3519:3537  _balances[account] */\n  swap1\n  dup2\n  mstore\n  0x20\n  mstore\n  sload(0x44ad89ba62b98ff34f51403ac22759b55759460c0bb5521eb4b6ee3cff49cf83)\n    /* \"contracts/1minuteAnon.sol\":3058:3095  TOTAL_SUPPLY - balanceOf(DEAD_WALLET) */\n  tag_5\n  swap1\n    /* \"contracts/1minuteAnon.sol\":2473:2499  1_111_111_111_111 * 10**18 */\n  0x0e063191caf768f40cc2bc0000\n    /* \"contracts/1minuteAnon.sol\":3058:3095  TOTAL_SUPPLY - balanceOf(DEAD_WALLET) */\n  tag_6\n  jump\t// in\ntag_5:\n    /* \"contracts/1minuteAnon.sol\":3022:3095  uint256 public CIRCULATING_SUPPLY = TOTAL_SUPPLY - balanceOf(DEAD_WALLET) */\n  0x09\n  sstore\n    /* \"contracts/1minuteAnon.sol\":3102:3173  address private dev_wallet = 0x76E98f575E5B6382ff3Bc9E988F9920984F2A576 */\n  0x0a\n  dup1\n  sload\n  not(sub(shl(0xa0, 0x01), 0x01))\n  and\n    /* \"contracts/1minuteAnon.sol\":3131:3173  0x76E98f575E5B6382ff3Bc9E988F9920984F2A576 */\n  0x76e98f575e5b6382ff3bc9e988f9920984f2a576\n    /* \"contracts/1minuteAnon.sol\":3102:3173  address private dev_wallet = 0x76E98f575E5B6382ff3Bc9E988F9920984F2A576 */\n  or\n  swap1\n  sstore\n    /* \"contracts/1minuteAnon.sol\":4479:5611  constructor() ERC20(\"A1M\", \"A1M\") {... */\n  callvalue\n  dup1\n  iszero\n  tag_7\n  jumpi\n  0x00\n  dup1\n  revert\ntag_7:\n  pop\n    /* \"@openzeppelin/contracts/token/ERC20/ERC20.sol\":1980:2093  constructor(string memory name_, string memory symbol_) {... */\n  mload(0x40)\n  dup1\n  0x40\n  add\n  0x40\n  mstore\n  dup1\n  0x03\n  dup2\n  mstore\n  0x20\n  add\n  shl(0xe8, 0x41314d)\n  dup2\n  mstore\n  pop\n  mload(0x40)\n  dup1\n  0x40\n  add\n  0x40\n  mstore\n  dup1\n  0x03\n  dup2\n  mstore\n  0x20\n  add\n  shl(0xe8, 0x41314d)\n  dup2\n  mstore\n  pop\n    /* \"@openzeppelin/contracts/token/ERC20/ERC20.sol\":2054:2059  name_ */\n  dup2\n    /* \"@openzeppelin/contracts/token/ERC20/ERC20.sol\":2046:2051  _name */\n  0x03\n    /* \"@openzeppelin/contracts/token/ERC20/ERC20.sol\":2046:2059  _name = name_ */\n  swap1\n  dup1\n  mload\n  swap1\n  0x20\n  add\n  swap1\n  tag_12\n  swap3\n  swap2\n  swap1\n  tag_13\n  jump\t// in\ntag_12:\n  pop\n    /* \"@openzeppelin/contracts/token/ERC20/ERC20.sol\":2069:2086  _symbol = symbol_ */\n  dup1\n  mload\n  tag_14\n  swap1\n    /* \"@openzeppelin/contracts/token/ERC20/ERC20.sol\":2069:2076  _symbol */\n  0x04\n  swap1\n    /* \"@openzeppelin/contracts/token/ERC20/ERC20.sol\":2069:2086  _symbol = symbol_ */\n  0x20\n  dup5\n  add\n  swap1\n  tag_13\n  jump\t// in\ntag_14:\n  pop\n    /* \"@openzeppelin/contracts/token/ERC20/ERC20.sol\":1980:2093  constructor(string memory name_, string memory symbol_) {... */\n  pop\n  pop\n    /* \"@openzeppelin/contracts/access/Ownable.sol\":936:968  _transferOwnership(_msgSender()) */\n  tag_16\n    /* \"@openzeppelin/contracts/access/Ownable.sol\":955:967  _msgSender() */\n  tag_17\n    /* \"@openzeppelin/contracts/access/Ownable.sol\":955:965  _msgSender */\n  shl(0x20, tag_18)\n    /* \"@openzeppelin/contracts/access/Ownable.sol\":955:967  _msgSender() */\n  0x20\n  shr\n  jump\t// in\ntag_17:\n    /* \"@openzeppelin/contracts/access/Ownable.sol\":936:954  _transferOwnership */\n  tag_19\n    /* \"@openzeppelin/contracts/access/Ownable.sol\":936:968  _transferOwnership(_msgSender()) */\n  jump\t// in\ntag_16:\n    /* \"contracts/1minuteAnon.sol\":4522:4553  _mint(msg.sender, TOTAL_SUPPLY) */\n  tag_21\n    /* \"contracts/1minuteAnon.sol\":4528:4538  msg.sender */\n  caller\n    /* \"contracts/1minuteAnon.sol\":2473:2499  1_111_111_111_111 * 10**18 */\n  0x0e063191caf768f40cc2bc0000\n    /* \"contracts/1minuteAnon.sol\":4522:4527  _mint */\n  tag_22\n    /* \"contracts/1minuteAnon.sol\":4522:4553  _mint(msg.sender, TOTAL_SUPPLY) */\n  jump\t// in\ntag_21:\n    /* \"contracts/1minuteAnon.sol\":4717:4730  uniswapRouter */\n  0x0c\n    /* \"contracts/1minuteAnon.sol\":4717:4747  uniswapRouter = _uniswapRouter */\n  dup1\n  sload\n  not(sub(shl(0xa0, 0x01), 0x01))\n  and\n    /* \"contracts/1minuteAnon.sol\":4615:4657  0x4cf76043B3f97ba06917cBd90F9e3A2AAC1B306e */\n  0x4cf76043b3f97ba06917cbd90f9e3a2aac1b306e\n    /* \"contracts/1minuteAnon.sol\":4717:4747  uniswapRouter = _uniswapRouter */\n  swap1\n  dup2\n  or\n  swap1\n  swap2\n  sstore\n    /* \"contracts/1minuteAnon.sol\":4786:4810  _uniswapRouter.factory() */\n  0x40\n  dup1\n  mload\n  shl(0xe0, 0xc45a0155)\n  dup2\n  mstore\n  swap1\n  mload\n    /* \"contracts/1minuteAnon.sol\":4615:4657  0x4cf76043B3f97ba06917cBd90F9e3A2AAC1B306e */\n  dup3\n  swap2\n    /* \"contracts/1minuteAnon.sol\":4786:4808  _uniswapRouter.factory */\n  0xc45a0155\n  swap2\n    /* \"contracts/1minuteAnon.sol\":4786:4810  _uniswapRouter.factory() */\n  0x04\n  dup1\n  dup4\n  add\n  swap3\n  0x20\n  swap3\n  swap2\n  swap1\n  dup3\n  swap1\n  sub\n  add\n  dup2\n    /* \"contracts/1minuteAnon.sol\":4615:4657  0x4cf76043B3f97ba06917cBd90F9e3A2AAC1B306e */\n  dup7\n    /* \"contracts/1minuteAnon.sol\":4786:4810  _uniswapRouter.factory() */\n  gas\n  staticcall\n  iszero\n  dup1\n  iszero\n  tag_24\n  jumpi\n  returndatasize\n  0x00\n  dup1\n  returndatacopy\n  revert(0x00, returndatasize)\ntag_24:\n  pop\n  pop\n  pop\n  pop\n  mload(0x40)\n  returndatasize\n  not(0x1f)\n  0x1f\n  dup3\n  add\n  and\n  dup3\n  add\n  dup1\n  0x40\n  mstore\n  pop\n  dup2\n  add\n  swap1\n  tag_25\n  swap2\n  swap1\n  tag_26\n  jump\t// in\ntag_25:\n  sub(shl(0xa0, 0x01), 0x01)\n    /* \"contracts/1minuteAnon.sol\":4768:4828  IUniswapV2Factory(_uniswapRouter.factory())... */\n  and\n  0xc9c65396\n    /* \"contracts/1minuteAnon.sol\":4837:4841  this */\n  address\n    /* \"contracts/1minuteAnon.sol\":4844:4858  _uniswapRouter */\n  dup4\n  sub(shl(0xa0, 0x01), 0x01)\n    /* \"contracts/1minuteAnon.sol\":4844:4863  _uniswapRouter.WETH */\n  and\n  0xad5c4648\n    /* \"contracts/1minuteAnon.sol\":4844:4865  _uniswapRouter.WETH() */\n  mload(0x40)\n  dup2\n  0xffffffff\n  and\n  0xe0\n  shl\n  dup2\n  mstore\n  0x04\n  add\n  0x20\n  mload(0x40)\n  dup1\n  dup4\n  sub\n  dup2\n  dup7\n  gas\n  staticcall\n  iszero\n  dup1\n  iszero\n  tag_28\n  jumpi\n  returndatasize\n  0x00\n  dup1\n  returndatacopy\n  revert(0x00, returndatasize)\ntag_28:\n  pop\n  pop\n  pop\n  pop\n  mload(0x40)\n  returndatasize\n  not(0x1f)\n  0x1f\n  dup3\n  add\n  and\n  dup3\n  add\n  dup1\n  0x40\n  mstore\n  pop\n  dup2\n  add\n  swap1\n  tag_29\n  swap2\n  swap1\n  tag_26\n  jump\t// in\ntag_29:\n    /* \"contracts/1minuteAnon.sol\":4768:4866  IUniswapV2Factory(_uniswapRouter.factory())... */\n  mload(0x40)\n  not(sub(shl(0xe0, 0x01), 0x01))\n  0xe0\n  dup6\n  swap1\n  shl\n  and\n  dup2\n  mstore\n  sub(shl(0xa0, 0x01), 0x01)\n    /* \"#utility.yul\":1023:1038   */\n  swap3\n  dup4\n  and\n    /* \"contracts/1minuteAnon.sol\":4768:4866  IUniswapV2Factory(_uniswapRouter.factory())... */\n  0x04\n  dup3\n  add\n    /* \"#utility.yul\":1005:1039   */\n  mstore\n    /* \"#utility.yul\":1075:1090   */\n  swap2\n  and\n    /* \"#utility.yul\":1055:1073   */\n  0x24\n  dup3\n  add\n    /* \"#utility.yul\":1048:1091   */\n  mstore\n    /* \"#utility.yul\":940:958   */\n  0x44\n  add\n    /* \"contracts/1minuteAnon.sol\":4768:4866  IUniswapV2Factory(_uniswapRouter.factory())... */\n  0x20\n  mload(0x40)\n  dup1\n  dup4\n  sub\n  dup2\n  0x00\n  dup8\n  gas\n  call\n  iszero\n  dup1\n  iszero\n  tag_33\n  jumpi\n  returndatasize\n  0x00\n  dup1\n  returndatacopy\n  revert(0x00, returndatasize)\ntag_33:\n  pop\n  pop\n  pop\n  pop\n  mload(0x40)\n  returndatasize\n  not(0x1f)\n  0x1f\n  dup3\n  add\n  and\n  dup3\n  add\n  dup1\n  0x40\n  mstore\n  pop\n  dup2\n  add\n  swap1\n  tag_34\n  swap2\n  swap1\n  tag_26\n  jump\t// in\ntag_34:\n    /* \"contracts/1minuteAnon.sol\":4754:4765  uniswapPair */\n  0x0b\n    /* \"contracts/1minuteAnon.sol\":4754:4866  uniswapPair = IUniswapV2Factory(_uniswapRouter.factory())... */\n  dup1\n  sload\n  sub(shl(0xa0, 0x01), 0x01)\n  swap3\n  dup4\n  and\n  not(sub(shl(0xa0, 0x01), 0x01))\n  swap2\n  dup3\n  and\n  or\n  swap1\n  swap2\n  sstore\n    /* \"contracts/1minuteAnon.sol\":4874:4894  uniswapRouterAddress */\n  0x0d\n    /* \"contracts/1minuteAnon.sol\":4874:4939  uniswapRouterAddress = 0x4cf76043B3f97ba06917cBd90F9e3A2AAC1B306e */\n  dup1\n  sload\n  swap1\n  swap2\n  and\n    /* \"contracts/1minuteAnon.sol\":4897:4939  0x4cf76043B3f97ba06917cBd90F9e3A2AAC1B306e */\n  0x4cf76043b3f97ba06917cbd90f9e3a2aac1b306e\n    /* \"contracts/1minuteAnon.sol\":4874:4939  uniswapRouterAddress = 0x4cf76043B3f97ba06917cBd90F9e3A2AAC1B306e */\n  or\n  swap1\n  sstore\n    /* \"contracts/1minuteAnon.sol\":5099:5109  msg.sender */\n  caller\n    /* \"contracts/1minuteAnon.sol\":4754:4765  uniswapPair */\n  0x00\n    /* \"contracts/1minuteAnon.sol\":5076:5110  excludedFromLockPeriod[msg.sender] */\n  dup2\n  dup2\n  mstore\n    /* \"contracts/1minuteAnon.sol\":5076:5098  excludedFromLockPeriod */\n  0x10\n    /* \"contracts/1minuteAnon.sol\":5076:5110  excludedFromLockPeriod[msg.sender] */\n  0x20\n  mstore\n  0x40\n  dup1\n  dup3\n  keccak256\n    /* \"contracts/1minuteAnon.sol\":5076:5117  excludedFromLockPeriod[msg.sender] = true */\n  dup1\n  sload\n  not(0xff)\n  swap1\n  dup2\n  and\n    /* \"contracts/1minuteAnon.sol\":4754:4866  uniswapPair = IUniswapV2Factory(_uniswapRouter.factory())... */\n  0x01\n    /* \"contracts/1minuteAnon.sol\":5076:5117  excludedFromLockPeriod[msg.sender] = true */\n  swap1\n  dup2\n  or\n  swap1\n  swap3\n  sstore\n    /* \"contracts/1minuteAnon.sol\":5124:5190  excludedFromLockPeriod[0x76E98f575E5B6382ff3Bc9E988F9920984F2A576] */\n  0x9a8f3285986f133c5ab38a828780fbebff64111ad29b63b7783e7e3874351ca6\n    /* \"contracts/1minuteAnon.sol\":5124:5197  excludedFromLockPeriod[0x76E98f575E5B6382ff3Bc9E988F9920984F2A576] = true */\n  dup1\n  sload\n  dup3\n  and\n  dup4\n  or\n  swap1\n  sstore\n    /* \"contracts/1minuteAnon.sol\":5204:5270  excludedFromLockPeriod[0x000000000000000000000000000000000000dEaD] */\n  0x9e93e1db4a1f807cc22b2aecf4deeb0bf5745f1ecb319e87c68c5624c0fa6b69\n    /* \"contracts/1minuteAnon.sol\":5204:5277  excludedFromLockPeriod[0x000000000000000000000000000000000000dEaD] = true */\n  dup1\n  sload\n  dup3\n  and\n  dup4\n  or\n  swap1\n  sstore\n    /* \"contracts/1minuteAnon.sol\":5316:5329  uniswapRouter */\n  sload(0x0c)\n  swap1\n  swap6\n  and\n    /* \"contracts/1minuteAnon.sol\":5285:5331  excludedFromLockPeriod[address(uniswapRouter)] */\n  dup4\n  mstore\n  dup2\n  dup4\n  keccak256\n    /* \"contracts/1minuteAnon.sol\":5285:5338  excludedFromLockPeriod[address(uniswapRouter)] = true */\n  dup1\n  sload\n  swap1\n  swap6\n  and\n  or\n  swap1\n  swap4\n  sstore\n    /* \"contracts/1minuteAnon.sol\":5352:5386  ExcludedFromLockPeriod(msg.sender) */\n  swap2\n  mload\n    /* \"contracts/1minuteAnon.sol\":5099:5109  msg.sender */\n  swap1\n  swap2\n  0x00\n  dup1\n  mload\n  0x20\n  data_4676e9525129958bed49b43fa7e56d15bfab1bc03bb4ebe3ffe4fe604a81e165\n  dup4\n  codecopy\n  dup2\n  mload\n  swap2\n  mstore\n    /* \"contracts/1minuteAnon.sol\":5352:5386  ExcludedFromLockPeriod(msg.sender) */\n  swap2\n  log2\n    /* \"contracts/1minuteAnon.sol\":5398:5464  ExcludedFromLockPeriod(0x76E98f575E5B6382ff3Bc9E988F9920984F2A576) */\n  mload(0x40)\n    /* \"contracts/1minuteAnon.sol\":5421:5463  0x76E98f575E5B6382ff3Bc9E988F9920984F2A576 */\n  0x76e98f575e5b6382ff3bc9e988f9920984f2a576\n  swap1\n  0x00\n  dup1\n  mload\n  0x20\n  data_4676e9525129958bed49b43fa7e56d15bfab1bc03bb4ebe3ffe4fe604a81e165\n  dup4\n  codecopy\n  dup2\n  mload\n  swap2\n  mstore\n    /* \"contracts/1minuteAnon.sol\":5398:5464  ExcludedFromLockPeriod(0x76E98f575E5B6382ff3Bc9E988F9920984F2A576) */\n  swap1\n  0x00\n  swap1\n  log2\n    /* \"contracts/1minuteAnon.sol\":5476:5542  ExcludedFromLockPeriod(0x000000000000000000000000000000000000dEaD) */\n  mload(0x40)\n    /* \"contracts/1minuteAnon.sol\":5499:5541  0x000000000000000000000000000000000000dEaD */\n  0xdead\n  swap1\n  0x00\n  dup1\n  mload\n  0x20\n  data_4676e9525129958bed49b43fa7e56d15bfab1bc03bb4ebe3ffe4fe604a81e165\n  dup4\n  codecopy\n  dup2\n  mload\n  swap2\n  mstore\n    /* \"contracts/1minuteAnon.sol\":5476:5542  ExcludedFromLockPeriod(0x000000000000000000000000000000000000dEaD) */\n  swap1\n  0x00\n  swap1\n  log2\n    /* \"contracts/1minuteAnon.sol\":5586:5599  uniswapRouter */\n  sload(0x0c)\n    /* \"contracts/1minuteAnon.sol\":5555:5601  ExcludedFromLockPeriod(address(uniswapRouter)) */\n  mload(0x40)\n  sub(shl(0xa0, 0x01), 0x01)\n    /* \"contracts/1minuteAnon.sol\":5586:5599  uniswapRouter */\n  swap1\n  swap2\n  and\n  swap1\n  0x00\n  dup1\n  mload\n  0x20\n  data_4676e9525129958bed49b43fa7e56d15bfab1bc03bb4ebe3ffe4fe604a81e165\n  dup4\n  codecopy\n  dup2\n  mload\n  swap2\n  mstore\n    /* \"contracts/1minuteAnon.sol\":5555:5601  ExcludedFromLockPeriod(address(uniswapRouter)) */\n  swap1\n    /* \"contracts/1minuteAnon.sol\":5586:5599  uniswapRouter */\n  0x00\n  swap1\n    /* \"contracts/1minuteAnon.sol\":5555:5601  ExcludedFromLockPeriod(address(uniswapRouter)) */\n  log2\n    /* \"contracts/1minuteAnon.sol\":4513:5611  {... */\n  pop\n    /* \"contracts/1minuteAnon.sol\":2020:10785  contract ANON1MINUTE is ERC20, Ownable {... */\n  jump(tag_65)\n    /* \"@openzeppelin/contracts/utils/Context.sol\":640:736  function _msgSender() internal view virtual returns (address) {... */\ntag_18:\n    /* \"@openzeppelin/contracts/utils/Context.sol\":719:729  msg.sender */\n  caller\n  swap1\n    /* \"@openzeppelin/contracts/utils/Context.sol\":640:736  function _msgSender() internal view virtual returns (address) {... */\n  jump\t// out\n    /* \"@openzeppelin/contracts/access/Ownable.sol\":2426:2613  function _transferOwnership(address newOwner) internal virtual {... */\ntag_19:\n    /* \"@openzeppelin/contracts/access/Ownable.sol\":2518:2524  _owner */\n  0x05\n  dup1\n  sload\n  sub(shl(0xa0, 0x01), 0x01)\n    /* \"@openzeppelin/contracts/access/Ownable.sol\":2534:2551  _owner = newOwner */\n  dup4\n  dup2\n  and\n  not(sub(shl(0xa0, 0x01), 0x01))\n  dup4\n  and\n  dup2\n  or\n  swap1\n  swap4\n  sstore\n    /* \"@openzeppelin/contracts/access/Ownable.sol\":2566:2606  OwnershipTransferred(oldOwner, newOwner) */\n  mload(0x40)\n    /* \"@openzeppelin/contracts/access/Ownable.sol\":2518:2524  _owner */\n  swap2\n  and\n  swap2\n    /* \"@openzeppelin/contracts/access/Ownable.sol\":2534:2551  _owner = newOwner */\n  swap1\n    /* \"@openzeppelin/contracts/access/Ownable.sol\":2518:2524  _owner */\n  dup3\n  swap1\n    /* \"@openzeppelin/contracts/access/Ownable.sol\":2566:2606  OwnershipTransferred(oldOwner, newOwner) */\n  0x8be0079c531659141344cd1fd0a4f28419497f9722a3daafe3b4186f6b6457e0\n  swap1\n    /* \"@openzeppelin/contracts/access/Ownable.sol\":2499:2515  address oldOwner */\n  0x00\n  swap1\n    /* \"@openzeppelin/contracts/access/Ownable.sol\":2566:2606  OwnershipTransferred(oldOwner, newOwner) */\n  log3\n    /* \"@openzeppelin/contracts/access/Ownable.sol\":2489:2613  {... */\n  pop\n    /* \"@openzeppelin/contracts/access/Ownable.sol\":2426:2613  function _transferOwnership(address newOwner) internal virtual {... */\n  pop\n  jump\t// out\n    /* \"@openzeppelin/contracts/token/ERC20/ERC20.sol\":8520:9055  function _mint(address account, uint256 amount) internal virtual {... */\ntag_22:\n  sub(shl(0xa0, 0x01), 0x01)\n    /* \"@openzeppelin/contracts/token/ERC20/ERC20.sol\":8603:8624  account != address(0) */\n  dup3\n  and\n    /* \"@openzeppelin/contracts/token/ERC20/ERC20.sol\":8595:8660  require(account != address(0), \"ERC20: mint to the zero address\") */\n  tag_40\n  jumpi\n  mload(0x40)\n  shl(0xe5, 0x461bcd)\n  dup2\n  mstore\n    /* \"#utility.yul\":1304:1306   */\n  0x20\n    /* \"@openzeppelin/contracts/token/ERC20/ERC20.sol\":8595:8660  require(account != address(0), \"ERC20: mint to the zero address\") */\n  0x04\n  dup3\n  add\n    /* \"#utility.yul\":1286:1307   */\n  mstore\n    /* \"#utility.yul\":1343:1345   */\n  0x1f\n    /* \"#utility.yul\":1323:1341   */\n  0x24\n  dup3\n  add\n    /* \"#utility.yul\":1316:1346   */\n  mstore\n    /* \"#utility.yul\":1382:1415   */\n  0x45524332303a206d696e7420746f20746865207a65726f206164647265737300\n    /* \"#utility.yul\":1362:1380   */\n  0x44\n  dup3\n  add\n    /* \"#utility.yul\":1355:1416   */\n  mstore\n    /* \"#utility.yul\":1433:1451   */\n  0x64\n  add\n    /* \"@openzeppelin/contracts/token/ERC20/ERC20.sol\":8595:8660  require(account != address(0), \"ERC20: mint to the zero address\") */\n  mload(0x40)\n  dup1\n  swap2\n  sub\n  swap1\n  revert\ntag_40:\n    /* \"@openzeppelin/contracts/token/ERC20/ERC20.sol\":8747:8753  amount */\n  dup1\n    /* \"@openzeppelin/contracts/token/ERC20/ERC20.sol\":8731:8743  _totalSupply */\n  0x02\n  0x00\n    /* \"@openzeppelin/contracts/token/ERC20/ERC20.sol\":8731:8753  _totalSupply += amount */\n  dup3\n  dup3\n  sload\n  tag_45\n  swap2\n  swap1\n  tag_46\n  jump\t// in\ntag_45:\n  swap1\n  swap2\n  sstore\n  pop\n  pop\n  sub(shl(0xa0, 0x01), 0x01)\n    /* \"@openzeppelin/contracts/token/ERC20/ERC20.sol\":8899:8917  _balances[account] */\n  dup3\n  and\n    /* \"@openzeppelin/contracts/token/ERC20/ERC20.sol\":8899:8908  _balances */\n  0x00\n    /* \"@openzeppelin/contracts/token/ERC20/ERC20.sol\":8899:8917  _balances[account] */\n  dup2\n  dup2\n  mstore\n  0x20\n  dup2\n  dup2\n  mstore\n  0x40\n  dup1\n  dup4\n  keccak256\n    /* \"@openzeppelin/contracts/token/ERC20/ERC20.sol\":8899:8927  _balances[account] += amount */\n  dup1\n  sload\n  dup7\n  add\n  swap1\n  sstore\n    /* \"@openzeppelin/contracts/token/ERC20/ERC20.sol\":8952:8989  Transfer(address(0), account, amount) */\n  mload\n    /* \"#utility.yul\":1741:1766   */\n  dup5\n  dup2\n  mstore\n    /* \"@openzeppelin/contracts/token/ERC20/ERC20.sol\":8952:8989  Transfer(address(0), account, amount) */\n  0xddf252ad1be2c89b69c2b068fc378daa952ba7f163c4a11628f55a4df523b3ef\n  swap2\n    /* \"#utility.yul\":1714:1732   */\n  add\n    /* \"@openzeppelin/contracts/token/ERC20/ERC20.sol\":8952:8989  Transfer(address(0), account, amount) */\n  mload(0x40)\n  dup1\n  swap2\n  sub\n  swap1\n  log3\n    /* \"@openzeppelin/contracts/token/ERC20/ERC20.sol\":8520:9055  function _mint(address account, uint256 amount) internal virtual {... */\n  pop\n  pop\n  jump\t// out\n    /* \"contracts/1minuteAnon.sol\":2020:10785  contract ANON1MINUTE is ERC20, Ownable {... */\ntag_13:\n  dup3\n  dup1\n  sload\n  tag_53\n  swap1\n  tag_54\n  jump\t// in\ntag_53:\n  swap1\n  0x00\n  mstore\n  keccak256(0x00, 0x20)\n  swap1\n  0x1f\n  add\n  0x20\n  swap1\n  div\n  dup2\n  add\n  swap3\n  dup3\n  tag_56\n  jumpi\n  0x00\n  dup6\n  sstore\n  jump(tag_59)\ntag_56:\n  dup3\n  0x1f\n  lt\n  tag_57\n  jumpi\n  dup1\n  mload\n  not(0xff)\n  and\n  dup4\n  dup1\n  add\n  or\n  dup6\n  sstore\n  jump(tag_59)\ntag_57:\n  dup3\n  dup1\n  add\n  0x01\n  add\n  dup6\n  sstore\n  dup3\n  iszero\n  tag_59\n  jumpi\n  swap2\n  dup3\n  add\ntag_58:\n  dup3\n  dup2\n  gt\n  iszero\n  tag_59\n  jumpi\n  dup3\n  mload\n  dup3\n  sstore\n  swap2\n  0x20\n  add\n  swap2\n  swap1\n  0x01\n  add\n  swap1\n  jump(tag_58)\ntag_59:\n  pop\n  tag_60\n  swap3\n  swap2\n  pop\n  tag_61\n  jump\t// in\ntag_60:\n  pop\n  swap1\n  jump\t// out\ntag_61:\ntag_62:\n  dup1\n  dup3\n  gt\n  iszero\n  tag_60\n  jumpi\n  0x00\n  dup2\n  sstore\n  0x01\n  add\n  jump(tag_62)\n    /* \"#utility.yul\":14:141   */\ntag_64:\n    /* \"#utility.yul\":75:85   */\n  0x4e487b71\n    /* \"#utility.yul\":70:73   */\n  0xe0\n    /* \"#utility.yul\":66:86   */\n  shl\n    /* \"#utility.yul\":63:64   */\n  0x00\n    /* \"#utility.yul\":56:87   */\n  mstore\n    /* \"#utility.yul\":106:110   */\n  0x11\n    /* \"#utility.yul\":103:104   */\n  0x04\n    /* \"#utility.yul\":96:111   */\n  mstore\n    /* \"#utility.yul\":130:134   */\n  0x24\n    /* \"#utility.yul\":127:128   */\n  0x00\n    /* \"#utility.yul\":120:135   */\n  revert\n    /* \"#utility.yul\":146:363   */\ntag_2:\n    /* \"#utility.yul\":186:187   */\n  0x00\n    /* \"#utility.yul\":212:213   */\n  dup3\n    /* \"#utility.yul\":202:334   */\n  tag_68\n  jumpi\n    /* \"#utility.yul\":256:266   */\n  0x4e487b71\n    /* \"#utility.yul\":251:254   */\n  0xe0\n    /* \"#utility.yul\":247:267   */\n  shl\n    /* \"#utility.yul\":244:245   */\n  0x00\n    /* \"#utility.yul\":237:268   */\n  mstore\n    /* \"#utility.yul\":291:295   */\n  0x12\n    /* \"#utility.yul\":288:289   */\n  0x04\n    /* \"#utility.yul\":281:296   */\n  mstore\n    /* \"#utility.yul\":319:323   */\n  0x24\n    /* \"#utility.yul\":316:317   */\n  0x00\n    /* \"#utility.yul\":309:324   */\n  revert\n    /* \"#utility.yul\":202:334   */\ntag_68:\n  pop\n    /* \"#utility.yul\":348:357   */\n  div\n  swap1\n    /* \"#utility.yul\":146:363   */\n  jump\t// out\n    /* \"#utility.yul\":368:493   */\ntag_6:\n    /* \"#utility.yul\":408:412   */\n  0x00\n    /* \"#utility.yul\":436:437   */\n  dup3\n    /* \"#utility.yul\":433:434   */\n  dup3\n    /* \"#utility.yul\":430:438   */\n  lt\n    /* \"#utility.yul\":427:461   */\n  iszero\n  tag_71\n  jumpi\n    /* \"#utility.yul\":441:459   */\n  tag_71\n  tag_64\n  jump\t// in\ntag_71:\n  pop\n    /* \"#utility.yul\":478:487   */\n  sub\n  swap1\n    /* \"#utility.yul\":368:493   */\n  jump\t// out\n    /* \"#utility.yul\":498:788   */\ntag_26:\n    /* \"#utility.yul\":568:574   */\n  0x00\n    /* \"#utility.yul\":621:623   */\n  0x20\n    /* \"#utility.yul\":609:618   */\n  dup3\n    /* \"#utility.yul\":600:607   */\n  dup5\n    /* \"#utility.yul\":596:619   */\n  sub\n    /* \"#utility.yul\":592:624   */\n  slt\n    /* \"#utility.yul\":589:641   */\n  iszero\n  tag_73\n  jumpi\n    /* \"#utility.yul\":637:638   */\n  0x00\n    /* \"#utility.yul\":634:635   */\n  dup1\n    /* \"#utility.yul\":627:639   */\n  revert\n    /* \"#utility.yul\":589:641   */\ntag_73:\n    /* \"#utility.yul\":663:679   */\n  dup2\n  mload\n  sub(shl(0xa0, 0x01), 0x01)\n    /* \"#utility.yul\":708:739   */\n  dup2\n  and\n    /* \"#utility.yul\":698:740   */\n  dup2\n  eq\n    /* \"#utility.yul\":688:758   */\n  tag_74\n  jumpi\n    /* \"#utility.yul\":754:755   */\n  0x00\n    /* \"#utility.yul\":751:752   */\n  dup1\n    /* \"#utility.yul\":744:756   */\n  revert\n    /* \"#utility.yul\":688:758   */\ntag_74:\n    /* \"#utility.yul\":777:782   */\n  swap4\n    /* \"#utility.yul\":498:788   */\n  swap3\n  pop\n  pop\n  pop\n  jump\t// out\n    /* \"#utility.yul\":1462:1590   */\ntag_46:\n    /* \"#utility.yul\":1502:1505   */\n  0x00\n    /* \"#utility.yul\":1533:1534   */\n  dup3\n    /* \"#utility.yul\":1529:1535   */\n  not\n    /* \"#utility.yul\":1526:1527   */\n  dup3\n    /* \"#utility.yul\":1523:1536   */\n  gt\n    /* \"#utility.yul\":1520:1559   */\n  iszero\n  tag_79\n  jumpi\n    /* \"#utility.yul\":1539:1557   */\n  tag_79\n  tag_64\n  jump\t// in\ntag_79:\n  pop\n    /* \"#utility.yul\":1575:1584   */\n  add\n  swap1\n    /* \"#utility.yul\":1462:1590   */\n  jump\t// out\n    /* \"#utility.yul\":1777:2157   */\ntag_54:\n    /* \"#utility.yul\":1856:1857   */\n  0x01\n    /* \"#utility.yul\":1852:1864   */\n  dup2\n  dup2\n  shr\n  swap1\n    /* \"#utility.yul\":1899:1911   */\n  dup3\n  and\n  dup1\n    /* \"#utility.yul\":1920:1981   */\n  tag_82\n  jumpi\n    /* \"#utility.yul\":1974:1978   */\n  0x7f\n    /* \"#utility.yul\":1966:1972   */\n  dup3\n    /* \"#utility.yul\":1962:1979   */\n  and\n    /* \"#utility.yul\":1952:1979   */\n  swap2\n  pop\n    /* \"#utility.yul\":1920:1981   */\ntag_82:\n    /* \"#utility.yul\":2027:2029   */\n  0x20\n    /* \"#utility.yul\":2019:2025   */\n  dup3\n    /* \"#utility.yul\":2016:2030   */\n  lt\n    /* \"#utility.yul\":1996:2014   */\n  dup2\n    /* \"#utility.yul\":1993:2031   */\n  sub\n    /* \"#utility.yul\":1990:2151   */\n  tag_83\n  jumpi\n    /* \"#utility.yul\":2073:2083   */\n  0x4e487b71\n    /* \"#utility.yul\":2068:2071   */\n  0xe0\n    /* \"#utility.yul\":2064:2084   */\n  shl\n    /* \"#utility.yul\":2061:2062   */\n  0x00\n    /* \"#utility.yul\":2054:2085   */\n  mstore\n    /* \"#utility.yul\":2108:2112   */\n  0x22\n    /* \"#utility.yul\":2105:2106   */\n  0x04\n    /* \"#utility.yul\":2098:2113   */\n  mstore\n    /* \"#utility.yul\":2136:2140   */\n  0x24\n    /* \"#utility.yul\":2133:2134   */\n  0x00\n    /* \"#utility.yul\":2126:2141   */\n  revert\n    /* \"#utility.yul\":1990:2151   */\ntag_83:\n  pop\n    /* \"#utility.yul\":1777:2157   */\n  swap2\n  swap1\n  pop\n  jump\t// out\ntag_65:\n    /* \"contracts/1minuteAnon.sol\":2020:10785  contract ANON1MINUTE is ERC20, Ownable {... */\n  dataSize(sub_0)\n  dup1\n  dataOffset(sub_0)\n  0x00\n  codecopy\n  0x00\n  return\nstop\ndata_4676e9525129958bed49b43fa7e56d15bfab1bc03bb4ebe3ffe4fe604a81e165 c93bc17a700271bf59796cbfa01b47b8b95654209793470e3cdbadf87465a843\n\nsub_0: assembly {\n        /* \"contracts/1minuteAnon.sol\":2020:10785  contract ANON1MINUTE is ERC20, Ownable {... */\n      mstore(0x40, 0x80)\n      jumpi(tag_1, lt(calldatasize, 0x04))\n      shr(0xe0, calldataload(0x00))\n      dup1\n      0x8da5cb5b\n      gt\n      tag_40\n      jumpi\n      dup1\n      0xc31c9c07\n      gt\n      tag_41\n      jumpi\n      dup1\n      0xdd62ed3e\n      gt\n      tag_42\n      jumpi\n      dup1\n      0xdd62ed3e\n      eq\n      tag_35\n      jumpi\n      dup1\n      0xe9451f5f\n      eq\n      tag_6\n      jumpi\n      dup1\n      0xeafb5a3c\n      eq\n      tag_37\n      jumpi\n      dup1\n      0xf2fde38b\n      eq\n      tag_38\n      jumpi\n      dup1\n      0xfdf3dd9c\n      eq\n      tag_39\n      jumpi\n      0x00\n      dup1\n      revert\n    tag_42:\n      dup1\n      0xc31c9c07\n      eq\n      tag_30\n      jumpi\n      dup1\n      0xc816841b\n      eq\n      tag_31\n      jumpi\n      dup1\n      0xc831f606\n      eq\n      tag_32\n      jumpi\n      dup1\n      0xd89135cd\n      eq\n      tag_33\n      jumpi\n      dup1\n      0xdc9d75b0\n      eq\n      tag_34\n      jumpi\n      0x00\n      dup1\n      revert\n    tag_41:\n      dup1\n      0xa01c3483\n      gt\n      tag_43\n      jumpi\n      dup1\n      0xa01c3483\n      eq\n      tag_25\n      jumpi\n      dup1\n      0xa457c2d7\n      eq\n      tag_26\n      jumpi\n      dup1\n      0xa9059cbb\n      eq\n      tag_27\n      jumpi\n      dup1\n      0xb2bdfa7b\n      eq\n      tag_28\n      jumpi\n      dup1\n      0xbe3898de\n      eq\n      tag_29\n      jumpi\n      0x00\n      dup1\n      revert\n    tag_43:\n      dup1\n      0x8da5cb5b\n      eq\n      tag_21\n      jumpi\n      dup1\n      0x9358928b\n      eq\n      tag_22\n      jumpi\n      dup1\n      0x95d89b41\n      eq\n      tag_23\n      jumpi\n      dup1\n      0x984ae06e\n      eq\n      tag_24\n      jumpi\n      0x00\n      dup1\n      revert\n    tag_40:\n      dup1\n      0x3fd8b02f\n      gt\n      tag_44\n      jumpi\n      dup1\n      0x67e00e88\n      gt\n      tag_45\n      jumpi\n      dup1\n      0x67e00e88\n      eq\n      tag_16\n      jumpi\n      dup1\n      0x70a08231\n      eq\n      tag_17\n      jumpi\n      dup1\n      0x715018a6\n      eq\n      tag_18\n      jumpi\n      dup1\n      0x735de9f7\n      eq\n      tag_19\n      jumpi\n      dup1\n      0x8cd4426d\n      eq\n      tag_20\n      jumpi\n      0x00\n      dup1\n      revert\n    tag_45:\n      dup1\n      0x3fd8b02f\n      eq\n      tag_12\n      jumpi\n      dup1\n      0x42966c68\n      eq\n      tag_13\n      jumpi\n      dup1\n      0x469132ce\n      eq\n      tag_14\n      jumpi\n      dup1\n      0x54de7bee\n      eq\n      tag_15\n      jumpi\n      0x00\n      dup1\n      revert\n    tag_44:\n      dup1\n      0x227b453f\n      gt\n      tag_46\n      jumpi\n      dup1\n      0x227b453f\n      eq\n      tag_7\n      jumpi\n      dup1\n      0x23b872dd\n      eq\n      tag_8\n      jumpi\n      dup1\n      0x3078381c\n      eq\n      tag_9\n      jumpi\n      dup1\n      0x313ce567\n      eq\n      tag_10\n      jumpi\n      dup1\n      0x39509351\n      eq\n      tag_11\n      jumpi\n      0x00\n      dup1\n      revert\n    tag_46:\n      dup1\n      0x06fdde03\n      eq\n      tag_3\n      jumpi\n      dup1\n      0x095ea7b3\n      eq\n      tag_4\n      jumpi\n      dup1\n      0x18160ddd\n      eq\n      tag_5\n      jumpi\n      dup1\n      0x1dc36945\n      eq\n      tag_6\n      jumpi\n      0x00\n      dup1\n      revert\n    tag_1:\n      jumpi(tag_2, calldatasize)\n        /* \"contracts/1minuteAnon.sol\":8888:8934  revert(\"Direct ETH transfers are not allowed\") */\n      mload(0x40)\n      shl(0xe5, 0x461bcd)\n      dup2\n      mstore\n        /* \"#utility.yul\":216:218   */\n      0x20\n        /* \"contracts/1minuteAnon.sol\":8888:8934  revert(\"Direct ETH transfers are not allowed\") */\n      0x04\n      dup3\n      add\n        /* \"#utility.yul\":198:219   */\n      mstore\n        /* \"#utility.yul\":255:257   */\n      0x24\n        /* \"#utility.yul\":235:253   */\n      dup1\n      dup3\n      add\n        /* \"#utility.yul\":228:258   */\n      mstore\n        /* \"#utility.yul\":294:328   */\n      0x44697265637420455448207472616e736665727320617265206e6f7420616c6c\n        /* \"#utility.yul\":274:292   */\n      0x44\n      dup3\n      add\n        /* \"#utility.yul\":267:329   */\n      mstore\n      shl(0xe2, 0x1bddd959)\n        /* \"#utility.yul\":345:363   */\n      0x64\n      dup3\n      add\n        /* \"#utility.yul\":338:372   */\n      mstore\n        /* \"#utility.yul\":389:408   */\n      0x84\n      add\n        /* \"contracts/1minuteAnon.sol\":8888:8934  revert(\"Direct ETH transfers are not allowed\") */\n    tag_49:\n      mload(0x40)\n      dup1\n      swap2\n      sub\n      swap1\n      revert\n        /* \"contracts/1minuteAnon.sol\":2020:10785  contract ANON1MINUTE is ERC20, Ownable {... */\n    tag_2:\n      0x00\n      dup1\n      revert\n        /* \"@openzeppelin/contracts/token/ERC20/ERC20.sol\":2158:2256  function name() public view virtual override returns (string memory) {... */\n    tag_3:\n      callvalue\n      dup1\n      iszero\n      tag_51\n      jumpi\n      0x00\n      dup1\n      revert\n    tag_51:\n      pop\n      tag_52\n      tag_53\n      jump\t// in\n    tag_52:\n      mload(0x40)\n      tag_54\n      swap2\n      swap1\n      tag_55\n      jump\t// in\n    tag_54:\n      mload(0x40)\n      dup1\n      swap2\n      sub\n      swap1\n      return\n        /* \"@openzeppelin/contracts/token/ERC20/ERC20.sol\":4444:4641  function approve(address spender, uint256 amount) public virtual override returns (bool) {... */\n    tag_4:\n      callvalue\n      dup1\n      iszero\n      tag_56\n      jumpi\n      0x00\n      dup1\n      revert\n    tag_56:\n      pop\n      tag_57\n      tag_58\n      calldatasize\n      0x04\n      tag_59\n      jump\t// in\n    tag_58:\n      tag_60\n      jump\t// in\n    tag_57:\n      mload(0x40)\n        /* \"#utility.yul\":1642:1656   */\n      swap1\n      iszero\n        /* \"#utility.yul\":1635:1657   */\n      iszero\n        /* \"#utility.yul\":1617:1658   */\n      dup2\n      mstore\n        /* \"#utility.yul\":1605:1607   */\n      0x20\n        /* \"#utility.yul\":1590:1608   */\n      add\n        /* \"@openzeppelin/contracts/token/ERC20/ERC20.sol\":4444:4641  function approve(address spender, uint256 amount) public virtual override returns (bool) {... */\n      tag_54\n        /* \"#utility.yul\":1477:1664   */\n      jump\n        /* \"@openzeppelin/contracts/token/ERC20/ERC20.sol\":3255:3361  function totalSupply() public view virtual override returns (uint256) {... */\n    tag_5:\n      callvalue\n      dup1\n      iszero\n      tag_63\n      jumpi\n      0x00\n      dup1\n      revert\n    tag_63:\n      pop\n        /* \"@openzeppelin/contracts/token/ERC20/ERC20.sol\":3342:3354  _totalSupply */\n      sload(0x02)\n        /* \"@openzeppelin/contracts/token/ERC20/ERC20.sol\":3255:3361  function totalSupply() public view virtual override returns (uint256) {... */\n    tag_64:\n      mload(0x40)\n        /* \"#utility.yul\":1815:1840   */\n      swap1\n      dup2\n      mstore\n        /* \"#utility.yul\":1803:1805   */\n      0x20\n        /* \"#utility.yul\":1788:1806   */\n      add\n        /* \"@openzeppelin/contracts/token/ERC20/ERC20.sol\":3255:3361  function totalSupply() public view virtual override returns (uint256) {... */\n      tag_54\n        /* \"#utility.yul\":1669:1846   */\n      jump\n        /* \"contracts/1minuteAnon.sol\":2605:2639  uint256 constant public buyfee = 1 */\n    tag_6:\n      callvalue\n      dup1\n      iszero\n      tag_68\n      jumpi\n      0x00\n      dup1\n      revert\n    tag_68:\n      pop\n      tag_64\n        /* \"contracts/1minuteAnon.sol\":2638:2639  1 */\n      0x01\n        /* \"contracts/1minuteAnon.sol\":2605:2639  uint256 constant public buyfee = 1 */\n      dup2\n      jump\n        /* \"contracts/1minuteAnon.sol\":6302:6421  function includeInTimeLock(address _address) external onlyOwner {... */\n    tag_7:\n      callvalue\n      dup1\n      iszero\n      tag_72\n      jumpi\n      0x00\n      dup1\n      revert\n    tag_72:\n      pop\n      tag_73\n      tag_74\n      calldatasize\n      0x04\n      tag_75\n      jump\t// in\n    tag_74:\n      tag_76\n      jump\t// in\n    tag_73:\n      stop\n        /* \"contracts/1minuteAnon.sol\":8455:8843  function transferFrom(address sender, address recipient, uint256 amount) public override returns (bool) {... */\n    tag_8:\n      callvalue\n      dup1\n      iszero\n      tag_77\n      jumpi\n      0x00\n      dup1\n      revert\n    tag_77:\n      pop\n      tag_57\n      tag_79\n      calldatasize\n      0x04\n      tag_80\n      jump\t// in\n    tag_79:\n      tag_81\n      jump\t// in\n        /* \"contracts/1minuteAnon.sol\":4139:4193  mapping(address => bool) public excludedFromLockPeriod */\n    tag_9:\n      callvalue\n      dup1\n      iszero\n      tag_83\n      jumpi\n      0x00\n      dup1\n      revert\n    tag_83:\n      pop\n      tag_57\n      tag_85\n      calldatasize\n      0x04\n      tag_75\n      jump\t// in\n    tag_85:\n      mstore(0x20, 0x10)\n      0x00\n      swap1\n      dup2\n      mstore\n      0x40\n      swap1\n      keccak256\n      sload\n      0xff\n      and\n      dup2\n      jump\n        /* \"@openzeppelin/contracts/token/ERC20/ERC20.sol\":3104:3195  function decimals() public view virtual override returns (uint8) {... */\n    tag_10:\n      callvalue\n      dup1\n      iszero\n      tag_88\n      jumpi\n      0x00\n      dup1\n      revert\n    tag_88:\n      pop\n      mload(0x40)\n        /* \"@openzeppelin/contracts/token/ERC20/ERC20.sol\":3186:3188  18 */\n      0x12\n        /* \"#utility.yul\":2706:2742   */\n      dup2\n      mstore\n        /* \"#utility.yul\":2694:2696   */\n      0x20\n        /* \"#utility.yul\":2679:2697   */\n      add\n        /* \"@openzeppelin/contracts/token/ERC20/ERC20.sol\":3104:3195  function decimals() public view virtual override returns (uint8) {... */\n      tag_54\n        /* \"#utility.yul\":2564:2748   */\n      jump\n        /* \"@openzeppelin/contracts/token/ERC20/ERC20.sol\":5854:6088  function increaseAllowance(address spender, uint256 addedValue) public virtual returns (bool) {... */\n    tag_11:\n      callvalue\n      dup1\n      iszero\n      tag_93\n      jumpi\n      0x00\n      dup1\n      revert\n    tag_93:\n      pop\n      tag_57\n      tag_95\n      calldatasize\n      0x04\n      tag_59\n      jump\t// in\n    tag_95:\n      tag_96\n      jump\t// in\n        /* \"contracts/1minuteAnon.sol\":2506:2552  uint256 public constant lockPeriod = 1 minutes */\n    tag_12:\n      callvalue\n      dup1\n      iszero\n      tag_98\n      jumpi\n      0x00\n      dup1\n      revert\n    tag_98:\n      pop\n      tag_64\n        /* \"contracts/1minuteAnon.sol\":2543:2552  1 minutes */\n      0x3c\n        /* \"contracts/1minuteAnon.sol\":2506:2552  uint256 public constant lockPeriod = 1 minutes */\n      dup2\n      jump\n        /* \"contracts/1minuteAnon.sol\":8148:8231  function burn(uint256 amount) external {... */\n    tag_13:\n      callvalue\n      dup1\n      iszero\n      tag_102\n      jumpi\n      0x00\n      dup1\n      revert\n    tag_102:\n      pop\n      tag_73\n      tag_104\n      calldatasize\n      0x04\n      tag_105\n      jump\t// in\n    tag_104:\n      tag_106\n      jump\t// in\n        /* \"contracts/1minuteAnon.sol\":2741:2802  uint256 public maxTokensPerWallet = CIRCULATING_SUPPLY / 1000 */\n    tag_14:\n      callvalue\n      dup1\n      iszero\n      tag_107\n      jumpi\n      0x00\n      dup1\n      revert\n    tag_107:\n      pop\n      tag_64\n      sload(0x07)\n      dup2\n      jump\n        /* \"contracts/1minuteAnon.sol\":2559:2598  uint256 constant public transferfee = 0 */\n    tag_15:\n      callvalue\n      dup1\n      iszero\n      tag_111\n      jumpi\n      0x00\n      dup1\n      revert\n    tag_111:\n      pop\n      tag_64\n        /* \"contracts/1minuteAnon.sol\":2597:2598  0 */\n      0x00\n        /* \"contracts/1minuteAnon.sol\":2559:2598  uint256 constant public transferfee = 0 */\n      dup2\n      jump\n        /* \"contracts/1minuteAnon.sol\":4200:4244  mapping(address => bool) public uniswapPairs */\n    tag_16:\n      callvalue\n      dup1\n      iszero\n      tag_115\n      jumpi\n      0x00\n      dup1\n      revert\n    tag_115:\n      pop\n      tag_57\n      tag_117\n      calldatasize\n      0x04\n      tag_75\n      jump\t// in\n    tag_117:\n      mstore(0x20, 0x11)\n      0x00\n      swap1\n      dup2\n      mstore\n      0x40\n      swap1\n      keccak256\n      sload\n      0xff\n      and\n      dup2\n      jump\n        /* \"@openzeppelin/contracts/token/ERC20/ERC20.sol\":3419:3544  function balanceOf(address account) public view virtual override returns (uint256) {... */\n    tag_17:\n      callvalue\n      dup1\n      iszero\n      tag_120\n      jumpi\n      0x00\n      dup1\n      revert\n    tag_120:\n      pop\n      tag_64\n      tag_122\n      calldatasize\n      0x04\n      tag_75\n      jump\t// in\n    tag_122:\n      sub(shl(0xa0, 0x01), 0x01)\n        /* \"@openzeppelin/contracts/token/ERC20/ERC20.sol\":3519:3537  _balances[account] */\n      and\n        /* \"@openzeppelin/contracts/token/ERC20/ERC20.sol\":3493:3500  uint256 */\n      0x00\n        /* \"@openzeppelin/contracts/token/ERC20/ERC20.sol\":3519:3537  _balances[account] */\n      swap1\n      dup2\n      mstore\n      0x20\n      dup2\n      swap1\n      mstore\n      0x40\n      swap1\n      keccak256\n      sload\n      swap1\n        /* \"@openzeppelin/contracts/token/ERC20/ERC20.sol\":3419:3544  function balanceOf(address account) public view virtual override returns (uint256) {... */\n      jump\n        /* \"contracts/1minuteAnon.sol\":2286:2423  function renounceOwnership() public onlyOwner override  {... */\n    tag_18:\n      callvalue\n      dup1\n      iszero\n      tag_125\n      jumpi\n      0x00\n      dup1\n      revert\n    tag_125:\n      pop\n      tag_73\n      tag_127\n      jump\t// in\n        /* \"contracts/1minuteAnon.sol\":3691:3730  IUniswapV2Router02 public uniswapRouter */\n    tag_19:\n      callvalue\n      dup1\n      iszero\n      tag_128\n      jumpi\n      0x00\n      dup1\n      revert\n    tag_128:\n      pop\n      sload(0x0c)\n      tag_129\n      swap1\n      sub(shl(0xa0, 0x01), 0x01)\n      and\n      dup2\n      jump\n    tag_129:\n      mload(0x40)\n      sub(shl(0xa0, 0x01), 0x01)\n        /* \"#utility.yul\":3129:3161   */\n      swap1\n      swap2\n      and\n        /* \"#utility.yul\":3111:3162   */\n      dup2\n      mstore\n        /* \"#utility.yul\":3099:3101   */\n      0x20\n        /* \"#utility.yul\":3084:3102   */\n      add\n        /* \"contracts/1minuteAnon.sol\":3691:3730  IUniswapV2Router02 public uniswapRouter */\n      tag_54\n        /* \"#utility.yul\":2938:3168   */\n      jump\n        /* \"contracts/1minuteAnon.sol\":8004:8140  function rescueERC20(address tokenAdd, uint256 amount) external onlyOwner {... */\n    tag_20:\n      callvalue\n      dup1\n      iszero\n      tag_133\n      jumpi\n      0x00\n      dup1\n      revert\n    tag_133:\n      pop\n      tag_73\n      tag_135\n      calldatasize\n      0x04\n      tag_59\n      jump\t// in\n    tag_135:\n      tag_136\n      jump\t// in\n        /* \"@openzeppelin/contracts/access/Ownable.sol\":1201:1286  function owner() public view virtual returns (address) {... */\n    tag_21:\n      callvalue\n      dup1\n      iszero\n      tag_137\n      jumpi\n      0x00\n      dup1\n      revert\n    tag_137:\n      pop\n        /* \"@openzeppelin/contracts/access/Ownable.sol\":1273:1279  _owner */\n      and(sub(shl(0xa0, 0x01), 0x01), sload(0x05))\n        /* \"@openzeppelin/contracts/access/Ownable.sol\":1201:1286  function owner() public view virtual returns (address) {... */\n      jump(tag_129)\n        /* \"contracts/1minuteAnon.sol\":6535:6650  function circulatingSupply() external view returns (uint256) {... */\n    tag_22:\n      callvalue\n      dup1\n      iszero\n      tag_142\n      jumpi\n      0x00\n      dup1\n      revert\n    tag_142:\n      pop\n      tag_64\n      tag_144\n      jump\t// in\n        /* \"@openzeppelin/contracts/token/ERC20/ERC20.sol\":2369:2471  function symbol() public view virtual override returns (string memory) {... */\n    tag_23:\n      callvalue\n      dup1\n      iszero\n      tag_146\n      jumpi\n      0x00\n      dup1\n      revert\n    tag_146:\n      pop\n      tag_52\n      tag_148\n      jump\t// in\n        /* \"contracts/1minuteAnon.sol\":3022:3095  uint256 public CIRCULATING_SUPPLY = TOTAL_SUPPLY - balanceOf(DEAD_WALLET) */\n    tag_24:\n      callvalue\n      dup1\n      iszero\n      tag_150\n      jumpi\n      0x00\n      dup1\n      revert\n    tag_150:\n      pop\n      tag_64\n      sload(0x09)\n      dup2\n      jump\n        /* \"contracts/1minuteAnon.sol\":2935:3015  address public constant DEAD_WALLET = 0x000000000000000000000000000000000000dEaD */\n    tag_25:\n      callvalue\n      dup1\n      iszero\n      tag_154\n      jumpi\n      0x00\n      dup1\n      revert\n    tag_154:\n      pop\n      tag_129\n        /* \"contracts/1minuteAnon.sol\":2973:3015  0x000000000000000000000000000000000000dEaD */\n      0xdead\n        /* \"contracts/1minuteAnon.sol\":2935:3015  address public constant DEAD_WALLET = 0x000000000000000000000000000000000000dEaD */\n      dup2\n      jump\n        /* \"@openzeppelin/contracts/token/ERC20/ERC20.sol\":6575:7002  function decreaseAllowance(address spender, uint256 subtractedValue) public virtual returns (bool) {... */\n    tag_26:\n      callvalue\n      dup1\n      iszero\n      tag_158\n      jumpi\n      0x00\n      dup1\n      revert\n    tag_158:\n      pop\n      tag_57\n      tag_160\n      calldatasize\n      0x04\n      tag_59\n      jump\t// in\n    tag_160:\n      tag_161\n      jump\t// in\n        /* \"contracts/1minuteAnon.sol\":8245:8447  function transfer(address recipient, uint256 amount) public override onlyWallets returns (bool) {... */\n    tag_27:\n      callvalue\n      dup1\n      iszero\n      tag_163\n      jumpi\n      0x00\n      dup1\n      revert\n    tag_163:\n      pop\n      tag_57\n      tag_165\n      calldatasize\n      0x04\n      tag_59\n      jump\t// in\n    tag_165:\n      tag_166\n      jump\t// in\n        /* \"contracts/1minuteAnon.sol\":2069:2090  address public _owner */\n    tag_28:\n      callvalue\n      dup1\n      iszero\n      tag_168\n      jumpi\n      0x00\n      dup1\n      revert\n    tag_168:\n      pop\n      sload(0x06)\n      tag_129\n      swap1\n      sub(shl(0xa0, 0x01), 0x01)\n      and\n      dup2\n      jump\n        /* \"contracts/1minuteAnon.sol\":2843:2928  address payable public BBWallet = payable(0x76E98f575E5B6382ff3Bc9E988F9920984F2A576) */\n    tag_29:\n      callvalue\n      dup1\n      iszero\n      tag_172\n      jumpi\n      0x00\n      dup1\n      revert\n    tag_172:\n      pop\n      sload(0x08)\n      tag_129\n      swap1\n      sub(shl(0xa0, 0x01), 0x01)\n      and\n      dup2\n      jump\n        /* \"contracts/1minuteAnon.sol\":4328:4364  IUniswapV2Router02 public swapRouter */\n    tag_30:\n      callvalue\n      dup1\n      iszero\n      tag_177\n      jumpi\n      0x00\n      dup1\n      revert\n    tag_177:\n      pop\n      sload(0x13)\n      tag_129\n      swap1\n      0x0100\n      swap1\n      div\n      sub(shl(0xa0, 0x01), 0x01)\n      and\n      dup2\n      jump\n        /* \"contracts/1minuteAnon.sol\":3658:3684  address public uniswapPair */\n    tag_31:\n      callvalue\n      dup1\n      iszero\n      tag_181\n      jumpi\n      0x00\n      dup1\n      revert\n    tag_181:\n      pop\n      sload(0x0b)\n      tag_129\n      swap1\n      sub(shl(0xa0, 0x01), 0x01)\n      and\n      dup2\n      jump\n        /* \"contracts/1minuteAnon.sol\":4087:4132  mapping(address => uint256) public timeStamps */\n    tag_32:\n      callvalue\n      dup1\n      iszero\n      tag_185\n      jumpi\n      0x00\n      dup1\n      revert\n    tag_185:\n      pop\n      tag_64\n      tag_187\n      calldatasize\n      0x04\n      tag_75\n      jump\t// in\n    tag_187:\n      mstore(0x20, 0x0f)\n      0x00\n      swap1\n      dup2\n      mstore\n      0x40\n      swap1\n      keccak256\n      sload\n      dup2\n      jump\n        /* \"contracts/1minuteAnon.sol\":6431:6525  function totalBurned() external view returns (uint256) {... */\n    tag_33:\n      callvalue\n      dup1\n      iszero\n      tag_190\n      jumpi\n      0x00\n      dup1\n      revert\n    tag_190:\n      pop\n        /* \"contracts/1minuteAnon.sol\":2973:3015  0x000000000000000000000000000000000000dEaD */\n      0xdead\n        /* \"contracts/1minuteAnon.sol\":6477:6484  uint256 */\n      0x00\n        /* \"@openzeppelin/contracts/token/ERC20/ERC20.sol\":3519:3537  _balances[account] */\n      swap1\n      dup2\n      mstore\n      0x20\n      mstore\n      sload(0x44ad89ba62b98ff34f51403ac22759b55759460c0bb5521eb4b6ee3cff49cf83)\n        /* \"contracts/1minuteAnon.sol\":6431:6525  function totalBurned() external view returns (uint256) {... */\n      tag_64\n        /* \"contracts/1minuteAnon.sol\":6535:6650  function circulatingSupply() external view returns (uint256) {... */\n      jump\n        /* \"contracts/1minuteAnon.sol\":2688:2734  uint256 constant public fee_denominator = 1_00 */\n    tag_34:\n      callvalue\n      dup1\n      iszero\n      tag_194\n      jumpi\n      0x00\n      dup1\n      revert\n    tag_194:\n      pop\n      tag_64\n        /* \"contracts/1minuteAnon.sol\":2730:2734  1_00 */\n      0x64\n        /* \"contracts/1minuteAnon.sol\":2688:2734  uint256 constant public fee_denominator = 1_00 */\n      dup2\n      jump\n        /* \"@openzeppelin/contracts/token/ERC20/ERC20.sol\":3987:4136  function allowance(address owner, address spender) public view virtual override returns (uint256) {... */\n    tag_35:\n      callvalue\n      dup1\n      iszero\n      tag_198\n      jumpi\n      0x00\n      dup1\n      revert\n    tag_198:\n      pop\n      tag_64\n      tag_200\n      calldatasize\n      0x04\n      tag_201\n      jump\t// in\n    tag_200:\n      tag_202\n      jump\t// in\n        /* \"contracts/1minuteAnon.sol\":5626:6161  function setNewRouter(address _newRouterAddress) external onlyOwner {... */\n    tag_37:\n      callvalue\n      dup1\n      iszero\n      tag_208\n      jumpi\n      0x00\n      dup1\n      revert\n    tag_208:\n      pop\n      tag_73\n      tag_210\n      calldatasize\n      0x04\n      tag_75\n      jump\t// in\n    tag_210:\n      tag_211\n      jump\t// in\n        /* \"@openzeppelin/contracts/access/Ownable.sol\":2074:2272  function transferOwnership(address newOwner) public virtual onlyOwner {... */\n    tag_38:\n      callvalue\n      dup1\n      iszero\n      tag_212\n      jumpi\n      0x00\n      dup1\n      revert\n    tag_212:\n      pop\n      tag_73\n      tag_214\n      calldatasize\n      0x04\n      tag_75\n      jump\t// in\n    tag_214:\n      tag_215\n      jump\t// in\n        /* \"contracts/1minuteAnon.sol\":6169:6291  function excludeFromLockPeriod(address _address) external onlyOwner {... */\n    tag_39:\n      callvalue\n      dup1\n      iszero\n      tag_216\n      jumpi\n      0x00\n      dup1\n      revert\n    tag_216:\n      pop\n      tag_73\n      tag_218\n      calldatasize\n      0x04\n      tag_75\n      jump\t// in\n    tag_218:\n      tag_219\n      jump\t// in\n        /* \"@openzeppelin/contracts/token/ERC20/ERC20.sol\":2158:2256  function name() public view virtual override returns (string memory) {... */\n    tag_53:\n        /* \"@openzeppelin/contracts/token/ERC20/ERC20.sol\":2212:2225  string memory */\n      0x60\n        /* \"@openzeppelin/contracts/token/ERC20/ERC20.sol\":2244:2249  _name */\n      0x03\n        /* \"@openzeppelin/contracts/token/ERC20/ERC20.sol\":2237:2249  return _name */\n      dup1\n      sload\n      tag_221\n      swap1\n      tag_222\n      jump\t// in\n    tag_221:\n      dup1\n      0x1f\n      add\n      0x20\n      dup1\n      swap2\n      div\n      mul\n      0x20\n      add\n      mload(0x40)\n      swap1\n      dup2\n      add\n      0x40\n      mstore\n      dup1\n      swap3\n      swap2\n      swap1\n      dup2\n      dup2\n      mstore\n      0x20\n      add\n      dup3\n      dup1\n      sload\n      tag_223\n      swap1\n      tag_222\n      jump\t// in\n    tag_223:\n      dup1\n      iszero\n      tag_224\n      jumpi\n      dup1\n      0x1f\n      lt\n      tag_225\n      jumpi\n      0x0100\n      dup1\n      dup4\n      sload\n      div\n      mul\n      dup4\n      mstore\n      swap2\n      0x20\n      add\n      swap2\n      jump(tag_224)\n    tag_225:\n      dup3\n      add\n      swap2\n      swap1\n      0x00\n      mstore\n      keccak256(0x00, 0x20)\n      swap1\n    tag_226:\n      dup2\n      sload\n      dup2\n      mstore\n      swap1\n      0x01\n      add\n      swap1\n      0x20\n      add\n      dup1\n      dup4\n      gt\n      tag_226\n      jumpi\n      dup3\n      swap1\n      sub\n      0x1f\n      and\n      dup3\n      add\n      swap2\n    tag_224:\n      pop\n      pop\n      pop\n      pop\n      pop\n      swap1\n      pop\n        /* \"@openzeppelin/contracts/token/ERC20/ERC20.sol\":2158:2256  function name() public view virtual override returns (string memory) {... */\n      swap1\n      jump\t// out\n        /* \"@openzeppelin/contracts/token/ERC20/ERC20.sol\":4444:4641  function approve(address spender, uint256 amount) public virtual override returns (bool) {... */\n    tag_60:\n        /* \"@openzeppelin/contracts/token/ERC20/ERC20.sol\":4527:4531  bool */\n      0x00\n        /* \"@openzeppelin/contracts/utils/Context.sol\":719:729  msg.sender */\n      caller\n        /* \"@openzeppelin/contracts/token/ERC20/ERC20.sol\":4581:4613  _approve(owner, spender, amount) */\n      tag_230\n        /* \"@openzeppelin/contracts/utils/Context.sol\":719:729  msg.sender */\n      dup2\n        /* \"@openzeppelin/contracts/token/ERC20/ERC20.sol\":4597:4604  spender */\n      dup6\n        /* \"@openzeppelin/contracts/token/ERC20/ERC20.sol\":4606:4612  amount */\n      dup6\n        /* \"@openzeppelin/contracts/token/ERC20/ERC20.sol\":4581:4589  _approve */\n      tag_231\n        /* \"@openzeppelin/contracts/token/ERC20/ERC20.sol\":4581:4613  _approve(owner, spender, amount) */\n      jump\t// in\n    tag_230:\n      pop\n        /* \"@openzeppelin/contracts/token/ERC20/ERC20.sol\":4630:4634  true */\n      0x01\n      swap4\n        /* \"@openzeppelin/contracts/token/ERC20/ERC20.sol\":4444:4641  function approve(address spender, uint256 amount) public virtual override returns (bool) {... */\n      swap3\n      pop\n      pop\n      pop\n      jump\t// out\n        /* \"contracts/1minuteAnon.sol\":6302:6421  function includeInTimeLock(address _address) external onlyOwner {... */\n    tag_76:\n        /* \"@openzeppelin/contracts/access/Ownable.sol\":1094:1107  _checkOwner() */\n      tag_234\n        /* \"@openzeppelin/contracts/access/Ownable.sol\":1094:1105  _checkOwner */\n      tag_235\n        /* \"@openzeppelin/contracts/access/Ownable.sol\":1094:1107  _checkOwner() */\n      jump\t// in\n    tag_234:\n      sub(shl(0xa0, 0x01), 0x01)\n        /* \"contracts/1minuteAnon.sol\":6373:6405  excludedFromLockPeriod[_address] */\n      and\n        /* \"contracts/1minuteAnon.sol\":6408:6413  false */\n      0x00\n        /* \"contracts/1minuteAnon.sol\":6373:6405  excludedFromLockPeriod[_address] */\n      swap1\n      dup2\n      mstore\n        /* \"contracts/1minuteAnon.sol\":6373:6395  excludedFromLockPeriod */\n      0x10\n        /* \"contracts/1minuteAnon.sol\":6373:6405  excludedFromLockPeriod[_address] */\n      0x20\n      mstore\n      0x40\n      swap1\n      keccak256\n        /* \"contracts/1minuteAnon.sol\":6373:6413  excludedFromLockPeriod[_address] = false */\n      dup1\n      sload\n      not(0xff)\n      and\n      swap1\n      sstore\n        /* \"contracts/1minuteAnon.sol\":6302:6421  function includeInTimeLock(address _address) external onlyOwner {... */\n      jump\t// out\n        /* \"contracts/1minuteAnon.sol\":8455:8843  function transferFrom(address sender, address recipient, uint256 amount) public override returns (bool) {... */\n    tag_81:\n        /* \"contracts/1minuteAnon.sol\":8553:8557  bool */\n      0x00\n        /* \"contracts/1minuteAnon.sol\":8566:8602  _transfer(sender, recipient, amount) */\n      tag_238\n        /* \"contracts/1minuteAnon.sol\":8576:8582  sender */\n      dup5\n        /* \"contracts/1minuteAnon.sol\":8584:8593  recipient */\n      dup5\n        /* \"contracts/1minuteAnon.sol\":8595:8601  amount */\n      dup5\n        /* \"contracts/1minuteAnon.sol\":8566:8575  _transfer */\n      tag_239\n        /* \"contracts/1minuteAnon.sol\":8566:8602  _transfer(sender, recipient, amount) */\n      jump\t// in\n    tag_238:\n        /* \"contracts/1minuteAnon.sol\":8609:8633  uint256 currentAllowance */\n      0x00\n        /* \"contracts/1minuteAnon.sol\":8636:8667  allowance(sender, _msgSender()) */\n      tag_240\n        /* \"contracts/1minuteAnon.sol\":8646:8652  sender */\n      dup6\n        /* \"@openzeppelin/contracts/utils/Context.sol\":719:729  msg.sender */\n      caller\n        /* \"@openzeppelin/contracts/token/ERC20/ERC20.sol\":3987:4136  function allowance(address owner, address spender) public view virtual override returns (uint256) {... */\n      tag_202\n      jump\t// in\n        /* \"contracts/1minuteAnon.sol\":8636:8667  allowance(sender, _msgSender()) */\n    tag_240:\n        /* \"contracts/1minuteAnon.sol\":8609:8667  uint256 currentAllowance = allowance(sender, _msgSender()) */\n      swap1\n      pop\n        /* \"contracts/1minuteAnon.sol\":8702:8708  amount */\n      dup3\n        /* \"contracts/1minuteAnon.sol\":8682:8698  currentAllowance */\n      dup2\n        /* \"contracts/1minuteAnon.sol\":8682:8708  currentAllowance >= amount */\n      lt\n      iszero\n        /* \"contracts/1minuteAnon.sol\":8674:8753  require(currentAllowance >= amount, \"ERC20: transfer amount exceeds allowance\") */\n      tag_242\n      jumpi\n      mload(0x40)\n      shl(0xe5, 0x461bcd)\n      dup2\n      mstore\n        /* \"#utility.yul\":4585:4587   */\n      0x20\n        /* \"contracts/1minuteAnon.sol\":8674:8753  require(currentAllowance >= amount, \"ERC20: transfer amount exceeds allowance\") */\n      0x04\n      dup3\n      add\n        /* \"#utility.yul\":4567:4588   */\n      mstore\n        /* \"#utility.yul\":4624:4626   */\n      0x28\n        /* \"#utility.yul\":4604:4622   */\n      0x24\n      dup3\n      add\n        /* \"#utility.yul\":4597:4627   */\n      mstore\n        /* \"#utility.yul\":4663:4697   */\n      0x45524332303a207472616e7366657220616d6f756e7420657863656564732061\n        /* \"#utility.yul\":4643:4661   */\n      0x44\n      dup3\n      add\n        /* \"#utility.yul\":4636:4698   */\n      mstore\n      shl(0xc0, 0x6c6c6f77616e6365)\n        /* \"#utility.yul\":4714:4732   */\n      0x64\n      dup3\n      add\n        /* \"#utility.yul\":4707:4745   */\n      mstore\n        /* \"#utility.yul\":4762:4781   */\n      0x84\n      add\n        /* \"contracts/1minuteAnon.sol\":8674:8753  require(currentAllowance >= amount, \"ERC20: transfer amount exceeds allowance\") */\n      tag_49\n        /* \"#utility.yul\":4383:4787   */\n      jump\n        /* \"contracts/1minuteAnon.sol\":8674:8753  require(currentAllowance >= amount, \"ERC20: transfer amount exceeds allowance\") */\n    tag_242:\n        /* \"contracts/1minuteAnon.sol\":8760:8817  _approve(sender, _msgSender(), currentAllowance - amount) */\n      tag_245\n        /* \"contracts/1minuteAnon.sol\":8769:8775  sender */\n      dup6\n        /* \"@openzeppelin/contracts/utils/Context.sol\":719:729  msg.sender */\n      caller\n        /* \"contracts/1minuteAnon.sol\":8791:8816  currentAllowance - amount */\n      tag_247\n        /* \"contracts/1minuteAnon.sol\":8810:8816  amount */\n      dup7\n        /* \"contracts/1minuteAnon.sol\":8791:8807  currentAllowance */\n      dup6\n        /* \"contracts/1minuteAnon.sol\":8791:8816  currentAllowance - amount */\n      tag_248\n      jump\t// in\n    tag_247:\n        /* \"contracts/1minuteAnon.sol\":8760:8768  _approve */\n      tag_231\n        /* \"contracts/1minuteAnon.sol\":8760:8817  _approve(sender, _msgSender(), currentAllowance - amount) */\n      jump\t// in\n    tag_245:\n      pop\n        /* \"contracts/1minuteAnon.sol\":8831:8835  true */\n      0x01\n      swap5\n        /* \"contracts/1minuteAnon.sol\":8455:8843  function transferFrom(address sender, address recipient, uint256 amount) public override returns (bool) {... */\n      swap4\n      pop\n      pop\n      pop\n      pop\n      jump\t// out\n        /* \"@openzeppelin/contracts/token/ERC20/ERC20.sol\":5854:6088  function increaseAllowance(address spender, uint256 addedValue) public virtual returns (bool) {... */\n    tag_96:\n        /* \"@openzeppelin/contracts/token/ERC20/ERC20.sol\":5942:5946  bool */\n      0x00\n        /* \"@openzeppelin/contracts/utils/Context.sol\":719:729  msg.sender */\n      caller\n        /* \"@openzeppelin/contracts/token/ERC20/ERC20.sol\":5996:6060  _approve(owner, spender, allowance(owner, spender) + addedValue) */\n      tag_230\n        /* \"@openzeppelin/contracts/utils/Context.sol\":719:729  msg.sender */\n      dup2\n        /* \"@openzeppelin/contracts/token/ERC20/ERC20.sol\":6012:6019  spender */\n      dup6\n        /* \"@openzeppelin/contracts/token/ERC20/ERC20.sol\":6049:6059  addedValue */\n      dup6\n        /* \"@openzeppelin/contracts/token/ERC20/ERC20.sol\":6021:6046  allowance(owner, spender) */\n      tag_253\n        /* \"@openzeppelin/contracts/utils/Context.sol\":719:729  msg.sender */\n      dup4\n        /* \"@openzeppelin/contracts/token/ERC20/ERC20.sol\":6012:6019  spender */\n      dup4\n        /* \"@openzeppelin/contracts/token/ERC20/ERC20.sol\":6021:6030  allowance */\n      tag_202\n        /* \"@openzeppelin/contracts/token/ERC20/ERC20.sol\":6021:6046  allowance(owner, spender) */\n      jump\t// in\n    tag_253:\n        /* \"@openzeppelin/contracts/token/ERC20/ERC20.sol\":6021:6059  allowance(owner, spender) + addedValue */\n      tag_247\n      swap2\n      swap1\n      tag_255\n      jump\t// in\n        /* \"contracts/1minuteAnon.sol\":8148:8231  function burn(uint256 amount) external {... */\n    tag_106:\n        /* \"contracts/1minuteAnon.sol\":8198:8223  _burn(msg.sender, amount) */\n      tag_257\n        /* \"contracts/1minuteAnon.sol\":8204:8214  msg.sender */\n      caller\n        /* \"contracts/1minuteAnon.sol\":8216:8222  amount */\n      dup3\n        /* \"contracts/1minuteAnon.sol\":8198:8203  _burn */\n      tag_258\n        /* \"contracts/1minuteAnon.sol\":8198:8223  _burn(msg.sender, amount) */\n      jump\t// in\n    tag_257:\n        /* \"contracts/1minuteAnon.sol\":8148:8231  function burn(uint256 amount) external {... */\n      pop\n      jump\t// out\n        /* \"contracts/1minuteAnon.sol\":2286:2423  function renounceOwnership() public onlyOwner override  {... */\n    tag_127:\n        /* \"@openzeppelin/contracts/access/Ownable.sol\":1094:1107  _checkOwner() */\n      tag_261\n        /* \"@openzeppelin/contracts/access/Ownable.sol\":1094:1105  _checkOwner */\n      tag_235\n        /* \"@openzeppelin/contracts/access/Ownable.sol\":1094:1107  _checkOwner() */\n      jump\t// in\n    tag_261:\n        /* \"@openzeppelin/contracts/access/Ownable.sol\":1273:1279  _owner */\n      sload(0x05)\n        /* \"contracts/1minuteAnon.sol\":2358:2385  OwnershipRenounced(owner()) */\n      mload(0x40)\n      sub(shl(0xa0, 0x01), 0x01)\n        /* \"@openzeppelin/contracts/access/Ownable.sol\":1273:1279  _owner */\n      swap1\n      swap2\n      and\n      swap1\n        /* \"contracts/1minuteAnon.sol\":2358:2385  OwnershipRenounced(owner()) */\n      0xf8df31144d9c2f0f6b59d69b8b98abd5459d07f2742c4df920b25aae33c64820\n      swap1\n      0x00\n      swap1\n      log2\n        /* \"contracts/1minuteAnon.sol\":2396:2402  _owner */\n      0x06\n        /* \"contracts/1minuteAnon.sol\":2396:2415  _owner = address(0) */\n      dup1\n      sload\n      not(sub(shl(0xa0, 0x01), 0x01))\n      and\n      swap1\n      sstore\n        /* \"contracts/1minuteAnon.sol\":2286:2423  function renounceOwnership() public onlyOwner override  {... */\n      jump\t// out\n        /* \"contracts/1minuteAnon.sol\":8004:8140  function rescueERC20(address tokenAdd, uint256 amount) external onlyOwner {... */\n    tag_136:\n        /* \"@openzeppelin/contracts/access/Ownable.sol\":1094:1107  _checkOwner() */\n      tag_265\n        /* \"@openzeppelin/contracts/access/Ownable.sol\":1094:1105  _checkOwner */\n      tag_235\n        /* \"@openzeppelin/contracts/access/Ownable.sol\":1094:1107  _checkOwner() */\n      jump\t// in\n    tag_265:\n        /* \"contracts/1minuteAnon.sol\":8115:8123  BBWallet */\n      sload(0x08)\n        /* \"contracts/1minuteAnon.sol\":8089:8132  IERC20(tokenAdd).transfer(BBWallet, amount) */\n      mload(0x40)\n      shl(0xe0, 0xa9059cbb)\n      dup2\n      mstore\n      sub(shl(0xa0, 0x01), 0x01)\n        /* \"contracts/1minuteAnon.sol\":8115:8123  BBWallet */\n      swap2\n      dup3\n      and\n        /* \"contracts/1minuteAnon.sol\":8089:8132  IERC20(tokenAdd).transfer(BBWallet, amount) */\n      0x04\n      dup3\n      add\n        /* \"#utility.yul\":5369:5420   */\n      mstore\n        /* \"#utility.yul\":5436:5454   */\n      0x24\n      dup2\n      add\n        /* \"#utility.yul\":5429:5463   */\n      dup4\n      swap1\n      mstore\n        /* \"contracts/1minuteAnon.sol\":8089:8114  IERC20(tokenAdd).transfer */\n      swap1\n      dup4\n      and\n      swap1\n      0xa9059cbb\n      swap1\n        /* \"#utility.yul\":5342:5360   */\n      0x44\n      add\n        /* \"contracts/1minuteAnon.sol\":8089:8132  IERC20(tokenAdd).transfer(BBWallet, amount) */\n      0x20\n      mload(0x40)\n      dup1\n      dup4\n      sub\n      dup2\n      0x00\n      dup8\n      gas\n      call\n      iszero\n      dup1\n      iszero\n      tag_270\n      jumpi\n      returndatasize\n      0x00\n      dup1\n      returndatacopy\n      revert(0x00, returndatasize)\n    tag_270:\n      pop\n      pop\n      pop\n      pop\n      mload(0x40)\n      returndatasize\n      not(0x1f)\n      0x1f\n      dup3\n      add\n      and\n      dup3\n      add\n      dup1\n      0x40\n      mstore\n      pop\n      dup2\n      add\n      swap1\n      tag_271\n      swap2\n      swap1\n      tag_272\n      jump\t// in\n    tag_271:\n      pop\n        /* \"contracts/1minuteAnon.sol\":8004:8140  function rescueERC20(address tokenAdd, uint256 amount) external onlyOwner {... */\n      pop\n      pop\n      jump\t// out\n        /* \"contracts/1minuteAnon.sol\":6535:6650  function circulatingSupply() external view returns (uint256) {... */\n    tag_144:\n        /* \"contracts/1minuteAnon.sol\":2973:3015  0x000000000000000000000000000000000000dEaD */\n      0xdead\n        /* \"contracts/1minuteAnon.sol\":6587:6594  uint256 */\n      0x00\n        /* \"@openzeppelin/contracts/token/ERC20/ERC20.sol\":3519:3537  _balances[account] */\n      swap1\n      dup2\n      mstore\n      0x20\n      dup2\n      swap1\n      mstore\n      sload(0x44ad89ba62b98ff34f51403ac22759b55759460c0bb5521eb4b6ee3cff49cf83)\n        /* \"contracts/1minuteAnon.sol\":6608:6645  TOTAL_SUPPLY - balanceOf(DEAD_WALLET) */\n      tag_276\n      swap1\n        /* \"contracts/1minuteAnon.sol\":2473:2499  1_111_111_111_111 * 10**18 */\n      0x0e063191caf768f40cc2bc0000\n        /* \"contracts/1minuteAnon.sol\":6608:6645  TOTAL_SUPPLY - balanceOf(DEAD_WALLET) */\n      tag_248\n      jump\t// in\n    tag_276:\n        /* \"contracts/1minuteAnon.sol\":6601:6645  return TOTAL_SUPPLY - balanceOf(DEAD_WALLET) */\n      swap1\n      pop\n        /* \"contracts/1minuteAnon.sol\":6535:6650  function circulatingSupply() external view returns (uint256) {... */\n      swap1\n      jump\t// out\n        /* \"@openzeppelin/contracts/token/ERC20/ERC20.sol\":2369:2471  function symbol() public view virtual override returns (string memory) {... */\n    tag_148:\n        /* \"@openzeppelin/contracts/token/ERC20/ERC20.sol\":2425:2438  string memory */\n      0x60\n        /* \"@openzeppelin/contracts/token/ERC20/ERC20.sol\":2457:2464  _symbol */\n      0x04\n        /* \"@openzeppelin/contracts/token/ERC20/ERC20.sol\":2450:2464  return _symbol */\n      dup1\n      sload\n      tag_221\n      swap1\n      tag_222\n      jump\t// in\n        /* \"@openzeppelin/contracts/token/ERC20/ERC20.sol\":6575:7002  function decreaseAllowance(address spender, uint256 subtractedValue) public virtual returns (bool) {... */\n    tag_161:\n        /* \"@openzeppelin/contracts/token/ERC20/ERC20.sol\":6668:6672  bool */\n      0x00\n        /* \"@openzeppelin/contracts/utils/Context.sol\":719:729  msg.sender */\n      caller\n        /* \"@openzeppelin/contracts/token/ERC20/ERC20.sol\":6668:6672  bool */\n      dup2\n        /* \"@openzeppelin/contracts/token/ERC20/ERC20.sol\":6749:6774  allowance(owner, spender) */\n      tag_285\n        /* \"@openzeppelin/contracts/utils/Context.sol\":719:729  msg.sender */\n      dup3\n        /* \"@openzeppelin/contracts/token/ERC20/ERC20.sol\":6766:6773  spender */\n      dup7\n        /* \"@openzeppelin/contracts/token/ERC20/ERC20.sol\":6749:6758  allowance */\n      tag_202\n        /* \"@openzeppelin/contracts/token/ERC20/ERC20.sol\":6749:6774  allowance(owner, spender) */\n      jump\t// in\n    tag_285:\n        /* \"@openzeppelin/contracts/token/ERC20/ERC20.sol\":6722:6774  uint256 currentAllowance = allowance(owner, spender) */\n      swap1\n      pop\n        /* \"@openzeppelin/contracts/token/ERC20/ERC20.sol\":6812:6827  subtractedValue */\n      dup4\n        /* \"@openzeppelin/contracts/token/ERC20/ERC20.sol\":6792:6808  currentAllowance */\n      dup2\n        /* \"@openzeppelin/contracts/token/ERC20/ERC20.sol\":6792:6827  currentAllowance >= subtractedValue */\n      lt\n      iszero\n        /* \"@openzeppelin/contracts/token/ERC20/ERC20.sol\":6784:6869  require(currentAllowance >= subtractedValue, \"ERC20: decreased allowance below zero\") */\n      tag_286\n      jumpi\n      mload(0x40)\n      shl(0xe5, 0x461bcd)\n      dup2\n      mstore\n        /* \"#utility.yul\":5958:5960   */\n      0x20\n        /* \"@openzeppelin/contracts/token/ERC20/ERC20.sol\":6784:6869  require(currentAllowance >= subtractedValue, \"ERC20: decreased allowance below zero\") */\n      0x04\n      dup3\n      add\n        /* \"#utility.yul\":5940:5961   */\n      mstore\n        /* \"#utility.yul\":5997:5999   */\n      0x25\n        /* \"#utility.yul\":5977:5995   */\n      0x24\n      dup3\n      add\n        /* \"#utility.yul\":5970:6000   */\n      mstore\n        /* \"#utility.yul\":6036:6070   */\n      0x45524332303a2064656372656173656420616c6c6f77616e63652062656c6f77\n        /* \"#utility.yul\":6016:6034   */\n      0x44\n      dup3\n      add\n        /* \"#utility.yul\":6009:6071   */\n      mstore\n      shl(0xd8, 0x207a65726f)\n        /* \"#utility.yul\":6087:6105   */\n      0x64\n      dup3\n      add\n        /* \"#utility.yul\":6080:6115   */\n      mstore\n        /* \"#utility.yul\":6132:6151   */\n      0x84\n      add\n        /* \"@openzeppelin/contracts/token/ERC20/ERC20.sol\":6784:6869  require(currentAllowance >= subtractedValue, \"ERC20: decreased allowance below zero\") */\n      tag_49\n        /* \"#utility.yul\":5756:6157   */\n      jump\n        /* \"@openzeppelin/contracts/token/ERC20/ERC20.sol\":6784:6869  require(currentAllowance >= subtractedValue, \"ERC20: decreased allowance below zero\") */\n    tag_286:\n        /* \"@openzeppelin/contracts/token/ERC20/ERC20.sol\":6903:6963  _approve(owner, spender, currentAllowance - subtractedValue) */\n      tag_245\n        /* \"@openzeppelin/contracts/token/ERC20/ERC20.sol\":6912:6917  owner */\n      dup3\n        /* \"@openzeppelin/contracts/token/ERC20/ERC20.sol\":6919:6926  spender */\n      dup7\n        /* \"@openzeppelin/contracts/token/ERC20/ERC20.sol\":6947:6962  subtractedValue */\n      dup7\n        /* \"@openzeppelin/contracts/token/ERC20/ERC20.sol\":6928:6944  currentAllowance */\n      dup5\n        /* \"@openzeppelin/contracts/token/ERC20/ERC20.sol\":6928:6962  currentAllowance - subtractedValue */\n      sub\n        /* \"@openzeppelin/contracts/token/ERC20/ERC20.sol\":6903:6911  _approve */\n      tag_231\n        /* \"@openzeppelin/contracts/token/ERC20/ERC20.sol\":6903:6963  _approve(owner, spender, currentAllowance - subtractedValue) */\n      jump\t// in\n        /* \"contracts/1minuteAnon.sol\":8245:8447  function transfer(address recipient, uint256 amount) public override onlyWallets returns (bool) {... */\n    tag_166:\n        /* \"contracts/1minuteAnon.sol\":8335:8339  bool */\n      0x00\n        /* \"contracts/1minuteAnon.sol\":3237:3247  msg.sender */\n      caller\n        /* \"contracts/1minuteAnon.sol\":3486:3504  extcodesize(_addr) */\n      extcodesize\n        /* \"contracts/1minuteAnon.sol\":3524:3532  size > 0 */\n      iszero\n      dup1\n        /* \"contracts/1minuteAnon.sol\":3225:3286  !isContract(msg.sender) || msg.sender == uniswapRouterAddress */\n      tag_293\n      jumpi\n      pop\n        /* \"contracts/1minuteAnon.sol\":3266:3286  uniswapRouterAddress */\n      and(sub(shl(0xa0, 0x01), 0x01), sload(0x0d))\n        /* \"contracts/1minuteAnon.sol\":3252:3262  msg.sender */\n      caller\n        /* \"contracts/1minuteAnon.sol\":3252:3286  msg.sender == uniswapRouterAddress */\n      eq\n        /* \"contracts/1minuteAnon.sol\":3225:3286  !isContract(msg.sender) || msg.sender == uniswapRouterAddress */\n    tag_293:\n        /* \"contracts/1minuteAnon.sol\":3225:3315  !isContract(msg.sender) || msg.sender == uniswapRouterAddress || msg.sender == uniswapPair */\n      dup1\n      tag_294\n      jumpi\n      pop\n        /* \"contracts/1minuteAnon.sol\":3304:3315  uniswapPair */\n      and(sub(shl(0xa0, 0x01), 0x01), sload(0x0b))\n        /* \"contracts/1minuteAnon.sol\":3290:3300  msg.sender */\n      caller\n        /* \"contracts/1minuteAnon.sol\":3290:3315  msg.sender == uniswapPair */\n      eq\n        /* \"contracts/1minuteAnon.sol\":3225:3315  !isContract(msg.sender) || msg.sender == uniswapRouterAddress || msg.sender == uniswapPair */\n    tag_294:\n        /* \"contracts/1minuteAnon.sol\":3217:3348  require(!isContract(msg.sender) || msg.sender == uniswapRouterAddress || msg.sender == uniswapPair, \"Bots are not allowed to sell\") */\n      tag_295\n      jumpi\n      mload(0x40)\n      shl(0xe5, 0x461bcd)\n      dup2\n      mstore\n        /* \"#utility.yul\":6364:6366   */\n      0x20\n        /* \"contracts/1minuteAnon.sol\":3217:3348  require(!isContract(msg.sender) || msg.sender == uniswapRouterAddress || msg.sender == uniswapPair, \"Bots are not allowed to sell\") */\n      0x04\n      dup3\n      add\n        /* \"#utility.yul\":6346:6367   */\n      mstore\n        /* \"#utility.yul\":6403:6405   */\n      0x1c\n        /* \"#utility.yul\":6383:6401   */\n      0x24\n      dup3\n      add\n        /* \"#utility.yul\":6376:6406   */\n      mstore\n        /* \"#utility.yul\":6442:6472   */\n      0x426f747320617265206e6f7420616c6c6f77656420746f2073656c6c00000000\n        /* \"#utility.yul\":6422:6440   */\n      0x44\n      dup3\n      add\n        /* \"#utility.yul\":6415:6473   */\n      mstore\n        /* \"#utility.yul\":6490:6508   */\n      0x64\n      add\n        /* \"contracts/1minuteAnon.sol\":3217:3348  require(!isContract(msg.sender) || msg.sender == uniswapRouterAddress || msg.sender == uniswapPair, \"Bots are not allowed to sell\") */\n      tag_49\n        /* \"#utility.yul\":6162:6514   */\n      jump\n        /* \"contracts/1minuteAnon.sol\":3217:3348  require(!isContract(msg.sender) || msg.sender == uniswapRouterAddress || msg.sender == uniswapPair, \"Bots are not allowed to sell\") */\n    tag_295:\n        /* \"@openzeppelin/contracts/utils/Context.sol\":719:729  msg.sender */\n      caller\n        /* \"contracts/1minuteAnon.sol\":8384:8420  _transfer(sender, recipient, amount) */\n      tag_230\n        /* \"@openzeppelin/contracts/utils/Context.sol\":719:729  msg.sender */\n      dup2\n        /* \"contracts/1minuteAnon.sol\":8402:8411  recipient */\n      dup6\n        /* \"contracts/1minuteAnon.sol\":8413:8419  amount */\n      dup6\n        /* \"contracts/1minuteAnon.sol\":8384:8393  _transfer */\n      tag_239\n        /* \"contracts/1minuteAnon.sol\":8384:8420  _transfer(sender, recipient, amount) */\n      jump\t// in\n        /* \"@openzeppelin/contracts/token/ERC20/ERC20.sol\":3987:4136  function allowance(address owner, address spender) public view virtual override returns (uint256) {... */\n    tag_202:\n      sub(shl(0xa0, 0x01), 0x01)\n        /* \"@openzeppelin/contracts/token/ERC20/ERC20.sol\":4102:4120  _allowances[owner] */\n      swap2\n      dup3\n      and\n        /* \"@openzeppelin/contracts/token/ERC20/ERC20.sol\":4076:4083  uint256 */\n      0x00\n        /* \"@openzeppelin/contracts/token/ERC20/ERC20.sol\":4102:4120  _allowances[owner] */\n      swap1\n      dup2\n      mstore\n        /* \"@openzeppelin/contracts/token/ERC20/ERC20.sol\":4102:4113  _allowances */\n      0x01\n        /* \"@openzeppelin/contracts/token/ERC20/ERC20.sol\":4102:4120  _allowances[owner] */\n      0x20\n      swap1\n      dup2\n      mstore\n      0x40\n      dup1\n      dup4\n      keccak256\n        /* \"@openzeppelin/contracts/token/ERC20/ERC20.sol\":4102:4129  _allowances[owner][spender] */\n      swap4\n      swap1\n      swap5\n      and\n      dup3\n      mstore\n      swap2\n      swap1\n      swap2\n      mstore\n      keccak256\n      sload\n      swap1\n        /* \"@openzeppelin/contracts/token/ERC20/ERC20.sol\":3987:4136  function allowance(address owner, address spender) public view virtual override returns (uint256) {... */\n      jump\t// out\n        /* \"contracts/1minuteAnon.sol\":5626:6161  function setNewRouter(address _newRouterAddress) external onlyOwner {... */\n    tag_211:\n        /* \"@openzeppelin/contracts/access/Ownable.sol\":1094:1107  _checkOwner() */\n      tag_305\n        /* \"@openzeppelin/contracts/access/Ownable.sol\":1094:1105  _checkOwner */\n      tag_235\n        /* \"@openzeppelin/contracts/access/Ownable.sol\":1094:1107  _checkOwner() */\n      jump\t// in\n    tag_305:\n      sub(shl(0xa0, 0x01), 0x01)\n        /* \"contracts/1minuteAnon.sol\":5709:5740  _newRouterAddress != address(0) */\n      dup2\n      and\n        /* \"contracts/1minuteAnon.sol\":5701:5790  require(_newRouterAddress != address(0), \"New router address cannot be the zero address\") */\n      tag_307\n      jumpi\n      mload(0x40)\n      shl(0xe5, 0x461bcd)\n      dup2\n      mstore\n        /* \"#utility.yul\":6721:6723   */\n      0x20\n        /* \"contracts/1minuteAnon.sol\":5701:5790  require(_newRouterAddress != address(0), \"New router address cannot be the zero address\") */\n      0x04\n      dup3\n      add\n        /* \"#utility.yul\":6703:6724   */\n      mstore\n        /* \"#utility.yul\":6760:6762   */\n      0x2d\n        /* \"#utility.yul\":6740:6758   */\n      0x24\n      dup3\n      add\n        /* \"#utility.yul\":6733:6763   */\n      mstore\n        /* \"#utility.yul\":6799:6833   */\n      0x4e657720726f7574657220616464726573732063616e6e6f7420626520746865\n        /* \"#utility.yul\":6779:6797   */\n      0x44\n      dup3\n      add\n        /* \"#utility.yul\":6772:6834   */\n      mstore\n      shl(0x98, 0x207a65726f2061646472657373)\n        /* \"#utility.yul\":6850:6868   */\n      0x64\n      dup3\n      add\n        /* \"#utility.yul\":6843:6886   */\n      mstore\n        /* \"#utility.yul\":6903:6922   */\n      0x84\n      add\n        /* \"contracts/1minuteAnon.sol\":5701:5790  require(_newRouterAddress != address(0), \"New router address cannot be the zero address\") */\n      tag_49\n        /* \"#utility.yul\":6519:6928   */\n      jump\n        /* \"contracts/1minuteAnon.sol\":5701:5790  require(_newRouterAddress != address(0), \"New router address cannot be the zero address\") */\n    tag_307:\n        /* \"contracts/1minuteAnon.sol\":5797:5826  IUniswapV2Router02 _newRouter */\n      0x00\n        /* \"contracts/1minuteAnon.sol\":5848:5865  _newRouterAddress */\n      dup2\n        /* \"contracts/1minuteAnon.sol\":5797:5866  IUniswapV2Router02 _newRouter = IUniswapV2Router02(_newRouterAddress) */\n      swap1\n      pop\n        /* \"contracts/1minuteAnon.sol\":5873:5886  address _pair */\n      0x00\n        /* \"contracts/1minuteAnon.sol\":5907:5917  _newRouter */\n      dup2\n      sub(shl(0xa0, 0x01), 0x01)\n        /* \"contracts/1minuteAnon.sol\":5907:5925  _newRouter.factory */\n      and\n      0xc45a0155\n        /* \"contracts/1minuteAnon.sol\":5907:5927  _newRouter.factory() */\n      mload(0x40)\n      dup2\n      0xffffffff\n      and\n      0xe0\n      shl\n      dup2\n      mstore\n      0x04\n      add\n      0x20\n      mload(0x40)\n      dup1\n      dup4\n      sub\n      dup2\n      dup7\n      gas\n      staticcall\n      iszero\n      dup1\n      iszero\n      tag_311\n      jumpi\n      returndatasize\n      0x00\n      dup1\n      returndatacopy\n      revert(0x00, returndatasize)\n    tag_311:\n      pop\n      pop\n      pop\n      pop\n      mload(0x40)\n      returndatasize\n      not(0x1f)\n      0x1f\n      dup3\n      add\n      and\n      dup3\n      add\n      dup1\n      0x40\n      mstore\n      pop\n      dup2\n      add\n      swap1\n      tag_312\n      swap2\n      swap1\n      tag_313\n      jump\t// in\n    tag_312:\n      sub(shl(0xa0, 0x01), 0x01)\n        /* \"contracts/1minuteAnon.sol\":5889:5939  IUniswapV2Factory(_newRouter.factory()).createPair */\n      and\n      0xc9c65396\n        /* \"contracts/1minuteAnon.sol\":5948:5952  this */\n      address\n        /* \"contracts/1minuteAnon.sol\":5955:5965  _newRouter */\n      dup5\n      sub(shl(0xa0, 0x01), 0x01)\n        /* \"contracts/1minuteAnon.sol\":5955:5970  _newRouter.WETH */\n      and\n      0xad5c4648\n        /* \"contracts/1minuteAnon.sol\":5955:5972  _newRouter.WETH() */\n      mload(0x40)\n      dup2\n      0xffffffff\n      and\n      0xe0\n      shl\n      dup2\n      mstore\n      0x04\n      add\n      0x20\n      mload(0x40)\n      dup1\n      dup4\n      sub\n      dup2\n      dup7\n      gas\n      staticcall\n      iszero\n      dup1\n      iszero\n      tag_315\n      jumpi\n      returndatasize\n      0x00\n      dup1\n      returndatacopy\n      revert(0x00, returndatasize)\n    tag_315:\n      pop\n      pop\n      pop\n      pop\n      mload(0x40)\n      returndatasize\n      not(0x1f)\n      0x1f\n      dup3\n      add\n      and\n      dup3\n      add\n      dup1\n      0x40\n      mstore\n      pop\n      dup2\n      add\n      swap1\n      tag_316\n      swap2\n      swap1\n      tag_313\n      jump\t// in\n    tag_316:\n        /* \"contracts/1minuteAnon.sol\":5889:5973  IUniswapV2Factory(_newRouter.factory()).createPair(address(this), _newRouter.WETH()) */\n      mload(0x40)\n      not(sub(shl(0xe0, 0x01), 0x01))\n      0xe0\n      dup6\n      swap1\n      shl\n      and\n      dup2\n      mstore\n      sub(shl(0xa0, 0x01), 0x01)\n        /* \"#utility.yul\":7419:7434   */\n      swap3\n      dup4\n      and\n        /* \"contracts/1minuteAnon.sol\":5889:5973  IUniswapV2Factory(_newRouter.factory()).createPair(address(this), _newRouter.WETH()) */\n      0x04\n      dup3\n      add\n        /* \"#utility.yul\":7401:7435   */\n      mstore\n        /* \"#utility.yul\":7471:7486   */\n      swap2\n      and\n        /* \"#utility.yul\":7451:7469   */\n      0x24\n      dup3\n      add\n        /* \"#utility.yul\":7444:7487   */\n      mstore\n        /* \"#utility.yul\":7336:7354   */\n      0x44\n      add\n        /* \"contracts/1minuteAnon.sol\":5889:5973  IUniswapV2Factory(_newRouter.factory()).createPair(address(this), _newRouter.WETH()) */\n      0x20\n      mload(0x40)\n      dup1\n      dup4\n      sub\n      dup2\n      0x00\n      dup8\n      gas\n      call\n      iszero\n      dup1\n      iszero\n      tag_320\n      jumpi\n      returndatasize\n      0x00\n      dup1\n      returndatacopy\n      revert(0x00, returndatasize)\n    tag_320:\n      pop\n      pop\n      pop\n      pop\n      mload(0x40)\n      returndatasize\n      not(0x1f)\n      0x1f\n      dup3\n      add\n      and\n      dup3\n      add\n      dup1\n      0x40\n      mstore\n      pop\n      dup2\n      add\n      swap1\n      tag_321\n      swap2\n      swap1\n      tag_313\n      jump\t// in\n    tag_321:\n        /* \"contracts/1minuteAnon.sol\":5873:5973  address _pair = IUniswapV2Factory(_newRouter.factory()).createPair(address(this), _newRouter.WETH()) */\n      swap1\n      pop\n      sub(shl(0xa0, 0x01), 0x01)\n        /* \"contracts/1minuteAnon.sol\":5988:6007  _pair != address(0) */\n      dup2\n      and\n        /* \"contracts/1minuteAnon.sol\":5980:6030  require(_pair != address(0), \"New pair not found\") */\n      tag_322\n      jumpi\n      mload(0x40)\n      shl(0xe5, 0x461bcd)\n      dup2\n      mstore\n        /* \"#utility.yul\":7700:7702   */\n      0x20\n        /* \"contracts/1minuteAnon.sol\":5980:6030  require(_pair != address(0), \"New pair not found\") */\n      0x04\n      dup3\n      add\n        /* \"#utility.yul\":7682:7703   */\n      mstore\n        /* \"#utility.yul\":7739:7741   */\n      0x12\n        /* \"#utility.yul\":7719:7737   */\n      0x24\n      dup3\n      add\n        /* \"#utility.yul\":7712:7742   */\n      mstore\n      shl(0x72, 0x13995dc81c185a5c881b9bdd08199bdd5b99)\n        /* \"#utility.yul\":7758:7776   */\n      0x44\n      dup3\n      add\n        /* \"#utility.yul\":7751:7799   */\n      mstore\n        /* \"#utility.yul\":7816:7834   */\n      0x64\n      add\n        /* \"contracts/1minuteAnon.sol\":5980:6030  require(_pair != address(0), \"New pair not found\") */\n      tag_49\n        /* \"#utility.yul\":7498:7840   */\n      jump\n        /* \"contracts/1minuteAnon.sol\":5980:6030  require(_pair != address(0), \"New pair not found\") */\n    tag_322:\n        /* \"contracts/1minuteAnon.sol\":6098:6111  uniswapRouter */\n      0x0c\n        /* \"contracts/1minuteAnon.sol\":6098:6124  uniswapRouter = _newRouter */\n      dup1\n      sload\n      not(sub(shl(0xa0, 0x01), 0x01))\n      and\n      sub(shl(0xa0, 0x01), 0x01)\n      swap4\n      dup5\n      and\n      or\n      swap1\n      sstore\n        /* \"contracts/1minuteAnon.sol\":6131:6150  uniswapPairs[_pair] */\n      and\n      0x00\n      swap1\n      dup2\n      mstore\n        /* \"contracts/1minuteAnon.sol\":6131:6143  uniswapPairs */\n      0x11\n        /* \"contracts/1minuteAnon.sol\":6131:6150  uniswapPairs[_pair] */\n      0x20\n      mstore\n      0x40\n      swap1\n      keccak256\n        /* \"contracts/1minuteAnon.sol\":6131:6157  uniswapPairs[_pair] = true */\n      dup1\n      sload\n      not(0xff)\n      and\n      0x01\n      or\n      swap1\n      sstore\n      pop\n        /* \"contracts/1minuteAnon.sol\":5626:6161  function setNewRouter(address _newRouterAddress) external onlyOwner {... */\n      jump\t// out\n        /* \"@openzeppelin/contracts/access/Ownable.sol\":2074:2272  function transferOwnership(address newOwner) public virtual onlyOwner {... */\n    tag_215:\n        /* \"@openzeppelin/contracts/access/Ownable.sol\":1094:1107  _checkOwner() */\n      tag_326\n        /* \"@openzeppelin/contracts/access/Ownable.sol\":1094:1105  _checkOwner */\n      tag_235\n        /* \"@openzeppelin/contracts/access/Ownable.sol\":1094:1107  _checkOwner() */\n      jump\t// in\n    tag_326:\n      sub(shl(0xa0, 0x01), 0x01)\n        /* \"@openzeppelin/contracts/access/Ownable.sol\":2162:2184  newOwner != address(0) */\n      dup2\n      and\n        /* \"@openzeppelin/contracts/access/Ownable.sol\":2154:2227  require(newOwner != address(0), \"Ownable: new owner is the zero address\") */\n      tag_328\n      jumpi\n      mload(0x40)\n      shl(0xe5, 0x461bcd)\n      dup2\n      mstore\n        /* \"#utility.yul\":8047:8049   */\n      0x20\n        /* \"@openzeppelin/contracts/access/Ownable.sol\":2154:2227  require(newOwner != address(0), \"Ownable: new owner is the zero address\") */\n      0x04\n      dup3\n      add\n        /* \"#utility.yul\":8029:8050   */\n      mstore\n        /* \"#utility.yul\":8086:8088   */\n      0x26\n        /* \"#utility.yul\":8066:8084   */\n      0x24\n      dup3\n      add\n        /* \"#utility.yul\":8059:8089   */\n      mstore\n        /* \"#utility.yul\":8125:8159   */\n      0x4f776e61626c653a206e6577206f776e657220697320746865207a65726f2061\n        /* \"#utility.yul\":8105:8123   */\n      0x44\n      dup3\n      add\n        /* \"#utility.yul\":8098:8160   */\n      mstore\n      shl(0xd0, 0x646472657373)\n        /* \"#utility.yul\":8176:8194   */\n      0x64\n      dup3\n      add\n        /* \"#utility.yul\":8169:8205   */\n      mstore\n        /* \"#utility.yul\":8222:8241   */\n      0x84\n      add\n        /* \"@openzeppelin/contracts/access/Ownable.sol\":2154:2227  require(newOwner != address(0), \"Ownable: new owner is the zero address\") */\n      tag_49\n        /* \"#utility.yul\":7845:8247   */\n      jump\n        /* \"@openzeppelin/contracts/access/Ownable.sol\":2154:2227  require(newOwner != address(0), \"Ownable: new owner is the zero address\") */\n    tag_328:\n        /* \"@openzeppelin/contracts/access/Ownable.sol\":2237:2265  _transferOwnership(newOwner) */\n      tag_257\n        /* \"@openzeppelin/contracts/access/Ownable.sol\":2256:2264  newOwner */\n      dup2\n        /* \"@openzeppelin/contracts/access/Ownable.sol\":2237:2255  _transferOwnership */\n      tag_332\n        /* \"@openzeppelin/contracts/access/Ownable.sol\":2237:2265  _transferOwnership(newOwner) */\n      jump\t// in\n        /* \"contracts/1minuteAnon.sol\":6169:6291  function excludeFromLockPeriod(address _address) external onlyOwner {... */\n    tag_219:\n        /* \"@openzeppelin/contracts/access/Ownable.sol\":1094:1107  _checkOwner() */\n      tag_334\n        /* \"@openzeppelin/contracts/access/Ownable.sol\":1094:1105  _checkOwner */\n      tag_235\n        /* \"@openzeppelin/contracts/access/Ownable.sol\":1094:1107  _checkOwner() */\n      jump\t// in\n    tag_334:\n      sub(shl(0xa0, 0x01), 0x01)\n        /* \"contracts/1minuteAnon.sol\":6244:6276  excludedFromLockPeriod[_address] */\n      and\n      0x00\n      swap1\n      dup2\n      mstore\n        /* \"contracts/1minuteAnon.sol\":6244:6266  excludedFromLockPeriod */\n      0x10\n        /* \"contracts/1minuteAnon.sol\":6244:6276  excludedFromLockPeriod[_address] */\n      0x20\n      mstore\n      0x40\n      swap1\n      keccak256\n        /* \"contracts/1minuteAnon.sol\":6244:6283  excludedFromLockPeriod[_address] = true */\n      dup1\n      sload\n      not(0xff)\n      and\n        /* \"contracts/1minuteAnon.sol\":6279:6283  true */\n      0x01\n        /* \"contracts/1minuteAnon.sol\":6244:6283  excludedFromLockPeriod[_address] = true */\n      or\n      swap1\n      sstore\n        /* \"contracts/1minuteAnon.sol\":6169:6291  function excludeFromLockPeriod(address _address) external onlyOwner {... */\n      jump\t// out\n        /* \"@openzeppelin/contracts/token/ERC20/ERC20.sol\":10457:10797  function _approve(address owner, address spender, uint256 amount) internal virtual {... */\n    tag_231:\n      sub(shl(0xa0, 0x01), 0x01)\n        /* \"@openzeppelin/contracts/token/ERC20/ERC20.sol\":10558:10577  owner != address(0) */\n      dup4\n      and\n        /* \"@openzeppelin/contracts/token/ERC20/ERC20.sol\":10550:10618  require(owner != address(0), \"ERC20: approve from the zero address\") */\n      tag_338\n      jumpi\n      mload(0x40)\n      shl(0xe5, 0x461bcd)\n      dup2\n      mstore\n        /* \"#utility.yul\":8454:8456   */\n      0x20\n        /* \"@openzeppelin/contracts/token/ERC20/ERC20.sol\":10550:10618  require(owner != address(0), \"ERC20: approve from the zero address\") */\n      0x04\n      dup3\n      add\n        /* \"#utility.yul\":8436:8457   */\n      mstore\n        /* \"#utility.yul\":8493:8495   */\n      0x24\n        /* \"#utility.yul\":8473:8491   */\n      dup1\n      dup3\n      add\n        /* \"#utility.yul\":8466:8496   */\n      mstore\n        /* \"#utility.yul\":8532:8566   */\n      0x45524332303a20617070726f76652066726f6d20746865207a65726f20616464\n        /* \"#utility.yul\":8512:8530   */\n      0x44\n      dup3\n      add\n        /* \"#utility.yul\":8505:8567   */\n      mstore\n      shl(0xe0, 0x72657373)\n        /* \"#utility.yul\":8583:8601   */\n      0x64\n      dup3\n      add\n        /* \"#utility.yul\":8576:8610   */\n      mstore\n        /* \"#utility.yul\":8627:8646   */\n      0x84\n      add\n        /* \"@openzeppelin/contracts/token/ERC20/ERC20.sol\":10550:10618  require(owner != address(0), \"ERC20: approve from the zero address\") */\n      tag_49\n        /* \"#utility.yul\":8252:8652   */\n      jump\n        /* \"@openzeppelin/contracts/token/ERC20/ERC20.sol\":10550:10618  require(owner != address(0), \"ERC20: approve from the zero address\") */\n    tag_338:\n      sub(shl(0xa0, 0x01), 0x01)\n        /* \"@openzeppelin/contracts/token/ERC20/ERC20.sol\":10636:10657  spender != address(0) */\n      dup3\n      and\n        /* \"@openzeppelin/contracts/token/ERC20/ERC20.sol\":10628:10696  require(spender != address(0), \"ERC20: approve to the zero address\") */\n      tag_341\n      jumpi\n      mload(0x40)\n      shl(0xe5, 0x461bcd)\n      dup2\n      mstore\n        /* \"#utility.yul\":8859:8861   */\n      0x20\n        /* \"@openzeppelin/contracts/token/ERC20/ERC20.sol\":10628:10696  require(spender != address(0), \"ERC20: approve to the zero address\") */\n      0x04\n      dup3\n      add\n        /* \"#utility.yul\":8841:8862   */\n      mstore\n        /* \"#utility.yul\":8898:8900   */\n      0x22\n        /* \"#utility.yul\":8878:8896   */\n      0x24\n      dup3\n      add\n        /* \"#utility.yul\":8871:8901   */\n      mstore\n        /* \"#utility.yul\":8937:8971   */\n      0x45524332303a20617070726f766520746f20746865207a65726f206164647265\n        /* \"#utility.yul\":8917:8935   */\n      0x44\n      dup3\n      add\n        /* \"#utility.yul\":8910:8972   */\n      mstore\n      shl(0xf0, 0x7373)\n        /* \"#utility.yul\":8988:9006   */\n      0x64\n      dup3\n      add\n        /* \"#utility.yul\":8981:9013   */\n      mstore\n        /* \"#utility.yul\":9030:9049   */\n      0x84\n      add\n        /* \"@openzeppelin/contracts/token/ERC20/ERC20.sol\":10628:10696  require(spender != address(0), \"ERC20: approve to the zero address\") */\n      tag_49\n        /* \"#utility.yul\":8657:9055   */\n      jump\n        /* \"@openzeppelin/contracts/token/ERC20/ERC20.sol\":10628:10696  require(spender != address(0), \"ERC20: approve to the zero address\") */\n    tag_341:\n      sub(shl(0xa0, 0x01), 0x01)\n        /* \"@openzeppelin/contracts/token/ERC20/ERC20.sol\":10707:10725  _allowances[owner] */\n      dup4\n      dup2\n      and\n      0x00\n      dup2\n      dup2\n      mstore\n        /* \"@openzeppelin/contracts/token/ERC20/ERC20.sol\":10707:10718  _allowances */\n      0x01\n        /* \"@openzeppelin/contracts/token/ERC20/ERC20.sol\":10707:10725  _allowances[owner] */\n      0x20\n      swap1\n      dup2\n      mstore\n      0x40\n      dup1\n      dup4\n      keccak256\n        /* \"@openzeppelin/contracts/token/ERC20/ERC20.sol\":10707:10734  _allowances[owner][spender] */\n      swap5\n      dup8\n      and\n      dup1\n      dup5\n      mstore\n      swap5\n      dup3\n      mstore\n      swap2\n      dup3\n      swap1\n      keccak256\n        /* \"@openzeppelin/contracts/token/ERC20/ERC20.sol\":10707:10743  _allowances[owner][spender] = amount */\n      dup6\n      swap1\n      sstore\n        /* \"@openzeppelin/contracts/token/ERC20/ERC20.sol\":10758:10790  Approval(owner, spender, amount) */\n      swap1\n      mload\n        /* \"#utility.yul\":1815:1840   */\n      dup5\n      dup2\n      mstore\n        /* \"@openzeppelin/contracts/token/ERC20/ERC20.sol\":10758:10790  Approval(owner, spender, amount) */\n      0x8c5be1e5ebec7d5bd14f71427d1e84f3dd0314c0f7b2291e5b200ac8c7c3b925\n      swap2\n        /* \"#utility.yul\":1788:1806   */\n      add\n        /* \"@openzeppelin/contracts/token/ERC20/ERC20.sol\":10758:10790  Approval(owner, spender, amount) */\n      mload(0x40)\n      dup1\n      swap2\n      sub\n      swap1\n      log3\n        /* \"@openzeppelin/contracts/token/ERC20/ERC20.sol\":10457:10797  function _approve(address owner, address spender, uint256 amount) internal virtual {... */\n      pop\n      pop\n      pop\n      jump\t// out\n        /* \"@openzeppelin/contracts/access/Ownable.sol\":1359:1489  function _checkOwner() internal view virtual {... */\n    tag_235:\n        /* \"@openzeppelin/contracts/access/Ownable.sol\":1273:1279  _owner */\n      and(sub(shl(0xa0, 0x01), 0x01), sload(0x05))\n        /* \"@openzeppelin/contracts/utils/Context.sol\":719:729  msg.sender */\n      caller\n        /* \"@openzeppelin/contracts/access/Ownable.sol\":1422:1445  owner() == _msgSender() */\n      eq\n        /* \"@openzeppelin/contracts/access/Ownable.sol\":1414:1482  require(owner() == _msgSender(), \"Ownable: caller is not the owner\") */\n      tag_348\n      jumpi\n      mload(0x40)\n      shl(0xe5, 0x461bcd)\n      dup2\n      mstore\n        /* \"#utility.yul\":9262:9264   */\n      0x20\n        /* \"@openzeppelin/contracts/access/Ownable.sol\":1414:1482  require(owner() == _msgSender(), \"Ownable: caller is not the owner\") */\n      0x04\n      dup3\n      add\n        /* \"#utility.yul\":9244:9265   */\n      dup2\n      swap1\n      mstore\n        /* \"#utility.yul\":9281:9299   */\n      0x24\n      dup3\n      add\n        /* \"#utility.yul\":9274:9304   */\n      mstore\n        /* \"#utility.yul\":9340:9374   */\n      0x4f776e61626c653a2063616c6c6572206973206e6f7420746865206f776e6572\n        /* \"#utility.yul\":9320:9338   */\n      0x44\n      dup3\n      add\n        /* \"#utility.yul\":9313:9375   */\n      mstore\n        /* \"#utility.yul\":9392:9410   */\n      0x64\n      add\n        /* \"@openzeppelin/contracts/access/Ownable.sol\":1414:1482  require(owner() == _msgSender(), \"Ownable: caller is not the owner\") */\n      tag_49\n        /* \"#utility.yul\":9060:9416   */\n      jump\n        /* \"@openzeppelin/contracts/access/Ownable.sol\":1414:1482  require(owner() == _msgSender(), \"Ownable: caller is not the owner\") */\n    tag_348:\n        /* \"@openzeppelin/contracts/access/Ownable.sol\":1359:1489  function _checkOwner() internal view virtual {... */\n      jump\t// out\n        /* \"contracts/1minuteAnon.sol\":8946:10780  function _transfer(address sender, address recipient, uint256 amount) internal override onlyEOAs {... */\n    tag_239:\n        /* \"contracts/1minuteAnon.sol\":3575:3584  tx.origin */\n      origin\n        /* \"contracts/1minuteAnon.sol\":3588:3598  msg.sender */\n      caller\n        /* \"contracts/1minuteAnon.sol\":3575:3598  tx.origin == msg.sender */\n      eq\n        /* \"contracts/1minuteAnon.sol\":3567:3636  require(tx.origin == msg.sender, \"Contracts are not allowed to sell\") */\n      tag_352\n      jumpi\n      mload(0x40)\n      shl(0xe5, 0x461bcd)\n      dup2\n      mstore\n        /* \"#utility.yul\":9623:9625   */\n      0x20\n        /* \"contracts/1minuteAnon.sol\":3567:3636  require(tx.origin == msg.sender, \"Contracts are not allowed to sell\") */\n      0x04\n      dup3\n      add\n        /* \"#utility.yul\":9605:9626   */\n      mstore\n        /* \"#utility.yul\":9662:9664   */\n      0x21\n        /* \"#utility.yul\":9642:9660   */\n      0x24\n      dup3\n      add\n        /* \"#utility.yul\":9635:9665   */\n      mstore\n        /* \"#utility.yul\":9701:9735   */\n      0x436f6e74726163747320617265206e6f7420616c6c6f77656420746f2073656c\n        /* \"#utility.yul\":9681:9699   */\n      0x44\n      dup3\n      add\n        /* \"#utility.yul\":9674:9736   */\n      mstore\n      shl(0xfa, 0x1b)\n        /* \"#utility.yul\":9752:9770   */\n      0x64\n      dup3\n      add\n        /* \"#utility.yul\":9745:9776   */\n      mstore\n        /* \"#utility.yul\":9793:9812   */\n      0x84\n      add\n        /* \"contracts/1minuteAnon.sol\":3567:3636  require(tx.origin == msg.sender, \"Contracts are not allowed to sell\") */\n      tag_49\n        /* \"#utility.yul\":9421:9818   */\n      jump\n        /* \"contracts/1minuteAnon.sol\":3567:3636  require(tx.origin == msg.sender, \"Contracts are not allowed to sell\") */\n    tag_352:\n        /* \"contracts/1minuteAnon.sol\":9071:9072  0 */\n      0x00\n        /* \"contracts/1minuteAnon.sol\":9062:9068  amount */\n      dup2\n        /* \"contracts/1minuteAnon.sol\":9062:9072  amount > 0 */\n      gt\n        /* \"contracts/1minuteAnon.sol\":9054:9118  require(amount > 0, \"Transfer amount must be greater than zero\") */\n      tag_356\n      jumpi\n      mload(0x40)\n      shl(0xe5, 0x461bcd)\n      dup2\n      mstore\n        /* \"#utility.yul\":10025:10027   */\n      0x20\n        /* \"contracts/1minuteAnon.sol\":9054:9118  require(amount > 0, \"Transfer amount must be greater than zero\") */\n      0x04\n      dup3\n      add\n        /* \"#utility.yul\":10007:10028   */\n      mstore\n        /* \"#utility.yul\":10064:10066   */\n      0x29\n        /* \"#utility.yul\":10044:10062   */\n      0x24\n      dup3\n      add\n        /* \"#utility.yul\":10037:10067   */\n      mstore\n        /* \"#utility.yul\":10103:10137   */\n      0x5472616e7366657220616d6f756e74206d757374206265206772656174657220\n        /* \"#utility.yul\":10083:10101   */\n      0x44\n      dup3\n      add\n        /* \"#utility.yul\":10076:10138   */\n      mstore\n      shl(0xb8, 0x7468616e207a65726f)\n        /* \"#utility.yul\":10154:10172   */\n      0x64\n      dup3\n      add\n        /* \"#utility.yul\":10147:10186   */\n      mstore\n        /* \"#utility.yul\":10203:10222   */\n      0x84\n      add\n        /* \"contracts/1minuteAnon.sol\":9054:9118  require(amount > 0, \"Transfer amount must be greater than zero\") */\n      tag_49\n        /* \"#utility.yul\":9823:10228   */\n      jump\n        /* \"contracts/1minuteAnon.sol\":9054:9118  require(amount > 0, \"Transfer amount must be greater than zero\") */\n    tag_356:\n        /* \"contracts/1minuteAnon.sol\":9154:9160  amount */\n      dup1\n        /* \"contracts/1minuteAnon.sol\":9133:9150  balanceOf(sender) */\n      tag_359\n        /* \"contracts/1minuteAnon.sol\":9143:9149  sender */\n      dup5\n      sub(shl(0xa0, 0x01), 0x01)\n        /* \"@openzeppelin/contracts/token/ERC20/ERC20.sol\":3519:3537  _balances[account] */\n      and\n        /* \"@openzeppelin/contracts/token/ERC20/ERC20.sol\":3493:3500  uint256 */\n      0x00\n        /* \"@openzeppelin/contracts/token/ERC20/ERC20.sol\":3519:3537  _balances[account] */\n      swap1\n      dup2\n      mstore\n      0x20\n      dup2\n      swap1\n      mstore\n      0x40\n      swap1\n      keccak256\n      sload\n      swap1\n        /* \"@openzeppelin/contracts/token/ERC20/ERC20.sol\":3419:3544  function balanceOf(address account) public view virtual override returns (uint256) {... */\n      jump\n        /* \"contracts/1minuteAnon.sol\":9133:9150  balanceOf(sender) */\n    tag_359:\n        /* \"contracts/1minuteAnon.sol\":9133:9160  balanceOf(sender) >= amount */\n      lt\n      iszero\n        /* \"contracts/1minuteAnon.sol\":9125:9185  require(balanceOf(sender) >= amount, \"Insufficient balance\") */\n      tag_360\n      jumpi\n      mload(0x40)\n      shl(0xe5, 0x461bcd)\n      dup2\n      mstore\n        /* \"#utility.yul\":10435:10437   */\n      0x20\n        /* \"contracts/1minuteAnon.sol\":9125:9185  require(balanceOf(sender) >= amount, \"Insufficient balance\") */\n      0x04\n      dup3\n      add\n        /* \"#utility.yul\":10417:10438   */\n      mstore\n        /* \"#utility.yul\":10474:10476   */\n      0x14\n        /* \"#utility.yul\":10454:10472   */\n      0x24\n      dup3\n      add\n        /* \"#utility.yul\":10447:10477   */\n      mstore\n      shl(0x60, 0x496e73756666696369656e742062616c616e6365)\n        /* \"#utility.yul\":10493:10511   */\n      0x44\n      dup3\n      add\n        /* \"#utility.yul\":10486:10536   */\n      mstore\n        /* \"#utility.yul\":10553:10571   */\n      0x64\n      add\n        /* \"contracts/1minuteAnon.sol\":9125:9185  require(balanceOf(sender) >= amount, \"Insufficient balance\") */\n      tag_49\n        /* \"#utility.yul\":10233:10577   */\n      jump\n        /* \"contracts/1minuteAnon.sol\":9125:9185  require(balanceOf(sender) >= amount, \"Insufficient balance\") */\n    tag_360:\n      not(0xdeac)\n      sub(shl(0xa0, 0x01), 0x01)\n        /* \"contracts/1minuteAnon.sol\":9204:9228  recipient == DEAD_WALLET */\n      dup4\n      and\n      add\n        /* \"contracts/1minuteAnon.sol\":9200:9277  if (recipient == DEAD_WALLET) {... */\n      tag_363\n      jumpi\n        /* \"contracts/1minuteAnon.sol\":9263:9269  amount */\n      dup1\n        /* \"contracts/1minuteAnon.sol\":9241:9259  CIRCULATING_SUPPLY */\n      0x09\n      0x00\n        /* \"contracts/1minuteAnon.sol\":9241:9269  CIRCULATING_SUPPLY -= amount */\n      dup3\n      dup3\n      sload\n      tag_364\n      swap2\n      swap1\n      tag_248\n      jump\t// in\n    tag_364:\n      swap1\n      swap2\n      sstore\n      pop\n      pop\n        /* \"contracts/1minuteAnon.sol\":9200:9277  if (recipient == DEAD_WALLET) {... */\n    tag_363:\n        /* \"contracts/1minuteAnon.sol\":9411:9421  dev_wallet */\n      sload(0x0a)\n      sub(shl(0xa0, 0x01), 0x01)\n        /* \"contracts/1minuteAnon.sol\":9401:9421  sender != dev_wallet */\n      dup5\n      dup2\n      and\n        /* \"contracts/1minuteAnon.sol\":9411:9421  dev_wallet */\n      swap2\n      and\n        /* \"contracts/1minuteAnon.sol\":9401:9421  sender != dev_wallet */\n      eq\n        /* \"contracts/1minuteAnon.sol\":9397:9652  if (sender != dev_wallet) {... */\n      tag_368\n      jumpi\n        /* \"contracts/1minuteAnon.sol\":9588:9606  maxTokensPerWallet */\n      sload(0x07)\n        /* \"contracts/1minuteAnon.sol\":9578:9584  amount */\n      dup2\n        /* \"contracts/1minuteAnon.sol\":9555:9575  balanceOf(recipient) */\n      tag_366\n        /* \"contracts/1minuteAnon.sol\":9565:9574  recipient */\n      dup5\n      sub(shl(0xa0, 0x01), 0x01)\n        /* \"@openzeppelin/contracts/token/ERC20/ERC20.sol\":3519:3537  _balances[account] */\n      and\n        /* \"@openzeppelin/contracts/token/ERC20/ERC20.sol\":3493:3500  uint256 */\n      0x00\n        /* \"@openzeppelin/contracts/token/ERC20/ERC20.sol\":3519:3537  _balances[account] */\n      swap1\n      dup2\n      mstore\n      0x20\n      dup2\n      swap1\n      mstore\n      0x40\n      swap1\n      keccak256\n      sload\n      swap1\n        /* \"@openzeppelin/contracts/token/ERC20/ERC20.sol\":3419:3544  function balanceOf(address account) public view virtual override returns (uint256) {... */\n      jump\n        /* \"contracts/1minuteAnon.sol\":9555:9575  balanceOf(recipient) */\n    tag_366:\n        /* \"contracts/1minuteAnon.sol\":9555:9584  balanceOf(recipient) + amount */\n      tag_367\n      swap2\n      swap1\n      tag_255\n      jump\t// in\n    tag_367:\n        /* \"contracts/1minuteAnon.sol\":9555:9606  balanceOf(recipient) + amount <= maxTokensPerWallet */\n      gt\n      iszero\n        /* \"contracts/1minuteAnon.sol\":9547:9644  require(balanceOf(recipient) + amount <= maxTokensPerWallet, \"Exceeds maximum tokens per wallet\") */\n      tag_368\n      jumpi\n      mload(0x40)\n      shl(0xe5, 0x461bcd)\n      dup2\n      mstore\n        /* \"#utility.yul\":10784:10786   */\n      0x20\n        /* \"contracts/1minuteAnon.sol\":9547:9644  require(balanceOf(recipient) + amount <= maxTokensPerWallet, \"Exceeds maximum tokens per wallet\") */\n      0x04\n      dup3\n      add\n        /* \"#utility.yul\":10766:10787   */\n      mstore\n        /* \"#utility.yul\":10823:10825   */\n      0x21\n        /* \"#utility.yul\":10803:10821   */\n      0x24\n      dup3\n      add\n        /* \"#utility.yul\":10796:10826   */\n      mstore\n        /* \"#utility.yul\":10862:10896   */\n      0x45786365656473206d6178696d756d20746f6b656e73207065722077616c6c65\n        /* \"#utility.yul\":10842:10860   */\n      0x44\n      dup3\n      add\n        /* \"#utility.yul\":10835:10897   */\n      mstore\n      shl(0xfa, 0x1d)\n        /* \"#utility.yul\":10913:10931   */\n      0x64\n      dup3\n      add\n        /* \"#utility.yul\":10906:10937   */\n      mstore\n        /* \"#utility.yul\":10954:10973   */\n      0x84\n      add\n        /* \"contracts/1minuteAnon.sol\":9547:9644  require(balanceOf(recipient) + amount <= maxTokensPerWallet, \"Exceeds maximum tokens per wallet\") */\n      tag_49\n        /* \"#utility.yul\":10582:10979   */\n      jump\n        /* \"contracts/1minuteAnon.sol\":9547:9644  require(balanceOf(recipient) + amount <= maxTokensPerWallet, \"Exceeds maximum tokens per wallet\") */\n    tag_368:\n      sub(shl(0xa0, 0x01), 0x01)\n        /* \"contracts/1minuteAnon.sol\":9716:9746  excludedFromLockPeriod[sender] */\n      dup4\n      and\n      0x00\n      swap1\n      dup2\n      mstore\n        /* \"contracts/1minuteAnon.sol\":9716:9738  excludedFromLockPeriod */\n      0x10\n        /* \"contracts/1minuteAnon.sol\":9716:9746  excludedFromLockPeriod[sender] */\n      0x20\n      mstore\n      0x40\n      swap1\n      keccak256\n      sload\n      0xff\n      and\n        /* \"contracts/1minuteAnon.sol\":9715:9746  !excludedFromLockPeriod[sender] */\n      iszero\n        /* \"contracts/1minuteAnon.sol\":9715:9767  !excludedFromLockPeriod[sender] && sender != owner() */\n      dup1\n      iszero\n      tag_371\n      jumpi\n      pop\n        /* \"@openzeppelin/contracts/access/Ownable.sol\":1273:1279  _owner */\n      sload(0x05)\n      sub(shl(0xa0, 0x01), 0x01)\n        /* \"contracts/1minuteAnon.sol\":9750:9767  sender != owner() */\n      dup5\n      dup2\n      and\n        /* \"@openzeppelin/contracts/access/Ownable.sol\":1273:1279  _owner */\n      swap2\n      and\n        /* \"contracts/1minuteAnon.sol\":9750:9767  sender != owner() */\n      eq\n      iszero\n        /* \"contracts/1minuteAnon.sol\":9715:9767  !excludedFromLockPeriod[sender] && sender != owner() */\n    tag_371:\n        /* \"contracts/1minuteAnon.sol\":9715:9803  !excludedFromLockPeriod[sender] && sender != owner() && sender != address(uniswapRouter) */\n      dup1\n      iszero\n      tag_373\n      jumpi\n      pop\n        /* \"contracts/1minuteAnon.sol\":9789:9802  uniswapRouter */\n      sload(0x0c)\n      sub(shl(0xa0, 0x01), 0x01)\n        /* \"contracts/1minuteAnon.sol\":9771:9803  sender != address(uniswapRouter) */\n      dup5\n      dup2\n      and\n        /* \"contracts/1minuteAnon.sol\":9789:9802  uniswapRouter */\n      swap2\n      and\n        /* \"contracts/1minuteAnon.sol\":9771:9803  sender != address(uniswapRouter) */\n      eq\n      iszero\n        /* \"contracts/1minuteAnon.sol\":9715:9803  !excludedFromLockPeriod[sender] && sender != owner() && sender != address(uniswapRouter) */\n    tag_373:\n        /* \"contracts/1minuteAnon.sol\":9711:9899  if (!excludedFromLockPeriod[sender] && sender != owner() && sender != address(uniswapRouter)) {... */\n      iszero\n      tag_375\n      jumpi\n      sub(shl(0xa0, 0x01), 0x01)\n        /* \"contracts/1minuteAnon.sol\":9843:9861  timeStamps[sender] */\n      dup4\n      and\n      0x00\n      swap1\n      dup2\n      mstore\n        /* \"contracts/1minuteAnon.sol\":9843:9853  timeStamps */\n      0x0f\n        /* \"contracts/1minuteAnon.sol\":9843:9861  timeStamps[sender] */\n      0x20\n      mstore\n      0x40\n      swap1\n      keccak256\n      sload\n        /* \"contracts/1minuteAnon.sol\":9824:9839  block.timestamp */\n      timestamp\n        /* \"contracts/1minuteAnon.sol\":9824:9861  block.timestamp >= timeStamps[sender] */\n      lt\n      iszero\n        /* \"contracts/1minuteAnon.sol\":9816:9891  require(block.timestamp >= timeStamps[sender], \"Time lock is still active\") */\n      tag_375\n      jumpi\n      mload(0x40)\n      shl(0xe5, 0x461bcd)\n      dup2\n      mstore\n        /* \"#utility.yul\":11186:11188   */\n      0x20\n        /* \"contracts/1minuteAnon.sol\":9816:9891  require(block.timestamp >= timeStamps[sender], \"Time lock is still active\") */\n      0x04\n      dup3\n      add\n        /* \"#utility.yul\":11168:11189   */\n      mstore\n        /* \"#utility.yul\":11225:11227   */\n      0x19\n        /* \"#utility.yul\":11205:11223   */\n      0x24\n      dup3\n      add\n        /* \"#utility.yul\":11198:11228   */\n      mstore\n        /* \"#utility.yul\":11264:11291   */\n      0x54696d65206c6f636b206973207374696c6c2061637469766500000000000000\n        /* \"#utility.yul\":11244:11262   */\n      0x44\n      dup3\n      add\n        /* \"#utility.yul\":11237:11292   */\n      mstore\n        /* \"#utility.yul\":11309:11327   */\n      0x64\n      add\n        /* \"contracts/1minuteAnon.sol\":9816:9891  require(block.timestamp >= timeStamps[sender], \"Time lock is still active\") */\n      tag_49\n        /* \"#utility.yul\":10984:11333   */\n      jump\n        /* \"contracts/1minuteAnon.sol\":9816:9891  require(block.timestamp >= timeStamps[sender], \"Time lock is still active\") */\n    tag_375:\n      sub(shl(0xa0, 0x01), 0x01)\n        /* \"contracts/1minuteAnon.sol\":9966:9999  excludedFromLockPeriod[recipient] */\n      dup3\n      and\n      0x00\n      swap1\n      dup2\n      mstore\n        /* \"contracts/1minuteAnon.sol\":9966:9988  excludedFromLockPeriod */\n      0x10\n        /* \"contracts/1minuteAnon.sol\":9966:9999  excludedFromLockPeriod[recipient] */\n      0x20\n      mstore\n      0x40\n      swap1\n      keccak256\n      sload\n      0xff\n      and\n        /* \"contracts/1minuteAnon.sol\":9965:9999  !excludedFromLockPeriod[recipient] */\n      iszero\n        /* \"contracts/1minuteAnon.sol\":9965:10023  !excludedFromLockPeriod[recipient] && recipient != owner() */\n      dup1\n      iszero\n      tag_378\n      jumpi\n      pop\n        /* \"@openzeppelin/contracts/access/Ownable.sol\":1273:1279  _owner */\n      sload(0x05)\n      sub(shl(0xa0, 0x01), 0x01)\n        /* \"contracts/1minuteAnon.sol\":10003:10023  recipient != owner() */\n      dup4\n      dup2\n      and\n        /* \"@openzeppelin/contracts/access/Ownable.sol\":1273:1279  _owner */\n      swap2\n      and\n        /* \"contracts/1minuteAnon.sol\":10003:10023  recipient != owner() */\n      eq\n      iszero\n        /* \"contracts/1minuteAnon.sol\":9965:10023  !excludedFromLockPeriod[recipient] && recipient != owner() */\n    tag_378:\n        /* \"contracts/1minuteAnon.sol\":9965:10062  !excludedFromLockPeriod[recipient] && recipient != owner() && recipient != address(uniswapRouter) */\n      dup1\n      iszero\n      tag_380\n      jumpi\n      pop\n        /* \"contracts/1minuteAnon.sol\":10048:10061  uniswapRouter */\n      sload(0x0c)\n      sub(shl(0xa0, 0x01), 0x01)\n        /* \"contracts/1minuteAnon.sol\":10027:10062  recipient != address(uniswapRouter) */\n      dup4\n      dup2\n      and\n        /* \"contracts/1minuteAnon.sol\":10048:10061  uniswapRouter */\n      swap2\n      and\n        /* \"contracts/1minuteAnon.sol\":10027:10062  recipient != address(uniswapRouter) */\n      eq\n      iszero\n        /* \"contracts/1minuteAnon.sol\":9965:10062  !excludedFromLockPeriod[recipient] && recipient != owner() && recipient != address(uniswapRouter) */\n    tag_380:\n        /* \"contracts/1minuteAnon.sol\":9961:10251  if (!excludedFromLockPeriod[recipient] && recipient != owner() && recipient != address(uniswapRouter)) {... */\n      iszero\n      tag_381\n      jumpi\n      sub(shl(0xa0, 0x01), 0x01)\n        /* \"contracts/1minuteAnon.sol\":10083:10104  timeStamps[recipient] */\n      dup3\n      and\n      0x00\n      swap1\n      dup2\n      mstore\n        /* \"contracts/1minuteAnon.sol\":10083:10093  timeStamps */\n      0x0f\n        /* \"contracts/1minuteAnon.sol\":10083:10104  timeStamps[recipient] */\n      0x20\n      mstore\n      0x40\n      swap1\n      keccak256\n      sload\n        /* \"contracts/1minuteAnon.sol\":10083:10109  timeStamps[recipient] == 0 */\n      iszero\n      dup1\n        /* \"contracts/1minuteAnon.sol\":10083:10153  timeStamps[recipient] == 0 || block.timestamp >= timeStamps[recipient] */\n      tag_382\n      jumpi\n      pop\n      sub(shl(0xa0, 0x01), 0x01)\n        /* \"contracts/1minuteAnon.sol\":10132:10153  timeStamps[recipient] */\n      dup3\n      and\n      0x00\n      swap1\n      dup2\n      mstore\n        /* \"contracts/1minuteAnon.sol\":10132:10142  timeStamps */\n      0x0f\n        /* \"contracts/1minuteAnon.sol\":10132:10153  timeStamps[recipient] */\n      0x20\n      mstore\n      0x40\n      swap1\n      keccak256\n      sload\n        /* \"contracts/1minuteAnon.sol\":10113:10128  block.timestamp */\n      timestamp\n        /* \"contracts/1minuteAnon.sol\":10113:10153  block.timestamp >= timeStamps[recipient] */\n      lt\n      iszero\n        /* \"contracts/1minuteAnon.sol\":10083:10153  timeStamps[recipient] == 0 || block.timestamp >= timeStamps[recipient] */\n    tag_382:\n        /* \"contracts/1minuteAnon.sol\":10075:10180  require(timeStamps[recipient] == 0 || block.timestamp >= timeStamps[recipient], \"Recipient in time lock\") */\n      tag_383\n      jumpi\n      mload(0x40)\n      shl(0xe5, 0x461bcd)\n      dup2\n      mstore\n        /* \"#utility.yul\":11540:11542   */\n      0x20\n        /* \"contracts/1minuteAnon.sol\":10075:10180  require(timeStamps[recipient] == 0 || block.timestamp >= timeStamps[recipient], \"Recipient in time lock\") */\n      0x04\n      dup3\n      add\n        /* \"#utility.yul\":11522:11543   */\n      mstore\n        /* \"#utility.yul\":11579:11581   */\n      0x16\n        /* \"#utility.yul\":11559:11577   */\n      0x24\n      dup3\n      add\n        /* \"#utility.yul\":11552:11582   */\n      mstore\n      shl(0x50, 0x526563697069656e7420696e2074696d65206c6f636b)\n        /* \"#utility.yul\":11598:11616   */\n      0x44\n      dup3\n      add\n        /* \"#utility.yul\":11591:11643   */\n      mstore\n        /* \"#utility.yul\":11660:11678   */\n      0x64\n      add\n        /* \"contracts/1minuteAnon.sol\":10075:10180  require(timeStamps[recipient] == 0 || block.timestamp >= timeStamps[recipient], \"Recipient in time lock\") */\n      tag_49\n        /* \"#utility.yul\":11338:11684   */\n      jump\n        /* \"contracts/1minuteAnon.sol\":10075:10180  require(timeStamps[recipient] == 0 || block.timestamp >= timeStamps[recipient], \"Recipient in time lock\") */\n    tag_383:\n        /* \"contracts/1minuteAnon.sol\":10215:10243  block.timestamp + lockPeriod */\n      tag_386\n        /* \"contracts/1minuteAnon.sol\":2543:2552  1 minutes */\n      0x3c\n        /* \"contracts/1minuteAnon.sol\":10215:10230  block.timestamp */\n      timestamp\n        /* \"contracts/1minuteAnon.sol\":10215:10243  block.timestamp + lockPeriod */\n      tag_255\n      jump\t// in\n    tag_386:\n      sub(shl(0xa0, 0x01), 0x01)\n        /* \"contracts/1minuteAnon.sol\":10191:10212  timeStamps[recipient] */\n      dup4\n      and\n      0x00\n      swap1\n      dup2\n      mstore\n        /* \"contracts/1minuteAnon.sol\":10191:10201  timeStamps */\n      0x0f\n        /* \"contracts/1minuteAnon.sol\":10191:10212  timeStamps[recipient] */\n      0x20\n      mstore\n      0x40\n      swap1\n      keccak256\n        /* \"contracts/1minuteAnon.sol\":10191:10243  timeStamps[recipient] = block.timestamp + lockPeriod */\n      sstore\n        /* \"contracts/1minuteAnon.sol\":9961:10251  if (!excludedFromLockPeriod[recipient] && recipient != owner() && recipient != address(uniswapRouter)) {... */\n    tag_381:\n        /* \"contracts/1minuteAnon.sol\":10324:10335  uniswapPair */\n      sload(0x0b)\n      sub(shl(0xa0, 0x01), 0x01)\n        /* \"contracts/1minuteAnon.sol\":10311:10335  recipient == uniswapPair */\n      dup4\n      dup2\n      and\n        /* \"contracts/1minuteAnon.sol\":10324:10335  uniswapPair */\n      swap2\n      and\n        /* \"contracts/1minuteAnon.sol\":10311:10335  recipient == uniswapPair */\n      eq\n        /* \"contracts/1minuteAnon.sol\":10311:10371  recipient == uniswapPair && sender != address(uniswapRouter) */\n      dup1\n      iszero\n      tag_387\n      jumpi\n      pop\n        /* \"contracts/1minuteAnon.sol\":10357:10370  uniswapRouter */\n      sload(0x0c)\n      sub(shl(0xa0, 0x01), 0x01)\n        /* \"contracts/1minuteAnon.sol\":10339:10371  sender != address(uniswapRouter) */\n      dup5\n      dup2\n      and\n        /* \"contracts/1minuteAnon.sol\":10357:10370  uniswapRouter */\n      swap2\n      and\n        /* \"contracts/1minuteAnon.sol\":10339:10371  sender != address(uniswapRouter) */\n      eq\n      iszero\n        /* \"contracts/1minuteAnon.sol\":10311:10371  recipient == uniswapPair && sender != address(uniswapRouter) */\n    tag_387:\n        /* \"contracts/1minuteAnon.sol\":10307:10724  if (recipient == uniswapPair && sender != address(uniswapRouter)) {... */\n      iszero\n      tag_388\n      jumpi\n      sub(shl(0xa0, 0x01), 0x01)\n        /* \"contracts/1minuteAnon.sol\":10475:10493  timeStamps[sender] */\n      dup4\n      and\n      0x00\n      swap1\n      dup2\n      mstore\n        /* \"contracts/1minuteAnon.sol\":10475:10485  timeStamps */\n      0x0f\n        /* \"contracts/1minuteAnon.sol\":10475:10493  timeStamps[sender] */\n      0x20\n      mstore\n      0x40\n      swap1\n      keccak256\n      sload\n        /* \"contracts/1minuteAnon.sol\":10475:10498  timeStamps[sender] != 0 */\n      iszero\n        /* \"contracts/1minuteAnon.sol\":10471:10607  if (timeStamps[sender] != 0) {... */\n      tag_390\n      jumpi\n      sub(shl(0xa0, 0x01), 0x01)\n        /* \"contracts/1minuteAnon.sol\":10542:10560  timeStamps[sender] */\n      dup4\n      and\n      0x00\n      swap1\n      dup2\n      mstore\n        /* \"contracts/1minuteAnon.sol\":10542:10552  timeStamps */\n      0x0f\n        /* \"contracts/1minuteAnon.sol\":10542:10560  timeStamps[sender] */\n      0x20\n      mstore\n      0x40\n      swap1\n      keccak256\n      sload\n        /* \"contracts/1minuteAnon.sol\":10523:10538  block.timestamp */\n      timestamp\n        /* \"contracts/1minuteAnon.sol\":10523:10560  block.timestamp >= timeStamps[sender] */\n      lt\n      iszero\n        /* \"contracts/1minuteAnon.sol\":10515:10595  require(block.timestamp >= timeStamps[sender], \"Sell time lock is still active\") */\n      tag_390\n      jumpi\n      mload(0x40)\n      shl(0xe5, 0x461bcd)\n      dup2\n      mstore\n        /* \"#utility.yul\":11891:11893   */\n      0x20\n        /* \"contracts/1minuteAnon.sol\":10515:10595  require(block.timestamp >= timeStamps[sender], \"Sell time lock is still active\") */\n      0x04\n      dup3\n      add\n        /* \"#utility.yul\":11873:11894   */\n      mstore\n        /* \"#utility.yul\":11930:11932   */\n      0x1e\n        /* \"#utility.yul\":11910:11928   */\n      0x24\n      dup3\n      add\n        /* \"#utility.yul\":11903:11933   */\n      mstore\n        /* \"#utility.yul\":11969:12001   */\n      0x53656c6c2074696d65206c6f636b206973207374696c6c206163746976650000\n        /* \"#utility.yul\":11949:11967   */\n      0x44\n      dup3\n      add\n        /* \"#utility.yul\":11942:12002   */\n      mstore\n        /* \"#utility.yul\":12019:12037   */\n      0x64\n      add\n        /* \"contracts/1minuteAnon.sol\":10515:10595  require(block.timestamp >= timeStamps[sender], \"Sell time lock is still active\") */\n      tag_49\n        /* \"#utility.yul\":11689:12043   */\n      jump\n        /* \"contracts/1minuteAnon.sol\":10515:10595  require(block.timestamp >= timeStamps[sender], \"Sell time lock is still active\") */\n    tag_390:\n        /* \"contracts/1minuteAnon.sol\":10688:10716  block.timestamp + lockPeriod */\n      tag_393\n        /* \"contracts/1minuteAnon.sol\":2543:2552  1 minutes */\n      0x3c\n        /* \"contracts/1minuteAnon.sol\":10688:10703  block.timestamp */\n      timestamp\n        /* \"contracts/1minuteAnon.sol\":10688:10716  block.timestamp + lockPeriod */\n      tag_255\n      jump\t// in\n    tag_393:\n      sub(shl(0xa0, 0x01), 0x01)\n        /* \"contracts/1minuteAnon.sol\":10667:10685  timeStamps[sender] */\n      dup5\n      and\n      0x00\n      swap1\n      dup2\n      mstore\n        /* \"contracts/1minuteAnon.sol\":10667:10677  timeStamps */\n      0x0f\n        /* \"contracts/1minuteAnon.sol\":10667:10685  timeStamps[sender] */\n      0x20\n      mstore\n      0x40\n      swap1\n      keccak256\n        /* \"contracts/1minuteAnon.sol\":10667:10716  timeStamps[sender] = block.timestamp + lockPeriod */\n      sstore\n        /* \"contracts/1minuteAnon.sol\":10307:10724  if (recipient == uniswapPair && sender != address(uniswapRouter)) {... */\n    tag_388:\n        /* \"contracts/1minuteAnon.sol\":10732:10774  super._transfer(sender, recipient, amount) */\n      tag_271\n        /* \"contracts/1minuteAnon.sol\":10748:10754  sender */\n      dup4\n        /* \"contracts/1minuteAnon.sol\":10756:10765  recipient */\n      dup4\n        /* \"contracts/1minuteAnon.sol\":10767:10773  amount */\n      dup4\n        /* \"contracts/1minuteAnon.sol\":10732:10747  super._transfer */\n      tag_395\n        /* \"contracts/1minuteAnon.sol\":10732:10774  super._transfer(sender, recipient, amount) */\n      jump\t// in\n        /* \"@openzeppelin/contracts/token/ERC20/ERC20.sol\":9375:10034  function _burn(address account, uint256 amount) internal virtual {... */\n    tag_258:\n      sub(shl(0xa0, 0x01), 0x01)\n        /* \"@openzeppelin/contracts/token/ERC20/ERC20.sol\":9458:9479  account != address(0) */\n      dup3\n      and\n        /* \"@openzeppelin/contracts/token/ERC20/ERC20.sol\":9450:9517  require(account != address(0), \"ERC20: burn from the zero address\") */\n      tag_397\n      jumpi\n      mload(0x40)\n      shl(0xe5, 0x461bcd)\n      dup2\n      mstore\n        /* \"#utility.yul\":12250:12252   */\n      0x20\n        /* \"@openzeppelin/contracts/token/ERC20/ERC20.sol\":9450:9517  require(account != address(0), \"ERC20: burn from the zero address\") */\n      0x04\n      dup3\n      add\n        /* \"#utility.yul\":12232:12253   */\n      mstore\n        /* \"#utility.yul\":12289:12291   */\n      0x21\n        /* \"#utility.yul\":12269:12287   */\n      0x24\n      dup3\n      add\n        /* \"#utility.yul\":12262:12292   */\n      mstore\n        /* \"#utility.yul\":12328:12362   */\n      0x45524332303a206275726e2066726f6d20746865207a65726f20616464726573\n        /* \"#utility.yul\":12308:12326   */\n      0x44\n      dup3\n      add\n        /* \"#utility.yul\":12301:12363   */\n      mstore\n      shl(0xf8, 0x73)\n        /* \"#utility.yul\":12379:12397   */\n      0x64\n      dup3\n      add\n        /* \"#utility.yul\":12372:12403   */\n      mstore\n        /* \"#utility.yul\":12420:12439   */\n      0x84\n      add\n        /* \"@openzeppelin/contracts/token/ERC20/ERC20.sol\":9450:9517  require(account != address(0), \"ERC20: burn from the zero address\") */\n      tag_49\n        /* \"#utility.yul\":12048:12445   */\n      jump\n        /* \"@openzeppelin/contracts/token/ERC20/ERC20.sol\":9450:9517  require(account != address(0), \"ERC20: burn from the zero address\") */\n    tag_397:\n      sub(shl(0xa0, 0x01), 0x01)\n        /* \"@openzeppelin/contracts/token/ERC20/ERC20.sol\":9613:9631  _balances[account] */\n      dup3\n      and\n        /* \"@openzeppelin/contracts/token/ERC20/ERC20.sol\":9588:9610  uint256 accountBalance */\n      0x00\n        /* \"@openzeppelin/contracts/token/ERC20/ERC20.sol\":9613:9631  _balances[account] */\n      swap1\n      dup2\n      mstore\n      0x20\n      dup2\n      swap1\n      mstore\n      0x40\n      swap1\n      keccak256\n      sload\n        /* \"@openzeppelin/contracts/token/ERC20/ERC20.sol\":9649:9673  accountBalance >= amount */\n      dup2\n      dup2\n      lt\n      iszero\n        /* \"@openzeppelin/contracts/token/ERC20/ERC20.sol\":9641:9712  require(accountBalance >= amount, \"ERC20: burn amount exceeds balance\") */\n      tag_402\n      jumpi\n      mload(0x40)\n      shl(0xe5, 0x461bcd)\n      dup2\n      mstore\n        /* \"#utility.yul\":12652:12654   */\n      0x20\n        /* \"@openzeppelin/contracts/token/ERC20/ERC20.sol\":9641:9712  require(accountBalance >= amount, \"ERC20: burn amount exceeds balance\") */\n      0x04\n      dup3\n      add\n        /* \"#utility.yul\":12634:12655   */\n      mstore\n        /* \"#utility.yul\":12691:12693   */\n      0x22\n        /* \"#utility.yul\":12671:12689   */\n      0x24\n      dup3\n      add\n        /* \"#utility.yul\":12664:12694   */\n      mstore\n        /* \"#utility.yul\":12730:12764   */\n      0x45524332303a206275726e20616d6f756e7420657863656564732062616c616e\n        /* \"#utility.yul\":12710:12728   */\n      0x44\n      dup3\n      add\n        /* \"#utility.yul\":12703:12765   */\n      mstore\n      shl(0xf0, 0x6365)\n        /* \"#utility.yul\":12781:12799   */\n      0x64\n      dup3\n      add\n        /* \"#utility.yul\":12774:12806   */\n      mstore\n        /* \"#utility.yul\":12823:12842   */\n      0x84\n      add\n        /* \"@openzeppelin/contracts/token/ERC20/ERC20.sol\":9641:9712  require(accountBalance >= amount, \"ERC20: burn amount exceeds balance\") */\n      tag_49\n        /* \"#utility.yul\":12450:12848   */\n      jump\n        /* \"@openzeppelin/contracts/token/ERC20/ERC20.sol\":9641:9712  require(accountBalance >= amount, \"ERC20: burn amount exceeds balance\") */\n    tag_402:\n      sub(shl(0xa0, 0x01), 0x01)\n        /* \"@openzeppelin/contracts/token/ERC20/ERC20.sol\":9746:9764  _balances[account] */\n      dup4\n      and\n        /* \"@openzeppelin/contracts/token/ERC20/ERC20.sol\":9746:9755  _balances */\n      0x00\n        /* \"@openzeppelin/contracts/token/ERC20/ERC20.sol\":9746:9764  _balances[account] */\n      dup2\n      dup2\n      mstore\n      0x20\n      dup2\n      dup2\n      mstore\n      0x40\n      dup1\n      dup4\n      keccak256\n        /* \"@openzeppelin/contracts/token/ERC20/ERC20.sol\":9767:9790  accountBalance - amount */\n      dup7\n      dup7\n      sub\n        /* \"@openzeppelin/contracts/token/ERC20/ERC20.sol\":9746:9790  _balances[account] = accountBalance - amount */\n      swap1\n      sstore\n        /* \"@openzeppelin/contracts/token/ERC20/ERC20.sol\":9883:9895  _totalSupply */\n      0x02\n        /* \"@openzeppelin/contracts/token/ERC20/ERC20.sol\":9883:9905  _totalSupply -= amount */\n      dup1\n      sload\n      dup8\n      swap1\n      sub\n      swap1\n      sstore\n        /* \"@openzeppelin/contracts/token/ERC20/ERC20.sol\":9931:9968  Transfer(account, address(0), amount) */\n      mload\n        /* \"#utility.yul\":1815:1840   */\n      dup6\n      dup2\n      mstore\n        /* \"@openzeppelin/contracts/token/ERC20/ERC20.sol\":9746:9755  _balances */\n      swap2\n      swap3\n        /* \"@openzeppelin/contracts/token/ERC20/ERC20.sol\":9746:9764  _balances[account] */\n      swap2\n        /* \"@openzeppelin/contracts/token/ERC20/ERC20.sol\":9931:9968  Transfer(account, address(0), amount) */\n      0xddf252ad1be2c89b69c2b068fc378daa952ba7f163c4a11628f55a4df523b3ef\n      swap2\n        /* \"#utility.yul\":1788:1806   */\n      add\n        /* \"@openzeppelin/contracts/token/ERC20/ERC20.sol\":9931:9968  Transfer(account, address(0), amount) */\n      mload(0x40)\n      dup1\n      swap2\n      sub\n      swap1\n      log3\n        /* \"contracts/1minuteAnon.sol\":8089:8132  IERC20(tokenAdd).transfer(BBWallet, amount) */\n      pop\n        /* \"contracts/1minuteAnon.sol\":8004:8140  function rescueERC20(address tokenAdd, uint256 amount) external onlyOwner {... */\n      pop\n      pop\n      jump\t// out\n        /* \"@openzeppelin/contracts/access/Ownable.sol\":2426:2613  function _transferOwnership(address newOwner) internal virtual {... */\n    tag_332:\n        /* \"@openzeppelin/contracts/access/Ownable.sol\":2518:2524  _owner */\n      0x05\n      dup1\n      sload\n      sub(shl(0xa0, 0x01), 0x01)\n        /* \"@openzeppelin/contracts/access/Ownable.sol\":2534:2551  _owner = newOwner */\n      dup4\n      dup2\n      and\n      not(sub(shl(0xa0, 0x01), 0x01))\n      dup4\n      and\n      dup2\n      or\n      swap1\n      swap4\n      sstore\n        /* \"@openzeppelin/contracts/access/Ownable.sol\":2566:2606  OwnershipTransferred(oldOwner, newOwner) */\n      mload(0x40)\n        /* \"@openzeppelin/contracts/access/Ownable.sol\":2518:2524  _owner */\n      swap2\n      and\n      swap2\n        /* \"@openzeppelin/contracts/access/Ownable.sol\":2534:2551  _owner = newOwner */\n      swap1\n        /* \"@openzeppelin/contracts/access/Ownable.sol\":2518:2524  _owner */\n      dup3\n      swap1\n        /* \"@openzeppelin/contracts/access/Ownable.sol\":2566:2606  OwnershipTransferred(oldOwner, newOwner) */\n      0x8be0079c531659141344cd1fd0a4f28419497f9722a3daafe3b4186f6b6457e0\n      swap1\n        /* \"@openzeppelin/contracts/access/Ownable.sol\":2499:2515  address oldOwner */\n      0x00\n      swap1\n        /* \"@openzeppelin/contracts/access/Ownable.sol\":2566:2606  OwnershipTransferred(oldOwner, newOwner) */\n      log3\n        /* \"@openzeppelin/contracts/access/Ownable.sol\":2489:2613  {... */\n      pop\n        /* \"@openzeppelin/contracts/access/Ownable.sol\":2426:2613  function _transferOwnership(address newOwner) internal virtual {... */\n      pop\n      jump\t// out\n        /* \"@openzeppelin/contracts/token/ERC20/ERC20.sol\":7456:8244  function _transfer(address from, address to, uint256 amount) internal virtual {... */\n    tag_395:\n      sub(shl(0xa0, 0x01), 0x01)\n        /* \"@openzeppelin/contracts/token/ERC20/ERC20.sol\":7552:7570  from != address(0) */\n      dup4\n      and\n        /* \"@openzeppelin/contracts/token/ERC20/ERC20.sol\":7544:7612  require(from != address(0), \"ERC20: transfer from the zero address\") */\n      tag_411\n      jumpi\n      mload(0x40)\n      shl(0xe5, 0x461bcd)\n      dup2\n      mstore\n        /* \"#utility.yul\":13055:13057   */\n      0x20\n        /* \"@openzeppelin/contracts/token/ERC20/ERC20.sol\":7544:7612  require(from != address(0), \"ERC20: transfer from the zero address\") */\n      0x04\n      dup3\n      add\n        /* \"#utility.yul\":13037:13058   */\n      mstore\n        /* \"#utility.yul\":13094:13096   */\n      0x25\n        /* \"#utility.yul\":13074:13092   */\n      0x24\n      dup3\n      add\n        /* \"#utility.yul\":13067:13097   */\n      mstore\n        /* \"#utility.yul\":13133:13167   */\n      0x45524332303a207472616e736665722066726f6d20746865207a65726f206164\n        /* \"#utility.yul\":13113:13131   */\n      0x44\n      dup3\n      add\n        /* \"#utility.yul\":13106:13168   */\n      mstore\n      shl(0xd8, 0x6472657373)\n        /* \"#utility.yul\":13184:13202   */\n      0x64\n      dup3\n      add\n        /* \"#utility.yul\":13177:13212   */\n      mstore\n        /* \"#utility.yul\":13229:13248   */\n      0x84\n      add\n        /* \"@openzeppelin/contracts/token/ERC20/ERC20.sol\":7544:7612  require(from != address(0), \"ERC20: transfer from the zero address\") */\n      tag_49\n        /* \"#utility.yul\":12853:13254   */\n      jump\n        /* \"@openzeppelin/contracts/token/ERC20/ERC20.sol\":7544:7612  require(from != address(0), \"ERC20: transfer from the zero address\") */\n    tag_411:\n      sub(shl(0xa0, 0x01), 0x01)\n        /* \"@openzeppelin/contracts/token/ERC20/ERC20.sol\":7630:7646  to != address(0) */\n      dup3\n      and\n        /* \"@openzeppelin/contracts/token/ERC20/ERC20.sol\":7622:7686  require(to != address(0), \"ERC20: transfer to the zero address\") */\n      tag_414\n      jumpi\n      mload(0x40)\n      shl(0xe5, 0x461bcd)\n      dup2\n      mstore\n        /* \"#utility.yul\":13461:13463   */\n      0x20\n        /* \"@openzeppelin/contracts/token/ERC20/ERC20.sol\":7622:7686  require(to != address(0), \"ERC20: transfer to the zero address\") */\n      0x04\n      dup3\n      add\n        /* \"#utility.yul\":13443:13464   */\n      mstore\n        /* \"#utility.yul\":13500:13502   */\n      0x23\n        /* \"#utility.yul\":13480:13498   */\n      0x24\n      dup3\n      add\n        /* \"#utility.yul\":13473:13503   */\n      mstore\n        /* \"#utility.yul\":13539:13573   */\n      0x45524332303a207472616e7366657220746f20746865207a65726f2061646472\n        /* \"#utility.yul\":13519:13537   */\n      0x44\n      dup3\n      add\n        /* \"#utility.yul\":13512:13574   */\n      mstore\n      shl(0xe8, 0x657373)\n        /* \"#utility.yul\":13590:13608   */\n      0x64\n      dup3\n      add\n        /* \"#utility.yul\":13583:13616   */\n      mstore\n        /* \"#utility.yul\":13633:13652   */\n      0x84\n      add\n        /* \"@openzeppelin/contracts/token/ERC20/ERC20.sol\":7622:7686  require(to != address(0), \"ERC20: transfer to the zero address\") */\n      tag_49\n        /* \"#utility.yul\":13259:13658   */\n      jump\n        /* \"@openzeppelin/contracts/token/ERC20/ERC20.sol\":7622:7686  require(to != address(0), \"ERC20: transfer to the zero address\") */\n    tag_414:\n      sub(shl(0xa0, 0x01), 0x01)\n        /* \"@openzeppelin/contracts/token/ERC20/ERC20.sol\":7768:7783  _balances[from] */\n      dup4\n      and\n        /* \"@openzeppelin/contracts/token/ERC20/ERC20.sol\":7746:7765  uint256 fromBalance */\n      0x00\n        /* \"@openzeppelin/contracts/token/ERC20/ERC20.sol\":7768:7783  _balances[from] */\n      swap1\n      dup2\n      mstore\n      0x20\n      dup2\n      swap1\n      mstore\n      0x40\n      swap1\n      keccak256\n      sload\n        /* \"@openzeppelin/contracts/token/ERC20/ERC20.sol\":7801:7822  fromBalance >= amount */\n      dup2\n      dup2\n      lt\n      iszero\n        /* \"@openzeppelin/contracts/token/ERC20/ERC20.sol\":7793:7865  require(fromBalance >= amount, \"ERC20: transfer amount exceeds balance\") */\n      tag_418\n      jumpi\n      mload(0x40)\n      shl(0xe5, 0x461bcd)\n      dup2\n      mstore\n        /* \"#utility.yul\":13865:13867   */\n      0x20\n        /* \"@openzeppelin/contracts/token/ERC20/ERC20.sol\":7793:7865  require(fromBalance >= amount, \"ERC20: transfer amount exceeds balance\") */\n      0x04\n      dup3\n      add\n        /* \"#utility.yul\":13847:13868   */\n      mstore\n        /* \"#utility.yul\":13904:13906   */\n      0x26\n        /* \"#utility.yul\":13884:13902   */\n      0x24\n      dup3\n      add\n        /* \"#utility.yul\":13877:13907   */\n      mstore\n        /* \"#utility.yul\":13943:13977   */\n      0x45524332303a207472616e7366657220616d6f756e7420657863656564732062\n        /* \"#utility.yul\":13923:13941   */\n      0x44\n      dup3\n      add\n        /* \"#utility.yul\":13916:13978   */\n      mstore\n      shl(0xd0, 0x616c616e6365)\n        /* \"#utility.yul\":13994:14012   */\n      0x64\n      dup3\n      add\n        /* \"#utility.yul\":13987:14023   */\n      mstore\n        /* \"#utility.yul\":14040:14059   */\n      0x84\n      add\n        /* \"@openzeppelin/contracts/token/ERC20/ERC20.sol\":7793:7865  require(fromBalance >= amount, \"ERC20: transfer amount exceeds balance\") */\n      tag_49\n        /* \"#utility.yul\":13663:14065   */\n      jump\n        /* \"@openzeppelin/contracts/token/ERC20/ERC20.sol\":7793:7865  require(fromBalance >= amount, \"ERC20: transfer amount exceeds balance\") */\n    tag_418:\n      sub(shl(0xa0, 0x01), 0x01)\n        /* \"@openzeppelin/contracts/token/ERC20/ERC20.sol\":7899:7914  _balances[from] */\n      dup5\n      dup2\n      and\n        /* \"@openzeppelin/contracts/token/ERC20/ERC20.sol\":7899:7908  _balances */\n      0x00\n        /* \"@openzeppelin/contracts/token/ERC20/ERC20.sol\":7899:7914  _balances[from] */\n      dup2\n      dup2\n      mstore\n      0x20\n      dup2\n      dup2\n      mstore\n      0x40\n      dup1\n      dup4\n      keccak256\n        /* \"@openzeppelin/contracts/token/ERC20/ERC20.sol\":7917:7937  fromBalance - amount */\n      dup8\n      dup8\n      sub\n        /* \"@openzeppelin/contracts/token/ERC20/ERC20.sol\":7899:7937  _balances[from] = fromBalance - amount */\n      swap1\n      sstore\n        /* \"@openzeppelin/contracts/token/ERC20/ERC20.sol\":8114:8127  _balances[to] */\n      swap4\n      dup8\n      and\n      dup1\n      dup4\n      mstore\n      swap2\n      dup5\n      swap1\n      keccak256\n        /* \"@openzeppelin/contracts/token/ERC20/ERC20.sol\":8114:8137  _balances[to] += amount */\n      dup1\n      sload\n      dup8\n      add\n      swap1\n      sstore\n        /* \"@openzeppelin/contracts/token/ERC20/ERC20.sol\":8163:8189  Transfer(from, to, amount) */\n      swap3\n      mload\n        /* \"#utility.yul\":1815:1840   */\n      dup6\n      dup2\n      mstore\n        /* \"@openzeppelin/contracts/token/ERC20/ERC20.sol\":8114:8127  _balances[to] */\n      swap1\n      swap3\n        /* \"@openzeppelin/contracts/token/ERC20/ERC20.sol\":8163:8189  Transfer(from, to, amount) */\n      0xddf252ad1be2c89b69c2b068fc378daa952ba7f163c4a11628f55a4df523b3ef\n      swap2\n        /* \"#utility.yul\":1788:1806   */\n      add\n        /* \"@openzeppelin/contracts/token/ERC20/ERC20.sol\":8163:8189  Transfer(from, to, amount) */\n      mload(0x40)\n      dup1\n      swap2\n      sub\n      swap1\n      log3\n        /* \"@openzeppelin/contracts/token/ERC20/ERC20.sol\":7534:8244  {... */\n      pop\n        /* \"@openzeppelin/contracts/token/ERC20/ERC20.sol\":7456:8244  function _transfer(address from, address to, uint256 amount) internal virtual {... */\n      pop\n      pop\n      pop\n      jump\t// out\n        /* \"#utility.yul\":419:1016   */\n    tag_55:\n        /* \"#utility.yul\":531:535   */\n      0x00\n        /* \"#utility.yul\":560:562   */\n      0x20\n        /* \"#utility.yul\":589:591   */\n      dup1\n        /* \"#utility.yul\":578:587   */\n      dup4\n        /* \"#utility.yul\":571:592   */\n      mstore\n        /* \"#utility.yul\":621:627   */\n      dup4\n        /* \"#utility.yul\":615:628   */\n      mload\n        /* \"#utility.yul\":664:670   */\n      dup1\n        /* \"#utility.yul\":659:661   */\n      dup3\n        /* \"#utility.yul\":648:657   */\n      dup6\n        /* \"#utility.yul\":644:662   */\n      add\n        /* \"#utility.yul\":637:671   */\n      mstore\n        /* \"#utility.yul\":689:690   */\n      0x00\n        /* \"#utility.yul\":699:839   */\n    tag_430:\n        /* \"#utility.yul\":713:719   */\n      dup2\n        /* \"#utility.yul\":710:711   */\n      dup2\n        /* \"#utility.yul\":707:720   */\n      lt\n        /* \"#utility.yul\":699:839   */\n      iszero\n      tag_432\n      jumpi\n        /* \"#utility.yul\":808:822   */\n      dup6\n      dup2\n      add\n        /* \"#utility.yul\":804:827   */\n      dup4\n      add\n        /* \"#utility.yul\":798:828   */\n      mload\n        /* \"#utility.yul\":774:791   */\n      dup6\n      dup3\n      add\n        /* \"#utility.yul\":793:795   */\n      0x40\n        /* \"#utility.yul\":770:796   */\n      add\n        /* \"#utility.yul\":763:829   */\n      mstore\n        /* \"#utility.yul\":728:738   */\n      dup3\n      add\n        /* \"#utility.yul\":699:839   */\n      jump(tag_430)\n    tag_432:\n        /* \"#utility.yul\":857:863   */\n      dup2\n        /* \"#utility.yul\":854:855   */\n      dup2\n        /* \"#utility.yul\":851:864   */\n      gt\n        /* \"#utility.yul\":848:939   */\n      iszero\n      tag_433\n      jumpi\n        /* \"#utility.yul\":927:928   */\n      0x00\n        /* \"#utility.yul\":922:924   */\n      0x40\n        /* \"#utility.yul\":913:919   */\n      dup4\n        /* \"#utility.yul\":902:911   */\n      dup8\n        /* \"#utility.yul\":898:920   */\n      add\n        /* \"#utility.yul\":894:925   */\n      add\n        /* \"#utility.yul\":887:929   */\n      mstore\n        /* \"#utility.yul\":848:939   */\n    tag_433:\n      pop\n        /* \"#utility.yul\":1000:1002   */\n      0x1f\n        /* \"#utility.yul\":979:994   */\n      add\n      not(0x1f)\n        /* \"#utility.yul\":975:1004   */\n      and\n        /* \"#utility.yul\":960:1005   */\n      swap3\n      swap1\n      swap3\n      add\n        /* \"#utility.yul\":1007:1009   */\n      0x40\n        /* \"#utility.yul\":956:1010   */\n      add\n      swap4\n        /* \"#utility.yul\":419:1016   */\n      swap3\n      pop\n      pop\n      pop\n      jump\t// out\n        /* \"#utility.yul\":1021:1152   */\n    tag_425:\n      sub(shl(0xa0, 0x01), 0x01)\n        /* \"#utility.yul\":1096:1127   */\n      dup2\n      and\n        /* \"#utility.yul\":1086:1128   */\n      dup2\n      eq\n        /* \"#utility.yul\":1076:1146   */\n      tag_257\n      jumpi\n        /* \"#utility.yul\":1142:1143   */\n      0x00\n        /* \"#utility.yul\":1139:1140   */\n      dup1\n        /* \"#utility.yul\":1132:1144   */\n      revert\n        /* \"#utility.yul\":1157:1472   */\n    tag_59:\n        /* \"#utility.yul\":1225:1231   */\n      0x00\n        /* \"#utility.yul\":1233:1239   */\n      dup1\n        /* \"#utility.yul\":1286:1288   */\n      0x40\n        /* \"#utility.yul\":1274:1283   */\n      dup4\n        /* \"#utility.yul\":1265:1272   */\n      dup6\n        /* \"#utility.yul\":1261:1284   */\n      sub\n        /* \"#utility.yul\":1257:1289   */\n      slt\n        /* \"#utility.yul\":1254:1306   */\n      iszero\n      tag_437\n      jumpi\n        /* \"#utility.yul\":1302:1303   */\n      0x00\n        /* \"#utility.yul\":1299:1300   */\n      dup1\n        /* \"#utility.yul\":1292:1304   */\n      revert\n        /* \"#utility.yul\":1254:1306   */\n    tag_437:\n        /* \"#utility.yul\":1341:1350   */\n      dup3\n        /* \"#utility.yul\":1328:1351   */\n      calldataload\n        /* \"#utility.yul\":1360:1391   */\n      tag_438\n        /* \"#utility.yul\":1385:1390   */\n      dup2\n        /* \"#utility.yul\":1360:1391   */\n      tag_425\n      jump\t// in\n    tag_438:\n        /* \"#utility.yul\":1410:1415   */\n      swap5\n        /* \"#utility.yul\":1462:1464   */\n      0x20\n        /* \"#utility.yul\":1447:1465   */\n      swap4\n      swap1\n      swap4\n      add\n        /* \"#utility.yul\":1434:1466   */\n      calldataload\n      swap4\n      pop\n      pop\n      pop\n        /* \"#utility.yul\":1157:1472   */\n      jump\t// out\n        /* \"#utility.yul\":1851:2098   */\n    tag_75:\n        /* \"#utility.yul\":1910:1916   */\n      0x00\n        /* \"#utility.yul\":1963:1965   */\n      0x20\n        /* \"#utility.yul\":1951:1960   */\n      dup3\n        /* \"#utility.yul\":1942:1949   */\n      dup5\n        /* \"#utility.yul\":1938:1961   */\n      sub\n        /* \"#utility.yul\":1934:1966   */\n      slt\n        /* \"#utility.yul\":1931:1983   */\n      iszero\n      tag_442\n      jumpi\n        /* \"#utility.yul\":1979:1980   */\n      0x00\n        /* \"#utility.yul\":1976:1977   */\n      dup1\n        /* \"#utility.yul\":1969:1981   */\n      revert\n        /* \"#utility.yul\":1931:1983   */\n    tag_442:\n        /* \"#utility.yul\":2018:2027   */\n      dup2\n        /* \"#utility.yul\":2005:2028   */\n      calldataload\n        /* \"#utility.yul\":2037:2068   */\n      tag_443\n        /* \"#utility.yul\":2062:2067   */\n      dup2\n        /* \"#utility.yul\":2037:2068   */\n      tag_425\n      jump\t// in\n    tag_443:\n        /* \"#utility.yul\":2087:2092   */\n      swap4\n        /* \"#utility.yul\":1851:2098   */\n      swap3\n      pop\n      pop\n      pop\n      jump\t// out\n        /* \"#utility.yul\":2103:2559   */\n    tag_80:\n        /* \"#utility.yul\":2180:2186   */\n      0x00\n        /* \"#utility.yul\":2188:2194   */\n      dup1\n        /* \"#utility.yul\":2196:2202   */\n      0x00\n        /* \"#utility.yul\":2249:2251   */\n      0x60\n        /* \"#utility.yul\":2237:2246   */\n      dup5\n        /* \"#utility.yul\":2228:2235   */\n      dup7\n        /* \"#utility.yul\":2224:2247   */\n      sub\n        /* \"#utility.yul\":2220:2252   */\n      slt\n        /* \"#utility.yul\":2217:2269   */\n      iszero\n      tag_445\n      jumpi\n        /* \"#utility.yul\":2265:2266   */\n      0x00\n        /* \"#utility.yul\":2262:2263   */\n      dup1\n        /* \"#utility.yul\":2255:2267   */\n      revert\n        /* \"#utility.yul\":2217:2269   */\n    tag_445:\n        /* \"#utility.yul\":2304:2313   */\n      dup4\n        /* \"#utility.yul\":2291:2314   */\n      calldataload\n        /* \"#utility.yul\":2323:2354   */\n      tag_446\n        /* \"#utility.yul\":2348:2353   */\n      dup2\n        /* \"#utility.yul\":2323:2354   */\n      tag_425\n      jump\t// in\n    tag_446:\n        /* \"#utility.yul\":2373:2378   */\n      swap3\n      pop\n        /* \"#utility.yul\":2430:2432   */\n      0x20\n        /* \"#utility.yul\":2415:2433   */\n      dup5\n      add\n        /* \"#utility.yul\":2402:2434   */\n      calldataload\n        /* \"#utility.yul\":2443:2476   */\n      tag_447\n        /* \"#utility.yul\":2402:2434   */\n      dup2\n        /* \"#utility.yul\":2443:2476   */\n      tag_425\n      jump\t// in\n    tag_447:\n        /* \"#utility.yul\":2103:2559   */\n      swap3\n      swap6\n        /* \"#utility.yul\":2495:2502   */\n      swap3\n      swap5\n      pop\n      pop\n      pop\n        /* \"#utility.yul\":2549:2551   */\n      0x40\n        /* \"#utility.yul\":2534:2552   */\n      swap2\n      swap1\n      swap2\n      add\n        /* \"#utility.yul\":2521:2553   */\n      calldataload\n      swap1\n        /* \"#utility.yul\":2103:2559   */\n      jump\t// out\n        /* \"#utility.yul\":2753:2933   */\n    tag_105:\n        /* \"#utility.yul\":2812:2818   */\n      0x00\n        /* \"#utility.yul\":2865:2867   */\n      0x20\n        /* \"#utility.yul\":2853:2862   */\n      dup3\n        /* \"#utility.yul\":2844:2851   */\n      dup5\n        /* \"#utility.yul\":2840:2863   */\n      sub\n        /* \"#utility.yul\":2836:2868   */\n      slt\n        /* \"#utility.yul\":2833:2885   */\n      iszero\n      tag_450\n      jumpi\n        /* \"#utility.yul\":2881:2882   */\n      0x00\n        /* \"#utility.yul\":2878:2879   */\n      dup1\n        /* \"#utility.yul\":2871:2883   */\n      revert\n        /* \"#utility.yul\":2833:2885   */\n    tag_450:\n      pop\n        /* \"#utility.yul\":2904:2927   */\n      calldataload\n      swap2\n        /* \"#utility.yul\":2753:2933   */\n      swap1\n      pop\n      jump\t// out\n        /* \"#utility.yul\":3605:3993   */\n    tag_201:\n        /* \"#utility.yul\":3673:3679   */\n      0x00\n        /* \"#utility.yul\":3681:3687   */\n      dup1\n        /* \"#utility.yul\":3734:3736   */\n      0x40\n        /* \"#utility.yul\":3722:3731   */\n      dup4\n        /* \"#utility.yul\":3713:3720   */\n      dup6\n        /* \"#utility.yul\":3709:3732   */\n      sub\n        /* \"#utility.yul\":3705:3737   */\n      slt\n        /* \"#utility.yul\":3702:3754   */\n      iszero\n      tag_455\n      jumpi\n        /* \"#utility.yul\":3750:3751   */\n      0x00\n        /* \"#utility.yul\":3747:3748   */\n      dup1\n        /* \"#utility.yul\":3740:3752   */\n      revert\n        /* \"#utility.yul\":3702:3754   */\n    tag_455:\n        /* \"#utility.yul\":3789:3798   */\n      dup3\n        /* \"#utility.yul\":3776:3799   */\n      calldataload\n        /* \"#utility.yul\":3808:3839   */\n      tag_456\n        /* \"#utility.yul\":3833:3838   */\n      dup2\n        /* \"#utility.yul\":3808:3839   */\n      tag_425\n      jump\t// in\n    tag_456:\n        /* \"#utility.yul\":3858:3863   */\n      swap2\n      pop\n        /* \"#utility.yul\":3915:3917   */\n      0x20\n        /* \"#utility.yul\":3900:3918   */\n      dup4\n      add\n        /* \"#utility.yul\":3887:3919   */\n      calldataload\n        /* \"#utility.yul\":3928:3961   */\n      tag_457\n        /* \"#utility.yul\":3887:3919   */\n      dup2\n        /* \"#utility.yul\":3928:3961   */\n      tag_425\n      jump\t// in\n    tag_457:\n        /* \"#utility.yul\":3980:3987   */\n      dup1\n        /* \"#utility.yul\":3970:3987   */\n      swap2\n      pop\n      pop\n        /* \"#utility.yul\":3605:3993   */\n      swap3\n      pop\n      swap3\n      swap1\n      pop\n      jump\t// out\n        /* \"#utility.yul\":3998:4378   */\n    tag_222:\n        /* \"#utility.yul\":4077:4078   */\n      0x01\n        /* \"#utility.yul\":4073:4085   */\n      dup2\n      dup2\n      shr\n      swap1\n        /* \"#utility.yul\":4120:4132   */\n      dup3\n      and\n      dup1\n        /* \"#utility.yul\":4141:4202   */\n      tag_459\n      jumpi\n        /* \"#utility.yul\":4195:4199   */\n      0x7f\n        /* \"#utility.yul\":4187:4193   */\n      dup3\n        /* \"#utility.yul\":4183:4200   */\n      and\n        /* \"#utility.yul\":4173:4200   */\n      swap2\n      pop\n        /* \"#utility.yul\":4141:4202   */\n    tag_459:\n        /* \"#utility.yul\":4248:4250   */\n      0x20\n        /* \"#utility.yul\":4240:4246   */\n      dup3\n        /* \"#utility.yul\":4237:4251   */\n      lt\n        /* \"#utility.yul\":4217:4235   */\n      dup2\n        /* \"#utility.yul\":4214:4252   */\n      sub\n        /* \"#utility.yul\":4211:4372   */\n      tag_460\n      jumpi\n        /* \"#utility.yul\":4294:4304   */\n      0x4e487b71\n        /* \"#utility.yul\":4289:4292   */\n      0xe0\n        /* \"#utility.yul\":4285:4305   */\n      shl\n        /* \"#utility.yul\":4282:4283   */\n      0x00\n        /* \"#utility.yul\":4275:4306   */\n      mstore\n        /* \"#utility.yul\":4329:4333   */\n      0x22\n        /* \"#utility.yul\":4326:4327   */\n      0x04\n        /* \"#utility.yul\":4319:4334   */\n      mstore\n        /* \"#utility.yul\":4357:4361   */\n      0x24\n        /* \"#utility.yul\":4354:4355   */\n      0x00\n        /* \"#utility.yul\":4347:4362   */\n      revert\n        /* \"#utility.yul\":4211:4372   */\n    tag_460:\n      pop\n        /* \"#utility.yul\":3998:4378   */\n      swap2\n      swap1\n      pop\n      jump\t// out\n        /* \"#utility.yul\":4792:4919   */\n    tag_426:\n        /* \"#utility.yul\":4853:4863   */\n      0x4e487b71\n        /* \"#utility.yul\":4848:4851   */\n      0xe0\n        /* \"#utility.yul\":4844:4864   */\n      shl\n        /* \"#utility.yul\":4841:4842   */\n      0x00\n        /* \"#utility.yul\":4834:4865   */\n      mstore\n        /* \"#utility.yul\":4884:4888   */\n      0x11\n        /* \"#utility.yul\":4881:4882   */\n      0x04\n        /* \"#utility.yul\":4874:4889   */\n      mstore\n        /* \"#utility.yul\":4908:4912   */\n      0x24\n        /* \"#utility.yul\":4905:4906   */\n      0x00\n        /* \"#utility.yul\":4898:4913   */\n      revert\n        /* \"#utility.yul\":4924:5049   */\n    tag_248:\n        /* \"#utility.yul\":4964:4968   */\n      0x00\n        /* \"#utility.yul\":4992:4993   */\n      dup3\n        /* \"#utility.yul\":4989:4990   */\n      dup3\n        /* \"#utility.yul\":4986:4994   */\n      lt\n        /* \"#utility.yul\":4983:5017   */\n      iszero\n      tag_465\n      jumpi\n        /* \"#utility.yul\":4997:5015   */\n      tag_465\n      tag_426\n      jump\t// in\n    tag_465:\n      pop\n        /* \"#utility.yul\":5034:5043   */\n      sub\n      swap1\n        /* \"#utility.yul\":4924:5049   */\n      jump\t// out\n        /* \"#utility.yul\":5054:5182   */\n    tag_255:\n        /* \"#utility.yul\":5094:5097   */\n      0x00\n        /* \"#utility.yul\":5125:5126   */\n      dup3\n        /* \"#utility.yul\":5121:5127   */\n      not\n        /* \"#utility.yul\":5118:5119   */\n      dup3\n        /* \"#utility.yul\":5115:5128   */\n      gt\n        /* \"#utility.yul\":5112:5151   */\n      iszero\n      tag_468\n      jumpi\n        /* \"#utility.yul\":5131:5149   */\n      tag_468\n      tag_426\n      jump\t// in\n    tag_468:\n      pop\n        /* \"#utility.yul\":5167:5176   */\n      add\n      swap1\n        /* \"#utility.yul\":5054:5182   */\n      jump\t// out\n        /* \"#utility.yul\":5474:5751   */\n    tag_272:\n        /* \"#utility.yul\":5541:5547   */\n      0x00\n        /* \"#utility.yul\":5594:5596   */\n      0x20\n        /* \"#utility.yul\":5582:5591   */\n      dup3\n        /* \"#utility.yul\":5573:5580   */\n      dup5\n        /* \"#utility.yul\":5569:5592   */\n      sub\n        /* \"#utility.yul\":5565:5597   */\n      slt\n        /* \"#utility.yul\":5562:5614   */\n      iszero\n      tag_471\n      jumpi\n        /* \"#utility.yul\":5610:5611   */\n      0x00\n        /* \"#utility.yul\":5607:5608   */\n      dup1\n        /* \"#utility.yul\":5600:5612   */\n      revert\n        /* \"#utility.yul\":5562:5614   */\n    tag_471:\n        /* \"#utility.yul\":5642:5651   */\n      dup2\n        /* \"#utility.yul\":5636:5652   */\n      mload\n        /* \"#utility.yul\":5695:5700   */\n      dup1\n        /* \"#utility.yul\":5688:5701   */\n      iszero\n        /* \"#utility.yul\":5681:5702   */\n      iszero\n        /* \"#utility.yul\":5674:5679   */\n      dup2\n        /* \"#utility.yul\":5671:5703   */\n      eq\n        /* \"#utility.yul\":5661:5721   */\n      tag_443\n      jumpi\n        /* \"#utility.yul\":5717:5718   */\n      0x00\n        /* \"#utility.yul\":5714:5715   */\n      dup1\n        /* \"#utility.yul\":5707:5719   */\n      revert\n        /* \"#utility.yul\":6933:7184   */\n    tag_313:\n        /* \"#utility.yul\":7003:7009   */\n      0x00\n        /* \"#utility.yul\":7056:7058   */\n      0x20\n        /* \"#utility.yul\":7044:7053   */\n      dup3\n        /* \"#utility.yul\":7035:7042   */\n      dup5\n        /* \"#utility.yul\":7031:7054   */\n      sub\n        /* \"#utility.yul\":7027:7059   */\n      slt\n        /* \"#utility.yul\":7024:7076   */\n      iszero\n      tag_477\n      jumpi\n        /* \"#utility.yul\":7072:7073   */\n      0x00\n        /* \"#utility.yul\":7069:7070   */\n      dup1\n        /* \"#utility.yul\":7062:7074   */\n      revert\n        /* \"#utility.yul\":7024:7076   */\n    tag_477:\n        /* \"#utility.yul\":7104:7113   */\n      dup2\n        /* \"#utility.yul\":7098:7114   */\n      mload\n        /* \"#utility.yul\":7123:7154   */\n      tag_443\n        /* \"#utility.yul\":7148:7153   */\n      dup2\n        /* \"#utility.yul\":7123:7154   */\n      tag_425\n      jump\t// in\n\n    auxdata: 0xa26469706673582212206830b48297af5b93230bacd91ce9a9a57dd94d0d8827d632d582b8bff1f2358864736f6c634300080e0033\n}\n",
				"bytecode": {
					"linkReferences": {},
					"object": "60806040526103e8600954620000169190620005f6565b600755600880546001600160a01b0319167376e98f575e5b6382ff3bc9e988f9920984f2a57617905561dead60009081526020527f44ad89ba62b98ff34f51403ac22759b55759460c0bb5521eb4b6ee3cff49cf835462000085906c0e063191caf768f40cc2bc000062000619565b600955600a80546001600160a01b0319167376e98f575e5b6382ff3bc9e988f9920984f2a576179055348015620000bb57600080fd5b506040518060400160405280600381526020016241314d60e81b8152506040518060400160405280600381526020016241314d60e81b81525081600390805190602001906200010c9291906200053a565b508051620001229060049060208401906200053a565b5050506200013f620001396200041e60201b60201c565b62000422565b62000158336c0e063191caf768f40cc2bc000062000474565b600c80546001600160a01b031916734cf76043b3f97ba06917cbd90f9e3a2aac1b306e9081179091556040805163c45a015560e01b81529051829163c45a01559160048083019260209291908290030181865afa158015620001be573d6000803e3d6000fd5b505050506040513d601f19601f82011682018060405250810190620001e4919062000633565b6001600160a01b031663c9c6539630836001600160a01b031663ad5c46486040518163ffffffff1660e01b8152600401602060405180830381865afa15801562000232573d6000803e3d6000fd5b505050506040513d601f19601f8201168201806040525081019062000258919062000633565b6040516001600160e01b031960e085901b1681526001600160a01b039283166004820152911660248201526044016020604051808303816000875af1158015620002a6573d6000803e3d6000fd5b505050506040513d601f19601f82011682018060405250810190620002cc919062000633565b600b80546001600160a01b039283166001600160a01b031991821617909155600d8054909116734cf76043b3f97ba06917cbd90f9e3a2aac1b306e17905533600081815260106020526040808220805460ff1990811660019081179092557f9a8f3285986f133c5ab38a828780fbebff64111ad29b63b7783e7e3874351ca680548216831790557f9e93e1db4a1f807cc22b2aecf4deeb0bf5745f1ecb319e87c68c5624c0fa6b698054821683179055600c549095168352818320805490951617909355915190916000805160206200204383398151915291a26040517376e98f575e5b6382ff3bc9e988f9920984f2a576906000805160206200204383398151915290600090a260405161dead906000805160206200204383398151915290600090a2600c546040516001600160a01b03909116906000805160206200204383398151915290600090a250620006bc565b3390565b600580546001600160a01b038381166001600160a01b0319831681179093556040519116919082907f8be0079c531659141344cd1fd0a4f28419497f9722a3daafe3b4186f6b6457e090600090a35050565b6001600160a01b038216620004cf5760405162461bcd60e51b815260206004820152601f60248201527f45524332303a206d696e7420746f20746865207a65726f206164647265737300604482015260640160405180910390fd5b8060026000828254620004e3919062000665565b90915550506001600160a01b038216600081815260208181526040808320805486019055518481527fddf252ad1be2c89b69c2b068fc378daa952ba7f163c4a11628f55a4df523b3ef910160405180910390a35050565b828054620005489062000680565b90600052602060002090601f0160209004810192826200056c5760008555620005b7565b82601f106200058757805160ff1916838001178555620005b7565b82800160010185558215620005b7579182015b82811115620005b75782518255916020019190600101906200059a565b50620005c5929150620005c9565b5090565b5b80821115620005c55760008155600101620005ca565b634e487b7160e01b600052601160045260246000fd5b6000826200061457634e487b7160e01b600052601260045260246000fd5b500490565b6000828210156200062e576200062e620005e0565b500390565b6000602082840312156200064657600080fd5b81516001600160a01b03811681146200065e57600080fd5b9392505050565b600082198211156200067b576200067b620005e0565b500190565b600181811c908216806200069557607f821691505b602082108103620006b657634e487b7160e01b600052602260045260246000fd5b50919050565b61197780620006cc6000396000f3fe60806040526004361061021e5760003560e01c80638da5cb5b11610123578063c31c9c07116100ab578063dd62ed3e1161006f578063dd62ed3e146106ab578063e9451f5f146102fb578063eafb5a3c146106cb578063f2fde38b146106eb578063fdf3dd9c1461070b57600080fd5b8063c31c9c07146105e5578063c816841b1461060a578063c831f6061461062a578063d89135cd14610657578063dc9d75b01461069657600080fd5b8063a01c3483116100f2578063a01c34831461054f578063a457c2d714610565578063a9059cbb14610585578063b2bdfa7b146105a5578063be3898de146105c557600080fd5b80638da5cb5b146104f15780639358928b1461050f57806395d89b4114610524578063984ae06e1461053957600080fd5b80633fd8b02f116101a657806367e00e881161017557806367e00e881461041e57806370a082311461044e578063715018a614610484578063735de9f7146104995780638cd4426d146104d157600080fd5b80633fd8b02f146103be57806342966c68146103d3578063469132ce146103f357806354de7bee1461040957600080fd5b8063227b453f116101ed578063227b453f1461031057806323b872dd146103325780633078381c14610352578063313ce56714610382578063395093511461039e57600080fd5b806306fdde0314610281578063095ea7b3146102ac57806318160ddd146102dc5780631dc36945146102fb57600080fd5b3661027c5760405162461bcd60e51b8152602060048201526024808201527f44697265637420455448207472616e736665727320617265206e6f7420616c6c6044820152631bddd95960e21b60648201526084015b60405180910390fd5b600080fd5b34801561028d57600080fd5b5061029661072b565b6040516102a39190611736565b60405180910390f35b3480156102b857600080fd5b506102cc6102c73660046117a0565b6107bd565b60405190151581526020016102a3565b3480156102e857600080fd5b506002545b6040519081526020016102a3565b34801561030757600080fd5b506102ed600181565b34801561031c57600080fd5b5061033061032b3660046117cc565b6107d5565b005b34801561033e57600080fd5b506102cc61034d3660046117f0565b6107fe565b34801561035e57600080fd5b506102cc61036d3660046117cc565b60106020526000908152604090205460ff1681565b34801561038e57600080fd5b50604051601281526020016102a3565b3480156103aa57600080fd5b506102cc6103b93660046117a0565b610899565b3480156103ca57600080fd5b506102ed603c81565b3480156103df57600080fd5b506103306103ee366004611831565b6108b6565b3480156103ff57600080fd5b506102ed60075481565b34801561041557600080fd5b506102ed600081565b34801561042a57600080fd5b506102cc6104393660046117cc565b60116020526000908152604090205460ff1681565b34801561045a57600080fd5b506102ed6104693660046117cc565b6001600160a01b031660009081526020819052604090205490565b34801561049057600080fd5b506103306108c3565b3480156104a557600080fd5b50600c546104b9906001600160a01b031681565b6040516001600160a01b0390911681526020016102a3565b3480156104dd57600080fd5b506103306104ec3660046117a0565b610915565b3480156104fd57600080fd5b506005546001600160a01b03166104b9565b34801561051b57600080fd5b506102ed610999565b34801561053057600080fd5b506102966109e4565b34801561054557600080fd5b506102ed60095481565b34801561055b57600080fd5b506104b961dead81565b34801561057157600080fd5b506102cc6105803660046117a0565b6109f3565b34801561059157600080fd5b506102cc6105a03660046117a0565b610a6e565b3480156105b157600080fd5b506006546104b9906001600160a01b031681565b3480156105d157600080fd5b506008546104b9906001600160a01b031681565b3480156105f157600080fd5b506013546104b99061010090046001600160a01b031681565b34801561061657600080fd5b50600b546104b9906001600160a01b031681565b34801561063657600080fd5b506102ed6106453660046117cc565b600f6020526000908152604090205481565b34801561066357600080fd5b5061dead60009081526020527f44ad89ba62b98ff34f51403ac22759b55759460c0bb5521eb4b6ee3cff49cf83546102ed565b3480156106a257600080fd5b506102ed606481565b3480156106b757600080fd5b506102ed6106c636600461184a565b610af5565b3480156106d757600080fd5b506103306106e63660046117cc565b610b20565b3480156106f757600080fd5b506103306107063660046117cc565b610d65565b34801561071757600080fd5b506103306107263660046117cc565b610ddb565b60606003805461073a90611883565b80601f016020809104026020016040519081016040528092919081815260200182805461076690611883565b80156107b35780601f10610788576101008083540402835291602001916107b3565b820191906000526020600020905b81548152906001019060200180831161079657829003601f168201915b5050505050905090565b6000336107cb818585610e07565b5060019392505050565b6107dd610f2b565b6001600160a01b03166000908152601060205260409020805460ff19169055565b600061080b848484610f87565b60006108178533610af5565b90508281101561087a5760405162461bcd60e51b815260206004820152602860248201527f45524332303a207472616e7366657220616d6f756e74206578636565647320616044820152676c6c6f77616e636560c01b6064820152608401610273565b61088e853361088986856118d3565b610e07565b506001949350505050565b6000336107cb8185856108ac8383610af5565b61088991906118ea565b6108c0338261140d565b50565b6108cb610f2b565b6005546040516001600160a01b03909116907ff8df31144d9c2f0f6b59d69b8b98abd5459d07f2742c4df920b25aae33c6482090600090a2600680546001600160a01b0319169055565b61091d610f2b565b60085460405163a9059cbb60e01b81526001600160a01b039182166004820152602481018390529083169063a9059cbb906044016020604051808303816000875af1158015610970573d6000803e3d6000fd5b505050506040513d601f19601f820116820180604052508101906109949190611902565b505050565b61dead600090815260208190527f44ad89ba62b98ff34f51403ac22759b55759460c0bb5521eb4b6ee3cff49cf83546109df906c0e063191caf768f40cc2bc00006118d3565b905090565b60606004805461073a90611883565b60003381610a018286610af5565b905083811015610a615760405162461bcd60e51b815260206004820152602560248201527f45524332303a2064656372656173656420616c6c6f77616e63652062656c6f77604482015264207a65726f60d81b6064820152608401610273565b61088e8286868403610e07565b6000333b1580610a885750600d546001600160a01b031633145b80610a9d5750600b546001600160a01b031633145b610ae95760405162461bcd60e51b815260206004820152601c60248201527f426f747320617265206e6f7420616c6c6f77656420746f2073656c6c000000006044820152606401610273565b336107cb818585610f87565b6001600160a01b03918216600090815260016020908152604080832093909416825291909152205490565b610b28610f2b565b6001600160a01b038116610b945760405162461bcd60e51b815260206004820152602d60248201527f4e657720726f7574657220616464726573732063616e6e6f742062652074686560448201526c207a65726f206164647265737360981b6064820152608401610273565b60008190506000816001600160a01b031663c45a01556040518163ffffffff1660e01b8152600401602060405180830381865afa158015610bd9573d6000803e3d6000fd5b505050506040513d601f19601f82011682018060405250810190610bfd9190611924565b6001600160a01b031663c9c6539630846001600160a01b031663ad5c46486040518163ffffffff1660e01b8152600401602060405180830381865afa158015610c4a573d6000803e3d6000fd5b505050506040513d601f19601f82011682018060405250810190610c6e9190611924565b6040516001600160e01b031960e085901b1681526001600160a01b039283166004820152911660248201526044016020604051808303816000875af1158015610cbb573d6000803e3d6000fd5b505050506040513d601f19601f82011682018060405250810190610cdf9190611924565b90506001600160a01b038116610d2c5760405162461bcd60e51b815260206004820152601260248201527113995dc81c185a5c881b9bdd08199bdd5b9960721b6044820152606401610273565b600c80546001600160a01b0319166001600160a01b03938416179055166000908152601160205260409020805460ff1916600117905550565b610d6d610f2b565b6001600160a01b038116610dd25760405162461bcd60e51b815260206004820152602660248201527f4f776e61626c653a206e6577206f776e657220697320746865207a65726f206160448201526564647265737360d01b6064820152608401610273565b6108c08161153f565b610de3610f2b565b6001600160a01b03166000908152601060205260409020805460ff19166001179055565b6001600160a01b038316610e695760405162461bcd60e51b8152602060048201526024808201527f45524332303a20617070726f76652066726f6d20746865207a65726f206164646044820152637265737360e01b6064820152608401610273565b6001600160a01b038216610eca5760405162461bcd60e51b815260206004820152602260248201527f45524332303a20617070726f766520746f20746865207a65726f206164647265604482015261737360f01b6064820152608401610273565b6001600160a01b0383811660008181526001602090815260408083209487168084529482529182902085905590518481527f8c5be1e5ebec7d5bd14f71427d1e84f3dd0314c0f7b2291e5b200ac8c7c3b925910160405180910390a3505050565b6005546001600160a01b03163314610f855760405162461bcd60e51b815260206004820181905260248201527f4f776e61626c653a2063616c6c6572206973206e6f7420746865206f776e65726044820152606401610273565b565b323314610fe05760405162461bcd60e51b815260206004820152602160248201527f436f6e74726163747320617265206e6f7420616c6c6f77656420746f2073656c6044820152601b60fa1b6064820152608401610273565b600081116110425760405162461bcd60e51b815260206004820152602960248201527f5472616e7366657220616d6f756e74206d7573742062652067726561746572206044820152687468616e207a65726f60b81b6064820152608401610273565b80611062846001600160a01b031660009081526020819052604090205490565b10156110a75760405162461bcd60e51b8152602060048201526014602482015273496e73756666696369656e742062616c616e636560601b6044820152606401610273565b61deac196001600160a01b038316016110d25780600960008282546110cc91906118d3565b90915550505b600a546001600160a01b0384811691161461116c576007548161110a846001600160a01b031660009081526020819052604090205490565b61111491906118ea565b111561116c5760405162461bcd60e51b815260206004820152602160248201527f45786365656473206d6178696d756d20746f6b656e73207065722077616c6c656044820152601d60fa1b6064820152608401610273565b6001600160a01b03831660009081526010602052604090205460ff161580156111a357506005546001600160a01b03848116911614155b80156111bd5750600c546001600160a01b03848116911614155b1561122a576001600160a01b0383166000908152600f602052604090205442101561122a5760405162461bcd60e51b815260206004820152601960248201527f54696d65206c6f636b206973207374696c6c20616374697665000000000000006044820152606401610273565b6001600160a01b03821660009081526010602052604090205460ff1615801561126157506005546001600160a01b03838116911614155b801561127b5750600c546001600160a01b03838116911614155b15611327576001600160a01b0382166000908152600f602052604090205415806112bd57506001600160a01b0382166000908152600f60205260409020544210155b6113025760405162461bcd60e51b8152602060048201526016602482015275526563697069656e7420696e2074696d65206c6f636b60501b6044820152606401610273565b61130d603c426118ea565b6001600160a01b0383166000908152600f60205260409020555b600b546001600160a01b0383811691161480156113525750600c546001600160a01b03848116911614155b15611402576001600160a01b0383166000908152600f6020526040902054156113dd576001600160a01b0383166000908152600f60205260409020544210156113dd5760405162461bcd60e51b815260206004820152601e60248201527f53656c6c2074696d65206c6f636b206973207374696c6c2061637469766500006044820152606401610273565b6113e8603c426118ea565b6001600160a01b0384166000908152600f60205260409020555b610994838383611591565b6001600160a01b03821661146d5760405162461bcd60e51b815260206004820152602160248201527f45524332303a206275726e2066726f6d20746865207a65726f206164647265736044820152607360f81b6064820152608401610273565b6001600160a01b038216600090815260208190526040902054818110156114e15760405162461bcd60e51b815260206004820152602260248201527f45524332303a206275726e20616d6f756e7420657863656564732062616c616e604482015261636560f01b6064820152608401610273565b6001600160a01b0383166000818152602081815260408083208686039055600280548790039055518581529192917fddf252ad1be2c89b69c2b068fc378daa952ba7f163c4a11628f55a4df523b3ef910160405180910390a3505050565b600580546001600160a01b038381166001600160a01b0319831681179093556040519116919082907f8be0079c531659141344cd1fd0a4f28419497f9722a3daafe3b4186f6b6457e090600090a35050565b6001600160a01b0383166115f55760405162461bcd60e51b815260206004820152602560248201527f45524332303a207472616e736665722066726f6d20746865207a65726f206164604482015264647265737360d81b6064820152608401610273565b6001600160a01b0382166116575760405162461bcd60e51b815260206004820152602360248201527f45524332303a207472616e7366657220746f20746865207a65726f206164647260448201526265737360e81b6064820152608401610273565b6001600160a01b038316600090815260208190526040902054818110156116cf5760405162461bcd60e51b815260206004820152602660248201527f45524332303a207472616e7366657220616d6f756e7420657863656564732062604482015265616c616e636560d01b6064820152608401610273565b6001600160a01b03848116600081815260208181526040808320878703905593871680835291849020805487019055925185815290927fddf252ad1be2c89b69c2b068fc378daa952ba7f163c4a11628f55a4df523b3ef910160405180910390a350505050565b600060208083528351808285015260005b8181101561176357858101830151858201604001528201611747565b81811115611775576000604083870101525b50601f01601f1916929092016040019392505050565b6001600160a01b03811681146108c057600080fd5b600080604083850312156117b357600080fd5b82356117be8161178b565b946020939093013593505050565b6000602082840312156117de57600080fd5b81356117e98161178b565b9392505050565b60008060006060848603121561180557600080fd5b83356118108161178b565b925060208401356118208161178b565b929592945050506040919091013590565b60006020828403121561184357600080fd5b5035919050565b6000806040838503121561185d57600080fd5b82356118688161178b565b915060208301356118788161178b565b809150509250929050565b600181811c9082168061189757607f821691505b6020821081036118b757634e487b7160e01b600052602260045260246000fd5b50919050565b634e487b7160e01b600052601160045260246000fd5b6000828210156118e5576118e56118bd565b500390565b600082198211156118fd576118fd6118bd565b500190565b60006020828403121561191457600080fd5b815180151581146117e957600080fd5b60006020828403121561193657600080fd5b81516117e98161178b56fea26469706673582212206830b48297af5b93230bacd91ce9a9a57dd94d0d8827d632d582b8bff1f2358864736f6c634300080e0033c93bc17a700271bf59796cbfa01b47b8b95654209793470e3cdbadf87465a843",
					"opcodes": "PUSH1 0x80 PUSH1 0x40 MSTORE PUSH2 0x3E8 PUSH1 0x9 SLOAD PUSH3 0x16 SWAP2 SWAP1 PUSH3 0x5F6 JUMP JUMPDEST PUSH1 0x7 SSTORE PUSH1 0x8 DUP1 SLOAD PUSH1 0x1 PUSH1 0x1 PUSH1 0xA0 SHL SUB NOT AND PUSH20 0x76E98F575E5B6382FF3BC9E988F9920984F2A576 OR SWAP1 SSTORE PUSH2 0xDEAD PUSH1 0x0 SWAP1 DUP2 MSTORE PUSH1 0x20 MSTORE PUSH32 0x44AD89BA62B98FF34F51403AC22759B55759460C0BB5521EB4B6EE3CFF49CF83 SLOAD PUSH3 0x85 SWAP1 PUSH13 0xE063191CAF768F40CC2BC0000 PUSH3 0x619 JUMP JUMPDEST PUSH1 0x9 SSTORE PUSH1 0xA DUP1 SLOAD PUSH1 0x1 PUSH1 0x1 PUSH1 0xA0 SHL SUB NOT AND PUSH20 0x76E98F575E5B6382FF3BC9E988F9920984F2A576 OR SWAP1 SSTORE CALLVALUE DUP1 ISZERO PUSH3 0xBB JUMPI PUSH1 0x0 DUP1 REVERT JUMPDEST POP PUSH1 0x40 MLOAD DUP1 PUSH1 0x40 ADD PUSH1 0x40 MSTORE DUP1 PUSH1 0x3 DUP2 MSTORE PUSH1 0x20 ADD PUSH3 0x41314D PUSH1 0xE8 SHL DUP2 MSTORE POP PUSH1 0x40 MLOAD DUP1 PUSH1 0x40 ADD PUSH1 0x40 MSTORE DUP1 PUSH1 0x3 DUP2 MSTORE PUSH1 0x20 ADD PUSH3 0x41314D PUSH1 0xE8 SHL DUP2 MSTORE POP DUP2 PUSH1 0x3 SWAP1 DUP1 MLOAD SWAP1 PUSH1 0x20 ADD SWAP1 PUSH3 0x10C SWAP3 SWAP2 SWAP1 PUSH3 0x53A JUMP JUMPDEST POP DUP1 MLOAD PUSH3 0x122 SWAP1 PUSH1 0x4 SWAP1 PUSH1 0x20 DUP5 ADD SWAP1 PUSH3 0x53A JUMP JUMPDEST POP POP POP PUSH3 0x13F PUSH3 0x139 PUSH3 0x41E PUSH1 0x20 SHL PUSH1 0x20 SHR JUMP JUMPDEST PUSH3 0x422 JUMP JUMPDEST PUSH3 0x158 CALLER PUSH13 0xE063191CAF768F40CC2BC0000 PUSH3 0x474 JUMP JUMPDEST PUSH1 0xC DUP1 SLOAD PUSH1 0x1 PUSH1 0x1 PUSH1 0xA0 SHL SUB NOT AND PUSH20 0x4CF76043B3F97BA06917CBD90F9E3A2AAC1B306E SWAP1 DUP2 OR SWAP1 SWAP2 SSTORE PUSH1 0x40 DUP1 MLOAD PUSH4 0xC45A0155 PUSH1 0xE0 SHL DUP2 MSTORE SWAP1 MLOAD DUP3 SWAP2 PUSH4 0xC45A0155 SWAP2 PUSH1 0x4 DUP1 DUP4 ADD SWAP3 PUSH1 0x20 SWAP3 SWAP2 SWAP1 DUP3 SWAP1 SUB ADD DUP2 DUP7 GAS STATICCALL ISZERO DUP1 ISZERO PUSH3 0x1BE JUMPI RETURNDATASIZE PUSH1 0x0 DUP1 RETURNDATACOPY RETURNDATASIZE PUSH1 0x0 REVERT JUMPDEST POP POP POP POP PUSH1 0x40 MLOAD RETURNDATASIZE PUSH1 0x1F NOT PUSH1 0x1F DUP3 ADD AND DUP3 ADD DUP1 PUSH1 0x40 MSTORE POP DUP2 ADD SWAP1 PUSH3 0x1E4 SWAP2 SWAP1 PUSH3 0x633 JUMP JUMPDEST PUSH1 0x1 PUSH1 0x1 PUSH1 0xA0 SHL SUB AND PUSH4 0xC9C65396 ADDRESS DUP4 PUSH1 0x1 PUSH1 0x1 PUSH1 0xA0 SHL SUB AND PUSH4 0xAD5C4648 PUSH1 0x40 MLOAD DUP2 PUSH4 0xFFFFFFFF AND PUSH1 0xE0 SHL DUP2 MSTORE PUSH1 0x4 ADD PUSH1 0x20 PUSH1 0x40 MLOAD DUP1 DUP4 SUB DUP2 DUP7 GAS STATICCALL ISZERO DUP1 ISZERO PUSH3 0x232 JUMPI RETURNDATASIZE PUSH1 0x0 DUP1 RETURNDATACOPY RETURNDATASIZE PUSH1 0x0 REVERT JUMPDEST POP POP POP POP PUSH1 0x40 MLOAD RETURNDATASIZE PUSH1 0x1F NOT PUSH1 0x1F DUP3 ADD AND DUP3 ADD DUP1 PUSH1 0x40 MSTORE POP DUP2 ADD SWAP1 PUSH3 0x258 SWAP2 SWAP1 PUSH3 0x633 JUMP JUMPDEST PUSH1 0x40 MLOAD PUSH1 0x1 PUSH1 0x1 PUSH1 0xE0 SHL SUB NOT PUSH1 0xE0 DUP6 SWAP1 SHL AND DUP2 MSTORE PUSH1 0x1 PUSH1 0x1 PUSH1 0xA0 SHL SUB SWAP3 DUP4 AND PUSH1 0x4 DUP3 ADD MSTORE SWAP2 AND PUSH1 0x24 DUP3 ADD MSTORE PUSH1 0x44 ADD PUSH1 0x20 PUSH1 0x40 MLOAD DUP1 DUP4 SUB DUP2 PUSH1 0x0 DUP8 GAS CALL ISZERO DUP1 ISZERO PUSH3 0x2A6 JUMPI RETURNDATASIZE PUSH1 0x0 DUP1 RETURNDATACOPY RETURNDATASIZE PUSH1 0x0 REVERT JUMPDEST POP POP POP POP PUSH1 0x40 MLOAD RETURNDATASIZE PUSH1 0x1F NOT PUSH1 0x1F DUP3 ADD AND DUP3 ADD DUP1 PUSH1 0x40 MSTORE POP DUP2 ADD SWAP1 PUSH3 0x2CC SWAP2 SWAP1 PUSH3 0x633 JUMP JUMPDEST PUSH1 0xB DUP1 SLOAD PUSH1 0x1 PUSH1 0x1 PUSH1 0xA0 SHL SUB SWAP3 DUP4 AND PUSH1 0x1 PUSH1 0x1 PUSH1 0xA0 SHL SUB NOT SWAP2 DUP3 AND OR SWAP1 SWAP2 SSTORE PUSH1 0xD DUP1 SLOAD SWAP1 SWAP2 AND PUSH20 0x4CF76043B3F97BA06917CBD90F9E3A2AAC1B306E OR SWAP1 SSTORE CALLER PUSH1 0x0 DUP2 DUP2 MSTORE PUSH1 0x10 PUSH1 0x20 MSTORE PUSH1 0x40 DUP1 DUP3 KECCAK256 DUP1 SLOAD PUSH1 0xFF NOT SWAP1 DUP2 AND PUSH1 0x1 SWAP1 DUP2 OR SWAP1 SWAP3 SSTORE PUSH32 0x9A8F3285986F133C5AB38A828780FBEBFF64111AD29B63B7783E7E3874351CA6 DUP1 SLOAD DUP3 AND DUP4 OR SWAP1 SSTORE PUSH32 0x9E93E1DB4A1F807CC22B2AECF4DEEB0BF5745F1ECB319E87C68C5624C0FA6B69 DUP1 SLOAD DUP3 AND DUP4 OR SWAP1 SSTORE PUSH1 0xC SLOAD SWAP1 SWAP6 AND DUP4 MSTORE DUP2 DUP4 KECCAK256 DUP1 SLOAD SWAP1 SWAP6 AND OR SWAP1 SWAP4 SSTORE SWAP2 MLOAD SWAP1 SWAP2 PUSH1 0x0 DUP1 MLOAD PUSH1 0x20 PUSH3 0x2043 DUP4 CODECOPY DUP2 MLOAD SWAP2 MSTORE SWAP2 LOG2 PUSH1 0x40 MLOAD PUSH20 0x76E98F575E5B6382FF3BC9E988F9920984F2A576 SWAP1 PUSH1 0x0 DUP1 MLOAD PUSH1 0x20 PUSH3 0x2043 DUP4 CODECOPY DUP2 MLOAD SWAP2 MSTORE SWAP1 PUSH1 0x0 SWAP1 LOG2 PUSH1 0x40 MLOAD PUSH2 0xDEAD SWAP1 PUSH1 0x0 DUP1 MLOAD PUSH1 0x20 PUSH3 0x2043 DUP4 CODECOPY DUP2 MLOAD SWAP2 MSTORE SWAP1 PUSH1 0x0 SWAP1 LOG2 PUSH1 0xC SLOAD PUSH1 0x40 MLOAD PUSH1 0x1 PUSH1 0x1 PUSH1 0xA0 SHL SUB SWAP1 SWAP2 AND SWAP1 PUSH1 0x0 DUP1 MLOAD PUSH1 0x20 PUSH3 0x2043 DUP4 CODECOPY DUP2 MLOAD SWAP2 MSTORE SWAP1 PUSH1 0x0 SWAP1 LOG2 POP PUSH3 0x6BC JUMP JUMPDEST CALLER SWAP1 JUMP JUMPDEST PUSH1 0x5 DUP1 SLOAD PUSH1 0x1 PUSH1 0x1 PUSH1 0xA0 SHL SUB DUP4 DUP2 AND PUSH1 0x1 PUSH1 0x1 PUSH1 0xA0 SHL SUB NOT DUP4 AND DUP2 OR SWAP1 SWAP4 SSTORE PUSH1 0x40 MLOAD SWAP2 AND SWAP2 SWAP1 DUP3 SWAP1 PUSH32 0x8BE0079C531659141344CD1FD0A4F28419497F9722A3DAAFE3B4186F6B6457E0 SWAP1 PUSH1 0x0 SWAP1 LOG3 POP POP JUMP JUMPDEST PUSH1 0x1 PUSH1 0x1 PUSH1 0xA0 SHL SUB DUP3 AND PUSH3 0x4CF JUMPI PUSH1 0x40 MLOAD PUSH3 0x461BCD PUSH1 0xE5 SHL DUP2 MSTORE PUSH1 0x20 PUSH1 0x4 DUP3 ADD MSTORE PUSH1 0x1F PUSH1 0x24 DUP3 ADD MSTORE PUSH32 0x45524332303A206D696E7420746F20746865207A65726F206164647265737300 PUSH1 0x44 DUP3 ADD MSTORE PUSH1 0x64 ADD PUSH1 0x40 MLOAD DUP1 SWAP2 SUB SWAP1 REVERT JUMPDEST DUP1 PUSH1 0x2 PUSH1 0x0 DUP3 DUP3 SLOAD PUSH3 0x4E3 SWAP2 SWAP1 PUSH3 0x665 JUMP JUMPDEST SWAP1 SWAP2 SSTORE POP POP PUSH1 0x1 PUSH1 0x1 PUSH1 0xA0 SHL SUB DUP3 AND PUSH1 0x0 DUP2 DUP2 MSTORE PUSH1 0x20 DUP2 DUP2 MSTORE PUSH1 0x40 DUP1 DUP4 KECCAK256 DUP1 SLOAD DUP7 ADD SWAP1 SSTORE MLOAD DUP5 DUP2 MSTORE PUSH32 0xDDF252AD1BE2C89B69C2B068FC378DAA952BA7F163C4A11628F55A4DF523B3EF SWAP2 ADD PUSH1 0x40 MLOAD DUP1 SWAP2 SUB SWAP1 LOG3 POP POP JUMP JUMPDEST DUP3 DUP1 SLOAD PUSH3 0x548 SWAP1 PUSH3 0x680 JUMP JUMPDEST SWAP1 PUSH1 0x0 MSTORE PUSH1 0x20 PUSH1 0x0 KECCAK256 SWAP1 PUSH1 0x1F ADD PUSH1 0x20 SWAP1 DIV DUP2 ADD SWAP3 DUP3 PUSH3 0x56C JUMPI PUSH1 0x0 DUP6 SSTORE PUSH3 0x5B7 JUMP JUMPDEST DUP3 PUSH1 0x1F LT PUSH3 0x587 JUMPI DUP1 MLOAD PUSH1 0xFF NOT AND DUP4 DUP1 ADD OR DUP6 SSTORE PUSH3 0x5B7 JUMP JUMPDEST DUP3 DUP1 ADD PUSH1 0x1 ADD DUP6 SSTORE DUP3 ISZERO PUSH3 0x5B7 JUMPI SWAP2 DUP3 ADD JUMPDEST DUP3 DUP2 GT ISZERO PUSH3 0x5B7 JUMPI DUP3 MLOAD DUP3 SSTORE SWAP2 PUSH1 0x20 ADD SWAP2 SWAP1 PUSH1 0x1 ADD SWAP1 PUSH3 0x59A JUMP JUMPDEST POP PUSH3 0x5C5 SWAP3 SWAP2 POP PUSH3 0x5C9 JUMP JUMPDEST POP SWAP1 JUMP JUMPDEST JUMPDEST DUP1 DUP3 GT ISZERO PUSH3 0x5C5 JUMPI PUSH1 0x0 DUP2 SSTORE PUSH1 0x1 ADD PUSH3 0x5CA JUMP JUMPDEST PUSH4 0x4E487B71 PUSH1 0xE0 SHL PUSH1 0x0 MSTORE PUSH1 0x11 PUSH1 0x4 MSTORE PUSH1 0x24 PUSH1 0x0 REVERT JUMPDEST PUSH1 0x0 DUP3 PUSH3 0x614 JUMPI PUSH4 0x4E487B71 PUSH1 0xE0 SHL PUSH1 0x0 MSTORE PUSH1 0x12 PUSH1 0x4 MSTORE PUSH1 0x24 PUSH1 0x0 REVERT JUMPDEST POP DIV SWAP1 JUMP JUMPDEST PUSH1 0x0 DUP3 DUP3 LT ISZERO PUSH3 0x62E JUMPI PUSH3 0x62E PUSH3 0x5E0 JUMP JUMPDEST POP SUB SWAP1 JUMP JUMPDEST PUSH1 0x0 PUSH1 0x20 DUP3 DUP5 SUB SLT ISZERO PUSH3 0x646 JUMPI PUSH1 0x0 DUP1 REVERT JUMPDEST DUP2 MLOAD PUSH1 0x1 PUSH1 0x1 PUSH1 0xA0 SHL SUB DUP2 AND DUP2 EQ PUSH3 0x65E JUMPI PUSH1 0x0 DUP1 REVERT JUMPDEST SWAP4 SWAP3 POP POP POP JUMP JUMPDEST PUSH1 0x0 DUP3 NOT DUP3 GT ISZERO PUSH3 0x67B JUMPI PUSH3 0x67B PUSH3 0x5E0 JUMP JUMPDEST POP ADD SWAP1 JUMP JUMPDEST PUSH1 0x1 DUP2 DUP2 SHR SWAP1 DUP3 AND DUP1 PUSH3 0x695 JUMPI PUSH1 0x7F DUP3 AND SWAP2 POP JUMPDEST PUSH1 0x20 DUP3 LT DUP2 SUB PUSH3 0x6B6 JUMPI PUSH4 0x4E487B71 PUSH1 0xE0 SHL PUSH1 0x0 MSTORE PUSH1 0x22 PUSH1 0x4 MSTORE PUSH1 0x24 PUSH1 0x0 REVERT JUMPDEST POP SWAP2 SWAP1 POP JUMP JUMPDEST PUSH2 0x1977 DUP1 PUSH3 0x6CC PUSH1 0x0 CODECOPY PUSH1 0x0 RETURN INVALID PUSH1 0x80 PUSH1 0x40 MSTORE PUSH1 0x4 CALLDATASIZE LT PUSH2 0x21E JUMPI PUSH1 0x0 CALLDATALOAD PUSH1 0xE0 SHR DUP1 PUSH4 0x8DA5CB5B GT PUSH2 0x123 JUMPI DUP1 PUSH4 0xC31C9C07 GT PUSH2 0xAB JUMPI DUP1 PUSH4 0xDD62ED3E GT PUSH2 0x6F JUMPI DUP1 PUSH4 0xDD62ED3E EQ PUSH2 0x6AB JUMPI DUP1 PUSH4 0xE9451F5F EQ PUSH2 0x2FB JUMPI DUP1 PUSH4 0xEAFB5A3C EQ PUSH2 0x6CB JUMPI DUP1 PUSH4 0xF2FDE38B EQ PUSH2 0x6EB JUMPI DUP1 PUSH4 0xFDF3DD9C EQ PUSH2 0x70B JUMPI PUSH1 0x0 DUP1 REVERT JUMPDEST DUP1 PUSH4 0xC31C9C07 EQ PUSH2 0x5E5 JUMPI DUP1 PUSH4 0xC816841B EQ PUSH2 0x60A JUMPI DUP1 PUSH4 0xC831F606 EQ PUSH2 0x62A JUMPI DUP1 PUSH4 0xD89135CD EQ PUSH2 0x657 JUMPI DUP1 PUSH4 0xDC9D75B0 EQ PUSH2 0x696 JUMPI PUSH1 0x0 DUP1 REVERT JUMPDEST DUP1 PUSH4 0xA01C3483 GT PUSH2 0xF2 JUMPI DUP1 PUSH4 0xA01C3483 EQ PUSH2 0x54F JUMPI DUP1 PUSH4 0xA457C2D7 EQ PUSH2 0x565 JUMPI DUP1 PUSH4 0xA9059CBB EQ PUSH2 0x585 JUMPI DUP1 PUSH4 0xB2BDFA7B EQ PUSH2 0x5A5 JUMPI DUP1 PUSH4 0xBE3898DE EQ PUSH2 0x5C5 JUMPI PUSH1 0x0 DUP1 REVERT JUMPDEST DUP1 PUSH4 0x8DA5CB5B EQ PUSH2 0x4F1 JUMPI DUP1 PUSH4 0x9358928B EQ PUSH2 0x50F JUMPI DUP1 PUSH4 0x95D89B41 EQ PUSH2 0x524 JUMPI DUP1 PUSH4 0x984AE06E EQ PUSH2 0x539 JUMPI PUSH1 0x0 DUP1 REVERT JUMPDEST DUP1 PUSH4 0x3FD8B02F GT PUSH2 0x1A6 JUMPI DUP1 PUSH4 0x67E00E88 GT PUSH2 0x175 JUMPI DUP1 PUSH4 0x67E00E88 EQ PUSH2 0x41E JUMPI DUP1 PUSH4 0x70A08231 EQ PUSH2 0x44E JUMPI DUP1 PUSH4 0x715018A6 EQ PUSH2 0x484 JUMPI DUP1 PUSH4 0x735DE9F7 EQ PUSH2 0x499 JUMPI DUP1 PUSH4 0x8CD4426D EQ PUSH2 0x4D1 JUMPI PUSH1 0x0 DUP1 REVERT JUMPDEST DUP1 PUSH4 0x3FD8B02F EQ PUSH2 0x3BE JUMPI DUP1 PUSH4 0x42966C68 EQ PUSH2 0x3D3 JUMPI DUP1 PUSH4 0x469132CE EQ PUSH2 0x3F3 JUMPI DUP1 PUSH4 0x54DE7BEE EQ PUSH2 0x409 JUMPI PUSH1 0x0 DUP1 REVERT JUMPDEST DUP1 PUSH4 0x227B453F GT PUSH2 0x1ED JUMPI DUP1 PUSH4 0x227B453F EQ PUSH2 0x310 JUMPI DUP1 PUSH4 0x23B872DD EQ PUSH2 0x332 JUMPI DUP1 PUSH4 0x3078381C EQ PUSH2 0x352 JUMPI DUP1 PUSH4 0x313CE567 EQ PUSH2 0x382 JUMPI DUP1 PUSH4 0x39509351 EQ PUSH2 0x39E JUMPI PUSH1 0x0 DUP1 REVERT JUMPDEST DUP1 PUSH4 0x6FDDE03 EQ PUSH2 0x281 JUMPI DUP1 PUSH4 0x95EA7B3 EQ PUSH2 0x2AC JUMPI DUP1 PUSH4 0x18160DDD EQ PUSH2 0x2DC JUMPI DUP1 PUSH4 0x1DC36945 EQ PUSH2 0x2FB JUMPI PUSH1 0x0 DUP1 REVERT JUMPDEST CALLDATASIZE PUSH2 0x27C JUMPI PUSH1 0x40 MLOAD PUSH3 0x461BCD PUSH1 0xE5 SHL DUP2 MSTORE PUSH1 0x20 PUSH1 0x4 DUP3 ADD MSTORE PUSH1 0x24 DUP1 DUP3 ADD MSTORE PUSH32 0x44697265637420455448207472616E736665727320617265206E6F7420616C6C PUSH1 0x44 DUP3 ADD MSTORE PUSH4 0x1BDDD959 PUSH1 0xE2 SHL PUSH1 0x64 DUP3 ADD MSTORE PUSH1 0x84 ADD JUMPDEST PUSH1 0x40 MLOAD DUP1 SWAP2 SUB SWAP1 REVERT JUMPDEST PUSH1 0x0 DUP1 REVERT JUMPDEST CALLVALUE DUP1 ISZERO PUSH2 0x28D JUMPI PUSH1 0x0 DUP1 REVERT JUMPDEST POP PUSH2 0x296 PUSH2 0x72B JUMP JUMPDEST PUSH1 0x40 MLOAD PUSH2 0x2A3 SWAP2 SWAP1 PUSH2 0x1736 JUMP JUMPDEST PUSH1 0x40 MLOAD DUP1 SWAP2 SUB SWAP1 RETURN JUMPDEST CALLVALUE DUP1 ISZERO PUSH2 0x2B8 JUMPI PUSH1 0x0 DUP1 REVERT JUMPDEST POP PUSH2 0x2CC PUSH2 0x2C7 CALLDATASIZE PUSH1 0x4 PUSH2 0x17A0 JUMP JUMPDEST PUSH2 0x7BD JUMP JUMPDEST PUSH1 0x40 MLOAD SWAP1 ISZERO ISZERO DUP2 MSTORE PUSH1 0x20 ADD PUSH2 0x2A3 JUMP JUMPDEST CALLVALUE DUP1 ISZERO PUSH2 0x2E8 JUMPI PUSH1 0x0 DUP1 REVERT JUMPDEST POP PUSH1 0x2 SLOAD JUMPDEST PUSH1 0x40 MLOAD SWAP1 DUP2 MSTORE PUSH1 0x20 ADD PUSH2 0x2A3 JUMP JUMPDEST CALLVALUE DUP1 ISZERO PUSH2 0x307 JUMPI PUSH1 0x0 DUP1 REVERT JUMPDEST POP PUSH2 0x2ED PUSH1 0x1 DUP2 JUMP JUMPDEST CALLVALUE DUP1 ISZERO PUSH2 0x31C JUMPI PUSH1 0x0 DUP1 REVERT JUMPDEST POP PUSH2 0x330 PUSH2 0x32B CALLDATASIZE PUSH1 0x4 PUSH2 0x17CC JUMP JUMPDEST PUSH2 0x7D5 JUMP JUMPDEST STOP JUMPDEST CALLVALUE DUP1 ISZERO PUSH2 0x33E JUMPI PUSH1 0x0 DUP1 REVERT JUMPDEST POP PUSH2 0x2CC PUSH2 0x34D CALLDATASIZE PUSH1 0x4 PUSH2 0x17F0 JUMP JUMPDEST PUSH2 0x7FE JUMP JUMPDEST CALLVALUE DUP1 ISZERO PUSH2 0x35E JUMPI PUSH1 0x0 DUP1 REVERT JUMPDEST POP PUSH2 0x2CC PUSH2 0x36D CALLDATASIZE PUSH1 0x4 PUSH2 0x17CC JUMP JUMPDEST PUSH1 0x10 PUSH1 0x20 MSTORE PUSH1 0x0 SWAP1 DUP2 MSTORE PUSH1 0x40 SWAP1 KECCAK256 SLOAD PUSH1 0xFF AND DUP2 JUMP JUMPDEST CALLVALUE DUP1 ISZERO PUSH2 0x38E JUMPI PUSH1 0x0 DUP1 REVERT JUMPDEST POP PUSH1 0x40 MLOAD PUSH1 0x12 DUP2 MSTORE PUSH1 0x20 ADD PUSH2 0x2A3 JUMP JUMPDEST CALLVALUE DUP1 ISZERO PUSH2 0x3AA JUMPI PUSH1 0x0 DUP1 REVERT JUMPDEST POP PUSH2 0x2CC PUSH2 0x3B9 CALLDATASIZE PUSH1 0x4 PUSH2 0x17A0 JUMP JUMPDEST PUSH2 0x899 JUMP JUMPDEST CALLVALUE DUP1 ISZERO PUSH2 0x3CA JUMPI PUSH1 0x0 DUP1 REVERT JUMPDEST POP PUSH2 0x2ED PUSH1 0x3C DUP2 JUMP JUMPDEST CALLVALUE DUP1 ISZERO PUSH2 0x3DF JUMPI PUSH1 0x0 DUP1 REVERT JUMPDEST POP PUSH2 0x330 PUSH2 0x3EE CALLDATASIZE PUSH1 0x4 PUSH2 0x1831 JUMP JUMPDEST PUSH2 0x8B6 JUMP JUMPDEST CALLVALUE DUP1 ISZERO PUSH2 0x3FF JUMPI PUSH1 0x0 DUP1 REVERT JUMPDEST POP PUSH2 0x2ED PUSH1 0x7 SLOAD DUP2 JUMP JUMPDEST CALLVALUE DUP1 ISZERO PUSH2 0x415 JUMPI PUSH1 0x0 DUP1 REVERT JUMPDEST POP PUSH2 0x2ED PUSH1 0x0 DUP2 JUMP JUMPDEST CALLVALUE DUP1 ISZERO PUSH2 0x42A JUMPI PUSH1 0x0 DUP1 REVERT JUMPDEST POP PUSH2 0x2CC PUSH2 0x439 CALLDATASIZE PUSH1 0x4 PUSH2 0x17CC JUMP JUMPDEST PUSH1 0x11 PUSH1 0x20 MSTORE PUSH1 0x0 SWAP1 DUP2 MSTORE PUSH1 0x40 SWAP1 KECCAK256 SLOAD PUSH1 0xFF AND DUP2 JUMP JUMPDEST CALLVALUE DUP1 ISZERO PUSH2 0x45A JUMPI PUSH1 0x0 DUP1 REVERT JUMPDEST POP PUSH2 0x2ED PUSH2 0x469 CALLDATASIZE PUSH1 0x4 PUSH2 0x17CC JUMP JUMPDEST PUSH1 0x1 PUSH1 0x1 PUSH1 0xA0 SHL SUB AND PUSH1 0x0 SWAP1 DUP2 MSTORE PUSH1 0x20 DUP2 SWAP1 MSTORE PUSH1 0x40 SWAP1 KECCAK256 SLOAD SWAP1 JUMP JUMPDEST CALLVALUE DUP1 ISZERO PUSH2 0x490 JUMPI PUSH1 0x0 DUP1 REVERT JUMPDEST POP PUSH2 0x330 PUSH2 0x8C3 JUMP JUMPDEST CALLVALUE DUP1 ISZERO PUSH2 0x4A5 JUMPI PUSH1 0x0 DUP1 REVERT JUMPDEST POP PUSH1 0xC SLOAD PUSH2 0x4B9 SWAP1 PUSH1 0x1 PUSH1 0x1 PUSH1 0xA0 SHL SUB AND DUP2 JUMP JUMPDEST PUSH1 0x40 MLOAD PUSH1 0x1 PUSH1 0x1 PUSH1 0xA0 SHL SUB SWAP1 SWAP2 AND DUP2 MSTORE PUSH1 0x20 ADD PUSH2 0x2A3 JUMP JUMPDEST CALLVALUE DUP1 ISZERO PUSH2 0x4DD JUMPI PUSH1 0x0 DUP1 REVERT JUMPDEST POP PUSH2 0x330 PUSH2 0x4EC CALLDATASIZE PUSH1 0x4 PUSH2 0x17A0 JUMP JUMPDEST PUSH2 0x915 JUMP JUMPDEST CALLVALUE DUP1 ISZERO PUSH2 0x4FD JUMPI PUSH1 0x0 DUP1 REVERT JUMPDEST POP PUSH1 0x5 SLOAD PUSH1 0x1 PUSH1 0x1 PUSH1 0xA0 SHL SUB AND PUSH2 0x4B9 JUMP JUMPDEST CALLVALUE DUP1 ISZERO PUSH2 0x51B JUMPI PUSH1 0x0 DUP1 REVERT JUMPDEST POP PUSH2 0x2ED PUSH2 0x999 JUMP JUMPDEST CALLVALUE DUP1 ISZERO PUSH2 0x530 JUMPI PUSH1 0x0 DUP1 REVERT JUMPDEST POP PUSH2 0x296 PUSH2 0x9E4 JUMP JUMPDEST CALLVALUE DUP1 ISZERO PUSH2 0x545 JUMPI PUSH1 0x0 DUP1 REVERT JUMPDEST POP PUSH2 0x2ED PUSH1 0x9 SLOAD DUP2 JUMP JUMPDEST CALLVALUE DUP1 ISZERO PUSH2 0x55B JUMPI PUSH1 0x0 DUP1 REVERT JUMPDEST POP PUSH2 0x4B9 PUSH2 0xDEAD DUP2 JUMP JUMPDEST CALLVALUE DUP1 ISZERO PUSH2 0x571 JUMPI PUSH1 0x0 DUP1 REVERT JUMPDEST POP PUSH2 0x2CC PUSH2 0x580 CALLDATASIZE PUSH1 0x4 PUSH2 0x17A0 JUMP JUMPDEST PUSH2 0x9F3 JUMP JUMPDEST CALLVALUE DUP1 ISZERO PUSH2 0x591 JUMPI PUSH1 0x0 DUP1 REVERT JUMPDEST POP PUSH2 0x2CC PUSH2 0x5A0 CALLDATASIZE PUSH1 0x4 PUSH2 0x17A0 JUMP JUMPDEST PUSH2 0xA6E JUMP JUMPDEST CALLVALUE DUP1 ISZERO PUSH2 0x5B1 JUMPI PUSH1 0x0 DUP1 REVERT JUMPDEST POP PUSH1 0x6 SLOAD PUSH2 0x4B9 SWAP1 PUSH1 0x1 PUSH1 0x1 PUSH1 0xA0 SHL SUB AND DUP2 JUMP JUMPDEST CALLVALUE DUP1 ISZERO PUSH2 0x5D1 JUMPI PUSH1 0x0 DUP1 REVERT JUMPDEST POP PUSH1 0x8 SLOAD PUSH2 0x4B9 SWAP1 PUSH1 0x1 PUSH1 0x1 PUSH1 0xA0 SHL SUB AND DUP2 JUMP JUMPDEST CALLVALUE DUP1 ISZERO PUSH2 0x5F1 JUMPI PUSH1 0x0 DUP1 REVERT JUMPDEST POP PUSH1 0x13 SLOAD PUSH2 0x4B9 SWAP1 PUSH2 0x100 SWAP1 DIV PUSH1 0x1 PUSH1 0x1 PUSH1 0xA0 SHL SUB AND DUP2 JUMP JUMPDEST CALLVALUE DUP1 ISZERO PUSH2 0x616 JUMPI PUSH1 0x0 DUP1 REVERT JUMPDEST POP PUSH1 0xB SLOAD PUSH2 0x4B9 SWAP1 PUSH1 0x1 PUSH1 0x1 PUSH1 0xA0 SHL SUB AND DUP2 JUMP JUMPDEST CALLVALUE DUP1 ISZERO PUSH2 0x636 JUMPI PUSH1 0x0 DUP1 REVERT JUMPDEST POP PUSH2 0x2ED PUSH2 0x645 CALLDATASIZE PUSH1 0x4 PUSH2 0x17CC JUMP JUMPDEST PUSH1 0xF PUSH1 0x20 MSTORE PUSH1 0x0 SWAP1 DUP2 MSTORE PUSH1 0x40 SWAP1 KECCAK256 SLOAD DUP2 JUMP JUMPDEST CALLVALUE DUP1 ISZERO PUSH2 0x663 JUMPI PUSH1 0x0 DUP1 REVERT JUMPDEST POP PUSH2 0xDEAD PUSH1 0x0 SWAP1 DUP2 MSTORE PUSH1 0x20 MSTORE PUSH32 0x44AD89BA62B98FF34F51403AC22759B55759460C0BB5521EB4B6EE3CFF49CF83 SLOAD PUSH2 0x2ED JUMP JUMPDEST CALLVALUE DUP1 ISZERO PUSH2 0x6A2 JUMPI PUSH1 0x0 DUP1 REVERT JUMPDEST POP PUSH2 0x2ED PUSH1 0x64 DUP2 JUMP JUMPDEST CALLVALUE DUP1 ISZERO PUSH2 0x6B7 JUMPI PUSH1 0x0 DUP1 REVERT JUMPDEST POP PUSH2 0x2ED PUSH2 0x6C6 CALLDATASIZE PUSH1 0x4 PUSH2 0x184A JUMP JUMPDEST PUSH2 0xAF5 JUMP JUMPDEST CALLVALUE DUP1 ISZERO PUSH2 0x6D7 JUMPI PUSH1 0x0 DUP1 REVERT JUMPDEST POP PUSH2 0x330 PUSH2 0x6E6 CALLDATASIZE PUSH1 0x4 PUSH2 0x17CC JUMP JUMPDEST PUSH2 0xB20 JUMP JUMPDEST CALLVALUE DUP1 ISZERO PUSH2 0x6F7 JUMPI PUSH1 0x0 DUP1 REVERT JUMPDEST POP PUSH2 0x330 PUSH2 0x706 CALLDATASIZE PUSH1 0x4 PUSH2 0x17CC JUMP JUMPDEST PUSH2 0xD65 JUMP JUMPDEST CALLVALUE DUP1 ISZERO PUSH2 0x717 JUMPI PUSH1 0x0 DUP1 REVERT JUMPDEST POP PUSH2 0x330 PUSH2 0x726 CALLDATASIZE PUSH1 0x4 PUSH2 0x17CC JUMP JUMPDEST PUSH2 0xDDB JUMP JUMPDEST PUSH1 0x60 PUSH1 0x3 DUP1 SLOAD PUSH2 0x73A SWAP1 PUSH2 0x1883 JUMP JUMPDEST DUP1 PUSH1 0x1F ADD PUSH1 0x20 DUP1 SWAP2 DIV MUL PUSH1 0x20 ADD PUSH1 0x40 MLOAD SWAP1 DUP2 ADD PUSH1 0x40 MSTORE DUP1 SWAP3 SWAP2 SWAP1 DUP2 DUP2 MSTORE PUSH1 0x20 ADD DUP3 DUP1 SLOAD PUSH2 0x766 SWAP1 PUSH2 0x1883 JUMP JUMPDEST DUP1 ISZERO PUSH2 0x7B3 JUMPI DUP1 PUSH1 0x1F LT PUSH2 0x788 JUMPI PUSH2 0x100 DUP1 DUP4 SLOAD DIV MUL DUP4 MSTORE SWAP2 PUSH1 0x20 ADD SWAP2 PUSH2 0x7B3 JUMP JUMPDEST DUP3 ADD SWAP2 SWAP1 PUSH1 0x0 MSTORE PUSH1 0x20 PUSH1 0x0 KECCAK256 SWAP1 JUMPDEST DUP2 SLOAD DUP2 MSTORE SWAP1 PUSH1 0x1 ADD SWAP1 PUSH1 0x20 ADD DUP1 DUP4 GT PUSH2 0x796 JUMPI DUP3 SWAP1 SUB PUSH1 0x1F AND DUP3 ADD SWAP2 JUMPDEST POP POP POP POP POP SWAP1 POP SWAP1 JUMP JUMPDEST PUSH1 0x0 CALLER PUSH2 0x7CB DUP2 DUP6 DUP6 PUSH2 0xE07 JUMP JUMPDEST POP PUSH1 0x1 SWAP4 SWAP3 POP POP POP JUMP JUMPDEST PUSH2 0x7DD PUSH2 0xF2B JUMP JUMPDEST PUSH1 0x1 PUSH1 0x1 PUSH1 0xA0 SHL SUB AND PUSH1 0x0 SWAP1 DUP2 MSTORE PUSH1 0x10 PUSH1 0x20 MSTORE PUSH1 0x40 SWAP1 KECCAK256 DUP1 SLOAD PUSH1 0xFF NOT AND SWAP1 SSTORE JUMP JUMPDEST PUSH1 0x0 PUSH2 0x80B DUP5 DUP5 DUP5 PUSH2 0xF87 JUMP JUMPDEST PUSH1 0x0 PUSH2 0x817 DUP6 CALLER PUSH2 0xAF5 JUMP JUMPDEST SWAP1 POP DUP3 DUP2 LT ISZERO PUSH2 0x87A JUMPI PUSH1 0x40 MLOAD PUSH3 0x461BCD PUSH1 0xE5 SHL DUP2 MSTORE PUSH1 0x20 PUSH1 0x4 DUP3 ADD MSTORE PUSH1 0x28 PUSH1 0x24 DUP3 ADD MSTORE PUSH32 0x45524332303A207472616E7366657220616D6F756E7420657863656564732061 PUSH1 0x44 DUP3 ADD MSTORE PUSH8 0x6C6C6F77616E6365 PUSH1 0xC0 SHL PUSH1 0x64 DUP3 ADD MSTORE PUSH1 0x84 ADD PUSH2 0x273 JUMP JUMPDEST PUSH2 0x88E DUP6 CALLER PUSH2 0x889 DUP7 DUP6 PUSH2 0x18D3 JUMP JUMPDEST PUSH2 0xE07 JUMP JUMPDEST POP PUSH1 0x1 SWAP5 SWAP4 POP POP POP POP JUMP JUMPDEST PUSH1 0x0 CALLER PUSH2 0x7CB DUP2 DUP6 DUP6 PUSH2 0x8AC DUP4 DUP4 PUSH2 0xAF5 JUMP JUMPDEST PUSH2 0x889 SWAP2 SWAP1 PUSH2 0x18EA JUMP JUMPDEST PUSH2 0x8C0 CALLER DUP3 PUSH2 0x140D JUMP JUMPDEST POP JUMP JUMPDEST PUSH2 0x8CB PUSH2 0xF2B JUMP JUMPDEST PUSH1 0x5 SLOAD PUSH1 0x40 MLOAD PUSH1 0x1 PUSH1 0x1 PUSH1 0xA0 SHL SUB SWAP1 SWAP2 AND SWAP1 PUSH32 0xF8DF31144D9C2F0F6B59D69B8B98ABD5459D07F2742C4DF920B25AAE33C64820 SWAP1 PUSH1 0x0 SWAP1 LOG2 PUSH1 0x6 DUP1 SLOAD PUSH1 0x1 PUSH1 0x1 PUSH1 0xA0 SHL SUB NOT AND SWAP1 SSTORE JUMP JUMPDEST PUSH2 0x91D PUSH2 0xF2B JUMP JUMPDEST PUSH1 0x8 SLOAD PUSH1 0x40 MLOAD PUSH4 0xA9059CBB PUSH1 0xE0 SHL DUP2 MSTORE PUSH1 0x1 PUSH1 0x1 PUSH1 0xA0 SHL SUB SWAP2 DUP3 AND PUSH1 0x4 DUP3 ADD MSTORE PUSH1 0x24 DUP2 ADD DUP4 SWAP1 MSTORE SWAP1 DUP4 AND SWAP1 PUSH4 0xA9059CBB SWAP1 PUSH1 0x44 ADD PUSH1 0x20 PUSH1 0x40 MLOAD DUP1 DUP4 SUB DUP2 PUSH1 0x0 DUP8 GAS CALL ISZERO DUP1 ISZERO PUSH2 0x970 JUMPI RETURNDATASIZE PUSH1 0x0 DUP1 RETURNDATACOPY RETURNDATASIZE PUSH1 0x0 REVERT JUMPDEST POP POP POP POP PUSH1 0x40 MLOAD RETURNDATASIZE PUSH1 0x1F NOT PUSH1 0x1F DUP3 ADD AND DUP3 ADD DUP1 PUSH1 0x40 MSTORE POP DUP2 ADD SWAP1 PUSH2 0x994 SWAP2 SWAP1 PUSH2 0x1902 JUMP JUMPDEST POP POP POP JUMP JUMPDEST PUSH2 0xDEAD PUSH1 0x0 SWAP1 DUP2 MSTORE PUSH1 0x20 DUP2 SWAP1 MSTORE PUSH32 0x44AD89BA62B98FF34F51403AC22759B55759460C0BB5521EB4B6EE3CFF49CF83 SLOAD PUSH2 0x9DF SWAP1 PUSH13 0xE063191CAF768F40CC2BC0000 PUSH2 0x18D3 JUMP JUMPDEST SWAP1 POP SWAP1 JUMP JUMPDEST PUSH1 0x60 PUSH1 0x4 DUP1 SLOAD PUSH2 0x73A SWAP1 PUSH2 0x1883 JUMP JUMPDEST PUSH1 0x0 CALLER DUP2 PUSH2 0xA01 DUP3 DUP7 PUSH2 0xAF5 JUMP JUMPDEST SWAP1 POP DUP4 DUP2 LT ISZERO PUSH2 0xA61 JUMPI PUSH1 0x40 MLOAD PUSH3 0x461BCD PUSH1 0xE5 SHL DUP2 MSTORE PUSH1 0x20 PUSH1 0x4 DUP3 ADD MSTORE PUSH1 0x25 PUSH1 0x24 DUP3 ADD MSTORE PUSH32 0x45524332303A2064656372656173656420616C6C6F77616E63652062656C6F77 PUSH1 0x44 DUP3 ADD MSTORE PUSH5 0x207A65726F PUSH1 0xD8 SHL PUSH1 0x64 DUP3 ADD MSTORE PUSH1 0x84 ADD PUSH2 0x273 JUMP JUMPDEST PUSH2 0x88E DUP3 DUP7 DUP7 DUP5 SUB PUSH2 0xE07 JUMP JUMPDEST PUSH1 0x0 CALLER EXTCODESIZE ISZERO DUP1 PUSH2 0xA88 JUMPI POP PUSH1 0xD SLOAD PUSH1 0x1 PUSH1 0x1 PUSH1 0xA0 SHL SUB AND CALLER EQ JUMPDEST DUP1 PUSH2 0xA9D JUMPI POP PUSH1 0xB SLOAD PUSH1 0x1 PUSH1 0x1 PUSH1 0xA0 SHL SUB AND CALLER EQ JUMPDEST PUSH2 0xAE9 JUMPI PUSH1 0x40 MLOAD PUSH3 0x461BCD PUSH1 0xE5 SHL DUP2 MSTORE PUSH1 0x20 PUSH1 0x4 DUP3 ADD MSTORE PUSH1 0x1C PUSH1 0x24 DUP3 ADD MSTORE PUSH32 0x426F747320617265206E6F7420616C6C6F77656420746F2073656C6C00000000 PUSH1 0x44 DUP3 ADD MSTORE PUSH1 0x64 ADD PUSH2 0x273 JUMP JUMPDEST CALLER PUSH2 0x7CB DUP2 DUP6 DUP6 PUSH2 0xF87 JUMP JUMPDEST PUSH1 0x1 PUSH1 0x1 PUSH1 0xA0 SHL SUB SWAP2 DUP3 AND PUSH1 0x0 SWAP1 DUP2 MSTORE PUSH1 0x1 PUSH1 0x20 SWAP1 DUP2 MSTORE PUSH1 0x40 DUP1 DUP4 KECCAK256 SWAP4 SWAP1 SWAP5 AND DUP3 MSTORE SWAP2 SWAP1 SWAP2 MSTORE KECCAK256 SLOAD SWAP1 JUMP JUMPDEST PUSH2 0xB28 PUSH2 0xF2B JUMP JUMPDEST PUSH1 0x1 PUSH1 0x1 PUSH1 0xA0 SHL SUB DUP2 AND PUSH2 0xB94 JUMPI PUSH1 0x40 MLOAD PUSH3 0x461BCD PUSH1 0xE5 SHL DUP2 MSTORE PUSH1 0x20 PUSH1 0x4 DUP3 ADD MSTORE PUSH1 0x2D PUSH1 0x24 DUP3 ADD MSTORE PUSH32 0x4E657720726F7574657220616464726573732063616E6E6F7420626520746865 PUSH1 0x44 DUP3 ADD MSTORE PUSH13 0x207A65726F2061646472657373 PUSH1 0x98 SHL PUSH1 0x64 DUP3 ADD MSTORE PUSH1 0x84 ADD PUSH2 0x273 JUMP JUMPDEST PUSH1 0x0 DUP2 SWAP1 POP PUSH1 0x0 DUP2 PUSH1 0x1 PUSH1 0x1 PUSH1 0xA0 SHL SUB AND PUSH4 0xC45A0155 PUSH1 0x40 MLOAD DUP2 PUSH4 0xFFFFFFFF AND PUSH1 0xE0 SHL DUP2 MSTORE PUSH1 0x4 ADD PUSH1 0x20 PUSH1 0x40 MLOAD DUP1 DUP4 SUB DUP2 DUP7 GAS STATICCALL ISZERO DUP1 ISZERO PUSH2 0xBD9 JUMPI RETURNDATASIZE PUSH1 0x0 DUP1 RETURNDATACOPY RETURNDATASIZE PUSH1 0x0 REVERT JUMPDEST POP POP POP POP PUSH1 0x40 MLOAD RETURNDATASIZE PUSH1 0x1F NOT PUSH1 0x1F DUP3 ADD AND DUP3 ADD DUP1 PUSH1 0x40 MSTORE POP DUP2 ADD SWAP1 PUSH2 0xBFD SWAP2 SWAP1 PUSH2 0x1924 JUMP JUMPDEST PUSH1 0x1 PUSH1 0x1 PUSH1 0xA0 SHL SUB AND PUSH4 0xC9C65396 ADDRESS DUP5 PUSH1 0x1 PUSH1 0x1 PUSH1 0xA0 SHL SUB AND PUSH4 0xAD5C4648 PUSH1 0x40 MLOAD DUP2 PUSH4 0xFFFFFFFF AND PUSH1 0xE0 SHL DUP2 MSTORE PUSH1 0x4 ADD PUSH1 0x20 PUSH1 0x40 MLOAD DUP1 DUP4 SUB DUP2 DUP7 GAS STATICCALL ISZERO DUP1 ISZERO PUSH2 0xC4A JUMPI RETURNDATASIZE PUSH1 0x0 DUP1 RETURNDATACOPY RETURNDATASIZE PUSH1 0x0 REVERT JUMPDEST POP POP POP POP PUSH1 0x40 MLOAD RETURNDATASIZE PUSH1 0x1F NOT PUSH1 0x1F DUP3 ADD AND DUP3 ADD DUP1 PUSH1 0x40 MSTORE POP DUP2 ADD SWAP1 PUSH2 0xC6E SWAP2 SWAP1 PUSH2 0x1924 JUMP JUMPDEST PUSH1 0x40 MLOAD PUSH1 0x1 PUSH1 0x1 PUSH1 0xE0 SHL SUB NOT PUSH1 0xE0 DUP6 SWAP1 SHL AND DUP2 MSTORE PUSH1 0x1 PUSH1 0x1 PUSH1 0xA0 SHL SUB SWAP3 DUP4 AND PUSH1 0x4 DUP3 ADD MSTORE SWAP2 AND PUSH1 0x24 DUP3 ADD MSTORE PUSH1 0x44 ADD PUSH1 0x20 PUSH1 0x40 MLOAD DUP1 DUP4 SUB DUP2 PUSH1 0x0 DUP8 GAS CALL ISZERO DUP1 ISZERO PUSH2 0xCBB JUMPI RETURNDATASIZE PUSH1 0x0 DUP1 RETURNDATACOPY RETURNDATASIZE PUSH1 0x0 REVERT JUMPDEST POP POP POP POP PUSH1 0x40 MLOAD RETURNDATASIZE PUSH1 0x1F NOT PUSH1 0x1F DUP3 ADD AND DUP3 ADD DUP1 PUSH1 0x40 MSTORE POP DUP2 ADD SWAP1 PUSH2 0xCDF SWAP2 SWAP1 PUSH2 0x1924 JUMP JUMPDEST SWAP1 POP PUSH1 0x1 PUSH1 0x1 PUSH1 0xA0 SHL SUB DUP2 AND PUSH2 0xD2C JUMPI PUSH1 0x40 MLOAD PUSH3 0x461BCD PUSH1 0xE5 SHL DUP2 MSTORE PUSH1 0x20 PUSH1 0x4 DUP3 ADD MSTORE PUSH1 0x12 PUSH1 0x24 DUP3 ADD MSTORE PUSH18 0x13995DC81C185A5C881B9BDD08199BDD5B99 PUSH1 0x72 SHL PUSH1 0x44 DUP3 ADD MSTORE PUSH1 0x64 ADD PUSH2 0x273 JUMP JUMPDEST PUSH1 0xC DUP1 SLOAD PUSH1 0x1 PUSH1 0x1 PUSH1 0xA0 SHL SUB NOT AND PUSH1 0x1 PUSH1 0x1 PUSH1 0xA0 SHL SUB SWAP4 DUP5 AND OR SWAP1 SSTORE AND PUSH1 0x0 SWAP1 DUP2 MSTORE PUSH1 0x11 PUSH1 0x20 MSTORE PUSH1 0x40 SWAP1 KECCAK256 DUP1 SLOAD PUSH1 0xFF NOT AND PUSH1 0x1 OR SWAP1 SSTORE POP JUMP JUMPDEST PUSH2 0xD6D PUSH2 0xF2B JUMP JUMPDEST PUSH1 0x1 PUSH1 0x1 PUSH1 0xA0 SHL SUB DUP2 AND PUSH2 0xDD2 JUMPI PUSH1 0x40 MLOAD PUSH3 0x461BCD PUSH1 0xE5 SHL DUP2 MSTORE PUSH1 0x20 PUSH1 0x4 DUP3 ADD MSTORE PUSH1 0x26 PUSH1 0x24 DUP3 ADD MSTORE PUSH32 0x4F776E61626C653A206E6577206F776E657220697320746865207A65726F2061 PUSH1 0x44 DUP3 ADD MSTORE PUSH6 0x646472657373 PUSH1 0xD0 SHL PUSH1 0x64 DUP3 ADD MSTORE PUSH1 0x84 ADD PUSH2 0x273 JUMP JUMPDEST PUSH2 0x8C0 DUP2 PUSH2 0x153F JUMP JUMPDEST PUSH2 0xDE3 PUSH2 0xF2B JUMP JUMPDEST PUSH1 0x1 PUSH1 0x1 PUSH1 0xA0 SHL SUB AND PUSH1 0x0 SWAP1 DUP2 MSTORE PUSH1 0x10 PUSH1 0x20 MSTORE PUSH1 0x40 SWAP1 KECCAK256 DUP1 SLOAD PUSH1 0xFF NOT AND PUSH1 0x1 OR SWAP1 SSTORE JUMP JUMPDEST PUSH1 0x1 PUSH1 0x1 PUSH1 0xA0 SHL SUB DUP4 AND PUSH2 0xE69 JUMPI PUSH1 0x40 MLOAD PUSH3 0x461BCD PUSH1 0xE5 SHL DUP2 MSTORE PUSH1 0x20 PUSH1 0x4 DUP3 ADD MSTORE PUSH1 0x24 DUP1 DUP3 ADD MSTORE PUSH32 0x45524332303A20617070726F76652066726F6D20746865207A65726F20616464 PUSH1 0x44 DUP3 ADD MSTORE PUSH4 0x72657373 PUSH1 0xE0 SHL PUSH1 0x64 DUP3 ADD MSTORE PUSH1 0x84 ADD PUSH2 0x273 JUMP JUMPDEST PUSH1 0x1 PUSH1 0x1 PUSH1 0xA0 SHL SUB DUP3 AND PUSH2 0xECA JUMPI PUSH1 0x40 MLOAD PUSH3 0x461BCD PUSH1 0xE5 SHL DUP2 MSTORE PUSH1 0x20 PUSH1 0x4 DUP3 ADD MSTORE PUSH1 0x22 PUSH1 0x24 DUP3 ADD MSTORE PUSH32 0x45524332303A20617070726F766520746F20746865207A65726F206164647265 PUSH1 0x44 DUP3 ADD MSTORE PUSH2 0x7373 PUSH1 0xF0 SHL PUSH1 0x64 DUP3 ADD MSTORE PUSH1 0x84 ADD PUSH2 0x273 JUMP JUMPDEST PUSH1 0x1 PUSH1 0x1 PUSH1 0xA0 SHL SUB DUP4 DUP2 AND PUSH1 0x0 DUP2 DUP2 MSTORE PUSH1 0x1 PUSH1 0x20 SWAP1 DUP2 MSTORE PUSH1 0x40 DUP1 DUP4 KECCAK256 SWAP5 DUP8 AND DUP1 DUP5 MSTORE SWAP5 DUP3 MSTORE SWAP2 DUP3 SWAP1 KECCAK256 DUP6 SWAP1 SSTORE SWAP1 MLOAD DUP5 DUP2 MSTORE PUSH32 0x8C5BE1E5EBEC7D5BD14F71427D1E84F3DD0314C0F7B2291E5B200AC8C7C3B925 SWAP2 ADD PUSH1 0x40 MLOAD DUP1 SWAP2 SUB SWAP1 LOG3 POP POP POP JUMP JUMPDEST PUSH1 0x5 SLOAD PUSH1 0x1 PUSH1 0x1 PUSH1 0xA0 SHL SUB AND CALLER EQ PUSH2 0xF85 JUMPI PUSH1 0x40 MLOAD PUSH3 0x461BCD PUSH1 0xE5 SHL DUP2 MSTORE PUSH1 0x20 PUSH1 0x4 DUP3 ADD DUP2 SWAP1 MSTORE PUSH1 0x24 DUP3 ADD MSTORE PUSH32 0x4F776E61626C653A2063616C6C6572206973206E6F7420746865206F776E6572 PUSH1 0x44 DUP3 ADD MSTORE PUSH1 0x64 ADD PUSH2 0x273 JUMP JUMPDEST JUMP JUMPDEST ORIGIN CALLER EQ PUSH2 0xFE0 JUMPI PUSH1 0x40 MLOAD PUSH3 0x461BCD PUSH1 0xE5 SHL DUP2 MSTORE PUSH1 0x20 PUSH1 0x4 DUP3 ADD MSTORE PUSH1 0x21 PUSH1 0x24 DUP3 ADD MSTORE PUSH32 0x436F6E74726163747320617265206E6F7420616C6C6F77656420746F2073656C PUSH1 0x44 DUP3 ADD MSTORE PUSH1 0x1B PUSH1 0xFA SHL PUSH1 0x64 DUP3 ADD MSTORE PUSH1 0x84 ADD PUSH2 0x273 JUMP JUMPDEST PUSH1 0x0 DUP2 GT PUSH2 0x1042 JUMPI PUSH1 0x40 MLOAD PUSH3 0x461BCD PUSH1 0xE5 SHL DUP2 MSTORE PUSH1 0x20 PUSH1 0x4 DUP3 ADD MSTORE PUSH1 0x29 PUSH1 0x24 DUP3 ADD MSTORE PUSH32 0x5472616E7366657220616D6F756E74206D757374206265206772656174657220 PUSH1 0x44 DUP3 ADD MSTORE PUSH9 0x7468616E207A65726F PUSH1 0xB8 SHL PUSH1 0x64 DUP3 ADD MSTORE PUSH1 0x84 ADD PUSH2 0x273 JUMP JUMPDEST DUP1 PUSH2 0x1062 DUP5 PUSH1 0x1 PUSH1 0x1 PUSH1 0xA0 SHL SUB AND PUSH1 0x0 SWAP1 DUP2 MSTORE PUSH1 0x20 DUP2 SWAP1 MSTORE PUSH1 0x40 SWAP1 KECCAK256 SLOAD SWAP1 JUMP JUMPDEST LT ISZERO PUSH2 0x10A7 JUMPI PUSH1 0x40 MLOAD PUSH3 0x461BCD PUSH1 0xE5 SHL DUP2 MSTORE PUSH1 0x20 PUSH1 0x4 DUP3 ADD MSTORE PUSH1 0x14 PUSH1 0x24 DUP3 ADD MSTORE PUSH20 0x496E73756666696369656E742062616C616E6365 PUSH1 0x60 SHL PUSH1 0x44 DUP3 ADD MSTORE PUSH1 0x64 ADD PUSH2 0x273 JUMP JUMPDEST PUSH2 0xDEAC NOT PUSH1 0x1 PUSH1 0x1 PUSH1 0xA0 SHL SUB DUP4 AND ADD PUSH2 0x10D2 JUMPI DUP1 PUSH1 0x9 PUSH1 0x0 DUP3 DUP3 SLOAD PUSH2 0x10CC SWAP2 SWAP1 PUSH2 0x18D3 JUMP JUMPDEST SWAP1 SWAP2 SSTORE POP POP JUMPDEST PUSH1 0xA SLOAD PUSH1 0x1 PUSH1 0x1 PUSH1 0xA0 SHL SUB DUP5 DUP2 AND SWAP2 AND EQ PUSH2 0x116C JUMPI PUSH1 0x7 SLOAD DUP2 PUSH2 0x110A DUP5 PUSH1 0x1 PUSH1 0x1 PUSH1 0xA0 SHL SUB AND PUSH1 0x0 SWAP1 DUP2 MSTORE PUSH1 0x20 DUP2 SWAP1 MSTORE PUSH1 0x40 SWAP1 KECCAK256 SLOAD SWAP1 JUMP JUMPDEST PUSH2 0x1114 SWAP2 SWAP1 PUSH2 0x18EA JUMP JUMPDEST GT ISZERO PUSH2 0x116C JUMPI PUSH1 0x40 MLOAD PUSH3 0x461BCD PUSH1 0xE5 SHL DUP2 MSTORE PUSH1 0x20 PUSH1 0x4 DUP3 ADD MSTORE PUSH1 0x21 PUSH1 0x24 DUP3 ADD MSTORE PUSH32 0x45786365656473206D6178696D756D20746F6B656E73207065722077616C6C65 PUSH1 0x44 DUP3 ADD MSTORE PUSH1 0x1D PUSH1 0xFA SHL PUSH1 0x64 DUP3 ADD MSTORE PUSH1 0x84 ADD PUSH2 0x273 JUMP JUMPDEST PUSH1 0x1 PUSH1 0x1 PUSH1 0xA0 SHL SUB DUP4 AND PUSH1 0x0 SWAP1 DUP2 MSTORE PUSH1 0x10 PUSH1 0x20 MSTORE PUSH1 0x40 SWAP1 KECCAK256 SLOAD PUSH1 0xFF AND ISZERO DUP1 ISZERO PUSH2 0x11A3 JUMPI POP PUSH1 0x5 SLOAD PUSH1 0x1 PUSH1 0x1 PUSH1 0xA0 SHL SUB DUP5 DUP2 AND SWAP2 AND EQ ISZERO JUMPDEST DUP1 ISZERO PUSH2 0x11BD JUMPI POP PUSH1 0xC SLOAD PUSH1 0x1 PUSH1 0x1 PUSH1 0xA0 SHL SUB DUP5 DUP2 AND SWAP2 AND EQ ISZERO JUMPDEST ISZERO PUSH2 0x122A JUMPI PUSH1 0x1 PUSH1 0x1 PUSH1 0xA0 SHL SUB DUP4 AND PUSH1 0x0 SWAP1 DUP2 MSTORE PUSH1 0xF PUSH1 0x20 MSTORE PUSH1 0x40 SWAP1 KECCAK256 SLOAD TIMESTAMP LT ISZERO PUSH2 0x122A JUMPI PUSH1 0x40 MLOAD PUSH3 0x461BCD PUSH1 0xE5 SHL DUP2 MSTORE PUSH1 0x20 PUSH1 0x4 DUP3 ADD MSTORE PUSH1 0x19 PUSH1 0x24 DUP3 ADD MSTORE PUSH32 0x54696D65206C6F636B206973207374696C6C2061637469766500000000000000 PUSH1 0x44 DUP3 ADD MSTORE PUSH1 0x64 ADD PUSH2 0x273 JUMP JUMPDEST PUSH1 0x1 PUSH1 0x1 PUSH1 0xA0 SHL SUB DUP3 AND PUSH1 0x0 SWAP1 DUP2 MSTORE PUSH1 0x10 PUSH1 0x20 MSTORE PUSH1 0x40 SWAP1 KECCAK256 SLOAD PUSH1 0xFF AND ISZERO DUP1 ISZERO PUSH2 0x1261 JUMPI POP PUSH1 0x5 SLOAD PUSH1 0x1 PUSH1 0x1 PUSH1 0xA0 SHL SUB DUP4 DUP2 AND SWAP2 AND EQ ISZERO JUMPDEST DUP1 ISZERO PUSH2 0x127B JUMPI POP PUSH1 0xC SLOAD PUSH1 0x1 PUSH1 0x1 PUSH1 0xA0 SHL SUB DUP4 DUP2 AND SWAP2 AND EQ ISZERO JUMPDEST ISZERO PUSH2 0x1327 JUMPI PUSH1 0x1 PUSH1 0x1 PUSH1 0xA0 SHL SUB DUP3 AND PUSH1 0x0 SWAP1 DUP2 MSTORE PUSH1 0xF PUSH1 0x20 MSTORE PUSH1 0x40 SWAP1 KECCAK256 SLOAD ISZERO DUP1 PUSH2 0x12BD JUMPI POP PUSH1 0x1 PUSH1 0x1 PUSH1 0xA0 SHL SUB DUP3 AND PUSH1 0x0 SWAP1 DUP2 MSTORE PUSH1 0xF PUSH1 0x20 MSTORE PUSH1 0x40 SWAP1 KECCAK256 SLOAD TIMESTAMP LT ISZERO JUMPDEST PUSH2 0x1302 JUMPI PUSH1 0x40 MLOAD PUSH3 0x461BCD PUSH1 0xE5 SHL DUP2 MSTORE PUSH1 0x20 PUSH1 0x4 DUP3 ADD MSTORE PUSH1 0x16 PUSH1 0x24 DUP3 ADD MSTORE PUSH22 0x526563697069656E7420696E2074696D65206C6F636B PUSH1 0x50 SHL PUSH1 0x44 DUP3 ADD MSTORE PUSH1 0x64 ADD PUSH2 0x273 JUMP JUMPDEST PUSH2 0x130D PUSH1 0x3C TIMESTAMP PUSH2 0x18EA JUMP JUMPDEST PUSH1 0x1 PUSH1 0x1 PUSH1 0xA0 SHL SUB DUP4 AND PUSH1 0x0 SWAP1 DUP2 MSTORE PUSH1 0xF PUSH1 0x20 MSTORE PUSH1 0x40 SWAP1 KECCAK256 SSTORE JUMPDEST PUSH1 0xB SLOAD PUSH1 0x1 PUSH1 0x1 PUSH1 0xA0 SHL SUB DUP4 DUP2 AND SWAP2 AND EQ DUP1 ISZERO PUSH2 0x1352 JUMPI POP PUSH1 0xC SLOAD PUSH1 0x1 PUSH1 0x1 PUSH1 0xA0 SHL SUB DUP5 DUP2 AND SWAP2 AND EQ ISZERO JUMPDEST ISZERO PUSH2 0x1402 JUMPI PUSH1 0x1 PUSH1 0x1 PUSH1 0xA0 SHL SUB DUP4 AND PUSH1 0x0 SWAP1 DUP2 MSTORE PUSH1 0xF PUSH1 0x20 MSTORE PUSH1 0x40 SWAP1 KECCAK256 SLOAD ISZERO PUSH2 0x13DD JUMPI PUSH1 0x1 PUSH1 0x1 PUSH1 0xA0 SHL SUB DUP4 AND PUSH1 0x0 SWAP1 DUP2 MSTORE PUSH1 0xF PUSH1 0x20 MSTORE PUSH1 0x40 SWAP1 KECCAK256 SLOAD TIMESTAMP LT ISZERO PUSH2 0x13DD JUMPI PUSH1 0x40 MLOAD PUSH3 0x461BCD PUSH1 0xE5 SHL DUP2 MSTORE PUSH1 0x20 PUSH1 0x4 DUP3 ADD MSTORE PUSH1 0x1E PUSH1 0x24 DUP3 ADD MSTORE PUSH32 0x53656C6C2074696D65206C6F636B206973207374696C6C206163746976650000 PUSH1 0x44 DUP3 ADD MSTORE PUSH1 0x64 ADD PUSH2 0x273 JUMP JUMPDEST PUSH2 0x13E8 PUSH1 0x3C TIMESTAMP PUSH2 0x18EA JUMP JUMPDEST PUSH1 0x1 PUSH1 0x1 PUSH1 0xA0 SHL SUB DUP5 AND PUSH1 0x0 SWAP1 DUP2 MSTORE PUSH1 0xF PUSH1 0x20 MSTORE PUSH1 0x40 SWAP1 KECCAK256 SSTORE JUMPDEST PUSH2 0x994 DUP4 DUP4 DUP4 PUSH2 0x1591 JUMP JUMPDEST PUSH1 0x1 PUSH1 0x1 PUSH1 0xA0 SHL SUB DUP3 AND PUSH2 0x146D JUMPI PUSH1 0x40 MLOAD PUSH3 0x461BCD PUSH1 0xE5 SHL DUP2 MSTORE PUSH1 0x20 PUSH1 0x4 DUP3 ADD MSTORE PUSH1 0x21 PUSH1 0x24 DUP3 ADD MSTORE PUSH32 0x45524332303A206275726E2066726F6D20746865207A65726F20616464726573 PUSH1 0x44 DUP3 ADD MSTORE PUSH1 0x73 PUSH1 0xF8 SHL PUSH1 0x64 DUP3 ADD MSTORE PUSH1 0x84 ADD PUSH2 0x273 JUMP JUMPDEST PUSH1 0x1 PUSH1 0x1 PUSH1 0xA0 SHL SUB DUP3 AND PUSH1 0x0 SWAP1 DUP2 MSTORE PUSH1 0x20 DUP2 SWAP1 MSTORE PUSH1 0x40 SWAP1 KECCAK256 SLOAD DUP2 DUP2 LT ISZERO PUSH2 0x14E1 JUMPI PUSH1 0x40 MLOAD PUSH3 0x461BCD PUSH1 0xE5 SHL DUP2 MSTORE PUSH1 0x20 PUSH1 0x4 DUP3 ADD MSTORE PUSH1 0x22 PUSH1 0x24 DUP3 ADD MSTORE PUSH32 0x45524332303A206275726E20616D6F756E7420657863656564732062616C616E PUSH1 0x44 DUP3 ADD MSTORE PUSH2 0x6365 PUSH1 0xF0 SHL PUSH1 0x64 DUP3 ADD MSTORE PUSH1 0x84 ADD PUSH2 0x273 JUMP JUMPDEST PUSH1 0x1 PUSH1 0x1 PUSH1 0xA0 SHL SUB DUP4 AND PUSH1 0x0 DUP2 DUP2 MSTORE PUSH1 0x20 DUP2 DUP2 MSTORE PUSH1 0x40 DUP1 DUP4 KECCAK256 DUP7 DUP7 SUB SWAP1 SSTORE PUSH1 0x2 DUP1 SLOAD DUP8 SWAP1 SUB SWAP1 SSTORE MLOAD DUP6 DUP2 MSTORE SWAP2 SWAP3 SWAP2 PUSH32 0xDDF252AD1BE2C89B69C2B068FC378DAA952BA7F163C4A11628F55A4DF523B3EF SWAP2 ADD PUSH1 0x40 MLOAD DUP1 SWAP2 SUB SWAP1 LOG3 POP POP POP JUMP JUMPDEST PUSH1 0x5 DUP1 SLOAD PUSH1 0x1 PUSH1 0x1 PUSH1 0xA0 SHL SUB DUP4 DUP2 AND PUSH1 0x1 PUSH1 0x1 PUSH1 0xA0 SHL SUB NOT DUP4 AND DUP2 OR SWAP1 SWAP4 SSTORE PUSH1 0x40 MLOAD SWAP2 AND SWAP2 SWAP1 DUP3 SWAP1 PUSH32 0x8BE0079C531659141344CD1FD0A4F28419497F9722A3DAAFE3B4186F6B6457E0 SWAP1 PUSH1 0x0 SWAP1 LOG3 POP POP JUMP JUMPDEST PUSH1 0x1 PUSH1 0x1 PUSH1 0xA0 SHL SUB DUP4 AND PUSH2 0x15F5 JUMPI PUSH1 0x40 MLOAD PUSH3 0x461BCD PUSH1 0xE5 SHL DUP2 MSTORE PUSH1 0x20 PUSH1 0x4 DUP3 ADD MSTORE PUSH1 0x25 PUSH1 0x24 DUP3 ADD MSTORE PUSH32 0x45524332303A207472616E736665722066726F6D20746865207A65726F206164 PUSH1 0x44 DUP3 ADD MSTORE PUSH5 0x6472657373 PUSH1 0xD8 SHL PUSH1 0x64 DUP3 ADD MSTORE PUSH1 0x84 ADD PUSH2 0x273 JUMP JUMPDEST PUSH1 0x1 PUSH1 0x1 PUSH1 0xA0 SHL SUB DUP3 AND PUSH2 0x1657 JUMPI PUSH1 0x40 MLOAD PUSH3 0x461BCD PUSH1 0xE5 SHL DUP2 MSTORE PUSH1 0x20 PUSH1 0x4 DUP3 ADD MSTORE PUSH1 0x23 PUSH1 0x24 DUP3 ADD MSTORE PUSH32 0x45524332303A207472616E7366657220746F20746865207A65726F2061646472 PUSH1 0x44 DUP3 ADD MSTORE PUSH3 0x657373 PUSH1 0xE8 SHL PUSH1 0x64 DUP3 ADD MSTORE PUSH1 0x84 ADD PUSH2 0x273 JUMP JUMPDEST PUSH1 0x1 PUSH1 0x1 PUSH1 0xA0 SHL SUB DUP4 AND PUSH1 0x0 SWAP1 DUP2 MSTORE PUSH1 0x20 DUP2 SWAP1 MSTORE PUSH1 0x40 SWAP1 KECCAK256 SLOAD DUP2 DUP2 LT ISZERO PUSH2 0x16CF JUMPI PUSH1 0x40 MLOAD PUSH3 0x461BCD PUSH1 0xE5 SHL DUP2 MSTORE PUSH1 0x20 PUSH1 0x4 DUP3 ADD MSTORE PUSH1 0x26 PUSH1 0x24 DUP3 ADD MSTORE PUSH32 0x45524332303A207472616E7366657220616D6F756E7420657863656564732062 PUSH1 0x44 DUP3 ADD MSTORE PUSH6 0x616C616E6365 PUSH1 0xD0 SHL PUSH1 0x64 DUP3 ADD MSTORE PUSH1 0x84 ADD PUSH2 0x273 JUMP JUMPDEST PUSH1 0x1 PUSH1 0x1 PUSH1 0xA0 SHL SUB DUP5 DUP2 AND PUSH1 0x0 DUP2 DUP2 MSTORE PUSH1 0x20 DUP2 DUP2 MSTORE PUSH1 0x40 DUP1 DUP4 KECCAK256 DUP8 DUP8 SUB SWAP1 SSTORE SWAP4 DUP8 AND DUP1 DUP4 MSTORE SWAP2 DUP5 SWAP1 KECCAK256 DUP1 SLOAD DUP8 ADD SWAP1 SSTORE SWAP3 MLOAD DUP6 DUP2 MSTORE SWAP1 SWAP3 PUSH32 0xDDF252AD1BE2C89B69C2B068FC378DAA952BA7F163C4A11628F55A4DF523B3EF SWAP2 ADD PUSH1 0x40 MLOAD DUP1 SWAP2 SUB SWAP1 LOG3 POP POP POP POP JUMP JUMPDEST PUSH1 0x0 PUSH1 0x20 DUP1 DUP4 MSTORE DUP4 MLOAD DUP1 DUP3 DUP6 ADD MSTORE PUSH1 0x0 JUMPDEST DUP2 DUP2 LT ISZERO PUSH2 0x1763 JUMPI DUP6 DUP2 ADD DUP4 ADD MLOAD DUP6 DUP3 ADD PUSH1 0x40 ADD MSTORE DUP3 ADD PUSH2 0x1747 JUMP JUMPDEST DUP2 DUP2 GT ISZERO PUSH2 0x1775 JUMPI PUSH1 0x0 PUSH1 0x40 DUP4 DUP8 ADD ADD MSTORE JUMPDEST POP PUSH1 0x1F ADD PUSH1 0x1F NOT AND SWAP3 SWAP1 SWAP3 ADD PUSH1 0x40 ADD SWAP4 SWAP3 POP POP POP JUMP JUMPDEST PUSH1 0x1 PUSH1 0x1 PUSH1 0xA0 SHL SUB DUP2 AND DUP2 EQ PUSH2 0x8C0 JUMPI PUSH1 0x0 DUP1 REVERT JUMPDEST PUSH1 0x0 DUP1 PUSH1 0x40 DUP4 DUP6 SUB SLT ISZERO PUSH2 0x17B3 JUMPI PUSH1 0x0 DUP1 REVERT JUMPDEST DUP3 CALLDATALOAD PUSH2 0x17BE DUP2 PUSH2 0x178B JUMP JUMPDEST SWAP5 PUSH1 0x20 SWAP4 SWAP1 SWAP4 ADD CALLDATALOAD SWAP4 POP POP POP JUMP JUMPDEST PUSH1 0x0 PUSH1 0x20 DUP3 DUP5 SUB SLT ISZERO PUSH2 0x17DE JUMPI PUSH1 0x0 DUP1 REVERT JUMPDEST DUP2 CALLDATALOAD PUSH2 0x17E9 DUP2 PUSH2 0x178B JUMP JUMPDEST SWAP4 SWAP3 POP POP POP JUMP JUMPDEST PUSH1 0x0 DUP1 PUSH1 0x0 PUSH1 0x60 DUP5 DUP7 SUB SLT ISZERO PUSH2 0x1805 JUMPI PUSH1 0x0 DUP1 REVERT JUMPDEST DUP4 CALLDATALOAD PUSH2 0x1810 DUP2 PUSH2 0x178B JUMP JUMPDEST SWAP3 POP PUSH1 0x20 DUP5 ADD CALLDATALOAD PUSH2 0x1820 DUP2 PUSH2 0x178B JUMP JUMPDEST SWAP3 SWAP6 SWAP3 SWAP5 POP POP POP PUSH1 0x40 SWAP2 SWAP1 SWAP2 ADD CALLDATALOAD SWAP1 JUMP JUMPDEST PUSH1 0x0 PUSH1 0x20 DUP3 DUP5 SUB SLT ISZERO PUSH2 0x1843 JUMPI PUSH1 0x0 DUP1 REVERT JUMPDEST POP CALLDATALOAD SWAP2 SWAP1 POP JUMP JUMPDEST PUSH1 0x0 DUP1 PUSH1 0x40 DUP4 DUP6 SUB SLT ISZERO PUSH2 0x185D JUMPI PUSH1 0x0 DUP1 REVERT JUMPDEST DUP3 CALLDATALOAD PUSH2 0x1868 DUP2 PUSH2 0x178B JUMP JUMPDEST SWAP2 POP PUSH1 0x20 DUP4 ADD CALLDATALOAD PUSH2 0x1878 DUP2 PUSH2 0x178B JUMP JUMPDEST DUP1 SWAP2 POP POP SWAP3 POP SWAP3 SWAP1 POP JUMP JUMPDEST PUSH1 0x1 DUP2 DUP2 SHR SWAP1 DUP3 AND DUP1 PUSH2 0x1897 JUMPI PUSH1 0x7F DUP3 AND SWAP2 POP JUMPDEST PUSH1 0x20 DUP3 LT DUP2 SUB PUSH2 0x18B7 JUMPI PUSH4 0x4E487B71 PUSH1 0xE0 SHL PUSH1 0x0 MSTORE PUSH1 0x22 PUSH1 0x4 MSTORE PUSH1 0x24 PUSH1 0x0 REVERT JUMPDEST POP SWAP2 SWAP1 POP JUMP JUMPDEST PUSH4 0x4E487B71 PUSH1 0xE0 SHL PUSH1 0x0 MSTORE PUSH1 0x11 PUSH1 0x4 MSTORE PUSH1 0x24 PUSH1 0x0 REVERT JUMPDEST PUSH1 0x0 DUP3 DUP3 LT ISZERO PUSH2 0x18E5 JUMPI PUSH2 0x18E5 PUSH2 0x18BD JUMP JUMPDEST POP SUB SWAP1 JUMP JUMPDEST PUSH1 0x0 DUP3 NOT DUP3 GT ISZERO PUSH2 0x18FD JUMPI PUSH2 0x18FD PUSH2 0x18BD JUMP JUMPDEST POP ADD SWAP1 JUMP JUMPDEST PUSH1 0x0 PUSH1 0x20 DUP3 DUP5 SUB SLT ISZERO PUSH2 0x1914 JUMPI PUSH1 0x0 DUP1 REVERT JUMPDEST DUP2 MLOAD DUP1 ISZERO ISZERO DUP2 EQ PUSH2 0x17E9 JUMPI PUSH1 0x0 DUP1 REVERT JUMPDEST PUSH1 0x0 PUSH1 0x20 DUP3 DUP5 SUB SLT ISZERO PUSH2 0x1936 JUMPI PUSH1 0x0 DUP1 REVERT JUMPDEST DUP2 MLOAD PUSH2 0x17E9 DUP2 PUSH2 0x178B JUMP INVALID LOG2 PUSH5 0x6970667358 0x22 SLT KECCAK256 PUSH9 0x30B48297AF5B93230B 0xAC 0xD9 SHR 0xE9 0xA9 0xA5 PUSH30 0xD94D0D8827D632D582B8BFF1F2358864736F6C634300080E0033C93BC17A PUSH17 0x271BF59796CBFA01B47B8B95654209793 SELFBALANCE 0xE EXTCODECOPY 0xDB 0xAD 0xF8 PUSH21 0x65A843000000000000000000000000000000000000 "
				},
				"gasEstimates": {
					"creation": {
						"codeDepositCost": "1303800",
						"executionCost": "infinite",
						"totalCost": "infinite"
					},
					"external": {
						"BBWallet()": "2470",
						"CIRCULATING_SUPPLY()": "2407",
						"DEAD_WALLET()": "261",
						"_owner()": "2448",
						"allowance(address,address)": "infinite",
						"approve(address,uint256)": "24664",
						"balanceOf(address)": "2601",
						"burn(uint256)": "50816",
						"buyfee()": "308",
						"circulatingSupply()": "2474",
						"decimals()": "289",
						"decreaseAllowance(address,uint256)": "27011",
						"excludeFromLockPeriod(address)": "26900",
						"excludedFromLockPeriod(address)": "2615",
						"fee_denominator()": "328",
						"includeInTimeLock(address)": "26808",
						"increaseAllowance(address,uint256)": "27106",
						"lockPeriod()": "241",
						"maxTokensPerWallet()": "2385",
						"name()": "infinite",
						"owner()": "2377",
						"renounceOwnership()": "29900",
						"rescueERC20(address,uint256)": "infinite",
						"sellfee()": "261",
						"setNewRouter(address)": "infinite",
						"swapRouter()": "2393",
						"symbol()": "infinite",
						"timeStamps(address)": "2602",
						"totalBurned()": "2424",
						"totalSupply()": "2372",
						"transfer(address,uint256)": "133104",
						"transferFrom(address,address,uint256)": "infinite",
						"transferOwnership(address)": "infinite",
						"transferfee()": "307",
						"uniswapPair()": "2404",
						"uniswapPairs(address)": "2570",
						"uniswapRouter()": "2448"
					},
					"internal": {
						"_transfer(address,address,uint256)": "infinite",
						"internalSwap(uint256)": "infinite",
						"isContract(address)": "infinite",
						"takeTaxes(address,bool,bool,uint256)": "infinite"
					}
				},
				"methodIdentifiers": {
					"BBWallet()": "be3898de",
					"CIRCULATING_SUPPLY()": "984ae06e",
					"DEAD_WALLET()": "a01c3483",
					"_owner()": "b2bdfa7b",
					"allowance(address,address)": "dd62ed3e",
					"approve(address,uint256)": "095ea7b3",
					"balanceOf(address)": "70a08231",
					"burn(uint256)": "42966c68",
					"buyfee()": "1dc36945",
					"circulatingSupply()": "9358928b",
					"decimals()": "313ce567",
					"decreaseAllowance(address,uint256)": "a457c2d7",
					"excludeFromLockPeriod(address)": "fdf3dd9c",
					"excludedFromLockPeriod(address)": "3078381c",
					"fee_denominator()": "dc9d75b0",
					"includeInTimeLock(address)": "227b453f",
					"increaseAllowance(address,uint256)": "39509351",
					"lockPeriod()": "3fd8b02f",
					"maxTokensPerWallet()": "469132ce",
					"name()": "06fdde03",
					"owner()": "8da5cb5b",
					"renounceOwnership()": "715018a6",
					"rescueERC20(address,uint256)": "8cd4426d",
					"sellfee()": "e9451f5f",
					"setNewRouter(address)": "eafb5a3c",
					"swapRouter()": "c31c9c07",
					"symbol()": "95d89b41",
					"timeStamps(address)": "c831f606",
					"totalBurned()": "d89135cd",
					"totalSupply()": "18160ddd",
					"transfer(address,uint256)": "a9059cbb",
					"transferFrom(address,address,uint256)": "23b872dd",
					"transferOwnership(address)": "f2fde38b",
					"transferfee()": "54de7bee",
					"uniswapPair()": "c816841b",
					"uniswapPairs(address)": "67e00e88",
					"uniswapRouter()": "735de9f7"
				}
			},
			"storageLayout": {
				"storage": [
					{
						"astId": 193,
						"contract": "contracts/1minuteAnon.sol:ANON1MINUTE",
						"label": "_balances",
						"offset": 0,
						"slot": "0",
						"type": "t_mapping(t_address,t_uint256)"
					},
					{
						"astId": 199,
						"contract": "contracts/1minuteAnon.sol:ANON1MINUTE",
						"label": "_allowances",
						"offset": 0,
						"slot": "1",
						"type": "t_mapping(t_address,t_mapping(t_address,t_uint256))"
					},
					{
						"astId": 201,
						"contract": "contracts/1minuteAnon.sol:ANON1MINUTE",
						"label": "_totalSupply",
						"offset": 0,
						"slot": "2",
						"type": "t_uint256"
					},
					{
						"astId": 203,
						"contract": "contracts/1minuteAnon.sol:ANON1MINUTE",
						"label": "_name",
						"offset": 0,
						"slot": "3",
						"type": "t_string_storage"
					},
					{
						"astId": 205,
						"contract": "contracts/1minuteAnon.sol:ANON1MINUTE",
						"label": "_symbol",
						"offset": 0,
						"slot": "4",
						"type": "t_string_storage"
					},
					{
						"astId": 7,
						"contract": "contracts/1minuteAnon.sol:ANON1MINUTE",
						"label": "_owner",
						"offset": 0,
						"slot": "5",
						"type": "t_address"
					},
					{
						"astId": 1025,
						"contract": "contracts/1minuteAnon.sol:ANON1MINUTE",
						"label": "_owner",
						"offset": 0,
						"slot": "6",
						"type": "t_address"
					},
					{
						"astId": 1075,
						"contract": "contracts/1minuteAnon.sol:ANON1MINUTE",
						"label": "maxTokensPerWallet",
						"offset": 0,
						"slot": "7",
						"type": "t_uint256"
					},
					{
						"astId": 1081,
						"contract": "contracts/1minuteAnon.sol:ANON1MINUTE",
						"label": "BBWallet",
						"offset": 0,
						"slot": "8",
						"type": "t_address_payable"
					},
					{
						"astId": 1091,
						"contract": "contracts/1minuteAnon.sol:ANON1MINUTE",
						"label": "CIRCULATING_SUPPLY",
						"offset": 0,
						"slot": "9",
						"type": "t_uint256"
					},
					{
						"astId": 1094,
						"contract": "contracts/1minuteAnon.sol:ANON1MINUTE",
						"label": "dev_wallet",
						"offset": 0,
						"slot": "10",
						"type": "t_address"
					},
					{
						"astId": 1148,
						"contract": "contracts/1minuteAnon.sol:ANON1MINUTE",
						"label": "uniswapPair",
						"offset": 0,
						"slot": "11",
						"type": "t_address"
					},
					{
						"astId": 1151,
						"contract": "contracts/1minuteAnon.sol:ANON1MINUTE",
						"label": "uniswapRouter",
						"offset": 0,
						"slot": "12",
						"type": "t_contract(IUniswapV2Router02)1019"
					},
					{
						"astId": 1153,
						"contract": "contracts/1minuteAnon.sol:ANON1MINUTE",
						"label": "uniswapRouterAddress",
						"offset": 0,
						"slot": "13",
						"type": "t_address"
					},
					{
						"astId": 1175,
						"contract": "contracts/1minuteAnon.sol:ANON1MINUTE",
						"label": "_allowances",
						"offset": 0,
						"slot": "14",
						"type": "t_mapping(t_address,t_mapping(t_address,t_uint256))"
					},
					{
						"astId": 1179,
						"contract": "contracts/1minuteAnon.sol:ANON1MINUTE",
						"label": "timeStamps",
						"offset": 0,
						"slot": "15",
						"type": "t_mapping(t_address,t_uint256)"
					},
					{
						"astId": 1183,
						"contract": "contracts/1minuteAnon.sol:ANON1MINUTE",
						"label": "excludedFromLockPeriod",
						"offset": 0,
						"slot": "16",
						"type": "t_mapping(t_address,t_bool)"
					},
					{
						"astId": 1187,
						"contract": "contracts/1minuteAnon.sol:ANON1MINUTE",
						"label": "uniswapPairs",
						"offset": 0,
						"slot": "17",
						"type": "t_mapping(t_address,t_bool)"
					},
					{
						"astId": 1191,
						"contract": "contracts/1minuteAnon.sol:ANON1MINUTE",
						"label": "balance",
						"offset": 0,
						"slot": "18",
						"type": "t_mapping(t_address,t_uint256)"
					},
					{
						"astId": 1193,
						"contract": "contracts/1minuteAnon.sol:ANON1MINUTE",
						"label": "inSwap",
						"offset": 0,
						"slot": "19",
						"type": "t_bool"
					},
					{
						"astId": 1196,
						"contract": "contracts/1minuteAnon.sol:ANON1MINUTE",
						"label": "swapRouter",
						"offset": 1,
						"slot": "19",
						"type": "t_contract(IUniswapV2Router02)1019"
					}
				],
				"types": {
					"t_address": {
						"encoding": "inplace",
						"label": "address",
						"numberOfBytes": "20"
					},
					"t_address_payable": {
						"encoding": "inplace",
						"label": "address payable",
						"numberOfBytes": "20"
					},
					"t_bool": {
						"encoding": "inplace",
						"label": "bool",
						"numberOfBytes": "1"
					},
					"t_contract(IUniswapV2Router02)1019": {
						"encoding": "inplace",
						"label": "contract IUniswapV2Router02",
						"numberOfBytes": "20"
					},
					"t_mapping(t_address,t_bool)": {
						"encoding": "mapping",
						"key": "t_address",
						"label": "mapping(address => bool)",
						"numberOfBytes": "32",
						"value": "t_bool"
					},
					"t_mapping(t_address,t_mapping(t_address,t_uint256))": {
						"encoding": "mapping",
						"key": "t_address",
						"label": "mapping(address => mapping(address => uint256))",
						"numberOfBytes": "32",
						"value": "t_mapping(t_address,t_uint256)"
					},
					"t_mapping(t_address,t_uint256)": {
						"encoding": "mapping",
						"key": "t_address",
						"label": "mapping(address => uint256)",
						"numberOfBytes": "32",
						"value": "t_uint256"
					},
					"t_string_storage": {
						"encoding": "bytes",
						"label": "string",
						"numberOfBytes": "32"
					},
					"t_uint256": {
						"encoding": "inplace",
						"label": "uint256",
						"numberOfBytes": "32"
					}
				}
			},
			"userdoc": {
				"kind": "user",
				"methods": {},
				"version": 1
			}
		}
	}
}