{
	"contracts/rosa.sol": {
		"Rosalina": {
			"abi": [
				{
					"inputs": [],
					"stateMutability": "nonpayable",
					"type": "constructor"
				},
				{
					"anonymous": false,
					"inputs": [
						{
							"indexed": true,
							"internalType": "address",
							"name": "owner",
							"type": "address"
						},
						{
							"indexed": true,
							"internalType": "address",
							"name": "spender",
							"type": "address"
						},
						{
							"indexed": false,
							"internalType": "uint256",
							"name": "value",
							"type": "uint256"
						}
					],
					"name": "Approval",
					"type": "event"
				},
				{
					"anonymous": false,
					"inputs": [
						{
							"indexed": false,
							"internalType": "uint256",
							"name": "_maxTxAmount",
							"type": "uint256"
						}
					],
					"name": "MaxTxAmountUpdated",
					"type": "event"
				},
				{
					"anonymous": false,
					"inputs": [
						{
							"indexed": true,
							"internalType": "address",
							"name": "previousOwner",
							"type": "address"
						},
						{
							"indexed": true,
							"internalType": "address",
							"name": "newOwner",
							"type": "address"
						}
					],
					"name": "OwnershipTransferred",
					"type": "event"
				},
				{
					"anonymous": false,
					"inputs": [
						{
							"indexed": true,
							"internalType": "address",
							"name": "from",
							"type": "address"
						},
						{
							"indexed": true,
							"internalType": "address",
							"name": "to",
							"type": "address"
						},
						{
							"indexed": false,
							"internalType": "uint256",
							"name": "value",
							"type": "uint256"
						}
					],
					"name": "Transfer",
					"type": "event"
				},
				{
					"inputs": [],
					"name": "_maxTaxSwap",
					"outputs": [
						{
							"internalType": "uint256",
							"name": "",
							"type": "uint256"
						}
					],
					"stateMutability": "view",
					"type": "function"
				},
				{
					"inputs": [],
					"name": "_maxTxAmount",
					"outputs": [
						{
							"internalType": "uint256",
							"name": "",
							"type": "uint256"
						}
					],
					"stateMutability": "view",
					"type": "function"
				},
				{
					"inputs": [],
					"name": "_maxWalletSize",
					"outputs": [
						{
							"internalType": "uint256",
							"name": "",
							"type": "uint256"
						}
					],
					"stateMutability": "view",
					"type": "function"
				},
				{
					"inputs": [],
					"name": "_taxSwapThreshold",
					"outputs": [
						{
							"internalType": "uint256",
							"name": "",
							"type": "uint256"
						}
					],
					"stateMutability": "view",
					"type": "function"
				},
				{
					"inputs": [
						{
							"internalType": "address",
							"name": "owner",
							"type": "address"
						},
						{
							"internalType": "address",
							"name": "spender",
							"type": "address"
						}
					],
					"name": "allowance",
					"outputs": [
						{
							"internalType": "uint256",
							"name": "",
							"type": "uint256"
						}
					],
					"stateMutability": "view",
					"type": "function"
				},
				{
					"inputs": [
						{
							"internalType": "address",
							"name": "spender",
							"type": "address"
						},
						{
							"internalType": "uint256",
							"name": "amount",
							"type": "uint256"
						}
					],
					"name": "approve",
					"outputs": [
						{
							"internalType": "bool",
							"name": "",
							"type": "bool"
						}
					],
					"stateMutability": "nonpayable",
					"type": "function"
				},
				{
					"inputs": [
						{
							"internalType": "address",
							"name": "account",
							"type": "address"
						}
					],
					"name": "balanceOf",
					"outputs": [
						{
							"internalType": "uint256",
							"name": "",
							"type": "uint256"
						}
					],
					"stateMutability": "view",
					"type": "function"
				},
				{
					"inputs": [],
					"name": "decimals",
					"outputs": [
						{
							"internalType": "uint8",
							"name": "",
							"type": "uint8"
						}
					],
					"stateMutability": "pure",
					"type": "function"
				},
				{
					"inputs": [],
					"name": "manualSwap",
					"outputs": [],
					"stateMutability": "nonpayable",
					"type": "function"
				},
				{
					"inputs": [],
					"name": "name",
					"outputs": [
						{
							"internalType": "string",
							"name": "",
							"type": "string"
						}
					],
					"stateMutability": "pure",
					"type": "function"
				},
				{
					"inputs": [],
					"name": "openTrading",
					"outputs": [],
					"stateMutability": "nonpayable",
					"type": "function"
				},
				{
					"inputs": [],
					"name": "owner",
					"outputs": [
						{
							"internalType": "address",
							"name": "",
							"type": "address"
						}
					],
					"stateMutability": "view",
					"type": "function"
				},
				{
					"inputs": [],
					"name": "removeLimits",
					"outputs": [],
					"stateMutability": "nonpayable",
					"type": "function"
				},
				{
					"inputs": [],
					"name": "renounceOwnership",
					"outputs": [],
					"stateMutability": "nonpayable",
					"type": "function"
				},
				{
					"inputs": [],
					"name": "symbol",
					"outputs": [
						{
							"internalType": "string",
							"name": "",
							"type": "string"
						}
					],
					"stateMutability": "pure",
					"type": "function"
				},
				{
					"inputs": [],
					"name": "totalSupply",
					"outputs": [
						{
							"internalType": "uint256",
							"name": "",
							"type": "uint256"
						}
					],
					"stateMutability": "pure",
					"type": "function"
				},
				{
					"inputs": [
						{
							"internalType": "address",
							"name": "recipient",
							"type": "address"
						},
						{
							"internalType": "uint256",
							"name": "amount",
							"type": "uint256"
						}
					],
					"name": "transfer",
					"outputs": [
						{
							"internalType": "bool",
							"name": "",
							"type": "bool"
						}
					],
					"stateMutability": "nonpayable",
					"type": "function"
				},
				{
					"inputs": [],
					"name": "transferDelayEnabled",
					"outputs": [
						{
							"internalType": "bool",
							"name": "",
							"type": "bool"
						}
					],
					"stateMutability": "view",
					"type": "function"
				},
				{
					"inputs": [
						{
							"internalType": "address",
							"name": "sender",
							"type": "address"
						},
						{
							"internalType": "address",
							"name": "recipient",
							"type": "address"
						},
						{
							"internalType": "uint256",
							"name": "amount",
							"type": "uint256"
						}
					],
					"name": "transferFrom",
					"outputs": [
						{
							"internalType": "bool",
							"name": "",
							"type": "bool"
						}
					],
					"stateMutability": "nonpayable",
					"type": "function"
				},
				{
					"stateMutability": "payable",
					"type": "receive"
				}
			],
			"devdoc": {
				"kind": "dev",
				"methods": {},
				"version": 1
			},
			"evm": {
				"assembly": "    /* \"contracts/rosa.sol\":3794:11781  contract Rosalina is Context, IERC20, Ownable {... */\n  mstore(0x40, 0x80)\n    /* \"contracts/rosa.sol\":4184:4223  bool public transferDelayEnabled = true */\n  0x06\n  dup1\n  sload\n  not(0xff)\n  and\n    /* \"contracts/rosa.sol\":4219:4223  true */\n  0x01\n    /* \"contracts/rosa.sol\":4184:4223  bool public transferDelayEnabled = true */\n  swap1\n  dup2\n  or\n  swap1\n  swap2\n  sstore\n    /* \"contracts/rosa.sol\":4304:4306  20 */\n  0x14\n    /* \"contracts/rosa.sol\":4273:4306  uint256 private _initialBuyTax=20 */\n  0x07\n  dup2\n  swap1\n  sstore\n    /* \"contracts/rosa.sol\":4313:4347  uint256 private _initialSellTax=20 */\n  0x08\n  sstore\n    /* \"contracts/rosa.sol\":4354:4384  uint256 private _finalBuyTax=1 */\n  0x09\n  dup2\n  dup2\n  sstore\n    /* \"contracts/rosa.sol\":4391:4422  uint256 private _finalSellTax=1 */\n  0x0a\n  swap2\n  dup3\n  sstore\n    /* \"contracts/rosa.sol\":4429:4463  uint256 private _reduceBuyTaxAt=10 */\n  0x0b\n  dup3\n  swap1\n  sstore\n    /* \"contracts/rosa.sol\":4470:4505  uint256 private _reduceSellTaxAt=10 */\n  0x0c\n  dup3\n  swap1\n  sstore\n    /* \"contracts/rosa.sol\":4512:4549  uint256 private _preventSwapBefore=10 */\n  0x0d\n  dup3\n  swap1\n  sstore\n    /* \"contracts/rosa.sol\":4184:4223  bool public transferDelayEnabled = true */\n  0x00\n    /* \"contracts/rosa.sol\":4556:4583  uint256 private _buyCount=0 */\n  0x0e\n  sstore\n    /* \"contracts/rosa.sol\":4852:4865  10**_decimals */\n  tag_1\n  swap2\n  tag_2\n  jump\t// in\ntag_1:\n    /* \"contracts/rosa.sol\":4842:4865  4000000 * 10**_decimals */\n  tag_3\n  swap1\n    /* \"contracts/rosa.sol\":4842:4849  4000000 */\n  0x3d0900\n    /* \"contracts/rosa.sol\":4842:4865  4000000 * 10**_decimals */\n  tag_4\n  jump\t// in\ntag_3:\n    /* \"contracts/rosa.sol\":4812:4865  uint256 public _maxTxAmount = 4000000 * 10**_decimals */\n  0x0f\n  sstore\n    /* \"contracts/rosa.sol\":4914:4927  10**_decimals */\n  tag_5\n    /* \"contracts/rosa.sol\":4627:4628  9 */\n  0x09\n    /* \"contracts/rosa.sol\":4914:4916  10 */\n  0x0a\n    /* \"contracts/rosa.sol\":4914:4927  10**_decimals */\n  tag_2\n  jump\t// in\ntag_5:\n    /* \"contracts/rosa.sol\":4904:4927  4000000 * 10**_decimals */\n  tag_6\n  swap1\n    /* \"contracts/rosa.sol\":4904:4911  4000000 */\n  0x3d0900\n    /* \"contracts/rosa.sol\":4904:4927  4000000 * 10**_decimals */\n  tag_4\n  jump\t// in\ntag_6:\n    /* \"contracts/rosa.sol\":4872:4927  uint256 public _maxWalletSize = 4000000 * 10**_decimals */\n  0x10\n  sstore\n    /* \"contracts/rosa.sol\":4978:4991  10**_decimals */\n  tag_7\n    /* \"contracts/rosa.sol\":4627:4628  9 */\n  0x09\n    /* \"contracts/rosa.sol\":4978:4980  10 */\n  0x0a\n    /* \"contracts/rosa.sol\":4978:4991  10**_decimals */\n  tag_2\n  jump\t// in\ntag_7:\n    /* \"contracts/rosa.sol\":4968:4991  1000000 * 10**_decimals */\n  tag_8\n  swap1\n    /* \"contracts/rosa.sol\":4968:4975  1000000 */\n  0x0f4240\n    /* \"contracts/rosa.sol\":4968:4991  1000000 * 10**_decimals */\n  tag_4\n  jump\t// in\ntag_8:\n    /* \"contracts/rosa.sol\":4934:4991  uint256 public _taxSwapThreshold= 1000000 * 10**_decimals */\n  0x11\n  sstore\n    /* \"contracts/rosa.sol\":5036:5049  10**_decimals */\n  tag_9\n    /* \"contracts/rosa.sol\":4627:4628  9 */\n  0x09\n    /* \"contracts/rosa.sol\":5036:5038  10 */\n  0x0a\n    /* \"contracts/rosa.sol\":5036:5049  10**_decimals */\n  tag_2\n  jump\t// in\ntag_9:\n    /* \"contracts/rosa.sol\":5026:5049  2000000 * 10**_decimals */\n  tag_10\n  swap1\n    /* \"contracts/rosa.sol\":5026:5033  2000000 */\n  0x1e8480\n    /* \"contracts/rosa.sol\":5026:5049  2000000 * 10**_decimals */\n  tag_4\n  jump\t// in\ntag_10:\n    /* \"contracts/rosa.sol\":4998:5049  uint256 public _maxTaxSwap= 2000000 * 10**_decimals */\n  0x12\n  sstore\n    /* \"contracts/rosa.sol\":5174:5201  bool private inSwap = false */\n  0x14\n  dup1\n  sload\n  not(shl(0xa8, 0xffff))\n    /* \"contracts/rosa.sol\":5208:5240  bool private swapEnabled = false */\n  and\n  swap1\n  sstore\n    /* \"contracts/rosa.sol\":5397:5714  constructor () {... */\n  callvalue\n  dup1\n  iszero\n  tag_11\n  jumpi\n  0x00\n  dup1\n  revert\ntag_11:\n  pop\n    /* \"contracts/rosa.sol\":2525:2542  address msgSender */\n  0x00\n    /* \"contracts/rosa.sol\":2568:2586  _owner = msgSender */\n  dup1\n  sload\n  not(sub(shl(0xa0, 0x01), 0x01))\n  and\n    /* \"contracts/rosa.sol\":496:506  msg.sender */\n  caller\n    /* \"contracts/rosa.sol\":2568:2586  _owner = msgSender */\n  swap1\n  dup2\n  or\n  dup3\n  sstore\n    /* \"contracts/rosa.sol\":2602:2645  OwnershipTransferred(address(0), msgSender) */\n  mload(0x40)\n    /* \"contracts/rosa.sol\":496:506  msg.sender */\n  swap1\n  swap2\n  dup3\n  swap2\n    /* \"contracts/rosa.sol\":2602:2645  OwnershipTransferred(address(0), msgSender) */\n  0x8be0079c531659141344cd1fd0a4f28419497f9722a3daafe3b4186f6b6457e0\n  swap1\n    /* \"contracts/rosa.sol\":2525:2542  address msgSender */\n  dup3\n  swap1\n    /* \"contracts/rosa.sol\":2602:2645  OwnershipTransferred(address(0), msgSender) */\n  log3\n  pop\n    /* \"contracts/rosa.sol\":5423:5433  _taxWallet */\n  0x06\n    /* \"contracts/rosa.sol\":5423:5457  _taxWallet = payable(_msgSender()) */\n  dup1\n  sload\n  not(sub(shl(0xa8, 0x01), 0x0100))\n  and\n  0x0100\n    /* \"contracts/rosa.sol\":496:506  msg.sender */\n  caller\n    /* \"contracts/rosa.sol\":5423:5457  _taxWallet = payable(_msgSender()) */\n  mul\n  or\n  swap1\n  sstore\n    /* \"contracts/rosa.sol\":4682:4695  10**_decimals */\n  tag_19\n    /* \"contracts/rosa.sol\":4627:4628  9 */\n  0x09\n    /* \"contracts/rosa.sol\":4682:4684  10 */\n  0x0a\n    /* \"contracts/rosa.sol\":4682:4695  10**_decimals */\n  tag_2\n  jump\t// in\ntag_19:\n    /* \"contracts/rosa.sol\":4670:4695  200000000 * 10**_decimals */\n  tag_20\n  swap1\n    /* \"contracts/rosa.sol\":4670:4679  200000000 */\n  0x0bebc200\n    /* \"contracts/rosa.sol\":4670:4695  200000000 * 10**_decimals */\n  tag_4\n  jump\t// in\ntag_20:\n    /* \"contracts/rosa.sol\":496:506  msg.sender */\n  caller\n    /* \"contracts/rosa.sol\":5468:5491  _balances[_msgSender()] */\n  0x00\n  swap1\n  dup2\n  mstore\n    /* \"contracts/rosa.sol\":5468:5477  _balances */\n  0x01\n    /* \"contracts/rosa.sol\":5468:5491  _balances[_msgSender()] */\n  0x20\n  dup2\n  swap1\n  mstore\n  0x40\n  dup3\n  keccak256\n    /* \"contracts/rosa.sol\":5468:5501  _balances[_msgSender()] = _tTotal */\n  swap3\n  swap1\n  swap3\n  sstore\n    /* \"contracts/rosa.sol\":5512:5530  _isExcludedFromFee */\n  0x03\n  swap1\n    /* \"contracts/rosa.sol\":5531:5538  owner() */\n  tag_22\n    /* \"contracts/rosa.sol\":2699:2706  address */\n  0x00\n    /* \"contracts/rosa.sol\":2726:2732  _owner */\n  sload\n  sub(shl(0xa0, 0x01), 0x01)\n  and\n  swap1\n    /* \"contracts/rosa.sol\":2661:2740  function owner() public view returns (address) {... */\n  jump\n    /* \"contracts/rosa.sol\":5531:5538  owner() */\ntag_22:\n  sub(shl(0xa0, 0x01), 0x01)\n    /* \"contracts/rosa.sol\":5512:5539  _isExcludedFromFee[owner()] */\n  swap1\n  dup2\n  and\n  dup3\n  mstore\n  0x20\n  dup1\n  dup4\n  add\n  swap4\n  swap1\n  swap4\n  mstore\n  0x40\n  swap2\n  dup3\n  add\n  0x00\n  swap1\n  dup2\n  keccak256\n    /* \"contracts/rosa.sol\":5512:5546  _isExcludedFromFee[owner()] = true */\n  dup1\n  sload\n  swap6\n  iszero\n  iszero\n  not(0xff)\n  swap7\n  dup8\n  and\n  or\n  swap1\n  sstore\n    /* \"contracts/rosa.sol\":5584:5588  this */\n  address\n    /* \"contracts/rosa.sol\":5557:5590  _isExcludedFromFee[address(this)] */\n  dup2\n  mstore\n    /* \"contracts/rosa.sol\":5557:5575  _isExcludedFromFee */\n  0x03\n    /* \"contracts/rosa.sol\":5557:5590  _isExcludedFromFee[address(this)] */\n  swap1\n  swap4\n  mstore\n  dup2\n  dup4\n  keccak256\n    /* \"contracts/rosa.sol\":5557:5597  _isExcludedFromFee[address(this)] = true */\n  dup1\n  sload\n  dup6\n  and\n    /* \"contracts/rosa.sol\":5512:5546  _isExcludedFromFee[owner()] = true */\n  0x01\n    /* \"contracts/rosa.sol\":5557:5597  _isExcludedFromFee[address(this)] = true */\n  swap1\n  dup2\n  or\n  swap1\n  swap2\n  sstore\n    /* \"contracts/rosa.sol\":5627:5637  _taxWallet */\n  sload(0x06)\n    /* \"contracts/rosa.sol\":5512:5546  _isExcludedFromFee[owner()] = true */\n  0x0100\n    /* \"contracts/rosa.sol\":5627:5637  _taxWallet */\n  swap1\n  div\n  swap1\n  swap2\n  and\n    /* \"contracts/rosa.sol\":5608:5638  _isExcludedFromFee[_taxWallet] */\n  dup4\n  mstore\n  swap2\n  keccak256\n    /* \"contracts/rosa.sol\":5608:5645  _isExcludedFromFee[_taxWallet] = true */\n  dup1\n  sload\n  swap1\n  swap3\n  and\n  or\n  swap1\n  sstore\n    /* \"contracts/rosa.sol\":5684:5696  _msgSender() */\n  tag_24\n    /* \"contracts/rosa.sol\":496:506  msg.sender */\n  caller\n  swap1\n    /* \"contracts/rosa.sol\":416:514  function _msgSender() internal view virtual returns (address) {... */\n  jump\n    /* \"contracts/rosa.sol\":5684:5696  _msgSender() */\ntag_24:\n  sub(shl(0xa0, 0x01), 0x01)\n    /* \"contracts/rosa.sol\":5663:5706  Transfer(address(0), _msgSender(), _tTotal) */\n  and\n    /* \"contracts/rosa.sol\":5680:5681  0 */\n  0x00\n    /* \"contracts/rosa.sol\":5663:5706  Transfer(address(0), _msgSender(), _tTotal) */\n  0xddf252ad1be2c89b69c2b068fc378daa952ba7f163c4a11628f55a4df523b3ef\n    /* \"contracts/rosa.sol\":4682:4695  10**_decimals */\n  tag_25\n    /* \"contracts/rosa.sol\":4627:4628  9 */\n  0x09\n    /* \"contracts/rosa.sol\":4682:4684  10 */\n  0x0a\n    /* \"contracts/rosa.sol\":4682:4695  10**_decimals */\n  tag_2\n  jump\t// in\ntag_25:\n    /* \"contracts/rosa.sol\":4670:4695  200000000 * 10**_decimals */\n  tag_26\n  swap1\n    /* \"contracts/rosa.sol\":4670:4679  200000000 */\n  0x0bebc200\n    /* \"contracts/rosa.sol\":4670:4695  200000000 * 10**_decimals */\n  tag_4\n  jump\t// in\ntag_26:\n    /* \"contracts/rosa.sol\":5663:5706  Transfer(address(0), _msgSender(), _tTotal) */\n  mload(0x40)\n    /* \"#utility.yul\":1848:1873   */\n  swap1\n  dup2\n  mstore\n    /* \"#utility.yul\":1836:1838   */\n  0x20\n    /* \"#utility.yul\":1821:1839   */\n  add\n    /* \"contracts/rosa.sol\":5663:5706  Transfer(address(0), _msgSender(), _tTotal) */\n  mload(0x40)\n  dup1\n  swap2\n  sub\n  swap1\n  log3\n    /* \"contracts/rosa.sol\":3794:11781  contract Rosalina is Context, IERC20, Ownable {... */\n  jump(tag_35)\n    /* \"#utility.yul\":14:141   */\ntag_32:\n    /* \"#utility.yul\":75:85   */\n  0x4e487b71\n    /* \"#utility.yul\":70:73   */\n  0xe0\n    /* \"#utility.yul\":66:86   */\n  shl\n    /* \"#utility.yul\":63:64   */\n  0x00\n    /* \"#utility.yul\":56:87   */\n  mstore\n    /* \"#utility.yul\":106:110   */\n  0x11\n    /* \"#utility.yul\":103:104   */\n  0x04\n    /* \"#utility.yul\":96:111   */\n  mstore\n    /* \"#utility.yul\":130:134   */\n  0x24\n    /* \"#utility.yul\":127:128   */\n  0x00\n    /* \"#utility.yul\":120:135   */\n  revert\n    /* \"#utility.yul\":146:568   */\ntag_33:\n    /* \"#utility.yul\":235:236   */\n  0x01\n    /* \"#utility.yul\":278:283   */\n  dup2\n    /* \"#utility.yul\":235:236   */\n  dup2\n    /* \"#utility.yul\":292:562   */\ntag_38:\n    /* \"#utility.yul\":313:320   */\n  dup1\n    /* \"#utility.yul\":303:311   */\n  dup6\n    /* \"#utility.yul\":300:321   */\n  gt\n    /* \"#utility.yul\":292:562   */\n  iszero\n  tag_40\n  jumpi\n    /* \"#utility.yul\":372:376   */\n  dup2\n    /* \"#utility.yul\":368:369   */\n  0x00\n    /* \"#utility.yul\":364:370   */\n  not\n    /* \"#utility.yul\":360:377   */\n  div\n    /* \"#utility.yul\":354:358   */\n  dup3\n    /* \"#utility.yul\":351:378   */\n  gt\n    /* \"#utility.yul\":348:401   */\n  iszero\n  tag_42\n  jumpi\n    /* \"#utility.yul\":381:399   */\n  tag_42\n  tag_32\n  jump\t// in\ntag_42:\n    /* \"#utility.yul\":431:438   */\n  dup1\n    /* \"#utility.yul\":421:429   */\n  dup6\n    /* \"#utility.yul\":417:439   */\n  and\n    /* \"#utility.yul\":414:469   */\n  iszero\n  tag_43\n  jumpi\n    /* \"#utility.yul\":451:467   */\n  swap2\n  dup2\n  mul\n  swap2\n    /* \"#utility.yul\":414:469   */\ntag_43:\n    /* \"#utility.yul\":530:552   */\n  swap4\n  dup5\n  shr\n  swap4\n    /* \"#utility.yul\":490:505   */\n  swap1\n  dup1\n  mul\n  swap1\n    /* \"#utility.yul\":292:562   */\n  jump(tag_38)\ntag_40:\n    /* \"#utility.yul\":296:299   */\n  pop\n    /* \"#utility.yul\":146:568   */\n  swap3\n  pop\n  swap3\n  swap1\n  pop\n  jump\t// out\n    /* \"#utility.yul\":573:1379   */\ntag_34:\n    /* \"#utility.yul\":622:627   */\n  0x00\n    /* \"#utility.yul\":652:660   */\n  dup3\n    /* \"#utility.yul\":642:722   */\n  tag_45\n  jumpi\n  pop\n    /* \"#utility.yul\":693:694   */\n  0x01\n    /* \"#utility.yul\":707:712   */\n  jump(tag_44)\n    /* \"#utility.yul\":642:722   */\ntag_45:\n    /* \"#utility.yul\":741:745   */\n  dup2\n    /* \"#utility.yul\":731:807   */\n  tag_46\n  jumpi\n  pop\n    /* \"#utility.yul\":778:779   */\n  0x00\n    /* \"#utility.yul\":792:797   */\n  jump(tag_44)\n    /* \"#utility.yul\":731:807   */\ntag_46:\n    /* \"#utility.yul\":823:827   */\n  dup2\n    /* \"#utility.yul\":841:842   */\n  0x01\n    /* \"#utility.yul\":836:895   */\n  dup2\n  eq\n  tag_48\n  jumpi\n    /* \"#utility.yul\":909:910   */\n  0x02\n    /* \"#utility.yul\":904:1034   */\n  dup2\n  eq\n  tag_49\n  jumpi\n    /* \"#utility.yul\":816:1034   */\n  jump(tag_47)\n    /* \"#utility.yul\":836:895   */\ntag_48:\n    /* \"#utility.yul\":866:867   */\n  0x01\n    /* \"#utility.yul\":857:867   */\n  swap2\n  pop\n    /* \"#utility.yul\":880:885   */\n  pop\n  jump(tag_44)\n    /* \"#utility.yul\":904:1034   */\ntag_49:\n    /* \"#utility.yul\":941:944   */\n  0xff\n    /* \"#utility.yul\":931:939   */\n  dup5\n    /* \"#utility.yul\":928:945   */\n  gt\n    /* \"#utility.yul\":925:968   */\n  iszero\n  tag_51\n  jumpi\n    /* \"#utility.yul\":948:966   */\n  tag_51\n  tag_32\n  jump\t// in\ntag_51:\n  pop\n  pop\n    /* \"#utility.yul\":1004:1005   */\n  0x01\n    /* \"#utility.yul\":990:1006   */\n  dup3\n  shl\n    /* \"#utility.yul\":1019:1024   */\n  jump(tag_44)\n    /* \"#utility.yul\":816:1034   */\ntag_47:\n  pop\n    /* \"#utility.yul\":1118:1120   */\n  0x20\n    /* \"#utility.yul\":1108:1116   */\n  dup4\n    /* \"#utility.yul\":1105:1121   */\n  lt\n    /* \"#utility.yul\":1099:1102   */\n  0x0133\n    /* \"#utility.yul\":1093:1097   */\n  dup4\n    /* \"#utility.yul\":1090:1103   */\n  lt\n    /* \"#utility.yul\":1086:1122   */\n  and\n    /* \"#utility.yul\":1080:1082   */\n  0x4e\n    /* \"#utility.yul\":1070:1078   */\n  dup5\n    /* \"#utility.yul\":1067:1083   */\n  lt\n    /* \"#utility.yul\":1062:1064   */\n  0x0b\n    /* \"#utility.yul\":1056:1060   */\n  dup5\n    /* \"#utility.yul\":1053:1065   */\n  lt\n    /* \"#utility.yul\":1049:1084   */\n  and\n    /* \"#utility.yul\":1046:1123   */\n  or\n    /* \"#utility.yul\":1043:1202   */\n  iszero\n  tag_52\n  jumpi\n  pop\n    /* \"#utility.yul\":1155:1174   */\n  dup2\n  dup2\n  exp\n    /* \"#utility.yul\":1187:1192   */\n  jump(tag_44)\n    /* \"#utility.yul\":1043:1202   */\ntag_52:\n    /* \"#utility.yul\":1234:1268   */\n  tag_53\n    /* \"#utility.yul\":1259:1267   */\n  dup4\n    /* \"#utility.yul\":1253:1257   */\n  dup4\n    /* \"#utility.yul\":1234:1268   */\n  tag_33\n  jump\t// in\ntag_53:\n    /* \"#utility.yul\":1304:1310   */\n  dup1\n    /* \"#utility.yul\":1300:1301   */\n  0x00\n    /* \"#utility.yul\":1296:1302   */\n  not\n    /* \"#utility.yul\":1292:1311   */\n  div\n    /* \"#utility.yul\":1283:1290   */\n  dup3\n    /* \"#utility.yul\":1280:1312   */\n  gt\n    /* \"#utility.yul\":1277:1335   */\n  iszero\n  tag_55\n  jumpi\n    /* \"#utility.yul\":1315:1333   */\n  tag_55\n  tag_32\n  jump\t// in\ntag_55:\n    /* \"#utility.yul\":1353:1373   */\n  mul\n  swap1\n  pop\n    /* \"#utility.yul\":573:1379   */\ntag_44:\n  swap3\n  swap2\n  pop\n  pop\n  jump\t// out\n    /* \"#utility.yul\":1384:1524   */\ntag_2:\n    /* \"#utility.yul\":1442:1447   */\n  0x00\n    /* \"#utility.yul\":1471:1518   */\n  tag_57\n    /* \"#utility.yul\":1512:1516   */\n  0xff\n    /* \"#utility.yul\":1502:1510   */\n  dup5\n    /* \"#utility.yul\":1498:1517   */\n  and\n    /* \"#utility.yul\":1492:1496   */\n  dup4\n    /* \"#utility.yul\":1471:1518   */\n  tag_34\n  jump\t// in\ntag_57:\n    /* \"#utility.yul\":1462:1518   */\n  swap4\n    /* \"#utility.yul\":1384:1524   */\n  swap3\n  pop\n  pop\n  pop\n  jump\t// out\n    /* \"#utility.yul\":1529:1697   */\ntag_4:\n    /* \"#utility.yul\":1602:1611   */\n  dup1\n  dup3\n  mul\n    /* \"#utility.yul\":1633:1642   */\n  dup2\n  iszero\n    /* \"#utility.yul\":1650:1665   */\n  dup3\n  dup3\n  div\n    /* \"#utility.yul\":1644:1666   */\n  dup5\n  eq\n    /* \"#utility.yul\":1630:1667   */\n  or\n    /* \"#utility.yul\":1620:1691   */\n  tag_44\n  jumpi\n    /* \"#utility.yul\":1671:1689   */\n  tag_44\n  tag_32\n  jump\t// in\n    /* \"#utility.yul\":1702:1879   */\ntag_35:\n    /* \"contracts/rosa.sol\":3794:11781  contract Rosalina is Context, IERC20, Ownable {... */\n  dataSize(sub_0)\n  dup1\n  dataOffset(sub_0)\n  0x00\n  codecopy\n  0x00\n  return\nstop\n\nsub_0: assembly {\n        /* \"contracts/rosa.sol\":3794:11781  contract Rosalina is Context, IERC20, Ownable {... */\n      mstore(0x40, 0x80)\n      jumpi(tag_1, lt(calldatasize, 0x04))\n      shr(0xe0, calldataload(0x00))\n      dup1\n      0x751039fc\n      gt\n      tag_22\n      jumpi\n      dup1\n      0xa9059cbb\n      gt\n      tag_23\n      jumpi\n      dup1\n      0xa9059cbb\n      eq\n      tag_17\n      jumpi\n      dup1\n      0xbf474bed\n      eq\n      tag_18\n      jumpi\n      dup1\n      0xc876d0b9\n      eq\n      tag_19\n      jumpi\n      dup1\n      0xc9567bf9\n      eq\n      tag_20\n      jumpi\n      dup1\n      0xdd62ed3e\n      eq\n      tag_21\n      jumpi\n      0x00\n      dup1\n      revert\n    tag_23:\n      dup1\n      0x751039fc\n      eq\n      tag_12\n      jumpi\n      dup1\n      0x7d1db4a5\n      eq\n      tag_13\n      jumpi\n      dup1\n      0x8da5cb5b\n      eq\n      tag_14\n      jumpi\n      dup1\n      0x8f9a55c0\n      eq\n      tag_15\n      jumpi\n      dup1\n      0x95d89b41\n      eq\n      tag_16\n      jumpi\n      0x00\n      dup1\n      revert\n    tag_22:\n      dup1\n      0x23b872dd\n      gt\n      tag_24\n      jumpi\n      dup1\n      0x23b872dd\n      eq\n      tag_7\n      jumpi\n      dup1\n      0x313ce567\n      eq\n      tag_8\n      jumpi\n      dup1\n      0x51bc3c85\n      eq\n      tag_9\n      jumpi\n      dup1\n      0x70a08231\n      eq\n      tag_10\n      jumpi\n      dup1\n      0x715018a6\n      eq\n      tag_11\n      jumpi\n      0x00\n      dup1\n      revert\n    tag_24:\n      dup1\n      0x06fdde03\n      eq\n      tag_3\n      jumpi\n      dup1\n      0x095ea7b3\n      eq\n      tag_4\n      jumpi\n      dup1\n      0x0faee56f\n      eq\n      tag_5\n      jumpi\n      dup1\n      0x18160ddd\n      eq\n      tag_6\n      jumpi\n      0x00\n      dup1\n      revert\n    tag_1:\n      jumpi(tag_2, calldatasize)\n      stop\n    tag_2:\n      0x00\n      dup1\n      revert\n        /* \"contracts/rosa.sol\":5722:5805  function name() public pure returns (string memory) {... */\n    tag_3:\n      callvalue\n      dup1\n      iszero\n      tag_27\n      jumpi\n      0x00\n      dup1\n      revert\n    tag_27:\n      pop\n        /* \"contracts/rosa.sol\":5792:5797  _name */\n      0x40\n      dup1\n      mload\n      dup1\n      dup3\n      add\n      swap1\n      swap2\n      mstore\n      0x08\n      dup2\n      mstore\n      shl(0xc0, 0x524f53414c494e41)\n      0x20\n      dup3\n      add\n      mstore\n        /* \"contracts/rosa.sol\":5722:5805  function name() public pure returns (string memory) {... */\n    tag_28:\n      mload(0x40)\n      tag_30\n      swap2\n      swap1\n      tag_31\n      jump\t// in\n    tag_30:\n      mload(0x40)\n      dup1\n      swap2\n      sub\n      swap1\n      return\n        /* \"contracts/rosa.sol\":6555:6716  function approve(address spender, uint256 amount) public override returns (bool) {... */\n    tag_4:\n      callvalue\n      dup1\n      iszero\n      tag_32\n      jumpi\n      0x00\n      dup1\n      revert\n    tag_32:\n      pop\n      tag_33\n      tag_34\n      calldatasize\n      0x04\n      tag_35\n      jump\t// in\n    tag_34:\n      tag_36\n      jump\t// in\n    tag_33:\n      mload(0x40)\n        /* \"#utility.yul\":1188:1202   */\n      swap1\n      iszero\n        /* \"#utility.yul\":1181:1203   */\n      iszero\n        /* \"#utility.yul\":1163:1204   */\n      dup2\n      mstore\n        /* \"#utility.yul\":1151:1153   */\n      0x20\n        /* \"#utility.yul\":1136:1154   */\n      add\n        /* \"contracts/rosa.sol\":6555:6716  function approve(address spender, uint256 amount) public override returns (bool) {... */\n      tag_30\n        /* \"#utility.yul\":1023:1210   */\n      jump\n        /* \"contracts/rosa.sol\":4998:5049  uint256 public _maxTaxSwap= 2000000 * 10**_decimals */\n    tag_5:\n      callvalue\n      dup1\n      iszero\n      tag_39\n      jumpi\n      0x00\n      dup1\n      revert\n    tag_39:\n      pop\n      tag_40\n      sload(0x12)\n      dup2\n      jump\n    tag_40:\n      mload(0x40)\n        /* \"#utility.yul\":1361:1386   */\n      swap1\n      dup2\n      mstore\n        /* \"#utility.yul\":1349:1351   */\n      0x20\n        /* \"#utility.yul\":1334:1352   */\n      add\n        /* \"contracts/rosa.sol\":4998:5049  uint256 public _maxTaxSwap= 2000000 * 10**_decimals */\n      tag_30\n        /* \"#utility.yul\":1215:1392   */\n      jump\n        /* \"contracts/rosa.sol\":5999:6094  function totalSupply() public pure override returns (uint256) {... */\n    tag_6:\n      callvalue\n      dup1\n      iszero\n      tag_44\n      jumpi\n      0x00\n      dup1\n      revert\n    tag_44:\n      pop\n      tag_40\n      tag_46\n      jump\t// in\n        /* \"contracts/rosa.sol\":6724:7037  function transferFrom(address sender, address recipient, uint256 amount) public override returns (bool) {... */\n    tag_7:\n      callvalue\n      dup1\n      iszero\n      tag_48\n      jumpi\n      0x00\n      dup1\n      revert\n    tag_48:\n      pop\n      tag_33\n      tag_50\n      calldatasize\n      0x04\n      tag_51\n      jump\t// in\n    tag_50:\n      tag_52\n      jump\t// in\n        /* \"contracts/rosa.sol\":5908:5991  function decimals() public pure returns (uint8) {... */\n    tag_8:\n      callvalue\n      dup1\n      iszero\n      tag_54\n      jumpi\n      0x00\n      dup1\n      revert\n    tag_54:\n      pop\n      mload(0x40)\n        /* \"contracts/rosa.sol\":4627:4628  9 */\n      0x09\n        /* \"#utility.yul\":2000:2036   */\n      dup2\n      mstore\n        /* \"#utility.yul\":1988:1990   */\n      0x20\n        /* \"#utility.yul\":1973:1991   */\n      add\n        /* \"contracts/rosa.sol\":5908:5991  function decimals() public pure returns (uint8) {... */\n      tag_30\n        /* \"#utility.yul\":1858:2042   */\n      jump\n        /* \"contracts/rosa.sol\":11430:11778  function manualSwap() external {... */\n    tag_9:\n      callvalue\n      dup1\n      iszero\n      tag_59\n      jumpi\n      0x00\n      dup1\n      revert\n    tag_59:\n      pop\n      tag_60\n      tag_61\n      jump\t// in\n    tag_60:\n      stop\n        /* \"contracts/rosa.sol\":6102:6221  function balanceOf(address account) public view override returns (uint256) {... */\n    tag_10:\n      callvalue\n      dup1\n      iszero\n      tag_62\n      jumpi\n      0x00\n      dup1\n      revert\n    tag_62:\n      pop\n      tag_40\n      tag_64\n      calldatasize\n      0x04\n      tag_65\n      jump\t// in\n    tag_64:\n      sub(shl(0xa0, 0x01), 0x01)\n        /* \"contracts/rosa.sol\":6195:6213  _balances[account] */\n      and\n        /* \"contracts/rosa.sol\":6168:6175  uint256 */\n      0x00\n        /* \"contracts/rosa.sol\":6195:6213  _balances[account] */\n      swap1\n      dup2\n      mstore\n        /* \"contracts/rosa.sol\":6195:6204  _balances */\n      0x01\n        /* \"contracts/rosa.sol\":6195:6213  _balances[account] */\n      0x20\n      mstore\n      0x40\n      swap1\n      keccak256\n      sload\n      swap1\n        /* \"contracts/rosa.sol\":6102:6221  function balanceOf(address account) public view override returns (uint256) {... */\n      jump\n        /* \"contracts/rosa.sol\":2875:3023  function renounceOwnership() public virtual onlyOwner {... */\n    tag_11:\n      callvalue\n      dup1\n      iszero\n      tag_68\n      jumpi\n      0x00\n      dup1\n      revert\n    tag_68:\n      pop\n      tag_60\n      tag_70\n      jump\t// in\n        /* \"contracts/rosa.sol\":10408:10604  function removeLimits() external onlyOwner{... */\n    tag_12:\n      callvalue\n      dup1\n      iszero\n      tag_71\n      jumpi\n      0x00\n      dup1\n      revert\n    tag_71:\n      pop\n      tag_60\n      tag_73\n      jump\t// in\n        /* \"contracts/rosa.sol\":4812:4865  uint256 public _maxTxAmount = 4000000 * 10**_decimals */\n    tag_13:\n      callvalue\n      dup1\n      iszero\n      tag_74\n      jumpi\n      0x00\n      dup1\n      revert\n    tag_74:\n      pop\n      tag_40\n      sload(0x0f)\n      dup2\n      jump\n        /* \"contracts/rosa.sol\":2661:2740  function owner() public view returns (address) {... */\n    tag_14:\n      callvalue\n      dup1\n      iszero\n      tag_78\n      jumpi\n      0x00\n      dup1\n      revert\n    tag_78:\n      pop\n        /* \"contracts/rosa.sol\":2699:2706  address */\n      0x00\n        /* \"contracts/rosa.sol\":2726:2732  _owner */\n      sload\n        /* \"contracts/rosa.sol\":2661:2740  function owner() public view returns (address) {... */\n      mload(0x40)\n      sub(shl(0xa0, 0x01), 0x01)\n        /* \"contracts/rosa.sol\":2726:2732  _owner */\n      swap1\n      swap2\n      and\n        /* \"#utility.yul\":2445:2496   */\n      dup2\n      mstore\n        /* \"#utility.yul\":2433:2435   */\n      0x20\n        /* \"#utility.yul\":2418:2436   */\n      add\n        /* \"contracts/rosa.sol\":2661:2740  function owner() public view returns (address) {... */\n      tag_30\n        /* \"#utility.yul\":2299:2502   */\n      jump\n        /* \"contracts/rosa.sol\":4872:4927  uint256 public _maxWalletSize = 4000000 * 10**_decimals */\n    tag_15:\n      callvalue\n      dup1\n      iszero\n      tag_83\n      jumpi\n      0x00\n      dup1\n      revert\n    tag_83:\n      pop\n      tag_40\n      sload(0x10)\n      dup2\n      jump\n        /* \"contracts/rosa.sol\":5813:5900  function symbol() public pure returns (string memory) {... */\n    tag_16:\n      callvalue\n      dup1\n      iszero\n      tag_87\n      jumpi\n      0x00\n      dup1\n      revert\n    tag_87:\n      pop\n        /* \"contracts/rosa.sol\":5885:5892  _symbol */\n      0x40\n      dup1\n      mload\n      dup1\n      dup3\n      add\n      swap1\n      swap2\n      mstore\n      0x04\n      dup2\n      mstore\n      shl(0xe0, 0x524f5341)\n      0x20\n      dup3\n      add\n      mstore\n        /* \"contracts/rosa.sol\":5813:5900  function symbol() public pure returns (string memory) {... */\n      jump(tag_28)\n        /* \"contracts/rosa.sol\":6229:6396  function transfer(address recipient, uint256 amount) public override returns (bool) {... */\n    tag_17:\n      callvalue\n      dup1\n      iszero\n      tag_91\n      jumpi\n      0x00\n      dup1\n      revert\n    tag_91:\n      pop\n      tag_33\n      tag_93\n      calldatasize\n      0x04\n      tag_35\n      jump\t// in\n    tag_93:\n      tag_94\n      jump\t// in\n        /* \"contracts/rosa.sol\":4934:4991  uint256 public _taxSwapThreshold= 1000000 * 10**_decimals */\n    tag_18:\n      callvalue\n      dup1\n      iszero\n      tag_96\n      jumpi\n      0x00\n      dup1\n      revert\n    tag_96:\n      pop\n      tag_40\n      sload(0x11)\n      dup2\n      jump\n        /* \"contracts/rosa.sol\":4184:4223  bool public transferDelayEnabled = true */\n    tag_19:\n      callvalue\n      dup1\n      iszero\n      tag_100\n      jumpi\n      0x00\n      dup1\n      revert\n    tag_100:\n      pop\n      sload(0x06)\n      tag_33\n      swap1\n      0xff\n      and\n      dup2\n      jump\n        /* \"contracts/rosa.sol\":10714:11385  function openTrading() external onlyOwner() {... */\n    tag_20:\n      callvalue\n      dup1\n      iszero\n      tag_104\n      jumpi\n      0x00\n      dup1\n      revert\n    tag_104:\n      pop\n      tag_60\n      tag_106\n      jump\t// in\n        /* \"contracts/rosa.sol\":6404:6547  function allowance(address owner, address spender) public view override returns (uint256) {... */\n    tag_21:\n      callvalue\n      dup1\n      iszero\n      tag_107\n      jumpi\n      0x00\n      dup1\n      revert\n    tag_107:\n      pop\n      tag_40\n      tag_109\n      calldatasize\n      0x04\n      tag_110\n      jump\t// in\n    tag_109:\n      sub(shl(0xa0, 0x01), 0x01)\n        /* \"contracts/rosa.sol\":6512:6530  _allowances[owner] */\n      swap2\n      dup3\n      and\n        /* \"contracts/rosa.sol\":6485:6492  uint256 */\n      0x00\n        /* \"contracts/rosa.sol\":6512:6530  _allowances[owner] */\n      swap1\n      dup2\n      mstore\n        /* \"contracts/rosa.sol\":6512:6523  _allowances */\n      0x02\n        /* \"contracts/rosa.sol\":6512:6530  _allowances[owner] */\n      0x20\n      swap1\n      dup2\n      mstore\n      0x40\n      dup1\n      dup4\n      keccak256\n        /* \"contracts/rosa.sol\":6512:6539  _allowances[owner][spender] */\n      swap4\n      swap1\n      swap5\n      and\n      dup3\n      mstore\n      swap2\n      swap1\n      swap2\n      mstore\n      keccak256\n      sload\n      swap1\n        /* \"contracts/rosa.sol\":6404:6547  function allowance(address owner, address spender) public view override returns (uint256) {... */\n      jump\n        /* \"contracts/rosa.sol\":6555:6716  function approve(address spender, uint256 amount) public override returns (bool) {... */\n    tag_36:\n        /* \"contracts/rosa.sol\":6630:6634  bool */\n      0x00\n        /* \"contracts/rosa.sol\":6647:6686  _approve(_msgSender(), spender, amount) */\n      tag_115\n        /* \"contracts/rosa.sol\":496:506  msg.sender */\n      caller\n        /* \"contracts/rosa.sol\":6670:6677  spender */\n      dup5\n        /* \"contracts/rosa.sol\":6679:6685  amount */\n      dup5\n        /* \"contracts/rosa.sol\":6647:6655  _approve */\n      tag_118\n        /* \"contracts/rosa.sol\":6647:6686  _approve(_msgSender(), spender, amount) */\n      jump\t// in\n    tag_115:\n      pop\n        /* \"contracts/rosa.sol\":6704:6708  true */\n      0x01\n        /* \"contracts/rosa.sol\":6555:6716  function approve(address spender, uint256 amount) public override returns (bool) {... */\n    tag_114:\n      swap3\n      swap2\n      pop\n      pop\n      jump\t// out\n        /* \"contracts/rosa.sol\":5999:6094  function totalSupply() public pure override returns (uint256) {... */\n    tag_46:\n        /* \"contracts/rosa.sol\":6052:6059  uint256 */\n      0x00\n        /* \"contracts/rosa.sol\":4682:4695  10**_decimals */\n      tag_120\n        /* \"contracts/rosa.sol\":4627:4628  9 */\n      0x09\n        /* \"contracts/rosa.sol\":4682:4684  10 */\n      0x0a\n        /* \"contracts/rosa.sol\":4682:4695  10**_decimals */\n      tag_121\n      jump\t// in\n    tag_120:\n        /* \"contracts/rosa.sol\":4670:4695  200000000 * 10**_decimals */\n      tag_122\n      swap1\n        /* \"contracts/rosa.sol\":4670:4679  200000000 */\n      0x0bebc200\n        /* \"contracts/rosa.sol\":4670:4695  200000000 * 10**_decimals */\n      tag_123\n      jump\t// in\n    tag_122:\n        /* \"contracts/rosa.sol\":6072:6086  return _tTotal */\n      swap1\n      pop\n        /* \"contracts/rosa.sol\":5999:6094  function totalSupply() public pure override returns (uint256) {... */\n      swap1\n      jump\t// out\n        /* \"contracts/rosa.sol\":6724:7037  function transferFrom(address sender, address recipient, uint256 amount) public override returns (bool) {... */\n    tag_52:\n        /* \"contracts/rosa.sol\":6822:6826  bool */\n      0x00\n        /* \"contracts/rosa.sol\":6839:6875  _transfer(sender, recipient, amount) */\n      tag_125\n        /* \"contracts/rosa.sol\":6849:6855  sender */\n      dup5\n        /* \"contracts/rosa.sol\":6857:6866  recipient */\n      dup5\n        /* \"contracts/rosa.sol\":6868:6874  amount */\n      dup5\n        /* \"contracts/rosa.sol\":6839:6848  _transfer */\n      tag_126\n        /* \"contracts/rosa.sol\":6839:6875  _transfer(sender, recipient, amount) */\n      jump\t// in\n    tag_125:\n        /* \"contracts/rosa.sol\":6886:7007  _approve(sender, _msgSender(), _allowances[sender][_msgSender()].sub(amount, \"ERC20: transfer amount exceeds allowance\")) */\n      tag_127\n        /* \"contracts/rosa.sol\":6895:6901  sender */\n      dup5\n        /* \"contracts/rosa.sol\":496:506  msg.sender */\n      caller\n        /* \"contracts/rosa.sol\":6917:7006  _allowances[sender][_msgSender()].sub(amount, \"ERC20: transfer amount exceeds allowance\") */\n      tag_129\n        /* \"contracts/rosa.sol\":6955:6961  amount */\n      dup6\n        /* \"contracts/rosa.sol\":6917:7006  _allowances[sender][_msgSender()].sub(amount, \"ERC20: transfer amount exceeds allowance\") */\n      mload(0x40)\n      dup1\n      0x60\n      add\n      0x40\n      mstore\n      dup1\n      0x28\n      dup2\n      mstore\n      0x20\n      add\n      data_974d1b4421da69cc60b481194f0dad36a5bb4e23da810da7a7fb30cdba178330\n      0x28\n      swap2\n      codecopy\n      sub(shl(0xa0, 0x01), 0x01)\n        /* \"contracts/rosa.sol\":6917:6936  _allowances[sender] */\n      dup11\n      and\n      0x00\n      swap1\n      dup2\n      mstore\n        /* \"contracts/rosa.sol\":6917:6928  _allowances */\n      0x02\n        /* \"contracts/rosa.sol\":6917:6936  _allowances[sender] */\n      0x20\n      swap1\n      dup2\n      mstore\n      0x40\n      dup1\n      dup4\n      keccak256\n        /* \"contracts/rosa.sol\":496:506  msg.sender */\n      caller\n        /* \"contracts/rosa.sol\":6917:6950  _allowances[sender][_msgSender()] */\n      dup5\n      mstore\n      swap1\n      swap2\n      mstore\n      swap1\n      keccak256\n      sload\n      swap2\n      swap1\n        /* \"contracts/rosa.sol\":6917:6954  _allowances[sender][_msgSender()].sub */\n      tag_131\n        /* \"contracts/rosa.sol\":6917:7006  _allowances[sender][_msgSender()].sub(amount, \"ERC20: transfer amount exceeds allowance\") */\n      jump\t// in\n    tag_129:\n        /* \"contracts/rosa.sol\":6886:6894  _approve */\n      tag_118\n        /* \"contracts/rosa.sol\":6886:7007  _approve(sender, _msgSender(), _allowances[sender][_msgSender()].sub(amount, \"ERC20: transfer amount exceeds allowance\")) */\n      jump\t// in\n    tag_127:\n      pop\n        /* \"contracts/rosa.sol\":7025:7029  true */\n      0x01\n        /* \"contracts/rosa.sol\":6724:7037  function transferFrom(address sender, address recipient, uint256 amount) public override returns (bool) {... */\n      swap4\n      swap3\n      pop\n      pop\n      pop\n      jump\t// out\n        /* \"contracts/rosa.sol\":11430:11778  function manualSwap() external {... */\n    tag_61:\n        /* \"contracts/rosa.sol\":11494:11504  _taxWallet */\n      sload(0x06)\n      0x0100\n      swap1\n      div\n      sub(shl(0xa0, 0x01), 0x01)\n      and\n        /* \"contracts/rosa.sol\":496:506  msg.sender */\n      caller\n      sub(shl(0xa0, 0x01), 0x01)\n        /* \"contracts/rosa.sol\":11480:11504  _msgSender()==_taxWallet */\n      and\n      eq\n        /* \"contracts/rosa.sol\":11472:11505  require(_msgSender()==_taxWallet) */\n      tag_135\n      jumpi\n      0x00\n      dup1\n      revert\n    tag_135:\n        /* \"contracts/rosa.sol\":11555:11559  this */\n      address\n        /* \"contracts/rosa.sol\":11516:11536  uint256 tokenBalance */\n      0x00\n        /* \"contracts/rosa.sol\":6195:6213  _balances[account] */\n      swap1\n      dup2\n      mstore\n        /* \"contracts/rosa.sol\":6195:6204  _balances */\n      0x01\n        /* \"contracts/rosa.sol\":6195:6213  _balances[account] */\n      0x20\n      mstore\n      0x40\n      swap1\n      keccak256\n      sload\n        /* \"contracts/rosa.sol\":11575:11589  tokenBalance>0 */\n      dup1\n      iszero\n        /* \"contracts/rosa.sol\":11572:11645  if(tokenBalance>0){... */\n      tag_138\n      jumpi\n        /* \"contracts/rosa.sol\":11603:11633  swapTokensForEth(tokenBalance) */\n      tag_138\n        /* \"contracts/rosa.sol\":11620:11632  tokenBalance */\n      dup2\n        /* \"contracts/rosa.sol\":11603:11619  swapTokensForEth */\n      tag_139\n        /* \"contracts/rosa.sol\":11603:11633  swapTokensForEth(tokenBalance) */\n      jump\t// in\n    tag_138:\n        /* \"contracts/rosa.sol\":11674:11695  address(this).balance */\n      selfbalance\n        /* \"contracts/rosa.sol\":11709:11721  ethBalance>0 */\n      dup1\n      iszero\n        /* \"contracts/rosa.sol\":11706:11771  if(ethBalance>0){... */\n      tag_141\n      jumpi\n        /* \"contracts/rosa.sol\":11735:11759  sendETHToFee(ethBalance) */\n      tag_141\n        /* \"contracts/rosa.sol\":11748:11758  ethBalance */\n      dup2\n        /* \"contracts/rosa.sol\":11735:11747  sendETHToFee */\n      tag_142\n        /* \"contracts/rosa.sol\":11735:11759  sendETHToFee(ethBalance) */\n      jump\t// in\n    tag_141:\n        /* \"contracts/rosa.sol\":11461:11778  {... */\n      pop\n      pop\n        /* \"contracts/rosa.sol\":11430:11778  function manualSwap() external {... */\n      jump\t// out\n        /* \"contracts/rosa.sol\":2875:3023  function renounceOwnership() public virtual onlyOwner {... */\n    tag_70:\n        /* \"contracts/rosa.sol\":2788:2794  _owner */\n      and(sub(shl(0xa0, 0x01), 0x01), sload(0x00))\n        /* \"contracts/rosa.sol\":496:506  msg.sender */\n      caller\n        /* \"contracts/rosa.sol\":2788:2810  _owner == _msgSender() */\n      eq\n        /* \"contracts/rosa.sol\":2780:2847  require(_owner == _msgSender(), \"Ownable: caller is not the owner\") */\n      tag_146\n      jumpi\n      mload(0x40)\n      shl(0xe5, 0x461bcd)\n      dup2\n      mstore\n      0x04\n      add\n      tag_147\n      swap1\n      tag_148\n      jump\t// in\n    tag_147:\n      mload(0x40)\n      dup1\n      swap2\n      sub\n      swap1\n      revert\n    tag_146:\n        /* \"contracts/rosa.sol\":2982:2983  0 */\n      0x00\n        /* \"contracts/rosa.sol\":2966:2972  _owner */\n      dup1\n      sload\n        /* \"contracts/rosa.sol\":2945:2985  OwnershipTransferred(_owner, address(0)) */\n      mload(0x40)\n      sub(shl(0xa0, 0x01), 0x01)\n        /* \"contracts/rosa.sol\":2966:2972  _owner */\n      swap1\n      swap2\n      and\n      swap1\n        /* \"contracts/rosa.sol\":2945:2985  OwnershipTransferred(_owner, address(0)) */\n      0x8be0079c531659141344cd1fd0a4f28419497f9722a3daafe3b4186f6b6457e0\n      swap1\n        /* \"contracts/rosa.sol\":2982:2983  0 */\n      dup4\n      swap1\n        /* \"contracts/rosa.sol\":2945:2985  OwnershipTransferred(_owner, address(0)) */\n      log3\n        /* \"contracts/rosa.sol\":3013:3014  0 */\n      0x00\n        /* \"contracts/rosa.sol\":2996:3015  _owner = address(0) */\n      dup1\n      sload\n      not(sub(shl(0xa0, 0x01), 0x01))\n      and\n      swap1\n      sstore\n        /* \"contracts/rosa.sol\":2875:3023  function renounceOwnership() public virtual onlyOwner {... */\n      jump\t// out\n        /* \"contracts/rosa.sol\":10408:10604  function removeLimits() external onlyOwner{... */\n    tag_73:\n        /* \"contracts/rosa.sol\":2788:2794  _owner */\n      and(sub(shl(0xa0, 0x01), 0x01), sload(0x00))\n        /* \"contracts/rosa.sol\":496:506  msg.sender */\n      caller\n        /* \"contracts/rosa.sol\":2788:2810  _owner == _msgSender() */\n      eq\n        /* \"contracts/rosa.sol\":2780:2847  require(_owner == _msgSender(), \"Ownable: caller is not the owner\") */\n      tag_152\n      jumpi\n      mload(0x40)\n      shl(0xe5, 0x461bcd)\n      dup2\n      mstore\n      0x04\n      add\n      tag_147\n      swap1\n      tag_148\n      jump\t// in\n    tag_152:\n        /* \"contracts/rosa.sol\":4682:4695  10**_decimals */\n      tag_155\n        /* \"contracts/rosa.sol\":4627:4628  9 */\n      0x09\n        /* \"contracts/rosa.sol\":4682:4684  10 */\n      0x0a\n        /* \"contracts/rosa.sol\":4682:4695  10**_decimals */\n      tag_121\n      jump\t// in\n    tag_155:\n        /* \"contracts/rosa.sol\":4670:4695  200000000 * 10**_decimals */\n      tag_156\n      swap1\n        /* \"contracts/rosa.sol\":4670:4679  200000000 */\n      0x0bebc200\n        /* \"contracts/rosa.sol\":4670:4695  200000000 * 10**_decimals */\n      tag_123\n      jump\t// in\n    tag_156:\n        /* \"contracts/rosa.sol\":10461:10473  _maxTxAmount */\n      0x0f\n        /* \"contracts/rosa.sol\":10461:10483  _maxTxAmount = _tTotal */\n      sstore\n        /* \"contracts/rosa.sol\":4682:4695  10**_decimals */\n      tag_157\n        /* \"contracts/rosa.sol\":4627:4628  9 */\n      0x09\n        /* \"contracts/rosa.sol\":4682:4684  10 */\n      0x0a\n        /* \"contracts/rosa.sol\":4682:4695  10**_decimals */\n      tag_121\n      jump\t// in\n    tag_157:\n        /* \"contracts/rosa.sol\":4670:4695  200000000 * 10**_decimals */\n      tag_158\n      swap1\n        /* \"contracts/rosa.sol\":4670:4679  200000000 */\n      0x0bebc200\n        /* \"contracts/rosa.sol\":4670:4695  200000000 * 10**_decimals */\n      tag_123\n      jump\t// in\n    tag_158:\n        /* \"contracts/rosa.sol\":10494:10508  _maxWalletSize */\n      0x10\n        /* \"contracts/rosa.sol\":10494:10516  _maxWalletSize=_tTotal */\n      sstore\n        /* \"contracts/rosa.sol\":10527:10547  transferDelayEnabled */\n      0x06\n        /* \"contracts/rosa.sol\":10527:10553  transferDelayEnabled=false */\n      dup1\n      sload\n      not(0xff)\n      and\n      swap1\n      sstore\n        /* \"contracts/rosa.sol\":10569:10596  MaxTxAmountUpdated(_tTotal) */\n      0x947f344d56e1e8c70dc492fb94c4ddddd490c016aab685f5e7e47b2e85cb44cf\n        /* \"contracts/rosa.sol\":4682:4695  10**_decimals */\n      tag_159\n        /* \"contracts/rosa.sol\":4627:4628  9 */\n      0x09\n      0x0a\n        /* \"contracts/rosa.sol\":4682:4695  10**_decimals */\n      tag_121\n      jump\t// in\n    tag_159:\n        /* \"contracts/rosa.sol\":4670:4695  200000000 * 10**_decimals */\n      tag_160\n      swap1\n        /* \"contracts/rosa.sol\":4670:4679  200000000 */\n      0x0bebc200\n        /* \"contracts/rosa.sol\":4670:4695  200000000 * 10**_decimals */\n      tag_123\n      jump\t// in\n    tag_160:\n        /* \"contracts/rosa.sol\":10569:10596  MaxTxAmountUpdated(_tTotal) */\n      mload(0x40)\n        /* \"#utility.yul\":1361:1386   */\n      swap1\n      dup2\n      mstore\n        /* \"#utility.yul\":1349:1351   */\n      0x20\n        /* \"#utility.yul\":1334:1352   */\n      add\n        /* \"contracts/rosa.sol\":10569:10596  MaxTxAmountUpdated(_tTotal) */\n      mload(0x40)\n      dup1\n      swap2\n      sub\n      swap1\n      log1\n        /* \"contracts/rosa.sol\":10408:10604  function removeLimits() external onlyOwner{... */\n      jump\t// out\n        /* \"contracts/rosa.sol\":6229:6396  function transfer(address recipient, uint256 amount) public override returns (bool) {... */\n    tag_94:\n        /* \"contracts/rosa.sol\":6307:6311  bool */\n      0x00\n        /* \"contracts/rosa.sol\":6324:6366  _transfer(_msgSender(), recipient, amount) */\n      tag_115\n        /* \"contracts/rosa.sol\":496:506  msg.sender */\n      caller\n        /* \"contracts/rosa.sol\":6348:6357  recipient */\n      dup5\n        /* \"contracts/rosa.sol\":6359:6365  amount */\n      dup5\n        /* \"contracts/rosa.sol\":6324:6333  _transfer */\n      tag_126\n        /* \"contracts/rosa.sol\":6324:6366  _transfer(_msgSender(), recipient, amount) */\n      jump\t// in\n        /* \"contracts/rosa.sol\":10714:11385  function openTrading() external onlyOwner() {... */\n    tag_106:\n        /* \"contracts/rosa.sol\":2788:2794  _owner */\n      and(sub(shl(0xa0, 0x01), 0x01), sload(0x00))\n        /* \"contracts/rosa.sol\":496:506  msg.sender */\n      caller\n        /* \"contracts/rosa.sol\":2788:2810  _owner == _msgSender() */\n      eq\n        /* \"contracts/rosa.sol\":2780:2847  require(_owner == _msgSender(), \"Ownable: caller is not the owner\") */\n      tag_169\n      jumpi\n      mload(0x40)\n      shl(0xe5, 0x461bcd)\n      dup2\n      mstore\n      0x04\n      add\n      tag_147\n      swap1\n      tag_148\n      jump\t// in\n    tag_169:\n        /* \"contracts/rosa.sol\":10778:10789  tradingOpen */\n      sload(0x14)\n      shl(0xa0, 0x01)\n      swap1\n      div\n      0xff\n      and\n        /* \"contracts/rosa.sol\":10777:10789  !tradingOpen */\n      iszero\n        /* \"contracts/rosa.sol\":10769:10816  require(!tradingOpen,\"trading is already open\") */\n      tag_172\n      jumpi\n      mload(0x40)\n      shl(0xe5, 0x461bcd)\n      dup2\n      mstore\n        /* \"#utility.yul\":5151:5153   */\n      0x20\n        /* \"contracts/rosa.sol\":10769:10816  require(!tradingOpen,\"trading is already open\") */\n      0x04\n      dup3\n      add\n        /* \"#utility.yul\":5133:5154   */\n      mstore\n        /* \"#utility.yul\":5190:5192   */\n      0x17\n        /* \"#utility.yul\":5170:5188   */\n      0x24\n      dup3\n      add\n        /* \"#utility.yul\":5163:5193   */\n      mstore\n        /* \"#utility.yul\":5229:5254   */\n      0x74726164696e6720697320616c7265616479206f70656e000000000000000000\n        /* \"#utility.yul\":5209:5227   */\n      0x44\n      dup3\n      add\n        /* \"#utility.yul\":5202:5255   */\n      mstore\n        /* \"#utility.yul\":5272:5290   */\n      0x64\n      add\n        /* \"contracts/rosa.sol\":10769:10816  require(!tradingOpen,\"trading is already open\") */\n      tag_147\n        /* \"#utility.yul\":4949:5296   */\n      jump\n        /* \"contracts/rosa.sol\":10769:10816  require(!tradingOpen,\"trading is already open\") */\n    tag_172:\n        /* \"contracts/rosa.sol\":10827:10842  uniswapV2Router */\n      0x13\n        /* \"contracts/rosa.sol\":10827:10907  uniswapV2Router = IUniswapV2Router02(0x7a250d5630B4cF539739dF2C5dAcb4c659F2488D) */\n      dup1\n      sload\n      not(sub(shl(0xa0, 0x01), 0x01))\n      and\n        /* \"contracts/rosa.sol\":10864:10906  0x7a250d5630B4cF539739dF2C5dAcb4c659F2488D */\n      0x7a250d5630b4cf539739df2c5dacb4c659f2488d\n        /* \"contracts/rosa.sol\":10827:10907  uniswapV2Router = IUniswapV2Router02(0x7a250d5630B4cF539739dF2C5dAcb4c659F2488D) */\n      swap1\n      dup2\n      or\n      swap1\n      swap2\n      sstore\n        /* \"contracts/rosa.sol\":10918:10976  _approve(address(this), address(uniswapV2Router), _tTotal) */\n      tag_175\n      swap1\n        /* \"contracts/rosa.sol\":10935:10939  this */\n      address\n      swap1\n        /* \"contracts/rosa.sol\":4682:4695  10**_decimals */\n      tag_176\n        /* \"contracts/rosa.sol\":4627:4628  9 */\n      0x09\n        /* \"contracts/rosa.sol\":4682:4684  10 */\n      0x0a\n        /* \"contracts/rosa.sol\":4682:4695  10**_decimals */\n      tag_121\n      jump\t// in\n    tag_176:\n        /* \"contracts/rosa.sol\":4670:4695  200000000 * 10**_decimals */\n      tag_129\n      swap1\n        /* \"contracts/rosa.sol\":4670:4679  200000000 */\n      0x0bebc200\n        /* \"contracts/rosa.sol\":4670:4695  200000000 * 10**_decimals */\n      tag_123\n      jump\t// in\n        /* \"contracts/rosa.sol\":10918:10976  _approve(address(this), address(uniswapV2Router), _tTotal) */\n    tag_175:\n        /* \"contracts/rosa.sol\":11021:11036  uniswapV2Router */\n      0x13\n      0x00\n      swap1\n      sload\n      swap1\n      0x0100\n      exp\n      swap1\n      div\n      sub(shl(0xa0, 0x01), 0x01)\n      and\n      sub(shl(0xa0, 0x01), 0x01)\n        /* \"contracts/rosa.sol\":11021:11044  uniswapV2Router.factory */\n      and\n      0xc45a0155\n        /* \"contracts/rosa.sol\":11021:11046  uniswapV2Router.factory() */\n      mload(0x40)\n      dup2\n      0xffffffff\n      and\n      0xe0\n      shl\n      dup2\n      mstore\n      0x04\n      add\n      0x20\n      mload(0x40)\n      dup1\n      dup4\n      sub\n      dup2\n      dup7\n      gas\n      staticcall\n      iszero\n      dup1\n      iszero\n      tag_179\n      jumpi\n      returndatasize\n      0x00\n      dup1\n      returndatacopy\n      revert(0x00, returndatasize)\n    tag_179:\n      pop\n      pop\n      pop\n      pop\n      mload(0x40)\n      returndatasize\n      not(0x1f)\n      0x1f\n      dup3\n      add\n      and\n      dup3\n      add\n      dup1\n      0x40\n      mstore\n      pop\n      dup2\n      add\n      swap1\n      tag_180\n      swap2\n      swap1\n      tag_181\n      jump\t// in\n    tag_180:\n      sub(shl(0xa0, 0x01), 0x01)\n        /* \"contracts/rosa.sol\":11003:11058  IUniswapV2Factory(uniswapV2Router.factory()).createPair */\n      and\n      0xc9c65396\n        /* \"contracts/rosa.sol\":11067:11071  this */\n      address\n        /* \"contracts/rosa.sol\":11074:11089  uniswapV2Router */\n      0x13\n      0x00\n      swap1\n      sload\n      swap1\n      0x0100\n      exp\n      swap1\n      div\n      sub(shl(0xa0, 0x01), 0x01)\n      and\n      sub(shl(0xa0, 0x01), 0x01)\n        /* \"contracts/rosa.sol\":11074:11094  uniswapV2Router.WETH */\n      and\n      0xad5c4648\n        /* \"contracts/rosa.sol\":11074:11096  uniswapV2Router.WETH() */\n      mload(0x40)\n      dup2\n      0xffffffff\n      and\n      0xe0\n      shl\n      dup2\n      mstore\n      0x04\n      add\n      0x20\n      mload(0x40)\n      dup1\n      dup4\n      sub\n      dup2\n      dup7\n      gas\n      staticcall\n      iszero\n      dup1\n      iszero\n      tag_183\n      jumpi\n      returndatasize\n      0x00\n      dup1\n      returndatacopy\n      revert(0x00, returndatasize)\n    tag_183:\n      pop\n      pop\n      pop\n      pop\n      mload(0x40)\n      returndatasize\n      not(0x1f)\n      0x1f\n      dup3\n      add\n      and\n      dup3\n      add\n      dup1\n      0x40\n      mstore\n      pop\n      dup2\n      add\n      swap1\n      tag_184\n      swap2\n      swap1\n      tag_181\n      jump\t// in\n    tag_184:\n        /* \"contracts/rosa.sol\":11003:11097  IUniswapV2Factory(uniswapV2Router.factory()).createPair(address(this), uniswapV2Router.WETH()) */\n      mload(0x40)\n      not(sub(shl(0xe0, 0x01), 0x01))\n      0xe0\n      dup6\n      swap1\n      shl\n      and\n      dup2\n      mstore\n      sub(shl(0xa0, 0x01), 0x01)\n        /* \"#utility.yul\":5787:5802   */\n      swap3\n      dup4\n      and\n        /* \"contracts/rosa.sol\":11003:11097  IUniswapV2Factory(uniswapV2Router.factory()).createPair(address(this), uniswapV2Router.WETH()) */\n      0x04\n      dup3\n      add\n        /* \"#utility.yul\":5769:5803   */\n      mstore\n        /* \"#utility.yul\":5839:5854   */\n      swap2\n      and\n        /* \"#utility.yul\":5819:5837   */\n      0x24\n      dup3\n      add\n        /* \"#utility.yul\":5812:5855   */\n      mstore\n        /* \"#utility.yul\":5704:5722   */\n      0x44\n      add\n        /* \"contracts/rosa.sol\":11003:11097  IUniswapV2Factory(uniswapV2Router.factory()).createPair(address(this), uniswapV2Router.WETH()) */\n      0x20\n      mload(0x40)\n      dup1\n      dup4\n      sub\n      dup2\n      0x00\n      dup8\n      gas\n      call\n      iszero\n      dup1\n      iszero\n      tag_188\n      jumpi\n      returndatasize\n      0x00\n      dup1\n      returndatacopy\n      revert(0x00, returndatasize)\n    tag_188:\n      pop\n      pop\n      pop\n      pop\n      mload(0x40)\n      returndatasize\n      not(0x1f)\n      0x1f\n      dup3\n      add\n      and\n      dup3\n      add\n      dup1\n      0x40\n      mstore\n      pop\n      dup2\n      add\n      swap1\n      tag_189\n      swap2\n      swap1\n      tag_181\n      jump\t// in\n    tag_189:\n        /* \"contracts/rosa.sol\":10987:11000  uniswapV2Pair */\n      0x14\n        /* \"contracts/rosa.sol\":10987:11097  uniswapV2Pair = IUniswapV2Factory(uniswapV2Router.factory()).createPair(address(this), uniswapV2Router.WETH()) */\n      dup1\n      sload\n      sub(shl(0xa0, 0x01), 0x01)\n      swap3\n      dup4\n      and\n      not(sub(shl(0xa0, 0x01), 0x01))\n      swap1\n      swap2\n      and\n      or\n      swap1\n      sstore\n        /* \"contracts/rosa.sol\":11108:11123  uniswapV2Router */\n      sload(0x13)\n      and\n        /* \"contracts/rosa.sol\":11108:11139  uniswapV2Router.addLiquidityETH */\n      0xf305d719\n        /* \"contracts/rosa.sol\":11147:11168  address(this).balance */\n      selfbalance\n        /* \"contracts/rosa.sol\":11178:11182  this */\n      address\n        /* \"contracts/rosa.sol\":11184:11208  balanceOf(address(this)) */\n      tag_190\n        /* \"contracts/rosa.sol\":11178:11182  this */\n      dup2\n      sub(shl(0xa0, 0x01), 0x01)\n        /* \"contracts/rosa.sol\":6195:6213  _balances[account] */\n      and\n        /* \"contracts/rosa.sol\":6168:6175  uint256 */\n      0x00\n        /* \"contracts/rosa.sol\":6195:6213  _balances[account] */\n      swap1\n      dup2\n      mstore\n        /* \"contracts/rosa.sol\":6195:6204  _balances */\n      0x01\n        /* \"contracts/rosa.sol\":6195:6213  _balances[account] */\n      0x20\n      mstore\n      0x40\n      swap1\n      keccak256\n      sload\n      swap1\n        /* \"contracts/rosa.sol\":6102:6221  function balanceOf(address account) public view override returns (uint256) {... */\n      jump\n        /* \"contracts/rosa.sol\":11184:11208  balanceOf(address(this)) */\n    tag_190:\n        /* \"contracts/rosa.sol\":11209:11210  0 */\n      0x00\n        /* \"contracts/rosa.sol\":11211:11212  0 */\n      dup1\n        /* \"contracts/rosa.sol\":11213:11220  owner() */\n      tag_191\n        /* \"contracts/rosa.sol\":2699:2706  address */\n      0x00\n        /* \"contracts/rosa.sol\":2726:2732  _owner */\n      sload\n      sub(shl(0xa0, 0x01), 0x01)\n      and\n      swap1\n        /* \"contracts/rosa.sol\":2661:2740  function owner() public view returns (address) {... */\n      jump\n        /* \"contracts/rosa.sol\":11213:11220  owner() */\n    tag_191:\n        /* \"contracts/rosa.sol\":11108:11237  uniswapV2Router.addLiquidityETH{value: address(this).balance}(address(this),balanceOf(address(this)),0,0,owner(),block.timestamp) */\n      mload(0x40)\n      0xe0\n      dup9\n      swap1\n      shl\n      not(sub(shl(0xe0, 0x01), 0x01))\n      and\n      dup2\n      mstore\n      sub(shl(0xa0, 0x01), 0x01)\n        /* \"#utility.yul\":6225:6240   */\n      swap6\n      dup7\n      and\n        /* \"contracts/rosa.sol\":11108:11237  uniswapV2Router.addLiquidityETH{value: address(this).balance}(address(this),balanceOf(address(this)),0,0,owner(),block.timestamp) */\n      0x04\n      dup3\n      add\n        /* \"#utility.yul\":6207:6241   */\n      mstore\n        /* \"#utility.yul\":6257:6275   */\n      0x24\n      dup2\n      add\n        /* \"#utility.yul\":6250:6284   */\n      swap5\n      swap1\n      swap5\n      mstore\n        /* \"#utility.yul\":6300:6318   */\n      0x44\n      dup5\n      add\n        /* \"#utility.yul\":6293:6327   */\n      swap3\n      swap1\n      swap3\n      mstore\n        /* \"#utility.yul\":6343:6361   */\n      0x64\n      dup4\n      add\n        /* \"#utility.yul\":6336:6370   */\n      mstore\n        /* \"#utility.yul\":6407:6422   */\n      swap1\n      swap2\n      and\n        /* \"#utility.yul\":6386:6405   */\n      0x84\n      dup3\n      add\n        /* \"#utility.yul\":6379:6423   */\n      mstore\n        /* \"contracts/rosa.sol\":11221:11236  block.timestamp */\n      timestamp\n        /* \"#utility.yul\":6439:6458   */\n      0xa4\n      dup3\n      add\n        /* \"#utility.yul\":6432:6467   */\n      mstore\n        /* \"#utility.yul\":6141:6160   */\n      0xc4\n      add\n        /* \"contracts/rosa.sol\":11108:11237  uniswapV2Router.addLiquidityETH{value: address(this).balance}(address(this),balanceOf(address(this)),0,0,owner(),block.timestamp) */\n      0x60\n      mload(0x40)\n      dup1\n      dup4\n      sub\n      dup2\n      dup6\n      dup9\n      gas\n      call\n      iszero\n      dup1\n      iszero\n      tag_195\n      jumpi\n      returndatasize\n      0x00\n      dup1\n      returndatacopy\n      revert(0x00, returndatasize)\n    tag_195:\n      pop\n      pop\n      pop\n      pop\n      pop\n      mload(0x40)\n      returndatasize\n      not(0x1f)\n      0x1f\n      dup3\n      add\n      and\n      dup3\n      add\n      dup1\n      0x40\n      mstore\n      pop\n      dup2\n      add\n      swap1\n      tag_196\n      swap2\n      swap1\n      tag_197\n      jump\t// in\n    tag_196:\n      pop\n      pop\n        /* \"contracts/rosa.sol\":11255:11268  uniswapV2Pair */\n      sload(0x14)\n        /* \"contracts/rosa.sol\":11286:11301  uniswapV2Router */\n      sload(0x13)\n        /* \"contracts/rosa.sol\":11248:11319  IERC20(uniswapV2Pair).approve(address(uniswapV2Router), type(uint).max) */\n      mload(0x40)\n      shl(0xe0, 0x095ea7b3)\n      dup2\n      mstore\n      sub(shl(0xa0, 0x01), 0x01)\n        /* \"contracts/rosa.sol\":11286:11301  uniswapV2Router */\n      swap2\n      dup3\n      and\n        /* \"contracts/rosa.sol\":11248:11319  IERC20(uniswapV2Pair).approve(address(uniswapV2Router), type(uint).max) */\n      0x04\n      dup3\n      add\n        /* \"#utility.yul\":6963:7014   */\n      mstore\n      not(0x00)\n        /* \"#utility.yul\":7030:7048   */\n      0x24\n      dup3\n      add\n        /* \"#utility.yul\":7023:7057   */\n      mstore\n        /* \"contracts/rosa.sol\":11255:11268  uniswapV2Pair */\n      swap2\n      and\n      swap2\n      pop\n        /* \"contracts/rosa.sol\":11248:11277  IERC20(uniswapV2Pair).approve */\n      0x095ea7b3\n      swap1\n        /* \"#utility.yul\":6936:6954   */\n      0x44\n      add\n        /* \"contracts/rosa.sol\":11248:11319  IERC20(uniswapV2Pair).approve(address(uniswapV2Router), type(uint).max) */\n      0x20\n      mload(0x40)\n      dup1\n      dup4\n      sub\n      dup2\n      0x00\n      dup8\n      gas\n      call\n      iszero\n      dup1\n      iszero\n      tag_201\n      jumpi\n      returndatasize\n      0x00\n      dup1\n      returndatacopy\n      revert(0x00, returndatasize)\n    tag_201:\n      pop\n      pop\n      pop\n      pop\n      mload(0x40)\n      returndatasize\n      not(0x1f)\n      0x1f\n      dup3\n      add\n      and\n      dup3\n      add\n      dup1\n      0x40\n      mstore\n      pop\n      dup2\n      add\n      swap1\n      tag_202\n      swap2\n      swap1\n      tag_203\n      jump\t// in\n    tag_202:\n      pop\n        /* \"contracts/rosa.sol\":11330:11341  swapEnabled */\n      0x14\n        /* \"contracts/rosa.sol\":11330:11348  swapEnabled = true */\n      dup1\n      sload\n      not(shl(0xa0, 0xff00ff))\n        /* \"contracts/rosa.sol\":11359:11377  tradingOpen = true */\n      and\n      shl(0xa0, 0x010001)\n      or\n      swap1\n      sstore\n        /* \"contracts/rosa.sol\":10714:11385  function openTrading() external onlyOwner() {... */\n      jump\t// out\n        /* \"contracts/rosa.sol\":7045:7380  function _approve(address owner, address spender, uint256 amount) private {... */\n    tag_118:\n      sub(shl(0xa0, 0x01), 0x01)\n        /* \"contracts/rosa.sol\":7138:7157  owner != address(0) */\n      dup4\n      and\n        /* \"contracts/rosa.sol\":7130:7198  require(owner != address(0), \"ERC20: approve from the zero address\") */\n      tag_207\n      jumpi\n      mload(0x40)\n      shl(0xe5, 0x461bcd)\n      dup2\n      mstore\n        /* \"#utility.yul\":7552:7554   */\n      0x20\n        /* \"contracts/rosa.sol\":7130:7198  require(owner != address(0), \"ERC20: approve from the zero address\") */\n      0x04\n      dup3\n      add\n        /* \"#utility.yul\":7534:7555   */\n      mstore\n        /* \"#utility.yul\":7591:7593   */\n      0x24\n        /* \"#utility.yul\":7571:7589   */\n      dup1\n      dup3\n      add\n        /* \"#utility.yul\":7564:7594   */\n      mstore\n        /* \"#utility.yul\":7630:7664   */\n      0x45524332303a20617070726f76652066726f6d20746865207a65726f20616464\n        /* \"#utility.yul\":7610:7628   */\n      0x44\n      dup3\n      add\n        /* \"#utility.yul\":7603:7665   */\n      mstore\n      shl(0xe0, 0x72657373)\n        /* \"#utility.yul\":7681:7699   */\n      0x64\n      dup3\n      add\n        /* \"#utility.yul\":7674:7708   */\n      mstore\n        /* \"#utility.yul\":7725:7744   */\n      0x84\n      add\n        /* \"contracts/rosa.sol\":7130:7198  require(owner != address(0), \"ERC20: approve from the zero address\") */\n      tag_147\n        /* \"#utility.yul\":7350:7750   */\n      jump\n        /* \"contracts/rosa.sol\":7130:7198  require(owner != address(0), \"ERC20: approve from the zero address\") */\n    tag_207:\n      sub(shl(0xa0, 0x01), 0x01)\n        /* \"contracts/rosa.sol\":7217:7238  spender != address(0) */\n      dup3\n      and\n        /* \"contracts/rosa.sol\":7209:7277  require(spender != address(0), \"ERC20: approve to the zero address\") */\n      tag_210\n      jumpi\n      mload(0x40)\n      shl(0xe5, 0x461bcd)\n      dup2\n      mstore\n        /* \"#utility.yul\":7957:7959   */\n      0x20\n        /* \"contracts/rosa.sol\":7209:7277  require(spender != address(0), \"ERC20: approve to the zero address\") */\n      0x04\n      dup3\n      add\n        /* \"#utility.yul\":7939:7960   */\n      mstore\n        /* \"#utility.yul\":7996:7998   */\n      0x22\n        /* \"#utility.yul\":7976:7994   */\n      0x24\n      dup3\n      add\n        /* \"#utility.yul\":7969:7999   */\n      mstore\n        /* \"#utility.yul\":8035:8069   */\n      0x45524332303a20617070726f766520746f20746865207a65726f206164647265\n        /* \"#utility.yul\":8015:8033   */\n      0x44\n      dup3\n      add\n        /* \"#utility.yul\":8008:8070   */\n      mstore\n      shl(0xf0, 0x7373)\n        /* \"#utility.yul\":8086:8104   */\n      0x64\n      dup3\n      add\n        /* \"#utility.yul\":8079:8111   */\n      mstore\n        /* \"#utility.yul\":8128:8147   */\n      0x84\n      add\n        /* \"contracts/rosa.sol\":7209:7277  require(spender != address(0), \"ERC20: approve to the zero address\") */\n      tag_147\n        /* \"#utility.yul\":7755:8153   */\n      jump\n        /* \"contracts/rosa.sol\":7209:7277  require(spender != address(0), \"ERC20: approve to the zero address\") */\n    tag_210:\n      sub(shl(0xa0, 0x01), 0x01)\n        /* \"contracts/rosa.sol\":7288:7306  _allowances[owner] */\n      dup4\n      dup2\n      and\n      0x00\n      dup2\n      dup2\n      mstore\n        /* \"contracts/rosa.sol\":7288:7299  _allowances */\n      0x02\n        /* \"contracts/rosa.sol\":7288:7306  _allowances[owner] */\n      0x20\n      swap1\n      dup2\n      mstore\n      0x40\n      dup1\n      dup4\n      keccak256\n        /* \"contracts/rosa.sol\":7288:7315  _allowances[owner][spender] */\n      swap5\n      dup8\n      and\n      dup1\n      dup5\n      mstore\n      swap5\n      dup3\n      mstore\n      swap2\n      dup3\n      swap1\n      keccak256\n        /* \"contracts/rosa.sol\":7288:7324  _allowances[owner][spender] = amount */\n      dup6\n      swap1\n      sstore\n        /* \"contracts/rosa.sol\":7340:7372  Approval(owner, spender, amount) */\n      swap1\n      mload\n        /* \"#utility.yul\":1361:1386   */\n      dup5\n      dup2\n      mstore\n        /* \"contracts/rosa.sol\":7340:7372  Approval(owner, spender, amount) */\n      0x8c5be1e5ebec7d5bd14f71427d1e84f3dd0314c0f7b2291e5b200ac8c7c3b925\n      swap2\n        /* \"#utility.yul\":1334:1352   */\n      add\n        /* \"contracts/rosa.sol\":7340:7372  Approval(owner, spender, amount) */\n      mload(0x40)\n      dup1\n      swap2\n      sub\n      swap1\n      log3\n        /* \"contracts/rosa.sol\":7045:7380  function _approve(address owner, address spender, uint256 amount) private {... */\n      pop\n      pop\n      pop\n      jump\t// out\n        /* \"contracts/rosa.sol\":7388:9801  function _transfer(address from, address to, uint256 amount) private {... */\n    tag_126:\n      sub(shl(0xa0, 0x01), 0x01)\n        /* \"contracts/rosa.sol\":7476:7494  from != address(0) */\n      dup4\n      and\n        /* \"contracts/rosa.sol\":7468:7536  require(from != address(0), \"ERC20: transfer from the zero address\") */\n      tag_215\n      jumpi\n      mload(0x40)\n      shl(0xe5, 0x461bcd)\n      dup2\n      mstore\n        /* \"#utility.yul\":8360:8362   */\n      0x20\n        /* \"contracts/rosa.sol\":7468:7536  require(from != address(0), \"ERC20: transfer from the zero address\") */\n      0x04\n      dup3\n      add\n        /* \"#utility.yul\":8342:8363   */\n      mstore\n        /* \"#utility.yul\":8399:8401   */\n      0x25\n        /* \"#utility.yul\":8379:8397   */\n      0x24\n      dup3\n      add\n        /* \"#utility.yul\":8372:8402   */\n      mstore\n        /* \"#utility.yul\":8438:8472   */\n      0x45524332303a207472616e736665722066726f6d20746865207a65726f206164\n        /* \"#utility.yul\":8418:8436   */\n      0x44\n      dup3\n      add\n        /* \"#utility.yul\":8411:8473   */\n      mstore\n      shl(0xd8, 0x6472657373)\n        /* \"#utility.yul\":8489:8507   */\n      0x64\n      dup3\n      add\n        /* \"#utility.yul\":8482:8517   */\n      mstore\n        /* \"#utility.yul\":8534:8553   */\n      0x84\n      add\n        /* \"contracts/rosa.sol\":7468:7536  require(from != address(0), \"ERC20: transfer from the zero address\") */\n      tag_147\n        /* \"#utility.yul\":8158:8559   */\n      jump\n        /* \"contracts/rosa.sol\":7468:7536  require(from != address(0), \"ERC20: transfer from the zero address\") */\n    tag_215:\n      sub(shl(0xa0, 0x01), 0x01)\n        /* \"contracts/rosa.sol\":7555:7571  to != address(0) */\n      dup3\n      and\n        /* \"contracts/rosa.sol\":7547:7611  require(to != address(0), \"ERC20: transfer to the zero address\") */\n      tag_218\n      jumpi\n      mload(0x40)\n      shl(0xe5, 0x461bcd)\n      dup2\n      mstore\n        /* \"#utility.yul\":8766:8768   */\n      0x20\n        /* \"contracts/rosa.sol\":7547:7611  require(to != address(0), \"ERC20: transfer to the zero address\") */\n      0x04\n      dup3\n      add\n        /* \"#utility.yul\":8748:8769   */\n      mstore\n        /* \"#utility.yul\":8805:8807   */\n      0x23\n        /* \"#utility.yul\":8785:8803   */\n      0x24\n      dup3\n      add\n        /* \"#utility.yul\":8778:8808   */\n      mstore\n        /* \"#utility.yul\":8844:8878   */\n      0x45524332303a207472616e7366657220746f20746865207a65726f2061646472\n        /* \"#utility.yul\":8824:8842   */\n      0x44\n      dup3\n      add\n        /* \"#utility.yul\":8817:8879   */\n      mstore\n      shl(0xe8, 0x657373)\n        /* \"#utility.yul\":8895:8913   */\n      0x64\n      dup3\n      add\n        /* \"#utility.yul\":8888:8921   */\n      mstore\n        /* \"#utility.yul\":8938:8957   */\n      0x84\n      add\n        /* \"contracts/rosa.sol\":7547:7611  require(to != address(0), \"ERC20: transfer to the zero address\") */\n      tag_147\n        /* \"#utility.yul\":8564:8963   */\n      jump\n        /* \"contracts/rosa.sol\":7547:7611  require(to != address(0), \"ERC20: transfer to the zero address\") */\n    tag_218:\n        /* \"contracts/rosa.sol\":7639:7640  0 */\n      0x00\n        /* \"contracts/rosa.sol\":7630:7636  amount */\n      dup2\n        /* \"contracts/rosa.sol\":7630:7640  amount > 0 */\n      gt\n        /* \"contracts/rosa.sol\":7622:7686  require(amount > 0, \"Transfer amount must be greater than zero\") */\n      tag_221\n      jumpi\n      mload(0x40)\n      shl(0xe5, 0x461bcd)\n      dup2\n      mstore\n        /* \"#utility.yul\":9170:9172   */\n      0x20\n        /* \"contracts/rosa.sol\":7622:7686  require(amount > 0, \"Transfer amount must be greater than zero\") */\n      0x04\n      dup3\n      add\n        /* \"#utility.yul\":9152:9173   */\n      mstore\n        /* \"#utility.yul\":9209:9211   */\n      0x29\n        /* \"#utility.yul\":9189:9207   */\n      0x24\n      dup3\n      add\n        /* \"#utility.yul\":9182:9212   */\n      mstore\n        /* \"#utility.yul\":9248:9282   */\n      0x5472616e7366657220616d6f756e74206d757374206265206772656174657220\n        /* \"#utility.yul\":9228:9246   */\n      0x44\n      dup3\n      add\n        /* \"#utility.yul\":9221:9283   */\n      mstore\n      shl(0xb8, 0x7468616e207a65726f)\n        /* \"#utility.yul\":9299:9317   */\n      0x64\n      dup3\n      add\n        /* \"#utility.yul\":9292:9331   */\n      mstore\n        /* \"#utility.yul\":9348:9367   */\n      0x84\n      add\n        /* \"contracts/rosa.sol\":7622:7686  require(amount > 0, \"Transfer amount must be greater than zero\") */\n      tag_147\n        /* \"#utility.yul\":8968:9373   */\n      jump\n        /* \"contracts/rosa.sol\":7622:7686  require(amount > 0, \"Transfer amount must be greater than zero\") */\n    tag_221:\n        /* \"contracts/rosa.sol\":7697:7714  uint256 taxAmount */\n      0x00\n        /* \"contracts/rosa.sol\":2726:2732  _owner */\n      dup1\n      sload\n      sub(shl(0xa0, 0x01), 0x01)\n        /* \"contracts/rosa.sol\":7731:7746  from != owner() */\n      dup6\n      dup2\n      and\n        /* \"contracts/rosa.sol\":2726:2732  _owner */\n      swap2\n      and\n        /* \"contracts/rosa.sol\":7731:7746  from != owner() */\n      eq\n      dup1\n      iszero\n      swap1\n        /* \"contracts/rosa.sol\":7731:7763  from != owner() && to != owner() */\n      tag_225\n      jumpi\n      pop\n        /* \"contracts/rosa.sol\":2699:2706  address */\n      0x00\n        /* \"contracts/rosa.sol\":2726:2732  _owner */\n      sload\n      sub(shl(0xa0, 0x01), 0x01)\n        /* \"contracts/rosa.sol\":7750:7763  to != owner() */\n      dup5\n      dup2\n      and\n        /* \"contracts/rosa.sol\":2726:2732  _owner */\n      swap2\n      and\n        /* \"contracts/rosa.sol\":7750:7763  to != owner() */\n      eq\n      iszero\n        /* \"contracts/rosa.sol\":7731:7763  from != owner() && to != owner() */\n    tag_225:\n        /* \"contracts/rosa.sol\":7727:9445  if (from != owner() && to != owner()) {... */\n      iszero\n      tag_227\n      jumpi\n        /* \"contracts/rosa.sol\":7792:7868  amount.mul((_buyCount>_reduceBuyTaxAt)?_finalBuyTax:_initialBuyTax).div(100) */\n      tag_228\n        /* \"contracts/rosa.sol\":7864:7867  100 */\n      0x64\n        /* \"contracts/rosa.sol\":7792:7859  amount.mul((_buyCount>_reduceBuyTaxAt)?_finalBuyTax:_initialBuyTax) */\n      tag_229\n        /* \"contracts/rosa.sol\":7814:7829  _reduceBuyTaxAt */\n      sload(0x0b)\n        /* \"contracts/rosa.sol\":7804:7813  _buyCount */\n      sload(0x0e)\n        /* \"contracts/rosa.sol\":7804:7829  _buyCount>_reduceBuyTaxAt */\n      gt\n        /* \"contracts/rosa.sol\":7803:7858  (_buyCount>_reduceBuyTaxAt)?_finalBuyTax:_initialBuyTax */\n      tag_230\n      jumpi\n        /* \"contracts/rosa.sol\":7844:7858  _initialBuyTax */\n      sload(0x07)\n        /* \"contracts/rosa.sol\":7803:7858  (_buyCount>_reduceBuyTaxAt)?_finalBuyTax:_initialBuyTax */\n      jump(tag_231)\n    tag_230:\n        /* \"contracts/rosa.sol\":7831:7843  _finalBuyTax */\n      sload(0x09)\n        /* \"contracts/rosa.sol\":7803:7858  (_buyCount>_reduceBuyTaxAt)?_finalBuyTax:_initialBuyTax */\n    tag_231:\n        /* \"contracts/rosa.sol\":7792:7798  amount */\n      dup6\n      swap1\n        /* \"contracts/rosa.sol\":7792:7802  amount.mul */\n      tag_232\n        /* \"contracts/rosa.sol\":7792:7859  amount.mul((_buyCount>_reduceBuyTaxAt)?_finalBuyTax:_initialBuyTax) */\n      jump\t// in\n    tag_229:\n        /* \"contracts/rosa.sol\":7792:7863  amount.mul((_buyCount>_reduceBuyTaxAt)?_finalBuyTax:_initialBuyTax).div */\n      swap1\n      tag_233\n        /* \"contracts/rosa.sol\":7792:7868  amount.mul((_buyCount>_reduceBuyTaxAt)?_finalBuyTax:_initialBuyTax).div(100) */\n      jump\t// in\n    tag_228:\n        /* \"contracts/rosa.sol\":7889:7909  transferDelayEnabled */\n      sload(0x06)\n        /* \"contracts/rosa.sol\":7780:7868  taxAmount = amount.mul((_buyCount>_reduceBuyTaxAt)?_finalBuyTax:_initialBuyTax).div(100) */\n      swap1\n      swap2\n      pop\n        /* \"contracts/rosa.sol\":7889:7909  transferDelayEnabled */\n      0xff\n      and\n        /* \"contracts/rosa.sol\":7885:8392  if (transferDelayEnabled) {... */\n      iszero\n      tag_236\n      jumpi\n        /* \"contracts/rosa.sol\":7950:7965  uniswapV2Router */\n      sload(0x13)\n      sub(shl(0xa0, 0x01), 0x01)\n        /* \"contracts/rosa.sol\":7936:7966  to != address(uniswapV2Router) */\n      dup5\n      dup2\n      and\n        /* \"contracts/rosa.sol\":7950:7965  uniswapV2Router */\n      swap2\n      and\n        /* \"contracts/rosa.sol\":7936:7966  to != address(uniswapV2Router) */\n      eq\n      dup1\n      iszero\n      swap1\n        /* \"contracts/rosa.sol\":7936:7998  to != address(uniswapV2Router) && to != address(uniswapV2Pair) */\n      tag_235\n      jumpi\n      pop\n        /* \"contracts/rosa.sol\":7984:7997  uniswapV2Pair */\n      sload(0x14)\n      sub(shl(0xa0, 0x01), 0x01)\n        /* \"contracts/rosa.sol\":7970:7998  to != address(uniswapV2Pair) */\n      dup5\n      dup2\n      and\n        /* \"contracts/rosa.sol\":7984:7997  uniswapV2Pair */\n      swap2\n      and\n        /* \"contracts/rosa.sol\":7970:7998  to != address(uniswapV2Pair) */\n      eq\n      iszero\n        /* \"contracts/rosa.sol\":7936:7998  to != address(uniswapV2Router) && to != address(uniswapV2Pair) */\n    tag_235:\n        /* \"contracts/rosa.sol\":7932:8375  if (to != address(uniswapV2Router) && to != address(uniswapV2Pair)) {... */\n      iszero\n      tag_236\n      jumpi\n        /* \"contracts/rosa.sol\":8090:8099  tx.origin */\n      origin\n        /* \"contracts/rosa.sol\":8061:8100  _holderLastTransferTimestamp[tx.origin] */\n      0x00\n      swap1\n      dup2\n      mstore\n        /* \"contracts/rosa.sol\":8061:8089  _holderLastTransferTimestamp */\n      0x05\n        /* \"contracts/rosa.sol\":8061:8100  _holderLastTransferTimestamp[tx.origin] */\n      0x20\n      mstore\n      0x40\n      swap1\n      keccak256\n      sload\n        /* \"contracts/rosa.sol\":8134:8146  block.number */\n      number\n      gt\n        /* \"contracts/rosa.sol\":8025:8274  require(... */\n      tag_237\n      jumpi\n      mload(0x40)\n      shl(0xe5, 0x461bcd)\n      dup2\n      mstore\n        /* \"#utility.yul\":9580:9582   */\n      0x20\n        /* \"contracts/rosa.sol\":8025:8274  require(... */\n      0x04\n      dup3\n      add\n        /* \"#utility.yul\":9562:9583   */\n      mstore\n        /* \"#utility.yul\":9619:9621   */\n      0x48\n        /* \"#utility.yul\":9599:9617   */\n      0x24\n      dup3\n      add\n        /* \"#utility.yul\":9592:9622   */\n      mstore\n        /* \"#utility.yul\":9658:9692   */\n      0x5f7472616e736665723a3a205472616e736665722044656c617920656e61626c\n        /* \"#utility.yul\":9638:9656   */\n      0x44\n      dup3\n      add\n        /* \"#utility.yul\":9631:9693   */\n      mstore\n        /* \"#utility.yul\":9729:9763   */\n      0x65642e204f6e6c79206f6e652070757263686173652070657220626c6f636b20\n        /* \"#utility.yul\":9709:9727   */\n      0x64\n      dup3\n      add\n        /* \"#utility.yul\":9702:9764   */\n      mstore\n      shl(0xc1, 0x30b63637bbb2b217)\n        /* \"#utility.yul\":9780:9799   */\n      0x84\n      dup3\n      add\n        /* \"#utility.yul\":9773:9812   */\n      mstore\n        /* \"#utility.yul\":9829:9848   */\n      0xa4\n      add\n        /* \"contracts/rosa.sol\":8025:8274  require(... */\n      tag_147\n        /* \"#utility.yul\":9378:9854   */\n      jump\n        /* \"contracts/rosa.sol\":8025:8274  require(... */\n    tag_237:\n        /* \"contracts/rosa.sol\":8328:8337  tx.origin */\n      origin\n        /* \"contracts/rosa.sol\":8299:8338  _holderLastTransferTimestamp[tx.origin] */\n      0x00\n      swap1\n      dup2\n      mstore\n        /* \"contracts/rosa.sol\":8299:8327  _holderLastTransferTimestamp */\n      0x05\n        /* \"contracts/rosa.sol\":8299:8338  _holderLastTransferTimestamp[tx.origin] */\n      0x20\n      mstore\n      0x40\n      swap1\n      keccak256\n        /* \"contracts/rosa.sol\":8341:8353  block.number */\n      number\n        /* \"contracts/rosa.sol\":8299:8353  _holderLastTransferTimestamp[tx.origin] = block.number */\n      swap1\n      sstore\n        /* \"contracts/rosa.sol\":7932:8375  if (to != address(uniswapV2Router) && to != address(uniswapV2Pair)) {... */\n    tag_236:\n        /* \"contracts/rosa.sol\":8420:8433  uniswapV2Pair */\n      sload(0x14)\n      sub(shl(0xa0, 0x01), 0x01)\n        /* \"contracts/rosa.sol\":8412:8433  from == uniswapV2Pair */\n      dup6\n      dup2\n      and\n        /* \"contracts/rosa.sol\":8420:8433  uniswapV2Pair */\n      swap2\n      and\n        /* \"contracts/rosa.sol\":8412:8433  from == uniswapV2Pair */\n      eq\n        /* \"contracts/rosa.sol\":8412:8467  from == uniswapV2Pair && to != address(uniswapV2Router) */\n      dup1\n      iszero\n      tag_240\n      jumpi\n      pop\n        /* \"contracts/rosa.sol\":8451:8466  uniswapV2Router */\n      sload(0x13)\n      sub(shl(0xa0, 0x01), 0x01)\n        /* \"contracts/rosa.sol\":8437:8467  to != address(uniswapV2Router) */\n      dup5\n      dup2\n      and\n        /* \"contracts/rosa.sol\":8451:8466  uniswapV2Router */\n      swap2\n      and\n        /* \"contracts/rosa.sol\":8437:8467  to != address(uniswapV2Router) */\n      eq\n      iszero\n        /* \"contracts/rosa.sol\":8412:8467  from == uniswapV2Pair && to != address(uniswapV2Router) */\n    tag_240:\n        /* \"contracts/rosa.sol\":8412:8495  from == uniswapV2Pair && to != address(uniswapV2Router) && ! _isExcludedFromFee[to] */\n      dup1\n      iszero\n      tag_241\n      jumpi\n      pop\n      sub(shl(0xa0, 0x01), 0x01)\n        /* \"contracts/rosa.sol\":8473:8495  _isExcludedFromFee[to] */\n      dup4\n      and\n      0x00\n      swap1\n      dup2\n      mstore\n        /* \"contracts/rosa.sol\":8473:8491  _isExcludedFromFee */\n      0x03\n        /* \"contracts/rosa.sol\":8473:8495  _isExcludedFromFee[to] */\n      0x20\n      mstore\n      0x40\n      swap1\n      keccak256\n      sload\n      0xff\n      and\n        /* \"contracts/rosa.sol\":8471:8495  ! _isExcludedFromFee[to] */\n      iszero\n        /* \"contracts/rosa.sol\":8412:8495  from == uniswapV2Pair && to != address(uniswapV2Router) && ! _isExcludedFromFee[to] */\n    tag_241:\n        /* \"contracts/rosa.sol\":8408:8721  if (from == uniswapV2Pair && to != address(uniswapV2Router) && ! _isExcludedFromFee[to] ) {... */\n      iszero\n      tag_242\n      jumpi\n        /* \"contracts/rosa.sol\":8535:8547  _maxTxAmount */\n      sload(0x0f)\n        /* \"contracts/rosa.sol\":8525:8531  amount */\n      dup3\n        /* \"contracts/rosa.sol\":8525:8547  amount <= _maxTxAmount */\n      gt\n      iszero\n        /* \"contracts/rosa.sol\":8517:8577  require(amount <= _maxTxAmount, \"Exceeds the _maxTxAmount.\") */\n      tag_243\n      jumpi\n      mload(0x40)\n      shl(0xe5, 0x461bcd)\n      dup2\n      mstore\n        /* \"#utility.yul\":10061:10063   */\n      0x20\n        /* \"contracts/rosa.sol\":8517:8577  require(amount <= _maxTxAmount, \"Exceeds the _maxTxAmount.\") */\n      0x04\n      dup3\n      add\n        /* \"#utility.yul\":10043:10064   */\n      mstore\n        /* \"#utility.yul\":10100:10102   */\n      0x19\n        /* \"#utility.yul\":10080:10098   */\n      0x24\n      dup3\n      add\n        /* \"#utility.yul\":10073:10103   */\n      mstore\n        /* \"#utility.yul\":10139:10166   */\n      0x4578636565647320746865205f6d61785478416d6f756e742e00000000000000\n        /* \"#utility.yul\":10119:10137   */\n      0x44\n      dup3\n      add\n        /* \"#utility.yul\":10112:10167   */\n      mstore\n        /* \"#utility.yul\":10184:10202   */\n      0x64\n      add\n        /* \"contracts/rosa.sol\":8517:8577  require(amount <= _maxTxAmount, \"Exceeds the _maxTxAmount.\") */\n      tag_147\n        /* \"#utility.yul\":9859:10208   */\n      jump\n        /* \"contracts/rosa.sol\":8517:8577  require(amount <= _maxTxAmount, \"Exceeds the _maxTxAmount.\") */\n    tag_243:\n        /* \"contracts/rosa.sol\":8630:8644  _maxWalletSize */\n      sload(0x10)\n        /* \"contracts/rosa.sol\":8620:8626  amount */\n      dup3\n        /* \"contracts/rosa.sol\":8604:8617  balanceOf(to) */\n      tag_246\n        /* \"contracts/rosa.sol\":8614:8616  to */\n      dup6\n      sub(shl(0xa0, 0x01), 0x01)\n        /* \"contracts/rosa.sol\":6195:6213  _balances[account] */\n      and\n        /* \"contracts/rosa.sol\":6168:6175  uint256 */\n      0x00\n        /* \"contracts/rosa.sol\":6195:6213  _balances[account] */\n      swap1\n      dup2\n      mstore\n        /* \"contracts/rosa.sol\":6195:6204  _balances */\n      0x01\n        /* \"contracts/rosa.sol\":6195:6213  _balances[account] */\n      0x20\n      mstore\n      0x40\n      swap1\n      keccak256\n      sload\n      swap1\n        /* \"contracts/rosa.sol\":6102:6221  function balanceOf(address account) public view override returns (uint256) {... */\n      jump\n        /* \"contracts/rosa.sol\":8604:8617  balanceOf(to) */\n    tag_246:\n        /* \"contracts/rosa.sol\":8604:8626  balanceOf(to) + amount */\n      tag_247\n      swap2\n      swap1\n      tag_248\n      jump\t// in\n    tag_247:\n        /* \"contracts/rosa.sol\":8604:8644  balanceOf(to) + amount <= _maxWalletSize */\n      gt\n      iszero\n        /* \"contracts/rosa.sol\":8596:8675  require(balanceOf(to) + amount <= _maxWalletSize, \"Exceeds the maxWalletSize.\") */\n      tag_249\n      jumpi\n      mload(0x40)\n      shl(0xe5, 0x461bcd)\n      dup2\n      mstore\n        /* \"#utility.yul\":10545:10547   */\n      0x20\n        /* \"contracts/rosa.sol\":8596:8675  require(balanceOf(to) + amount <= _maxWalletSize, \"Exceeds the maxWalletSize.\") */\n      0x04\n      dup3\n      add\n        /* \"#utility.yul\":10527:10548   */\n      mstore\n        /* \"#utility.yul\":10584:10586   */\n      0x1a\n        /* \"#utility.yul\":10564:10582   */\n      0x24\n      dup3\n      add\n        /* \"#utility.yul\":10557:10587   */\n      mstore\n        /* \"#utility.yul\":10623:10651   */\n      0x4578636565647320746865206d617857616c6c657453697a652e000000000000\n        /* \"#utility.yul\":10603:10621   */\n      0x44\n      dup3\n      add\n        /* \"#utility.yul\":10596:10652   */\n      mstore\n        /* \"#utility.yul\":10669:10687   */\n      0x64\n      add\n        /* \"contracts/rosa.sol\":8596:8675  require(balanceOf(to) + amount <= _maxWalletSize, \"Exceeds the maxWalletSize.\") */\n      tag_147\n        /* \"#utility.yul\":10343:10693   */\n      jump\n        /* \"contracts/rosa.sol\":8596:8675  require(balanceOf(to) + amount <= _maxWalletSize, \"Exceeds the maxWalletSize.\") */\n    tag_249:\n        /* \"contracts/rosa.sol\":8694:8703  _buyCount */\n      0x0e\n        /* \"contracts/rosa.sol\":8694:8705  _buyCount++ */\n      dup1\n      sload\n      swap1\n        /* \"contracts/rosa.sol\":8694:8703  _buyCount */\n      0x00\n        /* \"contracts/rosa.sol\":8694:8705  _buyCount++ */\n      tag_252\n      dup4\n      tag_253\n      jump\t// in\n    tag_252:\n      swap2\n      swap1\n      pop\n      sstore\n      pop\n        /* \"contracts/rosa.sol\":8408:8721  if (from == uniswapV2Pair && to != address(uniswapV2Router) && ! _isExcludedFromFee[to] ) {... */\n    tag_242:\n        /* \"contracts/rosa.sol\":8746:8759  uniswapV2Pair */\n      sload(0x14)\n      sub(shl(0xa0, 0x01), 0x01)\n        /* \"contracts/rosa.sol\":8740:8759  to == uniswapV2Pair */\n      dup5\n      dup2\n      and\n        /* \"contracts/rosa.sol\":8746:8759  uniswapV2Pair */\n      swap2\n      and\n        /* \"contracts/rosa.sol\":8740:8759  to == uniswapV2Pair */\n      eq\n        /* \"contracts/rosa.sol\":8740:8783  to == uniswapV2Pair && from!= address(this) */\n      dup1\n      iszero\n      tag_254\n      jumpi\n      pop\n      sub(shl(0xa0, 0x01), 0x01)\n        /* \"contracts/rosa.sol\":8763:8783  from!= address(this) */\n      dup5\n      and\n        /* \"contracts/rosa.sol\":8778:8782  this */\n      address\n        /* \"contracts/rosa.sol\":8763:8783  from!= address(this) */\n      eq\n      iszero\n        /* \"contracts/rosa.sol\":8740:8783  to == uniswapV2Pair && from!= address(this) */\n    tag_254:\n        /* \"contracts/rosa.sol\":8737:8911  if(to == uniswapV2Pair && from!= address(this) ){... */\n      iszero\n      tag_255\n      jumpi\n        /* \"contracts/rosa.sol\":8816:8895  amount.mul((_buyCount>_reduceSellTaxAt)?_finalSellTax:_initialSellTax).div(100) */\n      tag_256\n        /* \"contracts/rosa.sol\":8891:8894  100 */\n      0x64\n        /* \"contracts/rosa.sol\":8816:8886  amount.mul((_buyCount>_reduceSellTaxAt)?_finalSellTax:_initialSellTax) */\n      tag_229\n        /* \"contracts/rosa.sol\":8838:8854  _reduceSellTaxAt */\n      sload(0x0c)\n        /* \"contracts/rosa.sol\":8828:8837  _buyCount */\n      sload(0x0e)\n        /* \"contracts/rosa.sol\":8828:8854  _buyCount>_reduceSellTaxAt */\n      gt\n        /* \"contracts/rosa.sol\":8827:8885  (_buyCount>_reduceSellTaxAt)?_finalSellTax:_initialSellTax */\n      tag_258\n      jumpi\n        /* \"contracts/rosa.sol\":8870:8885  _initialSellTax */\n      sload(0x08)\n        /* \"contracts/rosa.sol\":8827:8885  (_buyCount>_reduceSellTaxAt)?_finalSellTax:_initialSellTax */\n      jump(tag_231)\n    tag_258:\n        /* \"contracts/rosa.sol\":8856:8869  _finalSellTax */\n      sload(0x0a)\n        /* \"contracts/rosa.sol\":8816:8822  amount */\n      dup6\n      swap1\n        /* \"contracts/rosa.sol\":8816:8826  amount.mul */\n      tag_232\n        /* \"contracts/rosa.sol\":8816:8886  amount.mul((_buyCount>_reduceSellTaxAt)?_finalSellTax:_initialSellTax) */\n      jump\t// in\n        /* \"contracts/rosa.sol\":8816:8895  amount.mul((_buyCount>_reduceSellTaxAt)?_finalSellTax:_initialSellTax).div(100) */\n    tag_256:\n        /* \"contracts/rosa.sol\":8804:8895  taxAmount = amount.mul((_buyCount>_reduceSellTaxAt)?_finalSellTax:_initialSellTax).div(100) */\n      swap1\n      pop\n        /* \"contracts/rosa.sol\":8737:8911  if(to == uniswapV2Pair && from!= address(this) ){... */\n    tag_255:\n        /* \"contracts/rosa.sol\":8976:8980  this */\n      address\n        /* \"contracts/rosa.sol\":8927:8955  uint256 contractTokenBalance */\n      0x00\n        /* \"contracts/rosa.sol\":6195:6213  _balances[account] */\n      swap1\n      dup2\n      mstore\n        /* \"contracts/rosa.sol\":6195:6204  _balances */\n      0x01\n        /* \"contracts/rosa.sol\":6195:6213  _balances[account] */\n      0x20\n      mstore\n      0x40\n      swap1\n      keccak256\n      sload\n        /* \"contracts/rosa.sol\":9002:9008  inSwap */\n      sload(0x14)\n      shl(0xa8, 0x01)\n      swap1\n      div\n      0xff\n      and\n        /* \"contracts/rosa.sol\":9001:9008  !inSwap */\n      iszero\n        /* \"contracts/rosa.sol\":9001:9033  !inSwap && to   == uniswapV2Pair */\n      dup1\n      iszero\n      tag_261\n      jumpi\n      pop\n        /* \"contracts/rosa.sol\":9020:9033  uniswapV2Pair */\n      sload(0x14)\n      sub(shl(0xa0, 0x01), 0x01)\n        /* \"contracts/rosa.sol\":9012:9033  to   == uniswapV2Pair */\n      dup6\n      dup2\n      and\n        /* \"contracts/rosa.sol\":9020:9033  uniswapV2Pair */\n      swap2\n      and\n        /* \"contracts/rosa.sol\":9012:9033  to   == uniswapV2Pair */\n      eq\n        /* \"contracts/rosa.sol\":9001:9033  !inSwap && to   == uniswapV2Pair */\n    tag_261:\n        /* \"contracts/rosa.sol\":9001:9048  !inSwap && to   == uniswapV2Pair && swapEnabled */\n      dup1\n      iszero\n      tag_262\n      jumpi\n      pop\n        /* \"contracts/rosa.sol\":9037:9048  swapEnabled */\n      sload(0x14)\n      shl(0xb0, 0x01)\n      swap1\n      div\n      0xff\n      and\n        /* \"contracts/rosa.sol\":9001:9048  !inSwap && to   == uniswapV2Pair && swapEnabled */\n    tag_262:\n        /* \"contracts/rosa.sol\":9001:9090  !inSwap && to   == uniswapV2Pair && swapEnabled && contractTokenBalance>_taxSwapThreshold */\n      dup1\n      iszero\n      tag_263\n      jumpi\n      pop\n        /* \"contracts/rosa.sol\":9073:9090  _taxSwapThreshold */\n      sload(0x11)\n        /* \"contracts/rosa.sol\":9052:9072  contractTokenBalance */\n      dup2\n        /* \"contracts/rosa.sol\":9052:9090  contractTokenBalance>_taxSwapThreshold */\n      gt\n        /* \"contracts/rosa.sol\":9001:9090  !inSwap && to   == uniswapV2Pair && swapEnabled && contractTokenBalance>_taxSwapThreshold */\n    tag_263:\n        /* \"contracts/rosa.sol\":9001:9122  !inSwap && to   == uniswapV2Pair && swapEnabled && contractTokenBalance>_taxSwapThreshold && _buyCount>_preventSwapBefore */\n      dup1\n      iszero\n      tag_264\n      jumpi\n      pop\n        /* \"contracts/rosa.sol\":9104:9122  _preventSwapBefore */\n      sload(0x0d)\n        /* \"contracts/rosa.sol\":9094:9103  _buyCount */\n      sload(0x0e)\n        /* \"contracts/rosa.sol\":9094:9122  _buyCount>_preventSwapBefore */\n      gt\n        /* \"contracts/rosa.sol\":9001:9122  !inSwap && to   == uniswapV2Pair && swapEnabled && contractTokenBalance>_taxSwapThreshold && _buyCount>_preventSwapBefore */\n    tag_264:\n        /* \"contracts/rosa.sol\":8997:9434  if (!inSwap && to   == uniswapV2Pair && swapEnabled && contractTokenBalance>_taxSwapThreshold && _buyCount>_preventSwapBefore) {... */\n      iszero\n      tag_265\n      jumpi\n        /* \"contracts/rosa.sol\":9143:9210  swapTokensForEth(min(amount,min(contractTokenBalance,_maxTaxSwap))) */\n      tag_266\n        /* \"contracts/rosa.sol\":9160:9209  min(amount,min(contractTokenBalance,_maxTaxSwap)) */\n      tag_267\n        /* \"contracts/rosa.sol\":9164:9170  amount */\n      dup5\n        /* \"contracts/rosa.sol\":9171:9208  min(contractTokenBalance,_maxTaxSwap) */\n      tag_268\n        /* \"contracts/rosa.sol\":9175:9195  contractTokenBalance */\n      dup5\n        /* \"contracts/rosa.sol\":9196:9207  _maxTaxSwap */\n      sload(0x12)\n        /* \"contracts/rosa.sol\":9171:9174  min */\n      tag_269\n        /* \"contracts/rosa.sol\":9171:9208  min(contractTokenBalance,_maxTaxSwap) */\n      jump\t// in\n    tag_268:\n        /* \"contracts/rosa.sol\":9160:9163  min */\n      tag_269\n        /* \"contracts/rosa.sol\":9160:9209  min(amount,min(contractTokenBalance,_maxTaxSwap)) */\n      jump\t// in\n    tag_267:\n        /* \"contracts/rosa.sol\":9143:9159  swapTokensForEth */\n      tag_139\n        /* \"contracts/rosa.sol\":9143:9210  swapTokensForEth(min(amount,min(contractTokenBalance,_maxTaxSwap))) */\n      jump\t// in\n    tag_266:\n        /* \"contracts/rosa.sol\":9258:9279  address(this).balance */\n      selfbalance\n        /* \"contracts/rosa.sol\":9322:9339  50000000000000000 */\n      0xb1a2bc2ec50000\n        /* \"contracts/rosa.sol\":9301:9339  contractETHBalance > 50000000000000000 */\n      dup2\n      gt\n        /* \"contracts/rosa.sol\":9298:9419  if(contractETHBalance > 50000000000000000) {... */\n      iszero\n      tag_271\n      jumpi\n        /* \"contracts/rosa.sol\":9364:9399  sendETHToFee(address(this).balance) */\n      tag_271\n        /* \"contracts/rosa.sol\":9377:9398  address(this).balance */\n      selfbalance\n        /* \"contracts/rosa.sol\":9364:9376  sendETHToFee */\n      tag_142\n        /* \"contracts/rosa.sol\":9364:9399  sendETHToFee(address(this).balance) */\n      jump\t// in\n    tag_271:\n        /* \"contracts/rosa.sol\":9124:9434  {... */\n      pop\n        /* \"contracts/rosa.sol\":8997:9434  if (!inSwap && to   == uniswapV2Pair && swapEnabled && contractTokenBalance>_taxSwapThreshold && _buyCount>_preventSwapBefore) {... */\n    tag_265:\n        /* \"contracts/rosa.sol\":7765:9445  {... */\n      pop\n        /* \"contracts/rosa.sol\":7727:9445  if (from != owner() && to != owner()) {... */\n    tag_227:\n        /* \"contracts/rosa.sol\":9460:9471  taxAmount>0 */\n      dup1\n      iszero\n        /* \"contracts/rosa.sol\":9457:9618  if(taxAmount>0){... */\n      tag_272\n      jumpi\n        /* \"contracts/rosa.sol\":9528:9532  this */\n      address\n        /* \"contracts/rosa.sol\":9510:9534  _balances[address(this)] */\n      0x00\n      swap1\n      dup2\n      mstore\n        /* \"contracts/rosa.sol\":9510:9519  _balances */\n      0x01\n        /* \"contracts/rosa.sol\":9510:9534  _balances[address(this)] */\n      0x20\n      mstore\n      0x40\n      swap1\n      keccak256\n      sload\n        /* \"contracts/rosa.sol\":9510:9549  _balances[address(this)].add(taxAmount) */\n      tag_273\n      swap1\n        /* \"contracts/rosa.sol\":9539:9548  taxAmount */\n      dup3\n        /* \"contracts/rosa.sol\":9510:9538  _balances[address(this)].add */\n      tag_274\n        /* \"contracts/rosa.sol\":9510:9549  _balances[address(this)].add(taxAmount) */\n      jump\t// in\n    tag_273:\n        /* \"contracts/rosa.sol\":9503:9507  this */\n      address\n        /* \"contracts/rosa.sol\":9485:9509  _balances[address(this)] */\n      0x00\n      dup2\n      dup2\n      mstore\n        /* \"contracts/rosa.sol\":9485:9494  _balances */\n      0x01\n        /* \"contracts/rosa.sol\":9485:9509  _balances[address(this)] */\n      0x20\n      mstore\n      0x40\n      swap1\n      dup2\n      swap1\n      keccak256\n        /* \"contracts/rosa.sol\":9485:9549  _balances[address(this)]=_balances[address(this)].add(taxAmount) */\n      swap3\n      swap1\n      swap3\n      sstore\n        /* \"contracts/rosa.sol\":9567:9606  Transfer(from, address(this),taxAmount) */\n      swap1\n      mload\n      sub(shl(0xa0, 0x01), 0x01)\n      dup7\n      and\n      swap1\n      0xddf252ad1be2c89b69c2b068fc378daa952ba7f163c4a11628f55a4df523b3ef\n      swap1\n      tag_275\n      swap1\n        /* \"contracts/rosa.sol\":9596:9605  taxAmount */\n      dup6\n        /* \"#utility.yul\":1361:1386   */\n      dup2\n      mstore\n        /* \"#utility.yul\":1349:1351   */\n      0x20\n        /* \"#utility.yul\":1334:1352   */\n      add\n      swap1\n        /* \"#utility.yul\":1215:1392   */\n      jump\n        /* \"contracts/rosa.sol\":9567:9606  Transfer(from, address(this),taxAmount) */\n    tag_275:\n      mload(0x40)\n      dup1\n      swap2\n      sub\n      swap1\n      log3\n        /* \"contracts/rosa.sol\":9457:9618  if(taxAmount>0){... */\n    tag_272:\n      sub(shl(0xa0, 0x01), 0x01)\n        /* \"contracts/rosa.sol\":9644:9659  _balances[from] */\n      dup5\n      and\n      0x00\n      swap1\n      dup2\n      mstore\n        /* \"contracts/rosa.sol\":9644:9653  _balances */\n      0x01\n        /* \"contracts/rosa.sol\":9644:9659  _balances[from] */\n      0x20\n      mstore\n      0x40\n      swap1\n      keccak256\n      sload\n        /* \"contracts/rosa.sol\":9644:9671  _balances[from].sub(amount) */\n      tag_276\n      swap1\n        /* \"contracts/rosa.sol\":9664:9670  amount */\n      dup4\n        /* \"contracts/rosa.sol\":9644:9663  _balances[from].sub */\n      tag_277\n        /* \"contracts/rosa.sol\":9644:9671  _balances[from].sub(amount) */\n      jump\t// in\n    tag_276:\n      sub(shl(0xa0, 0x01), 0x01)\n        /* \"contracts/rosa.sol\":9628:9643  _balances[from] */\n      dup6\n      and\n      0x00\n      swap1\n      dup2\n      mstore\n        /* \"contracts/rosa.sol\":9628:9637  _balances */\n      0x01\n        /* \"contracts/rosa.sol\":9628:9643  _balances[from] */\n      0x20\n      mstore\n      0x40\n      swap1\n      keccak256\n        /* \"contracts/rosa.sol\":9628:9671  _balances[from]=_balances[from].sub(amount) */\n      sstore\n        /* \"contracts/rosa.sol\":9696:9736  _balances[to].add(amount.sub(taxAmount)) */\n      tag_278\n        /* \"contracts/rosa.sol\":9714:9735  amount.sub(taxAmount) */\n      tag_279\n        /* \"contracts/rosa.sol\":9714:9720  amount */\n      dup4\n        /* \"contracts/rosa.sol\":9725:9734  taxAmount */\n      dup4\n        /* \"contracts/rosa.sol\":9714:9724  amount.sub */\n      tag_277\n        /* \"contracts/rosa.sol\":9714:9735  amount.sub(taxAmount) */\n      jump\t// in\n    tag_279:\n      sub(shl(0xa0, 0x01), 0x01)\n        /* \"contracts/rosa.sol\":9696:9709  _balances[to] */\n      dup6\n      and\n      0x00\n      swap1\n      dup2\n      mstore\n        /* \"contracts/rosa.sol\":9696:9705  _balances */\n      0x01\n        /* \"contracts/rosa.sol\":9696:9709  _balances[to] */\n      0x20\n      mstore\n      0x40\n      swap1\n      keccak256\n      sload\n      swap1\n        /* \"contracts/rosa.sol\":9696:9713  _balances[to].add */\n      tag_274\n        /* \"contracts/rosa.sol\":9696:9736  _balances[to].add(amount.sub(taxAmount)) */\n      jump\t// in\n    tag_278:\n      sub(shl(0xa0, 0x01), 0x01)\n        /* \"contracts/rosa.sol\":9682:9695  _balances[to] */\n      dup1\n      dup6\n      and\n      0x00\n      dup2\n      dup2\n      mstore\n        /* \"contracts/rosa.sol\":9682:9691  _balances */\n      0x01\n        /* \"contracts/rosa.sol\":9682:9695  _balances[to] */\n      0x20\n      mstore\n      0x40\n      swap1\n      keccak256\n        /* \"contracts/rosa.sol\":9682:9736  _balances[to]=_balances[to].add(amount.sub(taxAmount)) */\n      swap3\n      swap1\n      swap3\n      sstore\n        /* \"contracts/rosa.sol\":9752:9793  Transfer(from, to, amount.sub(taxAmount)) */\n      dup6\n      and\n      0xddf252ad1be2c89b69c2b068fc378daa952ba7f163c4a11628f55a4df523b3ef\n        /* \"contracts/rosa.sol\":9771:9792  amount.sub(taxAmount) */\n      tag_280\n        /* \"contracts/rosa.sol\":9771:9777  amount */\n      dup6\n        /* \"contracts/rosa.sol\":9782:9791  taxAmount */\n      dup6\n        /* \"contracts/rosa.sol\":9771:9781  amount.sub */\n      tag_277\n        /* \"contracts/rosa.sol\":9771:9792  amount.sub(taxAmount) */\n      jump\t// in\n    tag_280:\n        /* \"contracts/rosa.sol\":9752:9793  Transfer(from, to, amount.sub(taxAmount)) */\n      mload(0x40)\n        /* \"#utility.yul\":1361:1386   */\n      swap1\n      dup2\n      mstore\n        /* \"#utility.yul\":1349:1351   */\n      0x20\n        /* \"#utility.yul\":1334:1352   */\n      add\n        /* \"contracts/rosa.sol\":9752:9793  Transfer(from, to, amount.sub(taxAmount)) */\n      mload(0x40)\n      dup1\n      swap2\n      sub\n      swap1\n      log3\n        /* \"contracts/rosa.sol\":7457:9801  {... */\n      pop\n        /* \"contracts/rosa.sol\":7388:9801  function _transfer(address from, address to, uint256 amount) private {... */\n      pop\n      pop\n      pop\n      jump\t// out\n        /* \"contracts/rosa.sol\":1553:1743  function sub(uint256 a, uint256 b, string memory errorMessage) internal pure returns (uint256) {... */\n    tag_131:\n        /* \"contracts/rosa.sol\":1639:1646  uint256 */\n      0x00\n        /* \"contracts/rosa.sol\":1675:1687  errorMessage */\n      dup2\n        /* \"contracts/rosa.sol\":1667:1673  b <= a */\n      dup5\n      dup5\n      gt\n      iszero\n        /* \"contracts/rosa.sol\":1659:1688  require(b <= a, errorMessage) */\n      tag_283\n      jumpi\n      mload(0x40)\n      shl(0xe5, 0x461bcd)\n      dup2\n      mstore\n      0x04\n      add\n      tag_147\n      swap2\n      swap1\n      tag_31\n      jump\t// in\n    tag_283:\n      pop\n        /* \"contracts/rosa.sol\":1699:1708  uint256 c */\n      0x00\n        /* \"contracts/rosa.sol\":1711:1716  a - b */\n      tag_285\n        /* \"contracts/rosa.sol\":1715:1716  b */\n      dup5\n        /* \"contracts/rosa.sol\":1711:1712  a */\n      dup7\n        /* \"contracts/rosa.sol\":1711:1716  a - b */\n      tag_286\n      jump\t// in\n    tag_285:\n        /* \"contracts/rosa.sol\":1699:1716  uint256 c = a - b */\n      swap6\n        /* \"contracts/rosa.sol\":1553:1743  function sub(uint256 a, uint256 b, string memory errorMessage) internal pure returns (uint256) {... */\n      swap5\n      pop\n      pop\n      pop\n      pop\n      pop\n      jump\t// out\n        /* \"contracts/rosa.sol\":9917:10400  function swapTokensForEth(uint256 tokenAmount) private lockTheSwap {... */\n    tag_139:\n        /* \"contracts/rosa.sol\":5331:5337  inSwap */\n      0x14\n        /* \"contracts/rosa.sol\":5331:5344  inSwap = true */\n      dup1\n      sload\n      not(shl(0xa8, 0xff))\n      and\n      shl(0xa8, 0x01)\n      or\n      swap1\n      sstore\n        /* \"contracts/rosa.sol\":10019:10035  new address[](2) */\n      0x40\n      dup1\n      mload\n        /* \"contracts/rosa.sol\":10033:10034  2 */\n      0x02\n        /* \"contracts/rosa.sol\":10019:10035  new address[](2) */\n      dup1\n      dup3\n      mstore\n      0x60\n      dup3\n      add\n      dup4\n      mstore\n      0x00\n      swap3\n      0x20\n      dup4\n      add\n      swap1\n      dup1\n      calldatasize\n      dup4\n      calldatacopy\n      add\n      swap1\n      pop\n      pop\n        /* \"contracts/rosa.sol\":9995:10035  address[] memory path = new address[](2) */\n      swap1\n      pop\n        /* \"contracts/rosa.sol\":10064:10068  this */\n      address\n        /* \"contracts/rosa.sol\":10046:10050  path */\n      dup2\n        /* \"contracts/rosa.sol\":10051:10052  0 */\n      0x00\n        /* \"contracts/rosa.sol\":10046:10053  path[0] */\n      dup2\n      mload\n      dup2\n      lt\n      tag_294\n      jumpi\n      tag_294\n      tag_295\n      jump\t// in\n    tag_294:\n      sub(shl(0xa0, 0x01), 0x01)\n        /* \"contracts/rosa.sol\":10046:10069  path[0] = address(this) */\n      swap3\n      dup4\n      and\n        /* \"contracts/rosa.sol\":10046:10053  path[0] */\n      0x20\n      swap2\n      dup3\n      mul\n      swap3\n      swap1\n      swap3\n      add\n      dup2\n      add\n        /* \"contracts/rosa.sol\":10046:10069  path[0] = address(this) */\n      swap2\n      swap1\n      swap2\n      mstore\n        /* \"contracts/rosa.sol\":10090:10105  uniswapV2Router */\n      sload(0x13)\n        /* \"contracts/rosa.sol\":10090:10112  uniswapV2Router.WETH() */\n      0x40\n      dup1\n      mload\n      shl(0xe3, 0x15ab88c9)\n      dup2\n      mstore\n      swap1\n      mload\n        /* \"contracts/rosa.sol\":10090:10105  uniswapV2Router */\n      swap2\n      swap1\n      swap4\n      and\n      swap3\n        /* \"contracts/rosa.sol\":10090:10110  uniswapV2Router.WETH */\n      0xad5c4648\n      swap3\n        /* \"contracts/rosa.sol\":10090:10112  uniswapV2Router.WETH() */\n      0x04\n      dup1\n      dup4\n      add\n      swap4\n        /* \"contracts/rosa.sol\":10046:10053  path[0] */\n      swap2\n      swap3\n        /* \"contracts/rosa.sol\":10090:10112  uniswapV2Router.WETH() */\n      dup3\n      swap1\n      sub\n      add\n      dup2\n        /* \"contracts/rosa.sol\":10090:10105  uniswapV2Router */\n      dup7\n        /* \"contracts/rosa.sol\":10090:10112  uniswapV2Router.WETH() */\n      gas\n      staticcall\n      iszero\n      dup1\n      iszero\n      tag_297\n      jumpi\n      returndatasize\n      0x00\n      dup1\n      returndatacopy\n      revert(0x00, returndatasize)\n    tag_297:\n      pop\n      pop\n      pop\n      pop\n      mload(0x40)\n      returndatasize\n      not(0x1f)\n      0x1f\n      dup3\n      add\n      and\n      dup3\n      add\n      dup1\n      0x40\n      mstore\n      pop\n      dup2\n      add\n      swap1\n      tag_298\n      swap2\n      swap1\n      tag_181\n      jump\t// in\n    tag_298:\n        /* \"contracts/rosa.sol\":10080:10084  path */\n      dup2\n        /* \"contracts/rosa.sol\":10085:10086  1 */\n      0x01\n        /* \"contracts/rosa.sol\":10080:10087  path[1] */\n      dup2\n      mload\n      dup2\n      lt\n      tag_300\n      jumpi\n      tag_300\n      tag_295\n      jump\t// in\n    tag_300:\n      sub(shl(0xa0, 0x01), 0x01)\n        /* \"contracts/rosa.sol\":10080:10112  path[1] = uniswapV2Router.WETH() */\n      swap3\n      dup4\n      and\n        /* \"contracts/rosa.sol\":10080:10087  path[1] */\n      0x20\n      swap2\n      dup3\n      mul\n      swap3\n      swap1\n      swap3\n      add\n      add\n        /* \"contracts/rosa.sol\":10080:10112  path[1] = uniswapV2Router.WETH() */\n      mstore\n        /* \"contracts/rosa.sol\":10155:10170  uniswapV2Router */\n      sload(0x13)\n        /* \"contracts/rosa.sol\":10123:10185  _approve(address(this), address(uniswapV2Router), tokenAmount) */\n      tag_301\n      swap2\n        /* \"contracts/rosa.sol\":10140:10144  this */\n      address\n      swap2\n        /* \"contracts/rosa.sol\":10155:10170  uniswapV2Router */\n      and\n        /* \"contracts/rosa.sol\":10173:10184  tokenAmount */\n      dup5\n        /* \"contracts/rosa.sol\":10123:10131  _approve */\n      tag_118\n        /* \"contracts/rosa.sol\":10123:10185  _approve(address(this), address(uniswapV2Router), tokenAmount) */\n      jump\t// in\n    tag_301:\n        /* \"contracts/rosa.sol\":10196:10211  uniswapV2Router */\n      sload(0x13)\n        /* \"contracts/rosa.sol\":10196:10392  uniswapV2Router.swapExactTokensForETHSupportingFeeOnTransferTokens(... */\n      mload(0x40)\n      shl(0xe0, 0x791ac947)\n      dup2\n      mstore\n      sub(shl(0xa0, 0x01), 0x01)\n        /* \"contracts/rosa.sol\":10196:10211  uniswapV2Router */\n      swap1\n      swap2\n      and\n      swap1\n        /* \"contracts/rosa.sol\":10196:10262  uniswapV2Router.swapExactTokensForETHSupportingFeeOnTransferTokens */\n      0x791ac947\n      swap1\n        /* \"contracts/rosa.sol\":10196:10392  uniswapV2Router.swapExactTokensForETHSupportingFeeOnTransferTokens(... */\n      tag_302\n      swap1\n        /* \"contracts/rosa.sol\":10277:10288  tokenAmount */\n      dup6\n      swap1\n        /* \"contracts/rosa.sol\":10196:10211  uniswapV2Router */\n      0x00\n      swap1\n        /* \"contracts/rosa.sol\":10319:10323  path */\n      dup7\n      swap1\n        /* \"contracts/rosa.sol\":10346:10350  this */\n      address\n      swap1\n        /* \"contracts/rosa.sol\":10366:10381  block.timestamp */\n      timestamp\n      swap1\n        /* \"contracts/rosa.sol\":10196:10392  uniswapV2Router.swapExactTokensForETHSupportingFeeOnTransferTokens(... */\n      0x04\n      add\n      tag_303\n      jump\t// in\n    tag_302:\n      0x00\n      mload(0x40)\n      dup1\n      dup4\n      sub\n      dup2\n      0x00\n      dup8\n      dup1\n      extcodesize\n      iszero\n      dup1\n      iszero\n      tag_304\n      jumpi\n      0x00\n      dup1\n      revert\n    tag_304:\n      pop\n      gas\n      call\n      iszero\n      dup1\n      iszero\n      tag_306\n      jumpi\n      returndatasize\n      0x00\n      dup1\n      returndatacopy\n      revert(0x00, returndatasize)\n    tag_306:\n      pop\n      pop\n        /* \"contracts/rosa.sol\":5367:5373  inSwap */\n      0x14\n        /* \"contracts/rosa.sol\":5367:5381  inSwap = false */\n      dup1\n      sload\n      not(shl(0xa8, 0xff))\n      and\n      swap1\n      sstore\n      pop\n      pop\n      pop\n      pop\n        /* \"contracts/rosa.sol\":9917:10400  function swapTokensForEth(uint256 tokenAmount) private lockTheSwap {... */\n      jump\t// out\n        /* \"contracts/rosa.sol\":10612:10704  function sendETHToFee(uint256 amount) private {... */\n    tag_142:\n        /* \"contracts/rosa.sol\":10669:10679  _taxWallet */\n      sload(0x06)\n        /* \"contracts/rosa.sol\":10669:10696  _taxWallet.transfer(amount) */\n      mload(0x40)\n        /* \"contracts/rosa.sol\":10669:10679  _taxWallet */\n      0x0100\n      swap1\n      swap2\n      div\n      sub(shl(0xa0, 0x01), 0x01)\n      and\n      swap1\n        /* \"contracts/rosa.sol\":10669:10696  _taxWallet.transfer(amount) */\n      0x08fc\n      dup4\n      iszero\n      mul\n      swap1\n      dup4\n      swap1\n      0x00\n      dup2\n      dup2\n      dup2\n      dup6\n        /* \"contracts/rosa.sol\":10669:10679  _taxWallet */\n      dup9\n        /* \"contracts/rosa.sol\":10669:10696  _taxWallet.transfer(amount) */\n      dup9\n      call\n      swap4\n      pop\n      pop\n      pop\n      pop\n      iszero\n      dup1\n      iszero\n      tag_141\n      jumpi\n      returndatasize\n      0x00\n      dup1\n      returndatacopy\n      revert(0x00, returndatasize)\n        /* \"contracts/rosa.sol\":1751:1997  function mul(uint256 a, uint256 b) internal pure returns (uint256) {... */\n    tag_232:\n        /* \"contracts/rosa.sol\":1809:1816  uint256 */\n      0x00\n        /* \"contracts/rosa.sol\":1833:1834  a */\n      dup3\n        /* \"contracts/rosa.sol\":1838:1839  0 */\n      0x00\n        /* \"contracts/rosa.sol\":1833:1839  a == 0 */\n      sub\n        /* \"contracts/rosa.sol\":1829:1876  if (a == 0) {... */\n      tag_311\n      jumpi\n      pop\n        /* \"contracts/rosa.sol\":1863:1864  0 */\n      0x00\n        /* \"contracts/rosa.sol\":1856:1864  return 0 */\n      jump(tag_114)\n        /* \"contracts/rosa.sol\":1829:1876  if (a == 0) {... */\n    tag_311:\n        /* \"contracts/rosa.sol\":1886:1895  uint256 c */\n      0x00\n        /* \"contracts/rosa.sol\":1898:1903  a * b */\n      tag_312\n        /* \"contracts/rosa.sol\":1902:1903  b */\n      dup4\n        /* \"contracts/rosa.sol\":1898:1899  a */\n      dup6\n        /* \"contracts/rosa.sol\":1898:1903  a * b */\n      tag_123\n      jump\t// in\n    tag_312:\n        /* \"contracts/rosa.sol\":1886:1903  uint256 c = a * b */\n      swap1\n      pop\n        /* \"contracts/rosa.sol\":1931:1932  b */\n      dup3\n        /* \"contracts/rosa.sol\":1922:1927  c / a */\n      tag_313\n        /* \"contracts/rosa.sol\":1926:1927  a */\n      dup6\n        /* \"contracts/rosa.sol\":1886:1903  uint256 c = a * b */\n      dup4\n        /* \"contracts/rosa.sol\":1922:1927  c / a */\n      tag_314\n      jump\t// in\n    tag_313:\n        /* \"contracts/rosa.sol\":1922:1932  c / a == b */\n      eq\n        /* \"contracts/rosa.sol\":1914:1970  require(c / a == b, \"SafeMath: multiplication overflow\") */\n      tag_315\n      jumpi\n      mload(0x40)\n      shl(0xe5, 0x461bcd)\n      dup2\n      mstore\n        /* \"#utility.yul\":12644:12646   */\n      0x20\n        /* \"contracts/rosa.sol\":1914:1970  require(c / a == b, \"SafeMath: multiplication overflow\") */\n      0x04\n      dup3\n      add\n        /* \"#utility.yul\":12626:12647   */\n      mstore\n        /* \"#utility.yul\":12683:12685   */\n      0x21\n        /* \"#utility.yul\":12663:12681   */\n      0x24\n      dup3\n      add\n        /* \"#utility.yul\":12656:12686   */\n      mstore\n        /* \"#utility.yul\":12722:12756   */\n      0x536166654d6174683a206d756c7469706c69636174696f6e206f766572666c6f\n        /* \"#utility.yul\":12702:12720   */\n      0x44\n      dup3\n      add\n        /* \"#utility.yul\":12695:12757   */\n      mstore\n      shl(0xf8, 0x77)\n        /* \"#utility.yul\":12773:12791   */\n      0x64\n      dup3\n      add\n        /* \"#utility.yul\":12766:12797   */\n      mstore\n        /* \"#utility.yul\":12814:12833   */\n      0x84\n      add\n        /* \"contracts/rosa.sol\":1914:1970  require(c / a == b, \"SafeMath: multiplication overflow\") */\n      tag_147\n        /* \"#utility.yul\":12442:12839   */\n      jump\n        /* \"contracts/rosa.sol\":1914:1970  require(c / a == b, \"SafeMath: multiplication overflow\") */\n    tag_315:\n        /* \"contracts/rosa.sol\":1988:1989  c */\n      swap4\n        /* \"contracts/rosa.sol\":1751:1997  function mul(uint256 a, uint256 b) internal pure returns (uint256) {... */\n      swap3\n      pop\n      pop\n      pop\n      jump\t// out\n        /* \"contracts/rosa.sol\":2005:2137  function div(uint256 a, uint256 b) internal pure returns (uint256) {... */\n    tag_233:\n        /* \"contracts/rosa.sol\":2063:2070  uint256 */\n      0x00\n        /* \"contracts/rosa.sol\":2090:2129  div(a, b, \"SafeMath: division by zero\") */\n      tag_315\n        /* \"contracts/rosa.sol\":2094:2095  a */\n      dup4\n        /* \"contracts/rosa.sol\":2097:2098  b */\n      dup4\n        /* \"contracts/rosa.sol\":2090:2129  div(a, b, \"SafeMath: division by zero\") */\n      mload(0x40)\n      dup1\n      0x40\n      add\n      0x40\n      mstore\n      dup1\n      0x1a\n      dup2\n      mstore\n      0x20\n      add\n      0x536166654d6174683a206469766973696f6e206279207a65726f000000000000\n      dup2\n      mstore\n      pop\n        /* \"contracts/rosa.sol\":2090:2093  div */\n      tag_320\n        /* \"contracts/rosa.sol\":2090:2129  div(a, b, \"SafeMath: division by zero\") */\n      jump\t// in\n        /* \"contracts/rosa.sol\":9811:9909  function min(uint256 a, uint256 b) private pure returns (uint256){... */\n    tag_269:\n        /* \"contracts/rosa.sol\":9868:9875  uint256 */\n      0x00\n        /* \"contracts/rosa.sol\":9895:9896  b */\n      dup2\n        /* \"contracts/rosa.sol\":9893:9894  a */\n      dup4\n        /* \"contracts/rosa.sol\":9893:9896  a>b */\n      gt\n        /* \"contracts/rosa.sol\":9892:9901  (a>b)?b:a */\n      tag_322\n      jumpi\n        /* \"contracts/rosa.sol\":9900:9901  a */\n      dup3\n        /* \"contracts/rosa.sol\":9892:9901  (a>b)?b:a */\n      jump(tag_315)\n    tag_322:\n      pop\n        /* \"contracts/rosa.sol\":9898:9899  b */\n      swap2\n        /* \"contracts/rosa.sol\":9811:9909  function min(uint256 a, uint256 b) private pure returns (uint256){... */\n      swap1\n      pop\n      jump\t// out\n        /* \"contracts/rosa.sol\":1222:1401  function add(uint256 a, uint256 b) internal pure returns (uint256) {... */\n    tag_274:\n        /* \"contracts/rosa.sol\":1280:1287  uint256 */\n      0x00\n      dup1\n        /* \"contracts/rosa.sol\":1312:1317  a + b */\n      tag_325\n        /* \"contracts/rosa.sol\":1316:1317  b */\n      dup4\n        /* \"contracts/rosa.sol\":1312:1313  a */\n      dup6\n        /* \"contracts/rosa.sol\":1312:1317  a + b */\n      tag_248\n      jump\t// in\n    tag_325:\n        /* \"contracts/rosa.sol\":1300:1317  uint256 c = a + b */\n      swap1\n      pop\n        /* \"contracts/rosa.sol\":1341:1342  a */\n      dup4\n        /* \"contracts/rosa.sol\":1336:1337  c */\n      dup2\n        /* \"contracts/rosa.sol\":1336:1342  c >= a */\n      lt\n      iszero\n        /* \"contracts/rosa.sol\":1328:1374  require(c >= a, \"SafeMath: addition overflow\") */\n      tag_315\n      jumpi\n      mload(0x40)\n      shl(0xe5, 0x461bcd)\n      dup2\n      mstore\n        /* \"#utility.yul\":13046:13048   */\n      0x20\n        /* \"contracts/rosa.sol\":1328:1374  require(c >= a, \"SafeMath: addition overflow\") */\n      0x04\n      dup3\n      add\n        /* \"#utility.yul\":13028:13049   */\n      mstore\n        /* \"#utility.yul\":13085:13087   */\n      0x1b\n        /* \"#utility.yul\":13065:13083   */\n      0x24\n      dup3\n      add\n        /* \"#utility.yul\":13058:13088   */\n      mstore\n        /* \"#utility.yul\":13124:13153   */\n      0x536166654d6174683a206164646974696f6e206f766572666c6f770000000000\n        /* \"#utility.yul\":13104:13122   */\n      0x44\n      dup3\n      add\n        /* \"#utility.yul\":13097:13154   */\n      mstore\n        /* \"#utility.yul\":13171:13189   */\n      0x64\n      add\n        /* \"contracts/rosa.sol\":1328:1374  require(c >= a, \"SafeMath: addition overflow\") */\n      tag_147\n        /* \"#utility.yul\":12844:13195   */\n      jump\n        /* \"contracts/rosa.sol\":1409:1545  function sub(uint256 a, uint256 b) internal pure returns (uint256) {... */\n    tag_277:\n        /* \"contracts/rosa.sol\":1467:1474  uint256 */\n      0x00\n        /* \"contracts/rosa.sol\":1494:1537  sub(a, b, \"SafeMath: subtraction overflow\") */\n      tag_315\n        /* \"contracts/rosa.sol\":1498:1499  a */\n      dup4\n        /* \"contracts/rosa.sol\":1501:1502  b */\n      dup4\n        /* \"contracts/rosa.sol\":1494:1537  sub(a, b, \"SafeMath: subtraction overflow\") */\n      mload(0x40)\n      dup1\n      0x40\n      add\n      0x40\n      mstore\n      dup1\n      0x1e\n      dup2\n      mstore\n      0x20\n      add\n      0x536166654d6174683a207375627472616374696f6e206f766572666c6f770000\n      dup2\n      mstore\n      pop\n        /* \"contracts/rosa.sol\":1494:1497  sub */\n      tag_131\n        /* \"contracts/rosa.sol\":1494:1537  sub(a, b, \"SafeMath: subtraction overflow\") */\n      jump\t// in\n        /* \"contracts/rosa.sol\":2145:2334  function div(uint256 a, uint256 b, string memory errorMessage) internal pure returns (uint256) {... */\n    tag_320:\n        /* \"contracts/rosa.sol\":2231:2238  uint256 */\n      0x00\n        /* \"contracts/rosa.sol\":2266:2278  errorMessage */\n      dup2\n        /* \"contracts/rosa.sol\":2259:2264  b > 0 */\n      dup4\n        /* \"contracts/rosa.sol\":2251:2279  require(b > 0, errorMessage) */\n      tag_332\n      jumpi\n      mload(0x40)\n      shl(0xe5, 0x461bcd)\n      dup2\n      mstore\n      0x04\n      add\n      tag_147\n      swap2\n      swap1\n      tag_31\n      jump\t// in\n    tag_332:\n      pop\n        /* \"contracts/rosa.sol\":2290:2299  uint256 c */\n      0x00\n        /* \"contracts/rosa.sol\":2302:2307  a / b */\n      tag_285\n        /* \"contracts/rosa.sol\":2306:2307  b */\n      dup5\n        /* \"contracts/rosa.sol\":2302:2303  a */\n      dup7\n        /* \"contracts/rosa.sol\":2302:2307  a / b */\n      tag_314\n      jump\t// in\n        /* \"#utility.yul\":14:562   */\n    tag_31:\n        /* \"#utility.yul\":126:130   */\n      0x00\n        /* \"#utility.yul\":155:157   */\n      0x20\n        /* \"#utility.yul\":184:186   */\n      dup1\n        /* \"#utility.yul\":173:182   */\n      dup4\n        /* \"#utility.yul\":166:187   */\n      mstore\n        /* \"#utility.yul\":216:222   */\n      dup4\n        /* \"#utility.yul\":210:223   */\n      mload\n        /* \"#utility.yul\":259:265   */\n      dup1\n        /* \"#utility.yul\":254:256   */\n      dup3\n        /* \"#utility.yul\":243:252   */\n      dup6\n        /* \"#utility.yul\":239:257   */\n      add\n        /* \"#utility.yul\":232:266   */\n      mstore\n        /* \"#utility.yul\":284:285   */\n      0x00\n        /* \"#utility.yul\":294:434   */\n    tag_341:\n        /* \"#utility.yul\":308:314   */\n      dup2\n        /* \"#utility.yul\":305:306   */\n      dup2\n        /* \"#utility.yul\":302:315   */\n      lt\n        /* \"#utility.yul\":294:434   */\n      iszero\n      tag_343\n      jumpi\n        /* \"#utility.yul\":403:417   */\n      dup6\n      dup2\n      add\n        /* \"#utility.yul\":399:422   */\n      dup4\n      add\n        /* \"#utility.yul\":393:423   */\n      mload\n        /* \"#utility.yul\":369:386   */\n      dup6\n      dup3\n      add\n        /* \"#utility.yul\":388:390   */\n      0x40\n        /* \"#utility.yul\":365:391   */\n      add\n        /* \"#utility.yul\":358:424   */\n      mstore\n        /* \"#utility.yul\":323:333   */\n      dup3\n      add\n        /* \"#utility.yul\":294:434   */\n      jump(tag_341)\n    tag_343:\n        /* \"#utility.yul\":298:301   */\n      pop\n        /* \"#utility.yul\":483:484   */\n      0x00\n        /* \"#utility.yul\":478:480   */\n      0x40\n        /* \"#utility.yul\":469:475   */\n      dup3\n        /* \"#utility.yul\":458:467   */\n      dup7\n        /* \"#utility.yul\":454:476   */\n      add\n        /* \"#utility.yul\":450:481   */\n      add\n        /* \"#utility.yul\":443:485   */\n      mstore\n        /* \"#utility.yul\":553:555   */\n      0x40\n        /* \"#utility.yul\":546:548   */\n      0x1f\n        /* \"#utility.yul\":542:549   */\n      not\n        /* \"#utility.yul\":537:539   */\n      0x1f\n        /* \"#utility.yul\":529:535   */\n      dup4\n        /* \"#utility.yul\":525:540   */\n      add\n        /* \"#utility.yul\":521:550   */\n      and\n        /* \"#utility.yul\":510:519   */\n      dup6\n        /* \"#utility.yul\":506:551   */\n      add\n        /* \"#utility.yul\":502:556   */\n      add\n        /* \"#utility.yul\":494:556   */\n      swap3\n      pop\n      pop\n      pop\n        /* \"#utility.yul\":14:562   */\n      swap3\n      swap2\n      pop\n      pop\n      jump\t// out\n        /* \"#utility.yul\":567:698   */\n    tag_335:\n      sub(shl(0xa0, 0x01), 0x01)\n        /* \"#utility.yul\":642:673   */\n      dup2\n      and\n        /* \"#utility.yul\":632:674   */\n      dup2\n      eq\n        /* \"#utility.yul\":622:692   */\n      tag_345\n      jumpi\n        /* \"#utility.yul\":688:689   */\n      0x00\n        /* \"#utility.yul\":685:686   */\n      dup1\n        /* \"#utility.yul\":678:690   */\n      revert\n        /* \"#utility.yul\":622:692   */\n    tag_345:\n        /* \"#utility.yul\":567:698   */\n      pop\n      jump\t// out\n        /* \"#utility.yul\":703:1018   */\n    tag_35:\n        /* \"#utility.yul\":771:777   */\n      0x00\n        /* \"#utility.yul\":779:785   */\n      dup1\n        /* \"#utility.yul\":832:834   */\n      0x40\n        /* \"#utility.yul\":820:829   */\n      dup4\n        /* \"#utility.yul\":811:818   */\n      dup6\n        /* \"#utility.yul\":807:830   */\n      sub\n        /* \"#utility.yul\":803:835   */\n      slt\n        /* \"#utility.yul\":800:852   */\n      iszero\n      tag_347\n      jumpi\n        /* \"#utility.yul\":848:849   */\n      0x00\n        /* \"#utility.yul\":845:846   */\n      dup1\n        /* \"#utility.yul\":838:850   */\n      revert\n        /* \"#utility.yul\":800:852   */\n    tag_347:\n        /* \"#utility.yul\":887:896   */\n      dup3\n        /* \"#utility.yul\":874:897   */\n      calldataload\n        /* \"#utility.yul\":906:937   */\n      tag_348\n        /* \"#utility.yul\":931:936   */\n      dup2\n        /* \"#utility.yul\":906:937   */\n      tag_335\n      jump\t// in\n    tag_348:\n        /* \"#utility.yul\":956:961   */\n      swap5\n        /* \"#utility.yul\":1008:1010   */\n      0x20\n        /* \"#utility.yul\":993:1011   */\n      swap4\n      swap1\n      swap4\n      add\n        /* \"#utility.yul\":980:1012   */\n      calldataload\n      swap4\n      pop\n      pop\n      pop\n        /* \"#utility.yul\":703:1018   */\n      jump\t// out\n        /* \"#utility.yul\":1397:1853   */\n    tag_51:\n        /* \"#utility.yul\":1474:1480   */\n      0x00\n        /* \"#utility.yul\":1482:1488   */\n      dup1\n        /* \"#utility.yul\":1490:1496   */\n      0x00\n        /* \"#utility.yul\":1543:1545   */\n      0x60\n        /* \"#utility.yul\":1531:1540   */\n      dup5\n        /* \"#utility.yul\":1522:1529   */\n      dup7\n        /* \"#utility.yul\":1518:1541   */\n      sub\n        /* \"#utility.yul\":1514:1546   */\n      slt\n        /* \"#utility.yul\":1511:1563   */\n      iszero\n      tag_352\n      jumpi\n        /* \"#utility.yul\":1559:1560   */\n      0x00\n        /* \"#utility.yul\":1556:1557   */\n      dup1\n        /* \"#utility.yul\":1549:1561   */\n      revert\n        /* \"#utility.yul\":1511:1563   */\n    tag_352:\n        /* \"#utility.yul\":1598:1607   */\n      dup4\n        /* \"#utility.yul\":1585:1608   */\n      calldataload\n        /* \"#utility.yul\":1617:1648   */\n      tag_353\n        /* \"#utility.yul\":1642:1647   */\n      dup2\n        /* \"#utility.yul\":1617:1648   */\n      tag_335\n      jump\t// in\n    tag_353:\n        /* \"#utility.yul\":1667:1672   */\n      swap3\n      pop\n        /* \"#utility.yul\":1724:1726   */\n      0x20\n        /* \"#utility.yul\":1709:1727   */\n      dup5\n      add\n        /* \"#utility.yul\":1696:1728   */\n      calldataload\n        /* \"#utility.yul\":1737:1770   */\n      tag_354\n        /* \"#utility.yul\":1696:1728   */\n      dup2\n        /* \"#utility.yul\":1737:1770   */\n      tag_335\n      jump\t// in\n    tag_354:\n        /* \"#utility.yul\":1397:1853   */\n      swap3\n      swap6\n        /* \"#utility.yul\":1789:1796   */\n      swap3\n      swap5\n      pop\n      pop\n      pop\n        /* \"#utility.yul\":1843:1845   */\n      0x40\n        /* \"#utility.yul\":1828:1846   */\n      swap2\n      swap1\n      swap2\n      add\n        /* \"#utility.yul\":1815:1847   */\n      calldataload\n      swap1\n        /* \"#utility.yul\":1397:1853   */\n      jump\t// out\n        /* \"#utility.yul\":2047:2294   */\n    tag_65:\n        /* \"#utility.yul\":2106:2112   */\n      0x00\n        /* \"#utility.yul\":2159:2161   */\n      0x20\n        /* \"#utility.yul\":2147:2156   */\n      dup3\n        /* \"#utility.yul\":2138:2145   */\n      dup5\n        /* \"#utility.yul\":2134:2157   */\n      sub\n        /* \"#utility.yul\":2130:2162   */\n      slt\n        /* \"#utility.yul\":2127:2179   */\n      iszero\n      tag_357\n      jumpi\n        /* \"#utility.yul\":2175:2176   */\n      0x00\n        /* \"#utility.yul\":2172:2173   */\n      dup1\n        /* \"#utility.yul\":2165:2177   */\n      revert\n        /* \"#utility.yul\":2127:2179   */\n    tag_357:\n        /* \"#utility.yul\":2214:2223   */\n      dup2\n        /* \"#utility.yul\":2201:2224   */\n      calldataload\n        /* \"#utility.yul\":2233:2264   */\n      tag_315\n        /* \"#utility.yul\":2258:2263   */\n      dup2\n        /* \"#utility.yul\":2233:2264   */\n      tag_335\n      jump\t// in\n        /* \"#utility.yul\":2507:2895   */\n    tag_110:\n        /* \"#utility.yul\":2575:2581   */\n      0x00\n        /* \"#utility.yul\":2583:2589   */\n      dup1\n        /* \"#utility.yul\":2636:2638   */\n      0x40\n        /* \"#utility.yul\":2624:2633   */\n      dup4\n        /* \"#utility.yul\":2615:2622   */\n      dup6\n        /* \"#utility.yul\":2611:2634   */\n      sub\n        /* \"#utility.yul\":2607:2639   */\n      slt\n        /* \"#utility.yul\":2604:2656   */\n      iszero\n      tag_361\n      jumpi\n        /* \"#utility.yul\":2652:2653   */\n      0x00\n        /* \"#utility.yul\":2649:2650   */\n      dup1\n        /* \"#utility.yul\":2642:2654   */\n      revert\n        /* \"#utility.yul\":2604:2656   */\n    tag_361:\n        /* \"#utility.yul\":2691:2700   */\n      dup3\n        /* \"#utility.yul\":2678:2701   */\n      calldataload\n        /* \"#utility.yul\":2710:2741   */\n      tag_362\n        /* \"#utility.yul\":2735:2740   */\n      dup2\n        /* \"#utility.yul\":2710:2741   */\n      tag_335\n      jump\t// in\n    tag_362:\n        /* \"#utility.yul\":2760:2765   */\n      swap2\n      pop\n        /* \"#utility.yul\":2817:2819   */\n      0x20\n        /* \"#utility.yul\":2802:2820   */\n      dup4\n      add\n        /* \"#utility.yul\":2789:2821   */\n      calldataload\n        /* \"#utility.yul\":2830:2863   */\n      tag_363\n        /* \"#utility.yul\":2789:2821   */\n      dup2\n        /* \"#utility.yul\":2830:2863   */\n      tag_335\n      jump\t// in\n    tag_363:\n        /* \"#utility.yul\":2882:2889   */\n      dup1\n        /* \"#utility.yul\":2872:2889   */\n      swap2\n      pop\n      pop\n        /* \"#utility.yul\":2507:2895   */\n      swap3\n      pop\n      swap3\n      swap1\n      pop\n      jump\t// out\n        /* \"#utility.yul\":2900:3027   */\n    tag_336:\n        /* \"#utility.yul\":2961:2971   */\n      0x4e487b71\n        /* \"#utility.yul\":2956:2959   */\n      0xe0\n        /* \"#utility.yul\":2952:2972   */\n      shl\n        /* \"#utility.yul\":2949:2950   */\n      0x00\n        /* \"#utility.yul\":2942:2973   */\n      mstore\n        /* \"#utility.yul\":2992:2996   */\n      0x11\n        /* \"#utility.yul\":2989:2990   */\n      0x04\n        /* \"#utility.yul\":2982:2997   */\n      mstore\n        /* \"#utility.yul\":3016:3020   */\n      0x24\n        /* \"#utility.yul\":3013:3014   */\n      0x00\n        /* \"#utility.yul\":3006:3021   */\n      revert\n        /* \"#utility.yul\":3032:3454   */\n    tag_337:\n        /* \"#utility.yul\":3121:3122   */\n      0x01\n        /* \"#utility.yul\":3164:3169   */\n      dup2\n        /* \"#utility.yul\":3121:3122   */\n      dup2\n        /* \"#utility.yul\":3178:3448   */\n    tag_366:\n        /* \"#utility.yul\":3199:3206   */\n      dup1\n        /* \"#utility.yul\":3189:3197   */\n      dup6\n        /* \"#utility.yul\":3186:3207   */\n      gt\n        /* \"#utility.yul\":3178:3448   */\n      iszero\n      tag_368\n      jumpi\n        /* \"#utility.yul\":3258:3262   */\n      dup2\n        /* \"#utility.yul\":3254:3255   */\n      0x00\n        /* \"#utility.yul\":3250:3256   */\n      not\n        /* \"#utility.yul\":3246:3263   */\n      div\n        /* \"#utility.yul\":3240:3244   */\n      dup3\n        /* \"#utility.yul\":3237:3264   */\n      gt\n        /* \"#utility.yul\":3234:3287   */\n      iszero\n      tag_370\n      jumpi\n        /* \"#utility.yul\":3267:3285   */\n      tag_370\n      tag_336\n      jump\t// in\n    tag_370:\n        /* \"#utility.yul\":3317:3324   */\n      dup1\n        /* \"#utility.yul\":3307:3315   */\n      dup6\n        /* \"#utility.yul\":3303:3325   */\n      and\n        /* \"#utility.yul\":3300:3355   */\n      iszero\n      tag_371\n      jumpi\n        /* \"#utility.yul\":3337:3353   */\n      swap2\n      dup2\n      mul\n      swap2\n        /* \"#utility.yul\":3300:3355   */\n    tag_371:\n        /* \"#utility.yul\":3416:3438   */\n      swap4\n      dup5\n      shr\n      swap4\n        /* \"#utility.yul\":3376:3391   */\n      swap1\n      dup1\n      mul\n      swap1\n        /* \"#utility.yul\":3178:3448   */\n      jump(tag_366)\n    tag_368:\n        /* \"#utility.yul\":3182:3185   */\n      pop\n        /* \"#utility.yul\":3032:3454   */\n      swap3\n      pop\n      swap3\n      swap1\n      pop\n      jump\t// out\n        /* \"#utility.yul\":3459:4265   */\n    tag_338:\n        /* \"#utility.yul\":3508:3513   */\n      0x00\n        /* \"#utility.yul\":3538:3546   */\n      dup3\n        /* \"#utility.yul\":3528:3608   */\n      tag_373\n      jumpi\n      pop\n        /* \"#utility.yul\":3579:3580   */\n      0x01\n        /* \"#utility.yul\":3593:3598   */\n      jump(tag_114)\n        /* \"#utility.yul\":3528:3608   */\n    tag_373:\n        /* \"#utility.yul\":3627:3631   */\n      dup2\n        /* \"#utility.yul\":3617:3693   */\n      tag_374\n      jumpi\n      pop\n        /* \"#utility.yul\":3664:3665   */\n      0x00\n        /* \"#utility.yul\":3678:3683   */\n      jump(tag_114)\n        /* \"#utility.yul\":3617:3693   */\n    tag_374:\n        /* \"#utility.yul\":3709:3713   */\n      dup2\n        /* \"#utility.yul\":3727:3728   */\n      0x01\n        /* \"#utility.yul\":3722:3781   */\n      dup2\n      eq\n      tag_376\n      jumpi\n        /* \"#utility.yul\":3795:3796   */\n      0x02\n        /* \"#utility.yul\":3790:3920   */\n      dup2\n      eq\n      tag_377\n      jumpi\n        /* \"#utility.yul\":3702:3920   */\n      jump(tag_375)\n        /* \"#utility.yul\":3722:3781   */\n    tag_376:\n        /* \"#utility.yul\":3752:3753   */\n      0x01\n        /* \"#utility.yul\":3743:3753   */\n      swap2\n      pop\n        /* \"#utility.yul\":3766:3771   */\n      pop\n      jump(tag_114)\n        /* \"#utility.yul\":3790:3920   */\n    tag_377:\n        /* \"#utility.yul\":3827:3830   */\n      0xff\n        /* \"#utility.yul\":3817:3825   */\n      dup5\n        /* \"#utility.yul\":3814:3831   */\n      gt\n        /* \"#utility.yul\":3811:3854   */\n      iszero\n      tag_379\n      jumpi\n        /* \"#utility.yul\":3834:3852   */\n      tag_379\n      tag_336\n      jump\t// in\n    tag_379:\n      pop\n      pop\n        /* \"#utility.yul\":3890:3891   */\n      0x01\n        /* \"#utility.yul\":3876:3892   */\n      dup3\n      shl\n        /* \"#utility.yul\":3905:3910   */\n      jump(tag_114)\n        /* \"#utility.yul\":3702:3920   */\n    tag_375:\n      pop\n        /* \"#utility.yul\":4004:4006   */\n      0x20\n        /* \"#utility.yul\":3994:4002   */\n      dup4\n        /* \"#utility.yul\":3991:4007   */\n      lt\n        /* \"#utility.yul\":3985:3988   */\n      0x0133\n        /* \"#utility.yul\":3979:3983   */\n      dup4\n        /* \"#utility.yul\":3976:3989   */\n      lt\n        /* \"#utility.yul\":3972:4008   */\n      and\n        /* \"#utility.yul\":3966:3968   */\n      0x4e\n        /* \"#utility.yul\":3956:3964   */\n      dup5\n        /* \"#utility.yul\":3953:3969   */\n      lt\n        /* \"#utility.yul\":3948:3950   */\n      0x0b\n        /* \"#utility.yul\":3942:3946   */\n      dup5\n        /* \"#utility.yul\":3939:3951   */\n      lt\n        /* \"#utility.yul\":3935:3970   */\n      and\n        /* \"#utility.yul\":3932:4009   */\n      or\n        /* \"#utility.yul\":3929:4088   */\n      iszero\n      tag_380\n      jumpi\n      pop\n        /* \"#utility.yul\":4041:4060   */\n      dup2\n      dup2\n      exp\n        /* \"#utility.yul\":4073:4078   */\n      jump(tag_114)\n        /* \"#utility.yul\":3929:4088   */\n    tag_380:\n        /* \"#utility.yul\":4120:4154   */\n      tag_381\n        /* \"#utility.yul\":4145:4153   */\n      dup4\n        /* \"#utility.yul\":4139:4143   */\n      dup4\n        /* \"#utility.yul\":4120:4154   */\n      tag_337\n      jump\t// in\n    tag_381:\n        /* \"#utility.yul\":4190:4196   */\n      dup1\n        /* \"#utility.yul\":4186:4187   */\n      0x00\n        /* \"#utility.yul\":4182:4188   */\n      not\n        /* \"#utility.yul\":4178:4197   */\n      div\n        /* \"#utility.yul\":4169:4176   */\n      dup3\n        /* \"#utility.yul\":4166:4198   */\n      gt\n        /* \"#utility.yul\":4163:4221   */\n      iszero\n      tag_383\n      jumpi\n        /* \"#utility.yul\":4201:4219   */\n      tag_383\n      tag_336\n      jump\t// in\n    tag_383:\n        /* \"#utility.yul\":4239:4259   */\n      mul\n      swap4\n        /* \"#utility.yul\":3459:4265   */\n      swap3\n      pop\n      pop\n      pop\n      jump\t// out\n        /* \"#utility.yul\":4270:4410   */\n    tag_121:\n        /* \"#utility.yul\":4328:4333   */\n      0x00\n        /* \"#utility.yul\":4357:4404   */\n      tag_315\n        /* \"#utility.yul\":4398:4402   */\n      0xff\n        /* \"#utility.yul\":4388:4396   */\n      dup5\n        /* \"#utility.yul\":4384:4403   */\n      and\n        /* \"#utility.yul\":4378:4382   */\n      dup4\n        /* \"#utility.yul\":4357:4404   */\n      tag_338\n      jump\t// in\n        /* \"#utility.yul\":4415:4583   */\n    tag_123:\n        /* \"#utility.yul\":4488:4497   */\n      dup1\n      dup3\n      mul\n        /* \"#utility.yul\":4519:4528   */\n      dup2\n      iszero\n        /* \"#utility.yul\":4536:4551   */\n      dup3\n      dup3\n      div\n        /* \"#utility.yul\":4530:4552   */\n      dup5\n      eq\n        /* \"#utility.yul\":4516:4553   */\n      or\n        /* \"#utility.yul\":4506:4577   */\n      tag_114\n      jumpi\n        /* \"#utility.yul\":4557:4575   */\n      tag_114\n      tag_336\n      jump\t// in\n        /* \"#utility.yul\":4588:4944   */\n    tag_148:\n        /* \"#utility.yul\":4790:4792   */\n      0x20\n        /* \"#utility.yul\":4772:4793   */\n      dup1\n      dup3\n      mstore\n        /* \"#utility.yul\":4809:4827   */\n      dup2\n      dup2\n      add\n        /* \"#utility.yul\":4802:4832   */\n      mstore\n        /* \"#utility.yul\":4868:4902   */\n      0x4f776e61626c653a2063616c6c6572206973206e6f7420746865206f776e6572\n        /* \"#utility.yul\":4863:4865   */\n      0x40\n        /* \"#utility.yul\":4848:4866   */\n      dup3\n      add\n        /* \"#utility.yul\":4841:4903   */\n      mstore\n        /* \"#utility.yul\":4935:4937   */\n      0x60\n        /* \"#utility.yul\":4920:4938   */\n      add\n      swap1\n        /* \"#utility.yul\":4588:4944   */\n      jump\t// out\n        /* \"#utility.yul\":5301:5552   */\n    tag_181:\n        /* \"#utility.yul\":5371:5377   */\n      0x00\n        /* \"#utility.yul\":5424:5426   */\n      0x20\n        /* \"#utility.yul\":5412:5421   */\n      dup3\n        /* \"#utility.yul\":5403:5410   */\n      dup5\n        /* \"#utility.yul\":5399:5422   */\n      sub\n        /* \"#utility.yul\":5395:5427   */\n      slt\n        /* \"#utility.yul\":5392:5444   */\n      iszero\n      tag_392\n      jumpi\n        /* \"#utility.yul\":5440:5441   */\n      0x00\n        /* \"#utility.yul\":5437:5438   */\n      dup1\n        /* \"#utility.yul\":5430:5442   */\n      revert\n        /* \"#utility.yul\":5392:5444   */\n    tag_392:\n        /* \"#utility.yul\":5472:5481   */\n      dup2\n        /* \"#utility.yul\":5466:5482   */\n      mload\n        /* \"#utility.yul\":5491:5522   */\n      tag_315\n        /* \"#utility.yul\":5516:5521   */\n      dup2\n        /* \"#utility.yul\":5491:5522   */\n      tag_335\n      jump\t// in\n        /* \"#utility.yul\":6478:6784   */\n    tag_197:\n        /* \"#utility.yul\":6566:6572   */\n      0x00\n        /* \"#utility.yul\":6574:6580   */\n      dup1\n        /* \"#utility.yul\":6582:6588   */\n      0x00\n        /* \"#utility.yul\":6635:6637   */\n      0x60\n        /* \"#utility.yul\":6623:6632   */\n      dup5\n        /* \"#utility.yul\":6614:6621   */\n      dup7\n        /* \"#utility.yul\":6610:6633   */\n      sub\n        /* \"#utility.yul\":6606:6638   */\n      slt\n        /* \"#utility.yul\":6603:6655   */\n      iszero\n      tag_397\n      jumpi\n        /* \"#utility.yul\":6651:6652   */\n      0x00\n        /* \"#utility.yul\":6648:6649   */\n      dup1\n        /* \"#utility.yul\":6641:6653   */\n      revert\n        /* \"#utility.yul\":6603:6655   */\n    tag_397:\n        /* \"#utility.yul\":6680:6689   */\n      dup4\n        /* \"#utility.yul\":6674:6690   */\n      mload\n        /* \"#utility.yul\":6664:6690   */\n      swap3\n      pop\n        /* \"#utility.yul\":6730:6732   */\n      0x20\n        /* \"#utility.yul\":6719:6728   */\n      dup5\n        /* \"#utility.yul\":6715:6733   */\n      add\n        /* \"#utility.yul\":6709:6734   */\n      mload\n        /* \"#utility.yul\":6699:6734   */\n      swap2\n      pop\n        /* \"#utility.yul\":6774:6776   */\n      0x40\n        /* \"#utility.yul\":6763:6772   */\n      dup5\n        /* \"#utility.yul\":6759:6777   */\n      add\n        /* \"#utility.yul\":6753:6778   */\n      mload\n        /* \"#utility.yul\":6743:6778   */\n      swap1\n      pop\n        /* \"#utility.yul\":6478:6784   */\n      swap3\n      pop\n      swap3\n      pop\n      swap3\n      jump\t// out\n        /* \"#utility.yul\":7068:7345   */\n    tag_203:\n        /* \"#utility.yul\":7135:7141   */\n      0x00\n        /* \"#utility.yul\":7188:7190   */\n      0x20\n        /* \"#utility.yul\":7176:7185   */\n      dup3\n        /* \"#utility.yul\":7167:7174   */\n      dup5\n        /* \"#utility.yul\":7163:7186   */\n      sub\n        /* \"#utility.yul\":7159:7191   */\n      slt\n        /* \"#utility.yul\":7156:7208   */\n      iszero\n      tag_400\n      jumpi\n        /* \"#utility.yul\":7204:7205   */\n      0x00\n        /* \"#utility.yul\":7201:7202   */\n      dup1\n        /* \"#utility.yul\":7194:7206   */\n      revert\n        /* \"#utility.yul\":7156:7208   */\n    tag_400:\n        /* \"#utility.yul\":7236:7245   */\n      dup2\n        /* \"#utility.yul\":7230:7246   */\n      mload\n        /* \"#utility.yul\":7289:7294   */\n      dup1\n        /* \"#utility.yul\":7282:7295   */\n      iszero\n        /* \"#utility.yul\":7275:7296   */\n      iszero\n        /* \"#utility.yul\":7268:7273   */\n      dup2\n        /* \"#utility.yul\":7265:7297   */\n      eq\n        /* \"#utility.yul\":7255:7315   */\n      tag_315\n      jumpi\n        /* \"#utility.yul\":7311:7312   */\n      0x00\n        /* \"#utility.yul\":7308:7309   */\n      dup1\n        /* \"#utility.yul\":7301:7313   */\n      revert\n        /* \"#utility.yul\":10213:10338   */\n    tag_248:\n        /* \"#utility.yul\":10278:10287   */\n      dup1\n      dup3\n      add\n        /* \"#utility.yul\":10299:10309   */\n      dup1\n      dup3\n      gt\n        /* \"#utility.yul\":10296:10332   */\n      iszero\n      tag_114\n      jumpi\n        /* \"#utility.yul\":10312:10330   */\n      tag_114\n      tag_336\n      jump\t// in\n        /* \"#utility.yul\":10698:10833   */\n    tag_253:\n        /* \"#utility.yul\":10737:10740   */\n      0x00\n        /* \"#utility.yul\":10758:10775   */\n      0x01\n      dup3\n      add\n        /* \"#utility.yul\":10755:10798   */\n      tag_415\n      jumpi\n        /* \"#utility.yul\":10778:10796   */\n      tag_415\n      tag_336\n      jump\t// in\n    tag_415:\n      pop\n        /* \"#utility.yul\":10825:10826   */\n      0x01\n        /* \"#utility.yul\":10814:10827   */\n      add\n      swap1\n        /* \"#utility.yul\":10698:10833   */\n      jump\t// out\n        /* \"#utility.yul\":10838:10966   */\n    tag_286:\n        /* \"#utility.yul\":10905:10914   */\n      dup2\n      dup2\n      sub\n        /* \"#utility.yul\":10926:10937   */\n      dup2\n      dup2\n      gt\n        /* \"#utility.yul\":10923:10960   */\n      iszero\n      tag_114\n      jumpi\n        /* \"#utility.yul\":10940:10958   */\n      tag_114\n      tag_336\n      jump\t// in\n        /* \"#utility.yul\":11103:11230   */\n    tag_295:\n        /* \"#utility.yul\":11164:11174   */\n      0x4e487b71\n        /* \"#utility.yul\":11159:11162   */\n      0xe0\n        /* \"#utility.yul\":11155:11175   */\n      shl\n        /* \"#utility.yul\":11152:11153   */\n      0x00\n        /* \"#utility.yul\":11145:11176   */\n      mstore\n        /* \"#utility.yul\":11195:11199   */\n      0x32\n        /* \"#utility.yul\":11192:11193   */\n      0x04\n        /* \"#utility.yul\":11185:11200   */\n      mstore\n        /* \"#utility.yul\":11219:11223   */\n      0x24\n        /* \"#utility.yul\":11216:11217   */\n      0x00\n        /* \"#utility.yul\":11209:11224   */\n      revert\n        /* \"#utility.yul\":11235:12215   */\n    tag_303:\n        /* \"#utility.yul\":11497:11501   */\n      0x00\n        /* \"#utility.yul\":11545:11548   */\n      0xa0\n        /* \"#utility.yul\":11534:11543   */\n      dup3\n        /* \"#utility.yul\":11530:11549   */\n      add\n        /* \"#utility.yul\":11576:11582   */\n      dup8\n        /* \"#utility.yul\":11565:11574   */\n      dup4\n        /* \"#utility.yul\":11558:11583   */\n      mstore\n        /* \"#utility.yul\":11602:11604   */\n      0x20\n        /* \"#utility.yul\":11640:11646   */\n      dup8\n        /* \"#utility.yul\":11635:11637   */\n      dup2\n        /* \"#utility.yul\":11624:11633   */\n      dup6\n        /* \"#utility.yul\":11620:11638   */\n      add\n        /* \"#utility.yul\":11613:11647   */\n      mstore\n        /* \"#utility.yul\":11683:11686   */\n      0xa0\n        /* \"#utility.yul\":11678:11680   */\n      0x40\n        /* \"#utility.yul\":11667:11676   */\n      dup6\n        /* \"#utility.yul\":11663:11681   */\n      add\n        /* \"#utility.yul\":11656:11687   */\n      mstore\n        /* \"#utility.yul\":11707:11713   */\n      dup2\n        /* \"#utility.yul\":11742:11748   */\n      dup8\n        /* \"#utility.yul\":11736:11749   */\n      mload\n        /* \"#utility.yul\":11773:11779   */\n      dup1\n        /* \"#utility.yul\":11765:11771   */\n      dup5\n        /* \"#utility.yul\":11758:11780   */\n      mstore\n        /* \"#utility.yul\":11811:11814   */\n      0xc0\n        /* \"#utility.yul\":11800:11809   */\n      dup7\n        /* \"#utility.yul\":11796:11815   */\n      add\n        /* \"#utility.yul\":11789:11815   */\n      swap2\n      pop\n        /* \"#utility.yul\":11850:11852   */\n      dup3\n        /* \"#utility.yul\":11842:11848   */\n      dup10\n        /* \"#utility.yul\":11838:11853   */\n      add\n        /* \"#utility.yul\":11824:11853   */\n      swap4\n      pop\n        /* \"#utility.yul\":11871:11872   */\n      0x00\n        /* \"#utility.yul\":11881:12076   */\n    tag_422:\n        /* \"#utility.yul\":11895:11901   */\n      dup2\n        /* \"#utility.yul\":11892:11893   */\n      dup2\n        /* \"#utility.yul\":11889:11902   */\n      lt\n        /* \"#utility.yul\":11881:12076   */\n      iszero\n      tag_424\n      jumpi\n        /* \"#utility.yul\":11960:11973   */\n      dup5\n      mload\n      sub(shl(0xa0, 0x01), 0x01)\n        /* \"#utility.yul\":11956:11995   */\n      and\n        /* \"#utility.yul\":11944:11996   */\n      dup4\n      mstore\n        /* \"#utility.yul\":12051:12066   */\n      swap4\n      dup4\n      add\n      swap4\n        /* \"#utility.yul\":12016:12028   */\n      swap2\n      dup4\n      add\n      swap2\n        /* \"#utility.yul\":11992:11993   */\n      0x01\n        /* \"#utility.yul\":11910:11919   */\n      add\n        /* \"#utility.yul\":11881:12076   */\n      jump(tag_422)\n    tag_424:\n      pop\n      pop\n      sub(shl(0xa0, 0x01), 0x01)\n        /* \"#utility.yul\":12132:12164   */\n      swap7\n      swap1\n      swap7\n      and\n        /* \"#utility.yul\":12127:12129   */\n      0x60\n        /* \"#utility.yul\":12112:12130   */\n      dup6\n      add\n        /* \"#utility.yul\":12105:12165   */\n      mstore\n      pop\n      pop\n      pop\n        /* \"#utility.yul\":12196:12199   */\n      0x80\n        /* \"#utility.yul\":12181:12200   */\n      add\n        /* \"#utility.yul\":12174:12209   */\n      mstore\n        /* \"#utility.yul\":12093:12096   */\n      swap4\n        /* \"#utility.yul\":11235:12215   */\n      swap3\n      pop\n      pop\n      pop\n      jump\t// out\n        /* \"#utility.yul\":12220:12437   */\n    tag_314:\n        /* \"#utility.yul\":12260:12261   */\n      0x00\n        /* \"#utility.yul\":12286:12287   */\n      dup3\n        /* \"#utility.yul\":12276:12408   */\n      tag_426\n      jumpi\n        /* \"#utility.yul\":12330:12340   */\n      0x4e487b71\n        /* \"#utility.yul\":12325:12328   */\n      0xe0\n        /* \"#utility.yul\":12321:12341   */\n      shl\n        /* \"#utility.yul\":12318:12319   */\n      0x00\n        /* \"#utility.yul\":12311:12342   */\n      mstore\n        /* \"#utility.yul\":12365:12369   */\n      0x12\n        /* \"#utility.yul\":12362:12363   */\n      0x04\n        /* \"#utility.yul\":12355:12370   */\n      mstore\n        /* \"#utility.yul\":12393:12397   */\n      0x24\n        /* \"#utility.yul\":12390:12391   */\n      0x00\n        /* \"#utility.yul\":12383:12398   */\n      revert\n        /* \"#utility.yul\":12276:12408   */\n    tag_426:\n      pop\n        /* \"#utility.yul\":12422:12431   */\n      div\n      swap1\n        /* \"#utility.yul\":12220:12437   */\n      jump\t// out\n    stop\n    data_974d1b4421da69cc60b481194f0dad36a5bb4e23da810da7a7fb30cdba178330 45524332303a207472616e7366657220616d6f756e74206578636565647320616c6c6f77616e6365\n\n    auxdata: 0xa2646970667358221220622b465a771786a5bff40d196fc99beb1b29fcbf5a88cea101cfcd8d4a04578864736f6c63430008140033\n}\n",
				"bytecode": {
					"linkReferences": {},
					"object": "60806040526006805460ff19166001908117909155601460078190556008556009818155600a918255600b829055600c829055600d8290555f600e55620000469162000343565b6200005590623d09006200035a565b600f55620000666009600a62000343565b6200007590623d09006200035a565b601055620000866009600a62000343565b6200009590620f42406200035a565b601155620000a66009600a62000343565b620000b590621e84806200035a565b6012556014805461ffff60a81b19169055348015620000d2575f80fd5b505f80546001600160a01b031916339081178255604051909182917f8be0079c531659141344cd1fd0a4f28419497f9722a3daafe3b4186f6b6457e0908290a35060068054610100600160a81b0319166101003302179055620001386009600a62000343565b6200014890630bebc2006200035a565b335f908152600160208190526040822092909255600390620001715f546001600160a01b031690565b6001600160a01b03908116825260208083019390935260409182015f908120805495151560ff1996871617905530815260039093528183208054851660019081179091556006546101009004909116835291208054909216179055620001d43390565b6001600160a01b03165f7fddf252ad1be2c89b69c2b068fc378daa952ba7f163c4a11628f55a4df523b3ef6200020d6009600a62000343565b6200021d90630bebc2006200035a565b60405190815260200160405180910390a362000374565b634e487b7160e01b5f52601160045260245ffd5b600181815b808511156200028857815f19048211156200026c576200026c62000234565b808516156200027a57918102915b93841c93908002906200024d565b509250929050565b5f82620002a0575060016200033d565b81620002ae57505f6200033d565b8160018114620002c75760028114620002d257620002f2565b60019150506200033d565b60ff841115620002e657620002e662000234565b50506001821b6200033d565b5060208310610133831016604e8410600b841016171562000317575081810a6200033d565b62000323838362000248565b805f190482111562000339576200033962000234565b0290505b92915050565b5f6200035360ff84168362000290565b9392505050565b80820281158282048414176200033d576200033d62000234565b6117fb80620003825f395ff3fe608060405260043610610113575f3560e01c8063751039fc1161009d578063a9059cbb11610062578063a9059cbb146102ee578063bf474bed1461030d578063c876d0b914610322578063c9567bf91461033b578063dd62ed3e1461034f575f80fd5b8063751039fc1461025e5780637d1db4a5146102725780638da5cb5b146102875780638f9a55c0146102ad57806395d89b41146102c2575f80fd5b806323b872dd116100e357806323b872dd146101c6578063313ce567146101e557806351bc3c851461020057806370a0823114610216578063715018a61461024a575f80fd5b806306fdde031461011e578063095ea7b3146101605780630faee56f1461018f57806318160ddd146101b2575f80fd5b3661011a57005b5f80fd5b348015610129575f80fd5b50604080518082019091526008815267524f53414c494e4160c01b60208201525b60405161015791906113ee565b60405180910390f35b34801561016b575f80fd5b5061017f61017a366004611450565b610393565b6040519015158152602001610157565b34801561019a575f80fd5b506101a460125481565b604051908152602001610157565b3480156101bd575f80fd5b506101a46103a9565b3480156101d1575f80fd5b5061017f6101e036600461147a565b6103c9565b3480156101f0575f80fd5b5060405160098152602001610157565b34801561020b575f80fd5b50610214610430565b005b348015610221575f80fd5b506101a46102303660046114b8565b6001600160a01b03165f9081526001602052604090205490565b348015610255575f80fd5b50610214610486565b348015610269575f80fd5b50610214610500565b34801561027d575f80fd5b506101a4600f5481565b348015610292575f80fd5b505f546040516001600160a01b039091168152602001610157565b3480156102b8575f80fd5b506101a460105481565b3480156102cd575f80fd5b50604080518082019091526004815263524f534160e01b602082015261014a565b3480156102f9575f80fd5b5061017f610308366004611450565b6105bb565b348015610318575f80fd5b506101a460115481565b34801561032d575f80fd5b5060065461017f9060ff1681565b348015610346575f80fd5b506102146105c7565b34801561035a575f80fd5b506101a46103693660046114d3565b6001600160a01b039182165f90815260026020908152604080832093909416825291909152205490565b5f61039f338484610970565b5060015b92915050565b5f6103b66009600a6115fe565b6103c490630bebc20061160c565b905090565b5f6103d5848484610a93565b61042684336104218560405180606001604052806028815260200161179e602891396001600160a01b038a165f9081526002602090815260408083203384529091529020549190611066565b610970565b5060019392505050565b60065461010090046001600160a01b0316336001600160a01b031614610454575f80fd5b305f908152600160205260409020548015610472576104728161109e565b478015610482576104828161120e565b5050565b5f546001600160a01b031633146104b85760405162461bcd60e51b81526004016104af90611623565b60405180910390fd5b5f80546040516001600160a01b03909116907f8be0079c531659141344cd1fd0a4f28419497f9722a3daafe3b4186f6b6457e0908390a35f80546001600160a01b0319169055565b5f546001600160a01b031633146105295760405162461bcd60e51b81526004016104af90611623565b6105356009600a6115fe565b61054390630bebc20061160c565b600f556105526009600a6115fe565b61056090630bebc20061160c565b6010556006805460ff191690557f947f344d56e1e8c70dc492fb94c4ddddd490c016aab685f5e7e47b2e85cb44cf61059a6009600a6115fe565b6105a890630bebc20061160c565b60405190815260200160405180910390a1565b5f61039f338484610a93565b5f546001600160a01b031633146105f05760405162461bcd60e51b81526004016104af90611623565b601454600160a01b900460ff161561064a5760405162461bcd60e51b815260206004820152601760248201527f74726164696e6720697320616c7265616479206f70656e00000000000000000060448201526064016104af565b601380546001600160a01b031916737a250d5630b4cf539739df2c5dacb4c659f2488d9081179091556106939030906106856009600a6115fe565b61042190630bebc20061160c565b60135f9054906101000a90046001600160a01b03166001600160a01b031663c45a01556040518163ffffffff1660e01b8152600401602060405180830381865afa1580156106e3573d5f803e3d5ffd5b505050506040513d601f19601f820116820180604052508101906107079190611658565b6001600160a01b031663c9c653963060135f9054906101000a90046001600160a01b03166001600160a01b031663ad5c46486040518163ffffffff1660e01b8152600401602060405180830381865afa158015610766573d5f803e3d5ffd5b505050506040513d601f19601f8201168201806040525081019061078a9190611658565b6040516001600160e01b031960e085901b1681526001600160a01b039283166004820152911660248201526044016020604051808303815f875af11580156107d4573d5f803e3d5ffd5b505050506040513d601f19601f820116820180604052508101906107f89190611658565b601480546001600160a01b039283166001600160a01b03199091161790556013541663f305d719473061083f816001600160a01b03165f9081526001602052604090205490565b5f806108525f546001600160a01b031690565b60405160e088901b6001600160e01b03191681526001600160a01b03958616600482015260248101949094526044840192909252606483015290911660848201524260a482015260c40160606040518083038185885af11580156108b8573d5f803e3d5ffd5b50505050506040513d601f19601f820116820180604052508101906108dd9190611673565b505060145460135460405163095ea7b360e01b81526001600160a01b0391821660048201525f1960248201529116915063095ea7b3906044016020604051808303815f875af1158015610932573d5f803e3d5ffd5b505050506040513d601f19601f82011682018060405250810190610956919061169e565b506014805462ff00ff60a01b19166201000160a01b179055565b6001600160a01b0383166109d25760405162461bcd60e51b8152602060048201526024808201527f45524332303a20617070726f76652066726f6d20746865207a65726f206164646044820152637265737360e01b60648201526084016104af565b6001600160a01b038216610a335760405162461bcd60e51b815260206004820152602260248201527f45524332303a20617070726f766520746f20746865207a65726f206164647265604482015261737360f01b60648201526084016104af565b6001600160a01b038381165f8181526002602090815260408083209487168084529482529182902085905590518481527f8c5be1e5ebec7d5bd14f71427d1e84f3dd0314c0f7b2291e5b200ac8c7c3b925910160405180910390a3505050565b6001600160a01b038316610af75760405162461bcd60e51b815260206004820152602560248201527f45524332303a207472616e736665722066726f6d20746865207a65726f206164604482015264647265737360d81b60648201526084016104af565b6001600160a01b038216610b595760405162461bcd60e51b815260206004820152602360248201527f45524332303a207472616e7366657220746f20746865207a65726f206164647260448201526265737360e81b60648201526084016104af565b5f8111610bba5760405162461bcd60e51b815260206004820152602960248201527f5472616e7366657220616d6f756e74206d7573742062652067726561746572206044820152687468616e207a65726f60b81b60648201526084016104af565b5f80546001600160a01b03858116911614801590610be557505f546001600160a01b03848116911614155b15610f2957610c166064610c10600b54600e5411610c0557600754610c09565b6009545b8590611249565b906112ce565b60065490915060ff1615610cfb576013546001600160a01b03848116911614801590610c5057506014546001600160a01b03848116911614155b15610cfb57325f908152600560205260409020544311610ce95760405162461bcd60e51b815260206004820152604860248201527f5f7472616e736665723a3a205472616e736665722044656c617920656e61626c60448201527f65642e204f6e6c79206f6e652070757263686173652070657220626c6f636b2060648201526730b63637bbb2b21760c11b608482015260a4016104af565b325f9081526005602052604090204390555b6014546001600160a01b038581169116148015610d2657506013546001600160a01b03848116911614155b8015610d4a57506001600160a01b0383165f9081526003602052604090205460ff16155b15610e3057600f54821115610da15760405162461bcd60e51b815260206004820152601960248201527f4578636565647320746865205f6d61785478416d6f756e742e0000000000000060448201526064016104af565b60105482610dc3856001600160a01b03165f9081526001602052604090205490565b610dcd91906116bd565b1115610e1b5760405162461bcd60e51b815260206004820152601a60248201527f4578636565647320746865206d617857616c6c657453697a652e00000000000060448201526064016104af565b600e8054905f610e2a836116d0565b91905055505b6014546001600160a01b038481169116148015610e5657506001600160a01b0384163014155b15610e8357610e806064610c10600c54600e5411610e7657600854610c09565b600a548590611249565b90505b305f90815260016020526040902054601454600160a81b900460ff16158015610eb957506014546001600160a01b038581169116145b8015610ece5750601454600160b01b900460ff165b8015610edb575060115481115b8015610eea5750600d54600e54115b15610f2757610f0c610f0784610f028460125461130f565b61130f565b61109e565b4766b1a2bc2ec50000811115610f2557610f254761120e565b505b505b8015610fa157305f90815260016020526040902054610f489082611323565b305f81815260016020526040908190209290925590516001600160a01b038616907fddf252ad1be2c89b69c2b068fc378daa952ba7f163c4a11628f55a4df523b3ef90610f989085815260200190565b60405180910390a35b6001600160a01b0384165f90815260016020526040902054610fc39083611381565b6001600160a01b0385165f90815260016020526040902055611006610fe88383611381565b6001600160a01b0385165f9081526001602052604090205490611323565b6001600160a01b038085165f8181526001602052604090209290925585167fddf252ad1be2c89b69c2b068fc378daa952ba7f163c4a11628f55a4df523b3ef61104f8585611381565b60405190815260200160405180910390a350505050565b5f81848411156110895760405162461bcd60e51b81526004016104af91906113ee565b505f61109584866116e8565b95945050505050565b6014805460ff60a81b1916600160a81b1790556040805160028082526060820183525f9260208301908036833701905050905030815f815181106110e4576110e46116fb565b6001600160a01b03928316602091820292909201810191909152601354604080516315ab88c960e31b81529051919093169263ad5c46489260048083019391928290030181865afa15801561113b573d5f803e3d5ffd5b505050506040513d601f19601f8201168201806040525081019061115f9190611658565b81600181518110611172576111726116fb565b6001600160a01b0392831660209182029290920101526013546111989130911684610970565b60135460405163791ac94760e01b81526001600160a01b039091169063791ac947906111d09085905f9086903090429060040161170f565b5f604051808303815f87803b1580156111e7575f80fd5b505af11580156111f9573d5f803e3d5ffd5b50506014805460ff60a81b1916905550505050565b6006546040516101009091046001600160a01b0316906108fc8315029083905f818181858888f19350505050158015610482573d5f803e3d5ffd5b5f825f0361125857505f6103a3565b5f611263838561160c565b905082611270858361177e565b146112c75760405162461bcd60e51b815260206004820152602160248201527f536166654d6174683a206d756c7469706c69636174696f6e206f766572666c6f6044820152607760f81b60648201526084016104af565b9392505050565b5f6112c783836040518060400160405280601a81526020017f536166654d6174683a206469766973696f6e206279207a65726f0000000000008152506113c2565b5f81831161131d57826112c7565b50919050565b5f8061132f83856116bd565b9050838110156112c75760405162461bcd60e51b815260206004820152601b60248201527f536166654d6174683a206164646974696f6e206f766572666c6f77000000000060448201526064016104af565b5f6112c783836040518060400160405280601e81526020017f536166654d6174683a207375627472616374696f6e206f766572666c6f770000815250611066565b5f81836113e25760405162461bcd60e51b81526004016104af91906113ee565b505f611095848661177e565b5f6020808352835180828501525f5b81811015611419578581018301518582016040015282016113fd565b505f604082860101526040601f19601f8301168501019250505092915050565b6001600160a01b038116811461144d575f80fd5b50565b5f8060408385031215611461575f80fd5b823561146c81611439565b946020939093013593505050565b5f805f6060848603121561148c575f80fd5b833561149781611439565b925060208401356114a781611439565b929592945050506040919091013590565b5f602082840312156114c8575f80fd5b81356112c781611439565b5f80604083850312156114e4575f80fd5b82356114ef81611439565b915060208301356114ff81611439565b809150509250929050565b634e487b7160e01b5f52601160045260245ffd5b600181815b8085111561155857815f190482111561153e5761153e61150a565b8085161561154b57918102915b93841c9390800290611523565b509250929050565b5f8261156e575060016103a3565b8161157a57505f6103a3565b8160018114611590576002811461159a576115b6565b60019150506103a3565b60ff8411156115ab576115ab61150a565b50506001821b6103a3565b5060208310610133831016604e8410600b84101617156115d9575081810a6103a3565b6115e3838361151e565b805f19048211156115f6576115f661150a565b029392505050565b5f6112c760ff841683611560565b80820281158282048414176103a3576103a361150a565b6020808252818101527f4f776e61626c653a2063616c6c6572206973206e6f7420746865206f776e6572604082015260600190565b5f60208284031215611668575f80fd5b81516112c781611439565b5f805f60608486031215611685575f80fd5b8351925060208401519150604084015190509250925092565b5f602082840312156116ae575f80fd5b815180151581146112c7575f80fd5b808201808211156103a3576103a361150a565b5f600182016116e1576116e161150a565b5060010190565b818103818111156103a3576103a361150a565b634e487b7160e01b5f52603260045260245ffd5b5f60a082018783526020878185015260a0604085015281875180845260c08601915082890193505f5b8181101561175d5784516001600160a01b031683529383019391830191600101611738565b50506001600160a01b03969096166060850152505050608001529392505050565b5f8261179857634e487b7160e01b5f52601260045260245ffd5b50049056fe45524332303a207472616e7366657220616d6f756e74206578636565647320616c6c6f77616e6365a2646970667358221220622b465a771786a5bff40d196fc99beb1b29fcbf5a88cea101cfcd8d4a04578864736f6c63430008140033",
					"opcodes": "PUSH1 0x80 PUSH1 0x40 MSTORE PUSH1 0x6 DUP1 SLOAD PUSH1 0xFF NOT AND PUSH1 0x1 SWAP1 DUP2 OR SWAP1 SWAP2 SSTORE PUSH1 0x14 PUSH1 0x7 DUP2 SWAP1 SSTORE PUSH1 0x8 SSTORE PUSH1 0x9 DUP2 DUP2 SSTORE PUSH1 0xA SWAP2 DUP3 SSTORE PUSH1 0xB DUP3 SWAP1 SSTORE PUSH1 0xC DUP3 SWAP1 SSTORE PUSH1 0xD DUP3 SWAP1 SSTORE PUSH0 PUSH1 0xE SSTORE PUSH3 0x46 SWAP2 PUSH3 0x343 JUMP JUMPDEST PUSH3 0x55 SWAP1 PUSH3 0x3D0900 PUSH3 0x35A JUMP JUMPDEST PUSH1 0xF SSTORE PUSH3 0x66 PUSH1 0x9 PUSH1 0xA PUSH3 0x343 JUMP JUMPDEST PUSH3 0x75 SWAP1 PUSH3 0x3D0900 PUSH3 0x35A JUMP JUMPDEST PUSH1 0x10 SSTORE PUSH3 0x86 PUSH1 0x9 PUSH1 0xA PUSH3 0x343 JUMP JUMPDEST PUSH3 0x95 SWAP1 PUSH3 0xF4240 PUSH3 0x35A JUMP JUMPDEST PUSH1 0x11 SSTORE PUSH3 0xA6 PUSH1 0x9 PUSH1 0xA PUSH3 0x343 JUMP JUMPDEST PUSH3 0xB5 SWAP1 PUSH3 0x1E8480 PUSH3 0x35A JUMP JUMPDEST PUSH1 0x12 SSTORE PUSH1 0x14 DUP1 SLOAD PUSH2 0xFFFF PUSH1 0xA8 SHL NOT AND SWAP1 SSTORE CALLVALUE DUP1 ISZERO PUSH3 0xD2 JUMPI PUSH0 DUP1 REVERT JUMPDEST POP PUSH0 DUP1 SLOAD PUSH1 0x1 PUSH1 0x1 PUSH1 0xA0 SHL SUB NOT AND CALLER SWAP1 DUP2 OR DUP3 SSTORE PUSH1 0x40 MLOAD SWAP1 SWAP2 DUP3 SWAP2 PUSH32 0x8BE0079C531659141344CD1FD0A4F28419497F9722A3DAAFE3B4186F6B6457E0 SWAP1 DUP3 SWAP1 LOG3 POP PUSH1 0x6 DUP1 SLOAD PUSH2 0x100 PUSH1 0x1 PUSH1 0xA8 SHL SUB NOT AND PUSH2 0x100 CALLER MUL OR SWAP1 SSTORE PUSH3 0x138 PUSH1 0x9 PUSH1 0xA PUSH3 0x343 JUMP JUMPDEST PUSH3 0x148 SWAP1 PUSH4 0xBEBC200 PUSH3 0x35A JUMP JUMPDEST CALLER PUSH0 SWAP1 DUP2 MSTORE PUSH1 0x1 PUSH1 0x20 DUP2 SWAP1 MSTORE PUSH1 0x40 DUP3 KECCAK256 SWAP3 SWAP1 SWAP3 SSTORE PUSH1 0x3 SWAP1 PUSH3 0x171 PUSH0 SLOAD PUSH1 0x1 PUSH1 0x1 PUSH1 0xA0 SHL SUB AND SWAP1 JUMP JUMPDEST PUSH1 0x1 PUSH1 0x1 PUSH1 0xA0 SHL SUB SWAP1 DUP2 AND DUP3 MSTORE PUSH1 0x20 DUP1 DUP4 ADD SWAP4 SWAP1 SWAP4 MSTORE PUSH1 0x40 SWAP2 DUP3 ADD PUSH0 SWAP1 DUP2 KECCAK256 DUP1 SLOAD SWAP6 ISZERO ISZERO PUSH1 0xFF NOT SWAP7 DUP8 AND OR SWAP1 SSTORE ADDRESS DUP2 MSTORE PUSH1 0x3 SWAP1 SWAP4 MSTORE DUP2 DUP4 KECCAK256 DUP1 SLOAD DUP6 AND PUSH1 0x1 SWAP1 DUP2 OR SWAP1 SWAP2 SSTORE PUSH1 0x6 SLOAD PUSH2 0x100 SWAP1 DIV SWAP1 SWAP2 AND DUP4 MSTORE SWAP2 KECCAK256 DUP1 SLOAD SWAP1 SWAP3 AND OR SWAP1 SSTORE PUSH3 0x1D4 CALLER SWAP1 JUMP JUMPDEST PUSH1 0x1 PUSH1 0x1 PUSH1 0xA0 SHL SUB AND PUSH0 PUSH32 0xDDF252AD1BE2C89B69C2B068FC378DAA952BA7F163C4A11628F55A4DF523B3EF PUSH3 0x20D PUSH1 0x9 PUSH1 0xA PUSH3 0x343 JUMP JUMPDEST PUSH3 0x21D SWAP1 PUSH4 0xBEBC200 PUSH3 0x35A JUMP JUMPDEST PUSH1 0x40 MLOAD SWAP1 DUP2 MSTORE PUSH1 0x20 ADD PUSH1 0x40 MLOAD DUP1 SWAP2 SUB SWAP1 LOG3 PUSH3 0x374 JUMP JUMPDEST PUSH4 0x4E487B71 PUSH1 0xE0 SHL PUSH0 MSTORE PUSH1 0x11 PUSH1 0x4 MSTORE PUSH1 0x24 PUSH0 REVERT JUMPDEST PUSH1 0x1 DUP2 DUP2 JUMPDEST DUP1 DUP6 GT ISZERO PUSH3 0x288 JUMPI DUP2 PUSH0 NOT DIV DUP3 GT ISZERO PUSH3 0x26C JUMPI PUSH3 0x26C PUSH3 0x234 JUMP JUMPDEST DUP1 DUP6 AND ISZERO PUSH3 0x27A JUMPI SWAP2 DUP2 MUL SWAP2 JUMPDEST SWAP4 DUP5 SHR SWAP4 SWAP1 DUP1 MUL SWAP1 PUSH3 0x24D JUMP JUMPDEST POP SWAP3 POP SWAP3 SWAP1 POP JUMP JUMPDEST PUSH0 DUP3 PUSH3 0x2A0 JUMPI POP PUSH1 0x1 PUSH3 0x33D JUMP JUMPDEST DUP2 PUSH3 0x2AE JUMPI POP PUSH0 PUSH3 0x33D JUMP JUMPDEST DUP2 PUSH1 0x1 DUP2 EQ PUSH3 0x2C7 JUMPI PUSH1 0x2 DUP2 EQ PUSH3 0x2D2 JUMPI PUSH3 0x2F2 JUMP JUMPDEST PUSH1 0x1 SWAP2 POP POP PUSH3 0x33D JUMP JUMPDEST PUSH1 0xFF DUP5 GT ISZERO PUSH3 0x2E6 JUMPI PUSH3 0x2E6 PUSH3 0x234 JUMP JUMPDEST POP POP PUSH1 0x1 DUP3 SHL PUSH3 0x33D JUMP JUMPDEST POP PUSH1 0x20 DUP4 LT PUSH2 0x133 DUP4 LT AND PUSH1 0x4E DUP5 LT PUSH1 0xB DUP5 LT AND OR ISZERO PUSH3 0x317 JUMPI POP DUP2 DUP2 EXP PUSH3 0x33D JUMP JUMPDEST PUSH3 0x323 DUP4 DUP4 PUSH3 0x248 JUMP JUMPDEST DUP1 PUSH0 NOT DIV DUP3 GT ISZERO PUSH3 0x339 JUMPI PUSH3 0x339 PUSH3 0x234 JUMP JUMPDEST MUL SWAP1 POP JUMPDEST SWAP3 SWAP2 POP POP JUMP JUMPDEST PUSH0 PUSH3 0x353 PUSH1 0xFF DUP5 AND DUP4 PUSH3 0x290 JUMP JUMPDEST SWAP4 SWAP3 POP POP POP JUMP JUMPDEST DUP1 DUP3 MUL DUP2 ISZERO DUP3 DUP3 DIV DUP5 EQ OR PUSH3 0x33D JUMPI PUSH3 0x33D PUSH3 0x234 JUMP JUMPDEST PUSH2 0x17FB DUP1 PUSH3 0x382 PUSH0 CODECOPY PUSH0 RETURN INVALID PUSH1 0x80 PUSH1 0x40 MSTORE PUSH1 0x4 CALLDATASIZE LT PUSH2 0x113 JUMPI PUSH0 CALLDATALOAD PUSH1 0xE0 SHR DUP1 PUSH4 0x751039FC GT PUSH2 0x9D JUMPI DUP1 PUSH4 0xA9059CBB GT PUSH2 0x62 JUMPI DUP1 PUSH4 0xA9059CBB EQ PUSH2 0x2EE JUMPI DUP1 PUSH4 0xBF474BED EQ PUSH2 0x30D JUMPI DUP1 PUSH4 0xC876D0B9 EQ PUSH2 0x322 JUMPI DUP1 PUSH4 0xC9567BF9 EQ PUSH2 0x33B JUMPI DUP1 PUSH4 0xDD62ED3E EQ PUSH2 0x34F JUMPI PUSH0 DUP1 REVERT JUMPDEST DUP1 PUSH4 0x751039FC EQ PUSH2 0x25E JUMPI DUP1 PUSH4 0x7D1DB4A5 EQ PUSH2 0x272 JUMPI DUP1 PUSH4 0x8DA5CB5B EQ PUSH2 0x287 JUMPI DUP1 PUSH4 0x8F9A55C0 EQ PUSH2 0x2AD JUMPI DUP1 PUSH4 0x95D89B41 EQ PUSH2 0x2C2 JUMPI PUSH0 DUP1 REVERT JUMPDEST DUP1 PUSH4 0x23B872DD GT PUSH2 0xE3 JUMPI DUP1 PUSH4 0x23B872DD EQ PUSH2 0x1C6 JUMPI DUP1 PUSH4 0x313CE567 EQ PUSH2 0x1E5 JUMPI DUP1 PUSH4 0x51BC3C85 EQ PUSH2 0x200 JUMPI DUP1 PUSH4 0x70A08231 EQ PUSH2 0x216 JUMPI DUP1 PUSH4 0x715018A6 EQ PUSH2 0x24A JUMPI PUSH0 DUP1 REVERT JUMPDEST DUP1 PUSH4 0x6FDDE03 EQ PUSH2 0x11E JUMPI DUP1 PUSH4 0x95EA7B3 EQ PUSH2 0x160 JUMPI DUP1 PUSH4 0xFAEE56F EQ PUSH2 0x18F JUMPI DUP1 PUSH4 0x18160DDD EQ PUSH2 0x1B2 JUMPI PUSH0 DUP1 REVERT JUMPDEST CALLDATASIZE PUSH2 0x11A JUMPI STOP JUMPDEST PUSH0 DUP1 REVERT JUMPDEST CALLVALUE DUP1 ISZERO PUSH2 0x129 JUMPI PUSH0 DUP1 REVERT JUMPDEST POP PUSH1 0x40 DUP1 MLOAD DUP1 DUP3 ADD SWAP1 SWAP2 MSTORE PUSH1 0x8 DUP2 MSTORE PUSH8 0x524F53414C494E41 PUSH1 0xC0 SHL PUSH1 0x20 DUP3 ADD MSTORE JUMPDEST PUSH1 0x40 MLOAD PUSH2 0x157 SWAP2 SWAP1 PUSH2 0x13EE JUMP JUMPDEST PUSH1 0x40 MLOAD DUP1 SWAP2 SUB SWAP1 RETURN JUMPDEST CALLVALUE DUP1 ISZERO PUSH2 0x16B JUMPI PUSH0 DUP1 REVERT JUMPDEST POP PUSH2 0x17F PUSH2 0x17A CALLDATASIZE PUSH1 0x4 PUSH2 0x1450 JUMP JUMPDEST PUSH2 0x393 JUMP JUMPDEST PUSH1 0x40 MLOAD SWAP1 ISZERO ISZERO DUP2 MSTORE PUSH1 0x20 ADD PUSH2 0x157 JUMP JUMPDEST CALLVALUE DUP1 ISZERO PUSH2 0x19A JUMPI PUSH0 DUP1 REVERT JUMPDEST POP PUSH2 0x1A4 PUSH1 0x12 SLOAD DUP2 JUMP JUMPDEST PUSH1 0x40 MLOAD SWAP1 DUP2 MSTORE PUSH1 0x20 ADD PUSH2 0x157 JUMP JUMPDEST CALLVALUE DUP1 ISZERO PUSH2 0x1BD JUMPI PUSH0 DUP1 REVERT JUMPDEST POP PUSH2 0x1A4 PUSH2 0x3A9 JUMP JUMPDEST CALLVALUE DUP1 ISZERO PUSH2 0x1D1 JUMPI PUSH0 DUP1 REVERT JUMPDEST POP PUSH2 0x17F PUSH2 0x1E0 CALLDATASIZE PUSH1 0x4 PUSH2 0x147A JUMP JUMPDEST PUSH2 0x3C9 JUMP JUMPDEST CALLVALUE DUP1 ISZERO PUSH2 0x1F0 JUMPI PUSH0 DUP1 REVERT JUMPDEST POP PUSH1 0x40 MLOAD PUSH1 0x9 DUP2 MSTORE PUSH1 0x20 ADD PUSH2 0x157 JUMP JUMPDEST CALLVALUE DUP1 ISZERO PUSH2 0x20B JUMPI PUSH0 DUP1 REVERT JUMPDEST POP PUSH2 0x214 PUSH2 0x430 JUMP JUMPDEST STOP JUMPDEST CALLVALUE DUP1 ISZERO PUSH2 0x221 JUMPI PUSH0 DUP1 REVERT JUMPDEST POP PUSH2 0x1A4 PUSH2 0x230 CALLDATASIZE PUSH1 0x4 PUSH2 0x14B8 JUMP JUMPDEST PUSH1 0x1 PUSH1 0x1 PUSH1 0xA0 SHL SUB AND PUSH0 SWAP1 DUP2 MSTORE PUSH1 0x1 PUSH1 0x20 MSTORE PUSH1 0x40 SWAP1 KECCAK256 SLOAD SWAP1 JUMP JUMPDEST CALLVALUE DUP1 ISZERO PUSH2 0x255 JUMPI PUSH0 DUP1 REVERT JUMPDEST POP PUSH2 0x214 PUSH2 0x486 JUMP JUMPDEST CALLVALUE DUP1 ISZERO PUSH2 0x269 JUMPI PUSH0 DUP1 REVERT JUMPDEST POP PUSH2 0x214 PUSH2 0x500 JUMP JUMPDEST CALLVALUE DUP1 ISZERO PUSH2 0x27D JUMPI PUSH0 DUP1 REVERT JUMPDEST POP PUSH2 0x1A4 PUSH1 0xF SLOAD DUP2 JUMP JUMPDEST CALLVALUE DUP1 ISZERO PUSH2 0x292 JUMPI PUSH0 DUP1 REVERT JUMPDEST POP PUSH0 SLOAD PUSH1 0x40 MLOAD PUSH1 0x1 PUSH1 0x1 PUSH1 0xA0 SHL SUB SWAP1 SWAP2 AND DUP2 MSTORE PUSH1 0x20 ADD PUSH2 0x157 JUMP JUMPDEST CALLVALUE DUP1 ISZERO PUSH2 0x2B8 JUMPI PUSH0 DUP1 REVERT JUMPDEST POP PUSH2 0x1A4 PUSH1 0x10 SLOAD DUP2 JUMP JUMPDEST CALLVALUE DUP1 ISZERO PUSH2 0x2CD JUMPI PUSH0 DUP1 REVERT JUMPDEST POP PUSH1 0x40 DUP1 MLOAD DUP1 DUP3 ADD SWAP1 SWAP2 MSTORE PUSH1 0x4 DUP2 MSTORE PUSH4 0x524F5341 PUSH1 0xE0 SHL PUSH1 0x20 DUP3 ADD MSTORE PUSH2 0x14A JUMP JUMPDEST CALLVALUE DUP1 ISZERO PUSH2 0x2F9 JUMPI PUSH0 DUP1 REVERT JUMPDEST POP PUSH2 0x17F PUSH2 0x308 CALLDATASIZE PUSH1 0x4 PUSH2 0x1450 JUMP JUMPDEST PUSH2 0x5BB JUMP JUMPDEST CALLVALUE DUP1 ISZERO PUSH2 0x318 JUMPI PUSH0 DUP1 REVERT JUMPDEST POP PUSH2 0x1A4 PUSH1 0x11 SLOAD DUP2 JUMP JUMPDEST CALLVALUE DUP1 ISZERO PUSH2 0x32D JUMPI PUSH0 DUP1 REVERT JUMPDEST POP PUSH1 0x6 SLOAD PUSH2 0x17F SWAP1 PUSH1 0xFF AND DUP2 JUMP JUMPDEST CALLVALUE DUP1 ISZERO PUSH2 0x346 JUMPI PUSH0 DUP1 REVERT JUMPDEST POP PUSH2 0x214 PUSH2 0x5C7 JUMP JUMPDEST CALLVALUE DUP1 ISZERO PUSH2 0x35A JUMPI PUSH0 DUP1 REVERT JUMPDEST POP PUSH2 0x1A4 PUSH2 0x369 CALLDATASIZE PUSH1 0x4 PUSH2 0x14D3 JUMP JUMPDEST PUSH1 0x1 PUSH1 0x1 PUSH1 0xA0 SHL SUB SWAP2 DUP3 AND PUSH0 SWAP1 DUP2 MSTORE PUSH1 0x2 PUSH1 0x20 SWAP1 DUP2 MSTORE PUSH1 0x40 DUP1 DUP4 KECCAK256 SWAP4 SWAP1 SWAP5 AND DUP3 MSTORE SWAP2 SWAP1 SWAP2 MSTORE KECCAK256 SLOAD SWAP1 JUMP JUMPDEST PUSH0 PUSH2 0x39F CALLER DUP5 DUP5 PUSH2 0x970 JUMP JUMPDEST POP PUSH1 0x1 JUMPDEST SWAP3 SWAP2 POP POP JUMP JUMPDEST PUSH0 PUSH2 0x3B6 PUSH1 0x9 PUSH1 0xA PUSH2 0x15FE JUMP JUMPDEST PUSH2 0x3C4 SWAP1 PUSH4 0xBEBC200 PUSH2 0x160C JUMP JUMPDEST SWAP1 POP SWAP1 JUMP JUMPDEST PUSH0 PUSH2 0x3D5 DUP5 DUP5 DUP5 PUSH2 0xA93 JUMP JUMPDEST PUSH2 0x426 DUP5 CALLER PUSH2 0x421 DUP6 PUSH1 0x40 MLOAD DUP1 PUSH1 0x60 ADD PUSH1 0x40 MSTORE DUP1 PUSH1 0x28 DUP2 MSTORE PUSH1 0x20 ADD PUSH2 0x179E PUSH1 0x28 SWAP2 CODECOPY PUSH1 0x1 PUSH1 0x1 PUSH1 0xA0 SHL SUB DUP11 AND PUSH0 SWAP1 DUP2 MSTORE PUSH1 0x2 PUSH1 0x20 SWAP1 DUP2 MSTORE PUSH1 0x40 DUP1 DUP4 KECCAK256 CALLER DUP5 MSTORE SWAP1 SWAP2 MSTORE SWAP1 KECCAK256 SLOAD SWAP2 SWAP1 PUSH2 0x1066 JUMP JUMPDEST PUSH2 0x970 JUMP JUMPDEST POP PUSH1 0x1 SWAP4 SWAP3 POP POP POP JUMP JUMPDEST PUSH1 0x6 SLOAD PUSH2 0x100 SWAP1 DIV PUSH1 0x1 PUSH1 0x1 PUSH1 0xA0 SHL SUB AND CALLER PUSH1 0x1 PUSH1 0x1 PUSH1 0xA0 SHL SUB AND EQ PUSH2 0x454 JUMPI PUSH0 DUP1 REVERT JUMPDEST ADDRESS PUSH0 SWAP1 DUP2 MSTORE PUSH1 0x1 PUSH1 0x20 MSTORE PUSH1 0x40 SWAP1 KECCAK256 SLOAD DUP1 ISZERO PUSH2 0x472 JUMPI PUSH2 0x472 DUP2 PUSH2 0x109E JUMP JUMPDEST SELFBALANCE DUP1 ISZERO PUSH2 0x482 JUMPI PUSH2 0x482 DUP2 PUSH2 0x120E JUMP JUMPDEST POP POP JUMP JUMPDEST PUSH0 SLOAD PUSH1 0x1 PUSH1 0x1 PUSH1 0xA0 SHL SUB AND CALLER EQ PUSH2 0x4B8 JUMPI PUSH1 0x40 MLOAD PUSH3 0x461BCD PUSH1 0xE5 SHL DUP2 MSTORE PUSH1 0x4 ADD PUSH2 0x4AF SWAP1 PUSH2 0x1623 JUMP JUMPDEST PUSH1 0x40 MLOAD DUP1 SWAP2 SUB SWAP1 REVERT JUMPDEST PUSH0 DUP1 SLOAD PUSH1 0x40 MLOAD PUSH1 0x1 PUSH1 0x1 PUSH1 0xA0 SHL SUB SWAP1 SWAP2 AND SWAP1 PUSH32 0x8BE0079C531659141344CD1FD0A4F28419497F9722A3DAAFE3B4186F6B6457E0 SWAP1 DUP4 SWAP1 LOG3 PUSH0 DUP1 SLOAD PUSH1 0x1 PUSH1 0x1 PUSH1 0xA0 SHL SUB NOT AND SWAP1 SSTORE JUMP JUMPDEST PUSH0 SLOAD PUSH1 0x1 PUSH1 0x1 PUSH1 0xA0 SHL SUB AND CALLER EQ PUSH2 0x529 JUMPI PUSH1 0x40 MLOAD PUSH3 0x461BCD PUSH1 0xE5 SHL DUP2 MSTORE PUSH1 0x4 ADD PUSH2 0x4AF SWAP1 PUSH2 0x1623 JUMP JUMPDEST PUSH2 0x535 PUSH1 0x9 PUSH1 0xA PUSH2 0x15FE JUMP JUMPDEST PUSH2 0x543 SWAP1 PUSH4 0xBEBC200 PUSH2 0x160C JUMP JUMPDEST PUSH1 0xF SSTORE PUSH2 0x552 PUSH1 0x9 PUSH1 0xA PUSH2 0x15FE JUMP JUMPDEST PUSH2 0x560 SWAP1 PUSH4 0xBEBC200 PUSH2 0x160C JUMP JUMPDEST PUSH1 0x10 SSTORE PUSH1 0x6 DUP1 SLOAD PUSH1 0xFF NOT AND SWAP1 SSTORE PUSH32 0x947F344D56E1E8C70DC492FB94C4DDDDD490C016AAB685F5E7E47B2E85CB44CF PUSH2 0x59A PUSH1 0x9 PUSH1 0xA PUSH2 0x15FE JUMP JUMPDEST PUSH2 0x5A8 SWAP1 PUSH4 0xBEBC200 PUSH2 0x160C JUMP JUMPDEST PUSH1 0x40 MLOAD SWAP1 DUP2 MSTORE PUSH1 0x20 ADD PUSH1 0x40 MLOAD DUP1 SWAP2 SUB SWAP1 LOG1 JUMP JUMPDEST PUSH0 PUSH2 0x39F CALLER DUP5 DUP5 PUSH2 0xA93 JUMP JUMPDEST PUSH0 SLOAD PUSH1 0x1 PUSH1 0x1 PUSH1 0xA0 SHL SUB AND CALLER EQ PUSH2 0x5F0 JUMPI PUSH1 0x40 MLOAD PUSH3 0x461BCD PUSH1 0xE5 SHL DUP2 MSTORE PUSH1 0x4 ADD PUSH2 0x4AF SWAP1 PUSH2 0x1623 JUMP JUMPDEST PUSH1 0x14 SLOAD PUSH1 0x1 PUSH1 0xA0 SHL SWAP1 DIV PUSH1 0xFF AND ISZERO PUSH2 0x64A JUMPI PUSH1 0x40 MLOAD PUSH3 0x461BCD PUSH1 0xE5 SHL DUP2 MSTORE PUSH1 0x20 PUSH1 0x4 DUP3 ADD MSTORE PUSH1 0x17 PUSH1 0x24 DUP3 ADD MSTORE PUSH32 0x74726164696E6720697320616C7265616479206F70656E000000000000000000 PUSH1 0x44 DUP3 ADD MSTORE PUSH1 0x64 ADD PUSH2 0x4AF JUMP JUMPDEST PUSH1 0x13 DUP1 SLOAD PUSH1 0x1 PUSH1 0x1 PUSH1 0xA0 SHL SUB NOT AND PUSH20 0x7A250D5630B4CF539739DF2C5DACB4C659F2488D SWAP1 DUP2 OR SWAP1 SWAP2 SSTORE PUSH2 0x693 SWAP1 ADDRESS SWAP1 PUSH2 0x685 PUSH1 0x9 PUSH1 0xA PUSH2 0x15FE JUMP JUMPDEST PUSH2 0x421 SWAP1 PUSH4 0xBEBC200 PUSH2 0x160C JUMP JUMPDEST PUSH1 0x13 PUSH0 SWAP1 SLOAD SWAP1 PUSH2 0x100 EXP SWAP1 DIV PUSH1 0x1 PUSH1 0x1 PUSH1 0xA0 SHL SUB AND PUSH1 0x1 PUSH1 0x1 PUSH1 0xA0 SHL SUB AND PUSH4 0xC45A0155 PUSH1 0x40 MLOAD DUP2 PUSH4 0xFFFFFFFF AND PUSH1 0xE0 SHL DUP2 MSTORE PUSH1 0x4 ADD PUSH1 0x20 PUSH1 0x40 MLOAD DUP1 DUP4 SUB DUP2 DUP7 GAS STATICCALL ISZERO DUP1 ISZERO PUSH2 0x6E3 JUMPI RETURNDATASIZE PUSH0 DUP1 RETURNDATACOPY RETURNDATASIZE PUSH0 REVERT JUMPDEST POP POP POP POP PUSH1 0x40 MLOAD RETURNDATASIZE PUSH1 0x1F NOT PUSH1 0x1F DUP3 ADD AND DUP3 ADD DUP1 PUSH1 0x40 MSTORE POP DUP2 ADD SWAP1 PUSH2 0x707 SWAP2 SWAP1 PUSH2 0x1658 JUMP JUMPDEST PUSH1 0x1 PUSH1 0x1 PUSH1 0xA0 SHL SUB AND PUSH4 0xC9C65396 ADDRESS PUSH1 0x13 PUSH0 SWAP1 SLOAD SWAP1 PUSH2 0x100 EXP SWAP1 DIV PUSH1 0x1 PUSH1 0x1 PUSH1 0xA0 SHL SUB AND PUSH1 0x1 PUSH1 0x1 PUSH1 0xA0 SHL SUB AND PUSH4 0xAD5C4648 PUSH1 0x40 MLOAD DUP2 PUSH4 0xFFFFFFFF AND PUSH1 0xE0 SHL DUP2 MSTORE PUSH1 0x4 ADD PUSH1 0x20 PUSH1 0x40 MLOAD DUP1 DUP4 SUB DUP2 DUP7 GAS STATICCALL ISZERO DUP1 ISZERO PUSH2 0x766 JUMPI RETURNDATASIZE PUSH0 DUP1 RETURNDATACOPY RETURNDATASIZE PUSH0 REVERT JUMPDEST POP POP POP POP PUSH1 0x40 MLOAD RETURNDATASIZE PUSH1 0x1F NOT PUSH1 0x1F DUP3 ADD AND DUP3 ADD DUP1 PUSH1 0x40 MSTORE POP DUP2 ADD SWAP1 PUSH2 0x78A SWAP2 SWAP1 PUSH2 0x1658 JUMP JUMPDEST PUSH1 0x40 MLOAD PUSH1 0x1 PUSH1 0x1 PUSH1 0xE0 SHL SUB NOT PUSH1 0xE0 DUP6 SWAP1 SHL AND DUP2 MSTORE PUSH1 0x1 PUSH1 0x1 PUSH1 0xA0 SHL SUB SWAP3 DUP4 AND PUSH1 0x4 DUP3 ADD MSTORE SWAP2 AND PUSH1 0x24 DUP3 ADD MSTORE PUSH1 0x44 ADD PUSH1 0x20 PUSH1 0x40 MLOAD DUP1 DUP4 SUB DUP2 PUSH0 DUP8 GAS CALL ISZERO DUP1 ISZERO PUSH2 0x7D4 JUMPI RETURNDATASIZE PUSH0 DUP1 RETURNDATACOPY RETURNDATASIZE PUSH0 REVERT JUMPDEST POP POP POP POP PUSH1 0x40 MLOAD RETURNDATASIZE PUSH1 0x1F NOT PUSH1 0x1F DUP3 ADD AND DUP3 ADD DUP1 PUSH1 0x40 MSTORE POP DUP2 ADD SWAP1 PUSH2 0x7F8 SWAP2 SWAP1 PUSH2 0x1658 JUMP JUMPDEST PUSH1 0x14 DUP1 SLOAD PUSH1 0x1 PUSH1 0x1 PUSH1 0xA0 SHL SUB SWAP3 DUP4 AND PUSH1 0x1 PUSH1 0x1 PUSH1 0xA0 SHL SUB NOT SWAP1 SWAP2 AND OR SWAP1 SSTORE PUSH1 0x13 SLOAD AND PUSH4 0xF305D719 SELFBALANCE ADDRESS PUSH2 0x83F DUP2 PUSH1 0x1 PUSH1 0x1 PUSH1 0xA0 SHL SUB AND PUSH0 SWAP1 DUP2 MSTORE PUSH1 0x1 PUSH1 0x20 MSTORE PUSH1 0x40 SWAP1 KECCAK256 SLOAD SWAP1 JUMP JUMPDEST PUSH0 DUP1 PUSH2 0x852 PUSH0 SLOAD PUSH1 0x1 PUSH1 0x1 PUSH1 0xA0 SHL SUB AND SWAP1 JUMP JUMPDEST PUSH1 0x40 MLOAD PUSH1 0xE0 DUP9 SWAP1 SHL PUSH1 0x1 PUSH1 0x1 PUSH1 0xE0 SHL SUB NOT AND DUP2 MSTORE PUSH1 0x1 PUSH1 0x1 PUSH1 0xA0 SHL SUB SWAP6 DUP7 AND PUSH1 0x4 DUP3 ADD MSTORE PUSH1 0x24 DUP2 ADD SWAP5 SWAP1 SWAP5 MSTORE PUSH1 0x44 DUP5 ADD SWAP3 SWAP1 SWAP3 MSTORE PUSH1 0x64 DUP4 ADD MSTORE SWAP1 SWAP2 AND PUSH1 0x84 DUP3 ADD MSTORE TIMESTAMP PUSH1 0xA4 DUP3 ADD MSTORE PUSH1 0xC4 ADD PUSH1 0x60 PUSH1 0x40 MLOAD DUP1 DUP4 SUB DUP2 DUP6 DUP9 GAS CALL ISZERO DUP1 ISZERO PUSH2 0x8B8 JUMPI RETURNDATASIZE PUSH0 DUP1 RETURNDATACOPY RETURNDATASIZE PUSH0 REVERT JUMPDEST POP POP POP POP POP PUSH1 0x40 MLOAD RETURNDATASIZE PUSH1 0x1F NOT PUSH1 0x1F DUP3 ADD AND DUP3 ADD DUP1 PUSH1 0x40 MSTORE POP DUP2 ADD SWAP1 PUSH2 0x8DD SWAP2 SWAP1 PUSH2 0x1673 JUMP JUMPDEST POP POP PUSH1 0x14 SLOAD PUSH1 0x13 SLOAD PUSH1 0x40 MLOAD PUSH4 0x95EA7B3 PUSH1 0xE0 SHL DUP2 MSTORE PUSH1 0x1 PUSH1 0x1 PUSH1 0xA0 SHL SUB SWAP2 DUP3 AND PUSH1 0x4 DUP3 ADD MSTORE PUSH0 NOT PUSH1 0x24 DUP3 ADD MSTORE SWAP2 AND SWAP2 POP PUSH4 0x95EA7B3 SWAP1 PUSH1 0x44 ADD PUSH1 0x20 PUSH1 0x40 MLOAD DUP1 DUP4 SUB DUP2 PUSH0 DUP8 GAS CALL ISZERO DUP1 ISZERO PUSH2 0x932 JUMPI RETURNDATASIZE PUSH0 DUP1 RETURNDATACOPY RETURNDATASIZE PUSH0 REVERT JUMPDEST POP POP POP POP PUSH1 0x40 MLOAD RETURNDATASIZE PUSH1 0x1F NOT PUSH1 0x1F DUP3 ADD AND DUP3 ADD DUP1 PUSH1 0x40 MSTORE POP DUP2 ADD SWAP1 PUSH2 0x956 SWAP2 SWAP1 PUSH2 0x169E JUMP JUMPDEST POP PUSH1 0x14 DUP1 SLOAD PUSH3 0xFF00FF PUSH1 0xA0 SHL NOT AND PUSH3 0x10001 PUSH1 0xA0 SHL OR SWAP1 SSTORE JUMP JUMPDEST PUSH1 0x1 PUSH1 0x1 PUSH1 0xA0 SHL SUB DUP4 AND PUSH2 0x9D2 JUMPI PUSH1 0x40 MLOAD PUSH3 0x461BCD PUSH1 0xE5 SHL DUP2 MSTORE PUSH1 0x20 PUSH1 0x4 DUP3 ADD MSTORE PUSH1 0x24 DUP1 DUP3 ADD MSTORE PUSH32 0x45524332303A20617070726F76652066726F6D20746865207A65726F20616464 PUSH1 0x44 DUP3 ADD MSTORE PUSH4 0x72657373 PUSH1 0xE0 SHL PUSH1 0x64 DUP3 ADD MSTORE PUSH1 0x84 ADD PUSH2 0x4AF JUMP JUMPDEST PUSH1 0x1 PUSH1 0x1 PUSH1 0xA0 SHL SUB DUP3 AND PUSH2 0xA33 JUMPI PUSH1 0x40 MLOAD PUSH3 0x461BCD PUSH1 0xE5 SHL DUP2 MSTORE PUSH1 0x20 PUSH1 0x4 DUP3 ADD MSTORE PUSH1 0x22 PUSH1 0x24 DUP3 ADD MSTORE PUSH32 0x45524332303A20617070726F766520746F20746865207A65726F206164647265 PUSH1 0x44 DUP3 ADD MSTORE PUSH2 0x7373 PUSH1 0xF0 SHL PUSH1 0x64 DUP3 ADD MSTORE PUSH1 0x84 ADD PUSH2 0x4AF JUMP JUMPDEST PUSH1 0x1 PUSH1 0x1 PUSH1 0xA0 SHL SUB DUP4 DUP2 AND PUSH0 DUP2 DUP2 MSTORE PUSH1 0x2 PUSH1 0x20 SWAP1 DUP2 MSTORE PUSH1 0x40 DUP1 DUP4 KECCAK256 SWAP5 DUP8 AND DUP1 DUP5 MSTORE SWAP5 DUP3 MSTORE SWAP2 DUP3 SWAP1 KECCAK256 DUP6 SWAP1 SSTORE SWAP1 MLOAD DUP5 DUP2 MSTORE PUSH32 0x8C5BE1E5EBEC7D5BD14F71427D1E84F3DD0314C0F7B2291E5B200AC8C7C3B925 SWAP2 ADD PUSH1 0x40 MLOAD DUP1 SWAP2 SUB SWAP1 LOG3 POP POP POP JUMP JUMPDEST PUSH1 0x1 PUSH1 0x1 PUSH1 0xA0 SHL SUB DUP4 AND PUSH2 0xAF7 JUMPI PUSH1 0x40 MLOAD PUSH3 0x461BCD PUSH1 0xE5 SHL DUP2 MSTORE PUSH1 0x20 PUSH1 0x4 DUP3 ADD MSTORE PUSH1 0x25 PUSH1 0x24 DUP3 ADD MSTORE PUSH32 0x45524332303A207472616E736665722066726F6D20746865207A65726F206164 PUSH1 0x44 DUP3 ADD MSTORE PUSH5 0x6472657373 PUSH1 0xD8 SHL PUSH1 0x64 DUP3 ADD MSTORE PUSH1 0x84 ADD PUSH2 0x4AF JUMP JUMPDEST PUSH1 0x1 PUSH1 0x1 PUSH1 0xA0 SHL SUB DUP3 AND PUSH2 0xB59 JUMPI PUSH1 0x40 MLOAD PUSH3 0x461BCD PUSH1 0xE5 SHL DUP2 MSTORE PUSH1 0x20 PUSH1 0x4 DUP3 ADD MSTORE PUSH1 0x23 PUSH1 0x24 DUP3 ADD MSTORE PUSH32 0x45524332303A207472616E7366657220746F20746865207A65726F2061646472 PUSH1 0x44 DUP3 ADD MSTORE PUSH3 0x657373 PUSH1 0xE8 SHL PUSH1 0x64 DUP3 ADD MSTORE PUSH1 0x84 ADD PUSH2 0x4AF JUMP JUMPDEST PUSH0 DUP2 GT PUSH2 0xBBA JUMPI PUSH1 0x40 MLOAD PUSH3 0x461BCD PUSH1 0xE5 SHL DUP2 MSTORE PUSH1 0x20 PUSH1 0x4 DUP3 ADD MSTORE PUSH1 0x29 PUSH1 0x24 DUP3 ADD MSTORE PUSH32 0x5472616E7366657220616D6F756E74206D757374206265206772656174657220 PUSH1 0x44 DUP3 ADD MSTORE PUSH9 0x7468616E207A65726F PUSH1 0xB8 SHL PUSH1 0x64 DUP3 ADD MSTORE PUSH1 0x84 ADD PUSH2 0x4AF JUMP JUMPDEST PUSH0 DUP1 SLOAD PUSH1 0x1 PUSH1 0x1 PUSH1 0xA0 SHL SUB DUP6 DUP2 AND SWAP2 AND EQ DUP1 ISZERO SWAP1 PUSH2 0xBE5 JUMPI POP PUSH0 SLOAD PUSH1 0x1 PUSH1 0x1 PUSH1 0xA0 SHL SUB DUP5 DUP2 AND SWAP2 AND EQ ISZERO JUMPDEST ISZERO PUSH2 0xF29 JUMPI PUSH2 0xC16 PUSH1 0x64 PUSH2 0xC10 PUSH1 0xB SLOAD PUSH1 0xE SLOAD GT PUSH2 0xC05 JUMPI PUSH1 0x7 SLOAD PUSH2 0xC09 JUMP JUMPDEST PUSH1 0x9 SLOAD JUMPDEST DUP6 SWAP1 PUSH2 0x1249 JUMP JUMPDEST SWAP1 PUSH2 0x12CE JUMP JUMPDEST PUSH1 0x6 SLOAD SWAP1 SWAP2 POP PUSH1 0xFF AND ISZERO PUSH2 0xCFB JUMPI PUSH1 0x13 SLOAD PUSH1 0x1 PUSH1 0x1 PUSH1 0xA0 SHL SUB DUP5 DUP2 AND SWAP2 AND EQ DUP1 ISZERO SWAP1 PUSH2 0xC50 JUMPI POP PUSH1 0x14 SLOAD PUSH1 0x1 PUSH1 0x1 PUSH1 0xA0 SHL SUB DUP5 DUP2 AND SWAP2 AND EQ ISZERO JUMPDEST ISZERO PUSH2 0xCFB JUMPI ORIGIN PUSH0 SWAP1 DUP2 MSTORE PUSH1 0x5 PUSH1 0x20 MSTORE PUSH1 0x40 SWAP1 KECCAK256 SLOAD NUMBER GT PUSH2 0xCE9 JUMPI PUSH1 0x40 MLOAD PUSH3 0x461BCD PUSH1 0xE5 SHL DUP2 MSTORE PUSH1 0x20 PUSH1 0x4 DUP3 ADD MSTORE PUSH1 0x48 PUSH1 0x24 DUP3 ADD MSTORE PUSH32 0x5F7472616E736665723A3A205472616E736665722044656C617920656E61626C PUSH1 0x44 DUP3 ADD MSTORE PUSH32 0x65642E204F6E6C79206F6E652070757263686173652070657220626C6F636B20 PUSH1 0x64 DUP3 ADD MSTORE PUSH8 0x30B63637BBB2B217 PUSH1 0xC1 SHL PUSH1 0x84 DUP3 ADD MSTORE PUSH1 0xA4 ADD PUSH2 0x4AF JUMP JUMPDEST ORIGIN PUSH0 SWAP1 DUP2 MSTORE PUSH1 0x5 PUSH1 0x20 MSTORE PUSH1 0x40 SWAP1 KECCAK256 NUMBER SWAP1 SSTORE JUMPDEST PUSH1 0x14 SLOAD PUSH1 0x1 PUSH1 0x1 PUSH1 0xA0 SHL SUB DUP6 DUP2 AND SWAP2 AND EQ DUP1 ISZERO PUSH2 0xD26 JUMPI POP PUSH1 0x13 SLOAD PUSH1 0x1 PUSH1 0x1 PUSH1 0xA0 SHL SUB DUP5 DUP2 AND SWAP2 AND EQ ISZERO JUMPDEST DUP1 ISZERO PUSH2 0xD4A JUMPI POP PUSH1 0x1 PUSH1 0x1 PUSH1 0xA0 SHL SUB DUP4 AND PUSH0 SWAP1 DUP2 MSTORE PUSH1 0x3 PUSH1 0x20 MSTORE PUSH1 0x40 SWAP1 KECCAK256 SLOAD PUSH1 0xFF AND ISZERO JUMPDEST ISZERO PUSH2 0xE30 JUMPI PUSH1 0xF SLOAD DUP3 GT ISZERO PUSH2 0xDA1 JUMPI PUSH1 0x40 MLOAD PUSH3 0x461BCD PUSH1 0xE5 SHL DUP2 MSTORE PUSH1 0x20 PUSH1 0x4 DUP3 ADD MSTORE PUSH1 0x19 PUSH1 0x24 DUP3 ADD MSTORE PUSH32 0x4578636565647320746865205F6D61785478416D6F756E742E00000000000000 PUSH1 0x44 DUP3 ADD MSTORE PUSH1 0x64 ADD PUSH2 0x4AF JUMP JUMPDEST PUSH1 0x10 SLOAD DUP3 PUSH2 0xDC3 DUP6 PUSH1 0x1 PUSH1 0x1 PUSH1 0xA0 SHL SUB AND PUSH0 SWAP1 DUP2 MSTORE PUSH1 0x1 PUSH1 0x20 MSTORE PUSH1 0x40 SWAP1 KECCAK256 SLOAD SWAP1 JUMP JUMPDEST PUSH2 0xDCD SWAP2 SWAP1 PUSH2 0x16BD JUMP JUMPDEST GT ISZERO PUSH2 0xE1B JUMPI PUSH1 0x40 MLOAD PUSH3 0x461BCD PUSH1 0xE5 SHL DUP2 MSTORE PUSH1 0x20 PUSH1 0x4 DUP3 ADD MSTORE PUSH1 0x1A PUSH1 0x24 DUP3 ADD MSTORE PUSH32 0x4578636565647320746865206D617857616C6C657453697A652E000000000000 PUSH1 0x44 DUP3 ADD MSTORE PUSH1 0x64 ADD PUSH2 0x4AF JUMP JUMPDEST PUSH1 0xE DUP1 SLOAD SWAP1 PUSH0 PUSH2 0xE2A DUP4 PUSH2 0x16D0 JUMP JUMPDEST SWAP2 SWAP1 POP SSTORE POP JUMPDEST PUSH1 0x14 SLOAD PUSH1 0x1 PUSH1 0x1 PUSH1 0xA0 SHL SUB DUP5 DUP2 AND SWAP2 AND EQ DUP1 ISZERO PUSH2 0xE56 JUMPI POP PUSH1 0x1 PUSH1 0x1 PUSH1 0xA0 SHL SUB DUP5 AND ADDRESS EQ ISZERO JUMPDEST ISZERO PUSH2 0xE83 JUMPI PUSH2 0xE80 PUSH1 0x64 PUSH2 0xC10 PUSH1 0xC SLOAD PUSH1 0xE SLOAD GT PUSH2 0xE76 JUMPI PUSH1 0x8 SLOAD PUSH2 0xC09 JUMP JUMPDEST PUSH1 0xA SLOAD DUP6 SWAP1 PUSH2 0x1249 JUMP JUMPDEST SWAP1 POP JUMPDEST ADDRESS PUSH0 SWAP1 DUP2 MSTORE PUSH1 0x1 PUSH1 0x20 MSTORE PUSH1 0x40 SWAP1 KECCAK256 SLOAD PUSH1 0x14 SLOAD PUSH1 0x1 PUSH1 0xA8 SHL SWAP1 DIV PUSH1 0xFF AND ISZERO DUP1 ISZERO PUSH2 0xEB9 JUMPI POP PUSH1 0x14 SLOAD PUSH1 0x1 PUSH1 0x1 PUSH1 0xA0 SHL SUB DUP6 DUP2 AND SWAP2 AND EQ JUMPDEST DUP1 ISZERO PUSH2 0xECE JUMPI POP PUSH1 0x14 SLOAD PUSH1 0x1 PUSH1 0xB0 SHL SWAP1 DIV PUSH1 0xFF AND JUMPDEST DUP1 ISZERO PUSH2 0xEDB JUMPI POP PUSH1 0x11 SLOAD DUP2 GT JUMPDEST DUP1 ISZERO PUSH2 0xEEA JUMPI POP PUSH1 0xD SLOAD PUSH1 0xE SLOAD GT JUMPDEST ISZERO PUSH2 0xF27 JUMPI PUSH2 0xF0C PUSH2 0xF07 DUP5 PUSH2 0xF02 DUP5 PUSH1 0x12 SLOAD PUSH2 0x130F JUMP JUMPDEST PUSH2 0x130F JUMP JUMPDEST PUSH2 0x109E JUMP JUMPDEST SELFBALANCE PUSH7 0xB1A2BC2EC50000 DUP2 GT ISZERO PUSH2 0xF25 JUMPI PUSH2 0xF25 SELFBALANCE PUSH2 0x120E JUMP JUMPDEST POP JUMPDEST POP JUMPDEST DUP1 ISZERO PUSH2 0xFA1 JUMPI ADDRESS PUSH0 SWAP1 DUP2 MSTORE PUSH1 0x1 PUSH1 0x20 MSTORE PUSH1 0x40 SWAP1 KECCAK256 SLOAD PUSH2 0xF48 SWAP1 DUP3 PUSH2 0x1323 JUMP JUMPDEST ADDRESS PUSH0 DUP2 DUP2 MSTORE PUSH1 0x1 PUSH1 0x20 MSTORE PUSH1 0x40 SWAP1 DUP2 SWAP1 KECCAK256 SWAP3 SWAP1 SWAP3 SSTORE SWAP1 MLOAD PUSH1 0x1 PUSH1 0x1 PUSH1 0xA0 SHL SUB DUP7 AND SWAP1 PUSH32 0xDDF252AD1BE2C89B69C2B068FC378DAA952BA7F163C4A11628F55A4DF523B3EF SWAP1 PUSH2 0xF98 SWAP1 DUP6 DUP2 MSTORE PUSH1 0x20 ADD SWAP1 JUMP JUMPDEST PUSH1 0x40 MLOAD DUP1 SWAP2 SUB SWAP1 LOG3 JUMPDEST PUSH1 0x1 PUSH1 0x1 PUSH1 0xA0 SHL SUB DUP5 AND PUSH0 SWAP1 DUP2 MSTORE PUSH1 0x1 PUSH1 0x20 MSTORE PUSH1 0x40 SWAP1 KECCAK256 SLOAD PUSH2 0xFC3 SWAP1 DUP4 PUSH2 0x1381 JUMP JUMPDEST PUSH1 0x1 PUSH1 0x1 PUSH1 0xA0 SHL SUB DUP6 AND PUSH0 SWAP1 DUP2 MSTORE PUSH1 0x1 PUSH1 0x20 MSTORE PUSH1 0x40 SWAP1 KECCAK256 SSTORE PUSH2 0x1006 PUSH2 0xFE8 DUP4 DUP4 PUSH2 0x1381 JUMP JUMPDEST PUSH1 0x1 PUSH1 0x1 PUSH1 0xA0 SHL SUB DUP6 AND PUSH0 SWAP1 DUP2 MSTORE PUSH1 0x1 PUSH1 0x20 MSTORE PUSH1 0x40 SWAP1 KECCAK256 SLOAD SWAP1 PUSH2 0x1323 JUMP JUMPDEST PUSH1 0x1 PUSH1 0x1 PUSH1 0xA0 SHL SUB DUP1 DUP6 AND PUSH0 DUP2 DUP2 MSTORE PUSH1 0x1 PUSH1 0x20 MSTORE PUSH1 0x40 SWAP1 KECCAK256 SWAP3 SWAP1 SWAP3 SSTORE DUP6 AND PUSH32 0xDDF252AD1BE2C89B69C2B068FC378DAA952BA7F163C4A11628F55A4DF523B3EF PUSH2 0x104F DUP6 DUP6 PUSH2 0x1381 JUMP JUMPDEST PUSH1 0x40 MLOAD SWAP1 DUP2 MSTORE PUSH1 0x20 ADD PUSH1 0x40 MLOAD DUP1 SWAP2 SUB SWAP1 LOG3 POP POP POP POP JUMP JUMPDEST PUSH0 DUP2 DUP5 DUP5 GT ISZERO PUSH2 0x1089 JUMPI PUSH1 0x40 MLOAD PUSH3 0x461BCD PUSH1 0xE5 SHL DUP2 MSTORE PUSH1 0x4 ADD PUSH2 0x4AF SWAP2 SWAP1 PUSH2 0x13EE JUMP JUMPDEST POP PUSH0 PUSH2 0x1095 DUP5 DUP7 PUSH2 0x16E8 JUMP JUMPDEST SWAP6 SWAP5 POP POP POP POP POP JUMP JUMPDEST PUSH1 0x14 DUP1 SLOAD PUSH1 0xFF PUSH1 0xA8 SHL NOT AND PUSH1 0x1 PUSH1 0xA8 SHL OR SWAP1 SSTORE PUSH1 0x40 DUP1 MLOAD PUSH1 0x2 DUP1 DUP3 MSTORE PUSH1 0x60 DUP3 ADD DUP4 MSTORE PUSH0 SWAP3 PUSH1 0x20 DUP4 ADD SWAP1 DUP1 CALLDATASIZE DUP4 CALLDATACOPY ADD SWAP1 POP POP SWAP1 POP ADDRESS DUP2 PUSH0 DUP2 MLOAD DUP2 LT PUSH2 0x10E4 JUMPI PUSH2 0x10E4 PUSH2 0x16FB JUMP JUMPDEST PUSH1 0x1 PUSH1 0x1 PUSH1 0xA0 SHL SUB SWAP3 DUP4 AND PUSH1 0x20 SWAP2 DUP3 MUL SWAP3 SWAP1 SWAP3 ADD DUP2 ADD SWAP2 SWAP1 SWAP2 MSTORE PUSH1 0x13 SLOAD PUSH1 0x40 DUP1 MLOAD PUSH4 0x15AB88C9 PUSH1 0xE3 SHL DUP2 MSTORE SWAP1 MLOAD SWAP2 SWAP1 SWAP4 AND SWAP3 PUSH4 0xAD5C4648 SWAP3 PUSH1 0x4 DUP1 DUP4 ADD SWAP4 SWAP2 SWAP3 DUP3 SWAP1 SUB ADD DUP2 DUP7 GAS STATICCALL ISZERO DUP1 ISZERO PUSH2 0x113B JUMPI RETURNDATASIZE PUSH0 DUP1 RETURNDATACOPY RETURNDATASIZE PUSH0 REVERT JUMPDEST POP POP POP POP PUSH1 0x40 MLOAD RETURNDATASIZE PUSH1 0x1F NOT PUSH1 0x1F DUP3 ADD AND DUP3 ADD DUP1 PUSH1 0x40 MSTORE POP DUP2 ADD SWAP1 PUSH2 0x115F SWAP2 SWAP1 PUSH2 0x1658 JUMP JUMPDEST DUP2 PUSH1 0x1 DUP2 MLOAD DUP2 LT PUSH2 0x1172 JUMPI PUSH2 0x1172 PUSH2 0x16FB JUMP JUMPDEST PUSH1 0x1 PUSH1 0x1 PUSH1 0xA0 SHL SUB SWAP3 DUP4 AND PUSH1 0x20 SWAP2 DUP3 MUL SWAP3 SWAP1 SWAP3 ADD ADD MSTORE PUSH1 0x13 SLOAD PUSH2 0x1198 SWAP2 ADDRESS SWAP2 AND DUP5 PUSH2 0x970 JUMP JUMPDEST PUSH1 0x13 SLOAD PUSH1 0x40 MLOAD PUSH4 0x791AC947 PUSH1 0xE0 SHL DUP2 MSTORE PUSH1 0x1 PUSH1 0x1 PUSH1 0xA0 SHL SUB SWAP1 SWAP2 AND SWAP1 PUSH4 0x791AC947 SWAP1 PUSH2 0x11D0 SWAP1 DUP6 SWAP1 PUSH0 SWAP1 DUP7 SWAP1 ADDRESS SWAP1 TIMESTAMP SWAP1 PUSH1 0x4 ADD PUSH2 0x170F JUMP JUMPDEST PUSH0 PUSH1 0x40 MLOAD DUP1 DUP4 SUB DUP2 PUSH0 DUP8 DUP1 EXTCODESIZE ISZERO DUP1 ISZERO PUSH2 0x11E7 JUMPI PUSH0 DUP1 REVERT JUMPDEST POP GAS CALL ISZERO DUP1 ISZERO PUSH2 0x11F9 JUMPI RETURNDATASIZE PUSH0 DUP1 RETURNDATACOPY RETURNDATASIZE PUSH0 REVERT JUMPDEST POP POP PUSH1 0x14 DUP1 SLOAD PUSH1 0xFF PUSH1 0xA8 SHL NOT AND SWAP1 SSTORE POP POP POP POP JUMP JUMPDEST PUSH1 0x6 SLOAD PUSH1 0x40 MLOAD PUSH2 0x100 SWAP1 SWAP2 DIV PUSH1 0x1 PUSH1 0x1 PUSH1 0xA0 SHL SUB AND SWAP1 PUSH2 0x8FC DUP4 ISZERO MUL SWAP1 DUP4 SWAP1 PUSH0 DUP2 DUP2 DUP2 DUP6 DUP9 DUP9 CALL SWAP4 POP POP POP POP ISZERO DUP1 ISZERO PUSH2 0x482 JUMPI RETURNDATASIZE PUSH0 DUP1 RETURNDATACOPY RETURNDATASIZE PUSH0 REVERT JUMPDEST PUSH0 DUP3 PUSH0 SUB PUSH2 0x1258 JUMPI POP PUSH0 PUSH2 0x3A3 JUMP JUMPDEST PUSH0 PUSH2 0x1263 DUP4 DUP6 PUSH2 0x160C JUMP JUMPDEST SWAP1 POP DUP3 PUSH2 0x1270 DUP6 DUP4 PUSH2 0x177E JUMP JUMPDEST EQ PUSH2 0x12C7 JUMPI PUSH1 0x40 MLOAD PUSH3 0x461BCD PUSH1 0xE5 SHL DUP2 MSTORE PUSH1 0x20 PUSH1 0x4 DUP3 ADD MSTORE PUSH1 0x21 PUSH1 0x24 DUP3 ADD MSTORE PUSH32 0x536166654D6174683A206D756C7469706C69636174696F6E206F766572666C6F PUSH1 0x44 DUP3 ADD MSTORE PUSH1 0x77 PUSH1 0xF8 SHL PUSH1 0x64 DUP3 ADD MSTORE PUSH1 0x84 ADD PUSH2 0x4AF JUMP JUMPDEST SWAP4 SWAP3 POP POP POP JUMP JUMPDEST PUSH0 PUSH2 0x12C7 DUP4 DUP4 PUSH1 0x40 MLOAD DUP1 PUSH1 0x40 ADD PUSH1 0x40 MSTORE DUP1 PUSH1 0x1A DUP2 MSTORE PUSH1 0x20 ADD PUSH32 0x536166654D6174683A206469766973696F6E206279207A65726F000000000000 DUP2 MSTORE POP PUSH2 0x13C2 JUMP JUMPDEST PUSH0 DUP2 DUP4 GT PUSH2 0x131D JUMPI DUP3 PUSH2 0x12C7 JUMP JUMPDEST POP SWAP2 SWAP1 POP JUMP JUMPDEST PUSH0 DUP1 PUSH2 0x132F DUP4 DUP6 PUSH2 0x16BD JUMP JUMPDEST SWAP1 POP DUP4 DUP2 LT ISZERO PUSH2 0x12C7 JUMPI PUSH1 0x40 MLOAD PUSH3 0x461BCD PUSH1 0xE5 SHL DUP2 MSTORE PUSH1 0x20 PUSH1 0x4 DUP3 ADD MSTORE PUSH1 0x1B PUSH1 0x24 DUP3 ADD MSTORE PUSH32 0x536166654D6174683A206164646974696F6E206F766572666C6F770000000000 PUSH1 0x44 DUP3 ADD MSTORE PUSH1 0x64 ADD PUSH2 0x4AF JUMP JUMPDEST PUSH0 PUSH2 0x12C7 DUP4 DUP4 PUSH1 0x40 MLOAD DUP1 PUSH1 0x40 ADD PUSH1 0x40 MSTORE DUP1 PUSH1 0x1E DUP2 MSTORE PUSH1 0x20 ADD PUSH32 0x536166654D6174683A207375627472616374696F6E206F766572666C6F770000 DUP2 MSTORE POP PUSH2 0x1066 JUMP JUMPDEST PUSH0 DUP2 DUP4 PUSH2 0x13E2 JUMPI PUSH1 0x40 MLOAD PUSH3 0x461BCD PUSH1 0xE5 SHL DUP2 MSTORE PUSH1 0x4 ADD PUSH2 0x4AF SWAP2 SWAP1 PUSH2 0x13EE JUMP JUMPDEST POP PUSH0 PUSH2 0x1095 DUP5 DUP7 PUSH2 0x177E JUMP JUMPDEST PUSH0 PUSH1 0x20 DUP1 DUP4 MSTORE DUP4 MLOAD DUP1 DUP3 DUP6 ADD MSTORE PUSH0 JUMPDEST DUP2 DUP2 LT ISZERO PUSH2 0x1419 JUMPI DUP6 DUP2 ADD DUP4 ADD MLOAD DUP6 DUP3 ADD PUSH1 0x40 ADD MSTORE DUP3 ADD PUSH2 0x13FD JUMP JUMPDEST POP PUSH0 PUSH1 0x40 DUP3 DUP7 ADD ADD MSTORE PUSH1 0x40 PUSH1 0x1F NOT PUSH1 0x1F DUP4 ADD AND DUP6 ADD ADD SWAP3 POP POP POP SWAP3 SWAP2 POP POP JUMP JUMPDEST PUSH1 0x1 PUSH1 0x1 PUSH1 0xA0 SHL SUB DUP2 AND DUP2 EQ PUSH2 0x144D JUMPI PUSH0 DUP1 REVERT JUMPDEST POP JUMP JUMPDEST PUSH0 DUP1 PUSH1 0x40 DUP4 DUP6 SUB SLT ISZERO PUSH2 0x1461 JUMPI PUSH0 DUP1 REVERT JUMPDEST DUP3 CALLDATALOAD PUSH2 0x146C DUP2 PUSH2 0x1439 JUMP JUMPDEST SWAP5 PUSH1 0x20 SWAP4 SWAP1 SWAP4 ADD CALLDATALOAD SWAP4 POP POP POP JUMP JUMPDEST PUSH0 DUP1 PUSH0 PUSH1 0x60 DUP5 DUP7 SUB SLT ISZERO PUSH2 0x148C JUMPI PUSH0 DUP1 REVERT JUMPDEST DUP4 CALLDATALOAD PUSH2 0x1497 DUP2 PUSH2 0x1439 JUMP JUMPDEST SWAP3 POP PUSH1 0x20 DUP5 ADD CALLDATALOAD PUSH2 0x14A7 DUP2 PUSH2 0x1439 JUMP JUMPDEST SWAP3 SWAP6 SWAP3 SWAP5 POP POP POP PUSH1 0x40 SWAP2 SWAP1 SWAP2 ADD CALLDATALOAD SWAP1 JUMP JUMPDEST PUSH0 PUSH1 0x20 DUP3 DUP5 SUB SLT ISZERO PUSH2 0x14C8 JUMPI PUSH0 DUP1 REVERT JUMPDEST DUP2 CALLDATALOAD PUSH2 0x12C7 DUP2 PUSH2 0x1439 JUMP JUMPDEST PUSH0 DUP1 PUSH1 0x40 DUP4 DUP6 SUB SLT ISZERO PUSH2 0x14E4 JUMPI PUSH0 DUP1 REVERT JUMPDEST DUP3 CALLDATALOAD PUSH2 0x14EF DUP2 PUSH2 0x1439 JUMP JUMPDEST SWAP2 POP PUSH1 0x20 DUP4 ADD CALLDATALOAD PUSH2 0x14FF DUP2 PUSH2 0x1439 JUMP JUMPDEST DUP1 SWAP2 POP POP SWAP3 POP SWAP3 SWAP1 POP JUMP JUMPDEST PUSH4 0x4E487B71 PUSH1 0xE0 SHL PUSH0 MSTORE PUSH1 0x11 PUSH1 0x4 MSTORE PUSH1 0x24 PUSH0 REVERT JUMPDEST PUSH1 0x1 DUP2 DUP2 JUMPDEST DUP1 DUP6 GT ISZERO PUSH2 0x1558 JUMPI DUP2 PUSH0 NOT DIV DUP3 GT ISZERO PUSH2 0x153E JUMPI PUSH2 0x153E PUSH2 0x150A JUMP JUMPDEST DUP1 DUP6 AND ISZERO PUSH2 0x154B JUMPI SWAP2 DUP2 MUL SWAP2 JUMPDEST SWAP4 DUP5 SHR SWAP4 SWAP1 DUP1 MUL SWAP1 PUSH2 0x1523 JUMP JUMPDEST POP SWAP3 POP SWAP3 SWAP1 POP JUMP JUMPDEST PUSH0 DUP3 PUSH2 0x156E JUMPI POP PUSH1 0x1 PUSH2 0x3A3 JUMP JUMPDEST DUP2 PUSH2 0x157A JUMPI POP PUSH0 PUSH2 0x3A3 JUMP JUMPDEST DUP2 PUSH1 0x1 DUP2 EQ PUSH2 0x1590 JUMPI PUSH1 0x2 DUP2 EQ PUSH2 0x159A JUMPI PUSH2 0x15B6 JUMP JUMPDEST PUSH1 0x1 SWAP2 POP POP PUSH2 0x3A3 JUMP JUMPDEST PUSH1 0xFF DUP5 GT ISZERO PUSH2 0x15AB JUMPI PUSH2 0x15AB PUSH2 0x150A JUMP JUMPDEST POP POP PUSH1 0x1 DUP3 SHL PUSH2 0x3A3 JUMP JUMPDEST POP PUSH1 0x20 DUP4 LT PUSH2 0x133 DUP4 LT AND PUSH1 0x4E DUP5 LT PUSH1 0xB DUP5 LT AND OR ISZERO PUSH2 0x15D9 JUMPI POP DUP2 DUP2 EXP PUSH2 0x3A3 JUMP JUMPDEST PUSH2 0x15E3 DUP4 DUP4 PUSH2 0x151E JUMP JUMPDEST DUP1 PUSH0 NOT DIV DUP3 GT ISZERO PUSH2 0x15F6 JUMPI PUSH2 0x15F6 PUSH2 0x150A JUMP JUMPDEST MUL SWAP4 SWAP3 POP POP POP JUMP JUMPDEST PUSH0 PUSH2 0x12C7 PUSH1 0xFF DUP5 AND DUP4 PUSH2 0x1560 JUMP JUMPDEST DUP1 DUP3 MUL DUP2 ISZERO DUP3 DUP3 DIV DUP5 EQ OR PUSH2 0x3A3 JUMPI PUSH2 0x3A3 PUSH2 0x150A JUMP JUMPDEST PUSH1 0x20 DUP1 DUP3 MSTORE DUP2 DUP2 ADD MSTORE PUSH32 0x4F776E61626C653A2063616C6C6572206973206E6F7420746865206F776E6572 PUSH1 0x40 DUP3 ADD MSTORE PUSH1 0x60 ADD SWAP1 JUMP JUMPDEST PUSH0 PUSH1 0x20 DUP3 DUP5 SUB SLT ISZERO PUSH2 0x1668 JUMPI PUSH0 DUP1 REVERT JUMPDEST DUP2 MLOAD PUSH2 0x12C7 DUP2 PUSH2 0x1439 JUMP JUMPDEST PUSH0 DUP1 PUSH0 PUSH1 0x60 DUP5 DUP7 SUB SLT ISZERO PUSH2 0x1685 JUMPI PUSH0 DUP1 REVERT JUMPDEST DUP4 MLOAD SWAP3 POP PUSH1 0x20 DUP5 ADD MLOAD SWAP2 POP PUSH1 0x40 DUP5 ADD MLOAD SWAP1 POP SWAP3 POP SWAP3 POP SWAP3 JUMP JUMPDEST PUSH0 PUSH1 0x20 DUP3 DUP5 SUB SLT ISZERO PUSH2 0x16AE JUMPI PUSH0 DUP1 REVERT JUMPDEST DUP2 MLOAD DUP1 ISZERO ISZERO DUP2 EQ PUSH2 0x12C7 JUMPI PUSH0 DUP1 REVERT JUMPDEST DUP1 DUP3 ADD DUP1 DUP3 GT ISZERO PUSH2 0x3A3 JUMPI PUSH2 0x3A3 PUSH2 0x150A JUMP JUMPDEST PUSH0 PUSH1 0x1 DUP3 ADD PUSH2 0x16E1 JUMPI PUSH2 0x16E1 PUSH2 0x150A JUMP JUMPDEST POP PUSH1 0x1 ADD SWAP1 JUMP JUMPDEST DUP2 DUP2 SUB DUP2 DUP2 GT ISZERO PUSH2 0x3A3 JUMPI PUSH2 0x3A3 PUSH2 0x150A JUMP JUMPDEST PUSH4 0x4E487B71 PUSH1 0xE0 SHL PUSH0 MSTORE PUSH1 0x32 PUSH1 0x4 MSTORE PUSH1 0x24 PUSH0 REVERT JUMPDEST PUSH0 PUSH1 0xA0 DUP3 ADD DUP8 DUP4 MSTORE PUSH1 0x20 DUP8 DUP2 DUP6 ADD MSTORE PUSH1 0xA0 PUSH1 0x40 DUP6 ADD MSTORE DUP2 DUP8 MLOAD DUP1 DUP5 MSTORE PUSH1 0xC0 DUP7 ADD SWAP2 POP DUP3 DUP10 ADD SWAP4 POP PUSH0 JUMPDEST DUP2 DUP2 LT ISZERO PUSH2 0x175D JUMPI DUP5 MLOAD PUSH1 0x1 PUSH1 0x1 PUSH1 0xA0 SHL SUB AND DUP4 MSTORE SWAP4 DUP4 ADD SWAP4 SWAP2 DUP4 ADD SWAP2 PUSH1 0x1 ADD PUSH2 0x1738 JUMP JUMPDEST POP POP PUSH1 0x1 PUSH1 0x1 PUSH1 0xA0 SHL SUB SWAP7 SWAP1 SWAP7 AND PUSH1 0x60 DUP6 ADD MSTORE POP POP POP PUSH1 0x80 ADD MSTORE SWAP4 SWAP3 POP POP POP JUMP JUMPDEST PUSH0 DUP3 PUSH2 0x1798 JUMPI PUSH4 0x4E487B71 PUSH1 0xE0 SHL PUSH0 MSTORE PUSH1 0x12 PUSH1 0x4 MSTORE PUSH1 0x24 PUSH0 REVERT JUMPDEST POP DIV SWAP1 JUMP INVALID GASLIMIT MSTORE NUMBER ORIGIN ADDRESS GASPRICE KECCAK256 PUSH21 0x72616E7366657220616D6F756E7420657863656564 PUSH20 0x20616C6C6F77616E6365A2646970667358221220 PUSH3 0x2B465A PUSH24 0x1786A5BFF40D196FC99BEB1B29FCBF5A88CEA101CFCD8D4A DIV JUMPI DUP9 PUSH5 0x736F6C6343 STOP ADDMOD EQ STOP CALLER "
				},
				"gasEstimates": {
					"creation": {
						"codeDepositCost": "1227800",
						"executionCost": "infinite",
						"totalCost": "infinite"
					},
					"external": {
						"_maxTaxSwap()": "2362",
						"_maxTxAmount()": "2339",
						"_maxWalletSize()": "2383",
						"_taxSwapThreshold()": "2338",
						"allowance(address,address)": "infinite",
						"approve(address,uint256)": "24633",
						"balanceOf(address)": "2617",
						"decimals()": "221",
						"manualSwap()": "infinite",
						"name()": "infinite",
						"openTrading()": "infinite",
						"owner()": "2366",
						"removeLimits()": "infinite",
						"renounceOwnership()": "30272",
						"symbol()": "infinite",
						"totalSupply()": "infinite",
						"transfer(address,uint256)": "infinite",
						"transferDelayEnabled()": "2375",
						"transferFrom(address,address,uint256)": "infinite"
					},
					"internal": {
						"_approve(address,address,uint256)": "infinite",
						"_transfer(address,address,uint256)": "infinite",
						"min(uint256,uint256)": "60",
						"sendETHToFee(uint256)": "infinite",
						"swapTokensForEth(uint256)": "infinite"
					}
				},
				"methodIdentifiers": {
					"_maxTaxSwap()": "0faee56f",
					"_maxTxAmount()": "7d1db4a5",
					"_maxWalletSize()": "8f9a55c0",
					"_taxSwapThreshold()": "bf474bed",
					"allowance(address,address)": "dd62ed3e",
					"approve(address,uint256)": "095ea7b3",
					"balanceOf(address)": "70a08231",
					"decimals()": "313ce567",
					"manualSwap()": "51bc3c85",
					"name()": "06fdde03",
					"openTrading()": "c9567bf9",
					"owner()": "8da5cb5b",
					"removeLimits()": "751039fc",
					"renounceOwnership()": "715018a6",
					"symbol()": "95d89b41",
					"totalSupply()": "18160ddd",
					"transfer(address,uint256)": "a9059cbb",
					"transferDelayEnabled()": "c876d0b9",
					"transferFrom(address,address,uint256)": "23b872dd"
				}
			},
			"storageLayout": {
				"storage": [
					{
						"astId": 228,
						"contract": "contracts/rosa.sol:Rosalina",
						"label": "_owner",
						"offset": 0,
						"slot": "0",
						"type": "t_address"
					},
					{
						"astId": 366,
						"contract": "contracts/rosa.sol:Rosalina",
						"label": "_balances",
						"offset": 0,
						"slot": "1",
						"type": "t_mapping(t_address,t_uint256)"
					},
					{
						"astId": 372,
						"contract": "contracts/rosa.sol:Rosalina",
						"label": "_allowances",
						"offset": 0,
						"slot": "2",
						"type": "t_mapping(t_address,t_mapping(t_address,t_uint256))"
					},
					{
						"astId": 376,
						"contract": "contracts/rosa.sol:Rosalina",
						"label": "_isExcludedFromFee",
						"offset": 0,
						"slot": "3",
						"type": "t_mapping(t_address,t_bool)"
					},
					{
						"astId": 380,
						"contract": "contracts/rosa.sol:Rosalina",
						"label": "bots",
						"offset": 0,
						"slot": "4",
						"type": "t_mapping(t_address,t_bool)"
					},
					{
						"astId": 384,
						"contract": "contracts/rosa.sol:Rosalina",
						"label": "_holderLastTransferTimestamp",
						"offset": 0,
						"slot": "5",
						"type": "t_mapping(t_address,t_uint256)"
					},
					{
						"astId": 387,
						"contract": "contracts/rosa.sol:Rosalina",
						"label": "transferDelayEnabled",
						"offset": 0,
						"slot": "6",
						"type": "t_bool"
					},
					{
						"astId": 389,
						"contract": "contracts/rosa.sol:Rosalina",
						"label": "_taxWallet",
						"offset": 1,
						"slot": "6",
						"type": "t_address_payable"
					},
					{
						"astId": 392,
						"contract": "contracts/rosa.sol:Rosalina",
						"label": "_initialBuyTax",
						"offset": 0,
						"slot": "7",
						"type": "t_uint256"
					},
					{
						"astId": 395,
						"contract": "contracts/rosa.sol:Rosalina",
						"label": "_initialSellTax",
						"offset": 0,
						"slot": "8",
						"type": "t_uint256"
					},
					{
						"astId": 398,
						"contract": "contracts/rosa.sol:Rosalina",
						"label": "_finalBuyTax",
						"offset": 0,
						"slot": "9",
						"type": "t_uint256"
					},
					{
						"astId": 401,
						"contract": "contracts/rosa.sol:Rosalina",
						"label": "_finalSellTax",
						"offset": 0,
						"slot": "10",
						"type": "t_uint256"
					},
					{
						"astId": 404,
						"contract": "contracts/rosa.sol:Rosalina",
						"label": "_reduceBuyTaxAt",
						"offset": 0,
						"slot": "11",
						"type": "t_uint256"
					},
					{
						"astId": 407,
						"contract": "contracts/rosa.sol:Rosalina",
						"label": "_reduceSellTaxAt",
						"offset": 0,
						"slot": "12",
						"type": "t_uint256"
					},
					{
						"astId": 410,
						"contract": "contracts/rosa.sol:Rosalina",
						"label": "_preventSwapBefore",
						"offset": 0,
						"slot": "13",
						"type": "t_uint256"
					},
					{
						"astId": 413,
						"contract": "contracts/rosa.sol:Rosalina",
						"label": "_buyCount",
						"offset": 0,
						"slot": "14",
						"type": "t_uint256"
					},
					{
						"astId": 436,
						"contract": "contracts/rosa.sol:Rosalina",
						"label": "_maxTxAmount",
						"offset": 0,
						"slot": "15",
						"type": "t_uint256"
					},
					{
						"astId": 443,
						"contract": "contracts/rosa.sol:Rosalina",
						"label": "_maxWalletSize",
						"offset": 0,
						"slot": "16",
						"type": "t_uint256"
					},
					{
						"astId": 450,
						"contract": "contracts/rosa.sol:Rosalina",
						"label": "_taxSwapThreshold",
						"offset": 0,
						"slot": "17",
						"type": "t_uint256"
					},
					{
						"astId": 457,
						"contract": "contracts/rosa.sol:Rosalina",
						"label": "_maxTaxSwap",
						"offset": 0,
						"slot": "18",
						"type": "t_uint256"
					},
					{
						"astId": 460,
						"contract": "contracts/rosa.sol:Rosalina",
						"label": "uniswapV2Router",
						"offset": 0,
						"slot": "19",
						"type": "t_contract(IUniswapV2Router02)353"
					},
					{
						"astId": 462,
						"contract": "contracts/rosa.sol:Rosalina",
						"label": "uniswapV2Pair",
						"offset": 0,
						"slot": "20",
						"type": "t_address"
					},
					{
						"astId": 464,
						"contract": "contracts/rosa.sol:Rosalina",
						"label": "tradingOpen",
						"offset": 20,
						"slot": "20",
						"type": "t_bool"
					},
					{
						"astId": 467,
						"contract": "contracts/rosa.sol:Rosalina",
						"label": "inSwap",
						"offset": 21,
						"slot": "20",
						"type": "t_bool"
					},
					{
						"astId": 470,
						"contract": "contracts/rosa.sol:Rosalina",
						"label": "swapEnabled",
						"offset": 22,
						"slot": "20",
						"type": "t_bool"
					}
				],
				"types": {
					"t_address": {
						"encoding": "inplace",
						"label": "address",
						"numberOfBytes": "20"
					},
					"t_address_payable": {
						"encoding": "inplace",
						"label": "address payable",
						"numberOfBytes": "20"
					},
					"t_bool": {
						"encoding": "inplace",
						"label": "bool",
						"numberOfBytes": "1"
					},
					"t_contract(IUniswapV2Router02)353": {
						"encoding": "inplace",
						"label": "contract IUniswapV2Router02",
						"numberOfBytes": "20"
					},
					"t_mapping(t_address,t_bool)": {
						"encoding": "mapping",
						"key": "t_address",
						"label": "mapping(address => bool)",
						"numberOfBytes": "32",
						"value": "t_bool"
					},
					"t_mapping(t_address,t_mapping(t_address,t_uint256))": {
						"encoding": "mapping",
						"key": "t_address",
						"label": "mapping(address => mapping(address => uint256))",
						"numberOfBytes": "32",
						"value": "t_mapping(t_address,t_uint256)"
					},
					"t_mapping(t_address,t_uint256)": {
						"encoding": "mapping",
						"key": "t_address",
						"label": "mapping(address => uint256)",
						"numberOfBytes": "32",
						"value": "t_uint256"
					},
					"t_uint256": {
						"encoding": "inplace",
						"label": "uint256",
						"numberOfBytes": "32"
					}
				}
			},
			"userdoc": {
				"kind": "user",
				"methods": {},
				"version": 1
			}
		}
	}
}