{
	"contracts/exp_flattened.sol": {
		"Experiment": {
			"abi": [
				{
					"inputs": [],
					"stateMutability": "nonpayable",
					"type": "constructor"
				},
				{
					"anonymous": false,
					"inputs": [
						{
							"indexed": true,
							"internalType": "address",
							"name": "owner",
							"type": "address"
						},
						{
							"indexed": true,
							"internalType": "address",
							"name": "spender",
							"type": "address"
						},
						{
							"indexed": false,
							"internalType": "uint256",
							"name": "value",
							"type": "uint256"
						}
					],
					"name": "Approval",
					"type": "event"
				},
				{
					"anonymous": false,
					"inputs": [
						{
							"indexed": true,
							"internalType": "address",
							"name": "EXPPair",
							"type": "address"
						},
						{
							"indexed": false,
							"internalType": "bool",
							"name": "isPair",
							"type": "bool"
						}
					],
					"name": "EXPPairsUpdated",
					"type": "event"
				},
				{
					"anonymous": false,
					"inputs": [
						{
							"indexed": true,
							"internalType": "address",
							"name": "account",
							"type": "address"
						},
						{
							"indexed": false,
							"internalType": "bool",
							"name": "isExcluded",
							"type": "bool"
						}
					],
					"name": "ExcludeFromLimits",
					"type": "event"
				},
				{
					"anonymous": false,
					"inputs": [
						{
							"indexed": false,
							"internalType": "uint256",
							"name": "maxWalletAmount",
							"type": "uint256"
						}
					],
					"name": "MaxWalletAmountUpdated",
					"type": "event"
				},
				{
					"anonymous": false,
					"inputs": [
						{
							"indexed": true,
							"internalType": "address",
							"name": "previousOwner",
							"type": "address"
						},
						{
							"indexed": true,
							"internalType": "address",
							"name": "newOwner",
							"type": "address"
						}
					],
					"name": "OwnershipTransferred",
					"type": "event"
				},
				{
					"anonymous": false,
					"inputs": [
						{
							"indexed": true,
							"internalType": "address",
							"name": "routerV2",
							"type": "address"
						}
					],
					"name": "RouterV2Updated",
					"type": "event"
				},
				{
					"anonymous": false,
					"inputs": [
						{
							"indexed": true,
							"internalType": "address",
							"name": "from",
							"type": "address"
						},
						{
							"indexed": true,
							"internalType": "address",
							"name": "to",
							"type": "address"
						},
						{
							"indexed": false,
							"internalType": "uint256",
							"name": "value",
							"type": "uint256"
						}
					],
					"name": "Transfer",
					"type": "event"
				},
				{
					"inputs": [],
					"name": "CIRCULATING_SUPPLY",
					"outputs": [
						{
							"internalType": "uint256",
							"name": "",
							"type": "uint256"
						}
					],
					"stateMutability": "view",
					"type": "function"
				},
				{
					"inputs": [],
					"name": "DEAD_WALLET",
					"outputs": [
						{
							"internalType": "address",
							"name": "",
							"type": "address"
						}
					],
					"stateMutability": "view",
					"type": "function"
				},
				{
					"inputs": [
						{
							"internalType": "address",
							"name": "",
							"type": "address"
						}
					],
					"name": "EXPPairs",
					"outputs": [
						{
							"internalType": "bool",
							"name": "",
							"type": "bool"
						}
					],
					"stateMutability": "view",
					"type": "function"
				},
				{
					"inputs": [
						{
							"internalType": "address",
							"name": "owner",
							"type": "address"
						},
						{
							"internalType": "address",
							"name": "spender",
							"type": "address"
						}
					],
					"name": "allowance",
					"outputs": [
						{
							"internalType": "uint256",
							"name": "",
							"type": "uint256"
						}
					],
					"stateMutability": "view",
					"type": "function"
				},
				{
					"inputs": [
						{
							"internalType": "address",
							"name": "spender",
							"type": "address"
						},
						{
							"internalType": "uint256",
							"name": "amount",
							"type": "uint256"
						}
					],
					"name": "approve",
					"outputs": [
						{
							"internalType": "bool",
							"name": "",
							"type": "bool"
						}
					],
					"stateMutability": "nonpayable",
					"type": "function"
				},
				{
					"inputs": [
						{
							"internalType": "address",
							"name": "account",
							"type": "address"
						}
					],
					"name": "balanceOf",
					"outputs": [
						{
							"internalType": "uint256",
							"name": "",
							"type": "uint256"
						}
					],
					"stateMutability": "view",
					"type": "function"
				},
				{
					"inputs": [
						{
							"internalType": "uint256",
							"name": "amount",
							"type": "uint256"
						}
					],
					"name": "burn",
					"outputs": [],
					"stateMutability": "nonpayable",
					"type": "function"
				},
				{
					"inputs": [
						{
							"internalType": "address",
							"name": "account",
							"type": "address"
						},
						{
							"internalType": "uint256",
							"name": "amount",
							"type": "uint256"
						}
					],
					"name": "burnFrom",
					"outputs": [],
					"stateMutability": "nonpayable",
					"type": "function"
				},
				{
					"inputs": [],
					"name": "decimals",
					"outputs": [
						{
							"internalType": "uint8",
							"name": "",
							"type": "uint8"
						}
					],
					"stateMutability": "pure",
					"type": "function"
				},
				{
					"inputs": [
						{
							"internalType": "address",
							"name": "spender",
							"type": "address"
						},
						{
							"internalType": "uint256",
							"name": "subtractedValue",
							"type": "uint256"
						}
					],
					"name": "decreaseAllowance",
					"outputs": [
						{
							"internalType": "bool",
							"name": "",
							"type": "bool"
						}
					],
					"stateMutability": "nonpayable",
					"type": "function"
				},
				{
					"inputs": [
						{
							"internalType": "address",
							"name": "account",
							"type": "address"
						},
						{
							"internalType": "bool",
							"name": "isExcluded",
							"type": "bool"
						}
					],
					"name": "excludeFromLimits",
					"outputs": [],
					"stateMutability": "nonpayable",
					"type": "function"
				},
				{
					"inputs": [
						{
							"internalType": "address",
							"name": "spender",
							"type": "address"
						},
						{
							"internalType": "uint256",
							"name": "addedValue",
							"type": "uint256"
						}
					],
					"name": "increaseAllowance",
					"outputs": [
						{
							"internalType": "bool",
							"name": "",
							"type": "bool"
						}
					],
					"stateMutability": "nonpayable",
					"type": "function"
				},
				{
					"inputs": [
						{
							"internalType": "address",
							"name": "",
							"type": "address"
						}
					],
					"name": "isExcludedFromLimits",
					"outputs": [
						{
							"internalType": "bool",
							"name": "",
							"type": "bool"
						}
					],
					"stateMutability": "view",
					"type": "function"
				},
				{
					"inputs": [],
					"name": "name",
					"outputs": [
						{
							"internalType": "string",
							"name": "",
							"type": "string"
						}
					],
					"stateMutability": "view",
					"type": "function"
				},
				{
					"inputs": [],
					"name": "owner",
					"outputs": [
						{
							"internalType": "address",
							"name": "",
							"type": "address"
						}
					],
					"stateMutability": "view",
					"type": "function"
				},
				{
					"inputs": [],
					"name": "pairV2",
					"outputs": [
						{
							"internalType": "address",
							"name": "",
							"type": "address"
						}
					],
					"stateMutability": "view",
					"type": "function"
				},
				{
					"inputs": [],
					"name": "renounceOwnership",
					"outputs": [],
					"stateMutability": "nonpayable",
					"type": "function"
				},
				{
					"inputs": [],
					"name": "routerV2",
					"outputs": [
						{
							"internalType": "contract IUniswapV2Router02",
							"name": "",
							"type": "address"
						}
					],
					"stateMutability": "view",
					"type": "function"
				},
				{
					"inputs": [
						{
							"internalType": "address",
							"name": "pair",
							"type": "address"
						},
						{
							"internalType": "bool",
							"name": "isPair",
							"type": "bool"
						}
					],
					"name": "setPair",
					"outputs": [],
					"stateMutability": "nonpayable",
					"type": "function"
				},
				{
					"inputs": [],
					"name": "symbol",
					"outputs": [
						{
							"internalType": "string",
							"name": "",
							"type": "string"
						}
					],
					"stateMutability": "view",
					"type": "function"
				},
				{
					"inputs": [],
					"name": "totalSupply",
					"outputs": [
						{
							"internalType": "uint256",
							"name": "",
							"type": "uint256"
						}
					],
					"stateMutability": "view",
					"type": "function"
				},
				{
					"inputs": [
						{
							"internalType": "address",
							"name": "to",
							"type": "address"
						},
						{
							"internalType": "uint256",
							"name": "amount",
							"type": "uint256"
						}
					],
					"name": "transfer",
					"outputs": [
						{
							"internalType": "bool",
							"name": "",
							"type": "bool"
						}
					],
					"stateMutability": "nonpayable",
					"type": "function"
				},
				{
					"inputs": [
						{
							"internalType": "address",
							"name": "from",
							"type": "address"
						},
						{
							"internalType": "address",
							"name": "to",
							"type": "address"
						},
						{
							"internalType": "uint256",
							"name": "amount",
							"type": "uint256"
						}
					],
					"name": "transferFrom",
					"outputs": [
						{
							"internalType": "bool",
							"name": "",
							"type": "bool"
						}
					],
					"stateMutability": "nonpayable",
					"type": "function"
				},
				{
					"inputs": [
						{
							"internalType": "address",
							"name": "newOwner",
							"type": "address"
						}
					],
					"name": "transferOwnership",
					"outputs": [],
					"stateMutability": "nonpayable",
					"type": "function"
				},
				{
					"stateMutability": "payable",
					"type": "receive"
				}
			],
			"devdoc": {
				"events": {
					"Approval(address,address,uint256)": {
						"details": "Emitted when the allowance of a `spender` for an `owner` is set by a call to {approve}. `value` is the new allowance."
					},
					"Transfer(address,address,uint256)": {
						"details": "Emitted when `value` tokens are moved from one account (`from`) to another (`to`). Note that `value` may be zero."
					}
				},
				"kind": "dev",
				"methods": {
					"allowance(address,address)": {
						"details": "See {IERC20-allowance}."
					},
					"approve(address,uint256)": {
						"details": "See {IERC20-approve}. NOTE: If `amount` is the maximum `uint256`, the allowance is not updated on `transferFrom`. This is semantically equivalent to an infinite approval. Requirements: - `spender` cannot be the zero address."
					},
					"balanceOf(address)": {
						"details": "See {IERC20-balanceOf}."
					},
					"burn(uint256)": {
						"details": "Destroys `amount` tokens from the caller. See {ERC20-_burn}."
					},
					"burnFrom(address,uint256)": {
						"details": "Destroys `amount` tokens from `account`, deducting from the caller's allowance. See {ERC20-_burn} and {ERC20-allowance}. Requirements: - the caller must have allowance for ``accounts``'s tokens of at least `amount`."
					},
					"decimals()": {
						"details": "Returns the number of decimals used to get its user representation. For example, if `decimals` equals `2`, a balance of `505` tokens should be displayed to a user as `5.05` (`505 / 10 ** 2`). Tokens usually opt for a value of 18, imitating the relationship between Ether and Wei. This is the default value returned by this function, unless it's overridden. NOTE: This information is only used for _display_ purposes: it in no way affects any of the arithmetic of the contract, including {IERC20-balanceOf} and {IERC20-transfer}."
					},
					"decreaseAllowance(address,uint256)": {
						"details": "Atomically decreases the allowance granted to `spender` by the caller. This is an alternative to {approve} that can be used as a mitigation for problems described in {IERC20-approve}. Emits an {Approval} event indicating the updated allowance. Requirements: - `spender` cannot be the zero address. - `spender` must have allowance for the caller of at least `subtractedValue`."
					},
					"increaseAllowance(address,uint256)": {
						"details": "Atomically increases the allowance granted to `spender` by the caller. This is an alternative to {approve} that can be used as a mitigation for problems described in {IERC20-approve}. Emits an {Approval} event indicating the updated allowance. Requirements: - `spender` cannot be the zero address."
					},
					"name()": {
						"details": "Returns the name of the token."
					},
					"owner()": {
						"details": "Returns the address of the current owner."
					},
					"renounceOwnership()": {
						"details": "Leaves the contract without owner. It will not be possible to call `onlyOwner` functions. Can only be called by the current owner. NOTE: Renouncing ownership will leave the contract without an owner, thereby disabling any functionality that is only available to the owner."
					},
					"symbol()": {
						"details": "Returns the symbol of the token, usually a shorter version of the name."
					},
					"totalSupply()": {
						"details": "See {IERC20-totalSupply}."
					},
					"transfer(address,uint256)": {
						"details": "See {IERC20-transfer}. Requirements: - `to` cannot be the zero address. - the caller must have a balance of at least `amount`."
					},
					"transferFrom(address,address,uint256)": {
						"details": "See {IERC20-transferFrom}. Emits an {Approval} event indicating the updated allowance. This is not required by the EIP. See the note at the beginning of {ERC20}. NOTE: Does not update the allowance if the current allowance is the maximum `uint256`. Requirements: - `from` and `to` cannot be the zero address. - `from` must have a balance of at least `amount`. - the caller must have allowance for ``from``'s tokens of at least `amount`."
					},
					"transferOwnership(address)": {
						"details": "Transfers ownership of the contract to a new account (`newOwner`). Can only be called by the current owner."
					}
				},
				"version": 1
			},
			"evm": {
				"assembly": "    /* \"contracts/exp_flattened.sol\":29626:33497  contract Experiment is ERC20, ERC20Burnable, Ownable {... */\n  mstore(0x40, 0x80)\n    /* \"contracts/exp_flattened.sol\":29873:29940  address private expDev = 0x76E98f575E5B6382ff3Bc9E988F9920984F2A576 */\n  0x0a\n  dup1\n  sload\n  not(sub(shl(0xa0, 0x01), 0x01))\n  and\n    /* \"contracts/exp_flattened.sol\":29898:29940  0x76E98f575E5B6382ff3Bc9E988F9920984F2A576 */\n  0x76e98f575e5b6382ff3bc9e988f9920984f2a576\n    /* \"contracts/exp_flattened.sol\":29873:29940  address private expDev = 0x76E98f575E5B6382ff3Bc9E988F9920984F2A576 */\n  or\n  swap1\n  sstore\n    /* \"contracts/exp_flattened.sol\":29991:30033  0x000000000000000000000000000000000000dEaD */\n  0xdead\n  0x00\n    /* \"contracts/exp_flattened.sol\":18836:18854  _balances[account] */\n  swap1\n  dup2\n  mstore\n  0x20\n  mstore\n  sload(0x44ad89ba62b98ff34f51403ac22759b55759460c0bb5521eb4b6ee3cff49cf83)\n    /* \"contracts/exp_flattened.sol\":30076:30113  TOTAL_SUPPLY - balanceOf(DEAD_WALLET) */\n  tag_3\n  swap1\n    /* \"contracts/exp_flattened.sol\":30160:30182  1_000_000_000 * 10**18 */\n  0x033b2e3c9fd0803ce8000000\n    /* \"contracts/exp_flattened.sol\":30076:30113  TOTAL_SUPPLY - balanceOf(DEAD_WALLET) */\n  tag_4\n  jump\t// in\ntag_3:\n    /* \"contracts/exp_flattened.sol\":30040:30113  uint256 public CIRCULATING_SUPPLY = TOTAL_SUPPLY - balanceOf(DEAD_WALLET) */\n  0x0b\n  sstore\n    /* \"contracts/exp_flattened.sol\":30248:30251  200 */\n  0xc8\n    /* \"contracts/exp_flattened.sol\":30227:30245  CIRCULATING_SUPPLY */\n  sload(0x0b)\n    /* \"contracts/exp_flattened.sol\":30227:30251  CIRCULATING_SUPPLY / 200 */\n  tag_5\n  swap2\n  swap1\n  tag_6\n  jump\t// in\ntag_5:\n    /* \"contracts/exp_flattened.sol\":30193:30251  uint256 private maxWalletAmount = CIRCULATING_SUPPLY / 200 */\n  0x0c\n  sstore\n    /* \"contracts/exp_flattened.sol\":30692:31117  constructor()... */\n  callvalue\n  dup1\n  iszero\n  tag_7\n  jumpi\n  0x00\n  dup1\n  revert\ntag_7:\n  pop\n    /* \"contracts/exp_flattened.sol\":17249:17365  constructor(string memory name_, string memory symbol_) {... */\n  mload(0x40)\n  dup1\n  0x40\n  add\n  0x40\n  mstore\n  dup1\n  0x0a\n  dup2\n  mstore\n  0x20\n  add\n  shl(0xb2, 0x115e1c195c9a5b595b9d)\n  dup2\n  mstore\n  pop\n  mload(0x40)\n  dup1\n  0x40\n  add\n  0x40\n  mstore\n  dup1\n  0x03\n  dup2\n  mstore\n  0x20\n  add\n  shl(0xec, 0x045585)\n  dup2\n  mstore\n  pop\n    /* \"contracts/exp_flattened.sol\":17324:17329  name_ */\n  dup2\n    /* \"contracts/exp_flattened.sol\":17316:17321  _name */\n  0x03\n    /* \"contracts/exp_flattened.sol\":17316:17329  _name = name_ */\n  swap1\n  dup2\n  tag_12\n  swap2\n  swap1\n  tag_13\n  jump\t// in\ntag_12:\n  pop\n    /* \"contracts/exp_flattened.sol\":17340:17347  _symbol */\n  0x04\n    /* \"contracts/exp_flattened.sol\":17340:17357  _symbol = symbol_ */\n  tag_14\n    /* \"contracts/exp_flattened.sol\":17350:17357  symbol_ */\n  dup3\n    /* \"contracts/exp_flattened.sol\":17340:17347  _symbol */\n  dup3\n    /* \"contracts/exp_flattened.sol\":17340:17357  _symbol = symbol_ */\n  tag_13\n  jump\t// in\ntag_14:\n  pop\n    /* \"contracts/exp_flattened.sol\":17249:17365  constructor(string memory name_, string memory symbol_) {... */\n  pop\n  pop\n    /* \"contracts/exp_flattened.sol\":10065:10097  _transferOwnership(_msgSender()) */\n  tag_16\n    /* \"contracts/exp_flattened.sol\":10084:10096  _msgSender() */\n  tag_17\n    /* \"contracts/exp_flattened.sol\":10084:10094  _msgSender */\n  shl(0x20, tag_18)\n    /* \"contracts/exp_flattened.sol\":10084:10096  _msgSender() */\n  0x20\n  shr\n  jump\t// in\ntag_17:\n    /* \"contracts/exp_flattened.sol\":10065:10083  _transferOwnership */\n  tag_19\n    /* \"contracts/exp_flattened.sol\":10065:10097  _transferOwnership(_msgSender()) */\n  jump\t// in\ntag_16:\n    /* \"contracts/exp_flattened.sol\":30777:30836  _updateRouterV2(0x327Df1E6de05895d2ab08513aaDD9313Fe505d86) */\n  tag_21\n    /* \"contracts/exp_flattened.sol\":30793:30835  0x327Df1E6de05895d2ab08513aaDD9313Fe505d86 */\n  0x327df1e6de05895d2ab08513aadd9313fe505d86\n    /* \"contracts/exp_flattened.sol\":30777:30792  _updateRouterV2 */\n  tag_22\n    /* \"contracts/exp_flattened.sol\":30777:30836  _updateRouterV2(0x327Df1E6de05895d2ab08513aaDD9313Fe505d86) */\n  jump\t// in\ntag_21:\n    /* \"contracts/exp_flattened.sol\":30877:30883  expDev */\n  sload(0x0a)\n    /* \"contracts/exp_flattened.sol\":30859:30890  excludeFromLimits(expDev, true) */\n  tag_23\n  swap1\n  sub(shl(0xa0, 0x01), 0x01)\n    /* \"contracts/exp_flattened.sol\":30877:30883  expDev */\n  and\n  0x01\n    /* \"contracts/exp_flattened.sol\":30859:30876  excludeFromLimits */\n  tag_24\n    /* \"contracts/exp_flattened.sol\":30859:30890  excludeFromLimits(expDev, true) */\n  jump\t// in\ntag_23:\n    /* \"contracts/exp_flattened.sol\":30901:30939  excludeFromLimits(address(this), true) */\n  tag_25\n    /* \"contracts/exp_flattened.sol\":30927:30931  this */\n  address\n    /* \"contracts/exp_flattened.sol\":30934:30938  true */\n  0x01\n    /* \"contracts/exp_flattened.sol\":30901:30918  excludeFromLimits */\n  tag_24\n    /* \"contracts/exp_flattened.sol\":30901:30939  excludeFromLimits(address(this), true) */\n  jump\t// in\ntag_25:\n    /* \"contracts/exp_flattened.sol\":30950:30985  excludeFromLimits(address(0), true) */\n  tag_26\n    /* \"contracts/exp_flattened.sol\":30976:30977  0 */\n  0x00\n    /* \"contracts/exp_flattened.sol\":30980:30984  true */\n  0x01\n    /* \"contracts/exp_flattened.sol\":30950:30967  excludeFromLimits */\n  tag_24\n    /* \"contracts/exp_flattened.sol\":30950:30985  excludeFromLimits(address(0), true) */\n  jump\t// in\ntag_26:\n    /* \"contracts/exp_flattened.sol\":31015:31021  expDev */\n  sload(0x0a)\n    /* \"contracts/exp_flattened.sol\":31009:31036  _mint(expDev, TOTAL_SUPPLY) */\n  tag_27\n  swap1\n  sub(shl(0xa0, 0x01), 0x01)\n    /* \"contracts/exp_flattened.sol\":31015:31021  expDev */\n  and\n    /* \"contracts/exp_flattened.sol\":30160:30182  1_000_000_000 * 10**18 */\n  0x033b2e3c9fd0803ce8000000\n    /* \"contracts/exp_flattened.sol\":31009:31014  _mint */\n  tag_28\n    /* \"contracts/exp_flattened.sol\":31009:31036  _mint(expDev, TOTAL_SUPPLY) */\n  jump\t// in\ntag_27:\n    /* \"contracts/exp_flattened.sol\":31047:31109  _transferOwnership(0x76E98f575E5B6382ff3Bc9E988F9920984F2A576) */\n  tag_29\n    /* \"contracts/exp_flattened.sol\":31066:31108  0x76E98f575E5B6382ff3Bc9E988F9920984F2A576 */\n  0x76e98f575e5b6382ff3bc9e988f9920984f2a576\n    /* \"contracts/exp_flattened.sol\":31047:31065  _transferOwnership */\n  tag_19\n    /* \"contracts/exp_flattened.sol\":31047:31109  _transferOwnership(0x76E98f575E5B6382ff3Bc9E988F9920984F2A576) */\n  jump\t// in\ntag_29:\n    /* \"contracts/exp_flattened.sol\":29626:33497  contract Experiment is ERC20, ERC20Burnable, Ownable {... */\n  jump(tag_133)\n    /* \"contracts/exp_flattened.sol\":8918:9016  function _msgSender() internal view virtual returns (address) {... */\ntag_18:\n    /* \"contracts/exp_flattened.sol\":8998:9008  msg.sender */\n  caller\n  swap1\n    /* \"contracts/exp_flattened.sol\":8918:9016  function _msgSender() internal view virtual returns (address) {... */\n  jump\t// out\n    /* \"contracts/exp_flattened.sol\":11604:11795  function _transferOwnership(address newOwner) internal virtual {... */\ntag_19:\n    /* \"contracts/exp_flattened.sol\":11697:11703  _owner */\n  0x05\n  dup1\n  sload\n  sub(shl(0xa0, 0x01), 0x01)\n    /* \"contracts/exp_flattened.sol\":11714:11731  _owner = newOwner */\n  dup4\n  dup2\n  and\n  not(sub(shl(0xa0, 0x01), 0x01))\n  dup4\n  and\n  dup2\n  or\n  swap1\n  swap4\n  sstore\n    /* \"contracts/exp_flattened.sol\":11747:11787  OwnershipTransferred(oldOwner, newOwner) */\n  mload(0x40)\n    /* \"contracts/exp_flattened.sol\":11697:11703  _owner */\n  swap2\n  and\n  swap2\n    /* \"contracts/exp_flattened.sol\":11714:11731  _owner = newOwner */\n  swap1\n    /* \"contracts/exp_flattened.sol\":11697:11703  _owner */\n  dup3\n  swap1\n    /* \"contracts/exp_flattened.sol\":11747:11787  OwnershipTransferred(oldOwner, newOwner) */\n  0x8be0079c531659141344cd1fd0a4f28419497f9722a3daafe3b4186f6b6457e0\n  swap1\n    /* \"contracts/exp_flattened.sol\":11678:11694  address oldOwner */\n  0x00\n  swap1\n    /* \"contracts/exp_flattened.sol\":11747:11787  OwnershipTransferred(oldOwner, newOwner) */\n  log3\n    /* \"contracts/exp_flattened.sol\":11667:11795  {... */\n  pop\n    /* \"contracts/exp_flattened.sol\":11604:11795  function _transferOwnership(address newOwner) internal virtual {... */\n  pop\n  jump\t// out\n    /* \"contracts/exp_flattened.sol\":31259:31592  function _updateRouterV2(address router) private {... */\ntag_22:\n    /* \"contracts/exp_flattened.sol\":31319:31327  routerV2 */\n  0x06\n    /* \"contracts/exp_flattened.sol\":31319:31356  routerV2 = IUniswapV2Router02(router) */\n  dup1\n  sload\n  not(sub(shl(0xa0, 0x01), 0x01))\n  and\n  sub(shl(0xa0, 0x01), 0x01)\n  dup4\n  and\n  swap1\n  dup2\n  or\n  swap1\n  swap2\n  sstore\n    /* \"contracts/exp_flattened.sol\":31394:31412  routerV2.factory() */\n  0x40\n  dup1\n  mload\n  shl(0xe0, 0xc45a0155)\n  dup2\n  mstore\n  swap1\n  mload\n    /* \"contracts/exp_flattened.sol\":31394:31410  routerV2.factory */\n  0xc45a0155\n  swap2\n    /* \"contracts/exp_flattened.sol\":31394:31412  routerV2.factory() */\n  0x04\n  dup1\n  dup3\n  add\n  swap3\n  0x20\n  swap3\n  swap1\n  swap2\n  swap1\n  dup3\n  swap1\n  sub\n  add\n  dup2\n    /* \"contracts/exp_flattened.sol\":31319:31356  routerV2 = IUniswapV2Router02(router) */\n  dup7\n    /* \"contracts/exp_flattened.sol\":31394:31412  routerV2.factory() */\n  gas\n  staticcall\n  iszero\n  dup1\n  iszero\n  tag_36\n  jumpi\n  returndatasize\n  0x00\n  dup1\n  returndatacopy\n  revert(0x00, returndatasize)\ntag_36:\n  pop\n  pop\n  pop\n  pop\n  mload(0x40)\n  returndatasize\n  not(0x1f)\n  0x1f\n  dup3\n  add\n  and\n  dup3\n  add\n  dup1\n  0x40\n  mstore\n  pop\n  dup2\n  add\n  swap1\n  tag_37\n  swap2\n  swap1\n  tag_38\n  jump\t// in\ntag_37:\n  sub(shl(0xa0, 0x01), 0x01)\n    /* \"contracts/exp_flattened.sol\":31376:31424  IUniswapV2Factory(routerV2.factory()).createPair */\n  and\n  0xc9c65396\n    /* \"contracts/exp_flattened.sol\":31433:31437  this */\n  address\n    /* \"contracts/exp_flattened.sol\":31440:31448  routerV2 */\n  0x06\n  0x00\n  swap1\n  sload\n  swap1\n  0x0100\n  exp\n  swap1\n  div\n  sub(shl(0xa0, 0x01), 0x01)\n  and\n  sub(shl(0xa0, 0x01), 0x01)\n    /* \"contracts/exp_flattened.sol\":31440:31453  routerV2.WETH */\n  and\n  0xad5c4648\n    /* \"contracts/exp_flattened.sol\":31440:31455  routerV2.WETH() */\n  mload(0x40)\n  dup2\n  0xffffffff\n  and\n  0xe0\n  shl\n  dup2\n  mstore\n  0x04\n  add\n  0x20\n  mload(0x40)\n  dup1\n  dup4\n  sub\n  dup2\n  dup7\n  gas\n  staticcall\n  iszero\n  dup1\n  iszero\n  tag_40\n  jumpi\n  returndatasize\n  0x00\n  dup1\n  returndatacopy\n  revert(0x00, returndatasize)\ntag_40:\n  pop\n  pop\n  pop\n  pop\n  mload(0x40)\n  returndatasize\n  not(0x1f)\n  0x1f\n  dup3\n  add\n  and\n  dup3\n  add\n  dup1\n  0x40\n  mstore\n  pop\n  dup2\n  add\n  swap1\n  tag_41\n  swap2\n  swap1\n  tag_38\n  jump\t// in\ntag_41:\n    /* \"contracts/exp_flattened.sol\":31376:31456  IUniswapV2Factory(routerV2.factory()).createPair(address(this), routerV2.WETH()) */\n  mload(0x40)\n  not(sub(shl(0xe0, 0x01), 0x01))\n  0xe0\n  dup6\n  swap1\n  shl\n  and\n  dup2\n  mstore\n  sub(shl(0xa0, 0x01), 0x01)\n    /* \"#utility.yul\":3747:3762   */\n  swap3\n  dup4\n  and\n    /* \"contracts/exp_flattened.sol\":31376:31456  IUniswapV2Factory(routerV2.factory()).createPair(address(this), routerV2.WETH()) */\n  0x04\n  dup3\n  add\n    /* \"#utility.yul\":3729:3763   */\n  mstore\n    /* \"#utility.yul\":3799:3814   */\n  swap2\n  and\n    /* \"#utility.yul\":3779:3797   */\n  0x24\n  dup3\n  add\n    /* \"#utility.yul\":3772:3815   */\n  mstore\n    /* \"#utility.yul\":3664:3682   */\n  0x44\n  add\n    /* \"contracts/exp_flattened.sol\":31376:31456  IUniswapV2Factory(routerV2.factory()).createPair(address(this), routerV2.WETH()) */\n  0x20\n  mload(0x40)\n  dup1\n  dup4\n  sub\n  dup2\n  0x00\n  dup8\n  gas\n  call\n  iszero\n  dup1\n  iszero\n  tag_45\n  jumpi\n  returndatasize\n  0x00\n  dup1\n  returndatacopy\n  revert(0x00, returndatasize)\ntag_45:\n  pop\n  pop\n  pop\n  pop\n  mload(0x40)\n  returndatasize\n  not(0x1f)\n  0x1f\n  dup3\n  add\n  and\n  dup3\n  add\n  dup1\n  0x40\n  mstore\n  pop\n  dup2\n  add\n  swap1\n  tag_46\n  swap2\n  swap1\n  tag_38\n  jump\t// in\ntag_46:\n    /* \"contracts/exp_flattened.sol\":31367:31373  pairV2 */\n  0x07\n    /* \"contracts/exp_flattened.sol\":31367:31456  pairV2 = IUniswapV2Factory(routerV2.factory()).createPair(address(this), routerV2.WETH()) */\n  dup1\n  sload\n  not(sub(shl(0xa0, 0x01), 0x01))\n  and\n  sub(shl(0xa0, 0x01), 0x01)\n  swap3\n  swap1\n  swap3\n  and\n  swap2\n  swap1\n  swap2\n  or\n  swap1\n  sstore\n    /* \"contracts/exp_flattened.sol\":31477:31508  excludeFromLimits(router, true) */\n  tag_47\n    /* \"contracts/exp_flattened.sol\":31495:31501  router */\n  dup2\n  0x01\n    /* \"contracts/exp_flattened.sol\":31477:31494  excludeFromLimits */\n  tag_24\n    /* \"contracts/exp_flattened.sol\":31477:31508  excludeFromLimits(router, true) */\n  jump\t// in\ntag_47:\n    /* \"contracts/exp_flattened.sol\":31530:31536  pairV2 */\n  sload(0x07)\n    /* \"contracts/exp_flattened.sol\":31521:31543  _setPair(pairV2, true) */\n  tag_48\n  swap1\n  sub(shl(0xa0, 0x01), 0x01)\n    /* \"contracts/exp_flattened.sol\":31530:31536  pairV2 */\n  and\n  0x01\n    /* \"contracts/exp_flattened.sol\":31521:31529  _setPair */\n  tag_49\n    /* \"contracts/exp_flattened.sol\":31521:31543  _setPair(pairV2, true) */\n  jump\t// in\ntag_48:\n    /* \"contracts/exp_flattened.sol\":31561:31584  RouterV2Updated(router) */\n  mload(0x40)\n  sub(shl(0xa0, 0x01), 0x01)\n  dup3\n  and\n  swap1\n  0xbc052db65df144ad4f71f02da93cae3d4401104c30ac374d7cc10d87ee07b602\n  swap1\n  0x00\n  swap1\n  log2\n    /* \"contracts/exp_flattened.sol\":31259:31592  function _updateRouterV2(address router) private {... */\n  pop\n  jump\t// out\n    /* \"contracts/exp_flattened.sol\":32034:32229  function excludeFromLimits(address account, bool isExcluded) public onlyOwner {... */\ntag_24:\n    /* \"contracts/exp_flattened.sol\":10230:10243  _checkOwner() */\n  tag_51\n    /* \"contracts/exp_flattened.sol\":10230:10241  _checkOwner */\n  tag_52\n    /* \"contracts/exp_flattened.sol\":10230:10243  _checkOwner() */\n  jump\t// in\ntag_51:\n  sub(shl(0xa0, 0x01), 0x01)\n    /* \"contracts/exp_flattened.sol\":32123:32152  isExcludedFromLimits[account] */\n  dup3\n  and\n  0x00\n  dup2\n  dup2\n  mstore\n    /* \"contracts/exp_flattened.sol\":32123:32143  isExcludedFromLimits */\n  0x09\n    /* \"contracts/exp_flattened.sol\":32123:32152  isExcludedFromLimits[account] */\n  0x20\n  swap1\n  dup2\n  mstore\n  0x40\n  swap2\n  dup3\n  swap1\n  keccak256\n    /* \"contracts/exp_flattened.sol\":32123:32165  isExcludedFromLimits[account] = isExcluded */\n  dup1\n  sload\n  not(0xff)\n  and\n  dup6\n  iszero\n  iszero\n  swap1\n  dup2\n  or\n  swap1\n  swap2\n  sstore\n    /* \"contracts/exp_flattened.sol\":32183:32221  ExcludeFromLimits(account, isExcluded) */\n  swap2\n  mload\n    /* \"#utility.yul\":3966:4007   */\n  swap2\n  dup3\n  mstore\n    /* \"contracts/exp_flattened.sol\":32183:32221  ExcludeFromLimits(account, isExcluded) */\n  0x4b89c347592b1d537e066cb4ed98d87696ae35164745d7e370e4add16941dc92\n  swap2\n    /* \"#utility.yul\":3939:3957   */\n  add\n    /* \"contracts/exp_flattened.sol\":32183:32221  ExcludeFromLimits(account, isExcluded) */\ntag_54:\n  mload(0x40)\n  dup1\n  swap2\n  sub\n  swap1\n  log2\n    /* \"contracts/exp_flattened.sol\":32034:32229  function excludeFromLimits(address account, bool isExcluded) public onlyOwner {... */\n  pop\n  pop\n  jump\t// out\n    /* \"contracts/exp_flattened.sol\":23986:24534  function _mint(address account, uint256 amount) internal virtual {... */\ntag_28:\n  sub(shl(0xa0, 0x01), 0x01)\n    /* \"contracts/exp_flattened.sol\":24070:24091  account != address(0) */\n  dup3\n  and\n    /* \"contracts/exp_flattened.sol\":24062:24127  require(account != address(0), \"ERC20: mint to the zero address\") */\n  tag_57\n  jumpi\n  mload(0x40)\n  shl(0xe5, 0x461bcd)\n  dup2\n  mstore\n    /* \"#utility.yul\":4220:4222   */\n  0x20\n    /* \"contracts/exp_flattened.sol\":24062:24127  require(account != address(0), \"ERC20: mint to the zero address\") */\n  0x04\n  dup3\n  add\n    /* \"#utility.yul\":4202:4223   */\n  mstore\n    /* \"#utility.yul\":4259:4261   */\n  0x1f\n    /* \"#utility.yul\":4239:4257   */\n  0x24\n  dup3\n  add\n    /* \"#utility.yul\":4232:4262   */\n  mstore\n    /* \"#utility.yul\":4298:4331   */\n  0x45524332303a206d696e7420746f20746865207a65726f206164647265737300\n    /* \"#utility.yul\":4278:4296   */\n  0x44\n  dup3\n  add\n    /* \"#utility.yul\":4271:4332   */\n  mstore\n    /* \"#utility.yul\":4349:4367   */\n  0x64\n  add\n    /* \"contracts/exp_flattened.sol\":24062:24127  require(account != address(0), \"ERC20: mint to the zero address\") */\ntag_58:\n  mload(0x40)\n  dup1\n  swap2\n  sub\n  swap1\n  revert\ntag_57:\n    /* \"contracts/exp_flattened.sol\":24140:24189  _beforeTokenTransfer(address(0), account, amount) */\n  tag_60\n    /* \"contracts/exp_flattened.sol\":24169:24170  0 */\n  0x00\n    /* \"contracts/exp_flattened.sol\":24173:24180  account */\n  dup4\n    /* \"contracts/exp_flattened.sol\":24182:24188  amount */\n  dup4\n    /* \"contracts/exp_flattened.sol\":24140:24160  _beforeTokenTransfer */\n  tag_61\n    /* \"contracts/exp_flattened.sol\":24140:24189  _beforeTokenTransfer(address(0), account, amount) */\n  jump\t// in\ntag_60:\n    /* \"contracts/exp_flattened.sol\":24218:24224  amount */\n  dup1\n    /* \"contracts/exp_flattened.sol\":24202:24214  _totalSupply */\n  0x02\n  0x00\n    /* \"contracts/exp_flattened.sol\":24202:24224  _totalSupply += amount */\n  dup3\n  dup3\n  sload\n  tag_62\n  swap2\n  swap1\n  tag_63\n  jump\t// in\ntag_62:\n  swap1\n  swap2\n  sstore\n  pop\n  pop\n  sub(shl(0xa0, 0x01), 0x01)\n    /* \"contracts/exp_flattened.sol\":24373:24391  _balances[account] */\n  dup3\n  and\n    /* \"contracts/exp_flattened.sol\":24373:24382  _balances */\n  0x00\n    /* \"contracts/exp_flattened.sol\":24373:24391  _balances[account] */\n  dup2\n  dup2\n  mstore\n  0x20\n  dup2\n  dup2\n  mstore\n  0x40\n  dup1\n  dup4\n  keccak256\n    /* \"contracts/exp_flattened.sol\":24373:24401  _balances[account] += amount */\n  dup1\n  sload\n  dup7\n  add\n  swap1\n  sstore\n    /* \"contracts/exp_flattened.sol\":24428:24465  Transfer(address(0), account, amount) */\n  mload\n    /* \"#utility.yul\":4654:4679   */\n  dup5\n  dup2\n  mstore\n  0x00\n  dup1\n  mload\n  0x20\n  data_ada389e1fc24a8587c776340efb91b36e675792ab631816100d55df0b5cf3cbc\n  dup4\n  codecopy\n  dup2\n  mload\n  swap2\n  mstore\n    /* \"contracts/exp_flattened.sol\":24428:24465  Transfer(address(0), account, amount) */\n  swap2\n    /* \"#utility.yul\":4627:4645   */\n  add\n    /* \"contracts/exp_flattened.sol\":24428:24465  Transfer(address(0), account, amount) */\n  mload(0x40)\n  dup1\n  swap2\n  sub\n  swap1\n  log3\n    /* \"contracts/exp_flattened.sol\":24478:24526  _afterTokenTransfer(address(0), account, amount) */\n  tag_66\n    /* \"contracts/exp_flattened.sol\":24506:24507  0 */\n  0x00\n    /* \"contracts/exp_flattened.sol\":24510:24517  account */\n  dup4\n    /* \"contracts/exp_flattened.sol\":24519:24525  amount */\n  dup4\n    /* \"contracts/exp_flattened.sol\":24478:24497  _afterTokenTransfer */\n  tag_67\n    /* \"contracts/exp_flattened.sol\":24478:24526  _afterTokenTransfer(address(0), account, amount) */\n  jump\t// in\ntag_66:\n    /* \"contracts/exp_flattened.sol\":23986:24534  function _mint(address account, uint256 amount) internal virtual {... */\n  pop\n  pop\n  jump\t// out\n    /* \"contracts/exp_flattened.sol\":31801:32026  function _setPair(address pair, bool isPair) private {... */\ntag_49:\n  sub(shl(0xa0, 0x01), 0x01)\n    /* \"contracts/exp_flattened.sol\":31865:31879  EXPPairs[pair] */\n  dup3\n  and\n  0x00\n  swap1\n  dup2\n  mstore\n    /* \"contracts/exp_flattened.sol\":31865:31873  EXPPairs */\n  0x08\n    /* \"contracts/exp_flattened.sol\":31865:31879  EXPPairs[pair] */\n  0x20\n  mstore\n  0x40\n  swap1\n  keccak256\n    /* \"contracts/exp_flattened.sol\":31865:31888  EXPPairs[pair] = isPair */\n  dup1\n  sload\n  not(0xff)\n  and\n  dup3\n  iszero\n  dup1\n  iszero\n  swap2\n  swap1\n  swap2\n  or\n  swap1\n  swap2\n  sstore\n    /* \"contracts/exp_flattened.sol\":31901:31972  if (isPair) { ... */\n  tag_70\n  jumpi\n    /* \"contracts/exp_flattened.sol\":31929:31958  excludeFromLimits(pair, true) */\n  tag_70\n    /* \"contracts/exp_flattened.sol\":31947:31951  pair */\n  dup3\n    /* \"contracts/exp_flattened.sol\":31953:31957  true */\n  0x01\n    /* \"contracts/exp_flattened.sol\":31929:31946  excludeFromLimits */\n  tag_24\n    /* \"contracts/exp_flattened.sol\":31929:31958  excludeFromLimits(pair, true) */\n  jump\t// in\ntag_70:\n    /* \"contracts/exp_flattened.sol\":32005:32009  pair */\n  dup2\n  sub(shl(0xa0, 0x01), 0x01)\n    /* \"contracts/exp_flattened.sol\":31989:32018  EXPPairsUpdated(pair, isPair) */\n  and\n  0xbd644d0494a31fc85cfaeb323e120ba28c5f13ba02e99a38cb904fbc164f4da1\n    /* \"contracts/exp_flattened.sol\":32011:32017  isPair */\n  dup3\n    /* \"contracts/exp_flattened.sol\":31989:32018  EXPPairsUpdated(pair, isPair) */\n  mload(0x40)\n  tag_54\n  swap2\n    /* \"#utility.yul\":3991:4005   */\n  iszero\n    /* \"#utility.yul\":3984:4006   */\n  iszero\n    /* \"#utility.yul\":3966:4007   */\n  dup2\n  mstore\n    /* \"#utility.yul\":3954:3956   */\n  0x20\n    /* \"#utility.yul\":3939:3957   */\n  add\n  swap1\n    /* \"#utility.yul\":3826:4013   */\n  jump\n    /* \"contracts/exp_flattened.sol\":10509:10641  function _checkOwner() internal view virtual {... */\ntag_52:\n    /* \"contracts/exp_flattened.sol\":10417:10423  _owner */\n  and(sub(shl(0xa0, 0x01), 0x01), sload(0x05))\n    /* \"contracts/exp_flattened.sol\":8998:9008  msg.sender */\n  caller\n    /* \"contracts/exp_flattened.sol\":10573:10596  owner() == _msgSender() */\n  eq\n    /* \"contracts/exp_flattened.sol\":10565:10633  require(owner() == _msgSender(), \"Ownable: caller is not the owner\") */\n  tag_76\n  jumpi\n  mload(0x40)\n  shl(0xe5, 0x461bcd)\n  dup2\n  mstore\n    /* \"#utility.yul\":4892:4894   */\n  0x20\n    /* \"contracts/exp_flattened.sol\":10565:10633  require(owner() == _msgSender(), \"Ownable: caller is not the owner\") */\n  0x04\n  dup3\n  add\n    /* \"#utility.yul\":4874:4895   */\n  dup2\n  swap1\n  mstore\n    /* \"#utility.yul\":4911:4929   */\n  0x24\n  dup3\n  add\n    /* \"#utility.yul\":4904:4934   */\n  mstore\n    /* \"#utility.yul\":4970:5004   */\n  0x4f776e61626c653a2063616c6c6572206973206e6f7420746865206f776e6572\n    /* \"#utility.yul\":4950:4968   */\n  0x44\n  dup3\n  add\n    /* \"#utility.yul\":4943:5005   */\n  mstore\n    /* \"#utility.yul\":5022:5040   */\n  0x64\n  add\n    /* \"contracts/exp_flattened.sol\":10565:10633  require(owner() == _msgSender(), \"Ownable: caller is not the owner\") */\n  tag_58\n    /* \"#utility.yul\":4690:5046   */\n  jump\n    /* \"contracts/exp_flattened.sol\":10565:10633  require(owner() == _msgSender(), \"Ownable: caller is not the owner\") */\ntag_76:\n    /* \"contracts/exp_flattened.sol\":10509:10641  function _checkOwner() internal view virtual {... */\n  jump\t// out\n    /* \"contracts/exp_flattened.sol\":32235:33154  function _beforeTokenTransfer(address from, address to, uint256 amount)... */\ntag_61:\n  sub(shl(0xa0, 0x01), 0x01)\n    /* \"contracts/exp_flattened.sol\":32349:32367  from != address(0) */\n  dup4\n  and\n  iszero\n  dup1\n  iszero\n  swap1\n    /* \"contracts/exp_flattened.sol\":32349:32387  from != address(0) && to != address(0) */\n  tag_80\n  jumpi\n  pop\n  sub(shl(0xa0, 0x01), 0x01)\n    /* \"contracts/exp_flattened.sol\":32371:32387  to != address(0) */\n  dup3\n  and\n  iszero\n  iszero\n    /* \"contracts/exp_flattened.sol\":32349:32387  from != address(0) && to != address(0) */\ntag_80:\n    /* \"contracts/exp_flattened.sol\":32345:33098  if (from != address(0) && to != address(0)) {... */\n  iszero\n  tag_81\n  jumpi\n  sub(shl(0xa0, 0x01), 0x01)\n    /* \"contracts/exp_flattened.sol\":32438:32452  EXPPairs[from] */\n  dup4\n  and\n    /* \"contracts/exp_flattened.sol\":32400:32417  uint256 feeAmount */\n  0x00\n    /* \"contracts/exp_flattened.sol\":32438:32452  EXPPairs[from] */\n  swap1\n  dup2\n  mstore\n    /* \"contracts/exp_flattened.sol\":32438:32446  EXPPairs */\n  0x08\n    /* \"contracts/exp_flattened.sol\":32438:32452  EXPPairs[from] */\n  0x20\n  mstore\n  0x40\n  dup2\n  keccak256\n  sload\n  0xff\n  and\n    /* \"contracts/exp_flattened.sol\":32434:32658  if (EXPPairs[from]) {... */\n  iszero\n  tag_82\n  jumpi\n    /* \"contracts/exp_flattened.sol\":32530:32533  100 */\n  0x64\n    /* \"contracts/exp_flattened.sol\":32511:32527  amount * sellfee */\n  tag_83\n    /* \"contracts/exp_flattened.sol\":30418:30419  1 */\n  0x01\n    /* \"contracts/exp_flattened.sol\":32511:32517  amount */\n  dup5\n    /* \"contracts/exp_flattened.sol\":32511:32527  amount * sellfee */\n  tag_84\n  jump\t// in\ntag_83:\n    /* \"contracts/exp_flattened.sol\":32511:32533  amount * sellfee / 100 */\n  tag_85\n  swap2\n  swap1\n  tag_6\n  jump\t// in\ntag_85:\n    /* \"contracts/exp_flattened.sol\":32499:32533  feeAmount = amount * sellfee / 100 */\n  swap1\n  pop\n    /* \"contracts/exp_flattened.sol\":32434:32658  if (EXPPairs[from]) {... */\n  jump(tag_87)\ntag_82:\n  sub(shl(0xa0, 0x01), 0x01)\n    /* \"contracts/exp_flattened.sol\":32555:32567  EXPPairs[to] */\n  dup4\n  and\n  0x00\n  swap1\n  dup2\n  mstore\n    /* \"contracts/exp_flattened.sol\":32555:32563  EXPPairs */\n  0x08\n    /* \"contracts/exp_flattened.sol\":32555:32567  EXPPairs[to] */\n  0x20\n  mstore\n  0x40\n  swap1\n  keccak256\n  sload\n  0xff\n  and\n    /* \"contracts/exp_flattened.sol\":32551:32658  if (EXPPairs[to]) {... */\n  iszero\n  tag_87\n  jumpi\n    /* \"contracts/exp_flattened.sol\":32643:32646  100 */\n  0x64\n    /* \"contracts/exp_flattened.sol\":32625:32640  amount * buyfee */\n  tag_88\n    /* \"contracts/exp_flattened.sol\":30375:30376  1 */\n  0x01\n    /* \"contracts/exp_flattened.sol\":32625:32631  amount */\n  dup5\n    /* \"contracts/exp_flattened.sol\":32625:32640  amount * buyfee */\n  tag_84\n  jump\t// in\ntag_88:\n    /* \"contracts/exp_flattened.sol\":32625:32646  amount * buyfee / 100 */\n  tag_89\n  swap2\n  swap1\n  tag_6\n  jump\t// in\ntag_89:\n    /* \"contracts/exp_flattened.sol\":32613:32646  feeAmount = amount * buyfee / 100 */\n  swap1\n  pop\n    /* \"contracts/exp_flattened.sol\":32551:32658  if (EXPPairs[to]) {... */\ntag_87:\n    /* \"contracts/exp_flattened.sol\":32674:32687  feeAmount > 0 */\n  dup1\n  iszero\n    /* \"contracts/exp_flattened.sol\":32670:33091  if (feeAmount > 0) {... */\n  tag_90\n  jumpi\n    /* \"contracts/exp_flattened.sol\":32753:32775  _burn(from, feeAmount) */\n  tag_91\n    /* \"contracts/exp_flattened.sol\":32759:32763  from */\n  dup5\n    /* \"contracts/exp_flattened.sol\":32765:32774  feeAmount */\n  dup3\n    /* \"contracts/exp_flattened.sol\":32753:32758  _burn */\n  tag_92\n    /* \"contracts/exp_flattened.sol\":32753:32775  _burn(from, feeAmount) */\n  jump\t// in\ntag_91:\n    /* \"contracts/exp_flattened.sol\":32887:32893  expDev */\n  sload(0x0a)\n    /* \"contracts/exp_flattened.sol\":32872:32881  bool sent */\n  0x00\n  swap1\n  sub(shl(0xa0, 0x01), 0x01)\n    /* \"contracts/exp_flattened.sol\":32887:32893  expDev */\n  and\n    /* \"contracts/exp_flattened.sol\":32930:32933  100 */\n  0x64\n    /* \"contracts/exp_flattened.sol\":32906:32927  msg.value * feeAmount */\n  tag_93\n    /* \"contracts/exp_flattened.sol\":32918:32927  feeAmount */\n  dup5\n    /* \"contracts/exp_flattened.sol\":32906:32915  msg.value */\n  callvalue\n    /* \"contracts/exp_flattened.sol\":32906:32927  msg.value * feeAmount */\n  tag_84\n  jump\t// in\ntag_93:\n    /* \"contracts/exp_flattened.sol\":32906:32933  msg.value * feeAmount / 100 */\n  tag_94\n  swap2\n  swap1\n  tag_6\n  jump\t// in\ntag_94:\n    /* \"contracts/exp_flattened.sol\":32887:32938  expDev.call{value: msg.value * feeAmount / 100}(\"\") */\n  mload(0x40)\n  0x00\n  dup2\n  dup2\n  dup2\n  dup6\n  dup8\n  gas\n  call\n  swap3\n  pop\n  pop\n  pop\n  returndatasize\n  dup1\n  0x00\n  dup2\n  eq\n  tag_99\n  jumpi\n  mload(0x40)\n  swap2\n  pop\n  and(add(returndatasize, 0x3f), not(0x1f))\n  dup3\n  add\n  0x40\n  mstore\n  returndatasize\n  dup3\n  mstore\n  returndatasize\n  0x00\n  0x20\n  dup5\n  add\n  returndatacopy\n  jump(tag_98)\ntag_99:\n  0x60\n  swap2\n  pop\ntag_98:\n  pop\n    /* \"contracts/exp_flattened.sol\":32871:32938  (bool sent, ) = expDev.call{value: msg.value * feeAmount / 100}(\"\") */\n  pop\n  swap1\n  pop\n    /* \"contracts/exp_flattened.sol\":32961:32965  sent */\n  dup1\n    /* \"contracts/exp_flattened.sol\":32953:32988  require(sent, \"Failed to send ETH\") */\n  tag_100\n  jumpi\n  mload(0x40)\n  shl(0xe5, 0x461bcd)\n  dup2\n  mstore\n    /* \"#utility.yul\":5636:5638   */\n  0x20\n    /* \"contracts/exp_flattened.sol\":32953:32988  require(sent, \"Failed to send ETH\") */\n  0x04\n  dup3\n  add\n    /* \"#utility.yul\":5618:5639   */\n  mstore\n    /* \"#utility.yul\":5675:5677   */\n  0x12\n    /* \"#utility.yul\":5655:5673   */\n  0x24\n  dup3\n  add\n    /* \"#utility.yul\":5648:5678   */\n  mstore\n  shl(0x73, 0x08cc2d2d8cac840e8de40e6cadcc8408aa89)\n    /* \"#utility.yul\":5694:5712   */\n  0x44\n  dup3\n  add\n    /* \"#utility.yul\":5687:5735   */\n  mstore\n    /* \"#utility.yul\":5752:5770   */\n  0x64\n  add\n    /* \"contracts/exp_flattened.sol\":32953:32988  require(sent, \"Failed to send ETH\") */\n  tag_58\n    /* \"#utility.yul\":5434:5776   */\n  jump\n    /* \"contracts/exp_flattened.sol\":32953:32988  require(sent, \"Failed to send ETH\") */\ntag_100:\n    /* \"contracts/exp_flattened.sol\":33060:33079  amount -= feeAmount */\n  tag_103\n    /* \"contracts/exp_flattened.sol\":33070:33079  feeAmount */\n  dup3\n    /* \"contracts/exp_flattened.sol\":33060:33079  amount -= feeAmount */\n  dup5\n  tag_4\n  jump\t// in\ntag_103:\n  swap3\n  pop\n    /* \"contracts/exp_flattened.sol\":32689:33091  {... */\n  pop\n    /* \"contracts/exp_flattened.sol\":32670:33091  if (feeAmount > 0) {... */\ntag_90:\n    /* \"contracts/exp_flattened.sol\":32389:33098  {... */\n  pop\n    /* \"contracts/exp_flattened.sol\":32345:33098  if (from != address(0) && to != address(0)) {... */\ntag_81:\n    /* \"contracts/exp_flattened.sol\":33106:33150  super._beforeTokenTransfer(from, to, amount) */\n  tag_104\n    /* \"contracts/exp_flattened.sol\":33133:33137  from */\n  dup4\n    /* \"contracts/exp_flattened.sol\":33139:33141  to */\n  dup4\n    /* \"contracts/exp_flattened.sol\":33143:33149  amount */\n  dup4\n  sub(shl(0xe0, 0x01), 0x01)\n    /* \"contracts/exp_flattened.sol\":33106:33150  super._beforeTokenTransfer(from, to, amount) */\n  dup5\n  and\n  jump\t// in\ntag_104:\n    /* \"contracts/exp_flattened.sol\":32235:33154  function _beforeTokenTransfer(address from, address to, uint256 amount)... */\n  pop\n  pop\n  pop\n  jump\t// out\n    /* \"contracts/exp_flattened.sol\":33164:33494  function _afterTokenTransfer(address from, address to, uint256 amount)... */\ntag_67:\n  sub(shl(0xa0, 0x01), 0x01)\n    /* \"contracts/exp_flattened.sol\":33292:33316  isExcludedFromLimits[to] */\n  dup3\n  and\n  0x00\n  swap1\n  dup2\n  mstore\n    /* \"contracts/exp_flattened.sol\":33292:33312  isExcludedFromLimits */\n  0x09\n    /* \"contracts/exp_flattened.sol\":33292:33316  isExcludedFromLimits[to] */\n  0x20\n  mstore\n  0x40\n  swap1\n  keccak256\n  sload\n  0xff\n  and\n    /* \"contracts/exp_flattened.sol\":33287:33431  if (!isExcludedFromLimits[to]) {... */\n  tag_81\n  jumpi\n    /* \"contracts/exp_flattened.sol\":33358:33373  maxWalletAmount */\n  sload(0x0c)\n  sub(shl(0xa0, 0x01), 0x01)\n    /* \"contracts/exp_flattened.sol\":18836:18854  _balances[account] */\n  dup4\n  and\n    /* \"contracts/exp_flattened.sol\":18809:18816  uint256 */\n  0x00\n    /* \"contracts/exp_flattened.sol\":18836:18854  _balances[account] */\n  swap1\n  dup2\n  mstore\n  0x20\n  dup2\n  swap1\n  mstore\n  0x40\n  swap1\n  keccak256\n  sload\n    /* \"contracts/exp_flattened.sol\":33341:33373  balanceOf(to) <= maxWalletAmount */\n  gt\n  iszero\n    /* \"contracts/exp_flattened.sol\":33333:33419  require(balanceOf(to) <= maxWalletAmount, \"MaxWallet: Cannot exceed max wallet limit\") */\n  tag_81\n  jumpi\n  mload(0x40)\n  shl(0xe5, 0x461bcd)\n  dup2\n  mstore\n    /* \"#utility.yul\":5983:5985   */\n  0x20\n    /* \"contracts/exp_flattened.sol\":33333:33419  require(balanceOf(to) <= maxWalletAmount, \"MaxWallet: Cannot exceed max wallet limit\") */\n  0x04\n  dup3\n  add\n    /* \"#utility.yul\":5965:5986   */\n  mstore\n    /* \"#utility.yul\":6022:6024   */\n  0x29\n    /* \"#utility.yul\":6002:6020   */\n  0x24\n  dup3\n  add\n    /* \"#utility.yul\":5995:6025   */\n  mstore\n    /* \"#utility.yul\":6061:6095   */\n  0x4d617857616c6c65743a2043616e6e6f7420657863656564206d61782077616c\n    /* \"#utility.yul\":6041:6059   */\n  0x44\n  dup3\n  add\n    /* \"#utility.yul\":6034:6096   */\n  mstore\n  shl(0xba, 0x1b195d081b1a5b5a5d)\n    /* \"#utility.yul\":6112:6130   */\n  0x64\n  dup3\n  add\n    /* \"#utility.yul\":6105:6144   */\n  mstore\n    /* \"#utility.yul\":6161:6180   */\n  0x84\n  add\n    /* \"contracts/exp_flattened.sol\":33333:33419  require(balanceOf(to) <= maxWalletAmount, \"MaxWallet: Cannot exceed max wallet limit\") */\n  tag_58\n    /* \"#utility.yul\":5781:6186   */\n  jump\n    /* \"contracts/exp_flattened.sol\":24867:25542  function _burn(address account, uint256 amount) internal virtual {... */\ntag_92:\n  sub(shl(0xa0, 0x01), 0x01)\n    /* \"contracts/exp_flattened.sol\":24951:24972  account != address(0) */\n  dup3\n  and\n    /* \"contracts/exp_flattened.sol\":24943:25010  require(account != address(0), \"ERC20: burn from the zero address\") */\n  tag_116\n  jumpi\n  mload(0x40)\n  shl(0xe5, 0x461bcd)\n  dup2\n  mstore\n    /* \"#utility.yul\":6393:6395   */\n  0x20\n    /* \"contracts/exp_flattened.sol\":24943:25010  require(account != address(0), \"ERC20: burn from the zero address\") */\n  0x04\n  dup3\n  add\n    /* \"#utility.yul\":6375:6396   */\n  mstore\n    /* \"#utility.yul\":6432:6434   */\n  0x21\n    /* \"#utility.yul\":6412:6430   */\n  0x24\n  dup3\n  add\n    /* \"#utility.yul\":6405:6435   */\n  mstore\n    /* \"#utility.yul\":6471:6505   */\n  0x45524332303a206275726e2066726f6d20746865207a65726f20616464726573\n    /* \"#utility.yul\":6451:6469   */\n  0x44\n  dup3\n  add\n    /* \"#utility.yul\":6444:6506   */\n  mstore\n  shl(0xf8, 0x73)\n    /* \"#utility.yul\":6522:6540   */\n  0x64\n  dup3\n  add\n    /* \"#utility.yul\":6515:6546   */\n  mstore\n    /* \"#utility.yul\":6563:6582   */\n  0x84\n  add\n    /* \"contracts/exp_flattened.sol\":24943:25010  require(account != address(0), \"ERC20: burn from the zero address\") */\n  tag_58\n    /* \"#utility.yul\":6191:6588   */\n  jump\n    /* \"contracts/exp_flattened.sol\":24943:25010  require(account != address(0), \"ERC20: burn from the zero address\") */\ntag_116:\n    /* \"contracts/exp_flattened.sol\":25023:25072  _beforeTokenTransfer(account, address(0), amount) */\n  tag_119\n    /* \"contracts/exp_flattened.sol\":25044:25051  account */\n  dup3\n    /* \"contracts/exp_flattened.sol\":25061:25062  0 */\n  0x00\n    /* \"contracts/exp_flattened.sol\":25065:25071  amount */\n  dup4\n    /* \"contracts/exp_flattened.sol\":25023:25043  _beforeTokenTransfer */\n  tag_61\n    /* \"contracts/exp_flattened.sol\":25023:25072  _beforeTokenTransfer(account, address(0), amount) */\n  jump\t// in\ntag_119:\n  sub(shl(0xa0, 0x01), 0x01)\n    /* \"contracts/exp_flattened.sol\":25110:25128  _balances[account] */\n  dup3\n  and\n    /* \"contracts/exp_flattened.sol\":25085:25107  uint256 accountBalance */\n  0x00\n    /* \"contracts/exp_flattened.sol\":25110:25128  _balances[account] */\n  swap1\n  dup2\n  mstore\n  0x20\n  dup2\n  swap1\n  mstore\n  0x40\n  swap1\n  keccak256\n  sload\n    /* \"contracts/exp_flattened.sol\":25147:25171  accountBalance >= amount */\n  dup2\n  dup2\n  lt\n  iszero\n    /* \"contracts/exp_flattened.sol\":25139:25210  require(accountBalance >= amount, \"ERC20: burn amount exceeds balance\") */\n  tag_120\n  jumpi\n  mload(0x40)\n  shl(0xe5, 0x461bcd)\n  dup2\n  mstore\n    /* \"#utility.yul\":6795:6797   */\n  0x20\n    /* \"contracts/exp_flattened.sol\":25139:25210  require(accountBalance >= amount, \"ERC20: burn amount exceeds balance\") */\n  0x04\n  dup3\n  add\n    /* \"#utility.yul\":6777:6798   */\n  mstore\n    /* \"#utility.yul\":6834:6836   */\n  0x22\n    /* \"#utility.yul\":6814:6832   */\n  0x24\n  dup3\n  add\n    /* \"#utility.yul\":6807:6837   */\n  mstore\n    /* \"#utility.yul\":6873:6907   */\n  0x45524332303a206275726e20616d6f756e7420657863656564732062616c616e\n    /* \"#utility.yul\":6853:6871   */\n  0x44\n  dup3\n  add\n    /* \"#utility.yul\":6846:6908   */\n  mstore\n  shl(0xf0, 0x6365)\n    /* \"#utility.yul\":6924:6942   */\n  0x64\n  dup3\n  add\n    /* \"#utility.yul\":6917:6949   */\n  mstore\n    /* \"#utility.yul\":6966:6985   */\n  0x84\n  add\n    /* \"contracts/exp_flattened.sol\":25139:25210  require(accountBalance >= amount, \"ERC20: burn amount exceeds balance\") */\n  tag_58\n    /* \"#utility.yul\":6593:6991   */\n  jump\n    /* \"contracts/exp_flattened.sol\":25139:25210  require(accountBalance >= amount, \"ERC20: burn amount exceeds balance\") */\ntag_120:\n  sub(shl(0xa0, 0x01), 0x01)\n    /* \"contracts/exp_flattened.sol\":25246:25264  _balances[account] */\n  dup4\n  and\n    /* \"contracts/exp_flattened.sol\":25246:25255  _balances */\n  0x00\n    /* \"contracts/exp_flattened.sol\":25246:25264  _balances[account] */\n  dup2\n  dup2\n  mstore\n  0x20\n  dup2\n  dup2\n  mstore\n  0x40\n  dup1\n  dup4\n  keccak256\n    /* \"contracts/exp_flattened.sol\":25267:25290  accountBalance - amount */\n  dup7\n  dup7\n  sub\n    /* \"contracts/exp_flattened.sol\":25246:25290  _balances[account] = accountBalance - amount */\n  swap1\n  sstore\n    /* \"contracts/exp_flattened.sol\":25385:25397  _totalSupply */\n  0x02\n    /* \"contracts/exp_flattened.sol\":25385:25407  _totalSupply -= amount */\n  dup1\n  sload\n  dup8\n  swap1\n  sub\n  swap1\n  sstore\n    /* \"contracts/exp_flattened.sol\":25436:25473  Transfer(account, address(0), amount) */\n  mload\n    /* \"#utility.yul\":4654:4679   */\n  dup6\n  dup2\n  mstore\n    /* \"contracts/exp_flattened.sol\":25246:25255  _balances */\n  swap2\n  swap3\n    /* \"contracts/exp_flattened.sol\":25246:25264  _balances[account] */\n  swap2\n  0x00\n  dup1\n  mload\n  0x20\n  data_ada389e1fc24a8587c776340efb91b36e675792ab631816100d55df0b5cf3cbc\n  dup4\n  codecopy\n  dup2\n  mload\n  swap2\n  mstore\n    /* \"contracts/exp_flattened.sol\":25436:25473  Transfer(account, address(0), amount) */\n  swap2\n    /* \"#utility.yul\":4627:4645   */\n  add\n    /* \"contracts/exp_flattened.sol\":25436:25473  Transfer(account, address(0), amount) */\n  mload(0x40)\n  dup1\n  swap2\n  sub\n  swap1\n  log3\n    /* \"contracts/exp_flattened.sol\":25486:25534  _afterTokenTransfer(account, address(0), amount) */\n  tag_104\n    /* \"contracts/exp_flattened.sol\":25506:25513  account */\n  dup4\n    /* \"contracts/exp_flattened.sol\":25523:25524  0 */\n  0x00\n    /* \"contracts/exp_flattened.sol\":25527:25533  amount */\n  dup5\n    /* \"contracts/exp_flattened.sol\":25486:25505  _afterTokenTransfer */\n  tag_67\n    /* \"contracts/exp_flattened.sol\":25486:25534  _afterTokenTransfer(account, address(0), amount) */\n  jump\t// in\n    /* \"#utility.yul\":14:141   */\ntag_127:\n    /* \"#utility.yul\":75:85   */\n  0x4e487b71\n    /* \"#utility.yul\":70:73   */\n  0xe0\n    /* \"#utility.yul\":66:86   */\n  shl\n    /* \"#utility.yul\":63:64   */\n  0x00\n    /* \"#utility.yul\":56:87   */\n  mstore\n    /* \"#utility.yul\":106:110   */\n  0x11\n    /* \"#utility.yul\":103:104   */\n  0x04\n    /* \"#utility.yul\":96:111   */\n  mstore\n    /* \"#utility.yul\":130:134   */\n  0x24\n    /* \"#utility.yul\":127:128   */\n  0x00\n    /* \"#utility.yul\":120:135   */\n  revert\n    /* \"#utility.yul\":146:274   */\ntag_4:\n    /* \"#utility.yul\":213:222   */\n  dup2\n  dup2\n  sub\n    /* \"#utility.yul\":234:245   */\n  dup2\n  dup2\n  gt\n    /* \"#utility.yul\":231:268   */\n  iszero\n  tag_137\n  jumpi\n    /* \"#utility.yul\":248:266   */\n  tag_137\n  tag_127\n  jump\t// in\ntag_137:\n    /* \"#utility.yul\":146:274   */\n  swap3\n  swap2\n  pop\n  pop\n  jump\t// out\n    /* \"#utility.yul\":279:496   */\ntag_6:\n    /* \"#utility.yul\":319:320   */\n  0x00\n    /* \"#utility.yul\":345:346   */\n  dup3\n    /* \"#utility.yul\":335:467   */\n  tag_139\n  jumpi\n    /* \"#utility.yul\":389:399   */\n  0x4e487b71\n    /* \"#utility.yul\":384:387   */\n  0xe0\n    /* \"#utility.yul\":380:400   */\n  shl\n    /* \"#utility.yul\":377:378   */\n  0x00\n    /* \"#utility.yul\":370:401   */\n  mstore\n    /* \"#utility.yul\":424:428   */\n  0x12\n    /* \"#utility.yul\":421:422   */\n  0x04\n    /* \"#utility.yul\":414:429   */\n  mstore\n    /* \"#utility.yul\":452:456   */\n  0x24\n    /* \"#utility.yul\":449:450   */\n  0x00\n    /* \"#utility.yul\":442:457   */\n  revert\n    /* \"#utility.yul\":335:467   */\ntag_139:\n  pop\n    /* \"#utility.yul\":481:490   */\n  div\n  swap1\n    /* \"#utility.yul\":279:496   */\n  jump\t// out\n    /* \"#utility.yul\":501:628   */\ntag_128:\n    /* \"#utility.yul\":562:572   */\n  0x4e487b71\n    /* \"#utility.yul\":557:560   */\n  0xe0\n    /* \"#utility.yul\":553:573   */\n  shl\n    /* \"#utility.yul\":550:551   */\n  0x00\n    /* \"#utility.yul\":543:574   */\n  mstore\n    /* \"#utility.yul\":593:597   */\n  0x41\n    /* \"#utility.yul\":590:591   */\n  0x04\n    /* \"#utility.yul\":583:598   */\n  mstore\n    /* \"#utility.yul\":617:621   */\n  0x24\n    /* \"#utility.yul\":614:615   */\n  0x00\n    /* \"#utility.yul\":607:622   */\n  revert\n    /* \"#utility.yul\":633:1013   */\ntag_129:\n    /* \"#utility.yul\":712:713   */\n  0x01\n    /* \"#utility.yul\":708:720   */\n  dup2\n  dup2\n  shr\n  swap1\n    /* \"#utility.yul\":755:767   */\n  dup3\n  and\n  dup1\n    /* \"#utility.yul\":776:837   */\n  tag_142\n  jumpi\n    /* \"#utility.yul\":830:834   */\n  0x7f\n    /* \"#utility.yul\":822:828   */\n  dup3\n    /* \"#utility.yul\":818:835   */\n  and\n    /* \"#utility.yul\":808:835   */\n  swap2\n  pop\n    /* \"#utility.yul\":776:837   */\ntag_142:\n    /* \"#utility.yul\":883:885   */\n  0x20\n    /* \"#utility.yul\":875:881   */\n  dup3\n    /* \"#utility.yul\":872:886   */\n  lt\n    /* \"#utility.yul\":852:870   */\n  dup2\n    /* \"#utility.yul\":849:887   */\n  sub\n    /* \"#utility.yul\":846:1007   */\n  tag_143\n  jumpi\n    /* \"#utility.yul\":929:939   */\n  0x4e487b71\n    /* \"#utility.yul\":924:927   */\n  0xe0\n    /* \"#utility.yul\":920:940   */\n  shl\n    /* \"#utility.yul\":917:918   */\n  0x00\n    /* \"#utility.yul\":910:941   */\n  mstore\n    /* \"#utility.yul\":964:968   */\n  0x22\n    /* \"#utility.yul\":961:962   */\n  0x04\n    /* \"#utility.yul\":954:969   */\n  mstore\n    /* \"#utility.yul\":992:996   */\n  0x24\n    /* \"#utility.yul\":989:990   */\n  0x00\n    /* \"#utility.yul\":982:997   */\n  revert\n    /* \"#utility.yul\":846:1007   */\ntag_143:\n  pop\n    /* \"#utility.yul\":633:1013   */\n  swap2\n  swap1\n  pop\n  jump\t// out\n    /* \"#utility.yul\":1144:1689   */\ntag_131:\n    /* \"#utility.yul\":1246:1248   */\n  0x1f\n    /* \"#utility.yul\":1241:1244   */\n  dup3\n    /* \"#utility.yul\":1238:1249   */\n  gt\n    /* \"#utility.yul\":1235:1683   */\n  iszero\n  tag_104\n  jumpi\n    /* \"#utility.yul\":1282:1283   */\n  0x00\n    /* \"#utility.yul\":1307:1312   */\n  dup2\n    /* \"#utility.yul\":1303:1305   */\n  dup2\n    /* \"#utility.yul\":1296:1313   */\n  mstore\n    /* \"#utility.yul\":1352:1356   */\n  0x20\n    /* \"#utility.yul\":1348:1350   */\n  dup2\n    /* \"#utility.yul\":1338:1357   */\n  keccak256\n    /* \"#utility.yul\":1422:1424   */\n  0x1f\n    /* \"#utility.yul\":1410:1420   */\n  dup6\n    /* \"#utility.yul\":1406:1425   */\n  add\n    /* \"#utility.yul\":1403:1404   */\n  0x05\n    /* \"#utility.yul\":1399:1426   */\n  shr\n    /* \"#utility.yul\":1393:1397   */\n  dup2\n    /* \"#utility.yul\":1389:1427   */\n  add\n    /* \"#utility.yul\":1458:1462   */\n  0x20\n    /* \"#utility.yul\":1446:1456   */\n  dup7\n    /* \"#utility.yul\":1443:1463   */\n  lt\n    /* \"#utility.yul\":1440:1487   */\n  iszero\n  tag_147\n  jumpi\n  pop\n    /* \"#utility.yul\":1481:1485   */\n  dup1\n    /* \"#utility.yul\":1440:1487   */\ntag_147:\n    /* \"#utility.yul\":1536:1538   */\n  0x1f\n    /* \"#utility.yul\":1531:1534   */\n  dup6\n    /* \"#utility.yul\":1527:1539   */\n  add\n    /* \"#utility.yul\":1524:1525   */\n  0x05\n    /* \"#utility.yul\":1520:1540   */\n  shr\n    /* \"#utility.yul\":1514:1518   */\n  dup3\n    /* \"#utility.yul\":1510:1541   */\n  add\n    /* \"#utility.yul\":1500:1541   */\n  swap2\n  pop\n    /* \"#utility.yul\":1591:1673   */\ntag_148:\n    /* \"#utility.yul\":1609:1611   */\n  dup2\n    /* \"#utility.yul\":1602:1607   */\n  dup2\n    /* \"#utility.yul\":1599:1612   */\n  lt\n    /* \"#utility.yul\":1591:1673   */\n  iszero\n  tag_150\n  jumpi\n    /* \"#utility.yul\":1654:1671   */\n  dup3\n  dup2\n  sstore\n    /* \"#utility.yul\":1635:1636   */\n  0x01\n    /* \"#utility.yul\":1624:1637   */\n  add\n    /* \"#utility.yul\":1591:1673   */\n  jump(tag_148)\ntag_150:\n    /* \"#utility.yul\":1595:1598   */\n  pop\n  pop\n  pop\n    /* \"#utility.yul\":1144:1689   */\n  pop\n  pop\n  pop\n  jump\t// out\n    /* \"#utility.yul\":1865:3217   */\ntag_13:\n    /* \"#utility.yul\":1985:1995   */\n  dup2\n  mload\n  sub(shl(0x40, 0x01), 0x01)\n    /* \"#utility.yul\":2007:2037   */\n  dup2\n  gt\n    /* \"#utility.yul\":2004:2060   */\n  iszero\n  tag_154\n  jumpi\n    /* \"#utility.yul\":2040:2058   */\n  tag_154\n  tag_128\n  jump\t// in\ntag_154:\n    /* \"#utility.yul\":2069:2166   */\n  tag_155\n    /* \"#utility.yul\":2159:2165   */\n  dup2\n    /* \"#utility.yul\":2119:2157   */\n  tag_156\n    /* \"#utility.yul\":2151:2155   */\n  dup5\n    /* \"#utility.yul\":2145:2156   */\n  sload\n    /* \"#utility.yul\":2119:2157   */\n  tag_129\n  jump\t// in\ntag_156:\n    /* \"#utility.yul\":2113:2117   */\n  dup5\n    /* \"#utility.yul\":2069:2166   */\n  tag_131\n  jump\t// in\ntag_155:\n    /* \"#utility.yul\":2221:2225   */\n  0x20\n  dup1\n    /* \"#utility.yul\":2285:2287   */\n  0x1f\n    /* \"#utility.yul\":2274:2288   */\n  dup4\n  gt\n    /* \"#utility.yul\":2302:2303   */\n  0x01\n    /* \"#utility.yul\":2297:2960   */\n  dup2\n  eq\n  tag_158\n  jumpi\n    /* \"#utility.yul\":3004:3005   */\n  0x00\n    /* \"#utility.yul\":3021:3027   */\n  dup5\n    /* \"#utility.yul\":3018:3107   */\n  iszero\n  tag_159\n  jumpi\n  pop\n    /* \"#utility.yul\":3073:3092   */\n  dup6\n  dup4\n  add\n    /* \"#utility.yul\":3067:3093   */\n  mload\n    /* \"#utility.yul\":3018:3107   */\ntag_159:\n  not(0x00)\n    /* \"#utility.yul\":1822:1823   */\n  0x03\n    /* \"#utility.yul\":1818:1829   */\n  dup7\n  swap1\n  shl\n    /* \"#utility.yul\":1814:1838   */\n  shr\n    /* \"#utility.yul\":1810:1839   */\n  not\n    /* \"#utility.yul\":1800:1840   */\n  and\n    /* \"#utility.yul\":1846:1847   */\n  0x01\n    /* \"#utility.yul\":1842:1853   */\n  dup6\n  swap1\n  shl\n    /* \"#utility.yul\":1797:1854   */\n  or\n    /* \"#utility.yul\":3120:3201   */\n  dup6\n  sstore\n    /* \"#utility.yul\":2267:3211   */\n  jump(tag_150)\n    /* \"#utility.yul\":2297:2960   */\ntag_158:\n    /* \"#utility.yul\":1091:1092   */\n  0x00\n    /* \"#utility.yul\":1084:1098   */\n  dup6\n  dup2\n  mstore\n    /* \"#utility.yul\":1128:1132   */\n  0x20\n    /* \"#utility.yul\":1115:1133   */\n  dup2\n  keccak256\n  not(0x1f)\n    /* \"#utility.yul\":2333:2353   */\n  dup7\n  and\n  swap2\n    /* \"#utility.yul\":2451:2687   */\ntag_162:\n    /* \"#utility.yul\":2465:2472   */\n  dup3\n    /* \"#utility.yul\":2462:2463   */\n  dup2\n    /* \"#utility.yul\":2459:2473   */\n  lt\n    /* \"#utility.yul\":2451:2687   */\n  iszero\n  tag_164\n  jumpi\n    /* \"#utility.yul\":2554:2573   */\n  dup9\n  dup7\n  add\n    /* \"#utility.yul\":2548:2574   */\n  mload\n    /* \"#utility.yul\":2533:2575   */\n  dup3\n  sstore\n    /* \"#utility.yul\":2646:2673   */\n  swap5\n  dup5\n  add\n  swap5\n    /* \"#utility.yul\":2614:2615   */\n  0x01\n    /* \"#utility.yul\":2602:2616   */\n  swap1\n  swap2\n  add\n  swap1\n    /* \"#utility.yul\":2481:2500   */\n  dup5\n  add\n    /* \"#utility.yul\":2451:2687   */\n  jump(tag_162)\ntag_164:\n    /* \"#utility.yul\":2455:2458   */\n  pop\n    /* \"#utility.yul\":2715:2721   */\n  dup6\n    /* \"#utility.yul\":2706:2713   */\n  dup3\n    /* \"#utility.yul\":2703:2722   */\n  lt\n    /* \"#utility.yul\":2700:2901   */\n  iszero\n  tag_165\n  jumpi\n    /* \"#utility.yul\":2776:2795   */\n  dup8\n  dup6\n  add\n    /* \"#utility.yul\":2770:2796   */\n  mload\n  not(0x00)\n    /* \"#utility.yul\":2859:2860   */\n  0x03\n    /* \"#utility.yul\":2855:2869   */\n  dup9\n  swap1\n  shl\n    /* \"#utility.yul\":2871:2874   */\n  0xf8\n    /* \"#utility.yul\":2851:2875   */\n  and\n    /* \"#utility.yul\":2847:2884   */\n  shr\n    /* \"#utility.yul\":2843:2885   */\n  not\n    /* \"#utility.yul\":2828:2886   */\n  and\n    /* \"#utility.yul\":2813:2887   */\n  dup2\n  sstore\n    /* \"#utility.yul\":2700:2901   */\ntag_165:\n  pop\n  pop\n  pop\n  pop\n  pop\n    /* \"#utility.yul\":2947:2948   */\n  0x01\n    /* \"#utility.yul\":2931:2945   */\n  swap1\n  dup2\n  shl\n    /* \"#utility.yul\":2927:2949   */\n  add\n    /* \"#utility.yul\":2914:2950   */\n  swap1\n  sstore\n  pop\n    /* \"#utility.yul\":1865:3217   */\n  jump\t// out\n    /* \"#utility.yul\":3222:3512   */\ntag_38:\n    /* \"#utility.yul\":3292:3298   */\n  0x00\n    /* \"#utility.yul\":3345:3347   */\n  0x20\n    /* \"#utility.yul\":3333:3342   */\n  dup3\n    /* \"#utility.yul\":3324:3331   */\n  dup5\n    /* \"#utility.yul\":3320:3343   */\n  sub\n    /* \"#utility.yul\":3316:3348   */\n  slt\n    /* \"#utility.yul\":3313:3365   */\n  iszero\n  tag_167\n  jumpi\n    /* \"#utility.yul\":3361:3362   */\n  0x00\n    /* \"#utility.yul\":3358:3359   */\n  dup1\n    /* \"#utility.yul\":3351:3363   */\n  revert\n    /* \"#utility.yul\":3313:3365   */\ntag_167:\n    /* \"#utility.yul\":3387:3403   */\n  dup2\n  mload\n  sub(shl(0xa0, 0x01), 0x01)\n    /* \"#utility.yul\":3432:3463   */\n  dup2\n  and\n    /* \"#utility.yul\":3422:3464   */\n  dup2\n  eq\n    /* \"#utility.yul\":3412:3482   */\n  tag_168\n  jumpi\n    /* \"#utility.yul\":3478:3479   */\n  0x00\n    /* \"#utility.yul\":3475:3476   */\n  dup1\n    /* \"#utility.yul\":3468:3480   */\n  revert\n    /* \"#utility.yul\":3412:3482   */\ntag_168:\n    /* \"#utility.yul\":3501:3506   */\n  swap4\n    /* \"#utility.yul\":3222:3512   */\n  swap3\n  pop\n  pop\n  pop\n  jump\t// out\n    /* \"#utility.yul\":4378:4503   */\ntag_63:\n    /* \"#utility.yul\":4443:4452   */\n  dup1\n  dup3\n  add\n    /* \"#utility.yul\":4464:4474   */\n  dup1\n  dup3\n  gt\n    /* \"#utility.yul\":4461:4497   */\n  iszero\n  tag_137\n  jumpi\n    /* \"#utility.yul\":4477:4495   */\n  tag_137\n  tag_127\n  jump\t// in\n    /* \"#utility.yul\":5051:5219   */\ntag_84:\n    /* \"#utility.yul\":5124:5133   */\n  dup1\n  dup3\n  mul\n    /* \"#utility.yul\":5155:5164   */\n  dup2\n  iszero\n    /* \"#utility.yul\":5172:5187   */\n  dup3\n  dup3\n  div\n    /* \"#utility.yul\":5166:5188   */\n  dup5\n  eq\n    /* \"#utility.yul\":5152:5189   */\n  or\n    /* \"#utility.yul\":5142:5213   */\n  tag_137\n  jumpi\n    /* \"#utility.yul\":5193:5211   */\n  tag_137\n  tag_127\n  jump\t// in\n    /* \"#utility.yul\":6593:6991   */\ntag_133:\n    /* \"contracts/exp_flattened.sol\":29626:33497  contract Experiment is ERC20, ERC20Burnable, Ownable {... */\n  dataSize(sub_0)\n  dup1\n  dataOffset(sub_0)\n  0x00\n  codecopy\n  0x00\n  return\nstop\ndata_ada389e1fc24a8587c776340efb91b36e675792ab631816100d55df0b5cf3cbc ddf252ad1be2c89b69c2b068fc378daa952ba7f163c4a11628f55a4df523b3ef\n\nsub_0: assembly {\n        /* \"contracts/exp_flattened.sol\":29626:33497  contract Experiment is ERC20, ERC20Burnable, Ownable {... */\n      mstore(0x40, 0x80)\n      jumpi(tag_1, lt(calldatasize, 0x04))\n      shr(0xe0, calldataload(0x00))\n      dup1\n      0x79cc6790\n      gt\n      tag_27\n      jumpi\n      dup1\n      0xa01c3483\n      gt\n      tag_28\n      jumpi\n      dup1\n      0xa01c3483\n      eq\n      tag_21\n      jumpi\n      dup1\n      0xa457c2d7\n      eq\n      tag_22\n      jumpi\n      dup1\n      0xa9059cbb\n      eq\n      tag_23\n      jumpi\n      dup1\n      0xc0a904a2\n      eq\n      tag_24\n      jumpi\n      dup1\n      0xdd62ed3e\n      eq\n      tag_25\n      jumpi\n      dup1\n      0xf2fde38b\n      eq\n      tag_26\n      jumpi\n      0x00\n      dup1\n      revert\n    tag_28:\n      dup1\n      0x79cc6790\n      eq\n      tag_15\n      jumpi\n      dup1\n      0x86a22eff\n      eq\n      tag_16\n      jumpi\n      dup1\n      0x8da5cb5b\n      eq\n      tag_17\n      jumpi\n      dup1\n      0x8fffabed\n      eq\n      tag_18\n      jumpi\n      dup1\n      0x95d89b41\n      eq\n      tag_19\n      jumpi\n      dup1\n      0x984ae06e\n      eq\n      tag_20\n      jumpi\n      0x00\n      dup1\n      revert\n    tag_27:\n      dup1\n      0x39509351\n      gt\n      tag_29\n      jumpi\n      dup1\n      0x39509351\n      eq\n      tag_9\n      jumpi\n      dup1\n      0x42966c68\n      eq\n      tag_10\n      jumpi\n      dup1\n      0x502f7446\n      eq\n      tag_11\n      jumpi\n      dup1\n      0x5cce86cd\n      eq\n      tag_12\n      jumpi\n      dup1\n      0x70a08231\n      eq\n      tag_13\n      jumpi\n      dup1\n      0x715018a6\n      eq\n      tag_14\n      jumpi\n      0x00\n      dup1\n      revert\n    tag_29:\n      dup1\n      0xa201f9\n      eq\n      tag_3\n      jumpi\n      dup1\n      0x06fdde03\n      eq\n      tag_4\n      jumpi\n      dup1\n      0x095ea7b3\n      eq\n      tag_5\n      jumpi\n      dup1\n      0x18160ddd\n      eq\n      tag_6\n      jumpi\n      dup1\n      0x23b872dd\n      eq\n      tag_7\n      jumpi\n      dup1\n      0x313ce567\n      eq\n      tag_8\n      jumpi\n      0x00\n      dup1\n      revert\n    tag_1:\n      jumpi(tag_2, calldatasize)\n      stop\n    tag_2:\n      0x00\n      dup1\n      revert\n        /* \"contracts/exp_flattened.sol\":29761:29802  mapping (address => bool) public EXPPairs */\n    tag_3:\n      callvalue\n      dup1\n      iszero\n      tag_32\n      jumpi\n      0x00\n      dup1\n      revert\n    tag_32:\n      pop\n      tag_33\n      tag_34\n      calldatasize\n      0x04\n      tag_35\n      jump\t// in\n    tag_34:\n      mstore(0x20, 0x08)\n      0x00\n      swap1\n      dup2\n      mstore\n      0x40\n      swap1\n      keccak256\n      sload\n      0xff\n      and\n      dup2\n      jump\n    tag_33:\n      mload(0x40)\n        /* \"#utility.yul\":548:562   */\n      swap1\n      iszero\n        /* \"#utility.yul\":541:563   */\n      iszero\n        /* \"#utility.yul\":523:564   */\n      dup2\n      mstore\n        /* \"#utility.yul\":511:513   */\n      0x20\n        /* \"#utility.yul\":496:514   */\n      add\n        /* \"contracts/exp_flattened.sol\":29761:29802  mapping (address => bool) public EXPPairs */\n    tag_37:\n      mload(0x40)\n      dup1\n      swap2\n      sub\n      swap1\n      return\n        /* \"contracts/exp_flattened.sol\":17435:17535  function name() public view virtual override returns (string memory) {... */\n    tag_4:\n      callvalue\n      dup1\n      iszero\n      tag_39\n      jumpi\n      0x00\n      dup1\n      revert\n    tag_39:\n      pop\n      tag_40\n      tag_41\n      jump\t// in\n    tag_40:\n      mload(0x40)\n      tag_37\n      swap2\n      swap1\n      tag_43\n      jump\t// in\n        /* \"contracts/exp_flattened.sol\":19795:19996  function approve(address spender, uint256 amount) public virtual override returns (bool) {... */\n    tag_5:\n      callvalue\n      dup1\n      iszero\n      tag_44\n      jumpi\n      0x00\n      dup1\n      revert\n    tag_44:\n      pop\n      tag_33\n      tag_46\n      calldatasize\n      0x04\n      tag_47\n      jump\t// in\n    tag_46:\n      tag_48\n      jump\t// in\n        /* \"contracts/exp_flattened.sol\":18564:18672  function totalSupply() public view virtual override returns (uint256) {... */\n    tag_6:\n      callvalue\n      dup1\n      iszero\n      tag_50\n      jumpi\n      0x00\n      dup1\n      revert\n    tag_50:\n      pop\n        /* \"contracts/exp_flattened.sol\":18652:18664  _totalSupply */\n      sload(0x02)\n        /* \"contracts/exp_flattened.sol\":18564:18672  function totalSupply() public view virtual override returns (uint256) {... */\n    tag_51:\n      mload(0x40)\n        /* \"#utility.yul\":1533:1558   */\n      swap1\n      dup2\n      mstore\n        /* \"#utility.yul\":1521:1523   */\n      0x20\n        /* \"#utility.yul\":1506:1524   */\n      add\n        /* \"contracts/exp_flattened.sol\":18564:18672  function totalSupply() public view virtual override returns (uint256) {... */\n      tag_37\n        /* \"#utility.yul\":1387:1564   */\n      jump\n        /* \"contracts/exp_flattened.sol\":20576:20837  function transferFrom(address from, address to, uint256 amount) public virtual override returns (bool) {... */\n    tag_7:\n      callvalue\n      dup1\n      iszero\n      tag_55\n      jumpi\n      0x00\n      dup1\n      revert\n    tag_55:\n      pop\n      tag_33\n      tag_57\n      calldatasize\n      0x04\n      tag_58\n      jump\t// in\n    tag_57:\n      tag_59\n      jump\t// in\n        /* \"contracts/exp_flattened.sol\":31162:31247  function decimals() public pure override returns (uint8) {... */\n    tag_8:\n      callvalue\n      dup1\n      iszero\n      tag_61\n      jumpi\n      0x00\n      dup1\n      revert\n    tag_61:\n      pop\n      mload(0x40)\n        /* \"contracts/exp_flattened.sol\":31237:31239  18 */\n      0x12\n        /* \"#utility.yul\":2044:2080   */\n      dup2\n      mstore\n        /* \"#utility.yul\":2032:2034   */\n      0x20\n        /* \"#utility.yul\":2017:2035   */\n      add\n        /* \"contracts/exp_flattened.sol\":31162:31247  function decimals() public pure override returns (uint8) {... */\n      tag_37\n        /* \"#utility.yul\":1902:2086   */\n      jump\n        /* \"contracts/exp_flattened.sol\":21246:21484  function increaseAllowance(address spender, uint256 addedValue) public virtual returns (bool) {... */\n    tag_9:\n      callvalue\n      dup1\n      iszero\n      tag_66\n      jumpi\n      0x00\n      dup1\n      revert\n    tag_66:\n      pop\n      tag_33\n      tag_68\n      calldatasize\n      0x04\n      tag_47\n      jump\t// in\n    tag_68:\n      tag_69\n      jump\t// in\n        /* \"contracts/exp_flattened.sol\":28972:29063  function burn(uint256 amount) public virtual {... */\n    tag_10:\n      callvalue\n      dup1\n      iszero\n      tag_71\n      jumpi\n      0x00\n      dup1\n      revert\n    tag_71:\n      pop\n      tag_72\n      tag_73\n      calldatasize\n      0x04\n      tag_74\n      jump\t// in\n    tag_73:\n      tag_75\n      jump\t// in\n    tag_72:\n      stop\n        /* \"contracts/exp_flattened.sol\":29692:29726  IUniswapV2Router02 public routerV2 */\n    tag_11:\n      callvalue\n      dup1\n      iszero\n      tag_76\n      jumpi\n      0x00\n      dup1\n      revert\n    tag_76:\n      pop\n      sload(0x06)\n      tag_77\n      swap1\n      sub(shl(0xa0, 0x01), 0x01)\n      and\n      dup2\n      jump\n    tag_77:\n      mload(0x40)\n      sub(shl(0xa0, 0x01), 0x01)\n        /* \"#utility.yul\":2466:2498   */\n      swap1\n      swap2\n      and\n        /* \"#utility.yul\":2448:2499   */\n      dup2\n      mstore\n        /* \"#utility.yul\":2436:2438   */\n      0x20\n        /* \"#utility.yul\":2421:2439   */\n      add\n        /* \"contracts/exp_flattened.sol\":29692:29726  IUniswapV2Router02 public routerV2 */\n      tag_37\n        /* \"#utility.yul\":2276:2505   */\n      jump\n        /* \"contracts/exp_flattened.sol\":29811:29864  mapping (address => bool) public isExcludedFromLimits */\n    tag_12:\n      callvalue\n      dup1\n      iszero\n      tag_81\n      jumpi\n      0x00\n      dup1\n      revert\n    tag_81:\n      pop\n      tag_33\n      tag_83\n      calldatasize\n      0x04\n      tag_35\n      jump\t// in\n    tag_83:\n      mstore(0x20, 0x09)\n      0x00\n      swap1\n      dup2\n      mstore\n      0x40\n      swap1\n      keccak256\n      sload\n      0xff\n      and\n      dup2\n      jump\n        /* \"contracts/exp_flattened.sol\":18735:18862  function balanceOf(address account) public view virtual override returns (uint256) {... */\n    tag_13:\n      callvalue\n      dup1\n      iszero\n      tag_86\n      jumpi\n      0x00\n      dup1\n      revert\n    tag_86:\n      pop\n      tag_51\n      tag_88\n      calldatasize\n      0x04\n      tag_35\n      jump\t// in\n    tag_88:\n      sub(shl(0xa0, 0x01), 0x01)\n        /* \"contracts/exp_flattened.sol\":18836:18854  _balances[account] */\n      and\n        /* \"contracts/exp_flattened.sol\":18809:18816  uint256 */\n      0x00\n        /* \"contracts/exp_flattened.sol\":18836:18854  _balances[account] */\n      swap1\n      dup2\n      mstore\n      0x20\n      dup2\n      swap1\n      mstore\n      0x40\n      swap1\n      keccak256\n      sload\n      swap1\n        /* \"contracts/exp_flattened.sol\":18735:18862  function balanceOf(address account) public view virtual override returns (uint256) {... */\n      jump\n        /* \"contracts/exp_flattened.sol\":10985:11088  function renounceOwnership() public virtual onlyOwner {... */\n    tag_14:\n      callvalue\n      dup1\n      iszero\n      tag_91\n      jumpi\n      0x00\n      dup1\n      revert\n    tag_91:\n      pop\n      tag_72\n      tag_93\n      jump\t// in\n        /* \"contracts/exp_flattened.sol\":29382:29546  function burnFrom(address account, uint256 amount) public virtual {... */\n    tag_15:\n      callvalue\n      dup1\n      iszero\n      tag_94\n      jumpi\n      0x00\n      dup1\n      revert\n    tag_94:\n      pop\n      tag_72\n      tag_96\n      calldatasize\n      0x04\n      tag_47\n      jump\t// in\n    tag_96:\n      tag_97\n      jump\t// in\n        /* \"contracts/exp_flattened.sol\":31600:31793  function setPair(address pair, bool isPair) public onlyOwner {... */\n    tag_16:\n      callvalue\n      dup1\n      iszero\n      tag_98\n      jumpi\n      0x00\n      dup1\n      revert\n    tag_98:\n      pop\n      tag_72\n      tag_100\n      calldatasize\n      0x04\n      tag_101\n      jump\t// in\n    tag_100:\n      tag_102\n      jump\t// in\n        /* \"contracts/exp_flattened.sol\":10344:10431  function owner() public view virtual returns (address) {... */\n    tag_17:\n      callvalue\n      dup1\n      iszero\n      tag_103\n      jumpi\n      0x00\n      dup1\n      revert\n    tag_103:\n      pop\n        /* \"contracts/exp_flattened.sol\":10417:10423  _owner */\n      and(sub(shl(0xa0, 0x01), 0x01), sload(0x05))\n        /* \"contracts/exp_flattened.sol\":10344:10431  function owner() public view virtual returns (address) {... */\n      jump(tag_77)\n        /* \"contracts/exp_flattened.sol\":29733:29754  address public pairV2 */\n    tag_18:\n      callvalue\n      dup1\n      iszero\n      tag_108\n      jumpi\n      0x00\n      dup1\n      revert\n    tag_108:\n      pop\n      sload(0x07)\n      tag_77\n      swap1\n      sub(shl(0xa0, 0x01), 0x01)\n      and\n      dup2\n      jump\n        /* \"contracts/exp_flattened.sol\":17654:17758  function symbol() public view virtual override returns (string memory) {... */\n    tag_19:\n      callvalue\n      dup1\n      iszero\n      tag_112\n      jumpi\n      0x00\n      dup1\n      revert\n    tag_112:\n      pop\n      tag_40\n      tag_114\n      jump\t// in\n        /* \"contracts/exp_flattened.sol\":30040:30113  uint256 public CIRCULATING_SUPPLY = TOTAL_SUPPLY - balanceOf(DEAD_WALLET) */\n    tag_20:\n      callvalue\n      dup1\n      iszero\n      tag_116\n      jumpi\n      0x00\n      dup1\n      revert\n    tag_116:\n      pop\n      tag_51\n      sload(0x0b)\n      dup2\n      jump\n        /* \"contracts/exp_flattened.sol\":29953:30033  address public constant DEAD_WALLET = 0x000000000000000000000000000000000000dEaD */\n    tag_21:\n      callvalue\n      dup1\n      iszero\n      tag_120\n      jumpi\n      0x00\n      dup1\n      revert\n    tag_120:\n      pop\n      tag_77\n        /* \"contracts/exp_flattened.sol\":29991:30033  0x000000000000000000000000000000000000dEaD */\n      0xdead\n        /* \"contracts/exp_flattened.sol\":29953:30033  address public constant DEAD_WALLET = 0x000000000000000000000000000000000000dEaD */\n      dup2\n      jump\n        /* \"contracts/exp_flattened.sol\":21987:22423  function decreaseAllowance(address spender, uint256 subtractedValue) public virtual returns (bool) {... */\n    tag_22:\n      callvalue\n      dup1\n      iszero\n      tag_124\n      jumpi\n      0x00\n      dup1\n      revert\n    tag_124:\n      pop\n      tag_33\n      tag_126\n      calldatasize\n      0x04\n      tag_47\n      jump\t// in\n    tag_126:\n      tag_127\n      jump\t// in\n        /* \"contracts/exp_flattened.sol\":19068:19261  function transfer(address to, uint256 amount) public virtual override returns (bool) {... */\n    tag_23:\n      callvalue\n      dup1\n      iszero\n      tag_129\n      jumpi\n      0x00\n      dup1\n      revert\n    tag_129:\n      pop\n      tag_33\n      tag_131\n      calldatasize\n      0x04\n      tag_47\n      jump\t// in\n    tag_131:\n      tag_132\n      jump\t// in\n        /* \"contracts/exp_flattened.sol\":32034:32229  function excludeFromLimits(address account, bool isExcluded) public onlyOwner {... */\n    tag_24:\n      callvalue\n      dup1\n      iszero\n      tag_134\n      jumpi\n      0x00\n      dup1\n      revert\n    tag_134:\n      pop\n      tag_72\n      tag_136\n      calldatasize\n      0x04\n      tag_101\n      jump\t// in\n    tag_136:\n      tag_137\n      jump\t// in\n        /* \"contracts/exp_flattened.sol\":19324:19475  function allowance(address owner, address spender) public view virtual override returns (uint256) {... */\n    tag_25:\n      callvalue\n      dup1\n      iszero\n      tag_138\n      jumpi\n      0x00\n      dup1\n      revert\n    tag_138:\n      pop\n      tag_51\n      tag_140\n      calldatasize\n      0x04\n      tag_141\n      jump\t// in\n    tag_140:\n      tag_142\n      jump\t// in\n        /* \"contracts/exp_flattened.sol\":11243:11444  function transferOwnership(address newOwner) public virtual onlyOwner {... */\n    tag_26:\n      callvalue\n      dup1\n      iszero\n      tag_144\n      jumpi\n      0x00\n      dup1\n      revert\n    tag_144:\n      pop\n      tag_72\n      tag_146\n      calldatasize\n      0x04\n      tag_35\n      jump\t// in\n    tag_146:\n      tag_147\n      jump\t// in\n        /* \"contracts/exp_flattened.sol\":17435:17535  function name() public view virtual override returns (string memory) {... */\n    tag_41:\n        /* \"contracts/exp_flattened.sol\":17489:17502  string memory */\n      0x60\n        /* \"contracts/exp_flattened.sol\":17522:17527  _name */\n      0x03\n        /* \"contracts/exp_flattened.sol\":17515:17527  return _name */\n      dup1\n      sload\n      tag_149\n      swap1\n      tag_150\n      jump\t// in\n    tag_149:\n      dup1\n      0x1f\n      add\n      0x20\n      dup1\n      swap2\n      div\n      mul\n      0x20\n      add\n      mload(0x40)\n      swap1\n      dup2\n      add\n      0x40\n      mstore\n      dup1\n      swap3\n      swap2\n      swap1\n      dup2\n      dup2\n      mstore\n      0x20\n      add\n      dup3\n      dup1\n      sload\n      tag_151\n      swap1\n      tag_150\n      jump\t// in\n    tag_151:\n      dup1\n      iszero\n      tag_152\n      jumpi\n      dup1\n      0x1f\n      lt\n      tag_153\n      jumpi\n      0x0100\n      dup1\n      dup4\n      sload\n      div\n      mul\n      dup4\n      mstore\n      swap2\n      0x20\n      add\n      swap2\n      jump(tag_152)\n    tag_153:\n      dup3\n      add\n      swap2\n      swap1\n      0x00\n      mstore\n      keccak256(0x00, 0x20)\n      swap1\n    tag_154:\n      dup2\n      sload\n      dup2\n      mstore\n      swap1\n      0x01\n      add\n      swap1\n      0x20\n      add\n      dup1\n      dup4\n      gt\n      tag_154\n      jumpi\n      dup3\n      swap1\n      sub\n      0x1f\n      and\n      dup3\n      add\n      swap2\n    tag_152:\n      pop\n      pop\n      pop\n      pop\n      pop\n      swap1\n      pop\n        /* \"contracts/exp_flattened.sol\":17435:17535  function name() public view virtual override returns (string memory) {... */\n      swap1\n      jump\t// out\n        /* \"contracts/exp_flattened.sol\":19795:19996  function approve(address spender, uint256 amount) public virtual override returns (bool) {... */\n    tag_48:\n        /* \"contracts/exp_flattened.sol\":19878:19882  bool */\n      0x00\n        /* \"contracts/exp_flattened.sol\":8998:9008  msg.sender */\n      caller\n        /* \"contracts/exp_flattened.sol\":19934:19966  _approve(owner, spender, amount) */\n      tag_158\n        /* \"contracts/exp_flattened.sol\":8998:9008  msg.sender */\n      dup2\n        /* \"contracts/exp_flattened.sol\":19950:19957  spender */\n      dup6\n        /* \"contracts/exp_flattened.sol\":19959:19965  amount */\n      dup6\n        /* \"contracts/exp_flattened.sol\":19934:19942  _approve */\n      tag_159\n        /* \"contracts/exp_flattened.sol\":19934:19966  _approve(owner, spender, amount) */\n      jump\t// in\n    tag_158:\n        /* \"contracts/exp_flattened.sol\":19984:19988  true */\n      0x01\n        /* \"contracts/exp_flattened.sol\":19977:19988  return true */\n      swap2\n      pop\n      pop\n        /* \"contracts/exp_flattened.sol\":19795:19996  function approve(address spender, uint256 amount) public virtual override returns (bool) {... */\n    tag_155:\n      swap3\n      swap2\n      pop\n      pop\n      jump\t// out\n        /* \"contracts/exp_flattened.sol\":20576:20837  function transferFrom(address from, address to, uint256 amount) public virtual override returns (bool) {... */\n    tag_59:\n        /* \"contracts/exp_flattened.sol\":20673:20677  bool */\n      0x00\n        /* \"contracts/exp_flattened.sol\":8998:9008  msg.sender */\n      caller\n        /* \"contracts/exp_flattened.sol\":20731:20769  _spendAllowance(from, spender, amount) */\n      tag_163\n        /* \"contracts/exp_flattened.sol\":20747:20751  from */\n      dup6\n        /* \"contracts/exp_flattened.sol\":8998:9008  msg.sender */\n      dup3\n        /* \"contracts/exp_flattened.sol\":20762:20768  amount */\n      dup6\n        /* \"contracts/exp_flattened.sol\":20731:20746  _spendAllowance */\n      tag_164\n        /* \"contracts/exp_flattened.sol\":20731:20769  _spendAllowance(from, spender, amount) */\n      jump\t// in\n    tag_163:\n        /* \"contracts/exp_flattened.sol\":20780:20807  _transfer(from, to, amount) */\n      tag_165\n        /* \"contracts/exp_flattened.sol\":20790:20794  from */\n      dup6\n        /* \"contracts/exp_flattened.sol\":20796:20798  to */\n      dup6\n        /* \"contracts/exp_flattened.sol\":20800:20806  amount */\n      dup6\n        /* \"contracts/exp_flattened.sol\":20780:20789  _transfer */\n      tag_166\n        /* \"contracts/exp_flattened.sol\":20780:20807  _transfer(from, to, amount) */\n      jump\t// in\n    tag_165:\n      pop\n        /* \"contracts/exp_flattened.sol\":20825:20829  true */\n      0x01\n      swap5\n        /* \"contracts/exp_flattened.sol\":20576:20837  function transferFrom(address from, address to, uint256 amount) public virtual override returns (bool) {... */\n      swap4\n      pop\n      pop\n      pop\n      pop\n      jump\t// out\n        /* \"contracts/exp_flattened.sol\":21246:21484  function increaseAllowance(address spender, uint256 addedValue) public virtual returns (bool) {... */\n    tag_69:\n        /* \"contracts/exp_flattened.sol\":21334:21338  bool */\n      0x00\n        /* \"contracts/exp_flattened.sol\":8998:9008  msg.sender */\n      caller\n        /* \"contracts/exp_flattened.sol\":21390:21454  _approve(owner, spender, allowance(owner, spender) + addedValue) */\n      tag_158\n        /* \"contracts/exp_flattened.sol\":8998:9008  msg.sender */\n      dup2\n        /* \"contracts/exp_flattened.sol\":21406:21413  spender */\n      dup6\n        /* \"contracts/exp_flattened.sol\":21443:21453  addedValue */\n      dup6\n        /* \"contracts/exp_flattened.sol\":21415:21440  allowance(owner, spender) */\n      tag_171\n        /* \"contracts/exp_flattened.sol\":8998:9008  msg.sender */\n      dup4\n        /* \"contracts/exp_flattened.sol\":21406:21413  spender */\n      dup4\n        /* \"contracts/exp_flattened.sol\":21415:21424  allowance */\n      tag_142\n        /* \"contracts/exp_flattened.sol\":21415:21440  allowance(owner, spender) */\n      jump\t// in\n    tag_171:\n        /* \"contracts/exp_flattened.sol\":21415:21453  allowance(owner, spender) + addedValue */\n      tag_172\n      swap2\n      swap1\n      tag_173\n      jump\t// in\n    tag_172:\n        /* \"contracts/exp_flattened.sol\":21390:21398  _approve */\n      tag_159\n        /* \"contracts/exp_flattened.sol\":21390:21454  _approve(owner, spender, allowance(owner, spender) + addedValue) */\n      jump\t// in\n        /* \"contracts/exp_flattened.sol\":28972:29063  function burn(uint256 amount) public virtual {... */\n    tag_75:\n        /* \"contracts/exp_flattened.sol\":29028:29055  _burn(_msgSender(), amount) */\n      tag_175\n        /* \"contracts/exp_flattened.sol\":8998:9008  msg.sender */\n      caller\n        /* \"contracts/exp_flattened.sol\":29048:29054  amount */\n      dup3\n        /* \"contracts/exp_flattened.sol\":29028:29033  _burn */\n      tag_177\n        /* \"contracts/exp_flattened.sol\":29028:29055  _burn(_msgSender(), amount) */\n      jump\t// in\n    tag_175:\n        /* \"contracts/exp_flattened.sol\":28972:29063  function burn(uint256 amount) public virtual {... */\n      pop\n      jump\t// out\n        /* \"contracts/exp_flattened.sol\":10985:11088  function renounceOwnership() public virtual onlyOwner {... */\n    tag_93:\n        /* \"contracts/exp_flattened.sol\":10230:10243  _checkOwner() */\n      tag_180\n        /* \"contracts/exp_flattened.sol\":10230:10241  _checkOwner */\n      tag_181\n        /* \"contracts/exp_flattened.sol\":10230:10243  _checkOwner() */\n      jump\t// in\n    tag_180:\n        /* \"contracts/exp_flattened.sol\":11050:11080  _transferOwnership(address(0)) */\n      tag_183\n        /* \"contracts/exp_flattened.sol\":11077:11078  0 */\n      0x00\n        /* \"contracts/exp_flattened.sol\":11050:11068  _transferOwnership */\n      tag_184\n        /* \"contracts/exp_flattened.sol\":11050:11080  _transferOwnership(address(0)) */\n      jump\t// in\n    tag_183:\n        /* \"contracts/exp_flattened.sol\":10985:11088  function renounceOwnership() public virtual onlyOwner {... */\n      jump\t// out\n        /* \"contracts/exp_flattened.sol\":29382:29546  function burnFrom(address account, uint256 amount) public virtual {... */\n    tag_97:\n        /* \"contracts/exp_flattened.sol\":29459:29505  _spendAllowance(account, _msgSender(), amount) */\n      tag_186\n        /* \"contracts/exp_flattened.sol\":29475:29482  account */\n      dup3\n        /* \"contracts/exp_flattened.sol\":8998:9008  msg.sender */\n      caller\n        /* \"contracts/exp_flattened.sol\":29498:29504  amount */\n      dup4\n        /* \"contracts/exp_flattened.sol\":29459:29474  _spendAllowance */\n      tag_164\n        /* \"contracts/exp_flattened.sol\":29459:29505  _spendAllowance(account, _msgSender(), amount) */\n      jump\t// in\n    tag_186:\n        /* \"contracts/exp_flattened.sol\":29516:29538  _burn(account, amount) */\n      tag_188\n        /* \"contracts/exp_flattened.sol\":29522:29529  account */\n      dup3\n        /* \"contracts/exp_flattened.sol\":29531:29537  amount */\n      dup3\n        /* \"contracts/exp_flattened.sol\":29516:29521  _burn */\n      tag_177\n        /* \"contracts/exp_flattened.sol\":29516:29538  _burn(account, amount) */\n      jump\t// in\n    tag_188:\n        /* \"contracts/exp_flattened.sol\":29382:29546  function burnFrom(address account, uint256 amount) public virtual {... */\n      pop\n      pop\n      jump\t// out\n        /* \"contracts/exp_flattened.sol\":31600:31793  function setPair(address pair, bool isPair) public onlyOwner {... */\n    tag_102:\n        /* \"contracts/exp_flattened.sol\":10230:10243  _checkOwner() */\n      tag_190\n        /* \"contracts/exp_flattened.sol\":10230:10241  _checkOwner */\n      tag_181\n        /* \"contracts/exp_flattened.sol\":10230:10243  _checkOwner() */\n      jump\t// in\n    tag_190:\n        /* \"contracts/exp_flattened.sol\":31688:31694  pairV2 */\n      sload(0x07)\n      sub(shl(0xa0, 0x01), 0x01)\n      swap1\n      dup2\n      and\n        /* \"contracts/exp_flattened.sol\":31680:31694  pair != pairV2 */\n      swap1\n      dup4\n      and\n      sub\n        /* \"contracts/exp_flattened.sol\":31672:31750  require(pair != pairV2, \"DefaultRouter: Cannot remove initial pair from list\") */\n      tag_192\n      jumpi\n      mload(0x40)\n      shl(0xe5, 0x461bcd)\n      dup2\n      mstore\n        /* \"#utility.yul\":4184:4186   */\n      0x20\n        /* \"contracts/exp_flattened.sol\":31672:31750  require(pair != pairV2, \"DefaultRouter: Cannot remove initial pair from list\") */\n      0x04\n      dup3\n      add\n        /* \"#utility.yul\":4166:4187   */\n      mstore\n        /* \"#utility.yul\":4223:4225   */\n      0x33\n        /* \"#utility.yul\":4203:4221   */\n      0x24\n      dup3\n      add\n        /* \"#utility.yul\":4196:4226   */\n      mstore\n        /* \"#utility.yul\":4262:4296   */\n      0x44656661756c74526f757465723a2043616e6e6f742072656d6f766520696e69\n        /* \"#utility.yul\":4242:4260   */\n      0x44\n      dup3\n      add\n        /* \"#utility.yul\":4235:4297   */\n      mstore\n      shl(0x6a, 0x1d1a585b081c185a5c88199c9bdb481b1a5cdd)\n        /* \"#utility.yul\":4313:4331   */\n      0x64\n      dup3\n      add\n        /* \"#utility.yul\":4306:4355   */\n      mstore\n        /* \"#utility.yul\":4372:4391   */\n      0x84\n      add\n        /* \"contracts/exp_flattened.sol\":31672:31750  require(pair != pairV2, \"DefaultRouter: Cannot remove initial pair from list\") */\n    tag_193:\n      mload(0x40)\n      dup1\n      swap2\n      sub\n      swap1\n      revert\n    tag_192:\n        /* \"contracts/exp_flattened.sol\":31763:31785  _setPair(pair, isPair) */\n      tag_188\n        /* \"contracts/exp_flattened.sol\":31772:31776  pair */\n      dup3\n        /* \"contracts/exp_flattened.sol\":31778:31784  isPair */\n      dup3\n        /* \"contracts/exp_flattened.sol\":31763:31771  _setPair */\n      tag_196\n        /* \"contracts/exp_flattened.sol\":31763:31785  _setPair(pair, isPair) */\n      jump\t// in\n        /* \"contracts/exp_flattened.sol\":17654:17758  function symbol() public view virtual override returns (string memory) {... */\n    tag_114:\n        /* \"contracts/exp_flattened.sol\":17710:17723  string memory */\n      0x60\n        /* \"contracts/exp_flattened.sol\":17743:17750  _symbol */\n      0x04\n        /* \"contracts/exp_flattened.sol\":17736:17750  return _symbol */\n      dup1\n      sload\n      tag_149\n      swap1\n      tag_150\n      jump\t// in\n        /* \"contracts/exp_flattened.sol\":21987:22423  function decreaseAllowance(address spender, uint256 subtractedValue) public virtual returns (bool) {... */\n    tag_127:\n        /* \"contracts/exp_flattened.sol\":22080:22084  bool */\n      0x00\n        /* \"contracts/exp_flattened.sol\":8998:9008  msg.sender */\n      caller\n        /* \"contracts/exp_flattened.sol\":22080:22084  bool */\n      dup2\n        /* \"contracts/exp_flattened.sol\":22163:22188  allowance(owner, spender) */\n      tag_206\n        /* \"contracts/exp_flattened.sol\":8998:9008  msg.sender */\n      dup3\n        /* \"contracts/exp_flattened.sol\":22180:22187  spender */\n      dup7\n        /* \"contracts/exp_flattened.sol\":22163:22172  allowance */\n      tag_142\n        /* \"contracts/exp_flattened.sol\":22163:22188  allowance(owner, spender) */\n      jump\t// in\n    tag_206:\n        /* \"contracts/exp_flattened.sol\":22136:22188  uint256 currentAllowance = allowance(owner, spender) */\n      swap1\n      pop\n        /* \"contracts/exp_flattened.sol\":22227:22242  subtractedValue */\n      dup4\n        /* \"contracts/exp_flattened.sol\":22207:22223  currentAllowance */\n      dup2\n        /* \"contracts/exp_flattened.sol\":22207:22242  currentAllowance >= subtractedValue */\n      lt\n      iszero\n        /* \"contracts/exp_flattened.sol\":22199:22284  require(currentAllowance >= subtractedValue, \"ERC20: decreased allowance below zero\") */\n      tag_207\n      jumpi\n      mload(0x40)\n      shl(0xe5, 0x461bcd)\n      dup2\n      mstore\n        /* \"#utility.yul\":4604:4606   */\n      0x20\n        /* \"contracts/exp_flattened.sol\":22199:22284  require(currentAllowance >= subtractedValue, \"ERC20: decreased allowance below zero\") */\n      0x04\n      dup3\n      add\n        /* \"#utility.yul\":4586:4607   */\n      mstore\n        /* \"#utility.yul\":4643:4645   */\n      0x25\n        /* \"#utility.yul\":4623:4641   */\n      0x24\n      dup3\n      add\n        /* \"#utility.yul\":4616:4646   */\n      mstore\n        /* \"#utility.yul\":4682:4716   */\n      0x45524332303a2064656372656173656420616c6c6f77616e63652062656c6f77\n        /* \"#utility.yul\":4662:4680   */\n      0x44\n      dup3\n      add\n        /* \"#utility.yul\":4655:4717   */\n      mstore\n      shl(0xd8, 0x207a65726f)\n        /* \"#utility.yul\":4733:4751   */\n      0x64\n      dup3\n      add\n        /* \"#utility.yul\":4726:4761   */\n      mstore\n        /* \"#utility.yul\":4778:4797   */\n      0x84\n      add\n        /* \"contracts/exp_flattened.sol\":22199:22284  require(currentAllowance >= subtractedValue, \"ERC20: decreased allowance below zero\") */\n      tag_193\n        /* \"#utility.yul\":4402:4803   */\n      jump\n        /* \"contracts/exp_flattened.sol\":22199:22284  require(currentAllowance >= subtractedValue, \"ERC20: decreased allowance below zero\") */\n    tag_207:\n        /* \"contracts/exp_flattened.sol\":22320:22380  _approve(owner, spender, currentAllowance - subtractedValue) */\n      tag_165\n        /* \"contracts/exp_flattened.sol\":22329:22334  owner */\n      dup3\n        /* \"contracts/exp_flattened.sol\":22336:22343  spender */\n      dup7\n        /* \"contracts/exp_flattened.sol\":22364:22379  subtractedValue */\n      dup7\n        /* \"contracts/exp_flattened.sol\":22345:22361  currentAllowance */\n      dup5\n        /* \"contracts/exp_flattened.sol\":22345:22379  currentAllowance - subtractedValue */\n      sub\n        /* \"contracts/exp_flattened.sol\":22320:22328  _approve */\n      tag_159\n        /* \"contracts/exp_flattened.sol\":22320:22380  _approve(owner, spender, currentAllowance - subtractedValue) */\n      jump\t// in\n        /* \"contracts/exp_flattened.sol\":19068:19261  function transfer(address to, uint256 amount) public virtual override returns (bool) {... */\n    tag_132:\n        /* \"contracts/exp_flattened.sol\":19147:19151  bool */\n      0x00\n        /* \"contracts/exp_flattened.sol\":8998:9008  msg.sender */\n      caller\n        /* \"contracts/exp_flattened.sol\":19203:19231  _transfer(owner, to, amount) */\n      tag_158\n        /* \"contracts/exp_flattened.sol\":8998:9008  msg.sender */\n      dup2\n        /* \"contracts/exp_flattened.sol\":19220:19222  to */\n      dup6\n        /* \"contracts/exp_flattened.sol\":19224:19230  amount */\n      dup6\n        /* \"contracts/exp_flattened.sol\":19203:19212  _transfer */\n      tag_166\n        /* \"contracts/exp_flattened.sol\":19203:19231  _transfer(owner, to, amount) */\n      jump\t// in\n        /* \"contracts/exp_flattened.sol\":32034:32229  function excludeFromLimits(address account, bool isExcluded) public onlyOwner {... */\n    tag_137:\n        /* \"contracts/exp_flattened.sol\":10230:10243  _checkOwner() */\n      tag_215\n        /* \"contracts/exp_flattened.sol\":10230:10241  _checkOwner */\n      tag_181\n        /* \"contracts/exp_flattened.sol\":10230:10243  _checkOwner() */\n      jump\t// in\n    tag_215:\n      sub(shl(0xa0, 0x01), 0x01)\n        /* \"contracts/exp_flattened.sol\":32123:32152  isExcludedFromLimits[account] */\n      dup3\n      and\n      0x00\n      dup2\n      dup2\n      mstore\n        /* \"contracts/exp_flattened.sol\":32123:32143  isExcludedFromLimits */\n      0x09\n        /* \"contracts/exp_flattened.sol\":32123:32152  isExcludedFromLimits[account] */\n      0x20\n      swap1\n      dup2\n      mstore\n      0x40\n      swap2\n      dup3\n      swap1\n      keccak256\n        /* \"contracts/exp_flattened.sol\":32123:32165  isExcludedFromLimits[account] = isExcluded */\n      dup1\n      sload\n      not(0xff)\n      and\n      dup6\n      iszero\n      iszero\n      swap1\n      dup2\n      or\n      swap1\n      swap2\n      sstore\n        /* \"contracts/exp_flattened.sol\":32183:32221  ExcludeFromLimits(account, isExcluded) */\n      swap2\n      mload\n        /* \"#utility.yul\":523:564   */\n      swap2\n      dup3\n      mstore\n        /* \"contracts/exp_flattened.sol\":32183:32221  ExcludeFromLimits(account, isExcluded) */\n      0x4b89c347592b1d537e066cb4ed98d87696ae35164745d7e370e4add16941dc92\n      swap2\n        /* \"#utility.yul\":496:514   */\n      add\n        /* \"contracts/exp_flattened.sol\":32183:32221  ExcludeFromLimits(account, isExcluded) */\n    tag_217:\n      mload(0x40)\n      dup1\n      swap2\n      sub\n      swap1\n      log2\n        /* \"contracts/exp_flattened.sol\":32034:32229  function excludeFromLimits(address account, bool isExcluded) public onlyOwner {... */\n      pop\n      pop\n      jump\t// out\n        /* \"contracts/exp_flattened.sol\":19324:19475  function allowance(address owner, address spender) public view virtual override returns (uint256) {... */\n    tag_142:\n      sub(shl(0xa0, 0x01), 0x01)\n        /* \"contracts/exp_flattened.sol\":19440:19458  _allowances[owner] */\n      swap2\n      dup3\n      and\n        /* \"contracts/exp_flattened.sol\":19413:19420  uint256 */\n      0x00\n        /* \"contracts/exp_flattened.sol\":19440:19458  _allowances[owner] */\n      swap1\n      dup2\n      mstore\n        /* \"contracts/exp_flattened.sol\":19440:19451  _allowances */\n      0x01\n        /* \"contracts/exp_flattened.sol\":19440:19458  _allowances[owner] */\n      0x20\n      swap1\n      dup2\n      mstore\n      0x40\n      dup1\n      dup4\n      keccak256\n        /* \"contracts/exp_flattened.sol\":19440:19467  _allowances[owner][spender] */\n      swap4\n      swap1\n      swap5\n      and\n      dup3\n      mstore\n      swap2\n      swap1\n      swap2\n      mstore\n      keccak256\n      sload\n      swap1\n        /* \"contracts/exp_flattened.sol\":19324:19475  function allowance(address owner, address spender) public view virtual override returns (uint256) {... */\n      jump\t// out\n        /* \"contracts/exp_flattened.sol\":11243:11444  function transferOwnership(address newOwner) public virtual onlyOwner {... */\n    tag_147:\n        /* \"contracts/exp_flattened.sol\":10230:10243  _checkOwner() */\n      tag_220\n        /* \"contracts/exp_flattened.sol\":10230:10241  _checkOwner */\n      tag_181\n        /* \"contracts/exp_flattened.sol\":10230:10243  _checkOwner() */\n      jump\t// in\n    tag_220:\n      sub(shl(0xa0, 0x01), 0x01)\n        /* \"contracts/exp_flattened.sol\":11332:11354  newOwner != address(0) */\n      dup2\n      and\n        /* \"contracts/exp_flattened.sol\":11324:11397  require(newOwner != address(0), \"Ownable: new owner is the zero address\") */\n      tag_222\n      jumpi\n      mload(0x40)\n      shl(0xe5, 0x461bcd)\n      dup2\n      mstore\n        /* \"#utility.yul\":5010:5012   */\n      0x20\n        /* \"contracts/exp_flattened.sol\":11324:11397  require(newOwner != address(0), \"Ownable: new owner is the zero address\") */\n      0x04\n      dup3\n      add\n        /* \"#utility.yul\":4992:5013   */\n      mstore\n        /* \"#utility.yul\":5049:5051   */\n      0x26\n        /* \"#utility.yul\":5029:5047   */\n      0x24\n      dup3\n      add\n        /* \"#utility.yul\":5022:5052   */\n      mstore\n        /* \"#utility.yul\":5088:5122   */\n      0x4f776e61626c653a206e6577206f776e657220697320746865207a65726f2061\n        /* \"#utility.yul\":5068:5086   */\n      0x44\n      dup3\n      add\n        /* \"#utility.yul\":5061:5123   */\n      mstore\n      shl(0xd0, 0x646472657373)\n        /* \"#utility.yul\":5139:5157   */\n      0x64\n      dup3\n      add\n        /* \"#utility.yul\":5132:5168   */\n      mstore\n        /* \"#utility.yul\":5185:5204   */\n      0x84\n      add\n        /* \"contracts/exp_flattened.sol\":11324:11397  require(newOwner != address(0), \"Ownable: new owner is the zero address\") */\n      tag_193\n        /* \"#utility.yul\":4808:5210   */\n      jump\n        /* \"contracts/exp_flattened.sol\":11324:11397  require(newOwner != address(0), \"Ownable: new owner is the zero address\") */\n    tag_222:\n        /* \"contracts/exp_flattened.sol\":11408:11436  _transferOwnership(newOwner) */\n      tag_175\n        /* \"contracts/exp_flattened.sol\":11427:11435  newOwner */\n      dup2\n        /* \"contracts/exp_flattened.sol\":11408:11426  _transferOwnership */\n      tag_184\n        /* \"contracts/exp_flattened.sol\":11408:11436  _transferOwnership(newOwner) */\n      jump\t// in\n        /* \"contracts/exp_flattened.sol\":25980:26326  function _approve(address owner, address spender, uint256 amount) internal virtual {... */\n    tag_159:\n      sub(shl(0xa0, 0x01), 0x01)\n        /* \"contracts/exp_flattened.sol\":26082:26101  owner != address(0) */\n      dup4\n      and\n        /* \"contracts/exp_flattened.sol\":26074:26142  require(owner != address(0), \"ERC20: approve from the zero address\") */\n      tag_228\n      jumpi\n      mload(0x40)\n      shl(0xe5, 0x461bcd)\n      dup2\n      mstore\n        /* \"#utility.yul\":5417:5419   */\n      0x20\n        /* \"contracts/exp_flattened.sol\":26074:26142  require(owner != address(0), \"ERC20: approve from the zero address\") */\n      0x04\n      dup3\n      add\n        /* \"#utility.yul\":5399:5420   */\n      mstore\n        /* \"#utility.yul\":5456:5458   */\n      0x24\n        /* \"#utility.yul\":5436:5454   */\n      dup1\n      dup3\n      add\n        /* \"#utility.yul\":5429:5459   */\n      mstore\n        /* \"#utility.yul\":5495:5529   */\n      0x45524332303a20617070726f76652066726f6d20746865207a65726f20616464\n        /* \"#utility.yul\":5475:5493   */\n      0x44\n      dup3\n      add\n        /* \"#utility.yul\":5468:5530   */\n      mstore\n      shl(0xe0, 0x72657373)\n        /* \"#utility.yul\":5546:5564   */\n      0x64\n      dup3\n      add\n        /* \"#utility.yul\":5539:5573   */\n      mstore\n        /* \"#utility.yul\":5590:5609   */\n      0x84\n      add\n        /* \"contracts/exp_flattened.sol\":26074:26142  require(owner != address(0), \"ERC20: approve from the zero address\") */\n      tag_193\n        /* \"#utility.yul\":5215:5615   */\n      jump\n        /* \"contracts/exp_flattened.sol\":26074:26142  require(owner != address(0), \"ERC20: approve from the zero address\") */\n    tag_228:\n      sub(shl(0xa0, 0x01), 0x01)\n        /* \"contracts/exp_flattened.sol\":26161:26182  spender != address(0) */\n      dup3\n      and\n        /* \"contracts/exp_flattened.sol\":26153:26221  require(spender != address(0), \"ERC20: approve to the zero address\") */\n      tag_231\n      jumpi\n      mload(0x40)\n      shl(0xe5, 0x461bcd)\n      dup2\n      mstore\n        /* \"#utility.yul\":5822:5824   */\n      0x20\n        /* \"contracts/exp_flattened.sol\":26153:26221  require(spender != address(0), \"ERC20: approve to the zero address\") */\n      0x04\n      dup3\n      add\n        /* \"#utility.yul\":5804:5825   */\n      mstore\n        /* \"#utility.yul\":5861:5863   */\n      0x22\n        /* \"#utility.yul\":5841:5859   */\n      0x24\n      dup3\n      add\n        /* \"#utility.yul\":5834:5864   */\n      mstore\n        /* \"#utility.yul\":5900:5934   */\n      0x45524332303a20617070726f766520746f20746865207a65726f206164647265\n        /* \"#utility.yul\":5880:5898   */\n      0x44\n      dup3\n      add\n        /* \"#utility.yul\":5873:5935   */\n      mstore\n      shl(0xf0, 0x7373)\n        /* \"#utility.yul\":5951:5969   */\n      0x64\n      dup3\n      add\n        /* \"#utility.yul\":5944:5976   */\n      mstore\n        /* \"#utility.yul\":5993:6012   */\n      0x84\n      add\n        /* \"contracts/exp_flattened.sol\":26153:26221  require(spender != address(0), \"ERC20: approve to the zero address\") */\n      tag_193\n        /* \"#utility.yul\":5620:6018   */\n      jump\n        /* \"contracts/exp_flattened.sol\":26153:26221  require(spender != address(0), \"ERC20: approve to the zero address\") */\n    tag_231:\n      sub(shl(0xa0, 0x01), 0x01)\n        /* \"contracts/exp_flattened.sol\":26234:26252  _allowances[owner] */\n      dup4\n      dup2\n      and\n      0x00\n      dup2\n      dup2\n      mstore\n        /* \"contracts/exp_flattened.sol\":26234:26245  _allowances */\n      0x01\n        /* \"contracts/exp_flattened.sol\":26234:26252  _allowances[owner] */\n      0x20\n      swap1\n      dup2\n      mstore\n      0x40\n      dup1\n      dup4\n      keccak256\n        /* \"contracts/exp_flattened.sol\":26234:26261  _allowances[owner][spender] */\n      swap5\n      dup8\n      and\n      dup1\n      dup5\n      mstore\n      swap5\n      dup3\n      mstore\n      swap2\n      dup3\n      swap1\n      keccak256\n        /* \"contracts/exp_flattened.sol\":26234:26270  _allowances[owner][spender] = amount */\n      dup6\n      swap1\n      sstore\n        /* \"contracts/exp_flattened.sol\":26286:26318  Approval(owner, spender, amount) */\n      swap1\n      mload\n        /* \"#utility.yul\":1533:1558   */\n      dup5\n      dup2\n      mstore\n        /* \"contracts/exp_flattened.sol\":26286:26318  Approval(owner, spender, amount) */\n      0x8c5be1e5ebec7d5bd14f71427d1e84f3dd0314c0f7b2291e5b200ac8c7c3b925\n      swap2\n        /* \"#utility.yul\":1506:1524   */\n      add\n        /* \"contracts/exp_flattened.sol\":26286:26318  Approval(owner, spender, amount) */\n      mload(0x40)\n      dup1\n      swap2\n      sub\n      swap1\n      log3\n        /* \"contracts/exp_flattened.sol\":25980:26326  function _approve(address owner, address spender, uint256 amount) internal virtual {... */\n      pop\n      pop\n      pop\n      jump\t// out\n        /* \"contracts/exp_flattened.sol\":26617:27036  function _spendAllowance(address owner, address spender, uint256 amount) internal virtual {... */\n    tag_164:\n        /* \"contracts/exp_flattened.sol\":26718:26742  uint256 currentAllowance */\n      0x00\n        /* \"contracts/exp_flattened.sol\":26745:26770  allowance(owner, spender) */\n      tag_236\n        /* \"contracts/exp_flattened.sol\":26755:26760  owner */\n      dup5\n        /* \"contracts/exp_flattened.sol\":26762:26769  spender */\n      dup5\n        /* \"contracts/exp_flattened.sol\":26745:26754  allowance */\n      tag_142\n        /* \"contracts/exp_flattened.sol\":26745:26770  allowance(owner, spender) */\n      jump\t// in\n    tag_236:\n        /* \"contracts/exp_flattened.sol\":26718:26770  uint256 currentAllowance = allowance(owner, spender) */\n      swap1\n      pop\n      not(0x00)\n        /* \"contracts/exp_flattened.sol\":26785:26801  currentAllowance */\n      dup2\n        /* \"contracts/exp_flattened.sol\":26785:26822  currentAllowance != type(uint256).max */\n      eq\n        /* \"contracts/exp_flattened.sol\":26781:27029  if (currentAllowance != type(uint256).max) {... */\n      tag_241\n      jumpi\n        /* \"contracts/exp_flattened.sol\":26867:26873  amount */\n      dup2\n        /* \"contracts/exp_flattened.sol\":26847:26863  currentAllowance */\n      dup2\n        /* \"contracts/exp_flattened.sol\":26847:26873  currentAllowance >= amount */\n      lt\n      iszero\n        /* \"contracts/exp_flattened.sol\":26839:26907  require(currentAllowance >= amount, \"ERC20: insufficient allowance\") */\n      tag_238\n      jumpi\n      mload(0x40)\n      shl(0xe5, 0x461bcd)\n      dup2\n      mstore\n        /* \"#utility.yul\":6225:6227   */\n      0x20\n        /* \"contracts/exp_flattened.sol\":26839:26907  require(currentAllowance >= amount, \"ERC20: insufficient allowance\") */\n      0x04\n      dup3\n      add\n        /* \"#utility.yul\":6207:6228   */\n      mstore\n        /* \"#utility.yul\":6264:6266   */\n      0x1d\n        /* \"#utility.yul\":6244:6262   */\n      0x24\n      dup3\n      add\n        /* \"#utility.yul\":6237:6267   */\n      mstore\n        /* \"#utility.yul\":6303:6334   */\n      0x45524332303a20696e73756666696369656e7420616c6c6f77616e6365000000\n        /* \"#utility.yul\":6283:6301   */\n      0x44\n      dup3\n      add\n        /* \"#utility.yul\":6276:6335   */\n      mstore\n        /* \"#utility.yul\":6352:6370   */\n      0x64\n      add\n        /* \"contracts/exp_flattened.sol\":26839:26907  require(currentAllowance >= amount, \"ERC20: insufficient allowance\") */\n      tag_193\n        /* \"#utility.yul\":6023:6376   */\n      jump\n        /* \"contracts/exp_flattened.sol\":26839:26907  require(currentAllowance >= amount, \"ERC20: insufficient allowance\") */\n    tag_238:\n        /* \"contracts/exp_flattened.sol\":26951:27002  _approve(owner, spender, currentAllowance - amount) */\n      tag_241\n        /* \"contracts/exp_flattened.sol\":26960:26965  owner */\n      dup5\n        /* \"contracts/exp_flattened.sol\":26967:26974  spender */\n      dup5\n        /* \"contracts/exp_flattened.sol\":26995:27001  amount */\n      dup5\n        /* \"contracts/exp_flattened.sol\":26976:26992  currentAllowance */\n      dup5\n        /* \"contracts/exp_flattened.sol\":26976:27001  currentAllowance - amount */\n      sub\n        /* \"contracts/exp_flattened.sol\":26951:26959  _approve */\n      tag_159\n        /* \"contracts/exp_flattened.sol\":26951:27002  _approve(owner, spender, currentAllowance - amount) */\n      jump\t// in\n    tag_241:\n        /* \"contracts/exp_flattened.sol\":26707:27036  {... */\n      pop\n        /* \"contracts/exp_flattened.sol\":26617:27036  function _spendAllowance(address owner, address spender, uint256 amount) internal virtual {... */\n      pop\n      pop\n      pop\n      jump\t// out\n        /* \"contracts/exp_flattened.sol\":22893:23699  function _transfer(address from, address to, uint256 amount) internal virtual {... */\n    tag_166:\n      sub(shl(0xa0, 0x01), 0x01)\n        /* \"contracts/exp_flattened.sol\":22990:23008  from != address(0) */\n      dup4\n      and\n        /* \"contracts/exp_flattened.sol\":22982:23050  require(from != address(0), \"ERC20: transfer from the zero address\") */\n      tag_243\n      jumpi\n      mload(0x40)\n      shl(0xe5, 0x461bcd)\n      dup2\n      mstore\n        /* \"#utility.yul\":6583:6585   */\n      0x20\n        /* \"contracts/exp_flattened.sol\":22982:23050  require(from != address(0), \"ERC20: transfer from the zero address\") */\n      0x04\n      dup3\n      add\n        /* \"#utility.yul\":6565:6586   */\n      mstore\n        /* \"#utility.yul\":6622:6624   */\n      0x25\n        /* \"#utility.yul\":6602:6620   */\n      0x24\n      dup3\n      add\n        /* \"#utility.yul\":6595:6625   */\n      mstore\n        /* \"#utility.yul\":6661:6695   */\n      0x45524332303a207472616e736665722066726f6d20746865207a65726f206164\n        /* \"#utility.yul\":6641:6659   */\n      0x44\n      dup3\n      add\n        /* \"#utility.yul\":6634:6696   */\n      mstore\n      shl(0xd8, 0x6472657373)\n        /* \"#utility.yul\":6712:6730   */\n      0x64\n      dup3\n      add\n        /* \"#utility.yul\":6705:6740   */\n      mstore\n        /* \"#utility.yul\":6757:6776   */\n      0x84\n      add\n        /* \"contracts/exp_flattened.sol\":22982:23050  require(from != address(0), \"ERC20: transfer from the zero address\") */\n      tag_193\n        /* \"#utility.yul\":6381:6782   */\n      jump\n        /* \"contracts/exp_flattened.sol\":22982:23050  require(from != address(0), \"ERC20: transfer from the zero address\") */\n    tag_243:\n      sub(shl(0xa0, 0x01), 0x01)\n        /* \"contracts/exp_flattened.sol\":23069:23085  to != address(0) */\n      dup3\n      and\n        /* \"contracts/exp_flattened.sol\":23061:23125  require(to != address(0), \"ERC20: transfer to the zero address\") */\n      tag_246\n      jumpi\n      mload(0x40)\n      shl(0xe5, 0x461bcd)\n      dup2\n      mstore\n        /* \"#utility.yul\":6989:6991   */\n      0x20\n        /* \"contracts/exp_flattened.sol\":23061:23125  require(to != address(0), \"ERC20: transfer to the zero address\") */\n      0x04\n      dup3\n      add\n        /* \"#utility.yul\":6971:6992   */\n      mstore\n        /* \"#utility.yul\":7028:7030   */\n      0x23\n        /* \"#utility.yul\":7008:7026   */\n      0x24\n      dup3\n      add\n        /* \"#utility.yul\":7001:7031   */\n      mstore\n        /* \"#utility.yul\":7067:7101   */\n      0x45524332303a207472616e7366657220746f20746865207a65726f2061646472\n        /* \"#utility.yul\":7047:7065   */\n      0x44\n      dup3\n      add\n        /* \"#utility.yul\":7040:7102   */\n      mstore\n      shl(0xe8, 0x657373)\n        /* \"#utility.yul\":7118:7136   */\n      0x64\n      dup3\n      add\n        /* \"#utility.yul\":7111:7144   */\n      mstore\n        /* \"#utility.yul\":7161:7180   */\n      0x84\n      add\n        /* \"contracts/exp_flattened.sol\":23061:23125  require(to != address(0), \"ERC20: transfer to the zero address\") */\n      tag_193\n        /* \"#utility.yul\":6787:7186   */\n      jump\n        /* \"contracts/exp_flattened.sol\":23061:23125  require(to != address(0), \"ERC20: transfer to the zero address\") */\n    tag_246:\n        /* \"contracts/exp_flattened.sol\":23138:23176  _beforeTokenTransfer(from, to, amount) */\n      tag_249\n        /* \"contracts/exp_flattened.sol\":23159:23163  from */\n      dup4\n        /* \"contracts/exp_flattened.sol\":23165:23167  to */\n      dup4\n        /* \"contracts/exp_flattened.sol\":23169:23175  amount */\n      dup4\n        /* \"contracts/exp_flattened.sol\":23138:23158  _beforeTokenTransfer */\n      tag_250\n        /* \"contracts/exp_flattened.sol\":23138:23176  _beforeTokenTransfer(from, to, amount) */\n      jump\t// in\n    tag_249:\n      sub(shl(0xa0, 0x01), 0x01)\n        /* \"contracts/exp_flattened.sol\":23211:23226  _balances[from] */\n      dup4\n      and\n        /* \"contracts/exp_flattened.sol\":23189:23208  uint256 fromBalance */\n      0x00\n        /* \"contracts/exp_flattened.sol\":23211:23226  _balances[from] */\n      swap1\n      dup2\n      mstore\n      0x20\n      dup2\n      swap1\n      mstore\n      0x40\n      swap1\n      keccak256\n      sload\n        /* \"contracts/exp_flattened.sol\":23245:23266  fromBalance >= amount */\n      dup2\n      dup2\n      lt\n      iszero\n        /* \"contracts/exp_flattened.sol\":23237:23309  require(fromBalance >= amount, \"ERC20: transfer amount exceeds balance\") */\n      tag_251\n      jumpi\n      mload(0x40)\n      shl(0xe5, 0x461bcd)\n      dup2\n      mstore\n        /* \"#utility.yul\":7393:7395   */\n      0x20\n        /* \"contracts/exp_flattened.sol\":23237:23309  require(fromBalance >= amount, \"ERC20: transfer amount exceeds balance\") */\n      0x04\n      dup3\n      add\n        /* \"#utility.yul\":7375:7396   */\n      mstore\n        /* \"#utility.yul\":7432:7434   */\n      0x26\n        /* \"#utility.yul\":7412:7430   */\n      0x24\n      dup3\n      add\n        /* \"#utility.yul\":7405:7435   */\n      mstore\n        /* \"#utility.yul\":7471:7505   */\n      0x45524332303a207472616e7366657220616d6f756e7420657863656564732062\n        /* \"#utility.yul\":7451:7469   */\n      0x44\n      dup3\n      add\n        /* \"#utility.yul\":7444:7506   */\n      mstore\n      shl(0xd0, 0x616c616e6365)\n        /* \"#utility.yul\":7522:7540   */\n      0x64\n      dup3\n      add\n        /* \"#utility.yul\":7515:7551   */\n      mstore\n        /* \"#utility.yul\":7568:7587   */\n      0x84\n      add\n        /* \"contracts/exp_flattened.sol\":23237:23309  require(fromBalance >= amount, \"ERC20: transfer amount exceeds balance\") */\n      tag_193\n        /* \"#utility.yul\":7191:7593   */\n      jump\n        /* \"contracts/exp_flattened.sol\":23237:23309  require(fromBalance >= amount, \"ERC20: transfer amount exceeds balance\") */\n    tag_251:\n      sub(shl(0xa0, 0x01), 0x01)\n        /* \"contracts/exp_flattened.sol\":23345:23360  _balances[from] */\n      dup5\n      dup2\n      and\n        /* \"contracts/exp_flattened.sol\":23345:23354  _balances */\n      0x00\n        /* \"contracts/exp_flattened.sol\":23345:23360  _balances[from] */\n      dup2\n      dup2\n      mstore\n      0x20\n      dup2\n      dup2\n      mstore\n      0x40\n      dup1\n      dup4\n      keccak256\n        /* \"contracts/exp_flattened.sol\":23363:23383  fromBalance - amount */\n      dup8\n      dup8\n      sub\n        /* \"contracts/exp_flattened.sol\":23345:23383  _balances[from] = fromBalance - amount */\n      swap1\n      sstore\n        /* \"contracts/exp_flattened.sol\":23563:23576  _balances[to] */\n      swap4\n      dup8\n      and\n      dup1\n      dup4\n      mstore\n      swap2\n      dup5\n      swap1\n      keccak256\n        /* \"contracts/exp_flattened.sol\":23563:23586  _balances[to] += amount */\n      dup1\n      sload\n      dup8\n      add\n      swap1\n      sstore\n        /* \"contracts/exp_flattened.sol\":23615:23641  Transfer(from, to, amount) */\n      swap3\n      mload\n        /* \"#utility.yul\":1533:1558   */\n      dup6\n      dup2\n      mstore\n        /* \"contracts/exp_flattened.sol\":23563:23576  _balances[to] */\n      swap1\n      swap3\n        /* \"contracts/exp_flattened.sol\":23615:23641  Transfer(from, to, amount) */\n      0xddf252ad1be2c89b69c2b068fc378daa952ba7f163c4a11628f55a4df523b3ef\n      swap2\n        /* \"#utility.yul\":1506:1524   */\n      add\n        /* \"contracts/exp_flattened.sol\":23615:23641  Transfer(from, to, amount) */\n      mload(0x40)\n      dup1\n      swap2\n      sub\n      swap1\n      log3\n        /* \"contracts/exp_flattened.sol\":23654:23691  _afterTokenTransfer(from, to, amount) */\n      tag_241\n        /* \"contracts/exp_flattened.sol\":23674:23678  from */\n      dup5\n        /* \"contracts/exp_flattened.sol\":23680:23682  to */\n      dup5\n        /* \"contracts/exp_flattened.sol\":23684:23690  amount */\n      dup5\n        /* \"contracts/exp_flattened.sol\":23654:23673  _afterTokenTransfer */\n      tag_256\n        /* \"contracts/exp_flattened.sol\":23654:23691  _afterTokenTransfer(from, to, amount) */\n      jump\t// in\n        /* \"contracts/exp_flattened.sol\":24867:25542  function _burn(address account, uint256 amount) internal virtual {... */\n    tag_177:\n      sub(shl(0xa0, 0x01), 0x01)\n        /* \"contracts/exp_flattened.sol\":24951:24972  account != address(0) */\n      dup3\n      and\n        /* \"contracts/exp_flattened.sol\":24943:25010  require(account != address(0), \"ERC20: burn from the zero address\") */\n      tag_258\n      jumpi\n      mload(0x40)\n      shl(0xe5, 0x461bcd)\n      dup2\n      mstore\n        /* \"#utility.yul\":7800:7802   */\n      0x20\n        /* \"contracts/exp_flattened.sol\":24943:25010  require(account != address(0), \"ERC20: burn from the zero address\") */\n      0x04\n      dup3\n      add\n        /* \"#utility.yul\":7782:7803   */\n      mstore\n        /* \"#utility.yul\":7839:7841   */\n      0x21\n        /* \"#utility.yul\":7819:7837   */\n      0x24\n      dup3\n      add\n        /* \"#utility.yul\":7812:7842   */\n      mstore\n        /* \"#utility.yul\":7878:7912   */\n      0x45524332303a206275726e2066726f6d20746865207a65726f20616464726573\n        /* \"#utility.yul\":7858:7876   */\n      0x44\n      dup3\n      add\n        /* \"#utility.yul\":7851:7913   */\n      mstore\n      shl(0xf8, 0x73)\n        /* \"#utility.yul\":7929:7947   */\n      0x64\n      dup3\n      add\n        /* \"#utility.yul\":7922:7953   */\n      mstore\n        /* \"#utility.yul\":7970:7989   */\n      0x84\n      add\n        /* \"contracts/exp_flattened.sol\":24943:25010  require(account != address(0), \"ERC20: burn from the zero address\") */\n      tag_193\n        /* \"#utility.yul\":7598:7995   */\n      jump\n        /* \"contracts/exp_flattened.sol\":24943:25010  require(account != address(0), \"ERC20: burn from the zero address\") */\n    tag_258:\n        /* \"contracts/exp_flattened.sol\":25023:25072  _beforeTokenTransfer(account, address(0), amount) */\n      tag_261\n        /* \"contracts/exp_flattened.sol\":25044:25051  account */\n      dup3\n        /* \"contracts/exp_flattened.sol\":25061:25062  0 */\n      0x00\n        /* \"contracts/exp_flattened.sol\":25065:25071  amount */\n      dup4\n        /* \"contracts/exp_flattened.sol\":25023:25043  _beforeTokenTransfer */\n      tag_250\n        /* \"contracts/exp_flattened.sol\":25023:25072  _beforeTokenTransfer(account, address(0), amount) */\n      jump\t// in\n    tag_261:\n      sub(shl(0xa0, 0x01), 0x01)\n        /* \"contracts/exp_flattened.sol\":25110:25128  _balances[account] */\n      dup3\n      and\n        /* \"contracts/exp_flattened.sol\":25085:25107  uint256 accountBalance */\n      0x00\n        /* \"contracts/exp_flattened.sol\":25110:25128  _balances[account] */\n      swap1\n      dup2\n      mstore\n      0x20\n      dup2\n      swap1\n      mstore\n      0x40\n      swap1\n      keccak256\n      sload\n        /* \"contracts/exp_flattened.sol\":25147:25171  accountBalance >= amount */\n      dup2\n      dup2\n      lt\n      iszero\n        /* \"contracts/exp_flattened.sol\":25139:25210  require(accountBalance >= amount, \"ERC20: burn amount exceeds balance\") */\n      tag_262\n      jumpi\n      mload(0x40)\n      shl(0xe5, 0x461bcd)\n      dup2\n      mstore\n        /* \"#utility.yul\":8202:8204   */\n      0x20\n        /* \"contracts/exp_flattened.sol\":25139:25210  require(accountBalance >= amount, \"ERC20: burn amount exceeds balance\") */\n      0x04\n      dup3\n      add\n        /* \"#utility.yul\":8184:8205   */\n      mstore\n        /* \"#utility.yul\":8241:8243   */\n      0x22\n        /* \"#utility.yul\":8221:8239   */\n      0x24\n      dup3\n      add\n        /* \"#utility.yul\":8214:8244   */\n      mstore\n        /* \"#utility.yul\":8280:8314   */\n      0x45524332303a206275726e20616d6f756e7420657863656564732062616c616e\n        /* \"#utility.yul\":8260:8278   */\n      0x44\n      dup3\n      add\n        /* \"#utility.yul\":8253:8315   */\n      mstore\n      shl(0xf0, 0x6365)\n        /* \"#utility.yul\":8331:8349   */\n      0x64\n      dup3\n      add\n        /* \"#utility.yul\":8324:8356   */\n      mstore\n        /* \"#utility.yul\":8373:8392   */\n      0x84\n      add\n        /* \"contracts/exp_flattened.sol\":25139:25210  require(accountBalance >= amount, \"ERC20: burn amount exceeds balance\") */\n      tag_193\n        /* \"#utility.yul\":8000:8398   */\n      jump\n        /* \"contracts/exp_flattened.sol\":25139:25210  require(accountBalance >= amount, \"ERC20: burn amount exceeds balance\") */\n    tag_262:\n      sub(shl(0xa0, 0x01), 0x01)\n        /* \"contracts/exp_flattened.sol\":25246:25264  _balances[account] */\n      dup4\n      and\n        /* \"contracts/exp_flattened.sol\":25246:25255  _balances */\n      0x00\n        /* \"contracts/exp_flattened.sol\":25246:25264  _balances[account] */\n      dup2\n      dup2\n      mstore\n      0x20\n      dup2\n      dup2\n      mstore\n      0x40\n      dup1\n      dup4\n      keccak256\n        /* \"contracts/exp_flattened.sol\":25267:25290  accountBalance - amount */\n      dup7\n      dup7\n      sub\n        /* \"contracts/exp_flattened.sol\":25246:25290  _balances[account] = accountBalance - amount */\n      swap1\n      sstore\n        /* \"contracts/exp_flattened.sol\":25385:25397  _totalSupply */\n      0x02\n        /* \"contracts/exp_flattened.sol\":25385:25407  _totalSupply -= amount */\n      dup1\n      sload\n      dup8\n      swap1\n      sub\n      swap1\n      sstore\n        /* \"contracts/exp_flattened.sol\":25436:25473  Transfer(account, address(0), amount) */\n      mload\n        /* \"#utility.yul\":1533:1558   */\n      dup6\n      dup2\n      mstore\n        /* \"contracts/exp_flattened.sol\":25246:25255  _balances */\n      swap2\n      swap3\n        /* \"contracts/exp_flattened.sol\":25246:25264  _balances[account] */\n      swap2\n        /* \"contracts/exp_flattened.sol\":25436:25473  Transfer(account, address(0), amount) */\n      0xddf252ad1be2c89b69c2b068fc378daa952ba7f163c4a11628f55a4df523b3ef\n      swap2\n        /* \"#utility.yul\":1506:1524   */\n      add\n        /* \"contracts/exp_flattened.sol\":25436:25473  Transfer(account, address(0), amount) */\n      mload(0x40)\n      dup1\n      swap2\n      sub\n      swap1\n      log3\n        /* \"contracts/exp_flattened.sol\":25486:25534  _afterTokenTransfer(account, address(0), amount) */\n      tag_266\n        /* \"contracts/exp_flattened.sol\":25506:25513  account */\n      dup4\n        /* \"contracts/exp_flattened.sol\":25523:25524  0 */\n      0x00\n        /* \"contracts/exp_flattened.sol\":25527:25533  amount */\n      dup5\n        /* \"contracts/exp_flattened.sol\":25486:25505  _afterTokenTransfer */\n      tag_256\n        /* \"contracts/exp_flattened.sol\":25486:25534  _afterTokenTransfer(account, address(0), amount) */\n      jump\t// in\n    tag_266:\n        /* \"contracts/exp_flattened.sol\":24932:25542  {... */\n      pop\n        /* \"contracts/exp_flattened.sol\":24867:25542  function _burn(address account, uint256 amount) internal virtual {... */\n      pop\n      pop\n      jump\t// out\n        /* \"contracts/exp_flattened.sol\":10509:10641  function _checkOwner() internal view virtual {... */\n    tag_181:\n        /* \"contracts/exp_flattened.sol\":10417:10423  _owner */\n      and(sub(shl(0xa0, 0x01), 0x01), sload(0x05))\n        /* \"contracts/exp_flattened.sol\":8998:9008  msg.sender */\n      caller\n        /* \"contracts/exp_flattened.sol\":10573:10596  owner() == _msgSender() */\n      eq\n        /* \"contracts/exp_flattened.sol\":10565:10633  require(owner() == _msgSender(), \"Ownable: caller is not the owner\") */\n      tag_183\n      jumpi\n      mload(0x40)\n      shl(0xe5, 0x461bcd)\n      dup2\n      mstore\n        /* \"#utility.yul\":8605:8607   */\n      0x20\n        /* \"contracts/exp_flattened.sol\":10565:10633  require(owner() == _msgSender(), \"Ownable: caller is not the owner\") */\n      0x04\n      dup3\n      add\n        /* \"#utility.yul\":8587:8608   */\n      dup2\n      swap1\n      mstore\n        /* \"#utility.yul\":8624:8642   */\n      0x24\n      dup3\n      add\n        /* \"#utility.yul\":8617:8647   */\n      mstore\n        /* \"#utility.yul\":8683:8717   */\n      0x4f776e61626c653a2063616c6c6572206973206e6f7420746865206f776e6572\n        /* \"#utility.yul\":8663:8681   */\n      0x44\n      dup3\n      add\n        /* \"#utility.yul\":8656:8718   */\n      mstore\n        /* \"#utility.yul\":8735:8753   */\n      0x64\n      add\n        /* \"contracts/exp_flattened.sol\":10565:10633  require(owner() == _msgSender(), \"Ownable: caller is not the owner\") */\n      tag_193\n        /* \"#utility.yul\":8403:8759   */\n      jump\n        /* \"contracts/exp_flattened.sol\":11604:11795  function _transferOwnership(address newOwner) internal virtual {... */\n    tag_184:\n        /* \"contracts/exp_flattened.sol\":11697:11703  _owner */\n      0x05\n      dup1\n      sload\n      sub(shl(0xa0, 0x01), 0x01)\n        /* \"contracts/exp_flattened.sol\":11714:11731  _owner = newOwner */\n      dup4\n      dup2\n      and\n      not(sub(shl(0xa0, 0x01), 0x01))\n      dup4\n      and\n      dup2\n      or\n      swap1\n      swap4\n      sstore\n        /* \"contracts/exp_flattened.sol\":11747:11787  OwnershipTransferred(oldOwner, newOwner) */\n      mload(0x40)\n        /* \"contracts/exp_flattened.sol\":11697:11703  _owner */\n      swap2\n      and\n      swap2\n        /* \"contracts/exp_flattened.sol\":11714:11731  _owner = newOwner */\n      swap1\n        /* \"contracts/exp_flattened.sol\":11697:11703  _owner */\n      dup3\n      swap1\n        /* \"contracts/exp_flattened.sol\":11747:11787  OwnershipTransferred(oldOwner, newOwner) */\n      0x8be0079c531659141344cd1fd0a4f28419497f9722a3daafe3b4186f6b6457e0\n      swap1\n        /* \"contracts/exp_flattened.sol\":11678:11694  address oldOwner */\n      0x00\n      swap1\n        /* \"contracts/exp_flattened.sol\":11747:11787  OwnershipTransferred(oldOwner, newOwner) */\n      log3\n        /* \"contracts/exp_flattened.sol\":11667:11795  {... */\n      pop\n        /* \"contracts/exp_flattened.sol\":11604:11795  function _transferOwnership(address newOwner) internal virtual {... */\n      pop\n      jump\t// out\n        /* \"contracts/exp_flattened.sol\":31801:32026  function _setPair(address pair, bool isPair) private {... */\n    tag_196:\n      sub(shl(0xa0, 0x01), 0x01)\n        /* \"contracts/exp_flattened.sol\":31865:31879  EXPPairs[pair] */\n      dup3\n      and\n      0x00\n      swap1\n      dup2\n      mstore\n        /* \"contracts/exp_flattened.sol\":31865:31873  EXPPairs */\n      0x08\n        /* \"contracts/exp_flattened.sol\":31865:31879  EXPPairs[pair] */\n      0x20\n      mstore\n      0x40\n      swap1\n      keccak256\n        /* \"contracts/exp_flattened.sol\":31865:31888  EXPPairs[pair] = isPair */\n      dup1\n      sload\n      not(0xff)\n      and\n      dup3\n      iszero\n      dup1\n      iszero\n      swap2\n      swap1\n      swap2\n      or\n      swap1\n      swap2\n      sstore\n        /* \"contracts/exp_flattened.sol\":31901:31972  if (isPair) { ... */\n      tag_276\n      jumpi\n        /* \"contracts/exp_flattened.sol\":31929:31958  excludeFromLimits(pair, true) */\n      tag_276\n        /* \"contracts/exp_flattened.sol\":31947:31951  pair */\n      dup3\n        /* \"contracts/exp_flattened.sol\":31953:31957  true */\n      0x01\n        /* \"contracts/exp_flattened.sol\":31929:31946  excludeFromLimits */\n      tag_137\n        /* \"contracts/exp_flattened.sol\":31929:31958  excludeFromLimits(pair, true) */\n      jump\t// in\n    tag_276:\n        /* \"contracts/exp_flattened.sol\":32005:32009  pair */\n      dup2\n      sub(shl(0xa0, 0x01), 0x01)\n        /* \"contracts/exp_flattened.sol\":31989:32018  EXPPairsUpdated(pair, isPair) */\n      and\n      0xbd644d0494a31fc85cfaeb323e120ba28c5f13ba02e99a38cb904fbc164f4da1\n        /* \"contracts/exp_flattened.sol\":32011:32017  isPair */\n      dup3\n        /* \"contracts/exp_flattened.sol\":31989:32018  EXPPairsUpdated(pair, isPair) */\n      mload(0x40)\n      tag_217\n      swap2\n        /* \"#utility.yul\":548:562   */\n      iszero\n        /* \"#utility.yul\":541:563   */\n      iszero\n        /* \"#utility.yul\":523:564   */\n      dup2\n      mstore\n        /* \"#utility.yul\":511:513   */\n      0x20\n        /* \"#utility.yul\":496:514   */\n      add\n      swap1\n        /* \"#utility.yul\":383:570   */\n      jump\n        /* \"contracts/exp_flattened.sol\":32235:33154  function _beforeTokenTransfer(address from, address to, uint256 amount)... */\n    tag_250:\n      sub(shl(0xa0, 0x01), 0x01)\n        /* \"contracts/exp_flattened.sol\":32349:32367  from != address(0) */\n      dup4\n      and\n      iszero\n      dup1\n      iszero\n      swap1\n        /* \"contracts/exp_flattened.sol\":32349:32387  from != address(0) && to != address(0) */\n      tag_279\n      jumpi\n      pop\n      sub(shl(0xa0, 0x01), 0x01)\n        /* \"contracts/exp_flattened.sol\":32371:32387  to != address(0) */\n      dup3\n      and\n      iszero\n      iszero\n        /* \"contracts/exp_flattened.sol\":32349:32387  from != address(0) && to != address(0) */\n    tag_279:\n        /* \"contracts/exp_flattened.sol\":32345:33098  if (from != address(0) && to != address(0)) {... */\n      iszero\n      tag_266\n      jumpi\n      sub(shl(0xa0, 0x01), 0x01)\n        /* \"contracts/exp_flattened.sol\":32438:32452  EXPPairs[from] */\n      dup4\n      and\n        /* \"contracts/exp_flattened.sol\":32400:32417  uint256 feeAmount */\n      0x00\n        /* \"contracts/exp_flattened.sol\":32438:32452  EXPPairs[from] */\n      swap1\n      dup2\n      mstore\n        /* \"contracts/exp_flattened.sol\":32438:32446  EXPPairs */\n      0x08\n        /* \"contracts/exp_flattened.sol\":32438:32452  EXPPairs[from] */\n      0x20\n      mstore\n      0x40\n      dup2\n      keccak256\n      sload\n      0xff\n      and\n        /* \"contracts/exp_flattened.sol\":32434:32658  if (EXPPairs[from]) {... */\n      iszero\n      tag_281\n      jumpi\n        /* \"contracts/exp_flattened.sol\":32530:32533  100 */\n      0x64\n        /* \"contracts/exp_flattened.sol\":32511:32527  amount * sellfee */\n      tag_282\n        /* \"contracts/exp_flattened.sol\":30418:30419  1 */\n      0x01\n        /* \"contracts/exp_flattened.sol\":32511:32517  amount */\n      dup5\n        /* \"contracts/exp_flattened.sol\":32511:32527  amount * sellfee */\n      tag_283\n      jump\t// in\n    tag_282:\n        /* \"contracts/exp_flattened.sol\":32511:32533  amount * sellfee / 100 */\n      tag_284\n      swap2\n      swap1\n      tag_285\n      jump\t// in\n    tag_284:\n        /* \"contracts/exp_flattened.sol\":32499:32533  feeAmount = amount * sellfee / 100 */\n      swap1\n      pop\n        /* \"contracts/exp_flattened.sol\":32434:32658  if (EXPPairs[from]) {... */\n      jump(tag_287)\n    tag_281:\n      sub(shl(0xa0, 0x01), 0x01)\n        /* \"contracts/exp_flattened.sol\":32555:32567  EXPPairs[to] */\n      dup4\n      and\n      0x00\n      swap1\n      dup2\n      mstore\n        /* \"contracts/exp_flattened.sol\":32555:32563  EXPPairs */\n      0x08\n        /* \"contracts/exp_flattened.sol\":32555:32567  EXPPairs[to] */\n      0x20\n      mstore\n      0x40\n      swap1\n      keccak256\n      sload\n      0xff\n      and\n        /* \"contracts/exp_flattened.sol\":32551:32658  if (EXPPairs[to]) {... */\n      iszero\n      tag_287\n      jumpi\n        /* \"contracts/exp_flattened.sol\":32643:32646  100 */\n      0x64\n        /* \"contracts/exp_flattened.sol\":32625:32640  amount * buyfee */\n      tag_288\n        /* \"contracts/exp_flattened.sol\":30375:30376  1 */\n      0x01\n        /* \"contracts/exp_flattened.sol\":32625:32631  amount */\n      dup5\n        /* \"contracts/exp_flattened.sol\":32625:32640  amount * buyfee */\n      tag_283\n      jump\t// in\n    tag_288:\n        /* \"contracts/exp_flattened.sol\":32625:32646  amount * buyfee / 100 */\n      tag_289\n      swap2\n      swap1\n      tag_285\n      jump\t// in\n    tag_289:\n        /* \"contracts/exp_flattened.sol\":32613:32646  feeAmount = amount * buyfee / 100 */\n      swap1\n      pop\n        /* \"contracts/exp_flattened.sol\":32551:32658  if (EXPPairs[to]) {... */\n    tag_287:\n        /* \"contracts/exp_flattened.sol\":32674:32687  feeAmount > 0 */\n      dup1\n      iszero\n        /* \"contracts/exp_flattened.sol\":32670:33091  if (feeAmount > 0) {... */\n      tag_241\n      jumpi\n        /* \"contracts/exp_flattened.sol\":32753:32775  _burn(from, feeAmount) */\n      tag_291\n        /* \"contracts/exp_flattened.sol\":32759:32763  from */\n      dup5\n        /* \"contracts/exp_flattened.sol\":32765:32774  feeAmount */\n      dup3\n        /* \"contracts/exp_flattened.sol\":32753:32758  _burn */\n      tag_177\n        /* \"contracts/exp_flattened.sol\":32753:32775  _burn(from, feeAmount) */\n      jump\t// in\n    tag_291:\n        /* \"contracts/exp_flattened.sol\":32887:32893  expDev */\n      sload(0x0a)\n        /* \"contracts/exp_flattened.sol\":32872:32881  bool sent */\n      0x00\n      swap1\n      sub(shl(0xa0, 0x01), 0x01)\n        /* \"contracts/exp_flattened.sol\":32887:32893  expDev */\n      and\n        /* \"contracts/exp_flattened.sol\":32930:32933  100 */\n      0x64\n        /* \"contracts/exp_flattened.sol\":32906:32927  msg.value * feeAmount */\n      tag_292\n        /* \"contracts/exp_flattened.sol\":32918:32927  feeAmount */\n      dup5\n        /* \"contracts/exp_flattened.sol\":32906:32915  msg.value */\n      callvalue\n        /* \"contracts/exp_flattened.sol\":32906:32927  msg.value * feeAmount */\n      tag_283\n      jump\t// in\n    tag_292:\n        /* \"contracts/exp_flattened.sol\":32906:32933  msg.value * feeAmount / 100 */\n      tag_293\n      swap2\n      swap1\n      tag_285\n      jump\t// in\n    tag_293:\n        /* \"contracts/exp_flattened.sol\":32887:32938  expDev.call{value: msg.value * feeAmount / 100}(\"\") */\n      mload(0x40)\n      0x00\n      dup2\n      dup2\n      dup2\n      dup6\n      dup8\n      gas\n      call\n      swap3\n      pop\n      pop\n      pop\n      returndatasize\n      dup1\n      0x00\n      dup2\n      eq\n      tag_298\n      jumpi\n      mload(0x40)\n      swap2\n      pop\n      and(add(returndatasize, 0x3f), not(0x1f))\n      dup3\n      add\n      0x40\n      mstore\n      returndatasize\n      dup3\n      mstore\n      returndatasize\n      0x00\n      0x20\n      dup5\n      add\n      returndatacopy\n      jump(tag_297)\n    tag_298:\n      0x60\n      swap2\n      pop\n    tag_297:\n      pop\n        /* \"contracts/exp_flattened.sol\":32871:32938  (bool sent, ) = expDev.call{value: msg.value * feeAmount / 100}(\"\") */\n      pop\n      swap1\n      pop\n        /* \"contracts/exp_flattened.sol\":32961:32965  sent */\n      dup1\n        /* \"contracts/exp_flattened.sol\":32953:32988  require(sent, \"Failed to send ETH\") */\n      tag_299\n      jumpi\n      mload(0x40)\n      shl(0xe5, 0x461bcd)\n      dup2\n      mstore\n        /* \"#utility.yul\":9571:9573   */\n      0x20\n        /* \"contracts/exp_flattened.sol\":32953:32988  require(sent, \"Failed to send ETH\") */\n      0x04\n      dup3\n      add\n        /* \"#utility.yul\":9553:9574   */\n      mstore\n        /* \"#utility.yul\":9610:9612   */\n      0x12\n        /* \"#utility.yul\":9590:9608   */\n      0x24\n      dup3\n      add\n        /* \"#utility.yul\":9583:9613   */\n      mstore\n      shl(0x73, 0x08cc2d2d8cac840e8de40e6cadcc8408aa89)\n        /* \"#utility.yul\":9629:9647   */\n      0x44\n      dup3\n      add\n        /* \"#utility.yul\":9622:9670   */\n      mstore\n        /* \"#utility.yul\":9687:9705   */\n      0x64\n      add\n        /* \"contracts/exp_flattened.sol\":32953:32988  require(sent, \"Failed to send ETH\") */\n      tag_193\n        /* \"#utility.yul\":9369:9711   */\n      jump\n        /* \"contracts/exp_flattened.sol\":32953:32988  require(sent, \"Failed to send ETH\") */\n    tag_299:\n        /* \"contracts/exp_flattened.sol\":33060:33079  amount -= feeAmount */\n      tag_302\n        /* \"contracts/exp_flattened.sol\":33070:33079  feeAmount */\n      dup3\n        /* \"contracts/exp_flattened.sol\":33060:33079  amount -= feeAmount */\n      dup5\n      tag_303\n      jump\t// in\n    tag_302:\n      pop\n      pop\n      pop\n      pop\n      pop\n      pop\n        /* \"contracts/exp_flattened.sol\":24867:25542  function _burn(address account, uint256 amount) internal virtual {... */\n      jump\t// out\n        /* \"contracts/exp_flattened.sol\":33164:33494  function _afterTokenTransfer(address from, address to, uint256 amount)... */\n    tag_256:\n      sub(shl(0xa0, 0x01), 0x01)\n        /* \"contracts/exp_flattened.sol\":33292:33316  isExcludedFromLimits[to] */\n      dup3\n      and\n      0x00\n      swap1\n      dup2\n      mstore\n        /* \"contracts/exp_flattened.sol\":33292:33312  isExcludedFromLimits */\n      0x09\n        /* \"contracts/exp_flattened.sol\":33292:33316  isExcludedFromLimits[to] */\n      0x20\n      mstore\n      0x40\n      swap1\n      keccak256\n      sload\n      0xff\n      and\n        /* \"contracts/exp_flattened.sol\":33287:33431  if (!isExcludedFromLimits[to]) {... */\n      tag_266\n      jumpi\n        /* \"contracts/exp_flattened.sol\":33358:33373  maxWalletAmount */\n      sload(0x0c)\n      sub(shl(0xa0, 0x01), 0x01)\n        /* \"contracts/exp_flattened.sol\":18836:18854  _balances[account] */\n      dup4\n      and\n        /* \"contracts/exp_flattened.sol\":18809:18816  uint256 */\n      0x00\n        /* \"contracts/exp_flattened.sol\":18836:18854  _balances[account] */\n      swap1\n      dup2\n      mstore\n      0x20\n      dup2\n      swap1\n      mstore\n      0x40\n      swap1\n      keccak256\n      sload\n        /* \"contracts/exp_flattened.sol\":33341:33373  balanceOf(to) <= maxWalletAmount */\n      gt\n      iszero\n        /* \"contracts/exp_flattened.sol\":33333:33419  require(balanceOf(to) <= maxWalletAmount, \"MaxWallet: Cannot exceed max wallet limit\") */\n      tag_266\n      jumpi\n      mload(0x40)\n      shl(0xe5, 0x461bcd)\n      dup2\n      mstore\n        /* \"#utility.yul\":10051:10053   */\n      0x20\n        /* \"contracts/exp_flattened.sol\":33333:33419  require(balanceOf(to) <= maxWalletAmount, \"MaxWallet: Cannot exceed max wallet limit\") */\n      0x04\n      dup3\n      add\n        /* \"#utility.yul\":10033:10054   */\n      mstore\n        /* \"#utility.yul\":10090:10092   */\n      0x29\n        /* \"#utility.yul\":10070:10088   */\n      0x24\n      dup3\n      add\n        /* \"#utility.yul\":10063:10093   */\n      mstore\n        /* \"#utility.yul\":10129:10163   */\n      0x4d617857616c6c65743a2043616e6e6f7420657863656564206d61782077616c\n        /* \"#utility.yul\":10109:10127   */\n      0x44\n      dup3\n      add\n        /* \"#utility.yul\":10102:10164   */\n      mstore\n      shl(0xba, 0x1b195d081b1a5b5a5d)\n        /* \"#utility.yul\":10180:10198   */\n      0x64\n      dup3\n      add\n        /* \"#utility.yul\":10173:10212   */\n      mstore\n        /* \"#utility.yul\":10229:10248   */\n      0x84\n      add\n        /* \"contracts/exp_flattened.sol\":33333:33419  require(balanceOf(to) <= maxWalletAmount, \"MaxWallet: Cannot exceed max wallet limit\") */\n      tag_193\n        /* \"#utility.yul\":9849:10254   */\n      jump\n        /* \"#utility.yul\":14:187   */\n    tag_316:\n        /* \"#utility.yul\":82:102   */\n      dup1\n      calldataload\n      sub(shl(0xa0, 0x01), 0x01)\n        /* \"#utility.yul\":131:162   */\n      dup2\n      and\n        /* \"#utility.yul\":121:163   */\n      dup2\n      eq\n        /* \"#utility.yul\":111:181   */\n      tag_320\n      jumpi\n        /* \"#utility.yul\":177:178   */\n      0x00\n        /* \"#utility.yul\":174:175   */\n      dup1\n        /* \"#utility.yul\":167:179   */\n      revert\n        /* \"#utility.yul\":111:181   */\n    tag_320:\n        /* \"#utility.yul\":14:187   */\n      swap2\n      swap1\n      pop\n      jump\t// out\n        /* \"#utility.yul\":192:378   */\n    tag_35:\n        /* \"#utility.yul\":251:257   */\n      0x00\n        /* \"#utility.yul\":304:306   */\n      0x20\n        /* \"#utility.yul\":292:301   */\n      dup3\n        /* \"#utility.yul\":283:290   */\n      dup5\n        /* \"#utility.yul\":279:302   */\n      sub\n        /* \"#utility.yul\":275:307   */\n      slt\n        /* \"#utility.yul\":272:324   */\n      iszero\n      tag_322\n      jumpi\n        /* \"#utility.yul\":320:321   */\n      0x00\n        /* \"#utility.yul\":317:318   */\n      dup1\n        /* \"#utility.yul\":310:322   */\n      revert\n        /* \"#utility.yul\":272:324   */\n    tag_322:\n        /* \"#utility.yul\":343:372   */\n      tag_323\n        /* \"#utility.yul\":362:371   */\n      dup3\n        /* \"#utility.yul\":343:372   */\n      tag_316\n      jump\t// in\n    tag_323:\n        /* \"#utility.yul\":333:372   */\n      swap4\n        /* \"#utility.yul\":192:378   */\n      swap3\n      pop\n      pop\n      pop\n      jump\t// out\n        /* \"#utility.yul\":575:1123   */\n    tag_43:\n        /* \"#utility.yul\":687:691   */\n      0x00\n        /* \"#utility.yul\":716:718   */\n      0x20\n        /* \"#utility.yul\":745:747   */\n      dup1\n        /* \"#utility.yul\":734:743   */\n      dup4\n        /* \"#utility.yul\":727:748   */\n      mstore\n        /* \"#utility.yul\":777:783   */\n      dup4\n        /* \"#utility.yul\":771:784   */\n      mload\n        /* \"#utility.yul\":820:826   */\n      dup1\n        /* \"#utility.yul\":815:817   */\n      dup3\n        /* \"#utility.yul\":804:813   */\n      dup6\n        /* \"#utility.yul\":800:818   */\n      add\n        /* \"#utility.yul\":793:827   */\n      mstore\n        /* \"#utility.yul\":845:846   */\n      0x00\n        /* \"#utility.yul\":855:995   */\n    tag_326:\n        /* \"#utility.yul\":869:875   */\n      dup2\n        /* \"#utility.yul\":866:867   */\n      dup2\n        /* \"#utility.yul\":863:876   */\n      lt\n        /* \"#utility.yul\":855:995   */\n      iszero\n      tag_328\n      jumpi\n        /* \"#utility.yul\":964:978   */\n      dup6\n      dup2\n      add\n        /* \"#utility.yul\":960:983   */\n      dup4\n      add\n        /* \"#utility.yul\":954:984   */\n      mload\n        /* \"#utility.yul\":930:947   */\n      dup6\n      dup3\n      add\n        /* \"#utility.yul\":949:951   */\n      0x40\n        /* \"#utility.yul\":926:952   */\n      add\n        /* \"#utility.yul\":919:985   */\n      mstore\n        /* \"#utility.yul\":884:894   */\n      dup3\n      add\n        /* \"#utility.yul\":855:995   */\n      jump(tag_326)\n    tag_328:\n        /* \"#utility.yul\":859:862   */\n      pop\n        /* \"#utility.yul\":1044:1045   */\n      0x00\n        /* \"#utility.yul\":1039:1041   */\n      0x40\n        /* \"#utility.yul\":1030:1036   */\n      dup3\n        /* \"#utility.yul\":1019:1028   */\n      dup7\n        /* \"#utility.yul\":1015:1037   */\n      add\n        /* \"#utility.yul\":1011:1042   */\n      add\n        /* \"#utility.yul\":1004:1046   */\n      mstore\n        /* \"#utility.yul\":1114:1116   */\n      0x40\n        /* \"#utility.yul\":1107:1109   */\n      0x1f\n        /* \"#utility.yul\":1103:1110   */\n      not\n        /* \"#utility.yul\":1098:1100   */\n      0x1f\n        /* \"#utility.yul\":1090:1096   */\n      dup4\n        /* \"#utility.yul\":1086:1101   */\n      add\n        /* \"#utility.yul\":1082:1111   */\n      and\n        /* \"#utility.yul\":1071:1080   */\n      dup6\n        /* \"#utility.yul\":1067:1112   */\n      add\n        /* \"#utility.yul\":1063:1117   */\n      add\n        /* \"#utility.yul\":1055:1117   */\n      swap3\n      pop\n      pop\n      pop\n        /* \"#utility.yul\":575:1123   */\n      swap3\n      swap2\n      pop\n      pop\n      jump\t// out\n        /* \"#utility.yul\":1128:1382   */\n    tag_47:\n        /* \"#utility.yul\":1196:1202   */\n      0x00\n        /* \"#utility.yul\":1204:1210   */\n      dup1\n        /* \"#utility.yul\":1257:1259   */\n      0x40\n        /* \"#utility.yul\":1245:1254   */\n      dup4\n        /* \"#utility.yul\":1236:1243   */\n      dup6\n        /* \"#utility.yul\":1232:1255   */\n      sub\n        /* \"#utility.yul\":1228:1260   */\n      slt\n        /* \"#utility.yul\":1225:1277   */\n      iszero\n      tag_330\n      jumpi\n        /* \"#utility.yul\":1273:1274   */\n      0x00\n        /* \"#utility.yul\":1270:1271   */\n      dup1\n        /* \"#utility.yul\":1263:1275   */\n      revert\n        /* \"#utility.yul\":1225:1277   */\n    tag_330:\n        /* \"#utility.yul\":1296:1325   */\n      tag_331\n        /* \"#utility.yul\":1315:1324   */\n      dup4\n        /* \"#utility.yul\":1296:1325   */\n      tag_316\n      jump\t// in\n    tag_331:\n        /* \"#utility.yul\":1286:1325   */\n      swap5\n        /* \"#utility.yul\":1372:1374   */\n      0x20\n        /* \"#utility.yul\":1357:1375   */\n      swap4\n      swap1\n      swap4\n      add\n        /* \"#utility.yul\":1344:1376   */\n      calldataload\n      swap4\n      pop\n      pop\n      pop\n        /* \"#utility.yul\":1128:1382   */\n      jump\t// out\n        /* \"#utility.yul\":1569:1897   */\n    tag_58:\n        /* \"#utility.yul\":1646:1652   */\n      0x00\n        /* \"#utility.yul\":1654:1660   */\n      dup1\n        /* \"#utility.yul\":1662:1668   */\n      0x00\n        /* \"#utility.yul\":1715:1717   */\n      0x60\n        /* \"#utility.yul\":1703:1712   */\n      dup5\n        /* \"#utility.yul\":1694:1701   */\n      dup7\n        /* \"#utility.yul\":1690:1713   */\n      sub\n        /* \"#utility.yul\":1686:1718   */\n      slt\n        /* \"#utility.yul\":1683:1735   */\n      iszero\n      tag_334\n      jumpi\n        /* \"#utility.yul\":1731:1732   */\n      0x00\n        /* \"#utility.yul\":1728:1729   */\n      dup1\n        /* \"#utility.yul\":1721:1733   */\n      revert\n        /* \"#utility.yul\":1683:1735   */\n    tag_334:\n        /* \"#utility.yul\":1754:1783   */\n      tag_335\n        /* \"#utility.yul\":1773:1782   */\n      dup5\n        /* \"#utility.yul\":1754:1783   */\n      tag_316\n      jump\t// in\n    tag_335:\n        /* \"#utility.yul\":1744:1783   */\n      swap3\n      pop\n        /* \"#utility.yul\":1802:1840   */\n      tag_336\n        /* \"#utility.yul\":1836:1838   */\n      0x20\n        /* \"#utility.yul\":1825:1834   */\n      dup6\n        /* \"#utility.yul\":1821:1839   */\n      add\n        /* \"#utility.yul\":1802:1840   */\n      tag_316\n      jump\t// in\n    tag_336:\n        /* \"#utility.yul\":1792:1840   */\n      swap2\n      pop\n        /* \"#utility.yul\":1887:1889   */\n      0x40\n        /* \"#utility.yul\":1876:1885   */\n      dup5\n        /* \"#utility.yul\":1872:1890   */\n      add\n        /* \"#utility.yul\":1859:1891   */\n      calldataload\n        /* \"#utility.yul\":1849:1891   */\n      swap1\n      pop\n        /* \"#utility.yul\":1569:1897   */\n      swap3\n      pop\n      swap3\n      pop\n      swap3\n      jump\t// out\n        /* \"#utility.yul\":2091:2271   */\n    tag_74:\n        /* \"#utility.yul\":2150:2156   */\n      0x00\n        /* \"#utility.yul\":2203:2205   */\n      0x20\n        /* \"#utility.yul\":2191:2200   */\n      dup3\n        /* \"#utility.yul\":2182:2189   */\n      dup5\n        /* \"#utility.yul\":2178:2201   */\n      sub\n        /* \"#utility.yul\":2174:2206   */\n      slt\n        /* \"#utility.yul\":2171:2223   */\n      iszero\n      tag_339\n      jumpi\n        /* \"#utility.yul\":2219:2220   */\n      0x00\n        /* \"#utility.yul\":2216:2217   */\n      dup1\n        /* \"#utility.yul\":2209:2221   */\n      revert\n        /* \"#utility.yul\":2171:2223   */\n    tag_339:\n      pop\n        /* \"#utility.yul\":2242:2265   */\n      calldataload\n      swap2\n        /* \"#utility.yul\":2091:2271   */\n      swap1\n      pop\n      jump\t// out\n        /* \"#utility.yul\":2510:2857   */\n    tag_101:\n        /* \"#utility.yul\":2575:2581   */\n      0x00\n        /* \"#utility.yul\":2583:2589   */\n      dup1\n        /* \"#utility.yul\":2636:2638   */\n      0x40\n        /* \"#utility.yul\":2624:2633   */\n      dup4\n        /* \"#utility.yul\":2615:2622   */\n      dup6\n        /* \"#utility.yul\":2611:2634   */\n      sub\n        /* \"#utility.yul\":2607:2639   */\n      slt\n        /* \"#utility.yul\":2604:2656   */\n      iszero\n      tag_342\n      jumpi\n        /* \"#utility.yul\":2652:2653   */\n      0x00\n        /* \"#utility.yul\":2649:2650   */\n      dup1\n        /* \"#utility.yul\":2642:2654   */\n      revert\n        /* \"#utility.yul\":2604:2656   */\n    tag_342:\n        /* \"#utility.yul\":2675:2704   */\n      tag_343\n        /* \"#utility.yul\":2694:2703   */\n      dup4\n        /* \"#utility.yul\":2675:2704   */\n      tag_316\n      jump\t// in\n    tag_343:\n        /* \"#utility.yul\":2665:2704   */\n      swap2\n      pop\n        /* \"#utility.yul\":2754:2756   */\n      0x20\n        /* \"#utility.yul\":2743:2752   */\n      dup4\n        /* \"#utility.yul\":2739:2757   */\n      add\n        /* \"#utility.yul\":2726:2758   */\n      calldataload\n        /* \"#utility.yul\":2801:2806   */\n      dup1\n        /* \"#utility.yul\":2794:2807   */\n      iszero\n        /* \"#utility.yul\":2787:2808   */\n      iszero\n        /* \"#utility.yul\":2780:2785   */\n      dup2\n        /* \"#utility.yul\":2777:2809   */\n      eq\n        /* \"#utility.yul\":2767:2827   */\n      tag_344\n      jumpi\n        /* \"#utility.yul\":2823:2824   */\n      0x00\n        /* \"#utility.yul\":2820:2821   */\n      dup1\n        /* \"#utility.yul\":2813:2825   */\n      revert\n        /* \"#utility.yul\":2767:2827   */\n    tag_344:\n        /* \"#utility.yul\":2846:2851   */\n      dup1\n        /* \"#utility.yul\":2836:2851   */\n      swap2\n      pop\n      pop\n        /* \"#utility.yul\":2510:2857   */\n      swap3\n      pop\n      swap3\n      swap1\n      pop\n      jump\t// out\n        /* \"#utility.yul\":3070:3330   */\n    tag_141:\n        /* \"#utility.yul\":3138:3144   */\n      0x00\n        /* \"#utility.yul\":3146:3152   */\n      dup1\n        /* \"#utility.yul\":3199:3201   */\n      0x40\n        /* \"#utility.yul\":3187:3196   */\n      dup4\n        /* \"#utility.yul\":3178:3185   */\n      dup6\n        /* \"#utility.yul\":3174:3197   */\n      sub\n        /* \"#utility.yul\":3170:3202   */\n      slt\n        /* \"#utility.yul\":3167:3219   */\n      iszero\n      tag_347\n      jumpi\n        /* \"#utility.yul\":3215:3216   */\n      0x00\n        /* \"#utility.yul\":3212:3213   */\n      dup1\n        /* \"#utility.yul\":3205:3217   */\n      revert\n        /* \"#utility.yul\":3167:3219   */\n    tag_347:\n        /* \"#utility.yul\":3238:3267   */\n      tag_348\n        /* \"#utility.yul\":3257:3266   */\n      dup4\n        /* \"#utility.yul\":3238:3267   */\n      tag_316\n      jump\t// in\n    tag_348:\n        /* \"#utility.yul\":3228:3267   */\n      swap2\n      pop\n        /* \"#utility.yul\":3286:3324   */\n      tag_349\n        /* \"#utility.yul\":3320:3322   */\n      0x20\n        /* \"#utility.yul\":3309:3318   */\n      dup5\n        /* \"#utility.yul\":3305:3323   */\n      add\n        /* \"#utility.yul\":3286:3324   */\n      tag_316\n      jump\t// in\n    tag_349:\n        /* \"#utility.yul\":3276:3324   */\n      swap1\n      pop\n        /* \"#utility.yul\":3070:3330   */\n      swap3\n      pop\n      swap3\n      swap1\n      pop\n      jump\t// out\n        /* \"#utility.yul\":3335:3715   */\n    tag_150:\n        /* \"#utility.yul\":3414:3415   */\n      0x01\n        /* \"#utility.yul\":3410:3422   */\n      dup2\n      dup2\n      shr\n      swap1\n        /* \"#utility.yul\":3457:3469   */\n      dup3\n      and\n      dup1\n        /* \"#utility.yul\":3478:3539   */\n      tag_351\n      jumpi\n        /* \"#utility.yul\":3532:3536   */\n      0x7f\n        /* \"#utility.yul\":3524:3530   */\n      dup3\n        /* \"#utility.yul\":3520:3537   */\n      and\n        /* \"#utility.yul\":3510:3537   */\n      swap2\n      pop\n        /* \"#utility.yul\":3478:3539   */\n    tag_351:\n        /* \"#utility.yul\":3585:3587   */\n      0x20\n        /* \"#utility.yul\":3577:3583   */\n      dup3\n        /* \"#utility.yul\":3574:3588   */\n      lt\n        /* \"#utility.yul\":3554:3572   */\n      dup2\n        /* \"#utility.yul\":3551:3589   */\n      sub\n        /* \"#utility.yul\":3548:3709   */\n      tag_352\n      jumpi\n        /* \"#utility.yul\":3631:3641   */\n      0x4e487b71\n        /* \"#utility.yul\":3626:3629   */\n      0xe0\n        /* \"#utility.yul\":3622:3642   */\n      shl\n        /* \"#utility.yul\":3619:3620   */\n      0x00\n        /* \"#utility.yul\":3612:3643   */\n      mstore\n        /* \"#utility.yul\":3666:3670   */\n      0x22\n        /* \"#utility.yul\":3663:3664   */\n      0x04\n        /* \"#utility.yul\":3656:3671   */\n      mstore\n        /* \"#utility.yul\":3694:3698   */\n      0x24\n        /* \"#utility.yul\":3691:3692   */\n      0x00\n        /* \"#utility.yul\":3684:3699   */\n      revert\n        /* \"#utility.yul\":3548:3709   */\n    tag_352:\n      pop\n        /* \"#utility.yul\":3335:3715   */\n      swap2\n      swap1\n      pop\n      jump\t// out\n        /* \"#utility.yul\":3720:3847   */\n    tag_317:\n        /* \"#utility.yul\":3781:3791   */\n      0x4e487b71\n        /* \"#utility.yul\":3776:3779   */\n      0xe0\n        /* \"#utility.yul\":3772:3792   */\n      shl\n        /* \"#utility.yul\":3769:3770   */\n      0x00\n        /* \"#utility.yul\":3762:3793   */\n      mstore\n        /* \"#utility.yul\":3812:3816   */\n      0x11\n        /* \"#utility.yul\":3809:3810   */\n      0x04\n        /* \"#utility.yul\":3802:3817   */\n      mstore\n        /* \"#utility.yul\":3836:3840   */\n      0x24\n        /* \"#utility.yul\":3833:3834   */\n      0x00\n        /* \"#utility.yul\":3826:3841   */\n      revert\n        /* \"#utility.yul\":3852:3977   */\n    tag_173:\n        /* \"#utility.yul\":3917:3926   */\n      dup1\n      dup3\n      add\n        /* \"#utility.yul\":3938:3948   */\n      dup1\n      dup3\n      gt\n        /* \"#utility.yul\":3935:3971   */\n      iszero\n      tag_155\n      jumpi\n        /* \"#utility.yul\":3951:3969   */\n      tag_155\n      tag_317\n      jump\t// in\n        /* \"#utility.yul\":8764:8932   */\n    tag_283:\n        /* \"#utility.yul\":8837:8846   */\n      dup1\n      dup3\n      mul\n        /* \"#utility.yul\":8868:8877   */\n      dup2\n      iszero\n        /* \"#utility.yul\":8885:8900   */\n      dup3\n      dup3\n      div\n        /* \"#utility.yul\":8879:8901   */\n      dup5\n      eq\n        /* \"#utility.yul\":8865:8902   */\n      or\n        /* \"#utility.yul\":8855:8926   */\n      tag_155\n      jumpi\n        /* \"#utility.yul\":8906:8924   */\n      tag_155\n      tag_317\n      jump\t// in\n        /* \"#utility.yul\":8937:9154   */\n    tag_285:\n        /* \"#utility.yul\":8977:8978   */\n      0x00\n        /* \"#utility.yul\":9003:9004   */\n      dup3\n        /* \"#utility.yul\":8993:9125   */\n      tag_373\n      jumpi\n        /* \"#utility.yul\":9047:9057   */\n      0x4e487b71\n        /* \"#utility.yul\":9042:9045   */\n      0xe0\n        /* \"#utility.yul\":9038:9058   */\n      shl\n        /* \"#utility.yul\":9035:9036   */\n      0x00\n        /* \"#utility.yul\":9028:9059   */\n      mstore\n        /* \"#utility.yul\":9082:9086   */\n      0x12\n        /* \"#utility.yul\":9079:9080   */\n      0x04\n        /* \"#utility.yul\":9072:9087   */\n      mstore\n        /* \"#utility.yul\":9110:9114   */\n      0x24\n        /* \"#utility.yul\":9107:9108   */\n      0x00\n        /* \"#utility.yul\":9100:9115   */\n      revert\n        /* \"#utility.yul\":8993:9125   */\n    tag_373:\n      pop\n        /* \"#utility.yul\":9139:9148   */\n      div\n      swap1\n        /* \"#utility.yul\":8937:9154   */\n      jump\t// out\n        /* \"#utility.yul\":9716:9844   */\n    tag_303:\n        /* \"#utility.yul\":9783:9792   */\n      dup2\n      dup2\n      sub\n        /* \"#utility.yul\":9804:9815   */\n      dup2\n      dup2\n      gt\n        /* \"#utility.yul\":9801:9838   */\n      iszero\n      tag_155\n      jumpi\n        /* \"#utility.yul\":9818:9836   */\n      tag_155\n      tag_317\n      jump\t// in\n\n    auxdata: 0xa2646970667358221220aa73f92152e9c237c84b025fd37a05a1b7e88a1fc5a79bb4fb85e295596d05ef64736f6c63430008130033\n}\n",
				"bytecode": {
					"linkReferences": {},
					"object": "6080604052600a80546001600160a01b0319167376e98f575e5b6382ff3bc9e988f9920984f2a57617905561dead60009081526020527f44ad89ba62b98ff34f51403ac22759b55759460c0bb5521eb4b6ee3cff49cf83546200006f906b033b2e3c9fd0803ce80000006200099d565b600b5560c8600b54620000839190620009b9565b600c553480156200009357600080fd5b506040518060400160405280600a815260200169115e1c195c9a5b595b9d60b21b8152506040518060400160405280600381526020016204558560ec1b8152508160039081620000e4919062000a80565b506004620000f3828262000a80565b505050620001106200010a620001ac60201b60201c565b620001b0565b6200012f73327df1e6de05895d2ab08513aadd9313fe505d8662000202565b600a5462000148906001600160a01b03166001620003fc565b62000155306001620003fc565b6200016360006001620003fc565b600a5462000187906001600160a01b03166b033b2e3c9fd0803ce800000062000466565b620001a67376e98f575e5b6382ff3bc9e988f9920984f2a576620001b0565b62000bae565b3390565b600580546001600160a01b038381166001600160a01b0319831681179093556040519116919082907f8be0079c531659141344cd1fd0a4f28419497f9722a3daafe3b4186f6b6457e090600090a35050565b600680546001600160a01b0319166001600160a01b0383169081179091556040805163c45a015560e01b8152905163c45a0155916004808201926020929091908290030181865afa1580156200025c573d6000803e3d6000fd5b505050506040513d601f19601f8201168201806040525081019062000282919062000b4c565b6001600160a01b031663c9c6539630600660009054906101000a90046001600160a01b03166001600160a01b031663ad5c46486040518163ffffffff1660e01b8152600401602060405180830381865afa158015620002e5573d6000803e3d6000fd5b505050506040513d601f19601f820116820180604052508101906200030b919062000b4c565b6040516001600160e01b031960e085901b1681526001600160a01b039283166004820152911660248201526044016020604051808303816000875af115801562000359573d6000803e3d6000fd5b505050506040513d601f19601f820116820180604052508101906200037f919062000b4c565b600780546001600160a01b0319166001600160a01b0392909216919091179055620003ac816001620003fc565b600754620003c5906001600160a01b0316600162000538565b6040516001600160a01b038216907fbc052db65df144ad4f71f02da93cae3d4401104c30ac374d7cc10d87ee07b60290600090a250565b62000406620005b1565b6001600160a01b038216600081815260096020908152604091829020805460ff191685151590811790915591519182527f4b89c347592b1d537e066cb4ed98d87696ae35164745d7e370e4add16941dc9291015b60405180910390a25050565b6001600160a01b038216620004c25760405162461bcd60e51b815260206004820152601f60248201527f45524332303a206d696e7420746f20746865207a65726f20616464726573730060448201526064015b60405180910390fd5b620004d0600083836200060f565b8060026000828254620004e4919062000b7e565b90915550506001600160a01b0382166000818152602081815260408083208054860190555184815260008051602062001dd2833981519152910160405180910390a36200053460008383620007ac565b5050565b6001600160a01b0382166000908152600860205260409020805460ff19168215801591909117909155620005735762000573826001620003fc565b816001600160a01b03167fbd644d0494a31fc85cfaeb323e120ba28c5f13ba02e99a38cb904fbc164f4da1826040516200045a911515815260200190565b6005546001600160a01b031633146200060d5760405162461bcd60e51b815260206004820181905260248201527f4f776e61626c653a2063616c6c6572206973206e6f7420746865206f776e65726044820152606401620004b9565b565b6001600160a01b038316158015906200063057506001600160a01b03821615155b1562000794576001600160a01b03831660009081526008602052604081205460ff16156200067b5760646200066760018462000b94565b620006739190620009b9565b9050620006bb565b6001600160a01b03831660009081526008602052604090205460ff1615620006bb576064620006ac60018462000b94565b620006b89190620009b9565b90505b80156200079257620006ce84826200084b565b600a546000906001600160a01b03166064620006eb843462000b94565b620006f79190620009b9565b604051600081818185875af1925050503d806000811462000735576040519150601f19603f3d011682016040523d82523d6000602084013e6200073a565b606091505b5050905080620007825760405162461bcd60e51b815260206004820152601260248201527108cc2d2d8cac840e8de40e6cadcc8408aa8960731b6044820152606401620004b9565b6200078e82846200099d565b9250505b505b620007a78383836001600160e01b038416565b505050565b6001600160a01b03821660009081526009602052604090205460ff166200079457600c546001600160a01b0383166000908152602081905260409020541115620007945760405162461bcd60e51b815260206004820152602960248201527f4d617857616c6c65743a2043616e6e6f7420657863656564206d61782077616c6044820152681b195d081b1a5b5a5d60ba1b6064820152608401620004b9565b6001600160a01b038216620008ad5760405162461bcd60e51b815260206004820152602160248201527f45524332303a206275726e2066726f6d20746865207a65726f206164647265736044820152607360f81b6064820152608401620004b9565b620008bb826000836200060f565b6001600160a01b03821660009081526020819052604090205481811015620009315760405162461bcd60e51b815260206004820152602260248201527f45524332303a206275726e20616d6f756e7420657863656564732062616c616e604482015261636560f01b6064820152608401620004b9565b6001600160a01b03831660008181526020818152604080832086860390556002805487900390555185815291929160008051602062001dd2833981519152910160405180910390a3620007a783600084620007ac565b634e487b7160e01b600052601160045260246000fd5b81810381811115620009b357620009b362000987565b92915050565b600082620009d757634e487b7160e01b600052601260045260246000fd5b500490565b634e487b7160e01b600052604160045260246000fd5b600181811c9082168062000a0757607f821691505b60208210810362000a2857634e487b7160e01b600052602260045260246000fd5b50919050565b601f821115620007a757600081815260208120601f850160051c8101602086101562000a575750805b601f850160051c820191505b8181101562000a785782815560010162000a63565b505050505050565b81516001600160401b0381111562000a9c5762000a9c620009dc565b62000ab48162000aad8454620009f2565b8462000a2e565b602080601f83116001811462000aec576000841562000ad35750858301515b600019600386901b1c1916600185901b17855562000a78565b600085815260208120601f198616915b8281101562000b1d5788860151825594840194600190910190840162000afc565b508582101562000b3c5787850151600019600388901b60f8161c191681555b5050505050600190811b01905550565b60006020828403121562000b5f57600080fd5b81516001600160a01b038116811462000b7757600080fd5b9392505050565b80820180821115620009b357620009b362000987565b8082028115828204841417620009b357620009b362000987565b6112148062000bbe6000396000f3fe60806040526004361061014e5760003560e01c806379cc6790116100b6578063a01c34831161006f578063a01c3483146103da578063a457c2d7146103f0578063a9059cbb14610410578063c0a904a214610430578063dd62ed3e14610450578063f2fde38b1461047057600080fd5b806379cc67901461033157806386a22eff146103515780638da5cb5b146103715780638fffabed1461038f57806395d89b41146103af578063984ae06e146103c457600080fd5b80633950935111610108578063395093511461023c57806342966c681461025c578063502f74461461027e5780635cce86cd146102b657806370a08231146102e6578063715018a61461031c57600080fd5b8062a201f91461015a57806306fdde031461019f578063095ea7b3146101c157806318160ddd146101e157806323b872dd14610200578063313ce5671461022057600080fd5b3661015557005b600080fd5b34801561016657600080fd5b5061018a610175366004610fd1565b60086020526000908152604090205460ff1681565b60405190151581526020015b60405180910390f35b3480156101ab57600080fd5b506101b4610490565b6040516101969190610ff3565b3480156101cd57600080fd5b5061018a6101dc366004611041565b610522565b3480156101ed57600080fd5b506002545b604051908152602001610196565b34801561020c57600080fd5b5061018a61021b36600461106b565b61053c565b34801561022c57600080fd5b5060405160128152602001610196565b34801561024857600080fd5b5061018a610257366004611041565b610560565b34801561026857600080fd5b5061027c6102773660046110a7565b610582565b005b34801561028a57600080fd5b5060065461029e906001600160a01b031681565b6040516001600160a01b039091168152602001610196565b3480156102c257600080fd5b5061018a6102d1366004610fd1565b60096020526000908152604090205460ff1681565b3480156102f257600080fd5b506101f2610301366004610fd1565b6001600160a01b031660009081526020819052604090205490565b34801561032857600080fd5b5061027c61058f565b34801561033d57600080fd5b5061027c61034c366004611041565b6105a3565b34801561035d57600080fd5b5061027c61036c3660046110c0565b6105bc565b34801561037d57600080fd5b506005546001600160a01b031661029e565b34801561039b57600080fd5b5060075461029e906001600160a01b031681565b3480156103bb57600080fd5b506101b461064d565b3480156103d057600080fd5b506101f2600b5481565b3480156103e657600080fd5b5061029e61dead81565b3480156103fc57600080fd5b5061018a61040b366004611041565b61065c565b34801561041c57600080fd5b5061018a61042b366004611041565b6106d7565b34801561043c57600080fd5b5061027c61044b3660046110c0565b6106e5565b34801561045c57600080fd5b506101f261046b3660046110fc565b61074d565b34801561047c57600080fd5b5061027c61048b366004610fd1565b610778565b60606003805461049f9061112f565b80601f01602080910402602001604051908101604052809291908181526020018280546104cb9061112f565b80156105185780601f106104ed57610100808354040283529160200191610518565b820191906000526020600020905b8154815290600101906020018083116104fb57829003601f168201915b5050505050905090565b6000336105308185856107ee565b60019150505b92915050565b60003361054a858285610912565b61055585858561098c565b506001949350505050565b600033610530818585610573838361074d565b61057d919061117f565b6107ee565b61058c3382610b41565b50565b610597610c8b565b6105a16000610ce5565b565b6105ae823383610912565b6105b88282610b41565b5050565b6105c4610c8b565b6007546001600160a01b03908116908316036106435760405162461bcd60e51b815260206004820152603360248201527f44656661756c74526f757465723a2043616e6e6f742072656d6f766520696e696044820152721d1a585b081c185a5c88199c9bdb481b1a5cdd606a1b60648201526084015b60405180910390fd5b6105b88282610d37565b60606004805461049f9061112f565b6000338161066a828661074d565b9050838110156106ca5760405162461bcd60e51b815260206004820152602560248201527f45524332303a2064656372656173656420616c6c6f77616e63652062656c6f77604482015264207a65726f60d81b606482015260840161063a565b61055582868684036107ee565b60003361053081858561098c565b6106ed610c8b565b6001600160a01b038216600081815260096020908152604091829020805460ff191685151590811790915591519182527f4b89c347592b1d537e066cb4ed98d87696ae35164745d7e370e4add16941dc9291015b60405180910390a25050565b6001600160a01b03918216600090815260016020908152604080832093909416825291909152205490565b610780610c8b565b6001600160a01b0381166107e55760405162461bcd60e51b815260206004820152602660248201527f4f776e61626c653a206e6577206f776e657220697320746865207a65726f206160448201526564647265737360d01b606482015260840161063a565b61058c81610ce5565b6001600160a01b0383166108505760405162461bcd60e51b8152602060048201526024808201527f45524332303a20617070726f76652066726f6d20746865207a65726f206164646044820152637265737360e01b606482015260840161063a565b6001600160a01b0382166108b15760405162461bcd60e51b815260206004820152602260248201527f45524332303a20617070726f766520746f20746865207a65726f206164647265604482015261737360f01b606482015260840161063a565b6001600160a01b0383811660008181526001602090815260408083209487168084529482529182902085905590518481527f8c5be1e5ebec7d5bd14f71427d1e84f3dd0314c0f7b2291e5b200ac8c7c3b925910160405180910390a3505050565b600061091e848461074d565b9050600019811461098657818110156109795760405162461bcd60e51b815260206004820152601d60248201527f45524332303a20696e73756666696369656e7420616c6c6f77616e6365000000604482015260640161063a565b61098684848484036107ee565b50505050565b6001600160a01b0383166109f05760405162461bcd60e51b815260206004820152602560248201527f45524332303a207472616e736665722066726f6d20746865207a65726f206164604482015264647265737360d81b606482015260840161063a565b6001600160a01b038216610a525760405162461bcd60e51b815260206004820152602360248201527f45524332303a207472616e7366657220746f20746865207a65726f206164647260448201526265737360e81b606482015260840161063a565b610a5d838383610dac565b6001600160a01b03831660009081526020819052604090205481811015610ad55760405162461bcd60e51b815260206004820152602660248201527f45524332303a207472616e7366657220616d6f756e7420657863656564732062604482015265616c616e636560d01b606482015260840161063a565b6001600160a01b03848116600081815260208181526040808320878703905593871680835291849020805487019055925185815290927fddf252ad1be2c89b69c2b068fc378daa952ba7f163c4a11628f55a4df523b3ef910160405180910390a3610986848484610f19565b6001600160a01b038216610ba15760405162461bcd60e51b815260206004820152602160248201527f45524332303a206275726e2066726f6d20746865207a65726f206164647265736044820152607360f81b606482015260840161063a565b610bad82600083610dac565b6001600160a01b03821660009081526020819052604090205481811015610c215760405162461bcd60e51b815260206004820152602260248201527f45524332303a206275726e20616d6f756e7420657863656564732062616c616e604482015261636560f01b606482015260840161063a565b6001600160a01b0383166000818152602081815260408083208686039055600280548790039055518581529192917fddf252ad1be2c89b69c2b068fc378daa952ba7f163c4a11628f55a4df523b3ef910160405180910390a3610c8683600084610f19565b505050565b6005546001600160a01b031633146105a15760405162461bcd60e51b815260206004820181905260248201527f4f776e61626c653a2063616c6c6572206973206e6f7420746865206f776e6572604482015260640161063a565b600580546001600160a01b038381166001600160a01b0319831681179093556040519116919082907f8be0079c531659141344cd1fd0a4f28419497f9722a3daafe3b4186f6b6457e090600090a35050565b6001600160a01b0382166000908152600860205260409020805460ff19168215801591909117909155610d6f57610d6f8260016106e5565b816001600160a01b03167fbd644d0494a31fc85cfaeb323e120ba28c5f13ba02e99a38cb904fbc164f4da182604051610741911515815260200190565b6001600160a01b03831615801590610dcc57506001600160a01b03821615155b15610c86576001600160a01b03831660009081526008602052604081205460ff1615610e10576064610dff600184611192565b610e0991906111a9565b9050610e4b565b6001600160a01b03831660009081526008602052604090205460ff1615610e4b576064610e3e600184611192565b610e4891906111a9565b90505b801561098657610e5b8482610b41565b600a546000906001600160a01b03166064610e768434611192565b610e8091906111a9565b604051600081818185875af1925050503d8060008114610ebc576040519150601f19603f3d011682016040523d82523d6000602084013e610ec1565b606091505b5050905080610f075760405162461bcd60e51b815260206004820152601260248201527108cc2d2d8cac840e8de40e6cadcc8408aa8960731b604482015260640161063a565b610f1182846111cb565b505050505050565b6001600160a01b03821660009081526009602052604090205460ff16610c8657600c546001600160a01b0383166000908152602081905260409020541115610c865760405162461bcd60e51b815260206004820152602960248201527f4d617857616c6c65743a2043616e6e6f7420657863656564206d61782077616c6044820152681b195d081b1a5b5a5d60ba1b606482015260840161063a565b80356001600160a01b0381168114610fcc57600080fd5b919050565b600060208284031215610fe357600080fd5b610fec82610fb5565b9392505050565b600060208083528351808285015260005b8181101561102057858101830151858201604001528201611004565b506000604082860101526040601f19601f8301168501019250505092915050565b6000806040838503121561105457600080fd5b61105d83610fb5565b946020939093013593505050565b60008060006060848603121561108057600080fd5b61108984610fb5565b925061109760208501610fb5565b9150604084013590509250925092565b6000602082840312156110b957600080fd5b5035919050565b600080604083850312156110d357600080fd5b6110dc83610fb5565b9150602083013580151581146110f157600080fd5b809150509250929050565b6000806040838503121561110f57600080fd5b61111883610fb5565b915061112660208401610fb5565b90509250929050565b600181811c9082168061114357607f821691505b60208210810361116357634e487b7160e01b600052602260045260246000fd5b50919050565b634e487b7160e01b600052601160045260246000fd5b8082018082111561053657610536611169565b808202811582820484141761053657610536611169565b6000826111c657634e487b7160e01b600052601260045260246000fd5b500490565b818103818111156105365761053661116956fea2646970667358221220aa73f92152e9c237c84b025fd37a05a1b7e88a1fc5a79bb4fb85e295596d05ef64736f6c63430008130033ddf252ad1be2c89b69c2b068fc378daa952ba7f163c4a11628f55a4df523b3ef",
					"opcodes": "PUSH1 0x80 PUSH1 0x40 MSTORE PUSH1 0xA DUP1 SLOAD PUSH1 0x1 PUSH1 0x1 PUSH1 0xA0 SHL SUB NOT AND PUSH20 0x76E98F575E5B6382FF3BC9E988F9920984F2A576 OR SWAP1 SSTORE PUSH2 0xDEAD PUSH1 0x0 SWAP1 DUP2 MSTORE PUSH1 0x20 MSTORE PUSH32 0x44AD89BA62B98FF34F51403AC22759B55759460C0BB5521EB4B6EE3CFF49CF83 SLOAD PUSH3 0x6F SWAP1 PUSH12 0x33B2E3C9FD0803CE8000000 PUSH3 0x99D JUMP JUMPDEST PUSH1 0xB SSTORE PUSH1 0xC8 PUSH1 0xB SLOAD PUSH3 0x83 SWAP2 SWAP1 PUSH3 0x9B9 JUMP JUMPDEST PUSH1 0xC SSTORE CALLVALUE DUP1 ISZERO PUSH3 0x93 JUMPI PUSH1 0x0 DUP1 REVERT JUMPDEST POP PUSH1 0x40 MLOAD DUP1 PUSH1 0x40 ADD PUSH1 0x40 MSTORE DUP1 PUSH1 0xA DUP2 MSTORE PUSH1 0x20 ADD PUSH10 0x115E1C195C9A5B595B9D PUSH1 0xB2 SHL DUP2 MSTORE POP PUSH1 0x40 MLOAD DUP1 PUSH1 0x40 ADD PUSH1 0x40 MSTORE DUP1 PUSH1 0x3 DUP2 MSTORE PUSH1 0x20 ADD PUSH3 0x45585 PUSH1 0xEC SHL DUP2 MSTORE POP DUP2 PUSH1 0x3 SWAP1 DUP2 PUSH3 0xE4 SWAP2 SWAP1 PUSH3 0xA80 JUMP JUMPDEST POP PUSH1 0x4 PUSH3 0xF3 DUP3 DUP3 PUSH3 0xA80 JUMP JUMPDEST POP POP POP PUSH3 0x110 PUSH3 0x10A PUSH3 0x1AC PUSH1 0x20 SHL PUSH1 0x20 SHR JUMP JUMPDEST PUSH3 0x1B0 JUMP JUMPDEST PUSH3 0x12F PUSH20 0x327DF1E6DE05895D2AB08513AADD9313FE505D86 PUSH3 0x202 JUMP JUMPDEST PUSH1 0xA SLOAD PUSH3 0x148 SWAP1 PUSH1 0x1 PUSH1 0x1 PUSH1 0xA0 SHL SUB AND PUSH1 0x1 PUSH3 0x3FC JUMP JUMPDEST PUSH3 0x155 ADDRESS PUSH1 0x1 PUSH3 0x3FC JUMP JUMPDEST PUSH3 0x163 PUSH1 0x0 PUSH1 0x1 PUSH3 0x3FC JUMP JUMPDEST PUSH1 0xA SLOAD PUSH3 0x187 SWAP1 PUSH1 0x1 PUSH1 0x1 PUSH1 0xA0 SHL SUB AND PUSH12 0x33B2E3C9FD0803CE8000000 PUSH3 0x466 JUMP JUMPDEST PUSH3 0x1A6 PUSH20 0x76E98F575E5B6382FF3BC9E988F9920984F2A576 PUSH3 0x1B0 JUMP JUMPDEST PUSH3 0xBAE JUMP JUMPDEST CALLER SWAP1 JUMP JUMPDEST PUSH1 0x5 DUP1 SLOAD PUSH1 0x1 PUSH1 0x1 PUSH1 0xA0 SHL SUB DUP4 DUP2 AND PUSH1 0x1 PUSH1 0x1 PUSH1 0xA0 SHL SUB NOT DUP4 AND DUP2 OR SWAP1 SWAP4 SSTORE PUSH1 0x40 MLOAD SWAP2 AND SWAP2 SWAP1 DUP3 SWAP1 PUSH32 0x8BE0079C531659141344CD1FD0A4F28419497F9722A3DAAFE3B4186F6B6457E0 SWAP1 PUSH1 0x0 SWAP1 LOG3 POP POP JUMP JUMPDEST PUSH1 0x6 DUP1 SLOAD PUSH1 0x1 PUSH1 0x1 PUSH1 0xA0 SHL SUB NOT AND PUSH1 0x1 PUSH1 0x1 PUSH1 0xA0 SHL SUB DUP4 AND SWAP1 DUP2 OR SWAP1 SWAP2 SSTORE PUSH1 0x40 DUP1 MLOAD PUSH4 0xC45A0155 PUSH1 0xE0 SHL DUP2 MSTORE SWAP1 MLOAD PUSH4 0xC45A0155 SWAP2 PUSH1 0x4 DUP1 DUP3 ADD SWAP3 PUSH1 0x20 SWAP3 SWAP1 SWAP2 SWAP1 DUP3 SWAP1 SUB ADD DUP2 DUP7 GAS STATICCALL ISZERO DUP1 ISZERO PUSH3 0x25C JUMPI RETURNDATASIZE PUSH1 0x0 DUP1 RETURNDATACOPY RETURNDATASIZE PUSH1 0x0 REVERT JUMPDEST POP POP POP POP PUSH1 0x40 MLOAD RETURNDATASIZE PUSH1 0x1F NOT PUSH1 0x1F DUP3 ADD AND DUP3 ADD DUP1 PUSH1 0x40 MSTORE POP DUP2 ADD SWAP1 PUSH3 0x282 SWAP2 SWAP1 PUSH3 0xB4C JUMP JUMPDEST PUSH1 0x1 PUSH1 0x1 PUSH1 0xA0 SHL SUB AND PUSH4 0xC9C65396 ADDRESS PUSH1 0x6 PUSH1 0x0 SWAP1 SLOAD SWAP1 PUSH2 0x100 EXP SWAP1 DIV PUSH1 0x1 PUSH1 0x1 PUSH1 0xA0 SHL SUB AND PUSH1 0x1 PUSH1 0x1 PUSH1 0xA0 SHL SUB AND PUSH4 0xAD5C4648 PUSH1 0x40 MLOAD DUP2 PUSH4 0xFFFFFFFF AND PUSH1 0xE0 SHL DUP2 MSTORE PUSH1 0x4 ADD PUSH1 0x20 PUSH1 0x40 MLOAD DUP1 DUP4 SUB DUP2 DUP7 GAS STATICCALL ISZERO DUP1 ISZERO PUSH3 0x2E5 JUMPI RETURNDATASIZE PUSH1 0x0 DUP1 RETURNDATACOPY RETURNDATASIZE PUSH1 0x0 REVERT JUMPDEST POP POP POP POP PUSH1 0x40 MLOAD RETURNDATASIZE PUSH1 0x1F NOT PUSH1 0x1F DUP3 ADD AND DUP3 ADD DUP1 PUSH1 0x40 MSTORE POP DUP2 ADD SWAP1 PUSH3 0x30B SWAP2 SWAP1 PUSH3 0xB4C JUMP JUMPDEST PUSH1 0x40 MLOAD PUSH1 0x1 PUSH1 0x1 PUSH1 0xE0 SHL SUB NOT PUSH1 0xE0 DUP6 SWAP1 SHL AND DUP2 MSTORE PUSH1 0x1 PUSH1 0x1 PUSH1 0xA0 SHL SUB SWAP3 DUP4 AND PUSH1 0x4 DUP3 ADD MSTORE SWAP2 AND PUSH1 0x24 DUP3 ADD MSTORE PUSH1 0x44 ADD PUSH1 0x20 PUSH1 0x40 MLOAD DUP1 DUP4 SUB DUP2 PUSH1 0x0 DUP8 GAS CALL ISZERO DUP1 ISZERO PUSH3 0x359 JUMPI RETURNDATASIZE PUSH1 0x0 DUP1 RETURNDATACOPY RETURNDATASIZE PUSH1 0x0 REVERT JUMPDEST POP POP POP POP PUSH1 0x40 MLOAD RETURNDATASIZE PUSH1 0x1F NOT PUSH1 0x1F DUP3 ADD AND DUP3 ADD DUP1 PUSH1 0x40 MSTORE POP DUP2 ADD SWAP1 PUSH3 0x37F SWAP2 SWAP1 PUSH3 0xB4C JUMP JUMPDEST PUSH1 0x7 DUP1 SLOAD PUSH1 0x1 PUSH1 0x1 PUSH1 0xA0 SHL SUB NOT AND PUSH1 0x1 PUSH1 0x1 PUSH1 0xA0 SHL SUB SWAP3 SWAP1 SWAP3 AND SWAP2 SWAP1 SWAP2 OR SWAP1 SSTORE PUSH3 0x3AC DUP2 PUSH1 0x1 PUSH3 0x3FC JUMP JUMPDEST PUSH1 0x7 SLOAD PUSH3 0x3C5 SWAP1 PUSH1 0x1 PUSH1 0x1 PUSH1 0xA0 SHL SUB AND PUSH1 0x1 PUSH3 0x538 JUMP JUMPDEST PUSH1 0x40 MLOAD PUSH1 0x1 PUSH1 0x1 PUSH1 0xA0 SHL SUB DUP3 AND SWAP1 PUSH32 0xBC052DB65DF144AD4F71F02DA93CAE3D4401104C30AC374D7CC10D87EE07B602 SWAP1 PUSH1 0x0 SWAP1 LOG2 POP JUMP JUMPDEST PUSH3 0x406 PUSH3 0x5B1 JUMP JUMPDEST PUSH1 0x1 PUSH1 0x1 PUSH1 0xA0 SHL SUB DUP3 AND PUSH1 0x0 DUP2 DUP2 MSTORE PUSH1 0x9 PUSH1 0x20 SWAP1 DUP2 MSTORE PUSH1 0x40 SWAP2 DUP3 SWAP1 KECCAK256 DUP1 SLOAD PUSH1 0xFF NOT AND DUP6 ISZERO ISZERO SWAP1 DUP2 OR SWAP1 SWAP2 SSTORE SWAP2 MLOAD SWAP2 DUP3 MSTORE PUSH32 0x4B89C347592B1D537E066CB4ED98D87696AE35164745D7E370E4ADD16941DC92 SWAP2 ADD JUMPDEST PUSH1 0x40 MLOAD DUP1 SWAP2 SUB SWAP1 LOG2 POP POP JUMP JUMPDEST PUSH1 0x1 PUSH1 0x1 PUSH1 0xA0 SHL SUB DUP3 AND PUSH3 0x4C2 JUMPI PUSH1 0x40 MLOAD PUSH3 0x461BCD PUSH1 0xE5 SHL DUP2 MSTORE PUSH1 0x20 PUSH1 0x4 DUP3 ADD MSTORE PUSH1 0x1F PUSH1 0x24 DUP3 ADD MSTORE PUSH32 0x45524332303A206D696E7420746F20746865207A65726F206164647265737300 PUSH1 0x44 DUP3 ADD MSTORE PUSH1 0x64 ADD JUMPDEST PUSH1 0x40 MLOAD DUP1 SWAP2 SUB SWAP1 REVERT JUMPDEST PUSH3 0x4D0 PUSH1 0x0 DUP4 DUP4 PUSH3 0x60F JUMP JUMPDEST DUP1 PUSH1 0x2 PUSH1 0x0 DUP3 DUP3 SLOAD PUSH3 0x4E4 SWAP2 SWAP1 PUSH3 0xB7E JUMP JUMPDEST SWAP1 SWAP2 SSTORE POP POP PUSH1 0x1 PUSH1 0x1 PUSH1 0xA0 SHL SUB DUP3 AND PUSH1 0x0 DUP2 DUP2 MSTORE PUSH1 0x20 DUP2 DUP2 MSTORE PUSH1 0x40 DUP1 DUP4 KECCAK256 DUP1 SLOAD DUP7 ADD SWAP1 SSTORE MLOAD DUP5 DUP2 MSTORE PUSH1 0x0 DUP1 MLOAD PUSH1 0x20 PUSH3 0x1DD2 DUP4 CODECOPY DUP2 MLOAD SWAP2 MSTORE SWAP2 ADD PUSH1 0x40 MLOAD DUP1 SWAP2 SUB SWAP1 LOG3 PUSH3 0x534 PUSH1 0x0 DUP4 DUP4 PUSH3 0x7AC JUMP JUMPDEST POP POP JUMP JUMPDEST PUSH1 0x1 PUSH1 0x1 PUSH1 0xA0 SHL SUB DUP3 AND PUSH1 0x0 SWAP1 DUP2 MSTORE PUSH1 0x8 PUSH1 0x20 MSTORE PUSH1 0x40 SWAP1 KECCAK256 DUP1 SLOAD PUSH1 0xFF NOT AND DUP3 ISZERO DUP1 ISZERO SWAP2 SWAP1 SWAP2 OR SWAP1 SWAP2 SSTORE PUSH3 0x573 JUMPI PUSH3 0x573 DUP3 PUSH1 0x1 PUSH3 0x3FC JUMP JUMPDEST DUP2 PUSH1 0x1 PUSH1 0x1 PUSH1 0xA0 SHL SUB AND PUSH32 0xBD644D0494A31FC85CFAEB323E120BA28C5F13BA02E99A38CB904FBC164F4DA1 DUP3 PUSH1 0x40 MLOAD PUSH3 0x45A SWAP2 ISZERO ISZERO DUP2 MSTORE PUSH1 0x20 ADD SWAP1 JUMP JUMPDEST PUSH1 0x5 SLOAD PUSH1 0x1 PUSH1 0x1 PUSH1 0xA0 SHL SUB AND CALLER EQ PUSH3 0x60D JUMPI PUSH1 0x40 MLOAD PUSH3 0x461BCD PUSH1 0xE5 SHL DUP2 MSTORE PUSH1 0x20 PUSH1 0x4 DUP3 ADD DUP2 SWAP1 MSTORE PUSH1 0x24 DUP3 ADD MSTORE PUSH32 0x4F776E61626C653A2063616C6C6572206973206E6F7420746865206F776E6572 PUSH1 0x44 DUP3 ADD MSTORE PUSH1 0x64 ADD PUSH3 0x4B9 JUMP JUMPDEST JUMP JUMPDEST PUSH1 0x1 PUSH1 0x1 PUSH1 0xA0 SHL SUB DUP4 AND ISZERO DUP1 ISZERO SWAP1 PUSH3 0x630 JUMPI POP PUSH1 0x1 PUSH1 0x1 PUSH1 0xA0 SHL SUB DUP3 AND ISZERO ISZERO JUMPDEST ISZERO PUSH3 0x794 JUMPI PUSH1 0x1 PUSH1 0x1 PUSH1 0xA0 SHL SUB DUP4 AND PUSH1 0x0 SWAP1 DUP2 MSTORE PUSH1 0x8 PUSH1 0x20 MSTORE PUSH1 0x40 DUP2 KECCAK256 SLOAD PUSH1 0xFF AND ISZERO PUSH3 0x67B JUMPI PUSH1 0x64 PUSH3 0x667 PUSH1 0x1 DUP5 PUSH3 0xB94 JUMP JUMPDEST PUSH3 0x673 SWAP2 SWAP1 PUSH3 0x9B9 JUMP JUMPDEST SWAP1 POP PUSH3 0x6BB JUMP JUMPDEST PUSH1 0x1 PUSH1 0x1 PUSH1 0xA0 SHL SUB DUP4 AND PUSH1 0x0 SWAP1 DUP2 MSTORE PUSH1 0x8 PUSH1 0x20 MSTORE PUSH1 0x40 SWAP1 KECCAK256 SLOAD PUSH1 0xFF AND ISZERO PUSH3 0x6BB JUMPI PUSH1 0x64 PUSH3 0x6AC PUSH1 0x1 DUP5 PUSH3 0xB94 JUMP JUMPDEST PUSH3 0x6B8 SWAP2 SWAP1 PUSH3 0x9B9 JUMP JUMPDEST SWAP1 POP JUMPDEST DUP1 ISZERO PUSH3 0x792 JUMPI PUSH3 0x6CE DUP5 DUP3 PUSH3 0x84B JUMP JUMPDEST PUSH1 0xA SLOAD PUSH1 0x0 SWAP1 PUSH1 0x1 PUSH1 0x1 PUSH1 0xA0 SHL SUB AND PUSH1 0x64 PUSH3 0x6EB DUP5 CALLVALUE PUSH3 0xB94 JUMP JUMPDEST PUSH3 0x6F7 SWAP2 SWAP1 PUSH3 0x9B9 JUMP JUMPDEST PUSH1 0x40 MLOAD PUSH1 0x0 DUP2 DUP2 DUP2 DUP6 DUP8 GAS CALL SWAP3 POP POP POP RETURNDATASIZE DUP1 PUSH1 0x0 DUP2 EQ PUSH3 0x735 JUMPI PUSH1 0x40 MLOAD SWAP2 POP PUSH1 0x1F NOT PUSH1 0x3F RETURNDATASIZE ADD AND DUP3 ADD PUSH1 0x40 MSTORE RETURNDATASIZE DUP3 MSTORE RETURNDATASIZE PUSH1 0x0 PUSH1 0x20 DUP5 ADD RETURNDATACOPY PUSH3 0x73A JUMP JUMPDEST PUSH1 0x60 SWAP2 POP JUMPDEST POP POP SWAP1 POP DUP1 PUSH3 0x782 JUMPI PUSH1 0x40 MLOAD PUSH3 0x461BCD PUSH1 0xE5 SHL DUP2 MSTORE PUSH1 0x20 PUSH1 0x4 DUP3 ADD MSTORE PUSH1 0x12 PUSH1 0x24 DUP3 ADD MSTORE PUSH18 0x8CC2D2D8CAC840E8DE40E6CADCC8408AA89 PUSH1 0x73 SHL PUSH1 0x44 DUP3 ADD MSTORE PUSH1 0x64 ADD PUSH3 0x4B9 JUMP JUMPDEST PUSH3 0x78E DUP3 DUP5 PUSH3 0x99D JUMP JUMPDEST SWAP3 POP POP JUMPDEST POP JUMPDEST PUSH3 0x7A7 DUP4 DUP4 DUP4 PUSH1 0x1 PUSH1 0x1 PUSH1 0xE0 SHL SUB DUP5 AND JUMP JUMPDEST POP POP POP JUMP JUMPDEST PUSH1 0x1 PUSH1 0x1 PUSH1 0xA0 SHL SUB DUP3 AND PUSH1 0x0 SWAP1 DUP2 MSTORE PUSH1 0x9 PUSH1 0x20 MSTORE PUSH1 0x40 SWAP1 KECCAK256 SLOAD PUSH1 0xFF AND PUSH3 0x794 JUMPI PUSH1 0xC SLOAD PUSH1 0x1 PUSH1 0x1 PUSH1 0xA0 SHL SUB DUP4 AND PUSH1 0x0 SWAP1 DUP2 MSTORE PUSH1 0x20 DUP2 SWAP1 MSTORE PUSH1 0x40 SWAP1 KECCAK256 SLOAD GT ISZERO PUSH3 0x794 JUMPI PUSH1 0x40 MLOAD PUSH3 0x461BCD PUSH1 0xE5 SHL DUP2 MSTORE PUSH1 0x20 PUSH1 0x4 DUP3 ADD MSTORE PUSH1 0x29 PUSH1 0x24 DUP3 ADD MSTORE PUSH32 0x4D617857616C6C65743A2043616E6E6F7420657863656564206D61782077616C PUSH1 0x44 DUP3 ADD MSTORE PUSH9 0x1B195D081B1A5B5A5D PUSH1 0xBA SHL PUSH1 0x64 DUP3 ADD MSTORE PUSH1 0x84 ADD PUSH3 0x4B9 JUMP JUMPDEST PUSH1 0x1 PUSH1 0x1 PUSH1 0xA0 SHL SUB DUP3 AND PUSH3 0x8AD JUMPI PUSH1 0x40 MLOAD PUSH3 0x461BCD PUSH1 0xE5 SHL DUP2 MSTORE PUSH1 0x20 PUSH1 0x4 DUP3 ADD MSTORE PUSH1 0x21 PUSH1 0x24 DUP3 ADD MSTORE PUSH32 0x45524332303A206275726E2066726F6D20746865207A65726F20616464726573 PUSH1 0x44 DUP3 ADD MSTORE PUSH1 0x73 PUSH1 0xF8 SHL PUSH1 0x64 DUP3 ADD MSTORE PUSH1 0x84 ADD PUSH3 0x4B9 JUMP JUMPDEST PUSH3 0x8BB DUP3 PUSH1 0x0 DUP4 PUSH3 0x60F JUMP JUMPDEST PUSH1 0x1 PUSH1 0x1 PUSH1 0xA0 SHL SUB DUP3 AND PUSH1 0x0 SWAP1 DUP2 MSTORE PUSH1 0x20 DUP2 SWAP1 MSTORE PUSH1 0x40 SWAP1 KECCAK256 SLOAD DUP2 DUP2 LT ISZERO PUSH3 0x931 JUMPI PUSH1 0x40 MLOAD PUSH3 0x461BCD PUSH1 0xE5 SHL DUP2 MSTORE PUSH1 0x20 PUSH1 0x4 DUP3 ADD MSTORE PUSH1 0x22 PUSH1 0x24 DUP3 ADD MSTORE PUSH32 0x45524332303A206275726E20616D6F756E7420657863656564732062616C616E PUSH1 0x44 DUP3 ADD MSTORE PUSH2 0x6365 PUSH1 0xF0 SHL PUSH1 0x64 DUP3 ADD MSTORE PUSH1 0x84 ADD PUSH3 0x4B9 JUMP JUMPDEST PUSH1 0x1 PUSH1 0x1 PUSH1 0xA0 SHL SUB DUP4 AND PUSH1 0x0 DUP2 DUP2 MSTORE PUSH1 0x20 DUP2 DUP2 MSTORE PUSH1 0x40 DUP1 DUP4 KECCAK256 DUP7 DUP7 SUB SWAP1 SSTORE PUSH1 0x2 DUP1 SLOAD DUP8 SWAP1 SUB SWAP1 SSTORE MLOAD DUP6 DUP2 MSTORE SWAP2 SWAP3 SWAP2 PUSH1 0x0 DUP1 MLOAD PUSH1 0x20 PUSH3 0x1DD2 DUP4 CODECOPY DUP2 MLOAD SWAP2 MSTORE SWAP2 ADD PUSH1 0x40 MLOAD DUP1 SWAP2 SUB SWAP1 LOG3 PUSH3 0x7A7 DUP4 PUSH1 0x0 DUP5 PUSH3 0x7AC JUMP JUMPDEST PUSH4 0x4E487B71 PUSH1 0xE0 SHL PUSH1 0x0 MSTORE PUSH1 0x11 PUSH1 0x4 MSTORE PUSH1 0x24 PUSH1 0x0 REVERT JUMPDEST DUP2 DUP2 SUB DUP2 DUP2 GT ISZERO PUSH3 0x9B3 JUMPI PUSH3 0x9B3 PUSH3 0x987 JUMP JUMPDEST SWAP3 SWAP2 POP POP JUMP JUMPDEST PUSH1 0x0 DUP3 PUSH3 0x9D7 JUMPI PUSH4 0x4E487B71 PUSH1 0xE0 SHL PUSH1 0x0 MSTORE PUSH1 0x12 PUSH1 0x4 MSTORE PUSH1 0x24 PUSH1 0x0 REVERT JUMPDEST POP DIV SWAP1 JUMP JUMPDEST PUSH4 0x4E487B71 PUSH1 0xE0 SHL PUSH1 0x0 MSTORE PUSH1 0x41 PUSH1 0x4 MSTORE PUSH1 0x24 PUSH1 0x0 REVERT JUMPDEST PUSH1 0x1 DUP2 DUP2 SHR SWAP1 DUP3 AND DUP1 PUSH3 0xA07 JUMPI PUSH1 0x7F DUP3 AND SWAP2 POP JUMPDEST PUSH1 0x20 DUP3 LT DUP2 SUB PUSH3 0xA28 JUMPI PUSH4 0x4E487B71 PUSH1 0xE0 SHL PUSH1 0x0 MSTORE PUSH1 0x22 PUSH1 0x4 MSTORE PUSH1 0x24 PUSH1 0x0 REVERT JUMPDEST POP SWAP2 SWAP1 POP JUMP JUMPDEST PUSH1 0x1F DUP3 GT ISZERO PUSH3 0x7A7 JUMPI PUSH1 0x0 DUP2 DUP2 MSTORE PUSH1 0x20 DUP2 KECCAK256 PUSH1 0x1F DUP6 ADD PUSH1 0x5 SHR DUP2 ADD PUSH1 0x20 DUP7 LT ISZERO PUSH3 0xA57 JUMPI POP DUP1 JUMPDEST PUSH1 0x1F DUP6 ADD PUSH1 0x5 SHR DUP3 ADD SWAP2 POP JUMPDEST DUP2 DUP2 LT ISZERO PUSH3 0xA78 JUMPI DUP3 DUP2 SSTORE PUSH1 0x1 ADD PUSH3 0xA63 JUMP JUMPDEST POP POP POP POP POP POP JUMP JUMPDEST DUP2 MLOAD PUSH1 0x1 PUSH1 0x1 PUSH1 0x40 SHL SUB DUP2 GT ISZERO PUSH3 0xA9C JUMPI PUSH3 0xA9C PUSH3 0x9DC JUMP JUMPDEST PUSH3 0xAB4 DUP2 PUSH3 0xAAD DUP5 SLOAD PUSH3 0x9F2 JUMP JUMPDEST DUP5 PUSH3 0xA2E JUMP JUMPDEST PUSH1 0x20 DUP1 PUSH1 0x1F DUP4 GT PUSH1 0x1 DUP2 EQ PUSH3 0xAEC JUMPI PUSH1 0x0 DUP5 ISZERO PUSH3 0xAD3 JUMPI POP DUP6 DUP4 ADD MLOAD JUMPDEST PUSH1 0x0 NOT PUSH1 0x3 DUP7 SWAP1 SHL SHR NOT AND PUSH1 0x1 DUP6 SWAP1 SHL OR DUP6 SSTORE PUSH3 0xA78 JUMP JUMPDEST PUSH1 0x0 DUP6 DUP2 MSTORE PUSH1 0x20 DUP2 KECCAK256 PUSH1 0x1F NOT DUP7 AND SWAP2 JUMPDEST DUP3 DUP2 LT ISZERO PUSH3 0xB1D JUMPI DUP9 DUP7 ADD MLOAD DUP3 SSTORE SWAP5 DUP5 ADD SWAP5 PUSH1 0x1 SWAP1 SWAP2 ADD SWAP1 DUP5 ADD PUSH3 0xAFC JUMP JUMPDEST POP DUP6 DUP3 LT ISZERO PUSH3 0xB3C JUMPI DUP8 DUP6 ADD MLOAD PUSH1 0x0 NOT PUSH1 0x3 DUP9 SWAP1 SHL PUSH1 0xF8 AND SHR NOT AND DUP2 SSTORE JUMPDEST POP POP POP POP POP PUSH1 0x1 SWAP1 DUP2 SHL ADD SWAP1 SSTORE POP JUMP JUMPDEST PUSH1 0x0 PUSH1 0x20 DUP3 DUP5 SUB SLT ISZERO PUSH3 0xB5F JUMPI PUSH1 0x0 DUP1 REVERT JUMPDEST DUP2 MLOAD PUSH1 0x1 PUSH1 0x1 PUSH1 0xA0 SHL SUB DUP2 AND DUP2 EQ PUSH3 0xB77 JUMPI PUSH1 0x0 DUP1 REVERT JUMPDEST SWAP4 SWAP3 POP POP POP JUMP JUMPDEST DUP1 DUP3 ADD DUP1 DUP3 GT ISZERO PUSH3 0x9B3 JUMPI PUSH3 0x9B3 PUSH3 0x987 JUMP JUMPDEST DUP1 DUP3 MUL DUP2 ISZERO DUP3 DUP3 DIV DUP5 EQ OR PUSH3 0x9B3 JUMPI PUSH3 0x9B3 PUSH3 0x987 JUMP JUMPDEST PUSH2 0x1214 DUP1 PUSH3 0xBBE PUSH1 0x0 CODECOPY PUSH1 0x0 RETURN INVALID PUSH1 0x80 PUSH1 0x40 MSTORE PUSH1 0x4 CALLDATASIZE LT PUSH2 0x14E JUMPI PUSH1 0x0 CALLDATALOAD PUSH1 0xE0 SHR DUP1 PUSH4 0x79CC6790 GT PUSH2 0xB6 JUMPI DUP1 PUSH4 0xA01C3483 GT PUSH2 0x6F JUMPI DUP1 PUSH4 0xA01C3483 EQ PUSH2 0x3DA JUMPI DUP1 PUSH4 0xA457C2D7 EQ PUSH2 0x3F0 JUMPI DUP1 PUSH4 0xA9059CBB EQ PUSH2 0x410 JUMPI DUP1 PUSH4 0xC0A904A2 EQ PUSH2 0x430 JUMPI DUP1 PUSH4 0xDD62ED3E EQ PUSH2 0x450 JUMPI DUP1 PUSH4 0xF2FDE38B EQ PUSH2 0x470 JUMPI PUSH1 0x0 DUP1 REVERT JUMPDEST DUP1 PUSH4 0x79CC6790 EQ PUSH2 0x331 JUMPI DUP1 PUSH4 0x86A22EFF EQ PUSH2 0x351 JUMPI DUP1 PUSH4 0x8DA5CB5B EQ PUSH2 0x371 JUMPI DUP1 PUSH4 0x8FFFABED EQ PUSH2 0x38F JUMPI DUP1 PUSH4 0x95D89B41 EQ PUSH2 0x3AF JUMPI DUP1 PUSH4 0x984AE06E EQ PUSH2 0x3C4 JUMPI PUSH1 0x0 DUP1 REVERT JUMPDEST DUP1 PUSH4 0x39509351 GT PUSH2 0x108 JUMPI DUP1 PUSH4 0x39509351 EQ PUSH2 0x23C JUMPI DUP1 PUSH4 0x42966C68 EQ PUSH2 0x25C JUMPI DUP1 PUSH4 0x502F7446 EQ PUSH2 0x27E JUMPI DUP1 PUSH4 0x5CCE86CD EQ PUSH2 0x2B6 JUMPI DUP1 PUSH4 0x70A08231 EQ PUSH2 0x2E6 JUMPI DUP1 PUSH4 0x715018A6 EQ PUSH2 0x31C JUMPI PUSH1 0x0 DUP1 REVERT JUMPDEST DUP1 PUSH3 0xA201F9 EQ PUSH2 0x15A JUMPI DUP1 PUSH4 0x6FDDE03 EQ PUSH2 0x19F JUMPI DUP1 PUSH4 0x95EA7B3 EQ PUSH2 0x1C1 JUMPI DUP1 PUSH4 0x18160DDD EQ PUSH2 0x1E1 JUMPI DUP1 PUSH4 0x23B872DD EQ PUSH2 0x200 JUMPI DUP1 PUSH4 0x313CE567 EQ PUSH2 0x220 JUMPI PUSH1 0x0 DUP1 REVERT JUMPDEST CALLDATASIZE PUSH2 0x155 JUMPI STOP JUMPDEST PUSH1 0x0 DUP1 REVERT JUMPDEST CALLVALUE DUP1 ISZERO PUSH2 0x166 JUMPI PUSH1 0x0 DUP1 REVERT JUMPDEST POP PUSH2 0x18A PUSH2 0x175 CALLDATASIZE PUSH1 0x4 PUSH2 0xFD1 JUMP JUMPDEST PUSH1 0x8 PUSH1 0x20 MSTORE PUSH1 0x0 SWAP1 DUP2 MSTORE PUSH1 0x40 SWAP1 KECCAK256 SLOAD PUSH1 0xFF AND DUP2 JUMP JUMPDEST PUSH1 0x40 MLOAD SWAP1 ISZERO ISZERO DUP2 MSTORE PUSH1 0x20 ADD JUMPDEST PUSH1 0x40 MLOAD DUP1 SWAP2 SUB SWAP1 RETURN JUMPDEST CALLVALUE DUP1 ISZERO PUSH2 0x1AB JUMPI PUSH1 0x0 DUP1 REVERT JUMPDEST POP PUSH2 0x1B4 PUSH2 0x490 JUMP JUMPDEST PUSH1 0x40 MLOAD PUSH2 0x196 SWAP2 SWAP1 PUSH2 0xFF3 JUMP JUMPDEST CALLVALUE DUP1 ISZERO PUSH2 0x1CD JUMPI PUSH1 0x0 DUP1 REVERT JUMPDEST POP PUSH2 0x18A PUSH2 0x1DC CALLDATASIZE PUSH1 0x4 PUSH2 0x1041 JUMP JUMPDEST PUSH2 0x522 JUMP JUMPDEST CALLVALUE DUP1 ISZERO PUSH2 0x1ED JUMPI PUSH1 0x0 DUP1 REVERT JUMPDEST POP PUSH1 0x2 SLOAD JUMPDEST PUSH1 0x40 MLOAD SWAP1 DUP2 MSTORE PUSH1 0x20 ADD PUSH2 0x196 JUMP JUMPDEST CALLVALUE DUP1 ISZERO PUSH2 0x20C JUMPI PUSH1 0x0 DUP1 REVERT JUMPDEST POP PUSH2 0x18A PUSH2 0x21B CALLDATASIZE PUSH1 0x4 PUSH2 0x106B JUMP JUMPDEST PUSH2 0x53C JUMP JUMPDEST CALLVALUE DUP1 ISZERO PUSH2 0x22C JUMPI PUSH1 0x0 DUP1 REVERT JUMPDEST POP PUSH1 0x40 MLOAD PUSH1 0x12 DUP2 MSTORE PUSH1 0x20 ADD PUSH2 0x196 JUMP JUMPDEST CALLVALUE DUP1 ISZERO PUSH2 0x248 JUMPI PUSH1 0x0 DUP1 REVERT JUMPDEST POP PUSH2 0x18A PUSH2 0x257 CALLDATASIZE PUSH1 0x4 PUSH2 0x1041 JUMP JUMPDEST PUSH2 0x560 JUMP JUMPDEST CALLVALUE DUP1 ISZERO PUSH2 0x268 JUMPI PUSH1 0x0 DUP1 REVERT JUMPDEST POP PUSH2 0x27C PUSH2 0x277 CALLDATASIZE PUSH1 0x4 PUSH2 0x10A7 JUMP JUMPDEST PUSH2 0x582 JUMP JUMPDEST STOP JUMPDEST CALLVALUE DUP1 ISZERO PUSH2 0x28A JUMPI PUSH1 0x0 DUP1 REVERT JUMPDEST POP PUSH1 0x6 SLOAD PUSH2 0x29E SWAP1 PUSH1 0x1 PUSH1 0x1 PUSH1 0xA0 SHL SUB AND DUP2 JUMP JUMPDEST PUSH1 0x40 MLOAD PUSH1 0x1 PUSH1 0x1 PUSH1 0xA0 SHL SUB SWAP1 SWAP2 AND DUP2 MSTORE PUSH1 0x20 ADD PUSH2 0x196 JUMP JUMPDEST CALLVALUE DUP1 ISZERO PUSH2 0x2C2 JUMPI PUSH1 0x0 DUP1 REVERT JUMPDEST POP PUSH2 0x18A PUSH2 0x2D1 CALLDATASIZE PUSH1 0x4 PUSH2 0xFD1 JUMP JUMPDEST PUSH1 0x9 PUSH1 0x20 MSTORE PUSH1 0x0 SWAP1 DUP2 MSTORE PUSH1 0x40 SWAP1 KECCAK256 SLOAD PUSH1 0xFF AND DUP2 JUMP JUMPDEST CALLVALUE DUP1 ISZERO PUSH2 0x2F2 JUMPI PUSH1 0x0 DUP1 REVERT JUMPDEST POP PUSH2 0x1F2 PUSH2 0x301 CALLDATASIZE PUSH1 0x4 PUSH2 0xFD1 JUMP JUMPDEST PUSH1 0x1 PUSH1 0x1 PUSH1 0xA0 SHL SUB AND PUSH1 0x0 SWAP1 DUP2 MSTORE PUSH1 0x20 DUP2 SWAP1 MSTORE PUSH1 0x40 SWAP1 KECCAK256 SLOAD SWAP1 JUMP JUMPDEST CALLVALUE DUP1 ISZERO PUSH2 0x328 JUMPI PUSH1 0x0 DUP1 REVERT JUMPDEST POP PUSH2 0x27C PUSH2 0x58F JUMP JUMPDEST CALLVALUE DUP1 ISZERO PUSH2 0x33D JUMPI PUSH1 0x0 DUP1 REVERT JUMPDEST POP PUSH2 0x27C PUSH2 0x34C CALLDATASIZE PUSH1 0x4 PUSH2 0x1041 JUMP JUMPDEST PUSH2 0x5A3 JUMP JUMPDEST CALLVALUE DUP1 ISZERO PUSH2 0x35D JUMPI PUSH1 0x0 DUP1 REVERT JUMPDEST POP PUSH2 0x27C PUSH2 0x36C CALLDATASIZE PUSH1 0x4 PUSH2 0x10C0 JUMP JUMPDEST PUSH2 0x5BC JUMP JUMPDEST CALLVALUE DUP1 ISZERO PUSH2 0x37D JUMPI PUSH1 0x0 DUP1 REVERT JUMPDEST POP PUSH1 0x5 SLOAD PUSH1 0x1 PUSH1 0x1 PUSH1 0xA0 SHL SUB AND PUSH2 0x29E JUMP JUMPDEST CALLVALUE DUP1 ISZERO PUSH2 0x39B JUMPI PUSH1 0x0 DUP1 REVERT JUMPDEST POP PUSH1 0x7 SLOAD PUSH2 0x29E SWAP1 PUSH1 0x1 PUSH1 0x1 PUSH1 0xA0 SHL SUB AND DUP2 JUMP JUMPDEST CALLVALUE DUP1 ISZERO PUSH2 0x3BB JUMPI PUSH1 0x0 DUP1 REVERT JUMPDEST POP PUSH2 0x1B4 PUSH2 0x64D JUMP JUMPDEST CALLVALUE DUP1 ISZERO PUSH2 0x3D0 JUMPI PUSH1 0x0 DUP1 REVERT JUMPDEST POP PUSH2 0x1F2 PUSH1 0xB SLOAD DUP2 JUMP JUMPDEST CALLVALUE DUP1 ISZERO PUSH2 0x3E6 JUMPI PUSH1 0x0 DUP1 REVERT JUMPDEST POP PUSH2 0x29E PUSH2 0xDEAD DUP2 JUMP JUMPDEST CALLVALUE DUP1 ISZERO PUSH2 0x3FC JUMPI PUSH1 0x0 DUP1 REVERT JUMPDEST POP PUSH2 0x18A PUSH2 0x40B CALLDATASIZE PUSH1 0x4 PUSH2 0x1041 JUMP JUMPDEST PUSH2 0x65C JUMP JUMPDEST CALLVALUE DUP1 ISZERO PUSH2 0x41C JUMPI PUSH1 0x0 DUP1 REVERT JUMPDEST POP PUSH2 0x18A PUSH2 0x42B CALLDATASIZE PUSH1 0x4 PUSH2 0x1041 JUMP JUMPDEST PUSH2 0x6D7 JUMP JUMPDEST CALLVALUE DUP1 ISZERO PUSH2 0x43C JUMPI PUSH1 0x0 DUP1 REVERT JUMPDEST POP PUSH2 0x27C PUSH2 0x44B CALLDATASIZE PUSH1 0x4 PUSH2 0x10C0 JUMP JUMPDEST PUSH2 0x6E5 JUMP JUMPDEST CALLVALUE DUP1 ISZERO PUSH2 0x45C JUMPI PUSH1 0x0 DUP1 REVERT JUMPDEST POP PUSH2 0x1F2 PUSH2 0x46B CALLDATASIZE PUSH1 0x4 PUSH2 0x10FC JUMP JUMPDEST PUSH2 0x74D JUMP JUMPDEST CALLVALUE DUP1 ISZERO PUSH2 0x47C JUMPI PUSH1 0x0 DUP1 REVERT JUMPDEST POP PUSH2 0x27C PUSH2 0x48B CALLDATASIZE PUSH1 0x4 PUSH2 0xFD1 JUMP JUMPDEST PUSH2 0x778 JUMP JUMPDEST PUSH1 0x60 PUSH1 0x3 DUP1 SLOAD PUSH2 0x49F SWAP1 PUSH2 0x112F JUMP JUMPDEST DUP1 PUSH1 0x1F ADD PUSH1 0x20 DUP1 SWAP2 DIV MUL PUSH1 0x20 ADD PUSH1 0x40 MLOAD SWAP1 DUP2 ADD PUSH1 0x40 MSTORE DUP1 SWAP3 SWAP2 SWAP1 DUP2 DUP2 MSTORE PUSH1 0x20 ADD DUP3 DUP1 SLOAD PUSH2 0x4CB SWAP1 PUSH2 0x112F JUMP JUMPDEST DUP1 ISZERO PUSH2 0x518 JUMPI DUP1 PUSH1 0x1F LT PUSH2 0x4ED JUMPI PUSH2 0x100 DUP1 DUP4 SLOAD DIV MUL DUP4 MSTORE SWAP2 PUSH1 0x20 ADD SWAP2 PUSH2 0x518 JUMP JUMPDEST DUP3 ADD SWAP2 SWAP1 PUSH1 0x0 MSTORE PUSH1 0x20 PUSH1 0x0 KECCAK256 SWAP1 JUMPDEST DUP2 SLOAD DUP2 MSTORE SWAP1 PUSH1 0x1 ADD SWAP1 PUSH1 0x20 ADD DUP1 DUP4 GT PUSH2 0x4FB JUMPI DUP3 SWAP1 SUB PUSH1 0x1F AND DUP3 ADD SWAP2 JUMPDEST POP POP POP POP POP SWAP1 POP SWAP1 JUMP JUMPDEST PUSH1 0x0 CALLER PUSH2 0x530 DUP2 DUP6 DUP6 PUSH2 0x7EE JUMP JUMPDEST PUSH1 0x1 SWAP2 POP POP JUMPDEST SWAP3 SWAP2 POP POP JUMP JUMPDEST PUSH1 0x0 CALLER PUSH2 0x54A DUP6 DUP3 DUP6 PUSH2 0x912 JUMP JUMPDEST PUSH2 0x555 DUP6 DUP6 DUP6 PUSH2 0x98C JUMP JUMPDEST POP PUSH1 0x1 SWAP5 SWAP4 POP POP POP POP JUMP JUMPDEST PUSH1 0x0 CALLER PUSH2 0x530 DUP2 DUP6 DUP6 PUSH2 0x573 DUP4 DUP4 PUSH2 0x74D JUMP JUMPDEST PUSH2 0x57D SWAP2 SWAP1 PUSH2 0x117F JUMP JUMPDEST PUSH2 0x7EE JUMP JUMPDEST PUSH2 0x58C CALLER DUP3 PUSH2 0xB41 JUMP JUMPDEST POP JUMP JUMPDEST PUSH2 0x597 PUSH2 0xC8B JUMP JUMPDEST PUSH2 0x5A1 PUSH1 0x0 PUSH2 0xCE5 JUMP JUMPDEST JUMP JUMPDEST PUSH2 0x5AE DUP3 CALLER DUP4 PUSH2 0x912 JUMP JUMPDEST PUSH2 0x5B8 DUP3 DUP3 PUSH2 0xB41 JUMP JUMPDEST POP POP JUMP JUMPDEST PUSH2 0x5C4 PUSH2 0xC8B JUMP JUMPDEST PUSH1 0x7 SLOAD PUSH1 0x1 PUSH1 0x1 PUSH1 0xA0 SHL SUB SWAP1 DUP2 AND SWAP1 DUP4 AND SUB PUSH2 0x643 JUMPI PUSH1 0x40 MLOAD PUSH3 0x461BCD PUSH1 0xE5 SHL DUP2 MSTORE PUSH1 0x20 PUSH1 0x4 DUP3 ADD MSTORE PUSH1 0x33 PUSH1 0x24 DUP3 ADD MSTORE PUSH32 0x44656661756C74526F757465723A2043616E6E6F742072656D6F766520696E69 PUSH1 0x44 DUP3 ADD MSTORE PUSH19 0x1D1A585B081C185A5C88199C9BDB481B1A5CDD PUSH1 0x6A SHL PUSH1 0x64 DUP3 ADD MSTORE PUSH1 0x84 ADD JUMPDEST PUSH1 0x40 MLOAD DUP1 SWAP2 SUB SWAP1 REVERT JUMPDEST PUSH2 0x5B8 DUP3 DUP3 PUSH2 0xD37 JUMP JUMPDEST PUSH1 0x60 PUSH1 0x4 DUP1 SLOAD PUSH2 0x49F SWAP1 PUSH2 0x112F JUMP JUMPDEST PUSH1 0x0 CALLER DUP2 PUSH2 0x66A DUP3 DUP7 PUSH2 0x74D JUMP JUMPDEST SWAP1 POP DUP4 DUP2 LT ISZERO PUSH2 0x6CA JUMPI PUSH1 0x40 MLOAD PUSH3 0x461BCD PUSH1 0xE5 SHL DUP2 MSTORE PUSH1 0x20 PUSH1 0x4 DUP3 ADD MSTORE PUSH1 0x25 PUSH1 0x24 DUP3 ADD MSTORE PUSH32 0x45524332303A2064656372656173656420616C6C6F77616E63652062656C6F77 PUSH1 0x44 DUP3 ADD MSTORE PUSH5 0x207A65726F PUSH1 0xD8 SHL PUSH1 0x64 DUP3 ADD MSTORE PUSH1 0x84 ADD PUSH2 0x63A JUMP JUMPDEST PUSH2 0x555 DUP3 DUP7 DUP7 DUP5 SUB PUSH2 0x7EE JUMP JUMPDEST PUSH1 0x0 CALLER PUSH2 0x530 DUP2 DUP6 DUP6 PUSH2 0x98C JUMP JUMPDEST PUSH2 0x6ED PUSH2 0xC8B JUMP JUMPDEST PUSH1 0x1 PUSH1 0x1 PUSH1 0xA0 SHL SUB DUP3 AND PUSH1 0x0 DUP2 DUP2 MSTORE PUSH1 0x9 PUSH1 0x20 SWAP1 DUP2 MSTORE PUSH1 0x40 SWAP2 DUP3 SWAP1 KECCAK256 DUP1 SLOAD PUSH1 0xFF NOT AND DUP6 ISZERO ISZERO SWAP1 DUP2 OR SWAP1 SWAP2 SSTORE SWAP2 MLOAD SWAP2 DUP3 MSTORE PUSH32 0x4B89C347592B1D537E066CB4ED98D87696AE35164745D7E370E4ADD16941DC92 SWAP2 ADD JUMPDEST PUSH1 0x40 MLOAD DUP1 SWAP2 SUB SWAP1 LOG2 POP POP JUMP JUMPDEST PUSH1 0x1 PUSH1 0x1 PUSH1 0xA0 SHL SUB SWAP2 DUP3 AND PUSH1 0x0 SWAP1 DUP2 MSTORE PUSH1 0x1 PUSH1 0x20 SWAP1 DUP2 MSTORE PUSH1 0x40 DUP1 DUP4 KECCAK256 SWAP4 SWAP1 SWAP5 AND DUP3 MSTORE SWAP2 SWAP1 SWAP2 MSTORE KECCAK256 SLOAD SWAP1 JUMP JUMPDEST PUSH2 0x780 PUSH2 0xC8B JUMP JUMPDEST PUSH1 0x1 PUSH1 0x1 PUSH1 0xA0 SHL SUB DUP2 AND PUSH2 0x7E5 JUMPI PUSH1 0x40 MLOAD PUSH3 0x461BCD PUSH1 0xE5 SHL DUP2 MSTORE PUSH1 0x20 PUSH1 0x4 DUP3 ADD MSTORE PUSH1 0x26 PUSH1 0x24 DUP3 ADD MSTORE PUSH32 0x4F776E61626C653A206E6577206F776E657220697320746865207A65726F2061 PUSH1 0x44 DUP3 ADD MSTORE PUSH6 0x646472657373 PUSH1 0xD0 SHL PUSH1 0x64 DUP3 ADD MSTORE PUSH1 0x84 ADD PUSH2 0x63A JUMP JUMPDEST PUSH2 0x58C DUP2 PUSH2 0xCE5 JUMP JUMPDEST PUSH1 0x1 PUSH1 0x1 PUSH1 0xA0 SHL SUB DUP4 AND PUSH2 0x850 JUMPI PUSH1 0x40 MLOAD PUSH3 0x461BCD PUSH1 0xE5 SHL DUP2 MSTORE PUSH1 0x20 PUSH1 0x4 DUP3 ADD MSTORE PUSH1 0x24 DUP1 DUP3 ADD MSTORE PUSH32 0x45524332303A20617070726F76652066726F6D20746865207A65726F20616464 PUSH1 0x44 DUP3 ADD MSTORE PUSH4 0x72657373 PUSH1 0xE0 SHL PUSH1 0x64 DUP3 ADD MSTORE PUSH1 0x84 ADD PUSH2 0x63A JUMP JUMPDEST PUSH1 0x1 PUSH1 0x1 PUSH1 0xA0 SHL SUB DUP3 AND PUSH2 0x8B1 JUMPI PUSH1 0x40 MLOAD PUSH3 0x461BCD PUSH1 0xE5 SHL DUP2 MSTORE PUSH1 0x20 PUSH1 0x4 DUP3 ADD MSTORE PUSH1 0x22 PUSH1 0x24 DUP3 ADD MSTORE PUSH32 0x45524332303A20617070726F766520746F20746865207A65726F206164647265 PUSH1 0x44 DUP3 ADD MSTORE PUSH2 0x7373 PUSH1 0xF0 SHL PUSH1 0x64 DUP3 ADD MSTORE PUSH1 0x84 ADD PUSH2 0x63A JUMP JUMPDEST PUSH1 0x1 PUSH1 0x1 PUSH1 0xA0 SHL SUB DUP4 DUP2 AND PUSH1 0x0 DUP2 DUP2 MSTORE PUSH1 0x1 PUSH1 0x20 SWAP1 DUP2 MSTORE PUSH1 0x40 DUP1 DUP4 KECCAK256 SWAP5 DUP8 AND DUP1 DUP5 MSTORE SWAP5 DUP3 MSTORE SWAP2 DUP3 SWAP1 KECCAK256 DUP6 SWAP1 SSTORE SWAP1 MLOAD DUP5 DUP2 MSTORE PUSH32 0x8C5BE1E5EBEC7D5BD14F71427D1E84F3DD0314C0F7B2291E5B200AC8C7C3B925 SWAP2 ADD PUSH1 0x40 MLOAD DUP1 SWAP2 SUB SWAP1 LOG3 POP POP POP JUMP JUMPDEST PUSH1 0x0 PUSH2 0x91E DUP5 DUP5 PUSH2 0x74D JUMP JUMPDEST SWAP1 POP PUSH1 0x0 NOT DUP2 EQ PUSH2 0x986 JUMPI DUP2 DUP2 LT ISZERO PUSH2 0x979 JUMPI PUSH1 0x40 MLOAD PUSH3 0x461BCD PUSH1 0xE5 SHL DUP2 MSTORE PUSH1 0x20 PUSH1 0x4 DUP3 ADD MSTORE PUSH1 0x1D PUSH1 0x24 DUP3 ADD MSTORE PUSH32 0x45524332303A20696E73756666696369656E7420616C6C6F77616E6365000000 PUSH1 0x44 DUP3 ADD MSTORE PUSH1 0x64 ADD PUSH2 0x63A JUMP JUMPDEST PUSH2 0x986 DUP5 DUP5 DUP5 DUP5 SUB PUSH2 0x7EE JUMP JUMPDEST POP POP POP POP JUMP JUMPDEST PUSH1 0x1 PUSH1 0x1 PUSH1 0xA0 SHL SUB DUP4 AND PUSH2 0x9F0 JUMPI PUSH1 0x40 MLOAD PUSH3 0x461BCD PUSH1 0xE5 SHL DUP2 MSTORE PUSH1 0x20 PUSH1 0x4 DUP3 ADD MSTORE PUSH1 0x25 PUSH1 0x24 DUP3 ADD MSTORE PUSH32 0x45524332303A207472616E736665722066726F6D20746865207A65726F206164 PUSH1 0x44 DUP3 ADD MSTORE PUSH5 0x6472657373 PUSH1 0xD8 SHL PUSH1 0x64 DUP3 ADD MSTORE PUSH1 0x84 ADD PUSH2 0x63A JUMP JUMPDEST PUSH1 0x1 PUSH1 0x1 PUSH1 0xA0 SHL SUB DUP3 AND PUSH2 0xA52 JUMPI PUSH1 0x40 MLOAD PUSH3 0x461BCD PUSH1 0xE5 SHL DUP2 MSTORE PUSH1 0x20 PUSH1 0x4 DUP3 ADD MSTORE PUSH1 0x23 PUSH1 0x24 DUP3 ADD MSTORE PUSH32 0x45524332303A207472616E7366657220746F20746865207A65726F2061646472 PUSH1 0x44 DUP3 ADD MSTORE PUSH3 0x657373 PUSH1 0xE8 SHL PUSH1 0x64 DUP3 ADD MSTORE PUSH1 0x84 ADD PUSH2 0x63A JUMP JUMPDEST PUSH2 0xA5D DUP4 DUP4 DUP4 PUSH2 0xDAC JUMP JUMPDEST PUSH1 0x1 PUSH1 0x1 PUSH1 0xA0 SHL SUB DUP4 AND PUSH1 0x0 SWAP1 DUP2 MSTORE PUSH1 0x20 DUP2 SWAP1 MSTORE PUSH1 0x40 SWAP1 KECCAK256 SLOAD DUP2 DUP2 LT ISZERO PUSH2 0xAD5 JUMPI PUSH1 0x40 MLOAD PUSH3 0x461BCD PUSH1 0xE5 SHL DUP2 MSTORE PUSH1 0x20 PUSH1 0x4 DUP3 ADD MSTORE PUSH1 0x26 PUSH1 0x24 DUP3 ADD MSTORE PUSH32 0x45524332303A207472616E7366657220616D6F756E7420657863656564732062 PUSH1 0x44 DUP3 ADD MSTORE PUSH6 0x616C616E6365 PUSH1 0xD0 SHL PUSH1 0x64 DUP3 ADD MSTORE PUSH1 0x84 ADD PUSH2 0x63A JUMP JUMPDEST PUSH1 0x1 PUSH1 0x1 PUSH1 0xA0 SHL SUB DUP5 DUP2 AND PUSH1 0x0 DUP2 DUP2 MSTORE PUSH1 0x20 DUP2 DUP2 MSTORE PUSH1 0x40 DUP1 DUP4 KECCAK256 DUP8 DUP8 SUB SWAP1 SSTORE SWAP4 DUP8 AND DUP1 DUP4 MSTORE SWAP2 DUP5 SWAP1 KECCAK256 DUP1 SLOAD DUP8 ADD SWAP1 SSTORE SWAP3 MLOAD DUP6 DUP2 MSTORE SWAP1 SWAP3 PUSH32 0xDDF252AD1BE2C89B69C2B068FC378DAA952BA7F163C4A11628F55A4DF523B3EF SWAP2 ADD PUSH1 0x40 MLOAD DUP1 SWAP2 SUB SWAP1 LOG3 PUSH2 0x986 DUP5 DUP5 DUP5 PUSH2 0xF19 JUMP JUMPDEST PUSH1 0x1 PUSH1 0x1 PUSH1 0xA0 SHL SUB DUP3 AND PUSH2 0xBA1 JUMPI PUSH1 0x40 MLOAD PUSH3 0x461BCD PUSH1 0xE5 SHL DUP2 MSTORE PUSH1 0x20 PUSH1 0x4 DUP3 ADD MSTORE PUSH1 0x21 PUSH1 0x24 DUP3 ADD MSTORE PUSH32 0x45524332303A206275726E2066726F6D20746865207A65726F20616464726573 PUSH1 0x44 DUP3 ADD MSTORE PUSH1 0x73 PUSH1 0xF8 SHL PUSH1 0x64 DUP3 ADD MSTORE PUSH1 0x84 ADD PUSH2 0x63A JUMP JUMPDEST PUSH2 0xBAD DUP3 PUSH1 0x0 DUP4 PUSH2 0xDAC JUMP JUMPDEST PUSH1 0x1 PUSH1 0x1 PUSH1 0xA0 SHL SUB DUP3 AND PUSH1 0x0 SWAP1 DUP2 MSTORE PUSH1 0x20 DUP2 SWAP1 MSTORE PUSH1 0x40 SWAP1 KECCAK256 SLOAD DUP2 DUP2 LT ISZERO PUSH2 0xC21 JUMPI PUSH1 0x40 MLOAD PUSH3 0x461BCD PUSH1 0xE5 SHL DUP2 MSTORE PUSH1 0x20 PUSH1 0x4 DUP3 ADD MSTORE PUSH1 0x22 PUSH1 0x24 DUP3 ADD MSTORE PUSH32 0x45524332303A206275726E20616D6F756E7420657863656564732062616C616E PUSH1 0x44 DUP3 ADD MSTORE PUSH2 0x6365 PUSH1 0xF0 SHL PUSH1 0x64 DUP3 ADD MSTORE PUSH1 0x84 ADD PUSH2 0x63A JUMP JUMPDEST PUSH1 0x1 PUSH1 0x1 PUSH1 0xA0 SHL SUB DUP4 AND PUSH1 0x0 DUP2 DUP2 MSTORE PUSH1 0x20 DUP2 DUP2 MSTORE PUSH1 0x40 DUP1 DUP4 KECCAK256 DUP7 DUP7 SUB SWAP1 SSTORE PUSH1 0x2 DUP1 SLOAD DUP8 SWAP1 SUB SWAP1 SSTORE MLOAD DUP6 DUP2 MSTORE SWAP2 SWAP3 SWAP2 PUSH32 0xDDF252AD1BE2C89B69C2B068FC378DAA952BA7F163C4A11628F55A4DF523B3EF SWAP2 ADD PUSH1 0x40 MLOAD DUP1 SWAP2 SUB SWAP1 LOG3 PUSH2 0xC86 DUP4 PUSH1 0x0 DUP5 PUSH2 0xF19 JUMP JUMPDEST POP POP POP JUMP JUMPDEST PUSH1 0x5 SLOAD PUSH1 0x1 PUSH1 0x1 PUSH1 0xA0 SHL SUB AND CALLER EQ PUSH2 0x5A1 JUMPI PUSH1 0x40 MLOAD PUSH3 0x461BCD PUSH1 0xE5 SHL DUP2 MSTORE PUSH1 0x20 PUSH1 0x4 DUP3 ADD DUP2 SWAP1 MSTORE PUSH1 0x24 DUP3 ADD MSTORE PUSH32 0x4F776E61626C653A2063616C6C6572206973206E6F7420746865206F776E6572 PUSH1 0x44 DUP3 ADD MSTORE PUSH1 0x64 ADD PUSH2 0x63A JUMP JUMPDEST PUSH1 0x5 DUP1 SLOAD PUSH1 0x1 PUSH1 0x1 PUSH1 0xA0 SHL SUB DUP4 DUP2 AND PUSH1 0x1 PUSH1 0x1 PUSH1 0xA0 SHL SUB NOT DUP4 AND DUP2 OR SWAP1 SWAP4 SSTORE PUSH1 0x40 MLOAD SWAP2 AND SWAP2 SWAP1 DUP3 SWAP1 PUSH32 0x8BE0079C531659141344CD1FD0A4F28419497F9722A3DAAFE3B4186F6B6457E0 SWAP1 PUSH1 0x0 SWAP1 LOG3 POP POP JUMP JUMPDEST PUSH1 0x1 PUSH1 0x1 PUSH1 0xA0 SHL SUB DUP3 AND PUSH1 0x0 SWAP1 DUP2 MSTORE PUSH1 0x8 PUSH1 0x20 MSTORE PUSH1 0x40 SWAP1 KECCAK256 DUP1 SLOAD PUSH1 0xFF NOT AND DUP3 ISZERO DUP1 ISZERO SWAP2 SWAP1 SWAP2 OR SWAP1 SWAP2 SSTORE PUSH2 0xD6F JUMPI PUSH2 0xD6F DUP3 PUSH1 0x1 PUSH2 0x6E5 JUMP JUMPDEST DUP2 PUSH1 0x1 PUSH1 0x1 PUSH1 0xA0 SHL SUB AND PUSH32 0xBD644D0494A31FC85CFAEB323E120BA28C5F13BA02E99A38CB904FBC164F4DA1 DUP3 PUSH1 0x40 MLOAD PUSH2 0x741 SWAP2 ISZERO ISZERO DUP2 MSTORE PUSH1 0x20 ADD SWAP1 JUMP JUMPDEST PUSH1 0x1 PUSH1 0x1 PUSH1 0xA0 SHL SUB DUP4 AND ISZERO DUP1 ISZERO SWAP1 PUSH2 0xDCC JUMPI POP PUSH1 0x1 PUSH1 0x1 PUSH1 0xA0 SHL SUB DUP3 AND ISZERO ISZERO JUMPDEST ISZERO PUSH2 0xC86 JUMPI PUSH1 0x1 PUSH1 0x1 PUSH1 0xA0 SHL SUB DUP4 AND PUSH1 0x0 SWAP1 DUP2 MSTORE PUSH1 0x8 PUSH1 0x20 MSTORE PUSH1 0x40 DUP2 KECCAK256 SLOAD PUSH1 0xFF AND ISZERO PUSH2 0xE10 JUMPI PUSH1 0x64 PUSH2 0xDFF PUSH1 0x1 DUP5 PUSH2 0x1192 JUMP JUMPDEST PUSH2 0xE09 SWAP2 SWAP1 PUSH2 0x11A9 JUMP JUMPDEST SWAP1 POP PUSH2 0xE4B JUMP JUMPDEST PUSH1 0x1 PUSH1 0x1 PUSH1 0xA0 SHL SUB DUP4 AND PUSH1 0x0 SWAP1 DUP2 MSTORE PUSH1 0x8 PUSH1 0x20 MSTORE PUSH1 0x40 SWAP1 KECCAK256 SLOAD PUSH1 0xFF AND ISZERO PUSH2 0xE4B JUMPI PUSH1 0x64 PUSH2 0xE3E PUSH1 0x1 DUP5 PUSH2 0x1192 JUMP JUMPDEST PUSH2 0xE48 SWAP2 SWAP1 PUSH2 0x11A9 JUMP JUMPDEST SWAP1 POP JUMPDEST DUP1 ISZERO PUSH2 0x986 JUMPI PUSH2 0xE5B DUP5 DUP3 PUSH2 0xB41 JUMP JUMPDEST PUSH1 0xA SLOAD PUSH1 0x0 SWAP1 PUSH1 0x1 PUSH1 0x1 PUSH1 0xA0 SHL SUB AND PUSH1 0x64 PUSH2 0xE76 DUP5 CALLVALUE PUSH2 0x1192 JUMP JUMPDEST PUSH2 0xE80 SWAP2 SWAP1 PUSH2 0x11A9 JUMP JUMPDEST PUSH1 0x40 MLOAD PUSH1 0x0 DUP2 DUP2 DUP2 DUP6 DUP8 GAS CALL SWAP3 POP POP POP RETURNDATASIZE DUP1 PUSH1 0x0 DUP2 EQ PUSH2 0xEBC JUMPI PUSH1 0x40 MLOAD SWAP2 POP PUSH1 0x1F NOT PUSH1 0x3F RETURNDATASIZE ADD AND DUP3 ADD PUSH1 0x40 MSTORE RETURNDATASIZE DUP3 MSTORE RETURNDATASIZE PUSH1 0x0 PUSH1 0x20 DUP5 ADD RETURNDATACOPY PUSH2 0xEC1 JUMP JUMPDEST PUSH1 0x60 SWAP2 POP JUMPDEST POP POP SWAP1 POP DUP1 PUSH2 0xF07 JUMPI PUSH1 0x40 MLOAD PUSH3 0x461BCD PUSH1 0xE5 SHL DUP2 MSTORE PUSH1 0x20 PUSH1 0x4 DUP3 ADD MSTORE PUSH1 0x12 PUSH1 0x24 DUP3 ADD MSTORE PUSH18 0x8CC2D2D8CAC840E8DE40E6CADCC8408AA89 PUSH1 0x73 SHL PUSH1 0x44 DUP3 ADD MSTORE PUSH1 0x64 ADD PUSH2 0x63A JUMP JUMPDEST PUSH2 0xF11 DUP3 DUP5 PUSH2 0x11CB JUMP JUMPDEST POP POP POP POP POP POP JUMP JUMPDEST PUSH1 0x1 PUSH1 0x1 PUSH1 0xA0 SHL SUB DUP3 AND PUSH1 0x0 SWAP1 DUP2 MSTORE PUSH1 0x9 PUSH1 0x20 MSTORE PUSH1 0x40 SWAP1 KECCAK256 SLOAD PUSH1 0xFF AND PUSH2 0xC86 JUMPI PUSH1 0xC SLOAD PUSH1 0x1 PUSH1 0x1 PUSH1 0xA0 SHL SUB DUP4 AND PUSH1 0x0 SWAP1 DUP2 MSTORE PUSH1 0x20 DUP2 SWAP1 MSTORE PUSH1 0x40 SWAP1 KECCAK256 SLOAD GT ISZERO PUSH2 0xC86 JUMPI PUSH1 0x40 MLOAD PUSH3 0x461BCD PUSH1 0xE5 SHL DUP2 MSTORE PUSH1 0x20 PUSH1 0x4 DUP3 ADD MSTORE PUSH1 0x29 PUSH1 0x24 DUP3 ADD MSTORE PUSH32 0x4D617857616C6C65743A2043616E6E6F7420657863656564206D61782077616C PUSH1 0x44 DUP3 ADD MSTORE PUSH9 0x1B195D081B1A5B5A5D PUSH1 0xBA SHL PUSH1 0x64 DUP3 ADD MSTORE PUSH1 0x84 ADD PUSH2 0x63A JUMP JUMPDEST DUP1 CALLDATALOAD PUSH1 0x1 PUSH1 0x1 PUSH1 0xA0 SHL SUB DUP2 AND DUP2 EQ PUSH2 0xFCC JUMPI PUSH1 0x0 DUP1 REVERT JUMPDEST SWAP2 SWAP1 POP JUMP JUMPDEST PUSH1 0x0 PUSH1 0x20 DUP3 DUP5 SUB SLT ISZERO PUSH2 0xFE3 JUMPI PUSH1 0x0 DUP1 REVERT JUMPDEST PUSH2 0xFEC DUP3 PUSH2 0xFB5 JUMP JUMPDEST SWAP4 SWAP3 POP POP POP JUMP JUMPDEST PUSH1 0x0 PUSH1 0x20 DUP1 DUP4 MSTORE DUP4 MLOAD DUP1 DUP3 DUP6 ADD MSTORE PUSH1 0x0 JUMPDEST DUP2 DUP2 LT ISZERO PUSH2 0x1020 JUMPI DUP6 DUP2 ADD DUP4 ADD MLOAD DUP6 DUP3 ADD PUSH1 0x40 ADD MSTORE DUP3 ADD PUSH2 0x1004 JUMP JUMPDEST POP PUSH1 0x0 PUSH1 0x40 DUP3 DUP7 ADD ADD MSTORE PUSH1 0x40 PUSH1 0x1F NOT PUSH1 0x1F DUP4 ADD AND DUP6 ADD ADD SWAP3 POP POP POP SWAP3 SWAP2 POP POP JUMP JUMPDEST PUSH1 0x0 DUP1 PUSH1 0x40 DUP4 DUP6 SUB SLT ISZERO PUSH2 0x1054 JUMPI PUSH1 0x0 DUP1 REVERT JUMPDEST PUSH2 0x105D DUP4 PUSH2 0xFB5 JUMP JUMPDEST SWAP5 PUSH1 0x20 SWAP4 SWAP1 SWAP4 ADD CALLDATALOAD SWAP4 POP POP POP JUMP JUMPDEST PUSH1 0x0 DUP1 PUSH1 0x0 PUSH1 0x60 DUP5 DUP7 SUB SLT ISZERO PUSH2 0x1080 JUMPI PUSH1 0x0 DUP1 REVERT JUMPDEST PUSH2 0x1089 DUP5 PUSH2 0xFB5 JUMP JUMPDEST SWAP3 POP PUSH2 0x1097 PUSH1 0x20 DUP6 ADD PUSH2 0xFB5 JUMP JUMPDEST SWAP2 POP PUSH1 0x40 DUP5 ADD CALLDATALOAD SWAP1 POP SWAP3 POP SWAP3 POP SWAP3 JUMP JUMPDEST PUSH1 0x0 PUSH1 0x20 DUP3 DUP5 SUB SLT ISZERO PUSH2 0x10B9 JUMPI PUSH1 0x0 DUP1 REVERT JUMPDEST POP CALLDATALOAD SWAP2 SWAP1 POP JUMP JUMPDEST PUSH1 0x0 DUP1 PUSH1 0x40 DUP4 DUP6 SUB SLT ISZERO PUSH2 0x10D3 JUMPI PUSH1 0x0 DUP1 REVERT JUMPDEST PUSH2 0x10DC DUP4 PUSH2 0xFB5 JUMP JUMPDEST SWAP2 POP PUSH1 0x20 DUP4 ADD CALLDATALOAD DUP1 ISZERO ISZERO DUP2 EQ PUSH2 0x10F1 JUMPI PUSH1 0x0 DUP1 REVERT JUMPDEST DUP1 SWAP2 POP POP SWAP3 POP SWAP3 SWAP1 POP JUMP JUMPDEST PUSH1 0x0 DUP1 PUSH1 0x40 DUP4 DUP6 SUB SLT ISZERO PUSH2 0x110F JUMPI PUSH1 0x0 DUP1 REVERT JUMPDEST PUSH2 0x1118 DUP4 PUSH2 0xFB5 JUMP JUMPDEST SWAP2 POP PUSH2 0x1126 PUSH1 0x20 DUP5 ADD PUSH2 0xFB5 JUMP JUMPDEST SWAP1 POP SWAP3 POP SWAP3 SWAP1 POP JUMP JUMPDEST PUSH1 0x1 DUP2 DUP2 SHR SWAP1 DUP3 AND DUP1 PUSH2 0x1143 JUMPI PUSH1 0x7F DUP3 AND SWAP2 POP JUMPDEST PUSH1 0x20 DUP3 LT DUP2 SUB PUSH2 0x1163 JUMPI PUSH4 0x4E487B71 PUSH1 0xE0 SHL PUSH1 0x0 MSTORE PUSH1 0x22 PUSH1 0x4 MSTORE PUSH1 0x24 PUSH1 0x0 REVERT JUMPDEST POP SWAP2 SWAP1 POP JUMP JUMPDEST PUSH4 0x4E487B71 PUSH1 0xE0 SHL PUSH1 0x0 MSTORE PUSH1 0x11 PUSH1 0x4 MSTORE PUSH1 0x24 PUSH1 0x0 REVERT JUMPDEST DUP1 DUP3 ADD DUP1 DUP3 GT ISZERO PUSH2 0x536 JUMPI PUSH2 0x536 PUSH2 0x1169 JUMP JUMPDEST DUP1 DUP3 MUL DUP2 ISZERO DUP3 DUP3 DIV DUP5 EQ OR PUSH2 0x536 JUMPI PUSH2 0x536 PUSH2 0x1169 JUMP JUMPDEST PUSH1 0x0 DUP3 PUSH2 0x11C6 JUMPI PUSH4 0x4E487B71 PUSH1 0xE0 SHL PUSH1 0x0 MSTORE PUSH1 0x12 PUSH1 0x4 MSTORE PUSH1 0x24 PUSH1 0x0 REVERT JUMPDEST POP DIV SWAP1 JUMP JUMPDEST DUP2 DUP2 SUB DUP2 DUP2 GT ISZERO PUSH2 0x536 JUMPI PUSH2 0x536 PUSH2 0x1169 JUMP INVALID LOG2 PUSH5 0x6970667358 0x22 SLT KECCAK256 0xAA PUSH20 0xF92152E9C237C84B025FD37A05A1B7E88A1FC5A7 SWAP12 0xB4 0xFB DUP6 0xE2 SWAP6 MSIZE PUSH14 0x5EF64736F6C63430008130033DD CALLCODE MSTORE 0xAD SHL 0xE2 0xC8 SWAP12 PUSH10 0xC2B068FC378DAA952BA7 CALL PUSH4 0xC4A11628 CREATE2 GAS 0x4D CREATE2 0x23 0xB3 0xEF "
				},
				"gasEstimates": {
					"creation": {
						"codeDepositCost": "925600",
						"executionCost": "infinite",
						"totalCost": "infinite"
					},
					"external": {
						"CIRCULATING_SUPPLY()": "2428",
						"DEAD_WALLET()": "238",
						"EXPPairs(address)": "2544",
						"allowance(address,address)": "infinite",
						"approve(address,uint256)": "24662",
						"balanceOf(address)": "2651",
						"burn(uint256)": "infinite",
						"burnFrom(address,uint256)": "infinite",
						"decimals()": "311",
						"decreaseAllowance(address,uint256)": "26983",
						"excludeFromLimits(address,bool)": "28386",
						"increaseAllowance(address,uint256)": "infinite",
						"isExcludedFromLimits(address)": "2609",
						"name()": "infinite",
						"owner()": "2398",
						"pairV2()": "2426",
						"renounceOwnership()": "infinite",
						"routerV2()": "2404",
						"setPair(address,bool)": "infinite",
						"symbol()": "infinite",
						"totalSupply()": "2371",
						"transfer(address,uint256)": "infinite",
						"transferFrom(address,address,uint256)": "infinite",
						"transferOwnership(address)": "28468"
					},
					"internal": {
						"_afterTokenTransfer(address,address,uint256)": "infinite",
						"_beforeTokenTransfer(address,address,uint256)": "infinite",
						"_setPair(address,bool)": "infinite",
						"_updateRouterV2(address)": "infinite"
					}
				},
				"methodIdentifiers": {
					"CIRCULATING_SUPPLY()": "984ae06e",
					"DEAD_WALLET()": "a01c3483",
					"EXPPairs(address)": "00a201f9",
					"allowance(address,address)": "dd62ed3e",
					"approve(address,uint256)": "095ea7b3",
					"balanceOf(address)": "70a08231",
					"burn(uint256)": "42966c68",
					"burnFrom(address,uint256)": "79cc6790",
					"decimals()": "313ce567",
					"decreaseAllowance(address,uint256)": "a457c2d7",
					"excludeFromLimits(address,bool)": "c0a904a2",
					"increaseAllowance(address,uint256)": "39509351",
					"isExcludedFromLimits(address)": "5cce86cd",
					"name()": "06fdde03",
					"owner()": "8da5cb5b",
					"pairV2()": "8fffabed",
					"renounceOwnership()": "715018a6",
					"routerV2()": "502f7446",
					"setPair(address,bool)": "86a22eff",
					"symbol()": "95d89b41",
					"totalSupply()": "18160ddd",
					"transfer(address,uint256)": "a9059cbb",
					"transferFrom(address,address,uint256)": "23b872dd",
					"transferOwnership(address)": "f2fde38b"
				}
			},
			"storageLayout": {
				"storage": [
					{
						"astId": 940,
						"contract": "contracts/exp_flattened.sol:Experiment",
						"label": "_balances",
						"offset": 0,
						"slot": "0",
						"type": "t_mapping(t_address,t_uint256)"
					},
					{
						"astId": 946,
						"contract": "contracts/exp_flattened.sol:Experiment",
						"label": "_allowances",
						"offset": 0,
						"slot": "1",
						"type": "t_mapping(t_address,t_mapping(t_address,t_uint256))"
					},
					{
						"astId": 948,
						"contract": "contracts/exp_flattened.sol:Experiment",
						"label": "_totalSupply",
						"offset": 0,
						"slot": "2",
						"type": "t_uint256"
					},
					{
						"astId": 950,
						"contract": "contracts/exp_flattened.sol:Experiment",
						"label": "_name",
						"offset": 0,
						"slot": "3",
						"type": "t_string_storage"
					},
					{
						"astId": 952,
						"contract": "contracts/exp_flattened.sol:Experiment",
						"label": "_symbol",
						"offset": 0,
						"slot": "4",
						"type": "t_string_storage"
					},
					{
						"astId": 723,
						"contract": "contracts/exp_flattened.sol:Experiment",
						"label": "_owner",
						"offset": 0,
						"slot": "5",
						"type": "t_address"
					},
					{
						"astId": 1562,
						"contract": "contracts/exp_flattened.sol:Experiment",
						"label": "routerV2",
						"offset": 0,
						"slot": "6",
						"type": "t_contract(IUniswapV2Router02)393"
					},
					{
						"astId": 1564,
						"contract": "contracts/exp_flattened.sol:Experiment",
						"label": "pairV2",
						"offset": 0,
						"slot": "7",
						"type": "t_address"
					},
					{
						"astId": 1568,
						"contract": "contracts/exp_flattened.sol:Experiment",
						"label": "EXPPairs",
						"offset": 0,
						"slot": "8",
						"type": "t_mapping(t_address,t_bool)"
					},
					{
						"astId": 1572,
						"contract": "contracts/exp_flattened.sol:Experiment",
						"label": "isExcludedFromLimits",
						"offset": 0,
						"slot": "9",
						"type": "t_mapping(t_address,t_bool)"
					},
					{
						"astId": 1575,
						"contract": "contracts/exp_flattened.sol:Experiment",
						"label": "expDev",
						"offset": 0,
						"slot": "10",
						"type": "t_address"
					},
					{
						"astId": 1585,
						"contract": "contracts/exp_flattened.sol:Experiment",
						"label": "CIRCULATING_SUPPLY",
						"offset": 0,
						"slot": "11",
						"type": "t_uint256"
					},
					{
						"astId": 1597,
						"contract": "contracts/exp_flattened.sol:Experiment",
						"label": "maxWalletAmount",
						"offset": 0,
						"slot": "12",
						"type": "t_uint256"
					}
				],
				"types": {
					"t_address": {
						"encoding": "inplace",
						"label": "address",
						"numberOfBytes": "20"
					},
					"t_bool": {
						"encoding": "inplace",
						"label": "bool",
						"numberOfBytes": "1"
					},
					"t_contract(IUniswapV2Router02)393": {
						"encoding": "inplace",
						"label": "contract IUniswapV2Router02",
						"numberOfBytes": "20"
					},
					"t_mapping(t_address,t_bool)": {
						"encoding": "mapping",
						"key": "t_address",
						"label": "mapping(address => bool)",
						"numberOfBytes": "32",
						"value": "t_bool"
					},
					"t_mapping(t_address,t_mapping(t_address,t_uint256))": {
						"encoding": "mapping",
						"key": "t_address",
						"label": "mapping(address => mapping(address => uint256))",
						"numberOfBytes": "32",
						"value": "t_mapping(t_address,t_uint256)"
					},
					"t_mapping(t_address,t_uint256)": {
						"encoding": "mapping",
						"key": "t_address",
						"label": "mapping(address => uint256)",
						"numberOfBytes": "32",
						"value": "t_uint256"
					},
					"t_string_storage": {
						"encoding": "bytes",
						"label": "string",
						"numberOfBytes": "32"
					},
					"t_uint256": {
						"encoding": "inplace",
						"label": "uint256",
						"numberOfBytes": "32"
					}
				}
			},
			"userdoc": {
				"kind": "user",
				"methods": {},
				"version": 1
			}
		}
	}
}