{
	"contracts/spurdo.sol": {
		"spurdo": {
			"abi": [
				{
					"inputs": [],
					"stateMutability": "nonpayable",
					"type": "constructor"
				},
				{
					"anonymous": false,
					"inputs": [
						{
							"indexed": true,
							"internalType": "address",
							"name": "owner",
							"type": "address"
						},
						{
							"indexed": true,
							"internalType": "address",
							"name": "spender",
							"type": "address"
						},
						{
							"indexed": false,
							"internalType": "uint256",
							"name": "value",
							"type": "uint256"
						}
					],
					"name": "Approval",
					"type": "event"
				},
				{
					"anonymous": false,
					"inputs": [
						{
							"indexed": false,
							"internalType": "uint256",
							"name": "_maxTxAmount",
							"type": "uint256"
						}
					],
					"name": "MaxTxAmountUpdated",
					"type": "event"
				},
				{
					"anonymous": false,
					"inputs": [
						{
							"indexed": true,
							"internalType": "address",
							"name": "previousOwner",
							"type": "address"
						},
						{
							"indexed": true,
							"internalType": "address",
							"name": "newOwner",
							"type": "address"
						}
					],
					"name": "OwnershipTransferred",
					"type": "event"
				},
				{
					"anonymous": false,
					"inputs": [
						{
							"indexed": true,
							"internalType": "address",
							"name": "from",
							"type": "address"
						},
						{
							"indexed": true,
							"internalType": "address",
							"name": "to",
							"type": "address"
						},
						{
							"indexed": false,
							"internalType": "uint256",
							"name": "value",
							"type": "uint256"
						}
					],
					"name": "Transfer",
					"type": "event"
				},
				{
					"inputs": [],
					"name": "Launch",
					"outputs": [],
					"stateMutability": "nonpayable",
					"type": "function"
				},
				{
					"inputs": [],
					"name": "_maxTaxSwap",
					"outputs": [
						{
							"internalType": "uint256",
							"name": "",
							"type": "uint256"
						}
					],
					"stateMutability": "view",
					"type": "function"
				},
				{
					"inputs": [],
					"name": "_maxTxAmount",
					"outputs": [
						{
							"internalType": "uint256",
							"name": "",
							"type": "uint256"
						}
					],
					"stateMutability": "view",
					"type": "function"
				},
				{
					"inputs": [],
					"name": "_maxWalletSize",
					"outputs": [
						{
							"internalType": "uint256",
							"name": "",
							"type": "uint256"
						}
					],
					"stateMutability": "view",
					"type": "function"
				},
				{
					"inputs": [],
					"name": "_reduceBuyTaxAt",
					"outputs": [
						{
							"internalType": "uint256",
							"name": "",
							"type": "uint256"
						}
					],
					"stateMutability": "view",
					"type": "function"
				},
				{
					"inputs": [],
					"name": "_reduceSellTaxAt",
					"outputs": [
						{
							"internalType": "uint256",
							"name": "",
							"type": "uint256"
						}
					],
					"stateMutability": "view",
					"type": "function"
				},
				{
					"inputs": [],
					"name": "_taxSwapThreshold",
					"outputs": [
						{
							"internalType": "uint256",
							"name": "",
							"type": "uint256"
						}
					],
					"stateMutability": "view",
					"type": "function"
				},
				{
					"inputs": [
						{
							"internalType": "address",
							"name": "owner",
							"type": "address"
						},
						{
							"internalType": "address",
							"name": "spender",
							"type": "address"
						}
					],
					"name": "allowance",
					"outputs": [
						{
							"internalType": "uint256",
							"name": "",
							"type": "uint256"
						}
					],
					"stateMutability": "view",
					"type": "function"
				},
				{
					"inputs": [
						{
							"internalType": "address",
							"name": "spender",
							"type": "address"
						},
						{
							"internalType": "uint256",
							"name": "amount",
							"type": "uint256"
						}
					],
					"name": "approve",
					"outputs": [
						{
							"internalType": "bool",
							"name": "",
							"type": "bool"
						}
					],
					"stateMutability": "nonpayable",
					"type": "function"
				},
				{
					"inputs": [
						{
							"internalType": "address",
							"name": "account",
							"type": "address"
						}
					],
					"name": "balanceOf",
					"outputs": [
						{
							"internalType": "uint256",
							"name": "",
							"type": "uint256"
						}
					],
					"stateMutability": "view",
					"type": "function"
				},
				{
					"inputs": [
						{
							"internalType": "uint256",
							"name": "amount",
							"type": "uint256"
						}
					],
					"name": "changeSwapAmount",
					"outputs": [],
					"stateMutability": "nonpayable",
					"type": "function"
				},
				{
					"inputs": [],
					"name": "decimals",
					"outputs": [
						{
							"internalType": "uint8",
							"name": "",
							"type": "uint8"
						}
					],
					"stateMutability": "pure",
					"type": "function"
				},
				{
					"inputs": [],
					"name": "manualSwap",
					"outputs": [],
					"stateMutability": "nonpayable",
					"type": "function"
				},
				{
					"inputs": [],
					"name": "name",
					"outputs": [
						{
							"internalType": "string",
							"name": "",
							"type": "string"
						}
					],
					"stateMutability": "pure",
					"type": "function"
				},
				{
					"inputs": [],
					"name": "owner",
					"outputs": [
						{
							"internalType": "address",
							"name": "",
							"type": "address"
						}
					],
					"stateMutability": "view",
					"type": "function"
				},
				{
					"inputs": [],
					"name": "removeLimits",
					"outputs": [],
					"stateMutability": "nonpayable",
					"type": "function"
				},
				{
					"inputs": [],
					"name": "renounceOwnership",
					"outputs": [],
					"stateMutability": "nonpayable",
					"type": "function"
				},
				{
					"inputs": [],
					"name": "symbol",
					"outputs": [
						{
							"internalType": "string",
							"name": "",
							"type": "string"
						}
					],
					"stateMutability": "pure",
					"type": "function"
				},
				{
					"inputs": [],
					"name": "totalSupply",
					"outputs": [
						{
							"internalType": "uint256",
							"name": "",
							"type": "uint256"
						}
					],
					"stateMutability": "pure",
					"type": "function"
				},
				{
					"inputs": [
						{
							"internalType": "address",
							"name": "recipient",
							"type": "address"
						},
						{
							"internalType": "uint256",
							"name": "amount",
							"type": "uint256"
						}
					],
					"name": "transfer",
					"outputs": [
						{
							"internalType": "bool",
							"name": "",
							"type": "bool"
						}
					],
					"stateMutability": "nonpayable",
					"type": "function"
				},
				{
					"inputs": [],
					"name": "transferDelayEnabled",
					"outputs": [
						{
							"internalType": "bool",
							"name": "",
							"type": "bool"
						}
					],
					"stateMutability": "view",
					"type": "function"
				},
				{
					"inputs": [
						{
							"internalType": "address",
							"name": "sender",
							"type": "address"
						},
						{
							"internalType": "address",
							"name": "recipient",
							"type": "address"
						},
						{
							"internalType": "uint256",
							"name": "amount",
							"type": "uint256"
						}
					],
					"name": "transferFrom",
					"outputs": [
						{
							"internalType": "bool",
							"name": "",
							"type": "bool"
						}
					],
					"stateMutability": "nonpayable",
					"type": "function"
				},
				{
					"stateMutability": "payable",
					"type": "receive"
				}
			],
			"devdoc": {
				"kind": "dev",
				"methods": {},
				"version": 1
			},
			"evm": {
				"assembly": "    /* \"contracts/spurdo.sol\":2705:11825  contract spurdo is Context, IERC20, Ownable {... */\n  mstore(0x40, 0x80)\n    /* \"contracts/spurdo.sol\":3046:3051  false */\n  0x00\n    /* \"contracts/spurdo.sol\":3011:3051  bool public transferDelayEnabled = false */\n  0x05\n  exp(0x0100, 0x00)\n  dup2\n  sload\n  dup2\n  0xff\n  mul\n  not\n  and\n  swap1\n  dup4\n  iszero\n  iszero\n  mul\n  or\n  swap1\n  sstore\n  pop\n    /* \"contracts/spurdo.sol\":3134:3136  10 */\n  0x0a\n    /* \"contracts/spurdo.sol\":3101:3136  uint256 private _initialBuyTax = 10 */\n  0x06\n  sstore\n    /* \"contracts/spurdo.sol\":3177:3179  30 */\n  0x1e\n    /* \"contracts/spurdo.sol\":3143:3179  uint256 private _initialSellTax = 30 */\n  0x07\n  sstore\n    /* \"contracts/spurdo.sol\":3217:3218  1 */\n  0x01\n    /* \"contracts/spurdo.sol\":3186:3218  uint256 private _finalBuyTax = 1 */\n  0x08\n  sstore\n    /* \"contracts/spurdo.sol\":3257:3258  1 */\n  0x01\n    /* \"contracts/spurdo.sol\":3225:3258  uint256 private _finalSellTax = 1 */\n  0x09\n  sstore\n    /* \"contracts/spurdo.sol\":3298:3300  30 */\n  0x1e\n    /* \"contracts/spurdo.sol\":3265:3300  uint256 public _reduceBuyTaxAt = 30 */\n  0x0a\n  sstore\n    /* \"contracts/spurdo.sol\":3341:3343  45 */\n  0x2d\n    /* \"contracts/spurdo.sol\":3307:3343  uint256 public _reduceSellTaxAt = 45 */\n  0x0b\n  sstore\n    /* \"contracts/spurdo.sol\":3387:3389  30 */\n  0x1e\n    /* \"contracts/spurdo.sol\":3350:3389  uint256 private _preventSwapBefore = 30 */\n  0x0c\n  sstore\n    /* \"contracts/spurdo.sol\":3424:3425  0 */\n  0x00\n    /* \"contracts/spurdo.sol\":3396:3425  uint256 private _buyCount = 0 */\n  0x0d\n  sstore\n    /* \"contracts/spurdo.sol\":3705:3707  50 */\n  0x32\n    /* \"contracts/spurdo.sol\":3469:3470  8 */\n  0x08\n    /* \"contracts/spurdo.sol\":3533:3535  10 */\n  0x0a\n    /* \"contracts/spurdo.sol\":3533:3548  10 ** _decimals */\n  tag_1\n  swap2\n  swap1\n  tag_2\n  jump\t// in\ntag_1:\n    /* \"contracts/spurdo.sol\":3512:3530  69_000_000_000_000 */\n  0x3ec1507d5000\n    /* \"contracts/spurdo.sol\":3512:3548  69_000_000_000_000 * 10 ** _decimals */\n  tag_3\n  swap2\n  swap1\n  tag_4\n  jump\t// in\ntag_3:\n    /* \"contracts/spurdo.sol\":3695:3707  _tTotal / 50 */\n  tag_5\n  swap2\n  swap1\n  tag_6\n  jump\t// in\ntag_5:\n    /* \"contracts/spurdo.sol\":3665:3707  uint256 public _maxTxAmount = _tTotal / 50 */\n  0x0e\n  sstore\n    /* \"contracts/spurdo.sol\":3756:3758  50 */\n  0x32\n    /* \"contracts/spurdo.sol\":3469:3470  8 */\n  0x08\n    /* \"contracts/spurdo.sol\":3533:3535  10 */\n  0x0a\n    /* \"contracts/spurdo.sol\":3533:3548  10 ** _decimals */\n  tag_7\n  swap2\n  swap1\n  tag_2\n  jump\t// in\ntag_7:\n    /* \"contracts/spurdo.sol\":3512:3530  69_000_000_000_000 */\n  0x3ec1507d5000\n    /* \"contracts/spurdo.sol\":3512:3548  69_000_000_000_000 * 10 ** _decimals */\n  tag_8\n  swap2\n  swap1\n  tag_4\n  jump\t// in\ntag_8:\n    /* \"contracts/spurdo.sol\":3746:3758  _tTotal / 50 */\n  tag_9\n  swap2\n  swap1\n  tag_6\n  jump\t// in\ntag_9:\n    /* \"contracts/spurdo.sol\":3714:3758  uint256 public _maxWalletSize = _tTotal / 50 */\n  0x0f\n  sstore\n    /* \"contracts/spurdo.sol\":3810:3814  1000 */\n  0x03e8\n    /* \"contracts/spurdo.sol\":3469:3470  8 */\n  0x08\n    /* \"contracts/spurdo.sol\":3533:3535  10 */\n  0x0a\n    /* \"contracts/spurdo.sol\":3533:3548  10 ** _decimals */\n  tag_10\n  swap2\n  swap1\n  tag_2\n  jump\t// in\ntag_10:\n    /* \"contracts/spurdo.sol\":3512:3530  69_000_000_000_000 */\n  0x3ec1507d5000\n    /* \"contracts/spurdo.sol\":3512:3548  69_000_000_000_000 * 10 ** _decimals */\n  tag_11\n  swap2\n  swap1\n  tag_4\n  jump\t// in\ntag_11:\n    /* \"contracts/spurdo.sol\":3800:3814  _tTotal / 1000 */\n  tag_12\n  swap2\n  swap1\n  tag_6\n  jump\t// in\ntag_12:\n    /* \"contracts/spurdo.sol\":3765:3814  uint256 public _taxSwapThreshold = _tTotal / 1000 */\n  0x10\n  sstore\n    /* \"contracts/spurdo.sol\":3860:3864  1000 */\n  0x03e8\n    /* \"contracts/spurdo.sol\":3469:3470  8 */\n  0x08\n    /* \"contracts/spurdo.sol\":3533:3535  10 */\n  0x0a\n    /* \"contracts/spurdo.sol\":3533:3548  10 ** _decimals */\n  tag_13\n  swap2\n  swap1\n  tag_2\n  jump\t// in\ntag_13:\n    /* \"contracts/spurdo.sol\":3512:3530  69_000_000_000_000 */\n  0x3ec1507d5000\n    /* \"contracts/spurdo.sol\":3512:3548  69_000_000_000_000 * 10 ** _decimals */\n  tag_14\n  swap2\n  swap1\n  tag_4\n  jump\t// in\ntag_14:\n    /* \"contracts/spurdo.sol\":3850:3864  _tTotal / 1000 */\n  tag_15\n  swap2\n  swap1\n  tag_6\n  jump\t// in\ntag_15:\n    /* \"contracts/spurdo.sol\":3821:3864  uint256 public _maxTaxSwap = _tTotal / 1000 */\n  0x11\n  sstore\n    /* \"contracts/spurdo.sol\":4011:4016  false */\n  0x00\n    /* \"contracts/spurdo.sol\":3989:4016  bool private inSwap = false */\n  0x13\n  exp(0x0100, 0x15)\n  dup2\n  sload\n  dup2\n  0xff\n  mul\n  not\n  and\n  swap1\n  dup4\n  iszero\n  iszero\n  mul\n  or\n  swap1\n  sstore\n  pop\n    /* \"contracts/spurdo.sol\":4050:4055  false */\n  0x00\n    /* \"contracts/spurdo.sol\":4023:4055  bool private swapEnabled = false */\n  0x13\n  exp(0x0100, 0x16)\n  dup2\n  sload\n  dup2\n  0xff\n  mul\n  not\n  and\n  swap1\n  dup4\n  iszero\n  iszero\n  mul\n  or\n  swap1\n  sstore\n  pop\n    /* \"contracts/spurdo.sol\":4214:4530  constructor() {... */\n  callvalue\n  dup1\n  iszero\n  tag_16\n  jumpi\n  0x00\n  dup1\n  revert\ntag_16:\n  pop\n    /* \"contracts/spurdo.sol\":1380:1397  address msgSender */\n  0x00\n    /* \"contracts/spurdo.sol\":1400:1412  _msgSender() */\n  tag_20\n    /* \"contracts/spurdo.sol\":1400:1410  _msgSender */\n  shl(0x20, tag_21)\n    /* \"contracts/spurdo.sol\":1400:1412  _msgSender() */\n  0x20\n  shr\n  jump\t// in\ntag_20:\n    /* \"contracts/spurdo.sol\":1380:1412  address msgSender = _msgSender() */\n  swap1\n  pop\n    /* \"contracts/spurdo.sol\":1432:1441  msgSender */\n  dup1\n    /* \"contracts/spurdo.sol\":1423:1429  _owner */\n  0x00\n  dup1\n    /* \"contracts/spurdo.sol\":1423:1441  _owner = msgSender */\n  0x0100\n  exp\n  dup2\n  sload\n  dup2\n  0xffffffffffffffffffffffffffffffffffffffff\n  mul\n  not\n  and\n  swap1\n  dup4\n  0xffffffffffffffffffffffffffffffffffffffff\n  and\n  mul\n  or\n  swap1\n  sstore\n  pop\n    /* \"contracts/spurdo.sol\":1490:1499  msgSender */\n  dup1\n    /* \"contracts/spurdo.sol\":1457:1500  OwnershipTransferred(address(0), msgSender) */\n  0xffffffffffffffffffffffffffffffffffffffff\n  and\n    /* \"contracts/spurdo.sol\":1486:1487  0 */\n  0x00\n    /* \"contracts/spurdo.sol\":1457:1500  OwnershipTransferred(address(0), msgSender) */\n  0xffffffffffffffffffffffffffffffffffffffff\n  and\n  0x8be0079c531659141344cd1fd0a4f28419497f9722a3daafe3b4186f6b6457e0\n  mload(0x40)\n  mload(0x40)\n  dup1\n  swap2\n  sub\n  swap1\n  log3\n    /* \"contracts/spurdo.sol\":1369:1508  {... */\n  pop\n    /* \"contracts/spurdo.sol\":4260:4272  _msgSender() */\n  tag_23\n    /* \"contracts/spurdo.sol\":4260:4270  _msgSender */\n  shl(0x20, tag_21)\n    /* \"contracts/spurdo.sol\":4260:4272  _msgSender() */\n  0x20\n  shr\n  jump\t// in\ntag_23:\n    /* \"contracts/spurdo.sol\":4239:4249  _taxWallet */\n  0x05\n  0x01\n    /* \"contracts/spurdo.sol\":4239:4273  _taxWallet = payable(_msgSender()) */\n  0x0100\n  exp\n  dup2\n  sload\n  dup2\n  0xffffffffffffffffffffffffffffffffffffffff\n  mul\n  not\n  and\n  swap1\n  dup4\n  0xffffffffffffffffffffffffffffffffffffffff\n  and\n  mul\n  or\n  swap1\n  sstore\n  pop\n    /* \"contracts/spurdo.sol\":3469:3470  8 */\n  0x08\n    /* \"contracts/spurdo.sol\":3533:3535  10 */\n  0x0a\n    /* \"contracts/spurdo.sol\":3533:3548  10 ** _decimals */\n  tag_24\n  swap2\n  swap1\n  tag_2\n  jump\t// in\ntag_24:\n    /* \"contracts/spurdo.sol\":3512:3530  69_000_000_000_000 */\n  0x3ec1507d5000\n    /* \"contracts/spurdo.sol\":3512:3548  69_000_000_000_000 * 10 ** _decimals */\n  tag_25\n  swap2\n  swap1\n  tag_4\n  jump\t// in\ntag_25:\n    /* \"contracts/spurdo.sol\":4284:4293  _balances */\n  0x01\n    /* \"contracts/spurdo.sol\":4284:4307  _balances[_msgSender()] */\n  0x00\n    /* \"contracts/spurdo.sol\":4294:4306  _msgSender() */\n  tag_26\n    /* \"contracts/spurdo.sol\":4294:4304  _msgSender */\n  shl(0x20, tag_21)\n    /* \"contracts/spurdo.sol\":4294:4306  _msgSender() */\n  0x20\n  shr\n  jump\t// in\ntag_26:\n    /* \"contracts/spurdo.sol\":4284:4307  _balances[_msgSender()] */\n  0xffffffffffffffffffffffffffffffffffffffff\n  and\n  0xffffffffffffffffffffffffffffffffffffffff\n  and\n  dup2\n  mstore\n  0x20\n  add\n  swap1\n  dup2\n  mstore\n  0x20\n  add\n  0x00\n  keccak256\n    /* \"contracts/spurdo.sol\":4284:4317  _balances[_msgSender()] = _tTotal */\n  dup2\n  swap1\n  sstore\n  pop\n    /* \"contracts/spurdo.sol\":4358:4362  true */\n  0x01\n    /* \"contracts/spurdo.sol\":4328:4346  _isExcludedFromFee */\n  0x03\n    /* \"contracts/spurdo.sol\":4328:4355  _isExcludedFromFee[owner()] */\n  0x00\n    /* \"contracts/spurdo.sol\":4347:4354  owner() */\n  tag_27\n    /* \"contracts/spurdo.sol\":4347:4352  owner */\n  shl(0x20, tag_28)\n    /* \"contracts/spurdo.sol\":4347:4354  owner() */\n  0x20\n  shr\n  jump\t// in\ntag_27:\n    /* \"contracts/spurdo.sol\":4328:4355  _isExcludedFromFee[owner()] */\n  0xffffffffffffffffffffffffffffffffffffffff\n  and\n  0xffffffffffffffffffffffffffffffffffffffff\n  and\n  dup2\n  mstore\n  0x20\n  add\n  swap1\n  dup2\n  mstore\n  0x20\n  add\n  0x00\n  keccak256\n  0x00\n    /* \"contracts/spurdo.sol\":4328:4362  _isExcludedFromFee[owner()] = true */\n  0x0100\n  exp\n  dup2\n  sload\n  dup2\n  0xff\n  mul\n  not\n  and\n  swap1\n  dup4\n  iszero\n  iszero\n  mul\n  or\n  swap1\n  sstore\n  pop\n    /* \"contracts/spurdo.sol\":4409:4413  true */\n  0x01\n    /* \"contracts/spurdo.sol\":4373:4391  _isExcludedFromFee */\n  0x03\n    /* \"contracts/spurdo.sol\":4373:4406  _isExcludedFromFee[address(this)] */\n  0x00\n    /* \"contracts/spurdo.sol\":4400:4404  this */\n  address\n    /* \"contracts/spurdo.sol\":4373:4406  _isExcludedFromFee[address(this)] */\n  0xffffffffffffffffffffffffffffffffffffffff\n  and\n  0xffffffffffffffffffffffffffffffffffffffff\n  and\n  dup2\n  mstore\n  0x20\n  add\n  swap1\n  dup2\n  mstore\n  0x20\n  add\n  0x00\n  keccak256\n  0x00\n    /* \"contracts/spurdo.sol\":4373:4413  _isExcludedFromFee[address(this)] = true */\n  0x0100\n  exp\n  dup2\n  sload\n  dup2\n  0xff\n  mul\n  not\n  and\n  swap1\n  dup4\n  iszero\n  iszero\n  mul\n  or\n  swap1\n  sstore\n  pop\n    /* \"contracts/spurdo.sol\":4457:4461  true */\n  0x01\n    /* \"contracts/spurdo.sol\":4424:4442  _isExcludedFromFee */\n  0x03\n    /* \"contracts/spurdo.sol\":4424:4454  _isExcludedFromFee[_taxWallet] */\n  0x00\n    /* \"contracts/spurdo.sol\":4443:4453  _taxWallet */\n  0x05\n  0x01\n  swap1\n  sload\n  swap1\n  0x0100\n  exp\n  swap1\n  div\n  0xffffffffffffffffffffffffffffffffffffffff\n  and\n    /* \"contracts/spurdo.sol\":4424:4454  _isExcludedFromFee[_taxWallet] */\n  0xffffffffffffffffffffffffffffffffffffffff\n  and\n  0xffffffffffffffffffffffffffffffffffffffff\n  and\n  dup2\n  mstore\n  0x20\n  add\n  swap1\n  dup2\n  mstore\n  0x20\n  add\n  0x00\n  keccak256\n  0x00\n    /* \"contracts/spurdo.sol\":4424:4461  _isExcludedFromFee[_taxWallet] = true */\n  0x0100\n  exp\n  dup2\n  sload\n  dup2\n  0xff\n  mul\n  not\n  and\n  swap1\n  dup4\n  iszero\n  iszero\n  mul\n  or\n  swap1\n  sstore\n  pop\n    /* \"contracts/spurdo.sol\":4500:4512  _msgSender() */\n  tag_29\n    /* \"contracts/spurdo.sol\":4500:4510  _msgSender */\n  shl(0x20, tag_21)\n    /* \"contracts/spurdo.sol\":4500:4512  _msgSender() */\n  0x20\n  shr\n  jump\t// in\ntag_29:\n    /* \"contracts/spurdo.sol\":4479:4522  Transfer(address(0), _msgSender(), _tTotal) */\n  0xffffffffffffffffffffffffffffffffffffffff\n  and\n    /* \"contracts/spurdo.sol\":4496:4497  0 */\n  0x00\n    /* \"contracts/spurdo.sol\":4479:4522  Transfer(address(0), _msgSender(), _tTotal) */\n  0xffffffffffffffffffffffffffffffffffffffff\n  and\n  0xddf252ad1be2c89b69c2b068fc378daa952ba7f163c4a11628f55a4df523b3ef\n    /* \"contracts/spurdo.sol\":3469:3470  8 */\n  0x08\n    /* \"contracts/spurdo.sol\":3533:3535  10 */\n  0x0a\n    /* \"contracts/spurdo.sol\":3533:3548  10 ** _decimals */\n  tag_30\n  swap2\n  swap1\n  tag_2\n  jump\t// in\ntag_30:\n    /* \"contracts/spurdo.sol\":3512:3530  69_000_000_000_000 */\n  0x3ec1507d5000\n    /* \"contracts/spurdo.sol\":3512:3548  69_000_000_000_000 * 10 ** _decimals */\n  tag_31\n  swap2\n  swap1\n  tag_4\n  jump\t// in\ntag_31:\n    /* \"contracts/spurdo.sol\":4479:4522  Transfer(address(0), _msgSender(), _tTotal) */\n  mload(0x40)\n  tag_32\n  swap2\n  swap1\n  tag_33\n  jump\t// in\ntag_32:\n  mload(0x40)\n  dup1\n  swap2\n  sub\n  swap1\n  log3\n    /* \"contracts/spurdo.sol\":2705:11825  contract spurdo is Context, IERC20, Ownable {... */\n  jump(tag_34)\n    /* \"contracts/spurdo.sol\":262:360  function _msgSender() internal view virtual returns (address) {... */\ntag_21:\n    /* \"contracts/spurdo.sol\":315:322  address */\n  0x00\n    /* \"contracts/spurdo.sol\":342:352  msg.sender */\n  caller\n    /* \"contracts/spurdo.sol\":335:352  return msg.sender */\n  swap1\n  pop\n    /* \"contracts/spurdo.sol\":262:360  function _msgSender() internal view virtual returns (address) {... */\n  swap1\n  jump\t// out\n    /* \"contracts/spurdo.sol\":1516:1595  function owner() public view returns (address) {... */\ntag_28:\n    /* \"contracts/spurdo.sol\":1554:1561  address */\n  0x00\n    /* \"contracts/spurdo.sol\":1581:1587  _owner */\n  dup1\n  0x00\n  swap1\n  sload\n  swap1\n  0x0100\n  exp\n  swap1\n  div\n  0xffffffffffffffffffffffffffffffffffffffff\n  and\n    /* \"contracts/spurdo.sol\":1574:1587  return _owner */\n  swap1\n  pop\n    /* \"contracts/spurdo.sol\":1516:1595  function owner() public view returns (address) {... */\n  swap1\n  jump\t// out\n    /* \"#utility.yul\":7:187   */\ntag_37:\n    /* \"#utility.yul\":55:132   */\n  0x4e487b7100000000000000000000000000000000000000000000000000000000\n    /* \"#utility.yul\":52:53   */\n  0x00\n    /* \"#utility.yul\":45:133   */\n  mstore\n    /* \"#utility.yul\":152:156   */\n  0x11\n    /* \"#utility.yul\":149:150   */\n  0x04\n    /* \"#utility.yul\":142:157   */\n  mstore\n    /* \"#utility.yul\":176:180   */\n  0x24\n    /* \"#utility.yul\":173:174   */\n  0x00\n    /* \"#utility.yul\":166:181   */\n  revert\n    /* \"#utility.yul\":193:295   */\ntag_38:\n    /* \"#utility.yul\":235:243   */\n  0x00\n    /* \"#utility.yul\":282:287   */\n  dup2\n    /* \"#utility.yul\":279:280   */\n  0x01\n    /* \"#utility.yul\":275:288   */\n  shr\n    /* \"#utility.yul\":254:288   */\n  swap1\n  pop\n    /* \"#utility.yul\":193:295   */\n  swap2\n  swap1\n  pop\n  jump\t// out\n    /* \"#utility.yul\":301:1149   */\ntag_39:\n    /* \"#utility.yul\":362:367   */\n  0x00\n    /* \"#utility.yul\":369:373   */\n  dup1\n    /* \"#utility.yul\":393:399   */\n  dup3\n    /* \"#utility.yul\":384:399   */\n  swap2\n  pop\n    /* \"#utility.yul\":417:422   */\n  dup4\n    /* \"#utility.yul\":408:422   */\n  swap1\n  pop\n    /* \"#utility.yul\":431:1143   */\ntag_49:\n    /* \"#utility.yul\":452:453   */\n  0x01\n    /* \"#utility.yul\":442:450   */\n  dup6\n    /* \"#utility.yul\":439:454   */\n  gt\n    /* \"#utility.yul\":431:1143   */\n  iszero\n  tag_51\n  jumpi\n    /* \"#utility.yul\":547:551   */\n  dup1\n    /* \"#utility.yul\":542:545   */\n  dup7\n    /* \"#utility.yul\":538:552   */\n  div\n    /* \"#utility.yul\":532:536   */\n  dup2\n    /* \"#utility.yul\":529:553   */\n  gt\n    /* \"#utility.yul\":526:576   */\n  iszero\n  tag_52\n  jumpi\n    /* \"#utility.yul\":556:574   */\n  tag_53\n  tag_37\n  jump\t// in\ntag_53:\n    /* \"#utility.yul\":526:576   */\ntag_52:\n    /* \"#utility.yul\":606:607   */\n  0x01\n    /* \"#utility.yul\":596:604   */\n  dup6\n    /* \"#utility.yul\":592:608   */\n  and\n    /* \"#utility.yul\":589:1040   */\n  iszero\n  tag_54\n  jumpi\n    /* \"#utility.yul\":1021:1025   */\n  dup1\n    /* \"#utility.yul\":1014:1019   */\n  dup3\n    /* \"#utility.yul\":1010:1026   */\n  mul\n    /* \"#utility.yul\":1001:1026   */\n  swap2\n  pop\n    /* \"#utility.yul\":589:1040   */\ntag_54:\n    /* \"#utility.yul\":1071:1075   */\n  dup1\n    /* \"#utility.yul\":1065:1069   */\n  dup2\n    /* \"#utility.yul\":1061:1076   */\n  mul\n    /* \"#utility.yul\":1053:1076   */\n  swap1\n  pop\n    /* \"#utility.yul\":1101:1133   */\n  tag_55\n    /* \"#utility.yul\":1124:1132   */\n  dup6\n    /* \"#utility.yul\":1101:1133   */\n  tag_38\n  jump\t// in\ntag_55:\n    /* \"#utility.yul\":1089:1133   */\n  swap5\n  pop\n    /* \"#utility.yul\":431:1143   */\n  jump(tag_49)\ntag_51:\n    /* \"#utility.yul\":301:1149   */\n  swap5\n  pop\n  swap5\n  swap3\n  pop\n  pop\n  pop\n  jump\t// out\n    /* \"#utility.yul\":1155:2228   */\ntag_40:\n    /* \"#utility.yul\":1209:1214   */\n  0x00\n    /* \"#utility.yul\":1400:1408   */\n  dup3\n    /* \"#utility.yul\":1390:1430   */\n  tag_57\n  jumpi\n    /* \"#utility.yul\":1421:1422   */\n  0x01\n    /* \"#utility.yul\":1412:1422   */\n  swap1\n  pop\n    /* \"#utility.yul\":1423:1428   */\n  jump(tag_56)\n    /* \"#utility.yul\":1390:1430   */\ntag_57:\n    /* \"#utility.yul\":1449:1453   */\n  dup2\n    /* \"#utility.yul\":1439:1475   */\n  tag_58\n  jumpi\n    /* \"#utility.yul\":1466:1467   */\n  0x00\n    /* \"#utility.yul\":1457:1467   */\n  swap1\n  pop\n    /* \"#utility.yul\":1468:1473   */\n  jump(tag_56)\n    /* \"#utility.yul\":1439:1475   */\ntag_58:\n    /* \"#utility.yul\":1535:1539   */\n  dup2\n    /* \"#utility.yul\":1583:1584   */\n  0x01\n    /* \"#utility.yul\":1578:1605   */\n  dup2\n  eq\n  tag_60\n  jumpi\n    /* \"#utility.yul\":1619:1620   */\n  0x02\n    /* \"#utility.yul\":1614:1805   */\n  dup2\n  eq\n  tag_61\n  jumpi\n    /* \"#utility.yul\":1528:1805   */\n  jump(tag_59)\n    /* \"#utility.yul\":1578:1605   */\ntag_60:\n    /* \"#utility.yul\":1596:1597   */\n  0x01\n    /* \"#utility.yul\":1587:1597   */\n  swap2\n  pop\n    /* \"#utility.yul\":1598:1603   */\n  pop\n  jump(tag_56)\n    /* \"#utility.yul\":1614:1805   */\ntag_61:\n    /* \"#utility.yul\":1659:1662   */\n  0xff\n    /* \"#utility.yul\":1649:1657   */\n  dup5\n    /* \"#utility.yul\":1646:1663   */\n  gt\n    /* \"#utility.yul\":1643:1686   */\n  iszero\n  tag_62\n  jumpi\n    /* \"#utility.yul\":1666:1684   */\n  tag_63\n  tag_37\n  jump\t// in\ntag_63:\n    /* \"#utility.yul\":1643:1686   */\ntag_62:\n    /* \"#utility.yul\":1715:1723   */\n  dup4\n    /* \"#utility.yul\":1712:1713   */\n  0x02\n    /* \"#utility.yul\":1708:1724   */\n  exp\n    /* \"#utility.yul\":1699:1724   */\n  swap2\n  pop\n    /* \"#utility.yul\":1750:1753   */\n  dup5\n    /* \"#utility.yul\":1743:1748   */\n  dup3\n    /* \"#utility.yul\":1740:1754   */\n  gt\n    /* \"#utility.yul\":1737:1777   */\n  iszero\n  tag_64\n  jumpi\n    /* \"#utility.yul\":1757:1775   */\n  tag_65\n  tag_37\n  jump\t// in\ntag_65:\n    /* \"#utility.yul\":1737:1777   */\ntag_64:\n    /* \"#utility.yul\":1790:1795   */\n  pop\n  jump(tag_56)\n    /* \"#utility.yul\":1528:1805   */\ntag_59:\n  pop\n    /* \"#utility.yul\":1914:1916   */\n  0x20\n    /* \"#utility.yul\":1904:1912   */\n  dup4\n    /* \"#utility.yul\":1901:1917   */\n  lt\n    /* \"#utility.yul\":1895:1898   */\n  0x0133\n    /* \"#utility.yul\":1889:1893   */\n  dup4\n    /* \"#utility.yul\":1886:1899   */\n  lt\n    /* \"#utility.yul\":1882:1918   */\n  and\n    /* \"#utility.yul\":1864:1866   */\n  0x4e\n    /* \"#utility.yul\":1854:1862   */\n  dup5\n    /* \"#utility.yul\":1851:1867   */\n  lt\n    /* \"#utility.yul\":1846:1848   */\n  0x0b\n    /* \"#utility.yul\":1840:1844   */\n  dup5\n    /* \"#utility.yul\":1837:1849   */\n  lt\n    /* \"#utility.yul\":1833:1868   */\n  and\n    /* \"#utility.yul\":1817:1928   */\n  or\n    /* \"#utility.yul\":1814:2060   */\n  iszero\n  tag_66\n  jumpi\n    /* \"#utility.yul\":1970:1978   */\n  dup3\n    /* \"#utility.yul\":1964:1968   */\n  dup3\n    /* \"#utility.yul\":1960:1979   */\n  exp\n    /* \"#utility.yul\":1951:1979   */\n  swap1\n  pop\n    /* \"#utility.yul\":2005:2008   */\n  dup4\n    /* \"#utility.yul\":1998:2003   */\n  dup2\n    /* \"#utility.yul\":1995:2009   */\n  gt\n    /* \"#utility.yul\":1992:2032   */\n  iszero\n  tag_67\n  jumpi\n    /* \"#utility.yul\":2012:2030   */\n  tag_68\n  tag_37\n  jump\t// in\ntag_68:\n    /* \"#utility.yul\":1992:2032   */\ntag_67:\n    /* \"#utility.yul\":2045:2050   */\n  jump(tag_56)\n    /* \"#utility.yul\":1814:2060   */\ntag_66:\n    /* \"#utility.yul\":2085:2127   */\n  tag_69\n    /* \"#utility.yul\":2123:2126   */\n  dup5\n    /* \"#utility.yul\":2113:2121   */\n  dup5\n    /* \"#utility.yul\":2107:2111   */\n  dup5\n    /* \"#utility.yul\":2104:2105   */\n  0x01\n    /* \"#utility.yul\":2085:2127   */\n  tag_39\n  jump\t// in\ntag_69:\n    /* \"#utility.yul\":2070:2127   */\n  swap3\n  pop\n  swap1\n  pop\n    /* \"#utility.yul\":2159:2163   */\n  dup2\n    /* \"#utility.yul\":2154:2157   */\n  dup5\n    /* \"#utility.yul\":2150:2164   */\n  div\n    /* \"#utility.yul\":2143:2148   */\n  dup2\n    /* \"#utility.yul\":2140:2165   */\n  gt\n    /* \"#utility.yul\":2137:2188   */\n  iszero\n  tag_70\n  jumpi\n    /* \"#utility.yul\":2168:2186   */\n  tag_71\n  tag_37\n  jump\t// in\ntag_71:\n    /* \"#utility.yul\":2137:2188   */\ntag_70:\n    /* \"#utility.yul\":2217:2221   */\n  dup2\n    /* \"#utility.yul\":2210:2215   */\n  dup2\n    /* \"#utility.yul\":2206:2222   */\n  mul\n    /* \"#utility.yul\":2197:2222   */\n  swap1\n  pop\n    /* \"#utility.yul\":1155:2228   */\ntag_56:\n  swap4\n  swap3\n  pop\n  pop\n  pop\n  jump\t// out\n    /* \"#utility.yul\":2234:2311   */\ntag_41:\n    /* \"#utility.yul\":2271:2278   */\n  0x00\n    /* \"#utility.yul\":2300:2305   */\n  dup2\n    /* \"#utility.yul\":2289:2305   */\n  swap1\n  pop\n    /* \"#utility.yul\":2234:2311   */\n  swap2\n  swap1\n  pop\n  jump\t// out\n    /* \"#utility.yul\":2317:2403   */\ntag_42:\n    /* \"#utility.yul\":2352:2359   */\n  0x00\n    /* \"#utility.yul\":2392:2396   */\n  0xff\n    /* \"#utility.yul\":2385:2390   */\n  dup3\n    /* \"#utility.yul\":2381:2397   */\n  and\n    /* \"#utility.yul\":2370:2397   */\n  swap1\n  pop\n    /* \"#utility.yul\":2317:2403   */\n  swap2\n  swap1\n  pop\n  jump\t// out\n    /* \"#utility.yul\":2409:2690   */\ntag_2:\n    /* \"#utility.yul\":2467:2472   */\n  0x00\n    /* \"#utility.yul\":2491:2514   */\n  tag_75\n    /* \"#utility.yul\":2509:2513   */\n  dup3\n    /* \"#utility.yul\":2491:2514   */\n  tag_41\n  jump\t// in\ntag_75:\n    /* \"#utility.yul\":2483:2514   */\n  swap2\n  pop\n    /* \"#utility.yul\":2535:2560   */\n  tag_76\n    /* \"#utility.yul\":2551:2559   */\n  dup4\n    /* \"#utility.yul\":2535:2560   */\n  tag_42\n  jump\t// in\ntag_76:\n    /* \"#utility.yul\":2523:2560   */\n  swap3\n  pop\n    /* \"#utility.yul\":2579:2683   */\n  tag_77\n    /* \"#utility.yul\":2616:2682   */\n  0xffffffffffffffffffffffffffffffffffffffffffffffffffffffffffffffff\n    /* \"#utility.yul\":2606:2614   */\n  dup5\n    /* \"#utility.yul\":2600:2604   */\n  dup5\n    /* \"#utility.yul\":2579:2683   */\n  tag_40\n  jump\t// in\ntag_77:\n    /* \"#utility.yul\":2570:2683   */\n  swap1\n  pop\n    /* \"#utility.yul\":2409:2690   */\n  swap3\n  swap2\n  pop\n  pop\n  jump\t// out\n    /* \"#utility.yul\":2696:3044   */\ntag_4:\n    /* \"#utility.yul\":2736:2743   */\n  0x00\n    /* \"#utility.yul\":2759:2779   */\n  tag_79\n    /* \"#utility.yul\":2777:2778   */\n  dup3\n    /* \"#utility.yul\":2759:2779   */\n  tag_41\n  jump\t// in\ntag_79:\n    /* \"#utility.yul\":2754:2779   */\n  swap2\n  pop\n    /* \"#utility.yul\":2793:2813   */\n  tag_80\n    /* \"#utility.yul\":2811:2812   */\n  dup4\n    /* \"#utility.yul\":2793:2813   */\n  tag_41\n  jump\t// in\ntag_80:\n    /* \"#utility.yul\":2788:2813   */\n  swap3\n  pop\n    /* \"#utility.yul\":2981:2982   */\n  dup2\n    /* \"#utility.yul\":2913:2979   */\n  0xffffffffffffffffffffffffffffffffffffffffffffffffffffffffffffffff\n    /* \"#utility.yul\":2909:2983   */\n  div\n    /* \"#utility.yul\":2906:2907   */\n  dup4\n    /* \"#utility.yul\":2903:2984   */\n  gt\n    /* \"#utility.yul\":2898:2899   */\n  dup3\n    /* \"#utility.yul\":2891:2900   */\n  iszero\n    /* \"#utility.yul\":2884:2901   */\n  iszero\n    /* \"#utility.yul\":2880:2985   */\n  and\n    /* \"#utility.yul\":2877:3008   */\n  iszero\n  tag_81\n  jumpi\n    /* \"#utility.yul\":2988:3006   */\n  tag_82\n  tag_37\n  jump\t// in\ntag_82:\n    /* \"#utility.yul\":2877:3008   */\ntag_81:\n    /* \"#utility.yul\":3036:3037   */\n  dup3\n    /* \"#utility.yul\":3033:3034   */\n  dup3\n    /* \"#utility.yul\":3029:3038   */\n  mul\n    /* \"#utility.yul\":3018:3038   */\n  swap1\n  pop\n    /* \"#utility.yul\":2696:3044   */\n  swap3\n  swap2\n  pop\n  pop\n  jump\t// out\n    /* \"#utility.yul\":3050:3230   */\ntag_43:\n    /* \"#utility.yul\":3098:3175   */\n  0x4e487b7100000000000000000000000000000000000000000000000000000000\n    /* \"#utility.yul\":3095:3096   */\n  0x00\n    /* \"#utility.yul\":3088:3176   */\n  mstore\n    /* \"#utility.yul\":3195:3199   */\n  0x12\n    /* \"#utility.yul\":3192:3193   */\n  0x04\n    /* \"#utility.yul\":3185:3200   */\n  mstore\n    /* \"#utility.yul\":3219:3223   */\n  0x24\n    /* \"#utility.yul\":3216:3217   */\n  0x00\n    /* \"#utility.yul\":3209:3224   */\n  revert\n    /* \"#utility.yul\":3236:3421   */\ntag_6:\n    /* \"#utility.yul\":3276:3277   */\n  0x00\n    /* \"#utility.yul\":3293:3313   */\n  tag_85\n    /* \"#utility.yul\":3311:3312   */\n  dup3\n    /* \"#utility.yul\":3293:3313   */\n  tag_41\n  jump\t// in\ntag_85:\n    /* \"#utility.yul\":3288:3313   */\n  swap2\n  pop\n    /* \"#utility.yul\":3327:3347   */\n  tag_86\n    /* \"#utility.yul\":3345:3346   */\n  dup4\n    /* \"#utility.yul\":3327:3347   */\n  tag_41\n  jump\t// in\ntag_86:\n    /* \"#utility.yul\":3322:3347   */\n  swap3\n  pop\n    /* \"#utility.yul\":3366:3367   */\n  dup3\n    /* \"#utility.yul\":3356:3391   */\n  tag_87\n  jumpi\n    /* \"#utility.yul\":3371:3389   */\n  tag_88\n  tag_43\n  jump\t// in\ntag_88:\n    /* \"#utility.yul\":3356:3391   */\ntag_87:\n    /* \"#utility.yul\":3413:3414   */\n  dup3\n    /* \"#utility.yul\":3410:3411   */\n  dup3\n    /* \"#utility.yul\":3406:3415   */\n  div\n    /* \"#utility.yul\":3401:3415   */\n  swap1\n  pop\n    /* \"#utility.yul\":3236:3421   */\n  swap3\n  swap2\n  pop\n  pop\n  jump\t// out\n    /* \"#utility.yul\":3427:3545   */\ntag_44:\n    /* \"#utility.yul\":3514:3538   */\n  tag_90\n    /* \"#utility.yul\":3532:3537   */\n  dup2\n    /* \"#utility.yul\":3514:3538   */\n  tag_41\n  jump\t// in\ntag_90:\n    /* \"#utility.yul\":3509:3512   */\n  dup3\n    /* \"#utility.yul\":3502:3539   */\n  mstore\n    /* \"#utility.yul\":3427:3545   */\n  pop\n  pop\n  jump\t// out\n    /* \"#utility.yul\":3551:3773   */\ntag_33:\n    /* \"#utility.yul\":3644:3648   */\n  0x00\n    /* \"#utility.yul\":3682:3684   */\n  0x20\n    /* \"#utility.yul\":3671:3680   */\n  dup3\n    /* \"#utility.yul\":3667:3685   */\n  add\n    /* \"#utility.yul\":3659:3685   */\n  swap1\n  pop\n    /* \"#utility.yul\":3695:3766   */\n  tag_92\n    /* \"#utility.yul\":3763:3764   */\n  0x00\n    /* \"#utility.yul\":3752:3761   */\n  dup4\n    /* \"#utility.yul\":3748:3765   */\n  add\n    /* \"#utility.yul\":3739:3745   */\n  dup5\n    /* \"#utility.yul\":3695:3766   */\n  tag_44\n  jump\t// in\ntag_92:\n    /* \"#utility.yul\":3551:3773   */\n  swap3\n  swap2\n  pop\n  pop\n  jump\t// out\n    /* \"contracts/spurdo.sol\":2705:11825  contract spurdo is Context, IERC20, Ownable {... */\ntag_34:\n  dataSize(sub_0)\n  dup1\n  dataOffset(sub_0)\n  0x00\n  codecopy\n  0x00\n  return\nstop\n\nsub_0: assembly {\n        /* \"contracts/spurdo.sol\":2705:11825  contract spurdo is Context, IERC20, Ownable {... */\n      mstore(0x40, 0x80)\n      jumpi(tag_1, lt(calldatasize, 0x04))\n      shr(0xe0, calldataload(0x00))\n      dup1\n      0x715018a6\n      gt\n      tag_25\n      jumpi\n      dup1\n      0x95d89b41\n      gt\n      tag_26\n      jumpi\n      dup1\n      0x95d89b41\n      eq\n      tag_19\n      jumpi\n      dup1\n      0xa9059cbb\n      eq\n      tag_20\n      jumpi\n      dup1\n      0xbf474bed\n      eq\n      tag_21\n      jumpi\n      dup1\n      0xc36956a0\n      eq\n      tag_22\n      jumpi\n      dup1\n      0xc876d0b9\n      eq\n      tag_23\n      jumpi\n      dup1\n      0xdd62ed3e\n      eq\n      tag_24\n      jumpi\n      jump(tag_2)\n    tag_26:\n      dup1\n      0x715018a6\n      eq\n      tag_14\n      jumpi\n      dup1\n      0x751039fc\n      eq\n      tag_15\n      jumpi\n      dup1\n      0x7d1db4a5\n      eq\n      tag_16\n      jumpi\n      dup1\n      0x8da5cb5b\n      eq\n      tag_17\n      jumpi\n      dup1\n      0x8f9a55c0\n      eq\n      tag_18\n      jumpi\n      jump(tag_2)\n    tag_25:\n      dup1\n      0x0faee56f\n      gt\n      tag_27\n      jumpi\n      dup1\n      0x0faee56f\n      eq\n      tag_8\n      jumpi\n      dup1\n      0x18160ddd\n      eq\n      tag_9\n      jumpi\n      dup1\n      0x23b872dd\n      eq\n      tag_10\n      jumpi\n      dup1\n      0x313ce567\n      eq\n      tag_11\n      jumpi\n      dup1\n      0x51bc3c85\n      eq\n      tag_12\n      jumpi\n      dup1\n      0x70a08231\n      eq\n      tag_13\n      jumpi\n      jump(tag_2)\n    tag_27:\n      dup1\n      0x02ac8168\n      eq\n      tag_3\n      jumpi\n      dup1\n      0x06fdde03\n      eq\n      tag_4\n      jumpi\n      dup1\n      0x095ea7b3\n      eq\n      tag_5\n      jumpi\n      dup1\n      0x0c193045\n      eq\n      tag_6\n      jumpi\n      dup1\n      0x0ce5fd36\n      eq\n      tag_7\n      jumpi\n      jump(tag_2)\n    tag_1:\n      jumpi(tag_2, calldatasize)\n      stop\n    tag_2:\n      0x00\n      dup1\n      revert\n        /* \"contracts/spurdo.sol\":10591:11411  function Launch() external onlyOwner {... */\n    tag_3:\n      callvalue\n      dup1\n      iszero\n      tag_30\n      jumpi\n      0x00\n      dup1\n      revert\n    tag_30:\n      pop\n      tag_31\n      tag_32\n      jump\t// in\n    tag_31:\n      stop\n        /* \"contracts/spurdo.sol\":4538:4621  function name() public pure returns (string memory) {... */\n    tag_4:\n      callvalue\n      dup1\n      iszero\n      tag_33\n      jumpi\n      0x00\n      dup1\n      revert\n    tag_33:\n      pop\n      tag_34\n      tag_35\n      jump\t// in\n    tag_34:\n      mload(0x40)\n      tag_36\n      swap2\n      swap1\n      tag_37\n      jump\t// in\n    tag_36:\n      mload(0x40)\n      dup1\n      swap2\n      sub\n      swap1\n      return\n        /* \"contracts/spurdo.sol\":5421:5607  function approve(... */\n    tag_5:\n      callvalue\n      dup1\n      iszero\n      tag_38\n      jumpi\n      0x00\n      dup1\n      revert\n    tag_38:\n      pop\n      tag_39\n      0x04\n      dup1\n      calldatasize\n      sub\n      dup2\n      add\n      swap1\n      tag_40\n      swap2\n      swap1\n      tag_41\n      jump\t// in\n    tag_40:\n      tag_42\n      jump\t// in\n    tag_39:\n      mload(0x40)\n      tag_43\n      swap2\n      swap1\n      tag_44\n      jump\t// in\n    tag_43:\n      mload(0x40)\n      dup1\n      swap2\n      sub\n      swap1\n      return\n        /* \"contracts/spurdo.sol\":3265:3300  uint256 public _reduceBuyTaxAt = 30 */\n    tag_6:\n      callvalue\n      dup1\n      iszero\n      tag_45\n      jumpi\n      0x00\n      dup1\n      revert\n    tag_45:\n      pop\n      tag_46\n      tag_47\n      jump\t// in\n    tag_46:\n      mload(0x40)\n      tag_48\n      swap2\n      swap1\n      tag_49\n      jump\t// in\n    tag_48:\n      mload(0x40)\n      dup1\n      swap2\n      sub\n      swap1\n      return\n        /* \"contracts/spurdo.sol\":10435:10583  function changeSwapAmount(uint256 amount) external onlyOwner {... */\n    tag_7:\n      callvalue\n      dup1\n      iszero\n      tag_50\n      jumpi\n      0x00\n      dup1\n      revert\n    tag_50:\n      pop\n      tag_51\n      0x04\n      dup1\n      calldatasize\n      sub\n      dup2\n      add\n      swap1\n      tag_52\n      swap2\n      swap1\n      tag_53\n      jump\t// in\n    tag_52:\n      tag_54\n      jump\t// in\n    tag_51:\n      stop\n        /* \"contracts/spurdo.sol\":3821:3864  uint256 public _maxTaxSwap = _tTotal / 1000 */\n    tag_8:\n      callvalue\n      dup1\n      iszero\n      tag_55\n      jumpi\n      0x00\n      dup1\n      revert\n    tag_55:\n      pop\n      tag_56\n      tag_57\n      jump\t// in\n    tag_56:\n      mload(0x40)\n      tag_58\n      swap2\n      swap1\n      tag_49\n      jump\t// in\n    tag_58:\n      mload(0x40)\n      dup1\n      swap2\n      sub\n      swap1\n      return\n        /* \"contracts/spurdo.sol\":4815:4910  function totalSupply() public pure override returns (uint256) {... */\n    tag_9:\n      callvalue\n      dup1\n      iszero\n      tag_59\n      jumpi\n      0x00\n      dup1\n      revert\n    tag_59:\n      pop\n      tag_60\n      tag_61\n      jump\t// in\n    tag_60:\n      mload(0x40)\n      tag_62\n      swap2\n      swap1\n      tag_49\n      jump\t// in\n    tag_62:\n      mload(0x40)\n      dup1\n      swap2\n      sub\n      swap1\n      return\n        /* \"contracts/spurdo.sol\":5615:5965  function transferFrom(... */\n    tag_10:\n      callvalue\n      dup1\n      iszero\n      tag_63\n      jumpi\n      0x00\n      dup1\n      revert\n    tag_63:\n      pop\n      tag_64\n      0x04\n      dup1\n      calldatasize\n      sub\n      dup2\n      add\n      swap1\n      tag_65\n      swap2\n      swap1\n      tag_66\n      jump\t// in\n    tag_65:\n      tag_67\n      jump\t// in\n    tag_64:\n      mload(0x40)\n      tag_68\n      swap2\n      swap1\n      tag_44\n      jump\t// in\n    tag_68:\n      mload(0x40)\n      dup1\n      swap2\n      sub\n      swap1\n      return\n        /* \"contracts/spurdo.sol\":4724:4807  function decimals() public pure returns (uint8) {... */\n    tag_11:\n      callvalue\n      dup1\n      iszero\n      tag_69\n      jumpi\n      0x00\n      dup1\n      revert\n    tag_69:\n      pop\n      tag_70\n      tag_71\n      jump\t// in\n    tag_70:\n      mload(0x40)\n      tag_72\n      swap2\n      swap1\n      tag_73\n      jump\t// in\n    tag_72:\n      mload(0x40)\n      dup1\n      swap2\n      sub\n      swap1\n      return\n        /* \"contracts/spurdo.sol\":11456:11822  function manualSwap() external {... */\n    tag_12:\n      callvalue\n      dup1\n      iszero\n      tag_74\n      jumpi\n      0x00\n      dup1\n      revert\n    tag_74:\n      pop\n      tag_75\n      tag_76\n      jump\t// in\n    tag_75:\n      stop\n        /* \"contracts/spurdo.sol\":4918:5037  function balanceOf(address account) public view override returns (uint256) {... */\n    tag_13:\n      callvalue\n      dup1\n      iszero\n      tag_77\n      jumpi\n      0x00\n      dup1\n      revert\n    tag_77:\n      pop\n      tag_78\n      0x04\n      dup1\n      calldatasize\n      sub\n      dup2\n      add\n      swap1\n      tag_79\n      swap2\n      swap1\n      tag_80\n      jump\t// in\n    tag_79:\n      tag_81\n      jump\t// in\n    tag_78:\n      mload(0x40)\n      tag_82\n      swap2\n      swap1\n      tag_49\n      jump\t// in\n    tag_82:\n      mload(0x40)\n      dup1\n      swap2\n      sub\n      swap1\n      return\n        /* \"contracts/spurdo.sol\":1730:1878  function renounceOwnership() public virtual onlyOwner {... */\n    tag_14:\n      callvalue\n      dup1\n      iszero\n      tag_83\n      jumpi\n      0x00\n      dup1\n      revert\n    tag_83:\n      pop\n      tag_84\n      tag_85\n      jump\t// in\n    tag_84:\n      stop\n        /* \"contracts/spurdo.sol\":10063:10327  function removeLimits() external onlyOwner {... */\n    tag_15:\n      callvalue\n      dup1\n      iszero\n      tag_86\n      jumpi\n      0x00\n      dup1\n      revert\n    tag_86:\n      pop\n      tag_87\n      tag_88\n      jump\t// in\n    tag_87:\n      stop\n        /* \"contracts/spurdo.sol\":3665:3707  uint256 public _maxTxAmount = _tTotal / 50 */\n    tag_16:\n      callvalue\n      dup1\n      iszero\n      tag_89\n      jumpi\n      0x00\n      dup1\n      revert\n    tag_89:\n      pop\n      tag_90\n      tag_91\n      jump\t// in\n    tag_90:\n      mload(0x40)\n      tag_92\n      swap2\n      swap1\n      tag_49\n      jump\t// in\n    tag_92:\n      mload(0x40)\n      dup1\n      swap2\n      sub\n      swap1\n      return\n        /* \"contracts/spurdo.sol\":1516:1595  function owner() public view returns (address) {... */\n    tag_17:\n      callvalue\n      dup1\n      iszero\n      tag_93\n      jumpi\n      0x00\n      dup1\n      revert\n    tag_93:\n      pop\n      tag_94\n      tag_95\n      jump\t// in\n    tag_94:\n      mload(0x40)\n      tag_96\n      swap2\n      swap1\n      tag_97\n      jump\t// in\n    tag_96:\n      mload(0x40)\n      dup1\n      swap2\n      sub\n      swap1\n      return\n        /* \"contracts/spurdo.sol\":3714:3758  uint256 public _maxWalletSize = _tTotal / 50 */\n    tag_18:\n      callvalue\n      dup1\n      iszero\n      tag_98\n      jumpi\n      0x00\n      dup1\n      revert\n    tag_98:\n      pop\n      tag_99\n      tag_100\n      jump\t// in\n    tag_99:\n      mload(0x40)\n      tag_101\n      swap2\n      swap1\n      tag_49\n      jump\t// in\n    tag_101:\n      mload(0x40)\n      dup1\n      swap2\n      sub\n      swap1\n      return\n        /* \"contracts/spurdo.sol\":4629:4716  function symbol() public pure returns (string memory) {... */\n    tag_19:\n      callvalue\n      dup1\n      iszero\n      tag_102\n      jumpi\n      0x00\n      dup1\n      revert\n    tag_102:\n      pop\n      tag_103\n      tag_104\n      jump\t// in\n    tag_103:\n      mload(0x40)\n      tag_105\n      swap2\n      swap1\n      tag_37\n      jump\t// in\n    tag_105:\n      mload(0x40)\n      dup1\n      swap2\n      sub\n      swap1\n      return\n        /* \"contracts/spurdo.sol\":5045:5237  function transfer(... */\n    tag_20:\n      callvalue\n      dup1\n      iszero\n      tag_106\n      jumpi\n      0x00\n      dup1\n      revert\n    tag_106:\n      pop\n      tag_107\n      0x04\n      dup1\n      calldatasize\n      sub\n      dup2\n      add\n      swap1\n      tag_108\n      swap2\n      swap1\n      tag_41\n      jump\t// in\n    tag_108:\n      tag_109\n      jump\t// in\n    tag_107:\n      mload(0x40)\n      tag_110\n      swap2\n      swap1\n      tag_44\n      jump\t// in\n    tag_110:\n      mload(0x40)\n      dup1\n      swap2\n      sub\n      swap1\n      return\n        /* \"contracts/spurdo.sol\":3765:3814  uint256 public _taxSwapThreshold = _tTotal / 1000 */\n    tag_21:\n      callvalue\n      dup1\n      iszero\n      tag_111\n      jumpi\n      0x00\n      dup1\n      revert\n    tag_111:\n      pop\n      tag_112\n      tag_113\n      jump\t// in\n    tag_112:\n      mload(0x40)\n      tag_114\n      swap2\n      swap1\n      tag_49\n      jump\t// in\n    tag_114:\n      mload(0x40)\n      dup1\n      swap2\n      sub\n      swap1\n      return\n        /* \"contracts/spurdo.sol\":3307:3343  uint256 public _reduceSellTaxAt = 45 */\n    tag_22:\n      callvalue\n      dup1\n      iszero\n      tag_115\n      jumpi\n      0x00\n      dup1\n      revert\n    tag_115:\n      pop\n      tag_116\n      tag_117\n      jump\t// in\n    tag_116:\n      mload(0x40)\n      tag_118\n      swap2\n      swap1\n      tag_49\n      jump\t// in\n    tag_118:\n      mload(0x40)\n      dup1\n      swap2\n      sub\n      swap1\n      return\n        /* \"contracts/spurdo.sol\":3011:3051  bool public transferDelayEnabled = false */\n    tag_23:\n      callvalue\n      dup1\n      iszero\n      tag_119\n      jumpi\n      0x00\n      dup1\n      revert\n    tag_119:\n      pop\n      tag_120\n      tag_121\n      jump\t// in\n    tag_120:\n      mload(0x40)\n      tag_122\n      swap2\n      swap1\n      tag_44\n      jump\t// in\n    tag_122:\n      mload(0x40)\n      dup1\n      swap2\n      sub\n      swap1\n      return\n        /* \"contracts/spurdo.sol\":5245:5413  function allowance(... */\n    tag_24:\n      callvalue\n      dup1\n      iszero\n      tag_123\n      jumpi\n      0x00\n      dup1\n      revert\n    tag_123:\n      pop\n      tag_124\n      0x04\n      dup1\n      calldatasize\n      sub\n      dup2\n      add\n      swap1\n      tag_125\n      swap2\n      swap1\n      tag_126\n      jump\t// in\n    tag_125:\n      tag_127\n      jump\t// in\n    tag_124:\n      mload(0x40)\n      tag_128\n      swap2\n      swap1\n      tag_49\n      jump\t// in\n    tag_128:\n      mload(0x40)\n      dup1\n      swap2\n      sub\n      swap1\n      return\n        /* \"contracts/spurdo.sol\":10591:11411  function Launch() external onlyOwner {... */\n    tag_32:\n        /* \"contracts/spurdo.sol\":1653:1665  _msgSender() */\n      tag_130\n        /* \"contracts/spurdo.sol\":1653:1663  _msgSender */\n      tag_131\n        /* \"contracts/spurdo.sol\":1653:1665  _msgSender() */\n      jump\t// in\n    tag_130:\n        /* \"contracts/spurdo.sol\":1643:1665  _owner == _msgSender() */\n      0xffffffffffffffffffffffffffffffffffffffff\n      and\n        /* \"contracts/spurdo.sol\":1643:1649  _owner */\n      0x00\n      dup1\n      sload\n      swap1\n      0x0100\n      exp\n      swap1\n      div\n      0xffffffffffffffffffffffffffffffffffffffff\n      and\n        /* \"contracts/spurdo.sol\":1643:1665  _owner == _msgSender() */\n      0xffffffffffffffffffffffffffffffffffffffff\n      and\n      eq\n        /* \"contracts/spurdo.sol\":1635:1702  require(_owner == _msgSender(), \"Ownable: caller is not the owner\") */\n      tag_132\n      jumpi\n      mload(0x40)\n      0x08c379a000000000000000000000000000000000000000000000000000000000\n      dup2\n      mstore\n      0x04\n      add\n      tag_133\n      swap1\n      tag_134\n      jump\t// in\n    tag_133:\n      mload(0x40)\n      dup1\n      swap2\n      sub\n      swap1\n      revert\n    tag_132:\n        /* \"contracts/spurdo.sol\":10648:10659  tradingOpen */\n      0x13\n      0x14\n      swap1\n      sload\n      swap1\n      0x0100\n      exp\n      swap1\n      div\n      0xff\n      and\n        /* \"contracts/spurdo.sol\":10647:10659  !tradingOpen */\n      iszero\n        /* \"contracts/spurdo.sol\":10639:10687  require(!tradingOpen, \"trading is already open\") */\n      tag_136\n      jumpi\n      mload(0x40)\n      0x08c379a000000000000000000000000000000000000000000000000000000000\n      dup2\n      mstore\n      0x04\n      add\n      tag_137\n      swap1\n      tag_138\n      jump\t// in\n    tag_137:\n      mload(0x40)\n      dup1\n      swap2\n      sub\n      swap1\n      revert\n    tag_136:\n        /* \"contracts/spurdo.sol\":10749:10791  0x7a250d5630B4cF539739dF2C5dAcb4c659F2488D */\n      0x7a250d5630b4cf539739df2c5dacb4c659f2488d\n        /* \"contracts/spurdo.sol\":10698:10713  uniswapV2Router */\n      0x12\n      0x00\n        /* \"contracts/spurdo.sol\":10698:10802  uniswapV2Router = IUniswapV2Router02(... */\n      0x0100\n      exp\n      dup2\n      sload\n      dup2\n      0xffffffffffffffffffffffffffffffffffffffff\n      mul\n      not\n      and\n      swap1\n      dup4\n      0xffffffffffffffffffffffffffffffffffffffff\n      and\n      mul\n      or\n      swap1\n      sstore\n      pop\n        /* \"contracts/spurdo.sol\":10813:10871  _approve(address(this), address(uniswapV2Router), _tTotal) */\n      tag_139\n        /* \"contracts/spurdo.sol\":10830:10834  this */\n      address\n        /* \"contracts/spurdo.sol\":10845:10860  uniswapV2Router */\n      0x12\n      0x00\n      swap1\n      sload\n      swap1\n      0x0100\n      exp\n      swap1\n      div\n      0xffffffffffffffffffffffffffffffffffffffff\n      and\n        /* \"contracts/spurdo.sol\":3469:3470  8 */\n      0x08\n        /* \"contracts/spurdo.sol\":3533:3535  10 */\n      0x0a\n        /* \"contracts/spurdo.sol\":3533:3548  10 ** _decimals */\n      tag_140\n      swap2\n      swap1\n      tag_141\n      jump\t// in\n    tag_140:\n        /* \"contracts/spurdo.sol\":3512:3530  69_000_000_000_000 */\n      0x3ec1507d5000\n        /* \"contracts/spurdo.sol\":3512:3548  69_000_000_000_000 * 10 ** _decimals */\n      tag_142\n      swap2\n      swap1\n      tag_143\n      jump\t// in\n    tag_142:\n        /* \"contracts/spurdo.sol\":10813:10821  _approve */\n      tag_144\n        /* \"contracts/spurdo.sol\":10813:10871  _approve(address(this), address(uniswapV2Router), _tTotal) */\n      jump\t// in\n    tag_139:\n        /* \"contracts/spurdo.sol\":10916:10931  uniswapV2Router */\n      0x12\n      0x00\n      swap1\n      sload\n      swap1\n      0x0100\n      exp\n      swap1\n      div\n      0xffffffffffffffffffffffffffffffffffffffff\n      and\n        /* \"contracts/spurdo.sol\":10916:10939  uniswapV2Router.factory */\n      0xffffffffffffffffffffffffffffffffffffffff\n      and\n      0xc45a0155\n        /* \"contracts/spurdo.sol\":10916:10941  uniswapV2Router.factory() */\n      mload(0x40)\n      dup2\n      0xffffffff\n      and\n      0xe0\n      shl\n      dup2\n      mstore\n      0x04\n      add\n      0x20\n      mload(0x40)\n      dup1\n      dup4\n      sub\n      dup2\n      dup7\n      gas\n      staticcall\n      iszero\n      dup1\n      iszero\n      tag_146\n      jumpi\n      returndatasize\n      0x00\n      dup1\n      returndatacopy\n      revert(0x00, returndatasize)\n    tag_146:\n      pop\n      pop\n      pop\n      pop\n      mload(0x40)\n      returndatasize\n      not(0x1f)\n      0x1f\n      dup3\n      add\n      and\n      dup3\n      add\n      dup1\n      0x40\n      mstore\n      pop\n      dup2\n      add\n      swap1\n      tag_147\n      swap2\n      swap1\n      tag_148\n      jump\t// in\n    tag_147:\n        /* \"contracts/spurdo.sol\":10898:10953  IUniswapV2Factory(uniswapV2Router.factory()).createPair */\n      0xffffffffffffffffffffffffffffffffffffffff\n      and\n      0xc9c65396\n        /* \"contracts/spurdo.sol\":10976:10980  this */\n      address\n        /* \"contracts/spurdo.sol\":10996:11011  uniswapV2Router */\n      0x12\n      0x00\n      swap1\n      sload\n      swap1\n      0x0100\n      exp\n      swap1\n      div\n      0xffffffffffffffffffffffffffffffffffffffff\n      and\n        /* \"contracts/spurdo.sol\":10996:11016  uniswapV2Router.WETH */\n      0xffffffffffffffffffffffffffffffffffffffff\n      and\n      0xad5c4648\n        /* \"contracts/spurdo.sol\":10996:11018  uniswapV2Router.WETH() */\n      mload(0x40)\n      dup2\n      0xffffffff\n      and\n      0xe0\n      shl\n      dup2\n      mstore\n      0x04\n      add\n      0x20\n      mload(0x40)\n      dup1\n      dup4\n      sub\n      dup2\n      dup7\n      gas\n      staticcall\n      iszero\n      dup1\n      iszero\n      tag_150\n      jumpi\n      returndatasize\n      0x00\n      dup1\n      returndatacopy\n      revert(0x00, returndatasize)\n    tag_150:\n      pop\n      pop\n      pop\n      pop\n      mload(0x40)\n      returndatasize\n      not(0x1f)\n      0x1f\n      dup3\n      add\n      and\n      dup3\n      add\n      dup1\n      0x40\n      mstore\n      pop\n      dup2\n      add\n      swap1\n      tag_151\n      swap2\n      swap1\n      tag_148\n      jump\t// in\n    tag_151:\n        /* \"contracts/spurdo.sol\":10898:11029  IUniswapV2Factory(uniswapV2Router.factory()).createPair(... */\n      mload(0x40)\n      dup4\n      0xffffffff\n      and\n      0xe0\n      shl\n      dup2\n      mstore\n      0x04\n      add\n      tag_152\n      swap3\n      swap2\n      swap1\n      tag_153\n      jump\t// in\n    tag_152:\n      0x20\n      mload(0x40)\n      dup1\n      dup4\n      sub\n      dup2\n      0x00\n      dup8\n      gas\n      call\n      iszero\n      dup1\n      iszero\n      tag_155\n      jumpi\n      returndatasize\n      0x00\n      dup1\n      returndatacopy\n      revert(0x00, returndatasize)\n    tag_155:\n      pop\n      pop\n      pop\n      pop\n      mload(0x40)\n      returndatasize\n      not(0x1f)\n      0x1f\n      dup3\n      add\n      and\n      dup3\n      add\n      dup1\n      0x40\n      mstore\n      pop\n      dup2\n      add\n      swap1\n      tag_156\n      swap2\n      swap1\n      tag_148\n      jump\t// in\n    tag_156:\n        /* \"contracts/spurdo.sol\":10882:10895  uniswapV2Pair */\n      0x13\n      0x00\n        /* \"contracts/spurdo.sol\":10882:11029  uniswapV2Pair = IUniswapV2Factory(uniswapV2Router.factory()).createPair(... */\n      0x0100\n      exp\n      dup2\n      sload\n      dup2\n      0xffffffffffffffffffffffffffffffffffffffff\n      mul\n      not\n      and\n      swap1\n      dup4\n      0xffffffffffffffffffffffffffffffffffffffff\n      and\n      mul\n      or\n      swap1\n      sstore\n      pop\n        /* \"contracts/spurdo.sol\":11040:11055  uniswapV2Router */\n      0x12\n      0x00\n      swap1\n      sload\n      swap1\n      0x0100\n      exp\n      swap1\n      div\n      0xffffffffffffffffffffffffffffffffffffffff\n      and\n        /* \"contracts/spurdo.sol\":11040:11071  uniswapV2Router.addLiquidityETH */\n      0xffffffffffffffffffffffffffffffffffffffff\n      and\n      0xf305d719\n        /* \"contracts/spurdo.sol\":11079:11100  address(this).balance */\n      selfbalance\n        /* \"contracts/spurdo.sol\":11124:11128  this */\n      address\n        /* \"contracts/spurdo.sol\":11144:11168  balanceOf(address(this)) */\n      tag_157\n        /* \"contracts/spurdo.sol\":11162:11166  this */\n      address\n        /* \"contracts/spurdo.sol\":11144:11153  balanceOf */\n      tag_81\n        /* \"contracts/spurdo.sol\":11144:11168  balanceOf(address(this)) */\n      jump\t// in\n    tag_157:\n        /* \"contracts/spurdo.sol\":11183:11184  0 */\n      0x00\n        /* \"contracts/spurdo.sol\":11199:11200  0 */\n      dup1\n        /* \"contracts/spurdo.sol\":11215:11222  owner() */\n      tag_158\n        /* \"contracts/spurdo.sol\":11215:11220  owner */\n      tag_95\n        /* \"contracts/spurdo.sol\":11215:11222  owner() */\n      jump\t// in\n    tag_158:\n        /* \"contracts/spurdo.sol\":11237:11252  block.timestamp */\n      timestamp\n        /* \"contracts/spurdo.sol\":11040:11263  uniswapV2Router.addLiquidityETH{value: address(this).balance}(... */\n      mload(0x40)\n      dup9\n      0xffffffff\n      and\n      0xe0\n      shl\n      dup2\n      mstore\n      0x04\n      add\n      tag_159\n      swap7\n      swap6\n      swap5\n      swap4\n      swap3\n      swap2\n      swap1\n      tag_160\n      jump\t// in\n    tag_159:\n      0x60\n      mload(0x40)\n      dup1\n      dup4\n      sub\n      dup2\n      dup6\n      dup9\n      gas\n      call\n      iszero\n      dup1\n      iszero\n      tag_162\n      jumpi\n      returndatasize\n      0x00\n      dup1\n      returndatacopy\n      revert(0x00, returndatasize)\n    tag_162:\n      pop\n      pop\n      pop\n      pop\n      pop\n      mload(0x40)\n      returndatasize\n      not(0x1f)\n      0x1f\n      dup3\n      add\n      and\n      dup3\n      add\n      dup1\n      0x40\n      mstore\n      pop\n      dup2\n      add\n      swap1\n      tag_163\n      swap2\n      swap1\n      tag_164\n      jump\t// in\n    tag_163:\n      pop\n      pop\n      pop\n        /* \"contracts/spurdo.sol\":11281:11294  uniswapV2Pair */\n      0x13\n      0x00\n      swap1\n      sload\n      swap1\n      0x0100\n      exp\n      swap1\n      div\n      0xffffffffffffffffffffffffffffffffffffffff\n      and\n        /* \"contracts/spurdo.sol\":11274:11303  IERC20(uniswapV2Pair).approve */\n      0xffffffffffffffffffffffffffffffffffffffff\n      and\n      0x095ea7b3\n        /* \"contracts/spurdo.sol\":11312:11327  uniswapV2Router */\n      0x12\n      0x00\n      swap1\n      sload\n      swap1\n      0x0100\n      exp\n      swap1\n      div\n      0xffffffffffffffffffffffffffffffffffffffff\n      and\n        /* \"contracts/spurdo.sol\":11330:11344  type(uint).max */\n      0xffffffffffffffffffffffffffffffffffffffffffffffffffffffffffffffff\n        /* \"contracts/spurdo.sol\":11274:11345  IERC20(uniswapV2Pair).approve(address(uniswapV2Router), type(uint).max) */\n      mload(0x40)\n      dup4\n      0xffffffff\n      and\n      0xe0\n      shl\n      dup2\n      mstore\n      0x04\n      add\n      tag_165\n      swap3\n      swap2\n      swap1\n      tag_166\n      jump\t// in\n    tag_165:\n      0x20\n      mload(0x40)\n      dup1\n      dup4\n      sub\n      dup2\n      0x00\n      dup8\n      gas\n      call\n      iszero\n      dup1\n      iszero\n      tag_168\n      jumpi\n      returndatasize\n      0x00\n      dup1\n      returndatacopy\n      revert(0x00, returndatasize)\n    tag_168:\n      pop\n      pop\n      pop\n      pop\n      mload(0x40)\n      returndatasize\n      not(0x1f)\n      0x1f\n      dup3\n      add\n      and\n      dup3\n      add\n      dup1\n      0x40\n      mstore\n      pop\n      dup2\n      add\n      swap1\n      tag_169\n      swap2\n      swap1\n      tag_170\n      jump\t// in\n    tag_169:\n      pop\n        /* \"contracts/spurdo.sol\":11370:11374  true */\n      0x01\n        /* \"contracts/spurdo.sol\":11356:11367  swapEnabled */\n      0x13\n      0x16\n        /* \"contracts/spurdo.sol\":11356:11374  swapEnabled = true */\n      0x0100\n      exp\n      dup2\n      sload\n      dup2\n      0xff\n      mul\n      not\n      and\n      swap1\n      dup4\n      iszero\n      iszero\n      mul\n      or\n      swap1\n      sstore\n      pop\n        /* \"contracts/spurdo.sol\":11399:11403  true */\n      0x01\n        /* \"contracts/spurdo.sol\":11385:11396  tradingOpen */\n      0x13\n      0x14\n        /* \"contracts/spurdo.sol\":11385:11403  tradingOpen = true */\n      0x0100\n      exp\n      dup2\n      sload\n      dup2\n      0xff\n      mul\n      not\n      and\n      swap1\n      dup4\n      iszero\n      iszero\n      mul\n      or\n      swap1\n      sstore\n      pop\n        /* \"contracts/spurdo.sol\":10591:11411  function Launch() external onlyOwner {... */\n      jump\t// out\n        /* \"contracts/spurdo.sol\":4538:4621  function name() public pure returns (string memory) {... */\n    tag_35:\n        /* \"contracts/spurdo.sol\":4575:4588  string memory */\n      0x60\n        /* \"contracts/spurdo.sol\":4608:4613  _name */\n      mload(0x40)\n      dup1\n      0x40\n      add\n      0x40\n      mstore\n      dup1\n      0x06\n      dup2\n      mstore\n      0x20\n      add\n      0x73707572646f0000000000000000000000000000000000000000000000000000\n      dup2\n      mstore\n      pop\n        /* \"contracts/spurdo.sol\":4601:4613  return _name */\n      swap1\n      pop\n        /* \"contracts/spurdo.sol\":4538:4621  function name() public pure returns (string memory) {... */\n      swap1\n      jump\t// out\n        /* \"contracts/spurdo.sol\":5421:5607  function approve(... */\n    tag_42:\n        /* \"contracts/spurdo.sol\":5521:5525  bool */\n      0x00\n        /* \"contracts/spurdo.sol\":5538:5577  _approve(_msgSender(), spender, amount) */\n      tag_173\n        /* \"contracts/spurdo.sol\":5547:5559  _msgSender() */\n      tag_174\n        /* \"contracts/spurdo.sol\":5547:5557  _msgSender */\n      tag_131\n        /* \"contracts/spurdo.sol\":5547:5559  _msgSender() */\n      jump\t// in\n    tag_174:\n        /* \"contracts/spurdo.sol\":5561:5568  spender */\n      dup5\n        /* \"contracts/spurdo.sol\":5570:5576  amount */\n      dup5\n        /* \"contracts/spurdo.sol\":5538:5546  _approve */\n      tag_144\n        /* \"contracts/spurdo.sol\":5538:5577  _approve(_msgSender(), spender, amount) */\n      jump\t// in\n    tag_173:\n        /* \"contracts/spurdo.sol\":5595:5599  true */\n      0x01\n        /* \"contracts/spurdo.sol\":5588:5599  return true */\n      swap1\n      pop\n        /* \"contracts/spurdo.sol\":5421:5607  function approve(... */\n      swap3\n      swap2\n      pop\n      pop\n      jump\t// out\n        /* \"contracts/spurdo.sol\":3265:3300  uint256 public _reduceBuyTaxAt = 30 */\n    tag_47:\n      sload(0x0a)\n      dup2\n      jump\t// out\n        /* \"contracts/spurdo.sol\":10435:10583  function changeSwapAmount(uint256 amount) external onlyOwner {... */\n    tag_54:\n        /* \"contracts/spurdo.sol\":1653:1665  _msgSender() */\n      tag_176\n        /* \"contracts/spurdo.sol\":1653:1663  _msgSender */\n      tag_131\n        /* \"contracts/spurdo.sol\":1653:1665  _msgSender() */\n      jump\t// in\n    tag_176:\n        /* \"contracts/spurdo.sol\":1643:1665  _owner == _msgSender() */\n      0xffffffffffffffffffffffffffffffffffffffff\n      and\n        /* \"contracts/spurdo.sol\":1643:1649  _owner */\n      0x00\n      dup1\n      sload\n      swap1\n      0x0100\n      exp\n      swap1\n      div\n      0xffffffffffffffffffffffffffffffffffffffff\n      and\n        /* \"contracts/spurdo.sol\":1643:1665  _owner == _msgSender() */\n      0xffffffffffffffffffffffffffffffffffffffff\n      and\n      eq\n        /* \"contracts/spurdo.sol\":1635:1702  require(_owner == _msgSender(), \"Ownable: caller is not the owner\") */\n      tag_177\n      jumpi\n      mload(0x40)\n      0x08c379a000000000000000000000000000000000000000000000000000000000\n      dup2\n      mstore\n      0x04\n      add\n      tag_178\n      swap1\n      tag_134\n      jump\t// in\n    tag_178:\n      mload(0x40)\n      dup1\n      swap2\n      sub\n      swap1\n      revert\n    tag_177:\n        /* \"contracts/spurdo.sol\":10530:10533  1e8 */\n      0x05f5e100\n        /* \"contracts/spurdo.sol\":10521:10527  amount */\n      dup2\n        /* \"contracts/spurdo.sol\":10521:10533  amount * 1e8 */\n      tag_180\n      swap2\n      swap1\n      tag_143\n      jump\t// in\n    tag_180:\n        /* \"contracts/spurdo.sol\":10507:10518  _maxTaxSwap */\n      0x11\n        /* \"contracts/spurdo.sol\":10507:10533  _maxTaxSwap = amount * 1e8 */\n      dup2\n      swap1\n      sstore\n      pop\n        /* \"contracts/spurdo.sol\":10564:10575  _maxTaxSwap */\n      sload(0x11)\n        /* \"contracts/spurdo.sol\":10544:10561  _taxSwapThreshold */\n      0x10\n        /* \"contracts/spurdo.sol\":10544:10575  _taxSwapThreshold = _maxTaxSwap */\n      dup2\n      swap1\n      sstore\n      pop\n        /* \"contracts/spurdo.sol\":10435:10583  function changeSwapAmount(uint256 amount) external onlyOwner {... */\n      pop\n      jump\t// out\n        /* \"contracts/spurdo.sol\":3821:3864  uint256 public _maxTaxSwap = _tTotal / 1000 */\n    tag_57:\n      sload(0x11)\n      dup2\n      jump\t// out\n        /* \"contracts/spurdo.sol\":4815:4910  function totalSupply() public pure override returns (uint256) {... */\n    tag_61:\n        /* \"contracts/spurdo.sol\":4868:4875  uint256 */\n      0x00\n        /* \"contracts/spurdo.sol\":3469:3470  8 */\n      0x08\n        /* \"contracts/spurdo.sol\":3533:3535  10 */\n      0x0a\n        /* \"contracts/spurdo.sol\":3533:3548  10 ** _decimals */\n      tag_182\n      swap2\n      swap1\n      tag_141\n      jump\t// in\n    tag_182:\n        /* \"contracts/spurdo.sol\":3512:3530  69_000_000_000_000 */\n      0x3ec1507d5000\n        /* \"contracts/spurdo.sol\":3512:3548  69_000_000_000_000 * 10 ** _decimals */\n      tag_183\n      swap2\n      swap1\n      tag_143\n      jump\t// in\n    tag_183:\n        /* \"contracts/spurdo.sol\":4888:4902  return _tTotal */\n      swap1\n      pop\n        /* \"contracts/spurdo.sol\":4815:4910  function totalSupply() public pure override returns (uint256) {... */\n      swap1\n      jump\t// out\n        /* \"contracts/spurdo.sol\":5615:5965  function transferFrom(... */\n    tag_67:\n        /* \"contracts/spurdo.sol\":5747:5751  bool */\n      0x00\n        /* \"contracts/spurdo.sol\":5764:5800  _transfer(sender, recipient, amount) */\n      tag_185\n        /* \"contracts/spurdo.sol\":5774:5780  sender */\n      dup5\n        /* \"contracts/spurdo.sol\":5782:5791  recipient */\n      dup5\n        /* \"contracts/spurdo.sol\":5793:5799  amount */\n      dup5\n        /* \"contracts/spurdo.sol\":5764:5773  _transfer */\n      tag_186\n        /* \"contracts/spurdo.sol\":5764:5800  _transfer(sender, recipient, amount) */\n      jump\t// in\n    tag_185:\n        /* \"contracts/spurdo.sol\":5811:5935  _approve(... */\n      tag_187\n        /* \"contracts/spurdo.sol\":5834:5840  sender */\n      dup5\n        /* \"contracts/spurdo.sol\":5855:5867  _msgSender() */\n      tag_188\n        /* \"contracts/spurdo.sol\":5855:5865  _msgSender */\n      tag_131\n        /* \"contracts/spurdo.sol\":5855:5867  _msgSender() */\n      jump\t// in\n    tag_188:\n        /* \"contracts/spurdo.sol\":5918:5924  amount */\n      dup5\n        /* \"contracts/spurdo.sol\":5882:5893  _allowances */\n      0x02\n        /* \"contracts/spurdo.sol\":5882:5901  _allowances[sender] */\n      0x00\n        /* \"contracts/spurdo.sol\":5894:5900  sender */\n      dup10\n        /* \"contracts/spurdo.sol\":5882:5901  _allowances[sender] */\n      0xffffffffffffffffffffffffffffffffffffffff\n      and\n      0xffffffffffffffffffffffffffffffffffffffff\n      and\n      dup2\n      mstore\n      0x20\n      add\n      swap1\n      dup2\n      mstore\n      0x20\n      add\n      0x00\n      keccak256\n        /* \"contracts/spurdo.sol\":5882:5915  _allowances[sender][_msgSender()] */\n      0x00\n        /* \"contracts/spurdo.sol\":5902:5914  _msgSender() */\n      tag_189\n        /* \"contracts/spurdo.sol\":5902:5912  _msgSender */\n      tag_131\n        /* \"contracts/spurdo.sol\":5902:5914  _msgSender() */\n      jump\t// in\n    tag_189:\n        /* \"contracts/spurdo.sol\":5882:5915  _allowances[sender][_msgSender()] */\n      0xffffffffffffffffffffffffffffffffffffffff\n      and\n      0xffffffffffffffffffffffffffffffffffffffff\n      and\n      dup2\n      mstore\n      0x20\n      add\n      swap1\n      dup2\n      mstore\n      0x20\n      add\n      0x00\n      keccak256\n      sload\n        /* \"contracts/spurdo.sol\":5882:5924  _allowances[sender][_msgSender()] - amount */\n      tag_190\n      swap2\n      swap1\n      tag_191\n      jump\t// in\n    tag_190:\n        /* \"contracts/spurdo.sol\":5811:5819  _approve */\n      tag_144\n        /* \"contracts/spurdo.sol\":5811:5935  _approve(... */\n      jump\t// in\n    tag_187:\n        /* \"contracts/spurdo.sol\":5953:5957  true */\n      0x01\n        /* \"contracts/spurdo.sol\":5946:5957  return true */\n      swap1\n      pop\n        /* \"contracts/spurdo.sol\":5615:5965  function transferFrom(... */\n      swap4\n      swap3\n      pop\n      pop\n      pop\n      jump\t// out\n        /* \"contracts/spurdo.sol\":4724:4807  function decimals() public pure returns (uint8) {... */\n    tag_71:\n        /* \"contracts/spurdo.sol\":4765:4770  uint8 */\n      0x00\n        /* \"contracts/spurdo.sol\":3469:3470  8 */\n      0x08\n        /* \"contracts/spurdo.sol\":4783:4799  return _decimals */\n      swap1\n      pop\n        /* \"contracts/spurdo.sol\":4724:4807  function decimals() public pure returns (uint8) {... */\n      swap1\n      jump\t// out\n        /* \"contracts/spurdo.sol\":11456:11822  function manualSwap() external {... */\n    tag_76:\n        /* \"contracts/spurdo.sol\":11522:11532  _taxWallet */\n      0x05\n      0x01\n      swap1\n      sload\n      swap1\n      0x0100\n      exp\n      swap1\n      div\n      0xffffffffffffffffffffffffffffffffffffffff\n      and\n        /* \"contracts/spurdo.sol\":11506:11532  _msgSender() == _taxWallet */\n      0xffffffffffffffffffffffffffffffffffffffff\n      and\n        /* \"contracts/spurdo.sol\":11506:11518  _msgSender() */\n      tag_194\n        /* \"contracts/spurdo.sol\":11506:11516  _msgSender */\n      tag_131\n        /* \"contracts/spurdo.sol\":11506:11518  _msgSender() */\n      jump\t// in\n    tag_194:\n        /* \"contracts/spurdo.sol\":11506:11532  _msgSender() == _taxWallet */\n      0xffffffffffffffffffffffffffffffffffffffff\n      and\n      eq\n        /* \"contracts/spurdo.sol\":11498:11533  require(_msgSender() == _taxWallet) */\n      tag_195\n      jumpi\n      0x00\n      dup1\n      revert\n    tag_195:\n        /* \"contracts/spurdo.sol\":11544:11564  uint256 tokenBalance */\n      0x00\n        /* \"contracts/spurdo.sol\":11567:11591  balanceOf(address(this)) */\n      tag_196\n        /* \"contracts/spurdo.sol\":11585:11589  this */\n      address\n        /* \"contracts/spurdo.sol\":11567:11576  balanceOf */\n      tag_81\n        /* \"contracts/spurdo.sol\":11567:11591  balanceOf(address(this)) */\n      jump\t// in\n    tag_196:\n        /* \"contracts/spurdo.sol\":11544:11591  uint256 tokenBalance = balanceOf(address(this)) */\n      swap1\n      pop\n        /* \"contracts/spurdo.sol\":11621:11622  0 */\n      0x00\n        /* \"contracts/spurdo.sol\":11606:11618  tokenBalance */\n      dup2\n        /* \"contracts/spurdo.sol\":11606:11622  tokenBalance > 0 */\n      gt\n        /* \"contracts/spurdo.sol\":11602:11681  if (tokenBalance > 0) {... */\n      iszero\n      tag_197\n      jumpi\n        /* \"contracts/spurdo.sol\":11639:11669  swapTokensForEth(tokenBalance) */\n      tag_198\n        /* \"contracts/spurdo.sol\":11656:11668  tokenBalance */\n      dup2\n        /* \"contracts/spurdo.sol\":11639:11655  swapTokensForEth */\n      tag_199\n        /* \"contracts/spurdo.sol\":11639:11669  swapTokensForEth(tokenBalance) */\n      jump\t// in\n    tag_198:\n        /* \"contracts/spurdo.sol\":11602:11681  if (tokenBalance > 0) {... */\n    tag_197:\n        /* \"contracts/spurdo.sol\":11691:11709  uint256 ethBalance */\n      0x00\n        /* \"contracts/spurdo.sol\":11712:11733  address(this).balance */\n      selfbalance\n        /* \"contracts/spurdo.sol\":11691:11733  uint256 ethBalance = address(this).balance */\n      swap1\n      pop\n        /* \"contracts/spurdo.sol\":11761:11762  0 */\n      0x00\n        /* \"contracts/spurdo.sol\":11748:11758  ethBalance */\n      dup2\n        /* \"contracts/spurdo.sol\":11748:11762  ethBalance > 0 */\n      gt\n        /* \"contracts/spurdo.sol\":11744:11815  if (ethBalance > 0) {... */\n      iszero\n      tag_200\n      jumpi\n        /* \"contracts/spurdo.sol\":11779:11803  sendETHToFee(ethBalance) */\n      tag_201\n        /* \"contracts/spurdo.sol\":11792:11802  ethBalance */\n      dup2\n        /* \"contracts/spurdo.sol\":11779:11791  sendETHToFee */\n      tag_202\n        /* \"contracts/spurdo.sol\":11779:11803  sendETHToFee(ethBalance) */\n      jump\t// in\n    tag_201:\n        /* \"contracts/spurdo.sol\":11744:11815  if (ethBalance > 0) {... */\n    tag_200:\n        /* \"contracts/spurdo.sol\":11487:11822  {... */\n      pop\n      pop\n        /* \"contracts/spurdo.sol\":11456:11822  function manualSwap() external {... */\n      jump\t// out\n        /* \"contracts/spurdo.sol\":4918:5037  function balanceOf(address account) public view override returns (uint256) {... */\n    tag_81:\n        /* \"contracts/spurdo.sol\":4984:4991  uint256 */\n      0x00\n        /* \"contracts/spurdo.sol\":5011:5020  _balances */\n      0x01\n        /* \"contracts/spurdo.sol\":5011:5029  _balances[account] */\n      0x00\n        /* \"contracts/spurdo.sol\":5021:5028  account */\n      dup4\n        /* \"contracts/spurdo.sol\":5011:5029  _balances[account] */\n      0xffffffffffffffffffffffffffffffffffffffff\n      and\n      0xffffffffffffffffffffffffffffffffffffffff\n      and\n      dup2\n      mstore\n      0x20\n      add\n      swap1\n      dup2\n      mstore\n      0x20\n      add\n      0x00\n      keccak256\n      sload\n        /* \"contracts/spurdo.sol\":5004:5029  return _balances[account] */\n      swap1\n      pop\n        /* \"contracts/spurdo.sol\":4918:5037  function balanceOf(address account) public view override returns (uint256) {... */\n      swap2\n      swap1\n      pop\n      jump\t// out\n        /* \"contracts/spurdo.sol\":1730:1878  function renounceOwnership() public virtual onlyOwner {... */\n    tag_85:\n        /* \"contracts/spurdo.sol\":1653:1665  _msgSender() */\n      tag_205\n        /* \"contracts/spurdo.sol\":1653:1663  _msgSender */\n      tag_131\n        /* \"contracts/spurdo.sol\":1653:1665  _msgSender() */\n      jump\t// in\n    tag_205:\n        /* \"contracts/spurdo.sol\":1643:1665  _owner == _msgSender() */\n      0xffffffffffffffffffffffffffffffffffffffff\n      and\n        /* \"contracts/spurdo.sol\":1643:1649  _owner */\n      0x00\n      dup1\n      sload\n      swap1\n      0x0100\n      exp\n      swap1\n      div\n      0xffffffffffffffffffffffffffffffffffffffff\n      and\n        /* \"contracts/spurdo.sol\":1643:1665  _owner == _msgSender() */\n      0xffffffffffffffffffffffffffffffffffffffff\n      and\n      eq\n        /* \"contracts/spurdo.sol\":1635:1702  require(_owner == _msgSender(), \"Ownable: caller is not the owner\") */\n      tag_206\n      jumpi\n      mload(0x40)\n      0x08c379a000000000000000000000000000000000000000000000000000000000\n      dup2\n      mstore\n      0x04\n      add\n      tag_207\n      swap1\n      tag_134\n      jump\t// in\n    tag_207:\n      mload(0x40)\n      dup1\n      swap2\n      sub\n      swap1\n      revert\n    tag_206:\n        /* \"contracts/spurdo.sol\":1837:1838  0 */\n      0x00\n        /* \"contracts/spurdo.sol\":1800:1840  OwnershipTransferred(_owner, address(0)) */\n      0xffffffffffffffffffffffffffffffffffffffff\n      and\n        /* \"contracts/spurdo.sol\":1821:1827  _owner */\n      0x00\n      dup1\n      sload\n      swap1\n      0x0100\n      exp\n      swap1\n      div\n      0xffffffffffffffffffffffffffffffffffffffff\n      and\n        /* \"contracts/spurdo.sol\":1800:1840  OwnershipTransferred(_owner, address(0)) */\n      0xffffffffffffffffffffffffffffffffffffffff\n      and\n      0x8be0079c531659141344cd1fd0a4f28419497f9722a3daafe3b4186f6b6457e0\n      mload(0x40)\n      mload(0x40)\n      dup1\n      swap2\n      sub\n      swap1\n      log3\n        /* \"contracts/spurdo.sol\":1868:1869  0 */\n      0x00\n        /* \"contracts/spurdo.sol\":1851:1857  _owner */\n      dup1\n      0x00\n        /* \"contracts/spurdo.sol\":1851:1870  _owner = address(0) */\n      0x0100\n      exp\n      dup2\n      sload\n      dup2\n      0xffffffffffffffffffffffffffffffffffffffff\n      mul\n      not\n      and\n      swap1\n      dup4\n      0xffffffffffffffffffffffffffffffffffffffff\n      and\n      mul\n      or\n      swap1\n      sstore\n      pop\n        /* \"contracts/spurdo.sol\":1730:1878  function renounceOwnership() public virtual onlyOwner {... */\n      jump\t// out\n        /* \"contracts/spurdo.sol\":10063:10327  function removeLimits() external onlyOwner {... */\n    tag_88:\n        /* \"contracts/spurdo.sol\":1653:1665  _msgSender() */\n      tag_210\n        /* \"contracts/spurdo.sol\":1653:1663  _msgSender */\n      tag_131\n        /* \"contracts/spurdo.sol\":1653:1665  _msgSender() */\n      jump\t// in\n    tag_210:\n        /* \"contracts/spurdo.sol\":1643:1665  _owner == _msgSender() */\n      0xffffffffffffffffffffffffffffffffffffffff\n      and\n        /* \"contracts/spurdo.sol\":1643:1649  _owner */\n      0x00\n      dup1\n      sload\n      swap1\n      0x0100\n      exp\n      swap1\n      div\n      0xffffffffffffffffffffffffffffffffffffffff\n      and\n        /* \"contracts/spurdo.sol\":1643:1665  _owner == _msgSender() */\n      0xffffffffffffffffffffffffffffffffffffffff\n      and\n      eq\n        /* \"contracts/spurdo.sol\":1635:1702  require(_owner == _msgSender(), \"Ownable: caller is not the owner\") */\n      tag_211\n      jumpi\n      mload(0x40)\n      0x08c379a000000000000000000000000000000000000000000000000000000000\n      dup2\n      mstore\n      0x04\n      add\n      tag_212\n      swap1\n      tag_134\n      jump\t// in\n    tag_212:\n      mload(0x40)\n      dup1\n      swap2\n      sub\n      swap1\n      revert\n    tag_211:\n        /* \"contracts/spurdo.sol\":3469:3470  8 */\n      0x08\n        /* \"contracts/spurdo.sol\":3533:3535  10 */\n      0x0a\n        /* \"contracts/spurdo.sol\":3533:3548  10 ** _decimals */\n      tag_214\n      swap2\n      swap1\n      tag_141\n      jump\t// in\n    tag_214:\n        /* \"contracts/spurdo.sol\":3512:3530  69_000_000_000_000 */\n      0x3ec1507d5000\n        /* \"contracts/spurdo.sol\":3512:3548  69_000_000_000_000 * 10 ** _decimals */\n      tag_215\n      swap2\n      swap1\n      tag_143\n      jump\t// in\n    tag_215:\n        /* \"contracts/spurdo.sol\":10117:10129  _maxTxAmount */\n      0x0e\n        /* \"contracts/spurdo.sol\":10117:10139  _maxTxAmount = _tTotal */\n      dup2\n      swap1\n      sstore\n      pop\n        /* \"contracts/spurdo.sol\":3469:3470  8 */\n      0x08\n        /* \"contracts/spurdo.sol\":3533:3535  10 */\n      0x0a\n        /* \"contracts/spurdo.sol\":3533:3548  10 ** _decimals */\n      tag_216\n      swap2\n      swap1\n      tag_141\n      jump\t// in\n    tag_216:\n        /* \"contracts/spurdo.sol\":3512:3530  69_000_000_000_000 */\n      0x3ec1507d5000\n        /* \"contracts/spurdo.sol\":3512:3548  69_000_000_000_000 * 10 ** _decimals */\n      tag_217\n      swap2\n      swap1\n      tag_143\n      jump\t// in\n    tag_217:\n        /* \"contracts/spurdo.sol\":10150:10164  _maxWalletSize */\n      0x0f\n        /* \"contracts/spurdo.sol\":10150:10174  _maxWalletSize = _tTotal */\n      dup2\n      swap1\n      sstore\n      pop\n        /* \"contracts/spurdo.sol\":10208:10213  false */\n      0x00\n        /* \"contracts/spurdo.sol\":10185:10205  transferDelayEnabled */\n      0x05\n      0x00\n        /* \"contracts/spurdo.sol\":10185:10213  transferDelayEnabled = false */\n      0x0100\n      exp\n      dup2\n      sload\n      dup2\n      0xff\n      mul\n      not\n      and\n      swap1\n      dup4\n      iszero\n      iszero\n      mul\n      or\n      swap1\n      sstore\n      pop\n        /* \"contracts/spurdo.sol\":10243:10245  20 */\n      0x14\n        /* \"contracts/spurdo.sol\":10224:10240  _reduceSellTaxAt */\n      0x0b\n        /* \"contracts/spurdo.sol\":10224:10245  _reduceSellTaxAt = 20 */\n      dup2\n      swap1\n      sstore\n      pop\n        /* \"contracts/spurdo.sol\":10274:10276  20 */\n      0x14\n        /* \"contracts/spurdo.sol\":10256:10271  _reduceBuyTaxAt */\n      0x0a\n        /* \"contracts/spurdo.sol\":10256:10276  _reduceBuyTaxAt = 20 */\n      dup2\n      swap1\n      sstore\n      pop\n        /* \"contracts/spurdo.sol\":10292:10319  MaxTxAmountUpdated(_tTotal) */\n      0x947f344d56e1e8c70dc492fb94c4ddddd490c016aab685f5e7e47b2e85cb44cf\n        /* \"contracts/spurdo.sol\":3469:3470  8 */\n      0x08\n        /* \"contracts/spurdo.sol\":3533:3535  10 */\n      0x0a\n        /* \"contracts/spurdo.sol\":3533:3548  10 ** _decimals */\n      tag_218\n      swap2\n      swap1\n      tag_141\n      jump\t// in\n    tag_218:\n        /* \"contracts/spurdo.sol\":3512:3530  69_000_000_000_000 */\n      0x3ec1507d5000\n        /* \"contracts/spurdo.sol\":3512:3548  69_000_000_000_000 * 10 ** _decimals */\n      tag_219\n      swap2\n      swap1\n      tag_143\n      jump\t// in\n    tag_219:\n        /* \"contracts/spurdo.sol\":10292:10319  MaxTxAmountUpdated(_tTotal) */\n      mload(0x40)\n      tag_220\n      swap2\n      swap1\n      tag_49\n      jump\t// in\n    tag_220:\n      mload(0x40)\n      dup1\n      swap2\n      sub\n      swap1\n      log1\n        /* \"contracts/spurdo.sol\":10063:10327  function removeLimits() external onlyOwner {... */\n      jump\t// out\n        /* \"contracts/spurdo.sol\":3665:3707  uint256 public _maxTxAmount = _tTotal / 50 */\n    tag_91:\n      sload(0x0e)\n      dup2\n      jump\t// out\n        /* \"contracts/spurdo.sol\":1516:1595  function owner() public view returns (address) {... */\n    tag_95:\n        /* \"contracts/spurdo.sol\":1554:1561  address */\n      0x00\n        /* \"contracts/spurdo.sol\":1581:1587  _owner */\n      dup1\n      0x00\n      swap1\n      sload\n      swap1\n      0x0100\n      exp\n      swap1\n      div\n      0xffffffffffffffffffffffffffffffffffffffff\n      and\n        /* \"contracts/spurdo.sol\":1574:1587  return _owner */\n      swap1\n      pop\n        /* \"contracts/spurdo.sol\":1516:1595  function owner() public view returns (address) {... */\n      swap1\n      jump\t// out\n        /* \"contracts/spurdo.sol\":3714:3758  uint256 public _maxWalletSize = _tTotal / 50 */\n    tag_100:\n      sload(0x0f)\n      dup2\n      jump\t// out\n        /* \"contracts/spurdo.sol\":4629:4716  function symbol() public pure returns (string memory) {... */\n    tag_104:\n        /* \"contracts/spurdo.sol\":4668:4681  string memory */\n      0x60\n        /* \"contracts/spurdo.sol\":4701:4708  _symbol */\n      mload(0x40)\n      dup1\n      0x40\n      add\n      0x40\n      mstore\n      dup1\n      0x06\n      dup2\n      mstore\n      0x20\n      add\n      0x73707572646f0000000000000000000000000000000000000000000000000000\n      dup2\n      mstore\n      pop\n        /* \"contracts/spurdo.sol\":4694:4708  return _symbol */\n      swap1\n      pop\n        /* \"contracts/spurdo.sol\":4629:4716  function symbol() public pure returns (string memory) {... */\n      swap1\n      jump\t// out\n        /* \"contracts/spurdo.sol\":5045:5237  function transfer(... */\n    tag_109:\n        /* \"contracts/spurdo.sol\":5148:5152  bool */\n      0x00\n        /* \"contracts/spurdo.sol\":5165:5207  _transfer(_msgSender(), recipient, amount) */\n      tag_224\n        /* \"contracts/spurdo.sol\":5175:5187  _msgSender() */\n      tag_225\n        /* \"contracts/spurdo.sol\":5175:5185  _msgSender */\n      tag_131\n        /* \"contracts/spurdo.sol\":5175:5187  _msgSender() */\n      jump\t// in\n    tag_225:\n        /* \"contracts/spurdo.sol\":5189:5198  recipient */\n      dup5\n        /* \"contracts/spurdo.sol\":5200:5206  amount */\n      dup5\n        /* \"contracts/spurdo.sol\":5165:5174  _transfer */\n      tag_186\n        /* \"contracts/spurdo.sol\":5165:5207  _transfer(_msgSender(), recipient, amount) */\n      jump\t// in\n    tag_224:\n        /* \"contracts/spurdo.sol\":5225:5229  true */\n      0x01\n        /* \"contracts/spurdo.sol\":5218:5229  return true */\n      swap1\n      pop\n        /* \"contracts/spurdo.sol\":5045:5237  function transfer(... */\n      swap3\n      swap2\n      pop\n      pop\n      jump\t// out\n        /* \"contracts/spurdo.sol\":3765:3814  uint256 public _taxSwapThreshold = _tTotal / 1000 */\n    tag_113:\n      sload(0x10)\n      dup2\n      jump\t// out\n        /* \"contracts/spurdo.sol\":3307:3343  uint256 public _reduceSellTaxAt = 45 */\n    tag_117:\n      sload(0x0b)\n      dup2\n      jump\t// out\n        /* \"contracts/spurdo.sol\":3011:3051  bool public transferDelayEnabled = false */\n    tag_121:\n      0x05\n      0x00\n      swap1\n      sload\n      swap1\n      0x0100\n      exp\n      swap1\n      div\n      0xff\n      and\n      dup2\n      jump\t// out\n        /* \"contracts/spurdo.sol\":5245:5413  function allowance(... */\n    tag_127:\n        /* \"contracts/spurdo.sol\":5351:5358  uint256 */\n      0x00\n        /* \"contracts/spurdo.sol\":5378:5389  _allowances */\n      0x02\n        /* \"contracts/spurdo.sol\":5378:5396  _allowances[owner] */\n      0x00\n        /* \"contracts/spurdo.sol\":5390:5395  owner */\n      dup5\n        /* \"contracts/spurdo.sol\":5378:5396  _allowances[owner] */\n      0xffffffffffffffffffffffffffffffffffffffff\n      and\n      0xffffffffffffffffffffffffffffffffffffffff\n      and\n      dup2\n      mstore\n      0x20\n      add\n      swap1\n      dup2\n      mstore\n      0x20\n      add\n      0x00\n      keccak256\n        /* \"contracts/spurdo.sol\":5378:5405  _allowances[owner][spender] */\n      0x00\n        /* \"contracts/spurdo.sol\":5397:5404  spender */\n      dup4\n        /* \"contracts/spurdo.sol\":5378:5405  _allowances[owner][spender] */\n      0xffffffffffffffffffffffffffffffffffffffff\n      and\n      0xffffffffffffffffffffffffffffffffffffffff\n      and\n      dup2\n      mstore\n      0x20\n      add\n      swap1\n      dup2\n      mstore\n      0x20\n      add\n      0x00\n      keccak256\n      sload\n        /* \"contracts/spurdo.sol\":5371:5405  return _allowances[owner][spender] */\n      swap1\n      pop\n        /* \"contracts/spurdo.sol\":5245:5413  function allowance(... */\n      swap3\n      swap2\n      pop\n      pop\n      jump\t// out\n        /* \"contracts/spurdo.sol\":262:360  function _msgSender() internal view virtual returns (address) {... */\n    tag_131:\n        /* \"contracts/spurdo.sol\":315:322  address */\n      0x00\n        /* \"contracts/spurdo.sol\":342:352  msg.sender */\n      caller\n        /* \"contracts/spurdo.sol\":335:352  return msg.sender */\n      swap1\n      pop\n        /* \"contracts/spurdo.sol\":262:360  function _msgSender() internal view virtual returns (address) {... */\n      swap1\n      jump\t// out\n        /* \"contracts/spurdo.sol\":5973:6308  function _approve(address owner, address spender, uint256 amount) private {... */\n    tag_144:\n        /* \"contracts/spurdo.sol\":6083:6084  0 */\n      0x00\n        /* \"contracts/spurdo.sol\":6066:6085  owner != address(0) */\n      0xffffffffffffffffffffffffffffffffffffffff\n      and\n        /* \"contracts/spurdo.sol\":6066:6071  owner */\n      dup4\n        /* \"contracts/spurdo.sol\":6066:6085  owner != address(0) */\n      0xffffffffffffffffffffffffffffffffffffffff\n      and\n      eq\n      iszero\n        /* \"contracts/spurdo.sol\":6058:6126  require(owner != address(0), \"ERC20: approve from the zero address\") */\n      tag_229\n      jumpi\n      mload(0x40)\n      0x08c379a000000000000000000000000000000000000000000000000000000000\n      dup2\n      mstore\n      0x04\n      add\n      tag_230\n      swap1\n      tag_231\n      jump\t// in\n    tag_230:\n      mload(0x40)\n      dup1\n      swap2\n      sub\n      swap1\n      revert\n    tag_229:\n        /* \"contracts/spurdo.sol\":6164:6165  0 */\n      0x00\n        /* \"contracts/spurdo.sol\":6145:6166  spender != address(0) */\n      0xffffffffffffffffffffffffffffffffffffffff\n      and\n        /* \"contracts/spurdo.sol\":6145:6152  spender */\n      dup3\n        /* \"contracts/spurdo.sol\":6145:6166  spender != address(0) */\n      0xffffffffffffffffffffffffffffffffffffffff\n      and\n      eq\n      iszero\n        /* \"contracts/spurdo.sol\":6137:6205  require(spender != address(0), \"ERC20: approve to the zero address\") */\n      tag_232\n      jumpi\n      mload(0x40)\n      0x08c379a000000000000000000000000000000000000000000000000000000000\n      dup2\n      mstore\n      0x04\n      add\n      tag_233\n      swap1\n      tag_234\n      jump\t// in\n    tag_233:\n      mload(0x40)\n      dup1\n      swap2\n      sub\n      swap1\n      revert\n    tag_232:\n        /* \"contracts/spurdo.sol\":6246:6252  amount */\n      dup1\n        /* \"contracts/spurdo.sol\":6216:6227  _allowances */\n      0x02\n        /* \"contracts/spurdo.sol\":6216:6234  _allowances[owner] */\n      0x00\n        /* \"contracts/spurdo.sol\":6228:6233  owner */\n      dup6\n        /* \"contracts/spurdo.sol\":6216:6234  _allowances[owner] */\n      0xffffffffffffffffffffffffffffffffffffffff\n      and\n      0xffffffffffffffffffffffffffffffffffffffff\n      and\n      dup2\n      mstore\n      0x20\n      add\n      swap1\n      dup2\n      mstore\n      0x20\n      add\n      0x00\n      keccak256\n        /* \"contracts/spurdo.sol\":6216:6243  _allowances[owner][spender] */\n      0x00\n        /* \"contracts/spurdo.sol\":6235:6242  spender */\n      dup5\n        /* \"contracts/spurdo.sol\":6216:6243  _allowances[owner][spender] */\n      0xffffffffffffffffffffffffffffffffffffffff\n      and\n      0xffffffffffffffffffffffffffffffffffffffff\n      and\n      dup2\n      mstore\n      0x20\n      add\n      swap1\n      dup2\n      mstore\n      0x20\n      add\n      0x00\n      keccak256\n        /* \"contracts/spurdo.sol\":6216:6252  _allowances[owner][spender] = amount */\n      dup2\n      swap1\n      sstore\n      pop\n        /* \"contracts/spurdo.sol\":6284:6291  spender */\n      dup2\n        /* \"contracts/spurdo.sol\":6268:6300  Approval(owner, spender, amount) */\n      0xffffffffffffffffffffffffffffffffffffffff\n      and\n        /* \"contracts/spurdo.sol\":6277:6282  owner */\n      dup4\n        /* \"contracts/spurdo.sol\":6268:6300  Approval(owner, spender, amount) */\n      0xffffffffffffffffffffffffffffffffffffffff\n      and\n      0x8c5be1e5ebec7d5bd14f71427d1e84f3dd0314c0f7b2291e5b200ac8c7c3b925\n        /* \"contracts/spurdo.sol\":6293:6299  amount */\n      dup4\n        /* \"contracts/spurdo.sol\":6268:6300  Approval(owner, spender, amount) */\n      mload(0x40)\n      tag_235\n      swap2\n      swap1\n      tag_49\n      jump\t// in\n    tag_235:\n      mload(0x40)\n      dup1\n      swap2\n      sub\n      swap1\n      log3\n        /* \"contracts/spurdo.sol\":5973:6308  function _approve(address owner, address spender, uint256 amount) private {... */\n      pop\n      pop\n      pop\n      jump\t// out\n        /* \"contracts/spurdo.sol\":6316:9323  function _transfer(address from, address to, uint256 amount) private {... */\n    tag_186:\n        /* \"contracts/spurdo.sol\":6420:6421  0 */\n      0x00\n        /* \"contracts/spurdo.sol\":6404:6422  from != address(0) */\n      0xffffffffffffffffffffffffffffffffffffffff\n      and\n        /* \"contracts/spurdo.sol\":6404:6408  from */\n      dup4\n        /* \"contracts/spurdo.sol\":6404:6422  from != address(0) */\n      0xffffffffffffffffffffffffffffffffffffffff\n      and\n      eq\n      iszero\n        /* \"contracts/spurdo.sol\":6396:6464  require(from != address(0), \"ERC20: transfer from the zero address\") */\n      tag_237\n      jumpi\n      mload(0x40)\n      0x08c379a000000000000000000000000000000000000000000000000000000000\n      dup2\n      mstore\n      0x04\n      add\n      tag_238\n      swap1\n      tag_239\n      jump\t// in\n    tag_238:\n      mload(0x40)\n      dup1\n      swap2\n      sub\n      swap1\n      revert\n    tag_237:\n        /* \"contracts/spurdo.sol\":6497:6498  0 */\n      0x00\n        /* \"contracts/spurdo.sol\":6483:6499  to != address(0) */\n      0xffffffffffffffffffffffffffffffffffffffff\n      and\n        /* \"contracts/spurdo.sol\":6483:6485  to */\n      dup3\n        /* \"contracts/spurdo.sol\":6483:6499  to != address(0) */\n      0xffffffffffffffffffffffffffffffffffffffff\n      and\n      eq\n      iszero\n        /* \"contracts/spurdo.sol\":6475:6539  require(to != address(0), \"ERC20: transfer to the zero address\") */\n      tag_240\n      jumpi\n      mload(0x40)\n      0x08c379a000000000000000000000000000000000000000000000000000000000\n      dup2\n      mstore\n      0x04\n      add\n      tag_241\n      swap1\n      tag_242\n      jump\t// in\n    tag_241:\n      mload(0x40)\n      dup1\n      swap2\n      sub\n      swap1\n      revert\n    tag_240:\n        /* \"contracts/spurdo.sol\":6567:6568  0 */\n      0x00\n        /* \"contracts/spurdo.sol\":6558:6564  amount */\n      dup2\n        /* \"contracts/spurdo.sol\":6558:6568  amount > 0 */\n      gt\n        /* \"contracts/spurdo.sol\":6550:6614  require(amount > 0, \"Transfer amount must be greater than zero\") */\n      tag_243\n      jumpi\n      mload(0x40)\n      0x08c379a000000000000000000000000000000000000000000000000000000000\n      dup2\n      mstore\n      0x04\n      add\n      tag_244\n      swap1\n      tag_245\n      jump\t// in\n    tag_244:\n      mload(0x40)\n      dup1\n      swap2\n      sub\n      swap1\n      revert\n    tag_243:\n        /* \"contracts/spurdo.sol\":6625:6642  uint256 taxAmount */\n      0x00\n        /* \"contracts/spurdo.sol\":6669:6676  owner() */\n      tag_246\n        /* \"contracts/spurdo.sol\":6669:6674  owner */\n      tag_95\n        /* \"contracts/spurdo.sol\":6669:6676  owner() */\n      jump\t// in\n    tag_246:\n        /* \"contracts/spurdo.sol\":6661:6676  from != owner() */\n      0xffffffffffffffffffffffffffffffffffffffff\n      and\n        /* \"contracts/spurdo.sol\":6661:6665  from */\n      dup5\n        /* \"contracts/spurdo.sol\":6661:6676  from != owner() */\n      0xffffffffffffffffffffffffffffffffffffffff\n      and\n      eq\n      iszero\n        /* \"contracts/spurdo.sol\":6661:6693  from != owner() && to != owner() */\n      dup1\n      iszero\n      tag_247\n      jumpi\n      pop\n        /* \"contracts/spurdo.sol\":6686:6693  owner() */\n      tag_248\n        /* \"contracts/spurdo.sol\":6686:6691  owner */\n      tag_95\n        /* \"contracts/spurdo.sol\":6686:6693  owner() */\n      jump\t// in\n    tag_248:\n        /* \"contracts/spurdo.sol\":6680:6693  to != owner() */\n      0xffffffffffffffffffffffffffffffffffffffff\n      and\n        /* \"contracts/spurdo.sol\":6680:6682  to */\n      dup4\n        /* \"contracts/spurdo.sol\":6680:6693  to != owner() */\n      0xffffffffffffffffffffffffffffffffffffffff\n      and\n      eq\n      iszero\n        /* \"contracts/spurdo.sol\":6661:6693  from != owner() && to != owner() */\n    tag_247:\n        /* \"contracts/spurdo.sol\":6657:8965  if (from != owner() && to != owner()) {... */\n      iszero\n      tag_249\n      jumpi\n        /* \"contracts/spurdo.sol\":6714:6734  transferDelayEnabled */\n      0x05\n      0x00\n      swap1\n      sload\n      swap1\n      0x0100\n      exp\n      swap1\n      div\n      0xff\n      and\n        /* \"contracts/spurdo.sol\":6710:7195  if (transferDelayEnabled) {... */\n      iszero\n      tag_250\n      jumpi\n        /* \"contracts/spurdo.sol\":6795:6810  uniswapV2Router */\n      0x12\n      0x00\n      swap1\n      sload\n      swap1\n      0x0100\n      exp\n      swap1\n      div\n      0xffffffffffffffffffffffffffffffffffffffff\n      and\n        /* \"contracts/spurdo.sol\":6781:6811  to != address(uniswapV2Router) */\n      0xffffffffffffffffffffffffffffffffffffffff\n      and\n        /* \"contracts/spurdo.sol\":6781:6783  to */\n      dup4\n        /* \"contracts/spurdo.sol\":6781:6811  to != address(uniswapV2Router) */\n      0xffffffffffffffffffffffffffffffffffffffff\n      and\n      eq\n      iszero\n        /* \"contracts/spurdo.sol\":6781:6864  to != address(uniswapV2Router) &&... */\n      dup1\n      iszero\n      tag_251\n      jumpi\n      pop\n        /* \"contracts/spurdo.sol\":6850:6863  uniswapV2Pair */\n      0x13\n      0x00\n      swap1\n      sload\n      swap1\n      0x0100\n      exp\n      swap1\n      div\n      0xffffffffffffffffffffffffffffffffffffffff\n      and\n        /* \"contracts/spurdo.sol\":6836:6864  to != address(uniswapV2Pair) */\n      0xffffffffffffffffffffffffffffffffffffffff\n      and\n        /* \"contracts/spurdo.sol\":6836:6838  to */\n      dup4\n        /* \"contracts/spurdo.sol\":6836:6864  to != address(uniswapV2Pair) */\n      0xffffffffffffffffffffffffffffffffffffffff\n      and\n      eq\n      iszero\n        /* \"contracts/spurdo.sol\":6781:6864  to != address(uniswapV2Router) &&... */\n    tag_251:\n        /* \"contracts/spurdo.sol\":6755:7180  if (... */\n      iszero\n      tag_252\n      jumpi\n        /* \"contracts/spurdo.sol\":6983:6995  block.number */\n      number\n        /* \"contracts/spurdo.sol\":6941:6969  _holderLastTransferTimestamp */\n      0x04\n        /* \"contracts/spurdo.sol\":6941:6980  _holderLastTransferTimestamp[tx.origin] */\n      0x00\n        /* \"contracts/spurdo.sol\":6970:6979  tx.origin */\n      origin\n        /* \"contracts/spurdo.sol\":6941:6980  _holderLastTransferTimestamp[tx.origin] */\n      0xffffffffffffffffffffffffffffffffffffffff\n      and\n      0xffffffffffffffffffffffffffffffffffffffff\n      and\n      dup2\n      mstore\n      0x20\n      add\n      swap1\n      dup2\n      mstore\n      0x20\n      add\n      0x00\n      keccak256\n      sload\n        /* \"contracts/spurdo.sol\":6941:6995  _holderLastTransferTimestamp[tx.origin] < block.number */\n      lt\n        /* \"contracts/spurdo.sol\":6907:7083  require(... */\n      tag_253\n      jumpi\n      mload(0x40)\n      0x08c379a000000000000000000000000000000000000000000000000000000000\n      dup2\n      mstore\n      0x04\n      add\n      tag_254\n      swap1\n      tag_255\n      jump\t// in\n    tag_254:\n      mload(0x40)\n      dup1\n      swap2\n      sub\n      swap1\n      revert\n    tag_253:\n        /* \"contracts/spurdo.sol\":7148:7160  block.number */\n      number\n        /* \"contracts/spurdo.sol\":7106:7134  _holderLastTransferTimestamp */\n      0x04\n        /* \"contracts/spurdo.sol\":7106:7145  _holderLastTransferTimestamp[tx.origin] */\n      0x00\n        /* \"contracts/spurdo.sol\":7135:7144  tx.origin */\n      origin\n        /* \"contracts/spurdo.sol\":7106:7145  _holderLastTransferTimestamp[tx.origin] */\n      0xffffffffffffffffffffffffffffffffffffffff\n      and\n      0xffffffffffffffffffffffffffffffffffffffff\n      and\n      dup2\n      mstore\n      0x20\n      add\n      swap1\n      dup2\n      mstore\n      0x20\n      add\n      0x00\n      keccak256\n        /* \"contracts/spurdo.sol\":7106:7160  _holderLastTransferTimestamp[tx.origin] = block.number */\n      dup2\n      swap1\n      sstore\n      pop\n        /* \"contracts/spurdo.sol\":6755:7180  if (... */\n    tag_252:\n        /* \"contracts/spurdo.sol\":6710:7195  if (transferDelayEnabled) {... */\n    tag_250:\n        /* \"contracts/spurdo.sol\":7241:7254  uniswapV2Pair */\n      0x13\n      0x00\n      swap1\n      sload\n      swap1\n      0x0100\n      exp\n      swap1\n      div\n      0xffffffffffffffffffffffffffffffffffffffff\n      and\n        /* \"contracts/spurdo.sol\":7233:7254  from == uniswapV2Pair */\n      0xffffffffffffffffffffffffffffffffffffffff\n      and\n        /* \"contracts/spurdo.sol\":7233:7237  from */\n      dup5\n        /* \"contracts/spurdo.sol\":7233:7254  from == uniswapV2Pair */\n      0xffffffffffffffffffffffffffffffffffffffff\n      and\n      eq\n        /* \"contracts/spurdo.sol\":7233:7305  from == uniswapV2Pair &&... */\n      dup1\n      iszero\n      tag_256\n      jumpi\n      pop\n        /* \"contracts/spurdo.sol\":7289:7304  uniswapV2Router */\n      0x12\n      0x00\n      swap1\n      sload\n      swap1\n      0x0100\n      exp\n      swap1\n      div\n      0xffffffffffffffffffffffffffffffffffffffff\n      and\n        /* \"contracts/spurdo.sol\":7275:7305  to != address(uniswapV2Router) */\n      0xffffffffffffffffffffffffffffffffffffffff\n      and\n        /* \"contracts/spurdo.sol\":7275:7277  to */\n      dup4\n        /* \"contracts/spurdo.sol\":7275:7305  to != address(uniswapV2Router) */\n      0xffffffffffffffffffffffffffffffffffffffff\n      and\n      eq\n      iszero\n        /* \"contracts/spurdo.sol\":7233:7305  from == uniswapV2Pair &&... */\n    tag_256:\n        /* \"contracts/spurdo.sol\":7233:7349  from == uniswapV2Pair &&... */\n      dup1\n      iszero\n      tag_257\n      jumpi\n      pop\n        /* \"contracts/spurdo.sol\":7327:7345  _isExcludedFromFee */\n      0x03\n        /* \"contracts/spurdo.sol\":7327:7349  _isExcludedFromFee[to] */\n      0x00\n        /* \"contracts/spurdo.sol\":7346:7348  to */\n      dup5\n        /* \"contracts/spurdo.sol\":7327:7349  _isExcludedFromFee[to] */\n      0xffffffffffffffffffffffffffffffffffffffff\n      and\n      0xffffffffffffffffffffffffffffffffffffffff\n      and\n      dup2\n      mstore\n      0x20\n      add\n      swap1\n      dup2\n      mstore\n      0x20\n      add\n      0x00\n      keccak256\n      0x00\n      swap1\n      sload\n      swap1\n      0x0100\n      exp\n      swap1\n      div\n      0xff\n      and\n        /* \"contracts/spurdo.sol\":7326:7349  !_isExcludedFromFee[to] */\n      iszero\n        /* \"contracts/spurdo.sol\":7233:7349  from == uniswapV2Pair &&... */\n    tag_257:\n        /* \"contracts/spurdo.sol\":7211:7649  if (... */\n      iszero\n      tag_258\n      jumpi\n        /* \"contracts/spurdo.sol\":7402:7414  _maxTxAmount */\n      sload(0x0e)\n        /* \"contracts/spurdo.sol\":7392:7398  amount */\n      dup3\n        /* \"contracts/spurdo.sol\":7392:7414  amount <= _maxTxAmount */\n      gt\n      iszero\n        /* \"contracts/spurdo.sol\":7384:7444  require(amount <= _maxTxAmount, \"Exceeds the _maxTxAmount.\") */\n      tag_259\n      jumpi\n      mload(0x40)\n      0x08c379a000000000000000000000000000000000000000000000000000000000\n      dup2\n      mstore\n      0x04\n      add\n      tag_260\n      swap1\n      tag_261\n      jump\t// in\n    tag_260:\n      mload(0x40)\n      dup1\n      swap2\n      sub\n      swap1\n      revert\n    tag_259:\n        /* \"contracts/spurdo.sol\":7519:7533  _maxWalletSize */\n      sload(0x0f)\n        /* \"contracts/spurdo.sol\":7509:7515  amount */\n      dup3\n        /* \"contracts/spurdo.sol\":7493:7506  balanceOf(to) */\n      tag_262\n        /* \"contracts/spurdo.sol\":7503:7505  to */\n      dup6\n        /* \"contracts/spurdo.sol\":7493:7502  balanceOf */\n      tag_81\n        /* \"contracts/spurdo.sol\":7493:7506  balanceOf(to) */\n      jump\t// in\n    tag_262:\n        /* \"contracts/spurdo.sol\":7493:7515  balanceOf(to) + amount */\n      tag_263\n      swap2\n      swap1\n      tag_264\n      jump\t// in\n    tag_263:\n        /* \"contracts/spurdo.sol\":7493:7533  balanceOf(to) + amount <= _maxWalletSize */\n      gt\n      iszero\n        /* \"contracts/spurdo.sol\":7463:7603  require(... */\n      tag_265\n      jumpi\n      mload(0x40)\n      0x08c379a000000000000000000000000000000000000000000000000000000000\n      dup2\n      mstore\n      0x04\n      add\n      tag_266\n      swap1\n      tag_267\n      jump\t// in\n    tag_266:\n      mload(0x40)\n      dup1\n      swap2\n      sub\n      swap1\n      revert\n    tag_265:\n        /* \"contracts/spurdo.sol\":7622:7631  _buyCount */\n      0x0d\n      0x00\n        /* \"contracts/spurdo.sol\":7622:7633  _buyCount++ */\n      dup2\n      sload\n      dup1\n      swap3\n      swap2\n      swap1\n      tag_268\n      swap1\n      tag_269\n      jump\t// in\n    tag_268:\n      swap2\n      swap1\n      pop\n      sstore\n      pop\n        /* \"contracts/spurdo.sol\":7211:7649  if (... */\n    tag_258:\n        /* \"contracts/spurdo.sol\":7915:7918  100 */\n      0x64\n        /* \"contracts/spurdo.sol\":7765:7780  _reduceBuyTaxAt */\n      sload(0x0a)\n        /* \"contracts/spurdo.sol\":7753:7762  _buyCount */\n      sload(0x0d)\n        /* \"contracts/spurdo.sol\":7753:7780  _buyCount > _reduceBuyTaxAt */\n      gt\n        /* \"contracts/spurdo.sol\":7752:7871  (_buyCount > _reduceBuyTaxAt)... */\n      tag_270\n      jumpi\n        /* \"contracts/spurdo.sol\":7857:7871  _initialBuyTax */\n      sload(0x06)\n        /* \"contracts/spurdo.sol\":7752:7871  (_buyCount > _reduceBuyTaxAt)... */\n      jump(tag_271)\n    tag_270:\n        /* \"contracts/spurdo.sol\":7813:7825  _finalBuyTax */\n      sload(0x08)\n        /* \"contracts/spurdo.sol\":7752:7871  (_buyCount > _reduceBuyTaxAt)... */\n    tag_271:\n        /* \"contracts/spurdo.sol\":7695:7701  amount */\n      dup4\n        /* \"contracts/spurdo.sol\":7695:7894  amount *... */\n      tag_272\n      swap2\n      swap1\n      tag_143\n      jump\t// in\n    tag_272:\n        /* \"contracts/spurdo.sol\":7694:7918  (amount *... */\n      tag_273\n      swap2\n      swap1\n      tag_274\n      jump\t// in\n    tag_273:\n        /* \"contracts/spurdo.sol\":7665:7918  taxAmount =... */\n      swap1\n      pop\n        /* \"contracts/spurdo.sol\":7943:7956  uniswapV2Pair */\n      0x13\n      0x00\n      swap1\n      sload\n      swap1\n      0x0100\n      exp\n      swap1\n      div\n      0xffffffffffffffffffffffffffffffffffffffff\n      and\n        /* \"contracts/spurdo.sol\":7937:7956  to == uniswapV2Pair */\n      0xffffffffffffffffffffffffffffffffffffffff\n      and\n        /* \"contracts/spurdo.sol\":7937:7939  to */\n      dup4\n        /* \"contracts/spurdo.sol\":7937:7956  to == uniswapV2Pair */\n      0xffffffffffffffffffffffffffffffffffffffff\n      and\n      eq\n        /* \"contracts/spurdo.sol\":7937:7981  to == uniswapV2Pair && from != address(this) */\n      dup1\n      iszero\n      tag_275\n      jumpi\n      pop\n        /* \"contracts/spurdo.sol\":7976:7980  this */\n      address\n        /* \"contracts/spurdo.sol\":7960:7981  from != address(this) */\n      0xffffffffffffffffffffffffffffffffffffffff\n      and\n        /* \"contracts/spurdo.sol\":7960:7964  from */\n      dup5\n        /* \"contracts/spurdo.sol\":7960:7981  from != address(this) */\n      0xffffffffffffffffffffffffffffffffffffffff\n      and\n      eq\n      iszero\n        /* \"contracts/spurdo.sol\":7937:7981  to == uniswapV2Pair && from != address(this) */\n    tag_275:\n        /* \"contracts/spurdo.sol\":7933:8302  if (to == uniswapV2Pair && from != address(this)) {... */\n      iszero\n      tag_276\n      jumpi\n        /* \"contracts/spurdo.sol\":8283:8286  100 */\n      0x64\n        /* \"contracts/spurdo.sol\":8114:8130  _reduceSellTaxAt */\n      sload(0x0b)\n        /* \"contracts/spurdo.sol\":8102:8111  _buyCount */\n      sload(0x0d)\n        /* \"contracts/spurdo.sol\":8102:8130  _buyCount > _reduceSellTaxAt */\n      gt\n        /* \"contracts/spurdo.sol\":8101:8231  (_buyCount > _reduceSellTaxAt)... */\n      tag_277\n      jumpi\n        /* \"contracts/spurdo.sol\":8216:8231  _initialSellTax */\n      sload(0x07)\n        /* \"contracts/spurdo.sol\":8101:8231  (_buyCount > _reduceSellTaxAt)... */\n      jump(tag_278)\n    tag_277:\n        /* \"contracts/spurdo.sol\":8167:8180  _finalSellTax */\n      sload(0x09)\n        /* \"contracts/spurdo.sol\":8101:8231  (_buyCount > _reduceSellTaxAt)... */\n    tag_278:\n        /* \"contracts/spurdo.sol\":8036:8042  amount */\n      dup4\n        /* \"contracts/spurdo.sol\":8036:8258  amount *... */\n      tag_279\n      swap2\n      swap1\n      tag_143\n      jump\t// in\n    tag_279:\n        /* \"contracts/spurdo.sol\":8035:8286  (amount *... */\n      tag_280\n      swap2\n      swap1\n      tag_274\n      jump\t// in\n    tag_280:\n        /* \"contracts/spurdo.sol\":8002:8286  taxAmount =... */\n      swap1\n      pop\n        /* \"contracts/spurdo.sol\":7933:8302  if (to == uniswapV2Pair && from != address(this)) {... */\n    tag_276:\n        /* \"contracts/spurdo.sol\":8318:8346  uint256 contractTokenBalance */\n      0x00\n        /* \"contracts/spurdo.sol\":8349:8373  balanceOf(address(this)) */\n      tag_281\n        /* \"contracts/spurdo.sol\":8367:8371  this */\n      address\n        /* \"contracts/spurdo.sol\":8349:8358  balanceOf */\n      tag_81\n        /* \"contracts/spurdo.sol\":8349:8373  balanceOf(address(this)) */\n      jump\t// in\n    tag_281:\n        /* \"contracts/spurdo.sol\":8318:8373  uint256 contractTokenBalance = balanceOf(address(this)) */\n      swap1\n      pop\n        /* \"contracts/spurdo.sol\":8411:8417  inSwap */\n      0x13\n      0x15\n      swap1\n      sload\n      swap1\n      0x0100\n      exp\n      swap1\n      div\n      0xff\n      and\n        /* \"contracts/spurdo.sol\":8410:8417  !inSwap */\n      iszero\n        /* \"contracts/spurdo.sol\":8410:8457  !inSwap &&... */\n      dup1\n      iszero\n      tag_282\n      jumpi\n      pop\n        /* \"contracts/spurdo.sol\":8444:8457  uniswapV2Pair */\n      0x13\n      0x00\n      swap1\n      sload\n      swap1\n      0x0100\n      exp\n      swap1\n      div\n      0xffffffffffffffffffffffffffffffffffffffff\n      and\n        /* \"contracts/spurdo.sol\":8438:8457  to == uniswapV2Pair */\n      0xffffffffffffffffffffffffffffffffffffffff\n      and\n        /* \"contracts/spurdo.sol\":8438:8440  to */\n      dup5\n        /* \"contracts/spurdo.sol\":8438:8457  to == uniswapV2Pair */\n      0xffffffffffffffffffffffffffffffffffffffff\n      and\n      eq\n        /* \"contracts/spurdo.sol\":8410:8457  !inSwap &&... */\n    tag_282:\n        /* \"contracts/spurdo.sol\":8410:8489  !inSwap &&... */\n      dup1\n      iszero\n      tag_283\n      jumpi\n      pop\n        /* \"contracts/spurdo.sol\":8478:8489  swapEnabled */\n      0x13\n      0x16\n      swap1\n      sload\n      swap1\n      0x0100\n      exp\n      swap1\n      div\n      0xff\n      and\n        /* \"contracts/spurdo.sol\":8410:8489  !inSwap &&... */\n    tag_283:\n        /* \"contracts/spurdo.sol\":8410:8550  !inSwap &&... */\n      dup1\n      iszero\n      tag_284\n      jumpi\n      pop\n        /* \"contracts/spurdo.sol\":8533:8550  _taxSwapThreshold */\n      sload(0x10)\n        /* \"contracts/spurdo.sol\":8510:8530  contractTokenBalance */\n      dup2\n        /* \"contracts/spurdo.sol\":8510:8550  contractTokenBalance > _taxSwapThreshold */\n      gt\n        /* \"contracts/spurdo.sol\":8410:8550  !inSwap &&... */\n    tag_284:\n        /* \"contracts/spurdo.sol\":8410:8601  !inSwap &&... */\n      dup1\n      iszero\n      tag_285\n      jumpi\n      pop\n        /* \"contracts/spurdo.sol\":8583:8601  _preventSwapBefore */\n      sload(0x0c)\n        /* \"contracts/spurdo.sol\":8571:8580  _buyCount */\n      sload(0x0d)\n        /* \"contracts/spurdo.sol\":8571:8601  _buyCount > _preventSwapBefore */\n      gt\n        /* \"contracts/spurdo.sol\":8410:8601  !inSwap &&... */\n    tag_285:\n        /* \"contracts/spurdo.sol\":8388:8954  if (... */\n      iszero\n      tag_286\n      jumpi\n        /* \"contracts/spurdo.sol\":8636:8745  swapTokensForEth(... */\n      tag_287\n        /* \"contracts/spurdo.sol\":8675:8726  min(amount, min(contractTokenBalance, _maxTaxSwap)) */\n      tag_288\n        /* \"contracts/spurdo.sol\":8679:8685  amount */\n      dup5\n        /* \"contracts/spurdo.sol\":8687:8725  min(contractTokenBalance, _maxTaxSwap) */\n      tag_289\n        /* \"contracts/spurdo.sol\":8691:8711  contractTokenBalance */\n      dup5\n        /* \"contracts/spurdo.sol\":8713:8724  _maxTaxSwap */\n      sload(0x11)\n        /* \"contracts/spurdo.sol\":8687:8690  min */\n      tag_290\n        /* \"contracts/spurdo.sol\":8687:8725  min(contractTokenBalance, _maxTaxSwap) */\n      jump\t// in\n    tag_289:\n        /* \"contracts/spurdo.sol\":8675:8678  min */\n      tag_290\n        /* \"contracts/spurdo.sol\":8675:8726  min(amount, min(contractTokenBalance, _maxTaxSwap)) */\n      jump\t// in\n    tag_288:\n        /* \"contracts/spurdo.sol\":8636:8652  swapTokensForEth */\n      tag_199\n        /* \"contracts/spurdo.sol\":8636:8745  swapTokensForEth(... */\n      jump\t// in\n    tag_287:\n        /* \"contracts/spurdo.sol\":8764:8790  uint256 contractETHBalance */\n      0x00\n        /* \"contracts/spurdo.sol\":8793:8814  address(this).balance */\n      selfbalance\n        /* \"contracts/spurdo.sol\":8764:8814  uint256 contractETHBalance = address(this).balance */\n      swap1\n      pop\n        /* \"contracts/spurdo.sol\":8858:8859  0 */\n      0x00\n        /* \"contracts/spurdo.sol\":8837:8855  contractETHBalance */\n      dup2\n        /* \"contracts/spurdo.sol\":8837:8859  contractETHBalance > 0 */\n      gt\n        /* \"contracts/spurdo.sol\":8833:8939  if (contractETHBalance > 0) {... */\n      iszero\n      tag_291\n      jumpi\n        /* \"contracts/spurdo.sol\":8884:8919  sendETHToFee(address(this).balance) */\n      tag_292\n        /* \"contracts/spurdo.sol\":8897:8918  address(this).balance */\n      selfbalance\n        /* \"contracts/spurdo.sol\":8884:8896  sendETHToFee */\n      tag_202\n        /* \"contracts/spurdo.sol\":8884:8919  sendETHToFee(address(this).balance) */\n      jump\t// in\n    tag_292:\n        /* \"contracts/spurdo.sol\":8833:8939  if (contractETHBalance > 0) {... */\n    tag_291:\n        /* \"contracts/spurdo.sol\":8617:8954  {... */\n      pop\n        /* \"contracts/spurdo.sol\":8388:8954  if (... */\n    tag_286:\n        /* \"contracts/spurdo.sol\":6695:8965  {... */\n      pop\n        /* \"contracts/spurdo.sol\":6657:8965  if (from != owner() && to != owner()) {... */\n    tag_249:\n        /* \"contracts/spurdo.sol\":8993:8994  0 */\n      0x00\n        /* \"contracts/spurdo.sol\":8981:8990  taxAmount */\n      dup2\n        /* \"contracts/spurdo.sol\":8981:8994  taxAmount > 0 */\n      gt\n        /* \"contracts/spurdo.sol\":8977:9146  if (taxAmount > 0) {... */\n      iszero\n      tag_293\n      jumpi\n        /* \"contracts/spurdo.sol\":9065:9074  taxAmount */\n      dup1\n        /* \"contracts/spurdo.sol\":9038:9047  _balances */\n      0x01\n        /* \"contracts/spurdo.sol\":9038:9062  _balances[address(this)] */\n      0x00\n        /* \"contracts/spurdo.sol\":9056:9060  this */\n      address\n        /* \"contracts/spurdo.sol\":9038:9062  _balances[address(this)] */\n      0xffffffffffffffffffffffffffffffffffffffff\n      and\n      0xffffffffffffffffffffffffffffffffffffffff\n      and\n      dup2\n      mstore\n      0x20\n      add\n      swap1\n      dup2\n      mstore\n      0x20\n      add\n      0x00\n      keccak256\n      sload\n        /* \"contracts/spurdo.sol\":9038:9074  _balances[address(this)] + taxAmount */\n      tag_294\n      swap2\n      swap1\n      tag_264\n      jump\t// in\n    tag_294:\n        /* \"contracts/spurdo.sol\":9011:9020  _balances */\n      0x01\n        /* \"contracts/spurdo.sol\":9011:9035  _balances[address(this)] */\n      0x00\n        /* \"contracts/spurdo.sol\":9029:9033  this */\n      address\n        /* \"contracts/spurdo.sol\":9011:9035  _balances[address(this)] */\n      0xffffffffffffffffffffffffffffffffffffffff\n      and\n      0xffffffffffffffffffffffffffffffffffffffff\n      and\n      dup2\n      mstore\n      0x20\n      add\n      swap1\n      dup2\n      mstore\n      0x20\n      add\n      0x00\n      keccak256\n        /* \"contracts/spurdo.sol\":9011:9074  _balances[address(this)] = _balances[address(this)] + taxAmount */\n      dup2\n      swap1\n      sstore\n      pop\n        /* \"contracts/spurdo.sol\":9117:9121  this */\n      address\n        /* \"contracts/spurdo.sol\":9094:9134  Transfer(from, address(this), taxAmount) */\n      0xffffffffffffffffffffffffffffffffffffffff\n      and\n        /* \"contracts/spurdo.sol\":9103:9107  from */\n      dup5\n        /* \"contracts/spurdo.sol\":9094:9134  Transfer(from, address(this), taxAmount) */\n      0xffffffffffffffffffffffffffffffffffffffff\n      and\n      0xddf252ad1be2c89b69c2b068fc378daa952ba7f163c4a11628f55a4df523b3ef\n        /* \"contracts/spurdo.sol\":9124:9133  taxAmount */\n      dup4\n        /* \"contracts/spurdo.sol\":9094:9134  Transfer(from, address(this), taxAmount) */\n      mload(0x40)\n      tag_295\n      swap2\n      swap1\n      tag_49\n      jump\t// in\n    tag_295:\n      mload(0x40)\n      dup1\n      swap2\n      sub\n      swap1\n      log3\n        /* \"contracts/spurdo.sol\":8977:9146  if (taxAmount > 0) {... */\n    tag_293:\n        /* \"contracts/spurdo.sol\":9192:9198  amount */\n      dup2\n        /* \"contracts/spurdo.sol\":9174:9183  _balances */\n      0x01\n        /* \"contracts/spurdo.sol\":9174:9189  _balances[from] */\n      0x00\n        /* \"contracts/spurdo.sol\":9184:9188  from */\n      dup7\n        /* \"contracts/spurdo.sol\":9174:9189  _balances[from] */\n      0xffffffffffffffffffffffffffffffffffffffff\n      and\n      0xffffffffffffffffffffffffffffffffffffffff\n      and\n      dup2\n      mstore\n      0x20\n      add\n      swap1\n      dup2\n      mstore\n      0x20\n      add\n      0x00\n      keccak256\n      sload\n        /* \"contracts/spurdo.sol\":9174:9198  _balances[from] - amount */\n      tag_296\n      swap2\n      swap1\n      tag_191\n      jump\t// in\n    tag_296:\n        /* \"contracts/spurdo.sol\":9156:9165  _balances */\n      0x01\n        /* \"contracts/spurdo.sol\":9156:9171  _balances[from] */\n      0x00\n        /* \"contracts/spurdo.sol\":9166:9170  from */\n      dup7\n        /* \"contracts/spurdo.sol\":9156:9171  _balances[from] */\n      0xffffffffffffffffffffffffffffffffffffffff\n      and\n      0xffffffffffffffffffffffffffffffffffffffff\n      and\n      dup2\n      mstore\n      0x20\n      add\n      swap1\n      dup2\n      mstore\n      0x20\n      add\n      0x00\n      keccak256\n        /* \"contracts/spurdo.sol\":9156:9198  _balances[from] = _balances[from] - amount */\n      dup2\n      swap1\n      sstore\n      pop\n        /* \"contracts/spurdo.sol\":9251:9260  taxAmount */\n      dup1\n        /* \"contracts/spurdo.sol\":9242:9248  amount */\n      dup3\n        /* \"contracts/spurdo.sol\":9242:9260  amount - taxAmount */\n      tag_297\n      swap2\n      swap1\n      tag_191\n      jump\t// in\n    tag_297:\n        /* \"contracts/spurdo.sol\":9225:9234  _balances */\n      0x01\n        /* \"contracts/spurdo.sol\":9225:9238  _balances[to] */\n      0x00\n        /* \"contracts/spurdo.sol\":9235:9237  to */\n      dup6\n        /* \"contracts/spurdo.sol\":9225:9238  _balances[to] */\n      0xffffffffffffffffffffffffffffffffffffffff\n      and\n      0xffffffffffffffffffffffffffffffffffffffff\n      and\n      dup2\n      mstore\n      0x20\n      add\n      swap1\n      dup2\n      mstore\n      0x20\n      add\n      0x00\n      keccak256\n      sload\n        /* \"contracts/spurdo.sol\":9225:9261  _balances[to] + (amount - taxAmount) */\n      tag_298\n      swap2\n      swap1\n      tag_264\n      jump\t// in\n    tag_298:\n        /* \"contracts/spurdo.sol\":9209:9218  _balances */\n      0x01\n        /* \"contracts/spurdo.sol\":9209:9222  _balances[to] */\n      0x00\n        /* \"contracts/spurdo.sol\":9219:9221  to */\n      dup6\n        /* \"contracts/spurdo.sol\":9209:9222  _balances[to] */\n      0xffffffffffffffffffffffffffffffffffffffff\n      and\n      0xffffffffffffffffffffffffffffffffffffffff\n      and\n      dup2\n      mstore\n      0x20\n      add\n      swap1\n      dup2\n      mstore\n      0x20\n      add\n      0x00\n      keccak256\n        /* \"contracts/spurdo.sol\":9209:9261  _balances[to] = _balances[to] + (amount - taxAmount) */\n      dup2\n      swap1\n      sstore\n      pop\n        /* \"contracts/spurdo.sol\":9292:9294  to */\n      dup3\n        /* \"contracts/spurdo.sol\":9277:9315  Transfer(from, to, amount - taxAmount) */\n      0xffffffffffffffffffffffffffffffffffffffff\n      and\n        /* \"contracts/spurdo.sol\":9286:9290  from */\n      dup5\n        /* \"contracts/spurdo.sol\":9277:9315  Transfer(from, to, amount - taxAmount) */\n      0xffffffffffffffffffffffffffffffffffffffff\n      and\n      0xddf252ad1be2c89b69c2b068fc378daa952ba7f163c4a11628f55a4df523b3ef\n        /* \"contracts/spurdo.sol\":9305:9314  taxAmount */\n      dup4\n        /* \"contracts/spurdo.sol\":9296:9302  amount */\n      dup6\n        /* \"contracts/spurdo.sol\":9296:9314  amount - taxAmount */\n      tag_299\n      swap2\n      swap1\n      tag_191\n      jump\t// in\n    tag_299:\n        /* \"contracts/spurdo.sol\":9277:9315  Transfer(from, to, amount - taxAmount) */\n      mload(0x40)\n      tag_300\n      swap2\n      swap1\n      tag_49\n      jump\t// in\n    tag_300:\n      mload(0x40)\n      dup1\n      swap2\n      sub\n      swap1\n      log3\n        /* \"contracts/spurdo.sol\":6385:9323  {... */\n      pop\n        /* \"contracts/spurdo.sol\":6316:9323  function _transfer(address from, address to, uint256 amount) private {... */\n      pop\n      pop\n      pop\n      jump\t// out\n        /* \"contracts/spurdo.sol\":9446:10055  function swapTokensForEth(uint256 tokenAmount) private lockTheSwap {... */\n    tag_199:\n        /* \"contracts/spurdo.sol\":4157:4161  true */\n      0x01\n        /* \"contracts/spurdo.sol\":4148:4154  inSwap */\n      0x13\n      0x15\n        /* \"contracts/spurdo.sol\":4148:4161  inSwap = true */\n      0x0100\n      exp\n      dup2\n      sload\n      dup2\n      0xff\n      mul\n      not\n      and\n      swap1\n      dup4\n      iszero\n      iszero\n      mul\n      or\n      swap1\n      sstore\n      pop\n        /* \"contracts/spurdo.sol\":9543:9544  0 */\n      0x00\n        /* \"contracts/spurdo.sol\":9528:9539  tokenAmount */\n      dup2\n        /* \"contracts/spurdo.sol\":9528:9544  tokenAmount == 0 */\n      eq\n        /* \"contracts/spurdo.sol\":9524:9579  if (tokenAmount == 0) {... */\n      iszero\n      tag_303\n      jumpi\n        /* \"contracts/spurdo.sol\":9561:9568  return; */\n      jump(tag_302)\n        /* \"contracts/spurdo.sol\":9524:9579  if (tokenAmount == 0) {... */\n    tag_303:\n        /* \"contracts/spurdo.sol\":9594:9605  tradingOpen */\n      0x13\n      0x14\n      swap1\n      sload\n      swap1\n      0x0100\n      exp\n      swap1\n      div\n      0xff\n      and\n        /* \"contracts/spurdo.sol\":9589:9640  if (!tradingOpen) {... */\n      tag_304\n      jumpi\n        /* \"contracts/spurdo.sol\":9622:9629  return; */\n      jump(tag_302)\n        /* \"contracts/spurdo.sol\":9589:9640  if (!tradingOpen) {... */\n    tag_304:\n        /* \"contracts/spurdo.sol\":9650:9671  address[] memory path */\n      0x00\n        /* \"contracts/spurdo.sol\":9688:9689  2 */\n      0x02\n        /* \"contracts/spurdo.sol\":9674:9690  new address[](2) */\n      0xffffffffffffffff\n      dup2\n      gt\n      iszero\n      tag_305\n      jumpi\n      tag_306\n      tag_307\n      jump\t// in\n    tag_306:\n    tag_305:\n      mload(0x40)\n      swap1\n      dup1\n      dup3\n      mstore\n      dup1\n      0x20\n      mul\n      0x20\n      add\n      dup3\n      add\n      0x40\n      mstore\n      dup1\n      iszero\n      tag_308\n      jumpi\n      dup2\n      0x20\n      add\n      0x20\n      dup3\n      mul\n      dup1\n      calldatasize\n      dup4\n      calldatacopy\n      dup1\n      dup3\n      add\n      swap2\n      pop\n      pop\n      swap1\n      pop\n    tag_308:\n      pop\n        /* \"contracts/spurdo.sol\":9650:9690  address[] memory path = new address[](2) */\n      swap1\n      pop\n        /* \"contracts/spurdo.sol\":9719:9723  this */\n      address\n        /* \"contracts/spurdo.sol\":9701:9705  path */\n      dup2\n        /* \"contracts/spurdo.sol\":9706:9707  0 */\n      0x00\n        /* \"contracts/spurdo.sol\":9701:9708  path[0] */\n      dup2\n      mload\n      dup2\n      lt\n      tag_309\n      jumpi\n      tag_310\n      tag_311\n      jump\t// in\n    tag_310:\n    tag_309:\n      0x20\n      mul\n      0x20\n      add\n      add\n        /* \"contracts/spurdo.sol\":9701:9724  path[0] = address(this) */\n      swap1\n      0xffffffffffffffffffffffffffffffffffffffff\n      and\n      swap1\n      dup2\n      0xffffffffffffffffffffffffffffffffffffffff\n      and\n      dup2\n      mstore\n      pop\n      pop\n        /* \"contracts/spurdo.sol\":9745:9760  uniswapV2Router */\n      0x12\n      0x00\n      swap1\n      sload\n      swap1\n      0x0100\n      exp\n      swap1\n      div\n      0xffffffffffffffffffffffffffffffffffffffff\n      and\n        /* \"contracts/spurdo.sol\":9745:9765  uniswapV2Router.WETH */\n      0xffffffffffffffffffffffffffffffffffffffff\n      and\n      0xad5c4648\n        /* \"contracts/spurdo.sol\":9745:9767  uniswapV2Router.WETH() */\n      mload(0x40)\n      dup2\n      0xffffffff\n      and\n      0xe0\n      shl\n      dup2\n      mstore\n      0x04\n      add\n      0x20\n      mload(0x40)\n      dup1\n      dup4\n      sub\n      dup2\n      dup7\n      gas\n      staticcall\n      iszero\n      dup1\n      iszero\n      tag_313\n      jumpi\n      returndatasize\n      0x00\n      dup1\n      returndatacopy\n      revert(0x00, returndatasize)\n    tag_313:\n      pop\n      pop\n      pop\n      pop\n      mload(0x40)\n      returndatasize\n      not(0x1f)\n      0x1f\n      dup3\n      add\n      and\n      dup3\n      add\n      dup1\n      0x40\n      mstore\n      pop\n      dup2\n      add\n      swap1\n      tag_314\n      swap2\n      swap1\n      tag_148\n      jump\t// in\n    tag_314:\n        /* \"contracts/spurdo.sol\":9735:9739  path */\n      dup2\n        /* \"contracts/spurdo.sol\":9740:9741  1 */\n      0x01\n        /* \"contracts/spurdo.sol\":9735:9742  path[1] */\n      dup2\n      mload\n      dup2\n      lt\n      tag_315\n      jumpi\n      tag_316\n      tag_311\n      jump\t// in\n    tag_316:\n    tag_315:\n      0x20\n      mul\n      0x20\n      add\n      add\n        /* \"contracts/spurdo.sol\":9735:9767  path[1] = uniswapV2Router.WETH() */\n      swap1\n      0xffffffffffffffffffffffffffffffffffffffff\n      and\n      swap1\n      dup2\n      0xffffffffffffffffffffffffffffffffffffffff\n      and\n      dup2\n      mstore\n      pop\n      pop\n        /* \"contracts/spurdo.sol\":9778:9840  _approve(address(this), address(uniswapV2Router), tokenAmount) */\n      tag_317\n        /* \"contracts/spurdo.sol\":9795:9799  this */\n      address\n        /* \"contracts/spurdo.sol\":9810:9825  uniswapV2Router */\n      0x12\n      0x00\n      swap1\n      sload\n      swap1\n      0x0100\n      exp\n      swap1\n      div\n      0xffffffffffffffffffffffffffffffffffffffff\n      and\n        /* \"contracts/spurdo.sol\":9828:9839  tokenAmount */\n      dup5\n        /* \"contracts/spurdo.sol\":9778:9786  _approve */\n      tag_144\n        /* \"contracts/spurdo.sol\":9778:9840  _approve(address(this), address(uniswapV2Router), tokenAmount) */\n      jump\t// in\n    tag_317:\n        /* \"contracts/spurdo.sol\":9851:9866  uniswapV2Router */\n      0x12\n      0x00\n      swap1\n      sload\n      swap1\n      0x0100\n      exp\n      swap1\n      div\n      0xffffffffffffffffffffffffffffffffffffffff\n      and\n        /* \"contracts/spurdo.sol\":9851:9917  uniswapV2Router.swapExactTokensForETHSupportingFeeOnTransferTokens */\n      0xffffffffffffffffffffffffffffffffffffffff\n      and\n      0x791ac947\n        /* \"contracts/spurdo.sol\":9932:9943  tokenAmount */\n      dup4\n        /* \"contracts/spurdo.sol\":9958:9959  0 */\n      0x00\n        /* \"contracts/spurdo.sol\":9974:9978  path */\n      dup5\n        /* \"contracts/spurdo.sol\":10001:10005  this */\n      address\n        /* \"contracts/spurdo.sol\":10021:10036  block.timestamp */\n      timestamp\n        /* \"contracts/spurdo.sol\":9851:10047  uniswapV2Router.swapExactTokensForETHSupportingFeeOnTransferTokens(... */\n      mload(0x40)\n      dup7\n      0xffffffff\n      and\n      0xe0\n      shl\n      dup2\n      mstore\n      0x04\n      add\n      tag_318\n      swap6\n      swap5\n      swap4\n      swap3\n      swap2\n      swap1\n      tag_319\n      jump\t// in\n    tag_318:\n      0x00\n      mload(0x40)\n      dup1\n      dup4\n      sub\n      dup2\n      0x00\n      dup8\n      dup1\n      extcodesize\n      iszero\n      dup1\n      iszero\n      tag_320\n      jumpi\n      0x00\n      dup1\n      revert\n    tag_320:\n      pop\n      gas\n      call\n      iszero\n      dup1\n      iszero\n      tag_322\n      jumpi\n      returndatasize\n      0x00\n      dup1\n      returndatacopy\n      revert(0x00, returndatasize)\n    tag_322:\n      pop\n      pop\n      pop\n      pop\n        /* \"contracts/spurdo.sol\":9513:10055  {... */\n      pop\n        /* \"contracts/spurdo.sol\":4172:4173  _ */\n    tag_302:\n        /* \"contracts/spurdo.sol\":4193:4198  false */\n      0x00\n        /* \"contracts/spurdo.sol\":4184:4190  inSwap */\n      0x13\n      0x15\n        /* \"contracts/spurdo.sol\":4184:4198  inSwap = false */\n      0x0100\n      exp\n      dup2\n      sload\n      dup2\n      0xff\n      mul\n      not\n      and\n      swap1\n      dup4\n      iszero\n      iszero\n      mul\n      or\n      swap1\n      sstore\n      pop\n        /* \"contracts/spurdo.sol\":9446:10055  function swapTokensForEth(uint256 tokenAmount) private lockTheSwap {... */\n      pop\n      jump\t// out\n        /* \"contracts/spurdo.sol\":10335:10427  function sendETHToFee(uint256 amount) private {... */\n    tag_202:\n        /* \"contracts/spurdo.sol\":10392:10402  _taxWallet */\n      0x05\n      0x01\n      swap1\n      sload\n      swap1\n      0x0100\n      exp\n      swap1\n      div\n      0xffffffffffffffffffffffffffffffffffffffff\n      and\n        /* \"contracts/spurdo.sol\":10392:10411  _taxWallet.transfer */\n      0xffffffffffffffffffffffffffffffffffffffff\n      and\n        /* \"contracts/spurdo.sol\":10392:10419  _taxWallet.transfer(amount) */\n      0x08fc\n        /* \"contracts/spurdo.sol\":10412:10418  amount */\n      dup3\n        /* \"contracts/spurdo.sol\":10392:10419  _taxWallet.transfer(amount) */\n      swap1\n      dup2\n      iszero\n      mul\n      swap1\n      mload(0x40)\n      0x00\n      mload(0x40)\n      dup1\n      dup4\n      sub\n      dup2\n      dup6\n      dup9\n      dup9\n      call\n      swap4\n      pop\n      pop\n      pop\n      pop\n      iszero\n      dup1\n      iszero\n      tag_325\n      jumpi\n      returndatasize\n      0x00\n      dup1\n      returndatacopy\n      revert(0x00, returndatasize)\n    tag_325:\n      pop\n        /* \"contracts/spurdo.sol\":10335:10427  function sendETHToFee(uint256 amount) private {... */\n      pop\n      jump\t// out\n        /* \"contracts/spurdo.sol\":9331:9438  function min(uint256 a, uint256 b) private pure returns (uint256) {... */\n    tag_290:\n        /* \"contracts/spurdo.sol\":9388:9395  uint256 */\n      0x00\n        /* \"contracts/spurdo.sol\":9420:9421  b */\n      dup2\n        /* \"contracts/spurdo.sol\":9416:9417  a */\n      dup4\n        /* \"contracts/spurdo.sol\":9416:9421  a > b */\n      gt\n        /* \"contracts/spurdo.sol\":9415:9430  (a > b) ? b : a */\n      tag_327\n      jumpi\n        /* \"contracts/spurdo.sol\":9429:9430  a */\n      dup3\n        /* \"contracts/spurdo.sol\":9415:9430  (a > b) ? b : a */\n      jump(tag_328)\n    tag_327:\n        /* \"contracts/spurdo.sol\":9425:9426  b */\n      dup2\n        /* \"contracts/spurdo.sol\":9415:9430  (a > b) ? b : a */\n    tag_328:\n        /* \"contracts/spurdo.sol\":9408:9430  return (a > b) ? b : a */\n      swap1\n      pop\n        /* \"contracts/spurdo.sol\":9331:9438  function min(uint256 a, uint256 b) private pure returns (uint256) {... */\n      swap3\n      swap2\n      pop\n      pop\n      jump\t// out\n        /* \"#utility.yul\":7:106   */\n    tag_329:\n        /* \"#utility.yul\":59:65   */\n      0x00\n        /* \"#utility.yul\":93:98   */\n      dup2\n        /* \"#utility.yul\":87:99   */\n      mload\n        /* \"#utility.yul\":77:99   */\n      swap1\n      pop\n        /* \"#utility.yul\":7:106   */\n      swap2\n      swap1\n      pop\n      jump\t// out\n        /* \"#utility.yul\":112:281   */\n    tag_330:\n        /* \"#utility.yul\":196:207   */\n      0x00\n        /* \"#utility.yul\":230:236   */\n      dup3\n        /* \"#utility.yul\":225:228   */\n      dup3\n        /* \"#utility.yul\":218:237   */\n      mstore\n        /* \"#utility.yul\":270:274   */\n      0x20\n        /* \"#utility.yul\":265:268   */\n      dup3\n        /* \"#utility.yul\":261:275   */\n      add\n        /* \"#utility.yul\":246:275   */\n      swap1\n      pop\n        /* \"#utility.yul\":112:281   */\n      swap3\n      swap2\n      pop\n      pop\n      jump\t// out\n        /* \"#utility.yul\":287:594   */\n    tag_331:\n        /* \"#utility.yul\":355:356   */\n      0x00\n        /* \"#utility.yul\":365:478   */\n    tag_394:\n        /* \"#utility.yul\":379:385   */\n      dup4\n        /* \"#utility.yul\":376:377   */\n      dup2\n        /* \"#utility.yul\":373:386   */\n      lt\n        /* \"#utility.yul\":365:478   */\n      iszero\n      tag_396\n      jumpi\n        /* \"#utility.yul\":464:465   */\n      dup1\n        /* \"#utility.yul\":459:462   */\n      dup3\n        /* \"#utility.yul\":455:466   */\n      add\n        /* \"#utility.yul\":449:467   */\n      mload\n        /* \"#utility.yul\":445:446   */\n      dup2\n        /* \"#utility.yul\":440:443   */\n      dup5\n        /* \"#utility.yul\":436:447   */\n      add\n        /* \"#utility.yul\":429:468   */\n      mstore\n        /* \"#utility.yul\":401:403   */\n      0x20\n        /* \"#utility.yul\":398:399   */\n      dup2\n        /* \"#utility.yul\":394:404   */\n      add\n        /* \"#utility.yul\":389:404   */\n      swap1\n      pop\n        /* \"#utility.yul\":365:478   */\n      jump(tag_394)\n    tag_396:\n        /* \"#utility.yul\":496:502   */\n      dup4\n        /* \"#utility.yul\":493:494   */\n      dup2\n        /* \"#utility.yul\":490:503   */\n      gt\n        /* \"#utility.yul\":487:588   */\n      iszero\n      tag_397\n      jumpi\n        /* \"#utility.yul\":576:577   */\n      0x00\n        /* \"#utility.yul\":567:573   */\n      dup5\n        /* \"#utility.yul\":562:565   */\n      dup5\n        /* \"#utility.yul\":558:574   */\n      add\n        /* \"#utility.yul\":551:578   */\n      mstore\n        /* \"#utility.yul\":487:588   */\n    tag_397:\n        /* \"#utility.yul\":336:594   */\n      pop\n        /* \"#utility.yul\":287:594   */\n      pop\n      pop\n      pop\n      jump\t// out\n        /* \"#utility.yul\":600:702   */\n    tag_332:\n        /* \"#utility.yul\":641:647   */\n      0x00\n        /* \"#utility.yul\":692:694   */\n      0x1f\n        /* \"#utility.yul\":688:695   */\n      not\n        /* \"#utility.yul\":683:685   */\n      0x1f\n        /* \"#utility.yul\":676:681   */\n      dup4\n        /* \"#utility.yul\":672:686   */\n      add\n        /* \"#utility.yul\":668:696   */\n      and\n        /* \"#utility.yul\":658:696   */\n      swap1\n      pop\n        /* \"#utility.yul\":600:702   */\n      swap2\n      swap1\n      pop\n      jump\t// out\n        /* \"#utility.yul\":708:1072   */\n    tag_333:\n        /* \"#utility.yul\":796:799   */\n      0x00\n        /* \"#utility.yul\":824:863   */\n      tag_400\n        /* \"#utility.yul\":857:862   */\n      dup3\n        /* \"#utility.yul\":824:863   */\n      tag_329\n      jump\t// in\n    tag_400:\n        /* \"#utility.yul\":879:950   */\n      tag_401\n        /* \"#utility.yul\":943:949   */\n      dup2\n        /* \"#utility.yul\":938:941   */\n      dup6\n        /* \"#utility.yul\":879:950   */\n      tag_330\n      jump\t// in\n    tag_401:\n        /* \"#utility.yul\":872:950   */\n      swap4\n      pop\n        /* \"#utility.yul\":959:1011   */\n      tag_402\n        /* \"#utility.yul\":1004:1010   */\n      dup2\n        /* \"#utility.yul\":999:1002   */\n      dup6\n        /* \"#utility.yul\":992:996   */\n      0x20\n        /* \"#utility.yul\":985:990   */\n      dup7\n        /* \"#utility.yul\":981:997   */\n      add\n        /* \"#utility.yul\":959:1011   */\n      tag_331\n      jump\t// in\n    tag_402:\n        /* \"#utility.yul\":1036:1065   */\n      tag_403\n        /* \"#utility.yul\":1058:1064   */\n      dup2\n        /* \"#utility.yul\":1036:1065   */\n      tag_332\n      jump\t// in\n    tag_403:\n        /* \"#utility.yul\":1031:1034   */\n      dup5\n        /* \"#utility.yul\":1027:1066   */\n      add\n        /* \"#utility.yul\":1020:1066   */\n      swap2\n      pop\n        /* \"#utility.yul\":800:1072   */\n      pop\n        /* \"#utility.yul\":708:1072   */\n      swap3\n      swap2\n      pop\n      pop\n      jump\t// out\n        /* \"#utility.yul\":1078:1391   */\n    tag_37:\n        /* \"#utility.yul\":1191:1195   */\n      0x00\n        /* \"#utility.yul\":1229:1231   */\n      0x20\n        /* \"#utility.yul\":1218:1227   */\n      dup3\n        /* \"#utility.yul\":1214:1232   */\n      add\n        /* \"#utility.yul\":1206:1232   */\n      swap1\n      pop\n        /* \"#utility.yul\":1278:1287   */\n      dup2\n        /* \"#utility.yul\":1272:1276   */\n      dup2\n        /* \"#utility.yul\":1268:1288   */\n      sub\n        /* \"#utility.yul\":1264:1265   */\n      0x00\n        /* \"#utility.yul\":1253:1262   */\n      dup4\n        /* \"#utility.yul\":1249:1266   */\n      add\n        /* \"#utility.yul\":1242:1289   */\n      mstore\n        /* \"#utility.yul\":1306:1384   */\n      tag_405\n        /* \"#utility.yul\":1379:1383   */\n      dup2\n        /* \"#utility.yul\":1370:1376   */\n      dup5\n        /* \"#utility.yul\":1306:1384   */\n      tag_333\n      jump\t// in\n    tag_405:\n        /* \"#utility.yul\":1298:1384   */\n      swap1\n      pop\n        /* \"#utility.yul\":1078:1391   */\n      swap3\n      swap2\n      pop\n      pop\n      jump\t// out\n        /* \"#utility.yul\":1478:1595   */\n    tag_335:\n        /* \"#utility.yul\":1587:1588   */\n      0x00\n        /* \"#utility.yul\":1584:1585   */\n      dup1\n        /* \"#utility.yul\":1577:1589   */\n      revert\n        /* \"#utility.yul\":1724:1850   */\n    tag_337:\n        /* \"#utility.yul\":1761:1768   */\n      0x00\n        /* \"#utility.yul\":1801:1843   */\n      0xffffffffffffffffffffffffffffffffffffffff\n        /* \"#utility.yul\":1794:1799   */\n      dup3\n        /* \"#utility.yul\":1790:1844   */\n      and\n        /* \"#utility.yul\":1779:1844   */\n      swap1\n      pop\n        /* \"#utility.yul\":1724:1850   */\n      swap2\n      swap1\n      pop\n      jump\t// out\n        /* \"#utility.yul\":1856:1952   */\n    tag_338:\n        /* \"#utility.yul\":1893:1900   */\n      0x00\n        /* \"#utility.yul\":1922:1946   */\n      tag_411\n        /* \"#utility.yul\":1940:1945   */\n      dup3\n        /* \"#utility.yul\":1922:1946   */\n      tag_337\n      jump\t// in\n    tag_411:\n        /* \"#utility.yul\":1911:1946   */\n      swap1\n      pop\n        /* \"#utility.yul\":1856:1952   */\n      swap2\n      swap1\n      pop\n      jump\t// out\n        /* \"#utility.yul\":1958:2080   */\n    tag_339:\n        /* \"#utility.yul\":2031:2055   */\n      tag_413\n        /* \"#utility.yul\":2049:2054   */\n      dup2\n        /* \"#utility.yul\":2031:2055   */\n      tag_338\n      jump\t// in\n    tag_413:\n        /* \"#utility.yul\":2024:2029   */\n      dup2\n        /* \"#utility.yul\":2021:2056   */\n      eq\n        /* \"#utility.yul\":2011:2074   */\n      tag_414\n      jumpi\n        /* \"#utility.yul\":2070:2071   */\n      0x00\n        /* \"#utility.yul\":2067:2068   */\n      dup1\n        /* \"#utility.yul\":2060:2072   */\n      revert\n        /* \"#utility.yul\":2011:2074   */\n    tag_414:\n        /* \"#utility.yul\":1958:2080   */\n      pop\n      jump\t// out\n        /* \"#utility.yul\":2086:2225   */\n    tag_340:\n        /* \"#utility.yul\":2132:2137   */\n      0x00\n        /* \"#utility.yul\":2170:2176   */\n      dup2\n        /* \"#utility.yul\":2157:2177   */\n      calldataload\n        /* \"#utility.yul\":2148:2177   */\n      swap1\n      pop\n        /* \"#utility.yul\":2186:2219   */\n      tag_416\n        /* \"#utility.yul\":2213:2218   */\n      dup2\n        /* \"#utility.yul\":2186:2219   */\n      tag_339\n      jump\t// in\n    tag_416:\n        /* \"#utility.yul\":2086:2225   */\n      swap3\n      swap2\n      pop\n      pop\n      jump\t// out\n        /* \"#utility.yul\":2231:2308   */\n    tag_341:\n        /* \"#utility.yul\":2268:2275   */\n      0x00\n        /* \"#utility.yul\":2297:2302   */\n      dup2\n        /* \"#utility.yul\":2286:2302   */\n      swap1\n      pop\n        /* \"#utility.yul\":2231:2308   */\n      swap2\n      swap1\n      pop\n      jump\t// out\n        /* \"#utility.yul\":2314:2436   */\n    tag_342:\n        /* \"#utility.yul\":2387:2411   */\n      tag_419\n        /* \"#utility.yul\":2405:2410   */\n      dup2\n        /* \"#utility.yul\":2387:2411   */\n      tag_341\n      jump\t// in\n    tag_419:\n        /* \"#utility.yul\":2380:2385   */\n      dup2\n        /* \"#utility.yul\":2377:2412   */\n      eq\n        /* \"#utility.yul\":2367:2430   */\n      tag_420\n      jumpi\n        /* \"#utility.yul\":2426:2427   */\n      0x00\n        /* \"#utility.yul\":2423:2424   */\n      dup1\n        /* \"#utility.yul\":2416:2428   */\n      revert\n        /* \"#utility.yul\":2367:2430   */\n    tag_420:\n        /* \"#utility.yul\":2314:2436   */\n      pop\n      jump\t// out\n        /* \"#utility.yul\":2442:2581   */\n    tag_343:\n        /* \"#utility.yul\":2488:2493   */\n      0x00\n        /* \"#utility.yul\":2526:2532   */\n      dup2\n        /* \"#utility.yul\":2513:2533   */\n      calldataload\n        /* \"#utility.yul\":2504:2533   */\n      swap1\n      pop\n        /* \"#utility.yul\":2542:2575   */\n      tag_422\n        /* \"#utility.yul\":2569:2574   */\n      dup2\n        /* \"#utility.yul\":2542:2575   */\n      tag_342\n      jump\t// in\n    tag_422:\n        /* \"#utility.yul\":2442:2581   */\n      swap3\n      swap2\n      pop\n      pop\n      jump\t// out\n        /* \"#utility.yul\":2587:3061   */\n    tag_41:\n        /* \"#utility.yul\":2655:2661   */\n      0x00\n        /* \"#utility.yul\":2663:2669   */\n      dup1\n        /* \"#utility.yul\":2712:2714   */\n      0x40\n        /* \"#utility.yul\":2700:2709   */\n      dup4\n        /* \"#utility.yul\":2691:2698   */\n      dup6\n        /* \"#utility.yul\":2687:2710   */\n      sub\n        /* \"#utility.yul\":2683:2715   */\n      slt\n        /* \"#utility.yul\":2680:2799   */\n      iszero\n      tag_424\n      jumpi\n        /* \"#utility.yul\":2718:2797   */\n      tag_425\n      tag_335\n      jump\t// in\n    tag_425:\n        /* \"#utility.yul\":2680:2799   */\n    tag_424:\n        /* \"#utility.yul\":2838:2839   */\n      0x00\n        /* \"#utility.yul\":2863:2916   */\n      tag_426\n        /* \"#utility.yul\":2908:2915   */\n      dup6\n        /* \"#utility.yul\":2899:2905   */\n      dup3\n        /* \"#utility.yul\":2888:2897   */\n      dup7\n        /* \"#utility.yul\":2884:2906   */\n      add\n        /* \"#utility.yul\":2863:2916   */\n      tag_340\n      jump\t// in\n    tag_426:\n        /* \"#utility.yul\":2853:2916   */\n      swap3\n      pop\n        /* \"#utility.yul\":2809:2926   */\n      pop\n        /* \"#utility.yul\":2965:2967   */\n      0x20\n        /* \"#utility.yul\":2991:3044   */\n      tag_427\n        /* \"#utility.yul\":3036:3043   */\n      dup6\n        /* \"#utility.yul\":3027:3033   */\n      dup3\n        /* \"#utility.yul\":3016:3025   */\n      dup7\n        /* \"#utility.yul\":3012:3034   */\n      add\n        /* \"#utility.yul\":2991:3044   */\n      tag_343\n      jump\t// in\n    tag_427:\n        /* \"#utility.yul\":2981:3044   */\n      swap2\n      pop\n        /* \"#utility.yul\":2936:3054   */\n      pop\n        /* \"#utility.yul\":2587:3061   */\n      swap3\n      pop\n      swap3\n      swap1\n      pop\n      jump\t// out\n        /* \"#utility.yul\":3067:3157   */\n    tag_344:\n        /* \"#utility.yul\":3101:3108   */\n      0x00\n        /* \"#utility.yul\":3144:3149   */\n      dup2\n        /* \"#utility.yul\":3137:3150   */\n      iszero\n        /* \"#utility.yul\":3130:3151   */\n      iszero\n        /* \"#utility.yul\":3119:3151   */\n      swap1\n      pop\n        /* \"#utility.yul\":3067:3157   */\n      swap2\n      swap1\n      pop\n      jump\t// out\n        /* \"#utility.yul\":3163:3272   */\n    tag_345:\n        /* \"#utility.yul\":3244:3265   */\n      tag_430\n        /* \"#utility.yul\":3259:3264   */\n      dup2\n        /* \"#utility.yul\":3244:3265   */\n      tag_344\n      jump\t// in\n    tag_430:\n        /* \"#utility.yul\":3239:3242   */\n      dup3\n        /* \"#utility.yul\":3232:3266   */\n      mstore\n        /* \"#utility.yul\":3163:3272   */\n      pop\n      pop\n      jump\t// out\n        /* \"#utility.yul\":3278:3488   */\n    tag_44:\n        /* \"#utility.yul\":3365:3369   */\n      0x00\n        /* \"#utility.yul\":3403:3405   */\n      0x20\n        /* \"#utility.yul\":3392:3401   */\n      dup3\n        /* \"#utility.yul\":3388:3406   */\n      add\n        /* \"#utility.yul\":3380:3406   */\n      swap1\n      pop\n        /* \"#utility.yul\":3416:3481   */\n      tag_432\n        /* \"#utility.yul\":3478:3479   */\n      0x00\n        /* \"#utility.yul\":3467:3476   */\n      dup4\n        /* \"#utility.yul\":3463:3480   */\n      add\n        /* \"#utility.yul\":3454:3460   */\n      dup5\n        /* \"#utility.yul\":3416:3481   */\n      tag_345\n      jump\t// in\n    tag_432:\n        /* \"#utility.yul\":3278:3488   */\n      swap3\n      swap2\n      pop\n      pop\n      jump\t// out\n        /* \"#utility.yul\":3494:3612   */\n    tag_346:\n        /* \"#utility.yul\":3581:3605   */\n      tag_434\n        /* \"#utility.yul\":3599:3604   */\n      dup2\n        /* \"#utility.yul\":3581:3605   */\n      tag_341\n      jump\t// in\n    tag_434:\n        /* \"#utility.yul\":3576:3579   */\n      dup3\n        /* \"#utility.yul\":3569:3606   */\n      mstore\n        /* \"#utility.yul\":3494:3612   */\n      pop\n      pop\n      jump\t// out\n        /* \"#utility.yul\":3618:3840   */\n    tag_49:\n        /* \"#utility.yul\":3711:3715   */\n      0x00\n        /* \"#utility.yul\":3749:3751   */\n      0x20\n        /* \"#utility.yul\":3738:3747   */\n      dup3\n        /* \"#utility.yul\":3734:3752   */\n      add\n        /* \"#utility.yul\":3726:3752   */\n      swap1\n      pop\n        /* \"#utility.yul\":3762:3833   */\n      tag_436\n        /* \"#utility.yul\":3830:3831   */\n      0x00\n        /* \"#utility.yul\":3819:3828   */\n      dup4\n        /* \"#utility.yul\":3815:3832   */\n      add\n        /* \"#utility.yul\":3806:3812   */\n      dup5\n        /* \"#utility.yul\":3762:3833   */\n      tag_346\n      jump\t// in\n    tag_436:\n        /* \"#utility.yul\":3618:3840   */\n      swap3\n      swap2\n      pop\n      pop\n      jump\t// out\n        /* \"#utility.yul\":3846:4175   */\n    tag_53:\n        /* \"#utility.yul\":3905:3911   */\n      0x00\n        /* \"#utility.yul\":3954:3956   */\n      0x20\n        /* \"#utility.yul\":3942:3951   */\n      dup3\n        /* \"#utility.yul\":3933:3940   */\n      dup5\n        /* \"#utility.yul\":3929:3952   */\n      sub\n        /* \"#utility.yul\":3925:3957   */\n      slt\n        /* \"#utility.yul\":3922:4041   */\n      iszero\n      tag_438\n      jumpi\n        /* \"#utility.yul\":3960:4039   */\n      tag_439\n      tag_335\n      jump\t// in\n    tag_439:\n        /* \"#utility.yul\":3922:4041   */\n    tag_438:\n        /* \"#utility.yul\":4080:4081   */\n      0x00\n        /* \"#utility.yul\":4105:4158   */\n      tag_440\n        /* \"#utility.yul\":4150:4157   */\n      dup5\n        /* \"#utility.yul\":4141:4147   */\n      dup3\n        /* \"#utility.yul\":4130:4139   */\n      dup6\n        /* \"#utility.yul\":4126:4148   */\n      add\n        /* \"#utility.yul\":4105:4158   */\n      tag_343\n      jump\t// in\n    tag_440:\n        /* \"#utility.yul\":4095:4158   */\n      swap2\n      pop\n        /* \"#utility.yul\":4051:4168   */\n      pop\n        /* \"#utility.yul\":3846:4175   */\n      swap3\n      swap2\n      pop\n      pop\n      jump\t// out\n        /* \"#utility.yul\":4181:4800   */\n    tag_66:\n        /* \"#utility.yul\":4258:4264   */\n      0x00\n        /* \"#utility.yul\":4266:4272   */\n      dup1\n        /* \"#utility.yul\":4274:4280   */\n      0x00\n        /* \"#utility.yul\":4323:4325   */\n      0x60\n        /* \"#utility.yul\":4311:4320   */\n      dup5\n        /* \"#utility.yul\":4302:4309   */\n      dup7\n        /* \"#utility.yul\":4298:4321   */\n      sub\n        /* \"#utility.yul\":4294:4326   */\n      slt\n        /* \"#utility.yul\":4291:4410   */\n      iszero\n      tag_442\n      jumpi\n        /* \"#utility.yul\":4329:4408   */\n      tag_443\n      tag_335\n      jump\t// in\n    tag_443:\n        /* \"#utility.yul\":4291:4410   */\n    tag_442:\n        /* \"#utility.yul\":4449:4450   */\n      0x00\n        /* \"#utility.yul\":4474:4527   */\n      tag_444\n        /* \"#utility.yul\":4519:4526   */\n      dup7\n        /* \"#utility.yul\":4510:4516   */\n      dup3\n        /* \"#utility.yul\":4499:4508   */\n      dup8\n        /* \"#utility.yul\":4495:4517   */\n      add\n        /* \"#utility.yul\":4474:4527   */\n      tag_340\n      jump\t// in\n    tag_444:\n        /* \"#utility.yul\":4464:4527   */\n      swap4\n      pop\n        /* \"#utility.yul\":4420:4537   */\n      pop\n        /* \"#utility.yul\":4576:4578   */\n      0x20\n        /* \"#utility.yul\":4602:4655   */\n      tag_445\n        /* \"#utility.yul\":4647:4654   */\n      dup7\n        /* \"#utility.yul\":4638:4644   */\n      dup3\n        /* \"#utility.yul\":4627:4636   */\n      dup8\n        /* \"#utility.yul\":4623:4645   */\n      add\n        /* \"#utility.yul\":4602:4655   */\n      tag_340\n      jump\t// in\n    tag_445:\n        /* \"#utility.yul\":4592:4655   */\n      swap3\n      pop\n        /* \"#utility.yul\":4547:4665   */\n      pop\n        /* \"#utility.yul\":4704:4706   */\n      0x40\n        /* \"#utility.yul\":4730:4783   */\n      tag_446\n        /* \"#utility.yul\":4775:4782   */\n      dup7\n        /* \"#utility.yul\":4766:4772   */\n      dup3\n        /* \"#utility.yul\":4755:4764   */\n      dup8\n        /* \"#utility.yul\":4751:4773   */\n      add\n        /* \"#utility.yul\":4730:4783   */\n      tag_343\n      jump\t// in\n    tag_446:\n        /* \"#utility.yul\":4720:4783   */\n      swap2\n      pop\n        /* \"#utility.yul\":4675:4793   */\n      pop\n        /* \"#utility.yul\":4181:4800   */\n      swap3\n      pop\n      swap3\n      pop\n      swap3\n      jump\t// out\n        /* \"#utility.yul\":4806:4892   */\n    tag_347:\n        /* \"#utility.yul\":4841:4848   */\n      0x00\n        /* \"#utility.yul\":4881:4885   */\n      0xff\n        /* \"#utility.yul\":4874:4879   */\n      dup3\n        /* \"#utility.yul\":4870:4886   */\n      and\n        /* \"#utility.yul\":4859:4886   */\n      swap1\n      pop\n        /* \"#utility.yul\":4806:4892   */\n      swap2\n      swap1\n      pop\n      jump\t// out\n        /* \"#utility.yul\":4898:5010   */\n    tag_348:\n        /* \"#utility.yul\":4981:5003   */\n      tag_449\n        /* \"#utility.yul\":4997:5002   */\n      dup2\n        /* \"#utility.yul\":4981:5003   */\n      tag_347\n      jump\t// in\n    tag_449:\n        /* \"#utility.yul\":4976:4979   */\n      dup3\n        /* \"#utility.yul\":4969:5004   */\n      mstore\n        /* \"#utility.yul\":4898:5010   */\n      pop\n      pop\n      jump\t// out\n        /* \"#utility.yul\":5016:5230   */\n    tag_73:\n        /* \"#utility.yul\":5105:5109   */\n      0x00\n        /* \"#utility.yul\":5143:5145   */\n      0x20\n        /* \"#utility.yul\":5132:5141   */\n      dup3\n        /* \"#utility.yul\":5128:5146   */\n      add\n        /* \"#utility.yul\":5120:5146   */\n      swap1\n      pop\n        /* \"#utility.yul\":5156:5223   */\n      tag_451\n        /* \"#utility.yul\":5220:5221   */\n      0x00\n        /* \"#utility.yul\":5209:5218   */\n      dup4\n        /* \"#utility.yul\":5205:5222   */\n      add\n        /* \"#utility.yul\":5196:5202   */\n      dup5\n        /* \"#utility.yul\":5156:5223   */\n      tag_348\n      jump\t// in\n    tag_451:\n        /* \"#utility.yul\":5016:5230   */\n      swap3\n      swap2\n      pop\n      pop\n      jump\t// out\n        /* \"#utility.yul\":5236:5565   */\n    tag_80:\n        /* \"#utility.yul\":5295:5301   */\n      0x00\n        /* \"#utility.yul\":5344:5346   */\n      0x20\n        /* \"#utility.yul\":5332:5341   */\n      dup3\n        /* \"#utility.yul\":5323:5330   */\n      dup5\n        /* \"#utility.yul\":5319:5342   */\n      sub\n        /* \"#utility.yul\":5315:5347   */\n      slt\n        /* \"#utility.yul\":5312:5431   */\n      iszero\n      tag_453\n      jumpi\n        /* \"#utility.yul\":5350:5429   */\n      tag_454\n      tag_335\n      jump\t// in\n    tag_454:\n        /* \"#utility.yul\":5312:5431   */\n    tag_453:\n        /* \"#utility.yul\":5470:5471   */\n      0x00\n        /* \"#utility.yul\":5495:5548   */\n      tag_455\n        /* \"#utility.yul\":5540:5547   */\n      dup5\n        /* \"#utility.yul\":5531:5537   */\n      dup3\n        /* \"#utility.yul\":5520:5529   */\n      dup6\n        /* \"#utility.yul\":5516:5538   */\n      add\n        /* \"#utility.yul\":5495:5548   */\n      tag_340\n      jump\t// in\n    tag_455:\n        /* \"#utility.yul\":5485:5548   */\n      swap2\n      pop\n        /* \"#utility.yul\":5441:5558   */\n      pop\n        /* \"#utility.yul\":5236:5565   */\n      swap3\n      swap2\n      pop\n      pop\n      jump\t// out\n        /* \"#utility.yul\":5571:5689   */\n    tag_349:\n        /* \"#utility.yul\":5658:5682   */\n      tag_457\n        /* \"#utility.yul\":5676:5681   */\n      dup2\n        /* \"#utility.yul\":5658:5682   */\n      tag_338\n      jump\t// in\n    tag_457:\n        /* \"#utility.yul\":5653:5656   */\n      dup3\n        /* \"#utility.yul\":5646:5683   */\n      mstore\n        /* \"#utility.yul\":5571:5689   */\n      pop\n      pop\n      jump\t// out\n        /* \"#utility.yul\":5695:5917   */\n    tag_97:\n        /* \"#utility.yul\":5788:5792   */\n      0x00\n        /* \"#utility.yul\":5826:5828   */\n      0x20\n        /* \"#utility.yul\":5815:5824   */\n      dup3\n        /* \"#utility.yul\":5811:5829   */\n      add\n        /* \"#utility.yul\":5803:5829   */\n      swap1\n      pop\n        /* \"#utility.yul\":5839:5910   */\n      tag_459\n        /* \"#utility.yul\":5907:5908   */\n      0x00\n        /* \"#utility.yul\":5896:5905   */\n      dup4\n        /* \"#utility.yul\":5892:5909   */\n      add\n        /* \"#utility.yul\":5883:5889   */\n      dup5\n        /* \"#utility.yul\":5839:5910   */\n      tag_349\n      jump\t// in\n    tag_459:\n        /* \"#utility.yul\":5695:5917   */\n      swap3\n      swap2\n      pop\n      pop\n      jump\t// out\n        /* \"#utility.yul\":5923:6397   */\n    tag_126:\n        /* \"#utility.yul\":5991:5997   */\n      0x00\n        /* \"#utility.yul\":5999:6005   */\n      dup1\n        /* \"#utility.yul\":6048:6050   */\n      0x40\n        /* \"#utility.yul\":6036:6045   */\n      dup4\n        /* \"#utility.yul\":6027:6034   */\n      dup6\n        /* \"#utility.yul\":6023:6046   */\n      sub\n        /* \"#utility.yul\":6019:6051   */\n      slt\n        /* \"#utility.yul\":6016:6135   */\n      iszero\n      tag_461\n      jumpi\n        /* \"#utility.yul\":6054:6133   */\n      tag_462\n      tag_335\n      jump\t// in\n    tag_462:\n        /* \"#utility.yul\":6016:6135   */\n    tag_461:\n        /* \"#utility.yul\":6174:6175   */\n      0x00\n        /* \"#utility.yul\":6199:6252   */\n      tag_463\n        /* \"#utility.yul\":6244:6251   */\n      dup6\n        /* \"#utility.yul\":6235:6241   */\n      dup3\n        /* \"#utility.yul\":6224:6233   */\n      dup7\n        /* \"#utility.yul\":6220:6242   */\n      add\n        /* \"#utility.yul\":6199:6252   */\n      tag_340\n      jump\t// in\n    tag_463:\n        /* \"#utility.yul\":6189:6252   */\n      swap3\n      pop\n        /* \"#utility.yul\":6145:6262   */\n      pop\n        /* \"#utility.yul\":6301:6303   */\n      0x20\n        /* \"#utility.yul\":6327:6380   */\n      tag_464\n        /* \"#utility.yul\":6372:6379   */\n      dup6\n        /* \"#utility.yul\":6363:6369   */\n      dup3\n        /* \"#utility.yul\":6352:6361   */\n      dup7\n        /* \"#utility.yul\":6348:6370   */\n      add\n        /* \"#utility.yul\":6327:6380   */\n      tag_340\n      jump\t// in\n    tag_464:\n        /* \"#utility.yul\":6317:6380   */\n      swap2\n      pop\n        /* \"#utility.yul\":6272:6390   */\n      pop\n        /* \"#utility.yul\":5923:6397   */\n      swap3\n      pop\n      swap3\n      swap1\n      pop\n      jump\t// out\n        /* \"#utility.yul\":6403:6585   */\n    tag_350:\n        /* \"#utility.yul\":6543:6577   */\n      0x4f776e61626c653a2063616c6c6572206973206e6f7420746865206f776e6572\n        /* \"#utility.yul\":6539:6540   */\n      0x00\n        /* \"#utility.yul\":6531:6537   */\n      dup3\n        /* \"#utility.yul\":6527:6541   */\n      add\n        /* \"#utility.yul\":6520:6578   */\n      mstore\n        /* \"#utility.yul\":6403:6585   */\n      pop\n      jump\t// out\n        /* \"#utility.yul\":6591:6957   */\n    tag_351:\n        /* \"#utility.yul\":6733:6736   */\n      0x00\n        /* \"#utility.yul\":6754:6821   */\n      tag_467\n        /* \"#utility.yul\":6818:6820   */\n      0x20\n        /* \"#utility.yul\":6813:6816   */\n      dup4\n        /* \"#utility.yul\":6754:6821   */\n      tag_330\n      jump\t// in\n    tag_467:\n        /* \"#utility.yul\":6747:6821   */\n      swap2\n      pop\n        /* \"#utility.yul\":6830:6923   */\n      tag_468\n        /* \"#utility.yul\":6919:6922   */\n      dup3\n        /* \"#utility.yul\":6830:6923   */\n      tag_350\n      jump\t// in\n    tag_468:\n        /* \"#utility.yul\":6948:6950   */\n      0x20\n        /* \"#utility.yul\":6943:6946   */\n      dup3\n        /* \"#utility.yul\":6939:6951   */\n      add\n        /* \"#utility.yul\":6932:6951   */\n      swap1\n      pop\n        /* \"#utility.yul\":6591:6957   */\n      swap2\n      swap1\n      pop\n      jump\t// out\n        /* \"#utility.yul\":6963:7382   */\n    tag_134:\n        /* \"#utility.yul\":7129:7133   */\n      0x00\n        /* \"#utility.yul\":7167:7169   */\n      0x20\n        /* \"#utility.yul\":7156:7165   */\n      dup3\n        /* \"#utility.yul\":7152:7170   */\n      add\n        /* \"#utility.yul\":7144:7170   */\n      swap1\n      pop\n        /* \"#utility.yul\":7216:7225   */\n      dup2\n        /* \"#utility.yul\":7210:7214   */\n      dup2\n        /* \"#utility.yul\":7206:7226   */\n      sub\n        /* \"#utility.yul\":7202:7203   */\n      0x00\n        /* \"#utility.yul\":7191:7200   */\n      dup4\n        /* \"#utility.yul\":7187:7204   */\n      add\n        /* \"#utility.yul\":7180:7227   */\n      mstore\n        /* \"#utility.yul\":7244:7375   */\n      tag_470\n        /* \"#utility.yul\":7370:7374   */\n      dup2\n        /* \"#utility.yul\":7244:7375   */\n      tag_351\n      jump\t// in\n    tag_470:\n        /* \"#utility.yul\":7236:7375   */\n      swap1\n      pop\n        /* \"#utility.yul\":6963:7382   */\n      swap2\n      swap1\n      pop\n      jump\t// out\n        /* \"#utility.yul\":7388:7561   */\n    tag_352:\n        /* \"#utility.yul\":7528:7553   */\n      0x74726164696e6720697320616c7265616479206f70656e000000000000000000\n        /* \"#utility.yul\":7524:7525   */\n      0x00\n        /* \"#utility.yul\":7516:7522   */\n      dup3\n        /* \"#utility.yul\":7512:7526   */\n      add\n        /* \"#utility.yul\":7505:7554   */\n      mstore\n        /* \"#utility.yul\":7388:7561   */\n      pop\n      jump\t// out\n        /* \"#utility.yul\":7567:7933   */\n    tag_353:\n        /* \"#utility.yul\":7709:7712   */\n      0x00\n        /* \"#utility.yul\":7730:7797   */\n      tag_473\n        /* \"#utility.yul\":7794:7796   */\n      0x17\n        /* \"#utility.yul\":7789:7792   */\n      dup4\n        /* \"#utility.yul\":7730:7797   */\n      tag_330\n      jump\t// in\n    tag_473:\n        /* \"#utility.yul\":7723:7797   */\n      swap2\n      pop\n        /* \"#utility.yul\":7806:7899   */\n      tag_474\n        /* \"#utility.yul\":7895:7898   */\n      dup3\n        /* \"#utility.yul\":7806:7899   */\n      tag_352\n      jump\t// in\n    tag_474:\n        /* \"#utility.yul\":7924:7926   */\n      0x20\n        /* \"#utility.yul\":7919:7922   */\n      dup3\n        /* \"#utility.yul\":7915:7927   */\n      add\n        /* \"#utility.yul\":7908:7927   */\n      swap1\n      pop\n        /* \"#utility.yul\":7567:7933   */\n      swap2\n      swap1\n      pop\n      jump\t// out\n        /* \"#utility.yul\":7939:8358   */\n    tag_138:\n        /* \"#utility.yul\":8105:8109   */\n      0x00\n        /* \"#utility.yul\":8143:8145   */\n      0x20\n        /* \"#utility.yul\":8132:8141   */\n      dup3\n        /* \"#utility.yul\":8128:8146   */\n      add\n        /* \"#utility.yul\":8120:8146   */\n      swap1\n      pop\n        /* \"#utility.yul\":8192:8201   */\n      dup2\n        /* \"#utility.yul\":8186:8190   */\n      dup2\n        /* \"#utility.yul\":8182:8202   */\n      sub\n        /* \"#utility.yul\":8178:8179   */\n      0x00\n        /* \"#utility.yul\":8167:8176   */\n      dup4\n        /* \"#utility.yul\":8163:8180   */\n      add\n        /* \"#utility.yul\":8156:8203   */\n      mstore\n        /* \"#utility.yul\":8220:8351   */\n      tag_476\n        /* \"#utility.yul\":8346:8350   */\n      dup2\n        /* \"#utility.yul\":8220:8351   */\n      tag_353\n      jump\t// in\n    tag_476:\n        /* \"#utility.yul\":8212:8351   */\n      swap1\n      pop\n        /* \"#utility.yul\":7939:8358   */\n      swap2\n      swap1\n      pop\n      jump\t// out\n        /* \"#utility.yul\":8364:8544   */\n    tag_354:\n        /* \"#utility.yul\":8412:8489   */\n      0x4e487b7100000000000000000000000000000000000000000000000000000000\n        /* \"#utility.yul\":8409:8410   */\n      0x00\n        /* \"#utility.yul\":8402:8490   */\n      mstore\n        /* \"#utility.yul\":8509:8513   */\n      0x11\n        /* \"#utility.yul\":8506:8507   */\n      0x04\n        /* \"#utility.yul\":8499:8514   */\n      mstore\n        /* \"#utility.yul\":8533:8537   */\n      0x24\n        /* \"#utility.yul\":8530:8531   */\n      0x00\n        /* \"#utility.yul\":8523:8538   */\n      revert\n        /* \"#utility.yul\":8550:8652   */\n    tag_355:\n        /* \"#utility.yul\":8592:8600   */\n      0x00\n        /* \"#utility.yul\":8639:8644   */\n      dup2\n        /* \"#utility.yul\":8636:8637   */\n      0x01\n        /* \"#utility.yul\":8632:8645   */\n      shr\n        /* \"#utility.yul\":8611:8645   */\n      swap1\n      pop\n        /* \"#utility.yul\":8550:8652   */\n      swap2\n      swap1\n      pop\n      jump\t// out\n        /* \"#utility.yul\":8658:9506   */\n    tag_356:\n        /* \"#utility.yul\":8719:8724   */\n      0x00\n        /* \"#utility.yul\":8726:8730   */\n      dup1\n        /* \"#utility.yul\":8750:8756   */\n      dup3\n        /* \"#utility.yul\":8741:8756   */\n      swap2\n      pop\n        /* \"#utility.yul\":8774:8779   */\n      dup4\n        /* \"#utility.yul\":8765:8779   */\n      swap1\n      pop\n        /* \"#utility.yul\":8788:9500   */\n    tag_480:\n        /* \"#utility.yul\":8809:8810   */\n      0x01\n        /* \"#utility.yul\":8799:8807   */\n      dup6\n        /* \"#utility.yul\":8796:8811   */\n      gt\n        /* \"#utility.yul\":8788:9500   */\n      iszero\n      tag_482\n      jumpi\n        /* \"#utility.yul\":8904:8908   */\n      dup1\n        /* \"#utility.yul\":8899:8902   */\n      dup7\n        /* \"#utility.yul\":8895:8909   */\n      div\n        /* \"#utility.yul\":8889:8893   */\n      dup2\n        /* \"#utility.yul\":8886:8910   */\n      gt\n        /* \"#utility.yul\":8883:8933   */\n      iszero\n      tag_483\n      jumpi\n        /* \"#utility.yul\":8913:8931   */\n      tag_484\n      tag_354\n      jump\t// in\n    tag_484:\n        /* \"#utility.yul\":8883:8933   */\n    tag_483:\n        /* \"#utility.yul\":8963:8964   */\n      0x01\n        /* \"#utility.yul\":8953:8961   */\n      dup6\n        /* \"#utility.yul\":8949:8965   */\n      and\n        /* \"#utility.yul\":8946:9397   */\n      iszero\n      tag_485\n      jumpi\n        /* \"#utility.yul\":9378:9382   */\n      dup1\n        /* \"#utility.yul\":9371:9376   */\n      dup3\n        /* \"#utility.yul\":9367:9383   */\n      mul\n        /* \"#utility.yul\":9358:9383   */\n      swap2\n      pop\n        /* \"#utility.yul\":8946:9397   */\n    tag_485:\n        /* \"#utility.yul\":9428:9432   */\n      dup1\n        /* \"#utility.yul\":9422:9426   */\n      dup2\n        /* \"#utility.yul\":9418:9433   */\n      mul\n        /* \"#utility.yul\":9410:9433   */\n      swap1\n      pop\n        /* \"#utility.yul\":9458:9490   */\n      tag_486\n        /* \"#utility.yul\":9481:9489   */\n      dup6\n        /* \"#utility.yul\":9458:9490   */\n      tag_355\n      jump\t// in\n    tag_486:\n        /* \"#utility.yul\":9446:9490   */\n      swap5\n      pop\n        /* \"#utility.yul\":8788:9500   */\n      jump(tag_480)\n    tag_482:\n        /* \"#utility.yul\":8658:9506   */\n      swap5\n      pop\n      swap5\n      swap3\n      pop\n      pop\n      pop\n      jump\t// out\n        /* \"#utility.yul\":9512:10585   */\n    tag_357:\n        /* \"#utility.yul\":9566:9571   */\n      0x00\n        /* \"#utility.yul\":9757:9765   */\n      dup3\n        /* \"#utility.yul\":9747:9787   */\n      tag_488\n      jumpi\n        /* \"#utility.yul\":9778:9779   */\n      0x01\n        /* \"#utility.yul\":9769:9779   */\n      swap1\n      pop\n        /* \"#utility.yul\":9780:9785   */\n      jump(tag_487)\n        /* \"#utility.yul\":9747:9787   */\n    tag_488:\n        /* \"#utility.yul\":9806:9810   */\n      dup2\n        /* \"#utility.yul\":9796:9832   */\n      tag_489\n      jumpi\n        /* \"#utility.yul\":9823:9824   */\n      0x00\n        /* \"#utility.yul\":9814:9824   */\n      swap1\n      pop\n        /* \"#utility.yul\":9825:9830   */\n      jump(tag_487)\n        /* \"#utility.yul\":9796:9832   */\n    tag_489:\n        /* \"#utility.yul\":9892:9896   */\n      dup2\n        /* \"#utility.yul\":9940:9941   */\n      0x01\n        /* \"#utility.yul\":9935:9962   */\n      dup2\n      eq\n      tag_491\n      jumpi\n        /* \"#utility.yul\":9976:9977   */\n      0x02\n        /* \"#utility.yul\":9971:10162   */\n      dup2\n      eq\n      tag_492\n      jumpi\n        /* \"#utility.yul\":9885:10162   */\n      jump(tag_490)\n        /* \"#utility.yul\":9935:9962   */\n    tag_491:\n        /* \"#utility.yul\":9953:9954   */\n      0x01\n        /* \"#utility.yul\":9944:9954   */\n      swap2\n      pop\n        /* \"#utility.yul\":9955:9960   */\n      pop\n      jump(tag_487)\n        /* \"#utility.yul\":9971:10162   */\n    tag_492:\n        /* \"#utility.yul\":10016:10019   */\n      0xff\n        /* \"#utility.yul\":10006:10014   */\n      dup5\n        /* \"#utility.yul\":10003:10020   */\n      gt\n        /* \"#utility.yul\":10000:10043   */\n      iszero\n      tag_493\n      jumpi\n        /* \"#utility.yul\":10023:10041   */\n      tag_494\n      tag_354\n      jump\t// in\n    tag_494:\n        /* \"#utility.yul\":10000:10043   */\n    tag_493:\n        /* \"#utility.yul\":10072:10080   */\n      dup4\n        /* \"#utility.yul\":10069:10070   */\n      0x02\n        /* \"#utility.yul\":10065:10081   */\n      exp\n        /* \"#utility.yul\":10056:10081   */\n      swap2\n      pop\n        /* \"#utility.yul\":10107:10110   */\n      dup5\n        /* \"#utility.yul\":10100:10105   */\n      dup3\n        /* \"#utility.yul\":10097:10111   */\n      gt\n        /* \"#utility.yul\":10094:10134   */\n      iszero\n      tag_495\n      jumpi\n        /* \"#utility.yul\":10114:10132   */\n      tag_496\n      tag_354\n      jump\t// in\n    tag_496:\n        /* \"#utility.yul\":10094:10134   */\n    tag_495:\n        /* \"#utility.yul\":10147:10152   */\n      pop\n      jump(tag_487)\n        /* \"#utility.yul\":9885:10162   */\n    tag_490:\n      pop\n        /* \"#utility.yul\":10271:10273   */\n      0x20\n        /* \"#utility.yul\":10261:10269   */\n      dup4\n        /* \"#utility.yul\":10258:10274   */\n      lt\n        /* \"#utility.yul\":10252:10255   */\n      0x0133\n        /* \"#utility.yul\":10246:10250   */\n      dup4\n        /* \"#utility.yul\":10243:10256   */\n      lt\n        /* \"#utility.yul\":10239:10275   */\n      and\n        /* \"#utility.yul\":10221:10223   */\n      0x4e\n        /* \"#utility.yul\":10211:10219   */\n      dup5\n        /* \"#utility.yul\":10208:10224   */\n      lt\n        /* \"#utility.yul\":10203:10205   */\n      0x0b\n        /* \"#utility.yul\":10197:10201   */\n      dup5\n        /* \"#utility.yul\":10194:10206   */\n      lt\n        /* \"#utility.yul\":10190:10225   */\n      and\n        /* \"#utility.yul\":10174:10285   */\n      or\n        /* \"#utility.yul\":10171:10417   */\n      iszero\n      tag_497\n      jumpi\n        /* \"#utility.yul\":10327:10335   */\n      dup3\n        /* \"#utility.yul\":10321:10325   */\n      dup3\n        /* \"#utility.yul\":10317:10336   */\n      exp\n        /* \"#utility.yul\":10308:10336   */\n      swap1\n      pop\n        /* \"#utility.yul\":10362:10365   */\n      dup4\n        /* \"#utility.yul\":10355:10360   */\n      dup2\n        /* \"#utility.yul\":10352:10366   */\n      gt\n        /* \"#utility.yul\":10349:10389   */\n      iszero\n      tag_498\n      jumpi\n        /* \"#utility.yul\":10369:10387   */\n      tag_499\n      tag_354\n      jump\t// in\n    tag_499:\n        /* \"#utility.yul\":10349:10389   */\n    tag_498:\n        /* \"#utility.yul\":10402:10407   */\n      jump(tag_487)\n        /* \"#utility.yul\":10171:10417   */\n    tag_497:\n        /* \"#utility.yul\":10442:10484   */\n      tag_500\n        /* \"#utility.yul\":10480:10483   */\n      dup5\n        /* \"#utility.yul\":10470:10478   */\n      dup5\n        /* \"#utility.yul\":10464:10468   */\n      dup5\n        /* \"#utility.yul\":10461:10462   */\n      0x01\n        /* \"#utility.yul\":10442:10484   */\n      tag_356\n      jump\t// in\n    tag_500:\n        /* \"#utility.yul\":10427:10484   */\n      swap3\n      pop\n      swap1\n      pop\n        /* \"#utility.yul\":10516:10520   */\n      dup2\n        /* \"#utility.yul\":10511:10514   */\n      dup5\n        /* \"#utility.yul\":10507:10521   */\n      div\n        /* \"#utility.yul\":10500:10505   */\n      dup2\n        /* \"#utility.yul\":10497:10522   */\n      gt\n        /* \"#utility.yul\":10494:10545   */\n      iszero\n      tag_501\n      jumpi\n        /* \"#utility.yul\":10525:10543   */\n      tag_502\n      tag_354\n      jump\t// in\n    tag_502:\n        /* \"#utility.yul\":10494:10545   */\n    tag_501:\n        /* \"#utility.yul\":10574:10578   */\n      dup2\n        /* \"#utility.yul\":10567:10572   */\n      dup2\n        /* \"#utility.yul\":10563:10579   */\n      mul\n        /* \"#utility.yul\":10554:10579   */\n      swap1\n      pop\n        /* \"#utility.yul\":9512:10585   */\n    tag_487:\n      swap4\n      swap3\n      pop\n      pop\n      pop\n      jump\t// out\n        /* \"#utility.yul\":10591:10872   */\n    tag_141:\n        /* \"#utility.yul\":10649:10654   */\n      0x00\n        /* \"#utility.yul\":10673:10696   */\n      tag_504\n        /* \"#utility.yul\":10691:10695   */\n      dup3\n        /* \"#utility.yul\":10673:10696   */\n      tag_341\n      jump\t// in\n    tag_504:\n        /* \"#utility.yul\":10665:10696   */\n      swap2\n      pop\n        /* \"#utility.yul\":10717:10742   */\n      tag_505\n        /* \"#utility.yul\":10733:10741   */\n      dup4\n        /* \"#utility.yul\":10717:10742   */\n      tag_347\n      jump\t// in\n    tag_505:\n        /* \"#utility.yul\":10705:10742   */\n      swap3\n      pop\n        /* \"#utility.yul\":10761:10865   */\n      tag_506\n        /* \"#utility.yul\":10798:10864   */\n      0xffffffffffffffffffffffffffffffffffffffffffffffffffffffffffffffff\n        /* \"#utility.yul\":10788:10796   */\n      dup5\n        /* \"#utility.yul\":10782:10786   */\n      dup5\n        /* \"#utility.yul\":10761:10865   */\n      tag_357\n      jump\t// in\n    tag_506:\n        /* \"#utility.yul\":10752:10865   */\n      swap1\n      pop\n        /* \"#utility.yul\":10591:10872   */\n      swap3\n      swap2\n      pop\n      pop\n      jump\t// out\n        /* \"#utility.yul\":10878:11226   */\n    tag_143:\n        /* \"#utility.yul\":10918:10925   */\n      0x00\n        /* \"#utility.yul\":10941:10961   */\n      tag_508\n        /* \"#utility.yul\":10959:10960   */\n      dup3\n        /* \"#utility.yul\":10941:10961   */\n      tag_341\n      jump\t// in\n    tag_508:\n        /* \"#utility.yul\":10936:10961   */\n      swap2\n      pop\n        /* \"#utility.yul\":10975:10995   */\n      tag_509\n        /* \"#utility.yul\":10993:10994   */\n      dup4\n        /* \"#utility.yul\":10975:10995   */\n      tag_341\n      jump\t// in\n    tag_509:\n        /* \"#utility.yul\":10970:10995   */\n      swap3\n      pop\n        /* \"#utility.yul\":11163:11164   */\n      dup2\n        /* \"#utility.yul\":11095:11161   */\n      0xffffffffffffffffffffffffffffffffffffffffffffffffffffffffffffffff\n        /* \"#utility.yul\":11091:11165   */\n      div\n        /* \"#utility.yul\":11088:11089   */\n      dup4\n        /* \"#utility.yul\":11085:11166   */\n      gt\n        /* \"#utility.yul\":11080:11081   */\n      dup3\n        /* \"#utility.yul\":11073:11082   */\n      iszero\n        /* \"#utility.yul\":11066:11083   */\n      iszero\n        /* \"#utility.yul\":11062:11167   */\n      and\n        /* \"#utility.yul\":11059:11190   */\n      iszero\n      tag_510\n      jumpi\n        /* \"#utility.yul\":11170:11188   */\n      tag_511\n      tag_354\n      jump\t// in\n    tag_511:\n        /* \"#utility.yul\":11059:11190   */\n    tag_510:\n        /* \"#utility.yul\":11218:11219   */\n      dup3\n        /* \"#utility.yul\":11215:11216   */\n      dup3\n        /* \"#utility.yul\":11211:11220   */\n      mul\n        /* \"#utility.yul\":11200:11220   */\n      swap1\n      pop\n        /* \"#utility.yul\":10878:11226   */\n      swap3\n      swap2\n      pop\n      pop\n      jump\t// out\n        /* \"#utility.yul\":11232:11375   */\n    tag_358:\n        /* \"#utility.yul\":11289:11294   */\n      0x00\n        /* \"#utility.yul\":11320:11326   */\n      dup2\n        /* \"#utility.yul\":11314:11327   */\n      mload\n        /* \"#utility.yul\":11305:11327   */\n      swap1\n      pop\n        /* \"#utility.yul\":11336:11369   */\n      tag_513\n        /* \"#utility.yul\":11363:11368   */\n      dup2\n        /* \"#utility.yul\":11336:11369   */\n      tag_339\n      jump\t// in\n    tag_513:\n        /* \"#utility.yul\":11232:11375   */\n      swap3\n      swap2\n      pop\n      pop\n      jump\t// out\n        /* \"#utility.yul\":11381:11732   */\n    tag_148:\n        /* \"#utility.yul\":11451:11457   */\n      0x00\n        /* \"#utility.yul\":11500:11502   */\n      0x20\n        /* \"#utility.yul\":11488:11497   */\n      dup3\n        /* \"#utility.yul\":11479:11486   */\n      dup5\n        /* \"#utility.yul\":11475:11498   */\n      sub\n        /* \"#utility.yul\":11471:11503   */\n      slt\n        /* \"#utility.yul\":11468:11587   */\n      iszero\n      tag_515\n      jumpi\n        /* \"#utility.yul\":11506:11585   */\n      tag_516\n      tag_335\n      jump\t// in\n    tag_516:\n        /* \"#utility.yul\":11468:11587   */\n    tag_515:\n        /* \"#utility.yul\":11626:11627   */\n      0x00\n        /* \"#utility.yul\":11651:11715   */\n      tag_517\n        /* \"#utility.yul\":11707:11714   */\n      dup5\n        /* \"#utility.yul\":11698:11704   */\n      dup3\n        /* \"#utility.yul\":11687:11696   */\n      dup6\n        /* \"#utility.yul\":11683:11705   */\n      add\n        /* \"#utility.yul\":11651:11715   */\n      tag_358\n      jump\t// in\n    tag_517:\n        /* \"#utility.yul\":11641:11715   */\n      swap2\n      pop\n        /* \"#utility.yul\":11597:11725   */\n      pop\n        /* \"#utility.yul\":11381:11732   */\n      swap3\n      swap2\n      pop\n      pop\n      jump\t// out\n        /* \"#utility.yul\":11738:12070   */\n    tag_153:\n        /* \"#utility.yul\":11859:11863   */\n      0x00\n        /* \"#utility.yul\":11897:11899   */\n      0x40\n        /* \"#utility.yul\":11886:11895   */\n      dup3\n        /* \"#utility.yul\":11882:11900   */\n      add\n        /* \"#utility.yul\":11874:11900   */\n      swap1\n      pop\n        /* \"#utility.yul\":11910:11981   */\n      tag_519\n        /* \"#utility.yul\":11978:11979   */\n      0x00\n        /* \"#utility.yul\":11967:11976   */\n      dup4\n        /* \"#utility.yul\":11963:11980   */\n      add\n        /* \"#utility.yul\":11954:11960   */\n      dup6\n        /* \"#utility.yul\":11910:11981   */\n      tag_349\n      jump\t// in\n    tag_519:\n        /* \"#utility.yul\":11991:12063   */\n      tag_520\n        /* \"#utility.yul\":12059:12061   */\n      0x20\n        /* \"#utility.yul\":12048:12057   */\n      dup4\n        /* \"#utility.yul\":12044:12062   */\n      add\n        /* \"#utility.yul\":12035:12041   */\n      dup5\n        /* \"#utility.yul\":11991:12063   */\n      tag_349\n      jump\t// in\n    tag_520:\n        /* \"#utility.yul\":11738:12070   */\n      swap4\n      swap3\n      pop\n      pop\n      pop\n      jump\t// out\n        /* \"#utility.yul\":12076:12161   */\n    tag_359:\n        /* \"#utility.yul\":12121:12128   */\n      0x00\n        /* \"#utility.yul\":12150:12155   */\n      dup2\n        /* \"#utility.yul\":12139:12155   */\n      swap1\n      pop\n        /* \"#utility.yul\":12076:12161   */\n      swap2\n      swap1\n      pop\n      jump\t// out\n        /* \"#utility.yul\":12167:12227   */\n    tag_360:\n        /* \"#utility.yul\":12195:12198   */\n      0x00\n        /* \"#utility.yul\":12216:12221   */\n      dup2\n        /* \"#utility.yul\":12209:12221   */\n      swap1\n      pop\n        /* \"#utility.yul\":12167:12227   */\n      swap2\n      swap1\n      pop\n      jump\t// out\n        /* \"#utility.yul\":12233:12391   */\n    tag_361:\n        /* \"#utility.yul\":12291:12300   */\n      0x00\n        /* \"#utility.yul\":12324:12385   */\n      tag_524\n        /* \"#utility.yul\":12342:12384   */\n      tag_525\n        /* \"#utility.yul\":12351:12383   */\n      tag_526\n        /* \"#utility.yul\":12377:12382   */\n      dup5\n        /* \"#utility.yul\":12351:12383   */\n      tag_359\n      jump\t// in\n    tag_526:\n        /* \"#utility.yul\":12342:12384   */\n      tag_360\n      jump\t// in\n    tag_525:\n        /* \"#utility.yul\":12324:12385   */\n      tag_341\n      jump\t// in\n    tag_524:\n        /* \"#utility.yul\":12311:12385   */\n      swap1\n      pop\n        /* \"#utility.yul\":12233:12391   */\n      swap2\n      swap1\n      pop\n      jump\t// out\n        /* \"#utility.yul\":12397:12544   */\n    tag_362:\n        /* \"#utility.yul\":12492:12537   */\n      tag_528\n        /* \"#utility.yul\":12531:12536   */\n      dup2\n        /* \"#utility.yul\":12492:12537   */\n      tag_361\n      jump\t// in\n    tag_528:\n        /* \"#utility.yul\":12487:12490   */\n      dup3\n        /* \"#utility.yul\":12480:12538   */\n      mstore\n        /* \"#utility.yul\":12397:12544   */\n      pop\n      pop\n      jump\t// out\n        /* \"#utility.yul\":12550:13357   */\n    tag_160:\n        /* \"#utility.yul\":12799:12803   */\n      0x00\n        /* \"#utility.yul\":12837:12840   */\n      0xc0\n        /* \"#utility.yul\":12826:12835   */\n      dup3\n        /* \"#utility.yul\":12822:12841   */\n      add\n        /* \"#utility.yul\":12814:12841   */\n      swap1\n      pop\n        /* \"#utility.yul\":12851:12922   */\n      tag_530\n        /* \"#utility.yul\":12919:12920   */\n      0x00\n        /* \"#utility.yul\":12908:12917   */\n      dup4\n        /* \"#utility.yul\":12904:12921   */\n      add\n        /* \"#utility.yul\":12895:12901   */\n      dup10\n        /* \"#utility.yul\":12851:12922   */\n      tag_349\n      jump\t// in\n    tag_530:\n        /* \"#utility.yul\":12932:13004   */\n      tag_531\n        /* \"#utility.yul\":13000:13002   */\n      0x20\n        /* \"#utility.yul\":12989:12998   */\n      dup4\n        /* \"#utility.yul\":12985:13003   */\n      add\n        /* \"#utility.yul\":12976:12982   */\n      dup9\n        /* \"#utility.yul\":12932:13004   */\n      tag_346\n      jump\t// in\n    tag_531:\n        /* \"#utility.yul\":13014:13094   */\n      tag_532\n        /* \"#utility.yul\":13090:13092   */\n      0x40\n        /* \"#utility.yul\":13079:13088   */\n      dup4\n        /* \"#utility.yul\":13075:13093   */\n      add\n        /* \"#utility.yul\":13066:13072   */\n      dup8\n        /* \"#utility.yul\":13014:13094   */\n      tag_362\n      jump\t// in\n    tag_532:\n        /* \"#utility.yul\":13104:13184   */\n      tag_533\n        /* \"#utility.yul\":13180:13182   */\n      0x60\n        /* \"#utility.yul\":13169:13178   */\n      dup4\n        /* \"#utility.yul\":13165:13183   */\n      add\n        /* \"#utility.yul\":13156:13162   */\n      dup7\n        /* \"#utility.yul\":13104:13184   */\n      tag_362\n      jump\t// in\n    tag_533:\n        /* \"#utility.yul\":13194:13267   */\n      tag_534\n        /* \"#utility.yul\":13262:13265   */\n      0x80\n        /* \"#utility.yul\":13251:13260   */\n      dup4\n        /* \"#utility.yul\":13247:13266   */\n      add\n        /* \"#utility.yul\":13238:13244   */\n      dup6\n        /* \"#utility.yul\":13194:13267   */\n      tag_349\n      jump\t// in\n    tag_534:\n        /* \"#utility.yul\":13277:13350   */\n      tag_535\n        /* \"#utility.yul\":13345:13348   */\n      0xa0\n        /* \"#utility.yul\":13334:13343   */\n      dup4\n        /* \"#utility.yul\":13330:13349   */\n      add\n        /* \"#utility.yul\":13321:13327   */\n      dup5\n        /* \"#utility.yul\":13277:13350   */\n      tag_346\n      jump\t// in\n    tag_535:\n        /* \"#utility.yul\":12550:13357   */\n      swap8\n      swap7\n      pop\n      pop\n      pop\n      pop\n      pop\n      pop\n      pop\n      jump\t// out\n        /* \"#utility.yul\":13363:13506   */\n    tag_363:\n        /* \"#utility.yul\":13420:13425   */\n      0x00\n        /* \"#utility.yul\":13451:13457   */\n      dup2\n        /* \"#utility.yul\":13445:13458   */\n      mload\n        /* \"#utility.yul\":13436:13458   */\n      swap1\n      pop\n        /* \"#utility.yul\":13467:13500   */\n      tag_537\n        /* \"#utility.yul\":13494:13499   */\n      dup2\n        /* \"#utility.yul\":13467:13500   */\n      tag_342\n      jump\t// in\n    tag_537:\n        /* \"#utility.yul\":13363:13506   */\n      swap3\n      swap2\n      pop\n      pop\n      jump\t// out\n        /* \"#utility.yul\":13512:14175   */\n    tag_164:\n        /* \"#utility.yul\":13600:13606   */\n      0x00\n        /* \"#utility.yul\":13608:13614   */\n      dup1\n        /* \"#utility.yul\":13616:13622   */\n      0x00\n        /* \"#utility.yul\":13665:13667   */\n      0x60\n        /* \"#utility.yul\":13653:13662   */\n      dup5\n        /* \"#utility.yul\":13644:13651   */\n      dup7\n        /* \"#utility.yul\":13640:13663   */\n      sub\n        /* \"#utility.yul\":13636:13668   */\n      slt\n        /* \"#utility.yul\":13633:13752   */\n      iszero\n      tag_539\n      jumpi\n        /* \"#utility.yul\":13671:13750   */\n      tag_540\n      tag_335\n      jump\t// in\n    tag_540:\n        /* \"#utility.yul\":13633:13752   */\n    tag_539:\n        /* \"#utility.yul\":13791:13792   */\n      0x00\n        /* \"#utility.yul\":13816:13880   */\n      tag_541\n        /* \"#utility.yul\":13872:13879   */\n      dup7\n        /* \"#utility.yul\":13863:13869   */\n      dup3\n        /* \"#utility.yul\":13852:13861   */\n      dup8\n        /* \"#utility.yul\":13848:13870   */\n      add\n        /* \"#utility.yul\":13816:13880   */\n      tag_363\n      jump\t// in\n    tag_541:\n        /* \"#utility.yul\":13806:13880   */\n      swap4\n      pop\n        /* \"#utility.yul\":13762:13890   */\n      pop\n        /* \"#utility.yul\":13929:13931   */\n      0x20\n        /* \"#utility.yul\":13955:14019   */\n      tag_542\n        /* \"#utility.yul\":14011:14018   */\n      dup7\n        /* \"#utility.yul\":14002:14008   */\n      dup3\n        /* \"#utility.yul\":13991:14000   */\n      dup8\n        /* \"#utility.yul\":13987:14009   */\n      add\n        /* \"#utility.yul\":13955:14019   */\n      tag_363\n      jump\t// in\n    tag_542:\n        /* \"#utility.yul\":13945:14019   */\n      swap3\n      pop\n        /* \"#utility.yul\":13900:14029   */\n      pop\n        /* \"#utility.yul\":14068:14070   */\n      0x40\n        /* \"#utility.yul\":14094:14158   */\n      tag_543\n        /* \"#utility.yul\":14150:14157   */\n      dup7\n        /* \"#utility.yul\":14141:14147   */\n      dup3\n        /* \"#utility.yul\":14130:14139   */\n      dup8\n        /* \"#utility.yul\":14126:14148   */\n      add\n        /* \"#utility.yul\":14094:14158   */\n      tag_363\n      jump\t// in\n    tag_543:\n        /* \"#utility.yul\":14084:14158   */\n      swap2\n      pop\n        /* \"#utility.yul\":14039:14168   */\n      pop\n        /* \"#utility.yul\":13512:14175   */\n      swap3\n      pop\n      swap3\n      pop\n      swap3\n      jump\t// out\n        /* \"#utility.yul\":14181:14513   */\n    tag_166:\n        /* \"#utility.yul\":14302:14306   */\n      0x00\n        /* \"#utility.yul\":14340:14342   */\n      0x40\n        /* \"#utility.yul\":14329:14338   */\n      dup3\n        /* \"#utility.yul\":14325:14343   */\n      add\n        /* \"#utility.yul\":14317:14343   */\n      swap1\n      pop\n        /* \"#utility.yul\":14353:14424   */\n      tag_545\n        /* \"#utility.yul\":14421:14422   */\n      0x00\n        /* \"#utility.yul\":14410:14419   */\n      dup4\n        /* \"#utility.yul\":14406:14423   */\n      add\n        /* \"#utility.yul\":14397:14403   */\n      dup6\n        /* \"#utility.yul\":14353:14424   */\n      tag_349\n      jump\t// in\n    tag_545:\n        /* \"#utility.yul\":14434:14506   */\n      tag_546\n        /* \"#utility.yul\":14502:14504   */\n      0x20\n        /* \"#utility.yul\":14491:14500   */\n      dup4\n        /* \"#utility.yul\":14487:14505   */\n      add\n        /* \"#utility.yul\":14478:14484   */\n      dup5\n        /* \"#utility.yul\":14434:14506   */\n      tag_346\n      jump\t// in\n    tag_546:\n        /* \"#utility.yul\":14181:14513   */\n      swap4\n      swap3\n      pop\n      pop\n      pop\n      jump\t// out\n        /* \"#utility.yul\":14519:14635   */\n    tag_364:\n        /* \"#utility.yul\":14589:14610   */\n      tag_548\n        /* \"#utility.yul\":14604:14609   */\n      dup2\n        /* \"#utility.yul\":14589:14610   */\n      tag_344\n      jump\t// in\n    tag_548:\n        /* \"#utility.yul\":14582:14587   */\n      dup2\n        /* \"#utility.yul\":14579:14611   */\n      eq\n        /* \"#utility.yul\":14569:14629   */\n      tag_549\n      jumpi\n        /* \"#utility.yul\":14625:14626   */\n      0x00\n        /* \"#utility.yul\":14622:14623   */\n      dup1\n        /* \"#utility.yul\":14615:14627   */\n      revert\n        /* \"#utility.yul\":14569:14629   */\n    tag_549:\n        /* \"#utility.yul\":14519:14635   */\n      pop\n      jump\t// out\n        /* \"#utility.yul\":14641:14778   */\n    tag_365:\n        /* \"#utility.yul\":14695:14700   */\n      0x00\n        /* \"#utility.yul\":14726:14732   */\n      dup2\n        /* \"#utility.yul\":14720:14733   */\n      mload\n        /* \"#utility.yul\":14711:14733   */\n      swap1\n      pop\n        /* \"#utility.yul\":14742:14772   */\n      tag_551\n        /* \"#utility.yul\":14766:14771   */\n      dup2\n        /* \"#utility.yul\":14742:14772   */\n      tag_364\n      jump\t// in\n    tag_551:\n        /* \"#utility.yul\":14641:14778   */\n      swap3\n      swap2\n      pop\n      pop\n      jump\t// out\n        /* \"#utility.yul\":14784:15129   */\n    tag_170:\n        /* \"#utility.yul\":14851:14857   */\n      0x00\n        /* \"#utility.yul\":14900:14902   */\n      0x20\n        /* \"#utility.yul\":14888:14897   */\n      dup3\n        /* \"#utility.yul\":14879:14886   */\n      dup5\n        /* \"#utility.yul\":14875:14898   */\n      sub\n        /* \"#utility.yul\":14871:14903   */\n      slt\n        /* \"#utility.yul\":14868:14987   */\n      iszero\n      tag_553\n      jumpi\n        /* \"#utility.yul\":14906:14985   */\n      tag_554\n      tag_335\n      jump\t// in\n    tag_554:\n        /* \"#utility.yul\":14868:14987   */\n    tag_553:\n        /* \"#utility.yul\":15026:15027   */\n      0x00\n        /* \"#utility.yul\":15051:15112   */\n      tag_555\n        /* \"#utility.yul\":15104:15111   */\n      dup5\n        /* \"#utility.yul\":15095:15101   */\n      dup3\n        /* \"#utility.yul\":15084:15093   */\n      dup6\n        /* \"#utility.yul\":15080:15102   */\n      add\n        /* \"#utility.yul\":15051:15112   */\n      tag_365\n      jump\t// in\n    tag_555:\n        /* \"#utility.yul\":15041:15112   */\n      swap2\n      pop\n        /* \"#utility.yul\":14997:15122   */\n      pop\n        /* \"#utility.yul\":14784:15129   */\n      swap3\n      swap2\n      pop\n      pop\n      jump\t// out\n        /* \"#utility.yul\":15135:15326   */\n    tag_191:\n        /* \"#utility.yul\":15175:15179   */\n      0x00\n        /* \"#utility.yul\":15195:15215   */\n      tag_557\n        /* \"#utility.yul\":15213:15214   */\n      dup3\n        /* \"#utility.yul\":15195:15215   */\n      tag_341\n      jump\t// in\n    tag_557:\n        /* \"#utility.yul\":15190:15215   */\n      swap2\n      pop\n        /* \"#utility.yul\":15229:15249   */\n      tag_558\n        /* \"#utility.yul\":15247:15248   */\n      dup4\n        /* \"#utility.yul\":15229:15249   */\n      tag_341\n      jump\t// in\n    tag_558:\n        /* \"#utility.yul\":15224:15249   */\n      swap3\n      pop\n        /* \"#utility.yul\":15268:15269   */\n      dup3\n        /* \"#utility.yul\":15265:15266   */\n      dup3\n        /* \"#utility.yul\":15262:15270   */\n      lt\n        /* \"#utility.yul\":15259:15293   */\n      iszero\n      tag_559\n      jumpi\n        /* \"#utility.yul\":15273:15291   */\n      tag_560\n      tag_354\n      jump\t// in\n    tag_560:\n        /* \"#utility.yul\":15259:15293   */\n    tag_559:\n        /* \"#utility.yul\":15318:15319   */\n      dup3\n        /* \"#utility.yul\":15315:15316   */\n      dup3\n        /* \"#utility.yul\":15311:15320   */\n      sub\n        /* \"#utility.yul\":15303:15320   */\n      swap1\n      pop\n        /* \"#utility.yul\":15135:15326   */\n      swap3\n      swap2\n      pop\n      pop\n      jump\t// out\n        /* \"#utility.yul\":15332:15555   */\n    tag_366:\n        /* \"#utility.yul\":15472:15506   */\n      0x45524332303a20617070726f76652066726f6d20746865207a65726f20616464\n        /* \"#utility.yul\":15468:15469   */\n      0x00\n        /* \"#utility.yul\":15460:15466   */\n      dup3\n        /* \"#utility.yul\":15456:15470   */\n      add\n        /* \"#utility.yul\":15449:15507   */\n      mstore\n        /* \"#utility.yul\":15541:15547   */\n      0x7265737300000000000000000000000000000000000000000000000000000000\n        /* \"#utility.yul\":15536:15538   */\n      0x20\n        /* \"#utility.yul\":15528:15534   */\n      dup3\n        /* \"#utility.yul\":15524:15539   */\n      add\n        /* \"#utility.yul\":15517:15548   */\n      mstore\n        /* \"#utility.yul\":15332:15555   */\n      pop\n      jump\t// out\n        /* \"#utility.yul\":15561:15927   */\n    tag_367:\n        /* \"#utility.yul\":15703:15706   */\n      0x00\n        /* \"#utility.yul\":15724:15791   */\n      tag_563\n        /* \"#utility.yul\":15788:15790   */\n      0x24\n        /* \"#utility.yul\":15783:15786   */\n      dup4\n        /* \"#utility.yul\":15724:15791   */\n      tag_330\n      jump\t// in\n    tag_563:\n        /* \"#utility.yul\":15717:15791   */\n      swap2\n      pop\n        /* \"#utility.yul\":15800:15893   */\n      tag_564\n        /* \"#utility.yul\":15889:15892   */\n      dup3\n        /* \"#utility.yul\":15800:15893   */\n      tag_366\n      jump\t// in\n    tag_564:\n        /* \"#utility.yul\":15918:15920   */\n      0x40\n        /* \"#utility.yul\":15913:15916   */\n      dup3\n        /* \"#utility.yul\":15909:15921   */\n      add\n        /* \"#utility.yul\":15902:15921   */\n      swap1\n      pop\n        /* \"#utility.yul\":15561:15927   */\n      swap2\n      swap1\n      pop\n      jump\t// out\n        /* \"#utility.yul\":15933:16352   */\n    tag_231:\n        /* \"#utility.yul\":16099:16103   */\n      0x00\n        /* \"#utility.yul\":16137:16139   */\n      0x20\n        /* \"#utility.yul\":16126:16135   */\n      dup3\n        /* \"#utility.yul\":16122:16140   */\n      add\n        /* \"#utility.yul\":16114:16140   */\n      swap1\n      pop\n        /* \"#utility.yul\":16186:16195   */\n      dup2\n        /* \"#utility.yul\":16180:16184   */\n      dup2\n        /* \"#utility.yul\":16176:16196   */\n      sub\n        /* \"#utility.yul\":16172:16173   */\n      0x00\n        /* \"#utility.yul\":16161:16170   */\n      dup4\n        /* \"#utility.yul\":16157:16174   */\n      add\n        /* \"#utility.yul\":16150:16197   */\n      mstore\n        /* \"#utility.yul\":16214:16345   */\n      tag_566\n        /* \"#utility.yul\":16340:16344   */\n      dup2\n        /* \"#utility.yul\":16214:16345   */\n      tag_367\n      jump\t// in\n    tag_566:\n        /* \"#utility.yul\":16206:16345   */\n      swap1\n      pop\n        /* \"#utility.yul\":15933:16352   */\n      swap2\n      swap1\n      pop\n      jump\t// out\n        /* \"#utility.yul\":16358:16579   */\n    tag_368:\n        /* \"#utility.yul\":16498:16532   */\n      0x45524332303a20617070726f766520746f20746865207a65726f206164647265\n        /* \"#utility.yul\":16494:16495   */\n      0x00\n        /* \"#utility.yul\":16486:16492   */\n      dup3\n        /* \"#utility.yul\":16482:16496   */\n      add\n        /* \"#utility.yul\":16475:16533   */\n      mstore\n        /* \"#utility.yul\":16567:16571   */\n      0x7373000000000000000000000000000000000000000000000000000000000000\n        /* \"#utility.yul\":16562:16564   */\n      0x20\n        /* \"#utility.yul\":16554:16560   */\n      dup3\n        /* \"#utility.yul\":16550:16565   */\n      add\n        /* \"#utility.yul\":16543:16572   */\n      mstore\n        /* \"#utility.yul\":16358:16579   */\n      pop\n      jump\t// out\n        /* \"#utility.yul\":16585:16951   */\n    tag_369:\n        /* \"#utility.yul\":16727:16730   */\n      0x00\n        /* \"#utility.yul\":16748:16815   */\n      tag_569\n        /* \"#utility.yul\":16812:16814   */\n      0x22\n        /* \"#utility.yul\":16807:16810   */\n      dup4\n        /* \"#utility.yul\":16748:16815   */\n      tag_330\n      jump\t// in\n    tag_569:\n        /* \"#utility.yul\":16741:16815   */\n      swap2\n      pop\n        /* \"#utility.yul\":16824:16917   */\n      tag_570\n        /* \"#utility.yul\":16913:16916   */\n      dup3\n        /* \"#utility.yul\":16824:16917   */\n      tag_368\n      jump\t// in\n    tag_570:\n        /* \"#utility.yul\":16942:16944   */\n      0x40\n        /* \"#utility.yul\":16937:16940   */\n      dup3\n        /* \"#utility.yul\":16933:16945   */\n      add\n        /* \"#utility.yul\":16926:16945   */\n      swap1\n      pop\n        /* \"#utility.yul\":16585:16951   */\n      swap2\n      swap1\n      pop\n      jump\t// out\n        /* \"#utility.yul\":16957:17376   */\n    tag_234:\n        /* \"#utility.yul\":17123:17127   */\n      0x00\n        /* \"#utility.yul\":17161:17163   */\n      0x20\n        /* \"#utility.yul\":17150:17159   */\n      dup3\n        /* \"#utility.yul\":17146:17164   */\n      add\n        /* \"#utility.yul\":17138:17164   */\n      swap1\n      pop\n        /* \"#utility.yul\":17210:17219   */\n      dup2\n        /* \"#utility.yul\":17204:17208   */\n      dup2\n        /* \"#utility.yul\":17200:17220   */\n      sub\n        /* \"#utility.yul\":17196:17197   */\n      0x00\n        /* \"#utility.yul\":17185:17194   */\n      dup4\n        /* \"#utility.yul\":17181:17198   */\n      add\n        /* \"#utility.yul\":17174:17221   */\n      mstore\n        /* \"#utility.yul\":17238:17369   */\n      tag_572\n        /* \"#utility.yul\":17364:17368   */\n      dup2\n        /* \"#utility.yul\":17238:17369   */\n      tag_369\n      jump\t// in\n    tag_572:\n        /* \"#utility.yul\":17230:17369   */\n      swap1\n      pop\n        /* \"#utility.yul\":16957:17376   */\n      swap2\n      swap1\n      pop\n      jump\t// out\n        /* \"#utility.yul\":17382:17606   */\n    tag_370:\n        /* \"#utility.yul\":17522:17556   */\n      0x45524332303a207472616e736665722066726f6d20746865207a65726f206164\n        /* \"#utility.yul\":17518:17519   */\n      0x00\n        /* \"#utility.yul\":17510:17516   */\n      dup3\n        /* \"#utility.yul\":17506:17520   */\n      add\n        /* \"#utility.yul\":17499:17557   */\n      mstore\n        /* \"#utility.yul\":17591:17598   */\n      0x6472657373000000000000000000000000000000000000000000000000000000\n        /* \"#utility.yul\":17586:17588   */\n      0x20\n        /* \"#utility.yul\":17578:17584   */\n      dup3\n        /* \"#utility.yul\":17574:17589   */\n      add\n        /* \"#utility.yul\":17567:17599   */\n      mstore\n        /* \"#utility.yul\":17382:17606   */\n      pop\n      jump\t// out\n        /* \"#utility.yul\":17612:17978   */\n    tag_371:\n        /* \"#utility.yul\":17754:17757   */\n      0x00\n        /* \"#utility.yul\":17775:17842   */\n      tag_575\n        /* \"#utility.yul\":17839:17841   */\n      0x25\n        /* \"#utility.yul\":17834:17837   */\n      dup4\n        /* \"#utility.yul\":17775:17842   */\n      tag_330\n      jump\t// in\n    tag_575:\n        /* \"#utility.yul\":17768:17842   */\n      swap2\n      pop\n        /* \"#utility.yul\":17851:17944   */\n      tag_576\n        /* \"#utility.yul\":17940:17943   */\n      dup3\n        /* \"#utility.yul\":17851:17944   */\n      tag_370\n      jump\t// in\n    tag_576:\n        /* \"#utility.yul\":17969:17971   */\n      0x40\n        /* \"#utility.yul\":17964:17967   */\n      dup3\n        /* \"#utility.yul\":17960:17972   */\n      add\n        /* \"#utility.yul\":17953:17972   */\n      swap1\n      pop\n        /* \"#utility.yul\":17612:17978   */\n      swap2\n      swap1\n      pop\n      jump\t// out\n        /* \"#utility.yul\":17984:18403   */\n    tag_239:\n        /* \"#utility.yul\":18150:18154   */\n      0x00\n        /* \"#utility.yul\":18188:18190   */\n      0x20\n        /* \"#utility.yul\":18177:18186   */\n      dup3\n        /* \"#utility.yul\":18173:18191   */\n      add\n        /* \"#utility.yul\":18165:18191   */\n      swap1\n      pop\n        /* \"#utility.yul\":18237:18246   */\n      dup2\n        /* \"#utility.yul\":18231:18235   */\n      dup2\n        /* \"#utility.yul\":18227:18247   */\n      sub\n        /* \"#utility.yul\":18223:18224   */\n      0x00\n        /* \"#utility.yul\":18212:18221   */\n      dup4\n        /* \"#utility.yul\":18208:18225   */\n      add\n        /* \"#utility.yul\":18201:18248   */\n      mstore\n        /* \"#utility.yul\":18265:18396   */\n      tag_578\n        /* \"#utility.yul\":18391:18395   */\n      dup2\n        /* \"#utility.yul\":18265:18396   */\n      tag_371\n      jump\t// in\n    tag_578:\n        /* \"#utility.yul\":18257:18396   */\n      swap1\n      pop\n        /* \"#utility.yul\":17984:18403   */\n      swap2\n      swap1\n      pop\n      jump\t// out\n        /* \"#utility.yul\":18409:18631   */\n    tag_372:\n        /* \"#utility.yul\":18549:18583   */\n      0x45524332303a207472616e7366657220746f20746865207a65726f2061646472\n        /* \"#utility.yul\":18545:18546   */\n      0x00\n        /* \"#utility.yul\":18537:18543   */\n      dup3\n        /* \"#utility.yul\":18533:18547   */\n      add\n        /* \"#utility.yul\":18526:18584   */\n      mstore\n        /* \"#utility.yul\":18618:18623   */\n      0x6573730000000000000000000000000000000000000000000000000000000000\n        /* \"#utility.yul\":18613:18615   */\n      0x20\n        /* \"#utility.yul\":18605:18611   */\n      dup3\n        /* \"#utility.yul\":18601:18616   */\n      add\n        /* \"#utility.yul\":18594:18624   */\n      mstore\n        /* \"#utility.yul\":18409:18631   */\n      pop\n      jump\t// out\n        /* \"#utility.yul\":18637:19003   */\n    tag_373:\n        /* \"#utility.yul\":18779:18782   */\n      0x00\n        /* \"#utility.yul\":18800:18867   */\n      tag_581\n        /* \"#utility.yul\":18864:18866   */\n      0x23\n        /* \"#utility.yul\":18859:18862   */\n      dup4\n        /* \"#utility.yul\":18800:18867   */\n      tag_330\n      jump\t// in\n    tag_581:\n        /* \"#utility.yul\":18793:18867   */\n      swap2\n      pop\n        /* \"#utility.yul\":18876:18969   */\n      tag_582\n        /* \"#utility.yul\":18965:18968   */\n      dup3\n        /* \"#utility.yul\":18876:18969   */\n      tag_372\n      jump\t// in\n    tag_582:\n        /* \"#utility.yul\":18994:18996   */\n      0x40\n        /* \"#utility.yul\":18989:18992   */\n      dup3\n        /* \"#utility.yul\":18985:18997   */\n      add\n        /* \"#utility.yul\":18978:18997   */\n      swap1\n      pop\n        /* \"#utility.yul\":18637:19003   */\n      swap2\n      swap1\n      pop\n      jump\t// out\n        /* \"#utility.yul\":19009:19428   */\n    tag_242:\n        /* \"#utility.yul\":19175:19179   */\n      0x00\n        /* \"#utility.yul\":19213:19215   */\n      0x20\n        /* \"#utility.yul\":19202:19211   */\n      dup3\n        /* \"#utility.yul\":19198:19216   */\n      add\n        /* \"#utility.yul\":19190:19216   */\n      swap1\n      pop\n        /* \"#utility.yul\":19262:19271   */\n      dup2\n        /* \"#utility.yul\":19256:19260   */\n      dup2\n        /* \"#utility.yul\":19252:19272   */\n      sub\n        /* \"#utility.yul\":19248:19249   */\n      0x00\n        /* \"#utility.yul\":19237:19246   */\n      dup4\n        /* \"#utility.yul\":19233:19250   */\n      add\n        /* \"#utility.yul\":19226:19273   */\n      mstore\n        /* \"#utility.yul\":19290:19421   */\n      tag_584\n        /* \"#utility.yul\":19416:19420   */\n      dup2\n        /* \"#utility.yul\":19290:19421   */\n      tag_373\n      jump\t// in\n    tag_584:\n        /* \"#utility.yul\":19282:19421   */\n      swap1\n      pop\n        /* \"#utility.yul\":19009:19428   */\n      swap2\n      swap1\n      pop\n      jump\t// out\n        /* \"#utility.yul\":19434:19662   */\n    tag_374:\n        /* \"#utility.yul\":19574:19608   */\n      0x5472616e7366657220616d6f756e74206d757374206265206772656174657220\n        /* \"#utility.yul\":19570:19571   */\n      0x00\n        /* \"#utility.yul\":19562:19568   */\n      dup3\n        /* \"#utility.yul\":19558:19572   */\n      add\n        /* \"#utility.yul\":19551:19609   */\n      mstore\n        /* \"#utility.yul\":19643:19654   */\n      0x7468616e207a65726f0000000000000000000000000000000000000000000000\n        /* \"#utility.yul\":19638:19640   */\n      0x20\n        /* \"#utility.yul\":19630:19636   */\n      dup3\n        /* \"#utility.yul\":19626:19641   */\n      add\n        /* \"#utility.yul\":19619:19655   */\n      mstore\n        /* \"#utility.yul\":19434:19662   */\n      pop\n      jump\t// out\n        /* \"#utility.yul\":19668:20034   */\n    tag_375:\n        /* \"#utility.yul\":19810:19813   */\n      0x00\n        /* \"#utility.yul\":19831:19898   */\n      tag_587\n        /* \"#utility.yul\":19895:19897   */\n      0x29\n        /* \"#utility.yul\":19890:19893   */\n      dup4\n        /* \"#utility.yul\":19831:19898   */\n      tag_330\n      jump\t// in\n    tag_587:\n        /* \"#utility.yul\":19824:19898   */\n      swap2\n      pop\n        /* \"#utility.yul\":19907:20000   */\n      tag_588\n        /* \"#utility.yul\":19996:19999   */\n      dup3\n        /* \"#utility.yul\":19907:20000   */\n      tag_374\n      jump\t// in\n    tag_588:\n        /* \"#utility.yul\":20025:20027   */\n      0x40\n        /* \"#utility.yul\":20020:20023   */\n      dup3\n        /* \"#utility.yul\":20016:20028   */\n      add\n        /* \"#utility.yul\":20009:20028   */\n      swap1\n      pop\n        /* \"#utility.yul\":19668:20034   */\n      swap2\n      swap1\n      pop\n      jump\t// out\n        /* \"#utility.yul\":20040:20459   */\n    tag_245:\n        /* \"#utility.yul\":20206:20210   */\n      0x00\n        /* \"#utility.yul\":20244:20246   */\n      0x20\n        /* \"#utility.yul\":20233:20242   */\n      dup3\n        /* \"#utility.yul\":20229:20247   */\n      add\n        /* \"#utility.yul\":20221:20247   */\n      swap1\n      pop\n        /* \"#utility.yul\":20293:20302   */\n      dup2\n        /* \"#utility.yul\":20287:20291   */\n      dup2\n        /* \"#utility.yul\":20283:20303   */\n      sub\n        /* \"#utility.yul\":20279:20280   */\n      0x00\n        /* \"#utility.yul\":20268:20277   */\n      dup4\n        /* \"#utility.yul\":20264:20281   */\n      add\n        /* \"#utility.yul\":20257:20304   */\n      mstore\n        /* \"#utility.yul\":20321:20452   */\n      tag_590\n        /* \"#utility.yul\":20447:20451   */\n      dup2\n        /* \"#utility.yul\":20321:20452   */\n      tag_375\n      jump\t// in\n    tag_590:\n        /* \"#utility.yul\":20313:20452   */\n      swap1\n      pop\n        /* \"#utility.yul\":20040:20459   */\n      swap2\n      swap1\n      pop\n      jump\t// out\n        /* \"#utility.yul\":20465:20688   */\n    tag_376:\n        /* \"#utility.yul\":20605:20639   */\n      0x4f6e6c79206f6e65207472616e736665722070657220626c6f636b20616c6c6f\n        /* \"#utility.yul\":20601:20602   */\n      0x00\n        /* \"#utility.yul\":20593:20599   */\n      dup3\n        /* \"#utility.yul\":20589:20603   */\n      add\n        /* \"#utility.yul\":20582:20640   */\n      mstore\n        /* \"#utility.yul\":20674:20680   */\n      0x7765642e00000000000000000000000000000000000000000000000000000000\n        /* \"#utility.yul\":20669:20671   */\n      0x20\n        /* \"#utility.yul\":20661:20667   */\n      dup3\n        /* \"#utility.yul\":20657:20672   */\n      add\n        /* \"#utility.yul\":20650:20681   */\n      mstore\n        /* \"#utility.yul\":20465:20688   */\n      pop\n      jump\t// out\n        /* \"#utility.yul\":20694:21060   */\n    tag_377:\n        /* \"#utility.yul\":20836:20839   */\n      0x00\n        /* \"#utility.yul\":20857:20924   */\n      tag_593\n        /* \"#utility.yul\":20921:20923   */\n      0x24\n        /* \"#utility.yul\":20916:20919   */\n      dup4\n        /* \"#utility.yul\":20857:20924   */\n      tag_330\n      jump\t// in\n    tag_593:\n        /* \"#utility.yul\":20850:20924   */\n      swap2\n      pop\n        /* \"#utility.yul\":20933:21026   */\n      tag_594\n        /* \"#utility.yul\":21022:21025   */\n      dup3\n        /* \"#utility.yul\":20933:21026   */\n      tag_376\n      jump\t// in\n    tag_594:\n        /* \"#utility.yul\":21051:21053   */\n      0x40\n        /* \"#utility.yul\":21046:21049   */\n      dup3\n        /* \"#utility.yul\":21042:21054   */\n      add\n        /* \"#utility.yul\":21035:21054   */\n      swap1\n      pop\n        /* \"#utility.yul\":20694:21060   */\n      swap2\n      swap1\n      pop\n      jump\t// out\n        /* \"#utility.yul\":21066:21485   */\n    tag_255:\n        /* \"#utility.yul\":21232:21236   */\n      0x00\n        /* \"#utility.yul\":21270:21272   */\n      0x20\n        /* \"#utility.yul\":21259:21268   */\n      dup3\n        /* \"#utility.yul\":21255:21273   */\n      add\n        /* \"#utility.yul\":21247:21273   */\n      swap1\n      pop\n        /* \"#utility.yul\":21319:21328   */\n      dup2\n        /* \"#utility.yul\":21313:21317   */\n      dup2\n        /* \"#utility.yul\":21309:21329   */\n      sub\n        /* \"#utility.yul\":21305:21306   */\n      0x00\n        /* \"#utility.yul\":21294:21303   */\n      dup4\n        /* \"#utility.yul\":21290:21307   */\n      add\n        /* \"#utility.yul\":21283:21330   */\n      mstore\n        /* \"#utility.yul\":21347:21478   */\n      tag_596\n        /* \"#utility.yul\":21473:21477   */\n      dup2\n        /* \"#utility.yul\":21347:21478   */\n      tag_377\n      jump\t// in\n    tag_596:\n        /* \"#utility.yul\":21339:21478   */\n      swap1\n      pop\n        /* \"#utility.yul\":21066:21485   */\n      swap2\n      swap1\n      pop\n      jump\t// out\n        /* \"#utility.yul\":21491:21666   */\n    tag_378:\n        /* \"#utility.yul\":21631:21658   */\n      0x4578636565647320746865205f6d61785478416d6f756e742e00000000000000\n        /* \"#utility.yul\":21627:21628   */\n      0x00\n        /* \"#utility.yul\":21619:21625   */\n      dup3\n        /* \"#utility.yul\":21615:21629   */\n      add\n        /* \"#utility.yul\":21608:21659   */\n      mstore\n        /* \"#utility.yul\":21491:21666   */\n      pop\n      jump\t// out\n        /* \"#utility.yul\":21672:22038   */\n    tag_379:\n        /* \"#utility.yul\":21814:21817   */\n      0x00\n        /* \"#utility.yul\":21835:21902   */\n      tag_599\n        /* \"#utility.yul\":21899:21901   */\n      0x19\n        /* \"#utility.yul\":21894:21897   */\n      dup4\n        /* \"#utility.yul\":21835:21902   */\n      tag_330\n      jump\t// in\n    tag_599:\n        /* \"#utility.yul\":21828:21902   */\n      swap2\n      pop\n        /* \"#utility.yul\":21911:22004   */\n      tag_600\n        /* \"#utility.yul\":22000:22003   */\n      dup3\n        /* \"#utility.yul\":21911:22004   */\n      tag_378\n      jump\t// in\n    tag_600:\n        /* \"#utility.yul\":22029:22031   */\n      0x20\n        /* \"#utility.yul\":22024:22027   */\n      dup3\n        /* \"#utility.yul\":22020:22032   */\n      add\n        /* \"#utility.yul\":22013:22032   */\n      swap1\n      pop\n        /* \"#utility.yul\":21672:22038   */\n      swap2\n      swap1\n      pop\n      jump\t// out\n        /* \"#utility.yul\":22044:22463   */\n    tag_261:\n        /* \"#utility.yul\":22210:22214   */\n      0x00\n        /* \"#utility.yul\":22248:22250   */\n      0x20\n        /* \"#utility.yul\":22237:22246   */\n      dup3\n        /* \"#utility.yul\":22233:22251   */\n      add\n        /* \"#utility.yul\":22225:22251   */\n      swap1\n      pop\n        /* \"#utility.yul\":22297:22306   */\n      dup2\n        /* \"#utility.yul\":22291:22295   */\n      dup2\n        /* \"#utility.yul\":22287:22307   */\n      sub\n        /* \"#utility.yul\":22283:22284   */\n      0x00\n        /* \"#utility.yul\":22272:22281   */\n      dup4\n        /* \"#utility.yul\":22268:22285   */\n      add\n        /* \"#utility.yul\":22261:22308   */\n      mstore\n        /* \"#utility.yul\":22325:22456   */\n      tag_602\n        /* \"#utility.yul\":22451:22455   */\n      dup2\n        /* \"#utility.yul\":22325:22456   */\n      tag_379\n      jump\t// in\n    tag_602:\n        /* \"#utility.yul\":22317:22456   */\n      swap1\n      pop\n        /* \"#utility.yul\":22044:22463   */\n      swap2\n      swap1\n      pop\n      jump\t// out\n        /* \"#utility.yul\":22469:22774   */\n    tag_264:\n        /* \"#utility.yul\":22509:22512   */\n      0x00\n        /* \"#utility.yul\":22528:22548   */\n      tag_604\n        /* \"#utility.yul\":22546:22547   */\n      dup3\n        /* \"#utility.yul\":22528:22548   */\n      tag_341\n      jump\t// in\n    tag_604:\n        /* \"#utility.yul\":22523:22548   */\n      swap2\n      pop\n        /* \"#utility.yul\":22562:22582   */\n      tag_605\n        /* \"#utility.yul\":22580:22581   */\n      dup4\n        /* \"#utility.yul\":22562:22582   */\n      tag_341\n      jump\t// in\n    tag_605:\n        /* \"#utility.yul\":22557:22582   */\n      swap3\n      pop\n        /* \"#utility.yul\":22716:22717   */\n      dup3\n        /* \"#utility.yul\":22648:22714   */\n      0xffffffffffffffffffffffffffffffffffffffffffffffffffffffffffffffff\n        /* \"#utility.yul\":22644:22718   */\n      sub\n        /* \"#utility.yul\":22641:22642   */\n      dup3\n        /* \"#utility.yul\":22638:22719   */\n      gt\n        /* \"#utility.yul\":22635:22742   */\n      iszero\n      tag_606\n      jumpi\n        /* \"#utility.yul\":22722:22740   */\n      tag_607\n      tag_354\n      jump\t// in\n    tag_607:\n        /* \"#utility.yul\":22635:22742   */\n    tag_606:\n        /* \"#utility.yul\":22766:22767   */\n      dup3\n        /* \"#utility.yul\":22763:22764   */\n      dup3\n        /* \"#utility.yul\":22759:22768   */\n      add\n        /* \"#utility.yul\":22752:22768   */\n      swap1\n      pop\n        /* \"#utility.yul\":22469:22774   */\n      swap3\n      swap2\n      pop\n      pop\n      jump\t// out\n        /* \"#utility.yul\":22780:22956   */\n    tag_380:\n        /* \"#utility.yul\":22920:22948   */\n      0x4578636565647320746865206d617857616c6c657453697a652e000000000000\n        /* \"#utility.yul\":22916:22917   */\n      0x00\n        /* \"#utility.yul\":22908:22914   */\n      dup3\n        /* \"#utility.yul\":22904:22918   */\n      add\n        /* \"#utility.yul\":22897:22949   */\n      mstore\n        /* \"#utility.yul\":22780:22956   */\n      pop\n      jump\t// out\n        /* \"#utility.yul\":22962:23328   */\n    tag_381:\n        /* \"#utility.yul\":23104:23107   */\n      0x00\n        /* \"#utility.yul\":23125:23192   */\n      tag_610\n        /* \"#utility.yul\":23189:23191   */\n      0x1a\n        /* \"#utility.yul\":23184:23187   */\n      dup4\n        /* \"#utility.yul\":23125:23192   */\n      tag_330\n      jump\t// in\n    tag_610:\n        /* \"#utility.yul\":23118:23192   */\n      swap2\n      pop\n        /* \"#utility.yul\":23201:23294   */\n      tag_611\n        /* \"#utility.yul\":23290:23293   */\n      dup3\n        /* \"#utility.yul\":23201:23294   */\n      tag_380\n      jump\t// in\n    tag_611:\n        /* \"#utility.yul\":23319:23321   */\n      0x20\n        /* \"#utility.yul\":23314:23317   */\n      dup3\n        /* \"#utility.yul\":23310:23322   */\n      add\n        /* \"#utility.yul\":23303:23322   */\n      swap1\n      pop\n        /* \"#utility.yul\":22962:23328   */\n      swap2\n      swap1\n      pop\n      jump\t// out\n        /* \"#utility.yul\":23334:23753   */\n    tag_267:\n        /* \"#utility.yul\":23500:23504   */\n      0x00\n        /* \"#utility.yul\":23538:23540   */\n      0x20\n        /* \"#utility.yul\":23527:23536   */\n      dup3\n        /* \"#utility.yul\":23523:23541   */\n      add\n        /* \"#utility.yul\":23515:23541   */\n      swap1\n      pop\n        /* \"#utility.yul\":23587:23596   */\n      dup2\n        /* \"#utility.yul\":23581:23585   */\n      dup2\n        /* \"#utility.yul\":23577:23597   */\n      sub\n        /* \"#utility.yul\":23573:23574   */\n      0x00\n        /* \"#utility.yul\":23562:23571   */\n      dup4\n        /* \"#utility.yul\":23558:23575   */\n      add\n        /* \"#utility.yul\":23551:23598   */\n      mstore\n        /* \"#utility.yul\":23615:23746   */\n      tag_613\n        /* \"#utility.yul\":23741:23745   */\n      dup2\n        /* \"#utility.yul\":23615:23746   */\n      tag_381\n      jump\t// in\n    tag_613:\n        /* \"#utility.yul\":23607:23746   */\n      swap1\n      pop\n        /* \"#utility.yul\":23334:23753   */\n      swap2\n      swap1\n      pop\n      jump\t// out\n        /* \"#utility.yul\":23759:23992   */\n    tag_269:\n        /* \"#utility.yul\":23798:23801   */\n      0x00\n        /* \"#utility.yul\":23821:23845   */\n      tag_615\n        /* \"#utility.yul\":23839:23844   */\n      dup3\n        /* \"#utility.yul\":23821:23845   */\n      tag_341\n      jump\t// in\n    tag_615:\n        /* \"#utility.yul\":23812:23845   */\n      swap2\n      pop\n        /* \"#utility.yul\":23867:23933   */\n      0xffffffffffffffffffffffffffffffffffffffffffffffffffffffffffffffff\n        /* \"#utility.yul\":23860:23865   */\n      dup3\n        /* \"#utility.yul\":23857:23934   */\n      eq\n        /* \"#utility.yul\":23854:23957   */\n      iszero\n      tag_616\n      jumpi\n        /* \"#utility.yul\":23937:23955   */\n      tag_617\n      tag_354\n      jump\t// in\n    tag_617:\n        /* \"#utility.yul\":23854:23957   */\n    tag_616:\n        /* \"#utility.yul\":23984:23985   */\n      0x01\n        /* \"#utility.yul\":23977:23982   */\n      dup3\n        /* \"#utility.yul\":23973:23986   */\n      add\n        /* \"#utility.yul\":23966:23986   */\n      swap1\n      pop\n        /* \"#utility.yul\":23759:23992   */\n      swap2\n      swap1\n      pop\n      jump\t// out\n        /* \"#utility.yul\":23998:24178   */\n    tag_382:\n        /* \"#utility.yul\":24046:24123   */\n      0x4e487b7100000000000000000000000000000000000000000000000000000000\n        /* \"#utility.yul\":24043:24044   */\n      0x00\n        /* \"#utility.yul\":24036:24124   */\n      mstore\n        /* \"#utility.yul\":24143:24147   */\n      0x12\n        /* \"#utility.yul\":24140:24141   */\n      0x04\n        /* \"#utility.yul\":24133:24148   */\n      mstore\n        /* \"#utility.yul\":24167:24171   */\n      0x24\n        /* \"#utility.yul\":24164:24165   */\n      0x00\n        /* \"#utility.yul\":24157:24172   */\n      revert\n        /* \"#utility.yul\":24184:24369   */\n    tag_274:\n        /* \"#utility.yul\":24224:24225   */\n      0x00\n        /* \"#utility.yul\":24241:24261   */\n      tag_620\n        /* \"#utility.yul\":24259:24260   */\n      dup3\n        /* \"#utility.yul\":24241:24261   */\n      tag_341\n      jump\t// in\n    tag_620:\n        /* \"#utility.yul\":24236:24261   */\n      swap2\n      pop\n        /* \"#utility.yul\":24275:24295   */\n      tag_621\n        /* \"#utility.yul\":24293:24294   */\n      dup4\n        /* \"#utility.yul\":24275:24295   */\n      tag_341\n      jump\t// in\n    tag_621:\n        /* \"#utility.yul\":24270:24295   */\n      swap3\n      pop\n        /* \"#utility.yul\":24314:24315   */\n      dup3\n        /* \"#utility.yul\":24304:24339   */\n      tag_622\n      jumpi\n        /* \"#utility.yul\":24319:24337   */\n      tag_623\n      tag_382\n      jump\t// in\n    tag_623:\n        /* \"#utility.yul\":24304:24339   */\n    tag_622:\n        /* \"#utility.yul\":24361:24362   */\n      dup3\n        /* \"#utility.yul\":24358:24359   */\n      dup3\n        /* \"#utility.yul\":24354:24363   */\n      div\n        /* \"#utility.yul\":24349:24363   */\n      swap1\n      pop\n        /* \"#utility.yul\":24184:24369   */\n      swap3\n      swap2\n      pop\n      pop\n      jump\t// out\n        /* \"#utility.yul\":24375:24555   */\n    tag_307:\n        /* \"#utility.yul\":24423:24500   */\n      0x4e487b7100000000000000000000000000000000000000000000000000000000\n        /* \"#utility.yul\":24420:24421   */\n      0x00\n        /* \"#utility.yul\":24413:24501   */\n      mstore\n        /* \"#utility.yul\":24520:24524   */\n      0x41\n        /* \"#utility.yul\":24517:24518   */\n      0x04\n        /* \"#utility.yul\":24510:24525   */\n      mstore\n        /* \"#utility.yul\":24544:24548   */\n      0x24\n        /* \"#utility.yul\":24541:24542   */\n      0x00\n        /* \"#utility.yul\":24534:24549   */\n      revert\n        /* \"#utility.yul\":24561:24741   */\n    tag_311:\n        /* \"#utility.yul\":24609:24686   */\n      0x4e487b7100000000000000000000000000000000000000000000000000000000\n        /* \"#utility.yul\":24606:24607   */\n      0x00\n        /* \"#utility.yul\":24599:24687   */\n      mstore\n        /* \"#utility.yul\":24706:24710   */\n      0x32\n        /* \"#utility.yul\":24703:24704   */\n      0x04\n        /* \"#utility.yul\":24696:24711   */\n      mstore\n        /* \"#utility.yul\":24730:24734   */\n      0x24\n        /* \"#utility.yul\":24727:24728   */\n      0x00\n        /* \"#utility.yul\":24720:24735   */\n      revert\n        /* \"#utility.yul\":24747:24861   */\n    tag_383:\n        /* \"#utility.yul\":24814:24820   */\n      0x00\n        /* \"#utility.yul\":24848:24853   */\n      dup2\n        /* \"#utility.yul\":24842:24854   */\n      mload\n        /* \"#utility.yul\":24832:24854   */\n      swap1\n      pop\n        /* \"#utility.yul\":24747:24861   */\n      swap2\n      swap1\n      pop\n      jump\t// out\n        /* \"#utility.yul\":24867:25051   */\n    tag_384:\n        /* \"#utility.yul\":24966:24977   */\n      0x00\n        /* \"#utility.yul\":25000:25006   */\n      dup3\n        /* \"#utility.yul\":24995:24998   */\n      dup3\n        /* \"#utility.yul\":24988:25007   */\n      mstore\n        /* \"#utility.yul\":25040:25044   */\n      0x20\n        /* \"#utility.yul\":25035:25038   */\n      dup3\n        /* \"#utility.yul\":25031:25045   */\n      add\n        /* \"#utility.yul\":25016:25045   */\n      swap1\n      pop\n        /* \"#utility.yul\":24867:25051   */\n      swap3\n      swap2\n      pop\n      pop\n      jump\t// out\n        /* \"#utility.yul\":25057:25189   */\n    tag_385:\n        /* \"#utility.yul\":25124:25128   */\n      0x00\n        /* \"#utility.yul\":25147:25150   */\n      dup2\n        /* \"#utility.yul\":25139:25150   */\n      swap1\n      pop\n        /* \"#utility.yul\":25177:25181   */\n      0x20\n        /* \"#utility.yul\":25172:25175   */\n      dup3\n        /* \"#utility.yul\":25168:25182   */\n      add\n        /* \"#utility.yul\":25160:25182   */\n      swap1\n      pop\n        /* \"#utility.yul\":25057:25189   */\n      swap2\n      swap1\n      pop\n      jump\t// out\n        /* \"#utility.yul\":25195:25303   */\n    tag_386:\n        /* \"#utility.yul\":25272:25296   */\n      tag_630\n        /* \"#utility.yul\":25290:25295   */\n      dup2\n        /* \"#utility.yul\":25272:25296   */\n      tag_338\n      jump\t// in\n    tag_630:\n        /* \"#utility.yul\":25267:25270   */\n      dup3\n        /* \"#utility.yul\":25260:25297   */\n      mstore\n        /* \"#utility.yul\":25195:25303   */\n      pop\n      pop\n      jump\t// out\n        /* \"#utility.yul\":25309:25488   */\n    tag_387:\n        /* \"#utility.yul\":25378:25388   */\n      0x00\n        /* \"#utility.yul\":25399:25445   */\n      tag_632\n        /* \"#utility.yul\":25441:25444   */\n      dup4\n        /* \"#utility.yul\":25433:25439   */\n      dup4\n        /* \"#utility.yul\":25399:25445   */\n      tag_386\n      jump\t// in\n    tag_632:\n        /* \"#utility.yul\":25477:25481   */\n      0x20\n        /* \"#utility.yul\":25472:25475   */\n      dup4\n        /* \"#utility.yul\":25468:25482   */\n      add\n        /* \"#utility.yul\":25454:25482   */\n      swap1\n      pop\n        /* \"#utility.yul\":25309:25488   */\n      swap3\n      swap2\n      pop\n      pop\n      jump\t// out\n        /* \"#utility.yul\":25494:25607   */\n    tag_388:\n        /* \"#utility.yul\":25564:25568   */\n      0x00\n        /* \"#utility.yul\":25596:25600   */\n      0x20\n        /* \"#utility.yul\":25591:25594   */\n      dup3\n        /* \"#utility.yul\":25587:25601   */\n      add\n        /* \"#utility.yul\":25579:25601   */\n      swap1\n      pop\n        /* \"#utility.yul\":25494:25607   */\n      swap2\n      swap1\n      pop\n      jump\t// out\n        /* \"#utility.yul\":25643:26375   */\n    tag_389:\n        /* \"#utility.yul\":25762:25765   */\n      0x00\n        /* \"#utility.yul\":25791:25845   */\n      tag_635\n        /* \"#utility.yul\":25839:25844   */\n      dup3\n        /* \"#utility.yul\":25791:25845   */\n      tag_383\n      jump\t// in\n    tag_635:\n        /* \"#utility.yul\":25861:25947   */\n      tag_636\n        /* \"#utility.yul\":25940:25946   */\n      dup2\n        /* \"#utility.yul\":25935:25938   */\n      dup6\n        /* \"#utility.yul\":25861:25947   */\n      tag_384\n      jump\t// in\n    tag_636:\n        /* \"#utility.yul\":25854:25947   */\n      swap4\n      pop\n        /* \"#utility.yul\":25971:26027   */\n      tag_637\n        /* \"#utility.yul\":26021:26026   */\n      dup4\n        /* \"#utility.yul\":25971:26027   */\n      tag_385\n      jump\t// in\n    tag_637:\n        /* \"#utility.yul\":26050:26057   */\n      dup1\n        /* \"#utility.yul\":26081:26082   */\n      0x00\n        /* \"#utility.yul\":26066:26350   */\n    tag_638:\n        /* \"#utility.yul\":26091:26097   */\n      dup4\n        /* \"#utility.yul\":26088:26089   */\n      dup2\n        /* \"#utility.yul\":26085:26098   */\n      lt\n        /* \"#utility.yul\":26066:26350   */\n      iszero\n      tag_640\n      jumpi\n        /* \"#utility.yul\":26167:26173   */\n      dup2\n        /* \"#utility.yul\":26161:26174   */\n      mload\n        /* \"#utility.yul\":26194:26257   */\n      tag_641\n        /* \"#utility.yul\":26253:26256   */\n      dup9\n        /* \"#utility.yul\":26238:26251   */\n      dup3\n        /* \"#utility.yul\":26194:26257   */\n      tag_387\n      jump\t// in\n    tag_641:\n        /* \"#utility.yul\":26187:26257   */\n      swap8\n      pop\n        /* \"#utility.yul\":26280:26340   */\n      tag_642\n        /* \"#utility.yul\":26333:26339   */\n      dup4\n        /* \"#utility.yul\":26280:26340   */\n      tag_388\n      jump\t// in\n    tag_642:\n        /* \"#utility.yul\":26270:26340   */\n      swap3\n      pop\n        /* \"#utility.yul\":26126:26350   */\n      pop\n        /* \"#utility.yul\":26113:26114   */\n      0x01\n        /* \"#utility.yul\":26110:26111   */\n      dup2\n        /* \"#utility.yul\":26106:26115   */\n      add\n        /* \"#utility.yul\":26101:26115   */\n      swap1\n      pop\n        /* \"#utility.yul\":26066:26350   */\n      jump(tag_638)\n    tag_640:\n        /* \"#utility.yul\":26070:26084   */\n      pop\n        /* \"#utility.yul\":26366:26369   */\n      dup6\n        /* \"#utility.yul\":26359:26369   */\n      swap4\n      pop\n        /* \"#utility.yul\":25767:26375   */\n      pop\n      pop\n      pop\n        /* \"#utility.yul\":25643:26375   */\n      swap3\n      swap2\n      pop\n      pop\n      jump\t// out\n        /* \"#utility.yul\":26381:27212   */\n    tag_319:\n        /* \"#utility.yul\":26644:26648   */\n      0x00\n        /* \"#utility.yul\":26682:26685   */\n      0xa0\n        /* \"#utility.yul\":26671:26680   */\n      dup3\n        /* \"#utility.yul\":26667:26686   */\n      add\n        /* \"#utility.yul\":26659:26686   */\n      swap1\n      pop\n        /* \"#utility.yul\":26696:26767   */\n      tag_644\n        /* \"#utility.yul\":26764:26765   */\n      0x00\n        /* \"#utility.yul\":26753:26762   */\n      dup4\n        /* \"#utility.yul\":26749:26766   */\n      add\n        /* \"#utility.yul\":26740:26746   */\n      dup9\n        /* \"#utility.yul\":26696:26767   */\n      tag_346\n      jump\t// in\n    tag_644:\n        /* \"#utility.yul\":26777:26857   */\n      tag_645\n        /* \"#utility.yul\":26853:26855   */\n      0x20\n        /* \"#utility.yul\":26842:26851   */\n      dup4\n        /* \"#utility.yul\":26838:26856   */\n      add\n        /* \"#utility.yul\":26829:26835   */\n      dup8\n        /* \"#utility.yul\":26777:26857   */\n      tag_362\n      jump\t// in\n    tag_645:\n        /* \"#utility.yul\":26904:26913   */\n      dup2\n        /* \"#utility.yul\":26898:26902   */\n      dup2\n        /* \"#utility.yul\":26894:26914   */\n      sub\n        /* \"#utility.yul\":26889:26891   */\n      0x40\n        /* \"#utility.yul\":26878:26887   */\n      dup4\n        /* \"#utility.yul\":26874:26892   */\n      add\n        /* \"#utility.yul\":26867:26915   */\n      mstore\n        /* \"#utility.yul\":26932:27040   */\n      tag_646\n        /* \"#utility.yul\":27035:27039   */\n      dup2\n        /* \"#utility.yul\":27026:27032   */\n      dup7\n        /* \"#utility.yul\":26932:27040   */\n      tag_389\n      jump\t// in\n    tag_646:\n        /* \"#utility.yul\":26924:27040   */\n      swap1\n      pop\n        /* \"#utility.yul\":27050:27122   */\n      tag_647\n        /* \"#utility.yul\":27118:27120   */\n      0x60\n        /* \"#utility.yul\":27107:27116   */\n      dup4\n        /* \"#utility.yul\":27103:27121   */\n      add\n        /* \"#utility.yul\":27094:27100   */\n      dup6\n        /* \"#utility.yul\":27050:27122   */\n      tag_349\n      jump\t// in\n    tag_647:\n        /* \"#utility.yul\":27132:27205   */\n      tag_648\n        /* \"#utility.yul\":27200:27203   */\n      0x80\n        /* \"#utility.yul\":27189:27198   */\n      dup4\n        /* \"#utility.yul\":27185:27204   */\n      add\n        /* \"#utility.yul\":27176:27182   */\n      dup5\n        /* \"#utility.yul\":27132:27205   */\n      tag_346\n      jump\t// in\n    tag_648:\n        /* \"#utility.yul\":26381:27212   */\n      swap7\n      swap6\n      pop\n      pop\n      pop\n      pop\n      pop\n      pop\n      jump\t// out\n\n    auxdata: 0xa26469706673582212208e1790c83258397472da1e4cb2b231fc31e459f6353ce1698e040b79e44f4ed564736f6c634300080a0033\n}\n",
				"bytecode": {
					"linkReferences": {},
					"object": "60806040526000600560006101000a81548160ff021916908315150217905550600a600655601e60075560016008556001600955601e600a55602d600b55601e600c556000600d5560326008600a62000059919062000675565b653ec1507d50006200006c9190620006c6565b62000078919062000756565b600e5560326008600a6200008d919062000675565b653ec1507d5000620000a09190620006c6565b620000ac919062000756565b600f556103e86008600a620000c2919062000675565b653ec1507d5000620000d59190620006c6565b620000e1919062000756565b6010556103e86008600a620000f7919062000675565b653ec1507d50006200010a9190620006c6565b62000116919062000756565b6011556000601360156101000a81548160ff0219169083151502179055506000601360166101000a81548160ff0219169083151502179055503480156200015c57600080fd5b5060006200016f620004aa60201b60201c565b9050806000806101000a81548173ffffffffffffffffffffffffffffffffffffffff021916908373ffffffffffffffffffffffffffffffffffffffff1602179055508073ffffffffffffffffffffffffffffffffffffffff16600073ffffffffffffffffffffffffffffffffffffffff167f8be0079c531659141344cd1fd0a4f28419497f9722a3daafe3b4186f6b6457e060405160405180910390a3506200021d620004aa60201b60201c565b600560016101000a81548173ffffffffffffffffffffffffffffffffffffffff021916908373ffffffffffffffffffffffffffffffffffffffff1602179055506008600a6200026d919062000675565b653ec1507d5000620002809190620006c6565b6001600062000294620004aa60201b60201c565b73ffffffffffffffffffffffffffffffffffffffff1673ffffffffffffffffffffffffffffffffffffffff16815260200190815260200160002081905550600160036000620002e8620004b260201b60201c565b73ffffffffffffffffffffffffffffffffffffffff1673ffffffffffffffffffffffffffffffffffffffff16815260200190815260200160002060006101000a81548160ff0219169083151502179055506001600360003073ffffffffffffffffffffffffffffffffffffffff1673ffffffffffffffffffffffffffffffffffffffff16815260200190815260200160002060006101000a81548160ff021916908315150217905550600160036000600560019054906101000a900473ffffffffffffffffffffffffffffffffffffffff1673ffffffffffffffffffffffffffffffffffffffff1673ffffffffffffffffffffffffffffffffffffffff16815260200190815260200160002060006101000a81548160ff0219169083151502179055506200041b620004aa60201b60201c565b73ffffffffffffffffffffffffffffffffffffffff16600073ffffffffffffffffffffffffffffffffffffffff167fddf252ad1be2c89b69c2b068fc378daa952ba7f163c4a11628f55a4df523b3ef6008600a6200047a919062000675565b653ec1507d50006200048d9190620006c6565b6040516200049c91906200079f565b60405180910390a3620007bc565b600033905090565b60008060009054906101000a900473ffffffffffffffffffffffffffffffffffffffff16905090565b7f4e487b7100000000000000000000000000000000000000000000000000000000600052601160045260246000fd5b60008160011c9050919050565b6000808291508390505b60018511156200056957808604811115620005415762000540620004db565b5b6001851615620005515780820291505b808102905062000561856200050a565b945062000521565b94509492505050565b60008262000584576001905062000657565b8162000594576000905062000657565b8160018114620005ad5760028114620005b857620005ee565b600191505062000657565b60ff841115620005cd57620005cc620004db565b5b8360020a915084821115620005e757620005e6620004db565b5b5062000657565b5060208310610133831016604e8410600b8410161715620006285782820a905083811115620006225762000621620004db565b5b62000657565b62000637848484600162000517565b92509050818404811115620006515762000650620004db565b5b81810290505b9392505050565b6000819050919050565b600060ff82169050919050565b600062000682826200065e565b91506200068f8362000668565b9250620006be7fffffffffffffffffffffffffffffffffffffffffffffffffffffffffffffffff848462000572565b905092915050565b6000620006d3826200065e565b9150620006e0836200065e565b9250817fffffffffffffffffffffffffffffffffffffffffffffffffffffffffffffffff04831182151516156200071c576200071b620004db565b5b828202905092915050565b7f4e487b7100000000000000000000000000000000000000000000000000000000600052601260045260246000fd5b600062000763826200065e565b915062000770836200065e565b92508262000783576200078262000727565b5b828204905092915050565b62000799816200065e565b82525050565b6000602082019050620007b660008301846200078e565b92915050565b612ea180620007cc6000396000f3fe6080604052600436106101395760003560e01c8063715018a6116100ab57806395d89b411161006f57806395d89b41146103d9578063a9059cbb14610404578063bf474bed14610441578063c36956a01461046c578063c876d0b914610497578063dd62ed3e146104c257610140565b8063715018a61461032a578063751039fc146103415780637d1db4a5146103585780638da5cb5b146103835780638f9a55c0146103ae57610140565b80630faee56f116100fd5780630faee56f1461021857806318160ddd1461024357806323b872dd1461026e578063313ce567146102ab57806351bc3c85146102d657806370a08231146102ed57610140565b806302ac81681461014557806306fdde031461015c578063095ea7b3146101875780630c193045146101c45780630ce5fd36146101ef57610140565b3661014057005b600080fd5b34801561015157600080fd5b5061015a6104ff565b005b34801561016857600080fd5b50610171610a39565b60405161017e9190611ffb565b60405180910390f35b34801561019357600080fd5b506101ae60048036038101906101a991906120b6565b610a76565b6040516101bb9190612111565b60405180910390f35b3480156101d057600080fd5b506101d9610a94565b6040516101e6919061213b565b60405180910390f35b3480156101fb57600080fd5b5061021660048036038101906102119190612156565b610a9a565b005b34801561022457600080fd5b5061022d610b51565b60405161023a919061213b565b60405180910390f35b34801561024f57600080fd5b50610258610b57565b604051610265919061213b565b60405180910390f35b34801561027a57600080fd5b5061029560048036038101906102909190612183565b610b7d565b6040516102a29190612111565b60405180910390f35b3480156102b757600080fd5b506102c0610c35565b6040516102cd91906121f2565b60405180910390f35b3480156102e257600080fd5b506102eb610c3e565b005b3480156102f957600080fd5b50610314600480360381019061030f919061220d565b610cdb565b604051610321919061213b565b60405180910390f35b34801561033657600080fd5b5061033f610d24565b005b34801561034d57600080fd5b50610356610e77565b005b34801561036457600080fd5b5061036d610fd8565b60405161037a919061213b565b60405180910390f35b34801561038f57600080fd5b50610398610fde565b6040516103a59190612249565b60405180910390f35b3480156103ba57600080fd5b506103c3611007565b6040516103d0919061213b565b60405180910390f35b3480156103e557600080fd5b506103ee61100d565b6040516103fb9190611ffb565b60405180910390f35b34801561041057600080fd5b5061042b600480360381019061042691906120b6565b61104a565b6040516104389190612111565b60405180910390f35b34801561044d57600080fd5b50610456611068565b604051610463919061213b565b60405180910390f35b34801561047857600080fd5b5061048161106e565b60405161048e919061213b565b60405180910390f35b3480156104a357600080fd5b506104ac611074565b6040516104b99190612111565b60405180910390f35b3480156104ce57600080fd5b506104e960048036038101906104e49190612264565b611087565b6040516104f6919061213b565b60405180910390f35b61050761110e565b73ffffffffffffffffffffffffffffffffffffffff1660008054906101000a900473ffffffffffffffffffffffffffffffffffffffff1673ffffffffffffffffffffffffffffffffffffffff1614610594576040517f08c379a000000000000000000000000000000000000000000000000000000000815260040161058b906122f0565b60405180910390fd5b601360149054906101000a900460ff16156105e4576040517f08c379a00000000000000000000000000000000000000000000000000000000081526004016105db9061235c565b60405180910390fd5b737a250d5630b4cf539739df2c5dacb4c659f2488d601260006101000a81548173ffffffffffffffffffffffffffffffffffffffff021916908373ffffffffffffffffffffffffffffffffffffffff16021790555061068430601260009054906101000a900473ffffffffffffffffffffffffffffffffffffffff166008600a61066e91906124de565b653ec1507d500061067f9190612529565b611116565b601260009054906101000a900473ffffffffffffffffffffffffffffffffffffffff1673ffffffffffffffffffffffffffffffffffffffff1663c45a01556040518163ffffffff1660e01b8152600401602060405180830381865afa1580156106f1573d6000803e3d6000fd5b505050506040513d601f19601f820116820180604052508101906107159190612598565b73ffffffffffffffffffffffffffffffffffffffff1663c9c6539630601260009054906101000a900473ffffffffffffffffffffffffffffffffffffffff1673ffffffffffffffffffffffffffffffffffffffff1663ad5c46486040518163ffffffff1660e01b8152600401602060405180830381865afa15801561079e573d6000803e3d6000fd5b505050506040513d601f19601f820116820180604052508101906107c29190612598565b6040518363ffffffff1660e01b81526004016107df9291906125c5565b6020604051808303816000875af11580156107fe573d6000803e3d6000fd5b505050506040513d601f19601f820116820180604052508101906108229190612598565b601360006101000a81548173ffffffffffffffffffffffffffffffffffffffff021916908373ffffffffffffffffffffffffffffffffffffffff160217905550601260009054906101000a900473ffffffffffffffffffffffffffffffffffffffff1673ffffffffffffffffffffffffffffffffffffffff1663f305d71947306108ab30610cdb565b6000806108b6610fde565b426040518863ffffffff1660e01b81526004016108d896959493929190612633565b60606040518083038185885af11580156108f6573d6000803e3d6000fd5b50505050506040513d601f19601f8201168201806040525081019061091b91906126a9565b505050601360009054906101000a900473ffffffffffffffffffffffffffffffffffffffff1673ffffffffffffffffffffffffffffffffffffffff1663095ea7b3601260009054906101000a900473ffffffffffffffffffffffffffffffffffffffff167fffffffffffffffffffffffffffffffffffffffffffffffffffffffffffffffff6040518363ffffffff1660e01b81526004016109bd9291906126fc565b6020604051808303816000875af11580156109dc573d6000803e3d6000fd5b505050506040513d601f19601f82011682018060405250810190610a009190612751565b506001601360166101000a81548160ff0219169083151502179055506001601360146101000a81548160ff021916908315150217905550565b60606040518060400160405280600681526020017f73707572646f0000000000000000000000000000000000000000000000000000815250905090565b6000610a8a610a8361110e565b8484611116565b6001905092915050565b600a5481565b610aa261110e565b73ffffffffffffffffffffffffffffffffffffffff1660008054906101000a900473ffffffffffffffffffffffffffffffffffffffff1673ffffffffffffffffffffffffffffffffffffffff1614610b2f576040517f08c379a0000000000000000000000000000000000000000000000000000000008152600401610b26906122f0565b60405180910390fd5b6305f5e10081610b3f9190612529565b60118190555060115460108190555050565b60115481565b60006008600a610b6791906124de565b653ec1507d5000610b789190612529565b905090565b6000610b8a8484846112e1565b610c2a84610b9661110e565b84600260008973ffffffffffffffffffffffffffffffffffffffff1673ffffffffffffffffffffffffffffffffffffffff1681526020019081526020016000206000610be061110e565b73ffffffffffffffffffffffffffffffffffffffff1673ffffffffffffffffffffffffffffffffffffffff16815260200190815260200160002054610c25919061277e565b611116565b600190509392505050565b60006008905090565b600560019054906101000a900473ffffffffffffffffffffffffffffffffffffffff1673ffffffffffffffffffffffffffffffffffffffff16610c7f61110e565b73ffffffffffffffffffffffffffffffffffffffff1614610c9f57600080fd5b6000610caa30610cdb565b90506000811115610cbf57610cbe81611c3c565b5b60004790506000811115610cd757610cd681611edd565b5b5050565b6000600160008373ffffffffffffffffffffffffffffffffffffffff1673ffffffffffffffffffffffffffffffffffffffff168152602001908152602001600020549050919050565b610d2c61110e565b73ffffffffffffffffffffffffffffffffffffffff1660008054906101000a900473ffffffffffffffffffffffffffffffffffffffff1673ffffffffffffffffffffffffffffffffffffffff1614610db9576040517f08c379a0000000000000000000000000000000000000000000000000000000008152600401610db0906122f0565b60405180910390fd5b600073ffffffffffffffffffffffffffffffffffffffff1660008054906101000a900473ffffffffffffffffffffffffffffffffffffffff1673ffffffffffffffffffffffffffffffffffffffff167f8be0079c531659141344cd1fd0a4f28419497f9722a3daafe3b4186f6b6457e060405160405180910390a360008060006101000a81548173ffffffffffffffffffffffffffffffffffffffff021916908373ffffffffffffffffffffffffffffffffffffffff160217905550565b610e7f61110e565b73ffffffffffffffffffffffffffffffffffffffff1660008054906101000a900473ffffffffffffffffffffffffffffffffffffffff1673ffffffffffffffffffffffffffffffffffffffff1614610f0c576040517f08c379a0000000000000000000000000000000000000000000000000000000008152600401610f03906122f0565b60405180910390fd5b6008600a610f1a91906124de565b653ec1507d5000610f2b9190612529565b600e819055506008600a610f3f91906124de565b653ec1507d5000610f509190612529565b600f819055506000600560006101000a81548160ff0219169083151502179055506014600b819055506014600a819055507f947f344d56e1e8c70dc492fb94c4ddddd490c016aab685f5e7e47b2e85cb44cf6008600a610fb091906124de565b653ec1507d5000610fc19190612529565b604051610fce919061213b565b60405180910390a1565b600e5481565b60008060009054906101000a900473ffffffffffffffffffffffffffffffffffffffff16905090565b600f5481565b60606040518060400160405280600681526020017f73707572646f0000000000000000000000000000000000000000000000000000815250905090565b600061105e61105761110e565b84846112e1565b6001905092915050565b60105481565b600b5481565b600560009054906101000a900460ff1681565b6000600260008473ffffffffffffffffffffffffffffffffffffffff1673ffffffffffffffffffffffffffffffffffffffff16815260200190815260200160002060008373ffffffffffffffffffffffffffffffffffffffff1673ffffffffffffffffffffffffffffffffffffffff16815260200190815260200160002054905092915050565b600033905090565b600073ffffffffffffffffffffffffffffffffffffffff168373ffffffffffffffffffffffffffffffffffffffff161415611186576040517f08c379a000000000000000000000000000000000000000000000000000000000815260040161117d90612824565b60405180910390fd5b600073ffffffffffffffffffffffffffffffffffffffff168273ffffffffffffffffffffffffffffffffffffffff1614156111f6576040517f08c379a00000000000000000000000000000000000000000000000000000000081526004016111ed906128b6565b60405180910390fd5b80600260008573ffffffffffffffffffffffffffffffffffffffff1673ffffffffffffffffffffffffffffffffffffffff16815260200190815260200160002060008473ffffffffffffffffffffffffffffffffffffffff1673ffffffffffffffffffffffffffffffffffffffff168152602001908152602001600020819055508173ffffffffffffffffffffffffffffffffffffffff168373ffffffffffffffffffffffffffffffffffffffff167f8c5be1e5ebec7d5bd14f71427d1e84f3dd0314c0f7b2291e5b200ac8c7c3b925836040516112d4919061213b565b60405180910390a3505050565b600073ffffffffffffffffffffffffffffffffffffffff168373ffffffffffffffffffffffffffffffffffffffff161415611351576040517f08c379a000000000000000000000000000000000000000000000000000000000815260040161134890612948565b60405180910390fd5b600073ffffffffffffffffffffffffffffffffffffffff168273ffffffffffffffffffffffffffffffffffffffff1614156113c1576040517f08c379a00000000000000000000000000000000000000000000000000000000081526004016113b8906129da565b60405180910390fd5b60008111611404576040517f08c379a00000000000000000000000000000000000000000000000000000000081526004016113fb90612a6c565b60405180910390fd5b600061140e610fde565b73ffffffffffffffffffffffffffffffffffffffff168473ffffffffffffffffffffffffffffffffffffffff161415801561147c575061144c610fde565b73ffffffffffffffffffffffffffffffffffffffff168373ffffffffffffffffffffffffffffffffffffffff1614155b156119a257600560009054906101000a900460ff161561160e57601260009054906101000a900473ffffffffffffffffffffffffffffffffffffffff1673ffffffffffffffffffffffffffffffffffffffff168373ffffffffffffffffffffffffffffffffffffffff16141580156115425750601360009054906101000a900473ffffffffffffffffffffffffffffffffffffffff1673ffffffffffffffffffffffffffffffffffffffff168373ffffffffffffffffffffffffffffffffffffffff1614155b1561160d5743600460003273ffffffffffffffffffffffffffffffffffffffff1673ffffffffffffffffffffffffffffffffffffffff16815260200190815260200160002054106115c8576040517f08c379a00000000000000000000000000000000000000000000000000000000081526004016115bf90612afe565b60405180910390fd5b43600460003273ffffffffffffffffffffffffffffffffffffffff1673ffffffffffffffffffffffffffffffffffffffff168152602001908152602001600020819055505b5b601360009054906101000a900473ffffffffffffffffffffffffffffffffffffffff1673ffffffffffffffffffffffffffffffffffffffff168473ffffffffffffffffffffffffffffffffffffffff161480156116b95750601260009054906101000a900473ffffffffffffffffffffffffffffffffffffffff1673ffffffffffffffffffffffffffffffffffffffff168373ffffffffffffffffffffffffffffffffffffffff1614155b801561170f5750600360008473ffffffffffffffffffffffffffffffffffffffff1673ffffffffffffffffffffffffffffffffffffffff16815260200190815260200160002060009054906101000a900460ff16155b156117ca57600e54821115611759576040517f08c379a000000000000000000000000000000000000000000000000000000000815260040161175090612b6a565b60405180910390fd5b600f548261176685610cdb565b6117709190612b8a565b11156117b1576040517f08c379a00000000000000000000000000000000000000000000000000000000081526004016117a890612c2c565b60405180910390fd5b600d60008154809291906117c490612c4c565b91905055505b6064600a54600d54116117df576006546117e3565b6008545b836117ee9190612529565b6117f89190612cc4565b9050601360009054906101000a900473ffffffffffffffffffffffffffffffffffffffff1673ffffffffffffffffffffffffffffffffffffffff168373ffffffffffffffffffffffffffffffffffffffff1614801561188357503073ffffffffffffffffffffffffffffffffffffffff168473ffffffffffffffffffffffffffffffffffffffff1614155b156118b9576064600b54600d541161189d576007546118a1565b6009545b836118ac9190612529565b6118b69190612cc4565b90505b60006118c430610cdb565b9050601360159054906101000a900460ff161580156119305750601360009054906101000a900473ffffffffffffffffffffffffffffffffffffffff1673ffffffffffffffffffffffffffffffffffffffff168473ffffffffffffffffffffffffffffffffffffffff16145b80156119485750601360169054906101000a900460ff165b8015611955575060105481115b80156119645750600c54600d54115b156119a0576119866119818461197c84601154611f49565b611f49565b611c3c565b6000479050600081111561199e5761199d47611edd565b5b505b505b6000811115611a9f5780600160003073ffffffffffffffffffffffffffffffffffffffff1673ffffffffffffffffffffffffffffffffffffffff168152602001908152602001600020546119f69190612b8a565b600160003073ffffffffffffffffffffffffffffffffffffffff1673ffffffffffffffffffffffffffffffffffffffff168152602001908152602001600020819055503073ffffffffffffffffffffffffffffffffffffffff168473ffffffffffffffffffffffffffffffffffffffff167fddf252ad1be2c89b69c2b068fc378daa952ba7f163c4a11628f55a4df523b3ef83604051611a96919061213b565b60405180910390a35b81600160008673ffffffffffffffffffffffffffffffffffffffff1673ffffffffffffffffffffffffffffffffffffffff16815260200190815260200160002054611aea919061277e565b600160008673ffffffffffffffffffffffffffffffffffffffff1673ffffffffffffffffffffffffffffffffffffffff168152602001908152602001600020819055508082611b39919061277e565b600160008573ffffffffffffffffffffffffffffffffffffffff1673ffffffffffffffffffffffffffffffffffffffff16815260200190815260200160002054611b839190612b8a565b600160008573ffffffffffffffffffffffffffffffffffffffff1673ffffffffffffffffffffffffffffffffffffffff168152602001908152602001600020819055508273ffffffffffffffffffffffffffffffffffffffff168473ffffffffffffffffffffffffffffffffffffffff167fddf252ad1be2c89b69c2b068fc378daa952ba7f163c4a11628f55a4df523b3ef8385611c21919061277e565b604051611c2e919061213b565b60405180910390a350505050565b6001601360156101000a81548160ff0219169083151502179055506000811415611c6557611ebf565b601360149054906101000a900460ff16611c7e57611ebf565b6000600267ffffffffffffffff811115611c9b57611c9a612cf5565b5b604051908082528060200260200182016040528015611cc95781602001602082028036833780820191505090505b5090503081600081518110611ce157611ce0612d24565b5b602002602001019073ffffffffffffffffffffffffffffffffffffffff16908173ffffffffffffffffffffffffffffffffffffffff1681525050601260009054906101000a900473ffffffffffffffffffffffffffffffffffffffff1673ffffffffffffffffffffffffffffffffffffffff1663ad5c46486040518163ffffffff1660e01b8152600401602060405180830381865afa158015611d88573d6000803e3d6000fd5b505050506040513d601f19601f82011682018060405250810190611dac9190612598565b81600181518110611dc057611dbf612d24565b5b602002602001019073ffffffffffffffffffffffffffffffffffffffff16908173ffffffffffffffffffffffffffffffffffffffff1681525050611e2730601260009054906101000a900473ffffffffffffffffffffffffffffffffffffffff1684611116565b601260009054906101000a900473ffffffffffffffffffffffffffffffffffffffff1673ffffffffffffffffffffffffffffffffffffffff1663791ac9478360008430426040518663ffffffff1660e01b8152600401611e8b959493929190612e11565b600060405180830381600087803b158015611ea557600080fd5b505af1158015611eb9573d6000803e3d6000fd5b50505050505b6000601360156101000a81548160ff02191690831515021790555050565b600560019054906101000a900473ffffffffffffffffffffffffffffffffffffffff1673ffffffffffffffffffffffffffffffffffffffff166108fc829081150290604051600060405180830381858888f19350505050158015611f45573d6000803e3d6000fd5b5050565b6000818311611f585782611f5a565b815b905092915050565b600081519050919050565b600082825260208201905092915050565b60005b83811015611f9c578082015181840152602081019050611f81565b83811115611fab576000848401525b50505050565b6000601f19601f8301169050919050565b6000611fcd82611f62565b611fd78185611f6d565b9350611fe7818560208601611f7e565b611ff081611fb1565b840191505092915050565b600060208201905081810360008301526120158184611fc2565b905092915050565b600080fd5b600073ffffffffffffffffffffffffffffffffffffffff82169050919050565b600061204d82612022565b9050919050565b61205d81612042565b811461206857600080fd5b50565b60008135905061207a81612054565b92915050565b6000819050919050565b61209381612080565b811461209e57600080fd5b50565b6000813590506120b08161208a565b92915050565b600080604083850312156120cd576120cc61201d565b5b60006120db8582860161206b565b92505060206120ec858286016120a1565b9150509250929050565b60008115159050919050565b61210b816120f6565b82525050565b60006020820190506121266000830184612102565b92915050565b61213581612080565b82525050565b6000602082019050612150600083018461212c565b92915050565b60006020828403121561216c5761216b61201d565b5b600061217a848285016120a1565b91505092915050565b60008060006060848603121561219c5761219b61201d565b5b60006121aa8682870161206b565b93505060206121bb8682870161206b565b92505060406121cc868287016120a1565b9150509250925092565b600060ff82169050919050565b6121ec816121d6565b82525050565b600060208201905061220760008301846121e3565b92915050565b6000602082840312156122235761222261201d565b5b60006122318482850161206b565b91505092915050565b61224381612042565b82525050565b600060208201905061225e600083018461223a565b92915050565b6000806040838503121561227b5761227a61201d565b5b60006122898582860161206b565b925050602061229a8582860161206b565b9150509250929050565b7f4f776e61626c653a2063616c6c6572206973206e6f7420746865206f776e6572600082015250565b60006122da602083611f6d565b91506122e5826122a4565b602082019050919050565b60006020820190508181036000830152612309816122cd565b9050919050565b7f74726164696e6720697320616c7265616479206f70656e000000000000000000600082015250565b6000612346601783611f6d565b915061235182612310565b602082019050919050565b6000602082019050818103600083015261237581612339565b9050919050565b7f4e487b7100000000000000000000000000000000000000000000000000000000600052601160045260246000fd5b60008160011c9050919050565b6000808291508390505b6001851115612402578086048111156123de576123dd61237c565b5b60018516156123ed5780820291505b80810290506123fb856123ab565b94506123c2565b94509492505050565b60008261241b57600190506124d7565b8161242957600090506124d7565b816001811461243f576002811461244957612478565b60019150506124d7565b60ff84111561245b5761245a61237c565b5b8360020a9150848211156124725761247161237c565b5b506124d7565b5060208310610133831016604e8410600b84101617156124ad5782820a9050838111156124a8576124a761237c565b5b6124d7565b6124ba84848460016123b8565b925090508184048111156124d1576124d061237c565b5b81810290505b9392505050565b60006124e982612080565b91506124f4836121d6565b92506125217fffffffffffffffffffffffffffffffffffffffffffffffffffffffffffffffff848461240b565b905092915050565b600061253482612080565b915061253f83612080565b9250817fffffffffffffffffffffffffffffffffffffffffffffffffffffffffffffffff04831182151516156125785761257761237c565b5b828202905092915050565b60008151905061259281612054565b92915050565b6000602082840312156125ae576125ad61201d565b5b60006125bc84828501612583565b91505092915050565b60006040820190506125da600083018561223a565b6125e7602083018461223a565b9392505050565b6000819050919050565b6000819050919050565b600061261d612618612613846125ee565b6125f8565b612080565b9050919050565b61262d81612602565b82525050565b600060c082019050612648600083018961223a565b612655602083018861212c565b6126626040830187612624565b61266f6060830186612624565b61267c608083018561223a565b61268960a083018461212c565b979650505050505050565b6000815190506126a38161208a565b92915050565b6000806000606084860312156126c2576126c161201d565b5b60006126d086828701612694565b93505060206126e186828701612694565b92505060406126f286828701612694565b9150509250925092565b6000604082019050612711600083018561223a565b61271e602083018461212c565b9392505050565b61272e816120f6565b811461273957600080fd5b50565b60008151905061274b81612725565b92915050565b6000602082840312156127675761276661201d565b5b60006127758482850161273c565b91505092915050565b600061278982612080565b915061279483612080565b9250828210156127a7576127a661237c565b5b828203905092915050565b7f45524332303a20617070726f76652066726f6d20746865207a65726f2061646460008201527f7265737300000000000000000000000000000000000000000000000000000000602082015250565b600061280e602483611f6d565b9150612819826127b2565b604082019050919050565b6000602082019050818103600083015261283d81612801565b9050919050565b7f45524332303a20617070726f766520746f20746865207a65726f20616464726560008201527f7373000000000000000000000000000000000000000000000000000000000000602082015250565b60006128a0602283611f6d565b91506128ab82612844565b604082019050919050565b600060208201905081810360008301526128cf81612893565b9050919050565b7f45524332303a207472616e736665722066726f6d20746865207a65726f20616460008201527f6472657373000000000000000000000000000000000000000000000000000000602082015250565b6000612932602583611f6d565b915061293d826128d6565b604082019050919050565b6000602082019050818103600083015261296181612925565b9050919050565b7f45524332303a207472616e7366657220746f20746865207a65726f206164647260008201527f6573730000000000000000000000000000000000000000000000000000000000602082015250565b60006129c4602383611f6d565b91506129cf82612968565b604082019050919050565b600060208201905081810360008301526129f3816129b7565b9050919050565b7f5472616e7366657220616d6f756e74206d75737420626520677265617465722060008201527f7468616e207a65726f0000000000000000000000000000000000000000000000602082015250565b6000612a56602983611f6d565b9150612a61826129fa565b604082019050919050565b60006020820190508181036000830152612a8581612a49565b9050919050565b7f4f6e6c79206f6e65207472616e736665722070657220626c6f636b20616c6c6f60008201527f7765642e00000000000000000000000000000000000000000000000000000000602082015250565b6000612ae8602483611f6d565b9150612af382612a8c565b604082019050919050565b60006020820190508181036000830152612b1781612adb565b9050919050565b7f4578636565647320746865205f6d61785478416d6f756e742e00000000000000600082015250565b6000612b54601983611f6d565b9150612b5f82612b1e565b602082019050919050565b60006020820190508181036000830152612b8381612b47565b9050919050565b6000612b9582612080565b9150612ba083612080565b9250827fffffffffffffffffffffffffffffffffffffffffffffffffffffffffffffffff03821115612bd557612bd461237c565b5b828201905092915050565b7f4578636565647320746865206d617857616c6c657453697a652e000000000000600082015250565b6000612c16601a83611f6d565b9150612c2182612be0565b602082019050919050565b60006020820190508181036000830152612c4581612c09565b9050919050565b6000612c5782612080565b91507fffffffffffffffffffffffffffffffffffffffffffffffffffffffffffffffff821415612c8a57612c8961237c565b5b600182019050919050565b7f4e487b7100000000000000000000000000000000000000000000000000000000600052601260045260246000fd5b6000612ccf82612080565b9150612cda83612080565b925082612cea57612ce9612c95565b5b828204905092915050565b7f4e487b7100000000000000000000000000000000000000000000000000000000600052604160045260246000fd5b7f4e487b7100000000000000000000000000000000000000000000000000000000600052603260045260246000fd5b600081519050919050565b600082825260208201905092915050565b6000819050602082019050919050565b612d8881612042565b82525050565b6000612d9a8383612d7f565b60208301905092915050565b6000602082019050919050565b6000612dbe82612d53565b612dc88185612d5e565b9350612dd383612d6f565b8060005b83811015612e04578151612deb8882612d8e565b9750612df683612da6565b925050600181019050612dd7565b5085935050505092915050565b600060a082019050612e26600083018861212c565b612e336020830187612624565b8181036040830152612e458186612db3565b9050612e54606083018561223a565b612e61608083018461212c565b969550505050505056fea26469706673582212208e1790c83258397472da1e4cb2b231fc31e459f6353ce1698e040b79e44f4ed564736f6c634300080a0033",
					"opcodes": "PUSH1 0x80 PUSH1 0x40 MSTORE PUSH1 0x0 PUSH1 0x5 PUSH1 0x0 PUSH2 0x100 EXP DUP2 SLOAD DUP2 PUSH1 0xFF MUL NOT AND SWAP1 DUP4 ISZERO ISZERO MUL OR SWAP1 SSTORE POP PUSH1 0xA PUSH1 0x6 SSTORE PUSH1 0x1E PUSH1 0x7 SSTORE PUSH1 0x1 PUSH1 0x8 SSTORE PUSH1 0x1 PUSH1 0x9 SSTORE PUSH1 0x1E PUSH1 0xA SSTORE PUSH1 0x2D PUSH1 0xB SSTORE PUSH1 0x1E PUSH1 0xC SSTORE PUSH1 0x0 PUSH1 0xD SSTORE PUSH1 0x32 PUSH1 0x8 PUSH1 0xA PUSH3 0x59 SWAP2 SWAP1 PUSH3 0x675 JUMP JUMPDEST PUSH6 0x3EC1507D5000 PUSH3 0x6C SWAP2 SWAP1 PUSH3 0x6C6 JUMP JUMPDEST PUSH3 0x78 SWAP2 SWAP1 PUSH3 0x756 JUMP JUMPDEST PUSH1 0xE SSTORE PUSH1 0x32 PUSH1 0x8 PUSH1 0xA PUSH3 0x8D SWAP2 SWAP1 PUSH3 0x675 JUMP JUMPDEST PUSH6 0x3EC1507D5000 PUSH3 0xA0 SWAP2 SWAP1 PUSH3 0x6C6 JUMP JUMPDEST PUSH3 0xAC SWAP2 SWAP1 PUSH3 0x756 JUMP JUMPDEST PUSH1 0xF SSTORE PUSH2 0x3E8 PUSH1 0x8 PUSH1 0xA PUSH3 0xC2 SWAP2 SWAP1 PUSH3 0x675 JUMP JUMPDEST PUSH6 0x3EC1507D5000 PUSH3 0xD5 SWAP2 SWAP1 PUSH3 0x6C6 JUMP JUMPDEST PUSH3 0xE1 SWAP2 SWAP1 PUSH3 0x756 JUMP JUMPDEST PUSH1 0x10 SSTORE PUSH2 0x3E8 PUSH1 0x8 PUSH1 0xA PUSH3 0xF7 SWAP2 SWAP1 PUSH3 0x675 JUMP JUMPDEST PUSH6 0x3EC1507D5000 PUSH3 0x10A SWAP2 SWAP1 PUSH3 0x6C6 JUMP JUMPDEST PUSH3 0x116 SWAP2 SWAP1 PUSH3 0x756 JUMP JUMPDEST PUSH1 0x11 SSTORE PUSH1 0x0 PUSH1 0x13 PUSH1 0x15 PUSH2 0x100 EXP DUP2 SLOAD DUP2 PUSH1 0xFF MUL NOT AND SWAP1 DUP4 ISZERO ISZERO MUL OR SWAP1 SSTORE POP PUSH1 0x0 PUSH1 0x13 PUSH1 0x16 PUSH2 0x100 EXP DUP2 SLOAD DUP2 PUSH1 0xFF MUL NOT AND SWAP1 DUP4 ISZERO ISZERO MUL OR SWAP1 SSTORE POP CALLVALUE DUP1 ISZERO PUSH3 0x15C JUMPI PUSH1 0x0 DUP1 REVERT JUMPDEST POP PUSH1 0x0 PUSH3 0x16F PUSH3 0x4AA PUSH1 0x20 SHL PUSH1 0x20 SHR JUMP JUMPDEST SWAP1 POP DUP1 PUSH1 0x0 DUP1 PUSH2 0x100 EXP DUP2 SLOAD DUP2 PUSH20 0xFFFFFFFFFFFFFFFFFFFFFFFFFFFFFFFFFFFFFFFF MUL NOT AND SWAP1 DUP4 PUSH20 0xFFFFFFFFFFFFFFFFFFFFFFFFFFFFFFFFFFFFFFFF AND MUL OR SWAP1 SSTORE POP DUP1 PUSH20 0xFFFFFFFFFFFFFFFFFFFFFFFFFFFFFFFFFFFFFFFF AND PUSH1 0x0 PUSH20 0xFFFFFFFFFFFFFFFFFFFFFFFFFFFFFFFFFFFFFFFF AND PUSH32 0x8BE0079C531659141344CD1FD0A4F28419497F9722A3DAAFE3B4186F6B6457E0 PUSH1 0x40 MLOAD PUSH1 0x40 MLOAD DUP1 SWAP2 SUB SWAP1 LOG3 POP PUSH3 0x21D PUSH3 0x4AA PUSH1 0x20 SHL PUSH1 0x20 SHR JUMP JUMPDEST PUSH1 0x5 PUSH1 0x1 PUSH2 0x100 EXP DUP2 SLOAD DUP2 PUSH20 0xFFFFFFFFFFFFFFFFFFFFFFFFFFFFFFFFFFFFFFFF MUL NOT AND SWAP1 DUP4 PUSH20 0xFFFFFFFFFFFFFFFFFFFFFFFFFFFFFFFFFFFFFFFF AND MUL OR SWAP1 SSTORE POP PUSH1 0x8 PUSH1 0xA PUSH3 0x26D SWAP2 SWAP1 PUSH3 0x675 JUMP JUMPDEST PUSH6 0x3EC1507D5000 PUSH3 0x280 SWAP2 SWAP1 PUSH3 0x6C6 JUMP JUMPDEST PUSH1 0x1 PUSH1 0x0 PUSH3 0x294 PUSH3 0x4AA PUSH1 0x20 SHL PUSH1 0x20 SHR JUMP JUMPDEST PUSH20 0xFFFFFFFFFFFFFFFFFFFFFFFFFFFFFFFFFFFFFFFF AND PUSH20 0xFFFFFFFFFFFFFFFFFFFFFFFFFFFFFFFFFFFFFFFF AND DUP2 MSTORE PUSH1 0x20 ADD SWAP1 DUP2 MSTORE PUSH1 0x20 ADD PUSH1 0x0 KECCAK256 DUP2 SWAP1 SSTORE POP PUSH1 0x1 PUSH1 0x3 PUSH1 0x0 PUSH3 0x2E8 PUSH3 0x4B2 PUSH1 0x20 SHL PUSH1 0x20 SHR JUMP JUMPDEST PUSH20 0xFFFFFFFFFFFFFFFFFFFFFFFFFFFFFFFFFFFFFFFF AND PUSH20 0xFFFFFFFFFFFFFFFFFFFFFFFFFFFFFFFFFFFFFFFF AND DUP2 MSTORE PUSH1 0x20 ADD SWAP1 DUP2 MSTORE PUSH1 0x20 ADD PUSH1 0x0 KECCAK256 PUSH1 0x0 PUSH2 0x100 EXP DUP2 SLOAD DUP2 PUSH1 0xFF MUL NOT AND SWAP1 DUP4 ISZERO ISZERO MUL OR SWAP1 SSTORE POP PUSH1 0x1 PUSH1 0x3 PUSH1 0x0 ADDRESS PUSH20 0xFFFFFFFFFFFFFFFFFFFFFFFFFFFFFFFFFFFFFFFF AND PUSH20 0xFFFFFFFFFFFFFFFFFFFFFFFFFFFFFFFFFFFFFFFF AND DUP2 MSTORE PUSH1 0x20 ADD SWAP1 DUP2 MSTORE PUSH1 0x20 ADD PUSH1 0x0 KECCAK256 PUSH1 0x0 PUSH2 0x100 EXP DUP2 SLOAD DUP2 PUSH1 0xFF MUL NOT AND SWAP1 DUP4 ISZERO ISZERO MUL OR SWAP1 SSTORE POP PUSH1 0x1 PUSH1 0x3 PUSH1 0x0 PUSH1 0x5 PUSH1 0x1 SWAP1 SLOAD SWAP1 PUSH2 0x100 EXP SWAP1 DIV PUSH20 0xFFFFFFFFFFFFFFFFFFFFFFFFFFFFFFFFFFFFFFFF AND PUSH20 0xFFFFFFFFFFFFFFFFFFFFFFFFFFFFFFFFFFFFFFFF AND PUSH20 0xFFFFFFFFFFFFFFFFFFFFFFFFFFFFFFFFFFFFFFFF AND DUP2 MSTORE PUSH1 0x20 ADD SWAP1 DUP2 MSTORE PUSH1 0x20 ADD PUSH1 0x0 KECCAK256 PUSH1 0x0 PUSH2 0x100 EXP DUP2 SLOAD DUP2 PUSH1 0xFF MUL NOT AND SWAP1 DUP4 ISZERO ISZERO MUL OR SWAP1 SSTORE POP PUSH3 0x41B PUSH3 0x4AA PUSH1 0x20 SHL PUSH1 0x20 SHR JUMP JUMPDEST PUSH20 0xFFFFFFFFFFFFFFFFFFFFFFFFFFFFFFFFFFFFFFFF AND PUSH1 0x0 PUSH20 0xFFFFFFFFFFFFFFFFFFFFFFFFFFFFFFFFFFFFFFFF AND PUSH32 0xDDF252AD1BE2C89B69C2B068FC378DAA952BA7F163C4A11628F55A4DF523B3EF PUSH1 0x8 PUSH1 0xA PUSH3 0x47A SWAP2 SWAP1 PUSH3 0x675 JUMP JUMPDEST PUSH6 0x3EC1507D5000 PUSH3 0x48D SWAP2 SWAP1 PUSH3 0x6C6 JUMP JUMPDEST PUSH1 0x40 MLOAD PUSH3 0x49C SWAP2 SWAP1 PUSH3 0x79F JUMP JUMPDEST PUSH1 0x40 MLOAD DUP1 SWAP2 SUB SWAP1 LOG3 PUSH3 0x7BC JUMP JUMPDEST PUSH1 0x0 CALLER SWAP1 POP SWAP1 JUMP JUMPDEST PUSH1 0x0 DUP1 PUSH1 0x0 SWAP1 SLOAD SWAP1 PUSH2 0x100 EXP SWAP1 DIV PUSH20 0xFFFFFFFFFFFFFFFFFFFFFFFFFFFFFFFFFFFFFFFF AND SWAP1 POP SWAP1 JUMP JUMPDEST PUSH32 0x4E487B7100000000000000000000000000000000000000000000000000000000 PUSH1 0x0 MSTORE PUSH1 0x11 PUSH1 0x4 MSTORE PUSH1 0x24 PUSH1 0x0 REVERT JUMPDEST PUSH1 0x0 DUP2 PUSH1 0x1 SHR SWAP1 POP SWAP2 SWAP1 POP JUMP JUMPDEST PUSH1 0x0 DUP1 DUP3 SWAP2 POP DUP4 SWAP1 POP JUMPDEST PUSH1 0x1 DUP6 GT ISZERO PUSH3 0x569 JUMPI DUP1 DUP7 DIV DUP2 GT ISZERO PUSH3 0x541 JUMPI PUSH3 0x540 PUSH3 0x4DB JUMP JUMPDEST JUMPDEST PUSH1 0x1 DUP6 AND ISZERO PUSH3 0x551 JUMPI DUP1 DUP3 MUL SWAP2 POP JUMPDEST DUP1 DUP2 MUL SWAP1 POP PUSH3 0x561 DUP6 PUSH3 0x50A JUMP JUMPDEST SWAP5 POP PUSH3 0x521 JUMP JUMPDEST SWAP5 POP SWAP5 SWAP3 POP POP POP JUMP JUMPDEST PUSH1 0x0 DUP3 PUSH3 0x584 JUMPI PUSH1 0x1 SWAP1 POP PUSH3 0x657 JUMP JUMPDEST DUP2 PUSH3 0x594 JUMPI PUSH1 0x0 SWAP1 POP PUSH3 0x657 JUMP JUMPDEST DUP2 PUSH1 0x1 DUP2 EQ PUSH3 0x5AD JUMPI PUSH1 0x2 DUP2 EQ PUSH3 0x5B8 JUMPI PUSH3 0x5EE JUMP JUMPDEST PUSH1 0x1 SWAP2 POP POP PUSH3 0x657 JUMP JUMPDEST PUSH1 0xFF DUP5 GT ISZERO PUSH3 0x5CD JUMPI PUSH3 0x5CC PUSH3 0x4DB JUMP JUMPDEST JUMPDEST DUP4 PUSH1 0x2 EXP SWAP2 POP DUP5 DUP3 GT ISZERO PUSH3 0x5E7 JUMPI PUSH3 0x5E6 PUSH3 0x4DB JUMP JUMPDEST JUMPDEST POP PUSH3 0x657 JUMP JUMPDEST POP PUSH1 0x20 DUP4 LT PUSH2 0x133 DUP4 LT AND PUSH1 0x4E DUP5 LT PUSH1 0xB DUP5 LT AND OR ISZERO PUSH3 0x628 JUMPI DUP3 DUP3 EXP SWAP1 POP DUP4 DUP2 GT ISZERO PUSH3 0x622 JUMPI PUSH3 0x621 PUSH3 0x4DB JUMP JUMPDEST JUMPDEST PUSH3 0x657 JUMP JUMPDEST PUSH3 0x637 DUP5 DUP5 DUP5 PUSH1 0x1 PUSH3 0x517 JUMP JUMPDEST SWAP3 POP SWAP1 POP DUP2 DUP5 DIV DUP2 GT ISZERO PUSH3 0x651 JUMPI PUSH3 0x650 PUSH3 0x4DB JUMP JUMPDEST JUMPDEST DUP2 DUP2 MUL SWAP1 POP JUMPDEST SWAP4 SWAP3 POP POP POP JUMP JUMPDEST PUSH1 0x0 DUP2 SWAP1 POP SWAP2 SWAP1 POP JUMP JUMPDEST PUSH1 0x0 PUSH1 0xFF DUP3 AND SWAP1 POP SWAP2 SWAP1 POP JUMP JUMPDEST PUSH1 0x0 PUSH3 0x682 DUP3 PUSH3 0x65E JUMP JUMPDEST SWAP2 POP PUSH3 0x68F DUP4 PUSH3 0x668 JUMP JUMPDEST SWAP3 POP PUSH3 0x6BE PUSH32 0xFFFFFFFFFFFFFFFFFFFFFFFFFFFFFFFFFFFFFFFFFFFFFFFFFFFFFFFFFFFFFFFF DUP5 DUP5 PUSH3 0x572 JUMP JUMPDEST SWAP1 POP SWAP3 SWAP2 POP POP JUMP JUMPDEST PUSH1 0x0 PUSH3 0x6D3 DUP3 PUSH3 0x65E JUMP JUMPDEST SWAP2 POP PUSH3 0x6E0 DUP4 PUSH3 0x65E JUMP JUMPDEST SWAP3 POP DUP2 PUSH32 0xFFFFFFFFFFFFFFFFFFFFFFFFFFFFFFFFFFFFFFFFFFFFFFFFFFFFFFFFFFFFFFFF DIV DUP4 GT DUP3 ISZERO ISZERO AND ISZERO PUSH3 0x71C JUMPI PUSH3 0x71B PUSH3 0x4DB JUMP JUMPDEST JUMPDEST DUP3 DUP3 MUL SWAP1 POP SWAP3 SWAP2 POP POP JUMP JUMPDEST PUSH32 0x4E487B7100000000000000000000000000000000000000000000000000000000 PUSH1 0x0 MSTORE PUSH1 0x12 PUSH1 0x4 MSTORE PUSH1 0x24 PUSH1 0x0 REVERT JUMPDEST PUSH1 0x0 PUSH3 0x763 DUP3 PUSH3 0x65E JUMP JUMPDEST SWAP2 POP PUSH3 0x770 DUP4 PUSH3 0x65E JUMP JUMPDEST SWAP3 POP DUP3 PUSH3 0x783 JUMPI PUSH3 0x782 PUSH3 0x727 JUMP JUMPDEST JUMPDEST DUP3 DUP3 DIV SWAP1 POP SWAP3 SWAP2 POP POP JUMP JUMPDEST PUSH3 0x799 DUP2 PUSH3 0x65E JUMP JUMPDEST DUP3 MSTORE POP POP JUMP JUMPDEST PUSH1 0x0 PUSH1 0x20 DUP3 ADD SWAP1 POP PUSH3 0x7B6 PUSH1 0x0 DUP4 ADD DUP5 PUSH3 0x78E JUMP JUMPDEST SWAP3 SWAP2 POP POP JUMP JUMPDEST PUSH2 0x2EA1 DUP1 PUSH3 0x7CC PUSH1 0x0 CODECOPY PUSH1 0x0 RETURN INVALID PUSH1 0x80 PUSH1 0x40 MSTORE PUSH1 0x4 CALLDATASIZE LT PUSH2 0x139 JUMPI PUSH1 0x0 CALLDATALOAD PUSH1 0xE0 SHR DUP1 PUSH4 0x715018A6 GT PUSH2 0xAB JUMPI DUP1 PUSH4 0x95D89B41 GT PUSH2 0x6F JUMPI DUP1 PUSH4 0x95D89B41 EQ PUSH2 0x3D9 JUMPI DUP1 PUSH4 0xA9059CBB EQ PUSH2 0x404 JUMPI DUP1 PUSH4 0xBF474BED EQ PUSH2 0x441 JUMPI DUP1 PUSH4 0xC36956A0 EQ PUSH2 0x46C JUMPI DUP1 PUSH4 0xC876D0B9 EQ PUSH2 0x497 JUMPI DUP1 PUSH4 0xDD62ED3E EQ PUSH2 0x4C2 JUMPI PUSH2 0x140 JUMP JUMPDEST DUP1 PUSH4 0x715018A6 EQ PUSH2 0x32A JUMPI DUP1 PUSH4 0x751039FC EQ PUSH2 0x341 JUMPI DUP1 PUSH4 0x7D1DB4A5 EQ PUSH2 0x358 JUMPI DUP1 PUSH4 0x8DA5CB5B EQ PUSH2 0x383 JUMPI DUP1 PUSH4 0x8F9A55C0 EQ PUSH2 0x3AE JUMPI PUSH2 0x140 JUMP JUMPDEST DUP1 PUSH4 0xFAEE56F GT PUSH2 0xFD JUMPI DUP1 PUSH4 0xFAEE56F EQ PUSH2 0x218 JUMPI DUP1 PUSH4 0x18160DDD EQ PUSH2 0x243 JUMPI DUP1 PUSH4 0x23B872DD EQ PUSH2 0x26E JUMPI DUP1 PUSH4 0x313CE567 EQ PUSH2 0x2AB JUMPI DUP1 PUSH4 0x51BC3C85 EQ PUSH2 0x2D6 JUMPI DUP1 PUSH4 0x70A08231 EQ PUSH2 0x2ED JUMPI PUSH2 0x140 JUMP JUMPDEST DUP1 PUSH4 0x2AC8168 EQ PUSH2 0x145 JUMPI DUP1 PUSH4 0x6FDDE03 EQ PUSH2 0x15C JUMPI DUP1 PUSH4 0x95EA7B3 EQ PUSH2 0x187 JUMPI DUP1 PUSH4 0xC193045 EQ PUSH2 0x1C4 JUMPI DUP1 PUSH4 0xCE5FD36 EQ PUSH2 0x1EF JUMPI PUSH2 0x140 JUMP JUMPDEST CALLDATASIZE PUSH2 0x140 JUMPI STOP JUMPDEST PUSH1 0x0 DUP1 REVERT JUMPDEST CALLVALUE DUP1 ISZERO PUSH2 0x151 JUMPI PUSH1 0x0 DUP1 REVERT JUMPDEST POP PUSH2 0x15A PUSH2 0x4FF JUMP JUMPDEST STOP JUMPDEST CALLVALUE DUP1 ISZERO PUSH2 0x168 JUMPI PUSH1 0x0 DUP1 REVERT JUMPDEST POP PUSH2 0x171 PUSH2 0xA39 JUMP JUMPDEST PUSH1 0x40 MLOAD PUSH2 0x17E SWAP2 SWAP1 PUSH2 0x1FFB JUMP JUMPDEST PUSH1 0x40 MLOAD DUP1 SWAP2 SUB SWAP1 RETURN JUMPDEST CALLVALUE DUP1 ISZERO PUSH2 0x193 JUMPI PUSH1 0x0 DUP1 REVERT JUMPDEST POP PUSH2 0x1AE PUSH1 0x4 DUP1 CALLDATASIZE SUB DUP2 ADD SWAP1 PUSH2 0x1A9 SWAP2 SWAP1 PUSH2 0x20B6 JUMP JUMPDEST PUSH2 0xA76 JUMP JUMPDEST PUSH1 0x40 MLOAD PUSH2 0x1BB SWAP2 SWAP1 PUSH2 0x2111 JUMP JUMPDEST PUSH1 0x40 MLOAD DUP1 SWAP2 SUB SWAP1 RETURN JUMPDEST CALLVALUE DUP1 ISZERO PUSH2 0x1D0 JUMPI PUSH1 0x0 DUP1 REVERT JUMPDEST POP PUSH2 0x1D9 PUSH2 0xA94 JUMP JUMPDEST PUSH1 0x40 MLOAD PUSH2 0x1E6 SWAP2 SWAP1 PUSH2 0x213B JUMP JUMPDEST PUSH1 0x40 MLOAD DUP1 SWAP2 SUB SWAP1 RETURN JUMPDEST CALLVALUE DUP1 ISZERO PUSH2 0x1FB JUMPI PUSH1 0x0 DUP1 REVERT JUMPDEST POP PUSH2 0x216 PUSH1 0x4 DUP1 CALLDATASIZE SUB DUP2 ADD SWAP1 PUSH2 0x211 SWAP2 SWAP1 PUSH2 0x2156 JUMP JUMPDEST PUSH2 0xA9A JUMP JUMPDEST STOP JUMPDEST CALLVALUE DUP1 ISZERO PUSH2 0x224 JUMPI PUSH1 0x0 DUP1 REVERT JUMPDEST POP PUSH2 0x22D PUSH2 0xB51 JUMP JUMPDEST PUSH1 0x40 MLOAD PUSH2 0x23A SWAP2 SWAP1 PUSH2 0x213B JUMP JUMPDEST PUSH1 0x40 MLOAD DUP1 SWAP2 SUB SWAP1 RETURN JUMPDEST CALLVALUE DUP1 ISZERO PUSH2 0x24F JUMPI PUSH1 0x0 DUP1 REVERT JUMPDEST POP PUSH2 0x258 PUSH2 0xB57 JUMP JUMPDEST PUSH1 0x40 MLOAD PUSH2 0x265 SWAP2 SWAP1 PUSH2 0x213B JUMP JUMPDEST PUSH1 0x40 MLOAD DUP1 SWAP2 SUB SWAP1 RETURN JUMPDEST CALLVALUE DUP1 ISZERO PUSH2 0x27A JUMPI PUSH1 0x0 DUP1 REVERT JUMPDEST POP PUSH2 0x295 PUSH1 0x4 DUP1 CALLDATASIZE SUB DUP2 ADD SWAP1 PUSH2 0x290 SWAP2 SWAP1 PUSH2 0x2183 JUMP JUMPDEST PUSH2 0xB7D JUMP JUMPDEST PUSH1 0x40 MLOAD PUSH2 0x2A2 SWAP2 SWAP1 PUSH2 0x2111 JUMP JUMPDEST PUSH1 0x40 MLOAD DUP1 SWAP2 SUB SWAP1 RETURN JUMPDEST CALLVALUE DUP1 ISZERO PUSH2 0x2B7 JUMPI PUSH1 0x0 DUP1 REVERT JUMPDEST POP PUSH2 0x2C0 PUSH2 0xC35 JUMP JUMPDEST PUSH1 0x40 MLOAD PUSH2 0x2CD SWAP2 SWAP1 PUSH2 0x21F2 JUMP JUMPDEST PUSH1 0x40 MLOAD DUP1 SWAP2 SUB SWAP1 RETURN JUMPDEST CALLVALUE DUP1 ISZERO PUSH2 0x2E2 JUMPI PUSH1 0x0 DUP1 REVERT JUMPDEST POP PUSH2 0x2EB PUSH2 0xC3E JUMP JUMPDEST STOP JUMPDEST CALLVALUE DUP1 ISZERO PUSH2 0x2F9 JUMPI PUSH1 0x0 DUP1 REVERT JUMPDEST POP PUSH2 0x314 PUSH1 0x4 DUP1 CALLDATASIZE SUB DUP2 ADD SWAP1 PUSH2 0x30F SWAP2 SWAP1 PUSH2 0x220D JUMP JUMPDEST PUSH2 0xCDB JUMP JUMPDEST PUSH1 0x40 MLOAD PUSH2 0x321 SWAP2 SWAP1 PUSH2 0x213B JUMP JUMPDEST PUSH1 0x40 MLOAD DUP1 SWAP2 SUB SWAP1 RETURN JUMPDEST CALLVALUE DUP1 ISZERO PUSH2 0x336 JUMPI PUSH1 0x0 DUP1 REVERT JUMPDEST POP PUSH2 0x33F PUSH2 0xD24 JUMP JUMPDEST STOP JUMPDEST CALLVALUE DUP1 ISZERO PUSH2 0x34D JUMPI PUSH1 0x0 DUP1 REVERT JUMPDEST POP PUSH2 0x356 PUSH2 0xE77 JUMP JUMPDEST STOP JUMPDEST CALLVALUE DUP1 ISZERO PUSH2 0x364 JUMPI PUSH1 0x0 DUP1 REVERT JUMPDEST POP PUSH2 0x36D PUSH2 0xFD8 JUMP JUMPDEST PUSH1 0x40 MLOAD PUSH2 0x37A SWAP2 SWAP1 PUSH2 0x213B JUMP JUMPDEST PUSH1 0x40 MLOAD DUP1 SWAP2 SUB SWAP1 RETURN JUMPDEST CALLVALUE DUP1 ISZERO PUSH2 0x38F JUMPI PUSH1 0x0 DUP1 REVERT JUMPDEST POP PUSH2 0x398 PUSH2 0xFDE JUMP JUMPDEST PUSH1 0x40 MLOAD PUSH2 0x3A5 SWAP2 SWAP1 PUSH2 0x2249 JUMP JUMPDEST PUSH1 0x40 MLOAD DUP1 SWAP2 SUB SWAP1 RETURN JUMPDEST CALLVALUE DUP1 ISZERO PUSH2 0x3BA JUMPI PUSH1 0x0 DUP1 REVERT JUMPDEST POP PUSH2 0x3C3 PUSH2 0x1007 JUMP JUMPDEST PUSH1 0x40 MLOAD PUSH2 0x3D0 SWAP2 SWAP1 PUSH2 0x213B JUMP JUMPDEST PUSH1 0x40 MLOAD DUP1 SWAP2 SUB SWAP1 RETURN JUMPDEST CALLVALUE DUP1 ISZERO PUSH2 0x3E5 JUMPI PUSH1 0x0 DUP1 REVERT JUMPDEST POP PUSH2 0x3EE PUSH2 0x100D JUMP JUMPDEST PUSH1 0x40 MLOAD PUSH2 0x3FB SWAP2 SWAP1 PUSH2 0x1FFB JUMP JUMPDEST PUSH1 0x40 MLOAD DUP1 SWAP2 SUB SWAP1 RETURN JUMPDEST CALLVALUE DUP1 ISZERO PUSH2 0x410 JUMPI PUSH1 0x0 DUP1 REVERT JUMPDEST POP PUSH2 0x42B PUSH1 0x4 DUP1 CALLDATASIZE SUB DUP2 ADD SWAP1 PUSH2 0x426 SWAP2 SWAP1 PUSH2 0x20B6 JUMP JUMPDEST PUSH2 0x104A JUMP JUMPDEST PUSH1 0x40 MLOAD PUSH2 0x438 SWAP2 SWAP1 PUSH2 0x2111 JUMP JUMPDEST PUSH1 0x40 MLOAD DUP1 SWAP2 SUB SWAP1 RETURN JUMPDEST CALLVALUE DUP1 ISZERO PUSH2 0x44D JUMPI PUSH1 0x0 DUP1 REVERT JUMPDEST POP PUSH2 0x456 PUSH2 0x1068 JUMP JUMPDEST PUSH1 0x40 MLOAD PUSH2 0x463 SWAP2 SWAP1 PUSH2 0x213B JUMP JUMPDEST PUSH1 0x40 MLOAD DUP1 SWAP2 SUB SWAP1 RETURN JUMPDEST CALLVALUE DUP1 ISZERO PUSH2 0x478 JUMPI PUSH1 0x0 DUP1 REVERT JUMPDEST POP PUSH2 0x481 PUSH2 0x106E JUMP JUMPDEST PUSH1 0x40 MLOAD PUSH2 0x48E SWAP2 SWAP1 PUSH2 0x213B JUMP JUMPDEST PUSH1 0x40 MLOAD DUP1 SWAP2 SUB SWAP1 RETURN JUMPDEST CALLVALUE DUP1 ISZERO PUSH2 0x4A3 JUMPI PUSH1 0x0 DUP1 REVERT JUMPDEST POP PUSH2 0x4AC PUSH2 0x1074 JUMP JUMPDEST PUSH1 0x40 MLOAD PUSH2 0x4B9 SWAP2 SWAP1 PUSH2 0x2111 JUMP JUMPDEST PUSH1 0x40 MLOAD DUP1 SWAP2 SUB SWAP1 RETURN JUMPDEST CALLVALUE DUP1 ISZERO PUSH2 0x4CE JUMPI PUSH1 0x0 DUP1 REVERT JUMPDEST POP PUSH2 0x4E9 PUSH1 0x4 DUP1 CALLDATASIZE SUB DUP2 ADD SWAP1 PUSH2 0x4E4 SWAP2 SWAP1 PUSH2 0x2264 JUMP JUMPDEST PUSH2 0x1087 JUMP JUMPDEST PUSH1 0x40 MLOAD PUSH2 0x4F6 SWAP2 SWAP1 PUSH2 0x213B JUMP JUMPDEST PUSH1 0x40 MLOAD DUP1 SWAP2 SUB SWAP1 RETURN JUMPDEST PUSH2 0x507 PUSH2 0x110E JUMP JUMPDEST PUSH20 0xFFFFFFFFFFFFFFFFFFFFFFFFFFFFFFFFFFFFFFFF AND PUSH1 0x0 DUP1 SLOAD SWAP1 PUSH2 0x100 EXP SWAP1 DIV PUSH20 0xFFFFFFFFFFFFFFFFFFFFFFFFFFFFFFFFFFFFFFFF AND PUSH20 0xFFFFFFFFFFFFFFFFFFFFFFFFFFFFFFFFFFFFFFFF AND EQ PUSH2 0x594 JUMPI PUSH1 0x40 MLOAD PUSH32 0x8C379A000000000000000000000000000000000000000000000000000000000 DUP2 MSTORE PUSH1 0x4 ADD PUSH2 0x58B SWAP1 PUSH2 0x22F0 JUMP JUMPDEST PUSH1 0x40 MLOAD DUP1 SWAP2 SUB SWAP1 REVERT JUMPDEST PUSH1 0x13 PUSH1 0x14 SWAP1 SLOAD SWAP1 PUSH2 0x100 EXP SWAP1 DIV PUSH1 0xFF AND ISZERO PUSH2 0x5E4 JUMPI PUSH1 0x40 MLOAD PUSH32 0x8C379A000000000000000000000000000000000000000000000000000000000 DUP2 MSTORE PUSH1 0x4 ADD PUSH2 0x5DB SWAP1 PUSH2 0x235C JUMP JUMPDEST PUSH1 0x40 MLOAD DUP1 SWAP2 SUB SWAP1 REVERT JUMPDEST PUSH20 0x7A250D5630B4CF539739DF2C5DACB4C659F2488D PUSH1 0x12 PUSH1 0x0 PUSH2 0x100 EXP DUP2 SLOAD DUP2 PUSH20 0xFFFFFFFFFFFFFFFFFFFFFFFFFFFFFFFFFFFFFFFF MUL NOT AND SWAP1 DUP4 PUSH20 0xFFFFFFFFFFFFFFFFFFFFFFFFFFFFFFFFFFFFFFFF AND MUL OR SWAP1 SSTORE POP PUSH2 0x684 ADDRESS PUSH1 0x12 PUSH1 0x0 SWAP1 SLOAD SWAP1 PUSH2 0x100 EXP SWAP1 DIV PUSH20 0xFFFFFFFFFFFFFFFFFFFFFFFFFFFFFFFFFFFFFFFF AND PUSH1 0x8 PUSH1 0xA PUSH2 0x66E SWAP2 SWAP1 PUSH2 0x24DE JUMP JUMPDEST PUSH6 0x3EC1507D5000 PUSH2 0x67F SWAP2 SWAP1 PUSH2 0x2529 JUMP JUMPDEST PUSH2 0x1116 JUMP JUMPDEST PUSH1 0x12 PUSH1 0x0 SWAP1 SLOAD SWAP1 PUSH2 0x100 EXP SWAP1 DIV PUSH20 0xFFFFFFFFFFFFFFFFFFFFFFFFFFFFFFFFFFFFFFFF AND PUSH20 0xFFFFFFFFFFFFFFFFFFFFFFFFFFFFFFFFFFFFFFFF AND PUSH4 0xC45A0155 PUSH1 0x40 MLOAD DUP2 PUSH4 0xFFFFFFFF AND PUSH1 0xE0 SHL DUP2 MSTORE PUSH1 0x4 ADD PUSH1 0x20 PUSH1 0x40 MLOAD DUP1 DUP4 SUB DUP2 DUP7 GAS STATICCALL ISZERO DUP1 ISZERO PUSH2 0x6F1 JUMPI RETURNDATASIZE PUSH1 0x0 DUP1 RETURNDATACOPY RETURNDATASIZE PUSH1 0x0 REVERT JUMPDEST POP POP POP POP PUSH1 0x40 MLOAD RETURNDATASIZE PUSH1 0x1F NOT PUSH1 0x1F DUP3 ADD AND DUP3 ADD DUP1 PUSH1 0x40 MSTORE POP DUP2 ADD SWAP1 PUSH2 0x715 SWAP2 SWAP1 PUSH2 0x2598 JUMP JUMPDEST PUSH20 0xFFFFFFFFFFFFFFFFFFFFFFFFFFFFFFFFFFFFFFFF AND PUSH4 0xC9C65396 ADDRESS PUSH1 0x12 PUSH1 0x0 SWAP1 SLOAD SWAP1 PUSH2 0x100 EXP SWAP1 DIV PUSH20 0xFFFFFFFFFFFFFFFFFFFFFFFFFFFFFFFFFFFFFFFF AND PUSH20 0xFFFFFFFFFFFFFFFFFFFFFFFFFFFFFFFFFFFFFFFF AND PUSH4 0xAD5C4648 PUSH1 0x40 MLOAD DUP2 PUSH4 0xFFFFFFFF AND PUSH1 0xE0 SHL DUP2 MSTORE PUSH1 0x4 ADD PUSH1 0x20 PUSH1 0x40 MLOAD DUP1 DUP4 SUB DUP2 DUP7 GAS STATICCALL ISZERO DUP1 ISZERO PUSH2 0x79E JUMPI RETURNDATASIZE PUSH1 0x0 DUP1 RETURNDATACOPY RETURNDATASIZE PUSH1 0x0 REVERT JUMPDEST POP POP POP POP PUSH1 0x40 MLOAD RETURNDATASIZE PUSH1 0x1F NOT PUSH1 0x1F DUP3 ADD AND DUP3 ADD DUP1 PUSH1 0x40 MSTORE POP DUP2 ADD SWAP1 PUSH2 0x7C2 SWAP2 SWAP1 PUSH2 0x2598 JUMP JUMPDEST PUSH1 0x40 MLOAD DUP4 PUSH4 0xFFFFFFFF AND PUSH1 0xE0 SHL DUP2 MSTORE PUSH1 0x4 ADD PUSH2 0x7DF SWAP3 SWAP2 SWAP1 PUSH2 0x25C5 JUMP JUMPDEST PUSH1 0x20 PUSH1 0x40 MLOAD DUP1 DUP4 SUB DUP2 PUSH1 0x0 DUP8 GAS CALL ISZERO DUP1 ISZERO PUSH2 0x7FE JUMPI RETURNDATASIZE PUSH1 0x0 DUP1 RETURNDATACOPY RETURNDATASIZE PUSH1 0x0 REVERT JUMPDEST POP POP POP POP PUSH1 0x40 MLOAD RETURNDATASIZE PUSH1 0x1F NOT PUSH1 0x1F DUP3 ADD AND DUP3 ADD DUP1 PUSH1 0x40 MSTORE POP DUP2 ADD SWAP1 PUSH2 0x822 SWAP2 SWAP1 PUSH2 0x2598 JUMP JUMPDEST PUSH1 0x13 PUSH1 0x0 PUSH2 0x100 EXP DUP2 SLOAD DUP2 PUSH20 0xFFFFFFFFFFFFFFFFFFFFFFFFFFFFFFFFFFFFFFFF MUL NOT AND SWAP1 DUP4 PUSH20 0xFFFFFFFFFFFFFFFFFFFFFFFFFFFFFFFFFFFFFFFF AND MUL OR SWAP1 SSTORE POP PUSH1 0x12 PUSH1 0x0 SWAP1 SLOAD SWAP1 PUSH2 0x100 EXP SWAP1 DIV PUSH20 0xFFFFFFFFFFFFFFFFFFFFFFFFFFFFFFFFFFFFFFFF AND PUSH20 0xFFFFFFFFFFFFFFFFFFFFFFFFFFFFFFFFFFFFFFFF AND PUSH4 0xF305D719 SELFBALANCE ADDRESS PUSH2 0x8AB ADDRESS PUSH2 0xCDB JUMP JUMPDEST PUSH1 0x0 DUP1 PUSH2 0x8B6 PUSH2 0xFDE JUMP JUMPDEST TIMESTAMP PUSH1 0x40 MLOAD DUP9 PUSH4 0xFFFFFFFF AND PUSH1 0xE0 SHL DUP2 MSTORE PUSH1 0x4 ADD PUSH2 0x8D8 SWAP7 SWAP6 SWAP5 SWAP4 SWAP3 SWAP2 SWAP1 PUSH2 0x2633 JUMP JUMPDEST PUSH1 0x60 PUSH1 0x40 MLOAD DUP1 DUP4 SUB DUP2 DUP6 DUP9 GAS CALL ISZERO DUP1 ISZERO PUSH2 0x8F6 JUMPI RETURNDATASIZE PUSH1 0x0 DUP1 RETURNDATACOPY RETURNDATASIZE PUSH1 0x0 REVERT JUMPDEST POP POP POP POP POP PUSH1 0x40 MLOAD RETURNDATASIZE PUSH1 0x1F NOT PUSH1 0x1F DUP3 ADD AND DUP3 ADD DUP1 PUSH1 0x40 MSTORE POP DUP2 ADD SWAP1 PUSH2 0x91B SWAP2 SWAP1 PUSH2 0x26A9 JUMP JUMPDEST POP POP POP PUSH1 0x13 PUSH1 0x0 SWAP1 SLOAD SWAP1 PUSH2 0x100 EXP SWAP1 DIV PUSH20 0xFFFFFFFFFFFFFFFFFFFFFFFFFFFFFFFFFFFFFFFF AND PUSH20 0xFFFFFFFFFFFFFFFFFFFFFFFFFFFFFFFFFFFFFFFF AND PUSH4 0x95EA7B3 PUSH1 0x12 PUSH1 0x0 SWAP1 SLOAD SWAP1 PUSH2 0x100 EXP SWAP1 DIV PUSH20 0xFFFFFFFFFFFFFFFFFFFFFFFFFFFFFFFFFFFFFFFF AND PUSH32 0xFFFFFFFFFFFFFFFFFFFFFFFFFFFFFFFFFFFFFFFFFFFFFFFFFFFFFFFFFFFFFFFF PUSH1 0x40 MLOAD DUP4 PUSH4 0xFFFFFFFF AND PUSH1 0xE0 SHL DUP2 MSTORE PUSH1 0x4 ADD PUSH2 0x9BD SWAP3 SWAP2 SWAP1 PUSH2 0x26FC JUMP JUMPDEST PUSH1 0x20 PUSH1 0x40 MLOAD DUP1 DUP4 SUB DUP2 PUSH1 0x0 DUP8 GAS CALL ISZERO DUP1 ISZERO PUSH2 0x9DC JUMPI RETURNDATASIZE PUSH1 0x0 DUP1 RETURNDATACOPY RETURNDATASIZE PUSH1 0x0 REVERT JUMPDEST POP POP POP POP PUSH1 0x40 MLOAD RETURNDATASIZE PUSH1 0x1F NOT PUSH1 0x1F DUP3 ADD AND DUP3 ADD DUP1 PUSH1 0x40 MSTORE POP DUP2 ADD SWAP1 PUSH2 0xA00 SWAP2 SWAP1 PUSH2 0x2751 JUMP JUMPDEST POP PUSH1 0x1 PUSH1 0x13 PUSH1 0x16 PUSH2 0x100 EXP DUP2 SLOAD DUP2 PUSH1 0xFF MUL NOT AND SWAP1 DUP4 ISZERO ISZERO MUL OR SWAP1 SSTORE POP PUSH1 0x1 PUSH1 0x13 PUSH1 0x14 PUSH2 0x100 EXP DUP2 SLOAD DUP2 PUSH1 0xFF MUL NOT AND SWAP1 DUP4 ISZERO ISZERO MUL OR SWAP1 SSTORE POP JUMP JUMPDEST PUSH1 0x60 PUSH1 0x40 MLOAD DUP1 PUSH1 0x40 ADD PUSH1 0x40 MSTORE DUP1 PUSH1 0x6 DUP2 MSTORE PUSH1 0x20 ADD PUSH32 0x73707572646F0000000000000000000000000000000000000000000000000000 DUP2 MSTORE POP SWAP1 POP SWAP1 JUMP JUMPDEST PUSH1 0x0 PUSH2 0xA8A PUSH2 0xA83 PUSH2 0x110E JUMP JUMPDEST DUP5 DUP5 PUSH2 0x1116 JUMP JUMPDEST PUSH1 0x1 SWAP1 POP SWAP3 SWAP2 POP POP JUMP JUMPDEST PUSH1 0xA SLOAD DUP2 JUMP JUMPDEST PUSH2 0xAA2 PUSH2 0x110E JUMP JUMPDEST PUSH20 0xFFFFFFFFFFFFFFFFFFFFFFFFFFFFFFFFFFFFFFFF AND PUSH1 0x0 DUP1 SLOAD SWAP1 PUSH2 0x100 EXP SWAP1 DIV PUSH20 0xFFFFFFFFFFFFFFFFFFFFFFFFFFFFFFFFFFFFFFFF AND PUSH20 0xFFFFFFFFFFFFFFFFFFFFFFFFFFFFFFFFFFFFFFFF AND EQ PUSH2 0xB2F JUMPI PUSH1 0x40 MLOAD PUSH32 0x8C379A000000000000000000000000000000000000000000000000000000000 DUP2 MSTORE PUSH1 0x4 ADD PUSH2 0xB26 SWAP1 PUSH2 0x22F0 JUMP JUMPDEST PUSH1 0x40 MLOAD DUP1 SWAP2 SUB SWAP1 REVERT JUMPDEST PUSH4 0x5F5E100 DUP2 PUSH2 0xB3F SWAP2 SWAP1 PUSH2 0x2529 JUMP JUMPDEST PUSH1 0x11 DUP2 SWAP1 SSTORE POP PUSH1 0x11 SLOAD PUSH1 0x10 DUP2 SWAP1 SSTORE POP POP JUMP JUMPDEST PUSH1 0x11 SLOAD DUP2 JUMP JUMPDEST PUSH1 0x0 PUSH1 0x8 PUSH1 0xA PUSH2 0xB67 SWAP2 SWAP1 PUSH2 0x24DE JUMP JUMPDEST PUSH6 0x3EC1507D5000 PUSH2 0xB78 SWAP2 SWAP1 PUSH2 0x2529 JUMP JUMPDEST SWAP1 POP SWAP1 JUMP JUMPDEST PUSH1 0x0 PUSH2 0xB8A DUP5 DUP5 DUP5 PUSH2 0x12E1 JUMP JUMPDEST PUSH2 0xC2A DUP5 PUSH2 0xB96 PUSH2 0x110E JUMP JUMPDEST DUP5 PUSH1 0x2 PUSH1 0x0 DUP10 PUSH20 0xFFFFFFFFFFFFFFFFFFFFFFFFFFFFFFFFFFFFFFFF AND PUSH20 0xFFFFFFFFFFFFFFFFFFFFFFFFFFFFFFFFFFFFFFFF AND DUP2 MSTORE PUSH1 0x20 ADD SWAP1 DUP2 MSTORE PUSH1 0x20 ADD PUSH1 0x0 KECCAK256 PUSH1 0x0 PUSH2 0xBE0 PUSH2 0x110E JUMP JUMPDEST PUSH20 0xFFFFFFFFFFFFFFFFFFFFFFFFFFFFFFFFFFFFFFFF AND PUSH20 0xFFFFFFFFFFFFFFFFFFFFFFFFFFFFFFFFFFFFFFFF AND DUP2 MSTORE PUSH1 0x20 ADD SWAP1 DUP2 MSTORE PUSH1 0x20 ADD PUSH1 0x0 KECCAK256 SLOAD PUSH2 0xC25 SWAP2 SWAP1 PUSH2 0x277E JUMP JUMPDEST PUSH2 0x1116 JUMP JUMPDEST PUSH1 0x1 SWAP1 POP SWAP4 SWAP3 POP POP POP JUMP JUMPDEST PUSH1 0x0 PUSH1 0x8 SWAP1 POP SWAP1 JUMP JUMPDEST PUSH1 0x5 PUSH1 0x1 SWAP1 SLOAD SWAP1 PUSH2 0x100 EXP SWAP1 DIV PUSH20 0xFFFFFFFFFFFFFFFFFFFFFFFFFFFFFFFFFFFFFFFF AND PUSH20 0xFFFFFFFFFFFFFFFFFFFFFFFFFFFFFFFFFFFFFFFF AND PUSH2 0xC7F PUSH2 0x110E JUMP JUMPDEST PUSH20 0xFFFFFFFFFFFFFFFFFFFFFFFFFFFFFFFFFFFFFFFF AND EQ PUSH2 0xC9F JUMPI PUSH1 0x0 DUP1 REVERT JUMPDEST PUSH1 0x0 PUSH2 0xCAA ADDRESS PUSH2 0xCDB JUMP JUMPDEST SWAP1 POP PUSH1 0x0 DUP2 GT ISZERO PUSH2 0xCBF JUMPI PUSH2 0xCBE DUP2 PUSH2 0x1C3C JUMP JUMPDEST JUMPDEST PUSH1 0x0 SELFBALANCE SWAP1 POP PUSH1 0x0 DUP2 GT ISZERO PUSH2 0xCD7 JUMPI PUSH2 0xCD6 DUP2 PUSH2 0x1EDD JUMP JUMPDEST JUMPDEST POP POP JUMP JUMPDEST PUSH1 0x0 PUSH1 0x1 PUSH1 0x0 DUP4 PUSH20 0xFFFFFFFFFFFFFFFFFFFFFFFFFFFFFFFFFFFFFFFF AND PUSH20 0xFFFFFFFFFFFFFFFFFFFFFFFFFFFFFFFFFFFFFFFF AND DUP2 MSTORE PUSH1 0x20 ADD SWAP1 DUP2 MSTORE PUSH1 0x20 ADD PUSH1 0x0 KECCAK256 SLOAD SWAP1 POP SWAP2 SWAP1 POP JUMP JUMPDEST PUSH2 0xD2C PUSH2 0x110E JUMP JUMPDEST PUSH20 0xFFFFFFFFFFFFFFFFFFFFFFFFFFFFFFFFFFFFFFFF AND PUSH1 0x0 DUP1 SLOAD SWAP1 PUSH2 0x100 EXP SWAP1 DIV PUSH20 0xFFFFFFFFFFFFFFFFFFFFFFFFFFFFFFFFFFFFFFFF AND PUSH20 0xFFFFFFFFFFFFFFFFFFFFFFFFFFFFFFFFFFFFFFFF AND EQ PUSH2 0xDB9 JUMPI PUSH1 0x40 MLOAD PUSH32 0x8C379A000000000000000000000000000000000000000000000000000000000 DUP2 MSTORE PUSH1 0x4 ADD PUSH2 0xDB0 SWAP1 PUSH2 0x22F0 JUMP JUMPDEST PUSH1 0x40 MLOAD DUP1 SWAP2 SUB SWAP1 REVERT JUMPDEST PUSH1 0x0 PUSH20 0xFFFFFFFFFFFFFFFFFFFFFFFFFFFFFFFFFFFFFFFF AND PUSH1 0x0 DUP1 SLOAD SWAP1 PUSH2 0x100 EXP SWAP1 DIV PUSH20 0xFFFFFFFFFFFFFFFFFFFFFFFFFFFFFFFFFFFFFFFF AND PUSH20 0xFFFFFFFFFFFFFFFFFFFFFFFFFFFFFFFFFFFFFFFF AND PUSH32 0x8BE0079C531659141344CD1FD0A4F28419497F9722A3DAAFE3B4186F6B6457E0 PUSH1 0x40 MLOAD PUSH1 0x40 MLOAD DUP1 SWAP2 SUB SWAP1 LOG3 PUSH1 0x0 DUP1 PUSH1 0x0 PUSH2 0x100 EXP DUP2 SLOAD DUP2 PUSH20 0xFFFFFFFFFFFFFFFFFFFFFFFFFFFFFFFFFFFFFFFF MUL NOT AND SWAP1 DUP4 PUSH20 0xFFFFFFFFFFFFFFFFFFFFFFFFFFFFFFFFFFFFFFFF AND MUL OR SWAP1 SSTORE POP JUMP JUMPDEST PUSH2 0xE7F PUSH2 0x110E JUMP JUMPDEST PUSH20 0xFFFFFFFFFFFFFFFFFFFFFFFFFFFFFFFFFFFFFFFF AND PUSH1 0x0 DUP1 SLOAD SWAP1 PUSH2 0x100 EXP SWAP1 DIV PUSH20 0xFFFFFFFFFFFFFFFFFFFFFFFFFFFFFFFFFFFFFFFF AND PUSH20 0xFFFFFFFFFFFFFFFFFFFFFFFFFFFFFFFFFFFFFFFF AND EQ PUSH2 0xF0C JUMPI PUSH1 0x40 MLOAD PUSH32 0x8C379A000000000000000000000000000000000000000000000000000000000 DUP2 MSTORE PUSH1 0x4 ADD PUSH2 0xF03 SWAP1 PUSH2 0x22F0 JUMP JUMPDEST PUSH1 0x40 MLOAD DUP1 SWAP2 SUB SWAP1 REVERT JUMPDEST PUSH1 0x8 PUSH1 0xA PUSH2 0xF1A SWAP2 SWAP1 PUSH2 0x24DE JUMP JUMPDEST PUSH6 0x3EC1507D5000 PUSH2 0xF2B SWAP2 SWAP1 PUSH2 0x2529 JUMP JUMPDEST PUSH1 0xE DUP2 SWAP1 SSTORE POP PUSH1 0x8 PUSH1 0xA PUSH2 0xF3F SWAP2 SWAP1 PUSH2 0x24DE JUMP JUMPDEST PUSH6 0x3EC1507D5000 PUSH2 0xF50 SWAP2 SWAP1 PUSH2 0x2529 JUMP JUMPDEST PUSH1 0xF DUP2 SWAP1 SSTORE POP PUSH1 0x0 PUSH1 0x5 PUSH1 0x0 PUSH2 0x100 EXP DUP2 SLOAD DUP2 PUSH1 0xFF MUL NOT AND SWAP1 DUP4 ISZERO ISZERO MUL OR SWAP1 SSTORE POP PUSH1 0x14 PUSH1 0xB DUP2 SWAP1 SSTORE POP PUSH1 0x14 PUSH1 0xA DUP2 SWAP1 SSTORE POP PUSH32 0x947F344D56E1E8C70DC492FB94C4DDDDD490C016AAB685F5E7E47B2E85CB44CF PUSH1 0x8 PUSH1 0xA PUSH2 0xFB0 SWAP2 SWAP1 PUSH2 0x24DE JUMP JUMPDEST PUSH6 0x3EC1507D5000 PUSH2 0xFC1 SWAP2 SWAP1 PUSH2 0x2529 JUMP JUMPDEST PUSH1 0x40 MLOAD PUSH2 0xFCE SWAP2 SWAP1 PUSH2 0x213B JUMP JUMPDEST PUSH1 0x40 MLOAD DUP1 SWAP2 SUB SWAP1 LOG1 JUMP JUMPDEST PUSH1 0xE SLOAD DUP2 JUMP JUMPDEST PUSH1 0x0 DUP1 PUSH1 0x0 SWAP1 SLOAD SWAP1 PUSH2 0x100 EXP SWAP1 DIV PUSH20 0xFFFFFFFFFFFFFFFFFFFFFFFFFFFFFFFFFFFFFFFF AND SWAP1 POP SWAP1 JUMP JUMPDEST PUSH1 0xF SLOAD DUP2 JUMP JUMPDEST PUSH1 0x60 PUSH1 0x40 MLOAD DUP1 PUSH1 0x40 ADD PUSH1 0x40 MSTORE DUP1 PUSH1 0x6 DUP2 MSTORE PUSH1 0x20 ADD PUSH32 0x73707572646F0000000000000000000000000000000000000000000000000000 DUP2 MSTORE POP SWAP1 POP SWAP1 JUMP JUMPDEST PUSH1 0x0 PUSH2 0x105E PUSH2 0x1057 PUSH2 0x110E JUMP JUMPDEST DUP5 DUP5 PUSH2 0x12E1 JUMP JUMPDEST PUSH1 0x1 SWAP1 POP SWAP3 SWAP2 POP POP JUMP JUMPDEST PUSH1 0x10 SLOAD DUP2 JUMP JUMPDEST PUSH1 0xB SLOAD DUP2 JUMP JUMPDEST PUSH1 0x5 PUSH1 0x0 SWAP1 SLOAD SWAP1 PUSH2 0x100 EXP SWAP1 DIV PUSH1 0xFF AND DUP2 JUMP JUMPDEST PUSH1 0x0 PUSH1 0x2 PUSH1 0x0 DUP5 PUSH20 0xFFFFFFFFFFFFFFFFFFFFFFFFFFFFFFFFFFFFFFFF AND PUSH20 0xFFFFFFFFFFFFFFFFFFFFFFFFFFFFFFFFFFFFFFFF AND DUP2 MSTORE PUSH1 0x20 ADD SWAP1 DUP2 MSTORE PUSH1 0x20 ADD PUSH1 0x0 KECCAK256 PUSH1 0x0 DUP4 PUSH20 0xFFFFFFFFFFFFFFFFFFFFFFFFFFFFFFFFFFFFFFFF AND PUSH20 0xFFFFFFFFFFFFFFFFFFFFFFFFFFFFFFFFFFFFFFFF AND DUP2 MSTORE PUSH1 0x20 ADD SWAP1 DUP2 MSTORE PUSH1 0x20 ADD PUSH1 0x0 KECCAK256 SLOAD SWAP1 POP SWAP3 SWAP2 POP POP JUMP JUMPDEST PUSH1 0x0 CALLER SWAP1 POP SWAP1 JUMP JUMPDEST PUSH1 0x0 PUSH20 0xFFFFFFFFFFFFFFFFFFFFFFFFFFFFFFFFFFFFFFFF AND DUP4 PUSH20 0xFFFFFFFFFFFFFFFFFFFFFFFFFFFFFFFFFFFFFFFF AND EQ ISZERO PUSH2 0x1186 JUMPI PUSH1 0x40 MLOAD PUSH32 0x8C379A000000000000000000000000000000000000000000000000000000000 DUP2 MSTORE PUSH1 0x4 ADD PUSH2 0x117D SWAP1 PUSH2 0x2824 JUMP JUMPDEST PUSH1 0x40 MLOAD DUP1 SWAP2 SUB SWAP1 REVERT JUMPDEST PUSH1 0x0 PUSH20 0xFFFFFFFFFFFFFFFFFFFFFFFFFFFFFFFFFFFFFFFF AND DUP3 PUSH20 0xFFFFFFFFFFFFFFFFFFFFFFFFFFFFFFFFFFFFFFFF AND EQ ISZERO PUSH2 0x11F6 JUMPI PUSH1 0x40 MLOAD PUSH32 0x8C379A000000000000000000000000000000000000000000000000000000000 DUP2 MSTORE PUSH1 0x4 ADD PUSH2 0x11ED SWAP1 PUSH2 0x28B6 JUMP JUMPDEST PUSH1 0x40 MLOAD DUP1 SWAP2 SUB SWAP1 REVERT JUMPDEST DUP1 PUSH1 0x2 PUSH1 0x0 DUP6 PUSH20 0xFFFFFFFFFFFFFFFFFFFFFFFFFFFFFFFFFFFFFFFF AND PUSH20 0xFFFFFFFFFFFFFFFFFFFFFFFFFFFFFFFFFFFFFFFF AND DUP2 MSTORE PUSH1 0x20 ADD SWAP1 DUP2 MSTORE PUSH1 0x20 ADD PUSH1 0x0 KECCAK256 PUSH1 0x0 DUP5 PUSH20 0xFFFFFFFFFFFFFFFFFFFFFFFFFFFFFFFFFFFFFFFF AND PUSH20 0xFFFFFFFFFFFFFFFFFFFFFFFFFFFFFFFFFFFFFFFF AND DUP2 MSTORE PUSH1 0x20 ADD SWAP1 DUP2 MSTORE PUSH1 0x20 ADD PUSH1 0x0 KECCAK256 DUP2 SWAP1 SSTORE POP DUP2 PUSH20 0xFFFFFFFFFFFFFFFFFFFFFFFFFFFFFFFFFFFFFFFF AND DUP4 PUSH20 0xFFFFFFFFFFFFFFFFFFFFFFFFFFFFFFFFFFFFFFFF AND PUSH32 0x8C5BE1E5EBEC7D5BD14F71427D1E84F3DD0314C0F7B2291E5B200AC8C7C3B925 DUP4 PUSH1 0x40 MLOAD PUSH2 0x12D4 SWAP2 SWAP1 PUSH2 0x213B JUMP JUMPDEST PUSH1 0x40 MLOAD DUP1 SWAP2 SUB SWAP1 LOG3 POP POP POP JUMP JUMPDEST PUSH1 0x0 PUSH20 0xFFFFFFFFFFFFFFFFFFFFFFFFFFFFFFFFFFFFFFFF AND DUP4 PUSH20 0xFFFFFFFFFFFFFFFFFFFFFFFFFFFFFFFFFFFFFFFF AND EQ ISZERO PUSH2 0x1351 JUMPI PUSH1 0x40 MLOAD PUSH32 0x8C379A000000000000000000000000000000000000000000000000000000000 DUP2 MSTORE PUSH1 0x4 ADD PUSH2 0x1348 SWAP1 PUSH2 0x2948 JUMP JUMPDEST PUSH1 0x40 MLOAD DUP1 SWAP2 SUB SWAP1 REVERT JUMPDEST PUSH1 0x0 PUSH20 0xFFFFFFFFFFFFFFFFFFFFFFFFFFFFFFFFFFFFFFFF AND DUP3 PUSH20 0xFFFFFFFFFFFFFFFFFFFFFFFFFFFFFFFFFFFFFFFF AND EQ ISZERO PUSH2 0x13C1 JUMPI PUSH1 0x40 MLOAD PUSH32 0x8C379A000000000000000000000000000000000000000000000000000000000 DUP2 MSTORE PUSH1 0x4 ADD PUSH2 0x13B8 SWAP1 PUSH2 0x29DA JUMP JUMPDEST PUSH1 0x40 MLOAD DUP1 SWAP2 SUB SWAP1 REVERT JUMPDEST PUSH1 0x0 DUP2 GT PUSH2 0x1404 JUMPI PUSH1 0x40 MLOAD PUSH32 0x8C379A000000000000000000000000000000000000000000000000000000000 DUP2 MSTORE PUSH1 0x4 ADD PUSH2 0x13FB SWAP1 PUSH2 0x2A6C JUMP JUMPDEST PUSH1 0x40 MLOAD DUP1 SWAP2 SUB SWAP1 REVERT JUMPDEST PUSH1 0x0 PUSH2 0x140E PUSH2 0xFDE JUMP JUMPDEST PUSH20 0xFFFFFFFFFFFFFFFFFFFFFFFFFFFFFFFFFFFFFFFF AND DUP5 PUSH20 0xFFFFFFFFFFFFFFFFFFFFFFFFFFFFFFFFFFFFFFFF AND EQ ISZERO DUP1 ISZERO PUSH2 0x147C JUMPI POP PUSH2 0x144C PUSH2 0xFDE JUMP JUMPDEST PUSH20 0xFFFFFFFFFFFFFFFFFFFFFFFFFFFFFFFFFFFFFFFF AND DUP4 PUSH20 0xFFFFFFFFFFFFFFFFFFFFFFFFFFFFFFFFFFFFFFFF AND EQ ISZERO JUMPDEST ISZERO PUSH2 0x19A2 JUMPI PUSH1 0x5 PUSH1 0x0 SWAP1 SLOAD SWAP1 PUSH2 0x100 EXP SWAP1 DIV PUSH1 0xFF AND ISZERO PUSH2 0x160E JUMPI PUSH1 0x12 PUSH1 0x0 SWAP1 SLOAD SWAP1 PUSH2 0x100 EXP SWAP1 DIV PUSH20 0xFFFFFFFFFFFFFFFFFFFFFFFFFFFFFFFFFFFFFFFF AND PUSH20 0xFFFFFFFFFFFFFFFFFFFFFFFFFFFFFFFFFFFFFFFF AND DUP4 PUSH20 0xFFFFFFFFFFFFFFFFFFFFFFFFFFFFFFFFFFFFFFFF AND EQ ISZERO DUP1 ISZERO PUSH2 0x1542 JUMPI POP PUSH1 0x13 PUSH1 0x0 SWAP1 SLOAD SWAP1 PUSH2 0x100 EXP SWAP1 DIV PUSH20 0xFFFFFFFFFFFFFFFFFFFFFFFFFFFFFFFFFFFFFFFF AND PUSH20 0xFFFFFFFFFFFFFFFFFFFFFFFFFFFFFFFFFFFFFFFF AND DUP4 PUSH20 0xFFFFFFFFFFFFFFFFFFFFFFFFFFFFFFFFFFFFFFFF AND EQ ISZERO JUMPDEST ISZERO PUSH2 0x160D JUMPI NUMBER PUSH1 0x4 PUSH1 0x0 ORIGIN PUSH20 0xFFFFFFFFFFFFFFFFFFFFFFFFFFFFFFFFFFFFFFFF AND PUSH20 0xFFFFFFFFFFFFFFFFFFFFFFFFFFFFFFFFFFFFFFFF AND DUP2 MSTORE PUSH1 0x20 ADD SWAP1 DUP2 MSTORE PUSH1 0x20 ADD PUSH1 0x0 KECCAK256 SLOAD LT PUSH2 0x15C8 JUMPI PUSH1 0x40 MLOAD PUSH32 0x8C379A000000000000000000000000000000000000000000000000000000000 DUP2 MSTORE PUSH1 0x4 ADD PUSH2 0x15BF SWAP1 PUSH2 0x2AFE JUMP JUMPDEST PUSH1 0x40 MLOAD DUP1 SWAP2 SUB SWAP1 REVERT JUMPDEST NUMBER PUSH1 0x4 PUSH1 0x0 ORIGIN PUSH20 0xFFFFFFFFFFFFFFFFFFFFFFFFFFFFFFFFFFFFFFFF AND PUSH20 0xFFFFFFFFFFFFFFFFFFFFFFFFFFFFFFFFFFFFFFFF AND DUP2 MSTORE PUSH1 0x20 ADD SWAP1 DUP2 MSTORE PUSH1 0x20 ADD PUSH1 0x0 KECCAK256 DUP2 SWAP1 SSTORE POP JUMPDEST JUMPDEST PUSH1 0x13 PUSH1 0x0 SWAP1 SLOAD SWAP1 PUSH2 0x100 EXP SWAP1 DIV PUSH20 0xFFFFFFFFFFFFFFFFFFFFFFFFFFFFFFFFFFFFFFFF AND PUSH20 0xFFFFFFFFFFFFFFFFFFFFFFFFFFFFFFFFFFFFFFFF AND DUP5 PUSH20 0xFFFFFFFFFFFFFFFFFFFFFFFFFFFFFFFFFFFFFFFF AND EQ DUP1 ISZERO PUSH2 0x16B9 JUMPI POP PUSH1 0x12 PUSH1 0x0 SWAP1 SLOAD SWAP1 PUSH2 0x100 EXP SWAP1 DIV PUSH20 0xFFFFFFFFFFFFFFFFFFFFFFFFFFFFFFFFFFFFFFFF AND PUSH20 0xFFFFFFFFFFFFFFFFFFFFFFFFFFFFFFFFFFFFFFFF AND DUP4 PUSH20 0xFFFFFFFFFFFFFFFFFFFFFFFFFFFFFFFFFFFFFFFF AND EQ ISZERO JUMPDEST DUP1 ISZERO PUSH2 0x170F JUMPI POP PUSH1 0x3 PUSH1 0x0 DUP5 PUSH20 0xFFFFFFFFFFFFFFFFFFFFFFFFFFFFFFFFFFFFFFFF AND PUSH20 0xFFFFFFFFFFFFFFFFFFFFFFFFFFFFFFFFFFFFFFFF AND DUP2 MSTORE PUSH1 0x20 ADD SWAP1 DUP2 MSTORE PUSH1 0x20 ADD PUSH1 0x0 KECCAK256 PUSH1 0x0 SWAP1 SLOAD SWAP1 PUSH2 0x100 EXP SWAP1 DIV PUSH1 0xFF AND ISZERO JUMPDEST ISZERO PUSH2 0x17CA JUMPI PUSH1 0xE SLOAD DUP3 GT ISZERO PUSH2 0x1759 JUMPI PUSH1 0x40 MLOAD PUSH32 0x8C379A000000000000000000000000000000000000000000000000000000000 DUP2 MSTORE PUSH1 0x4 ADD PUSH2 0x1750 SWAP1 PUSH2 0x2B6A JUMP JUMPDEST PUSH1 0x40 MLOAD DUP1 SWAP2 SUB SWAP1 REVERT JUMPDEST PUSH1 0xF SLOAD DUP3 PUSH2 0x1766 DUP6 PUSH2 0xCDB JUMP JUMPDEST PUSH2 0x1770 SWAP2 SWAP1 PUSH2 0x2B8A JUMP JUMPDEST GT ISZERO PUSH2 0x17B1 JUMPI PUSH1 0x40 MLOAD PUSH32 0x8C379A000000000000000000000000000000000000000000000000000000000 DUP2 MSTORE PUSH1 0x4 ADD PUSH2 0x17A8 SWAP1 PUSH2 0x2C2C JUMP JUMPDEST PUSH1 0x40 MLOAD DUP1 SWAP2 SUB SWAP1 REVERT JUMPDEST PUSH1 0xD PUSH1 0x0 DUP2 SLOAD DUP1 SWAP3 SWAP2 SWAP1 PUSH2 0x17C4 SWAP1 PUSH2 0x2C4C JUMP JUMPDEST SWAP2 SWAP1 POP SSTORE POP JUMPDEST PUSH1 0x64 PUSH1 0xA SLOAD PUSH1 0xD SLOAD GT PUSH2 0x17DF JUMPI PUSH1 0x6 SLOAD PUSH2 0x17E3 JUMP JUMPDEST PUSH1 0x8 SLOAD JUMPDEST DUP4 PUSH2 0x17EE SWAP2 SWAP1 PUSH2 0x2529 JUMP JUMPDEST PUSH2 0x17F8 SWAP2 SWAP1 PUSH2 0x2CC4 JUMP JUMPDEST SWAP1 POP PUSH1 0x13 PUSH1 0x0 SWAP1 SLOAD SWAP1 PUSH2 0x100 EXP SWAP1 DIV PUSH20 0xFFFFFFFFFFFFFFFFFFFFFFFFFFFFFFFFFFFFFFFF AND PUSH20 0xFFFFFFFFFFFFFFFFFFFFFFFFFFFFFFFFFFFFFFFF AND DUP4 PUSH20 0xFFFFFFFFFFFFFFFFFFFFFFFFFFFFFFFFFFFFFFFF AND EQ DUP1 ISZERO PUSH2 0x1883 JUMPI POP ADDRESS PUSH20 0xFFFFFFFFFFFFFFFFFFFFFFFFFFFFFFFFFFFFFFFF AND DUP5 PUSH20 0xFFFFFFFFFFFFFFFFFFFFFFFFFFFFFFFFFFFFFFFF AND EQ ISZERO JUMPDEST ISZERO PUSH2 0x18B9 JUMPI PUSH1 0x64 PUSH1 0xB SLOAD PUSH1 0xD SLOAD GT PUSH2 0x189D JUMPI PUSH1 0x7 SLOAD PUSH2 0x18A1 JUMP JUMPDEST PUSH1 0x9 SLOAD JUMPDEST DUP4 PUSH2 0x18AC SWAP2 SWAP1 PUSH2 0x2529 JUMP JUMPDEST PUSH2 0x18B6 SWAP2 SWAP1 PUSH2 0x2CC4 JUMP JUMPDEST SWAP1 POP JUMPDEST PUSH1 0x0 PUSH2 0x18C4 ADDRESS PUSH2 0xCDB JUMP JUMPDEST SWAP1 POP PUSH1 0x13 PUSH1 0x15 SWAP1 SLOAD SWAP1 PUSH2 0x100 EXP SWAP1 DIV PUSH1 0xFF AND ISZERO DUP1 ISZERO PUSH2 0x1930 JUMPI POP PUSH1 0x13 PUSH1 0x0 SWAP1 SLOAD SWAP1 PUSH2 0x100 EXP SWAP1 DIV PUSH20 0xFFFFFFFFFFFFFFFFFFFFFFFFFFFFFFFFFFFFFFFF AND PUSH20 0xFFFFFFFFFFFFFFFFFFFFFFFFFFFFFFFFFFFFFFFF AND DUP5 PUSH20 0xFFFFFFFFFFFFFFFFFFFFFFFFFFFFFFFFFFFFFFFF AND EQ JUMPDEST DUP1 ISZERO PUSH2 0x1948 JUMPI POP PUSH1 0x13 PUSH1 0x16 SWAP1 SLOAD SWAP1 PUSH2 0x100 EXP SWAP1 DIV PUSH1 0xFF AND JUMPDEST DUP1 ISZERO PUSH2 0x1955 JUMPI POP PUSH1 0x10 SLOAD DUP2 GT JUMPDEST DUP1 ISZERO PUSH2 0x1964 JUMPI POP PUSH1 0xC SLOAD PUSH1 0xD SLOAD GT JUMPDEST ISZERO PUSH2 0x19A0 JUMPI PUSH2 0x1986 PUSH2 0x1981 DUP5 PUSH2 0x197C DUP5 PUSH1 0x11 SLOAD PUSH2 0x1F49 JUMP JUMPDEST PUSH2 0x1F49 JUMP JUMPDEST PUSH2 0x1C3C JUMP JUMPDEST PUSH1 0x0 SELFBALANCE SWAP1 POP PUSH1 0x0 DUP2 GT ISZERO PUSH2 0x199E JUMPI PUSH2 0x199D SELFBALANCE PUSH2 0x1EDD JUMP JUMPDEST JUMPDEST POP JUMPDEST POP JUMPDEST PUSH1 0x0 DUP2 GT ISZERO PUSH2 0x1A9F JUMPI DUP1 PUSH1 0x1 PUSH1 0x0 ADDRESS PUSH20 0xFFFFFFFFFFFFFFFFFFFFFFFFFFFFFFFFFFFFFFFF AND PUSH20 0xFFFFFFFFFFFFFFFFFFFFFFFFFFFFFFFFFFFFFFFF AND DUP2 MSTORE PUSH1 0x20 ADD SWAP1 DUP2 MSTORE PUSH1 0x20 ADD PUSH1 0x0 KECCAK256 SLOAD PUSH2 0x19F6 SWAP2 SWAP1 PUSH2 0x2B8A JUMP JUMPDEST PUSH1 0x1 PUSH1 0x0 ADDRESS PUSH20 0xFFFFFFFFFFFFFFFFFFFFFFFFFFFFFFFFFFFFFFFF AND PUSH20 0xFFFFFFFFFFFFFFFFFFFFFFFFFFFFFFFFFFFFFFFF AND DUP2 MSTORE PUSH1 0x20 ADD SWAP1 DUP2 MSTORE PUSH1 0x20 ADD PUSH1 0x0 KECCAK256 DUP2 SWAP1 SSTORE POP ADDRESS PUSH20 0xFFFFFFFFFFFFFFFFFFFFFFFFFFFFFFFFFFFFFFFF AND DUP5 PUSH20 0xFFFFFFFFFFFFFFFFFFFFFFFFFFFFFFFFFFFFFFFF AND PUSH32 0xDDF252AD1BE2C89B69C2B068FC378DAA952BA7F163C4A11628F55A4DF523B3EF DUP4 PUSH1 0x40 MLOAD PUSH2 0x1A96 SWAP2 SWAP1 PUSH2 0x213B JUMP JUMPDEST PUSH1 0x40 MLOAD DUP1 SWAP2 SUB SWAP1 LOG3 JUMPDEST DUP2 PUSH1 0x1 PUSH1 0x0 DUP7 PUSH20 0xFFFFFFFFFFFFFFFFFFFFFFFFFFFFFFFFFFFFFFFF AND PUSH20 0xFFFFFFFFFFFFFFFFFFFFFFFFFFFFFFFFFFFFFFFF AND DUP2 MSTORE PUSH1 0x20 ADD SWAP1 DUP2 MSTORE PUSH1 0x20 ADD PUSH1 0x0 KECCAK256 SLOAD PUSH2 0x1AEA SWAP2 SWAP1 PUSH2 0x277E JUMP JUMPDEST PUSH1 0x1 PUSH1 0x0 DUP7 PUSH20 0xFFFFFFFFFFFFFFFFFFFFFFFFFFFFFFFFFFFFFFFF AND PUSH20 0xFFFFFFFFFFFFFFFFFFFFFFFFFFFFFFFFFFFFFFFF AND DUP2 MSTORE PUSH1 0x20 ADD SWAP1 DUP2 MSTORE PUSH1 0x20 ADD PUSH1 0x0 KECCAK256 DUP2 SWAP1 SSTORE POP DUP1 DUP3 PUSH2 0x1B39 SWAP2 SWAP1 PUSH2 0x277E JUMP JUMPDEST PUSH1 0x1 PUSH1 0x0 DUP6 PUSH20 0xFFFFFFFFFFFFFFFFFFFFFFFFFFFFFFFFFFFFFFFF AND PUSH20 0xFFFFFFFFFFFFFFFFFFFFFFFFFFFFFFFFFFFFFFFF AND DUP2 MSTORE PUSH1 0x20 ADD SWAP1 DUP2 MSTORE PUSH1 0x20 ADD PUSH1 0x0 KECCAK256 SLOAD PUSH2 0x1B83 SWAP2 SWAP1 PUSH2 0x2B8A JUMP JUMPDEST PUSH1 0x1 PUSH1 0x0 DUP6 PUSH20 0xFFFFFFFFFFFFFFFFFFFFFFFFFFFFFFFFFFFFFFFF AND PUSH20 0xFFFFFFFFFFFFFFFFFFFFFFFFFFFFFFFFFFFFFFFF AND DUP2 MSTORE PUSH1 0x20 ADD SWAP1 DUP2 MSTORE PUSH1 0x20 ADD PUSH1 0x0 KECCAK256 DUP2 SWAP1 SSTORE POP DUP3 PUSH20 0xFFFFFFFFFFFFFFFFFFFFFFFFFFFFFFFFFFFFFFFF AND DUP5 PUSH20 0xFFFFFFFFFFFFFFFFFFFFFFFFFFFFFFFFFFFFFFFF AND PUSH32 0xDDF252AD1BE2C89B69C2B068FC378DAA952BA7F163C4A11628F55A4DF523B3EF DUP4 DUP6 PUSH2 0x1C21 SWAP2 SWAP1 PUSH2 0x277E JUMP JUMPDEST PUSH1 0x40 MLOAD PUSH2 0x1C2E SWAP2 SWAP1 PUSH2 0x213B JUMP JUMPDEST PUSH1 0x40 MLOAD DUP1 SWAP2 SUB SWAP1 LOG3 POP POP POP POP JUMP JUMPDEST PUSH1 0x1 PUSH1 0x13 PUSH1 0x15 PUSH2 0x100 EXP DUP2 SLOAD DUP2 PUSH1 0xFF MUL NOT AND SWAP1 DUP4 ISZERO ISZERO MUL OR SWAP1 SSTORE POP PUSH1 0x0 DUP2 EQ ISZERO PUSH2 0x1C65 JUMPI PUSH2 0x1EBF JUMP JUMPDEST PUSH1 0x13 PUSH1 0x14 SWAP1 SLOAD SWAP1 PUSH2 0x100 EXP SWAP1 DIV PUSH1 0xFF AND PUSH2 0x1C7E JUMPI PUSH2 0x1EBF JUMP JUMPDEST PUSH1 0x0 PUSH1 0x2 PUSH8 0xFFFFFFFFFFFFFFFF DUP2 GT ISZERO PUSH2 0x1C9B JUMPI PUSH2 0x1C9A PUSH2 0x2CF5 JUMP JUMPDEST JUMPDEST PUSH1 0x40 MLOAD SWAP1 DUP1 DUP3 MSTORE DUP1 PUSH1 0x20 MUL PUSH1 0x20 ADD DUP3 ADD PUSH1 0x40 MSTORE DUP1 ISZERO PUSH2 0x1CC9 JUMPI DUP2 PUSH1 0x20 ADD PUSH1 0x20 DUP3 MUL DUP1 CALLDATASIZE DUP4 CALLDATACOPY DUP1 DUP3 ADD SWAP2 POP POP SWAP1 POP JUMPDEST POP SWAP1 POP ADDRESS DUP2 PUSH1 0x0 DUP2 MLOAD DUP2 LT PUSH2 0x1CE1 JUMPI PUSH2 0x1CE0 PUSH2 0x2D24 JUMP JUMPDEST JUMPDEST PUSH1 0x20 MUL PUSH1 0x20 ADD ADD SWAP1 PUSH20 0xFFFFFFFFFFFFFFFFFFFFFFFFFFFFFFFFFFFFFFFF AND SWAP1 DUP2 PUSH20 0xFFFFFFFFFFFFFFFFFFFFFFFFFFFFFFFFFFFFFFFF AND DUP2 MSTORE POP POP PUSH1 0x12 PUSH1 0x0 SWAP1 SLOAD SWAP1 PUSH2 0x100 EXP SWAP1 DIV PUSH20 0xFFFFFFFFFFFFFFFFFFFFFFFFFFFFFFFFFFFFFFFF AND PUSH20 0xFFFFFFFFFFFFFFFFFFFFFFFFFFFFFFFFFFFFFFFF AND PUSH4 0xAD5C4648 PUSH1 0x40 MLOAD DUP2 PUSH4 0xFFFFFFFF AND PUSH1 0xE0 SHL DUP2 MSTORE PUSH1 0x4 ADD PUSH1 0x20 PUSH1 0x40 MLOAD DUP1 DUP4 SUB DUP2 DUP7 GAS STATICCALL ISZERO DUP1 ISZERO PUSH2 0x1D88 JUMPI RETURNDATASIZE PUSH1 0x0 DUP1 RETURNDATACOPY RETURNDATASIZE PUSH1 0x0 REVERT JUMPDEST POP POP POP POP PUSH1 0x40 MLOAD RETURNDATASIZE PUSH1 0x1F NOT PUSH1 0x1F DUP3 ADD AND DUP3 ADD DUP1 PUSH1 0x40 MSTORE POP DUP2 ADD SWAP1 PUSH2 0x1DAC SWAP2 SWAP1 PUSH2 0x2598 JUMP JUMPDEST DUP2 PUSH1 0x1 DUP2 MLOAD DUP2 LT PUSH2 0x1DC0 JUMPI PUSH2 0x1DBF PUSH2 0x2D24 JUMP JUMPDEST JUMPDEST PUSH1 0x20 MUL PUSH1 0x20 ADD ADD SWAP1 PUSH20 0xFFFFFFFFFFFFFFFFFFFFFFFFFFFFFFFFFFFFFFFF AND SWAP1 DUP2 PUSH20 0xFFFFFFFFFFFFFFFFFFFFFFFFFFFFFFFFFFFFFFFF AND DUP2 MSTORE POP POP PUSH2 0x1E27 ADDRESS PUSH1 0x12 PUSH1 0x0 SWAP1 SLOAD SWAP1 PUSH2 0x100 EXP SWAP1 DIV PUSH20 0xFFFFFFFFFFFFFFFFFFFFFFFFFFFFFFFFFFFFFFFF AND DUP5 PUSH2 0x1116 JUMP JUMPDEST PUSH1 0x12 PUSH1 0x0 SWAP1 SLOAD SWAP1 PUSH2 0x100 EXP SWAP1 DIV PUSH20 0xFFFFFFFFFFFFFFFFFFFFFFFFFFFFFFFFFFFFFFFF AND PUSH20 0xFFFFFFFFFFFFFFFFFFFFFFFFFFFFFFFFFFFFFFFF AND PUSH4 0x791AC947 DUP4 PUSH1 0x0 DUP5 ADDRESS TIMESTAMP PUSH1 0x40 MLOAD DUP7 PUSH4 0xFFFFFFFF AND PUSH1 0xE0 SHL DUP2 MSTORE PUSH1 0x4 ADD PUSH2 0x1E8B SWAP6 SWAP5 SWAP4 SWAP3 SWAP2 SWAP1 PUSH2 0x2E11 JUMP JUMPDEST PUSH1 0x0 PUSH1 0x40 MLOAD DUP1 DUP4 SUB DUP2 PUSH1 0x0 DUP8 DUP1 EXTCODESIZE ISZERO DUP1 ISZERO PUSH2 0x1EA5 JUMPI PUSH1 0x0 DUP1 REVERT JUMPDEST POP GAS CALL ISZERO DUP1 ISZERO PUSH2 0x1EB9 JUMPI RETURNDATASIZE PUSH1 0x0 DUP1 RETURNDATACOPY RETURNDATASIZE PUSH1 0x0 REVERT JUMPDEST POP POP POP POP POP JUMPDEST PUSH1 0x0 PUSH1 0x13 PUSH1 0x15 PUSH2 0x100 EXP DUP2 SLOAD DUP2 PUSH1 0xFF MUL NOT AND SWAP1 DUP4 ISZERO ISZERO MUL OR SWAP1 SSTORE POP POP JUMP JUMPDEST PUSH1 0x5 PUSH1 0x1 SWAP1 SLOAD SWAP1 PUSH2 0x100 EXP SWAP1 DIV PUSH20 0xFFFFFFFFFFFFFFFFFFFFFFFFFFFFFFFFFFFFFFFF AND PUSH20 0xFFFFFFFFFFFFFFFFFFFFFFFFFFFFFFFFFFFFFFFF AND PUSH2 0x8FC DUP3 SWAP1 DUP2 ISZERO MUL SWAP1 PUSH1 0x40 MLOAD PUSH1 0x0 PUSH1 0x40 MLOAD DUP1 DUP4 SUB DUP2 DUP6 DUP9 DUP9 CALL SWAP4 POP POP POP POP ISZERO DUP1 ISZERO PUSH2 0x1F45 JUMPI RETURNDATASIZE PUSH1 0x0 DUP1 RETURNDATACOPY RETURNDATASIZE PUSH1 0x0 REVERT JUMPDEST POP POP JUMP JUMPDEST PUSH1 0x0 DUP2 DUP4 GT PUSH2 0x1F58 JUMPI DUP3 PUSH2 0x1F5A JUMP JUMPDEST DUP2 JUMPDEST SWAP1 POP SWAP3 SWAP2 POP POP JUMP JUMPDEST PUSH1 0x0 DUP2 MLOAD SWAP1 POP SWAP2 SWAP1 POP JUMP JUMPDEST PUSH1 0x0 DUP3 DUP3 MSTORE PUSH1 0x20 DUP3 ADD SWAP1 POP SWAP3 SWAP2 POP POP JUMP JUMPDEST PUSH1 0x0 JUMPDEST DUP4 DUP2 LT ISZERO PUSH2 0x1F9C JUMPI DUP1 DUP3 ADD MLOAD DUP2 DUP5 ADD MSTORE PUSH1 0x20 DUP2 ADD SWAP1 POP PUSH2 0x1F81 JUMP JUMPDEST DUP4 DUP2 GT ISZERO PUSH2 0x1FAB JUMPI PUSH1 0x0 DUP5 DUP5 ADD MSTORE JUMPDEST POP POP POP POP JUMP JUMPDEST PUSH1 0x0 PUSH1 0x1F NOT PUSH1 0x1F DUP4 ADD AND SWAP1 POP SWAP2 SWAP1 POP JUMP JUMPDEST PUSH1 0x0 PUSH2 0x1FCD DUP3 PUSH2 0x1F62 JUMP JUMPDEST PUSH2 0x1FD7 DUP2 DUP6 PUSH2 0x1F6D JUMP JUMPDEST SWAP4 POP PUSH2 0x1FE7 DUP2 DUP6 PUSH1 0x20 DUP7 ADD PUSH2 0x1F7E JUMP JUMPDEST PUSH2 0x1FF0 DUP2 PUSH2 0x1FB1 JUMP JUMPDEST DUP5 ADD SWAP2 POP POP SWAP3 SWAP2 POP POP JUMP JUMPDEST PUSH1 0x0 PUSH1 0x20 DUP3 ADD SWAP1 POP DUP2 DUP2 SUB PUSH1 0x0 DUP4 ADD MSTORE PUSH2 0x2015 DUP2 DUP5 PUSH2 0x1FC2 JUMP JUMPDEST SWAP1 POP SWAP3 SWAP2 POP POP JUMP JUMPDEST PUSH1 0x0 DUP1 REVERT JUMPDEST PUSH1 0x0 PUSH20 0xFFFFFFFFFFFFFFFFFFFFFFFFFFFFFFFFFFFFFFFF DUP3 AND SWAP1 POP SWAP2 SWAP1 POP JUMP JUMPDEST PUSH1 0x0 PUSH2 0x204D DUP3 PUSH2 0x2022 JUMP JUMPDEST SWAP1 POP SWAP2 SWAP1 POP JUMP JUMPDEST PUSH2 0x205D DUP2 PUSH2 0x2042 JUMP JUMPDEST DUP2 EQ PUSH2 0x2068 JUMPI PUSH1 0x0 DUP1 REVERT JUMPDEST POP JUMP JUMPDEST PUSH1 0x0 DUP2 CALLDATALOAD SWAP1 POP PUSH2 0x207A DUP2 PUSH2 0x2054 JUMP JUMPDEST SWAP3 SWAP2 POP POP JUMP JUMPDEST PUSH1 0x0 DUP2 SWAP1 POP SWAP2 SWAP1 POP JUMP JUMPDEST PUSH2 0x2093 DUP2 PUSH2 0x2080 JUMP JUMPDEST DUP2 EQ PUSH2 0x209E JUMPI PUSH1 0x0 DUP1 REVERT JUMPDEST POP JUMP JUMPDEST PUSH1 0x0 DUP2 CALLDATALOAD SWAP1 POP PUSH2 0x20B0 DUP2 PUSH2 0x208A JUMP JUMPDEST SWAP3 SWAP2 POP POP JUMP JUMPDEST PUSH1 0x0 DUP1 PUSH1 0x40 DUP4 DUP6 SUB SLT ISZERO PUSH2 0x20CD JUMPI PUSH2 0x20CC PUSH2 0x201D JUMP JUMPDEST JUMPDEST PUSH1 0x0 PUSH2 0x20DB DUP6 DUP3 DUP7 ADD PUSH2 0x206B JUMP JUMPDEST SWAP3 POP POP PUSH1 0x20 PUSH2 0x20EC DUP6 DUP3 DUP7 ADD PUSH2 0x20A1 JUMP JUMPDEST SWAP2 POP POP SWAP3 POP SWAP3 SWAP1 POP JUMP JUMPDEST PUSH1 0x0 DUP2 ISZERO ISZERO SWAP1 POP SWAP2 SWAP1 POP JUMP JUMPDEST PUSH2 0x210B DUP2 PUSH2 0x20F6 JUMP JUMPDEST DUP3 MSTORE POP POP JUMP JUMPDEST PUSH1 0x0 PUSH1 0x20 DUP3 ADD SWAP1 POP PUSH2 0x2126 PUSH1 0x0 DUP4 ADD DUP5 PUSH2 0x2102 JUMP JUMPDEST SWAP3 SWAP2 POP POP JUMP JUMPDEST PUSH2 0x2135 DUP2 PUSH2 0x2080 JUMP JUMPDEST DUP3 MSTORE POP POP JUMP JUMPDEST PUSH1 0x0 PUSH1 0x20 DUP3 ADD SWAP1 POP PUSH2 0x2150 PUSH1 0x0 DUP4 ADD DUP5 PUSH2 0x212C JUMP JUMPDEST SWAP3 SWAP2 POP POP JUMP JUMPDEST PUSH1 0x0 PUSH1 0x20 DUP3 DUP5 SUB SLT ISZERO PUSH2 0x216C JUMPI PUSH2 0x216B PUSH2 0x201D JUMP JUMPDEST JUMPDEST PUSH1 0x0 PUSH2 0x217A DUP5 DUP3 DUP6 ADD PUSH2 0x20A1 JUMP JUMPDEST SWAP2 POP POP SWAP3 SWAP2 POP POP JUMP JUMPDEST PUSH1 0x0 DUP1 PUSH1 0x0 PUSH1 0x60 DUP5 DUP7 SUB SLT ISZERO PUSH2 0x219C JUMPI PUSH2 0x219B PUSH2 0x201D JUMP JUMPDEST JUMPDEST PUSH1 0x0 PUSH2 0x21AA DUP7 DUP3 DUP8 ADD PUSH2 0x206B JUMP JUMPDEST SWAP4 POP POP PUSH1 0x20 PUSH2 0x21BB DUP7 DUP3 DUP8 ADD PUSH2 0x206B JUMP JUMPDEST SWAP3 POP POP PUSH1 0x40 PUSH2 0x21CC DUP7 DUP3 DUP8 ADD PUSH2 0x20A1 JUMP JUMPDEST SWAP2 POP POP SWAP3 POP SWAP3 POP SWAP3 JUMP JUMPDEST PUSH1 0x0 PUSH1 0xFF DUP3 AND SWAP1 POP SWAP2 SWAP1 POP JUMP JUMPDEST PUSH2 0x21EC DUP2 PUSH2 0x21D6 JUMP JUMPDEST DUP3 MSTORE POP POP JUMP JUMPDEST PUSH1 0x0 PUSH1 0x20 DUP3 ADD SWAP1 POP PUSH2 0x2207 PUSH1 0x0 DUP4 ADD DUP5 PUSH2 0x21E3 JUMP JUMPDEST SWAP3 SWAP2 POP POP JUMP JUMPDEST PUSH1 0x0 PUSH1 0x20 DUP3 DUP5 SUB SLT ISZERO PUSH2 0x2223 JUMPI PUSH2 0x2222 PUSH2 0x201D JUMP JUMPDEST JUMPDEST PUSH1 0x0 PUSH2 0x2231 DUP5 DUP3 DUP6 ADD PUSH2 0x206B JUMP JUMPDEST SWAP2 POP POP SWAP3 SWAP2 POP POP JUMP JUMPDEST PUSH2 0x2243 DUP2 PUSH2 0x2042 JUMP JUMPDEST DUP3 MSTORE POP POP JUMP JUMPDEST PUSH1 0x0 PUSH1 0x20 DUP3 ADD SWAP1 POP PUSH2 0x225E PUSH1 0x0 DUP4 ADD DUP5 PUSH2 0x223A JUMP JUMPDEST SWAP3 SWAP2 POP POP JUMP JUMPDEST PUSH1 0x0 DUP1 PUSH1 0x40 DUP4 DUP6 SUB SLT ISZERO PUSH2 0x227B JUMPI PUSH2 0x227A PUSH2 0x201D JUMP JUMPDEST JUMPDEST PUSH1 0x0 PUSH2 0x2289 DUP6 DUP3 DUP7 ADD PUSH2 0x206B JUMP JUMPDEST SWAP3 POP POP PUSH1 0x20 PUSH2 0x229A DUP6 DUP3 DUP7 ADD PUSH2 0x206B JUMP JUMPDEST SWAP2 POP POP SWAP3 POP SWAP3 SWAP1 POP JUMP JUMPDEST PUSH32 0x4F776E61626C653A2063616C6C6572206973206E6F7420746865206F776E6572 PUSH1 0x0 DUP3 ADD MSTORE POP JUMP JUMPDEST PUSH1 0x0 PUSH2 0x22DA PUSH1 0x20 DUP4 PUSH2 0x1F6D JUMP JUMPDEST SWAP2 POP PUSH2 0x22E5 DUP3 PUSH2 0x22A4 JUMP JUMPDEST PUSH1 0x20 DUP3 ADD SWAP1 POP SWAP2 SWAP1 POP JUMP JUMPDEST PUSH1 0x0 PUSH1 0x20 DUP3 ADD SWAP1 POP DUP2 DUP2 SUB PUSH1 0x0 DUP4 ADD MSTORE PUSH2 0x2309 DUP2 PUSH2 0x22CD JUMP JUMPDEST SWAP1 POP SWAP2 SWAP1 POP JUMP JUMPDEST PUSH32 0x74726164696E6720697320616C7265616479206F70656E000000000000000000 PUSH1 0x0 DUP3 ADD MSTORE POP JUMP JUMPDEST PUSH1 0x0 PUSH2 0x2346 PUSH1 0x17 DUP4 PUSH2 0x1F6D JUMP JUMPDEST SWAP2 POP PUSH2 0x2351 DUP3 PUSH2 0x2310 JUMP JUMPDEST PUSH1 0x20 DUP3 ADD SWAP1 POP SWAP2 SWAP1 POP JUMP JUMPDEST PUSH1 0x0 PUSH1 0x20 DUP3 ADD SWAP1 POP DUP2 DUP2 SUB PUSH1 0x0 DUP4 ADD MSTORE PUSH2 0x2375 DUP2 PUSH2 0x2339 JUMP JUMPDEST SWAP1 POP SWAP2 SWAP1 POP JUMP JUMPDEST PUSH32 0x4E487B7100000000000000000000000000000000000000000000000000000000 PUSH1 0x0 MSTORE PUSH1 0x11 PUSH1 0x4 MSTORE PUSH1 0x24 PUSH1 0x0 REVERT JUMPDEST PUSH1 0x0 DUP2 PUSH1 0x1 SHR SWAP1 POP SWAP2 SWAP1 POP JUMP JUMPDEST PUSH1 0x0 DUP1 DUP3 SWAP2 POP DUP4 SWAP1 POP JUMPDEST PUSH1 0x1 DUP6 GT ISZERO PUSH2 0x2402 JUMPI DUP1 DUP7 DIV DUP2 GT ISZERO PUSH2 0x23DE JUMPI PUSH2 0x23DD PUSH2 0x237C JUMP JUMPDEST JUMPDEST PUSH1 0x1 DUP6 AND ISZERO PUSH2 0x23ED JUMPI DUP1 DUP3 MUL SWAP2 POP JUMPDEST DUP1 DUP2 MUL SWAP1 POP PUSH2 0x23FB DUP6 PUSH2 0x23AB JUMP JUMPDEST SWAP5 POP PUSH2 0x23C2 JUMP JUMPDEST SWAP5 POP SWAP5 SWAP3 POP POP POP JUMP JUMPDEST PUSH1 0x0 DUP3 PUSH2 0x241B JUMPI PUSH1 0x1 SWAP1 POP PUSH2 0x24D7 JUMP JUMPDEST DUP2 PUSH2 0x2429 JUMPI PUSH1 0x0 SWAP1 POP PUSH2 0x24D7 JUMP JUMPDEST DUP2 PUSH1 0x1 DUP2 EQ PUSH2 0x243F JUMPI PUSH1 0x2 DUP2 EQ PUSH2 0x2449 JUMPI PUSH2 0x2478 JUMP JUMPDEST PUSH1 0x1 SWAP2 POP POP PUSH2 0x24D7 JUMP JUMPDEST PUSH1 0xFF DUP5 GT ISZERO PUSH2 0x245B JUMPI PUSH2 0x245A PUSH2 0x237C JUMP JUMPDEST JUMPDEST DUP4 PUSH1 0x2 EXP SWAP2 POP DUP5 DUP3 GT ISZERO PUSH2 0x2472 JUMPI PUSH2 0x2471 PUSH2 0x237C JUMP JUMPDEST JUMPDEST POP PUSH2 0x24D7 JUMP JUMPDEST POP PUSH1 0x20 DUP4 LT PUSH2 0x133 DUP4 LT AND PUSH1 0x4E DUP5 LT PUSH1 0xB DUP5 LT AND OR ISZERO PUSH2 0x24AD JUMPI DUP3 DUP3 EXP SWAP1 POP DUP4 DUP2 GT ISZERO PUSH2 0x24A8 JUMPI PUSH2 0x24A7 PUSH2 0x237C JUMP JUMPDEST JUMPDEST PUSH2 0x24D7 JUMP JUMPDEST PUSH2 0x24BA DUP5 DUP5 DUP5 PUSH1 0x1 PUSH2 0x23B8 JUMP JUMPDEST SWAP3 POP SWAP1 POP DUP2 DUP5 DIV DUP2 GT ISZERO PUSH2 0x24D1 JUMPI PUSH2 0x24D0 PUSH2 0x237C JUMP JUMPDEST JUMPDEST DUP2 DUP2 MUL SWAP1 POP JUMPDEST SWAP4 SWAP3 POP POP POP JUMP JUMPDEST PUSH1 0x0 PUSH2 0x24E9 DUP3 PUSH2 0x2080 JUMP JUMPDEST SWAP2 POP PUSH2 0x24F4 DUP4 PUSH2 0x21D6 JUMP JUMPDEST SWAP3 POP PUSH2 0x2521 PUSH32 0xFFFFFFFFFFFFFFFFFFFFFFFFFFFFFFFFFFFFFFFFFFFFFFFFFFFFFFFFFFFFFFFF DUP5 DUP5 PUSH2 0x240B JUMP JUMPDEST SWAP1 POP SWAP3 SWAP2 POP POP JUMP JUMPDEST PUSH1 0x0 PUSH2 0x2534 DUP3 PUSH2 0x2080 JUMP JUMPDEST SWAP2 POP PUSH2 0x253F DUP4 PUSH2 0x2080 JUMP JUMPDEST SWAP3 POP DUP2 PUSH32 0xFFFFFFFFFFFFFFFFFFFFFFFFFFFFFFFFFFFFFFFFFFFFFFFFFFFFFFFFFFFFFFFF DIV DUP4 GT DUP3 ISZERO ISZERO AND ISZERO PUSH2 0x2578 JUMPI PUSH2 0x2577 PUSH2 0x237C JUMP JUMPDEST JUMPDEST DUP3 DUP3 MUL SWAP1 POP SWAP3 SWAP2 POP POP JUMP JUMPDEST PUSH1 0x0 DUP2 MLOAD SWAP1 POP PUSH2 0x2592 DUP2 PUSH2 0x2054 JUMP JUMPDEST SWAP3 SWAP2 POP POP JUMP JUMPDEST PUSH1 0x0 PUSH1 0x20 DUP3 DUP5 SUB SLT ISZERO PUSH2 0x25AE JUMPI PUSH2 0x25AD PUSH2 0x201D JUMP JUMPDEST JUMPDEST PUSH1 0x0 PUSH2 0x25BC DUP5 DUP3 DUP6 ADD PUSH2 0x2583 JUMP JUMPDEST SWAP2 POP POP SWAP3 SWAP2 POP POP JUMP JUMPDEST PUSH1 0x0 PUSH1 0x40 DUP3 ADD SWAP1 POP PUSH2 0x25DA PUSH1 0x0 DUP4 ADD DUP6 PUSH2 0x223A JUMP JUMPDEST PUSH2 0x25E7 PUSH1 0x20 DUP4 ADD DUP5 PUSH2 0x223A JUMP JUMPDEST SWAP4 SWAP3 POP POP POP JUMP JUMPDEST PUSH1 0x0 DUP2 SWAP1 POP SWAP2 SWAP1 POP JUMP JUMPDEST PUSH1 0x0 DUP2 SWAP1 POP SWAP2 SWAP1 POP JUMP JUMPDEST PUSH1 0x0 PUSH2 0x261D PUSH2 0x2618 PUSH2 0x2613 DUP5 PUSH2 0x25EE JUMP JUMPDEST PUSH2 0x25F8 JUMP JUMPDEST PUSH2 0x2080 JUMP JUMPDEST SWAP1 POP SWAP2 SWAP1 POP JUMP JUMPDEST PUSH2 0x262D DUP2 PUSH2 0x2602 JUMP JUMPDEST DUP3 MSTORE POP POP JUMP JUMPDEST PUSH1 0x0 PUSH1 0xC0 DUP3 ADD SWAP1 POP PUSH2 0x2648 PUSH1 0x0 DUP4 ADD DUP10 PUSH2 0x223A JUMP JUMPDEST PUSH2 0x2655 PUSH1 0x20 DUP4 ADD DUP9 PUSH2 0x212C JUMP JUMPDEST PUSH2 0x2662 PUSH1 0x40 DUP4 ADD DUP8 PUSH2 0x2624 JUMP JUMPDEST PUSH2 0x266F PUSH1 0x60 DUP4 ADD DUP7 PUSH2 0x2624 JUMP JUMPDEST PUSH2 0x267C PUSH1 0x80 DUP4 ADD DUP6 PUSH2 0x223A JUMP JUMPDEST PUSH2 0x2689 PUSH1 0xA0 DUP4 ADD DUP5 PUSH2 0x212C JUMP JUMPDEST SWAP8 SWAP7 POP POP POP POP POP POP POP JUMP JUMPDEST PUSH1 0x0 DUP2 MLOAD SWAP1 POP PUSH2 0x26A3 DUP2 PUSH2 0x208A JUMP JUMPDEST SWAP3 SWAP2 POP POP JUMP JUMPDEST PUSH1 0x0 DUP1 PUSH1 0x0 PUSH1 0x60 DUP5 DUP7 SUB SLT ISZERO PUSH2 0x26C2 JUMPI PUSH2 0x26C1 PUSH2 0x201D JUMP JUMPDEST JUMPDEST PUSH1 0x0 PUSH2 0x26D0 DUP7 DUP3 DUP8 ADD PUSH2 0x2694 JUMP JUMPDEST SWAP4 POP POP PUSH1 0x20 PUSH2 0x26E1 DUP7 DUP3 DUP8 ADD PUSH2 0x2694 JUMP JUMPDEST SWAP3 POP POP PUSH1 0x40 PUSH2 0x26F2 DUP7 DUP3 DUP8 ADD PUSH2 0x2694 JUMP JUMPDEST SWAP2 POP POP SWAP3 POP SWAP3 POP SWAP3 JUMP JUMPDEST PUSH1 0x0 PUSH1 0x40 DUP3 ADD SWAP1 POP PUSH2 0x2711 PUSH1 0x0 DUP4 ADD DUP6 PUSH2 0x223A JUMP JUMPDEST PUSH2 0x271E PUSH1 0x20 DUP4 ADD DUP5 PUSH2 0x212C JUMP JUMPDEST SWAP4 SWAP3 POP POP POP JUMP JUMPDEST PUSH2 0x272E DUP2 PUSH2 0x20F6 JUMP JUMPDEST DUP2 EQ PUSH2 0x2739 JUMPI PUSH1 0x0 DUP1 REVERT JUMPDEST POP JUMP JUMPDEST PUSH1 0x0 DUP2 MLOAD SWAP1 POP PUSH2 0x274B DUP2 PUSH2 0x2725 JUMP JUMPDEST SWAP3 SWAP2 POP POP JUMP JUMPDEST PUSH1 0x0 PUSH1 0x20 DUP3 DUP5 SUB SLT ISZERO PUSH2 0x2767 JUMPI PUSH2 0x2766 PUSH2 0x201D JUMP JUMPDEST JUMPDEST PUSH1 0x0 PUSH2 0x2775 DUP5 DUP3 DUP6 ADD PUSH2 0x273C JUMP JUMPDEST SWAP2 POP POP SWAP3 SWAP2 POP POP JUMP JUMPDEST PUSH1 0x0 PUSH2 0x2789 DUP3 PUSH2 0x2080 JUMP JUMPDEST SWAP2 POP PUSH2 0x2794 DUP4 PUSH2 0x2080 JUMP JUMPDEST SWAP3 POP DUP3 DUP3 LT ISZERO PUSH2 0x27A7 JUMPI PUSH2 0x27A6 PUSH2 0x237C JUMP JUMPDEST JUMPDEST DUP3 DUP3 SUB SWAP1 POP SWAP3 SWAP2 POP POP JUMP JUMPDEST PUSH32 0x45524332303A20617070726F76652066726F6D20746865207A65726F20616464 PUSH1 0x0 DUP3 ADD MSTORE PUSH32 0x7265737300000000000000000000000000000000000000000000000000000000 PUSH1 0x20 DUP3 ADD MSTORE POP JUMP JUMPDEST PUSH1 0x0 PUSH2 0x280E PUSH1 0x24 DUP4 PUSH2 0x1F6D JUMP JUMPDEST SWAP2 POP PUSH2 0x2819 DUP3 PUSH2 0x27B2 JUMP JUMPDEST PUSH1 0x40 DUP3 ADD SWAP1 POP SWAP2 SWAP1 POP JUMP JUMPDEST PUSH1 0x0 PUSH1 0x20 DUP3 ADD SWAP1 POP DUP2 DUP2 SUB PUSH1 0x0 DUP4 ADD MSTORE PUSH2 0x283D DUP2 PUSH2 0x2801 JUMP JUMPDEST SWAP1 POP SWAP2 SWAP1 POP JUMP JUMPDEST PUSH32 0x45524332303A20617070726F766520746F20746865207A65726F206164647265 PUSH1 0x0 DUP3 ADD MSTORE PUSH32 0x7373000000000000000000000000000000000000000000000000000000000000 PUSH1 0x20 DUP3 ADD MSTORE POP JUMP JUMPDEST PUSH1 0x0 PUSH2 0x28A0 PUSH1 0x22 DUP4 PUSH2 0x1F6D JUMP JUMPDEST SWAP2 POP PUSH2 0x28AB DUP3 PUSH2 0x2844 JUMP JUMPDEST PUSH1 0x40 DUP3 ADD SWAP1 POP SWAP2 SWAP1 POP JUMP JUMPDEST PUSH1 0x0 PUSH1 0x20 DUP3 ADD SWAP1 POP DUP2 DUP2 SUB PUSH1 0x0 DUP4 ADD MSTORE PUSH2 0x28CF DUP2 PUSH2 0x2893 JUMP JUMPDEST SWAP1 POP SWAP2 SWAP1 POP JUMP JUMPDEST PUSH32 0x45524332303A207472616E736665722066726F6D20746865207A65726F206164 PUSH1 0x0 DUP3 ADD MSTORE PUSH32 0x6472657373000000000000000000000000000000000000000000000000000000 PUSH1 0x20 DUP3 ADD MSTORE POP JUMP JUMPDEST PUSH1 0x0 PUSH2 0x2932 PUSH1 0x25 DUP4 PUSH2 0x1F6D JUMP JUMPDEST SWAP2 POP PUSH2 0x293D DUP3 PUSH2 0x28D6 JUMP JUMPDEST PUSH1 0x40 DUP3 ADD SWAP1 POP SWAP2 SWAP1 POP JUMP JUMPDEST PUSH1 0x0 PUSH1 0x20 DUP3 ADD SWAP1 POP DUP2 DUP2 SUB PUSH1 0x0 DUP4 ADD MSTORE PUSH2 0x2961 DUP2 PUSH2 0x2925 JUMP JUMPDEST SWAP1 POP SWAP2 SWAP1 POP JUMP JUMPDEST PUSH32 0x45524332303A207472616E7366657220746F20746865207A65726F2061646472 PUSH1 0x0 DUP3 ADD MSTORE PUSH32 0x6573730000000000000000000000000000000000000000000000000000000000 PUSH1 0x20 DUP3 ADD MSTORE POP JUMP JUMPDEST PUSH1 0x0 PUSH2 0x29C4 PUSH1 0x23 DUP4 PUSH2 0x1F6D JUMP JUMPDEST SWAP2 POP PUSH2 0x29CF DUP3 PUSH2 0x2968 JUMP JUMPDEST PUSH1 0x40 DUP3 ADD SWAP1 POP SWAP2 SWAP1 POP JUMP JUMPDEST PUSH1 0x0 PUSH1 0x20 DUP3 ADD SWAP1 POP DUP2 DUP2 SUB PUSH1 0x0 DUP4 ADD MSTORE PUSH2 0x29F3 DUP2 PUSH2 0x29B7 JUMP JUMPDEST SWAP1 POP SWAP2 SWAP1 POP JUMP JUMPDEST PUSH32 0x5472616E7366657220616D6F756E74206D757374206265206772656174657220 PUSH1 0x0 DUP3 ADD MSTORE PUSH32 0x7468616E207A65726F0000000000000000000000000000000000000000000000 PUSH1 0x20 DUP3 ADD MSTORE POP JUMP JUMPDEST PUSH1 0x0 PUSH2 0x2A56 PUSH1 0x29 DUP4 PUSH2 0x1F6D JUMP JUMPDEST SWAP2 POP PUSH2 0x2A61 DUP3 PUSH2 0x29FA JUMP JUMPDEST PUSH1 0x40 DUP3 ADD SWAP1 POP SWAP2 SWAP1 POP JUMP JUMPDEST PUSH1 0x0 PUSH1 0x20 DUP3 ADD SWAP1 POP DUP2 DUP2 SUB PUSH1 0x0 DUP4 ADD MSTORE PUSH2 0x2A85 DUP2 PUSH2 0x2A49 JUMP JUMPDEST SWAP1 POP SWAP2 SWAP1 POP JUMP JUMPDEST PUSH32 0x4F6E6C79206F6E65207472616E736665722070657220626C6F636B20616C6C6F PUSH1 0x0 DUP3 ADD MSTORE PUSH32 0x7765642E00000000000000000000000000000000000000000000000000000000 PUSH1 0x20 DUP3 ADD MSTORE POP JUMP JUMPDEST PUSH1 0x0 PUSH2 0x2AE8 PUSH1 0x24 DUP4 PUSH2 0x1F6D JUMP JUMPDEST SWAP2 POP PUSH2 0x2AF3 DUP3 PUSH2 0x2A8C JUMP JUMPDEST PUSH1 0x40 DUP3 ADD SWAP1 POP SWAP2 SWAP1 POP JUMP JUMPDEST PUSH1 0x0 PUSH1 0x20 DUP3 ADD SWAP1 POP DUP2 DUP2 SUB PUSH1 0x0 DUP4 ADD MSTORE PUSH2 0x2B17 DUP2 PUSH2 0x2ADB JUMP JUMPDEST SWAP1 POP SWAP2 SWAP1 POP JUMP JUMPDEST PUSH32 0x4578636565647320746865205F6D61785478416D6F756E742E00000000000000 PUSH1 0x0 DUP3 ADD MSTORE POP JUMP JUMPDEST PUSH1 0x0 PUSH2 0x2B54 PUSH1 0x19 DUP4 PUSH2 0x1F6D JUMP JUMPDEST SWAP2 POP PUSH2 0x2B5F DUP3 PUSH2 0x2B1E JUMP JUMPDEST PUSH1 0x20 DUP3 ADD SWAP1 POP SWAP2 SWAP1 POP JUMP JUMPDEST PUSH1 0x0 PUSH1 0x20 DUP3 ADD SWAP1 POP DUP2 DUP2 SUB PUSH1 0x0 DUP4 ADD MSTORE PUSH2 0x2B83 DUP2 PUSH2 0x2B47 JUMP JUMPDEST SWAP1 POP SWAP2 SWAP1 POP JUMP JUMPDEST PUSH1 0x0 PUSH2 0x2B95 DUP3 PUSH2 0x2080 JUMP JUMPDEST SWAP2 POP PUSH2 0x2BA0 DUP4 PUSH2 0x2080 JUMP JUMPDEST SWAP3 POP DUP3 PUSH32 0xFFFFFFFFFFFFFFFFFFFFFFFFFFFFFFFFFFFFFFFFFFFFFFFFFFFFFFFFFFFFFFFF SUB DUP3 GT ISZERO PUSH2 0x2BD5 JUMPI PUSH2 0x2BD4 PUSH2 0x237C JUMP JUMPDEST JUMPDEST DUP3 DUP3 ADD SWAP1 POP SWAP3 SWAP2 POP POP JUMP JUMPDEST PUSH32 0x4578636565647320746865206D617857616C6C657453697A652E000000000000 PUSH1 0x0 DUP3 ADD MSTORE POP JUMP JUMPDEST PUSH1 0x0 PUSH2 0x2C16 PUSH1 0x1A DUP4 PUSH2 0x1F6D JUMP JUMPDEST SWAP2 POP PUSH2 0x2C21 DUP3 PUSH2 0x2BE0 JUMP JUMPDEST PUSH1 0x20 DUP3 ADD SWAP1 POP SWAP2 SWAP1 POP JUMP JUMPDEST PUSH1 0x0 PUSH1 0x20 DUP3 ADD SWAP1 POP DUP2 DUP2 SUB PUSH1 0x0 DUP4 ADD MSTORE PUSH2 0x2C45 DUP2 PUSH2 0x2C09 JUMP JUMPDEST SWAP1 POP SWAP2 SWAP1 POP JUMP JUMPDEST PUSH1 0x0 PUSH2 0x2C57 DUP3 PUSH2 0x2080 JUMP JUMPDEST SWAP2 POP PUSH32 0xFFFFFFFFFFFFFFFFFFFFFFFFFFFFFFFFFFFFFFFFFFFFFFFFFFFFFFFFFFFFFFFF DUP3 EQ ISZERO PUSH2 0x2C8A JUMPI PUSH2 0x2C89 PUSH2 0x237C JUMP JUMPDEST JUMPDEST PUSH1 0x1 DUP3 ADD SWAP1 POP SWAP2 SWAP1 POP JUMP JUMPDEST PUSH32 0x4E487B7100000000000000000000000000000000000000000000000000000000 PUSH1 0x0 MSTORE PUSH1 0x12 PUSH1 0x4 MSTORE PUSH1 0x24 PUSH1 0x0 REVERT JUMPDEST PUSH1 0x0 PUSH2 0x2CCF DUP3 PUSH2 0x2080 JUMP JUMPDEST SWAP2 POP PUSH2 0x2CDA DUP4 PUSH2 0x2080 JUMP JUMPDEST SWAP3 POP DUP3 PUSH2 0x2CEA JUMPI PUSH2 0x2CE9 PUSH2 0x2C95 JUMP JUMPDEST JUMPDEST DUP3 DUP3 DIV SWAP1 POP SWAP3 SWAP2 POP POP JUMP JUMPDEST PUSH32 0x4E487B7100000000000000000000000000000000000000000000000000000000 PUSH1 0x0 MSTORE PUSH1 0x41 PUSH1 0x4 MSTORE PUSH1 0x24 PUSH1 0x0 REVERT JUMPDEST PUSH32 0x4E487B7100000000000000000000000000000000000000000000000000000000 PUSH1 0x0 MSTORE PUSH1 0x32 PUSH1 0x4 MSTORE PUSH1 0x24 PUSH1 0x0 REVERT JUMPDEST PUSH1 0x0 DUP2 MLOAD SWAP1 POP SWAP2 SWAP1 POP JUMP JUMPDEST PUSH1 0x0 DUP3 DUP3 MSTORE PUSH1 0x20 DUP3 ADD SWAP1 POP SWAP3 SWAP2 POP POP JUMP JUMPDEST PUSH1 0x0 DUP2 SWAP1 POP PUSH1 0x20 DUP3 ADD SWAP1 POP SWAP2 SWAP1 POP JUMP JUMPDEST PUSH2 0x2D88 DUP2 PUSH2 0x2042 JUMP JUMPDEST DUP3 MSTORE POP POP JUMP JUMPDEST PUSH1 0x0 PUSH2 0x2D9A DUP4 DUP4 PUSH2 0x2D7F JUMP JUMPDEST PUSH1 0x20 DUP4 ADD SWAP1 POP SWAP3 SWAP2 POP POP JUMP JUMPDEST PUSH1 0x0 PUSH1 0x20 DUP3 ADD SWAP1 POP SWAP2 SWAP1 POP JUMP JUMPDEST PUSH1 0x0 PUSH2 0x2DBE DUP3 PUSH2 0x2D53 JUMP JUMPDEST PUSH2 0x2DC8 DUP2 DUP6 PUSH2 0x2D5E JUMP JUMPDEST SWAP4 POP PUSH2 0x2DD3 DUP4 PUSH2 0x2D6F JUMP JUMPDEST DUP1 PUSH1 0x0 JUMPDEST DUP4 DUP2 LT ISZERO PUSH2 0x2E04 JUMPI DUP2 MLOAD PUSH2 0x2DEB DUP9 DUP3 PUSH2 0x2D8E JUMP JUMPDEST SWAP8 POP PUSH2 0x2DF6 DUP4 PUSH2 0x2DA6 JUMP JUMPDEST SWAP3 POP POP PUSH1 0x1 DUP2 ADD SWAP1 POP PUSH2 0x2DD7 JUMP JUMPDEST POP DUP6 SWAP4 POP POP POP POP SWAP3 SWAP2 POP POP JUMP JUMPDEST PUSH1 0x0 PUSH1 0xA0 DUP3 ADD SWAP1 POP PUSH2 0x2E26 PUSH1 0x0 DUP4 ADD DUP9 PUSH2 0x212C JUMP JUMPDEST PUSH2 0x2E33 PUSH1 0x20 DUP4 ADD DUP8 PUSH2 0x2624 JUMP JUMPDEST DUP2 DUP2 SUB PUSH1 0x40 DUP4 ADD MSTORE PUSH2 0x2E45 DUP2 DUP7 PUSH2 0x2DB3 JUMP JUMPDEST SWAP1 POP PUSH2 0x2E54 PUSH1 0x60 DUP4 ADD DUP6 PUSH2 0x223A JUMP JUMPDEST PUSH2 0x2E61 PUSH1 0x80 DUP4 ADD DUP5 PUSH2 0x212C JUMP JUMPDEST SWAP7 SWAP6 POP POP POP POP POP POP JUMP INVALID LOG2 PUSH5 0x6970667358 0x22 SLT KECCAK256 DUP15 OR SWAP1 0xC8 ORIGIN PC CODECOPY PUSH21 0x72DA1E4CB2B231FC31E459F6353CE1698E040B79E4 0x4F 0x4E 0xD5 PUSH5 0x736F6C6343 STOP ADDMOD EXP STOP CALLER "
				},
				"gasEstimates": {
					"creation": {
						"codeDepositCost": "2387400",
						"executionCost": "infinite",
						"totalCost": "infinite"
					},
					"external": {
						"Launch()": "infinite",
						"_maxTaxSwap()": "2452",
						"_maxTxAmount()": "2496",
						"_maxWalletSize()": "2540",
						"_reduceBuyTaxAt()": "2519",
						"_reduceSellTaxAt()": "2517",
						"_taxSwapThreshold()": "2495",
						"allowance(address,address)": "infinite",
						"approve(address,uint256)": "infinite",
						"balanceOf(address)": "2974",
						"changeSwapAmount(uint256)": "infinite",
						"decimals()": "432",
						"manualSwap()": "infinite",
						"name()": "infinite",
						"owner()": "2611",
						"removeLimits()": "infinite",
						"renounceOwnership()": "30314",
						"symbol()": "infinite",
						"totalSupply()": "infinite",
						"transfer(address,uint256)": "infinite",
						"transferDelayEnabled()": "2581",
						"transferFrom(address,address,uint256)": "infinite"
					},
					"internal": {
						"_approve(address,address,uint256)": "infinite",
						"_transfer(address,address,uint256)": "infinite",
						"min(uint256,uint256)": "64",
						"sendETHToFee(uint256)": "infinite",
						"swapTokensForEth(uint256)": "infinite"
					}
				},
				"methodIdentifiers": {
					"Launch()": "02ac8168",
					"_maxTaxSwap()": "0faee56f",
					"_maxTxAmount()": "7d1db4a5",
					"_maxWalletSize()": "8f9a55c0",
					"_reduceBuyTaxAt()": "0c193045",
					"_reduceSellTaxAt()": "c36956a0",
					"_taxSwapThreshold()": "bf474bed",
					"allowance(address,address)": "dd62ed3e",
					"approve(address,uint256)": "095ea7b3",
					"balanceOf(address)": "70a08231",
					"changeSwapAmount(uint256)": "0ce5fd36",
					"decimals()": "313ce567",
					"manualSwap()": "51bc3c85",
					"name()": "06fdde03",
					"owner()": "8da5cb5b",
					"removeLimits()": "751039fc",
					"renounceOwnership()": "715018a6",
					"symbol()": "95d89b41",
					"totalSupply()": "18160ddd",
					"transfer(address,uint256)": "a9059cbb",
					"transferDelayEnabled()": "c876d0b9",
					"transferFrom(address,address,uint256)": "23b872dd"
				}
			},
			"storageLayout": {
				"storage": [
					{
						"astId": 82,
						"contract": "contracts/spurdo.sol:spurdo",
						"label": "_owner",
						"offset": 0,
						"slot": "0",
						"type": "t_address"
					},
					{
						"astId": 217,
						"contract": "contracts/spurdo.sol:spurdo",
						"label": "_balances",
						"offset": 0,
						"slot": "1",
						"type": "t_mapping(t_address,t_uint256)"
					},
					{
						"astId": 223,
						"contract": "contracts/spurdo.sol:spurdo",
						"label": "_allowances",
						"offset": 0,
						"slot": "2",
						"type": "t_mapping(t_address,t_mapping(t_address,t_uint256))"
					},
					{
						"astId": 227,
						"contract": "contracts/spurdo.sol:spurdo",
						"label": "_isExcludedFromFee",
						"offset": 0,
						"slot": "3",
						"type": "t_mapping(t_address,t_bool)"
					},
					{
						"astId": 231,
						"contract": "contracts/spurdo.sol:spurdo",
						"label": "_holderLastTransferTimestamp",
						"offset": 0,
						"slot": "4",
						"type": "t_mapping(t_address,t_uint256)"
					},
					{
						"astId": 234,
						"contract": "contracts/spurdo.sol:spurdo",
						"label": "transferDelayEnabled",
						"offset": 0,
						"slot": "5",
						"type": "t_bool"
					},
					{
						"astId": 236,
						"contract": "contracts/spurdo.sol:spurdo",
						"label": "_taxWallet",
						"offset": 1,
						"slot": "5",
						"type": "t_address_payable"
					},
					{
						"astId": 239,
						"contract": "contracts/spurdo.sol:spurdo",
						"label": "_initialBuyTax",
						"offset": 0,
						"slot": "6",
						"type": "t_uint256"
					},
					{
						"astId": 242,
						"contract": "contracts/spurdo.sol:spurdo",
						"label": "_initialSellTax",
						"offset": 0,
						"slot": "7",
						"type": "t_uint256"
					},
					{
						"astId": 245,
						"contract": "contracts/spurdo.sol:spurdo",
						"label": "_finalBuyTax",
						"offset": 0,
						"slot": "8",
						"type": "t_uint256"
					},
					{
						"astId": 248,
						"contract": "contracts/spurdo.sol:spurdo",
						"label": "_finalSellTax",
						"offset": 0,
						"slot": "9",
						"type": "t_uint256"
					},
					{
						"astId": 251,
						"contract": "contracts/spurdo.sol:spurdo",
						"label": "_reduceBuyTaxAt",
						"offset": 0,
						"slot": "10",
						"type": "t_uint256"
					},
					{
						"astId": 254,
						"contract": "contracts/spurdo.sol:spurdo",
						"label": "_reduceSellTaxAt",
						"offset": 0,
						"slot": "11",
						"type": "t_uint256"
					},
					{
						"astId": 257,
						"contract": "contracts/spurdo.sol:spurdo",
						"label": "_preventSwapBefore",
						"offset": 0,
						"slot": "12",
						"type": "t_uint256"
					},
					{
						"astId": 260,
						"contract": "contracts/spurdo.sol:spurdo",
						"label": "_buyCount",
						"offset": 0,
						"slot": "13",
						"type": "t_uint256"
					},
					{
						"astId": 281,
						"contract": "contracts/spurdo.sol:spurdo",
						"label": "_maxTxAmount",
						"offset": 0,
						"slot": "14",
						"type": "t_uint256"
					},
					{
						"astId": 286,
						"contract": "contracts/spurdo.sol:spurdo",
						"label": "_maxWalletSize",
						"offset": 0,
						"slot": "15",
						"type": "t_uint256"
					},
					{
						"astId": 291,
						"contract": "contracts/spurdo.sol:spurdo",
						"label": "_taxSwapThreshold",
						"offset": 0,
						"slot": "16",
						"type": "t_uint256"
					},
					{
						"astId": 296,
						"contract": "contracts/spurdo.sol:spurdo",
						"label": "_maxTaxSwap",
						"offset": 0,
						"slot": "17",
						"type": "t_uint256"
					},
					{
						"astId": 299,
						"contract": "contracts/spurdo.sol:spurdo",
						"label": "uniswapV2Router",
						"offset": 0,
						"slot": "18",
						"type": "t_contract(IUniswapV2Router02)207"
					},
					{
						"astId": 301,
						"contract": "contracts/spurdo.sol:spurdo",
						"label": "uniswapV2Pair",
						"offset": 0,
						"slot": "19",
						"type": "t_address"
					},
					{
						"astId": 303,
						"contract": "contracts/spurdo.sol:spurdo",
						"label": "tradingOpen",
						"offset": 20,
						"slot": "19",
						"type": "t_bool"
					},
					{
						"astId": 306,
						"contract": "contracts/spurdo.sol:spurdo",
						"label": "inSwap",
						"offset": 21,
						"slot": "19",
						"type": "t_bool"
					},
					{
						"astId": 309,
						"contract": "contracts/spurdo.sol:spurdo",
						"label": "swapEnabled",
						"offset": 22,
						"slot": "19",
						"type": "t_bool"
					}
				],
				"types": {
					"t_address": {
						"encoding": "inplace",
						"label": "address",
						"numberOfBytes": "20"
					},
					"t_address_payable": {
						"encoding": "inplace",
						"label": "address payable",
						"numberOfBytes": "20"
					},
					"t_bool": {
						"encoding": "inplace",
						"label": "bool",
						"numberOfBytes": "1"
					},
					"t_contract(IUniswapV2Router02)207": {
						"encoding": "inplace",
						"label": "contract IUniswapV2Router02",
						"numberOfBytes": "20"
					},
					"t_mapping(t_address,t_bool)": {
						"encoding": "mapping",
						"key": "t_address",
						"label": "mapping(address => bool)",
						"numberOfBytes": "32",
						"value": "t_bool"
					},
					"t_mapping(t_address,t_mapping(t_address,t_uint256))": {
						"encoding": "mapping",
						"key": "t_address",
						"label": "mapping(address => mapping(address => uint256))",
						"numberOfBytes": "32",
						"value": "t_mapping(t_address,t_uint256)"
					},
					"t_mapping(t_address,t_uint256)": {
						"encoding": "mapping",
						"key": "t_address",
						"label": "mapping(address => uint256)",
						"numberOfBytes": "32",
						"value": "t_uint256"
					},
					"t_uint256": {
						"encoding": "inplace",
						"label": "uint256",
						"numberOfBytes": "32"
					}
				}
			},
			"userdoc": {
				"kind": "user",
				"methods": {},
				"version": 1
			}
		}
	}
}