{
	"contracts/spurdo.sol": {
		"Ownable": {
			"abi": [
				{
					"inputs": [],
					"stateMutability": "nonpayable",
					"type": "constructor"
				},
				{
					"anonymous": false,
					"inputs": [
						{
							"indexed": true,
							"internalType": "address",
							"name": "previousOwner",
							"type": "address"
						},
						{
							"indexed": true,
							"internalType": "address",
							"name": "newOwner",
							"type": "address"
						}
					],
					"name": "OwnershipTransferred",
					"type": "event"
				},
				{
					"inputs": [],
					"name": "owner",
					"outputs": [
						{
							"internalType": "address",
							"name": "",
							"type": "address"
						}
					],
					"stateMutability": "view",
					"type": "function"
				},
				{
					"inputs": [],
					"name": "renounceOwnership",
					"outputs": [],
					"stateMutability": "nonpayable",
					"type": "function"
				}
			],
			"devdoc": {
				"kind": "dev",
				"methods": {},
				"version": 1
			},
			"evm": {
				"assembly": "    /* \"contracts/spurdo.sol\":1174:1881  contract Ownable is Context {... */\n  mstore(0x40, 0x80)\n    /* \"contracts/spurdo.sol\":1355:1508  constructor() {... */\n  callvalue\n  dup1\n  iszero\n  tag_1\n  jumpi\n  0x00\n  dup1\n  revert\ntag_1:\n  pop\n    /* \"contracts/spurdo.sol\":1380:1397  address msgSender */\n  0x00\n    /* \"contracts/spurdo.sol\":1400:1412  _msgSender() */\n  tag_4\n    /* \"contracts/spurdo.sol\":1400:1410  _msgSender */\n  shl(0x20, tag_5)\n    /* \"contracts/spurdo.sol\":1400:1412  _msgSender() */\n  0x20\n  shr\n  jump\t// in\ntag_4:\n    /* \"contracts/spurdo.sol\":1380:1412  address msgSender = _msgSender() */\n  swap1\n  pop\n    /* \"contracts/spurdo.sol\":1432:1441  msgSender */\n  dup1\n    /* \"contracts/spurdo.sol\":1423:1429  _owner */\n  0x00\n  dup1\n    /* \"contracts/spurdo.sol\":1423:1441  _owner = msgSender */\n  0x0100\n  exp\n  dup2\n  sload\n  dup2\n  0xffffffffffffffffffffffffffffffffffffffff\n  mul\n  not\n  and\n  swap1\n  dup4\n  0xffffffffffffffffffffffffffffffffffffffff\n  and\n  mul\n  or\n  swap1\n  sstore\n  pop\n    /* \"contracts/spurdo.sol\":1490:1499  msgSender */\n  dup1\n    /* \"contracts/spurdo.sol\":1457:1500  OwnershipTransferred(address(0), msgSender) */\n  0xffffffffffffffffffffffffffffffffffffffff\n  and\n    /* \"contracts/spurdo.sol\":1486:1487  0 */\n  0x00\n    /* \"contracts/spurdo.sol\":1457:1500  OwnershipTransferred(address(0), msgSender) */\n  0xffffffffffffffffffffffffffffffffffffffff\n  and\n  0x8be0079c531659141344cd1fd0a4f28419497f9722a3daafe3b4186f6b6457e0\n  mload(0x40)\n  mload(0x40)\n  dup1\n  swap2\n  sub\n  swap1\n  log3\n    /* \"contracts/spurdo.sol\":1369:1508  {... */\n  pop\n    /* \"contracts/spurdo.sol\":1174:1881  contract Ownable is Context {... */\n  jump(tag_6)\n    /* \"contracts/spurdo.sol\":262:360  function _msgSender() internal view virtual returns (address) {... */\ntag_5:\n    /* \"contracts/spurdo.sol\":315:322  address */\n  0x00\n    /* \"contracts/spurdo.sol\":342:352  msg.sender */\n  caller\n    /* \"contracts/spurdo.sol\":335:352  return msg.sender */\n  swap1\n  pop\n    /* \"contracts/spurdo.sol\":262:360  function _msgSender() internal view virtual returns (address) {... */\n  swap1\n  jump\t// out\n    /* \"contracts/spurdo.sol\":1174:1881  contract Ownable is Context {... */\ntag_6:\n  dataSize(sub_0)\n  dup1\n  dataOffset(sub_0)\n  0x00\n  codecopy\n  0x00\n  return\nstop\n\nsub_0: assembly {\n        /* \"contracts/spurdo.sol\":1174:1881  contract Ownable is Context {... */\n      mstore(0x40, 0x80)\n      callvalue\n      dup1\n      iszero\n      tag_1\n      jumpi\n      0x00\n      dup1\n      revert\n    tag_1:\n      pop\n      jumpi(tag_2, lt(calldatasize, 0x04))\n      shr(0xe0, calldataload(0x00))\n      dup1\n      0x715018a6\n      eq\n      tag_3\n      jumpi\n      dup1\n      0x8da5cb5b\n      eq\n      tag_4\n      jumpi\n    tag_2:\n      0x00\n      dup1\n      revert\n        /* \"contracts/spurdo.sol\":1730:1878  function renounceOwnership() public virtual onlyOwner {... */\n    tag_3:\n      tag_5\n      tag_6\n      jump\t// in\n    tag_5:\n      stop\n        /* \"contracts/spurdo.sol\":1516:1595  function owner() public view returns (address) {... */\n    tag_4:\n      tag_7\n      tag_8\n      jump\t// in\n    tag_7:\n      mload(0x40)\n      tag_9\n      swap2\n      swap1\n      tag_10\n      jump\t// in\n    tag_9:\n      mload(0x40)\n      dup1\n      swap2\n      sub\n      swap1\n      return\n        /* \"contracts/spurdo.sol\":1730:1878  function renounceOwnership() public virtual onlyOwner {... */\n    tag_6:\n        /* \"contracts/spurdo.sol\":1653:1665  _msgSender() */\n      tag_12\n        /* \"contracts/spurdo.sol\":1653:1663  _msgSender */\n      tag_13\n        /* \"contracts/spurdo.sol\":1653:1665  _msgSender() */\n      jump\t// in\n    tag_12:\n        /* \"contracts/spurdo.sol\":1643:1665  _owner == _msgSender() */\n      0xffffffffffffffffffffffffffffffffffffffff\n      and\n        /* \"contracts/spurdo.sol\":1643:1649  _owner */\n      0x00\n      dup1\n      sload\n      swap1\n      0x0100\n      exp\n      swap1\n      div\n      0xffffffffffffffffffffffffffffffffffffffff\n      and\n        /* \"contracts/spurdo.sol\":1643:1665  _owner == _msgSender() */\n      0xffffffffffffffffffffffffffffffffffffffff\n      and\n      eq\n        /* \"contracts/spurdo.sol\":1635:1702  require(_owner == _msgSender(), \"Ownable: caller is not the owner\") */\n      tag_14\n      jumpi\n      mload(0x40)\n      0x08c379a000000000000000000000000000000000000000000000000000000000\n      dup2\n      mstore\n      0x04\n      add\n      tag_15\n      swap1\n      tag_16\n      jump\t// in\n    tag_15:\n      mload(0x40)\n      dup1\n      swap2\n      sub\n      swap1\n      revert\n    tag_14:\n        /* \"contracts/spurdo.sol\":1837:1838  0 */\n      0x00\n        /* \"contracts/spurdo.sol\":1800:1840  OwnershipTransferred(_owner, address(0)) */\n      0xffffffffffffffffffffffffffffffffffffffff\n      and\n        /* \"contracts/spurdo.sol\":1821:1827  _owner */\n      0x00\n      dup1\n      sload\n      swap1\n      0x0100\n      exp\n      swap1\n      div\n      0xffffffffffffffffffffffffffffffffffffffff\n      and\n        /* \"contracts/spurdo.sol\":1800:1840  OwnershipTransferred(_owner, address(0)) */\n      0xffffffffffffffffffffffffffffffffffffffff\n      and\n      0x8be0079c531659141344cd1fd0a4f28419497f9722a3daafe3b4186f6b6457e0\n      mload(0x40)\n      mload(0x40)\n      dup1\n      swap2\n      sub\n      swap1\n      log3\n        /* \"contracts/spurdo.sol\":1868:1869  0 */\n      0x00\n        /* \"contracts/spurdo.sol\":1851:1857  _owner */\n      dup1\n      0x00\n        /* \"contracts/spurdo.sol\":1851:1870  _owner = address(0) */\n      0x0100\n      exp\n      dup2\n      sload\n      dup2\n      0xffffffffffffffffffffffffffffffffffffffff\n      mul\n      not\n      and\n      swap1\n      dup4\n      0xffffffffffffffffffffffffffffffffffffffff\n      and\n      mul\n      or\n      swap1\n      sstore\n      pop\n        /* \"contracts/spurdo.sol\":1730:1878  function renounceOwnership() public virtual onlyOwner {... */\n      jump\t// out\n        /* \"contracts/spurdo.sol\":1516:1595  function owner() public view returns (address) {... */\n    tag_8:\n        /* \"contracts/spurdo.sol\":1554:1561  address */\n      0x00\n        /* \"contracts/spurdo.sol\":1581:1587  _owner */\n      dup1\n      0x00\n      swap1\n      sload\n      swap1\n      0x0100\n      exp\n      swap1\n      div\n      0xffffffffffffffffffffffffffffffffffffffff\n      and\n        /* \"contracts/spurdo.sol\":1574:1587  return _owner */\n      swap1\n      pop\n        /* \"contracts/spurdo.sol\":1516:1595  function owner() public view returns (address) {... */\n      swap1\n      jump\t// out\n        /* \"contracts/spurdo.sol\":262:360  function _msgSender() internal view virtual returns (address) {... */\n    tag_13:\n        /* \"contracts/spurdo.sol\":315:322  address */\n      0x00\n        /* \"contracts/spurdo.sol\":342:352  msg.sender */\n      caller\n        /* \"contracts/spurdo.sol\":335:352  return msg.sender */\n      swap1\n      pop\n        /* \"contracts/spurdo.sol\":262:360  function _msgSender() internal view virtual returns (address) {... */\n      swap1\n      jump\t// out\n        /* \"#utility.yul\":7:133   */\n    tag_20:\n        /* \"#utility.yul\":44:51   */\n      0x00\n        /* \"#utility.yul\":84:126   */\n      0xffffffffffffffffffffffffffffffffffffffff\n        /* \"#utility.yul\":77:82   */\n      dup3\n        /* \"#utility.yul\":73:127   */\n      and\n        /* \"#utility.yul\":62:127   */\n      swap1\n      pop\n        /* \"#utility.yul\":7:133   */\n      swap2\n      swap1\n      pop\n      jump\t// out\n        /* \"#utility.yul\":139:235   */\n    tag_21:\n        /* \"#utility.yul\":176:183   */\n      0x00\n        /* \"#utility.yul\":205:229   */\n      tag_29\n        /* \"#utility.yul\":223:228   */\n      dup3\n        /* \"#utility.yul\":205:229   */\n      tag_20\n      jump\t// in\n    tag_29:\n        /* \"#utility.yul\":194:229   */\n      swap1\n      pop\n        /* \"#utility.yul\":139:235   */\n      swap2\n      swap1\n      pop\n      jump\t// out\n        /* \"#utility.yul\":241:359   */\n    tag_22:\n        /* \"#utility.yul\":328:352   */\n      tag_31\n        /* \"#utility.yul\":346:351   */\n      dup2\n        /* \"#utility.yul\":328:352   */\n      tag_21\n      jump\t// in\n    tag_31:\n        /* \"#utility.yul\":323:326   */\n      dup3\n        /* \"#utility.yul\":316:353   */\n      mstore\n        /* \"#utility.yul\":241:359   */\n      pop\n      pop\n      jump\t// out\n        /* \"#utility.yul\":365:587   */\n    tag_10:\n        /* \"#utility.yul\":458:462   */\n      0x00\n        /* \"#utility.yul\":496:498   */\n      0x20\n        /* \"#utility.yul\":485:494   */\n      dup3\n        /* \"#utility.yul\":481:499   */\n      add\n        /* \"#utility.yul\":473:499   */\n      swap1\n      pop\n        /* \"#utility.yul\":509:580   */\n      tag_33\n        /* \"#utility.yul\":577:578   */\n      0x00\n        /* \"#utility.yul\":566:575   */\n      dup4\n        /* \"#utility.yul\":562:579   */\n      add\n        /* \"#utility.yul\":553:559   */\n      dup5\n        /* \"#utility.yul\":509:580   */\n      tag_22\n      jump\t// in\n    tag_33:\n        /* \"#utility.yul\":365:587   */\n      swap3\n      swap2\n      pop\n      pop\n      jump\t// out\n        /* \"#utility.yul\":593:762   */\n    tag_23:\n        /* \"#utility.yul\":677:688   */\n      0x00\n        /* \"#utility.yul\":711:717   */\n      dup3\n        /* \"#utility.yul\":706:709   */\n      dup3\n        /* \"#utility.yul\":699:718   */\n      mstore\n        /* \"#utility.yul\":751:755   */\n      0x20\n        /* \"#utility.yul\":746:749   */\n      dup3\n        /* \"#utility.yul\":742:756   */\n      add\n        /* \"#utility.yul\":727:756   */\n      swap1\n      pop\n        /* \"#utility.yul\":593:762   */\n      swap3\n      swap2\n      pop\n      pop\n      jump\t// out\n        /* \"#utility.yul\":768:950   */\n    tag_24:\n        /* \"#utility.yul\":908:942   */\n      0x4f776e61626c653a2063616c6c6572206973206e6f7420746865206f776e6572\n        /* \"#utility.yul\":904:905   */\n      0x00\n        /* \"#utility.yul\":896:902   */\n      dup3\n        /* \"#utility.yul\":892:906   */\n      add\n        /* \"#utility.yul\":885:943   */\n      mstore\n        /* \"#utility.yul\":768:950   */\n      pop\n      jump\t// out\n        /* \"#utility.yul\":956:1322   */\n    tag_25:\n        /* \"#utility.yul\":1098:1101   */\n      0x00\n        /* \"#utility.yul\":1119:1186   */\n      tag_37\n        /* \"#utility.yul\":1183:1185   */\n      0x20\n        /* \"#utility.yul\":1178:1181   */\n      dup4\n        /* \"#utility.yul\":1119:1186   */\n      tag_23\n      jump\t// in\n    tag_37:\n        /* \"#utility.yul\":1112:1186   */\n      swap2\n      pop\n        /* \"#utility.yul\":1195:1288   */\n      tag_38\n        /* \"#utility.yul\":1284:1287   */\n      dup3\n        /* \"#utility.yul\":1195:1288   */\n      tag_24\n      jump\t// in\n    tag_38:\n        /* \"#utility.yul\":1313:1315   */\n      0x20\n        /* \"#utility.yul\":1308:1311   */\n      dup3\n        /* \"#utility.yul\":1304:1316   */\n      add\n        /* \"#utility.yul\":1297:1316   */\n      swap1\n      pop\n        /* \"#utility.yul\":956:1322   */\n      swap2\n      swap1\n      pop\n      jump\t// out\n        /* \"#utility.yul\":1328:1747   */\n    tag_16:\n        /* \"#utility.yul\":1494:1498   */\n      0x00\n        /* \"#utility.yul\":1532:1534   */\n      0x20\n        /* \"#utility.yul\":1521:1530   */\n      dup3\n        /* \"#utility.yul\":1517:1535   */\n      add\n        /* \"#utility.yul\":1509:1535   */\n      swap1\n      pop\n        /* \"#utility.yul\":1581:1590   */\n      dup2\n        /* \"#utility.yul\":1575:1579   */\n      dup2\n        /* \"#utility.yul\":1571:1591   */\n      sub\n        /* \"#utility.yul\":1567:1568   */\n      0x00\n        /* \"#utility.yul\":1556:1565   */\n      dup4\n        /* \"#utility.yul\":1552:1569   */\n      add\n        /* \"#utility.yul\":1545:1592   */\n      mstore\n        /* \"#utility.yul\":1609:1740   */\n      tag_40\n        /* \"#utility.yul\":1735:1739   */\n      dup2\n        /* \"#utility.yul\":1609:1740   */\n      tag_25\n      jump\t// in\n    tag_40:\n        /* \"#utility.yul\":1601:1740   */\n      swap1\n      pop\n        /* \"#utility.yul\":1328:1747   */\n      swap2\n      swap1\n      pop\n      jump\t// out\n\n    auxdata: 0xa26469706673582212207148f9e86e5a6c6cd7004020879cf3c820184f4a43439f87fe193f9b80054ae864736f6c634300080a0033\n}\n",
				"bytecode": {
					"linkReferences": {},
					"object": "608060405234801561001057600080fd5b5060006100216100c460201b60201c565b9050806000806101000a81548173ffffffffffffffffffffffffffffffffffffffff021916908373ffffffffffffffffffffffffffffffffffffffff1602179055508073ffffffffffffffffffffffffffffffffffffffff16600073ffffffffffffffffffffffffffffffffffffffff167f8be0079c531659141344cd1fd0a4f28419497f9722a3daafe3b4186f6b6457e060405160405180910390a3506100cc565b600033905090565b6102f6806100db6000396000f3fe608060405234801561001057600080fd5b50600436106100365760003560e01c8063715018a61461003b5780638da5cb5b14610045575b600080fd5b610043610063565b005b61004d6101b6565b60405161005a9190610228565b60405180910390f35b61006b6101df565b73ffffffffffffffffffffffffffffffffffffffff1660008054906101000a900473ffffffffffffffffffffffffffffffffffffffff1673ffffffffffffffffffffffffffffffffffffffff16146100f8576040517f08c379a00000000000000000000000000000000000000000000000000000000081526004016100ef906102a0565b60405180910390fd5b600073ffffffffffffffffffffffffffffffffffffffff1660008054906101000a900473ffffffffffffffffffffffffffffffffffffffff1673ffffffffffffffffffffffffffffffffffffffff167f8be0079c531659141344cd1fd0a4f28419497f9722a3daafe3b4186f6b6457e060405160405180910390a360008060006101000a81548173ffffffffffffffffffffffffffffffffffffffff021916908373ffffffffffffffffffffffffffffffffffffffff160217905550565b60008060009054906101000a900473ffffffffffffffffffffffffffffffffffffffff16905090565b600033905090565b600073ffffffffffffffffffffffffffffffffffffffff82169050919050565b6000610212826101e7565b9050919050565b61022281610207565b82525050565b600060208201905061023d6000830184610219565b92915050565b600082825260208201905092915050565b7f4f776e61626c653a2063616c6c6572206973206e6f7420746865206f776e6572600082015250565b600061028a602083610243565b915061029582610254565b602082019050919050565b600060208201905081810360008301526102b98161027d565b905091905056fea26469706673582212207148f9e86e5a6c6cd7004020879cf3c820184f4a43439f87fe193f9b80054ae864736f6c634300080a0033",
					"opcodes": "PUSH1 0x80 PUSH1 0x40 MSTORE CALLVALUE DUP1 ISZERO PUSH2 0x10 JUMPI PUSH1 0x0 DUP1 REVERT JUMPDEST POP PUSH1 0x0 PUSH2 0x21 PUSH2 0xC4 PUSH1 0x20 SHL PUSH1 0x20 SHR JUMP JUMPDEST SWAP1 POP DUP1 PUSH1 0x0 DUP1 PUSH2 0x100 EXP DUP2 SLOAD DUP2 PUSH20 0xFFFFFFFFFFFFFFFFFFFFFFFFFFFFFFFFFFFFFFFF MUL NOT AND SWAP1 DUP4 PUSH20 0xFFFFFFFFFFFFFFFFFFFFFFFFFFFFFFFFFFFFFFFF AND MUL OR SWAP1 SSTORE POP DUP1 PUSH20 0xFFFFFFFFFFFFFFFFFFFFFFFFFFFFFFFFFFFFFFFF AND PUSH1 0x0 PUSH20 0xFFFFFFFFFFFFFFFFFFFFFFFFFFFFFFFFFFFFFFFF AND PUSH32 0x8BE0079C531659141344CD1FD0A4F28419497F9722A3DAAFE3B4186F6B6457E0 PUSH1 0x40 MLOAD PUSH1 0x40 MLOAD DUP1 SWAP2 SUB SWAP1 LOG3 POP PUSH2 0xCC JUMP JUMPDEST PUSH1 0x0 CALLER SWAP1 POP SWAP1 JUMP JUMPDEST PUSH2 0x2F6 DUP1 PUSH2 0xDB PUSH1 0x0 CODECOPY PUSH1 0x0 RETURN INVALID PUSH1 0x80 PUSH1 0x40 MSTORE CALLVALUE DUP1 ISZERO PUSH2 0x10 JUMPI PUSH1 0x0 DUP1 REVERT JUMPDEST POP PUSH1 0x4 CALLDATASIZE LT PUSH2 0x36 JUMPI PUSH1 0x0 CALLDATALOAD PUSH1 0xE0 SHR DUP1 PUSH4 0x715018A6 EQ PUSH2 0x3B JUMPI DUP1 PUSH4 0x8DA5CB5B EQ PUSH2 0x45 JUMPI JUMPDEST PUSH1 0x0 DUP1 REVERT JUMPDEST PUSH2 0x43 PUSH2 0x63 JUMP JUMPDEST STOP JUMPDEST PUSH2 0x4D PUSH2 0x1B6 JUMP JUMPDEST PUSH1 0x40 MLOAD PUSH2 0x5A SWAP2 SWAP1 PUSH2 0x228 JUMP JUMPDEST PUSH1 0x40 MLOAD DUP1 SWAP2 SUB SWAP1 RETURN JUMPDEST PUSH2 0x6B PUSH2 0x1DF JUMP JUMPDEST PUSH20 0xFFFFFFFFFFFFFFFFFFFFFFFFFFFFFFFFFFFFFFFF AND PUSH1 0x0 DUP1 SLOAD SWAP1 PUSH2 0x100 EXP SWAP1 DIV PUSH20 0xFFFFFFFFFFFFFFFFFFFFFFFFFFFFFFFFFFFFFFFF AND PUSH20 0xFFFFFFFFFFFFFFFFFFFFFFFFFFFFFFFFFFFFFFFF AND EQ PUSH2 0xF8 JUMPI PUSH1 0x40 MLOAD PUSH32 0x8C379A000000000000000000000000000000000000000000000000000000000 DUP2 MSTORE PUSH1 0x4 ADD PUSH2 0xEF SWAP1 PUSH2 0x2A0 JUMP JUMPDEST PUSH1 0x40 MLOAD DUP1 SWAP2 SUB SWAP1 REVERT JUMPDEST PUSH1 0x0 PUSH20 0xFFFFFFFFFFFFFFFFFFFFFFFFFFFFFFFFFFFFFFFF AND PUSH1 0x0 DUP1 SLOAD SWAP1 PUSH2 0x100 EXP SWAP1 DIV PUSH20 0xFFFFFFFFFFFFFFFFFFFFFFFFFFFFFFFFFFFFFFFF AND PUSH20 0xFFFFFFFFFFFFFFFFFFFFFFFFFFFFFFFFFFFFFFFF AND PUSH32 0x8BE0079C531659141344CD1FD0A4F28419497F9722A3DAAFE3B4186F6B6457E0 PUSH1 0x40 MLOAD PUSH1 0x40 MLOAD DUP1 SWAP2 SUB SWAP1 LOG3 PUSH1 0x0 DUP1 PUSH1 0x0 PUSH2 0x100 EXP DUP2 SLOAD DUP2 PUSH20 0xFFFFFFFFFFFFFFFFFFFFFFFFFFFFFFFFFFFFFFFF MUL NOT AND SWAP1 DUP4 PUSH20 0xFFFFFFFFFFFFFFFFFFFFFFFFFFFFFFFFFFFFFFFF AND MUL OR SWAP1 SSTORE POP JUMP JUMPDEST PUSH1 0x0 DUP1 PUSH1 0x0 SWAP1 SLOAD SWAP1 PUSH2 0x100 EXP SWAP1 DIV PUSH20 0xFFFFFFFFFFFFFFFFFFFFFFFFFFFFFFFFFFFFFFFF AND SWAP1 POP SWAP1 JUMP JUMPDEST PUSH1 0x0 CALLER SWAP1 POP SWAP1 JUMP JUMPDEST PUSH1 0x0 PUSH20 0xFFFFFFFFFFFFFFFFFFFFFFFFFFFFFFFFFFFFFFFF DUP3 AND SWAP1 POP SWAP2 SWAP1 POP JUMP JUMPDEST PUSH1 0x0 PUSH2 0x212 DUP3 PUSH2 0x1E7 JUMP JUMPDEST SWAP1 POP SWAP2 SWAP1 POP JUMP JUMPDEST PUSH2 0x222 DUP2 PUSH2 0x207 JUMP JUMPDEST DUP3 MSTORE POP POP JUMP JUMPDEST PUSH1 0x0 PUSH1 0x20 DUP3 ADD SWAP1 POP PUSH2 0x23D PUSH1 0x0 DUP4 ADD DUP5 PUSH2 0x219 JUMP JUMPDEST SWAP3 SWAP2 POP POP JUMP JUMPDEST PUSH1 0x0 DUP3 DUP3 MSTORE PUSH1 0x20 DUP3 ADD SWAP1 POP SWAP3 SWAP2 POP POP JUMP JUMPDEST PUSH32 0x4F776E61626C653A2063616C6C6572206973206E6F7420746865206F776E6572 PUSH1 0x0 DUP3 ADD MSTORE POP JUMP JUMPDEST PUSH1 0x0 PUSH2 0x28A PUSH1 0x20 DUP4 PUSH2 0x243 JUMP JUMPDEST SWAP2 POP PUSH2 0x295 DUP3 PUSH2 0x254 JUMP JUMPDEST PUSH1 0x20 DUP3 ADD SWAP1 POP SWAP2 SWAP1 POP JUMP JUMPDEST PUSH1 0x0 PUSH1 0x20 DUP3 ADD SWAP1 POP DUP2 DUP2 SUB PUSH1 0x0 DUP4 ADD MSTORE PUSH2 0x2B9 DUP2 PUSH2 0x27D JUMP JUMPDEST SWAP1 POP SWAP2 SWAP1 POP JUMP INVALID LOG2 PUSH5 0x6970667358 0x22 SLT KECCAK256 PUSH18 0x48F9E86E5A6C6CD7004020879CF3C820184F 0x4A NUMBER NUMBER SWAP16 DUP8 INVALID NOT EXTCODEHASH SWAP12 DUP1 SDIV 0x4A 0xE8 PUSH5 0x736F6C6343 STOP ADDMOD EXP STOP CALLER "
				},
				"gasEstimates": {
					"creation": {
						"codeDepositCost": "151600",
						"executionCost": "infinite",
						"totalCost": "infinite"
					},
					"external": {
						"owner()": "2522",
						"renounceOwnership()": "30269"
					}
				},
				"methodIdentifiers": {
					"owner()": "8da5cb5b",
					"renounceOwnership()": "715018a6"
				}
			},
			"storageLayout": {
				"storage": [
					{
						"astId": 82,
						"contract": "contracts/spurdo.sol:Ownable",
						"label": "_owner",
						"offset": 0,
						"slot": "0",
						"type": "t_address"
					}
				],
				"types": {
					"t_address": {
						"encoding": "inplace",
						"label": "address",
						"numberOfBytes": "20"
					}
				}
			},
			"userdoc": {
				"kind": "user",
				"methods": {},
				"version": 1
			}
		}
	}
}