{
	"contracts/oat.sol": {
		"OneAnonataTime": {
			"abi": [
				{
					"inputs": [],
					"stateMutability": "nonpayable",
					"type": "constructor"
				},
				{
					"anonymous": false,
					"inputs": [
						{
							"indexed": true,
							"internalType": "address",
							"name": "owner",
							"type": "address"
						},
						{
							"indexed": true,
							"internalType": "address",
							"name": "spender",
							"type": "address"
						},
						{
							"indexed": false,
							"internalType": "uint256",
							"name": "value",
							"type": "uint256"
						}
					],
					"name": "Approval",
					"type": "event"
				},
				{
					"anonymous": false,
					"inputs": [
						{
							"indexed": true,
							"internalType": "address",
							"name": "previousOwner",
							"type": "address"
						},
						{
							"indexed": true,
							"internalType": "address",
							"name": "newOwner",
							"type": "address"
						}
					],
					"name": "OwnershipTransferred",
					"type": "event"
				},
				{
					"anonymous": false,
					"inputs": [
						{
							"indexed": true,
							"internalType": "address",
							"name": "from",
							"type": "address"
						},
						{
							"indexed": true,
							"internalType": "address",
							"name": "to",
							"type": "address"
						},
						{
							"indexed": false,
							"internalType": "uint256",
							"name": "value",
							"type": "uint256"
						}
					],
					"name": "Transfer",
					"type": "event"
				},
				{
					"inputs": [],
					"name": "DEAD_WALLET",
					"outputs": [
						{
							"internalType": "address",
							"name": "",
							"type": "address"
						}
					],
					"stateMutability": "view",
					"type": "function"
				},
				{
					"inputs": [],
					"name": "_maxTaxSwap",
					"outputs": [
						{
							"internalType": "uint256",
							"name": "",
							"type": "uint256"
						}
					],
					"stateMutability": "view",
					"type": "function"
				},
				{
					"inputs": [],
					"name": "_maxTxAmount",
					"outputs": [
						{
							"internalType": "uint256",
							"name": "",
							"type": "uint256"
						}
					],
					"stateMutability": "view",
					"type": "function"
				},
				{
					"inputs": [],
					"name": "_maxWalletSize",
					"outputs": [
						{
							"internalType": "uint256",
							"name": "",
							"type": "uint256"
						}
					],
					"stateMutability": "view",
					"type": "function"
				},
				{
					"inputs": [],
					"name": "_taxSwapThreshold",
					"outputs": [
						{
							"internalType": "uint256",
							"name": "",
							"type": "uint256"
						}
					],
					"stateMutability": "view",
					"type": "function"
				},
				{
					"inputs": [
						{
							"internalType": "address",
							"name": "owner",
							"type": "address"
						},
						{
							"internalType": "address",
							"name": "spender",
							"type": "address"
						}
					],
					"name": "allowance",
					"outputs": [
						{
							"internalType": "uint256",
							"name": "",
							"type": "uint256"
						}
					],
					"stateMutability": "view",
					"type": "function"
				},
				{
					"inputs": [
						{
							"internalType": "address",
							"name": "spender",
							"type": "address"
						},
						{
							"internalType": "uint256",
							"name": "amount",
							"type": "uint256"
						}
					],
					"name": "approve",
					"outputs": [
						{
							"internalType": "bool",
							"name": "",
							"type": "bool"
						}
					],
					"stateMutability": "nonpayable",
					"type": "function"
				},
				{
					"inputs": [
						{
							"internalType": "address",
							"name": "account",
							"type": "address"
						}
					],
					"name": "balanceOf",
					"outputs": [
						{
							"internalType": "uint256",
							"name": "",
							"type": "uint256"
						}
					],
					"stateMutability": "view",
					"type": "function"
				},
				{
					"inputs": [],
					"name": "decimals",
					"outputs": [
						{
							"internalType": "uint8",
							"name": "",
							"type": "uint8"
						}
					],
					"stateMutability": "pure",
					"type": "function"
				},
				{
					"inputs": [],
					"name": "manualSwap",
					"outputs": [],
					"stateMutability": "nonpayable",
					"type": "function"
				},
				{
					"inputs": [],
					"name": "name",
					"outputs": [
						{
							"internalType": "string",
							"name": "",
							"type": "string"
						}
					],
					"stateMutability": "pure",
					"type": "function"
				},
				{
					"inputs": [],
					"name": "openTrading",
					"outputs": [],
					"stateMutability": "nonpayable",
					"type": "function"
				},
				{
					"inputs": [],
					"name": "owner",
					"outputs": [
						{
							"internalType": "address",
							"name": "",
							"type": "address"
						}
					],
					"stateMutability": "view",
					"type": "function"
				},
				{
					"inputs": [],
					"name": "renounceOwnership",
					"outputs": [],
					"stateMutability": "nonpayable",
					"type": "function"
				},
				{
					"inputs": [],
					"name": "symbol",
					"outputs": [
						{
							"internalType": "string",
							"name": "",
							"type": "string"
						}
					],
					"stateMutability": "pure",
					"type": "function"
				},
				{
					"inputs": [],
					"name": "totalSupply",
					"outputs": [
						{
							"internalType": "uint256",
							"name": "",
							"type": "uint256"
						}
					],
					"stateMutability": "pure",
					"type": "function"
				},
				{
					"inputs": [
						{
							"internalType": "address",
							"name": "recipient",
							"type": "address"
						},
						{
							"internalType": "uint256",
							"name": "amount",
							"type": "uint256"
						}
					],
					"name": "transfer",
					"outputs": [
						{
							"internalType": "bool",
							"name": "",
							"type": "bool"
						}
					],
					"stateMutability": "nonpayable",
					"type": "function"
				},
				{
					"inputs": [],
					"name": "transferDelayEnabled",
					"outputs": [
						{
							"internalType": "bool",
							"name": "",
							"type": "bool"
						}
					],
					"stateMutability": "view",
					"type": "function"
				},
				{
					"inputs": [
						{
							"internalType": "address",
							"name": "sender",
							"type": "address"
						},
						{
							"internalType": "address",
							"name": "recipient",
							"type": "address"
						},
						{
							"internalType": "uint256",
							"name": "amount",
							"type": "uint256"
						}
					],
					"name": "transferFrom",
					"outputs": [
						{
							"internalType": "bool",
							"name": "",
							"type": "bool"
						}
					],
					"stateMutability": "nonpayable",
					"type": "function"
				},
				{
					"stateMutability": "payable",
					"type": "receive"
				}
			],
			"devdoc": {
				"kind": "dev",
				"methods": {},
				"version": 1
			},
			"evm": {
				"assembly": "    /* \"contracts/oat.sol\":4544:12547  contract OneAnonataTime is Context, IERC20, Ownable {... */\n  mstore(0x40, 0x80)\n    /* \"contracts/oat.sol\":4963:4967  true */\n  0x01\n    /* \"contracts/oat.sol\":4928:4967  bool public transferDelayEnabled = true */\n  0x06\n  exp(0x0100, 0x00)\n  dup2\n  sload\n  dup2\n  0xff\n  mul\n  not\n  and\n  swap1\n  dup4\n  iszero\n  iszero\n  mul\n  or\n  swap1\n  sstore\n  pop\n    /* \"contracts/oat.sol\":5188:5190  18 */\n  0x12\n    /* \"contracts/oat.sol\":5410:5412  10 */\n  0x0a\n    /* \"contracts/oat.sol\":5410:5423  10**_decimals */\n  tag_1\n  swap2\n  swap1\n  tag_2\n  jump\t// in\ntag_1:\n    /* \"contracts/oat.sol\":5400:5407  1000000 */\n  0x0f4240\n    /* \"contracts/oat.sol\":5400:5423  1000000 * 10**_decimals */\n  tag_3\n  swap2\n  swap1\n  tag_4\n  jump\t// in\ntag_3:\n    /* \"contracts/oat.sol\":5370:5423  uint256 public _maxTxAmount = 1000000 * 10**_decimals */\n  0x07\n  sstore\n    /* \"contracts/oat.sol\":5188:5190  18 */\n  0x12\n    /* \"contracts/oat.sol\":5471:5473  10 */\n  0x0a\n    /* \"contracts/oat.sol\":5471:5484  10**_decimals */\n  tag_5\n  swap2\n  swap1\n  tag_2\n  jump\t// in\ntag_5:\n    /* \"contracts/oat.sol\":5461:5468  1000000 */\n  0x0f4240\n    /* \"contracts/oat.sol\":5461:5484  1000000 * 10**_decimals */\n  tag_6\n  swap2\n  swap1\n  tag_4\n  jump\t// in\ntag_6:\n    /* \"contracts/oat.sol\":5429:5484  uint256 public _maxWalletSize = 1000000 * 10**_decimals */\n  0x08\n  sstore\n    /* \"contracts/oat.sol\":5188:5190  18 */\n  0x12\n    /* \"contracts/oat.sol\":5534:5536  10 */\n  0x0a\n    /* \"contracts/oat.sol\":5534:5547  10**_decimals */\n  tag_7\n  swap2\n  swap1\n  tag_2\n  jump\t// in\ntag_7:\n    /* \"contracts/oat.sol\":5525:5531  100000 */\n  0x0186a0\n    /* \"contracts/oat.sol\":5525:5547  100000 * 10**_decimals */\n  tag_8\n  swap2\n  swap1\n  tag_4\n  jump\t// in\ntag_8:\n    /* \"contracts/oat.sol\":5490:5547  uint256 public _taxSwapThreshold = 100000 * 10**_decimals */\n  0x09\n  sstore\n    /* \"contracts/oat.sol\":5188:5190  18 */\n  0x12\n    /* \"contracts/oat.sol\":5591:5593  10 */\n  0x0a\n    /* \"contracts/oat.sol\":5591:5604  10**_decimals */\n  tag_9\n  swap2\n  swap1\n  tag_2\n  jump\t// in\ntag_9:\n    /* \"contracts/oat.sol\":5582:5588  300000 */\n  0x0493e0\n    /* \"contracts/oat.sol\":5582:5604  300000 * 10**_decimals */\n  tag_10\n  swap2\n  swap1\n  tag_4\n  jump\t// in\ntag_10:\n    /* \"contracts/oat.sol\":5553:5604  uint256 public _maxTaxSwap = 300000 * 10**_decimals */\n  0x0a\n  sstore\n    /* \"contracts/oat.sol\":5746:5751  false */\n  0x00\n    /* \"contracts/oat.sol\":5724:5751  bool private inSwap = false */\n  0x0c\n  exp(0x0100, 0x15)\n  dup2\n  sload\n  dup2\n  0xff\n  mul\n  not\n  and\n  swap1\n  dup4\n  iszero\n  iszero\n  mul\n  or\n  swap1\n  sstore\n  pop\n    /* \"contracts/oat.sol\":5784:5789  false */\n  0x00\n    /* \"contracts/oat.sol\":5757:5789  bool private swapEnabled = false */\n  0x0c\n  exp(0x0100, 0x16)\n  dup2\n  sload\n  dup2\n  0xff\n  mul\n  not\n  and\n  swap1\n  dup4\n  iszero\n  iszero\n  mul\n  or\n  swap1\n  sstore\n  pop\n    /* \"contracts/oat.sol\":5890:6246  constructor() {... */\n  callvalue\n  dup1\n  iszero\n  tag_11\n  jumpi\n  0x00\n  dup1\n  revert\ntag_11:\n  pop\n    /* \"contracts/oat.sol\":3202:3219  address msgSender */\n  0x00\n    /* \"contracts/oat.sol\":3222:3234  _msgSender() */\n  tag_15\n    /* \"contracts/oat.sol\":3222:3232  _msgSender */\n  shl(0x20, tag_16)\n    /* \"contracts/oat.sol\":3222:3234  _msgSender() */\n  0x20\n  shr\n  jump\t// in\ntag_15:\n    /* \"contracts/oat.sol\":3202:3234  address msgSender = _msgSender() */\n  swap1\n  pop\n    /* \"contracts/oat.sol\":3253:3262  msgSender */\n  dup1\n    /* \"contracts/oat.sol\":3244:3250  _owner */\n  0x00\n  dup1\n    /* \"contracts/oat.sol\":3244:3262  _owner = msgSender */\n  0x0100\n  exp\n  dup2\n  sload\n  dup2\n  0xffffffffffffffffffffffffffffffffffffffff\n  mul\n  not\n  and\n  swap1\n  dup4\n  0xffffffffffffffffffffffffffffffffffffffff\n  and\n  mul\n  or\n  swap1\n  sstore\n  pop\n    /* \"contracts/oat.sol\":3310:3319  msgSender */\n  dup1\n    /* \"contracts/oat.sol\":3277:3320  OwnershipTransferred(address(0), msgSender) */\n  0xffffffffffffffffffffffffffffffffffffffff\n  and\n    /* \"contracts/oat.sol\":3306:3307  0 */\n  0x00\n    /* \"contracts/oat.sol\":3277:3320  OwnershipTransferred(address(0), msgSender) */\n  0xffffffffffffffffffffffffffffffffffffffff\n  and\n  0x8be0079c531659141344cd1fd0a4f28419497f9722a3daafe3b4186f6b6457e0\n  mload(0x40)\n  mload(0x40)\n  dup1\n  swap2\n  sub\n  swap1\n  log3\n    /* \"contracts/oat.sol\":3192:3327  {... */\n  pop\n    /* \"contracts/oat.sol\":5935:5947  _msgSender() */\n  tag_18\n    /* \"contracts/oat.sol\":5935:5945  _msgSender */\n  shl(0x20, tag_16)\n    /* \"contracts/oat.sol\":5935:5947  _msgSender() */\n  0x20\n  shr\n  jump\t// in\ntag_18:\n    /* \"contracts/oat.sol\":5914:5924  _taxWallet */\n  0x06\n  0x01\n    /* \"contracts/oat.sol\":5914:5948  _taxWallet = payable(_msgSender()) */\n  0x0100\n  exp\n  dup2\n  sload\n  dup2\n  0xffffffffffffffffffffffffffffffffffffffff\n  mul\n  not\n  and\n  swap1\n  dup4\n  0xffffffffffffffffffffffffffffffffffffffff\n  and\n  mul\n  or\n  swap1\n  sstore\n  pop\n    /* \"contracts/oat.sol\":5188:5190  18 */\n  0x12\n    /* \"contracts/oat.sol\":5243:5245  10 */\n  0x0a\n    /* \"contracts/oat.sol\":5243:5256  10**_decimals */\n  tag_19\n  swap2\n  swap1\n  tag_2\n  jump\t// in\ntag_19:\n    /* \"contracts/oat.sol\":5231:5240  100000000 */\n  0x05f5e100\n    /* \"contracts/oat.sol\":5231:5256  100000000 * 10**_decimals */\n  tag_20\n  swap2\n  swap1\n  tag_4\n  jump\t// in\ntag_20:\n    /* \"contracts/oat.sol\":5958:5967  _balances */\n  0x01\n    /* \"contracts/oat.sol\":5958:5981  _balances[_msgSender()] */\n  0x00\n    /* \"contracts/oat.sol\":5968:5980  _msgSender() */\n  tag_21\n    /* \"contracts/oat.sol\":5968:5978  _msgSender */\n  shl(0x20, tag_16)\n    /* \"contracts/oat.sol\":5968:5980  _msgSender() */\n  0x20\n  shr\n  jump\t// in\ntag_21:\n    /* \"contracts/oat.sol\":5958:5981  _balances[_msgSender()] */\n  0xffffffffffffffffffffffffffffffffffffffff\n  and\n  0xffffffffffffffffffffffffffffffffffffffff\n  and\n  dup2\n  mstore\n  0x20\n  add\n  swap1\n  dup2\n  mstore\n  0x20\n  add\n  0x00\n  keccak256\n    /* \"contracts/oat.sol\":5958:5991  _balances[_msgSender()] = _tTotal */\n  dup2\n  swap1\n  sstore\n  pop\n    /* \"contracts/oat.sol\":6031:6035  true */\n  0x01\n    /* \"contracts/oat.sol\":6001:6019  _isExcludedFromFee */\n  0x03\n    /* \"contracts/oat.sol\":6001:6028  _isExcludedFromFee[owner()] */\n  0x00\n    /* \"contracts/oat.sol\":6020:6027  owner() */\n  tag_22\n    /* \"contracts/oat.sol\":6020:6025  owner */\n  shl(0x20, tag_23)\n    /* \"contracts/oat.sol\":6020:6027  owner() */\n  0x20\n  shr\n  jump\t// in\ntag_22:\n    /* \"contracts/oat.sol\":6001:6028  _isExcludedFromFee[owner()] */\n  0xffffffffffffffffffffffffffffffffffffffff\n  and\n  0xffffffffffffffffffffffffffffffffffffffff\n  and\n  dup2\n  mstore\n  0x20\n  add\n  swap1\n  dup2\n  mstore\n  0x20\n  add\n  0x00\n  keccak256\n  0x00\n    /* \"contracts/oat.sol\":6001:6035  _isExcludedFromFee[owner()] = true */\n  0x0100\n  exp\n  dup2\n  sload\n  dup2\n  0xff\n  mul\n  not\n  and\n  swap1\n  dup4\n  iszero\n  iszero\n  mul\n  or\n  swap1\n  sstore\n  pop\n    /* \"contracts/oat.sol\":6081:6085  true */\n  0x01\n    /* \"contracts/oat.sol\":6045:6063  _isExcludedFromFee */\n  0x03\n    /* \"contracts/oat.sol\":6045:6078  _isExcludedFromFee[address(this)] */\n  0x00\n    /* \"contracts/oat.sol\":6072:6076  this */\n  address\n    /* \"contracts/oat.sol\":6045:6078  _isExcludedFromFee[address(this)] */\n  0xffffffffffffffffffffffffffffffffffffffff\n  and\n  0xffffffffffffffffffffffffffffffffffffffff\n  and\n  dup2\n  mstore\n  0x20\n  add\n  swap1\n  dup2\n  mstore\n  0x20\n  add\n  0x00\n  keccak256\n  0x00\n    /* \"contracts/oat.sol\":6045:6085  _isExcludedFromFee[address(this)] = true */\n  0x0100\n  exp\n  dup2\n  sload\n  dup2\n  0xff\n  mul\n  not\n  and\n  swap1\n  dup4\n  iszero\n  iszero\n  mul\n  or\n  swap1\n  sstore\n  pop\n    /* \"contracts/oat.sol\":6128:6132  true */\n  0x01\n    /* \"contracts/oat.sol\":6095:6113  _isExcludedFromFee */\n  0x03\n    /* \"contracts/oat.sol\":6095:6125  _isExcludedFromFee[_taxWallet] */\n  0x00\n    /* \"contracts/oat.sol\":6114:6124  _taxWallet */\n  0x06\n  0x01\n  swap1\n  sload\n  swap1\n  0x0100\n  exp\n  swap1\n  div\n  0xffffffffffffffffffffffffffffffffffffffff\n  and\n    /* \"contracts/oat.sol\":6095:6125  _isExcludedFromFee[_taxWallet] */\n  0xffffffffffffffffffffffffffffffffffffffff\n  and\n  0xffffffffffffffffffffffffffffffffffffffff\n  and\n  dup2\n  mstore\n  0x20\n  add\n  swap1\n  dup2\n  mstore\n  0x20\n  add\n  0x00\n  keccak256\n  0x00\n    /* \"contracts/oat.sol\":6095:6132  _isExcludedFromFee[_taxWallet] = true */\n  0x0100\n  exp\n  dup2\n  sload\n  dup2\n  0xff\n  mul\n  not\n  and\n  swap1\n  dup4\n  iszero\n  iszero\n  mul\n  or\n  swap1\n  sstore\n  pop\n    /* \"contracts/oat.sol\":6176:6180  true */\n  0x01\n    /* \"contracts/oat.sol\":6142:6160  _isExcludedFromFee */\n  0x03\n    /* \"contracts/oat.sol\":6142:6173  _isExcludedFromFee[DEAD_WALLET] */\n  0x00\n    /* \"contracts/oat.sol\":5059:5101  0x000000000000000000000000000000000000dEaD */\n  0xdead\n    /* \"contracts/oat.sol\":6142:6173  _isExcludedFromFee[DEAD_WALLET] */\n  0xffffffffffffffffffffffffffffffffffffffff\n  and\n  0xffffffffffffffffffffffffffffffffffffffff\n  and\n  dup2\n  mstore\n  0x20\n  add\n  swap1\n  dup2\n  mstore\n  0x20\n  add\n  0x00\n  keccak256\n  0x00\n    /* \"contracts/oat.sol\":6142:6180  _isExcludedFromFee[DEAD_WALLET] = true */\n  0x0100\n  exp\n  dup2\n  sload\n  dup2\n  0xff\n  mul\n  not\n  and\n  swap1\n  dup4\n  iszero\n  iszero\n  mul\n  or\n  swap1\n  sstore\n  pop\n    /* \"contracts/oat.sol\":6217:6229  _msgSender() */\n  tag_24\n    /* \"contracts/oat.sol\":6217:6227  _msgSender */\n  shl(0x20, tag_16)\n    /* \"contracts/oat.sol\":6217:6229  _msgSender() */\n  0x20\n  shr\n  jump\t// in\ntag_24:\n    /* \"contracts/oat.sol\":6196:6239  Transfer(address(0), _msgSender(), _tTotal) */\n  0xffffffffffffffffffffffffffffffffffffffff\n  and\n    /* \"contracts/oat.sol\":6213:6214  0 */\n  0x00\n    /* \"contracts/oat.sol\":6196:6239  Transfer(address(0), _msgSender(), _tTotal) */\n  0xffffffffffffffffffffffffffffffffffffffff\n  and\n  0xddf252ad1be2c89b69c2b068fc378daa952ba7f163c4a11628f55a4df523b3ef\n    /* \"contracts/oat.sol\":5188:5190  18 */\n  0x12\n    /* \"contracts/oat.sol\":5243:5245  10 */\n  0x0a\n    /* \"contracts/oat.sol\":5243:5256  10**_decimals */\n  tag_25\n  swap2\n  swap1\n  tag_2\n  jump\t// in\ntag_25:\n    /* \"contracts/oat.sol\":5231:5240  100000000 */\n  0x05f5e100\n    /* \"contracts/oat.sol\":5231:5256  100000000 * 10**_decimals */\n  tag_26\n  swap2\n  swap1\n  tag_4\n  jump\t// in\ntag_26:\n    /* \"contracts/oat.sol\":6196:6239  Transfer(address(0), _msgSender(), _tTotal) */\n  mload(0x40)\n  tag_27\n  swap2\n  swap1\n  tag_28\n  jump\t// in\ntag_27:\n  mload(0x40)\n  dup1\n  swap2\n  sub\n  swap1\n  log3\n    /* \"contracts/oat.sol\":4544:12547  contract OneAnonataTime is Context, IERC20, Ownable {... */\n  jump(tag_29)\n    /* \"contracts/oat.sol\":966:1062  function _msgSender() internal view virtual returns (address) {... */\ntag_16:\n    /* \"contracts/oat.sol\":1019:1026  address */\n  0x00\n    /* \"contracts/oat.sol\":1045:1055  msg.sender */\n  caller\n    /* \"contracts/oat.sol\":1038:1055  return msg.sender */\n  swap1\n  pop\n    /* \"contracts/oat.sol\":966:1062  function _msgSender() internal view virtual returns (address) {... */\n  swap1\n  jump\t// out\n    /* \"contracts/oat.sol\":3333:3410  function owner() public view returns (address) {... */\ntag_23:\n    /* \"contracts/oat.sol\":3371:3378  address */\n  0x00\n    /* \"contracts/oat.sol\":3397:3403  _owner */\n  dup1\n  0x00\n  swap1\n  sload\n  swap1\n  0x0100\n  exp\n  swap1\n  div\n  0xffffffffffffffffffffffffffffffffffffffff\n  and\n    /* \"contracts/oat.sol\":3390:3403  return _owner */\n  swap1\n  pop\n    /* \"contracts/oat.sol\":3333:3410  function owner() public view returns (address) {... */\n  swap1\n  jump\t// out\n    /* \"#utility.yul\":7:187   */\ntag_32:\n    /* \"#utility.yul\":55:132   */\n  0x4e487b7100000000000000000000000000000000000000000000000000000000\n    /* \"#utility.yul\":52:53   */\n  0x00\n    /* \"#utility.yul\":45:133   */\n  mstore\n    /* \"#utility.yul\":152:156   */\n  0x11\n    /* \"#utility.yul\":149:150   */\n  0x04\n    /* \"#utility.yul\":142:157   */\n  mstore\n    /* \"#utility.yul\":176:180   */\n  0x24\n    /* \"#utility.yul\":173:174   */\n  0x00\n    /* \"#utility.yul\":166:181   */\n  revert\n    /* \"#utility.yul\":193:295   */\ntag_33:\n    /* \"#utility.yul\":235:243   */\n  0x00\n    /* \"#utility.yul\":282:287   */\n  dup2\n    /* \"#utility.yul\":279:280   */\n  0x01\n    /* \"#utility.yul\":275:288   */\n  shr\n    /* \"#utility.yul\":254:288   */\n  swap1\n  pop\n    /* \"#utility.yul\":193:295   */\n  swap2\n  swap1\n  pop\n  jump\t// out\n    /* \"#utility.yul\":301:1149   */\ntag_34:\n    /* \"#utility.yul\":362:367   */\n  0x00\n    /* \"#utility.yul\":369:373   */\n  dup1\n    /* \"#utility.yul\":393:399   */\n  dup3\n    /* \"#utility.yul\":384:399   */\n  swap2\n  pop\n    /* \"#utility.yul\":417:422   */\n  dup4\n    /* \"#utility.yul\":408:422   */\n  swap1\n  pop\n    /* \"#utility.yul\":431:1143   */\ntag_43:\n    /* \"#utility.yul\":452:453   */\n  0x01\n    /* \"#utility.yul\":442:450   */\n  dup6\n    /* \"#utility.yul\":439:454   */\n  gt\n    /* \"#utility.yul\":431:1143   */\n  iszero\n  tag_45\n  jumpi\n    /* \"#utility.yul\":547:551   */\n  dup1\n    /* \"#utility.yul\":542:545   */\n  dup7\n    /* \"#utility.yul\":538:552   */\n  div\n    /* \"#utility.yul\":532:536   */\n  dup2\n    /* \"#utility.yul\":529:553   */\n  gt\n    /* \"#utility.yul\":526:576   */\n  iszero\n  tag_46\n  jumpi\n    /* \"#utility.yul\":556:574   */\n  tag_47\n  tag_32\n  jump\t// in\ntag_47:\n    /* \"#utility.yul\":526:576   */\ntag_46:\n    /* \"#utility.yul\":606:607   */\n  0x01\n    /* \"#utility.yul\":596:604   */\n  dup6\n    /* \"#utility.yul\":592:608   */\n  and\n    /* \"#utility.yul\":589:1040   */\n  iszero\n  tag_48\n  jumpi\n    /* \"#utility.yul\":1021:1025   */\n  dup1\n    /* \"#utility.yul\":1014:1019   */\n  dup3\n    /* \"#utility.yul\":1010:1026   */\n  mul\n    /* \"#utility.yul\":1001:1026   */\n  swap2\n  pop\n    /* \"#utility.yul\":589:1040   */\ntag_48:\n    /* \"#utility.yul\":1071:1075   */\n  dup1\n    /* \"#utility.yul\":1065:1069   */\n  dup2\n    /* \"#utility.yul\":1061:1076   */\n  mul\n    /* \"#utility.yul\":1053:1076   */\n  swap1\n  pop\n    /* \"#utility.yul\":1101:1133   */\n  tag_49\n    /* \"#utility.yul\":1124:1132   */\n  dup6\n    /* \"#utility.yul\":1101:1133   */\n  tag_33\n  jump\t// in\ntag_49:\n    /* \"#utility.yul\":1089:1133   */\n  swap5\n  pop\n    /* \"#utility.yul\":431:1143   */\n  jump(tag_43)\ntag_45:\n    /* \"#utility.yul\":301:1149   */\n  swap5\n  pop\n  swap5\n  swap3\n  pop\n  pop\n  pop\n  jump\t// out\n    /* \"#utility.yul\":1155:2228   */\ntag_35:\n    /* \"#utility.yul\":1209:1214   */\n  0x00\n    /* \"#utility.yul\":1400:1408   */\n  dup3\n    /* \"#utility.yul\":1390:1430   */\n  tag_51\n  jumpi\n    /* \"#utility.yul\":1421:1422   */\n  0x01\n    /* \"#utility.yul\":1412:1422   */\n  swap1\n  pop\n    /* \"#utility.yul\":1423:1428   */\n  jump(tag_50)\n    /* \"#utility.yul\":1390:1430   */\ntag_51:\n    /* \"#utility.yul\":1449:1453   */\n  dup2\n    /* \"#utility.yul\":1439:1475   */\n  tag_52\n  jumpi\n    /* \"#utility.yul\":1466:1467   */\n  0x00\n    /* \"#utility.yul\":1457:1467   */\n  swap1\n  pop\n    /* \"#utility.yul\":1468:1473   */\n  jump(tag_50)\n    /* \"#utility.yul\":1439:1475   */\ntag_52:\n    /* \"#utility.yul\":1535:1539   */\n  dup2\n    /* \"#utility.yul\":1583:1584   */\n  0x01\n    /* \"#utility.yul\":1578:1605   */\n  dup2\n  eq\n  tag_54\n  jumpi\n    /* \"#utility.yul\":1619:1620   */\n  0x02\n    /* \"#utility.yul\":1614:1805   */\n  dup2\n  eq\n  tag_55\n  jumpi\n    /* \"#utility.yul\":1528:1805   */\n  jump(tag_53)\n    /* \"#utility.yul\":1578:1605   */\ntag_54:\n    /* \"#utility.yul\":1596:1597   */\n  0x01\n    /* \"#utility.yul\":1587:1597   */\n  swap2\n  pop\n    /* \"#utility.yul\":1598:1603   */\n  pop\n  jump(tag_50)\n    /* \"#utility.yul\":1614:1805   */\ntag_55:\n    /* \"#utility.yul\":1659:1662   */\n  0xff\n    /* \"#utility.yul\":1649:1657   */\n  dup5\n    /* \"#utility.yul\":1646:1663   */\n  gt\n    /* \"#utility.yul\":1643:1686   */\n  iszero\n  tag_56\n  jumpi\n    /* \"#utility.yul\":1666:1684   */\n  tag_57\n  tag_32\n  jump\t// in\ntag_57:\n    /* \"#utility.yul\":1643:1686   */\ntag_56:\n    /* \"#utility.yul\":1715:1723   */\n  dup4\n    /* \"#utility.yul\":1712:1713   */\n  0x02\n    /* \"#utility.yul\":1708:1724   */\n  exp\n    /* \"#utility.yul\":1699:1724   */\n  swap2\n  pop\n    /* \"#utility.yul\":1750:1753   */\n  dup5\n    /* \"#utility.yul\":1743:1748   */\n  dup3\n    /* \"#utility.yul\":1740:1754   */\n  gt\n    /* \"#utility.yul\":1737:1777   */\n  iszero\n  tag_58\n  jumpi\n    /* \"#utility.yul\":1757:1775   */\n  tag_59\n  tag_32\n  jump\t// in\ntag_59:\n    /* \"#utility.yul\":1737:1777   */\ntag_58:\n    /* \"#utility.yul\":1790:1795   */\n  pop\n  jump(tag_50)\n    /* \"#utility.yul\":1528:1805   */\ntag_53:\n  pop\n    /* \"#utility.yul\":1914:1916   */\n  0x20\n    /* \"#utility.yul\":1904:1912   */\n  dup4\n    /* \"#utility.yul\":1901:1917   */\n  lt\n    /* \"#utility.yul\":1895:1898   */\n  0x0133\n    /* \"#utility.yul\":1889:1893   */\n  dup4\n    /* \"#utility.yul\":1886:1899   */\n  lt\n    /* \"#utility.yul\":1882:1918   */\n  and\n    /* \"#utility.yul\":1864:1866   */\n  0x4e\n    /* \"#utility.yul\":1854:1862   */\n  dup5\n    /* \"#utility.yul\":1851:1867   */\n  lt\n    /* \"#utility.yul\":1846:1848   */\n  0x0b\n    /* \"#utility.yul\":1840:1844   */\n  dup5\n    /* \"#utility.yul\":1837:1849   */\n  lt\n    /* \"#utility.yul\":1833:1868   */\n  and\n    /* \"#utility.yul\":1817:1928   */\n  or\n    /* \"#utility.yul\":1814:2060   */\n  iszero\n  tag_60\n  jumpi\n    /* \"#utility.yul\":1970:1978   */\n  dup3\n    /* \"#utility.yul\":1964:1968   */\n  dup3\n    /* \"#utility.yul\":1960:1979   */\n  exp\n    /* \"#utility.yul\":1951:1979   */\n  swap1\n  pop\n    /* \"#utility.yul\":2005:2008   */\n  dup4\n    /* \"#utility.yul\":1998:2003   */\n  dup2\n    /* \"#utility.yul\":1995:2009   */\n  gt\n    /* \"#utility.yul\":1992:2032   */\n  iszero\n  tag_61\n  jumpi\n    /* \"#utility.yul\":2012:2030   */\n  tag_62\n  tag_32\n  jump\t// in\ntag_62:\n    /* \"#utility.yul\":1992:2032   */\ntag_61:\n    /* \"#utility.yul\":2045:2050   */\n  jump(tag_50)\n    /* \"#utility.yul\":1814:2060   */\ntag_60:\n    /* \"#utility.yul\":2085:2127   */\n  tag_63\n    /* \"#utility.yul\":2123:2126   */\n  dup5\n    /* \"#utility.yul\":2113:2121   */\n  dup5\n    /* \"#utility.yul\":2107:2111   */\n  dup5\n    /* \"#utility.yul\":2104:2105   */\n  0x01\n    /* \"#utility.yul\":2085:2127   */\n  tag_34\n  jump\t// in\ntag_63:\n    /* \"#utility.yul\":2070:2127   */\n  swap3\n  pop\n  swap1\n  pop\n    /* \"#utility.yul\":2159:2163   */\n  dup2\n    /* \"#utility.yul\":2154:2157   */\n  dup5\n    /* \"#utility.yul\":2150:2164   */\n  div\n    /* \"#utility.yul\":2143:2148   */\n  dup2\n    /* \"#utility.yul\":2140:2165   */\n  gt\n    /* \"#utility.yul\":2137:2188   */\n  iszero\n  tag_64\n  jumpi\n    /* \"#utility.yul\":2168:2186   */\n  tag_65\n  tag_32\n  jump\t// in\ntag_65:\n    /* \"#utility.yul\":2137:2188   */\ntag_64:\n    /* \"#utility.yul\":2217:2221   */\n  dup2\n    /* \"#utility.yul\":2210:2215   */\n  dup2\n    /* \"#utility.yul\":2206:2222   */\n  mul\n    /* \"#utility.yul\":2197:2222   */\n  swap1\n  pop\n    /* \"#utility.yul\":1155:2228   */\ntag_50:\n  swap4\n  swap3\n  pop\n  pop\n  pop\n  jump\t// out\n    /* \"#utility.yul\":2234:2311   */\ntag_36:\n    /* \"#utility.yul\":2271:2278   */\n  0x00\n    /* \"#utility.yul\":2300:2305   */\n  dup2\n    /* \"#utility.yul\":2289:2305   */\n  swap1\n  pop\n    /* \"#utility.yul\":2234:2311   */\n  swap2\n  swap1\n  pop\n  jump\t// out\n    /* \"#utility.yul\":2317:2403   */\ntag_37:\n    /* \"#utility.yul\":2352:2359   */\n  0x00\n    /* \"#utility.yul\":2392:2396   */\n  0xff\n    /* \"#utility.yul\":2385:2390   */\n  dup3\n    /* \"#utility.yul\":2381:2397   */\n  and\n    /* \"#utility.yul\":2370:2397   */\n  swap1\n  pop\n    /* \"#utility.yul\":2317:2403   */\n  swap2\n  swap1\n  pop\n  jump\t// out\n    /* \"#utility.yul\":2409:2690   */\ntag_2:\n    /* \"#utility.yul\":2467:2472   */\n  0x00\n    /* \"#utility.yul\":2491:2514   */\n  tag_69\n    /* \"#utility.yul\":2509:2513   */\n  dup3\n    /* \"#utility.yul\":2491:2514   */\n  tag_36\n  jump\t// in\ntag_69:\n    /* \"#utility.yul\":2483:2514   */\n  swap2\n  pop\n    /* \"#utility.yul\":2535:2560   */\n  tag_70\n    /* \"#utility.yul\":2551:2559   */\n  dup4\n    /* \"#utility.yul\":2535:2560   */\n  tag_37\n  jump\t// in\ntag_70:\n    /* \"#utility.yul\":2523:2560   */\n  swap3\n  pop\n    /* \"#utility.yul\":2579:2683   */\n  tag_71\n    /* \"#utility.yul\":2616:2682   */\n  0xffffffffffffffffffffffffffffffffffffffffffffffffffffffffffffffff\n    /* \"#utility.yul\":2606:2614   */\n  dup5\n    /* \"#utility.yul\":2600:2604   */\n  dup5\n    /* \"#utility.yul\":2579:2683   */\n  tag_35\n  jump\t// in\ntag_71:\n    /* \"#utility.yul\":2570:2683   */\n  swap1\n  pop\n    /* \"#utility.yul\":2409:2690   */\n  swap3\n  swap2\n  pop\n  pop\n  jump\t// out\n    /* \"#utility.yul\":2696:3106   */\ntag_4:\n    /* \"#utility.yul\":2736:2743   */\n  0x00\n    /* \"#utility.yul\":2759:2779   */\n  tag_73\n    /* \"#utility.yul\":2777:2778   */\n  dup3\n    /* \"#utility.yul\":2759:2779   */\n  tag_36\n  jump\t// in\ntag_73:\n    /* \"#utility.yul\":2754:2779   */\n  swap2\n  pop\n    /* \"#utility.yul\":2793:2813   */\n  tag_74\n    /* \"#utility.yul\":2811:2812   */\n  dup4\n    /* \"#utility.yul\":2793:2813   */\n  tag_36\n  jump\t// in\ntag_74:\n    /* \"#utility.yul\":2788:2813   */\n  swap3\n  pop\n    /* \"#utility.yul\":2848:2849   */\n  dup3\n    /* \"#utility.yul\":2845:2846   */\n  dup3\n    /* \"#utility.yul\":2841:2850   */\n  mul\n    /* \"#utility.yul\":2870:2900   */\n  tag_75\n    /* \"#utility.yul\":2888:2899   */\n  dup2\n    /* \"#utility.yul\":2870:2900   */\n  tag_36\n  jump\t// in\ntag_75:\n    /* \"#utility.yul\":2859:2900   */\n  swap2\n  pop\n    /* \"#utility.yul\":3049:3050   */\n  dup3\n    /* \"#utility.yul\":3040:3047   */\n  dup3\n    /* \"#utility.yul\":3036:3051   */\n  div\n    /* \"#utility.yul\":3033:3034   */\n  dup5\n    /* \"#utility.yul\":3030:3052   */\n  eq\n    /* \"#utility.yul\":3010:3011   */\n  dup4\n    /* \"#utility.yul\":3003:3012   */\n  iszero\n    /* \"#utility.yul\":2983:3066   */\n  or\n    /* \"#utility.yul\":2960:3099   */\n  tag_76\n  jumpi\n    /* \"#utility.yul\":3079:3097   */\n  tag_77\n  tag_32\n  jump\t// in\ntag_77:\n    /* \"#utility.yul\":2960:3099   */\ntag_76:\n    /* \"#utility.yul\":2744:3106   */\n  pop\n    /* \"#utility.yul\":2696:3106   */\n  swap3\n  swap2\n  pop\n  pop\n  jump\t// out\n    /* \"#utility.yul\":3112:3230   */\ntag_38:\n    /* \"#utility.yul\":3199:3223   */\n  tag_79\n    /* \"#utility.yul\":3217:3222   */\n  dup2\n    /* \"#utility.yul\":3199:3223   */\n  tag_36\n  jump\t// in\ntag_79:\n    /* \"#utility.yul\":3194:3197   */\n  dup3\n    /* \"#utility.yul\":3187:3224   */\n  mstore\n    /* \"#utility.yul\":3112:3230   */\n  pop\n  pop\n  jump\t// out\n    /* \"#utility.yul\":3236:3458   */\ntag_28:\n    /* \"#utility.yul\":3329:3333   */\n  0x00\n    /* \"#utility.yul\":3367:3369   */\n  0x20\n    /* \"#utility.yul\":3356:3365   */\n  dup3\n    /* \"#utility.yul\":3352:3370   */\n  add\n    /* \"#utility.yul\":3344:3370   */\n  swap1\n  pop\n    /* \"#utility.yul\":3380:3451   */\n  tag_81\n    /* \"#utility.yul\":3448:3449   */\n  0x00\n    /* \"#utility.yul\":3437:3446   */\n  dup4\n    /* \"#utility.yul\":3433:3450   */\n  add\n    /* \"#utility.yul\":3424:3430   */\n  dup5\n    /* \"#utility.yul\":3380:3451   */\n  tag_38\n  jump\t// in\ntag_81:\n    /* \"#utility.yul\":3236:3458   */\n  swap3\n  swap2\n  pop\n  pop\n  jump\t// out\n    /* \"contracts/oat.sol\":4544:12547  contract OneAnonataTime is Context, IERC20, Ownable {... */\ntag_29:\n  dataSize(sub_0)\n  dup1\n  dataOffset(sub_0)\n  0x00\n  codecopy\n  0x00\n  return\nstop\n\nsub_0: assembly {\n        /* \"contracts/oat.sol\":4544:12547  contract OneAnonataTime is Context, IERC20, Ownable {... */\n      mstore(0x40, 0x80)\n      jumpi(tag_1, lt(calldatasize, 0x04))\n      shr(0xe0, calldataload(0x00))\n      dup1\n      0x7d1db4a5\n      gt\n      tag_22\n      jumpi\n      dup1\n      0xa9059cbb\n      gt\n      tag_23\n      jumpi\n      dup1\n      0xa9059cbb\n      eq\n      tag_17\n      jumpi\n      dup1\n      0xbf474bed\n      eq\n      tag_18\n      jumpi\n      dup1\n      0xc876d0b9\n      eq\n      tag_19\n      jumpi\n      dup1\n      0xc9567bf9\n      eq\n      tag_20\n      jumpi\n      dup1\n      0xdd62ed3e\n      eq\n      tag_21\n      jumpi\n      jump(tag_2)\n    tag_23:\n      dup1\n      0x7d1db4a5\n      eq\n      tag_12\n      jumpi\n      dup1\n      0x8da5cb5b\n      eq\n      tag_13\n      jumpi\n      dup1\n      0x8f9a55c0\n      eq\n      tag_14\n      jumpi\n      dup1\n      0x95d89b41\n      eq\n      tag_15\n      jumpi\n      dup1\n      0xa01c3483\n      eq\n      tag_16\n      jumpi\n      jump(tag_2)\n    tag_22:\n      dup1\n      0x23b872dd\n      gt\n      tag_24\n      jumpi\n      dup1\n      0x23b872dd\n      eq\n      tag_7\n      jumpi\n      dup1\n      0x313ce567\n      eq\n      tag_8\n      jumpi\n      dup1\n      0x51bc3c85\n      eq\n      tag_9\n      jumpi\n      dup1\n      0x70a08231\n      eq\n      tag_10\n      jumpi\n      dup1\n      0x715018a6\n      eq\n      tag_11\n      jumpi\n      jump(tag_2)\n    tag_24:\n      dup1\n      0x06fdde03\n      eq\n      tag_3\n      jumpi\n      dup1\n      0x095ea7b3\n      eq\n      tag_4\n      jumpi\n      dup1\n      0x0faee56f\n      eq\n      tag_5\n      jumpi\n      dup1\n      0x18160ddd\n      eq\n      tag_6\n      jumpi\n      jump(tag_2)\n    tag_1:\n      jumpi(tag_2, calldatasize)\n      stop\n    tag_2:\n      0x00\n      dup1\n      revert\n        /* \"contracts/oat.sol\":6252:6333  function name() public pure returns (string memory) {... */\n    tag_3:\n      callvalue\n      dup1\n      iszero\n      tag_27\n      jumpi\n      0x00\n      dup1\n      revert\n    tag_27:\n      pop\n      tag_28\n      tag_29\n      jump\t// in\n    tag_28:\n      mload(0x40)\n      tag_30\n      swap2\n      swap1\n      tag_31\n      jump\t// in\n    tag_30:\n      mload(0x40)\n      dup1\n      swap2\n      sub\n      swap1\n      return\n        /* \"contracts/oat.sol\":7120:7306  function approve(address spender, uint256 amount)... */\n    tag_4:\n      callvalue\n      dup1\n      iszero\n      tag_32\n      jumpi\n      0x00\n      dup1\n      revert\n    tag_32:\n      pop\n      tag_33\n      0x04\n      dup1\n      calldatasize\n      sub\n      dup2\n      add\n      swap1\n      tag_34\n      swap2\n      swap1\n      tag_35\n      jump\t// in\n    tag_34:\n      tag_36\n      jump\t// in\n    tag_33:\n      mload(0x40)\n      tag_37\n      swap2\n      swap1\n      tag_38\n      jump\t// in\n    tag_37:\n      mload(0x40)\n      dup1\n      swap2\n      sub\n      swap1\n      return\n        /* \"contracts/oat.sol\":5553:5604  uint256 public _maxTaxSwap = 300000 * 10**_decimals */\n    tag_5:\n      callvalue\n      dup1\n      iszero\n      tag_39\n      jumpi\n      0x00\n      dup1\n      revert\n    tag_39:\n      pop\n      tag_40\n      tag_41\n      jump\t// in\n    tag_40:\n      mload(0x40)\n      tag_42\n      swap2\n      swap1\n      tag_43\n      jump\t// in\n    tag_42:\n      mload(0x40)\n      dup1\n      swap2\n      sub\n      swap1\n      return\n        /* \"contracts/oat.sol\":6517:6610  function totalSupply() public pure override returns (uint256) {... */\n    tag_6:\n      callvalue\n      dup1\n      iszero\n      tag_44\n      jumpi\n      0x00\n      dup1\n      revert\n    tag_44:\n      pop\n      tag_45\n      tag_46\n      jump\t// in\n    tag_45:\n      mload(0x40)\n      tag_47\n      swap2\n      swap1\n      tag_43\n      jump\t// in\n    tag_47:\n      mload(0x40)\n      dup1\n      swap2\n      sub\n      swap1\n      return\n        /* \"contracts/oat.sol\":7312:7743  function transferFrom(... */\n    tag_7:\n      callvalue\n      dup1\n      iszero\n      tag_48\n      jumpi\n      0x00\n      dup1\n      revert\n    tag_48:\n      pop\n      tag_49\n      0x04\n      dup1\n      calldatasize\n      sub\n      dup2\n      add\n      swap1\n      tag_50\n      swap2\n      swap1\n      tag_51\n      jump\t// in\n    tag_50:\n      tag_52\n      jump\t// in\n    tag_49:\n      mload(0x40)\n      tag_53\n      swap2\n      swap1\n      tag_38\n      jump\t// in\n    tag_53:\n      mload(0x40)\n      dup1\n      swap2\n      sub\n      swap1\n      return\n        /* \"contracts/oat.sol\":6430:6511  function decimals() public pure returns (uint8) {... */\n    tag_8:\n      callvalue\n      dup1\n      iszero\n      tag_54\n      jumpi\n      0x00\n      dup1\n      revert\n    tag_54:\n      pop\n      tag_55\n      tag_56\n      jump\t// in\n    tag_55:\n      mload(0x40)\n      tag_57\n      swap2\n      swap1\n      tag_58\n      jump\t// in\n    tag_57:\n      mload(0x40)\n      dup1\n      swap2\n      sub\n      swap1\n      return\n        /* \"contracts/oat.sol\":12189:12545  function manualSwap() external {... */\n    tag_9:\n      callvalue\n      dup1\n      iszero\n      tag_59\n      jumpi\n      0x00\n      dup1\n      revert\n    tag_59:\n      pop\n      tag_60\n      tag_61\n      jump\t// in\n    tag_60:\n      stop\n        /* \"contracts/oat.sol\":6616:6733  function balanceOf(address account) public view override returns (uint256) {... */\n    tag_10:\n      callvalue\n      dup1\n      iszero\n      tag_62\n      jumpi\n      0x00\n      dup1\n      revert\n    tag_62:\n      pop\n      tag_63\n      0x04\n      dup1\n      calldatasize\n      sub\n      dup2\n      add\n      swap1\n      tag_64\n      swap2\n      swap1\n      tag_65\n      jump\t// in\n    tag_64:\n      tag_66\n      jump\t// in\n    tag_63:\n      mload(0x40)\n      tag_67\n      swap2\n      swap1\n      tag_43\n      jump\t// in\n    tag_67:\n      mload(0x40)\n      dup1\n      swap2\n      sub\n      swap1\n      return\n        /* \"contracts/oat.sol\":3538:3683  function renounceOwnership() public virtual onlyOwner {... */\n    tag_11:\n      callvalue\n      dup1\n      iszero\n      tag_68\n      jumpi\n      0x00\n      dup1\n      revert\n    tag_68:\n      pop\n      tag_69\n      tag_70\n      jump\t// in\n    tag_69:\n      stop\n        /* \"contracts/oat.sol\":5370:5423  uint256 public _maxTxAmount = 1000000 * 10**_decimals */\n    tag_12:\n      callvalue\n      dup1\n      iszero\n      tag_71\n      jumpi\n      0x00\n      dup1\n      revert\n    tag_71:\n      pop\n      tag_72\n      tag_73\n      jump\t// in\n    tag_72:\n      mload(0x40)\n      tag_74\n      swap2\n      swap1\n      tag_43\n      jump\t// in\n    tag_74:\n      mload(0x40)\n      dup1\n      swap2\n      sub\n      swap1\n      return\n        /* \"contracts/oat.sol\":3333:3410  function owner() public view returns (address) {... */\n    tag_13:\n      callvalue\n      dup1\n      iszero\n      tag_75\n      jumpi\n      0x00\n      dup1\n      revert\n    tag_75:\n      pop\n      tag_76\n      tag_77\n      jump\t// in\n    tag_76:\n      mload(0x40)\n      tag_78\n      swap2\n      swap1\n      tag_79\n      jump\t// in\n    tag_78:\n      mload(0x40)\n      dup1\n      swap2\n      sub\n      swap1\n      return\n        /* \"contracts/oat.sol\":5429:5484  uint256 public _maxWalletSize = 1000000 * 10**_decimals */\n    tag_14:\n      callvalue\n      dup1\n      iszero\n      tag_80\n      jumpi\n      0x00\n      dup1\n      revert\n    tag_80:\n      pop\n      tag_81\n      tag_82\n      jump\t// in\n    tag_81:\n      mload(0x40)\n      tag_83\n      swap2\n      swap1\n      tag_43\n      jump\t// in\n    tag_83:\n      mload(0x40)\n      dup1\n      swap2\n      sub\n      swap1\n      return\n        /* \"contracts/oat.sol\":6339:6424  function symbol() public pure returns (string memory) {... */\n    tag_15:\n      callvalue\n      dup1\n      iszero\n      tag_84\n      jumpi\n      0x00\n      dup1\n      revert\n    tag_84:\n      pop\n      tag_85\n      tag_86\n      jump\t// in\n    tag_85:\n      mload(0x40)\n      tag_87\n      swap2\n      swap1\n      tag_31\n      jump\t// in\n    tag_87:\n      mload(0x40)\n      dup1\n      swap2\n      sub\n      swap1\n      return\n        /* \"contracts/oat.sol\":5013:5101  address public constant DEAD_WALLET =... */\n    tag_16:\n      callvalue\n      dup1\n      iszero\n      tag_88\n      jumpi\n      0x00\n      dup1\n      revert\n    tag_88:\n      pop\n      tag_89\n      tag_90\n      jump\t// in\n    tag_89:\n      mload(0x40)\n      tag_91\n      swap2\n      swap1\n      tag_79\n      jump\t// in\n    tag_91:\n      mload(0x40)\n      dup1\n      swap2\n      sub\n      swap1\n      return\n        /* \"contracts/oat.sol\":6739:6931  function transfer(address recipient, uint256 amount)... */\n    tag_17:\n      callvalue\n      dup1\n      iszero\n      tag_92\n      jumpi\n      0x00\n      dup1\n      revert\n    tag_92:\n      pop\n      tag_93\n      0x04\n      dup1\n      calldatasize\n      sub\n      dup2\n      add\n      swap1\n      tag_94\n      swap2\n      swap1\n      tag_35\n      jump\t// in\n    tag_94:\n      tag_95\n      jump\t// in\n    tag_93:\n      mload(0x40)\n      tag_96\n      swap2\n      swap1\n      tag_38\n      jump\t// in\n    tag_96:\n      mload(0x40)\n      dup1\n      swap2\n      sub\n      swap1\n      return\n        /* \"contracts/oat.sol\":5490:5547  uint256 public _taxSwapThreshold = 100000 * 10**_decimals */\n    tag_18:\n      callvalue\n      dup1\n      iszero\n      tag_97\n      jumpi\n      0x00\n      dup1\n      revert\n    tag_97:\n      pop\n      tag_98\n      tag_99\n      jump\t// in\n    tag_98:\n      mload(0x40)\n      tag_100\n      swap2\n      swap1\n      tag_43\n      jump\t// in\n    tag_100:\n      mload(0x40)\n      dup1\n      swap2\n      sub\n      swap1\n      return\n        /* \"contracts/oat.sol\":4928:4967  bool public transferDelayEnabled = true */\n    tag_19:\n      callvalue\n      dup1\n      iszero\n      tag_101\n      jumpi\n      0x00\n      dup1\n      revert\n    tag_101:\n      pop\n      tag_102\n      tag_103\n      jump\t// in\n    tag_102:\n      mload(0x40)\n      tag_104\n      swap2\n      swap1\n      tag_38\n      jump\t// in\n    tag_104:\n      mload(0x40)\n      dup1\n      swap2\n      sub\n      swap1\n      return\n        /* \"contracts/oat.sol\":11307:12148  function openTrading() external onlyOwner {... */\n    tag_20:\n      callvalue\n      dup1\n      iszero\n      tag_105\n      jumpi\n      0x00\n      dup1\n      revert\n    tag_105:\n      pop\n      tag_106\n      tag_107\n      jump\t// in\n    tag_106:\n      stop\n        /* \"contracts/oat.sol\":6937:7114  function allowance(address owner, address spender)... */\n    tag_21:\n      callvalue\n      dup1\n      iszero\n      tag_108\n      jumpi\n      0x00\n      dup1\n      revert\n    tag_108:\n      pop\n      tag_109\n      0x04\n      dup1\n      calldatasize\n      sub\n      dup2\n      add\n      swap1\n      tag_110\n      swap2\n      swap1\n      tag_111\n      jump\t// in\n    tag_110:\n      tag_112\n      jump\t// in\n    tag_109:\n      mload(0x40)\n      tag_113\n      swap2\n      swap1\n      tag_43\n      jump\t// in\n    tag_113:\n      mload(0x40)\n      dup1\n      swap2\n      sub\n      swap1\n      return\n        /* \"contracts/oat.sol\":6252:6333  function name() public pure returns (string memory) {... */\n    tag_29:\n        /* \"contracts/oat.sol\":6289:6302  string memory */\n      0x60\n        /* \"contracts/oat.sol\":6321:6326  _name */\n      mload(0x40)\n      dup1\n      0x40\n      add\n      0x40\n      mstore\n      dup1\n      0x08\n      dup2\n      mstore\n      0x20\n      add\n      0x4f6e6520416e6f6e000000000000000000000000000000000000000000000000\n      dup2\n      mstore\n      pop\n        /* \"contracts/oat.sol\":6314:6326  return _name */\n      swap1\n      pop\n        /* \"contracts/oat.sol\":6252:6333  function name() public pure returns (string memory) {... */\n      swap1\n      jump\t// out\n        /* \"contracts/oat.sol\":7120:7306  function approve(address spender, uint256 amount)... */\n    tag_36:\n        /* \"contracts/oat.sol\":7219:7223  bool */\n      0x00\n        /* \"contracts/oat.sol\":7239:7278  _approve(_msgSender(), spender, amount) */\n      tag_116\n        /* \"contracts/oat.sol\":7248:7260  _msgSender() */\n      tag_117\n        /* \"contracts/oat.sol\":7248:7258  _msgSender */\n      tag_118\n        /* \"contracts/oat.sol\":7248:7260  _msgSender() */\n      jump\t// in\n    tag_117:\n        /* \"contracts/oat.sol\":7262:7269  spender */\n      dup5\n        /* \"contracts/oat.sol\":7271:7277  amount */\n      dup5\n        /* \"contracts/oat.sol\":7239:7247  _approve */\n      tag_119\n        /* \"contracts/oat.sol\":7239:7278  _approve(_msgSender(), spender, amount) */\n      jump\t// in\n    tag_116:\n        /* \"contracts/oat.sol\":7295:7299  true */\n      0x01\n        /* \"contracts/oat.sol\":7288:7299  return true */\n      swap1\n      pop\n        /* \"contracts/oat.sol\":7120:7306  function approve(address spender, uint256 amount)... */\n      swap3\n      swap2\n      pop\n      pop\n      jump\t// out\n        /* \"contracts/oat.sol\":5553:5604  uint256 public _maxTaxSwap = 300000 * 10**_decimals */\n    tag_41:\n      sload(0x0a)\n      dup2\n      jump\t// out\n        /* \"contracts/oat.sol\":6517:6610  function totalSupply() public pure override returns (uint256) {... */\n    tag_46:\n        /* \"contracts/oat.sol\":6570:6577  uint256 */\n      0x00\n        /* \"contracts/oat.sol\":5188:5190  18 */\n      0x12\n        /* \"contracts/oat.sol\":5243:5245  10 */\n      0x0a\n        /* \"contracts/oat.sol\":5243:5256  10**_decimals */\n      tag_121\n      swap2\n      swap1\n      tag_122\n      jump\t// in\n    tag_121:\n        /* \"contracts/oat.sol\":5231:5240  100000000 */\n      0x05f5e100\n        /* \"contracts/oat.sol\":5231:5256  100000000 * 10**_decimals */\n      tag_123\n      swap2\n      swap1\n      tag_124\n      jump\t// in\n    tag_123:\n        /* \"contracts/oat.sol\":6589:6603  return _tTotal */\n      swap1\n      pop\n        /* \"contracts/oat.sol\":6517:6610  function totalSupply() public pure override returns (uint256) {... */\n      swap1\n      jump\t// out\n        /* \"contracts/oat.sol\":7312:7743  function transferFrom(... */\n    tag_52:\n        /* \"contracts/oat.sol\":7440:7444  bool */\n      0x00\n        /* \"contracts/oat.sol\":7456:7492  _transfer(sender, recipient, amount) */\n      tag_126\n        /* \"contracts/oat.sol\":7466:7472  sender */\n      dup5\n        /* \"contracts/oat.sol\":7474:7483  recipient */\n      dup5\n        /* \"contracts/oat.sol\":7485:7491  amount */\n      dup5\n        /* \"contracts/oat.sol\":7456:7465  _transfer */\n      tag_127\n        /* \"contracts/oat.sol\":7456:7492  _transfer(sender, recipient, amount) */\n      jump\t// in\n    tag_126:\n        /* \"contracts/oat.sol\":7502:7715  _approve(... */\n      tag_128\n        /* \"contracts/oat.sol\":7524:7530  sender */\n      dup5\n        /* \"contracts/oat.sol\":7544:7556  _msgSender() */\n      tag_129\n        /* \"contracts/oat.sol\":7544:7554  _msgSender */\n      tag_118\n        /* \"contracts/oat.sol\":7544:7556  _msgSender() */\n      jump\t// in\n    tag_129:\n        /* \"contracts/oat.sol\":7570:7705  _allowances[sender][_msgSender()].sub(... */\n      tag_130\n        /* \"contracts/oat.sol\":7625:7631  amount */\n      dup6\n        /* \"contracts/oat.sol\":7570:7705  _allowances[sender][_msgSender()].sub(... */\n      mload(0x40)\n      dup1\n      0x60\n      add\n      0x40\n      mstore\n      dup1\n      0x28\n      dup2\n      mstore\n      0x20\n      add\n      data_974d1b4421da69cc60b481194f0dad36a5bb4e23da810da7a7fb30cdba178330\n      0x28\n      swap2\n      codecopy\n        /* \"contracts/oat.sol\":7570:7581  _allowances */\n      0x02\n        /* \"contracts/oat.sol\":7570:7589  _allowances[sender] */\n      0x00\n        /* \"contracts/oat.sol\":7582:7588  sender */\n      dup12\n        /* \"contracts/oat.sol\":7570:7589  _allowances[sender] */\n      0xffffffffffffffffffffffffffffffffffffffff\n      and\n      0xffffffffffffffffffffffffffffffffffffffff\n      and\n      dup2\n      mstore\n      0x20\n      add\n      swap1\n      dup2\n      mstore\n      0x20\n      add\n      0x00\n      keccak256\n        /* \"contracts/oat.sol\":7570:7603  _allowances[sender][_msgSender()] */\n      0x00\n        /* \"contracts/oat.sol\":7590:7602  _msgSender() */\n      tag_131\n        /* \"contracts/oat.sol\":7590:7600  _msgSender */\n      tag_118\n        /* \"contracts/oat.sol\":7590:7602  _msgSender() */\n      jump\t// in\n    tag_131:\n        /* \"contracts/oat.sol\":7570:7603  _allowances[sender][_msgSender()] */\n      0xffffffffffffffffffffffffffffffffffffffff\n      and\n      0xffffffffffffffffffffffffffffffffffffffff\n      and\n      dup2\n      mstore\n      0x20\n      add\n      swap1\n      dup2\n      mstore\n      0x20\n      add\n      0x00\n      keccak256\n      sload\n        /* \"contracts/oat.sol\":7570:7607  _allowances[sender][_msgSender()].sub */\n      tag_132\n      swap1\n        /* \"contracts/oat.sol\":7570:7705  _allowances[sender][_msgSender()].sub(... */\n      swap3\n      swap2\n      swap1\n      0xffffffff\n      and\n      jump\t// in\n    tag_130:\n        /* \"contracts/oat.sol\":7502:7510  _approve */\n      tag_119\n        /* \"contracts/oat.sol\":7502:7715  _approve(... */\n      jump\t// in\n    tag_128:\n        /* \"contracts/oat.sol\":7732:7736  true */\n      0x01\n        /* \"contracts/oat.sol\":7725:7736  return true */\n      swap1\n      pop\n        /* \"contracts/oat.sol\":7312:7743  function transferFrom(... */\n      swap4\n      swap3\n      pop\n      pop\n      pop\n      jump\t// out\n        /* \"contracts/oat.sol\":6430:6511  function decimals() public pure returns (uint8) {... */\n    tag_56:\n        /* \"contracts/oat.sol\":6471:6476  uint8 */\n      0x00\n        /* \"contracts/oat.sol\":5188:5190  18 */\n      0x12\n        /* \"contracts/oat.sol\":6488:6504  return _decimals */\n      swap1\n      pop\n        /* \"contracts/oat.sol\":6430:6511  function decimals() public pure returns (uint8) {... */\n      swap1\n      jump\t// out\n        /* \"contracts/oat.sol\":12189:12545  function manualSwap() external {... */\n    tag_61:\n        /* \"contracts/oat.sol\":12254:12264  _taxWallet */\n      0x06\n      0x01\n      swap1\n      sload\n      swap1\n      0x0100\n      exp\n      swap1\n      div\n      0xffffffffffffffffffffffffffffffffffffffff\n      and\n        /* \"contracts/oat.sol\":12238:12264  _msgSender() == _taxWallet */\n      0xffffffffffffffffffffffffffffffffffffffff\n      and\n        /* \"contracts/oat.sol\":12238:12250  _msgSender() */\n      tag_135\n        /* \"contracts/oat.sol\":12238:12248  _msgSender */\n      tag_118\n        /* \"contracts/oat.sol\":12238:12250  _msgSender() */\n      jump\t// in\n    tag_135:\n        /* \"contracts/oat.sol\":12238:12264  _msgSender() == _taxWallet */\n      0xffffffffffffffffffffffffffffffffffffffff\n      and\n      eq\n        /* \"contracts/oat.sol\":12230:12265  require(_msgSender() == _taxWallet) */\n      tag_136\n      jumpi\n      0x00\n      dup1\n      revert\n    tag_136:\n        /* \"contracts/oat.sol\":12275:12295  uint256 tokenBalance */\n      0x00\n        /* \"contracts/oat.sol\":12298:12322  balanceOf(address(this)) */\n      tag_137\n        /* \"contracts/oat.sol\":12316:12320  this */\n      address\n        /* \"contracts/oat.sol\":12298:12307  balanceOf */\n      tag_66\n        /* \"contracts/oat.sol\":12298:12322  balanceOf(address(this)) */\n      jump\t// in\n    tag_137:\n        /* \"contracts/oat.sol\":12275:12322  uint256 tokenBalance = balanceOf(address(this)) */\n      swap1\n      pop\n        /* \"contracts/oat.sol\":12351:12352  0 */\n      0x00\n        /* \"contracts/oat.sol\":12336:12348  tokenBalance */\n      dup2\n        /* \"contracts/oat.sol\":12336:12352  tokenBalance > 0 */\n      gt\n        /* \"contracts/oat.sol\":12332:12409  if (tokenBalance > 0) {... */\n      iszero\n      tag_138\n      jumpi\n        /* \"contracts/oat.sol\":12368:12398  swapTokensForEth(tokenBalance) */\n      tag_139\n        /* \"contracts/oat.sol\":12385:12397  tokenBalance */\n      dup2\n        /* \"contracts/oat.sol\":12368:12384  swapTokensForEth */\n      tag_140\n        /* \"contracts/oat.sol\":12368:12398  swapTokensForEth(tokenBalance) */\n      jump\t// in\n    tag_139:\n        /* \"contracts/oat.sol\":12332:12409  if (tokenBalance > 0) {... */\n    tag_138:\n        /* \"contracts/oat.sol\":12418:12436  uint256 ethBalance */\n      0x00\n        /* \"contracts/oat.sol\":12439:12460  address(this).balance */\n      selfbalance\n        /* \"contracts/oat.sol\":12418:12460  uint256 ethBalance = address(this).balance */\n      swap1\n      pop\n        /* \"contracts/oat.sol\":12487:12488  0 */\n      0x00\n        /* \"contracts/oat.sol\":12474:12484  ethBalance */\n      dup2\n        /* \"contracts/oat.sol\":12474:12488  ethBalance > 0 */\n      gt\n        /* \"contracts/oat.sol\":12470:12539  if (ethBalance > 0) {... */\n      iszero\n      tag_141\n      jumpi\n        /* \"contracts/oat.sol\":12504:12528  sendETHToFee(ethBalance) */\n      tag_142\n        /* \"contracts/oat.sol\":12517:12527  ethBalance */\n      dup2\n        /* \"contracts/oat.sol\":12504:12516  sendETHToFee */\n      tag_143\n        /* \"contracts/oat.sol\":12504:12528  sendETHToFee(ethBalance) */\n      jump\t// in\n    tag_142:\n        /* \"contracts/oat.sol\":12470:12539  if (ethBalance > 0) {... */\n    tag_141:\n        /* \"contracts/oat.sol\":12220:12545  {... */\n      pop\n      pop\n        /* \"contracts/oat.sol\":12189:12545  function manualSwap() external {... */\n      jump\t// out\n        /* \"contracts/oat.sol\":6616:6733  function balanceOf(address account) public view override returns (uint256) {... */\n    tag_66:\n        /* \"contracts/oat.sol\":6682:6689  uint256 */\n      0x00\n        /* \"contracts/oat.sol\":6708:6717  _balances */\n      0x01\n        /* \"contracts/oat.sol\":6708:6726  _balances[account] */\n      0x00\n        /* \"contracts/oat.sol\":6718:6725  account */\n      dup4\n        /* \"contracts/oat.sol\":6708:6726  _balances[account] */\n      0xffffffffffffffffffffffffffffffffffffffff\n      and\n      0xffffffffffffffffffffffffffffffffffffffff\n      and\n      dup2\n      mstore\n      0x20\n      add\n      swap1\n      dup2\n      mstore\n      0x20\n      add\n      0x00\n      keccak256\n      sload\n        /* \"contracts/oat.sol\":6701:6726  return _balances[account] */\n      swap1\n      pop\n        /* \"contracts/oat.sol\":6616:6733  function balanceOf(address account) public view override returns (uint256) {... */\n      swap2\n      swap1\n      pop\n      jump\t// out\n        /* \"contracts/oat.sol\":3538:3683  function renounceOwnership() public virtual onlyOwner {... */\n    tag_70:\n        /* \"contracts/oat.sol\":3465:3477  _msgSender() */\n      tag_146\n        /* \"contracts/oat.sol\":3465:3475  _msgSender */\n      tag_118\n        /* \"contracts/oat.sol\":3465:3477  _msgSender() */\n      jump\t// in\n    tag_146:\n        /* \"contracts/oat.sol\":3455:3477  _owner == _msgSender() */\n      0xffffffffffffffffffffffffffffffffffffffff\n      and\n        /* \"contracts/oat.sol\":3455:3461  _owner */\n      0x00\n      dup1\n      sload\n      swap1\n      0x0100\n      exp\n      swap1\n      div\n      0xffffffffffffffffffffffffffffffffffffffff\n      and\n        /* \"contracts/oat.sol\":3455:3477  _owner == _msgSender() */\n      0xffffffffffffffffffffffffffffffffffffffff\n      and\n      eq\n        /* \"contracts/oat.sol\":3447:3514  require(_owner == _msgSender(), \"Ownable: caller is not the owner\") */\n      tag_147\n      jumpi\n      mload(0x40)\n      0x08c379a000000000000000000000000000000000000000000000000000000000\n      dup2\n      mstore\n      0x04\n      add\n      tag_148\n      swap1\n      tag_149\n      jump\t// in\n    tag_148:\n      mload(0x40)\n      dup1\n      swap2\n      sub\n      swap1\n      revert\n    tag_147:\n        /* \"contracts/oat.sol\":3644:3645  0 */\n      0x00\n        /* \"contracts/oat.sol\":3607:3647  OwnershipTransferred(_owner, address(0)) */\n      0xffffffffffffffffffffffffffffffffffffffff\n      and\n        /* \"contracts/oat.sol\":3628:3634  _owner */\n      0x00\n      dup1\n      sload\n      swap1\n      0x0100\n      exp\n      swap1\n      div\n      0xffffffffffffffffffffffffffffffffffffffff\n      and\n        /* \"contracts/oat.sol\":3607:3647  OwnershipTransferred(_owner, address(0)) */\n      0xffffffffffffffffffffffffffffffffffffffff\n      and\n      0x8be0079c531659141344cd1fd0a4f28419497f9722a3daafe3b4186f6b6457e0\n      mload(0x40)\n      mload(0x40)\n      dup1\n      swap2\n      sub\n      swap1\n      log3\n        /* \"contracts/oat.sol\":3674:3675  0 */\n      0x00\n        /* \"contracts/oat.sol\":3657:3663  _owner */\n      dup1\n      0x00\n        /* \"contracts/oat.sol\":3657:3676  _owner = address(0) */\n      0x0100\n      exp\n      dup2\n      sload\n      dup2\n      0xffffffffffffffffffffffffffffffffffffffff\n      mul\n      not\n      and\n      swap1\n      dup4\n      0xffffffffffffffffffffffffffffffffffffffff\n      and\n      mul\n      or\n      swap1\n      sstore\n      pop\n        /* \"contracts/oat.sol\":3538:3683  function renounceOwnership() public virtual onlyOwner {... */\n      jump\t// out\n        /* \"contracts/oat.sol\":5370:5423  uint256 public _maxTxAmount = 1000000 * 10**_decimals */\n    tag_73:\n      sload(0x07)\n      dup2\n      jump\t// out\n        /* \"contracts/oat.sol\":3333:3410  function owner() public view returns (address) {... */\n    tag_77:\n        /* \"contracts/oat.sol\":3371:3378  address */\n      0x00\n        /* \"contracts/oat.sol\":3397:3403  _owner */\n      dup1\n      0x00\n      swap1\n      sload\n      swap1\n      0x0100\n      exp\n      swap1\n      div\n      0xffffffffffffffffffffffffffffffffffffffff\n      and\n        /* \"contracts/oat.sol\":3390:3403  return _owner */\n      swap1\n      pop\n        /* \"contracts/oat.sol\":3333:3410  function owner() public view returns (address) {... */\n      swap1\n      jump\t// out\n        /* \"contracts/oat.sol\":5429:5484  uint256 public _maxWalletSize = 1000000 * 10**_decimals */\n    tag_82:\n      sload(0x08)\n      dup2\n      jump\t// out\n        /* \"contracts/oat.sol\":6339:6424  function symbol() public pure returns (string memory) {... */\n    tag_86:\n        /* \"contracts/oat.sol\":6378:6391  string memory */\n      0x60\n        /* \"contracts/oat.sol\":6410:6417  _symbol */\n      mload(0x40)\n      dup1\n      0x40\n      add\n      0x40\n      mstore\n      dup1\n      0x04\n      dup2\n      mstore\n      0x20\n      add\n      0x244f415400000000000000000000000000000000000000000000000000000000\n      dup2\n      mstore\n      pop\n        /* \"contracts/oat.sol\":6403:6417  return _symbol */\n      swap1\n      pop\n        /* \"contracts/oat.sol\":6339:6424  function symbol() public pure returns (string memory) {... */\n      swap1\n      jump\t// out\n        /* \"contracts/oat.sol\":5013:5101  address public constant DEAD_WALLET =... */\n    tag_90:\n        /* \"contracts/oat.sol\":5059:5101  0x000000000000000000000000000000000000dEaD */\n      0xdead\n        /* \"contracts/oat.sol\":5013:5101  address public constant DEAD_WALLET =... */\n      dup2\n      jump\t// out\n        /* \"contracts/oat.sol\":6739:6931  function transfer(address recipient, uint256 amount)... */\n    tag_95:\n        /* \"contracts/oat.sol\":6841:6845  bool */\n      0x00\n        /* \"contracts/oat.sol\":6861:6903  _transfer(_msgSender(), recipient, amount) */\n      tag_154\n        /* \"contracts/oat.sol\":6871:6883  _msgSender() */\n      tag_155\n        /* \"contracts/oat.sol\":6871:6881  _msgSender */\n      tag_118\n        /* \"contracts/oat.sol\":6871:6883  _msgSender() */\n      jump\t// in\n    tag_155:\n        /* \"contracts/oat.sol\":6885:6894  recipient */\n      dup5\n        /* \"contracts/oat.sol\":6896:6902  amount */\n      dup5\n        /* \"contracts/oat.sol\":6861:6870  _transfer */\n      tag_127\n        /* \"contracts/oat.sol\":6861:6903  _transfer(_msgSender(), recipient, amount) */\n      jump\t// in\n    tag_154:\n        /* \"contracts/oat.sol\":6920:6924  true */\n      0x01\n        /* \"contracts/oat.sol\":6913:6924  return true */\n      swap1\n      pop\n        /* \"contracts/oat.sol\":6739:6931  function transfer(address recipient, uint256 amount)... */\n      swap3\n      swap2\n      pop\n      pop\n      jump\t// out\n        /* \"contracts/oat.sol\":5490:5547  uint256 public _taxSwapThreshold = 100000 * 10**_decimals */\n    tag_99:\n      sload(0x09)\n      dup2\n      jump\t// out\n        /* \"contracts/oat.sol\":4928:4967  bool public transferDelayEnabled = true */\n    tag_103:\n      0x06\n      0x00\n      swap1\n      sload\n      swap1\n      0x0100\n      exp\n      swap1\n      div\n      0xff\n      and\n      dup2\n      jump\t// out\n        /* \"contracts/oat.sol\":11307:12148  function openTrading() external onlyOwner {... */\n    tag_107:\n        /* \"contracts/oat.sol\":3465:3477  _msgSender() */\n      tag_157\n        /* \"contracts/oat.sol\":3465:3475  _msgSender */\n      tag_118\n        /* \"contracts/oat.sol\":3465:3477  _msgSender() */\n      jump\t// in\n    tag_157:\n        /* \"contracts/oat.sol\":3455:3477  _owner == _msgSender() */\n      0xffffffffffffffffffffffffffffffffffffffff\n      and\n        /* \"contracts/oat.sol\":3455:3461  _owner */\n      0x00\n      dup1\n      sload\n      swap1\n      0x0100\n      exp\n      swap1\n      div\n      0xffffffffffffffffffffffffffffffffffffffff\n      and\n        /* \"contracts/oat.sol\":3455:3477  _owner == _msgSender() */\n      0xffffffffffffffffffffffffffffffffffffffff\n      and\n      eq\n        /* \"contracts/oat.sol\":3447:3514  require(_owner == _msgSender(), \"Ownable: caller is not the owner\") */\n      tag_158\n      jumpi\n      mload(0x40)\n      0x08c379a000000000000000000000000000000000000000000000000000000000\n      dup2\n      mstore\n      0x04\n      add\n      tag_159\n      swap1\n      tag_149\n      jump\t// in\n    tag_159:\n      mload(0x40)\n      dup1\n      swap2\n      sub\n      swap1\n      revert\n    tag_158:\n        /* \"contracts/oat.sol\":11368:11379  tradingOpen */\n      0x0c\n      0x14\n      swap1\n      sload\n      swap1\n      0x0100\n      exp\n      swap1\n      div\n      0xff\n      and\n        /* \"contracts/oat.sol\":11367:11379  !tradingOpen */\n      iszero\n        /* \"contracts/oat.sol\":11359:11407  require(!tradingOpen, \"trading is already open\") */\n      tag_161\n      jumpi\n      mload(0x40)\n      0x08c379a000000000000000000000000000000000000000000000000000000000\n      dup2\n      mstore\n      0x04\n      add\n      tag_162\n      swap1\n      tag_163\n      jump\t// in\n    tag_162:\n      mload(0x40)\n      dup1\n      swap2\n      sub\n      swap1\n      revert\n    tag_161:\n        /* \"contracts/oat.sol\":11467:11509  0x7a250d5630B4cF539739dF2C5dAcb4c659F2488D */\n      0x7a250d5630b4cf539739df2c5dacb4c659f2488d\n        /* \"contracts/oat.sol\":11417:11432  uniswapV2Router */\n      0x0b\n      0x00\n        /* \"contracts/oat.sol\":11417:11519  uniswapV2Router = IUniswapV2Router02(... */\n      0x0100\n      exp\n      dup2\n      sload\n      dup2\n      0xffffffffffffffffffffffffffffffffffffffff\n      mul\n      not\n      and\n      swap1\n      dup4\n      0xffffffffffffffffffffffffffffffffffffffff\n      and\n      mul\n      or\n      swap1\n      sstore\n      pop\n        /* \"contracts/oat.sol\":11529:11587  _approve(address(this), address(uniswapV2Router), _tTotal) */\n      tag_164\n        /* \"contracts/oat.sol\":11546:11550  this */\n      address\n        /* \"contracts/oat.sol\":11561:11576  uniswapV2Router */\n      0x0b\n      0x00\n      swap1\n      sload\n      swap1\n      0x0100\n      exp\n      swap1\n      div\n      0xffffffffffffffffffffffffffffffffffffffff\n      and\n        /* \"contracts/oat.sol\":5188:5190  18 */\n      0x12\n        /* \"contracts/oat.sol\":5243:5245  10 */\n      0x0a\n        /* \"contracts/oat.sol\":5243:5256  10**_decimals */\n      tag_165\n      swap2\n      swap1\n      tag_122\n      jump\t// in\n    tag_165:\n        /* \"contracts/oat.sol\":5231:5240  100000000 */\n      0x05f5e100\n        /* \"contracts/oat.sol\":5231:5256  100000000 * 10**_decimals */\n      tag_166\n      swap2\n      swap1\n      tag_124\n      jump\t// in\n    tag_166:\n        /* \"contracts/oat.sol\":11529:11537  _approve */\n      tag_119\n        /* \"contracts/oat.sol\":11529:11587  _approve(address(this), address(uniswapV2Router), _tTotal) */\n      jump\t// in\n    tag_164:\n        /* \"contracts/oat.sol\":11631:11646  uniswapV2Router */\n      0x0b\n      0x00\n      swap1\n      sload\n      swap1\n      0x0100\n      exp\n      swap1\n      div\n      0xffffffffffffffffffffffffffffffffffffffff\n      and\n        /* \"contracts/oat.sol\":11631:11654  uniswapV2Router.factory */\n      0xffffffffffffffffffffffffffffffffffffffff\n      and\n      0xc45a0155\n        /* \"contracts/oat.sol\":11631:11656  uniswapV2Router.factory() */\n      mload(0x40)\n      dup2\n      0xffffffff\n      and\n      0xe0\n      shl\n      dup2\n      mstore\n      0x04\n      add\n      0x20\n      mload(0x40)\n      dup1\n      dup4\n      sub\n      dup2\n      dup7\n      gas\n      staticcall\n      iszero\n      dup1\n      iszero\n      tag_168\n      jumpi\n      returndatasize\n      0x00\n      dup1\n      returndatacopy\n      revert(0x00, returndatasize)\n    tag_168:\n      pop\n      pop\n      pop\n      pop\n      mload(0x40)\n      returndatasize\n      not(0x1f)\n      0x1f\n      dup3\n      add\n      and\n      dup3\n      add\n      dup1\n      0x40\n      mstore\n      pop\n      dup2\n      add\n      swap1\n      tag_169\n      swap2\n      swap1\n      tag_170\n      jump\t// in\n    tag_169:\n        /* \"contracts/oat.sol\":11613:11668  IUniswapV2Factory(uniswapV2Router.factory()).createPair */\n      0xffffffffffffffffffffffffffffffffffffffff\n      and\n      0xc9c65396\n        /* \"contracts/oat.sol\":11690:11694  this */\n      address\n        /* \"contracts/oat.sol\":11709:11724  uniswapV2Router */\n      0x0b\n      0x00\n      swap1\n      sload\n      swap1\n      0x0100\n      exp\n      swap1\n      div\n      0xffffffffffffffffffffffffffffffffffffffff\n      and\n        /* \"contracts/oat.sol\":11709:11729  uniswapV2Router.WETH */\n      0xffffffffffffffffffffffffffffffffffffffff\n      and\n      0xad5c4648\n        /* \"contracts/oat.sol\":11709:11731  uniswapV2Router.WETH() */\n      mload(0x40)\n      dup2\n      0xffffffff\n      and\n      0xe0\n      shl\n      dup2\n      mstore\n      0x04\n      add\n      0x20\n      mload(0x40)\n      dup1\n      dup4\n      sub\n      dup2\n      dup7\n      gas\n      staticcall\n      iszero\n      dup1\n      iszero\n      tag_172\n      jumpi\n      returndatasize\n      0x00\n      dup1\n      returndatacopy\n      revert(0x00, returndatasize)\n    tag_172:\n      pop\n      pop\n      pop\n      pop\n      mload(0x40)\n      returndatasize\n      not(0x1f)\n      0x1f\n      dup3\n      add\n      and\n      dup3\n      add\n      dup1\n      0x40\n      mstore\n      pop\n      dup2\n      add\n      swap1\n      tag_173\n      swap2\n      swap1\n      tag_170\n      jump\t// in\n    tag_173:\n        /* \"contracts/oat.sol\":11613:11741  IUniswapV2Factory(uniswapV2Router.factory()).createPair(... */\n      mload(0x40)\n      dup4\n      0xffffffff\n      and\n      0xe0\n      shl\n      dup2\n      mstore\n      0x04\n      add\n      tag_174\n      swap3\n      swap2\n      swap1\n      tag_175\n      jump\t// in\n    tag_174:\n      0x20\n      mload(0x40)\n      dup1\n      dup4\n      sub\n      dup2\n      0x00\n      dup8\n      gas\n      call\n      iszero\n      dup1\n      iszero\n      tag_177\n      jumpi\n      returndatasize\n      0x00\n      dup1\n      returndatacopy\n      revert(0x00, returndatasize)\n    tag_177:\n      pop\n      pop\n      pop\n      pop\n      mload(0x40)\n      returndatasize\n      not(0x1f)\n      0x1f\n      dup3\n      add\n      and\n      dup3\n      add\n      dup1\n      0x40\n      mstore\n      pop\n      dup2\n      add\n      swap1\n      tag_178\n      swap2\n      swap1\n      tag_170\n      jump\t// in\n    tag_178:\n        /* \"contracts/oat.sol\":11597:11610  uniswapV2Pair */\n      0x0c\n      0x00\n        /* \"contracts/oat.sol\":11597:11741  uniswapV2Pair = IUniswapV2Factory(uniswapV2Router.factory()).createPair(... */\n      0x0100\n      exp\n      dup2\n      sload\n      dup2\n      0xffffffffffffffffffffffffffffffffffffffff\n      mul\n      not\n      and\n      swap1\n      dup4\n      0xffffffffffffffffffffffffffffffffffffffff\n      and\n      mul\n      or\n      swap1\n      sstore\n      pop\n        /* \"contracts/oat.sol\":11751:11766  uniswapV2Router */\n      0x0b\n      0x00\n      swap1\n      sload\n      swap1\n      0x0100\n      exp\n      swap1\n      div\n      0xffffffffffffffffffffffffffffffffffffffff\n      and\n        /* \"contracts/oat.sol\":11751:11782  uniswapV2Router.addLiquidityETH */\n      0xffffffffffffffffffffffffffffffffffffffff\n      and\n      0xf305d719\n        /* \"contracts/oat.sol\":11790:11811  address(this).balance */\n      selfbalance\n        /* \"contracts/oat.sol\":11834:11838  this */\n      address\n        /* \"contracts/oat.sol\":11853:11877  balanceOf(address(this)) */\n      tag_179\n        /* \"contracts/oat.sol\":11871:11875  this */\n      address\n        /* \"contracts/oat.sol\":11853:11862  balanceOf */\n      tag_66\n        /* \"contracts/oat.sol\":11853:11877  balanceOf(address(this)) */\n      jump\t// in\n    tag_179:\n        /* \"contracts/oat.sol\":11891:11892  0 */\n      0x00\n        /* \"contracts/oat.sol\":11906:11907  0 */\n      dup1\n        /* \"contracts/oat.sol\":11921:11928  owner() */\n      tag_180\n        /* \"contracts/oat.sol\":11921:11926  owner */\n      tag_77\n        /* \"contracts/oat.sol\":11921:11928  owner() */\n      jump\t// in\n    tag_180:\n        /* \"contracts/oat.sol\":11942:11957  block.timestamp */\n      timestamp\n        /* \"contracts/oat.sol\":11751:11967  uniswapV2Router.addLiquidityETH{value: address(this).balance}(... */\n      mload(0x40)\n      dup9\n      0xffffffff\n      and\n      0xe0\n      shl\n      dup2\n      mstore\n      0x04\n      add\n      tag_181\n      swap7\n      swap6\n      swap5\n      swap4\n      swap3\n      swap2\n      swap1\n      tag_182\n      jump\t// in\n    tag_181:\n      0x60\n      mload(0x40)\n      dup1\n      dup4\n      sub\n      dup2\n      dup6\n      dup9\n      gas\n      call\n      iszero\n      dup1\n      iszero\n      tag_184\n      jumpi\n      returndatasize\n      0x00\n      dup1\n      returndatacopy\n      revert(0x00, returndatasize)\n    tag_184:\n      pop\n      pop\n      pop\n      pop\n      pop\n      mload(0x40)\n      returndatasize\n      not(0x1f)\n      0x1f\n      dup3\n      add\n      and\n      dup3\n      add\n      dup1\n      0x40\n      mstore\n      pop\n      dup2\n      add\n      swap1\n      tag_185\n      swap2\n      swap1\n      tag_186\n      jump\t// in\n    tag_185:\n      pop\n      pop\n      pop\n        /* \"contracts/oat.sol\":11984:11997  uniswapV2Pair */\n      0x0c\n      0x00\n      swap1\n      sload\n      swap1\n      0x0100\n      exp\n      swap1\n      div\n      0xffffffffffffffffffffffffffffffffffffffff\n      and\n        /* \"contracts/oat.sol\":11977:12006  IERC20(uniswapV2Pair).approve */\n      0xffffffffffffffffffffffffffffffffffffffff\n      and\n      0x095ea7b3\n        /* \"contracts/oat.sol\":12028:12043  uniswapV2Router */\n      0x0b\n      0x00\n      swap1\n      sload\n      swap1\n      0x0100\n      exp\n      swap1\n      div\n      0xffffffffffffffffffffffffffffffffffffffff\n      and\n        /* \"contracts/oat.sol\":12058:12075  type(uint256).max */\n      0xffffffffffffffffffffffffffffffffffffffffffffffffffffffffffffffff\n        /* \"contracts/oat.sol\":11977:12085  IERC20(uniswapV2Pair).approve(... */\n      mload(0x40)\n      dup4\n      0xffffffff\n      and\n      0xe0\n      shl\n      dup2\n      mstore\n      0x04\n      add\n      tag_187\n      swap3\n      swap2\n      swap1\n      tag_188\n      jump\t// in\n    tag_187:\n      0x20\n      mload(0x40)\n      dup1\n      dup4\n      sub\n      dup2\n      0x00\n      dup8\n      gas\n      call\n      iszero\n      dup1\n      iszero\n      tag_190\n      jumpi\n      returndatasize\n      0x00\n      dup1\n      returndatacopy\n      revert(0x00, returndatasize)\n    tag_190:\n      pop\n      pop\n      pop\n      pop\n      mload(0x40)\n      returndatasize\n      not(0x1f)\n      0x1f\n      dup3\n      add\n      and\n      dup3\n      add\n      dup1\n      0x40\n      mstore\n      pop\n      dup2\n      add\n      swap1\n      tag_191\n      swap2\n      swap1\n      tag_192\n      jump\t// in\n    tag_191:\n      pop\n        /* \"contracts/oat.sol\":12109:12113  true */\n      0x01\n        /* \"contracts/oat.sol\":12095:12106  swapEnabled */\n      0x0c\n      0x16\n        /* \"contracts/oat.sol\":12095:12113  swapEnabled = true */\n      0x0100\n      exp\n      dup2\n      sload\n      dup2\n      0xff\n      mul\n      not\n      and\n      swap1\n      dup4\n      iszero\n      iszero\n      mul\n      or\n      swap1\n      sstore\n      pop\n        /* \"contracts/oat.sol\":12137:12141  true */\n      0x01\n        /* \"contracts/oat.sol\":12123:12134  tradingOpen */\n      0x0c\n      0x14\n        /* \"contracts/oat.sol\":12123:12141  tradingOpen = true */\n      0x0100\n      exp\n      dup2\n      sload\n      dup2\n      0xff\n      mul\n      not\n      and\n      swap1\n      dup4\n      iszero\n      iszero\n      mul\n      or\n      swap1\n      sstore\n      pop\n        /* \"contracts/oat.sol\":11307:12148  function openTrading() external onlyOwner {... */\n      jump\t// out\n        /* \"contracts/oat.sol\":6937:7114  function allowance(address owner, address spender)... */\n    tag_112:\n        /* \"contracts/oat.sol\":7050:7057  uint256 */\n      0x00\n        /* \"contracts/oat.sol\":7080:7091  _allowances */\n      0x02\n        /* \"contracts/oat.sol\":7080:7098  _allowances[owner] */\n      0x00\n        /* \"contracts/oat.sol\":7092:7097  owner */\n      dup5\n        /* \"contracts/oat.sol\":7080:7098  _allowances[owner] */\n      0xffffffffffffffffffffffffffffffffffffffff\n      and\n      0xffffffffffffffffffffffffffffffffffffffff\n      and\n      dup2\n      mstore\n      0x20\n      add\n      swap1\n      dup2\n      mstore\n      0x20\n      add\n      0x00\n      keccak256\n        /* \"contracts/oat.sol\":7080:7107  _allowances[owner][spender] */\n      0x00\n        /* \"contracts/oat.sol\":7099:7106  spender */\n      dup4\n        /* \"contracts/oat.sol\":7080:7107  _allowances[owner][spender] */\n      0xffffffffffffffffffffffffffffffffffffffff\n      and\n      0xffffffffffffffffffffffffffffffffffffffff\n      and\n      dup2\n      mstore\n      0x20\n      add\n      swap1\n      dup2\n      mstore\n      0x20\n      add\n      0x00\n      keccak256\n      sload\n        /* \"contracts/oat.sol\":7073:7107  return _allowances[owner][spender] */\n      swap1\n      pop\n        /* \"contracts/oat.sol\":6937:7114  function allowance(address owner, address spender)... */\n      swap3\n      swap2\n      pop\n      pop\n      jump\t// out\n        /* \"contracts/oat.sol\":966:1062  function _msgSender() internal view virtual returns (address) {... */\n    tag_118:\n        /* \"contracts/oat.sol\":1019:1026  address */\n      0x00\n        /* \"contracts/oat.sol\":1045:1055  msg.sender */\n      caller\n        /* \"contracts/oat.sol\":1038:1055  return msg.sender */\n      swap1\n      pop\n        /* \"contracts/oat.sol\":966:1062  function _msgSender() internal view virtual returns (address) {... */\n      swap1\n      jump\t// out\n        /* \"contracts/oat.sol\":7749:8109  function _approve(... */\n    tag_119:\n        /* \"contracts/oat.sol\":7888:7889  0 */\n      0x00\n        /* \"contracts/oat.sol\":7871:7890  owner != address(0) */\n      0xffffffffffffffffffffffffffffffffffffffff\n      and\n        /* \"contracts/oat.sol\":7871:7876  owner */\n      dup4\n        /* \"contracts/oat.sol\":7871:7890  owner != address(0) */\n      0xffffffffffffffffffffffffffffffffffffffff\n      and\n      sub\n        /* \"contracts/oat.sol\":7863:7931  require(owner != address(0), \"ERC20: approve from the zero address\") */\n      tag_196\n      jumpi\n      mload(0x40)\n      0x08c379a000000000000000000000000000000000000000000000000000000000\n      dup2\n      mstore\n      0x04\n      add\n      tag_197\n      swap1\n      tag_198\n      jump\t// in\n    tag_197:\n      mload(0x40)\n      dup1\n      swap2\n      sub\n      swap1\n      revert\n    tag_196:\n        /* \"contracts/oat.sol\":7968:7969  0 */\n      0x00\n        /* \"contracts/oat.sol\":7949:7970  spender != address(0) */\n      0xffffffffffffffffffffffffffffffffffffffff\n      and\n        /* \"contracts/oat.sol\":7949:7956  spender */\n      dup3\n        /* \"contracts/oat.sol\":7949:7970  spender != address(0) */\n      0xffffffffffffffffffffffffffffffffffffffff\n      and\n      sub\n        /* \"contracts/oat.sol\":7941:8009  require(spender != address(0), \"ERC20: approve to the zero address\") */\n      tag_199\n      jumpi\n      mload(0x40)\n      0x08c379a000000000000000000000000000000000000000000000000000000000\n      dup2\n      mstore\n      0x04\n      add\n      tag_200\n      swap1\n      tag_201\n      jump\t// in\n    tag_200:\n      mload(0x40)\n      dup1\n      swap2\n      sub\n      swap1\n      revert\n    tag_199:\n        /* \"contracts/oat.sol\":8049:8055  amount */\n      dup1\n        /* \"contracts/oat.sol\":8019:8030  _allowances */\n      0x02\n        /* \"contracts/oat.sol\":8019:8037  _allowances[owner] */\n      0x00\n        /* \"contracts/oat.sol\":8031:8036  owner */\n      dup6\n        /* \"contracts/oat.sol\":8019:8037  _allowances[owner] */\n      0xffffffffffffffffffffffffffffffffffffffff\n      and\n      0xffffffffffffffffffffffffffffffffffffffff\n      and\n      dup2\n      mstore\n      0x20\n      add\n      swap1\n      dup2\n      mstore\n      0x20\n      add\n      0x00\n      keccak256\n        /* \"contracts/oat.sol\":8019:8046  _allowances[owner][spender] */\n      0x00\n        /* \"contracts/oat.sol\":8038:8045  spender */\n      dup5\n        /* \"contracts/oat.sol\":8019:8046  _allowances[owner][spender] */\n      0xffffffffffffffffffffffffffffffffffffffff\n      and\n      0xffffffffffffffffffffffffffffffffffffffff\n      and\n      dup2\n      mstore\n      0x20\n      add\n      swap1\n      dup2\n      mstore\n      0x20\n      add\n      0x00\n      keccak256\n        /* \"contracts/oat.sol\":8019:8055  _allowances[owner][spender] = amount */\n      dup2\n      swap1\n      sstore\n      pop\n        /* \"contracts/oat.sol\":8086:8093  spender */\n      dup2\n        /* \"contracts/oat.sol\":8070:8102  Approval(owner, spender, amount) */\n      0xffffffffffffffffffffffffffffffffffffffff\n      and\n        /* \"contracts/oat.sol\":8079:8084  owner */\n      dup4\n        /* \"contracts/oat.sol\":8070:8102  Approval(owner, spender, amount) */\n      0xffffffffffffffffffffffffffffffffffffffff\n      and\n      0x8c5be1e5ebec7d5bd14f71427d1e84f3dd0314c0f7b2291e5b200ac8c7c3b925\n        /* \"contracts/oat.sol\":8095:8101  amount */\n      dup4\n        /* \"contracts/oat.sol\":8070:8102  Approval(owner, spender, amount) */\n      mload(0x40)\n      tag_202\n      swap2\n      swap1\n      tag_43\n      jump\t// in\n    tag_202:\n      mload(0x40)\n      dup1\n      swap2\n      sub\n      swap1\n      log3\n        /* \"contracts/oat.sol\":7749:8109  function _approve(... */\n      pop\n      pop\n      pop\n      jump\t// out\n        /* \"contracts/oat.sol\":8115:10617  function _transfer(... */\n    tag_127:\n        /* \"contracts/oat.sol\":8248:8249  0 */\n      0x00\n        /* \"contracts/oat.sol\":8232:8250  from != address(0) */\n      0xffffffffffffffffffffffffffffffffffffffff\n      and\n        /* \"contracts/oat.sol\":8232:8236  from */\n      dup4\n        /* \"contracts/oat.sol\":8232:8250  from != address(0) */\n      0xffffffffffffffffffffffffffffffffffffffff\n      and\n      sub\n        /* \"contracts/oat.sol\":8224:8292  require(from != address(0), \"ERC20: transfer from the zero address\") */\n      tag_204\n      jumpi\n      mload(0x40)\n      0x08c379a000000000000000000000000000000000000000000000000000000000\n      dup2\n      mstore\n      0x04\n      add\n      tag_205\n      swap1\n      tag_206\n      jump\t// in\n    tag_205:\n      mload(0x40)\n      dup1\n      swap2\n      sub\n      swap1\n      revert\n    tag_204:\n        /* \"contracts/oat.sol\":8324:8325  0 */\n      0x00\n        /* \"contracts/oat.sol\":8310:8326  to != address(0) */\n      0xffffffffffffffffffffffffffffffffffffffff\n      and\n        /* \"contracts/oat.sol\":8310:8312  to */\n      dup3\n        /* \"contracts/oat.sol\":8310:8326  to != address(0) */\n      0xffffffffffffffffffffffffffffffffffffffff\n      and\n      sub\n        /* \"contracts/oat.sol\":8302:8366  require(to != address(0), \"ERC20: transfer to the zero address\") */\n      tag_207\n      jumpi\n      mload(0x40)\n      0x08c379a000000000000000000000000000000000000000000000000000000000\n      dup2\n      mstore\n      0x04\n      add\n      tag_208\n      swap1\n      tag_209\n      jump\t// in\n    tag_208:\n      mload(0x40)\n      dup1\n      swap2\n      sub\n      swap1\n      revert\n    tag_207:\n        /* \"contracts/oat.sol\":8393:8394  0 */\n      0x00\n        /* \"contracts/oat.sol\":8384:8390  amount */\n      dup2\n        /* \"contracts/oat.sol\":8384:8394  amount > 0 */\n      gt\n        /* \"contracts/oat.sol\":8376:8440  require(amount > 0, \"Transfer amount must be greater than zero\") */\n      tag_210\n      jumpi\n      mload(0x40)\n      0x08c379a000000000000000000000000000000000000000000000000000000000\n      dup2\n      mstore\n      0x04\n      add\n      tag_211\n      swap1\n      tag_212\n      jump\t// in\n    tag_211:\n      mload(0x40)\n      dup1\n      swap2\n      sub\n      swap1\n      revert\n    tag_210:\n        /* \"contracts/oat.sol\":8450:8467  uint256 taxAmount */\n      0x00\n        /* \"contracts/oat.sol\":8493:8500  owner() */\n      tag_213\n        /* \"contracts/oat.sol\":8493:8498  owner */\n      tag_77\n        /* \"contracts/oat.sol\":8493:8500  owner() */\n      jump\t// in\n    tag_213:\n        /* \"contracts/oat.sol\":8485:8500  from != owner() */\n      0xffffffffffffffffffffffffffffffffffffffff\n      and\n        /* \"contracts/oat.sol\":8485:8489  from */\n      dup5\n        /* \"contracts/oat.sol\":8485:8500  from != owner() */\n      0xffffffffffffffffffffffffffffffffffffffff\n      and\n      eq\n      iszero\n        /* \"contracts/oat.sol\":8485:8517  from != owner() && to != owner() */\n      dup1\n      iszero\n      tag_214\n      jumpi\n      pop\n        /* \"contracts/oat.sol\":8510:8517  owner() */\n      tag_215\n        /* \"contracts/oat.sol\":8510:8515  owner */\n      tag_77\n        /* \"contracts/oat.sol\":8510:8517  owner() */\n      jump\t// in\n    tag_215:\n        /* \"contracts/oat.sol\":8504:8517  to != owner() */\n      0xffffffffffffffffffffffffffffffffffffffff\n      and\n        /* \"contracts/oat.sol\":8504:8506  to */\n      dup4\n        /* \"contracts/oat.sol\":8504:8517  to != owner() */\n      0xffffffffffffffffffffffffffffffffffffffff\n      and\n      eq\n      iszero\n        /* \"contracts/oat.sol\":8485:8517  from != owner() && to != owner() */\n    tag_214:\n        /* \"contracts/oat.sol\":8481:10255  if (from != owner() && to != owner()) {... */\n      iszero\n      tag_216\n      jumpi\n        /* \"contracts/oat.sol\":8545:8575  amount.mul(_finalTax).div(100) */\n      tag_217\n        /* \"contracts/oat.sol\":8571:8574  100 */\n      0x64\n        /* \"contracts/oat.sol\":8545:8566  amount.mul(_finalTax) */\n      tag_218\n        /* \"contracts/oat.sol\":5145:5146  1 */\n      0x01\n        /* \"contracts/oat.sol\":8545:8551  amount */\n      dup6\n        /* \"contracts/oat.sol\":8545:8555  amount.mul */\n      tag_219\n      swap1\n        /* \"contracts/oat.sol\":8545:8566  amount.mul(_finalTax) */\n      swap2\n      swap1\n      0xffffffff\n      and\n      jump\t// in\n    tag_218:\n        /* \"contracts/oat.sol\":8545:8570  amount.mul(_finalTax).div */\n      tag_220\n      swap1\n        /* \"contracts/oat.sol\":8545:8575  amount.mul(_finalTax).div(100) */\n      swap2\n      swap1\n      0xffffffff\n      and\n      jump\t// in\n    tag_217:\n        /* \"contracts/oat.sol\":8533:8575  taxAmount = amount.mul(_finalTax).div(100) */\n      swap1\n      pop\n        /* \"contracts/oat.sol\":8594:8614  transferDelayEnabled */\n      0x06\n      0x00\n      swap1\n      sload\n      swap1\n      0x0100\n      exp\n      swap1\n      div\n      0xff\n      and\n        /* \"contracts/oat.sol\":8590:9100  if (transferDelayEnabled) {... */\n      iszero\n      tag_221\n      jumpi\n        /* \"contracts/oat.sol\":8673:8688  uniswapV2Router */\n      0x0b\n      0x00\n      swap1\n      sload\n      swap1\n      0x0100\n      exp\n      swap1\n      div\n      0xffffffffffffffffffffffffffffffffffffffff\n      and\n        /* \"contracts/oat.sol\":8659:8689  to != address(uniswapV2Router) */\n      0xffffffffffffffffffffffffffffffffffffffff\n      and\n        /* \"contracts/oat.sol\":8659:8661  to */\n      dup4\n        /* \"contracts/oat.sol\":8659:8689  to != address(uniswapV2Router) */\n      0xffffffffffffffffffffffffffffffffffffffff\n      and\n      eq\n      iszero\n        /* \"contracts/oat.sol\":8659:8741  to != address(uniswapV2Router) &&... */\n      dup1\n      iszero\n      tag_222\n      jumpi\n      pop\n        /* \"contracts/oat.sol\":8727:8740  uniswapV2Pair */\n      0x0c\n      0x00\n      swap1\n      sload\n      swap1\n      0x0100\n      exp\n      swap1\n      div\n      0xffffffffffffffffffffffffffffffffffffffff\n      and\n        /* \"contracts/oat.sol\":8713:8741  to != address(uniswapV2Pair) */\n      0xffffffffffffffffffffffffffffffffffffffff\n      and\n        /* \"contracts/oat.sol\":8713:8715  to */\n      dup4\n        /* \"contracts/oat.sol\":8713:8741  to != address(uniswapV2Pair) */\n      0xffffffffffffffffffffffffffffffffffffffff\n      and\n      eq\n      iszero\n        /* \"contracts/oat.sol\":8659:8741  to != address(uniswapV2Router) &&... */\n    tag_222:\n        /* \"contracts/oat.sol\":8634:9086  if (... */\n      iszero\n      tag_223\n      jumpi\n        /* \"contracts/oat.sol\":8857:8869  block.number */\n      number\n        /* \"contracts/oat.sol\":8815:8843  _holderLastTransferTimestamp */\n      0x05\n        /* \"contracts/oat.sol\":8815:8854  _holderLastTransferTimestamp[tx.origin] */\n      0x00\n        /* \"contracts/oat.sol\":8844:8853  tx.origin */\n      origin\n        /* \"contracts/oat.sol\":8815:8854  _holderLastTransferTimestamp[tx.origin] */\n      0xffffffffffffffffffffffffffffffffffffffff\n      and\n      0xffffffffffffffffffffffffffffffffffffffff\n      and\n      dup2\n      mstore\n      0x20\n      add\n      swap1\n      dup2\n      mstore\n      0x20\n      add\n      0x00\n      keccak256\n      sload\n        /* \"contracts/oat.sol\":8815:8869  _holderLastTransferTimestamp[tx.origin] < block.number */\n      lt\n        /* \"contracts/oat.sol\":8782:8991  require(... */\n      tag_224\n      jumpi\n      mload(0x40)\n      0x08c379a000000000000000000000000000000000000000000000000000000000\n      dup2\n      mstore\n      0x04\n      add\n      tag_225\n      swap1\n      tag_226\n      jump\t// in\n    tag_225:\n      mload(0x40)\n      dup1\n      swap2\n      sub\n      swap1\n      revert\n    tag_224:\n        /* \"contracts/oat.sol\":9055:9067  block.number */\n      number\n        /* \"contracts/oat.sol\":9013:9041  _holderLastTransferTimestamp */\n      0x05\n        /* \"contracts/oat.sol\":9013:9052  _holderLastTransferTimestamp[tx.origin] */\n      0x00\n        /* \"contracts/oat.sol\":9042:9051  tx.origin */\n      origin\n        /* \"contracts/oat.sol\":9013:9052  _holderLastTransferTimestamp[tx.origin] */\n      0xffffffffffffffffffffffffffffffffffffffff\n      and\n      0xffffffffffffffffffffffffffffffffffffffff\n      and\n      dup2\n      mstore\n      0x20\n      add\n      swap1\n      dup2\n      mstore\n      0x20\n      add\n      0x00\n      keccak256\n        /* \"contracts/oat.sol\":9013:9067  _holderLastTransferTimestamp[tx.origin] = block.number */\n      dup2\n      swap1\n      sstore\n      pop\n        /* \"contracts/oat.sol\":8634:9086  if (... */\n    tag_223:\n        /* \"contracts/oat.sol\":8590:9100  if (transferDelayEnabled) {... */\n    tag_221:\n        /* \"contracts/oat.sol\":9143:9156  uniswapV2Pair */\n      0x0c\n      0x00\n      swap1\n      sload\n      swap1\n      0x0100\n      exp\n      swap1\n      div\n      0xffffffffffffffffffffffffffffffffffffffff\n      and\n        /* \"contracts/oat.sol\":9135:9156  from == uniswapV2Pair */\n      0xffffffffffffffffffffffffffffffffffffffff\n      and\n        /* \"contracts/oat.sol\":9135:9139  from */\n      dup5\n        /* \"contracts/oat.sol\":9135:9156  from == uniswapV2Pair */\n      0xffffffffffffffffffffffffffffffffffffffff\n      and\n      eq\n        /* \"contracts/oat.sol\":9135:9206  from == uniswapV2Pair &&... */\n      dup1\n      iszero\n      tag_227\n      jumpi\n      pop\n        /* \"contracts/oat.sol\":9190:9205  uniswapV2Router */\n      0x0b\n      0x00\n      swap1\n      sload\n      swap1\n      0x0100\n      exp\n      swap1\n      div\n      0xffffffffffffffffffffffffffffffffffffffff\n      and\n        /* \"contracts/oat.sol\":9176:9206  to != address(uniswapV2Router) */\n      0xffffffffffffffffffffffffffffffffffffffff\n      and\n        /* \"contracts/oat.sol\":9176:9178  to */\n      dup4\n        /* \"contracts/oat.sol\":9176:9206  to != address(uniswapV2Router) */\n      0xffffffffffffffffffffffffffffffffffffffff\n      and\n      eq\n      iszero\n        /* \"contracts/oat.sol\":9135:9206  from == uniswapV2Pair &&... */\n    tag_227:\n        /* \"contracts/oat.sol\":9135:9249  from == uniswapV2Pair &&... */\n      dup1\n      iszero\n      tag_228\n      jumpi\n      pop\n        /* \"contracts/oat.sol\":9227:9245  _isExcludedFromFee */\n      0x03\n        /* \"contracts/oat.sol\":9227:9249  _isExcludedFromFee[to] */\n      0x00\n        /* \"contracts/oat.sol\":9246:9248  to */\n      dup5\n        /* \"contracts/oat.sol\":9227:9249  _isExcludedFromFee[to] */\n      0xffffffffffffffffffffffffffffffffffffffff\n      and\n      0xffffffffffffffffffffffffffffffffffffffff\n      and\n      dup2\n      mstore\n      0x20\n      add\n      swap1\n      dup2\n      mstore\n      0x20\n      add\n      0x00\n      keccak256\n      0x00\n      swap1\n      sload\n      swap1\n      0x0100\n      exp\n      swap1\n      div\n      0xff\n      and\n        /* \"contracts/oat.sol\":9226:9249  !_isExcludedFromFee[to] */\n      iszero\n        /* \"contracts/oat.sol\":9135:9249  from == uniswapV2Pair &&... */\n    tag_228:\n        /* \"contracts/oat.sol\":9114:9512  if (... */\n      iszero\n      tag_229\n      jumpi\n        /* \"contracts/oat.sol\":9300:9312  _maxTxAmount */\n      sload(0x07)\n        /* \"contracts/oat.sol\":9290:9296  amount */\n      dup3\n        /* \"contracts/oat.sol\":9290:9312  amount <= _maxTxAmount */\n      gt\n      iszero\n        /* \"contracts/oat.sol\":9282:9342  require(amount <= _maxTxAmount, \"Exceeds the _maxTxAmount.\") */\n      tag_230\n      jumpi\n      mload(0x40)\n      0x08c379a000000000000000000000000000000000000000000000000000000000\n      dup2\n      mstore\n      0x04\n      add\n      tag_231\n      swap1\n      tag_232\n      jump\t// in\n    tag_231:\n      mload(0x40)\n      dup1\n      swap2\n      sub\n      swap1\n      revert\n    tag_230:\n        /* \"contracts/oat.sol\":9415:9429  _maxWalletSize */\n      sload(0x08)\n        /* \"contracts/oat.sol\":9405:9411  amount */\n      dup3\n        /* \"contracts/oat.sol\":9389:9402  balanceOf(to) */\n      tag_233\n        /* \"contracts/oat.sol\":9399:9401  to */\n      dup6\n        /* \"contracts/oat.sol\":9389:9398  balanceOf */\n      tag_66\n        /* \"contracts/oat.sol\":9389:9402  balanceOf(to) */\n      jump\t// in\n    tag_233:\n        /* \"contracts/oat.sol\":9389:9411  balanceOf(to) + amount */\n      tag_234\n      swap2\n      swap1\n      tag_235\n      jump\t// in\n    tag_234:\n        /* \"contracts/oat.sol\":9389:9429  balanceOf(to) + amount <= _maxWalletSize */\n      gt\n      iszero\n        /* \"contracts/oat.sol\":9360:9497  require(... */\n      tag_236\n      jumpi\n      mload(0x40)\n      0x08c379a000000000000000000000000000000000000000000000000000000000\n      dup2\n      mstore\n      0x04\n      add\n      tag_237\n      swap1\n      tag_238\n      jump\t// in\n    tag_237:\n      mload(0x40)\n      dup1\n      swap2\n      sub\n      swap1\n      revert\n    tag_236:\n        /* \"contracts/oat.sol\":9114:9512  if (... */\n    tag_229:\n        /* \"contracts/oat.sol\":9536:9549  uniswapV2Pair */\n      0x0c\n      0x00\n      swap1\n      sload\n      swap1\n      0x0100\n      exp\n      swap1\n      div\n      0xffffffffffffffffffffffffffffffffffffffff\n      and\n        /* \"contracts/oat.sol\":9530:9549  to == uniswapV2Pair */\n      0xffffffffffffffffffffffffffffffffffffffff\n      and\n        /* \"contracts/oat.sol\":9530:9532  to */\n      dup4\n        /* \"contracts/oat.sol\":9530:9549  to == uniswapV2Pair */\n      0xffffffffffffffffffffffffffffffffffffffff\n      and\n      eq\n        /* \"contracts/oat.sol\":9530:9574  to == uniswapV2Pair && from != address(this) */\n      dup1\n      iszero\n      tag_239\n      jumpi\n      pop\n        /* \"contracts/oat.sol\":9569:9573  this */\n      address\n        /* \"contracts/oat.sol\":9553:9574  from != address(this) */\n      0xffffffffffffffffffffffffffffffffffffffff\n      and\n        /* \"contracts/oat.sol\":9553:9557  from */\n      dup5\n        /* \"contracts/oat.sol\":9553:9574  from != address(this) */\n      0xffffffffffffffffffffffffffffffffffffffff\n      and\n      eq\n      iszero\n        /* \"contracts/oat.sol\":9530:9574  to == uniswapV2Pair && from != address(this) */\n    tag_239:\n        /* \"contracts/oat.sol\":9526:9651  if (to == uniswapV2Pair && from != address(this)) {... */\n      iszero\n      tag_240\n      jumpi\n        /* \"contracts/oat.sol\":9606:9636  amount.mul(_finalTax).div(100) */\n      tag_241\n        /* \"contracts/oat.sol\":9632:9635  100 */\n      0x64\n        /* \"contracts/oat.sol\":9606:9627  amount.mul(_finalTax) */\n      tag_242\n        /* \"contracts/oat.sol\":5145:5146  1 */\n      0x01\n        /* \"contracts/oat.sol\":9606:9612  amount */\n      dup6\n        /* \"contracts/oat.sol\":9606:9616  amount.mul */\n      tag_219\n      swap1\n        /* \"contracts/oat.sol\":9606:9627  amount.mul(_finalTax) */\n      swap2\n      swap1\n      0xffffffff\n      and\n      jump\t// in\n    tag_242:\n        /* \"contracts/oat.sol\":9606:9631  amount.mul(_finalTax).div */\n      tag_220\n      swap1\n        /* \"contracts/oat.sol\":9606:9636  amount.mul(_finalTax).div(100) */\n      swap2\n      swap1\n      0xffffffff\n      and\n      jump\t// in\n    tag_241:\n        /* \"contracts/oat.sol\":9594:9636  taxAmount = amount.mul(_finalTax).div(100) */\n      swap1\n      pop\n        /* \"contracts/oat.sol\":9526:9651  if (to == uniswapV2Pair && from != address(this)) {... */\n    tag_240:\n        /* \"contracts/oat.sol\":9665:9693  uint256 contractTokenBalance */\n      0x00\n        /* \"contracts/oat.sol\":9696:9720  balanceOf(address(this)) */\n      tag_243\n        /* \"contracts/oat.sol\":9714:9718  this */\n      address\n        /* \"contracts/oat.sol\":9696:9705  balanceOf */\n      tag_66\n        /* \"contracts/oat.sol\":9696:9720  balanceOf(address(this)) */\n      jump\t// in\n    tag_243:\n        /* \"contracts/oat.sol\":9665:9720  uint256 contractTokenBalance = balanceOf(address(this)) */\n      swap1\n      pop\n        /* \"contracts/oat.sol\":9756:9762  inSwap */\n      0x0c\n      0x15\n      swap1\n      sload\n      swap1\n      0x0100\n      exp\n      swap1\n      div\n      0xff\n      and\n        /* \"contracts/oat.sol\":9755:9762  !inSwap */\n      iszero\n        /* \"contracts/oat.sol\":9755:9801  !inSwap &&... */\n      dup1\n      iszero\n      tag_244\n      jumpi\n      pop\n        /* \"contracts/oat.sol\":9788:9801  uniswapV2Pair */\n      0x0c\n      0x00\n      swap1\n      sload\n      swap1\n      0x0100\n      exp\n      swap1\n      div\n      0xffffffffffffffffffffffffffffffffffffffff\n      and\n        /* \"contracts/oat.sol\":9782:9801  to == uniswapV2Pair */\n      0xffffffffffffffffffffffffffffffffffffffff\n      and\n        /* \"contracts/oat.sol\":9782:9784  to */\n      dup5\n        /* \"contracts/oat.sol\":9782:9801  to == uniswapV2Pair */\n      0xffffffffffffffffffffffffffffffffffffffff\n      and\n      eq\n        /* \"contracts/oat.sol\":9755:9801  !inSwap &&... */\n    tag_244:\n        /* \"contracts/oat.sol\":9755:9832  !inSwap &&... */\n      dup1\n      iszero\n      tag_245\n      jumpi\n      pop\n        /* \"contracts/oat.sol\":9821:9832  swapEnabled */\n      0x0c\n      0x16\n      swap1\n      sload\n      swap1\n      0x0100\n      exp\n      swap1\n      div\n      0xff\n      and\n        /* \"contracts/oat.sol\":9755:9832  !inSwap &&... */\n    tag_245:\n        /* \"contracts/oat.sol\":9755:9892  !inSwap &&... */\n      dup1\n      iszero\n      tag_246\n      jumpi\n      pop\n        /* \"contracts/oat.sol\":9875:9892  _taxSwapThreshold */\n      sload(0x09)\n        /* \"contracts/oat.sol\":9852:9872  contractTokenBalance */\n      dup2\n        /* \"contracts/oat.sol\":9852:9892  contractTokenBalance > _taxSwapThreshold */\n      gt\n        /* \"contracts/oat.sol\":9755:9892  !inSwap &&... */\n    tag_246:\n        /* \"contracts/oat.sol\":9734:10245  if (... */\n      iszero\n      tag_247\n      jumpi\n        /* \"contracts/oat.sol\":9925:10032  swapTokensForEth(... */\n      tag_248\n        /* \"contracts/oat.sol\":9963:10014  min(amount, min(contractTokenBalance, _maxTaxSwap)) */\n      tag_249\n        /* \"contracts/oat.sol\":9967:9973  amount */\n      dup5\n        /* \"contracts/oat.sol\":9975:10013  min(contractTokenBalance, _maxTaxSwap) */\n      tag_250\n        /* \"contracts/oat.sol\":9979:9999  contractTokenBalance */\n      dup5\n        /* \"contracts/oat.sol\":10001:10012  _maxTaxSwap */\n      sload(0x0a)\n        /* \"contracts/oat.sol\":9975:9978  min */\n      tag_251\n        /* \"contracts/oat.sol\":9975:10013  min(contractTokenBalance, _maxTaxSwap) */\n      jump\t// in\n    tag_250:\n        /* \"contracts/oat.sol\":9963:9966  min */\n      tag_251\n        /* \"contracts/oat.sol\":9963:10014  min(amount, min(contractTokenBalance, _maxTaxSwap)) */\n      jump\t// in\n    tag_249:\n        /* \"contracts/oat.sol\":9925:9941  swapTokensForEth */\n      tag_140\n        /* \"contracts/oat.sol\":9925:10032  swapTokensForEth(... */\n      jump\t// in\n    tag_248:\n        /* \"contracts/oat.sol\":10050:10076  uint256 contractETHBalance */\n      0x00\n        /* \"contracts/oat.sol\":10079:10100  address(this).balance */\n      selfbalance\n        /* \"contracts/oat.sol\":10050:10100  uint256 contractETHBalance = address(this).balance */\n      swap1\n      pop\n        /* \"contracts/oat.sol\":10143:10153  0.05 ether */\n      0xb1a2bc2ec50000\n        /* \"contracts/oat.sol\":10122:10140  contractETHBalance */\n      dup2\n        /* \"contracts/oat.sol\":10122:10153  contractETHBalance > 0.05 ether */\n      gt\n        /* \"contracts/oat.sol\":10118:10231  if (contractETHBalance > 0.05 ether) {... */\n      iszero\n      tag_252\n      jumpi\n        /* \"contracts/oat.sol\":10177:10212  sendETHToFee(address(this).balance) */\n      tag_253\n        /* \"contracts/oat.sol\":10190:10211  address(this).balance */\n      selfbalance\n        /* \"contracts/oat.sol\":10177:10189  sendETHToFee */\n      tag_143\n        /* \"contracts/oat.sol\":10177:10212  sendETHToFee(address(this).balance) */\n      jump\t// in\n    tag_253:\n        /* \"contracts/oat.sol\":10118:10231  if (contractETHBalance > 0.05 ether) {... */\n    tag_252:\n        /* \"contracts/oat.sol\":9907:10245  {... */\n      pop\n        /* \"contracts/oat.sol\":9734:10245  if (... */\n    tag_247:\n        /* \"contracts/oat.sol\":8519:10255  {... */\n      pop\n        /* \"contracts/oat.sol\":8481:10255  if (from != owner() && to != owner()) {... */\n    tag_216:\n        /* \"contracts/oat.sol\":10281:10282  0 */\n      0x00\n        /* \"contracts/oat.sol\":10269:10278  taxAmount */\n      dup2\n        /* \"contracts/oat.sol\":10269:10282  taxAmount > 0 */\n      gt\n        /* \"contracts/oat.sol\":10265:10434  if (taxAmount > 0) {... */\n      iszero\n      tag_254\n      jumpi\n        /* \"contracts/oat.sol\":10325:10364  _balances[address(this)].add(taxAmount) */\n      tag_255\n        /* \"contracts/oat.sol\":10354:10363  taxAmount */\n      dup2\n        /* \"contracts/oat.sol\":10325:10334  _balances */\n      0x01\n        /* \"contracts/oat.sol\":10325:10349  _balances[address(this)] */\n      0x00\n        /* \"contracts/oat.sol\":10343:10347  this */\n      address\n        /* \"contracts/oat.sol\":10325:10349  _balances[address(this)] */\n      0xffffffffffffffffffffffffffffffffffffffff\n      and\n      0xffffffffffffffffffffffffffffffffffffffff\n      and\n      dup2\n      mstore\n      0x20\n      add\n      swap1\n      dup2\n      mstore\n      0x20\n      add\n      0x00\n      keccak256\n      sload\n        /* \"contracts/oat.sol\":10325:10353  _balances[address(this)].add */\n      tag_256\n      swap1\n        /* \"contracts/oat.sol\":10325:10364  _balances[address(this)].add(taxAmount) */\n      swap2\n      swap1\n      0xffffffff\n      and\n      jump\t// in\n    tag_255:\n        /* \"contracts/oat.sol\":10298:10307  _balances */\n      0x01\n        /* \"contracts/oat.sol\":10298:10322  _balances[address(this)] */\n      0x00\n        /* \"contracts/oat.sol\":10316:10320  this */\n      address\n        /* \"contracts/oat.sol\":10298:10322  _balances[address(this)] */\n      0xffffffffffffffffffffffffffffffffffffffff\n      and\n      0xffffffffffffffffffffffffffffffffffffffff\n      and\n      dup2\n      mstore\n      0x20\n      add\n      swap1\n      dup2\n      mstore\n      0x20\n      add\n      0x00\n      keccak256\n        /* \"contracts/oat.sol\":10298:10364  _balances[address(this)] = _balances[address(this)].add(taxAmount) */\n      dup2\n      swap1\n      sstore\n      pop\n        /* \"contracts/oat.sol\":10406:10410  this */\n      address\n        /* \"contracts/oat.sol\":10383:10423  Transfer(from, address(this), taxAmount) */\n      0xffffffffffffffffffffffffffffffffffffffff\n      and\n        /* \"contracts/oat.sol\":10392:10396  from */\n      dup5\n        /* \"contracts/oat.sol\":10383:10423  Transfer(from, address(this), taxAmount) */\n      0xffffffffffffffffffffffffffffffffffffffff\n      and\n      0xddf252ad1be2c89b69c2b068fc378daa952ba7f163c4a11628f55a4df523b3ef\n        /* \"contracts/oat.sol\":10413:10422  taxAmount */\n      dup4\n        /* \"contracts/oat.sol\":10383:10423  Transfer(from, address(this), taxAmount) */\n      mload(0x40)\n      tag_257\n      swap2\n      swap1\n      tag_43\n      jump\t// in\n    tag_257:\n      mload(0x40)\n      dup1\n      swap2\n      sub\n      swap1\n      log3\n        /* \"contracts/oat.sol\":10265:10434  if (taxAmount > 0) {... */\n    tag_254:\n        /* \"contracts/oat.sol\":10461:10488  _balances[from].sub(amount) */\n      tag_258\n        /* \"contracts/oat.sol\":10481:10487  amount */\n      dup3\n        /* \"contracts/oat.sol\":10461:10470  _balances */\n      0x01\n        /* \"contracts/oat.sol\":10461:10476  _balances[from] */\n      0x00\n        /* \"contracts/oat.sol\":10471:10475  from */\n      dup8\n        /* \"contracts/oat.sol\":10461:10476  _balances[from] */\n      0xffffffffffffffffffffffffffffffffffffffff\n      and\n      0xffffffffffffffffffffffffffffffffffffffff\n      and\n      dup2\n      mstore\n      0x20\n      add\n      swap1\n      dup2\n      mstore\n      0x20\n      add\n      0x00\n      keccak256\n      sload\n        /* \"contracts/oat.sol\":10461:10480  _balances[from].sub */\n      tag_259\n      swap1\n        /* \"contracts/oat.sol\":10461:10488  _balances[from].sub(amount) */\n      swap2\n      swap1\n      0xffffffff\n      and\n      jump\t// in\n    tag_258:\n        /* \"contracts/oat.sol\":10443:10452  _balances */\n      0x01\n        /* \"contracts/oat.sol\":10443:10458  _balances[from] */\n      0x00\n        /* \"contracts/oat.sol\":10453:10457  from */\n      dup7\n        /* \"contracts/oat.sol\":10443:10458  _balances[from] */\n      0xffffffffffffffffffffffffffffffffffffffff\n      and\n      0xffffffffffffffffffffffffffffffffffffffff\n      and\n      dup2\n      mstore\n      0x20\n      add\n      swap1\n      dup2\n      mstore\n      0x20\n      add\n      0x00\n      keccak256\n        /* \"contracts/oat.sol\":10443:10488  _balances[from] = _balances[from].sub(amount) */\n      dup2\n      swap1\n      sstore\n      pop\n        /* \"contracts/oat.sol\":10514:10554  _balances[to].add(amount.sub(taxAmount)) */\n      tag_260\n        /* \"contracts/oat.sol\":10532:10553  amount.sub(taxAmount) */\n      tag_261\n        /* \"contracts/oat.sol\":10543:10552  taxAmount */\n      dup3\n        /* \"contracts/oat.sol\":10532:10538  amount */\n      dup5\n        /* \"contracts/oat.sol\":10532:10542  amount.sub */\n      tag_259\n      swap1\n        /* \"contracts/oat.sol\":10532:10553  amount.sub(taxAmount) */\n      swap2\n      swap1\n      0xffffffff\n      and\n      jump\t// in\n    tag_261:\n        /* \"contracts/oat.sol\":10514:10523  _balances */\n      0x01\n        /* \"contracts/oat.sol\":10514:10527  _balances[to] */\n      0x00\n        /* \"contracts/oat.sol\":10524:10526  to */\n      dup7\n        /* \"contracts/oat.sol\":10514:10527  _balances[to] */\n      0xffffffffffffffffffffffffffffffffffffffff\n      and\n      0xffffffffffffffffffffffffffffffffffffffff\n      and\n      dup2\n      mstore\n      0x20\n      add\n      swap1\n      dup2\n      mstore\n      0x20\n      add\n      0x00\n      keccak256\n      sload\n        /* \"contracts/oat.sol\":10514:10531  _balances[to].add */\n      tag_256\n      swap1\n        /* \"contracts/oat.sol\":10514:10554  _balances[to].add(amount.sub(taxAmount)) */\n      swap2\n      swap1\n      0xffffffff\n      and\n      jump\t// in\n    tag_260:\n        /* \"contracts/oat.sol\":10498:10507  _balances */\n      0x01\n        /* \"contracts/oat.sol\":10498:10511  _balances[to] */\n      0x00\n        /* \"contracts/oat.sol\":10508:10510  to */\n      dup6\n        /* \"contracts/oat.sol\":10498:10511  _balances[to] */\n      0xffffffffffffffffffffffffffffffffffffffff\n      and\n      0xffffffffffffffffffffffffffffffffffffffff\n      and\n      dup2\n      mstore\n      0x20\n      add\n      swap1\n      dup2\n      mstore\n      0x20\n      add\n      0x00\n      keccak256\n        /* \"contracts/oat.sol\":10498:10554  _balances[to] = _balances[to].add(amount.sub(taxAmount)) */\n      dup2\n      swap1\n      sstore\n      pop\n        /* \"contracts/oat.sol\":10584:10586  to */\n      dup3\n        /* \"contracts/oat.sol\":10569:10610  Transfer(from, to, amount.sub(taxAmount)) */\n      0xffffffffffffffffffffffffffffffffffffffff\n      and\n        /* \"contracts/oat.sol\":10578:10582  from */\n      dup5\n        /* \"contracts/oat.sol\":10569:10610  Transfer(from, to, amount.sub(taxAmount)) */\n      0xffffffffffffffffffffffffffffffffffffffff\n      and\n      0xddf252ad1be2c89b69c2b068fc378daa952ba7f163c4a11628f55a4df523b3ef\n        /* \"contracts/oat.sol\":10588:10609  amount.sub(taxAmount) */\n      tag_262\n        /* \"contracts/oat.sol\":10599:10608  taxAmount */\n      dup5\n        /* \"contracts/oat.sol\":10588:10594  amount */\n      dup7\n        /* \"contracts/oat.sol\":10588:10598  amount.sub */\n      tag_259\n      swap1\n        /* \"contracts/oat.sol\":10588:10609  amount.sub(taxAmount) */\n      swap2\n      swap1\n      0xffffffff\n      and\n      jump\t// in\n    tag_262:\n        /* \"contracts/oat.sol\":10569:10610  Transfer(from, to, amount.sub(taxAmount)) */\n      mload(0x40)\n      tag_263\n      swap2\n      swap1\n      tag_43\n      jump\t// in\n    tag_263:\n      mload(0x40)\n      dup1\n      swap2\n      sub\n      swap1\n      log3\n        /* \"contracts/oat.sol\":8214:10617  {... */\n      pop\n        /* \"contracts/oat.sol\":8115:10617  function _transfer(... */\n      pop\n      pop\n      pop\n      jump\t// out\n        /* \"contracts/oat.sol\":2182:2398  function sub(... */\n    tag_132:\n        /* \"contracts/oat.sol\":2298:2305  uint256 */\n      0x00\n        /* \"contracts/oat.sol\":2330:2331  a */\n      dup4\n        /* \"contracts/oat.sol\":2325:2326  b */\n      dup4\n        /* \"contracts/oat.sol\":2325:2331  b <= a */\n      gt\n      iszero\n        /* \"contracts/oat.sol\":2333:2345  errorMessage */\n      dup3\n        /* \"contracts/oat.sol\":2317:2346  require(b <= a, errorMessage) */\n      swap1\n      tag_265\n      jumpi\n      mload(0x40)\n      0x08c379a000000000000000000000000000000000000000000000000000000000\n      dup2\n      mstore\n      0x04\n      add\n      tag_266\n      swap2\n      swap1\n      tag_31\n      jump\t// in\n    tag_266:\n      mload(0x40)\n      dup1\n      swap2\n      sub\n      swap1\n      revert\n    tag_265:\n      pop\n        /* \"contracts/oat.sol\":2356:2365  uint256 c */\n      0x00\n        /* \"contracts/oat.sol\":2372:2373  b */\n      dup4\n        /* \"contracts/oat.sol\":2368:2369  a */\n      dup6\n        /* \"contracts/oat.sol\":2368:2373  a - b */\n      tag_267\n      swap2\n      swap1\n      tag_268\n      jump\t// in\n    tag_267:\n        /* \"contracts/oat.sol\":2356:2373  uint256 c = a - b */\n      swap1\n      pop\n        /* \"contracts/oat.sol\":2390:2391  c */\n      dup1\n        /* \"contracts/oat.sol\":2383:2391  return c */\n      swap2\n      pop\n      pop\n        /* \"contracts/oat.sol\":2182:2398  function sub(... */\n      swap4\n      swap3\n      pop\n      pop\n      pop\n      jump\t// out\n        /* \"contracts/oat.sol\":10734:11205  function swapTokensForEth(uint256 tokenAmount) private lockTheSwap {... */\n    tag_140:\n        /* \"contracts/oat.sol\":5838:5842  true */\n      0x01\n        /* \"contracts/oat.sol\":5829:5835  inSwap */\n      0x0c\n      0x15\n        /* \"contracts/oat.sol\":5829:5842  inSwap = true */\n      0x0100\n      exp\n      dup2\n      sload\n      dup2\n      0xff\n      mul\n      not\n      and\n      swap1\n      dup4\n      iszero\n      iszero\n      mul\n      or\n      swap1\n      sstore\n      pop\n        /* \"contracts/oat.sol\":10811:10832  address[] memory path */\n      0x00\n        /* \"contracts/oat.sol\":10849:10850  2 */\n      0x02\n        /* \"contracts/oat.sol\":10835:10851  new address[](2) */\n      0xffffffffffffffff\n      dup2\n      gt\n      iszero\n      tag_271\n      jumpi\n      tag_272\n      tag_273\n      jump\t// in\n    tag_272:\n    tag_271:\n      mload(0x40)\n      swap1\n      dup1\n      dup3\n      mstore\n      dup1\n      0x20\n      mul\n      0x20\n      add\n      dup3\n      add\n      0x40\n      mstore\n      dup1\n      iszero\n      tag_274\n      jumpi\n      dup2\n      0x20\n      add\n      0x20\n      dup3\n      mul\n      dup1\n      calldatasize\n      dup4\n      calldatacopy\n      dup1\n      dup3\n      add\n      swap2\n      pop\n      pop\n      swap1\n      pop\n    tag_274:\n      pop\n        /* \"contracts/oat.sol\":10811:10851  address[] memory path = new address[](2) */\n      swap1\n      pop\n        /* \"contracts/oat.sol\":10879:10883  this */\n      address\n        /* \"contracts/oat.sol\":10861:10865  path */\n      dup2\n        /* \"contracts/oat.sol\":10866:10867  0 */\n      0x00\n        /* \"contracts/oat.sol\":10861:10868  path[0] */\n      dup2\n      mload\n      dup2\n      lt\n      tag_275\n      jumpi\n      tag_276\n      tag_277\n      jump\t// in\n    tag_276:\n    tag_275:\n      0x20\n      mul\n      0x20\n      add\n      add\n        /* \"contracts/oat.sol\":10861:10884  path[0] = address(this) */\n      swap1\n      0xffffffffffffffffffffffffffffffffffffffff\n      and\n      swap1\n      dup2\n      0xffffffffffffffffffffffffffffffffffffffff\n      and\n      dup2\n      mstore\n      pop\n      pop\n        /* \"contracts/oat.sol\":10904:10919  uniswapV2Router */\n      0x0b\n      0x00\n      swap1\n      sload\n      swap1\n      0x0100\n      exp\n      swap1\n      div\n      0xffffffffffffffffffffffffffffffffffffffff\n      and\n        /* \"contracts/oat.sol\":10904:10924  uniswapV2Router.WETH */\n      0xffffffffffffffffffffffffffffffffffffffff\n      and\n      0xad5c4648\n        /* \"contracts/oat.sol\":10904:10926  uniswapV2Router.WETH() */\n      mload(0x40)\n      dup2\n      0xffffffff\n      and\n      0xe0\n      shl\n      dup2\n      mstore\n      0x04\n      add\n      0x20\n      mload(0x40)\n      dup1\n      dup4\n      sub\n      dup2\n      dup7\n      gas\n      staticcall\n      iszero\n      dup1\n      iszero\n      tag_279\n      jumpi\n      returndatasize\n      0x00\n      dup1\n      returndatacopy\n      revert(0x00, returndatasize)\n    tag_279:\n      pop\n      pop\n      pop\n      pop\n      mload(0x40)\n      returndatasize\n      not(0x1f)\n      0x1f\n      dup3\n      add\n      and\n      dup3\n      add\n      dup1\n      0x40\n      mstore\n      pop\n      dup2\n      add\n      swap1\n      tag_280\n      swap2\n      swap1\n      tag_170\n      jump\t// in\n    tag_280:\n        /* \"contracts/oat.sol\":10894:10898  path */\n      dup2\n        /* \"contracts/oat.sol\":10899:10900  1 */\n      0x01\n        /* \"contracts/oat.sol\":10894:10901  path[1] */\n      dup2\n      mload\n      dup2\n      lt\n      tag_281\n      jumpi\n      tag_282\n      tag_277\n      jump\t// in\n    tag_282:\n    tag_281:\n      0x20\n      mul\n      0x20\n      add\n      add\n        /* \"contracts/oat.sol\":10894:10926  path[1] = uniswapV2Router.WETH() */\n      swap1\n      0xffffffffffffffffffffffffffffffffffffffff\n      and\n      swap1\n      dup2\n      0xffffffffffffffffffffffffffffffffffffffff\n      and\n      dup2\n      mstore\n      pop\n      pop\n        /* \"contracts/oat.sol\":10936:10998  _approve(address(this), address(uniswapV2Router), tokenAmount) */\n      tag_283\n        /* \"contracts/oat.sol\":10953:10957  this */\n      address\n        /* \"contracts/oat.sol\":10968:10983  uniswapV2Router */\n      0x0b\n      0x00\n      swap1\n      sload\n      swap1\n      0x0100\n      exp\n      swap1\n      div\n      0xffffffffffffffffffffffffffffffffffffffff\n      and\n        /* \"contracts/oat.sol\":10986:10997  tokenAmount */\n      dup5\n        /* \"contracts/oat.sol\":10936:10944  _approve */\n      tag_119\n        /* \"contracts/oat.sol\":10936:10998  _approve(address(this), address(uniswapV2Router), tokenAmount) */\n      jump\t// in\n    tag_283:\n        /* \"contracts/oat.sol\":11008:11023  uniswapV2Router */\n      0x0b\n      0x00\n      swap1\n      sload\n      swap1\n      0x0100\n      exp\n      swap1\n      div\n      0xffffffffffffffffffffffffffffffffffffffff\n      and\n        /* \"contracts/oat.sol\":11008:11074  uniswapV2Router.swapExactTokensForETHSupportingFeeOnTransferTokens */\n      0xffffffffffffffffffffffffffffffffffffffff\n      and\n      0x791ac947\n        /* \"contracts/oat.sol\":11088:11099  tokenAmount */\n      dup4\n        /* \"contracts/oat.sol\":11113:11114  0 */\n      0x00\n        /* \"contracts/oat.sol\":11128:11132  path */\n      dup5\n        /* \"contracts/oat.sol\":11154:11158  this */\n      address\n        /* \"contracts/oat.sol\":11173:11188  block.timestamp */\n      timestamp\n        /* \"contracts/oat.sol\":11008:11198  uniswapV2Router.swapExactTokensForETHSupportingFeeOnTransferTokens(... */\n      mload(0x40)\n      dup7\n      0xffffffff\n      and\n      0xe0\n      shl\n      dup2\n      mstore\n      0x04\n      add\n      tag_284\n      swap6\n      swap5\n      swap4\n      swap3\n      swap2\n      swap1\n      tag_285\n      jump\t// in\n    tag_284:\n      0x00\n      mload(0x40)\n      dup1\n      dup4\n      sub\n      dup2\n      0x00\n      dup8\n      dup1\n      extcodesize\n      iszero\n      dup1\n      iszero\n      tag_286\n      jumpi\n      0x00\n      dup1\n      revert\n    tag_286:\n      pop\n      gas\n      call\n      iszero\n      dup1\n      iszero\n      tag_288\n      jumpi\n      returndatasize\n      0x00\n      dup1\n      returndatacopy\n      revert(0x00, returndatasize)\n    tag_288:\n      pop\n      pop\n      pop\n      pop\n        /* \"contracts/oat.sol\":10801:11205  {... */\n      pop\n        /* \"contracts/oat.sol\":5872:5877  false */\n      0x00\n        /* \"contracts/oat.sol\":5863:5869  inSwap */\n      0x0c\n      0x15\n        /* \"contracts/oat.sol\":5863:5877  inSwap = false */\n      0x0100\n      exp\n      dup2\n      sload\n      dup2\n      0xff\n      mul\n      not\n      and\n      swap1\n      dup4\n      iszero\n      iszero\n      mul\n      or\n      swap1\n      sstore\n      pop\n        /* \"contracts/oat.sol\":10734:11205  function swapTokensForEth(uint256 tokenAmount) private lockTheSwap {... */\n      pop\n      jump\t// out\n        /* \"contracts/oat.sol\":11211:11301  function sendETHToFee(uint256 amount) private {... */\n    tag_143:\n        /* \"contracts/oat.sol\":11267:11277  _taxWallet */\n      0x06\n      0x01\n      swap1\n      sload\n      swap1\n      0x0100\n      exp\n      swap1\n      div\n      0xffffffffffffffffffffffffffffffffffffffff\n      and\n        /* \"contracts/oat.sol\":11267:11286  _taxWallet.transfer */\n      0xffffffffffffffffffffffffffffffffffffffff\n      and\n        /* \"contracts/oat.sol\":11267:11294  _taxWallet.transfer(amount) */\n      0x08fc\n        /* \"contracts/oat.sol\":11287:11293  amount */\n      dup3\n        /* \"contracts/oat.sol\":11267:11294  _taxWallet.transfer(amount) */\n      swap1\n      dup2\n      iszero\n      mul\n      swap1\n      mload(0x40)\n      0x00\n      mload(0x40)\n      dup1\n      dup4\n      sub\n      dup2\n      dup6\n      dup9\n      dup9\n      call\n      swap4\n      pop\n      pop\n      pop\n      pop\n      iszero\n      dup1\n      iszero\n      tag_291\n      jumpi\n      returndatasize\n      0x00\n      dup1\n      returndatacopy\n      revert(0x00, returndatasize)\n    tag_291:\n      pop\n        /* \"contracts/oat.sol\":11211:11301  function sendETHToFee(uint256 amount) private {... */\n      pop\n      jump\t// out\n        /* \"contracts/oat.sol\":2404:2643  function mul(uint256 a, uint256 b) internal pure returns (uint256) {... */\n    tag_219:\n        /* \"contracts/oat.sol\":2462:2469  uint256 */\n      0x00\n        /* \"contracts/oat.sol\":2490:2491  0 */\n      dup1\n        /* \"contracts/oat.sol\":2485:2486  a */\n      dup4\n        /* \"contracts/oat.sol\":2485:2491  a == 0 */\n      sub\n        /* \"contracts/oat.sol\":2481:2526  if (a == 0) {... */\n      tag_293\n      jumpi\n        /* \"contracts/oat.sol\":2514:2515  0 */\n      0x00\n        /* \"contracts/oat.sol\":2507:2515  return 0 */\n      swap1\n      pop\n      jump(tag_292)\n        /* \"contracts/oat.sol\":2481:2526  if (a == 0) {... */\n    tag_293:\n        /* \"contracts/oat.sol\":2535:2544  uint256 c */\n      0x00\n        /* \"contracts/oat.sol\":2551:2552  b */\n      dup3\n        /* \"contracts/oat.sol\":2547:2548  a */\n      dup5\n        /* \"contracts/oat.sol\":2547:2552  a * b */\n      tag_294\n      swap2\n      swap1\n      tag_124\n      jump\t// in\n    tag_294:\n        /* \"contracts/oat.sol\":2535:2552  uint256 c = a * b */\n      swap1\n      pop\n        /* \"contracts/oat.sol\":2579:2580  b */\n      dup3\n        /* \"contracts/oat.sol\":2574:2575  a */\n      dup5\n        /* \"contracts/oat.sol\":2570:2571  c */\n      dup3\n        /* \"contracts/oat.sol\":2570:2575  c / a */\n      tag_295\n      swap2\n      swap1\n      tag_296\n      jump\t// in\n    tag_295:\n        /* \"contracts/oat.sol\":2570:2580  c / a == b */\n      eq\n        /* \"contracts/oat.sol\":2562:2618  require(c / a == b, \"SafeMath: multiplication overflow\") */\n      tag_297\n      jumpi\n      mload(0x40)\n      0x08c379a000000000000000000000000000000000000000000000000000000000\n      dup2\n      mstore\n      0x04\n      add\n      tag_298\n      swap1\n      tag_299\n      jump\t// in\n    tag_298:\n      mload(0x40)\n      dup1\n      swap2\n      sub\n      swap1\n      revert\n    tag_297:\n        /* \"contracts/oat.sol\":2635:2636  c */\n      dup1\n        /* \"contracts/oat.sol\":2628:2636  return c */\n      swap2\n      pop\n      pop\n        /* \"contracts/oat.sol\":2404:2643  function mul(uint256 a, uint256 b) internal pure returns (uint256) {... */\n    tag_292:\n      swap3\n      swap2\n      pop\n      pop\n      jump\t// out\n        /* \"contracts/oat.sol\":2649:2779  function div(uint256 a, uint256 b) internal pure returns (uint256) {... */\n    tag_220:\n        /* \"contracts/oat.sol\":2707:2714  uint256 */\n      0x00\n        /* \"contracts/oat.sol\":2733:2772  div(a, b, \"SafeMath: division by zero\") */\n      tag_301\n        /* \"contracts/oat.sol\":2737:2738  a */\n      dup4\n        /* \"contracts/oat.sol\":2740:2741  b */\n      dup4\n        /* \"contracts/oat.sol\":2733:2772  div(a, b, \"SafeMath: division by zero\") */\n      mload(0x40)\n      dup1\n      0x40\n      add\n      0x40\n      mstore\n      dup1\n      0x1a\n      dup2\n      mstore\n      0x20\n      add\n      0x536166654d6174683a206469766973696f6e206279207a65726f000000000000\n      dup2\n      mstore\n      pop\n        /* \"contracts/oat.sol\":2733:2736  div */\n      tag_302\n        /* \"contracts/oat.sol\":2733:2772  div(a, b, \"SafeMath: division by zero\") */\n      jump\t// in\n    tag_301:\n        /* \"contracts/oat.sol\":2726:2772  return div(a, b, \"SafeMath: division by zero\") */\n      swap1\n      pop\n        /* \"contracts/oat.sol\":2649:2779  function div(uint256 a, uint256 b) internal pure returns (uint256) {... */\n      swap3\n      swap2\n      pop\n      pop\n      jump\t// out\n        /* \"contracts/oat.sol\":10623:10728  function min(uint256 a, uint256 b) private pure returns (uint256) {... */\n    tag_251:\n        /* \"contracts/oat.sol\":10680:10687  uint256 */\n      0x00\n        /* \"contracts/oat.sol\":10711:10712  b */\n      dup2\n        /* \"contracts/oat.sol\":10707:10708  a */\n      dup4\n        /* \"contracts/oat.sol\":10707:10712  a > b */\n      gt\n        /* \"contracts/oat.sol\":10706:10721  (a > b) ? b : a */\n      tag_304\n      jumpi\n        /* \"contracts/oat.sol\":10720:10721  a */\n      dup3\n        /* \"contracts/oat.sol\":10706:10721  (a > b) ? b : a */\n      jump(tag_305)\n    tag_304:\n        /* \"contracts/oat.sol\":10716:10717  b */\n      dup2\n        /* \"contracts/oat.sol\":10706:10721  (a > b) ? b : a */\n    tag_305:\n        /* \"contracts/oat.sol\":10699:10721  return (a > b) ? b : a */\n      swap1\n      pop\n        /* \"contracts/oat.sol\":10623:10728  function min(uint256 a, uint256 b) private pure returns (uint256) {... */\n      swap3\n      swap2\n      pop\n      pop\n      jump\t// out\n        /* \"contracts/oat.sol\":1861:2036  function add(uint256 a, uint256 b) internal pure returns (uint256) {... */\n    tag_256:\n        /* \"contracts/oat.sol\":1919:1926  uint256 */\n      0x00\n        /* \"contracts/oat.sol\":1938:1947  uint256 c */\n      dup1\n        /* \"contracts/oat.sol\":1954:1955  b */\n      dup3\n        /* \"contracts/oat.sol\":1950:1951  a */\n      dup5\n        /* \"contracts/oat.sol\":1950:1955  a + b */\n      tag_307\n      swap2\n      swap1\n      tag_235\n      jump\t// in\n    tag_307:\n        /* \"contracts/oat.sol\":1938:1955  uint256 c = a + b */\n      swap1\n      pop\n        /* \"contracts/oat.sol\":1978:1979  a */\n      dup4\n        /* \"contracts/oat.sol\":1973:1974  c */\n      dup2\n        /* \"contracts/oat.sol\":1973:1979  c >= a */\n      lt\n      iszero\n        /* \"contracts/oat.sol\":1965:2011  require(c >= a, \"SafeMath: addition overflow\") */\n      tag_308\n      jumpi\n      mload(0x40)\n      0x08c379a000000000000000000000000000000000000000000000000000000000\n      dup2\n      mstore\n      0x04\n      add\n      tag_309\n      swap1\n      tag_310\n      jump\t// in\n    tag_309:\n      mload(0x40)\n      dup1\n      swap2\n      sub\n      swap1\n      revert\n    tag_308:\n        /* \"contracts/oat.sol\":2028:2029  c */\n      dup1\n        /* \"contracts/oat.sol\":2021:2029  return c */\n      swap2\n      pop\n      pop\n        /* \"contracts/oat.sol\":1861:2036  function add(uint256 a, uint256 b) internal pure returns (uint256) {... */\n      swap3\n      swap2\n      pop\n      pop\n      jump\t// out\n        /* \"contracts/oat.sol\":2042:2176  function sub(uint256 a, uint256 b) internal pure returns (uint256) {... */\n    tag_259:\n        /* \"contracts/oat.sol\":2100:2107  uint256 */\n      0x00\n        /* \"contracts/oat.sol\":2126:2169  sub(a, b, \"SafeMath: subtraction overflow\") */\n      tag_312\n        /* \"contracts/oat.sol\":2130:2131  a */\n      dup4\n        /* \"contracts/oat.sol\":2133:2134  b */\n      dup4\n        /* \"contracts/oat.sol\":2126:2169  sub(a, b, \"SafeMath: subtraction overflow\") */\n      mload(0x40)\n      dup1\n      0x40\n      add\n      0x40\n      mstore\n      dup1\n      0x1e\n      dup2\n      mstore\n      0x20\n      add\n      0x536166654d6174683a207375627472616374696f6e206f766572666c6f770000\n      dup2\n      mstore\n      pop\n        /* \"contracts/oat.sol\":2126:2129  sub */\n      tag_132\n        /* \"contracts/oat.sol\":2126:2169  sub(a, b, \"SafeMath: subtraction overflow\") */\n      jump\t// in\n    tag_312:\n        /* \"contracts/oat.sol\":2119:2169  return sub(a, b, \"SafeMath: subtraction overflow\") */\n      swap1\n      pop\n        /* \"contracts/oat.sol\":2042:2176  function sub(uint256 a, uint256 b) internal pure returns (uint256) {... */\n      swap3\n      swap2\n      pop\n      pop\n      jump\t// out\n        /* \"contracts/oat.sol\":2785:3000  function div(... */\n    tag_302:\n        /* \"contracts/oat.sol\":2901:2908  uint256 */\n      0x00\n        /* \"contracts/oat.sol\":2932:2933  0 */\n      dup1\n        /* \"contracts/oat.sol\":2928:2929  b */\n      dup4\n        /* \"contracts/oat.sol\":2928:2933  b > 0 */\n      gt\n        /* \"contracts/oat.sol\":2935:2947  errorMessage */\n      dup3\n        /* \"contracts/oat.sol\":2920:2948  require(b > 0, errorMessage) */\n      swap1\n      tag_314\n      jumpi\n      mload(0x40)\n      0x08c379a000000000000000000000000000000000000000000000000000000000\n      dup2\n      mstore\n      0x04\n      add\n      tag_315\n      swap2\n      swap1\n      tag_31\n      jump\t// in\n    tag_315:\n      mload(0x40)\n      dup1\n      swap2\n      sub\n      swap1\n      revert\n    tag_314:\n      pop\n        /* \"contracts/oat.sol\":2958:2967  uint256 c */\n      0x00\n        /* \"contracts/oat.sol\":2974:2975  b */\n      dup4\n        /* \"contracts/oat.sol\":2970:2971  a */\n      dup6\n        /* \"contracts/oat.sol\":2970:2975  a / b */\n      tag_316\n      swap2\n      swap1\n      tag_296\n      jump\t// in\n    tag_316:\n        /* \"contracts/oat.sol\":2958:2975  uint256 c = a / b */\n      swap1\n      pop\n        /* \"contracts/oat.sol\":2992:2993  c */\n      dup1\n        /* \"contracts/oat.sol\":2985:2993  return c */\n      swap2\n      pop\n      pop\n        /* \"contracts/oat.sol\":2785:3000  function div(... */\n      swap4\n      swap3\n      pop\n      pop\n      pop\n      jump\t// out\n        /* \"#utility.yul\":7:106   */\n    tag_317:\n        /* \"#utility.yul\":59:65   */\n      0x00\n        /* \"#utility.yul\":93:98   */\n      dup2\n        /* \"#utility.yul\":87:99   */\n      mload\n        /* \"#utility.yul\":77:99   */\n      swap1\n      pop\n        /* \"#utility.yul\":7:106   */\n      swap2\n      swap1\n      pop\n      jump\t// out\n        /* \"#utility.yul\":112:281   */\n    tag_318:\n        /* \"#utility.yul\":196:207   */\n      0x00\n        /* \"#utility.yul\":230:236   */\n      dup3\n        /* \"#utility.yul\":225:228   */\n      dup3\n        /* \"#utility.yul\":218:237   */\n      mstore\n        /* \"#utility.yul\":270:274   */\n      0x20\n        /* \"#utility.yul\":265:268   */\n      dup3\n        /* \"#utility.yul\":261:275   */\n      add\n        /* \"#utility.yul\":246:275   */\n      swap1\n      pop\n        /* \"#utility.yul\":112:281   */\n      swap3\n      swap2\n      pop\n      pop\n      jump\t// out\n        /* \"#utility.yul\":287:533   */\n    tag_319:\n        /* \"#utility.yul\":368:369   */\n      0x00\n        /* \"#utility.yul\":378:491   */\n    tag_386:\n        /* \"#utility.yul\":392:398   */\n      dup4\n        /* \"#utility.yul\":389:390   */\n      dup2\n        /* \"#utility.yul\":386:399   */\n      lt\n        /* \"#utility.yul\":378:491   */\n      iszero\n      tag_388\n      jumpi\n        /* \"#utility.yul\":477:478   */\n      dup1\n        /* \"#utility.yul\":472:475   */\n      dup3\n        /* \"#utility.yul\":468:479   */\n      add\n        /* \"#utility.yul\":462:480   */\n      mload\n        /* \"#utility.yul\":458:459   */\n      dup2\n        /* \"#utility.yul\":453:456   */\n      dup5\n        /* \"#utility.yul\":449:460   */\n      add\n        /* \"#utility.yul\":442:481   */\n      mstore\n        /* \"#utility.yul\":414:416   */\n      0x20\n        /* \"#utility.yul\":411:412   */\n      dup2\n        /* \"#utility.yul\":407:417   */\n      add\n        /* \"#utility.yul\":402:417   */\n      swap1\n      pop\n        /* \"#utility.yul\":378:491   */\n      jump(tag_386)\n    tag_388:\n        /* \"#utility.yul\":525:526   */\n      0x00\n        /* \"#utility.yul\":516:522   */\n      dup5\n        /* \"#utility.yul\":511:514   */\n      dup5\n        /* \"#utility.yul\":507:523   */\n      add\n        /* \"#utility.yul\":500:527   */\n      mstore\n        /* \"#utility.yul\":349:533   */\n      pop\n        /* \"#utility.yul\":287:533   */\n      pop\n      pop\n      pop\n      jump\t// out\n        /* \"#utility.yul\":539:641   */\n    tag_320:\n        /* \"#utility.yul\":580:586   */\n      0x00\n        /* \"#utility.yul\":631:633   */\n      0x1f\n        /* \"#utility.yul\":627:634   */\n      not\n        /* \"#utility.yul\":622:624   */\n      0x1f\n        /* \"#utility.yul\":615:620   */\n      dup4\n        /* \"#utility.yul\":611:625   */\n      add\n        /* \"#utility.yul\":607:635   */\n      and\n        /* \"#utility.yul\":597:635   */\n      swap1\n      pop\n        /* \"#utility.yul\":539:641   */\n      swap2\n      swap1\n      pop\n      jump\t// out\n        /* \"#utility.yul\":647:1024   */\n    tag_321:\n        /* \"#utility.yul\":735:738   */\n      0x00\n        /* \"#utility.yul\":763:802   */\n      tag_391\n        /* \"#utility.yul\":796:801   */\n      dup3\n        /* \"#utility.yul\":763:802   */\n      tag_317\n      jump\t// in\n    tag_391:\n        /* \"#utility.yul\":818:889   */\n      tag_392\n        /* \"#utility.yul\":882:888   */\n      dup2\n        /* \"#utility.yul\":877:880   */\n      dup6\n        /* \"#utility.yul\":818:889   */\n      tag_318\n      jump\t// in\n    tag_392:\n        /* \"#utility.yul\":811:889   */\n      swap4\n      pop\n        /* \"#utility.yul\":898:963   */\n      tag_393\n        /* \"#utility.yul\":956:962   */\n      dup2\n        /* \"#utility.yul\":951:954   */\n      dup6\n        /* \"#utility.yul\":944:948   */\n      0x20\n        /* \"#utility.yul\":937:942   */\n      dup7\n        /* \"#utility.yul\":933:949   */\n      add\n        /* \"#utility.yul\":898:963   */\n      tag_319\n      jump\t// in\n    tag_393:\n        /* \"#utility.yul\":988:1017   */\n      tag_394\n        /* \"#utility.yul\":1010:1016   */\n      dup2\n        /* \"#utility.yul\":988:1017   */\n      tag_320\n      jump\t// in\n    tag_394:\n        /* \"#utility.yul\":983:986   */\n      dup5\n        /* \"#utility.yul\":979:1018   */\n      add\n        /* \"#utility.yul\":972:1018   */\n      swap2\n      pop\n        /* \"#utility.yul\":739:1024   */\n      pop\n        /* \"#utility.yul\":647:1024   */\n      swap3\n      swap2\n      pop\n      pop\n      jump\t// out\n        /* \"#utility.yul\":1030:1343   */\n    tag_31:\n        /* \"#utility.yul\":1143:1147   */\n      0x00\n        /* \"#utility.yul\":1181:1183   */\n      0x20\n        /* \"#utility.yul\":1170:1179   */\n      dup3\n        /* \"#utility.yul\":1166:1184   */\n      add\n        /* \"#utility.yul\":1158:1184   */\n      swap1\n      pop\n        /* \"#utility.yul\":1230:1239   */\n      dup2\n        /* \"#utility.yul\":1224:1228   */\n      dup2\n        /* \"#utility.yul\":1220:1240   */\n      sub\n        /* \"#utility.yul\":1216:1217   */\n      0x00\n        /* \"#utility.yul\":1205:1214   */\n      dup4\n        /* \"#utility.yul\":1201:1218   */\n      add\n        /* \"#utility.yul\":1194:1241   */\n      mstore\n        /* \"#utility.yul\":1258:1336   */\n      tag_396\n        /* \"#utility.yul\":1331:1335   */\n      dup2\n        /* \"#utility.yul\":1322:1328   */\n      dup5\n        /* \"#utility.yul\":1258:1336   */\n      tag_321\n      jump\t// in\n    tag_396:\n        /* \"#utility.yul\":1250:1336   */\n      swap1\n      pop\n        /* \"#utility.yul\":1030:1343   */\n      swap3\n      swap2\n      pop\n      pop\n      jump\t// out\n        /* \"#utility.yul\":1430:1547   */\n    tag_323:\n        /* \"#utility.yul\":1539:1540   */\n      0x00\n        /* \"#utility.yul\":1536:1537   */\n      dup1\n        /* \"#utility.yul\":1529:1541   */\n      revert\n        /* \"#utility.yul\":1676:1802   */\n    tag_325:\n        /* \"#utility.yul\":1713:1720   */\n      0x00\n        /* \"#utility.yul\":1753:1795   */\n      0xffffffffffffffffffffffffffffffffffffffff\n        /* \"#utility.yul\":1746:1751   */\n      dup3\n        /* \"#utility.yul\":1742:1796   */\n      and\n        /* \"#utility.yul\":1731:1796   */\n      swap1\n      pop\n        /* \"#utility.yul\":1676:1802   */\n      swap2\n      swap1\n      pop\n      jump\t// out\n        /* \"#utility.yul\":1808:1904   */\n    tag_326:\n        /* \"#utility.yul\":1845:1852   */\n      0x00\n        /* \"#utility.yul\":1874:1898   */\n      tag_402\n        /* \"#utility.yul\":1892:1897   */\n      dup3\n        /* \"#utility.yul\":1874:1898   */\n      tag_325\n      jump\t// in\n    tag_402:\n        /* \"#utility.yul\":1863:1898   */\n      swap1\n      pop\n        /* \"#utility.yul\":1808:1904   */\n      swap2\n      swap1\n      pop\n      jump\t// out\n        /* \"#utility.yul\":1910:2032   */\n    tag_327:\n        /* \"#utility.yul\":1983:2007   */\n      tag_404\n        /* \"#utility.yul\":2001:2006   */\n      dup2\n        /* \"#utility.yul\":1983:2007   */\n      tag_326\n      jump\t// in\n    tag_404:\n        /* \"#utility.yul\":1976:1981   */\n      dup2\n        /* \"#utility.yul\":1973:2008   */\n      eq\n        /* \"#utility.yul\":1963:2026   */\n      tag_405\n      jumpi\n        /* \"#utility.yul\":2022:2023   */\n      0x00\n        /* \"#utility.yul\":2019:2020   */\n      dup1\n        /* \"#utility.yul\":2012:2024   */\n      revert\n        /* \"#utility.yul\":1963:2026   */\n    tag_405:\n        /* \"#utility.yul\":1910:2032   */\n      pop\n      jump\t// out\n        /* \"#utility.yul\":2038:2177   */\n    tag_328:\n        /* \"#utility.yul\":2084:2089   */\n      0x00\n        /* \"#utility.yul\":2122:2128   */\n      dup2\n        /* \"#utility.yul\":2109:2129   */\n      calldataload\n        /* \"#utility.yul\":2100:2129   */\n      swap1\n      pop\n        /* \"#utility.yul\":2138:2171   */\n      tag_407\n        /* \"#utility.yul\":2165:2170   */\n      dup2\n        /* \"#utility.yul\":2138:2171   */\n      tag_327\n      jump\t// in\n    tag_407:\n        /* \"#utility.yul\":2038:2177   */\n      swap3\n      swap2\n      pop\n      pop\n      jump\t// out\n        /* \"#utility.yul\":2183:2260   */\n    tag_329:\n        /* \"#utility.yul\":2220:2227   */\n      0x00\n        /* \"#utility.yul\":2249:2254   */\n      dup2\n        /* \"#utility.yul\":2238:2254   */\n      swap1\n      pop\n        /* \"#utility.yul\":2183:2260   */\n      swap2\n      swap1\n      pop\n      jump\t// out\n        /* \"#utility.yul\":2266:2388   */\n    tag_330:\n        /* \"#utility.yul\":2339:2363   */\n      tag_410\n        /* \"#utility.yul\":2357:2362   */\n      dup2\n        /* \"#utility.yul\":2339:2363   */\n      tag_329\n      jump\t// in\n    tag_410:\n        /* \"#utility.yul\":2332:2337   */\n      dup2\n        /* \"#utility.yul\":2329:2364   */\n      eq\n        /* \"#utility.yul\":2319:2382   */\n      tag_411\n      jumpi\n        /* \"#utility.yul\":2378:2379   */\n      0x00\n        /* \"#utility.yul\":2375:2376   */\n      dup1\n        /* \"#utility.yul\":2368:2380   */\n      revert\n        /* \"#utility.yul\":2319:2382   */\n    tag_411:\n        /* \"#utility.yul\":2266:2388   */\n      pop\n      jump\t// out\n        /* \"#utility.yul\":2394:2533   */\n    tag_331:\n        /* \"#utility.yul\":2440:2445   */\n      0x00\n        /* \"#utility.yul\":2478:2484   */\n      dup2\n        /* \"#utility.yul\":2465:2485   */\n      calldataload\n        /* \"#utility.yul\":2456:2485   */\n      swap1\n      pop\n        /* \"#utility.yul\":2494:2527   */\n      tag_413\n        /* \"#utility.yul\":2521:2526   */\n      dup2\n        /* \"#utility.yul\":2494:2527   */\n      tag_330\n      jump\t// in\n    tag_413:\n        /* \"#utility.yul\":2394:2533   */\n      swap3\n      swap2\n      pop\n      pop\n      jump\t// out\n        /* \"#utility.yul\":2539:3013   */\n    tag_35:\n        /* \"#utility.yul\":2607:2613   */\n      0x00\n        /* \"#utility.yul\":2615:2621   */\n      dup1\n        /* \"#utility.yul\":2664:2666   */\n      0x40\n        /* \"#utility.yul\":2652:2661   */\n      dup4\n        /* \"#utility.yul\":2643:2650   */\n      dup6\n        /* \"#utility.yul\":2639:2662   */\n      sub\n        /* \"#utility.yul\":2635:2667   */\n      slt\n        /* \"#utility.yul\":2632:2751   */\n      iszero\n      tag_415\n      jumpi\n        /* \"#utility.yul\":2670:2749   */\n      tag_416\n      tag_323\n      jump\t// in\n    tag_416:\n        /* \"#utility.yul\":2632:2751   */\n    tag_415:\n        /* \"#utility.yul\":2790:2791   */\n      0x00\n        /* \"#utility.yul\":2815:2868   */\n      tag_417\n        /* \"#utility.yul\":2860:2867   */\n      dup6\n        /* \"#utility.yul\":2851:2857   */\n      dup3\n        /* \"#utility.yul\":2840:2849   */\n      dup7\n        /* \"#utility.yul\":2836:2858   */\n      add\n        /* \"#utility.yul\":2815:2868   */\n      tag_328\n      jump\t// in\n    tag_417:\n        /* \"#utility.yul\":2805:2868   */\n      swap3\n      pop\n        /* \"#utility.yul\":2761:2878   */\n      pop\n        /* \"#utility.yul\":2917:2919   */\n      0x20\n        /* \"#utility.yul\":2943:2996   */\n      tag_418\n        /* \"#utility.yul\":2988:2995   */\n      dup6\n        /* \"#utility.yul\":2979:2985   */\n      dup3\n        /* \"#utility.yul\":2968:2977   */\n      dup7\n        /* \"#utility.yul\":2964:2986   */\n      add\n        /* \"#utility.yul\":2943:2996   */\n      tag_331\n      jump\t// in\n    tag_418:\n        /* \"#utility.yul\":2933:2996   */\n      swap2\n      pop\n        /* \"#utility.yul\":2888:3006   */\n      pop\n        /* \"#utility.yul\":2539:3013   */\n      swap3\n      pop\n      swap3\n      swap1\n      pop\n      jump\t// out\n        /* \"#utility.yul\":3019:3109   */\n    tag_332:\n        /* \"#utility.yul\":3053:3060   */\n      0x00\n        /* \"#utility.yul\":3096:3101   */\n      dup2\n        /* \"#utility.yul\":3089:3102   */\n      iszero\n        /* \"#utility.yul\":3082:3103   */\n      iszero\n        /* \"#utility.yul\":3071:3103   */\n      swap1\n      pop\n        /* \"#utility.yul\":3019:3109   */\n      swap2\n      swap1\n      pop\n      jump\t// out\n        /* \"#utility.yul\":3115:3224   */\n    tag_333:\n        /* \"#utility.yul\":3196:3217   */\n      tag_421\n        /* \"#utility.yul\":3211:3216   */\n      dup2\n        /* \"#utility.yul\":3196:3217   */\n      tag_332\n      jump\t// in\n    tag_421:\n        /* \"#utility.yul\":3191:3194   */\n      dup3\n        /* \"#utility.yul\":3184:3218   */\n      mstore\n        /* \"#utility.yul\":3115:3224   */\n      pop\n      pop\n      jump\t// out\n        /* \"#utility.yul\":3230:3440   */\n    tag_38:\n        /* \"#utility.yul\":3317:3321   */\n      0x00\n        /* \"#utility.yul\":3355:3357   */\n      0x20\n        /* \"#utility.yul\":3344:3353   */\n      dup3\n        /* \"#utility.yul\":3340:3358   */\n      add\n        /* \"#utility.yul\":3332:3358   */\n      swap1\n      pop\n        /* \"#utility.yul\":3368:3433   */\n      tag_423\n        /* \"#utility.yul\":3430:3431   */\n      0x00\n        /* \"#utility.yul\":3419:3428   */\n      dup4\n        /* \"#utility.yul\":3415:3432   */\n      add\n        /* \"#utility.yul\":3406:3412   */\n      dup5\n        /* \"#utility.yul\":3368:3433   */\n      tag_333\n      jump\t// in\n    tag_423:\n        /* \"#utility.yul\":3230:3440   */\n      swap3\n      swap2\n      pop\n      pop\n      jump\t// out\n        /* \"#utility.yul\":3446:3564   */\n    tag_334:\n        /* \"#utility.yul\":3533:3557   */\n      tag_425\n        /* \"#utility.yul\":3551:3556   */\n      dup2\n        /* \"#utility.yul\":3533:3557   */\n      tag_329\n      jump\t// in\n    tag_425:\n        /* \"#utility.yul\":3528:3531   */\n      dup3\n        /* \"#utility.yul\":3521:3558   */\n      mstore\n        /* \"#utility.yul\":3446:3564   */\n      pop\n      pop\n      jump\t// out\n        /* \"#utility.yul\":3570:3792   */\n    tag_43:\n        /* \"#utility.yul\":3663:3667   */\n      0x00\n        /* \"#utility.yul\":3701:3703   */\n      0x20\n        /* \"#utility.yul\":3690:3699   */\n      dup3\n        /* \"#utility.yul\":3686:3704   */\n      add\n        /* \"#utility.yul\":3678:3704   */\n      swap1\n      pop\n        /* \"#utility.yul\":3714:3785   */\n      tag_427\n        /* \"#utility.yul\":3782:3783   */\n      0x00\n        /* \"#utility.yul\":3771:3780   */\n      dup4\n        /* \"#utility.yul\":3767:3784   */\n      add\n        /* \"#utility.yul\":3758:3764   */\n      dup5\n        /* \"#utility.yul\":3714:3785   */\n      tag_334\n      jump\t// in\n    tag_427:\n        /* \"#utility.yul\":3570:3792   */\n      swap3\n      swap2\n      pop\n      pop\n      jump\t// out\n        /* \"#utility.yul\":3798:4417   */\n    tag_51:\n        /* \"#utility.yul\":3875:3881   */\n      0x00\n        /* \"#utility.yul\":3883:3889   */\n      dup1\n        /* \"#utility.yul\":3891:3897   */\n      0x00\n        /* \"#utility.yul\":3940:3942   */\n      0x60\n        /* \"#utility.yul\":3928:3937   */\n      dup5\n        /* \"#utility.yul\":3919:3926   */\n      dup7\n        /* \"#utility.yul\":3915:3938   */\n      sub\n        /* \"#utility.yul\":3911:3943   */\n      slt\n        /* \"#utility.yul\":3908:4027   */\n      iszero\n      tag_429\n      jumpi\n        /* \"#utility.yul\":3946:4025   */\n      tag_430\n      tag_323\n      jump\t// in\n    tag_430:\n        /* \"#utility.yul\":3908:4027   */\n    tag_429:\n        /* \"#utility.yul\":4066:4067   */\n      0x00\n        /* \"#utility.yul\":4091:4144   */\n      tag_431\n        /* \"#utility.yul\":4136:4143   */\n      dup7\n        /* \"#utility.yul\":4127:4133   */\n      dup3\n        /* \"#utility.yul\":4116:4125   */\n      dup8\n        /* \"#utility.yul\":4112:4134   */\n      add\n        /* \"#utility.yul\":4091:4144   */\n      tag_328\n      jump\t// in\n    tag_431:\n        /* \"#utility.yul\":4081:4144   */\n      swap4\n      pop\n        /* \"#utility.yul\":4037:4154   */\n      pop\n        /* \"#utility.yul\":4193:4195   */\n      0x20\n        /* \"#utility.yul\":4219:4272   */\n      tag_432\n        /* \"#utility.yul\":4264:4271   */\n      dup7\n        /* \"#utility.yul\":4255:4261   */\n      dup3\n        /* \"#utility.yul\":4244:4253   */\n      dup8\n        /* \"#utility.yul\":4240:4262   */\n      add\n        /* \"#utility.yul\":4219:4272   */\n      tag_328\n      jump\t// in\n    tag_432:\n        /* \"#utility.yul\":4209:4272   */\n      swap3\n      pop\n        /* \"#utility.yul\":4164:4282   */\n      pop\n        /* \"#utility.yul\":4321:4323   */\n      0x40\n        /* \"#utility.yul\":4347:4400   */\n      tag_433\n        /* \"#utility.yul\":4392:4399   */\n      dup7\n        /* \"#utility.yul\":4383:4389   */\n      dup3\n        /* \"#utility.yul\":4372:4381   */\n      dup8\n        /* \"#utility.yul\":4368:4390   */\n      add\n        /* \"#utility.yul\":4347:4400   */\n      tag_331\n      jump\t// in\n    tag_433:\n        /* \"#utility.yul\":4337:4400   */\n      swap2\n      pop\n        /* \"#utility.yul\":4292:4410   */\n      pop\n        /* \"#utility.yul\":3798:4417   */\n      swap3\n      pop\n      swap3\n      pop\n      swap3\n      jump\t// out\n        /* \"#utility.yul\":4423:4509   */\n    tag_335:\n        /* \"#utility.yul\":4458:4465   */\n      0x00\n        /* \"#utility.yul\":4498:4502   */\n      0xff\n        /* \"#utility.yul\":4491:4496   */\n      dup3\n        /* \"#utility.yul\":4487:4503   */\n      and\n        /* \"#utility.yul\":4476:4503   */\n      swap1\n      pop\n        /* \"#utility.yul\":4423:4509   */\n      swap2\n      swap1\n      pop\n      jump\t// out\n        /* \"#utility.yul\":4515:4627   */\n    tag_336:\n        /* \"#utility.yul\":4598:4620   */\n      tag_436\n        /* \"#utility.yul\":4614:4619   */\n      dup2\n        /* \"#utility.yul\":4598:4620   */\n      tag_335\n      jump\t// in\n    tag_436:\n        /* \"#utility.yul\":4593:4596   */\n      dup3\n        /* \"#utility.yul\":4586:4621   */\n      mstore\n        /* \"#utility.yul\":4515:4627   */\n      pop\n      pop\n      jump\t// out\n        /* \"#utility.yul\":4633:4847   */\n    tag_58:\n        /* \"#utility.yul\":4722:4726   */\n      0x00\n        /* \"#utility.yul\":4760:4762   */\n      0x20\n        /* \"#utility.yul\":4749:4758   */\n      dup3\n        /* \"#utility.yul\":4745:4763   */\n      add\n        /* \"#utility.yul\":4737:4763   */\n      swap1\n      pop\n        /* \"#utility.yul\":4773:4840   */\n      tag_438\n        /* \"#utility.yul\":4837:4838   */\n      0x00\n        /* \"#utility.yul\":4826:4835   */\n      dup4\n        /* \"#utility.yul\":4822:4839   */\n      add\n        /* \"#utility.yul\":4813:4819   */\n      dup5\n        /* \"#utility.yul\":4773:4840   */\n      tag_336\n      jump\t// in\n    tag_438:\n        /* \"#utility.yul\":4633:4847   */\n      swap3\n      swap2\n      pop\n      pop\n      jump\t// out\n        /* \"#utility.yul\":4853:5182   */\n    tag_65:\n        /* \"#utility.yul\":4912:4918   */\n      0x00\n        /* \"#utility.yul\":4961:4963   */\n      0x20\n        /* \"#utility.yul\":4949:4958   */\n      dup3\n        /* \"#utility.yul\":4940:4947   */\n      dup5\n        /* \"#utility.yul\":4936:4959   */\n      sub\n        /* \"#utility.yul\":4932:4964   */\n      slt\n        /* \"#utility.yul\":4929:5048   */\n      iszero\n      tag_440\n      jumpi\n        /* \"#utility.yul\":4967:5046   */\n      tag_441\n      tag_323\n      jump\t// in\n    tag_441:\n        /* \"#utility.yul\":4929:5048   */\n    tag_440:\n        /* \"#utility.yul\":5087:5088   */\n      0x00\n        /* \"#utility.yul\":5112:5165   */\n      tag_442\n        /* \"#utility.yul\":5157:5164   */\n      dup5\n        /* \"#utility.yul\":5148:5154   */\n      dup3\n        /* \"#utility.yul\":5137:5146   */\n      dup6\n        /* \"#utility.yul\":5133:5155   */\n      add\n        /* \"#utility.yul\":5112:5165   */\n      tag_328\n      jump\t// in\n    tag_442:\n        /* \"#utility.yul\":5102:5165   */\n      swap2\n      pop\n        /* \"#utility.yul\":5058:5175   */\n      pop\n        /* \"#utility.yul\":4853:5182   */\n      swap3\n      swap2\n      pop\n      pop\n      jump\t// out\n        /* \"#utility.yul\":5188:5306   */\n    tag_337:\n        /* \"#utility.yul\":5275:5299   */\n      tag_444\n        /* \"#utility.yul\":5293:5298   */\n      dup2\n        /* \"#utility.yul\":5275:5299   */\n      tag_326\n      jump\t// in\n    tag_444:\n        /* \"#utility.yul\":5270:5273   */\n      dup3\n        /* \"#utility.yul\":5263:5300   */\n      mstore\n        /* \"#utility.yul\":5188:5306   */\n      pop\n      pop\n      jump\t// out\n        /* \"#utility.yul\":5312:5534   */\n    tag_79:\n        /* \"#utility.yul\":5405:5409   */\n      0x00\n        /* \"#utility.yul\":5443:5445   */\n      0x20\n        /* \"#utility.yul\":5432:5441   */\n      dup3\n        /* \"#utility.yul\":5428:5446   */\n      add\n        /* \"#utility.yul\":5420:5446   */\n      swap1\n      pop\n        /* \"#utility.yul\":5456:5527   */\n      tag_446\n        /* \"#utility.yul\":5524:5525   */\n      0x00\n        /* \"#utility.yul\":5513:5522   */\n      dup4\n        /* \"#utility.yul\":5509:5526   */\n      add\n        /* \"#utility.yul\":5500:5506   */\n      dup5\n        /* \"#utility.yul\":5456:5527   */\n      tag_337\n      jump\t// in\n    tag_446:\n        /* \"#utility.yul\":5312:5534   */\n      swap3\n      swap2\n      pop\n      pop\n      jump\t// out\n        /* \"#utility.yul\":5540:6014   */\n    tag_111:\n        /* \"#utility.yul\":5608:5614   */\n      0x00\n        /* \"#utility.yul\":5616:5622   */\n      dup1\n        /* \"#utility.yul\":5665:5667   */\n      0x40\n        /* \"#utility.yul\":5653:5662   */\n      dup4\n        /* \"#utility.yul\":5644:5651   */\n      dup6\n        /* \"#utility.yul\":5640:5663   */\n      sub\n        /* \"#utility.yul\":5636:5668   */\n      slt\n        /* \"#utility.yul\":5633:5752   */\n      iszero\n      tag_448\n      jumpi\n        /* \"#utility.yul\":5671:5750   */\n      tag_449\n      tag_323\n      jump\t// in\n    tag_449:\n        /* \"#utility.yul\":5633:5752   */\n    tag_448:\n        /* \"#utility.yul\":5791:5792   */\n      0x00\n        /* \"#utility.yul\":5816:5869   */\n      tag_450\n        /* \"#utility.yul\":5861:5868   */\n      dup6\n        /* \"#utility.yul\":5852:5858   */\n      dup3\n        /* \"#utility.yul\":5841:5850   */\n      dup7\n        /* \"#utility.yul\":5837:5859   */\n      add\n        /* \"#utility.yul\":5816:5869   */\n      tag_328\n      jump\t// in\n    tag_450:\n        /* \"#utility.yul\":5806:5869   */\n      swap3\n      pop\n        /* \"#utility.yul\":5762:5879   */\n      pop\n        /* \"#utility.yul\":5918:5920   */\n      0x20\n        /* \"#utility.yul\":5944:5997   */\n      tag_451\n        /* \"#utility.yul\":5989:5996   */\n      dup6\n        /* \"#utility.yul\":5980:5986   */\n      dup3\n        /* \"#utility.yul\":5969:5978   */\n      dup7\n        /* \"#utility.yul\":5965:5987   */\n      add\n        /* \"#utility.yul\":5944:5997   */\n      tag_328\n      jump\t// in\n    tag_451:\n        /* \"#utility.yul\":5934:5997   */\n      swap2\n      pop\n        /* \"#utility.yul\":5889:6007   */\n      pop\n        /* \"#utility.yul\":5540:6014   */\n      swap3\n      pop\n      swap3\n      swap1\n      pop\n      jump\t// out\n        /* \"#utility.yul\":6020:6200   */\n    tag_338:\n        /* \"#utility.yul\":6068:6145   */\n      0x4e487b7100000000000000000000000000000000000000000000000000000000\n        /* \"#utility.yul\":6065:6066   */\n      0x00\n        /* \"#utility.yul\":6058:6146   */\n      mstore\n        /* \"#utility.yul\":6165:6169   */\n      0x11\n        /* \"#utility.yul\":6162:6163   */\n      0x04\n        /* \"#utility.yul\":6155:6170   */\n      mstore\n        /* \"#utility.yul\":6189:6193   */\n      0x24\n        /* \"#utility.yul\":6186:6187   */\n      0x00\n        /* \"#utility.yul\":6179:6194   */\n      revert\n        /* \"#utility.yul\":6206:6308   */\n    tag_339:\n        /* \"#utility.yul\":6248:6256   */\n      0x00\n        /* \"#utility.yul\":6295:6300   */\n      dup2\n        /* \"#utility.yul\":6292:6293   */\n      0x01\n        /* \"#utility.yul\":6288:6301   */\n      shr\n        /* \"#utility.yul\":6267:6301   */\n      swap1\n      pop\n        /* \"#utility.yul\":6206:6308   */\n      swap2\n      swap1\n      pop\n      jump\t// out\n        /* \"#utility.yul\":6314:7162   */\n    tag_340:\n        /* \"#utility.yul\":6375:6380   */\n      0x00\n        /* \"#utility.yul\":6382:6386   */\n      dup1\n        /* \"#utility.yul\":6406:6412   */\n      dup3\n        /* \"#utility.yul\":6397:6412   */\n      swap2\n      pop\n        /* \"#utility.yul\":6430:6435   */\n      dup4\n        /* \"#utility.yul\":6421:6435   */\n      swap1\n      pop\n        /* \"#utility.yul\":6444:7156   */\n    tag_455:\n        /* \"#utility.yul\":6465:6466   */\n      0x01\n        /* \"#utility.yul\":6455:6463   */\n      dup6\n        /* \"#utility.yul\":6452:6467   */\n      gt\n        /* \"#utility.yul\":6444:7156   */\n      iszero\n      tag_457\n      jumpi\n        /* \"#utility.yul\":6560:6564   */\n      dup1\n        /* \"#utility.yul\":6555:6558   */\n      dup7\n        /* \"#utility.yul\":6551:6565   */\n      div\n        /* \"#utility.yul\":6545:6549   */\n      dup2\n        /* \"#utility.yul\":6542:6566   */\n      gt\n        /* \"#utility.yul\":6539:6589   */\n      iszero\n      tag_458\n      jumpi\n        /* \"#utility.yul\":6569:6587   */\n      tag_459\n      tag_338\n      jump\t// in\n    tag_459:\n        /* \"#utility.yul\":6539:6589   */\n    tag_458:\n        /* \"#utility.yul\":6619:6620   */\n      0x01\n        /* \"#utility.yul\":6609:6617   */\n      dup6\n        /* \"#utility.yul\":6605:6621   */\n      and\n        /* \"#utility.yul\":6602:7053   */\n      iszero\n      tag_460\n      jumpi\n        /* \"#utility.yul\":7034:7038   */\n      dup1\n        /* \"#utility.yul\":7027:7032   */\n      dup3\n        /* \"#utility.yul\":7023:7039   */\n      mul\n        /* \"#utility.yul\":7014:7039   */\n      swap2\n      pop\n        /* \"#utility.yul\":6602:7053   */\n    tag_460:\n        /* \"#utility.yul\":7084:7088   */\n      dup1\n        /* \"#utility.yul\":7078:7082   */\n      dup2\n        /* \"#utility.yul\":7074:7089   */\n      mul\n        /* \"#utility.yul\":7066:7089   */\n      swap1\n      pop\n        /* \"#utility.yul\":7114:7146   */\n      tag_461\n        /* \"#utility.yul\":7137:7145   */\n      dup6\n        /* \"#utility.yul\":7114:7146   */\n      tag_339\n      jump\t// in\n    tag_461:\n        /* \"#utility.yul\":7102:7146   */\n      swap5\n      pop\n        /* \"#utility.yul\":6444:7156   */\n      jump(tag_455)\n    tag_457:\n        /* \"#utility.yul\":6314:7162   */\n      swap5\n      pop\n      swap5\n      swap3\n      pop\n      pop\n      pop\n      jump\t// out\n        /* \"#utility.yul\":7168:8241   */\n    tag_341:\n        /* \"#utility.yul\":7222:7227   */\n      0x00\n        /* \"#utility.yul\":7413:7421   */\n      dup3\n        /* \"#utility.yul\":7403:7443   */\n      tag_463\n      jumpi\n        /* \"#utility.yul\":7434:7435   */\n      0x01\n        /* \"#utility.yul\":7425:7435   */\n      swap1\n      pop\n        /* \"#utility.yul\":7436:7441   */\n      jump(tag_462)\n        /* \"#utility.yul\":7403:7443   */\n    tag_463:\n        /* \"#utility.yul\":7462:7466   */\n      dup2\n        /* \"#utility.yul\":7452:7488   */\n      tag_464\n      jumpi\n        /* \"#utility.yul\":7479:7480   */\n      0x00\n        /* \"#utility.yul\":7470:7480   */\n      swap1\n      pop\n        /* \"#utility.yul\":7481:7486   */\n      jump(tag_462)\n        /* \"#utility.yul\":7452:7488   */\n    tag_464:\n        /* \"#utility.yul\":7548:7552   */\n      dup2\n        /* \"#utility.yul\":7596:7597   */\n      0x01\n        /* \"#utility.yul\":7591:7618   */\n      dup2\n      eq\n      tag_466\n      jumpi\n        /* \"#utility.yul\":7632:7633   */\n      0x02\n        /* \"#utility.yul\":7627:7818   */\n      dup2\n      eq\n      tag_467\n      jumpi\n        /* \"#utility.yul\":7541:7818   */\n      jump(tag_465)\n        /* \"#utility.yul\":7591:7618   */\n    tag_466:\n        /* \"#utility.yul\":7609:7610   */\n      0x01\n        /* \"#utility.yul\":7600:7610   */\n      swap2\n      pop\n        /* \"#utility.yul\":7611:7616   */\n      pop\n      jump(tag_462)\n        /* \"#utility.yul\":7627:7818   */\n    tag_467:\n        /* \"#utility.yul\":7672:7675   */\n      0xff\n        /* \"#utility.yul\":7662:7670   */\n      dup5\n        /* \"#utility.yul\":7659:7676   */\n      gt\n        /* \"#utility.yul\":7656:7699   */\n      iszero\n      tag_468\n      jumpi\n        /* \"#utility.yul\":7679:7697   */\n      tag_469\n      tag_338\n      jump\t// in\n    tag_469:\n        /* \"#utility.yul\":7656:7699   */\n    tag_468:\n        /* \"#utility.yul\":7728:7736   */\n      dup4\n        /* \"#utility.yul\":7725:7726   */\n      0x02\n        /* \"#utility.yul\":7721:7737   */\n      exp\n        /* \"#utility.yul\":7712:7737   */\n      swap2\n      pop\n        /* \"#utility.yul\":7763:7766   */\n      dup5\n        /* \"#utility.yul\":7756:7761   */\n      dup3\n        /* \"#utility.yul\":7753:7767   */\n      gt\n        /* \"#utility.yul\":7750:7790   */\n      iszero\n      tag_470\n      jumpi\n        /* \"#utility.yul\":7770:7788   */\n      tag_471\n      tag_338\n      jump\t// in\n    tag_471:\n        /* \"#utility.yul\":7750:7790   */\n    tag_470:\n        /* \"#utility.yul\":7803:7808   */\n      pop\n      jump(tag_462)\n        /* \"#utility.yul\":7541:7818   */\n    tag_465:\n      pop\n        /* \"#utility.yul\":7927:7929   */\n      0x20\n        /* \"#utility.yul\":7917:7925   */\n      dup4\n        /* \"#utility.yul\":7914:7930   */\n      lt\n        /* \"#utility.yul\":7908:7911   */\n      0x0133\n        /* \"#utility.yul\":7902:7906   */\n      dup4\n        /* \"#utility.yul\":7899:7912   */\n      lt\n        /* \"#utility.yul\":7895:7931   */\n      and\n        /* \"#utility.yul\":7877:7879   */\n      0x4e\n        /* \"#utility.yul\":7867:7875   */\n      dup5\n        /* \"#utility.yul\":7864:7880   */\n      lt\n        /* \"#utility.yul\":7859:7861   */\n      0x0b\n        /* \"#utility.yul\":7853:7857   */\n      dup5\n        /* \"#utility.yul\":7850:7862   */\n      lt\n        /* \"#utility.yul\":7846:7881   */\n      and\n        /* \"#utility.yul\":7830:7941   */\n      or\n        /* \"#utility.yul\":7827:8073   */\n      iszero\n      tag_472\n      jumpi\n        /* \"#utility.yul\":7983:7991   */\n      dup3\n        /* \"#utility.yul\":7977:7981   */\n      dup3\n        /* \"#utility.yul\":7973:7992   */\n      exp\n        /* \"#utility.yul\":7964:7992   */\n      swap1\n      pop\n        /* \"#utility.yul\":8018:8021   */\n      dup4\n        /* \"#utility.yul\":8011:8016   */\n      dup2\n        /* \"#utility.yul\":8008:8022   */\n      gt\n        /* \"#utility.yul\":8005:8045   */\n      iszero\n      tag_473\n      jumpi\n        /* \"#utility.yul\":8025:8043   */\n      tag_474\n      tag_338\n      jump\t// in\n    tag_474:\n        /* \"#utility.yul\":8005:8045   */\n    tag_473:\n        /* \"#utility.yul\":8058:8063   */\n      jump(tag_462)\n        /* \"#utility.yul\":7827:8073   */\n    tag_472:\n        /* \"#utility.yul\":8098:8140   */\n      tag_475\n        /* \"#utility.yul\":8136:8139   */\n      dup5\n        /* \"#utility.yul\":8126:8134   */\n      dup5\n        /* \"#utility.yul\":8120:8124   */\n      dup5\n        /* \"#utility.yul\":8117:8118   */\n      0x01\n        /* \"#utility.yul\":8098:8140   */\n      tag_340\n      jump\t// in\n    tag_475:\n        /* \"#utility.yul\":8083:8140   */\n      swap3\n      pop\n      swap1\n      pop\n        /* \"#utility.yul\":8172:8176   */\n      dup2\n        /* \"#utility.yul\":8167:8170   */\n      dup5\n        /* \"#utility.yul\":8163:8177   */\n      div\n        /* \"#utility.yul\":8156:8161   */\n      dup2\n        /* \"#utility.yul\":8153:8178   */\n      gt\n        /* \"#utility.yul\":8150:8201   */\n      iszero\n      tag_476\n      jumpi\n        /* \"#utility.yul\":8181:8199   */\n      tag_477\n      tag_338\n      jump\t// in\n    tag_477:\n        /* \"#utility.yul\":8150:8201   */\n    tag_476:\n        /* \"#utility.yul\":8230:8234   */\n      dup2\n        /* \"#utility.yul\":8223:8228   */\n      dup2\n        /* \"#utility.yul\":8219:8235   */\n      mul\n        /* \"#utility.yul\":8210:8235   */\n      swap1\n      pop\n        /* \"#utility.yul\":7168:8241   */\n    tag_462:\n      swap4\n      swap3\n      pop\n      pop\n      pop\n      jump\t// out\n        /* \"#utility.yul\":8247:8528   */\n    tag_122:\n        /* \"#utility.yul\":8305:8310   */\n      0x00\n        /* \"#utility.yul\":8329:8352   */\n      tag_479\n        /* \"#utility.yul\":8347:8351   */\n      dup3\n        /* \"#utility.yul\":8329:8352   */\n      tag_329\n      jump\t// in\n    tag_479:\n        /* \"#utility.yul\":8321:8352   */\n      swap2\n      pop\n        /* \"#utility.yul\":8373:8398   */\n      tag_480\n        /* \"#utility.yul\":8389:8397   */\n      dup4\n        /* \"#utility.yul\":8373:8398   */\n      tag_335\n      jump\t// in\n    tag_480:\n        /* \"#utility.yul\":8361:8398   */\n      swap3\n      pop\n        /* \"#utility.yul\":8417:8521   */\n      tag_481\n        /* \"#utility.yul\":8454:8520   */\n      0xffffffffffffffffffffffffffffffffffffffffffffffffffffffffffffffff\n        /* \"#utility.yul\":8444:8452   */\n      dup5\n        /* \"#utility.yul\":8438:8442   */\n      dup5\n        /* \"#utility.yul\":8417:8521   */\n      tag_341\n      jump\t// in\n    tag_481:\n        /* \"#utility.yul\":8408:8521   */\n      swap1\n      pop\n        /* \"#utility.yul\":8247:8528   */\n      swap3\n      swap2\n      pop\n      pop\n      jump\t// out\n        /* \"#utility.yul\":8534:8944   */\n    tag_124:\n        /* \"#utility.yul\":8574:8581   */\n      0x00\n        /* \"#utility.yul\":8597:8617   */\n      tag_483\n        /* \"#utility.yul\":8615:8616   */\n      dup3\n        /* \"#utility.yul\":8597:8617   */\n      tag_329\n      jump\t// in\n    tag_483:\n        /* \"#utility.yul\":8592:8617   */\n      swap2\n      pop\n        /* \"#utility.yul\":8631:8651   */\n      tag_484\n        /* \"#utility.yul\":8649:8650   */\n      dup4\n        /* \"#utility.yul\":8631:8651   */\n      tag_329\n      jump\t// in\n    tag_484:\n        /* \"#utility.yul\":8626:8651   */\n      swap3\n      pop\n        /* \"#utility.yul\":8686:8687   */\n      dup3\n        /* \"#utility.yul\":8683:8684   */\n      dup3\n        /* \"#utility.yul\":8679:8688   */\n      mul\n        /* \"#utility.yul\":8708:8738   */\n      tag_485\n        /* \"#utility.yul\":8726:8737   */\n      dup2\n        /* \"#utility.yul\":8708:8738   */\n      tag_329\n      jump\t// in\n    tag_485:\n        /* \"#utility.yul\":8697:8738   */\n      swap2\n      pop\n        /* \"#utility.yul\":8887:8888   */\n      dup3\n        /* \"#utility.yul\":8878:8885   */\n      dup3\n        /* \"#utility.yul\":8874:8889   */\n      div\n        /* \"#utility.yul\":8871:8872   */\n      dup5\n        /* \"#utility.yul\":8868:8890   */\n      eq\n        /* \"#utility.yul\":8848:8849   */\n      dup4\n        /* \"#utility.yul\":8841:8850   */\n      iszero\n        /* \"#utility.yul\":8821:8904   */\n      or\n        /* \"#utility.yul\":8798:8937   */\n      tag_486\n      jumpi\n        /* \"#utility.yul\":8917:8935   */\n      tag_487\n      tag_338\n      jump\t// in\n    tag_487:\n        /* \"#utility.yul\":8798:8937   */\n    tag_486:\n        /* \"#utility.yul\":8582:8944   */\n      pop\n        /* \"#utility.yul\":8534:8944   */\n      swap3\n      swap2\n      pop\n      pop\n      jump\t// out\n        /* \"#utility.yul\":8950:9132   */\n    tag_342:\n        /* \"#utility.yul\":9090:9124   */\n      0x4f776e61626c653a2063616c6c6572206973206e6f7420746865206f776e6572\n        /* \"#utility.yul\":9086:9087   */\n      0x00\n        /* \"#utility.yul\":9078:9084   */\n      dup3\n        /* \"#utility.yul\":9074:9088   */\n      add\n        /* \"#utility.yul\":9067:9125   */\n      mstore\n        /* \"#utility.yul\":8950:9132   */\n      pop\n      jump\t// out\n        /* \"#utility.yul\":9138:9504   */\n    tag_343:\n        /* \"#utility.yul\":9280:9283   */\n      0x00\n        /* \"#utility.yul\":9301:9368   */\n      tag_490\n        /* \"#utility.yul\":9365:9367   */\n      0x20\n        /* \"#utility.yul\":9360:9363   */\n      dup4\n        /* \"#utility.yul\":9301:9368   */\n      tag_318\n      jump\t// in\n    tag_490:\n        /* \"#utility.yul\":9294:9368   */\n      swap2\n      pop\n        /* \"#utility.yul\":9377:9470   */\n      tag_491\n        /* \"#utility.yul\":9466:9469   */\n      dup3\n        /* \"#utility.yul\":9377:9470   */\n      tag_342\n      jump\t// in\n    tag_491:\n        /* \"#utility.yul\":9495:9497   */\n      0x20\n        /* \"#utility.yul\":9490:9493   */\n      dup3\n        /* \"#utility.yul\":9486:9498   */\n      add\n        /* \"#utility.yul\":9479:9498   */\n      swap1\n      pop\n        /* \"#utility.yul\":9138:9504   */\n      swap2\n      swap1\n      pop\n      jump\t// out\n        /* \"#utility.yul\":9510:9929   */\n    tag_149:\n        /* \"#utility.yul\":9676:9680   */\n      0x00\n        /* \"#utility.yul\":9714:9716   */\n      0x20\n        /* \"#utility.yul\":9703:9712   */\n      dup3\n        /* \"#utility.yul\":9699:9717   */\n      add\n        /* \"#utility.yul\":9691:9717   */\n      swap1\n      pop\n        /* \"#utility.yul\":9763:9772   */\n      dup2\n        /* \"#utility.yul\":9757:9761   */\n      dup2\n        /* \"#utility.yul\":9753:9773   */\n      sub\n        /* \"#utility.yul\":9749:9750   */\n      0x00\n        /* \"#utility.yul\":9738:9747   */\n      dup4\n        /* \"#utility.yul\":9734:9751   */\n      add\n        /* \"#utility.yul\":9727:9774   */\n      mstore\n        /* \"#utility.yul\":9791:9922   */\n      tag_493\n        /* \"#utility.yul\":9917:9921   */\n      dup2\n        /* \"#utility.yul\":9791:9922   */\n      tag_343\n      jump\t// in\n    tag_493:\n        /* \"#utility.yul\":9783:9922   */\n      swap1\n      pop\n        /* \"#utility.yul\":9510:9929   */\n      swap2\n      swap1\n      pop\n      jump\t// out\n        /* \"#utility.yul\":9935:10108   */\n    tag_344:\n        /* \"#utility.yul\":10075:10100   */\n      0x74726164696e6720697320616c7265616479206f70656e000000000000000000\n        /* \"#utility.yul\":10071:10072   */\n      0x00\n        /* \"#utility.yul\":10063:10069   */\n      dup3\n        /* \"#utility.yul\":10059:10073   */\n      add\n        /* \"#utility.yul\":10052:10101   */\n      mstore\n        /* \"#utility.yul\":9935:10108   */\n      pop\n      jump\t// out\n        /* \"#utility.yul\":10114:10480   */\n    tag_345:\n        /* \"#utility.yul\":10256:10259   */\n      0x00\n        /* \"#utility.yul\":10277:10344   */\n      tag_496\n        /* \"#utility.yul\":10341:10343   */\n      0x17\n        /* \"#utility.yul\":10336:10339   */\n      dup4\n        /* \"#utility.yul\":10277:10344   */\n      tag_318\n      jump\t// in\n    tag_496:\n        /* \"#utility.yul\":10270:10344   */\n      swap2\n      pop\n        /* \"#utility.yul\":10353:10446   */\n      tag_497\n        /* \"#utility.yul\":10442:10445   */\n      dup3\n        /* \"#utility.yul\":10353:10446   */\n      tag_344\n      jump\t// in\n    tag_497:\n        /* \"#utility.yul\":10471:10473   */\n      0x20\n        /* \"#utility.yul\":10466:10469   */\n      dup3\n        /* \"#utility.yul\":10462:10474   */\n      add\n        /* \"#utility.yul\":10455:10474   */\n      swap1\n      pop\n        /* \"#utility.yul\":10114:10480   */\n      swap2\n      swap1\n      pop\n      jump\t// out\n        /* \"#utility.yul\":10486:10905   */\n    tag_163:\n        /* \"#utility.yul\":10652:10656   */\n      0x00\n        /* \"#utility.yul\":10690:10692   */\n      0x20\n        /* \"#utility.yul\":10679:10688   */\n      dup3\n        /* \"#utility.yul\":10675:10693   */\n      add\n        /* \"#utility.yul\":10667:10693   */\n      swap1\n      pop\n        /* \"#utility.yul\":10739:10748   */\n      dup2\n        /* \"#utility.yul\":10733:10737   */\n      dup2\n        /* \"#utility.yul\":10729:10749   */\n      sub\n        /* \"#utility.yul\":10725:10726   */\n      0x00\n        /* \"#utility.yul\":10714:10723   */\n      dup4\n        /* \"#utility.yul\":10710:10727   */\n      add\n        /* \"#utility.yul\":10703:10750   */\n      mstore\n        /* \"#utility.yul\":10767:10898   */\n      tag_499\n        /* \"#utility.yul\":10893:10897   */\n      dup2\n        /* \"#utility.yul\":10767:10898   */\n      tag_345\n      jump\t// in\n    tag_499:\n        /* \"#utility.yul\":10759:10898   */\n      swap1\n      pop\n        /* \"#utility.yul\":10486:10905   */\n      swap2\n      swap1\n      pop\n      jump\t// out\n        /* \"#utility.yul\":10911:11054   */\n    tag_346:\n        /* \"#utility.yul\":10968:10973   */\n      0x00\n        /* \"#utility.yul\":10999:11005   */\n      dup2\n        /* \"#utility.yul\":10993:11006   */\n      mload\n        /* \"#utility.yul\":10984:11006   */\n      swap1\n      pop\n        /* \"#utility.yul\":11015:11048   */\n      tag_501\n        /* \"#utility.yul\":11042:11047   */\n      dup2\n        /* \"#utility.yul\":11015:11048   */\n      tag_327\n      jump\t// in\n    tag_501:\n        /* \"#utility.yul\":10911:11054   */\n      swap3\n      swap2\n      pop\n      pop\n      jump\t// out\n        /* \"#utility.yul\":11060:11411   */\n    tag_170:\n        /* \"#utility.yul\":11130:11136   */\n      0x00\n        /* \"#utility.yul\":11179:11181   */\n      0x20\n        /* \"#utility.yul\":11167:11176   */\n      dup3\n        /* \"#utility.yul\":11158:11165   */\n      dup5\n        /* \"#utility.yul\":11154:11177   */\n      sub\n        /* \"#utility.yul\":11150:11182   */\n      slt\n        /* \"#utility.yul\":11147:11266   */\n      iszero\n      tag_503\n      jumpi\n        /* \"#utility.yul\":11185:11264   */\n      tag_504\n      tag_323\n      jump\t// in\n    tag_504:\n        /* \"#utility.yul\":11147:11266   */\n    tag_503:\n        /* \"#utility.yul\":11305:11306   */\n      0x00\n        /* \"#utility.yul\":11330:11394   */\n      tag_505\n        /* \"#utility.yul\":11386:11393   */\n      dup5\n        /* \"#utility.yul\":11377:11383   */\n      dup3\n        /* \"#utility.yul\":11366:11375   */\n      dup6\n        /* \"#utility.yul\":11362:11384   */\n      add\n        /* \"#utility.yul\":11330:11394   */\n      tag_346\n      jump\t// in\n    tag_505:\n        /* \"#utility.yul\":11320:11394   */\n      swap2\n      pop\n        /* \"#utility.yul\":11276:11404   */\n      pop\n        /* \"#utility.yul\":11060:11411   */\n      swap3\n      swap2\n      pop\n      pop\n      jump\t// out\n        /* \"#utility.yul\":11417:11749   */\n    tag_175:\n        /* \"#utility.yul\":11538:11542   */\n      0x00\n        /* \"#utility.yul\":11576:11578   */\n      0x40\n        /* \"#utility.yul\":11565:11574   */\n      dup3\n        /* \"#utility.yul\":11561:11579   */\n      add\n        /* \"#utility.yul\":11553:11579   */\n      swap1\n      pop\n        /* \"#utility.yul\":11589:11660   */\n      tag_507\n        /* \"#utility.yul\":11657:11658   */\n      0x00\n        /* \"#utility.yul\":11646:11655   */\n      dup4\n        /* \"#utility.yul\":11642:11659   */\n      add\n        /* \"#utility.yul\":11633:11639   */\n      dup6\n        /* \"#utility.yul\":11589:11660   */\n      tag_337\n      jump\t// in\n    tag_507:\n        /* \"#utility.yul\":11670:11742   */\n      tag_508\n        /* \"#utility.yul\":11738:11740   */\n      0x20\n        /* \"#utility.yul\":11727:11736   */\n      dup4\n        /* \"#utility.yul\":11723:11741   */\n      add\n        /* \"#utility.yul\":11714:11720   */\n      dup5\n        /* \"#utility.yul\":11670:11742   */\n      tag_337\n      jump\t// in\n    tag_508:\n        /* \"#utility.yul\":11417:11749   */\n      swap4\n      swap3\n      pop\n      pop\n      pop\n      jump\t// out\n        /* \"#utility.yul\":11755:11840   */\n    tag_347:\n        /* \"#utility.yul\":11800:11807   */\n      0x00\n        /* \"#utility.yul\":11829:11834   */\n      dup2\n        /* \"#utility.yul\":11818:11834   */\n      swap1\n      pop\n        /* \"#utility.yul\":11755:11840   */\n      swap2\n      swap1\n      pop\n      jump\t// out\n        /* \"#utility.yul\":11846:11906   */\n    tag_348:\n        /* \"#utility.yul\":11874:11877   */\n      0x00\n        /* \"#utility.yul\":11895:11900   */\n      dup2\n        /* \"#utility.yul\":11888:11900   */\n      swap1\n      pop\n        /* \"#utility.yul\":11846:11906   */\n      swap2\n      swap1\n      pop\n      jump\t// out\n        /* \"#utility.yul\":11912:12070   */\n    tag_349:\n        /* \"#utility.yul\":11970:11979   */\n      0x00\n        /* \"#utility.yul\":12003:12064   */\n      tag_512\n        /* \"#utility.yul\":12021:12063   */\n      tag_513\n        /* \"#utility.yul\":12030:12062   */\n      tag_514\n        /* \"#utility.yul\":12056:12061   */\n      dup5\n        /* \"#utility.yul\":12030:12062   */\n      tag_347\n      jump\t// in\n    tag_514:\n        /* \"#utility.yul\":12021:12063   */\n      tag_348\n      jump\t// in\n    tag_513:\n        /* \"#utility.yul\":12003:12064   */\n      tag_329\n      jump\t// in\n    tag_512:\n        /* \"#utility.yul\":11990:12064   */\n      swap1\n      pop\n        /* \"#utility.yul\":11912:12070   */\n      swap2\n      swap1\n      pop\n      jump\t// out\n        /* \"#utility.yul\":12076:12223   */\n    tag_350:\n        /* \"#utility.yul\":12171:12216   */\n      tag_516\n        /* \"#utility.yul\":12210:12215   */\n      dup2\n        /* \"#utility.yul\":12171:12216   */\n      tag_349\n      jump\t// in\n    tag_516:\n        /* \"#utility.yul\":12166:12169   */\n      dup3\n        /* \"#utility.yul\":12159:12217   */\n      mstore\n        /* \"#utility.yul\":12076:12223   */\n      pop\n      pop\n      jump\t// out\n        /* \"#utility.yul\":12229:13036   */\n    tag_182:\n        /* \"#utility.yul\":12478:12482   */\n      0x00\n        /* \"#utility.yul\":12516:12519   */\n      0xc0\n        /* \"#utility.yul\":12505:12514   */\n      dup3\n        /* \"#utility.yul\":12501:12520   */\n      add\n        /* \"#utility.yul\":12493:12520   */\n      swap1\n      pop\n        /* \"#utility.yul\":12530:12601   */\n      tag_518\n        /* \"#utility.yul\":12598:12599   */\n      0x00\n        /* \"#utility.yul\":12587:12596   */\n      dup4\n        /* \"#utility.yul\":12583:12600   */\n      add\n        /* \"#utility.yul\":12574:12580   */\n      dup10\n        /* \"#utility.yul\":12530:12601   */\n      tag_337\n      jump\t// in\n    tag_518:\n        /* \"#utility.yul\":12611:12683   */\n      tag_519\n        /* \"#utility.yul\":12679:12681   */\n      0x20\n        /* \"#utility.yul\":12668:12677   */\n      dup4\n        /* \"#utility.yul\":12664:12682   */\n      add\n        /* \"#utility.yul\":12655:12661   */\n      dup9\n        /* \"#utility.yul\":12611:12683   */\n      tag_334\n      jump\t// in\n    tag_519:\n        /* \"#utility.yul\":12693:12773   */\n      tag_520\n        /* \"#utility.yul\":12769:12771   */\n      0x40\n        /* \"#utility.yul\":12758:12767   */\n      dup4\n        /* \"#utility.yul\":12754:12772   */\n      add\n        /* \"#utility.yul\":12745:12751   */\n      dup8\n        /* \"#utility.yul\":12693:12773   */\n      tag_350\n      jump\t// in\n    tag_520:\n        /* \"#utility.yul\":12783:12863   */\n      tag_521\n        /* \"#utility.yul\":12859:12861   */\n      0x60\n        /* \"#utility.yul\":12848:12857   */\n      dup4\n        /* \"#utility.yul\":12844:12862   */\n      add\n        /* \"#utility.yul\":12835:12841   */\n      dup7\n        /* \"#utility.yul\":12783:12863   */\n      tag_350\n      jump\t// in\n    tag_521:\n        /* \"#utility.yul\":12873:12946   */\n      tag_522\n        /* \"#utility.yul\":12941:12944   */\n      0x80\n        /* \"#utility.yul\":12930:12939   */\n      dup4\n        /* \"#utility.yul\":12926:12945   */\n      add\n        /* \"#utility.yul\":12917:12923   */\n      dup6\n        /* \"#utility.yul\":12873:12946   */\n      tag_337\n      jump\t// in\n    tag_522:\n        /* \"#utility.yul\":12956:13029   */\n      tag_523\n        /* \"#utility.yul\":13024:13027   */\n      0xa0\n        /* \"#utility.yul\":13013:13022   */\n      dup4\n        /* \"#utility.yul\":13009:13028   */\n      add\n        /* \"#utility.yul\":13000:13006   */\n      dup5\n        /* \"#utility.yul\":12956:13029   */\n      tag_334\n      jump\t// in\n    tag_523:\n        /* \"#utility.yul\":12229:13036   */\n      swap8\n      swap7\n      pop\n      pop\n      pop\n      pop\n      pop\n      pop\n      pop\n      jump\t// out\n        /* \"#utility.yul\":13042:13185   */\n    tag_351:\n        /* \"#utility.yul\":13099:13104   */\n      0x00\n        /* \"#utility.yul\":13130:13136   */\n      dup2\n        /* \"#utility.yul\":13124:13137   */\n      mload\n        /* \"#utility.yul\":13115:13137   */\n      swap1\n      pop\n        /* \"#utility.yul\":13146:13179   */\n      tag_525\n        /* \"#utility.yul\":13173:13178   */\n      dup2\n        /* \"#utility.yul\":13146:13179   */\n      tag_330\n      jump\t// in\n    tag_525:\n        /* \"#utility.yul\":13042:13185   */\n      swap3\n      swap2\n      pop\n      pop\n      jump\t// out\n        /* \"#utility.yul\":13191:13854   */\n    tag_186:\n        /* \"#utility.yul\":13279:13285   */\n      0x00\n        /* \"#utility.yul\":13287:13293   */\n      dup1\n        /* \"#utility.yul\":13295:13301   */\n      0x00\n        /* \"#utility.yul\":13344:13346   */\n      0x60\n        /* \"#utility.yul\":13332:13341   */\n      dup5\n        /* \"#utility.yul\":13323:13330   */\n      dup7\n        /* \"#utility.yul\":13319:13342   */\n      sub\n        /* \"#utility.yul\":13315:13347   */\n      slt\n        /* \"#utility.yul\":13312:13431   */\n      iszero\n      tag_527\n      jumpi\n        /* \"#utility.yul\":13350:13429   */\n      tag_528\n      tag_323\n      jump\t// in\n    tag_528:\n        /* \"#utility.yul\":13312:13431   */\n    tag_527:\n        /* \"#utility.yul\":13470:13471   */\n      0x00\n        /* \"#utility.yul\":13495:13559   */\n      tag_529\n        /* \"#utility.yul\":13551:13558   */\n      dup7\n        /* \"#utility.yul\":13542:13548   */\n      dup3\n        /* \"#utility.yul\":13531:13540   */\n      dup8\n        /* \"#utility.yul\":13527:13549   */\n      add\n        /* \"#utility.yul\":13495:13559   */\n      tag_351\n      jump\t// in\n    tag_529:\n        /* \"#utility.yul\":13485:13559   */\n      swap4\n      pop\n        /* \"#utility.yul\":13441:13569   */\n      pop\n        /* \"#utility.yul\":13608:13610   */\n      0x20\n        /* \"#utility.yul\":13634:13698   */\n      tag_530\n        /* \"#utility.yul\":13690:13697   */\n      dup7\n        /* \"#utility.yul\":13681:13687   */\n      dup3\n        /* \"#utility.yul\":13670:13679   */\n      dup8\n        /* \"#utility.yul\":13666:13688   */\n      add\n        /* \"#utility.yul\":13634:13698   */\n      tag_351\n      jump\t// in\n    tag_530:\n        /* \"#utility.yul\":13624:13698   */\n      swap3\n      pop\n        /* \"#utility.yul\":13579:13708   */\n      pop\n        /* \"#utility.yul\":13747:13749   */\n      0x40\n        /* \"#utility.yul\":13773:13837   */\n      tag_531\n        /* \"#utility.yul\":13829:13836   */\n      dup7\n        /* \"#utility.yul\":13820:13826   */\n      dup3\n        /* \"#utility.yul\":13809:13818   */\n      dup8\n        /* \"#utility.yul\":13805:13827   */\n      add\n        /* \"#utility.yul\":13773:13837   */\n      tag_351\n      jump\t// in\n    tag_531:\n        /* \"#utility.yul\":13763:13837   */\n      swap2\n      pop\n        /* \"#utility.yul\":13718:13847   */\n      pop\n        /* \"#utility.yul\":13191:13854   */\n      swap3\n      pop\n      swap3\n      pop\n      swap3\n      jump\t// out\n        /* \"#utility.yul\":13860:14192   */\n    tag_188:\n        /* \"#utility.yul\":13981:13985   */\n      0x00\n        /* \"#utility.yul\":14019:14021   */\n      0x40\n        /* \"#utility.yul\":14008:14017   */\n      dup3\n        /* \"#utility.yul\":14004:14022   */\n      add\n        /* \"#utility.yul\":13996:14022   */\n      swap1\n      pop\n        /* \"#utility.yul\":14032:14103   */\n      tag_533\n        /* \"#utility.yul\":14100:14101   */\n      0x00\n        /* \"#utility.yul\":14089:14098   */\n      dup4\n        /* \"#utility.yul\":14085:14102   */\n      add\n        /* \"#utility.yul\":14076:14082   */\n      dup6\n        /* \"#utility.yul\":14032:14103   */\n      tag_337\n      jump\t// in\n    tag_533:\n        /* \"#utility.yul\":14113:14185   */\n      tag_534\n        /* \"#utility.yul\":14181:14183   */\n      0x20\n        /* \"#utility.yul\":14170:14179   */\n      dup4\n        /* \"#utility.yul\":14166:14184   */\n      add\n        /* \"#utility.yul\":14157:14163   */\n      dup5\n        /* \"#utility.yul\":14113:14185   */\n      tag_334\n      jump\t// in\n    tag_534:\n        /* \"#utility.yul\":13860:14192   */\n      swap4\n      swap3\n      pop\n      pop\n      pop\n      jump\t// out\n        /* \"#utility.yul\":14198:14314   */\n    tag_352:\n        /* \"#utility.yul\":14268:14289   */\n      tag_536\n        /* \"#utility.yul\":14283:14288   */\n      dup2\n        /* \"#utility.yul\":14268:14289   */\n      tag_332\n      jump\t// in\n    tag_536:\n        /* \"#utility.yul\":14261:14266   */\n      dup2\n        /* \"#utility.yul\":14258:14290   */\n      eq\n        /* \"#utility.yul\":14248:14308   */\n      tag_537\n      jumpi\n        /* \"#utility.yul\":14304:14305   */\n      0x00\n        /* \"#utility.yul\":14301:14302   */\n      dup1\n        /* \"#utility.yul\":14294:14306   */\n      revert\n        /* \"#utility.yul\":14248:14308   */\n    tag_537:\n        /* \"#utility.yul\":14198:14314   */\n      pop\n      jump\t// out\n        /* \"#utility.yul\":14320:14457   */\n    tag_353:\n        /* \"#utility.yul\":14374:14379   */\n      0x00\n        /* \"#utility.yul\":14405:14411   */\n      dup2\n        /* \"#utility.yul\":14399:14412   */\n      mload\n        /* \"#utility.yul\":14390:14412   */\n      swap1\n      pop\n        /* \"#utility.yul\":14421:14451   */\n      tag_539\n        /* \"#utility.yul\":14445:14450   */\n      dup2\n        /* \"#utility.yul\":14421:14451   */\n      tag_352\n      jump\t// in\n    tag_539:\n        /* \"#utility.yul\":14320:14457   */\n      swap3\n      swap2\n      pop\n      pop\n      jump\t// out\n        /* \"#utility.yul\":14463:14808   */\n    tag_192:\n        /* \"#utility.yul\":14530:14536   */\n      0x00\n        /* \"#utility.yul\":14579:14581   */\n      0x20\n        /* \"#utility.yul\":14567:14576   */\n      dup3\n        /* \"#utility.yul\":14558:14565   */\n      dup5\n        /* \"#utility.yul\":14554:14577   */\n      sub\n        /* \"#utility.yul\":14550:14582   */\n      slt\n        /* \"#utility.yul\":14547:14666   */\n      iszero\n      tag_541\n      jumpi\n        /* \"#utility.yul\":14585:14664   */\n      tag_542\n      tag_323\n      jump\t// in\n    tag_542:\n        /* \"#utility.yul\":14547:14666   */\n    tag_541:\n        /* \"#utility.yul\":14705:14706   */\n      0x00\n        /* \"#utility.yul\":14730:14791   */\n      tag_543\n        /* \"#utility.yul\":14783:14790   */\n      dup5\n        /* \"#utility.yul\":14774:14780   */\n      dup3\n        /* \"#utility.yul\":14763:14772   */\n      dup6\n        /* \"#utility.yul\":14759:14781   */\n      add\n        /* \"#utility.yul\":14730:14791   */\n      tag_353\n      jump\t// in\n    tag_543:\n        /* \"#utility.yul\":14720:14791   */\n      swap2\n      pop\n        /* \"#utility.yul\":14676:14801   */\n      pop\n        /* \"#utility.yul\":14463:14808   */\n      swap3\n      swap2\n      pop\n      pop\n      jump\t// out\n        /* \"#utility.yul\":14814:15037   */\n    tag_354:\n        /* \"#utility.yul\":14954:14988   */\n      0x45524332303a20617070726f76652066726f6d20746865207a65726f20616464\n        /* \"#utility.yul\":14950:14951   */\n      0x00\n        /* \"#utility.yul\":14942:14948   */\n      dup3\n        /* \"#utility.yul\":14938:14952   */\n      add\n        /* \"#utility.yul\":14931:14989   */\n      mstore\n        /* \"#utility.yul\":15023:15029   */\n      0x7265737300000000000000000000000000000000000000000000000000000000\n        /* \"#utility.yul\":15018:15020   */\n      0x20\n        /* \"#utility.yul\":15010:15016   */\n      dup3\n        /* \"#utility.yul\":15006:15021   */\n      add\n        /* \"#utility.yul\":14999:15030   */\n      mstore\n        /* \"#utility.yul\":14814:15037   */\n      pop\n      jump\t// out\n        /* \"#utility.yul\":15043:15409   */\n    tag_355:\n        /* \"#utility.yul\":15185:15188   */\n      0x00\n        /* \"#utility.yul\":15206:15273   */\n      tag_546\n        /* \"#utility.yul\":15270:15272   */\n      0x24\n        /* \"#utility.yul\":15265:15268   */\n      dup4\n        /* \"#utility.yul\":15206:15273   */\n      tag_318\n      jump\t// in\n    tag_546:\n        /* \"#utility.yul\":15199:15273   */\n      swap2\n      pop\n        /* \"#utility.yul\":15282:15375   */\n      tag_547\n        /* \"#utility.yul\":15371:15374   */\n      dup3\n        /* \"#utility.yul\":15282:15375   */\n      tag_354\n      jump\t// in\n    tag_547:\n        /* \"#utility.yul\":15400:15402   */\n      0x40\n        /* \"#utility.yul\":15395:15398   */\n      dup3\n        /* \"#utility.yul\":15391:15403   */\n      add\n        /* \"#utility.yul\":15384:15403   */\n      swap1\n      pop\n        /* \"#utility.yul\":15043:15409   */\n      swap2\n      swap1\n      pop\n      jump\t// out\n        /* \"#utility.yul\":15415:15834   */\n    tag_198:\n        /* \"#utility.yul\":15581:15585   */\n      0x00\n        /* \"#utility.yul\":15619:15621   */\n      0x20\n        /* \"#utility.yul\":15608:15617   */\n      dup3\n        /* \"#utility.yul\":15604:15622   */\n      add\n        /* \"#utility.yul\":15596:15622   */\n      swap1\n      pop\n        /* \"#utility.yul\":15668:15677   */\n      dup2\n        /* \"#utility.yul\":15662:15666   */\n      dup2\n        /* \"#utility.yul\":15658:15678   */\n      sub\n        /* \"#utility.yul\":15654:15655   */\n      0x00\n        /* \"#utility.yul\":15643:15652   */\n      dup4\n        /* \"#utility.yul\":15639:15656   */\n      add\n        /* \"#utility.yul\":15632:15679   */\n      mstore\n        /* \"#utility.yul\":15696:15827   */\n      tag_549\n        /* \"#utility.yul\":15822:15826   */\n      dup2\n        /* \"#utility.yul\":15696:15827   */\n      tag_355\n      jump\t// in\n    tag_549:\n        /* \"#utility.yul\":15688:15827   */\n      swap1\n      pop\n        /* \"#utility.yul\":15415:15834   */\n      swap2\n      swap1\n      pop\n      jump\t// out\n        /* \"#utility.yul\":15840:16061   */\n    tag_356:\n        /* \"#utility.yul\":15980:16014   */\n      0x45524332303a20617070726f766520746f20746865207a65726f206164647265\n        /* \"#utility.yul\":15976:15977   */\n      0x00\n        /* \"#utility.yul\":15968:15974   */\n      dup3\n        /* \"#utility.yul\":15964:15978   */\n      add\n        /* \"#utility.yul\":15957:16015   */\n      mstore\n        /* \"#utility.yul\":16049:16053   */\n      0x7373000000000000000000000000000000000000000000000000000000000000\n        /* \"#utility.yul\":16044:16046   */\n      0x20\n        /* \"#utility.yul\":16036:16042   */\n      dup3\n        /* \"#utility.yul\":16032:16047   */\n      add\n        /* \"#utility.yul\":16025:16054   */\n      mstore\n        /* \"#utility.yul\":15840:16061   */\n      pop\n      jump\t// out\n        /* \"#utility.yul\":16067:16433   */\n    tag_357:\n        /* \"#utility.yul\":16209:16212   */\n      0x00\n        /* \"#utility.yul\":16230:16297   */\n      tag_552\n        /* \"#utility.yul\":16294:16296   */\n      0x22\n        /* \"#utility.yul\":16289:16292   */\n      dup4\n        /* \"#utility.yul\":16230:16297   */\n      tag_318\n      jump\t// in\n    tag_552:\n        /* \"#utility.yul\":16223:16297   */\n      swap2\n      pop\n        /* \"#utility.yul\":16306:16399   */\n      tag_553\n        /* \"#utility.yul\":16395:16398   */\n      dup3\n        /* \"#utility.yul\":16306:16399   */\n      tag_356\n      jump\t// in\n    tag_553:\n        /* \"#utility.yul\":16424:16426   */\n      0x40\n        /* \"#utility.yul\":16419:16422   */\n      dup3\n        /* \"#utility.yul\":16415:16427   */\n      add\n        /* \"#utility.yul\":16408:16427   */\n      swap1\n      pop\n        /* \"#utility.yul\":16067:16433   */\n      swap2\n      swap1\n      pop\n      jump\t// out\n        /* \"#utility.yul\":16439:16858   */\n    tag_201:\n        /* \"#utility.yul\":16605:16609   */\n      0x00\n        /* \"#utility.yul\":16643:16645   */\n      0x20\n        /* \"#utility.yul\":16632:16641   */\n      dup3\n        /* \"#utility.yul\":16628:16646   */\n      add\n        /* \"#utility.yul\":16620:16646   */\n      swap1\n      pop\n        /* \"#utility.yul\":16692:16701   */\n      dup2\n        /* \"#utility.yul\":16686:16690   */\n      dup2\n        /* \"#utility.yul\":16682:16702   */\n      sub\n        /* \"#utility.yul\":16678:16679   */\n      0x00\n        /* \"#utility.yul\":16667:16676   */\n      dup4\n        /* \"#utility.yul\":16663:16680   */\n      add\n        /* \"#utility.yul\":16656:16703   */\n      mstore\n        /* \"#utility.yul\":16720:16851   */\n      tag_555\n        /* \"#utility.yul\":16846:16850   */\n      dup2\n        /* \"#utility.yul\":16720:16851   */\n      tag_357\n      jump\t// in\n    tag_555:\n        /* \"#utility.yul\":16712:16851   */\n      swap1\n      pop\n        /* \"#utility.yul\":16439:16858   */\n      swap2\n      swap1\n      pop\n      jump\t// out\n        /* \"#utility.yul\":16864:17088   */\n    tag_358:\n        /* \"#utility.yul\":17004:17038   */\n      0x45524332303a207472616e736665722066726f6d20746865207a65726f206164\n        /* \"#utility.yul\":17000:17001   */\n      0x00\n        /* \"#utility.yul\":16992:16998   */\n      dup3\n        /* \"#utility.yul\":16988:17002   */\n      add\n        /* \"#utility.yul\":16981:17039   */\n      mstore\n        /* \"#utility.yul\":17073:17080   */\n      0x6472657373000000000000000000000000000000000000000000000000000000\n        /* \"#utility.yul\":17068:17070   */\n      0x20\n        /* \"#utility.yul\":17060:17066   */\n      dup3\n        /* \"#utility.yul\":17056:17071   */\n      add\n        /* \"#utility.yul\":17049:17081   */\n      mstore\n        /* \"#utility.yul\":16864:17088   */\n      pop\n      jump\t// out\n        /* \"#utility.yul\":17094:17460   */\n    tag_359:\n        /* \"#utility.yul\":17236:17239   */\n      0x00\n        /* \"#utility.yul\":17257:17324   */\n      tag_558\n        /* \"#utility.yul\":17321:17323   */\n      0x25\n        /* \"#utility.yul\":17316:17319   */\n      dup4\n        /* \"#utility.yul\":17257:17324   */\n      tag_318\n      jump\t// in\n    tag_558:\n        /* \"#utility.yul\":17250:17324   */\n      swap2\n      pop\n        /* \"#utility.yul\":17333:17426   */\n      tag_559\n        /* \"#utility.yul\":17422:17425   */\n      dup3\n        /* \"#utility.yul\":17333:17426   */\n      tag_358\n      jump\t// in\n    tag_559:\n        /* \"#utility.yul\":17451:17453   */\n      0x40\n        /* \"#utility.yul\":17446:17449   */\n      dup3\n        /* \"#utility.yul\":17442:17454   */\n      add\n        /* \"#utility.yul\":17435:17454   */\n      swap1\n      pop\n        /* \"#utility.yul\":17094:17460   */\n      swap2\n      swap1\n      pop\n      jump\t// out\n        /* \"#utility.yul\":17466:17885   */\n    tag_206:\n        /* \"#utility.yul\":17632:17636   */\n      0x00\n        /* \"#utility.yul\":17670:17672   */\n      0x20\n        /* \"#utility.yul\":17659:17668   */\n      dup3\n        /* \"#utility.yul\":17655:17673   */\n      add\n        /* \"#utility.yul\":17647:17673   */\n      swap1\n      pop\n        /* \"#utility.yul\":17719:17728   */\n      dup2\n        /* \"#utility.yul\":17713:17717   */\n      dup2\n        /* \"#utility.yul\":17709:17729   */\n      sub\n        /* \"#utility.yul\":17705:17706   */\n      0x00\n        /* \"#utility.yul\":17694:17703   */\n      dup4\n        /* \"#utility.yul\":17690:17707   */\n      add\n        /* \"#utility.yul\":17683:17730   */\n      mstore\n        /* \"#utility.yul\":17747:17878   */\n      tag_561\n        /* \"#utility.yul\":17873:17877   */\n      dup2\n        /* \"#utility.yul\":17747:17878   */\n      tag_359\n      jump\t// in\n    tag_561:\n        /* \"#utility.yul\":17739:17878   */\n      swap1\n      pop\n        /* \"#utility.yul\":17466:17885   */\n      swap2\n      swap1\n      pop\n      jump\t// out\n        /* \"#utility.yul\":17891:18113   */\n    tag_360:\n        /* \"#utility.yul\":18031:18065   */\n      0x45524332303a207472616e7366657220746f20746865207a65726f2061646472\n        /* \"#utility.yul\":18027:18028   */\n      0x00\n        /* \"#utility.yul\":18019:18025   */\n      dup3\n        /* \"#utility.yul\":18015:18029   */\n      add\n        /* \"#utility.yul\":18008:18066   */\n      mstore\n        /* \"#utility.yul\":18100:18105   */\n      0x6573730000000000000000000000000000000000000000000000000000000000\n        /* \"#utility.yul\":18095:18097   */\n      0x20\n        /* \"#utility.yul\":18087:18093   */\n      dup3\n        /* \"#utility.yul\":18083:18098   */\n      add\n        /* \"#utility.yul\":18076:18106   */\n      mstore\n        /* \"#utility.yul\":17891:18113   */\n      pop\n      jump\t// out\n        /* \"#utility.yul\":18119:18485   */\n    tag_361:\n        /* \"#utility.yul\":18261:18264   */\n      0x00\n        /* \"#utility.yul\":18282:18349   */\n      tag_564\n        /* \"#utility.yul\":18346:18348   */\n      0x23\n        /* \"#utility.yul\":18341:18344   */\n      dup4\n        /* \"#utility.yul\":18282:18349   */\n      tag_318\n      jump\t// in\n    tag_564:\n        /* \"#utility.yul\":18275:18349   */\n      swap2\n      pop\n        /* \"#utility.yul\":18358:18451   */\n      tag_565\n        /* \"#utility.yul\":18447:18450   */\n      dup3\n        /* \"#utility.yul\":18358:18451   */\n      tag_360\n      jump\t// in\n    tag_565:\n        /* \"#utility.yul\":18476:18478   */\n      0x40\n        /* \"#utility.yul\":18471:18474   */\n      dup3\n        /* \"#utility.yul\":18467:18479   */\n      add\n        /* \"#utility.yul\":18460:18479   */\n      swap1\n      pop\n        /* \"#utility.yul\":18119:18485   */\n      swap2\n      swap1\n      pop\n      jump\t// out\n        /* \"#utility.yul\":18491:18910   */\n    tag_209:\n        /* \"#utility.yul\":18657:18661   */\n      0x00\n        /* \"#utility.yul\":18695:18697   */\n      0x20\n        /* \"#utility.yul\":18684:18693   */\n      dup3\n        /* \"#utility.yul\":18680:18698   */\n      add\n        /* \"#utility.yul\":18672:18698   */\n      swap1\n      pop\n        /* \"#utility.yul\":18744:18753   */\n      dup2\n        /* \"#utility.yul\":18738:18742   */\n      dup2\n        /* \"#utility.yul\":18734:18754   */\n      sub\n        /* \"#utility.yul\":18730:18731   */\n      0x00\n        /* \"#utility.yul\":18719:18728   */\n      dup4\n        /* \"#utility.yul\":18715:18732   */\n      add\n        /* \"#utility.yul\":18708:18755   */\n      mstore\n        /* \"#utility.yul\":18772:18903   */\n      tag_567\n        /* \"#utility.yul\":18898:18902   */\n      dup2\n        /* \"#utility.yul\":18772:18903   */\n      tag_361\n      jump\t// in\n    tag_567:\n        /* \"#utility.yul\":18764:18903   */\n      swap1\n      pop\n        /* \"#utility.yul\":18491:18910   */\n      swap2\n      swap1\n      pop\n      jump\t// out\n        /* \"#utility.yul\":18916:19144   */\n    tag_362:\n        /* \"#utility.yul\":19056:19090   */\n      0x5472616e7366657220616d6f756e74206d757374206265206772656174657220\n        /* \"#utility.yul\":19052:19053   */\n      0x00\n        /* \"#utility.yul\":19044:19050   */\n      dup3\n        /* \"#utility.yul\":19040:19054   */\n      add\n        /* \"#utility.yul\":19033:19091   */\n      mstore\n        /* \"#utility.yul\":19125:19136   */\n      0x7468616e207a65726f0000000000000000000000000000000000000000000000\n        /* \"#utility.yul\":19120:19122   */\n      0x20\n        /* \"#utility.yul\":19112:19118   */\n      dup3\n        /* \"#utility.yul\":19108:19123   */\n      add\n        /* \"#utility.yul\":19101:19137   */\n      mstore\n        /* \"#utility.yul\":18916:19144   */\n      pop\n      jump\t// out\n        /* \"#utility.yul\":19150:19516   */\n    tag_363:\n        /* \"#utility.yul\":19292:19295   */\n      0x00\n        /* \"#utility.yul\":19313:19380   */\n      tag_570\n        /* \"#utility.yul\":19377:19379   */\n      0x29\n        /* \"#utility.yul\":19372:19375   */\n      dup4\n        /* \"#utility.yul\":19313:19380   */\n      tag_318\n      jump\t// in\n    tag_570:\n        /* \"#utility.yul\":19306:19380   */\n      swap2\n      pop\n        /* \"#utility.yul\":19389:19482   */\n      tag_571\n        /* \"#utility.yul\":19478:19481   */\n      dup3\n        /* \"#utility.yul\":19389:19482   */\n      tag_362\n      jump\t// in\n    tag_571:\n        /* \"#utility.yul\":19507:19509   */\n      0x40\n        /* \"#utility.yul\":19502:19505   */\n      dup3\n        /* \"#utility.yul\":19498:19510   */\n      add\n        /* \"#utility.yul\":19491:19510   */\n      swap1\n      pop\n        /* \"#utility.yul\":19150:19516   */\n      swap2\n      swap1\n      pop\n      jump\t// out\n        /* \"#utility.yul\":19522:19941   */\n    tag_212:\n        /* \"#utility.yul\":19688:19692   */\n      0x00\n        /* \"#utility.yul\":19726:19728   */\n      0x20\n        /* \"#utility.yul\":19715:19724   */\n      dup3\n        /* \"#utility.yul\":19711:19729   */\n      add\n        /* \"#utility.yul\":19703:19729   */\n      swap1\n      pop\n        /* \"#utility.yul\":19775:19784   */\n      dup2\n        /* \"#utility.yul\":19769:19773   */\n      dup2\n        /* \"#utility.yul\":19765:19785   */\n      sub\n        /* \"#utility.yul\":19761:19762   */\n      0x00\n        /* \"#utility.yul\":19750:19759   */\n      dup4\n        /* \"#utility.yul\":19746:19763   */\n      add\n        /* \"#utility.yul\":19739:19786   */\n      mstore\n        /* \"#utility.yul\":19803:19934   */\n      tag_573\n        /* \"#utility.yul\":19929:19933   */\n      dup2\n        /* \"#utility.yul\":19803:19934   */\n      tag_363\n      jump\t// in\n    tag_573:\n        /* \"#utility.yul\":19795:19934   */\n      swap1\n      pop\n        /* \"#utility.yul\":19522:19941   */\n      swap2\n      swap1\n      pop\n      jump\t// out\n        /* \"#utility.yul\":19947:20243   */\n    tag_364:\n        /* \"#utility.yul\":20087:20121   */\n      0x5f7472616e736665723a3a205472616e736665722044656c617920656e61626c\n        /* \"#utility.yul\":20083:20084   */\n      0x00\n        /* \"#utility.yul\":20075:20081   */\n      dup3\n        /* \"#utility.yul\":20071:20085   */\n      add\n        /* \"#utility.yul\":20064:20122   */\n      mstore\n        /* \"#utility.yul\":20156:20190   */\n      0x65642e204f6e6c79206f6e652070757263686173652070657220626c6f636b20\n        /* \"#utility.yul\":20151:20153   */\n      0x20\n        /* \"#utility.yul\":20143:20149   */\n      dup3\n        /* \"#utility.yul\":20139:20154   */\n      add\n        /* \"#utility.yul\":20132:20191   */\n      mstore\n        /* \"#utility.yul\":20225:20235   */\n      0x616c6c6f7765642e000000000000000000000000000000000000000000000000\n        /* \"#utility.yul\":20220:20222   */\n      0x40\n        /* \"#utility.yul\":20212:20218   */\n      dup3\n        /* \"#utility.yul\":20208:20223   */\n      add\n        /* \"#utility.yul\":20201:20236   */\n      mstore\n        /* \"#utility.yul\":19947:20243   */\n      pop\n      jump\t// out\n        /* \"#utility.yul\":20249:20615   */\n    tag_365:\n        /* \"#utility.yul\":20391:20394   */\n      0x00\n        /* \"#utility.yul\":20412:20479   */\n      tag_576\n        /* \"#utility.yul\":20476:20478   */\n      0x48\n        /* \"#utility.yul\":20471:20474   */\n      dup4\n        /* \"#utility.yul\":20412:20479   */\n      tag_318\n      jump\t// in\n    tag_576:\n        /* \"#utility.yul\":20405:20479   */\n      swap2\n      pop\n        /* \"#utility.yul\":20488:20581   */\n      tag_577\n        /* \"#utility.yul\":20577:20580   */\n      dup3\n        /* \"#utility.yul\":20488:20581   */\n      tag_364\n      jump\t// in\n    tag_577:\n        /* \"#utility.yul\":20606:20608   */\n      0x60\n        /* \"#utility.yul\":20601:20604   */\n      dup3\n        /* \"#utility.yul\":20597:20609   */\n      add\n        /* \"#utility.yul\":20590:20609   */\n      swap1\n      pop\n        /* \"#utility.yul\":20249:20615   */\n      swap2\n      swap1\n      pop\n      jump\t// out\n        /* \"#utility.yul\":20621:21040   */\n    tag_226:\n        /* \"#utility.yul\":20787:20791   */\n      0x00\n        /* \"#utility.yul\":20825:20827   */\n      0x20\n        /* \"#utility.yul\":20814:20823   */\n      dup3\n        /* \"#utility.yul\":20810:20828   */\n      add\n        /* \"#utility.yul\":20802:20828   */\n      swap1\n      pop\n        /* \"#utility.yul\":20874:20883   */\n      dup2\n        /* \"#utility.yul\":20868:20872   */\n      dup2\n        /* \"#utility.yul\":20864:20884   */\n      sub\n        /* \"#utility.yul\":20860:20861   */\n      0x00\n        /* \"#utility.yul\":20849:20858   */\n      dup4\n        /* \"#utility.yul\":20845:20862   */\n      add\n        /* \"#utility.yul\":20838:20885   */\n      mstore\n        /* \"#utility.yul\":20902:21033   */\n      tag_579\n        /* \"#utility.yul\":21028:21032   */\n      dup2\n        /* \"#utility.yul\":20902:21033   */\n      tag_365\n      jump\t// in\n    tag_579:\n        /* \"#utility.yul\":20894:21033   */\n      swap1\n      pop\n        /* \"#utility.yul\":20621:21040   */\n      swap2\n      swap1\n      pop\n      jump\t// out\n        /* \"#utility.yul\":21046:21221   */\n    tag_366:\n        /* \"#utility.yul\":21186:21213   */\n      0x4578636565647320746865205f6d61785478416d6f756e742e00000000000000\n        /* \"#utility.yul\":21182:21183   */\n      0x00\n        /* \"#utility.yul\":21174:21180   */\n      dup3\n        /* \"#utility.yul\":21170:21184   */\n      add\n        /* \"#utility.yul\":21163:21214   */\n      mstore\n        /* \"#utility.yul\":21046:21221   */\n      pop\n      jump\t// out\n        /* \"#utility.yul\":21227:21593   */\n    tag_367:\n        /* \"#utility.yul\":21369:21372   */\n      0x00\n        /* \"#utility.yul\":21390:21457   */\n      tag_582\n        /* \"#utility.yul\":21454:21456   */\n      0x19\n        /* \"#utility.yul\":21449:21452   */\n      dup4\n        /* \"#utility.yul\":21390:21457   */\n      tag_318\n      jump\t// in\n    tag_582:\n        /* \"#utility.yul\":21383:21457   */\n      swap2\n      pop\n        /* \"#utility.yul\":21466:21559   */\n      tag_583\n        /* \"#utility.yul\":21555:21558   */\n      dup3\n        /* \"#utility.yul\":21466:21559   */\n      tag_366\n      jump\t// in\n    tag_583:\n        /* \"#utility.yul\":21584:21586   */\n      0x20\n        /* \"#utility.yul\":21579:21582   */\n      dup3\n        /* \"#utility.yul\":21575:21587   */\n      add\n        /* \"#utility.yul\":21568:21587   */\n      swap1\n      pop\n        /* \"#utility.yul\":21227:21593   */\n      swap2\n      swap1\n      pop\n      jump\t// out\n        /* \"#utility.yul\":21599:22018   */\n    tag_232:\n        /* \"#utility.yul\":21765:21769   */\n      0x00\n        /* \"#utility.yul\":21803:21805   */\n      0x20\n        /* \"#utility.yul\":21792:21801   */\n      dup3\n        /* \"#utility.yul\":21788:21806   */\n      add\n        /* \"#utility.yul\":21780:21806   */\n      swap1\n      pop\n        /* \"#utility.yul\":21852:21861   */\n      dup2\n        /* \"#utility.yul\":21846:21850   */\n      dup2\n        /* \"#utility.yul\":21842:21862   */\n      sub\n        /* \"#utility.yul\":21838:21839   */\n      0x00\n        /* \"#utility.yul\":21827:21836   */\n      dup4\n        /* \"#utility.yul\":21823:21840   */\n      add\n        /* \"#utility.yul\":21816:21863   */\n      mstore\n        /* \"#utility.yul\":21880:22011   */\n      tag_585\n        /* \"#utility.yul\":22006:22010   */\n      dup2\n        /* \"#utility.yul\":21880:22011   */\n      tag_367\n      jump\t// in\n    tag_585:\n        /* \"#utility.yul\":21872:22011   */\n      swap1\n      pop\n        /* \"#utility.yul\":21599:22018   */\n      swap2\n      swap1\n      pop\n      jump\t// out\n        /* \"#utility.yul\":22024:22215   */\n    tag_235:\n        /* \"#utility.yul\":22064:22067   */\n      0x00\n        /* \"#utility.yul\":22083:22103   */\n      tag_587\n        /* \"#utility.yul\":22101:22102   */\n      dup3\n        /* \"#utility.yul\":22083:22103   */\n      tag_329\n      jump\t// in\n    tag_587:\n        /* \"#utility.yul\":22078:22103   */\n      swap2\n      pop\n        /* \"#utility.yul\":22117:22137   */\n      tag_588\n        /* \"#utility.yul\":22135:22136   */\n      dup4\n        /* \"#utility.yul\":22117:22137   */\n      tag_329\n      jump\t// in\n    tag_588:\n        /* \"#utility.yul\":22112:22137   */\n      swap3\n      pop\n        /* \"#utility.yul\":22160:22161   */\n      dup3\n        /* \"#utility.yul\":22157:22158   */\n      dup3\n        /* \"#utility.yul\":22153:22162   */\n      add\n        /* \"#utility.yul\":22146:22162   */\n      swap1\n      pop\n        /* \"#utility.yul\":22181:22184   */\n      dup1\n        /* \"#utility.yul\":22178:22179   */\n      dup3\n        /* \"#utility.yul\":22175:22185   */\n      gt\n        /* \"#utility.yul\":22172:22208   */\n      iszero\n      tag_589\n      jumpi\n        /* \"#utility.yul\":22188:22206   */\n      tag_590\n      tag_338\n      jump\t// in\n    tag_590:\n        /* \"#utility.yul\":22172:22208   */\n    tag_589:\n        /* \"#utility.yul\":22024:22215   */\n      swap3\n      swap2\n      pop\n      pop\n      jump\t// out\n        /* \"#utility.yul\":22221:22397   */\n    tag_368:\n        /* \"#utility.yul\":22361:22389   */\n      0x4578636565647320746865206d617857616c6c657453697a652e000000000000\n        /* \"#utility.yul\":22357:22358   */\n      0x00\n        /* \"#utility.yul\":22349:22355   */\n      dup3\n        /* \"#utility.yul\":22345:22359   */\n      add\n        /* \"#utility.yul\":22338:22390   */\n      mstore\n        /* \"#utility.yul\":22221:22397   */\n      pop\n      jump\t// out\n        /* \"#utility.yul\":22403:22769   */\n    tag_369:\n        /* \"#utility.yul\":22545:22548   */\n      0x00\n        /* \"#utility.yul\":22566:22633   */\n      tag_593\n        /* \"#utility.yul\":22630:22632   */\n      0x1a\n        /* \"#utility.yul\":22625:22628   */\n      dup4\n        /* \"#utility.yul\":22566:22633   */\n      tag_318\n      jump\t// in\n    tag_593:\n        /* \"#utility.yul\":22559:22633   */\n      swap2\n      pop\n        /* \"#utility.yul\":22642:22735   */\n      tag_594\n        /* \"#utility.yul\":22731:22734   */\n      dup3\n        /* \"#utility.yul\":22642:22735   */\n      tag_368\n      jump\t// in\n    tag_594:\n        /* \"#utility.yul\":22760:22762   */\n      0x20\n        /* \"#utility.yul\":22755:22758   */\n      dup3\n        /* \"#utility.yul\":22751:22763   */\n      add\n        /* \"#utility.yul\":22744:22763   */\n      swap1\n      pop\n        /* \"#utility.yul\":22403:22769   */\n      swap2\n      swap1\n      pop\n      jump\t// out\n        /* \"#utility.yul\":22775:23194   */\n    tag_238:\n        /* \"#utility.yul\":22941:22945   */\n      0x00\n        /* \"#utility.yul\":22979:22981   */\n      0x20\n        /* \"#utility.yul\":22968:22977   */\n      dup3\n        /* \"#utility.yul\":22964:22982   */\n      add\n        /* \"#utility.yul\":22956:22982   */\n      swap1\n      pop\n        /* \"#utility.yul\":23028:23037   */\n      dup2\n        /* \"#utility.yul\":23022:23026   */\n      dup2\n        /* \"#utility.yul\":23018:23038   */\n      sub\n        /* \"#utility.yul\":23014:23015   */\n      0x00\n        /* \"#utility.yul\":23003:23012   */\n      dup4\n        /* \"#utility.yul\":22999:23016   */\n      add\n        /* \"#utility.yul\":22992:23039   */\n      mstore\n        /* \"#utility.yul\":23056:23187   */\n      tag_596\n        /* \"#utility.yul\":23182:23186   */\n      dup2\n        /* \"#utility.yul\":23056:23187   */\n      tag_369\n      jump\t// in\n    tag_596:\n        /* \"#utility.yul\":23048:23187   */\n      swap1\n      pop\n        /* \"#utility.yul\":22775:23194   */\n      swap2\n      swap1\n      pop\n      jump\t// out\n        /* \"#utility.yul\":23200:23394   */\n    tag_268:\n        /* \"#utility.yul\":23240:23244   */\n      0x00\n        /* \"#utility.yul\":23260:23280   */\n      tag_598\n        /* \"#utility.yul\":23278:23279   */\n      dup3\n        /* \"#utility.yul\":23260:23280   */\n      tag_329\n      jump\t// in\n    tag_598:\n        /* \"#utility.yul\":23255:23280   */\n      swap2\n      pop\n        /* \"#utility.yul\":23294:23314   */\n      tag_599\n        /* \"#utility.yul\":23312:23313   */\n      dup4\n        /* \"#utility.yul\":23294:23314   */\n      tag_329\n      jump\t// in\n    tag_599:\n        /* \"#utility.yul\":23289:23314   */\n      swap3\n      pop\n        /* \"#utility.yul\":23338:23339   */\n      dup3\n        /* \"#utility.yul\":23335:23336   */\n      dup3\n        /* \"#utility.yul\":23331:23340   */\n      sub\n        /* \"#utility.yul\":23323:23340   */\n      swap1\n      pop\n        /* \"#utility.yul\":23362:23363   */\n      dup2\n        /* \"#utility.yul\":23356:23360   */\n      dup2\n        /* \"#utility.yul\":23353:23364   */\n      gt\n        /* \"#utility.yul\":23350:23387   */\n      iszero\n      tag_600\n      jumpi\n        /* \"#utility.yul\":23367:23385   */\n      tag_601\n      tag_338\n      jump\t// in\n    tag_601:\n        /* \"#utility.yul\":23350:23387   */\n    tag_600:\n        /* \"#utility.yul\":23200:23394   */\n      swap3\n      swap2\n      pop\n      pop\n      jump\t// out\n        /* \"#utility.yul\":23400:23580   */\n    tag_273:\n        /* \"#utility.yul\":23448:23525   */\n      0x4e487b7100000000000000000000000000000000000000000000000000000000\n        /* \"#utility.yul\":23445:23446   */\n      0x00\n        /* \"#utility.yul\":23438:23526   */\n      mstore\n        /* \"#utility.yul\":23545:23549   */\n      0x41\n        /* \"#utility.yul\":23542:23543   */\n      0x04\n        /* \"#utility.yul\":23535:23550   */\n      mstore\n        /* \"#utility.yul\":23569:23573   */\n      0x24\n        /* \"#utility.yul\":23566:23567   */\n      0x00\n        /* \"#utility.yul\":23559:23574   */\n      revert\n        /* \"#utility.yul\":23586:23766   */\n    tag_277:\n        /* \"#utility.yul\":23634:23711   */\n      0x4e487b7100000000000000000000000000000000000000000000000000000000\n        /* \"#utility.yul\":23631:23632   */\n      0x00\n        /* \"#utility.yul\":23624:23712   */\n      mstore\n        /* \"#utility.yul\":23731:23735   */\n      0x32\n        /* \"#utility.yul\":23728:23729   */\n      0x04\n        /* \"#utility.yul\":23721:23736   */\n      mstore\n        /* \"#utility.yul\":23755:23759   */\n      0x24\n        /* \"#utility.yul\":23752:23753   */\n      0x00\n        /* \"#utility.yul\":23745:23760   */\n      revert\n        /* \"#utility.yul\":23772:23886   */\n    tag_370:\n        /* \"#utility.yul\":23839:23845   */\n      0x00\n        /* \"#utility.yul\":23873:23878   */\n      dup2\n        /* \"#utility.yul\":23867:23879   */\n      mload\n        /* \"#utility.yul\":23857:23879   */\n      swap1\n      pop\n        /* \"#utility.yul\":23772:23886   */\n      swap2\n      swap1\n      pop\n      jump\t// out\n        /* \"#utility.yul\":23892:24076   */\n    tag_371:\n        /* \"#utility.yul\":23991:24002   */\n      0x00\n        /* \"#utility.yul\":24025:24031   */\n      dup3\n        /* \"#utility.yul\":24020:24023   */\n      dup3\n        /* \"#utility.yul\":24013:24032   */\n      mstore\n        /* \"#utility.yul\":24065:24069   */\n      0x20\n        /* \"#utility.yul\":24060:24063   */\n      dup3\n        /* \"#utility.yul\":24056:24070   */\n      add\n        /* \"#utility.yul\":24041:24070   */\n      swap1\n      pop\n        /* \"#utility.yul\":23892:24076   */\n      swap3\n      swap2\n      pop\n      pop\n      jump\t// out\n        /* \"#utility.yul\":24082:24214   */\n    tag_372:\n        /* \"#utility.yul\":24149:24153   */\n      0x00\n        /* \"#utility.yul\":24172:24175   */\n      dup2\n        /* \"#utility.yul\":24164:24175   */\n      swap1\n      pop\n        /* \"#utility.yul\":24202:24206   */\n      0x20\n        /* \"#utility.yul\":24197:24200   */\n      dup3\n        /* \"#utility.yul\":24193:24207   */\n      add\n        /* \"#utility.yul\":24185:24207   */\n      swap1\n      pop\n        /* \"#utility.yul\":24082:24214   */\n      swap2\n      swap1\n      pop\n      jump\t// out\n        /* \"#utility.yul\":24220:24328   */\n    tag_373:\n        /* \"#utility.yul\":24297:24321   */\n      tag_608\n        /* \"#utility.yul\":24315:24320   */\n      dup2\n        /* \"#utility.yul\":24297:24321   */\n      tag_326\n      jump\t// in\n    tag_608:\n        /* \"#utility.yul\":24292:24295   */\n      dup3\n        /* \"#utility.yul\":24285:24322   */\n      mstore\n        /* \"#utility.yul\":24220:24328   */\n      pop\n      pop\n      jump\t// out\n        /* \"#utility.yul\":24334:24513   */\n    tag_374:\n        /* \"#utility.yul\":24403:24413   */\n      0x00\n        /* \"#utility.yul\":24424:24470   */\n      tag_610\n        /* \"#utility.yul\":24466:24469   */\n      dup4\n        /* \"#utility.yul\":24458:24464   */\n      dup4\n        /* \"#utility.yul\":24424:24470   */\n      tag_373\n      jump\t// in\n    tag_610:\n        /* \"#utility.yul\":24502:24506   */\n      0x20\n        /* \"#utility.yul\":24497:24500   */\n      dup4\n        /* \"#utility.yul\":24493:24507   */\n      add\n        /* \"#utility.yul\":24479:24507   */\n      swap1\n      pop\n        /* \"#utility.yul\":24334:24513   */\n      swap3\n      swap2\n      pop\n      pop\n      jump\t// out\n        /* \"#utility.yul\":24519:24632   */\n    tag_375:\n        /* \"#utility.yul\":24589:24593   */\n      0x00\n        /* \"#utility.yul\":24621:24625   */\n      0x20\n        /* \"#utility.yul\":24616:24619   */\n      dup3\n        /* \"#utility.yul\":24612:24626   */\n      add\n        /* \"#utility.yul\":24604:24626   */\n      swap1\n      pop\n        /* \"#utility.yul\":24519:24632   */\n      swap2\n      swap1\n      pop\n      jump\t// out\n        /* \"#utility.yul\":24668:25400   */\n    tag_376:\n        /* \"#utility.yul\":24787:24790   */\n      0x00\n        /* \"#utility.yul\":24816:24870   */\n      tag_613\n        /* \"#utility.yul\":24864:24869   */\n      dup3\n        /* \"#utility.yul\":24816:24870   */\n      tag_370\n      jump\t// in\n    tag_613:\n        /* \"#utility.yul\":24886:24972   */\n      tag_614\n        /* \"#utility.yul\":24965:24971   */\n      dup2\n        /* \"#utility.yul\":24960:24963   */\n      dup6\n        /* \"#utility.yul\":24886:24972   */\n      tag_371\n      jump\t// in\n    tag_614:\n        /* \"#utility.yul\":24879:24972   */\n      swap4\n      pop\n        /* \"#utility.yul\":24996:25052   */\n      tag_615\n        /* \"#utility.yul\":25046:25051   */\n      dup4\n        /* \"#utility.yul\":24996:25052   */\n      tag_372\n      jump\t// in\n    tag_615:\n        /* \"#utility.yul\":25075:25082   */\n      dup1\n        /* \"#utility.yul\":25106:25107   */\n      0x00\n        /* \"#utility.yul\":25091:25375   */\n    tag_616:\n        /* \"#utility.yul\":25116:25122   */\n      dup4\n        /* \"#utility.yul\":25113:25114   */\n      dup2\n        /* \"#utility.yul\":25110:25123   */\n      lt\n        /* \"#utility.yul\":25091:25375   */\n      iszero\n      tag_618\n      jumpi\n        /* \"#utility.yul\":25192:25198   */\n      dup2\n        /* \"#utility.yul\":25186:25199   */\n      mload\n        /* \"#utility.yul\":25219:25282   */\n      tag_619\n        /* \"#utility.yul\":25278:25281   */\n      dup9\n        /* \"#utility.yul\":25263:25276   */\n      dup3\n        /* \"#utility.yul\":25219:25282   */\n      tag_374\n      jump\t// in\n    tag_619:\n        /* \"#utility.yul\":25212:25282   */\n      swap8\n      pop\n        /* \"#utility.yul\":25305:25365   */\n      tag_620\n        /* \"#utility.yul\":25358:25364   */\n      dup4\n        /* \"#utility.yul\":25305:25365   */\n      tag_375\n      jump\t// in\n    tag_620:\n        /* \"#utility.yul\":25295:25365   */\n      swap3\n      pop\n        /* \"#utility.yul\":25151:25375   */\n      pop\n        /* \"#utility.yul\":25138:25139   */\n      0x01\n        /* \"#utility.yul\":25135:25136   */\n      dup2\n        /* \"#utility.yul\":25131:25140   */\n      add\n        /* \"#utility.yul\":25126:25140   */\n      swap1\n      pop\n        /* \"#utility.yul\":25091:25375   */\n      jump(tag_616)\n    tag_618:\n        /* \"#utility.yul\":25095:25109   */\n      pop\n        /* \"#utility.yul\":25391:25394   */\n      dup6\n        /* \"#utility.yul\":25384:25394   */\n      swap4\n      pop\n        /* \"#utility.yul\":24792:25400   */\n      pop\n      pop\n      pop\n        /* \"#utility.yul\":24668:25400   */\n      swap3\n      swap2\n      pop\n      pop\n      jump\t// out\n        /* \"#utility.yul\":25406:26237   */\n    tag_285:\n        /* \"#utility.yul\":25669:25673   */\n      0x00\n        /* \"#utility.yul\":25707:25710   */\n      0xa0\n        /* \"#utility.yul\":25696:25705   */\n      dup3\n        /* \"#utility.yul\":25692:25711   */\n      add\n        /* \"#utility.yul\":25684:25711   */\n      swap1\n      pop\n        /* \"#utility.yul\":25721:25792   */\n      tag_622\n        /* \"#utility.yul\":25789:25790   */\n      0x00\n        /* \"#utility.yul\":25778:25787   */\n      dup4\n        /* \"#utility.yul\":25774:25791   */\n      add\n        /* \"#utility.yul\":25765:25771   */\n      dup9\n        /* \"#utility.yul\":25721:25792   */\n      tag_334\n      jump\t// in\n    tag_622:\n        /* \"#utility.yul\":25802:25882   */\n      tag_623\n        /* \"#utility.yul\":25878:25880   */\n      0x20\n        /* \"#utility.yul\":25867:25876   */\n      dup4\n        /* \"#utility.yul\":25863:25881   */\n      add\n        /* \"#utility.yul\":25854:25860   */\n      dup8\n        /* \"#utility.yul\":25802:25882   */\n      tag_350\n      jump\t// in\n    tag_623:\n        /* \"#utility.yul\":25929:25938   */\n      dup2\n        /* \"#utility.yul\":25923:25927   */\n      dup2\n        /* \"#utility.yul\":25919:25939   */\n      sub\n        /* \"#utility.yul\":25914:25916   */\n      0x40\n        /* \"#utility.yul\":25903:25912   */\n      dup4\n        /* \"#utility.yul\":25899:25917   */\n      add\n        /* \"#utility.yul\":25892:25940   */\n      mstore\n        /* \"#utility.yul\":25957:26065   */\n      tag_624\n        /* \"#utility.yul\":26060:26064   */\n      dup2\n        /* \"#utility.yul\":26051:26057   */\n      dup7\n        /* \"#utility.yul\":25957:26065   */\n      tag_376\n      jump\t// in\n    tag_624:\n        /* \"#utility.yul\":25949:26065   */\n      swap1\n      pop\n        /* \"#utility.yul\":26075:26147   */\n      tag_625\n        /* \"#utility.yul\":26143:26145   */\n      0x60\n        /* \"#utility.yul\":26132:26141   */\n      dup4\n        /* \"#utility.yul\":26128:26146   */\n      add\n        /* \"#utility.yul\":26119:26125   */\n      dup6\n        /* \"#utility.yul\":26075:26147   */\n      tag_337\n      jump\t// in\n    tag_625:\n        /* \"#utility.yul\":26157:26230   */\n      tag_626\n        /* \"#utility.yul\":26225:26228   */\n      0x80\n        /* \"#utility.yul\":26214:26223   */\n      dup4\n        /* \"#utility.yul\":26210:26229   */\n      add\n        /* \"#utility.yul\":26201:26207   */\n      dup5\n        /* \"#utility.yul\":26157:26230   */\n      tag_334\n      jump\t// in\n    tag_626:\n        /* \"#utility.yul\":25406:26237   */\n      swap7\n      swap6\n      pop\n      pop\n      pop\n      pop\n      pop\n      pop\n      jump\t// out\n        /* \"#utility.yul\":26243:26423   */\n    tag_377:\n        /* \"#utility.yul\":26291:26368   */\n      0x4e487b7100000000000000000000000000000000000000000000000000000000\n        /* \"#utility.yul\":26288:26289   */\n      0x00\n        /* \"#utility.yul\":26281:26369   */\n      mstore\n        /* \"#utility.yul\":26388:26392   */\n      0x12\n        /* \"#utility.yul\":26385:26386   */\n      0x04\n        /* \"#utility.yul\":26378:26393   */\n      mstore\n        /* \"#utility.yul\":26412:26416   */\n      0x24\n        /* \"#utility.yul\":26409:26410   */\n      0x00\n        /* \"#utility.yul\":26402:26417   */\n      revert\n        /* \"#utility.yul\":26429:26614   */\n    tag_296:\n        /* \"#utility.yul\":26469:26470   */\n      0x00\n        /* \"#utility.yul\":26486:26506   */\n      tag_629\n        /* \"#utility.yul\":26504:26505   */\n      dup3\n        /* \"#utility.yul\":26486:26506   */\n      tag_329\n      jump\t// in\n    tag_629:\n        /* \"#utility.yul\":26481:26506   */\n      swap2\n      pop\n        /* \"#utility.yul\":26520:26540   */\n      tag_630\n        /* \"#utility.yul\":26538:26539   */\n      dup4\n        /* \"#utility.yul\":26520:26540   */\n      tag_329\n      jump\t// in\n    tag_630:\n        /* \"#utility.yul\":26515:26540   */\n      swap3\n      pop\n        /* \"#utility.yul\":26559:26560   */\n      dup3\n        /* \"#utility.yul\":26549:26584   */\n      tag_631\n      jumpi\n        /* \"#utility.yul\":26564:26582   */\n      tag_632\n      tag_377\n      jump\t// in\n    tag_632:\n        /* \"#utility.yul\":26549:26584   */\n    tag_631:\n        /* \"#utility.yul\":26606:26607   */\n      dup3\n        /* \"#utility.yul\":26603:26604   */\n      dup3\n        /* \"#utility.yul\":26599:26608   */\n      div\n        /* \"#utility.yul\":26594:26608   */\n      swap1\n      pop\n        /* \"#utility.yul\":26429:26614   */\n      swap3\n      swap2\n      pop\n      pop\n      jump\t// out\n        /* \"#utility.yul\":26620:26840   */\n    tag_378:\n        /* \"#utility.yul\":26760:26794   */\n      0x536166654d6174683a206d756c7469706c69636174696f6e206f766572666c6f\n        /* \"#utility.yul\":26756:26757   */\n      0x00\n        /* \"#utility.yul\":26748:26754   */\n      dup3\n        /* \"#utility.yul\":26744:26758   */\n      add\n        /* \"#utility.yul\":26737:26795   */\n      mstore\n        /* \"#utility.yul\":26829:26832   */\n      0x7700000000000000000000000000000000000000000000000000000000000000\n        /* \"#utility.yul\":26824:26826   */\n      0x20\n        /* \"#utility.yul\":26816:26822   */\n      dup3\n        /* \"#utility.yul\":26812:26827   */\n      add\n        /* \"#utility.yul\":26805:26833   */\n      mstore\n        /* \"#utility.yul\":26620:26840   */\n      pop\n      jump\t// out\n        /* \"#utility.yul\":26846:27212   */\n    tag_379:\n        /* \"#utility.yul\":26988:26991   */\n      0x00\n        /* \"#utility.yul\":27009:27076   */\n      tag_635\n        /* \"#utility.yul\":27073:27075   */\n      0x21\n        /* \"#utility.yul\":27068:27071   */\n      dup4\n        /* \"#utility.yul\":27009:27076   */\n      tag_318\n      jump\t// in\n    tag_635:\n        /* \"#utility.yul\":27002:27076   */\n      swap2\n      pop\n        /* \"#utility.yul\":27085:27178   */\n      tag_636\n        /* \"#utility.yul\":27174:27177   */\n      dup3\n        /* \"#utility.yul\":27085:27178   */\n      tag_378\n      jump\t// in\n    tag_636:\n        /* \"#utility.yul\":27203:27205   */\n      0x40\n        /* \"#utility.yul\":27198:27201   */\n      dup3\n        /* \"#utility.yul\":27194:27206   */\n      add\n        /* \"#utility.yul\":27187:27206   */\n      swap1\n      pop\n        /* \"#utility.yul\":26846:27212   */\n      swap2\n      swap1\n      pop\n      jump\t// out\n        /* \"#utility.yul\":27218:27637   */\n    tag_299:\n        /* \"#utility.yul\":27384:27388   */\n      0x00\n        /* \"#utility.yul\":27422:27424   */\n      0x20\n        /* \"#utility.yul\":27411:27420   */\n      dup3\n        /* \"#utility.yul\":27407:27425   */\n      add\n        /* \"#utility.yul\":27399:27425   */\n      swap1\n      pop\n        /* \"#utility.yul\":27471:27480   */\n      dup2\n        /* \"#utility.yul\":27465:27469   */\n      dup2\n        /* \"#utility.yul\":27461:27481   */\n      sub\n        /* \"#utility.yul\":27457:27458   */\n      0x00\n        /* \"#utility.yul\":27446:27455   */\n      dup4\n        /* \"#utility.yul\":27442:27459   */\n      add\n        /* \"#utility.yul\":27435:27482   */\n      mstore\n        /* \"#utility.yul\":27499:27630   */\n      tag_638\n        /* \"#utility.yul\":27625:27629   */\n      dup2\n        /* \"#utility.yul\":27499:27630   */\n      tag_379\n      jump\t// in\n    tag_638:\n        /* \"#utility.yul\":27491:27630   */\n      swap1\n      pop\n        /* \"#utility.yul\":27218:27637   */\n      swap2\n      swap1\n      pop\n      jump\t// out\n        /* \"#utility.yul\":27643:27820   */\n    tag_380:\n        /* \"#utility.yul\":27783:27812   */\n      0x536166654d6174683a206164646974696f6e206f766572666c6f770000000000\n        /* \"#utility.yul\":27779:27780   */\n      0x00\n        /* \"#utility.yul\":27771:27777   */\n      dup3\n        /* \"#utility.yul\":27767:27781   */\n      add\n        /* \"#utility.yul\":27760:27813   */\n      mstore\n        /* \"#utility.yul\":27643:27820   */\n      pop\n      jump\t// out\n        /* \"#utility.yul\":27826:28192   */\n    tag_381:\n        /* \"#utility.yul\":27968:27971   */\n      0x00\n        /* \"#utility.yul\":27989:28056   */\n      tag_641\n        /* \"#utility.yul\":28053:28055   */\n      0x1b\n        /* \"#utility.yul\":28048:28051   */\n      dup4\n        /* \"#utility.yul\":27989:28056   */\n      tag_318\n      jump\t// in\n    tag_641:\n        /* \"#utility.yul\":27982:28056   */\n      swap2\n      pop\n        /* \"#utility.yul\":28065:28158   */\n      tag_642\n        /* \"#utility.yul\":28154:28157   */\n      dup3\n        /* \"#utility.yul\":28065:28158   */\n      tag_380\n      jump\t// in\n    tag_642:\n        /* \"#utility.yul\":28183:28185   */\n      0x20\n        /* \"#utility.yul\":28178:28181   */\n      dup3\n        /* \"#utility.yul\":28174:28186   */\n      add\n        /* \"#utility.yul\":28167:28186   */\n      swap1\n      pop\n        /* \"#utility.yul\":27826:28192   */\n      swap2\n      swap1\n      pop\n      jump\t// out\n        /* \"#utility.yul\":28198:28617   */\n    tag_310:\n        /* \"#utility.yul\":28364:28368   */\n      0x00\n        /* \"#utility.yul\":28402:28404   */\n      0x20\n        /* \"#utility.yul\":28391:28400   */\n      dup3\n        /* \"#utility.yul\":28387:28405   */\n      add\n        /* \"#utility.yul\":28379:28405   */\n      swap1\n      pop\n        /* \"#utility.yul\":28451:28460   */\n      dup2\n        /* \"#utility.yul\":28445:28449   */\n      dup2\n        /* \"#utility.yul\":28441:28461   */\n      sub\n        /* \"#utility.yul\":28437:28438   */\n      0x00\n        /* \"#utility.yul\":28426:28435   */\n      dup4\n        /* \"#utility.yul\":28422:28439   */\n      add\n        /* \"#utility.yul\":28415:28462   */\n      mstore\n        /* \"#utility.yul\":28479:28610   */\n      tag_644\n        /* \"#utility.yul\":28605:28609   */\n      dup2\n        /* \"#utility.yul\":28479:28610   */\n      tag_381\n      jump\t// in\n    tag_644:\n        /* \"#utility.yul\":28471:28610   */\n      swap1\n      pop\n        /* \"#utility.yul\":28198:28617   */\n      swap2\n      swap1\n      pop\n      jump\t// out\n    stop\n    data_974d1b4421da69cc60b481194f0dad36a5bb4e23da810da7a7fb30cdba178330 45524332303a207472616e7366657220616d6f756e74206578636565647320616c6c6f77616e6365\n\n    auxdata: 0xa26469706673582212208858808441f61bffb27db67a82b7846fc376580eeb149f7561013c7c2ced3e0964736f6c63430008140033\n}\n",
				"bytecode": {
					"linkReferences": {},
					"object": "6080604052600160065f6101000a81548160ff0219169083151502179055506012600a6200002e91906200063c565b620f42406200003e91906200068c565b6007556012600a6200005191906200063c565b620f42406200006191906200068c565b6008556012600a6200007491906200063c565b620186a06200008491906200068c565b6009556012600a6200009791906200063c565b620493e0620000a791906200068c565b600a555f600c60156101000a81548160ff0219169083151502179055505f600c60166101000a81548160ff021916908315150217905550348015620000ea575f80fd5b505f620000fc6200047c60201b60201c565b9050805f806101000a81548173ffffffffffffffffffffffffffffffffffffffff021916908373ffffffffffffffffffffffffffffffffffffffff1602179055508073ffffffffffffffffffffffffffffffffffffffff165f73ffffffffffffffffffffffffffffffffffffffff167f8be0079c531659141344cd1fd0a4f28419497f9722a3daafe3b4186f6b6457e060405160405180910390a350620001a86200047c60201b60201c565b600660016101000a81548173ffffffffffffffffffffffffffffffffffffffff021916908373ffffffffffffffffffffffffffffffffffffffff1602179055506012600a620001f891906200063c565b6305f5e1006200020991906200068c565b60015f6200021c6200047c60201b60201c565b73ffffffffffffffffffffffffffffffffffffffff1673ffffffffffffffffffffffffffffffffffffffff1681526020019081526020015f2081905550600160035f6200026e6200048360201b60201c565b73ffffffffffffffffffffffffffffffffffffffff1673ffffffffffffffffffffffffffffffffffffffff1681526020019081526020015f205f6101000a81548160ff021916908315150217905550600160035f3073ffffffffffffffffffffffffffffffffffffffff1673ffffffffffffffffffffffffffffffffffffffff1681526020019081526020015f205f6101000a81548160ff021916908315150217905550600160035f600660019054906101000a900473ffffffffffffffffffffffffffffffffffffffff1673ffffffffffffffffffffffffffffffffffffffff1673ffffffffffffffffffffffffffffffffffffffff1681526020019081526020015f205f6101000a81548160ff021916908315150217905550600160035f61dead73ffffffffffffffffffffffffffffffffffffffff1673ffffffffffffffffffffffffffffffffffffffff1681526020019081526020015f205f6101000a81548160ff021916908315150217905550620003f06200047c60201b60201c565b73ffffffffffffffffffffffffffffffffffffffff165f73ffffffffffffffffffffffffffffffffffffffff167fddf252ad1be2c89b69c2b068fc378daa952ba7f163c4a11628f55a4df523b3ef6012600a6200044e91906200063c565b6305f5e1006200045f91906200068c565b6040516200046e9190620006e7565b60405180910390a362000702565b5f33905090565b5f805f9054906101000a900473ffffffffffffffffffffffffffffffffffffffff16905090565b7f4e487b71000000000000000000000000000000000000000000000000000000005f52601160045260245ffd5b5f8160011c9050919050565b5f808291508390505b600185111562000534578086048111156200050c576200050b620004aa565b5b60018516156200051c5780820291505b80810290506200052c85620004d7565b9450620004ec565b94509492505050565b5f826200054e576001905062000620565b816200055d575f905062000620565b81600181146200057657600281146200058157620005b7565b600191505062000620565b60ff841115620005965762000595620004aa565b5b8360020a915084821115620005b057620005af620004aa565b5b5062000620565b5060208310610133831016604e8410600b8410161715620005f15782820a905083811115620005eb57620005ea620004aa565b5b62000620565b620006008484846001620004e3565b925090508184048111156200061a5762000619620004aa565b5b81810290505b9392505050565b5f819050919050565b5f60ff82169050919050565b5f620006488262000627565b9150620006558362000630565b9250620006847fffffffffffffffffffffffffffffffffffffffffffffffffffffffffffffffff84846200053d565b905092915050565b5f620006988262000627565b9150620006a58362000627565b9250828202620006b58162000627565b91508282048414831517620006cf57620006ce620004aa565b5b5092915050565b620006e18162000627565b82525050565b5f602082019050620006fc5f830184620006d6565b92915050565b612d9480620007105f395ff3fe608060405260043610610117575f3560e01c80637d1db4a51161009f578063a9059cbb11610063578063a9059cbb1461037c578063bf474bed146103b8578063c876d0b9146103e2578063c9567bf91461040c578063dd62ed3e146104225761011e565b80637d1db4a5146102aa5780638da5cb5b146102d45780638f9a55c0146102fe57806395d89b4114610328578063a01c3483146103525761011e565b806323b872dd116100e657806323b872dd146101dc578063313ce5671461021857806351bc3c851461024257806370a0823114610258578063715018a6146102945761011e565b806306fdde0314610122578063095ea7b31461014c5780630faee56f1461018857806318160ddd146101b25761011e565b3661011e57005b5f80fd5b34801561012d575f80fd5b5061013661045e565b6040516101439190611ecd565b60405180910390f35b348015610157575f80fd5b50610172600480360381019061016d9190611f7e565b61049b565b60405161017f9190611fd6565b60405180910390f35b348015610193575f80fd5b5061019c6104b8565b6040516101a99190611ffe565b60405180910390f35b3480156101bd575f80fd5b506101c66104be565b6040516101d39190611ffe565b60405180910390f35b3480156101e7575f80fd5b5061020260048036038101906101fd9190612017565b6104e1565b60405161020f9190611fd6565b60405180910390f35b348015610223575f80fd5b5061022c6105b5565b6040516102399190612082565b60405180910390f35b34801561024d575f80fd5b506102566105bd565b005b348015610263575f80fd5b5061027e6004803603810190610279919061209b565b610655565b60405161028b9190611ffe565b60405180910390f35b34801561029f575f80fd5b506102a861069b565b005b3480156102b5575f80fd5b506102be6107e9565b6040516102cb9190611ffe565b60405180910390f35b3480156102df575f80fd5b506102e86107ef565b6040516102f591906120d5565b60405180910390f35b348015610309575f80fd5b50610312610816565b60405161031f9190611ffe565b60405180910390f35b348015610333575f80fd5b5061033c61081c565b6040516103499190611ecd565b60405180910390f35b34801561035d575f80fd5b50610366610859565b60405161037391906120d5565b60405180910390f35b348015610387575f80fd5b506103a2600480360381019061039d9190611f7e565b61085f565b6040516103af9190611fd6565b60405180910390f35b3480156103c3575f80fd5b506103cc61087c565b6040516103d99190611ffe565b60405180910390f35b3480156103ed575f80fd5b506103f6610882565b6040516104039190611fd6565b60405180910390f35b348015610417575f80fd5b50610420610894565b005b34801561042d575f80fd5b50610448600480360381019061044391906120ee565b610db6565b6040516104559190611ffe565b60405180910390f35b60606040518060400160405280600881526020017f4f6e6520416e6f6e000000000000000000000000000000000000000000000000815250905090565b5f6104ae6104a7610e38565b8484610e3f565b6001905092915050565b600a5481565b5f6012600a6104cd9190612288565b6305f5e1006104dc91906122d2565b905090565b5f6104ed848484611002565b6105aa846104f9610e38565b6105a585604051806060016040528060288152602001612d376028913960025f8b73ffffffffffffffffffffffffffffffffffffffff1673ffffffffffffffffffffffffffffffffffffffff1681526020019081526020015f205f61055c610e38565b73ffffffffffffffffffffffffffffffffffffffff1673ffffffffffffffffffffffffffffffffffffffff1681526020019081526020015f205461192e9092919063ffffffff16565b610e3f565b600190509392505050565b5f6012905090565b600660019054906101000a900473ffffffffffffffffffffffffffffffffffffffff1673ffffffffffffffffffffffffffffffffffffffff166105fe610e38565b73ffffffffffffffffffffffffffffffffffffffff161461061d575f80fd5b5f61062730610655565b90505f81111561063b5761063a81611990565b5b5f4790505f8111156106515761065081611bfb565b5b5050565b5f60015f8373ffffffffffffffffffffffffffffffffffffffff1673ffffffffffffffffffffffffffffffffffffffff1681526020019081526020015f20549050919050565b6106a3610e38565b73ffffffffffffffffffffffffffffffffffffffff165f8054906101000a900473ffffffffffffffffffffffffffffffffffffffff1673ffffffffffffffffffffffffffffffffffffffff161461072f576040517f08c379a00000000000000000000000000000000000000000000000000000000081526004016107269061235d565b60405180910390fd5b5f73ffffffffffffffffffffffffffffffffffffffff165f8054906101000a900473ffffffffffffffffffffffffffffffffffffffff1673ffffffffffffffffffffffffffffffffffffffff167f8be0079c531659141344cd1fd0a4f28419497f9722a3daafe3b4186f6b6457e060405160405180910390a35f805f6101000a81548173ffffffffffffffffffffffffffffffffffffffff021916908373ffffffffffffffffffffffffffffffffffffffff160217905550565b60075481565b5f805f9054906101000a900473ffffffffffffffffffffffffffffffffffffffff16905090565b60085481565b60606040518060400160405280600481526020017f244f415400000000000000000000000000000000000000000000000000000000815250905090565b61dead81565b5f61087261086b610e38565b8484611002565b6001905092915050565b60095481565b60065f9054906101000a900460ff1681565b61089c610e38565b73ffffffffffffffffffffffffffffffffffffffff165f8054906101000a900473ffffffffffffffffffffffffffffffffffffffff1673ffffffffffffffffffffffffffffffffffffffff1614610928576040517f08c379a000000000000000000000000000000000000000000000000000000000815260040161091f9061235d565b60405180910390fd5b600c60149054906101000a900460ff1615610978576040517f08c379a000000000000000000000000000000000000000000000000000000000815260040161096f906123c5565b60405180910390fd5b737a250d5630b4cf539739df2c5dacb4c659f2488d600b5f6101000a81548173ffffffffffffffffffffffffffffffffffffffff021916908373ffffffffffffffffffffffffffffffffffffffff160217905550610a1430600b5f9054906101000a900473ffffffffffffffffffffffffffffffffffffffff166012600a610a009190612288565b6305f5e100610a0f91906122d2565b610e3f565b600b5f9054906101000a900473ffffffffffffffffffffffffffffffffffffffff1673ffffffffffffffffffffffffffffffffffffffff1663c45a01556040518163ffffffff1660e01b8152600401602060405180830381865afa158015610a7e573d5f803e3d5ffd5b505050506040513d601f19601f82011682018060405250810190610aa291906123f7565b73ffffffffffffffffffffffffffffffffffffffff1663c9c6539630600b5f9054906101000a900473ffffffffffffffffffffffffffffffffffffffff1673ffffffffffffffffffffffffffffffffffffffff1663ad5c46486040518163ffffffff1660e01b8152600401602060405180830381865afa158015610b28573d5f803e3d5ffd5b505050506040513d601f19601f82011682018060405250810190610b4c91906123f7565b6040518363ffffffff1660e01b8152600401610b69929190612422565b6020604051808303815f875af1158015610b85573d5f803e3d5ffd5b505050506040513d601f19601f82011682018060405250810190610ba991906123f7565b600c5f6101000a81548173ffffffffffffffffffffffffffffffffffffffff021916908373ffffffffffffffffffffffffffffffffffffffff160217905550600b5f9054906101000a900473ffffffffffffffffffffffffffffffffffffffff1673ffffffffffffffffffffffffffffffffffffffff1663f305d7194730610c3030610655565b5f80610c3a6107ef565b426040518863ffffffff1660e01b8152600401610c5c9695949392919061248b565b60606040518083038185885af1158015610c78573d5f803e3d5ffd5b50505050506040513d601f19601f82011682018060405250810190610c9d91906124fe565b505050600c5f9054906101000a900473ffffffffffffffffffffffffffffffffffffffff1673ffffffffffffffffffffffffffffffffffffffff1663095ea7b3600b5f9054906101000a900473ffffffffffffffffffffffffffffffffffffffff167fffffffffffffffffffffffffffffffffffffffffffffffffffffffffffffffff6040518363ffffffff1660e01b8152600401610d3d92919061254e565b6020604051808303815f875af1158015610d59573d5f803e3d5ffd5b505050506040513d601f19601f82011682018060405250810190610d7d919061259f565b506001600c60166101000a81548160ff0219169083151502179055506001600c60146101000a81548160ff021916908315150217905550565b5f60025f8473ffffffffffffffffffffffffffffffffffffffff1673ffffffffffffffffffffffffffffffffffffffff1681526020019081526020015f205f8373ffffffffffffffffffffffffffffffffffffffff1673ffffffffffffffffffffffffffffffffffffffff1681526020019081526020015f2054905092915050565b5f33905090565b5f73ffffffffffffffffffffffffffffffffffffffff168373ffffffffffffffffffffffffffffffffffffffff1603610ead576040517f08c379a0000000000000000000000000000000000000000000000000000000008152600401610ea49061263a565b60405180910390fd5b5f73ffffffffffffffffffffffffffffffffffffffff168273ffffffffffffffffffffffffffffffffffffffff1603610f1b576040517f08c379a0000000000000000000000000000000000000000000000000000000008152600401610f12906126c8565b60405180910390fd5b8060025f8573ffffffffffffffffffffffffffffffffffffffff1673ffffffffffffffffffffffffffffffffffffffff1681526020019081526020015f205f8473ffffffffffffffffffffffffffffffffffffffff1673ffffffffffffffffffffffffffffffffffffffff1681526020019081526020015f20819055508173ffffffffffffffffffffffffffffffffffffffff168373ffffffffffffffffffffffffffffffffffffffff167f8c5be1e5ebec7d5bd14f71427d1e84f3dd0314c0f7b2291e5b200ac8c7c3b92583604051610ff59190611ffe565b60405180910390a3505050565b5f73ffffffffffffffffffffffffffffffffffffffff168373ffffffffffffffffffffffffffffffffffffffff1603611070576040517f08c379a000000000000000000000000000000000000000000000000000000000815260040161106790612756565b60405180910390fd5b5f73ffffffffffffffffffffffffffffffffffffffff168273ffffffffffffffffffffffffffffffffffffffff16036110de576040517f08c379a00000000000000000000000000000000000000000000000000000000081526004016110d5906127e4565b60405180910390fd5b5f8111611120576040517f08c379a000000000000000000000000000000000000000000000000000000000815260040161111790612872565b60405180910390fd5b5f6111296107ef565b73ffffffffffffffffffffffffffffffffffffffff168473ffffffffffffffffffffffffffffffffffffffff161415801561119757506111676107ef565b73ffffffffffffffffffffffffffffffffffffffff168373ffffffffffffffffffffffffffffffffffffffff1614155b1561167e576111c360646111b5600185611c6490919063ffffffff16565b611cdb90919063ffffffff16565b905060065f9054906101000a900460ff161561134b57600b5f9054906101000a900473ffffffffffffffffffffffffffffffffffffffff1673ffffffffffffffffffffffffffffffffffffffff168373ffffffffffffffffffffffffffffffffffffffff16141580156112835750600c5f9054906101000a900473ffffffffffffffffffffffffffffffffffffffff1673ffffffffffffffffffffffffffffffffffffffff168373ffffffffffffffffffffffffffffffffffffffff1614155b1561134a574360055f3273ffffffffffffffffffffffffffffffffffffffff1673ffffffffffffffffffffffffffffffffffffffff1681526020019081526020015f205410611307576040517f08c379a00000000000000000000000000000000000000000000000000000000081526004016112fe90612926565b60405180910390fd5b4360055f3273ffffffffffffffffffffffffffffffffffffffff1673ffffffffffffffffffffffffffffffffffffffff1681526020019081526020015f20819055505b5b600c5f9054906101000a900473ffffffffffffffffffffffffffffffffffffffff1673ffffffffffffffffffffffffffffffffffffffff168473ffffffffffffffffffffffffffffffffffffffff161480156113f45750600b5f9054906101000a900473ffffffffffffffffffffffffffffffffffffffff1673ffffffffffffffffffffffffffffffffffffffff168373ffffffffffffffffffffffffffffffffffffffff1614155b8015611447575060035f8473ffffffffffffffffffffffffffffffffffffffff1673ffffffffffffffffffffffffffffffffffffffff1681526020019081526020015f205f9054906101000a900460ff16155b156114ea57600754821115611491576040517f08c379a00000000000000000000000000000000000000000000000000000000081526004016114889061298e565b60405180910390fd5b6008548261149e85610655565b6114a891906129ac565b11156114e9576040517f08c379a00000000000000000000000000000000000000000000000000000000081526004016114e090612a29565b60405180910390fd5b5b600c5f9054906101000a900473ffffffffffffffffffffffffffffffffffffffff1673ffffffffffffffffffffffffffffffffffffffff168373ffffffffffffffffffffffffffffffffffffffff1614801561157257503073ffffffffffffffffffffffffffffffffffffffff168473ffffffffffffffffffffffffffffffffffffffff1614155b156115a15761159e6064611590600185611c6490919063ffffffff16565b611cdb90919063ffffffff16565b90505b5f6115ab30610655565b9050600c60159054906101000a900460ff161580156116165750600c5f9054906101000a900473ffffffffffffffffffffffffffffffffffffffff1673ffffffffffffffffffffffffffffffffffffffff168473ffffffffffffffffffffffffffffffffffffffff16145b801561162e5750600c60169054906101000a900460ff165b801561163b575060095481115b1561167c5761165d6116588461165384600a54611d24565b611d24565b611990565b5f47905066b1a2bc2ec5000081111561167a5761167947611bfb565b5b505b505b5f81111561177d576116d68160015f3073ffffffffffffffffffffffffffffffffffffffff1673ffffffffffffffffffffffffffffffffffffffff1681526020019081526020015f2054611d3c90919063ffffffff16565b60015f3073ffffffffffffffffffffffffffffffffffffffff1673ffffffffffffffffffffffffffffffffffffffff1681526020019081526020015f20819055503073ffffffffffffffffffffffffffffffffffffffff168473ffffffffffffffffffffffffffffffffffffffff167fddf252ad1be2c89b69c2b068fc378daa952ba7f163c4a11628f55a4df523b3ef836040516117749190611ffe565b60405180910390a35b6117cd8260015f8773ffffffffffffffffffffffffffffffffffffffff1673ffffffffffffffffffffffffffffffffffffffff1681526020019081526020015f2054611d9990919063ffffffff16565b60015f8673ffffffffffffffffffffffffffffffffffffffff1673ffffffffffffffffffffffffffffffffffffffff1681526020019081526020015f20819055506118706118248284611d9990919063ffffffff16565b60015f8673ffffffffffffffffffffffffffffffffffffffff1673ffffffffffffffffffffffffffffffffffffffff1681526020019081526020015f2054611d3c90919063ffffffff16565b60015f8573ffffffffffffffffffffffffffffffffffffffff1673ffffffffffffffffffffffffffffffffffffffff1681526020019081526020015f20819055508273ffffffffffffffffffffffffffffffffffffffff168473ffffffffffffffffffffffffffffffffffffffff167fddf252ad1be2c89b69c2b068fc378daa952ba7f163c4a11628f55a4df523b3ef6119138486611d9990919063ffffffff16565b6040516119209190611ffe565b60405180910390a350505050565b5f838311158290611975576040517f08c379a000000000000000000000000000000000000000000000000000000000815260040161196c9190611ecd565b60405180910390fd5b505f83856119839190612a47565b9050809150509392505050565b6001600c60156101000a81548160ff0219169083151502179055505f600267ffffffffffffffff8111156119c7576119c6612a7a565b5b6040519080825280602002602001820160405280156119f55781602001602082028036833780820191505090505b50905030815f81518110611a0c57611a0b612aa7565b5b602002602001019073ffffffffffffffffffffffffffffffffffffffff16908173ffffffffffffffffffffffffffffffffffffffff1681525050600b5f9054906101000a900473ffffffffffffffffffffffffffffffffffffffff1673ffffffffffffffffffffffffffffffffffffffff1663ad5c46486040518163ffffffff1660e01b8152600401602060405180830381865afa158015611ab0573d5f803e3d5ffd5b505050506040513d601f19601f82011682018060405250810190611ad491906123f7565b81600181518110611ae857611ae7612aa7565b5b602002602001019073ffffffffffffffffffffffffffffffffffffffff16908173ffffffffffffffffffffffffffffffffffffffff1681525050611b4e30600b5f9054906101000a900473ffffffffffffffffffffffffffffffffffffffff1684610e3f565b600b5f9054906101000a900473ffffffffffffffffffffffffffffffffffffffff1673ffffffffffffffffffffffffffffffffffffffff1663791ac947835f8430426040518663ffffffff1660e01b8152600401611bb0959493929190612b8b565b5f604051808303815f87803b158015611bc7575f80fd5b505af1158015611bd9573d5f803e3d5ffd5b50505050505f600c60156101000a81548160ff02191690831515021790555050565b600660019054906101000a900473ffffffffffffffffffffffffffffffffffffffff1673ffffffffffffffffffffffffffffffffffffffff166108fc8290811502906040515f60405180830381858888f19350505050158015611c60573d5f803e3d5ffd5b5050565b5f808303611c74575f9050611cd5565b5f8284611c8191906122d2565b9050828482611c909190612c10565b14611cd0576040517f08c379a0000000000000000000000000000000000000000000000000000000008152600401611cc790612cb0565b60405180910390fd5b809150505b92915050565b5f611d1c83836040518060400160405280601a81526020017f536166654d6174683a206469766973696f6e206279207a65726f000000000000815250611de2565b905092915050565b5f818311611d325782611d34565b815b905092915050565b5f808284611d4a91906129ac565b905083811015611d8f576040517f08c379a0000000000000000000000000000000000000000000000000000000008152600401611d8690612d18565b60405180910390fd5b8091505092915050565b5f611dda83836040518060400160405280601e81526020017f536166654d6174683a207375627472616374696f6e206f766572666c6f77000081525061192e565b905092915050565b5f8083118290611e28576040517f08c379a0000000000000000000000000000000000000000000000000000000008152600401611e1f9190611ecd565b60405180910390fd5b505f8385611e369190612c10565b9050809150509392505050565b5f81519050919050565b5f82825260208201905092915050565b5f5b83811015611e7a578082015181840152602081019050611e5f565b5f8484015250505050565b5f601f19601f8301169050919050565b5f611e9f82611e43565b611ea98185611e4d565b9350611eb9818560208601611e5d565b611ec281611e85565b840191505092915050565b5f6020820190508181035f830152611ee58184611e95565b905092915050565b5f80fd5b5f73ffffffffffffffffffffffffffffffffffffffff82169050919050565b5f611f1a82611ef1565b9050919050565b611f2a81611f10565b8114611f34575f80fd5b50565b5f81359050611f4581611f21565b92915050565b5f819050919050565b611f5d81611f4b565b8114611f67575f80fd5b50565b5f81359050611f7881611f54565b92915050565b5f8060408385031215611f9457611f93611eed565b5b5f611fa185828601611f37565b9250506020611fb285828601611f6a565b9150509250929050565b5f8115159050919050565b611fd081611fbc565b82525050565b5f602082019050611fe95f830184611fc7565b92915050565b611ff881611f4b565b82525050565b5f6020820190506120115f830184611fef565b92915050565b5f805f6060848603121561202e5761202d611eed565b5b5f61203b86828701611f37565b935050602061204c86828701611f37565b925050604061205d86828701611f6a565b9150509250925092565b5f60ff82169050919050565b61207c81612067565b82525050565b5f6020820190506120955f830184612073565b92915050565b5f602082840312156120b0576120af611eed565b5b5f6120bd84828501611f37565b91505092915050565b6120cf81611f10565b82525050565b5f6020820190506120e85f8301846120c6565b92915050565b5f806040838503121561210457612103611eed565b5b5f61211185828601611f37565b925050602061212285828601611f37565b9150509250929050565b7f4e487b71000000000000000000000000000000000000000000000000000000005f52601160045260245ffd5b5f8160011c9050919050565b5f808291508390505b60018511156121ae5780860481111561218a5761218961212c565b5b60018516156121995780820291505b80810290506121a785612159565b945061216e565b94509492505050565b5f826121c65760019050612281565b816121d3575f9050612281565b81600181146121e957600281146121f357612222565b6001915050612281565b60ff8411156122055761220461212c565b5b8360020a91508482111561221c5761221b61212c565b5b50612281565b5060208310610133831016604e8410600b84101617156122575782820a9050838111156122525761225161212c565b5b612281565b6122648484846001612165565b9250905081840481111561227b5761227a61212c565b5b81810290505b9392505050565b5f61229282611f4b565b915061229d83612067565b92506122ca7fffffffffffffffffffffffffffffffffffffffffffffffffffffffffffffffff84846121b7565b905092915050565b5f6122dc82611f4b565b91506122e783611f4b565b92508282026122f581611f4b565b9150828204841483151761230c5761230b61212c565b5b5092915050565b7f4f776e61626c653a2063616c6c6572206973206e6f7420746865206f776e65725f82015250565b5f612347602083611e4d565b915061235282612313565b602082019050919050565b5f6020820190508181035f8301526123748161233b565b9050919050565b7f74726164696e6720697320616c7265616479206f70656e0000000000000000005f82015250565b5f6123af601783611e4d565b91506123ba8261237b565b602082019050919050565b5f6020820190508181035f8301526123dc816123a3565b9050919050565b5f815190506123f181611f21565b92915050565b5f6020828403121561240c5761240b611eed565b5b5f612419848285016123e3565b91505092915050565b5f6040820190506124355f8301856120c6565b61244260208301846120c6565b9392505050565b5f819050919050565b5f819050919050565b5f61247561247061246b84612449565b612452565b611f4b565b9050919050565b6124858161245b565b82525050565b5f60c08201905061249e5f8301896120c6565b6124ab6020830188611fef565b6124b8604083018761247c565b6124c5606083018661247c565b6124d260808301856120c6565b6124df60a0830184611fef565b979650505050505050565b5f815190506124f881611f54565b92915050565b5f805f6060848603121561251557612514611eed565b5b5f612522868287016124ea565b9350506020612533868287016124ea565b9250506040612544868287016124ea565b9150509250925092565b5f6040820190506125615f8301856120c6565b61256e6020830184611fef565b9392505050565b61257e81611fbc565b8114612588575f80fd5b50565b5f8151905061259981612575565b92915050565b5f602082840312156125b4576125b3611eed565b5b5f6125c18482850161258b565b91505092915050565b7f45524332303a20617070726f76652066726f6d20746865207a65726f206164645f8201527f7265737300000000000000000000000000000000000000000000000000000000602082015250565b5f612624602483611e4d565b915061262f826125ca565b604082019050919050565b5f6020820190508181035f83015261265181612618565b9050919050565b7f45524332303a20617070726f766520746f20746865207a65726f2061646472655f8201527f7373000000000000000000000000000000000000000000000000000000000000602082015250565b5f6126b2602283611e4d565b91506126bd82612658565b604082019050919050565b5f6020820190508181035f8301526126df816126a6565b9050919050565b7f45524332303a207472616e736665722066726f6d20746865207a65726f2061645f8201527f6472657373000000000000000000000000000000000000000000000000000000602082015250565b5f612740602583611e4d565b915061274b826126e6565b604082019050919050565b5f6020820190508181035f83015261276d81612734565b9050919050565b7f45524332303a207472616e7366657220746f20746865207a65726f20616464725f8201527f6573730000000000000000000000000000000000000000000000000000000000602082015250565b5f6127ce602383611e4d565b91506127d982612774565b604082019050919050565b5f6020820190508181035f8301526127fb816127c2565b9050919050565b7f5472616e7366657220616d6f756e74206d7573742062652067726561746572205f8201527f7468616e207a65726f0000000000000000000000000000000000000000000000602082015250565b5f61285c602983611e4d565b915061286782612802565b604082019050919050565b5f6020820190508181035f83015261288981612850565b9050919050565b7f5f7472616e736665723a3a205472616e736665722044656c617920656e61626c5f8201527f65642e204f6e6c79206f6e652070757263686173652070657220626c6f636b2060208201527f616c6c6f7765642e000000000000000000000000000000000000000000000000604082015250565b5f612910604883611e4d565b915061291b82612890565b606082019050919050565b5f6020820190508181035f83015261293d81612904565b9050919050565b7f4578636565647320746865205f6d61785478416d6f756e742e000000000000005f82015250565b5f612978601983611e4d565b915061298382612944565b602082019050919050565b5f6020820190508181035f8301526129a58161296c565b9050919050565b5f6129b682611f4b565b91506129c183611f4b565b92508282019050808211156129d9576129d861212c565b5b92915050565b7f4578636565647320746865206d617857616c6c657453697a652e0000000000005f82015250565b5f612a13601a83611e4d565b9150612a1e826129df565b602082019050919050565b5f6020820190508181035f830152612a4081612a07565b9050919050565b5f612a5182611f4b565b9150612a5c83611f4b565b9250828203905081811115612a7457612a7361212c565b5b92915050565b7f4e487b71000000000000000000000000000000000000000000000000000000005f52604160045260245ffd5b7f4e487b71000000000000000000000000000000000000000000000000000000005f52603260045260245ffd5b5f81519050919050565b5f82825260208201905092915050565b5f819050602082019050919050565b612b0681611f10565b82525050565b5f612b178383612afd565b60208301905092915050565b5f602082019050919050565b5f612b3982612ad4565b612b438185612ade565b9350612b4e83612aee565b805f5b83811015612b7e578151612b658882612b0c565b9750612b7083612b23565b925050600181019050612b51565b5085935050505092915050565b5f60a082019050612b9e5f830188611fef565b612bab602083018761247c565b8181036040830152612bbd8186612b2f565b9050612bcc60608301856120c6565b612bd96080830184611fef565b9695505050505050565b7f4e487b71000000000000000000000000000000000000000000000000000000005f52601260045260245ffd5b5f612c1a82611f4b565b9150612c2583611f4b565b925082612c3557612c34612be3565b5b828204905092915050565b7f536166654d6174683a206d756c7469706c69636174696f6e206f766572666c6f5f8201527f7700000000000000000000000000000000000000000000000000000000000000602082015250565b5f612c9a602183611e4d565b9150612ca582612c40565b604082019050919050565b5f6020820190508181035f830152612cc781612c8e565b9050919050565b7f536166654d6174683a206164646974696f6e206f766572666c6f7700000000005f82015250565b5f612d02601b83611e4d565b9150612d0d82612cce565b602082019050919050565b5f6020820190508181035f830152612d2f81612cf6565b905091905056fe45524332303a207472616e7366657220616d6f756e74206578636565647320616c6c6f77616e6365a26469706673582212208858808441f61bffb27db67a82b7846fc376580eeb149f7561013c7c2ced3e0964736f6c63430008140033",
					"opcodes": "PUSH1 0x80 PUSH1 0x40 MSTORE PUSH1 0x1 PUSH1 0x6 PUSH0 PUSH2 0x100 EXP DUP2 SLOAD DUP2 PUSH1 0xFF MUL NOT AND SWAP1 DUP4 ISZERO ISZERO MUL OR SWAP1 SSTORE POP PUSH1 0x12 PUSH1 0xA PUSH3 0x2E SWAP2 SWAP1 PUSH3 0x63C JUMP JUMPDEST PUSH3 0xF4240 PUSH3 0x3E SWAP2 SWAP1 PUSH3 0x68C JUMP JUMPDEST PUSH1 0x7 SSTORE PUSH1 0x12 PUSH1 0xA PUSH3 0x51 SWAP2 SWAP1 PUSH3 0x63C JUMP JUMPDEST PUSH3 0xF4240 PUSH3 0x61 SWAP2 SWAP1 PUSH3 0x68C JUMP JUMPDEST PUSH1 0x8 SSTORE PUSH1 0x12 PUSH1 0xA PUSH3 0x74 SWAP2 SWAP1 PUSH3 0x63C JUMP JUMPDEST PUSH3 0x186A0 PUSH3 0x84 SWAP2 SWAP1 PUSH3 0x68C JUMP JUMPDEST PUSH1 0x9 SSTORE PUSH1 0x12 PUSH1 0xA PUSH3 0x97 SWAP2 SWAP1 PUSH3 0x63C JUMP JUMPDEST PUSH3 0x493E0 PUSH3 0xA7 SWAP2 SWAP1 PUSH3 0x68C JUMP JUMPDEST PUSH1 0xA SSTORE PUSH0 PUSH1 0xC PUSH1 0x15 PUSH2 0x100 EXP DUP2 SLOAD DUP2 PUSH1 0xFF MUL NOT AND SWAP1 DUP4 ISZERO ISZERO MUL OR SWAP1 SSTORE POP PUSH0 PUSH1 0xC PUSH1 0x16 PUSH2 0x100 EXP DUP2 SLOAD DUP2 PUSH1 0xFF MUL NOT AND SWAP1 DUP4 ISZERO ISZERO MUL OR SWAP1 SSTORE POP CALLVALUE DUP1 ISZERO PUSH3 0xEA JUMPI PUSH0 DUP1 REVERT JUMPDEST POP PUSH0 PUSH3 0xFC PUSH3 0x47C PUSH1 0x20 SHL PUSH1 0x20 SHR JUMP JUMPDEST SWAP1 POP DUP1 PUSH0 DUP1 PUSH2 0x100 EXP DUP2 SLOAD DUP2 PUSH20 0xFFFFFFFFFFFFFFFFFFFFFFFFFFFFFFFFFFFFFFFF MUL NOT AND SWAP1 DUP4 PUSH20 0xFFFFFFFFFFFFFFFFFFFFFFFFFFFFFFFFFFFFFFFF AND MUL OR SWAP1 SSTORE POP DUP1 PUSH20 0xFFFFFFFFFFFFFFFFFFFFFFFFFFFFFFFFFFFFFFFF AND PUSH0 PUSH20 0xFFFFFFFFFFFFFFFFFFFFFFFFFFFFFFFFFFFFFFFF AND PUSH32 0x8BE0079C531659141344CD1FD0A4F28419497F9722A3DAAFE3B4186F6B6457E0 PUSH1 0x40 MLOAD PUSH1 0x40 MLOAD DUP1 SWAP2 SUB SWAP1 LOG3 POP PUSH3 0x1A8 PUSH3 0x47C PUSH1 0x20 SHL PUSH1 0x20 SHR JUMP JUMPDEST PUSH1 0x6 PUSH1 0x1 PUSH2 0x100 EXP DUP2 SLOAD DUP2 PUSH20 0xFFFFFFFFFFFFFFFFFFFFFFFFFFFFFFFFFFFFFFFF MUL NOT AND SWAP1 DUP4 PUSH20 0xFFFFFFFFFFFFFFFFFFFFFFFFFFFFFFFFFFFFFFFF AND MUL OR SWAP1 SSTORE POP PUSH1 0x12 PUSH1 0xA PUSH3 0x1F8 SWAP2 SWAP1 PUSH3 0x63C JUMP JUMPDEST PUSH4 0x5F5E100 PUSH3 0x209 SWAP2 SWAP1 PUSH3 0x68C JUMP JUMPDEST PUSH1 0x1 PUSH0 PUSH3 0x21C PUSH3 0x47C PUSH1 0x20 SHL PUSH1 0x20 SHR JUMP JUMPDEST PUSH20 0xFFFFFFFFFFFFFFFFFFFFFFFFFFFFFFFFFFFFFFFF AND PUSH20 0xFFFFFFFFFFFFFFFFFFFFFFFFFFFFFFFFFFFFFFFF AND DUP2 MSTORE PUSH1 0x20 ADD SWAP1 DUP2 MSTORE PUSH1 0x20 ADD PUSH0 KECCAK256 DUP2 SWAP1 SSTORE POP PUSH1 0x1 PUSH1 0x3 PUSH0 PUSH3 0x26E PUSH3 0x483 PUSH1 0x20 SHL PUSH1 0x20 SHR JUMP JUMPDEST PUSH20 0xFFFFFFFFFFFFFFFFFFFFFFFFFFFFFFFFFFFFFFFF AND PUSH20 0xFFFFFFFFFFFFFFFFFFFFFFFFFFFFFFFFFFFFFFFF AND DUP2 MSTORE PUSH1 0x20 ADD SWAP1 DUP2 MSTORE PUSH1 0x20 ADD PUSH0 KECCAK256 PUSH0 PUSH2 0x100 EXP DUP2 SLOAD DUP2 PUSH1 0xFF MUL NOT AND SWAP1 DUP4 ISZERO ISZERO MUL OR SWAP1 SSTORE POP PUSH1 0x1 PUSH1 0x3 PUSH0 ADDRESS PUSH20 0xFFFFFFFFFFFFFFFFFFFFFFFFFFFFFFFFFFFFFFFF AND PUSH20 0xFFFFFFFFFFFFFFFFFFFFFFFFFFFFFFFFFFFFFFFF AND DUP2 MSTORE PUSH1 0x20 ADD SWAP1 DUP2 MSTORE PUSH1 0x20 ADD PUSH0 KECCAK256 PUSH0 PUSH2 0x100 EXP DUP2 SLOAD DUP2 PUSH1 0xFF MUL NOT AND SWAP1 DUP4 ISZERO ISZERO MUL OR SWAP1 SSTORE POP PUSH1 0x1 PUSH1 0x3 PUSH0 PUSH1 0x6 PUSH1 0x1 SWAP1 SLOAD SWAP1 PUSH2 0x100 EXP SWAP1 DIV PUSH20 0xFFFFFFFFFFFFFFFFFFFFFFFFFFFFFFFFFFFFFFFF AND PUSH20 0xFFFFFFFFFFFFFFFFFFFFFFFFFFFFFFFFFFFFFFFF AND PUSH20 0xFFFFFFFFFFFFFFFFFFFFFFFFFFFFFFFFFFFFFFFF AND DUP2 MSTORE PUSH1 0x20 ADD SWAP1 DUP2 MSTORE PUSH1 0x20 ADD PUSH0 KECCAK256 PUSH0 PUSH2 0x100 EXP DUP2 SLOAD DUP2 PUSH1 0xFF MUL NOT AND SWAP1 DUP4 ISZERO ISZERO MUL OR SWAP1 SSTORE POP PUSH1 0x1 PUSH1 0x3 PUSH0 PUSH2 0xDEAD PUSH20 0xFFFFFFFFFFFFFFFFFFFFFFFFFFFFFFFFFFFFFFFF AND PUSH20 0xFFFFFFFFFFFFFFFFFFFFFFFFFFFFFFFFFFFFFFFF AND DUP2 MSTORE PUSH1 0x20 ADD SWAP1 DUP2 MSTORE PUSH1 0x20 ADD PUSH0 KECCAK256 PUSH0 PUSH2 0x100 EXP DUP2 SLOAD DUP2 PUSH1 0xFF MUL NOT AND SWAP1 DUP4 ISZERO ISZERO MUL OR SWAP1 SSTORE POP PUSH3 0x3F0 PUSH3 0x47C PUSH1 0x20 SHL PUSH1 0x20 SHR JUMP JUMPDEST PUSH20 0xFFFFFFFFFFFFFFFFFFFFFFFFFFFFFFFFFFFFFFFF AND PUSH0 PUSH20 0xFFFFFFFFFFFFFFFFFFFFFFFFFFFFFFFFFFFFFFFF AND PUSH32 0xDDF252AD1BE2C89B69C2B068FC378DAA952BA7F163C4A11628F55A4DF523B3EF PUSH1 0x12 PUSH1 0xA PUSH3 0x44E SWAP2 SWAP1 PUSH3 0x63C JUMP JUMPDEST PUSH4 0x5F5E100 PUSH3 0x45F SWAP2 SWAP1 PUSH3 0x68C JUMP JUMPDEST PUSH1 0x40 MLOAD PUSH3 0x46E SWAP2 SWAP1 PUSH3 0x6E7 JUMP JUMPDEST PUSH1 0x40 MLOAD DUP1 SWAP2 SUB SWAP1 LOG3 PUSH3 0x702 JUMP JUMPDEST PUSH0 CALLER SWAP1 POP SWAP1 JUMP JUMPDEST PUSH0 DUP1 PUSH0 SWAP1 SLOAD SWAP1 PUSH2 0x100 EXP SWAP1 DIV PUSH20 0xFFFFFFFFFFFFFFFFFFFFFFFFFFFFFFFFFFFFFFFF AND SWAP1 POP SWAP1 JUMP JUMPDEST PUSH32 0x4E487B7100000000000000000000000000000000000000000000000000000000 PUSH0 MSTORE PUSH1 0x11 PUSH1 0x4 MSTORE PUSH1 0x24 PUSH0 REVERT JUMPDEST PUSH0 DUP2 PUSH1 0x1 SHR SWAP1 POP SWAP2 SWAP1 POP JUMP JUMPDEST PUSH0 DUP1 DUP3 SWAP2 POP DUP4 SWAP1 POP JUMPDEST PUSH1 0x1 DUP6 GT ISZERO PUSH3 0x534 JUMPI DUP1 DUP7 DIV DUP2 GT ISZERO PUSH3 0x50C JUMPI PUSH3 0x50B PUSH3 0x4AA JUMP JUMPDEST JUMPDEST PUSH1 0x1 DUP6 AND ISZERO PUSH3 0x51C JUMPI DUP1 DUP3 MUL SWAP2 POP JUMPDEST DUP1 DUP2 MUL SWAP1 POP PUSH3 0x52C DUP6 PUSH3 0x4D7 JUMP JUMPDEST SWAP5 POP PUSH3 0x4EC JUMP JUMPDEST SWAP5 POP SWAP5 SWAP3 POP POP POP JUMP JUMPDEST PUSH0 DUP3 PUSH3 0x54E JUMPI PUSH1 0x1 SWAP1 POP PUSH3 0x620 JUMP JUMPDEST DUP2 PUSH3 0x55D JUMPI PUSH0 SWAP1 POP PUSH3 0x620 JUMP JUMPDEST DUP2 PUSH1 0x1 DUP2 EQ PUSH3 0x576 JUMPI PUSH1 0x2 DUP2 EQ PUSH3 0x581 JUMPI PUSH3 0x5B7 JUMP JUMPDEST PUSH1 0x1 SWAP2 POP POP PUSH3 0x620 JUMP JUMPDEST PUSH1 0xFF DUP5 GT ISZERO PUSH3 0x596 JUMPI PUSH3 0x595 PUSH3 0x4AA JUMP JUMPDEST JUMPDEST DUP4 PUSH1 0x2 EXP SWAP2 POP DUP5 DUP3 GT ISZERO PUSH3 0x5B0 JUMPI PUSH3 0x5AF PUSH3 0x4AA JUMP JUMPDEST JUMPDEST POP PUSH3 0x620 JUMP JUMPDEST POP PUSH1 0x20 DUP4 LT PUSH2 0x133 DUP4 LT AND PUSH1 0x4E DUP5 LT PUSH1 0xB DUP5 LT AND OR ISZERO PUSH3 0x5F1 JUMPI DUP3 DUP3 EXP SWAP1 POP DUP4 DUP2 GT ISZERO PUSH3 0x5EB JUMPI PUSH3 0x5EA PUSH3 0x4AA JUMP JUMPDEST JUMPDEST PUSH3 0x620 JUMP JUMPDEST PUSH3 0x600 DUP5 DUP5 DUP5 PUSH1 0x1 PUSH3 0x4E3 JUMP JUMPDEST SWAP3 POP SWAP1 POP DUP2 DUP5 DIV DUP2 GT ISZERO PUSH3 0x61A JUMPI PUSH3 0x619 PUSH3 0x4AA JUMP JUMPDEST JUMPDEST DUP2 DUP2 MUL SWAP1 POP JUMPDEST SWAP4 SWAP3 POP POP POP JUMP JUMPDEST PUSH0 DUP2 SWAP1 POP SWAP2 SWAP1 POP JUMP JUMPDEST PUSH0 PUSH1 0xFF DUP3 AND SWAP1 POP SWAP2 SWAP1 POP JUMP JUMPDEST PUSH0 PUSH3 0x648 DUP3 PUSH3 0x627 JUMP JUMPDEST SWAP2 POP PUSH3 0x655 DUP4 PUSH3 0x630 JUMP JUMPDEST SWAP3 POP PUSH3 0x684 PUSH32 0xFFFFFFFFFFFFFFFFFFFFFFFFFFFFFFFFFFFFFFFFFFFFFFFFFFFFFFFFFFFFFFFF DUP5 DUP5 PUSH3 0x53D JUMP JUMPDEST SWAP1 POP SWAP3 SWAP2 POP POP JUMP JUMPDEST PUSH0 PUSH3 0x698 DUP3 PUSH3 0x627 JUMP JUMPDEST SWAP2 POP PUSH3 0x6A5 DUP4 PUSH3 0x627 JUMP JUMPDEST SWAP3 POP DUP3 DUP3 MUL PUSH3 0x6B5 DUP2 PUSH3 0x627 JUMP JUMPDEST SWAP2 POP DUP3 DUP3 DIV DUP5 EQ DUP4 ISZERO OR PUSH3 0x6CF JUMPI PUSH3 0x6CE PUSH3 0x4AA JUMP JUMPDEST JUMPDEST POP SWAP3 SWAP2 POP POP JUMP JUMPDEST PUSH3 0x6E1 DUP2 PUSH3 0x627 JUMP JUMPDEST DUP3 MSTORE POP POP JUMP JUMPDEST PUSH0 PUSH1 0x20 DUP3 ADD SWAP1 POP PUSH3 0x6FC PUSH0 DUP4 ADD DUP5 PUSH3 0x6D6 JUMP JUMPDEST SWAP3 SWAP2 POP POP JUMP JUMPDEST PUSH2 0x2D94 DUP1 PUSH3 0x710 PUSH0 CODECOPY PUSH0 RETURN INVALID PUSH1 0x80 PUSH1 0x40 MSTORE PUSH1 0x4 CALLDATASIZE LT PUSH2 0x117 JUMPI PUSH0 CALLDATALOAD PUSH1 0xE0 SHR DUP1 PUSH4 0x7D1DB4A5 GT PUSH2 0x9F JUMPI DUP1 PUSH4 0xA9059CBB GT PUSH2 0x63 JUMPI DUP1 PUSH4 0xA9059CBB EQ PUSH2 0x37C JUMPI DUP1 PUSH4 0xBF474BED EQ PUSH2 0x3B8 JUMPI DUP1 PUSH4 0xC876D0B9 EQ PUSH2 0x3E2 JUMPI DUP1 PUSH4 0xC9567BF9 EQ PUSH2 0x40C JUMPI DUP1 PUSH4 0xDD62ED3E EQ PUSH2 0x422 JUMPI PUSH2 0x11E JUMP JUMPDEST DUP1 PUSH4 0x7D1DB4A5 EQ PUSH2 0x2AA JUMPI DUP1 PUSH4 0x8DA5CB5B EQ PUSH2 0x2D4 JUMPI DUP1 PUSH4 0x8F9A55C0 EQ PUSH2 0x2FE JUMPI DUP1 PUSH4 0x95D89B41 EQ PUSH2 0x328 JUMPI DUP1 PUSH4 0xA01C3483 EQ PUSH2 0x352 JUMPI PUSH2 0x11E JUMP JUMPDEST DUP1 PUSH4 0x23B872DD GT PUSH2 0xE6 JUMPI DUP1 PUSH4 0x23B872DD EQ PUSH2 0x1DC JUMPI DUP1 PUSH4 0x313CE567 EQ PUSH2 0x218 JUMPI DUP1 PUSH4 0x51BC3C85 EQ PUSH2 0x242 JUMPI DUP1 PUSH4 0x70A08231 EQ PUSH2 0x258 JUMPI DUP1 PUSH4 0x715018A6 EQ PUSH2 0x294 JUMPI PUSH2 0x11E JUMP JUMPDEST DUP1 PUSH4 0x6FDDE03 EQ PUSH2 0x122 JUMPI DUP1 PUSH4 0x95EA7B3 EQ PUSH2 0x14C JUMPI DUP1 PUSH4 0xFAEE56F EQ PUSH2 0x188 JUMPI DUP1 PUSH4 0x18160DDD EQ PUSH2 0x1B2 JUMPI PUSH2 0x11E JUMP JUMPDEST CALLDATASIZE PUSH2 0x11E JUMPI STOP JUMPDEST PUSH0 DUP1 REVERT JUMPDEST CALLVALUE DUP1 ISZERO PUSH2 0x12D JUMPI PUSH0 DUP1 REVERT JUMPDEST POP PUSH2 0x136 PUSH2 0x45E JUMP JUMPDEST PUSH1 0x40 MLOAD PUSH2 0x143 SWAP2 SWAP1 PUSH2 0x1ECD JUMP JUMPDEST PUSH1 0x40 MLOAD DUP1 SWAP2 SUB SWAP1 RETURN JUMPDEST CALLVALUE DUP1 ISZERO PUSH2 0x157 JUMPI PUSH0 DUP1 REVERT JUMPDEST POP PUSH2 0x172 PUSH1 0x4 DUP1 CALLDATASIZE SUB DUP2 ADD SWAP1 PUSH2 0x16D SWAP2 SWAP1 PUSH2 0x1F7E JUMP JUMPDEST PUSH2 0x49B JUMP JUMPDEST PUSH1 0x40 MLOAD PUSH2 0x17F SWAP2 SWAP1 PUSH2 0x1FD6 JUMP JUMPDEST PUSH1 0x40 MLOAD DUP1 SWAP2 SUB SWAP1 RETURN JUMPDEST CALLVALUE DUP1 ISZERO PUSH2 0x193 JUMPI PUSH0 DUP1 REVERT JUMPDEST POP PUSH2 0x19C PUSH2 0x4B8 JUMP JUMPDEST PUSH1 0x40 MLOAD PUSH2 0x1A9 SWAP2 SWAP1 PUSH2 0x1FFE JUMP JUMPDEST PUSH1 0x40 MLOAD DUP1 SWAP2 SUB SWAP1 RETURN JUMPDEST CALLVALUE DUP1 ISZERO PUSH2 0x1BD JUMPI PUSH0 DUP1 REVERT JUMPDEST POP PUSH2 0x1C6 PUSH2 0x4BE JUMP JUMPDEST PUSH1 0x40 MLOAD PUSH2 0x1D3 SWAP2 SWAP1 PUSH2 0x1FFE JUMP JUMPDEST PUSH1 0x40 MLOAD DUP1 SWAP2 SUB SWAP1 RETURN JUMPDEST CALLVALUE DUP1 ISZERO PUSH2 0x1E7 JUMPI PUSH0 DUP1 REVERT JUMPDEST POP PUSH2 0x202 PUSH1 0x4 DUP1 CALLDATASIZE SUB DUP2 ADD SWAP1 PUSH2 0x1FD SWAP2 SWAP1 PUSH2 0x2017 JUMP JUMPDEST PUSH2 0x4E1 JUMP JUMPDEST PUSH1 0x40 MLOAD PUSH2 0x20F SWAP2 SWAP1 PUSH2 0x1FD6 JUMP JUMPDEST PUSH1 0x40 MLOAD DUP1 SWAP2 SUB SWAP1 RETURN JUMPDEST CALLVALUE DUP1 ISZERO PUSH2 0x223 JUMPI PUSH0 DUP1 REVERT JUMPDEST POP PUSH2 0x22C PUSH2 0x5B5 JUMP JUMPDEST PUSH1 0x40 MLOAD PUSH2 0x239 SWAP2 SWAP1 PUSH2 0x2082 JUMP JUMPDEST PUSH1 0x40 MLOAD DUP1 SWAP2 SUB SWAP1 RETURN JUMPDEST CALLVALUE DUP1 ISZERO PUSH2 0x24D JUMPI PUSH0 DUP1 REVERT JUMPDEST POP PUSH2 0x256 PUSH2 0x5BD JUMP JUMPDEST STOP JUMPDEST CALLVALUE DUP1 ISZERO PUSH2 0x263 JUMPI PUSH0 DUP1 REVERT JUMPDEST POP PUSH2 0x27E PUSH1 0x4 DUP1 CALLDATASIZE SUB DUP2 ADD SWAP1 PUSH2 0x279 SWAP2 SWAP1 PUSH2 0x209B JUMP JUMPDEST PUSH2 0x655 JUMP JUMPDEST PUSH1 0x40 MLOAD PUSH2 0x28B SWAP2 SWAP1 PUSH2 0x1FFE JUMP JUMPDEST PUSH1 0x40 MLOAD DUP1 SWAP2 SUB SWAP1 RETURN JUMPDEST CALLVALUE DUP1 ISZERO PUSH2 0x29F JUMPI PUSH0 DUP1 REVERT JUMPDEST POP PUSH2 0x2A8 PUSH2 0x69B JUMP JUMPDEST STOP JUMPDEST CALLVALUE DUP1 ISZERO PUSH2 0x2B5 JUMPI PUSH0 DUP1 REVERT JUMPDEST POP PUSH2 0x2BE PUSH2 0x7E9 JUMP JUMPDEST PUSH1 0x40 MLOAD PUSH2 0x2CB SWAP2 SWAP1 PUSH2 0x1FFE JUMP JUMPDEST PUSH1 0x40 MLOAD DUP1 SWAP2 SUB SWAP1 RETURN JUMPDEST CALLVALUE DUP1 ISZERO PUSH2 0x2DF JUMPI PUSH0 DUP1 REVERT JUMPDEST POP PUSH2 0x2E8 PUSH2 0x7EF JUMP JUMPDEST PUSH1 0x40 MLOAD PUSH2 0x2F5 SWAP2 SWAP1 PUSH2 0x20D5 JUMP JUMPDEST PUSH1 0x40 MLOAD DUP1 SWAP2 SUB SWAP1 RETURN JUMPDEST CALLVALUE DUP1 ISZERO PUSH2 0x309 JUMPI PUSH0 DUP1 REVERT JUMPDEST POP PUSH2 0x312 PUSH2 0x816 JUMP JUMPDEST PUSH1 0x40 MLOAD PUSH2 0x31F SWAP2 SWAP1 PUSH2 0x1FFE JUMP JUMPDEST PUSH1 0x40 MLOAD DUP1 SWAP2 SUB SWAP1 RETURN JUMPDEST CALLVALUE DUP1 ISZERO PUSH2 0x333 JUMPI PUSH0 DUP1 REVERT JUMPDEST POP PUSH2 0x33C PUSH2 0x81C JUMP JUMPDEST PUSH1 0x40 MLOAD PUSH2 0x349 SWAP2 SWAP1 PUSH2 0x1ECD JUMP JUMPDEST PUSH1 0x40 MLOAD DUP1 SWAP2 SUB SWAP1 RETURN JUMPDEST CALLVALUE DUP1 ISZERO PUSH2 0x35D JUMPI PUSH0 DUP1 REVERT JUMPDEST POP PUSH2 0x366 PUSH2 0x859 JUMP JUMPDEST PUSH1 0x40 MLOAD PUSH2 0x373 SWAP2 SWAP1 PUSH2 0x20D5 JUMP JUMPDEST PUSH1 0x40 MLOAD DUP1 SWAP2 SUB SWAP1 RETURN JUMPDEST CALLVALUE DUP1 ISZERO PUSH2 0x387 JUMPI PUSH0 DUP1 REVERT JUMPDEST POP PUSH2 0x3A2 PUSH1 0x4 DUP1 CALLDATASIZE SUB DUP2 ADD SWAP1 PUSH2 0x39D SWAP2 SWAP1 PUSH2 0x1F7E JUMP JUMPDEST PUSH2 0x85F JUMP JUMPDEST PUSH1 0x40 MLOAD PUSH2 0x3AF SWAP2 SWAP1 PUSH2 0x1FD6 JUMP JUMPDEST PUSH1 0x40 MLOAD DUP1 SWAP2 SUB SWAP1 RETURN JUMPDEST CALLVALUE DUP1 ISZERO PUSH2 0x3C3 JUMPI PUSH0 DUP1 REVERT JUMPDEST POP PUSH2 0x3CC PUSH2 0x87C JUMP JUMPDEST PUSH1 0x40 MLOAD PUSH2 0x3D9 SWAP2 SWAP1 PUSH2 0x1FFE JUMP JUMPDEST PUSH1 0x40 MLOAD DUP1 SWAP2 SUB SWAP1 RETURN JUMPDEST CALLVALUE DUP1 ISZERO PUSH2 0x3ED JUMPI PUSH0 DUP1 REVERT JUMPDEST POP PUSH2 0x3F6 PUSH2 0x882 JUMP JUMPDEST PUSH1 0x40 MLOAD PUSH2 0x403 SWAP2 SWAP1 PUSH2 0x1FD6 JUMP JUMPDEST PUSH1 0x40 MLOAD DUP1 SWAP2 SUB SWAP1 RETURN JUMPDEST CALLVALUE DUP1 ISZERO PUSH2 0x417 JUMPI PUSH0 DUP1 REVERT JUMPDEST POP PUSH2 0x420 PUSH2 0x894 JUMP JUMPDEST STOP JUMPDEST CALLVALUE DUP1 ISZERO PUSH2 0x42D JUMPI PUSH0 DUP1 REVERT JUMPDEST POP PUSH2 0x448 PUSH1 0x4 DUP1 CALLDATASIZE SUB DUP2 ADD SWAP1 PUSH2 0x443 SWAP2 SWAP1 PUSH2 0x20EE JUMP JUMPDEST PUSH2 0xDB6 JUMP JUMPDEST PUSH1 0x40 MLOAD PUSH2 0x455 SWAP2 SWAP1 PUSH2 0x1FFE JUMP JUMPDEST PUSH1 0x40 MLOAD DUP1 SWAP2 SUB SWAP1 RETURN JUMPDEST PUSH1 0x60 PUSH1 0x40 MLOAD DUP1 PUSH1 0x40 ADD PUSH1 0x40 MSTORE DUP1 PUSH1 0x8 DUP2 MSTORE PUSH1 0x20 ADD PUSH32 0x4F6E6520416E6F6E000000000000000000000000000000000000000000000000 DUP2 MSTORE POP SWAP1 POP SWAP1 JUMP JUMPDEST PUSH0 PUSH2 0x4AE PUSH2 0x4A7 PUSH2 0xE38 JUMP JUMPDEST DUP5 DUP5 PUSH2 0xE3F JUMP JUMPDEST PUSH1 0x1 SWAP1 POP SWAP3 SWAP2 POP POP JUMP JUMPDEST PUSH1 0xA SLOAD DUP2 JUMP JUMPDEST PUSH0 PUSH1 0x12 PUSH1 0xA PUSH2 0x4CD SWAP2 SWAP1 PUSH2 0x2288 JUMP JUMPDEST PUSH4 0x5F5E100 PUSH2 0x4DC SWAP2 SWAP1 PUSH2 0x22D2 JUMP JUMPDEST SWAP1 POP SWAP1 JUMP JUMPDEST PUSH0 PUSH2 0x4ED DUP5 DUP5 DUP5 PUSH2 0x1002 JUMP JUMPDEST PUSH2 0x5AA DUP5 PUSH2 0x4F9 PUSH2 0xE38 JUMP JUMPDEST PUSH2 0x5A5 DUP6 PUSH1 0x40 MLOAD DUP1 PUSH1 0x60 ADD PUSH1 0x40 MSTORE DUP1 PUSH1 0x28 DUP2 MSTORE PUSH1 0x20 ADD PUSH2 0x2D37 PUSH1 0x28 SWAP2 CODECOPY PUSH1 0x2 PUSH0 DUP12 PUSH20 0xFFFFFFFFFFFFFFFFFFFFFFFFFFFFFFFFFFFFFFFF AND PUSH20 0xFFFFFFFFFFFFFFFFFFFFFFFFFFFFFFFFFFFFFFFF AND DUP2 MSTORE PUSH1 0x20 ADD SWAP1 DUP2 MSTORE PUSH1 0x20 ADD PUSH0 KECCAK256 PUSH0 PUSH2 0x55C PUSH2 0xE38 JUMP JUMPDEST PUSH20 0xFFFFFFFFFFFFFFFFFFFFFFFFFFFFFFFFFFFFFFFF AND PUSH20 0xFFFFFFFFFFFFFFFFFFFFFFFFFFFFFFFFFFFFFFFF AND DUP2 MSTORE PUSH1 0x20 ADD SWAP1 DUP2 MSTORE PUSH1 0x20 ADD PUSH0 KECCAK256 SLOAD PUSH2 0x192E SWAP1 SWAP3 SWAP2 SWAP1 PUSH4 0xFFFFFFFF AND JUMP JUMPDEST PUSH2 0xE3F JUMP JUMPDEST PUSH1 0x1 SWAP1 POP SWAP4 SWAP3 POP POP POP JUMP JUMPDEST PUSH0 PUSH1 0x12 SWAP1 POP SWAP1 JUMP JUMPDEST PUSH1 0x6 PUSH1 0x1 SWAP1 SLOAD SWAP1 PUSH2 0x100 EXP SWAP1 DIV PUSH20 0xFFFFFFFFFFFFFFFFFFFFFFFFFFFFFFFFFFFFFFFF AND PUSH20 0xFFFFFFFFFFFFFFFFFFFFFFFFFFFFFFFFFFFFFFFF AND PUSH2 0x5FE PUSH2 0xE38 JUMP JUMPDEST PUSH20 0xFFFFFFFFFFFFFFFFFFFFFFFFFFFFFFFFFFFFFFFF AND EQ PUSH2 0x61D JUMPI PUSH0 DUP1 REVERT JUMPDEST PUSH0 PUSH2 0x627 ADDRESS PUSH2 0x655 JUMP JUMPDEST SWAP1 POP PUSH0 DUP2 GT ISZERO PUSH2 0x63B JUMPI PUSH2 0x63A DUP2 PUSH2 0x1990 JUMP JUMPDEST JUMPDEST PUSH0 SELFBALANCE SWAP1 POP PUSH0 DUP2 GT ISZERO PUSH2 0x651 JUMPI PUSH2 0x650 DUP2 PUSH2 0x1BFB JUMP JUMPDEST JUMPDEST POP POP JUMP JUMPDEST PUSH0 PUSH1 0x1 PUSH0 DUP4 PUSH20 0xFFFFFFFFFFFFFFFFFFFFFFFFFFFFFFFFFFFFFFFF AND PUSH20 0xFFFFFFFFFFFFFFFFFFFFFFFFFFFFFFFFFFFFFFFF AND DUP2 MSTORE PUSH1 0x20 ADD SWAP1 DUP2 MSTORE PUSH1 0x20 ADD PUSH0 KECCAK256 SLOAD SWAP1 POP SWAP2 SWAP1 POP JUMP JUMPDEST PUSH2 0x6A3 PUSH2 0xE38 JUMP JUMPDEST PUSH20 0xFFFFFFFFFFFFFFFFFFFFFFFFFFFFFFFFFFFFFFFF AND PUSH0 DUP1 SLOAD SWAP1 PUSH2 0x100 EXP SWAP1 DIV PUSH20 0xFFFFFFFFFFFFFFFFFFFFFFFFFFFFFFFFFFFFFFFF AND PUSH20 0xFFFFFFFFFFFFFFFFFFFFFFFFFFFFFFFFFFFFFFFF AND EQ PUSH2 0x72F JUMPI PUSH1 0x40 MLOAD PUSH32 0x8C379A000000000000000000000000000000000000000000000000000000000 DUP2 MSTORE PUSH1 0x4 ADD PUSH2 0x726 SWAP1 PUSH2 0x235D JUMP JUMPDEST PUSH1 0x40 MLOAD DUP1 SWAP2 SUB SWAP1 REVERT JUMPDEST PUSH0 PUSH20 0xFFFFFFFFFFFFFFFFFFFFFFFFFFFFFFFFFFFFFFFF AND PUSH0 DUP1 SLOAD SWAP1 PUSH2 0x100 EXP SWAP1 DIV PUSH20 0xFFFFFFFFFFFFFFFFFFFFFFFFFFFFFFFFFFFFFFFF AND PUSH20 0xFFFFFFFFFFFFFFFFFFFFFFFFFFFFFFFFFFFFFFFF AND PUSH32 0x8BE0079C531659141344CD1FD0A4F28419497F9722A3DAAFE3B4186F6B6457E0 PUSH1 0x40 MLOAD PUSH1 0x40 MLOAD DUP1 SWAP2 SUB SWAP1 LOG3 PUSH0 DUP1 PUSH0 PUSH2 0x100 EXP DUP2 SLOAD DUP2 PUSH20 0xFFFFFFFFFFFFFFFFFFFFFFFFFFFFFFFFFFFFFFFF MUL NOT AND SWAP1 DUP4 PUSH20 0xFFFFFFFFFFFFFFFFFFFFFFFFFFFFFFFFFFFFFFFF AND MUL OR SWAP1 SSTORE POP JUMP JUMPDEST PUSH1 0x7 SLOAD DUP2 JUMP JUMPDEST PUSH0 DUP1 PUSH0 SWAP1 SLOAD SWAP1 PUSH2 0x100 EXP SWAP1 DIV PUSH20 0xFFFFFFFFFFFFFFFFFFFFFFFFFFFFFFFFFFFFFFFF AND SWAP1 POP SWAP1 JUMP JUMPDEST PUSH1 0x8 SLOAD DUP2 JUMP JUMPDEST PUSH1 0x60 PUSH1 0x40 MLOAD DUP1 PUSH1 0x40 ADD PUSH1 0x40 MSTORE DUP1 PUSH1 0x4 DUP2 MSTORE PUSH1 0x20 ADD PUSH32 0x244F415400000000000000000000000000000000000000000000000000000000 DUP2 MSTORE POP SWAP1 POP SWAP1 JUMP JUMPDEST PUSH2 0xDEAD DUP2 JUMP JUMPDEST PUSH0 PUSH2 0x872 PUSH2 0x86B PUSH2 0xE38 JUMP JUMPDEST DUP5 DUP5 PUSH2 0x1002 JUMP JUMPDEST PUSH1 0x1 SWAP1 POP SWAP3 SWAP2 POP POP JUMP JUMPDEST PUSH1 0x9 SLOAD DUP2 JUMP JUMPDEST PUSH1 0x6 PUSH0 SWAP1 SLOAD SWAP1 PUSH2 0x100 EXP SWAP1 DIV PUSH1 0xFF AND DUP2 JUMP JUMPDEST PUSH2 0x89C PUSH2 0xE38 JUMP JUMPDEST PUSH20 0xFFFFFFFFFFFFFFFFFFFFFFFFFFFFFFFFFFFFFFFF AND PUSH0 DUP1 SLOAD SWAP1 PUSH2 0x100 EXP SWAP1 DIV PUSH20 0xFFFFFFFFFFFFFFFFFFFFFFFFFFFFFFFFFFFFFFFF AND PUSH20 0xFFFFFFFFFFFFFFFFFFFFFFFFFFFFFFFFFFFFFFFF AND EQ PUSH2 0x928 JUMPI PUSH1 0x40 MLOAD PUSH32 0x8C379A000000000000000000000000000000000000000000000000000000000 DUP2 MSTORE PUSH1 0x4 ADD PUSH2 0x91F SWAP1 PUSH2 0x235D JUMP JUMPDEST PUSH1 0x40 MLOAD DUP1 SWAP2 SUB SWAP1 REVERT JUMPDEST PUSH1 0xC PUSH1 0x14 SWAP1 SLOAD SWAP1 PUSH2 0x100 EXP SWAP1 DIV PUSH1 0xFF AND ISZERO PUSH2 0x978 JUMPI PUSH1 0x40 MLOAD PUSH32 0x8C379A000000000000000000000000000000000000000000000000000000000 DUP2 MSTORE PUSH1 0x4 ADD PUSH2 0x96F SWAP1 PUSH2 0x23C5 JUMP JUMPDEST PUSH1 0x40 MLOAD DUP1 SWAP2 SUB SWAP1 REVERT JUMPDEST PUSH20 0x7A250D5630B4CF539739DF2C5DACB4C659F2488D PUSH1 0xB PUSH0 PUSH2 0x100 EXP DUP2 SLOAD DUP2 PUSH20 0xFFFFFFFFFFFFFFFFFFFFFFFFFFFFFFFFFFFFFFFF MUL NOT AND SWAP1 DUP4 PUSH20 0xFFFFFFFFFFFFFFFFFFFFFFFFFFFFFFFFFFFFFFFF AND MUL OR SWAP1 SSTORE POP PUSH2 0xA14 ADDRESS PUSH1 0xB PUSH0 SWAP1 SLOAD SWAP1 PUSH2 0x100 EXP SWAP1 DIV PUSH20 0xFFFFFFFFFFFFFFFFFFFFFFFFFFFFFFFFFFFFFFFF AND PUSH1 0x12 PUSH1 0xA PUSH2 0xA00 SWAP2 SWAP1 PUSH2 0x2288 JUMP JUMPDEST PUSH4 0x5F5E100 PUSH2 0xA0F SWAP2 SWAP1 PUSH2 0x22D2 JUMP JUMPDEST PUSH2 0xE3F JUMP JUMPDEST PUSH1 0xB PUSH0 SWAP1 SLOAD SWAP1 PUSH2 0x100 EXP SWAP1 DIV PUSH20 0xFFFFFFFFFFFFFFFFFFFFFFFFFFFFFFFFFFFFFFFF AND PUSH20 0xFFFFFFFFFFFFFFFFFFFFFFFFFFFFFFFFFFFFFFFF AND PUSH4 0xC45A0155 PUSH1 0x40 MLOAD DUP2 PUSH4 0xFFFFFFFF AND PUSH1 0xE0 SHL DUP2 MSTORE PUSH1 0x4 ADD PUSH1 0x20 PUSH1 0x40 MLOAD DUP1 DUP4 SUB DUP2 DUP7 GAS STATICCALL ISZERO DUP1 ISZERO PUSH2 0xA7E JUMPI RETURNDATASIZE PUSH0 DUP1 RETURNDATACOPY RETURNDATASIZE PUSH0 REVERT JUMPDEST POP POP POP POP PUSH1 0x40 MLOAD RETURNDATASIZE PUSH1 0x1F NOT PUSH1 0x1F DUP3 ADD AND DUP3 ADD DUP1 PUSH1 0x40 MSTORE POP DUP2 ADD SWAP1 PUSH2 0xAA2 SWAP2 SWAP1 PUSH2 0x23F7 JUMP JUMPDEST PUSH20 0xFFFFFFFFFFFFFFFFFFFFFFFFFFFFFFFFFFFFFFFF AND PUSH4 0xC9C65396 ADDRESS PUSH1 0xB PUSH0 SWAP1 SLOAD SWAP1 PUSH2 0x100 EXP SWAP1 DIV PUSH20 0xFFFFFFFFFFFFFFFFFFFFFFFFFFFFFFFFFFFFFFFF AND PUSH20 0xFFFFFFFFFFFFFFFFFFFFFFFFFFFFFFFFFFFFFFFF AND PUSH4 0xAD5C4648 PUSH1 0x40 MLOAD DUP2 PUSH4 0xFFFFFFFF AND PUSH1 0xE0 SHL DUP2 MSTORE PUSH1 0x4 ADD PUSH1 0x20 PUSH1 0x40 MLOAD DUP1 DUP4 SUB DUP2 DUP7 GAS STATICCALL ISZERO DUP1 ISZERO PUSH2 0xB28 JUMPI RETURNDATASIZE PUSH0 DUP1 RETURNDATACOPY RETURNDATASIZE PUSH0 REVERT JUMPDEST POP POP POP POP PUSH1 0x40 MLOAD RETURNDATASIZE PUSH1 0x1F NOT PUSH1 0x1F DUP3 ADD AND DUP3 ADD DUP1 PUSH1 0x40 MSTORE POP DUP2 ADD SWAP1 PUSH2 0xB4C SWAP2 SWAP1 PUSH2 0x23F7 JUMP JUMPDEST PUSH1 0x40 MLOAD DUP4 PUSH4 0xFFFFFFFF AND PUSH1 0xE0 SHL DUP2 MSTORE PUSH1 0x4 ADD PUSH2 0xB69 SWAP3 SWAP2 SWAP1 PUSH2 0x2422 JUMP JUMPDEST PUSH1 0x20 PUSH1 0x40 MLOAD DUP1 DUP4 SUB DUP2 PUSH0 DUP8 GAS CALL ISZERO DUP1 ISZERO PUSH2 0xB85 JUMPI RETURNDATASIZE PUSH0 DUP1 RETURNDATACOPY RETURNDATASIZE PUSH0 REVERT JUMPDEST POP POP POP POP PUSH1 0x40 MLOAD RETURNDATASIZE PUSH1 0x1F NOT PUSH1 0x1F DUP3 ADD AND DUP3 ADD DUP1 PUSH1 0x40 MSTORE POP DUP2 ADD SWAP1 PUSH2 0xBA9 SWAP2 SWAP1 PUSH2 0x23F7 JUMP JUMPDEST PUSH1 0xC PUSH0 PUSH2 0x100 EXP DUP2 SLOAD DUP2 PUSH20 0xFFFFFFFFFFFFFFFFFFFFFFFFFFFFFFFFFFFFFFFF MUL NOT AND SWAP1 DUP4 PUSH20 0xFFFFFFFFFFFFFFFFFFFFFFFFFFFFFFFFFFFFFFFF AND MUL OR SWAP1 SSTORE POP PUSH1 0xB PUSH0 SWAP1 SLOAD SWAP1 PUSH2 0x100 EXP SWAP1 DIV PUSH20 0xFFFFFFFFFFFFFFFFFFFFFFFFFFFFFFFFFFFFFFFF AND PUSH20 0xFFFFFFFFFFFFFFFFFFFFFFFFFFFFFFFFFFFFFFFF AND PUSH4 0xF305D719 SELFBALANCE ADDRESS PUSH2 0xC30 ADDRESS PUSH2 0x655 JUMP JUMPDEST PUSH0 DUP1 PUSH2 0xC3A PUSH2 0x7EF JUMP JUMPDEST TIMESTAMP PUSH1 0x40 MLOAD DUP9 PUSH4 0xFFFFFFFF AND PUSH1 0xE0 SHL DUP2 MSTORE PUSH1 0x4 ADD PUSH2 0xC5C SWAP7 SWAP6 SWAP5 SWAP4 SWAP3 SWAP2 SWAP1 PUSH2 0x248B JUMP JUMPDEST PUSH1 0x60 PUSH1 0x40 MLOAD DUP1 DUP4 SUB DUP2 DUP6 DUP9 GAS CALL ISZERO DUP1 ISZERO PUSH2 0xC78 JUMPI RETURNDATASIZE PUSH0 DUP1 RETURNDATACOPY RETURNDATASIZE PUSH0 REVERT JUMPDEST POP POP POP POP POP PUSH1 0x40 MLOAD RETURNDATASIZE PUSH1 0x1F NOT PUSH1 0x1F DUP3 ADD AND DUP3 ADD DUP1 PUSH1 0x40 MSTORE POP DUP2 ADD SWAP1 PUSH2 0xC9D SWAP2 SWAP1 PUSH2 0x24FE JUMP JUMPDEST POP POP POP PUSH1 0xC PUSH0 SWAP1 SLOAD SWAP1 PUSH2 0x100 EXP SWAP1 DIV PUSH20 0xFFFFFFFFFFFFFFFFFFFFFFFFFFFFFFFFFFFFFFFF AND PUSH20 0xFFFFFFFFFFFFFFFFFFFFFFFFFFFFFFFFFFFFFFFF AND PUSH4 0x95EA7B3 PUSH1 0xB PUSH0 SWAP1 SLOAD SWAP1 PUSH2 0x100 EXP SWAP1 DIV PUSH20 0xFFFFFFFFFFFFFFFFFFFFFFFFFFFFFFFFFFFFFFFF AND PUSH32 0xFFFFFFFFFFFFFFFFFFFFFFFFFFFFFFFFFFFFFFFFFFFFFFFFFFFFFFFFFFFFFFFF PUSH1 0x40 MLOAD DUP4 PUSH4 0xFFFFFFFF AND PUSH1 0xE0 SHL DUP2 MSTORE PUSH1 0x4 ADD PUSH2 0xD3D SWAP3 SWAP2 SWAP1 PUSH2 0x254E JUMP JUMPDEST PUSH1 0x20 PUSH1 0x40 MLOAD DUP1 DUP4 SUB DUP2 PUSH0 DUP8 GAS CALL ISZERO DUP1 ISZERO PUSH2 0xD59 JUMPI RETURNDATASIZE PUSH0 DUP1 RETURNDATACOPY RETURNDATASIZE PUSH0 REVERT JUMPDEST POP POP POP POP PUSH1 0x40 MLOAD RETURNDATASIZE PUSH1 0x1F NOT PUSH1 0x1F DUP3 ADD AND DUP3 ADD DUP1 PUSH1 0x40 MSTORE POP DUP2 ADD SWAP1 PUSH2 0xD7D SWAP2 SWAP1 PUSH2 0x259F JUMP JUMPDEST POP PUSH1 0x1 PUSH1 0xC PUSH1 0x16 PUSH2 0x100 EXP DUP2 SLOAD DUP2 PUSH1 0xFF MUL NOT AND SWAP1 DUP4 ISZERO ISZERO MUL OR SWAP1 SSTORE POP PUSH1 0x1 PUSH1 0xC PUSH1 0x14 PUSH2 0x100 EXP DUP2 SLOAD DUP2 PUSH1 0xFF MUL NOT AND SWAP1 DUP4 ISZERO ISZERO MUL OR SWAP1 SSTORE POP JUMP JUMPDEST PUSH0 PUSH1 0x2 PUSH0 DUP5 PUSH20 0xFFFFFFFFFFFFFFFFFFFFFFFFFFFFFFFFFFFFFFFF AND PUSH20 0xFFFFFFFFFFFFFFFFFFFFFFFFFFFFFFFFFFFFFFFF AND DUP2 MSTORE PUSH1 0x20 ADD SWAP1 DUP2 MSTORE PUSH1 0x20 ADD PUSH0 KECCAK256 PUSH0 DUP4 PUSH20 0xFFFFFFFFFFFFFFFFFFFFFFFFFFFFFFFFFFFFFFFF AND PUSH20 0xFFFFFFFFFFFFFFFFFFFFFFFFFFFFFFFFFFFFFFFF AND DUP2 MSTORE PUSH1 0x20 ADD SWAP1 DUP2 MSTORE PUSH1 0x20 ADD PUSH0 KECCAK256 SLOAD SWAP1 POP SWAP3 SWAP2 POP POP JUMP JUMPDEST PUSH0 CALLER SWAP1 POP SWAP1 JUMP JUMPDEST PUSH0 PUSH20 0xFFFFFFFFFFFFFFFFFFFFFFFFFFFFFFFFFFFFFFFF AND DUP4 PUSH20 0xFFFFFFFFFFFFFFFFFFFFFFFFFFFFFFFFFFFFFFFF AND SUB PUSH2 0xEAD JUMPI PUSH1 0x40 MLOAD PUSH32 0x8C379A000000000000000000000000000000000000000000000000000000000 DUP2 MSTORE PUSH1 0x4 ADD PUSH2 0xEA4 SWAP1 PUSH2 0x263A JUMP JUMPDEST PUSH1 0x40 MLOAD DUP1 SWAP2 SUB SWAP1 REVERT JUMPDEST PUSH0 PUSH20 0xFFFFFFFFFFFFFFFFFFFFFFFFFFFFFFFFFFFFFFFF AND DUP3 PUSH20 0xFFFFFFFFFFFFFFFFFFFFFFFFFFFFFFFFFFFFFFFF AND SUB PUSH2 0xF1B JUMPI PUSH1 0x40 MLOAD PUSH32 0x8C379A000000000000000000000000000000000000000000000000000000000 DUP2 MSTORE PUSH1 0x4 ADD PUSH2 0xF12 SWAP1 PUSH2 0x26C8 JUMP JUMPDEST PUSH1 0x40 MLOAD DUP1 SWAP2 SUB SWAP1 REVERT JUMPDEST DUP1 PUSH1 0x2 PUSH0 DUP6 PUSH20 0xFFFFFFFFFFFFFFFFFFFFFFFFFFFFFFFFFFFFFFFF AND PUSH20 0xFFFFFFFFFFFFFFFFFFFFFFFFFFFFFFFFFFFFFFFF AND DUP2 MSTORE PUSH1 0x20 ADD SWAP1 DUP2 MSTORE PUSH1 0x20 ADD PUSH0 KECCAK256 PUSH0 DUP5 PUSH20 0xFFFFFFFFFFFFFFFFFFFFFFFFFFFFFFFFFFFFFFFF AND PUSH20 0xFFFFFFFFFFFFFFFFFFFFFFFFFFFFFFFFFFFFFFFF AND DUP2 MSTORE PUSH1 0x20 ADD SWAP1 DUP2 MSTORE PUSH1 0x20 ADD PUSH0 KECCAK256 DUP2 SWAP1 SSTORE POP DUP2 PUSH20 0xFFFFFFFFFFFFFFFFFFFFFFFFFFFFFFFFFFFFFFFF AND DUP4 PUSH20 0xFFFFFFFFFFFFFFFFFFFFFFFFFFFFFFFFFFFFFFFF AND PUSH32 0x8C5BE1E5EBEC7D5BD14F71427D1E84F3DD0314C0F7B2291E5B200AC8C7C3B925 DUP4 PUSH1 0x40 MLOAD PUSH2 0xFF5 SWAP2 SWAP1 PUSH2 0x1FFE JUMP JUMPDEST PUSH1 0x40 MLOAD DUP1 SWAP2 SUB SWAP1 LOG3 POP POP POP JUMP JUMPDEST PUSH0 PUSH20 0xFFFFFFFFFFFFFFFFFFFFFFFFFFFFFFFFFFFFFFFF AND DUP4 PUSH20 0xFFFFFFFFFFFFFFFFFFFFFFFFFFFFFFFFFFFFFFFF AND SUB PUSH2 0x1070 JUMPI PUSH1 0x40 MLOAD PUSH32 0x8C379A000000000000000000000000000000000000000000000000000000000 DUP2 MSTORE PUSH1 0x4 ADD PUSH2 0x1067 SWAP1 PUSH2 0x2756 JUMP JUMPDEST PUSH1 0x40 MLOAD DUP1 SWAP2 SUB SWAP1 REVERT JUMPDEST PUSH0 PUSH20 0xFFFFFFFFFFFFFFFFFFFFFFFFFFFFFFFFFFFFFFFF AND DUP3 PUSH20 0xFFFFFFFFFFFFFFFFFFFFFFFFFFFFFFFFFFFFFFFF AND SUB PUSH2 0x10DE JUMPI PUSH1 0x40 MLOAD PUSH32 0x8C379A000000000000000000000000000000000000000000000000000000000 DUP2 MSTORE PUSH1 0x4 ADD PUSH2 0x10D5 SWAP1 PUSH2 0x27E4 JUMP JUMPDEST PUSH1 0x40 MLOAD DUP1 SWAP2 SUB SWAP1 REVERT JUMPDEST PUSH0 DUP2 GT PUSH2 0x1120 JUMPI PUSH1 0x40 MLOAD PUSH32 0x8C379A000000000000000000000000000000000000000000000000000000000 DUP2 MSTORE PUSH1 0x4 ADD PUSH2 0x1117 SWAP1 PUSH2 0x2872 JUMP JUMPDEST PUSH1 0x40 MLOAD DUP1 SWAP2 SUB SWAP1 REVERT JUMPDEST PUSH0 PUSH2 0x1129 PUSH2 0x7EF JUMP JUMPDEST PUSH20 0xFFFFFFFFFFFFFFFFFFFFFFFFFFFFFFFFFFFFFFFF AND DUP5 PUSH20 0xFFFFFFFFFFFFFFFFFFFFFFFFFFFFFFFFFFFFFFFF AND EQ ISZERO DUP1 ISZERO PUSH2 0x1197 JUMPI POP PUSH2 0x1167 PUSH2 0x7EF JUMP JUMPDEST PUSH20 0xFFFFFFFFFFFFFFFFFFFFFFFFFFFFFFFFFFFFFFFF AND DUP4 PUSH20 0xFFFFFFFFFFFFFFFFFFFFFFFFFFFFFFFFFFFFFFFF AND EQ ISZERO JUMPDEST ISZERO PUSH2 0x167E JUMPI PUSH2 0x11C3 PUSH1 0x64 PUSH2 0x11B5 PUSH1 0x1 DUP6 PUSH2 0x1C64 SWAP1 SWAP2 SWAP1 PUSH4 0xFFFFFFFF AND JUMP JUMPDEST PUSH2 0x1CDB SWAP1 SWAP2 SWAP1 PUSH4 0xFFFFFFFF AND JUMP JUMPDEST SWAP1 POP PUSH1 0x6 PUSH0 SWAP1 SLOAD SWAP1 PUSH2 0x100 EXP SWAP1 DIV PUSH1 0xFF AND ISZERO PUSH2 0x134B JUMPI PUSH1 0xB PUSH0 SWAP1 SLOAD SWAP1 PUSH2 0x100 EXP SWAP1 DIV PUSH20 0xFFFFFFFFFFFFFFFFFFFFFFFFFFFFFFFFFFFFFFFF AND PUSH20 0xFFFFFFFFFFFFFFFFFFFFFFFFFFFFFFFFFFFFFFFF AND DUP4 PUSH20 0xFFFFFFFFFFFFFFFFFFFFFFFFFFFFFFFFFFFFFFFF AND EQ ISZERO DUP1 ISZERO PUSH2 0x1283 JUMPI POP PUSH1 0xC PUSH0 SWAP1 SLOAD SWAP1 PUSH2 0x100 EXP SWAP1 DIV PUSH20 0xFFFFFFFFFFFFFFFFFFFFFFFFFFFFFFFFFFFFFFFF AND PUSH20 0xFFFFFFFFFFFFFFFFFFFFFFFFFFFFFFFFFFFFFFFF AND DUP4 PUSH20 0xFFFFFFFFFFFFFFFFFFFFFFFFFFFFFFFFFFFFFFFF AND EQ ISZERO JUMPDEST ISZERO PUSH2 0x134A JUMPI NUMBER PUSH1 0x5 PUSH0 ORIGIN PUSH20 0xFFFFFFFFFFFFFFFFFFFFFFFFFFFFFFFFFFFFFFFF AND PUSH20 0xFFFFFFFFFFFFFFFFFFFFFFFFFFFFFFFFFFFFFFFF AND DUP2 MSTORE PUSH1 0x20 ADD SWAP1 DUP2 MSTORE PUSH1 0x20 ADD PUSH0 KECCAK256 SLOAD LT PUSH2 0x1307 JUMPI PUSH1 0x40 MLOAD PUSH32 0x8C379A000000000000000000000000000000000000000000000000000000000 DUP2 MSTORE PUSH1 0x4 ADD PUSH2 0x12FE SWAP1 PUSH2 0x2926 JUMP JUMPDEST PUSH1 0x40 MLOAD DUP1 SWAP2 SUB SWAP1 REVERT JUMPDEST NUMBER PUSH1 0x5 PUSH0 ORIGIN PUSH20 0xFFFFFFFFFFFFFFFFFFFFFFFFFFFFFFFFFFFFFFFF AND PUSH20 0xFFFFFFFFFFFFFFFFFFFFFFFFFFFFFFFFFFFFFFFF AND DUP2 MSTORE PUSH1 0x20 ADD SWAP1 DUP2 MSTORE PUSH1 0x20 ADD PUSH0 KECCAK256 DUP2 SWAP1 SSTORE POP JUMPDEST JUMPDEST PUSH1 0xC PUSH0 SWAP1 SLOAD SWAP1 PUSH2 0x100 EXP SWAP1 DIV PUSH20 0xFFFFFFFFFFFFFFFFFFFFFFFFFFFFFFFFFFFFFFFF AND PUSH20 0xFFFFFFFFFFFFFFFFFFFFFFFFFFFFFFFFFFFFFFFF AND DUP5 PUSH20 0xFFFFFFFFFFFFFFFFFFFFFFFFFFFFFFFFFFFFFFFF AND EQ DUP1 ISZERO PUSH2 0x13F4 JUMPI POP PUSH1 0xB PUSH0 SWAP1 SLOAD SWAP1 PUSH2 0x100 EXP SWAP1 DIV PUSH20 0xFFFFFFFFFFFFFFFFFFFFFFFFFFFFFFFFFFFFFFFF AND PUSH20 0xFFFFFFFFFFFFFFFFFFFFFFFFFFFFFFFFFFFFFFFF AND DUP4 PUSH20 0xFFFFFFFFFFFFFFFFFFFFFFFFFFFFFFFFFFFFFFFF AND EQ ISZERO JUMPDEST DUP1 ISZERO PUSH2 0x1447 JUMPI POP PUSH1 0x3 PUSH0 DUP5 PUSH20 0xFFFFFFFFFFFFFFFFFFFFFFFFFFFFFFFFFFFFFFFF AND PUSH20 0xFFFFFFFFFFFFFFFFFFFFFFFFFFFFFFFFFFFFFFFF AND DUP2 MSTORE PUSH1 0x20 ADD SWAP1 DUP2 MSTORE PUSH1 0x20 ADD PUSH0 KECCAK256 PUSH0 SWAP1 SLOAD SWAP1 PUSH2 0x100 EXP SWAP1 DIV PUSH1 0xFF AND ISZERO JUMPDEST ISZERO PUSH2 0x14EA JUMPI PUSH1 0x7 SLOAD DUP3 GT ISZERO PUSH2 0x1491 JUMPI PUSH1 0x40 MLOAD PUSH32 0x8C379A000000000000000000000000000000000000000000000000000000000 DUP2 MSTORE PUSH1 0x4 ADD PUSH2 0x1488 SWAP1 PUSH2 0x298E JUMP JUMPDEST PUSH1 0x40 MLOAD DUP1 SWAP2 SUB SWAP1 REVERT JUMPDEST PUSH1 0x8 SLOAD DUP3 PUSH2 0x149E DUP6 PUSH2 0x655 JUMP JUMPDEST PUSH2 0x14A8 SWAP2 SWAP1 PUSH2 0x29AC JUMP JUMPDEST GT ISZERO PUSH2 0x14E9 JUMPI PUSH1 0x40 MLOAD PUSH32 0x8C379A000000000000000000000000000000000000000000000000000000000 DUP2 MSTORE PUSH1 0x4 ADD PUSH2 0x14E0 SWAP1 PUSH2 0x2A29 JUMP JUMPDEST PUSH1 0x40 MLOAD DUP1 SWAP2 SUB SWAP1 REVERT JUMPDEST JUMPDEST PUSH1 0xC PUSH0 SWAP1 SLOAD SWAP1 PUSH2 0x100 EXP SWAP1 DIV PUSH20 0xFFFFFFFFFFFFFFFFFFFFFFFFFFFFFFFFFFFFFFFF AND PUSH20 0xFFFFFFFFFFFFFFFFFFFFFFFFFFFFFFFFFFFFFFFF AND DUP4 PUSH20 0xFFFFFFFFFFFFFFFFFFFFFFFFFFFFFFFFFFFFFFFF AND EQ DUP1 ISZERO PUSH2 0x1572 JUMPI POP ADDRESS PUSH20 0xFFFFFFFFFFFFFFFFFFFFFFFFFFFFFFFFFFFFFFFF AND DUP5 PUSH20 0xFFFFFFFFFFFFFFFFFFFFFFFFFFFFFFFFFFFFFFFF AND EQ ISZERO JUMPDEST ISZERO PUSH2 0x15A1 JUMPI PUSH2 0x159E PUSH1 0x64 PUSH2 0x1590 PUSH1 0x1 DUP6 PUSH2 0x1C64 SWAP1 SWAP2 SWAP1 PUSH4 0xFFFFFFFF AND JUMP JUMPDEST PUSH2 0x1CDB SWAP1 SWAP2 SWAP1 PUSH4 0xFFFFFFFF AND JUMP JUMPDEST SWAP1 POP JUMPDEST PUSH0 PUSH2 0x15AB ADDRESS PUSH2 0x655 JUMP JUMPDEST SWAP1 POP PUSH1 0xC PUSH1 0x15 SWAP1 SLOAD SWAP1 PUSH2 0x100 EXP SWAP1 DIV PUSH1 0xFF AND ISZERO DUP1 ISZERO PUSH2 0x1616 JUMPI POP PUSH1 0xC PUSH0 SWAP1 SLOAD SWAP1 PUSH2 0x100 EXP SWAP1 DIV PUSH20 0xFFFFFFFFFFFFFFFFFFFFFFFFFFFFFFFFFFFFFFFF AND PUSH20 0xFFFFFFFFFFFFFFFFFFFFFFFFFFFFFFFFFFFFFFFF AND DUP5 PUSH20 0xFFFFFFFFFFFFFFFFFFFFFFFFFFFFFFFFFFFFFFFF AND EQ JUMPDEST DUP1 ISZERO PUSH2 0x162E JUMPI POP PUSH1 0xC PUSH1 0x16 SWAP1 SLOAD SWAP1 PUSH2 0x100 EXP SWAP1 DIV PUSH1 0xFF AND JUMPDEST DUP1 ISZERO PUSH2 0x163B JUMPI POP PUSH1 0x9 SLOAD DUP2 GT JUMPDEST ISZERO PUSH2 0x167C JUMPI PUSH2 0x165D PUSH2 0x1658 DUP5 PUSH2 0x1653 DUP5 PUSH1 0xA SLOAD PUSH2 0x1D24 JUMP JUMPDEST PUSH2 0x1D24 JUMP JUMPDEST PUSH2 0x1990 JUMP JUMPDEST PUSH0 SELFBALANCE SWAP1 POP PUSH7 0xB1A2BC2EC50000 DUP2 GT ISZERO PUSH2 0x167A JUMPI PUSH2 0x1679 SELFBALANCE PUSH2 0x1BFB JUMP JUMPDEST JUMPDEST POP JUMPDEST POP JUMPDEST PUSH0 DUP2 GT ISZERO PUSH2 0x177D JUMPI PUSH2 0x16D6 DUP2 PUSH1 0x1 PUSH0 ADDRESS PUSH20 0xFFFFFFFFFFFFFFFFFFFFFFFFFFFFFFFFFFFFFFFF AND PUSH20 0xFFFFFFFFFFFFFFFFFFFFFFFFFFFFFFFFFFFFFFFF AND DUP2 MSTORE PUSH1 0x20 ADD SWAP1 DUP2 MSTORE PUSH1 0x20 ADD PUSH0 KECCAK256 SLOAD PUSH2 0x1D3C SWAP1 SWAP2 SWAP1 PUSH4 0xFFFFFFFF AND JUMP JUMPDEST PUSH1 0x1 PUSH0 ADDRESS PUSH20 0xFFFFFFFFFFFFFFFFFFFFFFFFFFFFFFFFFFFFFFFF AND PUSH20 0xFFFFFFFFFFFFFFFFFFFFFFFFFFFFFFFFFFFFFFFF AND DUP2 MSTORE PUSH1 0x20 ADD SWAP1 DUP2 MSTORE PUSH1 0x20 ADD PUSH0 KECCAK256 DUP2 SWAP1 SSTORE POP ADDRESS PUSH20 0xFFFFFFFFFFFFFFFFFFFFFFFFFFFFFFFFFFFFFFFF AND DUP5 PUSH20 0xFFFFFFFFFFFFFFFFFFFFFFFFFFFFFFFFFFFFFFFF AND PUSH32 0xDDF252AD1BE2C89B69C2B068FC378DAA952BA7F163C4A11628F55A4DF523B3EF DUP4 PUSH1 0x40 MLOAD PUSH2 0x1774 SWAP2 SWAP1 PUSH2 0x1FFE JUMP JUMPDEST PUSH1 0x40 MLOAD DUP1 SWAP2 SUB SWAP1 LOG3 JUMPDEST PUSH2 0x17CD DUP3 PUSH1 0x1 PUSH0 DUP8 PUSH20 0xFFFFFFFFFFFFFFFFFFFFFFFFFFFFFFFFFFFFFFFF AND PUSH20 0xFFFFFFFFFFFFFFFFFFFFFFFFFFFFFFFFFFFFFFFF AND DUP2 MSTORE PUSH1 0x20 ADD SWAP1 DUP2 MSTORE PUSH1 0x20 ADD PUSH0 KECCAK256 SLOAD PUSH2 0x1D99 SWAP1 SWAP2 SWAP1 PUSH4 0xFFFFFFFF AND JUMP JUMPDEST PUSH1 0x1 PUSH0 DUP7 PUSH20 0xFFFFFFFFFFFFFFFFFFFFFFFFFFFFFFFFFFFFFFFF AND PUSH20 0xFFFFFFFFFFFFFFFFFFFFFFFFFFFFFFFFFFFFFFFF AND DUP2 MSTORE PUSH1 0x20 ADD SWAP1 DUP2 MSTORE PUSH1 0x20 ADD PUSH0 KECCAK256 DUP2 SWAP1 SSTORE POP PUSH2 0x1870 PUSH2 0x1824 DUP3 DUP5 PUSH2 0x1D99 SWAP1 SWAP2 SWAP1 PUSH4 0xFFFFFFFF AND JUMP JUMPDEST PUSH1 0x1 PUSH0 DUP7 PUSH20 0xFFFFFFFFFFFFFFFFFFFFFFFFFFFFFFFFFFFFFFFF AND PUSH20 0xFFFFFFFFFFFFFFFFFFFFFFFFFFFFFFFFFFFFFFFF AND DUP2 MSTORE PUSH1 0x20 ADD SWAP1 DUP2 MSTORE PUSH1 0x20 ADD PUSH0 KECCAK256 SLOAD PUSH2 0x1D3C SWAP1 SWAP2 SWAP1 PUSH4 0xFFFFFFFF AND JUMP JUMPDEST PUSH1 0x1 PUSH0 DUP6 PUSH20 0xFFFFFFFFFFFFFFFFFFFFFFFFFFFFFFFFFFFFFFFF AND PUSH20 0xFFFFFFFFFFFFFFFFFFFFFFFFFFFFFFFFFFFFFFFF AND DUP2 MSTORE PUSH1 0x20 ADD SWAP1 DUP2 MSTORE PUSH1 0x20 ADD PUSH0 KECCAK256 DUP2 SWAP1 SSTORE POP DUP3 PUSH20 0xFFFFFFFFFFFFFFFFFFFFFFFFFFFFFFFFFFFFFFFF AND DUP5 PUSH20 0xFFFFFFFFFFFFFFFFFFFFFFFFFFFFFFFFFFFFFFFF AND PUSH32 0xDDF252AD1BE2C89B69C2B068FC378DAA952BA7F163C4A11628F55A4DF523B3EF PUSH2 0x1913 DUP5 DUP7 PUSH2 0x1D99 SWAP1 SWAP2 SWAP1 PUSH4 0xFFFFFFFF AND JUMP JUMPDEST PUSH1 0x40 MLOAD PUSH2 0x1920 SWAP2 SWAP1 PUSH2 0x1FFE JUMP JUMPDEST PUSH1 0x40 MLOAD DUP1 SWAP2 SUB SWAP1 LOG3 POP POP POP POP JUMP JUMPDEST PUSH0 DUP4 DUP4 GT ISZERO DUP3 SWAP1 PUSH2 0x1975 JUMPI PUSH1 0x40 MLOAD PUSH32 0x8C379A000000000000000000000000000000000000000000000000000000000 DUP2 MSTORE PUSH1 0x4 ADD PUSH2 0x196C SWAP2 SWAP1 PUSH2 0x1ECD JUMP JUMPDEST PUSH1 0x40 MLOAD DUP1 SWAP2 SUB SWAP1 REVERT JUMPDEST POP PUSH0 DUP4 DUP6 PUSH2 0x1983 SWAP2 SWAP1 PUSH2 0x2A47 JUMP JUMPDEST SWAP1 POP DUP1 SWAP2 POP POP SWAP4 SWAP3 POP POP POP JUMP JUMPDEST PUSH1 0x1 PUSH1 0xC PUSH1 0x15 PUSH2 0x100 EXP DUP2 SLOAD DUP2 PUSH1 0xFF MUL NOT AND SWAP1 DUP4 ISZERO ISZERO MUL OR SWAP1 SSTORE POP PUSH0 PUSH1 0x2 PUSH8 0xFFFFFFFFFFFFFFFF DUP2 GT ISZERO PUSH2 0x19C7 JUMPI PUSH2 0x19C6 PUSH2 0x2A7A JUMP JUMPDEST JUMPDEST PUSH1 0x40 MLOAD SWAP1 DUP1 DUP3 MSTORE DUP1 PUSH1 0x20 MUL PUSH1 0x20 ADD DUP3 ADD PUSH1 0x40 MSTORE DUP1 ISZERO PUSH2 0x19F5 JUMPI DUP2 PUSH1 0x20 ADD PUSH1 0x20 DUP3 MUL DUP1 CALLDATASIZE DUP4 CALLDATACOPY DUP1 DUP3 ADD SWAP2 POP POP SWAP1 POP JUMPDEST POP SWAP1 POP ADDRESS DUP2 PUSH0 DUP2 MLOAD DUP2 LT PUSH2 0x1A0C JUMPI PUSH2 0x1A0B PUSH2 0x2AA7 JUMP JUMPDEST JUMPDEST PUSH1 0x20 MUL PUSH1 0x20 ADD ADD SWAP1 PUSH20 0xFFFFFFFFFFFFFFFFFFFFFFFFFFFFFFFFFFFFFFFF AND SWAP1 DUP2 PUSH20 0xFFFFFFFFFFFFFFFFFFFFFFFFFFFFFFFFFFFFFFFF AND DUP2 MSTORE POP POP PUSH1 0xB PUSH0 SWAP1 SLOAD SWAP1 PUSH2 0x100 EXP SWAP1 DIV PUSH20 0xFFFFFFFFFFFFFFFFFFFFFFFFFFFFFFFFFFFFFFFF AND PUSH20 0xFFFFFFFFFFFFFFFFFFFFFFFFFFFFFFFFFFFFFFFF AND PUSH4 0xAD5C4648 PUSH1 0x40 MLOAD DUP2 PUSH4 0xFFFFFFFF AND PUSH1 0xE0 SHL DUP2 MSTORE PUSH1 0x4 ADD PUSH1 0x20 PUSH1 0x40 MLOAD DUP1 DUP4 SUB DUP2 DUP7 GAS STATICCALL ISZERO DUP1 ISZERO PUSH2 0x1AB0 JUMPI RETURNDATASIZE PUSH0 DUP1 RETURNDATACOPY RETURNDATASIZE PUSH0 REVERT JUMPDEST POP POP POP POP PUSH1 0x40 MLOAD RETURNDATASIZE PUSH1 0x1F NOT PUSH1 0x1F DUP3 ADD AND DUP3 ADD DUP1 PUSH1 0x40 MSTORE POP DUP2 ADD SWAP1 PUSH2 0x1AD4 SWAP2 SWAP1 PUSH2 0x23F7 JUMP JUMPDEST DUP2 PUSH1 0x1 DUP2 MLOAD DUP2 LT PUSH2 0x1AE8 JUMPI PUSH2 0x1AE7 PUSH2 0x2AA7 JUMP JUMPDEST JUMPDEST PUSH1 0x20 MUL PUSH1 0x20 ADD ADD SWAP1 PUSH20 0xFFFFFFFFFFFFFFFFFFFFFFFFFFFFFFFFFFFFFFFF AND SWAP1 DUP2 PUSH20 0xFFFFFFFFFFFFFFFFFFFFFFFFFFFFFFFFFFFFFFFF AND DUP2 MSTORE POP POP PUSH2 0x1B4E ADDRESS PUSH1 0xB PUSH0 SWAP1 SLOAD SWAP1 PUSH2 0x100 EXP SWAP1 DIV PUSH20 0xFFFFFFFFFFFFFFFFFFFFFFFFFFFFFFFFFFFFFFFF AND DUP5 PUSH2 0xE3F JUMP JUMPDEST PUSH1 0xB PUSH0 SWAP1 SLOAD SWAP1 PUSH2 0x100 EXP SWAP1 DIV PUSH20 0xFFFFFFFFFFFFFFFFFFFFFFFFFFFFFFFFFFFFFFFF AND PUSH20 0xFFFFFFFFFFFFFFFFFFFFFFFFFFFFFFFFFFFFFFFF AND PUSH4 0x791AC947 DUP4 PUSH0 DUP5 ADDRESS TIMESTAMP PUSH1 0x40 MLOAD DUP7 PUSH4 0xFFFFFFFF AND PUSH1 0xE0 SHL DUP2 MSTORE PUSH1 0x4 ADD PUSH2 0x1BB0 SWAP6 SWAP5 SWAP4 SWAP3 SWAP2 SWAP1 PUSH2 0x2B8B JUMP JUMPDEST PUSH0 PUSH1 0x40 MLOAD DUP1 DUP4 SUB DUP2 PUSH0 DUP8 DUP1 EXTCODESIZE ISZERO DUP1 ISZERO PUSH2 0x1BC7 JUMPI PUSH0 DUP1 REVERT JUMPDEST POP GAS CALL ISZERO DUP1 ISZERO PUSH2 0x1BD9 JUMPI RETURNDATASIZE PUSH0 DUP1 RETURNDATACOPY RETURNDATASIZE PUSH0 REVERT JUMPDEST POP POP POP POP POP PUSH0 PUSH1 0xC PUSH1 0x15 PUSH2 0x100 EXP DUP2 SLOAD DUP2 PUSH1 0xFF MUL NOT AND SWAP1 DUP4 ISZERO ISZERO MUL OR SWAP1 SSTORE POP POP JUMP JUMPDEST PUSH1 0x6 PUSH1 0x1 SWAP1 SLOAD SWAP1 PUSH2 0x100 EXP SWAP1 DIV PUSH20 0xFFFFFFFFFFFFFFFFFFFFFFFFFFFFFFFFFFFFFFFF AND PUSH20 0xFFFFFFFFFFFFFFFFFFFFFFFFFFFFFFFFFFFFFFFF AND PUSH2 0x8FC DUP3 SWAP1 DUP2 ISZERO MUL SWAP1 PUSH1 0x40 MLOAD PUSH0 PUSH1 0x40 MLOAD DUP1 DUP4 SUB DUP2 DUP6 DUP9 DUP9 CALL SWAP4 POP POP POP POP ISZERO DUP1 ISZERO PUSH2 0x1C60 JUMPI RETURNDATASIZE PUSH0 DUP1 RETURNDATACOPY RETURNDATASIZE PUSH0 REVERT JUMPDEST POP POP JUMP JUMPDEST PUSH0 DUP1 DUP4 SUB PUSH2 0x1C74 JUMPI PUSH0 SWAP1 POP PUSH2 0x1CD5 JUMP JUMPDEST PUSH0 DUP3 DUP5 PUSH2 0x1C81 SWAP2 SWAP1 PUSH2 0x22D2 JUMP JUMPDEST SWAP1 POP DUP3 DUP5 DUP3 PUSH2 0x1C90 SWAP2 SWAP1 PUSH2 0x2C10 JUMP JUMPDEST EQ PUSH2 0x1CD0 JUMPI PUSH1 0x40 MLOAD PUSH32 0x8C379A000000000000000000000000000000000000000000000000000000000 DUP2 MSTORE PUSH1 0x4 ADD PUSH2 0x1CC7 SWAP1 PUSH2 0x2CB0 JUMP JUMPDEST PUSH1 0x40 MLOAD DUP1 SWAP2 SUB SWAP1 REVERT JUMPDEST DUP1 SWAP2 POP POP JUMPDEST SWAP3 SWAP2 POP POP JUMP JUMPDEST PUSH0 PUSH2 0x1D1C DUP4 DUP4 PUSH1 0x40 MLOAD DUP1 PUSH1 0x40 ADD PUSH1 0x40 MSTORE DUP1 PUSH1 0x1A DUP2 MSTORE PUSH1 0x20 ADD PUSH32 0x536166654D6174683A206469766973696F6E206279207A65726F000000000000 DUP2 MSTORE POP PUSH2 0x1DE2 JUMP JUMPDEST SWAP1 POP SWAP3 SWAP2 POP POP JUMP JUMPDEST PUSH0 DUP2 DUP4 GT PUSH2 0x1D32 JUMPI DUP3 PUSH2 0x1D34 JUMP JUMPDEST DUP2 JUMPDEST SWAP1 POP SWAP3 SWAP2 POP POP JUMP JUMPDEST PUSH0 DUP1 DUP3 DUP5 PUSH2 0x1D4A SWAP2 SWAP1 PUSH2 0x29AC JUMP JUMPDEST SWAP1 POP DUP4 DUP2 LT ISZERO PUSH2 0x1D8F JUMPI PUSH1 0x40 MLOAD PUSH32 0x8C379A000000000000000000000000000000000000000000000000000000000 DUP2 MSTORE PUSH1 0x4 ADD PUSH2 0x1D86 SWAP1 PUSH2 0x2D18 JUMP JUMPDEST PUSH1 0x40 MLOAD DUP1 SWAP2 SUB SWAP1 REVERT JUMPDEST DUP1 SWAP2 POP POP SWAP3 SWAP2 POP POP JUMP JUMPDEST PUSH0 PUSH2 0x1DDA DUP4 DUP4 PUSH1 0x40 MLOAD DUP1 PUSH1 0x40 ADD PUSH1 0x40 MSTORE DUP1 PUSH1 0x1E DUP2 MSTORE PUSH1 0x20 ADD PUSH32 0x536166654D6174683A207375627472616374696F6E206F766572666C6F770000 DUP2 MSTORE POP PUSH2 0x192E JUMP JUMPDEST SWAP1 POP SWAP3 SWAP2 POP POP JUMP JUMPDEST PUSH0 DUP1 DUP4 GT DUP3 SWAP1 PUSH2 0x1E28 JUMPI PUSH1 0x40 MLOAD PUSH32 0x8C379A000000000000000000000000000000000000000000000000000000000 DUP2 MSTORE PUSH1 0x4 ADD PUSH2 0x1E1F SWAP2 SWAP1 PUSH2 0x1ECD JUMP JUMPDEST PUSH1 0x40 MLOAD DUP1 SWAP2 SUB SWAP1 REVERT JUMPDEST POP PUSH0 DUP4 DUP6 PUSH2 0x1E36 SWAP2 SWAP1 PUSH2 0x2C10 JUMP JUMPDEST SWAP1 POP DUP1 SWAP2 POP POP SWAP4 SWAP3 POP POP POP JUMP JUMPDEST PUSH0 DUP2 MLOAD SWAP1 POP SWAP2 SWAP1 POP JUMP JUMPDEST PUSH0 DUP3 DUP3 MSTORE PUSH1 0x20 DUP3 ADD SWAP1 POP SWAP3 SWAP2 POP POP JUMP JUMPDEST PUSH0 JUMPDEST DUP4 DUP2 LT ISZERO PUSH2 0x1E7A JUMPI DUP1 DUP3 ADD MLOAD DUP2 DUP5 ADD MSTORE PUSH1 0x20 DUP2 ADD SWAP1 POP PUSH2 0x1E5F JUMP JUMPDEST PUSH0 DUP5 DUP5 ADD MSTORE POP POP POP POP JUMP JUMPDEST PUSH0 PUSH1 0x1F NOT PUSH1 0x1F DUP4 ADD AND SWAP1 POP SWAP2 SWAP1 POP JUMP JUMPDEST PUSH0 PUSH2 0x1E9F DUP3 PUSH2 0x1E43 JUMP JUMPDEST PUSH2 0x1EA9 DUP2 DUP6 PUSH2 0x1E4D JUMP JUMPDEST SWAP4 POP PUSH2 0x1EB9 DUP2 DUP6 PUSH1 0x20 DUP7 ADD PUSH2 0x1E5D JUMP JUMPDEST PUSH2 0x1EC2 DUP2 PUSH2 0x1E85 JUMP JUMPDEST DUP5 ADD SWAP2 POP POP SWAP3 SWAP2 POP POP JUMP JUMPDEST PUSH0 PUSH1 0x20 DUP3 ADD SWAP1 POP DUP2 DUP2 SUB PUSH0 DUP4 ADD MSTORE PUSH2 0x1EE5 DUP2 DUP5 PUSH2 0x1E95 JUMP JUMPDEST SWAP1 POP SWAP3 SWAP2 POP POP JUMP JUMPDEST PUSH0 DUP1 REVERT JUMPDEST PUSH0 PUSH20 0xFFFFFFFFFFFFFFFFFFFFFFFFFFFFFFFFFFFFFFFF DUP3 AND SWAP1 POP SWAP2 SWAP1 POP JUMP JUMPDEST PUSH0 PUSH2 0x1F1A DUP3 PUSH2 0x1EF1 JUMP JUMPDEST SWAP1 POP SWAP2 SWAP1 POP JUMP JUMPDEST PUSH2 0x1F2A DUP2 PUSH2 0x1F10 JUMP JUMPDEST DUP2 EQ PUSH2 0x1F34 JUMPI PUSH0 DUP1 REVERT JUMPDEST POP JUMP JUMPDEST PUSH0 DUP2 CALLDATALOAD SWAP1 POP PUSH2 0x1F45 DUP2 PUSH2 0x1F21 JUMP JUMPDEST SWAP3 SWAP2 POP POP JUMP JUMPDEST PUSH0 DUP2 SWAP1 POP SWAP2 SWAP1 POP JUMP JUMPDEST PUSH2 0x1F5D DUP2 PUSH2 0x1F4B JUMP JUMPDEST DUP2 EQ PUSH2 0x1F67 JUMPI PUSH0 DUP1 REVERT JUMPDEST POP JUMP JUMPDEST PUSH0 DUP2 CALLDATALOAD SWAP1 POP PUSH2 0x1F78 DUP2 PUSH2 0x1F54 JUMP JUMPDEST SWAP3 SWAP2 POP POP JUMP JUMPDEST PUSH0 DUP1 PUSH1 0x40 DUP4 DUP6 SUB SLT ISZERO PUSH2 0x1F94 JUMPI PUSH2 0x1F93 PUSH2 0x1EED JUMP JUMPDEST JUMPDEST PUSH0 PUSH2 0x1FA1 DUP6 DUP3 DUP7 ADD PUSH2 0x1F37 JUMP JUMPDEST SWAP3 POP POP PUSH1 0x20 PUSH2 0x1FB2 DUP6 DUP3 DUP7 ADD PUSH2 0x1F6A JUMP JUMPDEST SWAP2 POP POP SWAP3 POP SWAP3 SWAP1 POP JUMP JUMPDEST PUSH0 DUP2 ISZERO ISZERO SWAP1 POP SWAP2 SWAP1 POP JUMP JUMPDEST PUSH2 0x1FD0 DUP2 PUSH2 0x1FBC JUMP JUMPDEST DUP3 MSTORE POP POP JUMP JUMPDEST PUSH0 PUSH1 0x20 DUP3 ADD SWAP1 POP PUSH2 0x1FE9 PUSH0 DUP4 ADD DUP5 PUSH2 0x1FC7 JUMP JUMPDEST SWAP3 SWAP2 POP POP JUMP JUMPDEST PUSH2 0x1FF8 DUP2 PUSH2 0x1F4B JUMP JUMPDEST DUP3 MSTORE POP POP JUMP JUMPDEST PUSH0 PUSH1 0x20 DUP3 ADD SWAP1 POP PUSH2 0x2011 PUSH0 DUP4 ADD DUP5 PUSH2 0x1FEF JUMP JUMPDEST SWAP3 SWAP2 POP POP JUMP JUMPDEST PUSH0 DUP1 PUSH0 PUSH1 0x60 DUP5 DUP7 SUB SLT ISZERO PUSH2 0x202E JUMPI PUSH2 0x202D PUSH2 0x1EED JUMP JUMPDEST JUMPDEST PUSH0 PUSH2 0x203B DUP7 DUP3 DUP8 ADD PUSH2 0x1F37 JUMP JUMPDEST SWAP4 POP POP PUSH1 0x20 PUSH2 0x204C DUP7 DUP3 DUP8 ADD PUSH2 0x1F37 JUMP JUMPDEST SWAP3 POP POP PUSH1 0x40 PUSH2 0x205D DUP7 DUP3 DUP8 ADD PUSH2 0x1F6A JUMP JUMPDEST SWAP2 POP POP SWAP3 POP SWAP3 POP SWAP3 JUMP JUMPDEST PUSH0 PUSH1 0xFF DUP3 AND SWAP1 POP SWAP2 SWAP1 POP JUMP JUMPDEST PUSH2 0x207C DUP2 PUSH2 0x2067 JUMP JUMPDEST DUP3 MSTORE POP POP JUMP JUMPDEST PUSH0 PUSH1 0x20 DUP3 ADD SWAP1 POP PUSH2 0x2095 PUSH0 DUP4 ADD DUP5 PUSH2 0x2073 JUMP JUMPDEST SWAP3 SWAP2 POP POP JUMP JUMPDEST PUSH0 PUSH1 0x20 DUP3 DUP5 SUB SLT ISZERO PUSH2 0x20B0 JUMPI PUSH2 0x20AF PUSH2 0x1EED JUMP JUMPDEST JUMPDEST PUSH0 PUSH2 0x20BD DUP5 DUP3 DUP6 ADD PUSH2 0x1F37 JUMP JUMPDEST SWAP2 POP POP SWAP3 SWAP2 POP POP JUMP JUMPDEST PUSH2 0x20CF DUP2 PUSH2 0x1F10 JUMP JUMPDEST DUP3 MSTORE POP POP JUMP JUMPDEST PUSH0 PUSH1 0x20 DUP3 ADD SWAP1 POP PUSH2 0x20E8 PUSH0 DUP4 ADD DUP5 PUSH2 0x20C6 JUMP JUMPDEST SWAP3 SWAP2 POP POP JUMP JUMPDEST PUSH0 DUP1 PUSH1 0x40 DUP4 DUP6 SUB SLT ISZERO PUSH2 0x2104 JUMPI PUSH2 0x2103 PUSH2 0x1EED JUMP JUMPDEST JUMPDEST PUSH0 PUSH2 0x2111 DUP6 DUP3 DUP7 ADD PUSH2 0x1F37 JUMP JUMPDEST SWAP3 POP POP PUSH1 0x20 PUSH2 0x2122 DUP6 DUP3 DUP7 ADD PUSH2 0x1F37 JUMP JUMPDEST SWAP2 POP POP SWAP3 POP SWAP3 SWAP1 POP JUMP JUMPDEST PUSH32 0x4E487B7100000000000000000000000000000000000000000000000000000000 PUSH0 MSTORE PUSH1 0x11 PUSH1 0x4 MSTORE PUSH1 0x24 PUSH0 REVERT JUMPDEST PUSH0 DUP2 PUSH1 0x1 SHR SWAP1 POP SWAP2 SWAP1 POP JUMP JUMPDEST PUSH0 DUP1 DUP3 SWAP2 POP DUP4 SWAP1 POP JUMPDEST PUSH1 0x1 DUP6 GT ISZERO PUSH2 0x21AE JUMPI DUP1 DUP7 DIV DUP2 GT ISZERO PUSH2 0x218A JUMPI PUSH2 0x2189 PUSH2 0x212C JUMP JUMPDEST JUMPDEST PUSH1 0x1 DUP6 AND ISZERO PUSH2 0x2199 JUMPI DUP1 DUP3 MUL SWAP2 POP JUMPDEST DUP1 DUP2 MUL SWAP1 POP PUSH2 0x21A7 DUP6 PUSH2 0x2159 JUMP JUMPDEST SWAP5 POP PUSH2 0x216E JUMP JUMPDEST SWAP5 POP SWAP5 SWAP3 POP POP POP JUMP JUMPDEST PUSH0 DUP3 PUSH2 0x21C6 JUMPI PUSH1 0x1 SWAP1 POP PUSH2 0x2281 JUMP JUMPDEST DUP2 PUSH2 0x21D3 JUMPI PUSH0 SWAP1 POP PUSH2 0x2281 JUMP JUMPDEST DUP2 PUSH1 0x1 DUP2 EQ PUSH2 0x21E9 JUMPI PUSH1 0x2 DUP2 EQ PUSH2 0x21F3 JUMPI PUSH2 0x2222 JUMP JUMPDEST PUSH1 0x1 SWAP2 POP POP PUSH2 0x2281 JUMP JUMPDEST PUSH1 0xFF DUP5 GT ISZERO PUSH2 0x2205 JUMPI PUSH2 0x2204 PUSH2 0x212C JUMP JUMPDEST JUMPDEST DUP4 PUSH1 0x2 EXP SWAP2 POP DUP5 DUP3 GT ISZERO PUSH2 0x221C JUMPI PUSH2 0x221B PUSH2 0x212C JUMP JUMPDEST JUMPDEST POP PUSH2 0x2281 JUMP JUMPDEST POP PUSH1 0x20 DUP4 LT PUSH2 0x133 DUP4 LT AND PUSH1 0x4E DUP5 LT PUSH1 0xB DUP5 LT AND OR ISZERO PUSH2 0x2257 JUMPI DUP3 DUP3 EXP SWAP1 POP DUP4 DUP2 GT ISZERO PUSH2 0x2252 JUMPI PUSH2 0x2251 PUSH2 0x212C JUMP JUMPDEST JUMPDEST PUSH2 0x2281 JUMP JUMPDEST PUSH2 0x2264 DUP5 DUP5 DUP5 PUSH1 0x1 PUSH2 0x2165 JUMP JUMPDEST SWAP3 POP SWAP1 POP DUP2 DUP5 DIV DUP2 GT ISZERO PUSH2 0x227B JUMPI PUSH2 0x227A PUSH2 0x212C JUMP JUMPDEST JUMPDEST DUP2 DUP2 MUL SWAP1 POP JUMPDEST SWAP4 SWAP3 POP POP POP JUMP JUMPDEST PUSH0 PUSH2 0x2292 DUP3 PUSH2 0x1F4B JUMP JUMPDEST SWAP2 POP PUSH2 0x229D DUP4 PUSH2 0x2067 JUMP JUMPDEST SWAP3 POP PUSH2 0x22CA PUSH32 0xFFFFFFFFFFFFFFFFFFFFFFFFFFFFFFFFFFFFFFFFFFFFFFFFFFFFFFFFFFFFFFFF DUP5 DUP5 PUSH2 0x21B7 JUMP JUMPDEST SWAP1 POP SWAP3 SWAP2 POP POP JUMP JUMPDEST PUSH0 PUSH2 0x22DC DUP3 PUSH2 0x1F4B JUMP JUMPDEST SWAP2 POP PUSH2 0x22E7 DUP4 PUSH2 0x1F4B JUMP JUMPDEST SWAP3 POP DUP3 DUP3 MUL PUSH2 0x22F5 DUP2 PUSH2 0x1F4B JUMP JUMPDEST SWAP2 POP DUP3 DUP3 DIV DUP5 EQ DUP4 ISZERO OR PUSH2 0x230C JUMPI PUSH2 0x230B PUSH2 0x212C JUMP JUMPDEST JUMPDEST POP SWAP3 SWAP2 POP POP JUMP JUMPDEST PUSH32 0x4F776E61626C653A2063616C6C6572206973206E6F7420746865206F776E6572 PUSH0 DUP3 ADD MSTORE POP JUMP JUMPDEST PUSH0 PUSH2 0x2347 PUSH1 0x20 DUP4 PUSH2 0x1E4D JUMP JUMPDEST SWAP2 POP PUSH2 0x2352 DUP3 PUSH2 0x2313 JUMP JUMPDEST PUSH1 0x20 DUP3 ADD SWAP1 POP SWAP2 SWAP1 POP JUMP JUMPDEST PUSH0 PUSH1 0x20 DUP3 ADD SWAP1 POP DUP2 DUP2 SUB PUSH0 DUP4 ADD MSTORE PUSH2 0x2374 DUP2 PUSH2 0x233B JUMP JUMPDEST SWAP1 POP SWAP2 SWAP1 POP JUMP JUMPDEST PUSH32 0x74726164696E6720697320616C7265616479206F70656E000000000000000000 PUSH0 DUP3 ADD MSTORE POP JUMP JUMPDEST PUSH0 PUSH2 0x23AF PUSH1 0x17 DUP4 PUSH2 0x1E4D JUMP JUMPDEST SWAP2 POP PUSH2 0x23BA DUP3 PUSH2 0x237B JUMP JUMPDEST PUSH1 0x20 DUP3 ADD SWAP1 POP SWAP2 SWAP1 POP JUMP JUMPDEST PUSH0 PUSH1 0x20 DUP3 ADD SWAP1 POP DUP2 DUP2 SUB PUSH0 DUP4 ADD MSTORE PUSH2 0x23DC DUP2 PUSH2 0x23A3 JUMP JUMPDEST SWAP1 POP SWAP2 SWAP1 POP JUMP JUMPDEST PUSH0 DUP2 MLOAD SWAP1 POP PUSH2 0x23F1 DUP2 PUSH2 0x1F21 JUMP JUMPDEST SWAP3 SWAP2 POP POP JUMP JUMPDEST PUSH0 PUSH1 0x20 DUP3 DUP5 SUB SLT ISZERO PUSH2 0x240C JUMPI PUSH2 0x240B PUSH2 0x1EED JUMP JUMPDEST JUMPDEST PUSH0 PUSH2 0x2419 DUP5 DUP3 DUP6 ADD PUSH2 0x23E3 JUMP JUMPDEST SWAP2 POP POP SWAP3 SWAP2 POP POP JUMP JUMPDEST PUSH0 PUSH1 0x40 DUP3 ADD SWAP1 POP PUSH2 0x2435 PUSH0 DUP4 ADD DUP6 PUSH2 0x20C6 JUMP JUMPDEST PUSH2 0x2442 PUSH1 0x20 DUP4 ADD DUP5 PUSH2 0x20C6 JUMP JUMPDEST SWAP4 SWAP3 POP POP POP JUMP JUMPDEST PUSH0 DUP2 SWAP1 POP SWAP2 SWAP1 POP JUMP JUMPDEST PUSH0 DUP2 SWAP1 POP SWAP2 SWAP1 POP JUMP JUMPDEST PUSH0 PUSH2 0x2475 PUSH2 0x2470 PUSH2 0x246B DUP5 PUSH2 0x2449 JUMP JUMPDEST PUSH2 0x2452 JUMP JUMPDEST PUSH2 0x1F4B JUMP JUMPDEST SWAP1 POP SWAP2 SWAP1 POP JUMP JUMPDEST PUSH2 0x2485 DUP2 PUSH2 0x245B JUMP JUMPDEST DUP3 MSTORE POP POP JUMP JUMPDEST PUSH0 PUSH1 0xC0 DUP3 ADD SWAP1 POP PUSH2 0x249E PUSH0 DUP4 ADD DUP10 PUSH2 0x20C6 JUMP JUMPDEST PUSH2 0x24AB PUSH1 0x20 DUP4 ADD DUP9 PUSH2 0x1FEF JUMP JUMPDEST PUSH2 0x24B8 PUSH1 0x40 DUP4 ADD DUP8 PUSH2 0x247C JUMP JUMPDEST PUSH2 0x24C5 PUSH1 0x60 DUP4 ADD DUP7 PUSH2 0x247C JUMP JUMPDEST PUSH2 0x24D2 PUSH1 0x80 DUP4 ADD DUP6 PUSH2 0x20C6 JUMP JUMPDEST PUSH2 0x24DF PUSH1 0xA0 DUP4 ADD DUP5 PUSH2 0x1FEF JUMP JUMPDEST SWAP8 SWAP7 POP POP POP POP POP POP POP JUMP JUMPDEST PUSH0 DUP2 MLOAD SWAP1 POP PUSH2 0x24F8 DUP2 PUSH2 0x1F54 JUMP JUMPDEST SWAP3 SWAP2 POP POP JUMP JUMPDEST PUSH0 DUP1 PUSH0 PUSH1 0x60 DUP5 DUP7 SUB SLT ISZERO PUSH2 0x2515 JUMPI PUSH2 0x2514 PUSH2 0x1EED JUMP JUMPDEST JUMPDEST PUSH0 PUSH2 0x2522 DUP7 DUP3 DUP8 ADD PUSH2 0x24EA JUMP JUMPDEST SWAP4 POP POP PUSH1 0x20 PUSH2 0x2533 DUP7 DUP3 DUP8 ADD PUSH2 0x24EA JUMP JUMPDEST SWAP3 POP POP PUSH1 0x40 PUSH2 0x2544 DUP7 DUP3 DUP8 ADD PUSH2 0x24EA JUMP JUMPDEST SWAP2 POP POP SWAP3 POP SWAP3 POP SWAP3 JUMP JUMPDEST PUSH0 PUSH1 0x40 DUP3 ADD SWAP1 POP PUSH2 0x2561 PUSH0 DUP4 ADD DUP6 PUSH2 0x20C6 JUMP JUMPDEST PUSH2 0x256E PUSH1 0x20 DUP4 ADD DUP5 PUSH2 0x1FEF JUMP JUMPDEST SWAP4 SWAP3 POP POP POP JUMP JUMPDEST PUSH2 0x257E DUP2 PUSH2 0x1FBC JUMP JUMPDEST DUP2 EQ PUSH2 0x2588 JUMPI PUSH0 DUP1 REVERT JUMPDEST POP JUMP JUMPDEST PUSH0 DUP2 MLOAD SWAP1 POP PUSH2 0x2599 DUP2 PUSH2 0x2575 JUMP JUMPDEST SWAP3 SWAP2 POP POP JUMP JUMPDEST PUSH0 PUSH1 0x20 DUP3 DUP5 SUB SLT ISZERO PUSH2 0x25B4 JUMPI PUSH2 0x25B3 PUSH2 0x1EED JUMP JUMPDEST JUMPDEST PUSH0 PUSH2 0x25C1 DUP5 DUP3 DUP6 ADD PUSH2 0x258B JUMP JUMPDEST SWAP2 POP POP SWAP3 SWAP2 POP POP JUMP JUMPDEST PUSH32 0x45524332303A20617070726F76652066726F6D20746865207A65726F20616464 PUSH0 DUP3 ADD MSTORE PUSH32 0x7265737300000000000000000000000000000000000000000000000000000000 PUSH1 0x20 DUP3 ADD MSTORE POP JUMP JUMPDEST PUSH0 PUSH2 0x2624 PUSH1 0x24 DUP4 PUSH2 0x1E4D JUMP JUMPDEST SWAP2 POP PUSH2 0x262F DUP3 PUSH2 0x25CA JUMP JUMPDEST PUSH1 0x40 DUP3 ADD SWAP1 POP SWAP2 SWAP1 POP JUMP JUMPDEST PUSH0 PUSH1 0x20 DUP3 ADD SWAP1 POP DUP2 DUP2 SUB PUSH0 DUP4 ADD MSTORE PUSH2 0x2651 DUP2 PUSH2 0x2618 JUMP JUMPDEST SWAP1 POP SWAP2 SWAP1 POP JUMP JUMPDEST PUSH32 0x45524332303A20617070726F766520746F20746865207A65726F206164647265 PUSH0 DUP3 ADD MSTORE PUSH32 0x7373000000000000000000000000000000000000000000000000000000000000 PUSH1 0x20 DUP3 ADD MSTORE POP JUMP JUMPDEST PUSH0 PUSH2 0x26B2 PUSH1 0x22 DUP4 PUSH2 0x1E4D JUMP JUMPDEST SWAP2 POP PUSH2 0x26BD DUP3 PUSH2 0x2658 JUMP JUMPDEST PUSH1 0x40 DUP3 ADD SWAP1 POP SWAP2 SWAP1 POP JUMP JUMPDEST PUSH0 PUSH1 0x20 DUP3 ADD SWAP1 POP DUP2 DUP2 SUB PUSH0 DUP4 ADD MSTORE PUSH2 0x26DF DUP2 PUSH2 0x26A6 JUMP JUMPDEST SWAP1 POP SWAP2 SWAP1 POP JUMP JUMPDEST PUSH32 0x45524332303A207472616E736665722066726F6D20746865207A65726F206164 PUSH0 DUP3 ADD MSTORE PUSH32 0x6472657373000000000000000000000000000000000000000000000000000000 PUSH1 0x20 DUP3 ADD MSTORE POP JUMP JUMPDEST PUSH0 PUSH2 0x2740 PUSH1 0x25 DUP4 PUSH2 0x1E4D JUMP JUMPDEST SWAP2 POP PUSH2 0x274B DUP3 PUSH2 0x26E6 JUMP JUMPDEST PUSH1 0x40 DUP3 ADD SWAP1 POP SWAP2 SWAP1 POP JUMP JUMPDEST PUSH0 PUSH1 0x20 DUP3 ADD SWAP1 POP DUP2 DUP2 SUB PUSH0 DUP4 ADD MSTORE PUSH2 0x276D DUP2 PUSH2 0x2734 JUMP JUMPDEST SWAP1 POP SWAP2 SWAP1 POP JUMP JUMPDEST PUSH32 0x45524332303A207472616E7366657220746F20746865207A65726F2061646472 PUSH0 DUP3 ADD MSTORE PUSH32 0x6573730000000000000000000000000000000000000000000000000000000000 PUSH1 0x20 DUP3 ADD MSTORE POP JUMP JUMPDEST PUSH0 PUSH2 0x27CE PUSH1 0x23 DUP4 PUSH2 0x1E4D JUMP JUMPDEST SWAP2 POP PUSH2 0x27D9 DUP3 PUSH2 0x2774 JUMP JUMPDEST PUSH1 0x40 DUP3 ADD SWAP1 POP SWAP2 SWAP1 POP JUMP JUMPDEST PUSH0 PUSH1 0x20 DUP3 ADD SWAP1 POP DUP2 DUP2 SUB PUSH0 DUP4 ADD MSTORE PUSH2 0x27FB DUP2 PUSH2 0x27C2 JUMP JUMPDEST SWAP1 POP SWAP2 SWAP1 POP JUMP JUMPDEST PUSH32 0x5472616E7366657220616D6F756E74206D757374206265206772656174657220 PUSH0 DUP3 ADD MSTORE PUSH32 0x7468616E207A65726F0000000000000000000000000000000000000000000000 PUSH1 0x20 DUP3 ADD MSTORE POP JUMP JUMPDEST PUSH0 PUSH2 0x285C PUSH1 0x29 DUP4 PUSH2 0x1E4D JUMP JUMPDEST SWAP2 POP PUSH2 0x2867 DUP3 PUSH2 0x2802 JUMP JUMPDEST PUSH1 0x40 DUP3 ADD SWAP1 POP SWAP2 SWAP1 POP JUMP JUMPDEST PUSH0 PUSH1 0x20 DUP3 ADD SWAP1 POP DUP2 DUP2 SUB PUSH0 DUP4 ADD MSTORE PUSH2 0x2889 DUP2 PUSH2 0x2850 JUMP JUMPDEST SWAP1 POP SWAP2 SWAP1 POP JUMP JUMPDEST PUSH32 0x5F7472616E736665723A3A205472616E736665722044656C617920656E61626C PUSH0 DUP3 ADD MSTORE PUSH32 0x65642E204F6E6C79206F6E652070757263686173652070657220626C6F636B20 PUSH1 0x20 DUP3 ADD MSTORE PUSH32 0x616C6C6F7765642E000000000000000000000000000000000000000000000000 PUSH1 0x40 DUP3 ADD MSTORE POP JUMP JUMPDEST PUSH0 PUSH2 0x2910 PUSH1 0x48 DUP4 PUSH2 0x1E4D JUMP JUMPDEST SWAP2 POP PUSH2 0x291B DUP3 PUSH2 0x2890 JUMP JUMPDEST PUSH1 0x60 DUP3 ADD SWAP1 POP SWAP2 SWAP1 POP JUMP JUMPDEST PUSH0 PUSH1 0x20 DUP3 ADD SWAP1 POP DUP2 DUP2 SUB PUSH0 DUP4 ADD MSTORE PUSH2 0x293D DUP2 PUSH2 0x2904 JUMP JUMPDEST SWAP1 POP SWAP2 SWAP1 POP JUMP JUMPDEST PUSH32 0x4578636565647320746865205F6D61785478416D6F756E742E00000000000000 PUSH0 DUP3 ADD MSTORE POP JUMP JUMPDEST PUSH0 PUSH2 0x2978 PUSH1 0x19 DUP4 PUSH2 0x1E4D JUMP JUMPDEST SWAP2 POP PUSH2 0x2983 DUP3 PUSH2 0x2944 JUMP JUMPDEST PUSH1 0x20 DUP3 ADD SWAP1 POP SWAP2 SWAP1 POP JUMP JUMPDEST PUSH0 PUSH1 0x20 DUP3 ADD SWAP1 POP DUP2 DUP2 SUB PUSH0 DUP4 ADD MSTORE PUSH2 0x29A5 DUP2 PUSH2 0x296C JUMP JUMPDEST SWAP1 POP SWAP2 SWAP1 POP JUMP JUMPDEST PUSH0 PUSH2 0x29B6 DUP3 PUSH2 0x1F4B JUMP JUMPDEST SWAP2 POP PUSH2 0x29C1 DUP4 PUSH2 0x1F4B JUMP JUMPDEST SWAP3 POP DUP3 DUP3 ADD SWAP1 POP DUP1 DUP3 GT ISZERO PUSH2 0x29D9 JUMPI PUSH2 0x29D8 PUSH2 0x212C JUMP JUMPDEST JUMPDEST SWAP3 SWAP2 POP POP JUMP JUMPDEST PUSH32 0x4578636565647320746865206D617857616C6C657453697A652E000000000000 PUSH0 DUP3 ADD MSTORE POP JUMP JUMPDEST PUSH0 PUSH2 0x2A13 PUSH1 0x1A DUP4 PUSH2 0x1E4D JUMP JUMPDEST SWAP2 POP PUSH2 0x2A1E DUP3 PUSH2 0x29DF JUMP JUMPDEST PUSH1 0x20 DUP3 ADD SWAP1 POP SWAP2 SWAP1 POP JUMP JUMPDEST PUSH0 PUSH1 0x20 DUP3 ADD SWAP1 POP DUP2 DUP2 SUB PUSH0 DUP4 ADD MSTORE PUSH2 0x2A40 DUP2 PUSH2 0x2A07 JUMP JUMPDEST SWAP1 POP SWAP2 SWAP1 POP JUMP JUMPDEST PUSH0 PUSH2 0x2A51 DUP3 PUSH2 0x1F4B JUMP JUMPDEST SWAP2 POP PUSH2 0x2A5C DUP4 PUSH2 0x1F4B JUMP JUMPDEST SWAP3 POP DUP3 DUP3 SUB SWAP1 POP DUP2 DUP2 GT ISZERO PUSH2 0x2A74 JUMPI PUSH2 0x2A73 PUSH2 0x212C JUMP JUMPDEST JUMPDEST SWAP3 SWAP2 POP POP JUMP JUMPDEST PUSH32 0x4E487B7100000000000000000000000000000000000000000000000000000000 PUSH0 MSTORE PUSH1 0x41 PUSH1 0x4 MSTORE PUSH1 0x24 PUSH0 REVERT JUMPDEST PUSH32 0x4E487B7100000000000000000000000000000000000000000000000000000000 PUSH0 MSTORE PUSH1 0x32 PUSH1 0x4 MSTORE PUSH1 0x24 PUSH0 REVERT JUMPDEST PUSH0 DUP2 MLOAD SWAP1 POP SWAP2 SWAP1 POP JUMP JUMPDEST PUSH0 DUP3 DUP3 MSTORE PUSH1 0x20 DUP3 ADD SWAP1 POP SWAP3 SWAP2 POP POP JUMP JUMPDEST PUSH0 DUP2 SWAP1 POP PUSH1 0x20 DUP3 ADD SWAP1 POP SWAP2 SWAP1 POP JUMP JUMPDEST PUSH2 0x2B06 DUP2 PUSH2 0x1F10 JUMP JUMPDEST DUP3 MSTORE POP POP JUMP JUMPDEST PUSH0 PUSH2 0x2B17 DUP4 DUP4 PUSH2 0x2AFD JUMP JUMPDEST PUSH1 0x20 DUP4 ADD SWAP1 POP SWAP3 SWAP2 POP POP JUMP JUMPDEST PUSH0 PUSH1 0x20 DUP3 ADD SWAP1 POP SWAP2 SWAP1 POP JUMP JUMPDEST PUSH0 PUSH2 0x2B39 DUP3 PUSH2 0x2AD4 JUMP JUMPDEST PUSH2 0x2B43 DUP2 DUP6 PUSH2 0x2ADE JUMP JUMPDEST SWAP4 POP PUSH2 0x2B4E DUP4 PUSH2 0x2AEE JUMP JUMPDEST DUP1 PUSH0 JUMPDEST DUP4 DUP2 LT ISZERO PUSH2 0x2B7E JUMPI DUP2 MLOAD PUSH2 0x2B65 DUP9 DUP3 PUSH2 0x2B0C JUMP JUMPDEST SWAP8 POP PUSH2 0x2B70 DUP4 PUSH2 0x2B23 JUMP JUMPDEST SWAP3 POP POP PUSH1 0x1 DUP2 ADD SWAP1 POP PUSH2 0x2B51 JUMP JUMPDEST POP DUP6 SWAP4 POP POP POP POP SWAP3 SWAP2 POP POP JUMP JUMPDEST PUSH0 PUSH1 0xA0 DUP3 ADD SWAP1 POP PUSH2 0x2B9E PUSH0 DUP4 ADD DUP9 PUSH2 0x1FEF JUMP JUMPDEST PUSH2 0x2BAB PUSH1 0x20 DUP4 ADD DUP8 PUSH2 0x247C JUMP JUMPDEST DUP2 DUP2 SUB PUSH1 0x40 DUP4 ADD MSTORE PUSH2 0x2BBD DUP2 DUP7 PUSH2 0x2B2F JUMP JUMPDEST SWAP1 POP PUSH2 0x2BCC PUSH1 0x60 DUP4 ADD DUP6 PUSH2 0x20C6 JUMP JUMPDEST PUSH2 0x2BD9 PUSH1 0x80 DUP4 ADD DUP5 PUSH2 0x1FEF JUMP JUMPDEST SWAP7 SWAP6 POP POP POP POP POP POP JUMP JUMPDEST PUSH32 0x4E487B7100000000000000000000000000000000000000000000000000000000 PUSH0 MSTORE PUSH1 0x12 PUSH1 0x4 MSTORE PUSH1 0x24 PUSH0 REVERT JUMPDEST PUSH0 PUSH2 0x2C1A DUP3 PUSH2 0x1F4B JUMP JUMPDEST SWAP2 POP PUSH2 0x2C25 DUP4 PUSH2 0x1F4B JUMP JUMPDEST SWAP3 POP DUP3 PUSH2 0x2C35 JUMPI PUSH2 0x2C34 PUSH2 0x2BE3 JUMP JUMPDEST JUMPDEST DUP3 DUP3 DIV SWAP1 POP SWAP3 SWAP2 POP POP JUMP JUMPDEST PUSH32 0x536166654D6174683A206D756C7469706C69636174696F6E206F766572666C6F PUSH0 DUP3 ADD MSTORE PUSH32 0x7700000000000000000000000000000000000000000000000000000000000000 PUSH1 0x20 DUP3 ADD MSTORE POP JUMP JUMPDEST PUSH0 PUSH2 0x2C9A PUSH1 0x21 DUP4 PUSH2 0x1E4D JUMP JUMPDEST SWAP2 POP PUSH2 0x2CA5 DUP3 PUSH2 0x2C40 JUMP JUMPDEST PUSH1 0x40 DUP3 ADD SWAP1 POP SWAP2 SWAP1 POP JUMP JUMPDEST PUSH0 PUSH1 0x20 DUP3 ADD SWAP1 POP DUP2 DUP2 SUB PUSH0 DUP4 ADD MSTORE PUSH2 0x2CC7 DUP2 PUSH2 0x2C8E JUMP JUMPDEST SWAP1 POP SWAP2 SWAP1 POP JUMP JUMPDEST PUSH32 0x536166654D6174683A206164646974696F6E206F766572666C6F770000000000 PUSH0 DUP3 ADD MSTORE POP JUMP JUMPDEST PUSH0 PUSH2 0x2D02 PUSH1 0x1B DUP4 PUSH2 0x1E4D JUMP JUMPDEST SWAP2 POP PUSH2 0x2D0D DUP3 PUSH2 0x2CCE JUMP JUMPDEST PUSH1 0x20 DUP3 ADD SWAP1 POP SWAP2 SWAP1 POP JUMP JUMPDEST PUSH0 PUSH1 0x20 DUP3 ADD SWAP1 POP DUP2 DUP2 SUB PUSH0 DUP4 ADD MSTORE PUSH2 0x2D2F DUP2 PUSH2 0x2CF6 JUMP JUMPDEST SWAP1 POP SWAP2 SWAP1 POP JUMP INVALID GASLIMIT MSTORE NUMBER ORIGIN ADDRESS GASPRICE KECCAK256 PUSH21 0x72616E7366657220616D6F756E7420657863656564 PUSH20 0x20616C6C6F77616E6365A2646970667358221220 DUP9 PC DUP1 DUP5 COINBASE 0xF6 SHL SELFDESTRUCT 0xB2 PUSH30 0xB67A82B7846FC376580EEB149F7561013C7C2CED3E0964736F6C63430008 EQ STOP CALLER "
				},
				"gasEstimates": {
					"creation": {
						"codeDepositCost": "2333600",
						"executionCost": "infinite",
						"totalCost": "infinite"
					},
					"external": {
						"DEAD_WALLET()": "484",
						"_maxTaxSwap()": "2493",
						"_maxTxAmount()": "2448",
						"_maxWalletSize()": "2492",
						"_taxSwapThreshold()": "2469",
						"allowance(address,address)": "infinite",
						"approve(address,uint256)": "infinite",
						"balanceOf(address)": "2918",
						"decimals()": "383",
						"manualSwap()": "infinite",
						"name()": "infinite",
						"openTrading()": "infinite",
						"owner()": "2560",
						"renounceOwnership()": "30395",
						"symbol()": "infinite",
						"totalSupply()": "infinite",
						"transfer(address,uint256)": "infinite",
						"transferDelayEnabled()": "2532",
						"transferFrom(address,address,uint256)": "infinite"
					},
					"internal": {
						"_approve(address,address,uint256)": "infinite",
						"_transfer(address,address,uint256)": "infinite",
						"min(uint256,uint256)": "63",
						"sendETHToFee(uint256)": "infinite",
						"swapTokensForEth(uint256)": "infinite"
					}
				},
				"methodIdentifiers": {
					"DEAD_WALLET()": "a01c3483",
					"_maxTaxSwap()": "0faee56f",
					"_maxTxAmount()": "7d1db4a5",
					"_maxWalletSize()": "8f9a55c0",
					"_taxSwapThreshold()": "bf474bed",
					"allowance(address,address)": "dd62ed3e",
					"approve(address,uint256)": "095ea7b3",
					"balanceOf(address)": "70a08231",
					"decimals()": "313ce567",
					"manualSwap()": "51bc3c85",
					"name()": "06fdde03",
					"openTrading()": "c9567bf9",
					"owner()": "8da5cb5b",
					"renounceOwnership()": "715018a6",
					"symbol()": "95d89b41",
					"totalSupply()": "18160ddd",
					"transfer(address,uint256)": "a9059cbb",
					"transferDelayEnabled()": "c876d0b9",
					"transferFrom(address,address,uint256)": "23b872dd"
				}
			},
			"storageLayout": {
				"storage": [
					{
						"astId": 228,
						"contract": "contracts/oat.sol:OneAnonataTime",
						"label": "_owner",
						"offset": 0,
						"slot": "0",
						"type": "t_address"
					},
					{
						"astId": 366,
						"contract": "contracts/oat.sol:OneAnonataTime",
						"label": "_balances",
						"offset": 0,
						"slot": "1",
						"type": "t_mapping(t_address,t_uint256)"
					},
					{
						"astId": 372,
						"contract": "contracts/oat.sol:OneAnonataTime",
						"label": "_allowances",
						"offset": 0,
						"slot": "2",
						"type": "t_mapping(t_address,t_mapping(t_address,t_uint256))"
					},
					{
						"astId": 376,
						"contract": "contracts/oat.sol:OneAnonataTime",
						"label": "_isExcludedFromFee",
						"offset": 0,
						"slot": "3",
						"type": "t_mapping(t_address,t_bool)"
					},
					{
						"astId": 380,
						"contract": "contracts/oat.sol:OneAnonataTime",
						"label": "bots",
						"offset": 0,
						"slot": "4",
						"type": "t_mapping(t_address,t_bool)"
					},
					{
						"astId": 384,
						"contract": "contracts/oat.sol:OneAnonataTime",
						"label": "_holderLastTransferTimestamp",
						"offset": 0,
						"slot": "5",
						"type": "t_mapping(t_address,t_uint256)"
					},
					{
						"astId": 387,
						"contract": "contracts/oat.sol:OneAnonataTime",
						"label": "transferDelayEnabled",
						"offset": 0,
						"slot": "6",
						"type": "t_bool"
					},
					{
						"astId": 389,
						"contract": "contracts/oat.sol:OneAnonataTime",
						"label": "_taxWallet",
						"offset": 1,
						"slot": "6",
						"type": "t_address_payable"
					},
					{
						"astId": 418,
						"contract": "contracts/oat.sol:OneAnonataTime",
						"label": "_maxTxAmount",
						"offset": 0,
						"slot": "7",
						"type": "t_uint256"
					},
					{
						"astId": 425,
						"contract": "contracts/oat.sol:OneAnonataTime",
						"label": "_maxWalletSize",
						"offset": 0,
						"slot": "8",
						"type": "t_uint256"
					},
					{
						"astId": 432,
						"contract": "contracts/oat.sol:OneAnonataTime",
						"label": "_taxSwapThreshold",
						"offset": 0,
						"slot": "9",
						"type": "t_uint256"
					},
					{
						"astId": 439,
						"contract": "contracts/oat.sol:OneAnonataTime",
						"label": "_maxTaxSwap",
						"offset": 0,
						"slot": "10",
						"type": "t_uint256"
					},
					{
						"astId": 442,
						"contract": "contracts/oat.sol:OneAnonataTime",
						"label": "uniswapV2Router",
						"offset": 0,
						"slot": "11",
						"type": "t_contract(IUniswapV2Router02)353"
					},
					{
						"astId": 444,
						"contract": "contracts/oat.sol:OneAnonataTime",
						"label": "uniswapV2Pair",
						"offset": 0,
						"slot": "12",
						"type": "t_address"
					},
					{
						"astId": 446,
						"contract": "contracts/oat.sol:OneAnonataTime",
						"label": "tradingOpen",
						"offset": 20,
						"slot": "12",
						"type": "t_bool"
					},
					{
						"astId": 449,
						"contract": "contracts/oat.sol:OneAnonataTime",
						"label": "inSwap",
						"offset": 21,
						"slot": "12",
						"type": "t_bool"
					},
					{
						"astId": 452,
						"contract": "contracts/oat.sol:OneAnonataTime",
						"label": "swapEnabled",
						"offset": 22,
						"slot": "12",
						"type": "t_bool"
					}
				],
				"types": {
					"t_address": {
						"encoding": "inplace",
						"label": "address",
						"numberOfBytes": "20"
					},
					"t_address_payable": {
						"encoding": "inplace",
						"label": "address payable",
						"numberOfBytes": "20"
					},
					"t_bool": {
						"encoding": "inplace",
						"label": "bool",
						"numberOfBytes": "1"
					},
					"t_contract(IUniswapV2Router02)353": {
						"encoding": "inplace",
						"label": "contract IUniswapV2Router02",
						"numberOfBytes": "20"
					},
					"t_mapping(t_address,t_bool)": {
						"encoding": "mapping",
						"key": "t_address",
						"label": "mapping(address => bool)",
						"numberOfBytes": "32",
						"value": "t_bool"
					},
					"t_mapping(t_address,t_mapping(t_address,t_uint256))": {
						"encoding": "mapping",
						"key": "t_address",
						"label": "mapping(address => mapping(address => uint256))",
						"numberOfBytes": "32",
						"value": "t_mapping(t_address,t_uint256)"
					},
					"t_mapping(t_address,t_uint256)": {
						"encoding": "mapping",
						"key": "t_address",
						"label": "mapping(address => uint256)",
						"numberOfBytes": "32",
						"value": "t_uint256"
					},
					"t_uint256": {
						"encoding": "inplace",
						"label": "uint256",
						"numberOfBytes": "32"
					}
				}
			},
			"userdoc": {
				"kind": "user",
				"methods": {},
				"version": 1
			}
		}
	}
}