{
	"contracts/oatFINAL.sol": {
		"OneAnonataTime": {
			"abi": [
				{
					"inputs": [],
					"stateMutability": "nonpayable",
					"type": "constructor"
				},
				{
					"anonymous": false,
					"inputs": [
						{
							"indexed": true,
							"internalType": "address",
							"name": "owner",
							"type": "address"
						},
						{
							"indexed": true,
							"internalType": "address",
							"name": "spender",
							"type": "address"
						},
						{
							"indexed": false,
							"internalType": "uint256",
							"name": "value",
							"type": "uint256"
						}
					],
					"name": "Approval",
					"type": "event"
				},
				{
					"anonymous": false,
					"inputs": [
						{
							"indexed": false,
							"internalType": "uint256",
							"name": "_maxTxAmount",
							"type": "uint256"
						}
					],
					"name": "MaxTxAmountUpdated",
					"type": "event"
				},
				{
					"anonymous": false,
					"inputs": [
						{
							"indexed": true,
							"internalType": "address",
							"name": "previousOwner",
							"type": "address"
						},
						{
							"indexed": true,
							"internalType": "address",
							"name": "newOwner",
							"type": "address"
						}
					],
					"name": "OwnershipTransferred",
					"type": "event"
				},
				{
					"anonymous": false,
					"inputs": [
						{
							"indexed": true,
							"internalType": "address",
							"name": "from",
							"type": "address"
						},
						{
							"indexed": true,
							"internalType": "address",
							"name": "to",
							"type": "address"
						},
						{
							"indexed": false,
							"internalType": "uint256",
							"name": "value",
							"type": "uint256"
						}
					],
					"name": "Transfer",
					"type": "event"
				},
				{
					"inputs": [],
					"name": "DEAD_WALLET",
					"outputs": [
						{
							"internalType": "address",
							"name": "",
							"type": "address"
						}
					],
					"stateMutability": "view",
					"type": "function"
				},
				{
					"inputs": [],
					"name": "Launch",
					"outputs": [],
					"stateMutability": "nonpayable",
					"type": "function"
				},
				{
					"inputs": [],
					"name": "_maxTaxSwap",
					"outputs": [
						{
							"internalType": "uint256",
							"name": "",
							"type": "uint256"
						}
					],
					"stateMutability": "view",
					"type": "function"
				},
				{
					"inputs": [],
					"name": "_maxTxAmount",
					"outputs": [
						{
							"internalType": "uint256",
							"name": "",
							"type": "uint256"
						}
					],
					"stateMutability": "view",
					"type": "function"
				},
				{
					"inputs": [],
					"name": "_maxWalletSize",
					"outputs": [
						{
							"internalType": "uint256",
							"name": "",
							"type": "uint256"
						}
					],
					"stateMutability": "view",
					"type": "function"
				},
				{
					"inputs": [],
					"name": "_reduceBuyTaxAt",
					"outputs": [
						{
							"internalType": "uint256",
							"name": "",
							"type": "uint256"
						}
					],
					"stateMutability": "view",
					"type": "function"
				},
				{
					"inputs": [],
					"name": "_reduceSellTaxAt",
					"outputs": [
						{
							"internalType": "uint256",
							"name": "",
							"type": "uint256"
						}
					],
					"stateMutability": "view",
					"type": "function"
				},
				{
					"inputs": [],
					"name": "_taxSwapThreshold",
					"outputs": [
						{
							"internalType": "uint256",
							"name": "",
							"type": "uint256"
						}
					],
					"stateMutability": "view",
					"type": "function"
				},
				{
					"inputs": [
						{
							"internalType": "address",
							"name": "owner",
							"type": "address"
						},
						{
							"internalType": "address",
							"name": "spender",
							"type": "address"
						}
					],
					"name": "allowance",
					"outputs": [
						{
							"internalType": "uint256",
							"name": "",
							"type": "uint256"
						}
					],
					"stateMutability": "view",
					"type": "function"
				},
				{
					"inputs": [
						{
							"internalType": "address",
							"name": "spender",
							"type": "address"
						},
						{
							"internalType": "uint256",
							"name": "amount",
							"type": "uint256"
						}
					],
					"name": "approve",
					"outputs": [
						{
							"internalType": "bool",
							"name": "",
							"type": "bool"
						}
					],
					"stateMutability": "nonpayable",
					"type": "function"
				},
				{
					"inputs": [
						{
							"internalType": "address",
							"name": "account",
							"type": "address"
						}
					],
					"name": "balanceOf",
					"outputs": [
						{
							"internalType": "uint256",
							"name": "",
							"type": "uint256"
						}
					],
					"stateMutability": "view",
					"type": "function"
				},
				{
					"inputs": [
						{
							"internalType": "uint256",
							"name": "amount",
							"type": "uint256"
						}
					],
					"name": "changeSwapAmount",
					"outputs": [],
					"stateMutability": "nonpayable",
					"type": "function"
				},
				{
					"inputs": [],
					"name": "decimals",
					"outputs": [
						{
							"internalType": "uint8",
							"name": "",
							"type": "uint8"
						}
					],
					"stateMutability": "pure",
					"type": "function"
				},
				{
					"inputs": [],
					"name": "manualSwap",
					"outputs": [],
					"stateMutability": "nonpayable",
					"type": "function"
				},
				{
					"inputs": [],
					"name": "name",
					"outputs": [
						{
							"internalType": "string",
							"name": "",
							"type": "string"
						}
					],
					"stateMutability": "pure",
					"type": "function"
				},
				{
					"inputs": [],
					"name": "owner",
					"outputs": [
						{
							"internalType": "address",
							"name": "",
							"type": "address"
						}
					],
					"stateMutability": "view",
					"type": "function"
				},
				{
					"inputs": [],
					"name": "removeLimits",
					"outputs": [],
					"stateMutability": "nonpayable",
					"type": "function"
				},
				{
					"inputs": [],
					"name": "renounceOwnership",
					"outputs": [],
					"stateMutability": "nonpayable",
					"type": "function"
				},
				{
					"inputs": [],
					"name": "symbol",
					"outputs": [
						{
							"internalType": "string",
							"name": "",
							"type": "string"
						}
					],
					"stateMutability": "pure",
					"type": "function"
				},
				{
					"inputs": [],
					"name": "totalSupply",
					"outputs": [
						{
							"internalType": "uint256",
							"name": "",
							"type": "uint256"
						}
					],
					"stateMutability": "pure",
					"type": "function"
				},
				{
					"inputs": [
						{
							"internalType": "address",
							"name": "recipient",
							"type": "address"
						},
						{
							"internalType": "uint256",
							"name": "amount",
							"type": "uint256"
						}
					],
					"name": "transfer",
					"outputs": [
						{
							"internalType": "bool",
							"name": "",
							"type": "bool"
						}
					],
					"stateMutability": "nonpayable",
					"type": "function"
				},
				{
					"inputs": [],
					"name": "transferDelayEnabled",
					"outputs": [
						{
							"internalType": "bool",
							"name": "",
							"type": "bool"
						}
					],
					"stateMutability": "view",
					"type": "function"
				},
				{
					"inputs": [
						{
							"internalType": "address",
							"name": "sender",
							"type": "address"
						},
						{
							"internalType": "address",
							"name": "recipient",
							"type": "address"
						},
						{
							"internalType": "uint256",
							"name": "amount",
							"type": "uint256"
						}
					],
					"name": "transferFrom",
					"outputs": [
						{
							"internalType": "bool",
							"name": "",
							"type": "bool"
						}
					],
					"stateMutability": "nonpayable",
					"type": "function"
				},
				{
					"stateMutability": "payable",
					"type": "receive"
				}
			],
			"devdoc": {
				"kind": "dev",
				"methods": {},
				"version": 1
			},
			"evm": {
				"assembly": "    /* \"contracts/oatFINAL.sol\":3378:12497  contract OneAnonataTime is Context, IERC20, Ownable {... */\n  mstore(0x40, 0x80)\n    /* \"contracts/oatFINAL.sol\":3687:3727  bool public transferDelayEnabled = false */\n  0x05\n  dup1\n  sload\n  not(0xff)\n  and\n  dup2\n  sstore\n    /* \"contracts/oatFINAL.sol\":3868:3902  uint256 private _initialBuyTax = 5 */\n  0x06\n  sstore\n    /* \"contracts/oatFINAL.sol\":3942:3944  15 */\n  0x0f\n    /* \"contracts/oatFINAL.sol\":3908:3944  uint256 private _initialSellTax = 15 */\n  0x07\n  dup2\n  swap1\n  sstore\n    /* \"contracts/oatFINAL.sol\":3687:3727  bool public transferDelayEnabled = false */\n  0x01\n    /* \"contracts/oatFINAL.sol\":3950:3982  uint256 private _finalBuyTax = 1 */\n  0x08\n  dup2\n  swap1\n  sstore\n    /* \"contracts/oatFINAL.sol\":3988:4021  uint256 private _finalSellTax = 1 */\n  0x09\n  sstore\n    /* \"contracts/oatFINAL.sol\":4027:4062  uint256 public _reduceBuyTaxAt = 15 */\n  0x0a\n  swap1\n  dup2\n  sstore\n    /* \"contracts/oatFINAL.sol\":4102:4104  25 */\n  0x19\n    /* \"contracts/oatFINAL.sol\":4068:4104  uint256 public _reduceSellTaxAt = 25 */\n  0x0b\n  sstore\n    /* \"contracts/oatFINAL.sol\":4110:4149  uint256 private _preventSwapBefore = 10 */\n  0x0c\n  dup2\n  swap1\n  sstore\n    /* \"contracts/oatFINAL.sol\":3722:3727  false */\n  0x00\n    /* \"contracts/oatFINAL.sol\":4155:4184  uint256 private _buyCount = 0 */\n  0x0d\n  sstore\n    /* \"contracts/oatFINAL.sol\":4450:4453  100 */\n  0x64\n  swap1\n    /* \"contracts/oatFINAL.sol\":4283:4296  10**_decimals */\n  tag_1\n  swap1\n    /* \"contracts/oatFINAL.sol\":4226:4228  18 */\n  0x12\n  swap1\n    /* \"contracts/oatFINAL.sol\":4283:4296  10**_decimals */\n  tag_2\n  jump\t// in\ntag_1:\n    /* \"contracts/oatFINAL.sol\":4269:4296  100_000_000 * 10**_decimals */\n  tag_3\n  swap1\n    /* \"contracts/oatFINAL.sol\":4269:4280  100_000_000 */\n  0x05f5e100\n    /* \"contracts/oatFINAL.sol\":4269:4296  100_000_000 * 10**_decimals */\n  tag_4\n  jump\t// in\ntag_3:\n    /* \"contracts/oatFINAL.sol\":4440:4453  _tTotal / 100 */\n  tag_5\n  swap2\n  swap1\n  tag_6\n  jump\t// in\ntag_5:\n    /* \"contracts/oatFINAL.sol\":4410:4453  uint256 public _maxTxAmount = _tTotal / 100 */\n  0x0e\n  sstore\n    /* \"contracts/oatFINAL.sol\":4501:4504  100 */\n  0x64\n    /* \"contracts/oatFINAL.sol\":4283:4296  10**_decimals */\n  tag_7\n    /* \"contracts/oatFINAL.sol\":4226:4228  18 */\n  0x12\n    /* \"contracts/oatFINAL.sol\":4283:4285  10 */\n  0x0a\n    /* \"contracts/oatFINAL.sol\":4283:4296  10**_decimals */\n  tag_2\n  jump\t// in\ntag_7:\n    /* \"contracts/oatFINAL.sol\":4269:4296  100_000_000 * 10**_decimals */\n  tag_8\n  swap1\n    /* \"contracts/oatFINAL.sol\":4269:4280  100_000_000 */\n  0x05f5e100\n    /* \"contracts/oatFINAL.sol\":4269:4296  100_000_000 * 10**_decimals */\n  tag_4\n  jump\t// in\ntag_8:\n    /* \"contracts/oatFINAL.sol\":4491:4504  _tTotal / 100 */\n  tag_9\n  swap2\n  swap1\n  tag_6\n  jump\t// in\ntag_9:\n    /* \"contracts/oatFINAL.sol\":4459:4504  uint256 public _maxWalletSize = _tTotal / 100 */\n  0x0f\n  sstore\n    /* \"contracts/oatFINAL.sol\":4555:4559  1000 */\n  0x03e8\n    /* \"contracts/oatFINAL.sol\":4283:4296  10**_decimals */\n  tag_10\n    /* \"contracts/oatFINAL.sol\":4226:4228  18 */\n  0x12\n    /* \"contracts/oatFINAL.sol\":4283:4285  10 */\n  0x0a\n    /* \"contracts/oatFINAL.sol\":4283:4296  10**_decimals */\n  tag_2\n  jump\t// in\ntag_10:\n    /* \"contracts/oatFINAL.sol\":4269:4296  100_000_000 * 10**_decimals */\n  tag_11\n  swap1\n    /* \"contracts/oatFINAL.sol\":4269:4280  100_000_000 */\n  0x05f5e100\n    /* \"contracts/oatFINAL.sol\":4269:4296  100_000_000 * 10**_decimals */\n  tag_4\n  jump\t// in\ntag_11:\n    /* \"contracts/oatFINAL.sol\":4545:4559  _tTotal / 1000 */\n  tag_12\n  swap2\n  swap1\n  tag_6\n  jump\t// in\ntag_12:\n    /* \"contracts/oatFINAL.sol\":4510:4559  uint256 public _taxSwapThreshold = _tTotal / 1000 */\n  0x10\n  sstore\n    /* \"contracts/oatFINAL.sol\":4604:4608  1000 */\n  0x03e8\n    /* \"contracts/oatFINAL.sol\":4283:4296  10**_decimals */\n  tag_13\n    /* \"contracts/oatFINAL.sol\":4226:4228  18 */\n  0x12\n    /* \"contracts/oatFINAL.sol\":4283:4285  10 */\n  0x0a\n    /* \"contracts/oatFINAL.sol\":4283:4296  10**_decimals */\n  tag_2\n  jump\t// in\ntag_13:\n    /* \"contracts/oatFINAL.sol\":4269:4296  100_000_000 * 10**_decimals */\n  tag_14\n  swap1\n    /* \"contracts/oatFINAL.sol\":4269:4280  100_000_000 */\n  0x05f5e100\n    /* \"contracts/oatFINAL.sol\":4269:4296  100_000_000 * 10**_decimals */\n  tag_4\n  jump\t// in\ntag_14:\n    /* \"contracts/oatFINAL.sol\":4594:4608  _tTotal / 1000 */\n  tag_15\n  swap2\n  swap1\n  tag_6\n  jump\t// in\ntag_15:\n    /* \"contracts/oatFINAL.sol\":4565:4608  uint256 public _maxTaxSwap = _tTotal / 1000 */\n  0x11\n  sstore\n    /* \"contracts/oatFINAL.sol\":4728:4755  bool private inSwap = false */\n  0x13\n  dup1\n  sload\n  not(shl(0xa8, 0xffff))\n    /* \"contracts/oatFINAL.sol\":4761:4793  bool private swapEnabled = false */\n  and\n  swap1\n  sstore\n    /* \"contracts/oatFINAL.sol\":4946:5302  constructor() {... */\n  callvalue\n  dup1\n  iszero\n  tag_16\n  jumpi\n  0x00\n  dup1\n  revert\ntag_16:\n  pop\n    /* \"contracts/oatFINAL.sol\":2036:2053  address msgSender */\n  0x00\n    /* \"contracts/oatFINAL.sol\":2078:2096  _owner = msgSender */\n  dup1\n  sload\n  not(sub(shl(0xa0, 0x01), 0x01))\n  and\n    /* \"contracts/oatFINAL.sol\":1045:1055  msg.sender */\n  caller\n    /* \"contracts/oatFINAL.sol\":2078:2096  _owner = msgSender */\n  swap1\n  dup2\n  or\n  dup3\n  sstore\n    /* \"contracts/oatFINAL.sol\":2111:2154  OwnershipTransferred(address(0), msgSender) */\n  mload(0x40)\n    /* \"contracts/oatFINAL.sol\":1045:1055  msg.sender */\n  swap1\n  swap2\n  dup3\n  swap2\n    /* \"contracts/oatFINAL.sol\":2111:2154  OwnershipTransferred(address(0), msgSender) */\n  0x8be0079c531659141344cd1fd0a4f28419497f9722a3daafe3b4186f6b6457e0\n  swap1\n    /* \"contracts/oatFINAL.sol\":2036:2053  address msgSender */\n  dup3\n  swap1\n    /* \"contracts/oatFINAL.sol\":2111:2154  OwnershipTransferred(address(0), msgSender) */\n  log3\n  pop\n    /* \"contracts/oatFINAL.sol\":4970:4980  _taxWallet */\n  0x05\n    /* \"contracts/oatFINAL.sol\":4970:5004  _taxWallet = payable(_msgSender()) */\n  dup1\n  sload\n  not(sub(shl(0xa8, 0x01), 0x0100))\n  and\n  0x0100\n    /* \"contracts/oatFINAL.sol\":1045:1055  msg.sender */\n  caller\n    /* \"contracts/oatFINAL.sol\":4970:5004  _taxWallet = payable(_msgSender()) */\n  mul\n  or\n  swap1\n  sstore\n    /* \"contracts/oatFINAL.sol\":4283:4296  10**_decimals */\n  tag_24\n    /* \"contracts/oatFINAL.sol\":4226:4228  18 */\n  0x12\n    /* \"contracts/oatFINAL.sol\":4283:4285  10 */\n  0x0a\n    /* \"contracts/oatFINAL.sol\":4283:4296  10**_decimals */\n  tag_2\n  jump\t// in\ntag_24:\n    /* \"contracts/oatFINAL.sol\":4269:4296  100_000_000 * 10**_decimals */\n  tag_25\n  swap1\n    /* \"contracts/oatFINAL.sol\":4269:4280  100_000_000 */\n  0x05f5e100\n    /* \"contracts/oatFINAL.sol\":4269:4296  100_000_000 * 10**_decimals */\n  tag_4\n  jump\t// in\ntag_25:\n    /* \"contracts/oatFINAL.sol\":1045:1055  msg.sender */\n  caller\n    /* \"contracts/oatFINAL.sol\":5014:5037  _balances[_msgSender()] */\n  0x00\n  swap1\n  dup2\n  mstore\n    /* \"contracts/oatFINAL.sol\":5014:5023  _balances */\n  0x01\n    /* \"contracts/oatFINAL.sol\":5014:5037  _balances[_msgSender()] */\n  0x20\n  dup2\n  swap1\n  mstore\n  0x40\n  dup3\n  keccak256\n    /* \"contracts/oatFINAL.sol\":5014:5047  _balances[_msgSender()] = _tTotal */\n  swap3\n  swap1\n  swap3\n  sstore\n    /* \"contracts/oatFINAL.sol\":5057:5075  _isExcludedFromFee */\n  0x03\n  swap1\n    /* \"contracts/oatFINAL.sol\":5076:5083  owner() */\n  tag_27\n    /* \"contracts/oatFINAL.sol\":2205:2212  address */\n  0x00\n    /* \"contracts/oatFINAL.sol\":2231:2237  _owner */\n  sload\n  sub(shl(0xa0, 0x01), 0x01)\n  and\n  swap1\n    /* \"contracts/oatFINAL.sol\":2167:2244  function owner() public view returns (address) {... */\n  jump\n    /* \"contracts/oatFINAL.sol\":5076:5083  owner() */\ntag_27:\n  sub(shl(0xa0, 0x01), 0x01)\n    /* \"contracts/oatFINAL.sol\":5057:5084  _isExcludedFromFee[owner()] */\n  swap1\n  dup2\n  and\n  dup3\n  mstore\n  0x20\n  dup1\n  dup4\n  add\n  swap4\n  swap1\n  swap4\n  mstore\n  0x40\n  swap2\n  dup3\n  add\n  0x00\n  swap1\n  dup2\n  keccak256\n    /* \"contracts/oatFINAL.sol\":5057:5091  _isExcludedFromFee[owner()] = true */\n  dup1\n  sload\n  swap6\n  iszero\n  iszero\n  not(0xff)\n  swap7\n  dup8\n  and\n  or\n  swap1\n  sstore\n    /* \"contracts/oatFINAL.sol\":5128:5132  this */\n  address\n    /* \"contracts/oatFINAL.sol\":5101:5134  _isExcludedFromFee[address(this)] */\n  dup2\n  mstore\n    /* \"contracts/oatFINAL.sol\":5101:5119  _isExcludedFromFee */\n  0x03\n    /* \"contracts/oatFINAL.sol\":5101:5134  _isExcludedFromFee[address(this)] */\n  swap1\n  swap4\n  mstore\n  dup2\n  dup4\n  keccak256\n    /* \"contracts/oatFINAL.sol\":5101:5141  _isExcludedFromFee[address(this)] = true */\n  dup1\n  sload\n  dup6\n  and\n    /* \"contracts/oatFINAL.sol\":5057:5091  _isExcludedFromFee[owner()] = true */\n  0x01\n    /* \"contracts/oatFINAL.sol\":5101:5141  _isExcludedFromFee[address(this)] = true */\n  swap1\n  dup2\n  or\n  swap1\n  swap2\n  sstore\n    /* \"contracts/oatFINAL.sol\":5170:5180  _taxWallet */\n  sload(0x05)\n    /* \"contracts/oatFINAL.sol\":5057:5091  _isExcludedFromFee[owner()] = true */\n  0x0100\n    /* \"contracts/oatFINAL.sol\":5170:5180  _taxWallet */\n  swap1\n  div\n  swap1\n  swap2\n  and\n    /* \"contracts/oatFINAL.sol\":5151:5181  _isExcludedFromFee[_taxWallet] */\n  dup4\n  mstore\n  swap1\n  dup3\n  keccak256\n    /* \"contracts/oatFINAL.sol\":5151:5188  _isExcludedFromFee[_taxWallet] = true */\n  dup1\n  sload\n  dup5\n  and\n  dup3\n  or\n  swap1\n  sstore\n    /* \"contracts/oatFINAL.sol\":3819:3861  0x000000000000000000000000000000000000dEaD */\n  0xdead\n    /* \"contracts/oatFINAL.sol\":5198:5229  _isExcludedFromFee[DEAD_WALLET] */\n  swap1\n  swap2\n  mstore\n  0x262bb27bbdd95c1cdc8e16957e36e38579ea44f7f6413dd7a9c75939def06b2c\n    /* \"contracts/oatFINAL.sol\":5198:5236  _isExcludedFromFee[DEAD_WALLET] = true */\n  dup1\n  sload\n  swap1\n  swap3\n  and\n  or\n  swap1\n  sstore\n    /* \"contracts/oatFINAL.sol\":5273:5285  _msgSender() */\n  tag_29\n    /* \"contracts/oatFINAL.sol\":1045:1055  msg.sender */\n  caller\n  swap1\n    /* \"contracts/oatFINAL.sol\":966:1062  function _msgSender() internal view virtual returns (address) {... */\n  jump\n    /* \"contracts/oatFINAL.sol\":5273:5285  _msgSender() */\ntag_29:\n  sub(shl(0xa0, 0x01), 0x01)\n    /* \"contracts/oatFINAL.sol\":5252:5295  Transfer(address(0), _msgSender(), _tTotal) */\n  and\n    /* \"contracts/oatFINAL.sol\":5269:5270  0 */\n  0x00\n    /* \"contracts/oatFINAL.sol\":5252:5295  Transfer(address(0), _msgSender(), _tTotal) */\n  0xddf252ad1be2c89b69c2b068fc378daa952ba7f163c4a11628f55a4df523b3ef\n    /* \"contracts/oatFINAL.sol\":4283:4296  10**_decimals */\n  tag_30\n    /* \"contracts/oatFINAL.sol\":4226:4228  18 */\n  0x12\n    /* \"contracts/oatFINAL.sol\":4283:4285  10 */\n  0x0a\n    /* \"contracts/oatFINAL.sol\":4283:4296  10**_decimals */\n  tag_2\n  jump\t// in\ntag_30:\n    /* \"contracts/oatFINAL.sol\":4269:4296  100_000_000 * 10**_decimals */\n  tag_31\n  swap1\n    /* \"contracts/oatFINAL.sol\":4269:4280  100_000_000 */\n  0x05f5e100\n    /* \"contracts/oatFINAL.sol\":4269:4296  100_000_000 * 10**_decimals */\n  tag_4\n  jump\t// in\ntag_31:\n    /* \"contracts/oatFINAL.sol\":5252:5295  Transfer(address(0), _msgSender(), _tTotal) */\n  mload(0x40)\n    /* \"#utility.yul\":2070:2095   */\n  swap1\n  dup2\n  mstore\n    /* \"#utility.yul\":2058:2060   */\n  0x20\n    /* \"#utility.yul\":2043:2061   */\n  add\n    /* \"contracts/oatFINAL.sol\":5252:5295  Transfer(address(0), _msgSender(), _tTotal) */\n  mload(0x40)\n  dup1\n  swap2\n  sub\n  swap1\n  log3\n    /* \"contracts/oatFINAL.sol\":3378:12497  contract OneAnonataTime is Context, IERC20, Ownable {... */\n  jump(tag_40)\n    /* \"#utility.yul\":14:141   */\ntag_37:\n    /* \"#utility.yul\":75:85   */\n  0x4e487b71\n    /* \"#utility.yul\":70:73   */\n  0xe0\n    /* \"#utility.yul\":66:86   */\n  shl\n    /* \"#utility.yul\":63:64   */\n  0x00\n    /* \"#utility.yul\":56:87   */\n  mstore\n    /* \"#utility.yul\":106:110   */\n  0x11\n    /* \"#utility.yul\":103:104   */\n  0x04\n    /* \"#utility.yul\":96:111   */\n  mstore\n    /* \"#utility.yul\":130:134   */\n  0x24\n    /* \"#utility.yul\":127:128   */\n  0x00\n    /* \"#utility.yul\":120:135   */\n  revert\n    /* \"#utility.yul\":146:568   */\ntag_38:\n    /* \"#utility.yul\":235:236   */\n  0x01\n    /* \"#utility.yul\":278:283   */\n  dup2\n    /* \"#utility.yul\":235:236   */\n  dup2\n    /* \"#utility.yul\":292:562   */\ntag_43:\n    /* \"#utility.yul\":313:320   */\n  dup1\n    /* \"#utility.yul\":303:311   */\n  dup6\n    /* \"#utility.yul\":300:321   */\n  gt\n    /* \"#utility.yul\":292:562   */\n  iszero\n  tag_45\n  jumpi\n    /* \"#utility.yul\":372:376   */\n  dup2\n    /* \"#utility.yul\":368:369   */\n  0x00\n    /* \"#utility.yul\":364:370   */\n  not\n    /* \"#utility.yul\":360:377   */\n  div\n    /* \"#utility.yul\":354:358   */\n  dup3\n    /* \"#utility.yul\":351:378   */\n  gt\n    /* \"#utility.yul\":348:401   */\n  iszero\n  tag_47\n  jumpi\n    /* \"#utility.yul\":381:399   */\n  tag_47\n  tag_37\n  jump\t// in\ntag_47:\n    /* \"#utility.yul\":431:438   */\n  dup1\n    /* \"#utility.yul\":421:429   */\n  dup6\n    /* \"#utility.yul\":417:439   */\n  and\n    /* \"#utility.yul\":414:469   */\n  iszero\n  tag_48\n  jumpi\n    /* \"#utility.yul\":451:467   */\n  swap2\n  dup2\n  mul\n  swap2\n    /* \"#utility.yul\":414:469   */\ntag_48:\n    /* \"#utility.yul\":530:552   */\n  swap4\n  dup5\n  shr\n  swap4\n    /* \"#utility.yul\":490:505   */\n  swap1\n  dup1\n  mul\n  swap1\n    /* \"#utility.yul\":292:562   */\n  jump(tag_43)\ntag_45:\n    /* \"#utility.yul\":296:299   */\n  pop\n    /* \"#utility.yul\":146:568   */\n  swap3\n  pop\n  swap3\n  swap1\n  pop\n  jump\t// out\n    /* \"#utility.yul\":573:1379   */\ntag_39:\n    /* \"#utility.yul\":622:627   */\n  0x00\n    /* \"#utility.yul\":652:660   */\n  dup3\n    /* \"#utility.yul\":642:722   */\n  tag_50\n  jumpi\n  pop\n    /* \"#utility.yul\":693:694   */\n  0x01\n    /* \"#utility.yul\":707:712   */\n  jump(tag_49)\n    /* \"#utility.yul\":642:722   */\ntag_50:\n    /* \"#utility.yul\":741:745   */\n  dup2\n    /* \"#utility.yul\":731:807   */\n  tag_51\n  jumpi\n  pop\n    /* \"#utility.yul\":778:779   */\n  0x00\n    /* \"#utility.yul\":792:797   */\n  jump(tag_49)\n    /* \"#utility.yul\":731:807   */\ntag_51:\n    /* \"#utility.yul\":823:827   */\n  dup2\n    /* \"#utility.yul\":841:842   */\n  0x01\n    /* \"#utility.yul\":836:895   */\n  dup2\n  eq\n  tag_53\n  jumpi\n    /* \"#utility.yul\":909:910   */\n  0x02\n    /* \"#utility.yul\":904:1034   */\n  dup2\n  eq\n  tag_54\n  jumpi\n    /* \"#utility.yul\":816:1034   */\n  jump(tag_52)\n    /* \"#utility.yul\":836:895   */\ntag_53:\n    /* \"#utility.yul\":866:867   */\n  0x01\n    /* \"#utility.yul\":857:867   */\n  swap2\n  pop\n    /* \"#utility.yul\":880:885   */\n  pop\n  jump(tag_49)\n    /* \"#utility.yul\":904:1034   */\ntag_54:\n    /* \"#utility.yul\":941:944   */\n  0xff\n    /* \"#utility.yul\":931:939   */\n  dup5\n    /* \"#utility.yul\":928:945   */\n  gt\n    /* \"#utility.yul\":925:968   */\n  iszero\n  tag_56\n  jumpi\n    /* \"#utility.yul\":948:966   */\n  tag_56\n  tag_37\n  jump\t// in\ntag_56:\n  pop\n  pop\n    /* \"#utility.yul\":1004:1005   */\n  0x01\n    /* \"#utility.yul\":990:1006   */\n  dup3\n  shl\n    /* \"#utility.yul\":1019:1024   */\n  jump(tag_49)\n    /* \"#utility.yul\":816:1034   */\ntag_52:\n  pop\n    /* \"#utility.yul\":1118:1120   */\n  0x20\n    /* \"#utility.yul\":1108:1116   */\n  dup4\n    /* \"#utility.yul\":1105:1121   */\n  lt\n    /* \"#utility.yul\":1099:1102   */\n  0x0133\n    /* \"#utility.yul\":1093:1097   */\n  dup4\n    /* \"#utility.yul\":1090:1103   */\n  lt\n    /* \"#utility.yul\":1086:1122   */\n  and\n    /* \"#utility.yul\":1080:1082   */\n  0x4e\n    /* \"#utility.yul\":1070:1078   */\n  dup5\n    /* \"#utility.yul\":1067:1083   */\n  lt\n    /* \"#utility.yul\":1062:1064   */\n  0x0b\n    /* \"#utility.yul\":1056:1060   */\n  dup5\n    /* \"#utility.yul\":1053:1065   */\n  lt\n    /* \"#utility.yul\":1049:1084   */\n  and\n    /* \"#utility.yul\":1046:1123   */\n  or\n    /* \"#utility.yul\":1043:1202   */\n  iszero\n  tag_57\n  jumpi\n  pop\n    /* \"#utility.yul\":1155:1174   */\n  dup2\n  dup2\n  exp\n    /* \"#utility.yul\":1187:1192   */\n  jump(tag_49)\n    /* \"#utility.yul\":1043:1202   */\ntag_57:\n    /* \"#utility.yul\":1234:1268   */\n  tag_58\n    /* \"#utility.yul\":1259:1267   */\n  dup4\n    /* \"#utility.yul\":1253:1257   */\n  dup4\n    /* \"#utility.yul\":1234:1268   */\n  tag_38\n  jump\t// in\ntag_58:\n    /* \"#utility.yul\":1304:1310   */\n  dup1\n    /* \"#utility.yul\":1300:1301   */\n  0x00\n    /* \"#utility.yul\":1296:1302   */\n  not\n    /* \"#utility.yul\":1292:1311   */\n  div\n    /* \"#utility.yul\":1283:1290   */\n  dup3\n    /* \"#utility.yul\":1280:1312   */\n  gt\n    /* \"#utility.yul\":1277:1335   */\n  iszero\n  tag_60\n  jumpi\n    /* \"#utility.yul\":1315:1333   */\n  tag_60\n  tag_37\n  jump\t// in\ntag_60:\n    /* \"#utility.yul\":1353:1373   */\n  mul\n  swap1\n  pop\n    /* \"#utility.yul\":573:1379   */\ntag_49:\n  swap3\n  swap2\n  pop\n  pop\n  jump\t// out\n    /* \"#utility.yul\":1384:1524   */\ntag_2:\n    /* \"#utility.yul\":1442:1447   */\n  0x00\n    /* \"#utility.yul\":1471:1518   */\n  tag_62\n    /* \"#utility.yul\":1512:1516   */\n  0xff\n    /* \"#utility.yul\":1502:1510   */\n  dup5\n    /* \"#utility.yul\":1498:1517   */\n  and\n    /* \"#utility.yul\":1492:1496   */\n  dup4\n    /* \"#utility.yul\":1471:1518   */\n  tag_39\n  jump\t// in\ntag_62:\n    /* \"#utility.yul\":1462:1518   */\n  swap4\n    /* \"#utility.yul\":1384:1524   */\n  swap3\n  pop\n  pop\n  pop\n  jump\t// out\n    /* \"#utility.yul\":1529:1697   */\ntag_4:\n    /* \"#utility.yul\":1569:1576   */\n  0x00\n    /* \"#utility.yul\":1635:1636   */\n  dup2\n    /* \"#utility.yul\":1631:1632   */\n  0x00\n    /* \"#utility.yul\":1627:1633   */\n  not\n    /* \"#utility.yul\":1623:1637   */\n  div\n    /* \"#utility.yul\":1620:1621   */\n  dup4\n    /* \"#utility.yul\":1617:1638   */\n  gt\n    /* \"#utility.yul\":1612:1613   */\n  dup3\n    /* \"#utility.yul\":1605:1614   */\n  iszero\n    /* \"#utility.yul\":1598:1615   */\n  iszero\n    /* \"#utility.yul\":1594:1639   */\n  and\n    /* \"#utility.yul\":1591:1662   */\n  iszero\n  tag_65\n  jumpi\n    /* \"#utility.yul\":1642:1660   */\n  tag_65\n  tag_37\n  jump\t// in\ntag_65:\n  pop\n    /* \"#utility.yul\":1682:1691   */\n  mul\n  swap1\n    /* \"#utility.yul\":1529:1697   */\n  jump\t// out\n    /* \"#utility.yul\":1702:1919   */\ntag_6:\n    /* \"#utility.yul\":1742:1743   */\n  0x00\n    /* \"#utility.yul\":1768:1769   */\n  dup3\n    /* \"#utility.yul\":1758:1890   */\n  tag_67\n  jumpi\n    /* \"#utility.yul\":1812:1822   */\n  0x4e487b71\n    /* \"#utility.yul\":1807:1810   */\n  0xe0\n    /* \"#utility.yul\":1803:1823   */\n  shl\n    /* \"#utility.yul\":1800:1801   */\n  0x00\n    /* \"#utility.yul\":1793:1824   */\n  mstore\n    /* \"#utility.yul\":1847:1851   */\n  0x12\n    /* \"#utility.yul\":1844:1845   */\n  0x04\n    /* \"#utility.yul\":1837:1852   */\n  mstore\n    /* \"#utility.yul\":1875:1879   */\n  0x24\n    /* \"#utility.yul\":1872:1873   */\n  0x00\n    /* \"#utility.yul\":1865:1880   */\n  revert\n    /* \"#utility.yul\":1758:1890   */\ntag_67:\n  pop\n    /* \"#utility.yul\":1904:1913   */\n  div\n  swap1\n    /* \"#utility.yul\":1702:1919   */\n  jump\t// out\n    /* \"#utility.yul\":1924:2101   */\ntag_40:\n    /* \"contracts/oatFINAL.sol\":3378:12497  contract OneAnonataTime is Context, IERC20, Ownable {... */\n  dataSize(sub_0)\n  dup1\n  dataOffset(sub_0)\n  0x00\n  codecopy\n  0x00\n  return\nstop\n\nsub_0: assembly {\n        /* \"contracts/oatFINAL.sol\":3378:12497  contract OneAnonataTime is Context, IERC20, Ownable {... */\n      mstore(0x40, 0x80)\n      jumpi(tag_1, lt(calldatasize, 0x04))\n      shr(0xe0, calldataload(0x00))\n      dup1\n      0x715018a6\n      gt\n      tag_26\n      jumpi\n      dup1\n      0xa01c3483\n      gt\n      tag_27\n      jumpi\n      dup1\n      0xa01c3483\n      eq\n      tag_20\n      jumpi\n      dup1\n      0xa9059cbb\n      eq\n      tag_21\n      jumpi\n      dup1\n      0xbf474bed\n      eq\n      tag_22\n      jumpi\n      dup1\n      0xc36956a0\n      eq\n      tag_23\n      jumpi\n      dup1\n      0xc876d0b9\n      eq\n      tag_24\n      jumpi\n      dup1\n      0xdd62ed3e\n      eq\n      tag_25\n      jumpi\n      0x00\n      dup1\n      revert\n    tag_27:\n      dup1\n      0x715018a6\n      eq\n      tag_14\n      jumpi\n      dup1\n      0x751039fc\n      eq\n      tag_15\n      jumpi\n      dup1\n      0x7d1db4a5\n      eq\n      tag_16\n      jumpi\n      dup1\n      0x8da5cb5b\n      eq\n      tag_17\n      jumpi\n      dup1\n      0x8f9a55c0\n      eq\n      tag_18\n      jumpi\n      dup1\n      0x95d89b41\n      eq\n      tag_19\n      jumpi\n      0x00\n      dup1\n      revert\n    tag_26:\n      dup1\n      0x0faee56f\n      gt\n      tag_28\n      jumpi\n      dup1\n      0x0faee56f\n      eq\n      tag_8\n      jumpi\n      dup1\n      0x18160ddd\n      eq\n      tag_9\n      jumpi\n      dup1\n      0x23b872dd\n      eq\n      tag_10\n      jumpi\n      dup1\n      0x313ce567\n      eq\n      tag_11\n      jumpi\n      dup1\n      0x51bc3c85\n      eq\n      tag_12\n      jumpi\n      dup1\n      0x70a08231\n      eq\n      tag_13\n      jumpi\n      0x00\n      dup1\n      revert\n    tag_28:\n      dup1\n      0x02ac8168\n      eq\n      tag_3\n      jumpi\n      dup1\n      0x06fdde03\n      eq\n      tag_4\n      jumpi\n      dup1\n      0x095ea7b3\n      eq\n      tag_5\n      jumpi\n      dup1\n      0x0c193045\n      eq\n      tag_6\n      jumpi\n      dup1\n      0x0ce5fd36\n      eq\n      tag_7\n      jumpi\n      0x00\n      dup1\n      revert\n    tag_1:\n      jumpi(tag_2, calldatasize)\n      stop\n    tag_2:\n      0x00\n      dup1\n      revert\n        /* \"contracts/oatFINAL.sol\":11262:12098  function Launch() external onlyOwner {... */\n    tag_3:\n      callvalue\n      dup1\n      iszero\n      tag_31\n      jumpi\n      0x00\n      dup1\n      revert\n    tag_31:\n      pop\n      tag_32\n      tag_33\n      jump\t// in\n    tag_32:\n      stop\n        /* \"contracts/oatFINAL.sol\":5308:5389  function name() public pure returns (string memory) {... */\n    tag_4:\n      callvalue\n      dup1\n      iszero\n      tag_34\n      jumpi\n      0x00\n      dup1\n      revert\n    tag_34:\n      pop\n        /* \"contracts/oatFINAL.sol\":5377:5382  _name */\n      0x40\n      dup1\n      mload\n      dup1\n      dup3\n      add\n      swap1\n      swap2\n      mstore\n      0x08\n      dup2\n      mstore\n      shl(0xc1, 0x27b7329020b737b7)\n      0x20\n      dup3\n      add\n      mstore\n        /* \"contracts/oatFINAL.sol\":5308:5389  function name() public pure returns (string memory) {... */\n    tag_35:\n      mload(0x40)\n      tag_37\n      swap2\n      swap1\n      tag_38\n      jump\t// in\n    tag_37:\n      mload(0x40)\n      dup1\n      swap2\n      sub\n      swap1\n      return\n        /* \"contracts/oatFINAL.sol\":6176:6362  function approve(address spender, uint256 amount)... */\n    tag_5:\n      callvalue\n      dup1\n      iszero\n      tag_39\n      jumpi\n      0x00\n      dup1\n      revert\n    tag_39:\n      pop\n      tag_40\n      tag_41\n      calldatasize\n      0x04\n      tag_42\n      jump\t// in\n    tag_41:\n      tag_43\n      jump\t// in\n    tag_40:\n      mload(0x40)\n        /* \"#utility.yul\":1237:1251   */\n      swap1\n      iszero\n        /* \"#utility.yul\":1230:1252   */\n      iszero\n        /* \"#utility.yul\":1212:1253   */\n      dup2\n      mstore\n        /* \"#utility.yul\":1200:1202   */\n      0x20\n        /* \"#utility.yul\":1185:1203   */\n      add\n        /* \"contracts/oatFINAL.sol\":6176:6362  function approve(address spender, uint256 amount)... */\n      tag_37\n        /* \"#utility.yul\":1072:1259   */\n      jump\n        /* \"contracts/oatFINAL.sol\":4027:4062  uint256 public _reduceBuyTaxAt = 15 */\n    tag_6:\n      callvalue\n      dup1\n      iszero\n      tag_46\n      jumpi\n      0x00\n      dup1\n      revert\n    tag_46:\n      pop\n      tag_47\n      sload(0x0a)\n      dup2\n      jump\n    tag_47:\n      mload(0x40)\n        /* \"#utility.yul\":1410:1435   */\n      swap1\n      dup2\n      mstore\n        /* \"#utility.yul\":1398:1400   */\n      0x20\n        /* \"#utility.yul\":1383:1401   */\n      add\n        /* \"contracts/oatFINAL.sol\":4027:4062  uint256 public _reduceBuyTaxAt = 15 */\n      tag_37\n        /* \"#utility.yul\":1264:1441   */\n      jump\n        /* \"contracts/oatFINAL.sol\":11110:11256  function changeSwapAmount(uint256 amount) external onlyOwner {... */\n    tag_7:\n      callvalue\n      dup1\n      iszero\n      tag_51\n      jumpi\n      0x00\n      dup1\n      revert\n    tag_51:\n      pop\n      tag_32\n      tag_53\n      calldatasize\n      0x04\n      tag_54\n      jump\t// in\n    tag_53:\n      tag_55\n      jump\t// in\n        /* \"contracts/oatFINAL.sol\":4565:4608  uint256 public _maxTaxSwap = _tTotal / 1000 */\n    tag_8:\n      callvalue\n      dup1\n      iszero\n      tag_56\n      jumpi\n      0x00\n      dup1\n      revert\n    tag_56:\n      pop\n      tag_47\n      sload(0x11)\n      dup2\n      jump\n        /* \"contracts/oatFINAL.sol\":5573:5666  function totalSupply() public pure override returns (uint256) {... */\n    tag_9:\n      callvalue\n      dup1\n      iszero\n      tag_60\n      jumpi\n      0x00\n      dup1\n      revert\n    tag_60:\n      pop\n      tag_47\n      tag_62\n      jump\t// in\n        /* \"contracts/oatFINAL.sol\":6368:6706  function transferFrom(... */\n    tag_10:\n      callvalue\n      dup1\n      iszero\n      tag_64\n      jumpi\n      0x00\n      dup1\n      revert\n    tag_64:\n      pop\n      tag_40\n      tag_66\n      calldatasize\n      0x04\n      tag_67\n      jump\t// in\n    tag_66:\n      tag_68\n      jump\t// in\n        /* \"contracts/oatFINAL.sol\":5486:5567  function decimals() public pure returns (uint8) {... */\n    tag_11:\n      callvalue\n      dup1\n      iszero\n      tag_70\n      jumpi\n      0x00\n      dup1\n      revert\n    tag_70:\n      pop\n      mload(0x40)\n        /* \"contracts/oatFINAL.sol\":4226:4228  18 */\n      0x12\n        /* \"#utility.yul\":2234:2270   */\n      dup2\n      mstore\n        /* \"#utility.yul\":2222:2224   */\n      0x20\n        /* \"#utility.yul\":2207:2225   */\n      add\n        /* \"contracts/oatFINAL.sol\":5486:5567  function decimals() public pure returns (uint8) {... */\n      tag_37\n        /* \"#utility.yul\":2092:2276   */\n      jump\n        /* \"contracts/oatFINAL.sol\":12139:12495  function manualSwap() external {... */\n    tag_12:\n      callvalue\n      dup1\n      iszero\n      tag_75\n      jumpi\n      0x00\n      dup1\n      revert\n    tag_75:\n      pop\n      tag_32\n      tag_77\n      jump\t// in\n        /* \"contracts/oatFINAL.sol\":5672:5789  function balanceOf(address account) public view override returns (uint256) {... */\n    tag_13:\n      callvalue\n      dup1\n      iszero\n      tag_78\n      jumpi\n      0x00\n      dup1\n      revert\n    tag_78:\n      pop\n      tag_47\n      tag_80\n      calldatasize\n      0x04\n      tag_81\n      jump\t// in\n    tag_80:\n      sub(shl(0xa0, 0x01), 0x01)\n        /* \"contracts/oatFINAL.sol\":5764:5782  _balances[account] */\n      and\n        /* \"contracts/oatFINAL.sol\":5738:5745  uint256 */\n      0x00\n        /* \"contracts/oatFINAL.sol\":5764:5782  _balances[account] */\n      swap1\n      dup2\n      mstore\n        /* \"contracts/oatFINAL.sol\":5764:5773  _balances */\n      0x01\n        /* \"contracts/oatFINAL.sol\":5764:5782  _balances[account] */\n      0x20\n      mstore\n      0x40\n      swap1\n      keccak256\n      sload\n      swap1\n        /* \"contracts/oatFINAL.sol\":5672:5789  function balanceOf(address account) public view override returns (uint256) {... */\n      jump\n        /* \"contracts/oatFINAL.sol\":2372:2517  function renounceOwnership() public virtual onlyOwner {... */\n    tag_14:\n      callvalue\n      dup1\n      iszero\n      tag_84\n      jumpi\n      0x00\n      dup1\n      revert\n    tag_84:\n      pop\n      tag_32\n      tag_86\n      jump\t// in\n        /* \"contracts/oatFINAL.sol\":10753:11008  function removeLimits() external onlyOwner {... */\n    tag_15:\n      callvalue\n      dup1\n      iszero\n      tag_87\n      jumpi\n      0x00\n      dup1\n      revert\n    tag_87:\n      pop\n      tag_32\n      tag_89\n      jump\t// in\n        /* \"contracts/oatFINAL.sol\":4410:4453  uint256 public _maxTxAmount = _tTotal / 100 */\n    tag_16:\n      callvalue\n      dup1\n      iszero\n      tag_90\n      jumpi\n      0x00\n      dup1\n      revert\n    tag_90:\n      pop\n      tag_47\n      sload(0x0e)\n      dup2\n      jump\n        /* \"contracts/oatFINAL.sol\":2167:2244  function owner() public view returns (address) {... */\n    tag_17:\n      callvalue\n      dup1\n      iszero\n      tag_94\n      jumpi\n      0x00\n      dup1\n      revert\n    tag_94:\n      pop\n        /* \"contracts/oatFINAL.sol\":2205:2212  address */\n      0x00\n        /* \"contracts/oatFINAL.sol\":2231:2237  _owner */\n      sload\n      sub(shl(0xa0, 0x01), 0x01)\n      and\n        /* \"contracts/oatFINAL.sol\":2167:2244  function owner() public view returns (address) {... */\n    tag_95:\n      mload(0x40)\n      sub(shl(0xa0, 0x01), 0x01)\n        /* \"#utility.yul\":2697:2729   */\n      swap1\n      swap2\n      and\n        /* \"#utility.yul\":2679:2730   */\n      dup2\n      mstore\n        /* \"#utility.yul\":2667:2669   */\n      0x20\n        /* \"#utility.yul\":2652:2670   */\n      add\n        /* \"contracts/oatFINAL.sol\":2167:2244  function owner() public view returns (address) {... */\n      tag_37\n        /* \"#utility.yul\":2533:2736   */\n      jump\n        /* \"contracts/oatFINAL.sol\":4459:4504  uint256 public _maxWalletSize = _tTotal / 100 */\n    tag_18:\n      callvalue\n      dup1\n      iszero\n      tag_99\n      jumpi\n      0x00\n      dup1\n      revert\n    tag_99:\n      pop\n      tag_47\n      sload(0x0f)\n      dup2\n      jump\n        /* \"contracts/oatFINAL.sol\":5395:5480  function symbol() public pure returns (string memory) {... */\n    tag_19:\n      callvalue\n      dup1\n      iszero\n      tag_103\n      jumpi\n      0x00\n      dup1\n      revert\n    tag_103:\n      pop\n        /* \"contracts/oatFINAL.sol\":5466:5473  _symbol */\n      0x40\n      dup1\n      mload\n      dup1\n      dup3\n      add\n      swap1\n      swap2\n      mstore\n      0x04\n      dup2\n      mstore\n      shl(0xe2, 0x0913d055)\n      0x20\n      dup3\n      add\n      mstore\n        /* \"contracts/oatFINAL.sol\":5395:5480  function symbol() public pure returns (string memory) {... */\n      jump(tag_35)\n        /* \"contracts/oatFINAL.sol\":3773:3861  address public constant DEAD_WALLET =... */\n    tag_20:\n      callvalue\n      dup1\n      iszero\n      tag_107\n      jumpi\n      0x00\n      dup1\n      revert\n    tag_107:\n      pop\n      tag_95\n        /* \"contracts/oatFINAL.sol\":3819:3861  0x000000000000000000000000000000000000dEaD */\n      0xdead\n        /* \"contracts/oatFINAL.sol\":3773:3861  address public constant DEAD_WALLET =... */\n      dup2\n      jump\n        /* \"contracts/oatFINAL.sol\":5795:5987  function transfer(address recipient, uint256 amount)... */\n    tag_21:\n      callvalue\n      dup1\n      iszero\n      tag_111\n      jumpi\n      0x00\n      dup1\n      revert\n    tag_111:\n      pop\n      tag_40\n      tag_113\n      calldatasize\n      0x04\n      tag_42\n      jump\t// in\n    tag_113:\n      tag_114\n      jump\t// in\n        /* \"contracts/oatFINAL.sol\":4510:4559  uint256 public _taxSwapThreshold = _tTotal / 1000 */\n    tag_22:\n      callvalue\n      dup1\n      iszero\n      tag_116\n      jumpi\n      0x00\n      dup1\n      revert\n    tag_116:\n      pop\n      tag_47\n      sload(0x10)\n      dup2\n      jump\n        /* \"contracts/oatFINAL.sol\":4068:4104  uint256 public _reduceSellTaxAt = 25 */\n    tag_23:\n      callvalue\n      dup1\n      iszero\n      tag_120\n      jumpi\n      0x00\n      dup1\n      revert\n    tag_120:\n      pop\n      tag_47\n      sload(0x0b)\n      dup2\n      jump\n        /* \"contracts/oatFINAL.sol\":3687:3727  bool public transferDelayEnabled = false */\n    tag_24:\n      callvalue\n      dup1\n      iszero\n      tag_124\n      jumpi\n      0x00\n      dup1\n      revert\n    tag_124:\n      pop\n      sload(0x05)\n      tag_40\n      swap1\n      0xff\n      and\n      dup2\n      jump\n        /* \"contracts/oatFINAL.sol\":5993:6170  function allowance(address owner, address spender)... */\n    tag_25:\n      callvalue\n      dup1\n      iszero\n      tag_128\n      jumpi\n      0x00\n      dup1\n      revert\n    tag_128:\n      pop\n      tag_47\n      tag_130\n      calldatasize\n      0x04\n      tag_131\n      jump\t// in\n    tag_130:\n      sub(shl(0xa0, 0x01), 0x01)\n        /* \"contracts/oatFINAL.sol\":6136:6154  _allowances[owner] */\n      swap2\n      dup3\n      and\n        /* \"contracts/oatFINAL.sol\":6106:6113  uint256 */\n      0x00\n        /* \"contracts/oatFINAL.sol\":6136:6154  _allowances[owner] */\n      swap1\n      dup2\n      mstore\n        /* \"contracts/oatFINAL.sol\":6136:6147  _allowances */\n      0x02\n        /* \"contracts/oatFINAL.sol\":6136:6154  _allowances[owner] */\n      0x20\n      swap1\n      dup2\n      mstore\n      0x40\n      dup1\n      dup4\n      keccak256\n        /* \"contracts/oatFINAL.sol\":6136:6163  _allowances[owner][spender] */\n      swap4\n      swap1\n      swap5\n      and\n      dup3\n      mstore\n      swap2\n      swap1\n      swap2\n      mstore\n      keccak256\n      sload\n      swap1\n        /* \"contracts/oatFINAL.sol\":5993:6170  function allowance(address owner, address spender)... */\n      jump\n        /* \"contracts/oatFINAL.sol\":11262:12098  function Launch() external onlyOwner {... */\n    tag_33:\n        /* \"contracts/oatFINAL.sol\":2289:2295  _owner */\n      and(sub(shl(0xa0, 0x01), 0x01), sload(0x00))\n        /* \"contracts/oatFINAL.sol\":1045:1055  msg.sender */\n      caller\n        /* \"contracts/oatFINAL.sol\":2289:2311  _owner == _msgSender() */\n      eq\n        /* \"contracts/oatFINAL.sol\":2281:2348  require(_owner == _msgSender(), \"Ownable: caller is not the owner\") */\n      tag_137\n      jumpi\n      mload(0x40)\n      shl(0xe5, 0x461bcd)\n      dup2\n      mstore\n      0x04\n      add\n      tag_138\n      swap1\n      tag_139\n      jump\t// in\n    tag_138:\n      mload(0x40)\n      dup1\n      swap2\n      sub\n      swap1\n      revert\n    tag_137:\n        /* \"contracts/oatFINAL.sol\":11318:11329  tradingOpen */\n      sload(0x13)\n      shl(0xa0, 0x01)\n      swap1\n      div\n      0xff\n      and\n        /* \"contracts/oatFINAL.sol\":11317:11329  !tradingOpen */\n      iszero\n        /* \"contracts/oatFINAL.sol\":11309:11357  require(!tradingOpen, \"trading is already open\") */\n      tag_141\n      jumpi\n      mload(0x40)\n      shl(0xe5, 0x461bcd)\n      dup2\n      mstore\n        /* \"#utility.yul\":3697:3699   */\n      0x20\n        /* \"contracts/oatFINAL.sol\":11309:11357  require(!tradingOpen, \"trading is already open\") */\n      0x04\n      dup3\n      add\n        /* \"#utility.yul\":3679:3700   */\n      mstore\n        /* \"#utility.yul\":3736:3738   */\n      0x17\n        /* \"#utility.yul\":3716:3734   */\n      0x24\n      dup3\n      add\n        /* \"#utility.yul\":3709:3739   */\n      mstore\n        /* \"#utility.yul\":3775:3800   */\n      0x74726164696e6720697320616c7265616479206f70656e000000000000000000\n        /* \"#utility.yul\":3755:3773   */\n      0x44\n      dup3\n      add\n        /* \"#utility.yul\":3748:3801   */\n      mstore\n        /* \"#utility.yul\":3818:3836   */\n      0x64\n      add\n        /* \"contracts/oatFINAL.sol\":11309:11357  require(!tradingOpen, \"trading is already open\") */\n      tag_138\n        /* \"#utility.yul\":3495:3842   */\n      jump\n        /* \"contracts/oatFINAL.sol\":11309:11357  require(!tradingOpen, \"trading is already open\") */\n    tag_141:\n        /* \"contracts/oatFINAL.sol\":11367:11382  uniswapV2Router */\n      0x12\n        /* \"contracts/oatFINAL.sol\":11367:11469  uniswapV2Router = IUniswapV2Router02(... */\n      dup1\n      sload\n      not(sub(shl(0xa0, 0x01), 0x01))\n      and\n        /* \"contracts/oatFINAL.sol\":11417:11459  0x7a250d5630B4cF539739dF2C5dAcb4c659F2488D */\n      0x7a250d5630b4cf539739df2c5dacb4c659f2488d\n        /* \"contracts/oatFINAL.sol\":11367:11469  uniswapV2Router = IUniswapV2Router02(... */\n      swap1\n      dup2\n      or\n      dup3\n      sstore\n        /* \"contracts/oatFINAL.sol\":11479:11537  _approve(address(this), address(uniswapV2Router), _tTotal) */\n      tag_144\n      swap2\n        /* \"contracts/oatFINAL.sol\":11496:11500  this */\n      address\n      swap2\n        /* \"contracts/oatFINAL.sol\":11417:11459  0x7a250d5630B4cF539739dF2C5dAcb4c659F2488D */\n      swap1\n        /* \"contracts/oatFINAL.sol\":4283:4296  10**_decimals */\n      tag_145\n      swap1\n        /* \"contracts/oatFINAL.sol\":4283:4285  10 */\n      0x0a\n        /* \"contracts/oatFINAL.sol\":4283:4296  10**_decimals */\n      tag_146\n      jump\t// in\n    tag_145:\n        /* \"contracts/oatFINAL.sol\":4269:4296  100_000_000 * 10**_decimals */\n      tag_147\n      swap1\n        /* \"contracts/oatFINAL.sol\":4269:4280  100_000_000 */\n      0x05f5e100\n        /* \"contracts/oatFINAL.sol\":4269:4296  100_000_000 * 10**_decimals */\n      tag_148\n      jump\t// in\n    tag_147:\n        /* \"contracts/oatFINAL.sol\":11479:11487  _approve */\n      tag_149\n        /* \"contracts/oatFINAL.sol\":11479:11537  _approve(address(this), address(uniswapV2Router), _tTotal) */\n      jump\t// in\n    tag_144:\n        /* \"contracts/oatFINAL.sol\":11581:11596  uniswapV2Router */\n      0x12\n      0x00\n      swap1\n      sload\n      swap1\n      0x0100\n      exp\n      swap1\n      div\n      sub(shl(0xa0, 0x01), 0x01)\n      and\n      sub(shl(0xa0, 0x01), 0x01)\n        /* \"contracts/oatFINAL.sol\":11581:11604  uniswapV2Router.factory */\n      and\n      0xc45a0155\n        /* \"contracts/oatFINAL.sol\":11581:11606  uniswapV2Router.factory() */\n      mload(0x40)\n      dup2\n      0xffffffff\n      and\n      0xe0\n      shl\n      dup2\n      mstore\n      0x04\n      add\n      0x20\n      mload(0x40)\n      dup1\n      dup4\n      sub\n      dup2\n      dup7\n      gas\n      staticcall\n      iszero\n      dup1\n      iszero\n      tag_151\n      jumpi\n      returndatasize\n      0x00\n      dup1\n      returndatacopy\n      revert(0x00, returndatasize)\n    tag_151:\n      pop\n      pop\n      pop\n      pop\n      mload(0x40)\n      returndatasize\n      not(0x1f)\n      0x1f\n      dup3\n      add\n      and\n      dup3\n      add\n      dup1\n      0x40\n      mstore\n      pop\n      dup2\n      add\n      swap1\n      tag_152\n      swap2\n      swap1\n      tag_153\n      jump\t// in\n    tag_152:\n      sub(shl(0xa0, 0x01), 0x01)\n        /* \"contracts/oatFINAL.sol\":11563:11618  IUniswapV2Factory(uniswapV2Router.factory()).createPair */\n      and\n      0xc9c65396\n        /* \"contracts/oatFINAL.sol\":11640:11644  this */\n      address\n        /* \"contracts/oatFINAL.sol\":11659:11674  uniswapV2Router */\n      0x12\n      0x00\n      swap1\n      sload\n      swap1\n      0x0100\n      exp\n      swap1\n      div\n      sub(shl(0xa0, 0x01), 0x01)\n      and\n      sub(shl(0xa0, 0x01), 0x01)\n        /* \"contracts/oatFINAL.sol\":11659:11679  uniswapV2Router.WETH */\n      and\n      0xad5c4648\n        /* \"contracts/oatFINAL.sol\":11659:11681  uniswapV2Router.WETH() */\n      mload(0x40)\n      dup2\n      0xffffffff\n      and\n      0xe0\n      shl\n      dup2\n      mstore\n      0x04\n      add\n      0x20\n      mload(0x40)\n      dup1\n      dup4\n      sub\n      dup2\n      dup7\n      gas\n      staticcall\n      iszero\n      dup1\n      iszero\n      tag_155\n      jumpi\n      returndatasize\n      0x00\n      dup1\n      returndatacopy\n      revert(0x00, returndatasize)\n    tag_155:\n      pop\n      pop\n      pop\n      pop\n      mload(0x40)\n      returndatasize\n      not(0x1f)\n      0x1f\n      dup3\n      add\n      and\n      dup3\n      add\n      dup1\n      0x40\n      mstore\n      pop\n      dup2\n      add\n      swap1\n      tag_156\n      swap2\n      swap1\n      tag_153\n      jump\t// in\n    tag_156:\n        /* \"contracts/oatFINAL.sol\":11563:11691  IUniswapV2Factory(uniswapV2Router.factory()).createPair(... */\n      mload(0x40)\n      not(sub(shl(0xe0, 0x01), 0x01))\n      0xe0\n      dup6\n      swap1\n      shl\n      and\n      dup2\n      mstore\n      sub(shl(0xa0, 0x01), 0x01)\n        /* \"#utility.yul\":6021:6036   */\n      swap3\n      dup4\n      and\n        /* \"contracts/oatFINAL.sol\":11563:11691  IUniswapV2Factory(uniswapV2Router.factory()).createPair(... */\n      0x04\n      dup3\n      add\n        /* \"#utility.yul\":6003:6037   */\n      mstore\n        /* \"#utility.yul\":6073:6088   */\n      swap2\n      and\n        /* \"#utility.yul\":6053:6071   */\n      0x24\n      dup3\n      add\n        /* \"#utility.yul\":6046:6089   */\n      mstore\n        /* \"#utility.yul\":5938:5956   */\n      0x44\n      add\n        /* \"contracts/oatFINAL.sol\":11563:11691  IUniswapV2Factory(uniswapV2Router.factory()).createPair(... */\n      0x20\n      mload(0x40)\n      dup1\n      dup4\n      sub\n      dup2\n      0x00\n      dup8\n      gas\n      call\n      iszero\n      dup1\n      iszero\n      tag_160\n      jumpi\n      returndatasize\n      0x00\n      dup1\n      returndatacopy\n      revert(0x00, returndatasize)\n    tag_160:\n      pop\n      pop\n      pop\n      pop\n      mload(0x40)\n      returndatasize\n      not(0x1f)\n      0x1f\n      dup3\n      add\n      and\n      dup3\n      add\n      dup1\n      0x40\n      mstore\n      pop\n      dup2\n      add\n      swap1\n      tag_161\n      swap2\n      swap1\n      tag_153\n      jump\t// in\n    tag_161:\n        /* \"contracts/oatFINAL.sol\":11547:11560  uniswapV2Pair */\n      0x13\n        /* \"contracts/oatFINAL.sol\":11547:11691  uniswapV2Pair = IUniswapV2Factory(uniswapV2Router.factory()).createPair(... */\n      dup1\n      sload\n      sub(shl(0xa0, 0x01), 0x01)\n      swap3\n      dup4\n      and\n      not(sub(shl(0xa0, 0x01), 0x01))\n      swap1\n      swap2\n      and\n      or\n      swap1\n      sstore\n        /* \"contracts/oatFINAL.sol\":11701:11716  uniswapV2Router */\n      sload(0x12)\n      and\n        /* \"contracts/oatFINAL.sol\":11701:11732  uniswapV2Router.addLiquidityETH */\n      0xf305d719\n        /* \"contracts/oatFINAL.sol\":11740:11761  address(this).balance */\n      selfbalance\n        /* \"contracts/oatFINAL.sol\":11784:11788  this */\n      address\n        /* \"contracts/oatFINAL.sol\":11803:11827  balanceOf(address(this)) */\n      tag_162\n        /* \"contracts/oatFINAL.sol\":11784:11788  this */\n      dup2\n      sub(shl(0xa0, 0x01), 0x01)\n        /* \"contracts/oatFINAL.sol\":5764:5782  _balances[account] */\n      and\n        /* \"contracts/oatFINAL.sol\":5738:5745  uint256 */\n      0x00\n        /* \"contracts/oatFINAL.sol\":5764:5782  _balances[account] */\n      swap1\n      dup2\n      mstore\n        /* \"contracts/oatFINAL.sol\":5764:5773  _balances */\n      0x01\n        /* \"contracts/oatFINAL.sol\":5764:5782  _balances[account] */\n      0x20\n      mstore\n      0x40\n      swap1\n      keccak256\n      sload\n      swap1\n        /* \"contracts/oatFINAL.sol\":5672:5789  function balanceOf(address account) public view override returns (uint256) {... */\n      jump\n        /* \"contracts/oatFINAL.sol\":11803:11827  balanceOf(address(this)) */\n    tag_162:\n        /* \"contracts/oatFINAL.sol\":11841:11842  0 */\n      0x00\n        /* \"contracts/oatFINAL.sol\":11856:11857  0 */\n      dup1\n        /* \"contracts/oatFINAL.sol\":11871:11878  owner() */\n      tag_163\n        /* \"contracts/oatFINAL.sol\":2205:2212  address */\n      0x00\n        /* \"contracts/oatFINAL.sol\":2231:2237  _owner */\n      sload\n      sub(shl(0xa0, 0x01), 0x01)\n      and\n      swap1\n        /* \"contracts/oatFINAL.sol\":2167:2244  function owner() public view returns (address) {... */\n      jump\n        /* \"contracts/oatFINAL.sol\":11871:11878  owner() */\n    tag_163:\n        /* \"contracts/oatFINAL.sol\":11701:11917  uniswapV2Router.addLiquidityETH{value: address(this).balance}(... */\n      mload(0x40)\n      0xe0\n      dup9\n      swap1\n      shl\n      not(sub(shl(0xe0, 0x01), 0x01))\n      and\n      dup2\n      mstore\n      sub(shl(0xa0, 0x01), 0x01)\n        /* \"#utility.yul\":6459:6474   */\n      swap6\n      dup7\n      and\n        /* \"contracts/oatFINAL.sol\":11701:11917  uniswapV2Router.addLiquidityETH{value: address(this).balance}(... */\n      0x04\n      dup3\n      add\n        /* \"#utility.yul\":6441:6475   */\n      mstore\n        /* \"#utility.yul\":6491:6509   */\n      0x24\n      dup2\n      add\n        /* \"#utility.yul\":6484:6518   */\n      swap5\n      swap1\n      swap5\n      mstore\n        /* \"#utility.yul\":6534:6552   */\n      0x44\n      dup5\n      add\n        /* \"#utility.yul\":6527:6561   */\n      swap3\n      swap1\n      swap3\n      mstore\n        /* \"#utility.yul\":6577:6595   */\n      0x64\n      dup4\n      add\n        /* \"#utility.yul\":6570:6604   */\n      mstore\n        /* \"#utility.yul\":6641:6656   */\n      swap1\n      swap2\n      and\n        /* \"#utility.yul\":6620:6639   */\n      0x84\n      dup3\n      add\n        /* \"#utility.yul\":6613:6657   */\n      mstore\n        /* \"contracts/oatFINAL.sol\":11892:11907  block.timestamp */\n      timestamp\n        /* \"#utility.yul\":6673:6692   */\n      0xa4\n      dup3\n      add\n        /* \"#utility.yul\":6666:6701   */\n      mstore\n        /* \"#utility.yul\":6375:6394   */\n      0xc4\n      add\n        /* \"contracts/oatFINAL.sol\":11701:11917  uniswapV2Router.addLiquidityETH{value: address(this).balance}(... */\n      0x60\n      mload(0x40)\n      dup1\n      dup4\n      sub\n      dup2\n      dup6\n      dup9\n      gas\n      call\n      iszero\n      dup1\n      iszero\n      tag_167\n      jumpi\n      returndatasize\n      0x00\n      dup1\n      returndatacopy\n      revert(0x00, returndatasize)\n    tag_167:\n      pop\n      pop\n      pop\n      pop\n      pop\n      mload(0x40)\n      returndatasize\n      not(0x1f)\n      0x1f\n      dup3\n      add\n      and\n      dup3\n      add\n      dup1\n      0x40\n      mstore\n      pop\n      dup2\n      add\n      swap1\n      tag_168\n      swap2\n      swap1\n      tag_169\n      jump\t// in\n    tag_168:\n      pop\n      pop\n        /* \"contracts/oatFINAL.sol\":11934:11947  uniswapV2Pair */\n      sload(0x13)\n        /* \"contracts/oatFINAL.sol\":11978:11993  uniswapV2Router */\n      sload(0x12)\n        /* \"contracts/oatFINAL.sol\":11927:12035  IERC20(uniswapV2Pair).approve(... */\n      mload(0x40)\n      shl(0xe0, 0x095ea7b3)\n      dup2\n      mstore\n      sub(shl(0xa0, 0x01), 0x01)\n        /* \"contracts/oatFINAL.sol\":11978:11993  uniswapV2Router */\n      swap2\n      dup3\n      and\n        /* \"contracts/oatFINAL.sol\":11927:12035  IERC20(uniswapV2Pair).approve(... */\n      0x04\n      dup3\n      add\n        /* \"#utility.yul\":7197:7248   */\n      mstore\n      not(0x00)\n        /* \"#utility.yul\":7264:7282   */\n      0x24\n      dup3\n      add\n        /* \"#utility.yul\":7257:7291   */\n      mstore\n        /* \"contracts/oatFINAL.sol\":11934:11947  uniswapV2Pair */\n      swap2\n      and\n      swap2\n      pop\n        /* \"contracts/oatFINAL.sol\":11927:11956  IERC20(uniswapV2Pair).approve */\n      0x095ea7b3\n      swap1\n        /* \"#utility.yul\":7170:7188   */\n      0x44\n      add\n        /* \"contracts/oatFINAL.sol\":11927:12035  IERC20(uniswapV2Pair).approve(... */\n      0x20\n      mload(0x40)\n      dup1\n      dup4\n      sub\n      dup2\n      0x00\n      dup8\n      gas\n      call\n      iszero\n      dup1\n      iszero\n      tag_173\n      jumpi\n      returndatasize\n      0x00\n      dup1\n      returndatacopy\n      revert(0x00, returndatasize)\n    tag_173:\n      pop\n      pop\n      pop\n      pop\n      mload(0x40)\n      returndatasize\n      not(0x1f)\n      0x1f\n      dup3\n      add\n      and\n      dup3\n      add\n      dup1\n      0x40\n      mstore\n      pop\n      dup2\n      add\n      swap1\n      tag_174\n      swap2\n      swap1\n      tag_175\n      jump\t// in\n    tag_174:\n      pop\n        /* \"contracts/oatFINAL.sol\":12045:12056  swapEnabled */\n      0x13\n        /* \"contracts/oatFINAL.sol\":12045:12063  swapEnabled = true */\n      dup1\n      sload\n      not(shl(0xa0, 0xff00ff))\n        /* \"contracts/oatFINAL.sol\":12073:12091  tradingOpen = true */\n      and\n      shl(0xa0, 0x010001)\n      or\n      swap1\n      sstore\n        /* \"contracts/oatFINAL.sol\":11262:12098  function Launch() external onlyOwner {... */\n      jump\t// out\n        /* \"contracts/oatFINAL.sol\":6176:6362  function approve(address spender, uint256 amount)... */\n    tag_43:\n        /* \"contracts/oatFINAL.sol\":6275:6279  bool */\n      0x00\n        /* \"contracts/oatFINAL.sol\":6295:6334  _approve(_msgSender(), spender, amount) */\n      tag_178\n        /* \"contracts/oatFINAL.sol\":1045:1055  msg.sender */\n      caller\n        /* \"contracts/oatFINAL.sol\":6318:6325  spender */\n      dup5\n        /* \"contracts/oatFINAL.sol\":6327:6333  amount */\n      dup5\n        /* \"contracts/oatFINAL.sol\":6295:6303  _approve */\n      tag_149\n        /* \"contracts/oatFINAL.sol\":6295:6334  _approve(_msgSender(), spender, amount) */\n      jump\t// in\n    tag_178:\n      pop\n        /* \"contracts/oatFINAL.sol\":6351:6355  true */\n      0x01\n        /* \"contracts/oatFINAL.sol\":6176:6362  function approve(address spender, uint256 amount)... */\n    tag_177:\n      swap3\n      swap2\n      pop\n      pop\n      jump\t// out\n        /* \"contracts/oatFINAL.sol\":11110:11256  function changeSwapAmount(uint256 amount) external onlyOwner {... */\n    tag_55:\n        /* \"contracts/oatFINAL.sol\":2289:2295  _owner */\n      and(sub(shl(0xa0, 0x01), 0x01), sload(0x00))\n        /* \"contracts/oatFINAL.sol\":1045:1055  msg.sender */\n      caller\n        /* \"contracts/oatFINAL.sol\":2289:2311  _owner == _msgSender() */\n      eq\n        /* \"contracts/oatFINAL.sol\":2281:2348  require(_owner == _msgSender(), \"Ownable: caller is not the owner\") */\n      tag_182\n      jumpi\n      mload(0x40)\n      shl(0xe5, 0x461bcd)\n      dup2\n      mstore\n      0x04\n      add\n      tag_138\n      swap1\n      tag_139\n      jump\t// in\n    tag_182:\n        /* \"contracts/oatFINAL.sol\":11195:11208  amount * 1e18 */\n      tag_185\n        /* \"contracts/oatFINAL.sol\":11195:11201  amount */\n      dup2\n        /* \"contracts/oatFINAL.sol\":11204:11208  1e18 */\n      0x0de0b6b3a7640000\n        /* \"contracts/oatFINAL.sol\":11195:11208  amount * 1e18 */\n      tag_148\n      jump\t// in\n    tag_185:\n        /* \"contracts/oatFINAL.sol\":11181:11192  _maxTaxSwap */\n      0x11\n        /* \"contracts/oatFINAL.sol\":11181:11208  _maxTaxSwap = amount * 1e18 */\n      dup2\n      swap1\n      sstore\n        /* \"contracts/oatFINAL.sol\":11218:11235  _taxSwapThreshold */\n      0x10\n        /* \"contracts/oatFINAL.sol\":11218:11249  _taxSwapThreshold = _maxTaxSwap */\n      sstore\n      pop\n        /* \"contracts/oatFINAL.sol\":11110:11256  function changeSwapAmount(uint256 amount) external onlyOwner {... */\n      jump\t// out\n        /* \"contracts/oatFINAL.sol\":5573:5666  function totalSupply() public pure override returns (uint256) {... */\n    tag_62:\n        /* \"contracts/oatFINAL.sol\":5626:5633  uint256 */\n      0x00\n        /* \"contracts/oatFINAL.sol\":4283:4296  10**_decimals */\n      tag_187\n        /* \"contracts/oatFINAL.sol\":4226:4228  18 */\n      0x12\n        /* \"contracts/oatFINAL.sol\":4283:4285  10 */\n      0x0a\n        /* \"contracts/oatFINAL.sol\":4283:4296  10**_decimals */\n      tag_146\n      jump\t// in\n    tag_187:\n        /* \"contracts/oatFINAL.sol\":4269:4296  100_000_000 * 10**_decimals */\n      tag_188\n      swap1\n        /* \"contracts/oatFINAL.sol\":4269:4280  100_000_000 */\n      0x05f5e100\n        /* \"contracts/oatFINAL.sol\":4269:4296  100_000_000 * 10**_decimals */\n      tag_148\n      jump\t// in\n    tag_188:\n        /* \"contracts/oatFINAL.sol\":5645:5659  return _tTotal */\n      swap1\n      pop\n        /* \"contracts/oatFINAL.sol\":5573:5666  function totalSupply() public pure override returns (uint256) {... */\n      swap1\n      jump\t// out\n        /* \"contracts/oatFINAL.sol\":6368:6706  function transferFrom(... */\n    tag_68:\n        /* \"contracts/oatFINAL.sol\":6496:6500  bool */\n      0x00\n        /* \"contracts/oatFINAL.sol\":6512:6548  _transfer(sender, recipient, amount) */\n      tag_190\n        /* \"contracts/oatFINAL.sol\":6522:6528  sender */\n      dup5\n        /* \"contracts/oatFINAL.sol\":6530:6539  recipient */\n      dup5\n        /* \"contracts/oatFINAL.sol\":6541:6547  amount */\n      dup5\n        /* \"contracts/oatFINAL.sol\":6512:6521  _transfer */\n      tag_191\n        /* \"contracts/oatFINAL.sol\":6512:6548  _transfer(sender, recipient, amount) */\n      jump\t// in\n    tag_190:\n      sub(shl(0xa0, 0x01), 0x01)\n        /* \"contracts/oatFINAL.sol\":6626:6645  _allowances[sender] */\n      dup5\n      and\n      0x00\n      swap1\n      dup2\n      mstore\n        /* \"contracts/oatFINAL.sol\":6626:6637  _allowances */\n      0x02\n        /* \"contracts/oatFINAL.sol\":6626:6645  _allowances[sender] */\n      0x20\n      swap1\n      dup2\n      mstore\n      0x40\n      dup1\n      dup4\n      keccak256\n        /* \"contracts/oatFINAL.sol\":1045:1055  msg.sender */\n      caller\n        /* \"contracts/oatFINAL.sol\":6626:6659  _allowances[sender][_msgSender()] */\n      dup1\n      dup6\n      mstore\n      swap3\n      mstore\n      swap1\n      swap2\n      keccak256\n      sload\n        /* \"contracts/oatFINAL.sol\":6558:6678  _approve(... */\n      tag_192\n      swap2\n        /* \"contracts/oatFINAL.sol\":6580:6586  sender */\n      dup7\n      swap2\n        /* \"contracts/oatFINAL.sol\":6626:6668  _allowances[sender][_msgSender()] - amount */\n      tag_147\n      swap1\n        /* \"contracts/oatFINAL.sol\":6662:6668  amount */\n      dup7\n      swap1\n        /* \"contracts/oatFINAL.sol\":6626:6668  _allowances[sender][_msgSender()] - amount */\n      tag_196\n      jump\t// in\n        /* \"contracts/oatFINAL.sol\":6558:6678  _approve(... */\n    tag_192:\n      pop\n        /* \"contracts/oatFINAL.sol\":6695:6699  true */\n      0x01\n        /* \"contracts/oatFINAL.sol\":6368:6706  function transferFrom(... */\n      swap4\n      swap3\n      pop\n      pop\n      pop\n      jump\t// out\n        /* \"contracts/oatFINAL.sol\":12139:12495  function manualSwap() external {... */\n    tag_77:\n        /* \"contracts/oatFINAL.sol\":12204:12214  _taxWallet */\n      sload(0x05)\n      0x0100\n      swap1\n      div\n      sub(shl(0xa0, 0x01), 0x01)\n      and\n        /* \"contracts/oatFINAL.sol\":1045:1055  msg.sender */\n      caller\n      sub(shl(0xa0, 0x01), 0x01)\n        /* \"contracts/oatFINAL.sol\":12188:12214  _msgSender() == _taxWallet */\n      and\n      eq\n        /* \"contracts/oatFINAL.sol\":12180:12215  require(_msgSender() == _taxWallet) */\n      tag_200\n      jumpi\n      0x00\n      dup1\n      revert\n    tag_200:\n        /* \"contracts/oatFINAL.sol\":12266:12270  this */\n      address\n        /* \"contracts/oatFINAL.sol\":12225:12245  uint256 tokenBalance */\n      0x00\n        /* \"contracts/oatFINAL.sol\":5764:5782  _balances[account] */\n      swap1\n      dup2\n      mstore\n        /* \"contracts/oatFINAL.sol\":5764:5773  _balances */\n      0x01\n        /* \"contracts/oatFINAL.sol\":5764:5782  _balances[account] */\n      0x20\n      mstore\n      0x40\n      swap1\n      keccak256\n      sload\n        /* \"contracts/oatFINAL.sol\":12286:12302  tokenBalance > 0 */\n      dup1\n      iszero\n        /* \"contracts/oatFINAL.sol\":12282:12359  if (tokenBalance > 0) {... */\n      tag_203\n      jumpi\n        /* \"contracts/oatFINAL.sol\":12318:12348  swapTokensForEth(tokenBalance) */\n      tag_203\n        /* \"contracts/oatFINAL.sol\":12335:12347  tokenBalance */\n      dup2\n        /* \"contracts/oatFINAL.sol\":12318:12334  swapTokensForEth */\n      tag_204\n        /* \"contracts/oatFINAL.sol\":12318:12348  swapTokensForEth(tokenBalance) */\n      jump\t// in\n    tag_203:\n        /* \"contracts/oatFINAL.sol\":12389:12410  address(this).balance */\n      selfbalance\n        /* \"contracts/oatFINAL.sol\":12424:12438  ethBalance > 0 */\n      dup1\n      iszero\n        /* \"contracts/oatFINAL.sol\":12420:12489  if (ethBalance > 0) {... */\n      tag_206\n      jumpi\n        /* \"contracts/oatFINAL.sol\":12454:12478  sendETHToFee(ethBalance) */\n      tag_206\n        /* \"contracts/oatFINAL.sol\":12467:12477  ethBalance */\n      dup2\n        /* \"contracts/oatFINAL.sol\":12454:12466  sendETHToFee */\n      tag_207\n        /* \"contracts/oatFINAL.sol\":12454:12478  sendETHToFee(ethBalance) */\n      jump\t// in\n    tag_206:\n        /* \"contracts/oatFINAL.sol\":12170:12495  {... */\n      pop\n      pop\n        /* \"contracts/oatFINAL.sol\":12139:12495  function manualSwap() external {... */\n      jump\t// out\n        /* \"contracts/oatFINAL.sol\":2372:2517  function renounceOwnership() public virtual onlyOwner {... */\n    tag_86:\n        /* \"contracts/oatFINAL.sol\":2289:2295  _owner */\n      and(sub(shl(0xa0, 0x01), 0x01), sload(0x00))\n        /* \"contracts/oatFINAL.sol\":1045:1055  msg.sender */\n      caller\n        /* \"contracts/oatFINAL.sol\":2289:2311  _owner == _msgSender() */\n      eq\n        /* \"contracts/oatFINAL.sol\":2281:2348  require(_owner == _msgSender(), \"Ownable: caller is not the owner\") */\n      tag_211\n      jumpi\n      mload(0x40)\n      shl(0xe5, 0x461bcd)\n      dup2\n      mstore\n      0x04\n      add\n      tag_138\n      swap1\n      tag_139\n      jump\t// in\n    tag_211:\n        /* \"contracts/oatFINAL.sol\":2478:2479  0 */\n      0x00\n        /* \"contracts/oatFINAL.sol\":2462:2468  _owner */\n      dup1\n      sload\n        /* \"contracts/oatFINAL.sol\":2441:2481  OwnershipTransferred(_owner, address(0)) */\n      mload(0x40)\n      sub(shl(0xa0, 0x01), 0x01)\n        /* \"contracts/oatFINAL.sol\":2462:2468  _owner */\n      swap1\n      swap2\n      and\n      swap1\n        /* \"contracts/oatFINAL.sol\":2441:2481  OwnershipTransferred(_owner, address(0)) */\n      0x8be0079c531659141344cd1fd0a4f28419497f9722a3daafe3b4186f6b6457e0\n      swap1\n        /* \"contracts/oatFINAL.sol\":2478:2479  0 */\n      dup4\n      swap1\n        /* \"contracts/oatFINAL.sol\":2441:2481  OwnershipTransferred(_owner, address(0)) */\n      log3\n        /* \"contracts/oatFINAL.sol\":2508:2509  0 */\n      0x00\n        /* \"contracts/oatFINAL.sol\":2491:2510  _owner = address(0) */\n      dup1\n      sload\n      not(sub(shl(0xa0, 0x01), 0x01))\n      and\n      swap1\n      sstore\n        /* \"contracts/oatFINAL.sol\":2372:2517  function renounceOwnership() public virtual onlyOwner {... */\n      jump\t// out\n        /* \"contracts/oatFINAL.sol\":10753:11008  function removeLimits() external onlyOwner {... */\n    tag_89:\n        /* \"contracts/oatFINAL.sol\":2289:2295  _owner */\n      and(sub(shl(0xa0, 0x01), 0x01), sload(0x00))\n        /* \"contracts/oatFINAL.sol\":1045:1055  msg.sender */\n      caller\n        /* \"contracts/oatFINAL.sol\":2289:2311  _owner == _msgSender() */\n      eq\n        /* \"contracts/oatFINAL.sol\":2281:2348  require(_owner == _msgSender(), \"Ownable: caller is not the owner\") */\n      tag_216\n      jumpi\n      mload(0x40)\n      shl(0xe5, 0x461bcd)\n      dup2\n      mstore\n      0x04\n      add\n      tag_138\n      swap1\n      tag_139\n      jump\t// in\n    tag_216:\n        /* \"contracts/oatFINAL.sol\":4283:4296  10**_decimals */\n      tag_219\n        /* \"contracts/oatFINAL.sol\":4226:4228  18 */\n      0x12\n        /* \"contracts/oatFINAL.sol\":4283:4285  10 */\n      0x0a\n        /* \"contracts/oatFINAL.sol\":4283:4296  10**_decimals */\n      tag_146\n      jump\t// in\n    tag_219:\n        /* \"contracts/oatFINAL.sol\":4269:4296  100_000_000 * 10**_decimals */\n      tag_220\n      swap1\n        /* \"contracts/oatFINAL.sol\":4269:4280  100_000_000 */\n      0x05f5e100\n        /* \"contracts/oatFINAL.sol\":4269:4296  100_000_000 * 10**_decimals */\n      tag_148\n      jump\t// in\n    tag_220:\n        /* \"contracts/oatFINAL.sol\":10806:10818  _maxTxAmount */\n      0x0e\n        /* \"contracts/oatFINAL.sol\":10806:10828  _maxTxAmount = _tTotal */\n      sstore\n        /* \"contracts/oatFINAL.sol\":4283:4296  10**_decimals */\n      tag_221\n        /* \"contracts/oatFINAL.sol\":4226:4228  18 */\n      0x12\n        /* \"contracts/oatFINAL.sol\":4283:4285  10 */\n      0x0a\n        /* \"contracts/oatFINAL.sol\":4283:4296  10**_decimals */\n      tag_146\n      jump\t// in\n    tag_221:\n        /* \"contracts/oatFINAL.sol\":4269:4296  100_000_000 * 10**_decimals */\n      tag_222\n      swap1\n        /* \"contracts/oatFINAL.sol\":4269:4280  100_000_000 */\n      0x05f5e100\n        /* \"contracts/oatFINAL.sol\":4269:4296  100_000_000 * 10**_decimals */\n      tag_148\n      jump\t// in\n    tag_222:\n        /* \"contracts/oatFINAL.sol\":10838:10852  _maxWalletSize */\n      0x0f\n        /* \"contracts/oatFINAL.sol\":10838:10862  _maxWalletSize = _tTotal */\n      sstore\n        /* \"contracts/oatFINAL.sol\":10872:10892  transferDelayEnabled */\n      0x05\n        /* \"contracts/oatFINAL.sol\":10872:10900  transferDelayEnabled = false */\n      dup1\n      sload\n      not(0xff)\n      and\n      dup2\n      sstore\n        /* \"contracts/oatFINAL.sol\":10910:10926  _reduceSellTaxAt */\n      0x0b\n        /* \"contracts/oatFINAL.sol\":10910:10930  _reduceSellTaxAt = 5 */\n      dup2\n      swap1\n      sstore\n      0x0a\n        /* \"contracts/oatFINAL.sol\":10940:10959  _reduceBuyTaxAt = 5 */\n      swap1\n      dup2\n      sstore\n        /* \"contracts/oatFINAL.sol\":10974:11001  MaxTxAmountUpdated(_tTotal) */\n      0x947f344d56e1e8c70dc492fb94c4ddddd490c016aab685f5e7e47b2e85cb44cf\n      swap1\n        /* \"contracts/oatFINAL.sol\":4283:4296  10**_decimals */\n      tag_223\n      swap1\n        /* \"contracts/oatFINAL.sol\":4226:4228  18 */\n      0x12\n      swap1\n        /* \"contracts/oatFINAL.sol\":4283:4296  10**_decimals */\n      tag_146\n      jump\t// in\n    tag_223:\n        /* \"contracts/oatFINAL.sol\":4269:4296  100_000_000 * 10**_decimals */\n      tag_224\n      swap1\n        /* \"contracts/oatFINAL.sol\":4269:4280  100_000_000 */\n      0x05f5e100\n        /* \"contracts/oatFINAL.sol\":4269:4296  100_000_000 * 10**_decimals */\n      tag_148\n      jump\t// in\n    tag_224:\n        /* \"contracts/oatFINAL.sol\":10974:11001  MaxTxAmountUpdated(_tTotal) */\n      mload(0x40)\n        /* \"#utility.yul\":1410:1435   */\n      swap1\n      dup2\n      mstore\n        /* \"#utility.yul\":1398:1400   */\n      0x20\n        /* \"#utility.yul\":1383:1401   */\n      add\n        /* \"contracts/oatFINAL.sol\":10974:11001  MaxTxAmountUpdated(_tTotal) */\n      mload(0x40)\n      dup1\n      swap2\n      sub\n      swap1\n      log1\n        /* \"contracts/oatFINAL.sol\":10753:11008  function removeLimits() external onlyOwner {... */\n      jump\t// out\n        /* \"contracts/oatFINAL.sol\":5795:5987  function transfer(address recipient, uint256 amount)... */\n    tag_114:\n        /* \"contracts/oatFINAL.sol\":5897:5901  bool */\n      0x00\n        /* \"contracts/oatFINAL.sol\":5917:5959  _transfer(_msgSender(), recipient, amount) */\n      tag_178\n        /* \"contracts/oatFINAL.sol\":1045:1055  msg.sender */\n      caller\n        /* \"contracts/oatFINAL.sol\":5941:5950  recipient */\n      dup5\n        /* \"contracts/oatFINAL.sol\":5952:5958  amount */\n      dup5\n        /* \"contracts/oatFINAL.sol\":5917:5926  _transfer */\n      tag_191\n        /* \"contracts/oatFINAL.sol\":5917:5959  _transfer(_msgSender(), recipient, amount) */\n      jump\t// in\n        /* \"contracts/oatFINAL.sol\":6712:7072  function _approve(... */\n    tag_149:\n      sub(shl(0xa0, 0x01), 0x01)\n        /* \"contracts/oatFINAL.sol\":6834:6853  owner != address(0) */\n      dup4\n      and\n        /* \"contracts/oatFINAL.sol\":6826:6894  require(owner != address(0), \"ERC20: approve from the zero address\") */\n      tag_234\n      jumpi\n      mload(0x40)\n      shl(0xe5, 0x461bcd)\n      dup2\n      mstore\n        /* \"#utility.yul\":7916:7918   */\n      0x20\n        /* \"contracts/oatFINAL.sol\":6826:6894  require(owner != address(0), \"ERC20: approve from the zero address\") */\n      0x04\n      dup3\n      add\n        /* \"#utility.yul\":7898:7919   */\n      mstore\n        /* \"#utility.yul\":7955:7957   */\n      0x24\n        /* \"#utility.yul\":7935:7953   */\n      dup1\n      dup3\n      add\n        /* \"#utility.yul\":7928:7958   */\n      mstore\n        /* \"#utility.yul\":7994:8028   */\n      0x45524332303a20617070726f76652066726f6d20746865207a65726f20616464\n        /* \"#utility.yul\":7974:7992   */\n      0x44\n      dup3\n      add\n        /* \"#utility.yul\":7967:8029   */\n      mstore\n      shl(0xe0, 0x72657373)\n        /* \"#utility.yul\":8045:8063   */\n      0x64\n      dup3\n      add\n        /* \"#utility.yul\":8038:8072   */\n      mstore\n        /* \"#utility.yul\":8089:8108   */\n      0x84\n      add\n        /* \"contracts/oatFINAL.sol\":6826:6894  require(owner != address(0), \"ERC20: approve from the zero address\") */\n      tag_138\n        /* \"#utility.yul\":7714:8114   */\n      jump\n        /* \"contracts/oatFINAL.sol\":6826:6894  require(owner != address(0), \"ERC20: approve from the zero address\") */\n    tag_234:\n      sub(shl(0xa0, 0x01), 0x01)\n        /* \"contracts/oatFINAL.sol\":6912:6933  spender != address(0) */\n      dup3\n      and\n        /* \"contracts/oatFINAL.sol\":6904:6972  require(spender != address(0), \"ERC20: approve to the zero address\") */\n      tag_237\n      jumpi\n      mload(0x40)\n      shl(0xe5, 0x461bcd)\n      dup2\n      mstore\n        /* \"#utility.yul\":8321:8323   */\n      0x20\n        /* \"contracts/oatFINAL.sol\":6904:6972  require(spender != address(0), \"ERC20: approve to the zero address\") */\n      0x04\n      dup3\n      add\n        /* \"#utility.yul\":8303:8324   */\n      mstore\n        /* \"#utility.yul\":8360:8362   */\n      0x22\n        /* \"#utility.yul\":8340:8358   */\n      0x24\n      dup3\n      add\n        /* \"#utility.yul\":8333:8363   */\n      mstore\n        /* \"#utility.yul\":8399:8433   */\n      0x45524332303a20617070726f766520746f20746865207a65726f206164647265\n        /* \"#utility.yul\":8379:8397   */\n      0x44\n      dup3\n      add\n        /* \"#utility.yul\":8372:8434   */\n      mstore\n      shl(0xf0, 0x7373)\n        /* \"#utility.yul\":8450:8468   */\n      0x64\n      dup3\n      add\n        /* \"#utility.yul\":8443:8475   */\n      mstore\n        /* \"#utility.yul\":8492:8511   */\n      0x84\n      add\n        /* \"contracts/oatFINAL.sol\":6904:6972  require(spender != address(0), \"ERC20: approve to the zero address\") */\n      tag_138\n        /* \"#utility.yul\":8119:8517   */\n      jump\n        /* \"contracts/oatFINAL.sol\":6904:6972  require(spender != address(0), \"ERC20: approve to the zero address\") */\n    tag_237:\n      sub(shl(0xa0, 0x01), 0x01)\n        /* \"contracts/oatFINAL.sol\":6982:7000  _allowances[owner] */\n      dup4\n      dup2\n      and\n      0x00\n      dup2\n      dup2\n      mstore\n        /* \"contracts/oatFINAL.sol\":6982:6993  _allowances */\n      0x02\n        /* \"contracts/oatFINAL.sol\":6982:7000  _allowances[owner] */\n      0x20\n      swap1\n      dup2\n      mstore\n      0x40\n      dup1\n      dup4\n      keccak256\n        /* \"contracts/oatFINAL.sol\":6982:7009  _allowances[owner][spender] */\n      swap5\n      dup8\n      and\n      dup1\n      dup5\n      mstore\n      swap5\n      dup3\n      mstore\n      swap2\n      dup3\n      swap1\n      keccak256\n        /* \"contracts/oatFINAL.sol\":6982:7018  _allowances[owner][spender] = amount */\n      dup6\n      swap1\n      sstore\n        /* \"contracts/oatFINAL.sol\":7033:7065  Approval(owner, spender, amount) */\n      swap1\n      mload\n        /* \"#utility.yul\":1410:1435   */\n      dup5\n      dup2\n      mstore\n        /* \"contracts/oatFINAL.sol\":7033:7065  Approval(owner, spender, amount) */\n      0x8c5be1e5ebec7d5bd14f71427d1e84f3dd0314c0f7b2291e5b200ac8c7c3b925\n      swap2\n        /* \"#utility.yul\":1383:1401   */\n      add\n        /* \"contracts/oatFINAL.sol\":7033:7065  Approval(owner, spender, amount) */\n      mload(0x40)\n      dup1\n      swap2\n      sub\n      swap1\n      log3\n        /* \"contracts/oatFINAL.sol\":6712:7072  function _approve(... */\n      pop\n      pop\n      pop\n      jump\t// out\n        /* \"contracts/oatFINAL.sol\":7078:10039  function _transfer(... */\n    tag_191:\n      sub(shl(0xa0, 0x01), 0x01)\n        /* \"contracts/oatFINAL.sol\":7195:7213  from != address(0) */\n      dup4\n      and\n        /* \"contracts/oatFINAL.sol\":7187:7255  require(from != address(0), \"ERC20: transfer from the zero address\") */\n      tag_242\n      jumpi\n      mload(0x40)\n      shl(0xe5, 0x461bcd)\n      dup2\n      mstore\n        /* \"#utility.yul\":8724:8726   */\n      0x20\n        /* \"contracts/oatFINAL.sol\":7187:7255  require(from != address(0), \"ERC20: transfer from the zero address\") */\n      0x04\n      dup3\n      add\n        /* \"#utility.yul\":8706:8727   */\n      mstore\n        /* \"#utility.yul\":8763:8765   */\n      0x25\n        /* \"#utility.yul\":8743:8761   */\n      0x24\n      dup3\n      add\n        /* \"#utility.yul\":8736:8766   */\n      mstore\n        /* \"#utility.yul\":8802:8836   */\n      0x45524332303a207472616e736665722066726f6d20746865207a65726f206164\n        /* \"#utility.yul\":8782:8800   */\n      0x44\n      dup3\n      add\n        /* \"#utility.yul\":8775:8837   */\n      mstore\n      shl(0xd8, 0x6472657373)\n        /* \"#utility.yul\":8853:8871   */\n      0x64\n      dup3\n      add\n        /* \"#utility.yul\":8846:8881   */\n      mstore\n        /* \"#utility.yul\":8898:8917   */\n      0x84\n      add\n        /* \"contracts/oatFINAL.sol\":7187:7255  require(from != address(0), \"ERC20: transfer from the zero address\") */\n      tag_138\n        /* \"#utility.yul\":8522:8923   */\n      jump\n        /* \"contracts/oatFINAL.sol\":7187:7255  require(from != address(0), \"ERC20: transfer from the zero address\") */\n    tag_242:\n      sub(shl(0xa0, 0x01), 0x01)\n        /* \"contracts/oatFINAL.sol\":7273:7289  to != address(0) */\n      dup3\n      and\n        /* \"contracts/oatFINAL.sol\":7265:7329  require(to != address(0), \"ERC20: transfer to the zero address\") */\n      tag_245\n      jumpi\n      mload(0x40)\n      shl(0xe5, 0x461bcd)\n      dup2\n      mstore\n        /* \"#utility.yul\":9130:9132   */\n      0x20\n        /* \"contracts/oatFINAL.sol\":7265:7329  require(to != address(0), \"ERC20: transfer to the zero address\") */\n      0x04\n      dup3\n      add\n        /* \"#utility.yul\":9112:9133   */\n      mstore\n        /* \"#utility.yul\":9169:9171   */\n      0x23\n        /* \"#utility.yul\":9149:9167   */\n      0x24\n      dup3\n      add\n        /* \"#utility.yul\":9142:9172   */\n      mstore\n        /* \"#utility.yul\":9208:9242   */\n      0x45524332303a207472616e7366657220746f20746865207a65726f2061646472\n        /* \"#utility.yul\":9188:9206   */\n      0x44\n      dup3\n      add\n        /* \"#utility.yul\":9181:9243   */\n      mstore\n      shl(0xe8, 0x657373)\n        /* \"#utility.yul\":9259:9277   */\n      0x64\n      dup3\n      add\n        /* \"#utility.yul\":9252:9285   */\n      mstore\n        /* \"#utility.yul\":9302:9321   */\n      0x84\n      add\n        /* \"contracts/oatFINAL.sol\":7265:7329  require(to != address(0), \"ERC20: transfer to the zero address\") */\n      tag_138\n        /* \"#utility.yul\":8928:9327   */\n      jump\n        /* \"contracts/oatFINAL.sol\":7265:7329  require(to != address(0), \"ERC20: transfer to the zero address\") */\n    tag_245:\n        /* \"contracts/oatFINAL.sol\":7356:7357  0 */\n      0x00\n        /* \"contracts/oatFINAL.sol\":7347:7353  amount */\n      dup2\n        /* \"contracts/oatFINAL.sol\":7347:7357  amount > 0 */\n      gt\n        /* \"contracts/oatFINAL.sol\":7339:7403  require(amount > 0, \"Transfer amount must be greater than zero\") */\n      tag_248\n      jumpi\n      mload(0x40)\n      shl(0xe5, 0x461bcd)\n      dup2\n      mstore\n        /* \"#utility.yul\":9534:9536   */\n      0x20\n        /* \"contracts/oatFINAL.sol\":7339:7403  require(amount > 0, \"Transfer amount must be greater than zero\") */\n      0x04\n      dup3\n      add\n        /* \"#utility.yul\":9516:9537   */\n      mstore\n        /* \"#utility.yul\":9573:9575   */\n      0x29\n        /* \"#utility.yul\":9553:9571   */\n      0x24\n      dup3\n      add\n        /* \"#utility.yul\":9546:9576   */\n      mstore\n        /* \"#utility.yul\":9612:9646   */\n      0x5472616e7366657220616d6f756e74206d757374206265206772656174657220\n        /* \"#utility.yul\":9592:9610   */\n      0x44\n      dup3\n      add\n        /* \"#utility.yul\":9585:9647   */\n      mstore\n      shl(0xb8, 0x7468616e207a65726f)\n        /* \"#utility.yul\":9663:9681   */\n      0x64\n      dup3\n      add\n        /* \"#utility.yul\":9656:9695   */\n      mstore\n        /* \"#utility.yul\":9712:9731   */\n      0x84\n      add\n        /* \"contracts/oatFINAL.sol\":7339:7403  require(amount > 0, \"Transfer amount must be greater than zero\") */\n      tag_138\n        /* \"#utility.yul\":9332:9737   */\n      jump\n        /* \"contracts/oatFINAL.sol\":7339:7403  require(amount > 0, \"Transfer amount must be greater than zero\") */\n    tag_248:\n        /* \"contracts/oatFINAL.sol\":7413:7430  uint256 taxAmount */\n      0x00\n        /* \"contracts/oatFINAL.sol\":2231:2237  _owner */\n      dup1\n      sload\n      sub(shl(0xa0, 0x01), 0x01)\n        /* \"contracts/oatFINAL.sol\":7448:7463  from != owner() */\n      dup6\n      dup2\n      and\n        /* \"contracts/oatFINAL.sol\":2231:2237  _owner */\n      swap2\n      and\n        /* \"contracts/oatFINAL.sol\":7448:7463  from != owner() */\n      eq\n      dup1\n      iszero\n      swap1\n        /* \"contracts/oatFINAL.sol\":7448:7480  from != owner() && to != owner() */\n      tag_252\n      jumpi\n      pop\n        /* \"contracts/oatFINAL.sol\":2205:2212  address */\n      0x00\n        /* \"contracts/oatFINAL.sol\":2231:2237  _owner */\n      sload\n      sub(shl(0xa0, 0x01), 0x01)\n        /* \"contracts/oatFINAL.sol\":7467:7480  to != owner() */\n      dup5\n      dup2\n      and\n        /* \"contracts/oatFINAL.sol\":2231:2237  _owner */\n      swap2\n      and\n        /* \"contracts/oatFINAL.sol\":7467:7480  to != owner() */\n      eq\n      iszero\n        /* \"contracts/oatFINAL.sol\":7448:7480  from != owner() && to != owner() */\n    tag_252:\n        /* \"contracts/oatFINAL.sol\":7444:9690  if (from != owner() && to != owner()) {... */\n      iszero\n      tag_254\n      jumpi\n        /* \"contracts/oatFINAL.sol\":7500:7520  transferDelayEnabled */\n      and(0xff, sload(0x05))\n        /* \"contracts/oatFINAL.sol\":7496:7970  if (transferDelayEnabled) {... */\n      iszero\n      tag_257\n      jumpi\n        /* \"contracts/oatFINAL.sol\":7579:7594  uniswapV2Router */\n      sload(0x12)\n      sub(shl(0xa0, 0x01), 0x01)\n        /* \"contracts/oatFINAL.sol\":7565:7595  to != address(uniswapV2Router) */\n      dup5\n      dup2\n      and\n        /* \"contracts/oatFINAL.sol\":7579:7594  uniswapV2Router */\n      swap2\n      and\n        /* \"contracts/oatFINAL.sol\":7565:7595  to != address(uniswapV2Router) */\n      eq\n      dup1\n      iszero\n      swap1\n        /* \"contracts/oatFINAL.sol\":7565:7647  to != address(uniswapV2Router) &&... */\n      tag_256\n      jumpi\n      pop\n        /* \"contracts/oatFINAL.sol\":7633:7646  uniswapV2Pair */\n      sload(0x13)\n      sub(shl(0xa0, 0x01), 0x01)\n        /* \"contracts/oatFINAL.sol\":7619:7647  to != address(uniswapV2Pair) */\n      dup5\n      dup2\n      and\n        /* \"contracts/oatFINAL.sol\":7633:7646  uniswapV2Pair */\n      swap2\n      and\n        /* \"contracts/oatFINAL.sol\":7619:7647  to != address(uniswapV2Pair) */\n      eq\n      iszero\n        /* \"contracts/oatFINAL.sol\":7565:7647  to != address(uniswapV2Router) &&... */\n    tag_256:\n        /* \"contracts/oatFINAL.sol\":7540:7956  if (... */\n      iszero\n      tag_257\n      jumpi\n        /* \"contracts/oatFINAL.sol\":7750:7759  tx.origin */\n      origin\n        /* \"contracts/oatFINAL.sol\":7721:7760  _holderLastTransferTimestamp[tx.origin] */\n      0x00\n      swap1\n      dup2\n      mstore\n        /* \"contracts/oatFINAL.sol\":7721:7749  _holderLastTransferTimestamp */\n      0x04\n        /* \"contracts/oatFINAL.sol\":7721:7760  _holderLastTransferTimestamp[tx.origin] */\n      0x20\n      mstore\n      0x40\n      swap1\n      keccak256\n      sload\n        /* \"contracts/oatFINAL.sol\":7763:7775  block.number */\n      number\n      gt\n        /* \"contracts/oatFINAL.sol\":7688:7861  require(... */\n      tag_258\n      jumpi\n      mload(0x40)\n      shl(0xe5, 0x461bcd)\n      dup2\n      mstore\n        /* \"#utility.yul\":9944:9946   */\n      0x20\n        /* \"contracts/oatFINAL.sol\":7688:7861  require(... */\n      0x04\n      dup3\n      add\n        /* \"#utility.yul\":9926:9947   */\n      mstore\n        /* \"#utility.yul\":9983:9985   */\n      0x24\n        /* \"#utility.yul\":9963:9981   */\n      dup1\n      dup3\n      add\n        /* \"#utility.yul\":9956:9986   */\n      mstore\n        /* \"#utility.yul\":10022:10056   */\n      0x4f6e6c79206f6e65207472616e736665722070657220626c6f636b20616c6c6f\n        /* \"#utility.yul\":10002:10020   */\n      0x44\n      dup3\n      add\n        /* \"#utility.yul\":9995:10057   */\n      mstore\n      shl(0xe1, 0x3bb2b217)\n        /* \"#utility.yul\":10073:10091   */\n      0x64\n      dup3\n      add\n        /* \"#utility.yul\":10066:10100   */\n      mstore\n        /* \"#utility.yul\":10117:10136   */\n      0x84\n      add\n        /* \"contracts/oatFINAL.sol\":7688:7861  require(... */\n      tag_138\n        /* \"#utility.yul\":9742:10142   */\n      jump\n        /* \"contracts/oatFINAL.sol\":7688:7861  require(... */\n    tag_258:\n        /* \"contracts/oatFINAL.sol\":7912:7921  tx.origin */\n      origin\n        /* \"contracts/oatFINAL.sol\":7883:7922  _holderLastTransferTimestamp[tx.origin] */\n      0x00\n      swap1\n      dup2\n      mstore\n        /* \"contracts/oatFINAL.sol\":7883:7911  _holderLastTransferTimestamp */\n      0x04\n        /* \"contracts/oatFINAL.sol\":7883:7922  _holderLastTransferTimestamp[tx.origin] */\n      0x20\n      mstore\n      0x40\n      swap1\n      keccak256\n        /* \"contracts/oatFINAL.sol\":7925:7937  block.number */\n      number\n        /* \"contracts/oatFINAL.sol\":7883:7937  _holderLastTransferTimestamp[tx.origin] = block.number */\n      swap1\n      sstore\n        /* \"contracts/oatFINAL.sol\":7540:7956  if (... */\n    tag_257:\n        /* \"contracts/oatFINAL.sol\":8013:8026  uniswapV2Pair */\n      sload(0x13)\n      sub(shl(0xa0, 0x01), 0x01)\n        /* \"contracts/oatFINAL.sol\":8005:8026  from == uniswapV2Pair */\n      dup6\n      dup2\n      and\n        /* \"contracts/oatFINAL.sol\":8013:8026  uniswapV2Pair */\n      swap2\n      and\n        /* \"contracts/oatFINAL.sol\":8005:8026  from == uniswapV2Pair */\n      eq\n        /* \"contracts/oatFINAL.sol\":8005:8076  from == uniswapV2Pair &&... */\n      dup1\n      iszero\n      tag_261\n      jumpi\n      pop\n        /* \"contracts/oatFINAL.sol\":8060:8075  uniswapV2Router */\n      sload(0x12)\n      sub(shl(0xa0, 0x01), 0x01)\n        /* \"contracts/oatFINAL.sol\":8046:8076  to != address(uniswapV2Router) */\n      dup5\n      dup2\n      and\n        /* \"contracts/oatFINAL.sol\":8060:8075  uniswapV2Router */\n      swap2\n      and\n        /* \"contracts/oatFINAL.sol\":8046:8076  to != address(uniswapV2Router) */\n      eq\n      iszero\n        /* \"contracts/oatFINAL.sol\":8005:8076  from == uniswapV2Pair &&... */\n    tag_261:\n        /* \"contracts/oatFINAL.sol\":8005:8119  from == uniswapV2Pair &&... */\n      dup1\n      iszero\n      tag_262\n      jumpi\n      pop\n      sub(shl(0xa0, 0x01), 0x01)\n        /* \"contracts/oatFINAL.sol\":8097:8119  _isExcludedFromFee[to] */\n      dup4\n      and\n      0x00\n      swap1\n      dup2\n      mstore\n        /* \"contracts/oatFINAL.sol\":8097:8115  _isExcludedFromFee */\n      0x03\n        /* \"contracts/oatFINAL.sol\":8097:8119  _isExcludedFromFee[to] */\n      0x20\n      mstore\n      0x40\n      swap1\n      keccak256\n      sload\n      0xff\n      and\n        /* \"contracts/oatFINAL.sol\":8096:8119  !_isExcludedFromFee[to] */\n      iszero\n        /* \"contracts/oatFINAL.sol\":8005:8119  from == uniswapV2Pair &&... */\n    tag_262:\n        /* \"contracts/oatFINAL.sol\":7984:8411  if (... */\n      iszero\n      tag_263\n      jumpi\n        /* \"contracts/oatFINAL.sol\":8170:8182  _maxTxAmount */\n      sload(0x0e)\n        /* \"contracts/oatFINAL.sol\":8160:8166  amount */\n      dup3\n        /* \"contracts/oatFINAL.sol\":8160:8182  amount <= _maxTxAmount */\n      gt\n      iszero\n        /* \"contracts/oatFINAL.sol\":8152:8212  require(amount <= _maxTxAmount, \"Exceeds the _maxTxAmount.\") */\n      tag_264\n      jumpi\n      mload(0x40)\n      shl(0xe5, 0x461bcd)\n      dup2\n      mstore\n        /* \"#utility.yul\":10349:10351   */\n      0x20\n        /* \"contracts/oatFINAL.sol\":8152:8212  require(amount <= _maxTxAmount, \"Exceeds the _maxTxAmount.\") */\n      0x04\n      dup3\n      add\n        /* \"#utility.yul\":10331:10352   */\n      mstore\n        /* \"#utility.yul\":10388:10390   */\n      0x19\n        /* \"#utility.yul\":10368:10386   */\n      0x24\n      dup3\n      add\n        /* \"#utility.yul\":10361:10391   */\n      mstore\n        /* \"#utility.yul\":10427:10454   */\n      0x4578636565647320746865205f6d61785478416d6f756e742e00000000000000\n        /* \"#utility.yul\":10407:10425   */\n      0x44\n      dup3\n      add\n        /* \"#utility.yul\":10400:10455   */\n      mstore\n        /* \"#utility.yul\":10472:10490   */\n      0x64\n      add\n        /* \"contracts/oatFINAL.sol\":8152:8212  require(amount <= _maxTxAmount, \"Exceeds the _maxTxAmount.\") */\n      tag_138\n        /* \"#utility.yul\":10147:10496   */\n      jump\n        /* \"contracts/oatFINAL.sol\":8152:8212  require(amount <= _maxTxAmount, \"Exceeds the _maxTxAmount.\") */\n    tag_264:\n        /* \"contracts/oatFINAL.sol\":8285:8299  _maxWalletSize */\n      sload(0x0f)\n        /* \"contracts/oatFINAL.sol\":8275:8281  amount */\n      dup3\n        /* \"contracts/oatFINAL.sol\":8259:8272  balanceOf(to) */\n      tag_267\n        /* \"contracts/oatFINAL.sol\":8269:8271  to */\n      dup6\n      sub(shl(0xa0, 0x01), 0x01)\n        /* \"contracts/oatFINAL.sol\":5764:5782  _balances[account] */\n      and\n        /* \"contracts/oatFINAL.sol\":5738:5745  uint256 */\n      0x00\n        /* \"contracts/oatFINAL.sol\":5764:5782  _balances[account] */\n      swap1\n      dup2\n      mstore\n        /* \"contracts/oatFINAL.sol\":5764:5773  _balances */\n      0x01\n        /* \"contracts/oatFINAL.sol\":5764:5782  _balances[account] */\n      0x20\n      mstore\n      0x40\n      swap1\n      keccak256\n      sload\n      swap1\n        /* \"contracts/oatFINAL.sol\":5672:5789  function balanceOf(address account) public view override returns (uint256) {... */\n      jump\n        /* \"contracts/oatFINAL.sol\":8259:8272  balanceOf(to) */\n    tag_267:\n        /* \"contracts/oatFINAL.sol\":8259:8281  balanceOf(to) + amount */\n      tag_268\n      swap2\n      swap1\n      tag_269\n      jump\t// in\n    tag_268:\n        /* \"contracts/oatFINAL.sol\":8259:8299  balanceOf(to) + amount <= _maxWalletSize */\n      gt\n      iszero\n        /* \"contracts/oatFINAL.sol\":8230:8367  require(... */\n      tag_270\n      jumpi\n      mload(0x40)\n      shl(0xe5, 0x461bcd)\n      dup2\n      mstore\n        /* \"#utility.yul\":10836:10838   */\n      0x20\n        /* \"contracts/oatFINAL.sol\":8230:8367  require(... */\n      0x04\n      dup3\n      add\n        /* \"#utility.yul\":10818:10839   */\n      mstore\n        /* \"#utility.yul\":10875:10877   */\n      0x1a\n        /* \"#utility.yul\":10855:10873   */\n      0x24\n      dup3\n      add\n        /* \"#utility.yul\":10848:10878   */\n      mstore\n        /* \"#utility.yul\":10914:10942   */\n      0x4578636565647320746865206d617857616c6c657453697a652e000000000000\n        /* \"#utility.yul\":10894:10912   */\n      0x44\n      dup3\n      add\n        /* \"#utility.yul\":10887:10943   */\n      mstore\n        /* \"#utility.yul\":10960:10978   */\n      0x64\n      add\n        /* \"contracts/oatFINAL.sol\":8230:8367  require(... */\n      tag_138\n        /* \"#utility.yul\":10634:10984   */\n      jump\n        /* \"contracts/oatFINAL.sol\":8230:8367  require(... */\n    tag_270:\n        /* \"contracts/oatFINAL.sol\":8385:8394  _buyCount */\n      0x0d\n        /* \"contracts/oatFINAL.sol\":8385:8396  _buyCount++ */\n      dup1\n      sload\n      swap1\n        /* \"contracts/oatFINAL.sol\":8385:8394  _buyCount */\n      0x00\n        /* \"contracts/oatFINAL.sol\":8385:8396  _buyCount++ */\n      tag_273\n      dup4\n      tag_274\n      jump\t// in\n    tag_273:\n      swap2\n      swap1\n      pop\n      sstore\n      pop\n        /* \"contracts/oatFINAL.sol\":7984:8411  if (... */\n    tag_263:\n        /* \"contracts/oatFINAL.sol\":8668:8671  100 */\n      0x64\n        /* \"contracts/oatFINAL.sol\":8522:8537  _reduceBuyTaxAt */\n      sload(0x0a)\n        /* \"contracts/oatFINAL.sol\":8510:8519  _buyCount */\n      sload(0x0d)\n        /* \"contracts/oatFINAL.sol\":8510:8537  _buyCount > _reduceBuyTaxAt */\n      gt\n        /* \"contracts/oatFINAL.sol\":8509:8626  (_buyCount > _reduceBuyTaxAt)... */\n      tag_275\n      jumpi\n        /* \"contracts/oatFINAL.sol\":8612:8626  _initialBuyTax */\n      sload(0x06)\n        /* \"contracts/oatFINAL.sol\":8509:8626  (_buyCount > _reduceBuyTaxAt)... */\n      jump(tag_276)\n    tag_275:\n        /* \"contracts/oatFINAL.sol\":8569:8581  _finalBuyTax */\n      sload(0x08)\n        /* \"contracts/oatFINAL.sol\":8509:8626  (_buyCount > _reduceBuyTaxAt)... */\n    tag_276:\n        /* \"contracts/oatFINAL.sol\":8454:8648  amount *... */\n      tag_277\n      swap1\n        /* \"contracts/oatFINAL.sol\":8454:8460  amount */\n      dup5\n        /* \"contracts/oatFINAL.sol\":8454:8648  amount *... */\n      tag_148\n      jump\t// in\n    tag_277:\n        /* \"contracts/oatFINAL.sol\":8453:8671  (amount *... */\n      tag_278\n      swap2\n      swap1\n      tag_279\n      jump\t// in\n    tag_278:\n        /* \"contracts/oatFINAL.sol\":8695:8708  uniswapV2Pair */\n      sload(0x13)\n        /* \"contracts/oatFINAL.sol\":8425:8671  taxAmount =... */\n      swap1\n      swap2\n      pop\n      sub(shl(0xa0, 0x01), 0x01)\n        /* \"contracts/oatFINAL.sol\":8689:8708  to == uniswapV2Pair */\n      dup5\n      dup2\n      and\n        /* \"contracts/oatFINAL.sol\":8695:8708  uniswapV2Pair */\n      swap2\n      and\n        /* \"contracts/oatFINAL.sol\":8689:8708  to == uniswapV2Pair */\n      eq\n        /* \"contracts/oatFINAL.sol\":8689:8733  to == uniswapV2Pair && from != address(this) */\n      dup1\n      iszero\n      tag_280\n      jumpi\n      pop\n      sub(shl(0xa0, 0x01), 0x01)\n        /* \"contracts/oatFINAL.sol\":8712:8733  from != address(this) */\n      dup5\n      and\n        /* \"contracts/oatFINAL.sol\":8728:8732  this */\n      address\n        /* \"contracts/oatFINAL.sol\":8712:8733  from != address(this) */\n      eq\n      iszero\n        /* \"contracts/oatFINAL.sol\":8689:8733  to == uniswapV2Pair && from != address(this) */\n    tag_280:\n        /* \"contracts/oatFINAL.sol\":8685:9045  if (to == uniswapV2Pair && from != address(this)) {... */\n      iszero\n      tag_281\n      jumpi\n        /* \"contracts/oatFINAL.sol\":9027:9030  100 */\n      0x64\n        /* \"contracts/oatFINAL.sol\":8862:8878  _reduceSellTaxAt */\n      sload(0x0b)\n        /* \"contracts/oatFINAL.sol\":8850:8859  _buyCount */\n      sload(0x0d)\n        /* \"contracts/oatFINAL.sol\":8850:8878  _buyCount > _reduceSellTaxAt */\n      gt\n        /* \"contracts/oatFINAL.sol\":8849:8977  (_buyCount > _reduceSellTaxAt)... */\n      tag_282\n      jumpi\n        /* \"contracts/oatFINAL.sol\":8962:8977  _initialSellTax */\n      sload(0x07)\n        /* \"contracts/oatFINAL.sol\":8849:8977  (_buyCount > _reduceSellTaxAt)... */\n      jump(tag_283)\n    tag_282:\n        /* \"contracts/oatFINAL.sol\":8914:8927  _finalSellTax */\n      sload(0x09)\n        /* \"contracts/oatFINAL.sol\":8849:8977  (_buyCount > _reduceSellTaxAt)... */\n    tag_283:\n        /* \"contracts/oatFINAL.sol\":8786:9003  amount *... */\n      tag_284\n      swap1\n        /* \"contracts/oatFINAL.sol\":8786:8792  amount */\n      dup5\n        /* \"contracts/oatFINAL.sol\":8786:9003  amount *... */\n      tag_148\n      jump\t// in\n    tag_284:\n        /* \"contracts/oatFINAL.sol\":8785:9030  (amount *... */\n      tag_285\n      swap2\n      swap1\n      tag_279\n      jump\t// in\n    tag_285:\n        /* \"contracts/oatFINAL.sol\":8753:9030  taxAmount =... */\n      swap1\n      pop\n        /* \"contracts/oatFINAL.sol\":8685:9045  if (to == uniswapV2Pair && from != address(this)) {... */\n    tag_281:\n        /* \"contracts/oatFINAL.sol\":9108:9112  this */\n      address\n        /* \"contracts/oatFINAL.sol\":9059:9087  uint256 contractTokenBalance */\n      0x00\n        /* \"contracts/oatFINAL.sol\":5764:5782  _balances[account] */\n      swap1\n      dup2\n      mstore\n        /* \"contracts/oatFINAL.sol\":5764:5773  _balances */\n      0x01\n        /* \"contracts/oatFINAL.sol\":5764:5782  _balances[account] */\n      0x20\n      mstore\n      0x40\n      swap1\n      keccak256\n      sload\n        /* \"contracts/oatFINAL.sol\":9150:9156  inSwap */\n      sload(0x13)\n      shl(0xa8, 0x01)\n      swap1\n      div\n      0xff\n      and\n        /* \"contracts/oatFINAL.sol\":9149:9156  !inSwap */\n      iszero\n        /* \"contracts/oatFINAL.sol\":9149:9195  !inSwap &&... */\n      dup1\n      iszero\n      tag_287\n      jumpi\n      pop\n        /* \"contracts/oatFINAL.sol\":9182:9195  uniswapV2Pair */\n      sload(0x13)\n      sub(shl(0xa0, 0x01), 0x01)\n        /* \"contracts/oatFINAL.sol\":9176:9195  to == uniswapV2Pair */\n      dup6\n      dup2\n      and\n        /* \"contracts/oatFINAL.sol\":9182:9195  uniswapV2Pair */\n      swap2\n      and\n        /* \"contracts/oatFINAL.sol\":9176:9195  to == uniswapV2Pair */\n      eq\n        /* \"contracts/oatFINAL.sol\":9149:9195  !inSwap &&... */\n    tag_287:\n        /* \"contracts/oatFINAL.sol\":9149:9226  !inSwap &&... */\n      dup1\n      iszero\n      tag_288\n      jumpi\n      pop\n        /* \"contracts/oatFINAL.sol\":9215:9226  swapEnabled */\n      sload(0x13)\n      shl(0xb0, 0x01)\n      swap1\n      div\n      0xff\n      and\n        /* \"contracts/oatFINAL.sol\":9149:9226  !inSwap &&... */\n    tag_288:\n        /* \"contracts/oatFINAL.sol\":9149:9286  !inSwap &&... */\n      dup1\n      iszero\n      tag_289\n      jumpi\n      pop\n        /* \"contracts/oatFINAL.sol\":9269:9286  _taxSwapThreshold */\n      sload(0x10)\n        /* \"contracts/oatFINAL.sol\":9246:9266  contractTokenBalance */\n      dup2\n        /* \"contracts/oatFINAL.sol\":9246:9286  contractTokenBalance > _taxSwapThreshold */\n      gt\n        /* \"contracts/oatFINAL.sol\":9149:9286  !inSwap &&... */\n    tag_289:\n        /* \"contracts/oatFINAL.sol\":9149:9336  !inSwap &&... */\n      dup1\n      iszero\n      tag_290\n      jumpi\n      pop\n        /* \"contracts/oatFINAL.sol\":9318:9336  _preventSwapBefore */\n      sload(0x0c)\n        /* \"contracts/oatFINAL.sol\":9306:9315  _buyCount */\n      sload(0x0d)\n        /* \"contracts/oatFINAL.sol\":9306:9336  _buyCount > _preventSwapBefore */\n      gt\n        /* \"contracts/oatFINAL.sol\":9149:9336  !inSwap &&... */\n    tag_290:\n        /* \"contracts/oatFINAL.sol\":9128:9680  if (... */\n      iszero\n      tag_291\n      jumpi\n        /* \"contracts/oatFINAL.sol\":9369:9476  swapTokensForEth(... */\n      tag_292\n        /* \"contracts/oatFINAL.sol\":9407:9458  min(amount, min(contractTokenBalance, _maxTaxSwap)) */\n      tag_293\n        /* \"contracts/oatFINAL.sol\":9411:9417  amount */\n      dup5\n        /* \"contracts/oatFINAL.sol\":9419:9457  min(contractTokenBalance, _maxTaxSwap) */\n      tag_294\n        /* \"contracts/oatFINAL.sol\":9423:9443  contractTokenBalance */\n      dup5\n        /* \"contracts/oatFINAL.sol\":9445:9456  _maxTaxSwap */\n      sload(0x11)\n        /* \"contracts/oatFINAL.sol\":9419:9422  min */\n      tag_295\n        /* \"contracts/oatFINAL.sol\":9419:9457  min(contractTokenBalance, _maxTaxSwap) */\n      jump\t// in\n    tag_294:\n        /* \"contracts/oatFINAL.sol\":9407:9410  min */\n      tag_295\n        /* \"contracts/oatFINAL.sol\":9407:9458  min(amount, min(contractTokenBalance, _maxTaxSwap)) */\n      jump\t// in\n    tag_293:\n        /* \"contracts/oatFINAL.sol\":9369:9385  swapTokensForEth */\n      tag_204\n        /* \"contracts/oatFINAL.sol\":9369:9476  swapTokensForEth(... */\n      jump\t// in\n    tag_292:\n        /* \"contracts/oatFINAL.sol\":9523:9544  address(this).balance */\n      selfbalance\n        /* \"contracts/oatFINAL.sol\":9566:9588  contractETHBalance > 0 */\n      dup1\n      iszero\n        /* \"contracts/oatFINAL.sol\":9562:9666  if (contractETHBalance > 0) {... */\n      tag_297\n      jumpi\n        /* \"contracts/oatFINAL.sol\":9612:9647  sendETHToFee(address(this).balance) */\n      tag_297\n        /* \"contracts/oatFINAL.sol\":9625:9646  address(this).balance */\n      selfbalance\n        /* \"contracts/oatFINAL.sol\":9612:9624  sendETHToFee */\n      tag_207\n        /* \"contracts/oatFINAL.sol\":9612:9647  sendETHToFee(address(this).balance) */\n      jump\t// in\n    tag_297:\n        /* \"contracts/oatFINAL.sol\":9351:9680  {... */\n      pop\n        /* \"contracts/oatFINAL.sol\":9128:9680  if (... */\n    tag_291:\n        /* \"contracts/oatFINAL.sol\":7482:9690  {... */\n      pop\n        /* \"contracts/oatFINAL.sol\":7444:9690  if (from != owner() && to != owner()) {... */\n    tag_254:\n        /* \"contracts/oatFINAL.sol\":9704:9717  taxAmount > 0 */\n      dup1\n      iszero\n        /* \"contracts/oatFINAL.sol\":9700:9866  if (taxAmount > 0) {... */\n      tag_298\n      jumpi\n        /* \"contracts/oatFINAL.sol\":9778:9782  this */\n      address\n        /* \"contracts/oatFINAL.sol\":9760:9784  _balances[address(this)] */\n      0x00\n      swap1\n      dup2\n      mstore\n        /* \"contracts/oatFINAL.sol\":9760:9769  _balances */\n      0x01\n        /* \"contracts/oatFINAL.sol\":9760:9784  _balances[address(this)] */\n      0x20\n      mstore\n      0x40\n      swap1\n      keccak256\n      sload\n        /* \"contracts/oatFINAL.sol\":9760:9796  _balances[address(this)] + taxAmount */\n      tag_299\n      swap1\n        /* \"contracts/oatFINAL.sol\":9787:9796  taxAmount */\n      dup3\n      swap1\n        /* \"contracts/oatFINAL.sol\":9760:9796  _balances[address(this)] + taxAmount */\n      tag_269\n      jump\t// in\n    tag_299:\n        /* \"contracts/oatFINAL.sol\":9751:9755  this */\n      address\n        /* \"contracts/oatFINAL.sol\":9733:9757  _balances[address(this)] */\n      0x00\n      dup2\n      dup2\n      mstore\n        /* \"contracts/oatFINAL.sol\":9733:9742  _balances */\n      0x01\n        /* \"contracts/oatFINAL.sol\":9733:9757  _balances[address(this)] */\n      0x20\n      mstore\n      0x40\n      swap1\n      dup2\n      swap1\n      keccak256\n        /* \"contracts/oatFINAL.sol\":9733:9796  _balances[address(this)] = _balances[address(this)] + taxAmount */\n      swap3\n      swap1\n      swap3\n      sstore\n        /* \"contracts/oatFINAL.sol\":9815:9855  Transfer(from, address(this), taxAmount) */\n      swap1\n      mload\n      sub(shl(0xa0, 0x01), 0x01)\n      dup7\n      and\n      swap1\n      0xddf252ad1be2c89b69c2b068fc378daa952ba7f163c4a11628f55a4df523b3ef\n      swap1\n      tag_300\n      swap1\n        /* \"contracts/oatFINAL.sol\":9845:9854  taxAmount */\n      dup6\n        /* \"#utility.yul\":1410:1435   */\n      dup2\n      mstore\n        /* \"#utility.yul\":1398:1400   */\n      0x20\n        /* \"#utility.yul\":1383:1401   */\n      add\n      swap1\n        /* \"#utility.yul\":1264:1441   */\n      jump\n        /* \"contracts/oatFINAL.sol\":9815:9855  Transfer(from, address(this), taxAmount) */\n    tag_300:\n      mload(0x40)\n      dup1\n      swap2\n      sub\n      swap1\n      log3\n        /* \"contracts/oatFINAL.sol\":9700:9866  if (taxAmount > 0) {... */\n    tag_298:\n      sub(shl(0xa0, 0x01), 0x01)\n        /* \"contracts/oatFINAL.sol\":9893:9908  _balances[from] */\n      dup5\n      and\n      0x00\n      swap1\n      dup2\n      mstore\n        /* \"contracts/oatFINAL.sol\":9893:9902  _balances */\n      0x01\n        /* \"contracts/oatFINAL.sol\":9893:9908  _balances[from] */\n      0x20\n      mstore\n      0x40\n      swap1\n      keccak256\n      sload\n        /* \"contracts/oatFINAL.sol\":9893:9917  _balances[from] - amount */\n      tag_301\n      swap1\n        /* \"contracts/oatFINAL.sol\":9911:9917  amount */\n      dup4\n      swap1\n        /* \"contracts/oatFINAL.sol\":9893:9917  _balances[from] - amount */\n      tag_196\n      jump\t// in\n    tag_301:\n      sub(shl(0xa0, 0x01), 0x01)\n        /* \"contracts/oatFINAL.sol\":9875:9890  _balances[from] */\n      dup6\n      and\n      0x00\n      swap1\n      dup2\n      mstore\n        /* \"contracts/oatFINAL.sol\":9875:9884  _balances */\n      0x01\n        /* \"contracts/oatFINAL.sol\":9875:9890  _balances[from] */\n      0x20\n      mstore\n      0x40\n      swap1\n      keccak256\n        /* \"contracts/oatFINAL.sol\":9875:9917  _balances[from] = _balances[from] - amount */\n      sstore\n        /* \"contracts/oatFINAL.sol\":9960:9978  amount - taxAmount */\n      tag_302\n        /* \"contracts/oatFINAL.sol\":9969:9978  taxAmount */\n      dup2\n        /* \"contracts/oatFINAL.sol\":9960:9966  amount */\n      dup4\n        /* \"contracts/oatFINAL.sol\":9960:9978  amount - taxAmount */\n      tag_196\n      jump\t// in\n    tag_302:\n      sub(shl(0xa0, 0x01), 0x01)\n        /* \"contracts/oatFINAL.sol\":9943:9956  _balances[to] */\n      dup5\n      and\n      0x00\n      swap1\n      dup2\n      mstore\n        /* \"contracts/oatFINAL.sol\":9943:9952  _balances */\n      0x01\n        /* \"contracts/oatFINAL.sol\":9943:9956  _balances[to] */\n      0x20\n      mstore\n      0x40\n      swap1\n      keccak256\n      sload\n        /* \"contracts/oatFINAL.sol\":9943:9979  _balances[to] + (amount - taxAmount) */\n      tag_303\n      swap2\n      swap1\n      tag_269\n      jump\t// in\n    tag_303:\n      sub(shl(0xa0, 0x01), 0x01)\n        /* \"contracts/oatFINAL.sol\":9927:9940  _balances[to] */\n      dup1\n      dup6\n      and\n      0x00\n      dup2\n      dup2\n      mstore\n        /* \"contracts/oatFINAL.sol\":9927:9936  _balances */\n      0x01\n        /* \"contracts/oatFINAL.sol\":9927:9940  _balances[to] */\n      0x20\n      mstore\n      0x40\n      swap1\n      keccak256\n        /* \"contracts/oatFINAL.sol\":9927:9979  _balances[to] = _balances[to] + (amount - taxAmount) */\n      swap3\n      swap1\n      swap3\n      sstore\n        /* \"contracts/oatFINAL.sol\":9994:10032  Transfer(from, to, amount - taxAmount) */\n      dup6\n      and\n      0xddf252ad1be2c89b69c2b068fc378daa952ba7f163c4a11628f55a4df523b3ef\n        /* \"contracts/oatFINAL.sol\":10013:10031  amount - taxAmount */\n      tag_304\n        /* \"contracts/oatFINAL.sol\":10022:10031  taxAmount */\n      dup5\n        /* \"contracts/oatFINAL.sol\":10013:10019  amount */\n      dup7\n        /* \"contracts/oatFINAL.sol\":10013:10031  amount - taxAmount */\n      tag_196\n      jump\t// in\n    tag_304:\n        /* \"contracts/oatFINAL.sol\":9994:10032  Transfer(from, to, amount - taxAmount) */\n      mload(0x40)\n        /* \"#utility.yul\":1410:1435   */\n      swap1\n      dup2\n      mstore\n        /* \"#utility.yul\":1398:1400   */\n      0x20\n        /* \"#utility.yul\":1383:1401   */\n      add\n        /* \"contracts/oatFINAL.sol\":9994:10032  Transfer(from, to, amount - taxAmount) */\n      mload(0x40)\n      dup1\n      swap2\n      sub\n      swap1\n      log3\n        /* \"contracts/oatFINAL.sol\":7177:10039  {... */\n      pop\n        /* \"contracts/oatFINAL.sol\":7078:10039  function _transfer(... */\n      pop\n      pop\n      pop\n      jump\t// out\n        /* \"contracts/oatFINAL.sol\":10156:10747  function swapTokensForEth(uint256 tokenAmount) private lockTheSwap {... */\n    tag_204:\n        /* \"contracts/oatFINAL.sol\":4885:4891  inSwap */\n      0x13\n        /* \"contracts/oatFINAL.sol\":4885:4898  inSwap = true */\n      dup1\n      sload\n      not(shl(0xa8, 0xff))\n      and\n      shl(0xa8, 0x01)\n      or\n      swap1\n      sstore\n        /* \"contracts/oatFINAL.sol\":10237:10253  tokenAmount == 0 */\n      dup1\n        /* \"contracts/oatFINAL.sol\":10233:10286  if (tokenAmount == 0) {... */\n      tag_308\n      jumpi\n        /* \"contracts/oatFINAL.sol\":10269:10276  return; */\n      jump(tag_307)\n        /* \"contracts/oatFINAL.sol\":10233:10286  if (tokenAmount == 0) {... */\n    tag_308:\n        /* \"contracts/oatFINAL.sol\":10300:10311  tradingOpen */\n      sload(0x13)\n      shl(0xa0, 0x01)\n      swap1\n      div\n      0xff\n      and\n        /* \"contracts/oatFINAL.sol\":10295:10344  if (!tradingOpen) {... */\n      tag_309\n      jumpi\n        /* \"contracts/oatFINAL.sol\":10327:10334  return; */\n      jump(tag_307)\n        /* \"contracts/oatFINAL.sol\":10295:10344  if (!tradingOpen) {... */\n    tag_309:\n        /* \"contracts/oatFINAL.sol\":10377:10393  new address[](2) */\n      0x40\n      dup1\n      mload\n        /* \"contracts/oatFINAL.sol\":10391:10392  2 */\n      0x02\n        /* \"contracts/oatFINAL.sol\":10377:10393  new address[](2) */\n      dup1\n      dup3\n      mstore\n      0x60\n      dup3\n      add\n      dup4\n      mstore\n        /* \"contracts/oatFINAL.sol\":10353:10374  address[] memory path */\n      0x00\n      swap3\n        /* \"contracts/oatFINAL.sol\":10377:10393  new address[](2) */\n      0x20\n      dup4\n      add\n      swap1\n      dup1\n      calldatasize\n      dup4\n      calldatacopy\n      add\n      swap1\n      pop\n      pop\n        /* \"contracts/oatFINAL.sol\":10353:10393  address[] memory path = new address[](2) */\n      swap1\n      pop\n        /* \"contracts/oatFINAL.sol\":10421:10425  this */\n      address\n        /* \"contracts/oatFINAL.sol\":10403:10407  path */\n      dup2\n        /* \"contracts/oatFINAL.sol\":10408:10409  0 */\n      0x00\n        /* \"contracts/oatFINAL.sol\":10403:10410  path[0] */\n      dup2\n      mload\n      dup2\n      lt\n      tag_315\n      jumpi\n      tag_315\n      tag_316\n      jump\t// in\n    tag_315:\n      sub(shl(0xa0, 0x01), 0x01)\n        /* \"contracts/oatFINAL.sol\":10403:10426  path[0] = address(this) */\n      swap3\n      dup4\n      and\n        /* \"contracts/oatFINAL.sol\":10403:10410  path[0] */\n      0x20\n      swap2\n      dup3\n      mul\n      swap3\n      swap1\n      swap3\n      add\n      dup2\n      add\n        /* \"contracts/oatFINAL.sol\":10403:10426  path[0] = address(this) */\n      swap2\n      swap1\n      swap2\n      mstore\n        /* \"contracts/oatFINAL.sol\":10446:10461  uniswapV2Router */\n      sload(0x12)\n        /* \"contracts/oatFINAL.sol\":10446:10468  uniswapV2Router.WETH() */\n      0x40\n      dup1\n      mload\n      shl(0xe3, 0x15ab88c9)\n      dup2\n      mstore\n      swap1\n      mload\n        /* \"contracts/oatFINAL.sol\":10446:10461  uniswapV2Router */\n      swap2\n      swap1\n      swap4\n      and\n      swap3\n        /* \"contracts/oatFINAL.sol\":10446:10466  uniswapV2Router.WETH */\n      0xad5c4648\n      swap3\n        /* \"contracts/oatFINAL.sol\":10446:10468  uniswapV2Router.WETH() */\n      0x04\n      dup1\n      dup4\n      add\n      swap4\n        /* \"contracts/oatFINAL.sol\":10403:10410  path[0] */\n      swap2\n      swap3\n        /* \"contracts/oatFINAL.sol\":10446:10468  uniswapV2Router.WETH() */\n      dup3\n      swap1\n      sub\n      add\n      dup2\n        /* \"contracts/oatFINAL.sol\":10446:10461  uniswapV2Router */\n      dup7\n        /* \"contracts/oatFINAL.sol\":10446:10468  uniswapV2Router.WETH() */\n      gas\n      staticcall\n      iszero\n      dup1\n      iszero\n      tag_318\n      jumpi\n      returndatasize\n      0x00\n      dup1\n      returndatacopy\n      revert(0x00, returndatasize)\n    tag_318:\n      pop\n      pop\n      pop\n      pop\n      mload(0x40)\n      returndatasize\n      not(0x1f)\n      0x1f\n      dup3\n      add\n      and\n      dup3\n      add\n      dup1\n      0x40\n      mstore\n      pop\n      dup2\n      add\n      swap1\n      tag_319\n      swap2\n      swap1\n      tag_153\n      jump\t// in\n    tag_319:\n        /* \"contracts/oatFINAL.sol\":10436:10440  path */\n      dup2\n        /* \"contracts/oatFINAL.sol\":10441:10442  1 */\n      0x01\n        /* \"contracts/oatFINAL.sol\":10436:10443  path[1] */\n      dup2\n      mload\n      dup2\n      lt\n      tag_321\n      jumpi\n      tag_321\n      tag_316\n      jump\t// in\n    tag_321:\n      sub(shl(0xa0, 0x01), 0x01)\n        /* \"contracts/oatFINAL.sol\":10436:10468  path[1] = uniswapV2Router.WETH() */\n      swap3\n      dup4\n      and\n        /* \"contracts/oatFINAL.sol\":10436:10443  path[1] */\n      0x20\n      swap2\n      dup3\n      mul\n      swap3\n      swap1\n      swap3\n      add\n      add\n        /* \"contracts/oatFINAL.sol\":10436:10468  path[1] = uniswapV2Router.WETH() */\n      mstore\n        /* \"contracts/oatFINAL.sol\":10510:10525  uniswapV2Router */\n      sload(0x12)\n        /* \"contracts/oatFINAL.sol\":10478:10540  _approve(address(this), address(uniswapV2Router), tokenAmount) */\n      tag_322\n      swap2\n        /* \"contracts/oatFINAL.sol\":10495:10499  this */\n      address\n      swap2\n        /* \"contracts/oatFINAL.sol\":10510:10525  uniswapV2Router */\n      and\n        /* \"contracts/oatFINAL.sol\":10528:10539  tokenAmount */\n      dup5\n        /* \"contracts/oatFINAL.sol\":10478:10486  _approve */\n      tag_149\n        /* \"contracts/oatFINAL.sol\":10478:10540  _approve(address(this), address(uniswapV2Router), tokenAmount) */\n      jump\t// in\n    tag_322:\n        /* \"contracts/oatFINAL.sol\":10550:10565  uniswapV2Router */\n      sload(0x12)\n        /* \"contracts/oatFINAL.sol\":10550:10740  uniswapV2Router.swapExactTokensForETHSupportingFeeOnTransferTokens(... */\n      mload(0x40)\n      shl(0xe0, 0x791ac947)\n      dup2\n      mstore\n      sub(shl(0xa0, 0x01), 0x01)\n        /* \"contracts/oatFINAL.sol\":10550:10565  uniswapV2Router */\n      swap1\n      swap2\n      and\n      swap1\n        /* \"contracts/oatFINAL.sol\":10550:10616  uniswapV2Router.swapExactTokensForETHSupportingFeeOnTransferTokens */\n      0x791ac947\n      swap1\n        /* \"contracts/oatFINAL.sol\":10550:10740  uniswapV2Router.swapExactTokensForETHSupportingFeeOnTransferTokens(... */\n      tag_323\n      swap1\n        /* \"contracts/oatFINAL.sol\":10630:10641  tokenAmount */\n      dup6\n      swap1\n        /* \"contracts/oatFINAL.sol\":10550:10565  uniswapV2Router */\n      0x00\n      swap1\n        /* \"contracts/oatFINAL.sol\":10670:10674  path */\n      dup7\n      swap1\n        /* \"contracts/oatFINAL.sol\":10696:10700  this */\n      address\n      swap1\n        /* \"contracts/oatFINAL.sol\":10715:10730  block.timestamp */\n      timestamp\n      swap1\n        /* \"contracts/oatFINAL.sol\":10550:10740  uniswapV2Router.swapExactTokensForETHSupportingFeeOnTransferTokens(... */\n      0x04\n      add\n      tag_324\n      jump\t// in\n    tag_323:\n      0x00\n      mload(0x40)\n      dup1\n      dup4\n      sub\n      dup2\n      0x00\n      dup8\n      dup1\n      extcodesize\n      iszero\n      dup1\n      iszero\n      tag_325\n      jumpi\n      0x00\n      dup1\n      revert\n    tag_325:\n      pop\n      gas\n      call\n      iszero\n      dup1\n      iszero\n      tag_327\n      jumpi\n      returndatasize\n      0x00\n      dup1\n      returndatacopy\n      revert(0x00, returndatasize)\n    tag_327:\n      pop\n      pop\n      pop\n      pop\n        /* \"contracts/oatFINAL.sol\":10223:10747  {... */\n      pop\n        /* \"contracts/oatFINAL.sol\":4908:4909  _ */\n    tag_307:\n      pop\n        /* \"contracts/oatFINAL.sol\":4919:4925  inSwap */\n      0x13\n        /* \"contracts/oatFINAL.sol\":4919:4933  inSwap = false */\n      dup1\n      sload\n      not(shl(0xa8, 0xff))\n      and\n      swap1\n      sstore\n        /* \"contracts/oatFINAL.sol\":10156:10747  function swapTokensForEth(uint256 tokenAmount) private lockTheSwap {... */\n      jump\t// out\n        /* \"contracts/oatFINAL.sol\":11014:11104  function sendETHToFee(uint256 amount) private {... */\n    tag_207:\n        /* \"contracts/oatFINAL.sol\":11070:11080  _taxWallet */\n      sload(0x05)\n        /* \"contracts/oatFINAL.sol\":11070:11097  _taxWallet.transfer(amount) */\n      mload(0x40)\n        /* \"contracts/oatFINAL.sol\":11070:11080  _taxWallet */\n      0x0100\n      swap1\n      swap2\n      div\n      sub(shl(0xa0, 0x01), 0x01)\n      and\n      swap1\n        /* \"contracts/oatFINAL.sol\":11070:11097  _taxWallet.transfer(amount) */\n      0x08fc\n      dup4\n      iszero\n      mul\n      swap1\n      dup4\n      swap1\n      0x00\n      dup2\n      dup2\n      dup2\n      dup6\n        /* \"contracts/oatFINAL.sol\":11070:11080  _taxWallet */\n      dup9\n        /* \"contracts/oatFINAL.sol\":11070:11097  _taxWallet.transfer(amount) */\n      dup9\n      call\n      swap4\n      pop\n      pop\n      pop\n      pop\n      iszero\n      dup1\n      iszero\n      tag_206\n      jumpi\n      returndatasize\n      0x00\n      dup1\n      returndatacopy\n      revert(0x00, returndatasize)\n        /* \"contracts/oatFINAL.sol\":10045:10150  function min(uint256 a, uint256 b) private pure returns (uint256) {... */\n    tag_295:\n        /* \"contracts/oatFINAL.sol\":10102:10109  uint256 */\n      0x00\n        /* \"contracts/oatFINAL.sol\":10133:10134  b */\n      dup2\n        /* \"contracts/oatFINAL.sol\":10129:10130  a */\n      dup4\n        /* \"contracts/oatFINAL.sol\":10129:10134  a > b */\n      gt\n        /* \"contracts/oatFINAL.sol\":10128:10143  (a > b) ? b : a */\n      tag_332\n      jumpi\n        /* \"contracts/oatFINAL.sol\":10142:10143  a */\n      dup3\n        /* \"contracts/oatFINAL.sol\":10128:10143  (a > b) ? b : a */\n      jump(tag_333)\n    tag_332:\n        /* \"contracts/oatFINAL.sol\":10138:10139  b */\n      dup2\n        /* \"contracts/oatFINAL.sol\":10128:10143  (a > b) ? b : a */\n    tag_333:\n        /* \"contracts/oatFINAL.sol\":10121:10143  return (a > b) ? b : a */\n      swap4\n        /* \"contracts/oatFINAL.sol\":10045:10150  function min(uint256 a, uint256 b) private pure returns (uint256) {... */\n      swap3\n      pop\n      pop\n      pop\n      jump\t// out\n        /* \"#utility.yul\":14:611   */\n    tag_38:\n        /* \"#utility.yul\":126:130   */\n      0x00\n        /* \"#utility.yul\":155:157   */\n      0x20\n        /* \"#utility.yul\":184:186   */\n      dup1\n        /* \"#utility.yul\":173:182   */\n      dup4\n        /* \"#utility.yul\":166:187   */\n      mstore\n        /* \"#utility.yul\":216:222   */\n      dup4\n        /* \"#utility.yul\":210:223   */\n      mload\n        /* \"#utility.yul\":259:265   */\n      dup1\n        /* \"#utility.yul\":254:256   */\n      dup3\n        /* \"#utility.yul\":243:252   */\n      dup6\n        /* \"#utility.yul\":239:257   */\n      add\n        /* \"#utility.yul\":232:266   */\n      mstore\n        /* \"#utility.yul\":284:285   */\n      0x00\n        /* \"#utility.yul\":294:434   */\n    tag_340:\n        /* \"#utility.yul\":308:314   */\n      dup2\n        /* \"#utility.yul\":305:306   */\n      dup2\n        /* \"#utility.yul\":302:315   */\n      lt\n        /* \"#utility.yul\":294:434   */\n      iszero\n      tag_342\n      jumpi\n        /* \"#utility.yul\":403:417   */\n      dup6\n      dup2\n      add\n        /* \"#utility.yul\":399:422   */\n      dup4\n      add\n        /* \"#utility.yul\":393:423   */\n      mload\n        /* \"#utility.yul\":369:386   */\n      dup6\n      dup3\n      add\n        /* \"#utility.yul\":388:390   */\n      0x40\n        /* \"#utility.yul\":365:391   */\n      add\n        /* \"#utility.yul\":358:424   */\n      mstore\n        /* \"#utility.yul\":323:333   */\n      dup3\n      add\n        /* \"#utility.yul\":294:434   */\n      jump(tag_340)\n    tag_342:\n        /* \"#utility.yul\":452:458   */\n      dup2\n        /* \"#utility.yul\":449:450   */\n      dup2\n        /* \"#utility.yul\":446:459   */\n      gt\n        /* \"#utility.yul\":443:534   */\n      iszero\n      tag_343\n      jumpi\n        /* \"#utility.yul\":522:523   */\n      0x00\n        /* \"#utility.yul\":517:519   */\n      0x40\n        /* \"#utility.yul\":508:514   */\n      dup4\n        /* \"#utility.yul\":497:506   */\n      dup8\n        /* \"#utility.yul\":493:515   */\n      add\n        /* \"#utility.yul\":489:520   */\n      add\n        /* \"#utility.yul\":482:524   */\n      mstore\n        /* \"#utility.yul\":443:534   */\n    tag_343:\n      pop\n        /* \"#utility.yul\":595:597   */\n      0x1f\n        /* \"#utility.yul\":574:589   */\n      add\n      not(0x1f)\n        /* \"#utility.yul\":570:599   */\n      and\n        /* \"#utility.yul\":555:600   */\n      swap3\n      swap1\n      swap3\n      add\n        /* \"#utility.yul\":602:604   */\n      0x40\n        /* \"#utility.yul\":551:605   */\n      add\n      swap4\n        /* \"#utility.yul\":14:611   */\n      swap3\n      pop\n      pop\n      pop\n      jump\t// out\n        /* \"#utility.yul\":616:747   */\n    tag_334:\n      sub(shl(0xa0, 0x01), 0x01)\n        /* \"#utility.yul\":691:722   */\n      dup2\n      and\n        /* \"#utility.yul\":681:723   */\n      dup2\n      eq\n        /* \"#utility.yul\":671:741   */\n      tag_345\n      jumpi\n        /* \"#utility.yul\":737:738   */\n      0x00\n        /* \"#utility.yul\":734:735   */\n      dup1\n        /* \"#utility.yul\":727:739   */\n      revert\n        /* \"#utility.yul\":671:741   */\n    tag_345:\n        /* \"#utility.yul\":616:747   */\n      pop\n      jump\t// out\n        /* \"#utility.yul\":752:1067   */\n    tag_42:\n        /* \"#utility.yul\":820:826   */\n      0x00\n        /* \"#utility.yul\":828:834   */\n      dup1\n        /* \"#utility.yul\":881:883   */\n      0x40\n        /* \"#utility.yul\":869:878   */\n      dup4\n        /* \"#utility.yul\":860:867   */\n      dup6\n        /* \"#utility.yul\":856:879   */\n      sub\n        /* \"#utility.yul\":852:884   */\n      slt\n        /* \"#utility.yul\":849:901   */\n      iszero\n      tag_347\n      jumpi\n        /* \"#utility.yul\":897:898   */\n      0x00\n        /* \"#utility.yul\":894:895   */\n      dup1\n        /* \"#utility.yul\":887:899   */\n      revert\n        /* \"#utility.yul\":849:901   */\n    tag_347:\n        /* \"#utility.yul\":936:945   */\n      dup3\n        /* \"#utility.yul\":923:946   */\n      calldataload\n        /* \"#utility.yul\":955:986   */\n      tag_348\n        /* \"#utility.yul\":980:985   */\n      dup2\n        /* \"#utility.yul\":955:986   */\n      tag_334\n      jump\t// in\n    tag_348:\n        /* \"#utility.yul\":1005:1010   */\n      swap5\n        /* \"#utility.yul\":1057:1059   */\n      0x20\n        /* \"#utility.yul\":1042:1060   */\n      swap4\n      swap1\n      swap4\n      add\n        /* \"#utility.yul\":1029:1061   */\n      calldataload\n      swap4\n      pop\n      pop\n      pop\n        /* \"#utility.yul\":752:1067   */\n      jump\t// out\n        /* \"#utility.yul\":1446:1626   */\n    tag_54:\n        /* \"#utility.yul\":1505:1511   */\n      0x00\n        /* \"#utility.yul\":1558:1560   */\n      0x20\n        /* \"#utility.yul\":1546:1555   */\n      dup3\n        /* \"#utility.yul\":1537:1544   */\n      dup5\n        /* \"#utility.yul\":1533:1556   */\n      sub\n        /* \"#utility.yul\":1529:1561   */\n      slt\n        /* \"#utility.yul\":1526:1578   */\n      iszero\n      tag_352\n      jumpi\n        /* \"#utility.yul\":1574:1575   */\n      0x00\n        /* \"#utility.yul\":1571:1572   */\n      dup1\n        /* \"#utility.yul\":1564:1576   */\n      revert\n        /* \"#utility.yul\":1526:1578   */\n    tag_352:\n      pop\n        /* \"#utility.yul\":1597:1620   */\n      calldataload\n      swap2\n        /* \"#utility.yul\":1446:1626   */\n      swap1\n      pop\n      jump\t// out\n        /* \"#utility.yul\":1631:2087   */\n    tag_67:\n        /* \"#utility.yul\":1708:1714   */\n      0x00\n        /* \"#utility.yul\":1716:1722   */\n      dup1\n        /* \"#utility.yul\":1724:1730   */\n      0x00\n        /* \"#utility.yul\":1777:1779   */\n      0x60\n        /* \"#utility.yul\":1765:1774   */\n      dup5\n        /* \"#utility.yul\":1756:1763   */\n      dup7\n        /* \"#utility.yul\":1752:1775   */\n      sub\n        /* \"#utility.yul\":1748:1780   */\n      slt\n        /* \"#utility.yul\":1745:1797   */\n      iszero\n      tag_354\n      jumpi\n        /* \"#utility.yul\":1793:1794   */\n      0x00\n        /* \"#utility.yul\":1790:1791   */\n      dup1\n        /* \"#utility.yul\":1783:1795   */\n      revert\n        /* \"#utility.yul\":1745:1797   */\n    tag_354:\n        /* \"#utility.yul\":1832:1841   */\n      dup4\n        /* \"#utility.yul\":1819:1842   */\n      calldataload\n        /* \"#utility.yul\":1851:1882   */\n      tag_355\n        /* \"#utility.yul\":1876:1881   */\n      dup2\n        /* \"#utility.yul\":1851:1882   */\n      tag_334\n      jump\t// in\n    tag_355:\n        /* \"#utility.yul\":1901:1906   */\n      swap3\n      pop\n        /* \"#utility.yul\":1958:1960   */\n      0x20\n        /* \"#utility.yul\":1943:1961   */\n      dup5\n      add\n        /* \"#utility.yul\":1930:1962   */\n      calldataload\n        /* \"#utility.yul\":1971:2004   */\n      tag_356\n        /* \"#utility.yul\":1930:1962   */\n      dup2\n        /* \"#utility.yul\":1971:2004   */\n      tag_334\n      jump\t// in\n    tag_356:\n        /* \"#utility.yul\":1631:2087   */\n      swap3\n      swap6\n        /* \"#utility.yul\":2023:2030   */\n      swap3\n      swap5\n      pop\n      pop\n      pop\n        /* \"#utility.yul\":2077:2079   */\n      0x40\n        /* \"#utility.yul\":2062:2080   */\n      swap2\n      swap1\n      swap2\n      add\n        /* \"#utility.yul\":2049:2081   */\n      calldataload\n      swap1\n        /* \"#utility.yul\":1631:2087   */\n      jump\t// out\n        /* \"#utility.yul\":2281:2528   */\n    tag_81:\n        /* \"#utility.yul\":2340:2346   */\n      0x00\n        /* \"#utility.yul\":2393:2395   */\n      0x20\n        /* \"#utility.yul\":2381:2390   */\n      dup3\n        /* \"#utility.yul\":2372:2379   */\n      dup5\n        /* \"#utility.yul\":2368:2391   */\n      sub\n        /* \"#utility.yul\":2364:2396   */\n      slt\n        /* \"#utility.yul\":2361:2413   */\n      iszero\n      tag_359\n      jumpi\n        /* \"#utility.yul\":2409:2410   */\n      0x00\n        /* \"#utility.yul\":2406:2407   */\n      dup1\n        /* \"#utility.yul\":2399:2411   */\n      revert\n        /* \"#utility.yul\":2361:2413   */\n    tag_359:\n        /* \"#utility.yul\":2448:2457   */\n      dup2\n        /* \"#utility.yul\":2435:2458   */\n      calldataload\n        /* \"#utility.yul\":2467:2498   */\n      tag_333\n        /* \"#utility.yul\":2492:2497   */\n      dup2\n        /* \"#utility.yul\":2467:2498   */\n      tag_334\n      jump\t// in\n        /* \"#utility.yul\":2741:3129   */\n    tag_131:\n        /* \"#utility.yul\":2809:2815   */\n      0x00\n        /* \"#utility.yul\":2817:2823   */\n      dup1\n        /* \"#utility.yul\":2870:2872   */\n      0x40\n        /* \"#utility.yul\":2858:2867   */\n      dup4\n        /* \"#utility.yul\":2849:2856   */\n      dup6\n        /* \"#utility.yul\":2845:2868   */\n      sub\n        /* \"#utility.yul\":2841:2873   */\n      slt\n        /* \"#utility.yul\":2838:2890   */\n      iszero\n      tag_363\n      jumpi\n        /* \"#utility.yul\":2886:2887   */\n      0x00\n        /* \"#utility.yul\":2883:2884   */\n      dup1\n        /* \"#utility.yul\":2876:2888   */\n      revert\n        /* \"#utility.yul\":2838:2890   */\n    tag_363:\n        /* \"#utility.yul\":2925:2934   */\n      dup3\n        /* \"#utility.yul\":2912:2935   */\n      calldataload\n        /* \"#utility.yul\":2944:2975   */\n      tag_364\n        /* \"#utility.yul\":2969:2974   */\n      dup2\n        /* \"#utility.yul\":2944:2975   */\n      tag_334\n      jump\t// in\n    tag_364:\n        /* \"#utility.yul\":2994:2999   */\n      swap2\n      pop\n        /* \"#utility.yul\":3051:3053   */\n      0x20\n        /* \"#utility.yul\":3036:3054   */\n      dup4\n      add\n        /* \"#utility.yul\":3023:3055   */\n      calldataload\n        /* \"#utility.yul\":3064:3097   */\n      tag_365\n        /* \"#utility.yul\":3023:3055   */\n      dup2\n        /* \"#utility.yul\":3064:3097   */\n      tag_334\n      jump\t// in\n    tag_365:\n        /* \"#utility.yul\":3116:3123   */\n      dup1\n        /* \"#utility.yul\":3106:3123   */\n      swap2\n      pop\n      pop\n        /* \"#utility.yul\":2741:3129   */\n      swap3\n      pop\n      swap3\n      swap1\n      pop\n      jump\t// out\n        /* \"#utility.yul\":3134:3490   */\n    tag_139:\n        /* \"#utility.yul\":3336:3338   */\n      0x20\n        /* \"#utility.yul\":3318:3339   */\n      dup1\n      dup3\n      mstore\n        /* \"#utility.yul\":3355:3373   */\n      dup2\n      dup2\n      add\n        /* \"#utility.yul\":3348:3378   */\n      mstore\n        /* \"#utility.yul\":3414:3448   */\n      0x4f776e61626c653a2063616c6c6572206973206e6f7420746865206f776e6572\n        /* \"#utility.yul\":3409:3411   */\n      0x40\n        /* \"#utility.yul\":3394:3412   */\n      dup3\n      add\n        /* \"#utility.yul\":3387:3449   */\n      mstore\n        /* \"#utility.yul\":3481:3483   */\n      0x60\n        /* \"#utility.yul\":3466:3484   */\n      add\n      swap1\n        /* \"#utility.yul\":3134:3490   */\n      jump\t// out\n        /* \"#utility.yul\":3847:3974   */\n    tag_335:\n        /* \"#utility.yul\":3908:3918   */\n      0x4e487b71\n        /* \"#utility.yul\":3903:3906   */\n      0xe0\n        /* \"#utility.yul\":3899:3919   */\n      shl\n        /* \"#utility.yul\":3896:3897   */\n      0x00\n        /* \"#utility.yul\":3889:3920   */\n      mstore\n        /* \"#utility.yul\":3939:3943   */\n      0x11\n        /* \"#utility.yul\":3936:3937   */\n      0x04\n        /* \"#utility.yul\":3929:3944   */\n      mstore\n        /* \"#utility.yul\":3963:3967   */\n      0x24\n        /* \"#utility.yul\":3960:3961   */\n      0x00\n        /* \"#utility.yul\":3953:3968   */\n      revert\n        /* \"#utility.yul\":3979:4401   */\n    tag_336:\n        /* \"#utility.yul\":4068:4069   */\n      0x01\n        /* \"#utility.yul\":4111:4116   */\n      dup2\n        /* \"#utility.yul\":4068:4069   */\n      dup2\n        /* \"#utility.yul\":4125:4395   */\n    tag_370:\n        /* \"#utility.yul\":4146:4153   */\n      dup1\n        /* \"#utility.yul\":4136:4144   */\n      dup6\n        /* \"#utility.yul\":4133:4154   */\n      gt\n        /* \"#utility.yul\":4125:4395   */\n      iszero\n      tag_372\n      jumpi\n        /* \"#utility.yul\":4205:4209   */\n      dup2\n        /* \"#utility.yul\":4201:4202   */\n      0x00\n        /* \"#utility.yul\":4197:4203   */\n      not\n        /* \"#utility.yul\":4193:4210   */\n      div\n        /* \"#utility.yul\":4187:4191   */\n      dup3\n        /* \"#utility.yul\":4184:4211   */\n      gt\n        /* \"#utility.yul\":4181:4234   */\n      iszero\n      tag_374\n      jumpi\n        /* \"#utility.yul\":4214:4232   */\n      tag_374\n      tag_335\n      jump\t// in\n    tag_374:\n        /* \"#utility.yul\":4264:4271   */\n      dup1\n        /* \"#utility.yul\":4254:4262   */\n      dup6\n        /* \"#utility.yul\":4250:4272   */\n      and\n        /* \"#utility.yul\":4247:4302   */\n      iszero\n      tag_375\n      jumpi\n        /* \"#utility.yul\":4284:4300   */\n      swap2\n      dup2\n      mul\n      swap2\n        /* \"#utility.yul\":4247:4302   */\n    tag_375:\n        /* \"#utility.yul\":4363:4385   */\n      swap4\n      dup5\n      shr\n      swap4\n        /* \"#utility.yul\":4323:4338   */\n      swap1\n      dup1\n      mul\n      swap1\n        /* \"#utility.yul\":4125:4395   */\n      jump(tag_370)\n    tag_372:\n        /* \"#utility.yul\":4129:4132   */\n      pop\n        /* \"#utility.yul\":3979:4401   */\n      swap3\n      pop\n      swap3\n      swap1\n      pop\n      jump\t// out\n        /* \"#utility.yul\":4406:5212   */\n    tag_337:\n        /* \"#utility.yul\":4455:4460   */\n      0x00\n        /* \"#utility.yul\":4485:4493   */\n      dup3\n        /* \"#utility.yul\":4475:4555   */\n      tag_377\n      jumpi\n      pop\n        /* \"#utility.yul\":4526:4527   */\n      0x01\n        /* \"#utility.yul\":4540:4545   */\n      jump(tag_177)\n        /* \"#utility.yul\":4475:4555   */\n    tag_377:\n        /* \"#utility.yul\":4574:4578   */\n      dup2\n        /* \"#utility.yul\":4564:4640   */\n      tag_378\n      jumpi\n      pop\n        /* \"#utility.yul\":4611:4612   */\n      0x00\n        /* \"#utility.yul\":4625:4630   */\n      jump(tag_177)\n        /* \"#utility.yul\":4564:4640   */\n    tag_378:\n        /* \"#utility.yul\":4656:4660   */\n      dup2\n        /* \"#utility.yul\":4674:4675   */\n      0x01\n        /* \"#utility.yul\":4669:4728   */\n      dup2\n      eq\n      tag_380\n      jumpi\n        /* \"#utility.yul\":4742:4743   */\n      0x02\n        /* \"#utility.yul\":4737:4867   */\n      dup2\n      eq\n      tag_381\n      jumpi\n        /* \"#utility.yul\":4649:4867   */\n      jump(tag_379)\n        /* \"#utility.yul\":4669:4728   */\n    tag_380:\n        /* \"#utility.yul\":4699:4700   */\n      0x01\n        /* \"#utility.yul\":4690:4700   */\n      swap2\n      pop\n        /* \"#utility.yul\":4713:4718   */\n      pop\n      jump(tag_177)\n        /* \"#utility.yul\":4737:4867   */\n    tag_381:\n        /* \"#utility.yul\":4774:4777   */\n      0xff\n        /* \"#utility.yul\":4764:4772   */\n      dup5\n        /* \"#utility.yul\":4761:4778   */\n      gt\n        /* \"#utility.yul\":4758:4801   */\n      iszero\n      tag_383\n      jumpi\n        /* \"#utility.yul\":4781:4799   */\n      tag_383\n      tag_335\n      jump\t// in\n    tag_383:\n      pop\n      pop\n        /* \"#utility.yul\":4837:4838   */\n      0x01\n        /* \"#utility.yul\":4823:4839   */\n      dup3\n      shl\n        /* \"#utility.yul\":4852:4857   */\n      jump(tag_177)\n        /* \"#utility.yul\":4649:4867   */\n    tag_379:\n      pop\n        /* \"#utility.yul\":4951:4953   */\n      0x20\n        /* \"#utility.yul\":4941:4949   */\n      dup4\n        /* \"#utility.yul\":4938:4954   */\n      lt\n        /* \"#utility.yul\":4932:4935   */\n      0x0133\n        /* \"#utility.yul\":4926:4930   */\n      dup4\n        /* \"#utility.yul\":4923:4936   */\n      lt\n        /* \"#utility.yul\":4919:4955   */\n      and\n        /* \"#utility.yul\":4913:4915   */\n      0x4e\n        /* \"#utility.yul\":4903:4911   */\n      dup5\n        /* \"#utility.yul\":4900:4916   */\n      lt\n        /* \"#utility.yul\":4895:4897   */\n      0x0b\n        /* \"#utility.yul\":4889:4893   */\n      dup5\n        /* \"#utility.yul\":4886:4898   */\n      lt\n        /* \"#utility.yul\":4882:4917   */\n      and\n        /* \"#utility.yul\":4879:4956   */\n      or\n        /* \"#utility.yul\":4876:5035   */\n      iszero\n      tag_384\n      jumpi\n      pop\n        /* \"#utility.yul\":4988:5007   */\n      dup2\n      dup2\n      exp\n        /* \"#utility.yul\":5020:5025   */\n      jump(tag_177)\n        /* \"#utility.yul\":4876:5035   */\n    tag_384:\n        /* \"#utility.yul\":5067:5101   */\n      tag_385\n        /* \"#utility.yul\":5092:5100   */\n      dup4\n        /* \"#utility.yul\":5086:5090   */\n      dup4\n        /* \"#utility.yul\":5067:5101   */\n      tag_336\n      jump\t// in\n    tag_385:\n        /* \"#utility.yul\":5137:5143   */\n      dup1\n        /* \"#utility.yul\":5133:5134   */\n      0x00\n        /* \"#utility.yul\":5129:5135   */\n      not\n        /* \"#utility.yul\":5125:5144   */\n      div\n        /* \"#utility.yul\":5116:5123   */\n      dup3\n        /* \"#utility.yul\":5113:5145   */\n      gt\n        /* \"#utility.yul\":5110:5168   */\n      iszero\n      tag_387\n      jumpi\n        /* \"#utility.yul\":5148:5166   */\n      tag_387\n      tag_335\n      jump\t// in\n    tag_387:\n        /* \"#utility.yul\":5186:5206   */\n      mul\n      swap4\n        /* \"#utility.yul\":4406:5212   */\n      swap3\n      pop\n      pop\n      pop\n      jump\t// out\n        /* \"#utility.yul\":5217:5357   */\n    tag_146:\n        /* \"#utility.yul\":5275:5280   */\n      0x00\n        /* \"#utility.yul\":5304:5351   */\n      tag_333\n        /* \"#utility.yul\":5345:5349   */\n      0xff\n        /* \"#utility.yul\":5335:5343   */\n      dup5\n        /* \"#utility.yul\":5331:5350   */\n      and\n        /* \"#utility.yul\":5325:5329   */\n      dup4\n        /* \"#utility.yul\":5304:5351   */\n      tag_337\n      jump\t// in\n        /* \"#utility.yul\":5362:5530   */\n    tag_148:\n        /* \"#utility.yul\":5402:5409   */\n      0x00\n        /* \"#utility.yul\":5468:5469   */\n      dup2\n        /* \"#utility.yul\":5464:5465   */\n      0x00\n        /* \"#utility.yul\":5460:5466   */\n      not\n        /* \"#utility.yul\":5456:5470   */\n      div\n        /* \"#utility.yul\":5453:5454   */\n      dup4\n        /* \"#utility.yul\":5450:5471   */\n      gt\n        /* \"#utility.yul\":5445:5446   */\n      dup3\n        /* \"#utility.yul\":5438:5447   */\n      iszero\n        /* \"#utility.yul\":5431:5448   */\n      iszero\n        /* \"#utility.yul\":5427:5472   */\n      and\n        /* \"#utility.yul\":5424:5495   */\n      iszero\n      tag_392\n      jumpi\n        /* \"#utility.yul\":5475:5493   */\n      tag_392\n      tag_335\n      jump\t// in\n    tag_392:\n      pop\n        /* \"#utility.yul\":5515:5524   */\n      mul\n      swap1\n        /* \"#utility.yul\":5362:5530   */\n      jump\t// out\n        /* \"#utility.yul\":5535:5786   */\n    tag_153:\n        /* \"#utility.yul\":5605:5611   */\n      0x00\n        /* \"#utility.yul\":5658:5660   */\n      0x20\n        /* \"#utility.yul\":5646:5655   */\n      dup3\n        /* \"#utility.yul\":5637:5644   */\n      dup5\n        /* \"#utility.yul\":5633:5656   */\n      sub\n        /* \"#utility.yul\":5629:5661   */\n      slt\n        /* \"#utility.yul\":5626:5678   */\n      iszero\n      tag_394\n      jumpi\n        /* \"#utility.yul\":5674:5675   */\n      0x00\n        /* \"#utility.yul\":5671:5672   */\n      dup1\n        /* \"#utility.yul\":5664:5676   */\n      revert\n        /* \"#utility.yul\":5626:5678   */\n    tag_394:\n        /* \"#utility.yul\":5706:5715   */\n      dup2\n        /* \"#utility.yul\":5700:5716   */\n      mload\n        /* \"#utility.yul\":5725:5756   */\n      tag_333\n        /* \"#utility.yul\":5750:5755   */\n      dup2\n        /* \"#utility.yul\":5725:5756   */\n      tag_334\n      jump\t// in\n        /* \"#utility.yul\":6712:7018   */\n    tag_169:\n        /* \"#utility.yul\":6800:6806   */\n      0x00\n        /* \"#utility.yul\":6808:6814   */\n      dup1\n        /* \"#utility.yul\":6816:6822   */\n      0x00\n        /* \"#utility.yul\":6869:6871   */\n      0x60\n        /* \"#utility.yul\":6857:6866   */\n      dup5\n        /* \"#utility.yul\":6848:6855   */\n      dup7\n        /* \"#utility.yul\":6844:6867   */\n      sub\n        /* \"#utility.yul\":6840:6872   */\n      slt\n        /* \"#utility.yul\":6837:6889   */\n      iszero\n      tag_399\n      jumpi\n        /* \"#utility.yul\":6885:6886   */\n      0x00\n        /* \"#utility.yul\":6882:6883   */\n      dup1\n        /* \"#utility.yul\":6875:6887   */\n      revert\n        /* \"#utility.yul\":6837:6889   */\n    tag_399:\n        /* \"#utility.yul\":6914:6923   */\n      dup4\n        /* \"#utility.yul\":6908:6924   */\n      mload\n        /* \"#utility.yul\":6898:6924   */\n      swap3\n      pop\n        /* \"#utility.yul\":6964:6966   */\n      0x20\n        /* \"#utility.yul\":6953:6962   */\n      dup5\n        /* \"#utility.yul\":6949:6967   */\n      add\n        /* \"#utility.yul\":6943:6968   */\n      mload\n        /* \"#utility.yul\":6933:6968   */\n      swap2\n      pop\n        /* \"#utility.yul\":7008:7010   */\n      0x40\n        /* \"#utility.yul\":6997:7006   */\n      dup5\n        /* \"#utility.yul\":6993:7011   */\n      add\n        /* \"#utility.yul\":6987:7012   */\n      mload\n        /* \"#utility.yul\":6977:7012   */\n      swap1\n      pop\n        /* \"#utility.yul\":6712:7018   */\n      swap3\n      pop\n      swap3\n      pop\n      swap3\n      jump\t// out\n        /* \"#utility.yul\":7302:7579   */\n    tag_175:\n        /* \"#utility.yul\":7369:7375   */\n      0x00\n        /* \"#utility.yul\":7422:7424   */\n      0x20\n        /* \"#utility.yul\":7410:7419   */\n      dup3\n        /* \"#utility.yul\":7401:7408   */\n      dup5\n        /* \"#utility.yul\":7397:7420   */\n      sub\n        /* \"#utility.yul\":7393:7425   */\n      slt\n        /* \"#utility.yul\":7390:7442   */\n      iszero\n      tag_402\n      jumpi\n        /* \"#utility.yul\":7438:7439   */\n      0x00\n        /* \"#utility.yul\":7435:7436   */\n      dup1\n        /* \"#utility.yul\":7428:7440   */\n      revert\n        /* \"#utility.yul\":7390:7442   */\n    tag_402:\n        /* \"#utility.yul\":7470:7479   */\n      dup2\n        /* \"#utility.yul\":7464:7480   */\n      mload\n        /* \"#utility.yul\":7523:7528   */\n      dup1\n        /* \"#utility.yul\":7516:7529   */\n      iszero\n        /* \"#utility.yul\":7509:7530   */\n      iszero\n        /* \"#utility.yul\":7502:7507   */\n      dup2\n        /* \"#utility.yul\":7499:7531   */\n      eq\n        /* \"#utility.yul\":7489:7549   */\n      tag_333\n      jumpi\n        /* \"#utility.yul\":7545:7546   */\n      0x00\n        /* \"#utility.yul\":7542:7543   */\n      dup1\n        /* \"#utility.yul\":7535:7547   */\n      revert\n        /* \"#utility.yul\":7584:7709   */\n    tag_196:\n        /* \"#utility.yul\":7624:7628   */\n      0x00\n        /* \"#utility.yul\":7652:7653   */\n      dup3\n        /* \"#utility.yul\":7649:7650   */\n      dup3\n        /* \"#utility.yul\":7646:7654   */\n      lt\n        /* \"#utility.yul\":7643:7677   */\n      iszero\n      tag_406\n      jumpi\n        /* \"#utility.yul\":7657:7675   */\n      tag_406\n      tag_335\n      jump\t// in\n    tag_406:\n      pop\n        /* \"#utility.yul\":7694:7703   */\n      sub\n      swap1\n        /* \"#utility.yul\":7584:7709   */\n      jump\t// out\n        /* \"#utility.yul\":10501:10629   */\n    tag_269:\n        /* \"#utility.yul\":10541:10544   */\n      0x00\n        /* \"#utility.yul\":10572:10573   */\n      dup3\n        /* \"#utility.yul\":10568:10574   */\n      not\n        /* \"#utility.yul\":10565:10566   */\n      dup3\n        /* \"#utility.yul\":10562:10575   */\n      gt\n        /* \"#utility.yul\":10559:10598   */\n      iszero\n      tag_416\n      jumpi\n        /* \"#utility.yul\":10578:10596   */\n      tag_416\n      tag_335\n      jump\t// in\n    tag_416:\n      pop\n        /* \"#utility.yul\":10614:10623   */\n      add\n      swap1\n        /* \"#utility.yul\":10501:10629   */\n      jump\t// out\n        /* \"#utility.yul\":10989:11124   */\n    tag_274:\n        /* \"#utility.yul\":11028:11031   */\n      0x00\n      not(0x00)\n        /* \"#utility.yul\":11049:11066   */\n      dup3\n      eq\n        /* \"#utility.yul\":11046:11089   */\n      iszero\n      tag_420\n      jumpi\n        /* \"#utility.yul\":11069:11087   */\n      tag_420\n      tag_335\n      jump\t// in\n    tag_420:\n      pop\n        /* \"#utility.yul\":11116:11117   */\n      0x01\n        /* \"#utility.yul\":11105:11118   */\n      add\n      swap1\n        /* \"#utility.yul\":10989:11124   */\n      jump\t// out\n        /* \"#utility.yul\":11129:11346   */\n    tag_279:\n        /* \"#utility.yul\":11169:11170   */\n      0x00\n        /* \"#utility.yul\":11195:11196   */\n      dup3\n        /* \"#utility.yul\":11185:11317   */\n      tag_422\n      jumpi\n        /* \"#utility.yul\":11239:11249   */\n      0x4e487b71\n        /* \"#utility.yul\":11234:11237   */\n      0xe0\n        /* \"#utility.yul\":11230:11250   */\n      shl\n        /* \"#utility.yul\":11227:11228   */\n      0x00\n        /* \"#utility.yul\":11220:11251   */\n      mstore\n        /* \"#utility.yul\":11274:11278   */\n      0x12\n        /* \"#utility.yul\":11271:11272   */\n      0x04\n        /* \"#utility.yul\":11264:11279   */\n      mstore\n        /* \"#utility.yul\":11302:11306   */\n      0x24\n        /* \"#utility.yul\":11299:11300   */\n      0x00\n        /* \"#utility.yul\":11292:11307   */\n      revert\n        /* \"#utility.yul\":11185:11317   */\n    tag_422:\n      pop\n        /* \"#utility.yul\":11331:11340   */\n      div\n      swap1\n        /* \"#utility.yul\":11129:11346   */\n      jump\t// out\n        /* \"#utility.yul\":11483:11610   */\n    tag_316:\n        /* \"#utility.yul\":11544:11554   */\n      0x4e487b71\n        /* \"#utility.yul\":11539:11542   */\n      0xe0\n        /* \"#utility.yul\":11535:11555   */\n      shl\n        /* \"#utility.yul\":11532:11533   */\n      0x00\n        /* \"#utility.yul\":11525:11556   */\n      mstore\n        /* \"#utility.yul\":11575:11579   */\n      0x32\n        /* \"#utility.yul\":11572:11573   */\n      0x04\n        /* \"#utility.yul\":11565:11580   */\n      mstore\n        /* \"#utility.yul\":11599:11603   */\n      0x24\n        /* \"#utility.yul\":11596:11597   */\n      0x00\n        /* \"#utility.yul\":11589:11604   */\n      revert\n        /* \"#utility.yul\":11615:12595   */\n    tag_324:\n        /* \"#utility.yul\":11877:11881   */\n      0x00\n        /* \"#utility.yul\":11925:11928   */\n      0xa0\n        /* \"#utility.yul\":11914:11923   */\n      dup3\n        /* \"#utility.yul\":11910:11929   */\n      add\n        /* \"#utility.yul\":11956:11962   */\n      dup8\n        /* \"#utility.yul\":11945:11954   */\n      dup4\n        /* \"#utility.yul\":11938:11963   */\n      mstore\n        /* \"#utility.yul\":11982:11984   */\n      0x20\n        /* \"#utility.yul\":12020:12026   */\n      dup8\n        /* \"#utility.yul\":12015:12017   */\n      dup2\n        /* \"#utility.yul\":12004:12013   */\n      dup6\n        /* \"#utility.yul\":12000:12018   */\n      add\n        /* \"#utility.yul\":11993:12027   */\n      mstore\n        /* \"#utility.yul\":12063:12066   */\n      0xa0\n        /* \"#utility.yul\":12058:12060   */\n      0x40\n        /* \"#utility.yul\":12047:12056   */\n      dup6\n        /* \"#utility.yul\":12043:12061   */\n      add\n        /* \"#utility.yul\":12036:12067   */\n      mstore\n        /* \"#utility.yul\":12087:12093   */\n      dup2\n        /* \"#utility.yul\":12122:12128   */\n      dup8\n        /* \"#utility.yul\":12116:12129   */\n      mload\n        /* \"#utility.yul\":12153:12159   */\n      dup1\n        /* \"#utility.yul\":12145:12151   */\n      dup5\n        /* \"#utility.yul\":12138:12160   */\n      mstore\n        /* \"#utility.yul\":12191:12194   */\n      0xc0\n        /* \"#utility.yul\":12180:12189   */\n      dup7\n        /* \"#utility.yul\":12176:12195   */\n      add\n        /* \"#utility.yul\":12169:12195   */\n      swap2\n      pop\n        /* \"#utility.yul\":12230:12232   */\n      dup3\n        /* \"#utility.yul\":12222:12228   */\n      dup10\n        /* \"#utility.yul\":12218:12233   */\n      add\n        /* \"#utility.yul\":12204:12233   */\n      swap4\n      pop\n        /* \"#utility.yul\":12251:12252   */\n      0x00\n        /* \"#utility.yul\":12261:12456   */\n    tag_426:\n        /* \"#utility.yul\":12275:12281   */\n      dup2\n        /* \"#utility.yul\":12272:12273   */\n      dup2\n        /* \"#utility.yul\":12269:12282   */\n      lt\n        /* \"#utility.yul\":12261:12456   */\n      iszero\n      tag_428\n      jumpi\n        /* \"#utility.yul\":12340:12353   */\n      dup5\n      mload\n      sub(shl(0xa0, 0x01), 0x01)\n        /* \"#utility.yul\":12336:12375   */\n      and\n        /* \"#utility.yul\":12324:12376   */\n      dup4\n      mstore\n        /* \"#utility.yul\":12431:12446   */\n      swap4\n      dup4\n      add\n      swap4\n        /* \"#utility.yul\":12396:12408   */\n      swap2\n      dup4\n      add\n      swap2\n        /* \"#utility.yul\":12372:12373   */\n      0x01\n        /* \"#utility.yul\":12290:12299   */\n      add\n        /* \"#utility.yul\":12261:12456   */\n      jump(tag_426)\n    tag_428:\n      pop\n      pop\n      sub(shl(0xa0, 0x01), 0x01)\n        /* \"#utility.yul\":12512:12544   */\n      swap7\n      swap1\n      swap7\n      and\n        /* \"#utility.yul\":12507:12509   */\n      0x60\n        /* \"#utility.yul\":12492:12510   */\n      dup6\n      add\n        /* \"#utility.yul\":12485:12545   */\n      mstore\n      pop\n      pop\n      pop\n        /* \"#utility.yul\":12576:12579   */\n      0x80\n        /* \"#utility.yul\":12561:12580   */\n      add\n        /* \"#utility.yul\":12554:12589   */\n      mstore\n        /* \"#utility.yul\":12473:12476   */\n      swap4\n        /* \"#utility.yul\":11615:12595   */\n      swap3\n      pop\n      pop\n      pop\n      jump\t// out\n\n    auxdata: 0xa264697066735822122028fa6e398dbf463ba1ea88cf3398e6cea605b24f37f1da1d08dbfd9f4407149b64736f6c634300080a0033\n}\n",
				"bytecode": {
					"linkReferences": {},
					"object": "60806040526005805460ff19168155600655600f600781905560016008819055600955600a9081556019600b55600c8190556000600d556064906200004790601290620003bc565b62000057906305f5e100620003d4565b620000639190620003f6565b600e556064620000766012600a620003bc565b62000086906305f5e100620003d4565b620000929190620003f6565b600f556103e8620000a66012600a620003bc565b620000b6906305f5e100620003d4565b620000c29190620003f6565b6010556103e8620000d66012600a620003bc565b620000e6906305f5e100620003d4565b620000f29190620003f6565b6011556013805461ffff60a81b191690553480156200011057600080fd5b50600080546001600160a01b031916339081178255604051909182917f8be0079c531659141344cd1fd0a4f28419497f9722a3daafe3b4186f6b6457e0908290a35060058054610100600160a81b0319166101003302179055620001776012600a620003bc565b62000187906305f5e100620003d4565b336000908152600160208190526040822092909255600390620001b26000546001600160a01b031690565b6001600160a01b03908116825260208083019390935260409182016000908120805495151560ff19968716179055308152600390935281832080548516600190811790915560055461010090049091168352908220805484168217905561dead9091527f262bb27bbdd95c1cdc8e16957e36e38579ea44f7f6413dd7a9c75939def06b2c8054909216179055620002463390565b6001600160a01b031660007fddf252ad1be2c89b69c2b068fc378daa952ba7f163c4a11628f55a4df523b3ef620002806012600a620003bc565b62000290906305f5e100620003d4565b60405190815260200160405180910390a362000419565b634e487b7160e01b600052601160045260246000fd5b600181815b80851115620002fe578160001904821115620002e257620002e2620002a7565b80851615620002f057918102915b93841c9390800290620002c2565b509250929050565b6000826200031757506001620003b6565b816200032657506000620003b6565b81600181146200033f57600281146200034a576200036a565b6001915050620003b6565b60ff8411156200035e576200035e620002a7565b50506001821b620003b6565b5060208310610133831016604e8410600b84101617156200038f575081810a620003b6565b6200039b8383620002bd565b8060001904821115620003b257620003b2620002a7565b0290505b92915050565b6000620003cd60ff84168362000306565b9392505050565b6000816000190483118215151615620003f157620003f1620002a7565b500290565b6000826200041457634e487b7160e01b600052601260045260246000fd5b500490565b61178780620004296000396000f3fe6080604052600436106101445760003560e01c8063715018a6116100b6578063a01c34831161006f578063a01c348314610385578063a9059cbb1461039b578063bf474bed146103bb578063c36956a0146103d1578063c876d0b9146103e7578063dd62ed3e1461040157600080fd5b8063715018a6146102d0578063751039fc146102e55780637d1db4a5146102fa5780638da5cb5b146103105780638f9a55c01461034257806395d89b411461035857600080fd5b80630faee56f116101085780630faee56f1461021e57806318160ddd1461023457806323b872dd14610249578063313ce5671461026957806351bc3c851461028557806370a082311461029a57600080fd5b806302ac81681461015057806306fdde0314610167578063095ea7b3146101aa5780630c193045146101da5780630ce5fd36146101fe57600080fd5b3661014b57005b600080fd5b34801561015c57600080fd5b50610165610447565b005b34801561017357600080fd5b5060408051808201909152600881526727b7329020b737b760c11b60208201525b6040516101a1919061134b565b60405180910390f35b3480156101b657600080fd5b506101ca6101c53660046113b8565b610810565b60405190151581526020016101a1565b3480156101e657600080fd5b506101f0600a5481565b6040519081526020016101a1565b34801561020a57600080fd5b506101656102193660046113e4565b610827565b34801561022a57600080fd5b506101f060115481565b34801561024057600080fd5b506101f061086e565b34801561025557600080fd5b506101ca6102643660046113fd565b61088f565b34801561027557600080fd5b50604051601281526020016101a1565b34801561029157600080fd5b506101656108dc565b3480156102a657600080fd5b506101f06102b536600461143e565b6001600160a01b031660009081526001602052604090205490565b3480156102dc57600080fd5b50610165610934565b3480156102f157600080fd5b506101656109a8565b34801561030657600080fd5b506101f0600e5481565b34801561031c57600080fd5b506000546001600160a01b03165b6040516001600160a01b0390911681526020016101a1565b34801561034e57600080fd5b506101f0600f5481565b34801561036457600080fd5b506040805180820190915260048152630913d05560e21b6020820152610194565b34801561039157600080fd5b5061032a61dead81565b3480156103a757600080fd5b506101ca6103b63660046113b8565b610a6f565b3480156103c757600080fd5b506101f060105481565b3480156103dd57600080fd5b506101f0600b5481565b3480156103f357600080fd5b506005546101ca9060ff1681565b34801561040d57600080fd5b506101f061041c36600461145b565b6001600160a01b03918216600090815260026020908152604080832093909416825291909152205490565b6000546001600160a01b0316331461047a5760405162461bcd60e51b815260040161047190611494565b60405180910390fd5b601354600160a01b900460ff16156104d45760405162461bcd60e51b815260206004820152601760248201527f74726164696e6720697320616c7265616479206f70656e0000000000000000006044820152606401610471565b601280546001600160a01b031916737a250d5630b4cf539739df2c5dacb4c659f2488d90811782556105219130919061050e90600a6115c3565b61051c906305f5e1006115d2565b610a7c565b601260009054906101000a90046001600160a01b03166001600160a01b031663c45a01556040518163ffffffff1660e01b8152600401602060405180830381865afa158015610574573d6000803e3d6000fd5b505050506040513d601f19601f8201168201806040525081019061059891906115f1565b6001600160a01b031663c9c6539630601260009054906101000a90046001600160a01b03166001600160a01b031663ad5c46486040518163ffffffff1660e01b8152600401602060405180830381865afa1580156105fa573d6000803e3d6000fd5b505050506040513d601f19601f8201168201806040525081019061061e91906115f1565b6040516001600160e01b031960e085901b1681526001600160a01b039283166004820152911660248201526044016020604051808303816000875af115801561066b573d6000803e3d6000fd5b505050506040513d601f19601f8201168201806040525081019061068f91906115f1565b601380546001600160a01b039283166001600160a01b03199091161790556012541663f305d71947306106d7816001600160a01b031660009081526001602052604090205490565b6000806106ec6000546001600160a01b031690565b60405160e088901b6001600160e01b03191681526001600160a01b03958616600482015260248101949094526044840192909252606483015290911660848201524260a482015260c40160606040518083038185885af1158015610754573d6000803e3d6000fd5b50505050506040513d601f19601f82011682018060405250810190610779919061160e565b505060135460125460405163095ea7b360e01b81526001600160a01b03918216600482015260001960248201529116915063095ea7b3906044016020604051808303816000875af11580156107d2573d6000803e3d6000fd5b505050506040513d601f19601f820116820180604052508101906107f6919061163c565b506013805462ff00ff60a01b19166201000160a01b179055565b600061081d338484610a7c565b5060015b92915050565b6000546001600160a01b031633146108515760405162461bcd60e51b815260040161047190611494565b61086381670de0b6b3a76400006115d2565b601181905560105550565b600061087c6012600a6115c3565b61088a906305f5e1006115d2565b905090565b600061089c848484610ba0565b6001600160a01b0384166000908152600260209081526040808320338085529252909120546108d291869161051c90869061165e565b5060019392505050565b60055461010090046001600160a01b0316336001600160a01b03161461090157600080fd5b306000908152600160205260409020548015610920576109208161115a565b47801561093057610930816112f5565b5050565b6000546001600160a01b0316331461095e5760405162461bcd60e51b815260040161047190611494565b600080546040516001600160a01b03909116907f8be0079c531659141344cd1fd0a4f28419497f9722a3daafe3b4186f6b6457e0908390a3600080546001600160a01b0319169055565b6000546001600160a01b031633146109d25760405162461bcd60e51b815260040161047190611494565b6109de6012600a6115c3565b6109ec906305f5e1006115d2565b600e556109fb6012600a6115c3565b610a09906305f5e1006115d2565b600f556005805460ff19168155600b819055600a9081557f947f344d56e1e8c70dc492fb94c4ddddd490c016aab685f5e7e47b2e85cb44cf90610a4e906012906115c3565b610a5c906305f5e1006115d2565b60405190815260200160405180910390a1565b600061081d338484610ba0565b6001600160a01b038316610ade5760405162461bcd60e51b8152602060048201526024808201527f45524332303a20617070726f76652066726f6d20746865207a65726f206164646044820152637265737360e01b6064820152608401610471565b6001600160a01b038216610b3f5760405162461bcd60e51b815260206004820152602260248201527f45524332303a20617070726f766520746f20746865207a65726f206164647265604482015261737360f01b6064820152608401610471565b6001600160a01b0383811660008181526002602090815260408083209487168084529482529182902085905590518481527f8c5be1e5ebec7d5bd14f71427d1e84f3dd0314c0f7b2291e5b200ac8c7c3b925910160405180910390a3505050565b6001600160a01b038316610c045760405162461bcd60e51b815260206004820152602560248201527f45524332303a207472616e736665722066726f6d20746865207a65726f206164604482015264647265737360d81b6064820152608401610471565b6001600160a01b038216610c665760405162461bcd60e51b815260206004820152602360248201527f45524332303a207472616e7366657220746f20746865207a65726f206164647260448201526265737360e81b6064820152608401610471565b60008111610cc85760405162461bcd60e51b815260206004820152602960248201527f5472616e7366657220616d6f756e74206d7573742062652067726561746572206044820152687468616e207a65726f60b81b6064820152608401610471565b600080546001600160a01b03858116911614801590610cf557506000546001600160a01b03848116911614155b156110145760055460ff1615610db3576012546001600160a01b03848116911614801590610d3157506013546001600160a01b03848116911614155b15610db357326000908152600460205260409020544311610da05760405162461bcd60e51b8152602060048201526024808201527f4f6e6c79206f6e65207472616e736665722070657220626c6f636b20616c6c6f6044820152633bb2b21760e11b6064820152608401610471565b3260009081526004602052604090204390555b6013546001600160a01b038581169116148015610dde57506012546001600160a01b03848116911614155b8015610e0357506001600160a01b03831660009081526003602052604090205460ff16155b15610eeb57600e54821115610e5a5760405162461bcd60e51b815260206004820152601960248201527f4578636565647320746865205f6d61785478416d6f756e742e000000000000006044820152606401610471565b600f5482610e7d856001600160a01b031660009081526001602052604090205490565b610e879190611675565b1115610ed55760405162461bcd60e51b815260206004820152601a60248201527f4578636565647320746865206d617857616c6c657453697a652e0000000000006044820152606401610471565b600d8054906000610ee58361168d565b91905055505b6064600a54600d5411610f0057600654610f04565b6008545b610f0e90846115d2565b610f1891906116a8565b6013549091506001600160a01b038481169116148015610f4157506001600160a01b0384163014155b15610f76576064600b54600d5411610f5b57600754610f5f565b6009545b610f6990846115d2565b610f7391906116a8565b90505b30600090815260016020526040902054601354600160a81b900460ff16158015610fad57506013546001600160a01b038581169116145b8015610fc25750601354600160b01b900460ff165b8015610fcf575060105481115b8015610fde5750600c54600d54115b1561101257611000610ffb84610ff684601154611333565b611333565b61115a565b47801561101057611010476112f5565b505b505b801561108f5730600090815260016020526040902054611035908290611675565b30600081815260016020526040908190209290925590516001600160a01b038616907fddf252ad1be2c89b69c2b068fc378daa952ba7f163c4a11628f55a4df523b3ef906110869085815260200190565b60405180910390a35b6001600160a01b0384166000908152600160205260409020546110b390839061165e565b6001600160a01b0385166000908152600160205260409020556110d6818361165e565b6001600160a01b0384166000908152600160205260409020546110f99190611675565b6001600160a01b0380851660008181526001602052604090209290925585167fddf252ad1be2c89b69c2b068fc378daa952ba7f163c4a11628f55a4df523b3ef611143848661165e565b60405190815260200160405180910390a350505050565b6013805460ff60a81b1916600160a81b17905580611177576112e5565b601354600160a01b900460ff1661118d576112e5565b60408051600280825260608201835260009260208301908036833701905050905030816000815181106111c2576111c26116ca565b6001600160a01b03928316602091820292909201810191909152601254604080516315ab88c960e31b81529051919093169263ad5c46489260048083019391928290030181865afa15801561121b573d6000803e3d6000fd5b505050506040513d601f19601f8201168201806040525081019061123f91906115f1565b81600181518110611252576112526116ca565b6001600160a01b0392831660209182029290920101526012546112789130911684610a7c565b60125460405163791ac94760e01b81526001600160a01b039091169063791ac947906112b19085906000908690309042906004016116e0565b600060405180830381600087803b1580156112cb57600080fd5b505af11580156112df573d6000803e3d6000fd5b50505050505b506013805460ff60a81b19169055565b6005546040516101009091046001600160a01b0316906108fc8315029083906000818181858888f19350505050158015610930573d6000803e3d6000fd5b60008183116113425782611344565b815b9392505050565b600060208083528351808285015260005b818110156113785785810183015185820160400152820161135c565b8181111561138a576000604083870101525b50601f01601f1916929092016040019392505050565b6001600160a01b03811681146113b557600080fd5b50565b600080604083850312156113cb57600080fd5b82356113d6816113a0565b946020939093013593505050565b6000602082840312156113f657600080fd5b5035919050565b60008060006060848603121561141257600080fd5b833561141d816113a0565b9250602084013561142d816113a0565b929592945050506040919091013590565b60006020828403121561145057600080fd5b8135611344816113a0565b6000806040838503121561146e57600080fd5b8235611479816113a0565b91506020830135611489816113a0565b809150509250929050565b6020808252818101527f4f776e61626c653a2063616c6c6572206973206e6f7420746865206f776e6572604082015260600190565b634e487b7160e01b600052601160045260246000fd5b600181815b8085111561151a578160001904821115611500576115006114c9565b8085161561150d57918102915b93841c93908002906114e4565b509250929050565b60008261153157506001610821565b8161153e57506000610821565b8160018114611554576002811461155e5761157a565b6001915050610821565b60ff84111561156f5761156f6114c9565b50506001821b610821565b5060208310610133831016604e8410600b841016171561159d575081810a610821565b6115a783836114df565b80600019048211156115bb576115bb6114c9565b029392505050565b600061134460ff841683611522565b60008160001904831182151516156115ec576115ec6114c9565b500290565b60006020828403121561160357600080fd5b8151611344816113a0565b60008060006060848603121561162357600080fd5b8351925060208401519150604084015190509250925092565b60006020828403121561164e57600080fd5b8151801515811461134457600080fd5b600082821015611670576116706114c9565b500390565b60008219821115611688576116886114c9565b500190565b60006000198214156116a1576116a16114c9565b5060010190565b6000826116c557634e487b7160e01b600052601260045260246000fd5b500490565b634e487b7160e01b600052603260045260246000fd5b600060a082018783526020878185015260a0604085015281875180845260c086019150828901935060005b818110156117305784516001600160a01b03168352938301939183019160010161170b565b50506001600160a01b0396909616606085015250505060800152939250505056fea264697066735822122028fa6e398dbf463ba1ea88cf3398e6cea605b24f37f1da1d08dbfd9f4407149b64736f6c634300080a0033",
					"opcodes": "PUSH1 0x80 PUSH1 0x40 MSTORE PUSH1 0x5 DUP1 SLOAD PUSH1 0xFF NOT AND DUP2 SSTORE PUSH1 0x6 SSTORE PUSH1 0xF PUSH1 0x7 DUP2 SWAP1 SSTORE PUSH1 0x1 PUSH1 0x8 DUP2 SWAP1 SSTORE PUSH1 0x9 SSTORE PUSH1 0xA SWAP1 DUP2 SSTORE PUSH1 0x19 PUSH1 0xB SSTORE PUSH1 0xC DUP2 SWAP1 SSTORE PUSH1 0x0 PUSH1 0xD SSTORE PUSH1 0x64 SWAP1 PUSH3 0x47 SWAP1 PUSH1 0x12 SWAP1 PUSH3 0x3BC JUMP JUMPDEST PUSH3 0x57 SWAP1 PUSH4 0x5F5E100 PUSH3 0x3D4 JUMP JUMPDEST PUSH3 0x63 SWAP2 SWAP1 PUSH3 0x3F6 JUMP JUMPDEST PUSH1 0xE SSTORE PUSH1 0x64 PUSH3 0x76 PUSH1 0x12 PUSH1 0xA PUSH3 0x3BC JUMP JUMPDEST PUSH3 0x86 SWAP1 PUSH4 0x5F5E100 PUSH3 0x3D4 JUMP JUMPDEST PUSH3 0x92 SWAP2 SWAP1 PUSH3 0x3F6 JUMP JUMPDEST PUSH1 0xF SSTORE PUSH2 0x3E8 PUSH3 0xA6 PUSH1 0x12 PUSH1 0xA PUSH3 0x3BC JUMP JUMPDEST PUSH3 0xB6 SWAP1 PUSH4 0x5F5E100 PUSH3 0x3D4 JUMP JUMPDEST PUSH3 0xC2 SWAP2 SWAP1 PUSH3 0x3F6 JUMP JUMPDEST PUSH1 0x10 SSTORE PUSH2 0x3E8 PUSH3 0xD6 PUSH1 0x12 PUSH1 0xA PUSH3 0x3BC JUMP JUMPDEST PUSH3 0xE6 SWAP1 PUSH4 0x5F5E100 PUSH3 0x3D4 JUMP JUMPDEST PUSH3 0xF2 SWAP2 SWAP1 PUSH3 0x3F6 JUMP JUMPDEST PUSH1 0x11 SSTORE PUSH1 0x13 DUP1 SLOAD PUSH2 0xFFFF PUSH1 0xA8 SHL NOT AND SWAP1 SSTORE CALLVALUE DUP1 ISZERO PUSH3 0x110 JUMPI PUSH1 0x0 DUP1 REVERT JUMPDEST POP PUSH1 0x0 DUP1 SLOAD PUSH1 0x1 PUSH1 0x1 PUSH1 0xA0 SHL SUB NOT AND CALLER SWAP1 DUP2 OR DUP3 SSTORE PUSH1 0x40 MLOAD SWAP1 SWAP2 DUP3 SWAP2 PUSH32 0x8BE0079C531659141344CD1FD0A4F28419497F9722A3DAAFE3B4186F6B6457E0 SWAP1 DUP3 SWAP1 LOG3 POP PUSH1 0x5 DUP1 SLOAD PUSH2 0x100 PUSH1 0x1 PUSH1 0xA8 SHL SUB NOT AND PUSH2 0x100 CALLER MUL OR SWAP1 SSTORE PUSH3 0x177 PUSH1 0x12 PUSH1 0xA PUSH3 0x3BC JUMP JUMPDEST PUSH3 0x187 SWAP1 PUSH4 0x5F5E100 PUSH3 0x3D4 JUMP JUMPDEST CALLER PUSH1 0x0 SWAP1 DUP2 MSTORE PUSH1 0x1 PUSH1 0x20 DUP2 SWAP1 MSTORE PUSH1 0x40 DUP3 KECCAK256 SWAP3 SWAP1 SWAP3 SSTORE PUSH1 0x3 SWAP1 PUSH3 0x1B2 PUSH1 0x0 SLOAD PUSH1 0x1 PUSH1 0x1 PUSH1 0xA0 SHL SUB AND SWAP1 JUMP JUMPDEST PUSH1 0x1 PUSH1 0x1 PUSH1 0xA0 SHL SUB SWAP1 DUP2 AND DUP3 MSTORE PUSH1 0x20 DUP1 DUP4 ADD SWAP4 SWAP1 SWAP4 MSTORE PUSH1 0x40 SWAP2 DUP3 ADD PUSH1 0x0 SWAP1 DUP2 KECCAK256 DUP1 SLOAD SWAP6 ISZERO ISZERO PUSH1 0xFF NOT SWAP7 DUP8 AND OR SWAP1 SSTORE ADDRESS DUP2 MSTORE PUSH1 0x3 SWAP1 SWAP4 MSTORE DUP2 DUP4 KECCAK256 DUP1 SLOAD DUP6 AND PUSH1 0x1 SWAP1 DUP2 OR SWAP1 SWAP2 SSTORE PUSH1 0x5 SLOAD PUSH2 0x100 SWAP1 DIV SWAP1 SWAP2 AND DUP4 MSTORE SWAP1 DUP3 KECCAK256 DUP1 SLOAD DUP5 AND DUP3 OR SWAP1 SSTORE PUSH2 0xDEAD SWAP1 SWAP2 MSTORE PUSH32 0x262BB27BBDD95C1CDC8E16957E36E38579EA44F7F6413DD7A9C75939DEF06B2C DUP1 SLOAD SWAP1 SWAP3 AND OR SWAP1 SSTORE PUSH3 0x246 CALLER SWAP1 JUMP JUMPDEST PUSH1 0x1 PUSH1 0x1 PUSH1 0xA0 SHL SUB AND PUSH1 0x0 PUSH32 0xDDF252AD1BE2C89B69C2B068FC378DAA952BA7F163C4A11628F55A4DF523B3EF PUSH3 0x280 PUSH1 0x12 PUSH1 0xA PUSH3 0x3BC JUMP JUMPDEST PUSH3 0x290 SWAP1 PUSH4 0x5F5E100 PUSH3 0x3D4 JUMP JUMPDEST PUSH1 0x40 MLOAD SWAP1 DUP2 MSTORE PUSH1 0x20 ADD PUSH1 0x40 MLOAD DUP1 SWAP2 SUB SWAP1 LOG3 PUSH3 0x419 JUMP JUMPDEST PUSH4 0x4E487B71 PUSH1 0xE0 SHL PUSH1 0x0 MSTORE PUSH1 0x11 PUSH1 0x4 MSTORE PUSH1 0x24 PUSH1 0x0 REVERT JUMPDEST PUSH1 0x1 DUP2 DUP2 JUMPDEST DUP1 DUP6 GT ISZERO PUSH3 0x2FE JUMPI DUP2 PUSH1 0x0 NOT DIV DUP3 GT ISZERO PUSH3 0x2E2 JUMPI PUSH3 0x2E2 PUSH3 0x2A7 JUMP JUMPDEST DUP1 DUP6 AND ISZERO PUSH3 0x2F0 JUMPI SWAP2 DUP2 MUL SWAP2 JUMPDEST SWAP4 DUP5 SHR SWAP4 SWAP1 DUP1 MUL SWAP1 PUSH3 0x2C2 JUMP JUMPDEST POP SWAP3 POP SWAP3 SWAP1 POP JUMP JUMPDEST PUSH1 0x0 DUP3 PUSH3 0x317 JUMPI POP PUSH1 0x1 PUSH3 0x3B6 JUMP JUMPDEST DUP2 PUSH3 0x326 JUMPI POP PUSH1 0x0 PUSH3 0x3B6 JUMP JUMPDEST DUP2 PUSH1 0x1 DUP2 EQ PUSH3 0x33F JUMPI PUSH1 0x2 DUP2 EQ PUSH3 0x34A JUMPI PUSH3 0x36A JUMP JUMPDEST PUSH1 0x1 SWAP2 POP POP PUSH3 0x3B6 JUMP JUMPDEST PUSH1 0xFF DUP5 GT ISZERO PUSH3 0x35E JUMPI PUSH3 0x35E PUSH3 0x2A7 JUMP JUMPDEST POP POP PUSH1 0x1 DUP3 SHL PUSH3 0x3B6 JUMP JUMPDEST POP PUSH1 0x20 DUP4 LT PUSH2 0x133 DUP4 LT AND PUSH1 0x4E DUP5 LT PUSH1 0xB DUP5 LT AND OR ISZERO PUSH3 0x38F JUMPI POP DUP2 DUP2 EXP PUSH3 0x3B6 JUMP JUMPDEST PUSH3 0x39B DUP4 DUP4 PUSH3 0x2BD JUMP JUMPDEST DUP1 PUSH1 0x0 NOT DIV DUP3 GT ISZERO PUSH3 0x3B2 JUMPI PUSH3 0x3B2 PUSH3 0x2A7 JUMP JUMPDEST MUL SWAP1 POP JUMPDEST SWAP3 SWAP2 POP POP JUMP JUMPDEST PUSH1 0x0 PUSH3 0x3CD PUSH1 0xFF DUP5 AND DUP4 PUSH3 0x306 JUMP JUMPDEST SWAP4 SWAP3 POP POP POP JUMP JUMPDEST PUSH1 0x0 DUP2 PUSH1 0x0 NOT DIV DUP4 GT DUP3 ISZERO ISZERO AND ISZERO PUSH3 0x3F1 JUMPI PUSH3 0x3F1 PUSH3 0x2A7 JUMP JUMPDEST POP MUL SWAP1 JUMP JUMPDEST PUSH1 0x0 DUP3 PUSH3 0x414 JUMPI PUSH4 0x4E487B71 PUSH1 0xE0 SHL PUSH1 0x0 MSTORE PUSH1 0x12 PUSH1 0x4 MSTORE PUSH1 0x24 PUSH1 0x0 REVERT JUMPDEST POP DIV SWAP1 JUMP JUMPDEST PUSH2 0x1787 DUP1 PUSH3 0x429 PUSH1 0x0 CODECOPY PUSH1 0x0 RETURN INVALID PUSH1 0x80 PUSH1 0x40 MSTORE PUSH1 0x4 CALLDATASIZE LT PUSH2 0x144 JUMPI PUSH1 0x0 CALLDATALOAD PUSH1 0xE0 SHR DUP1 PUSH4 0x715018A6 GT PUSH2 0xB6 JUMPI DUP1 PUSH4 0xA01C3483 GT PUSH2 0x6F JUMPI DUP1 PUSH4 0xA01C3483 EQ PUSH2 0x385 JUMPI DUP1 PUSH4 0xA9059CBB EQ PUSH2 0x39B JUMPI DUP1 PUSH4 0xBF474BED EQ PUSH2 0x3BB JUMPI DUP1 PUSH4 0xC36956A0 EQ PUSH2 0x3D1 JUMPI DUP1 PUSH4 0xC876D0B9 EQ PUSH2 0x3E7 JUMPI DUP1 PUSH4 0xDD62ED3E EQ PUSH2 0x401 JUMPI PUSH1 0x0 DUP1 REVERT JUMPDEST DUP1 PUSH4 0x715018A6 EQ PUSH2 0x2D0 JUMPI DUP1 PUSH4 0x751039FC EQ PUSH2 0x2E5 JUMPI DUP1 PUSH4 0x7D1DB4A5 EQ PUSH2 0x2FA JUMPI DUP1 PUSH4 0x8DA5CB5B EQ PUSH2 0x310 JUMPI DUP1 PUSH4 0x8F9A55C0 EQ PUSH2 0x342 JUMPI DUP1 PUSH4 0x95D89B41 EQ PUSH2 0x358 JUMPI PUSH1 0x0 DUP1 REVERT JUMPDEST DUP1 PUSH4 0xFAEE56F GT PUSH2 0x108 JUMPI DUP1 PUSH4 0xFAEE56F EQ PUSH2 0x21E JUMPI DUP1 PUSH4 0x18160DDD EQ PUSH2 0x234 JUMPI DUP1 PUSH4 0x23B872DD EQ PUSH2 0x249 JUMPI DUP1 PUSH4 0x313CE567 EQ PUSH2 0x269 JUMPI DUP1 PUSH4 0x51BC3C85 EQ PUSH2 0x285 JUMPI DUP1 PUSH4 0x70A08231 EQ PUSH2 0x29A JUMPI PUSH1 0x0 DUP1 REVERT JUMPDEST DUP1 PUSH4 0x2AC8168 EQ PUSH2 0x150 JUMPI DUP1 PUSH4 0x6FDDE03 EQ PUSH2 0x167 JUMPI DUP1 PUSH4 0x95EA7B3 EQ PUSH2 0x1AA JUMPI DUP1 PUSH4 0xC193045 EQ PUSH2 0x1DA JUMPI DUP1 PUSH4 0xCE5FD36 EQ PUSH2 0x1FE JUMPI PUSH1 0x0 DUP1 REVERT JUMPDEST CALLDATASIZE PUSH2 0x14B JUMPI STOP JUMPDEST PUSH1 0x0 DUP1 REVERT JUMPDEST CALLVALUE DUP1 ISZERO PUSH2 0x15C JUMPI PUSH1 0x0 DUP1 REVERT JUMPDEST POP PUSH2 0x165 PUSH2 0x447 JUMP JUMPDEST STOP JUMPDEST CALLVALUE DUP1 ISZERO PUSH2 0x173 JUMPI PUSH1 0x0 DUP1 REVERT JUMPDEST POP PUSH1 0x40 DUP1 MLOAD DUP1 DUP3 ADD SWAP1 SWAP2 MSTORE PUSH1 0x8 DUP2 MSTORE PUSH8 0x27B7329020B737B7 PUSH1 0xC1 SHL PUSH1 0x20 DUP3 ADD MSTORE JUMPDEST PUSH1 0x40 MLOAD PUSH2 0x1A1 SWAP2 SWAP1 PUSH2 0x134B JUMP JUMPDEST PUSH1 0x40 MLOAD DUP1 SWAP2 SUB SWAP1 RETURN JUMPDEST CALLVALUE DUP1 ISZERO PUSH2 0x1B6 JUMPI PUSH1 0x0 DUP1 REVERT JUMPDEST POP PUSH2 0x1CA PUSH2 0x1C5 CALLDATASIZE PUSH1 0x4 PUSH2 0x13B8 JUMP JUMPDEST PUSH2 0x810 JUMP JUMPDEST PUSH1 0x40 MLOAD SWAP1 ISZERO ISZERO DUP2 MSTORE PUSH1 0x20 ADD PUSH2 0x1A1 JUMP JUMPDEST CALLVALUE DUP1 ISZERO PUSH2 0x1E6 JUMPI PUSH1 0x0 DUP1 REVERT JUMPDEST POP PUSH2 0x1F0 PUSH1 0xA SLOAD DUP2 JUMP JUMPDEST PUSH1 0x40 MLOAD SWAP1 DUP2 MSTORE PUSH1 0x20 ADD PUSH2 0x1A1 JUMP JUMPDEST CALLVALUE DUP1 ISZERO PUSH2 0x20A JUMPI PUSH1 0x0 DUP1 REVERT JUMPDEST POP PUSH2 0x165 PUSH2 0x219 CALLDATASIZE PUSH1 0x4 PUSH2 0x13E4 JUMP JUMPDEST PUSH2 0x827 JUMP JUMPDEST CALLVALUE DUP1 ISZERO PUSH2 0x22A JUMPI PUSH1 0x0 DUP1 REVERT JUMPDEST POP PUSH2 0x1F0 PUSH1 0x11 SLOAD DUP2 JUMP JUMPDEST CALLVALUE DUP1 ISZERO PUSH2 0x240 JUMPI PUSH1 0x0 DUP1 REVERT JUMPDEST POP PUSH2 0x1F0 PUSH2 0x86E JUMP JUMPDEST CALLVALUE DUP1 ISZERO PUSH2 0x255 JUMPI PUSH1 0x0 DUP1 REVERT JUMPDEST POP PUSH2 0x1CA PUSH2 0x264 CALLDATASIZE PUSH1 0x4 PUSH2 0x13FD JUMP JUMPDEST PUSH2 0x88F JUMP JUMPDEST CALLVALUE DUP1 ISZERO PUSH2 0x275 JUMPI PUSH1 0x0 DUP1 REVERT JUMPDEST POP PUSH1 0x40 MLOAD PUSH1 0x12 DUP2 MSTORE PUSH1 0x20 ADD PUSH2 0x1A1 JUMP JUMPDEST CALLVALUE DUP1 ISZERO PUSH2 0x291 JUMPI PUSH1 0x0 DUP1 REVERT JUMPDEST POP PUSH2 0x165 PUSH2 0x8DC JUMP JUMPDEST CALLVALUE DUP1 ISZERO PUSH2 0x2A6 JUMPI PUSH1 0x0 DUP1 REVERT JUMPDEST POP PUSH2 0x1F0 PUSH2 0x2B5 CALLDATASIZE PUSH1 0x4 PUSH2 0x143E JUMP JUMPDEST PUSH1 0x1 PUSH1 0x1 PUSH1 0xA0 SHL SUB AND PUSH1 0x0 SWAP1 DUP2 MSTORE PUSH1 0x1 PUSH1 0x20 MSTORE PUSH1 0x40 SWAP1 KECCAK256 SLOAD SWAP1 JUMP JUMPDEST CALLVALUE DUP1 ISZERO PUSH2 0x2DC JUMPI PUSH1 0x0 DUP1 REVERT JUMPDEST POP PUSH2 0x165 PUSH2 0x934 JUMP JUMPDEST CALLVALUE DUP1 ISZERO PUSH2 0x2F1 JUMPI PUSH1 0x0 DUP1 REVERT JUMPDEST POP PUSH2 0x165 PUSH2 0x9A8 JUMP JUMPDEST CALLVALUE DUP1 ISZERO PUSH2 0x306 JUMPI PUSH1 0x0 DUP1 REVERT JUMPDEST POP PUSH2 0x1F0 PUSH1 0xE SLOAD DUP2 JUMP JUMPDEST CALLVALUE DUP1 ISZERO PUSH2 0x31C JUMPI PUSH1 0x0 DUP1 REVERT JUMPDEST POP PUSH1 0x0 SLOAD PUSH1 0x1 PUSH1 0x1 PUSH1 0xA0 SHL SUB AND JUMPDEST PUSH1 0x40 MLOAD PUSH1 0x1 PUSH1 0x1 PUSH1 0xA0 SHL SUB SWAP1 SWAP2 AND DUP2 MSTORE PUSH1 0x20 ADD PUSH2 0x1A1 JUMP JUMPDEST CALLVALUE DUP1 ISZERO PUSH2 0x34E JUMPI PUSH1 0x0 DUP1 REVERT JUMPDEST POP PUSH2 0x1F0 PUSH1 0xF SLOAD DUP2 JUMP JUMPDEST CALLVALUE DUP1 ISZERO PUSH2 0x364 JUMPI PUSH1 0x0 DUP1 REVERT JUMPDEST POP PUSH1 0x40 DUP1 MLOAD DUP1 DUP3 ADD SWAP1 SWAP2 MSTORE PUSH1 0x4 DUP2 MSTORE PUSH4 0x913D055 PUSH1 0xE2 SHL PUSH1 0x20 DUP3 ADD MSTORE PUSH2 0x194 JUMP JUMPDEST CALLVALUE DUP1 ISZERO PUSH2 0x391 JUMPI PUSH1 0x0 DUP1 REVERT JUMPDEST POP PUSH2 0x32A PUSH2 0xDEAD DUP2 JUMP JUMPDEST CALLVALUE DUP1 ISZERO PUSH2 0x3A7 JUMPI PUSH1 0x0 DUP1 REVERT JUMPDEST POP PUSH2 0x1CA PUSH2 0x3B6 CALLDATASIZE PUSH1 0x4 PUSH2 0x13B8 JUMP JUMPDEST PUSH2 0xA6F JUMP JUMPDEST CALLVALUE DUP1 ISZERO PUSH2 0x3C7 JUMPI PUSH1 0x0 DUP1 REVERT JUMPDEST POP PUSH2 0x1F0 PUSH1 0x10 SLOAD DUP2 JUMP JUMPDEST CALLVALUE DUP1 ISZERO PUSH2 0x3DD JUMPI PUSH1 0x0 DUP1 REVERT JUMPDEST POP PUSH2 0x1F0 PUSH1 0xB SLOAD DUP2 JUMP JUMPDEST CALLVALUE DUP1 ISZERO PUSH2 0x3F3 JUMPI PUSH1 0x0 DUP1 REVERT JUMPDEST POP PUSH1 0x5 SLOAD PUSH2 0x1CA SWAP1 PUSH1 0xFF AND DUP2 JUMP JUMPDEST CALLVALUE DUP1 ISZERO PUSH2 0x40D JUMPI PUSH1 0x0 DUP1 REVERT JUMPDEST POP PUSH2 0x1F0 PUSH2 0x41C CALLDATASIZE PUSH1 0x4 PUSH2 0x145B JUMP JUMPDEST PUSH1 0x1 PUSH1 0x1 PUSH1 0xA0 SHL SUB SWAP2 DUP3 AND PUSH1 0x0 SWAP1 DUP2 MSTORE PUSH1 0x2 PUSH1 0x20 SWAP1 DUP2 MSTORE PUSH1 0x40 DUP1 DUP4 KECCAK256 SWAP4 SWAP1 SWAP5 AND DUP3 MSTORE SWAP2 SWAP1 SWAP2 MSTORE KECCAK256 SLOAD SWAP1 JUMP JUMPDEST PUSH1 0x0 SLOAD PUSH1 0x1 PUSH1 0x1 PUSH1 0xA0 SHL SUB AND CALLER EQ PUSH2 0x47A JUMPI PUSH1 0x40 MLOAD PUSH3 0x461BCD PUSH1 0xE5 SHL DUP2 MSTORE PUSH1 0x4 ADD PUSH2 0x471 SWAP1 PUSH2 0x1494 JUMP JUMPDEST PUSH1 0x40 MLOAD DUP1 SWAP2 SUB SWAP1 REVERT JUMPDEST PUSH1 0x13 SLOAD PUSH1 0x1 PUSH1 0xA0 SHL SWAP1 DIV PUSH1 0xFF AND ISZERO PUSH2 0x4D4 JUMPI PUSH1 0x40 MLOAD PUSH3 0x461BCD PUSH1 0xE5 SHL DUP2 MSTORE PUSH1 0x20 PUSH1 0x4 DUP3 ADD MSTORE PUSH1 0x17 PUSH1 0x24 DUP3 ADD MSTORE PUSH32 0x74726164696E6720697320616C7265616479206F70656E000000000000000000 PUSH1 0x44 DUP3 ADD MSTORE PUSH1 0x64 ADD PUSH2 0x471 JUMP JUMPDEST PUSH1 0x12 DUP1 SLOAD PUSH1 0x1 PUSH1 0x1 PUSH1 0xA0 SHL SUB NOT AND PUSH20 0x7A250D5630B4CF539739DF2C5DACB4C659F2488D SWAP1 DUP2 OR DUP3 SSTORE PUSH2 0x521 SWAP2 ADDRESS SWAP2 SWAP1 PUSH2 0x50E SWAP1 PUSH1 0xA PUSH2 0x15C3 JUMP JUMPDEST PUSH2 0x51C SWAP1 PUSH4 0x5F5E100 PUSH2 0x15D2 JUMP JUMPDEST PUSH2 0xA7C JUMP JUMPDEST PUSH1 0x12 PUSH1 0x0 SWAP1 SLOAD SWAP1 PUSH2 0x100 EXP SWAP1 DIV PUSH1 0x1 PUSH1 0x1 PUSH1 0xA0 SHL SUB AND PUSH1 0x1 PUSH1 0x1 PUSH1 0xA0 SHL SUB AND PUSH4 0xC45A0155 PUSH1 0x40 MLOAD DUP2 PUSH4 0xFFFFFFFF AND PUSH1 0xE0 SHL DUP2 MSTORE PUSH1 0x4 ADD PUSH1 0x20 PUSH1 0x40 MLOAD DUP1 DUP4 SUB DUP2 DUP7 GAS STATICCALL ISZERO DUP1 ISZERO PUSH2 0x574 JUMPI RETURNDATASIZE PUSH1 0x0 DUP1 RETURNDATACOPY RETURNDATASIZE PUSH1 0x0 REVERT JUMPDEST POP POP POP POP PUSH1 0x40 MLOAD RETURNDATASIZE PUSH1 0x1F NOT PUSH1 0x1F DUP3 ADD AND DUP3 ADD DUP1 PUSH1 0x40 MSTORE POP DUP2 ADD SWAP1 PUSH2 0x598 SWAP2 SWAP1 PUSH2 0x15F1 JUMP JUMPDEST PUSH1 0x1 PUSH1 0x1 PUSH1 0xA0 SHL SUB AND PUSH4 0xC9C65396 ADDRESS PUSH1 0x12 PUSH1 0x0 SWAP1 SLOAD SWAP1 PUSH2 0x100 EXP SWAP1 DIV PUSH1 0x1 PUSH1 0x1 PUSH1 0xA0 SHL SUB AND PUSH1 0x1 PUSH1 0x1 PUSH1 0xA0 SHL SUB AND PUSH4 0xAD5C4648 PUSH1 0x40 MLOAD DUP2 PUSH4 0xFFFFFFFF AND PUSH1 0xE0 SHL DUP2 MSTORE PUSH1 0x4 ADD PUSH1 0x20 PUSH1 0x40 MLOAD DUP1 DUP4 SUB DUP2 DUP7 GAS STATICCALL ISZERO DUP1 ISZERO PUSH2 0x5FA JUMPI RETURNDATASIZE PUSH1 0x0 DUP1 RETURNDATACOPY RETURNDATASIZE PUSH1 0x0 REVERT JUMPDEST POP POP POP POP PUSH1 0x40 MLOAD RETURNDATASIZE PUSH1 0x1F NOT PUSH1 0x1F DUP3 ADD AND DUP3 ADD DUP1 PUSH1 0x40 MSTORE POP DUP2 ADD SWAP1 PUSH2 0x61E SWAP2 SWAP1 PUSH2 0x15F1 JUMP JUMPDEST PUSH1 0x40 MLOAD PUSH1 0x1 PUSH1 0x1 PUSH1 0xE0 SHL SUB NOT PUSH1 0xE0 DUP6 SWAP1 SHL AND DUP2 MSTORE PUSH1 0x1 PUSH1 0x1 PUSH1 0xA0 SHL SUB SWAP3 DUP4 AND PUSH1 0x4 DUP3 ADD MSTORE SWAP2 AND PUSH1 0x24 DUP3 ADD MSTORE PUSH1 0x44 ADD PUSH1 0x20 PUSH1 0x40 MLOAD DUP1 DUP4 SUB DUP2 PUSH1 0x0 DUP8 GAS CALL ISZERO DUP1 ISZERO PUSH2 0x66B JUMPI RETURNDATASIZE PUSH1 0x0 DUP1 RETURNDATACOPY RETURNDATASIZE PUSH1 0x0 REVERT JUMPDEST POP POP POP POP PUSH1 0x40 MLOAD RETURNDATASIZE PUSH1 0x1F NOT PUSH1 0x1F DUP3 ADD AND DUP3 ADD DUP1 PUSH1 0x40 MSTORE POP DUP2 ADD SWAP1 PUSH2 0x68F SWAP2 SWAP1 PUSH2 0x15F1 JUMP JUMPDEST PUSH1 0x13 DUP1 SLOAD PUSH1 0x1 PUSH1 0x1 PUSH1 0xA0 SHL SUB SWAP3 DUP4 AND PUSH1 0x1 PUSH1 0x1 PUSH1 0xA0 SHL SUB NOT SWAP1 SWAP2 AND OR SWAP1 SSTORE PUSH1 0x12 SLOAD AND PUSH4 0xF305D719 SELFBALANCE ADDRESS PUSH2 0x6D7 DUP2 PUSH1 0x1 PUSH1 0x1 PUSH1 0xA0 SHL SUB AND PUSH1 0x0 SWAP1 DUP2 MSTORE PUSH1 0x1 PUSH1 0x20 MSTORE PUSH1 0x40 SWAP1 KECCAK256 SLOAD SWAP1 JUMP JUMPDEST PUSH1 0x0 DUP1 PUSH2 0x6EC PUSH1 0x0 SLOAD PUSH1 0x1 PUSH1 0x1 PUSH1 0xA0 SHL SUB AND SWAP1 JUMP JUMPDEST PUSH1 0x40 MLOAD PUSH1 0xE0 DUP9 SWAP1 SHL PUSH1 0x1 PUSH1 0x1 PUSH1 0xE0 SHL SUB NOT AND DUP2 MSTORE PUSH1 0x1 PUSH1 0x1 PUSH1 0xA0 SHL SUB SWAP6 DUP7 AND PUSH1 0x4 DUP3 ADD MSTORE PUSH1 0x24 DUP2 ADD SWAP5 SWAP1 SWAP5 MSTORE PUSH1 0x44 DUP5 ADD SWAP3 SWAP1 SWAP3 MSTORE PUSH1 0x64 DUP4 ADD MSTORE SWAP1 SWAP2 AND PUSH1 0x84 DUP3 ADD MSTORE TIMESTAMP PUSH1 0xA4 DUP3 ADD MSTORE PUSH1 0xC4 ADD PUSH1 0x60 PUSH1 0x40 MLOAD DUP1 DUP4 SUB DUP2 DUP6 DUP9 GAS CALL ISZERO DUP1 ISZERO PUSH2 0x754 JUMPI RETURNDATASIZE PUSH1 0x0 DUP1 RETURNDATACOPY RETURNDATASIZE PUSH1 0x0 REVERT JUMPDEST POP POP POP POP POP PUSH1 0x40 MLOAD RETURNDATASIZE PUSH1 0x1F NOT PUSH1 0x1F DUP3 ADD AND DUP3 ADD DUP1 PUSH1 0x40 MSTORE POP DUP2 ADD SWAP1 PUSH2 0x779 SWAP2 SWAP1 PUSH2 0x160E JUMP JUMPDEST POP POP PUSH1 0x13 SLOAD PUSH1 0x12 SLOAD PUSH1 0x40 MLOAD PUSH4 0x95EA7B3 PUSH1 0xE0 SHL DUP2 MSTORE PUSH1 0x1 PUSH1 0x1 PUSH1 0xA0 SHL SUB SWAP2 DUP3 AND PUSH1 0x4 DUP3 ADD MSTORE PUSH1 0x0 NOT PUSH1 0x24 DUP3 ADD MSTORE SWAP2 AND SWAP2 POP PUSH4 0x95EA7B3 SWAP1 PUSH1 0x44 ADD PUSH1 0x20 PUSH1 0x40 MLOAD DUP1 DUP4 SUB DUP2 PUSH1 0x0 DUP8 GAS CALL ISZERO DUP1 ISZERO PUSH2 0x7D2 JUMPI RETURNDATASIZE PUSH1 0x0 DUP1 RETURNDATACOPY RETURNDATASIZE PUSH1 0x0 REVERT JUMPDEST POP POP POP POP PUSH1 0x40 MLOAD RETURNDATASIZE PUSH1 0x1F NOT PUSH1 0x1F DUP3 ADD AND DUP3 ADD DUP1 PUSH1 0x40 MSTORE POP DUP2 ADD SWAP1 PUSH2 0x7F6 SWAP2 SWAP1 PUSH2 0x163C JUMP JUMPDEST POP PUSH1 0x13 DUP1 SLOAD PUSH3 0xFF00FF PUSH1 0xA0 SHL NOT AND PUSH3 0x10001 PUSH1 0xA0 SHL OR SWAP1 SSTORE JUMP JUMPDEST PUSH1 0x0 PUSH2 0x81D CALLER DUP5 DUP5 PUSH2 0xA7C JUMP JUMPDEST POP PUSH1 0x1 JUMPDEST SWAP3 SWAP2 POP POP JUMP JUMPDEST PUSH1 0x0 SLOAD PUSH1 0x1 PUSH1 0x1 PUSH1 0xA0 SHL SUB AND CALLER EQ PUSH2 0x851 JUMPI PUSH1 0x40 MLOAD PUSH3 0x461BCD PUSH1 0xE5 SHL DUP2 MSTORE PUSH1 0x4 ADD PUSH2 0x471 SWAP1 PUSH2 0x1494 JUMP JUMPDEST PUSH2 0x863 DUP2 PUSH8 0xDE0B6B3A7640000 PUSH2 0x15D2 JUMP JUMPDEST PUSH1 0x11 DUP2 SWAP1 SSTORE PUSH1 0x10 SSTORE POP JUMP JUMPDEST PUSH1 0x0 PUSH2 0x87C PUSH1 0x12 PUSH1 0xA PUSH2 0x15C3 JUMP JUMPDEST PUSH2 0x88A SWAP1 PUSH4 0x5F5E100 PUSH2 0x15D2 JUMP JUMPDEST SWAP1 POP SWAP1 JUMP JUMPDEST PUSH1 0x0 PUSH2 0x89C DUP5 DUP5 DUP5 PUSH2 0xBA0 JUMP JUMPDEST PUSH1 0x1 PUSH1 0x1 PUSH1 0xA0 SHL SUB DUP5 AND PUSH1 0x0 SWAP1 DUP2 MSTORE PUSH1 0x2 PUSH1 0x20 SWAP1 DUP2 MSTORE PUSH1 0x40 DUP1 DUP4 KECCAK256 CALLER DUP1 DUP6 MSTORE SWAP3 MSTORE SWAP1 SWAP2 KECCAK256 SLOAD PUSH2 0x8D2 SWAP2 DUP7 SWAP2 PUSH2 0x51C SWAP1 DUP7 SWAP1 PUSH2 0x165E JUMP JUMPDEST POP PUSH1 0x1 SWAP4 SWAP3 POP POP POP JUMP JUMPDEST PUSH1 0x5 SLOAD PUSH2 0x100 SWAP1 DIV PUSH1 0x1 PUSH1 0x1 PUSH1 0xA0 SHL SUB AND CALLER PUSH1 0x1 PUSH1 0x1 PUSH1 0xA0 SHL SUB AND EQ PUSH2 0x901 JUMPI PUSH1 0x0 DUP1 REVERT JUMPDEST ADDRESS PUSH1 0x0 SWAP1 DUP2 MSTORE PUSH1 0x1 PUSH1 0x20 MSTORE PUSH1 0x40 SWAP1 KECCAK256 SLOAD DUP1 ISZERO PUSH2 0x920 JUMPI PUSH2 0x920 DUP2 PUSH2 0x115A JUMP JUMPDEST SELFBALANCE DUP1 ISZERO PUSH2 0x930 JUMPI PUSH2 0x930 DUP2 PUSH2 0x12F5 JUMP JUMPDEST POP POP JUMP JUMPDEST PUSH1 0x0 SLOAD PUSH1 0x1 PUSH1 0x1 PUSH1 0xA0 SHL SUB AND CALLER EQ PUSH2 0x95E JUMPI PUSH1 0x40 MLOAD PUSH3 0x461BCD PUSH1 0xE5 SHL DUP2 MSTORE PUSH1 0x4 ADD PUSH2 0x471 SWAP1 PUSH2 0x1494 JUMP JUMPDEST PUSH1 0x0 DUP1 SLOAD PUSH1 0x40 MLOAD PUSH1 0x1 PUSH1 0x1 PUSH1 0xA0 SHL SUB SWAP1 SWAP2 AND SWAP1 PUSH32 0x8BE0079C531659141344CD1FD0A4F28419497F9722A3DAAFE3B4186F6B6457E0 SWAP1 DUP4 SWAP1 LOG3 PUSH1 0x0 DUP1 SLOAD PUSH1 0x1 PUSH1 0x1 PUSH1 0xA0 SHL SUB NOT AND SWAP1 SSTORE JUMP JUMPDEST PUSH1 0x0 SLOAD PUSH1 0x1 PUSH1 0x1 PUSH1 0xA0 SHL SUB AND CALLER EQ PUSH2 0x9D2 JUMPI PUSH1 0x40 MLOAD PUSH3 0x461BCD PUSH1 0xE5 SHL DUP2 MSTORE PUSH1 0x4 ADD PUSH2 0x471 SWAP1 PUSH2 0x1494 JUMP JUMPDEST PUSH2 0x9DE PUSH1 0x12 PUSH1 0xA PUSH2 0x15C3 JUMP JUMPDEST PUSH2 0x9EC SWAP1 PUSH4 0x5F5E100 PUSH2 0x15D2 JUMP JUMPDEST PUSH1 0xE SSTORE PUSH2 0x9FB PUSH1 0x12 PUSH1 0xA PUSH2 0x15C3 JUMP JUMPDEST PUSH2 0xA09 SWAP1 PUSH4 0x5F5E100 PUSH2 0x15D2 JUMP JUMPDEST PUSH1 0xF SSTORE PUSH1 0x5 DUP1 SLOAD PUSH1 0xFF NOT AND DUP2 SSTORE PUSH1 0xB DUP2 SWAP1 SSTORE PUSH1 0xA SWAP1 DUP2 SSTORE PUSH32 0x947F344D56E1E8C70DC492FB94C4DDDDD490C016AAB685F5E7E47B2E85CB44CF SWAP1 PUSH2 0xA4E SWAP1 PUSH1 0x12 SWAP1 PUSH2 0x15C3 JUMP JUMPDEST PUSH2 0xA5C SWAP1 PUSH4 0x5F5E100 PUSH2 0x15D2 JUMP JUMPDEST PUSH1 0x40 MLOAD SWAP1 DUP2 MSTORE PUSH1 0x20 ADD PUSH1 0x40 MLOAD DUP1 SWAP2 SUB SWAP1 LOG1 JUMP JUMPDEST PUSH1 0x0 PUSH2 0x81D CALLER DUP5 DUP5 PUSH2 0xBA0 JUMP JUMPDEST PUSH1 0x1 PUSH1 0x1 PUSH1 0xA0 SHL SUB DUP4 AND PUSH2 0xADE JUMPI PUSH1 0x40 MLOAD PUSH3 0x461BCD PUSH1 0xE5 SHL DUP2 MSTORE PUSH1 0x20 PUSH1 0x4 DUP3 ADD MSTORE PUSH1 0x24 DUP1 DUP3 ADD MSTORE PUSH32 0x45524332303A20617070726F76652066726F6D20746865207A65726F20616464 PUSH1 0x44 DUP3 ADD MSTORE PUSH4 0x72657373 PUSH1 0xE0 SHL PUSH1 0x64 DUP3 ADD MSTORE PUSH1 0x84 ADD PUSH2 0x471 JUMP JUMPDEST PUSH1 0x1 PUSH1 0x1 PUSH1 0xA0 SHL SUB DUP3 AND PUSH2 0xB3F JUMPI PUSH1 0x40 MLOAD PUSH3 0x461BCD PUSH1 0xE5 SHL DUP2 MSTORE PUSH1 0x20 PUSH1 0x4 DUP3 ADD MSTORE PUSH1 0x22 PUSH1 0x24 DUP3 ADD MSTORE PUSH32 0x45524332303A20617070726F766520746F20746865207A65726F206164647265 PUSH1 0x44 DUP3 ADD MSTORE PUSH2 0x7373 PUSH1 0xF0 SHL PUSH1 0x64 DUP3 ADD MSTORE PUSH1 0x84 ADD PUSH2 0x471 JUMP JUMPDEST PUSH1 0x1 PUSH1 0x1 PUSH1 0xA0 SHL SUB DUP4 DUP2 AND PUSH1 0x0 DUP2 DUP2 MSTORE PUSH1 0x2 PUSH1 0x20 SWAP1 DUP2 MSTORE PUSH1 0x40 DUP1 DUP4 KECCAK256 SWAP5 DUP8 AND DUP1 DUP5 MSTORE SWAP5 DUP3 MSTORE SWAP2 DUP3 SWAP1 KECCAK256 DUP6 SWAP1 SSTORE SWAP1 MLOAD DUP5 DUP2 MSTORE PUSH32 0x8C5BE1E5EBEC7D5BD14F71427D1E84F3DD0314C0F7B2291E5B200AC8C7C3B925 SWAP2 ADD PUSH1 0x40 MLOAD DUP1 SWAP2 SUB SWAP1 LOG3 POP POP POP JUMP JUMPDEST PUSH1 0x1 PUSH1 0x1 PUSH1 0xA0 SHL SUB DUP4 AND PUSH2 0xC04 JUMPI PUSH1 0x40 MLOAD PUSH3 0x461BCD PUSH1 0xE5 SHL DUP2 MSTORE PUSH1 0x20 PUSH1 0x4 DUP3 ADD MSTORE PUSH1 0x25 PUSH1 0x24 DUP3 ADD MSTORE PUSH32 0x45524332303A207472616E736665722066726F6D20746865207A65726F206164 PUSH1 0x44 DUP3 ADD MSTORE PUSH5 0x6472657373 PUSH1 0xD8 SHL PUSH1 0x64 DUP3 ADD MSTORE PUSH1 0x84 ADD PUSH2 0x471 JUMP JUMPDEST PUSH1 0x1 PUSH1 0x1 PUSH1 0xA0 SHL SUB DUP3 AND PUSH2 0xC66 JUMPI PUSH1 0x40 MLOAD PUSH3 0x461BCD PUSH1 0xE5 SHL DUP2 MSTORE PUSH1 0x20 PUSH1 0x4 DUP3 ADD MSTORE PUSH1 0x23 PUSH1 0x24 DUP3 ADD MSTORE PUSH32 0x45524332303A207472616E7366657220746F20746865207A65726F2061646472 PUSH1 0x44 DUP3 ADD MSTORE PUSH3 0x657373 PUSH1 0xE8 SHL PUSH1 0x64 DUP3 ADD MSTORE PUSH1 0x84 ADD PUSH2 0x471 JUMP JUMPDEST PUSH1 0x0 DUP2 GT PUSH2 0xCC8 JUMPI PUSH1 0x40 MLOAD PUSH3 0x461BCD PUSH1 0xE5 SHL DUP2 MSTORE PUSH1 0x20 PUSH1 0x4 DUP3 ADD MSTORE PUSH1 0x29 PUSH1 0x24 DUP3 ADD MSTORE PUSH32 0x5472616E7366657220616D6F756E74206D757374206265206772656174657220 PUSH1 0x44 DUP3 ADD MSTORE PUSH9 0x7468616E207A65726F PUSH1 0xB8 SHL PUSH1 0x64 DUP3 ADD MSTORE PUSH1 0x84 ADD PUSH2 0x471 JUMP JUMPDEST PUSH1 0x0 DUP1 SLOAD PUSH1 0x1 PUSH1 0x1 PUSH1 0xA0 SHL SUB DUP6 DUP2 AND SWAP2 AND EQ DUP1 ISZERO SWAP1 PUSH2 0xCF5 JUMPI POP PUSH1 0x0 SLOAD PUSH1 0x1 PUSH1 0x1 PUSH1 0xA0 SHL SUB DUP5 DUP2 AND SWAP2 AND EQ ISZERO JUMPDEST ISZERO PUSH2 0x1014 JUMPI PUSH1 0x5 SLOAD PUSH1 0xFF AND ISZERO PUSH2 0xDB3 JUMPI PUSH1 0x12 SLOAD PUSH1 0x1 PUSH1 0x1 PUSH1 0xA0 SHL SUB DUP5 DUP2 AND SWAP2 AND EQ DUP1 ISZERO SWAP1 PUSH2 0xD31 JUMPI POP PUSH1 0x13 SLOAD PUSH1 0x1 PUSH1 0x1 PUSH1 0xA0 SHL SUB DUP5 DUP2 AND SWAP2 AND EQ ISZERO JUMPDEST ISZERO PUSH2 0xDB3 JUMPI ORIGIN PUSH1 0x0 SWAP1 DUP2 MSTORE PUSH1 0x4 PUSH1 0x20 MSTORE PUSH1 0x40 SWAP1 KECCAK256 SLOAD NUMBER GT PUSH2 0xDA0 JUMPI PUSH1 0x40 MLOAD PUSH3 0x461BCD PUSH1 0xE5 SHL DUP2 MSTORE PUSH1 0x20 PUSH1 0x4 DUP3 ADD MSTORE PUSH1 0x24 DUP1 DUP3 ADD MSTORE PUSH32 0x4F6E6C79206F6E65207472616E736665722070657220626C6F636B20616C6C6F PUSH1 0x44 DUP3 ADD MSTORE PUSH4 0x3BB2B217 PUSH1 0xE1 SHL PUSH1 0x64 DUP3 ADD MSTORE PUSH1 0x84 ADD PUSH2 0x471 JUMP JUMPDEST ORIGIN PUSH1 0x0 SWAP1 DUP2 MSTORE PUSH1 0x4 PUSH1 0x20 MSTORE PUSH1 0x40 SWAP1 KECCAK256 NUMBER SWAP1 SSTORE JUMPDEST PUSH1 0x13 SLOAD PUSH1 0x1 PUSH1 0x1 PUSH1 0xA0 SHL SUB DUP6 DUP2 AND SWAP2 AND EQ DUP1 ISZERO PUSH2 0xDDE JUMPI POP PUSH1 0x12 SLOAD PUSH1 0x1 PUSH1 0x1 PUSH1 0xA0 SHL SUB DUP5 DUP2 AND SWAP2 AND EQ ISZERO JUMPDEST DUP1 ISZERO PUSH2 0xE03 JUMPI POP PUSH1 0x1 PUSH1 0x1 PUSH1 0xA0 SHL SUB DUP4 AND PUSH1 0x0 SWAP1 DUP2 MSTORE PUSH1 0x3 PUSH1 0x20 MSTORE PUSH1 0x40 SWAP1 KECCAK256 SLOAD PUSH1 0xFF AND ISZERO JUMPDEST ISZERO PUSH2 0xEEB JUMPI PUSH1 0xE SLOAD DUP3 GT ISZERO PUSH2 0xE5A JUMPI PUSH1 0x40 MLOAD PUSH3 0x461BCD PUSH1 0xE5 SHL DUP2 MSTORE PUSH1 0x20 PUSH1 0x4 DUP3 ADD MSTORE PUSH1 0x19 PUSH1 0x24 DUP3 ADD MSTORE PUSH32 0x4578636565647320746865205F6D61785478416D6F756E742E00000000000000 PUSH1 0x44 DUP3 ADD MSTORE PUSH1 0x64 ADD PUSH2 0x471 JUMP JUMPDEST PUSH1 0xF SLOAD DUP3 PUSH2 0xE7D DUP6 PUSH1 0x1 PUSH1 0x1 PUSH1 0xA0 SHL SUB AND PUSH1 0x0 SWAP1 DUP2 MSTORE PUSH1 0x1 PUSH1 0x20 MSTORE PUSH1 0x40 SWAP1 KECCAK256 SLOAD SWAP1 JUMP JUMPDEST PUSH2 0xE87 SWAP2 SWAP1 PUSH2 0x1675 JUMP JUMPDEST GT ISZERO PUSH2 0xED5 JUMPI PUSH1 0x40 MLOAD PUSH3 0x461BCD PUSH1 0xE5 SHL DUP2 MSTORE PUSH1 0x20 PUSH1 0x4 DUP3 ADD MSTORE PUSH1 0x1A PUSH1 0x24 DUP3 ADD MSTORE PUSH32 0x4578636565647320746865206D617857616C6C657453697A652E000000000000 PUSH1 0x44 DUP3 ADD MSTORE PUSH1 0x64 ADD PUSH2 0x471 JUMP JUMPDEST PUSH1 0xD DUP1 SLOAD SWAP1 PUSH1 0x0 PUSH2 0xEE5 DUP4 PUSH2 0x168D JUMP JUMPDEST SWAP2 SWAP1 POP SSTORE POP JUMPDEST PUSH1 0x64 PUSH1 0xA SLOAD PUSH1 0xD SLOAD GT PUSH2 0xF00 JUMPI PUSH1 0x6 SLOAD PUSH2 0xF04 JUMP JUMPDEST PUSH1 0x8 SLOAD JUMPDEST PUSH2 0xF0E SWAP1 DUP5 PUSH2 0x15D2 JUMP JUMPDEST PUSH2 0xF18 SWAP2 SWAP1 PUSH2 0x16A8 JUMP JUMPDEST PUSH1 0x13 SLOAD SWAP1 SWAP2 POP PUSH1 0x1 PUSH1 0x1 PUSH1 0xA0 SHL SUB DUP5 DUP2 AND SWAP2 AND EQ DUP1 ISZERO PUSH2 0xF41 JUMPI POP PUSH1 0x1 PUSH1 0x1 PUSH1 0xA0 SHL SUB DUP5 AND ADDRESS EQ ISZERO JUMPDEST ISZERO PUSH2 0xF76 JUMPI PUSH1 0x64 PUSH1 0xB SLOAD PUSH1 0xD SLOAD GT PUSH2 0xF5B JUMPI PUSH1 0x7 SLOAD PUSH2 0xF5F JUMP JUMPDEST PUSH1 0x9 SLOAD JUMPDEST PUSH2 0xF69 SWAP1 DUP5 PUSH2 0x15D2 JUMP JUMPDEST PUSH2 0xF73 SWAP2 SWAP1 PUSH2 0x16A8 JUMP JUMPDEST SWAP1 POP JUMPDEST ADDRESS PUSH1 0x0 SWAP1 DUP2 MSTORE PUSH1 0x1 PUSH1 0x20 MSTORE PUSH1 0x40 SWAP1 KECCAK256 SLOAD PUSH1 0x13 SLOAD PUSH1 0x1 PUSH1 0xA8 SHL SWAP1 DIV PUSH1 0xFF AND ISZERO DUP1 ISZERO PUSH2 0xFAD JUMPI POP PUSH1 0x13 SLOAD PUSH1 0x1 PUSH1 0x1 PUSH1 0xA0 SHL SUB DUP6 DUP2 AND SWAP2 AND EQ JUMPDEST DUP1 ISZERO PUSH2 0xFC2 JUMPI POP PUSH1 0x13 SLOAD PUSH1 0x1 PUSH1 0xB0 SHL SWAP1 DIV PUSH1 0xFF AND JUMPDEST DUP1 ISZERO PUSH2 0xFCF JUMPI POP PUSH1 0x10 SLOAD DUP2 GT JUMPDEST DUP1 ISZERO PUSH2 0xFDE JUMPI POP PUSH1 0xC SLOAD PUSH1 0xD SLOAD GT JUMPDEST ISZERO PUSH2 0x1012 JUMPI PUSH2 0x1000 PUSH2 0xFFB DUP5 PUSH2 0xFF6 DUP5 PUSH1 0x11 SLOAD PUSH2 0x1333 JUMP JUMPDEST PUSH2 0x1333 JUMP JUMPDEST PUSH2 0x115A JUMP JUMPDEST SELFBALANCE DUP1 ISZERO PUSH2 0x1010 JUMPI PUSH2 0x1010 SELFBALANCE PUSH2 0x12F5 JUMP JUMPDEST POP JUMPDEST POP JUMPDEST DUP1 ISZERO PUSH2 0x108F JUMPI ADDRESS PUSH1 0x0 SWAP1 DUP2 MSTORE PUSH1 0x1 PUSH1 0x20 MSTORE PUSH1 0x40 SWAP1 KECCAK256 SLOAD PUSH2 0x1035 SWAP1 DUP3 SWAP1 PUSH2 0x1675 JUMP JUMPDEST ADDRESS PUSH1 0x0 DUP2 DUP2 MSTORE PUSH1 0x1 PUSH1 0x20 MSTORE PUSH1 0x40 SWAP1 DUP2 SWAP1 KECCAK256 SWAP3 SWAP1 SWAP3 SSTORE SWAP1 MLOAD PUSH1 0x1 PUSH1 0x1 PUSH1 0xA0 SHL SUB DUP7 AND SWAP1 PUSH32 0xDDF252AD1BE2C89B69C2B068FC378DAA952BA7F163C4A11628F55A4DF523B3EF SWAP1 PUSH2 0x1086 SWAP1 DUP6 DUP2 MSTORE PUSH1 0x20 ADD SWAP1 JUMP JUMPDEST PUSH1 0x40 MLOAD DUP1 SWAP2 SUB SWAP1 LOG3 JUMPDEST PUSH1 0x1 PUSH1 0x1 PUSH1 0xA0 SHL SUB DUP5 AND PUSH1 0x0 SWAP1 DUP2 MSTORE PUSH1 0x1 PUSH1 0x20 MSTORE PUSH1 0x40 SWAP1 KECCAK256 SLOAD PUSH2 0x10B3 SWAP1 DUP4 SWAP1 PUSH2 0x165E JUMP JUMPDEST PUSH1 0x1 PUSH1 0x1 PUSH1 0xA0 SHL SUB DUP6 AND PUSH1 0x0 SWAP1 DUP2 MSTORE PUSH1 0x1 PUSH1 0x20 MSTORE PUSH1 0x40 SWAP1 KECCAK256 SSTORE PUSH2 0x10D6 DUP2 DUP4 PUSH2 0x165E JUMP JUMPDEST PUSH1 0x1 PUSH1 0x1 PUSH1 0xA0 SHL SUB DUP5 AND PUSH1 0x0 SWAP1 DUP2 MSTORE PUSH1 0x1 PUSH1 0x20 MSTORE PUSH1 0x40 SWAP1 KECCAK256 SLOAD PUSH2 0x10F9 SWAP2 SWAP1 PUSH2 0x1675 JUMP JUMPDEST PUSH1 0x1 PUSH1 0x1 PUSH1 0xA0 SHL SUB DUP1 DUP6 AND PUSH1 0x0 DUP2 DUP2 MSTORE PUSH1 0x1 PUSH1 0x20 MSTORE PUSH1 0x40 SWAP1 KECCAK256 SWAP3 SWAP1 SWAP3 SSTORE DUP6 AND PUSH32 0xDDF252AD1BE2C89B69C2B068FC378DAA952BA7F163C4A11628F55A4DF523B3EF PUSH2 0x1143 DUP5 DUP7 PUSH2 0x165E JUMP JUMPDEST PUSH1 0x40 MLOAD SWAP1 DUP2 MSTORE PUSH1 0x20 ADD PUSH1 0x40 MLOAD DUP1 SWAP2 SUB SWAP1 LOG3 POP POP POP POP JUMP JUMPDEST PUSH1 0x13 DUP1 SLOAD PUSH1 0xFF PUSH1 0xA8 SHL NOT AND PUSH1 0x1 PUSH1 0xA8 SHL OR SWAP1 SSTORE DUP1 PUSH2 0x1177 JUMPI PUSH2 0x12E5 JUMP JUMPDEST PUSH1 0x13 SLOAD PUSH1 0x1 PUSH1 0xA0 SHL SWAP1 DIV PUSH1 0xFF AND PUSH2 0x118D JUMPI PUSH2 0x12E5 JUMP JUMPDEST PUSH1 0x40 DUP1 MLOAD PUSH1 0x2 DUP1 DUP3 MSTORE PUSH1 0x60 DUP3 ADD DUP4 MSTORE PUSH1 0x0 SWAP3 PUSH1 0x20 DUP4 ADD SWAP1 DUP1 CALLDATASIZE DUP4 CALLDATACOPY ADD SWAP1 POP POP SWAP1 POP ADDRESS DUP2 PUSH1 0x0 DUP2 MLOAD DUP2 LT PUSH2 0x11C2 JUMPI PUSH2 0x11C2 PUSH2 0x16CA JUMP JUMPDEST PUSH1 0x1 PUSH1 0x1 PUSH1 0xA0 SHL SUB SWAP3 DUP4 AND PUSH1 0x20 SWAP2 DUP3 MUL SWAP3 SWAP1 SWAP3 ADD DUP2 ADD SWAP2 SWAP1 SWAP2 MSTORE PUSH1 0x12 SLOAD PUSH1 0x40 DUP1 MLOAD PUSH4 0x15AB88C9 PUSH1 0xE3 SHL DUP2 MSTORE SWAP1 MLOAD SWAP2 SWAP1 SWAP4 AND SWAP3 PUSH4 0xAD5C4648 SWAP3 PUSH1 0x4 DUP1 DUP4 ADD SWAP4 SWAP2 SWAP3 DUP3 SWAP1 SUB ADD DUP2 DUP7 GAS STATICCALL ISZERO DUP1 ISZERO PUSH2 0x121B JUMPI RETURNDATASIZE PUSH1 0x0 DUP1 RETURNDATACOPY RETURNDATASIZE PUSH1 0x0 REVERT JUMPDEST POP POP POP POP PUSH1 0x40 MLOAD RETURNDATASIZE PUSH1 0x1F NOT PUSH1 0x1F DUP3 ADD AND DUP3 ADD DUP1 PUSH1 0x40 MSTORE POP DUP2 ADD SWAP1 PUSH2 0x123F SWAP2 SWAP1 PUSH2 0x15F1 JUMP JUMPDEST DUP2 PUSH1 0x1 DUP2 MLOAD DUP2 LT PUSH2 0x1252 JUMPI PUSH2 0x1252 PUSH2 0x16CA JUMP JUMPDEST PUSH1 0x1 PUSH1 0x1 PUSH1 0xA0 SHL SUB SWAP3 DUP4 AND PUSH1 0x20 SWAP2 DUP3 MUL SWAP3 SWAP1 SWAP3 ADD ADD MSTORE PUSH1 0x12 SLOAD PUSH2 0x1278 SWAP2 ADDRESS SWAP2 AND DUP5 PUSH2 0xA7C JUMP JUMPDEST PUSH1 0x12 SLOAD PUSH1 0x40 MLOAD PUSH4 0x791AC947 PUSH1 0xE0 SHL DUP2 MSTORE PUSH1 0x1 PUSH1 0x1 PUSH1 0xA0 SHL SUB SWAP1 SWAP2 AND SWAP1 PUSH4 0x791AC947 SWAP1 PUSH2 0x12B1 SWAP1 DUP6 SWAP1 PUSH1 0x0 SWAP1 DUP7 SWAP1 ADDRESS SWAP1 TIMESTAMP SWAP1 PUSH1 0x4 ADD PUSH2 0x16E0 JUMP JUMPDEST PUSH1 0x0 PUSH1 0x40 MLOAD DUP1 DUP4 SUB DUP2 PUSH1 0x0 DUP8 DUP1 EXTCODESIZE ISZERO DUP1 ISZERO PUSH2 0x12CB JUMPI PUSH1 0x0 DUP1 REVERT JUMPDEST POP GAS CALL ISZERO DUP1 ISZERO PUSH2 0x12DF JUMPI RETURNDATASIZE PUSH1 0x0 DUP1 RETURNDATACOPY RETURNDATASIZE PUSH1 0x0 REVERT JUMPDEST POP POP POP POP POP JUMPDEST POP PUSH1 0x13 DUP1 SLOAD PUSH1 0xFF PUSH1 0xA8 SHL NOT AND SWAP1 SSTORE JUMP JUMPDEST PUSH1 0x5 SLOAD PUSH1 0x40 MLOAD PUSH2 0x100 SWAP1 SWAP2 DIV PUSH1 0x1 PUSH1 0x1 PUSH1 0xA0 SHL SUB AND SWAP1 PUSH2 0x8FC DUP4 ISZERO MUL SWAP1 DUP4 SWAP1 PUSH1 0x0 DUP2 DUP2 DUP2 DUP6 DUP9 DUP9 CALL SWAP4 POP POP POP POP ISZERO DUP1 ISZERO PUSH2 0x930 JUMPI RETURNDATASIZE PUSH1 0x0 DUP1 RETURNDATACOPY RETURNDATASIZE PUSH1 0x0 REVERT JUMPDEST PUSH1 0x0 DUP2 DUP4 GT PUSH2 0x1342 JUMPI DUP3 PUSH2 0x1344 JUMP JUMPDEST DUP2 JUMPDEST SWAP4 SWAP3 POP POP POP JUMP JUMPDEST PUSH1 0x0 PUSH1 0x20 DUP1 DUP4 MSTORE DUP4 MLOAD DUP1 DUP3 DUP6 ADD MSTORE PUSH1 0x0 JUMPDEST DUP2 DUP2 LT ISZERO PUSH2 0x1378 JUMPI DUP6 DUP2 ADD DUP4 ADD MLOAD DUP6 DUP3 ADD PUSH1 0x40 ADD MSTORE DUP3 ADD PUSH2 0x135C JUMP JUMPDEST DUP2 DUP2 GT ISZERO PUSH2 0x138A JUMPI PUSH1 0x0 PUSH1 0x40 DUP4 DUP8 ADD ADD MSTORE JUMPDEST POP PUSH1 0x1F ADD PUSH1 0x1F NOT AND SWAP3 SWAP1 SWAP3 ADD PUSH1 0x40 ADD SWAP4 SWAP3 POP POP POP JUMP JUMPDEST PUSH1 0x1 PUSH1 0x1 PUSH1 0xA0 SHL SUB DUP2 AND DUP2 EQ PUSH2 0x13B5 JUMPI PUSH1 0x0 DUP1 REVERT JUMPDEST POP JUMP JUMPDEST PUSH1 0x0 DUP1 PUSH1 0x40 DUP4 DUP6 SUB SLT ISZERO PUSH2 0x13CB JUMPI PUSH1 0x0 DUP1 REVERT JUMPDEST DUP3 CALLDATALOAD PUSH2 0x13D6 DUP2 PUSH2 0x13A0 JUMP JUMPDEST SWAP5 PUSH1 0x20 SWAP4 SWAP1 SWAP4 ADD CALLDATALOAD SWAP4 POP POP POP JUMP JUMPDEST PUSH1 0x0 PUSH1 0x20 DUP3 DUP5 SUB SLT ISZERO PUSH2 0x13F6 JUMPI PUSH1 0x0 DUP1 REVERT JUMPDEST POP CALLDATALOAD SWAP2 SWAP1 POP JUMP JUMPDEST PUSH1 0x0 DUP1 PUSH1 0x0 PUSH1 0x60 DUP5 DUP7 SUB SLT ISZERO PUSH2 0x1412 JUMPI PUSH1 0x0 DUP1 REVERT JUMPDEST DUP4 CALLDATALOAD PUSH2 0x141D DUP2 PUSH2 0x13A0 JUMP JUMPDEST SWAP3 POP PUSH1 0x20 DUP5 ADD CALLDATALOAD PUSH2 0x142D DUP2 PUSH2 0x13A0 JUMP JUMPDEST SWAP3 SWAP6 SWAP3 SWAP5 POP POP POP PUSH1 0x40 SWAP2 SWAP1 SWAP2 ADD CALLDATALOAD SWAP1 JUMP JUMPDEST PUSH1 0x0 PUSH1 0x20 DUP3 DUP5 SUB SLT ISZERO PUSH2 0x1450 JUMPI PUSH1 0x0 DUP1 REVERT JUMPDEST DUP2 CALLDATALOAD PUSH2 0x1344 DUP2 PUSH2 0x13A0 JUMP JUMPDEST PUSH1 0x0 DUP1 PUSH1 0x40 DUP4 DUP6 SUB SLT ISZERO PUSH2 0x146E JUMPI PUSH1 0x0 DUP1 REVERT JUMPDEST DUP3 CALLDATALOAD PUSH2 0x1479 DUP2 PUSH2 0x13A0 JUMP JUMPDEST SWAP2 POP PUSH1 0x20 DUP4 ADD CALLDATALOAD PUSH2 0x1489 DUP2 PUSH2 0x13A0 JUMP JUMPDEST DUP1 SWAP2 POP POP SWAP3 POP SWAP3 SWAP1 POP JUMP JUMPDEST PUSH1 0x20 DUP1 DUP3 MSTORE DUP2 DUP2 ADD MSTORE PUSH32 0x4F776E61626C653A2063616C6C6572206973206E6F7420746865206F776E6572 PUSH1 0x40 DUP3 ADD MSTORE PUSH1 0x60 ADD SWAP1 JUMP JUMPDEST PUSH4 0x4E487B71 PUSH1 0xE0 SHL PUSH1 0x0 MSTORE PUSH1 0x11 PUSH1 0x4 MSTORE PUSH1 0x24 PUSH1 0x0 REVERT JUMPDEST PUSH1 0x1 DUP2 DUP2 JUMPDEST DUP1 DUP6 GT ISZERO PUSH2 0x151A JUMPI DUP2 PUSH1 0x0 NOT DIV DUP3 GT ISZERO PUSH2 0x1500 JUMPI PUSH2 0x1500 PUSH2 0x14C9 JUMP JUMPDEST DUP1 DUP6 AND ISZERO PUSH2 0x150D JUMPI SWAP2 DUP2 MUL SWAP2 JUMPDEST SWAP4 DUP5 SHR SWAP4 SWAP1 DUP1 MUL SWAP1 PUSH2 0x14E4 JUMP JUMPDEST POP SWAP3 POP SWAP3 SWAP1 POP JUMP JUMPDEST PUSH1 0x0 DUP3 PUSH2 0x1531 JUMPI POP PUSH1 0x1 PUSH2 0x821 JUMP JUMPDEST DUP2 PUSH2 0x153E JUMPI POP PUSH1 0x0 PUSH2 0x821 JUMP JUMPDEST DUP2 PUSH1 0x1 DUP2 EQ PUSH2 0x1554 JUMPI PUSH1 0x2 DUP2 EQ PUSH2 0x155E JUMPI PUSH2 0x157A JUMP JUMPDEST PUSH1 0x1 SWAP2 POP POP PUSH2 0x821 JUMP JUMPDEST PUSH1 0xFF DUP5 GT ISZERO PUSH2 0x156F JUMPI PUSH2 0x156F PUSH2 0x14C9 JUMP JUMPDEST POP POP PUSH1 0x1 DUP3 SHL PUSH2 0x821 JUMP JUMPDEST POP PUSH1 0x20 DUP4 LT PUSH2 0x133 DUP4 LT AND PUSH1 0x4E DUP5 LT PUSH1 0xB DUP5 LT AND OR ISZERO PUSH2 0x159D JUMPI POP DUP2 DUP2 EXP PUSH2 0x821 JUMP JUMPDEST PUSH2 0x15A7 DUP4 DUP4 PUSH2 0x14DF JUMP JUMPDEST DUP1 PUSH1 0x0 NOT DIV DUP3 GT ISZERO PUSH2 0x15BB JUMPI PUSH2 0x15BB PUSH2 0x14C9 JUMP JUMPDEST MUL SWAP4 SWAP3 POP POP POP JUMP JUMPDEST PUSH1 0x0 PUSH2 0x1344 PUSH1 0xFF DUP5 AND DUP4 PUSH2 0x1522 JUMP JUMPDEST PUSH1 0x0 DUP2 PUSH1 0x0 NOT DIV DUP4 GT DUP3 ISZERO ISZERO AND ISZERO PUSH2 0x15EC JUMPI PUSH2 0x15EC PUSH2 0x14C9 JUMP JUMPDEST POP MUL SWAP1 JUMP JUMPDEST PUSH1 0x0 PUSH1 0x20 DUP3 DUP5 SUB SLT ISZERO PUSH2 0x1603 JUMPI PUSH1 0x0 DUP1 REVERT JUMPDEST DUP2 MLOAD PUSH2 0x1344 DUP2 PUSH2 0x13A0 JUMP JUMPDEST PUSH1 0x0 DUP1 PUSH1 0x0 PUSH1 0x60 DUP5 DUP7 SUB SLT ISZERO PUSH2 0x1623 JUMPI PUSH1 0x0 DUP1 REVERT JUMPDEST DUP4 MLOAD SWAP3 POP PUSH1 0x20 DUP5 ADD MLOAD SWAP2 POP PUSH1 0x40 DUP5 ADD MLOAD SWAP1 POP SWAP3 POP SWAP3 POP SWAP3 JUMP JUMPDEST PUSH1 0x0 PUSH1 0x20 DUP3 DUP5 SUB SLT ISZERO PUSH2 0x164E JUMPI PUSH1 0x0 DUP1 REVERT JUMPDEST DUP2 MLOAD DUP1 ISZERO ISZERO DUP2 EQ PUSH2 0x1344 JUMPI PUSH1 0x0 DUP1 REVERT JUMPDEST PUSH1 0x0 DUP3 DUP3 LT ISZERO PUSH2 0x1670 JUMPI PUSH2 0x1670 PUSH2 0x14C9 JUMP JUMPDEST POP SUB SWAP1 JUMP JUMPDEST PUSH1 0x0 DUP3 NOT DUP3 GT ISZERO PUSH2 0x1688 JUMPI PUSH2 0x1688 PUSH2 0x14C9 JUMP JUMPDEST POP ADD SWAP1 JUMP JUMPDEST PUSH1 0x0 PUSH1 0x0 NOT DUP3 EQ ISZERO PUSH2 0x16A1 JUMPI PUSH2 0x16A1 PUSH2 0x14C9 JUMP JUMPDEST POP PUSH1 0x1 ADD SWAP1 JUMP JUMPDEST PUSH1 0x0 DUP3 PUSH2 0x16C5 JUMPI PUSH4 0x4E487B71 PUSH1 0xE0 SHL PUSH1 0x0 MSTORE PUSH1 0x12 PUSH1 0x4 MSTORE PUSH1 0x24 PUSH1 0x0 REVERT JUMPDEST POP DIV SWAP1 JUMP JUMPDEST PUSH4 0x4E487B71 PUSH1 0xE0 SHL PUSH1 0x0 MSTORE PUSH1 0x32 PUSH1 0x4 MSTORE PUSH1 0x24 PUSH1 0x0 REVERT JUMPDEST PUSH1 0x0 PUSH1 0xA0 DUP3 ADD DUP8 DUP4 MSTORE PUSH1 0x20 DUP8 DUP2 DUP6 ADD MSTORE PUSH1 0xA0 PUSH1 0x40 DUP6 ADD MSTORE DUP2 DUP8 MLOAD DUP1 DUP5 MSTORE PUSH1 0xC0 DUP7 ADD SWAP2 POP DUP3 DUP10 ADD SWAP4 POP PUSH1 0x0 JUMPDEST DUP2 DUP2 LT ISZERO PUSH2 0x1730 JUMPI DUP5 MLOAD PUSH1 0x1 PUSH1 0x1 PUSH1 0xA0 SHL SUB AND DUP4 MSTORE SWAP4 DUP4 ADD SWAP4 SWAP2 DUP4 ADD SWAP2 PUSH1 0x1 ADD PUSH2 0x170B JUMP JUMPDEST POP POP PUSH1 0x1 PUSH1 0x1 PUSH1 0xA0 SHL SUB SWAP7 SWAP1 SWAP7 AND PUSH1 0x60 DUP6 ADD MSTORE POP POP POP PUSH1 0x80 ADD MSTORE SWAP4 SWAP3 POP POP POP JUMP INVALID LOG2 PUSH5 0x6970667358 0x22 SLT KECCAK256 0x28 STATICCALL PUSH15 0x398DBF463BA1EA88CF3398E6CEA605 0xB2 0x4F CALLDATACOPY CALL 0xDA SAR ADDMOD 0xDB REVERT SWAP16 DIFFICULTY SMOD EQ SWAP12 PUSH5 0x736F6C6343 STOP ADDMOD EXP STOP CALLER "
				},
				"gasEstimates": {
					"creation": {
						"codeDepositCost": "1204600",
						"executionCost": "infinite",
						"totalCost": "infinite"
					},
					"external": {
						"DEAD_WALLET()": "238",
						"Launch()": "infinite",
						"_maxTaxSwap()": "2318",
						"_maxTxAmount()": "2362",
						"_maxWalletSize()": "2406",
						"_reduceBuyTaxAt()": "2385",
						"_reduceSellTaxAt()": "2383",
						"_taxSwapThreshold()": "2361",
						"allowance(address,address)": "infinite",
						"approve(address,uint256)": "24659",
						"balanceOf(address)": "2664",
						"changeSwapAmount(uint256)": "46779",
						"decimals()": "266",
						"manualSwap()": "infinite",
						"name()": "infinite",
						"owner()": "2409",
						"removeLimits()": "infinite",
						"renounceOwnership()": "30188",
						"symbol()": "infinite",
						"totalSupply()": "679",
						"transfer(address,uint256)": "infinite",
						"transferDelayEnabled()": "2420",
						"transferFrom(address,address,uint256)": "infinite"
					},
					"internal": {
						"_approve(address,address,uint256)": "infinite",
						"_transfer(address,address,uint256)": "infinite",
						"min(uint256,uint256)": "61",
						"sendETHToFee(uint256)": "infinite",
						"swapTokensForEth(uint256)": "infinite"
					}
				},
				"methodIdentifiers": {
					"DEAD_WALLET()": "a01c3483",
					"Launch()": "02ac8168",
					"_maxTaxSwap()": "0faee56f",
					"_maxTxAmount()": "7d1db4a5",
					"_maxWalletSize()": "8f9a55c0",
					"_reduceBuyTaxAt()": "0c193045",
					"_reduceSellTaxAt()": "c36956a0",
					"_taxSwapThreshold()": "bf474bed",
					"allowance(address,address)": "dd62ed3e",
					"approve(address,uint256)": "095ea7b3",
					"balanceOf(address)": "70a08231",
					"changeSwapAmount(uint256)": "0ce5fd36",
					"decimals()": "313ce567",
					"manualSwap()": "51bc3c85",
					"name()": "06fdde03",
					"owner()": "8da5cb5b",
					"removeLimits()": "751039fc",
					"renounceOwnership()": "715018a6",
					"symbol()": "95d89b41",
					"totalSupply()": "18160ddd",
					"transfer(address,uint256)": "a9059cbb",
					"transferDelayEnabled()": "c876d0b9",
					"transferFrom(address,address,uint256)": "23b872dd"
				}
			},
			"storageLayout": {
				"storage": [
					{
						"astId": 82,
						"contract": "contracts/oatFINAL.sol:OneAnonataTime",
						"label": "_owner",
						"offset": 0,
						"slot": "0",
						"type": "t_address"
					},
					{
						"astId": 217,
						"contract": "contracts/oatFINAL.sol:OneAnonataTime",
						"label": "_balances",
						"offset": 0,
						"slot": "1",
						"type": "t_mapping(t_address,t_uint256)"
					},
					{
						"astId": 223,
						"contract": "contracts/oatFINAL.sol:OneAnonataTime",
						"label": "_allowances",
						"offset": 0,
						"slot": "2",
						"type": "t_mapping(t_address,t_mapping(t_address,t_uint256))"
					},
					{
						"astId": 227,
						"contract": "contracts/oatFINAL.sol:OneAnonataTime",
						"label": "_isExcludedFromFee",
						"offset": 0,
						"slot": "3",
						"type": "t_mapping(t_address,t_bool)"
					},
					{
						"astId": 231,
						"contract": "contracts/oatFINAL.sol:OneAnonataTime",
						"label": "_holderLastTransferTimestamp",
						"offset": 0,
						"slot": "4",
						"type": "t_mapping(t_address,t_uint256)"
					},
					{
						"astId": 234,
						"contract": "contracts/oatFINAL.sol:OneAnonataTime",
						"label": "transferDelayEnabled",
						"offset": 0,
						"slot": "5",
						"type": "t_bool"
					},
					{
						"astId": 236,
						"contract": "contracts/oatFINAL.sol:OneAnonataTime",
						"label": "_taxWallet",
						"offset": 1,
						"slot": "5",
						"type": "t_address_payable"
					},
					{
						"astId": 242,
						"contract": "contracts/oatFINAL.sol:OneAnonataTime",
						"label": "_initialBuyTax",
						"offset": 0,
						"slot": "6",
						"type": "t_uint256"
					},
					{
						"astId": 245,
						"contract": "contracts/oatFINAL.sol:OneAnonataTime",
						"label": "_initialSellTax",
						"offset": 0,
						"slot": "7",
						"type": "t_uint256"
					},
					{
						"astId": 248,
						"contract": "contracts/oatFINAL.sol:OneAnonataTime",
						"label": "_finalBuyTax",
						"offset": 0,
						"slot": "8",
						"type": "t_uint256"
					},
					{
						"astId": 251,
						"contract": "contracts/oatFINAL.sol:OneAnonataTime",
						"label": "_finalSellTax",
						"offset": 0,
						"slot": "9",
						"type": "t_uint256"
					},
					{
						"astId": 254,
						"contract": "contracts/oatFINAL.sol:OneAnonataTime",
						"label": "_reduceBuyTaxAt",
						"offset": 0,
						"slot": "10",
						"type": "t_uint256"
					},
					{
						"astId": 257,
						"contract": "contracts/oatFINAL.sol:OneAnonataTime",
						"label": "_reduceSellTaxAt",
						"offset": 0,
						"slot": "11",
						"type": "t_uint256"
					},
					{
						"astId": 260,
						"contract": "contracts/oatFINAL.sol:OneAnonataTime",
						"label": "_preventSwapBefore",
						"offset": 0,
						"slot": "12",
						"type": "t_uint256"
					},
					{
						"astId": 263,
						"contract": "contracts/oatFINAL.sol:OneAnonataTime",
						"label": "_buyCount",
						"offset": 0,
						"slot": "13",
						"type": "t_uint256"
					},
					{
						"astId": 284,
						"contract": "contracts/oatFINAL.sol:OneAnonataTime",
						"label": "_maxTxAmount",
						"offset": 0,
						"slot": "14",
						"type": "t_uint256"
					},
					{
						"astId": 289,
						"contract": "contracts/oatFINAL.sol:OneAnonataTime",
						"label": "_maxWalletSize",
						"offset": 0,
						"slot": "15",
						"type": "t_uint256"
					},
					{
						"astId": 294,
						"contract": "contracts/oatFINAL.sol:OneAnonataTime",
						"label": "_taxSwapThreshold",
						"offset": 0,
						"slot": "16",
						"type": "t_uint256"
					},
					{
						"astId": 299,
						"contract": "contracts/oatFINAL.sol:OneAnonataTime",
						"label": "_maxTaxSwap",
						"offset": 0,
						"slot": "17",
						"type": "t_uint256"
					},
					{
						"astId": 302,
						"contract": "contracts/oatFINAL.sol:OneAnonataTime",
						"label": "uniswapV2Router",
						"offset": 0,
						"slot": "18",
						"type": "t_contract(IUniswapV2Router02)207"
					},
					{
						"astId": 304,
						"contract": "contracts/oatFINAL.sol:OneAnonataTime",
						"label": "uniswapV2Pair",
						"offset": 0,
						"slot": "19",
						"type": "t_address"
					},
					{
						"astId": 306,
						"contract": "contracts/oatFINAL.sol:OneAnonataTime",
						"label": "tradingOpen",
						"offset": 20,
						"slot": "19",
						"type": "t_bool"
					},
					{
						"astId": 309,
						"contract": "contracts/oatFINAL.sol:OneAnonataTime",
						"label": "inSwap",
						"offset": 21,
						"slot": "19",
						"type": "t_bool"
					},
					{
						"astId": 312,
						"contract": "contracts/oatFINAL.sol:OneAnonataTime",
						"label": "swapEnabled",
						"offset": 22,
						"slot": "19",
						"type": "t_bool"
					}
				],
				"types": {
					"t_address": {
						"encoding": "inplace",
						"label": "address",
						"numberOfBytes": "20"
					},
					"t_address_payable": {
						"encoding": "inplace",
						"label": "address payable",
						"numberOfBytes": "20"
					},
					"t_bool": {
						"encoding": "inplace",
						"label": "bool",
						"numberOfBytes": "1"
					},
					"t_contract(IUniswapV2Router02)207": {
						"encoding": "inplace",
						"label": "contract IUniswapV2Router02",
						"numberOfBytes": "20"
					},
					"t_mapping(t_address,t_bool)": {
						"encoding": "mapping",
						"key": "t_address",
						"label": "mapping(address => bool)",
						"numberOfBytes": "32",
						"value": "t_bool"
					},
					"t_mapping(t_address,t_mapping(t_address,t_uint256))": {
						"encoding": "mapping",
						"key": "t_address",
						"label": "mapping(address => mapping(address => uint256))",
						"numberOfBytes": "32",
						"value": "t_mapping(t_address,t_uint256)"
					},
					"t_mapping(t_address,t_uint256)": {
						"encoding": "mapping",
						"key": "t_address",
						"label": "mapping(address => uint256)",
						"numberOfBytes": "32",
						"value": "t_uint256"
					},
					"t_uint256": {
						"encoding": "inplace",
						"label": "uint256",
						"numberOfBytes": "32"
					}
				}
			},
			"userdoc": {
				"kind": "user",
				"methods": {},
				"version": 1
			}
		}
	}
}