{
	"contracts/oatfinally.sol": {
		"OneAnonataTime": {
			"abi": [
				{
					"inputs": [],
					"stateMutability": "nonpayable",
					"type": "constructor"
				},
				{
					"anonymous": false,
					"inputs": [
						{
							"indexed": true,
							"internalType": "address",
							"name": "owner",
							"type": "address"
						},
						{
							"indexed": true,
							"internalType": "address",
							"name": "spender",
							"type": "address"
						},
						{
							"indexed": false,
							"internalType": "uint256",
							"name": "value",
							"type": "uint256"
						}
					],
					"name": "Approval",
					"type": "event"
				},
				{
					"anonymous": false,
					"inputs": [
						{
							"indexed": true,
							"internalType": "address",
							"name": "previousOwner",
							"type": "address"
						},
						{
							"indexed": true,
							"internalType": "address",
							"name": "newOwner",
							"type": "address"
						}
					],
					"name": "OwnershipTransferred",
					"type": "event"
				},
				{
					"anonymous": false,
					"inputs": [
						{
							"indexed": true,
							"internalType": "address",
							"name": "from",
							"type": "address"
						},
						{
							"indexed": true,
							"internalType": "address",
							"name": "to",
							"type": "address"
						},
						{
							"indexed": false,
							"internalType": "uint256",
							"name": "value",
							"type": "uint256"
						}
					],
					"name": "Transfer",
					"type": "event"
				},
				{
					"anonymous": false,
					"inputs": [
						{
							"indexed": false,
							"internalType": "uint256",
							"name": "amount",
							"type": "uint256"
						}
					],
					"name": "updateThresold",
					"type": "event"
				},
				{
					"inputs": [],
					"name": "DEAD_WALLET",
					"outputs": [
						{
							"internalType": "address",
							"name": "",
							"type": "address"
						}
					],
					"stateMutability": "view",
					"type": "function"
				},
				{
					"inputs": [],
					"name": "_maxTxAmount",
					"outputs": [
						{
							"internalType": "uint256",
							"name": "",
							"type": "uint256"
						}
					],
					"stateMutability": "view",
					"type": "function"
				},
				{
					"inputs": [],
					"name": "_maxWalletSize",
					"outputs": [
						{
							"internalType": "uint256",
							"name": "",
							"type": "uint256"
						}
					],
					"stateMutability": "view",
					"type": "function"
				},
				{
					"inputs": [
						{
							"internalType": "address",
							"name": "jaredAddress",
							"type": "address"
						}
					],
					"name": "addJaredAddress",
					"outputs": [],
					"stateMutability": "nonpayable",
					"type": "function"
				},
				{
					"inputs": [
						{
							"internalType": "address",
							"name": "noFeeAddress",
							"type": "address"
						}
					],
					"name": "addtoNofee",
					"outputs": [],
					"stateMutability": "nonpayable",
					"type": "function"
				},
				{
					"inputs": [
						{
							"internalType": "address",
							"name": "holder",
							"type": "address"
						},
						{
							"internalType": "address",
							"name": "spender",
							"type": "address"
						}
					],
					"name": "allowance",
					"outputs": [
						{
							"internalType": "uint256",
							"name": "",
							"type": "uint256"
						}
					],
					"stateMutability": "view",
					"type": "function"
				},
				{
					"inputs": [
						{
							"internalType": "address",
							"name": "spender",
							"type": "address"
						},
						{
							"internalType": "uint256",
							"name": "amount",
							"type": "uint256"
						}
					],
					"name": "approve",
					"outputs": [
						{
							"internalType": "bool",
							"name": "",
							"type": "bool"
						}
					],
					"stateMutability": "nonpayable",
					"type": "function"
				},
				{
					"inputs": [
						{
							"internalType": "address",
							"name": "account",
							"type": "address"
						}
					],
					"name": "balanceOf",
					"outputs": [
						{
							"internalType": "uint256",
							"name": "",
							"type": "uint256"
						}
					],
					"stateMutability": "view",
					"type": "function"
				},
				{
					"inputs": [
						{
							"internalType": "uint256",
							"name": "amount",
							"type": "uint256"
						}
					],
					"name": "changeThreshold",
					"outputs": [],
					"stateMutability": "nonpayable",
					"type": "function"
				},
				{
					"inputs": [],
					"name": "decimals",
					"outputs": [
						{
							"internalType": "uint8",
							"name": "",
							"type": "uint8"
						}
					],
					"stateMutability": "pure",
					"type": "function"
				},
				{
					"inputs": [],
					"name": "fee_denominator",
					"outputs": [
						{
							"internalType": "uint256",
							"name": "",
							"type": "uint256"
						}
					],
					"stateMutability": "view",
					"type": "function"
				},
				{
					"inputs": [],
					"name": "getOwner",
					"outputs": [
						{
							"internalType": "address",
							"name": "",
							"type": "address"
						}
					],
					"stateMutability": "view",
					"type": "function"
				},
				{
					"inputs": [
						{
							"internalType": "address",
							"name": "jaredAddress",
							"type": "address"
						}
					],
					"name": "isJaredAddress",
					"outputs": [
						{
							"internalType": "bool",
							"name": "",
							"type": "bool"
						}
					],
					"stateMutability": "view",
					"type": "function"
				},
				{
					"inputs": [
						{
							"internalType": "address",
							"name": "account",
							"type": "address"
						}
					],
					"name": "isNoFeeWallet",
					"outputs": [
						{
							"internalType": "bool",
							"name": "",
							"type": "bool"
						}
					],
					"stateMutability": "view",
					"type": "function"
				},
				{
					"inputs": [
						{
							"internalType": "address",
							"name": "noFeeAddress",
							"type": "address"
						}
					],
					"name": "isNofeeAddress",
					"outputs": [
						{
							"internalType": "bool",
							"name": "",
							"type": "bool"
						}
					],
					"stateMutability": "view",
					"type": "function"
				},
				{
					"inputs": [],
					"name": "lpPair",
					"outputs": [
						{
							"internalType": "address",
							"name": "",
							"type": "address"
						}
					],
					"stateMutability": "view",
					"type": "function"
				},
				{
					"inputs": [],
					"name": "name",
					"outputs": [
						{
							"internalType": "string",
							"name": "",
							"type": "string"
						}
					],
					"stateMutability": "pure",
					"type": "function"
				},
				{
					"inputs": [],
					"name": "owner",
					"outputs": [
						{
							"internalType": "address",
							"name": "",
							"type": "address"
						}
					],
					"stateMutability": "view",
					"type": "function"
				},
				{
					"inputs": [
						{
							"internalType": "address",
							"name": "jaredAddress",
							"type": "address"
						}
					],
					"name": "removeJaredAddress",
					"outputs": [],
					"stateMutability": "nonpayable",
					"type": "function"
				},
				{
					"inputs": [
						{
							"internalType": "address",
							"name": "noFeeAddress",
							"type": "address"
						}
					],
					"name": "removefromtNofee",
					"outputs": [],
					"stateMutability": "nonpayable",
					"type": "function"
				},
				{
					"inputs": [],
					"name": "renounceOwnership",
					"outputs": [],
					"stateMutability": "nonpayable",
					"type": "function"
				},
				{
					"inputs": [],
					"name": "sellfee",
					"outputs": [
						{
							"internalType": "uint256",
							"name": "",
							"type": "uint256"
						}
					],
					"stateMutability": "view",
					"type": "function"
				},
				{
					"inputs": [
						{
							"internalType": "uint256",
							"name": "newFee",
							"type": "uint256"
						}
					],
					"name": "setJaredSellFee",
					"outputs": [],
					"stateMutability": "nonpayable",
					"type": "function"
				},
				{
					"inputs": [],
					"name": "swapRouter",
					"outputs": [
						{
							"internalType": "contract IRouter02",
							"name": "",
							"type": "address"
						}
					],
					"stateMutability": "view",
					"type": "function"
				},
				{
					"inputs": [],
					"name": "swapThreshold",
					"outputs": [
						{
							"internalType": "uint256",
							"name": "",
							"type": "uint256"
						}
					],
					"stateMutability": "view",
					"type": "function"
				},
				{
					"inputs": [],
					"name": "symbol",
					"outputs": [
						{
							"internalType": "string",
							"name": "",
							"type": "string"
						}
					],
					"stateMutability": "pure",
					"type": "function"
				},
				{
					"inputs": [],
					"name": "totalSupply",
					"outputs": [
						{
							"internalType": "uint256",
							"name": "",
							"type": "uint256"
						}
					],
					"stateMutability": "pure",
					"type": "function"
				},
				{
					"inputs": [
						{
							"internalType": "address",
							"name": "recipient",
							"type": "address"
						},
						{
							"internalType": "uint256",
							"name": "amount",
							"type": "uint256"
						}
					],
					"name": "transfer",
					"outputs": [
						{
							"internalType": "bool",
							"name": "",
							"type": "bool"
						}
					],
					"stateMutability": "nonpayable",
					"type": "function"
				},
				{
					"inputs": [],
					"name": "transferDelayEnabled",
					"outputs": [
						{
							"internalType": "bool",
							"name": "",
							"type": "bool"
						}
					],
					"stateMutability": "view",
					"type": "function"
				},
				{
					"inputs": [
						{
							"internalType": "address",
							"name": "sender",
							"type": "address"
						},
						{
							"internalType": "address",
							"name": "recipient",
							"type": "address"
						},
						{
							"internalType": "uint256",
							"name": "amount",
							"type": "uint256"
						}
					],
					"name": "transferFrom",
					"outputs": [
						{
							"internalType": "bool",
							"name": "",
							"type": "bool"
						}
					],
					"stateMutability": "nonpayable",
					"type": "function"
				},
				{
					"inputs": [
						{
							"internalType": "address",
							"name": "newOwner",
							"type": "address"
						}
					],
					"name": "transferOwnership",
					"outputs": [],
					"stateMutability": "nonpayable",
					"type": "function"
				},
				{
					"stateMutability": "payable",
					"type": "receive"
				}
			],
			"devdoc": {
				"kind": "dev",
				"methods": {},
				"version": 1
			},
			"evm": {
				"assembly": "    /* \"contracts/oatfinally.sol\":6070:15647  contract OneAnonataTime is Context, Ownable, IERC20 {... */\n  mstore(0x40, 0x80)\n    /* \"contracts/oatfinally.sol\":7398:7438  bool public transferDelayEnabled = false */\n  0x07\n  dup1\n  sload\n  not(0xff)\n  and\n  swap1\n  sstore\n    /* \"contracts/oatfinally.sol\":7541:7546  5_000 */\n  0x1388\n    /* \"contracts/oatfinally.sol\":7510:7546  uint256 public swapThreshold = 5_000 */\n  0x08\n  sstore\n    /* \"contracts/oatfinally.sol\":7624:7627  100 */\n  0x64\n    /* \"contracts/oatfinally.sol\":7593:7627  uint256 private jaredsellfee = 100 */\n  0x09\n  sstore\n    /* \"contracts/oatfinally.sol\":7716:7734  _totalSupply / 200 */\n  tag_1\n    /* \"contracts/oatfinally.sol\":7731:7734  200 */\n  0xc8\n    /* \"contracts/oatfinally.sol\":7485:7504  10_000_000 * 10**18 */\n  0x084595161401484a000000\n    /* \"contracts/oatfinally.sol\":7716:7734  _totalSupply / 200 */\n  tag_2\n  jump\t// in\ntag_1:\n    /* \"contracts/oatfinally.sol\":7686:7734  uint256 public _maxTxAmount = _totalSupply / 200 */\n  0x0a\n  sstore\n    /* \"contracts/oatfinally.sol\":7772:7790  _totalSupply / 200 */\n  tag_3\n    /* \"contracts/oatfinally.sol\":7787:7790  200 */\n  0xc8\n    /* \"contracts/oatfinally.sol\":7485:7504  10_000_000 * 10**18 */\n  0x084595161401484a000000\n    /* \"contracts/oatfinally.sol\":7772:7790  _totalSupply / 200 */\n  tag_2\n  jump\t// in\ntag_3:\n    /* \"contracts/oatfinally.sol\":7740:7790  uint256 public _maxWalletSize = _totalSupply / 200 */\n  0x0b\n  sstore\n    /* \"contracts/oatfinally.sol\":7797:7890  address payable private _oatFee =... */\n  0x0c\n  dup1\n  sload\n  not(sub(shl(0xa0, 0x01), 0x01))\n  and\n    /* \"contracts/oatfinally.sol\":7847:7889  0x16626AFb636ca096963420c09E28add5C3A1ebC5 */\n  0x16626afb636ca096963420c09e28add5c3a1ebc5\n    /* \"contracts/oatfinally.sol\":7797:7890  address payable private _oatFee =... */\n  or\n  swap1\n  sstore\n    /* \"contracts/oatfinally.sol\":8558:9288  constructor() {... */\n  callvalue\n  dup1\n  iszero\n  tag_4\n  jumpi\n  0x00\n  dup1\n  revert\ntag_4:\n  pop\n    /* \"contracts/oatfinally.sol\":1661:1684  _setOwner(_msgSender()) */\n  tag_10\n    /* \"contracts/oatfinally.sol\":1322:1332  msg.sender */\n  caller\n    /* \"contracts/oatfinally.sol\":1661:1670  _setOwner */\n  tag_13\n    /* \"contracts/oatfinally.sol\":1661:1684  _setOwner(_msgSender()) */\n  jump\t// in\ntag_10:\n    /* \"contracts/oatfinally.sol\":8589:8599  msg.sender */\n  caller\n    /* \"contracts/oatfinally.sol\":8582:8600  _noFee[msg.sender] */\n  0x00\n  dup2\n  dup2\n  mstore\n    /* \"contracts/oatfinally.sol\":8582:8588  _noFee */\n  0x02\n    /* \"contracts/oatfinally.sol\":8582:8600  _noFee[msg.sender] */\n  0x20\n  swap1\n  dup2\n  mstore\n  0x40\n  dup1\n  dup4\n  keccak256\n    /* \"contracts/oatfinally.sol\":8582:8607  _noFee[msg.sender] = true */\n  dup1\n  sload\n  not(0xff)\n  swap1\n  dup2\n  and\n    /* \"contracts/oatfinally.sol\":8603:8607  true */\n  0x01\n    /* \"contracts/oatfinally.sol\":8582:8607  _noFee[msg.sender] = true */\n  swap1\n  dup2\n  or\n  swap1\n  swap3\n  sstore\n    /* \"contracts/oatfinally.sol\":8632:8636  this */\n  address\n    /* \"contracts/oatfinally.sol\":8617:8638  _noFee[address(this)] */\n  dup6\n  mstore\n  dup3\n  dup6\n  keccak256\n    /* \"contracts/oatfinally.sol\":8617:8645  _noFee[address(this)] = true */\n  dup1\n  sload\n  dup3\n  and\n  dup4\n  or\n  swap1\n  sstore\n    /* \"contracts/oatfinally.sol\":8662:8669  _oatFee */\n  and(sub(shl(0xa0, 0x01), 0x01), sload(0x0c))\n    /* \"contracts/oatfinally.sol\":8655:8670  _noFee[_oatFee] */\n  dup6\n  mstore\n  dup3\n  dup6\n  keccak256\n    /* \"contracts/oatfinally.sol\":8655:8677  _noFee[_oatFee] = true */\n  dup1\n  sload\n  dup3\n  and\n  dup4\n  or\n  swap1\n  sstore\n    /* \"contracts/oatfinally.sol\":8687:8706  _noFee[DEAD_WALLET] */\n  0x6a9609baa168169acaea398c4407efea4be641bb08e21e88806d9836fd9333cc\n    /* \"contracts/oatfinally.sol\":8687:8713  _noFee[DEAD_WALLET] = true */\n  dup1\n  sload\n  dup3\n  and\n  dup4\n  or\n  swap1\n  sstore\n    /* \"contracts/oatfinally.sol\":8724:8745  _jareDs[jared_MEVBOT] */\n  0x29d4ce5ba4008f18524a47d1a046ba41493f01b5b93e99d646a93413a694f5db\n    /* \"contracts/oatfinally.sol\":8724:8752  _jareDs[jared_MEVBOT] = true */\n  dup1\n  sload\n  dup3\n  and\n  dup4\n  or\n  swap1\n  sstore\n    /* \"contracts/oatfinally.sol\":8762:8784  _jareDs[jared_ADDRESS] */\n  0x5a4e188a8b717bdb9756212b4d35786a5708f302bc96b706f580f0049fd987\n    /* \"contracts/oatfinally.sol\":8762:8791  _jareDs[jared_ADDRESS] = true */\n  dup1\n  sload\n  swap1\n  swap2\n  and\n  swap1\n  swap2\n  or\n  swap1\n  sstore\n    /* \"contracts/oatfinally.sol\":8802:8812  swapRouter */\n  0x0d\n    /* \"contracts/oatfinally.sol\":8802:8868  swapRouter = IRouter02(0x7a250d5630B4cF539739dF2C5dAcb4c659F2488D) */\n  dup1\n  sload\n  not(sub(shl(0xa0, 0x01), 0x01))\n  and\n    /* \"contracts/oatfinally.sol\":8825:8867  0x7a250d5630B4cF539739dF2C5dAcb4c659F2488D */\n  0x7a250d5630b4cf539739df2c5dacb4c659f2488d\n    /* \"contracts/oatfinally.sol\":8802:8868  swapRouter = IRouter02(0x7a250d5630B4cF539739dF2C5dAcb4c659F2488D) */\n  or\n  swap1\n  sstore\n    /* \"contracts/oatfinally.sol\":8879:8898  balance[msg.sender] */\n  dup4\n  dup4\n  mstore\n    /* \"contracts/oatfinally.sol\":8879:8886  balance */\n  0x04\n    /* \"contracts/oatfinally.sol\":8879:8898  balance[msg.sender] */\n  dup3\n  mstore\n  dup1\n  dup4\n  keccak256\n    /* \"contracts/oatfinally.sol\":7485:7504  10_000_000 * 10**18 */\n  0x084595161401484a000000\n    /* \"contracts/oatfinally.sol\":8879:8913  balance[msg.sender] = _totalSupply */\n  swap1\n  dup2\n  swap1\n  sstore\n    /* \"contracts/oatfinally.sol\":8928:8974  Transfer(address(0), msg.sender, _totalSupply) */\n  swap1\n  mload\n    /* \"#utility.yul\":382:407   */\n  swap1\n  dup2\n  mstore\n    /* \"contracts/oatfinally.sol\":8928:8974  Transfer(address(0), msg.sender, _totalSupply) */\n  0xddf252ad1be2c89b69c2b068fc378daa952ba7f163c4a11628f55a4df523b3ef\n  swap2\n    /* \"#utility.yul\":355:373   */\n  add\n    /* \"contracts/oatfinally.sol\":8928:8974  Transfer(address(0), msg.sender, _totalSupply) */\n  mload(0x40)\n  dup1\n  swap2\n  sub\n  swap1\n  log3\n    /* \"contracts/oatfinally.sol\":9005:9015  swapRouter */\n  0x0d\n  0x00\n  swap1\n  sload\n  swap1\n  0x0100\n  exp\n  swap1\n  div\n  sub(shl(0xa0, 0x01), 0x01)\n  and\n  sub(shl(0xa0, 0x01), 0x01)\n    /* \"contracts/oatfinally.sol\":9005:9023  swapRouter.factory */\n  and\n  0xc45a0155\n    /* \"contracts/oatfinally.sol\":9005:9025  swapRouter.factory() */\n  mload(0x40)\n  dup2\n  0xffffffff\n  and\n  0xe0\n  shl\n  dup2\n  mstore\n  0x04\n  add\n  0x20\n  mload(0x40)\n  dup1\n  dup4\n  sub\n  dup2\n  dup7\n  gas\n  staticcall\n  iszero\n  dup1\n  iszero\n  tag_18\n  jumpi\n  returndatasize\n  0x00\n  dup1\n  returndatacopy\n  revert(0x00, returndatasize)\ntag_18:\n  pop\n  pop\n  pop\n  pop\n  mload(0x40)\n  returndatasize\n  not(0x1f)\n  0x1f\n  dup3\n  add\n  and\n  dup3\n  add\n  dup1\n  0x40\n  mstore\n  pop\n  dup2\n  add\n  swap1\n  tag_19\n  swap2\n  swap1\n  tag_20\n  jump\t// in\ntag_19:\n  sub(shl(0xa0, 0x01), 0x01)\n    /* \"contracts/oatfinally.sol\":8994:9037  IFactoryV2(swapRouter.factory()).createPair */\n  and\n  0xc9c65396\n    /* \"contracts/oatfinally.sol\":9051:9061  swapRouter */\n  0x0d\n  0x00\n  swap1\n  sload\n  swap1\n  0x0100\n  exp\n  swap1\n  div\n  sub(shl(0xa0, 0x01), 0x01)\n  and\n  sub(shl(0xa0, 0x01), 0x01)\n    /* \"contracts/oatfinally.sol\":9051:9066  swapRouter.WETH */\n  and\n  0xad5c4648\n    /* \"contracts/oatfinally.sol\":9051:9068  swapRouter.WETH() */\n  mload(0x40)\n  dup2\n  0xffffffff\n  and\n  0xe0\n  shl\n  dup2\n  mstore\n  0x04\n  add\n  0x20\n  mload(0x40)\n  dup1\n  dup4\n  sub\n  dup2\n  dup7\n  gas\n  staticcall\n  iszero\n  dup1\n  iszero\n  tag_22\n  jumpi\n  returndatasize\n  0x00\n  dup1\n  returndatacopy\n  revert(0x00, returndatasize)\ntag_22:\n  pop\n  pop\n  pop\n  pop\n  mload(0x40)\n  returndatasize\n  not(0x1f)\n  0x1f\n  dup3\n  add\n  and\n  dup3\n  add\n  dup1\n  0x40\n  mstore\n  pop\n  dup2\n  add\n  swap1\n  tag_23\n  swap2\n  swap1\n  tag_20\n  jump\t// in\ntag_23:\n    /* \"contracts/oatfinally.sol\":8994:9105  IFactoryV2(swapRouter.factory()).createPair(... */\n  mload(0x40)\n  not(sub(shl(0xe0, 0x01), 0x01))\n  0xe0\n  dup5\n  swap1\n  shl\n  and\n  dup2\n  mstore\n  sub(shl(0xa0, 0x01), 0x01)\n    /* \"#utility.yul\":943:958   */\n  swap1\n  swap2\n  and\n    /* \"contracts/oatfinally.sol\":8994:9105  IFactoryV2(swapRouter.factory()).createPair(... */\n  0x04\n  dup3\n  add\n    /* \"#utility.yul\":925:959   */\n  mstore\n    /* \"contracts/oatfinally.sol\":9090:9094  this */\n  address\n    /* \"#utility.yul\":975:993   */\n  0x24\n  dup3\n  add\n    /* \"#utility.yul\":968:1011   */\n  mstore\n    /* \"#utility.yul\":860:878   */\n  0x44\n  add\n    /* \"contracts/oatfinally.sol\":8994:9105  IFactoryV2(swapRouter.factory()).createPair(... */\n  0x20\n  mload(0x40)\n  dup1\n  dup4\n  sub\n  dup2\n  0x00\n  dup8\n  gas\n  call\n  iszero\n  dup1\n  iszero\n  tag_27\n  jumpi\n  returndatasize\n  0x00\n  dup1\n  returndatacopy\n  revert(0x00, returndatasize)\ntag_27:\n  pop\n  pop\n  pop\n  pop\n  mload(0x40)\n  returndatasize\n  not(0x1f)\n  0x1f\n  dup3\n  add\n  and\n  dup3\n  add\n  dup1\n  0x40\n  mstore\n  pop\n  dup2\n  add\n  swap1\n  tag_28\n  swap2\n  swap1\n  tag_20\n  jump\t// in\ntag_28:\n    /* \"contracts/oatfinally.sol\":8985:8991  lpPair */\n  0x0e\n    /* \"contracts/oatfinally.sol\":8985:9105  lpPair = IFactoryV2(swapRouter.factory()).createPair(... */\n  dup1\n  sload\n  not(sub(shl(0xa0, 0x01), 0x01))\n  and\n  sub(shl(0xa0, 0x01), 0x01)\n  swap3\n  dup4\n  and\n  swap1\n  dup2\n  or\n  swap1\n  swap2\n  sstore\n  0x00\n    /* \"contracts/oatfinally.sol\":9115:9131  isLpPair[lpPair] */\n  swap1\n  dup2\n  mstore\n    /* \"contracts/oatfinally.sol\":9115:9123  isLpPair */\n  0x03\n    /* \"contracts/oatfinally.sol\":9115:9131  isLpPair[lpPair] */\n  0x20\n  mstore\n  0x40\n  swap1\n  keccak256\n    /* \"contracts/oatfinally.sol\":9115:9138  isLpPair[lpPair] = true */\n  dup1\n  sload\n  not(0xff)\n  and\n  0x01\n  or\n  swap1\n  sstore\n    /* \"contracts/oatfinally.sol\":9177:9187  swapRouter */\n  sload(0x0d)\n    /* \"contracts/oatfinally.sol\":9148:9208  _approve(msg.sender, address(swapRouter), type(uint256).max) */\n  tag_29\n  swap2\n    /* \"contracts/oatfinally.sol\":9157:9167  msg.sender */\n  caller\n  swap2\n    /* \"contracts/oatfinally.sol\":9177:9187  swapRouter */\n  and\n  not(0x00)\n    /* \"contracts/oatfinally.sol\":9148:9156  _approve */\n  tag_30\n    /* \"contracts/oatfinally.sol\":9148:9208  _approve(msg.sender, address(swapRouter), type(uint256).max) */\n  jump\t// in\ntag_29:\n    /* \"contracts/oatfinally.sol\":9250:9260  swapRouter */\n  sload(0x0d)\n    /* \"contracts/oatfinally.sol\":9218:9281  _approve(address(this), address(swapRouter), type(uint256).max) */\n  tag_31\n  swap1\n    /* \"contracts/oatfinally.sol\":9235:9239  this */\n  address\n  swap1\n  sub(shl(0xa0, 0x01), 0x01)\n    /* \"contracts/oatfinally.sol\":9250:9260  swapRouter */\n  and\n  not(0x00)\n    /* \"contracts/oatfinally.sol\":9218:9226  _approve */\n  tag_30\n    /* \"contracts/oatfinally.sol\":9218:9281  _approve(address(this), address(swapRouter), type(uint256).max) */\n  jump\t// in\ntag_31:\n    /* \"contracts/oatfinally.sol\":6070:15647  contract OneAnonataTime is Context, Ownable, IERC20 {... */\n  jump(tag_41)\n    /* \"contracts/oatfinally.sol\":2238:2407  function _setOwner(address newOwner) private {... */\ntag_13:\n    /* \"contracts/oatfinally.sol\":2293:2309  address oldOwner */\n  0x00\n    /* \"contracts/oatfinally.sol\":2312:2318  _owner */\n  dup1\n  sload\n  sub(shl(0xa0, 0x01), 0x01)\n    /* \"contracts/oatfinally.sol\":2328:2345  _owner = newOwner */\n  dup4\n  dup2\n  and\n  not(sub(shl(0xa0, 0x01), 0x01))\n  dup4\n  and\n  dup2\n  or\n  dup5\n  sstore\n    /* \"contracts/oatfinally.sol\":2360:2400  OwnershipTransferred(oldOwner, newOwner) */\n  mload(0x40)\n    /* \"contracts/oatfinally.sol\":2312:2318  _owner */\n  swap2\n  swap1\n  swap3\n  and\n  swap3\n  dup4\n  swap2\n    /* \"contracts/oatfinally.sol\":2360:2400  OwnershipTransferred(oldOwner, newOwner) */\n  0x8be0079c531659141344cd1fd0a4f28419497f9722a3daafe3b4186f6b6457e0\n  swap2\n    /* \"contracts/oatfinally.sol\":2293:2309  address oldOwner */\n  swap1\n    /* \"contracts/oatfinally.sol\":2360:2400  OwnershipTransferred(oldOwner, newOwner) */\n  log3\n    /* \"contracts/oatfinally.sol\":2283:2407  {... */\n  pop\n    /* \"contracts/oatfinally.sol\":2238:2407  function _setOwner(address newOwner) private {... */\n  pop\n  jump\t// out\n    /* \"contracts/oatfinally.sol\":9717:10002  function _approve(... */\ntag_30:\n  sub(shl(0xa0, 0x01), 0x01)\n    /* \"contracts/oatfinally.sol\":9841:9861  sender != address(0) */\n  dup4\n  and\n    /* \"contracts/oatfinally.sol\":9833:9885  require(sender != address(0), \"ERC20: Zero Address\") */\n  tag_36\n  jumpi\n  mload(0x40)\n  shl(0xe5, 0x461bcd)\n  dup2\n  mstore\n    /* \"#utility.yul\":1224:1226   */\n  0x20\n    /* \"contracts/oatfinally.sol\":9833:9885  require(sender != address(0), \"ERC20: Zero Address\") */\n  0x04\n  dup3\n  add\n    /* \"#utility.yul\":1206:1227   */\n  mstore\n    /* \"#utility.yul\":1263:1265   */\n  0x13\n    /* \"#utility.yul\":1243:1261   */\n  0x24\n  dup3\n  add\n    /* \"#utility.yul\":1236:1266   */\n  mstore\n  shl(0x68, 0x45524332303a205a65726f2041646472657373)\n    /* \"#utility.yul\":1282:1300   */\n  0x44\n  dup3\n  add\n    /* \"#utility.yul\":1275:1324   */\n  mstore\n    /* \"#utility.yul\":1341:1359   */\n  0x64\n  add\n    /* \"contracts/oatfinally.sol\":9833:9885  require(sender != address(0), \"ERC20: Zero Address\") */\ntag_37:\n  mload(0x40)\n  dup1\n  swap2\n  sub\n  swap1\n  revert\ntag_36:\n  sub(shl(0xa0, 0x01), 0x01)\n    /* \"contracts/oatfinally.sol\":9903:9924  spender != address(0) */\n  dup3\n  and\n    /* \"contracts/oatfinally.sol\":9895:9948  require(spender != address(0), \"ERC20: Zero Address\") */\n  tag_39\n  jumpi\n  mload(0x40)\n  shl(0xe5, 0x461bcd)\n  dup2\n  mstore\n    /* \"#utility.yul\":1224:1226   */\n  0x20\n    /* \"contracts/oatfinally.sol\":9895:9948  require(spender != address(0), \"ERC20: Zero Address\") */\n  0x04\n  dup3\n  add\n    /* \"#utility.yul\":1206:1227   */\n  mstore\n    /* \"#utility.yul\":1263:1265   */\n  0x13\n    /* \"#utility.yul\":1243:1261   */\n  0x24\n  dup3\n  add\n    /* \"#utility.yul\":1236:1266   */\n  mstore\n  shl(0x68, 0x45524332303a205a65726f2041646472657373)\n    /* \"#utility.yul\":1282:1300   */\n  0x44\n  dup3\n  add\n    /* \"#utility.yul\":1275:1324   */\n  mstore\n    /* \"#utility.yul\":1341:1359   */\n  0x64\n  add\n    /* \"contracts/oatfinally.sol\":9895:9948  require(spender != address(0), \"ERC20: Zero Address\") */\n  tag_37\n    /* \"#utility.yul\":1022:1365   */\n  jump\n    /* \"contracts/oatfinally.sol\":9895:9948  require(spender != address(0), \"ERC20: Zero Address\") */\ntag_39:\n  sub(shl(0xa0, 0x01), 0x01)\n    /* \"contracts/oatfinally.sol\":9958:9977  _allowances[sender] */\n  swap3\n  dup4\n  and\n  0x00\n  swap1\n  dup2\n  mstore\n    /* \"contracts/oatfinally.sol\":9958:9969  _allowances */\n  0x01\n    /* \"contracts/oatfinally.sol\":9958:9977  _allowances[sender] */\n  0x20\n  swap1\n  dup2\n  mstore\n  0x40\n  dup1\n  dup4\n  keccak256\n    /* \"contracts/oatfinally.sol\":9958:9986  _allowances[sender][spender] */\n  swap5\n  swap1\n  swap6\n  and\n  dup3\n  mstore\n  swap3\n  swap1\n  swap3\n  mstore\n  swap2\n  swap1\n  keccak256\n    /* \"contracts/oatfinally.sol\":9958:9995  _allowances[sender][spender] = amount */\n  sstore\n    /* \"contracts/oatfinally.sol\":9717:10002  function _approve(... */\n  jump\t// out\n    /* \"#utility.yul\":14:231   */\ntag_2:\n    /* \"#utility.yul\":54:55   */\n  0x00\n    /* \"#utility.yul\":80:81   */\n  dup3\n    /* \"#utility.yul\":70:202   */\n  tag_43\n  jumpi\n    /* \"#utility.yul\":124:134   */\n  0x4e487b71\n    /* \"#utility.yul\":119:122   */\n  0xe0\n    /* \"#utility.yul\":115:135   */\n  shl\n    /* \"#utility.yul\":112:113   */\n  0x00\n    /* \"#utility.yul\":105:136   */\n  mstore\n    /* \"#utility.yul\":159:163   */\n  0x12\n    /* \"#utility.yul\":156:157   */\n  0x04\n    /* \"#utility.yul\":149:164   */\n  mstore\n    /* \"#utility.yul\":187:191   */\n  0x24\n    /* \"#utility.yul\":184:185   */\n  0x00\n    /* \"#utility.yul\":177:192   */\n  revert\n    /* \"#utility.yul\":70:202   */\ntag_43:\n  pop\n    /* \"#utility.yul\":216:225   */\n  div\n  swap1\n    /* \"#utility.yul\":14:231   */\n  jump\t// out\n    /* \"#utility.yul\":418:708   */\ntag_20:\n    /* \"#utility.yul\":488:494   */\n  0x00\n    /* \"#utility.yul\":541:543   */\n  0x20\n    /* \"#utility.yul\":529:538   */\n  dup3\n    /* \"#utility.yul\":520:527   */\n  dup5\n    /* \"#utility.yul\":516:539   */\n  sub\n    /* \"#utility.yul\":512:544   */\n  slt\n    /* \"#utility.yul\":509:561   */\n  iszero\n  tag_46\n  jumpi\n    /* \"#utility.yul\":557:558   */\n  0x00\n    /* \"#utility.yul\":554:555   */\n  dup1\n    /* \"#utility.yul\":547:559   */\n  revert\n    /* \"#utility.yul\":509:561   */\ntag_46:\n    /* \"#utility.yul\":583:599   */\n  dup2\n  mload\n  sub(shl(0xa0, 0x01), 0x01)\n    /* \"#utility.yul\":628:659   */\n  dup2\n  and\n    /* \"#utility.yul\":618:660   */\n  dup2\n  eq\n    /* \"#utility.yul\":608:678   */\n  tag_47\n  jumpi\n    /* \"#utility.yul\":674:675   */\n  0x00\n    /* \"#utility.yul\":671:672   */\n  dup1\n    /* \"#utility.yul\":664:676   */\n  revert\n    /* \"#utility.yul\":608:678   */\ntag_47:\n    /* \"#utility.yul\":697:702   */\n  swap4\n    /* \"#utility.yul\":418:708   */\n  swap3\n  pop\n  pop\n  pop\n  jump\t// out\n    /* \"#utility.yul\":1022:1365   */\ntag_41:\n    /* \"contracts/oatfinally.sol\":6070:15647  contract OneAnonataTime is Context, Ownable, IERC20 {... */\n  dataSize(sub_0)\n  dup1\n  dataOffset(sub_0)\n  0x00\n  codecopy\n  0x00\n  return\nstop\n\nsub_0: assembly {\n        /* \"contracts/oatfinally.sol\":6070:15647  contract OneAnonataTime is Context, Ownable, IERC20 {... */\n      mstore(0x40, 0x80)\n      jumpi(tag_1, lt(calldatasize, 0x04))\n      shr(0xe0, calldataload(0x00))\n      dup1\n      0x893d20e8\n      gt\n      tag_34\n      jumpi\n      dup1\n      0xc2e4ef79\n      gt\n      tag_35\n      jumpi\n      dup1\n      0xdc9d75b0\n      gt\n      tag_36\n      jumpi\n      dup1\n      0xdc9d75b0\n      eq\n      tag_30\n      jumpi\n      dup1\n      0xdd62ed3e\n      eq\n      tag_31\n      jumpi\n      dup1\n      0xe9451f5f\n      eq\n      tag_32\n      jumpi\n      dup1\n      0xf2fde38b\n      eq\n      tag_33\n      jumpi\n      0x00\n      dup1\n      revert\n    tag_36:\n      dup1\n      0xc2e4ef79\n      eq\n      tag_26\n      jumpi\n      dup1\n      0xc31c9c07\n      eq\n      tag_27\n      jumpi\n      dup1\n      0xc876d0b9\n      eq\n      tag_28\n      jumpi\n      dup1\n      0xce004a07\n      eq\n      tag_29\n      jumpi\n      0x00\n      dup1\n      revert\n    tag_35:\n      dup1\n      0xa01c3483\n      gt\n      tag_37\n      jumpi\n      dup1\n      0xa01c3483\n      eq\n      tag_22\n      jumpi\n      dup1\n      0xa2747da2\n      eq\n      tag_23\n      jumpi\n      dup1\n      0xa9059cbb\n      eq\n      tag_24\n      jumpi\n      dup1\n      0xc226de76\n      eq\n      tag_8\n      jumpi\n      0x00\n      dup1\n      revert\n    tag_37:\n      dup1\n      0x893d20e8\n      eq\n      tag_18\n      jumpi\n      dup1\n      0x8da5cb5b\n      eq\n      tag_18\n      jumpi\n      dup1\n      0x8f9a55c0\n      eq\n      tag_20\n      jumpi\n      dup1\n      0x95d89b41\n      eq\n      tag_21\n      jumpi\n      0x00\n      dup1\n      revert\n    tag_34:\n      dup1\n      0x313ce567\n      gt\n      tag_38\n      jumpi\n      dup1\n      0x70a08231\n      gt\n      tag_39\n      jumpi\n      dup1\n      0x70a08231\n      eq\n      tag_14\n      jumpi\n      dup1\n      0x715018a6\n      eq\n      tag_15\n      jumpi\n      dup1\n      0x771af866\n      eq\n      tag_16\n      jumpi\n      dup1\n      0x7d1db4a5\n      eq\n      tag_17\n      jumpi\n      0x00\n      dup1\n      revert\n    tag_39:\n      dup1\n      0x313ce567\n      eq\n      tag_10\n      jumpi\n      dup1\n      0x452ed4f1\n      eq\n      tag_11\n      jumpi\n      dup1\n      0x4c1b4031\n      eq\n      tag_12\n      jumpi\n      dup1\n      0x694e80c3\n      eq\n      tag_13\n      jumpi\n      0x00\n      dup1\n      revert\n    tag_38:\n      dup1\n      0x18160ddd\n      gt\n      tag_40\n      jumpi\n      dup1\n      0x18160ddd\n      eq\n      tag_6\n      jumpi\n      dup1\n      0x23b872dd\n      eq\n      tag_7\n      jumpi\n      dup1\n      0x27889862\n      eq\n      tag_8\n      jumpi\n      dup1\n      0x30db2c12\n      eq\n      tag_9\n      jumpi\n      0x00\n      dup1\n      revert\n    tag_40:\n      dup1\n      0x0445b667\n      eq\n      tag_3\n      jumpi\n      dup1\n      0x06fdde03\n      eq\n      tag_4\n      jumpi\n      dup1\n      0x095ea7b3\n      eq\n      tag_5\n      jumpi\n      0x00\n      dup1\n      revert\n    tag_1:\n      jumpi(tag_2, calldatasize)\n      stop\n    tag_2:\n      0x00\n      dup1\n      revert\n        /* \"contracts/oatfinally.sol\":7510:7546  uint256 public swapThreshold = 5_000 */\n    tag_3:\n      callvalue\n      dup1\n      iszero\n      tag_43\n      jumpi\n      0x00\n      dup1\n      revert\n    tag_43:\n      pop\n      tag_44\n      sload(0x08)\n      dup2\n      jump\n    tag_44:\n      mload(0x40)\n        /* \"#utility.yul\":160:185   */\n      swap1\n      dup2\n      mstore\n        /* \"#utility.yul\":148:150   */\n      0x20\n        /* \"#utility.yul\":133:151   */\n      add\n        /* \"contracts/oatfinally.sol\":7510:7546  uint256 public swapThreshold = 5_000 */\n    tag_46:\n      mload(0x40)\n      dup1\n      swap2\n      sub\n      swap1\n      return\n        /* \"contracts/oatfinally.sol\":6564:6656  function name() external pure override returns (string memory) {... */\n    tag_4:\n      callvalue\n      dup1\n      iszero\n      tag_48\n      jumpi\n      0x00\n      dup1\n      revert\n    tag_48:\n      pop\n        /* \"contracts/oatfinally.sol\":6644:6649  _name */\n      0x40\n      dup1\n      mload\n      dup1\n      dup3\n      add\n      swap1\n      swap2\n      mstore\n      0x08\n      dup2\n      mstore\n      shl(0xc1, 0x27b7329020b737b7)\n      0x20\n      dup3\n      add\n      mstore\n        /* \"contracts/oatfinally.sol\":6564:6656  function name() external pure override returns (string memory) {... */\n    tag_49:\n      mload(0x40)\n      tag_46\n      swap2\n      swap1\n      tag_52\n      jump\t// in\n        /* \"contracts/oatfinally.sol\":9525:9711  function approve(address spender, uint256 amount)... */\n    tag_5:\n      callvalue\n      dup1\n      iszero\n      tag_53\n      jumpi\n      0x00\n      dup1\n      revert\n    tag_53:\n      pop\n      tag_54\n      tag_55\n      calldatasize\n      0x04\n      tag_56\n      jump\t// in\n    tag_55:\n      tag_57\n      jump\t// in\n    tag_54:\n      mload(0x40)\n        /* \"#utility.yul\":1370:1384   */\n      swap1\n      iszero\n        /* \"#utility.yul\":1363:1385   */\n      iszero\n        /* \"#utility.yul\":1345:1386   */\n      dup2\n      mstore\n        /* \"#utility.yul\":1333:1335   */\n      0x20\n        /* \"#utility.yul\":1318:1336   */\n      add\n        /* \"contracts/oatfinally.sol\":9525:9711  function approve(address spender, uint256 amount)... */\n      tag_46\n        /* \"#utility.yul\":1205:1392   */\n      jump\n        /* \"contracts/oatfinally.sol\":6128:6293  function totalSupply() external pure override returns (uint256) {... */\n    tag_6:\n      callvalue\n      dup1\n      iszero\n      tag_60\n      jumpi\n      0x00\n      dup1\n      revert\n    tag_60:\n      pop\n        /* \"contracts/oatfinally.sol\":7485:7504  10_000_000 * 10**18 */\n      0x084595161401484a000000\n        /* \"contracts/oatfinally.sol\":6128:6293  function totalSupply() external pure override returns (uint256) {... */\n      jump(tag_44)\n        /* \"contracts/oatfinally.sol\":10008:10338  function transferFrom(... */\n    tag_7:\n      callvalue\n      dup1\n      iszero\n      tag_64\n      jumpi\n      0x00\n      dup1\n      revert\n    tag_64:\n      pop\n      tag_54\n      tag_66\n      calldatasize\n      0x04\n      tag_67\n      jump\t// in\n    tag_66:\n      tag_68\n      jump\t// in\n        /* \"contracts/oatfinally.sol\":10344:10452  function isNoFeeWallet(address account) external view returns (bool) {... */\n    tag_8:\n      callvalue\n      dup1\n      iszero\n      tag_70\n      jumpi\n      0x00\n      dup1\n      revert\n    tag_70:\n      pop\n      tag_54\n      tag_72\n      calldatasize\n      0x04\n      tag_73\n      jump\t// in\n    tag_72:\n      sub(shl(0xa0, 0x01), 0x01)\n        /* \"contracts/oatfinally.sol\":10430:10445  _noFee[account] */\n      and\n        /* \"contracts/oatfinally.sol\":10407:10411  bool */\n      0x00\n        /* \"contracts/oatfinally.sol\":10430:10445  _noFee[account] */\n      swap1\n      dup2\n      mstore\n        /* \"contracts/oatfinally.sol\":10430:10436  _noFee */\n      0x02\n        /* \"contracts/oatfinally.sol\":10430:10445  _noFee[account] */\n      0x20\n      mstore\n      0x40\n      swap1\n      keccak256\n      sload\n      0xff\n      and\n      swap1\n        /* \"contracts/oatfinally.sol\":10344:10452  function isNoFeeWallet(address account) external view returns (bool) {... */\n      jump\n        /* \"contracts/oatfinally.sol\":14942:15210  function setJaredSellFee(uint256 newFee) external {... */\n    tag_9:\n      callvalue\n      dup1\n      iszero\n      tag_76\n      jumpi\n      0x00\n      dup1\n      revert\n    tag_76:\n      pop\n      tag_77\n      tag_78\n      calldatasize\n      0x04\n      tag_79\n      jump\t// in\n    tag_78:\n      tag_80\n      jump\t// in\n    tag_77:\n      stop\n        /* \"contracts/oatfinally.sol\":6299:6456  function decimals() external pure override returns (uint8) {... */\n    tag_10:\n      callvalue\n      dup1\n      iszero\n      tag_81\n      jumpi\n      0x00\n      dup1\n      revert\n    tag_81:\n      pop\n      mload(0x40)\n        /* \"contracts/oatfinally.sol\":8073:8075  18 */\n      0x12\n        /* \"#utility.yul\":2437:2473   */\n      dup2\n      mstore\n        /* \"#utility.yul\":2425:2427   */\n      0x20\n        /* \"#utility.yul\":2410:2428   */\n      add\n        /* \"contracts/oatfinally.sol\":6299:6456  function decimals() external pure override returns (uint8) {... */\n      tag_46\n        /* \"#utility.yul\":2295:2479   */\n      jump\n        /* \"contracts/oatfinally.sol\":8175:8196  address public lpPair */\n    tag_11:\n      callvalue\n      dup1\n      iszero\n      tag_86\n      jumpi\n      0x00\n      dup1\n      revert\n    tag_86:\n      pop\n      sload(0x0e)\n      tag_87\n      swap1\n      sub(shl(0xa0, 0x01), 0x01)\n      and\n      dup2\n      jump\n    tag_87:\n      mload(0x40)\n      sub(shl(0xa0, 0x01), 0x01)\n        /* \"#utility.yul\":2648:2680   */\n      swap1\n      swap2\n      and\n        /* \"#utility.yul\":2630:2681   */\n      dup2\n      mstore\n        /* \"#utility.yul\":2618:2620   */\n      0x20\n        /* \"#utility.yul\":2603:2621   */\n      add\n        /* \"contracts/oatfinally.sol\":8175:8196  address public lpPair */\n      tag_46\n        /* \"#utility.yul\":2484:2687   */\n      jump\n        /* \"contracts/oatfinally.sol\":15462:15645  function removefromtNofee(address noFeeAddress) external {... */\n    tag_12:\n      callvalue\n      dup1\n      iszero\n      tag_91\n      jumpi\n      0x00\n      dup1\n      revert\n    tag_91:\n      pop\n      tag_77\n      tag_93\n      calldatasize\n      0x04\n      tag_73\n      jump\t// in\n    tag_93:\n      tag_94\n      jump\t// in\n        /* \"contracts/oatfinally.sol\":14221:14492  function changeThreshold(uint256 amount) external {... */\n    tag_13:\n      callvalue\n      dup1\n      iszero\n      tag_95\n      jumpi\n      0x00\n      dup1\n      revert\n    tag_95:\n      pop\n      tag_77\n      tag_97\n      calldatasize\n      0x04\n      tag_79\n      jump\t// in\n    tag_97:\n      tag_98\n      jump\t// in\n        /* \"contracts/oatfinally.sol\":6947:7062  function balanceOf(address account) public view override returns (uint256) {... */\n    tag_14:\n      callvalue\n      dup1\n      iszero\n      tag_99\n      jumpi\n      0x00\n      dup1\n      revert\n    tag_99:\n      pop\n      tag_44\n      tag_101\n      calldatasize\n      0x04\n      tag_73\n      jump\t// in\n    tag_101:\n      sub(shl(0xa0, 0x01), 0x01)\n        /* \"contracts/oatfinally.sol\":7039:7055  balance[account] */\n      and\n        /* \"contracts/oatfinally.sol\":7013:7020  uint256 */\n      0x00\n        /* \"contracts/oatfinally.sol\":7039:7055  balance[account] */\n      swap1\n      dup2\n      mstore\n        /* \"contracts/oatfinally.sol\":7039:7046  balance */\n      0x04\n        /* \"contracts/oatfinally.sol\":7039:7055  balance[account] */\n      0x20\n      mstore\n      0x40\n      swap1\n      keccak256\n      sload\n      swap1\n        /* \"contracts/oatfinally.sol\":6947:7062  function balanceOf(address account) public view override returns (uint256) {... */\n      jump\n        /* \"contracts/oatfinally.sol\":1911:2003  function renounceOwnership() public virtual onlyOwner {... */\n    tag_15:\n      callvalue\n      dup1\n      iszero\n      tag_104\n      jumpi\n      0x00\n      dup1\n      revert\n    tag_104:\n      pop\n      tag_77\n      tag_106\n      jump\t// in\n        /* \"contracts/oatfinally.sol\":14750:14936  function removeJaredAddress(address jaredAddress) external {... */\n    tag_16:\n      callvalue\n      dup1\n      iszero\n      tag_107\n      jumpi\n      0x00\n      dup1\n      revert\n    tag_107:\n      pop\n      tag_77\n      tag_109\n      calldatasize\n      0x04\n      tag_73\n      jump\t// in\n    tag_109:\n      tag_110\n      jump\t// in\n        /* \"contracts/oatfinally.sol\":7686:7734  uint256 public _maxTxAmount = _totalSupply / 200 */\n    tag_17:\n      callvalue\n      dup1\n      iszero\n      tag_111\n      jumpi\n      0x00\n      dup1\n      revert\n    tag_111:\n      pop\n      tag_44\n      sload(0x0a)\n      dup2\n      jump\n        /* \"contracts/oatfinally.sol\":6662:6754  function getOwner() external view override returns (address) {... */\n    tag_18:\n      callvalue\n      dup1\n      iszero\n      tag_115\n      jumpi\n      0x00\n      dup1\n      revert\n    tag_115:\n      pop\n        /* \"contracts/oatfinally.sol\":6714:6721  address */\n      0x00\n        /* \"contracts/oatfinally.sol\":1769:1775  _owner */\n      sload\n      sub(shl(0xa0, 0x01), 0x01)\n      and\n        /* \"contracts/oatfinally.sol\":6662:6754  function getOwner() external view override returns (address) {... */\n      jump(tag_87)\n        /* \"contracts/oatfinally.sol\":7740:7790  uint256 public _maxWalletSize = _totalSupply / 200 */\n    tag_20:\n      callvalue\n      dup1\n      iszero\n      tag_123\n      jumpi\n      0x00\n      dup1\n      revert\n    tag_123:\n      pop\n      tag_44\n      sload(0x0b)\n      dup2\n      jump\n        /* \"contracts/oatfinally.sol\":6462:6558  function symbol() external pure override returns (string memory) {... */\n    tag_21:\n      callvalue\n      dup1\n      iszero\n      tag_127\n      jumpi\n      0x00\n      dup1\n      revert\n    tag_127:\n      pop\n        /* \"contracts/oatfinally.sol\":6544:6551  _symbol */\n      0x40\n      dup1\n      mload\n      dup1\n      dup3\n      add\n      swap1\n      swap2\n      mstore\n      0x04\n      dup2\n      mstore\n      shl(0xe2, 0x0913d055)\n      0x20\n      dup3\n      add\n      mstore\n        /* \"contracts/oatfinally.sol\":6462:6558  function symbol() external pure override returns (string memory) {... */\n      jump(tag_49)\n        /* \"contracts/oatfinally.sol\":8081:8169  address public constant DEAD_WALLET =... */\n    tag_22:\n      callvalue\n      dup1\n      iszero\n      tag_131\n      jumpi\n      0x00\n      dup1\n      revert\n    tag_131:\n      pop\n      tag_87\n        /* \"contracts/oatfinally.sol\":8127:8169  0x000000000000000000000000000000000000dEaD */\n      0xdead\n        /* \"contracts/oatfinally.sol\":8081:8169  address public constant DEAD_WALLET =... */\n      dup2\n      jump\n        /* \"contracts/oatfinally.sol\":14498:14744  function addJaredAddress(address jaredAddress) external {... */\n    tag_23:\n      callvalue\n      dup1\n      iszero\n      tag_135\n      jumpi\n      0x00\n      dup1\n      revert\n    tag_135:\n      pop\n      tag_77\n      tag_137\n      calldatasize\n      0x04\n      tag_73\n      jump\t// in\n    tag_137:\n      tag_138\n      jump\t// in\n        /* \"contracts/oatfinally.sol\":9329:9519  function transfer(address recipient, uint256 amount)... */\n    tag_24:\n      callvalue\n      dup1\n      iszero\n      tag_139\n      jumpi\n      0x00\n      dup1\n      revert\n    tag_139:\n      pop\n      tag_54\n      tag_141\n      calldatasize\n      0x04\n      tag_56\n      jump\t// in\n    tag_141:\n      tag_142\n      jump\t// in\n        /* \"contracts/oatfinally.sol\":10458:10576  function isJaredAddress(address jaredAddress) public view returns (bool) {... */\n    tag_26:\n      callvalue\n      dup1\n      iszero\n      tag_149\n      jumpi\n      0x00\n      dup1\n      revert\n    tag_149:\n      pop\n      tag_54\n      tag_151\n      calldatasize\n      0x04\n      tag_73\n      jump\t// in\n    tag_151:\n      sub(shl(0xa0, 0x01), 0x01)\n        /* \"contracts/oatfinally.sol\":10548:10569  _jareDs[jaredAddress] */\n      and\n        /* \"contracts/oatfinally.sol\":10525:10529  bool */\n      0x00\n        /* \"contracts/oatfinally.sol\":10548:10569  _jareDs[jaredAddress] */\n      swap1\n      dup2\n      mstore\n        /* \"contracts/oatfinally.sol\":10548:10555  _jareDs */\n      0x06\n        /* \"contracts/oatfinally.sol\":10548:10569  _jareDs[jaredAddress] */\n      0x20\n      mstore\n      0x40\n      swap1\n      keccak256\n      sload\n      0xff\n      and\n      swap1\n        /* \"contracts/oatfinally.sol\":10458:10576  function isJaredAddress(address jaredAddress) public view returns (bool) {... */\n      jump\n        /* \"contracts/oatfinally.sol\":7897:7924  IRouter02 public swapRouter */\n    tag_27:\n      callvalue\n      dup1\n      iszero\n      tag_154\n      jumpi\n      0x00\n      dup1\n      revert\n    tag_154:\n      pop\n      sload(0x0d)\n      tag_87\n      swap1\n      sub(shl(0xa0, 0x01), 0x01)\n      and\n      dup2\n      jump\n        /* \"contracts/oatfinally.sol\":7398:7438  bool public transferDelayEnabled = false */\n    tag_28:\n      callvalue\n      dup1\n      iszero\n      tag_159\n      jumpi\n      0x00\n      dup1\n      revert\n    tag_159:\n      pop\n      sload(0x07)\n      tag_54\n      swap1\n      0xff\n      and\n      dup2\n      jump\n        /* \"contracts/oatfinally.sol\":15216:15456  function addtoNofee(address noFeeAddress) external {... */\n    tag_29:\n      callvalue\n      dup1\n      iszero\n      tag_163\n      jumpi\n      0x00\n      dup1\n      revert\n    tag_163:\n      pop\n      tag_77\n      tag_165\n      calldatasize\n      0x04\n      tag_73\n      jump\t// in\n    tag_165:\n      tag_166\n      jump\t// in\n        /* \"contracts/oatfinally.sol\":7634:7679  uint256 public constant fee_denominator = 100 */\n    tag_30:\n      callvalue\n      dup1\n      iszero\n      tag_167\n      jumpi\n      0x00\n      dup1\n      revert\n    tag_167:\n      pop\n      tag_44\n        /* \"contracts/oatfinally.sol\":7676:7679  100 */\n      0x64\n        /* \"contracts/oatfinally.sol\":7634:7679  uint256 public constant fee_denominator = 100 */\n      dup2\n      jump\n        /* \"contracts/oatfinally.sol\":6760:6941  function allowance(address holder, address spender)... */\n    tag_31:\n      callvalue\n      dup1\n      iszero\n      tag_171\n      jumpi\n      0x00\n      dup1\n      revert\n    tag_171:\n      pop\n      tag_44\n      tag_173\n      calldatasize\n      0x04\n      tag_174\n      jump\t// in\n    tag_173:\n      sub(shl(0xa0, 0x01), 0x01)\n        /* \"contracts/oatfinally.sol\":6906:6925  _allowances[holder] */\n      swap2\n      dup3\n      and\n        /* \"contracts/oatfinally.sol\":6876:6883  uint256 */\n      0x00\n        /* \"contracts/oatfinally.sol\":6906:6925  _allowances[holder] */\n      swap1\n      dup2\n      mstore\n        /* \"contracts/oatfinally.sol\":6906:6917  _allowances */\n      0x01\n        /* \"contracts/oatfinally.sol\":6906:6925  _allowances[holder] */\n      0x20\n      swap1\n      dup2\n      mstore\n      0x40\n      dup1\n      dup4\n      keccak256\n        /* \"contracts/oatfinally.sol\":6906:6934  _allowances[holder][spender] */\n      swap4\n      swap1\n      swap5\n      and\n      dup3\n      mstore\n      swap2\n      swap1\n      swap2\n      mstore\n      keccak256\n      sload\n      swap1\n        /* \"contracts/oatfinally.sol\":6760:6941  function allowance(address holder, address spender)... */\n      jump\n        /* \"contracts/oatfinally.sol\":7552:7587  uint256 public constant sellfee = 2 */\n    tag_32:\n      callvalue\n      dup1\n      iszero\n      tag_177\n      jumpi\n      0x00\n      dup1\n      revert\n    tag_177:\n      pop\n      tag_44\n        /* \"contracts/oatfinally.sol\":7586:7587  2 */\n      0x02\n        /* \"contracts/oatfinally.sol\":7552:7587  uint256 public constant sellfee = 2 */\n      dup2\n      jump\n        /* \"contracts/oatfinally.sol\":2009:2232  function transferOwnership(address newOwner) public virtual onlyOwner {... */\n    tag_33:\n      callvalue\n      dup1\n      iszero\n      tag_181\n      jumpi\n      0x00\n      dup1\n      revert\n    tag_181:\n      pop\n      tag_77\n      tag_183\n      calldatasize\n      0x04\n      tag_73\n      jump\t// in\n    tag_183:\n      tag_184\n      jump\t// in\n        /* \"contracts/oatfinally.sol\":9525:9711  function approve(address spender, uint256 amount)... */\n    tag_57:\n        /* \"contracts/oatfinally.sol\":9626:9630  bool */\n      0x00\n        /* \"contracts/oatfinally.sol\":9646:9683  _approve(msg.sender, spender, amount) */\n      tag_187\n        /* \"contracts/oatfinally.sol\":9655:9665  msg.sender */\n      caller\n        /* \"contracts/oatfinally.sol\":9667:9674  spender */\n      dup5\n        /* \"contracts/oatfinally.sol\":9676:9682  amount */\n      dup5\n        /* \"contracts/oatfinally.sol\":9646:9654  _approve */\n      tag_188\n        /* \"contracts/oatfinally.sol\":9646:9683  _approve(msg.sender, spender, amount) */\n      jump\t// in\n    tag_187:\n      pop\n        /* \"contracts/oatfinally.sol\":9700:9704  true */\n      0x01\n        /* \"contracts/oatfinally.sol\":9525:9711  function approve(address spender, uint256 amount)... */\n    tag_186:\n      swap3\n      swap2\n      pop\n      pop\n      jump\t// out\n        /* \"contracts/oatfinally.sol\":10008:10338  function transferFrom(... */\n    tag_68:\n      sub(shl(0xa0, 0x01), 0x01)\n        /* \"contracts/oatfinally.sol\":10158:10177  _allowances[sender] */\n      dup4\n      and\n        /* \"contracts/oatfinally.sol\":10138:10142  bool */\n      0x00\n        /* \"contracts/oatfinally.sol\":10158:10177  _allowances[sender] */\n      swap1\n      dup2\n      mstore\n        /* \"contracts/oatfinally.sol\":10158:10169  _allowances */\n      0x01\n        /* \"contracts/oatfinally.sol\":10158:10177  _allowances[sender] */\n      0x20\n      swap1\n      dup2\n      mstore\n      0x40\n      dup1\n      dup4\n      keccak256\n        /* \"contracts/oatfinally.sol\":10178:10188  msg.sender */\n      caller\n        /* \"contracts/oatfinally.sol\":10158:10189  _allowances[sender][msg.sender] */\n      dup5\n      mstore\n      swap1\n      swap2\n      mstore\n      dup2\n      keccak256\n      sload\n      not(0x00)\n        /* \"contracts/oatfinally.sol\":10158:10210  _allowances[sender][msg.sender] != type(uint256).max */\n      eq\n        /* \"contracts/oatfinally.sol\":10154:10278  if (_allowances[sender][msg.sender] != type(uint256).max) {... */\n      tag_192\n      jumpi\n      sub(shl(0xa0, 0x01), 0x01)\n        /* \"contracts/oatfinally.sol\":10226:10245  _allowances[sender] */\n      dup5\n      and\n      0x00\n      swap1\n      dup2\n      mstore\n        /* \"contracts/oatfinally.sol\":10226:10237  _allowances */\n      0x01\n        /* \"contracts/oatfinally.sol\":10226:10245  _allowances[sender] */\n      0x20\n      swap1\n      dup2\n      mstore\n      0x40\n      dup1\n      dup4\n      keccak256\n        /* \"contracts/oatfinally.sol\":10246:10256  msg.sender */\n      caller\n        /* \"contracts/oatfinally.sol\":10226:10257  _allowances[sender][msg.sender] */\n      dup5\n      mstore\n      swap1\n      swap2\n      mstore\n      dup2\n      keccak256\n        /* \"contracts/oatfinally.sol\":10226:10267  _allowances[sender][msg.sender] -= amount */\n      dup1\n      sload\n        /* \"contracts/oatfinally.sol\":10261:10267  amount */\n      dup5\n      swap3\n        /* \"contracts/oatfinally.sol\":10226:10245  _allowances[sender] */\n      swap1\n        /* \"contracts/oatfinally.sol\":10226:10267  _allowances[sender][msg.sender] -= amount */\n      tag_193\n      swap1\n        /* \"contracts/oatfinally.sol\":10261:10267  amount */\n      dup5\n      swap1\n        /* \"contracts/oatfinally.sol\":10226:10267  _allowances[sender][msg.sender] -= amount */\n      tag_194\n      jump\t// in\n    tag_193:\n      swap1\n      swap2\n      sstore\n      pop\n      pop\n        /* \"contracts/oatfinally.sol\":10154:10278  if (_allowances[sender][msg.sender] != type(uint256).max) {... */\n    tag_192:\n        /* \"contracts/oatfinally.sol\":10295:10331  _transfer(sender, recipient, amount) */\n      tag_195\n        /* \"contracts/oatfinally.sol\":10305:10311  sender */\n      dup5\n        /* \"contracts/oatfinally.sol\":10313:10322  recipient */\n      dup5\n        /* \"contracts/oatfinally.sol\":10324:10330  amount */\n      dup5\n        /* \"contracts/oatfinally.sol\":10295:10304  _transfer */\n      tag_196\n        /* \"contracts/oatfinally.sol\":10295:10331  _transfer(sender, recipient, amount) */\n      jump\t// in\n    tag_195:\n        /* \"contracts/oatfinally.sol\":10288:10331  return _transfer(sender, recipient, amount) */\n      swap1\n      pop\n        /* \"contracts/oatfinally.sol\":10008:10338  function transferFrom(... */\n    tag_191:\n      swap4\n      swap3\n      pop\n      pop\n      pop\n      jump\t// out\n        /* \"contracts/oatfinally.sol\":14942:15210  function setJaredSellFee(uint256 newFee) external {... */\n    tag_80:\n        /* \"contracts/oatfinally.sol\":15037:15044  _oatFee */\n      and(sub(shl(0xa0, 0x01), 0x01), sload(0x0c))\n        /* \"contracts/oatfinally.sol\":15023:15033  msg.sender */\n      caller\n        /* \"contracts/oatfinally.sol\":15023:15044  msg.sender == _oatFee */\n      eq\n        /* \"contracts/oatfinally.sol\":15002:15118  require(... */\n      tag_199\n      jumpi\n      mload(0x40)\n      shl(0xe5, 0x461bcd)\n      dup2\n      mstore\n        /* \"#utility.yul\":3777:3779   */\n      0x20\n        /* \"contracts/oatfinally.sol\":15002:15118  require(... */\n      0x04\n      dup3\n      add\n        /* \"#utility.yul\":3759:3780   */\n      mstore\n        /* \"#utility.yul\":3816:3818   */\n      0x30\n        /* \"#utility.yul\":3796:3814   */\n      0x24\n      dup3\n      add\n        /* \"#utility.yul\":3789:3819   */\n      mstore\n        /* \"#utility.yul\":3855:3889   */\n      0x4f6e6c7920417574686f726973656420616464726573732063616e206d6f6469\n        /* \"#utility.yul\":3835:3853   */\n      0x44\n      dup3\n      add\n        /* \"#utility.yul\":3828:3890   */\n      mstore\n      shl(0x80, 0x667920746865204a6172656466656521)\n        /* \"#utility.yul\":3906:3924   */\n      0x64\n      dup3\n      add\n        /* \"#utility.yul\":3899:3945   */\n      mstore\n        /* \"#utility.yul\":3962:3981   */\n      0x84\n      add\n        /* \"contracts/oatfinally.sol\":15002:15118  require(... */\n    tag_200:\n      mload(0x40)\n      dup1\n      swap2\n      sub\n      swap1\n      revert\n    tag_199:\n        /* \"contracts/oatfinally.sol\":15146:15149  100 */\n      0x64\n        /* \"contracts/oatfinally.sol\":15136:15142  newFee */\n      dup2\n        /* \"contracts/oatfinally.sol\":15136:15149  newFee <= 100 */\n      gt\n      iszero\n        /* \"contracts/oatfinally.sol\":15128:15172  require(newFee <= 100, \"Fee must be <= 100\") */\n      tag_202\n      jumpi\n      mload(0x40)\n      shl(0xe5, 0x461bcd)\n      dup2\n      mstore\n        /* \"#utility.yul\":4194:4196   */\n      0x20\n        /* \"contracts/oatfinally.sol\":15128:15172  require(newFee <= 100, \"Fee must be <= 100\") */\n      0x04\n      dup3\n      add\n        /* \"#utility.yul\":4176:4197   */\n      mstore\n        /* \"#utility.yul\":4233:4235   */\n      0x12\n        /* \"#utility.yul\":4213:4231   */\n      0x24\n      dup3\n      add\n        /* \"#utility.yul\":4206:4236   */\n      mstore\n      shl(0x74, 0x0466565206d757374206265203c3d2031303)\n        /* \"#utility.yul\":4252:4270   */\n      0x44\n      dup3\n      add\n        /* \"#utility.yul\":4245:4293   */\n      mstore\n        /* \"#utility.yul\":4310:4328   */\n      0x64\n      add\n        /* \"contracts/oatfinally.sol\":15128:15172  require(newFee <= 100, \"Fee must be <= 100\") */\n      tag_200\n        /* \"#utility.yul\":3992:4334   */\n      jump\n        /* \"contracts/oatfinally.sol\":15128:15172  require(newFee <= 100, \"Fee must be <= 100\") */\n    tag_202:\n        /* \"contracts/oatfinally.sol\":15182:15194  jaredsellfee */\n      0x09\n        /* \"contracts/oatfinally.sol\":15182:15203  jaredsellfee = newFee */\n      sstore\n        /* \"contracts/oatfinally.sol\":14942:15210  function setJaredSellFee(uint256 newFee) external {... */\n      jump\t// out\n        /* \"contracts/oatfinally.sol\":15462:15645  function removefromtNofee(address noFeeAddress) external {... */\n    tag_94:\n        /* \"contracts/oatfinally.sol\":15551:15558  _oatFee */\n      and(sub(shl(0xa0, 0x01), 0x01), sload(0x0c))\n        /* \"contracts/oatfinally.sol\":15537:15547  msg.sender */\n      caller\n        /* \"contracts/oatfinally.sol\":15537:15558  msg.sender == _oatFee */\n      eq\n        /* \"contracts/oatfinally.sol\":15529:15600  require(msg.sender == _oatFee, \"Caller is not the authorised address!\") */\n      tag_208\n      jumpi\n      mload(0x40)\n      shl(0xe5, 0x461bcd)\n      dup2\n      mstore\n      0x04\n      add\n      tag_200\n      swap1\n      tag_210\n      jump\t// in\n    tag_208:\n      sub(shl(0xa0, 0x01), 0x01)\n        /* \"contracts/oatfinally.sol\":15610:15630  _noFee[noFeeAddress] */\n      and\n        /* \"contracts/oatfinally.sol\":15633:15638  false */\n      0x00\n        /* \"contracts/oatfinally.sol\":15610:15630  _noFee[noFeeAddress] */\n      swap1\n      dup2\n      mstore\n        /* \"contracts/oatfinally.sol\":15610:15616  _noFee */\n      0x02\n        /* \"contracts/oatfinally.sol\":15610:15630  _noFee[noFeeAddress] */\n      0x20\n      mstore\n      0x40\n      swap1\n      keccak256\n        /* \"contracts/oatfinally.sol\":15610:15638  _noFee[noFeeAddress] = false */\n      dup1\n      sload\n      not(0xff)\n      and\n      swap1\n      sstore\n        /* \"contracts/oatfinally.sol\":15462:15645  function removefromtNofee(address noFeeAddress) external {... */\n      jump\t// out\n        /* \"contracts/oatfinally.sol\":14221:14492  function changeThreshold(uint256 amount) external {... */\n    tag_98:\n        /* \"contracts/oatfinally.sol\":14303:14310  _oatFee */\n      and(sub(shl(0xa0, 0x01), 0x01), sload(0x0c))\n        /* \"contracts/oatfinally.sol\":14289:14299  msg.sender */\n      caller\n        /* \"contracts/oatfinally.sol\":14289:14310  msg.sender == _oatFee */\n      eq\n        /* \"contracts/oatfinally.sol\":14281:14352  require(msg.sender == _oatFee, \"Caller is not the authorised address!\") */\n      tag_212\n      jumpi\n      mload(0x40)\n      shl(0xe5, 0x461bcd)\n      dup2\n      mstore\n      0x04\n      add\n      tag_200\n      swap1\n      tag_210\n      jump\t// in\n    tag_212:\n        /* \"contracts/oatfinally.sol\":14380:14383  100 */\n      0x64\n        /* \"contracts/oatfinally.sol\":14370:14376  amount */\n      dup2\n        /* \"contracts/oatfinally.sol\":14370:14383  amount >= 100 */\n      lt\n      iszero\n        /* \"contracts/oatfinally.sol\":14362:14409  require(amount >= 100, \"Amount must be >= 100\") */\n      tag_214\n      jumpi\n      mload(0x40)\n      shl(0xe5, 0x461bcd)\n      dup2\n      mstore\n        /* \"#utility.yul\":4947:4949   */\n      0x20\n        /* \"contracts/oatfinally.sol\":14362:14409  require(amount >= 100, \"Amount must be >= 100\") */\n      0x04\n      dup3\n      add\n        /* \"#utility.yul\":4929:4950   */\n      mstore\n        /* \"#utility.yul\":4986:4988   */\n      0x15\n        /* \"#utility.yul\":4966:4984   */\n      0x24\n      dup3\n      add\n        /* \"#utility.yul\":4959:4989   */\n      mstore\n      shl(0x5c, 0x0416d6f756e74206d757374206265203e3d2031303)\n        /* \"#utility.yul\":5005:5023   */\n      0x44\n      dup3\n      add\n        /* \"#utility.yul\":4998:5049   */\n      mstore\n        /* \"#utility.yul\":5066:5084   */\n      0x64\n      add\n        /* \"contracts/oatfinally.sol\":14362:14409  require(amount >= 100, \"Amount must be >= 100\") */\n      tag_200\n        /* \"#utility.yul\":4745:5090   */\n      jump\n        /* \"contracts/oatfinally.sol\":14362:14409  require(amount >= 100, \"Amount must be >= 100\") */\n    tag_214:\n        /* \"contracts/oatfinally.sol\":14419:14432  swapThreshold */\n      0x08\n        /* \"contracts/oatfinally.sol\":14419:14441  swapThreshold = amount */\n      dup2\n      swap1\n      sstore\n        /* \"contracts/oatfinally.sol\":14456:14485  updateThresold(swapThreshold) */\n      mload(0x40)\n        /* \"#utility.yul\":160:185   */\n      dup2\n      dup2\n      mstore\n        /* \"contracts/oatfinally.sol\":14456:14485  updateThresold(swapThreshold) */\n      0x2b7ce9cd4278161eef9245955c9a851618488a07e830194c60a88f0224ad3cc0\n      swap1\n        /* \"#utility.yul\":148:150   */\n      0x20\n        /* \"#utility.yul\":133:151   */\n      add\n        /* \"contracts/oatfinally.sol\":14456:14485  updateThresold(swapThreshold) */\n      mload(0x40)\n      dup1\n      swap2\n      sub\n      swap1\n      log1\n        /* \"contracts/oatfinally.sol\":14221:14492  function changeThreshold(uint256 amount) external {... */\n      pop\n      jump\t// out\n        /* \"contracts/oatfinally.sol\":1911:2003  function renounceOwnership() public virtual onlyOwner {... */\n    tag_106:\n        /* \"contracts/oatfinally.sol\":1743:1750  address */\n      0x00\n        /* \"contracts/oatfinally.sol\":1769:1775  _owner */\n      sload\n      sub(shl(0xa0, 0x01), 0x01)\n      and\n        /* \"contracts/oatfinally.sol\":1322:1332  msg.sender */\n      caller\n        /* \"contracts/oatfinally.sol\":1827:1850  owner() == _msgSender() */\n      eq\n        /* \"contracts/oatfinally.sol\":1819:1887  require(owner() == _msgSender(), \"Ownable: caller is not the owner\") */\n      tag_223\n      jumpi\n      mload(0x40)\n      shl(0xe5, 0x461bcd)\n      dup2\n      mstore\n        /* \"#utility.yul\":5297:5299   */\n      0x20\n        /* \"contracts/oatfinally.sol\":1819:1887  require(owner() == _msgSender(), \"Ownable: caller is not the owner\") */\n      0x04\n      dup3\n      add\n        /* \"#utility.yul\":5279:5300   */\n      dup2\n      swap1\n      mstore\n        /* \"#utility.yul\":5316:5334   */\n      0x24\n      dup3\n      add\n        /* \"#utility.yul\":5309:5339   */\n      mstore\n        /* \"#utility.yul\":5375:5409   */\n      0x4f776e61626c653a2063616c6c6572206973206e6f7420746865206f776e6572\n        /* \"#utility.yul\":5355:5373   */\n      0x44\n      dup3\n      add\n        /* \"#utility.yul\":5348:5410   */\n      mstore\n        /* \"#utility.yul\":5427:5445   */\n      0x64\n      add\n        /* \"contracts/oatfinally.sol\":1819:1887  require(owner() == _msgSender(), \"Ownable: caller is not the owner\") */\n      tag_200\n        /* \"#utility.yul\":5095:5451   */\n      jump\n        /* \"contracts/oatfinally.sol\":1819:1887  require(owner() == _msgSender(), \"Ownable: caller is not the owner\") */\n    tag_223:\n        /* \"contracts/oatfinally.sol\":1975:1996  _setOwner(address(0)) */\n      tag_227\n        /* \"contracts/oatfinally.sol\":1993:1994  0 */\n      0x00\n        /* \"contracts/oatfinally.sol\":1975:1984  _setOwner */\n      tag_228\n        /* \"contracts/oatfinally.sol\":1975:1996  _setOwner(address(0)) */\n      jump\t// in\n    tag_227:\n        /* \"contracts/oatfinally.sol\":1911:2003  function renounceOwnership() public virtual onlyOwner {... */\n      jump\t// out\n        /* \"contracts/oatfinally.sol\":14750:14936  function removeJaredAddress(address jaredAddress) external {... */\n    tag_110:\n        /* \"contracts/oatfinally.sol\":14841:14848  _oatFee */\n      and(sub(shl(0xa0, 0x01), 0x01), sload(0x0c))\n        /* \"contracts/oatfinally.sol\":14827:14837  msg.sender */\n      caller\n        /* \"contracts/oatfinally.sol\":14827:14848  msg.sender == _oatFee */\n      eq\n        /* \"contracts/oatfinally.sol\":14819:14890  require(msg.sender == _oatFee, \"Caller is not the authorised address!\") */\n      tag_230\n      jumpi\n      mload(0x40)\n      shl(0xe5, 0x461bcd)\n      dup2\n      mstore\n      0x04\n      add\n      tag_200\n      swap1\n      tag_210\n      jump\t// in\n    tag_230:\n      sub(shl(0xa0, 0x01), 0x01)\n        /* \"contracts/oatfinally.sol\":14900:14921  _jareDs[jaredAddress] */\n      and\n        /* \"contracts/oatfinally.sol\":14924:14929  false */\n      0x00\n        /* \"contracts/oatfinally.sol\":14900:14921  _jareDs[jaredAddress] */\n      swap1\n      dup2\n      mstore\n        /* \"contracts/oatfinally.sol\":14900:14907  _jareDs */\n      0x06\n        /* \"contracts/oatfinally.sol\":14900:14921  _jareDs[jaredAddress] */\n      0x20\n      mstore\n      0x40\n      swap1\n      keccak256\n        /* \"contracts/oatfinally.sol\":14900:14929  _jareDs[jaredAddress] = false */\n      dup1\n      sload\n      not(0xff)\n      and\n      swap1\n      sstore\n        /* \"contracts/oatfinally.sol\":14750:14936  function removeJaredAddress(address jaredAddress) external {... */\n      jump\t// out\n        /* \"contracts/oatfinally.sol\":14498:14744  function addJaredAddress(address jaredAddress) external {... */\n    tag_138:\n        /* \"contracts/oatfinally.sol\":14586:14593  _oatFee */\n      and(sub(shl(0xa0, 0x01), 0x01), sload(0x0c))\n        /* \"contracts/oatfinally.sol\":14572:14582  msg.sender */\n      caller\n        /* \"contracts/oatfinally.sol\":14572:14593  msg.sender == _oatFee */\n      eq\n        /* \"contracts/oatfinally.sol\":14564:14635  require(msg.sender == _oatFee, \"Caller is not the authorised address!\") */\n      tag_237\n      jumpi\n      mload(0x40)\n      shl(0xe5, 0x461bcd)\n      dup2\n      mstore\n      0x04\n      add\n      tag_200\n      swap1\n      tag_210\n      jump\t// in\n    tag_237:\n      sub(shl(0xa0, 0x01), 0x01)\n        /* \"contracts/oatfinally.sol\":14653:14679  jaredAddress != address(0) */\n      dup2\n      and\n        /* \"contracts/oatfinally.sol\":14645:14699  require(jaredAddress != address(0), \"Invalid address\") */\n      tag_239\n      jumpi\n      mload(0x40)\n      shl(0xe5, 0x461bcd)\n      dup2\n      mstore\n        /* \"#utility.yul\":5658:5660   */\n      0x20\n        /* \"contracts/oatfinally.sol\":14645:14699  require(jaredAddress != address(0), \"Invalid address\") */\n      0x04\n      dup3\n      add\n        /* \"#utility.yul\":5640:5661   */\n      mstore\n        /* \"#utility.yul\":5697:5699   */\n      0x0f\n        /* \"#utility.yul\":5677:5695   */\n      0x24\n      dup3\n      add\n        /* \"#utility.yul\":5670:5700   */\n      mstore\n      shl(0x88, 0x496e76616c69642061646472657373)\n        /* \"#utility.yul\":5716:5734   */\n      0x44\n      dup3\n      add\n        /* \"#utility.yul\":5709:5754   */\n      mstore\n        /* \"#utility.yul\":5771:5789   */\n      0x64\n      add\n        /* \"contracts/oatfinally.sol\":14645:14699  require(jaredAddress != address(0), \"Invalid address\") */\n      tag_200\n        /* \"#utility.yul\":5456:5795   */\n      jump\n        /* \"contracts/oatfinally.sol\":14645:14699  require(jaredAddress != address(0), \"Invalid address\") */\n    tag_239:\n      sub(shl(0xa0, 0x01), 0x01)\n        /* \"contracts/oatfinally.sol\":14709:14730  _jareDs[jaredAddress] */\n      and\n      0x00\n      swap1\n      dup2\n      mstore\n        /* \"contracts/oatfinally.sol\":14709:14716  _jareDs */\n      0x06\n        /* \"contracts/oatfinally.sol\":14709:14730  _jareDs[jaredAddress] */\n      0x20\n      mstore\n      0x40\n      swap1\n      keccak256\n        /* \"contracts/oatfinally.sol\":14709:14737  _jareDs[jaredAddress] = true */\n      dup1\n      sload\n      not(0xff)\n      and\n        /* \"contracts/oatfinally.sol\":14733:14737  true */\n      0x01\n        /* \"contracts/oatfinally.sol\":14709:14737  _jareDs[jaredAddress] = true */\n      or\n      swap1\n      sstore\n        /* \"contracts/oatfinally.sol\":14498:14744  function addJaredAddress(address jaredAddress) external {... */\n      jump\t// out\n        /* \"contracts/oatfinally.sol\":9329:9519  function transfer(address recipient, uint256 amount)... */\n    tag_142:\n        /* \"contracts/oatfinally.sol\":9431:9435  bool */\n      0x00\n        /* \"contracts/oatfinally.sol\":9451:9491  _transfer(msg.sender, recipient, amount) */\n      tag_243\n        /* \"contracts/oatfinally.sol\":9461:9471  msg.sender */\n      caller\n        /* \"contracts/oatfinally.sol\":9473:9482  recipient */\n      dup5\n        /* \"contracts/oatfinally.sol\":9484:9490  amount */\n      dup5\n        /* \"contracts/oatfinally.sol\":9451:9460  _transfer */\n      tag_196\n        /* \"contracts/oatfinally.sol\":9451:9491  _transfer(msg.sender, recipient, amount) */\n      jump\t// in\n    tag_243:\n      pop\n        /* \"contracts/oatfinally.sol\":9508:9512  true */\n      0x01\n      swap4\n        /* \"contracts/oatfinally.sol\":9329:9519  function transfer(address recipient, uint256 amount)... */\n      swap3\n      pop\n      pop\n      pop\n      jump\t// out\n        /* \"contracts/oatfinally.sol\":15216:15456  function addtoNofee(address noFeeAddress) external {... */\n    tag_166:\n        /* \"contracts/oatfinally.sol\":15299:15306  _oatFee */\n      and(sub(shl(0xa0, 0x01), 0x01), sload(0x0c))\n        /* \"contracts/oatfinally.sol\":15285:15295  msg.sender */\n      caller\n        /* \"contracts/oatfinally.sol\":15285:15306  msg.sender == _oatFee */\n      eq\n        /* \"contracts/oatfinally.sol\":15277:15348  require(msg.sender == _oatFee, \"Caller is not the authorised address!\") */\n      tag_247\n      jumpi\n      mload(0x40)\n      shl(0xe5, 0x461bcd)\n      dup2\n      mstore\n      0x04\n      add\n      tag_200\n      swap1\n      tag_210\n      jump\t// in\n    tag_247:\n      sub(shl(0xa0, 0x01), 0x01)\n        /* \"contracts/oatfinally.sol\":15366:15392  noFeeAddress != address(0) */\n      dup2\n      and\n        /* \"contracts/oatfinally.sol\":15358:15412  require(noFeeAddress != address(0), \"Invalid address\") */\n      tag_249\n      jumpi\n      mload(0x40)\n      shl(0xe5, 0x461bcd)\n      dup2\n      mstore\n        /* \"#utility.yul\":5658:5660   */\n      0x20\n        /* \"contracts/oatfinally.sol\":15358:15412  require(noFeeAddress != address(0), \"Invalid address\") */\n      0x04\n      dup3\n      add\n        /* \"#utility.yul\":5640:5661   */\n      mstore\n        /* \"#utility.yul\":5697:5699   */\n      0x0f\n        /* \"#utility.yul\":5677:5695   */\n      0x24\n      dup3\n      add\n        /* \"#utility.yul\":5670:5700   */\n      mstore\n      shl(0x88, 0x496e76616c69642061646472657373)\n        /* \"#utility.yul\":5716:5734   */\n      0x44\n      dup3\n      add\n        /* \"#utility.yul\":5709:5754   */\n      mstore\n        /* \"#utility.yul\":5771:5789   */\n      0x64\n      add\n        /* \"contracts/oatfinally.sol\":15358:15412  require(noFeeAddress != address(0), \"Invalid address\") */\n      tag_200\n        /* \"#utility.yul\":5456:5795   */\n      jump\n        /* \"contracts/oatfinally.sol\":15358:15412  require(noFeeAddress != address(0), \"Invalid address\") */\n    tag_249:\n      sub(shl(0xa0, 0x01), 0x01)\n        /* \"contracts/oatfinally.sol\":15422:15442  _noFee[noFeeAddress] */\n      and\n      0x00\n      swap1\n      dup2\n      mstore\n        /* \"contracts/oatfinally.sol\":15422:15428  _noFee */\n      0x02\n        /* \"contracts/oatfinally.sol\":15422:15442  _noFee[noFeeAddress] */\n      0x20\n      mstore\n      0x40\n      swap1\n      keccak256\n        /* \"contracts/oatfinally.sol\":15422:15449  _noFee[noFeeAddress] = true */\n      dup1\n      sload\n      not(0xff)\n      and\n        /* \"contracts/oatfinally.sol\":15445:15449  true */\n      0x01\n        /* \"contracts/oatfinally.sol\":15422:15449  _noFee[noFeeAddress] = true */\n      or\n      swap1\n      sstore\n        /* \"contracts/oatfinally.sol\":15216:15456  function addtoNofee(address noFeeAddress) external {... */\n      jump\t// out\n        /* \"contracts/oatfinally.sol\":2009:2232  function transferOwnership(address newOwner) public virtual onlyOwner {... */\n    tag_184:\n        /* \"contracts/oatfinally.sol\":1743:1750  address */\n      0x00\n        /* \"contracts/oatfinally.sol\":1769:1775  _owner */\n      sload\n      sub(shl(0xa0, 0x01), 0x01)\n      and\n        /* \"contracts/oatfinally.sol\":1322:1332  msg.sender */\n      caller\n        /* \"contracts/oatfinally.sol\":1827:1850  owner() == _msgSender() */\n      eq\n        /* \"contracts/oatfinally.sol\":1819:1887  require(owner() == _msgSender(), \"Ownable: caller is not the owner\") */\n      tag_255\n      jumpi\n      mload(0x40)\n      shl(0xe5, 0x461bcd)\n      dup2\n      mstore\n        /* \"#utility.yul\":5297:5299   */\n      0x20\n        /* \"contracts/oatfinally.sol\":1819:1887  require(owner() == _msgSender(), \"Ownable: caller is not the owner\") */\n      0x04\n      dup3\n      add\n        /* \"#utility.yul\":5279:5300   */\n      dup2\n      swap1\n      mstore\n        /* \"#utility.yul\":5316:5334   */\n      0x24\n      dup3\n      add\n        /* \"#utility.yul\":5309:5339   */\n      mstore\n        /* \"#utility.yul\":5375:5409   */\n      0x4f776e61626c653a2063616c6c6572206973206e6f7420746865206f776e6572\n        /* \"#utility.yul\":5355:5373   */\n      0x44\n      dup3\n      add\n        /* \"#utility.yul\":5348:5410   */\n      mstore\n        /* \"#utility.yul\":5427:5445   */\n      0x64\n      add\n        /* \"contracts/oatfinally.sol\":1819:1887  require(owner() == _msgSender(), \"Ownable: caller is not the owner\") */\n      tag_200\n        /* \"#utility.yul\":5095:5451   */\n      jump\n        /* \"contracts/oatfinally.sol\":1819:1887  require(owner() == _msgSender(), \"Ownable: caller is not the owner\") */\n    tag_255:\n      sub(shl(0xa0, 0x01), 0x01)\n        /* \"contracts/oatfinally.sol\":2110:2132  newOwner != address(0) */\n      dup2\n      and\n        /* \"contracts/oatfinally.sol\":2089:2196  require(... */\n      tag_258\n      jumpi\n      mload(0x40)\n      shl(0xe5, 0x461bcd)\n      dup2\n      mstore\n        /* \"#utility.yul\":6002:6004   */\n      0x20\n        /* \"contracts/oatfinally.sol\":2089:2196  require(... */\n      0x04\n      dup3\n      add\n        /* \"#utility.yul\":5984:6005   */\n      mstore\n        /* \"#utility.yul\":6041:6043   */\n      0x26\n        /* \"#utility.yul\":6021:6039   */\n      0x24\n      dup3\n      add\n        /* \"#utility.yul\":6014:6044   */\n      mstore\n        /* \"#utility.yul\":6080:6114   */\n      0x4f776e61626c653a206e6577206f776e657220697320746865207a65726f2061\n        /* \"#utility.yul\":6060:6078   */\n      0x44\n      dup3\n      add\n        /* \"#utility.yul\":6053:6115   */\n      mstore\n      shl(0xd0, 0x646472657373)\n        /* \"#utility.yul\":6131:6149   */\n      0x64\n      dup3\n      add\n        /* \"#utility.yul\":6124:6160   */\n      mstore\n        /* \"#utility.yul\":6177:6196   */\n      0x84\n      add\n        /* \"contracts/oatfinally.sol\":2089:2196  require(... */\n      tag_200\n        /* \"#utility.yul\":5800:6202   */\n      jump\n        /* \"contracts/oatfinally.sol\":2089:2196  require(... */\n    tag_258:\n        /* \"contracts/oatfinally.sol\":2206:2225  _setOwner(newOwner) */\n      tag_261\n        /* \"contracts/oatfinally.sol\":2216:2224  newOwner */\n      dup2\n        /* \"contracts/oatfinally.sol\":2206:2215  _setOwner */\n      tag_228\n        /* \"contracts/oatfinally.sol\":2206:2225  _setOwner(newOwner) */\n      jump\t// in\n    tag_261:\n        /* \"contracts/oatfinally.sol\":2009:2232  function transferOwnership(address newOwner) public virtual onlyOwner {... */\n      pop\n      jump\t// out\n        /* \"contracts/oatfinally.sol\":9717:10002  function _approve(... */\n    tag_188:\n      sub(shl(0xa0, 0x01), 0x01)\n        /* \"contracts/oatfinally.sol\":9841:9861  sender != address(0) */\n      dup4\n      and\n        /* \"contracts/oatfinally.sol\":9833:9885  require(sender != address(0), \"ERC20: Zero Address\") */\n      tag_263\n      jumpi\n      mload(0x40)\n      shl(0xe5, 0x461bcd)\n      dup2\n      mstore\n        /* \"#utility.yul\":6409:6411   */\n      0x20\n        /* \"contracts/oatfinally.sol\":9833:9885  require(sender != address(0), \"ERC20: Zero Address\") */\n      0x04\n      dup3\n      add\n        /* \"#utility.yul\":6391:6412   */\n      mstore\n        /* \"#utility.yul\":6448:6450   */\n      0x13\n        /* \"#utility.yul\":6428:6446   */\n      0x24\n      dup3\n      add\n        /* \"#utility.yul\":6421:6451   */\n      mstore\n      shl(0x68, 0x45524332303a205a65726f2041646472657373)\n        /* \"#utility.yul\":6467:6485   */\n      0x44\n      dup3\n      add\n        /* \"#utility.yul\":6460:6509   */\n      mstore\n        /* \"#utility.yul\":6526:6544   */\n      0x64\n      add\n        /* \"contracts/oatfinally.sol\":9833:9885  require(sender != address(0), \"ERC20: Zero Address\") */\n      tag_200\n        /* \"#utility.yul\":6207:6550   */\n      jump\n        /* \"contracts/oatfinally.sol\":9833:9885  require(sender != address(0), \"ERC20: Zero Address\") */\n    tag_263:\n      sub(shl(0xa0, 0x01), 0x01)\n        /* \"contracts/oatfinally.sol\":9903:9924  spender != address(0) */\n      dup3\n      and\n        /* \"contracts/oatfinally.sol\":9895:9948  require(spender != address(0), \"ERC20: Zero Address\") */\n      tag_266\n      jumpi\n      mload(0x40)\n      shl(0xe5, 0x461bcd)\n      dup2\n      mstore\n        /* \"#utility.yul\":6409:6411   */\n      0x20\n        /* \"contracts/oatfinally.sol\":9895:9948  require(spender != address(0), \"ERC20: Zero Address\") */\n      0x04\n      dup3\n      add\n        /* \"#utility.yul\":6391:6412   */\n      mstore\n        /* \"#utility.yul\":6448:6450   */\n      0x13\n        /* \"#utility.yul\":6428:6446   */\n      0x24\n      dup3\n      add\n        /* \"#utility.yul\":6421:6451   */\n      mstore\n      shl(0x68, 0x45524332303a205a65726f2041646472657373)\n        /* \"#utility.yul\":6467:6485   */\n      0x44\n      dup3\n      add\n        /* \"#utility.yul\":6460:6509   */\n      mstore\n        /* \"#utility.yul\":6526:6544   */\n      0x64\n      add\n        /* \"contracts/oatfinally.sol\":9895:9948  require(spender != address(0), \"ERC20: Zero Address\") */\n      tag_200\n        /* \"#utility.yul\":6207:6550   */\n      jump\n        /* \"contracts/oatfinally.sol\":9895:9948  require(spender != address(0), \"ERC20: Zero Address\") */\n    tag_266:\n      sub(shl(0xa0, 0x01), 0x01)\n        /* \"contracts/oatfinally.sol\":9958:9977  _allowances[sender] */\n      swap3\n      dup4\n      and\n      0x00\n      swap1\n      dup2\n      mstore\n        /* \"contracts/oatfinally.sol\":9958:9969  _allowances */\n      0x01\n        /* \"contracts/oatfinally.sol\":9958:9977  _allowances[sender] */\n      0x20\n      swap1\n      dup2\n      mstore\n      0x40\n      dup1\n      dup4\n      keccak256\n        /* \"contracts/oatfinally.sol\":9958:9986  _allowances[sender][spender] */\n      swap5\n      swap1\n      swap6\n      and\n      dup3\n      mstore\n      swap3\n      swap1\n      swap3\n      mstore\n      swap2\n      swap1\n      keccak256\n        /* \"contracts/oatfinally.sol\":9958:9995  _allowances[sender][spender] = amount */\n      sstore\n        /* \"contracts/oatfinally.sol\":9717:10002  function _approve(... */\n      jump\t// out\n        /* \"contracts/oatfinally.sol\":10872:12807  function _transfer(... */\n    tag_196:\n        /* \"contracts/oatfinally.sol\":10981:10985  bool */\n      0x00\n        /* \"contracts/oatfinally.sol\":11012:11016  true */\n      0x01\n      sub(shl(0xa0, 0x01), 0x01)\n        /* \"contracts/oatfinally.sol\":11034:11050  to != address(0) */\n      dup5\n      and\n        /* \"contracts/oatfinally.sol\":11026:11090  require(to != address(0), \"ERC20: transfer to the zero address\") */\n      tag_269\n      jumpi\n      mload(0x40)\n      shl(0xe5, 0x461bcd)\n      dup2\n      mstore\n        /* \"#utility.yul\":6757:6759   */\n      0x20\n        /* \"contracts/oatfinally.sol\":11026:11090  require(to != address(0), \"ERC20: transfer to the zero address\") */\n      0x04\n      dup3\n      add\n        /* \"#utility.yul\":6739:6760   */\n      mstore\n        /* \"#utility.yul\":6796:6798   */\n      0x23\n        /* \"#utility.yul\":6776:6794   */\n      0x24\n      dup3\n      add\n        /* \"#utility.yul\":6769:6799   */\n      mstore\n        /* \"#utility.yul\":6835:6869   */\n      0x45524332303a207472616e7366657220746f20746865207a65726f2061646472\n        /* \"#utility.yul\":6815:6833   */\n      0x44\n      dup3\n      add\n        /* \"#utility.yul\":6808:6870   */\n      mstore\n      shl(0xe8, 0x657373)\n        /* \"#utility.yul\":6886:6904   */\n      0x64\n      dup3\n      add\n        /* \"#utility.yul\":6879:6912   */\n      mstore\n        /* \"#utility.yul\":6929:6948   */\n      0x84\n      add\n        /* \"contracts/oatfinally.sol\":11026:11090  require(to != address(0), \"ERC20: transfer to the zero address\") */\n      tag_200\n        /* \"#utility.yul\":6555:6954   */\n      jump\n        /* \"contracts/oatfinally.sol\":11026:11090  require(to != address(0), \"ERC20: transfer to the zero address\") */\n    tag_269:\n      sub(shl(0xa0, 0x01), 0x01)\n        /* \"contracts/oatfinally.sol\":11108:11126  from != address(0) */\n      dup6\n      and\n        /* \"contracts/oatfinally.sol\":11100:11168  require(from != address(0), \"ERC20: transfer from the zero address\") */\n      tag_272\n      jumpi\n      mload(0x40)\n      shl(0xe5, 0x461bcd)\n      dup2\n      mstore\n        /* \"#utility.yul\":7161:7163   */\n      0x20\n        /* \"contracts/oatfinally.sol\":11100:11168  require(from != address(0), \"ERC20: transfer from the zero address\") */\n      0x04\n      dup3\n      add\n        /* \"#utility.yul\":7143:7164   */\n      mstore\n        /* \"#utility.yul\":7200:7202   */\n      0x25\n        /* \"#utility.yul\":7180:7198   */\n      0x24\n      dup3\n      add\n        /* \"#utility.yul\":7173:7203   */\n      mstore\n        /* \"#utility.yul\":7239:7273   */\n      0x45524332303a207472616e736665722066726f6d20746865207a65726f206164\n        /* \"#utility.yul\":7219:7237   */\n      0x44\n      dup3\n      add\n        /* \"#utility.yul\":7212:7274   */\n      mstore\n      shl(0xd8, 0x6472657373)\n        /* \"#utility.yul\":7290:7308   */\n      0x64\n      dup3\n      add\n        /* \"#utility.yul\":7283:7318   */\n      mstore\n        /* \"#utility.yul\":7335:7354   */\n      0x84\n      add\n        /* \"contracts/oatfinally.sol\":11100:11168  require(from != address(0), \"ERC20: transfer from the zero address\") */\n      tag_200\n        /* \"#utility.yul\":6959:7360   */\n      jump\n        /* \"contracts/oatfinally.sol\":11100:11168  require(from != address(0), \"ERC20: transfer from the zero address\") */\n    tag_272:\n        /* \"contracts/oatfinally.sol\":11195:11196  0 */\n      0x00\n        /* \"contracts/oatfinally.sol\":11186:11192  amount */\n      dup4\n        /* \"contracts/oatfinally.sol\":11186:11196  amount > 0 */\n      gt\n        /* \"contracts/oatfinally.sol\":11178:11242  require(amount > 0, \"Transfer amount must be greater than zero\") */\n      tag_275\n      jumpi\n      mload(0x40)\n      shl(0xe5, 0x461bcd)\n      dup2\n      mstore\n        /* \"#utility.yul\":7567:7569   */\n      0x20\n        /* \"contracts/oatfinally.sol\":11178:11242  require(amount > 0, \"Transfer amount must be greater than zero\") */\n      0x04\n      dup3\n      add\n        /* \"#utility.yul\":7549:7570   */\n      mstore\n        /* \"#utility.yul\":7606:7608   */\n      0x29\n        /* \"#utility.yul\":7586:7604   */\n      0x24\n      dup3\n      add\n        /* \"#utility.yul\":7579:7609   */\n      mstore\n        /* \"#utility.yul\":7645:7679   */\n      0x5472616e7366657220616d6f756e74206d757374206265206772656174657220\n        /* \"#utility.yul\":7625:7643   */\n      0x44\n      dup3\n      add\n        /* \"#utility.yul\":7618:7680   */\n      mstore\n      shl(0xb8, 0x7468616e207a65726f)\n        /* \"#utility.yul\":7696:7714   */\n      0x64\n      dup3\n      add\n        /* \"#utility.yul\":7689:7728   */\n      mstore\n        /* \"#utility.yul\":7745:7764   */\n      0x84\n      add\n        /* \"contracts/oatfinally.sol\":11178:11242  require(amount > 0, \"Transfer amount must be greater than zero\") */\n      tag_200\n        /* \"#utility.yul\":7365:7770   */\n      jump\n        /* \"contracts/oatfinally.sol\":11178:11242  require(amount > 0, \"Transfer amount must be greater than zero\") */\n    tag_275:\n        /* \"contracts/oatfinally.sol\":1743:1750  address */\n      0x00\n        /* \"contracts/oatfinally.sol\":1769:1775  _owner */\n      sload\n      sub(shl(0xa0, 0x01), 0x01)\n        /* \"contracts/oatfinally.sol\":11257:11272  from != owner() */\n      dup7\n      dup2\n      and\n        /* \"contracts/oatfinally.sol\":1769:1775  _owner */\n      swap2\n      and\n        /* \"contracts/oatfinally.sol\":11257:11272  from != owner() */\n      eq\n      dup1\n      iszero\n      swap1\n        /* \"contracts/oatfinally.sol\":11257:11289  from != owner() && to != owner() */\n      tag_279\n      jumpi\n      pop\n        /* \"contracts/oatfinally.sol\":1743:1750  address */\n      0x00\n        /* \"contracts/oatfinally.sol\":1769:1775  _owner */\n      sload\n      sub(shl(0xa0, 0x01), 0x01)\n        /* \"contracts/oatfinally.sol\":11276:11289  to != owner() */\n      dup6\n      dup2\n      and\n        /* \"contracts/oatfinally.sol\":1769:1775  _owner */\n      swap2\n      and\n        /* \"contracts/oatfinally.sol\":11276:11289  to != owner() */\n      eq\n      iszero\n        /* \"contracts/oatfinally.sol\":11257:11289  from != owner() && to != owner() */\n    tag_279:\n        /* \"contracts/oatfinally.sol\":11253:12780  if (from != owner() && to != owner()) {... */\n      iszero\n      tag_281\n      jumpi\n        /* \"contracts/oatfinally.sol\":11309:11329  transferDelayEnabled */\n      and(0xff, sload(0x07))\n        /* \"contracts/oatfinally.sol\":11305:11709  if (transferDelayEnabled) {... */\n      iszero\n      tag_284\n      jumpi\n        /* \"contracts/oatfinally.sol\":11367:11377  swapRouter */\n      sload(0x0d)\n      sub(shl(0xa0, 0x01), 0x01)\n        /* \"contracts/oatfinally.sol\":11353:11378  to != address(swapRouter) */\n      dup6\n      dup2\n      and\n        /* \"contracts/oatfinally.sol\":11367:11377  swapRouter */\n      swap2\n      and\n        /* \"contracts/oatfinally.sol\":11353:11378  to != address(swapRouter) */\n      eq\n      dup1\n      iszero\n      swap1\n        /* \"contracts/oatfinally.sol\":11353:11403  to != address(swapRouter) && to != address(lpPair) */\n      tag_283\n      jumpi\n      pop\n        /* \"contracts/oatfinally.sol\":11396:11402  lpPair */\n      sload(0x0e)\n      sub(shl(0xa0, 0x01), 0x01)\n        /* \"contracts/oatfinally.sol\":11382:11403  to != address(lpPair) */\n      dup6\n      dup2\n      and\n        /* \"contracts/oatfinally.sol\":11396:11402  lpPair */\n      swap2\n      and\n        /* \"contracts/oatfinally.sol\":11382:11403  to != address(lpPair) */\n      eq\n      iszero\n        /* \"contracts/oatfinally.sol\":11353:11403  to != address(swapRouter) && to != address(lpPair) */\n    tag_283:\n        /* \"contracts/oatfinally.sol\":11349:11695  if (to != address(swapRouter) && to != address(lpPair)) {... */\n      iszero\n      tag_284\n      jumpi\n        /* \"contracts/oatfinally.sol\":11489:11498  tx.origin */\n      origin\n        /* \"contracts/oatfinally.sol\":11460:11499  _holderLastTransferTimestamp[tx.origin] */\n      0x00\n      swap1\n      dup2\n      mstore\n        /* \"contracts/oatfinally.sol\":11460:11488  _holderLastTransferTimestamp */\n      0x05\n        /* \"contracts/oatfinally.sol\":11460:11499  _holderLastTransferTimestamp[tx.origin] */\n      0x20\n      mstore\n      0x40\n      swap1\n      keccak256\n      sload\n        /* \"contracts/oatfinally.sol\":11502:11514  block.number */\n      number\n      gt\n        /* \"contracts/oatfinally.sol\":11427:11600  require(... */\n      tag_285\n      jumpi\n      mload(0x40)\n      shl(0xe5, 0x461bcd)\n      dup2\n      mstore\n        /* \"#utility.yul\":7977:7979   */\n      0x20\n        /* \"contracts/oatfinally.sol\":11427:11600  require(... */\n      0x04\n      dup3\n      add\n        /* \"#utility.yul\":7959:7980   */\n      mstore\n        /* \"#utility.yul\":8016:8018   */\n      0x24\n        /* \"#utility.yul\":7996:8014   */\n      dup1\n      dup3\n      add\n        /* \"#utility.yul\":7989:8019   */\n      mstore\n        /* \"#utility.yul\":8055:8089   */\n      0x4f6e6c79206f6e65207472616e736665722070657220626c6f636b20616c6c6f\n        /* \"#utility.yul\":8035:8053   */\n      0x44\n      dup3\n      add\n        /* \"#utility.yul\":8028:8090   */\n      mstore\n      shl(0xe1, 0x3bb2b217)\n        /* \"#utility.yul\":8106:8124   */\n      0x64\n      dup3\n      add\n        /* \"#utility.yul\":8099:8133   */\n      mstore\n        /* \"#utility.yul\":8150:8169   */\n      0x84\n      add\n        /* \"contracts/oatfinally.sol\":11427:11600  require(... */\n      tag_200\n        /* \"#utility.yul\":7775:8175   */\n      jump\n        /* \"contracts/oatfinally.sol\":11427:11600  require(... */\n    tag_285:\n        /* \"contracts/oatfinally.sol\":11651:11660  tx.origin */\n      origin\n        /* \"contracts/oatfinally.sol\":11622:11661  _holderLastTransferTimestamp[tx.origin] */\n      0x00\n      swap1\n      dup2\n      mstore\n        /* \"contracts/oatfinally.sol\":11622:11650  _holderLastTransferTimestamp */\n      0x05\n        /* \"contracts/oatfinally.sol\":11622:11661  _holderLastTransferTimestamp[tx.origin] */\n      0x20\n      mstore\n      0x40\n      swap1\n      keccak256\n        /* \"contracts/oatfinally.sol\":11664:11676  block.number */\n      number\n        /* \"contracts/oatfinally.sol\":11622:11676  _holderLastTransferTimestamp[tx.origin] = block.number */\n      swap1\n      sstore\n        /* \"contracts/oatfinally.sol\":11349:11695  if (to != address(swapRouter) && to != address(lpPair)) {... */\n    tag_284:\n        /* \"contracts/oatfinally.sol\":11752:11758  lpPair */\n      sload(0x0e)\n      sub(shl(0xa0, 0x01), 0x01)\n        /* \"contracts/oatfinally.sol\":11744:11758  from == lpPair */\n      dup7\n      dup2\n      and\n        /* \"contracts/oatfinally.sol\":11752:11758  lpPair */\n      swap2\n      and\n        /* \"contracts/oatfinally.sol\":11744:11758  from == lpPair */\n      eq\n        /* \"contracts/oatfinally.sol\":11744:11803  from == lpPair &&... */\n      dup1\n      iszero\n      tag_288\n      jumpi\n      pop\n        /* \"contracts/oatfinally.sol\":11792:11802  swapRouter */\n      sload(0x0d)\n      sub(shl(0xa0, 0x01), 0x01)\n        /* \"contracts/oatfinally.sol\":11778:11803  to != address(swapRouter) */\n      dup6\n      dup2\n      and\n        /* \"contracts/oatfinally.sol\":11792:11802  swapRouter */\n      swap2\n      and\n        /* \"contracts/oatfinally.sol\":11778:11803  to != address(swapRouter) */\n      eq\n      iszero\n        /* \"contracts/oatfinally.sol\":11744:11803  from == lpPair &&... */\n    tag_288:\n        /* \"contracts/oatfinally.sol\":11744:11844  from == lpPair &&... */\n      dup1\n      iszero\n      tag_289\n      jumpi\n      pop\n        /* \"contracts/oatfinally.sol\":11837:11843  lpPair */\n      sload(0x0e)\n      sub(shl(0xa0, 0x01), 0x01)\n        /* \"contracts/oatfinally.sol\":11823:11844  to != address(lpPair) */\n      dup6\n      dup2\n      and\n        /* \"contracts/oatfinally.sol\":11837:11843  lpPair */\n      swap2\n      and\n        /* \"contracts/oatfinally.sol\":11823:11844  to != address(lpPair) */\n      eq\n      iszero\n        /* \"contracts/oatfinally.sol\":11744:11844  from == lpPair &&... */\n    tag_289:\n        /* \"contracts/oatfinally.sol\":11744:11875  from == lpPair &&... */\n      dup1\n      iszero\n      tag_290\n      jumpi\n      pop\n      sub(shl(0xa0, 0x01), 0x01)\n        /* \"contracts/oatfinally.sol\":11865:11875  _noFee[to] */\n      dup5\n      and\n      0x00\n      swap1\n      dup2\n      mstore\n        /* \"contracts/oatfinally.sol\":11865:11871  _noFee */\n      0x02\n        /* \"contracts/oatfinally.sol\":11865:11875  _noFee[to] */\n      0x20\n      mstore\n      0x40\n      swap1\n      keccak256\n      sload\n      0xff\n      and\n        /* \"contracts/oatfinally.sol\":11864:11875  !_noFee[to] */\n      iszero\n        /* \"contracts/oatfinally.sol\":11744:11875  from == lpPair &&... */\n    tag_290:\n        /* \"contracts/oatfinally.sol\":11723:12138  if (... */\n      iszero\n      tag_298\n      jumpi\n        /* \"contracts/oatfinally.sol\":11926:11938  _maxTxAmount */\n      sload(0x0a)\n        /* \"contracts/oatfinally.sol\":11916:11922  amount */\n      dup4\n        /* \"contracts/oatfinally.sol\":11916:11938  amount <= _maxTxAmount */\n      gt\n      iszero\n        /* \"contracts/oatfinally.sol\":11908:11968  require(amount <= _maxTxAmount, \"Exceeds the _maxTxAmount.\") */\n      tag_292\n      jumpi\n      mload(0x40)\n      shl(0xe5, 0x461bcd)\n      dup2\n      mstore\n        /* \"#utility.yul\":8382:8384   */\n      0x20\n        /* \"contracts/oatfinally.sol\":11908:11968  require(amount <= _maxTxAmount, \"Exceeds the _maxTxAmount.\") */\n      0x04\n      dup3\n      add\n        /* \"#utility.yul\":8364:8385   */\n      mstore\n        /* \"#utility.yul\":8421:8423   */\n      0x19\n        /* \"#utility.yul\":8401:8419   */\n      0x24\n      dup3\n      add\n        /* \"#utility.yul\":8394:8424   */\n      mstore\n        /* \"#utility.yul\":8460:8487   */\n      0x4578636565647320746865205f6d61785478416d6f756e742e00000000000000\n        /* \"#utility.yul\":8440:8458   */\n      0x44\n      dup3\n      add\n        /* \"#utility.yul\":8433:8488   */\n      mstore\n        /* \"#utility.yul\":8505:8523   */\n      0x64\n      add\n        /* \"contracts/oatfinally.sol\":11908:11968  require(amount <= _maxTxAmount, \"Exceeds the _maxTxAmount.\") */\n      tag_200\n        /* \"#utility.yul\":8180:8529   */\n      jump\n        /* \"contracts/oatfinally.sol\":11908:11968  require(amount <= _maxTxAmount, \"Exceeds the _maxTxAmount.\") */\n    tag_292:\n        /* \"contracts/oatfinally.sol\":12041:12055  _maxWalletSize */\n      sload(0x0b)\n        /* \"contracts/oatfinally.sol\":12031:12037  amount */\n      dup4\n        /* \"contracts/oatfinally.sol\":12015:12028  balanceOf(to) */\n      tag_295\n        /* \"contracts/oatfinally.sol\":12025:12027  to */\n      dup7\n      sub(shl(0xa0, 0x01), 0x01)\n        /* \"contracts/oatfinally.sol\":7039:7055  balance[account] */\n      and\n        /* \"contracts/oatfinally.sol\":7013:7020  uint256 */\n      0x00\n        /* \"contracts/oatfinally.sol\":7039:7055  balance[account] */\n      swap1\n      dup2\n      mstore\n        /* \"contracts/oatfinally.sol\":7039:7046  balance */\n      0x04\n        /* \"contracts/oatfinally.sol\":7039:7055  balance[account] */\n      0x20\n      mstore\n      0x40\n      swap1\n      keccak256\n      sload\n      swap1\n        /* \"contracts/oatfinally.sol\":6947:7062  function balanceOf(address account) public view override returns (uint256) {... */\n      jump\n        /* \"contracts/oatfinally.sol\":12015:12028  balanceOf(to) */\n    tag_295:\n        /* \"contracts/oatfinally.sol\":12015:12037  balanceOf(to) + amount */\n      tag_296\n      swap2\n      swap1\n      tag_297\n      jump\t// in\n    tag_296:\n        /* \"contracts/oatfinally.sol\":12015:12055  balanceOf(to) + amount <= _maxWalletSize */\n      gt\n      iszero\n        /* \"contracts/oatfinally.sol\":11986:12123  require(... */\n      tag_298\n      jumpi\n      mload(0x40)\n      shl(0xe5, 0x461bcd)\n      dup2\n      mstore\n        /* \"#utility.yul\":8866:8868   */\n      0x20\n        /* \"contracts/oatfinally.sol\":11986:12123  require(... */\n      0x04\n      dup3\n      add\n        /* \"#utility.yul\":8848:8869   */\n      mstore\n        /* \"#utility.yul\":8905:8907   */\n      0x1a\n        /* \"#utility.yul\":8885:8903   */\n      0x24\n      dup3\n      add\n        /* \"#utility.yul\":8878:8908   */\n      mstore\n        /* \"#utility.yul\":8944:8972   */\n      0x4578636565647320746865206d617857616c6c657453697a652e000000000000\n        /* \"#utility.yul\":8924:8942   */\n      0x44\n      dup3\n      add\n        /* \"#utility.yul\":8917:8973   */\n      mstore\n        /* \"#utility.yul\":8990:9008   */\n      0x64\n      add\n        /* \"contracts/oatfinally.sol\":11986:12123  require(... */\n      tag_200\n        /* \"#utility.yul\":8664:9014   */\n      jump\n        /* \"contracts/oatfinally.sol\":11986:12123  require(... */\n    tag_298:\n        /* \"contracts/oatfinally.sol\":12156:12173  is_sell(from, to) */\n      tag_301\n        /* \"contracts/oatfinally.sol\":12164:12168  from */\n      dup6\n        /* \"contracts/oatfinally.sol\":12170:12172  to */\n      dup6\n        /* \"contracts/oatfinally.sol\":12156:12163  is_sell */\n      tag_302\n        /* \"contracts/oatfinally.sol\":12156:12173  is_sell(from, to) */\n      jump\t// in\n    tag_301:\n        /* \"contracts/oatfinally.sol\":12156:12184  is_sell(from, to) && !inSwap */\n      dup1\n      iszero\n      tag_303\n      jumpi\n      pop\n        /* \"contracts/oatfinally.sol\":12178:12184  inSwap */\n      sload(0x0e)\n      shl(0xa0, 0x01)\n      swap1\n      div\n      0xff\n      and\n        /* \"contracts/oatfinally.sol\":12177:12184  !inSwap */\n      iszero\n        /* \"contracts/oatfinally.sol\":12156:12184  is_sell(from, to) && !inSwap */\n    tag_303:\n        /* \"contracts/oatfinally.sol\":12152:12409  if (is_sell(from, to) && !inSwap) {... */\n      iszero\n      tag_304\n      jumpi\n        /* \"contracts/oatfinally.sol\":12253:12257  this */\n      address\n        /* \"contracts/oatfinally.sol\":12204:12232  uint256 contractTokenBalance */\n      0x00\n        /* \"contracts/oatfinally.sol\":7039:7055  balance[account] */\n      swap1\n      dup2\n      mstore\n        /* \"contracts/oatfinally.sol\":7039:7046  balance */\n      0x04\n        /* \"contracts/oatfinally.sol\":7039:7055  balance[account] */\n      0x20\n      mstore\n      0x40\n      swap1\n      keccak256\n      sload\n        /* \"contracts/oatfinally.sol\":12305:12318  swapThreshold */\n      sload(0x08)\n        /* \"contracts/oatfinally.sol\":12281:12318  contractTokenBalance >= swapThreshold */\n      dup2\n      lt\n        /* \"contracts/oatfinally.sol\":12277:12395  if (contractTokenBalance >= swapThreshold) {... */\n      tag_307\n      jumpi\n        /* \"contracts/oatfinally.sol\":12342:12376  internalSwap(contractTokenBalance) */\n      tag_307\n        /* \"contracts/oatfinally.sol\":12355:12375  contractTokenBalance */\n      dup2\n        /* \"contracts/oatfinally.sol\":12342:12354  internalSwap */\n      tag_308\n        /* \"contracts/oatfinally.sol\":12342:12376  internalSwap(contractTokenBalance) */\n      jump\t// in\n    tag_307:\n        /* \"contracts/oatfinally.sol\":12186:12409  {... */\n      pop\n        /* \"contracts/oatfinally.sol\":12152:12409  if (is_sell(from, to) && !inSwap) {... */\n    tag_304:\n      sub(shl(0xa0, 0x01), 0x01)\n        /* \"contracts/oatfinally.sol\":12427:12439  _noFee[from] */\n      dup6\n      and\n      0x00\n      swap1\n      dup2\n      mstore\n        /* \"contracts/oatfinally.sol\":12427:12433  _noFee */\n      0x02\n        /* \"contracts/oatfinally.sol\":12427:12439  _noFee[from] */\n      0x20\n      mstore\n      0x40\n      swap1\n      keccak256\n      sload\n      0xff\n      and\n      dup1\n        /* \"contracts/oatfinally.sol\":12427:12453  _noFee[from] || _noFee[to] */\n      tag_309\n      jumpi\n      pop\n      sub(shl(0xa0, 0x01), 0x01)\n        /* \"contracts/oatfinally.sol\":12443:12453  _noFee[to] */\n      dup5\n      and\n      0x00\n      swap1\n      dup2\n      mstore\n        /* \"contracts/oatfinally.sol\":12443:12449  _noFee */\n      0x02\n        /* \"contracts/oatfinally.sol\":12443:12453  _noFee[to] */\n      0x20\n      mstore\n      0x40\n      swap1\n      keccak256\n      sload\n      0xff\n      and\n        /* \"contracts/oatfinally.sol\":12427:12453  _noFee[from] || _noFee[to] */\n    tag_309:\n        /* \"contracts/oatfinally.sol\":12423:12503  if (_noFee[from] || _noFee[to]) {... */\n      iszero\n      tag_310\n      jumpi\n      pop\n        /* \"contracts/oatfinally.sol\":12483:12488  false */\n      0x00\n        /* \"contracts/oatfinally.sol\":12423:12503  if (_noFee[from] || _noFee[to]) {... */\n    tag_310:\n      sub(shl(0xa0, 0x01), 0x01)\n        /* \"contracts/oatfinally.sol\":12516:12529  balance[from] */\n      dup6\n      and\n      0x00\n      swap1\n      dup2\n      mstore\n        /* \"contracts/oatfinally.sol\":12516:12523  balance */\n      0x04\n        /* \"contracts/oatfinally.sol\":12516:12529  balance[from] */\n      0x20\n      mstore\n      0x40\n      dup2\n      keccak256\n        /* \"contracts/oatfinally.sol\":12516:12539  balance[from] -= amount */\n      dup1\n      sload\n        /* \"contracts/oatfinally.sol\":12533:12539  amount */\n      dup6\n      swap3\n        /* \"contracts/oatfinally.sol\":12516:12529  balance[from] */\n      swap1\n        /* \"contracts/oatfinally.sol\":12516:12539  balance[from] -= amount */\n      tag_311\n      swap1\n        /* \"contracts/oatfinally.sol\":12533:12539  amount */\n      dup5\n      swap1\n        /* \"contracts/oatfinally.sol\":12516:12539  balance[from] -= amount */\n      tag_194\n      jump\t// in\n    tag_311:\n      swap1\n      swap2\n      sstore\n      pop\n        /* \"contracts/oatfinally.sol\":12553:12575  uint256 amountAfterFee */\n      0x00\n      swap1\n      pop\n        /* \"contracts/oatfinally.sol\":12579:12586  takeFee */\n      dup2\n        /* \"contracts/oatfinally.sol\":12578:12673  (takeFee)... */\n      tag_312\n      jumpi\n        /* \"contracts/oatfinally.sol\":12667:12673  amount */\n      dup4\n        /* \"contracts/oatfinally.sol\":12578:12673  (takeFee)... */\n      jump(tag_314)\n    tag_312:\n        /* \"contracts/oatfinally.sol\":12606:12648  takeTaxes(from, is_sell(from, to), amount) */\n      tag_314\n        /* \"contracts/oatfinally.sol\":12616:12620  from */\n      dup7\n        /* \"contracts/oatfinally.sol\":12622:12639  is_sell(from, to) */\n      tag_315\n        /* \"contracts/oatfinally.sol\":12630:12634  from */\n      dup9\n        /* \"contracts/oatfinally.sol\":12636:12638  to */\n      dup9\n        /* \"contracts/oatfinally.sol\":12622:12629  is_sell */\n      tag_302\n        /* \"contracts/oatfinally.sol\":12622:12639  is_sell(from, to) */\n      jump\t// in\n    tag_315:\n        /* \"contracts/oatfinally.sol\":12641:12647  amount */\n      dup7\n        /* \"contracts/oatfinally.sol\":12606:12615  takeTaxes */\n      tag_316\n        /* \"contracts/oatfinally.sol\":12606:12648  takeTaxes(from, is_sell(from, to), amount) */\n      jump\t// in\n    tag_314:\n      sub(shl(0xa0, 0x01), 0x01)\n        /* \"contracts/oatfinally.sol\":12687:12698  balance[to] */\n      dup7\n      and\n      0x00\n      swap1\n      dup2\n      mstore\n        /* \"contracts/oatfinally.sol\":12687:12694  balance */\n      0x04\n        /* \"contracts/oatfinally.sol\":12687:12698  balance[to] */\n      0x20\n      mstore\n      0x40\n      dup2\n      keccak256\n        /* \"contracts/oatfinally.sol\":12687:12716  balance[to] += amountAfterFee */\n      dup1\n      sload\n        /* \"contracts/oatfinally.sol\":12553:12673  uint256 amountAfterFee = (takeFee)... */\n      swap3\n      swap4\n      pop\n      dup4\n      swap3\n        /* \"contracts/oatfinally.sol\":12687:12698  balance[to] */\n      swap1\n      swap2\n      swap1\n        /* \"contracts/oatfinally.sol\":12687:12716  balance[to] += amountAfterFee */\n      tag_317\n      swap1\n        /* \"contracts/oatfinally.sol\":12553:12673  uint256 amountAfterFee = (takeFee)... */\n      dup5\n      swap1\n        /* \"contracts/oatfinally.sol\":12687:12716  balance[to] += amountAfterFee */\n      tag_297\n      jump\t// in\n    tag_317:\n      swap3\n      pop\n      pop\n      dup2\n      swap1\n      sstore\n      pop\n        /* \"contracts/oatfinally.sol\":12750:12752  to */\n      dup5\n      sub(shl(0xa0, 0x01), 0x01)\n        /* \"contracts/oatfinally.sol\":12735:12769  Transfer(from, to, amountAfterFee) */\n      and\n        /* \"contracts/oatfinally.sol\":12744:12748  from */\n      dup7\n      sub(shl(0xa0, 0x01), 0x01)\n        /* \"contracts/oatfinally.sol\":12735:12769  Transfer(from, to, amountAfterFee) */\n      and\n      0xddf252ad1be2c89b69c2b068fc378daa952ba7f163c4a11628f55a4df523b3ef\n        /* \"contracts/oatfinally.sol\":12754:12768  amountAfterFee */\n      dup4\n        /* \"contracts/oatfinally.sol\":12735:12769  Transfer(from, to, amountAfterFee) */\n      mload(0x40)\n      tag_318\n      swap2\n        /* \"#utility.yul\":160:185   */\n      dup2\n      mstore\n        /* \"#utility.yul\":148:150   */\n      0x20\n        /* \"#utility.yul\":133:151   */\n      add\n      swap1\n        /* \"#utility.yul\":14:191   */\n      jump\n        /* \"contracts/oatfinally.sol\":12735:12769  Transfer(from, to, amountAfterFee) */\n    tag_318:\n      mload(0x40)\n      dup1\n      swap2\n      sub\n      swap1\n      log3\n        /* \"contracts/oatfinally.sol\":11291:12780  {... */\n      pop\n        /* \"contracts/oatfinally.sol\":11253:12780  if (from != owner() && to != owner()) {... */\n    tag_281:\n      pop\n        /* \"contracts/oatfinally.sol\":12796:12800  true */\n      0x01\n      swap5\n        /* \"contracts/oatfinally.sol\":10872:12807  function _transfer(... */\n      swap4\n      pop\n      pop\n      pop\n      pop\n      jump\t// out\n        /* \"contracts/oatfinally.sol\":2238:2407  function _setOwner(address newOwner) private {... */\n    tag_228:\n        /* \"contracts/oatfinally.sol\":2293:2309  address oldOwner */\n      0x00\n        /* \"contracts/oatfinally.sol\":2312:2318  _owner */\n      dup1\n      sload\n      sub(shl(0xa0, 0x01), 0x01)\n        /* \"contracts/oatfinally.sol\":2328:2345  _owner = newOwner */\n      dup4\n      dup2\n      and\n      not(sub(shl(0xa0, 0x01), 0x01))\n      dup4\n      and\n      dup2\n      or\n      dup5\n      sstore\n        /* \"contracts/oatfinally.sol\":2360:2400  OwnershipTransferred(oldOwner, newOwner) */\n      mload(0x40)\n        /* \"contracts/oatfinally.sol\":2312:2318  _owner */\n      swap2\n      swap1\n      swap3\n      and\n      swap3\n      dup4\n      swap2\n        /* \"contracts/oatfinally.sol\":2360:2400  OwnershipTransferred(oldOwner, newOwner) */\n      0x8be0079c531659141344cd1fd0a4f28419497f9722a3daafe3b4186f6b6457e0\n      swap2\n        /* \"contracts/oatfinally.sol\":2293:2309  address oldOwner */\n      swap1\n        /* \"contracts/oatfinally.sol\":2360:2400  OwnershipTransferred(oldOwner, newOwner) */\n      log3\n        /* \"contracts/oatfinally.sol\":2283:2407  {... */\n      pop\n        /* \"contracts/oatfinally.sol\":2238:2407  function _setOwner(address newOwner) private {... */\n      pop\n      jump\t// out\n        /* \"contracts/oatfinally.sol\":10705:10866  function is_sell(address ins, address out) internal view returns (bool) {... */\n    tag_302:\n      sub(shl(0xa0, 0x01), 0x01)\n        /* \"contracts/oatfinally.sol\":10803:10816  isLpPair[out] */\n      dup2\n      and\n        /* \"contracts/oatfinally.sol\":10771:10775  bool */\n      0x00\n        /* \"contracts/oatfinally.sol\":10803:10816  isLpPair[out] */\n      swap1\n      dup2\n      mstore\n        /* \"contracts/oatfinally.sol\":10803:10811  isLpPair */\n      0x03\n        /* \"contracts/oatfinally.sol\":10803:10816  isLpPair[out] */\n      0x20\n      mstore\n      0x40\n      dup2\n      keccak256\n      sload\n        /* \"contracts/oatfinally.sol\":10771:10775  bool */\n      dup2\n      swap1\n        /* \"contracts/oatfinally.sol\":10803:10816  isLpPair[out] */\n      0xff\n      and\n        /* \"contracts/oatfinally.sol\":10803:10834  isLpPair[out] && !isLpPair[ins] */\n      dup1\n      iszero\n      tag_322\n      jumpi\n      pop\n      sub(shl(0xa0, 0x01), 0x01)\n        /* \"contracts/oatfinally.sol\":10821:10834  isLpPair[ins] */\n      dup5\n      and\n      0x00\n      swap1\n      dup2\n      mstore\n        /* \"contracts/oatfinally.sol\":10821:10829  isLpPair */\n      0x03\n        /* \"contracts/oatfinally.sol\":10821:10834  isLpPair[ins] */\n      0x20\n      mstore\n      0x40\n      swap1\n      keccak256\n      sload\n      0xff\n      and\n        /* \"contracts/oatfinally.sol\":10820:10834  !isLpPair[ins] */\n      iszero\n        /* \"contracts/oatfinally.sol\":10803:10834  isLpPair[out] && !isLpPair[ins] */\n    tag_322:\n        /* \"contracts/oatfinally.sol\":10787:10834  bool _is_sell = isLpPair[out] && !isLpPair[ins] */\n      swap5\n        /* \"contracts/oatfinally.sol\":10705:10866  function is_sell(address ins, address out) internal view returns (bool) {... */\n      swap4\n      pop\n      pop\n      pop\n      pop\n      jump\t// out\n        /* \"contracts/oatfinally.sol\":13389:14215  function internalSwap(uint256 contractTokenBalance) internal inSwapFlag {... */\n    tag_308:\n        /* \"contracts/oatfinally.sol\":8260:8266  inSwap */\n      0x0e\n        /* \"contracts/oatfinally.sol\":8260:8273  inSwap = true */\n      dup1\n      sload\n      not(shl(0xa0, 0xff))\n      and\n      shl(0xa0, 0x01)\n      or\n      swap1\n      sstore\n        /* \"contracts/oatfinally.sol\":13495:13511  new address[](2) */\n      0x40\n      dup1\n      mload\n        /* \"contracts/oatfinally.sol\":13509:13510  2 */\n      0x02\n        /* \"contracts/oatfinally.sol\":13495:13511  new address[](2) */\n      dup1\n      dup3\n      mstore\n      0x60\n      dup3\n      add\n      dup4\n      mstore\n      0x00\n      swap3\n      0x20\n      dup4\n      add\n      swap1\n      dup1\n      calldatasize\n      dup4\n      calldatacopy\n      add\n      swap1\n      pop\n      pop\n        /* \"contracts/oatfinally.sol\":13471:13511  address[] memory path = new address[](2) */\n      swap1\n      pop\n        /* \"contracts/oatfinally.sol\":13539:13543  this */\n      address\n        /* \"contracts/oatfinally.sol\":13521:13525  path */\n      dup2\n        /* \"contracts/oatfinally.sol\":13526:13527  0 */\n      0x00\n        /* \"contracts/oatfinally.sol\":13521:13528  path[0] */\n      dup2\n      mload\n      dup2\n      lt\n      tag_330\n      jumpi\n      tag_330\n      tag_331\n      jump\t// in\n    tag_330:\n      sub(shl(0xa0, 0x01), 0x01)\n        /* \"contracts/oatfinally.sol\":13521:13544  path[0] = address(this) */\n      swap3\n      dup4\n      and\n        /* \"contracts/oatfinally.sol\":13521:13528  path[0] */\n      0x20\n      swap2\n      dup3\n      mul\n      swap3\n      swap1\n      swap3\n      add\n      dup2\n      add\n        /* \"contracts/oatfinally.sol\":13521:13544  path[0] = address(this) */\n      swap2\n      swap1\n      swap2\n      mstore\n        /* \"contracts/oatfinally.sol\":13564:13574  swapRouter */\n      sload(0x0d)\n        /* \"contracts/oatfinally.sol\":13564:13581  swapRouter.WETH() */\n      0x40\n      dup1\n      mload\n      shl(0xe3, 0x15ab88c9)\n      dup2\n      mstore\n      swap1\n      mload\n        /* \"contracts/oatfinally.sol\":13564:13574  swapRouter */\n      swap2\n      swap1\n      swap4\n      and\n      swap3\n        /* \"contracts/oatfinally.sol\":13564:13579  swapRouter.WETH */\n      0xad5c4648\n      swap3\n        /* \"contracts/oatfinally.sol\":13564:13581  swapRouter.WETH() */\n      0x04\n      dup1\n      dup4\n      add\n      swap4\n        /* \"contracts/oatfinally.sol\":13521:13528  path[0] */\n      swap2\n      swap3\n        /* \"contracts/oatfinally.sol\":13564:13581  swapRouter.WETH() */\n      dup3\n      swap1\n      sub\n      add\n      dup2\n        /* \"contracts/oatfinally.sol\":13564:13574  swapRouter */\n      dup7\n        /* \"contracts/oatfinally.sol\":13564:13581  swapRouter.WETH() */\n      gas\n      staticcall\n      iszero\n      dup1\n      iszero\n      tag_333\n      jumpi\n      returndatasize\n      0x00\n      dup1\n      returndatacopy\n      revert(0x00, returndatasize)\n    tag_333:\n      pop\n      pop\n      pop\n      pop\n      mload(0x40)\n      returndatasize\n      not(0x1f)\n      0x1f\n      dup3\n      add\n      and\n      dup3\n      add\n      dup1\n      0x40\n      mstore\n      pop\n      dup2\n      add\n      swap1\n      tag_334\n      swap2\n      swap1\n      tag_335\n      jump\t// in\n    tag_334:\n        /* \"contracts/oatfinally.sol\":13554:13558  path */\n      dup2\n        /* \"contracts/oatfinally.sol\":13559:13560  1 */\n      0x01\n        /* \"contracts/oatfinally.sol\":13554:13561  path[1] */\n      dup2\n      mload\n      dup2\n      lt\n      tag_337\n      jumpi\n      tag_337\n      tag_331\n      jump\t// in\n    tag_337:\n      sub(shl(0xa0, 0x01), 0x01)\n        /* \"contracts/oatfinally.sol\":13554:13581  path[1] = swapRouter.WETH() */\n      swap3\n      dup4\n      and\n        /* \"contracts/oatfinally.sol\":13554:13561  path[1] */\n      0x20\n      swap2\n      dup3\n      mul\n      swap3\n      swap1\n      swap3\n      add\n      dup2\n      add\n        /* \"contracts/oatfinally.sol\":13554:13581  path[1] = swapRouter.WETH() */\n      swap2\n      swap1\n      swap2\n      mstore\n        /* \"contracts/oatfinally.sol\":13629:13633  this */\n      address\n        /* \"contracts/oatfinally.sol\":13609:13635  _allowances[address(this)] */\n      0x00\n      swap1\n      dup2\n      mstore\n        /* \"contracts/oatfinally.sol\":13609:13620  _allowances */\n      0x01\n        /* \"contracts/oatfinally.sol\":13609:13635  _allowances[address(this)] */\n      dup3\n      mstore\n      0x40\n      dup1\n      dup3\n      keccak256\n        /* \"contracts/oatfinally.sol\":13644:13654  swapRouter */\n      sload(0x0d)\n      swap1\n      swap5\n      and\n        /* \"contracts/oatfinally.sol\":13609:13656  _allowances[address(this)][address(swapRouter)] */\n      dup3\n      mstore\n      swap3\n      swap1\n      swap2\n      mstore\n      keccak256\n      sload\n      not(0x00)\n        /* \"contracts/oatfinally.sol\":13609:13677  _allowances[address(this)][address(swapRouter)] != type(uint256).max */\n      eq\n        /* \"contracts/oatfinally.sol\":13592:13780  if (... */\n      tag_338\n      jumpi\n        /* \"contracts/oatfinally.sol\":13722:13726  this */\n      address\n        /* \"contracts/oatfinally.sol\":13702:13728  _allowances[address(this)] */\n      0x00\n      swap1\n      dup2\n      mstore\n        /* \"contracts/oatfinally.sol\":13702:13713  _allowances */\n      0x01\n        /* \"contracts/oatfinally.sol\":13702:13728  _allowances[address(this)] */\n      0x20\n      swap1\n      dup2\n      mstore\n      0x40\n      dup1\n      dup4\n      keccak256\n        /* \"contracts/oatfinally.sol\":13737:13747  swapRouter */\n      and(sub(shl(0xa0, 0x01), 0x01), sload(0x0d))\n        /* \"contracts/oatfinally.sol\":13702:13749  _allowances[address(this)][address(swapRouter)] */\n      dup5\n      mstore\n      swap1\n      swap2\n      mstore\n      swap1\n      keccak256\n      not(0x00)\n        /* \"contracts/oatfinally.sol\":13702:13769  _allowances[address(this)][address(swapRouter)] = type(uint256).max */\n      swap1\n      sstore\n        /* \"contracts/oatfinally.sol\":13592:13780  if (... */\n    tag_338:\n        /* \"contracts/oatfinally.sol\":13806:13816  swapRouter */\n      sload(0x0d)\n        /* \"contracts/oatfinally.sol\":13806:14024  swapRouter.swapExactTokensForETHSupportingFeeOnTransferTokens(... */\n      mload(0x40)\n      shl(0xe0, 0x791ac947)\n      dup2\n      mstore\n      sub(shl(0xa0, 0x01), 0x01)\n        /* \"contracts/oatfinally.sol\":13806:13816  swapRouter */\n      swap1\n      swap2\n      and\n      swap1\n        /* \"contracts/oatfinally.sol\":13806:13867  swapRouter.swapExactTokensForETHSupportingFeeOnTransferTokens */\n      0x791ac947\n      swap1\n        /* \"contracts/oatfinally.sol\":13806:14024  swapRouter.swapExactTokensForETHSupportingFeeOnTransferTokens(... */\n      tag_339\n      swap1\n        /* \"contracts/oatfinally.sol\":13885:13905  contractTokenBalance */\n      dup6\n      swap1\n        /* \"contracts/oatfinally.sol\":13806:13816  swapRouter */\n      0x00\n      swap1\n        /* \"contracts/oatfinally.sol\":13942:13946  path */\n      dup7\n      swap1\n        /* \"contracts/oatfinally.sol\":13972:13976  this */\n      address\n      swap1\n        /* \"contracts/oatfinally.sol\":13995:14010  block.timestamp */\n      timestamp\n      swap1\n        /* \"contracts/oatfinally.sol\":13806:14024  swapRouter.swapExactTokensForETHSupportingFeeOnTransferTokens(... */\n      0x04\n      add\n      tag_340\n      jump\t// in\n    tag_339:\n      0x00\n      mload(0x40)\n      dup1\n      dup4\n      sub\n      dup2\n      0x00\n      dup8\n      dup1\n      extcodesize\n      iszero\n      dup1\n      iszero\n      tag_341\n      jumpi\n      0x00\n      dup1\n      revert\n    tag_341:\n      pop\n      gas\n      call\n      swap3\n      pop\n      pop\n      pop\n      dup1\n      iszero\n      tag_342\n      jumpi\n      pop\n      0x01\n    tag_342:\n        /* \"contracts/oatfinally.sol\":13790:14073  try... */\n      tag_343\n      jumpi\n        /* \"contracts/oatfinally.sol\":14056:14063  return; */\n      pop\n      jump(tag_324)\n        /* \"contracts/oatfinally.sol\":13790:14073  try... */\n    tag_343:\n        /* \"contracts/oatfinally.sol\":14082:14094  bool success */\n      0x00\n        /* \"contracts/oatfinally.sol\":14109:14130  address(this).balance */\n      selfbalance\n        /* \"contracts/oatfinally.sol\":14109:14134  address(this).balance > 0 */\n      iszero\n        /* \"contracts/oatfinally.sol\":14105:14208  if (address(this).balance > 0)... */\n      tag_348\n      jumpi\n        /* \"contracts/oatfinally.sol\":14162:14169  _oatFee */\n      sload(0x0c)\n        /* \"contracts/oatfinally.sol\":14162:14208  _oatFee.call{value: address(this).balance}(\"\") */\n      mload(0x40)\n      sub(shl(0xa0, 0x01), 0x01)\n        /* \"contracts/oatfinally.sol\":14162:14169  _oatFee */\n      swap1\n      swap2\n      and\n      swap1\n        /* \"contracts/oatfinally.sol\":14182:14203  address(this).balance */\n      selfbalance\n      swap1\n        /* \"contracts/oatfinally.sol\":14162:14208  _oatFee.call{value: address(this).balance}(\"\") */\n      0x00\n      dup2\n      dup2\n      dup2\n        /* \"contracts/oatfinally.sol\":14182:14203  address(this).balance */\n      dup6\n        /* \"contracts/oatfinally.sol\":14162:14169  _oatFee */\n      dup8\n        /* \"contracts/oatfinally.sol\":14162:14208  _oatFee.call{value: address(this).balance}(\"\") */\n      gas\n      call\n      swap3\n      pop\n      pop\n      pop\n      returndatasize\n      dup1\n      0x00\n      dup2\n      eq\n      tag_353\n      jumpi\n      mload(0x40)\n      swap2\n      pop\n      and(add(returndatasize, 0x3f), not(0x1f))\n      dup3\n      add\n      0x40\n      mstore\n      returndatasize\n      dup3\n      mstore\n      returndatasize\n      0x00\n      0x20\n      dup5\n      add\n      returndatacopy\n      jump(tag_352)\n    tag_353:\n      0x60\n      swap2\n      pop\n    tag_352:\n      pop\n        /* \"contracts/oatfinally.sol\":14148:14208  (success, ) = _oatFee.call{value: address(this).balance}(\"\") */\n      swap1\n      swap2\n      pop\n      pop\n        /* \"contracts/oatfinally.sol\":14105:14208  if (address(this).balance > 0)... */\n    tag_348:\n        /* \"contracts/oatfinally.sol\":13461:14215  {... */\n      pop\n      pop\n        /* \"contracts/oatfinally.sol\":8283:8284  _ */\n    tag_324:\n      pop\n        /* \"contracts/oatfinally.sol\":8294:8300  inSwap */\n      0x0e\n        /* \"contracts/oatfinally.sol\":8294:8308  inSwap = false */\n      dup1\n      sload\n      not(shl(0xa0, 0xff))\n      and\n      swap1\n      sstore\n        /* \"contracts/oatfinally.sol\":13389:14215  function internalSwap(uint256 contractTokenBalance) internal inSwapFlag {... */\n      jump\t// out\n        /* \"contracts/oatfinally.sol\":12813:13383  function takeTaxes(... */\n    tag_316:\n        /* \"contracts/oatfinally.sol\":12923:12930  uint256 */\n      0x00\n      dup1\n        /* \"contracts/oatfinally.sol\":12971:12977  issell */\n      dup4\n        /* \"contracts/oatfinally.sol\":12971:12994  issell && _jareDs[from] */\n      dup1\n      iszero\n      tag_355\n      jumpi\n      pop\n      sub(shl(0xa0, 0x01), 0x01)\n        /* \"contracts/oatfinally.sol\":12981:12994  _jareDs[from] */\n      dup6\n      and\n      0x00\n      swap1\n      dup2\n      mstore\n        /* \"contracts/oatfinally.sol\":12981:12988  _jareDs */\n      0x06\n        /* \"contracts/oatfinally.sol\":12981:12994  _jareDs[from] */\n      0x20\n      mstore\n      0x40\n      swap1\n      keccak256\n      sload\n      0xff\n      and\n        /* \"contracts/oatfinally.sol\":12971:12994  issell && _jareDs[from] */\n    tag_355:\n        /* \"contracts/oatfinally.sol\":12967:13095  if (issell && _jareDs[from]) {... */\n      iszero\n      tag_356\n      jumpi\n      pop\n        /* \"contracts/oatfinally.sol\":13016:13028  jaredsellfee */\n      sload(0x09)\n        /* \"contracts/oatfinally.sol\":12967:13095  if (issell && _jareDs[from]) {... */\n      jump(tag_358)\n    tag_356:\n        /* \"contracts/oatfinally.sol\":13049:13055  issell */\n      dup4\n        /* \"contracts/oatfinally.sol\":13045:13095  if (issell) {... */\n      iszero\n      tag_358\n      jumpi\n      pop\n        /* \"contracts/oatfinally.sol\":7586:7587  2 */\n      0x02\n        /* \"contracts/oatfinally.sol\":13045:13095  if (issell) {... */\n    tag_358:\n        /* \"contracts/oatfinally.sol\":13108:13111  fee */\n      dup1\n        /* \"contracts/oatfinally.sol\":13115:13116  0 */\n      0x00\n        /* \"contracts/oatfinally.sol\":13108:13116  fee == 0 */\n      sub\n        /* \"contracts/oatfinally.sol\":13104:13131  if (fee == 0) return amount */\n      tag_359\n      jumpi\n        /* \"contracts/oatfinally.sol\":13125:13131  amount */\n      dup3\n        /* \"contracts/oatfinally.sol\":13118:13131  return amount */\n      swap2\n      pop\n      pop\n      jump(tag_191)\n        /* \"contracts/oatfinally.sol\":13104:13131  if (fee == 0) return amount */\n    tag_359:\n        /* \"contracts/oatfinally.sol\":13142:13159  uint256 feeAmount */\n      0x00\n        /* \"contracts/oatfinally.sol\":7676:7679  100 */\n      0x64\n        /* \"contracts/oatfinally.sol\":13163:13175  amount * fee */\n      tag_360\n        /* \"contracts/oatfinally.sol\":13172:13175  fee */\n      dup4\n        /* \"contracts/oatfinally.sol\":13163:13169  amount */\n      dup7\n        /* \"contracts/oatfinally.sol\":13163:13175  amount * fee */\n      tag_361\n      jump\t// in\n    tag_360:\n        /* \"contracts/oatfinally.sol\":13162:13194  (amount * fee) / fee_denominator */\n      tag_362\n      swap2\n      swap1\n      tag_363\n      jump\t// in\n    tag_362:\n        /* \"contracts/oatfinally.sol\":13142:13194  uint256 feeAmount = (amount * fee) / fee_denominator */\n      swap1\n      pop\n        /* \"contracts/oatfinally.sol\":13208:13221  feeAmount > 0 */\n      dup1\n      iszero\n        /* \"contracts/oatfinally.sol\":13204:13342  if (feeAmount > 0) {... */\n      tag_364\n      jumpi\n        /* \"contracts/oatfinally.sol\":13253:13257  this */\n      address\n        /* \"contracts/oatfinally.sol\":13237:13259  balance[address(this)] */\n      0x00\n      swap1\n      dup2\n      mstore\n        /* \"contracts/oatfinally.sol\":13237:13244  balance */\n      0x04\n        /* \"contracts/oatfinally.sol\":13237:13259  balance[address(this)] */\n      0x20\n      mstore\n      0x40\n      dup2\n      keccak256\n        /* \"contracts/oatfinally.sol\":13237:13272  balance[address(this)] += feeAmount */\n      dup1\n      sload\n        /* \"contracts/oatfinally.sol\":13263:13272  feeAmount */\n      dup4\n      swap3\n        /* \"contracts/oatfinally.sol\":13237:13259  balance[address(this)] */\n      swap1\n        /* \"contracts/oatfinally.sol\":13237:13272  balance[address(this)] += feeAmount */\n      tag_365\n      swap1\n        /* \"contracts/oatfinally.sol\":13263:13272  feeAmount */\n      dup5\n      swap1\n        /* \"contracts/oatfinally.sol\":13237:13272  balance[address(this)] += feeAmount */\n      tag_297\n      jump\t// in\n    tag_365:\n      swap1\n      swap2\n      sstore\n      pop\n      pop\n        /* \"contracts/oatfinally.sol\":13291:13331  Transfer(from, address(this), feeAmount) */\n      mload(0x40)\n        /* \"#utility.yul\":160:185   */\n      dup2\n      dup2\n      mstore\n        /* \"contracts/oatfinally.sol\":13314:13318  this */\n      address\n      swap1\n      sub(shl(0xa0, 0x01), 0x01)\n        /* \"contracts/oatfinally.sol\":13291:13331  Transfer(from, address(this), feeAmount) */\n      dup9\n      and\n      swap1\n      0xddf252ad1be2c89b69c2b068fc378daa952ba7f163c4a11628f55a4df523b3ef\n      swap1\n        /* \"#utility.yul\":148:150   */\n      0x20\n        /* \"#utility.yul\":133:151   */\n      add\n        /* \"contracts/oatfinally.sol\":13291:13331  Transfer(from, address(this), feeAmount) */\n      mload(0x40)\n      dup1\n      swap2\n      sub\n      swap1\n      log3\n        /* \"contracts/oatfinally.sol\":13204:13342  if (feeAmount > 0) {... */\n    tag_364:\n        /* \"contracts/oatfinally.sol\":13358:13376  amount - feeAmount */\n      tag_367\n        /* \"contracts/oatfinally.sol\":13367:13376  feeAmount */\n      dup2\n        /* \"contracts/oatfinally.sol\":13358:13364  amount */\n      dup6\n        /* \"contracts/oatfinally.sol\":13358:13376  amount - feeAmount */\n      tag_194\n      jump\t// in\n    tag_367:\n        /* \"contracts/oatfinally.sol\":13351:13376  return amount - feeAmount */\n      swap7\n        /* \"contracts/oatfinally.sol\":12813:13383  function takeTaxes(... */\n      swap6\n      pop\n      pop\n      pop\n      pop\n      pop\n      pop\n      jump\t// out\n        /* \"#utility.yul\":196:744   */\n    tag_52:\n        /* \"#utility.yul\":308:312   */\n      0x00\n        /* \"#utility.yul\":337:339   */\n      0x20\n        /* \"#utility.yul\":366:368   */\n      dup1\n        /* \"#utility.yul\":355:364   */\n      dup4\n        /* \"#utility.yul\":348:369   */\n      mstore\n        /* \"#utility.yul\":398:404   */\n      dup4\n        /* \"#utility.yul\":392:405   */\n      mload\n        /* \"#utility.yul\":441:447   */\n      dup1\n        /* \"#utility.yul\":436:438   */\n      dup3\n        /* \"#utility.yul\":425:434   */\n      dup6\n        /* \"#utility.yul\":421:439   */\n      add\n        /* \"#utility.yul\":414:448   */\n      mstore\n        /* \"#utility.yul\":466:467   */\n      0x00\n        /* \"#utility.yul\":476:616   */\n    tag_373:\n        /* \"#utility.yul\":490:496   */\n      dup2\n        /* \"#utility.yul\":487:488   */\n      dup2\n        /* \"#utility.yul\":484:497   */\n      lt\n        /* \"#utility.yul\":476:616   */\n      iszero\n      tag_375\n      jumpi\n        /* \"#utility.yul\":585:599   */\n      dup6\n      dup2\n      add\n        /* \"#utility.yul\":581:604   */\n      dup4\n      add\n        /* \"#utility.yul\":575:605   */\n      mload\n        /* \"#utility.yul\":551:568   */\n      dup6\n      dup3\n      add\n        /* \"#utility.yul\":570:572   */\n      0x40\n        /* \"#utility.yul\":547:573   */\n      add\n        /* \"#utility.yul\":540:606   */\n      mstore\n        /* \"#utility.yul\":505:515   */\n      dup3\n      add\n        /* \"#utility.yul\":476:616   */\n      jump(tag_373)\n    tag_375:\n        /* \"#utility.yul\":480:483   */\n      pop\n        /* \"#utility.yul\":665:666   */\n      0x00\n        /* \"#utility.yul\":660:662   */\n      0x40\n        /* \"#utility.yul\":651:657   */\n      dup3\n        /* \"#utility.yul\":640:649   */\n      dup7\n        /* \"#utility.yul\":636:658   */\n      add\n        /* \"#utility.yul\":632:663   */\n      add\n        /* \"#utility.yul\":625:667   */\n      mstore\n        /* \"#utility.yul\":735:737   */\n      0x40\n        /* \"#utility.yul\":728:730   */\n      0x1f\n        /* \"#utility.yul\":724:731   */\n      not\n        /* \"#utility.yul\":719:721   */\n      0x1f\n        /* \"#utility.yul\":711:717   */\n      dup4\n        /* \"#utility.yul\":707:722   */\n      add\n        /* \"#utility.yul\":703:732   */\n      and\n        /* \"#utility.yul\":692:701   */\n      dup6\n        /* \"#utility.yul\":688:733   */\n      add\n        /* \"#utility.yul\":684:738   */\n      add\n        /* \"#utility.yul\":676:738   */\n      swap3\n      pop\n      pop\n      pop\n        /* \"#utility.yul\":196:744   */\n      swap3\n      swap2\n      pop\n      pop\n      jump\t// out\n        /* \"#utility.yul\":749:880   */\n    tag_368:\n      sub(shl(0xa0, 0x01), 0x01)\n        /* \"#utility.yul\":824:855   */\n      dup2\n      and\n        /* \"#utility.yul\":814:856   */\n      dup2\n      eq\n        /* \"#utility.yul\":804:874   */\n      tag_261\n      jumpi\n        /* \"#utility.yul\":870:871   */\n      0x00\n        /* \"#utility.yul\":867:868   */\n      dup1\n        /* \"#utility.yul\":860:872   */\n      revert\n        /* \"#utility.yul\":885:1200   */\n    tag_56:\n        /* \"#utility.yul\":953:959   */\n      0x00\n        /* \"#utility.yul\":961:967   */\n      dup1\n        /* \"#utility.yul\":1014:1016   */\n      0x40\n        /* \"#utility.yul\":1002:1011   */\n      dup4\n        /* \"#utility.yul\":993:1000   */\n      dup6\n        /* \"#utility.yul\":989:1012   */\n      sub\n        /* \"#utility.yul\":985:1017   */\n      slt\n        /* \"#utility.yul\":982:1034   */\n      iszero\n      tag_379\n      jumpi\n        /* \"#utility.yul\":1030:1031   */\n      0x00\n        /* \"#utility.yul\":1027:1028   */\n      dup1\n        /* \"#utility.yul\":1020:1032   */\n      revert\n        /* \"#utility.yul\":982:1034   */\n    tag_379:\n        /* \"#utility.yul\":1069:1078   */\n      dup3\n        /* \"#utility.yul\":1056:1079   */\n      calldataload\n        /* \"#utility.yul\":1088:1119   */\n      tag_380\n        /* \"#utility.yul\":1113:1118   */\n      dup2\n        /* \"#utility.yul\":1088:1119   */\n      tag_368\n      jump\t// in\n    tag_380:\n        /* \"#utility.yul\":1138:1143   */\n      swap5\n        /* \"#utility.yul\":1190:1192   */\n      0x20\n        /* \"#utility.yul\":1175:1193   */\n      swap4\n      swap1\n      swap4\n      add\n        /* \"#utility.yul\":1162:1194   */\n      calldataload\n      swap4\n      pop\n      pop\n      pop\n        /* \"#utility.yul\":885:1200   */\n      jump\t// out\n        /* \"#utility.yul\":1397:1853   */\n    tag_67:\n        /* \"#utility.yul\":1474:1480   */\n      0x00\n        /* \"#utility.yul\":1482:1488   */\n      dup1\n        /* \"#utility.yul\":1490:1496   */\n      0x00\n        /* \"#utility.yul\":1543:1545   */\n      0x60\n        /* \"#utility.yul\":1531:1540   */\n      dup5\n        /* \"#utility.yul\":1522:1529   */\n      dup7\n        /* \"#utility.yul\":1518:1541   */\n      sub\n        /* \"#utility.yul\":1514:1546   */\n      slt\n        /* \"#utility.yul\":1511:1563   */\n      iszero\n      tag_383\n      jumpi\n        /* \"#utility.yul\":1559:1560   */\n      0x00\n        /* \"#utility.yul\":1556:1557   */\n      dup1\n        /* \"#utility.yul\":1549:1561   */\n      revert\n        /* \"#utility.yul\":1511:1563   */\n    tag_383:\n        /* \"#utility.yul\":1598:1607   */\n      dup4\n        /* \"#utility.yul\":1585:1608   */\n      calldataload\n        /* \"#utility.yul\":1617:1648   */\n      tag_384\n        /* \"#utility.yul\":1642:1647   */\n      dup2\n        /* \"#utility.yul\":1617:1648   */\n      tag_368\n      jump\t// in\n    tag_384:\n        /* \"#utility.yul\":1667:1672   */\n      swap3\n      pop\n        /* \"#utility.yul\":1724:1726   */\n      0x20\n        /* \"#utility.yul\":1709:1727   */\n      dup5\n      add\n        /* \"#utility.yul\":1696:1728   */\n      calldataload\n        /* \"#utility.yul\":1737:1770   */\n      tag_385\n        /* \"#utility.yul\":1696:1728   */\n      dup2\n        /* \"#utility.yul\":1737:1770   */\n      tag_368\n      jump\t// in\n    tag_385:\n        /* \"#utility.yul\":1397:1853   */\n      swap3\n      swap6\n        /* \"#utility.yul\":1789:1796   */\n      swap3\n      swap5\n      pop\n      pop\n      pop\n        /* \"#utility.yul\":1843:1845   */\n      0x40\n        /* \"#utility.yul\":1828:1846   */\n      swap2\n      swap1\n      swap2\n      add\n        /* \"#utility.yul\":1815:1847   */\n      calldataload\n      swap1\n        /* \"#utility.yul\":1397:1853   */\n      jump\t// out\n        /* \"#utility.yul\":1858:2105   */\n    tag_73:\n        /* \"#utility.yul\":1917:1923   */\n      0x00\n        /* \"#utility.yul\":1970:1972   */\n      0x20\n        /* \"#utility.yul\":1958:1967   */\n      dup3\n        /* \"#utility.yul\":1949:1956   */\n      dup5\n        /* \"#utility.yul\":1945:1968   */\n      sub\n        /* \"#utility.yul\":1941:1973   */\n      slt\n        /* \"#utility.yul\":1938:1990   */\n      iszero\n      tag_387\n      jumpi\n        /* \"#utility.yul\":1986:1987   */\n      0x00\n        /* \"#utility.yul\":1983:1984   */\n      dup1\n        /* \"#utility.yul\":1976:1988   */\n      revert\n        /* \"#utility.yul\":1938:1990   */\n    tag_387:\n        /* \"#utility.yul\":2025:2034   */\n      dup2\n        /* \"#utility.yul\":2012:2035   */\n      calldataload\n        /* \"#utility.yul\":2044:2075   */\n      tag_191\n        /* \"#utility.yul\":2069:2074   */\n      dup2\n        /* \"#utility.yul\":2044:2075   */\n      tag_368\n      jump\t// in\n        /* \"#utility.yul\":2110:2290   */\n    tag_79:\n        /* \"#utility.yul\":2169:2175   */\n      0x00\n        /* \"#utility.yul\":2222:2224   */\n      0x20\n        /* \"#utility.yul\":2210:2219   */\n      dup3\n        /* \"#utility.yul\":2201:2208   */\n      dup5\n        /* \"#utility.yul\":2197:2220   */\n      sub\n        /* \"#utility.yul\":2193:2225   */\n      slt\n        /* \"#utility.yul\":2190:2242   */\n      iszero\n      tag_390\n      jumpi\n        /* \"#utility.yul\":2238:2239   */\n      0x00\n        /* \"#utility.yul\":2235:2236   */\n      dup1\n        /* \"#utility.yul\":2228:2240   */\n      revert\n        /* \"#utility.yul\":2190:2242   */\n    tag_390:\n      pop\n        /* \"#utility.yul\":2261:2284   */\n      calldataload\n      swap2\n        /* \"#utility.yul\":2110:2290   */\n      swap1\n      pop\n      jump\t// out\n        /* \"#utility.yul\":2917:3305   */\n    tag_174:\n        /* \"#utility.yul\":2985:2991   */\n      0x00\n        /* \"#utility.yul\":2993:2999   */\n      dup1\n        /* \"#utility.yul\":3046:3048   */\n      0x40\n        /* \"#utility.yul\":3034:3043   */\n      dup4\n        /* \"#utility.yul\":3025:3032   */\n      dup6\n        /* \"#utility.yul\":3021:3044   */\n      sub\n        /* \"#utility.yul\":3017:3049   */\n      slt\n        /* \"#utility.yul\":3014:3066   */\n      iszero\n      tag_395\n      jumpi\n        /* \"#utility.yul\":3062:3063   */\n      0x00\n        /* \"#utility.yul\":3059:3060   */\n      dup1\n        /* \"#utility.yul\":3052:3064   */\n      revert\n        /* \"#utility.yul\":3014:3066   */\n    tag_395:\n        /* \"#utility.yul\":3101:3110   */\n      dup3\n        /* \"#utility.yul\":3088:3111   */\n      calldataload\n        /* \"#utility.yul\":3120:3151   */\n      tag_396\n        /* \"#utility.yul\":3145:3150   */\n      dup2\n        /* \"#utility.yul\":3120:3151   */\n      tag_368\n      jump\t// in\n    tag_396:\n        /* \"#utility.yul\":3170:3175   */\n      swap2\n      pop\n        /* \"#utility.yul\":3227:3229   */\n      0x20\n        /* \"#utility.yul\":3212:3230   */\n      dup4\n      add\n        /* \"#utility.yul\":3199:3231   */\n      calldataload\n        /* \"#utility.yul\":3240:3273   */\n      tag_397\n        /* \"#utility.yul\":3199:3231   */\n      dup2\n        /* \"#utility.yul\":3240:3273   */\n      tag_368\n      jump\t// in\n    tag_397:\n        /* \"#utility.yul\":3292:3299   */\n      dup1\n        /* \"#utility.yul\":3282:3299   */\n      swap2\n      pop\n      pop\n        /* \"#utility.yul\":2917:3305   */\n      swap3\n      pop\n      swap3\n      swap1\n      pop\n      jump\t// out\n        /* \"#utility.yul\":3310:3437   */\n    tag_369:\n        /* \"#utility.yul\":3371:3381   */\n      0x4e487b71\n        /* \"#utility.yul\":3366:3369   */\n      0xe0\n        /* \"#utility.yul\":3362:3382   */\n      shl\n        /* \"#utility.yul\":3359:3360   */\n      0x00\n        /* \"#utility.yul\":3352:3383   */\n      mstore\n        /* \"#utility.yul\":3402:3406   */\n      0x11\n        /* \"#utility.yul\":3399:3400   */\n      0x04\n        /* \"#utility.yul\":3392:3407   */\n      mstore\n        /* \"#utility.yul\":3426:3430   */\n      0x24\n        /* \"#utility.yul\":3423:3424   */\n      0x00\n        /* \"#utility.yul\":3416:3431   */\n      revert\n        /* \"#utility.yul\":3442:3570   */\n    tag_194:\n        /* \"#utility.yul\":3509:3518   */\n      dup2\n      dup2\n      sub\n        /* \"#utility.yul\":3530:3541   */\n      dup2\n      dup2\n      gt\n        /* \"#utility.yul\":3527:3564   */\n      iszero\n      tag_186\n      jumpi\n        /* \"#utility.yul\":3544:3562   */\n      tag_186\n      tag_369\n      jump\t// in\n        /* \"#utility.yul\":4339:4740   */\n    tag_210:\n        /* \"#utility.yul\":4541:4543   */\n      0x20\n        /* \"#utility.yul\":4523:4544   */\n      dup1\n      dup3\n      mstore\n        /* \"#utility.yul\":4580:4582   */\n      0x25\n        /* \"#utility.yul\":4560:4578   */\n      swap1\n      dup3\n      add\n        /* \"#utility.yul\":4553:4583   */\n      mstore\n        /* \"#utility.yul\":4619:4653   */\n      0x43616c6c6572206973206e6f742074686520617574686f726973656420616464\n        /* \"#utility.yul\":4614:4616   */\n      0x40\n        /* \"#utility.yul\":4599:4617   */\n      dup3\n      add\n        /* \"#utility.yul\":4592:4654   */\n      mstore\n      shl(0xd8, 0x7265737321)\n        /* \"#utility.yul\":4685:4687   */\n      0x60\n        /* \"#utility.yul\":4670:4688   */\n      dup3\n      add\n        /* \"#utility.yul\":4663:4698   */\n      mstore\n        /* \"#utility.yul\":4730:4733   */\n      0x80\n        /* \"#utility.yul\":4715:4734   */\n      add\n      swap1\n        /* \"#utility.yul\":4339:4740   */\n      jump\t// out\n        /* \"#utility.yul\":8534:8659   */\n    tag_297:\n        /* \"#utility.yul\":8599:8608   */\n      dup1\n      dup3\n      add\n        /* \"#utility.yul\":8620:8630   */\n      dup1\n      dup3\n      gt\n        /* \"#utility.yul\":8617:8653   */\n      iszero\n      tag_186\n      jumpi\n        /* \"#utility.yul\":8633:8651   */\n      tag_186\n      tag_369\n      jump\t// in\n        /* \"#utility.yul\":9151:9278   */\n    tag_331:\n        /* \"#utility.yul\":9212:9222   */\n      0x4e487b71\n        /* \"#utility.yul\":9207:9210   */\n      0xe0\n        /* \"#utility.yul\":9203:9223   */\n      shl\n        /* \"#utility.yul\":9200:9201   */\n      0x00\n        /* \"#utility.yul\":9193:9224   */\n      mstore\n        /* \"#utility.yul\":9243:9247   */\n      0x32\n        /* \"#utility.yul\":9240:9241   */\n      0x04\n        /* \"#utility.yul\":9233:9248   */\n      mstore\n        /* \"#utility.yul\":9267:9271   */\n      0x24\n        /* \"#utility.yul\":9264:9265   */\n      0x00\n        /* \"#utility.yul\":9257:9272   */\n      revert\n        /* \"#utility.yul\":9283:9534   */\n    tag_335:\n        /* \"#utility.yul\":9353:9359   */\n      0x00\n        /* \"#utility.yul\":9406:9408   */\n      0x20\n        /* \"#utility.yul\":9394:9403   */\n      dup3\n        /* \"#utility.yul\":9385:9392   */\n      dup5\n        /* \"#utility.yul\":9381:9404   */\n      sub\n        /* \"#utility.yul\":9377:9409   */\n      slt\n        /* \"#utility.yul\":9374:9426   */\n      iszero\n      tag_422\n      jumpi\n        /* \"#utility.yul\":9422:9423   */\n      0x00\n        /* \"#utility.yul\":9419:9420   */\n      dup1\n        /* \"#utility.yul\":9412:9424   */\n      revert\n        /* \"#utility.yul\":9374:9426   */\n    tag_422:\n        /* \"#utility.yul\":9454:9463   */\n      dup2\n        /* \"#utility.yul\":9448:9464   */\n      mload\n        /* \"#utility.yul\":9473:9504   */\n      tag_191\n        /* \"#utility.yul\":9498:9503   */\n      dup2\n        /* \"#utility.yul\":9473:9504   */\n      tag_368\n      jump\t// in\n        /* \"#utility.yul\":9539:10519   */\n    tag_340:\n        /* \"#utility.yul\":9801:9805   */\n      0x00\n        /* \"#utility.yul\":9849:9852   */\n      0xa0\n        /* \"#utility.yul\":9838:9847   */\n      dup3\n        /* \"#utility.yul\":9834:9853   */\n      add\n        /* \"#utility.yul\":9880:9886   */\n      dup8\n        /* \"#utility.yul\":9869:9878   */\n      dup4\n        /* \"#utility.yul\":9862:9887   */\n      mstore\n        /* \"#utility.yul\":9906:9908   */\n      0x20\n        /* \"#utility.yul\":9944:9950   */\n      dup8\n        /* \"#utility.yul\":9939:9941   */\n      dup2\n        /* \"#utility.yul\":9928:9937   */\n      dup6\n        /* \"#utility.yul\":9924:9942   */\n      add\n        /* \"#utility.yul\":9917:9951   */\n      mstore\n        /* \"#utility.yul\":9987:9990   */\n      0xa0\n        /* \"#utility.yul\":9982:9984   */\n      0x40\n        /* \"#utility.yul\":9971:9980   */\n      dup6\n        /* \"#utility.yul\":9967:9985   */\n      add\n        /* \"#utility.yul\":9960:9991   */\n      mstore\n        /* \"#utility.yul\":10011:10017   */\n      dup2\n        /* \"#utility.yul\":10046:10052   */\n      dup8\n        /* \"#utility.yul\":10040:10053   */\n      mload\n        /* \"#utility.yul\":10077:10083   */\n      dup1\n        /* \"#utility.yul\":10069:10075   */\n      dup5\n        /* \"#utility.yul\":10062:10084   */\n      mstore\n        /* \"#utility.yul\":10115:10118   */\n      0xc0\n        /* \"#utility.yul\":10104:10113   */\n      dup7\n        /* \"#utility.yul\":10100:10119   */\n      add\n        /* \"#utility.yul\":10093:10119   */\n      swap2\n      pop\n        /* \"#utility.yul\":10154:10156   */\n      dup3\n        /* \"#utility.yul\":10146:10152   */\n      dup10\n        /* \"#utility.yul\":10142:10157   */\n      add\n        /* \"#utility.yul\":10128:10157   */\n      swap4\n      pop\n        /* \"#utility.yul\":10175:10176   */\n      0x00\n        /* \"#utility.yul\":10185:10380   */\n    tag_425:\n        /* \"#utility.yul\":10199:10205   */\n      dup2\n        /* \"#utility.yul\":10196:10197   */\n      dup2\n        /* \"#utility.yul\":10193:10206   */\n      lt\n        /* \"#utility.yul\":10185:10380   */\n      iszero\n      tag_427\n      jumpi\n        /* \"#utility.yul\":10264:10277   */\n      dup5\n      mload\n      sub(shl(0xa0, 0x01), 0x01)\n        /* \"#utility.yul\":10260:10299   */\n      and\n        /* \"#utility.yul\":10248:10300   */\n      dup4\n      mstore\n        /* \"#utility.yul\":10355:10370   */\n      swap4\n      dup4\n      add\n      swap4\n        /* \"#utility.yul\":10320:10332   */\n      swap2\n      dup4\n      add\n      swap2\n        /* \"#utility.yul\":10296:10297   */\n      0x01\n        /* \"#utility.yul\":10214:10223   */\n      add\n        /* \"#utility.yul\":10185:10380   */\n      jump(tag_425)\n    tag_427:\n      pop\n      pop\n      sub(shl(0xa0, 0x01), 0x01)\n        /* \"#utility.yul\":10436:10468   */\n      swap7\n      swap1\n      swap7\n      and\n        /* \"#utility.yul\":10431:10433   */\n      0x60\n        /* \"#utility.yul\":10416:10434   */\n      dup6\n      add\n        /* \"#utility.yul\":10409:10469   */\n      mstore\n      pop\n      pop\n      pop\n        /* \"#utility.yul\":10500:10503   */\n      0x80\n        /* \"#utility.yul\":10485:10504   */\n      add\n        /* \"#utility.yul\":10478:10513   */\n      mstore\n        /* \"#utility.yul\":10397:10400   */\n      swap4\n        /* \"#utility.yul\":9539:10519   */\n      swap3\n      pop\n      pop\n      pop\n      jump\t// out\n        /* \"#utility.yul\":10734:10902   */\n    tag_361:\n        /* \"#utility.yul\":10807:10816   */\n      dup1\n      dup3\n      mul\n        /* \"#utility.yul\":10838:10847   */\n      dup2\n      iszero\n        /* \"#utility.yul\":10855:10870   */\n      dup3\n      dup3\n      div\n        /* \"#utility.yul\":10849:10871   */\n      dup5\n      eq\n        /* \"#utility.yul\":10835:10872   */\n      or\n        /* \"#utility.yul\":10825:10896   */\n      tag_186\n      jumpi\n        /* \"#utility.yul\":10876:10894   */\n      tag_186\n      tag_369\n      jump\t// in\n        /* \"#utility.yul\":10907:11124   */\n    tag_363:\n        /* \"#utility.yul\":10947:10948   */\n      0x00\n        /* \"#utility.yul\":10973:10974   */\n      dup3\n        /* \"#utility.yul\":10963:11095   */\n      tag_433\n      jumpi\n        /* \"#utility.yul\":11017:11027   */\n      0x4e487b71\n        /* \"#utility.yul\":11012:11015   */\n      0xe0\n        /* \"#utility.yul\":11008:11028   */\n      shl\n        /* \"#utility.yul\":11005:11006   */\n      0x00\n        /* \"#utility.yul\":10998:11029   */\n      mstore\n        /* \"#utility.yul\":11052:11056   */\n      0x12\n        /* \"#utility.yul\":11049:11050   */\n      0x04\n        /* \"#utility.yul\":11042:11057   */\n      mstore\n        /* \"#utility.yul\":11080:11084   */\n      0x24\n        /* \"#utility.yul\":11077:11078   */\n      0x00\n        /* \"#utility.yul\":11070:11085   */\n      revert\n        /* \"#utility.yul\":10963:11095   */\n    tag_433:\n      pop\n        /* \"#utility.yul\":11109:11118   */\n      div\n      swap1\n        /* \"#utility.yul\":10907:11124   */\n      jump\t// out\n\n    auxdata: 0xa264697066735822122084eea6074d8e0c5b7d4476dc3917dc7f82af40598b566d2b5082cd9e22869a1e64736f6c63430008130033\n}\n",
				"bytecode": {
					"linkReferences": {},
					"object": "60806040526007805460ff1916905561138860085560646009556200003160c86a084595161401484a000000620004c2565b600a556200004c60c86a084595161401484a000000620004c2565b600b55600c80546001600160a01b0319167316626afb636ca096963420c09e28add5c3a1ebc51790553480156200008257600080fd5b506200008e33620003a6565b336000818152600260209081526040808320805460ff1990811660019081179092553085528285208054821683179055600c546001600160a01b0316855282852080548216831790557f6a9609baa168169acaea398c4407efea4be641bb08e21e88806d9836fd9333cc80548216831790557f29d4ce5ba4008f18524a47d1a046ba41493f01b5b93e99d646a93413a694f5db80548216831790557e5a4e188a8b717bdb9756212b4d35786a5708f302bc96b706f580f0049fd98780549091169091179055600d80546001600160a01b031916737a250d5630b4cf539739df2c5dacb4c659f2488d179055838352600482528083206a084595161401484a0000009081905590519081527fddf252ad1be2c89b69c2b068fc378daa952ba7f163c4a11628f55a4df523b3ef910160405180910390a3600d60009054906101000a90046001600160a01b03166001600160a01b031663c45a01556040518163ffffffff1660e01b8152600401602060405180830381865afa15801562000217573d6000803e3d6000fd5b505050506040513d601f19601f820116820180604052508101906200023d9190620004e5565b6001600160a01b031663c9c65396600d60009054906101000a90046001600160a01b03166001600160a01b031663ad5c46486040518163ffffffff1660e01b8152600401602060405180830381865afa1580156200029f573d6000803e3d6000fd5b505050506040513d601f19601f82011682018060405250810190620002c59190620004e5565b6040516001600160e01b031960e084901b1681526001600160a01b0390911660048201523060248201526044016020604051808303816000875af115801562000312573d6000803e3d6000fd5b505050506040513d601f19601f82011682018060405250810190620003389190620004e5565b600e80546001600160a01b0319166001600160a01b039283169081179091556000908152600360205260409020805460ff19166001179055600d546200038491339116600019620003f6565b600d54620003a09030906001600160a01b0316600019620003f6565b62000517565b600080546001600160a01b038381166001600160a01b0319831681178455604051919092169283917f8be0079c531659141344cd1fd0a4f28419497f9722a3daafe3b4186f6b6457e09190a35050565b6001600160a01b038316620004485760405162461bcd60e51b815260206004820152601360248201527245524332303a205a65726f204164647265737360681b60448201526064015b60405180910390fd5b6001600160a01b038216620004965760405162461bcd60e51b815260206004820152601360248201527245524332303a205a65726f204164647265737360681b60448201526064016200043f565b6001600160a01b0392831660009081526001602090815260408083209490951682529290925291902055565b600082620004e057634e487b7160e01b600052601260045260246000fd5b500490565b600060208284031215620004f857600080fd5b81516001600160a01b03811681146200051057600080fd5b9392505050565b61170e80620005276000396000f3fe6080604052600436106101dc5760003560e01c8063893d20e811610102578063c2e4ef7911610095578063dc9d75b011610064578063dc9d75b014610573578063dd62ed3e14610588578063e9451f5f146105ce578063f2fde38b146105e357600080fd5b8063c2e4ef79146104e0578063c31c9c0714610519578063c876d0b914610539578063ce004a071461055357600080fd5b8063a01c3483116100d1578063a01c34831461048a578063a2747da2146104a0578063a9059cbb146104c0578063c226de76146102b957600080fd5b8063893d20e8146104295780638da5cb5b146104295780638f9a55c01461044757806395d89b411461045d57600080fd5b8063313ce5671161017a57806370a082311161014957806370a08231146103a8578063715018a6146103de578063771af866146103f35780637d1db4a51461041357600080fd5b8063313ce56714610314578063452ed4f1146103305780634c1b403114610368578063694e80c31461038857600080fd5b806318160ddd116101b657806318160ddd1461027b57806323b872dd1461029957806327889862146102b957806330db2c12146102f257600080fd5b80630445b667146101e857806306fdde0314610211578063095ea7b31461024b57600080fd5b366101e357005b600080fd5b3480156101f457600080fd5b506101fe60085481565b6040519081526020015b60405180910390f35b34801561021d57600080fd5b5060408051808201909152600881526727b7329020b737b760c11b60208201525b604051610208919061143b565b34801561025757600080fd5b5061026b61026636600461149e565b610603565b6040519015158152602001610208565b34801561028757600080fd5b506a084595161401484a0000006101fe565b3480156102a557600080fd5b5061026b6102b43660046114ca565b61061a565b3480156102c557600080fd5b5061026b6102d436600461150b565b6001600160a01b031660009081526002602052604090205460ff1690565b3480156102fe57600080fd5b5061031261030d366004611528565b610694565b005b34801561032057600080fd5b5060405160128152602001610208565b34801561033c57600080fd5b50600e54610350906001600160a01b031681565b6040516001600160a01b039091168152602001610208565b34801561037457600080fd5b5061031261038336600461150b565b610757565b34801561039457600080fd5b506103126103a3366004611528565b6107a2565b3480156103b457600080fd5b506101fe6103c336600461150b565b6001600160a01b031660009081526004602052604090205490565b3480156103ea57600080fd5b50610312610850565b3480156103ff57600080fd5b5061031261040e36600461150b565b6108b6565b34801561041f57600080fd5b506101fe600a5481565b34801561043557600080fd5b506000546001600160a01b0316610350565b34801561045357600080fd5b506101fe600b5481565b34801561046957600080fd5b506040805180820190915260048152630913d05560e21b602082015261023e565b34801561049657600080fd5b5061035061dead81565b3480156104ac57600080fd5b506103126104bb36600461150b565b610901565b3480156104cc57600080fd5b5061026b6104db36600461149e565b610997565b3480156104ec57600080fd5b5061026b6104fb36600461150b565b6001600160a01b031660009081526006602052604090205460ff1690565b34801561052557600080fd5b50600d54610350906001600160a01b031681565b34801561054557600080fd5b5060075461026b9060ff1681565b34801561055f57600080fd5b5061031261056e36600461150b565b6109ae565b34801561057f57600080fd5b506101fe606481565b34801561059457600080fd5b506101fe6105a3366004611541565b6001600160a01b03918216600090815260016020908152604080832093909416825291909152205490565b3480156105da57600080fd5b506101fe600281565b3480156105ef57600080fd5b506103126105fe36600461150b565b610a44565b6000610610338484610b0f565b5060015b92915050565b6001600160a01b03831660009081526001602090815260408083203384529091528120546000191461067f576001600160a01b038416600090815260016020908152604080832033845290915281208054849290610679908490611590565b90915550505b61068a848484610bd3565b90505b9392505050565b600c546001600160a01b0316331461070c5760405162461bcd60e51b815260206004820152603060248201527f4f6e6c7920417574686f726973656420616464726573732063616e206d6f646960448201526f667920746865204a617265646665652160801b60648201526084015b60405180910390fd5b60648111156107525760405162461bcd60e51b81526020600482015260126024820152710466565206d757374206265203c3d203130360741b6044820152606401610703565b600955565b600c546001600160a01b031633146107815760405162461bcd60e51b8152600401610703906115a3565b6001600160a01b03166000908152600260205260409020805460ff19169055565b600c546001600160a01b031633146107cc5760405162461bcd60e51b8152600401610703906115a3565b60648110156108155760405162461bcd60e51b81526020600482015260156024820152740416d6f756e74206d757374206265203e3d2031303605c1b6044820152606401610703565b60088190556040518181527f2b7ce9cd4278161eef9245955c9a851618488a07e830194c60a88f0224ad3cc09060200160405180910390a150565b6000546001600160a01b031633146108aa5760405162461bcd60e51b815260206004820181905260248201527f4f776e61626c653a2063616c6c6572206973206e6f7420746865206f776e65726044820152606401610703565b6108b46000611093565b565b600c546001600160a01b031633146108e05760405162461bcd60e51b8152600401610703906115a3565b6001600160a01b03166000908152600660205260409020805460ff19169055565b600c546001600160a01b0316331461092b5760405162461bcd60e51b8152600401610703906115a3565b6001600160a01b0381166109735760405162461bcd60e51b815260206004820152600f60248201526e496e76616c6964206164647265737360881b6044820152606401610703565b6001600160a01b03166000908152600660205260409020805460ff19166001179055565b60006109a4338484610bd3565b5060019392505050565b600c546001600160a01b031633146109d85760405162461bcd60e51b8152600401610703906115a3565b6001600160a01b038116610a205760405162461bcd60e51b815260206004820152600f60248201526e496e76616c6964206164647265737360881b6044820152606401610703565b6001600160a01b03166000908152600260205260409020805460ff19166001179055565b6000546001600160a01b03163314610a9e5760405162461bcd60e51b815260206004820181905260248201527f4f776e61626c653a2063616c6c6572206973206e6f7420746865206f776e65726044820152606401610703565b6001600160a01b038116610b035760405162461bcd60e51b815260206004820152602660248201527f4f776e61626c653a206e6577206f776e657220697320746865207a65726f206160448201526564647265737360d01b6064820152608401610703565b610b0c81611093565b50565b6001600160a01b038316610b5b5760405162461bcd60e51b815260206004820152601360248201527245524332303a205a65726f204164647265737360681b6044820152606401610703565b6001600160a01b038216610ba75760405162461bcd60e51b815260206004820152601360248201527245524332303a205a65726f204164647265737360681b6044820152606401610703565b6001600160a01b0392831660009081526001602090815260408083209490951682529290925291902055565b600060016001600160a01b038416610c395760405162461bcd60e51b815260206004820152602360248201527f45524332303a207472616e7366657220746f20746865207a65726f206164647260448201526265737360e81b6064820152608401610703565b6001600160a01b038516610c9d5760405162461bcd60e51b815260206004820152602560248201527f45524332303a207472616e736665722066726f6d20746865207a65726f206164604482015264647265737360d81b6064820152608401610703565b60008311610cff5760405162461bcd60e51b815260206004820152602960248201527f5472616e7366657220616d6f756e74206d7573742062652067726561746572206044820152687468616e207a65726f60b81b6064820152608401610703565b6000546001600160a01b03868116911614801590610d2b57506000546001600160a01b03858116911614155b156110885760075460ff1615610de957600d546001600160a01b03858116911614801590610d675750600e546001600160a01b03858116911614155b15610de957326000908152600560205260409020544311610dd65760405162461bcd60e51b8152602060048201526024808201527f4f6e6c79206f6e65207472616e736665722070657220626c6f636b20616c6c6f6044820152633bb2b21760e11b6064820152608401610703565b3260009081526005602052604090204390555b600e546001600160a01b038681169116148015610e145750600d546001600160a01b03858116911614155b8015610e2e5750600e546001600160a01b03858116911614155b8015610e5357506001600160a01b03841660009081526002602052604090205460ff16155b15610f2557600a54831115610eaa5760405162461bcd60e51b815260206004820152601960248201527f4578636565647320746865205f6d61785478416d6f756e742e000000000000006044820152606401610703565b600b5483610ecd866001600160a01b031660009081526004602052604090205490565b610ed791906115e8565b1115610f255760405162461bcd60e51b815260206004820152601a60248201527f4578636565647320746865206d617857616c6c657453697a652e0000000000006044820152606401610703565b610f2f85856110e3565b8015610f455750600e54600160a01b900460ff16155b15610f6e57306000908152600460205260409020546008548110610f6c57610f6c8161112e565b505b6001600160a01b03851660009081526002602052604090205460ff1680610fad57506001600160a01b03841660009081526002602052604090205460ff165b15610fb6575060005b6001600160a01b03851660009081526004602052604081208054859290610fde908490611590565b909155506000905081610ff15783611005565b61100586610fff88886110e3565b86611351565b6001600160a01b0386166000908152600460205260408120805492935083929091906110329084906115e8565b92505081905550846001600160a01b0316866001600160a01b03167fddf252ad1be2c89b69c2b068fc378daa952ba7f163c4a11628f55a4df523b3ef8360405161107e91815260200190565b60405180910390a3505b506001949350505050565b600080546001600160a01b038381166001600160a01b0319831681178455604051919092169283917f8be0079c531659141344cd1fd0a4f28419497f9722a3daafe3b4186f6b6457e09190a35050565b6001600160a01b038116600090815260036020526040812054819060ff16801561112657506001600160a01b03841660009081526003602052604090205460ff16155b949350505050565b600e805460ff60a01b1916600160a01b1790556040805160028082526060820183526000926020830190803683370190505090503081600081518110611176576111766115fb565b6001600160a01b03928316602091820292909201810191909152600d54604080516315ab88c960e31b81529051919093169263ad5c46489260048083019391928290030181865afa1580156111cf573d6000803e3d6000fd5b505050506040513d601f19601f820116820180604052508101906111f39190611611565b81600181518110611206576112066115fb565b6001600160a01b03928316602091820292909201810191909152306000908152600182526040808220600d5490941682529290915220546000191461127057306000908152600160209081526040808320600d546001600160a01b03168452909152902060001990555b600d5460405163791ac94760e01b81526001600160a01b039091169063791ac947906112a990859060009086903090429060040161162e565b600060405180830381600087803b1580156112c357600080fd5b505af19250505080156112d4575060015b6112de5750611341565b6000471561133e57600c546040516001600160a01b03909116904790600081818185875af1925050503d8060008114611333576040519150601f19603f3d011682016040523d82523d6000602084013e611338565b606091505b50909150505b50505b50600e805460ff60a01b19169055565b60008083801561137957506001600160a01b03851660009081526006602052604090205460ff165b156113875750600954611391565b8315611391575060025b806000036113a2578291505061068d565b600060646113b0838661169f565b6113ba91906116b6565b905080156114275730600090815260046020526040812080548392906113e19084906115e8565b909155505060405181815230906001600160a01b038816907fddf252ad1be2c89b69c2b068fc378daa952ba7f163c4a11628f55a4df523b3ef9060200160405180910390a35b6114318185611590565b9695505050505050565b600060208083528351808285015260005b818110156114685785810183015185820160400152820161144c565b506000604082860101526040601f19601f8301168501019250505092915050565b6001600160a01b0381168114610b0c57600080fd5b600080604083850312156114b157600080fd5b82356114bc81611489565b946020939093013593505050565b6000806000606084860312156114df57600080fd5b83356114ea81611489565b925060208401356114fa81611489565b929592945050506040919091013590565b60006020828403121561151d57600080fd5b813561068d81611489565b60006020828403121561153a57600080fd5b5035919050565b6000806040838503121561155457600080fd5b823561155f81611489565b9150602083013561156f81611489565b809150509250929050565b634e487b7160e01b600052601160045260246000fd5b818103818111156106145761061461157a565b60208082526025908201527f43616c6c6572206973206e6f742074686520617574686f726973656420616464604082015264726573732160d81b606082015260800190565b808201808211156106145761061461157a565b634e487b7160e01b600052603260045260246000fd5b60006020828403121561162357600080fd5b815161068d81611489565b600060a082018783526020878185015260a0604085015281875180845260c086019150828901935060005b8181101561167e5784516001600160a01b031683529383019391830191600101611659565b50506001600160a01b03969096166060850152505050608001529392505050565b80820281158282048414176106145761061461157a565b6000826116d357634e487b7160e01b600052601260045260246000fd5b50049056fea264697066735822122084eea6074d8e0c5b7d4476dc3917dc7f82af40598b566d2b5082cd9e22869a1e64736f6c63430008130033",
					"opcodes": "PUSH1 0x80 PUSH1 0x40 MSTORE PUSH1 0x7 DUP1 SLOAD PUSH1 0xFF NOT AND SWAP1 SSTORE PUSH2 0x1388 PUSH1 0x8 SSTORE PUSH1 0x64 PUSH1 0x9 SSTORE PUSH3 0x31 PUSH1 0xC8 PUSH11 0x84595161401484A000000 PUSH3 0x4C2 JUMP JUMPDEST PUSH1 0xA SSTORE PUSH3 0x4C PUSH1 0xC8 PUSH11 0x84595161401484A000000 PUSH3 0x4C2 JUMP JUMPDEST PUSH1 0xB SSTORE PUSH1 0xC DUP1 SLOAD PUSH1 0x1 PUSH1 0x1 PUSH1 0xA0 SHL SUB NOT AND PUSH20 0x16626AFB636CA096963420C09E28ADD5C3A1EBC5 OR SWAP1 SSTORE CALLVALUE DUP1 ISZERO PUSH3 0x82 JUMPI PUSH1 0x0 DUP1 REVERT JUMPDEST POP PUSH3 0x8E CALLER PUSH3 0x3A6 JUMP JUMPDEST CALLER PUSH1 0x0 DUP2 DUP2 MSTORE PUSH1 0x2 PUSH1 0x20 SWAP1 DUP2 MSTORE PUSH1 0x40 DUP1 DUP4 KECCAK256 DUP1 SLOAD PUSH1 0xFF NOT SWAP1 DUP2 AND PUSH1 0x1 SWAP1 DUP2 OR SWAP1 SWAP3 SSTORE ADDRESS DUP6 MSTORE DUP3 DUP6 KECCAK256 DUP1 SLOAD DUP3 AND DUP4 OR SWAP1 SSTORE PUSH1 0xC SLOAD PUSH1 0x1 PUSH1 0x1 PUSH1 0xA0 SHL SUB AND DUP6 MSTORE DUP3 DUP6 KECCAK256 DUP1 SLOAD DUP3 AND DUP4 OR SWAP1 SSTORE PUSH32 0x6A9609BAA168169ACAEA398C4407EFEA4BE641BB08E21E88806D9836FD9333CC DUP1 SLOAD DUP3 AND DUP4 OR SWAP1 SSTORE PUSH32 0x29D4CE5BA4008F18524A47D1A046BA41493F01B5B93E99D646A93413A694F5DB DUP1 SLOAD DUP3 AND DUP4 OR SWAP1 SSTORE PUSH31 0x5A4E188A8B717BDB9756212B4D35786A5708F302BC96B706F580F0049FD987 DUP1 SLOAD SWAP1 SWAP2 AND SWAP1 SWAP2 OR SWAP1 SSTORE PUSH1 0xD DUP1 SLOAD PUSH1 0x1 PUSH1 0x1 PUSH1 0xA0 SHL SUB NOT AND PUSH20 0x7A250D5630B4CF539739DF2C5DACB4C659F2488D OR SWAP1 SSTORE DUP4 DUP4 MSTORE PUSH1 0x4 DUP3 MSTORE DUP1 DUP4 KECCAK256 PUSH11 0x84595161401484A000000 SWAP1 DUP2 SWAP1 SSTORE SWAP1 MLOAD SWAP1 DUP2 MSTORE PUSH32 0xDDF252AD1BE2C89B69C2B068FC378DAA952BA7F163C4A11628F55A4DF523B3EF SWAP2 ADD PUSH1 0x40 MLOAD DUP1 SWAP2 SUB SWAP1 LOG3 PUSH1 0xD PUSH1 0x0 SWAP1 SLOAD SWAP1 PUSH2 0x100 EXP SWAP1 DIV PUSH1 0x1 PUSH1 0x1 PUSH1 0xA0 SHL SUB AND PUSH1 0x1 PUSH1 0x1 PUSH1 0xA0 SHL SUB AND PUSH4 0xC45A0155 PUSH1 0x40 MLOAD DUP2 PUSH4 0xFFFFFFFF AND PUSH1 0xE0 SHL DUP2 MSTORE PUSH1 0x4 ADD PUSH1 0x20 PUSH1 0x40 MLOAD DUP1 DUP4 SUB DUP2 DUP7 GAS STATICCALL ISZERO DUP1 ISZERO PUSH3 0x217 JUMPI RETURNDATASIZE PUSH1 0x0 DUP1 RETURNDATACOPY RETURNDATASIZE PUSH1 0x0 REVERT JUMPDEST POP POP POP POP PUSH1 0x40 MLOAD RETURNDATASIZE PUSH1 0x1F NOT PUSH1 0x1F DUP3 ADD AND DUP3 ADD DUP1 PUSH1 0x40 MSTORE POP DUP2 ADD SWAP1 PUSH3 0x23D SWAP2 SWAP1 PUSH3 0x4E5 JUMP JUMPDEST PUSH1 0x1 PUSH1 0x1 PUSH1 0xA0 SHL SUB AND PUSH4 0xC9C65396 PUSH1 0xD PUSH1 0x0 SWAP1 SLOAD SWAP1 PUSH2 0x100 EXP SWAP1 DIV PUSH1 0x1 PUSH1 0x1 PUSH1 0xA0 SHL SUB AND PUSH1 0x1 PUSH1 0x1 PUSH1 0xA0 SHL SUB AND PUSH4 0xAD5C4648 PUSH1 0x40 MLOAD DUP2 PUSH4 0xFFFFFFFF AND PUSH1 0xE0 SHL DUP2 MSTORE PUSH1 0x4 ADD PUSH1 0x20 PUSH1 0x40 MLOAD DUP1 DUP4 SUB DUP2 DUP7 GAS STATICCALL ISZERO DUP1 ISZERO PUSH3 0x29F JUMPI RETURNDATASIZE PUSH1 0x0 DUP1 RETURNDATACOPY RETURNDATASIZE PUSH1 0x0 REVERT JUMPDEST POP POP POP POP PUSH1 0x40 MLOAD RETURNDATASIZE PUSH1 0x1F NOT PUSH1 0x1F DUP3 ADD AND DUP3 ADD DUP1 PUSH1 0x40 MSTORE POP DUP2 ADD SWAP1 PUSH3 0x2C5 SWAP2 SWAP1 PUSH3 0x4E5 JUMP JUMPDEST PUSH1 0x40 MLOAD PUSH1 0x1 PUSH1 0x1 PUSH1 0xE0 SHL SUB NOT PUSH1 0xE0 DUP5 SWAP1 SHL AND DUP2 MSTORE PUSH1 0x1 PUSH1 0x1 PUSH1 0xA0 SHL SUB SWAP1 SWAP2 AND PUSH1 0x4 DUP3 ADD MSTORE ADDRESS PUSH1 0x24 DUP3 ADD MSTORE PUSH1 0x44 ADD PUSH1 0x20 PUSH1 0x40 MLOAD DUP1 DUP4 SUB DUP2 PUSH1 0x0 DUP8 GAS CALL ISZERO DUP1 ISZERO PUSH3 0x312 JUMPI RETURNDATASIZE PUSH1 0x0 DUP1 RETURNDATACOPY RETURNDATASIZE PUSH1 0x0 REVERT JUMPDEST POP POP POP POP PUSH1 0x40 MLOAD RETURNDATASIZE PUSH1 0x1F NOT PUSH1 0x1F DUP3 ADD AND DUP3 ADD DUP1 PUSH1 0x40 MSTORE POP DUP2 ADD SWAP1 PUSH3 0x338 SWAP2 SWAP1 PUSH3 0x4E5 JUMP JUMPDEST PUSH1 0xE DUP1 SLOAD PUSH1 0x1 PUSH1 0x1 PUSH1 0xA0 SHL SUB NOT AND PUSH1 0x1 PUSH1 0x1 PUSH1 0xA0 SHL SUB SWAP3 DUP4 AND SWAP1 DUP2 OR SWAP1 SWAP2 SSTORE PUSH1 0x0 SWAP1 DUP2 MSTORE PUSH1 0x3 PUSH1 0x20 MSTORE PUSH1 0x40 SWAP1 KECCAK256 DUP1 SLOAD PUSH1 0xFF NOT AND PUSH1 0x1 OR SWAP1 SSTORE PUSH1 0xD SLOAD PUSH3 0x384 SWAP2 CALLER SWAP2 AND PUSH1 0x0 NOT PUSH3 0x3F6 JUMP JUMPDEST PUSH1 0xD SLOAD PUSH3 0x3A0 SWAP1 ADDRESS SWAP1 PUSH1 0x1 PUSH1 0x1 PUSH1 0xA0 SHL SUB AND PUSH1 0x0 NOT PUSH3 0x3F6 JUMP JUMPDEST PUSH3 0x517 JUMP JUMPDEST PUSH1 0x0 DUP1 SLOAD PUSH1 0x1 PUSH1 0x1 PUSH1 0xA0 SHL SUB DUP4 DUP2 AND PUSH1 0x1 PUSH1 0x1 PUSH1 0xA0 SHL SUB NOT DUP4 AND DUP2 OR DUP5 SSTORE PUSH1 0x40 MLOAD SWAP2 SWAP1 SWAP3 AND SWAP3 DUP4 SWAP2 PUSH32 0x8BE0079C531659141344CD1FD0A4F28419497F9722A3DAAFE3B4186F6B6457E0 SWAP2 SWAP1 LOG3 POP POP JUMP JUMPDEST PUSH1 0x1 PUSH1 0x1 PUSH1 0xA0 SHL SUB DUP4 AND PUSH3 0x448 JUMPI PUSH1 0x40 MLOAD PUSH3 0x461BCD PUSH1 0xE5 SHL DUP2 MSTORE PUSH1 0x20 PUSH1 0x4 DUP3 ADD MSTORE PUSH1 0x13 PUSH1 0x24 DUP3 ADD MSTORE PUSH19 0x45524332303A205A65726F2041646472657373 PUSH1 0x68 SHL PUSH1 0x44 DUP3 ADD MSTORE PUSH1 0x64 ADD JUMPDEST PUSH1 0x40 MLOAD DUP1 SWAP2 SUB SWAP1 REVERT JUMPDEST PUSH1 0x1 PUSH1 0x1 PUSH1 0xA0 SHL SUB DUP3 AND PUSH3 0x496 JUMPI PUSH1 0x40 MLOAD PUSH3 0x461BCD PUSH1 0xE5 SHL DUP2 MSTORE PUSH1 0x20 PUSH1 0x4 DUP3 ADD MSTORE PUSH1 0x13 PUSH1 0x24 DUP3 ADD MSTORE PUSH19 0x45524332303A205A65726F2041646472657373 PUSH1 0x68 SHL PUSH1 0x44 DUP3 ADD MSTORE PUSH1 0x64 ADD PUSH3 0x43F JUMP JUMPDEST PUSH1 0x1 PUSH1 0x1 PUSH1 0xA0 SHL SUB SWAP3 DUP4 AND PUSH1 0x0 SWAP1 DUP2 MSTORE PUSH1 0x1 PUSH1 0x20 SWAP1 DUP2 MSTORE PUSH1 0x40 DUP1 DUP4 KECCAK256 SWAP5 SWAP1 SWAP6 AND DUP3 MSTORE SWAP3 SWAP1 SWAP3 MSTORE SWAP2 SWAP1 KECCAK256 SSTORE JUMP JUMPDEST PUSH1 0x0 DUP3 PUSH3 0x4E0 JUMPI PUSH4 0x4E487B71 PUSH1 0xE0 SHL PUSH1 0x0 MSTORE PUSH1 0x12 PUSH1 0x4 MSTORE PUSH1 0x24 PUSH1 0x0 REVERT JUMPDEST POP DIV SWAP1 JUMP JUMPDEST PUSH1 0x0 PUSH1 0x20 DUP3 DUP5 SUB SLT ISZERO PUSH3 0x4F8 JUMPI PUSH1 0x0 DUP1 REVERT JUMPDEST DUP2 MLOAD PUSH1 0x1 PUSH1 0x1 PUSH1 0xA0 SHL SUB DUP2 AND DUP2 EQ PUSH3 0x510 JUMPI PUSH1 0x0 DUP1 REVERT JUMPDEST SWAP4 SWAP3 POP POP POP JUMP JUMPDEST PUSH2 0x170E DUP1 PUSH3 0x527 PUSH1 0x0 CODECOPY PUSH1 0x0 RETURN INVALID PUSH1 0x80 PUSH1 0x40 MSTORE PUSH1 0x4 CALLDATASIZE LT PUSH2 0x1DC JUMPI PUSH1 0x0 CALLDATALOAD PUSH1 0xE0 SHR DUP1 PUSH4 0x893D20E8 GT PUSH2 0x102 JUMPI DUP1 PUSH4 0xC2E4EF79 GT PUSH2 0x95 JUMPI DUP1 PUSH4 0xDC9D75B0 GT PUSH2 0x64 JUMPI DUP1 PUSH4 0xDC9D75B0 EQ PUSH2 0x573 JUMPI DUP1 PUSH4 0xDD62ED3E EQ PUSH2 0x588 JUMPI DUP1 PUSH4 0xE9451F5F EQ PUSH2 0x5CE JUMPI DUP1 PUSH4 0xF2FDE38B EQ PUSH2 0x5E3 JUMPI PUSH1 0x0 DUP1 REVERT JUMPDEST DUP1 PUSH4 0xC2E4EF79 EQ PUSH2 0x4E0 JUMPI DUP1 PUSH4 0xC31C9C07 EQ PUSH2 0x519 JUMPI DUP1 PUSH4 0xC876D0B9 EQ PUSH2 0x539 JUMPI DUP1 PUSH4 0xCE004A07 EQ PUSH2 0x553 JUMPI PUSH1 0x0 DUP1 REVERT JUMPDEST DUP1 PUSH4 0xA01C3483 GT PUSH2 0xD1 JUMPI DUP1 PUSH4 0xA01C3483 EQ PUSH2 0x48A JUMPI DUP1 PUSH4 0xA2747DA2 EQ PUSH2 0x4A0 JUMPI DUP1 PUSH4 0xA9059CBB EQ PUSH2 0x4C0 JUMPI DUP1 PUSH4 0xC226DE76 EQ PUSH2 0x2B9 JUMPI PUSH1 0x0 DUP1 REVERT JUMPDEST DUP1 PUSH4 0x893D20E8 EQ PUSH2 0x429 JUMPI DUP1 PUSH4 0x8DA5CB5B EQ PUSH2 0x429 JUMPI DUP1 PUSH4 0x8F9A55C0 EQ PUSH2 0x447 JUMPI DUP1 PUSH4 0x95D89B41 EQ PUSH2 0x45D JUMPI PUSH1 0x0 DUP1 REVERT JUMPDEST DUP1 PUSH4 0x313CE567 GT PUSH2 0x17A JUMPI DUP1 PUSH4 0x70A08231 GT PUSH2 0x149 JUMPI DUP1 PUSH4 0x70A08231 EQ PUSH2 0x3A8 JUMPI DUP1 PUSH4 0x715018A6 EQ PUSH2 0x3DE JUMPI DUP1 PUSH4 0x771AF866 EQ PUSH2 0x3F3 JUMPI DUP1 PUSH4 0x7D1DB4A5 EQ PUSH2 0x413 JUMPI PUSH1 0x0 DUP1 REVERT JUMPDEST DUP1 PUSH4 0x313CE567 EQ PUSH2 0x314 JUMPI DUP1 PUSH4 0x452ED4F1 EQ PUSH2 0x330 JUMPI DUP1 PUSH4 0x4C1B4031 EQ PUSH2 0x368 JUMPI DUP1 PUSH4 0x694E80C3 EQ PUSH2 0x388 JUMPI PUSH1 0x0 DUP1 REVERT JUMPDEST DUP1 PUSH4 0x18160DDD GT PUSH2 0x1B6 JUMPI DUP1 PUSH4 0x18160DDD EQ PUSH2 0x27B JUMPI DUP1 PUSH4 0x23B872DD EQ PUSH2 0x299 JUMPI DUP1 PUSH4 0x27889862 EQ PUSH2 0x2B9 JUMPI DUP1 PUSH4 0x30DB2C12 EQ PUSH2 0x2F2 JUMPI PUSH1 0x0 DUP1 REVERT JUMPDEST DUP1 PUSH4 0x445B667 EQ PUSH2 0x1E8 JUMPI DUP1 PUSH4 0x6FDDE03 EQ PUSH2 0x211 JUMPI DUP1 PUSH4 0x95EA7B3 EQ PUSH2 0x24B JUMPI PUSH1 0x0 DUP1 REVERT JUMPDEST CALLDATASIZE PUSH2 0x1E3 JUMPI STOP JUMPDEST PUSH1 0x0 DUP1 REVERT JUMPDEST CALLVALUE DUP1 ISZERO PUSH2 0x1F4 JUMPI PUSH1 0x0 DUP1 REVERT JUMPDEST POP PUSH2 0x1FE PUSH1 0x8 SLOAD DUP2 JUMP JUMPDEST PUSH1 0x40 MLOAD SWAP1 DUP2 MSTORE PUSH1 0x20 ADD JUMPDEST PUSH1 0x40 MLOAD DUP1 SWAP2 SUB SWAP1 RETURN JUMPDEST CALLVALUE DUP1 ISZERO PUSH2 0x21D JUMPI PUSH1 0x0 DUP1 REVERT JUMPDEST POP PUSH1 0x40 DUP1 MLOAD DUP1 DUP3 ADD SWAP1 SWAP2 MSTORE PUSH1 0x8 DUP2 MSTORE PUSH8 0x27B7329020B737B7 PUSH1 0xC1 SHL PUSH1 0x20 DUP3 ADD MSTORE JUMPDEST PUSH1 0x40 MLOAD PUSH2 0x208 SWAP2 SWAP1 PUSH2 0x143B JUMP JUMPDEST CALLVALUE DUP1 ISZERO PUSH2 0x257 JUMPI PUSH1 0x0 DUP1 REVERT JUMPDEST POP PUSH2 0x26B PUSH2 0x266 CALLDATASIZE PUSH1 0x4 PUSH2 0x149E JUMP JUMPDEST PUSH2 0x603 JUMP JUMPDEST PUSH1 0x40 MLOAD SWAP1 ISZERO ISZERO DUP2 MSTORE PUSH1 0x20 ADD PUSH2 0x208 JUMP JUMPDEST CALLVALUE DUP1 ISZERO PUSH2 0x287 JUMPI PUSH1 0x0 DUP1 REVERT JUMPDEST POP PUSH11 0x84595161401484A000000 PUSH2 0x1FE JUMP JUMPDEST CALLVALUE DUP1 ISZERO PUSH2 0x2A5 JUMPI PUSH1 0x0 DUP1 REVERT JUMPDEST POP PUSH2 0x26B PUSH2 0x2B4 CALLDATASIZE PUSH1 0x4 PUSH2 0x14CA JUMP JUMPDEST PUSH2 0x61A JUMP JUMPDEST CALLVALUE DUP1 ISZERO PUSH2 0x2C5 JUMPI PUSH1 0x0 DUP1 REVERT JUMPDEST POP PUSH2 0x26B PUSH2 0x2D4 CALLDATASIZE PUSH1 0x4 PUSH2 0x150B JUMP JUMPDEST PUSH1 0x1 PUSH1 0x1 PUSH1 0xA0 SHL SUB AND PUSH1 0x0 SWAP1 DUP2 MSTORE PUSH1 0x2 PUSH1 0x20 MSTORE PUSH1 0x40 SWAP1 KECCAK256 SLOAD PUSH1 0xFF AND SWAP1 JUMP JUMPDEST CALLVALUE DUP1 ISZERO PUSH2 0x2FE JUMPI PUSH1 0x0 DUP1 REVERT JUMPDEST POP PUSH2 0x312 PUSH2 0x30D CALLDATASIZE PUSH1 0x4 PUSH2 0x1528 JUMP JUMPDEST PUSH2 0x694 JUMP JUMPDEST STOP JUMPDEST CALLVALUE DUP1 ISZERO PUSH2 0x320 JUMPI PUSH1 0x0 DUP1 REVERT JUMPDEST POP PUSH1 0x40 MLOAD PUSH1 0x12 DUP2 MSTORE PUSH1 0x20 ADD PUSH2 0x208 JUMP JUMPDEST CALLVALUE DUP1 ISZERO PUSH2 0x33C JUMPI PUSH1 0x0 DUP1 REVERT JUMPDEST POP PUSH1 0xE SLOAD PUSH2 0x350 SWAP1 PUSH1 0x1 PUSH1 0x1 PUSH1 0xA0 SHL SUB AND DUP2 JUMP JUMPDEST PUSH1 0x40 MLOAD PUSH1 0x1 PUSH1 0x1 PUSH1 0xA0 SHL SUB SWAP1 SWAP2 AND DUP2 MSTORE PUSH1 0x20 ADD PUSH2 0x208 JUMP JUMPDEST CALLVALUE DUP1 ISZERO PUSH2 0x374 JUMPI PUSH1 0x0 DUP1 REVERT JUMPDEST POP PUSH2 0x312 PUSH2 0x383 CALLDATASIZE PUSH1 0x4 PUSH2 0x150B JUMP JUMPDEST PUSH2 0x757 JUMP JUMPDEST CALLVALUE DUP1 ISZERO PUSH2 0x394 JUMPI PUSH1 0x0 DUP1 REVERT JUMPDEST POP PUSH2 0x312 PUSH2 0x3A3 CALLDATASIZE PUSH1 0x4 PUSH2 0x1528 JUMP JUMPDEST PUSH2 0x7A2 JUMP JUMPDEST CALLVALUE DUP1 ISZERO PUSH2 0x3B4 JUMPI PUSH1 0x0 DUP1 REVERT JUMPDEST POP PUSH2 0x1FE PUSH2 0x3C3 CALLDATASIZE PUSH1 0x4 PUSH2 0x150B JUMP JUMPDEST PUSH1 0x1 PUSH1 0x1 PUSH1 0xA0 SHL SUB AND PUSH1 0x0 SWAP1 DUP2 MSTORE PUSH1 0x4 PUSH1 0x20 MSTORE PUSH1 0x40 SWAP1 KECCAK256 SLOAD SWAP1 JUMP JUMPDEST CALLVALUE DUP1 ISZERO PUSH2 0x3EA JUMPI PUSH1 0x0 DUP1 REVERT JUMPDEST POP PUSH2 0x312 PUSH2 0x850 JUMP JUMPDEST CALLVALUE DUP1 ISZERO PUSH2 0x3FF JUMPI PUSH1 0x0 DUP1 REVERT JUMPDEST POP PUSH2 0x312 PUSH2 0x40E CALLDATASIZE PUSH1 0x4 PUSH2 0x150B JUMP JUMPDEST PUSH2 0x8B6 JUMP JUMPDEST CALLVALUE DUP1 ISZERO PUSH2 0x41F JUMPI PUSH1 0x0 DUP1 REVERT JUMPDEST POP PUSH2 0x1FE PUSH1 0xA SLOAD DUP2 JUMP JUMPDEST CALLVALUE DUP1 ISZERO PUSH2 0x435 JUMPI PUSH1 0x0 DUP1 REVERT JUMPDEST POP PUSH1 0x0 SLOAD PUSH1 0x1 PUSH1 0x1 PUSH1 0xA0 SHL SUB AND PUSH2 0x350 JUMP JUMPDEST CALLVALUE DUP1 ISZERO PUSH2 0x453 JUMPI PUSH1 0x0 DUP1 REVERT JUMPDEST POP PUSH2 0x1FE PUSH1 0xB SLOAD DUP2 JUMP JUMPDEST CALLVALUE DUP1 ISZERO PUSH2 0x469 JUMPI PUSH1 0x0 DUP1 REVERT JUMPDEST POP PUSH1 0x40 DUP1 MLOAD DUP1 DUP3 ADD SWAP1 SWAP2 MSTORE PUSH1 0x4 DUP2 MSTORE PUSH4 0x913D055 PUSH1 0xE2 SHL PUSH1 0x20 DUP3 ADD MSTORE PUSH2 0x23E JUMP JUMPDEST CALLVALUE DUP1 ISZERO PUSH2 0x496 JUMPI PUSH1 0x0 DUP1 REVERT JUMPDEST POP PUSH2 0x350 PUSH2 0xDEAD DUP2 JUMP JUMPDEST CALLVALUE DUP1 ISZERO PUSH2 0x4AC JUMPI PUSH1 0x0 DUP1 REVERT JUMPDEST POP PUSH2 0x312 PUSH2 0x4BB CALLDATASIZE PUSH1 0x4 PUSH2 0x150B JUMP JUMPDEST PUSH2 0x901 JUMP JUMPDEST CALLVALUE DUP1 ISZERO PUSH2 0x4CC JUMPI PUSH1 0x0 DUP1 REVERT JUMPDEST POP PUSH2 0x26B PUSH2 0x4DB CALLDATASIZE PUSH1 0x4 PUSH2 0x149E JUMP JUMPDEST PUSH2 0x997 JUMP JUMPDEST CALLVALUE DUP1 ISZERO PUSH2 0x4EC JUMPI PUSH1 0x0 DUP1 REVERT JUMPDEST POP PUSH2 0x26B PUSH2 0x4FB CALLDATASIZE PUSH1 0x4 PUSH2 0x150B JUMP JUMPDEST PUSH1 0x1 PUSH1 0x1 PUSH1 0xA0 SHL SUB AND PUSH1 0x0 SWAP1 DUP2 MSTORE PUSH1 0x6 PUSH1 0x20 MSTORE PUSH1 0x40 SWAP1 KECCAK256 SLOAD PUSH1 0xFF AND SWAP1 JUMP JUMPDEST CALLVALUE DUP1 ISZERO PUSH2 0x525 JUMPI PUSH1 0x0 DUP1 REVERT JUMPDEST POP PUSH1 0xD SLOAD PUSH2 0x350 SWAP1 PUSH1 0x1 PUSH1 0x1 PUSH1 0xA0 SHL SUB AND DUP2 JUMP JUMPDEST CALLVALUE DUP1 ISZERO PUSH2 0x545 JUMPI PUSH1 0x0 DUP1 REVERT JUMPDEST POP PUSH1 0x7 SLOAD PUSH2 0x26B SWAP1 PUSH1 0xFF AND DUP2 JUMP JUMPDEST CALLVALUE DUP1 ISZERO PUSH2 0x55F JUMPI PUSH1 0x0 DUP1 REVERT JUMPDEST POP PUSH2 0x312 PUSH2 0x56E CALLDATASIZE PUSH1 0x4 PUSH2 0x150B JUMP JUMPDEST PUSH2 0x9AE JUMP JUMPDEST CALLVALUE DUP1 ISZERO PUSH2 0x57F JUMPI PUSH1 0x0 DUP1 REVERT JUMPDEST POP PUSH2 0x1FE PUSH1 0x64 DUP2 JUMP JUMPDEST CALLVALUE DUP1 ISZERO PUSH2 0x594 JUMPI PUSH1 0x0 DUP1 REVERT JUMPDEST POP PUSH2 0x1FE PUSH2 0x5A3 CALLDATASIZE PUSH1 0x4 PUSH2 0x1541 JUMP JUMPDEST PUSH1 0x1 PUSH1 0x1 PUSH1 0xA0 SHL SUB SWAP2 DUP3 AND PUSH1 0x0 SWAP1 DUP2 MSTORE PUSH1 0x1 PUSH1 0x20 SWAP1 DUP2 MSTORE PUSH1 0x40 DUP1 DUP4 KECCAK256 SWAP4 SWAP1 SWAP5 AND DUP3 MSTORE SWAP2 SWAP1 SWAP2 MSTORE KECCAK256 SLOAD SWAP1 JUMP JUMPDEST CALLVALUE DUP1 ISZERO PUSH2 0x5DA JUMPI PUSH1 0x0 DUP1 REVERT JUMPDEST POP PUSH2 0x1FE PUSH1 0x2 DUP2 JUMP JUMPDEST CALLVALUE DUP1 ISZERO PUSH2 0x5EF JUMPI PUSH1 0x0 DUP1 REVERT JUMPDEST POP PUSH2 0x312 PUSH2 0x5FE CALLDATASIZE PUSH1 0x4 PUSH2 0x150B JUMP JUMPDEST PUSH2 0xA44 JUMP JUMPDEST PUSH1 0x0 PUSH2 0x610 CALLER DUP5 DUP5 PUSH2 0xB0F JUMP JUMPDEST POP PUSH1 0x1 JUMPDEST SWAP3 SWAP2 POP POP JUMP JUMPDEST PUSH1 0x1 PUSH1 0x1 PUSH1 0xA0 SHL SUB DUP4 AND PUSH1 0x0 SWAP1 DUP2 MSTORE PUSH1 0x1 PUSH1 0x20 SWAP1 DUP2 MSTORE PUSH1 0x40 DUP1 DUP4 KECCAK256 CALLER DUP5 MSTORE SWAP1 SWAP2 MSTORE DUP2 KECCAK256 SLOAD PUSH1 0x0 NOT EQ PUSH2 0x67F JUMPI PUSH1 0x1 PUSH1 0x1 PUSH1 0xA0 SHL SUB DUP5 AND PUSH1 0x0 SWAP1 DUP2 MSTORE PUSH1 0x1 PUSH1 0x20 SWAP1 DUP2 MSTORE PUSH1 0x40 DUP1 DUP4 KECCAK256 CALLER DUP5 MSTORE SWAP1 SWAP2 MSTORE DUP2 KECCAK256 DUP1 SLOAD DUP5 SWAP3 SWAP1 PUSH2 0x679 SWAP1 DUP5 SWAP1 PUSH2 0x1590 JUMP JUMPDEST SWAP1 SWAP2 SSTORE POP POP JUMPDEST PUSH2 0x68A DUP5 DUP5 DUP5 PUSH2 0xBD3 JUMP JUMPDEST SWAP1 POP JUMPDEST SWAP4 SWAP3 POP POP POP JUMP JUMPDEST PUSH1 0xC SLOAD PUSH1 0x1 PUSH1 0x1 PUSH1 0xA0 SHL SUB AND CALLER EQ PUSH2 0x70C JUMPI PUSH1 0x40 MLOAD PUSH3 0x461BCD PUSH1 0xE5 SHL DUP2 MSTORE PUSH1 0x20 PUSH1 0x4 DUP3 ADD MSTORE PUSH1 0x30 PUSH1 0x24 DUP3 ADD MSTORE PUSH32 0x4F6E6C7920417574686F726973656420616464726573732063616E206D6F6469 PUSH1 0x44 DUP3 ADD MSTORE PUSH16 0x667920746865204A6172656466656521 PUSH1 0x80 SHL PUSH1 0x64 DUP3 ADD MSTORE PUSH1 0x84 ADD JUMPDEST PUSH1 0x40 MLOAD DUP1 SWAP2 SUB SWAP1 REVERT JUMPDEST PUSH1 0x64 DUP2 GT ISZERO PUSH2 0x752 JUMPI PUSH1 0x40 MLOAD PUSH3 0x461BCD PUSH1 0xE5 SHL DUP2 MSTORE PUSH1 0x20 PUSH1 0x4 DUP3 ADD MSTORE PUSH1 0x12 PUSH1 0x24 DUP3 ADD MSTORE PUSH18 0x466565206D757374206265203C3D2031303 PUSH1 0x74 SHL PUSH1 0x44 DUP3 ADD MSTORE PUSH1 0x64 ADD PUSH2 0x703 JUMP JUMPDEST PUSH1 0x9 SSTORE JUMP JUMPDEST PUSH1 0xC SLOAD PUSH1 0x1 PUSH1 0x1 PUSH1 0xA0 SHL SUB AND CALLER EQ PUSH2 0x781 JUMPI PUSH1 0x40 MLOAD PUSH3 0x461BCD PUSH1 0xE5 SHL DUP2 MSTORE PUSH1 0x4 ADD PUSH2 0x703 SWAP1 PUSH2 0x15A3 JUMP JUMPDEST PUSH1 0x1 PUSH1 0x1 PUSH1 0xA0 SHL SUB AND PUSH1 0x0 SWAP1 DUP2 MSTORE PUSH1 0x2 PUSH1 0x20 MSTORE PUSH1 0x40 SWAP1 KECCAK256 DUP1 SLOAD PUSH1 0xFF NOT AND SWAP1 SSTORE JUMP JUMPDEST PUSH1 0xC SLOAD PUSH1 0x1 PUSH1 0x1 PUSH1 0xA0 SHL SUB AND CALLER EQ PUSH2 0x7CC JUMPI PUSH1 0x40 MLOAD PUSH3 0x461BCD PUSH1 0xE5 SHL DUP2 MSTORE PUSH1 0x4 ADD PUSH2 0x703 SWAP1 PUSH2 0x15A3 JUMP JUMPDEST PUSH1 0x64 DUP2 LT ISZERO PUSH2 0x815 JUMPI PUSH1 0x40 MLOAD PUSH3 0x461BCD PUSH1 0xE5 SHL DUP2 MSTORE PUSH1 0x20 PUSH1 0x4 DUP3 ADD MSTORE PUSH1 0x15 PUSH1 0x24 DUP3 ADD MSTORE PUSH21 0x416D6F756E74206D757374206265203E3D2031303 PUSH1 0x5C SHL PUSH1 0x44 DUP3 ADD MSTORE PUSH1 0x64 ADD PUSH2 0x703 JUMP JUMPDEST PUSH1 0x8 DUP2 SWAP1 SSTORE PUSH1 0x40 MLOAD DUP2 DUP2 MSTORE PUSH32 0x2B7CE9CD4278161EEF9245955C9A851618488A07E830194C60A88F0224AD3CC0 SWAP1 PUSH1 0x20 ADD PUSH1 0x40 MLOAD DUP1 SWAP2 SUB SWAP1 LOG1 POP JUMP JUMPDEST PUSH1 0x0 SLOAD PUSH1 0x1 PUSH1 0x1 PUSH1 0xA0 SHL SUB AND CALLER EQ PUSH2 0x8AA JUMPI PUSH1 0x40 MLOAD PUSH3 0x461BCD PUSH1 0xE5 SHL DUP2 MSTORE PUSH1 0x20 PUSH1 0x4 DUP3 ADD DUP2 SWAP1 MSTORE PUSH1 0x24 DUP3 ADD MSTORE PUSH32 0x4F776E61626C653A2063616C6C6572206973206E6F7420746865206F776E6572 PUSH1 0x44 DUP3 ADD MSTORE PUSH1 0x64 ADD PUSH2 0x703 JUMP JUMPDEST PUSH2 0x8B4 PUSH1 0x0 PUSH2 0x1093 JUMP JUMPDEST JUMP JUMPDEST PUSH1 0xC SLOAD PUSH1 0x1 PUSH1 0x1 PUSH1 0xA0 SHL SUB AND CALLER EQ PUSH2 0x8E0 JUMPI PUSH1 0x40 MLOAD PUSH3 0x461BCD PUSH1 0xE5 SHL DUP2 MSTORE PUSH1 0x4 ADD PUSH2 0x703 SWAP1 PUSH2 0x15A3 JUMP JUMPDEST PUSH1 0x1 PUSH1 0x1 PUSH1 0xA0 SHL SUB AND PUSH1 0x0 SWAP1 DUP2 MSTORE PUSH1 0x6 PUSH1 0x20 MSTORE PUSH1 0x40 SWAP1 KECCAK256 DUP1 SLOAD PUSH1 0xFF NOT AND SWAP1 SSTORE JUMP JUMPDEST PUSH1 0xC SLOAD PUSH1 0x1 PUSH1 0x1 PUSH1 0xA0 SHL SUB AND CALLER EQ PUSH2 0x92B JUMPI PUSH1 0x40 MLOAD PUSH3 0x461BCD PUSH1 0xE5 SHL DUP2 MSTORE PUSH1 0x4 ADD PUSH2 0x703 SWAP1 PUSH2 0x15A3 JUMP JUMPDEST PUSH1 0x1 PUSH1 0x1 PUSH1 0xA0 SHL SUB DUP2 AND PUSH2 0x973 JUMPI PUSH1 0x40 MLOAD PUSH3 0x461BCD PUSH1 0xE5 SHL DUP2 MSTORE PUSH1 0x20 PUSH1 0x4 DUP3 ADD MSTORE PUSH1 0xF PUSH1 0x24 DUP3 ADD MSTORE PUSH15 0x496E76616C69642061646472657373 PUSH1 0x88 SHL PUSH1 0x44 DUP3 ADD MSTORE PUSH1 0x64 ADD PUSH2 0x703 JUMP JUMPDEST PUSH1 0x1 PUSH1 0x1 PUSH1 0xA0 SHL SUB AND PUSH1 0x0 SWAP1 DUP2 MSTORE PUSH1 0x6 PUSH1 0x20 MSTORE PUSH1 0x40 SWAP1 KECCAK256 DUP1 SLOAD PUSH1 0xFF NOT AND PUSH1 0x1 OR SWAP1 SSTORE JUMP JUMPDEST PUSH1 0x0 PUSH2 0x9A4 CALLER DUP5 DUP5 PUSH2 0xBD3 JUMP JUMPDEST POP PUSH1 0x1 SWAP4 SWAP3 POP POP POP JUMP JUMPDEST PUSH1 0xC SLOAD PUSH1 0x1 PUSH1 0x1 PUSH1 0xA0 SHL SUB AND CALLER EQ PUSH2 0x9D8 JUMPI PUSH1 0x40 MLOAD PUSH3 0x461BCD PUSH1 0xE5 SHL DUP2 MSTORE PUSH1 0x4 ADD PUSH2 0x703 SWAP1 PUSH2 0x15A3 JUMP JUMPDEST PUSH1 0x1 PUSH1 0x1 PUSH1 0xA0 SHL SUB DUP2 AND PUSH2 0xA20 JUMPI PUSH1 0x40 MLOAD PUSH3 0x461BCD PUSH1 0xE5 SHL DUP2 MSTORE PUSH1 0x20 PUSH1 0x4 DUP3 ADD MSTORE PUSH1 0xF PUSH1 0x24 DUP3 ADD MSTORE PUSH15 0x496E76616C69642061646472657373 PUSH1 0x88 SHL PUSH1 0x44 DUP3 ADD MSTORE PUSH1 0x64 ADD PUSH2 0x703 JUMP JUMPDEST PUSH1 0x1 PUSH1 0x1 PUSH1 0xA0 SHL SUB AND PUSH1 0x0 SWAP1 DUP2 MSTORE PUSH1 0x2 PUSH1 0x20 MSTORE PUSH1 0x40 SWAP1 KECCAK256 DUP1 SLOAD PUSH1 0xFF NOT AND PUSH1 0x1 OR SWAP1 SSTORE JUMP JUMPDEST PUSH1 0x0 SLOAD PUSH1 0x1 PUSH1 0x1 PUSH1 0xA0 SHL SUB AND CALLER EQ PUSH2 0xA9E JUMPI PUSH1 0x40 MLOAD PUSH3 0x461BCD PUSH1 0xE5 SHL DUP2 MSTORE PUSH1 0x20 PUSH1 0x4 DUP3 ADD DUP2 SWAP1 MSTORE PUSH1 0x24 DUP3 ADD MSTORE PUSH32 0x4F776E61626C653A2063616C6C6572206973206E6F7420746865206F776E6572 PUSH1 0x44 DUP3 ADD MSTORE PUSH1 0x64 ADD PUSH2 0x703 JUMP JUMPDEST PUSH1 0x1 PUSH1 0x1 PUSH1 0xA0 SHL SUB DUP2 AND PUSH2 0xB03 JUMPI PUSH1 0x40 MLOAD PUSH3 0x461BCD PUSH1 0xE5 SHL DUP2 MSTORE PUSH1 0x20 PUSH1 0x4 DUP3 ADD MSTORE PUSH1 0x26 PUSH1 0x24 DUP3 ADD MSTORE PUSH32 0x4F776E61626C653A206E6577206F776E657220697320746865207A65726F2061 PUSH1 0x44 DUP3 ADD MSTORE PUSH6 0x646472657373 PUSH1 0xD0 SHL PUSH1 0x64 DUP3 ADD MSTORE PUSH1 0x84 ADD PUSH2 0x703 JUMP JUMPDEST PUSH2 0xB0C DUP2 PUSH2 0x1093 JUMP JUMPDEST POP JUMP JUMPDEST PUSH1 0x1 PUSH1 0x1 PUSH1 0xA0 SHL SUB DUP4 AND PUSH2 0xB5B JUMPI PUSH1 0x40 MLOAD PUSH3 0x461BCD PUSH1 0xE5 SHL DUP2 MSTORE PUSH1 0x20 PUSH1 0x4 DUP3 ADD MSTORE PUSH1 0x13 PUSH1 0x24 DUP3 ADD MSTORE PUSH19 0x45524332303A205A65726F2041646472657373 PUSH1 0x68 SHL PUSH1 0x44 DUP3 ADD MSTORE PUSH1 0x64 ADD PUSH2 0x703 JUMP JUMPDEST PUSH1 0x1 PUSH1 0x1 PUSH1 0xA0 SHL SUB DUP3 AND PUSH2 0xBA7 JUMPI PUSH1 0x40 MLOAD PUSH3 0x461BCD PUSH1 0xE5 SHL DUP2 MSTORE PUSH1 0x20 PUSH1 0x4 DUP3 ADD MSTORE PUSH1 0x13 PUSH1 0x24 DUP3 ADD MSTORE PUSH19 0x45524332303A205A65726F2041646472657373 PUSH1 0x68 SHL PUSH1 0x44 DUP3 ADD MSTORE PUSH1 0x64 ADD PUSH2 0x703 JUMP JUMPDEST PUSH1 0x1 PUSH1 0x1 PUSH1 0xA0 SHL SUB SWAP3 DUP4 AND PUSH1 0x0 SWAP1 DUP2 MSTORE PUSH1 0x1 PUSH1 0x20 SWAP1 DUP2 MSTORE PUSH1 0x40 DUP1 DUP4 KECCAK256 SWAP5 SWAP1 SWAP6 AND DUP3 MSTORE SWAP3 SWAP1 SWAP3 MSTORE SWAP2 SWAP1 KECCAK256 SSTORE JUMP JUMPDEST PUSH1 0x0 PUSH1 0x1 PUSH1 0x1 PUSH1 0x1 PUSH1 0xA0 SHL SUB DUP5 AND PUSH2 0xC39 JUMPI PUSH1 0x40 MLOAD PUSH3 0x461BCD PUSH1 0xE5 SHL DUP2 MSTORE PUSH1 0x20 PUSH1 0x4 DUP3 ADD MSTORE PUSH1 0x23 PUSH1 0x24 DUP3 ADD MSTORE PUSH32 0x45524332303A207472616E7366657220746F20746865207A65726F2061646472 PUSH1 0x44 DUP3 ADD MSTORE PUSH3 0x657373 PUSH1 0xE8 SHL PUSH1 0x64 DUP3 ADD MSTORE PUSH1 0x84 ADD PUSH2 0x703 JUMP JUMPDEST PUSH1 0x1 PUSH1 0x1 PUSH1 0xA0 SHL SUB DUP6 AND PUSH2 0xC9D JUMPI PUSH1 0x40 MLOAD PUSH3 0x461BCD PUSH1 0xE5 SHL DUP2 MSTORE PUSH1 0x20 PUSH1 0x4 DUP3 ADD MSTORE PUSH1 0x25 PUSH1 0x24 DUP3 ADD MSTORE PUSH32 0x45524332303A207472616E736665722066726F6D20746865207A65726F206164 PUSH1 0x44 DUP3 ADD MSTORE PUSH5 0x6472657373 PUSH1 0xD8 SHL PUSH1 0x64 DUP3 ADD MSTORE PUSH1 0x84 ADD PUSH2 0x703 JUMP JUMPDEST PUSH1 0x0 DUP4 GT PUSH2 0xCFF JUMPI PUSH1 0x40 MLOAD PUSH3 0x461BCD PUSH1 0xE5 SHL DUP2 MSTORE PUSH1 0x20 PUSH1 0x4 DUP3 ADD MSTORE PUSH1 0x29 PUSH1 0x24 DUP3 ADD MSTORE PUSH32 0x5472616E7366657220616D6F756E74206D757374206265206772656174657220 PUSH1 0x44 DUP3 ADD MSTORE PUSH9 0x7468616E207A65726F PUSH1 0xB8 SHL PUSH1 0x64 DUP3 ADD MSTORE PUSH1 0x84 ADD PUSH2 0x703 JUMP JUMPDEST PUSH1 0x0 SLOAD PUSH1 0x1 PUSH1 0x1 PUSH1 0xA0 SHL SUB DUP7 DUP2 AND SWAP2 AND EQ DUP1 ISZERO SWAP1 PUSH2 0xD2B JUMPI POP PUSH1 0x0 SLOAD PUSH1 0x1 PUSH1 0x1 PUSH1 0xA0 SHL SUB DUP6 DUP2 AND SWAP2 AND EQ ISZERO JUMPDEST ISZERO PUSH2 0x1088 JUMPI PUSH1 0x7 SLOAD PUSH1 0xFF AND ISZERO PUSH2 0xDE9 JUMPI PUSH1 0xD SLOAD PUSH1 0x1 PUSH1 0x1 PUSH1 0xA0 SHL SUB DUP6 DUP2 AND SWAP2 AND EQ DUP1 ISZERO SWAP1 PUSH2 0xD67 JUMPI POP PUSH1 0xE SLOAD PUSH1 0x1 PUSH1 0x1 PUSH1 0xA0 SHL SUB DUP6 DUP2 AND SWAP2 AND EQ ISZERO JUMPDEST ISZERO PUSH2 0xDE9 JUMPI ORIGIN PUSH1 0x0 SWAP1 DUP2 MSTORE PUSH1 0x5 PUSH1 0x20 MSTORE PUSH1 0x40 SWAP1 KECCAK256 SLOAD NUMBER GT PUSH2 0xDD6 JUMPI PUSH1 0x40 MLOAD PUSH3 0x461BCD PUSH1 0xE5 SHL DUP2 MSTORE PUSH1 0x20 PUSH1 0x4 DUP3 ADD MSTORE PUSH1 0x24 DUP1 DUP3 ADD MSTORE PUSH32 0x4F6E6C79206F6E65207472616E736665722070657220626C6F636B20616C6C6F PUSH1 0x44 DUP3 ADD MSTORE PUSH4 0x3BB2B217 PUSH1 0xE1 SHL PUSH1 0x64 DUP3 ADD MSTORE PUSH1 0x84 ADD PUSH2 0x703 JUMP JUMPDEST ORIGIN PUSH1 0x0 SWAP1 DUP2 MSTORE PUSH1 0x5 PUSH1 0x20 MSTORE PUSH1 0x40 SWAP1 KECCAK256 NUMBER SWAP1 SSTORE JUMPDEST PUSH1 0xE SLOAD PUSH1 0x1 PUSH1 0x1 PUSH1 0xA0 SHL SUB DUP7 DUP2 AND SWAP2 AND EQ DUP1 ISZERO PUSH2 0xE14 JUMPI POP PUSH1 0xD SLOAD PUSH1 0x1 PUSH1 0x1 PUSH1 0xA0 SHL SUB DUP6 DUP2 AND SWAP2 AND EQ ISZERO JUMPDEST DUP1 ISZERO PUSH2 0xE2E JUMPI POP PUSH1 0xE SLOAD PUSH1 0x1 PUSH1 0x1 PUSH1 0xA0 SHL SUB DUP6 DUP2 AND SWAP2 AND EQ ISZERO JUMPDEST DUP1 ISZERO PUSH2 0xE53 JUMPI POP PUSH1 0x1 PUSH1 0x1 PUSH1 0xA0 SHL SUB DUP5 AND PUSH1 0x0 SWAP1 DUP2 MSTORE PUSH1 0x2 PUSH1 0x20 MSTORE PUSH1 0x40 SWAP1 KECCAK256 SLOAD PUSH1 0xFF AND ISZERO JUMPDEST ISZERO PUSH2 0xF25 JUMPI PUSH1 0xA SLOAD DUP4 GT ISZERO PUSH2 0xEAA JUMPI PUSH1 0x40 MLOAD PUSH3 0x461BCD PUSH1 0xE5 SHL DUP2 MSTORE PUSH1 0x20 PUSH1 0x4 DUP3 ADD MSTORE PUSH1 0x19 PUSH1 0x24 DUP3 ADD MSTORE PUSH32 0x4578636565647320746865205F6D61785478416D6F756E742E00000000000000 PUSH1 0x44 DUP3 ADD MSTORE PUSH1 0x64 ADD PUSH2 0x703 JUMP JUMPDEST PUSH1 0xB SLOAD DUP4 PUSH2 0xECD DUP7 PUSH1 0x1 PUSH1 0x1 PUSH1 0xA0 SHL SUB AND PUSH1 0x0 SWAP1 DUP2 MSTORE PUSH1 0x4 PUSH1 0x20 MSTORE PUSH1 0x40 SWAP1 KECCAK256 SLOAD SWAP1 JUMP JUMPDEST PUSH2 0xED7 SWAP2 SWAP1 PUSH2 0x15E8 JUMP JUMPDEST GT ISZERO PUSH2 0xF25 JUMPI PUSH1 0x40 MLOAD PUSH3 0x461BCD PUSH1 0xE5 SHL DUP2 MSTORE PUSH1 0x20 PUSH1 0x4 DUP3 ADD MSTORE PUSH1 0x1A PUSH1 0x24 DUP3 ADD MSTORE PUSH32 0x4578636565647320746865206D617857616C6C657453697A652E000000000000 PUSH1 0x44 DUP3 ADD MSTORE PUSH1 0x64 ADD PUSH2 0x703 JUMP JUMPDEST PUSH2 0xF2F DUP6 DUP6 PUSH2 0x10E3 JUMP JUMPDEST DUP1 ISZERO PUSH2 0xF45 JUMPI POP PUSH1 0xE SLOAD PUSH1 0x1 PUSH1 0xA0 SHL SWAP1 DIV PUSH1 0xFF AND ISZERO JUMPDEST ISZERO PUSH2 0xF6E JUMPI ADDRESS PUSH1 0x0 SWAP1 DUP2 MSTORE PUSH1 0x4 PUSH1 0x20 MSTORE PUSH1 0x40 SWAP1 KECCAK256 SLOAD PUSH1 0x8 SLOAD DUP2 LT PUSH2 0xF6C JUMPI PUSH2 0xF6C DUP2 PUSH2 0x112E JUMP JUMPDEST POP JUMPDEST PUSH1 0x1 PUSH1 0x1 PUSH1 0xA0 SHL SUB DUP6 AND PUSH1 0x0 SWAP1 DUP2 MSTORE PUSH1 0x2 PUSH1 0x20 MSTORE PUSH1 0x40 SWAP1 KECCAK256 SLOAD PUSH1 0xFF AND DUP1 PUSH2 0xFAD JUMPI POP PUSH1 0x1 PUSH1 0x1 PUSH1 0xA0 SHL SUB DUP5 AND PUSH1 0x0 SWAP1 DUP2 MSTORE PUSH1 0x2 PUSH1 0x20 MSTORE PUSH1 0x40 SWAP1 KECCAK256 SLOAD PUSH1 0xFF AND JUMPDEST ISZERO PUSH2 0xFB6 JUMPI POP PUSH1 0x0 JUMPDEST PUSH1 0x1 PUSH1 0x1 PUSH1 0xA0 SHL SUB DUP6 AND PUSH1 0x0 SWAP1 DUP2 MSTORE PUSH1 0x4 PUSH1 0x20 MSTORE PUSH1 0x40 DUP2 KECCAK256 DUP1 SLOAD DUP6 SWAP3 SWAP1 PUSH2 0xFDE SWAP1 DUP5 SWAP1 PUSH2 0x1590 JUMP JUMPDEST SWAP1 SWAP2 SSTORE POP PUSH1 0x0 SWAP1 POP DUP2 PUSH2 0xFF1 JUMPI DUP4 PUSH2 0x1005 JUMP JUMPDEST PUSH2 0x1005 DUP7 PUSH2 0xFFF DUP9 DUP9 PUSH2 0x10E3 JUMP JUMPDEST DUP7 PUSH2 0x1351 JUMP JUMPDEST PUSH1 0x1 PUSH1 0x1 PUSH1 0xA0 SHL SUB DUP7 AND PUSH1 0x0 SWAP1 DUP2 MSTORE PUSH1 0x4 PUSH1 0x20 MSTORE PUSH1 0x40 DUP2 KECCAK256 DUP1 SLOAD SWAP3 SWAP4 POP DUP4 SWAP3 SWAP1 SWAP2 SWAP1 PUSH2 0x1032 SWAP1 DUP5 SWAP1 PUSH2 0x15E8 JUMP JUMPDEST SWAP3 POP POP DUP2 SWAP1 SSTORE POP DUP5 PUSH1 0x1 PUSH1 0x1 PUSH1 0xA0 SHL SUB AND DUP7 PUSH1 0x1 PUSH1 0x1 PUSH1 0xA0 SHL SUB AND PUSH32 0xDDF252AD1BE2C89B69C2B068FC378DAA952BA7F163C4A11628F55A4DF523B3EF DUP4 PUSH1 0x40 MLOAD PUSH2 0x107E SWAP2 DUP2 MSTORE PUSH1 0x20 ADD SWAP1 JUMP JUMPDEST PUSH1 0x40 MLOAD DUP1 SWAP2 SUB SWAP1 LOG3 POP JUMPDEST POP PUSH1 0x1 SWAP5 SWAP4 POP POP POP POP JUMP JUMPDEST PUSH1 0x0 DUP1 SLOAD PUSH1 0x1 PUSH1 0x1 PUSH1 0xA0 SHL SUB DUP4 DUP2 AND PUSH1 0x1 PUSH1 0x1 PUSH1 0xA0 SHL SUB NOT DUP4 AND DUP2 OR DUP5 SSTORE PUSH1 0x40 MLOAD SWAP2 SWAP1 SWAP3 AND SWAP3 DUP4 SWAP2 PUSH32 0x8BE0079C531659141344CD1FD0A4F28419497F9722A3DAAFE3B4186F6B6457E0 SWAP2 SWAP1 LOG3 POP POP JUMP JUMPDEST PUSH1 0x1 PUSH1 0x1 PUSH1 0xA0 SHL SUB DUP2 AND PUSH1 0x0 SWAP1 DUP2 MSTORE PUSH1 0x3 PUSH1 0x20 MSTORE PUSH1 0x40 DUP2 KECCAK256 SLOAD DUP2 SWAP1 PUSH1 0xFF AND DUP1 ISZERO PUSH2 0x1126 JUMPI POP PUSH1 0x1 PUSH1 0x1 PUSH1 0xA0 SHL SUB DUP5 AND PUSH1 0x0 SWAP1 DUP2 MSTORE PUSH1 0x3 PUSH1 0x20 MSTORE PUSH1 0x40 SWAP1 KECCAK256 SLOAD PUSH1 0xFF AND ISZERO JUMPDEST SWAP5 SWAP4 POP POP POP POP JUMP JUMPDEST PUSH1 0xE DUP1 SLOAD PUSH1 0xFF PUSH1 0xA0 SHL NOT AND PUSH1 0x1 PUSH1 0xA0 SHL OR SWAP1 SSTORE PUSH1 0x40 DUP1 MLOAD PUSH1 0x2 DUP1 DUP3 MSTORE PUSH1 0x60 DUP3 ADD DUP4 MSTORE PUSH1 0x0 SWAP3 PUSH1 0x20 DUP4 ADD SWAP1 DUP1 CALLDATASIZE DUP4 CALLDATACOPY ADD SWAP1 POP POP SWAP1 POP ADDRESS DUP2 PUSH1 0x0 DUP2 MLOAD DUP2 LT PUSH2 0x1176 JUMPI PUSH2 0x1176 PUSH2 0x15FB JUMP JUMPDEST PUSH1 0x1 PUSH1 0x1 PUSH1 0xA0 SHL SUB SWAP3 DUP4 AND PUSH1 0x20 SWAP2 DUP3 MUL SWAP3 SWAP1 SWAP3 ADD DUP2 ADD SWAP2 SWAP1 SWAP2 MSTORE PUSH1 0xD SLOAD PUSH1 0x40 DUP1 MLOAD PUSH4 0x15AB88C9 PUSH1 0xE3 SHL DUP2 MSTORE SWAP1 MLOAD SWAP2 SWAP1 SWAP4 AND SWAP3 PUSH4 0xAD5C4648 SWAP3 PUSH1 0x4 DUP1 DUP4 ADD SWAP4 SWAP2 SWAP3 DUP3 SWAP1 SUB ADD DUP2 DUP7 GAS STATICCALL ISZERO DUP1 ISZERO PUSH2 0x11CF JUMPI RETURNDATASIZE PUSH1 0x0 DUP1 RETURNDATACOPY RETURNDATASIZE PUSH1 0x0 REVERT JUMPDEST POP POP POP POP PUSH1 0x40 MLOAD RETURNDATASIZE PUSH1 0x1F NOT PUSH1 0x1F DUP3 ADD AND DUP3 ADD DUP1 PUSH1 0x40 MSTORE POP DUP2 ADD SWAP1 PUSH2 0x11F3 SWAP2 SWAP1 PUSH2 0x1611 JUMP JUMPDEST DUP2 PUSH1 0x1 DUP2 MLOAD DUP2 LT PUSH2 0x1206 JUMPI PUSH2 0x1206 PUSH2 0x15FB JUMP JUMPDEST PUSH1 0x1 PUSH1 0x1 PUSH1 0xA0 SHL SUB SWAP3 DUP4 AND PUSH1 0x20 SWAP2 DUP3 MUL SWAP3 SWAP1 SWAP3 ADD DUP2 ADD SWAP2 SWAP1 SWAP2 MSTORE ADDRESS PUSH1 0x0 SWAP1 DUP2 MSTORE PUSH1 0x1 DUP3 MSTORE PUSH1 0x40 DUP1 DUP3 KECCAK256 PUSH1 0xD SLOAD SWAP1 SWAP5 AND DUP3 MSTORE SWAP3 SWAP1 SWAP2 MSTORE KECCAK256 SLOAD PUSH1 0x0 NOT EQ PUSH2 0x1270 JUMPI ADDRESS PUSH1 0x0 SWAP1 DUP2 MSTORE PUSH1 0x1 PUSH1 0x20 SWAP1 DUP2 MSTORE PUSH1 0x40 DUP1 DUP4 KECCAK256 PUSH1 0xD SLOAD PUSH1 0x1 PUSH1 0x1 PUSH1 0xA0 SHL SUB AND DUP5 MSTORE SWAP1 SWAP2 MSTORE SWAP1 KECCAK256 PUSH1 0x0 NOT SWAP1 SSTORE JUMPDEST PUSH1 0xD SLOAD PUSH1 0x40 MLOAD PUSH4 0x791AC947 PUSH1 0xE0 SHL DUP2 MSTORE PUSH1 0x1 PUSH1 0x1 PUSH1 0xA0 SHL SUB SWAP1 SWAP2 AND SWAP1 PUSH4 0x791AC947 SWAP1 PUSH2 0x12A9 SWAP1 DUP6 SWAP1 PUSH1 0x0 SWAP1 DUP7 SWAP1 ADDRESS SWAP1 TIMESTAMP SWAP1 PUSH1 0x4 ADD PUSH2 0x162E JUMP JUMPDEST PUSH1 0x0 PUSH1 0x40 MLOAD DUP1 DUP4 SUB DUP2 PUSH1 0x0 DUP8 DUP1 EXTCODESIZE ISZERO DUP1 ISZERO PUSH2 0x12C3 JUMPI PUSH1 0x0 DUP1 REVERT JUMPDEST POP GAS CALL SWAP3 POP POP POP DUP1 ISZERO PUSH2 0x12D4 JUMPI POP PUSH1 0x1 JUMPDEST PUSH2 0x12DE JUMPI POP PUSH2 0x1341 JUMP JUMPDEST PUSH1 0x0 SELFBALANCE ISZERO PUSH2 0x133E JUMPI PUSH1 0xC SLOAD PUSH1 0x40 MLOAD PUSH1 0x1 PUSH1 0x1 PUSH1 0xA0 SHL SUB SWAP1 SWAP2 AND SWAP1 SELFBALANCE SWAP1 PUSH1 0x0 DUP2 DUP2 DUP2 DUP6 DUP8 GAS CALL SWAP3 POP POP POP RETURNDATASIZE DUP1 PUSH1 0x0 DUP2 EQ PUSH2 0x1333 JUMPI PUSH1 0x40 MLOAD SWAP2 POP PUSH1 0x1F NOT PUSH1 0x3F RETURNDATASIZE ADD AND DUP3 ADD PUSH1 0x40 MSTORE RETURNDATASIZE DUP3 MSTORE RETURNDATASIZE PUSH1 0x0 PUSH1 0x20 DUP5 ADD RETURNDATACOPY PUSH2 0x1338 JUMP JUMPDEST PUSH1 0x60 SWAP2 POP JUMPDEST POP SWAP1 SWAP2 POP POP JUMPDEST POP POP JUMPDEST POP PUSH1 0xE DUP1 SLOAD PUSH1 0xFF PUSH1 0xA0 SHL NOT AND SWAP1 SSTORE JUMP JUMPDEST PUSH1 0x0 DUP1 DUP4 DUP1 ISZERO PUSH2 0x1379 JUMPI POP PUSH1 0x1 PUSH1 0x1 PUSH1 0xA0 SHL SUB DUP6 AND PUSH1 0x0 SWAP1 DUP2 MSTORE PUSH1 0x6 PUSH1 0x20 MSTORE PUSH1 0x40 SWAP1 KECCAK256 SLOAD PUSH1 0xFF AND JUMPDEST ISZERO PUSH2 0x1387 JUMPI POP PUSH1 0x9 SLOAD PUSH2 0x1391 JUMP JUMPDEST DUP4 ISZERO PUSH2 0x1391 JUMPI POP PUSH1 0x2 JUMPDEST DUP1 PUSH1 0x0 SUB PUSH2 0x13A2 JUMPI DUP3 SWAP2 POP POP PUSH2 0x68D JUMP JUMPDEST PUSH1 0x0 PUSH1 0x64 PUSH2 0x13B0 DUP4 DUP7 PUSH2 0x169F JUMP JUMPDEST PUSH2 0x13BA SWAP2 SWAP1 PUSH2 0x16B6 JUMP JUMPDEST SWAP1 POP DUP1 ISZERO PUSH2 0x1427 JUMPI ADDRESS PUSH1 0x0 SWAP1 DUP2 MSTORE PUSH1 0x4 PUSH1 0x20 MSTORE PUSH1 0x40 DUP2 KECCAK256 DUP1 SLOAD DUP4 SWAP3 SWAP1 PUSH2 0x13E1 SWAP1 DUP5 SWAP1 PUSH2 0x15E8 JUMP JUMPDEST SWAP1 SWAP2 SSTORE POP POP PUSH1 0x40 MLOAD DUP2 DUP2 MSTORE ADDRESS SWAP1 PUSH1 0x1 PUSH1 0x1 PUSH1 0xA0 SHL SUB DUP9 AND SWAP1 PUSH32 0xDDF252AD1BE2C89B69C2B068FC378DAA952BA7F163C4A11628F55A4DF523B3EF SWAP1 PUSH1 0x20 ADD PUSH1 0x40 MLOAD DUP1 SWAP2 SUB SWAP1 LOG3 JUMPDEST PUSH2 0x1431 DUP2 DUP6 PUSH2 0x1590 JUMP JUMPDEST SWAP7 SWAP6 POP POP POP POP POP POP JUMP JUMPDEST PUSH1 0x0 PUSH1 0x20 DUP1 DUP4 MSTORE DUP4 MLOAD DUP1 DUP3 DUP6 ADD MSTORE PUSH1 0x0 JUMPDEST DUP2 DUP2 LT ISZERO PUSH2 0x1468 JUMPI DUP6 DUP2 ADD DUP4 ADD MLOAD DUP6 DUP3 ADD PUSH1 0x40 ADD MSTORE DUP3 ADD PUSH2 0x144C JUMP JUMPDEST POP PUSH1 0x0 PUSH1 0x40 DUP3 DUP7 ADD ADD MSTORE PUSH1 0x40 PUSH1 0x1F NOT PUSH1 0x1F DUP4 ADD AND DUP6 ADD ADD SWAP3 POP POP POP SWAP3 SWAP2 POP POP JUMP JUMPDEST PUSH1 0x1 PUSH1 0x1 PUSH1 0xA0 SHL SUB DUP2 AND DUP2 EQ PUSH2 0xB0C JUMPI PUSH1 0x0 DUP1 REVERT JUMPDEST PUSH1 0x0 DUP1 PUSH1 0x40 DUP4 DUP6 SUB SLT ISZERO PUSH2 0x14B1 JUMPI PUSH1 0x0 DUP1 REVERT JUMPDEST DUP3 CALLDATALOAD PUSH2 0x14BC DUP2 PUSH2 0x1489 JUMP JUMPDEST SWAP5 PUSH1 0x20 SWAP4 SWAP1 SWAP4 ADD CALLDATALOAD SWAP4 POP POP POP JUMP JUMPDEST PUSH1 0x0 DUP1 PUSH1 0x0 PUSH1 0x60 DUP5 DUP7 SUB SLT ISZERO PUSH2 0x14DF JUMPI PUSH1 0x0 DUP1 REVERT JUMPDEST DUP4 CALLDATALOAD PUSH2 0x14EA DUP2 PUSH2 0x1489 JUMP JUMPDEST SWAP3 POP PUSH1 0x20 DUP5 ADD CALLDATALOAD PUSH2 0x14FA DUP2 PUSH2 0x1489 JUMP JUMPDEST SWAP3 SWAP6 SWAP3 SWAP5 POP POP POP PUSH1 0x40 SWAP2 SWAP1 SWAP2 ADD CALLDATALOAD SWAP1 JUMP JUMPDEST PUSH1 0x0 PUSH1 0x20 DUP3 DUP5 SUB SLT ISZERO PUSH2 0x151D JUMPI PUSH1 0x0 DUP1 REVERT JUMPDEST DUP2 CALLDATALOAD PUSH2 0x68D DUP2 PUSH2 0x1489 JUMP JUMPDEST PUSH1 0x0 PUSH1 0x20 DUP3 DUP5 SUB SLT ISZERO PUSH2 0x153A JUMPI PUSH1 0x0 DUP1 REVERT JUMPDEST POP CALLDATALOAD SWAP2 SWAP1 POP JUMP JUMPDEST PUSH1 0x0 DUP1 PUSH1 0x40 DUP4 DUP6 SUB SLT ISZERO PUSH2 0x1554 JUMPI PUSH1 0x0 DUP1 REVERT JUMPDEST DUP3 CALLDATALOAD PUSH2 0x155F DUP2 PUSH2 0x1489 JUMP JUMPDEST SWAP2 POP PUSH1 0x20 DUP4 ADD CALLDATALOAD PUSH2 0x156F DUP2 PUSH2 0x1489 JUMP JUMPDEST DUP1 SWAP2 POP POP SWAP3 POP SWAP3 SWAP1 POP JUMP JUMPDEST PUSH4 0x4E487B71 PUSH1 0xE0 SHL PUSH1 0x0 MSTORE PUSH1 0x11 PUSH1 0x4 MSTORE PUSH1 0x24 PUSH1 0x0 REVERT JUMPDEST DUP2 DUP2 SUB DUP2 DUP2 GT ISZERO PUSH2 0x614 JUMPI PUSH2 0x614 PUSH2 0x157A JUMP JUMPDEST PUSH1 0x20 DUP1 DUP3 MSTORE PUSH1 0x25 SWAP1 DUP3 ADD MSTORE PUSH32 0x43616C6C6572206973206E6F742074686520617574686F726973656420616464 PUSH1 0x40 DUP3 ADD MSTORE PUSH5 0x7265737321 PUSH1 0xD8 SHL PUSH1 0x60 DUP3 ADD MSTORE PUSH1 0x80 ADD SWAP1 JUMP JUMPDEST DUP1 DUP3 ADD DUP1 DUP3 GT ISZERO PUSH2 0x614 JUMPI PUSH2 0x614 PUSH2 0x157A JUMP JUMPDEST PUSH4 0x4E487B71 PUSH1 0xE0 SHL PUSH1 0x0 MSTORE PUSH1 0x32 PUSH1 0x4 MSTORE PUSH1 0x24 PUSH1 0x0 REVERT JUMPDEST PUSH1 0x0 PUSH1 0x20 DUP3 DUP5 SUB SLT ISZERO PUSH2 0x1623 JUMPI PUSH1 0x0 DUP1 REVERT JUMPDEST DUP2 MLOAD PUSH2 0x68D DUP2 PUSH2 0x1489 JUMP JUMPDEST PUSH1 0x0 PUSH1 0xA0 DUP3 ADD DUP8 DUP4 MSTORE PUSH1 0x20 DUP8 DUP2 DUP6 ADD MSTORE PUSH1 0xA0 PUSH1 0x40 DUP6 ADD MSTORE DUP2 DUP8 MLOAD DUP1 DUP5 MSTORE PUSH1 0xC0 DUP7 ADD SWAP2 POP DUP3 DUP10 ADD SWAP4 POP PUSH1 0x0 JUMPDEST DUP2 DUP2 LT ISZERO PUSH2 0x167E JUMPI DUP5 MLOAD PUSH1 0x1 PUSH1 0x1 PUSH1 0xA0 SHL SUB AND DUP4 MSTORE SWAP4 DUP4 ADD SWAP4 SWAP2 DUP4 ADD SWAP2 PUSH1 0x1 ADD PUSH2 0x1659 JUMP JUMPDEST POP POP PUSH1 0x1 PUSH1 0x1 PUSH1 0xA0 SHL SUB SWAP7 SWAP1 SWAP7 AND PUSH1 0x60 DUP6 ADD MSTORE POP POP POP PUSH1 0x80 ADD MSTORE SWAP4 SWAP3 POP POP POP JUMP JUMPDEST DUP1 DUP3 MUL DUP2 ISZERO DUP3 DUP3 DIV DUP5 EQ OR PUSH2 0x614 JUMPI PUSH2 0x614 PUSH2 0x157A JUMP JUMPDEST PUSH1 0x0 DUP3 PUSH2 0x16D3 JUMPI PUSH4 0x4E487B71 PUSH1 0xE0 SHL PUSH1 0x0 MSTORE PUSH1 0x12 PUSH1 0x4 MSTORE PUSH1 0x24 PUSH1 0x0 REVERT JUMPDEST POP DIV SWAP1 JUMP INVALID LOG2 PUSH5 0x6970667358 0x22 SLT KECCAK256 DUP5 0xEE 0xA6 SMOD 0x4D DUP15 0xC JUMPDEST PUSH30 0x4476DC3917DC7F82AF40598B566D2B5082CD9E22869A1E64736F6C634300 ADDMOD SGT STOP CALLER "
				},
				"gasEstimates": {
					"creation": {
						"codeDepositCost": "1180400",
						"executionCost": "infinite",
						"totalCost": "infinite"
					},
					"external": {
						"DEAD_WALLET()": "261",
						"_maxTxAmount()": "2395",
						"_maxWalletSize()": "2374",
						"addJaredAddress(address)": "26846",
						"addtoNofee(address)": "26890",
						"allowance(address,address)": "infinite",
						"approve(address,uint256)": "22872",
						"balanceOf(address)": "2565",
						"changeThreshold(uint256)": "25667",
						"decimals()": "223",
						"fee_denominator()": "228",
						"getOwner()": "2377",
						"isJaredAddress(address)": "2588",
						"isNoFeeWallet(address)": "2633",
						"isNofeeAddress(address)": "2654",
						"lpPair()": "2405",
						"name()": "infinite",
						"owner()": "2399",
						"removeJaredAddress(address)": "26827",
						"removefromtNofee(address)": "26828",
						"renounceOwnership()": "28181",
						"sellfee()": "272",
						"setJaredSellFee(uint256)": "24602",
						"swapRouter()": "2404",
						"swapThreshold()": "2331",
						"symbol()": "infinite",
						"totalSupply()": "227",
						"transfer(address,uint256)": "infinite",
						"transferDelayEnabled()": "2399",
						"transferFrom(address,address,uint256)": "infinite",
						"transferOwnership(address)": "infinite"
					},
					"internal": {
						"_approve(address,address,uint256)": "infinite",
						"_transfer(address,address,uint256)": "infinite",
						"internalSwap(uint256)": "infinite",
						"is_sell(address,address)": "4452",
						"takeTaxes(address,bool,uint256)": "infinite"
					}
				},
				"methodIdentifiers": {
					"DEAD_WALLET()": "a01c3483",
					"_maxTxAmount()": "7d1db4a5",
					"_maxWalletSize()": "8f9a55c0",
					"addJaredAddress(address)": "a2747da2",
					"addtoNofee(address)": "ce004a07",
					"allowance(address,address)": "dd62ed3e",
					"approve(address,uint256)": "095ea7b3",
					"balanceOf(address)": "70a08231",
					"changeThreshold(uint256)": "694e80c3",
					"decimals()": "313ce567",
					"fee_denominator()": "dc9d75b0",
					"getOwner()": "893d20e8",
					"isJaredAddress(address)": "c2e4ef79",
					"isNoFeeWallet(address)": "27889862",
					"isNofeeAddress(address)": "c226de76",
					"lpPair()": "452ed4f1",
					"name()": "06fdde03",
					"owner()": "8da5cb5b",
					"removeJaredAddress(address)": "771af866",
					"removefromtNofee(address)": "4c1b4031",
					"renounceOwnership()": "715018a6",
					"sellfee()": "e9451f5f",
					"setJaredSellFee(uint256)": "30db2c12",
					"swapRouter()": "c31c9c07",
					"swapThreshold()": "0445b667",
					"symbol()": "95d89b41",
					"totalSupply()": "18160ddd",
					"transfer(address,uint256)": "a9059cbb",
					"transferDelayEnabled()": "c876d0b9",
					"transferFrom(address,address,uint256)": "23b872dd",
					"transferOwnership(address)": "f2fde38b"
				}
			},
			"storageLayout": {
				"storage": [
					{
						"astId": 33,
						"contract": "contracts/oatfinally.sol:OneAnonataTime",
						"label": "_owner",
						"offset": 0,
						"slot": "0",
						"type": "t_address"
					},
					{
						"astId": 498,
						"contract": "contracts/oatfinally.sol:OneAnonataTime",
						"label": "_allowances",
						"offset": 0,
						"slot": "1",
						"type": "t_mapping(t_address,t_mapping(t_address,t_uint256))"
					},
					{
						"astId": 502,
						"contract": "contracts/oatfinally.sol:OneAnonataTime",
						"label": "_noFee",
						"offset": 0,
						"slot": "2",
						"type": "t_mapping(t_address,t_bool)"
					},
					{
						"astId": 506,
						"contract": "contracts/oatfinally.sol:OneAnonataTime",
						"label": "isLpPair",
						"offset": 0,
						"slot": "3",
						"type": "t_mapping(t_address,t_bool)"
					},
					{
						"astId": 510,
						"contract": "contracts/oatfinally.sol:OneAnonataTime",
						"label": "balance",
						"offset": 0,
						"slot": "4",
						"type": "t_mapping(t_address,t_uint256)"
					},
					{
						"astId": 514,
						"contract": "contracts/oatfinally.sol:OneAnonataTime",
						"label": "_holderLastTransferTimestamp",
						"offset": 0,
						"slot": "5",
						"type": "t_mapping(t_address,t_uint256)"
					},
					{
						"astId": 518,
						"contract": "contracts/oatfinally.sol:OneAnonataTime",
						"label": "_jareDs",
						"offset": 0,
						"slot": "6",
						"type": "t_mapping(t_address,t_bool)"
					},
					{
						"astId": 521,
						"contract": "contracts/oatfinally.sol:OneAnonataTime",
						"label": "transferDelayEnabled",
						"offset": 0,
						"slot": "7",
						"type": "t_bool"
					},
					{
						"astId": 531,
						"contract": "contracts/oatfinally.sol:OneAnonataTime",
						"label": "swapThreshold",
						"offset": 0,
						"slot": "8",
						"type": "t_uint256"
					},
					{
						"astId": 537,
						"contract": "contracts/oatfinally.sol:OneAnonataTime",
						"label": "jaredsellfee",
						"offset": 0,
						"slot": "9",
						"type": "t_uint256"
					},
					{
						"astId": 545,
						"contract": "contracts/oatfinally.sol:OneAnonataTime",
						"label": "_maxTxAmount",
						"offset": 0,
						"slot": "10",
						"type": "t_uint256"
					},
					{
						"astId": 550,
						"contract": "contracts/oatfinally.sol:OneAnonataTime",
						"label": "_maxWalletSize",
						"offset": 0,
						"slot": "11",
						"type": "t_uint256"
					},
					{
						"astId": 556,
						"contract": "contracts/oatfinally.sol:OneAnonataTime",
						"label": "_oatFee",
						"offset": 0,
						"slot": "12",
						"type": "t_address_payable"
					},
					{
						"astId": 559,
						"contract": "contracts/oatfinally.sol:OneAnonataTime",
						"label": "swapRouter",
						"offset": 0,
						"slot": "13",
						"type": "t_contract(IRouter02)307"
					},
					{
						"astId": 573,
						"contract": "contracts/oatfinally.sol:OneAnonataTime",
						"label": "lpPair",
						"offset": 0,
						"slot": "14",
						"type": "t_address"
					},
					{
						"astId": 575,
						"contract": "contracts/oatfinally.sol:OneAnonataTime",
						"label": "inSwap",
						"offset": 20,
						"slot": "14",
						"type": "t_bool"
					}
				],
				"types": {
					"t_address": {
						"encoding": "inplace",
						"label": "address",
						"numberOfBytes": "20"
					},
					"t_address_payable": {
						"encoding": "inplace",
						"label": "address payable",
						"numberOfBytes": "20"
					},
					"t_bool": {
						"encoding": "inplace",
						"label": "bool",
						"numberOfBytes": "1"
					},
					"t_contract(IRouter02)307": {
						"encoding": "inplace",
						"label": "contract IRouter02",
						"numberOfBytes": "20"
					},
					"t_mapping(t_address,t_bool)": {
						"encoding": "mapping",
						"key": "t_address",
						"label": "mapping(address => bool)",
						"numberOfBytes": "32",
						"value": "t_bool"
					},
					"t_mapping(t_address,t_mapping(t_address,t_uint256))": {
						"encoding": "mapping",
						"key": "t_address",
						"label": "mapping(address => mapping(address => uint256))",
						"numberOfBytes": "32",
						"value": "t_mapping(t_address,t_uint256)"
					},
					"t_mapping(t_address,t_uint256)": {
						"encoding": "mapping",
						"key": "t_address",
						"label": "mapping(address => uint256)",
						"numberOfBytes": "32",
						"value": "t_uint256"
					},
					"t_uint256": {
						"encoding": "inplace",
						"label": "uint256",
						"numberOfBytes": "32"
					}
				}
			},
			"userdoc": {
				"kind": "user",
				"methods": {},
				"version": 1
			}
		}
	}
}