{
	"contracts/liquiditylockchatgpt.sol": {
		"LiquidityPoolLock": {
			"abi": [
				{
					"inputs": [
						{
							"internalType": "address",
							"name": "_liquidityToken",
							"type": "address"
						}
					],
					"stateMutability": "nonpayable",
					"type": "constructor"
				},
				{
					"anonymous": false,
					"inputs": [
						{
							"indexed": true,
							"internalType": "address",
							"name": "user",
							"type": "address"
						},
						{
							"indexed": false,
							"internalType": "uint256",
							"name": "amount",
							"type": "uint256"
						},
						{
							"indexed": false,
							"internalType": "uint256",
							"name": "releaseTime",
							"type": "uint256"
						}
					],
					"name": "TokensLocked",
					"type": "event"
				},
				{
					"anonymous": false,
					"inputs": [
						{
							"indexed": true,
							"internalType": "address",
							"name": "user",
							"type": "address"
						},
						{
							"indexed": false,
							"internalType": "uint256",
							"name": "amount",
							"type": "uint256"
						}
					],
					"name": "TokensUnlocked",
					"type": "event"
				},
				{
					"inputs": [
						{
							"internalType": "address",
							"name": "user",
							"type": "address"
						}
					],
					"name": "getUserLockDetails",
					"outputs": [
						{
							"internalType": "uint256",
							"name": "",
							"type": "uint256"
						},
						{
							"internalType": "uint256",
							"name": "",
							"type": "uint256"
						}
					],
					"stateMutability": "view",
					"type": "function"
				},
				{
					"inputs": [],
					"name": "liquidityToken",
					"outputs": [
						{
							"internalType": "address",
							"name": "",
							"type": "address"
						}
					],
					"stateMutability": "view",
					"type": "function"
				},
				{
					"inputs": [
						{
							"internalType": "address",
							"name": "",
							"type": "address"
						}
					],
					"name": "lockReleaseTimes",
					"outputs": [
						{
							"internalType": "uint256",
							"name": "",
							"type": "uint256"
						}
					],
					"stateMutability": "view",
					"type": "function"
				},
				{
					"inputs": [
						{
							"internalType": "uint256",
							"name": "amount",
							"type": "uint256"
						},
						{
							"internalType": "uint256",
							"name": "durationInSeconds",
							"type": "uint256"
						}
					],
					"name": "lockTokens",
					"outputs": [],
					"stateMutability": "nonpayable",
					"type": "function"
				},
				{
					"inputs": [
						{
							"internalType": "address",
							"name": "",
							"type": "address"
						}
					],
					"name": "lockedBalances",
					"outputs": [
						{
							"internalType": "uint256",
							"name": "",
							"type": "uint256"
						}
					],
					"stateMutability": "view",
					"type": "function"
				},
				{
					"inputs": [],
					"name": "owner",
					"outputs": [
						{
							"internalType": "address",
							"name": "",
							"type": "address"
						}
					],
					"stateMutability": "view",
					"type": "function"
				},
				{
					"inputs": [],
					"name": "unlockTokens",
					"outputs": [],
					"stateMutability": "nonpayable",
					"type": "function"
				}
			],
			"devdoc": {
				"kind": "dev",
				"methods": {},
				"version": 1
			},
			"evm": {
				"assembly": "    /* \"contracts/liquiditylockchatgpt.sol\":178:3035  contract LiquidityPoolLock {... */\n  mstore(0x40, 0x80)\n    /* \"contracts/liquiditylockchatgpt.sol\":882:999  constructor(address _liquidityToken) {... */\n  callvalue\n  dup1\n  iszero\n  tag_1\n  jumpi\n  0x00\n  dup1\n  revert\ntag_1:\n  pop\n  mload(0x40)\n  sub(codesize, bytecodeSize)\n  dup1\n  bytecodeSize\n  dup4\n  codecopy\n  dup2\n  add\n  0x40\n  dup2\n  swap1\n  mstore\n  tag_2\n  swap2\n  tag_3\n  jump\t// in\ntag_2:\n    /* \"contracts/liquiditylockchatgpt.sol\":930:944  liquidityToken */\n  0x00\n    /* \"contracts/liquiditylockchatgpt.sol\":930:962  liquidityToken = _liquidityToken */\n  dup1\n  sload\n  sub(shl(0xa0, 0x01), 0x01)\n  swap1\n  swap3\n  and\n  not(sub(shl(0xa0, 0x01), 0x01))\n  swap3\n  dup4\n  and\n  or\n  swap1\n  sstore\n  0x01\n    /* \"contracts/liquiditylockchatgpt.sol\":973:991  owner = msg.sender */\n  dup1\n  sload\n  swap1\n  swap2\n  and\n    /* \"contracts/liquiditylockchatgpt.sol\":981:991  msg.sender */\n  caller\n    /* \"contracts/liquiditylockchatgpt.sol\":973:991  owner = msg.sender */\n  or\n  swap1\n  sstore\n    /* \"contracts/liquiditylockchatgpt.sol\":178:3035  contract LiquidityPoolLock {... */\n  jump(tag_7)\n    /* \"#utility.yul\":14:304   */\ntag_3:\n    /* \"#utility.yul\":84:90   */\n  0x00\n    /* \"#utility.yul\":137:139   */\n  0x20\n    /* \"#utility.yul\":125:134   */\n  dup3\n    /* \"#utility.yul\":116:123   */\n  dup5\n    /* \"#utility.yul\":112:135   */\n  sub\n    /* \"#utility.yul\":108:140   */\n  slt\n    /* \"#utility.yul\":105:157   */\n  iszero\n  tag_9\n  jumpi\n    /* \"#utility.yul\":153:154   */\n  0x00\n    /* \"#utility.yul\":150:151   */\n  dup1\n    /* \"#utility.yul\":143:155   */\n  revert\n    /* \"#utility.yul\":105:157   */\ntag_9:\n    /* \"#utility.yul\":179:195   */\n  dup2\n  mload\n  sub(shl(0xa0, 0x01), 0x01)\n    /* \"#utility.yul\":224:255   */\n  dup2\n  and\n    /* \"#utility.yul\":214:256   */\n  dup2\n  eq\n    /* \"#utility.yul\":204:274   */\n  tag_10\n  jumpi\n    /* \"#utility.yul\":270:271   */\n  0x00\n    /* \"#utility.yul\":267:268   */\n  dup1\n    /* \"#utility.yul\":260:272   */\n  revert\n    /* \"#utility.yul\":204:274   */\ntag_10:\n    /* \"#utility.yul\":293:298   */\n  swap4\n    /* \"#utility.yul\":14:304   */\n  swap3\n  pop\n  pop\n  pop\n  jump\t// out\ntag_7:\n    /* \"contracts/liquiditylockchatgpt.sol\":178:3035  contract LiquidityPoolLock {... */\n  dataSize(sub_0)\n  dup1\n  dataOffset(sub_0)\n  0x00\n  codecopy\n  0x00\n  return\nstop\n\nsub_0: assembly {\n        /* \"contracts/liquiditylockchatgpt.sol\":178:3035  contract LiquidityPoolLock {... */\n      mstore(0x40, 0x80)\n      callvalue\n      dup1\n      iszero\n      tag_1\n      jumpi\n      0x00\n      dup1\n      revert\n    tag_1:\n      pop\n      jumpi(tag_2, lt(calldatasize, 0x04))\n      shr(0xe0, calldataload(0x00))\n      dup1\n      0x89158d8e\n      gt\n      tag_10\n      jumpi\n      dup1\n      0x89158d8e\n      eq\n      tag_6\n      jumpi\n      dup1\n      0x8da5cb5b\n      eq\n      tag_7\n      jumpi\n      dup1\n      0xf234eae0\n      eq\n      tag_8\n      jumpi\n      dup1\n      0xf968f493\n      eq\n      tag_9\n      jumpi\n      0x00\n      dup1\n      revert\n    tag_10:\n      dup1\n      0x0483a7f6\n      eq\n      tag_3\n      jumpi\n      dup1\n      0x207c089e\n      eq\n      tag_4\n      jumpi\n      dup1\n      0x43cd8f7e\n      eq\n      tag_5\n      jumpi\n    tag_2:\n      0x00\n      dup1\n      revert\n        /* \"contracts/liquiditylockchatgpt.sol\":456:505  mapping(address => uint256) public lockedBalances */\n    tag_3:\n      tag_11\n      tag_12\n      calldatasize\n      0x04\n      tag_13\n      jump\t// in\n    tag_12:\n      mstore(0x20, 0x02)\n      0x00\n      swap1\n      dup2\n      mstore\n      0x40\n      swap1\n      keccak256\n      sload\n      dup2\n      jump\n    tag_11:\n      mload(0x40)\n        /* \"#utility.yul\":451:476   */\n      swap1\n      dup2\n      mstore\n        /* \"#utility.yul\":439:441   */\n      0x20\n        /* \"#utility.yul\":424:442   */\n      add\n        /* \"contracts/liquiditylockchatgpt.sol\":456:505  mapping(address => uint256) public lockedBalances */\n    tag_15:\n      mload(0x40)\n      dup1\n      swap2\n      sub\n      swap1\n      return\n        /* \"contracts/liquiditylockchatgpt.sol\":577:628  mapping(address => uint256) public lockReleaseTimes */\n    tag_4:\n      tag_11\n      tag_18\n      calldatasize\n      0x04\n      tag_13\n      jump\t// in\n    tag_18:\n      mstore(0x20, 0x03)\n      0x00\n      swap1\n      dup2\n      mstore\n      0x40\n      swap1\n      keccak256\n      sload\n      dup2\n      jump\n        /* \"contracts/liquiditylockchatgpt.sol\":270:299  address public liquidityToken */\n    tag_5:\n      sload(0x00)\n      tag_21\n      swap1\n      sub(shl(0xa0, 0x01), 0x01)\n      and\n      dup2\n      jump\n    tag_21:\n      mload(0x40)\n      sub(shl(0xa0, 0x01), 0x01)\n        /* \"#utility.yul\":651:683   */\n      swap1\n      swap2\n      and\n        /* \"#utility.yul\":633:684   */\n      dup2\n      mstore\n        /* \"#utility.yul\":621:623   */\n      0x20\n        /* \"#utility.yul\":606:624   */\n      add\n        /* \"contracts/liquiditylockchatgpt.sol\":270:299  address public liquidityToken */\n      tag_15\n        /* \"#utility.yul\":487:690   */\n      jump\n        /* \"contracts/liquiditylockchatgpt.sol\":1269:2033  function lockTokens(uint256 amount, uint256 durationInSeconds) external {... */\n    tag_6:\n      tag_25\n      tag_26\n      calldatasize\n      0x04\n      tag_27\n      jump\t// in\n    tag_26:\n      tag_28\n      jump\t// in\n    tag_25:\n      stop\n        /* \"contracts/liquiditylockchatgpt.sol\":371:391  address public owner */\n    tag_7:\n      sload(0x01)\n      tag_21\n      swap1\n      sub(shl(0xa0, 0x01), 0x01)\n      and\n      dup2\n      jump\n        /* \"contracts/liquiditylockchatgpt.sol\":2877:3032  function getUserLockDetails(address user) external view returns (uint256, uint256) {... */\n    tag_8:\n      tag_32\n      tag_33\n      calldatasize\n      0x04\n      tag_13\n      jump\t// in\n    tag_33:\n      sub(shl(0xa0, 0x01), 0x01)\n        /* \"contracts/liquiditylockchatgpt.sol\":2979:2999  lockedBalances[user] */\n      and\n        /* \"contracts/liquiditylockchatgpt.sol\":2942:2949  uint256 */\n      0x00\n        /* \"contracts/liquiditylockchatgpt.sol\":2979:2999  lockedBalances[user] */\n      swap1\n      dup2\n      mstore\n        /* \"contracts/liquiditylockchatgpt.sol\":2979:2993  lockedBalances */\n      0x02\n        /* \"contracts/liquiditylockchatgpt.sol\":2979:2999  lockedBalances[user] */\n      0x20\n      swap1\n      dup2\n      mstore\n      0x40\n      dup1\n      dup4\n      keccak256\n      sload\n        /* \"contracts/liquiditylockchatgpt.sol\":3001:3017  lockReleaseTimes */\n      0x03\n        /* \"contracts/liquiditylockchatgpt.sol\":3001:3023  lockReleaseTimes[user] */\n      swap1\n      swap3\n      mstore\n      swap1\n      swap2\n      keccak256\n      sload\n        /* \"contracts/liquiditylockchatgpt.sol\":2979:2999  lockedBalances[user] */\n      swap1\n      swap2\n        /* \"contracts/liquiditylockchatgpt.sol\":2877:3032  function getUserLockDetails(address user) external view returns (uint256, uint256) {... */\n      jump\n    tag_32:\n      0x40\n      dup1\n      mload\n        /* \"#utility.yul\":1122:1147   */\n      swap3\n      dup4\n      mstore\n        /* \"#utility.yul\":1178:1180   */\n      0x20\n        /* \"#utility.yul\":1163:1181   */\n      dup4\n      add\n        /* \"#utility.yul\":1156:1190   */\n      swap2\n      swap1\n      swap2\n      mstore\n        /* \"#utility.yul\":1095:1113   */\n      add\n        /* \"contracts/liquiditylockchatgpt.sol\":2877:3032  function getUserLockDetails(address user) external view returns (uint256, uint256) {... */\n      tag_15\n        /* \"#utility.yul\":948:1196   */\n      jump\n        /* \"contracts/liquiditylockchatgpt.sol\":2107:2796  function unlockTokens() external {... */\n    tag_9:\n      tag_25\n      tag_38\n      jump\t// in\n        /* \"contracts/liquiditylockchatgpt.sol\":1269:2033  function lockTokens(uint256 amount, uint256 durationInSeconds) external {... */\n    tag_28:\n        /* \"contracts/liquiditylockchatgpt.sol\":1369:1370  0 */\n      0x00\n        /* \"contracts/liquiditylockchatgpt.sol\":1360:1366  amount */\n      dup3\n        /* \"contracts/liquiditylockchatgpt.sol\":1360:1370  amount > 0 */\n      gt\n        /* \"contracts/liquiditylockchatgpt.sol\":1352:1404  require(amount > 0, \"Amount must be greater than 0\") */\n      tag_40\n      jumpi\n      mload(0x40)\n      shl(0xe5, 0x461bcd)\n      dup2\n      mstore\n        /* \"#utility.yul\":1403:1405   */\n      0x20\n        /* \"contracts/liquiditylockchatgpt.sol\":1352:1404  require(amount > 0, \"Amount must be greater than 0\") */\n      0x04\n      dup3\n      add\n        /* \"#utility.yul\":1385:1406   */\n      mstore\n        /* \"#utility.yul\":1442:1444   */\n      0x1d\n        /* \"#utility.yul\":1422:1440   */\n      0x24\n      dup3\n      add\n        /* \"#utility.yul\":1415:1445   */\n      mstore\n        /* \"#utility.yul\":1481:1512   */\n      0x416d6f756e74206d7573742062652067726561746572207468616e2030000000\n        /* \"#utility.yul\":1461:1479   */\n      0x44\n      dup3\n      add\n        /* \"#utility.yul\":1454:1513   */\n      mstore\n        /* \"#utility.yul\":1530:1548   */\n      0x64\n      add\n        /* \"contracts/liquiditylockchatgpt.sol\":1352:1404  require(amount > 0, \"Amount must be greater than 0\") */\n    tag_41:\n      mload(0x40)\n      dup1\n      swap2\n      sub\n      swap1\n      revert\n    tag_40:\n        /* \"contracts/liquiditylockchatgpt.sol\":1443:1444  0 */\n      0x00\n        /* \"contracts/liquiditylockchatgpt.sol\":1423:1440  durationInSeconds */\n      dup2\n        /* \"contracts/liquiditylockchatgpt.sol\":1423:1444  durationInSeconds > 0 */\n      gt\n        /* \"contracts/liquiditylockchatgpt.sol\":1415:1480  require(durationInSeconds > 0, \"Duration must be greater than 0\") */\n      tag_43\n      jumpi\n      mload(0x40)\n      shl(0xe5, 0x461bcd)\n      dup2\n      mstore\n        /* \"#utility.yul\":1761:1763   */\n      0x20\n        /* \"contracts/liquiditylockchatgpt.sol\":1415:1480  require(durationInSeconds > 0, \"Duration must be greater than 0\") */\n      0x04\n      dup3\n      add\n        /* \"#utility.yul\":1743:1764   */\n      mstore\n        /* \"#utility.yul\":1800:1802   */\n      0x1f\n        /* \"#utility.yul\":1780:1798   */\n      0x24\n      dup3\n      add\n        /* \"#utility.yul\":1773:1803   */\n      mstore\n        /* \"#utility.yul\":1839:1872   */\n      0x4475726174696f6e206d7573742062652067726561746572207468616e203000\n        /* \"#utility.yul\":1819:1837   */\n      0x44\n      dup3\n      add\n        /* \"#utility.yul\":1812:1873   */\n      mstore\n        /* \"#utility.yul\":1890:1908   */\n      0x64\n      add\n        /* \"contracts/liquiditylockchatgpt.sol\":1415:1480  require(durationInSeconds > 0, \"Duration must be greater than 0\") */\n      tag_41\n        /* \"#utility.yul\":1559:1914   */\n      jump\n        /* \"contracts/liquiditylockchatgpt.sol\":1415:1480  require(durationInSeconds > 0, \"Duration must be greater than 0\") */\n    tag_43:\n        /* \"contracts/liquiditylockchatgpt.sol\":1570:1584  liquidityToken */\n      sload(0x00)\n        /* \"contracts/liquiditylockchatgpt.sol\":1563:1633  IERC20(liquidityToken).transferFrom(msg.sender, address(this), amount) */\n      mload(0x40)\n      shl(0xe0, 0x23b872dd)\n      dup2\n      mstore\n        /* \"contracts/liquiditylockchatgpt.sol\":1599:1609  msg.sender */\n      caller\n        /* \"contracts/liquiditylockchatgpt.sol\":1563:1633  IERC20(liquidityToken).transferFrom(msg.sender, address(this), amount) */\n      0x04\n      dup3\n      add\n        /* \"#utility.yul\":2159:2193   */\n      mstore\n        /* \"contracts/liquiditylockchatgpt.sol\":1619:1623  this */\n      address\n        /* \"#utility.yul\":2209:2227   */\n      0x24\n      dup3\n      add\n        /* \"#utility.yul\":2202:2245   */\n      mstore\n        /* \"#utility.yul\":2261:2279   */\n      0x44\n      dup2\n      add\n        /* \"#utility.yul\":2254:2288   */\n      dup5\n      swap1\n      mstore\n      sub(shl(0xa0, 0x01), 0x01)\n        /* \"contracts/liquiditylockchatgpt.sol\":1570:1584  liquidityToken */\n      swap1\n      swap2\n      and\n      swap1\n        /* \"contracts/liquiditylockchatgpt.sol\":1563:1598  IERC20(liquidityToken).transferFrom */\n      0x23b872dd\n      swap1\n        /* \"#utility.yul\":2094:2112   */\n      0x64\n      add\n        /* \"contracts/liquiditylockchatgpt.sol\":1563:1633  IERC20(liquidityToken).transferFrom(msg.sender, address(this), amount) */\n      0x20\n      mload(0x40)\n      dup1\n      dup4\n      sub\n      dup2\n      0x00\n      dup8\n      gas\n      call\n      iszero\n      dup1\n      iszero\n      tag_49\n      jumpi\n      returndatasize\n      0x00\n      dup1\n      returndatacopy\n      revert(0x00, returndatasize)\n    tag_49:\n      pop\n      pop\n      pop\n      pop\n      mload(0x40)\n      returndatasize\n      not(0x1f)\n      0x1f\n      dup3\n      add\n      and\n      dup3\n      add\n      dup1\n      0x40\n      mstore\n      pop\n      dup2\n      add\n      swap1\n      tag_50\n      swap2\n      swap1\n      tag_51\n      jump\t// in\n    tag_50:\n      pop\n        /* \"contracts/liquiditylockchatgpt.sol\":1691:1710  uint256 releaseTime */\n      0x00\n        /* \"contracts/liquiditylockchatgpt.sol\":1713:1748  block.timestamp + durationInSeconds */\n      tag_52\n        /* \"contracts/liquiditylockchatgpt.sol\":1731:1748  durationInSeconds */\n      dup3\n        /* \"contracts/liquiditylockchatgpt.sol\":1713:1728  block.timestamp */\n      timestamp\n        /* \"contracts/liquiditylockchatgpt.sol\":1713:1748  block.timestamp + durationInSeconds */\n      tag_53\n      jump\t// in\n    tag_52:\n        /* \"contracts/liquiditylockchatgpt.sol\":1839:1849  msg.sender */\n      caller\n        /* \"contracts/liquiditylockchatgpt.sol\":1824:1850  lockedBalances[msg.sender] */\n      0x00\n      swap1\n      dup2\n      mstore\n        /* \"contracts/liquiditylockchatgpt.sol\":1824:1838  lockedBalances */\n      0x02\n        /* \"contracts/liquiditylockchatgpt.sol\":1824:1850  lockedBalances[msg.sender] */\n      0x20\n      mstore\n      0x40\n      dup2\n      keccak256\n        /* \"contracts/liquiditylockchatgpt.sol\":1824:1860  lockedBalances[msg.sender] += amount */\n      dup1\n      sload\n        /* \"contracts/liquiditylockchatgpt.sol\":1691:1748  uint256 releaseTime = block.timestamp + durationInSeconds */\n      swap3\n      swap4\n      pop\n        /* \"contracts/liquiditylockchatgpt.sol\":1854:1860  amount */\n      dup6\n      swap3\n        /* \"contracts/liquiditylockchatgpt.sol\":1824:1850  lockedBalances[msg.sender] */\n      swap1\n      swap2\n      swap1\n        /* \"contracts/liquiditylockchatgpt.sol\":1824:1860  lockedBalances[msg.sender] += amount */\n      tag_54\n      swap1\n        /* \"contracts/liquiditylockchatgpt.sol\":1854:1860  amount */\n      dup5\n      swap1\n        /* \"contracts/liquiditylockchatgpt.sol\":1824:1860  lockedBalances[msg.sender] += amount */\n      tag_53\n      jump\t// in\n    tag_54:\n      swap1\n      swap2\n      sstore\n      pop\n      pop\n        /* \"contracts/liquiditylockchatgpt.sol\":1888:1898  msg.sender */\n      caller\n        /* \"contracts/liquiditylockchatgpt.sol\":1871:1899  lockReleaseTimes[msg.sender] */\n      0x00\n      dup2\n      dup2\n      mstore\n        /* \"contracts/liquiditylockchatgpt.sol\":1871:1887  lockReleaseTimes */\n      0x03\n        /* \"contracts/liquiditylockchatgpt.sol\":1871:1899  lockReleaseTimes[msg.sender] */\n      0x20\n      swap1\n      dup2\n      mstore\n      0x40\n      swap2\n      dup3\n      swap1\n      keccak256\n        /* \"contracts/liquiditylockchatgpt.sol\":1871:1913  lockReleaseTimes[msg.sender] = releaseTime */\n      dup5\n      swap1\n      sstore\n        /* \"contracts/liquiditylockchatgpt.sol\":1980:2025  TokensLocked(msg.sender, amount, releaseTime) */\n      dup2\n      mload\n        /* \"#utility.yul\":1122:1147   */\n      dup7\n      dup2\n      mstore\n        /* \"#utility.yul\":1163:1181   */\n      swap1\n      dup2\n      add\n        /* \"#utility.yul\":1156:1190   */\n      dup5\n      swap1\n      mstore\n        /* \"contracts/liquiditylockchatgpt.sol\":1980:2025  TokensLocked(msg.sender, amount, releaseTime) */\n      0xd741e738a23fd18a03a26522320d9fc6cac1fed483e215ea9150fbc2fc43385d\n      swap2\n        /* \"#utility.yul\":1095:1113   */\n      add\n        /* \"contracts/liquiditylockchatgpt.sol\":1980:2025  TokensLocked(msg.sender, amount, releaseTime) */\n      mload(0x40)\n      dup1\n      swap2\n      sub\n      swap1\n      log2\n        /* \"contracts/liquiditylockchatgpt.sol\":1341:2033  {... */\n      pop\n        /* \"contracts/liquiditylockchatgpt.sol\":1269:2033  function lockTokens(uint256 amount, uint256 durationInSeconds) external {... */\n      pop\n      pop\n      jump\t// out\n        /* \"contracts/liquiditylockchatgpt.sol\":2107:2796  function unlockTokens() external {... */\n    tag_38:\n        /* \"contracts/liquiditylockchatgpt.sol\":2190:2200  msg.sender */\n      caller\n        /* \"contracts/liquiditylockchatgpt.sol\":2151:2172  uint256 lockedBalance */\n      0x00\n        /* \"contracts/liquiditylockchatgpt.sol\":2175:2201  lockedBalances[msg.sender] */\n      swap1\n      dup2\n      mstore\n        /* \"contracts/liquiditylockchatgpt.sol\":2175:2189  lockedBalances */\n      0x02\n        /* \"contracts/liquiditylockchatgpt.sol\":2175:2201  lockedBalances[msg.sender] */\n      0x20\n      mstore\n      0x40\n      swap1\n      keccak256\n      sload\n        /* \"contracts/liquiditylockchatgpt.sol\":2220:2237  lockedBalance > 0 */\n      dup1\n        /* \"contracts/liquiditylockchatgpt.sol\":2212:2262  require(lockedBalance > 0, \"No tokens are locked\") */\n      tag_58\n      jumpi\n      mload(0x40)\n      shl(0xe5, 0x461bcd)\n      dup2\n      mstore\n        /* \"#utility.yul\":3010:3012   */\n      0x20\n        /* \"contracts/liquiditylockchatgpt.sol\":2212:2262  require(lockedBalance > 0, \"No tokens are locked\") */\n      0x04\n      dup3\n      add\n        /* \"#utility.yul\":2992:3013   */\n      mstore\n        /* \"#utility.yul\":3049:3051   */\n      0x14\n        /* \"#utility.yul\":3029:3047   */\n      0x24\n      dup3\n      add\n        /* \"#utility.yul\":3022:3052   */\n      mstore\n      shl(0x62, 0x139bc81d1bdad95b9cc8185c99481b1bd8dad959)\n        /* \"#utility.yul\":3068:3086   */\n      0x44\n      dup3\n      add\n        /* \"#utility.yul\":3061:3111   */\n      mstore\n        /* \"#utility.yul\":3128:3146   */\n      0x64\n      add\n        /* \"contracts/liquiditylockchatgpt.sol\":2212:2262  require(lockedBalance > 0, \"No tokens are locked\") */\n      tag_41\n        /* \"#utility.yul\":2808:3152   */\n      jump\n        /* \"contracts/liquiditylockchatgpt.sol\":2212:2262  require(lockedBalance > 0, \"No tokens are locked\") */\n    tag_58:\n        /* \"contracts/liquiditylockchatgpt.sol\":2314:2324  msg.sender */\n      caller\n        /* \"contracts/liquiditylockchatgpt.sol\":2275:2294  uint256 releaseTime */\n      0x00\n        /* \"contracts/liquiditylockchatgpt.sol\":2297:2325  lockReleaseTimes[msg.sender] */\n      swap1\n      dup2\n      mstore\n        /* \"contracts/liquiditylockchatgpt.sol\":2297:2313  lockReleaseTimes */\n      0x03\n        /* \"contracts/liquiditylockchatgpt.sol\":2297:2325  lockReleaseTimes[msg.sender] */\n      0x20\n      mstore\n      0x40\n      swap1\n      keccak256\n      sload\n        /* \"contracts/liquiditylockchatgpt.sol\":2344:2359  block.timestamp */\n      timestamp\n        /* \"contracts/liquiditylockchatgpt.sol\":2344:2374  block.timestamp >= releaseTime */\n      dup2\n      gt\n      iszero\n        /* \"contracts/liquiditylockchatgpt.sol\":2336:2402  require(block.timestamp >= releaseTime, \"Tokens are still locked\") */\n      tag_61\n      jumpi\n      mload(0x40)\n      shl(0xe5, 0x461bcd)\n      dup2\n      mstore\n        /* \"#utility.yul\":3359:3361   */\n      0x20\n        /* \"contracts/liquiditylockchatgpt.sol\":2336:2402  require(block.timestamp >= releaseTime, \"Tokens are still locked\") */\n      0x04\n      dup3\n      add\n        /* \"#utility.yul\":3341:3362   */\n      mstore\n        /* \"#utility.yul\":3398:3400   */\n      0x17\n        /* \"#utility.yul\":3378:3396   */\n      0x24\n      dup3\n      add\n        /* \"#utility.yul\":3371:3401   */\n      mstore\n        /* \"#utility.yul\":3437:3462   */\n      0x546f6b656e7320617265207374696c6c206c6f636b6564000000000000000000\n        /* \"#utility.yul\":3417:3435   */\n      0x44\n      dup3\n      add\n        /* \"#utility.yul\":3410:3463   */\n      mstore\n        /* \"#utility.yul\":3480:3498   */\n      0x64\n      add\n        /* \"contracts/liquiditylockchatgpt.sol\":2336:2402  require(block.timestamp >= releaseTime, \"Tokens are still locked\") */\n      tag_41\n        /* \"#utility.yul\":3157:3504   */\n      jump\n        /* \"contracts/liquiditylockchatgpt.sol\":2336:2402  require(block.timestamp >= releaseTime, \"Tokens are still locked\") */\n    tag_61:\n        /* \"contracts/liquiditylockchatgpt.sol\":2492:2502  msg.sender */\n      caller\n        /* \"contracts/liquiditylockchatgpt.sol\":2506:2507  0 */\n      0x00\n        /* \"contracts/liquiditylockchatgpt.sol\":2477:2503  lockedBalances[msg.sender] */\n      dup2\n      dup2\n      mstore\n        /* \"contracts/liquiditylockchatgpt.sol\":2477:2491  lockedBalances */\n      0x02\n        /* \"contracts/liquiditylockchatgpt.sol\":2477:2503  lockedBalances[msg.sender] */\n      0x20\n      swap1\n      dup2\n      mstore\n      0x40\n      dup1\n      dup4\n      keccak256\n        /* \"contracts/liquiditylockchatgpt.sol\":2477:2507  lockedBalances[msg.sender] = 0 */\n      dup4\n      swap1\n      sstore\n        /* \"contracts/liquiditylockchatgpt.sol\":2518:2534  lockReleaseTimes */\n      0x03\n        /* \"contracts/liquiditylockchatgpt.sol\":2518:2546  lockReleaseTimes[msg.sender] */\n      swap1\n      swap2\n      mstore\n      dup1\n      dup3\n      keccak256\n        /* \"contracts/liquiditylockchatgpt.sol\":2518:2550  lockReleaseTimes[msg.sender] = 0 */\n      dup3\n      swap1\n      sstore\n        /* \"contracts/liquiditylockchatgpt.sol\":2627:2641  liquidityToken */\n      swap1\n      sload\n        /* \"contracts/liquiditylockchatgpt.sol\":2620:2678  IERC20(liquidityToken).transfer(msg.sender, lockedBalance) */\n      swap1\n      mload\n      shl(0xe0, 0xa9059cbb)\n      dup2\n      mstore\n      0x04\n      dup2\n      add\n        /* \"#utility.yul\":3683:3734   */\n      swap3\n      swap1\n      swap3\n      mstore\n        /* \"#utility.yul\":3750:3768   */\n      0x24\n      dup3\n      add\n        /* \"#utility.yul\":3743:3777   */\n      dup5\n      swap1\n      mstore\n      sub(shl(0xa0, 0x01), 0x01)\n        /* \"contracts/liquiditylockchatgpt.sol\":2627:2641  liquidityToken */\n      and\n      swap1\n        /* \"contracts/liquiditylockchatgpt.sol\":2620:2651  IERC20(liquidityToken).transfer */\n      0xa9059cbb\n      swap1\n        /* \"#utility.yul\":3656:3674   */\n      0x44\n      add\n        /* \"contracts/liquiditylockchatgpt.sol\":2620:2678  IERC20(liquidityToken).transfer(msg.sender, lockedBalance) */\n      0x20\n      mload(0x40)\n      dup1\n      dup4\n      sub\n      dup2\n      0x00\n      dup8\n      gas\n      call\n      iszero\n      dup1\n      iszero\n      tag_67\n      jumpi\n      returndatasize\n      0x00\n      dup1\n      returndatacopy\n      revert(0x00, returndatasize)\n    tag_67:\n      pop\n      pop\n      pop\n      pop\n      mload(0x40)\n      returndatasize\n      not(0x1f)\n      0x1f\n      dup3\n      add\n      and\n      dup3\n      add\n      dup1\n      0x40\n      mstore\n      pop\n      dup2\n      add\n      swap1\n      tag_68\n      swap2\n      swap1\n      tag_51\n      jump\t// in\n    tag_68:\n      pop\n        /* \"contracts/liquiditylockchatgpt.sol\":2747:2788  TokensUnlocked(msg.sender, lockedBalance) */\n      mload(0x40)\n        /* \"#utility.yul\":451:476   */\n      dup3\n      dup2\n      mstore\n        /* \"contracts/liquiditylockchatgpt.sol\":2762:2772  msg.sender */\n      caller\n      swap1\n        /* \"contracts/liquiditylockchatgpt.sol\":2747:2788  TokensUnlocked(msg.sender, lockedBalance) */\n      0xe7b379c6c1fa169e9079c25e9143b127637eef8ec8c9d5c06ddb4ab3e1195888\n      swap1\n        /* \"#utility.yul\":439:441   */\n      0x20\n        /* \"#utility.yul\":424:442   */\n      add\n        /* \"contracts/liquiditylockchatgpt.sol\":2747:2788  TokensUnlocked(msg.sender, lockedBalance) */\n      mload(0x40)\n      dup1\n      swap2\n      sub\n      swap1\n      log2\n        /* \"contracts/liquiditylockchatgpt.sol\":2140:2796  {... */\n      pop\n      pop\n        /* \"contracts/liquiditylockchatgpt.sol\":2107:2796  function unlockTokens() external {... */\n      jump\t// out\n        /* \"#utility.yul\":14:300   */\n    tag_13:\n        /* \"#utility.yul\":73:79   */\n      0x00\n        /* \"#utility.yul\":126:128   */\n      0x20\n        /* \"#utility.yul\":114:123   */\n      dup3\n        /* \"#utility.yul\":105:112   */\n      dup5\n        /* \"#utility.yul\":101:124   */\n      sub\n        /* \"#utility.yul\":97:129   */\n      slt\n        /* \"#utility.yul\":94:146   */\n      iszero\n      tag_72\n      jumpi\n        /* \"#utility.yul\":142:143   */\n      0x00\n        /* \"#utility.yul\":139:140   */\n      dup1\n        /* \"#utility.yul\":132:144   */\n      revert\n        /* \"#utility.yul\":94:146   */\n    tag_72:\n        /* \"#utility.yul\":168:191   */\n      dup2\n      calldataload\n      sub(shl(0xa0, 0x01), 0x01)\n        /* \"#utility.yul\":220:251   */\n      dup2\n      and\n        /* \"#utility.yul\":210:252   */\n      dup2\n      eq\n        /* \"#utility.yul\":200:270   */\n      tag_73\n      jumpi\n        /* \"#utility.yul\":266:267   */\n      0x00\n        /* \"#utility.yul\":263:264   */\n      dup1\n        /* \"#utility.yul\":256:268   */\n      revert\n        /* \"#utility.yul\":200:270   */\n    tag_73:\n        /* \"#utility.yul\":289:294   */\n      swap4\n        /* \"#utility.yul\":14:300   */\n      swap3\n      pop\n      pop\n      pop\n      jump\t// out\n        /* \"#utility.yul\":695:943   */\n    tag_27:\n        /* \"#utility.yul\":763:769   */\n      0x00\n        /* \"#utility.yul\":771:777   */\n      dup1\n        /* \"#utility.yul\":824:826   */\n      0x40\n        /* \"#utility.yul\":812:821   */\n      dup4\n        /* \"#utility.yul\":803:810   */\n      dup6\n        /* \"#utility.yul\":799:822   */\n      sub\n        /* \"#utility.yul\":795:827   */\n      slt\n        /* \"#utility.yul\":792:844   */\n      iszero\n      tag_77\n      jumpi\n        /* \"#utility.yul\":840:841   */\n      0x00\n        /* \"#utility.yul\":837:838   */\n      dup1\n        /* \"#utility.yul\":830:842   */\n      revert\n        /* \"#utility.yul\":792:844   */\n    tag_77:\n      pop\n      pop\n        /* \"#utility.yul\":863:886   */\n      dup1\n      calldataload\n      swap3\n        /* \"#utility.yul\":933:935   */\n      0x20\n        /* \"#utility.yul\":918:936   */\n      swap1\n      swap2\n      add\n        /* \"#utility.yul\":905:937   */\n      calldataload\n      swap2\n      pop\n        /* \"#utility.yul\":695:943   */\n      jump\t// out\n        /* \"#utility.yul\":2299:2576   */\n    tag_51:\n        /* \"#utility.yul\":2366:2372   */\n      0x00\n        /* \"#utility.yul\":2419:2421   */\n      0x20\n        /* \"#utility.yul\":2407:2416   */\n      dup3\n        /* \"#utility.yul\":2398:2405   */\n      dup5\n        /* \"#utility.yul\":2394:2417   */\n      sub\n        /* \"#utility.yul\":2390:2422   */\n      slt\n        /* \"#utility.yul\":2387:2439   */\n      iszero\n      tag_83\n      jumpi\n        /* \"#utility.yul\":2435:2436   */\n      0x00\n        /* \"#utility.yul\":2432:2433   */\n      dup1\n        /* \"#utility.yul\":2425:2437   */\n      revert\n        /* \"#utility.yul\":2387:2439   */\n    tag_83:\n        /* \"#utility.yul\":2467:2476   */\n      dup2\n        /* \"#utility.yul\":2461:2477   */\n      mload\n        /* \"#utility.yul\":2520:2525   */\n      dup1\n        /* \"#utility.yul\":2513:2526   */\n      iszero\n        /* \"#utility.yul\":2506:2527   */\n      iszero\n        /* \"#utility.yul\":2499:2504   */\n      dup2\n        /* \"#utility.yul\":2496:2528   */\n      eq\n        /* \"#utility.yul\":2486:2546   */\n      tag_73\n      jumpi\n        /* \"#utility.yul\":2542:2543   */\n      0x00\n        /* \"#utility.yul\":2539:2540   */\n      dup1\n        /* \"#utility.yul\":2532:2544   */\n      revert\n        /* \"#utility.yul\":2581:2803   */\n    tag_53:\n        /* \"#utility.yul\":2646:2655   */\n      dup1\n      dup3\n      add\n        /* \"#utility.yul\":2667:2677   */\n      dup1\n      dup3\n      gt\n        /* \"#utility.yul\":2664:2797   */\n      iszero\n      tag_86\n      jumpi\n        /* \"#utility.yul\":2719:2729   */\n      0x4e487b71\n        /* \"#utility.yul\":2714:2717   */\n      0xe0\n        /* \"#utility.yul\":2710:2730   */\n      shl\n        /* \"#utility.yul\":2707:2708   */\n      0x00\n        /* \"#utility.yul\":2700:2731   */\n      mstore\n        /* \"#utility.yul\":2754:2758   */\n      0x11\n        /* \"#utility.yul\":2751:2752   */\n      0x04\n        /* \"#utility.yul\":2744:2759   */\n      mstore\n        /* \"#utility.yul\":2782:2786   */\n      0x24\n        /* \"#utility.yul\":2779:2780   */\n      0x00\n        /* \"#utility.yul\":2772:2787   */\n      revert\n        /* \"#utility.yul\":2664:2797   */\n    tag_86:\n        /* \"#utility.yul\":2581:2803   */\n      swap3\n      swap2\n      pop\n      pop\n      jump\t// out\n\n    auxdata: 0xa2646970667358221220008fa363a2f31d34140a0a3ec10bd2fc59a7e1bac2ddd82db2945d4c192de32d64736f6c63430008130033\n}\n",
				"bytecode": {
					"linkReferences": {},
					"object": "608060405234801561001057600080fd5b5060405161061038038061061083398101604081905261002f9161005d565b600080546001600160a01b039092166001600160a01b0319928316179055600180549091163317905561008d565b60006020828403121561006f57600080fd5b81516001600160a01b038116811461008657600080fd5b9392505050565b6105748061009c6000396000f3fe608060405234801561001057600080fd5b506004361061007d5760003560e01c806389158d8e1161005b57806389158d8e146101005780638da5cb5b14610115578063f234eae014610128578063f968f4931461017357600080fd5b80630483a7f614610082578063207c089e146100b557806343cd8f7e146100d5575b600080fd5b6100a26100903660046104a3565b60026020526000908152604090205481565b6040519081526020015b60405180910390f35b6100a26100c33660046104a3565b60036020526000908152604090205481565b6000546100e8906001600160a01b031681565b6040516001600160a01b0390911681526020016100ac565b61011361010e3660046104d3565b61017b565b005b6001546100e8906001600160a01b031681565b61015e6101363660046104a3565b6001600160a01b03166000908152600260209081526040808320546003909252909120549091565b604080519283526020830191909152016100ac565b610113610322565b600082116101d05760405162461bcd60e51b815260206004820152601d60248201527f416d6f756e74206d7573742062652067726561746572207468616e203000000060448201526064015b60405180910390fd5b600081116102205760405162461bcd60e51b815260206004820152601f60248201527f4475726174696f6e206d7573742062652067726561746572207468616e20300060448201526064016101c7565b6000546040516323b872dd60e01b8152336004820152306024820152604481018490526001600160a01b03909116906323b872dd906064016020604051808303816000875af1158015610277573d6000803e3d6000fd5b505050506040513d601f19601f8201168201806040525081019061029b91906104f5565b5060006102a88242610517565b336000908152600260205260408120805492935085929091906102cc908490610517565b90915550503360008181526003602090815260409182902084905581518681529081018490527fd741e738a23fd18a03a26522320d9fc6cac1fed483e215ea9150fbc2fc43385d910160405180910390a2505050565b33600090815260026020526040902054806103765760405162461bcd60e51b8152602060048201526014602482015273139bc81d1bdad95b9cc8185c99481b1bd8dad95960621b60448201526064016101c7565b33600090815260036020526040902054428111156103d65760405162461bcd60e51b815260206004820152601760248201527f546f6b656e7320617265207374696c6c206c6f636b656400000000000000000060448201526064016101c7565b33600081815260026020908152604080832083905560039091528082208290559054905163a9059cbb60e01b81526004810192909252602482018490526001600160a01b03169063a9059cbb906044016020604051808303816000875af1158015610445573d6000803e3d6000fd5b505050506040513d601f19601f8201168201806040525081019061046991906104f5565b5060405182815233907fe7b379c6c1fa169e9079c25e9143b127637eef8ec8c9d5c06ddb4ab3e11958889060200160405180910390a25050565b6000602082840312156104b557600080fd5b81356001600160a01b03811681146104cc57600080fd5b9392505050565b600080604083850312156104e657600080fd5b50508035926020909101359150565b60006020828403121561050757600080fd5b815180151581146104cc57600080fd5b8082018082111561053857634e487b7160e01b600052601160045260246000fd5b9291505056fea2646970667358221220008fa363a2f31d34140a0a3ec10bd2fc59a7e1bac2ddd82db2945d4c192de32d64736f6c63430008130033",
					"opcodes": "PUSH1 0x80 PUSH1 0x40 MSTORE CALLVALUE DUP1 ISZERO PUSH2 0x10 JUMPI PUSH1 0x0 DUP1 REVERT JUMPDEST POP PUSH1 0x40 MLOAD PUSH2 0x610 CODESIZE SUB DUP1 PUSH2 0x610 DUP4 CODECOPY DUP2 ADD PUSH1 0x40 DUP2 SWAP1 MSTORE PUSH2 0x2F SWAP2 PUSH2 0x5D JUMP JUMPDEST PUSH1 0x0 DUP1 SLOAD PUSH1 0x1 PUSH1 0x1 PUSH1 0xA0 SHL SUB SWAP1 SWAP3 AND PUSH1 0x1 PUSH1 0x1 PUSH1 0xA0 SHL SUB NOT SWAP3 DUP4 AND OR SWAP1 SSTORE PUSH1 0x1 DUP1 SLOAD SWAP1 SWAP2 AND CALLER OR SWAP1 SSTORE PUSH2 0x8D JUMP JUMPDEST PUSH1 0x0 PUSH1 0x20 DUP3 DUP5 SUB SLT ISZERO PUSH2 0x6F JUMPI PUSH1 0x0 DUP1 REVERT JUMPDEST DUP2 MLOAD PUSH1 0x1 PUSH1 0x1 PUSH1 0xA0 SHL SUB DUP2 AND DUP2 EQ PUSH2 0x86 JUMPI PUSH1 0x0 DUP1 REVERT JUMPDEST SWAP4 SWAP3 POP POP POP JUMP JUMPDEST PUSH2 0x574 DUP1 PUSH2 0x9C PUSH1 0x0 CODECOPY PUSH1 0x0 RETURN INVALID PUSH1 0x80 PUSH1 0x40 MSTORE CALLVALUE DUP1 ISZERO PUSH2 0x10 JUMPI PUSH1 0x0 DUP1 REVERT JUMPDEST POP PUSH1 0x4 CALLDATASIZE LT PUSH2 0x7D JUMPI PUSH1 0x0 CALLDATALOAD PUSH1 0xE0 SHR DUP1 PUSH4 0x89158D8E GT PUSH2 0x5B JUMPI DUP1 PUSH4 0x89158D8E EQ PUSH2 0x100 JUMPI DUP1 PUSH4 0x8DA5CB5B EQ PUSH2 0x115 JUMPI DUP1 PUSH4 0xF234EAE0 EQ PUSH2 0x128 JUMPI DUP1 PUSH4 0xF968F493 EQ PUSH2 0x173 JUMPI PUSH1 0x0 DUP1 REVERT JUMPDEST DUP1 PUSH4 0x483A7F6 EQ PUSH2 0x82 JUMPI DUP1 PUSH4 0x207C089E EQ PUSH2 0xB5 JUMPI DUP1 PUSH4 0x43CD8F7E EQ PUSH2 0xD5 JUMPI JUMPDEST PUSH1 0x0 DUP1 REVERT JUMPDEST PUSH2 0xA2 PUSH2 0x90 CALLDATASIZE PUSH1 0x4 PUSH2 0x4A3 JUMP JUMPDEST PUSH1 0x2 PUSH1 0x20 MSTORE PUSH1 0x0 SWAP1 DUP2 MSTORE PUSH1 0x40 SWAP1 KECCAK256 SLOAD DUP2 JUMP JUMPDEST PUSH1 0x40 MLOAD SWAP1 DUP2 MSTORE PUSH1 0x20 ADD JUMPDEST PUSH1 0x40 MLOAD DUP1 SWAP2 SUB SWAP1 RETURN JUMPDEST PUSH2 0xA2 PUSH2 0xC3 CALLDATASIZE PUSH1 0x4 PUSH2 0x4A3 JUMP JUMPDEST PUSH1 0x3 PUSH1 0x20 MSTORE PUSH1 0x0 SWAP1 DUP2 MSTORE PUSH1 0x40 SWAP1 KECCAK256 SLOAD DUP2 JUMP JUMPDEST PUSH1 0x0 SLOAD PUSH2 0xE8 SWAP1 PUSH1 0x1 PUSH1 0x1 PUSH1 0xA0 SHL SUB AND DUP2 JUMP JUMPDEST PUSH1 0x40 MLOAD PUSH1 0x1 PUSH1 0x1 PUSH1 0xA0 SHL SUB SWAP1 SWAP2 AND DUP2 MSTORE PUSH1 0x20 ADD PUSH2 0xAC JUMP JUMPDEST PUSH2 0x113 PUSH2 0x10E CALLDATASIZE PUSH1 0x4 PUSH2 0x4D3 JUMP JUMPDEST PUSH2 0x17B JUMP JUMPDEST STOP JUMPDEST PUSH1 0x1 SLOAD PUSH2 0xE8 SWAP1 PUSH1 0x1 PUSH1 0x1 PUSH1 0xA0 SHL SUB AND DUP2 JUMP JUMPDEST PUSH2 0x15E PUSH2 0x136 CALLDATASIZE PUSH1 0x4 PUSH2 0x4A3 JUMP JUMPDEST PUSH1 0x1 PUSH1 0x1 PUSH1 0xA0 SHL SUB AND PUSH1 0x0 SWAP1 DUP2 MSTORE PUSH1 0x2 PUSH1 0x20 SWAP1 DUP2 MSTORE PUSH1 0x40 DUP1 DUP4 KECCAK256 SLOAD PUSH1 0x3 SWAP1 SWAP3 MSTORE SWAP1 SWAP2 KECCAK256 SLOAD SWAP1 SWAP2 JUMP JUMPDEST PUSH1 0x40 DUP1 MLOAD SWAP3 DUP4 MSTORE PUSH1 0x20 DUP4 ADD SWAP2 SWAP1 SWAP2 MSTORE ADD PUSH2 0xAC JUMP JUMPDEST PUSH2 0x113 PUSH2 0x322 JUMP JUMPDEST PUSH1 0x0 DUP3 GT PUSH2 0x1D0 JUMPI PUSH1 0x40 MLOAD PUSH3 0x461BCD PUSH1 0xE5 SHL DUP2 MSTORE PUSH1 0x20 PUSH1 0x4 DUP3 ADD MSTORE PUSH1 0x1D PUSH1 0x24 DUP3 ADD MSTORE PUSH32 0x416D6F756E74206D7573742062652067726561746572207468616E2030000000 PUSH1 0x44 DUP3 ADD MSTORE PUSH1 0x64 ADD JUMPDEST PUSH1 0x40 MLOAD DUP1 SWAP2 SUB SWAP1 REVERT JUMPDEST PUSH1 0x0 DUP2 GT PUSH2 0x220 JUMPI PUSH1 0x40 MLOAD PUSH3 0x461BCD PUSH1 0xE5 SHL DUP2 MSTORE PUSH1 0x20 PUSH1 0x4 DUP3 ADD MSTORE PUSH1 0x1F PUSH1 0x24 DUP3 ADD MSTORE PUSH32 0x4475726174696F6E206D7573742062652067726561746572207468616E203000 PUSH1 0x44 DUP3 ADD MSTORE PUSH1 0x64 ADD PUSH2 0x1C7 JUMP JUMPDEST PUSH1 0x0 SLOAD PUSH1 0x40 MLOAD PUSH4 0x23B872DD PUSH1 0xE0 SHL DUP2 MSTORE CALLER PUSH1 0x4 DUP3 ADD MSTORE ADDRESS PUSH1 0x24 DUP3 ADD MSTORE PUSH1 0x44 DUP2 ADD DUP5 SWAP1 MSTORE PUSH1 0x1 PUSH1 0x1 PUSH1 0xA0 SHL SUB SWAP1 SWAP2 AND SWAP1 PUSH4 0x23B872DD SWAP1 PUSH1 0x64 ADD PUSH1 0x20 PUSH1 0x40 MLOAD DUP1 DUP4 SUB DUP2 PUSH1 0x0 DUP8 GAS CALL ISZERO DUP1 ISZERO PUSH2 0x277 JUMPI RETURNDATASIZE PUSH1 0x0 DUP1 RETURNDATACOPY RETURNDATASIZE PUSH1 0x0 REVERT JUMPDEST POP POP POP POP PUSH1 0x40 MLOAD RETURNDATASIZE PUSH1 0x1F NOT PUSH1 0x1F DUP3 ADD AND DUP3 ADD DUP1 PUSH1 0x40 MSTORE POP DUP2 ADD SWAP1 PUSH2 0x29B SWAP2 SWAP1 PUSH2 0x4F5 JUMP JUMPDEST POP PUSH1 0x0 PUSH2 0x2A8 DUP3 TIMESTAMP PUSH2 0x517 JUMP JUMPDEST CALLER PUSH1 0x0 SWAP1 DUP2 MSTORE PUSH1 0x2 PUSH1 0x20 MSTORE PUSH1 0x40 DUP2 KECCAK256 DUP1 SLOAD SWAP3 SWAP4 POP DUP6 SWAP3 SWAP1 SWAP2 SWAP1 PUSH2 0x2CC SWAP1 DUP5 SWAP1 PUSH2 0x517 JUMP JUMPDEST SWAP1 SWAP2 SSTORE POP POP CALLER PUSH1 0x0 DUP2 DUP2 MSTORE PUSH1 0x3 PUSH1 0x20 SWAP1 DUP2 MSTORE PUSH1 0x40 SWAP2 DUP3 SWAP1 KECCAK256 DUP5 SWAP1 SSTORE DUP2 MLOAD DUP7 DUP2 MSTORE SWAP1 DUP2 ADD DUP5 SWAP1 MSTORE PUSH32 0xD741E738A23FD18A03A26522320D9FC6CAC1FED483E215EA9150FBC2FC43385D SWAP2 ADD PUSH1 0x40 MLOAD DUP1 SWAP2 SUB SWAP1 LOG2 POP POP POP JUMP JUMPDEST CALLER PUSH1 0x0 SWAP1 DUP2 MSTORE PUSH1 0x2 PUSH1 0x20 MSTORE PUSH1 0x40 SWAP1 KECCAK256 SLOAD DUP1 PUSH2 0x376 JUMPI PUSH1 0x40 MLOAD PUSH3 0x461BCD PUSH1 0xE5 SHL DUP2 MSTORE PUSH1 0x20 PUSH1 0x4 DUP3 ADD MSTORE PUSH1 0x14 PUSH1 0x24 DUP3 ADD MSTORE PUSH20 0x139BC81D1BDAD95B9CC8185C99481B1BD8DAD959 PUSH1 0x62 SHL PUSH1 0x44 DUP3 ADD MSTORE PUSH1 0x64 ADD PUSH2 0x1C7 JUMP JUMPDEST CALLER PUSH1 0x0 SWAP1 DUP2 MSTORE PUSH1 0x3 PUSH1 0x20 MSTORE PUSH1 0x40 SWAP1 KECCAK256 SLOAD TIMESTAMP DUP2 GT ISZERO PUSH2 0x3D6 JUMPI PUSH1 0x40 MLOAD PUSH3 0x461BCD PUSH1 0xE5 SHL DUP2 MSTORE PUSH1 0x20 PUSH1 0x4 DUP3 ADD MSTORE PUSH1 0x17 PUSH1 0x24 DUP3 ADD MSTORE PUSH32 0x546F6B656E7320617265207374696C6C206C6F636B6564000000000000000000 PUSH1 0x44 DUP3 ADD MSTORE PUSH1 0x64 ADD PUSH2 0x1C7 JUMP JUMPDEST CALLER PUSH1 0x0 DUP2 DUP2 MSTORE PUSH1 0x2 PUSH1 0x20 SWAP1 DUP2 MSTORE PUSH1 0x40 DUP1 DUP4 KECCAK256 DUP4 SWAP1 SSTORE PUSH1 0x3 SWAP1 SWAP2 MSTORE DUP1 DUP3 KECCAK256 DUP3 SWAP1 SSTORE SWAP1 SLOAD SWAP1 MLOAD PUSH4 0xA9059CBB PUSH1 0xE0 SHL DUP2 MSTORE PUSH1 0x4 DUP2 ADD SWAP3 SWAP1 SWAP3 MSTORE PUSH1 0x24 DUP3 ADD DUP5 SWAP1 MSTORE PUSH1 0x1 PUSH1 0x1 PUSH1 0xA0 SHL SUB AND SWAP1 PUSH4 0xA9059CBB SWAP1 PUSH1 0x44 ADD PUSH1 0x20 PUSH1 0x40 MLOAD DUP1 DUP4 SUB DUP2 PUSH1 0x0 DUP8 GAS CALL ISZERO DUP1 ISZERO PUSH2 0x445 JUMPI RETURNDATASIZE PUSH1 0x0 DUP1 RETURNDATACOPY RETURNDATASIZE PUSH1 0x0 REVERT JUMPDEST POP POP POP POP PUSH1 0x40 MLOAD RETURNDATASIZE PUSH1 0x1F NOT PUSH1 0x1F DUP3 ADD AND DUP3 ADD DUP1 PUSH1 0x40 MSTORE POP DUP2 ADD SWAP1 PUSH2 0x469 SWAP2 SWAP1 PUSH2 0x4F5 JUMP JUMPDEST POP PUSH1 0x40 MLOAD DUP3 DUP2 MSTORE CALLER SWAP1 PUSH32 0xE7B379C6C1FA169E9079C25E9143B127637EEF8EC8C9D5C06DDB4AB3E1195888 SWAP1 PUSH1 0x20 ADD PUSH1 0x40 MLOAD DUP1 SWAP2 SUB SWAP1 LOG2 POP POP JUMP JUMPDEST PUSH1 0x0 PUSH1 0x20 DUP3 DUP5 SUB SLT ISZERO PUSH2 0x4B5 JUMPI PUSH1 0x0 DUP1 REVERT JUMPDEST DUP2 CALLDATALOAD PUSH1 0x1 PUSH1 0x1 PUSH1 0xA0 SHL SUB DUP2 AND DUP2 EQ PUSH2 0x4CC JUMPI PUSH1 0x0 DUP1 REVERT JUMPDEST SWAP4 SWAP3 POP POP POP JUMP JUMPDEST PUSH1 0x0 DUP1 PUSH1 0x40 DUP4 DUP6 SUB SLT ISZERO PUSH2 0x4E6 JUMPI PUSH1 0x0 DUP1 REVERT JUMPDEST POP POP DUP1 CALLDATALOAD SWAP3 PUSH1 0x20 SWAP1 SWAP2 ADD CALLDATALOAD SWAP2 POP JUMP JUMPDEST PUSH1 0x0 PUSH1 0x20 DUP3 DUP5 SUB SLT ISZERO PUSH2 0x507 JUMPI PUSH1 0x0 DUP1 REVERT JUMPDEST DUP2 MLOAD DUP1 ISZERO ISZERO DUP2 EQ PUSH2 0x4CC JUMPI PUSH1 0x0 DUP1 REVERT JUMPDEST DUP1 DUP3 ADD DUP1 DUP3 GT ISZERO PUSH2 0x538 JUMPI PUSH4 0x4E487B71 PUSH1 0xE0 SHL PUSH1 0x0 MSTORE PUSH1 0x11 PUSH1 0x4 MSTORE PUSH1 0x24 PUSH1 0x0 REVERT JUMPDEST SWAP3 SWAP2 POP POP JUMP INVALID LOG2 PUSH5 0x6970667358 0x22 SLT KECCAK256 STOP DUP16 LOG3 PUSH4 0xA2F31D34 EQ EXP EXP RETURNDATACOPY 0xC1 SIGNEXTEND 0xD2 0xFC MSIZE 0xA7 0xE1 0xBA 0xC2 0xDD 0xD8 0x2D 0xB2 SWAP5 0x5D 0x4C NOT 0x2D 0xE3 0x2D PUSH5 0x736F6C6343 STOP ADDMOD SGT STOP CALLER "
				},
				"gasEstimates": {
					"creation": {
						"codeDepositCost": "279200",
						"executionCost": "infinite",
						"totalCost": "infinite"
					},
					"external": {
						"getUserLockDetails(address)": "4742",
						"liquidityToken()": "2382",
						"lockReleaseTimes(address)": "2496",
						"lockTokens(uint256,uint256)": "infinite",
						"lockedBalances(address)": "2474",
						"owner()": "2359",
						"unlockTokens()": "infinite"
					}
				},
				"methodIdentifiers": {
					"getUserLockDetails(address)": "f234eae0",
					"liquidityToken()": "43cd8f7e",
					"lockReleaseTimes(address)": "207c089e",
					"lockTokens(uint256,uint256)": "89158d8e",
					"lockedBalances(address)": "0483a7f6",
					"owner()": "8da5cb5b",
					"unlockTokens()": "f968f493"
				}
			},
			"storageLayout": {
				"storage": [
					{
						"astId": 82,
						"contract": "contracts/liquiditylockchatgpt.sol:LiquidityPoolLock",
						"label": "liquidityToken",
						"offset": 0,
						"slot": "0",
						"type": "t_address"
					},
					{
						"astId": 84,
						"contract": "contracts/liquiditylockchatgpt.sol:LiquidityPoolLock",
						"label": "owner",
						"offset": 0,
						"slot": "1",
						"type": "t_address"
					},
					{
						"astId": 88,
						"contract": "contracts/liquiditylockchatgpt.sol:LiquidityPoolLock",
						"label": "lockedBalances",
						"offset": 0,
						"slot": "2",
						"type": "t_mapping(t_address,t_uint256)"
					},
					{
						"astId": 92,
						"contract": "contracts/liquiditylockchatgpt.sol:LiquidityPoolLock",
						"label": "lockReleaseTimes",
						"offset": 0,
						"slot": "3",
						"type": "t_mapping(t_address,t_uint256)"
					}
				],
				"types": {
					"t_address": {
						"encoding": "inplace",
						"label": "address",
						"numberOfBytes": "20"
					},
					"t_mapping(t_address,t_uint256)": {
						"encoding": "mapping",
						"key": "t_address",
						"label": "mapping(address => uint256)",
						"numberOfBytes": "32",
						"value": "t_uint256"
					},
					"t_uint256": {
						"encoding": "inplace",
						"label": "uint256",
						"numberOfBytes": "32"
					}
				}
			},
			"userdoc": {
				"kind": "user",
				"methods": {},
				"version": 1
			}
		}
	}
}