{
	"contracts/autotrader.sol": {
		"AutoTrader": {
			"abi": [
				{
					"inputs": [
						{
							"internalType": "address",
							"name": "_uniswap",
							"type": "address"
						},
						{
							"internalType": "address",
							"name": "_tokenAddress",
							"type": "address"
						},
						{
							"internalType": "uint256",
							"name": "_tradeAmount",
							"type": "uint256"
						}
					],
					"stateMutability": "nonpayable",
					"type": "constructor"
				},
				{
					"inputs": [
						{
							"internalType": "address[]",
							"name": "path",
							"type": "address[]"
						},
						{
							"internalType": "uint256",
							"name": "amountOutMin",
							"type": "uint256"
						}
					],
					"name": "executeTrade",
					"outputs": [],
					"stateMutability": "nonpayable",
					"type": "function"
				}
			],
			"devdoc": {
				"kind": "dev",
				"methods": {},
				"version": 1
			},
			"evm": {
				"assembly": "    /* \"contracts/autotrader.sol\":497:2094  contract AutoTrader {... */\n  mstore(0x40, 0x80)\n    /* \"contracts/autotrader.sol\":633:872  constructor(address _uniswap, address _tokenAddress, uint256 _tradeAmount) {... */\n  callvalue\n  dup1\n  iszero\n  tag_1\n  jumpi\n  0x00\n  dup1\n  revert\ntag_1:\n  pop\n  mload(0x40)\n  sub(codesize, bytecodeSize)\n  dup1\n  bytecodeSize\n  dup4\n  codecopy\n  dup2\n  dup2\n  add\n  0x40\n  mstore\n  dup2\n  add\n  swap1\n  tag_2\n  swap2\n  swap1\n  tag_3\n  jump\t// in\ntag_2:\n    /* \"contracts/autotrader.sol\":738:746  _uniswap */\n  dup3\n    /* \"contracts/autotrader.sol\":719:726  uniswap */\n  0x00\n  dup1\n    /* \"contracts/autotrader.sol\":719:747  uniswap = IUniswap(_uniswap) */\n  0x0100\n  exp\n  dup2\n  sload\n  dup2\n  0xffffffffffffffffffffffffffffffffffffffff\n  mul\n  not\n  and\n  swap1\n  dup4\n  0xffffffffffffffffffffffffffffffffffffffff\n  and\n  mul\n  or\n  swap1\n  sstore\n  pop\n    /* \"contracts/autotrader.sol\":777:787  msg.sender */\n  caller\n    /* \"contracts/autotrader.sol\":758:766  deployer */\n  0x01\n  0x00\n    /* \"contracts/autotrader.sol\":758:788  deployer = payable(msg.sender) */\n  0x0100\n  exp\n  dup2\n  sload\n  dup2\n  0xffffffffffffffffffffffffffffffffffffffff\n  mul\n  not\n  and\n  swap1\n  dup4\n  0xffffffffffffffffffffffffffffffffffffffff\n  and\n  mul\n  or\n  swap1\n  sstore\n  pop\n    /* \"contracts/autotrader.sol\":814:827  _tokenAddress */\n  dup2\n    /* \"contracts/autotrader.sol\":799:811  tokenAddress */\n  0x02\n  0x00\n    /* \"contracts/autotrader.sol\":799:827  tokenAddress = _tokenAddress */\n  0x0100\n  exp\n  dup2\n  sload\n  dup2\n  0xffffffffffffffffffffffffffffffffffffffff\n  mul\n  not\n  and\n  swap1\n  dup4\n  0xffffffffffffffffffffffffffffffffffffffff\n  and\n  mul\n  or\n  swap1\n  sstore\n  pop\n    /* \"contracts/autotrader.sol\":852:864  _tradeAmount */\n  dup1\n    /* \"contracts/autotrader.sol\":838:849  tradeAmount */\n  0x03\n    /* \"contracts/autotrader.sol\":838:864  tradeAmount = _tradeAmount */\n  dup2\n  swap1\n  sstore\n  pop\n    /* \"contracts/autotrader.sol\":633:872  constructor(address _uniswap, address _tokenAddress, uint256 _tradeAmount) {... */\n  pop\n  pop\n  pop\n    /* \"contracts/autotrader.sol\":497:2094  contract AutoTrader {... */\n  jump(tag_6)\n    /* \"#utility.yul\":88:205   */\ntag_8:\n    /* \"#utility.yul\":197:198   */\n  0x00\n    /* \"#utility.yul\":194:195   */\n  dup1\n    /* \"#utility.yul\":187:199   */\n  revert\n    /* \"#utility.yul\":334:460   */\ntag_10:\n    /* \"#utility.yul\":371:378   */\n  0x00\n    /* \"#utility.yul\":411:453   */\n  0xffffffffffffffffffffffffffffffffffffffff\n    /* \"#utility.yul\":404:409   */\n  dup3\n    /* \"#utility.yul\":400:454   */\n  and\n    /* \"#utility.yul\":389:454   */\n  swap1\n  pop\n    /* \"#utility.yul\":334:460   */\n  swap2\n  swap1\n  pop\n  jump\t// out\n    /* \"#utility.yul\":466:562   */\ntag_11:\n    /* \"#utility.yul\":503:510   */\n  0x00\n    /* \"#utility.yul\":532:556   */\n  tag_23\n    /* \"#utility.yul\":550:555   */\n  dup3\n    /* \"#utility.yul\":532:556   */\n  tag_10\n  jump\t// in\ntag_23:\n    /* \"#utility.yul\":521:556   */\n  swap1\n  pop\n    /* \"#utility.yul\":466:562   */\n  swap2\n  swap1\n  pop\n  jump\t// out\n    /* \"#utility.yul\":568:690   */\ntag_12:\n    /* \"#utility.yul\":641:665   */\n  tag_25\n    /* \"#utility.yul\":659:664   */\n  dup2\n    /* \"#utility.yul\":641:665   */\n  tag_11\n  jump\t// in\ntag_25:\n    /* \"#utility.yul\":634:639   */\n  dup2\n    /* \"#utility.yul\":631:666   */\n  eq\n    /* \"#utility.yul\":621:684   */\n  tag_26\n  jumpi\n    /* \"#utility.yul\":680:681   */\n  0x00\n    /* \"#utility.yul\":677:678   */\n  dup1\n    /* \"#utility.yul\":670:682   */\n  revert\n    /* \"#utility.yul\":621:684   */\ntag_26:\n    /* \"#utility.yul\":568:690   */\n  pop\n  jump\t// out\n    /* \"#utility.yul\":696:839   */\ntag_13:\n    /* \"#utility.yul\":753:758   */\n  0x00\n    /* \"#utility.yul\":784:790   */\n  dup2\n    /* \"#utility.yul\":778:791   */\n  mload\n    /* \"#utility.yul\":769:791   */\n  swap1\n  pop\n    /* \"#utility.yul\":800:833   */\n  tag_28\n    /* \"#utility.yul\":827:832   */\n  dup2\n    /* \"#utility.yul\":800:833   */\n  tag_12\n  jump\t// in\ntag_28:\n    /* \"#utility.yul\":696:839   */\n  swap3\n  swap2\n  pop\n  pop\n  jump\t// out\n    /* \"#utility.yul\":845:922   */\ntag_14:\n    /* \"#utility.yul\":882:889   */\n  0x00\n    /* \"#utility.yul\":911:916   */\n  dup2\n    /* \"#utility.yul\":900:916   */\n  swap1\n  pop\n    /* \"#utility.yul\":845:922   */\n  swap2\n  swap1\n  pop\n  jump\t// out\n    /* \"#utility.yul\":928:1050   */\ntag_15:\n    /* \"#utility.yul\":1001:1025   */\n  tag_31\n    /* \"#utility.yul\":1019:1024   */\n  dup2\n    /* \"#utility.yul\":1001:1025   */\n  tag_14\n  jump\t// in\ntag_31:\n    /* \"#utility.yul\":994:999   */\n  dup2\n    /* \"#utility.yul\":991:1026   */\n  eq\n    /* \"#utility.yul\":981:1044   */\n  tag_32\n  jumpi\n    /* \"#utility.yul\":1040:1041   */\n  0x00\n    /* \"#utility.yul\":1037:1038   */\n  dup1\n    /* \"#utility.yul\":1030:1042   */\n  revert\n    /* \"#utility.yul\":981:1044   */\ntag_32:\n    /* \"#utility.yul\":928:1050   */\n  pop\n  jump\t// out\n    /* \"#utility.yul\":1056:1199   */\ntag_16:\n    /* \"#utility.yul\":1113:1118   */\n  0x00\n    /* \"#utility.yul\":1144:1150   */\n  dup2\n    /* \"#utility.yul\":1138:1151   */\n  mload\n    /* \"#utility.yul\":1129:1151   */\n  swap1\n  pop\n    /* \"#utility.yul\":1160:1193   */\n  tag_34\n    /* \"#utility.yul\":1187:1192   */\n  dup2\n    /* \"#utility.yul\":1160:1193   */\n  tag_15\n  jump\t// in\ntag_34:\n    /* \"#utility.yul\":1056:1199   */\n  swap3\n  swap2\n  pop\n  pop\n  jump\t// out\n    /* \"#utility.yul\":1205:1868   */\ntag_3:\n    /* \"#utility.yul\":1293:1299   */\n  0x00\n    /* \"#utility.yul\":1301:1307   */\n  dup1\n    /* \"#utility.yul\":1309:1315   */\n  0x00\n    /* \"#utility.yul\":1358:1360   */\n  0x60\n    /* \"#utility.yul\":1346:1355   */\n  dup5\n    /* \"#utility.yul\":1337:1344   */\n  dup7\n    /* \"#utility.yul\":1333:1356   */\n  sub\n    /* \"#utility.yul\":1329:1361   */\n  slt\n    /* \"#utility.yul\":1326:1445   */\n  iszero\n  tag_36\n  jumpi\n    /* \"#utility.yul\":1364:1443   */\n  tag_37\n  tag_8\n  jump\t// in\ntag_37:\n    /* \"#utility.yul\":1326:1445   */\ntag_36:\n    /* \"#utility.yul\":1484:1485   */\n  0x00\n    /* \"#utility.yul\":1509:1573   */\n  tag_38\n    /* \"#utility.yul\":1565:1572   */\n  dup7\n    /* \"#utility.yul\":1556:1562   */\n  dup3\n    /* \"#utility.yul\":1545:1554   */\n  dup8\n    /* \"#utility.yul\":1541:1563   */\n  add\n    /* \"#utility.yul\":1509:1573   */\n  tag_13\n  jump\t// in\ntag_38:\n    /* \"#utility.yul\":1499:1573   */\n  swap4\n  pop\n    /* \"#utility.yul\":1455:1583   */\n  pop\n    /* \"#utility.yul\":1622:1624   */\n  0x20\n    /* \"#utility.yul\":1648:1712   */\n  tag_39\n    /* \"#utility.yul\":1704:1711   */\n  dup7\n    /* \"#utility.yul\":1695:1701   */\n  dup3\n    /* \"#utility.yul\":1684:1693   */\n  dup8\n    /* \"#utility.yul\":1680:1702   */\n  add\n    /* \"#utility.yul\":1648:1712   */\n  tag_13\n  jump\t// in\ntag_39:\n    /* \"#utility.yul\":1638:1712   */\n  swap3\n  pop\n    /* \"#utility.yul\":1593:1722   */\n  pop\n    /* \"#utility.yul\":1761:1763   */\n  0x40\n    /* \"#utility.yul\":1787:1851   */\n  tag_40\n    /* \"#utility.yul\":1843:1850   */\n  dup7\n    /* \"#utility.yul\":1834:1840   */\n  dup3\n    /* \"#utility.yul\":1823:1832   */\n  dup8\n    /* \"#utility.yul\":1819:1841   */\n  add\n    /* \"#utility.yul\":1787:1851   */\n  tag_16\n  jump\t// in\ntag_40:\n    /* \"#utility.yul\":1777:1851   */\n  swap2\n  pop\n    /* \"#utility.yul\":1732:1861   */\n  pop\n    /* \"#utility.yul\":1205:1868   */\n  swap3\n  pop\n  swap3\n  pop\n  swap3\n  jump\t// out\n    /* \"contracts/autotrader.sol\":497:2094  contract AutoTrader {... */\ntag_6:\n  dataSize(sub_0)\n  dup1\n  dataOffset(sub_0)\n  0x00\n  codecopy\n  0x00\n  return\nstop\n\nsub_0: assembly {\n        /* \"contracts/autotrader.sol\":497:2094  contract AutoTrader {... */\n      mstore(0x40, 0x80)\n      callvalue\n      dup1\n      iszero\n      tag_1\n      jumpi\n      0x00\n      dup1\n      revert\n    tag_1:\n      pop\n      jumpi(tag_2, lt(calldatasize, 0x04))\n      shr(0xe0, calldataload(0x00))\n      dup1\n      0x88e52310\n      eq\n      tag_3\n      jumpi\n    tag_2:\n      0x00\n      dup1\n      revert\n        /* \"contracts/autotrader.sol\":880:2089  function executeTrade(address[] calldata path, uint256 amountOutMin) external {... */\n    tag_3:\n      tag_4\n      0x04\n      dup1\n      calldatasize\n      sub\n      dup2\n      add\n      swap1\n      tag_5\n      swap2\n      swap1\n      tag_6\n      jump\t// in\n    tag_5:\n      tag_7\n      jump\t// in\n    tag_4:\n      stop\n    tag_7:\n        /* \"contracts/autotrader.sol\":987:995  deployer */\n      0x01\n      0x00\n      swap1\n      sload\n      swap1\n      0x0100\n      exp\n      swap1\n      div\n      0xffffffffffffffffffffffffffffffffffffffff\n      and\n        /* \"contracts/autotrader.sol\":973:995  msg.sender == deployer */\n      0xffffffffffffffffffffffffffffffffffffffff\n      and\n        /* \"contracts/autotrader.sol\":973:983  msg.sender */\n      caller\n        /* \"contracts/autotrader.sol\":973:995  msg.sender == deployer */\n      0xffffffffffffffffffffffffffffffffffffffff\n      and\n      eq\n        /* \"contracts/autotrader.sol\":965:1036  require(msg.sender == deployer, \"Only the deployer can execute trades\") */\n      tag_9\n      jumpi\n      mload(0x40)\n      0x08c379a000000000000000000000000000000000000000000000000000000000\n      dup2\n      mstore\n      0x04\n      add\n      tag_10\n      swap1\n      tag_11\n      jump\t// in\n    tag_10:\n      mload(0x40)\n      dup1\n      swap2\n      sub\n      swap1\n      revert\n    tag_9:\n        /* \"contracts/autotrader.sol\":1094:1121  uint256 initialTokenBalance */\n      0x00\n        /* \"contracts/autotrader.sol\":1131:1143  tokenAddress */\n      0x02\n      0x00\n      swap1\n      sload\n      swap1\n      0x0100\n      exp\n      swap1\n      div\n      0xffffffffffffffffffffffffffffffffffffffff\n      and\n        /* \"contracts/autotrader.sol\":1124:1154  IERC20(tokenAddress).balanceOf */\n      0xffffffffffffffffffffffffffffffffffffffff\n      and\n      0x70a08231\n        /* \"contracts/autotrader.sol\":1163:1167  this */\n      address\n        /* \"contracts/autotrader.sol\":1124:1169  IERC20(tokenAddress).balanceOf(address(this)) */\n      mload(0x40)\n      dup3\n      0xffffffff\n      and\n      0xe0\n      shl\n      dup2\n      mstore\n      0x04\n      add\n      tag_12\n      swap2\n      swap1\n      tag_13\n      jump\t// in\n    tag_12:\n      0x20\n      mload(0x40)\n      dup1\n      dup4\n      sub\n      dup2\n      dup7\n      gas\n      staticcall\n      iszero\n      dup1\n      iszero\n      tag_15\n      jumpi\n      returndatasize\n      0x00\n      dup1\n      returndatacopy\n      revert(0x00, returndatasize)\n    tag_15:\n      pop\n      pop\n      pop\n      pop\n      mload(0x40)\n      returndatasize\n      not(0x1f)\n      0x1f\n      dup3\n      add\n      and\n      dup3\n      add\n      dup1\n      0x40\n      mstore\n      pop\n      dup2\n      add\n      swap1\n      tag_16\n      swap2\n      swap1\n      tag_17\n      jump\t// in\n    tag_16:\n        /* \"contracts/autotrader.sol\":1094:1169  uint256 initialTokenBalance = IERC20(tokenAddress).balanceOf(address(this)) */\n      swap1\n      pop\n        /* \"contracts/autotrader.sol\":1206:1207  0 */\n      0x00\n        /* \"contracts/autotrader.sol\":1184:1203  initialTokenBalance */\n      dup2\n        /* \"contracts/autotrader.sol\":1184:1207  initialTokenBalance > 0 */\n      gt\n        /* \"contracts/autotrader.sol\":1176:1229  require(initialTokenBalance > 0, \"No tokens to sell\") */\n      tag_18\n      jumpi\n      mload(0x40)\n      0x08c379a000000000000000000000000000000000000000000000000000000000\n      dup2\n      mstore\n      0x04\n      add\n      tag_19\n      swap1\n      tag_20\n      jump\t// in\n    tag_19:\n      mload(0x40)\n      dup1\n      swap2\n      sub\n      swap1\n      revert\n    tag_18:\n        /* \"contracts/autotrader.sol\":1264:1271  uniswap */\n      0x00\n      dup1\n      sload\n      swap1\n      0x0100\n      exp\n      swap1\n      div\n      0xffffffffffffffffffffffffffffffffffffffff\n      and\n        /* \"contracts/autotrader.sol\":1264:1296  uniswap.swapExactTokensForTokens */\n      0xffffffffffffffffffffffffffffffffffffffff\n      and\n      0x38ed1739\n        /* \"contracts/autotrader.sol\":1297:1308  tradeAmount */\n      sload(0x03)\n        /* \"contracts/autotrader.sol\":1310:1322  amountOutMin */\n      dup5\n        /* \"contracts/autotrader.sol\":1324:1328  path */\n      dup8\n      dup8\n        /* \"contracts/autotrader.sol\":1338:1342  this */\n      address\n        /* \"contracts/autotrader.sol\":1345:1360  block.timestamp */\n      timestamp\n        /* \"contracts/autotrader.sol\":1264:1361  uniswap.swapExactTokensForTokens(tradeAmount, amountOutMin, path, address(this), block.timestamp) */\n      mload(0x40)\n      dup8\n      0xffffffff\n      and\n      0xe0\n      shl\n      dup2\n      mstore\n      0x04\n      add\n      tag_21\n      swap7\n      swap6\n      swap5\n      swap4\n      swap3\n      swap2\n      swap1\n      tag_22\n      jump\t// in\n    tag_21:\n      0x00\n      mload(0x40)\n      dup1\n      dup4\n      sub\n      dup2\n      0x00\n      dup8\n      gas\n      call\n      iszero\n      dup1\n      iszero\n      tag_24\n      jumpi\n      returndatasize\n      0x00\n      dup1\n      returndatacopy\n      revert(0x00, returndatasize)\n    tag_24:\n      pop\n      pop\n      pop\n      pop\n      mload(0x40)\n      returndatasize\n      0x00\n      dup3\n      returndatacopy\n      returndatasize\n      not(0x1f)\n      0x1f\n      dup3\n      add\n      and\n      dup3\n      add\n      dup1\n      0x40\n      mstore\n      pop\n      dup2\n      add\n      swap1\n      tag_25\n      swap2\n      swap1\n      tag_26\n      jump\t// in\n    tag_25:\n      pop\n        /* \"contracts/autotrader.sol\":1406:1431  uint256 finalTokenBalance */\n      0x00\n        /* \"contracts/autotrader.sol\":1441:1453  tokenAddress */\n      0x02\n      0x00\n      swap1\n      sload\n      swap1\n      0x0100\n      exp\n      swap1\n      div\n      0xffffffffffffffffffffffffffffffffffffffff\n      and\n        /* \"contracts/autotrader.sol\":1434:1464  IERC20(tokenAddress).balanceOf */\n      0xffffffffffffffffffffffffffffffffffffffff\n      and\n      0x70a08231\n        /* \"contracts/autotrader.sol\":1473:1477  this */\n      address\n        /* \"contracts/autotrader.sol\":1434:1479  IERC20(tokenAddress).balanceOf(address(this)) */\n      mload(0x40)\n      dup3\n      0xffffffff\n      and\n      0xe0\n      shl\n      dup2\n      mstore\n      0x04\n      add\n      tag_27\n      swap2\n      swap1\n      tag_13\n      jump\t// in\n    tag_27:\n      0x20\n      mload(0x40)\n      dup1\n      dup4\n      sub\n      dup2\n      dup7\n      gas\n      staticcall\n      iszero\n      dup1\n      iszero\n      tag_29\n      jumpi\n      returndatasize\n      0x00\n      dup1\n      returndatacopy\n      revert(0x00, returndatasize)\n    tag_29:\n      pop\n      pop\n      pop\n      pop\n      mload(0x40)\n      returndatasize\n      not(0x1f)\n      0x1f\n      dup3\n      add\n      and\n      dup3\n      add\n      dup1\n      0x40\n      mstore\n      pop\n      dup2\n      add\n      swap1\n      tag_30\n      swap2\n      swap1\n      tag_17\n      jump\t// in\n    tag_30:\n        /* \"contracts/autotrader.sol\":1406:1479  uint256 finalTokenBalance = IERC20(tokenAddress).balanceOf(address(this)) */\n      swap1\n      pop\n        /* \"contracts/autotrader.sol\":1514:1515  0 */\n      0x00\n        /* \"contracts/autotrader.sol\":1494:1511  finalTokenBalance */\n      dup2\n        /* \"contracts/autotrader.sol\":1494:1515  finalTokenBalance > 0 */\n      gt\n        /* \"contracts/autotrader.sol\":1486:1537  require(finalTokenBalance > 0, \"No tokens to sell\") */\n      tag_31\n      jumpi\n      mload(0x40)\n      0x08c379a000000000000000000000000000000000000000000000000000000000\n      dup2\n      mstore\n      0x04\n      add\n      tag_32\n      swap1\n      tag_20\n      jump\t// in\n    tag_32:\n      mload(0x40)\n      dup1\n      swap2\n      sub\n      swap1\n      revert\n    tag_31:\n        /* \"contracts/autotrader.sol\":1544:1564  uint256 tokensToSell */\n      0x00\n        /* \"contracts/autotrader.sol\":1587:1606  initialTokenBalance */\n      dup3\n        /* \"contracts/autotrader.sol\":1567:1584  finalTokenBalance */\n      dup3\n        /* \"contracts/autotrader.sol\":1567:1606  finalTokenBalance - initialTokenBalance */\n      tag_33\n      swap2\n      swap1\n      tag_34\n      jump\t// in\n    tag_33:\n        /* \"contracts/autotrader.sol\":1544:1606  uint256 tokensToSell = finalTokenBalance - initialTokenBalance */\n      swap1\n      pop\n        /* \"contracts/autotrader.sol\":1622:1634  tokenAddress */\n      0x02\n      0x00\n      swap1\n      sload\n      swap1\n      0x0100\n      exp\n      swap1\n      div\n      0xffffffffffffffffffffffffffffffffffffffff\n      and\n        /* \"contracts/autotrader.sol\":1615:1643  IERC20(tokenAddress).approve */\n      0xffffffffffffffffffffffffffffffffffffffff\n      and\n      0x095ea7b3\n        /* \"contracts/autotrader.sol\":1652:1659  uniswap */\n      0x00\n      dup1\n      sload\n      swap1\n      0x0100\n      exp\n      swap1\n      div\n      0xffffffffffffffffffffffffffffffffffffffff\n      and\n        /* \"contracts/autotrader.sol\":1662:1674  tokensToSell */\n      dup4\n        /* \"contracts/autotrader.sol\":1615:1675  IERC20(tokenAddress).approve(address(uniswap), tokensToSell) */\n      mload(0x40)\n      dup4\n      0xffffffff\n      and\n      0xe0\n      shl\n      dup2\n      mstore\n      0x04\n      add\n      tag_35\n      swap3\n      swap2\n      swap1\n      tag_36\n      jump\t// in\n    tag_35:\n      0x20\n      mload(0x40)\n      dup1\n      dup4\n      sub\n      dup2\n      0x00\n      dup8\n      gas\n      call\n      iszero\n      dup1\n      iszero\n      tag_38\n      jumpi\n      returndatasize\n      0x00\n      dup1\n      returndatacopy\n      revert(0x00, returndatasize)\n    tag_38:\n      pop\n      pop\n      pop\n      pop\n      mload(0x40)\n      returndatasize\n      not(0x1f)\n      0x1f\n      dup3\n      add\n      and\n      dup3\n      add\n      dup1\n      0x40\n      mstore\n      pop\n      dup2\n      add\n      swap1\n      tag_39\n      swap2\n      swap1\n      tag_40\n      jump\t// in\n    tag_39:\n      pop\n        /* \"contracts/autotrader.sol\":1682:1689  uniswap */\n      0x00\n      dup1\n      sload\n      swap1\n      0x0100\n      exp\n      swap1\n      div\n      0xffffffffffffffffffffffffffffffffffffffff\n      and\n        /* \"contracts/autotrader.sol\":1682:1714  uniswap.swapExactTokensForTokens */\n      0xffffffffffffffffffffffffffffffffffffffff\n      and\n      0x38ed1739\n        /* \"contracts/autotrader.sol\":1715:1727  tokensToSell */\n      dup3\n        /* \"contracts/autotrader.sol\":1729:1730  0 */\n      0x00\n        /* \"contracts/autotrader.sol\":1732:1736  path */\n      dup10\n      dup10\n        /* \"contracts/autotrader.sol\":1746:1750  this */\n      address\n        /* \"contracts/autotrader.sol\":1753:1768  block.timestamp */\n      timestamp\n        /* \"contracts/autotrader.sol\":1682:1769  uniswap.swapExactTokensForTokens(tokensToSell, 0, path, address(this), block.timestamp) */\n      mload(0x40)\n      dup8\n      0xffffffff\n      and\n      0xe0\n      shl\n      dup2\n      mstore\n      0x04\n      add\n      tag_41\n      swap7\n      swap6\n      swap5\n      swap4\n      swap3\n      swap2\n      swap1\n      tag_42\n      jump\t// in\n    tag_41:\n      0x00\n      mload(0x40)\n      dup1\n      dup4\n      sub\n      dup2\n      0x00\n      dup8\n      gas\n      call\n      iszero\n      dup1\n      iszero\n      tag_44\n      jumpi\n      returndatasize\n      0x00\n      dup1\n      returndatacopy\n      revert(0x00, returndatasize)\n    tag_44:\n      pop\n      pop\n      pop\n      pop\n      mload(0x40)\n      returndatasize\n      0x00\n      dup3\n      returndatacopy\n      returndatasize\n      not(0x1f)\n      0x1f\n      dup3\n      add\n      and\n      dup3\n      add\n      dup1\n      0x40\n      mstore\n      pop\n      dup2\n      add\n      swap1\n      tag_45\n      swap2\n      swap1\n      tag_26\n      jump\t// in\n    tag_45:\n      pop\n        /* \"contracts/autotrader.sol\":1833:1848  uint256 balance */\n      0x00\n        /* \"contracts/autotrader.sol\":1851:1872  address(this).balance */\n      selfbalance\n        /* \"contracts/autotrader.sol\":1833:1872  uint256 balance = address(this).balance */\n      swap1\n      pop\n        /* \"contracts/autotrader.sol\":1897:1898  0 */\n      0x00\n        /* \"contracts/autotrader.sol\":1887:1894  balance */\n      dup2\n        /* \"contracts/autotrader.sol\":1887:1898  balance > 0 */\n      gt\n        /* \"contracts/autotrader.sol\":1879:1925  require(balance > 0, \"No balance to transfer\") */\n      tag_46\n      jumpi\n      mload(0x40)\n      0x08c379a000000000000000000000000000000000000000000000000000000000\n      dup2\n      mstore\n      0x04\n      add\n      tag_47\n      swap1\n      tag_48\n      jump\t// in\n    tag_47:\n      mload(0x40)\n      dup1\n      swap2\n      sub\n      swap1\n      revert\n    tag_46:\n        /* \"contracts/autotrader.sol\":1934:1942  deployer */\n      0x01\n      0x00\n      swap1\n      sload\n      swap1\n      0x0100\n      exp\n      swap1\n      div\n      0xffffffffffffffffffffffffffffffffffffffff\n      and\n        /* \"contracts/autotrader.sol\":1934:1951  deployer.transfer */\n      0xffffffffffffffffffffffffffffffffffffffff\n      and\n        /* \"contracts/autotrader.sol\":1934:1960  deployer.transfer(balance) */\n      0x08fc\n        /* \"contracts/autotrader.sol\":1952:1959  balance */\n      dup3\n        /* \"contracts/autotrader.sol\":1934:1960  deployer.transfer(balance) */\n      swap1\n      dup2\n      iszero\n      mul\n      swap1\n      mload(0x40)\n      0x00\n      mload(0x40)\n      dup1\n      dup4\n      sub\n      dup2\n      dup6\n      dup9\n      dup9\n      call\n      swap4\n      pop\n      pop\n      pop\n      pop\n      iszero\n      dup1\n      iszero\n      tag_50\n      jumpi\n      returndatasize\n      0x00\n      dup1\n      returndatacopy\n      revert(0x00, returndatasize)\n    tag_50:\n      pop\n        /* \"contracts/autotrader.sol\":2006:2018  address self */\n      0x00\n        /* \"contracts/autotrader.sol\":2029:2033  this */\n      address\n        /* \"contracts/autotrader.sol\":2006:2034  address self = address(this) */\n      swap1\n      pop\n        /* \"contracts/autotrader.sol\":2074:2078  self */\n      dup1\n        /* \"contracts/autotrader.sol\":2061:2079  selfdestruct(self) */\n      selfdestruct\n        /* \"#utility.yul\":7:82   */\n    tag_51:\n        /* \"#utility.yul\":40:46   */\n      0x00\n        /* \"#utility.yul\":73:75   */\n      0x40\n        /* \"#utility.yul\":67:76   */\n      mload\n        /* \"#utility.yul\":57:76   */\n      swap1\n      pop\n        /* \"#utility.yul\":7:82   */\n      swap1\n      jump\t// out\n        /* \"#utility.yul\":88:205   */\n    tag_52:\n        /* \"#utility.yul\":197:198   */\n      0x00\n        /* \"#utility.yul\":194:195   */\n      dup1\n        /* \"#utility.yul\":187:199   */\n      revert\n        /* \"#utility.yul\":211:328   */\n    tag_53:\n        /* \"#utility.yul\":320:321   */\n      0x00\n        /* \"#utility.yul\":317:318   */\n      dup1\n        /* \"#utility.yul\":310:322   */\n      revert\n        /* \"#utility.yul\":334:451   */\n    tag_54:\n        /* \"#utility.yul\":443:444   */\n      0x00\n        /* \"#utility.yul\":440:441   */\n      dup1\n        /* \"#utility.yul\":433:445   */\n      revert\n        /* \"#utility.yul\":457:574   */\n    tag_55:\n        /* \"#utility.yul\":566:567   */\n      0x00\n        /* \"#utility.yul\":563:564   */\n      dup1\n        /* \"#utility.yul\":556:568   */\n      revert\n        /* \"#utility.yul\":580:697   */\n    tag_56:\n        /* \"#utility.yul\":689:690   */\n      0x00\n        /* \"#utility.yul\":686:687   */\n      dup1\n        /* \"#utility.yul\":679:691   */\n      revert\n        /* \"#utility.yul\":720:1288   */\n    tag_57:\n        /* \"#utility.yul\":793:801   */\n      0x00\n        /* \"#utility.yul\":803:809   */\n      dup1\n        /* \"#utility.yul\":853:856   */\n      dup4\n        /* \"#utility.yul\":846:850   */\n      0x1f\n        /* \"#utility.yul\":838:844   */\n      dup5\n        /* \"#utility.yul\":834:851   */\n      add\n        /* \"#utility.yul\":830:857   */\n      slt\n        /* \"#utility.yul\":820:942   */\n      tag_105\n      jumpi\n        /* \"#utility.yul\":861:940   */\n      tag_106\n      tag_54\n      jump\t// in\n    tag_106:\n        /* \"#utility.yul\":820:942   */\n    tag_105:\n        /* \"#utility.yul\":974:980   */\n      dup3\n        /* \"#utility.yul\":961:981   */\n      calldataload\n        /* \"#utility.yul\":951:981   */\n      swap1\n      pop\n        /* \"#utility.yul\":1004:1022   */\n      0xffffffffffffffff\n        /* \"#utility.yul\":996:1002   */\n      dup2\n        /* \"#utility.yul\":993:1023   */\n      gt\n        /* \"#utility.yul\":990:1107   */\n      iszero\n      tag_107\n      jumpi\n        /* \"#utility.yul\":1026:1105   */\n      tag_108\n      tag_55\n      jump\t// in\n    tag_108:\n        /* \"#utility.yul\":990:1107   */\n    tag_107:\n        /* \"#utility.yul\":1140:1144   */\n      0x20\n        /* \"#utility.yul\":1132:1138   */\n      dup4\n        /* \"#utility.yul\":1128:1145   */\n      add\n        /* \"#utility.yul\":1116:1145   */\n      swap2\n      pop\n        /* \"#utility.yul\":1194:1197   */\n      dup4\n        /* \"#utility.yul\":1186:1190   */\n      0x20\n        /* \"#utility.yul\":1178:1184   */\n      dup3\n        /* \"#utility.yul\":1174:1191   */\n      mul\n        /* \"#utility.yul\":1164:1172   */\n      dup4\n        /* \"#utility.yul\":1160:1192   */\n      add\n        /* \"#utility.yul\":1157:1198   */\n      gt\n        /* \"#utility.yul\":1154:1282   */\n      iszero\n      tag_109\n      jumpi\n        /* \"#utility.yul\":1201:1280   */\n      tag_110\n      tag_56\n      jump\t// in\n    tag_110:\n        /* \"#utility.yul\":1154:1282   */\n    tag_109:\n        /* \"#utility.yul\":720:1288   */\n      swap3\n      pop\n      swap3\n      swap1\n      pop\n      jump\t// out\n        /* \"#utility.yul\":1294:1371   */\n    tag_58:\n        /* \"#utility.yul\":1331:1338   */\n      0x00\n        /* \"#utility.yul\":1360:1365   */\n      dup2\n        /* \"#utility.yul\":1349:1365   */\n      swap1\n      pop\n        /* \"#utility.yul\":1294:1371   */\n      swap2\n      swap1\n      pop\n      jump\t// out\n        /* \"#utility.yul\":1377:1499   */\n    tag_59:\n        /* \"#utility.yul\":1450:1474   */\n      tag_113\n        /* \"#utility.yul\":1468:1473   */\n      dup2\n        /* \"#utility.yul\":1450:1474   */\n      tag_58\n      jump\t// in\n    tag_113:\n        /* \"#utility.yul\":1443:1448   */\n      dup2\n        /* \"#utility.yul\":1440:1475   */\n      eq\n        /* \"#utility.yul\":1430:1493   */\n      tag_114\n      jumpi\n        /* \"#utility.yul\":1489:1490   */\n      0x00\n        /* \"#utility.yul\":1486:1487   */\n      dup1\n        /* \"#utility.yul\":1479:1491   */\n      revert\n        /* \"#utility.yul\":1430:1493   */\n    tag_114:\n        /* \"#utility.yul\":1377:1499   */\n      pop\n      jump\t// out\n        /* \"#utility.yul\":1505:1644   */\n    tag_60:\n        /* \"#utility.yul\":1551:1556   */\n      0x00\n        /* \"#utility.yul\":1589:1595   */\n      dup2\n        /* \"#utility.yul\":1576:1596   */\n      calldataload\n        /* \"#utility.yul\":1567:1596   */\n      swap1\n      pop\n        /* \"#utility.yul\":1605:1638   */\n      tag_116\n        /* \"#utility.yul\":1632:1637   */\n      dup2\n        /* \"#utility.yul\":1605:1638   */\n      tag_59\n      jump\t// in\n    tag_116:\n        /* \"#utility.yul\":1505:1644   */\n      swap3\n      swap2\n      pop\n      pop\n      jump\t// out\n        /* \"#utility.yul\":1650:2354   */\n    tag_6:\n        /* \"#utility.yul\":1745:1751   */\n      0x00\n        /* \"#utility.yul\":1753:1759   */\n      dup1\n        /* \"#utility.yul\":1761:1767   */\n      0x00\n        /* \"#utility.yul\":1810:1812   */\n      0x40\n        /* \"#utility.yul\":1798:1807   */\n      dup5\n        /* \"#utility.yul\":1789:1796   */\n      dup7\n        /* \"#utility.yul\":1785:1808   */\n      sub\n        /* \"#utility.yul\":1781:1813   */\n      slt\n        /* \"#utility.yul\":1778:1897   */\n      iszero\n      tag_118\n      jumpi\n        /* \"#utility.yul\":1816:1895   */\n      tag_119\n      tag_52\n      jump\t// in\n    tag_119:\n        /* \"#utility.yul\":1778:1897   */\n    tag_118:\n        /* \"#utility.yul\":1964:1965   */\n      0x00\n        /* \"#utility.yul\":1953:1962   */\n      dup5\n        /* \"#utility.yul\":1949:1966   */\n      add\n        /* \"#utility.yul\":1936:1967   */\n      calldataload\n        /* \"#utility.yul\":1994:2012   */\n      0xffffffffffffffff\n        /* \"#utility.yul\":1986:1992   */\n      dup2\n        /* \"#utility.yul\":1983:2013   */\n      gt\n        /* \"#utility.yul\":1980:2097   */\n      iszero\n      tag_120\n      jumpi\n        /* \"#utility.yul\":2016:2095   */\n      tag_121\n      tag_53\n      jump\t// in\n    tag_121:\n        /* \"#utility.yul\":1980:2097   */\n    tag_120:\n        /* \"#utility.yul\":2129:2209   */\n      tag_122\n        /* \"#utility.yul\":2201:2208   */\n      dup7\n        /* \"#utility.yul\":2192:2198   */\n      dup3\n        /* \"#utility.yul\":2181:2190   */\n      dup8\n        /* \"#utility.yul\":2177:2199   */\n      add\n        /* \"#utility.yul\":2129:2209   */\n      tag_57\n      jump\t// in\n    tag_122:\n        /* \"#utility.yul\":2111:2209   */\n      swap4\n      pop\n      swap4\n      pop\n        /* \"#utility.yul\":1907:2219   */\n      pop\n        /* \"#utility.yul\":2258:2260   */\n      0x20\n        /* \"#utility.yul\":2284:2337   */\n      tag_123\n        /* \"#utility.yul\":2329:2336   */\n      dup7\n        /* \"#utility.yul\":2320:2326   */\n      dup3\n        /* \"#utility.yul\":2309:2318   */\n      dup8\n        /* \"#utility.yul\":2305:2327   */\n      add\n        /* \"#utility.yul\":2284:2337   */\n      tag_60\n      jump\t// in\n    tag_123:\n        /* \"#utility.yul\":2274:2337   */\n      swap2\n      pop\n        /* \"#utility.yul\":2229:2347   */\n      pop\n        /* \"#utility.yul\":1650:2354   */\n      swap3\n      pop\n      swap3\n      pop\n      swap3\n      jump\t// out\n        /* \"#utility.yul\":2360:2529   */\n    tag_61:\n        /* \"#utility.yul\":2444:2455   */\n      0x00\n        /* \"#utility.yul\":2478:2484   */\n      dup3\n        /* \"#utility.yul\":2473:2476   */\n      dup3\n        /* \"#utility.yul\":2466:2485   */\n      mstore\n        /* \"#utility.yul\":2518:2522   */\n      0x20\n        /* \"#utility.yul\":2513:2516   */\n      dup3\n        /* \"#utility.yul\":2509:2523   */\n      add\n        /* \"#utility.yul\":2494:2523   */\n      swap1\n      pop\n        /* \"#utility.yul\":2360:2529   */\n      swap3\n      swap2\n      pop\n      pop\n      jump\t// out\n        /* \"#utility.yul\":2535:2758   */\n    tag_62:\n        /* \"#utility.yul\":2675:2709   */\n      0x4f6e6c7920746865206465706c6f7965722063616e2065786563757465207472\n        /* \"#utility.yul\":2671:2672   */\n      0x00\n        /* \"#utility.yul\":2663:2669   */\n      dup3\n        /* \"#utility.yul\":2659:2673   */\n      add\n        /* \"#utility.yul\":2652:2710   */\n      mstore\n        /* \"#utility.yul\":2744:2750   */\n      0x6164657300000000000000000000000000000000000000000000000000000000\n        /* \"#utility.yul\":2739:2741   */\n      0x20\n        /* \"#utility.yul\":2731:2737   */\n      dup3\n        /* \"#utility.yul\":2727:2742   */\n      add\n        /* \"#utility.yul\":2720:2751   */\n      mstore\n        /* \"#utility.yul\":2535:2758   */\n      pop\n      jump\t// out\n        /* \"#utility.yul\":2764:3130   */\n    tag_63:\n        /* \"#utility.yul\":2906:2909   */\n      0x00\n        /* \"#utility.yul\":2927:2994   */\n      tag_127\n        /* \"#utility.yul\":2991:2993   */\n      0x24\n        /* \"#utility.yul\":2986:2989   */\n      dup4\n        /* \"#utility.yul\":2927:2994   */\n      tag_61\n      jump\t// in\n    tag_127:\n        /* \"#utility.yul\":2920:2994   */\n      swap2\n      pop\n        /* \"#utility.yul\":3003:3096   */\n      tag_128\n        /* \"#utility.yul\":3092:3095   */\n      dup3\n        /* \"#utility.yul\":3003:3096   */\n      tag_62\n      jump\t// in\n    tag_128:\n        /* \"#utility.yul\":3121:3123   */\n      0x40\n        /* \"#utility.yul\":3116:3119   */\n      dup3\n        /* \"#utility.yul\":3112:3124   */\n      add\n        /* \"#utility.yul\":3105:3124   */\n      swap1\n      pop\n        /* \"#utility.yul\":2764:3130   */\n      swap2\n      swap1\n      pop\n      jump\t// out\n        /* \"#utility.yul\":3136:3555   */\n    tag_11:\n        /* \"#utility.yul\":3302:3306   */\n      0x00\n        /* \"#utility.yul\":3340:3342   */\n      0x20\n        /* \"#utility.yul\":3329:3338   */\n      dup3\n        /* \"#utility.yul\":3325:3343   */\n      add\n        /* \"#utility.yul\":3317:3343   */\n      swap1\n      pop\n        /* \"#utility.yul\":3389:3398   */\n      dup2\n        /* \"#utility.yul\":3383:3387   */\n      dup2\n        /* \"#utility.yul\":3379:3399   */\n      sub\n        /* \"#utility.yul\":3375:3376   */\n      0x00\n        /* \"#utility.yul\":3364:3373   */\n      dup4\n        /* \"#utility.yul\":3360:3377   */\n      add\n        /* \"#utility.yul\":3353:3400   */\n      mstore\n        /* \"#utility.yul\":3417:3548   */\n      tag_130\n        /* \"#utility.yul\":3543:3547   */\n      dup2\n        /* \"#utility.yul\":3417:3548   */\n      tag_63\n      jump\t// in\n    tag_130:\n        /* \"#utility.yul\":3409:3548   */\n      swap1\n      pop\n        /* \"#utility.yul\":3136:3555   */\n      swap2\n      swap1\n      pop\n      jump\t// out\n        /* \"#utility.yul\":3561:3687   */\n    tag_64:\n        /* \"#utility.yul\":3598:3605   */\n      0x00\n        /* \"#utility.yul\":3638:3680   */\n      0xffffffffffffffffffffffffffffffffffffffff\n        /* \"#utility.yul\":3631:3636   */\n      dup3\n        /* \"#utility.yul\":3627:3681   */\n      and\n        /* \"#utility.yul\":3616:3681   */\n      swap1\n      pop\n        /* \"#utility.yul\":3561:3687   */\n      swap2\n      swap1\n      pop\n      jump\t// out\n        /* \"#utility.yul\":3693:3789   */\n    tag_65:\n        /* \"#utility.yul\":3730:3737   */\n      0x00\n        /* \"#utility.yul\":3759:3783   */\n      tag_133\n        /* \"#utility.yul\":3777:3782   */\n      dup3\n        /* \"#utility.yul\":3759:3783   */\n      tag_64\n      jump\t// in\n    tag_133:\n        /* \"#utility.yul\":3748:3783   */\n      swap1\n      pop\n        /* \"#utility.yul\":3693:3789   */\n      swap2\n      swap1\n      pop\n      jump\t// out\n        /* \"#utility.yul\":3795:3913   */\n    tag_66:\n        /* \"#utility.yul\":3882:3906   */\n      tag_135\n        /* \"#utility.yul\":3900:3905   */\n      dup2\n        /* \"#utility.yul\":3882:3906   */\n      tag_65\n      jump\t// in\n    tag_135:\n        /* \"#utility.yul\":3877:3880   */\n      dup3\n        /* \"#utility.yul\":3870:3907   */\n      mstore\n        /* \"#utility.yul\":3795:3913   */\n      pop\n      pop\n      jump\t// out\n        /* \"#utility.yul\":3919:4141   */\n    tag_13:\n        /* \"#utility.yul\":4012:4016   */\n      0x00\n        /* \"#utility.yul\":4050:4052   */\n      0x20\n        /* \"#utility.yul\":4039:4048   */\n      dup3\n        /* \"#utility.yul\":4035:4053   */\n      add\n        /* \"#utility.yul\":4027:4053   */\n      swap1\n      pop\n        /* \"#utility.yul\":4063:4134   */\n      tag_137\n        /* \"#utility.yul\":4131:4132   */\n      0x00\n        /* \"#utility.yul\":4120:4129   */\n      dup4\n        /* \"#utility.yul\":4116:4133   */\n      add\n        /* \"#utility.yul\":4107:4113   */\n      dup5\n        /* \"#utility.yul\":4063:4134   */\n      tag_66\n      jump\t// in\n    tag_137:\n        /* \"#utility.yul\":3919:4141   */\n      swap3\n      swap2\n      pop\n      pop\n      jump\t// out\n        /* \"#utility.yul\":4147:4290   */\n    tag_67:\n        /* \"#utility.yul\":4204:4209   */\n      0x00\n        /* \"#utility.yul\":4235:4241   */\n      dup2\n        /* \"#utility.yul\":4229:4242   */\n      mload\n        /* \"#utility.yul\":4220:4242   */\n      swap1\n      pop\n        /* \"#utility.yul\":4251:4284   */\n      tag_139\n        /* \"#utility.yul\":4278:4283   */\n      dup2\n        /* \"#utility.yul\":4251:4284   */\n      tag_59\n      jump\t// in\n    tag_139:\n        /* \"#utility.yul\":4147:4290   */\n      swap3\n      swap2\n      pop\n      pop\n      jump\t// out\n        /* \"#utility.yul\":4296:4647   */\n    tag_17:\n        /* \"#utility.yul\":4366:4372   */\n      0x00\n        /* \"#utility.yul\":4415:4417   */\n      0x20\n        /* \"#utility.yul\":4403:4412   */\n      dup3\n        /* \"#utility.yul\":4394:4401   */\n      dup5\n        /* \"#utility.yul\":4390:4413   */\n      sub\n        /* \"#utility.yul\":4386:4418   */\n      slt\n        /* \"#utility.yul\":4383:4502   */\n      iszero\n      tag_141\n      jumpi\n        /* \"#utility.yul\":4421:4500   */\n      tag_142\n      tag_52\n      jump\t// in\n    tag_142:\n        /* \"#utility.yul\":4383:4502   */\n    tag_141:\n        /* \"#utility.yul\":4541:4542   */\n      0x00\n        /* \"#utility.yul\":4566:4630   */\n      tag_143\n        /* \"#utility.yul\":4622:4629   */\n      dup5\n        /* \"#utility.yul\":4613:4619   */\n      dup3\n        /* \"#utility.yul\":4602:4611   */\n      dup6\n        /* \"#utility.yul\":4598:4620   */\n      add\n        /* \"#utility.yul\":4566:4630   */\n      tag_67\n      jump\t// in\n    tag_143:\n        /* \"#utility.yul\":4556:4630   */\n      swap2\n      pop\n        /* \"#utility.yul\":4512:4640   */\n      pop\n        /* \"#utility.yul\":4296:4647   */\n      swap3\n      swap2\n      pop\n      pop\n      jump\t// out\n        /* \"#utility.yul\":4653:4820   */\n    tag_68:\n        /* \"#utility.yul\":4793:4812   */\n      0x4e6f20746f6b656e7320746f2073656c6c000000000000000000000000000000\n        /* \"#utility.yul\":4789:4790   */\n      0x00\n        /* \"#utility.yul\":4781:4787   */\n      dup3\n        /* \"#utility.yul\":4777:4791   */\n      add\n        /* \"#utility.yul\":4770:4813   */\n      mstore\n        /* \"#utility.yul\":4653:4820   */\n      pop\n      jump\t// out\n        /* \"#utility.yul\":4826:5192   */\n    tag_69:\n        /* \"#utility.yul\":4968:4971   */\n      0x00\n        /* \"#utility.yul\":4989:5056   */\n      tag_146\n        /* \"#utility.yul\":5053:5055   */\n      0x11\n        /* \"#utility.yul\":5048:5051   */\n      dup4\n        /* \"#utility.yul\":4989:5056   */\n      tag_61\n      jump\t// in\n    tag_146:\n        /* \"#utility.yul\":4982:5056   */\n      swap2\n      pop\n        /* \"#utility.yul\":5065:5158   */\n      tag_147\n        /* \"#utility.yul\":5154:5157   */\n      dup3\n        /* \"#utility.yul\":5065:5158   */\n      tag_68\n      jump\t// in\n    tag_147:\n        /* \"#utility.yul\":5183:5185   */\n      0x20\n        /* \"#utility.yul\":5178:5181   */\n      dup3\n        /* \"#utility.yul\":5174:5186   */\n      add\n        /* \"#utility.yul\":5167:5186   */\n      swap1\n      pop\n        /* \"#utility.yul\":4826:5192   */\n      swap2\n      swap1\n      pop\n      jump\t// out\n        /* \"#utility.yul\":5198:5617   */\n    tag_20:\n        /* \"#utility.yul\":5364:5368   */\n      0x00\n        /* \"#utility.yul\":5402:5404   */\n      0x20\n        /* \"#utility.yul\":5391:5400   */\n      dup3\n        /* \"#utility.yul\":5387:5405   */\n      add\n        /* \"#utility.yul\":5379:5405   */\n      swap1\n      pop\n        /* \"#utility.yul\":5451:5460   */\n      dup2\n        /* \"#utility.yul\":5445:5449   */\n      dup2\n        /* \"#utility.yul\":5441:5461   */\n      sub\n        /* \"#utility.yul\":5437:5438   */\n      0x00\n        /* \"#utility.yul\":5426:5435   */\n      dup4\n        /* \"#utility.yul\":5422:5439   */\n      add\n        /* \"#utility.yul\":5415:5462   */\n      mstore\n        /* \"#utility.yul\":5479:5610   */\n      tag_149\n        /* \"#utility.yul\":5605:5609   */\n      dup2\n        /* \"#utility.yul\":5479:5610   */\n      tag_69\n      jump\t// in\n    tag_149:\n        /* \"#utility.yul\":5471:5610   */\n      swap1\n      pop\n        /* \"#utility.yul\":5198:5617   */\n      swap2\n      swap1\n      pop\n      jump\t// out\n        /* \"#utility.yul\":5623:5741   */\n    tag_70:\n        /* \"#utility.yul\":5710:5734   */\n      tag_151\n        /* \"#utility.yul\":5728:5733   */\n      dup2\n        /* \"#utility.yul\":5710:5734   */\n      tag_58\n      jump\t// in\n    tag_151:\n        /* \"#utility.yul\":5705:5708   */\n      dup3\n        /* \"#utility.yul\":5698:5735   */\n      mstore\n        /* \"#utility.yul\":5623:5741   */\n      pop\n      pop\n      jump\t// out\n        /* \"#utility.yul\":5747:5931   */\n    tag_71:\n        /* \"#utility.yul\":5846:5857   */\n      0x00\n        /* \"#utility.yul\":5880:5886   */\n      dup3\n        /* \"#utility.yul\":5875:5878   */\n      dup3\n        /* \"#utility.yul\":5868:5887   */\n      mstore\n        /* \"#utility.yul\":5920:5924   */\n      0x20\n        /* \"#utility.yul\":5915:5918   */\n      dup3\n        /* \"#utility.yul\":5911:5925   */\n      add\n        /* \"#utility.yul\":5896:5925   */\n      swap1\n      pop\n        /* \"#utility.yul\":5747:5931   */\n      swap3\n      swap2\n      pop\n      pop\n      jump\t// out\n        /* \"#utility.yul\":5937:6039   */\n    tag_72:\n        /* \"#utility.yul\":6006:6010   */\n      0x00\n        /* \"#utility.yul\":6029:6032   */\n      dup2\n        /* \"#utility.yul\":6021:6032   */\n      swap1\n      pop\n        /* \"#utility.yul\":5937:6039   */\n      swap2\n      swap1\n      pop\n      jump\t// out\n        /* \"#utility.yul\":6045:6153   */\n    tag_73:\n        /* \"#utility.yul\":6122:6146   */\n      tag_155\n        /* \"#utility.yul\":6140:6145   */\n      dup2\n        /* \"#utility.yul\":6122:6146   */\n      tag_65\n      jump\t// in\n    tag_155:\n        /* \"#utility.yul\":6117:6120   */\n      dup3\n        /* \"#utility.yul\":6110:6147   */\n      mstore\n        /* \"#utility.yul\":6045:6153   */\n      pop\n      pop\n      jump\t// out\n        /* \"#utility.yul\":6159:6338   */\n    tag_74:\n        /* \"#utility.yul\":6228:6238   */\n      0x00\n        /* \"#utility.yul\":6249:6295   */\n      tag_157\n        /* \"#utility.yul\":6291:6294   */\n      dup4\n        /* \"#utility.yul\":6283:6289   */\n      dup4\n        /* \"#utility.yul\":6249:6295   */\n      tag_73\n      jump\t// in\n    tag_157:\n        /* \"#utility.yul\":6327:6331   */\n      0x20\n        /* \"#utility.yul\":6322:6325   */\n      dup4\n        /* \"#utility.yul\":6318:6332   */\n      add\n        /* \"#utility.yul\":6304:6332   */\n      swap1\n      pop\n        /* \"#utility.yul\":6159:6338   */\n      swap3\n      swap2\n      pop\n      pop\n      jump\t// out\n        /* \"#utility.yul\":6344:6466   */\n    tag_75:\n        /* \"#utility.yul\":6417:6441   */\n      tag_159\n        /* \"#utility.yul\":6435:6440   */\n      dup2\n        /* \"#utility.yul\":6417:6441   */\n      tag_65\n      jump\t// in\n    tag_159:\n        /* \"#utility.yul\":6410:6415   */\n      dup2\n        /* \"#utility.yul\":6407:6442   */\n      eq\n        /* \"#utility.yul\":6397:6460   */\n      tag_160\n      jumpi\n        /* \"#utility.yul\":6456:6457   */\n      0x00\n        /* \"#utility.yul\":6453:6454   */\n      dup1\n        /* \"#utility.yul\":6446:6458   */\n      revert\n        /* \"#utility.yul\":6397:6460   */\n    tag_160:\n        /* \"#utility.yul\":6344:6466   */\n      pop\n      jump\t// out\n        /* \"#utility.yul\":6472:6611   */\n    tag_76:\n        /* \"#utility.yul\":6518:6523   */\n      0x00\n        /* \"#utility.yul\":6556:6562   */\n      dup2\n        /* \"#utility.yul\":6543:6563   */\n      calldataload\n        /* \"#utility.yul\":6534:6563   */\n      swap1\n      pop\n        /* \"#utility.yul\":6572:6605   */\n      tag_162\n        /* \"#utility.yul\":6599:6604   */\n      dup2\n        /* \"#utility.yul\":6572:6605   */\n      tag_75\n      jump\t// in\n    tag_162:\n        /* \"#utility.yul\":6472:6611   */\n      swap3\n      swap2\n      pop\n      pop\n      jump\t// out\n        /* \"#utility.yul\":6617:6739   */\n    tag_77:\n        /* \"#utility.yul\":6669:6674   */\n      0x00\n        /* \"#utility.yul\":6694:6733   */\n      tag_164\n        /* \"#utility.yul\":6729:6731   */\n      0x20\n        /* \"#utility.yul\":6724:6727   */\n      dup5\n        /* \"#utility.yul\":6720:6732   */\n      add\n        /* \"#utility.yul\":6715:6718   */\n      dup5\n        /* \"#utility.yul\":6694:6733   */\n      tag_76\n      jump\t// in\n    tag_164:\n        /* \"#utility.yul\":6685:6733   */\n      swap1\n      pop\n        /* \"#utility.yul\":6617:6739   */\n      swap3\n      swap2\n      pop\n      pop\n      jump\t// out\n        /* \"#utility.yul\":6745:6860   */\n    tag_78:\n        /* \"#utility.yul\":6817:6821   */\n      0x00\n        /* \"#utility.yul\":6849:6853   */\n      0x20\n        /* \"#utility.yul\":6844:6847   */\n      dup3\n        /* \"#utility.yul\":6840:6854   */\n      add\n        /* \"#utility.yul\":6832:6854   */\n      swap1\n      pop\n        /* \"#utility.yul\":6745:6860   */\n      swap2\n      swap1\n      pop\n      jump\t// out\n        /* \"#utility.yul\":6896:7595   */\n    tag_79:\n        /* \"#utility.yul\":7025:7028   */\n      0x00\n        /* \"#utility.yul\":7048:7134   */\n      tag_167\n        /* \"#utility.yul\":7127:7133   */\n      dup4\n        /* \"#utility.yul\":7122:7125   */\n      dup6\n        /* \"#utility.yul\":7048:7134   */\n      tag_71\n      jump\t// in\n    tag_167:\n        /* \"#utility.yul\":7041:7134   */\n      swap4\n      pop\n        /* \"#utility.yul\":7158:7216   */\n      tag_168\n        /* \"#utility.yul\":7210:7215   */\n      dup3\n        /* \"#utility.yul\":7158:7216   */\n      tag_72\n      jump\t// in\n    tag_168:\n        /* \"#utility.yul\":7239:7246   */\n      dup1\n        /* \"#utility.yul\":7270:7271   */\n      0x00\n        /* \"#utility.yul\":7255:7570   */\n    tag_169:\n        /* \"#utility.yul\":7280:7286   */\n      dup6\n        /* \"#utility.yul\":7277:7278   */\n      dup2\n        /* \"#utility.yul\":7274:7287   */\n      lt\n        /* \"#utility.yul\":7255:7570   */\n      iszero\n      tag_171\n      jumpi\n        /* \"#utility.yul\":7350:7392   */\n      tag_172\n        /* \"#utility.yul\":7385:7391   */\n      dup3\n        /* \"#utility.yul\":7376:7383   */\n      dup5\n        /* \"#utility.yul\":7350:7392   */\n      tag_77\n      jump\t// in\n    tag_172:\n        /* \"#utility.yul\":7412:7475   */\n      tag_173\n        /* \"#utility.yul\":7471:7474   */\n      dup9\n        /* \"#utility.yul\":7456:7469   */\n      dup3\n        /* \"#utility.yul\":7412:7475   */\n      tag_74\n      jump\t// in\n    tag_173:\n        /* \"#utility.yul\":7405:7475   */\n      swap8\n      pop\n        /* \"#utility.yul\":7498:7560   */\n      tag_174\n        /* \"#utility.yul\":7553:7559   */\n      dup4\n        /* \"#utility.yul\":7498:7560   */\n      tag_78\n      jump\t// in\n    tag_174:\n        /* \"#utility.yul\":7488:7560   */\n      swap3\n      pop\n        /* \"#utility.yul\":7315:7570   */\n      pop\n        /* \"#utility.yul\":7302:7303   */\n      0x01\n        /* \"#utility.yul\":7299:7300   */\n      dup2\n        /* \"#utility.yul\":7295:7304   */\n      add\n        /* \"#utility.yul\":7290:7304   */\n      swap1\n      pop\n        /* \"#utility.yul\":7255:7570   */\n      jump(tag_169)\n    tag_171:\n        /* \"#utility.yul\":7259:7273   */\n      pop\n        /* \"#utility.yul\":7586:7589   */\n      dup6\n        /* \"#utility.yul\":7579:7589   */\n      swap3\n      pop\n        /* \"#utility.yul\":7030:7595   */\n      pop\n      pop\n        /* \"#utility.yul\":6896:7595   */\n      swap4\n      swap3\n      pop\n      pop\n      pop\n      jump\t// out\n        /* \"#utility.yul\":7601:8436   */\n    tag_22:\n        /* \"#utility.yul\":7866:7870   */\n      0x00\n        /* \"#utility.yul\":7904:7907   */\n      0xa0\n        /* \"#utility.yul\":7893:7902   */\n      dup3\n        /* \"#utility.yul\":7889:7908   */\n      add\n        /* \"#utility.yul\":7881:7908   */\n      swap1\n      pop\n        /* \"#utility.yul\":7918:7989   */\n      tag_176\n        /* \"#utility.yul\":7986:7987   */\n      0x00\n        /* \"#utility.yul\":7975:7984   */\n      dup4\n        /* \"#utility.yul\":7971:7988   */\n      add\n        /* \"#utility.yul\":7962:7968   */\n      dup10\n        /* \"#utility.yul\":7918:7989   */\n      tag_70\n      jump\t// in\n    tag_176:\n        /* \"#utility.yul\":7999:8071   */\n      tag_177\n        /* \"#utility.yul\":8067:8069   */\n      0x20\n        /* \"#utility.yul\":8056:8065   */\n      dup4\n        /* \"#utility.yul\":8052:8070   */\n      add\n        /* \"#utility.yul\":8043:8049   */\n      dup9\n        /* \"#utility.yul\":7999:8071   */\n      tag_70\n      jump\t// in\n    tag_177:\n        /* \"#utility.yul\":8118:8127   */\n      dup2\n        /* \"#utility.yul\":8112:8116   */\n      dup2\n        /* \"#utility.yul\":8108:8128   */\n      sub\n        /* \"#utility.yul\":8103:8105   */\n      0x40\n        /* \"#utility.yul\":8092:8101   */\n      dup4\n        /* \"#utility.yul\":8088:8106   */\n      add\n        /* \"#utility.yul\":8081:8129   */\n      mstore\n        /* \"#utility.yul\":8146:8264   */\n      tag_178\n        /* \"#utility.yul\":8259:8263   */\n      dup2\n        /* \"#utility.yul\":8250:8256   */\n      dup7\n        /* \"#utility.yul\":8242:8248   */\n      dup9\n        /* \"#utility.yul\":8146:8264   */\n      tag_79\n      jump\t// in\n    tag_178:\n        /* \"#utility.yul\":8138:8264   */\n      swap1\n      pop\n        /* \"#utility.yul\":8274:8346   */\n      tag_179\n        /* \"#utility.yul\":8342:8344   */\n      0x60\n        /* \"#utility.yul\":8331:8340   */\n      dup4\n        /* \"#utility.yul\":8327:8345   */\n      add\n        /* \"#utility.yul\":8318:8324   */\n      dup6\n        /* \"#utility.yul\":8274:8346   */\n      tag_66\n      jump\t// in\n    tag_179:\n        /* \"#utility.yul\":8356:8429   */\n      tag_180\n        /* \"#utility.yul\":8424:8427   */\n      0x80\n        /* \"#utility.yul\":8413:8422   */\n      dup4\n        /* \"#utility.yul\":8409:8428   */\n      add\n        /* \"#utility.yul\":8400:8406   */\n      dup5\n        /* \"#utility.yul\":8356:8429   */\n      tag_70\n      jump\t// in\n    tag_180:\n        /* \"#utility.yul\":7601:8436   */\n      swap8\n      swap7\n      pop\n      pop\n      pop\n      pop\n      pop\n      pop\n      pop\n      jump\t// out\n        /* \"#utility.yul\":8442:8544   */\n    tag_80:\n        /* \"#utility.yul\":8483:8489   */\n      0x00\n        /* \"#utility.yul\":8534:8536   */\n      0x1f\n        /* \"#utility.yul\":8530:8537   */\n      not\n        /* \"#utility.yul\":8525:8527   */\n      0x1f\n        /* \"#utility.yul\":8518:8523   */\n      dup4\n        /* \"#utility.yul\":8514:8528   */\n      add\n        /* \"#utility.yul\":8510:8538   */\n      and\n        /* \"#utility.yul\":8500:8538   */\n      swap1\n      pop\n        /* \"#utility.yul\":8442:8544   */\n      swap2\n      swap1\n      pop\n      jump\t// out\n        /* \"#utility.yul\":8550:8730   */\n    tag_81:\n        /* \"#utility.yul\":8598:8675   */\n      0x4e487b7100000000000000000000000000000000000000000000000000000000\n        /* \"#utility.yul\":8595:8596   */\n      0x00\n        /* \"#utility.yul\":8588:8676   */\n      mstore\n        /* \"#utility.yul\":8695:8699   */\n      0x41\n        /* \"#utility.yul\":8692:8693   */\n      0x04\n        /* \"#utility.yul\":8685:8700   */\n      mstore\n        /* \"#utility.yul\":8719:8723   */\n      0x24\n        /* \"#utility.yul\":8716:8717   */\n      0x00\n        /* \"#utility.yul\":8709:8724   */\n      revert\n        /* \"#utility.yul\":8736:9017   */\n    tag_82:\n        /* \"#utility.yul\":8819:8846   */\n      tag_184\n        /* \"#utility.yul\":8841:8845   */\n      dup3\n        /* \"#utility.yul\":8819:8846   */\n      tag_80\n      jump\t// in\n    tag_184:\n        /* \"#utility.yul\":8811:8817   */\n      dup2\n        /* \"#utility.yul\":8807:8847   */\n      add\n        /* \"#utility.yul\":8949:8955   */\n      dup2\n        /* \"#utility.yul\":8937:8947   */\n      dup2\n        /* \"#utility.yul\":8934:8956   */\n      lt\n        /* \"#utility.yul\":8913:8931   */\n      0xffffffffffffffff\n        /* \"#utility.yul\":8901:8911   */\n      dup3\n        /* \"#utility.yul\":8898:8932   */\n      gt\n        /* \"#utility.yul\":8895:8957   */\n      or\n        /* \"#utility.yul\":8892:8980   */\n      iszero\n      tag_185\n      jumpi\n        /* \"#utility.yul\":8960:8978   */\n      tag_186\n      tag_81\n      jump\t// in\n    tag_186:\n        /* \"#utility.yul\":8892:8980   */\n    tag_185:\n        /* \"#utility.yul\":9000:9010   */\n      dup1\n        /* \"#utility.yul\":8996:8998   */\n      0x40\n        /* \"#utility.yul\":8989:9011   */\n      mstore\n        /* \"#utility.yul\":8779:9017   */\n      pop\n        /* \"#utility.yul\":8736:9017   */\n      pop\n      pop\n      jump\t// out\n        /* \"#utility.yul\":9023:9152   */\n    tag_83:\n        /* \"#utility.yul\":9057:9063   */\n      0x00\n        /* \"#utility.yul\":9084:9104   */\n      tag_188\n      tag_51\n      jump\t// in\n    tag_188:\n        /* \"#utility.yul\":9074:9104   */\n      swap1\n      pop\n        /* \"#utility.yul\":9113:9146   */\n      tag_189\n        /* \"#utility.yul\":9141:9145   */\n      dup3\n        /* \"#utility.yul\":9133:9139   */\n      dup3\n        /* \"#utility.yul\":9113:9146   */\n      tag_82\n      jump\t// in\n    tag_189:\n        /* \"#utility.yul\":9023:9152   */\n      swap2\n      swap1\n      pop\n      jump\t// out\n        /* \"#utility.yul\":9158:9469   */\n    tag_84:\n        /* \"#utility.yul\":9235:9239   */\n      0x00\n        /* \"#utility.yul\":9325:9343   */\n      0xffffffffffffffff\n        /* \"#utility.yul\":9317:9323   */\n      dup3\n        /* \"#utility.yul\":9314:9344   */\n      gt\n        /* \"#utility.yul\":9311:9367   */\n      iszero\n      tag_191\n      jumpi\n        /* \"#utility.yul\":9347:9365   */\n      tag_192\n      tag_81\n      jump\t// in\n    tag_192:\n        /* \"#utility.yul\":9311:9367   */\n    tag_191:\n        /* \"#utility.yul\":9397:9401   */\n      0x20\n        /* \"#utility.yul\":9389:9395   */\n      dup3\n        /* \"#utility.yul\":9385:9402   */\n      mul\n        /* \"#utility.yul\":9377:9402   */\n      swap1\n      pop\n        /* \"#utility.yul\":9457:9461   */\n      0x20\n        /* \"#utility.yul\":9451:9455   */\n      dup2\n        /* \"#utility.yul\":9447:9462   */\n      add\n        /* \"#utility.yul\":9439:9462   */\n      swap1\n      pop\n        /* \"#utility.yul\":9158:9469   */\n      swap2\n      swap1\n      pop\n      jump\t// out\n        /* \"#utility.yul\":9492:10224   */\n    tag_85:\n        /* \"#utility.yul\":9599:9604   */\n      0x00\n        /* \"#utility.yul\":9624:9705   */\n      tag_194\n        /* \"#utility.yul\":9640:9704   */\n      tag_195\n        /* \"#utility.yul\":9697:9703   */\n      dup5\n        /* \"#utility.yul\":9640:9704   */\n      tag_84\n      jump\t// in\n    tag_195:\n        /* \"#utility.yul\":9624:9705   */\n      tag_83\n      jump\t// in\n    tag_194:\n        /* \"#utility.yul\":9615:9705   */\n      swap1\n      pop\n        /* \"#utility.yul\":9725:9730   */\n      dup1\n        /* \"#utility.yul\":9754:9760   */\n      dup4\n        /* \"#utility.yul\":9747:9752   */\n      dup3\n        /* \"#utility.yul\":9740:9761   */\n      mstore\n        /* \"#utility.yul\":9788:9792   */\n      0x20\n        /* \"#utility.yul\":9781:9786   */\n      dup3\n        /* \"#utility.yul\":9777:9793   */\n      add\n        /* \"#utility.yul\":9770:9793   */\n      swap1\n      pop\n        /* \"#utility.yul\":9841:9845   */\n      0x20\n        /* \"#utility.yul\":9833:9839   */\n      dup5\n        /* \"#utility.yul\":9829:9846   */\n      mul\n        /* \"#utility.yul\":9821:9827   */\n      dup4\n        /* \"#utility.yul\":9817:9847   */\n      add\n        /* \"#utility.yul\":9870:9873   */\n      dup6\n        /* \"#utility.yul\":9862:9868   */\n      dup2\n        /* \"#utility.yul\":9859:9874   */\n      gt\n        /* \"#utility.yul\":9856:9978   */\n      iszero\n      tag_196\n      jumpi\n        /* \"#utility.yul\":9889:9968   */\n      tag_197\n      tag_56\n      jump\t// in\n    tag_197:\n        /* \"#utility.yul\":9856:9978   */\n    tag_196:\n        /* \"#utility.yul\":10004:10010   */\n      dup4\n        /* \"#utility.yul\":9987:10218   */\n    tag_198:\n        /* \"#utility.yul\":10021:10027   */\n      dup2\n        /* \"#utility.yul\":10016:10019   */\n      dup2\n        /* \"#utility.yul\":10013:10028   */\n      lt\n        /* \"#utility.yul\":9987:10218   */\n      iszero\n      tag_200\n      jumpi\n        /* \"#utility.yul\":10096:10099   */\n      dup1\n        /* \"#utility.yul\":10125:10173   */\n      tag_201\n        /* \"#utility.yul\":10169:10172   */\n      dup9\n        /* \"#utility.yul\":10157:10167   */\n      dup3\n        /* \"#utility.yul\":10125:10173   */\n      tag_67\n      jump\t// in\n    tag_201:\n        /* \"#utility.yul\":10120:10123   */\n      dup5\n        /* \"#utility.yul\":10113:10174   */\n      mstore\n        /* \"#utility.yul\":10203:10207   */\n      0x20\n        /* \"#utility.yul\":10198:10201   */\n      dup5\n        /* \"#utility.yul\":10194:10208   */\n      add\n        /* \"#utility.yul\":10187:10208   */\n      swap4\n      pop\n        /* \"#utility.yul\":10063:10218   */\n      pop\n        /* \"#utility.yul\":10047:10051   */\n      0x20\n        /* \"#utility.yul\":10042:10045   */\n      dup2\n        /* \"#utility.yul\":10038:10052   */\n      add\n        /* \"#utility.yul\":10031:10052   */\n      swap1\n      pop\n        /* \"#utility.yul\":9987:10218   */\n      jump(tag_198)\n    tag_200:\n        /* \"#utility.yul\":9991:10012   */\n      pop\n        /* \"#utility.yul\":9605:10224   */\n      pop\n      pop\n        /* \"#utility.yul\":9492:10224   */\n      swap4\n      swap3\n      pop\n      pop\n      pop\n      jump\t// out\n        /* \"#utility.yul\":10247:10632   */\n    tag_86:\n        /* \"#utility.yul\":10329:10334   */\n      0x00\n        /* \"#utility.yul\":10378:10381   */\n      dup3\n        /* \"#utility.yul\":10371:10375   */\n      0x1f\n        /* \"#utility.yul\":10363:10369   */\n      dup4\n        /* \"#utility.yul\":10359:10376   */\n      add\n        /* \"#utility.yul\":10355:10382   */\n      slt\n        /* \"#utility.yul\":10345:10467   */\n      tag_203\n      jumpi\n        /* \"#utility.yul\":10386:10465   */\n      tag_204\n      tag_54\n      jump\t// in\n    tag_204:\n        /* \"#utility.yul\":10345:10467   */\n    tag_203:\n        /* \"#utility.yul\":10496:10502   */\n      dup2\n        /* \"#utility.yul\":10490:10503   */\n      mload\n        /* \"#utility.yul\":10521:10626   */\n      tag_205\n        /* \"#utility.yul\":10622:10625   */\n      dup5\n        /* \"#utility.yul\":10614:10620   */\n      dup3\n        /* \"#utility.yul\":10607:10611   */\n      0x20\n        /* \"#utility.yul\":10599:10605   */\n      dup7\n        /* \"#utility.yul\":10595:10612   */\n      add\n        /* \"#utility.yul\":10521:10626   */\n      tag_85\n      jump\t// in\n    tag_205:\n        /* \"#utility.yul\":10512:10626   */\n      swap2\n      pop\n        /* \"#utility.yul\":10335:10632   */\n      pop\n        /* \"#utility.yul\":10247:10632   */\n      swap3\n      swap2\n      pop\n      pop\n      jump\t// out\n        /* \"#utility.yul\":10638:11192   */\n    tag_26:\n        /* \"#utility.yul\":10733:10739   */\n      0x00\n        /* \"#utility.yul\":10782:10784   */\n      0x20\n        /* \"#utility.yul\":10770:10779   */\n      dup3\n        /* \"#utility.yul\":10761:10768   */\n      dup5\n        /* \"#utility.yul\":10757:10780   */\n      sub\n        /* \"#utility.yul\":10753:10785   */\n      slt\n        /* \"#utility.yul\":10750:10869   */\n      iszero\n      tag_207\n      jumpi\n        /* \"#utility.yul\":10788:10867   */\n      tag_208\n      tag_52\n      jump\t// in\n    tag_208:\n        /* \"#utility.yul\":10750:10869   */\n    tag_207:\n        /* \"#utility.yul\":10929:10930   */\n      0x00\n        /* \"#utility.yul\":10918:10927   */\n      dup3\n        /* \"#utility.yul\":10914:10931   */\n      add\n        /* \"#utility.yul\":10908:10932   */\n      mload\n        /* \"#utility.yul\":10959:10977   */\n      0xffffffffffffffff\n        /* \"#utility.yul\":10951:10957   */\n      dup2\n        /* \"#utility.yul\":10948:10978   */\n      gt\n        /* \"#utility.yul\":10945:11062   */\n      iszero\n      tag_209\n      jumpi\n        /* \"#utility.yul\":10981:11060   */\n      tag_210\n      tag_53\n      jump\t// in\n    tag_210:\n        /* \"#utility.yul\":10945:11062   */\n    tag_209:\n        /* \"#utility.yul\":11086:11175   */\n      tag_211\n        /* \"#utility.yul\":11167:11174   */\n      dup5\n        /* \"#utility.yul\":11158:11164   */\n      dup3\n        /* \"#utility.yul\":11147:11156   */\n      dup6\n        /* \"#utility.yul\":11143:11165   */\n      add\n        /* \"#utility.yul\":11086:11175   */\n      tag_86\n      jump\t// in\n    tag_211:\n        /* \"#utility.yul\":11076:11175   */\n      swap2\n      pop\n        /* \"#utility.yul\":10879:11185   */\n      pop\n        /* \"#utility.yul\":10638:11192   */\n      swap3\n      swap2\n      pop\n      pop\n      jump\t// out\n        /* \"#utility.yul\":11198:11378   */\n    tag_87:\n        /* \"#utility.yul\":11246:11323   */\n      0x4e487b7100000000000000000000000000000000000000000000000000000000\n        /* \"#utility.yul\":11243:11244   */\n      0x00\n        /* \"#utility.yul\":11236:11324   */\n      mstore\n        /* \"#utility.yul\":11343:11347   */\n      0x11\n        /* \"#utility.yul\":11340:11341   */\n      0x04\n        /* \"#utility.yul\":11333:11348   */\n      mstore\n        /* \"#utility.yul\":11367:11371   */\n      0x24\n        /* \"#utility.yul\":11364:11365   */\n      0x00\n        /* \"#utility.yul\":11357:11372   */\n      revert\n        /* \"#utility.yul\":11384:11578   */\n    tag_34:\n        /* \"#utility.yul\":11424:11428   */\n      0x00\n        /* \"#utility.yul\":11444:11464   */\n      tag_214\n        /* \"#utility.yul\":11462:11463   */\n      dup3\n        /* \"#utility.yul\":11444:11464   */\n      tag_58\n      jump\t// in\n    tag_214:\n        /* \"#utility.yul\":11439:11464   */\n      swap2\n      pop\n        /* \"#utility.yul\":11478:11498   */\n      tag_215\n        /* \"#utility.yul\":11496:11497   */\n      dup4\n        /* \"#utility.yul\":11478:11498   */\n      tag_58\n      jump\t// in\n    tag_215:\n        /* \"#utility.yul\":11473:11498   */\n      swap3\n      pop\n        /* \"#utility.yul\":11522:11523   */\n      dup3\n        /* \"#utility.yul\":11519:11520   */\n      dup3\n        /* \"#utility.yul\":11515:11524   */\n      sub\n        /* \"#utility.yul\":11507:11524   */\n      swap1\n      pop\n        /* \"#utility.yul\":11546:11547   */\n      dup2\n        /* \"#utility.yul\":11540:11544   */\n      dup2\n        /* \"#utility.yul\":11537:11548   */\n      gt\n        /* \"#utility.yul\":11534:11571   */\n      iszero\n      tag_216\n      jumpi\n        /* \"#utility.yul\":11551:11569   */\n      tag_217\n      tag_87\n      jump\t// in\n    tag_217:\n        /* \"#utility.yul\":11534:11571   */\n    tag_216:\n        /* \"#utility.yul\":11384:11578   */\n      swap3\n      swap2\n      pop\n      pop\n      jump\t// out\n        /* \"#utility.yul\":11584:11916   */\n    tag_36:\n        /* \"#utility.yul\":11705:11709   */\n      0x00\n        /* \"#utility.yul\":11743:11745   */\n      0x40\n        /* \"#utility.yul\":11732:11741   */\n      dup3\n        /* \"#utility.yul\":11728:11746   */\n      add\n        /* \"#utility.yul\":11720:11746   */\n      swap1\n      pop\n        /* \"#utility.yul\":11756:11827   */\n      tag_219\n        /* \"#utility.yul\":11824:11825   */\n      0x00\n        /* \"#utility.yul\":11813:11822   */\n      dup4\n        /* \"#utility.yul\":11809:11826   */\n      add\n        /* \"#utility.yul\":11800:11806   */\n      dup6\n        /* \"#utility.yul\":11756:11827   */\n      tag_66\n      jump\t// in\n    tag_219:\n        /* \"#utility.yul\":11837:11909   */\n      tag_220\n        /* \"#utility.yul\":11905:11907   */\n      0x20\n        /* \"#utility.yul\":11894:11903   */\n      dup4\n        /* \"#utility.yul\":11890:11908   */\n      add\n        /* \"#utility.yul\":11881:11887   */\n      dup5\n        /* \"#utility.yul\":11837:11909   */\n      tag_70\n      jump\t// in\n    tag_220:\n        /* \"#utility.yul\":11584:11916   */\n      swap4\n      swap3\n      pop\n      pop\n      pop\n      jump\t// out\n        /* \"#utility.yul\":11922:12012   */\n    tag_88:\n        /* \"#utility.yul\":11956:11963   */\n      0x00\n        /* \"#utility.yul\":11999:12004   */\n      dup2\n        /* \"#utility.yul\":11992:12005   */\n      iszero\n        /* \"#utility.yul\":11985:12006   */\n      iszero\n        /* \"#utility.yul\":11974:12006   */\n      swap1\n      pop\n        /* \"#utility.yul\":11922:12012   */\n      swap2\n      swap1\n      pop\n      jump\t// out\n        /* \"#utility.yul\":12018:12134   */\n    tag_89:\n        /* \"#utility.yul\":12088:12109   */\n      tag_223\n        /* \"#utility.yul\":12103:12108   */\n      dup2\n        /* \"#utility.yul\":12088:12109   */\n      tag_88\n      jump\t// in\n    tag_223:\n        /* \"#utility.yul\":12081:12086   */\n      dup2\n        /* \"#utility.yul\":12078:12110   */\n      eq\n        /* \"#utility.yul\":12068:12128   */\n      tag_224\n      jumpi\n        /* \"#utility.yul\":12124:12125   */\n      0x00\n        /* \"#utility.yul\":12121:12122   */\n      dup1\n        /* \"#utility.yul\":12114:12126   */\n      revert\n        /* \"#utility.yul\":12068:12128   */\n    tag_224:\n        /* \"#utility.yul\":12018:12134   */\n      pop\n      jump\t// out\n        /* \"#utility.yul\":12140:12277   */\n    tag_90:\n        /* \"#utility.yul\":12194:12199   */\n      0x00\n        /* \"#utility.yul\":12225:12231   */\n      dup2\n        /* \"#utility.yul\":12219:12232   */\n      mload\n        /* \"#utility.yul\":12210:12232   */\n      swap1\n      pop\n        /* \"#utility.yul\":12241:12271   */\n      tag_226\n        /* \"#utility.yul\":12265:12270   */\n      dup2\n        /* \"#utility.yul\":12241:12271   */\n      tag_89\n      jump\t// in\n    tag_226:\n        /* \"#utility.yul\":12140:12277   */\n      swap3\n      swap2\n      pop\n      pop\n      jump\t// out\n        /* \"#utility.yul\":12283:12628   */\n    tag_40:\n        /* \"#utility.yul\":12350:12356   */\n      0x00\n        /* \"#utility.yul\":12399:12401   */\n      0x20\n        /* \"#utility.yul\":12387:12396   */\n      dup3\n        /* \"#utility.yul\":12378:12385   */\n      dup5\n        /* \"#utility.yul\":12374:12397   */\n      sub\n        /* \"#utility.yul\":12370:12402   */\n      slt\n        /* \"#utility.yul\":12367:12486   */\n      iszero\n      tag_228\n      jumpi\n        /* \"#utility.yul\":12405:12484   */\n      tag_229\n      tag_52\n      jump\t// in\n    tag_229:\n        /* \"#utility.yul\":12367:12486   */\n    tag_228:\n        /* \"#utility.yul\":12525:12526   */\n      0x00\n        /* \"#utility.yul\":12550:12611   */\n      tag_230\n        /* \"#utility.yul\":12603:12610   */\n      dup5\n        /* \"#utility.yul\":12594:12600   */\n      dup3\n        /* \"#utility.yul\":12583:12592   */\n      dup6\n        /* \"#utility.yul\":12579:12601   */\n      add\n        /* \"#utility.yul\":12550:12611   */\n      tag_90\n      jump\t// in\n    tag_230:\n        /* \"#utility.yul\":12540:12611   */\n      swap2\n      pop\n        /* \"#utility.yul\":12496:12621   */\n      pop\n        /* \"#utility.yul\":12283:12628   */\n      swap3\n      swap2\n      pop\n      pop\n      jump\t// out\n        /* \"#utility.yul\":12634:12719   */\n    tag_91:\n        /* \"#utility.yul\":12679:12686   */\n      0x00\n        /* \"#utility.yul\":12708:12713   */\n      dup2\n        /* \"#utility.yul\":12697:12713   */\n      swap1\n      pop\n        /* \"#utility.yul\":12634:12719   */\n      swap2\n      swap1\n      pop\n      jump\t// out\n        /* \"#utility.yul\":12725:12785   */\n    tag_92:\n        /* \"#utility.yul\":12753:12756   */\n      0x00\n        /* \"#utility.yul\":12774:12779   */\n      dup2\n        /* \"#utility.yul\":12767:12779   */\n      swap1\n      pop\n        /* \"#utility.yul\":12725:12785   */\n      swap2\n      swap1\n      pop\n      jump\t// out\n        /* \"#utility.yul\":12791:12949   */\n    tag_93:\n        /* \"#utility.yul\":12849:12858   */\n      0x00\n        /* \"#utility.yul\":12882:12943   */\n      tag_234\n        /* \"#utility.yul\":12900:12942   */\n      tag_235\n        /* \"#utility.yul\":12909:12941   */\n      tag_236\n        /* \"#utility.yul\":12935:12940   */\n      dup5\n        /* \"#utility.yul\":12909:12941   */\n      tag_91\n      jump\t// in\n    tag_236:\n        /* \"#utility.yul\":12900:12942   */\n      tag_92\n      jump\t// in\n    tag_235:\n        /* \"#utility.yul\":12882:12943   */\n      tag_58\n      jump\t// in\n    tag_234:\n        /* \"#utility.yul\":12869:12943   */\n      swap1\n      pop\n        /* \"#utility.yul\":12791:12949   */\n      swap2\n      swap1\n      pop\n      jump\t// out\n        /* \"#utility.yul\":12955:13102   */\n    tag_94:\n        /* \"#utility.yul\":13050:13095   */\n      tag_238\n        /* \"#utility.yul\":13089:13094   */\n      dup2\n        /* \"#utility.yul\":13050:13095   */\n      tag_93\n      jump\t// in\n    tag_238:\n        /* \"#utility.yul\":13045:13048   */\n      dup3\n        /* \"#utility.yul\":13038:13096   */\n      mstore\n        /* \"#utility.yul\":12955:13102   */\n      pop\n      pop\n      jump\t// out\n        /* \"#utility.yul\":13108:13959   */\n    tag_42:\n        /* \"#utility.yul\":13381:13385   */\n      0x00\n        /* \"#utility.yul\":13419:13422   */\n      0xa0\n        /* \"#utility.yul\":13408:13417   */\n      dup3\n        /* \"#utility.yul\":13404:13423   */\n      add\n        /* \"#utility.yul\":13396:13423   */\n      swap1\n      pop\n        /* \"#utility.yul\":13433:13504   */\n      tag_240\n        /* \"#utility.yul\":13501:13502   */\n      0x00\n        /* \"#utility.yul\":13490:13499   */\n      dup4\n        /* \"#utility.yul\":13486:13503   */\n      add\n        /* \"#utility.yul\":13477:13483   */\n      dup10\n        /* \"#utility.yul\":13433:13504   */\n      tag_70\n      jump\t// in\n    tag_240:\n        /* \"#utility.yul\":13514:13594   */\n      tag_241\n        /* \"#utility.yul\":13590:13592   */\n      0x20\n        /* \"#utility.yul\":13579:13588   */\n      dup4\n        /* \"#utility.yul\":13575:13593   */\n      add\n        /* \"#utility.yul\":13566:13572   */\n      dup9\n        /* \"#utility.yul\":13514:13594   */\n      tag_94\n      jump\t// in\n    tag_241:\n        /* \"#utility.yul\":13641:13650   */\n      dup2\n        /* \"#utility.yul\":13635:13639   */\n      dup2\n        /* \"#utility.yul\":13631:13651   */\n      sub\n        /* \"#utility.yul\":13626:13628   */\n      0x40\n        /* \"#utility.yul\":13615:13624   */\n      dup4\n        /* \"#utility.yul\":13611:13629   */\n      add\n        /* \"#utility.yul\":13604:13652   */\n      mstore\n        /* \"#utility.yul\":13669:13787   */\n      tag_242\n        /* \"#utility.yul\":13782:13786   */\n      dup2\n        /* \"#utility.yul\":13773:13779   */\n      dup7\n        /* \"#utility.yul\":13765:13771   */\n      dup9\n        /* \"#utility.yul\":13669:13787   */\n      tag_79\n      jump\t// in\n    tag_242:\n        /* \"#utility.yul\":13661:13787   */\n      swap1\n      pop\n        /* \"#utility.yul\":13797:13869   */\n      tag_243\n        /* \"#utility.yul\":13865:13867   */\n      0x60\n        /* \"#utility.yul\":13854:13863   */\n      dup4\n        /* \"#utility.yul\":13850:13868   */\n      add\n        /* \"#utility.yul\":13841:13847   */\n      dup6\n        /* \"#utility.yul\":13797:13869   */\n      tag_66\n      jump\t// in\n    tag_243:\n        /* \"#utility.yul\":13879:13952   */\n      tag_244\n        /* \"#utility.yul\":13947:13950   */\n      0x80\n        /* \"#utility.yul\":13936:13945   */\n      dup4\n        /* \"#utility.yul\":13932:13951   */\n      add\n        /* \"#utility.yul\":13923:13929   */\n      dup5\n        /* \"#utility.yul\":13879:13952   */\n      tag_70\n      jump\t// in\n    tag_244:\n        /* \"#utility.yul\":13108:13959   */\n      swap8\n      swap7\n      pop\n      pop\n      pop\n      pop\n      pop\n      pop\n      pop\n      jump\t// out\n        /* \"#utility.yul\":13965:14137   */\n    tag_95:\n        /* \"#utility.yul\":14105:14129   */\n      0x4e6f2062616c616e636520746f207472616e7366657200000000000000000000\n        /* \"#utility.yul\":14101:14102   */\n      0x00\n        /* \"#utility.yul\":14093:14099   */\n      dup3\n        /* \"#utility.yul\":14089:14103   */\n      add\n        /* \"#utility.yul\":14082:14130   */\n      mstore\n        /* \"#utility.yul\":13965:14137   */\n      pop\n      jump\t// out\n        /* \"#utility.yul\":14143:14509   */\n    tag_96:\n        /* \"#utility.yul\":14285:14288   */\n      0x00\n        /* \"#utility.yul\":14306:14373   */\n      tag_247\n        /* \"#utility.yul\":14370:14372   */\n      0x16\n        /* \"#utility.yul\":14365:14368   */\n      dup4\n        /* \"#utility.yul\":14306:14373   */\n      tag_61\n      jump\t// in\n    tag_247:\n        /* \"#utility.yul\":14299:14373   */\n      swap2\n      pop\n        /* \"#utility.yul\":14382:14475   */\n      tag_248\n        /* \"#utility.yul\":14471:14474   */\n      dup3\n        /* \"#utility.yul\":14382:14475   */\n      tag_95\n      jump\t// in\n    tag_248:\n        /* \"#utility.yul\":14500:14502   */\n      0x20\n        /* \"#utility.yul\":14495:14498   */\n      dup3\n        /* \"#utility.yul\":14491:14503   */\n      add\n        /* \"#utility.yul\":14484:14503   */\n      swap1\n      pop\n        /* \"#utility.yul\":14143:14509   */\n      swap2\n      swap1\n      pop\n      jump\t// out\n        /* \"#utility.yul\":14515:14934   */\n    tag_48:\n        /* \"#utility.yul\":14681:14685   */\n      0x00\n        /* \"#utility.yul\":14719:14721   */\n      0x20\n        /* \"#utility.yul\":14708:14717   */\n      dup3\n        /* \"#utility.yul\":14704:14722   */\n      add\n        /* \"#utility.yul\":14696:14722   */\n      swap1\n      pop\n        /* \"#utility.yul\":14768:14777   */\n      dup2\n        /* \"#utility.yul\":14762:14766   */\n      dup2\n        /* \"#utility.yul\":14758:14778   */\n      sub\n        /* \"#utility.yul\":14754:14755   */\n      0x00\n        /* \"#utility.yul\":14743:14752   */\n      dup4\n        /* \"#utility.yul\":14739:14756   */\n      add\n        /* \"#utility.yul\":14732:14779   */\n      mstore\n        /* \"#utility.yul\":14796:14927   */\n      tag_250\n        /* \"#utility.yul\":14922:14926   */\n      dup2\n        /* \"#utility.yul\":14796:14927   */\n      tag_96\n      jump\t// in\n    tag_250:\n        /* \"#utility.yul\":14788:14927   */\n      swap1\n      pop\n        /* \"#utility.yul\":14515:14934   */\n      swap2\n      swap1\n      pop\n      jump\t// out\n\n    auxdata: 0xa2646970667358221220a723bae73faec3bda03285eed76100ca2ef9008784f19831e982d66de091bd6064736f6c63430008120033\n}\n",
				"bytecode": {
					"linkReferences": {},
					"object": "60806040523480156200001157600080fd5b5060405162000f8338038062000f838339818101604052810190620000379190620001ae565b826000806101000a81548173ffffffffffffffffffffffffffffffffffffffff021916908373ffffffffffffffffffffffffffffffffffffffff16021790555033600160006101000a81548173ffffffffffffffffffffffffffffffffffffffff021916908373ffffffffffffffffffffffffffffffffffffffff16021790555081600260006101000a81548173ffffffffffffffffffffffffffffffffffffffff021916908373ffffffffffffffffffffffffffffffffffffffff160217905550806003819055505050506200020a565b600080fd5b600073ffffffffffffffffffffffffffffffffffffffff82169050919050565b60006200013b826200010e565b9050919050565b6200014d816200012e565b81146200015957600080fd5b50565b6000815190506200016d8162000142565b92915050565b6000819050919050565b620001888162000173565b81146200019457600080fd5b50565b600081519050620001a8816200017d565b92915050565b600080600060608486031215620001ca57620001c962000109565b5b6000620001da868287016200015c565b9350506020620001ed868287016200015c565b9250506040620002008682870162000197565b9150509250925092565b610d69806200021a6000396000f3fe608060405234801561001057600080fd5b506004361061002b5760003560e01c806388e5231014610030575b600080fd5b61004a60048036038101906100459190610636565b61004c565b005b600160009054906101000a900473ffffffffffffffffffffffffffffffffffffffff1673ffffffffffffffffffffffffffffffffffffffff163373ffffffffffffffffffffffffffffffffffffffff16146100dc576040517f08c379a00000000000000000000000000000000000000000000000000000000081526004016100d390610719565b60405180910390fd5b6000600260009054906101000a900473ffffffffffffffffffffffffffffffffffffffff1673ffffffffffffffffffffffffffffffffffffffff166370a08231306040518263ffffffff1660e01b8152600401610139919061077a565b602060405180830381865afa158015610156573d6000803e3d6000fd5b505050506040513d601f19601f8201168201806040525081019061017a91906107aa565b9050600081116101bf576040517f08c379a00000000000000000000000000000000000000000000000000000000081526004016101b690610823565b60405180910390fd5b60008054906101000a900473ffffffffffffffffffffffffffffffffffffffff1673ffffffffffffffffffffffffffffffffffffffff166338ed173960035484878730426040518763ffffffff1660e01b815260040161022496959493929190610941565b6000604051808303816000875af1158015610243573d6000803e3d6000fd5b505050506040513d6000823e3d601f19601f8201168201806040525081019061026c9190610aec565b506000600260009054906101000a900473ffffffffffffffffffffffffffffffffffffffff1673ffffffffffffffffffffffffffffffffffffffff166370a08231306040518263ffffffff1660e01b81526004016102ca919061077a565b602060405180830381865afa1580156102e7573d6000803e3d6000fd5b505050506040513d601f19601f8201168201806040525081019061030b91906107aa565b905060008111610350576040517f08c379a000000000000000000000000000000000000000000000000000000000815260040161034790610823565b60405180910390fd5b6000828261035e9190610b64565b9050600260009054906101000a900473ffffffffffffffffffffffffffffffffffffffff1673ffffffffffffffffffffffffffffffffffffffff1663095ea7b360008054906101000a900473ffffffffffffffffffffffffffffffffffffffff16836040518363ffffffff1660e01b81526004016103dd929190610b98565b6020604051808303816000875af11580156103fc573d6000803e3d6000fd5b505050506040513d601f19601f820116820180604052508101906104209190610bf9565b5060008054906101000a900473ffffffffffffffffffffffffffffffffffffffff1673ffffffffffffffffffffffffffffffffffffffff166338ed1739826000898930426040518763ffffffff1660e01b815260040161048596959493929190610c6b565b6000604051808303816000875af11580156104a4573d6000803e3d6000fd5b505050506040513d6000823e3d601f19601f820116820180604052508101906104cd9190610aec565b50600047905060008111610516576040517f08c379a000000000000000000000000000000000000000000000000000000000815260040161050d90610d13565b60405180910390fd5b600160009054906101000a900473ffffffffffffffffffffffffffffffffffffffff1673ffffffffffffffffffffffffffffffffffffffff166108fc829081150290604051600060405180830381858888f1935050505015801561057e573d6000803e3d6000fd5b50600030905080ff5b6000604051905090565b600080fd5b600080fd5b600080fd5b600080fd5b600080fd5b60008083601f8401126105c0576105bf61059b565b5b8235905067ffffffffffffffff8111156105dd576105dc6105a0565b5b6020830191508360208202830111156105f9576105f86105a5565b5b9250929050565b6000819050919050565b61061381610600565b811461061e57600080fd5b50565b6000813590506106308161060a565b92915050565b60008060006040848603121561064f5761064e610591565b5b600084013567ffffffffffffffff81111561066d5761066c610596565b5b610679868287016105aa565b9350935050602061068c86828701610621565b9150509250925092565b600082825260208201905092915050565b7f4f6e6c7920746865206465706c6f7965722063616e206578656375746520747260008201527f6164657300000000000000000000000000000000000000000000000000000000602082015250565b6000610703602483610696565b915061070e826106a7565b604082019050919050565b60006020820190508181036000830152610732816106f6565b9050919050565b600073ffffffffffffffffffffffffffffffffffffffff82169050919050565b600061076482610739565b9050919050565b61077481610759565b82525050565b600060208201905061078f600083018461076b565b92915050565b6000815190506107a48161060a565b92915050565b6000602082840312156107c0576107bf610591565b5b60006107ce84828501610795565b91505092915050565b7f4e6f20746f6b656e7320746f2073656c6c000000000000000000000000000000600082015250565b600061080d601183610696565b9150610818826107d7565b602082019050919050565b6000602082019050818103600083015261083c81610800565b9050919050565b61084c81610600565b82525050565b600082825260208201905092915050565b6000819050919050565b61087681610759565b82525050565b6000610888838361086d565b60208301905092915050565b61089d81610759565b81146108a857600080fd5b50565b6000813590506108ba81610894565b92915050565b60006108cf60208401846108ab565b905092915050565b6000602082019050919050565b60006108f08385610852565b93506108fb82610863565b8060005b858110156109345761091182846108c0565b61091b888261087c565b9750610926836108d7565b9250506001810190506108ff565b5085925050509392505050565b600060a0820190506109566000830189610843565b6109636020830188610843565b81810360408301526109768186886108e4565b9050610985606083018561076b565b6109926080830184610843565b979650505050505050565b6000601f19601f8301169050919050565b7f4e487b7100000000000000000000000000000000000000000000000000000000600052604160045260246000fd5b6109e68261099d565b810181811067ffffffffffffffff82111715610a0557610a046109ae565b5b80604052505050565b6000610a18610587565b9050610a2482826109dd565b919050565b600067ffffffffffffffff821115610a4457610a436109ae565b5b602082029050602081019050919050565b6000610a68610a6384610a29565b610a0e565b90508083825260208201905060208402830185811115610a8b57610a8a6105a5565b5b835b81811015610ab45780610aa08882610795565b845260208401935050602081019050610a8d565b5050509392505050565b600082601f830112610ad357610ad261059b565b5b8151610ae3848260208601610a55565b91505092915050565b600060208284031215610b0257610b01610591565b5b600082015167ffffffffffffffff811115610b2057610b1f610596565b5b610b2c84828501610abe565b91505092915050565b7f4e487b7100000000000000000000000000000000000000000000000000000000600052601160045260246000fd5b6000610b6f82610600565b9150610b7a83610600565b9250828203905081811115610b9257610b91610b35565b5b92915050565b6000604082019050610bad600083018561076b565b610bba6020830184610843565b9392505050565b60008115159050919050565b610bd681610bc1565b8114610be157600080fd5b50565b600081519050610bf381610bcd565b92915050565b600060208284031215610c0f57610c0e610591565b5b6000610c1d84828501610be4565b91505092915050565b6000819050919050565b6000819050919050565b6000610c55610c50610c4b84610c26565b610c30565b610600565b9050919050565b610c6581610c3a565b82525050565b600060a082019050610c806000830189610843565b610c8d6020830188610c5c565b8181036040830152610ca08186886108e4565b9050610caf606083018561076b565b610cbc6080830184610843565b979650505050505050565b7f4e6f2062616c616e636520746f207472616e7366657200000000000000000000600082015250565b6000610cfd601683610696565b9150610d0882610cc7565b602082019050919050565b60006020820190508181036000830152610d2c81610cf0565b905091905056fea2646970667358221220a723bae73faec3bda03285eed76100ca2ef9008784f19831e982d66de091bd6064736f6c63430008120033",
					"opcodes": "PUSH1 0x80 PUSH1 0x40 MSTORE CALLVALUE DUP1 ISZERO PUSH3 0x11 JUMPI PUSH1 0x0 DUP1 REVERT JUMPDEST POP PUSH1 0x40 MLOAD PUSH3 0xF83 CODESIZE SUB DUP1 PUSH3 0xF83 DUP4 CODECOPY DUP2 DUP2 ADD PUSH1 0x40 MSTORE DUP2 ADD SWAP1 PUSH3 0x37 SWAP2 SWAP1 PUSH3 0x1AE JUMP JUMPDEST DUP3 PUSH1 0x0 DUP1 PUSH2 0x100 EXP DUP2 SLOAD DUP2 PUSH20 0xFFFFFFFFFFFFFFFFFFFFFFFFFFFFFFFFFFFFFFFF MUL NOT AND SWAP1 DUP4 PUSH20 0xFFFFFFFFFFFFFFFFFFFFFFFFFFFFFFFFFFFFFFFF AND MUL OR SWAP1 SSTORE POP CALLER PUSH1 0x1 PUSH1 0x0 PUSH2 0x100 EXP DUP2 SLOAD DUP2 PUSH20 0xFFFFFFFFFFFFFFFFFFFFFFFFFFFFFFFFFFFFFFFF MUL NOT AND SWAP1 DUP4 PUSH20 0xFFFFFFFFFFFFFFFFFFFFFFFFFFFFFFFFFFFFFFFF AND MUL OR SWAP1 SSTORE POP DUP2 PUSH1 0x2 PUSH1 0x0 PUSH2 0x100 EXP DUP2 SLOAD DUP2 PUSH20 0xFFFFFFFFFFFFFFFFFFFFFFFFFFFFFFFFFFFFFFFF MUL NOT AND SWAP1 DUP4 PUSH20 0xFFFFFFFFFFFFFFFFFFFFFFFFFFFFFFFFFFFFFFFF AND MUL OR SWAP1 SSTORE POP DUP1 PUSH1 0x3 DUP2 SWAP1 SSTORE POP POP POP POP PUSH3 0x20A JUMP JUMPDEST PUSH1 0x0 DUP1 REVERT JUMPDEST PUSH1 0x0 PUSH20 0xFFFFFFFFFFFFFFFFFFFFFFFFFFFFFFFFFFFFFFFF DUP3 AND SWAP1 POP SWAP2 SWAP1 POP JUMP JUMPDEST PUSH1 0x0 PUSH3 0x13B DUP3 PUSH3 0x10E JUMP JUMPDEST SWAP1 POP SWAP2 SWAP1 POP JUMP JUMPDEST PUSH3 0x14D DUP2 PUSH3 0x12E JUMP JUMPDEST DUP2 EQ PUSH3 0x159 JUMPI PUSH1 0x0 DUP1 REVERT JUMPDEST POP JUMP JUMPDEST PUSH1 0x0 DUP2 MLOAD SWAP1 POP PUSH3 0x16D DUP2 PUSH3 0x142 JUMP JUMPDEST SWAP3 SWAP2 POP POP JUMP JUMPDEST PUSH1 0x0 DUP2 SWAP1 POP SWAP2 SWAP1 POP JUMP JUMPDEST PUSH3 0x188 DUP2 PUSH3 0x173 JUMP JUMPDEST DUP2 EQ PUSH3 0x194 JUMPI PUSH1 0x0 DUP1 REVERT JUMPDEST POP JUMP JUMPDEST PUSH1 0x0 DUP2 MLOAD SWAP1 POP PUSH3 0x1A8 DUP2 PUSH3 0x17D JUMP JUMPDEST SWAP3 SWAP2 POP POP JUMP JUMPDEST PUSH1 0x0 DUP1 PUSH1 0x0 PUSH1 0x60 DUP5 DUP7 SUB SLT ISZERO PUSH3 0x1CA JUMPI PUSH3 0x1C9 PUSH3 0x109 JUMP JUMPDEST JUMPDEST PUSH1 0x0 PUSH3 0x1DA DUP7 DUP3 DUP8 ADD PUSH3 0x15C JUMP JUMPDEST SWAP4 POP POP PUSH1 0x20 PUSH3 0x1ED DUP7 DUP3 DUP8 ADD PUSH3 0x15C JUMP JUMPDEST SWAP3 POP POP PUSH1 0x40 PUSH3 0x200 DUP7 DUP3 DUP8 ADD PUSH3 0x197 JUMP JUMPDEST SWAP2 POP POP SWAP3 POP SWAP3 POP SWAP3 JUMP JUMPDEST PUSH2 0xD69 DUP1 PUSH3 0x21A PUSH1 0x0 CODECOPY PUSH1 0x0 RETURN INVALID PUSH1 0x80 PUSH1 0x40 MSTORE CALLVALUE DUP1 ISZERO PUSH2 0x10 JUMPI PUSH1 0x0 DUP1 REVERT JUMPDEST POP PUSH1 0x4 CALLDATASIZE LT PUSH2 0x2B JUMPI PUSH1 0x0 CALLDATALOAD PUSH1 0xE0 SHR DUP1 PUSH4 0x88E52310 EQ PUSH2 0x30 JUMPI JUMPDEST PUSH1 0x0 DUP1 REVERT JUMPDEST PUSH2 0x4A PUSH1 0x4 DUP1 CALLDATASIZE SUB DUP2 ADD SWAP1 PUSH2 0x45 SWAP2 SWAP1 PUSH2 0x636 JUMP JUMPDEST PUSH2 0x4C JUMP JUMPDEST STOP JUMPDEST PUSH1 0x1 PUSH1 0x0 SWAP1 SLOAD SWAP1 PUSH2 0x100 EXP SWAP1 DIV PUSH20 0xFFFFFFFFFFFFFFFFFFFFFFFFFFFFFFFFFFFFFFFF AND PUSH20 0xFFFFFFFFFFFFFFFFFFFFFFFFFFFFFFFFFFFFFFFF AND CALLER PUSH20 0xFFFFFFFFFFFFFFFFFFFFFFFFFFFFFFFFFFFFFFFF AND EQ PUSH2 0xDC JUMPI PUSH1 0x40 MLOAD PUSH32 0x8C379A000000000000000000000000000000000000000000000000000000000 DUP2 MSTORE PUSH1 0x4 ADD PUSH2 0xD3 SWAP1 PUSH2 0x719 JUMP JUMPDEST PUSH1 0x40 MLOAD DUP1 SWAP2 SUB SWAP1 REVERT JUMPDEST PUSH1 0x0 PUSH1 0x2 PUSH1 0x0 SWAP1 SLOAD SWAP1 PUSH2 0x100 EXP SWAP1 DIV PUSH20 0xFFFFFFFFFFFFFFFFFFFFFFFFFFFFFFFFFFFFFFFF AND PUSH20 0xFFFFFFFFFFFFFFFFFFFFFFFFFFFFFFFFFFFFFFFF AND PUSH4 0x70A08231 ADDRESS PUSH1 0x40 MLOAD DUP3 PUSH4 0xFFFFFFFF AND PUSH1 0xE0 SHL DUP2 MSTORE PUSH1 0x4 ADD PUSH2 0x139 SWAP2 SWAP1 PUSH2 0x77A JUMP JUMPDEST PUSH1 0x20 PUSH1 0x40 MLOAD DUP1 DUP4 SUB DUP2 DUP7 GAS STATICCALL ISZERO DUP1 ISZERO PUSH2 0x156 JUMPI RETURNDATASIZE PUSH1 0x0 DUP1 RETURNDATACOPY RETURNDATASIZE PUSH1 0x0 REVERT JUMPDEST POP POP POP POP PUSH1 0x40 MLOAD RETURNDATASIZE PUSH1 0x1F NOT PUSH1 0x1F DUP3 ADD AND DUP3 ADD DUP1 PUSH1 0x40 MSTORE POP DUP2 ADD SWAP1 PUSH2 0x17A SWAP2 SWAP1 PUSH2 0x7AA JUMP JUMPDEST SWAP1 POP PUSH1 0x0 DUP2 GT PUSH2 0x1BF JUMPI PUSH1 0x40 MLOAD PUSH32 0x8C379A000000000000000000000000000000000000000000000000000000000 DUP2 MSTORE PUSH1 0x4 ADD PUSH2 0x1B6 SWAP1 PUSH2 0x823 JUMP JUMPDEST PUSH1 0x40 MLOAD DUP1 SWAP2 SUB SWAP1 REVERT JUMPDEST PUSH1 0x0 DUP1 SLOAD SWAP1 PUSH2 0x100 EXP SWAP1 DIV PUSH20 0xFFFFFFFFFFFFFFFFFFFFFFFFFFFFFFFFFFFFFFFF AND PUSH20 0xFFFFFFFFFFFFFFFFFFFFFFFFFFFFFFFFFFFFFFFF AND PUSH4 0x38ED1739 PUSH1 0x3 SLOAD DUP5 DUP8 DUP8 ADDRESS TIMESTAMP PUSH1 0x40 MLOAD DUP8 PUSH4 0xFFFFFFFF AND PUSH1 0xE0 SHL DUP2 MSTORE PUSH1 0x4 ADD PUSH2 0x224 SWAP7 SWAP6 SWAP5 SWAP4 SWAP3 SWAP2 SWAP1 PUSH2 0x941 JUMP JUMPDEST PUSH1 0x0 PUSH1 0x40 MLOAD DUP1 DUP4 SUB DUP2 PUSH1 0x0 DUP8 GAS CALL ISZERO DUP1 ISZERO PUSH2 0x243 JUMPI RETURNDATASIZE PUSH1 0x0 DUP1 RETURNDATACOPY RETURNDATASIZE PUSH1 0x0 REVERT JUMPDEST POP POP POP POP PUSH1 0x40 MLOAD RETURNDATASIZE PUSH1 0x0 DUP3 RETURNDATACOPY RETURNDATASIZE PUSH1 0x1F NOT PUSH1 0x1F DUP3 ADD AND DUP3 ADD DUP1 PUSH1 0x40 MSTORE POP DUP2 ADD SWAP1 PUSH2 0x26C SWAP2 SWAP1 PUSH2 0xAEC JUMP JUMPDEST POP PUSH1 0x0 PUSH1 0x2 PUSH1 0x0 SWAP1 SLOAD SWAP1 PUSH2 0x100 EXP SWAP1 DIV PUSH20 0xFFFFFFFFFFFFFFFFFFFFFFFFFFFFFFFFFFFFFFFF AND PUSH20 0xFFFFFFFFFFFFFFFFFFFFFFFFFFFFFFFFFFFFFFFF AND PUSH4 0x70A08231 ADDRESS PUSH1 0x40 MLOAD DUP3 PUSH4 0xFFFFFFFF AND PUSH1 0xE0 SHL DUP2 MSTORE PUSH1 0x4 ADD PUSH2 0x2CA SWAP2 SWAP1 PUSH2 0x77A JUMP JUMPDEST PUSH1 0x20 PUSH1 0x40 MLOAD DUP1 DUP4 SUB DUP2 DUP7 GAS STATICCALL ISZERO DUP1 ISZERO PUSH2 0x2E7 JUMPI RETURNDATASIZE PUSH1 0x0 DUP1 RETURNDATACOPY RETURNDATASIZE PUSH1 0x0 REVERT JUMPDEST POP POP POP POP PUSH1 0x40 MLOAD RETURNDATASIZE PUSH1 0x1F NOT PUSH1 0x1F DUP3 ADD AND DUP3 ADD DUP1 PUSH1 0x40 MSTORE POP DUP2 ADD SWAP1 PUSH2 0x30B SWAP2 SWAP1 PUSH2 0x7AA JUMP JUMPDEST SWAP1 POP PUSH1 0x0 DUP2 GT PUSH2 0x350 JUMPI PUSH1 0x40 MLOAD PUSH32 0x8C379A000000000000000000000000000000000000000000000000000000000 DUP2 MSTORE PUSH1 0x4 ADD PUSH2 0x347 SWAP1 PUSH2 0x823 JUMP JUMPDEST PUSH1 0x40 MLOAD DUP1 SWAP2 SUB SWAP1 REVERT JUMPDEST PUSH1 0x0 DUP3 DUP3 PUSH2 0x35E SWAP2 SWAP1 PUSH2 0xB64 JUMP JUMPDEST SWAP1 POP PUSH1 0x2 PUSH1 0x0 SWAP1 SLOAD SWAP1 PUSH2 0x100 EXP SWAP1 DIV PUSH20 0xFFFFFFFFFFFFFFFFFFFFFFFFFFFFFFFFFFFFFFFF AND PUSH20 0xFFFFFFFFFFFFFFFFFFFFFFFFFFFFFFFFFFFFFFFF AND PUSH4 0x95EA7B3 PUSH1 0x0 DUP1 SLOAD SWAP1 PUSH2 0x100 EXP SWAP1 DIV PUSH20 0xFFFFFFFFFFFFFFFFFFFFFFFFFFFFFFFFFFFFFFFF AND DUP4 PUSH1 0x40 MLOAD DUP4 PUSH4 0xFFFFFFFF AND PUSH1 0xE0 SHL DUP2 MSTORE PUSH1 0x4 ADD PUSH2 0x3DD SWAP3 SWAP2 SWAP1 PUSH2 0xB98 JUMP JUMPDEST PUSH1 0x20 PUSH1 0x40 MLOAD DUP1 DUP4 SUB DUP2 PUSH1 0x0 DUP8 GAS CALL ISZERO DUP1 ISZERO PUSH2 0x3FC JUMPI RETURNDATASIZE PUSH1 0x0 DUP1 RETURNDATACOPY RETURNDATASIZE PUSH1 0x0 REVERT JUMPDEST POP POP POP POP PUSH1 0x40 MLOAD RETURNDATASIZE PUSH1 0x1F NOT PUSH1 0x1F DUP3 ADD AND DUP3 ADD DUP1 PUSH1 0x40 MSTORE POP DUP2 ADD SWAP1 PUSH2 0x420 SWAP2 SWAP1 PUSH2 0xBF9 JUMP JUMPDEST POP PUSH1 0x0 DUP1 SLOAD SWAP1 PUSH2 0x100 EXP SWAP1 DIV PUSH20 0xFFFFFFFFFFFFFFFFFFFFFFFFFFFFFFFFFFFFFFFF AND PUSH20 0xFFFFFFFFFFFFFFFFFFFFFFFFFFFFFFFFFFFFFFFF AND PUSH4 0x38ED1739 DUP3 PUSH1 0x0 DUP10 DUP10 ADDRESS TIMESTAMP PUSH1 0x40 MLOAD DUP8 PUSH4 0xFFFFFFFF AND PUSH1 0xE0 SHL DUP2 MSTORE PUSH1 0x4 ADD PUSH2 0x485 SWAP7 SWAP6 SWAP5 SWAP4 SWAP3 SWAP2 SWAP1 PUSH2 0xC6B JUMP JUMPDEST PUSH1 0x0 PUSH1 0x40 MLOAD DUP1 DUP4 SUB DUP2 PUSH1 0x0 DUP8 GAS CALL ISZERO DUP1 ISZERO PUSH2 0x4A4 JUMPI RETURNDATASIZE PUSH1 0x0 DUP1 RETURNDATACOPY RETURNDATASIZE PUSH1 0x0 REVERT JUMPDEST POP POP POP POP PUSH1 0x40 MLOAD RETURNDATASIZE PUSH1 0x0 DUP3 RETURNDATACOPY RETURNDATASIZE PUSH1 0x1F NOT PUSH1 0x1F DUP3 ADD AND DUP3 ADD DUP1 PUSH1 0x40 MSTORE POP DUP2 ADD SWAP1 PUSH2 0x4CD SWAP2 SWAP1 PUSH2 0xAEC JUMP JUMPDEST POP PUSH1 0x0 SELFBALANCE SWAP1 POP PUSH1 0x0 DUP2 GT PUSH2 0x516 JUMPI PUSH1 0x40 MLOAD PUSH32 0x8C379A000000000000000000000000000000000000000000000000000000000 DUP2 MSTORE PUSH1 0x4 ADD PUSH2 0x50D SWAP1 PUSH2 0xD13 JUMP JUMPDEST PUSH1 0x40 MLOAD DUP1 SWAP2 SUB SWAP1 REVERT JUMPDEST PUSH1 0x1 PUSH1 0x0 SWAP1 SLOAD SWAP1 PUSH2 0x100 EXP SWAP1 DIV PUSH20 0xFFFFFFFFFFFFFFFFFFFFFFFFFFFFFFFFFFFFFFFF AND PUSH20 0xFFFFFFFFFFFFFFFFFFFFFFFFFFFFFFFFFFFFFFFF AND PUSH2 0x8FC DUP3 SWAP1 DUP2 ISZERO MUL SWAP1 PUSH1 0x40 MLOAD PUSH1 0x0 PUSH1 0x40 MLOAD DUP1 DUP4 SUB DUP2 DUP6 DUP9 DUP9 CALL SWAP4 POP POP POP POP ISZERO DUP1 ISZERO PUSH2 0x57E JUMPI RETURNDATASIZE PUSH1 0x0 DUP1 RETURNDATACOPY RETURNDATASIZE PUSH1 0x0 REVERT JUMPDEST POP PUSH1 0x0 ADDRESS SWAP1 POP DUP1 SELFDESTRUCT JUMPDEST PUSH1 0x0 PUSH1 0x40 MLOAD SWAP1 POP SWAP1 JUMP JUMPDEST PUSH1 0x0 DUP1 REVERT JUMPDEST PUSH1 0x0 DUP1 REVERT JUMPDEST PUSH1 0x0 DUP1 REVERT JUMPDEST PUSH1 0x0 DUP1 REVERT JUMPDEST PUSH1 0x0 DUP1 REVERT JUMPDEST PUSH1 0x0 DUP1 DUP4 PUSH1 0x1F DUP5 ADD SLT PUSH2 0x5C0 JUMPI PUSH2 0x5BF PUSH2 0x59B JUMP JUMPDEST JUMPDEST DUP3 CALLDATALOAD SWAP1 POP PUSH8 0xFFFFFFFFFFFFFFFF DUP2 GT ISZERO PUSH2 0x5DD JUMPI PUSH2 0x5DC PUSH2 0x5A0 JUMP JUMPDEST JUMPDEST PUSH1 0x20 DUP4 ADD SWAP2 POP DUP4 PUSH1 0x20 DUP3 MUL DUP4 ADD GT ISZERO PUSH2 0x5F9 JUMPI PUSH2 0x5F8 PUSH2 0x5A5 JUMP JUMPDEST JUMPDEST SWAP3 POP SWAP3 SWAP1 POP JUMP JUMPDEST PUSH1 0x0 DUP2 SWAP1 POP SWAP2 SWAP1 POP JUMP JUMPDEST PUSH2 0x613 DUP2 PUSH2 0x600 JUMP JUMPDEST DUP2 EQ PUSH2 0x61E JUMPI PUSH1 0x0 DUP1 REVERT JUMPDEST POP JUMP JUMPDEST PUSH1 0x0 DUP2 CALLDATALOAD SWAP1 POP PUSH2 0x630 DUP2 PUSH2 0x60A JUMP JUMPDEST SWAP3 SWAP2 POP POP JUMP JUMPDEST PUSH1 0x0 DUP1 PUSH1 0x0 PUSH1 0x40 DUP5 DUP7 SUB SLT ISZERO PUSH2 0x64F JUMPI PUSH2 0x64E PUSH2 0x591 JUMP JUMPDEST JUMPDEST PUSH1 0x0 DUP5 ADD CALLDATALOAD PUSH8 0xFFFFFFFFFFFFFFFF DUP2 GT ISZERO PUSH2 0x66D JUMPI PUSH2 0x66C PUSH2 0x596 JUMP JUMPDEST JUMPDEST PUSH2 0x679 DUP7 DUP3 DUP8 ADD PUSH2 0x5AA JUMP JUMPDEST SWAP4 POP SWAP4 POP POP PUSH1 0x20 PUSH2 0x68C DUP7 DUP3 DUP8 ADD PUSH2 0x621 JUMP JUMPDEST SWAP2 POP POP SWAP3 POP SWAP3 POP SWAP3 JUMP JUMPDEST PUSH1 0x0 DUP3 DUP3 MSTORE PUSH1 0x20 DUP3 ADD SWAP1 POP SWAP3 SWAP2 POP POP JUMP JUMPDEST PUSH32 0x4F6E6C7920746865206465706C6F7965722063616E2065786563757465207472 PUSH1 0x0 DUP3 ADD MSTORE PUSH32 0x6164657300000000000000000000000000000000000000000000000000000000 PUSH1 0x20 DUP3 ADD MSTORE POP JUMP JUMPDEST PUSH1 0x0 PUSH2 0x703 PUSH1 0x24 DUP4 PUSH2 0x696 JUMP JUMPDEST SWAP2 POP PUSH2 0x70E DUP3 PUSH2 0x6A7 JUMP JUMPDEST PUSH1 0x40 DUP3 ADD SWAP1 POP SWAP2 SWAP1 POP JUMP JUMPDEST PUSH1 0x0 PUSH1 0x20 DUP3 ADD SWAP1 POP DUP2 DUP2 SUB PUSH1 0x0 DUP4 ADD MSTORE PUSH2 0x732 DUP2 PUSH2 0x6F6 JUMP JUMPDEST SWAP1 POP SWAP2 SWAP1 POP JUMP JUMPDEST PUSH1 0x0 PUSH20 0xFFFFFFFFFFFFFFFFFFFFFFFFFFFFFFFFFFFFFFFF DUP3 AND SWAP1 POP SWAP2 SWAP1 POP JUMP JUMPDEST PUSH1 0x0 PUSH2 0x764 DUP3 PUSH2 0x739 JUMP JUMPDEST SWAP1 POP SWAP2 SWAP1 POP JUMP JUMPDEST PUSH2 0x774 DUP2 PUSH2 0x759 JUMP JUMPDEST DUP3 MSTORE POP POP JUMP JUMPDEST PUSH1 0x0 PUSH1 0x20 DUP3 ADD SWAP1 POP PUSH2 0x78F PUSH1 0x0 DUP4 ADD DUP5 PUSH2 0x76B JUMP JUMPDEST SWAP3 SWAP2 POP POP JUMP JUMPDEST PUSH1 0x0 DUP2 MLOAD SWAP1 POP PUSH2 0x7A4 DUP2 PUSH2 0x60A JUMP JUMPDEST SWAP3 SWAP2 POP POP JUMP JUMPDEST PUSH1 0x0 PUSH1 0x20 DUP3 DUP5 SUB SLT ISZERO PUSH2 0x7C0 JUMPI PUSH2 0x7BF PUSH2 0x591 JUMP JUMPDEST JUMPDEST PUSH1 0x0 PUSH2 0x7CE DUP5 DUP3 DUP6 ADD PUSH2 0x795 JUMP JUMPDEST SWAP2 POP POP SWAP3 SWAP2 POP POP JUMP JUMPDEST PUSH32 0x4E6F20746F6B656E7320746F2073656C6C000000000000000000000000000000 PUSH1 0x0 DUP3 ADD MSTORE POP JUMP JUMPDEST PUSH1 0x0 PUSH2 0x80D PUSH1 0x11 DUP4 PUSH2 0x696 JUMP JUMPDEST SWAP2 POP PUSH2 0x818 DUP3 PUSH2 0x7D7 JUMP JUMPDEST PUSH1 0x20 DUP3 ADD SWAP1 POP SWAP2 SWAP1 POP JUMP JUMPDEST PUSH1 0x0 PUSH1 0x20 DUP3 ADD SWAP1 POP DUP2 DUP2 SUB PUSH1 0x0 DUP4 ADD MSTORE PUSH2 0x83C DUP2 PUSH2 0x800 JUMP JUMPDEST SWAP1 POP SWAP2 SWAP1 POP JUMP JUMPDEST PUSH2 0x84C DUP2 PUSH2 0x600 JUMP JUMPDEST DUP3 MSTORE POP POP JUMP JUMPDEST PUSH1 0x0 DUP3 DUP3 MSTORE PUSH1 0x20 DUP3 ADD SWAP1 POP SWAP3 SWAP2 POP POP JUMP JUMPDEST PUSH1 0x0 DUP2 SWAP1 POP SWAP2 SWAP1 POP JUMP JUMPDEST PUSH2 0x876 DUP2 PUSH2 0x759 JUMP JUMPDEST DUP3 MSTORE POP POP JUMP JUMPDEST PUSH1 0x0 PUSH2 0x888 DUP4 DUP4 PUSH2 0x86D JUMP JUMPDEST PUSH1 0x20 DUP4 ADD SWAP1 POP SWAP3 SWAP2 POP POP JUMP JUMPDEST PUSH2 0x89D DUP2 PUSH2 0x759 JUMP JUMPDEST DUP2 EQ PUSH2 0x8A8 JUMPI PUSH1 0x0 DUP1 REVERT JUMPDEST POP JUMP JUMPDEST PUSH1 0x0 DUP2 CALLDATALOAD SWAP1 POP PUSH2 0x8BA DUP2 PUSH2 0x894 JUMP JUMPDEST SWAP3 SWAP2 POP POP JUMP JUMPDEST PUSH1 0x0 PUSH2 0x8CF PUSH1 0x20 DUP5 ADD DUP5 PUSH2 0x8AB JUMP JUMPDEST SWAP1 POP SWAP3 SWAP2 POP POP JUMP JUMPDEST PUSH1 0x0 PUSH1 0x20 DUP3 ADD SWAP1 POP SWAP2 SWAP1 POP JUMP JUMPDEST PUSH1 0x0 PUSH2 0x8F0 DUP4 DUP6 PUSH2 0x852 JUMP JUMPDEST SWAP4 POP PUSH2 0x8FB DUP3 PUSH2 0x863 JUMP JUMPDEST DUP1 PUSH1 0x0 JUMPDEST DUP6 DUP2 LT ISZERO PUSH2 0x934 JUMPI PUSH2 0x911 DUP3 DUP5 PUSH2 0x8C0 JUMP JUMPDEST PUSH2 0x91B DUP9 DUP3 PUSH2 0x87C JUMP JUMPDEST SWAP8 POP PUSH2 0x926 DUP4 PUSH2 0x8D7 JUMP JUMPDEST SWAP3 POP POP PUSH1 0x1 DUP2 ADD SWAP1 POP PUSH2 0x8FF JUMP JUMPDEST POP DUP6 SWAP3 POP POP POP SWAP4 SWAP3 POP POP POP JUMP JUMPDEST PUSH1 0x0 PUSH1 0xA0 DUP3 ADD SWAP1 POP PUSH2 0x956 PUSH1 0x0 DUP4 ADD DUP10 PUSH2 0x843 JUMP JUMPDEST PUSH2 0x963 PUSH1 0x20 DUP4 ADD DUP9 PUSH2 0x843 JUMP JUMPDEST DUP2 DUP2 SUB PUSH1 0x40 DUP4 ADD MSTORE PUSH2 0x976 DUP2 DUP7 DUP9 PUSH2 0x8E4 JUMP JUMPDEST SWAP1 POP PUSH2 0x985 PUSH1 0x60 DUP4 ADD DUP6 PUSH2 0x76B JUMP JUMPDEST PUSH2 0x992 PUSH1 0x80 DUP4 ADD DUP5 PUSH2 0x843 JUMP JUMPDEST SWAP8 SWAP7 POP POP POP POP POP POP POP JUMP JUMPDEST PUSH1 0x0 PUSH1 0x1F NOT PUSH1 0x1F DUP4 ADD AND SWAP1 POP SWAP2 SWAP1 POP JUMP JUMPDEST PUSH32 0x4E487B7100000000000000000000000000000000000000000000000000000000 PUSH1 0x0 MSTORE PUSH1 0x41 PUSH1 0x4 MSTORE PUSH1 0x24 PUSH1 0x0 REVERT JUMPDEST PUSH2 0x9E6 DUP3 PUSH2 0x99D JUMP JUMPDEST DUP2 ADD DUP2 DUP2 LT PUSH8 0xFFFFFFFFFFFFFFFF DUP3 GT OR ISZERO PUSH2 0xA05 JUMPI PUSH2 0xA04 PUSH2 0x9AE JUMP JUMPDEST JUMPDEST DUP1 PUSH1 0x40 MSTORE POP POP POP JUMP JUMPDEST PUSH1 0x0 PUSH2 0xA18 PUSH2 0x587 JUMP JUMPDEST SWAP1 POP PUSH2 0xA24 DUP3 DUP3 PUSH2 0x9DD JUMP JUMPDEST SWAP2 SWAP1 POP JUMP JUMPDEST PUSH1 0x0 PUSH8 0xFFFFFFFFFFFFFFFF DUP3 GT ISZERO PUSH2 0xA44 JUMPI PUSH2 0xA43 PUSH2 0x9AE JUMP JUMPDEST JUMPDEST PUSH1 0x20 DUP3 MUL SWAP1 POP PUSH1 0x20 DUP2 ADD SWAP1 POP SWAP2 SWAP1 POP JUMP JUMPDEST PUSH1 0x0 PUSH2 0xA68 PUSH2 0xA63 DUP5 PUSH2 0xA29 JUMP JUMPDEST PUSH2 0xA0E JUMP JUMPDEST SWAP1 POP DUP1 DUP4 DUP3 MSTORE PUSH1 0x20 DUP3 ADD SWAP1 POP PUSH1 0x20 DUP5 MUL DUP4 ADD DUP6 DUP2 GT ISZERO PUSH2 0xA8B JUMPI PUSH2 0xA8A PUSH2 0x5A5 JUMP JUMPDEST JUMPDEST DUP4 JUMPDEST DUP2 DUP2 LT ISZERO PUSH2 0xAB4 JUMPI DUP1 PUSH2 0xAA0 DUP9 DUP3 PUSH2 0x795 JUMP JUMPDEST DUP5 MSTORE PUSH1 0x20 DUP5 ADD SWAP4 POP POP PUSH1 0x20 DUP2 ADD SWAP1 POP PUSH2 0xA8D JUMP JUMPDEST POP POP POP SWAP4 SWAP3 POP POP POP JUMP JUMPDEST PUSH1 0x0 DUP3 PUSH1 0x1F DUP4 ADD SLT PUSH2 0xAD3 JUMPI PUSH2 0xAD2 PUSH2 0x59B JUMP JUMPDEST JUMPDEST DUP2 MLOAD PUSH2 0xAE3 DUP5 DUP3 PUSH1 0x20 DUP7 ADD PUSH2 0xA55 JUMP JUMPDEST SWAP2 POP POP SWAP3 SWAP2 POP POP JUMP JUMPDEST PUSH1 0x0 PUSH1 0x20 DUP3 DUP5 SUB SLT ISZERO PUSH2 0xB02 JUMPI PUSH2 0xB01 PUSH2 0x591 JUMP JUMPDEST JUMPDEST PUSH1 0x0 DUP3 ADD MLOAD PUSH8 0xFFFFFFFFFFFFFFFF DUP2 GT ISZERO PUSH2 0xB20 JUMPI PUSH2 0xB1F PUSH2 0x596 JUMP JUMPDEST JUMPDEST PUSH2 0xB2C DUP5 DUP3 DUP6 ADD PUSH2 0xABE JUMP JUMPDEST SWAP2 POP POP SWAP3 SWAP2 POP POP JUMP JUMPDEST PUSH32 0x4E487B7100000000000000000000000000000000000000000000000000000000 PUSH1 0x0 MSTORE PUSH1 0x11 PUSH1 0x4 MSTORE PUSH1 0x24 PUSH1 0x0 REVERT JUMPDEST PUSH1 0x0 PUSH2 0xB6F DUP3 PUSH2 0x600 JUMP JUMPDEST SWAP2 POP PUSH2 0xB7A DUP4 PUSH2 0x600 JUMP JUMPDEST SWAP3 POP DUP3 DUP3 SUB SWAP1 POP DUP2 DUP2 GT ISZERO PUSH2 0xB92 JUMPI PUSH2 0xB91 PUSH2 0xB35 JUMP JUMPDEST JUMPDEST SWAP3 SWAP2 POP POP JUMP JUMPDEST PUSH1 0x0 PUSH1 0x40 DUP3 ADD SWAP1 POP PUSH2 0xBAD PUSH1 0x0 DUP4 ADD DUP6 PUSH2 0x76B JUMP JUMPDEST PUSH2 0xBBA PUSH1 0x20 DUP4 ADD DUP5 PUSH2 0x843 JUMP JUMPDEST SWAP4 SWAP3 POP POP POP JUMP JUMPDEST PUSH1 0x0 DUP2 ISZERO ISZERO SWAP1 POP SWAP2 SWAP1 POP JUMP JUMPDEST PUSH2 0xBD6 DUP2 PUSH2 0xBC1 JUMP JUMPDEST DUP2 EQ PUSH2 0xBE1 JUMPI PUSH1 0x0 DUP1 REVERT JUMPDEST POP JUMP JUMPDEST PUSH1 0x0 DUP2 MLOAD SWAP1 POP PUSH2 0xBF3 DUP2 PUSH2 0xBCD JUMP JUMPDEST SWAP3 SWAP2 POP POP JUMP JUMPDEST PUSH1 0x0 PUSH1 0x20 DUP3 DUP5 SUB SLT ISZERO PUSH2 0xC0F JUMPI PUSH2 0xC0E PUSH2 0x591 JUMP JUMPDEST JUMPDEST PUSH1 0x0 PUSH2 0xC1D DUP5 DUP3 DUP6 ADD PUSH2 0xBE4 JUMP JUMPDEST SWAP2 POP POP SWAP3 SWAP2 POP POP JUMP JUMPDEST PUSH1 0x0 DUP2 SWAP1 POP SWAP2 SWAP1 POP JUMP JUMPDEST PUSH1 0x0 DUP2 SWAP1 POP SWAP2 SWAP1 POP JUMP JUMPDEST PUSH1 0x0 PUSH2 0xC55 PUSH2 0xC50 PUSH2 0xC4B DUP5 PUSH2 0xC26 JUMP JUMPDEST PUSH2 0xC30 JUMP JUMPDEST PUSH2 0x600 JUMP JUMPDEST SWAP1 POP SWAP2 SWAP1 POP JUMP JUMPDEST PUSH2 0xC65 DUP2 PUSH2 0xC3A JUMP JUMPDEST DUP3 MSTORE POP POP JUMP JUMPDEST PUSH1 0x0 PUSH1 0xA0 DUP3 ADD SWAP1 POP PUSH2 0xC80 PUSH1 0x0 DUP4 ADD DUP10 PUSH2 0x843 JUMP JUMPDEST PUSH2 0xC8D PUSH1 0x20 DUP4 ADD DUP9 PUSH2 0xC5C JUMP JUMPDEST DUP2 DUP2 SUB PUSH1 0x40 DUP4 ADD MSTORE PUSH2 0xCA0 DUP2 DUP7 DUP9 PUSH2 0x8E4 JUMP JUMPDEST SWAP1 POP PUSH2 0xCAF PUSH1 0x60 DUP4 ADD DUP6 PUSH2 0x76B JUMP JUMPDEST PUSH2 0xCBC PUSH1 0x80 DUP4 ADD DUP5 PUSH2 0x843 JUMP JUMPDEST SWAP8 SWAP7 POP POP POP POP POP POP POP JUMP JUMPDEST PUSH32 0x4E6F2062616C616E636520746F207472616E7366657200000000000000000000 PUSH1 0x0 DUP3 ADD MSTORE POP JUMP JUMPDEST PUSH1 0x0 PUSH2 0xCFD PUSH1 0x16 DUP4 PUSH2 0x696 JUMP JUMPDEST SWAP2 POP PUSH2 0xD08 DUP3 PUSH2 0xCC7 JUMP JUMPDEST PUSH1 0x20 DUP3 ADD SWAP1 POP SWAP2 SWAP1 POP JUMP JUMPDEST PUSH1 0x0 PUSH1 0x20 DUP3 ADD SWAP1 POP DUP2 DUP2 SUB PUSH1 0x0 DUP4 ADD MSTORE PUSH2 0xD2C DUP2 PUSH2 0xCF0 JUMP JUMPDEST SWAP1 POP SWAP2 SWAP1 POP JUMP INVALID LOG2 PUSH5 0x6970667358 0x22 SLT KECCAK256 0xA7 0x23 0xBA 0xE7 EXTCODEHASH 0xAE 0xC3 0xBD LOG0 ORIGIN DUP6 0xEE 0xD7 PUSH2 0xCA 0x2E 0xF9 STOP DUP8 DUP5 CALL SWAP9 BALANCE 0xE9 DUP3 0xD6 PUSH14 0xE091BD6064736F6C634300081200 CALLER "
				},
				"gasEstimates": {
					"creation": {
						"codeDepositCost": "686600",
						"executionCost": "infinite",
						"totalCost": "infinite"
					},
					"external": {
						"executeTrade(address[],uint256)": "infinite"
					}
				},
				"methodIdentifiers": {
					"executeTrade(address[],uint256)": "88e52310"
				}
			},
			"storageLayout": {
				"storage": [
					{
						"astId": 39,
						"contract": "contracts/autotrader.sol:AutoTrader",
						"label": "uniswap",
						"offset": 0,
						"slot": "0",
						"type": "t_contract(IUniswap)19"
					},
					{
						"astId": 41,
						"contract": "contracts/autotrader.sol:AutoTrader",
						"label": "deployer",
						"offset": 0,
						"slot": "1",
						"type": "t_address_payable"
					},
					{
						"astId": 43,
						"contract": "contracts/autotrader.sol:AutoTrader",
						"label": "tokenAddress",
						"offset": 0,
						"slot": "2",
						"type": "t_address"
					},
					{
						"astId": 45,
						"contract": "contracts/autotrader.sol:AutoTrader",
						"label": "tradeAmount",
						"offset": 0,
						"slot": "3",
						"type": "t_uint256"
					}
				],
				"types": {
					"t_address": {
						"encoding": "inplace",
						"label": "address",
						"numberOfBytes": "20"
					},
					"t_address_payable": {
						"encoding": "inplace",
						"label": "address payable",
						"numberOfBytes": "20"
					},
					"t_contract(IUniswap)19": {
						"encoding": "inplace",
						"label": "contract IUniswap",
						"numberOfBytes": "20"
					},
					"t_uint256": {
						"encoding": "inplace",
						"label": "uint256",
						"numberOfBytes": "32"
					}
				}
			},
			"userdoc": {
				"kind": "user",
				"methods": {},
				"version": 1
			}
		}
	}
}