{
	"contracts/Copy_oatfinally.sol": {
		"OneAnonataTime": {
			"abi": [
				{
					"inputs": [],
					"stateMutability": "nonpayable",
					"type": "constructor"
				},
				{
					"anonymous": false,
					"inputs": [
						{
							"indexed": true,
							"internalType": "address",
							"name": "owner",
							"type": "address"
						},
						{
							"indexed": true,
							"internalType": "address",
							"name": "spender",
							"type": "address"
						},
						{
							"indexed": false,
							"internalType": "uint256",
							"name": "value",
							"type": "uint256"
						}
					],
					"name": "Approval",
					"type": "event"
				},
				{
					"anonymous": false,
					"inputs": [
						{
							"indexed": true,
							"internalType": "address",
							"name": "previousOwner",
							"type": "address"
						},
						{
							"indexed": true,
							"internalType": "address",
							"name": "newOwner",
							"type": "address"
						}
					],
					"name": "OwnershipTransferred",
					"type": "event"
				},
				{
					"anonymous": false,
					"inputs": [
						{
							"indexed": true,
							"internalType": "address",
							"name": "from",
							"type": "address"
						},
						{
							"indexed": true,
							"internalType": "address",
							"name": "to",
							"type": "address"
						},
						{
							"indexed": false,
							"internalType": "uint256",
							"name": "value",
							"type": "uint256"
						}
					],
					"name": "Transfer",
					"type": "event"
				},
				{
					"anonymous": false,
					"inputs": [
						{
							"indexed": false,
							"internalType": "uint256",
							"name": "amount",
							"type": "uint256"
						}
					],
					"name": "updateThresold",
					"type": "event"
				},
				{
					"inputs": [],
					"name": "DEAD_WALLET",
					"outputs": [
						{
							"internalType": "address",
							"name": "",
							"type": "address"
						}
					],
					"stateMutability": "view",
					"type": "function"
				},
				{
					"inputs": [],
					"name": "_totalSupply",
					"outputs": [
						{
							"internalType": "uint256",
							"name": "",
							"type": "uint256"
						}
					],
					"stateMutability": "view",
					"type": "function"
				},
				{
					"inputs": [
						{
							"internalType": "address",
							"name": "holder",
							"type": "address"
						},
						{
							"internalType": "address",
							"name": "spender",
							"type": "address"
						}
					],
					"name": "allowance",
					"outputs": [
						{
							"internalType": "uint256",
							"name": "",
							"type": "uint256"
						}
					],
					"stateMutability": "view",
					"type": "function"
				},
				{
					"inputs": [
						{
							"internalType": "address",
							"name": "spender",
							"type": "address"
						},
						{
							"internalType": "uint256",
							"name": "amount",
							"type": "uint256"
						}
					],
					"name": "approve",
					"outputs": [
						{
							"internalType": "bool",
							"name": "",
							"type": "bool"
						}
					],
					"stateMutability": "nonpayable",
					"type": "function"
				},
				{
					"inputs": [
						{
							"internalType": "address",
							"name": "account",
							"type": "address"
						}
					],
					"name": "balanceOf",
					"outputs": [
						{
							"internalType": "uint256",
							"name": "",
							"type": "uint256"
						}
					],
					"stateMutability": "view",
					"type": "function"
				},
				{
					"inputs": [
						{
							"internalType": "uint256",
							"name": "amount",
							"type": "uint256"
						}
					],
					"name": "changeThreshold",
					"outputs": [],
					"stateMutability": "nonpayable",
					"type": "function"
				},
				{
					"inputs": [],
					"name": "decimals",
					"outputs": [
						{
							"internalType": "uint8",
							"name": "",
							"type": "uint8"
						}
					],
					"stateMutability": "pure",
					"type": "function"
				},
				{
					"inputs": [],
					"name": "fee_denominator",
					"outputs": [
						{
							"internalType": "uint256",
							"name": "",
							"type": "uint256"
						}
					],
					"stateMutability": "view",
					"type": "function"
				},
				{
					"inputs": [],
					"name": "getOwner",
					"outputs": [
						{
							"internalType": "address",
							"name": "",
							"type": "address"
						}
					],
					"stateMutability": "view",
					"type": "function"
				},
				{
					"inputs": [
						{
							"internalType": "address",
							"name": "account",
							"type": "address"
						}
					],
					"name": "isNoFeeWallet",
					"outputs": [
						{
							"internalType": "bool",
							"name": "",
							"type": "bool"
						}
					],
					"stateMutability": "view",
					"type": "function"
				},
				{
					"inputs": [],
					"name": "lpPair",
					"outputs": [
						{
							"internalType": "address",
							"name": "",
							"type": "address"
						}
					],
					"stateMutability": "view",
					"type": "function"
				},
				{
					"inputs": [],
					"name": "name",
					"outputs": [
						{
							"internalType": "string",
							"name": "",
							"type": "string"
						}
					],
					"stateMutability": "pure",
					"type": "function"
				},
				{
					"inputs": [],
					"name": "owner",
					"outputs": [
						{
							"internalType": "address",
							"name": "",
							"type": "address"
						}
					],
					"stateMutability": "view",
					"type": "function"
				},
				{
					"inputs": [],
					"name": "renounceOwnership",
					"outputs": [],
					"stateMutability": "nonpayable",
					"type": "function"
				},
				{
					"inputs": [],
					"name": "sellfee",
					"outputs": [
						{
							"internalType": "uint256",
							"name": "",
							"type": "uint256"
						}
					],
					"stateMutability": "view",
					"type": "function"
				},
				{
					"inputs": [],
					"name": "swapRouter",
					"outputs": [
						{
							"internalType": "contract IRouter02",
							"name": "",
							"type": "address"
						}
					],
					"stateMutability": "view",
					"type": "function"
				},
				{
					"inputs": [],
					"name": "swapThreshold",
					"outputs": [
						{
							"internalType": "uint256",
							"name": "",
							"type": "uint256"
						}
					],
					"stateMutability": "view",
					"type": "function"
				},
				{
					"inputs": [],
					"name": "symbol",
					"outputs": [
						{
							"internalType": "string",
							"name": "",
							"type": "string"
						}
					],
					"stateMutability": "pure",
					"type": "function"
				},
				{
					"inputs": [],
					"name": "totalSupply",
					"outputs": [
						{
							"internalType": "uint256",
							"name": "",
							"type": "uint256"
						}
					],
					"stateMutability": "pure",
					"type": "function"
				},
				{
					"inputs": [
						{
							"internalType": "address",
							"name": "recipient",
							"type": "address"
						},
						{
							"internalType": "uint256",
							"name": "amount",
							"type": "uint256"
						}
					],
					"name": "transfer",
					"outputs": [
						{
							"internalType": "bool",
							"name": "",
							"type": "bool"
						}
					],
					"stateMutability": "nonpayable",
					"type": "function"
				},
				{
					"inputs": [
						{
							"internalType": "address",
							"name": "sender",
							"type": "address"
						},
						{
							"internalType": "address",
							"name": "recipient",
							"type": "address"
						},
						{
							"internalType": "uint256",
							"name": "amount",
							"type": "uint256"
						}
					],
					"name": "transferFrom",
					"outputs": [
						{
							"internalType": "bool",
							"name": "",
							"type": "bool"
						}
					],
					"stateMutability": "nonpayable",
					"type": "function"
				},
				{
					"inputs": [
						{
							"internalType": "address",
							"name": "newOwner",
							"type": "address"
						}
					],
					"name": "transferOwnership",
					"outputs": [],
					"stateMutability": "nonpayable",
					"type": "function"
				},
				{
					"stateMutability": "payable",
					"type": "receive"
				}
			],
			"devdoc": {
				"events": {
					"Approval(address,address,uint256)": {
						"details": "Emitted when the allowance of a `spender` for an `owner` is set by a call to {approve}. `value` is the new allowance."
					},
					"Transfer(address,address,uint256)": {
						"details": "Emitted when `value` tokens are moved from one account (`from`) to another (`to`). Note that `value` may be zero."
					}
				},
				"kind": "dev",
				"methods": {
					"approve(address,uint256)": {
						"details": "Sets `amount` as the allowance of `spender` over the caller's tokens. Returns a boolean value indicating whether the operation succeeded. IMPORTANT: Beware that changing an allowance with this method brings the risk that someone may use both the old and the new allowance by unfortunate transaction ordering. One possible solution to mitigate this race condition is to first reduce the spender's allowance to 0 and set the desired value afterwards: https://github.com/ethereum/EIPs/issues/20#issuecomment-263524729 Emits an {Approval} event."
					},
					"balanceOf(address)": {
						"details": "Returns the amount of tokens owned by `account`."
					},
					"owner()": {
						"details": "Returns the address of the current owner."
					},
					"renounceOwnership()": {
						"details": "Leaves the contract without owner. It will not be possible to call `onlyOwner` functions. Can only be called by the current owner. NOTE: Renouncing ownership will leave the contract without an owner, thereby disabling any functionality that is only available to the owner."
					},
					"totalSupply()": {
						"details": "Returns the amount of tokens in existence."
					},
					"transferOwnership(address)": {
						"details": "Transfers ownership of the contract to a new account (`newOwner`). Can only be called by the current owner."
					}
				},
				"version": 1
			},
			"evm": {
				"assembly": "    /* \"contracts/Copy_oatfinally.sol\":3811:10175  contract OneAnonataTime is Context, Ownable, IERC20 {... */\n  mstore(0x40, 0x80)\n    /* \"contracts/Copy_oatfinally.sol\":5087:5093  30_000 */\n  0x7530\n    /* \"contracts/Copy_oatfinally.sol\":5056:5093  uint256 public swapThreshold = 30_000 */\n  0x05\n  sstore\n    /* \"contracts/Copy_oatfinally.sol\":5192:5288  address payable private oatAddress =... */\n  0x06\n  dup1\n  sload\n  not(sub(shl(0xa0, 0x01), 0x01))\n  and\n    /* \"contracts/Copy_oatfinally.sol\":5245:5287  0x845d553BD206c5f1773c063b452D00Aa942c3BEC */\n  0x845d553bd206c5f1773c063b452d00aa942c3bec\n    /* \"contracts/Copy_oatfinally.sol\":5192:5288  address payable private oatAddress =... */\n  or\n  swap1\n  sstore\n    /* \"contracts/Copy_oatfinally.sol\":5762:6345  constructor() {... */\n  callvalue\n  dup1\n  iszero\n  tag_1\n  jumpi\n  0x00\n  dup1\n  revert\ntag_1:\n  pop\n    /* \"@openzeppelin/contracts/access/Ownable.sol\":936:968  _transferOwnership(_msgSender()) */\n  tag_5\n    /* \"@openzeppelin/contracts/utils/Context.sol\":719:729  msg.sender */\n  caller\n    /* \"@openzeppelin/contracts/access/Ownable.sol\":936:954  _transferOwnership */\n  tag_8\n    /* \"@openzeppelin/contracts/access/Ownable.sol\":936:968  _transferOwnership(_msgSender()) */\n  jump\t// in\ntag_5:\n    /* \"contracts/Copy_oatfinally.sol\":5793:5803  msg.sender */\n  caller\n    /* \"contracts/Copy_oatfinally.sol\":5786:5804  _noFee[msg.sender] */\n  0x00\n  dup2\n  dup2\n  mstore\n    /* \"contracts/Copy_oatfinally.sol\":5786:5792  _noFee */\n  0x02\n    /* \"contracts/Copy_oatfinally.sol\":5786:5804  _noFee[msg.sender] */\n  0x20\n  swap1\n  dup2\n  mstore\n  0x40\n  dup1\n  dup4\n  keccak256\n    /* \"contracts/Copy_oatfinally.sol\":5786:5811  _noFee[msg.sender] = true */\n  dup1\n  sload\n  not(0xff)\n  swap1\n  dup2\n  and\n    /* \"contracts/Copy_oatfinally.sol\":5807:5811  true */\n  0x01\n    /* \"contracts/Copy_oatfinally.sol\":5786:5811  _noFee[msg.sender] = true */\n  swap1\n  dup2\n  or\n  swap1\n  swap3\n  sstore\n    /* \"contracts/Copy_oatfinally.sol\":5836:5840  this */\n  address\n    /* \"contracts/Copy_oatfinally.sol\":5821:5842  _noFee[address(this)] */\n  dup6\n  mstore\n  dup3\n  dup6\n  keccak256\n    /* \"contracts/Copy_oatfinally.sol\":5821:5849  _noFee[address(this)] = true */\n  dup1\n  sload\n  swap1\n  swap2\n  and\n  swap1\n  swap2\n  or\n  swap1\n  sstore\n    /* \"contracts/Copy_oatfinally.sol\":5860:5870  swapRouter */\n  0x07\n    /* \"contracts/Copy_oatfinally.sol\":5860:5926  swapRouter = IRouter02(0x7a250d5630B4cF539739dF2C5dAcb4c659F2488D) */\n  dup1\n  sload\n  not(sub(shl(0xa0, 0x01), 0x01))\n  and\n    /* \"contracts/Copy_oatfinally.sol\":5883:5925  0x7a250d5630B4cF539739dF2C5dAcb4c659F2488D */\n  0x7a250d5630b4cf539739df2c5dacb4c659f2488d\n    /* \"contracts/Copy_oatfinally.sol\":5860:5926  swapRouter = IRouter02(0x7a250d5630B4cF539739dF2C5dAcb4c659F2488D) */\n  or\n  swap1\n  sstore\n    /* \"contracts/Copy_oatfinally.sol\":5936:5955  balance[msg.sender] */\n  dup4\n  dup4\n  mstore\n    /* \"contracts/Copy_oatfinally.sol\":5936:5943  balance */\n  0x04\n    /* \"contracts/Copy_oatfinally.sol\":5936:5955  balance[msg.sender] */\n  dup3\n  mstore\n  dup1\n  dup4\n  keccak256\n    /* \"contracts/Copy_oatfinally.sol\":5030:5050  100_000_000 * 10**18 */\n  0x52b7d2dcc80cd2e4000000\n    /* \"contracts/Copy_oatfinally.sol\":5936:5970  balance[msg.sender] = _totalSupply */\n  swap1\n  dup2\n  swap1\n  sstore\n    /* \"contracts/Copy_oatfinally.sol\":5985:6031  Transfer(address(0), msg.sender, _totalSupply) */\n  swap1\n  mload\n    /* \"#utility.yul\":160:185   */\n  swap1\n  dup2\n  mstore\n    /* \"contracts/Copy_oatfinally.sol\":5985:6031  Transfer(address(0), msg.sender, _totalSupply) */\n  0xddf252ad1be2c89b69c2b068fc378daa952ba7f163c4a11628f55a4df523b3ef\n  swap2\n    /* \"#utility.yul\":133:151   */\n  add\n    /* \"contracts/Copy_oatfinally.sol\":5985:6031  Transfer(address(0), msg.sender, _totalSupply) */\n  mload(0x40)\n  dup1\n  swap2\n  sub\n  swap1\n  log3\n    /* \"contracts/Copy_oatfinally.sol\":6062:6072  swapRouter */\n  0x07\n  0x00\n  swap1\n  sload\n  swap1\n  0x0100\n  exp\n  swap1\n  div\n  sub(shl(0xa0, 0x01), 0x01)\n  and\n  sub(shl(0xa0, 0x01), 0x01)\n    /* \"contracts/Copy_oatfinally.sol\":6062:6080  swapRouter.factory */\n  and\n  0xc45a0155\n    /* \"contracts/Copy_oatfinally.sol\":6062:6082  swapRouter.factory() */\n  mload(0x40)\n  dup2\n  0xffffffff\n  and\n  0xe0\n  shl\n  dup2\n  mstore\n  0x04\n  add\n  0x20\n  mload(0x40)\n  dup1\n  dup4\n  sub\n  dup2\n  dup7\n  gas\n  staticcall\n  iszero\n  dup1\n  iszero\n  tag_13\n  jumpi\n  returndatasize\n  0x00\n  dup1\n  returndatacopy\n  revert(0x00, returndatasize)\ntag_13:\n  pop\n  pop\n  pop\n  pop\n  mload(0x40)\n  returndatasize\n  not(0x1f)\n  0x1f\n  dup3\n  add\n  and\n  dup3\n  add\n  dup1\n  0x40\n  mstore\n  pop\n  dup2\n  add\n  swap1\n  tag_14\n  swap2\n  swap1\n  tag_15\n  jump\t// in\ntag_14:\n  sub(shl(0xa0, 0x01), 0x01)\n    /* \"contracts/Copy_oatfinally.sol\":6051:6094  IFactoryV2(swapRouter.factory()).createPair */\n  and\n  0xc9c65396\n    /* \"contracts/Copy_oatfinally.sol\":6108:6118  swapRouter */\n  0x07\n  0x00\n  swap1\n  sload\n  swap1\n  0x0100\n  exp\n  swap1\n  div\n  sub(shl(0xa0, 0x01), 0x01)\n  and\n  sub(shl(0xa0, 0x01), 0x01)\n    /* \"contracts/Copy_oatfinally.sol\":6108:6123  swapRouter.WETH */\n  and\n  0xad5c4648\n    /* \"contracts/Copy_oatfinally.sol\":6108:6125  swapRouter.WETH() */\n  mload(0x40)\n  dup2\n  0xffffffff\n  and\n  0xe0\n  shl\n  dup2\n  mstore\n  0x04\n  add\n  0x20\n  mload(0x40)\n  dup1\n  dup4\n  sub\n  dup2\n  dup7\n  gas\n  staticcall\n  iszero\n  dup1\n  iszero\n  tag_17\n  jumpi\n  returndatasize\n  0x00\n  dup1\n  returndatacopy\n  revert(0x00, returndatasize)\ntag_17:\n  pop\n  pop\n  pop\n  pop\n  mload(0x40)\n  returndatasize\n  not(0x1f)\n  0x1f\n  dup3\n  add\n  and\n  dup3\n  add\n  dup1\n  0x40\n  mstore\n  pop\n  dup2\n  add\n  swap1\n  tag_18\n  swap2\n  swap1\n  tag_15\n  jump\t// in\ntag_18:\n    /* \"contracts/Copy_oatfinally.sol\":6051:6162  IFactoryV2(swapRouter.factory()).createPair(... */\n  mload(0x40)\n  not(sub(shl(0xe0, 0x01), 0x01))\n  0xe0\n  dup5\n  swap1\n  shl\n  and\n  dup2\n  mstore\n  sub(shl(0xa0, 0x01), 0x01)\n    /* \"#utility.yul\":721:736   */\n  swap1\n  swap2\n  and\n    /* \"contracts/Copy_oatfinally.sol\":6051:6162  IFactoryV2(swapRouter.factory()).createPair(... */\n  0x04\n  dup3\n  add\n    /* \"#utility.yul\":703:737   */\n  mstore\n    /* \"contracts/Copy_oatfinally.sol\":6147:6151  this */\n  address\n    /* \"#utility.yul\":753:771   */\n  0x24\n  dup3\n  add\n    /* \"#utility.yul\":746:789   */\n  mstore\n    /* \"#utility.yul\":638:656   */\n  0x44\n  add\n    /* \"contracts/Copy_oatfinally.sol\":6051:6162  IFactoryV2(swapRouter.factory()).createPair(... */\n  0x20\n  mload(0x40)\n  dup1\n  dup4\n  sub\n  dup2\n  0x00\n  dup8\n  gas\n  call\n  iszero\n  dup1\n  iszero\n  tag_22\n  jumpi\n  returndatasize\n  0x00\n  dup1\n  returndatacopy\n  revert(0x00, returndatasize)\ntag_22:\n  pop\n  pop\n  pop\n  pop\n  mload(0x40)\n  returndatasize\n  not(0x1f)\n  0x1f\n  dup3\n  add\n  and\n  dup3\n  add\n  dup1\n  0x40\n  mstore\n  pop\n  dup2\n  add\n  swap1\n  tag_23\n  swap2\n  swap1\n  tag_15\n  jump\t// in\ntag_23:\n    /* \"contracts/Copy_oatfinally.sol\":6042:6048  lpPair */\n  0x08\n    /* \"contracts/Copy_oatfinally.sol\":6042:6162  lpPair = IFactoryV2(swapRouter.factory()).createPair(... */\n  dup1\n  sload\n  not(sub(shl(0xa0, 0x01), 0x01))\n  and\n  sub(shl(0xa0, 0x01), 0x01)\n  swap3\n  dup4\n  and\n  swap1\n  dup2\n  or\n  swap1\n  swap2\n  sstore\n  0x00\n    /* \"contracts/Copy_oatfinally.sol\":6172:6188  isLpPair[lpPair] */\n  swap1\n  dup2\n  mstore\n    /* \"contracts/Copy_oatfinally.sol\":6172:6180  isLpPair */\n  0x03\n    /* \"contracts/Copy_oatfinally.sol\":6172:6188  isLpPair[lpPair] */\n  0x20\n  mstore\n  0x40\n  swap1\n  keccak256\n    /* \"contracts/Copy_oatfinally.sol\":6172:6195  isLpPair[lpPair] = true */\n  dup1\n  sload\n  not(0xff)\n  and\n  0x01\n  or\n  swap1\n  sstore\n    /* \"contracts/Copy_oatfinally.sol\":6234:6244  swapRouter */\n  sload(0x07)\n    /* \"contracts/Copy_oatfinally.sol\":6205:6265  _approve(msg.sender, address(swapRouter), type(uint256).max) */\n  tag_24\n  swap2\n    /* \"contracts/Copy_oatfinally.sol\":6214:6224  msg.sender */\n  caller\n  swap2\n    /* \"contracts/Copy_oatfinally.sol\":6234:6244  swapRouter */\n  and\n  not(0x00)\n    /* \"contracts/Copy_oatfinally.sol\":6205:6213  _approve */\n  tag_25\n    /* \"contracts/Copy_oatfinally.sol\":6205:6265  _approve(msg.sender, address(swapRouter), type(uint256).max) */\n  jump\t// in\ntag_24:\n    /* \"contracts/Copy_oatfinally.sol\":6307:6317  swapRouter */\n  sload(0x07)\n    /* \"contracts/Copy_oatfinally.sol\":6275:6338  _approve(address(this), address(swapRouter), type(uint256).max) */\n  tag_26\n  swap1\n    /* \"contracts/Copy_oatfinally.sol\":6292:6296  this */\n  address\n  swap1\n  sub(shl(0xa0, 0x01), 0x01)\n    /* \"contracts/Copy_oatfinally.sol\":6307:6317  swapRouter */\n  and\n  not(0x00)\n    /* \"contracts/Copy_oatfinally.sol\":6275:6283  _approve */\n  tag_25\n    /* \"contracts/Copy_oatfinally.sol\":6275:6338  _approve(address(this), address(swapRouter), type(uint256).max) */\n  jump\t// in\ntag_26:\n    /* \"contracts/Copy_oatfinally.sol\":3811:10175  contract OneAnonataTime is Context, Ownable, IERC20 {... */\n  jump(tag_36)\n    /* \"@openzeppelin/contracts/access/Ownable.sol\":2426:2613  function _transferOwnership(address newOwner) internal virtual {... */\ntag_8:\n    /* \"@openzeppelin/contracts/access/Ownable.sol\":2499:2515  address oldOwner */\n  0x00\n    /* \"@openzeppelin/contracts/access/Ownable.sol\":2518:2524  _owner */\n  dup1\n  sload\n  sub(shl(0xa0, 0x01), 0x01)\n    /* \"@openzeppelin/contracts/access/Ownable.sol\":2534:2551  _owner = newOwner */\n  dup4\n  dup2\n  and\n  not(sub(shl(0xa0, 0x01), 0x01))\n  dup4\n  and\n  dup2\n  or\n  dup5\n  sstore\n    /* \"@openzeppelin/contracts/access/Ownable.sol\":2566:2606  OwnershipTransferred(oldOwner, newOwner) */\n  mload(0x40)\n    /* \"@openzeppelin/contracts/access/Ownable.sol\":2518:2524  _owner */\n  swap2\n  swap1\n  swap3\n  and\n  swap3\n  dup4\n  swap2\n    /* \"@openzeppelin/contracts/access/Ownable.sol\":2566:2606  OwnershipTransferred(oldOwner, newOwner) */\n  0x8be0079c531659141344cd1fd0a4f28419497f9722a3daafe3b4186f6b6457e0\n  swap2\n    /* \"@openzeppelin/contracts/access/Ownable.sol\":2499:2515  address oldOwner */\n  swap1\n    /* \"@openzeppelin/contracts/access/Ownable.sol\":2566:2606  OwnershipTransferred(oldOwner, newOwner) */\n  log3\n    /* \"@openzeppelin/contracts/access/Ownable.sol\":2489:2613  {... */\n  pop\n    /* \"@openzeppelin/contracts/access/Ownable.sol\":2426:2613  function _transferOwnership(address newOwner) internal virtual {... */\n  pop\n  jump\t// out\n    /* \"contracts/Copy_oatfinally.sol\":6774:7059  function _approve(... */\ntag_25:\n  sub(shl(0xa0, 0x01), 0x01)\n    /* \"contracts/Copy_oatfinally.sol\":6898:6918  sender != address(0) */\n  dup4\n  and\n    /* \"contracts/Copy_oatfinally.sol\":6890:6942  require(sender != address(0), \"ERC20: Zero Address\") */\n  tag_31\n  jumpi\n  mload(0x40)\n  shl(0xe5, 0x461bcd)\n  dup2\n  mstore\n    /* \"#utility.yul\":1002:1004   */\n  0x20\n    /* \"contracts/Copy_oatfinally.sol\":6890:6942  require(sender != address(0), \"ERC20: Zero Address\") */\n  0x04\n  dup3\n  add\n    /* \"#utility.yul\":984:1005   */\n  mstore\n    /* \"#utility.yul\":1041:1043   */\n  0x13\n    /* \"#utility.yul\":1021:1039   */\n  0x24\n  dup3\n  add\n    /* \"#utility.yul\":1014:1044   */\n  mstore\n  shl(0x68, 0x45524332303a205a65726f2041646472657373)\n    /* \"#utility.yul\":1060:1078   */\n  0x44\n  dup3\n  add\n    /* \"#utility.yul\":1053:1102   */\n  mstore\n    /* \"#utility.yul\":1119:1137   */\n  0x64\n  add\n    /* \"contracts/Copy_oatfinally.sol\":6890:6942  require(sender != address(0), \"ERC20: Zero Address\") */\ntag_32:\n  mload(0x40)\n  dup1\n  swap2\n  sub\n  swap1\n  revert\ntag_31:\n  sub(shl(0xa0, 0x01), 0x01)\n    /* \"contracts/Copy_oatfinally.sol\":6960:6981  spender != address(0) */\n  dup3\n  and\n    /* \"contracts/Copy_oatfinally.sol\":6952:7005  require(spender != address(0), \"ERC20: Zero Address\") */\n  tag_34\n  jumpi\n  mload(0x40)\n  shl(0xe5, 0x461bcd)\n  dup2\n  mstore\n    /* \"#utility.yul\":1002:1004   */\n  0x20\n    /* \"contracts/Copy_oatfinally.sol\":6952:7005  require(spender != address(0), \"ERC20: Zero Address\") */\n  0x04\n  dup3\n  add\n    /* \"#utility.yul\":984:1005   */\n  mstore\n    /* \"#utility.yul\":1041:1043   */\n  0x13\n    /* \"#utility.yul\":1021:1039   */\n  0x24\n  dup3\n  add\n    /* \"#utility.yul\":1014:1044   */\n  mstore\n  shl(0x68, 0x45524332303a205a65726f2041646472657373)\n    /* \"#utility.yul\":1060:1078   */\n  0x44\n  dup3\n  add\n    /* \"#utility.yul\":1053:1102   */\n  mstore\n    /* \"#utility.yul\":1119:1137   */\n  0x64\n  add\n    /* \"contracts/Copy_oatfinally.sol\":6952:7005  require(spender != address(0), \"ERC20: Zero Address\") */\n  tag_32\n    /* \"#utility.yul\":800:1143   */\n  jump\n    /* \"contracts/Copy_oatfinally.sol\":6952:7005  require(spender != address(0), \"ERC20: Zero Address\") */\ntag_34:\n  sub(shl(0xa0, 0x01), 0x01)\n    /* \"contracts/Copy_oatfinally.sol\":7015:7034  _allowances[sender] */\n  swap3\n  dup4\n  and\n  0x00\n  swap1\n  dup2\n  mstore\n    /* \"contracts/Copy_oatfinally.sol\":7015:7026  _allowances */\n  0x01\n    /* \"contracts/Copy_oatfinally.sol\":7015:7034  _allowances[sender] */\n  0x20\n  swap1\n  dup2\n  mstore\n  0x40\n  dup1\n  dup4\n  keccak256\n    /* \"contracts/Copy_oatfinally.sol\":7015:7043  _allowances[sender][spender] */\n  swap5\n  swap1\n  swap6\n  and\n  dup3\n  mstore\n  swap3\n  swap1\n  swap3\n  mstore\n  swap2\n  swap1\n  keccak256\n    /* \"contracts/Copy_oatfinally.sol\":7015:7052  _allowances[sender][spender] = amount */\n  sstore\n    /* \"contracts/Copy_oatfinally.sol\":6774:7059  function _approve(... */\n  jump\t// out\n    /* \"#utility.yul\":196:486   */\ntag_15:\n    /* \"#utility.yul\":266:272   */\n  0x00\n    /* \"#utility.yul\":319:321   */\n  0x20\n    /* \"#utility.yul\":307:316   */\n  dup3\n    /* \"#utility.yul\":298:305   */\n  dup5\n    /* \"#utility.yul\":294:317   */\n  sub\n    /* \"#utility.yul\":290:322   */\n  slt\n    /* \"#utility.yul\":287:339   */\n  iszero\n  tag_39\n  jumpi\n    /* \"#utility.yul\":335:336   */\n  0x00\n    /* \"#utility.yul\":332:333   */\n  dup1\n    /* \"#utility.yul\":325:337   */\n  revert\n    /* \"#utility.yul\":287:339   */\ntag_39:\n    /* \"#utility.yul\":361:377   */\n  dup2\n  mload\n  sub(shl(0xa0, 0x01), 0x01)\n    /* \"#utility.yul\":406:437   */\n  dup2\n  and\n    /* \"#utility.yul\":396:438   */\n  dup2\n  eq\n    /* \"#utility.yul\":386:456   */\n  tag_40\n  jumpi\n    /* \"#utility.yul\":452:453   */\n  0x00\n    /* \"#utility.yul\":449:450   */\n  dup1\n    /* \"#utility.yul\":442:454   */\n  revert\n    /* \"#utility.yul\":386:456   */\ntag_40:\n    /* \"#utility.yul\":475:480   */\n  swap4\n    /* \"#utility.yul\":196:486   */\n  swap3\n  pop\n  pop\n  pop\n  jump\t// out\n    /* \"#utility.yul\":800:1143   */\ntag_36:\n    /* \"contracts/Copy_oatfinally.sol\":3811:10175  contract OneAnonataTime is Context, Ownable, IERC20 {... */\n  dataSize(sub_0)\n  dup1\n  dataOffset(sub_0)\n  0x00\n  codecopy\n  0x00\n  return\nstop\n\nsub_0: assembly {\n        /* \"contracts/Copy_oatfinally.sol\":3811:10175  contract OneAnonataTime is Context, Ownable, IERC20 {... */\n      mstore(0x40, 0x80)\n      jumpi(tag_1, lt(calldatasize, 0x04))\n      shr(0xe0, calldataload(0x00))\n      dup1\n      0x715018a6\n      gt\n      tag_25\n      jumpi\n      dup1\n      0xa9059cbb\n      gt\n      tag_26\n      jumpi\n      dup1\n      0xa9059cbb\n      eq\n      tag_19\n      jumpi\n      dup1\n      0xc31c9c07\n      eq\n      tag_20\n      jumpi\n      dup1\n      0xdc9d75b0\n      eq\n      tag_21\n      jumpi\n      dup1\n      0xdd62ed3e\n      eq\n      tag_22\n      jumpi\n      dup1\n      0xe9451f5f\n      eq\n      tag_23\n      jumpi\n      dup1\n      0xf2fde38b\n      eq\n      tag_24\n      jumpi\n      0x00\n      dup1\n      revert\n    tag_26:\n      dup1\n      0x715018a6\n      eq\n      tag_14\n      jumpi\n      dup1\n      0x893d20e8\n      eq\n      tag_15\n      jumpi\n      dup1\n      0x8da5cb5b\n      eq\n      tag_15\n      jumpi\n      dup1\n      0x95d89b41\n      eq\n      tag_17\n      jumpi\n      dup1\n      0xa01c3483\n      eq\n      tag_18\n      jumpi\n      0x00\n      dup1\n      revert\n    tag_25:\n      dup1\n      0x27889862\n      gt\n      tag_27\n      jumpi\n      dup1\n      0x27889862\n      eq\n      tag_8\n      jumpi\n      dup1\n      0x313ce567\n      eq\n      tag_9\n      jumpi\n      dup1\n      0x3eaaf86b\n      eq\n      tag_10\n      jumpi\n      dup1\n      0x452ed4f1\n      eq\n      tag_11\n      jumpi\n      dup1\n      0x694e80c3\n      eq\n      tag_12\n      jumpi\n      dup1\n      0x70a08231\n      eq\n      tag_13\n      jumpi\n      0x00\n      dup1\n      revert\n    tag_27:\n      dup1\n      0x0445b667\n      eq\n      tag_3\n      jumpi\n      dup1\n      0x06fdde03\n      eq\n      tag_4\n      jumpi\n      dup1\n      0x095ea7b3\n      eq\n      tag_5\n      jumpi\n      dup1\n      0x18160ddd\n      eq\n      tag_6\n      jumpi\n      dup1\n      0x23b872dd\n      eq\n      tag_7\n      jumpi\n      0x00\n      dup1\n      revert\n    tag_1:\n      jumpi(tag_2, calldatasize)\n      stop\n    tag_2:\n      0x00\n      dup1\n      revert\n        /* \"contracts/Copy_oatfinally.sol\":5056:5093  uint256 public swapThreshold = 30_000 */\n    tag_3:\n      callvalue\n      dup1\n      iszero\n      tag_30\n      jumpi\n      0x00\n      dup1\n      revert\n    tag_30:\n      pop\n      tag_31\n      sload(0x05)\n      dup2\n      jump\n    tag_31:\n      mload(0x40)\n        /* \"#utility.yul\":160:185   */\n      swap1\n      dup2\n      mstore\n        /* \"#utility.yul\":148:150   */\n      0x20\n        /* \"#utility.yul\":133:151   */\n      add\n        /* \"contracts/Copy_oatfinally.sol\":5056:5093  uint256 public swapThreshold = 30_000 */\n    tag_33:\n      mload(0x40)\n      dup1\n      swap2\n      sub\n      swap1\n      return\n        /* \"contracts/Copy_oatfinally.sol\":4288:4372  function name() external pure  returns (string memory) {... */\n    tag_4:\n      callvalue\n      dup1\n      iszero\n      tag_35\n      jumpi\n      0x00\n      dup1\n      revert\n    tag_35:\n      pop\n        /* \"contracts/Copy_oatfinally.sol\":4360:4365  _name */\n      0x40\n      dup1\n      mload\n      dup1\n      dup3\n      add\n      swap1\n      swap2\n      mstore\n      0x08\n      dup2\n      mstore\n      shl(0xc1, 0x27b7329020b737b7)\n      0x20\n      dup3\n      add\n      mstore\n        /* \"contracts/Copy_oatfinally.sol\":4288:4372  function name() external pure  returns (string memory) {... */\n    tag_36:\n      mload(0x40)\n      tag_33\n      swap2\n      swap1\n      tag_39\n      jump\t// in\n        /* \"contracts/Copy_oatfinally.sol\":6582:6768  function approve(address spender, uint256 amount)... */\n    tag_5:\n      callvalue\n      dup1\n      iszero\n      tag_40\n      jumpi\n      0x00\n      dup1\n      revert\n    tag_40:\n      pop\n      tag_41\n      tag_42\n      calldatasize\n      0x04\n      tag_43\n      jump\t// in\n    tag_42:\n      tag_44\n      jump\t// in\n    tag_41:\n      mload(0x40)\n        /* \"#utility.yul\":1370:1384   */\n      swap1\n      iszero\n        /* \"#utility.yul\":1363:1385   */\n      iszero\n        /* \"#utility.yul\":1345:1386   */\n      dup2\n      mstore\n        /* \"#utility.yul\":1333:1335   */\n      0x20\n        /* \"#utility.yul\":1318:1336   */\n      add\n        /* \"contracts/Copy_oatfinally.sol\":6582:6768  function approve(address spender, uint256 amount)... */\n      tag_33\n        /* \"#utility.yul\":1205:1392   */\n      jump\n        /* \"contracts/Copy_oatfinally.sol\":3869:4034  function totalSupply() external pure override returns (uint256) {... */\n    tag_6:\n      callvalue\n      dup1\n      iszero\n      tag_47\n      jumpi\n      0x00\n      dup1\n      revert\n    tag_47:\n      pop\n        /* \"contracts/Copy_oatfinally.sol\":5030:5050  100_000_000 * 10**18 */\n      0x52b7d2dcc80cd2e4000000\n        /* \"contracts/Copy_oatfinally.sol\":3869:4034  function totalSupply() external pure override returns (uint256) {... */\n      jump(tag_31)\n        /* \"contracts/Copy_oatfinally.sol\":7065:7395  function transferFrom(... */\n    tag_7:\n      callvalue\n      dup1\n      iszero\n      tag_51\n      jumpi\n      0x00\n      dup1\n      revert\n    tag_51:\n      pop\n      tag_41\n      tag_53\n      calldatasize\n      0x04\n      tag_54\n      jump\t// in\n    tag_53:\n      tag_55\n      jump\t// in\n        /* \"contracts/Copy_oatfinally.sol\":7401:7509  function isNoFeeWallet(address account) external view returns (bool) {... */\n    tag_8:\n      callvalue\n      dup1\n      iszero\n      tag_57\n      jumpi\n      0x00\n      dup1\n      revert\n    tag_57:\n      pop\n      tag_41\n      tag_59\n      calldatasize\n      0x04\n      tag_60\n      jump\t// in\n    tag_59:\n      sub(shl(0xa0, 0x01), 0x01)\n        /* \"contracts/Copy_oatfinally.sol\":7487:7502  _noFee[account] */\n      and\n        /* \"contracts/Copy_oatfinally.sol\":7464:7468  bool */\n      0x00\n        /* \"contracts/Copy_oatfinally.sol\":7487:7502  _noFee[account] */\n      swap1\n      dup2\n      mstore\n        /* \"contracts/Copy_oatfinally.sol\":7487:7493  _noFee */\n      0x02\n        /* \"contracts/Copy_oatfinally.sol\":7487:7502  _noFee[account] */\n      0x20\n      mstore\n      0x40\n      swap1\n      keccak256\n      sload\n      0xff\n      and\n      swap1\n        /* \"contracts/Copy_oatfinally.sol\":7401:7509  function isNoFeeWallet(address account) external view returns (bool) {... */\n      jump\n        /* \"contracts/Copy_oatfinally.sol\":4040:4188  function decimals() external pure returns (uint8) {... */\n    tag_9:\n      callvalue\n      dup1\n      iszero\n      tag_63\n      jumpi\n      0x00\n      dup1\n      revert\n    tag_63:\n      pop\n      mload(0x40)\n        /* \"contracts/Copy_oatfinally.sol\":5471:5473  18 */\n      0x12\n        /* \"#utility.yul\":2252:2288   */\n      dup2\n      mstore\n        /* \"#utility.yul\":2240:2242   */\n      0x20\n        /* \"#utility.yul\":2225:2243   */\n      add\n        /* \"contracts/Copy_oatfinally.sol\":4040:4188  function decimals() external pure returns (uint8) {... */\n      tag_33\n        /* \"#utility.yul\":2110:2294   */\n      jump\n        /* \"contracts/Copy_oatfinally.sol\":4991:5050  uint256 public constant _totalSupply = 100_000_000 * 10**18 */\n    tag_10:\n      callvalue\n      dup1\n      iszero\n      tag_68\n      jumpi\n      0x00\n      dup1\n      revert\n    tag_68:\n      pop\n      tag_31\n        /* \"contracts/Copy_oatfinally.sol\":5030:5050  100_000_000 * 10**18 */\n      0x52b7d2dcc80cd2e4000000\n        /* \"contracts/Copy_oatfinally.sol\":4991:5050  uint256 public constant _totalSupply = 100_000_000 * 10**18 */\n      dup2\n      jump\n        /* \"contracts/Copy_oatfinally.sol\":5573:5594  address public lpPair */\n    tag_11:\n      callvalue\n      dup1\n      iszero\n      tag_72\n      jumpi\n      0x00\n      dup1\n      revert\n    tag_72:\n      pop\n      sload(0x08)\n      tag_73\n      swap1\n      sub(shl(0xa0, 0x01), 0x01)\n      and\n      dup2\n      jump\n    tag_73:\n      mload(0x40)\n      sub(shl(0xa0, 0x01), 0x01)\n        /* \"#utility.yul\":2463:2495   */\n      swap1\n      swap2\n      and\n        /* \"#utility.yul\":2445:2496   */\n      dup2\n      mstore\n        /* \"#utility.yul\":2433:2435   */\n      0x20\n        /* \"#utility.yul\":2418:2436   */\n      add\n        /* \"contracts/Copy_oatfinally.sol\":5573:5594  address public lpPair */\n      tag_33\n        /* \"#utility.yul\":2299:2502   */\n      jump\n        /* \"contracts/Copy_oatfinally.sol\":9968:10173  function changeThreshold(uint256 amount) external onlyOwner {... */\n    tag_12:\n      callvalue\n      dup1\n      iszero\n      tag_77\n      jumpi\n      0x00\n      dup1\n      revert\n    tag_77:\n      pop\n      tag_78\n      tag_79\n      calldatasize\n      0x04\n      tag_80\n      jump\t// in\n    tag_79:\n      tag_81\n      jump\t// in\n    tag_78:\n      stop\n        /* \"contracts/Copy_oatfinally.sol\":4655:4770  function balanceOf(address account) public view override returns (uint256) {... */\n    tag_13:\n      callvalue\n      dup1\n      iszero\n      tag_82\n      jumpi\n      0x00\n      dup1\n      revert\n    tag_82:\n      pop\n      tag_31\n      tag_84\n      calldatasize\n      0x04\n      tag_60\n      jump\t// in\n    tag_84:\n      sub(shl(0xa0, 0x01), 0x01)\n        /* \"contracts/Copy_oatfinally.sol\":4747:4763  balance[account] */\n      and\n        /* \"contracts/Copy_oatfinally.sol\":4721:4728  uint256 */\n      0x00\n        /* \"contracts/Copy_oatfinally.sol\":4747:4763  balance[account] */\n      swap1\n      dup2\n      mstore\n        /* \"contracts/Copy_oatfinally.sol\":4747:4754  balance */\n      0x04\n        /* \"contracts/Copy_oatfinally.sol\":4747:4763  balance[account] */\n      0x20\n      mstore\n      0x40\n      swap1\n      keccak256\n      sload\n      swap1\n        /* \"contracts/Copy_oatfinally.sol\":4655:4770  function balanceOf(address account) public view override returns (uint256) {... */\n      jump\n        /* \"@openzeppelin/contracts/access/Ownable.sol\":1824:1925  function renounceOwnership() public virtual onlyOwner {... */\n    tag_14:\n      callvalue\n      dup1\n      iszero\n      tag_87\n      jumpi\n      0x00\n      dup1\n      revert\n    tag_87:\n      pop\n      tag_78\n      tag_89\n      jump\t// in\n        /* \"contracts/Copy_oatfinally.sol\":4378:4462  function getOwner() external view  returns (address) {... */\n    tag_15:\n      callvalue\n      dup1\n      iszero\n      tag_90\n      jumpi\n      0x00\n      dup1\n      revert\n    tag_90:\n      pop\n        /* \"contracts/Copy_oatfinally.sol\":4422:4429  address */\n      0x00\n        /* \"@openzeppelin/contracts/access/Ownable.sol\":1273:1279  _owner */\n      sload\n      sub(shl(0xa0, 0x01), 0x01)\n      and\n        /* \"contracts/Copy_oatfinally.sol\":4378:4462  function getOwner() external view  returns (address) {... */\n      jump(tag_73)\n        /* \"contracts/Copy_oatfinally.sol\":4194:4282  function symbol() external pure  returns (string memory) {... */\n    tag_17:\n      callvalue\n      dup1\n      iszero\n      tag_98\n      jumpi\n      0x00\n      dup1\n      revert\n    tag_98:\n      pop\n        /* \"contracts/Copy_oatfinally.sol\":4268:4275  _symbol */\n      0x40\n      dup1\n      mload\n      dup1\n      dup3\n      add\n      swap1\n      swap2\n      mstore\n      0x04\n      dup2\n      mstore\n      shl(0xe2, 0x0913d055)\n      0x20\n      dup3\n      add\n      mstore\n        /* \"contracts/Copy_oatfinally.sol\":4194:4282  function symbol() external pure  returns (string memory) {... */\n      jump(tag_36)\n        /* \"contracts/Copy_oatfinally.sol\":5479:5567  address public constant DEAD_WALLET =... */\n    tag_18:\n      callvalue\n      dup1\n      iszero\n      tag_102\n      jumpi\n      0x00\n      dup1\n      revert\n    tag_102:\n      pop\n      tag_73\n        /* \"contracts/Copy_oatfinally.sol\":5525:5567  0x000000000000000000000000000000000000dEaD */\n      0xdead\n        /* \"contracts/Copy_oatfinally.sol\":5479:5567  address public constant DEAD_WALLET =... */\n      dup2\n      jump\n        /* \"contracts/Copy_oatfinally.sol\":6386:6576  function transfer(address recipient, uint256 amount)... */\n    tag_19:\n      callvalue\n      dup1\n      iszero\n      tag_106\n      jumpi\n      0x00\n      dup1\n      revert\n    tag_106:\n      pop\n      tag_41\n      tag_108\n      calldatasize\n      0x04\n      tag_43\n      jump\t// in\n    tag_108:\n      tag_109\n      jump\t// in\n        /* \"contracts/Copy_oatfinally.sol\":5295:5322  IRouter02 public swapRouter */\n    tag_20:\n      callvalue\n      dup1\n      iszero\n      tag_111\n      jumpi\n      0x00\n      dup1\n      revert\n    tag_111:\n      pop\n      sload(0x07)\n      tag_73\n      swap1\n      sub(shl(0xa0, 0x01), 0x01)\n      and\n      dup2\n      jump\n        /* \"contracts/Copy_oatfinally.sol\":5140:5185  uint256 public constant fee_denominator = 100 */\n    tag_21:\n      callvalue\n      dup1\n      iszero\n      tag_116\n      jumpi\n      0x00\n      dup1\n      revert\n    tag_116:\n      pop\n      tag_31\n        /* \"contracts/Copy_oatfinally.sol\":5182:5185  100 */\n      0x64\n        /* \"contracts/Copy_oatfinally.sol\":5140:5185  uint256 public constant fee_denominator = 100 */\n      dup2\n      jump\n        /* \"contracts/Copy_oatfinally.sol\":4468:4649  function allowance(address holder, address spender)... */\n    tag_22:\n      callvalue\n      dup1\n      iszero\n      tag_120\n      jumpi\n      0x00\n      dup1\n      revert\n    tag_120:\n      pop\n      tag_31\n      tag_122\n      calldatasize\n      0x04\n      tag_123\n      jump\t// in\n    tag_122:\n      sub(shl(0xa0, 0x01), 0x01)\n        /* \"contracts/Copy_oatfinally.sol\":4614:4633  _allowances[holder] */\n      swap2\n      dup3\n      and\n        /* \"contracts/Copy_oatfinally.sol\":4584:4591  uint256 */\n      0x00\n        /* \"contracts/Copy_oatfinally.sol\":4614:4633  _allowances[holder] */\n      swap1\n      dup2\n      mstore\n        /* \"contracts/Copy_oatfinally.sol\":4614:4625  _allowances */\n      0x01\n        /* \"contracts/Copy_oatfinally.sol\":4614:4633  _allowances[holder] */\n      0x20\n      swap1\n      dup2\n      mstore\n      0x40\n      dup1\n      dup4\n      keccak256\n        /* \"contracts/Copy_oatfinally.sol\":4614:4642  _allowances[holder][spender] */\n      swap4\n      swap1\n      swap5\n      and\n      dup3\n      mstore\n      swap2\n      swap1\n      swap2\n      mstore\n      keccak256\n      sload\n      swap1\n        /* \"contracts/Copy_oatfinally.sol\":4468:4649  function allowance(address holder, address spender)... */\n      jump\n        /* \"contracts/Copy_oatfinally.sol\":5099:5134  uint256 public constant sellfee = 2 */\n    tag_23:\n      callvalue\n      dup1\n      iszero\n      tag_126\n      jumpi\n      0x00\n      dup1\n      revert\n    tag_126:\n      pop\n      tag_31\n        /* \"contracts/Copy_oatfinally.sol\":5133:5134  2 */\n      0x02\n        /* \"contracts/Copy_oatfinally.sol\":5099:5134  uint256 public constant sellfee = 2 */\n      dup2\n      jump\n        /* \"@openzeppelin/contracts/access/Ownable.sol\":2074:2272  function transferOwnership(address newOwner) public virtual onlyOwner {... */\n    tag_24:\n      callvalue\n      dup1\n      iszero\n      tag_130\n      jumpi\n      0x00\n      dup1\n      revert\n    tag_130:\n      pop\n      tag_78\n      tag_132\n      calldatasize\n      0x04\n      tag_60\n      jump\t// in\n    tag_132:\n      tag_133\n      jump\t// in\n        /* \"contracts/Copy_oatfinally.sol\":6582:6768  function approve(address spender, uint256 amount)... */\n    tag_44:\n        /* \"contracts/Copy_oatfinally.sol\":6683:6687  bool */\n      0x00\n        /* \"contracts/Copy_oatfinally.sol\":6703:6740  _approve(msg.sender, spender, amount) */\n      tag_136\n        /* \"contracts/Copy_oatfinally.sol\":6712:6722  msg.sender */\n      caller\n        /* \"contracts/Copy_oatfinally.sol\":6724:6731  spender */\n      dup5\n        /* \"contracts/Copy_oatfinally.sol\":6733:6739  amount */\n      dup5\n        /* \"contracts/Copy_oatfinally.sol\":6703:6711  _approve */\n      tag_137\n        /* \"contracts/Copy_oatfinally.sol\":6703:6740  _approve(msg.sender, spender, amount) */\n      jump\t// in\n    tag_136:\n      pop\n        /* \"contracts/Copy_oatfinally.sol\":6757:6761  true */\n      0x01\n        /* \"contracts/Copy_oatfinally.sol\":6582:6768  function approve(address spender, uint256 amount)... */\n    tag_135:\n      swap3\n      swap2\n      pop\n      pop\n      jump\t// out\n        /* \"contracts/Copy_oatfinally.sol\":7065:7395  function transferFrom(... */\n    tag_55:\n      sub(shl(0xa0, 0x01), 0x01)\n        /* \"contracts/Copy_oatfinally.sol\":7215:7234  _allowances[sender] */\n      dup4\n      and\n        /* \"contracts/Copy_oatfinally.sol\":7195:7199  bool */\n      0x00\n        /* \"contracts/Copy_oatfinally.sol\":7215:7234  _allowances[sender] */\n      swap1\n      dup2\n      mstore\n        /* \"contracts/Copy_oatfinally.sol\":7215:7226  _allowances */\n      0x01\n        /* \"contracts/Copy_oatfinally.sol\":7215:7234  _allowances[sender] */\n      0x20\n      swap1\n      dup2\n      mstore\n      0x40\n      dup1\n      dup4\n      keccak256\n        /* \"contracts/Copy_oatfinally.sol\":7235:7245  msg.sender */\n      caller\n        /* \"contracts/Copy_oatfinally.sol\":7215:7246  _allowances[sender][msg.sender] */\n      dup5\n      mstore\n      swap1\n      swap2\n      mstore\n      dup2\n      keccak256\n      sload\n      not(0x00)\n        /* \"contracts/Copy_oatfinally.sol\":7215:7267  _allowances[sender][msg.sender] != type(uint256).max */\n      eq\n        /* \"contracts/Copy_oatfinally.sol\":7211:7335  if (_allowances[sender][msg.sender] != type(uint256).max) {... */\n      tag_141\n      jumpi\n      sub(shl(0xa0, 0x01), 0x01)\n        /* \"contracts/Copy_oatfinally.sol\":7283:7302  _allowances[sender] */\n      dup5\n      and\n      0x00\n      swap1\n      dup2\n      mstore\n        /* \"contracts/Copy_oatfinally.sol\":7283:7294  _allowances */\n      0x01\n        /* \"contracts/Copy_oatfinally.sol\":7283:7302  _allowances[sender] */\n      0x20\n      swap1\n      dup2\n      mstore\n      0x40\n      dup1\n      dup4\n      keccak256\n        /* \"contracts/Copy_oatfinally.sol\":7303:7313  msg.sender */\n      caller\n        /* \"contracts/Copy_oatfinally.sol\":7283:7314  _allowances[sender][msg.sender] */\n      dup5\n      mstore\n      swap1\n      swap2\n      mstore\n      dup2\n      keccak256\n        /* \"contracts/Copy_oatfinally.sol\":7283:7324  _allowances[sender][msg.sender] -= amount */\n      dup1\n      sload\n        /* \"contracts/Copy_oatfinally.sol\":7318:7324  amount */\n      dup5\n      swap3\n        /* \"contracts/Copy_oatfinally.sol\":7283:7302  _allowances[sender] */\n      swap1\n        /* \"contracts/Copy_oatfinally.sol\":7283:7324  _allowances[sender][msg.sender] -= amount */\n      tag_142\n      swap1\n        /* \"contracts/Copy_oatfinally.sol\":7318:7324  amount */\n      dup5\n      swap1\n        /* \"contracts/Copy_oatfinally.sol\":7283:7324  _allowances[sender][msg.sender] -= amount */\n      tag_143\n      jump\t// in\n    tag_142:\n      swap1\n      swap2\n      sstore\n      pop\n      pop\n        /* \"contracts/Copy_oatfinally.sol\":7211:7335  if (_allowances[sender][msg.sender] != type(uint256).max) {... */\n    tag_141:\n        /* \"contracts/Copy_oatfinally.sol\":7352:7388  _transfer(sender, recipient, amount) */\n      tag_144\n        /* \"contracts/Copy_oatfinally.sol\":7362:7368  sender */\n      dup5\n        /* \"contracts/Copy_oatfinally.sol\":7370:7379  recipient */\n      dup5\n        /* \"contracts/Copy_oatfinally.sol\":7381:7387  amount */\n      dup5\n        /* \"contracts/Copy_oatfinally.sol\":7352:7361  _transfer */\n      tag_145\n        /* \"contracts/Copy_oatfinally.sol\":7352:7388  _transfer(sender, recipient, amount) */\n      jump\t// in\n    tag_144:\n        /* \"contracts/Copy_oatfinally.sol\":7345:7388  return _transfer(sender, recipient, amount) */\n      swap1\n      pop\n        /* \"contracts/Copy_oatfinally.sol\":7065:7395  function transferFrom(... */\n    tag_140:\n      swap4\n      swap3\n      pop\n      pop\n      pop\n      jump\t// out\n        /* \"contracts/Copy_oatfinally.sol\":9968:10173  function changeThreshold(uint256 amount) external onlyOwner {... */\n    tag_81:\n        /* \"@openzeppelin/contracts/access/Ownable.sol\":1094:1107  _checkOwner() */\n      tag_150\n        /* \"@openzeppelin/contracts/access/Ownable.sol\":1094:1105  _checkOwner */\n      tag_151\n        /* \"@openzeppelin/contracts/access/Ownable.sol\":1094:1107  _checkOwner() */\n      jump\t// in\n    tag_150:\n        /* \"contracts/Copy_oatfinally.sol\":10056:10059  100 */\n      0x64\n        /* \"contracts/Copy_oatfinally.sol\":10046:10052  amount */\n      dup2\n        /* \"contracts/Copy_oatfinally.sol\":10046:10059  amount >= 100 */\n      lt\n      iszero\n        /* \"contracts/Copy_oatfinally.sol\":10038:10090  require(amount >= 100, \"Amount lower not accepted.\") */\n      tag_153\n      jumpi\n      mload(0x40)\n      shl(0xe5, 0x461bcd)\n      dup2\n      mstore\n        /* \"#utility.yul\":3778:3780   */\n      0x20\n        /* \"contracts/Copy_oatfinally.sol\":10038:10090  require(amount >= 100, \"Amount lower not accepted.\") */\n      0x04\n      dup3\n      add\n        /* \"#utility.yul\":3760:3781   */\n      mstore\n        /* \"#utility.yul\":3817:3819   */\n      0x1a\n        /* \"#utility.yul\":3797:3815   */\n      0x24\n      dup3\n      add\n        /* \"#utility.yul\":3790:3820   */\n      mstore\n        /* \"#utility.yul\":3856:3884   */\n      0x416d6f756e74206c6f776572206e6f742061636365707465642e000000000000\n        /* \"#utility.yul\":3836:3854   */\n      0x44\n      dup3\n      add\n        /* \"#utility.yul\":3829:3885   */\n      mstore\n        /* \"#utility.yul\":3902:3920   */\n      0x64\n      add\n        /* \"contracts/Copy_oatfinally.sol\":10038:10090  require(amount >= 100, \"Amount lower not accepted.\") */\n    tag_154:\n      mload(0x40)\n      dup1\n      swap2\n      sub\n      swap1\n      revert\n    tag_153:\n        /* \"contracts/Copy_oatfinally.sol\":10100:10113  swapThreshold */\n      0x05\n        /* \"contracts/Copy_oatfinally.sol\":10100:10122  swapThreshold = amount */\n      dup2\n      swap1\n      sstore\n        /* \"contracts/Copy_oatfinally.sol\":10137:10166  updateThresold(swapThreshold) */\n      mload(0x40)\n        /* \"#utility.yul\":160:185   */\n      dup2\n      dup2\n      mstore\n        /* \"contracts/Copy_oatfinally.sol\":10137:10166  updateThresold(swapThreshold) */\n      0x2b7ce9cd4278161eef9245955c9a851618488a07e830194c60a88f0224ad3cc0\n      swap1\n        /* \"#utility.yul\":148:150   */\n      0x20\n        /* \"#utility.yul\":133:151   */\n      add\n        /* \"contracts/Copy_oatfinally.sol\":10137:10166  updateThresold(swapThreshold) */\n      mload(0x40)\n      dup1\n      swap2\n      sub\n      swap1\n      log1\n        /* \"contracts/Copy_oatfinally.sol\":9968:10173  function changeThreshold(uint256 amount) external onlyOwner {... */\n      pop\n      jump\t// out\n        /* \"@openzeppelin/contracts/access/Ownable.sol\":1824:1925  function renounceOwnership() public virtual onlyOwner {... */\n    tag_89:\n        /* \"@openzeppelin/contracts/access/Ownable.sol\":1094:1107  _checkOwner() */\n      tag_159\n        /* \"@openzeppelin/contracts/access/Ownable.sol\":1094:1105  _checkOwner */\n      tag_151\n        /* \"@openzeppelin/contracts/access/Ownable.sol\":1094:1107  _checkOwner() */\n      jump\t// in\n    tag_159:\n        /* \"@openzeppelin/contracts/access/Ownable.sol\":1888:1918  _transferOwnership(address(0)) */\n      tag_161\n        /* \"@openzeppelin/contracts/access/Ownable.sol\":1915:1916  0 */\n      0x00\n        /* \"@openzeppelin/contracts/access/Ownable.sol\":1888:1906  _transferOwnership */\n      tag_162\n        /* \"@openzeppelin/contracts/access/Ownable.sol\":1888:1918  _transferOwnership(address(0)) */\n      jump\t// in\n    tag_161:\n        /* \"@openzeppelin/contracts/access/Ownable.sol\":1824:1925  function renounceOwnership() public virtual onlyOwner {... */\n      jump\t// out\n        /* \"contracts/Copy_oatfinally.sol\":6386:6576  function transfer(address recipient, uint256 amount)... */\n    tag_109:\n        /* \"contracts/Copy_oatfinally.sol\":6488:6492  bool */\n      0x00\n        /* \"contracts/Copy_oatfinally.sol\":6508:6548  _transfer(msg.sender, recipient, amount) */\n      tag_168\n        /* \"contracts/Copy_oatfinally.sol\":6518:6528  msg.sender */\n      caller\n        /* \"contracts/Copy_oatfinally.sol\":6530:6539  recipient */\n      dup5\n        /* \"contracts/Copy_oatfinally.sol\":6541:6547  amount */\n      dup5\n        /* \"contracts/Copy_oatfinally.sol\":6508:6517  _transfer */\n      tag_145\n        /* \"contracts/Copy_oatfinally.sol\":6508:6548  _transfer(msg.sender, recipient, amount) */\n      jump\t// in\n    tag_168:\n      pop\n        /* \"contracts/Copy_oatfinally.sol\":6565:6569  true */\n      0x01\n      swap4\n        /* \"contracts/Copy_oatfinally.sol\":6386:6576  function transfer(address recipient, uint256 amount)... */\n      swap3\n      pop\n      pop\n      pop\n      jump\t// out\n        /* \"@openzeppelin/contracts/access/Ownable.sol\":2074:2272  function transferOwnership(address newOwner) public virtual onlyOwner {... */\n    tag_133:\n        /* \"@openzeppelin/contracts/access/Ownable.sol\":1094:1107  _checkOwner() */\n      tag_171\n        /* \"@openzeppelin/contracts/access/Ownable.sol\":1094:1105  _checkOwner */\n      tag_151\n        /* \"@openzeppelin/contracts/access/Ownable.sol\":1094:1107  _checkOwner() */\n      jump\t// in\n    tag_171:\n      sub(shl(0xa0, 0x01), 0x01)\n        /* \"@openzeppelin/contracts/access/Ownable.sol\":2162:2184  newOwner != address(0) */\n      dup2\n      and\n        /* \"@openzeppelin/contracts/access/Ownable.sol\":2154:2227  require(newOwner != address(0), \"Ownable: new owner is the zero address\") */\n      tag_173\n      jumpi\n      mload(0x40)\n      shl(0xe5, 0x461bcd)\n      dup2\n      mstore\n        /* \"#utility.yul\":4133:4135   */\n      0x20\n        /* \"@openzeppelin/contracts/access/Ownable.sol\":2154:2227  require(newOwner != address(0), \"Ownable: new owner is the zero address\") */\n      0x04\n      dup3\n      add\n        /* \"#utility.yul\":4115:4136   */\n      mstore\n        /* \"#utility.yul\":4172:4174   */\n      0x26\n        /* \"#utility.yul\":4152:4170   */\n      0x24\n      dup3\n      add\n        /* \"#utility.yul\":4145:4175   */\n      mstore\n        /* \"#utility.yul\":4211:4245   */\n      0x4f776e61626c653a206e6577206f776e657220697320746865207a65726f2061\n        /* \"#utility.yul\":4191:4209   */\n      0x44\n      dup3\n      add\n        /* \"#utility.yul\":4184:4246   */\n      mstore\n      shl(0xd0, 0x646472657373)\n        /* \"#utility.yul\":4262:4280   */\n      0x64\n      dup3\n      add\n        /* \"#utility.yul\":4255:4291   */\n      mstore\n        /* \"#utility.yul\":4308:4327   */\n      0x84\n      add\n        /* \"@openzeppelin/contracts/access/Ownable.sol\":2154:2227  require(newOwner != address(0), \"Ownable: new owner is the zero address\") */\n      tag_154\n        /* \"#utility.yul\":3931:4333   */\n      jump\n        /* \"@openzeppelin/contracts/access/Ownable.sol\":2154:2227  require(newOwner != address(0), \"Ownable: new owner is the zero address\") */\n    tag_173:\n        /* \"@openzeppelin/contracts/access/Ownable.sol\":2237:2265  _transferOwnership(newOwner) */\n      tag_176\n        /* \"@openzeppelin/contracts/access/Ownable.sol\":2256:2264  newOwner */\n      dup2\n        /* \"@openzeppelin/contracts/access/Ownable.sol\":2237:2255  _transferOwnership */\n      tag_162\n        /* \"@openzeppelin/contracts/access/Ownable.sol\":2237:2265  _transferOwnership(newOwner) */\n      jump\t// in\n    tag_176:\n        /* \"@openzeppelin/contracts/access/Ownable.sol\":2074:2272  function transferOwnership(address newOwner) public virtual onlyOwner {... */\n      pop\n      jump\t// out\n        /* \"contracts/Copy_oatfinally.sol\":6774:7059  function _approve(... */\n    tag_137:\n      sub(shl(0xa0, 0x01), 0x01)\n        /* \"contracts/Copy_oatfinally.sol\":6898:6918  sender != address(0) */\n      dup4\n      and\n        /* \"contracts/Copy_oatfinally.sol\":6890:6942  require(sender != address(0), \"ERC20: Zero Address\") */\n      tag_178\n      jumpi\n      mload(0x40)\n      shl(0xe5, 0x461bcd)\n      dup2\n      mstore\n        /* \"#utility.yul\":4540:4542   */\n      0x20\n        /* \"contracts/Copy_oatfinally.sol\":6890:6942  require(sender != address(0), \"ERC20: Zero Address\") */\n      0x04\n      dup3\n      add\n        /* \"#utility.yul\":4522:4543   */\n      mstore\n        /* \"#utility.yul\":4579:4581   */\n      0x13\n        /* \"#utility.yul\":4559:4577   */\n      0x24\n      dup3\n      add\n        /* \"#utility.yul\":4552:4582   */\n      mstore\n      shl(0x68, 0x45524332303a205a65726f2041646472657373)\n        /* \"#utility.yul\":4598:4616   */\n      0x44\n      dup3\n      add\n        /* \"#utility.yul\":4591:4640   */\n      mstore\n        /* \"#utility.yul\":4657:4675   */\n      0x64\n      add\n        /* \"contracts/Copy_oatfinally.sol\":6890:6942  require(sender != address(0), \"ERC20: Zero Address\") */\n      tag_154\n        /* \"#utility.yul\":4338:4681   */\n      jump\n        /* \"contracts/Copy_oatfinally.sol\":6890:6942  require(sender != address(0), \"ERC20: Zero Address\") */\n    tag_178:\n      sub(shl(0xa0, 0x01), 0x01)\n        /* \"contracts/Copy_oatfinally.sol\":6960:6981  spender != address(0) */\n      dup3\n      and\n        /* \"contracts/Copy_oatfinally.sol\":6952:7005  require(spender != address(0), \"ERC20: Zero Address\") */\n      tag_181\n      jumpi\n      mload(0x40)\n      shl(0xe5, 0x461bcd)\n      dup2\n      mstore\n        /* \"#utility.yul\":4540:4542   */\n      0x20\n        /* \"contracts/Copy_oatfinally.sol\":6952:7005  require(spender != address(0), \"ERC20: Zero Address\") */\n      0x04\n      dup3\n      add\n        /* \"#utility.yul\":4522:4543   */\n      mstore\n        /* \"#utility.yul\":4579:4581   */\n      0x13\n        /* \"#utility.yul\":4559:4577   */\n      0x24\n      dup3\n      add\n        /* \"#utility.yul\":4552:4582   */\n      mstore\n      shl(0x68, 0x45524332303a205a65726f2041646472657373)\n        /* \"#utility.yul\":4598:4616   */\n      0x44\n      dup3\n      add\n        /* \"#utility.yul\":4591:4640   */\n      mstore\n        /* \"#utility.yul\":4657:4675   */\n      0x64\n      add\n        /* \"contracts/Copy_oatfinally.sol\":6952:7005  require(spender != address(0), \"ERC20: Zero Address\") */\n      tag_154\n        /* \"#utility.yul\":4338:4681   */\n      jump\n        /* \"contracts/Copy_oatfinally.sol\":6952:7005  require(spender != address(0), \"ERC20: Zero Address\") */\n    tag_181:\n      sub(shl(0xa0, 0x01), 0x01)\n        /* \"contracts/Copy_oatfinally.sol\":7015:7034  _allowances[sender] */\n      swap3\n      dup4\n      and\n      0x00\n      swap1\n      dup2\n      mstore\n        /* \"contracts/Copy_oatfinally.sol\":7015:7026  _allowances */\n      0x01\n        /* \"contracts/Copy_oatfinally.sol\":7015:7034  _allowances[sender] */\n      0x20\n      swap1\n      dup2\n      mstore\n      0x40\n      dup1\n      dup4\n      keccak256\n        /* \"contracts/Copy_oatfinally.sol\":7015:7043  _allowances[sender][spender] */\n      swap5\n      swap1\n      swap6\n      and\n      dup3\n      mstore\n      swap3\n      swap1\n      swap3\n      mstore\n      swap2\n      swap1\n      keccak256\n        /* \"contracts/Copy_oatfinally.sol\":7015:7052  _allowances[sender][spender] = amount */\n      sstore\n        /* \"contracts/Copy_oatfinally.sol\":6774:7059  function _approve(... */\n      jump\t// out\n        /* \"contracts/Copy_oatfinally.sol\":7682:8653  function _transfer(... */\n    tag_145:\n        /* \"contracts/Copy_oatfinally.sol\":7791:7795  bool */\n      0x00\n        /* \"contracts/Copy_oatfinally.sol\":7822:7826  true */\n      0x01\n      sub(shl(0xa0, 0x01), 0x01)\n        /* \"contracts/Copy_oatfinally.sol\":7844:7860  to != address(0) */\n      dup5\n      and\n        /* \"contracts/Copy_oatfinally.sol\":7836:7900  require(to != address(0), \"ERC20: transfer to the zero address\") */\n      tag_184\n      jumpi\n      mload(0x40)\n      shl(0xe5, 0x461bcd)\n      dup2\n      mstore\n        /* \"#utility.yul\":4888:4890   */\n      0x20\n        /* \"contracts/Copy_oatfinally.sol\":7836:7900  require(to != address(0), \"ERC20: transfer to the zero address\") */\n      0x04\n      dup3\n      add\n        /* \"#utility.yul\":4870:4891   */\n      mstore\n        /* \"#utility.yul\":4927:4929   */\n      0x23\n        /* \"#utility.yul\":4907:4925   */\n      0x24\n      dup3\n      add\n        /* \"#utility.yul\":4900:4930   */\n      mstore\n        /* \"#utility.yul\":4966:5000   */\n      0x45524332303a207472616e7366657220746f20746865207a65726f2061646472\n        /* \"#utility.yul\":4946:4964   */\n      0x44\n      dup3\n      add\n        /* \"#utility.yul\":4939:5001   */\n      mstore\n      shl(0xe8, 0x657373)\n        /* \"#utility.yul\":5017:5035   */\n      0x64\n      dup3\n      add\n        /* \"#utility.yul\":5010:5043   */\n      mstore\n        /* \"#utility.yul\":5060:5079   */\n      0x84\n      add\n        /* \"contracts/Copy_oatfinally.sol\":7836:7900  require(to != address(0), \"ERC20: transfer to the zero address\") */\n      tag_154\n        /* \"#utility.yul\":4686:5085   */\n      jump\n        /* \"contracts/Copy_oatfinally.sol\":7836:7900  require(to != address(0), \"ERC20: transfer to the zero address\") */\n    tag_184:\n      sub(shl(0xa0, 0x01), 0x01)\n        /* \"contracts/Copy_oatfinally.sol\":7918:7936  from != address(0) */\n      dup6\n      and\n        /* \"contracts/Copy_oatfinally.sol\":7910:7978  require(from != address(0), \"ERC20: transfer from the zero address\") */\n      tag_187\n      jumpi\n      mload(0x40)\n      shl(0xe5, 0x461bcd)\n      dup2\n      mstore\n        /* \"#utility.yul\":5292:5294   */\n      0x20\n        /* \"contracts/Copy_oatfinally.sol\":7910:7978  require(from != address(0), \"ERC20: transfer from the zero address\") */\n      0x04\n      dup3\n      add\n        /* \"#utility.yul\":5274:5295   */\n      mstore\n        /* \"#utility.yul\":5331:5333   */\n      0x25\n        /* \"#utility.yul\":5311:5329   */\n      0x24\n      dup3\n      add\n        /* \"#utility.yul\":5304:5334   */\n      mstore\n        /* \"#utility.yul\":5370:5404   */\n      0x45524332303a207472616e736665722066726f6d20746865207a65726f206164\n        /* \"#utility.yul\":5350:5368   */\n      0x44\n      dup3\n      add\n        /* \"#utility.yul\":5343:5405   */\n      mstore\n      shl(0xd8, 0x6472657373)\n        /* \"#utility.yul\":5421:5439   */\n      0x64\n      dup3\n      add\n        /* \"#utility.yul\":5414:5449   */\n      mstore\n        /* \"#utility.yul\":5466:5485   */\n      0x84\n      add\n        /* \"contracts/Copy_oatfinally.sol\":7910:7978  require(from != address(0), \"ERC20: transfer from the zero address\") */\n      tag_154\n        /* \"#utility.yul\":5090:5491   */\n      jump\n        /* \"contracts/Copy_oatfinally.sol\":7910:7978  require(from != address(0), \"ERC20: transfer from the zero address\") */\n    tag_187:\n        /* \"contracts/Copy_oatfinally.sol\":8005:8006  0 */\n      0x00\n        /* \"contracts/Copy_oatfinally.sol\":7996:8002  amount */\n      dup4\n        /* \"contracts/Copy_oatfinally.sol\":7996:8006  amount > 0 */\n      gt\n        /* \"contracts/Copy_oatfinally.sol\":7988:8052  require(amount > 0, \"Transfer amount must be greater than zero\") */\n      tag_190\n      jumpi\n      mload(0x40)\n      shl(0xe5, 0x461bcd)\n      dup2\n      mstore\n        /* \"#utility.yul\":5698:5700   */\n      0x20\n        /* \"contracts/Copy_oatfinally.sol\":7988:8052  require(amount > 0, \"Transfer amount must be greater than zero\") */\n      0x04\n      dup3\n      add\n        /* \"#utility.yul\":5680:5701   */\n      mstore\n        /* \"#utility.yul\":5737:5739   */\n      0x29\n        /* \"#utility.yul\":5717:5735   */\n      0x24\n      dup3\n      add\n        /* \"#utility.yul\":5710:5740   */\n      mstore\n        /* \"#utility.yul\":5776:5810   */\n      0x5472616e7366657220616d6f756e74206d757374206265206772656174657220\n        /* \"#utility.yul\":5756:5774   */\n      0x44\n      dup3\n      add\n        /* \"#utility.yul\":5749:5811   */\n      mstore\n      shl(0xb8, 0x7468616e207a65726f)\n        /* \"#utility.yul\":5827:5845   */\n      0x64\n      dup3\n      add\n        /* \"#utility.yul\":5820:5859   */\n      mstore\n        /* \"#utility.yul\":5876:5895   */\n      0x84\n      add\n        /* \"contracts/Copy_oatfinally.sol\":7988:8052  require(amount > 0, \"Transfer amount must be greater than zero\") */\n      tag_154\n        /* \"#utility.yul\":5496:5901   */\n      jump\n        /* \"contracts/Copy_oatfinally.sol\":7988:8052  require(amount > 0, \"Transfer amount must be greater than zero\") */\n    tag_190:\n        /* \"contracts/Copy_oatfinally.sol\":8067:8084  is_sell(from, to) */\n      tag_193\n        /* \"contracts/Copy_oatfinally.sol\":8075:8079  from */\n      dup6\n        /* \"contracts/Copy_oatfinally.sol\":8081:8083  to */\n      dup6\n        /* \"contracts/Copy_oatfinally.sol\":8067:8074  is_sell */\n      tag_194\n        /* \"contracts/Copy_oatfinally.sol\":8067:8084  is_sell(from, to) */\n      jump\t// in\n    tag_193:\n        /* \"contracts/Copy_oatfinally.sol\":8067:8095  is_sell(from, to) && !inSwap */\n      dup1\n      iszero\n      tag_195\n      jumpi\n      pop\n        /* \"contracts/Copy_oatfinally.sol\":8089:8095  inSwap */\n      sload(0x08)\n      shl(0xa0, 0x01)\n      swap1\n      div\n      0xff\n      and\n        /* \"contracts/Copy_oatfinally.sol\":8088:8095  !inSwap */\n      iszero\n        /* \"contracts/Copy_oatfinally.sol\":8067:8095  is_sell(from, to) && !inSwap */\n    tag_195:\n        /* \"contracts/Copy_oatfinally.sol\":8063:8300  if (is_sell(from, to) && !inSwap) {... */\n      iszero\n      tag_196\n      jumpi\n        /* \"contracts/Copy_oatfinally.sol\":8160:8164  this */\n      address\n        /* \"contracts/Copy_oatfinally.sol\":8111:8139  uint256 contractTokenBalance */\n      0x00\n        /* \"contracts/Copy_oatfinally.sol\":4747:4763  balance[account] */\n      swap1\n      dup2\n      mstore\n        /* \"contracts/Copy_oatfinally.sol\":4747:4754  balance */\n      0x04\n        /* \"contracts/Copy_oatfinally.sol\":4747:4763  balance[account] */\n      0x20\n      mstore\n      0x40\n      swap1\n      keccak256\n      sload\n        /* \"contracts/Copy_oatfinally.sol\":8208:8221  swapThreshold */\n      sload(0x05)\n        /* \"contracts/Copy_oatfinally.sol\":8184:8221  contractTokenBalance >= swapThreshold */\n      dup2\n      lt\n        /* \"contracts/Copy_oatfinally.sol\":8180:8290  if (contractTokenBalance >= swapThreshold) {... */\n      tag_199\n      jumpi\n        /* \"contracts/Copy_oatfinally.sol\":8241:8275  internalSwap(contractTokenBalance) */\n      tag_199\n        /* \"contracts/Copy_oatfinally.sol\":8254:8274  contractTokenBalance */\n      dup2\n        /* \"contracts/Copy_oatfinally.sol\":8241:8253  internalSwap */\n      tag_200\n        /* \"contracts/Copy_oatfinally.sol\":8241:8275  internalSwap(contractTokenBalance) */\n      jump\t// in\n    tag_199:\n        /* \"contracts/Copy_oatfinally.sol\":8097:8300  {... */\n      pop\n        /* \"contracts/Copy_oatfinally.sol\":8063:8300  if (is_sell(from, to) && !inSwap) {... */\n    tag_196:\n      sub(shl(0xa0, 0x01), 0x01)\n        /* \"contracts/Copy_oatfinally.sol\":8314:8326  _noFee[from] */\n      dup6\n      and\n      0x00\n      swap1\n      dup2\n      mstore\n        /* \"contracts/Copy_oatfinally.sol\":8314:8320  _noFee */\n      0x02\n        /* \"contracts/Copy_oatfinally.sol\":8314:8326  _noFee[from] */\n      0x20\n      mstore\n      0x40\n      swap1\n      keccak256\n      sload\n      0xff\n      and\n      dup1\n        /* \"contracts/Copy_oatfinally.sol\":8314:8340  _noFee[from] || _noFee[to] */\n      tag_201\n      jumpi\n      pop\n      sub(shl(0xa0, 0x01), 0x01)\n        /* \"contracts/Copy_oatfinally.sol\":8330:8340  _noFee[to] */\n      dup5\n      and\n      0x00\n      swap1\n      dup2\n      mstore\n        /* \"contracts/Copy_oatfinally.sol\":8330:8336  _noFee */\n      0x02\n        /* \"contracts/Copy_oatfinally.sol\":8330:8340  _noFee[to] */\n      0x20\n      mstore\n      0x40\n      swap1\n      keccak256\n      sload\n      0xff\n      and\n        /* \"contracts/Copy_oatfinally.sol\":8314:8340  _noFee[from] || _noFee[to] */\n    tag_201:\n        /* \"contracts/Copy_oatfinally.sol\":8310:8382  if (_noFee[from] || _noFee[to]) {... */\n      iszero\n      tag_202\n      jumpi\n      pop\n        /* \"contracts/Copy_oatfinally.sol\":8366:8371  false */\n      0x00\n        /* \"contracts/Copy_oatfinally.sol\":8310:8382  if (_noFee[from] || _noFee[to]) {... */\n    tag_202:\n      sub(shl(0xa0, 0x01), 0x01)\n        /* \"contracts/Copy_oatfinally.sol\":8391:8404  balance[from] */\n      dup6\n      and\n      0x00\n      swap1\n      dup2\n      mstore\n        /* \"contracts/Copy_oatfinally.sol\":8391:8398  balance */\n      0x04\n        /* \"contracts/Copy_oatfinally.sol\":8391:8404  balance[from] */\n      0x20\n      mstore\n      0x40\n      dup2\n      keccak256\n        /* \"contracts/Copy_oatfinally.sol\":8391:8414  balance[from] -= amount */\n      dup1\n      sload\n        /* \"contracts/Copy_oatfinally.sol\":8408:8414  amount */\n      dup6\n      swap3\n        /* \"contracts/Copy_oatfinally.sol\":8391:8404  balance[from] */\n      swap1\n        /* \"contracts/Copy_oatfinally.sol\":8391:8414  balance[from] -= amount */\n      tag_203\n      swap1\n        /* \"contracts/Copy_oatfinally.sol\":8408:8414  amount */\n      dup5\n      swap1\n        /* \"contracts/Copy_oatfinally.sol\":8391:8414  balance[from] -= amount */\n      tag_143\n      jump\t// in\n    tag_203:\n      swap1\n      swap2\n      sstore\n      pop\n        /* \"contracts/Copy_oatfinally.sol\":8424:8446  uint256 amountAfterFee */\n      0x00\n      swap1\n      pop\n        /* \"contracts/Copy_oatfinally.sol\":8450:8457  takeFee */\n      dup2\n        /* \"contracts/Copy_oatfinally.sol\":8449:8536  (takeFee)... */\n      tag_204\n      jumpi\n        /* \"contracts/Copy_oatfinally.sol\":8530:8536  amount */\n      dup4\n        /* \"contracts/Copy_oatfinally.sol\":8449:8536  (takeFee)... */\n      jump(tag_206)\n    tag_204:\n        /* \"contracts/Copy_oatfinally.sol\":8473:8515  takeTaxes(from, is_sell(from, to), amount) */\n      tag_206\n        /* \"contracts/Copy_oatfinally.sol\":8483:8487  from */\n      dup7\n        /* \"contracts/Copy_oatfinally.sol\":8489:8506  is_sell(from, to) */\n      tag_207\n        /* \"contracts/Copy_oatfinally.sol\":8497:8501  from */\n      dup9\n        /* \"contracts/Copy_oatfinally.sol\":8503:8505  to */\n      dup9\n        /* \"contracts/Copy_oatfinally.sol\":8489:8496  is_sell */\n      tag_194\n        /* \"contracts/Copy_oatfinally.sol\":8489:8506  is_sell(from, to) */\n      jump\t// in\n    tag_207:\n        /* \"contracts/Copy_oatfinally.sol\":8508:8514  amount */\n      dup7\n        /* \"contracts/Copy_oatfinally.sol\":8473:8482  takeTaxes */\n      tag_208\n        /* \"contracts/Copy_oatfinally.sol\":8473:8515  takeTaxes(from, is_sell(from, to), amount) */\n      jump\t// in\n    tag_206:\n      sub(shl(0xa0, 0x01), 0x01)\n        /* \"contracts/Copy_oatfinally.sol\":8546:8557  balance[to] */\n      dup7\n      and\n      0x00\n      swap1\n      dup2\n      mstore\n        /* \"contracts/Copy_oatfinally.sol\":8546:8553  balance */\n      0x04\n        /* \"contracts/Copy_oatfinally.sol\":8546:8557  balance[to] */\n      0x20\n      mstore\n      0x40\n      dup2\n      keccak256\n        /* \"contracts/Copy_oatfinally.sol\":8546:8575  balance[to] += amountAfterFee */\n      dup1\n      sload\n        /* \"contracts/Copy_oatfinally.sol\":8424:8536  uint256 amountAfterFee = (takeFee)... */\n      swap3\n      swap4\n      pop\n      dup4\n      swap3\n        /* \"contracts/Copy_oatfinally.sol\":8546:8557  balance[to] */\n      swap1\n      swap2\n      swap1\n        /* \"contracts/Copy_oatfinally.sol\":8546:8575  balance[to] += amountAfterFee */\n      tag_209\n      swap1\n        /* \"contracts/Copy_oatfinally.sol\":8424:8536  uint256 amountAfterFee = (takeFee)... */\n      dup5\n      swap1\n        /* \"contracts/Copy_oatfinally.sol\":8546:8575  balance[to] += amountAfterFee */\n      tag_210\n      jump\t// in\n    tag_209:\n      swap3\n      pop\n      pop\n      dup2\n      swap1\n      sstore\n      pop\n        /* \"contracts/Copy_oatfinally.sol\":8605:8607  to */\n      dup5\n      sub(shl(0xa0, 0x01), 0x01)\n        /* \"contracts/Copy_oatfinally.sol\":8590:8624  Transfer(from, to, amountAfterFee) */\n      and\n        /* \"contracts/Copy_oatfinally.sol\":8599:8603  from */\n      dup7\n      sub(shl(0xa0, 0x01), 0x01)\n        /* \"contracts/Copy_oatfinally.sol\":8590:8624  Transfer(from, to, amountAfterFee) */\n      and\n      0xddf252ad1be2c89b69c2b068fc378daa952ba7f163c4a11628f55a4df523b3ef\n        /* \"contracts/Copy_oatfinally.sol\":8609:8623  amountAfterFee */\n      dup4\n        /* \"contracts/Copy_oatfinally.sol\":8590:8624  Transfer(from, to, amountAfterFee) */\n      mload(0x40)\n      tag_211\n      swap2\n        /* \"#utility.yul\":160:185   */\n      dup2\n      mstore\n        /* \"#utility.yul\":148:150   */\n      0x20\n        /* \"#utility.yul\":133:151   */\n      add\n      swap1\n        /* \"#utility.yul\":14:191   */\n      jump\n        /* \"contracts/Copy_oatfinally.sol\":8590:8624  Transfer(from, to, amountAfterFee) */\n    tag_211:\n      mload(0x40)\n      dup1\n      swap2\n      sub\n      swap1\n      log3\n      pop\n        /* \"contracts/Copy_oatfinally.sol\":8642:8646  true */\n      0x01\n      swap6\n        /* \"contracts/Copy_oatfinally.sol\":7682:8653  function _transfer(... */\n      swap5\n      pop\n      pop\n      pop\n      pop\n      pop\n      jump\t// out\n        /* \"@openzeppelin/contracts/access/Ownable.sol\":1359:1489  function _checkOwner() internal view virtual {... */\n    tag_151:\n        /* \"@openzeppelin/contracts/access/Ownable.sol\":1247:1254  address */\n      0x00\n        /* \"@openzeppelin/contracts/access/Ownable.sol\":1273:1279  _owner */\n      sload\n      sub(shl(0xa0, 0x01), 0x01)\n      and\n        /* \"@openzeppelin/contracts/utils/Context.sol\":719:729  msg.sender */\n      caller\n        /* \"@openzeppelin/contracts/access/Ownable.sol\":1422:1445  owner() == _msgSender() */\n      eq\n        /* \"@openzeppelin/contracts/access/Ownable.sol\":1414:1482  require(owner() == _msgSender(), \"Ownable: caller is not the owner\") */\n      tag_161\n      jumpi\n      mload(0x40)\n      shl(0xe5, 0x461bcd)\n      dup2\n      mstore\n        /* \"#utility.yul\":6238:6240   */\n      0x20\n        /* \"@openzeppelin/contracts/access/Ownable.sol\":1414:1482  require(owner() == _msgSender(), \"Ownable: caller is not the owner\") */\n      0x04\n      dup3\n      add\n        /* \"#utility.yul\":6220:6241   */\n      dup2\n      swap1\n      mstore\n        /* \"#utility.yul\":6257:6275   */\n      0x24\n      dup3\n      add\n        /* \"#utility.yul\":6250:6280   */\n      mstore\n        /* \"#utility.yul\":6316:6350   */\n      0x4f776e61626c653a2063616c6c6572206973206e6f7420746865206f776e6572\n        /* \"#utility.yul\":6296:6314   */\n      0x44\n      dup3\n      add\n        /* \"#utility.yul\":6289:6351   */\n      mstore\n        /* \"#utility.yul\":6368:6386   */\n      0x64\n      add\n        /* \"@openzeppelin/contracts/access/Ownable.sol\":1414:1482  require(owner() == _msgSender(), \"Ownable: caller is not the owner\") */\n      tag_154\n        /* \"#utility.yul\":6036:6392   */\n      jump\n        /* \"@openzeppelin/contracts/access/Ownable.sol\":2426:2613  function _transferOwnership(address newOwner) internal virtual {... */\n    tag_162:\n        /* \"@openzeppelin/contracts/access/Ownable.sol\":2499:2515  address oldOwner */\n      0x00\n        /* \"@openzeppelin/contracts/access/Ownable.sol\":2518:2524  _owner */\n      dup1\n      sload\n      sub(shl(0xa0, 0x01), 0x01)\n        /* \"@openzeppelin/contracts/access/Ownable.sol\":2534:2551  _owner = newOwner */\n      dup4\n      dup2\n      and\n      not(sub(shl(0xa0, 0x01), 0x01))\n      dup4\n      and\n      dup2\n      or\n      dup5\n      sstore\n        /* \"@openzeppelin/contracts/access/Ownable.sol\":2566:2606  OwnershipTransferred(oldOwner, newOwner) */\n      mload(0x40)\n        /* \"@openzeppelin/contracts/access/Ownable.sol\":2518:2524  _owner */\n      swap2\n      swap1\n      swap3\n      and\n      swap3\n      dup4\n      swap2\n        /* \"@openzeppelin/contracts/access/Ownable.sol\":2566:2606  OwnershipTransferred(oldOwner, newOwner) */\n      0x8be0079c531659141344cd1fd0a4f28419497f9722a3daafe3b4186f6b6457e0\n      swap2\n        /* \"@openzeppelin/contracts/access/Ownable.sol\":2499:2515  address oldOwner */\n      swap1\n        /* \"@openzeppelin/contracts/access/Ownable.sol\":2566:2606  OwnershipTransferred(oldOwner, newOwner) */\n      log3\n        /* \"@openzeppelin/contracts/access/Ownable.sol\":2489:2613  {... */\n      pop\n        /* \"@openzeppelin/contracts/access/Ownable.sol\":2426:2613  function _transferOwnership(address newOwner) internal virtual {... */\n      pop\n      jump\t// out\n        /* \"contracts/Copy_oatfinally.sol\":7515:7676  function is_sell(address ins, address out) internal view returns (bool) {... */\n    tag_194:\n      sub(shl(0xa0, 0x01), 0x01)\n        /* \"contracts/Copy_oatfinally.sol\":7613:7626  isLpPair[out] */\n      dup2\n      and\n        /* \"contracts/Copy_oatfinally.sol\":7581:7585  bool */\n      0x00\n        /* \"contracts/Copy_oatfinally.sol\":7613:7626  isLpPair[out] */\n      swap1\n      dup2\n      mstore\n        /* \"contracts/Copy_oatfinally.sol\":7613:7621  isLpPair */\n      0x03\n        /* \"contracts/Copy_oatfinally.sol\":7613:7626  isLpPair[out] */\n      0x20\n      mstore\n      0x40\n      dup2\n      keccak256\n      sload\n        /* \"contracts/Copy_oatfinally.sol\":7581:7585  bool */\n      dup2\n      swap1\n        /* \"contracts/Copy_oatfinally.sol\":7613:7626  isLpPair[out] */\n      0xff\n      and\n        /* \"contracts/Copy_oatfinally.sol\":7613:7644  isLpPair[out] && !isLpPair[ins] */\n      dup1\n      iszero\n      tag_221\n      jumpi\n      pop\n      sub(shl(0xa0, 0x01), 0x01)\n        /* \"contracts/Copy_oatfinally.sol\":7631:7644  isLpPair[ins] */\n      dup5\n      and\n      0x00\n      swap1\n      dup2\n      mstore\n        /* \"contracts/Copy_oatfinally.sol\":7631:7639  isLpPair */\n      0x03\n        /* \"contracts/Copy_oatfinally.sol\":7631:7644  isLpPair[ins] */\n      0x20\n      mstore\n      0x40\n      swap1\n      keccak256\n      sload\n      0xff\n      and\n        /* \"contracts/Copy_oatfinally.sol\":7630:7644  !isLpPair[ins] */\n      iszero\n        /* \"contracts/Copy_oatfinally.sol\":7613:7644  isLpPair[out] && !isLpPair[ins] */\n    tag_221:\n        /* \"contracts/Copy_oatfinally.sol\":7597:7644  bool _is_sell = isLpPair[out] && !isLpPair[ins] */\n      swap5\n        /* \"contracts/Copy_oatfinally.sol\":7515:7676  function is_sell(address ins, address out) internal view returns (bool) {... */\n      swap4\n      pop\n      pop\n      pop\n      pop\n      jump\t// out\n        /* \"contracts/Copy_oatfinally.sol\":9133:9962  function internalSwap(uint256 contractTokenBalance) internal inSwapFlag {... */\n    tag_200:\n        /* \"contracts/Copy_oatfinally.sol\":5658:5664  inSwap */\n      0x08\n        /* \"contracts/Copy_oatfinally.sol\":5658:5671  inSwap = true */\n      dup1\n      sload\n      not(shl(0xa0, 0xff))\n      and\n      shl(0xa0, 0x01)\n      or\n      swap1\n      sstore\n        /* \"contracts/Copy_oatfinally.sol\":9239:9255  new address[](2) */\n      0x40\n      dup1\n      mload\n        /* \"contracts/Copy_oatfinally.sol\":9253:9254  2 */\n      0x02\n        /* \"contracts/Copy_oatfinally.sol\":9239:9255  new address[](2) */\n      dup1\n      dup3\n      mstore\n      0x60\n      dup3\n      add\n      dup4\n      mstore\n      0x00\n      swap3\n      0x20\n      dup4\n      add\n      swap1\n      dup1\n      calldatasize\n      dup4\n      calldatacopy\n      add\n      swap1\n      pop\n      pop\n        /* \"contracts/Copy_oatfinally.sol\":9215:9255  address[] memory path = new address[](2) */\n      swap1\n      pop\n        /* \"contracts/Copy_oatfinally.sol\":9283:9287  this */\n      address\n        /* \"contracts/Copy_oatfinally.sol\":9265:9269  path */\n      dup2\n        /* \"contracts/Copy_oatfinally.sol\":9270:9271  0 */\n      0x00\n        /* \"contracts/Copy_oatfinally.sol\":9265:9272  path[0] */\n      dup2\n      mload\n      dup2\n      lt\n      tag_229\n      jumpi\n      tag_229\n      tag_230\n      jump\t// in\n    tag_229:\n      sub(shl(0xa0, 0x01), 0x01)\n        /* \"contracts/Copy_oatfinally.sol\":9265:9288  path[0] = address(this) */\n      swap3\n      dup4\n      and\n        /* \"contracts/Copy_oatfinally.sol\":9265:9272  path[0] */\n      0x20\n      swap2\n      dup3\n      mul\n      swap3\n      swap1\n      swap3\n      add\n      dup2\n      add\n        /* \"contracts/Copy_oatfinally.sol\":9265:9288  path[0] = address(this) */\n      swap2\n      swap1\n      swap2\n      mstore\n        /* \"contracts/Copy_oatfinally.sol\":9308:9318  swapRouter */\n      sload(0x07)\n        /* \"contracts/Copy_oatfinally.sol\":9308:9325  swapRouter.WETH() */\n      0x40\n      dup1\n      mload\n      shl(0xe3, 0x15ab88c9)\n      dup2\n      mstore\n      swap1\n      mload\n        /* \"contracts/Copy_oatfinally.sol\":9308:9318  swapRouter */\n      swap2\n      swap1\n      swap4\n      and\n      swap3\n        /* \"contracts/Copy_oatfinally.sol\":9308:9323  swapRouter.WETH */\n      0xad5c4648\n      swap3\n        /* \"contracts/Copy_oatfinally.sol\":9308:9325  swapRouter.WETH() */\n      0x04\n      dup1\n      dup4\n      add\n      swap4\n        /* \"contracts/Copy_oatfinally.sol\":9265:9272  path[0] */\n      swap2\n      swap3\n        /* \"contracts/Copy_oatfinally.sol\":9308:9325  swapRouter.WETH() */\n      dup3\n      swap1\n      sub\n      add\n      dup2\n        /* \"contracts/Copy_oatfinally.sol\":9308:9318  swapRouter */\n      dup7\n        /* \"contracts/Copy_oatfinally.sol\":9308:9325  swapRouter.WETH() */\n      gas\n      staticcall\n      iszero\n      dup1\n      iszero\n      tag_232\n      jumpi\n      returndatasize\n      0x00\n      dup1\n      returndatacopy\n      revert(0x00, returndatasize)\n    tag_232:\n      pop\n      pop\n      pop\n      pop\n      mload(0x40)\n      returndatasize\n      not(0x1f)\n      0x1f\n      dup3\n      add\n      and\n      dup3\n      add\n      dup1\n      0x40\n      mstore\n      pop\n      dup2\n      add\n      swap1\n      tag_233\n      swap2\n      swap1\n      tag_234\n      jump\t// in\n    tag_233:\n        /* \"contracts/Copy_oatfinally.sol\":9298:9302  path */\n      dup2\n        /* \"contracts/Copy_oatfinally.sol\":9303:9304  1 */\n      0x01\n        /* \"contracts/Copy_oatfinally.sol\":9298:9305  path[1] */\n      dup2\n      mload\n      dup2\n      lt\n      tag_236\n      jumpi\n      tag_236\n      tag_230\n      jump\t// in\n    tag_236:\n      sub(shl(0xa0, 0x01), 0x01)\n        /* \"contracts/Copy_oatfinally.sol\":9298:9325  path[1] = swapRouter.WETH() */\n      swap3\n      dup4\n      and\n        /* \"contracts/Copy_oatfinally.sol\":9298:9305  path[1] */\n      0x20\n      swap2\n      dup3\n      mul\n      swap3\n      swap1\n      swap3\n      add\n      dup2\n      add\n        /* \"contracts/Copy_oatfinally.sol\":9298:9325  path[1] = swapRouter.WETH() */\n      swap2\n      swap1\n      swap2\n      mstore\n        /* \"contracts/Copy_oatfinally.sol\":9373:9377  this */\n      address\n        /* \"contracts/Copy_oatfinally.sol\":9353:9379  _allowances[address(this)] */\n      0x00\n      swap1\n      dup2\n      mstore\n        /* \"contracts/Copy_oatfinally.sol\":9353:9364  _allowances */\n      0x01\n        /* \"contracts/Copy_oatfinally.sol\":9353:9379  _allowances[address(this)] */\n      dup3\n      mstore\n      0x40\n      dup1\n      dup3\n      keccak256\n        /* \"contracts/Copy_oatfinally.sol\":9388:9398  swapRouter */\n      sload(0x07)\n      swap1\n      swap5\n      and\n        /* \"contracts/Copy_oatfinally.sol\":9353:9400  _allowances[address(this)][address(swapRouter)] */\n      dup3\n      mstore\n      swap3\n      swap1\n      swap2\n      mstore\n      keccak256\n      sload\n      not(0x00)\n        /* \"contracts/Copy_oatfinally.sol\":9353:9421  _allowances[address(this)][address(swapRouter)] != type(uint256).max */\n      eq\n        /* \"contracts/Copy_oatfinally.sol\":9336:9524  if (... */\n      tag_237\n      jumpi\n        /* \"contracts/Copy_oatfinally.sol\":9466:9470  this */\n      address\n        /* \"contracts/Copy_oatfinally.sol\":9446:9472  _allowances[address(this)] */\n      0x00\n      swap1\n      dup2\n      mstore\n        /* \"contracts/Copy_oatfinally.sol\":9446:9457  _allowances */\n      0x01\n        /* \"contracts/Copy_oatfinally.sol\":9446:9472  _allowances[address(this)] */\n      0x20\n      swap1\n      dup2\n      mstore\n      0x40\n      dup1\n      dup4\n      keccak256\n        /* \"contracts/Copy_oatfinally.sol\":9481:9491  swapRouter */\n      and(sub(shl(0xa0, 0x01), 0x01), sload(0x07))\n        /* \"contracts/Copy_oatfinally.sol\":9446:9493  _allowances[address(this)][address(swapRouter)] */\n      dup5\n      mstore\n      swap1\n      swap2\n      mstore\n      swap1\n      keccak256\n      not(0x00)\n        /* \"contracts/Copy_oatfinally.sol\":9446:9513  _allowances[address(this)][address(swapRouter)] = type(uint256).max */\n      swap1\n      sstore\n        /* \"contracts/Copy_oatfinally.sol\":9336:9524  if (... */\n    tag_237:\n        /* \"contracts/Copy_oatfinally.sol\":9550:9560  swapRouter */\n      sload(0x07)\n        /* \"contracts/Copy_oatfinally.sol\":9550:9768  swapRouter.swapExactTokensForETHSupportingFeeOnTransferTokens(... */\n      mload(0x40)\n      shl(0xe0, 0x791ac947)\n      dup2\n      mstore\n      sub(shl(0xa0, 0x01), 0x01)\n        /* \"contracts/Copy_oatfinally.sol\":9550:9560  swapRouter */\n      swap1\n      swap2\n      and\n      swap1\n        /* \"contracts/Copy_oatfinally.sol\":9550:9611  swapRouter.swapExactTokensForETHSupportingFeeOnTransferTokens */\n      0x791ac947\n      swap1\n        /* \"contracts/Copy_oatfinally.sol\":9550:9768  swapRouter.swapExactTokensForETHSupportingFeeOnTransferTokens(... */\n      tag_238\n      swap1\n        /* \"contracts/Copy_oatfinally.sol\":9629:9649  contractTokenBalance */\n      dup6\n      swap1\n        /* \"contracts/Copy_oatfinally.sol\":9550:9560  swapRouter */\n      0x00\n      swap1\n        /* \"contracts/Copy_oatfinally.sol\":9686:9690  path */\n      dup7\n      swap1\n        /* \"contracts/Copy_oatfinally.sol\":9716:9720  this */\n      address\n      swap1\n        /* \"contracts/Copy_oatfinally.sol\":9739:9754  block.timestamp */\n      timestamp\n      swap1\n        /* \"contracts/Copy_oatfinally.sol\":9550:9768  swapRouter.swapExactTokensForETHSupportingFeeOnTransferTokens(... */\n      0x04\n      add\n      tag_239\n      jump\t// in\n    tag_238:\n      0x00\n      mload(0x40)\n      dup1\n      dup4\n      sub\n      dup2\n      0x00\n      dup8\n      dup1\n      extcodesize\n      iszero\n      dup1\n      iszero\n      tag_240\n      jumpi\n      0x00\n      dup1\n      revert\n    tag_240:\n      pop\n      gas\n      call\n      swap3\n      pop\n      pop\n      pop\n      dup1\n      iszero\n      tag_241\n      jumpi\n      pop\n      0x01\n    tag_241:\n        /* \"contracts/Copy_oatfinally.sol\":9534:9817  try... */\n      tag_242\n      jumpi\n        /* \"contracts/Copy_oatfinally.sol\":9800:9807  return; */\n      pop\n      jump(tag_223)\n        /* \"contracts/Copy_oatfinally.sol\":9534:9817  try... */\n    tag_242:\n        /* \"contracts/Copy_oatfinally.sol\":9826:9838  bool success */\n      0x00\n        /* \"contracts/Copy_oatfinally.sol\":9853:9874  address(this).balance */\n      selfbalance\n        /* \"contracts/Copy_oatfinally.sol\":9853:9878  address(this).balance > 0 */\n      iszero\n        /* \"contracts/Copy_oatfinally.sol\":9849:9955  if (address(this).balance > 0)... */\n      tag_247\n      jumpi\n        /* \"contracts/Copy_oatfinally.sol\":9906:9916  oatAddress */\n      sload(0x06)\n        /* \"contracts/Copy_oatfinally.sol\":9906:9955  oatAddress.call{value: address(this).balance}(\"\") */\n      mload(0x40)\n      sub(shl(0xa0, 0x01), 0x01)\n        /* \"contracts/Copy_oatfinally.sol\":9906:9916  oatAddress */\n      swap1\n      swap2\n      and\n      swap1\n        /* \"contracts/Copy_oatfinally.sol\":9929:9950  address(this).balance */\n      selfbalance\n      swap1\n        /* \"contracts/Copy_oatfinally.sol\":9906:9955  oatAddress.call{value: address(this).balance}(\"\") */\n      0x00\n      dup2\n      dup2\n      dup2\n        /* \"contracts/Copy_oatfinally.sol\":9929:9950  address(this).balance */\n      dup6\n        /* \"contracts/Copy_oatfinally.sol\":9906:9916  oatAddress */\n      dup8\n        /* \"contracts/Copy_oatfinally.sol\":9906:9955  oatAddress.call{value: address(this).balance}(\"\") */\n      gas\n      call\n      swap3\n      pop\n      pop\n      pop\n      returndatasize\n      dup1\n      0x00\n      dup2\n      eq\n      tag_252\n      jumpi\n      mload(0x40)\n      swap2\n      pop\n      and(add(returndatasize, 0x3f), not(0x1f))\n      dup3\n      add\n      0x40\n      mstore\n      returndatasize\n      dup3\n      mstore\n      returndatasize\n      0x00\n      0x20\n      dup5\n      add\n      returndatacopy\n      jump(tag_251)\n    tag_252:\n      0x60\n      swap2\n      pop\n    tag_251:\n      pop\n        /* \"contracts/Copy_oatfinally.sol\":9892:9955  (success, ) = oatAddress.call{value: address(this).balance}(\"\") */\n      swap1\n      swap2\n      pop\n      pop\n        /* \"contracts/Copy_oatfinally.sol\":9849:9955  if (address(this).balance > 0)... */\n    tag_247:\n        /* \"contracts/Copy_oatfinally.sol\":9205:9962  {... */\n      pop\n      pop\n        /* \"contracts/Copy_oatfinally.sol\":5681:5682  _ */\n    tag_223:\n      pop\n        /* \"contracts/Copy_oatfinally.sol\":5692:5698  inSwap */\n      0x08\n        /* \"contracts/Copy_oatfinally.sol\":5692:5706  inSwap = false */\n      dup1\n      sload\n      not(shl(0xa0, 0xff))\n      and\n      swap1\n      sstore\n        /* \"contracts/Copy_oatfinally.sol\":9133:9962  function internalSwap(uint256 contractTokenBalance) internal inSwapFlag {... */\n      jump\t// out\n        /* \"contracts/Copy_oatfinally.sol\":8659:9127  function takeTaxes(... */\n    tag_208:\n        /* \"contracts/Copy_oatfinally.sol\":8769:8776  uint256 */\n      0x00\n      dup1\n        /* \"contracts/Copy_oatfinally.sol\":8813:8838  if (issell) fee = sellfee */\n      dup4\n      iszero\n      tag_254\n      jumpi\n      pop\n        /* \"contracts/Copy_oatfinally.sol\":5133:5134  2 */\n      0x02\n        /* \"contracts/Copy_oatfinally.sol\":8813:8838  if (issell) fee = sellfee */\n    tag_254:\n        /* \"contracts/Copy_oatfinally.sol\":8852:8855  fee */\n      dup1\n        /* \"contracts/Copy_oatfinally.sol\":8859:8860  0 */\n      0x00\n        /* \"contracts/Copy_oatfinally.sol\":8852:8860  fee == 0 */\n      sub\n        /* \"contracts/Copy_oatfinally.sol\":8848:8875  if (fee == 0) return amount */\n      tag_255\n      jumpi\n        /* \"contracts/Copy_oatfinally.sol\":8869:8875  amount */\n      dup3\n        /* \"contracts/Copy_oatfinally.sol\":8862:8875  return amount */\n      swap2\n      pop\n      pop\n      jump(tag_140)\n        /* \"contracts/Copy_oatfinally.sol\":8848:8875  if (fee == 0) return amount */\n    tag_255:\n        /* \"contracts/Copy_oatfinally.sol\":8886:8903  uint256 feeAmount */\n      0x00\n        /* \"contracts/Copy_oatfinally.sol\":5182:5185  100 */\n      0x64\n        /* \"contracts/Copy_oatfinally.sol\":8907:8919  amount * fee */\n      tag_256\n        /* \"contracts/Copy_oatfinally.sol\":8916:8919  fee */\n      dup4\n        /* \"contracts/Copy_oatfinally.sol\":8907:8913  amount */\n      dup7\n        /* \"contracts/Copy_oatfinally.sol\":8907:8919  amount * fee */\n      tag_257\n      jump\t// in\n    tag_256:\n        /* \"contracts/Copy_oatfinally.sol\":8906:8938  (amount * fee) / fee_denominator */\n      tag_258\n      swap2\n      swap1\n      tag_259\n      jump\t// in\n    tag_258:\n        /* \"contracts/Copy_oatfinally.sol\":8886:8938  uint256 feeAmount = (amount * fee) / fee_denominator */\n      swap1\n      pop\n        /* \"contracts/Copy_oatfinally.sol\":8952:8965  feeAmount > 0 */\n      dup1\n      iszero\n        /* \"contracts/Copy_oatfinally.sol\":8948:9086  if (feeAmount > 0) {... */\n      tag_260\n      jumpi\n        /* \"contracts/Copy_oatfinally.sol\":8997:9001  this */\n      address\n        /* \"contracts/Copy_oatfinally.sol\":8981:9003  balance[address(this)] */\n      0x00\n      swap1\n      dup2\n      mstore\n        /* \"contracts/Copy_oatfinally.sol\":8981:8988  balance */\n      0x04\n        /* \"contracts/Copy_oatfinally.sol\":8981:9003  balance[address(this)] */\n      0x20\n      mstore\n      0x40\n      dup2\n      keccak256\n        /* \"contracts/Copy_oatfinally.sol\":8981:9016  balance[address(this)] += feeAmount */\n      dup1\n      sload\n        /* \"contracts/Copy_oatfinally.sol\":9007:9016  feeAmount */\n      dup4\n      swap3\n        /* \"contracts/Copy_oatfinally.sol\":8981:9003  balance[address(this)] */\n      swap1\n        /* \"contracts/Copy_oatfinally.sol\":8981:9016  balance[address(this)] += feeAmount */\n      tag_261\n      swap1\n        /* \"contracts/Copy_oatfinally.sol\":9007:9016  feeAmount */\n      dup5\n      swap1\n        /* \"contracts/Copy_oatfinally.sol\":8981:9016  balance[address(this)] += feeAmount */\n      tag_210\n      jump\t// in\n    tag_261:\n      swap1\n      swap2\n      sstore\n      pop\n      pop\n        /* \"contracts/Copy_oatfinally.sol\":9035:9075  Transfer(from, address(this), feeAmount) */\n      mload(0x40)\n        /* \"#utility.yul\":160:185   */\n      dup2\n      dup2\n      mstore\n        /* \"contracts/Copy_oatfinally.sol\":9058:9062  this */\n      address\n      swap1\n      sub(shl(0xa0, 0x01), 0x01)\n        /* \"contracts/Copy_oatfinally.sol\":9035:9075  Transfer(from, address(this), feeAmount) */\n      dup9\n      and\n      swap1\n      0xddf252ad1be2c89b69c2b068fc378daa952ba7f163c4a11628f55a4df523b3ef\n      swap1\n        /* \"#utility.yul\":148:150   */\n      0x20\n        /* \"#utility.yul\":133:151   */\n      add\n        /* \"contracts/Copy_oatfinally.sol\":9035:9075  Transfer(from, address(this), feeAmount) */\n      mload(0x40)\n      dup1\n      swap2\n      sub\n      swap1\n      log3\n        /* \"contracts/Copy_oatfinally.sol\":8948:9086  if (feeAmount > 0) {... */\n    tag_260:\n        /* \"contracts/Copy_oatfinally.sol\":9102:9120  amount - feeAmount */\n      tag_263\n        /* \"contracts/Copy_oatfinally.sol\":9111:9120  feeAmount */\n      dup2\n        /* \"contracts/Copy_oatfinally.sol\":9102:9108  amount */\n      dup6\n        /* \"contracts/Copy_oatfinally.sol\":9102:9120  amount - feeAmount */\n      tag_143\n      jump\t// in\n    tag_263:\n        /* \"contracts/Copy_oatfinally.sol\":9095:9120  return amount - feeAmount */\n      swap7\n        /* \"contracts/Copy_oatfinally.sol\":8659:9127  function takeTaxes(... */\n      swap6\n      pop\n      pop\n      pop\n      pop\n      pop\n      pop\n      jump\t// out\n        /* \"#utility.yul\":196:744   */\n    tag_39:\n        /* \"#utility.yul\":308:312   */\n      0x00\n        /* \"#utility.yul\":337:339   */\n      0x20\n        /* \"#utility.yul\":366:368   */\n      dup1\n        /* \"#utility.yul\":355:364   */\n      dup4\n        /* \"#utility.yul\":348:369   */\n      mstore\n        /* \"#utility.yul\":398:404   */\n      dup4\n        /* \"#utility.yul\":392:405   */\n      mload\n        /* \"#utility.yul\":441:447   */\n      dup1\n        /* \"#utility.yul\":436:438   */\n      dup3\n        /* \"#utility.yul\":425:434   */\n      dup6\n        /* \"#utility.yul\":421:439   */\n      add\n        /* \"#utility.yul\":414:448   */\n      mstore\n        /* \"#utility.yul\":466:467   */\n      0x00\n        /* \"#utility.yul\":476:616   */\n    tag_270:\n        /* \"#utility.yul\":490:496   */\n      dup2\n        /* \"#utility.yul\":487:488   */\n      dup2\n        /* \"#utility.yul\":484:497   */\n      lt\n        /* \"#utility.yul\":476:616   */\n      iszero\n      tag_272\n      jumpi\n        /* \"#utility.yul\":585:599   */\n      dup6\n      dup2\n      add\n        /* \"#utility.yul\":581:604   */\n      dup4\n      add\n        /* \"#utility.yul\":575:605   */\n      mload\n        /* \"#utility.yul\":551:568   */\n      dup6\n      dup3\n      add\n        /* \"#utility.yul\":570:572   */\n      0x40\n        /* \"#utility.yul\":547:573   */\n      add\n        /* \"#utility.yul\":540:606   */\n      mstore\n        /* \"#utility.yul\":505:515   */\n      dup3\n      add\n        /* \"#utility.yul\":476:616   */\n      jump(tag_270)\n    tag_272:\n        /* \"#utility.yul\":480:483   */\n      pop\n        /* \"#utility.yul\":665:666   */\n      0x00\n        /* \"#utility.yul\":660:662   */\n      0x40\n        /* \"#utility.yul\":651:657   */\n      dup3\n        /* \"#utility.yul\":640:649   */\n      dup7\n        /* \"#utility.yul\":636:658   */\n      add\n        /* \"#utility.yul\":632:663   */\n      add\n        /* \"#utility.yul\":625:667   */\n      mstore\n        /* \"#utility.yul\":735:737   */\n      0x40\n        /* \"#utility.yul\":728:730   */\n      0x1f\n        /* \"#utility.yul\":724:731   */\n      not\n        /* \"#utility.yul\":719:721   */\n      0x1f\n        /* \"#utility.yul\":711:717   */\n      dup4\n        /* \"#utility.yul\":707:722   */\n      add\n        /* \"#utility.yul\":703:732   */\n      and\n        /* \"#utility.yul\":692:701   */\n      dup6\n        /* \"#utility.yul\":688:733   */\n      add\n        /* \"#utility.yul\":684:738   */\n      add\n        /* \"#utility.yul\":676:738   */\n      swap3\n      pop\n      pop\n      pop\n        /* \"#utility.yul\":196:744   */\n      swap3\n      swap2\n      pop\n      pop\n      jump\t// out\n        /* \"#utility.yul\":749:880   */\n    tag_265:\n      sub(shl(0xa0, 0x01), 0x01)\n        /* \"#utility.yul\":824:855   */\n      dup2\n      and\n        /* \"#utility.yul\":814:856   */\n      dup2\n      eq\n        /* \"#utility.yul\":804:874   */\n      tag_176\n      jumpi\n        /* \"#utility.yul\":870:871   */\n      0x00\n        /* \"#utility.yul\":867:868   */\n      dup1\n        /* \"#utility.yul\":860:872   */\n      revert\n        /* \"#utility.yul\":885:1200   */\n    tag_43:\n        /* \"#utility.yul\":953:959   */\n      0x00\n        /* \"#utility.yul\":961:967   */\n      dup1\n        /* \"#utility.yul\":1014:1016   */\n      0x40\n        /* \"#utility.yul\":1002:1011   */\n      dup4\n        /* \"#utility.yul\":993:1000   */\n      dup6\n        /* \"#utility.yul\":989:1012   */\n      sub\n        /* \"#utility.yul\":985:1017   */\n      slt\n        /* \"#utility.yul\":982:1034   */\n      iszero\n      tag_276\n      jumpi\n        /* \"#utility.yul\":1030:1031   */\n      0x00\n        /* \"#utility.yul\":1027:1028   */\n      dup1\n        /* \"#utility.yul\":1020:1032   */\n      revert\n        /* \"#utility.yul\":982:1034   */\n    tag_276:\n        /* \"#utility.yul\":1069:1078   */\n      dup3\n        /* \"#utility.yul\":1056:1079   */\n      calldataload\n        /* \"#utility.yul\":1088:1119   */\n      tag_277\n        /* \"#utility.yul\":1113:1118   */\n      dup2\n        /* \"#utility.yul\":1088:1119   */\n      tag_265\n      jump\t// in\n    tag_277:\n        /* \"#utility.yul\":1138:1143   */\n      swap5\n        /* \"#utility.yul\":1190:1192   */\n      0x20\n        /* \"#utility.yul\":1175:1193   */\n      swap4\n      swap1\n      swap4\n      add\n        /* \"#utility.yul\":1162:1194   */\n      calldataload\n      swap4\n      pop\n      pop\n      pop\n        /* \"#utility.yul\":885:1200   */\n      jump\t// out\n        /* \"#utility.yul\":1397:1853   */\n    tag_54:\n        /* \"#utility.yul\":1474:1480   */\n      0x00\n        /* \"#utility.yul\":1482:1488   */\n      dup1\n        /* \"#utility.yul\":1490:1496   */\n      0x00\n        /* \"#utility.yul\":1543:1545   */\n      0x60\n        /* \"#utility.yul\":1531:1540   */\n      dup5\n        /* \"#utility.yul\":1522:1529   */\n      dup7\n        /* \"#utility.yul\":1518:1541   */\n      sub\n        /* \"#utility.yul\":1514:1546   */\n      slt\n        /* \"#utility.yul\":1511:1563   */\n      iszero\n      tag_280\n      jumpi\n        /* \"#utility.yul\":1559:1560   */\n      0x00\n        /* \"#utility.yul\":1556:1557   */\n      dup1\n        /* \"#utility.yul\":1549:1561   */\n      revert\n        /* \"#utility.yul\":1511:1563   */\n    tag_280:\n        /* \"#utility.yul\":1598:1607   */\n      dup4\n        /* \"#utility.yul\":1585:1608   */\n      calldataload\n        /* \"#utility.yul\":1617:1648   */\n      tag_281\n        /* \"#utility.yul\":1642:1647   */\n      dup2\n        /* \"#utility.yul\":1617:1648   */\n      tag_265\n      jump\t// in\n    tag_281:\n        /* \"#utility.yul\":1667:1672   */\n      swap3\n      pop\n        /* \"#utility.yul\":1724:1726   */\n      0x20\n        /* \"#utility.yul\":1709:1727   */\n      dup5\n      add\n        /* \"#utility.yul\":1696:1728   */\n      calldataload\n        /* \"#utility.yul\":1737:1770   */\n      tag_282\n        /* \"#utility.yul\":1696:1728   */\n      dup2\n        /* \"#utility.yul\":1737:1770   */\n      tag_265\n      jump\t// in\n    tag_282:\n        /* \"#utility.yul\":1397:1853   */\n      swap3\n      swap6\n        /* \"#utility.yul\":1789:1796   */\n      swap3\n      swap5\n      pop\n      pop\n      pop\n        /* \"#utility.yul\":1843:1845   */\n      0x40\n        /* \"#utility.yul\":1828:1846   */\n      swap2\n      swap1\n      swap2\n      add\n        /* \"#utility.yul\":1815:1847   */\n      calldataload\n      swap1\n        /* \"#utility.yul\":1397:1853   */\n      jump\t// out\n        /* \"#utility.yul\":1858:2105   */\n    tag_60:\n        /* \"#utility.yul\":1917:1923   */\n      0x00\n        /* \"#utility.yul\":1970:1972   */\n      0x20\n        /* \"#utility.yul\":1958:1967   */\n      dup3\n        /* \"#utility.yul\":1949:1956   */\n      dup5\n        /* \"#utility.yul\":1945:1968   */\n      sub\n        /* \"#utility.yul\":1941:1973   */\n      slt\n        /* \"#utility.yul\":1938:1990   */\n      iszero\n      tag_284\n      jumpi\n        /* \"#utility.yul\":1986:1987   */\n      0x00\n        /* \"#utility.yul\":1983:1984   */\n      dup1\n        /* \"#utility.yul\":1976:1988   */\n      revert\n        /* \"#utility.yul\":1938:1990   */\n    tag_284:\n        /* \"#utility.yul\":2025:2034   */\n      dup2\n        /* \"#utility.yul\":2012:2035   */\n      calldataload\n        /* \"#utility.yul\":2044:2075   */\n      tag_140\n        /* \"#utility.yul\":2069:2074   */\n      dup2\n        /* \"#utility.yul\":2044:2075   */\n      tag_265\n      jump\t// in\n        /* \"#utility.yul\":2507:2687   */\n    tag_80:\n        /* \"#utility.yul\":2566:2572   */\n      0x00\n        /* \"#utility.yul\":2619:2621   */\n      0x20\n        /* \"#utility.yul\":2607:2616   */\n      dup3\n        /* \"#utility.yul\":2598:2605   */\n      dup5\n        /* \"#utility.yul\":2594:2617   */\n      sub\n        /* \"#utility.yul\":2590:2622   */\n      slt\n        /* \"#utility.yul\":2587:2639   */\n      iszero\n      tag_289\n      jumpi\n        /* \"#utility.yul\":2635:2636   */\n      0x00\n        /* \"#utility.yul\":2632:2633   */\n      dup1\n        /* \"#utility.yul\":2625:2637   */\n      revert\n        /* \"#utility.yul\":2587:2639   */\n    tag_289:\n      pop\n        /* \"#utility.yul\":2658:2681   */\n      calldataload\n      swap2\n        /* \"#utility.yul\":2507:2687   */\n      swap1\n      pop\n      jump\t// out\n        /* \"#utility.yul\":2918:3306   */\n    tag_123:\n        /* \"#utility.yul\":2986:2992   */\n      0x00\n        /* \"#utility.yul\":2994:3000   */\n      dup1\n        /* \"#utility.yul\":3047:3049   */\n      0x40\n        /* \"#utility.yul\":3035:3044   */\n      dup4\n        /* \"#utility.yul\":3026:3033   */\n      dup6\n        /* \"#utility.yul\":3022:3045   */\n      sub\n        /* \"#utility.yul\":3018:3050   */\n      slt\n        /* \"#utility.yul\":3015:3067   */\n      iszero\n      tag_292\n      jumpi\n        /* \"#utility.yul\":3063:3064   */\n      0x00\n        /* \"#utility.yul\":3060:3061   */\n      dup1\n        /* \"#utility.yul\":3053:3065   */\n      revert\n        /* \"#utility.yul\":3015:3067   */\n    tag_292:\n        /* \"#utility.yul\":3102:3111   */\n      dup3\n        /* \"#utility.yul\":3089:3112   */\n      calldataload\n        /* \"#utility.yul\":3121:3152   */\n      tag_293\n        /* \"#utility.yul\":3146:3151   */\n      dup2\n        /* \"#utility.yul\":3121:3152   */\n      tag_265\n      jump\t// in\n    tag_293:\n        /* \"#utility.yul\":3171:3176   */\n      swap2\n      pop\n        /* \"#utility.yul\":3228:3230   */\n      0x20\n        /* \"#utility.yul\":3213:3231   */\n      dup4\n      add\n        /* \"#utility.yul\":3200:3232   */\n      calldataload\n        /* \"#utility.yul\":3241:3274   */\n      tag_294\n        /* \"#utility.yul\":3200:3232   */\n      dup2\n        /* \"#utility.yul\":3241:3274   */\n      tag_265\n      jump\t// in\n    tag_294:\n        /* \"#utility.yul\":3293:3300   */\n      dup1\n        /* \"#utility.yul\":3283:3300   */\n      swap2\n      pop\n      pop\n        /* \"#utility.yul\":2918:3306   */\n      swap3\n      pop\n      swap3\n      swap1\n      pop\n      jump\t// out\n        /* \"#utility.yul\":3311:3438   */\n    tag_266:\n        /* \"#utility.yul\":3372:3382   */\n      0x4e487b71\n        /* \"#utility.yul\":3367:3370   */\n      0xe0\n        /* \"#utility.yul\":3363:3383   */\n      shl\n        /* \"#utility.yul\":3360:3361   */\n      0x00\n        /* \"#utility.yul\":3353:3384   */\n      mstore\n        /* \"#utility.yul\":3403:3407   */\n      0x11\n        /* \"#utility.yul\":3400:3401   */\n      0x04\n        /* \"#utility.yul\":3393:3408   */\n      mstore\n        /* \"#utility.yul\":3427:3431   */\n      0x24\n        /* \"#utility.yul\":3424:3425   */\n      0x00\n        /* \"#utility.yul\":3417:3432   */\n      revert\n        /* \"#utility.yul\":3443:3571   */\n    tag_143:\n        /* \"#utility.yul\":3510:3519   */\n      dup2\n      dup2\n      sub\n        /* \"#utility.yul\":3531:3542   */\n      dup2\n      dup2\n      gt\n        /* \"#utility.yul\":3528:3565   */\n      iszero\n      tag_135\n      jumpi\n        /* \"#utility.yul\":3545:3563   */\n      tag_135\n      tag_266\n      jump\t// in\n        /* \"#utility.yul\":5906:6031   */\n    tag_210:\n        /* \"#utility.yul\":5971:5980   */\n      dup1\n      dup3\n      add\n        /* \"#utility.yul\":5992:6002   */\n      dup1\n      dup3\n      gt\n        /* \"#utility.yul\":5989:6025   */\n      iszero\n      tag_135\n      jumpi\n        /* \"#utility.yul\":6005:6023   */\n      tag_135\n      tag_266\n      jump\t// in\n        /* \"#utility.yul\":6529:6656   */\n    tag_230:\n        /* \"#utility.yul\":6590:6600   */\n      0x4e487b71\n        /* \"#utility.yul\":6585:6588   */\n      0xe0\n        /* \"#utility.yul\":6581:6601   */\n      shl\n        /* \"#utility.yul\":6578:6579   */\n      0x00\n        /* \"#utility.yul\":6571:6602   */\n      mstore\n        /* \"#utility.yul\":6621:6625   */\n      0x32\n        /* \"#utility.yul\":6618:6619   */\n      0x04\n        /* \"#utility.yul\":6611:6626   */\n      mstore\n        /* \"#utility.yul\":6645:6649   */\n      0x24\n        /* \"#utility.yul\":6642:6643   */\n      0x00\n        /* \"#utility.yul\":6635:6650   */\n      revert\n        /* \"#utility.yul\":6661:6912   */\n    tag_234:\n        /* \"#utility.yul\":6731:6737   */\n      0x00\n        /* \"#utility.yul\":6784:6786   */\n      0x20\n        /* \"#utility.yul\":6772:6781   */\n      dup3\n        /* \"#utility.yul\":6763:6770   */\n      dup5\n        /* \"#utility.yul\":6759:6782   */\n      sub\n        /* \"#utility.yul\":6755:6787   */\n      slt\n        /* \"#utility.yul\":6752:6804   */\n      iszero\n      tag_312\n      jumpi\n        /* \"#utility.yul\":6800:6801   */\n      0x00\n        /* \"#utility.yul\":6797:6798   */\n      dup1\n        /* \"#utility.yul\":6790:6802   */\n      revert\n        /* \"#utility.yul\":6752:6804   */\n    tag_312:\n        /* \"#utility.yul\":6832:6841   */\n      dup2\n        /* \"#utility.yul\":6826:6842   */\n      mload\n        /* \"#utility.yul\":6851:6882   */\n      tag_140\n        /* \"#utility.yul\":6876:6881   */\n      dup2\n        /* \"#utility.yul\":6851:6882   */\n      tag_265\n      jump\t// in\n        /* \"#utility.yul\":6917:7897   */\n    tag_239:\n        /* \"#utility.yul\":7179:7183   */\n      0x00\n        /* \"#utility.yul\":7227:7230   */\n      0xa0\n        /* \"#utility.yul\":7216:7225   */\n      dup3\n        /* \"#utility.yul\":7212:7231   */\n      add\n        /* \"#utility.yul\":7258:7264   */\n      dup8\n        /* \"#utility.yul\":7247:7256   */\n      dup4\n        /* \"#utility.yul\":7240:7265   */\n      mstore\n        /* \"#utility.yul\":7284:7286   */\n      0x20\n        /* \"#utility.yul\":7322:7328   */\n      dup8\n        /* \"#utility.yul\":7317:7319   */\n      dup2\n        /* \"#utility.yul\":7306:7315   */\n      dup6\n        /* \"#utility.yul\":7302:7320   */\n      add\n        /* \"#utility.yul\":7295:7329   */\n      mstore\n        /* \"#utility.yul\":7365:7368   */\n      0xa0\n        /* \"#utility.yul\":7360:7362   */\n      0x40\n        /* \"#utility.yul\":7349:7358   */\n      dup6\n        /* \"#utility.yul\":7345:7363   */\n      add\n        /* \"#utility.yul\":7338:7369   */\n      mstore\n        /* \"#utility.yul\":7389:7395   */\n      dup2\n        /* \"#utility.yul\":7424:7430   */\n      dup8\n        /* \"#utility.yul\":7418:7431   */\n      mload\n        /* \"#utility.yul\":7455:7461   */\n      dup1\n        /* \"#utility.yul\":7447:7453   */\n      dup5\n        /* \"#utility.yul\":7440:7462   */\n      mstore\n        /* \"#utility.yul\":7493:7496   */\n      0xc0\n        /* \"#utility.yul\":7482:7491   */\n      dup7\n        /* \"#utility.yul\":7478:7497   */\n      add\n        /* \"#utility.yul\":7471:7497   */\n      swap2\n      pop\n        /* \"#utility.yul\":7532:7534   */\n      dup3\n        /* \"#utility.yul\":7524:7530   */\n      dup10\n        /* \"#utility.yul\":7520:7535   */\n      add\n        /* \"#utility.yul\":7506:7535   */\n      swap4\n      pop\n        /* \"#utility.yul\":7553:7554   */\n      0x00\n        /* \"#utility.yul\":7563:7758   */\n    tag_315:\n        /* \"#utility.yul\":7577:7583   */\n      dup2\n        /* \"#utility.yul\":7574:7575   */\n      dup2\n        /* \"#utility.yul\":7571:7584   */\n      lt\n        /* \"#utility.yul\":7563:7758   */\n      iszero\n      tag_317\n      jumpi\n        /* \"#utility.yul\":7642:7655   */\n      dup5\n      mload\n      sub(shl(0xa0, 0x01), 0x01)\n        /* \"#utility.yul\":7638:7677   */\n      and\n        /* \"#utility.yul\":7626:7678   */\n      dup4\n      mstore\n        /* \"#utility.yul\":7733:7748   */\n      swap4\n      dup4\n      add\n      swap4\n        /* \"#utility.yul\":7698:7710   */\n      swap2\n      dup4\n      add\n      swap2\n        /* \"#utility.yul\":7674:7675   */\n      0x01\n        /* \"#utility.yul\":7592:7601   */\n      add\n        /* \"#utility.yul\":7563:7758   */\n      jump(tag_315)\n    tag_317:\n      pop\n      pop\n      sub(shl(0xa0, 0x01), 0x01)\n        /* \"#utility.yul\":7814:7846   */\n      swap7\n      swap1\n      swap7\n      and\n        /* \"#utility.yul\":7809:7811   */\n      0x60\n        /* \"#utility.yul\":7794:7812   */\n      dup6\n      add\n        /* \"#utility.yul\":7787:7847   */\n      mstore\n      pop\n      pop\n      pop\n        /* \"#utility.yul\":7878:7881   */\n      0x80\n        /* \"#utility.yul\":7863:7882   */\n      add\n        /* \"#utility.yul\":7856:7891   */\n      mstore\n        /* \"#utility.yul\":7775:7778   */\n      swap4\n        /* \"#utility.yul\":6917:7897   */\n      swap3\n      pop\n      pop\n      pop\n      jump\t// out\n        /* \"#utility.yul\":8112:8280   */\n    tag_257:\n        /* \"#utility.yul\":8185:8194   */\n      dup1\n      dup3\n      mul\n        /* \"#utility.yul\":8216:8225   */\n      dup2\n      iszero\n        /* \"#utility.yul\":8233:8248   */\n      dup3\n      dup3\n      div\n        /* \"#utility.yul\":8227:8249   */\n      dup5\n      eq\n        /* \"#utility.yul\":8213:8250   */\n      or\n        /* \"#utility.yul\":8203:8274   */\n      tag_135\n      jumpi\n        /* \"#utility.yul\":8254:8272   */\n      tag_135\n      tag_266\n      jump\t// in\n        /* \"#utility.yul\":8285:8502   */\n    tag_259:\n        /* \"#utility.yul\":8325:8326   */\n      0x00\n        /* \"#utility.yul\":8351:8352   */\n      dup3\n        /* \"#utility.yul\":8341:8473   */\n      tag_323\n      jumpi\n        /* \"#utility.yul\":8395:8405   */\n      0x4e487b71\n        /* \"#utility.yul\":8390:8393   */\n      0xe0\n        /* \"#utility.yul\":8386:8406   */\n      shl\n        /* \"#utility.yul\":8383:8384   */\n      0x00\n        /* \"#utility.yul\":8376:8407   */\n      mstore\n        /* \"#utility.yul\":8430:8434   */\n      0x12\n        /* \"#utility.yul\":8427:8428   */\n      0x04\n        /* \"#utility.yul\":8420:8435   */\n      mstore\n        /* \"#utility.yul\":8458:8462   */\n      0x24\n        /* \"#utility.yul\":8455:8456   */\n      0x00\n        /* \"#utility.yul\":8448:8463   */\n      revert\n        /* \"#utility.yul\":8341:8473   */\n    tag_323:\n      pop\n        /* \"#utility.yul\":8487:8496   */\n      div\n      swap1\n        /* \"#utility.yul\":8285:8502   */\n      jump\t// out\n\n    auxdata: 0xa26469706673582212201c08a09101aa0a4b8f211ac0cb77e6e30d02998ff6254de63448ada24afc14e664736f6c63430008130033\n}\n",
				"bytecode": {
					"linkReferences": {},
					"object": "6080604052617530600555600680546001600160a01b03191673845d553bd206c5f1773c063b452d00aa942c3bec1790553480156200003d57600080fd5b506200004933620002ce565b336000818152600260209081526040808320805460ff19908116600190811790925530855282852080549091169091179055600780546001600160a01b031916737a250d5630b4cf539739df2c5dacb4c659f2488d179055838352600482528083206a52b7d2dcc80cd2e40000009081905590519081527fddf252ad1be2c89b69c2b068fc378daa952ba7f163c4a11628f55a4df523b3ef910160405180910390a3600760009054906101000a90046001600160a01b03166001600160a01b031663c45a01556040518163ffffffff1660e01b8152600401602060405180830381865afa1580156200013f573d6000803e3d6000fd5b505050506040513d601f19601f82011682018060405250810190620001659190620003ea565b6001600160a01b031663c9c65396600760009054906101000a90046001600160a01b03166001600160a01b031663ad5c46486040518163ffffffff1660e01b8152600401602060405180830381865afa158015620001c7573d6000803e3d6000fd5b505050506040513d601f19601f82011682018060405250810190620001ed9190620003ea565b6040516001600160e01b031960e084901b1681526001600160a01b0390911660048201523060248201526044016020604051808303816000875af11580156200023a573d6000803e3d6000fd5b505050506040513d601f19601f82011682018060405250810190620002609190620003ea565b600880546001600160a01b0319166001600160a01b039283169081179091556000908152600360205260409020805460ff19166001179055600754620002ac913391166000196200031e565b600754620002c89030906001600160a01b03166000196200031e565b6200041c565b600080546001600160a01b038381166001600160a01b0319831681178455604051919092169283917f8be0079c531659141344cd1fd0a4f28419497f9722a3daafe3b4186f6b6457e09190a35050565b6001600160a01b038316620003705760405162461bcd60e51b815260206004820152601360248201527245524332303a205a65726f204164647265737360681b60448201526064015b60405180910390fd5b6001600160a01b038216620003be5760405162461bcd60e51b815260206004820152601360248201527245524332303a205a65726f204164647265737360681b604482015260640162000367565b6001600160a01b0392831660009081526001602090815260408083209490951682529290925291902055565b600060208284031215620003fd57600080fd5b81516001600160a01b03811681146200041557600080fd5b9392505050565b610fe8806200042c6000396000f3fe6080604052600436106101395760003560e01c8063715018a6116100ab578063a9059cbb1161006f578063a9059cbb14610390578063c31c9c07146103b0578063dc9d75b0146103d0578063dd62ed3e146103e5578063e9451f5f1461042b578063f2fde38b1461044057600080fd5b8063715018a61461031a578063893d20e81461032f5780638da5cb5b1461032f57806395d89b411461034d578063a01c34831461037a57600080fd5b806327889862116100fd5780632788986214610216578063313ce5671461024f5780633eaaf86b1461026b578063452ed4f11461028a578063694e80c3146102c257806370a08231146102e457600080fd5b80630445b6671461014557806306fdde031461016e578063095ea7b3146101a857806318160ddd146101d857806323b872dd146101f657600080fd5b3661014057005b600080fd5b34801561015157600080fd5b5061015b60055481565b6040519081526020015b60405180910390f35b34801561017a57600080fd5b5060408051808201909152600881526727b7329020b737b760c11b60208201525b6040516101659190610d5a565b3480156101b457600080fd5b506101c86101c3366004610dbd565b610460565b6040519015158152602001610165565b3480156101e457600080fd5b506a52b7d2dcc80cd2e400000061015b565b34801561020257600080fd5b506101c8610211366004610de9565b610477565b34801561022257600080fd5b506101c8610231366004610e2a565b6001600160a01b031660009081526002602052604090205460ff1690565b34801561025b57600080fd5b5060405160128152602001610165565b34801561027757600080fd5b5061015b6a52b7d2dcc80cd2e400000081565b34801561029657600080fd5b506008546102aa906001600160a01b031681565b6040516001600160a01b039091168152602001610165565b3480156102ce57600080fd5b506102e26102dd366004610e47565b6104f1565b005b3480156102f057600080fd5b5061015b6102ff366004610e2a565b6001600160a01b031660009081526004602052604090205490565b34801561032657600080fd5b506102e261058a565b34801561033b57600080fd5b506000546001600160a01b03166102aa565b34801561035957600080fd5b506040805180820190915260048152630913d05560e21b602082015261019b565b34801561038657600080fd5b506102aa61dead81565b34801561039c57600080fd5b506101c86103ab366004610dbd565b61059e565b3480156103bc57600080fd5b506007546102aa906001600160a01b031681565b3480156103dc57600080fd5b5061015b606481565b3480156103f157600080fd5b5061015b610400366004610e60565b6001600160a01b03918216600090815260016020908152604080832093909416825291909152205490565b34801561043757600080fd5b5061015b600281565b34801561044c57600080fd5b506102e261045b366004610e2a565b6105b5565b600061046d33848461062e565b5060015b92915050565b6001600160a01b0383166000908152600160209081526040808320338452909152812054600019146104dc576001600160a01b0384166000908152600160209081526040808320338452909152812080548492906104d6908490610eaf565b90915550505b6104e78484846106f2565b90505b9392505050565b6104f961098b565b606481101561054f5760405162461bcd60e51b815260206004820152601a60248201527f416d6f756e74206c6f776572206e6f742061636365707465642e00000000000060448201526064015b60405180910390fd5b60058190556040518181527f2b7ce9cd4278161eef9245955c9a851618488a07e830194c60a88f0224ad3cc09060200160405180910390a150565b61059261098b565b61059c60006109e5565b565b60006105ab3384846106f2565b5060019392505050565b6105bd61098b565b6001600160a01b0381166106225760405162461bcd60e51b815260206004820152602660248201527f4f776e61626c653a206e6577206f776e657220697320746865207a65726f206160448201526564647265737360d01b6064820152608401610546565b61062b816109e5565b50565b6001600160a01b03831661067a5760405162461bcd60e51b815260206004820152601360248201527245524332303a205a65726f204164647265737360681b6044820152606401610546565b6001600160a01b0382166106c65760405162461bcd60e51b815260206004820152601360248201527245524332303a205a65726f204164647265737360681b6044820152606401610546565b6001600160a01b0392831660009081526001602090815260408083209490951682529290925291902055565b600060016001600160a01b0384166107585760405162461bcd60e51b815260206004820152602360248201527f45524332303a207472616e7366657220746f20746865207a65726f206164647260448201526265737360e81b6064820152608401610546565b6001600160a01b0385166107bc5760405162461bcd60e51b815260206004820152602560248201527f45524332303a207472616e736665722066726f6d20746865207a65726f206164604482015264647265737360d81b6064820152608401610546565b6000831161081e5760405162461bcd60e51b815260206004820152602960248201527f5472616e7366657220616d6f756e74206d7573742062652067726561746572206044820152687468616e207a65726f60b81b6064820152608401610546565b6108288585610a35565b801561083e5750600854600160a01b900460ff16155b15610867573060009081526004602052604090205460055481106108655761086581610a80565b505b6001600160a01b03851660009081526002602052604090205460ff16806108a657506001600160a01b03841660009081526002602052604090205460ff165b156108af575060005b6001600160a01b038516600090815260046020526040812080548592906108d7908490610eaf565b9091555060009050816108ea57836108fe565b6108fe866108f88888610a35565b86610ca3565b6001600160a01b03861660009081526004602052604081208054929350839290919061092b908490610ec2565b92505081905550846001600160a01b0316866001600160a01b03167fddf252ad1be2c89b69c2b068fc378daa952ba7f163c4a11628f55a4df523b3ef8360405161097791815260200190565b60405180910390a350600195945050505050565b6000546001600160a01b0316331461059c5760405162461bcd60e51b815260206004820181905260248201527f4f776e61626c653a2063616c6c6572206973206e6f7420746865206f776e65726044820152606401610546565b600080546001600160a01b038381166001600160a01b0319831681178455604051919092169283917f8be0079c531659141344cd1fd0a4f28419497f9722a3daafe3b4186f6b6457e09190a35050565b6001600160a01b038116600090815260036020526040812054819060ff168015610a7857506001600160a01b03841660009081526003602052604090205460ff16155b949350505050565b6008805460ff60a01b1916600160a01b1790556040805160028082526060820183526000926020830190803683370190505090503081600081518110610ac857610ac8610ed5565b6001600160a01b03928316602091820292909201810191909152600754604080516315ab88c960e31b81529051919093169263ad5c46489260048083019391928290030181865afa158015610b21573d6000803e3d6000fd5b505050506040513d601f19601f82011682018060405250810190610b459190610eeb565b81600181518110610b5857610b58610ed5565b6001600160a01b03928316602091820292909201810191909152306000908152600182526040808220600754909416825292909152205460001914610bc2573060009081526001602090815260408083206007546001600160a01b03168452909152902060001990555b60075460405163791ac94760e01b81526001600160a01b039091169063791ac94790610bfb908590600090869030904290600401610f08565b600060405180830381600087803b158015610c1557600080fd5b505af1925050508015610c26575060015b610c305750610c93565b60004715610c90576006546040516001600160a01b03909116904790600081818185875af1925050503d8060008114610c85576040519150601f19603f3d011682016040523d82523d6000602084013e610c8a565b606091505b50909150505b50505b506008805460ff60a01b19169055565b6000808315610cb0575060025b80600003610cc157829150506104ea565b60006064610ccf8386610f79565b610cd99190610f90565b90508015610d46573060009081526004602052604081208054839290610d00908490610ec2565b909155505060405181815230906001600160a01b038816907fddf252ad1be2c89b69c2b068fc378daa952ba7f163c4a11628f55a4df523b3ef9060200160405180910390a35b610d508185610eaf565b9695505050505050565b600060208083528351808285015260005b81811015610d8757858101830151858201604001528201610d6b565b506000604082860101526040601f19601f8301168501019250505092915050565b6001600160a01b038116811461062b57600080fd5b60008060408385031215610dd057600080fd5b8235610ddb81610da8565b946020939093013593505050565b600080600060608486031215610dfe57600080fd5b8335610e0981610da8565b92506020840135610e1981610da8565b929592945050506040919091013590565b600060208284031215610e3c57600080fd5b81356104ea81610da8565b600060208284031215610e5957600080fd5b5035919050565b60008060408385031215610e7357600080fd5b8235610e7e81610da8565b91506020830135610e8e81610da8565b809150509250929050565b634e487b7160e01b600052601160045260246000fd5b8181038181111561047157610471610e99565b8082018082111561047157610471610e99565b634e487b7160e01b600052603260045260246000fd5b600060208284031215610efd57600080fd5b81516104ea81610da8565b600060a082018783526020878185015260a0604085015281875180845260c086019150828901935060005b81811015610f585784516001600160a01b031683529383019391830191600101610f33565b50506001600160a01b03969096166060850152505050608001529392505050565b808202811582820484141761047157610471610e99565b600082610fad57634e487b7160e01b600052601260045260246000fd5b50049056fea26469706673582212201c08a09101aa0a4b8f211ac0cb77e6e30d02998ff6254de63448ada24afc14e664736f6c63430008130033",
					"opcodes": "PUSH1 0x80 PUSH1 0x40 MSTORE PUSH2 0x7530 PUSH1 0x5 SSTORE PUSH1 0x6 DUP1 SLOAD PUSH1 0x1 PUSH1 0x1 PUSH1 0xA0 SHL SUB NOT AND PUSH20 0x845D553BD206C5F1773C063B452D00AA942C3BEC OR SWAP1 SSTORE CALLVALUE DUP1 ISZERO PUSH3 0x3D JUMPI PUSH1 0x0 DUP1 REVERT JUMPDEST POP PUSH3 0x49 CALLER PUSH3 0x2CE JUMP JUMPDEST CALLER PUSH1 0x0 DUP2 DUP2 MSTORE PUSH1 0x2 PUSH1 0x20 SWAP1 DUP2 MSTORE PUSH1 0x40 DUP1 DUP4 KECCAK256 DUP1 SLOAD PUSH1 0xFF NOT SWAP1 DUP2 AND PUSH1 0x1 SWAP1 DUP2 OR SWAP1 SWAP3 SSTORE ADDRESS DUP6 MSTORE DUP3 DUP6 KECCAK256 DUP1 SLOAD SWAP1 SWAP2 AND SWAP1 SWAP2 OR SWAP1 SSTORE PUSH1 0x7 DUP1 SLOAD PUSH1 0x1 PUSH1 0x1 PUSH1 0xA0 SHL SUB NOT AND PUSH20 0x7A250D5630B4CF539739DF2C5DACB4C659F2488D OR SWAP1 SSTORE DUP4 DUP4 MSTORE PUSH1 0x4 DUP3 MSTORE DUP1 DUP4 KECCAK256 PUSH11 0x52B7D2DCC80CD2E4000000 SWAP1 DUP2 SWAP1 SSTORE SWAP1 MLOAD SWAP1 DUP2 MSTORE PUSH32 0xDDF252AD1BE2C89B69C2B068FC378DAA952BA7F163C4A11628F55A4DF523B3EF SWAP2 ADD PUSH1 0x40 MLOAD DUP1 SWAP2 SUB SWAP1 LOG3 PUSH1 0x7 PUSH1 0x0 SWAP1 SLOAD SWAP1 PUSH2 0x100 EXP SWAP1 DIV PUSH1 0x1 PUSH1 0x1 PUSH1 0xA0 SHL SUB AND PUSH1 0x1 PUSH1 0x1 PUSH1 0xA0 SHL SUB AND PUSH4 0xC45A0155 PUSH1 0x40 MLOAD DUP2 PUSH4 0xFFFFFFFF AND PUSH1 0xE0 SHL DUP2 MSTORE PUSH1 0x4 ADD PUSH1 0x20 PUSH1 0x40 MLOAD DUP1 DUP4 SUB DUP2 DUP7 GAS STATICCALL ISZERO DUP1 ISZERO PUSH3 0x13F JUMPI RETURNDATASIZE PUSH1 0x0 DUP1 RETURNDATACOPY RETURNDATASIZE PUSH1 0x0 REVERT JUMPDEST POP POP POP POP PUSH1 0x40 MLOAD RETURNDATASIZE PUSH1 0x1F NOT PUSH1 0x1F DUP3 ADD AND DUP3 ADD DUP1 PUSH1 0x40 MSTORE POP DUP2 ADD SWAP1 PUSH3 0x165 SWAP2 SWAP1 PUSH3 0x3EA JUMP JUMPDEST PUSH1 0x1 PUSH1 0x1 PUSH1 0xA0 SHL SUB AND PUSH4 0xC9C65396 PUSH1 0x7 PUSH1 0x0 SWAP1 SLOAD SWAP1 PUSH2 0x100 EXP SWAP1 DIV PUSH1 0x1 PUSH1 0x1 PUSH1 0xA0 SHL SUB AND PUSH1 0x1 PUSH1 0x1 PUSH1 0xA0 SHL SUB AND PUSH4 0xAD5C4648 PUSH1 0x40 MLOAD DUP2 PUSH4 0xFFFFFFFF AND PUSH1 0xE0 SHL DUP2 MSTORE PUSH1 0x4 ADD PUSH1 0x20 PUSH1 0x40 MLOAD DUP1 DUP4 SUB DUP2 DUP7 GAS STATICCALL ISZERO DUP1 ISZERO PUSH3 0x1C7 JUMPI RETURNDATASIZE PUSH1 0x0 DUP1 RETURNDATACOPY RETURNDATASIZE PUSH1 0x0 REVERT JUMPDEST POP POP POP POP PUSH1 0x40 MLOAD RETURNDATASIZE PUSH1 0x1F NOT PUSH1 0x1F DUP3 ADD AND DUP3 ADD DUP1 PUSH1 0x40 MSTORE POP DUP2 ADD SWAP1 PUSH3 0x1ED SWAP2 SWAP1 PUSH3 0x3EA JUMP JUMPDEST PUSH1 0x40 MLOAD PUSH1 0x1 PUSH1 0x1 PUSH1 0xE0 SHL SUB NOT PUSH1 0xE0 DUP5 SWAP1 SHL AND DUP2 MSTORE PUSH1 0x1 PUSH1 0x1 PUSH1 0xA0 SHL SUB SWAP1 SWAP2 AND PUSH1 0x4 DUP3 ADD MSTORE ADDRESS PUSH1 0x24 DUP3 ADD MSTORE PUSH1 0x44 ADD PUSH1 0x20 PUSH1 0x40 MLOAD DUP1 DUP4 SUB DUP2 PUSH1 0x0 DUP8 GAS CALL ISZERO DUP1 ISZERO PUSH3 0x23A JUMPI RETURNDATASIZE PUSH1 0x0 DUP1 RETURNDATACOPY RETURNDATASIZE PUSH1 0x0 REVERT JUMPDEST POP POP POP POP PUSH1 0x40 MLOAD RETURNDATASIZE PUSH1 0x1F NOT PUSH1 0x1F DUP3 ADD AND DUP3 ADD DUP1 PUSH1 0x40 MSTORE POP DUP2 ADD SWAP1 PUSH3 0x260 SWAP2 SWAP1 PUSH3 0x3EA JUMP JUMPDEST PUSH1 0x8 DUP1 SLOAD PUSH1 0x1 PUSH1 0x1 PUSH1 0xA0 SHL SUB NOT AND PUSH1 0x1 PUSH1 0x1 PUSH1 0xA0 SHL SUB SWAP3 DUP4 AND SWAP1 DUP2 OR SWAP1 SWAP2 SSTORE PUSH1 0x0 SWAP1 DUP2 MSTORE PUSH1 0x3 PUSH1 0x20 MSTORE PUSH1 0x40 SWAP1 KECCAK256 DUP1 SLOAD PUSH1 0xFF NOT AND PUSH1 0x1 OR SWAP1 SSTORE PUSH1 0x7 SLOAD PUSH3 0x2AC SWAP2 CALLER SWAP2 AND PUSH1 0x0 NOT PUSH3 0x31E JUMP JUMPDEST PUSH1 0x7 SLOAD PUSH3 0x2C8 SWAP1 ADDRESS SWAP1 PUSH1 0x1 PUSH1 0x1 PUSH1 0xA0 SHL SUB AND PUSH1 0x0 NOT PUSH3 0x31E JUMP JUMPDEST PUSH3 0x41C JUMP JUMPDEST PUSH1 0x0 DUP1 SLOAD PUSH1 0x1 PUSH1 0x1 PUSH1 0xA0 SHL SUB DUP4 DUP2 AND PUSH1 0x1 PUSH1 0x1 PUSH1 0xA0 SHL SUB NOT DUP4 AND DUP2 OR DUP5 SSTORE PUSH1 0x40 MLOAD SWAP2 SWAP1 SWAP3 AND SWAP3 DUP4 SWAP2 PUSH32 0x8BE0079C531659141344CD1FD0A4F28419497F9722A3DAAFE3B4186F6B6457E0 SWAP2 SWAP1 LOG3 POP POP JUMP JUMPDEST PUSH1 0x1 PUSH1 0x1 PUSH1 0xA0 SHL SUB DUP4 AND PUSH3 0x370 JUMPI PUSH1 0x40 MLOAD PUSH3 0x461BCD PUSH1 0xE5 SHL DUP2 MSTORE PUSH1 0x20 PUSH1 0x4 DUP3 ADD MSTORE PUSH1 0x13 PUSH1 0x24 DUP3 ADD MSTORE PUSH19 0x45524332303A205A65726F2041646472657373 PUSH1 0x68 SHL PUSH1 0x44 DUP3 ADD MSTORE PUSH1 0x64 ADD JUMPDEST PUSH1 0x40 MLOAD DUP1 SWAP2 SUB SWAP1 REVERT JUMPDEST PUSH1 0x1 PUSH1 0x1 PUSH1 0xA0 SHL SUB DUP3 AND PUSH3 0x3BE JUMPI PUSH1 0x40 MLOAD PUSH3 0x461BCD PUSH1 0xE5 SHL DUP2 MSTORE PUSH1 0x20 PUSH1 0x4 DUP3 ADD MSTORE PUSH1 0x13 PUSH1 0x24 DUP3 ADD MSTORE PUSH19 0x45524332303A205A65726F2041646472657373 PUSH1 0x68 SHL PUSH1 0x44 DUP3 ADD MSTORE PUSH1 0x64 ADD PUSH3 0x367 JUMP JUMPDEST PUSH1 0x1 PUSH1 0x1 PUSH1 0xA0 SHL SUB SWAP3 DUP4 AND PUSH1 0x0 SWAP1 DUP2 MSTORE PUSH1 0x1 PUSH1 0x20 SWAP1 DUP2 MSTORE PUSH1 0x40 DUP1 DUP4 KECCAK256 SWAP5 SWAP1 SWAP6 AND DUP3 MSTORE SWAP3 SWAP1 SWAP3 MSTORE SWAP2 SWAP1 KECCAK256 SSTORE JUMP JUMPDEST PUSH1 0x0 PUSH1 0x20 DUP3 DUP5 SUB SLT ISZERO PUSH3 0x3FD JUMPI PUSH1 0x0 DUP1 REVERT JUMPDEST DUP2 MLOAD PUSH1 0x1 PUSH1 0x1 PUSH1 0xA0 SHL SUB DUP2 AND DUP2 EQ PUSH3 0x415 JUMPI PUSH1 0x0 DUP1 REVERT JUMPDEST SWAP4 SWAP3 POP POP POP JUMP JUMPDEST PUSH2 0xFE8 DUP1 PUSH3 0x42C PUSH1 0x0 CODECOPY PUSH1 0x0 RETURN INVALID PUSH1 0x80 PUSH1 0x40 MSTORE PUSH1 0x4 CALLDATASIZE LT PUSH2 0x139 JUMPI PUSH1 0x0 CALLDATALOAD PUSH1 0xE0 SHR DUP1 PUSH4 0x715018A6 GT PUSH2 0xAB JUMPI DUP1 PUSH4 0xA9059CBB GT PUSH2 0x6F JUMPI DUP1 PUSH4 0xA9059CBB EQ PUSH2 0x390 JUMPI DUP1 PUSH4 0xC31C9C07 EQ PUSH2 0x3B0 JUMPI DUP1 PUSH4 0xDC9D75B0 EQ PUSH2 0x3D0 JUMPI DUP1 PUSH4 0xDD62ED3E EQ PUSH2 0x3E5 JUMPI DUP1 PUSH4 0xE9451F5F EQ PUSH2 0x42B JUMPI DUP1 PUSH4 0xF2FDE38B EQ PUSH2 0x440 JUMPI PUSH1 0x0 DUP1 REVERT JUMPDEST DUP1 PUSH4 0x715018A6 EQ PUSH2 0x31A JUMPI DUP1 PUSH4 0x893D20E8 EQ PUSH2 0x32F JUMPI DUP1 PUSH4 0x8DA5CB5B EQ PUSH2 0x32F JUMPI DUP1 PUSH4 0x95D89B41 EQ PUSH2 0x34D JUMPI DUP1 PUSH4 0xA01C3483 EQ PUSH2 0x37A JUMPI PUSH1 0x0 DUP1 REVERT JUMPDEST DUP1 PUSH4 0x27889862 GT PUSH2 0xFD JUMPI DUP1 PUSH4 0x27889862 EQ PUSH2 0x216 JUMPI DUP1 PUSH4 0x313CE567 EQ PUSH2 0x24F JUMPI DUP1 PUSH4 0x3EAAF86B EQ PUSH2 0x26B JUMPI DUP1 PUSH4 0x452ED4F1 EQ PUSH2 0x28A JUMPI DUP1 PUSH4 0x694E80C3 EQ PUSH2 0x2C2 JUMPI DUP1 PUSH4 0x70A08231 EQ PUSH2 0x2E4 JUMPI PUSH1 0x0 DUP1 REVERT JUMPDEST DUP1 PUSH4 0x445B667 EQ PUSH2 0x145 JUMPI DUP1 PUSH4 0x6FDDE03 EQ PUSH2 0x16E JUMPI DUP1 PUSH4 0x95EA7B3 EQ PUSH2 0x1A8 JUMPI DUP1 PUSH4 0x18160DDD EQ PUSH2 0x1D8 JUMPI DUP1 PUSH4 0x23B872DD EQ PUSH2 0x1F6 JUMPI PUSH1 0x0 DUP1 REVERT JUMPDEST CALLDATASIZE PUSH2 0x140 JUMPI STOP JUMPDEST PUSH1 0x0 DUP1 REVERT JUMPDEST CALLVALUE DUP1 ISZERO PUSH2 0x151 JUMPI PUSH1 0x0 DUP1 REVERT JUMPDEST POP PUSH2 0x15B PUSH1 0x5 SLOAD DUP2 JUMP JUMPDEST PUSH1 0x40 MLOAD SWAP1 DUP2 MSTORE PUSH1 0x20 ADD JUMPDEST PUSH1 0x40 MLOAD DUP1 SWAP2 SUB SWAP1 RETURN JUMPDEST CALLVALUE DUP1 ISZERO PUSH2 0x17A JUMPI PUSH1 0x0 DUP1 REVERT JUMPDEST POP PUSH1 0x40 DUP1 MLOAD DUP1 DUP3 ADD SWAP1 SWAP2 MSTORE PUSH1 0x8 DUP2 MSTORE PUSH8 0x27B7329020B737B7 PUSH1 0xC1 SHL PUSH1 0x20 DUP3 ADD MSTORE JUMPDEST PUSH1 0x40 MLOAD PUSH2 0x165 SWAP2 SWAP1 PUSH2 0xD5A JUMP JUMPDEST CALLVALUE DUP1 ISZERO PUSH2 0x1B4 JUMPI PUSH1 0x0 DUP1 REVERT JUMPDEST POP PUSH2 0x1C8 PUSH2 0x1C3 CALLDATASIZE PUSH1 0x4 PUSH2 0xDBD JUMP JUMPDEST PUSH2 0x460 JUMP JUMPDEST PUSH1 0x40 MLOAD SWAP1 ISZERO ISZERO DUP2 MSTORE PUSH1 0x20 ADD PUSH2 0x165 JUMP JUMPDEST CALLVALUE DUP1 ISZERO PUSH2 0x1E4 JUMPI PUSH1 0x0 DUP1 REVERT JUMPDEST POP PUSH11 0x52B7D2DCC80CD2E4000000 PUSH2 0x15B JUMP JUMPDEST CALLVALUE DUP1 ISZERO PUSH2 0x202 JUMPI PUSH1 0x0 DUP1 REVERT JUMPDEST POP PUSH2 0x1C8 PUSH2 0x211 CALLDATASIZE PUSH1 0x4 PUSH2 0xDE9 JUMP JUMPDEST PUSH2 0x477 JUMP JUMPDEST CALLVALUE DUP1 ISZERO PUSH2 0x222 JUMPI PUSH1 0x0 DUP1 REVERT JUMPDEST POP PUSH2 0x1C8 PUSH2 0x231 CALLDATASIZE PUSH1 0x4 PUSH2 0xE2A JUMP JUMPDEST PUSH1 0x1 PUSH1 0x1 PUSH1 0xA0 SHL SUB AND PUSH1 0x0 SWAP1 DUP2 MSTORE PUSH1 0x2 PUSH1 0x20 MSTORE PUSH1 0x40 SWAP1 KECCAK256 SLOAD PUSH1 0xFF AND SWAP1 JUMP JUMPDEST CALLVALUE DUP1 ISZERO PUSH2 0x25B JUMPI PUSH1 0x0 DUP1 REVERT JUMPDEST POP PUSH1 0x40 MLOAD PUSH1 0x12 DUP2 MSTORE PUSH1 0x20 ADD PUSH2 0x165 JUMP JUMPDEST CALLVALUE DUP1 ISZERO PUSH2 0x277 JUMPI PUSH1 0x0 DUP1 REVERT JUMPDEST POP PUSH2 0x15B PUSH11 0x52B7D2DCC80CD2E4000000 DUP2 JUMP JUMPDEST CALLVALUE DUP1 ISZERO PUSH2 0x296 JUMPI PUSH1 0x0 DUP1 REVERT JUMPDEST POP PUSH1 0x8 SLOAD PUSH2 0x2AA SWAP1 PUSH1 0x1 PUSH1 0x1 PUSH1 0xA0 SHL SUB AND DUP2 JUMP JUMPDEST PUSH1 0x40 MLOAD PUSH1 0x1 PUSH1 0x1 PUSH1 0xA0 SHL SUB SWAP1 SWAP2 AND DUP2 MSTORE PUSH1 0x20 ADD PUSH2 0x165 JUMP JUMPDEST CALLVALUE DUP1 ISZERO PUSH2 0x2CE JUMPI PUSH1 0x0 DUP1 REVERT JUMPDEST POP PUSH2 0x2E2 PUSH2 0x2DD CALLDATASIZE PUSH1 0x4 PUSH2 0xE47 JUMP JUMPDEST PUSH2 0x4F1 JUMP JUMPDEST STOP JUMPDEST CALLVALUE DUP1 ISZERO PUSH2 0x2F0 JUMPI PUSH1 0x0 DUP1 REVERT JUMPDEST POP PUSH2 0x15B PUSH2 0x2FF CALLDATASIZE PUSH1 0x4 PUSH2 0xE2A JUMP JUMPDEST PUSH1 0x1 PUSH1 0x1 PUSH1 0xA0 SHL SUB AND PUSH1 0x0 SWAP1 DUP2 MSTORE PUSH1 0x4 PUSH1 0x20 MSTORE PUSH1 0x40 SWAP1 KECCAK256 SLOAD SWAP1 JUMP JUMPDEST CALLVALUE DUP1 ISZERO PUSH2 0x326 JUMPI PUSH1 0x0 DUP1 REVERT JUMPDEST POP PUSH2 0x2E2 PUSH2 0x58A JUMP JUMPDEST CALLVALUE DUP1 ISZERO PUSH2 0x33B JUMPI PUSH1 0x0 DUP1 REVERT JUMPDEST POP PUSH1 0x0 SLOAD PUSH1 0x1 PUSH1 0x1 PUSH1 0xA0 SHL SUB AND PUSH2 0x2AA JUMP JUMPDEST CALLVALUE DUP1 ISZERO PUSH2 0x359 JUMPI PUSH1 0x0 DUP1 REVERT JUMPDEST POP PUSH1 0x40 DUP1 MLOAD DUP1 DUP3 ADD SWAP1 SWAP2 MSTORE PUSH1 0x4 DUP2 MSTORE PUSH4 0x913D055 PUSH1 0xE2 SHL PUSH1 0x20 DUP3 ADD MSTORE PUSH2 0x19B JUMP JUMPDEST CALLVALUE DUP1 ISZERO PUSH2 0x386 JUMPI PUSH1 0x0 DUP1 REVERT JUMPDEST POP PUSH2 0x2AA PUSH2 0xDEAD DUP2 JUMP JUMPDEST CALLVALUE DUP1 ISZERO PUSH2 0x39C JUMPI PUSH1 0x0 DUP1 REVERT JUMPDEST POP PUSH2 0x1C8 PUSH2 0x3AB CALLDATASIZE PUSH1 0x4 PUSH2 0xDBD JUMP JUMPDEST PUSH2 0x59E JUMP JUMPDEST CALLVALUE DUP1 ISZERO PUSH2 0x3BC JUMPI PUSH1 0x0 DUP1 REVERT JUMPDEST POP PUSH1 0x7 SLOAD PUSH2 0x2AA SWAP1 PUSH1 0x1 PUSH1 0x1 PUSH1 0xA0 SHL SUB AND DUP2 JUMP JUMPDEST CALLVALUE DUP1 ISZERO PUSH2 0x3DC JUMPI PUSH1 0x0 DUP1 REVERT JUMPDEST POP PUSH2 0x15B PUSH1 0x64 DUP2 JUMP JUMPDEST CALLVALUE DUP1 ISZERO PUSH2 0x3F1 JUMPI PUSH1 0x0 DUP1 REVERT JUMPDEST POP PUSH2 0x15B PUSH2 0x400 CALLDATASIZE PUSH1 0x4 PUSH2 0xE60 JUMP JUMPDEST PUSH1 0x1 PUSH1 0x1 PUSH1 0xA0 SHL SUB SWAP2 DUP3 AND PUSH1 0x0 SWAP1 DUP2 MSTORE PUSH1 0x1 PUSH1 0x20 SWAP1 DUP2 MSTORE PUSH1 0x40 DUP1 DUP4 KECCAK256 SWAP4 SWAP1 SWAP5 AND DUP3 MSTORE SWAP2 SWAP1 SWAP2 MSTORE KECCAK256 SLOAD SWAP1 JUMP JUMPDEST CALLVALUE DUP1 ISZERO PUSH2 0x437 JUMPI PUSH1 0x0 DUP1 REVERT JUMPDEST POP PUSH2 0x15B PUSH1 0x2 DUP2 JUMP JUMPDEST CALLVALUE DUP1 ISZERO PUSH2 0x44C JUMPI PUSH1 0x0 DUP1 REVERT JUMPDEST POP PUSH2 0x2E2 PUSH2 0x45B CALLDATASIZE PUSH1 0x4 PUSH2 0xE2A JUMP JUMPDEST PUSH2 0x5B5 JUMP JUMPDEST PUSH1 0x0 PUSH2 0x46D CALLER DUP5 DUP5 PUSH2 0x62E JUMP JUMPDEST POP PUSH1 0x1 JUMPDEST SWAP3 SWAP2 POP POP JUMP JUMPDEST PUSH1 0x1 PUSH1 0x1 PUSH1 0xA0 SHL SUB DUP4 AND PUSH1 0x0 SWAP1 DUP2 MSTORE PUSH1 0x1 PUSH1 0x20 SWAP1 DUP2 MSTORE PUSH1 0x40 DUP1 DUP4 KECCAK256 CALLER DUP5 MSTORE SWAP1 SWAP2 MSTORE DUP2 KECCAK256 SLOAD PUSH1 0x0 NOT EQ PUSH2 0x4DC JUMPI PUSH1 0x1 PUSH1 0x1 PUSH1 0xA0 SHL SUB DUP5 AND PUSH1 0x0 SWAP1 DUP2 MSTORE PUSH1 0x1 PUSH1 0x20 SWAP1 DUP2 MSTORE PUSH1 0x40 DUP1 DUP4 KECCAK256 CALLER DUP5 MSTORE SWAP1 SWAP2 MSTORE DUP2 KECCAK256 DUP1 SLOAD DUP5 SWAP3 SWAP1 PUSH2 0x4D6 SWAP1 DUP5 SWAP1 PUSH2 0xEAF JUMP JUMPDEST SWAP1 SWAP2 SSTORE POP POP JUMPDEST PUSH2 0x4E7 DUP5 DUP5 DUP5 PUSH2 0x6F2 JUMP JUMPDEST SWAP1 POP JUMPDEST SWAP4 SWAP3 POP POP POP JUMP JUMPDEST PUSH2 0x4F9 PUSH2 0x98B JUMP JUMPDEST PUSH1 0x64 DUP2 LT ISZERO PUSH2 0x54F JUMPI PUSH1 0x40 MLOAD PUSH3 0x461BCD PUSH1 0xE5 SHL DUP2 MSTORE PUSH1 0x20 PUSH1 0x4 DUP3 ADD MSTORE PUSH1 0x1A PUSH1 0x24 DUP3 ADD MSTORE PUSH32 0x416D6F756E74206C6F776572206E6F742061636365707465642E000000000000 PUSH1 0x44 DUP3 ADD MSTORE PUSH1 0x64 ADD JUMPDEST PUSH1 0x40 MLOAD DUP1 SWAP2 SUB SWAP1 REVERT JUMPDEST PUSH1 0x5 DUP2 SWAP1 SSTORE PUSH1 0x40 MLOAD DUP2 DUP2 MSTORE PUSH32 0x2B7CE9CD4278161EEF9245955C9A851618488A07E830194C60A88F0224AD3CC0 SWAP1 PUSH1 0x20 ADD PUSH1 0x40 MLOAD DUP1 SWAP2 SUB SWAP1 LOG1 POP JUMP JUMPDEST PUSH2 0x592 PUSH2 0x98B JUMP JUMPDEST PUSH2 0x59C PUSH1 0x0 PUSH2 0x9E5 JUMP JUMPDEST JUMP JUMPDEST PUSH1 0x0 PUSH2 0x5AB CALLER DUP5 DUP5 PUSH2 0x6F2 JUMP JUMPDEST POP PUSH1 0x1 SWAP4 SWAP3 POP POP POP JUMP JUMPDEST PUSH2 0x5BD PUSH2 0x98B JUMP JUMPDEST PUSH1 0x1 PUSH1 0x1 PUSH1 0xA0 SHL SUB DUP2 AND PUSH2 0x622 JUMPI PUSH1 0x40 MLOAD PUSH3 0x461BCD PUSH1 0xE5 SHL DUP2 MSTORE PUSH1 0x20 PUSH1 0x4 DUP3 ADD MSTORE PUSH1 0x26 PUSH1 0x24 DUP3 ADD MSTORE PUSH32 0x4F776E61626C653A206E6577206F776E657220697320746865207A65726F2061 PUSH1 0x44 DUP3 ADD MSTORE PUSH6 0x646472657373 PUSH1 0xD0 SHL PUSH1 0x64 DUP3 ADD MSTORE PUSH1 0x84 ADD PUSH2 0x546 JUMP JUMPDEST PUSH2 0x62B DUP2 PUSH2 0x9E5 JUMP JUMPDEST POP JUMP JUMPDEST PUSH1 0x1 PUSH1 0x1 PUSH1 0xA0 SHL SUB DUP4 AND PUSH2 0x67A JUMPI PUSH1 0x40 MLOAD PUSH3 0x461BCD PUSH1 0xE5 SHL DUP2 MSTORE PUSH1 0x20 PUSH1 0x4 DUP3 ADD MSTORE PUSH1 0x13 PUSH1 0x24 DUP3 ADD MSTORE PUSH19 0x45524332303A205A65726F2041646472657373 PUSH1 0x68 SHL PUSH1 0x44 DUP3 ADD MSTORE PUSH1 0x64 ADD PUSH2 0x546 JUMP JUMPDEST PUSH1 0x1 PUSH1 0x1 PUSH1 0xA0 SHL SUB DUP3 AND PUSH2 0x6C6 JUMPI PUSH1 0x40 MLOAD PUSH3 0x461BCD PUSH1 0xE5 SHL DUP2 MSTORE PUSH1 0x20 PUSH1 0x4 DUP3 ADD MSTORE PUSH1 0x13 PUSH1 0x24 DUP3 ADD MSTORE PUSH19 0x45524332303A205A65726F2041646472657373 PUSH1 0x68 SHL PUSH1 0x44 DUP3 ADD MSTORE PUSH1 0x64 ADD PUSH2 0x546 JUMP JUMPDEST PUSH1 0x1 PUSH1 0x1 PUSH1 0xA0 SHL SUB SWAP3 DUP4 AND PUSH1 0x0 SWAP1 DUP2 MSTORE PUSH1 0x1 PUSH1 0x20 SWAP1 DUP2 MSTORE PUSH1 0x40 DUP1 DUP4 KECCAK256 SWAP5 SWAP1 SWAP6 AND DUP3 MSTORE SWAP3 SWAP1 SWAP3 MSTORE SWAP2 SWAP1 KECCAK256 SSTORE JUMP JUMPDEST PUSH1 0x0 PUSH1 0x1 PUSH1 0x1 PUSH1 0x1 PUSH1 0xA0 SHL SUB DUP5 AND PUSH2 0x758 JUMPI PUSH1 0x40 MLOAD PUSH3 0x461BCD PUSH1 0xE5 SHL DUP2 MSTORE PUSH1 0x20 PUSH1 0x4 DUP3 ADD MSTORE PUSH1 0x23 PUSH1 0x24 DUP3 ADD MSTORE PUSH32 0x45524332303A207472616E7366657220746F20746865207A65726F2061646472 PUSH1 0x44 DUP3 ADD MSTORE PUSH3 0x657373 PUSH1 0xE8 SHL PUSH1 0x64 DUP3 ADD MSTORE PUSH1 0x84 ADD PUSH2 0x546 JUMP JUMPDEST PUSH1 0x1 PUSH1 0x1 PUSH1 0xA0 SHL SUB DUP6 AND PUSH2 0x7BC JUMPI PUSH1 0x40 MLOAD PUSH3 0x461BCD PUSH1 0xE5 SHL DUP2 MSTORE PUSH1 0x20 PUSH1 0x4 DUP3 ADD MSTORE PUSH1 0x25 PUSH1 0x24 DUP3 ADD MSTORE PUSH32 0x45524332303A207472616E736665722066726F6D20746865207A65726F206164 PUSH1 0x44 DUP3 ADD MSTORE PUSH5 0x6472657373 PUSH1 0xD8 SHL PUSH1 0x64 DUP3 ADD MSTORE PUSH1 0x84 ADD PUSH2 0x546 JUMP JUMPDEST PUSH1 0x0 DUP4 GT PUSH2 0x81E JUMPI PUSH1 0x40 MLOAD PUSH3 0x461BCD PUSH1 0xE5 SHL DUP2 MSTORE PUSH1 0x20 PUSH1 0x4 DUP3 ADD MSTORE PUSH1 0x29 PUSH1 0x24 DUP3 ADD MSTORE PUSH32 0x5472616E7366657220616D6F756E74206D757374206265206772656174657220 PUSH1 0x44 DUP3 ADD MSTORE PUSH9 0x7468616E207A65726F PUSH1 0xB8 SHL PUSH1 0x64 DUP3 ADD MSTORE PUSH1 0x84 ADD PUSH2 0x546 JUMP JUMPDEST PUSH2 0x828 DUP6 DUP6 PUSH2 0xA35 JUMP JUMPDEST DUP1 ISZERO PUSH2 0x83E JUMPI POP PUSH1 0x8 SLOAD PUSH1 0x1 PUSH1 0xA0 SHL SWAP1 DIV PUSH1 0xFF AND ISZERO JUMPDEST ISZERO PUSH2 0x867 JUMPI ADDRESS PUSH1 0x0 SWAP1 DUP2 MSTORE PUSH1 0x4 PUSH1 0x20 MSTORE PUSH1 0x40 SWAP1 KECCAK256 SLOAD PUSH1 0x5 SLOAD DUP2 LT PUSH2 0x865 JUMPI PUSH2 0x865 DUP2 PUSH2 0xA80 JUMP JUMPDEST POP JUMPDEST PUSH1 0x1 PUSH1 0x1 PUSH1 0xA0 SHL SUB DUP6 AND PUSH1 0x0 SWAP1 DUP2 MSTORE PUSH1 0x2 PUSH1 0x20 MSTORE PUSH1 0x40 SWAP1 KECCAK256 SLOAD PUSH1 0xFF AND DUP1 PUSH2 0x8A6 JUMPI POP PUSH1 0x1 PUSH1 0x1 PUSH1 0xA0 SHL SUB DUP5 AND PUSH1 0x0 SWAP1 DUP2 MSTORE PUSH1 0x2 PUSH1 0x20 MSTORE PUSH1 0x40 SWAP1 KECCAK256 SLOAD PUSH1 0xFF AND JUMPDEST ISZERO PUSH2 0x8AF JUMPI POP PUSH1 0x0 JUMPDEST PUSH1 0x1 PUSH1 0x1 PUSH1 0xA0 SHL SUB DUP6 AND PUSH1 0x0 SWAP1 DUP2 MSTORE PUSH1 0x4 PUSH1 0x20 MSTORE PUSH1 0x40 DUP2 KECCAK256 DUP1 SLOAD DUP6 SWAP3 SWAP1 PUSH2 0x8D7 SWAP1 DUP5 SWAP1 PUSH2 0xEAF JUMP JUMPDEST SWAP1 SWAP2 SSTORE POP PUSH1 0x0 SWAP1 POP DUP2 PUSH2 0x8EA JUMPI DUP4 PUSH2 0x8FE JUMP JUMPDEST PUSH2 0x8FE DUP7 PUSH2 0x8F8 DUP9 DUP9 PUSH2 0xA35 JUMP JUMPDEST DUP7 PUSH2 0xCA3 JUMP JUMPDEST PUSH1 0x1 PUSH1 0x1 PUSH1 0xA0 SHL SUB DUP7 AND PUSH1 0x0 SWAP1 DUP2 MSTORE PUSH1 0x4 PUSH1 0x20 MSTORE PUSH1 0x40 DUP2 KECCAK256 DUP1 SLOAD SWAP3 SWAP4 POP DUP4 SWAP3 SWAP1 SWAP2 SWAP1 PUSH2 0x92B SWAP1 DUP5 SWAP1 PUSH2 0xEC2 JUMP JUMPDEST SWAP3 POP POP DUP2 SWAP1 SSTORE POP DUP5 PUSH1 0x1 PUSH1 0x1 PUSH1 0xA0 SHL SUB AND DUP7 PUSH1 0x1 PUSH1 0x1 PUSH1 0xA0 SHL SUB AND PUSH32 0xDDF252AD1BE2C89B69C2B068FC378DAA952BA7F163C4A11628F55A4DF523B3EF DUP4 PUSH1 0x40 MLOAD PUSH2 0x977 SWAP2 DUP2 MSTORE PUSH1 0x20 ADD SWAP1 JUMP JUMPDEST PUSH1 0x40 MLOAD DUP1 SWAP2 SUB SWAP1 LOG3 POP PUSH1 0x1 SWAP6 SWAP5 POP POP POP POP POP JUMP JUMPDEST PUSH1 0x0 SLOAD PUSH1 0x1 PUSH1 0x1 PUSH1 0xA0 SHL SUB AND CALLER EQ PUSH2 0x59C JUMPI PUSH1 0x40 MLOAD PUSH3 0x461BCD PUSH1 0xE5 SHL DUP2 MSTORE PUSH1 0x20 PUSH1 0x4 DUP3 ADD DUP2 SWAP1 MSTORE PUSH1 0x24 DUP3 ADD MSTORE PUSH32 0x4F776E61626C653A2063616C6C6572206973206E6F7420746865206F776E6572 PUSH1 0x44 DUP3 ADD MSTORE PUSH1 0x64 ADD PUSH2 0x546 JUMP JUMPDEST PUSH1 0x0 DUP1 SLOAD PUSH1 0x1 PUSH1 0x1 PUSH1 0xA0 SHL SUB DUP4 DUP2 AND PUSH1 0x1 PUSH1 0x1 PUSH1 0xA0 SHL SUB NOT DUP4 AND DUP2 OR DUP5 SSTORE PUSH1 0x40 MLOAD SWAP2 SWAP1 SWAP3 AND SWAP3 DUP4 SWAP2 PUSH32 0x8BE0079C531659141344CD1FD0A4F28419497F9722A3DAAFE3B4186F6B6457E0 SWAP2 SWAP1 LOG3 POP POP JUMP JUMPDEST PUSH1 0x1 PUSH1 0x1 PUSH1 0xA0 SHL SUB DUP2 AND PUSH1 0x0 SWAP1 DUP2 MSTORE PUSH1 0x3 PUSH1 0x20 MSTORE PUSH1 0x40 DUP2 KECCAK256 SLOAD DUP2 SWAP1 PUSH1 0xFF AND DUP1 ISZERO PUSH2 0xA78 JUMPI POP PUSH1 0x1 PUSH1 0x1 PUSH1 0xA0 SHL SUB DUP5 AND PUSH1 0x0 SWAP1 DUP2 MSTORE PUSH1 0x3 PUSH1 0x20 MSTORE PUSH1 0x40 SWAP1 KECCAK256 SLOAD PUSH1 0xFF AND ISZERO JUMPDEST SWAP5 SWAP4 POP POP POP POP JUMP JUMPDEST PUSH1 0x8 DUP1 SLOAD PUSH1 0xFF PUSH1 0xA0 SHL NOT AND PUSH1 0x1 PUSH1 0xA0 SHL OR SWAP1 SSTORE PUSH1 0x40 DUP1 MLOAD PUSH1 0x2 DUP1 DUP3 MSTORE PUSH1 0x60 DUP3 ADD DUP4 MSTORE PUSH1 0x0 SWAP3 PUSH1 0x20 DUP4 ADD SWAP1 DUP1 CALLDATASIZE DUP4 CALLDATACOPY ADD SWAP1 POP POP SWAP1 POP ADDRESS DUP2 PUSH1 0x0 DUP2 MLOAD DUP2 LT PUSH2 0xAC8 JUMPI PUSH2 0xAC8 PUSH2 0xED5 JUMP JUMPDEST PUSH1 0x1 PUSH1 0x1 PUSH1 0xA0 SHL SUB SWAP3 DUP4 AND PUSH1 0x20 SWAP2 DUP3 MUL SWAP3 SWAP1 SWAP3 ADD DUP2 ADD SWAP2 SWAP1 SWAP2 MSTORE PUSH1 0x7 SLOAD PUSH1 0x40 DUP1 MLOAD PUSH4 0x15AB88C9 PUSH1 0xE3 SHL DUP2 MSTORE SWAP1 MLOAD SWAP2 SWAP1 SWAP4 AND SWAP3 PUSH4 0xAD5C4648 SWAP3 PUSH1 0x4 DUP1 DUP4 ADD SWAP4 SWAP2 SWAP3 DUP3 SWAP1 SUB ADD DUP2 DUP7 GAS STATICCALL ISZERO DUP1 ISZERO PUSH2 0xB21 JUMPI RETURNDATASIZE PUSH1 0x0 DUP1 RETURNDATACOPY RETURNDATASIZE PUSH1 0x0 REVERT JUMPDEST POP POP POP POP PUSH1 0x40 MLOAD RETURNDATASIZE PUSH1 0x1F NOT PUSH1 0x1F DUP3 ADD AND DUP3 ADD DUP1 PUSH1 0x40 MSTORE POP DUP2 ADD SWAP1 PUSH2 0xB45 SWAP2 SWAP1 PUSH2 0xEEB JUMP JUMPDEST DUP2 PUSH1 0x1 DUP2 MLOAD DUP2 LT PUSH2 0xB58 JUMPI PUSH2 0xB58 PUSH2 0xED5 JUMP JUMPDEST PUSH1 0x1 PUSH1 0x1 PUSH1 0xA0 SHL SUB SWAP3 DUP4 AND PUSH1 0x20 SWAP2 DUP3 MUL SWAP3 SWAP1 SWAP3 ADD DUP2 ADD SWAP2 SWAP1 SWAP2 MSTORE ADDRESS PUSH1 0x0 SWAP1 DUP2 MSTORE PUSH1 0x1 DUP3 MSTORE PUSH1 0x40 DUP1 DUP3 KECCAK256 PUSH1 0x7 SLOAD SWAP1 SWAP5 AND DUP3 MSTORE SWAP3 SWAP1 SWAP2 MSTORE KECCAK256 SLOAD PUSH1 0x0 NOT EQ PUSH2 0xBC2 JUMPI ADDRESS PUSH1 0x0 SWAP1 DUP2 MSTORE PUSH1 0x1 PUSH1 0x20 SWAP1 DUP2 MSTORE PUSH1 0x40 DUP1 DUP4 KECCAK256 PUSH1 0x7 SLOAD PUSH1 0x1 PUSH1 0x1 PUSH1 0xA0 SHL SUB AND DUP5 MSTORE SWAP1 SWAP2 MSTORE SWAP1 KECCAK256 PUSH1 0x0 NOT SWAP1 SSTORE JUMPDEST PUSH1 0x7 SLOAD PUSH1 0x40 MLOAD PUSH4 0x791AC947 PUSH1 0xE0 SHL DUP2 MSTORE PUSH1 0x1 PUSH1 0x1 PUSH1 0xA0 SHL SUB SWAP1 SWAP2 AND SWAP1 PUSH4 0x791AC947 SWAP1 PUSH2 0xBFB SWAP1 DUP6 SWAP1 PUSH1 0x0 SWAP1 DUP7 SWAP1 ADDRESS SWAP1 TIMESTAMP SWAP1 PUSH1 0x4 ADD PUSH2 0xF08 JUMP JUMPDEST PUSH1 0x0 PUSH1 0x40 MLOAD DUP1 DUP4 SUB DUP2 PUSH1 0x0 DUP8 DUP1 EXTCODESIZE ISZERO DUP1 ISZERO PUSH2 0xC15 JUMPI PUSH1 0x0 DUP1 REVERT JUMPDEST POP GAS CALL SWAP3 POP POP POP DUP1 ISZERO PUSH2 0xC26 JUMPI POP PUSH1 0x1 JUMPDEST PUSH2 0xC30 JUMPI POP PUSH2 0xC93 JUMP JUMPDEST PUSH1 0x0 SELFBALANCE ISZERO PUSH2 0xC90 JUMPI PUSH1 0x6 SLOAD PUSH1 0x40 MLOAD PUSH1 0x1 PUSH1 0x1 PUSH1 0xA0 SHL SUB SWAP1 SWAP2 AND SWAP1 SELFBALANCE SWAP1 PUSH1 0x0 DUP2 DUP2 DUP2 DUP6 DUP8 GAS CALL SWAP3 POP POP POP RETURNDATASIZE DUP1 PUSH1 0x0 DUP2 EQ PUSH2 0xC85 JUMPI PUSH1 0x40 MLOAD SWAP2 POP PUSH1 0x1F NOT PUSH1 0x3F RETURNDATASIZE ADD AND DUP3 ADD PUSH1 0x40 MSTORE RETURNDATASIZE DUP3 MSTORE RETURNDATASIZE PUSH1 0x0 PUSH1 0x20 DUP5 ADD RETURNDATACOPY PUSH2 0xC8A JUMP JUMPDEST PUSH1 0x60 SWAP2 POP JUMPDEST POP SWAP1 SWAP2 POP POP JUMPDEST POP POP JUMPDEST POP PUSH1 0x8 DUP1 SLOAD PUSH1 0xFF PUSH1 0xA0 SHL NOT AND SWAP1 SSTORE JUMP JUMPDEST PUSH1 0x0 DUP1 DUP4 ISZERO PUSH2 0xCB0 JUMPI POP PUSH1 0x2 JUMPDEST DUP1 PUSH1 0x0 SUB PUSH2 0xCC1 JUMPI DUP3 SWAP2 POP POP PUSH2 0x4EA JUMP JUMPDEST PUSH1 0x0 PUSH1 0x64 PUSH2 0xCCF DUP4 DUP7 PUSH2 0xF79 JUMP JUMPDEST PUSH2 0xCD9 SWAP2 SWAP1 PUSH2 0xF90 JUMP JUMPDEST SWAP1 POP DUP1 ISZERO PUSH2 0xD46 JUMPI ADDRESS PUSH1 0x0 SWAP1 DUP2 MSTORE PUSH1 0x4 PUSH1 0x20 MSTORE PUSH1 0x40 DUP2 KECCAK256 DUP1 SLOAD DUP4 SWAP3 SWAP1 PUSH2 0xD00 SWAP1 DUP5 SWAP1 PUSH2 0xEC2 JUMP JUMPDEST SWAP1 SWAP2 SSTORE POP POP PUSH1 0x40 MLOAD DUP2 DUP2 MSTORE ADDRESS SWAP1 PUSH1 0x1 PUSH1 0x1 PUSH1 0xA0 SHL SUB DUP9 AND SWAP1 PUSH32 0xDDF252AD1BE2C89B69C2B068FC378DAA952BA7F163C4A11628F55A4DF523B3EF SWAP1 PUSH1 0x20 ADD PUSH1 0x40 MLOAD DUP1 SWAP2 SUB SWAP1 LOG3 JUMPDEST PUSH2 0xD50 DUP2 DUP6 PUSH2 0xEAF JUMP JUMPDEST SWAP7 SWAP6 POP POP POP POP POP POP JUMP JUMPDEST PUSH1 0x0 PUSH1 0x20 DUP1 DUP4 MSTORE DUP4 MLOAD DUP1 DUP3 DUP6 ADD MSTORE PUSH1 0x0 JUMPDEST DUP2 DUP2 LT ISZERO PUSH2 0xD87 JUMPI DUP6 DUP2 ADD DUP4 ADD MLOAD DUP6 DUP3 ADD PUSH1 0x40 ADD MSTORE DUP3 ADD PUSH2 0xD6B JUMP JUMPDEST POP PUSH1 0x0 PUSH1 0x40 DUP3 DUP7 ADD ADD MSTORE PUSH1 0x40 PUSH1 0x1F NOT PUSH1 0x1F DUP4 ADD AND DUP6 ADD ADD SWAP3 POP POP POP SWAP3 SWAP2 POP POP JUMP JUMPDEST PUSH1 0x1 PUSH1 0x1 PUSH1 0xA0 SHL SUB DUP2 AND DUP2 EQ PUSH2 0x62B JUMPI PUSH1 0x0 DUP1 REVERT JUMPDEST PUSH1 0x0 DUP1 PUSH1 0x40 DUP4 DUP6 SUB SLT ISZERO PUSH2 0xDD0 JUMPI PUSH1 0x0 DUP1 REVERT JUMPDEST DUP3 CALLDATALOAD PUSH2 0xDDB DUP2 PUSH2 0xDA8 JUMP JUMPDEST SWAP5 PUSH1 0x20 SWAP4 SWAP1 SWAP4 ADD CALLDATALOAD SWAP4 POP POP POP JUMP JUMPDEST PUSH1 0x0 DUP1 PUSH1 0x0 PUSH1 0x60 DUP5 DUP7 SUB SLT ISZERO PUSH2 0xDFE JUMPI PUSH1 0x0 DUP1 REVERT JUMPDEST DUP4 CALLDATALOAD PUSH2 0xE09 DUP2 PUSH2 0xDA8 JUMP JUMPDEST SWAP3 POP PUSH1 0x20 DUP5 ADD CALLDATALOAD PUSH2 0xE19 DUP2 PUSH2 0xDA8 JUMP JUMPDEST SWAP3 SWAP6 SWAP3 SWAP5 POP POP POP PUSH1 0x40 SWAP2 SWAP1 SWAP2 ADD CALLDATALOAD SWAP1 JUMP JUMPDEST PUSH1 0x0 PUSH1 0x20 DUP3 DUP5 SUB SLT ISZERO PUSH2 0xE3C JUMPI PUSH1 0x0 DUP1 REVERT JUMPDEST DUP2 CALLDATALOAD PUSH2 0x4EA DUP2 PUSH2 0xDA8 JUMP JUMPDEST PUSH1 0x0 PUSH1 0x20 DUP3 DUP5 SUB SLT ISZERO PUSH2 0xE59 JUMPI PUSH1 0x0 DUP1 REVERT JUMPDEST POP CALLDATALOAD SWAP2 SWAP1 POP JUMP JUMPDEST PUSH1 0x0 DUP1 PUSH1 0x40 DUP4 DUP6 SUB SLT ISZERO PUSH2 0xE73 JUMPI PUSH1 0x0 DUP1 REVERT JUMPDEST DUP3 CALLDATALOAD PUSH2 0xE7E DUP2 PUSH2 0xDA8 JUMP JUMPDEST SWAP2 POP PUSH1 0x20 DUP4 ADD CALLDATALOAD PUSH2 0xE8E DUP2 PUSH2 0xDA8 JUMP JUMPDEST DUP1 SWAP2 POP POP SWAP3 POP SWAP3 SWAP1 POP JUMP JUMPDEST PUSH4 0x4E487B71 PUSH1 0xE0 SHL PUSH1 0x0 MSTORE PUSH1 0x11 PUSH1 0x4 MSTORE PUSH1 0x24 PUSH1 0x0 REVERT JUMPDEST DUP2 DUP2 SUB DUP2 DUP2 GT ISZERO PUSH2 0x471 JUMPI PUSH2 0x471 PUSH2 0xE99 JUMP JUMPDEST DUP1 DUP3 ADD DUP1 DUP3 GT ISZERO PUSH2 0x471 JUMPI PUSH2 0x471 PUSH2 0xE99 JUMP JUMPDEST PUSH4 0x4E487B71 PUSH1 0xE0 SHL PUSH1 0x0 MSTORE PUSH1 0x32 PUSH1 0x4 MSTORE PUSH1 0x24 PUSH1 0x0 REVERT JUMPDEST PUSH1 0x0 PUSH1 0x20 DUP3 DUP5 SUB SLT ISZERO PUSH2 0xEFD JUMPI PUSH1 0x0 DUP1 REVERT JUMPDEST DUP2 MLOAD PUSH2 0x4EA DUP2 PUSH2 0xDA8 JUMP JUMPDEST PUSH1 0x0 PUSH1 0xA0 DUP3 ADD DUP8 DUP4 MSTORE PUSH1 0x20 DUP8 DUP2 DUP6 ADD MSTORE PUSH1 0xA0 PUSH1 0x40 DUP6 ADD MSTORE DUP2 DUP8 MLOAD DUP1 DUP5 MSTORE PUSH1 0xC0 DUP7 ADD SWAP2 POP DUP3 DUP10 ADD SWAP4 POP PUSH1 0x0 JUMPDEST DUP2 DUP2 LT ISZERO PUSH2 0xF58 JUMPI DUP5 MLOAD PUSH1 0x1 PUSH1 0x1 PUSH1 0xA0 SHL SUB AND DUP4 MSTORE SWAP4 DUP4 ADD SWAP4 SWAP2 DUP4 ADD SWAP2 PUSH1 0x1 ADD PUSH2 0xF33 JUMP JUMPDEST POP POP PUSH1 0x1 PUSH1 0x1 PUSH1 0xA0 SHL SUB SWAP7 SWAP1 SWAP7 AND PUSH1 0x60 DUP6 ADD MSTORE POP POP POP PUSH1 0x80 ADD MSTORE SWAP4 SWAP3 POP POP POP JUMP JUMPDEST DUP1 DUP3 MUL DUP2 ISZERO DUP3 DUP3 DIV DUP5 EQ OR PUSH2 0x471 JUMPI PUSH2 0x471 PUSH2 0xE99 JUMP JUMPDEST PUSH1 0x0 DUP3 PUSH2 0xFAD JUMPI PUSH4 0x4E487B71 PUSH1 0xE0 SHL PUSH1 0x0 MSTORE PUSH1 0x12 PUSH1 0x4 MSTORE PUSH1 0x24 PUSH1 0x0 REVERT JUMPDEST POP DIV SWAP1 JUMP INVALID LOG2 PUSH5 0x6970667358 0x22 SLT KECCAK256 SHR ADDMOD LOG0 SWAP2 ADD 0xAA EXP 0x4B DUP16 0x21 BYTE 0xC0 0xCB PUSH24 0xE6E30D02998FF6254DE63448ADA24AFC14E664736F6C6343 STOP ADDMOD SGT STOP CALLER "
				},
				"gasEstimates": {
					"creation": {
						"codeDepositCost": "814400",
						"executionCost": "infinite",
						"totalCost": "infinite"
					},
					"external": {
						"DEAD_WALLET()": "327",
						"_totalSupply()": "251",
						"allowance(address,address)": "infinite",
						"approve(address,uint256)": "22849",
						"balanceOf(address)": "2653",
						"changeThreshold(uint256)": "25690",
						"decimals()": "222",
						"fee_denominator()": "250",
						"getOwner()": "2376",
						"isNoFeeWallet(address)": "2566",
						"lpPair()": "2426",
						"name()": "infinite",
						"owner()": "2398",
						"renounceOwnership()": "infinite",
						"sellfee()": "294",
						"swapRouter()": "2381",
						"swapThreshold()": "2308",
						"symbol()": "infinite",
						"totalSupply()": "271",
						"transfer(address,uint256)": "infinite",
						"transferFrom(address,address,uint256)": "infinite",
						"transferOwnership(address)": "infinite"
					},
					"internal": {
						"_approve(address,address,uint256)": "infinite",
						"_transfer(address,address,uint256)": "infinite",
						"internalSwap(uint256)": "infinite",
						"is_sell(address,address)": "4452",
						"takeTaxes(address,bool,uint256)": "infinite"
					}
				},
				"methodIdentifiers": {
					"DEAD_WALLET()": "a01c3483",
					"_totalSupply()": "3eaaf86b",
					"allowance(address,address)": "dd62ed3e",
					"approve(address,uint256)": "095ea7b3",
					"balanceOf(address)": "70a08231",
					"changeThreshold(uint256)": "694e80c3",
					"decimals()": "313ce567",
					"fee_denominator()": "dc9d75b0",
					"getOwner()": "893d20e8",
					"isNoFeeWallet(address)": "27889862",
					"lpPair()": "452ed4f1",
					"name()": "06fdde03",
					"owner()": "8da5cb5b",
					"renounceOwnership()": "715018a6",
					"sellfee()": "e9451f5f",
					"swapRouter()": "c31c9c07",
					"swapThreshold()": "0445b667",
					"symbol()": "95d89b41",
					"totalSupply()": "18160ddd",
					"transfer(address,uint256)": "a9059cbb",
					"transferFrom(address,address,uint256)": "23b872dd",
					"transferOwnership(address)": "f2fde38b"
				}
			},
			"storageLayout": {
				"storage": [
					{
						"astId": 7,
						"contract": "contracts/Copy_oatfinally.sol:OneAnonataTime",
						"label": "_owner",
						"offset": 0,
						"slot": "0",
						"type": "t_address"
					},
					{
						"astId": 1178,
						"contract": "contracts/Copy_oatfinally.sol:OneAnonataTime",
						"label": "_allowances",
						"offset": 0,
						"slot": "1",
						"type": "t_mapping(t_address,t_mapping(t_address,t_uint256))"
					},
					{
						"astId": 1182,
						"contract": "contracts/Copy_oatfinally.sol:OneAnonataTime",
						"label": "_noFee",
						"offset": 0,
						"slot": "2",
						"type": "t_mapping(t_address,t_bool)"
					},
					{
						"astId": 1186,
						"contract": "contracts/Copy_oatfinally.sol:OneAnonataTime",
						"label": "isLpPair",
						"offset": 0,
						"slot": "3",
						"type": "t_mapping(t_address,t_bool)"
					},
					{
						"astId": 1190,
						"contract": "contracts/Copy_oatfinally.sol:OneAnonataTime",
						"label": "balance",
						"offset": 0,
						"slot": "4",
						"type": "t_mapping(t_address,t_uint256)"
					},
					{
						"astId": 1200,
						"contract": "contracts/Copy_oatfinally.sol:OneAnonataTime",
						"label": "swapThreshold",
						"offset": 0,
						"slot": "5",
						"type": "t_uint256"
					},
					{
						"astId": 1212,
						"contract": "contracts/Copy_oatfinally.sol:OneAnonataTime",
						"label": "oatAddress",
						"offset": 0,
						"slot": "6",
						"type": "t_address_payable"
					},
					{
						"astId": 1215,
						"contract": "contracts/Copy_oatfinally.sol:OneAnonataTime",
						"label": "swapRouter",
						"offset": 0,
						"slot": "7",
						"type": "t_contract(IRouter02)1078"
					},
					{
						"astId": 1229,
						"contract": "contracts/Copy_oatfinally.sol:OneAnonataTime",
						"label": "lpPair",
						"offset": 0,
						"slot": "8",
						"type": "t_address"
					},
					{
						"astId": 1231,
						"contract": "contracts/Copy_oatfinally.sol:OneAnonataTime",
						"label": "inSwap",
						"offset": 20,
						"slot": "8",
						"type": "t_bool"
					}
				],
				"types": {
					"t_address": {
						"encoding": "inplace",
						"label": "address",
						"numberOfBytes": "20"
					},
					"t_address_payable": {
						"encoding": "inplace",
						"label": "address payable",
						"numberOfBytes": "20"
					},
					"t_bool": {
						"encoding": "inplace",
						"label": "bool",
						"numberOfBytes": "1"
					},
					"t_contract(IRouter02)1078": {
						"encoding": "inplace",
						"label": "contract IRouter02",
						"numberOfBytes": "20"
					},
					"t_mapping(t_address,t_bool)": {
						"encoding": "mapping",
						"key": "t_address",
						"label": "mapping(address => bool)",
						"numberOfBytes": "32",
						"value": "t_bool"
					},
					"t_mapping(t_address,t_mapping(t_address,t_uint256))": {
						"encoding": "mapping",
						"key": "t_address",
						"label": "mapping(address => mapping(address => uint256))",
						"numberOfBytes": "32",
						"value": "t_mapping(t_address,t_uint256)"
					},
					"t_mapping(t_address,t_uint256)": {
						"encoding": "mapping",
						"key": "t_address",
						"label": "mapping(address => uint256)",
						"numberOfBytes": "32",
						"value": "t_uint256"
					},
					"t_uint256": {
						"encoding": "inplace",
						"label": "uint256",
						"numberOfBytes": "32"
					}
				}
			},
			"userdoc": {
				"kind": "user",
				"methods": {},
				"version": 1
			}
		}
	}
}