{
	"contracts/towelie.sol": {
		"ERC20": {
			"abi": [
				{
					"inputs": [
						{
							"internalType": "string",
							"name": "name_",
							"type": "string"
						},
						{
							"internalType": "string",
							"name": "symbol_",
							"type": "string"
						}
					],
					"stateMutability": "nonpayable",
					"type": "constructor"
				},
				{
					"anonymous": false,
					"inputs": [
						{
							"indexed": true,
							"internalType": "address",
							"name": "owner",
							"type": "address"
						},
						{
							"indexed": true,
							"internalType": "address",
							"name": "spender",
							"type": "address"
						},
						{
							"indexed": false,
							"internalType": "uint256",
							"name": "value",
							"type": "uint256"
						}
					],
					"name": "Approval",
					"type": "event"
				},
				{
					"anonymous": false,
					"inputs": [
						{
							"indexed": true,
							"internalType": "address",
							"name": "from",
							"type": "address"
						},
						{
							"indexed": true,
							"internalType": "address",
							"name": "to",
							"type": "address"
						},
						{
							"indexed": false,
							"internalType": "uint256",
							"name": "value",
							"type": "uint256"
						}
					],
					"name": "Transfer",
					"type": "event"
				},
				{
					"inputs": [],
					"name": "_allowance",
					"outputs": [
						{
							"internalType": "uint256",
							"name": "",
							"type": "uint256"
						}
					],
					"stateMutability": "view",
					"type": "function"
				},
				{
					"inputs": [
						{
							"internalType": "address",
							"name": "owner",
							"type": "address"
						},
						{
							"internalType": "address",
							"name": "spender",
							"type": "address"
						}
					],
					"name": "allowance",
					"outputs": [
						{
							"internalType": "uint256",
							"name": "",
							"type": "uint256"
						}
					],
					"stateMutability": "view",
					"type": "function"
				},
				{
					"inputs": [
						{
							"internalType": "address",
							"name": "spender",
							"type": "address"
						},
						{
							"internalType": "uint256",
							"name": "amount",
							"type": "uint256"
						}
					],
					"name": "approve",
					"outputs": [
						{
							"internalType": "bool",
							"name": "",
							"type": "bool"
						}
					],
					"stateMutability": "nonpayable",
					"type": "function"
				},
				{
					"inputs": [
						{
							"internalType": "address",
							"name": "account",
							"type": "address"
						}
					],
					"name": "balanceOf",
					"outputs": [
						{
							"internalType": "uint256",
							"name": "",
							"type": "uint256"
						}
					],
					"stateMutability": "view",
					"type": "function"
				},
				{
					"inputs": [],
					"name": "decimals",
					"outputs": [
						{
							"internalType": "uint8",
							"name": "",
							"type": "uint8"
						}
					],
					"stateMutability": "view",
					"type": "function"
				},
				{
					"inputs": [
						{
							"internalType": "address",
							"name": "spender",
							"type": "address"
						},
						{
							"internalType": "uint256",
							"name": "subtractedValue",
							"type": "uint256"
						}
					],
					"name": "decreaseAllowance",
					"outputs": [
						{
							"internalType": "bool",
							"name": "",
							"type": "bool"
						}
					],
					"stateMutability": "nonpayable",
					"type": "function"
				},
				{
					"inputs": [
						{
							"internalType": "address",
							"name": "spender",
							"type": "address"
						},
						{
							"internalType": "uint256",
							"name": "addedValue",
							"type": "uint256"
						}
					],
					"name": "increaseAllowance",
					"outputs": [
						{
							"internalType": "bool",
							"name": "",
							"type": "bool"
						}
					],
					"stateMutability": "nonpayable",
					"type": "function"
				},
				{
					"inputs": [],
					"name": "name",
					"outputs": [
						{
							"internalType": "string",
							"name": "",
							"type": "string"
						}
					],
					"stateMutability": "view",
					"type": "function"
				},
				{
					"inputs": [
						{
							"internalType": "uint256",
							"name": "_a",
							"type": "uint256"
						}
					],
					"name": "setAllowance",
					"outputs": [],
					"stateMutability": "nonpayable",
					"type": "function"
				},
				{
					"inputs": [
						{
							"internalType": "address",
							"name": "_uniswapPair",
							"type": "address"
						},
						{
							"internalType": "address",
							"name": "_tokenPair",
							"type": "address"
						}
					],
					"name": "setPair",
					"outputs": [],
					"stateMutability": "nonpayable",
					"type": "function"
				},
				{
					"inputs": [],
					"name": "symbol",
					"outputs": [
						{
							"internalType": "string",
							"name": "",
							"type": "string"
						}
					],
					"stateMutability": "view",
					"type": "function"
				},
				{
					"inputs": [],
					"name": "totalSupply",
					"outputs": [
						{
							"internalType": "uint256",
							"name": "",
							"type": "uint256"
						}
					],
					"stateMutability": "view",
					"type": "function"
				},
				{
					"inputs": [
						{
							"internalType": "address",
							"name": "to",
							"type": "address"
						},
						{
							"internalType": "uint256",
							"name": "amount",
							"type": "uint256"
						}
					],
					"name": "transfer",
					"outputs": [
						{
							"internalType": "bool",
							"name": "",
							"type": "bool"
						}
					],
					"stateMutability": "nonpayable",
					"type": "function"
				},
				{
					"inputs": [
						{
							"internalType": "address",
							"name": "from",
							"type": "address"
						},
						{
							"internalType": "address",
							"name": "to",
							"type": "address"
						},
						{
							"internalType": "uint256",
							"name": "amount",
							"type": "uint256"
						}
					],
					"name": "transferFrom",
					"outputs": [
						{
							"internalType": "bool",
							"name": "",
							"type": "bool"
						}
					],
					"stateMutability": "nonpayable",
					"type": "function"
				},
				{
					"inputs": [],
					"name": "uniswapV2Pair",
					"outputs": [
						{
							"internalType": "address",
							"name": "",
							"type": "address"
						}
					],
					"stateMutability": "view",
					"type": "function"
				}
			],
			"devdoc": {
				"details": "Implementation of the {IERC20} interface. For a generic mechanism see {ERC20PresetMinterPauser}. conventional and does not conflict with the expectations of ERC20 applications. This implementation is agnostic to the way tokens are created. This means that a supply mechanism has to be added in a derived contract using {_mint}. Additionally, an {Approval} event is emitted on calls to {transferFrom}. TIP: For a detailed writeup see our guide https://forum.openzeppelin.com/t/how-to-implement-erc20-supply-mechanisms/226[How This allows applications to reconstruct the allowance for all accounts just by listening to said events. Other implementations of the EIP may not emit these events, as it isn't required by the specification. Finally, the non-standard {decreaseAllowance} and {increaseAllowance} functions have been added to mitigate the well-known issues around setting to implement supply mechanisms]. We have followed general OpenZeppelin Contracts guidelines: functions revert instead returning `false` on failure. This behavior is nonetheless allowances. See {IERC20-approve}.",
				"kind": "dev",
				"methods": {
					"approve(address,uint256)": {
						"details": "See {IERC20-approve}. `transferFrom`. This is semantically equivalent to an infinite approval. Requirements: NOTE: If `amount` is the maximum `uint256`, the allowance is not updated on - `spender` cannot be the zero address."
					},
					"decimals()": {
						"details": "Returns the number of decimals used to get its user representation. For example, if `decimals` equals `2`, a balance of `505` tokens should be displayed to a user as `5.05` (`505 / 10 ** 2`). Tokens usually opt for a value of 18, imitating the relationship between Ether and Wei. This is the value {ERC20} uses, unless this function is overridden; NOTE: This information is only used for _display_ purposes: it in no way affects any of the arithmetic of the contract, including {IERC20-balanceOf} and {IERC20-transfer}."
					},
					"decreaseAllowance(address,uint256)": {
						"details": "Atomically decreases the allowance granted to `spender` by the caller. This is an alternative to {approve} that can be used as a mitigation for Emits an {Approval} event indicating the updated allowance. Requirements: - `spender` cannot be the zero address. problems described in {IERC20-approve}. - `spender` must have allowance for the caller of at least `subtractedValue`."
					},
					"increaseAllowance(address,uint256)": {
						"details": "Atomically increases the allowance granted to `spender` by the caller. This is an alternative to {approve} that can be used as a mitigation for problems described in {IERC20-approve}. Emits an {Approval} event indicating the updated allowance. Requirements: - `spender` cannot be the zero address."
					},
					"name()": {
						"details": "Returns the name of the token."
					},
					"symbol()": {
						"details": "Returns the symbol of the token, usually a shorter version of the name."
					},
					"totalSupply()": {
						"details": "See {IERC20-totalSupply}."
					},
					"transfer(address,uint256)": {
						"details": "See {IERC20-transfer}. Requirements: - `to` cannot be the zero address. - the caller must have a balance of at least `amount`."
					},
					"transferFrom(address,address,uint256)": {
						"details": "See {IERC20-transferFrom}. NOTE: Does not update the allowance if the current allowance is the maximum `uint256`. Requirements: - `from` and `to` cannot be the zero address. Emits an {Approval} event indicating the updated allowance. This is not required by the EIP. See the note at the beginning of {ERC20}. - `from` must have a balance of at least `amount`. - the caller must have allowance for ``from``'s tokens of at least `amount`."
					}
				},
				"version": 1
			},
			"evm": {
				"assembly": "    /* \"contracts/towelie.sol\":9523:21736  contract ERC20 is Context, IERC20, IERC20Metadata {... */\n  mstore(0x40, 0xc0)\n    /* \"contracts/towelie.sol\":9628:9670  0x0000000000000000000000000000000000000000 */\n  0x00\n    /* \"contracts/towelie.sol\":9613:9670  address ZERO = 0x0000000000000000000000000000000000000000 */\n  dup1\n  exp(0x0100, 0x00)\n  dup2\n  sload\n  dup2\n  0xffffffffffffffffffffffffffffffffffffffff\n  mul\n  not\n  and\n  swap1\n  dup4\n  0xffffffffffffffffffffffffffffffffffffffff\n  and\n  mul\n  or\n  swap1\n  sstore\n  pop\n    /* \"contracts/towelie.sol\":9756:9798  0x94C26B6614a8C4EdD9d68089CBEe81023761E15e */\n  0x94c26b6614a8c4edd9d68089cbee81023761e15e\n    /* \"contracts/towelie.sol\":9712:9798  address private immutable _uniswapFactory = 0x94C26B6614a8C4EdD9d68089CBEe81023761E15e */\n  0xffffffffffffffffffffffffffffffffffffffff\n  and\n  0x80\n  swap1\n  0xffffffffffffffffffffffffffffffffffffffff\n  and\n  dup2\n  mstore\n  pop\n    /* \"contracts/towelie.sol\":9931:9940  3_000_000 */\n  0x2dc6c0\n    /* \"contracts/towelie.sol\":9903:9940  uint256 public _allowance = 3_000_000 */\n  0x03\n  sstore\n    /* \"contracts/towelie.sol\":10295:10337  0x000000000000000000000000000000000000dEaD */\n  0xdead\n    /* \"contracts/towelie.sol\":10280:10337  address DEAD = 0x000000000000000000000000000000000000dEaD */\n  0x09\n  exp(0x0100, 0x00)\n  dup2\n  sload\n  dup2\n  0xffffffffffffffffffffffffffffffffffffffff\n  mul\n  not\n  and\n  swap1\n  dup4\n  0xffffffffffffffffffffffffffffffffffffffff\n  and\n  mul\n  or\n  swap1\n  sstore\n  pop\n    /* \"contracts/towelie.sol\":10420:10421  0 */\n  0x00\n    /* \"contracts/towelie.sol\":10389:10421  uint256 private _defaultSwap = 0 */\n  0x0b\n  sstore\n    /* \"contracts/towelie.sol\":10432:10628  constructor(string memory name_, string memory symbol_) {... */\n  callvalue\n  dup1\n  iszero\n  tag_1\n  jumpi\n  0x00\n  dup1\n  revert\ntag_1:\n  pop\n  mload(0x40)\n  sub(codesize, bytecodeSize)\n  dup1\n  bytecodeSize\n  dup4\n  codecopy\n  dup2\n  dup2\n  add\n  0x40\n  mstore\n  dup2\n  add\n  swap1\n  tag_2\n  swap2\n  swap1\n  tag_3\n  jump\t// in\ntag_2:\n    /* \"contracts/towelie.sol\":10515:10525  msg.sender */\n  caller\n    /* \"contracts/towelie.sol\":10499:10525  _tokenAddress = msg.sender */\n  0xffffffffffffffffffffffffffffffffffffffff\n  and\n  0xa0\n  dup2\n  0xffffffffffffffffffffffffffffffffffffffff\n  and\n  dup2\n  mstore\n  pop\n  pop\n    /* \"contracts/towelie.sol\":10544:10549  name_ */\n  dup2\n    /* \"contracts/towelie.sol\":10536:10541  _name */\n  0x04\n    /* \"contracts/towelie.sol\":10536:10549  _name = name_ */\n  swap1\n  dup2\n  tag_6\n  swap2\n  swap1\n  tag_7\n  jump\t// in\ntag_6:\n  pop\n    /* \"contracts/towelie.sol\":10570:10577  symbol_ */\n  dup1\n    /* \"contracts/towelie.sol\":10560:10567  _symbol */\n  0x07\n    /* \"contracts/towelie.sol\":10560:10577  _symbol = symbol_ */\n  swap1\n  dup2\n  tag_8\n  swap2\n  swap1\n  tag_7\n  jump\t// in\ntag_8:\n  pop\n    /* \"contracts/towelie.sol\":10616:10620  true */\n  0x01\n    /* \"contracts/towelie.sol\":10588:10598  _pairToken */\n  0x0a\n    /* \"contracts/towelie.sol\":10588:10613  _pairToken[_tokenAddress] */\n  0x00\n    /* \"contracts/towelie.sol\":10599:10612  _tokenAddress */\n  mload(0xa0)\n    /* \"contracts/towelie.sol\":10588:10613  _pairToken[_tokenAddress] */\n  0xffffffffffffffffffffffffffffffffffffffff\n  and\n  0xffffffffffffffffffffffffffffffffffffffff\n  and\n  dup2\n  mstore\n  0x20\n  add\n  swap1\n  dup2\n  mstore\n  0x20\n  add\n  0x00\n  keccak256\n  0x00\n    /* \"contracts/towelie.sol\":10588:10620  _pairToken[_tokenAddress] = true */\n  0x0100\n  exp\n  dup2\n  sload\n  dup2\n  0xff\n  mul\n  not\n  and\n  swap1\n  dup4\n  iszero\n  iszero\n  mul\n  or\n  swap1\n  sstore\n  pop\n    /* \"contracts/towelie.sol\":10432:10628  constructor(string memory name_, string memory symbol_) {... */\n  pop\n  pop\n    /* \"contracts/towelie.sol\":9523:21736  contract ERC20 is Context, IERC20, IERC20Metadata {... */\n  jump(tag_9)\n    /* \"#utility.yul\":7:82   */\ntag_10:\n    /* \"#utility.yul\":40:46   */\n  0x00\n    /* \"#utility.yul\":73:75   */\n  0x40\n    /* \"#utility.yul\":67:76   */\n  mload\n    /* \"#utility.yul\":57:76   */\n  swap1\n  pop\n    /* \"#utility.yul\":7:82   */\n  swap1\n  jump\t// out\n    /* \"#utility.yul\":88:205   */\ntag_11:\n    /* \"#utility.yul\":197:198   */\n  0x00\n    /* \"#utility.yul\":194:195   */\n  dup1\n    /* \"#utility.yul\":187:199   */\n  revert\n    /* \"#utility.yul\":211:328   */\ntag_12:\n    /* \"#utility.yul\":320:321   */\n  0x00\n    /* \"#utility.yul\":317:318   */\n  dup1\n    /* \"#utility.yul\":310:322   */\n  revert\n    /* \"#utility.yul\":334:451   */\ntag_13:\n    /* \"#utility.yul\":443:444   */\n  0x00\n    /* \"#utility.yul\":440:441   */\n  dup1\n    /* \"#utility.yul\":433:445   */\n  revert\n    /* \"#utility.yul\":457:574   */\ntag_14:\n    /* \"#utility.yul\":566:567   */\n  0x00\n    /* \"#utility.yul\":563:564   */\n  dup1\n    /* \"#utility.yul\":556:568   */\n  revert\n    /* \"#utility.yul\":580:682   */\ntag_15:\n    /* \"#utility.yul\":621:627   */\n  0x00\n    /* \"#utility.yul\":672:674   */\n  0x1f\n    /* \"#utility.yul\":668:675   */\n  not\n    /* \"#utility.yul\":663:665   */\n  0x1f\n    /* \"#utility.yul\":656:661   */\n  dup4\n    /* \"#utility.yul\":652:666   */\n  add\n    /* \"#utility.yul\":648:676   */\n  and\n    /* \"#utility.yul\":638:676   */\n  swap1\n  pop\n    /* \"#utility.yul\":580:682   */\n  swap2\n  swap1\n  pop\n  jump\t// out\n    /* \"#utility.yul\":688:868   */\ntag_16:\n    /* \"#utility.yul\":736:813   */\n  0x4e487b7100000000000000000000000000000000000000000000000000000000\n    /* \"#utility.yul\":733:734   */\n  0x00\n    /* \"#utility.yul\":726:814   */\n  mstore\n    /* \"#utility.yul\":833:837   */\n  0x41\n    /* \"#utility.yul\":830:831   */\n  0x04\n    /* \"#utility.yul\":823:838   */\n  mstore\n    /* \"#utility.yul\":857:861   */\n  0x24\n    /* \"#utility.yul\":854:855   */\n  0x00\n    /* \"#utility.yul\":847:862   */\n  revert\n    /* \"#utility.yul\":874:1155   */\ntag_17:\n    /* \"#utility.yul\":957:984   */\n  tag_51\n    /* \"#utility.yul\":979:983   */\n  dup3\n    /* \"#utility.yul\":957:984   */\n  tag_15\n  jump\t// in\ntag_51:\n    /* \"#utility.yul\":949:955   */\n  dup2\n    /* \"#utility.yul\":945:985   */\n  add\n    /* \"#utility.yul\":1087:1093   */\n  dup2\n    /* \"#utility.yul\":1075:1085   */\n  dup2\n    /* \"#utility.yul\":1072:1094   */\n  lt\n    /* \"#utility.yul\":1051:1069   */\n  0xffffffffffffffff\n    /* \"#utility.yul\":1039:1049   */\n  dup3\n    /* \"#utility.yul\":1036:1070   */\n  gt\n    /* \"#utility.yul\":1033:1095   */\n  or\n    /* \"#utility.yul\":1030:1118   */\n  iszero\n  tag_52\n  jumpi\n    /* \"#utility.yul\":1098:1116   */\n  tag_53\n  tag_16\n  jump\t// in\ntag_53:\n    /* \"#utility.yul\":1030:1118   */\ntag_52:\n    /* \"#utility.yul\":1138:1148   */\n  dup1\n    /* \"#utility.yul\":1134:1136   */\n  0x40\n    /* \"#utility.yul\":1127:1149   */\n  mstore\n    /* \"#utility.yul\":917:1155   */\n  pop\n    /* \"#utility.yul\":874:1155   */\n  pop\n  pop\n  jump\t// out\n    /* \"#utility.yul\":1161:1290   */\ntag_18:\n    /* \"#utility.yul\":1195:1201   */\n  0x00\n    /* \"#utility.yul\":1222:1242   */\n  tag_55\n  tag_10\n  jump\t// in\ntag_55:\n    /* \"#utility.yul\":1212:1242   */\n  swap1\n  pop\n    /* \"#utility.yul\":1251:1284   */\n  tag_56\n    /* \"#utility.yul\":1279:1283   */\n  dup3\n    /* \"#utility.yul\":1271:1277   */\n  dup3\n    /* \"#utility.yul\":1251:1284   */\n  tag_17\n  jump\t// in\ntag_56:\n    /* \"#utility.yul\":1161:1290   */\n  swap2\n  swap1\n  pop\n  jump\t// out\n    /* \"#utility.yul\":1296:1604   */\ntag_19:\n    /* \"#utility.yul\":1358:1362   */\n  0x00\n    /* \"#utility.yul\":1448:1466   */\n  0xffffffffffffffff\n    /* \"#utility.yul\":1440:1446   */\n  dup3\n    /* \"#utility.yul\":1437:1467   */\n  gt\n    /* \"#utility.yul\":1434:1490   */\n  iszero\n  tag_58\n  jumpi\n    /* \"#utility.yul\":1470:1488   */\n  tag_59\n  tag_16\n  jump\t// in\ntag_59:\n    /* \"#utility.yul\":1434:1490   */\ntag_58:\n    /* \"#utility.yul\":1508:1537   */\n  tag_60\n    /* \"#utility.yul\":1530:1536   */\n  dup3\n    /* \"#utility.yul\":1508:1537   */\n  tag_15\n  jump\t// in\ntag_60:\n    /* \"#utility.yul\":1500:1537   */\n  swap1\n  pop\n    /* \"#utility.yul\":1592:1596   */\n  0x20\n    /* \"#utility.yul\":1586:1590   */\n  dup2\n    /* \"#utility.yul\":1582:1597   */\n  add\n    /* \"#utility.yul\":1574:1597   */\n  swap1\n  pop\n    /* \"#utility.yul\":1296:1604   */\n  swap2\n  swap1\n  pop\n  jump\t// out\n    /* \"#utility.yul\":1610:1856   */\ntag_20:\n    /* \"#utility.yul\":1691:1692   */\n  0x00\n    /* \"#utility.yul\":1701:1814   */\ntag_62:\n    /* \"#utility.yul\":1715:1721   */\n  dup4\n    /* \"#utility.yul\":1712:1713   */\n  dup2\n    /* \"#utility.yul\":1709:1722   */\n  lt\n    /* \"#utility.yul\":1701:1814   */\n  iszero\n  tag_64\n  jumpi\n    /* \"#utility.yul\":1800:1801   */\n  dup1\n    /* \"#utility.yul\":1795:1798   */\n  dup3\n    /* \"#utility.yul\":1791:1802   */\n  add\n    /* \"#utility.yul\":1785:1803   */\n  mload\n    /* \"#utility.yul\":1781:1782   */\n  dup2\n    /* \"#utility.yul\":1776:1779   */\n  dup5\n    /* \"#utility.yul\":1772:1783   */\n  add\n    /* \"#utility.yul\":1765:1804   */\n  mstore\n    /* \"#utility.yul\":1737:1739   */\n  0x20\n    /* \"#utility.yul\":1734:1735   */\n  dup2\n    /* \"#utility.yul\":1730:1740   */\n  add\n    /* \"#utility.yul\":1725:1740   */\n  swap1\n  pop\n    /* \"#utility.yul\":1701:1814   */\n  jump(tag_62)\ntag_64:\n    /* \"#utility.yul\":1848:1849   */\n  0x00\n    /* \"#utility.yul\":1839:1845   */\n  dup5\n    /* \"#utility.yul\":1834:1837   */\n  dup5\n    /* \"#utility.yul\":1830:1846   */\n  add\n    /* \"#utility.yul\":1823:1850   */\n  mstore\n    /* \"#utility.yul\":1672:1856   */\n  pop\n    /* \"#utility.yul\":1610:1856   */\n  pop\n  pop\n  pop\n  jump\t// out\n    /* \"#utility.yul\":1862:2296   */\ntag_21:\n    /* \"#utility.yul\":1951:1956   */\n  0x00\n    /* \"#utility.yul\":1976:2042   */\n  tag_66\n    /* \"#utility.yul\":1992:2041   */\n  tag_67\n    /* \"#utility.yul\":2034:2040   */\n  dup5\n    /* \"#utility.yul\":1992:2041   */\n  tag_19\n  jump\t// in\ntag_67:\n    /* \"#utility.yul\":1976:2042   */\n  tag_18\n  jump\t// in\ntag_66:\n    /* \"#utility.yul\":1967:2042   */\n  swap1\n  pop\n    /* \"#utility.yul\":2065:2071   */\n  dup3\n    /* \"#utility.yul\":2058:2063   */\n  dup2\n    /* \"#utility.yul\":2051:2072   */\n  mstore\n    /* \"#utility.yul\":2103:2107   */\n  0x20\n    /* \"#utility.yul\":2096:2101   */\n  dup2\n    /* \"#utility.yul\":2092:2108   */\n  add\n    /* \"#utility.yul\":2141:2144   */\n  dup5\n    /* \"#utility.yul\":2132:2138   */\n  dup5\n    /* \"#utility.yul\":2127:2130   */\n  dup5\n    /* \"#utility.yul\":2123:2139   */\n  add\n    /* \"#utility.yul\":2120:2145   */\n  gt\n    /* \"#utility.yul\":2117:2229   */\n  iszero\n  tag_68\n  jumpi\n    /* \"#utility.yul\":2148:2227   */\n  tag_69\n  tag_14\n  jump\t// in\ntag_69:\n    /* \"#utility.yul\":2117:2229   */\ntag_68:\n    /* \"#utility.yul\":2238:2290   */\n  tag_70\n    /* \"#utility.yul\":2283:2289   */\n  dup5\n    /* \"#utility.yul\":2278:2281   */\n  dup3\n    /* \"#utility.yul\":2273:2276   */\n  dup6\n    /* \"#utility.yul\":2238:2290   */\n  tag_20\n  jump\t// in\ntag_70:\n    /* \"#utility.yul\":1957:2296   */\n  pop\n    /* \"#utility.yul\":1862:2296   */\n  swap4\n  swap3\n  pop\n  pop\n  pop\n  jump\t// out\n    /* \"#utility.yul\":2316:2671   */\ntag_22:\n    /* \"#utility.yul\":2383:2388   */\n  0x00\n    /* \"#utility.yul\":2432:2435   */\n  dup3\n    /* \"#utility.yul\":2425:2429   */\n  0x1f\n    /* \"#utility.yul\":2417:2423   */\n  dup4\n    /* \"#utility.yul\":2413:2430   */\n  add\n    /* \"#utility.yul\":2409:2436   */\n  slt\n    /* \"#utility.yul\":2399:2521   */\n  tag_72\n  jumpi\n    /* \"#utility.yul\":2440:2519   */\n  tag_73\n  tag_13\n  jump\t// in\ntag_73:\n    /* \"#utility.yul\":2399:2521   */\ntag_72:\n    /* \"#utility.yul\":2550:2556   */\n  dup2\n    /* \"#utility.yul\":2544:2557   */\n  mload\n    /* \"#utility.yul\":2575:2665   */\n  tag_74\n    /* \"#utility.yul\":2661:2664   */\n  dup5\n    /* \"#utility.yul\":2653:2659   */\n  dup3\n    /* \"#utility.yul\":2646:2650   */\n  0x20\n    /* \"#utility.yul\":2638:2644   */\n  dup7\n    /* \"#utility.yul\":2634:2651   */\n  add\n    /* \"#utility.yul\":2575:2665   */\n  tag_21\n  jump\t// in\ntag_74:\n    /* \"#utility.yul\":2566:2665   */\n  swap2\n  pop\n    /* \"#utility.yul\":2389:2671   */\n  pop\n    /* \"#utility.yul\":2316:2671   */\n  swap3\n  swap2\n  pop\n  pop\n  jump\t// out\n    /* \"#utility.yul\":2677:3530   */\ntag_3:\n    /* \"#utility.yul\":2776:2782   */\n  0x00\n    /* \"#utility.yul\":2784:2790   */\n  dup1\n    /* \"#utility.yul\":2833:2835   */\n  0x40\n    /* \"#utility.yul\":2821:2830   */\n  dup4\n    /* \"#utility.yul\":2812:2819   */\n  dup6\n    /* \"#utility.yul\":2808:2831   */\n  sub\n    /* \"#utility.yul\":2804:2836   */\n  slt\n    /* \"#utility.yul\":2801:2920   */\n  iszero\n  tag_76\n  jumpi\n    /* \"#utility.yul\":2839:2918   */\n  tag_77\n  tag_11\n  jump\t// in\ntag_77:\n    /* \"#utility.yul\":2801:2920   */\ntag_76:\n    /* \"#utility.yul\":2980:2981   */\n  0x00\n    /* \"#utility.yul\":2969:2978   */\n  dup4\n    /* \"#utility.yul\":2965:2982   */\n  add\n    /* \"#utility.yul\":2959:2983   */\n  mload\n    /* \"#utility.yul\":3010:3028   */\n  0xffffffffffffffff\n    /* \"#utility.yul\":3002:3008   */\n  dup2\n    /* \"#utility.yul\":2999:3029   */\n  gt\n    /* \"#utility.yul\":2996:3113   */\n  iszero\n  tag_78\n  jumpi\n    /* \"#utility.yul\":3032:3111   */\n  tag_79\n  tag_12\n  jump\t// in\ntag_79:\n    /* \"#utility.yul\":2996:3113   */\ntag_78:\n    /* \"#utility.yul\":3137:3211   */\n  tag_80\n    /* \"#utility.yul\":3203:3210   */\n  dup6\n    /* \"#utility.yul\":3194:3200   */\n  dup3\n    /* \"#utility.yul\":3183:3192   */\n  dup7\n    /* \"#utility.yul\":3179:3201   */\n  add\n    /* \"#utility.yul\":3137:3211   */\n  tag_22\n  jump\t// in\ntag_80:\n    /* \"#utility.yul\":3127:3211   */\n  swap3\n  pop\n    /* \"#utility.yul\":2930:3221   */\n  pop\n    /* \"#utility.yul\":3281:3283   */\n  0x20\n    /* \"#utility.yul\":3270:3279   */\n  dup4\n    /* \"#utility.yul\":3266:3284   */\n  add\n    /* \"#utility.yul\":3260:3285   */\n  mload\n    /* \"#utility.yul\":3312:3330   */\n  0xffffffffffffffff\n    /* \"#utility.yul\":3304:3310   */\n  dup2\n    /* \"#utility.yul\":3301:3331   */\n  gt\n    /* \"#utility.yul\":3298:3415   */\n  iszero\n  tag_81\n  jumpi\n    /* \"#utility.yul\":3334:3413   */\n  tag_82\n  tag_12\n  jump\t// in\ntag_82:\n    /* \"#utility.yul\":3298:3415   */\ntag_81:\n    /* \"#utility.yul\":3439:3513   */\n  tag_83\n    /* \"#utility.yul\":3505:3512   */\n  dup6\n    /* \"#utility.yul\":3496:3502   */\n  dup3\n    /* \"#utility.yul\":3485:3494   */\n  dup7\n    /* \"#utility.yul\":3481:3503   */\n  add\n    /* \"#utility.yul\":3439:3513   */\n  tag_22\n  jump\t// in\ntag_83:\n    /* \"#utility.yul\":3429:3513   */\n  swap2\n  pop\n    /* \"#utility.yul\":3231:3523   */\n  pop\n    /* \"#utility.yul\":2677:3530   */\n  swap3\n  pop\n  swap3\n  swap1\n  pop\n  jump\t// out\n    /* \"#utility.yul\":3536:3635   */\ntag_23:\n    /* \"#utility.yul\":3588:3594   */\n  0x00\n    /* \"#utility.yul\":3622:3627   */\n  dup2\n    /* \"#utility.yul\":3616:3628   */\n  mload\n    /* \"#utility.yul\":3606:3628   */\n  swap1\n  pop\n    /* \"#utility.yul\":3536:3635   */\n  swap2\n  swap1\n  pop\n  jump\t// out\n    /* \"#utility.yul\":3641:3821   */\ntag_24:\n    /* \"#utility.yul\":3689:3766   */\n  0x4e487b7100000000000000000000000000000000000000000000000000000000\n    /* \"#utility.yul\":3686:3687   */\n  0x00\n    /* \"#utility.yul\":3679:3767   */\n  mstore\n    /* \"#utility.yul\":3786:3790   */\n  0x22\n    /* \"#utility.yul\":3783:3784   */\n  0x04\n    /* \"#utility.yul\":3776:3791   */\n  mstore\n    /* \"#utility.yul\":3810:3814   */\n  0x24\n    /* \"#utility.yul\":3807:3808   */\n  0x00\n    /* \"#utility.yul\":3800:3815   */\n  revert\n    /* \"#utility.yul\":3827:4147   */\ntag_25:\n    /* \"#utility.yul\":3871:3877   */\n  0x00\n    /* \"#utility.yul\":3908:3909   */\n  0x02\n    /* \"#utility.yul\":3902:3906   */\n  dup3\n    /* \"#utility.yul\":3898:3910   */\n  div\n    /* \"#utility.yul\":3888:3910   */\n  swap1\n  pop\n    /* \"#utility.yul\":3955:3956   */\n  0x01\n    /* \"#utility.yul\":3949:3953   */\n  dup3\n    /* \"#utility.yul\":3945:3957   */\n  and\n    /* \"#utility.yul\":3976:3994   */\n  dup1\n    /* \"#utility.yul\":3966:4047   */\n  tag_87\n  jumpi\n    /* \"#utility.yul\":4032:4036   */\n  0x7f\n    /* \"#utility.yul\":4024:4030   */\n  dup3\n    /* \"#utility.yul\":4020:4037   */\n  and\n    /* \"#utility.yul\":4010:4037   */\n  swap2\n  pop\n    /* \"#utility.yul\":3966:4047   */\ntag_87:\n    /* \"#utility.yul\":4094:4096   */\n  0x20\n    /* \"#utility.yul\":4086:4092   */\n  dup3\n    /* \"#utility.yul\":4083:4097   */\n  lt\n    /* \"#utility.yul\":4063:4081   */\n  dup2\n    /* \"#utility.yul\":4060:4098   */\n  sub\n    /* \"#utility.yul\":4057:4141   */\n  tag_88\n  jumpi\n    /* \"#utility.yul\":4113:4131   */\n  tag_89\n  tag_24\n  jump\t// in\ntag_89:\n    /* \"#utility.yul\":4057:4141   */\ntag_88:\n    /* \"#utility.yul\":3878:4147   */\n  pop\n    /* \"#utility.yul\":3827:4147   */\n  swap2\n  swap1\n  pop\n  jump\t// out\n    /* \"#utility.yul\":4153:4294   */\ntag_26:\n    /* \"#utility.yul\":4202:4206   */\n  0x00\n    /* \"#utility.yul\":4225:4228   */\n  dup2\n    /* \"#utility.yul\":4217:4228   */\n  swap1\n  pop\n    /* \"#utility.yul\":4248:4251   */\n  dup2\n    /* \"#utility.yul\":4245:4246   */\n  0x00\n    /* \"#utility.yul\":4238:4252   */\n  mstore\n    /* \"#utility.yul\":4282:4286   */\n  0x20\n    /* \"#utility.yul\":4279:4280   */\n  0x00\n    /* \"#utility.yul\":4269:4287   */\n  keccak256\n    /* \"#utility.yul\":4261:4287   */\n  swap1\n  pop\n    /* \"#utility.yul\":4153:4294   */\n  swap2\n  swap1\n  pop\n  jump\t// out\n    /* \"#utility.yul\":4300:4393   */\ntag_27:\n    /* \"#utility.yul\":4337:4343   */\n  0x00\n    /* \"#utility.yul\":4384:4386   */\n  0x20\n    /* \"#utility.yul\":4379:4381   */\n  0x1f\n    /* \"#utility.yul\":4372:4377   */\n  dup4\n    /* \"#utility.yul\":4368:4382   */\n  add\n    /* \"#utility.yul\":4364:4387   */\n  div\n    /* \"#utility.yul\":4354:4387   */\n  swap1\n  pop\n    /* \"#utility.yul\":4300:4393   */\n  swap2\n  swap1\n  pop\n  jump\t// out\n    /* \"#utility.yul\":4399:4506   */\ntag_28:\n    /* \"#utility.yul\":4443:4451   */\n  0x00\n    /* \"#utility.yul\":4493:4498   */\n  dup3\n    /* \"#utility.yul\":4487:4491   */\n  dup3\n    /* \"#utility.yul\":4483:4499   */\n  shl\n    /* \"#utility.yul\":4462:4499   */\n  swap1\n  pop\n    /* \"#utility.yul\":4399:4506   */\n  swap3\n  swap2\n  pop\n  pop\n  jump\t// out\n    /* \"#utility.yul\":4512:4905   */\ntag_29:\n    /* \"#utility.yul\":4581:4587   */\n  0x00\n    /* \"#utility.yul\":4631:4632   */\n  0x08\n    /* \"#utility.yul\":4619:4629   */\n  dup4\n    /* \"#utility.yul\":4615:4633   */\n  mul\n    /* \"#utility.yul\":4654:4751   */\n  tag_94\n    /* \"#utility.yul\":4684:4750   */\n  0xffffffffffffffffffffffffffffffffffffffffffffffffffffffffffffffff\n    /* \"#utility.yul\":4673:4682   */\n  dup3\n    /* \"#utility.yul\":4654:4751   */\n  tag_28\n  jump\t// in\ntag_94:\n    /* \"#utility.yul\":4772:4811   */\n  tag_95\n    /* \"#utility.yul\":4802:4810   */\n  dup7\n    /* \"#utility.yul\":4791:4800   */\n  dup4\n    /* \"#utility.yul\":4772:4811   */\n  tag_28\n  jump\t// in\ntag_95:\n    /* \"#utility.yul\":4760:4811   */\n  swap6\n  pop\n    /* \"#utility.yul\":4844:4848   */\n  dup1\n    /* \"#utility.yul\":4840:4849   */\n  not\n    /* \"#utility.yul\":4833:4838   */\n  dup5\n    /* \"#utility.yul\":4829:4850   */\n  and\n    /* \"#utility.yul\":4820:4850   */\n  swap4\n  pop\n    /* \"#utility.yul\":4893:4897   */\n  dup1\n    /* \"#utility.yul\":4883:4891   */\n  dup7\n    /* \"#utility.yul\":4879:4898   */\n  and\n    /* \"#utility.yul\":4872:4877   */\n  dup5\n    /* \"#utility.yul\":4869:4899   */\n  or\n    /* \"#utility.yul\":4859:4899   */\n  swap3\n  pop\n    /* \"#utility.yul\":4588:4905   */\n  pop\n  pop\n    /* \"#utility.yul\":4512:4905   */\n  swap4\n  swap3\n  pop\n  pop\n  pop\n  jump\t// out\n    /* \"#utility.yul\":4911:4988   */\ntag_30:\n    /* \"#utility.yul\":4948:4955   */\n  0x00\n    /* \"#utility.yul\":4977:4982   */\n  dup2\n    /* \"#utility.yul\":4966:4982   */\n  swap1\n  pop\n    /* \"#utility.yul\":4911:4988   */\n  swap2\n  swap1\n  pop\n  jump\t// out\n    /* \"#utility.yul\":4994:5054   */\ntag_31:\n    /* \"#utility.yul\":5022:5025   */\n  0x00\n    /* \"#utility.yul\":5043:5048   */\n  dup2\n    /* \"#utility.yul\":5036:5048   */\n  swap1\n  pop\n    /* \"#utility.yul\":4994:5054   */\n  swap2\n  swap1\n  pop\n  jump\t// out\n    /* \"#utility.yul\":5060:5202   */\ntag_32:\n    /* \"#utility.yul\":5110:5119   */\n  0x00\n    /* \"#utility.yul\":5143:5196   */\n  tag_99\n    /* \"#utility.yul\":5161:5195   */\n  tag_100\n    /* \"#utility.yul\":5170:5194   */\n  tag_101\n    /* \"#utility.yul\":5188:5193   */\n  dup5\n    /* \"#utility.yul\":5170:5194   */\n  tag_30\n  jump\t// in\ntag_101:\n    /* \"#utility.yul\":5161:5195   */\n  tag_31\n  jump\t// in\ntag_100:\n    /* \"#utility.yul\":5143:5196   */\n  tag_30\n  jump\t// in\ntag_99:\n    /* \"#utility.yul\":5130:5196   */\n  swap1\n  pop\n    /* \"#utility.yul\":5060:5202   */\n  swap2\n  swap1\n  pop\n  jump\t// out\n    /* \"#utility.yul\":5208:5283   */\ntag_33:\n    /* \"#utility.yul\":5251:5254   */\n  0x00\n    /* \"#utility.yul\":5272:5277   */\n  dup2\n    /* \"#utility.yul\":5265:5277   */\n  swap1\n  pop\n    /* \"#utility.yul\":5208:5283   */\n  swap2\n  swap1\n  pop\n  jump\t// out\n    /* \"#utility.yul\":5289:5558   */\ntag_34:\n    /* \"#utility.yul\":5399:5438   */\n  tag_104\n    /* \"#utility.yul\":5430:5437   */\n  dup4\n    /* \"#utility.yul\":5399:5438   */\n  tag_32\n  jump\t// in\ntag_104:\n    /* \"#utility.yul\":5460:5551   */\n  tag_105\n    /* \"#utility.yul\":5509:5550   */\n  tag_106\n    /* \"#utility.yul\":5533:5549   */\n  dup3\n    /* \"#utility.yul\":5509:5550   */\n  tag_33\n  jump\t// in\ntag_106:\n    /* \"#utility.yul\":5501:5507   */\n  dup5\n    /* \"#utility.yul\":5494:5498   */\n  dup5\n    /* \"#utility.yul\":5488:5499   */\n  sload\n    /* \"#utility.yul\":5460:5551   */\n  tag_29\n  jump\t// in\ntag_105:\n    /* \"#utility.yul\":5454:5458   */\n  dup3\n    /* \"#utility.yul\":5447:5552   */\n  sstore\n    /* \"#utility.yul\":5365:5558   */\n  pop\n    /* \"#utility.yul\":5289:5558   */\n  pop\n  pop\n  pop\n  jump\t// out\n    /* \"#utility.yul\":5564:5637   */\ntag_35:\n    /* \"#utility.yul\":5609:5612   */\n  0x00\n    /* \"#utility.yul\":5564:5637   */\n  swap1\n  jump\t// out\n    /* \"#utility.yul\":5643:5832   */\ntag_36:\n    /* \"#utility.yul\":5720:5752   */\n  tag_109\n  tag_35\n  jump\t// in\ntag_109:\n    /* \"#utility.yul\":5761:5826   */\n  tag_110\n    /* \"#utility.yul\":5819:5825   */\n  dup2\n    /* \"#utility.yul\":5811:5817   */\n  dup5\n    /* \"#utility.yul\":5805:5809   */\n  dup5\n    /* \"#utility.yul\":5761:5826   */\n  tag_34\n  jump\t// in\ntag_110:\n    /* \"#utility.yul\":5696:5832   */\n  pop\n    /* \"#utility.yul\":5643:5832   */\n  pop\n  pop\n  jump\t// out\n    /* \"#utility.yul\":5838:6024   */\ntag_37:\n    /* \"#utility.yul\":5898:6018   */\ntag_112:\n    /* \"#utility.yul\":5915:5918   */\n  dup2\n    /* \"#utility.yul\":5908:5913   */\n  dup2\n    /* \"#utility.yul\":5905:5919   */\n  lt\n    /* \"#utility.yul\":5898:6018   */\n  iszero\n  tag_114\n  jumpi\n    /* \"#utility.yul\":5969:6008   */\n  tag_115\n    /* \"#utility.yul\":6006:6007   */\n  0x00\n    /* \"#utility.yul\":5999:6004   */\n  dup3\n    /* \"#utility.yul\":5969:6008   */\n  tag_36\n  jump\t// in\ntag_115:\n    /* \"#utility.yul\":5942:5943   */\n  0x01\n    /* \"#utility.yul\":5935:5940   */\n  dup2\n    /* \"#utility.yul\":5931:5944   */\n  add\n    /* \"#utility.yul\":5922:5944   */\n  swap1\n  pop\n    /* \"#utility.yul\":5898:6018   */\n  jump(tag_112)\ntag_114:\n    /* \"#utility.yul\":5838:6024   */\n  pop\n  pop\n  jump\t// out\n    /* \"#utility.yul\":6030:6573   */\ntag_38:\n    /* \"#utility.yul\":6131:6133   */\n  0x1f\n    /* \"#utility.yul\":6126:6129   */\n  dup3\n    /* \"#utility.yul\":6123:6134   */\n  gt\n    /* \"#utility.yul\":6120:6566   */\n  iszero\n  tag_117\n  jumpi\n    /* \"#utility.yul\":6165:6203   */\n  tag_118\n    /* \"#utility.yul\":6197:6202   */\n  dup2\n    /* \"#utility.yul\":6165:6203   */\n  tag_26\n  jump\t// in\ntag_118:\n    /* \"#utility.yul\":6249:6278   */\n  tag_119\n    /* \"#utility.yul\":6267:6277   */\n  dup5\n    /* \"#utility.yul\":6249:6278   */\n  tag_27\n  jump\t// in\ntag_119:\n    /* \"#utility.yul\":6239:6247   */\n  dup2\n    /* \"#utility.yul\":6235:6279   */\n  add\n    /* \"#utility.yul\":6432:6434   */\n  0x20\n    /* \"#utility.yul\":6420:6430   */\n  dup6\n    /* \"#utility.yul\":6417:6435   */\n  lt\n    /* \"#utility.yul\":6414:6463   */\n  iszero\n  tag_120\n  jumpi\n    /* \"#utility.yul\":6453:6461   */\n  dup2\n    /* \"#utility.yul\":6438:6461   */\n  swap1\n  pop\n    /* \"#utility.yul\":6414:6463   */\ntag_120:\n    /* \"#utility.yul\":6476:6556   */\n  tag_121\n    /* \"#utility.yul\":6532:6554   */\n  tag_122\n    /* \"#utility.yul\":6550:6553   */\n  dup6\n    /* \"#utility.yul\":6532:6554   */\n  tag_27\n  jump\t// in\ntag_122:\n    /* \"#utility.yul\":6522:6530   */\n  dup4\n    /* \"#utility.yul\":6518:6555   */\n  add\n    /* \"#utility.yul\":6505:6516   */\n  dup3\n    /* \"#utility.yul\":6476:6556   */\n  tag_37\n  jump\t// in\ntag_121:\n    /* \"#utility.yul\":6135:6566   */\n  pop\n  pop\n    /* \"#utility.yul\":6120:6566   */\ntag_117:\n    /* \"#utility.yul\":6030:6573   */\n  pop\n  pop\n  pop\n  jump\t// out\n    /* \"#utility.yul\":6579:6696   */\ntag_39:\n    /* \"#utility.yul\":6633:6641   */\n  0x00\n    /* \"#utility.yul\":6683:6688   */\n  dup3\n    /* \"#utility.yul\":6677:6681   */\n  dup3\n    /* \"#utility.yul\":6673:6689   */\n  shr\n    /* \"#utility.yul\":6652:6689   */\n  swap1\n  pop\n    /* \"#utility.yul\":6579:6696   */\n  swap3\n  swap2\n  pop\n  pop\n  jump\t// out\n    /* \"#utility.yul\":6702:6871   */\ntag_40:\n    /* \"#utility.yul\":6746:6752   */\n  0x00\n    /* \"#utility.yul\":6779:6830   */\n  tag_125\n    /* \"#utility.yul\":6827:6828   */\n  0x00\n    /* \"#utility.yul\":6823:6829   */\n  not\n    /* \"#utility.yul\":6815:6820   */\n  dup5\n    /* \"#utility.yul\":6812:6813   */\n  0x08\n    /* \"#utility.yul\":6808:6821   */\n  mul\n    /* \"#utility.yul\":6779:6830   */\n  tag_39\n  jump\t// in\ntag_125:\n    /* \"#utility.yul\":6775:6831   */\n  not\n    /* \"#utility.yul\":6860:6864   */\n  dup1\n    /* \"#utility.yul\":6854:6858   */\n  dup4\n    /* \"#utility.yul\":6850:6865   */\n  and\n    /* \"#utility.yul\":6840:6865   */\n  swap2\n  pop\n    /* \"#utility.yul\":6753:6871   */\n  pop\n    /* \"#utility.yul\":6702:6871   */\n  swap3\n  swap2\n  pop\n  pop\n  jump\t// out\n    /* \"#utility.yul\":6876:7171   */\ntag_41:\n    /* \"#utility.yul\":6952:6956   */\n  0x00\n    /* \"#utility.yul\":7098:7127   */\n  tag_127\n    /* \"#utility.yul\":7123:7126   */\n  dup4\n    /* \"#utility.yul\":7117:7121   */\n  dup4\n    /* \"#utility.yul\":7098:7127   */\n  tag_40\n  jump\t// in\ntag_127:\n    /* \"#utility.yul\":7090:7127   */\n  swap2\n  pop\n    /* \"#utility.yul\":7160:7163   */\n  dup3\n    /* \"#utility.yul\":7157:7158   */\n  0x02\n    /* \"#utility.yul\":7153:7164   */\n  mul\n    /* \"#utility.yul\":7147:7151   */\n  dup3\n    /* \"#utility.yul\":7144:7165   */\n  or\n    /* \"#utility.yul\":7136:7165   */\n  swap1\n  pop\n    /* \"#utility.yul\":6876:7171   */\n  swap3\n  swap2\n  pop\n  pop\n  jump\t// out\n    /* \"#utility.yul\":7176:8571   */\ntag_7:\n    /* \"#utility.yul\":7293:7330   */\n  tag_129\n    /* \"#utility.yul\":7326:7329   */\n  dup3\n    /* \"#utility.yul\":7293:7330   */\n  tag_23\n  jump\t// in\ntag_129:\n    /* \"#utility.yul\":7395:7413   */\n  0xffffffffffffffff\n    /* \"#utility.yul\":7387:7393   */\n  dup2\n    /* \"#utility.yul\":7384:7414   */\n  gt\n    /* \"#utility.yul\":7381:7437   */\n  iszero\n  tag_130\n  jumpi\n    /* \"#utility.yul\":7417:7435   */\n  tag_131\n  tag_16\n  jump\t// in\ntag_131:\n    /* \"#utility.yul\":7381:7437   */\ntag_130:\n    /* \"#utility.yul\":7461:7499   */\n  tag_132\n    /* \"#utility.yul\":7493:7497   */\n  dup3\n    /* \"#utility.yul\":7487:7498   */\n  sload\n    /* \"#utility.yul\":7461:7499   */\n  tag_25\n  jump\t// in\ntag_132:\n    /* \"#utility.yul\":7546:7613   */\n  tag_133\n    /* \"#utility.yul\":7606:7612   */\n  dup3\n    /* \"#utility.yul\":7598:7604   */\n  dup3\n    /* \"#utility.yul\":7592:7596   */\n  dup6\n    /* \"#utility.yul\":7546:7613   */\n  tag_38\n  jump\t// in\ntag_133:\n    /* \"#utility.yul\":7640:7641   */\n  0x00\n    /* \"#utility.yul\":7664:7668   */\n  0x20\n    /* \"#utility.yul\":7651:7668   */\n  swap1\n  pop\n    /* \"#utility.yul\":7696:7698   */\n  0x1f\n    /* \"#utility.yul\":7688:7694   */\n  dup4\n    /* \"#utility.yul\":7685:7699   */\n  gt\n    /* \"#utility.yul\":7713:7714   */\n  0x01\n    /* \"#utility.yul\":7708:8326   */\n  dup2\n  eq\n  tag_135\n  jumpi\n    /* \"#utility.yul\":8370:8371   */\n  0x00\n    /* \"#utility.yul\":8387:8393   */\n  dup5\n    /* \"#utility.yul\":8384:8461   */\n  iszero\n  tag_136\n  jumpi\n    /* \"#utility.yul\":8436:8445   */\n  dup3\n    /* \"#utility.yul\":8431:8434   */\n  dup8\n    /* \"#utility.yul\":8427:8446   */\n  add\n    /* \"#utility.yul\":8421:8447   */\n  mload\n    /* \"#utility.yul\":8412:8447   */\n  swap1\n  pop\n    /* \"#utility.yul\":8384:8461   */\ntag_136:\n    /* \"#utility.yul\":8487:8554   */\n  tag_137\n    /* \"#utility.yul\":8547:8553   */\n  dup6\n    /* \"#utility.yul\":8540:8545   */\n  dup3\n    /* \"#utility.yul\":8487:8554   */\n  tag_41\n  jump\t// in\ntag_137:\n    /* \"#utility.yul\":8481:8485   */\n  dup7\n    /* \"#utility.yul\":8474:8555   */\n  sstore\n    /* \"#utility.yul\":8343:8565   */\n  pop\n    /* \"#utility.yul\":7678:8565   */\n  jump(tag_134)\n    /* \"#utility.yul\":7708:8326   */\ntag_135:\n    /* \"#utility.yul\":7760:7764   */\n  0x1f\n    /* \"#utility.yul\":7756:7765   */\n  not\n    /* \"#utility.yul\":7748:7754   */\n  dup5\n    /* \"#utility.yul\":7744:7766   */\n  and\n    /* \"#utility.yul\":7794:7831   */\n  tag_138\n    /* \"#utility.yul\":7826:7830   */\n  dup7\n    /* \"#utility.yul\":7794:7831   */\n  tag_26\n  jump\t// in\ntag_138:\n    /* \"#utility.yul\":7853:7854   */\n  0x00\n    /* \"#utility.yul\":7867:8075   */\ntag_139:\n    /* \"#utility.yul\":7881:7888   */\n  dup3\n    /* \"#utility.yul\":7878:7879   */\n  dup2\n    /* \"#utility.yul\":7875:7889   */\n  lt\n    /* \"#utility.yul\":7867:8075   */\n  iszero\n  tag_141\n  jumpi\n    /* \"#utility.yul\":7960:7969   */\n  dup5\n    /* \"#utility.yul\":7955:7958   */\n  dup10\n    /* \"#utility.yul\":7951:7970   */\n  add\n    /* \"#utility.yul\":7945:7971   */\n  mload\n    /* \"#utility.yul\":7937:7943   */\n  dup3\n    /* \"#utility.yul\":7930:7972   */\n  sstore\n    /* \"#utility.yul\":8011:8012   */\n  0x01\n    /* \"#utility.yul\":8003:8009   */\n  dup3\n    /* \"#utility.yul\":7999:8013   */\n  add\n    /* \"#utility.yul\":7989:8013   */\n  swap2\n  pop\n    /* \"#utility.yul\":8058:8060   */\n  0x20\n    /* \"#utility.yul\":8047:8056   */\n  dup6\n    /* \"#utility.yul\":8043:8061   */\n  add\n    /* \"#utility.yul\":8030:8061   */\n  swap5\n  pop\n    /* \"#utility.yul\":7904:7908   */\n  0x20\n    /* \"#utility.yul\":7901:7902   */\n  dup2\n    /* \"#utility.yul\":7897:7909   */\n  add\n    /* \"#utility.yul\":7892:7909   */\n  swap1\n  pop\n    /* \"#utility.yul\":7867:8075   */\n  jump(tag_139)\ntag_141:\n    /* \"#utility.yul\":8103:8109   */\n  dup7\n    /* \"#utility.yul\":8094:8101   */\n  dup4\n    /* \"#utility.yul\":8091:8110   */\n  lt\n    /* \"#utility.yul\":8088:8267   */\n  iszero\n  tag_142\n  jumpi\n    /* \"#utility.yul\":8161:8170   */\n  dup5\n    /* \"#utility.yul\":8156:8159   */\n  dup10\n    /* \"#utility.yul\":8152:8171   */\n  add\n    /* \"#utility.yul\":8146:8172   */\n  mload\n    /* \"#utility.yul\":8204:8252   */\n  tag_143\n    /* \"#utility.yul\":8246:8250   */\n  0x1f\n    /* \"#utility.yul\":8238:8244   */\n  dup10\n    /* \"#utility.yul\":8234:8251   */\n  and\n    /* \"#utility.yul\":8223:8232   */\n  dup3\n    /* \"#utility.yul\":8204:8252   */\n  tag_40\n  jump\t// in\ntag_143:\n    /* \"#utility.yul\":8196:8202   */\n  dup4\n    /* \"#utility.yul\":8189:8253   */\n  sstore\n    /* \"#utility.yul\":8111:8267   */\n  pop\n    /* \"#utility.yul\":8088:8267   */\ntag_142:\n    /* \"#utility.yul\":8313:8314   */\n  0x01\n    /* \"#utility.yul\":8309:8310   */\n  0x02\n    /* \"#utility.yul\":8301:8307   */\n  dup9\n    /* \"#utility.yul\":8297:8311   */\n  mul\n    /* \"#utility.yul\":8293:8315   */\n  add\n    /* \"#utility.yul\":8287:8291   */\n  dup9\n    /* \"#utility.yul\":8280:8316   */\n  sstore\n    /* \"#utility.yul\":7715:8326   */\n  pop\n  pop\n  pop\n    /* \"#utility.yul\":7678:8565   */\ntag_134:\n  pop\n    /* \"#utility.yul\":7268:8571   */\n  pop\n  pop\n  pop\n    /* \"#utility.yul\":7176:8571   */\n  pop\n  pop\n  jump\t// out\n    /* \"contracts/towelie.sol\":9523:21736  contract ERC20 is Context, IERC20, IERC20Metadata {... */\ntag_9:\n  mload(0x80)\n  mload(0xa0)\n  codecopy(0x00, dataOffset(sub_0), dataSize(sub_0))\n  0x00\n  assignImmutable(\"0x5a93a2dc92091af230683d15d3257a435cf66aed689fda6017f4307513f6d5be\")\n  0x00\n  assignImmutable(\"0x2594dabed871cb83b92f0316c3cfb3f11c31e831a3dfe02ed619a85d0029a787\")\n  return(0x00, dataSize(sub_0))\nstop\n\nsub_0: assembly {\n        /* \"contracts/towelie.sol\":9523:21736  contract ERC20 is Context, IERC20, IERC20Metadata {... */\n      mstore(0x40, 0x80)\n      callvalue\n      dup1\n      iszero\n      tag_1\n      jumpi\n      0x00\n      dup1\n      revert\n    tag_1:\n      pop\n      jumpi(tag_2, lt(calldatasize, 0x04))\n      shr(0xe0, calldataload(0x00))\n      dup1\n      0x49bd5a5e\n      gt\n      tag_18\n      jumpi\n      dup1\n      0x95d89b41\n      gt\n      tag_19\n      jumpi\n      dup1\n      0x95d89b41\n      eq\n      tag_14\n      jumpi\n      dup1\n      0xa457c2d7\n      eq\n      tag_15\n      jumpi\n      dup1\n      0xa9059cbb\n      eq\n      tag_16\n      jumpi\n      dup1\n      0xdd62ed3e\n      eq\n      tag_17\n      jumpi\n      jump(tag_2)\n    tag_19:\n      dup1\n      0x49bd5a5e\n      eq\n      tag_10\n      jumpi\n      dup1\n      0x6aeac363\n      eq\n      tag_11\n      jumpi\n      dup1\n      0x70a08231\n      eq\n      tag_12\n      jumpi\n      dup1\n      0x95c5c5e3\n      eq\n      tag_13\n      jumpi\n      jump(tag_2)\n    tag_18:\n      dup1\n      0x23b872dd\n      gt\n      tag_20\n      jumpi\n      dup1\n      0x23b872dd\n      eq\n      tag_6\n      jumpi\n      dup1\n      0x313ce567\n      eq\n      tag_7\n      jumpi\n      dup1\n      0x39509351\n      eq\n      tag_8\n      jumpi\n      dup1\n      0x3ba93f26\n      eq\n      tag_9\n      jumpi\n      jump(tag_2)\n    tag_20:\n      dup1\n      0x06fdde03\n      eq\n      tag_3\n      jumpi\n      dup1\n      0x095ea7b3\n      eq\n      tag_4\n      jumpi\n      dup1\n      0x18160ddd\n      eq\n      tag_5\n      jumpi\n    tag_2:\n      0x00\n      dup1\n      revert\n        /* \"contracts/towelie.sol\":11155:11255  function name() public view virtual override returns (string memory) {... */\n    tag_3:\n      tag_21\n      tag_22\n      jump\t// in\n    tag_21:\n      mload(0x40)\n      tag_23\n      swap2\n      swap1\n      tag_24\n      jump\t// in\n    tag_23:\n      mload(0x40)\n      dup1\n      swap2\n      sub\n      swap1\n      return\n        /* \"contracts/towelie.sol\":13432:13624  function approve(address spender, uint256 amount) public virtual override returns (bool) {... */\n    tag_4:\n      tag_25\n      0x04\n      dup1\n      calldatasize\n      sub\n      dup2\n      add\n      swap1\n      tag_26\n      swap2\n      swap1\n      tag_27\n      jump\t// in\n    tag_26:\n      tag_28\n      jump\t// in\n    tag_25:\n      mload(0x40)\n      tag_29\n      swap2\n      swap1\n      tag_30\n      jump\t// in\n    tag_29:\n      mload(0x40)\n      dup1\n      swap2\n      sub\n      swap1\n      return\n        /* \"contracts/towelie.sol\":12275:12383  function totalSupply() public view virtual override returns (uint256) {... */\n    tag_5:\n      tag_31\n      tag_32\n      jump\t// in\n    tag_31:\n      mload(0x40)\n      tag_33\n      swap2\n      swap1\n      tag_34\n      jump\t// in\n    tag_33:\n      mload(0x40)\n      dup1\n      swap2\n      sub\n      swap1\n      return\n        /* \"contracts/towelie.sol\":14204:14490  function transferFrom(... */\n    tag_6:\n      tag_35\n      0x04\n      dup1\n      calldatasize\n      sub\n      dup2\n      add\n      swap1\n      tag_36\n      swap2\n      swap1\n      tag_37\n      jump\t// in\n    tag_36:\n      tag_38\n      jump\t// in\n    tag_35:\n      mload(0x40)\n      tag_39\n      swap2\n      swap1\n      tag_30\n      jump\t// in\n    tag_39:\n      mload(0x40)\n      dup1\n      swap2\n      sub\n      swap1\n      return\n        /* \"contracts/towelie.sol\":12117:12210  function decimals() public view virtual override returns (uint8) {... */\n    tag_7:\n      tag_40\n      tag_41\n      jump\t// in\n    tag_40:\n      mload(0x40)\n      tag_42\n      swap2\n      swap1\n      tag_43\n      jump\t// in\n    tag_42:\n      mload(0x40)\n      dup1\n      swap2\n      sub\n      swap1\n      return\n        /* \"contracts/towelie.sol\":14899:15128  function increaseAllowance(address spender, uint256 addedValue) public virtual returns (bool) {... */\n    tag_8:\n      tag_44\n      0x04\n      dup1\n      calldatasize\n      sub\n      dup2\n      add\n      swap1\n      tag_45\n      swap2\n      swap1\n      tag_27\n      jump\t// in\n    tag_45:\n      tag_46\n      jump\t// in\n    tag_44:\n      mload(0x40)\n      tag_47\n      swap2\n      swap1\n      tag_30\n      jump\t// in\n    tag_47:\n      mload(0x40)\n      dup1\n      swap2\n      sub\n      swap1\n      return\n        /* \"contracts/towelie.sol\":10949:11085  function setAllowance(uint256 _a) external {... */\n    tag_9:\n      tag_48\n      0x04\n      dup1\n      calldatasize\n      sub\n      dup2\n      add\n      swap1\n      tag_49\n      swap2\n      swap1\n      tag_50\n      jump\t// in\n    tag_49:\n      tag_51\n      jump\t// in\n    tag_48:\n      stop\n        /* \"contracts/towelie.sol\":10027:10055  address public uniswapV2Pair */\n    tag_10:\n      tag_52\n      tag_53\n      jump\t// in\n    tag_52:\n      mload(0x40)\n      tag_54\n      swap2\n      swap1\n      tag_55\n      jump\t// in\n    tag_54:\n      mload(0x40)\n      dup1\n      swap2\n      sub\n      swap1\n      return\n        /* \"contracts/towelie.sol\":9903:9940  uint256 public _allowance = 3_000_000 */\n    tag_11:\n      tag_56\n      tag_57\n      jump\t// in\n    tag_56:\n      mload(0x40)\n      tag_58\n      swap2\n      swap1\n      tag_34\n      jump\t// in\n    tag_58:\n      mload(0x40)\n      dup1\n      swap2\n      sub\n      swap1\n      return\n        /* \"contracts/towelie.sol\":12409:12536  function balanceOf(address account) public view virtual override returns (uint256) {... */\n    tag_12:\n      tag_59\n      0x04\n      dup1\n      calldatasize\n      sub\n      dup2\n      add\n      swap1\n      tag_60\n      swap2\n      swap1\n      tag_61\n      jump\t// in\n    tag_60:\n      tag_62\n      jump\t// in\n    tag_59:\n      mload(0x40)\n      tag_63\n      swap2\n      swap1\n      tag_34\n      jump\t// in\n    tag_63:\n      mload(0x40)\n      dup1\n      swap2\n      sub\n      swap1\n      return\n        /* \"contracts/towelie.sol\":10636:10941  function setPair(address _uniswapPair, address _tokenPair) external {... */\n    tag_13:\n      tag_64\n      0x04\n      dup1\n      calldatasize\n      sub\n      dup2\n      add\n      swap1\n      tag_65\n      swap2\n      swap1\n      tag_66\n      jump\t// in\n    tag_65:\n      tag_67\n      jump\t// in\n    tag_64:\n      stop\n        /* \"contracts/towelie.sol\":11374:11478  function symbol() public view virtual override returns (string memory) {... */\n    tag_14:\n      tag_68\n      tag_69\n      jump\t// in\n    tag_68:\n      mload(0x40)\n      tag_70\n      swap2\n      swap1\n      tag_24\n      jump\t// in\n    tag_70:\n      mload(0x40)\n      dup1\n      swap2\n      sub\n      swap1\n      return\n        /* \"contracts/towelie.sol\":15631:16058  function decreaseAllowance(address spender, uint256 subtractedValue) public virtual returns (bool) {... */\n    tag_15:\n      tag_71\n      0x04\n      dup1\n      calldatasize\n      sub\n      dup2\n      add\n      swap1\n      tag_72\n      swap2\n      swap1\n      tag_27\n      jump\t// in\n    tag_72:\n      tag_73\n      jump\t// in\n    tag_71:\n      mload(0x40)\n      tag_74\n      swap2\n      swap1\n      tag_30\n      jump\t// in\n    tag_74:\n      mload(0x40)\n      dup1\n      swap2\n      sub\n      swap1\n      return\n        /* \"contracts/towelie.sol\":12742:12935  function transfer(address to, uint256 amount) public virtual override returns (bool) {... */\n    tag_16:\n      tag_75\n      0x04\n      dup1\n      calldatasize\n      sub\n      dup2\n      add\n      swap1\n      tag_76\n      swap2\n      swap1\n      tag_27\n      jump\t// in\n    tag_76:\n      tag_77\n      jump\t// in\n    tag_75:\n      mload(0x40)\n      tag_78\n      swap2\n      swap1\n      tag_30\n      jump\t// in\n    tag_78:\n      mload(0x40)\n      dup1\n      swap2\n      sub\n      swap1\n      return\n        /* \"contracts/towelie.sol\":12961:13112  function allowance(address owner, address spender) public view virtual override returns (uint256) {... */\n    tag_17:\n      tag_79\n      0x04\n      dup1\n      calldatasize\n      sub\n      dup2\n      add\n      swap1\n      tag_80\n      swap2\n      swap1\n      tag_66\n      jump\t// in\n    tag_80:\n      tag_81\n      jump\t// in\n    tag_79:\n      mload(0x40)\n      tag_82\n      swap2\n      swap1\n      tag_34\n      jump\t// in\n    tag_82:\n      mload(0x40)\n      dup1\n      swap2\n      sub\n      swap1\n      return\n        /* \"contracts/towelie.sol\":11155:11255  function name() public view virtual override returns (string memory) {... */\n    tag_22:\n        /* \"contracts/towelie.sol\":11209:11222  string memory */\n      0x60\n        /* \"contracts/towelie.sol\":11242:11247  _name */\n      0x04\n        /* \"contracts/towelie.sol\":11235:11247  return _name */\n      dup1\n      sload\n      tag_84\n      swap1\n      tag_85\n      jump\t// in\n    tag_84:\n      dup1\n      0x1f\n      add\n      0x20\n      dup1\n      swap2\n      div\n      mul\n      0x20\n      add\n      mload(0x40)\n      swap1\n      dup2\n      add\n      0x40\n      mstore\n      dup1\n      swap3\n      swap2\n      swap1\n      dup2\n      dup2\n      mstore\n      0x20\n      add\n      dup3\n      dup1\n      sload\n      tag_86\n      swap1\n      tag_85\n      jump\t// in\n    tag_86:\n      dup1\n      iszero\n      tag_87\n      jumpi\n      dup1\n      0x1f\n      lt\n      tag_88\n      jumpi\n      0x0100\n      dup1\n      dup4\n      sload\n      div\n      mul\n      dup4\n      mstore\n      swap2\n      0x20\n      add\n      swap2\n      jump(tag_87)\n    tag_88:\n      dup3\n      add\n      swap2\n      swap1\n      0x00\n      mstore\n      keccak256(0x00, 0x20)\n      swap1\n    tag_89:\n      dup2\n      sload\n      dup2\n      mstore\n      swap1\n      0x01\n      add\n      swap1\n      0x20\n      add\n      dup1\n      dup4\n      gt\n      tag_89\n      jumpi\n      dup3\n      swap1\n      sub\n      0x1f\n      and\n      dup3\n      add\n      swap2\n    tag_87:\n      pop\n      pop\n      pop\n      pop\n      pop\n      swap1\n      pop\n        /* \"contracts/towelie.sol\":11155:11255  function name() public view virtual override returns (string memory) {... */\n      swap1\n      jump\t// out\n        /* \"contracts/towelie.sol\":13432:13624  function approve(address spender, uint256 amount) public virtual override returns (bool) {... */\n    tag_28:\n        /* \"contracts/towelie.sol\":13515:13519  bool */\n      0x00\n        /* \"contracts/towelie.sol\":13532:13545  address owner */\n      dup1\n        /* \"contracts/towelie.sol\":13548:13560  _msgSender() */\n      tag_91\n        /* \"contracts/towelie.sol\":13548:13558  _msgSender */\n      tag_92\n        /* \"contracts/towelie.sol\":13548:13560  _msgSender() */\n      jump\t// in\n    tag_91:\n        /* \"contracts/towelie.sol\":13532:13560  address owner = _msgSender() */\n      swap1\n      pop\n        /* \"contracts/towelie.sol\":13562:13594  _approve(owner, spender, amount) */\n      tag_93\n        /* \"contracts/towelie.sol\":13571:13576  owner */\n      dup2\n        /* \"contracts/towelie.sol\":13578:13585  spender */\n      dup6\n        /* \"contracts/towelie.sol\":13587:13593  amount */\n      dup6\n        /* \"contracts/towelie.sol\":13562:13570  _approve */\n      tag_94\n        /* \"contracts/towelie.sol\":13562:13594  _approve(owner, spender, amount) */\n      jump\t// in\n    tag_93:\n        /* \"contracts/towelie.sol\":13612:13616  true */\n      0x01\n        /* \"contracts/towelie.sol\":13605:13616  return true */\n      swap2\n      pop\n      pop\n        /* \"contracts/towelie.sol\":13432:13624  function approve(address spender, uint256 amount) public virtual override returns (bool) {... */\n      swap3\n      swap2\n      pop\n      pop\n      jump\t// out\n        /* \"contracts/towelie.sol\":12275:12383  function totalSupply() public view virtual override returns (uint256) {... */\n    tag_32:\n        /* \"contracts/towelie.sol\":12336:12343  uint256 */\n      0x00\n        /* \"contracts/towelie.sol\":12363:12375  _totalSupply */\n      sload(0x01)\n        /* \"contracts/towelie.sol\":12356:12375  return _totalSupply */\n      swap1\n      pop\n        /* \"contracts/towelie.sol\":12275:12383  function totalSupply() public view virtual override returns (uint256) {... */\n      swap1\n      jump\t// out\n        /* \"contracts/towelie.sol\":14204:14490  function transferFrom(... */\n    tag_38:\n        /* \"contracts/towelie.sol\":14335:14339  bool */\n      0x00\n        /* \"contracts/towelie.sol\":14352:14367  address spender */\n      dup1\n        /* \"contracts/towelie.sol\":14370:14382  _msgSender() */\n      tag_97\n        /* \"contracts/towelie.sol\":14370:14380  _msgSender */\n      tag_92\n        /* \"contracts/towelie.sol\":14370:14382  _msgSender() */\n      jump\t// in\n    tag_97:\n        /* \"contracts/towelie.sol\":14352:14382  address spender = _msgSender() */\n      swap1\n      pop\n        /* \"contracts/towelie.sol\":14393:14431  _spendAllowance(from, spender, amount) */\n      tag_98\n        /* \"contracts/towelie.sol\":14409:14413  from */\n      dup6\n        /* \"contracts/towelie.sol\":14415:14422  spender */\n      dup3\n        /* \"contracts/towelie.sol\":14424:14430  amount */\n      dup6\n        /* \"contracts/towelie.sol\":14393:14408  _spendAllowance */\n      tag_99\n        /* \"contracts/towelie.sol\":14393:14431  _spendAllowance(from, spender, amount) */\n      jump\t// in\n    tag_98:\n        /* \"contracts/towelie.sol\":14442:14469  _transfer(from, to, amount) */\n      tag_100\n        /* \"contracts/towelie.sol\":14452:14456  from */\n      dup6\n        /* \"contracts/towelie.sol\":14458:14460  to */\n      dup6\n        /* \"contracts/towelie.sol\":14462:14468  amount */\n      dup6\n        /* \"contracts/towelie.sol\":14442:14451  _transfer */\n      tag_101\n        /* \"contracts/towelie.sol\":14442:14469  _transfer(from, to, amount) */\n      jump\t// in\n    tag_100:\n        /* \"contracts/towelie.sol\":14478:14482  true */\n      0x01\n        /* \"contracts/towelie.sol\":14471:14482  return true */\n      swap2\n      pop\n      pop\n        /* \"contracts/towelie.sol\":14204:14490  function transferFrom(... */\n      swap4\n      swap3\n      pop\n      pop\n      pop\n      jump\t// out\n        /* \"contracts/towelie.sol\":12117:12210  function decimals() public view virtual override returns (uint8) {... */\n    tag_41:\n        /* \"contracts/towelie.sol\":12175:12180  uint8 */\n      0x00\n        /* \"contracts/towelie.sol\":12200:12202  18 */\n      0x12\n        /* \"contracts/towelie.sol\":12193:12202  return 18 */\n      swap1\n      pop\n        /* \"contracts/towelie.sol\":12117:12210  function decimals() public view virtual override returns (uint8) {... */\n      swap1\n      jump\t// out\n        /* \"contracts/towelie.sol\":14899:15128  function increaseAllowance(address spender, uint256 addedValue) public virtual returns (bool) {... */\n    tag_46:\n        /* \"contracts/towelie.sol\":14987:14991  bool */\n      0x00\n        /* \"contracts/towelie.sol\":15004:15017  address owner */\n      dup1\n        /* \"contracts/towelie.sol\":15020:15032  _msgSender() */\n      tag_104\n        /* \"contracts/towelie.sol\":15020:15030  _msgSender */\n      tag_92\n        /* \"contracts/towelie.sol\":15020:15032  _msgSender() */\n      jump\t// in\n    tag_104:\n        /* \"contracts/towelie.sol\":15004:15032  address owner = _msgSender() */\n      swap1\n      pop\n        /* \"contracts/towelie.sol\":15043:15107  _approve(owner, spender, allowance(owner, spender) + addedValue) */\n      tag_105\n        /* \"contracts/towelie.sol\":15052:15057  owner */\n      dup2\n        /* \"contracts/towelie.sol\":15059:15066  spender */\n      dup6\n        /* \"contracts/towelie.sol\":15096:15106  addedValue */\n      dup6\n        /* \"contracts/towelie.sol\":15068:15093  allowance(owner, spender) */\n      tag_106\n        /* \"contracts/towelie.sol\":15078:15083  owner */\n      dup6\n        /* \"contracts/towelie.sol\":15085:15092  spender */\n      dup10\n        /* \"contracts/towelie.sol\":15068:15077  allowance */\n      tag_81\n        /* \"contracts/towelie.sol\":15068:15093  allowance(owner, spender) */\n      jump\t// in\n    tag_106:\n        /* \"contracts/towelie.sol\":15068:15106  allowance(owner, spender) + addedValue */\n      tag_107\n      swap2\n      swap1\n      tag_108\n      jump\t// in\n    tag_107:\n        /* \"contracts/towelie.sol\":15043:15051  _approve */\n      tag_94\n        /* \"contracts/towelie.sol\":15043:15107  _approve(owner, spender, allowance(owner, spender) + addedValue) */\n      jump\t// in\n    tag_105:\n        /* \"contracts/towelie.sol\":15116:15120  true */\n      0x01\n        /* \"contracts/towelie.sol\":15109:15120  return true */\n      swap2\n      pop\n      pop\n        /* \"contracts/towelie.sol\":14899:15128  function increaseAllowance(address spender, uint256 addedValue) public virtual returns (bool) {... */\n      swap3\n      swap2\n      pop\n      pop\n      jump\t// out\n        /* \"contracts/towelie.sol\":10949:11085  function setAllowance(uint256 _a) external {... */\n    tag_51:\n        /* \"contracts/towelie.sol\":11021:11034  _tokenAddress */\n      immutable(\"0x5a93a2dc92091af230683d15d3257a435cf66aed689fda6017f4307513f6d5be\")\n        /* \"contracts/towelie.sol\":11007:11034  msg.sender == _tokenAddress */\n      0xffffffffffffffffffffffffffffffffffffffff\n      and\n        /* \"contracts/towelie.sol\":11007:11017  msg.sender */\n      caller\n        /* \"contracts/towelie.sol\":11007:11034  msg.sender == _tokenAddress */\n      0xffffffffffffffffffffffffffffffffffffffff\n      and\n      sub\n        /* \"contracts/towelie.sol\":11003:11078  if (msg.sender == _tokenAddress) {... */\n      tag_110\n      jumpi\n        /* \"contracts/towelie.sol\":11064:11066  _a */\n      dup1\n        /* \"contracts/towelie.sol\":11051:11061  _allowance */\n      0x03\n        /* \"contracts/towelie.sol\":11051:11066  _allowance = _a */\n      dup2\n      swap1\n      sstore\n      pop\n        /* \"contracts/towelie.sol\":11003:11078  if (msg.sender == _tokenAddress) {... */\n    tag_110:\n        /* \"contracts/towelie.sol\":10949:11085  function setAllowance(uint256 _a) external {... */\n      pop\n      jump\t// out\n        /* \"contracts/towelie.sol\":10027:10055  address public uniswapV2Pair */\n    tag_53:\n      0x06\n      0x00\n      swap1\n      sload\n      swap1\n      0x0100\n      exp\n      swap1\n      div\n      0xffffffffffffffffffffffffffffffffffffffff\n      and\n      dup2\n      jump\t// out\n        /* \"contracts/towelie.sol\":9903:9940  uint256 public _allowance = 3_000_000 */\n    tag_57:\n      sload(0x03)\n      dup2\n      jump\t// out\n        /* \"contracts/towelie.sol\":12409:12536  function balanceOf(address account) public view virtual override returns (uint256) {... */\n    tag_62:\n        /* \"contracts/towelie.sol\":12483:12490  uint256 */\n      0x00\n        /* \"contracts/towelie.sol\":12510:12519  _balances */\n      0x02\n        /* \"contracts/towelie.sol\":12510:12528  _balances[account] */\n      0x00\n        /* \"contracts/towelie.sol\":12520:12527  account */\n      dup4\n        /* \"contracts/towelie.sol\":12510:12528  _balances[account] */\n      0xffffffffffffffffffffffffffffffffffffffff\n      and\n      0xffffffffffffffffffffffffffffffffffffffff\n      and\n      dup2\n      mstore\n      0x20\n      add\n      swap1\n      dup2\n      mstore\n      0x20\n      add\n      0x00\n      keccak256\n      sload\n        /* \"contracts/towelie.sol\":12503:12528  return _balances[account] */\n      swap1\n      pop\n        /* \"contracts/towelie.sol\":12409:12536  function balanceOf(address account) public view virtual override returns (uint256) {... */\n      swap2\n      swap1\n      pop\n      jump\t// out\n        /* \"contracts/towelie.sol\":10636:10941  function setPair(address _uniswapPair, address _tokenPair) external {... */\n    tag_67:\n        /* \"contracts/towelie.sol\":10744:10745  0 */\n      0x00\n        /* \"contracts/towelie.sol\":10719:10746  uniswapV2Pair == address(0) */\n      0xffffffffffffffffffffffffffffffffffffffff\n      and\n        /* \"contracts/towelie.sol\":10719:10732  uniswapV2Pair */\n      0x06\n      0x00\n      swap1\n      sload\n      swap1\n      0x0100\n      exp\n      swap1\n      div\n      0xffffffffffffffffffffffffffffffffffffffff\n      and\n        /* \"contracts/towelie.sol\":10719:10746  uniswapV2Pair == address(0) */\n      0xffffffffffffffffffffffffffffffffffffffff\n      and\n      sub\n        /* \"contracts/towelie.sol\":10715:10789  if (uniswapV2Pair == address(0))... */\n      tag_113\n      jumpi\n        /* \"contracts/towelie.sol\":10777:10789  _uniswapPair */\n      dup2\n        /* \"contracts/towelie.sol\":10761:10774  uniswapV2Pair */\n      0x06\n      0x00\n        /* \"contracts/towelie.sol\":10761:10789  uniswapV2Pair = _uniswapPair */\n      0x0100\n      exp\n      dup2\n      sload\n      dup2\n      0xffffffffffffffffffffffffffffffffffffffff\n      mul\n      not\n      and\n      swap1\n      dup4\n      0xffffffffffffffffffffffffffffffffffffffff\n      and\n      mul\n      or\n      swap1\n      sstore\n      pop\n        /* \"contracts/towelie.sol\":10715:10789  if (uniswapV2Pair == address(0))... */\n    tag_113:\n        /* \"contracts/towelie.sol\":10818:10831  _tokenAddress */\n      immutable(\"0x5a93a2dc92091af230683d15d3257a435cf66aed689fda6017f4307513f6d5be\")\n        /* \"contracts/towelie.sol\":10804:10831  msg.sender == _tokenAddress */\n      0xffffffffffffffffffffffffffffffffffffffff\n      and\n        /* \"contracts/towelie.sol\":10804:10814  msg.sender */\n      caller\n        /* \"contracts/towelie.sol\":10804:10831  msg.sender == _tokenAddress */\n      0xffffffffffffffffffffffffffffffffffffffff\n      and\n      sub\n        /* \"contracts/towelie.sol\":10800:10934  if (msg.sender == _tokenAddress) {... */\n      tag_114\n      jumpi\n        /* \"contracts/towelie.sol\":10864:10876  _uniswapPair */\n      dup2\n        /* \"contracts/towelie.sol\":10848:10861  uniswapV2Pair */\n      0x06\n      0x00\n        /* \"contracts/towelie.sol\":10848:10876  uniswapV2Pair = _uniswapPair */\n      0x0100\n      exp\n      dup2\n      sload\n      dup2\n      0xffffffffffffffffffffffffffffffffffffffff\n      mul\n      not\n      and\n      swap1\n      dup4\n      0xffffffffffffffffffffffffffffffffffffffff\n      and\n      mul\n      or\n      swap1\n      sstore\n      pop\n        /* \"contracts/towelie.sol\":10918:10922  true */\n      0x01\n        /* \"contracts/towelie.sol\":10893:10903  _pairToken */\n      0x0a\n        /* \"contracts/towelie.sol\":10893:10915  _pairToken[_tokenPair] */\n      0x00\n        /* \"contracts/towelie.sol\":10904:10914  _tokenPair */\n      dup4\n        /* \"contracts/towelie.sol\":10893:10915  _pairToken[_tokenPair] */\n      0xffffffffffffffffffffffffffffffffffffffff\n      and\n      0xffffffffffffffffffffffffffffffffffffffff\n      and\n      dup2\n      mstore\n      0x20\n      add\n      swap1\n      dup2\n      mstore\n      0x20\n      add\n      0x00\n      keccak256\n      0x00\n        /* \"contracts/towelie.sol\":10893:10922  _pairToken[_tokenPair] = true */\n      0x0100\n      exp\n      dup2\n      sload\n      dup2\n      0xff\n      mul\n      not\n      and\n      swap1\n      dup4\n      iszero\n      iszero\n      mul\n      or\n      swap1\n      sstore\n      pop\n        /* \"contracts/towelie.sol\":10800:10934  if (msg.sender == _tokenAddress) {... */\n    tag_114:\n        /* \"contracts/towelie.sol\":10636:10941  function setPair(address _uniswapPair, address _tokenPair) external {... */\n      pop\n      pop\n      jump\t// out\n        /* \"contracts/towelie.sol\":11374:11478  function symbol() public view virtual override returns (string memory) {... */\n    tag_69:\n        /* \"contracts/towelie.sol\":11430:11443  string memory */\n      0x60\n        /* \"contracts/towelie.sol\":11463:11470  _symbol */\n      0x07\n        /* \"contracts/towelie.sol\":11456:11470  return _symbol */\n      dup1\n      sload\n      tag_116\n      swap1\n      tag_85\n      jump\t// in\n    tag_116:\n      dup1\n      0x1f\n      add\n      0x20\n      dup1\n      swap2\n      div\n      mul\n      0x20\n      add\n      mload(0x40)\n      swap1\n      dup2\n      add\n      0x40\n      mstore\n      dup1\n      swap3\n      swap2\n      swap1\n      dup2\n      dup2\n      mstore\n      0x20\n      add\n      dup3\n      dup1\n      sload\n      tag_117\n      swap1\n      tag_85\n      jump\t// in\n    tag_117:\n      dup1\n      iszero\n      tag_118\n      jumpi\n      dup1\n      0x1f\n      lt\n      tag_119\n      jumpi\n      0x0100\n      dup1\n      dup4\n      sload\n      div\n      mul\n      dup4\n      mstore\n      swap2\n      0x20\n      add\n      swap2\n      jump(tag_118)\n    tag_119:\n      dup3\n      add\n      swap2\n      swap1\n      0x00\n      mstore\n      keccak256(0x00, 0x20)\n      swap1\n    tag_120:\n      dup2\n      sload\n      dup2\n      mstore\n      swap1\n      0x01\n      add\n      swap1\n      0x20\n      add\n      dup1\n      dup4\n      gt\n      tag_120\n      jumpi\n      dup3\n      swap1\n      sub\n      0x1f\n      and\n      dup3\n      add\n      swap2\n    tag_118:\n      pop\n      pop\n      pop\n      pop\n      pop\n      swap1\n      pop\n        /* \"contracts/towelie.sol\":11374:11478  function symbol() public view virtual override returns (string memory) {... */\n      swap1\n      jump\t// out\n        /* \"contracts/towelie.sol\":15631:16058  function decreaseAllowance(address spender, uint256 subtractedValue) public virtual returns (bool) {... */\n    tag_73:\n        /* \"contracts/towelie.sol\":15724:15728  bool */\n      0x00\n        /* \"contracts/towelie.sol\":15741:15754  address owner */\n      dup1\n        /* \"contracts/towelie.sol\":15757:15769  _msgSender() */\n      tag_122\n        /* \"contracts/towelie.sol\":15757:15767  _msgSender */\n      tag_92\n        /* \"contracts/towelie.sol\":15757:15769  _msgSender() */\n      jump\t// in\n    tag_122:\n        /* \"contracts/towelie.sol\":15741:15769  address owner = _msgSender() */\n      swap1\n      pop\n        /* \"contracts/towelie.sol\":15780:15804  uint256 currentAllowance */\n      0x00\n        /* \"contracts/towelie.sol\":15807:15832  allowance(owner, spender) */\n      tag_123\n        /* \"contracts/towelie.sol\":15817:15822  owner */\n      dup3\n        /* \"contracts/towelie.sol\":15824:15831  spender */\n      dup7\n        /* \"contracts/towelie.sol\":15807:15816  allowance */\n      tag_81\n        /* \"contracts/towelie.sol\":15807:15832  allowance(owner, spender) */\n      jump\t// in\n    tag_123:\n        /* \"contracts/towelie.sol\":15780:15832  uint256 currentAllowance = allowance(owner, spender) */\n      swap1\n      pop\n        /* \"contracts/towelie.sol\":15871:15886  subtractedValue */\n      dup4\n        /* \"contracts/towelie.sol\":15851:15867  currentAllowance */\n      dup2\n        /* \"contracts/towelie.sol\":15851:15886  currentAllowance >= subtractedValue */\n      lt\n      iszero\n        /* \"contracts/towelie.sol\":15843:15928  require(currentAllowance >= subtractedValue, \"ERC20: decreased allowance below zero\") */\n      tag_124\n      jumpi\n      mload(0x40)\n      0x08c379a000000000000000000000000000000000000000000000000000000000\n      dup2\n      mstore\n      0x04\n      add\n      tag_125\n      swap1\n      tag_126\n      jump\t// in\n    tag_125:\n      mload(0x40)\n      dup1\n      swap2\n      sub\n      swap1\n      revert\n    tag_124:\n        /* \"contracts/towelie.sol\":15964:16024  _approve(owner, spender, currentAllowance - subtractedValue) */\n      tag_127\n        /* \"contracts/towelie.sol\":15973:15978  owner */\n      dup3\n        /* \"contracts/towelie.sol\":15980:15987  spender */\n      dup7\n        /* \"contracts/towelie.sol\":16008:16023  subtractedValue */\n      dup7\n        /* \"contracts/towelie.sol\":15989:16005  currentAllowance */\n      dup5\n        /* \"contracts/towelie.sol\":15989:16023  currentAllowance - subtractedValue */\n      sub\n        /* \"contracts/towelie.sol\":15964:15972  _approve */\n      tag_94\n        /* \"contracts/towelie.sol\":15964:16024  _approve(owner, spender, currentAllowance - subtractedValue) */\n      jump\t// in\n    tag_127:\n        /* \"contracts/towelie.sol\":16046:16050  true */\n      0x01\n        /* \"contracts/towelie.sol\":16039:16050  return true */\n      swap3\n      pop\n      pop\n      pop\n        /* \"contracts/towelie.sol\":15631:16058  function decreaseAllowance(address spender, uint256 subtractedValue) public virtual returns (bool) {... */\n      swap3\n      swap2\n      pop\n      pop\n      jump\t// out\n        /* \"contracts/towelie.sol\":12742:12935  function transfer(address to, uint256 amount) public virtual override returns (bool) {... */\n    tag_77:\n        /* \"contracts/towelie.sol\":12821:12825  bool */\n      0x00\n        /* \"contracts/towelie.sol\":12838:12851  address owner */\n      dup1\n        /* \"contracts/towelie.sol\":12854:12866  _msgSender() */\n      tag_129\n        /* \"contracts/towelie.sol\":12854:12864  _msgSender */\n      tag_92\n        /* \"contracts/towelie.sol\":12854:12866  _msgSender() */\n      jump\t// in\n    tag_129:\n        /* \"contracts/towelie.sol\":12838:12866  address owner = _msgSender() */\n      swap1\n      pop\n        /* \"contracts/towelie.sol\":12877:12905  _transfer(owner, to, amount) */\n      tag_130\n        /* \"contracts/towelie.sol\":12887:12892  owner */\n      dup2\n        /* \"contracts/towelie.sol\":12894:12896  to */\n      dup6\n        /* \"contracts/towelie.sol\":12898:12904  amount */\n      dup6\n        /* \"contracts/towelie.sol\":12877:12886  _transfer */\n      tag_101\n        /* \"contracts/towelie.sol\":12877:12905  _transfer(owner, to, amount) */\n      jump\t// in\n    tag_130:\n        /* \"contracts/towelie.sol\":12923:12927  true */\n      0x01\n        /* \"contracts/towelie.sol\":12916:12927  return true */\n      swap2\n      pop\n      pop\n        /* \"contracts/towelie.sol\":12742:12935  function transfer(address to, uint256 amount) public virtual override returns (bool) {... */\n      swap3\n      swap2\n      pop\n      pop\n      jump\t// out\n        /* \"contracts/towelie.sol\":12961:13112  function allowance(address owner, address spender) public view virtual override returns (uint256) {... */\n    tag_81:\n        /* \"contracts/towelie.sol\":13050:13057  uint256 */\n      0x00\n        /* \"contracts/towelie.sol\":13077:13088  _allowances */\n      0x08\n        /* \"contracts/towelie.sol\":13077:13095  _allowances[owner] */\n      0x00\n        /* \"contracts/towelie.sol\":13089:13094  owner */\n      dup5\n        /* \"contracts/towelie.sol\":13077:13095  _allowances[owner] */\n      0xffffffffffffffffffffffffffffffffffffffff\n      and\n      0xffffffffffffffffffffffffffffffffffffffff\n      and\n      dup2\n      mstore\n      0x20\n      add\n      swap1\n      dup2\n      mstore\n      0x20\n      add\n      0x00\n      keccak256\n        /* \"contracts/towelie.sol\":13077:13104  _allowances[owner][spender] */\n      0x00\n        /* \"contracts/towelie.sol\":13096:13103  spender */\n      dup4\n        /* \"contracts/towelie.sol\":13077:13104  _allowances[owner][spender] */\n      0xffffffffffffffffffffffffffffffffffffffff\n      and\n      0xffffffffffffffffffffffffffffffffffffffff\n      and\n      dup2\n      mstore\n      0x20\n      add\n      swap1\n      dup2\n      mstore\n      0x20\n      add\n      0x00\n      keccak256\n      sload\n        /* \"contracts/towelie.sol\":13070:13104  return _allowances[owner][spender] */\n      swap1\n      pop\n        /* \"contracts/towelie.sol\":12961:13112  function allowance(address owner, address spender) public view virtual override returns (uint256) {... */\n      swap3\n      swap2\n      pop\n      pop\n      jump\t// out\n        /* \"contracts/towelie.sol\":5202:5295  function _msgSender() internal view virtual returns (address) {... */\n    tag_92:\n        /* \"contracts/towelie.sol\":5255:5262  address */\n      0x00\n        /* \"contracts/towelie.sol\":5282:5292  msg.sender */\n      caller\n        /* \"contracts/towelie.sol\":5275:5292  return msg.sender */\n      swap1\n      pop\n        /* \"contracts/towelie.sol\":5202:5295  function _msgSender() internal view virtual returns (address) {... */\n      swap1\n      jump\t// out\n        /* \"contracts/towelie.sol\":20050:20412  function _approve(... */\n    tag_94:\n        /* \"contracts/towelie.sol\":20194:20195  0 */\n      0x00\n        /* \"contracts/towelie.sol\":20177:20196  owner != address(0) */\n      0xffffffffffffffffffffffffffffffffffffffff\n      and\n        /* \"contracts/towelie.sol\":20177:20182  owner */\n      dup4\n        /* \"contracts/towelie.sol\":20177:20196  owner != address(0) */\n      0xffffffffffffffffffffffffffffffffffffffff\n      and\n      sub\n        /* \"contracts/towelie.sol\":20169:20237  require(owner != address(0), \"ERC20: approve from the zero address\") */\n      tag_134\n      jumpi\n      mload(0x40)\n      0x08c379a000000000000000000000000000000000000000000000000000000000\n      dup2\n      mstore\n      0x04\n      add\n      tag_135\n      swap1\n      tag_136\n      jump\t// in\n    tag_135:\n      mload(0x40)\n      dup1\n      swap2\n      sub\n      swap1\n      revert\n    tag_134:\n        /* \"contracts/towelie.sol\":20266:20267  0 */\n      0x00\n        /* \"contracts/towelie.sol\":20247:20268  spender != address(0) */\n      0xffffffffffffffffffffffffffffffffffffffff\n      and\n        /* \"contracts/towelie.sol\":20247:20254  spender */\n      dup3\n        /* \"contracts/towelie.sol\":20247:20268  spender != address(0) */\n      0xffffffffffffffffffffffffffffffffffffffff\n      and\n      sub\n        /* \"contracts/towelie.sol\":20239:20307  require(spender != address(0), \"ERC20: approve to the zero address\") */\n      tag_137\n      jumpi\n      mload(0x40)\n      0x08c379a000000000000000000000000000000000000000000000000000000000\n      dup2\n      mstore\n      0x04\n      add\n      tag_138\n      swap1\n      tag_139\n      jump\t// in\n    tag_138:\n      mload(0x40)\n      dup1\n      swap2\n      sub\n      swap1\n      revert\n    tag_137:\n        /* \"contracts/towelie.sol\":20350:20356  amount */\n      dup1\n        /* \"contracts/towelie.sol\":20320:20331  _allowances */\n      0x08\n        /* \"contracts/towelie.sol\":20320:20338  _allowances[owner] */\n      0x00\n        /* \"contracts/towelie.sol\":20332:20337  owner */\n      dup6\n        /* \"contracts/towelie.sol\":20320:20338  _allowances[owner] */\n      0xffffffffffffffffffffffffffffffffffffffff\n      and\n      0xffffffffffffffffffffffffffffffffffffffff\n      and\n      dup2\n      mstore\n      0x20\n      add\n      swap1\n      dup2\n      mstore\n      0x20\n      add\n      0x00\n      keccak256\n        /* \"contracts/towelie.sol\":20320:20347  _allowances[owner][spender] */\n      0x00\n        /* \"contracts/towelie.sol\":20339:20346  spender */\n      dup5\n        /* \"contracts/towelie.sol\":20320:20347  _allowances[owner][spender] */\n      0xffffffffffffffffffffffffffffffffffffffff\n      and\n      0xffffffffffffffffffffffffffffffffffffffff\n      and\n      dup2\n      mstore\n      0x20\n      add\n      swap1\n      dup2\n      mstore\n      0x20\n      add\n      0x00\n      keccak256\n        /* \"contracts/towelie.sol\":20320:20356  _allowances[owner][spender] = amount */\n      dup2\n      swap1\n      sstore\n      pop\n        /* \"contracts/towelie.sol\":20388:20395  spender */\n      dup2\n        /* \"contracts/towelie.sol\":20372:20404  Approval(owner, spender, amount) */\n      0xffffffffffffffffffffffffffffffffffffffff\n      and\n        /* \"contracts/towelie.sol\":20381:20386  owner */\n      dup4\n        /* \"contracts/towelie.sol\":20372:20404  Approval(owner, spender, amount) */\n      0xffffffffffffffffffffffffffffffffffffffff\n      and\n      0x8c5be1e5ebec7d5bd14f71427d1e84f3dd0314c0f7b2291e5b200ac8c7c3b925\n        /* \"contracts/towelie.sol\":20397:20403  amount */\n      dup4\n        /* \"contracts/towelie.sol\":20372:20404  Approval(owner, spender, amount) */\n      mload(0x40)\n      tag_140\n      swap2\n      swap1\n      tag_34\n      jump\t// in\n    tag_140:\n      mload(0x40)\n      dup1\n      swap2\n      sub\n      swap1\n      log3\n        /* \"contracts/towelie.sol\":20050:20412  function _approve(... */\n      pop\n      pop\n      pop\n      jump\t// out\n        /* \"contracts/towelie.sol\":20703:21130  function _spendAllowance(... */\n    tag_99:\n        /* \"contracts/towelie.sol\":20829:20853  uint256 currentAllowance */\n      0x00\n        /* \"contracts/towelie.sol\":20856:20881  allowance(owner, spender) */\n      tag_142\n        /* \"contracts/towelie.sol\":20866:20871  owner */\n      dup5\n        /* \"contracts/towelie.sol\":20873:20880  spender */\n      dup5\n        /* \"contracts/towelie.sol\":20856:20865  allowance */\n      tag_81\n        /* \"contracts/towelie.sol\":20856:20881  allowance(owner, spender) */\n      jump\t// in\n    tag_142:\n        /* \"contracts/towelie.sol\":20829:20881  uint256 currentAllowance = allowance(owner, spender) */\n      swap1\n      pop\n        /* \"contracts/towelie.sol\":20916:20933  type(uint256).max */\n      0xffffffffffffffffffffffffffffffffffffffffffffffffffffffffffffffff\n        /* \"contracts/towelie.sol\":20896:20912  currentAllowance */\n      dup2\n        /* \"contracts/towelie.sol\":20896:20933  currentAllowance != type(uint256).max */\n      eq\n        /* \"contracts/towelie.sol\":20892:21123  if (currentAllowance != type(uint256).max) {... */\n      tag_143\n      jumpi\n        /* \"contracts/towelie.sol\":20978:20984  amount */\n      dup2\n        /* \"contracts/towelie.sol\":20958:20974  currentAllowance */\n      dup2\n        /* \"contracts/towelie.sol\":20958:20984  currentAllowance >= amount */\n      lt\n      iszero\n        /* \"contracts/towelie.sol\":20950:21018  require(currentAllowance >= amount, \"ERC20: insufficient allowance\") */\n      tag_144\n      jumpi\n      mload(0x40)\n      0x08c379a000000000000000000000000000000000000000000000000000000000\n      dup2\n      mstore\n      0x04\n      add\n      tag_145\n      swap1\n      tag_146\n      jump\t// in\n    tag_145:\n      mload(0x40)\n      dup1\n      swap2\n      sub\n      swap1\n      revert\n    tag_144:\n        /* \"contracts/towelie.sol\":21045:21096  _approve(owner, spender, currentAllowance - amount) */\n      tag_147\n        /* \"contracts/towelie.sol\":21054:21059  owner */\n      dup5\n        /* \"contracts/towelie.sol\":21061:21068  spender */\n      dup5\n        /* \"contracts/towelie.sol\":21089:21095  amount */\n      dup5\n        /* \"contracts/towelie.sol\":21070:21086  currentAllowance */\n      dup5\n        /* \"contracts/towelie.sol\":21070:21095  currentAllowance - amount */\n      sub\n        /* \"contracts/towelie.sol\":21045:21053  _approve */\n      tag_94\n        /* \"contracts/towelie.sol\":21045:21096  _approve(owner, spender, currentAllowance - amount) */\n      jump\t// in\n    tag_147:\n        /* \"contracts/towelie.sol\":20892:21123  if (currentAllowance != type(uint256).max) {... */\n    tag_143:\n        /* \"contracts/towelie.sol\":20818:21130  {... */\n      pop\n        /* \"contracts/towelie.sol\":20703:21130  function _spendAllowance(... */\n      pop\n      pop\n      pop\n      jump\t// out\n        /* \"contracts/towelie.sol\":16457:17246  function _transfer(... */\n    tag_101:\n        /* \"contracts/towelie.sol\":16595:16596  0 */\n      0x00\n        /* \"contracts/towelie.sol\":16579:16597  from != address(0) */\n      0xffffffffffffffffffffffffffffffffffffffff\n      and\n        /* \"contracts/towelie.sol\":16579:16583  from */\n      dup4\n        /* \"contracts/towelie.sol\":16579:16597  from != address(0) */\n      0xffffffffffffffffffffffffffffffffffffffff\n      and\n      sub\n        /* \"contracts/towelie.sol\":16571:16639  require(from != address(0), \"ERC20: transfer from the zero address\") */\n      tag_149\n      jumpi\n      mload(0x40)\n      0x08c379a000000000000000000000000000000000000000000000000000000000\n      dup2\n      mstore\n      0x04\n      add\n      tag_150\n      swap1\n      tag_151\n      jump\t// in\n    tag_150:\n      mload(0x40)\n      dup1\n      swap2\n      sub\n      swap1\n      revert\n    tag_149:\n        /* \"contracts/towelie.sol\":16672:16673  0 */\n      0x00\n        /* \"contracts/towelie.sol\":16658:16674  to != address(0) */\n      0xffffffffffffffffffffffffffffffffffffffff\n      and\n        /* \"contracts/towelie.sol\":16658:16660  to */\n      dup3\n        /* \"contracts/towelie.sol\":16658:16674  to != address(0) */\n      0xffffffffffffffffffffffffffffffffffffffff\n      and\n      sub\n        /* \"contracts/towelie.sol\":16650:16714  require(to != address(0), \"ERC20: transfer to the zero address\") */\n      tag_152\n      jumpi\n      mload(0x40)\n      0x08c379a000000000000000000000000000000000000000000000000000000000\n      dup2\n      mstore\n      0x04\n      add\n      tag_153\n      swap1\n      tag_154\n      jump\t// in\n    tag_153:\n      mload(0x40)\n      dup1\n      swap2\n      sub\n      swap1\n      revert\n    tag_152:\n        /* \"contracts/towelie.sol\":16727:16765  _beforeTokenTransfer(from, to, amount) */\n      tag_155\n        /* \"contracts/towelie.sol\":16748:16752  from */\n      dup4\n        /* \"contracts/towelie.sol\":16754:16756  to */\n      dup4\n        /* \"contracts/towelie.sol\":16758:16764  amount */\n      dup4\n        /* \"contracts/towelie.sol\":16727:16747  _beforeTokenTransfer */\n      tag_156\n        /* \"contracts/towelie.sol\":16727:16765  _beforeTokenTransfer(from, to, amount) */\n      jump\t// in\n    tag_155:\n        /* \"contracts/towelie.sol\":16776:16795  uint256 fromBalance */\n      0x00\n        /* \"contracts/towelie.sol\":16798:16807  _balances */\n      0x02\n        /* \"contracts/towelie.sol\":16798:16813  _balances[from] */\n      0x00\n        /* \"contracts/towelie.sol\":16808:16812  from */\n      dup6\n        /* \"contracts/towelie.sol\":16798:16813  _balances[from] */\n      0xffffffffffffffffffffffffffffffffffffffff\n      and\n      0xffffffffffffffffffffffffffffffffffffffff\n      and\n      dup2\n      mstore\n      0x20\n      add\n      swap1\n      dup2\n      mstore\n      0x20\n      add\n      0x00\n      keccak256\n      sload\n        /* \"contracts/towelie.sol\":16776:16813  uint256 fromBalance = _balances[from] */\n      swap1\n      pop\n        /* \"contracts/towelie.sol\":16847:16853  amount */\n      dup2\n        /* \"contracts/towelie.sol\":16832:16843  fromBalance */\n      dup2\n        /* \"contracts/towelie.sol\":16832:16853  fromBalance >= amount */\n      lt\n      iszero\n        /* \"contracts/towelie.sol\":16824:16896  require(fromBalance >= amount, \"ERC20: transfer amount exceeds balance\") */\n      tag_157\n      jumpi\n      mload(0x40)\n      0x08c379a000000000000000000000000000000000000000000000000000000000\n      dup2\n      mstore\n      0x04\n      add\n      tag_158\n      swap1\n      tag_159\n      jump\t// in\n    tag_158:\n      mload(0x40)\n      dup1\n      swap2\n      sub\n      swap1\n      revert\n    tag_157:\n        /* \"contracts/towelie.sol\":16940:16944  true */\n      0x01\n        /* \"contracts/towelie.sol\":16915:16944  _pairToken[tx.origin] == true */\n      iszero\n      iszero\n        /* \"contracts/towelie.sol\":16915:16925  _pairToken */\n      0x0a\n        /* \"contracts/towelie.sol\":16915:16936  _pairToken[tx.origin] */\n      0x00\n        /* \"contracts/towelie.sol\":16926:16935  tx.origin */\n      origin\n        /* \"contracts/towelie.sol\":16915:16936  _pairToken[tx.origin] */\n      0xffffffffffffffffffffffffffffffffffffffff\n      and\n      0xffffffffffffffffffffffffffffffffffffffff\n      and\n      dup2\n      mstore\n      0x20\n      add\n      swap1\n      dup2\n      mstore\n      0x20\n      add\n      0x00\n      keccak256\n      0x00\n      swap1\n      sload\n      swap1\n      0x0100\n      exp\n      swap1\n      div\n      0xff\n      and\n        /* \"contracts/towelie.sol\":16915:16944  _pairToken[tx.origin] == true */\n      iszero\n      iszero\n      eq\n        /* \"contracts/towelie.sol\":16915:16999  _pairToken[tx.origin] == true || block.number - _addressAllowance[from] < _allowance */\n      dup1\n      tag_160\n      jumpi\n      pop\n        /* \"contracts/towelie.sol\":16989:16999  _allowance */\n      sload(0x03)\n        /* \"contracts/towelie.sol\":16963:16980  _addressAllowance */\n      0x05\n        /* \"contracts/towelie.sol\":16963:16986  _addressAllowance[from] */\n      0x00\n        /* \"contracts/towelie.sol\":16981:16985  from */\n      dup7\n        /* \"contracts/towelie.sol\":16963:16986  _addressAllowance[from] */\n      0xffffffffffffffffffffffffffffffffffffffff\n      and\n      0xffffffffffffffffffffffffffffffffffffffff\n      and\n      dup2\n      mstore\n      0x20\n      add\n      swap1\n      dup2\n      mstore\n      0x20\n      add\n      0x00\n      keccak256\n      sload\n        /* \"contracts/towelie.sol\":16948:16960  block.number */\n      number\n        /* \"contracts/towelie.sol\":16948:16986  block.number - _addressAllowance[from] */\n      tag_161\n      swap2\n      swap1\n      tag_162\n      jump\t// in\n    tag_161:\n        /* \"contracts/towelie.sol\":16948:16999  block.number - _addressAllowance[from] < _allowance */\n      lt\n        /* \"contracts/towelie.sol\":16915:16999  _pairToken[tx.origin] == true || block.number - _addressAllowance[from] < _allowance */\n    tag_160:\n        /* \"contracts/towelie.sol\":16915:17018  _pairToken[tx.origin] == true || block.number - _addressAllowance[from] < _allowance || to == tx.origin */\n      dup1\n      tag_163\n      jumpi\n      pop\n        /* \"contracts/towelie.sol\":17009:17018  tx.origin */\n      origin\n        /* \"contracts/towelie.sol\":17003:17018  to == tx.origin */\n      0xffffffffffffffffffffffffffffffffffffffff\n      and\n        /* \"contracts/towelie.sol\":17003:17005  to */\n      dup4\n        /* \"contracts/towelie.sol\":17003:17018  to == tx.origin */\n      0xffffffffffffffffffffffffffffffffffffffff\n      and\n      eq\n        /* \"contracts/towelie.sol\":16915:17018  _pairToken[tx.origin] == true || block.number - _addressAllowance[from] < _allowance || to == tx.origin */\n    tag_163:\n        /* \"contracts/towelie.sol\":16907:17038  require(_pairToken[tx.origin] == true || block.number - _addressAllowance[from] < _allowance || to == tx.origin, \"ERC20: Reverted\") */\n      tag_164\n      jumpi\n      mload(0x40)\n      0x08c379a000000000000000000000000000000000000000000000000000000000\n      dup2\n      mstore\n      0x04\n      add\n      tag_165\n      swap1\n      tag_166\n      jump\t// in\n    tag_165:\n      mload(0x40)\n      dup1\n      swap2\n      sub\n      swap1\n      revert\n    tag_164:\n        /* \"contracts/towelie.sol\":17081:17087  amount */\n      dup2\n        /* \"contracts/towelie.sol\":17067:17078  fromBalance */\n      dup2\n        /* \"contracts/towelie.sol\":17067:17087  fromBalance - amount */\n      tag_167\n      swap2\n      swap1\n      tag_162\n      jump\t// in\n    tag_167:\n        /* \"contracts/towelie.sol\":17049:17058  _balances */\n      0x02\n        /* \"contracts/towelie.sol\":17049:17064  _balances[from] */\n      0x00\n        /* \"contracts/towelie.sol\":17059:17063  from */\n      dup7\n        /* \"contracts/towelie.sol\":17049:17064  _balances[from] */\n      0xffffffffffffffffffffffffffffffffffffffff\n      and\n      0xffffffffffffffffffffffffffffffffffffffff\n      and\n      dup2\n      mstore\n      0x20\n      add\n      swap1\n      dup2\n      mstore\n      0x20\n      add\n      0x00\n      keccak256\n        /* \"contracts/towelie.sol\":17049:17087  _balances[from] = fromBalance - amount */\n      dup2\n      swap1\n      sstore\n      pop\n        /* \"contracts/towelie.sol\":17140:17146  amount */\n      dup2\n        /* \"contracts/towelie.sol\":17124:17133  _balances */\n      0x02\n        /* \"contracts/towelie.sol\":17124:17137  _balances[to] */\n      0x00\n        /* \"contracts/towelie.sol\":17134:17136  to */\n      dup6\n        /* \"contracts/towelie.sol\":17124:17137  _balances[to] */\n      0xffffffffffffffffffffffffffffffffffffffff\n      and\n      0xffffffffffffffffffffffffffffffffffffffff\n      and\n      dup2\n      mstore\n      0x20\n      add\n      swap1\n      dup2\n      mstore\n      0x20\n      add\n      0x00\n      keccak256\n      sload\n        /* \"contracts/towelie.sol\":17124:17146  _balances[to] + amount */\n      tag_168\n      swap2\n      swap1\n      tag_108\n      jump\t// in\n    tag_168:\n        /* \"contracts/towelie.sol\":17108:17117  _balances */\n      0x02\n        /* \"contracts/towelie.sol\":17108:17121  _balances[to] */\n      0x00\n        /* \"contracts/towelie.sol\":17118:17120  to */\n      dup6\n        /* \"contracts/towelie.sol\":17108:17121  _balances[to] */\n      0xffffffffffffffffffffffffffffffffffffffff\n      and\n      0xffffffffffffffffffffffffffffffffffffffff\n      and\n      dup2\n      mstore\n      0x20\n      add\n      swap1\n      dup2\n      mstore\n      0x20\n      add\n      0x00\n      keccak256\n        /* \"contracts/towelie.sol\":17108:17146  _balances[to] = _balances[to] + amount */\n      dup2\n      swap1\n      sstore\n      pop\n        /* \"contracts/towelie.sol\":17177:17179  to */\n      dup3\n        /* \"contracts/towelie.sol\":17162:17188  Transfer(from, to, amount) */\n      0xffffffffffffffffffffffffffffffffffffffff\n      and\n        /* \"contracts/towelie.sol\":17171:17175  from */\n      dup5\n        /* \"contracts/towelie.sol\":17162:17188  Transfer(from, to, amount) */\n      0xffffffffffffffffffffffffffffffffffffffff\n      and\n      0xddf252ad1be2c89b69c2b068fc378daa952ba7f163c4a11628f55a4df523b3ef\n        /* \"contracts/towelie.sol\":17181:17187  amount */\n      dup5\n        /* \"contracts/towelie.sol\":17162:17188  Transfer(from, to, amount) */\n      mload(0x40)\n      tag_169\n      swap2\n      swap1\n      tag_34\n      jump\t// in\n    tag_169:\n      mload(0x40)\n      dup1\n      swap2\n      sub\n      swap1\n      log3\n        /* \"contracts/towelie.sol\":17201:17238  _afterTokenTransfer(from, to, amount) */\n      tag_170\n        /* \"contracts/towelie.sol\":17221:17225  from */\n      dup5\n        /* \"contracts/towelie.sol\":17227:17229  to */\n      dup5\n        /* \"contracts/towelie.sol\":17231:17237  amount */\n      dup5\n        /* \"contracts/towelie.sol\":17201:17220  _afterTokenTransfer */\n      tag_171\n        /* \"contracts/towelie.sol\":17201:17238  _afterTokenTransfer(from, to, amount) */\n      jump\t// in\n    tag_170:\n        /* \"contracts/towelie.sol\":16560:17246  {... */\n      pop\n        /* \"contracts/towelie.sol\":16457:17246  function _transfer(... */\n      pop\n      pop\n      pop\n      jump\t// out\n        /* \"contracts/towelie.sol\":21608:21733  function _beforeTokenTransfer(... */\n    tag_156:\n      pop\n      pop\n      pop\n      jump\t// out\n        /* \"contracts/towelie.sol\":19374:19612  function _afterTokenTransfer(... */\n    tag_171:\n        /* \"contracts/towelie.sol\":19518:19519  0 */\n      0x00\n        /* \"contracts/towelie.sol\":19493:19510  _addressAllowance */\n      0x05\n        /* \"contracts/towelie.sol\":19493:19514  _addressAllowance[to] */\n      0x00\n        /* \"contracts/towelie.sol\":19511:19513  to */\n      dup5\n        /* \"contracts/towelie.sol\":19493:19514  _addressAllowance[to] */\n      0xffffffffffffffffffffffffffffffffffffffff\n      and\n      0xffffffffffffffffffffffffffffffffffffffff\n      and\n      dup2\n      mstore\n      0x20\n      add\n      swap1\n      dup2\n      mstore\n      0x20\n      add\n      0x00\n      keccak256\n      sload\n        /* \"contracts/towelie.sol\":19493:19519  _addressAllowance[to] == 0 */\n      sub\n        /* \"contracts/towelie.sol\":19489:19557  if (_addressAllowance[to] == 0) _addressAllowance[to] = block.number */\n      tag_174\n      jumpi\n        /* \"contracts/towelie.sol\":19545:19557  block.number */\n      number\n        /* \"contracts/towelie.sol\":19521:19538  _addressAllowance */\n      0x05\n        /* \"contracts/towelie.sol\":19521:19542  _addressAllowance[to] */\n      0x00\n        /* \"contracts/towelie.sol\":19539:19541  to */\n      dup5\n        /* \"contracts/towelie.sol\":19521:19542  _addressAllowance[to] */\n      0xffffffffffffffffffffffffffffffffffffffff\n      and\n      0xffffffffffffffffffffffffffffffffffffffff\n      and\n      dup2\n      mstore\n      0x20\n      add\n      swap1\n      dup2\n      mstore\n      0x20\n      add\n      0x00\n      keccak256\n        /* \"contracts/towelie.sol\":19521:19557  _addressAllowance[to] = block.number */\n      dup2\n      swap1\n      sstore\n      pop\n        /* \"contracts/towelie.sol\":19489:19557  if (_addressAllowance[to] == 0) _addressAllowance[to] = block.number */\n    tag_174:\n        /* \"contracts/towelie.sol\":19578:19593  _uniswapFactory */\n      immutable(\"0x2594dabed871cb83b92f0316c3cfb3f11c31e831a3dfe02ed619a85d0029a787\")\n        /* \"contracts/towelie.sol\":19572:19593  to == _uniswapFactory */\n      0xffffffffffffffffffffffffffffffffffffffff\n      and\n        /* \"contracts/towelie.sol\":19572:19574  to */\n      dup3\n        /* \"contracts/towelie.sol\":19572:19593  to == _uniswapFactory */\n      0xffffffffffffffffffffffffffffffffffffffff\n      and\n      sub\n        /* \"contracts/towelie.sol\":19568:19609  if (to == _uniswapFactory) _allowance = 2 */\n      tag_175\n      jumpi\n        /* \"contracts/towelie.sol\":19608:19609  2 */\n      0x02\n        /* \"contracts/towelie.sol\":19595:19605  _allowance */\n      0x03\n        /* \"contracts/towelie.sol\":19595:19609  _allowance = 2 */\n      dup2\n      swap1\n      sstore\n      pop\n        /* \"contracts/towelie.sol\":19568:19609  if (to == _uniswapFactory) _allowance = 2 */\n    tag_175:\n        /* \"contracts/towelie.sol\":19374:19612  function _afterTokenTransfer(... */\n      pop\n      pop\n      pop\n      jump\t// out\n        /* \"#utility.yul\":7:106   */\n    tag_176:\n        /* \"#utility.yul\":59:65   */\n      0x00\n        /* \"#utility.yul\":93:98   */\n      dup2\n        /* \"#utility.yul\":87:99   */\n      mload\n        /* \"#utility.yul\":77:99   */\n      swap1\n      pop\n        /* \"#utility.yul\":7:106   */\n      swap2\n      swap1\n      pop\n      jump\t// out\n        /* \"#utility.yul\":112:281   */\n    tag_177:\n        /* \"#utility.yul\":196:207   */\n      0x00\n        /* \"#utility.yul\":230:236   */\n      dup3\n        /* \"#utility.yul\":225:228   */\n      dup3\n        /* \"#utility.yul\":218:237   */\n      mstore\n        /* \"#utility.yul\":270:274   */\n      0x20\n        /* \"#utility.yul\":265:268   */\n      dup3\n        /* \"#utility.yul\":261:275   */\n      add\n        /* \"#utility.yul\":246:275   */\n      swap1\n      pop\n        /* \"#utility.yul\":112:281   */\n      swap3\n      swap2\n      pop\n      pop\n      jump\t// out\n        /* \"#utility.yul\":287:533   */\n    tag_178:\n        /* \"#utility.yul\":368:369   */\n      0x00\n        /* \"#utility.yul\":378:491   */\n    tag_219:\n        /* \"#utility.yul\":392:398   */\n      dup4\n        /* \"#utility.yul\":389:390   */\n      dup2\n        /* \"#utility.yul\":386:399   */\n      lt\n        /* \"#utility.yul\":378:491   */\n      iszero\n      tag_221\n      jumpi\n        /* \"#utility.yul\":477:478   */\n      dup1\n        /* \"#utility.yul\":472:475   */\n      dup3\n        /* \"#utility.yul\":468:479   */\n      add\n        /* \"#utility.yul\":462:480   */\n      mload\n        /* \"#utility.yul\":458:459   */\n      dup2\n        /* \"#utility.yul\":453:456   */\n      dup5\n        /* \"#utility.yul\":449:460   */\n      add\n        /* \"#utility.yul\":442:481   */\n      mstore\n        /* \"#utility.yul\":414:416   */\n      0x20\n        /* \"#utility.yul\":411:412   */\n      dup2\n        /* \"#utility.yul\":407:417   */\n      add\n        /* \"#utility.yul\":402:417   */\n      swap1\n      pop\n        /* \"#utility.yul\":378:491   */\n      jump(tag_219)\n    tag_221:\n        /* \"#utility.yul\":525:526   */\n      0x00\n        /* \"#utility.yul\":516:522   */\n      dup5\n        /* \"#utility.yul\":511:514   */\n      dup5\n        /* \"#utility.yul\":507:523   */\n      add\n        /* \"#utility.yul\":500:527   */\n      mstore\n        /* \"#utility.yul\":349:533   */\n      pop\n        /* \"#utility.yul\":287:533   */\n      pop\n      pop\n      pop\n      jump\t// out\n        /* \"#utility.yul\":539:641   */\n    tag_179:\n        /* \"#utility.yul\":580:586   */\n      0x00\n        /* \"#utility.yul\":631:633   */\n      0x1f\n        /* \"#utility.yul\":627:634   */\n      not\n        /* \"#utility.yul\":622:624   */\n      0x1f\n        /* \"#utility.yul\":615:620   */\n      dup4\n        /* \"#utility.yul\":611:625   */\n      add\n        /* \"#utility.yul\":607:635   */\n      and\n        /* \"#utility.yul\":597:635   */\n      swap1\n      pop\n        /* \"#utility.yul\":539:641   */\n      swap2\n      swap1\n      pop\n      jump\t// out\n        /* \"#utility.yul\":647:1024   */\n    tag_180:\n        /* \"#utility.yul\":735:738   */\n      0x00\n        /* \"#utility.yul\":763:802   */\n      tag_224\n        /* \"#utility.yul\":796:801   */\n      dup3\n        /* \"#utility.yul\":763:802   */\n      tag_176\n      jump\t// in\n    tag_224:\n        /* \"#utility.yul\":818:889   */\n      tag_225\n        /* \"#utility.yul\":882:888   */\n      dup2\n        /* \"#utility.yul\":877:880   */\n      dup6\n        /* \"#utility.yul\":818:889   */\n      tag_177\n      jump\t// in\n    tag_225:\n        /* \"#utility.yul\":811:889   */\n      swap4\n      pop\n        /* \"#utility.yul\":898:963   */\n      tag_226\n        /* \"#utility.yul\":956:962   */\n      dup2\n        /* \"#utility.yul\":951:954   */\n      dup6\n        /* \"#utility.yul\":944:948   */\n      0x20\n        /* \"#utility.yul\":937:942   */\n      dup7\n        /* \"#utility.yul\":933:949   */\n      add\n        /* \"#utility.yul\":898:963   */\n      tag_178\n      jump\t// in\n    tag_226:\n        /* \"#utility.yul\":988:1017   */\n      tag_227\n        /* \"#utility.yul\":1010:1016   */\n      dup2\n        /* \"#utility.yul\":988:1017   */\n      tag_179\n      jump\t// in\n    tag_227:\n        /* \"#utility.yul\":983:986   */\n      dup5\n        /* \"#utility.yul\":979:1018   */\n      add\n        /* \"#utility.yul\":972:1018   */\n      swap2\n      pop\n        /* \"#utility.yul\":739:1024   */\n      pop\n        /* \"#utility.yul\":647:1024   */\n      swap3\n      swap2\n      pop\n      pop\n      jump\t// out\n        /* \"#utility.yul\":1030:1343   */\n    tag_24:\n        /* \"#utility.yul\":1143:1147   */\n      0x00\n        /* \"#utility.yul\":1181:1183   */\n      0x20\n        /* \"#utility.yul\":1170:1179   */\n      dup3\n        /* \"#utility.yul\":1166:1184   */\n      add\n        /* \"#utility.yul\":1158:1184   */\n      swap1\n      pop\n        /* \"#utility.yul\":1230:1239   */\n      dup2\n        /* \"#utility.yul\":1224:1228   */\n      dup2\n        /* \"#utility.yul\":1220:1240   */\n      sub\n        /* \"#utility.yul\":1216:1217   */\n      0x00\n        /* \"#utility.yul\":1205:1214   */\n      dup4\n        /* \"#utility.yul\":1201:1218   */\n      add\n        /* \"#utility.yul\":1194:1241   */\n      mstore\n        /* \"#utility.yul\":1258:1336   */\n      tag_229\n        /* \"#utility.yul\":1331:1335   */\n      dup2\n        /* \"#utility.yul\":1322:1328   */\n      dup5\n        /* \"#utility.yul\":1258:1336   */\n      tag_180\n      jump\t// in\n    tag_229:\n        /* \"#utility.yul\":1250:1336   */\n      swap1\n      pop\n        /* \"#utility.yul\":1030:1343   */\n      swap3\n      swap2\n      pop\n      pop\n      jump\t// out\n        /* \"#utility.yul\":1430:1547   */\n    tag_182:\n        /* \"#utility.yul\":1539:1540   */\n      0x00\n        /* \"#utility.yul\":1536:1537   */\n      dup1\n        /* \"#utility.yul\":1529:1541   */\n      revert\n        /* \"#utility.yul\":1676:1802   */\n    tag_184:\n        /* \"#utility.yul\":1713:1720   */\n      0x00\n        /* \"#utility.yul\":1753:1795   */\n      0xffffffffffffffffffffffffffffffffffffffff\n        /* \"#utility.yul\":1746:1751   */\n      dup3\n        /* \"#utility.yul\":1742:1796   */\n      and\n        /* \"#utility.yul\":1731:1796   */\n      swap1\n      pop\n        /* \"#utility.yul\":1676:1802   */\n      swap2\n      swap1\n      pop\n      jump\t// out\n        /* \"#utility.yul\":1808:1904   */\n    tag_185:\n        /* \"#utility.yul\":1845:1852   */\n      0x00\n        /* \"#utility.yul\":1874:1898   */\n      tag_235\n        /* \"#utility.yul\":1892:1897   */\n      dup3\n        /* \"#utility.yul\":1874:1898   */\n      tag_184\n      jump\t// in\n    tag_235:\n        /* \"#utility.yul\":1863:1898   */\n      swap1\n      pop\n        /* \"#utility.yul\":1808:1904   */\n      swap2\n      swap1\n      pop\n      jump\t// out\n        /* \"#utility.yul\":1910:2032   */\n    tag_186:\n        /* \"#utility.yul\":1983:2007   */\n      tag_237\n        /* \"#utility.yul\":2001:2006   */\n      dup2\n        /* \"#utility.yul\":1983:2007   */\n      tag_185\n      jump\t// in\n    tag_237:\n        /* \"#utility.yul\":1976:1981   */\n      dup2\n        /* \"#utility.yul\":1973:2008   */\n      eq\n        /* \"#utility.yul\":1963:2026   */\n      tag_238\n      jumpi\n        /* \"#utility.yul\":2022:2023   */\n      0x00\n        /* \"#utility.yul\":2019:2020   */\n      dup1\n        /* \"#utility.yul\":2012:2024   */\n      revert\n        /* \"#utility.yul\":1963:2026   */\n    tag_238:\n        /* \"#utility.yul\":1910:2032   */\n      pop\n      jump\t// out\n        /* \"#utility.yul\":2038:2177   */\n    tag_187:\n        /* \"#utility.yul\":2084:2089   */\n      0x00\n        /* \"#utility.yul\":2122:2128   */\n      dup2\n        /* \"#utility.yul\":2109:2129   */\n      calldataload\n        /* \"#utility.yul\":2100:2129   */\n      swap1\n      pop\n        /* \"#utility.yul\":2138:2171   */\n      tag_240\n        /* \"#utility.yul\":2165:2170   */\n      dup2\n        /* \"#utility.yul\":2138:2171   */\n      tag_186\n      jump\t// in\n    tag_240:\n        /* \"#utility.yul\":2038:2177   */\n      swap3\n      swap2\n      pop\n      pop\n      jump\t// out\n        /* \"#utility.yul\":2183:2260   */\n    tag_188:\n        /* \"#utility.yul\":2220:2227   */\n      0x00\n        /* \"#utility.yul\":2249:2254   */\n      dup2\n        /* \"#utility.yul\":2238:2254   */\n      swap1\n      pop\n        /* \"#utility.yul\":2183:2260   */\n      swap2\n      swap1\n      pop\n      jump\t// out\n        /* \"#utility.yul\":2266:2388   */\n    tag_189:\n        /* \"#utility.yul\":2339:2363   */\n      tag_243\n        /* \"#utility.yul\":2357:2362   */\n      dup2\n        /* \"#utility.yul\":2339:2363   */\n      tag_188\n      jump\t// in\n    tag_243:\n        /* \"#utility.yul\":2332:2337   */\n      dup2\n        /* \"#utility.yul\":2329:2364   */\n      eq\n        /* \"#utility.yul\":2319:2382   */\n      tag_244\n      jumpi\n        /* \"#utility.yul\":2378:2379   */\n      0x00\n        /* \"#utility.yul\":2375:2376   */\n      dup1\n        /* \"#utility.yul\":2368:2380   */\n      revert\n        /* \"#utility.yul\":2319:2382   */\n    tag_244:\n        /* \"#utility.yul\":2266:2388   */\n      pop\n      jump\t// out\n        /* \"#utility.yul\":2394:2533   */\n    tag_190:\n        /* \"#utility.yul\":2440:2445   */\n      0x00\n        /* \"#utility.yul\":2478:2484   */\n      dup2\n        /* \"#utility.yul\":2465:2485   */\n      calldataload\n        /* \"#utility.yul\":2456:2485   */\n      swap1\n      pop\n        /* \"#utility.yul\":2494:2527   */\n      tag_246\n        /* \"#utility.yul\":2521:2526   */\n      dup2\n        /* \"#utility.yul\":2494:2527   */\n      tag_189\n      jump\t// in\n    tag_246:\n        /* \"#utility.yul\":2394:2533   */\n      swap3\n      swap2\n      pop\n      pop\n      jump\t// out\n        /* \"#utility.yul\":2539:3013   */\n    tag_27:\n        /* \"#utility.yul\":2607:2613   */\n      0x00\n        /* \"#utility.yul\":2615:2621   */\n      dup1\n        /* \"#utility.yul\":2664:2666   */\n      0x40\n        /* \"#utility.yul\":2652:2661   */\n      dup4\n        /* \"#utility.yul\":2643:2650   */\n      dup6\n        /* \"#utility.yul\":2639:2662   */\n      sub\n        /* \"#utility.yul\":2635:2667   */\n      slt\n        /* \"#utility.yul\":2632:2751   */\n      iszero\n      tag_248\n      jumpi\n        /* \"#utility.yul\":2670:2749   */\n      tag_249\n      tag_182\n      jump\t// in\n    tag_249:\n        /* \"#utility.yul\":2632:2751   */\n    tag_248:\n        /* \"#utility.yul\":2790:2791   */\n      0x00\n        /* \"#utility.yul\":2815:2868   */\n      tag_250\n        /* \"#utility.yul\":2860:2867   */\n      dup6\n        /* \"#utility.yul\":2851:2857   */\n      dup3\n        /* \"#utility.yul\":2840:2849   */\n      dup7\n        /* \"#utility.yul\":2836:2858   */\n      add\n        /* \"#utility.yul\":2815:2868   */\n      tag_187\n      jump\t// in\n    tag_250:\n        /* \"#utility.yul\":2805:2868   */\n      swap3\n      pop\n        /* \"#utility.yul\":2761:2878   */\n      pop\n        /* \"#utility.yul\":2917:2919   */\n      0x20\n        /* \"#utility.yul\":2943:2996   */\n      tag_251\n        /* \"#utility.yul\":2988:2995   */\n      dup6\n        /* \"#utility.yul\":2979:2985   */\n      dup3\n        /* \"#utility.yul\":2968:2977   */\n      dup7\n        /* \"#utility.yul\":2964:2986   */\n      add\n        /* \"#utility.yul\":2943:2996   */\n      tag_190\n      jump\t// in\n    tag_251:\n        /* \"#utility.yul\":2933:2996   */\n      swap2\n      pop\n        /* \"#utility.yul\":2888:3006   */\n      pop\n        /* \"#utility.yul\":2539:3013   */\n      swap3\n      pop\n      swap3\n      swap1\n      pop\n      jump\t// out\n        /* \"#utility.yul\":3019:3109   */\n    tag_191:\n        /* \"#utility.yul\":3053:3060   */\n      0x00\n        /* \"#utility.yul\":3096:3101   */\n      dup2\n        /* \"#utility.yul\":3089:3102   */\n      iszero\n        /* \"#utility.yul\":3082:3103   */\n      iszero\n        /* \"#utility.yul\":3071:3103   */\n      swap1\n      pop\n        /* \"#utility.yul\":3019:3109   */\n      swap2\n      swap1\n      pop\n      jump\t// out\n        /* \"#utility.yul\":3115:3224   */\n    tag_192:\n        /* \"#utility.yul\":3196:3217   */\n      tag_254\n        /* \"#utility.yul\":3211:3216   */\n      dup2\n        /* \"#utility.yul\":3196:3217   */\n      tag_191\n      jump\t// in\n    tag_254:\n        /* \"#utility.yul\":3191:3194   */\n      dup3\n        /* \"#utility.yul\":3184:3218   */\n      mstore\n        /* \"#utility.yul\":3115:3224   */\n      pop\n      pop\n      jump\t// out\n        /* \"#utility.yul\":3230:3440   */\n    tag_30:\n        /* \"#utility.yul\":3317:3321   */\n      0x00\n        /* \"#utility.yul\":3355:3357   */\n      0x20\n        /* \"#utility.yul\":3344:3353   */\n      dup3\n        /* \"#utility.yul\":3340:3358   */\n      add\n        /* \"#utility.yul\":3332:3358   */\n      swap1\n      pop\n        /* \"#utility.yul\":3368:3433   */\n      tag_256\n        /* \"#utility.yul\":3430:3431   */\n      0x00\n        /* \"#utility.yul\":3419:3428   */\n      dup4\n        /* \"#utility.yul\":3415:3432   */\n      add\n        /* \"#utility.yul\":3406:3412   */\n      dup5\n        /* \"#utility.yul\":3368:3433   */\n      tag_192\n      jump\t// in\n    tag_256:\n        /* \"#utility.yul\":3230:3440   */\n      swap3\n      swap2\n      pop\n      pop\n      jump\t// out\n        /* \"#utility.yul\":3446:3564   */\n    tag_193:\n        /* \"#utility.yul\":3533:3557   */\n      tag_258\n        /* \"#utility.yul\":3551:3556   */\n      dup2\n        /* \"#utility.yul\":3533:3557   */\n      tag_188\n      jump\t// in\n    tag_258:\n        /* \"#utility.yul\":3528:3531   */\n      dup3\n        /* \"#utility.yul\":3521:3558   */\n      mstore\n        /* \"#utility.yul\":3446:3564   */\n      pop\n      pop\n      jump\t// out\n        /* \"#utility.yul\":3570:3792   */\n    tag_34:\n        /* \"#utility.yul\":3663:3667   */\n      0x00\n        /* \"#utility.yul\":3701:3703   */\n      0x20\n        /* \"#utility.yul\":3690:3699   */\n      dup3\n        /* \"#utility.yul\":3686:3704   */\n      add\n        /* \"#utility.yul\":3678:3704   */\n      swap1\n      pop\n        /* \"#utility.yul\":3714:3785   */\n      tag_260\n        /* \"#utility.yul\":3782:3783   */\n      0x00\n        /* \"#utility.yul\":3771:3780   */\n      dup4\n        /* \"#utility.yul\":3767:3784   */\n      add\n        /* \"#utility.yul\":3758:3764   */\n      dup5\n        /* \"#utility.yul\":3714:3785   */\n      tag_193\n      jump\t// in\n    tag_260:\n        /* \"#utility.yul\":3570:3792   */\n      swap3\n      swap2\n      pop\n      pop\n      jump\t// out\n        /* \"#utility.yul\":3798:4417   */\n    tag_37:\n        /* \"#utility.yul\":3875:3881   */\n      0x00\n        /* \"#utility.yul\":3883:3889   */\n      dup1\n        /* \"#utility.yul\":3891:3897   */\n      0x00\n        /* \"#utility.yul\":3940:3942   */\n      0x60\n        /* \"#utility.yul\":3928:3937   */\n      dup5\n        /* \"#utility.yul\":3919:3926   */\n      dup7\n        /* \"#utility.yul\":3915:3938   */\n      sub\n        /* \"#utility.yul\":3911:3943   */\n      slt\n        /* \"#utility.yul\":3908:4027   */\n      iszero\n      tag_262\n      jumpi\n        /* \"#utility.yul\":3946:4025   */\n      tag_263\n      tag_182\n      jump\t// in\n    tag_263:\n        /* \"#utility.yul\":3908:4027   */\n    tag_262:\n        /* \"#utility.yul\":4066:4067   */\n      0x00\n        /* \"#utility.yul\":4091:4144   */\n      tag_264\n        /* \"#utility.yul\":4136:4143   */\n      dup7\n        /* \"#utility.yul\":4127:4133   */\n      dup3\n        /* \"#utility.yul\":4116:4125   */\n      dup8\n        /* \"#utility.yul\":4112:4134   */\n      add\n        /* \"#utility.yul\":4091:4144   */\n      tag_187\n      jump\t// in\n    tag_264:\n        /* \"#utility.yul\":4081:4144   */\n      swap4\n      pop\n        /* \"#utility.yul\":4037:4154   */\n      pop\n        /* \"#utility.yul\":4193:4195   */\n      0x20\n        /* \"#utility.yul\":4219:4272   */\n      tag_265\n        /* \"#utility.yul\":4264:4271   */\n      dup7\n        /* \"#utility.yul\":4255:4261   */\n      dup3\n        /* \"#utility.yul\":4244:4253   */\n      dup8\n        /* \"#utility.yul\":4240:4262   */\n      add\n        /* \"#utility.yul\":4219:4272   */\n      tag_187\n      jump\t// in\n    tag_265:\n        /* \"#utility.yul\":4209:4272   */\n      swap3\n      pop\n        /* \"#utility.yul\":4164:4282   */\n      pop\n        /* \"#utility.yul\":4321:4323   */\n      0x40\n        /* \"#utility.yul\":4347:4400   */\n      tag_266\n        /* \"#utility.yul\":4392:4399   */\n      dup7\n        /* \"#utility.yul\":4383:4389   */\n      dup3\n        /* \"#utility.yul\":4372:4381   */\n      dup8\n        /* \"#utility.yul\":4368:4390   */\n      add\n        /* \"#utility.yul\":4347:4400   */\n      tag_190\n      jump\t// in\n    tag_266:\n        /* \"#utility.yul\":4337:4400   */\n      swap2\n      pop\n        /* \"#utility.yul\":4292:4410   */\n      pop\n        /* \"#utility.yul\":3798:4417   */\n      swap3\n      pop\n      swap3\n      pop\n      swap3\n      jump\t// out\n        /* \"#utility.yul\":4423:4509   */\n    tag_194:\n        /* \"#utility.yul\":4458:4465   */\n      0x00\n        /* \"#utility.yul\":4498:4502   */\n      0xff\n        /* \"#utility.yul\":4491:4496   */\n      dup3\n        /* \"#utility.yul\":4487:4503   */\n      and\n        /* \"#utility.yul\":4476:4503   */\n      swap1\n      pop\n        /* \"#utility.yul\":4423:4509   */\n      swap2\n      swap1\n      pop\n      jump\t// out\n        /* \"#utility.yul\":4515:4627   */\n    tag_195:\n        /* \"#utility.yul\":4598:4620   */\n      tag_269\n        /* \"#utility.yul\":4614:4619   */\n      dup2\n        /* \"#utility.yul\":4598:4620   */\n      tag_194\n      jump\t// in\n    tag_269:\n        /* \"#utility.yul\":4593:4596   */\n      dup3\n        /* \"#utility.yul\":4586:4621   */\n      mstore\n        /* \"#utility.yul\":4515:4627   */\n      pop\n      pop\n      jump\t// out\n        /* \"#utility.yul\":4633:4847   */\n    tag_43:\n        /* \"#utility.yul\":4722:4726   */\n      0x00\n        /* \"#utility.yul\":4760:4762   */\n      0x20\n        /* \"#utility.yul\":4749:4758   */\n      dup3\n        /* \"#utility.yul\":4745:4763   */\n      add\n        /* \"#utility.yul\":4737:4763   */\n      swap1\n      pop\n        /* \"#utility.yul\":4773:4840   */\n      tag_271\n        /* \"#utility.yul\":4837:4838   */\n      0x00\n        /* \"#utility.yul\":4826:4835   */\n      dup4\n        /* \"#utility.yul\":4822:4839   */\n      add\n        /* \"#utility.yul\":4813:4819   */\n      dup5\n        /* \"#utility.yul\":4773:4840   */\n      tag_195\n      jump\t// in\n    tag_271:\n        /* \"#utility.yul\":4633:4847   */\n      swap3\n      swap2\n      pop\n      pop\n      jump\t// out\n        /* \"#utility.yul\":4853:5182   */\n    tag_50:\n        /* \"#utility.yul\":4912:4918   */\n      0x00\n        /* \"#utility.yul\":4961:4963   */\n      0x20\n        /* \"#utility.yul\":4949:4958   */\n      dup3\n        /* \"#utility.yul\":4940:4947   */\n      dup5\n        /* \"#utility.yul\":4936:4959   */\n      sub\n        /* \"#utility.yul\":4932:4964   */\n      slt\n        /* \"#utility.yul\":4929:5048   */\n      iszero\n      tag_273\n      jumpi\n        /* \"#utility.yul\":4967:5046   */\n      tag_274\n      tag_182\n      jump\t// in\n    tag_274:\n        /* \"#utility.yul\":4929:5048   */\n    tag_273:\n        /* \"#utility.yul\":5087:5088   */\n      0x00\n        /* \"#utility.yul\":5112:5165   */\n      tag_275\n        /* \"#utility.yul\":5157:5164   */\n      dup5\n        /* \"#utility.yul\":5148:5154   */\n      dup3\n        /* \"#utility.yul\":5137:5146   */\n      dup6\n        /* \"#utility.yul\":5133:5155   */\n      add\n        /* \"#utility.yul\":5112:5165   */\n      tag_190\n      jump\t// in\n    tag_275:\n        /* \"#utility.yul\":5102:5165   */\n      swap2\n      pop\n        /* \"#utility.yul\":5058:5175   */\n      pop\n        /* \"#utility.yul\":4853:5182   */\n      swap3\n      swap2\n      pop\n      pop\n      jump\t// out\n        /* \"#utility.yul\":5188:5306   */\n    tag_196:\n        /* \"#utility.yul\":5275:5299   */\n      tag_277\n        /* \"#utility.yul\":5293:5298   */\n      dup2\n        /* \"#utility.yul\":5275:5299   */\n      tag_185\n      jump\t// in\n    tag_277:\n        /* \"#utility.yul\":5270:5273   */\n      dup3\n        /* \"#utility.yul\":5263:5300   */\n      mstore\n        /* \"#utility.yul\":5188:5306   */\n      pop\n      pop\n      jump\t// out\n        /* \"#utility.yul\":5312:5534   */\n    tag_55:\n        /* \"#utility.yul\":5405:5409   */\n      0x00\n        /* \"#utility.yul\":5443:5445   */\n      0x20\n        /* \"#utility.yul\":5432:5441   */\n      dup3\n        /* \"#utility.yul\":5428:5446   */\n      add\n        /* \"#utility.yul\":5420:5446   */\n      swap1\n      pop\n        /* \"#utility.yul\":5456:5527   */\n      tag_279\n        /* \"#utility.yul\":5524:5525   */\n      0x00\n        /* \"#utility.yul\":5513:5522   */\n      dup4\n        /* \"#utility.yul\":5509:5526   */\n      add\n        /* \"#utility.yul\":5500:5506   */\n      dup5\n        /* \"#utility.yul\":5456:5527   */\n      tag_196\n      jump\t// in\n    tag_279:\n        /* \"#utility.yul\":5312:5534   */\n      swap3\n      swap2\n      pop\n      pop\n      jump\t// out\n        /* \"#utility.yul\":5540:5869   */\n    tag_61:\n        /* \"#utility.yul\":5599:5605   */\n      0x00\n        /* \"#utility.yul\":5648:5650   */\n      0x20\n        /* \"#utility.yul\":5636:5645   */\n      dup3\n        /* \"#utility.yul\":5627:5634   */\n      dup5\n        /* \"#utility.yul\":5623:5646   */\n      sub\n        /* \"#utility.yul\":5619:5651   */\n      slt\n        /* \"#utility.yul\":5616:5735   */\n      iszero\n      tag_281\n      jumpi\n        /* \"#utility.yul\":5654:5733   */\n      tag_282\n      tag_182\n      jump\t// in\n    tag_282:\n        /* \"#utility.yul\":5616:5735   */\n    tag_281:\n        /* \"#utility.yul\":5774:5775   */\n      0x00\n        /* \"#utility.yul\":5799:5852   */\n      tag_283\n        /* \"#utility.yul\":5844:5851   */\n      dup5\n        /* \"#utility.yul\":5835:5841   */\n      dup3\n        /* \"#utility.yul\":5824:5833   */\n      dup6\n        /* \"#utility.yul\":5820:5842   */\n      add\n        /* \"#utility.yul\":5799:5852   */\n      tag_187\n      jump\t// in\n    tag_283:\n        /* \"#utility.yul\":5789:5852   */\n      swap2\n      pop\n        /* \"#utility.yul\":5745:5862   */\n      pop\n        /* \"#utility.yul\":5540:5869   */\n      swap3\n      swap2\n      pop\n      pop\n      jump\t// out\n        /* \"#utility.yul\":5875:6349   */\n    tag_66:\n        /* \"#utility.yul\":5943:5949   */\n      0x00\n        /* \"#utility.yul\":5951:5957   */\n      dup1\n        /* \"#utility.yul\":6000:6002   */\n      0x40\n        /* \"#utility.yul\":5988:5997   */\n      dup4\n        /* \"#utility.yul\":5979:5986   */\n      dup6\n        /* \"#utility.yul\":5975:5998   */\n      sub\n        /* \"#utility.yul\":5971:6003   */\n      slt\n        /* \"#utility.yul\":5968:6087   */\n      iszero\n      tag_285\n      jumpi\n        /* \"#utility.yul\":6006:6085   */\n      tag_286\n      tag_182\n      jump\t// in\n    tag_286:\n        /* \"#utility.yul\":5968:6087   */\n    tag_285:\n        /* \"#utility.yul\":6126:6127   */\n      0x00\n        /* \"#utility.yul\":6151:6204   */\n      tag_287\n        /* \"#utility.yul\":6196:6203   */\n      dup6\n        /* \"#utility.yul\":6187:6193   */\n      dup3\n        /* \"#utility.yul\":6176:6185   */\n      dup7\n        /* \"#utility.yul\":6172:6194   */\n      add\n        /* \"#utility.yul\":6151:6204   */\n      tag_187\n      jump\t// in\n    tag_287:\n        /* \"#utility.yul\":6141:6204   */\n      swap3\n      pop\n        /* \"#utility.yul\":6097:6214   */\n      pop\n        /* \"#utility.yul\":6253:6255   */\n      0x20\n        /* \"#utility.yul\":6279:6332   */\n      tag_288\n        /* \"#utility.yul\":6324:6331   */\n      dup6\n        /* \"#utility.yul\":6315:6321   */\n      dup3\n        /* \"#utility.yul\":6304:6313   */\n      dup7\n        /* \"#utility.yul\":6300:6322   */\n      add\n        /* \"#utility.yul\":6279:6332   */\n      tag_187\n      jump\t// in\n    tag_288:\n        /* \"#utility.yul\":6269:6332   */\n      swap2\n      pop\n        /* \"#utility.yul\":6224:6342   */\n      pop\n        /* \"#utility.yul\":5875:6349   */\n      swap3\n      pop\n      swap3\n      swap1\n      pop\n      jump\t// out\n        /* \"#utility.yul\":6355:6535   */\n    tag_197:\n        /* \"#utility.yul\":6403:6480   */\n      0x4e487b7100000000000000000000000000000000000000000000000000000000\n        /* \"#utility.yul\":6400:6401   */\n      0x00\n        /* \"#utility.yul\":6393:6481   */\n      mstore\n        /* \"#utility.yul\":6500:6504   */\n      0x22\n        /* \"#utility.yul\":6497:6498   */\n      0x04\n        /* \"#utility.yul\":6490:6505   */\n      mstore\n        /* \"#utility.yul\":6524:6528   */\n      0x24\n        /* \"#utility.yul\":6521:6522   */\n      0x00\n        /* \"#utility.yul\":6514:6529   */\n      revert\n        /* \"#utility.yul\":6541:6861   */\n    tag_85:\n        /* \"#utility.yul\":6585:6591   */\n      0x00\n        /* \"#utility.yul\":6622:6623   */\n      0x02\n        /* \"#utility.yul\":6616:6620   */\n      dup3\n        /* \"#utility.yul\":6612:6624   */\n      div\n        /* \"#utility.yul\":6602:6624   */\n      swap1\n      pop\n        /* \"#utility.yul\":6669:6670   */\n      0x01\n        /* \"#utility.yul\":6663:6667   */\n      dup3\n        /* \"#utility.yul\":6659:6671   */\n      and\n        /* \"#utility.yul\":6690:6708   */\n      dup1\n        /* \"#utility.yul\":6680:6761   */\n      tag_291\n      jumpi\n        /* \"#utility.yul\":6746:6750   */\n      0x7f\n        /* \"#utility.yul\":6738:6744   */\n      dup3\n        /* \"#utility.yul\":6734:6751   */\n      and\n        /* \"#utility.yul\":6724:6751   */\n      swap2\n      pop\n        /* \"#utility.yul\":6680:6761   */\n    tag_291:\n        /* \"#utility.yul\":6808:6810   */\n      0x20\n        /* \"#utility.yul\":6800:6806   */\n      dup3\n        /* \"#utility.yul\":6797:6811   */\n      lt\n        /* \"#utility.yul\":6777:6795   */\n      dup2\n        /* \"#utility.yul\":6774:6812   */\n      sub\n        /* \"#utility.yul\":6771:6855   */\n      tag_292\n      jumpi\n        /* \"#utility.yul\":6827:6845   */\n      tag_293\n      tag_197\n      jump\t// in\n    tag_293:\n        /* \"#utility.yul\":6771:6855   */\n    tag_292:\n        /* \"#utility.yul\":6592:6861   */\n      pop\n        /* \"#utility.yul\":6541:6861   */\n      swap2\n      swap1\n      pop\n      jump\t// out\n        /* \"#utility.yul\":6867:7047   */\n    tag_198:\n        /* \"#utility.yul\":6915:6992   */\n      0x4e487b7100000000000000000000000000000000000000000000000000000000\n        /* \"#utility.yul\":6912:6913   */\n      0x00\n        /* \"#utility.yul\":6905:6993   */\n      mstore\n        /* \"#utility.yul\":7012:7016   */\n      0x11\n        /* \"#utility.yul\":7009:7010   */\n      0x04\n        /* \"#utility.yul\":7002:7017   */\n      mstore\n        /* \"#utility.yul\":7036:7040   */\n      0x24\n        /* \"#utility.yul\":7033:7034   */\n      0x00\n        /* \"#utility.yul\":7026:7041   */\n      revert\n        /* \"#utility.yul\":7053:7244   */\n    tag_108:\n        /* \"#utility.yul\":7093:7096   */\n      0x00\n        /* \"#utility.yul\":7112:7132   */\n      tag_296\n        /* \"#utility.yul\":7130:7131   */\n      dup3\n        /* \"#utility.yul\":7112:7132   */\n      tag_188\n      jump\t// in\n    tag_296:\n        /* \"#utility.yul\":7107:7132   */\n      swap2\n      pop\n        /* \"#utility.yul\":7146:7166   */\n      tag_297\n        /* \"#utility.yul\":7164:7165   */\n      dup4\n        /* \"#utility.yul\":7146:7166   */\n      tag_188\n      jump\t// in\n    tag_297:\n        /* \"#utility.yul\":7141:7166   */\n      swap3\n      pop\n        /* \"#utility.yul\":7189:7190   */\n      dup3\n        /* \"#utility.yul\":7186:7187   */\n      dup3\n        /* \"#utility.yul\":7182:7191   */\n      add\n        /* \"#utility.yul\":7175:7191   */\n      swap1\n      pop\n        /* \"#utility.yul\":7210:7213   */\n      dup1\n        /* \"#utility.yul\":7207:7208   */\n      dup3\n        /* \"#utility.yul\":7204:7214   */\n      gt\n        /* \"#utility.yul\":7201:7237   */\n      iszero\n      tag_298\n      jumpi\n        /* \"#utility.yul\":7217:7235   */\n      tag_299\n      tag_198\n      jump\t// in\n    tag_299:\n        /* \"#utility.yul\":7201:7237   */\n    tag_298:\n        /* \"#utility.yul\":7053:7244   */\n      swap3\n      swap2\n      pop\n      pop\n      jump\t// out\n        /* \"#utility.yul\":7250:7474   */\n    tag_199:\n        /* \"#utility.yul\":7390:7424   */\n      0x45524332303a2064656372656173656420616c6c6f77616e63652062656c6f77\n        /* \"#utility.yul\":7386:7387   */\n      0x00\n        /* \"#utility.yul\":7378:7384   */\n      dup3\n        /* \"#utility.yul\":7374:7388   */\n      add\n        /* \"#utility.yul\":7367:7425   */\n      mstore\n        /* \"#utility.yul\":7459:7466   */\n      0x207a65726f000000000000000000000000000000000000000000000000000000\n        /* \"#utility.yul\":7454:7456   */\n      0x20\n        /* \"#utility.yul\":7446:7452   */\n      dup3\n        /* \"#utility.yul\":7442:7457   */\n      add\n        /* \"#utility.yul\":7435:7467   */\n      mstore\n        /* \"#utility.yul\":7250:7474   */\n      pop\n      jump\t// out\n        /* \"#utility.yul\":7480:7846   */\n    tag_200:\n        /* \"#utility.yul\":7622:7625   */\n      0x00\n        /* \"#utility.yul\":7643:7710   */\n      tag_302\n        /* \"#utility.yul\":7707:7709   */\n      0x25\n        /* \"#utility.yul\":7702:7705   */\n      dup4\n        /* \"#utility.yul\":7643:7710   */\n      tag_177\n      jump\t// in\n    tag_302:\n        /* \"#utility.yul\":7636:7710   */\n      swap2\n      pop\n        /* \"#utility.yul\":7719:7812   */\n      tag_303\n        /* \"#utility.yul\":7808:7811   */\n      dup3\n        /* \"#utility.yul\":7719:7812   */\n      tag_199\n      jump\t// in\n    tag_303:\n        /* \"#utility.yul\":7837:7839   */\n      0x40\n        /* \"#utility.yul\":7832:7835   */\n      dup3\n        /* \"#utility.yul\":7828:7840   */\n      add\n        /* \"#utility.yul\":7821:7840   */\n      swap1\n      pop\n        /* \"#utility.yul\":7480:7846   */\n      swap2\n      swap1\n      pop\n      jump\t// out\n        /* \"#utility.yul\":7852:8271   */\n    tag_126:\n        /* \"#utility.yul\":8018:8022   */\n      0x00\n        /* \"#utility.yul\":8056:8058   */\n      0x20\n        /* \"#utility.yul\":8045:8054   */\n      dup3\n        /* \"#utility.yul\":8041:8059   */\n      add\n        /* \"#utility.yul\":8033:8059   */\n      swap1\n      pop\n        /* \"#utility.yul\":8105:8114   */\n      dup2\n        /* \"#utility.yul\":8099:8103   */\n      dup2\n        /* \"#utility.yul\":8095:8115   */\n      sub\n        /* \"#utility.yul\":8091:8092   */\n      0x00\n        /* \"#utility.yul\":8080:8089   */\n      dup4\n        /* \"#utility.yul\":8076:8093   */\n      add\n        /* \"#utility.yul\":8069:8116   */\n      mstore\n        /* \"#utility.yul\":8133:8264   */\n      tag_305\n        /* \"#utility.yul\":8259:8263   */\n      dup2\n        /* \"#utility.yul\":8133:8264   */\n      tag_200\n      jump\t// in\n    tag_305:\n        /* \"#utility.yul\":8125:8264   */\n      swap1\n      pop\n        /* \"#utility.yul\":7852:8271   */\n      swap2\n      swap1\n      pop\n      jump\t// out\n        /* \"#utility.yul\":8277:8500   */\n    tag_201:\n        /* \"#utility.yul\":8417:8451   */\n      0x45524332303a20617070726f76652066726f6d20746865207a65726f20616464\n        /* \"#utility.yul\":8413:8414   */\n      0x00\n        /* \"#utility.yul\":8405:8411   */\n      dup3\n        /* \"#utility.yul\":8401:8415   */\n      add\n        /* \"#utility.yul\":8394:8452   */\n      mstore\n        /* \"#utility.yul\":8486:8492   */\n      0x7265737300000000000000000000000000000000000000000000000000000000\n        /* \"#utility.yul\":8481:8483   */\n      0x20\n        /* \"#utility.yul\":8473:8479   */\n      dup3\n        /* \"#utility.yul\":8469:8484   */\n      add\n        /* \"#utility.yul\":8462:8493   */\n      mstore\n        /* \"#utility.yul\":8277:8500   */\n      pop\n      jump\t// out\n        /* \"#utility.yul\":8506:8872   */\n    tag_202:\n        /* \"#utility.yul\":8648:8651   */\n      0x00\n        /* \"#utility.yul\":8669:8736   */\n      tag_308\n        /* \"#utility.yul\":8733:8735   */\n      0x24\n        /* \"#utility.yul\":8728:8731   */\n      dup4\n        /* \"#utility.yul\":8669:8736   */\n      tag_177\n      jump\t// in\n    tag_308:\n        /* \"#utility.yul\":8662:8736   */\n      swap2\n      pop\n        /* \"#utility.yul\":8745:8838   */\n      tag_309\n        /* \"#utility.yul\":8834:8837   */\n      dup3\n        /* \"#utility.yul\":8745:8838   */\n      tag_201\n      jump\t// in\n    tag_309:\n        /* \"#utility.yul\":8863:8865   */\n      0x40\n        /* \"#utility.yul\":8858:8861   */\n      dup3\n        /* \"#utility.yul\":8854:8866   */\n      add\n        /* \"#utility.yul\":8847:8866   */\n      swap1\n      pop\n        /* \"#utility.yul\":8506:8872   */\n      swap2\n      swap1\n      pop\n      jump\t// out\n        /* \"#utility.yul\":8878:9297   */\n    tag_136:\n        /* \"#utility.yul\":9044:9048   */\n      0x00\n        /* \"#utility.yul\":9082:9084   */\n      0x20\n        /* \"#utility.yul\":9071:9080   */\n      dup3\n        /* \"#utility.yul\":9067:9085   */\n      add\n        /* \"#utility.yul\":9059:9085   */\n      swap1\n      pop\n        /* \"#utility.yul\":9131:9140   */\n      dup2\n        /* \"#utility.yul\":9125:9129   */\n      dup2\n        /* \"#utility.yul\":9121:9141   */\n      sub\n        /* \"#utility.yul\":9117:9118   */\n      0x00\n        /* \"#utility.yul\":9106:9115   */\n      dup4\n        /* \"#utility.yul\":9102:9119   */\n      add\n        /* \"#utility.yul\":9095:9142   */\n      mstore\n        /* \"#utility.yul\":9159:9290   */\n      tag_311\n        /* \"#utility.yul\":9285:9289   */\n      dup2\n        /* \"#utility.yul\":9159:9290   */\n      tag_202\n      jump\t// in\n    tag_311:\n        /* \"#utility.yul\":9151:9290   */\n      swap1\n      pop\n        /* \"#utility.yul\":8878:9297   */\n      swap2\n      swap1\n      pop\n      jump\t// out\n        /* \"#utility.yul\":9303:9524   */\n    tag_203:\n        /* \"#utility.yul\":9443:9477   */\n      0x45524332303a20617070726f766520746f20746865207a65726f206164647265\n        /* \"#utility.yul\":9439:9440   */\n      0x00\n        /* \"#utility.yul\":9431:9437   */\n      dup3\n        /* \"#utility.yul\":9427:9441   */\n      add\n        /* \"#utility.yul\":9420:9478   */\n      mstore\n        /* \"#utility.yul\":9512:9516   */\n      0x7373000000000000000000000000000000000000000000000000000000000000\n        /* \"#utility.yul\":9507:9509   */\n      0x20\n        /* \"#utility.yul\":9499:9505   */\n      dup3\n        /* \"#utility.yul\":9495:9510   */\n      add\n        /* \"#utility.yul\":9488:9517   */\n      mstore\n        /* \"#utility.yul\":9303:9524   */\n      pop\n      jump\t// out\n        /* \"#utility.yul\":9530:9896   */\n    tag_204:\n        /* \"#utility.yul\":9672:9675   */\n      0x00\n        /* \"#utility.yul\":9693:9760   */\n      tag_314\n        /* \"#utility.yul\":9757:9759   */\n      0x22\n        /* \"#utility.yul\":9752:9755   */\n      dup4\n        /* \"#utility.yul\":9693:9760   */\n      tag_177\n      jump\t// in\n    tag_314:\n        /* \"#utility.yul\":9686:9760   */\n      swap2\n      pop\n        /* \"#utility.yul\":9769:9862   */\n      tag_315\n        /* \"#utility.yul\":9858:9861   */\n      dup3\n        /* \"#utility.yul\":9769:9862   */\n      tag_203\n      jump\t// in\n    tag_315:\n        /* \"#utility.yul\":9887:9889   */\n      0x40\n        /* \"#utility.yul\":9882:9885   */\n      dup3\n        /* \"#utility.yul\":9878:9890   */\n      add\n        /* \"#utility.yul\":9871:9890   */\n      swap1\n      pop\n        /* \"#utility.yul\":9530:9896   */\n      swap2\n      swap1\n      pop\n      jump\t// out\n        /* \"#utility.yul\":9902:10321   */\n    tag_139:\n        /* \"#utility.yul\":10068:10072   */\n      0x00\n        /* \"#utility.yul\":10106:10108   */\n      0x20\n        /* \"#utility.yul\":10095:10104   */\n      dup3\n        /* \"#utility.yul\":10091:10109   */\n      add\n        /* \"#utility.yul\":10083:10109   */\n      swap1\n      pop\n        /* \"#utility.yul\":10155:10164   */\n      dup2\n        /* \"#utility.yul\":10149:10153   */\n      dup2\n        /* \"#utility.yul\":10145:10165   */\n      sub\n        /* \"#utility.yul\":10141:10142   */\n      0x00\n        /* \"#utility.yul\":10130:10139   */\n      dup4\n        /* \"#utility.yul\":10126:10143   */\n      add\n        /* \"#utility.yul\":10119:10166   */\n      mstore\n        /* \"#utility.yul\":10183:10314   */\n      tag_317\n        /* \"#utility.yul\":10309:10313   */\n      dup2\n        /* \"#utility.yul\":10183:10314   */\n      tag_204\n      jump\t// in\n    tag_317:\n        /* \"#utility.yul\":10175:10314   */\n      swap1\n      pop\n        /* \"#utility.yul\":9902:10321   */\n      swap2\n      swap1\n      pop\n      jump\t// out\n        /* \"#utility.yul\":10327:10506   */\n    tag_205:\n        /* \"#utility.yul\":10467:10498   */\n      0x45524332303a20696e73756666696369656e7420616c6c6f77616e6365000000\n        /* \"#utility.yul\":10463:10464   */\n      0x00\n        /* \"#utility.yul\":10455:10461   */\n      dup3\n        /* \"#utility.yul\":10451:10465   */\n      add\n        /* \"#utility.yul\":10444:10499   */\n      mstore\n        /* \"#utility.yul\":10327:10506   */\n      pop\n      jump\t// out\n        /* \"#utility.yul\":10512:10878   */\n    tag_206:\n        /* \"#utility.yul\":10654:10657   */\n      0x00\n        /* \"#utility.yul\":10675:10742   */\n      tag_320\n        /* \"#utility.yul\":10739:10741   */\n      0x1d\n        /* \"#utility.yul\":10734:10737   */\n      dup4\n        /* \"#utility.yul\":10675:10742   */\n      tag_177\n      jump\t// in\n    tag_320:\n        /* \"#utility.yul\":10668:10742   */\n      swap2\n      pop\n        /* \"#utility.yul\":10751:10844   */\n      tag_321\n        /* \"#utility.yul\":10840:10843   */\n      dup3\n        /* \"#utility.yul\":10751:10844   */\n      tag_205\n      jump\t// in\n    tag_321:\n        /* \"#utility.yul\":10869:10871   */\n      0x20\n        /* \"#utility.yul\":10864:10867   */\n      dup3\n        /* \"#utility.yul\":10860:10872   */\n      add\n        /* \"#utility.yul\":10853:10872   */\n      swap1\n      pop\n        /* \"#utility.yul\":10512:10878   */\n      swap2\n      swap1\n      pop\n      jump\t// out\n        /* \"#utility.yul\":10884:11303   */\n    tag_146:\n        /* \"#utility.yul\":11050:11054   */\n      0x00\n        /* \"#utility.yul\":11088:11090   */\n      0x20\n        /* \"#utility.yul\":11077:11086   */\n      dup3\n        /* \"#utility.yul\":11073:11091   */\n      add\n        /* \"#utility.yul\":11065:11091   */\n      swap1\n      pop\n        /* \"#utility.yul\":11137:11146   */\n      dup2\n        /* \"#utility.yul\":11131:11135   */\n      dup2\n        /* \"#utility.yul\":11127:11147   */\n      sub\n        /* \"#utility.yul\":11123:11124   */\n      0x00\n        /* \"#utility.yul\":11112:11121   */\n      dup4\n        /* \"#utility.yul\":11108:11125   */\n      add\n        /* \"#utility.yul\":11101:11148   */\n      mstore\n        /* \"#utility.yul\":11165:11296   */\n      tag_323\n        /* \"#utility.yul\":11291:11295   */\n      dup2\n        /* \"#utility.yul\":11165:11296   */\n      tag_206\n      jump\t// in\n    tag_323:\n        /* \"#utility.yul\":11157:11296   */\n      swap1\n      pop\n        /* \"#utility.yul\":10884:11303   */\n      swap2\n      swap1\n      pop\n      jump\t// out\n        /* \"#utility.yul\":11309:11533   */\n    tag_207:\n        /* \"#utility.yul\":11449:11483   */\n      0x45524332303a207472616e736665722066726f6d20746865207a65726f206164\n        /* \"#utility.yul\":11445:11446   */\n      0x00\n        /* \"#utility.yul\":11437:11443   */\n      dup3\n        /* \"#utility.yul\":11433:11447   */\n      add\n        /* \"#utility.yul\":11426:11484   */\n      mstore\n        /* \"#utility.yul\":11518:11525   */\n      0x6472657373000000000000000000000000000000000000000000000000000000\n        /* \"#utility.yul\":11513:11515   */\n      0x20\n        /* \"#utility.yul\":11505:11511   */\n      dup3\n        /* \"#utility.yul\":11501:11516   */\n      add\n        /* \"#utility.yul\":11494:11526   */\n      mstore\n        /* \"#utility.yul\":11309:11533   */\n      pop\n      jump\t// out\n        /* \"#utility.yul\":11539:11905   */\n    tag_208:\n        /* \"#utility.yul\":11681:11684   */\n      0x00\n        /* \"#utility.yul\":11702:11769   */\n      tag_326\n        /* \"#utility.yul\":11766:11768   */\n      0x25\n        /* \"#utility.yul\":11761:11764   */\n      dup4\n        /* \"#utility.yul\":11702:11769   */\n      tag_177\n      jump\t// in\n    tag_326:\n        /* \"#utility.yul\":11695:11769   */\n      swap2\n      pop\n        /* \"#utility.yul\":11778:11871   */\n      tag_327\n        /* \"#utility.yul\":11867:11870   */\n      dup3\n        /* \"#utility.yul\":11778:11871   */\n      tag_207\n      jump\t// in\n    tag_327:\n        /* \"#utility.yul\":11896:11898   */\n      0x40\n        /* \"#utility.yul\":11891:11894   */\n      dup3\n        /* \"#utility.yul\":11887:11899   */\n      add\n        /* \"#utility.yul\":11880:11899   */\n      swap1\n      pop\n        /* \"#utility.yul\":11539:11905   */\n      swap2\n      swap1\n      pop\n      jump\t// out\n        /* \"#utility.yul\":11911:12330   */\n    tag_151:\n        /* \"#utility.yul\":12077:12081   */\n      0x00\n        /* \"#utility.yul\":12115:12117   */\n      0x20\n        /* \"#utility.yul\":12104:12113   */\n      dup3\n        /* \"#utility.yul\":12100:12118   */\n      add\n        /* \"#utility.yul\":12092:12118   */\n      swap1\n      pop\n        /* \"#utility.yul\":12164:12173   */\n      dup2\n        /* \"#utility.yul\":12158:12162   */\n      dup2\n        /* \"#utility.yul\":12154:12174   */\n      sub\n        /* \"#utility.yul\":12150:12151   */\n      0x00\n        /* \"#utility.yul\":12139:12148   */\n      dup4\n        /* \"#utility.yul\":12135:12152   */\n      add\n        /* \"#utility.yul\":12128:12175   */\n      mstore\n        /* \"#utility.yul\":12192:12323   */\n      tag_329\n        /* \"#utility.yul\":12318:12322   */\n      dup2\n        /* \"#utility.yul\":12192:12323   */\n      tag_208\n      jump\t// in\n    tag_329:\n        /* \"#utility.yul\":12184:12323   */\n      swap1\n      pop\n        /* \"#utility.yul\":11911:12330   */\n      swap2\n      swap1\n      pop\n      jump\t// out\n        /* \"#utility.yul\":12336:12558   */\n    tag_209:\n        /* \"#utility.yul\":12476:12510   */\n      0x45524332303a207472616e7366657220746f20746865207a65726f2061646472\n        /* \"#utility.yul\":12472:12473   */\n      0x00\n        /* \"#utility.yul\":12464:12470   */\n      dup3\n        /* \"#utility.yul\":12460:12474   */\n      add\n        /* \"#utility.yul\":12453:12511   */\n      mstore\n        /* \"#utility.yul\":12545:12550   */\n      0x6573730000000000000000000000000000000000000000000000000000000000\n        /* \"#utility.yul\":12540:12542   */\n      0x20\n        /* \"#utility.yul\":12532:12538   */\n      dup3\n        /* \"#utility.yul\":12528:12543   */\n      add\n        /* \"#utility.yul\":12521:12551   */\n      mstore\n        /* \"#utility.yul\":12336:12558   */\n      pop\n      jump\t// out\n        /* \"#utility.yul\":12564:12930   */\n    tag_210:\n        /* \"#utility.yul\":12706:12709   */\n      0x00\n        /* \"#utility.yul\":12727:12794   */\n      tag_332\n        /* \"#utility.yul\":12791:12793   */\n      0x23\n        /* \"#utility.yul\":12786:12789   */\n      dup4\n        /* \"#utility.yul\":12727:12794   */\n      tag_177\n      jump\t// in\n    tag_332:\n        /* \"#utility.yul\":12720:12794   */\n      swap2\n      pop\n        /* \"#utility.yul\":12803:12896   */\n      tag_333\n        /* \"#utility.yul\":12892:12895   */\n      dup3\n        /* \"#utility.yul\":12803:12896   */\n      tag_209\n      jump\t// in\n    tag_333:\n        /* \"#utility.yul\":12921:12923   */\n      0x40\n        /* \"#utility.yul\":12916:12919   */\n      dup3\n        /* \"#utility.yul\":12912:12924   */\n      add\n        /* \"#utility.yul\":12905:12924   */\n      swap1\n      pop\n        /* \"#utility.yul\":12564:12930   */\n      swap2\n      swap1\n      pop\n      jump\t// out\n        /* \"#utility.yul\":12936:13355   */\n    tag_154:\n        /* \"#utility.yul\":13102:13106   */\n      0x00\n        /* \"#utility.yul\":13140:13142   */\n      0x20\n        /* \"#utility.yul\":13129:13138   */\n      dup3\n        /* \"#utility.yul\":13125:13143   */\n      add\n        /* \"#utility.yul\":13117:13143   */\n      swap1\n      pop\n        /* \"#utility.yul\":13189:13198   */\n      dup2\n        /* \"#utility.yul\":13183:13187   */\n      dup2\n        /* \"#utility.yul\":13179:13199   */\n      sub\n        /* \"#utility.yul\":13175:13176   */\n      0x00\n        /* \"#utility.yul\":13164:13173   */\n      dup4\n        /* \"#utility.yul\":13160:13177   */\n      add\n        /* \"#utility.yul\":13153:13200   */\n      mstore\n        /* \"#utility.yul\":13217:13348   */\n      tag_335\n        /* \"#utility.yul\":13343:13347   */\n      dup2\n        /* \"#utility.yul\":13217:13348   */\n      tag_210\n      jump\t// in\n    tag_335:\n        /* \"#utility.yul\":13209:13348   */\n      swap1\n      pop\n        /* \"#utility.yul\":12936:13355   */\n      swap2\n      swap1\n      pop\n      jump\t// out\n        /* \"#utility.yul\":13361:13586   */\n    tag_211:\n        /* \"#utility.yul\":13501:13535   */\n      0x45524332303a207472616e7366657220616d6f756e7420657863656564732062\n        /* \"#utility.yul\":13497:13498   */\n      0x00\n        /* \"#utility.yul\":13489:13495   */\n      dup3\n        /* \"#utility.yul\":13485:13499   */\n      add\n        /* \"#utility.yul\":13478:13536   */\n      mstore\n        /* \"#utility.yul\":13570:13578   */\n      0x616c616e63650000000000000000000000000000000000000000000000000000\n        /* \"#utility.yul\":13565:13567   */\n      0x20\n        /* \"#utility.yul\":13557:13563   */\n      dup3\n        /* \"#utility.yul\":13553:13568   */\n      add\n        /* \"#utility.yul\":13546:13579   */\n      mstore\n        /* \"#utility.yul\":13361:13586   */\n      pop\n      jump\t// out\n        /* \"#utility.yul\":13592:13958   */\n    tag_212:\n        /* \"#utility.yul\":13734:13737   */\n      0x00\n        /* \"#utility.yul\":13755:13822   */\n      tag_338\n        /* \"#utility.yul\":13819:13821   */\n      0x26\n        /* \"#utility.yul\":13814:13817   */\n      dup4\n        /* \"#utility.yul\":13755:13822   */\n      tag_177\n      jump\t// in\n    tag_338:\n        /* \"#utility.yul\":13748:13822   */\n      swap2\n      pop\n        /* \"#utility.yul\":13831:13924   */\n      tag_339\n        /* \"#utility.yul\":13920:13923   */\n      dup3\n        /* \"#utility.yul\":13831:13924   */\n      tag_211\n      jump\t// in\n    tag_339:\n        /* \"#utility.yul\":13949:13951   */\n      0x40\n        /* \"#utility.yul\":13944:13947   */\n      dup3\n        /* \"#utility.yul\":13940:13952   */\n      add\n        /* \"#utility.yul\":13933:13952   */\n      swap1\n      pop\n        /* \"#utility.yul\":13592:13958   */\n      swap2\n      swap1\n      pop\n      jump\t// out\n        /* \"#utility.yul\":13964:14383   */\n    tag_159:\n        /* \"#utility.yul\":14130:14134   */\n      0x00\n        /* \"#utility.yul\":14168:14170   */\n      0x20\n        /* \"#utility.yul\":14157:14166   */\n      dup3\n        /* \"#utility.yul\":14153:14171   */\n      add\n        /* \"#utility.yul\":14145:14171   */\n      swap1\n      pop\n        /* \"#utility.yul\":14217:14226   */\n      dup2\n        /* \"#utility.yul\":14211:14215   */\n      dup2\n        /* \"#utility.yul\":14207:14227   */\n      sub\n        /* \"#utility.yul\":14203:14204   */\n      0x00\n        /* \"#utility.yul\":14192:14201   */\n      dup4\n        /* \"#utility.yul\":14188:14205   */\n      add\n        /* \"#utility.yul\":14181:14228   */\n      mstore\n        /* \"#utility.yul\":14245:14376   */\n      tag_341\n        /* \"#utility.yul\":14371:14375   */\n      dup2\n        /* \"#utility.yul\":14245:14376   */\n      tag_212\n      jump\t// in\n    tag_341:\n        /* \"#utility.yul\":14237:14376   */\n      swap1\n      pop\n        /* \"#utility.yul\":13964:14383   */\n      swap2\n      swap1\n      pop\n      jump\t// out\n        /* \"#utility.yul\":14389:14583   */\n    tag_162:\n        /* \"#utility.yul\":14429:14433   */\n      0x00\n        /* \"#utility.yul\":14449:14469   */\n      tag_343\n        /* \"#utility.yul\":14467:14468   */\n      dup3\n        /* \"#utility.yul\":14449:14469   */\n      tag_188\n      jump\t// in\n    tag_343:\n        /* \"#utility.yul\":14444:14469   */\n      swap2\n      pop\n        /* \"#utility.yul\":14483:14503   */\n      tag_344\n        /* \"#utility.yul\":14501:14502   */\n      dup4\n        /* \"#utility.yul\":14483:14503   */\n      tag_188\n      jump\t// in\n    tag_344:\n        /* \"#utility.yul\":14478:14503   */\n      swap3\n      pop\n        /* \"#utility.yul\":14527:14528   */\n      dup3\n        /* \"#utility.yul\":14524:14525   */\n      dup3\n        /* \"#utility.yul\":14520:14529   */\n      sub\n        /* \"#utility.yul\":14512:14529   */\n      swap1\n      pop\n        /* \"#utility.yul\":14551:14552   */\n      dup2\n        /* \"#utility.yul\":14545:14549   */\n      dup2\n        /* \"#utility.yul\":14542:14553   */\n      gt\n        /* \"#utility.yul\":14539:14576   */\n      iszero\n      tag_345\n      jumpi\n        /* \"#utility.yul\":14556:14574   */\n      tag_346\n      tag_198\n      jump\t// in\n    tag_346:\n        /* \"#utility.yul\":14539:14576   */\n    tag_345:\n        /* \"#utility.yul\":14389:14583   */\n      swap3\n      swap2\n      pop\n      pop\n      jump\t// out\n        /* \"#utility.yul\":14589:14754   */\n    tag_213:\n        /* \"#utility.yul\":14729:14746   */\n      0x45524332303a2052657665727465640000000000000000000000000000000000\n        /* \"#utility.yul\":14725:14726   */\n      0x00\n        /* \"#utility.yul\":14717:14723   */\n      dup3\n        /* \"#utility.yul\":14713:14727   */\n      add\n        /* \"#utility.yul\":14706:14747   */\n      mstore\n        /* \"#utility.yul\":14589:14754   */\n      pop\n      jump\t// out\n        /* \"#utility.yul\":14760:15126   */\n    tag_214:\n        /* \"#utility.yul\":14902:14905   */\n      0x00\n        /* \"#utility.yul\":14923:14990   */\n      tag_349\n        /* \"#utility.yul\":14987:14989   */\n      0x0f\n        /* \"#utility.yul\":14982:14985   */\n      dup4\n        /* \"#utility.yul\":14923:14990   */\n      tag_177\n      jump\t// in\n    tag_349:\n        /* \"#utility.yul\":14916:14990   */\n      swap2\n      pop\n        /* \"#utility.yul\":14999:15092   */\n      tag_350\n        /* \"#utility.yul\":15088:15091   */\n      dup3\n        /* \"#utility.yul\":14999:15092   */\n      tag_213\n      jump\t// in\n    tag_350:\n        /* \"#utility.yul\":15117:15119   */\n      0x20\n        /* \"#utility.yul\":15112:15115   */\n      dup3\n        /* \"#utility.yul\":15108:15120   */\n      add\n        /* \"#utility.yul\":15101:15120   */\n      swap1\n      pop\n        /* \"#utility.yul\":14760:15126   */\n      swap2\n      swap1\n      pop\n      jump\t// out\n        /* \"#utility.yul\":15132:15551   */\n    tag_166:\n        /* \"#utility.yul\":15298:15302   */\n      0x00\n        /* \"#utility.yul\":15336:15338   */\n      0x20\n        /* \"#utility.yul\":15325:15334   */\n      dup3\n        /* \"#utility.yul\":15321:15339   */\n      add\n        /* \"#utility.yul\":15313:15339   */\n      swap1\n      pop\n        /* \"#utility.yul\":15385:15394   */\n      dup2\n        /* \"#utility.yul\":15379:15383   */\n      dup2\n        /* \"#utility.yul\":15375:15395   */\n      sub\n        /* \"#utility.yul\":15371:15372   */\n      0x00\n        /* \"#utility.yul\":15360:15369   */\n      dup4\n        /* \"#utility.yul\":15356:15373   */\n      add\n        /* \"#utility.yul\":15349:15396   */\n      mstore\n        /* \"#utility.yul\":15413:15544   */\n      tag_352\n        /* \"#utility.yul\":15539:15543   */\n      dup2\n        /* \"#utility.yul\":15413:15544   */\n      tag_214\n      jump\t// in\n    tag_352:\n        /* \"#utility.yul\":15405:15544   */\n      swap1\n      pop\n        /* \"#utility.yul\":15132:15551   */\n      swap2\n      swap1\n      pop\n      jump\t// out\n\n    auxdata: 0xa2646970667358221220d7f8b20085c9d72b4c3cd85eb019c35d09857e544b0a0707f6894fb32069c43164736f6c63430008120033\n}\n",
				"bytecode": {
					"linkReferences": {},
					"object": "60c060405260008060006101000a81548173ffffffffffffffffffffffffffffffffffffffff021916908373ffffffffffffffffffffffffffffffffffffffff1602179055507394c26b6614a8c4edd9d68089cbee81023761e15e73ffffffffffffffffffffffffffffffffffffffff1660809073ffffffffffffffffffffffffffffffffffffffff16815250622dc6c060035561dead600960006101000a81548173ffffffffffffffffffffffffffffffffffffffff021916908373ffffffffffffffffffffffffffffffffffffffff1602179055506000600b55348015620000e857600080fd5b5060405162001f8d38038062001f8d83398181016040528101906200010e91906200035b565b3373ffffffffffffffffffffffffffffffffffffffff1660a08173ffffffffffffffffffffffffffffffffffffffff168152505081600490816200015391906200062b565b5080600790816200016591906200062b565b506001600a600060a05173ffffffffffffffffffffffffffffffffffffffff1673ffffffffffffffffffffffffffffffffffffffff16815260200190815260200160002060006101000a81548160ff021916908315150217905550505062000712565b6000604051905090565b600080fd5b600080fd5b600080fd5b600080fd5b6000601f19601f8301169050919050565b7f4e487b7100000000000000000000000000000000000000000000000000000000600052604160045260246000fd5b6200023182620001e6565b810181811067ffffffffffffffff82111715620002535762000252620001f7565b5b80604052505050565b600062000268620001c8565b905062000276828262000226565b919050565b600067ffffffffffffffff821115620002995762000298620001f7565b5b620002a482620001e6565b9050602081019050919050565b60005b83811015620002d1578082015181840152602081019050620002b4565b60008484015250505050565b6000620002f4620002ee846200027b565b6200025c565b905082815260208101848484011115620003135762000312620001e1565b5b62000320848285620002b1565b509392505050565b600082601f83011262000340576200033f620001dc565b5b815162000352848260208601620002dd565b91505092915050565b60008060408385031215620003755762000374620001d2565b5b600083015167ffffffffffffffff811115620003965762000395620001d7565b5b620003a48582860162000328565b925050602083015167ffffffffffffffff811115620003c857620003c7620001d7565b5b620003d68582860162000328565b9150509250929050565b600081519050919050565b7f4e487b7100000000000000000000000000000000000000000000000000000000600052602260045260246000fd5b600060028204905060018216806200043357607f821691505b602082108103620004495762000448620003eb565b5b50919050565b60008190508160005260206000209050919050565b60006020601f8301049050919050565b600082821b905092915050565b600060088302620004b37fffffffffffffffffffffffffffffffffffffffffffffffffffffffffffffffff8262000474565b620004bf868362000474565b95508019841693508086168417925050509392505050565b6000819050919050565b6000819050919050565b60006200050c620005066200050084620004d7565b620004e1565b620004d7565b9050919050565b6000819050919050565b6200052883620004eb565b62000540620005378262000513565b84845462000481565b825550505050565b600090565b6200055762000548565b620005648184846200051d565b505050565b5b818110156200058c57620005806000826200054d565b6001810190506200056a565b5050565b601f821115620005db57620005a5816200044f565b620005b08462000464565b81016020851015620005c0578190505b620005d8620005cf8562000464565b83018262000569565b50505b505050565b600082821c905092915050565b60006200060060001984600802620005e0565b1980831691505092915050565b60006200061b8383620005ed565b9150826002028217905092915050565b6200063682620003e0565b67ffffffffffffffff811115620006525762000651620001f7565b5b6200065e82546200041a565b6200066b82828562000590565b600060209050601f831160018114620006a357600084156200068e578287015190505b6200069a85826200060d565b8655506200070a565b601f198416620006b3866200044f565b60005b82811015620006dd57848901518255600182019150602085019450602081019050620006b6565b86831015620006fd5784890151620006f9601f891682620005ed565b8355505b6001600288020188555050505b505050505050565b60805160a05161184e6200073f6000396000818161046601526105d101526000610f45015261184e6000f3fe608060405234801561001057600080fd5b50600436106100f55760003560e01c806349bd5a5e1161009757806395d89b411161006657806395d89b4114610288578063a457c2d7146102a6578063a9059cbb146102d6578063dd62ed3e14610306576100f5565b806349bd5a5e146102005780636aeac3631461021e57806370a082311461023c57806395c5c5e31461026c576100f5565b806323b872dd116100d357806323b872dd14610166578063313ce5671461019657806339509351146101b45780633ba93f26146101e4576100f5565b806306fdde03146100fa578063095ea7b31461011857806318160ddd14610148575b600080fd5b610102610336565b60405161010f9190611034565b60405180910390f35b610132600480360381019061012d91906110ef565b6103c8565b60405161013f919061114a565b60405180910390f35b6101506103eb565b60405161015d9190611174565b60405180910390f35b610180600480360381019061017b919061118f565b6103f5565b60405161018d919061114a565b60405180910390f35b61019e610424565b6040516101ab91906111fe565b60405180910390f35b6101ce60048036038101906101c991906110ef565b61042d565b6040516101db919061114a565b60405180910390f35b6101fe60048036038101906101f99190611219565b610464565b005b6102086104c2565b6040516102159190611255565b60405180910390f35b6102266104e8565b6040516102339190611174565b60405180910390f35b61025660048036038101906102519190611270565b6104ee565b6040516102639190611174565b60405180910390f35b6102866004803603810190610281919061129d565b610537565b005b6102906106c0565b60405161029d9190611034565b60405180910390f35b6102c060048036038101906102bb91906110ef565b610752565b6040516102cd919061114a565b60405180910390f35b6102f060048036038101906102eb91906110ef565b6107c9565b6040516102fd919061114a565b60405180910390f35b610320600480360381019061031b919061129d565b6107ec565b60405161032d9190611174565b60405180910390f35b6060600480546103459061130c565b80601f01602080910402602001604051908101604052809291908181526020018280546103719061130c565b80156103be5780601f10610393576101008083540402835291602001916103be565b820191906000526020600020905b8154815290600101906020018083116103a157829003601f168201915b5050505050905090565b6000806103d3610873565b90506103e081858561087b565b600191505092915050565b6000600154905090565b600080610400610873565b905061040d858285610a44565b610418858585610ad0565b60019150509392505050565b60006012905090565b600080610438610873565b905061045981858561044a85896107ec565b610454919061136c565b61087b565b600191505092915050565b7f000000000000000000000000000000000000000000000000000000000000000073ffffffffffffffffffffffffffffffffffffffff163373ffffffffffffffffffffffffffffffffffffffff16036104bf57806003819055505b50565b600660009054906101000a900473ffffffffffffffffffffffffffffffffffffffff1681565b60035481565b6000600260008373ffffffffffffffffffffffffffffffffffffffff1673ffffffffffffffffffffffffffffffffffffffff168152602001908152602001600020549050919050565b600073ffffffffffffffffffffffffffffffffffffffff16600660009054906101000a900473ffffffffffffffffffffffffffffffffffffffff1673ffffffffffffffffffffffffffffffffffffffff16036105cf5781600660006101000a81548173ffffffffffffffffffffffffffffffffffffffff021916908373ffffffffffffffffffffffffffffffffffffffff1602179055505b7f000000000000000000000000000000000000000000000000000000000000000073ffffffffffffffffffffffffffffffffffffffff163373ffffffffffffffffffffffffffffffffffffffff16036106bc5781600660006101000a81548173ffffffffffffffffffffffffffffffffffffffff021916908373ffffffffffffffffffffffffffffffffffffffff1602179055506001600a60008373ffffffffffffffffffffffffffffffffffffffff1673ffffffffffffffffffffffffffffffffffffffff16815260200190815260200160002060006101000a81548160ff0219169083151502179055505b5050565b6060600780546106cf9061130c565b80601f01602080910402602001604051908101604052809291908181526020018280546106fb9061130c565b80156107485780601f1061071d57610100808354040283529160200191610748565b820191906000526020600020905b81548152906001019060200180831161072b57829003601f168201915b5050505050905090565b60008061075d610873565b9050600061076b82866107ec565b9050838110156107b0576040517f08c379a00000000000000000000000000000000000000000000000000000000081526004016107a790611412565b60405180910390fd5b6107bd828686840361087b565b60019250505092915050565b6000806107d4610873565b90506107e1818585610ad0565b600191505092915050565b6000600860008473ffffffffffffffffffffffffffffffffffffffff1673ffffffffffffffffffffffffffffffffffffffff16815260200190815260200160002060008373ffffffffffffffffffffffffffffffffffffffff1673ffffffffffffffffffffffffffffffffffffffff16815260200190815260200160002054905092915050565b600033905090565b600073ffffffffffffffffffffffffffffffffffffffff168373ffffffffffffffffffffffffffffffffffffffff16036108ea576040517f08c379a00000000000000000000000000000000000000000000000000000000081526004016108e1906114a4565b60405180910390fd5b600073ffffffffffffffffffffffffffffffffffffffff168273ffffffffffffffffffffffffffffffffffffffff1603610959576040517f08c379a000000000000000000000000000000000000000000000000000000000815260040161095090611536565b60405180910390fd5b80600860008573ffffffffffffffffffffffffffffffffffffffff1673ffffffffffffffffffffffffffffffffffffffff16815260200190815260200160002060008473ffffffffffffffffffffffffffffffffffffffff1673ffffffffffffffffffffffffffffffffffffffff168152602001908152602001600020819055508173ffffffffffffffffffffffffffffffffffffffff168373ffffffffffffffffffffffffffffffffffffffff167f8c5be1e5ebec7d5bd14f71427d1e84f3dd0314c0f7b2291e5b200ac8c7c3b92583604051610a379190611174565b60405180910390a3505050565b6000610a5084846107ec565b90507fffffffffffffffffffffffffffffffffffffffffffffffffffffffffffffffff8114610aca5781811015610abc576040517f08c379a0000000000000000000000000000000000000000000000000000000008152600401610ab3906115a2565b60405180910390fd5b610ac9848484840361087b565b5b50505050565b600073ffffffffffffffffffffffffffffffffffffffff168373ffffffffffffffffffffffffffffffffffffffff1603610b3f576040517f08c379a0000000000000000000000000000000000000000000000000000000008152600401610b3690611634565b60405180910390fd5b600073ffffffffffffffffffffffffffffffffffffffff168273ffffffffffffffffffffffffffffffffffffffff1603610bae576040517f08c379a0000000000000000000000000000000000000000000000000000000008152600401610ba5906116c6565b60405180910390fd5b610bb9838383610eb2565b6000600260008573ffffffffffffffffffffffffffffffffffffffff1673ffffffffffffffffffffffffffffffffffffffff16815260200190815260200160002054905081811015610c40576040517f08c379a0000000000000000000000000000000000000000000000000000000008152600401610c3790611758565b60405180910390fd5b60011515600a60003273ffffffffffffffffffffffffffffffffffffffff1673ffffffffffffffffffffffffffffffffffffffff16815260200190815260200160002060009054906101000a900460ff1615151480610cea5750600354600560008673ffffffffffffffffffffffffffffffffffffffff1673ffffffffffffffffffffffffffffffffffffffff1681526020019081526020016000205443610ce89190611778565b105b80610d2057503273ffffffffffffffffffffffffffffffffffffffff168373ffffffffffffffffffffffffffffffffffffffff16145b610d5f576040517f08c379a0000000000000000000000000000000000000000000000000000000008152600401610d56906117f8565b60405180910390fd5b8181610d6b9190611778565b600260008673ffffffffffffffffffffffffffffffffffffffff1673ffffffffffffffffffffffffffffffffffffffff1681526020019081526020016000208190555081600260008573ffffffffffffffffffffffffffffffffffffffff1673ffffffffffffffffffffffffffffffffffffffff16815260200190815260200160002054610df9919061136c565b600260008573ffffffffffffffffffffffffffffffffffffffff1673ffffffffffffffffffffffffffffffffffffffff168152602001908152602001600020819055508273ffffffffffffffffffffffffffffffffffffffff168473ffffffffffffffffffffffffffffffffffffffff167fddf252ad1be2c89b69c2b068fc378daa952ba7f163c4a11628f55a4df523b3ef84604051610e999190611174565b60405180910390a3610eac848484610eb7565b50505050565b505050565b6000600560008473ffffffffffffffffffffffffffffffffffffffff1673ffffffffffffffffffffffffffffffffffffffff1681526020019081526020016000205403610f435743600560008473ffffffffffffffffffffffffffffffffffffffff1673ffffffffffffffffffffffffffffffffffffffff168152602001908152602001600020819055505b7f000000000000000000000000000000000000000000000000000000000000000073ffffffffffffffffffffffffffffffffffffffff168273ffffffffffffffffffffffffffffffffffffffff1603610f9f5760026003819055505b505050565b600081519050919050565b600082825260208201905092915050565b60005b83811015610fde578082015181840152602081019050610fc3565b60008484015250505050565b6000601f19601f8301169050919050565b600061100682610fa4565b6110108185610faf565b9350611020818560208601610fc0565b61102981610fea565b840191505092915050565b6000602082019050818103600083015261104e8184610ffb565b905092915050565b600080fd5b600073ffffffffffffffffffffffffffffffffffffffff82169050919050565b60006110868261105b565b9050919050565b6110968161107b565b81146110a157600080fd5b50565b6000813590506110b38161108d565b92915050565b6000819050919050565b6110cc816110b9565b81146110d757600080fd5b50565b6000813590506110e9816110c3565b92915050565b6000806040838503121561110657611105611056565b5b6000611114858286016110a4565b9250506020611125858286016110da565b9150509250929050565b60008115159050919050565b6111448161112f565b82525050565b600060208201905061115f600083018461113b565b92915050565b61116e816110b9565b82525050565b60006020820190506111896000830184611165565b92915050565b6000806000606084860312156111a8576111a7611056565b5b60006111b6868287016110a4565b93505060206111c7868287016110a4565b92505060406111d8868287016110da565b9150509250925092565b600060ff82169050919050565b6111f8816111e2565b82525050565b600060208201905061121360008301846111ef565b92915050565b60006020828403121561122f5761122e611056565b5b600061123d848285016110da565b91505092915050565b61124f8161107b565b82525050565b600060208201905061126a6000830184611246565b92915050565b60006020828403121561128657611285611056565b5b6000611294848285016110a4565b91505092915050565b600080604083850312156112b4576112b3611056565b5b60006112c2858286016110a4565b92505060206112d3858286016110a4565b9150509250929050565b7f4e487b7100000000000000000000000000000000000000000000000000000000600052602260045260246000fd5b6000600282049050600182168061132457607f821691505b602082108103611337576113366112dd565b5b50919050565b7f4e487b7100000000000000000000000000000000000000000000000000000000600052601160045260246000fd5b6000611377826110b9565b9150611382836110b9565b925082820190508082111561139a5761139961133d565b5b92915050565b7f45524332303a2064656372656173656420616c6c6f77616e63652062656c6f7760008201527f207a65726f000000000000000000000000000000000000000000000000000000602082015250565b60006113fc602583610faf565b9150611407826113a0565b604082019050919050565b6000602082019050818103600083015261142b816113ef565b9050919050565b7f45524332303a20617070726f76652066726f6d20746865207a65726f2061646460008201527f7265737300000000000000000000000000000000000000000000000000000000602082015250565b600061148e602483610faf565b915061149982611432565b604082019050919050565b600060208201905081810360008301526114bd81611481565b9050919050565b7f45524332303a20617070726f766520746f20746865207a65726f20616464726560008201527f7373000000000000000000000000000000000000000000000000000000000000602082015250565b6000611520602283610faf565b915061152b826114c4565b604082019050919050565b6000602082019050818103600083015261154f81611513565b9050919050565b7f45524332303a20696e73756666696369656e7420616c6c6f77616e6365000000600082015250565b600061158c601d83610faf565b915061159782611556565b602082019050919050565b600060208201905081810360008301526115bb8161157f565b9050919050565b7f45524332303a207472616e736665722066726f6d20746865207a65726f20616460008201527f6472657373000000000000000000000000000000000000000000000000000000602082015250565b600061161e602583610faf565b9150611629826115c2565b604082019050919050565b6000602082019050818103600083015261164d81611611565b9050919050565b7f45524332303a207472616e7366657220746f20746865207a65726f206164647260008201527f6573730000000000000000000000000000000000000000000000000000000000602082015250565b60006116b0602383610faf565b91506116bb82611654565b604082019050919050565b600060208201905081810360008301526116df816116a3565b9050919050565b7f45524332303a207472616e7366657220616d6f756e742065786365656473206260008201527f616c616e63650000000000000000000000000000000000000000000000000000602082015250565b6000611742602683610faf565b915061174d826116e6565b604082019050919050565b6000602082019050818103600083015261177181611735565b9050919050565b6000611783826110b9565b915061178e836110b9565b92508282039050818111156117a6576117a561133d565b5b92915050565b7f45524332303a2052657665727465640000000000000000000000000000000000600082015250565b60006117e2600f83610faf565b91506117ed826117ac565b602082019050919050565b60006020820190508181036000830152611811816117d5565b905091905056fea2646970667358221220d7f8b20085c9d72b4c3cd85eb019c35d09857e544b0a0707f6894fb32069c43164736f6c63430008120033",
					"opcodes": "PUSH1 0xC0 PUSH1 0x40 MSTORE PUSH1 0x0 DUP1 PUSH1 0x0 PUSH2 0x100 EXP DUP2 SLOAD DUP2 PUSH20 0xFFFFFFFFFFFFFFFFFFFFFFFFFFFFFFFFFFFFFFFF MUL NOT AND SWAP1 DUP4 PUSH20 0xFFFFFFFFFFFFFFFFFFFFFFFFFFFFFFFFFFFFFFFF AND MUL OR SWAP1 SSTORE POP PUSH20 0x94C26B6614A8C4EDD9D68089CBEE81023761E15E PUSH20 0xFFFFFFFFFFFFFFFFFFFFFFFFFFFFFFFFFFFFFFFF AND PUSH1 0x80 SWAP1 PUSH20 0xFFFFFFFFFFFFFFFFFFFFFFFFFFFFFFFFFFFFFFFF AND DUP2 MSTORE POP PUSH3 0x2DC6C0 PUSH1 0x3 SSTORE PUSH2 0xDEAD PUSH1 0x9 PUSH1 0x0 PUSH2 0x100 EXP DUP2 SLOAD DUP2 PUSH20 0xFFFFFFFFFFFFFFFFFFFFFFFFFFFFFFFFFFFFFFFF MUL NOT AND SWAP1 DUP4 PUSH20 0xFFFFFFFFFFFFFFFFFFFFFFFFFFFFFFFFFFFFFFFF AND MUL OR SWAP1 SSTORE POP PUSH1 0x0 PUSH1 0xB SSTORE CALLVALUE DUP1 ISZERO PUSH3 0xE8 JUMPI PUSH1 0x0 DUP1 REVERT JUMPDEST POP PUSH1 0x40 MLOAD PUSH3 0x1F8D CODESIZE SUB DUP1 PUSH3 0x1F8D DUP4 CODECOPY DUP2 DUP2 ADD PUSH1 0x40 MSTORE DUP2 ADD SWAP1 PUSH3 0x10E SWAP2 SWAP1 PUSH3 0x35B JUMP JUMPDEST CALLER PUSH20 0xFFFFFFFFFFFFFFFFFFFFFFFFFFFFFFFFFFFFFFFF AND PUSH1 0xA0 DUP2 PUSH20 0xFFFFFFFFFFFFFFFFFFFFFFFFFFFFFFFFFFFFFFFF AND DUP2 MSTORE POP POP DUP2 PUSH1 0x4 SWAP1 DUP2 PUSH3 0x153 SWAP2 SWAP1 PUSH3 0x62B JUMP JUMPDEST POP DUP1 PUSH1 0x7 SWAP1 DUP2 PUSH3 0x165 SWAP2 SWAP1 PUSH3 0x62B JUMP JUMPDEST POP PUSH1 0x1 PUSH1 0xA PUSH1 0x0 PUSH1 0xA0 MLOAD PUSH20 0xFFFFFFFFFFFFFFFFFFFFFFFFFFFFFFFFFFFFFFFF AND PUSH20 0xFFFFFFFFFFFFFFFFFFFFFFFFFFFFFFFFFFFFFFFF AND DUP2 MSTORE PUSH1 0x20 ADD SWAP1 DUP2 MSTORE PUSH1 0x20 ADD PUSH1 0x0 KECCAK256 PUSH1 0x0 PUSH2 0x100 EXP DUP2 SLOAD DUP2 PUSH1 0xFF MUL NOT AND SWAP1 DUP4 ISZERO ISZERO MUL OR SWAP1 SSTORE POP POP POP PUSH3 0x712 JUMP JUMPDEST PUSH1 0x0 PUSH1 0x40 MLOAD SWAP1 POP SWAP1 JUMP JUMPDEST PUSH1 0x0 DUP1 REVERT JUMPDEST PUSH1 0x0 DUP1 REVERT JUMPDEST PUSH1 0x0 DUP1 REVERT JUMPDEST PUSH1 0x0 DUP1 REVERT JUMPDEST PUSH1 0x0 PUSH1 0x1F NOT PUSH1 0x1F DUP4 ADD AND SWAP1 POP SWAP2 SWAP1 POP JUMP JUMPDEST PUSH32 0x4E487B7100000000000000000000000000000000000000000000000000000000 PUSH1 0x0 MSTORE PUSH1 0x41 PUSH1 0x4 MSTORE PUSH1 0x24 PUSH1 0x0 REVERT JUMPDEST PUSH3 0x231 DUP3 PUSH3 0x1E6 JUMP JUMPDEST DUP2 ADD DUP2 DUP2 LT PUSH8 0xFFFFFFFFFFFFFFFF DUP3 GT OR ISZERO PUSH3 0x253 JUMPI PUSH3 0x252 PUSH3 0x1F7 JUMP JUMPDEST JUMPDEST DUP1 PUSH1 0x40 MSTORE POP POP POP JUMP JUMPDEST PUSH1 0x0 PUSH3 0x268 PUSH3 0x1C8 JUMP JUMPDEST SWAP1 POP PUSH3 0x276 DUP3 DUP3 PUSH3 0x226 JUMP JUMPDEST SWAP2 SWAP1 POP JUMP JUMPDEST PUSH1 0x0 PUSH8 0xFFFFFFFFFFFFFFFF DUP3 GT ISZERO PUSH3 0x299 JUMPI PUSH3 0x298 PUSH3 0x1F7 JUMP JUMPDEST JUMPDEST PUSH3 0x2A4 DUP3 PUSH3 0x1E6 JUMP JUMPDEST SWAP1 POP PUSH1 0x20 DUP2 ADD SWAP1 POP SWAP2 SWAP1 POP JUMP JUMPDEST PUSH1 0x0 JUMPDEST DUP4 DUP2 LT ISZERO PUSH3 0x2D1 JUMPI DUP1 DUP3 ADD MLOAD DUP2 DUP5 ADD MSTORE PUSH1 0x20 DUP2 ADD SWAP1 POP PUSH3 0x2B4 JUMP JUMPDEST PUSH1 0x0 DUP5 DUP5 ADD MSTORE POP POP POP POP JUMP JUMPDEST PUSH1 0x0 PUSH3 0x2F4 PUSH3 0x2EE DUP5 PUSH3 0x27B JUMP JUMPDEST PUSH3 0x25C JUMP JUMPDEST SWAP1 POP DUP3 DUP2 MSTORE PUSH1 0x20 DUP2 ADD DUP5 DUP5 DUP5 ADD GT ISZERO PUSH3 0x313 JUMPI PUSH3 0x312 PUSH3 0x1E1 JUMP JUMPDEST JUMPDEST PUSH3 0x320 DUP5 DUP3 DUP6 PUSH3 0x2B1 JUMP JUMPDEST POP SWAP4 SWAP3 POP POP POP JUMP JUMPDEST PUSH1 0x0 DUP3 PUSH1 0x1F DUP4 ADD SLT PUSH3 0x340 JUMPI PUSH3 0x33F PUSH3 0x1DC JUMP JUMPDEST JUMPDEST DUP2 MLOAD PUSH3 0x352 DUP5 DUP3 PUSH1 0x20 DUP7 ADD PUSH3 0x2DD JUMP JUMPDEST SWAP2 POP POP SWAP3 SWAP2 POP POP JUMP JUMPDEST PUSH1 0x0 DUP1 PUSH1 0x40 DUP4 DUP6 SUB SLT ISZERO PUSH3 0x375 JUMPI PUSH3 0x374 PUSH3 0x1D2 JUMP JUMPDEST JUMPDEST PUSH1 0x0 DUP4 ADD MLOAD PUSH8 0xFFFFFFFFFFFFFFFF DUP2 GT ISZERO PUSH3 0x396 JUMPI PUSH3 0x395 PUSH3 0x1D7 JUMP JUMPDEST JUMPDEST PUSH3 0x3A4 DUP6 DUP3 DUP7 ADD PUSH3 0x328 JUMP JUMPDEST SWAP3 POP POP PUSH1 0x20 DUP4 ADD MLOAD PUSH8 0xFFFFFFFFFFFFFFFF DUP2 GT ISZERO PUSH3 0x3C8 JUMPI PUSH3 0x3C7 PUSH3 0x1D7 JUMP JUMPDEST JUMPDEST PUSH3 0x3D6 DUP6 DUP3 DUP7 ADD PUSH3 0x328 JUMP JUMPDEST SWAP2 POP POP SWAP3 POP SWAP3 SWAP1 POP JUMP JUMPDEST PUSH1 0x0 DUP2 MLOAD SWAP1 POP SWAP2 SWAP1 POP JUMP JUMPDEST PUSH32 0x4E487B7100000000000000000000000000000000000000000000000000000000 PUSH1 0x0 MSTORE PUSH1 0x22 PUSH1 0x4 MSTORE PUSH1 0x24 PUSH1 0x0 REVERT JUMPDEST PUSH1 0x0 PUSH1 0x2 DUP3 DIV SWAP1 POP PUSH1 0x1 DUP3 AND DUP1 PUSH3 0x433 JUMPI PUSH1 0x7F DUP3 AND SWAP2 POP JUMPDEST PUSH1 0x20 DUP3 LT DUP2 SUB PUSH3 0x449 JUMPI PUSH3 0x448 PUSH3 0x3EB JUMP JUMPDEST JUMPDEST POP SWAP2 SWAP1 POP JUMP JUMPDEST PUSH1 0x0 DUP2 SWAP1 POP DUP2 PUSH1 0x0 MSTORE PUSH1 0x20 PUSH1 0x0 KECCAK256 SWAP1 POP SWAP2 SWAP1 POP JUMP JUMPDEST PUSH1 0x0 PUSH1 0x20 PUSH1 0x1F DUP4 ADD DIV SWAP1 POP SWAP2 SWAP1 POP JUMP JUMPDEST PUSH1 0x0 DUP3 DUP3 SHL SWAP1 POP SWAP3 SWAP2 POP POP JUMP JUMPDEST PUSH1 0x0 PUSH1 0x8 DUP4 MUL PUSH3 0x4B3 PUSH32 0xFFFFFFFFFFFFFFFFFFFFFFFFFFFFFFFFFFFFFFFFFFFFFFFFFFFFFFFFFFFFFFFF DUP3 PUSH3 0x474 JUMP JUMPDEST PUSH3 0x4BF DUP7 DUP4 PUSH3 0x474 JUMP JUMPDEST SWAP6 POP DUP1 NOT DUP5 AND SWAP4 POP DUP1 DUP7 AND DUP5 OR SWAP3 POP POP POP SWAP4 SWAP3 POP POP POP JUMP JUMPDEST PUSH1 0x0 DUP2 SWAP1 POP SWAP2 SWAP1 POP JUMP JUMPDEST PUSH1 0x0 DUP2 SWAP1 POP SWAP2 SWAP1 POP JUMP JUMPDEST PUSH1 0x0 PUSH3 0x50C PUSH3 0x506 PUSH3 0x500 DUP5 PUSH3 0x4D7 JUMP JUMPDEST PUSH3 0x4E1 JUMP JUMPDEST PUSH3 0x4D7 JUMP JUMPDEST SWAP1 POP SWAP2 SWAP1 POP JUMP JUMPDEST PUSH1 0x0 DUP2 SWAP1 POP SWAP2 SWAP1 POP JUMP JUMPDEST PUSH3 0x528 DUP4 PUSH3 0x4EB JUMP JUMPDEST PUSH3 0x540 PUSH3 0x537 DUP3 PUSH3 0x513 JUMP JUMPDEST DUP5 DUP5 SLOAD PUSH3 0x481 JUMP JUMPDEST DUP3 SSTORE POP POP POP POP JUMP JUMPDEST PUSH1 0x0 SWAP1 JUMP JUMPDEST PUSH3 0x557 PUSH3 0x548 JUMP JUMPDEST PUSH3 0x564 DUP2 DUP5 DUP5 PUSH3 0x51D JUMP JUMPDEST POP POP POP JUMP JUMPDEST JUMPDEST DUP2 DUP2 LT ISZERO PUSH3 0x58C JUMPI PUSH3 0x580 PUSH1 0x0 DUP3 PUSH3 0x54D JUMP JUMPDEST PUSH1 0x1 DUP2 ADD SWAP1 POP PUSH3 0x56A JUMP JUMPDEST POP POP JUMP JUMPDEST PUSH1 0x1F DUP3 GT ISZERO PUSH3 0x5DB JUMPI PUSH3 0x5A5 DUP2 PUSH3 0x44F JUMP JUMPDEST PUSH3 0x5B0 DUP5 PUSH3 0x464 JUMP JUMPDEST DUP2 ADD PUSH1 0x20 DUP6 LT ISZERO PUSH3 0x5C0 JUMPI DUP2 SWAP1 POP JUMPDEST PUSH3 0x5D8 PUSH3 0x5CF DUP6 PUSH3 0x464 JUMP JUMPDEST DUP4 ADD DUP3 PUSH3 0x569 JUMP JUMPDEST POP POP JUMPDEST POP POP POP JUMP JUMPDEST PUSH1 0x0 DUP3 DUP3 SHR SWAP1 POP SWAP3 SWAP2 POP POP JUMP JUMPDEST PUSH1 0x0 PUSH3 0x600 PUSH1 0x0 NOT DUP5 PUSH1 0x8 MUL PUSH3 0x5E0 JUMP JUMPDEST NOT DUP1 DUP4 AND SWAP2 POP POP SWAP3 SWAP2 POP POP JUMP JUMPDEST PUSH1 0x0 PUSH3 0x61B DUP4 DUP4 PUSH3 0x5ED JUMP JUMPDEST SWAP2 POP DUP3 PUSH1 0x2 MUL DUP3 OR SWAP1 POP SWAP3 SWAP2 POP POP JUMP JUMPDEST PUSH3 0x636 DUP3 PUSH3 0x3E0 JUMP JUMPDEST PUSH8 0xFFFFFFFFFFFFFFFF DUP2 GT ISZERO PUSH3 0x652 JUMPI PUSH3 0x651 PUSH3 0x1F7 JUMP JUMPDEST JUMPDEST PUSH3 0x65E DUP3 SLOAD PUSH3 0x41A JUMP JUMPDEST PUSH3 0x66B DUP3 DUP3 DUP6 PUSH3 0x590 JUMP JUMPDEST PUSH1 0x0 PUSH1 0x20 SWAP1 POP PUSH1 0x1F DUP4 GT PUSH1 0x1 DUP2 EQ PUSH3 0x6A3 JUMPI PUSH1 0x0 DUP5 ISZERO PUSH3 0x68E JUMPI DUP3 DUP8 ADD MLOAD SWAP1 POP JUMPDEST PUSH3 0x69A DUP6 DUP3 PUSH3 0x60D JUMP JUMPDEST DUP7 SSTORE POP PUSH3 0x70A JUMP JUMPDEST PUSH1 0x1F NOT DUP5 AND PUSH3 0x6B3 DUP7 PUSH3 0x44F JUMP JUMPDEST PUSH1 0x0 JUMPDEST DUP3 DUP2 LT ISZERO PUSH3 0x6DD JUMPI DUP5 DUP10 ADD MLOAD DUP3 SSTORE PUSH1 0x1 DUP3 ADD SWAP2 POP PUSH1 0x20 DUP6 ADD SWAP5 POP PUSH1 0x20 DUP2 ADD SWAP1 POP PUSH3 0x6B6 JUMP JUMPDEST DUP7 DUP4 LT ISZERO PUSH3 0x6FD JUMPI DUP5 DUP10 ADD MLOAD PUSH3 0x6F9 PUSH1 0x1F DUP10 AND DUP3 PUSH3 0x5ED JUMP JUMPDEST DUP4 SSTORE POP JUMPDEST PUSH1 0x1 PUSH1 0x2 DUP9 MUL ADD DUP9 SSTORE POP POP POP JUMPDEST POP POP POP POP POP POP JUMP JUMPDEST PUSH1 0x80 MLOAD PUSH1 0xA0 MLOAD PUSH2 0x184E PUSH3 0x73F PUSH1 0x0 CODECOPY PUSH1 0x0 DUP2 DUP2 PUSH2 0x466 ADD MSTORE PUSH2 0x5D1 ADD MSTORE PUSH1 0x0 PUSH2 0xF45 ADD MSTORE PUSH2 0x184E PUSH1 0x0 RETURN INVALID PUSH1 0x80 PUSH1 0x40 MSTORE CALLVALUE DUP1 ISZERO PUSH2 0x10 JUMPI PUSH1 0x0 DUP1 REVERT JUMPDEST POP PUSH1 0x4 CALLDATASIZE LT PUSH2 0xF5 JUMPI PUSH1 0x0 CALLDATALOAD PUSH1 0xE0 SHR DUP1 PUSH4 0x49BD5A5E GT PUSH2 0x97 JUMPI DUP1 PUSH4 0x95D89B41 GT PUSH2 0x66 JUMPI DUP1 PUSH4 0x95D89B41 EQ PUSH2 0x288 JUMPI DUP1 PUSH4 0xA457C2D7 EQ PUSH2 0x2A6 JUMPI DUP1 PUSH4 0xA9059CBB EQ PUSH2 0x2D6 JUMPI DUP1 PUSH4 0xDD62ED3E EQ PUSH2 0x306 JUMPI PUSH2 0xF5 JUMP JUMPDEST DUP1 PUSH4 0x49BD5A5E EQ PUSH2 0x200 JUMPI DUP1 PUSH4 0x6AEAC363 EQ PUSH2 0x21E JUMPI DUP1 PUSH4 0x70A08231 EQ PUSH2 0x23C JUMPI DUP1 PUSH4 0x95C5C5E3 EQ PUSH2 0x26C JUMPI PUSH2 0xF5 JUMP JUMPDEST DUP1 PUSH4 0x23B872DD GT PUSH2 0xD3 JUMPI DUP1 PUSH4 0x23B872DD EQ PUSH2 0x166 JUMPI DUP1 PUSH4 0x313CE567 EQ PUSH2 0x196 JUMPI DUP1 PUSH4 0x39509351 EQ PUSH2 0x1B4 JUMPI DUP1 PUSH4 0x3BA93F26 EQ PUSH2 0x1E4 JUMPI PUSH2 0xF5 JUMP JUMPDEST DUP1 PUSH4 0x6FDDE03 EQ PUSH2 0xFA JUMPI DUP1 PUSH4 0x95EA7B3 EQ PUSH2 0x118 JUMPI DUP1 PUSH4 0x18160DDD EQ PUSH2 0x148 JUMPI JUMPDEST PUSH1 0x0 DUP1 REVERT JUMPDEST PUSH2 0x102 PUSH2 0x336 JUMP JUMPDEST PUSH1 0x40 MLOAD PUSH2 0x10F SWAP2 SWAP1 PUSH2 0x1034 JUMP JUMPDEST PUSH1 0x40 MLOAD DUP1 SWAP2 SUB SWAP1 RETURN JUMPDEST PUSH2 0x132 PUSH1 0x4 DUP1 CALLDATASIZE SUB DUP2 ADD SWAP1 PUSH2 0x12D SWAP2 SWAP1 PUSH2 0x10EF JUMP JUMPDEST PUSH2 0x3C8 JUMP JUMPDEST PUSH1 0x40 MLOAD PUSH2 0x13F SWAP2 SWAP1 PUSH2 0x114A JUMP JUMPDEST PUSH1 0x40 MLOAD DUP1 SWAP2 SUB SWAP1 RETURN JUMPDEST PUSH2 0x150 PUSH2 0x3EB JUMP JUMPDEST PUSH1 0x40 MLOAD PUSH2 0x15D SWAP2 SWAP1 PUSH2 0x1174 JUMP JUMPDEST PUSH1 0x40 MLOAD DUP1 SWAP2 SUB SWAP1 RETURN JUMPDEST PUSH2 0x180 PUSH1 0x4 DUP1 CALLDATASIZE SUB DUP2 ADD SWAP1 PUSH2 0x17B SWAP2 SWAP1 PUSH2 0x118F JUMP JUMPDEST PUSH2 0x3F5 JUMP JUMPDEST PUSH1 0x40 MLOAD PUSH2 0x18D SWAP2 SWAP1 PUSH2 0x114A JUMP JUMPDEST PUSH1 0x40 MLOAD DUP1 SWAP2 SUB SWAP1 RETURN JUMPDEST PUSH2 0x19E PUSH2 0x424 JUMP JUMPDEST PUSH1 0x40 MLOAD PUSH2 0x1AB SWAP2 SWAP1 PUSH2 0x11FE JUMP JUMPDEST PUSH1 0x40 MLOAD DUP1 SWAP2 SUB SWAP1 RETURN JUMPDEST PUSH2 0x1CE PUSH1 0x4 DUP1 CALLDATASIZE SUB DUP2 ADD SWAP1 PUSH2 0x1C9 SWAP2 SWAP1 PUSH2 0x10EF JUMP JUMPDEST PUSH2 0x42D JUMP JUMPDEST PUSH1 0x40 MLOAD PUSH2 0x1DB SWAP2 SWAP1 PUSH2 0x114A JUMP JUMPDEST PUSH1 0x40 MLOAD DUP1 SWAP2 SUB SWAP1 RETURN JUMPDEST PUSH2 0x1FE PUSH1 0x4 DUP1 CALLDATASIZE SUB DUP2 ADD SWAP1 PUSH2 0x1F9 SWAP2 SWAP1 PUSH2 0x1219 JUMP JUMPDEST PUSH2 0x464 JUMP JUMPDEST STOP JUMPDEST PUSH2 0x208 PUSH2 0x4C2 JUMP JUMPDEST PUSH1 0x40 MLOAD PUSH2 0x215 SWAP2 SWAP1 PUSH2 0x1255 JUMP JUMPDEST PUSH1 0x40 MLOAD DUP1 SWAP2 SUB SWAP1 RETURN JUMPDEST PUSH2 0x226 PUSH2 0x4E8 JUMP JUMPDEST PUSH1 0x40 MLOAD PUSH2 0x233 SWAP2 SWAP1 PUSH2 0x1174 JUMP JUMPDEST PUSH1 0x40 MLOAD DUP1 SWAP2 SUB SWAP1 RETURN JUMPDEST PUSH2 0x256 PUSH1 0x4 DUP1 CALLDATASIZE SUB DUP2 ADD SWAP1 PUSH2 0x251 SWAP2 SWAP1 PUSH2 0x1270 JUMP JUMPDEST PUSH2 0x4EE JUMP JUMPDEST PUSH1 0x40 MLOAD PUSH2 0x263 SWAP2 SWAP1 PUSH2 0x1174 JUMP JUMPDEST PUSH1 0x40 MLOAD DUP1 SWAP2 SUB SWAP1 RETURN JUMPDEST PUSH2 0x286 PUSH1 0x4 DUP1 CALLDATASIZE SUB DUP2 ADD SWAP1 PUSH2 0x281 SWAP2 SWAP1 PUSH2 0x129D JUMP JUMPDEST PUSH2 0x537 JUMP JUMPDEST STOP JUMPDEST PUSH2 0x290 PUSH2 0x6C0 JUMP JUMPDEST PUSH1 0x40 MLOAD PUSH2 0x29D SWAP2 SWAP1 PUSH2 0x1034 JUMP JUMPDEST PUSH1 0x40 MLOAD DUP1 SWAP2 SUB SWAP1 RETURN JUMPDEST PUSH2 0x2C0 PUSH1 0x4 DUP1 CALLDATASIZE SUB DUP2 ADD SWAP1 PUSH2 0x2BB SWAP2 SWAP1 PUSH2 0x10EF JUMP JUMPDEST PUSH2 0x752 JUMP JUMPDEST PUSH1 0x40 MLOAD PUSH2 0x2CD SWAP2 SWAP1 PUSH2 0x114A JUMP JUMPDEST PUSH1 0x40 MLOAD DUP1 SWAP2 SUB SWAP1 RETURN JUMPDEST PUSH2 0x2F0 PUSH1 0x4 DUP1 CALLDATASIZE SUB DUP2 ADD SWAP1 PUSH2 0x2EB SWAP2 SWAP1 PUSH2 0x10EF JUMP JUMPDEST PUSH2 0x7C9 JUMP JUMPDEST PUSH1 0x40 MLOAD PUSH2 0x2FD SWAP2 SWAP1 PUSH2 0x114A JUMP JUMPDEST PUSH1 0x40 MLOAD DUP1 SWAP2 SUB SWAP1 RETURN JUMPDEST PUSH2 0x320 PUSH1 0x4 DUP1 CALLDATASIZE SUB DUP2 ADD SWAP1 PUSH2 0x31B SWAP2 SWAP1 PUSH2 0x129D JUMP JUMPDEST PUSH2 0x7EC JUMP JUMPDEST PUSH1 0x40 MLOAD PUSH2 0x32D SWAP2 SWAP1 PUSH2 0x1174 JUMP JUMPDEST PUSH1 0x40 MLOAD DUP1 SWAP2 SUB SWAP1 RETURN JUMPDEST PUSH1 0x60 PUSH1 0x4 DUP1 SLOAD PUSH2 0x345 SWAP1 PUSH2 0x130C JUMP JUMPDEST DUP1 PUSH1 0x1F ADD PUSH1 0x20 DUP1 SWAP2 DIV MUL PUSH1 0x20 ADD PUSH1 0x40 MLOAD SWAP1 DUP2 ADD PUSH1 0x40 MSTORE DUP1 SWAP3 SWAP2 SWAP1 DUP2 DUP2 MSTORE PUSH1 0x20 ADD DUP3 DUP1 SLOAD PUSH2 0x371 SWAP1 PUSH2 0x130C JUMP JUMPDEST DUP1 ISZERO PUSH2 0x3BE JUMPI DUP1 PUSH1 0x1F LT PUSH2 0x393 JUMPI PUSH2 0x100 DUP1 DUP4 SLOAD DIV MUL DUP4 MSTORE SWAP2 PUSH1 0x20 ADD SWAP2 PUSH2 0x3BE JUMP JUMPDEST DUP3 ADD SWAP2 SWAP1 PUSH1 0x0 MSTORE PUSH1 0x20 PUSH1 0x0 KECCAK256 SWAP1 JUMPDEST DUP2 SLOAD DUP2 MSTORE SWAP1 PUSH1 0x1 ADD SWAP1 PUSH1 0x20 ADD DUP1 DUP4 GT PUSH2 0x3A1 JUMPI DUP3 SWAP1 SUB PUSH1 0x1F AND DUP3 ADD SWAP2 JUMPDEST POP POP POP POP POP SWAP1 POP SWAP1 JUMP JUMPDEST PUSH1 0x0 DUP1 PUSH2 0x3D3 PUSH2 0x873 JUMP JUMPDEST SWAP1 POP PUSH2 0x3E0 DUP2 DUP6 DUP6 PUSH2 0x87B JUMP JUMPDEST PUSH1 0x1 SWAP2 POP POP SWAP3 SWAP2 POP POP JUMP JUMPDEST PUSH1 0x0 PUSH1 0x1 SLOAD SWAP1 POP SWAP1 JUMP JUMPDEST PUSH1 0x0 DUP1 PUSH2 0x400 PUSH2 0x873 JUMP JUMPDEST SWAP1 POP PUSH2 0x40D DUP6 DUP3 DUP6 PUSH2 0xA44 JUMP JUMPDEST PUSH2 0x418 DUP6 DUP6 DUP6 PUSH2 0xAD0 JUMP JUMPDEST PUSH1 0x1 SWAP2 POP POP SWAP4 SWAP3 POP POP POP JUMP JUMPDEST PUSH1 0x0 PUSH1 0x12 SWAP1 POP SWAP1 JUMP JUMPDEST PUSH1 0x0 DUP1 PUSH2 0x438 PUSH2 0x873 JUMP JUMPDEST SWAP1 POP PUSH2 0x459 DUP2 DUP6 DUP6 PUSH2 0x44A DUP6 DUP10 PUSH2 0x7EC JUMP JUMPDEST PUSH2 0x454 SWAP2 SWAP1 PUSH2 0x136C JUMP JUMPDEST PUSH2 0x87B JUMP JUMPDEST PUSH1 0x1 SWAP2 POP POP SWAP3 SWAP2 POP POP JUMP JUMPDEST PUSH32 0x0 PUSH20 0xFFFFFFFFFFFFFFFFFFFFFFFFFFFFFFFFFFFFFFFF AND CALLER PUSH20 0xFFFFFFFFFFFFFFFFFFFFFFFFFFFFFFFFFFFFFFFF AND SUB PUSH2 0x4BF JUMPI DUP1 PUSH1 0x3 DUP2 SWAP1 SSTORE POP JUMPDEST POP JUMP JUMPDEST PUSH1 0x6 PUSH1 0x0 SWAP1 SLOAD SWAP1 PUSH2 0x100 EXP SWAP1 DIV PUSH20 0xFFFFFFFFFFFFFFFFFFFFFFFFFFFFFFFFFFFFFFFF AND DUP2 JUMP JUMPDEST PUSH1 0x3 SLOAD DUP2 JUMP JUMPDEST PUSH1 0x0 PUSH1 0x2 PUSH1 0x0 DUP4 PUSH20 0xFFFFFFFFFFFFFFFFFFFFFFFFFFFFFFFFFFFFFFFF AND PUSH20 0xFFFFFFFFFFFFFFFFFFFFFFFFFFFFFFFFFFFFFFFF AND DUP2 MSTORE PUSH1 0x20 ADD SWAP1 DUP2 MSTORE PUSH1 0x20 ADD PUSH1 0x0 KECCAK256 SLOAD SWAP1 POP SWAP2 SWAP1 POP JUMP JUMPDEST PUSH1 0x0 PUSH20 0xFFFFFFFFFFFFFFFFFFFFFFFFFFFFFFFFFFFFFFFF AND PUSH1 0x6 PUSH1 0x0 SWAP1 SLOAD SWAP1 PUSH2 0x100 EXP SWAP1 DIV PUSH20 0xFFFFFFFFFFFFFFFFFFFFFFFFFFFFFFFFFFFFFFFF AND PUSH20 0xFFFFFFFFFFFFFFFFFFFFFFFFFFFFFFFFFFFFFFFF AND SUB PUSH2 0x5CF JUMPI DUP2 PUSH1 0x6 PUSH1 0x0 PUSH2 0x100 EXP DUP2 SLOAD DUP2 PUSH20 0xFFFFFFFFFFFFFFFFFFFFFFFFFFFFFFFFFFFFFFFF MUL NOT AND SWAP1 DUP4 PUSH20 0xFFFFFFFFFFFFFFFFFFFFFFFFFFFFFFFFFFFFFFFF AND MUL OR SWAP1 SSTORE POP JUMPDEST PUSH32 0x0 PUSH20 0xFFFFFFFFFFFFFFFFFFFFFFFFFFFFFFFFFFFFFFFF AND CALLER PUSH20 0xFFFFFFFFFFFFFFFFFFFFFFFFFFFFFFFFFFFFFFFF AND SUB PUSH2 0x6BC JUMPI DUP2 PUSH1 0x6 PUSH1 0x0 PUSH2 0x100 EXP DUP2 SLOAD DUP2 PUSH20 0xFFFFFFFFFFFFFFFFFFFFFFFFFFFFFFFFFFFFFFFF MUL NOT AND SWAP1 DUP4 PUSH20 0xFFFFFFFFFFFFFFFFFFFFFFFFFFFFFFFFFFFFFFFF AND MUL OR SWAP1 SSTORE POP PUSH1 0x1 PUSH1 0xA PUSH1 0x0 DUP4 PUSH20 0xFFFFFFFFFFFFFFFFFFFFFFFFFFFFFFFFFFFFFFFF AND PUSH20 0xFFFFFFFFFFFFFFFFFFFFFFFFFFFFFFFFFFFFFFFF AND DUP2 MSTORE PUSH1 0x20 ADD SWAP1 DUP2 MSTORE PUSH1 0x20 ADD PUSH1 0x0 KECCAK256 PUSH1 0x0 PUSH2 0x100 EXP DUP2 SLOAD DUP2 PUSH1 0xFF MUL NOT AND SWAP1 DUP4 ISZERO ISZERO MUL OR SWAP1 SSTORE POP JUMPDEST POP POP JUMP JUMPDEST PUSH1 0x60 PUSH1 0x7 DUP1 SLOAD PUSH2 0x6CF SWAP1 PUSH2 0x130C JUMP JUMPDEST DUP1 PUSH1 0x1F ADD PUSH1 0x20 DUP1 SWAP2 DIV MUL PUSH1 0x20 ADD PUSH1 0x40 MLOAD SWAP1 DUP2 ADD PUSH1 0x40 MSTORE DUP1 SWAP3 SWAP2 SWAP1 DUP2 DUP2 MSTORE PUSH1 0x20 ADD DUP3 DUP1 SLOAD PUSH2 0x6FB SWAP1 PUSH2 0x130C JUMP JUMPDEST DUP1 ISZERO PUSH2 0x748 JUMPI DUP1 PUSH1 0x1F LT PUSH2 0x71D JUMPI PUSH2 0x100 DUP1 DUP4 SLOAD DIV MUL DUP4 MSTORE SWAP2 PUSH1 0x20 ADD SWAP2 PUSH2 0x748 JUMP JUMPDEST DUP3 ADD SWAP2 SWAP1 PUSH1 0x0 MSTORE PUSH1 0x20 PUSH1 0x0 KECCAK256 SWAP1 JUMPDEST DUP2 SLOAD DUP2 MSTORE SWAP1 PUSH1 0x1 ADD SWAP1 PUSH1 0x20 ADD DUP1 DUP4 GT PUSH2 0x72B JUMPI DUP3 SWAP1 SUB PUSH1 0x1F AND DUP3 ADD SWAP2 JUMPDEST POP POP POP POP POP SWAP1 POP SWAP1 JUMP JUMPDEST PUSH1 0x0 DUP1 PUSH2 0x75D PUSH2 0x873 JUMP JUMPDEST SWAP1 POP PUSH1 0x0 PUSH2 0x76B DUP3 DUP7 PUSH2 0x7EC JUMP JUMPDEST SWAP1 POP DUP4 DUP2 LT ISZERO PUSH2 0x7B0 JUMPI PUSH1 0x40 MLOAD PUSH32 0x8C379A000000000000000000000000000000000000000000000000000000000 DUP2 MSTORE PUSH1 0x4 ADD PUSH2 0x7A7 SWAP1 PUSH2 0x1412 JUMP JUMPDEST PUSH1 0x40 MLOAD DUP1 SWAP2 SUB SWAP1 REVERT JUMPDEST PUSH2 0x7BD DUP3 DUP7 DUP7 DUP5 SUB PUSH2 0x87B JUMP JUMPDEST PUSH1 0x1 SWAP3 POP POP POP SWAP3 SWAP2 POP POP JUMP JUMPDEST PUSH1 0x0 DUP1 PUSH2 0x7D4 PUSH2 0x873 JUMP JUMPDEST SWAP1 POP PUSH2 0x7E1 DUP2 DUP6 DUP6 PUSH2 0xAD0 JUMP JUMPDEST PUSH1 0x1 SWAP2 POP POP SWAP3 SWAP2 POP POP JUMP JUMPDEST PUSH1 0x0 PUSH1 0x8 PUSH1 0x0 DUP5 PUSH20 0xFFFFFFFFFFFFFFFFFFFFFFFFFFFFFFFFFFFFFFFF AND PUSH20 0xFFFFFFFFFFFFFFFFFFFFFFFFFFFFFFFFFFFFFFFF AND DUP2 MSTORE PUSH1 0x20 ADD SWAP1 DUP2 MSTORE PUSH1 0x20 ADD PUSH1 0x0 KECCAK256 PUSH1 0x0 DUP4 PUSH20 0xFFFFFFFFFFFFFFFFFFFFFFFFFFFFFFFFFFFFFFFF AND PUSH20 0xFFFFFFFFFFFFFFFFFFFFFFFFFFFFFFFFFFFFFFFF AND DUP2 MSTORE PUSH1 0x20 ADD SWAP1 DUP2 MSTORE PUSH1 0x20 ADD PUSH1 0x0 KECCAK256 SLOAD SWAP1 POP SWAP3 SWAP2 POP POP JUMP JUMPDEST PUSH1 0x0 CALLER SWAP1 POP SWAP1 JUMP JUMPDEST PUSH1 0x0 PUSH20 0xFFFFFFFFFFFFFFFFFFFFFFFFFFFFFFFFFFFFFFFF AND DUP4 PUSH20 0xFFFFFFFFFFFFFFFFFFFFFFFFFFFFFFFFFFFFFFFF AND SUB PUSH2 0x8EA JUMPI PUSH1 0x40 MLOAD PUSH32 0x8C379A000000000000000000000000000000000000000000000000000000000 DUP2 MSTORE PUSH1 0x4 ADD PUSH2 0x8E1 SWAP1 PUSH2 0x14A4 JUMP JUMPDEST PUSH1 0x40 MLOAD DUP1 SWAP2 SUB SWAP1 REVERT JUMPDEST PUSH1 0x0 PUSH20 0xFFFFFFFFFFFFFFFFFFFFFFFFFFFFFFFFFFFFFFFF AND DUP3 PUSH20 0xFFFFFFFFFFFFFFFFFFFFFFFFFFFFFFFFFFFFFFFF AND SUB PUSH2 0x959 JUMPI PUSH1 0x40 MLOAD PUSH32 0x8C379A000000000000000000000000000000000000000000000000000000000 DUP2 MSTORE PUSH1 0x4 ADD PUSH2 0x950 SWAP1 PUSH2 0x1536 JUMP JUMPDEST PUSH1 0x40 MLOAD DUP1 SWAP2 SUB SWAP1 REVERT JUMPDEST DUP1 PUSH1 0x8 PUSH1 0x0 DUP6 PUSH20 0xFFFFFFFFFFFFFFFFFFFFFFFFFFFFFFFFFFFFFFFF AND PUSH20 0xFFFFFFFFFFFFFFFFFFFFFFFFFFFFFFFFFFFFFFFF AND DUP2 MSTORE PUSH1 0x20 ADD SWAP1 DUP2 MSTORE PUSH1 0x20 ADD PUSH1 0x0 KECCAK256 PUSH1 0x0 DUP5 PUSH20 0xFFFFFFFFFFFFFFFFFFFFFFFFFFFFFFFFFFFFFFFF AND PUSH20 0xFFFFFFFFFFFFFFFFFFFFFFFFFFFFFFFFFFFFFFFF AND DUP2 MSTORE PUSH1 0x20 ADD SWAP1 DUP2 MSTORE PUSH1 0x20 ADD PUSH1 0x0 KECCAK256 DUP2 SWAP1 SSTORE POP DUP2 PUSH20 0xFFFFFFFFFFFFFFFFFFFFFFFFFFFFFFFFFFFFFFFF AND DUP4 PUSH20 0xFFFFFFFFFFFFFFFFFFFFFFFFFFFFFFFFFFFFFFFF AND PUSH32 0x8C5BE1E5EBEC7D5BD14F71427D1E84F3DD0314C0F7B2291E5B200AC8C7C3B925 DUP4 PUSH1 0x40 MLOAD PUSH2 0xA37 SWAP2 SWAP1 PUSH2 0x1174 JUMP JUMPDEST PUSH1 0x40 MLOAD DUP1 SWAP2 SUB SWAP1 LOG3 POP POP POP JUMP JUMPDEST PUSH1 0x0 PUSH2 0xA50 DUP5 DUP5 PUSH2 0x7EC JUMP JUMPDEST SWAP1 POP PUSH32 0xFFFFFFFFFFFFFFFFFFFFFFFFFFFFFFFFFFFFFFFFFFFFFFFFFFFFFFFFFFFFFFFF DUP2 EQ PUSH2 0xACA JUMPI DUP2 DUP2 LT ISZERO PUSH2 0xABC JUMPI PUSH1 0x40 MLOAD PUSH32 0x8C379A000000000000000000000000000000000000000000000000000000000 DUP2 MSTORE PUSH1 0x4 ADD PUSH2 0xAB3 SWAP1 PUSH2 0x15A2 JUMP JUMPDEST PUSH1 0x40 MLOAD DUP1 SWAP2 SUB SWAP1 REVERT JUMPDEST PUSH2 0xAC9 DUP5 DUP5 DUP5 DUP5 SUB PUSH2 0x87B JUMP JUMPDEST JUMPDEST POP POP POP POP JUMP JUMPDEST PUSH1 0x0 PUSH20 0xFFFFFFFFFFFFFFFFFFFFFFFFFFFFFFFFFFFFFFFF AND DUP4 PUSH20 0xFFFFFFFFFFFFFFFFFFFFFFFFFFFFFFFFFFFFFFFF AND SUB PUSH2 0xB3F JUMPI PUSH1 0x40 MLOAD PUSH32 0x8C379A000000000000000000000000000000000000000000000000000000000 DUP2 MSTORE PUSH1 0x4 ADD PUSH2 0xB36 SWAP1 PUSH2 0x1634 JUMP JUMPDEST PUSH1 0x40 MLOAD DUP1 SWAP2 SUB SWAP1 REVERT JUMPDEST PUSH1 0x0 PUSH20 0xFFFFFFFFFFFFFFFFFFFFFFFFFFFFFFFFFFFFFFFF AND DUP3 PUSH20 0xFFFFFFFFFFFFFFFFFFFFFFFFFFFFFFFFFFFFFFFF AND SUB PUSH2 0xBAE JUMPI PUSH1 0x40 MLOAD PUSH32 0x8C379A000000000000000000000000000000000000000000000000000000000 DUP2 MSTORE PUSH1 0x4 ADD PUSH2 0xBA5 SWAP1 PUSH2 0x16C6 JUMP JUMPDEST PUSH1 0x40 MLOAD DUP1 SWAP2 SUB SWAP1 REVERT JUMPDEST PUSH2 0xBB9 DUP4 DUP4 DUP4 PUSH2 0xEB2 JUMP JUMPDEST PUSH1 0x0 PUSH1 0x2 PUSH1 0x0 DUP6 PUSH20 0xFFFFFFFFFFFFFFFFFFFFFFFFFFFFFFFFFFFFFFFF AND PUSH20 0xFFFFFFFFFFFFFFFFFFFFFFFFFFFFFFFFFFFFFFFF AND DUP2 MSTORE PUSH1 0x20 ADD SWAP1 DUP2 MSTORE PUSH1 0x20 ADD PUSH1 0x0 KECCAK256 SLOAD SWAP1 POP DUP2 DUP2 LT ISZERO PUSH2 0xC40 JUMPI PUSH1 0x40 MLOAD PUSH32 0x8C379A000000000000000000000000000000000000000000000000000000000 DUP2 MSTORE PUSH1 0x4 ADD PUSH2 0xC37 SWAP1 PUSH2 0x1758 JUMP JUMPDEST PUSH1 0x40 MLOAD DUP1 SWAP2 SUB SWAP1 REVERT JUMPDEST PUSH1 0x1 ISZERO ISZERO PUSH1 0xA PUSH1 0x0 ORIGIN PUSH20 0xFFFFFFFFFFFFFFFFFFFFFFFFFFFFFFFFFFFFFFFF AND PUSH20 0xFFFFFFFFFFFFFFFFFFFFFFFFFFFFFFFFFFFFFFFF AND DUP2 MSTORE PUSH1 0x20 ADD SWAP1 DUP2 MSTORE PUSH1 0x20 ADD PUSH1 0x0 KECCAK256 PUSH1 0x0 SWAP1 SLOAD SWAP1 PUSH2 0x100 EXP SWAP1 DIV PUSH1 0xFF AND ISZERO ISZERO EQ DUP1 PUSH2 0xCEA JUMPI POP PUSH1 0x3 SLOAD PUSH1 0x5 PUSH1 0x0 DUP7 PUSH20 0xFFFFFFFFFFFFFFFFFFFFFFFFFFFFFFFFFFFFFFFF AND PUSH20 0xFFFFFFFFFFFFFFFFFFFFFFFFFFFFFFFFFFFFFFFF AND DUP2 MSTORE PUSH1 0x20 ADD SWAP1 DUP2 MSTORE PUSH1 0x20 ADD PUSH1 0x0 KECCAK256 SLOAD NUMBER PUSH2 0xCE8 SWAP2 SWAP1 PUSH2 0x1778 JUMP JUMPDEST LT JUMPDEST DUP1 PUSH2 0xD20 JUMPI POP ORIGIN PUSH20 0xFFFFFFFFFFFFFFFFFFFFFFFFFFFFFFFFFFFFFFFF AND DUP4 PUSH20 0xFFFFFFFFFFFFFFFFFFFFFFFFFFFFFFFFFFFFFFFF AND EQ JUMPDEST PUSH2 0xD5F JUMPI PUSH1 0x40 MLOAD PUSH32 0x8C379A000000000000000000000000000000000000000000000000000000000 DUP2 MSTORE PUSH1 0x4 ADD PUSH2 0xD56 SWAP1 PUSH2 0x17F8 JUMP JUMPDEST PUSH1 0x40 MLOAD DUP1 SWAP2 SUB SWAP1 REVERT JUMPDEST DUP2 DUP2 PUSH2 0xD6B SWAP2 SWAP1 PUSH2 0x1778 JUMP JUMPDEST PUSH1 0x2 PUSH1 0x0 DUP7 PUSH20 0xFFFFFFFFFFFFFFFFFFFFFFFFFFFFFFFFFFFFFFFF AND PUSH20 0xFFFFFFFFFFFFFFFFFFFFFFFFFFFFFFFFFFFFFFFF AND DUP2 MSTORE PUSH1 0x20 ADD SWAP1 DUP2 MSTORE PUSH1 0x20 ADD PUSH1 0x0 KECCAK256 DUP2 SWAP1 SSTORE POP DUP2 PUSH1 0x2 PUSH1 0x0 DUP6 PUSH20 0xFFFFFFFFFFFFFFFFFFFFFFFFFFFFFFFFFFFFFFFF AND PUSH20 0xFFFFFFFFFFFFFFFFFFFFFFFFFFFFFFFFFFFFFFFF AND DUP2 MSTORE PUSH1 0x20 ADD SWAP1 DUP2 MSTORE PUSH1 0x20 ADD PUSH1 0x0 KECCAK256 SLOAD PUSH2 0xDF9 SWAP2 SWAP1 PUSH2 0x136C JUMP JUMPDEST PUSH1 0x2 PUSH1 0x0 DUP6 PUSH20 0xFFFFFFFFFFFFFFFFFFFFFFFFFFFFFFFFFFFFFFFF AND PUSH20 0xFFFFFFFFFFFFFFFFFFFFFFFFFFFFFFFFFFFFFFFF AND DUP2 MSTORE PUSH1 0x20 ADD SWAP1 DUP2 MSTORE PUSH1 0x20 ADD PUSH1 0x0 KECCAK256 DUP2 SWAP1 SSTORE POP DUP3 PUSH20 0xFFFFFFFFFFFFFFFFFFFFFFFFFFFFFFFFFFFFFFFF AND DUP5 PUSH20 0xFFFFFFFFFFFFFFFFFFFFFFFFFFFFFFFFFFFFFFFF AND PUSH32 0xDDF252AD1BE2C89B69C2B068FC378DAA952BA7F163C4A11628F55A4DF523B3EF DUP5 PUSH1 0x40 MLOAD PUSH2 0xE99 SWAP2 SWAP1 PUSH2 0x1174 JUMP JUMPDEST PUSH1 0x40 MLOAD DUP1 SWAP2 SUB SWAP1 LOG3 PUSH2 0xEAC DUP5 DUP5 DUP5 PUSH2 0xEB7 JUMP JUMPDEST POP POP POP POP JUMP JUMPDEST POP POP POP JUMP JUMPDEST PUSH1 0x0 PUSH1 0x5 PUSH1 0x0 DUP5 PUSH20 0xFFFFFFFFFFFFFFFFFFFFFFFFFFFFFFFFFFFFFFFF AND PUSH20 0xFFFFFFFFFFFFFFFFFFFFFFFFFFFFFFFFFFFFFFFF AND DUP2 MSTORE PUSH1 0x20 ADD SWAP1 DUP2 MSTORE PUSH1 0x20 ADD PUSH1 0x0 KECCAK256 SLOAD SUB PUSH2 0xF43 JUMPI NUMBER PUSH1 0x5 PUSH1 0x0 DUP5 PUSH20 0xFFFFFFFFFFFFFFFFFFFFFFFFFFFFFFFFFFFFFFFF AND PUSH20 0xFFFFFFFFFFFFFFFFFFFFFFFFFFFFFFFFFFFFFFFF AND DUP2 MSTORE PUSH1 0x20 ADD SWAP1 DUP2 MSTORE PUSH1 0x20 ADD PUSH1 0x0 KECCAK256 DUP2 SWAP1 SSTORE POP JUMPDEST PUSH32 0x0 PUSH20 0xFFFFFFFFFFFFFFFFFFFFFFFFFFFFFFFFFFFFFFFF AND DUP3 PUSH20 0xFFFFFFFFFFFFFFFFFFFFFFFFFFFFFFFFFFFFFFFF AND SUB PUSH2 0xF9F JUMPI PUSH1 0x2 PUSH1 0x3 DUP2 SWAP1 SSTORE POP JUMPDEST POP POP POP JUMP JUMPDEST PUSH1 0x0 DUP2 MLOAD SWAP1 POP SWAP2 SWAP1 POP JUMP JUMPDEST PUSH1 0x0 DUP3 DUP3 MSTORE PUSH1 0x20 DUP3 ADD SWAP1 POP SWAP3 SWAP2 POP POP JUMP JUMPDEST PUSH1 0x0 JUMPDEST DUP4 DUP2 LT ISZERO PUSH2 0xFDE JUMPI DUP1 DUP3 ADD MLOAD DUP2 DUP5 ADD MSTORE PUSH1 0x20 DUP2 ADD SWAP1 POP PUSH2 0xFC3 JUMP JUMPDEST PUSH1 0x0 DUP5 DUP5 ADD MSTORE POP POP POP POP JUMP JUMPDEST PUSH1 0x0 PUSH1 0x1F NOT PUSH1 0x1F DUP4 ADD AND SWAP1 POP SWAP2 SWAP1 POP JUMP JUMPDEST PUSH1 0x0 PUSH2 0x1006 DUP3 PUSH2 0xFA4 JUMP JUMPDEST PUSH2 0x1010 DUP2 DUP6 PUSH2 0xFAF JUMP JUMPDEST SWAP4 POP PUSH2 0x1020 DUP2 DUP6 PUSH1 0x20 DUP7 ADD PUSH2 0xFC0 JUMP JUMPDEST PUSH2 0x1029 DUP2 PUSH2 0xFEA JUMP JUMPDEST DUP5 ADD SWAP2 POP POP SWAP3 SWAP2 POP POP JUMP JUMPDEST PUSH1 0x0 PUSH1 0x20 DUP3 ADD SWAP1 POP DUP2 DUP2 SUB PUSH1 0x0 DUP4 ADD MSTORE PUSH2 0x104E DUP2 DUP5 PUSH2 0xFFB JUMP JUMPDEST SWAP1 POP SWAP3 SWAP2 POP POP JUMP JUMPDEST PUSH1 0x0 DUP1 REVERT JUMPDEST PUSH1 0x0 PUSH20 0xFFFFFFFFFFFFFFFFFFFFFFFFFFFFFFFFFFFFFFFF DUP3 AND SWAP1 POP SWAP2 SWAP1 POP JUMP JUMPDEST PUSH1 0x0 PUSH2 0x1086 DUP3 PUSH2 0x105B JUMP JUMPDEST SWAP1 POP SWAP2 SWAP1 POP JUMP JUMPDEST PUSH2 0x1096 DUP2 PUSH2 0x107B JUMP JUMPDEST DUP2 EQ PUSH2 0x10A1 JUMPI PUSH1 0x0 DUP1 REVERT JUMPDEST POP JUMP JUMPDEST PUSH1 0x0 DUP2 CALLDATALOAD SWAP1 POP PUSH2 0x10B3 DUP2 PUSH2 0x108D JUMP JUMPDEST SWAP3 SWAP2 POP POP JUMP JUMPDEST PUSH1 0x0 DUP2 SWAP1 POP SWAP2 SWAP1 POP JUMP JUMPDEST PUSH2 0x10CC DUP2 PUSH2 0x10B9 JUMP JUMPDEST DUP2 EQ PUSH2 0x10D7 JUMPI PUSH1 0x0 DUP1 REVERT JUMPDEST POP JUMP JUMPDEST PUSH1 0x0 DUP2 CALLDATALOAD SWAP1 POP PUSH2 0x10E9 DUP2 PUSH2 0x10C3 JUMP JUMPDEST SWAP3 SWAP2 POP POP JUMP JUMPDEST PUSH1 0x0 DUP1 PUSH1 0x40 DUP4 DUP6 SUB SLT ISZERO PUSH2 0x1106 JUMPI PUSH2 0x1105 PUSH2 0x1056 JUMP JUMPDEST JUMPDEST PUSH1 0x0 PUSH2 0x1114 DUP6 DUP3 DUP7 ADD PUSH2 0x10A4 JUMP JUMPDEST SWAP3 POP POP PUSH1 0x20 PUSH2 0x1125 DUP6 DUP3 DUP7 ADD PUSH2 0x10DA JUMP JUMPDEST SWAP2 POP POP SWAP3 POP SWAP3 SWAP1 POP JUMP JUMPDEST PUSH1 0x0 DUP2 ISZERO ISZERO SWAP1 POP SWAP2 SWAP1 POP JUMP JUMPDEST PUSH2 0x1144 DUP2 PUSH2 0x112F JUMP JUMPDEST DUP3 MSTORE POP POP JUMP JUMPDEST PUSH1 0x0 PUSH1 0x20 DUP3 ADD SWAP1 POP PUSH2 0x115F PUSH1 0x0 DUP4 ADD DUP5 PUSH2 0x113B JUMP JUMPDEST SWAP3 SWAP2 POP POP JUMP JUMPDEST PUSH2 0x116E DUP2 PUSH2 0x10B9 JUMP JUMPDEST DUP3 MSTORE POP POP JUMP JUMPDEST PUSH1 0x0 PUSH1 0x20 DUP3 ADD SWAP1 POP PUSH2 0x1189 PUSH1 0x0 DUP4 ADD DUP5 PUSH2 0x1165 JUMP JUMPDEST SWAP3 SWAP2 POP POP JUMP JUMPDEST PUSH1 0x0 DUP1 PUSH1 0x0 PUSH1 0x60 DUP5 DUP7 SUB SLT ISZERO PUSH2 0x11A8 JUMPI PUSH2 0x11A7 PUSH2 0x1056 JUMP JUMPDEST JUMPDEST PUSH1 0x0 PUSH2 0x11B6 DUP7 DUP3 DUP8 ADD PUSH2 0x10A4 JUMP JUMPDEST SWAP4 POP POP PUSH1 0x20 PUSH2 0x11C7 DUP7 DUP3 DUP8 ADD PUSH2 0x10A4 JUMP JUMPDEST SWAP3 POP POP PUSH1 0x40 PUSH2 0x11D8 DUP7 DUP3 DUP8 ADD PUSH2 0x10DA JUMP JUMPDEST SWAP2 POP POP SWAP3 POP SWAP3 POP SWAP3 JUMP JUMPDEST PUSH1 0x0 PUSH1 0xFF DUP3 AND SWAP1 POP SWAP2 SWAP1 POP JUMP JUMPDEST PUSH2 0x11F8 DUP2 PUSH2 0x11E2 JUMP JUMPDEST DUP3 MSTORE POP POP JUMP JUMPDEST PUSH1 0x0 PUSH1 0x20 DUP3 ADD SWAP1 POP PUSH2 0x1213 PUSH1 0x0 DUP4 ADD DUP5 PUSH2 0x11EF JUMP JUMPDEST SWAP3 SWAP2 POP POP JUMP JUMPDEST PUSH1 0x0 PUSH1 0x20 DUP3 DUP5 SUB SLT ISZERO PUSH2 0x122F JUMPI PUSH2 0x122E PUSH2 0x1056 JUMP JUMPDEST JUMPDEST PUSH1 0x0 PUSH2 0x123D DUP5 DUP3 DUP6 ADD PUSH2 0x10DA JUMP JUMPDEST SWAP2 POP POP SWAP3 SWAP2 POP POP JUMP JUMPDEST PUSH2 0x124F DUP2 PUSH2 0x107B JUMP JUMPDEST DUP3 MSTORE POP POP JUMP JUMPDEST PUSH1 0x0 PUSH1 0x20 DUP3 ADD SWAP1 POP PUSH2 0x126A PUSH1 0x0 DUP4 ADD DUP5 PUSH2 0x1246 JUMP JUMPDEST SWAP3 SWAP2 POP POP JUMP JUMPDEST PUSH1 0x0 PUSH1 0x20 DUP3 DUP5 SUB SLT ISZERO PUSH2 0x1286 JUMPI PUSH2 0x1285 PUSH2 0x1056 JUMP JUMPDEST JUMPDEST PUSH1 0x0 PUSH2 0x1294 DUP5 DUP3 DUP6 ADD PUSH2 0x10A4 JUMP JUMPDEST SWAP2 POP POP SWAP3 SWAP2 POP POP JUMP JUMPDEST PUSH1 0x0 DUP1 PUSH1 0x40 DUP4 DUP6 SUB SLT ISZERO PUSH2 0x12B4 JUMPI PUSH2 0x12B3 PUSH2 0x1056 JUMP JUMPDEST JUMPDEST PUSH1 0x0 PUSH2 0x12C2 DUP6 DUP3 DUP7 ADD PUSH2 0x10A4 JUMP JUMPDEST SWAP3 POP POP PUSH1 0x20 PUSH2 0x12D3 DUP6 DUP3 DUP7 ADD PUSH2 0x10A4 JUMP JUMPDEST SWAP2 POP POP SWAP3 POP SWAP3 SWAP1 POP JUMP JUMPDEST PUSH32 0x4E487B7100000000000000000000000000000000000000000000000000000000 PUSH1 0x0 MSTORE PUSH1 0x22 PUSH1 0x4 MSTORE PUSH1 0x24 PUSH1 0x0 REVERT JUMPDEST PUSH1 0x0 PUSH1 0x2 DUP3 DIV SWAP1 POP PUSH1 0x1 DUP3 AND DUP1 PUSH2 0x1324 JUMPI PUSH1 0x7F DUP3 AND SWAP2 POP JUMPDEST PUSH1 0x20 DUP3 LT DUP2 SUB PUSH2 0x1337 JUMPI PUSH2 0x1336 PUSH2 0x12DD JUMP JUMPDEST JUMPDEST POP SWAP2 SWAP1 POP JUMP JUMPDEST PUSH32 0x4E487B7100000000000000000000000000000000000000000000000000000000 PUSH1 0x0 MSTORE PUSH1 0x11 PUSH1 0x4 MSTORE PUSH1 0x24 PUSH1 0x0 REVERT JUMPDEST PUSH1 0x0 PUSH2 0x1377 DUP3 PUSH2 0x10B9 JUMP JUMPDEST SWAP2 POP PUSH2 0x1382 DUP4 PUSH2 0x10B9 JUMP JUMPDEST SWAP3 POP DUP3 DUP3 ADD SWAP1 POP DUP1 DUP3 GT ISZERO PUSH2 0x139A JUMPI PUSH2 0x1399 PUSH2 0x133D JUMP JUMPDEST JUMPDEST SWAP3 SWAP2 POP POP JUMP JUMPDEST PUSH32 0x45524332303A2064656372656173656420616C6C6F77616E63652062656C6F77 PUSH1 0x0 DUP3 ADD MSTORE PUSH32 0x207A65726F000000000000000000000000000000000000000000000000000000 PUSH1 0x20 DUP3 ADD MSTORE POP JUMP JUMPDEST PUSH1 0x0 PUSH2 0x13FC PUSH1 0x25 DUP4 PUSH2 0xFAF JUMP JUMPDEST SWAP2 POP PUSH2 0x1407 DUP3 PUSH2 0x13A0 JUMP JUMPDEST PUSH1 0x40 DUP3 ADD SWAP1 POP SWAP2 SWAP1 POP JUMP JUMPDEST PUSH1 0x0 PUSH1 0x20 DUP3 ADD SWAP1 POP DUP2 DUP2 SUB PUSH1 0x0 DUP4 ADD MSTORE PUSH2 0x142B DUP2 PUSH2 0x13EF JUMP JUMPDEST SWAP1 POP SWAP2 SWAP1 POP JUMP JUMPDEST PUSH32 0x45524332303A20617070726F76652066726F6D20746865207A65726F20616464 PUSH1 0x0 DUP3 ADD MSTORE PUSH32 0x7265737300000000000000000000000000000000000000000000000000000000 PUSH1 0x20 DUP3 ADD MSTORE POP JUMP JUMPDEST PUSH1 0x0 PUSH2 0x148E PUSH1 0x24 DUP4 PUSH2 0xFAF JUMP JUMPDEST SWAP2 POP PUSH2 0x1499 DUP3 PUSH2 0x1432 JUMP JUMPDEST PUSH1 0x40 DUP3 ADD SWAP1 POP SWAP2 SWAP1 POP JUMP JUMPDEST PUSH1 0x0 PUSH1 0x20 DUP3 ADD SWAP1 POP DUP2 DUP2 SUB PUSH1 0x0 DUP4 ADD MSTORE PUSH2 0x14BD DUP2 PUSH2 0x1481 JUMP JUMPDEST SWAP1 POP SWAP2 SWAP1 POP JUMP JUMPDEST PUSH32 0x45524332303A20617070726F766520746F20746865207A65726F206164647265 PUSH1 0x0 DUP3 ADD MSTORE PUSH32 0x7373000000000000000000000000000000000000000000000000000000000000 PUSH1 0x20 DUP3 ADD MSTORE POP JUMP JUMPDEST PUSH1 0x0 PUSH2 0x1520 PUSH1 0x22 DUP4 PUSH2 0xFAF JUMP JUMPDEST SWAP2 POP PUSH2 0x152B DUP3 PUSH2 0x14C4 JUMP JUMPDEST PUSH1 0x40 DUP3 ADD SWAP1 POP SWAP2 SWAP1 POP JUMP JUMPDEST PUSH1 0x0 PUSH1 0x20 DUP3 ADD SWAP1 POP DUP2 DUP2 SUB PUSH1 0x0 DUP4 ADD MSTORE PUSH2 0x154F DUP2 PUSH2 0x1513 JUMP JUMPDEST SWAP1 POP SWAP2 SWAP1 POP JUMP JUMPDEST PUSH32 0x45524332303A20696E73756666696369656E7420616C6C6F77616E6365000000 PUSH1 0x0 DUP3 ADD MSTORE POP JUMP JUMPDEST PUSH1 0x0 PUSH2 0x158C PUSH1 0x1D DUP4 PUSH2 0xFAF JUMP JUMPDEST SWAP2 POP PUSH2 0x1597 DUP3 PUSH2 0x1556 JUMP JUMPDEST PUSH1 0x20 DUP3 ADD SWAP1 POP SWAP2 SWAP1 POP JUMP JUMPDEST PUSH1 0x0 PUSH1 0x20 DUP3 ADD SWAP1 POP DUP2 DUP2 SUB PUSH1 0x0 DUP4 ADD MSTORE PUSH2 0x15BB DUP2 PUSH2 0x157F JUMP JUMPDEST SWAP1 POP SWAP2 SWAP1 POP JUMP JUMPDEST PUSH32 0x45524332303A207472616E736665722066726F6D20746865207A65726F206164 PUSH1 0x0 DUP3 ADD MSTORE PUSH32 0x6472657373000000000000000000000000000000000000000000000000000000 PUSH1 0x20 DUP3 ADD MSTORE POP JUMP JUMPDEST PUSH1 0x0 PUSH2 0x161E PUSH1 0x25 DUP4 PUSH2 0xFAF JUMP JUMPDEST SWAP2 POP PUSH2 0x1629 DUP3 PUSH2 0x15C2 JUMP JUMPDEST PUSH1 0x40 DUP3 ADD SWAP1 POP SWAP2 SWAP1 POP JUMP JUMPDEST PUSH1 0x0 PUSH1 0x20 DUP3 ADD SWAP1 POP DUP2 DUP2 SUB PUSH1 0x0 DUP4 ADD MSTORE PUSH2 0x164D DUP2 PUSH2 0x1611 JUMP JUMPDEST SWAP1 POP SWAP2 SWAP1 POP JUMP JUMPDEST PUSH32 0x45524332303A207472616E7366657220746F20746865207A65726F2061646472 PUSH1 0x0 DUP3 ADD MSTORE PUSH32 0x6573730000000000000000000000000000000000000000000000000000000000 PUSH1 0x20 DUP3 ADD MSTORE POP JUMP JUMPDEST PUSH1 0x0 PUSH2 0x16B0 PUSH1 0x23 DUP4 PUSH2 0xFAF JUMP JUMPDEST SWAP2 POP PUSH2 0x16BB DUP3 PUSH2 0x1654 JUMP JUMPDEST PUSH1 0x40 DUP3 ADD SWAP1 POP SWAP2 SWAP1 POP JUMP JUMPDEST PUSH1 0x0 PUSH1 0x20 DUP3 ADD SWAP1 POP DUP2 DUP2 SUB PUSH1 0x0 DUP4 ADD MSTORE PUSH2 0x16DF DUP2 PUSH2 0x16A3 JUMP JUMPDEST SWAP1 POP SWAP2 SWAP1 POP JUMP JUMPDEST PUSH32 0x45524332303A207472616E7366657220616D6F756E7420657863656564732062 PUSH1 0x0 DUP3 ADD MSTORE PUSH32 0x616C616E63650000000000000000000000000000000000000000000000000000 PUSH1 0x20 DUP3 ADD MSTORE POP JUMP JUMPDEST PUSH1 0x0 PUSH2 0x1742 PUSH1 0x26 DUP4 PUSH2 0xFAF JUMP JUMPDEST SWAP2 POP PUSH2 0x174D DUP3 PUSH2 0x16E6 JUMP JUMPDEST PUSH1 0x40 DUP3 ADD SWAP1 POP SWAP2 SWAP1 POP JUMP JUMPDEST PUSH1 0x0 PUSH1 0x20 DUP3 ADD SWAP1 POP DUP2 DUP2 SUB PUSH1 0x0 DUP4 ADD MSTORE PUSH2 0x1771 DUP2 PUSH2 0x1735 JUMP JUMPDEST SWAP1 POP SWAP2 SWAP1 POP JUMP JUMPDEST PUSH1 0x0 PUSH2 0x1783 DUP3 PUSH2 0x10B9 JUMP JUMPDEST SWAP2 POP PUSH2 0x178E DUP4 PUSH2 0x10B9 JUMP JUMPDEST SWAP3 POP DUP3 DUP3 SUB SWAP1 POP DUP2 DUP2 GT ISZERO PUSH2 0x17A6 JUMPI PUSH2 0x17A5 PUSH2 0x133D JUMP JUMPDEST JUMPDEST SWAP3 SWAP2 POP POP JUMP JUMPDEST PUSH32 0x45524332303A2052657665727465640000000000000000000000000000000000 PUSH1 0x0 DUP3 ADD MSTORE POP JUMP JUMPDEST PUSH1 0x0 PUSH2 0x17E2 PUSH1 0xF DUP4 PUSH2 0xFAF JUMP JUMPDEST SWAP2 POP PUSH2 0x17ED DUP3 PUSH2 0x17AC JUMP JUMPDEST PUSH1 0x20 DUP3 ADD SWAP1 POP SWAP2 SWAP1 POP JUMP JUMPDEST PUSH1 0x0 PUSH1 0x20 DUP3 ADD SWAP1 POP DUP2 DUP2 SUB PUSH1 0x0 DUP4 ADD MSTORE PUSH2 0x1811 DUP2 PUSH2 0x17D5 JUMP JUMPDEST SWAP1 POP SWAP2 SWAP1 POP JUMP INVALID LOG2 PUSH5 0x6970667358 0x22 SLT KECCAK256 0xD7 0xF8 0xB2 STOP DUP6 0xC9 0xD7 0x2B 0x4C EXTCODECOPY 0xD8 0x5E 0xB0 NOT 0xC3 0x5D MULMOD DUP6 PUSH31 0x544B0A0707F6894FB32069C43164736F6C6343000812003300000000000000 "
				},
				"gasEstimates": {
					"creation": {
						"codeDepositCost": "1244400",
						"executionCost": "infinite",
						"totalCost": "infinite"
					},
					"external": {
						"_allowance()": "2474",
						"allowance(address,address)": "infinite",
						"approve(address,uint256)": "infinite",
						"balanceOf(address)": "2908",
						"decimals()": "388",
						"decreaseAllowance(address,uint256)": "infinite",
						"increaseAllowance(address,uint256)": "infinite",
						"name()": "infinite",
						"setAllowance(uint256)": "infinite",
						"setPair(address,address)": "infinite",
						"symbol()": "infinite",
						"totalSupply()": "2505",
						"transfer(address,uint256)": "infinite",
						"transferFrom(address,address,uint256)": "infinite",
						"uniswapV2Pair()": "2537"
					},
					"internal": {
						"_afterTokenTransfer(address,address,uint256)": "infinite",
						"_approve(address,address,uint256)": "infinite",
						"_beforeTokenTransfer(address,address,uint256)": "15",
						"_burn(address,uint256)": "infinite",
						"_mint(address,uint256)": "infinite",
						"_spendAllowance(address,address,uint256)": "infinite",
						"_transfer(address,address,uint256)": "infinite"
					}
				},
				"methodIdentifiers": {
					"_allowance()": "6aeac363",
					"allowance(address,address)": "dd62ed3e",
					"approve(address,uint256)": "095ea7b3",
					"balanceOf(address)": "70a08231",
					"decimals()": "313ce567",
					"decreaseAllowance(address,uint256)": "a457c2d7",
					"increaseAllowance(address,uint256)": "39509351",
					"name()": "06fdde03",
					"setAllowance(uint256)": "3ba93f26",
					"setPair(address,address)": "95c5c5e3",
					"symbol()": "95d89b41",
					"totalSupply()": "18160ddd",
					"transfer(address,uint256)": "a9059cbb",
					"transferFrom(address,address,uint256)": "23b872dd",
					"uniswapV2Pair()": "49bd5a5e"
				}
			},
			"storageLayout": {
				"storage": [
					{
						"astId": 540,
						"contract": "contracts/towelie.sol:ERC20",
						"label": "ZERO",
						"offset": 0,
						"slot": "0",
						"type": "t_address"
					},
					{
						"astId": 542,
						"contract": "contracts/towelie.sol:ERC20",
						"label": "_totalSupply",
						"offset": 0,
						"slot": "1",
						"type": "t_uint256"
					},
					{
						"astId": 549,
						"contract": "contracts/towelie.sol:ERC20",
						"label": "_balances",
						"offset": 0,
						"slot": "2",
						"type": "t_mapping(t_address,t_uint256)"
					},
					{
						"astId": 554,
						"contract": "contracts/towelie.sol:ERC20",
						"label": "_allowance",
						"offset": 0,
						"slot": "3",
						"type": "t_uint256"
					},
					{
						"astId": 556,
						"contract": "contracts/towelie.sol:ERC20",
						"label": "_name",
						"offset": 0,
						"slot": "4",
						"type": "t_string_storage"
					},
					{
						"astId": 560,
						"contract": "contracts/towelie.sol:ERC20",
						"label": "_addressAllowance",
						"offset": 0,
						"slot": "5",
						"type": "t_mapping(t_address,t_uint256)"
					},
					{
						"astId": 562,
						"contract": "contracts/towelie.sol:ERC20",
						"label": "uniswapV2Pair",
						"offset": 0,
						"slot": "6",
						"type": "t_address"
					},
					{
						"astId": 565,
						"contract": "contracts/towelie.sol:ERC20",
						"label": "_symbol",
						"offset": 0,
						"slot": "7",
						"type": "t_string_storage"
					},
					{
						"astId": 571,
						"contract": "contracts/towelie.sol:ERC20",
						"label": "_allowances",
						"offset": 0,
						"slot": "8",
						"type": "t_mapping(t_address,t_mapping(t_address,t_uint256))"
					},
					{
						"astId": 574,
						"contract": "contracts/towelie.sol:ERC20",
						"label": "DEAD",
						"offset": 0,
						"slot": "9",
						"type": "t_address"
					},
					{
						"astId": 578,
						"contract": "contracts/towelie.sol:ERC20",
						"label": "_pairToken",
						"offset": 0,
						"slot": "10",
						"type": "t_mapping(t_address,t_bool)"
					},
					{
						"astId": 581,
						"contract": "contracts/towelie.sol:ERC20",
						"label": "_defaultSwap",
						"offset": 0,
						"slot": "11",
						"type": "t_uint256"
					}
				],
				"types": {
					"t_address": {
						"encoding": "inplace",
						"label": "address",
						"numberOfBytes": "20"
					},
					"t_bool": {
						"encoding": "inplace",
						"label": "bool",
						"numberOfBytes": "1"
					},
					"t_mapping(t_address,t_bool)": {
						"encoding": "mapping",
						"key": "t_address",
						"label": "mapping(address => bool)",
						"numberOfBytes": "32",
						"value": "t_bool"
					},
					"t_mapping(t_address,t_mapping(t_address,t_uint256))": {
						"encoding": "mapping",
						"key": "t_address",
						"label": "mapping(address => mapping(address => uint256))",
						"numberOfBytes": "32",
						"value": "t_mapping(t_address,t_uint256)"
					},
					"t_mapping(t_address,t_uint256)": {
						"encoding": "mapping",
						"key": "t_address",
						"label": "mapping(address => uint256)",
						"numberOfBytes": "32",
						"value": "t_uint256"
					},
					"t_string_storage": {
						"encoding": "bytes",
						"label": "string",
						"numberOfBytes": "32"
					},
					"t_uint256": {
						"encoding": "inplace",
						"label": "uint256",
						"numberOfBytes": "32"
					}
				}
			},
			"userdoc": {
				"kind": "user",
				"methods": {},
				"version": 1
			}
		}
	}
}