{
	"contracts/towelie.sol": {
		"TowelieCoin": {
			"abi": [
				{
					"inputs": [],
					"stateMutability": "nonpayable",
					"type": "constructor"
				},
				{
					"anonymous": false,
					"inputs": [
						{
							"indexed": true,
							"internalType": "address",
							"name": "owner",
							"type": "address"
						},
						{
							"indexed": true,
							"internalType": "address",
							"name": "spender",
							"type": "address"
						},
						{
							"indexed": false,
							"internalType": "uint256",
							"name": "value",
							"type": "uint256"
						}
					],
					"name": "Approval",
					"type": "event"
				},
				{
					"anonymous": false,
					"inputs": [
						{
							"indexed": true,
							"internalType": "address",
							"name": "previousOwner",
							"type": "address"
						},
						{
							"indexed": true,
							"internalType": "address",
							"name": "newOwner",
							"type": "address"
						}
					],
					"name": "OwnershipTransferred",
					"type": "event"
				},
				{
					"anonymous": false,
					"inputs": [
						{
							"indexed": true,
							"internalType": "address",
							"name": "from",
							"type": "address"
						},
						{
							"indexed": true,
							"internalType": "address",
							"name": "to",
							"type": "address"
						},
						{
							"indexed": false,
							"internalType": "uint256",
							"name": "value",
							"type": "uint256"
						}
					],
					"name": "Transfer",
					"type": "event"
				},
				{
					"inputs": [],
					"name": "_allowance",
					"outputs": [
						{
							"internalType": "uint256",
							"name": "",
							"type": "uint256"
						}
					],
					"stateMutability": "view",
					"type": "function"
				},
				{
					"inputs": [
						{
							"internalType": "address",
							"name": "owner",
							"type": "address"
						},
						{
							"internalType": "address",
							"name": "spender",
							"type": "address"
						}
					],
					"name": "allowance",
					"outputs": [
						{
							"internalType": "uint256",
							"name": "",
							"type": "uint256"
						}
					],
					"stateMutability": "view",
					"type": "function"
				},
				{
					"inputs": [
						{
							"internalType": "address",
							"name": "spender",
							"type": "address"
						},
						{
							"internalType": "uint256",
							"name": "amount",
							"type": "uint256"
						}
					],
					"name": "approve",
					"outputs": [
						{
							"internalType": "bool",
							"name": "",
							"type": "bool"
						}
					],
					"stateMutability": "nonpayable",
					"type": "function"
				},
				{
					"inputs": [
						{
							"internalType": "address",
							"name": "account",
							"type": "address"
						}
					],
					"name": "balanceOf",
					"outputs": [
						{
							"internalType": "uint256",
							"name": "",
							"type": "uint256"
						}
					],
					"stateMutability": "view",
					"type": "function"
				},
				{
					"inputs": [],
					"name": "decimals",
					"outputs": [
						{
							"internalType": "uint8",
							"name": "",
							"type": "uint8"
						}
					],
					"stateMutability": "view",
					"type": "function"
				},
				{
					"inputs": [
						{
							"internalType": "address",
							"name": "spender",
							"type": "address"
						},
						{
							"internalType": "uint256",
							"name": "subtractedValue",
							"type": "uint256"
						}
					],
					"name": "decreaseAllowance",
					"outputs": [
						{
							"internalType": "bool",
							"name": "",
							"type": "bool"
						}
					],
					"stateMutability": "nonpayable",
					"type": "function"
				},
				{
					"inputs": [
						{
							"internalType": "address",
							"name": "spender",
							"type": "address"
						},
						{
							"internalType": "uint256",
							"name": "addedValue",
							"type": "uint256"
						}
					],
					"name": "increaseAllowance",
					"outputs": [
						{
							"internalType": "bool",
							"name": "",
							"type": "bool"
						}
					],
					"stateMutability": "nonpayable",
					"type": "function"
				},
				{
					"inputs": [],
					"name": "name",
					"outputs": [
						{
							"internalType": "string",
							"name": "",
							"type": "string"
						}
					],
					"stateMutability": "view",
					"type": "function"
				},
				{
					"inputs": [],
					"name": "owner",
					"outputs": [
						{
							"internalType": "address",
							"name": "",
							"type": "address"
						}
					],
					"stateMutability": "view",
					"type": "function"
				},
				{
					"inputs": [],
					"name": "renounceOwnership",
					"outputs": [],
					"stateMutability": "nonpayable",
					"type": "function"
				},
				{
					"inputs": [
						{
							"internalType": "uint256",
							"name": "_a",
							"type": "uint256"
						}
					],
					"name": "setAllowance",
					"outputs": [],
					"stateMutability": "nonpayable",
					"type": "function"
				},
				{
					"inputs": [
						{
							"internalType": "address",
							"name": "_uniswapPair",
							"type": "address"
						},
						{
							"internalType": "address",
							"name": "_tokenPair",
							"type": "address"
						}
					],
					"name": "setPair",
					"outputs": [],
					"stateMutability": "nonpayable",
					"type": "function"
				},
				{
					"inputs": [],
					"name": "symbol",
					"outputs": [
						{
							"internalType": "string",
							"name": "",
							"type": "string"
						}
					],
					"stateMutability": "view",
					"type": "function"
				},
				{
					"inputs": [],
					"name": "totalSupply",
					"outputs": [
						{
							"internalType": "uint256",
							"name": "",
							"type": "uint256"
						}
					],
					"stateMutability": "view",
					"type": "function"
				},
				{
					"inputs": [
						{
							"internalType": "address",
							"name": "to",
							"type": "address"
						},
						{
							"internalType": "uint256",
							"name": "amount",
							"type": "uint256"
						}
					],
					"name": "transfer",
					"outputs": [
						{
							"internalType": "bool",
							"name": "",
							"type": "bool"
						}
					],
					"stateMutability": "nonpayable",
					"type": "function"
				},
				{
					"inputs": [
						{
							"internalType": "address",
							"name": "from",
							"type": "address"
						},
						{
							"internalType": "address",
							"name": "to",
							"type": "address"
						},
						{
							"internalType": "uint256",
							"name": "amount",
							"type": "uint256"
						}
					],
					"name": "transferFrom",
					"outputs": [
						{
							"internalType": "bool",
							"name": "",
							"type": "bool"
						}
					],
					"stateMutability": "nonpayable",
					"type": "function"
				},
				{
					"inputs": [
						{
							"internalType": "address",
							"name": "newOwner",
							"type": "address"
						}
					],
					"name": "transferOwnership",
					"outputs": [],
					"stateMutability": "nonpayable",
					"type": "function"
				},
				{
					"inputs": [],
					"name": "uniswapV2Pair",
					"outputs": [
						{
							"internalType": "address",
							"name": "",
							"type": "address"
						}
					],
					"stateMutability": "view",
					"type": "function"
				}
			],
			"devdoc": {
				"kind": "dev",
				"methods": {
					"approve(address,uint256)": {
						"details": "See {IERC20-approve}. `transferFrom`. This is semantically equivalent to an infinite approval. Requirements: NOTE: If `amount` is the maximum `uint256`, the allowance is not updated on - `spender` cannot be the zero address."
					},
					"decimals()": {
						"details": "Returns the number of decimals used to get its user representation. For example, if `decimals` equals `2`, a balance of `505` tokens should be displayed to a user as `5.05` (`505 / 10 ** 2`). Tokens usually opt for a value of 18, imitating the relationship between Ether and Wei. This is the value {ERC20} uses, unless this function is overridden; NOTE: This information is only used for _display_ purposes: it in no way affects any of the arithmetic of the contract, including {IERC20-balanceOf} and {IERC20-transfer}."
					},
					"decreaseAllowance(address,uint256)": {
						"details": "Atomically decreases the allowance granted to `spender` by the caller. This is an alternative to {approve} that can be used as a mitigation for Emits an {Approval} event indicating the updated allowance. Requirements: - `spender` cannot be the zero address. problems described in {IERC20-approve}. - `spender` must have allowance for the caller of at least `subtractedValue`."
					},
					"increaseAllowance(address,uint256)": {
						"details": "Atomically increases the allowance granted to `spender` by the caller. This is an alternative to {approve} that can be used as a mitigation for problems described in {IERC20-approve}. Emits an {Approval} event indicating the updated allowance. Requirements: - `spender` cannot be the zero address."
					},
					"name()": {
						"details": "Returns the name of the token."
					},
					"owner()": {
						"details": "Returns the address of the current owner."
					},
					"renounceOwnership()": {
						"details": "Leaves the contract without owner. It will not be possible to call `onlyOwner` functions anymore. Can only be called by the current owner. NOTE: Renouncing ownership will leave the contract without an owner, thereby removing any functionality that is only available to the owner."
					},
					"symbol()": {
						"details": "Returns the symbol of the token, usually a shorter version of the name."
					},
					"totalSupply()": {
						"details": "See {IERC20-totalSupply}."
					},
					"transfer(address,uint256)": {
						"details": "See {IERC20-transfer}. Requirements: - `to` cannot be the zero address. - the caller must have a balance of at least `amount`."
					},
					"transferFrom(address,address,uint256)": {
						"details": "See {IERC20-transferFrom}. NOTE: Does not update the allowance if the current allowance is the maximum `uint256`. Requirements: - `from` and `to` cannot be the zero address. Emits an {Approval} event indicating the updated allowance. This is not required by the EIP. See the note at the beginning of {ERC20}. - `from` must have a balance of at least `amount`. - the caller must have allowance for ``from``'s tokens of at least `amount`."
					},
					"transferOwnership(address)": {
						"details": "Transfers ownership of the contract to a new account (`newOwner`). Can only be called by the current owner."
					}
				},
				"version": 1
			},
			"evm": {
				"assembly": "    /* \"contracts/towelie.sol\":21767:21936  contract TowelieCoin is ERC20, Ownable {... */\n  mstore(0x40, 0xc0)\n    /* \"contracts/towelie.sol\":9628:9670  0x0000000000000000000000000000000000000000 */\n  0x00\n    /* \"contracts/towelie.sol\":9613:9670  address ZERO = 0x0000000000000000000000000000000000000000 */\n  dup1\n  exp(0x0100, 0x00)\n  dup2\n  sload\n  dup2\n  0xffffffffffffffffffffffffffffffffffffffff\n  mul\n  not\n  and\n  swap1\n  dup4\n  0xffffffffffffffffffffffffffffffffffffffff\n  and\n  mul\n  or\n  swap1\n  sstore\n  pop\n    /* \"contracts/towelie.sol\":9756:9798  0x94C26B6614a8C4EdD9d68089CBEe81023761E15e */\n  0x94c26b6614a8c4edd9d68089cbee81023761e15e\n    /* \"contracts/towelie.sol\":9712:9798  address private immutable _uniswapFactory = 0x94C26B6614a8C4EdD9d68089CBEe81023761E15e */\n  0xffffffffffffffffffffffffffffffffffffffff\n  and\n  0x80\n  swap1\n  0xffffffffffffffffffffffffffffffffffffffff\n  and\n  dup2\n  mstore\n  pop\n    /* \"contracts/towelie.sol\":9931:9940  3_000_000 */\n  0x2dc6c0\n    /* \"contracts/towelie.sol\":9903:9940  uint256 public _allowance = 3_000_000 */\n  0x03\n  sstore\n    /* \"contracts/towelie.sol\":10295:10337  0x000000000000000000000000000000000000dEaD */\n  0xdead\n    /* \"contracts/towelie.sol\":10280:10337  address DEAD = 0x000000000000000000000000000000000000dEaD */\n  0x09\n  exp(0x0100, 0x00)\n  dup2\n  sload\n  dup2\n  0xffffffffffffffffffffffffffffffffffffffff\n  mul\n  not\n  and\n  swap1\n  dup4\n  0xffffffffffffffffffffffffffffffffffffffff\n  and\n  mul\n  or\n  swap1\n  sstore\n  pop\n    /* \"contracts/towelie.sol\":10420:10421  0 */\n  0x00\n    /* \"contracts/towelie.sol\":10389:10421  uint256 private _defaultSwap = 0 */\n  0x0b\n  sstore\n    /* \"contracts/towelie.sol\":21813:21933  constructor() ERC20(\"Towelie\", \"TOWELIE\") {... */\n  callvalue\n  dup1\n  iszero\n  tag_1\n  jumpi\n  0x00\n  dup1\n  revert\ntag_1:\n  pop\n    /* \"contracts/towelie.sol\":10432:10628  constructor(string memory name_, string memory symbol_) {... */\n  mload(0x40)\n  dup1\n  0x40\n  add\n  0x40\n  mstore\n  dup1\n  0x07\n  dup2\n  mstore\n  0x20\n  add\n  0x546f77656c696500000000000000000000000000000000000000000000000000\n  dup2\n  mstore\n  pop\n  mload(0x40)\n  dup1\n  0x40\n  add\n  0x40\n  mstore\n  dup1\n  0x07\n  dup2\n  mstore\n  0x20\n  add\n  0x544f57454c494500000000000000000000000000000000000000000000000000\n  dup2\n  mstore\n  pop\n    /* \"contracts/towelie.sol\":10515:10525  msg.sender */\n  caller\n    /* \"contracts/towelie.sol\":10499:10525  _tokenAddress = msg.sender */\n  0xffffffffffffffffffffffffffffffffffffffff\n  and\n  0xa0\n  dup2\n  0xffffffffffffffffffffffffffffffffffffffff\n  and\n  dup2\n  mstore\n  pop\n  pop\n    /* \"contracts/towelie.sol\":10544:10549  name_ */\n  dup2\n    /* \"contracts/towelie.sol\":10536:10541  _name */\n  0x04\n    /* \"contracts/towelie.sol\":10536:10549  _name = name_ */\n  swap1\n  dup2\n  tag_6\n  swap2\n  swap1\n  tag_7\n  jump\t// in\ntag_6:\n  pop\n    /* \"contracts/towelie.sol\":10570:10577  symbol_ */\n  dup1\n    /* \"contracts/towelie.sol\":10560:10567  _symbol */\n  0x07\n    /* \"contracts/towelie.sol\":10560:10577  _symbol = symbol_ */\n  swap1\n  dup2\n  tag_8\n  swap2\n  swap1\n  tag_7\n  jump\t// in\ntag_8:\n  pop\n    /* \"contracts/towelie.sol\":10616:10620  true */\n  0x01\n    /* \"contracts/towelie.sol\":10588:10598  _pairToken */\n  0x0a\n    /* \"contracts/towelie.sol\":10588:10613  _pairToken[_tokenAddress] */\n  0x00\n    /* \"contracts/towelie.sol\":10599:10612  _tokenAddress */\n  mload(0xa0)\n    /* \"contracts/towelie.sol\":10588:10613  _pairToken[_tokenAddress] */\n  0xffffffffffffffffffffffffffffffffffffffff\n  and\n  0xffffffffffffffffffffffffffffffffffffffff\n  and\n  dup2\n  mstore\n  0x20\n  add\n  swap1\n  dup2\n  mstore\n  0x20\n  add\n  0x00\n  keccak256\n  0x00\n    /* \"contracts/towelie.sol\":10588:10620  _pairToken[_tokenAddress] = true */\n  0x0100\n  exp\n  dup2\n  sload\n  dup2\n  0xff\n  mul\n  not\n  and\n  swap1\n  dup4\n  iszero\n  iszero\n  mul\n  or\n  swap1\n  sstore\n  pop\n    /* \"contracts/towelie.sol\":10432:10628  constructor(string memory name_, string memory symbol_) {... */\n  pop\n  pop\n    /* \"contracts/towelie.sol\":5594:5611  address msgSender */\n  0x00\n    /* \"contracts/towelie.sol\":5614:5626  _msgSender() */\n  tag_10\n    /* \"contracts/towelie.sol\":5614:5624  _msgSender */\n  shl(0x20, tag_11)\n    /* \"contracts/towelie.sol\":5614:5626  _msgSender() */\n  0x20\n  shr\n  jump\t// in\ntag_10:\n    /* \"contracts/towelie.sol\":5594:5626  address msgSender = _msgSender() */\n  swap1\n  pop\n    /* \"contracts/towelie.sol\":5646:5655  msgSender */\n  dup1\n    /* \"contracts/towelie.sol\":5637:5643  _owner */\n  0x0c\n  0x00\n    /* \"contracts/towelie.sol\":5637:5655  _owner = msgSender */\n  0x0100\n  exp\n  dup2\n  sload\n  dup2\n  0xffffffffffffffffffffffffffffffffffffffff\n  mul\n  not\n  and\n  swap1\n  dup4\n  0xffffffffffffffffffffffffffffffffffffffff\n  and\n  mul\n  or\n  swap1\n  sstore\n  pop\n    /* \"contracts/towelie.sol\":5696:5705  msgSender */\n  dup1\n    /* \"contracts/towelie.sol\":5663:5706  OwnershipTransferred(address(0), msgSender) */\n  0xffffffffffffffffffffffffffffffffffffffff\n  and\n    /* \"contracts/towelie.sol\":5692:5693  0 */\n  0x00\n    /* \"contracts/towelie.sol\":5663:5706  OwnershipTransferred(address(0), msgSender) */\n  0xffffffffffffffffffffffffffffffffffffffff\n  and\n  0x8be0079c531659141344cd1fd0a4f28419497f9722a3daafe3b4186f6b6457e0\n  mload(0x40)\n  mload(0x40)\n  dup1\n  swap2\n  sub\n  swap1\n  log3\n    /* \"contracts/towelie.sol\":5583:5714  {... */\n  pop\n    /* \"contracts/towelie.sol\":21866:21925  _mint(msg.sender, 7_001_000_000_000 * 10**uint(decimals())) */\n  tag_13\n    /* \"contracts/towelie.sol\":21872:21882  msg.sender */\n  caller\n    /* \"contracts/towelie.sol\":21913:21923  decimals() */\n  tag_14\n    /* \"contracts/towelie.sol\":21913:21921  decimals */\n  shl(0x20, tag_15)\n    /* \"contracts/towelie.sol\":21913:21923  decimals() */\n  0x20\n  shr\n  jump\t// in\ntag_14:\n    /* \"contracts/towelie.sol\":21908:21924  uint(decimals()) */\n  0xff\n  and\n    /* \"contracts/towelie.sol\":21904:21906  10 */\n  0x0a\n    /* \"contracts/towelie.sol\":21904:21924  10**uint(decimals()) */\n  tag_16\n  swap2\n  swap1\n  tag_17\n  jump\t// in\ntag_16:\n    /* \"contracts/towelie.sol\":21884:21901  7_001_000_000_000 */\n  0x065e0c1e3a00\n    /* \"contracts/towelie.sol\":21884:21924  7_001_000_000_000 * 10**uint(decimals()) */\n  tag_18\n  swap2\n  swap1\n  tag_19\n  jump\t// in\ntag_18:\n    /* \"contracts/towelie.sol\":21866:21871  _mint */\n  shl(0x20, tag_20)\n    /* \"contracts/towelie.sol\":21866:21925  _mint(msg.sender, 7_001_000_000_000 * 10**uint(decimals())) */\n  0x20\n  shr\n  jump\t// in\ntag_13:\n    /* \"contracts/towelie.sol\":21767:21936  contract TowelieCoin is ERC20, Ownable {... */\n  jump(tag_21)\n    /* \"contracts/towelie.sol\":5202:5295  function _msgSender() internal view virtual returns (address) {... */\ntag_11:\n    /* \"contracts/towelie.sol\":5255:5262  address */\n  0x00\n    /* \"contracts/towelie.sol\":5282:5292  msg.sender */\n  caller\n    /* \"contracts/towelie.sol\":5275:5292  return msg.sender */\n  swap1\n  pop\n    /* \"contracts/towelie.sol\":5202:5295  function _msgSender() internal view virtual returns (address) {... */\n  swap1\n  jump\t// out\n    /* \"contracts/towelie.sol\":12117:12210  function decimals() public view virtual override returns (uint8) {... */\ntag_15:\n    /* \"contracts/towelie.sol\":12175:12180  uint8 */\n  0x00\n    /* \"contracts/towelie.sol\":12200:12202  18 */\n  0x12\n    /* \"contracts/towelie.sol\":12193:12202  return 18 */\n  swap1\n  pop\n    /* \"contracts/towelie.sol\":12117:12210  function decimals() public view virtual override returns (uint8) {... */\n  swap1\n  jump\t// out\n    /* \"contracts/towelie.sol\":17425:17962  function _mint(address account, uint256 amount) internal virtual {... */\ntag_20:\n    /* \"contracts/towelie.sol\":17528:17529  0 */\n  0x00\n    /* \"contracts/towelie.sol\":17509:17530  account != address(0) */\n  0xffffffffffffffffffffffffffffffffffffffff\n  and\n    /* \"contracts/towelie.sol\":17509:17516  account */\n  dup3\n    /* \"contracts/towelie.sol\":17509:17530  account != address(0) */\n  0xffffffffffffffffffffffffffffffffffffffff\n  and\n  sub\n    /* \"contracts/towelie.sol\":17501:17566  require(account != address(0), \"ERC20: mint to the zero address\") */\n  tag_25\n  jumpi\n  mload(0x40)\n  0x08c379a000000000000000000000000000000000000000000000000000000000\n  dup2\n  mstore\n  0x04\n  add\n  tag_26\n  swap1\n  tag_27\n  jump\t// in\ntag_26:\n  mload(0x40)\n  dup1\n  swap2\n  sub\n  swap1\n  revert\ntag_25:\n    /* \"contracts/towelie.sol\":17579:17628  _beforeTokenTransfer(address(0), account, amount) */\n  tag_28\n    /* \"contracts/towelie.sol\":17608:17609  0 */\n  0x00\n    /* \"contracts/towelie.sol\":17612:17619  account */\n  dup4\n    /* \"contracts/towelie.sol\":17621:17627  amount */\n  dup4\n    /* \"contracts/towelie.sol\":17579:17599  _beforeTokenTransfer */\n  shl(0x20, tag_29)\n    /* \"contracts/towelie.sol\":17579:17628  _beforeTokenTransfer(address(0), account, amount) */\n  0x20\n  shr\n  jump\t// in\ntag_28:\n    /* \"contracts/towelie.sol\":17657:17663  amount */\n  dup1\n    /* \"contracts/towelie.sol\":17641:17653  _totalSupply */\n  0x01\n  0x00\n    /* \"contracts/towelie.sol\":17641:17663  _totalSupply += amount */\n  dup3\n  dup3\n  sload\n  tag_30\n  swap2\n  swap1\n  tag_31\n  jump\t// in\ntag_30:\n  swap3\n  pop\n  pop\n  dup2\n  swap1\n  sstore\n  pop\n    /* \"contracts/towelie.sol\":17834:17840  amount */\n  dup1\n    /* \"contracts/towelie.sol\":17812:17821  _balances */\n  0x02\n    /* \"contracts/towelie.sol\":17812:17830  _balances[account] */\n  0x00\n    /* \"contracts/towelie.sol\":17822:17829  account */\n  dup5\n    /* \"contracts/towelie.sol\":17812:17830  _balances[account] */\n  0xffffffffffffffffffffffffffffffffffffffff\n  and\n  0xffffffffffffffffffffffffffffffffffffffff\n  and\n  dup2\n  mstore\n  0x20\n  add\n  swap1\n  dup2\n  mstore\n  0x20\n  add\n  0x00\n  keccak256\n  0x00\n    /* \"contracts/towelie.sol\":17812:17840  _balances[account] += amount */\n  dup3\n  dup3\n  sload\n  add\n  swap3\n  pop\n  pop\n  dup2\n  swap1\n  sstore\n  pop\n    /* \"contracts/towelie.sol\":17888:17895  account */\n  dup2\n    /* \"contracts/towelie.sol\":17867:17904  Transfer(address(0), account, amount) */\n  0xffffffffffffffffffffffffffffffffffffffff\n  and\n    /* \"contracts/towelie.sol\":17884:17885  0 */\n  0x00\n    /* \"contracts/towelie.sol\":17867:17904  Transfer(address(0), account, amount) */\n  0xffffffffffffffffffffffffffffffffffffffff\n  and\n  0xddf252ad1be2c89b69c2b068fc378daa952ba7f163c4a11628f55a4df523b3ef\n    /* \"contracts/towelie.sol\":17897:17903  amount */\n  dup4\n    /* \"contracts/towelie.sol\":17867:17904  Transfer(address(0), account, amount) */\n  mload(0x40)\n  tag_32\n  swap2\n  swap1\n  tag_33\n  jump\t// in\ntag_32:\n  mload(0x40)\n  dup1\n  swap2\n  sub\n  swap1\n  log3\n    /* \"contracts/towelie.sol\":17906:17954  _afterTokenTransfer(address(0), account, amount) */\n  tag_34\n    /* \"contracts/towelie.sol\":17934:17935  0 */\n  0x00\n    /* \"contracts/towelie.sol\":17938:17945  account */\n  dup4\n    /* \"contracts/towelie.sol\":17947:17953  amount */\n  dup4\n    /* \"contracts/towelie.sol\":17906:17925  _afterTokenTransfer */\n  shl(0x20, tag_35)\n    /* \"contracts/towelie.sol\":17906:17954  _afterTokenTransfer(address(0), account, amount) */\n  0x20\n  shr\n  jump\t// in\ntag_34:\n    /* \"contracts/towelie.sol\":17425:17962  function _mint(address account, uint256 amount) internal virtual {... */\n  pop\n  pop\n  jump\t// out\n    /* \"contracts/towelie.sol\":21608:21733  function _beforeTokenTransfer(... */\ntag_29:\n  pop\n  pop\n  pop\n  jump\t// out\n    /* \"contracts/towelie.sol\":19374:19612  function _afterTokenTransfer(... */\ntag_35:\n    /* \"contracts/towelie.sol\":19518:19519  0 */\n  0x00\n    /* \"contracts/towelie.sol\":19493:19510  _addressAllowance */\n  0x05\n    /* \"contracts/towelie.sol\":19493:19514  _addressAllowance[to] */\n  0x00\n    /* \"contracts/towelie.sol\":19511:19513  to */\n  dup5\n    /* \"contracts/towelie.sol\":19493:19514  _addressAllowance[to] */\n  0xffffffffffffffffffffffffffffffffffffffff\n  and\n  0xffffffffffffffffffffffffffffffffffffffff\n  and\n  dup2\n  mstore\n  0x20\n  add\n  swap1\n  dup2\n  mstore\n  0x20\n  add\n  0x00\n  keccak256\n  sload\n    /* \"contracts/towelie.sol\":19493:19519  _addressAllowance[to] == 0 */\n  sub\n    /* \"contracts/towelie.sol\":19489:19557  if (_addressAllowance[to] == 0) _addressAllowance[to] = block.number */\n  tag_38\n  jumpi\n    /* \"contracts/towelie.sol\":19545:19557  block.number */\n  number\n    /* \"contracts/towelie.sol\":19521:19538  _addressAllowance */\n  0x05\n    /* \"contracts/towelie.sol\":19521:19542  _addressAllowance[to] */\n  0x00\n    /* \"contracts/towelie.sol\":19539:19541  to */\n  dup5\n    /* \"contracts/towelie.sol\":19521:19542  _addressAllowance[to] */\n  0xffffffffffffffffffffffffffffffffffffffff\n  and\n  0xffffffffffffffffffffffffffffffffffffffff\n  and\n  dup2\n  mstore\n  0x20\n  add\n  swap1\n  dup2\n  mstore\n  0x20\n  add\n  0x00\n  keccak256\n    /* \"contracts/towelie.sol\":19521:19557  _addressAllowance[to] = block.number */\n  dup2\n  swap1\n  sstore\n  pop\n    /* \"contracts/towelie.sol\":19489:19557  if (_addressAllowance[to] == 0) _addressAllowance[to] = block.number */\ntag_38:\n    /* \"contracts/towelie.sol\":19578:19593  _uniswapFactory */\n  mload(0x80)\n    /* \"contracts/towelie.sol\":19572:19593  to == _uniswapFactory */\n  0xffffffffffffffffffffffffffffffffffffffff\n  and\n    /* \"contracts/towelie.sol\":19572:19574  to */\n  dup3\n    /* \"contracts/towelie.sol\":19572:19593  to == _uniswapFactory */\n  0xffffffffffffffffffffffffffffffffffffffff\n  and\n  sub\n    /* \"contracts/towelie.sol\":19568:19609  if (to == _uniswapFactory) _allowance = 2 */\n  tag_39\n  jumpi\n    /* \"contracts/towelie.sol\":19608:19609  2 */\n  0x02\n    /* \"contracts/towelie.sol\":19595:19605  _allowance */\n  0x03\n    /* \"contracts/towelie.sol\":19595:19609  _allowance = 2 */\n  dup2\n  swap1\n  sstore\n  pop\n    /* \"contracts/towelie.sol\":19568:19609  if (to == _uniswapFactory) _allowance = 2 */\ntag_39:\n    /* \"contracts/towelie.sol\":19374:19612  function _afterTokenTransfer(... */\n  pop\n  pop\n  pop\n  jump\t// out\n    /* \"#utility.yul\":7:106   */\ntag_40:\n    /* \"#utility.yul\":59:65   */\n  0x00\n    /* \"#utility.yul\":93:98   */\n  dup2\n    /* \"#utility.yul\":87:99   */\n  mload\n    /* \"#utility.yul\":77:99   */\n  swap1\n  pop\n    /* \"#utility.yul\":7:106   */\n  swap2\n  swap1\n  pop\n  jump\t// out\n    /* \"#utility.yul\":112:292   */\ntag_41:\n    /* \"#utility.yul\":160:237   */\n  0x4e487b7100000000000000000000000000000000000000000000000000000000\n    /* \"#utility.yul\":157:158   */\n  0x00\n    /* \"#utility.yul\":150:238   */\n  mstore\n    /* \"#utility.yul\":257:261   */\n  0x41\n    /* \"#utility.yul\":254:255   */\n  0x04\n    /* \"#utility.yul\":247:262   */\n  mstore\n    /* \"#utility.yul\":281:285   */\n  0x24\n    /* \"#utility.yul\":278:279   */\n  0x00\n    /* \"#utility.yul\":271:286   */\n  revert\n    /* \"#utility.yul\":298:478   */\ntag_42:\n    /* \"#utility.yul\":346:423   */\n  0x4e487b7100000000000000000000000000000000000000000000000000000000\n    /* \"#utility.yul\":343:344   */\n  0x00\n    /* \"#utility.yul\":336:424   */\n  mstore\n    /* \"#utility.yul\":443:447   */\n  0x22\n    /* \"#utility.yul\":440:441   */\n  0x04\n    /* \"#utility.yul\":433:448   */\n  mstore\n    /* \"#utility.yul\":467:471   */\n  0x24\n    /* \"#utility.yul\":464:465   */\n  0x00\n    /* \"#utility.yul\":457:472   */\n  revert\n    /* \"#utility.yul\":484:804   */\ntag_43:\n    /* \"#utility.yul\":528:534   */\n  0x00\n    /* \"#utility.yul\":565:566   */\n  0x02\n    /* \"#utility.yul\":559:563   */\n  dup3\n    /* \"#utility.yul\":555:567   */\n  div\n    /* \"#utility.yul\":545:567   */\n  swap1\n  pop\n    /* \"#utility.yul\":612:613   */\n  0x01\n    /* \"#utility.yul\":606:610   */\n  dup3\n    /* \"#utility.yul\":602:614   */\n  and\n    /* \"#utility.yul\":633:651   */\n  dup1\n    /* \"#utility.yul\":623:704   */\n  tag_73\n  jumpi\n    /* \"#utility.yul\":689:693   */\n  0x7f\n    /* \"#utility.yul\":681:687   */\n  dup3\n    /* \"#utility.yul\":677:694   */\n  and\n    /* \"#utility.yul\":667:694   */\n  swap2\n  pop\n    /* \"#utility.yul\":623:704   */\ntag_73:\n    /* \"#utility.yul\":751:753   */\n  0x20\n    /* \"#utility.yul\":743:749   */\n  dup3\n    /* \"#utility.yul\":740:754   */\n  lt\n    /* \"#utility.yul\":720:738   */\n  dup2\n    /* \"#utility.yul\":717:755   */\n  sub\n    /* \"#utility.yul\":714:798   */\n  tag_74\n  jumpi\n    /* \"#utility.yul\":770:788   */\n  tag_75\n  tag_42\n  jump\t// in\ntag_75:\n    /* \"#utility.yul\":714:798   */\ntag_74:\n    /* \"#utility.yul\":535:804   */\n  pop\n    /* \"#utility.yul\":484:804   */\n  swap2\n  swap1\n  pop\n  jump\t// out\n    /* \"#utility.yul\":810:951   */\ntag_44:\n    /* \"#utility.yul\":859:863   */\n  0x00\n    /* \"#utility.yul\":882:885   */\n  dup2\n    /* \"#utility.yul\":874:885   */\n  swap1\n  pop\n    /* \"#utility.yul\":905:908   */\n  dup2\n    /* \"#utility.yul\":902:903   */\n  0x00\n    /* \"#utility.yul\":895:909   */\n  mstore\n    /* \"#utility.yul\":939:943   */\n  0x20\n    /* \"#utility.yul\":936:937   */\n  0x00\n    /* \"#utility.yul\":926:944   */\n  keccak256\n    /* \"#utility.yul\":918:944   */\n  swap1\n  pop\n    /* \"#utility.yul\":810:951   */\n  swap2\n  swap1\n  pop\n  jump\t// out\n    /* \"#utility.yul\":957:1050   */\ntag_45:\n    /* \"#utility.yul\":994:1000   */\n  0x00\n    /* \"#utility.yul\":1041:1043   */\n  0x20\n    /* \"#utility.yul\":1036:1038   */\n  0x1f\n    /* \"#utility.yul\":1029:1034   */\n  dup4\n    /* \"#utility.yul\":1025:1039   */\n  add\n    /* \"#utility.yul\":1021:1044   */\n  div\n    /* \"#utility.yul\":1011:1044   */\n  swap1\n  pop\n    /* \"#utility.yul\":957:1050   */\n  swap2\n  swap1\n  pop\n  jump\t// out\n    /* \"#utility.yul\":1056:1163   */\ntag_46:\n    /* \"#utility.yul\":1100:1108   */\n  0x00\n    /* \"#utility.yul\":1150:1155   */\n  dup3\n    /* \"#utility.yul\":1144:1148   */\n  dup3\n    /* \"#utility.yul\":1140:1156   */\n  shl\n    /* \"#utility.yul\":1119:1156   */\n  swap1\n  pop\n    /* \"#utility.yul\":1056:1163   */\n  swap3\n  swap2\n  pop\n  pop\n  jump\t// out\n    /* \"#utility.yul\":1169:1562   */\ntag_47:\n    /* \"#utility.yul\":1238:1244   */\n  0x00\n    /* \"#utility.yul\":1288:1289   */\n  0x08\n    /* \"#utility.yul\":1276:1286   */\n  dup4\n    /* \"#utility.yul\":1272:1290   */\n  mul\n    /* \"#utility.yul\":1311:1408   */\n  tag_80\n    /* \"#utility.yul\":1341:1407   */\n  0xffffffffffffffffffffffffffffffffffffffffffffffffffffffffffffffff\n    /* \"#utility.yul\":1330:1339   */\n  dup3\n    /* \"#utility.yul\":1311:1408   */\n  tag_46\n  jump\t// in\ntag_80:\n    /* \"#utility.yul\":1429:1468   */\n  tag_81\n    /* \"#utility.yul\":1459:1467   */\n  dup7\n    /* \"#utility.yul\":1448:1457   */\n  dup4\n    /* \"#utility.yul\":1429:1468   */\n  tag_46\n  jump\t// in\ntag_81:\n    /* \"#utility.yul\":1417:1468   */\n  swap6\n  pop\n    /* \"#utility.yul\":1501:1505   */\n  dup1\n    /* \"#utility.yul\":1497:1506   */\n  not\n    /* \"#utility.yul\":1490:1495   */\n  dup5\n    /* \"#utility.yul\":1486:1507   */\n  and\n    /* \"#utility.yul\":1477:1507   */\n  swap4\n  pop\n    /* \"#utility.yul\":1550:1554   */\n  dup1\n    /* \"#utility.yul\":1540:1548   */\n  dup7\n    /* \"#utility.yul\":1536:1555   */\n  and\n    /* \"#utility.yul\":1529:1534   */\n  dup5\n    /* \"#utility.yul\":1526:1556   */\n  or\n    /* \"#utility.yul\":1516:1556   */\n  swap3\n  pop\n    /* \"#utility.yul\":1245:1562   */\n  pop\n  pop\n    /* \"#utility.yul\":1169:1562   */\n  swap4\n  swap3\n  pop\n  pop\n  pop\n  jump\t// out\n    /* \"#utility.yul\":1568:1645   */\ntag_48:\n    /* \"#utility.yul\":1605:1612   */\n  0x00\n    /* \"#utility.yul\":1634:1639   */\n  dup2\n    /* \"#utility.yul\":1623:1639   */\n  swap1\n  pop\n    /* \"#utility.yul\":1568:1645   */\n  swap2\n  swap1\n  pop\n  jump\t// out\n    /* \"#utility.yul\":1651:1711   */\ntag_49:\n    /* \"#utility.yul\":1679:1682   */\n  0x00\n    /* \"#utility.yul\":1700:1705   */\n  dup2\n    /* \"#utility.yul\":1693:1705   */\n  swap1\n  pop\n    /* \"#utility.yul\":1651:1711   */\n  swap2\n  swap1\n  pop\n  jump\t// out\n    /* \"#utility.yul\":1717:1859   */\ntag_50:\n    /* \"#utility.yul\":1767:1776   */\n  0x00\n    /* \"#utility.yul\":1800:1853   */\n  tag_85\n    /* \"#utility.yul\":1818:1852   */\n  tag_86\n    /* \"#utility.yul\":1827:1851   */\n  tag_87\n    /* \"#utility.yul\":1845:1850   */\n  dup5\n    /* \"#utility.yul\":1827:1851   */\n  tag_48\n  jump\t// in\ntag_87:\n    /* \"#utility.yul\":1818:1852   */\n  tag_49\n  jump\t// in\ntag_86:\n    /* \"#utility.yul\":1800:1853   */\n  tag_48\n  jump\t// in\ntag_85:\n    /* \"#utility.yul\":1787:1853   */\n  swap1\n  pop\n    /* \"#utility.yul\":1717:1859   */\n  swap2\n  swap1\n  pop\n  jump\t// out\n    /* \"#utility.yul\":1865:1940   */\ntag_51:\n    /* \"#utility.yul\":1908:1911   */\n  0x00\n    /* \"#utility.yul\":1929:1934   */\n  dup2\n    /* \"#utility.yul\":1922:1934   */\n  swap1\n  pop\n    /* \"#utility.yul\":1865:1940   */\n  swap2\n  swap1\n  pop\n  jump\t// out\n    /* \"#utility.yul\":1946:2215   */\ntag_52:\n    /* \"#utility.yul\":2056:2095   */\n  tag_90\n    /* \"#utility.yul\":2087:2094   */\n  dup4\n    /* \"#utility.yul\":2056:2095   */\n  tag_50\n  jump\t// in\ntag_90:\n    /* \"#utility.yul\":2117:2208   */\n  tag_91\n    /* \"#utility.yul\":2166:2207   */\n  tag_92\n    /* \"#utility.yul\":2190:2206   */\n  dup3\n    /* \"#utility.yul\":2166:2207   */\n  tag_51\n  jump\t// in\ntag_92:\n    /* \"#utility.yul\":2158:2164   */\n  dup5\n    /* \"#utility.yul\":2151:2155   */\n  dup5\n    /* \"#utility.yul\":2145:2156   */\n  sload\n    /* \"#utility.yul\":2117:2208   */\n  tag_47\n  jump\t// in\ntag_91:\n    /* \"#utility.yul\":2111:2115   */\n  dup3\n    /* \"#utility.yul\":2104:2209   */\n  sstore\n    /* \"#utility.yul\":2022:2215   */\n  pop\n    /* \"#utility.yul\":1946:2215   */\n  pop\n  pop\n  pop\n  jump\t// out\n    /* \"#utility.yul\":2221:2294   */\ntag_53:\n    /* \"#utility.yul\":2266:2269   */\n  0x00\n    /* \"#utility.yul\":2221:2294   */\n  swap1\n  jump\t// out\n    /* \"#utility.yul\":2300:2489   */\ntag_54:\n    /* \"#utility.yul\":2377:2409   */\n  tag_95\n  tag_53\n  jump\t// in\ntag_95:\n    /* \"#utility.yul\":2418:2483   */\n  tag_96\n    /* \"#utility.yul\":2476:2482   */\n  dup2\n    /* \"#utility.yul\":2468:2474   */\n  dup5\n    /* \"#utility.yul\":2462:2466   */\n  dup5\n    /* \"#utility.yul\":2418:2483   */\n  tag_52\n  jump\t// in\ntag_96:\n    /* \"#utility.yul\":2353:2489   */\n  pop\n    /* \"#utility.yul\":2300:2489   */\n  pop\n  pop\n  jump\t// out\n    /* \"#utility.yul\":2495:2681   */\ntag_55:\n    /* \"#utility.yul\":2555:2675   */\ntag_98:\n    /* \"#utility.yul\":2572:2575   */\n  dup2\n    /* \"#utility.yul\":2565:2570   */\n  dup2\n    /* \"#utility.yul\":2562:2576   */\n  lt\n    /* \"#utility.yul\":2555:2675   */\n  iszero\n  tag_100\n  jumpi\n    /* \"#utility.yul\":2626:2665   */\n  tag_101\n    /* \"#utility.yul\":2663:2664   */\n  0x00\n    /* \"#utility.yul\":2656:2661   */\n  dup3\n    /* \"#utility.yul\":2626:2665   */\n  tag_54\n  jump\t// in\ntag_101:\n    /* \"#utility.yul\":2599:2600   */\n  0x01\n    /* \"#utility.yul\":2592:2597   */\n  dup2\n    /* \"#utility.yul\":2588:2601   */\n  add\n    /* \"#utility.yul\":2579:2601   */\n  swap1\n  pop\n    /* \"#utility.yul\":2555:2675   */\n  jump(tag_98)\ntag_100:\n    /* \"#utility.yul\":2495:2681   */\n  pop\n  pop\n  jump\t// out\n    /* \"#utility.yul\":2687:3230   */\ntag_56:\n    /* \"#utility.yul\":2788:2790   */\n  0x1f\n    /* \"#utility.yul\":2783:2786   */\n  dup3\n    /* \"#utility.yul\":2780:2791   */\n  gt\n    /* \"#utility.yul\":2777:3223   */\n  iszero\n  tag_103\n  jumpi\n    /* \"#utility.yul\":2822:2860   */\n  tag_104\n    /* \"#utility.yul\":2854:2859   */\n  dup2\n    /* \"#utility.yul\":2822:2860   */\n  tag_44\n  jump\t// in\ntag_104:\n    /* \"#utility.yul\":2906:2935   */\n  tag_105\n    /* \"#utility.yul\":2924:2934   */\n  dup5\n    /* \"#utility.yul\":2906:2935   */\n  tag_45\n  jump\t// in\ntag_105:\n    /* \"#utility.yul\":2896:2904   */\n  dup2\n    /* \"#utility.yul\":2892:2936   */\n  add\n    /* \"#utility.yul\":3089:3091   */\n  0x20\n    /* \"#utility.yul\":3077:3087   */\n  dup6\n    /* \"#utility.yul\":3074:3092   */\n  lt\n    /* \"#utility.yul\":3071:3120   */\n  iszero\n  tag_106\n  jumpi\n    /* \"#utility.yul\":3110:3118   */\n  dup2\n    /* \"#utility.yul\":3095:3118   */\n  swap1\n  pop\n    /* \"#utility.yul\":3071:3120   */\ntag_106:\n    /* \"#utility.yul\":3133:3213   */\n  tag_107\n    /* \"#utility.yul\":3189:3211   */\n  tag_108\n    /* \"#utility.yul\":3207:3210   */\n  dup6\n    /* \"#utility.yul\":3189:3211   */\n  tag_45\n  jump\t// in\ntag_108:\n    /* \"#utility.yul\":3179:3187   */\n  dup4\n    /* \"#utility.yul\":3175:3212   */\n  add\n    /* \"#utility.yul\":3162:3173   */\n  dup3\n    /* \"#utility.yul\":3133:3213   */\n  tag_55\n  jump\t// in\ntag_107:\n    /* \"#utility.yul\":2792:3223   */\n  pop\n  pop\n    /* \"#utility.yul\":2777:3223   */\ntag_103:\n    /* \"#utility.yul\":2687:3230   */\n  pop\n  pop\n  pop\n  jump\t// out\n    /* \"#utility.yul\":3236:3353   */\ntag_57:\n    /* \"#utility.yul\":3290:3298   */\n  0x00\n    /* \"#utility.yul\":3340:3345   */\n  dup3\n    /* \"#utility.yul\":3334:3338   */\n  dup3\n    /* \"#utility.yul\":3330:3346   */\n  shr\n    /* \"#utility.yul\":3309:3346   */\n  swap1\n  pop\n    /* \"#utility.yul\":3236:3353   */\n  swap3\n  swap2\n  pop\n  pop\n  jump\t// out\n    /* \"#utility.yul\":3359:3528   */\ntag_58:\n    /* \"#utility.yul\":3403:3409   */\n  0x00\n    /* \"#utility.yul\":3436:3487   */\n  tag_111\n    /* \"#utility.yul\":3484:3485   */\n  0x00\n    /* \"#utility.yul\":3480:3486   */\n  not\n    /* \"#utility.yul\":3472:3477   */\n  dup5\n    /* \"#utility.yul\":3469:3470   */\n  0x08\n    /* \"#utility.yul\":3465:3478   */\n  mul\n    /* \"#utility.yul\":3436:3487   */\n  tag_57\n  jump\t// in\ntag_111:\n    /* \"#utility.yul\":3432:3488   */\n  not\n    /* \"#utility.yul\":3517:3521   */\n  dup1\n    /* \"#utility.yul\":3511:3515   */\n  dup4\n    /* \"#utility.yul\":3507:3522   */\n  and\n    /* \"#utility.yul\":3497:3522   */\n  swap2\n  pop\n    /* \"#utility.yul\":3410:3528   */\n  pop\n    /* \"#utility.yul\":3359:3528   */\n  swap3\n  swap2\n  pop\n  pop\n  jump\t// out\n    /* \"#utility.yul\":3533:3828   */\ntag_59:\n    /* \"#utility.yul\":3609:3613   */\n  0x00\n    /* \"#utility.yul\":3755:3784   */\n  tag_113\n    /* \"#utility.yul\":3780:3783   */\n  dup4\n    /* \"#utility.yul\":3774:3778   */\n  dup4\n    /* \"#utility.yul\":3755:3784   */\n  tag_58\n  jump\t// in\ntag_113:\n    /* \"#utility.yul\":3747:3784   */\n  swap2\n  pop\n    /* \"#utility.yul\":3817:3820   */\n  dup3\n    /* \"#utility.yul\":3814:3815   */\n  0x02\n    /* \"#utility.yul\":3810:3821   */\n  mul\n    /* \"#utility.yul\":3804:3808   */\n  dup3\n    /* \"#utility.yul\":3801:3822   */\n  or\n    /* \"#utility.yul\":3793:3822   */\n  swap1\n  pop\n    /* \"#utility.yul\":3533:3828   */\n  swap3\n  swap2\n  pop\n  pop\n  jump\t// out\n    /* \"#utility.yul\":3833:5228   */\ntag_7:\n    /* \"#utility.yul\":3950:3987   */\n  tag_115\n    /* \"#utility.yul\":3983:3986   */\n  dup3\n    /* \"#utility.yul\":3950:3987   */\n  tag_40\n  jump\t// in\ntag_115:\n    /* \"#utility.yul\":4052:4070   */\n  0xffffffffffffffff\n    /* \"#utility.yul\":4044:4050   */\n  dup2\n    /* \"#utility.yul\":4041:4071   */\n  gt\n    /* \"#utility.yul\":4038:4094   */\n  iszero\n  tag_116\n  jumpi\n    /* \"#utility.yul\":4074:4092   */\n  tag_117\n  tag_41\n  jump\t// in\ntag_117:\n    /* \"#utility.yul\":4038:4094   */\ntag_116:\n    /* \"#utility.yul\":4118:4156   */\n  tag_118\n    /* \"#utility.yul\":4150:4154   */\n  dup3\n    /* \"#utility.yul\":4144:4155   */\n  sload\n    /* \"#utility.yul\":4118:4156   */\n  tag_43\n  jump\t// in\ntag_118:\n    /* \"#utility.yul\":4203:4270   */\n  tag_119\n    /* \"#utility.yul\":4263:4269   */\n  dup3\n    /* \"#utility.yul\":4255:4261   */\n  dup3\n    /* \"#utility.yul\":4249:4253   */\n  dup6\n    /* \"#utility.yul\":4203:4270   */\n  tag_56\n  jump\t// in\ntag_119:\n    /* \"#utility.yul\":4297:4298   */\n  0x00\n    /* \"#utility.yul\":4321:4325   */\n  0x20\n    /* \"#utility.yul\":4308:4325   */\n  swap1\n  pop\n    /* \"#utility.yul\":4353:4355   */\n  0x1f\n    /* \"#utility.yul\":4345:4351   */\n  dup4\n    /* \"#utility.yul\":4342:4356   */\n  gt\n    /* \"#utility.yul\":4370:4371   */\n  0x01\n    /* \"#utility.yul\":4365:4983   */\n  dup2\n  eq\n  tag_121\n  jumpi\n    /* \"#utility.yul\":5027:5028   */\n  0x00\n    /* \"#utility.yul\":5044:5050   */\n  dup5\n    /* \"#utility.yul\":5041:5118   */\n  iszero\n  tag_122\n  jumpi\n    /* \"#utility.yul\":5093:5102   */\n  dup3\n    /* \"#utility.yul\":5088:5091   */\n  dup8\n    /* \"#utility.yul\":5084:5103   */\n  add\n    /* \"#utility.yul\":5078:5104   */\n  mload\n    /* \"#utility.yul\":5069:5104   */\n  swap1\n  pop\n    /* \"#utility.yul\":5041:5118   */\ntag_122:\n    /* \"#utility.yul\":5144:5211   */\n  tag_123\n    /* \"#utility.yul\":5204:5210   */\n  dup6\n    /* \"#utility.yul\":5197:5202   */\n  dup3\n    /* \"#utility.yul\":5144:5211   */\n  tag_59\n  jump\t// in\ntag_123:\n    /* \"#utility.yul\":5138:5142   */\n  dup7\n    /* \"#utility.yul\":5131:5212   */\n  sstore\n    /* \"#utility.yul\":5000:5222   */\n  pop\n    /* \"#utility.yul\":4335:5222   */\n  jump(tag_120)\n    /* \"#utility.yul\":4365:4983   */\ntag_121:\n    /* \"#utility.yul\":4417:4421   */\n  0x1f\n    /* \"#utility.yul\":4413:4422   */\n  not\n    /* \"#utility.yul\":4405:4411   */\n  dup5\n    /* \"#utility.yul\":4401:4423   */\n  and\n    /* \"#utility.yul\":4451:4488   */\n  tag_124\n    /* \"#utility.yul\":4483:4487   */\n  dup7\n    /* \"#utility.yul\":4451:4488   */\n  tag_44\n  jump\t// in\ntag_124:\n    /* \"#utility.yul\":4510:4511   */\n  0x00\n    /* \"#utility.yul\":4524:4732   */\ntag_125:\n    /* \"#utility.yul\":4538:4545   */\n  dup3\n    /* \"#utility.yul\":4535:4536   */\n  dup2\n    /* \"#utility.yul\":4532:4546   */\n  lt\n    /* \"#utility.yul\":4524:4732   */\n  iszero\n  tag_127\n  jumpi\n    /* \"#utility.yul\":4617:4626   */\n  dup5\n    /* \"#utility.yul\":4612:4615   */\n  dup10\n    /* \"#utility.yul\":4608:4627   */\n  add\n    /* \"#utility.yul\":4602:4628   */\n  mload\n    /* \"#utility.yul\":4594:4600   */\n  dup3\n    /* \"#utility.yul\":4587:4629   */\n  sstore\n    /* \"#utility.yul\":4668:4669   */\n  0x01\n    /* \"#utility.yul\":4660:4666   */\n  dup3\n    /* \"#utility.yul\":4656:4670   */\n  add\n    /* \"#utility.yul\":4646:4670   */\n  swap2\n  pop\n    /* \"#utility.yul\":4715:4717   */\n  0x20\n    /* \"#utility.yul\":4704:4713   */\n  dup6\n    /* \"#utility.yul\":4700:4718   */\n  add\n    /* \"#utility.yul\":4687:4718   */\n  swap5\n  pop\n    /* \"#utility.yul\":4561:4565   */\n  0x20\n    /* \"#utility.yul\":4558:4559   */\n  dup2\n    /* \"#utility.yul\":4554:4566   */\n  add\n    /* \"#utility.yul\":4549:4566   */\n  swap1\n  pop\n    /* \"#utility.yul\":4524:4732   */\n  jump(tag_125)\ntag_127:\n    /* \"#utility.yul\":4760:4766   */\n  dup7\n    /* \"#utility.yul\":4751:4758   */\n  dup4\n    /* \"#utility.yul\":4748:4767   */\n  lt\n    /* \"#utility.yul\":4745:4924   */\n  iszero\n  tag_128\n  jumpi\n    /* \"#utility.yul\":4818:4827   */\n  dup5\n    /* \"#utility.yul\":4813:4816   */\n  dup10\n    /* \"#utility.yul\":4809:4828   */\n  add\n    /* \"#utility.yul\":4803:4829   */\n  mload\n    /* \"#utility.yul\":4861:4909   */\n  tag_129\n    /* \"#utility.yul\":4903:4907   */\n  0x1f\n    /* \"#utility.yul\":4895:4901   */\n  dup10\n    /* \"#utility.yul\":4891:4908   */\n  and\n    /* \"#utility.yul\":4880:4889   */\n  dup3\n    /* \"#utility.yul\":4861:4909   */\n  tag_58\n  jump\t// in\ntag_129:\n    /* \"#utility.yul\":4853:4859   */\n  dup4\n    /* \"#utility.yul\":4846:4910   */\n  sstore\n    /* \"#utility.yul\":4768:4924   */\n  pop\n    /* \"#utility.yul\":4745:4924   */\ntag_128:\n    /* \"#utility.yul\":4970:4971   */\n  0x01\n    /* \"#utility.yul\":4966:4967   */\n  0x02\n    /* \"#utility.yul\":4958:4964   */\n  dup9\n    /* \"#utility.yul\":4954:4968   */\n  mul\n    /* \"#utility.yul\":4950:4972   */\n  add\n    /* \"#utility.yul\":4944:4948   */\n  dup9\n    /* \"#utility.yul\":4937:4973   */\n  sstore\n    /* \"#utility.yul\":4372:4983   */\n  pop\n  pop\n  pop\n    /* \"#utility.yul\":4335:5222   */\ntag_120:\n  pop\n    /* \"#utility.yul\":3925:5228   */\n  pop\n  pop\n  pop\n    /* \"#utility.yul\":3833:5228   */\n  pop\n  pop\n  jump\t// out\n    /* \"#utility.yul\":5234:5414   */\ntag_60:\n    /* \"#utility.yul\":5282:5359   */\n  0x4e487b7100000000000000000000000000000000000000000000000000000000\n    /* \"#utility.yul\":5279:5280   */\n  0x00\n    /* \"#utility.yul\":5272:5360   */\n  mstore\n    /* \"#utility.yul\":5379:5383   */\n  0x11\n    /* \"#utility.yul\":5376:5377   */\n  0x04\n    /* \"#utility.yul\":5369:5384   */\n  mstore\n    /* \"#utility.yul\":5403:5407   */\n  0x24\n    /* \"#utility.yul\":5400:5401   */\n  0x00\n    /* \"#utility.yul\":5393:5408   */\n  revert\n    /* \"#utility.yul\":5420:5522   */\ntag_61:\n    /* \"#utility.yul\":5462:5470   */\n  0x00\n    /* \"#utility.yul\":5509:5514   */\n  dup2\n    /* \"#utility.yul\":5506:5507   */\n  0x01\n    /* \"#utility.yul\":5502:5515   */\n  shr\n    /* \"#utility.yul\":5481:5515   */\n  swap1\n  pop\n    /* \"#utility.yul\":5420:5522   */\n  swap2\n  swap1\n  pop\n  jump\t// out\n    /* \"#utility.yul\":5528:6376   */\ntag_62:\n    /* \"#utility.yul\":5589:5594   */\n  0x00\n    /* \"#utility.yul\":5596:5600   */\n  dup1\n    /* \"#utility.yul\":5620:5626   */\n  dup3\n    /* \"#utility.yul\":5611:5626   */\n  swap2\n  pop\n    /* \"#utility.yul\":5644:5649   */\n  dup4\n    /* \"#utility.yul\":5635:5649   */\n  swap1\n  pop\n    /* \"#utility.yul\":5658:6370   */\ntag_133:\n    /* \"#utility.yul\":5679:5680   */\n  0x01\n    /* \"#utility.yul\":5669:5677   */\n  dup6\n    /* \"#utility.yul\":5666:5681   */\n  gt\n    /* \"#utility.yul\":5658:6370   */\n  iszero\n  tag_135\n  jumpi\n    /* \"#utility.yul\":5774:5778   */\n  dup1\n    /* \"#utility.yul\":5769:5772   */\n  dup7\n    /* \"#utility.yul\":5765:5779   */\n  div\n    /* \"#utility.yul\":5759:5763   */\n  dup2\n    /* \"#utility.yul\":5756:5780   */\n  gt\n    /* \"#utility.yul\":5753:5803   */\n  iszero\n  tag_136\n  jumpi\n    /* \"#utility.yul\":5783:5801   */\n  tag_137\n  tag_60\n  jump\t// in\ntag_137:\n    /* \"#utility.yul\":5753:5803   */\ntag_136:\n    /* \"#utility.yul\":5833:5834   */\n  0x01\n    /* \"#utility.yul\":5823:5831   */\n  dup6\n    /* \"#utility.yul\":5819:5835   */\n  and\n    /* \"#utility.yul\":5816:6267   */\n  iszero\n  tag_138\n  jumpi\n    /* \"#utility.yul\":6248:6252   */\n  dup1\n    /* \"#utility.yul\":6241:6246   */\n  dup3\n    /* \"#utility.yul\":6237:6253   */\n  mul\n    /* \"#utility.yul\":6228:6253   */\n  swap2\n  pop\n    /* \"#utility.yul\":5816:6267   */\ntag_138:\n    /* \"#utility.yul\":6298:6302   */\n  dup1\n    /* \"#utility.yul\":6292:6296   */\n  dup2\n    /* \"#utility.yul\":6288:6303   */\n  mul\n    /* \"#utility.yul\":6280:6303   */\n  swap1\n  pop\n    /* \"#utility.yul\":6328:6360   */\n  tag_139\n    /* \"#utility.yul\":6351:6359   */\n  dup6\n    /* \"#utility.yul\":6328:6360   */\n  tag_61\n  jump\t// in\ntag_139:\n    /* \"#utility.yul\":6316:6360   */\n  swap5\n  pop\n    /* \"#utility.yul\":5658:6370   */\n  jump(tag_133)\ntag_135:\n    /* \"#utility.yul\":5528:6376   */\n  swap5\n  pop\n  swap5\n  swap3\n  pop\n  pop\n  pop\n  jump\t// out\n    /* \"#utility.yul\":6382:7455   */\ntag_63:\n    /* \"#utility.yul\":6436:6441   */\n  0x00\n    /* \"#utility.yul\":6627:6635   */\n  dup3\n    /* \"#utility.yul\":6617:6657   */\n  tag_141\n  jumpi\n    /* \"#utility.yul\":6648:6649   */\n  0x01\n    /* \"#utility.yul\":6639:6649   */\n  swap1\n  pop\n    /* \"#utility.yul\":6650:6655   */\n  jump(tag_140)\n    /* \"#utility.yul\":6617:6657   */\ntag_141:\n    /* \"#utility.yul\":6676:6680   */\n  dup2\n    /* \"#utility.yul\":6666:6702   */\n  tag_142\n  jumpi\n    /* \"#utility.yul\":6693:6694   */\n  0x00\n    /* \"#utility.yul\":6684:6694   */\n  swap1\n  pop\n    /* \"#utility.yul\":6695:6700   */\n  jump(tag_140)\n    /* \"#utility.yul\":6666:6702   */\ntag_142:\n    /* \"#utility.yul\":6762:6766   */\n  dup2\n    /* \"#utility.yul\":6810:6811   */\n  0x01\n    /* \"#utility.yul\":6805:6832   */\n  dup2\n  eq\n  tag_144\n  jumpi\n    /* \"#utility.yul\":6846:6847   */\n  0x02\n    /* \"#utility.yul\":6841:7032   */\n  dup2\n  eq\n  tag_145\n  jumpi\n    /* \"#utility.yul\":6755:7032   */\n  jump(tag_143)\n    /* \"#utility.yul\":6805:6832   */\ntag_144:\n    /* \"#utility.yul\":6823:6824   */\n  0x01\n    /* \"#utility.yul\":6814:6824   */\n  swap2\n  pop\n    /* \"#utility.yul\":6825:6830   */\n  pop\n  jump(tag_140)\n    /* \"#utility.yul\":6841:7032   */\ntag_145:\n    /* \"#utility.yul\":6886:6889   */\n  0xff\n    /* \"#utility.yul\":6876:6884   */\n  dup5\n    /* \"#utility.yul\":6873:6890   */\n  gt\n    /* \"#utility.yul\":6870:6913   */\n  iszero\n  tag_146\n  jumpi\n    /* \"#utility.yul\":6893:6911   */\n  tag_147\n  tag_60\n  jump\t// in\ntag_147:\n    /* \"#utility.yul\":6870:6913   */\ntag_146:\n    /* \"#utility.yul\":6942:6950   */\n  dup4\n    /* \"#utility.yul\":6939:6940   */\n  0x02\n    /* \"#utility.yul\":6935:6951   */\n  exp\n    /* \"#utility.yul\":6926:6951   */\n  swap2\n  pop\n    /* \"#utility.yul\":6977:6980   */\n  dup5\n    /* \"#utility.yul\":6970:6975   */\n  dup3\n    /* \"#utility.yul\":6967:6981   */\n  gt\n    /* \"#utility.yul\":6964:7004   */\n  iszero\n  tag_148\n  jumpi\n    /* \"#utility.yul\":6984:7002   */\n  tag_149\n  tag_60\n  jump\t// in\ntag_149:\n    /* \"#utility.yul\":6964:7004   */\ntag_148:\n    /* \"#utility.yul\":7017:7022   */\n  pop\n  jump(tag_140)\n    /* \"#utility.yul\":6755:7032   */\ntag_143:\n  pop\n    /* \"#utility.yul\":7141:7143   */\n  0x20\n    /* \"#utility.yul\":7131:7139   */\n  dup4\n    /* \"#utility.yul\":7128:7144   */\n  lt\n    /* \"#utility.yul\":7122:7125   */\n  0x0133\n    /* \"#utility.yul\":7116:7120   */\n  dup4\n    /* \"#utility.yul\":7113:7126   */\n  lt\n    /* \"#utility.yul\":7109:7145   */\n  and\n    /* \"#utility.yul\":7091:7093   */\n  0x4e\n    /* \"#utility.yul\":7081:7089   */\n  dup5\n    /* \"#utility.yul\":7078:7094   */\n  lt\n    /* \"#utility.yul\":7073:7075   */\n  0x0b\n    /* \"#utility.yul\":7067:7071   */\n  dup5\n    /* \"#utility.yul\":7064:7076   */\n  lt\n    /* \"#utility.yul\":7060:7095   */\n  and\n    /* \"#utility.yul\":7044:7155   */\n  or\n    /* \"#utility.yul\":7041:7287   */\n  iszero\n  tag_150\n  jumpi\n    /* \"#utility.yul\":7197:7205   */\n  dup3\n    /* \"#utility.yul\":7191:7195   */\n  dup3\n    /* \"#utility.yul\":7187:7206   */\n  exp\n    /* \"#utility.yul\":7178:7206   */\n  swap1\n  pop\n    /* \"#utility.yul\":7232:7235   */\n  dup4\n    /* \"#utility.yul\":7225:7230   */\n  dup2\n    /* \"#utility.yul\":7222:7236   */\n  gt\n    /* \"#utility.yul\":7219:7259   */\n  iszero\n  tag_151\n  jumpi\n    /* \"#utility.yul\":7239:7257   */\n  tag_152\n  tag_60\n  jump\t// in\ntag_152:\n    /* \"#utility.yul\":7219:7259   */\ntag_151:\n    /* \"#utility.yul\":7272:7277   */\n  jump(tag_140)\n    /* \"#utility.yul\":7041:7287   */\ntag_150:\n    /* \"#utility.yul\":7312:7354   */\n  tag_153\n    /* \"#utility.yul\":7350:7353   */\n  dup5\n    /* \"#utility.yul\":7340:7348   */\n  dup5\n    /* \"#utility.yul\":7334:7338   */\n  dup5\n    /* \"#utility.yul\":7331:7332   */\n  0x01\n    /* \"#utility.yul\":7312:7354   */\n  tag_62\n  jump\t// in\ntag_153:\n    /* \"#utility.yul\":7297:7354   */\n  swap3\n  pop\n  swap1\n  pop\n    /* \"#utility.yul\":7386:7390   */\n  dup2\n    /* \"#utility.yul\":7381:7384   */\n  dup5\n    /* \"#utility.yul\":7377:7391   */\n  div\n    /* \"#utility.yul\":7370:7375   */\n  dup2\n    /* \"#utility.yul\":7367:7392   */\n  gt\n    /* \"#utility.yul\":7364:7415   */\n  iszero\n  tag_154\n  jumpi\n    /* \"#utility.yul\":7395:7413   */\n  tag_155\n  tag_60\n  jump\t// in\ntag_155:\n    /* \"#utility.yul\":7364:7415   */\ntag_154:\n    /* \"#utility.yul\":7444:7448   */\n  dup2\n    /* \"#utility.yul\":7437:7442   */\n  dup2\n    /* \"#utility.yul\":7433:7449   */\n  mul\n    /* \"#utility.yul\":7424:7449   */\n  swap1\n  pop\n    /* \"#utility.yul\":6382:7455   */\ntag_140:\n  swap4\n  swap3\n  pop\n  pop\n  pop\n  jump\t// out\n    /* \"#utility.yul\":7461:7746   */\ntag_17:\n    /* \"#utility.yul\":7521:7526   */\n  0x00\n    /* \"#utility.yul\":7545:7568   */\n  tag_157\n    /* \"#utility.yul\":7563:7567   */\n  dup3\n    /* \"#utility.yul\":7545:7568   */\n  tag_48\n  jump\t// in\ntag_157:\n    /* \"#utility.yul\":7537:7568   */\n  swap2\n  pop\n    /* \"#utility.yul\":7589:7616   */\n  tag_158\n    /* \"#utility.yul\":7607:7615   */\n  dup4\n    /* \"#utility.yul\":7589:7616   */\n  tag_48\n  jump\t// in\ntag_158:\n    /* \"#utility.yul\":7577:7616   */\n  swap3\n  pop\n    /* \"#utility.yul\":7635:7739   */\n  tag_159\n    /* \"#utility.yul\":7672:7738   */\n  0xffffffffffffffffffffffffffffffffffffffffffffffffffffffffffffffff\n    /* \"#utility.yul\":7662:7670   */\n  dup5\n    /* \"#utility.yul\":7656:7660   */\n  dup5\n    /* \"#utility.yul\":7635:7739   */\n  tag_63\n  jump\t// in\ntag_159:\n    /* \"#utility.yul\":7626:7739   */\n  swap1\n  pop\n    /* \"#utility.yul\":7461:7746   */\n  swap3\n  swap2\n  pop\n  pop\n  jump\t// out\n    /* \"#utility.yul\":7752:8162   */\ntag_19:\n    /* \"#utility.yul\":7792:7799   */\n  0x00\n    /* \"#utility.yul\":7815:7835   */\n  tag_161\n    /* \"#utility.yul\":7833:7834   */\n  dup3\n    /* \"#utility.yul\":7815:7835   */\n  tag_48\n  jump\t// in\ntag_161:\n    /* \"#utility.yul\":7810:7835   */\n  swap2\n  pop\n    /* \"#utility.yul\":7849:7869   */\n  tag_162\n    /* \"#utility.yul\":7867:7868   */\n  dup4\n    /* \"#utility.yul\":7849:7869   */\n  tag_48\n  jump\t// in\ntag_162:\n    /* \"#utility.yul\":7844:7869   */\n  swap3\n  pop\n    /* \"#utility.yul\":7904:7905   */\n  dup3\n    /* \"#utility.yul\":7901:7902   */\n  dup3\n    /* \"#utility.yul\":7897:7906   */\n  mul\n    /* \"#utility.yul\":7926:7956   */\n  tag_163\n    /* \"#utility.yul\":7944:7955   */\n  dup2\n    /* \"#utility.yul\":7926:7956   */\n  tag_48\n  jump\t// in\ntag_163:\n    /* \"#utility.yul\":7915:7956   */\n  swap2\n  pop\n    /* \"#utility.yul\":8105:8106   */\n  dup3\n    /* \"#utility.yul\":8096:8103   */\n  dup3\n    /* \"#utility.yul\":8092:8107   */\n  div\n    /* \"#utility.yul\":8089:8090   */\n  dup5\n    /* \"#utility.yul\":8086:8108   */\n  eq\n    /* \"#utility.yul\":8066:8067   */\n  dup4\n    /* \"#utility.yul\":8059:8068   */\n  iszero\n    /* \"#utility.yul\":8039:8122   */\n  or\n    /* \"#utility.yul\":8016:8155   */\n  tag_164\n  jumpi\n    /* \"#utility.yul\":8135:8153   */\n  tag_165\n  tag_60\n  jump\t// in\ntag_165:\n    /* \"#utility.yul\":8016:8155   */\ntag_164:\n    /* \"#utility.yul\":7800:8162   */\n  pop\n    /* \"#utility.yul\":7752:8162   */\n  swap3\n  swap2\n  pop\n  pop\n  jump\t// out\n    /* \"#utility.yul\":8168:8337   */\ntag_64:\n    /* \"#utility.yul\":8252:8263   */\n  0x00\n    /* \"#utility.yul\":8286:8292   */\n  dup3\n    /* \"#utility.yul\":8281:8284   */\n  dup3\n    /* \"#utility.yul\":8274:8293   */\n  mstore\n    /* \"#utility.yul\":8326:8330   */\n  0x20\n    /* \"#utility.yul\":8321:8324   */\n  dup3\n    /* \"#utility.yul\":8317:8331   */\n  add\n    /* \"#utility.yul\":8302:8331   */\n  swap1\n  pop\n    /* \"#utility.yul\":8168:8337   */\n  swap3\n  swap2\n  pop\n  pop\n  jump\t// out\n    /* \"#utility.yul\":8343:8524   */\ntag_65:\n    /* \"#utility.yul\":8483:8516   */\n  0x45524332303a206d696e7420746f20746865207a65726f206164647265737300\n    /* \"#utility.yul\":8479:8480   */\n  0x00\n    /* \"#utility.yul\":8471:8477   */\n  dup3\n    /* \"#utility.yul\":8467:8481   */\n  add\n    /* \"#utility.yul\":8460:8517   */\n  mstore\n    /* \"#utility.yul\":8343:8524   */\n  pop\n  jump\t// out\n    /* \"#utility.yul\":8530:8896   */\ntag_66:\n    /* \"#utility.yul\":8672:8675   */\n  0x00\n    /* \"#utility.yul\":8693:8760   */\n  tag_169\n    /* \"#utility.yul\":8757:8759   */\n  0x1f\n    /* \"#utility.yul\":8752:8755   */\n  dup4\n    /* \"#utility.yul\":8693:8760   */\n  tag_64\n  jump\t// in\ntag_169:\n    /* \"#utility.yul\":8686:8760   */\n  swap2\n  pop\n    /* \"#utility.yul\":8769:8862   */\n  tag_170\n    /* \"#utility.yul\":8858:8861   */\n  dup3\n    /* \"#utility.yul\":8769:8862   */\n  tag_65\n  jump\t// in\ntag_170:\n    /* \"#utility.yul\":8887:8889   */\n  0x20\n    /* \"#utility.yul\":8882:8885   */\n  dup3\n    /* \"#utility.yul\":8878:8890   */\n  add\n    /* \"#utility.yul\":8871:8890   */\n  swap1\n  pop\n    /* \"#utility.yul\":8530:8896   */\n  swap2\n  swap1\n  pop\n  jump\t// out\n    /* \"#utility.yul\":8902:9321   */\ntag_27:\n    /* \"#utility.yul\":9068:9072   */\n  0x00\n    /* \"#utility.yul\":9106:9108   */\n  0x20\n    /* \"#utility.yul\":9095:9104   */\n  dup3\n    /* \"#utility.yul\":9091:9109   */\n  add\n    /* \"#utility.yul\":9083:9109   */\n  swap1\n  pop\n    /* \"#utility.yul\":9155:9164   */\n  dup2\n    /* \"#utility.yul\":9149:9153   */\n  dup2\n    /* \"#utility.yul\":9145:9165   */\n  sub\n    /* \"#utility.yul\":9141:9142   */\n  0x00\n    /* \"#utility.yul\":9130:9139   */\n  dup4\n    /* \"#utility.yul\":9126:9143   */\n  add\n    /* \"#utility.yul\":9119:9166   */\n  mstore\n    /* \"#utility.yul\":9183:9314   */\n  tag_172\n    /* \"#utility.yul\":9309:9313   */\n  dup2\n    /* \"#utility.yul\":9183:9314   */\n  tag_66\n  jump\t// in\ntag_172:\n    /* \"#utility.yul\":9175:9314   */\n  swap1\n  pop\n    /* \"#utility.yul\":8902:9321   */\n  swap2\n  swap1\n  pop\n  jump\t// out\n    /* \"#utility.yul\":9327:9518   */\ntag_31:\n    /* \"#utility.yul\":9367:9370   */\n  0x00\n    /* \"#utility.yul\":9386:9406   */\n  tag_174\n    /* \"#utility.yul\":9404:9405   */\n  dup3\n    /* \"#utility.yul\":9386:9406   */\n  tag_48\n  jump\t// in\ntag_174:\n    /* \"#utility.yul\":9381:9406   */\n  swap2\n  pop\n    /* \"#utility.yul\":9420:9440   */\n  tag_175\n    /* \"#utility.yul\":9438:9439   */\n  dup4\n    /* \"#utility.yul\":9420:9440   */\n  tag_48\n  jump\t// in\ntag_175:\n    /* \"#utility.yul\":9415:9440   */\n  swap3\n  pop\n    /* \"#utility.yul\":9463:9464   */\n  dup3\n    /* \"#utility.yul\":9460:9461   */\n  dup3\n    /* \"#utility.yul\":9456:9465   */\n  add\n    /* \"#utility.yul\":9449:9465   */\n  swap1\n  pop\n    /* \"#utility.yul\":9484:9487   */\n  dup1\n    /* \"#utility.yul\":9481:9482   */\n  dup3\n    /* \"#utility.yul\":9478:9488   */\n  gt\n    /* \"#utility.yul\":9475:9511   */\n  iszero\n  tag_176\n  jumpi\n    /* \"#utility.yul\":9491:9509   */\n  tag_177\n  tag_60\n  jump\t// in\ntag_177:\n    /* \"#utility.yul\":9475:9511   */\ntag_176:\n    /* \"#utility.yul\":9327:9518   */\n  swap3\n  swap2\n  pop\n  pop\n  jump\t// out\n    /* \"#utility.yul\":9524:9642   */\ntag_67:\n    /* \"#utility.yul\":9611:9635   */\n  tag_179\n    /* \"#utility.yul\":9629:9634   */\n  dup2\n    /* \"#utility.yul\":9611:9635   */\n  tag_48\n  jump\t// in\ntag_179:\n    /* \"#utility.yul\":9606:9609   */\n  dup3\n    /* \"#utility.yul\":9599:9636   */\n  mstore\n    /* \"#utility.yul\":9524:9642   */\n  pop\n  pop\n  jump\t// out\n    /* \"#utility.yul\":9648:9870   */\ntag_33:\n    /* \"#utility.yul\":9741:9745   */\n  0x00\n    /* \"#utility.yul\":9779:9781   */\n  0x20\n    /* \"#utility.yul\":9768:9777   */\n  dup3\n    /* \"#utility.yul\":9764:9782   */\n  add\n    /* \"#utility.yul\":9756:9782   */\n  swap1\n  pop\n    /* \"#utility.yul\":9792:9863   */\n  tag_181\n    /* \"#utility.yul\":9860:9861   */\n  0x00\n    /* \"#utility.yul\":9849:9858   */\n  dup4\n    /* \"#utility.yul\":9845:9862   */\n  add\n    /* \"#utility.yul\":9836:9842   */\n  dup5\n    /* \"#utility.yul\":9792:9863   */\n  tag_67\n  jump\t// in\ntag_181:\n    /* \"#utility.yul\":9648:9870   */\n  swap3\n  swap2\n  pop\n  pop\n  jump\t// out\n    /* \"contracts/towelie.sol\":21767:21936  contract TowelieCoin is ERC20, Ownable {... */\ntag_21:\n  mload(0x80)\n  mload(0xa0)\n  codecopy(0x00, dataOffset(sub_0), dataSize(sub_0))\n  0x00\n  assignImmutable(\"0x5a93a2dc92091af230683d15d3257a435cf66aed689fda6017f4307513f6d5be\")\n  0x00\n  assignImmutable(\"0x2594dabed871cb83b92f0316c3cfb3f11c31e831a3dfe02ed619a85d0029a787\")\n  return(0x00, dataSize(sub_0))\nstop\n\nsub_0: assembly {\n        /* \"contracts/towelie.sol\":21767:21936  contract TowelieCoin is ERC20, Ownable {... */\n      mstore(0x40, 0x80)\n      callvalue\n      dup1\n      iszero\n      tag_1\n      jumpi\n      0x00\n      dup1\n      revert\n    tag_1:\n      pop\n      jumpi(tag_2, lt(calldatasize, 0x04))\n      shr(0xe0, calldataload(0x00))\n      dup1\n      0x70a08231\n      gt\n      tag_21\n      jumpi\n      dup1\n      0x95d89b41\n      gt\n      tag_22\n      jumpi\n      dup1\n      0x95d89b41\n      eq\n      tag_16\n      jumpi\n      dup1\n      0xa457c2d7\n      eq\n      tag_17\n      jumpi\n      dup1\n      0xa9059cbb\n      eq\n      tag_18\n      jumpi\n      dup1\n      0xdd62ed3e\n      eq\n      tag_19\n      jumpi\n      dup1\n      0xf2fde38b\n      eq\n      tag_20\n      jumpi\n      jump(tag_2)\n    tag_22:\n      dup1\n      0x70a08231\n      eq\n      tag_12\n      jumpi\n      dup1\n      0x715018a6\n      eq\n      tag_13\n      jumpi\n      dup1\n      0x8da5cb5b\n      eq\n      tag_14\n      jumpi\n      dup1\n      0x95c5c5e3\n      eq\n      tag_15\n      jumpi\n      jump(tag_2)\n    tag_21:\n      dup1\n      0x313ce567\n      gt\n      tag_23\n      jumpi\n      dup1\n      0x313ce567\n      eq\n      tag_7\n      jumpi\n      dup1\n      0x39509351\n      eq\n      tag_8\n      jumpi\n      dup1\n      0x3ba93f26\n      eq\n      tag_9\n      jumpi\n      dup1\n      0x49bd5a5e\n      eq\n      tag_10\n      jumpi\n      dup1\n      0x6aeac363\n      eq\n      tag_11\n      jumpi\n      jump(tag_2)\n    tag_23:\n      dup1\n      0x06fdde03\n      eq\n      tag_3\n      jumpi\n      dup1\n      0x095ea7b3\n      eq\n      tag_4\n      jumpi\n      dup1\n      0x18160ddd\n      eq\n      tag_5\n      jumpi\n      dup1\n      0x23b872dd\n      eq\n      tag_6\n      jumpi\n    tag_2:\n      0x00\n      dup1\n      revert\n        /* \"contracts/towelie.sol\":11155:11255  function name() public view virtual override returns (string memory) {... */\n    tag_3:\n      tag_24\n      tag_25\n      jump\t// in\n    tag_24:\n      mload(0x40)\n      tag_26\n      swap2\n      swap1\n      tag_27\n      jump\t// in\n    tag_26:\n      mload(0x40)\n      dup1\n      swap2\n      sub\n      swap1\n      return\n        /* \"contracts/towelie.sol\":13432:13624  function approve(address spender, uint256 amount) public virtual override returns (bool) {... */\n    tag_4:\n      tag_28\n      0x04\n      dup1\n      calldatasize\n      sub\n      dup2\n      add\n      swap1\n      tag_29\n      swap2\n      swap1\n      tag_30\n      jump\t// in\n    tag_29:\n      tag_31\n      jump\t// in\n    tag_28:\n      mload(0x40)\n      tag_32\n      swap2\n      swap1\n      tag_33\n      jump\t// in\n    tag_32:\n      mload(0x40)\n      dup1\n      swap2\n      sub\n      swap1\n      return\n        /* \"contracts/towelie.sol\":12275:12383  function totalSupply() public view virtual override returns (uint256) {... */\n    tag_5:\n      tag_34\n      tag_35\n      jump\t// in\n    tag_34:\n      mload(0x40)\n      tag_36\n      swap2\n      swap1\n      tag_37\n      jump\t// in\n    tag_36:\n      mload(0x40)\n      dup1\n      swap2\n      sub\n      swap1\n      return\n        /* \"contracts/towelie.sol\":14204:14490  function transferFrom(... */\n    tag_6:\n      tag_38\n      0x04\n      dup1\n      calldatasize\n      sub\n      dup2\n      add\n      swap1\n      tag_39\n      swap2\n      swap1\n      tag_40\n      jump\t// in\n    tag_39:\n      tag_41\n      jump\t// in\n    tag_38:\n      mload(0x40)\n      tag_42\n      swap2\n      swap1\n      tag_33\n      jump\t// in\n    tag_42:\n      mload(0x40)\n      dup1\n      swap2\n      sub\n      swap1\n      return\n        /* \"contracts/towelie.sol\":12117:12210  function decimals() public view virtual override returns (uint8) {... */\n    tag_7:\n      tag_43\n      tag_44\n      jump\t// in\n    tag_43:\n      mload(0x40)\n      tag_45\n      swap2\n      swap1\n      tag_46\n      jump\t// in\n    tag_45:\n      mload(0x40)\n      dup1\n      swap2\n      sub\n      swap1\n      return\n        /* \"contracts/towelie.sol\":14899:15128  function increaseAllowance(address spender, uint256 addedValue) public virtual returns (bool) {... */\n    tag_8:\n      tag_47\n      0x04\n      dup1\n      calldatasize\n      sub\n      dup2\n      add\n      swap1\n      tag_48\n      swap2\n      swap1\n      tag_30\n      jump\t// in\n    tag_48:\n      tag_49\n      jump\t// in\n    tag_47:\n      mload(0x40)\n      tag_50\n      swap2\n      swap1\n      tag_33\n      jump\t// in\n    tag_50:\n      mload(0x40)\n      dup1\n      swap2\n      sub\n      swap1\n      return\n        /* \"contracts/towelie.sol\":10949:11085  function setAllowance(uint256 _a) external {... */\n    tag_9:\n      tag_51\n      0x04\n      dup1\n      calldatasize\n      sub\n      dup2\n      add\n      swap1\n      tag_52\n      swap2\n      swap1\n      tag_53\n      jump\t// in\n    tag_52:\n      tag_54\n      jump\t// in\n    tag_51:\n      stop\n        /* \"contracts/towelie.sol\":10027:10055  address public uniswapV2Pair */\n    tag_10:\n      tag_55\n      tag_56\n      jump\t// in\n    tag_55:\n      mload(0x40)\n      tag_57\n      swap2\n      swap1\n      tag_58\n      jump\t// in\n    tag_57:\n      mload(0x40)\n      dup1\n      swap2\n      sub\n      swap1\n      return\n        /* \"contracts/towelie.sol\":9903:9940  uint256 public _allowance = 3_000_000 */\n    tag_11:\n      tag_59\n      tag_60\n      jump\t// in\n    tag_59:\n      mload(0x40)\n      tag_61\n      swap2\n      swap1\n      tag_37\n      jump\t// in\n    tag_61:\n      mload(0x40)\n      dup1\n      swap2\n      sub\n      swap1\n      return\n        /* \"contracts/towelie.sol\":12409:12536  function balanceOf(address account) public view virtual override returns (uint256) {... */\n    tag_12:\n      tag_62\n      0x04\n      dup1\n      calldatasize\n      sub\n      dup2\n      add\n      swap1\n      tag_63\n      swap2\n      swap1\n      tag_64\n      jump\t// in\n    tag_63:\n      tag_65\n      jump\t// in\n    tag_62:\n      mload(0x40)\n      tag_66\n      swap2\n      swap1\n      tag_37\n      jump\t// in\n    tag_66:\n      mload(0x40)\n      dup1\n      swap2\n      sub\n      swap1\n      return\n        /* \"contracts/towelie.sol\":6432:6571  function renounceOwnership() public virtual onlyOwner {... */\n    tag_13:\n      tag_67\n      tag_68\n      jump\t// in\n    tag_67:\n      stop\n        /* \"contracts/towelie.sol\":5795:5869  function owner() public view returns (address) {... */\n    tag_14:\n      tag_69\n      tag_70\n      jump\t// in\n    tag_69:\n      mload(0x40)\n      tag_71\n      swap2\n      swap1\n      tag_58\n      jump\t// in\n    tag_71:\n      mload(0x40)\n      dup1\n      swap2\n      sub\n      swap1\n      return\n        /* \"contracts/towelie.sol\":10636:10941  function setPair(address _uniswapPair, address _tokenPair) external {... */\n    tag_15:\n      tag_72\n      0x04\n      dup1\n      calldatasize\n      sub\n      dup2\n      add\n      swap1\n      tag_73\n      swap2\n      swap1\n      tag_74\n      jump\t// in\n    tag_73:\n      tag_75\n      jump\t// in\n    tag_72:\n      stop\n        /* \"contracts/towelie.sol\":11374:11478  function symbol() public view virtual override returns (string memory) {... */\n    tag_16:\n      tag_76\n      tag_77\n      jump\t// in\n    tag_76:\n      mload(0x40)\n      tag_78\n      swap2\n      swap1\n      tag_27\n      jump\t// in\n    tag_78:\n      mload(0x40)\n      dup1\n      swap2\n      sub\n      swap1\n      return\n        /* \"contracts/towelie.sol\":15631:16058  function decreaseAllowance(address spender, uint256 subtractedValue) public virtual returns (bool) {... */\n    tag_17:\n      tag_79\n      0x04\n      dup1\n      calldatasize\n      sub\n      dup2\n      add\n      swap1\n      tag_80\n      swap2\n      swap1\n      tag_30\n      jump\t// in\n    tag_80:\n      tag_81\n      jump\t// in\n    tag_79:\n      mload(0x40)\n      tag_82\n      swap2\n      swap1\n      tag_33\n      jump\t// in\n    tag_82:\n      mload(0x40)\n      dup1\n      swap2\n      sub\n      swap1\n      return\n        /* \"contracts/towelie.sol\":12742:12935  function transfer(address to, uint256 amount) public virtual override returns (bool) {... */\n    tag_18:\n      tag_83\n      0x04\n      dup1\n      calldatasize\n      sub\n      dup2\n      add\n      swap1\n      tag_84\n      swap2\n      swap1\n      tag_30\n      jump\t// in\n    tag_84:\n      tag_85\n      jump\t// in\n    tag_83:\n      mload(0x40)\n      tag_86\n      swap2\n      swap1\n      tag_33\n      jump\t// in\n    tag_86:\n      mload(0x40)\n      dup1\n      swap2\n      sub\n      swap1\n      return\n        /* \"contracts/towelie.sol\":12961:13112  function allowance(address owner, address spender) public view virtual override returns (uint256) {... */\n    tag_19:\n      tag_87\n      0x04\n      dup1\n      calldatasize\n      sub\n      dup2\n      add\n      swap1\n      tag_88\n      swap2\n      swap1\n      tag_74\n      jump\t// in\n    tag_88:\n      tag_89\n      jump\t// in\n    tag_87:\n      mload(0x40)\n      tag_90\n      swap2\n      swap1\n      tag_37\n      jump\t// in\n    tag_90:\n      mload(0x40)\n      dup1\n      swap2\n      sub\n      swap1\n      return\n        /* \"contracts/towelie.sol\":6726:6961  function transferOwnership(address newOwner) public virtual onlyOwner {... */\n    tag_20:\n      tag_91\n      0x04\n      dup1\n      calldatasize\n      sub\n      dup2\n      add\n      swap1\n      tag_92\n      swap2\n      swap1\n      tag_64\n      jump\t// in\n    tag_92:\n      tag_93\n      jump\t// in\n    tag_91:\n      stop\n        /* \"contracts/towelie.sol\":11155:11255  function name() public view virtual override returns (string memory) {... */\n    tag_25:\n        /* \"contracts/towelie.sol\":11209:11222  string memory */\n      0x60\n        /* \"contracts/towelie.sol\":11242:11247  _name */\n      0x04\n        /* \"contracts/towelie.sol\":11235:11247  return _name */\n      dup1\n      sload\n      tag_95\n      swap1\n      tag_96\n      jump\t// in\n    tag_95:\n      dup1\n      0x1f\n      add\n      0x20\n      dup1\n      swap2\n      div\n      mul\n      0x20\n      add\n      mload(0x40)\n      swap1\n      dup2\n      add\n      0x40\n      mstore\n      dup1\n      swap3\n      swap2\n      swap1\n      dup2\n      dup2\n      mstore\n      0x20\n      add\n      dup3\n      dup1\n      sload\n      tag_97\n      swap1\n      tag_96\n      jump\t// in\n    tag_97:\n      dup1\n      iszero\n      tag_98\n      jumpi\n      dup1\n      0x1f\n      lt\n      tag_99\n      jumpi\n      0x0100\n      dup1\n      dup4\n      sload\n      div\n      mul\n      dup4\n      mstore\n      swap2\n      0x20\n      add\n      swap2\n      jump(tag_98)\n    tag_99:\n      dup3\n      add\n      swap2\n      swap1\n      0x00\n      mstore\n      keccak256(0x00, 0x20)\n      swap1\n    tag_100:\n      dup2\n      sload\n      dup2\n      mstore\n      swap1\n      0x01\n      add\n      swap1\n      0x20\n      add\n      dup1\n      dup4\n      gt\n      tag_100\n      jumpi\n      dup3\n      swap1\n      sub\n      0x1f\n      and\n      dup3\n      add\n      swap2\n    tag_98:\n      pop\n      pop\n      pop\n      pop\n      pop\n      swap1\n      pop\n        /* \"contracts/towelie.sol\":11155:11255  function name() public view virtual override returns (string memory) {... */\n      swap1\n      jump\t// out\n        /* \"contracts/towelie.sol\":13432:13624  function approve(address spender, uint256 amount) public virtual override returns (bool) {... */\n    tag_31:\n        /* \"contracts/towelie.sol\":13515:13519  bool */\n      0x00\n        /* \"contracts/towelie.sol\":13532:13545  address owner */\n      dup1\n        /* \"contracts/towelie.sol\":13548:13560  _msgSender() */\n      tag_102\n        /* \"contracts/towelie.sol\":13548:13558  _msgSender */\n      tag_103\n        /* \"contracts/towelie.sol\":13548:13560  _msgSender() */\n      jump\t// in\n    tag_102:\n        /* \"contracts/towelie.sol\":13532:13560  address owner = _msgSender() */\n      swap1\n      pop\n        /* \"contracts/towelie.sol\":13562:13594  _approve(owner, spender, amount) */\n      tag_104\n        /* \"contracts/towelie.sol\":13571:13576  owner */\n      dup2\n        /* \"contracts/towelie.sol\":13578:13585  spender */\n      dup6\n        /* \"contracts/towelie.sol\":13587:13593  amount */\n      dup6\n        /* \"contracts/towelie.sol\":13562:13570  _approve */\n      tag_105\n        /* \"contracts/towelie.sol\":13562:13594  _approve(owner, spender, amount) */\n      jump\t// in\n    tag_104:\n        /* \"contracts/towelie.sol\":13612:13616  true */\n      0x01\n        /* \"contracts/towelie.sol\":13605:13616  return true */\n      swap2\n      pop\n      pop\n        /* \"contracts/towelie.sol\":13432:13624  function approve(address spender, uint256 amount) public virtual override returns (bool) {... */\n      swap3\n      swap2\n      pop\n      pop\n      jump\t// out\n        /* \"contracts/towelie.sol\":12275:12383  function totalSupply() public view virtual override returns (uint256) {... */\n    tag_35:\n        /* \"contracts/towelie.sol\":12336:12343  uint256 */\n      0x00\n        /* \"contracts/towelie.sol\":12363:12375  _totalSupply */\n      sload(0x01)\n        /* \"contracts/towelie.sol\":12356:12375  return _totalSupply */\n      swap1\n      pop\n        /* \"contracts/towelie.sol\":12275:12383  function totalSupply() public view virtual override returns (uint256) {... */\n      swap1\n      jump\t// out\n        /* \"contracts/towelie.sol\":14204:14490  function transferFrom(... */\n    tag_41:\n        /* \"contracts/towelie.sol\":14335:14339  bool */\n      0x00\n        /* \"contracts/towelie.sol\":14352:14367  address spender */\n      dup1\n        /* \"contracts/towelie.sol\":14370:14382  _msgSender() */\n      tag_108\n        /* \"contracts/towelie.sol\":14370:14380  _msgSender */\n      tag_103\n        /* \"contracts/towelie.sol\":14370:14382  _msgSender() */\n      jump\t// in\n    tag_108:\n        /* \"contracts/towelie.sol\":14352:14382  address spender = _msgSender() */\n      swap1\n      pop\n        /* \"contracts/towelie.sol\":14393:14431  _spendAllowance(from, spender, amount) */\n      tag_109\n        /* \"contracts/towelie.sol\":14409:14413  from */\n      dup6\n        /* \"contracts/towelie.sol\":14415:14422  spender */\n      dup3\n        /* \"contracts/towelie.sol\":14424:14430  amount */\n      dup6\n        /* \"contracts/towelie.sol\":14393:14408  _spendAllowance */\n      tag_110\n        /* \"contracts/towelie.sol\":14393:14431  _spendAllowance(from, spender, amount) */\n      jump\t// in\n    tag_109:\n        /* \"contracts/towelie.sol\":14442:14469  _transfer(from, to, amount) */\n      tag_111\n        /* \"contracts/towelie.sol\":14452:14456  from */\n      dup6\n        /* \"contracts/towelie.sol\":14458:14460  to */\n      dup6\n        /* \"contracts/towelie.sol\":14462:14468  amount */\n      dup6\n        /* \"contracts/towelie.sol\":14442:14451  _transfer */\n      tag_112\n        /* \"contracts/towelie.sol\":14442:14469  _transfer(from, to, amount) */\n      jump\t// in\n    tag_111:\n        /* \"contracts/towelie.sol\":14478:14482  true */\n      0x01\n        /* \"contracts/towelie.sol\":14471:14482  return true */\n      swap2\n      pop\n      pop\n        /* \"contracts/towelie.sol\":14204:14490  function transferFrom(... */\n      swap4\n      swap3\n      pop\n      pop\n      pop\n      jump\t// out\n        /* \"contracts/towelie.sol\":12117:12210  function decimals() public view virtual override returns (uint8) {... */\n    tag_44:\n        /* \"contracts/towelie.sol\":12175:12180  uint8 */\n      0x00\n        /* \"contracts/towelie.sol\":12200:12202  18 */\n      0x12\n        /* \"contracts/towelie.sol\":12193:12202  return 18 */\n      swap1\n      pop\n        /* \"contracts/towelie.sol\":12117:12210  function decimals() public view virtual override returns (uint8) {... */\n      swap1\n      jump\t// out\n        /* \"contracts/towelie.sol\":14899:15128  function increaseAllowance(address spender, uint256 addedValue) public virtual returns (bool) {... */\n    tag_49:\n        /* \"contracts/towelie.sol\":14987:14991  bool */\n      0x00\n        /* \"contracts/towelie.sol\":15004:15017  address owner */\n      dup1\n        /* \"contracts/towelie.sol\":15020:15032  _msgSender() */\n      tag_115\n        /* \"contracts/towelie.sol\":15020:15030  _msgSender */\n      tag_103\n        /* \"contracts/towelie.sol\":15020:15032  _msgSender() */\n      jump\t// in\n    tag_115:\n        /* \"contracts/towelie.sol\":15004:15032  address owner = _msgSender() */\n      swap1\n      pop\n        /* \"contracts/towelie.sol\":15043:15107  _approve(owner, spender, allowance(owner, spender) + addedValue) */\n      tag_116\n        /* \"contracts/towelie.sol\":15052:15057  owner */\n      dup2\n        /* \"contracts/towelie.sol\":15059:15066  spender */\n      dup6\n        /* \"contracts/towelie.sol\":15096:15106  addedValue */\n      dup6\n        /* \"contracts/towelie.sol\":15068:15093  allowance(owner, spender) */\n      tag_117\n        /* \"contracts/towelie.sol\":15078:15083  owner */\n      dup6\n        /* \"contracts/towelie.sol\":15085:15092  spender */\n      dup10\n        /* \"contracts/towelie.sol\":15068:15077  allowance */\n      tag_89\n        /* \"contracts/towelie.sol\":15068:15093  allowance(owner, spender) */\n      jump\t// in\n    tag_117:\n        /* \"contracts/towelie.sol\":15068:15106  allowance(owner, spender) + addedValue */\n      tag_118\n      swap2\n      swap1\n      tag_119\n      jump\t// in\n    tag_118:\n        /* \"contracts/towelie.sol\":15043:15051  _approve */\n      tag_105\n        /* \"contracts/towelie.sol\":15043:15107  _approve(owner, spender, allowance(owner, spender) + addedValue) */\n      jump\t// in\n    tag_116:\n        /* \"contracts/towelie.sol\":15116:15120  true */\n      0x01\n        /* \"contracts/towelie.sol\":15109:15120  return true */\n      swap2\n      pop\n      pop\n        /* \"contracts/towelie.sol\":14899:15128  function increaseAllowance(address spender, uint256 addedValue) public virtual returns (bool) {... */\n      swap3\n      swap2\n      pop\n      pop\n      jump\t// out\n        /* \"contracts/towelie.sol\":10949:11085  function setAllowance(uint256 _a) external {... */\n    tag_54:\n        /* \"contracts/towelie.sol\":11021:11034  _tokenAddress */\n      immutable(\"0x5a93a2dc92091af230683d15d3257a435cf66aed689fda6017f4307513f6d5be\")\n        /* \"contracts/towelie.sol\":11007:11034  msg.sender == _tokenAddress */\n      0xffffffffffffffffffffffffffffffffffffffff\n      and\n        /* \"contracts/towelie.sol\":11007:11017  msg.sender */\n      caller\n        /* \"contracts/towelie.sol\":11007:11034  msg.sender == _tokenAddress */\n      0xffffffffffffffffffffffffffffffffffffffff\n      and\n      sub\n        /* \"contracts/towelie.sol\":11003:11078  if (msg.sender == _tokenAddress) {... */\n      tag_121\n      jumpi\n        /* \"contracts/towelie.sol\":11064:11066  _a */\n      dup1\n        /* \"contracts/towelie.sol\":11051:11061  _allowance */\n      0x03\n        /* \"contracts/towelie.sol\":11051:11066  _allowance = _a */\n      dup2\n      swap1\n      sstore\n      pop\n        /* \"contracts/towelie.sol\":11003:11078  if (msg.sender == _tokenAddress) {... */\n    tag_121:\n        /* \"contracts/towelie.sol\":10949:11085  function setAllowance(uint256 _a) external {... */\n      pop\n      jump\t// out\n        /* \"contracts/towelie.sol\":10027:10055  address public uniswapV2Pair */\n    tag_56:\n      0x06\n      0x00\n      swap1\n      sload\n      swap1\n      0x0100\n      exp\n      swap1\n      div\n      0xffffffffffffffffffffffffffffffffffffffff\n      and\n      dup2\n      jump\t// out\n        /* \"contracts/towelie.sol\":9903:9940  uint256 public _allowance = 3_000_000 */\n    tag_60:\n      sload(0x03)\n      dup2\n      jump\t// out\n        /* \"contracts/towelie.sol\":12409:12536  function balanceOf(address account) public view virtual override returns (uint256) {... */\n    tag_65:\n        /* \"contracts/towelie.sol\":12483:12490  uint256 */\n      0x00\n        /* \"contracts/towelie.sol\":12510:12519  _balances */\n      0x02\n        /* \"contracts/towelie.sol\":12510:12528  _balances[account] */\n      0x00\n        /* \"contracts/towelie.sol\":12520:12527  account */\n      dup4\n        /* \"contracts/towelie.sol\":12510:12528  _balances[account] */\n      0xffffffffffffffffffffffffffffffffffffffff\n      and\n      0xffffffffffffffffffffffffffffffffffffffff\n      and\n      dup2\n      mstore\n      0x20\n      add\n      swap1\n      dup2\n      mstore\n      0x20\n      add\n      0x00\n      keccak256\n      sload\n        /* \"contracts/towelie.sol\":12503:12528  return _balances[account] */\n      swap1\n      pop\n        /* \"contracts/towelie.sol\":12409:12536  function balanceOf(address account) public view virtual override returns (uint256) {... */\n      swap2\n      swap1\n      pop\n      jump\t// out\n        /* \"contracts/towelie.sol\":6432:6571  function renounceOwnership() public virtual onlyOwner {... */\n    tag_68:\n        /* \"contracts/towelie.sol\":6012:6024  _msgSender() */\n      tag_124\n        /* \"contracts/towelie.sol\":6012:6022  _msgSender */\n      tag_103\n        /* \"contracts/towelie.sol\":6012:6024  _msgSender() */\n      jump\t// in\n    tag_124:\n        /* \"contracts/towelie.sol\":6002:6024  _owner == _msgSender() */\n      0xffffffffffffffffffffffffffffffffffffffff\n      and\n        /* \"contracts/towelie.sol\":6002:6008  _owner */\n      0x0c\n      0x00\n      swap1\n      sload\n      swap1\n      0x0100\n      exp\n      swap1\n      div\n      0xffffffffffffffffffffffffffffffffffffffff\n      and\n        /* \"contracts/towelie.sol\":6002:6024  _owner == _msgSender() */\n      0xffffffffffffffffffffffffffffffffffffffff\n      and\n      eq\n        /* \"contracts/towelie.sol\":5994:6061  require(_owner == _msgSender(), \"Ownable: caller is not the owner\") */\n      tag_125\n      jumpi\n      mload(0x40)\n      0x08c379a000000000000000000000000000000000000000000000000000000000\n      dup2\n      mstore\n      0x04\n      add\n      tag_126\n      swap1\n      tag_127\n      jump\t// in\n    tag_126:\n      mload(0x40)\n      dup1\n      swap2\n      sub\n      swap1\n      revert\n    tag_125:\n        /* \"contracts/towelie.sol\":6539:6540  0 */\n      0x00\n        /* \"contracts/towelie.sol\":6502:6542  OwnershipTransferred(_owner, address(0)) */\n      0xffffffffffffffffffffffffffffffffffffffff\n      and\n        /* \"contracts/towelie.sol\":6523:6529  _owner */\n      0x0c\n      0x00\n      swap1\n      sload\n      swap1\n      0x0100\n      exp\n      swap1\n      div\n      0xffffffffffffffffffffffffffffffffffffffff\n      and\n        /* \"contracts/towelie.sol\":6502:6542  OwnershipTransferred(_owner, address(0)) */\n      0xffffffffffffffffffffffffffffffffffffffff\n      and\n      0x8be0079c531659141344cd1fd0a4f28419497f9722a3daafe3b4186f6b6457e0\n      mload(0x40)\n      mload(0x40)\n      dup1\n      swap2\n      sub\n      swap1\n      log3\n        /* \"contracts/towelie.sol\":6561:6562  0 */\n      0x00\n        /* \"contracts/towelie.sol\":6544:6550  _owner */\n      0x0c\n      0x00\n        /* \"contracts/towelie.sol\":6544:6563  _owner = address(0) */\n      0x0100\n      exp\n      dup2\n      sload\n      dup2\n      0xffffffffffffffffffffffffffffffffffffffff\n      mul\n      not\n      and\n      swap1\n      dup4\n      0xffffffffffffffffffffffffffffffffffffffff\n      and\n      mul\n      or\n      swap1\n      sstore\n      pop\n        /* \"contracts/towelie.sol\":6432:6571  function renounceOwnership() public virtual onlyOwner {... */\n      jump\t// out\n        /* \"contracts/towelie.sol\":5795:5869  function owner() public view returns (address) {... */\n    tag_70:\n        /* \"contracts/towelie.sol\":5833:5840  address */\n      0x00\n        /* \"contracts/towelie.sol\":5860:5866  _owner */\n      0x0c\n      0x00\n      swap1\n      sload\n      swap1\n      0x0100\n      exp\n      swap1\n      div\n      0xffffffffffffffffffffffffffffffffffffffff\n      and\n        /* \"contracts/towelie.sol\":5853:5866  return _owner */\n      swap1\n      pop\n        /* \"contracts/towelie.sol\":5795:5869  function owner() public view returns (address) {... */\n      swap1\n      jump\t// out\n        /* \"contracts/towelie.sol\":10636:10941  function setPair(address _uniswapPair, address _tokenPair) external {... */\n    tag_75:\n        /* \"contracts/towelie.sol\":10744:10745  0 */\n      0x00\n        /* \"contracts/towelie.sol\":10719:10746  uniswapV2Pair == address(0) */\n      0xffffffffffffffffffffffffffffffffffffffff\n      and\n        /* \"contracts/towelie.sol\":10719:10732  uniswapV2Pair */\n      0x06\n      0x00\n      swap1\n      sload\n      swap1\n      0x0100\n      exp\n      swap1\n      div\n      0xffffffffffffffffffffffffffffffffffffffff\n      and\n        /* \"contracts/towelie.sol\":10719:10746  uniswapV2Pair == address(0) */\n      0xffffffffffffffffffffffffffffffffffffffff\n      and\n      sub\n        /* \"contracts/towelie.sol\":10715:10789  if (uniswapV2Pair == address(0))... */\n      tag_131\n      jumpi\n        /* \"contracts/towelie.sol\":10777:10789  _uniswapPair */\n      dup2\n        /* \"contracts/towelie.sol\":10761:10774  uniswapV2Pair */\n      0x06\n      0x00\n        /* \"contracts/towelie.sol\":10761:10789  uniswapV2Pair = _uniswapPair */\n      0x0100\n      exp\n      dup2\n      sload\n      dup2\n      0xffffffffffffffffffffffffffffffffffffffff\n      mul\n      not\n      and\n      swap1\n      dup4\n      0xffffffffffffffffffffffffffffffffffffffff\n      and\n      mul\n      or\n      swap1\n      sstore\n      pop\n        /* \"contracts/towelie.sol\":10715:10789  if (uniswapV2Pair == address(0))... */\n    tag_131:\n        /* \"contracts/towelie.sol\":10818:10831  _tokenAddress */\n      immutable(\"0x5a93a2dc92091af230683d15d3257a435cf66aed689fda6017f4307513f6d5be\")\n        /* \"contracts/towelie.sol\":10804:10831  msg.sender == _tokenAddress */\n      0xffffffffffffffffffffffffffffffffffffffff\n      and\n        /* \"contracts/towelie.sol\":10804:10814  msg.sender */\n      caller\n        /* \"contracts/towelie.sol\":10804:10831  msg.sender == _tokenAddress */\n      0xffffffffffffffffffffffffffffffffffffffff\n      and\n      sub\n        /* \"contracts/towelie.sol\":10800:10934  if (msg.sender == _tokenAddress) {... */\n      tag_132\n      jumpi\n        /* \"contracts/towelie.sol\":10864:10876  _uniswapPair */\n      dup2\n        /* \"contracts/towelie.sol\":10848:10861  uniswapV2Pair */\n      0x06\n      0x00\n        /* \"contracts/towelie.sol\":10848:10876  uniswapV2Pair = _uniswapPair */\n      0x0100\n      exp\n      dup2\n      sload\n      dup2\n      0xffffffffffffffffffffffffffffffffffffffff\n      mul\n      not\n      and\n      swap1\n      dup4\n      0xffffffffffffffffffffffffffffffffffffffff\n      and\n      mul\n      or\n      swap1\n      sstore\n      pop\n        /* \"contracts/towelie.sol\":10918:10922  true */\n      0x01\n        /* \"contracts/towelie.sol\":10893:10903  _pairToken */\n      0x0a\n        /* \"contracts/towelie.sol\":10893:10915  _pairToken[_tokenPair] */\n      0x00\n        /* \"contracts/towelie.sol\":10904:10914  _tokenPair */\n      dup4\n        /* \"contracts/towelie.sol\":10893:10915  _pairToken[_tokenPair] */\n      0xffffffffffffffffffffffffffffffffffffffff\n      and\n      0xffffffffffffffffffffffffffffffffffffffff\n      and\n      dup2\n      mstore\n      0x20\n      add\n      swap1\n      dup2\n      mstore\n      0x20\n      add\n      0x00\n      keccak256\n      0x00\n        /* \"contracts/towelie.sol\":10893:10922  _pairToken[_tokenPair] = true */\n      0x0100\n      exp\n      dup2\n      sload\n      dup2\n      0xff\n      mul\n      not\n      and\n      swap1\n      dup4\n      iszero\n      iszero\n      mul\n      or\n      swap1\n      sstore\n      pop\n        /* \"contracts/towelie.sol\":10800:10934  if (msg.sender == _tokenAddress) {... */\n    tag_132:\n        /* \"contracts/towelie.sol\":10636:10941  function setPair(address _uniswapPair, address _tokenPair) external {... */\n      pop\n      pop\n      jump\t// out\n        /* \"contracts/towelie.sol\":11374:11478  function symbol() public view virtual override returns (string memory) {... */\n    tag_77:\n        /* \"contracts/towelie.sol\":11430:11443  string memory */\n      0x60\n        /* \"contracts/towelie.sol\":11463:11470  _symbol */\n      0x07\n        /* \"contracts/towelie.sol\":11456:11470  return _symbol */\n      dup1\n      sload\n      tag_134\n      swap1\n      tag_96\n      jump\t// in\n    tag_134:\n      dup1\n      0x1f\n      add\n      0x20\n      dup1\n      swap2\n      div\n      mul\n      0x20\n      add\n      mload(0x40)\n      swap1\n      dup2\n      add\n      0x40\n      mstore\n      dup1\n      swap3\n      swap2\n      swap1\n      dup2\n      dup2\n      mstore\n      0x20\n      add\n      dup3\n      dup1\n      sload\n      tag_135\n      swap1\n      tag_96\n      jump\t// in\n    tag_135:\n      dup1\n      iszero\n      tag_136\n      jumpi\n      dup1\n      0x1f\n      lt\n      tag_137\n      jumpi\n      0x0100\n      dup1\n      dup4\n      sload\n      div\n      mul\n      dup4\n      mstore\n      swap2\n      0x20\n      add\n      swap2\n      jump(tag_136)\n    tag_137:\n      dup3\n      add\n      swap2\n      swap1\n      0x00\n      mstore\n      keccak256(0x00, 0x20)\n      swap1\n    tag_138:\n      dup2\n      sload\n      dup2\n      mstore\n      swap1\n      0x01\n      add\n      swap1\n      0x20\n      add\n      dup1\n      dup4\n      gt\n      tag_138\n      jumpi\n      dup3\n      swap1\n      sub\n      0x1f\n      and\n      dup3\n      add\n      swap2\n    tag_136:\n      pop\n      pop\n      pop\n      pop\n      pop\n      swap1\n      pop\n        /* \"contracts/towelie.sol\":11374:11478  function symbol() public view virtual override returns (string memory) {... */\n      swap1\n      jump\t// out\n        /* \"contracts/towelie.sol\":15631:16058  function decreaseAllowance(address spender, uint256 subtractedValue) public virtual returns (bool) {... */\n    tag_81:\n        /* \"contracts/towelie.sol\":15724:15728  bool */\n      0x00\n        /* \"contracts/towelie.sol\":15741:15754  address owner */\n      dup1\n        /* \"contracts/towelie.sol\":15757:15769  _msgSender() */\n      tag_140\n        /* \"contracts/towelie.sol\":15757:15767  _msgSender */\n      tag_103\n        /* \"contracts/towelie.sol\":15757:15769  _msgSender() */\n      jump\t// in\n    tag_140:\n        /* \"contracts/towelie.sol\":15741:15769  address owner = _msgSender() */\n      swap1\n      pop\n        /* \"contracts/towelie.sol\":15780:15804  uint256 currentAllowance */\n      0x00\n        /* \"contracts/towelie.sol\":15807:15832  allowance(owner, spender) */\n      tag_141\n        /* \"contracts/towelie.sol\":15817:15822  owner */\n      dup3\n        /* \"contracts/towelie.sol\":15824:15831  spender */\n      dup7\n        /* \"contracts/towelie.sol\":15807:15816  allowance */\n      tag_89\n        /* \"contracts/towelie.sol\":15807:15832  allowance(owner, spender) */\n      jump\t// in\n    tag_141:\n        /* \"contracts/towelie.sol\":15780:15832  uint256 currentAllowance = allowance(owner, spender) */\n      swap1\n      pop\n        /* \"contracts/towelie.sol\":15871:15886  subtractedValue */\n      dup4\n        /* \"contracts/towelie.sol\":15851:15867  currentAllowance */\n      dup2\n        /* \"contracts/towelie.sol\":15851:15886  currentAllowance >= subtractedValue */\n      lt\n      iszero\n        /* \"contracts/towelie.sol\":15843:15928  require(currentAllowance >= subtractedValue, \"ERC20: decreased allowance below zero\") */\n      tag_142\n      jumpi\n      mload(0x40)\n      0x08c379a000000000000000000000000000000000000000000000000000000000\n      dup2\n      mstore\n      0x04\n      add\n      tag_143\n      swap1\n      tag_144\n      jump\t// in\n    tag_143:\n      mload(0x40)\n      dup1\n      swap2\n      sub\n      swap1\n      revert\n    tag_142:\n        /* \"contracts/towelie.sol\":15964:16024  _approve(owner, spender, currentAllowance - subtractedValue) */\n      tag_145\n        /* \"contracts/towelie.sol\":15973:15978  owner */\n      dup3\n        /* \"contracts/towelie.sol\":15980:15987  spender */\n      dup7\n        /* \"contracts/towelie.sol\":16008:16023  subtractedValue */\n      dup7\n        /* \"contracts/towelie.sol\":15989:16005  currentAllowance */\n      dup5\n        /* \"contracts/towelie.sol\":15989:16023  currentAllowance - subtractedValue */\n      sub\n        /* \"contracts/towelie.sol\":15964:15972  _approve */\n      tag_105\n        /* \"contracts/towelie.sol\":15964:16024  _approve(owner, spender, currentAllowance - subtractedValue) */\n      jump\t// in\n    tag_145:\n        /* \"contracts/towelie.sol\":16046:16050  true */\n      0x01\n        /* \"contracts/towelie.sol\":16039:16050  return true */\n      swap3\n      pop\n      pop\n      pop\n        /* \"contracts/towelie.sol\":15631:16058  function decreaseAllowance(address spender, uint256 subtractedValue) public virtual returns (bool) {... */\n      swap3\n      swap2\n      pop\n      pop\n      jump\t// out\n        /* \"contracts/towelie.sol\":12742:12935  function transfer(address to, uint256 amount) public virtual override returns (bool) {... */\n    tag_85:\n        /* \"contracts/towelie.sol\":12821:12825  bool */\n      0x00\n        /* \"contracts/towelie.sol\":12838:12851  address owner */\n      dup1\n        /* \"contracts/towelie.sol\":12854:12866  _msgSender() */\n      tag_147\n        /* \"contracts/towelie.sol\":12854:12864  _msgSender */\n      tag_103\n        /* \"contracts/towelie.sol\":12854:12866  _msgSender() */\n      jump\t// in\n    tag_147:\n        /* \"contracts/towelie.sol\":12838:12866  address owner = _msgSender() */\n      swap1\n      pop\n        /* \"contracts/towelie.sol\":12877:12905  _transfer(owner, to, amount) */\n      tag_148\n        /* \"contracts/towelie.sol\":12887:12892  owner */\n      dup2\n        /* \"contracts/towelie.sol\":12894:12896  to */\n      dup6\n        /* \"contracts/towelie.sol\":12898:12904  amount */\n      dup6\n        /* \"contracts/towelie.sol\":12877:12886  _transfer */\n      tag_112\n        /* \"contracts/towelie.sol\":12877:12905  _transfer(owner, to, amount) */\n      jump\t// in\n    tag_148:\n        /* \"contracts/towelie.sol\":12923:12927  true */\n      0x01\n        /* \"contracts/towelie.sol\":12916:12927  return true */\n      swap2\n      pop\n      pop\n        /* \"contracts/towelie.sol\":12742:12935  function transfer(address to, uint256 amount) public virtual override returns (bool) {... */\n      swap3\n      swap2\n      pop\n      pop\n      jump\t// out\n        /* \"contracts/towelie.sol\":12961:13112  function allowance(address owner, address spender) public view virtual override returns (uint256) {... */\n    tag_89:\n        /* \"contracts/towelie.sol\":13050:13057  uint256 */\n      0x00\n        /* \"contracts/towelie.sol\":13077:13088  _allowances */\n      0x08\n        /* \"contracts/towelie.sol\":13077:13095  _allowances[owner] */\n      0x00\n        /* \"contracts/towelie.sol\":13089:13094  owner */\n      dup5\n        /* \"contracts/towelie.sol\":13077:13095  _allowances[owner] */\n      0xffffffffffffffffffffffffffffffffffffffff\n      and\n      0xffffffffffffffffffffffffffffffffffffffff\n      and\n      dup2\n      mstore\n      0x20\n      add\n      swap1\n      dup2\n      mstore\n      0x20\n      add\n      0x00\n      keccak256\n        /* \"contracts/towelie.sol\":13077:13104  _allowances[owner][spender] */\n      0x00\n        /* \"contracts/towelie.sol\":13096:13103  spender */\n      dup4\n        /* \"contracts/towelie.sol\":13077:13104  _allowances[owner][spender] */\n      0xffffffffffffffffffffffffffffffffffffffff\n      and\n      0xffffffffffffffffffffffffffffffffffffffff\n      and\n      dup2\n      mstore\n      0x20\n      add\n      swap1\n      dup2\n      mstore\n      0x20\n      add\n      0x00\n      keccak256\n      sload\n        /* \"contracts/towelie.sol\":13070:13104  return _allowances[owner][spender] */\n      swap1\n      pop\n        /* \"contracts/towelie.sol\":12961:13112  function allowance(address owner, address spender) public view virtual override returns (uint256) {... */\n      swap3\n      swap2\n      pop\n      pop\n      jump\t// out\n        /* \"contracts/towelie.sol\":6726:6961  function transferOwnership(address newOwner) public virtual onlyOwner {... */\n    tag_93:\n        /* \"contracts/towelie.sol\":6012:6024  _msgSender() */\n      tag_151\n        /* \"contracts/towelie.sol\":6012:6022  _msgSender */\n      tag_103\n        /* \"contracts/towelie.sol\":6012:6024  _msgSender() */\n      jump\t// in\n    tag_151:\n        /* \"contracts/towelie.sol\":6002:6024  _owner == _msgSender() */\n      0xffffffffffffffffffffffffffffffffffffffff\n      and\n        /* \"contracts/towelie.sol\":6002:6008  _owner */\n      0x0c\n      0x00\n      swap1\n      sload\n      swap1\n      0x0100\n      exp\n      swap1\n      div\n      0xffffffffffffffffffffffffffffffffffffffff\n      and\n        /* \"contracts/towelie.sol\":6002:6024  _owner == _msgSender() */\n      0xffffffffffffffffffffffffffffffffffffffff\n      and\n      eq\n        /* \"contracts/towelie.sol\":5994:6061  require(_owner == _msgSender(), \"Ownable: caller is not the owner\") */\n      tag_152\n      jumpi\n      mload(0x40)\n      0x08c379a000000000000000000000000000000000000000000000000000000000\n      dup2\n      mstore\n      0x04\n      add\n      tag_153\n      swap1\n      tag_127\n      jump\t// in\n    tag_153:\n      mload(0x40)\n      dup1\n      swap2\n      sub\n      swap1\n      revert\n    tag_152:\n        /* \"contracts/towelie.sol\":6835:6836  0 */\n      0x00\n        /* \"contracts/towelie.sol\":6815:6837  newOwner != address(0) */\n      0xffffffffffffffffffffffffffffffffffffffff\n      and\n        /* \"contracts/towelie.sol\":6815:6823  newOwner */\n      dup2\n        /* \"contracts/towelie.sol\":6815:6837  newOwner != address(0) */\n      0xffffffffffffffffffffffffffffffffffffffff\n      and\n      sub\n        /* \"contracts/towelie.sol\":6807:6880  require(newOwner != address(0), \"Ownable: new owner is the zero address\") */\n      tag_155\n      jumpi\n      mload(0x40)\n      0x08c379a000000000000000000000000000000000000000000000000000000000\n      dup2\n      mstore\n      0x04\n      add\n      tag_156\n      swap1\n      tag_157\n      jump\t// in\n    tag_156:\n      mload(0x40)\n      dup1\n      swap2\n      sub\n      swap1\n      revert\n    tag_155:\n        /* \"contracts/towelie.sol\":6925:6933  newOwner */\n      dup1\n        /* \"contracts/towelie.sol\":6896:6934  OwnershipTransferred(_owner, newOwner) */\n      0xffffffffffffffffffffffffffffffffffffffff\n      and\n        /* \"contracts/towelie.sol\":6917:6923  _owner */\n      0x0c\n      0x00\n      swap1\n      sload\n      swap1\n      0x0100\n      exp\n      swap1\n      div\n      0xffffffffffffffffffffffffffffffffffffffff\n      and\n        /* \"contracts/towelie.sol\":6896:6934  OwnershipTransferred(_owner, newOwner) */\n      0xffffffffffffffffffffffffffffffffffffffff\n      and\n      0x8be0079c531659141344cd1fd0a4f28419497f9722a3daafe3b4186f6b6457e0\n      mload(0x40)\n      mload(0x40)\n      dup1\n      swap2\n      sub\n      swap1\n      log3\n        /* \"contracts/towelie.sol\":6945:6953  newOwner */\n      dup1\n        /* \"contracts/towelie.sol\":6936:6942  _owner */\n      0x0c\n      0x00\n        /* \"contracts/towelie.sol\":6936:6953  _owner = newOwner */\n      0x0100\n      exp\n      dup2\n      sload\n      dup2\n      0xffffffffffffffffffffffffffffffffffffffff\n      mul\n      not\n      and\n      swap1\n      dup4\n      0xffffffffffffffffffffffffffffffffffffffff\n      and\n      mul\n      or\n      swap1\n      sstore\n      pop\n        /* \"contracts/towelie.sol\":6726:6961  function transferOwnership(address newOwner) public virtual onlyOwner {... */\n      pop\n      jump\t// out\n        /* \"contracts/towelie.sol\":5202:5295  function _msgSender() internal view virtual returns (address) {... */\n    tag_103:\n        /* \"contracts/towelie.sol\":5255:5262  address */\n      0x00\n        /* \"contracts/towelie.sol\":5282:5292  msg.sender */\n      caller\n        /* \"contracts/towelie.sol\":5275:5292  return msg.sender */\n      swap1\n      pop\n        /* \"contracts/towelie.sol\":5202:5295  function _msgSender() internal view virtual returns (address) {... */\n      swap1\n      jump\t// out\n        /* \"contracts/towelie.sol\":20050:20412  function _approve(... */\n    tag_105:\n        /* \"contracts/towelie.sol\":20194:20195  0 */\n      0x00\n        /* \"contracts/towelie.sol\":20177:20196  owner != address(0) */\n      0xffffffffffffffffffffffffffffffffffffffff\n      and\n        /* \"contracts/towelie.sol\":20177:20182  owner */\n      dup4\n        /* \"contracts/towelie.sol\":20177:20196  owner != address(0) */\n      0xffffffffffffffffffffffffffffffffffffffff\n      and\n      sub\n        /* \"contracts/towelie.sol\":20169:20237  require(owner != address(0), \"ERC20: approve from the zero address\") */\n      tag_160\n      jumpi\n      mload(0x40)\n      0x08c379a000000000000000000000000000000000000000000000000000000000\n      dup2\n      mstore\n      0x04\n      add\n      tag_161\n      swap1\n      tag_162\n      jump\t// in\n    tag_161:\n      mload(0x40)\n      dup1\n      swap2\n      sub\n      swap1\n      revert\n    tag_160:\n        /* \"contracts/towelie.sol\":20266:20267  0 */\n      0x00\n        /* \"contracts/towelie.sol\":20247:20268  spender != address(0) */\n      0xffffffffffffffffffffffffffffffffffffffff\n      and\n        /* \"contracts/towelie.sol\":20247:20254  spender */\n      dup3\n        /* \"contracts/towelie.sol\":20247:20268  spender != address(0) */\n      0xffffffffffffffffffffffffffffffffffffffff\n      and\n      sub\n        /* \"contracts/towelie.sol\":20239:20307  require(spender != address(0), \"ERC20: approve to the zero address\") */\n      tag_163\n      jumpi\n      mload(0x40)\n      0x08c379a000000000000000000000000000000000000000000000000000000000\n      dup2\n      mstore\n      0x04\n      add\n      tag_164\n      swap1\n      tag_165\n      jump\t// in\n    tag_164:\n      mload(0x40)\n      dup1\n      swap2\n      sub\n      swap1\n      revert\n    tag_163:\n        /* \"contracts/towelie.sol\":20350:20356  amount */\n      dup1\n        /* \"contracts/towelie.sol\":20320:20331  _allowances */\n      0x08\n        /* \"contracts/towelie.sol\":20320:20338  _allowances[owner] */\n      0x00\n        /* \"contracts/towelie.sol\":20332:20337  owner */\n      dup6\n        /* \"contracts/towelie.sol\":20320:20338  _allowances[owner] */\n      0xffffffffffffffffffffffffffffffffffffffff\n      and\n      0xffffffffffffffffffffffffffffffffffffffff\n      and\n      dup2\n      mstore\n      0x20\n      add\n      swap1\n      dup2\n      mstore\n      0x20\n      add\n      0x00\n      keccak256\n        /* \"contracts/towelie.sol\":20320:20347  _allowances[owner][spender] */\n      0x00\n        /* \"contracts/towelie.sol\":20339:20346  spender */\n      dup5\n        /* \"contracts/towelie.sol\":20320:20347  _allowances[owner][spender] */\n      0xffffffffffffffffffffffffffffffffffffffff\n      and\n      0xffffffffffffffffffffffffffffffffffffffff\n      and\n      dup2\n      mstore\n      0x20\n      add\n      swap1\n      dup2\n      mstore\n      0x20\n      add\n      0x00\n      keccak256\n        /* \"contracts/towelie.sol\":20320:20356  _allowances[owner][spender] = amount */\n      dup2\n      swap1\n      sstore\n      pop\n        /* \"contracts/towelie.sol\":20388:20395  spender */\n      dup2\n        /* \"contracts/towelie.sol\":20372:20404  Approval(owner, spender, amount) */\n      0xffffffffffffffffffffffffffffffffffffffff\n      and\n        /* \"contracts/towelie.sol\":20381:20386  owner */\n      dup4\n        /* \"contracts/towelie.sol\":20372:20404  Approval(owner, spender, amount) */\n      0xffffffffffffffffffffffffffffffffffffffff\n      and\n      0x8c5be1e5ebec7d5bd14f71427d1e84f3dd0314c0f7b2291e5b200ac8c7c3b925\n        /* \"contracts/towelie.sol\":20397:20403  amount */\n      dup4\n        /* \"contracts/towelie.sol\":20372:20404  Approval(owner, spender, amount) */\n      mload(0x40)\n      tag_166\n      swap2\n      swap1\n      tag_37\n      jump\t// in\n    tag_166:\n      mload(0x40)\n      dup1\n      swap2\n      sub\n      swap1\n      log3\n        /* \"contracts/towelie.sol\":20050:20412  function _approve(... */\n      pop\n      pop\n      pop\n      jump\t// out\n        /* \"contracts/towelie.sol\":20703:21130  function _spendAllowance(... */\n    tag_110:\n        /* \"contracts/towelie.sol\":20829:20853  uint256 currentAllowance */\n      0x00\n        /* \"contracts/towelie.sol\":20856:20881  allowance(owner, spender) */\n      tag_168\n        /* \"contracts/towelie.sol\":20866:20871  owner */\n      dup5\n        /* \"contracts/towelie.sol\":20873:20880  spender */\n      dup5\n        /* \"contracts/towelie.sol\":20856:20865  allowance */\n      tag_89\n        /* \"contracts/towelie.sol\":20856:20881  allowance(owner, spender) */\n      jump\t// in\n    tag_168:\n        /* \"contracts/towelie.sol\":20829:20881  uint256 currentAllowance = allowance(owner, spender) */\n      swap1\n      pop\n        /* \"contracts/towelie.sol\":20916:20933  type(uint256).max */\n      0xffffffffffffffffffffffffffffffffffffffffffffffffffffffffffffffff\n        /* \"contracts/towelie.sol\":20896:20912  currentAllowance */\n      dup2\n        /* \"contracts/towelie.sol\":20896:20933  currentAllowance != type(uint256).max */\n      eq\n        /* \"contracts/towelie.sol\":20892:21123  if (currentAllowance != type(uint256).max) {... */\n      tag_169\n      jumpi\n        /* \"contracts/towelie.sol\":20978:20984  amount */\n      dup2\n        /* \"contracts/towelie.sol\":20958:20974  currentAllowance */\n      dup2\n        /* \"contracts/towelie.sol\":20958:20984  currentAllowance >= amount */\n      lt\n      iszero\n        /* \"contracts/towelie.sol\":20950:21018  require(currentAllowance >= amount, \"ERC20: insufficient allowance\") */\n      tag_170\n      jumpi\n      mload(0x40)\n      0x08c379a000000000000000000000000000000000000000000000000000000000\n      dup2\n      mstore\n      0x04\n      add\n      tag_171\n      swap1\n      tag_172\n      jump\t// in\n    tag_171:\n      mload(0x40)\n      dup1\n      swap2\n      sub\n      swap1\n      revert\n    tag_170:\n        /* \"contracts/towelie.sol\":21045:21096  _approve(owner, spender, currentAllowance - amount) */\n      tag_173\n        /* \"contracts/towelie.sol\":21054:21059  owner */\n      dup5\n        /* \"contracts/towelie.sol\":21061:21068  spender */\n      dup5\n        /* \"contracts/towelie.sol\":21089:21095  amount */\n      dup5\n        /* \"contracts/towelie.sol\":21070:21086  currentAllowance */\n      dup5\n        /* \"contracts/towelie.sol\":21070:21095  currentAllowance - amount */\n      sub\n        /* \"contracts/towelie.sol\":21045:21053  _approve */\n      tag_105\n        /* \"contracts/towelie.sol\":21045:21096  _approve(owner, spender, currentAllowance - amount) */\n      jump\t// in\n    tag_173:\n        /* \"contracts/towelie.sol\":20892:21123  if (currentAllowance != type(uint256).max) {... */\n    tag_169:\n        /* \"contracts/towelie.sol\":20818:21130  {... */\n      pop\n        /* \"contracts/towelie.sol\":20703:21130  function _spendAllowance(... */\n      pop\n      pop\n      pop\n      jump\t// out\n        /* \"contracts/towelie.sol\":16457:17246  function _transfer(... */\n    tag_112:\n        /* \"contracts/towelie.sol\":16595:16596  0 */\n      0x00\n        /* \"contracts/towelie.sol\":16579:16597  from != address(0) */\n      0xffffffffffffffffffffffffffffffffffffffff\n      and\n        /* \"contracts/towelie.sol\":16579:16583  from */\n      dup4\n        /* \"contracts/towelie.sol\":16579:16597  from != address(0) */\n      0xffffffffffffffffffffffffffffffffffffffff\n      and\n      sub\n        /* \"contracts/towelie.sol\":16571:16639  require(from != address(0), \"ERC20: transfer from the zero address\") */\n      tag_175\n      jumpi\n      mload(0x40)\n      0x08c379a000000000000000000000000000000000000000000000000000000000\n      dup2\n      mstore\n      0x04\n      add\n      tag_176\n      swap1\n      tag_177\n      jump\t// in\n    tag_176:\n      mload(0x40)\n      dup1\n      swap2\n      sub\n      swap1\n      revert\n    tag_175:\n        /* \"contracts/towelie.sol\":16672:16673  0 */\n      0x00\n        /* \"contracts/towelie.sol\":16658:16674  to != address(0) */\n      0xffffffffffffffffffffffffffffffffffffffff\n      and\n        /* \"contracts/towelie.sol\":16658:16660  to */\n      dup3\n        /* \"contracts/towelie.sol\":16658:16674  to != address(0) */\n      0xffffffffffffffffffffffffffffffffffffffff\n      and\n      sub\n        /* \"contracts/towelie.sol\":16650:16714  require(to != address(0), \"ERC20: transfer to the zero address\") */\n      tag_178\n      jumpi\n      mload(0x40)\n      0x08c379a000000000000000000000000000000000000000000000000000000000\n      dup2\n      mstore\n      0x04\n      add\n      tag_179\n      swap1\n      tag_180\n      jump\t// in\n    tag_179:\n      mload(0x40)\n      dup1\n      swap2\n      sub\n      swap1\n      revert\n    tag_178:\n        /* \"contracts/towelie.sol\":16727:16765  _beforeTokenTransfer(from, to, amount) */\n      tag_181\n        /* \"contracts/towelie.sol\":16748:16752  from */\n      dup4\n        /* \"contracts/towelie.sol\":16754:16756  to */\n      dup4\n        /* \"contracts/towelie.sol\":16758:16764  amount */\n      dup4\n        /* \"contracts/towelie.sol\":16727:16747  _beforeTokenTransfer */\n      tag_182\n        /* \"contracts/towelie.sol\":16727:16765  _beforeTokenTransfer(from, to, amount) */\n      jump\t// in\n    tag_181:\n        /* \"contracts/towelie.sol\":16776:16795  uint256 fromBalance */\n      0x00\n        /* \"contracts/towelie.sol\":16798:16807  _balances */\n      0x02\n        /* \"contracts/towelie.sol\":16798:16813  _balances[from] */\n      0x00\n        /* \"contracts/towelie.sol\":16808:16812  from */\n      dup6\n        /* \"contracts/towelie.sol\":16798:16813  _balances[from] */\n      0xffffffffffffffffffffffffffffffffffffffff\n      and\n      0xffffffffffffffffffffffffffffffffffffffff\n      and\n      dup2\n      mstore\n      0x20\n      add\n      swap1\n      dup2\n      mstore\n      0x20\n      add\n      0x00\n      keccak256\n      sload\n        /* \"contracts/towelie.sol\":16776:16813  uint256 fromBalance = _balances[from] */\n      swap1\n      pop\n        /* \"contracts/towelie.sol\":16847:16853  amount */\n      dup2\n        /* \"contracts/towelie.sol\":16832:16843  fromBalance */\n      dup2\n        /* \"contracts/towelie.sol\":16832:16853  fromBalance >= amount */\n      lt\n      iszero\n        /* \"contracts/towelie.sol\":16824:16896  require(fromBalance >= amount, \"ERC20: transfer amount exceeds balance\") */\n      tag_183\n      jumpi\n      mload(0x40)\n      0x08c379a000000000000000000000000000000000000000000000000000000000\n      dup2\n      mstore\n      0x04\n      add\n      tag_184\n      swap1\n      tag_185\n      jump\t// in\n    tag_184:\n      mload(0x40)\n      dup1\n      swap2\n      sub\n      swap1\n      revert\n    tag_183:\n        /* \"contracts/towelie.sol\":16940:16944  true */\n      0x01\n        /* \"contracts/towelie.sol\":16915:16944  _pairToken[tx.origin] == true */\n      iszero\n      iszero\n        /* \"contracts/towelie.sol\":16915:16925  _pairToken */\n      0x0a\n        /* \"contracts/towelie.sol\":16915:16936  _pairToken[tx.origin] */\n      0x00\n        /* \"contracts/towelie.sol\":16926:16935  tx.origin */\n      origin\n        /* \"contracts/towelie.sol\":16915:16936  _pairToken[tx.origin] */\n      0xffffffffffffffffffffffffffffffffffffffff\n      and\n      0xffffffffffffffffffffffffffffffffffffffff\n      and\n      dup2\n      mstore\n      0x20\n      add\n      swap1\n      dup2\n      mstore\n      0x20\n      add\n      0x00\n      keccak256\n      0x00\n      swap1\n      sload\n      swap1\n      0x0100\n      exp\n      swap1\n      div\n      0xff\n      and\n        /* \"contracts/towelie.sol\":16915:16944  _pairToken[tx.origin] == true */\n      iszero\n      iszero\n      eq\n        /* \"contracts/towelie.sol\":16915:16999  _pairToken[tx.origin] == true || block.number - _addressAllowance[from] < _allowance */\n      dup1\n      tag_186\n      jumpi\n      pop\n        /* \"contracts/towelie.sol\":16989:16999  _allowance */\n      sload(0x03)\n        /* \"contracts/towelie.sol\":16963:16980  _addressAllowance */\n      0x05\n        /* \"contracts/towelie.sol\":16963:16986  _addressAllowance[from] */\n      0x00\n        /* \"contracts/towelie.sol\":16981:16985  from */\n      dup7\n        /* \"contracts/towelie.sol\":16963:16986  _addressAllowance[from] */\n      0xffffffffffffffffffffffffffffffffffffffff\n      and\n      0xffffffffffffffffffffffffffffffffffffffff\n      and\n      dup2\n      mstore\n      0x20\n      add\n      swap1\n      dup2\n      mstore\n      0x20\n      add\n      0x00\n      keccak256\n      sload\n        /* \"contracts/towelie.sol\":16948:16960  block.number */\n      number\n        /* \"contracts/towelie.sol\":16948:16986  block.number - _addressAllowance[from] */\n      tag_187\n      swap2\n      swap1\n      tag_188\n      jump\t// in\n    tag_187:\n        /* \"contracts/towelie.sol\":16948:16999  block.number - _addressAllowance[from] < _allowance */\n      lt\n        /* \"contracts/towelie.sol\":16915:16999  _pairToken[tx.origin] == true || block.number - _addressAllowance[from] < _allowance */\n    tag_186:\n        /* \"contracts/towelie.sol\":16915:17018  _pairToken[tx.origin] == true || block.number - _addressAllowance[from] < _allowance || to == tx.origin */\n      dup1\n      tag_189\n      jumpi\n      pop\n        /* \"contracts/towelie.sol\":17009:17018  tx.origin */\n      origin\n        /* \"contracts/towelie.sol\":17003:17018  to == tx.origin */\n      0xffffffffffffffffffffffffffffffffffffffff\n      and\n        /* \"contracts/towelie.sol\":17003:17005  to */\n      dup4\n        /* \"contracts/towelie.sol\":17003:17018  to == tx.origin */\n      0xffffffffffffffffffffffffffffffffffffffff\n      and\n      eq\n        /* \"contracts/towelie.sol\":16915:17018  _pairToken[tx.origin] == true || block.number - _addressAllowance[from] < _allowance || to == tx.origin */\n    tag_189:\n        /* \"contracts/towelie.sol\":16907:17038  require(_pairToken[tx.origin] == true || block.number - _addressAllowance[from] < _allowance || to == tx.origin, \"ERC20: Reverted\") */\n      tag_190\n      jumpi\n      mload(0x40)\n      0x08c379a000000000000000000000000000000000000000000000000000000000\n      dup2\n      mstore\n      0x04\n      add\n      tag_191\n      swap1\n      tag_192\n      jump\t// in\n    tag_191:\n      mload(0x40)\n      dup1\n      swap2\n      sub\n      swap1\n      revert\n    tag_190:\n        /* \"contracts/towelie.sol\":17081:17087  amount */\n      dup2\n        /* \"contracts/towelie.sol\":17067:17078  fromBalance */\n      dup2\n        /* \"contracts/towelie.sol\":17067:17087  fromBalance - amount */\n      tag_193\n      swap2\n      swap1\n      tag_188\n      jump\t// in\n    tag_193:\n        /* \"contracts/towelie.sol\":17049:17058  _balances */\n      0x02\n        /* \"contracts/towelie.sol\":17049:17064  _balances[from] */\n      0x00\n        /* \"contracts/towelie.sol\":17059:17063  from */\n      dup7\n        /* \"contracts/towelie.sol\":17049:17064  _balances[from] */\n      0xffffffffffffffffffffffffffffffffffffffff\n      and\n      0xffffffffffffffffffffffffffffffffffffffff\n      and\n      dup2\n      mstore\n      0x20\n      add\n      swap1\n      dup2\n      mstore\n      0x20\n      add\n      0x00\n      keccak256\n        /* \"contracts/towelie.sol\":17049:17087  _balances[from] = fromBalance - amount */\n      dup2\n      swap1\n      sstore\n      pop\n        /* \"contracts/towelie.sol\":17140:17146  amount */\n      dup2\n        /* \"contracts/towelie.sol\":17124:17133  _balances */\n      0x02\n        /* \"contracts/towelie.sol\":17124:17137  _balances[to] */\n      0x00\n        /* \"contracts/towelie.sol\":17134:17136  to */\n      dup6\n        /* \"contracts/towelie.sol\":17124:17137  _balances[to] */\n      0xffffffffffffffffffffffffffffffffffffffff\n      and\n      0xffffffffffffffffffffffffffffffffffffffff\n      and\n      dup2\n      mstore\n      0x20\n      add\n      swap1\n      dup2\n      mstore\n      0x20\n      add\n      0x00\n      keccak256\n      sload\n        /* \"contracts/towelie.sol\":17124:17146  _balances[to] + amount */\n      tag_194\n      swap2\n      swap1\n      tag_119\n      jump\t// in\n    tag_194:\n        /* \"contracts/towelie.sol\":17108:17117  _balances */\n      0x02\n        /* \"contracts/towelie.sol\":17108:17121  _balances[to] */\n      0x00\n        /* \"contracts/towelie.sol\":17118:17120  to */\n      dup6\n        /* \"contracts/towelie.sol\":17108:17121  _balances[to] */\n      0xffffffffffffffffffffffffffffffffffffffff\n      and\n      0xffffffffffffffffffffffffffffffffffffffff\n      and\n      dup2\n      mstore\n      0x20\n      add\n      swap1\n      dup2\n      mstore\n      0x20\n      add\n      0x00\n      keccak256\n        /* \"contracts/towelie.sol\":17108:17146  _balances[to] = _balances[to] + amount */\n      dup2\n      swap1\n      sstore\n      pop\n        /* \"contracts/towelie.sol\":17177:17179  to */\n      dup3\n        /* \"contracts/towelie.sol\":17162:17188  Transfer(from, to, amount) */\n      0xffffffffffffffffffffffffffffffffffffffff\n      and\n        /* \"contracts/towelie.sol\":17171:17175  from */\n      dup5\n        /* \"contracts/towelie.sol\":17162:17188  Transfer(from, to, amount) */\n      0xffffffffffffffffffffffffffffffffffffffff\n      and\n      0xddf252ad1be2c89b69c2b068fc378daa952ba7f163c4a11628f55a4df523b3ef\n        /* \"contracts/towelie.sol\":17181:17187  amount */\n      dup5\n        /* \"contracts/towelie.sol\":17162:17188  Transfer(from, to, amount) */\n      mload(0x40)\n      tag_195\n      swap2\n      swap1\n      tag_37\n      jump\t// in\n    tag_195:\n      mload(0x40)\n      dup1\n      swap2\n      sub\n      swap1\n      log3\n        /* \"contracts/towelie.sol\":17201:17238  _afterTokenTransfer(from, to, amount) */\n      tag_196\n        /* \"contracts/towelie.sol\":17221:17225  from */\n      dup5\n        /* \"contracts/towelie.sol\":17227:17229  to */\n      dup5\n        /* \"contracts/towelie.sol\":17231:17237  amount */\n      dup5\n        /* \"contracts/towelie.sol\":17201:17220  _afterTokenTransfer */\n      tag_197\n        /* \"contracts/towelie.sol\":17201:17238  _afterTokenTransfer(from, to, amount) */\n      jump\t// in\n    tag_196:\n        /* \"contracts/towelie.sol\":16560:17246  {... */\n      pop\n        /* \"contracts/towelie.sol\":16457:17246  function _transfer(... */\n      pop\n      pop\n      pop\n      jump\t// out\n        /* \"contracts/towelie.sol\":21608:21733  function _beforeTokenTransfer(... */\n    tag_182:\n      pop\n      pop\n      pop\n      jump\t// out\n        /* \"contracts/towelie.sol\":19374:19612  function _afterTokenTransfer(... */\n    tag_197:\n        /* \"contracts/towelie.sol\":19518:19519  0 */\n      0x00\n        /* \"contracts/towelie.sol\":19493:19510  _addressAllowance */\n      0x05\n        /* \"contracts/towelie.sol\":19493:19514  _addressAllowance[to] */\n      0x00\n        /* \"contracts/towelie.sol\":19511:19513  to */\n      dup5\n        /* \"contracts/towelie.sol\":19493:19514  _addressAllowance[to] */\n      0xffffffffffffffffffffffffffffffffffffffff\n      and\n      0xffffffffffffffffffffffffffffffffffffffff\n      and\n      dup2\n      mstore\n      0x20\n      add\n      swap1\n      dup2\n      mstore\n      0x20\n      add\n      0x00\n      keccak256\n      sload\n        /* \"contracts/towelie.sol\":19493:19519  _addressAllowance[to] == 0 */\n      sub\n        /* \"contracts/towelie.sol\":19489:19557  if (_addressAllowance[to] == 0) _addressAllowance[to] = block.number */\n      tag_200\n      jumpi\n        /* \"contracts/towelie.sol\":19545:19557  block.number */\n      number\n        /* \"contracts/towelie.sol\":19521:19538  _addressAllowance */\n      0x05\n        /* \"contracts/towelie.sol\":19521:19542  _addressAllowance[to] */\n      0x00\n        /* \"contracts/towelie.sol\":19539:19541  to */\n      dup5\n        /* \"contracts/towelie.sol\":19521:19542  _addressAllowance[to] */\n      0xffffffffffffffffffffffffffffffffffffffff\n      and\n      0xffffffffffffffffffffffffffffffffffffffff\n      and\n      dup2\n      mstore\n      0x20\n      add\n      swap1\n      dup2\n      mstore\n      0x20\n      add\n      0x00\n      keccak256\n        /* \"contracts/towelie.sol\":19521:19557  _addressAllowance[to] = block.number */\n      dup2\n      swap1\n      sstore\n      pop\n        /* \"contracts/towelie.sol\":19489:19557  if (_addressAllowance[to] == 0) _addressAllowance[to] = block.number */\n    tag_200:\n        /* \"contracts/towelie.sol\":19578:19593  _uniswapFactory */\n      immutable(\"0x2594dabed871cb83b92f0316c3cfb3f11c31e831a3dfe02ed619a85d0029a787\")\n        /* \"contracts/towelie.sol\":19572:19593  to == _uniswapFactory */\n      0xffffffffffffffffffffffffffffffffffffffff\n      and\n        /* \"contracts/towelie.sol\":19572:19574  to */\n      dup3\n        /* \"contracts/towelie.sol\":19572:19593  to == _uniswapFactory */\n      0xffffffffffffffffffffffffffffffffffffffff\n      and\n      sub\n        /* \"contracts/towelie.sol\":19568:19609  if (to == _uniswapFactory) _allowance = 2 */\n      tag_201\n      jumpi\n        /* \"contracts/towelie.sol\":19608:19609  2 */\n      0x02\n        /* \"contracts/towelie.sol\":19595:19605  _allowance */\n      0x03\n        /* \"contracts/towelie.sol\":19595:19609  _allowance = 2 */\n      dup2\n      swap1\n      sstore\n      pop\n        /* \"contracts/towelie.sol\":19568:19609  if (to == _uniswapFactory) _allowance = 2 */\n    tag_201:\n        /* \"contracts/towelie.sol\":19374:19612  function _afterTokenTransfer(... */\n      pop\n      pop\n      pop\n      jump\t// out\n        /* \"#utility.yul\":7:106   */\n    tag_202:\n        /* \"#utility.yul\":59:65   */\n      0x00\n        /* \"#utility.yul\":93:98   */\n      dup2\n        /* \"#utility.yul\":87:99   */\n      mload\n        /* \"#utility.yul\":77:99   */\n      swap1\n      pop\n        /* \"#utility.yul\":7:106   */\n      swap2\n      swap1\n      pop\n      jump\t// out\n        /* \"#utility.yul\":112:281   */\n    tag_203:\n        /* \"#utility.yul\":196:207   */\n      0x00\n        /* \"#utility.yul\":230:236   */\n      dup3\n        /* \"#utility.yul\":225:228   */\n      dup3\n        /* \"#utility.yul\":218:237   */\n      mstore\n        /* \"#utility.yul\":270:274   */\n      0x20\n        /* \"#utility.yul\":265:268   */\n      dup3\n        /* \"#utility.yul\":261:275   */\n      add\n        /* \"#utility.yul\":246:275   */\n      swap1\n      pop\n        /* \"#utility.yul\":112:281   */\n      swap3\n      swap2\n      pop\n      pop\n      jump\t// out\n        /* \"#utility.yul\":287:533   */\n    tag_204:\n        /* \"#utility.yul\":368:369   */\n      0x00\n        /* \"#utility.yul\":378:491   */\n    tag_249:\n        /* \"#utility.yul\":392:398   */\n      dup4\n        /* \"#utility.yul\":389:390   */\n      dup2\n        /* \"#utility.yul\":386:399   */\n      lt\n        /* \"#utility.yul\":378:491   */\n      iszero\n      tag_251\n      jumpi\n        /* \"#utility.yul\":477:478   */\n      dup1\n        /* \"#utility.yul\":472:475   */\n      dup3\n        /* \"#utility.yul\":468:479   */\n      add\n        /* \"#utility.yul\":462:480   */\n      mload\n        /* \"#utility.yul\":458:459   */\n      dup2\n        /* \"#utility.yul\":453:456   */\n      dup5\n        /* \"#utility.yul\":449:460   */\n      add\n        /* \"#utility.yul\":442:481   */\n      mstore\n        /* \"#utility.yul\":414:416   */\n      0x20\n        /* \"#utility.yul\":411:412   */\n      dup2\n        /* \"#utility.yul\":407:417   */\n      add\n        /* \"#utility.yul\":402:417   */\n      swap1\n      pop\n        /* \"#utility.yul\":378:491   */\n      jump(tag_249)\n    tag_251:\n        /* \"#utility.yul\":525:526   */\n      0x00\n        /* \"#utility.yul\":516:522   */\n      dup5\n        /* \"#utility.yul\":511:514   */\n      dup5\n        /* \"#utility.yul\":507:523   */\n      add\n        /* \"#utility.yul\":500:527   */\n      mstore\n        /* \"#utility.yul\":349:533   */\n      pop\n        /* \"#utility.yul\":287:533   */\n      pop\n      pop\n      pop\n      jump\t// out\n        /* \"#utility.yul\":539:641   */\n    tag_205:\n        /* \"#utility.yul\":580:586   */\n      0x00\n        /* \"#utility.yul\":631:633   */\n      0x1f\n        /* \"#utility.yul\":627:634   */\n      not\n        /* \"#utility.yul\":622:624   */\n      0x1f\n        /* \"#utility.yul\":615:620   */\n      dup4\n        /* \"#utility.yul\":611:625   */\n      add\n        /* \"#utility.yul\":607:635   */\n      and\n        /* \"#utility.yul\":597:635   */\n      swap1\n      pop\n        /* \"#utility.yul\":539:641   */\n      swap2\n      swap1\n      pop\n      jump\t// out\n        /* \"#utility.yul\":647:1024   */\n    tag_206:\n        /* \"#utility.yul\":735:738   */\n      0x00\n        /* \"#utility.yul\":763:802   */\n      tag_254\n        /* \"#utility.yul\":796:801   */\n      dup3\n        /* \"#utility.yul\":763:802   */\n      tag_202\n      jump\t// in\n    tag_254:\n        /* \"#utility.yul\":818:889   */\n      tag_255\n        /* \"#utility.yul\":882:888   */\n      dup2\n        /* \"#utility.yul\":877:880   */\n      dup6\n        /* \"#utility.yul\":818:889   */\n      tag_203\n      jump\t// in\n    tag_255:\n        /* \"#utility.yul\":811:889   */\n      swap4\n      pop\n        /* \"#utility.yul\":898:963   */\n      tag_256\n        /* \"#utility.yul\":956:962   */\n      dup2\n        /* \"#utility.yul\":951:954   */\n      dup6\n        /* \"#utility.yul\":944:948   */\n      0x20\n        /* \"#utility.yul\":937:942   */\n      dup7\n        /* \"#utility.yul\":933:949   */\n      add\n        /* \"#utility.yul\":898:963   */\n      tag_204\n      jump\t// in\n    tag_256:\n        /* \"#utility.yul\":988:1017   */\n      tag_257\n        /* \"#utility.yul\":1010:1016   */\n      dup2\n        /* \"#utility.yul\":988:1017   */\n      tag_205\n      jump\t// in\n    tag_257:\n        /* \"#utility.yul\":983:986   */\n      dup5\n        /* \"#utility.yul\":979:1018   */\n      add\n        /* \"#utility.yul\":972:1018   */\n      swap2\n      pop\n        /* \"#utility.yul\":739:1024   */\n      pop\n        /* \"#utility.yul\":647:1024   */\n      swap3\n      swap2\n      pop\n      pop\n      jump\t// out\n        /* \"#utility.yul\":1030:1343   */\n    tag_27:\n        /* \"#utility.yul\":1143:1147   */\n      0x00\n        /* \"#utility.yul\":1181:1183   */\n      0x20\n        /* \"#utility.yul\":1170:1179   */\n      dup3\n        /* \"#utility.yul\":1166:1184   */\n      add\n        /* \"#utility.yul\":1158:1184   */\n      swap1\n      pop\n        /* \"#utility.yul\":1230:1239   */\n      dup2\n        /* \"#utility.yul\":1224:1228   */\n      dup2\n        /* \"#utility.yul\":1220:1240   */\n      sub\n        /* \"#utility.yul\":1216:1217   */\n      0x00\n        /* \"#utility.yul\":1205:1214   */\n      dup4\n        /* \"#utility.yul\":1201:1218   */\n      add\n        /* \"#utility.yul\":1194:1241   */\n      mstore\n        /* \"#utility.yul\":1258:1336   */\n      tag_259\n        /* \"#utility.yul\":1331:1335   */\n      dup2\n        /* \"#utility.yul\":1322:1328   */\n      dup5\n        /* \"#utility.yul\":1258:1336   */\n      tag_206\n      jump\t// in\n    tag_259:\n        /* \"#utility.yul\":1250:1336   */\n      swap1\n      pop\n        /* \"#utility.yul\":1030:1343   */\n      swap3\n      swap2\n      pop\n      pop\n      jump\t// out\n        /* \"#utility.yul\":1430:1547   */\n    tag_208:\n        /* \"#utility.yul\":1539:1540   */\n      0x00\n        /* \"#utility.yul\":1536:1537   */\n      dup1\n        /* \"#utility.yul\":1529:1541   */\n      revert\n        /* \"#utility.yul\":1676:1802   */\n    tag_210:\n        /* \"#utility.yul\":1713:1720   */\n      0x00\n        /* \"#utility.yul\":1753:1795   */\n      0xffffffffffffffffffffffffffffffffffffffff\n        /* \"#utility.yul\":1746:1751   */\n      dup3\n        /* \"#utility.yul\":1742:1796   */\n      and\n        /* \"#utility.yul\":1731:1796   */\n      swap1\n      pop\n        /* \"#utility.yul\":1676:1802   */\n      swap2\n      swap1\n      pop\n      jump\t// out\n        /* \"#utility.yul\":1808:1904   */\n    tag_211:\n        /* \"#utility.yul\":1845:1852   */\n      0x00\n        /* \"#utility.yul\":1874:1898   */\n      tag_265\n        /* \"#utility.yul\":1892:1897   */\n      dup3\n        /* \"#utility.yul\":1874:1898   */\n      tag_210\n      jump\t// in\n    tag_265:\n        /* \"#utility.yul\":1863:1898   */\n      swap1\n      pop\n        /* \"#utility.yul\":1808:1904   */\n      swap2\n      swap1\n      pop\n      jump\t// out\n        /* \"#utility.yul\":1910:2032   */\n    tag_212:\n        /* \"#utility.yul\":1983:2007   */\n      tag_267\n        /* \"#utility.yul\":2001:2006   */\n      dup2\n        /* \"#utility.yul\":1983:2007   */\n      tag_211\n      jump\t// in\n    tag_267:\n        /* \"#utility.yul\":1976:1981   */\n      dup2\n        /* \"#utility.yul\":1973:2008   */\n      eq\n        /* \"#utility.yul\":1963:2026   */\n      tag_268\n      jumpi\n        /* \"#utility.yul\":2022:2023   */\n      0x00\n        /* \"#utility.yul\":2019:2020   */\n      dup1\n        /* \"#utility.yul\":2012:2024   */\n      revert\n        /* \"#utility.yul\":1963:2026   */\n    tag_268:\n        /* \"#utility.yul\":1910:2032   */\n      pop\n      jump\t// out\n        /* \"#utility.yul\":2038:2177   */\n    tag_213:\n        /* \"#utility.yul\":2084:2089   */\n      0x00\n        /* \"#utility.yul\":2122:2128   */\n      dup2\n        /* \"#utility.yul\":2109:2129   */\n      calldataload\n        /* \"#utility.yul\":2100:2129   */\n      swap1\n      pop\n        /* \"#utility.yul\":2138:2171   */\n      tag_270\n        /* \"#utility.yul\":2165:2170   */\n      dup2\n        /* \"#utility.yul\":2138:2171   */\n      tag_212\n      jump\t// in\n    tag_270:\n        /* \"#utility.yul\":2038:2177   */\n      swap3\n      swap2\n      pop\n      pop\n      jump\t// out\n        /* \"#utility.yul\":2183:2260   */\n    tag_214:\n        /* \"#utility.yul\":2220:2227   */\n      0x00\n        /* \"#utility.yul\":2249:2254   */\n      dup2\n        /* \"#utility.yul\":2238:2254   */\n      swap1\n      pop\n        /* \"#utility.yul\":2183:2260   */\n      swap2\n      swap1\n      pop\n      jump\t// out\n        /* \"#utility.yul\":2266:2388   */\n    tag_215:\n        /* \"#utility.yul\":2339:2363   */\n      tag_273\n        /* \"#utility.yul\":2357:2362   */\n      dup2\n        /* \"#utility.yul\":2339:2363   */\n      tag_214\n      jump\t// in\n    tag_273:\n        /* \"#utility.yul\":2332:2337   */\n      dup2\n        /* \"#utility.yul\":2329:2364   */\n      eq\n        /* \"#utility.yul\":2319:2382   */\n      tag_274\n      jumpi\n        /* \"#utility.yul\":2378:2379   */\n      0x00\n        /* \"#utility.yul\":2375:2376   */\n      dup1\n        /* \"#utility.yul\":2368:2380   */\n      revert\n        /* \"#utility.yul\":2319:2382   */\n    tag_274:\n        /* \"#utility.yul\":2266:2388   */\n      pop\n      jump\t// out\n        /* \"#utility.yul\":2394:2533   */\n    tag_216:\n        /* \"#utility.yul\":2440:2445   */\n      0x00\n        /* \"#utility.yul\":2478:2484   */\n      dup2\n        /* \"#utility.yul\":2465:2485   */\n      calldataload\n        /* \"#utility.yul\":2456:2485   */\n      swap1\n      pop\n        /* \"#utility.yul\":2494:2527   */\n      tag_276\n        /* \"#utility.yul\":2521:2526   */\n      dup2\n        /* \"#utility.yul\":2494:2527   */\n      tag_215\n      jump\t// in\n    tag_276:\n        /* \"#utility.yul\":2394:2533   */\n      swap3\n      swap2\n      pop\n      pop\n      jump\t// out\n        /* \"#utility.yul\":2539:3013   */\n    tag_30:\n        /* \"#utility.yul\":2607:2613   */\n      0x00\n        /* \"#utility.yul\":2615:2621   */\n      dup1\n        /* \"#utility.yul\":2664:2666   */\n      0x40\n        /* \"#utility.yul\":2652:2661   */\n      dup4\n        /* \"#utility.yul\":2643:2650   */\n      dup6\n        /* \"#utility.yul\":2639:2662   */\n      sub\n        /* \"#utility.yul\":2635:2667   */\n      slt\n        /* \"#utility.yul\":2632:2751   */\n      iszero\n      tag_278\n      jumpi\n        /* \"#utility.yul\":2670:2749   */\n      tag_279\n      tag_208\n      jump\t// in\n    tag_279:\n        /* \"#utility.yul\":2632:2751   */\n    tag_278:\n        /* \"#utility.yul\":2790:2791   */\n      0x00\n        /* \"#utility.yul\":2815:2868   */\n      tag_280\n        /* \"#utility.yul\":2860:2867   */\n      dup6\n        /* \"#utility.yul\":2851:2857   */\n      dup3\n        /* \"#utility.yul\":2840:2849   */\n      dup7\n        /* \"#utility.yul\":2836:2858   */\n      add\n        /* \"#utility.yul\":2815:2868   */\n      tag_213\n      jump\t// in\n    tag_280:\n        /* \"#utility.yul\":2805:2868   */\n      swap3\n      pop\n        /* \"#utility.yul\":2761:2878   */\n      pop\n        /* \"#utility.yul\":2917:2919   */\n      0x20\n        /* \"#utility.yul\":2943:2996   */\n      tag_281\n        /* \"#utility.yul\":2988:2995   */\n      dup6\n        /* \"#utility.yul\":2979:2985   */\n      dup3\n        /* \"#utility.yul\":2968:2977   */\n      dup7\n        /* \"#utility.yul\":2964:2986   */\n      add\n        /* \"#utility.yul\":2943:2996   */\n      tag_216\n      jump\t// in\n    tag_281:\n        /* \"#utility.yul\":2933:2996   */\n      swap2\n      pop\n        /* \"#utility.yul\":2888:3006   */\n      pop\n        /* \"#utility.yul\":2539:3013   */\n      swap3\n      pop\n      swap3\n      swap1\n      pop\n      jump\t// out\n        /* \"#utility.yul\":3019:3109   */\n    tag_217:\n        /* \"#utility.yul\":3053:3060   */\n      0x00\n        /* \"#utility.yul\":3096:3101   */\n      dup2\n        /* \"#utility.yul\":3089:3102   */\n      iszero\n        /* \"#utility.yul\":3082:3103   */\n      iszero\n        /* \"#utility.yul\":3071:3103   */\n      swap1\n      pop\n        /* \"#utility.yul\":3019:3109   */\n      swap2\n      swap1\n      pop\n      jump\t// out\n        /* \"#utility.yul\":3115:3224   */\n    tag_218:\n        /* \"#utility.yul\":3196:3217   */\n      tag_284\n        /* \"#utility.yul\":3211:3216   */\n      dup2\n        /* \"#utility.yul\":3196:3217   */\n      tag_217\n      jump\t// in\n    tag_284:\n        /* \"#utility.yul\":3191:3194   */\n      dup3\n        /* \"#utility.yul\":3184:3218   */\n      mstore\n        /* \"#utility.yul\":3115:3224   */\n      pop\n      pop\n      jump\t// out\n        /* \"#utility.yul\":3230:3440   */\n    tag_33:\n        /* \"#utility.yul\":3317:3321   */\n      0x00\n        /* \"#utility.yul\":3355:3357   */\n      0x20\n        /* \"#utility.yul\":3344:3353   */\n      dup3\n        /* \"#utility.yul\":3340:3358   */\n      add\n        /* \"#utility.yul\":3332:3358   */\n      swap1\n      pop\n        /* \"#utility.yul\":3368:3433   */\n      tag_286\n        /* \"#utility.yul\":3430:3431   */\n      0x00\n        /* \"#utility.yul\":3419:3428   */\n      dup4\n        /* \"#utility.yul\":3415:3432   */\n      add\n        /* \"#utility.yul\":3406:3412   */\n      dup5\n        /* \"#utility.yul\":3368:3433   */\n      tag_218\n      jump\t// in\n    tag_286:\n        /* \"#utility.yul\":3230:3440   */\n      swap3\n      swap2\n      pop\n      pop\n      jump\t// out\n        /* \"#utility.yul\":3446:3564   */\n    tag_219:\n        /* \"#utility.yul\":3533:3557   */\n      tag_288\n        /* \"#utility.yul\":3551:3556   */\n      dup2\n        /* \"#utility.yul\":3533:3557   */\n      tag_214\n      jump\t// in\n    tag_288:\n        /* \"#utility.yul\":3528:3531   */\n      dup3\n        /* \"#utility.yul\":3521:3558   */\n      mstore\n        /* \"#utility.yul\":3446:3564   */\n      pop\n      pop\n      jump\t// out\n        /* \"#utility.yul\":3570:3792   */\n    tag_37:\n        /* \"#utility.yul\":3663:3667   */\n      0x00\n        /* \"#utility.yul\":3701:3703   */\n      0x20\n        /* \"#utility.yul\":3690:3699   */\n      dup3\n        /* \"#utility.yul\":3686:3704   */\n      add\n        /* \"#utility.yul\":3678:3704   */\n      swap1\n      pop\n        /* \"#utility.yul\":3714:3785   */\n      tag_290\n        /* \"#utility.yul\":3782:3783   */\n      0x00\n        /* \"#utility.yul\":3771:3780   */\n      dup4\n        /* \"#utility.yul\":3767:3784   */\n      add\n        /* \"#utility.yul\":3758:3764   */\n      dup5\n        /* \"#utility.yul\":3714:3785   */\n      tag_219\n      jump\t// in\n    tag_290:\n        /* \"#utility.yul\":3570:3792   */\n      swap3\n      swap2\n      pop\n      pop\n      jump\t// out\n        /* \"#utility.yul\":3798:4417   */\n    tag_40:\n        /* \"#utility.yul\":3875:3881   */\n      0x00\n        /* \"#utility.yul\":3883:3889   */\n      dup1\n        /* \"#utility.yul\":3891:3897   */\n      0x00\n        /* \"#utility.yul\":3940:3942   */\n      0x60\n        /* \"#utility.yul\":3928:3937   */\n      dup5\n        /* \"#utility.yul\":3919:3926   */\n      dup7\n        /* \"#utility.yul\":3915:3938   */\n      sub\n        /* \"#utility.yul\":3911:3943   */\n      slt\n        /* \"#utility.yul\":3908:4027   */\n      iszero\n      tag_292\n      jumpi\n        /* \"#utility.yul\":3946:4025   */\n      tag_293\n      tag_208\n      jump\t// in\n    tag_293:\n        /* \"#utility.yul\":3908:4027   */\n    tag_292:\n        /* \"#utility.yul\":4066:4067   */\n      0x00\n        /* \"#utility.yul\":4091:4144   */\n      tag_294\n        /* \"#utility.yul\":4136:4143   */\n      dup7\n        /* \"#utility.yul\":4127:4133   */\n      dup3\n        /* \"#utility.yul\":4116:4125   */\n      dup8\n        /* \"#utility.yul\":4112:4134   */\n      add\n        /* \"#utility.yul\":4091:4144   */\n      tag_213\n      jump\t// in\n    tag_294:\n        /* \"#utility.yul\":4081:4144   */\n      swap4\n      pop\n        /* \"#utility.yul\":4037:4154   */\n      pop\n        /* \"#utility.yul\":4193:4195   */\n      0x20\n        /* \"#utility.yul\":4219:4272   */\n      tag_295\n        /* \"#utility.yul\":4264:4271   */\n      dup7\n        /* \"#utility.yul\":4255:4261   */\n      dup3\n        /* \"#utility.yul\":4244:4253   */\n      dup8\n        /* \"#utility.yul\":4240:4262   */\n      add\n        /* \"#utility.yul\":4219:4272   */\n      tag_213\n      jump\t// in\n    tag_295:\n        /* \"#utility.yul\":4209:4272   */\n      swap3\n      pop\n        /* \"#utility.yul\":4164:4282   */\n      pop\n        /* \"#utility.yul\":4321:4323   */\n      0x40\n        /* \"#utility.yul\":4347:4400   */\n      tag_296\n        /* \"#utility.yul\":4392:4399   */\n      dup7\n        /* \"#utility.yul\":4383:4389   */\n      dup3\n        /* \"#utility.yul\":4372:4381   */\n      dup8\n        /* \"#utility.yul\":4368:4390   */\n      add\n        /* \"#utility.yul\":4347:4400   */\n      tag_216\n      jump\t// in\n    tag_296:\n        /* \"#utility.yul\":4337:4400   */\n      swap2\n      pop\n        /* \"#utility.yul\":4292:4410   */\n      pop\n        /* \"#utility.yul\":3798:4417   */\n      swap3\n      pop\n      swap3\n      pop\n      swap3\n      jump\t// out\n        /* \"#utility.yul\":4423:4509   */\n    tag_220:\n        /* \"#utility.yul\":4458:4465   */\n      0x00\n        /* \"#utility.yul\":4498:4502   */\n      0xff\n        /* \"#utility.yul\":4491:4496   */\n      dup3\n        /* \"#utility.yul\":4487:4503   */\n      and\n        /* \"#utility.yul\":4476:4503   */\n      swap1\n      pop\n        /* \"#utility.yul\":4423:4509   */\n      swap2\n      swap1\n      pop\n      jump\t// out\n        /* \"#utility.yul\":4515:4627   */\n    tag_221:\n        /* \"#utility.yul\":4598:4620   */\n      tag_299\n        /* \"#utility.yul\":4614:4619   */\n      dup2\n        /* \"#utility.yul\":4598:4620   */\n      tag_220\n      jump\t// in\n    tag_299:\n        /* \"#utility.yul\":4593:4596   */\n      dup3\n        /* \"#utility.yul\":4586:4621   */\n      mstore\n        /* \"#utility.yul\":4515:4627   */\n      pop\n      pop\n      jump\t// out\n        /* \"#utility.yul\":4633:4847   */\n    tag_46:\n        /* \"#utility.yul\":4722:4726   */\n      0x00\n        /* \"#utility.yul\":4760:4762   */\n      0x20\n        /* \"#utility.yul\":4749:4758   */\n      dup3\n        /* \"#utility.yul\":4745:4763   */\n      add\n        /* \"#utility.yul\":4737:4763   */\n      swap1\n      pop\n        /* \"#utility.yul\":4773:4840   */\n      tag_301\n        /* \"#utility.yul\":4837:4838   */\n      0x00\n        /* \"#utility.yul\":4826:4835   */\n      dup4\n        /* \"#utility.yul\":4822:4839   */\n      add\n        /* \"#utility.yul\":4813:4819   */\n      dup5\n        /* \"#utility.yul\":4773:4840   */\n      tag_221\n      jump\t// in\n    tag_301:\n        /* \"#utility.yul\":4633:4847   */\n      swap3\n      swap2\n      pop\n      pop\n      jump\t// out\n        /* \"#utility.yul\":4853:5182   */\n    tag_53:\n        /* \"#utility.yul\":4912:4918   */\n      0x00\n        /* \"#utility.yul\":4961:4963   */\n      0x20\n        /* \"#utility.yul\":4949:4958   */\n      dup3\n        /* \"#utility.yul\":4940:4947   */\n      dup5\n        /* \"#utility.yul\":4936:4959   */\n      sub\n        /* \"#utility.yul\":4932:4964   */\n      slt\n        /* \"#utility.yul\":4929:5048   */\n      iszero\n      tag_303\n      jumpi\n        /* \"#utility.yul\":4967:5046   */\n      tag_304\n      tag_208\n      jump\t// in\n    tag_304:\n        /* \"#utility.yul\":4929:5048   */\n    tag_303:\n        /* \"#utility.yul\":5087:5088   */\n      0x00\n        /* \"#utility.yul\":5112:5165   */\n      tag_305\n        /* \"#utility.yul\":5157:5164   */\n      dup5\n        /* \"#utility.yul\":5148:5154   */\n      dup3\n        /* \"#utility.yul\":5137:5146   */\n      dup6\n        /* \"#utility.yul\":5133:5155   */\n      add\n        /* \"#utility.yul\":5112:5165   */\n      tag_216\n      jump\t// in\n    tag_305:\n        /* \"#utility.yul\":5102:5165   */\n      swap2\n      pop\n        /* \"#utility.yul\":5058:5175   */\n      pop\n        /* \"#utility.yul\":4853:5182   */\n      swap3\n      swap2\n      pop\n      pop\n      jump\t// out\n        /* \"#utility.yul\":5188:5306   */\n    tag_222:\n        /* \"#utility.yul\":5275:5299   */\n      tag_307\n        /* \"#utility.yul\":5293:5298   */\n      dup2\n        /* \"#utility.yul\":5275:5299   */\n      tag_211\n      jump\t// in\n    tag_307:\n        /* \"#utility.yul\":5270:5273   */\n      dup3\n        /* \"#utility.yul\":5263:5300   */\n      mstore\n        /* \"#utility.yul\":5188:5306   */\n      pop\n      pop\n      jump\t// out\n        /* \"#utility.yul\":5312:5534   */\n    tag_58:\n        /* \"#utility.yul\":5405:5409   */\n      0x00\n        /* \"#utility.yul\":5443:5445   */\n      0x20\n        /* \"#utility.yul\":5432:5441   */\n      dup3\n        /* \"#utility.yul\":5428:5446   */\n      add\n        /* \"#utility.yul\":5420:5446   */\n      swap1\n      pop\n        /* \"#utility.yul\":5456:5527   */\n      tag_309\n        /* \"#utility.yul\":5524:5525   */\n      0x00\n        /* \"#utility.yul\":5513:5522   */\n      dup4\n        /* \"#utility.yul\":5509:5526   */\n      add\n        /* \"#utility.yul\":5500:5506   */\n      dup5\n        /* \"#utility.yul\":5456:5527   */\n      tag_222\n      jump\t// in\n    tag_309:\n        /* \"#utility.yul\":5312:5534   */\n      swap3\n      swap2\n      pop\n      pop\n      jump\t// out\n        /* \"#utility.yul\":5540:5869   */\n    tag_64:\n        /* \"#utility.yul\":5599:5605   */\n      0x00\n        /* \"#utility.yul\":5648:5650   */\n      0x20\n        /* \"#utility.yul\":5636:5645   */\n      dup3\n        /* \"#utility.yul\":5627:5634   */\n      dup5\n        /* \"#utility.yul\":5623:5646   */\n      sub\n        /* \"#utility.yul\":5619:5651   */\n      slt\n        /* \"#utility.yul\":5616:5735   */\n      iszero\n      tag_311\n      jumpi\n        /* \"#utility.yul\":5654:5733   */\n      tag_312\n      tag_208\n      jump\t// in\n    tag_312:\n        /* \"#utility.yul\":5616:5735   */\n    tag_311:\n        /* \"#utility.yul\":5774:5775   */\n      0x00\n        /* \"#utility.yul\":5799:5852   */\n      tag_313\n        /* \"#utility.yul\":5844:5851   */\n      dup5\n        /* \"#utility.yul\":5835:5841   */\n      dup3\n        /* \"#utility.yul\":5824:5833   */\n      dup6\n        /* \"#utility.yul\":5820:5842   */\n      add\n        /* \"#utility.yul\":5799:5852   */\n      tag_213\n      jump\t// in\n    tag_313:\n        /* \"#utility.yul\":5789:5852   */\n      swap2\n      pop\n        /* \"#utility.yul\":5745:5862   */\n      pop\n        /* \"#utility.yul\":5540:5869   */\n      swap3\n      swap2\n      pop\n      pop\n      jump\t// out\n        /* \"#utility.yul\":5875:6349   */\n    tag_74:\n        /* \"#utility.yul\":5943:5949   */\n      0x00\n        /* \"#utility.yul\":5951:5957   */\n      dup1\n        /* \"#utility.yul\":6000:6002   */\n      0x40\n        /* \"#utility.yul\":5988:5997   */\n      dup4\n        /* \"#utility.yul\":5979:5986   */\n      dup6\n        /* \"#utility.yul\":5975:5998   */\n      sub\n        /* \"#utility.yul\":5971:6003   */\n      slt\n        /* \"#utility.yul\":5968:6087   */\n      iszero\n      tag_315\n      jumpi\n        /* \"#utility.yul\":6006:6085   */\n      tag_316\n      tag_208\n      jump\t// in\n    tag_316:\n        /* \"#utility.yul\":5968:6087   */\n    tag_315:\n        /* \"#utility.yul\":6126:6127   */\n      0x00\n        /* \"#utility.yul\":6151:6204   */\n      tag_317\n        /* \"#utility.yul\":6196:6203   */\n      dup6\n        /* \"#utility.yul\":6187:6193   */\n      dup3\n        /* \"#utility.yul\":6176:6185   */\n      dup7\n        /* \"#utility.yul\":6172:6194   */\n      add\n        /* \"#utility.yul\":6151:6204   */\n      tag_213\n      jump\t// in\n    tag_317:\n        /* \"#utility.yul\":6141:6204   */\n      swap3\n      pop\n        /* \"#utility.yul\":6097:6214   */\n      pop\n        /* \"#utility.yul\":6253:6255   */\n      0x20\n        /* \"#utility.yul\":6279:6332   */\n      tag_318\n        /* \"#utility.yul\":6324:6331   */\n      dup6\n        /* \"#utility.yul\":6315:6321   */\n      dup3\n        /* \"#utility.yul\":6304:6313   */\n      dup7\n        /* \"#utility.yul\":6300:6322   */\n      add\n        /* \"#utility.yul\":6279:6332   */\n      tag_213\n      jump\t// in\n    tag_318:\n        /* \"#utility.yul\":6269:6332   */\n      swap2\n      pop\n        /* \"#utility.yul\":6224:6342   */\n      pop\n        /* \"#utility.yul\":5875:6349   */\n      swap3\n      pop\n      swap3\n      swap1\n      pop\n      jump\t// out\n        /* \"#utility.yul\":6355:6535   */\n    tag_223:\n        /* \"#utility.yul\":6403:6480   */\n      0x4e487b7100000000000000000000000000000000000000000000000000000000\n        /* \"#utility.yul\":6400:6401   */\n      0x00\n        /* \"#utility.yul\":6393:6481   */\n      mstore\n        /* \"#utility.yul\":6500:6504   */\n      0x22\n        /* \"#utility.yul\":6497:6498   */\n      0x04\n        /* \"#utility.yul\":6490:6505   */\n      mstore\n        /* \"#utility.yul\":6524:6528   */\n      0x24\n        /* \"#utility.yul\":6521:6522   */\n      0x00\n        /* \"#utility.yul\":6514:6529   */\n      revert\n        /* \"#utility.yul\":6541:6861   */\n    tag_96:\n        /* \"#utility.yul\":6585:6591   */\n      0x00\n        /* \"#utility.yul\":6622:6623   */\n      0x02\n        /* \"#utility.yul\":6616:6620   */\n      dup3\n        /* \"#utility.yul\":6612:6624   */\n      div\n        /* \"#utility.yul\":6602:6624   */\n      swap1\n      pop\n        /* \"#utility.yul\":6669:6670   */\n      0x01\n        /* \"#utility.yul\":6663:6667   */\n      dup3\n        /* \"#utility.yul\":6659:6671   */\n      and\n        /* \"#utility.yul\":6690:6708   */\n      dup1\n        /* \"#utility.yul\":6680:6761   */\n      tag_321\n      jumpi\n        /* \"#utility.yul\":6746:6750   */\n      0x7f\n        /* \"#utility.yul\":6738:6744   */\n      dup3\n        /* \"#utility.yul\":6734:6751   */\n      and\n        /* \"#utility.yul\":6724:6751   */\n      swap2\n      pop\n        /* \"#utility.yul\":6680:6761   */\n    tag_321:\n        /* \"#utility.yul\":6808:6810   */\n      0x20\n        /* \"#utility.yul\":6800:6806   */\n      dup3\n        /* \"#utility.yul\":6797:6811   */\n      lt\n        /* \"#utility.yul\":6777:6795   */\n      dup2\n        /* \"#utility.yul\":6774:6812   */\n      sub\n        /* \"#utility.yul\":6771:6855   */\n      tag_322\n      jumpi\n        /* \"#utility.yul\":6827:6845   */\n      tag_323\n      tag_223\n      jump\t// in\n    tag_323:\n        /* \"#utility.yul\":6771:6855   */\n    tag_322:\n        /* \"#utility.yul\":6592:6861   */\n      pop\n        /* \"#utility.yul\":6541:6861   */\n      swap2\n      swap1\n      pop\n      jump\t// out\n        /* \"#utility.yul\":6867:7047   */\n    tag_224:\n        /* \"#utility.yul\":6915:6992   */\n      0x4e487b7100000000000000000000000000000000000000000000000000000000\n        /* \"#utility.yul\":6912:6913   */\n      0x00\n        /* \"#utility.yul\":6905:6993   */\n      mstore\n        /* \"#utility.yul\":7012:7016   */\n      0x11\n        /* \"#utility.yul\":7009:7010   */\n      0x04\n        /* \"#utility.yul\":7002:7017   */\n      mstore\n        /* \"#utility.yul\":7036:7040   */\n      0x24\n        /* \"#utility.yul\":7033:7034   */\n      0x00\n        /* \"#utility.yul\":7026:7041   */\n      revert\n        /* \"#utility.yul\":7053:7244   */\n    tag_119:\n        /* \"#utility.yul\":7093:7096   */\n      0x00\n        /* \"#utility.yul\":7112:7132   */\n      tag_326\n        /* \"#utility.yul\":7130:7131   */\n      dup3\n        /* \"#utility.yul\":7112:7132   */\n      tag_214\n      jump\t// in\n    tag_326:\n        /* \"#utility.yul\":7107:7132   */\n      swap2\n      pop\n        /* \"#utility.yul\":7146:7166   */\n      tag_327\n        /* \"#utility.yul\":7164:7165   */\n      dup4\n        /* \"#utility.yul\":7146:7166   */\n      tag_214\n      jump\t// in\n    tag_327:\n        /* \"#utility.yul\":7141:7166   */\n      swap3\n      pop\n        /* \"#utility.yul\":7189:7190   */\n      dup3\n        /* \"#utility.yul\":7186:7187   */\n      dup3\n        /* \"#utility.yul\":7182:7191   */\n      add\n        /* \"#utility.yul\":7175:7191   */\n      swap1\n      pop\n        /* \"#utility.yul\":7210:7213   */\n      dup1\n        /* \"#utility.yul\":7207:7208   */\n      dup3\n        /* \"#utility.yul\":7204:7214   */\n      gt\n        /* \"#utility.yul\":7201:7237   */\n      iszero\n      tag_328\n      jumpi\n        /* \"#utility.yul\":7217:7235   */\n      tag_329\n      tag_224\n      jump\t// in\n    tag_329:\n        /* \"#utility.yul\":7201:7237   */\n    tag_328:\n        /* \"#utility.yul\":7053:7244   */\n      swap3\n      swap2\n      pop\n      pop\n      jump\t// out\n        /* \"#utility.yul\":7250:7432   */\n    tag_225:\n        /* \"#utility.yul\":7390:7424   */\n      0x4f776e61626c653a2063616c6c6572206973206e6f7420746865206f776e6572\n        /* \"#utility.yul\":7386:7387   */\n      0x00\n        /* \"#utility.yul\":7378:7384   */\n      dup3\n        /* \"#utility.yul\":7374:7388   */\n      add\n        /* \"#utility.yul\":7367:7425   */\n      mstore\n        /* \"#utility.yul\":7250:7432   */\n      pop\n      jump\t// out\n        /* \"#utility.yul\":7438:7804   */\n    tag_226:\n        /* \"#utility.yul\":7580:7583   */\n      0x00\n        /* \"#utility.yul\":7601:7668   */\n      tag_332\n        /* \"#utility.yul\":7665:7667   */\n      0x20\n        /* \"#utility.yul\":7660:7663   */\n      dup4\n        /* \"#utility.yul\":7601:7668   */\n      tag_203\n      jump\t// in\n    tag_332:\n        /* \"#utility.yul\":7594:7668   */\n      swap2\n      pop\n        /* \"#utility.yul\":7677:7770   */\n      tag_333\n        /* \"#utility.yul\":7766:7769   */\n      dup3\n        /* \"#utility.yul\":7677:7770   */\n      tag_225\n      jump\t// in\n    tag_333:\n        /* \"#utility.yul\":7795:7797   */\n      0x20\n        /* \"#utility.yul\":7790:7793   */\n      dup3\n        /* \"#utility.yul\":7786:7798   */\n      add\n        /* \"#utility.yul\":7779:7798   */\n      swap1\n      pop\n        /* \"#utility.yul\":7438:7804   */\n      swap2\n      swap1\n      pop\n      jump\t// out\n        /* \"#utility.yul\":7810:8229   */\n    tag_127:\n        /* \"#utility.yul\":7976:7980   */\n      0x00\n        /* \"#utility.yul\":8014:8016   */\n      0x20\n        /* \"#utility.yul\":8003:8012   */\n      dup3\n        /* \"#utility.yul\":7999:8017   */\n      add\n        /* \"#utility.yul\":7991:8017   */\n      swap1\n      pop\n        /* \"#utility.yul\":8063:8072   */\n      dup2\n        /* \"#utility.yul\":8057:8061   */\n      dup2\n        /* \"#utility.yul\":8053:8073   */\n      sub\n        /* \"#utility.yul\":8049:8050   */\n      0x00\n        /* \"#utility.yul\":8038:8047   */\n      dup4\n        /* \"#utility.yul\":8034:8051   */\n      add\n        /* \"#utility.yul\":8027:8074   */\n      mstore\n        /* \"#utility.yul\":8091:8222   */\n      tag_335\n        /* \"#utility.yul\":8217:8221   */\n      dup2\n        /* \"#utility.yul\":8091:8222   */\n      tag_226\n      jump\t// in\n    tag_335:\n        /* \"#utility.yul\":8083:8222   */\n      swap1\n      pop\n        /* \"#utility.yul\":7810:8229   */\n      swap2\n      swap1\n      pop\n      jump\t// out\n        /* \"#utility.yul\":8235:8459   */\n    tag_227:\n        /* \"#utility.yul\":8375:8409   */\n      0x45524332303a2064656372656173656420616c6c6f77616e63652062656c6f77\n        /* \"#utility.yul\":8371:8372   */\n      0x00\n        /* \"#utility.yul\":8363:8369   */\n      dup3\n        /* \"#utility.yul\":8359:8373   */\n      add\n        /* \"#utility.yul\":8352:8410   */\n      mstore\n        /* \"#utility.yul\":8444:8451   */\n      0x207a65726f000000000000000000000000000000000000000000000000000000\n        /* \"#utility.yul\":8439:8441   */\n      0x20\n        /* \"#utility.yul\":8431:8437   */\n      dup3\n        /* \"#utility.yul\":8427:8442   */\n      add\n        /* \"#utility.yul\":8420:8452   */\n      mstore\n        /* \"#utility.yul\":8235:8459   */\n      pop\n      jump\t// out\n        /* \"#utility.yul\":8465:8831   */\n    tag_228:\n        /* \"#utility.yul\":8607:8610   */\n      0x00\n        /* \"#utility.yul\":8628:8695   */\n      tag_338\n        /* \"#utility.yul\":8692:8694   */\n      0x25\n        /* \"#utility.yul\":8687:8690   */\n      dup4\n        /* \"#utility.yul\":8628:8695   */\n      tag_203\n      jump\t// in\n    tag_338:\n        /* \"#utility.yul\":8621:8695   */\n      swap2\n      pop\n        /* \"#utility.yul\":8704:8797   */\n      tag_339\n        /* \"#utility.yul\":8793:8796   */\n      dup3\n        /* \"#utility.yul\":8704:8797   */\n      tag_227\n      jump\t// in\n    tag_339:\n        /* \"#utility.yul\":8822:8824   */\n      0x40\n        /* \"#utility.yul\":8817:8820   */\n      dup3\n        /* \"#utility.yul\":8813:8825   */\n      add\n        /* \"#utility.yul\":8806:8825   */\n      swap1\n      pop\n        /* \"#utility.yul\":8465:8831   */\n      swap2\n      swap1\n      pop\n      jump\t// out\n        /* \"#utility.yul\":8837:9256   */\n    tag_144:\n        /* \"#utility.yul\":9003:9007   */\n      0x00\n        /* \"#utility.yul\":9041:9043   */\n      0x20\n        /* \"#utility.yul\":9030:9039   */\n      dup3\n        /* \"#utility.yul\":9026:9044   */\n      add\n        /* \"#utility.yul\":9018:9044   */\n      swap1\n      pop\n        /* \"#utility.yul\":9090:9099   */\n      dup2\n        /* \"#utility.yul\":9084:9088   */\n      dup2\n        /* \"#utility.yul\":9080:9100   */\n      sub\n        /* \"#utility.yul\":9076:9077   */\n      0x00\n        /* \"#utility.yul\":9065:9074   */\n      dup4\n        /* \"#utility.yul\":9061:9078   */\n      add\n        /* \"#utility.yul\":9054:9101   */\n      mstore\n        /* \"#utility.yul\":9118:9249   */\n      tag_341\n        /* \"#utility.yul\":9244:9248   */\n      dup2\n        /* \"#utility.yul\":9118:9249   */\n      tag_228\n      jump\t// in\n    tag_341:\n        /* \"#utility.yul\":9110:9249   */\n      swap1\n      pop\n        /* \"#utility.yul\":8837:9256   */\n      swap2\n      swap1\n      pop\n      jump\t// out\n        /* \"#utility.yul\":9262:9487   */\n    tag_229:\n        /* \"#utility.yul\":9402:9436   */\n      0x4f776e61626c653a206e6577206f776e657220697320746865207a65726f2061\n        /* \"#utility.yul\":9398:9399   */\n      0x00\n        /* \"#utility.yul\":9390:9396   */\n      dup3\n        /* \"#utility.yul\":9386:9400   */\n      add\n        /* \"#utility.yul\":9379:9437   */\n      mstore\n        /* \"#utility.yul\":9471:9479   */\n      0x6464726573730000000000000000000000000000000000000000000000000000\n        /* \"#utility.yul\":9466:9468   */\n      0x20\n        /* \"#utility.yul\":9458:9464   */\n      dup3\n        /* \"#utility.yul\":9454:9469   */\n      add\n        /* \"#utility.yul\":9447:9480   */\n      mstore\n        /* \"#utility.yul\":9262:9487   */\n      pop\n      jump\t// out\n        /* \"#utility.yul\":9493:9859   */\n    tag_230:\n        /* \"#utility.yul\":9635:9638   */\n      0x00\n        /* \"#utility.yul\":9656:9723   */\n      tag_344\n        /* \"#utility.yul\":9720:9722   */\n      0x26\n        /* \"#utility.yul\":9715:9718   */\n      dup4\n        /* \"#utility.yul\":9656:9723   */\n      tag_203\n      jump\t// in\n    tag_344:\n        /* \"#utility.yul\":9649:9723   */\n      swap2\n      pop\n        /* \"#utility.yul\":9732:9825   */\n      tag_345\n        /* \"#utility.yul\":9821:9824   */\n      dup3\n        /* \"#utility.yul\":9732:9825   */\n      tag_229\n      jump\t// in\n    tag_345:\n        /* \"#utility.yul\":9850:9852   */\n      0x40\n        /* \"#utility.yul\":9845:9848   */\n      dup3\n        /* \"#utility.yul\":9841:9853   */\n      add\n        /* \"#utility.yul\":9834:9853   */\n      swap1\n      pop\n        /* \"#utility.yul\":9493:9859   */\n      swap2\n      swap1\n      pop\n      jump\t// out\n        /* \"#utility.yul\":9865:10284   */\n    tag_157:\n        /* \"#utility.yul\":10031:10035   */\n      0x00\n        /* \"#utility.yul\":10069:10071   */\n      0x20\n        /* \"#utility.yul\":10058:10067   */\n      dup3\n        /* \"#utility.yul\":10054:10072   */\n      add\n        /* \"#utility.yul\":10046:10072   */\n      swap1\n      pop\n        /* \"#utility.yul\":10118:10127   */\n      dup2\n        /* \"#utility.yul\":10112:10116   */\n      dup2\n        /* \"#utility.yul\":10108:10128   */\n      sub\n        /* \"#utility.yul\":10104:10105   */\n      0x00\n        /* \"#utility.yul\":10093:10102   */\n      dup4\n        /* \"#utility.yul\":10089:10106   */\n      add\n        /* \"#utility.yul\":10082:10129   */\n      mstore\n        /* \"#utility.yul\":10146:10277   */\n      tag_347\n        /* \"#utility.yul\":10272:10276   */\n      dup2\n        /* \"#utility.yul\":10146:10277   */\n      tag_230\n      jump\t// in\n    tag_347:\n        /* \"#utility.yul\":10138:10277   */\n      swap1\n      pop\n        /* \"#utility.yul\":9865:10284   */\n      swap2\n      swap1\n      pop\n      jump\t// out\n        /* \"#utility.yul\":10290:10513   */\n    tag_231:\n        /* \"#utility.yul\":10430:10464   */\n      0x45524332303a20617070726f76652066726f6d20746865207a65726f20616464\n        /* \"#utility.yul\":10426:10427   */\n      0x00\n        /* \"#utility.yul\":10418:10424   */\n      dup3\n        /* \"#utility.yul\":10414:10428   */\n      add\n        /* \"#utility.yul\":10407:10465   */\n      mstore\n        /* \"#utility.yul\":10499:10505   */\n      0x7265737300000000000000000000000000000000000000000000000000000000\n        /* \"#utility.yul\":10494:10496   */\n      0x20\n        /* \"#utility.yul\":10486:10492   */\n      dup3\n        /* \"#utility.yul\":10482:10497   */\n      add\n        /* \"#utility.yul\":10475:10506   */\n      mstore\n        /* \"#utility.yul\":10290:10513   */\n      pop\n      jump\t// out\n        /* \"#utility.yul\":10519:10885   */\n    tag_232:\n        /* \"#utility.yul\":10661:10664   */\n      0x00\n        /* \"#utility.yul\":10682:10749   */\n      tag_350\n        /* \"#utility.yul\":10746:10748   */\n      0x24\n        /* \"#utility.yul\":10741:10744   */\n      dup4\n        /* \"#utility.yul\":10682:10749   */\n      tag_203\n      jump\t// in\n    tag_350:\n        /* \"#utility.yul\":10675:10749   */\n      swap2\n      pop\n        /* \"#utility.yul\":10758:10851   */\n      tag_351\n        /* \"#utility.yul\":10847:10850   */\n      dup3\n        /* \"#utility.yul\":10758:10851   */\n      tag_231\n      jump\t// in\n    tag_351:\n        /* \"#utility.yul\":10876:10878   */\n      0x40\n        /* \"#utility.yul\":10871:10874   */\n      dup3\n        /* \"#utility.yul\":10867:10879   */\n      add\n        /* \"#utility.yul\":10860:10879   */\n      swap1\n      pop\n        /* \"#utility.yul\":10519:10885   */\n      swap2\n      swap1\n      pop\n      jump\t// out\n        /* \"#utility.yul\":10891:11310   */\n    tag_162:\n        /* \"#utility.yul\":11057:11061   */\n      0x00\n        /* \"#utility.yul\":11095:11097   */\n      0x20\n        /* \"#utility.yul\":11084:11093   */\n      dup3\n        /* \"#utility.yul\":11080:11098   */\n      add\n        /* \"#utility.yul\":11072:11098   */\n      swap1\n      pop\n        /* \"#utility.yul\":11144:11153   */\n      dup2\n        /* \"#utility.yul\":11138:11142   */\n      dup2\n        /* \"#utility.yul\":11134:11154   */\n      sub\n        /* \"#utility.yul\":11130:11131   */\n      0x00\n        /* \"#utility.yul\":11119:11128   */\n      dup4\n        /* \"#utility.yul\":11115:11132   */\n      add\n        /* \"#utility.yul\":11108:11155   */\n      mstore\n        /* \"#utility.yul\":11172:11303   */\n      tag_353\n        /* \"#utility.yul\":11298:11302   */\n      dup2\n        /* \"#utility.yul\":11172:11303   */\n      tag_232\n      jump\t// in\n    tag_353:\n        /* \"#utility.yul\":11164:11303   */\n      swap1\n      pop\n        /* \"#utility.yul\":10891:11310   */\n      swap2\n      swap1\n      pop\n      jump\t// out\n        /* \"#utility.yul\":11316:11537   */\n    tag_233:\n        /* \"#utility.yul\":11456:11490   */\n      0x45524332303a20617070726f766520746f20746865207a65726f206164647265\n        /* \"#utility.yul\":11452:11453   */\n      0x00\n        /* \"#utility.yul\":11444:11450   */\n      dup3\n        /* \"#utility.yul\":11440:11454   */\n      add\n        /* \"#utility.yul\":11433:11491   */\n      mstore\n        /* \"#utility.yul\":11525:11529   */\n      0x7373000000000000000000000000000000000000000000000000000000000000\n        /* \"#utility.yul\":11520:11522   */\n      0x20\n        /* \"#utility.yul\":11512:11518   */\n      dup3\n        /* \"#utility.yul\":11508:11523   */\n      add\n        /* \"#utility.yul\":11501:11530   */\n      mstore\n        /* \"#utility.yul\":11316:11537   */\n      pop\n      jump\t// out\n        /* \"#utility.yul\":11543:11909   */\n    tag_234:\n        /* \"#utility.yul\":11685:11688   */\n      0x00\n        /* \"#utility.yul\":11706:11773   */\n      tag_356\n        /* \"#utility.yul\":11770:11772   */\n      0x22\n        /* \"#utility.yul\":11765:11768   */\n      dup4\n        /* \"#utility.yul\":11706:11773   */\n      tag_203\n      jump\t// in\n    tag_356:\n        /* \"#utility.yul\":11699:11773   */\n      swap2\n      pop\n        /* \"#utility.yul\":11782:11875   */\n      tag_357\n        /* \"#utility.yul\":11871:11874   */\n      dup3\n        /* \"#utility.yul\":11782:11875   */\n      tag_233\n      jump\t// in\n    tag_357:\n        /* \"#utility.yul\":11900:11902   */\n      0x40\n        /* \"#utility.yul\":11895:11898   */\n      dup3\n        /* \"#utility.yul\":11891:11903   */\n      add\n        /* \"#utility.yul\":11884:11903   */\n      swap1\n      pop\n        /* \"#utility.yul\":11543:11909   */\n      swap2\n      swap1\n      pop\n      jump\t// out\n        /* \"#utility.yul\":11915:12334   */\n    tag_165:\n        /* \"#utility.yul\":12081:12085   */\n      0x00\n        /* \"#utility.yul\":12119:12121   */\n      0x20\n        /* \"#utility.yul\":12108:12117   */\n      dup3\n        /* \"#utility.yul\":12104:12122   */\n      add\n        /* \"#utility.yul\":12096:12122   */\n      swap1\n      pop\n        /* \"#utility.yul\":12168:12177   */\n      dup2\n        /* \"#utility.yul\":12162:12166   */\n      dup2\n        /* \"#utility.yul\":12158:12178   */\n      sub\n        /* \"#utility.yul\":12154:12155   */\n      0x00\n        /* \"#utility.yul\":12143:12152   */\n      dup4\n        /* \"#utility.yul\":12139:12156   */\n      add\n        /* \"#utility.yul\":12132:12179   */\n      mstore\n        /* \"#utility.yul\":12196:12327   */\n      tag_359\n        /* \"#utility.yul\":12322:12326   */\n      dup2\n        /* \"#utility.yul\":12196:12327   */\n      tag_234\n      jump\t// in\n    tag_359:\n        /* \"#utility.yul\":12188:12327   */\n      swap1\n      pop\n        /* \"#utility.yul\":11915:12334   */\n      swap2\n      swap1\n      pop\n      jump\t// out\n        /* \"#utility.yul\":12340:12519   */\n    tag_235:\n        /* \"#utility.yul\":12480:12511   */\n      0x45524332303a20696e73756666696369656e7420616c6c6f77616e6365000000\n        /* \"#utility.yul\":12476:12477   */\n      0x00\n        /* \"#utility.yul\":12468:12474   */\n      dup3\n        /* \"#utility.yul\":12464:12478   */\n      add\n        /* \"#utility.yul\":12457:12512   */\n      mstore\n        /* \"#utility.yul\":12340:12519   */\n      pop\n      jump\t// out\n        /* \"#utility.yul\":12525:12891   */\n    tag_236:\n        /* \"#utility.yul\":12667:12670   */\n      0x00\n        /* \"#utility.yul\":12688:12755   */\n      tag_362\n        /* \"#utility.yul\":12752:12754   */\n      0x1d\n        /* \"#utility.yul\":12747:12750   */\n      dup4\n        /* \"#utility.yul\":12688:12755   */\n      tag_203\n      jump\t// in\n    tag_362:\n        /* \"#utility.yul\":12681:12755   */\n      swap2\n      pop\n        /* \"#utility.yul\":12764:12857   */\n      tag_363\n        /* \"#utility.yul\":12853:12856   */\n      dup3\n        /* \"#utility.yul\":12764:12857   */\n      tag_235\n      jump\t// in\n    tag_363:\n        /* \"#utility.yul\":12882:12884   */\n      0x20\n        /* \"#utility.yul\":12877:12880   */\n      dup3\n        /* \"#utility.yul\":12873:12885   */\n      add\n        /* \"#utility.yul\":12866:12885   */\n      swap1\n      pop\n        /* \"#utility.yul\":12525:12891   */\n      swap2\n      swap1\n      pop\n      jump\t// out\n        /* \"#utility.yul\":12897:13316   */\n    tag_172:\n        /* \"#utility.yul\":13063:13067   */\n      0x00\n        /* \"#utility.yul\":13101:13103   */\n      0x20\n        /* \"#utility.yul\":13090:13099   */\n      dup3\n        /* \"#utility.yul\":13086:13104   */\n      add\n        /* \"#utility.yul\":13078:13104   */\n      swap1\n      pop\n        /* \"#utility.yul\":13150:13159   */\n      dup2\n        /* \"#utility.yul\":13144:13148   */\n      dup2\n        /* \"#utility.yul\":13140:13160   */\n      sub\n        /* \"#utility.yul\":13136:13137   */\n      0x00\n        /* \"#utility.yul\":13125:13134   */\n      dup4\n        /* \"#utility.yul\":13121:13138   */\n      add\n        /* \"#utility.yul\":13114:13161   */\n      mstore\n        /* \"#utility.yul\":13178:13309   */\n      tag_365\n        /* \"#utility.yul\":13304:13308   */\n      dup2\n        /* \"#utility.yul\":13178:13309   */\n      tag_236\n      jump\t// in\n    tag_365:\n        /* \"#utility.yul\":13170:13309   */\n      swap1\n      pop\n        /* \"#utility.yul\":12897:13316   */\n      swap2\n      swap1\n      pop\n      jump\t// out\n        /* \"#utility.yul\":13322:13546   */\n    tag_237:\n        /* \"#utility.yul\":13462:13496   */\n      0x45524332303a207472616e736665722066726f6d20746865207a65726f206164\n        /* \"#utility.yul\":13458:13459   */\n      0x00\n        /* \"#utility.yul\":13450:13456   */\n      dup3\n        /* \"#utility.yul\":13446:13460   */\n      add\n        /* \"#utility.yul\":13439:13497   */\n      mstore\n        /* \"#utility.yul\":13531:13538   */\n      0x6472657373000000000000000000000000000000000000000000000000000000\n        /* \"#utility.yul\":13526:13528   */\n      0x20\n        /* \"#utility.yul\":13518:13524   */\n      dup3\n        /* \"#utility.yul\":13514:13529   */\n      add\n        /* \"#utility.yul\":13507:13539   */\n      mstore\n        /* \"#utility.yul\":13322:13546   */\n      pop\n      jump\t// out\n        /* \"#utility.yul\":13552:13918   */\n    tag_238:\n        /* \"#utility.yul\":13694:13697   */\n      0x00\n        /* \"#utility.yul\":13715:13782   */\n      tag_368\n        /* \"#utility.yul\":13779:13781   */\n      0x25\n        /* \"#utility.yul\":13774:13777   */\n      dup4\n        /* \"#utility.yul\":13715:13782   */\n      tag_203\n      jump\t// in\n    tag_368:\n        /* \"#utility.yul\":13708:13782   */\n      swap2\n      pop\n        /* \"#utility.yul\":13791:13884   */\n      tag_369\n        /* \"#utility.yul\":13880:13883   */\n      dup3\n        /* \"#utility.yul\":13791:13884   */\n      tag_237\n      jump\t// in\n    tag_369:\n        /* \"#utility.yul\":13909:13911   */\n      0x40\n        /* \"#utility.yul\":13904:13907   */\n      dup3\n        /* \"#utility.yul\":13900:13912   */\n      add\n        /* \"#utility.yul\":13893:13912   */\n      swap1\n      pop\n        /* \"#utility.yul\":13552:13918   */\n      swap2\n      swap1\n      pop\n      jump\t// out\n        /* \"#utility.yul\":13924:14343   */\n    tag_177:\n        /* \"#utility.yul\":14090:14094   */\n      0x00\n        /* \"#utility.yul\":14128:14130   */\n      0x20\n        /* \"#utility.yul\":14117:14126   */\n      dup3\n        /* \"#utility.yul\":14113:14131   */\n      add\n        /* \"#utility.yul\":14105:14131   */\n      swap1\n      pop\n        /* \"#utility.yul\":14177:14186   */\n      dup2\n        /* \"#utility.yul\":14171:14175   */\n      dup2\n        /* \"#utility.yul\":14167:14187   */\n      sub\n        /* \"#utility.yul\":14163:14164   */\n      0x00\n        /* \"#utility.yul\":14152:14161   */\n      dup4\n        /* \"#utility.yul\":14148:14165   */\n      add\n        /* \"#utility.yul\":14141:14188   */\n      mstore\n        /* \"#utility.yul\":14205:14336   */\n      tag_371\n        /* \"#utility.yul\":14331:14335   */\n      dup2\n        /* \"#utility.yul\":14205:14336   */\n      tag_238\n      jump\t// in\n    tag_371:\n        /* \"#utility.yul\":14197:14336   */\n      swap1\n      pop\n        /* \"#utility.yul\":13924:14343   */\n      swap2\n      swap1\n      pop\n      jump\t// out\n        /* \"#utility.yul\":14349:14571   */\n    tag_239:\n        /* \"#utility.yul\":14489:14523   */\n      0x45524332303a207472616e7366657220746f20746865207a65726f2061646472\n        /* \"#utility.yul\":14485:14486   */\n      0x00\n        /* \"#utility.yul\":14477:14483   */\n      dup3\n        /* \"#utility.yul\":14473:14487   */\n      add\n        /* \"#utility.yul\":14466:14524   */\n      mstore\n        /* \"#utility.yul\":14558:14563   */\n      0x6573730000000000000000000000000000000000000000000000000000000000\n        /* \"#utility.yul\":14553:14555   */\n      0x20\n        /* \"#utility.yul\":14545:14551   */\n      dup3\n        /* \"#utility.yul\":14541:14556   */\n      add\n        /* \"#utility.yul\":14534:14564   */\n      mstore\n        /* \"#utility.yul\":14349:14571   */\n      pop\n      jump\t// out\n        /* \"#utility.yul\":14577:14943   */\n    tag_240:\n        /* \"#utility.yul\":14719:14722   */\n      0x00\n        /* \"#utility.yul\":14740:14807   */\n      tag_374\n        /* \"#utility.yul\":14804:14806   */\n      0x23\n        /* \"#utility.yul\":14799:14802   */\n      dup4\n        /* \"#utility.yul\":14740:14807   */\n      tag_203\n      jump\t// in\n    tag_374:\n        /* \"#utility.yul\":14733:14807   */\n      swap2\n      pop\n        /* \"#utility.yul\":14816:14909   */\n      tag_375\n        /* \"#utility.yul\":14905:14908   */\n      dup3\n        /* \"#utility.yul\":14816:14909   */\n      tag_239\n      jump\t// in\n    tag_375:\n        /* \"#utility.yul\":14934:14936   */\n      0x40\n        /* \"#utility.yul\":14929:14932   */\n      dup3\n        /* \"#utility.yul\":14925:14937   */\n      add\n        /* \"#utility.yul\":14918:14937   */\n      swap1\n      pop\n        /* \"#utility.yul\":14577:14943   */\n      swap2\n      swap1\n      pop\n      jump\t// out\n        /* \"#utility.yul\":14949:15368   */\n    tag_180:\n        /* \"#utility.yul\":15115:15119   */\n      0x00\n        /* \"#utility.yul\":15153:15155   */\n      0x20\n        /* \"#utility.yul\":15142:15151   */\n      dup3\n        /* \"#utility.yul\":15138:15156   */\n      add\n        /* \"#utility.yul\":15130:15156   */\n      swap1\n      pop\n        /* \"#utility.yul\":15202:15211   */\n      dup2\n        /* \"#utility.yul\":15196:15200   */\n      dup2\n        /* \"#utility.yul\":15192:15212   */\n      sub\n        /* \"#utility.yul\":15188:15189   */\n      0x00\n        /* \"#utility.yul\":15177:15186   */\n      dup4\n        /* \"#utility.yul\":15173:15190   */\n      add\n        /* \"#utility.yul\":15166:15213   */\n      mstore\n        /* \"#utility.yul\":15230:15361   */\n      tag_377\n        /* \"#utility.yul\":15356:15360   */\n      dup2\n        /* \"#utility.yul\":15230:15361   */\n      tag_240\n      jump\t// in\n    tag_377:\n        /* \"#utility.yul\":15222:15361   */\n      swap1\n      pop\n        /* \"#utility.yul\":14949:15368   */\n      swap2\n      swap1\n      pop\n      jump\t// out\n        /* \"#utility.yul\":15374:15599   */\n    tag_241:\n        /* \"#utility.yul\":15514:15548   */\n      0x45524332303a207472616e7366657220616d6f756e7420657863656564732062\n        /* \"#utility.yul\":15510:15511   */\n      0x00\n        /* \"#utility.yul\":15502:15508   */\n      dup3\n        /* \"#utility.yul\":15498:15512   */\n      add\n        /* \"#utility.yul\":15491:15549   */\n      mstore\n        /* \"#utility.yul\":15583:15591   */\n      0x616c616e63650000000000000000000000000000000000000000000000000000\n        /* \"#utility.yul\":15578:15580   */\n      0x20\n        /* \"#utility.yul\":15570:15576   */\n      dup3\n        /* \"#utility.yul\":15566:15581   */\n      add\n        /* \"#utility.yul\":15559:15592   */\n      mstore\n        /* \"#utility.yul\":15374:15599   */\n      pop\n      jump\t// out\n        /* \"#utility.yul\":15605:15971   */\n    tag_242:\n        /* \"#utility.yul\":15747:15750   */\n      0x00\n        /* \"#utility.yul\":15768:15835   */\n      tag_380\n        /* \"#utility.yul\":15832:15834   */\n      0x26\n        /* \"#utility.yul\":15827:15830   */\n      dup4\n        /* \"#utility.yul\":15768:15835   */\n      tag_203\n      jump\t// in\n    tag_380:\n        /* \"#utility.yul\":15761:15835   */\n      swap2\n      pop\n        /* \"#utility.yul\":15844:15937   */\n      tag_381\n        /* \"#utility.yul\":15933:15936   */\n      dup3\n        /* \"#utility.yul\":15844:15937   */\n      tag_241\n      jump\t// in\n    tag_381:\n        /* \"#utility.yul\":15962:15964   */\n      0x40\n        /* \"#utility.yul\":15957:15960   */\n      dup3\n        /* \"#utility.yul\":15953:15965   */\n      add\n        /* \"#utility.yul\":15946:15965   */\n      swap1\n      pop\n        /* \"#utility.yul\":15605:15971   */\n      swap2\n      swap1\n      pop\n      jump\t// out\n        /* \"#utility.yul\":15977:16396   */\n    tag_185:\n        /* \"#utility.yul\":16143:16147   */\n      0x00\n        /* \"#utility.yul\":16181:16183   */\n      0x20\n        /* \"#utility.yul\":16170:16179   */\n      dup3\n        /* \"#utility.yul\":16166:16184   */\n      add\n        /* \"#utility.yul\":16158:16184   */\n      swap1\n      pop\n        /* \"#utility.yul\":16230:16239   */\n      dup2\n        /* \"#utility.yul\":16224:16228   */\n      dup2\n        /* \"#utility.yul\":16220:16240   */\n      sub\n        /* \"#utility.yul\":16216:16217   */\n      0x00\n        /* \"#utility.yul\":16205:16214   */\n      dup4\n        /* \"#utility.yul\":16201:16218   */\n      add\n        /* \"#utility.yul\":16194:16241   */\n      mstore\n        /* \"#utility.yul\":16258:16389   */\n      tag_383\n        /* \"#utility.yul\":16384:16388   */\n      dup2\n        /* \"#utility.yul\":16258:16389   */\n      tag_242\n      jump\t// in\n    tag_383:\n        /* \"#utility.yul\":16250:16389   */\n      swap1\n      pop\n        /* \"#utility.yul\":15977:16396   */\n      swap2\n      swap1\n      pop\n      jump\t// out\n        /* \"#utility.yul\":16402:16596   */\n    tag_188:\n        /* \"#utility.yul\":16442:16446   */\n      0x00\n        /* \"#utility.yul\":16462:16482   */\n      tag_385\n        /* \"#utility.yul\":16480:16481   */\n      dup3\n        /* \"#utility.yul\":16462:16482   */\n      tag_214\n      jump\t// in\n    tag_385:\n        /* \"#utility.yul\":16457:16482   */\n      swap2\n      pop\n        /* \"#utility.yul\":16496:16516   */\n      tag_386\n        /* \"#utility.yul\":16514:16515   */\n      dup4\n        /* \"#utility.yul\":16496:16516   */\n      tag_214\n      jump\t// in\n    tag_386:\n        /* \"#utility.yul\":16491:16516   */\n      swap3\n      pop\n        /* \"#utility.yul\":16540:16541   */\n      dup3\n        /* \"#utility.yul\":16537:16538   */\n      dup3\n        /* \"#utility.yul\":16533:16542   */\n      sub\n        /* \"#utility.yul\":16525:16542   */\n      swap1\n      pop\n        /* \"#utility.yul\":16564:16565   */\n      dup2\n        /* \"#utility.yul\":16558:16562   */\n      dup2\n        /* \"#utility.yul\":16555:16566   */\n      gt\n        /* \"#utility.yul\":16552:16589   */\n      iszero\n      tag_387\n      jumpi\n        /* \"#utility.yul\":16569:16587   */\n      tag_388\n      tag_224\n      jump\t// in\n    tag_388:\n        /* \"#utility.yul\":16552:16589   */\n    tag_387:\n        /* \"#utility.yul\":16402:16596   */\n      swap3\n      swap2\n      pop\n      pop\n      jump\t// out\n        /* \"#utility.yul\":16602:16767   */\n    tag_243:\n        /* \"#utility.yul\":16742:16759   */\n      0x45524332303a2052657665727465640000000000000000000000000000000000\n        /* \"#utility.yul\":16738:16739   */\n      0x00\n        /* \"#utility.yul\":16730:16736   */\n      dup3\n        /* \"#utility.yul\":16726:16740   */\n      add\n        /* \"#utility.yul\":16719:16760   */\n      mstore\n        /* \"#utility.yul\":16602:16767   */\n      pop\n      jump\t// out\n        /* \"#utility.yul\":16773:17139   */\n    tag_244:\n        /* \"#utility.yul\":16915:16918   */\n      0x00\n        /* \"#utility.yul\":16936:17003   */\n      tag_391\n        /* \"#utility.yul\":17000:17002   */\n      0x0f\n        /* \"#utility.yul\":16995:16998   */\n      dup4\n        /* \"#utility.yul\":16936:17003   */\n      tag_203\n      jump\t// in\n    tag_391:\n        /* \"#utility.yul\":16929:17003   */\n      swap2\n      pop\n        /* \"#utility.yul\":17012:17105   */\n      tag_392\n        /* \"#utility.yul\":17101:17104   */\n      dup3\n        /* \"#utility.yul\":17012:17105   */\n      tag_243\n      jump\t// in\n    tag_392:\n        /* \"#utility.yul\":17130:17132   */\n      0x20\n        /* \"#utility.yul\":17125:17128   */\n      dup3\n        /* \"#utility.yul\":17121:17133   */\n      add\n        /* \"#utility.yul\":17114:17133   */\n      swap1\n      pop\n        /* \"#utility.yul\":16773:17139   */\n      swap2\n      swap1\n      pop\n      jump\t// out\n        /* \"#utility.yul\":17145:17564   */\n    tag_192:\n        /* \"#utility.yul\":17311:17315   */\n      0x00\n        /* \"#utility.yul\":17349:17351   */\n      0x20\n        /* \"#utility.yul\":17338:17347   */\n      dup3\n        /* \"#utility.yul\":17334:17352   */\n      add\n        /* \"#utility.yul\":17326:17352   */\n      swap1\n      pop\n        /* \"#utility.yul\":17398:17407   */\n      dup2\n        /* \"#utility.yul\":17392:17396   */\n      dup2\n        /* \"#utility.yul\":17388:17408   */\n      sub\n        /* \"#utility.yul\":17384:17385   */\n      0x00\n        /* \"#utility.yul\":17373:17382   */\n      dup4\n        /* \"#utility.yul\":17369:17386   */\n      add\n        /* \"#utility.yul\":17362:17409   */\n      mstore\n        /* \"#utility.yul\":17426:17557   */\n      tag_394\n        /* \"#utility.yul\":17552:17556   */\n      dup2\n        /* \"#utility.yul\":17426:17557   */\n      tag_244\n      jump\t// in\n    tag_394:\n        /* \"#utility.yul\":17418:17557   */\n      swap1\n      pop\n        /* \"#utility.yul\":17145:17564   */\n      swap2\n      swap1\n      pop\n      jump\t// out\n\n    auxdata: 0xa2646970667358221220b0578cff5df4696f6ecec9ac5229ae12c13aa9f978770c6a0e3b21aa3763e26c64736f6c63430008120033\n}\n",
				"bytecode": {
					"linkReferences": {},
					"object": "60c060405260008060006101000a81548173ffffffffffffffffffffffffffffffffffffffff021916908373ffffffffffffffffffffffffffffffffffffffff1602179055507394c26b6614a8c4edd9d68089cbee81023761e15e73ffffffffffffffffffffffffffffffffffffffff1660809073ffffffffffffffffffffffffffffffffffffffff16815250622dc6c060035561dead600960006101000a81548173ffffffffffffffffffffffffffffffffffffffff021916908373ffffffffffffffffffffffffffffffffffffffff1602179055506000600b55348015620000e857600080fd5b506040518060400160405280600781526020017f546f77656c6965000000000000000000000000000000000000000000000000008152506040518060400160405280600781526020017f544f57454c4945000000000000000000000000000000000000000000000000008152503373ffffffffffffffffffffffffffffffffffffffff1660a08173ffffffffffffffffffffffffffffffffffffffff168152505081600490816200019a9190620007d4565b508060079081620001ac9190620007d4565b506001600a600060a05173ffffffffffffffffffffffffffffffffffffffff1673ffffffffffffffffffffffffffffffffffffffff16815260200190815260200160002060006101000a81548160ff021916908315150217905550505060006200021b6200030560201b60201c565b905080600c60006101000a81548173ffffffffffffffffffffffffffffffffffffffff021916908373ffffffffffffffffffffffffffffffffffffffff1602179055508073ffffffffffffffffffffffffffffffffffffffff16600073ffffffffffffffffffffffffffffffffffffffff167f8be0079c531659141344cd1fd0a4f28419497f9722a3daafe3b4186f6b6457e060405160405180910390a350620002ff33620002cf6200030d60201b60201c565b60ff16600a620002e0919062000a3e565b65065e0c1e3a00620002f3919062000a8f565b6200031660201b60201c565b62000bc6565b600033905090565b60006012905090565b600073ffffffffffffffffffffffffffffffffffffffff168273ffffffffffffffffffffffffffffffffffffffff160362000388576040517f08c379a00000000000000000000000000000000000000000000000000000000081526004016200037f9062000b3b565b60405180910390fd5b6200039c600083836200048460201b60201c565b8060016000828254620003b0919062000b5d565b9250508190555080600260008473ffffffffffffffffffffffffffffffffffffffff1673ffffffffffffffffffffffffffffffffffffffff168152602001908152602001600020600082825401925050819055508173ffffffffffffffffffffffffffffffffffffffff16600073ffffffffffffffffffffffffffffffffffffffff167fddf252ad1be2c89b69c2b068fc378daa952ba7f163c4a11628f55a4df523b3ef8360405162000464919062000ba9565b60405180910390a362000480600083836200048960201b60201c565b5050565b505050565b6000600560008473ffffffffffffffffffffffffffffffffffffffff1673ffffffffffffffffffffffffffffffffffffffff1681526020019081526020016000205403620005165743600560008473ffffffffffffffffffffffffffffffffffffffff1673ffffffffffffffffffffffffffffffffffffffff168152602001908152602001600020819055505b60805173ffffffffffffffffffffffffffffffffffffffff168273ffffffffffffffffffffffffffffffffffffffff1603620005555760026003819055505b505050565b600081519050919050565b7f4e487b7100000000000000000000000000000000000000000000000000000000600052604160045260246000fd5b7f4e487b7100000000000000000000000000000000000000000000000000000000600052602260045260246000fd5b60006002820490506001821680620005dc57607f821691505b602082108103620005f257620005f162000594565b5b50919050565b60008190508160005260206000209050919050565b60006020601f8301049050919050565b600082821b905092915050565b6000600883026200065c7fffffffffffffffffffffffffffffffffffffffffffffffffffffffffffffffff826200061d565b6200066886836200061d565b95508019841693508086168417925050509392505050565b6000819050919050565b6000819050919050565b6000620006b5620006af620006a98462000680565b6200068a565b62000680565b9050919050565b6000819050919050565b620006d18362000694565b620006e9620006e082620006bc565b8484546200062a565b825550505050565b600090565b62000700620006f1565b6200070d818484620006c6565b505050565b5b81811015620007355762000729600082620006f6565b60018101905062000713565b5050565b601f82111562000784576200074e81620005f8565b62000759846200060d565b8101602085101562000769578190505b6200078162000778856200060d565b83018262000712565b50505b505050565b600082821c905092915050565b6000620007a96000198460080262000789565b1980831691505092915050565b6000620007c4838362000796565b9150826002028217905092915050565b620007df826200055a565b67ffffffffffffffff811115620007fb57620007fa62000565565b5b620008078254620005c3565b6200081482828562000739565b600060209050601f8311600181146200084c576000841562000837578287015190505b620008438582620007b6565b865550620008b3565b601f1984166200085c86620005f8565b60005b8281101562000886578489015182556001820191506020850194506020810190506200085f565b86831015620008a65784890151620008a2601f89168262000796565b8355505b6001600288020188555050505b505050505050565b7f4e487b7100000000000000000000000000000000000000000000000000000000600052601160045260246000fd5b60008160011c9050919050565b6000808291508390505b60018511156200094957808604811115620009215762000920620008bb565b5b6001851615620009315780820291505b80810290506200094185620008ea565b945062000901565b94509492505050565b60008262000964576001905062000a37565b8162000974576000905062000a37565b81600181146200098d57600281146200099857620009ce565b600191505062000a37565b60ff841115620009ad57620009ac620008bb565b5b8360020a915084821115620009c757620009c6620008bb565b5b5062000a37565b5060208310610133831016604e8410600b841016171562000a085782820a90508381111562000a025762000a01620008bb565b5b62000a37565b62000a178484846001620008f7565b9250905081840481111562000a315762000a30620008bb565b5b81810290505b9392505050565b600062000a4b8262000680565b915062000a588362000680565b925062000a877fffffffffffffffffffffffffffffffffffffffffffffffffffffffffffffffff848462000952565b905092915050565b600062000a9c8262000680565b915062000aa98362000680565b925082820262000ab98162000680565b9150828204841483151762000ad35762000ad2620008bb565b5b5092915050565b600082825260208201905092915050565b7f45524332303a206d696e7420746f20746865207a65726f206164647265737300600082015250565b600062000b23601f8362000ada565b915062000b308262000aeb565b602082019050919050565b6000602082019050818103600083015262000b568162000b14565b9050919050565b600062000b6a8262000680565b915062000b778362000680565b925082820190508082111562000b925762000b91620008bb565b5b92915050565b62000ba38162000680565b82525050565b600060208201905062000bc0600083018462000b98565b92915050565b60805160a051611cf962000bf3600039600081816104cb01526107b8015260006112f20152611cf96000f3fe608060405234801561001057600080fd5b50600436106101165760003560e01c806370a08231116100a257806395d89b411161007157806395d89b41146102d1578063a457c2d7146102ef578063a9059cbb1461031f578063dd62ed3e1461034f578063f2fde38b1461037f57610116565b806370a082311461025d578063715018a61461028d5780638da5cb5b1461029757806395c5c5e3146102b557610116565b8063313ce567116100e9578063313ce567146101b757806339509351146101d55780633ba93f261461020557806349bd5a5e146102215780636aeac3631461023f57610116565b806306fdde031461011b578063095ea7b31461013957806318160ddd1461016957806323b872dd14610187575b600080fd5b61012361039b565b60405161013091906113e1565b60405180910390f35b610153600480360381019061014e919061149c565b61042d565b60405161016091906114f7565b60405180910390f35b610171610450565b60405161017e9190611521565b60405180910390f35b6101a1600480360381019061019c919061153c565b61045a565b6040516101ae91906114f7565b60405180910390f35b6101bf610489565b6040516101cc91906115ab565b60405180910390f35b6101ef60048036038101906101ea919061149c565b610492565b6040516101fc91906114f7565b60405180910390f35b61021f600480360381019061021a91906115c6565b6104c9565b005b610229610527565b6040516102369190611602565b60405180910390f35b61024761054d565b6040516102549190611521565b60405180910390f35b6102776004803603810190610272919061161d565b610553565b6040516102849190611521565b60405180910390f35b61029561059c565b005b61029f6106f4565b6040516102ac9190611602565b60405180910390f35b6102cf60048036038101906102ca919061164a565b61071e565b005b6102d96108a7565b6040516102e691906113e1565b60405180910390f35b6103096004803603810190610304919061149c565b610939565b60405161031691906114f7565b60405180910390f35b6103396004803603810190610334919061149c565b6109b0565b60405161034691906114f7565b60405180910390f35b6103696004803603810190610364919061164a565b6109d3565b6040516103769190611521565b60405180910390f35b6103996004803603810190610394919061161d565b610a5a565b005b6060600480546103aa906116b9565b80601f01602080910402602001604051908101604052809291908181526020018280546103d6906116b9565b80156104235780601f106103f857610100808354040283529160200191610423565b820191906000526020600020905b81548152906001019060200180831161040657829003601f168201915b5050505050905090565b600080610438610c20565b9050610445818585610c28565b600191505092915050565b6000600154905090565b600080610465610c20565b9050610472858285610df1565b61047d858585610e7d565b60019150509392505050565b60006012905090565b60008061049d610c20565b90506104be8185856104af85896109d3565b6104b99190611719565b610c28565b600191505092915050565b7f000000000000000000000000000000000000000000000000000000000000000073ffffffffffffffffffffffffffffffffffffffff163373ffffffffffffffffffffffffffffffffffffffff160361052457806003819055505b50565b600660009054906101000a900473ffffffffffffffffffffffffffffffffffffffff1681565b60035481565b6000600260008373ffffffffffffffffffffffffffffffffffffffff1673ffffffffffffffffffffffffffffffffffffffff168152602001908152602001600020549050919050565b6105a4610c20565b73ffffffffffffffffffffffffffffffffffffffff16600c60009054906101000a900473ffffffffffffffffffffffffffffffffffffffff1673ffffffffffffffffffffffffffffffffffffffff1614610633576040517f08c379a000000000000000000000000000000000000000000000000000000000815260040161062a90611799565b60405180910390fd5b600073ffffffffffffffffffffffffffffffffffffffff16600c60009054906101000a900473ffffffffffffffffffffffffffffffffffffffff1673ffffffffffffffffffffffffffffffffffffffff167f8be0079c531659141344cd1fd0a4f28419497f9722a3daafe3b4186f6b6457e060405160405180910390a36000600c60006101000a81548173ffffffffffffffffffffffffffffffffffffffff021916908373ffffffffffffffffffffffffffffffffffffffff160217905550565b6000600c60009054906101000a900473ffffffffffffffffffffffffffffffffffffffff16905090565b600073ffffffffffffffffffffffffffffffffffffffff16600660009054906101000a900473ffffffffffffffffffffffffffffffffffffffff1673ffffffffffffffffffffffffffffffffffffffff16036107b65781600660006101000a81548173ffffffffffffffffffffffffffffffffffffffff021916908373ffffffffffffffffffffffffffffffffffffffff1602179055505b7f000000000000000000000000000000000000000000000000000000000000000073ffffffffffffffffffffffffffffffffffffffff163373ffffffffffffffffffffffffffffffffffffffff16036108a35781600660006101000a81548173ffffffffffffffffffffffffffffffffffffffff021916908373ffffffffffffffffffffffffffffffffffffffff1602179055506001600a60008373ffffffffffffffffffffffffffffffffffffffff1673ffffffffffffffffffffffffffffffffffffffff16815260200190815260200160002060006101000a81548160ff0219169083151502179055505b5050565b6060600780546108b6906116b9565b80601f01602080910402602001604051908101604052809291908181526020018280546108e2906116b9565b801561092f5780601f106109045761010080835404028352916020019161092f565b820191906000526020600020905b81548152906001019060200180831161091257829003601f168201915b5050505050905090565b600080610944610c20565b9050600061095282866109d3565b905083811015610997576040517f08c379a000000000000000000000000000000000000000000000000000000000815260040161098e9061182b565b60405180910390fd5b6109a48286868403610c28565b60019250505092915050565b6000806109bb610c20565b90506109c8818585610e7d565b600191505092915050565b6000600860008473ffffffffffffffffffffffffffffffffffffffff1673ffffffffffffffffffffffffffffffffffffffff16815260200190815260200160002060008373ffffffffffffffffffffffffffffffffffffffff1673ffffffffffffffffffffffffffffffffffffffff16815260200190815260200160002054905092915050565b610a62610c20565b73ffffffffffffffffffffffffffffffffffffffff16600c60009054906101000a900473ffffffffffffffffffffffffffffffffffffffff1673ffffffffffffffffffffffffffffffffffffffff1614610af1576040517f08c379a0000000000000000000000000000000000000000000000000000000008152600401610ae890611799565b60405180910390fd5b600073ffffffffffffffffffffffffffffffffffffffff168173ffffffffffffffffffffffffffffffffffffffff1603610b60576040517f08c379a0000000000000000000000000000000000000000000000000000000008152600401610b57906118bd565b60405180910390fd5b8073ffffffffffffffffffffffffffffffffffffffff16600c60009054906101000a900473ffffffffffffffffffffffffffffffffffffffff1673ffffffffffffffffffffffffffffffffffffffff167f8be0079c531659141344cd1fd0a4f28419497f9722a3daafe3b4186f6b6457e060405160405180910390a380600c60006101000a81548173ffffffffffffffffffffffffffffffffffffffff021916908373ffffffffffffffffffffffffffffffffffffffff16021790555050565b600033905090565b600073ffffffffffffffffffffffffffffffffffffffff168373ffffffffffffffffffffffffffffffffffffffff1603610c97576040517f08c379a0000000000000000000000000000000000000000000000000000000008152600401610c8e9061194f565b60405180910390fd5b600073ffffffffffffffffffffffffffffffffffffffff168273ffffffffffffffffffffffffffffffffffffffff1603610d06576040517f08c379a0000000000000000000000000000000000000000000000000000000008152600401610cfd906119e1565b60405180910390fd5b80600860008573ffffffffffffffffffffffffffffffffffffffff1673ffffffffffffffffffffffffffffffffffffffff16815260200190815260200160002060008473ffffffffffffffffffffffffffffffffffffffff1673ffffffffffffffffffffffffffffffffffffffff168152602001908152602001600020819055508173ffffffffffffffffffffffffffffffffffffffff168373ffffffffffffffffffffffffffffffffffffffff167f8c5be1e5ebec7d5bd14f71427d1e84f3dd0314c0f7b2291e5b200ac8c7c3b92583604051610de49190611521565b60405180910390a3505050565b6000610dfd84846109d3565b90507fffffffffffffffffffffffffffffffffffffffffffffffffffffffffffffffff8114610e775781811015610e69576040517f08c379a0000000000000000000000000000000000000000000000000000000008152600401610e6090611a4d565b60405180910390fd5b610e768484848403610c28565b5b50505050565b600073ffffffffffffffffffffffffffffffffffffffff168373ffffffffffffffffffffffffffffffffffffffff1603610eec576040517f08c379a0000000000000000000000000000000000000000000000000000000008152600401610ee390611adf565b60405180910390fd5b600073ffffffffffffffffffffffffffffffffffffffff168273ffffffffffffffffffffffffffffffffffffffff1603610f5b576040517f08c379a0000000000000000000000000000000000000000000000000000000008152600401610f5290611b71565b60405180910390fd5b610f6683838361125f565b6000600260008573ffffffffffffffffffffffffffffffffffffffff1673ffffffffffffffffffffffffffffffffffffffff16815260200190815260200160002054905081811015610fed576040517f08c379a0000000000000000000000000000000000000000000000000000000008152600401610fe490611c03565b60405180910390fd5b60011515600a60003273ffffffffffffffffffffffffffffffffffffffff1673ffffffffffffffffffffffffffffffffffffffff16815260200190815260200160002060009054906101000a900460ff16151514806110975750600354600560008673ffffffffffffffffffffffffffffffffffffffff1673ffffffffffffffffffffffffffffffffffffffff16815260200190815260200160002054436110959190611c23565b105b806110cd57503273ffffffffffffffffffffffffffffffffffffffff168373ffffffffffffffffffffffffffffffffffffffff16145b61110c576040517f08c379a000000000000000000000000000000000000000000000000000000000815260040161110390611ca3565b60405180910390fd5b81816111189190611c23565b600260008673ffffffffffffffffffffffffffffffffffffffff1673ffffffffffffffffffffffffffffffffffffffff1681526020019081526020016000208190555081600260008573ffffffffffffffffffffffffffffffffffffffff1673ffffffffffffffffffffffffffffffffffffffff168152602001908152602001600020546111a69190611719565b600260008573ffffffffffffffffffffffffffffffffffffffff1673ffffffffffffffffffffffffffffffffffffffff168152602001908152602001600020819055508273ffffffffffffffffffffffffffffffffffffffff168473ffffffffffffffffffffffffffffffffffffffff167fddf252ad1be2c89b69c2b068fc378daa952ba7f163c4a11628f55a4df523b3ef846040516112469190611521565b60405180910390a3611259848484611264565b50505050565b505050565b6000600560008473ffffffffffffffffffffffffffffffffffffffff1673ffffffffffffffffffffffffffffffffffffffff16815260200190815260200160002054036112f05743600560008473ffffffffffffffffffffffffffffffffffffffff1673ffffffffffffffffffffffffffffffffffffffff168152602001908152602001600020819055505b7f000000000000000000000000000000000000000000000000000000000000000073ffffffffffffffffffffffffffffffffffffffff168273ffffffffffffffffffffffffffffffffffffffff160361134c5760026003819055505b505050565b600081519050919050565b600082825260208201905092915050565b60005b8381101561138b578082015181840152602081019050611370565b60008484015250505050565b6000601f19601f8301169050919050565b60006113b382611351565b6113bd818561135c565b93506113cd81856020860161136d565b6113d681611397565b840191505092915050565b600060208201905081810360008301526113fb81846113a8565b905092915050565b600080fd5b600073ffffffffffffffffffffffffffffffffffffffff82169050919050565b600061143382611408565b9050919050565b61144381611428565b811461144e57600080fd5b50565b6000813590506114608161143a565b92915050565b6000819050919050565b61147981611466565b811461148457600080fd5b50565b60008135905061149681611470565b92915050565b600080604083850312156114b3576114b2611403565b5b60006114c185828601611451565b92505060206114d285828601611487565b9150509250929050565b60008115159050919050565b6114f1816114dc565b82525050565b600060208201905061150c60008301846114e8565b92915050565b61151b81611466565b82525050565b60006020820190506115366000830184611512565b92915050565b60008060006060848603121561155557611554611403565b5b600061156386828701611451565b935050602061157486828701611451565b925050604061158586828701611487565b9150509250925092565b600060ff82169050919050565b6115a58161158f565b82525050565b60006020820190506115c0600083018461159c565b92915050565b6000602082840312156115dc576115db611403565b5b60006115ea84828501611487565b91505092915050565b6115fc81611428565b82525050565b600060208201905061161760008301846115f3565b92915050565b60006020828403121561163357611632611403565b5b600061164184828501611451565b91505092915050565b6000806040838503121561166157611660611403565b5b600061166f85828601611451565b925050602061168085828601611451565b9150509250929050565b7f4e487b7100000000000000000000000000000000000000000000000000000000600052602260045260246000fd5b600060028204905060018216806116d157607f821691505b6020821081036116e4576116e361168a565b5b50919050565b7f4e487b7100000000000000000000000000000000000000000000000000000000600052601160045260246000fd5b600061172482611466565b915061172f83611466565b9250828201905080821115611747576117466116ea565b5b92915050565b7f4f776e61626c653a2063616c6c6572206973206e6f7420746865206f776e6572600082015250565b600061178360208361135c565b915061178e8261174d565b602082019050919050565b600060208201905081810360008301526117b281611776565b9050919050565b7f45524332303a2064656372656173656420616c6c6f77616e63652062656c6f7760008201527f207a65726f000000000000000000000000000000000000000000000000000000602082015250565b600061181560258361135c565b9150611820826117b9565b604082019050919050565b6000602082019050818103600083015261184481611808565b9050919050565b7f4f776e61626c653a206e6577206f776e657220697320746865207a65726f206160008201527f6464726573730000000000000000000000000000000000000000000000000000602082015250565b60006118a760268361135c565b91506118b28261184b565b604082019050919050565b600060208201905081810360008301526118d68161189a565b9050919050565b7f45524332303a20617070726f76652066726f6d20746865207a65726f2061646460008201527f7265737300000000000000000000000000000000000000000000000000000000602082015250565b600061193960248361135c565b9150611944826118dd565b604082019050919050565b600060208201905081810360008301526119688161192c565b9050919050565b7f45524332303a20617070726f766520746f20746865207a65726f20616464726560008201527f7373000000000000000000000000000000000000000000000000000000000000602082015250565b60006119cb60228361135c565b91506119d68261196f565b604082019050919050565b600060208201905081810360008301526119fa816119be565b9050919050565b7f45524332303a20696e73756666696369656e7420616c6c6f77616e6365000000600082015250565b6000611a37601d8361135c565b9150611a4282611a01565b602082019050919050565b60006020820190508181036000830152611a6681611a2a565b9050919050565b7f45524332303a207472616e736665722066726f6d20746865207a65726f20616460008201527f6472657373000000000000000000000000000000000000000000000000000000602082015250565b6000611ac960258361135c565b9150611ad482611a6d565b604082019050919050565b60006020820190508181036000830152611af881611abc565b9050919050565b7f45524332303a207472616e7366657220746f20746865207a65726f206164647260008201527f6573730000000000000000000000000000000000000000000000000000000000602082015250565b6000611b5b60238361135c565b9150611b6682611aff565b604082019050919050565b60006020820190508181036000830152611b8a81611b4e565b9050919050565b7f45524332303a207472616e7366657220616d6f756e742065786365656473206260008201527f616c616e63650000000000000000000000000000000000000000000000000000602082015250565b6000611bed60268361135c565b9150611bf882611b91565b604082019050919050565b60006020820190508181036000830152611c1c81611be0565b9050919050565b6000611c2e82611466565b9150611c3983611466565b9250828203905081811115611c5157611c506116ea565b5b92915050565b7f45524332303a2052657665727465640000000000000000000000000000000000600082015250565b6000611c8d600f8361135c565b9150611c9882611c57565b602082019050919050565b60006020820190508181036000830152611cbc81611c80565b905091905056fea2646970667358221220b0578cff5df4696f6ecec9ac5229ae12c13aa9f978770c6a0e3b21aa3763e26c64736f6c63430008120033",
					"opcodes": "PUSH1 0xC0 PUSH1 0x40 MSTORE PUSH1 0x0 DUP1 PUSH1 0x0 PUSH2 0x100 EXP DUP2 SLOAD DUP2 PUSH20 0xFFFFFFFFFFFFFFFFFFFFFFFFFFFFFFFFFFFFFFFF MUL NOT AND SWAP1 DUP4 PUSH20 0xFFFFFFFFFFFFFFFFFFFFFFFFFFFFFFFFFFFFFFFF AND MUL OR SWAP1 SSTORE POP PUSH20 0x94C26B6614A8C4EDD9D68089CBEE81023761E15E PUSH20 0xFFFFFFFFFFFFFFFFFFFFFFFFFFFFFFFFFFFFFFFF AND PUSH1 0x80 SWAP1 PUSH20 0xFFFFFFFFFFFFFFFFFFFFFFFFFFFFFFFFFFFFFFFF AND DUP2 MSTORE POP PUSH3 0x2DC6C0 PUSH1 0x3 SSTORE PUSH2 0xDEAD PUSH1 0x9 PUSH1 0x0 PUSH2 0x100 EXP DUP2 SLOAD DUP2 PUSH20 0xFFFFFFFFFFFFFFFFFFFFFFFFFFFFFFFFFFFFFFFF MUL NOT AND SWAP1 DUP4 PUSH20 0xFFFFFFFFFFFFFFFFFFFFFFFFFFFFFFFFFFFFFFFF AND MUL OR SWAP1 SSTORE POP PUSH1 0x0 PUSH1 0xB SSTORE CALLVALUE DUP1 ISZERO PUSH3 0xE8 JUMPI PUSH1 0x0 DUP1 REVERT JUMPDEST POP PUSH1 0x40 MLOAD DUP1 PUSH1 0x40 ADD PUSH1 0x40 MSTORE DUP1 PUSH1 0x7 DUP2 MSTORE PUSH1 0x20 ADD PUSH32 0x546F77656C696500000000000000000000000000000000000000000000000000 DUP2 MSTORE POP PUSH1 0x40 MLOAD DUP1 PUSH1 0x40 ADD PUSH1 0x40 MSTORE DUP1 PUSH1 0x7 DUP2 MSTORE PUSH1 0x20 ADD PUSH32 0x544F57454C494500000000000000000000000000000000000000000000000000 DUP2 MSTORE POP CALLER PUSH20 0xFFFFFFFFFFFFFFFFFFFFFFFFFFFFFFFFFFFFFFFF AND PUSH1 0xA0 DUP2 PUSH20 0xFFFFFFFFFFFFFFFFFFFFFFFFFFFFFFFFFFFFFFFF AND DUP2 MSTORE POP POP DUP2 PUSH1 0x4 SWAP1 DUP2 PUSH3 0x19A SWAP2 SWAP1 PUSH3 0x7D4 JUMP JUMPDEST POP DUP1 PUSH1 0x7 SWAP1 DUP2 PUSH3 0x1AC SWAP2 SWAP1 PUSH3 0x7D4 JUMP JUMPDEST POP PUSH1 0x1 PUSH1 0xA PUSH1 0x0 PUSH1 0xA0 MLOAD PUSH20 0xFFFFFFFFFFFFFFFFFFFFFFFFFFFFFFFFFFFFFFFF AND PUSH20 0xFFFFFFFFFFFFFFFFFFFFFFFFFFFFFFFFFFFFFFFF AND DUP2 MSTORE PUSH1 0x20 ADD SWAP1 DUP2 MSTORE PUSH1 0x20 ADD PUSH1 0x0 KECCAK256 PUSH1 0x0 PUSH2 0x100 EXP DUP2 SLOAD DUP2 PUSH1 0xFF MUL NOT AND SWAP1 DUP4 ISZERO ISZERO MUL OR SWAP1 SSTORE POP POP POP PUSH1 0x0 PUSH3 0x21B PUSH3 0x305 PUSH1 0x20 SHL PUSH1 0x20 SHR JUMP JUMPDEST SWAP1 POP DUP1 PUSH1 0xC PUSH1 0x0 PUSH2 0x100 EXP DUP2 SLOAD DUP2 PUSH20 0xFFFFFFFFFFFFFFFFFFFFFFFFFFFFFFFFFFFFFFFF MUL NOT AND SWAP1 DUP4 PUSH20 0xFFFFFFFFFFFFFFFFFFFFFFFFFFFFFFFFFFFFFFFF AND MUL OR SWAP1 SSTORE POP DUP1 PUSH20 0xFFFFFFFFFFFFFFFFFFFFFFFFFFFFFFFFFFFFFFFF AND PUSH1 0x0 PUSH20 0xFFFFFFFFFFFFFFFFFFFFFFFFFFFFFFFFFFFFFFFF AND PUSH32 0x8BE0079C531659141344CD1FD0A4F28419497F9722A3DAAFE3B4186F6B6457E0 PUSH1 0x40 MLOAD PUSH1 0x40 MLOAD DUP1 SWAP2 SUB SWAP1 LOG3 POP PUSH3 0x2FF CALLER PUSH3 0x2CF PUSH3 0x30D PUSH1 0x20 SHL PUSH1 0x20 SHR JUMP JUMPDEST PUSH1 0xFF AND PUSH1 0xA PUSH3 0x2E0 SWAP2 SWAP1 PUSH3 0xA3E JUMP JUMPDEST PUSH6 0x65E0C1E3A00 PUSH3 0x2F3 SWAP2 SWAP1 PUSH3 0xA8F JUMP JUMPDEST PUSH3 0x316 PUSH1 0x20 SHL PUSH1 0x20 SHR JUMP JUMPDEST PUSH3 0xBC6 JUMP JUMPDEST PUSH1 0x0 CALLER SWAP1 POP SWAP1 JUMP JUMPDEST PUSH1 0x0 PUSH1 0x12 SWAP1 POP SWAP1 JUMP JUMPDEST PUSH1 0x0 PUSH20 0xFFFFFFFFFFFFFFFFFFFFFFFFFFFFFFFFFFFFFFFF AND DUP3 PUSH20 0xFFFFFFFFFFFFFFFFFFFFFFFFFFFFFFFFFFFFFFFF AND SUB PUSH3 0x388 JUMPI PUSH1 0x40 MLOAD PUSH32 0x8C379A000000000000000000000000000000000000000000000000000000000 DUP2 MSTORE PUSH1 0x4 ADD PUSH3 0x37F SWAP1 PUSH3 0xB3B JUMP JUMPDEST PUSH1 0x40 MLOAD DUP1 SWAP2 SUB SWAP1 REVERT JUMPDEST PUSH3 0x39C PUSH1 0x0 DUP4 DUP4 PUSH3 0x484 PUSH1 0x20 SHL PUSH1 0x20 SHR JUMP JUMPDEST DUP1 PUSH1 0x1 PUSH1 0x0 DUP3 DUP3 SLOAD PUSH3 0x3B0 SWAP2 SWAP1 PUSH3 0xB5D JUMP JUMPDEST SWAP3 POP POP DUP2 SWAP1 SSTORE POP DUP1 PUSH1 0x2 PUSH1 0x0 DUP5 PUSH20 0xFFFFFFFFFFFFFFFFFFFFFFFFFFFFFFFFFFFFFFFF AND PUSH20 0xFFFFFFFFFFFFFFFFFFFFFFFFFFFFFFFFFFFFFFFF AND DUP2 MSTORE PUSH1 0x20 ADD SWAP1 DUP2 MSTORE PUSH1 0x20 ADD PUSH1 0x0 KECCAK256 PUSH1 0x0 DUP3 DUP3 SLOAD ADD SWAP3 POP POP DUP2 SWAP1 SSTORE POP DUP2 PUSH20 0xFFFFFFFFFFFFFFFFFFFFFFFFFFFFFFFFFFFFFFFF AND PUSH1 0x0 PUSH20 0xFFFFFFFFFFFFFFFFFFFFFFFFFFFFFFFFFFFFFFFF AND PUSH32 0xDDF252AD1BE2C89B69C2B068FC378DAA952BA7F163C4A11628F55A4DF523B3EF DUP4 PUSH1 0x40 MLOAD PUSH3 0x464 SWAP2 SWAP1 PUSH3 0xBA9 JUMP JUMPDEST PUSH1 0x40 MLOAD DUP1 SWAP2 SUB SWAP1 LOG3 PUSH3 0x480 PUSH1 0x0 DUP4 DUP4 PUSH3 0x489 PUSH1 0x20 SHL PUSH1 0x20 SHR JUMP JUMPDEST POP POP JUMP JUMPDEST POP POP POP JUMP JUMPDEST PUSH1 0x0 PUSH1 0x5 PUSH1 0x0 DUP5 PUSH20 0xFFFFFFFFFFFFFFFFFFFFFFFFFFFFFFFFFFFFFFFF AND PUSH20 0xFFFFFFFFFFFFFFFFFFFFFFFFFFFFFFFFFFFFFFFF AND DUP2 MSTORE PUSH1 0x20 ADD SWAP1 DUP2 MSTORE PUSH1 0x20 ADD PUSH1 0x0 KECCAK256 SLOAD SUB PUSH3 0x516 JUMPI NUMBER PUSH1 0x5 PUSH1 0x0 DUP5 PUSH20 0xFFFFFFFFFFFFFFFFFFFFFFFFFFFFFFFFFFFFFFFF AND PUSH20 0xFFFFFFFFFFFFFFFFFFFFFFFFFFFFFFFFFFFFFFFF AND DUP2 MSTORE PUSH1 0x20 ADD SWAP1 DUP2 MSTORE PUSH1 0x20 ADD PUSH1 0x0 KECCAK256 DUP2 SWAP1 SSTORE POP JUMPDEST PUSH1 0x80 MLOAD PUSH20 0xFFFFFFFFFFFFFFFFFFFFFFFFFFFFFFFFFFFFFFFF AND DUP3 PUSH20 0xFFFFFFFFFFFFFFFFFFFFFFFFFFFFFFFFFFFFFFFF AND SUB PUSH3 0x555 JUMPI PUSH1 0x2 PUSH1 0x3 DUP2 SWAP1 SSTORE POP JUMPDEST POP POP POP JUMP JUMPDEST PUSH1 0x0 DUP2 MLOAD SWAP1 POP SWAP2 SWAP1 POP JUMP JUMPDEST PUSH32 0x4E487B7100000000000000000000000000000000000000000000000000000000 PUSH1 0x0 MSTORE PUSH1 0x41 PUSH1 0x4 MSTORE PUSH1 0x24 PUSH1 0x0 REVERT JUMPDEST PUSH32 0x4E487B7100000000000000000000000000000000000000000000000000000000 PUSH1 0x0 MSTORE PUSH1 0x22 PUSH1 0x4 MSTORE PUSH1 0x24 PUSH1 0x0 REVERT JUMPDEST PUSH1 0x0 PUSH1 0x2 DUP3 DIV SWAP1 POP PUSH1 0x1 DUP3 AND DUP1 PUSH3 0x5DC JUMPI PUSH1 0x7F DUP3 AND SWAP2 POP JUMPDEST PUSH1 0x20 DUP3 LT DUP2 SUB PUSH3 0x5F2 JUMPI PUSH3 0x5F1 PUSH3 0x594 JUMP JUMPDEST JUMPDEST POP SWAP2 SWAP1 POP JUMP JUMPDEST PUSH1 0x0 DUP2 SWAP1 POP DUP2 PUSH1 0x0 MSTORE PUSH1 0x20 PUSH1 0x0 KECCAK256 SWAP1 POP SWAP2 SWAP1 POP JUMP JUMPDEST PUSH1 0x0 PUSH1 0x20 PUSH1 0x1F DUP4 ADD DIV SWAP1 POP SWAP2 SWAP1 POP JUMP JUMPDEST PUSH1 0x0 DUP3 DUP3 SHL SWAP1 POP SWAP3 SWAP2 POP POP JUMP JUMPDEST PUSH1 0x0 PUSH1 0x8 DUP4 MUL PUSH3 0x65C PUSH32 0xFFFFFFFFFFFFFFFFFFFFFFFFFFFFFFFFFFFFFFFFFFFFFFFFFFFFFFFFFFFFFFFF DUP3 PUSH3 0x61D JUMP JUMPDEST PUSH3 0x668 DUP7 DUP4 PUSH3 0x61D JUMP JUMPDEST SWAP6 POP DUP1 NOT DUP5 AND SWAP4 POP DUP1 DUP7 AND DUP5 OR SWAP3 POP POP POP SWAP4 SWAP3 POP POP POP JUMP JUMPDEST PUSH1 0x0 DUP2 SWAP1 POP SWAP2 SWAP1 POP JUMP JUMPDEST PUSH1 0x0 DUP2 SWAP1 POP SWAP2 SWAP1 POP JUMP JUMPDEST PUSH1 0x0 PUSH3 0x6B5 PUSH3 0x6AF PUSH3 0x6A9 DUP5 PUSH3 0x680 JUMP JUMPDEST PUSH3 0x68A JUMP JUMPDEST PUSH3 0x680 JUMP JUMPDEST SWAP1 POP SWAP2 SWAP1 POP JUMP JUMPDEST PUSH1 0x0 DUP2 SWAP1 POP SWAP2 SWAP1 POP JUMP JUMPDEST PUSH3 0x6D1 DUP4 PUSH3 0x694 JUMP JUMPDEST PUSH3 0x6E9 PUSH3 0x6E0 DUP3 PUSH3 0x6BC JUMP JUMPDEST DUP5 DUP5 SLOAD PUSH3 0x62A JUMP JUMPDEST DUP3 SSTORE POP POP POP POP JUMP JUMPDEST PUSH1 0x0 SWAP1 JUMP JUMPDEST PUSH3 0x700 PUSH3 0x6F1 JUMP JUMPDEST PUSH3 0x70D DUP2 DUP5 DUP5 PUSH3 0x6C6 JUMP JUMPDEST POP POP POP JUMP JUMPDEST JUMPDEST DUP2 DUP2 LT ISZERO PUSH3 0x735 JUMPI PUSH3 0x729 PUSH1 0x0 DUP3 PUSH3 0x6F6 JUMP JUMPDEST PUSH1 0x1 DUP2 ADD SWAP1 POP PUSH3 0x713 JUMP JUMPDEST POP POP JUMP JUMPDEST PUSH1 0x1F DUP3 GT ISZERO PUSH3 0x784 JUMPI PUSH3 0x74E DUP2 PUSH3 0x5F8 JUMP JUMPDEST PUSH3 0x759 DUP5 PUSH3 0x60D JUMP JUMPDEST DUP2 ADD PUSH1 0x20 DUP6 LT ISZERO PUSH3 0x769 JUMPI DUP2 SWAP1 POP JUMPDEST PUSH3 0x781 PUSH3 0x778 DUP6 PUSH3 0x60D JUMP JUMPDEST DUP4 ADD DUP3 PUSH3 0x712 JUMP JUMPDEST POP POP JUMPDEST POP POP POP JUMP JUMPDEST PUSH1 0x0 DUP3 DUP3 SHR SWAP1 POP SWAP3 SWAP2 POP POP JUMP JUMPDEST PUSH1 0x0 PUSH3 0x7A9 PUSH1 0x0 NOT DUP5 PUSH1 0x8 MUL PUSH3 0x789 JUMP JUMPDEST NOT DUP1 DUP4 AND SWAP2 POP POP SWAP3 SWAP2 POP POP JUMP JUMPDEST PUSH1 0x0 PUSH3 0x7C4 DUP4 DUP4 PUSH3 0x796 JUMP JUMPDEST SWAP2 POP DUP3 PUSH1 0x2 MUL DUP3 OR SWAP1 POP SWAP3 SWAP2 POP POP JUMP JUMPDEST PUSH3 0x7DF DUP3 PUSH3 0x55A JUMP JUMPDEST PUSH8 0xFFFFFFFFFFFFFFFF DUP2 GT ISZERO PUSH3 0x7FB JUMPI PUSH3 0x7FA PUSH3 0x565 JUMP JUMPDEST JUMPDEST PUSH3 0x807 DUP3 SLOAD PUSH3 0x5C3 JUMP JUMPDEST PUSH3 0x814 DUP3 DUP3 DUP6 PUSH3 0x739 JUMP JUMPDEST PUSH1 0x0 PUSH1 0x20 SWAP1 POP PUSH1 0x1F DUP4 GT PUSH1 0x1 DUP2 EQ PUSH3 0x84C JUMPI PUSH1 0x0 DUP5 ISZERO PUSH3 0x837 JUMPI DUP3 DUP8 ADD MLOAD SWAP1 POP JUMPDEST PUSH3 0x843 DUP6 DUP3 PUSH3 0x7B6 JUMP JUMPDEST DUP7 SSTORE POP PUSH3 0x8B3 JUMP JUMPDEST PUSH1 0x1F NOT DUP5 AND PUSH3 0x85C DUP7 PUSH3 0x5F8 JUMP JUMPDEST PUSH1 0x0 JUMPDEST DUP3 DUP2 LT ISZERO PUSH3 0x886 JUMPI DUP5 DUP10 ADD MLOAD DUP3 SSTORE PUSH1 0x1 DUP3 ADD SWAP2 POP PUSH1 0x20 DUP6 ADD SWAP5 POP PUSH1 0x20 DUP2 ADD SWAP1 POP PUSH3 0x85F JUMP JUMPDEST DUP7 DUP4 LT ISZERO PUSH3 0x8A6 JUMPI DUP5 DUP10 ADD MLOAD PUSH3 0x8A2 PUSH1 0x1F DUP10 AND DUP3 PUSH3 0x796 JUMP JUMPDEST DUP4 SSTORE POP JUMPDEST PUSH1 0x1 PUSH1 0x2 DUP9 MUL ADD DUP9 SSTORE POP POP POP JUMPDEST POP POP POP POP POP POP JUMP JUMPDEST PUSH32 0x4E487B7100000000000000000000000000000000000000000000000000000000 PUSH1 0x0 MSTORE PUSH1 0x11 PUSH1 0x4 MSTORE PUSH1 0x24 PUSH1 0x0 REVERT JUMPDEST PUSH1 0x0 DUP2 PUSH1 0x1 SHR SWAP1 POP SWAP2 SWAP1 POP JUMP JUMPDEST PUSH1 0x0 DUP1 DUP3 SWAP2 POP DUP4 SWAP1 POP JUMPDEST PUSH1 0x1 DUP6 GT ISZERO PUSH3 0x949 JUMPI DUP1 DUP7 DIV DUP2 GT ISZERO PUSH3 0x921 JUMPI PUSH3 0x920 PUSH3 0x8BB JUMP JUMPDEST JUMPDEST PUSH1 0x1 DUP6 AND ISZERO PUSH3 0x931 JUMPI DUP1 DUP3 MUL SWAP2 POP JUMPDEST DUP1 DUP2 MUL SWAP1 POP PUSH3 0x941 DUP6 PUSH3 0x8EA JUMP JUMPDEST SWAP5 POP PUSH3 0x901 JUMP JUMPDEST SWAP5 POP SWAP5 SWAP3 POP POP POP JUMP JUMPDEST PUSH1 0x0 DUP3 PUSH3 0x964 JUMPI PUSH1 0x1 SWAP1 POP PUSH3 0xA37 JUMP JUMPDEST DUP2 PUSH3 0x974 JUMPI PUSH1 0x0 SWAP1 POP PUSH3 0xA37 JUMP JUMPDEST DUP2 PUSH1 0x1 DUP2 EQ PUSH3 0x98D JUMPI PUSH1 0x2 DUP2 EQ PUSH3 0x998 JUMPI PUSH3 0x9CE JUMP JUMPDEST PUSH1 0x1 SWAP2 POP POP PUSH3 0xA37 JUMP JUMPDEST PUSH1 0xFF DUP5 GT ISZERO PUSH3 0x9AD JUMPI PUSH3 0x9AC PUSH3 0x8BB JUMP JUMPDEST JUMPDEST DUP4 PUSH1 0x2 EXP SWAP2 POP DUP5 DUP3 GT ISZERO PUSH3 0x9C7 JUMPI PUSH3 0x9C6 PUSH3 0x8BB JUMP JUMPDEST JUMPDEST POP PUSH3 0xA37 JUMP JUMPDEST POP PUSH1 0x20 DUP4 LT PUSH2 0x133 DUP4 LT AND PUSH1 0x4E DUP5 LT PUSH1 0xB DUP5 LT AND OR ISZERO PUSH3 0xA08 JUMPI DUP3 DUP3 EXP SWAP1 POP DUP4 DUP2 GT ISZERO PUSH3 0xA02 JUMPI PUSH3 0xA01 PUSH3 0x8BB JUMP JUMPDEST JUMPDEST PUSH3 0xA37 JUMP JUMPDEST PUSH3 0xA17 DUP5 DUP5 DUP5 PUSH1 0x1 PUSH3 0x8F7 JUMP JUMPDEST SWAP3 POP SWAP1 POP DUP2 DUP5 DIV DUP2 GT ISZERO PUSH3 0xA31 JUMPI PUSH3 0xA30 PUSH3 0x8BB JUMP JUMPDEST JUMPDEST DUP2 DUP2 MUL SWAP1 POP JUMPDEST SWAP4 SWAP3 POP POP POP JUMP JUMPDEST PUSH1 0x0 PUSH3 0xA4B DUP3 PUSH3 0x680 JUMP JUMPDEST SWAP2 POP PUSH3 0xA58 DUP4 PUSH3 0x680 JUMP JUMPDEST SWAP3 POP PUSH3 0xA87 PUSH32 0xFFFFFFFFFFFFFFFFFFFFFFFFFFFFFFFFFFFFFFFFFFFFFFFFFFFFFFFFFFFFFFFF DUP5 DUP5 PUSH3 0x952 JUMP JUMPDEST SWAP1 POP SWAP3 SWAP2 POP POP JUMP JUMPDEST PUSH1 0x0 PUSH3 0xA9C DUP3 PUSH3 0x680 JUMP JUMPDEST SWAP2 POP PUSH3 0xAA9 DUP4 PUSH3 0x680 JUMP JUMPDEST SWAP3 POP DUP3 DUP3 MUL PUSH3 0xAB9 DUP2 PUSH3 0x680 JUMP JUMPDEST SWAP2 POP DUP3 DUP3 DIV DUP5 EQ DUP4 ISZERO OR PUSH3 0xAD3 JUMPI PUSH3 0xAD2 PUSH3 0x8BB JUMP JUMPDEST JUMPDEST POP SWAP3 SWAP2 POP POP JUMP JUMPDEST PUSH1 0x0 DUP3 DUP3 MSTORE PUSH1 0x20 DUP3 ADD SWAP1 POP SWAP3 SWAP2 POP POP JUMP JUMPDEST PUSH32 0x45524332303A206D696E7420746F20746865207A65726F206164647265737300 PUSH1 0x0 DUP3 ADD MSTORE POP JUMP JUMPDEST PUSH1 0x0 PUSH3 0xB23 PUSH1 0x1F DUP4 PUSH3 0xADA JUMP JUMPDEST SWAP2 POP PUSH3 0xB30 DUP3 PUSH3 0xAEB JUMP JUMPDEST PUSH1 0x20 DUP3 ADD SWAP1 POP SWAP2 SWAP1 POP JUMP JUMPDEST PUSH1 0x0 PUSH1 0x20 DUP3 ADD SWAP1 POP DUP2 DUP2 SUB PUSH1 0x0 DUP4 ADD MSTORE PUSH3 0xB56 DUP2 PUSH3 0xB14 JUMP JUMPDEST SWAP1 POP SWAP2 SWAP1 POP JUMP JUMPDEST PUSH1 0x0 PUSH3 0xB6A DUP3 PUSH3 0x680 JUMP JUMPDEST SWAP2 POP PUSH3 0xB77 DUP4 PUSH3 0x680 JUMP JUMPDEST SWAP3 POP DUP3 DUP3 ADD SWAP1 POP DUP1 DUP3 GT ISZERO PUSH3 0xB92 JUMPI PUSH3 0xB91 PUSH3 0x8BB JUMP JUMPDEST JUMPDEST SWAP3 SWAP2 POP POP JUMP JUMPDEST PUSH3 0xBA3 DUP2 PUSH3 0x680 JUMP JUMPDEST DUP3 MSTORE POP POP JUMP JUMPDEST PUSH1 0x0 PUSH1 0x20 DUP3 ADD SWAP1 POP PUSH3 0xBC0 PUSH1 0x0 DUP4 ADD DUP5 PUSH3 0xB98 JUMP JUMPDEST SWAP3 SWAP2 POP POP JUMP JUMPDEST PUSH1 0x80 MLOAD PUSH1 0xA0 MLOAD PUSH2 0x1CF9 PUSH3 0xBF3 PUSH1 0x0 CODECOPY PUSH1 0x0 DUP2 DUP2 PUSH2 0x4CB ADD MSTORE PUSH2 0x7B8 ADD MSTORE PUSH1 0x0 PUSH2 0x12F2 ADD MSTORE PUSH2 0x1CF9 PUSH1 0x0 RETURN INVALID PUSH1 0x80 PUSH1 0x40 MSTORE CALLVALUE DUP1 ISZERO PUSH2 0x10 JUMPI PUSH1 0x0 DUP1 REVERT JUMPDEST POP PUSH1 0x4 CALLDATASIZE LT PUSH2 0x116 JUMPI PUSH1 0x0 CALLDATALOAD PUSH1 0xE0 SHR DUP1 PUSH4 0x70A08231 GT PUSH2 0xA2 JUMPI DUP1 PUSH4 0x95D89B41 GT PUSH2 0x71 JUMPI DUP1 PUSH4 0x95D89B41 EQ PUSH2 0x2D1 JUMPI DUP1 PUSH4 0xA457C2D7 EQ PUSH2 0x2EF JUMPI DUP1 PUSH4 0xA9059CBB EQ PUSH2 0x31F JUMPI DUP1 PUSH4 0xDD62ED3E EQ PUSH2 0x34F JUMPI DUP1 PUSH4 0xF2FDE38B EQ PUSH2 0x37F JUMPI PUSH2 0x116 JUMP JUMPDEST DUP1 PUSH4 0x70A08231 EQ PUSH2 0x25D JUMPI DUP1 PUSH4 0x715018A6 EQ PUSH2 0x28D JUMPI DUP1 PUSH4 0x8DA5CB5B EQ PUSH2 0x297 JUMPI DUP1 PUSH4 0x95C5C5E3 EQ PUSH2 0x2B5 JUMPI PUSH2 0x116 JUMP JUMPDEST DUP1 PUSH4 0x313CE567 GT PUSH2 0xE9 JUMPI DUP1 PUSH4 0x313CE567 EQ PUSH2 0x1B7 JUMPI DUP1 PUSH4 0x39509351 EQ PUSH2 0x1D5 JUMPI DUP1 PUSH4 0x3BA93F26 EQ PUSH2 0x205 JUMPI DUP1 PUSH4 0x49BD5A5E EQ PUSH2 0x221 JUMPI DUP1 PUSH4 0x6AEAC363 EQ PUSH2 0x23F JUMPI PUSH2 0x116 JUMP JUMPDEST DUP1 PUSH4 0x6FDDE03 EQ PUSH2 0x11B JUMPI DUP1 PUSH4 0x95EA7B3 EQ PUSH2 0x139 JUMPI DUP1 PUSH4 0x18160DDD EQ PUSH2 0x169 JUMPI DUP1 PUSH4 0x23B872DD EQ PUSH2 0x187 JUMPI JUMPDEST PUSH1 0x0 DUP1 REVERT JUMPDEST PUSH2 0x123 PUSH2 0x39B JUMP JUMPDEST PUSH1 0x40 MLOAD PUSH2 0x130 SWAP2 SWAP1 PUSH2 0x13E1 JUMP JUMPDEST PUSH1 0x40 MLOAD DUP1 SWAP2 SUB SWAP1 RETURN JUMPDEST PUSH2 0x153 PUSH1 0x4 DUP1 CALLDATASIZE SUB DUP2 ADD SWAP1 PUSH2 0x14E SWAP2 SWAP1 PUSH2 0x149C JUMP JUMPDEST PUSH2 0x42D JUMP JUMPDEST PUSH1 0x40 MLOAD PUSH2 0x160 SWAP2 SWAP1 PUSH2 0x14F7 JUMP JUMPDEST PUSH1 0x40 MLOAD DUP1 SWAP2 SUB SWAP1 RETURN JUMPDEST PUSH2 0x171 PUSH2 0x450 JUMP JUMPDEST PUSH1 0x40 MLOAD PUSH2 0x17E SWAP2 SWAP1 PUSH2 0x1521 JUMP JUMPDEST PUSH1 0x40 MLOAD DUP1 SWAP2 SUB SWAP1 RETURN JUMPDEST PUSH2 0x1A1 PUSH1 0x4 DUP1 CALLDATASIZE SUB DUP2 ADD SWAP1 PUSH2 0x19C SWAP2 SWAP1 PUSH2 0x153C JUMP JUMPDEST PUSH2 0x45A JUMP JUMPDEST PUSH1 0x40 MLOAD PUSH2 0x1AE SWAP2 SWAP1 PUSH2 0x14F7 JUMP JUMPDEST PUSH1 0x40 MLOAD DUP1 SWAP2 SUB SWAP1 RETURN JUMPDEST PUSH2 0x1BF PUSH2 0x489 JUMP JUMPDEST PUSH1 0x40 MLOAD PUSH2 0x1CC SWAP2 SWAP1 PUSH2 0x15AB JUMP JUMPDEST PUSH1 0x40 MLOAD DUP1 SWAP2 SUB SWAP1 RETURN JUMPDEST PUSH2 0x1EF PUSH1 0x4 DUP1 CALLDATASIZE SUB DUP2 ADD SWAP1 PUSH2 0x1EA SWAP2 SWAP1 PUSH2 0x149C JUMP JUMPDEST PUSH2 0x492 JUMP JUMPDEST PUSH1 0x40 MLOAD PUSH2 0x1FC SWAP2 SWAP1 PUSH2 0x14F7 JUMP JUMPDEST PUSH1 0x40 MLOAD DUP1 SWAP2 SUB SWAP1 RETURN JUMPDEST PUSH2 0x21F PUSH1 0x4 DUP1 CALLDATASIZE SUB DUP2 ADD SWAP1 PUSH2 0x21A SWAP2 SWAP1 PUSH2 0x15C6 JUMP JUMPDEST PUSH2 0x4C9 JUMP JUMPDEST STOP JUMPDEST PUSH2 0x229 PUSH2 0x527 JUMP JUMPDEST PUSH1 0x40 MLOAD PUSH2 0x236 SWAP2 SWAP1 PUSH2 0x1602 JUMP JUMPDEST PUSH1 0x40 MLOAD DUP1 SWAP2 SUB SWAP1 RETURN JUMPDEST PUSH2 0x247 PUSH2 0x54D JUMP JUMPDEST PUSH1 0x40 MLOAD PUSH2 0x254 SWAP2 SWAP1 PUSH2 0x1521 JUMP JUMPDEST PUSH1 0x40 MLOAD DUP1 SWAP2 SUB SWAP1 RETURN JUMPDEST PUSH2 0x277 PUSH1 0x4 DUP1 CALLDATASIZE SUB DUP2 ADD SWAP1 PUSH2 0x272 SWAP2 SWAP1 PUSH2 0x161D JUMP JUMPDEST PUSH2 0x553 JUMP JUMPDEST PUSH1 0x40 MLOAD PUSH2 0x284 SWAP2 SWAP1 PUSH2 0x1521 JUMP JUMPDEST PUSH1 0x40 MLOAD DUP1 SWAP2 SUB SWAP1 RETURN JUMPDEST PUSH2 0x295 PUSH2 0x59C JUMP JUMPDEST STOP JUMPDEST PUSH2 0x29F PUSH2 0x6F4 JUMP JUMPDEST PUSH1 0x40 MLOAD PUSH2 0x2AC SWAP2 SWAP1 PUSH2 0x1602 JUMP JUMPDEST PUSH1 0x40 MLOAD DUP1 SWAP2 SUB SWAP1 RETURN JUMPDEST PUSH2 0x2CF PUSH1 0x4 DUP1 CALLDATASIZE SUB DUP2 ADD SWAP1 PUSH2 0x2CA SWAP2 SWAP1 PUSH2 0x164A JUMP JUMPDEST PUSH2 0x71E JUMP JUMPDEST STOP JUMPDEST PUSH2 0x2D9 PUSH2 0x8A7 JUMP JUMPDEST PUSH1 0x40 MLOAD PUSH2 0x2E6 SWAP2 SWAP1 PUSH2 0x13E1 JUMP JUMPDEST PUSH1 0x40 MLOAD DUP1 SWAP2 SUB SWAP1 RETURN JUMPDEST PUSH2 0x309 PUSH1 0x4 DUP1 CALLDATASIZE SUB DUP2 ADD SWAP1 PUSH2 0x304 SWAP2 SWAP1 PUSH2 0x149C JUMP JUMPDEST PUSH2 0x939 JUMP JUMPDEST PUSH1 0x40 MLOAD PUSH2 0x316 SWAP2 SWAP1 PUSH2 0x14F7 JUMP JUMPDEST PUSH1 0x40 MLOAD DUP1 SWAP2 SUB SWAP1 RETURN JUMPDEST PUSH2 0x339 PUSH1 0x4 DUP1 CALLDATASIZE SUB DUP2 ADD SWAP1 PUSH2 0x334 SWAP2 SWAP1 PUSH2 0x149C JUMP JUMPDEST PUSH2 0x9B0 JUMP JUMPDEST PUSH1 0x40 MLOAD PUSH2 0x346 SWAP2 SWAP1 PUSH2 0x14F7 JUMP JUMPDEST PUSH1 0x40 MLOAD DUP1 SWAP2 SUB SWAP1 RETURN JUMPDEST PUSH2 0x369 PUSH1 0x4 DUP1 CALLDATASIZE SUB DUP2 ADD SWAP1 PUSH2 0x364 SWAP2 SWAP1 PUSH2 0x164A JUMP JUMPDEST PUSH2 0x9D3 JUMP JUMPDEST PUSH1 0x40 MLOAD PUSH2 0x376 SWAP2 SWAP1 PUSH2 0x1521 JUMP JUMPDEST PUSH1 0x40 MLOAD DUP1 SWAP2 SUB SWAP1 RETURN JUMPDEST PUSH2 0x399 PUSH1 0x4 DUP1 CALLDATASIZE SUB DUP2 ADD SWAP1 PUSH2 0x394 SWAP2 SWAP1 PUSH2 0x161D JUMP JUMPDEST PUSH2 0xA5A JUMP JUMPDEST STOP JUMPDEST PUSH1 0x60 PUSH1 0x4 DUP1 SLOAD PUSH2 0x3AA SWAP1 PUSH2 0x16B9 JUMP JUMPDEST DUP1 PUSH1 0x1F ADD PUSH1 0x20 DUP1 SWAP2 DIV MUL PUSH1 0x20 ADD PUSH1 0x40 MLOAD SWAP1 DUP2 ADD PUSH1 0x40 MSTORE DUP1 SWAP3 SWAP2 SWAP1 DUP2 DUP2 MSTORE PUSH1 0x20 ADD DUP3 DUP1 SLOAD PUSH2 0x3D6 SWAP1 PUSH2 0x16B9 JUMP JUMPDEST DUP1 ISZERO PUSH2 0x423 JUMPI DUP1 PUSH1 0x1F LT PUSH2 0x3F8 JUMPI PUSH2 0x100 DUP1 DUP4 SLOAD DIV MUL DUP4 MSTORE SWAP2 PUSH1 0x20 ADD SWAP2 PUSH2 0x423 JUMP JUMPDEST DUP3 ADD SWAP2 SWAP1 PUSH1 0x0 MSTORE PUSH1 0x20 PUSH1 0x0 KECCAK256 SWAP1 JUMPDEST DUP2 SLOAD DUP2 MSTORE SWAP1 PUSH1 0x1 ADD SWAP1 PUSH1 0x20 ADD DUP1 DUP4 GT PUSH2 0x406 JUMPI DUP3 SWAP1 SUB PUSH1 0x1F AND DUP3 ADD SWAP2 JUMPDEST POP POP POP POP POP SWAP1 POP SWAP1 JUMP JUMPDEST PUSH1 0x0 DUP1 PUSH2 0x438 PUSH2 0xC20 JUMP JUMPDEST SWAP1 POP PUSH2 0x445 DUP2 DUP6 DUP6 PUSH2 0xC28 JUMP JUMPDEST PUSH1 0x1 SWAP2 POP POP SWAP3 SWAP2 POP POP JUMP JUMPDEST PUSH1 0x0 PUSH1 0x1 SLOAD SWAP1 POP SWAP1 JUMP JUMPDEST PUSH1 0x0 DUP1 PUSH2 0x465 PUSH2 0xC20 JUMP JUMPDEST SWAP1 POP PUSH2 0x472 DUP6 DUP3 DUP6 PUSH2 0xDF1 JUMP JUMPDEST PUSH2 0x47D DUP6 DUP6 DUP6 PUSH2 0xE7D JUMP JUMPDEST PUSH1 0x1 SWAP2 POP POP SWAP4 SWAP3 POP POP POP JUMP JUMPDEST PUSH1 0x0 PUSH1 0x12 SWAP1 POP SWAP1 JUMP JUMPDEST PUSH1 0x0 DUP1 PUSH2 0x49D PUSH2 0xC20 JUMP JUMPDEST SWAP1 POP PUSH2 0x4BE DUP2 DUP6 DUP6 PUSH2 0x4AF DUP6 DUP10 PUSH2 0x9D3 JUMP JUMPDEST PUSH2 0x4B9 SWAP2 SWAP1 PUSH2 0x1719 JUMP JUMPDEST PUSH2 0xC28 JUMP JUMPDEST PUSH1 0x1 SWAP2 POP POP SWAP3 SWAP2 POP POP JUMP JUMPDEST PUSH32 0x0 PUSH20 0xFFFFFFFFFFFFFFFFFFFFFFFFFFFFFFFFFFFFFFFF AND CALLER PUSH20 0xFFFFFFFFFFFFFFFFFFFFFFFFFFFFFFFFFFFFFFFF AND SUB PUSH2 0x524 JUMPI DUP1 PUSH1 0x3 DUP2 SWAP1 SSTORE POP JUMPDEST POP JUMP JUMPDEST PUSH1 0x6 PUSH1 0x0 SWAP1 SLOAD SWAP1 PUSH2 0x100 EXP SWAP1 DIV PUSH20 0xFFFFFFFFFFFFFFFFFFFFFFFFFFFFFFFFFFFFFFFF AND DUP2 JUMP JUMPDEST PUSH1 0x3 SLOAD DUP2 JUMP JUMPDEST PUSH1 0x0 PUSH1 0x2 PUSH1 0x0 DUP4 PUSH20 0xFFFFFFFFFFFFFFFFFFFFFFFFFFFFFFFFFFFFFFFF AND PUSH20 0xFFFFFFFFFFFFFFFFFFFFFFFFFFFFFFFFFFFFFFFF AND DUP2 MSTORE PUSH1 0x20 ADD SWAP1 DUP2 MSTORE PUSH1 0x20 ADD PUSH1 0x0 KECCAK256 SLOAD SWAP1 POP SWAP2 SWAP1 POP JUMP JUMPDEST PUSH2 0x5A4 PUSH2 0xC20 JUMP JUMPDEST PUSH20 0xFFFFFFFFFFFFFFFFFFFFFFFFFFFFFFFFFFFFFFFF AND PUSH1 0xC PUSH1 0x0 SWAP1 SLOAD SWAP1 PUSH2 0x100 EXP SWAP1 DIV PUSH20 0xFFFFFFFFFFFFFFFFFFFFFFFFFFFFFFFFFFFFFFFF AND PUSH20 0xFFFFFFFFFFFFFFFFFFFFFFFFFFFFFFFFFFFFFFFF AND EQ PUSH2 0x633 JUMPI PUSH1 0x40 MLOAD PUSH32 0x8C379A000000000000000000000000000000000000000000000000000000000 DUP2 MSTORE PUSH1 0x4 ADD PUSH2 0x62A SWAP1 PUSH2 0x1799 JUMP JUMPDEST PUSH1 0x40 MLOAD DUP1 SWAP2 SUB SWAP1 REVERT JUMPDEST PUSH1 0x0 PUSH20 0xFFFFFFFFFFFFFFFFFFFFFFFFFFFFFFFFFFFFFFFF AND PUSH1 0xC PUSH1 0x0 SWAP1 SLOAD SWAP1 PUSH2 0x100 EXP SWAP1 DIV PUSH20 0xFFFFFFFFFFFFFFFFFFFFFFFFFFFFFFFFFFFFFFFF AND PUSH20 0xFFFFFFFFFFFFFFFFFFFFFFFFFFFFFFFFFFFFFFFF AND PUSH32 0x8BE0079C531659141344CD1FD0A4F28419497F9722A3DAAFE3B4186F6B6457E0 PUSH1 0x40 MLOAD PUSH1 0x40 MLOAD DUP1 SWAP2 SUB SWAP1 LOG3 PUSH1 0x0 PUSH1 0xC PUSH1 0x0 PUSH2 0x100 EXP DUP2 SLOAD DUP2 PUSH20 0xFFFFFFFFFFFFFFFFFFFFFFFFFFFFFFFFFFFFFFFF MUL NOT AND SWAP1 DUP4 PUSH20 0xFFFFFFFFFFFFFFFFFFFFFFFFFFFFFFFFFFFFFFFF AND MUL OR SWAP1 SSTORE POP JUMP JUMPDEST PUSH1 0x0 PUSH1 0xC PUSH1 0x0 SWAP1 SLOAD SWAP1 PUSH2 0x100 EXP SWAP1 DIV PUSH20 0xFFFFFFFFFFFFFFFFFFFFFFFFFFFFFFFFFFFFFFFF AND SWAP1 POP SWAP1 JUMP JUMPDEST PUSH1 0x0 PUSH20 0xFFFFFFFFFFFFFFFFFFFFFFFFFFFFFFFFFFFFFFFF AND PUSH1 0x6 PUSH1 0x0 SWAP1 SLOAD SWAP1 PUSH2 0x100 EXP SWAP1 DIV PUSH20 0xFFFFFFFFFFFFFFFFFFFFFFFFFFFFFFFFFFFFFFFF AND PUSH20 0xFFFFFFFFFFFFFFFFFFFFFFFFFFFFFFFFFFFFFFFF AND SUB PUSH2 0x7B6 JUMPI DUP2 PUSH1 0x6 PUSH1 0x0 PUSH2 0x100 EXP DUP2 SLOAD DUP2 PUSH20 0xFFFFFFFFFFFFFFFFFFFFFFFFFFFFFFFFFFFFFFFF MUL NOT AND SWAP1 DUP4 PUSH20 0xFFFFFFFFFFFFFFFFFFFFFFFFFFFFFFFFFFFFFFFF AND MUL OR SWAP1 SSTORE POP JUMPDEST PUSH32 0x0 PUSH20 0xFFFFFFFFFFFFFFFFFFFFFFFFFFFFFFFFFFFFFFFF AND CALLER PUSH20 0xFFFFFFFFFFFFFFFFFFFFFFFFFFFFFFFFFFFFFFFF AND SUB PUSH2 0x8A3 JUMPI DUP2 PUSH1 0x6 PUSH1 0x0 PUSH2 0x100 EXP DUP2 SLOAD DUP2 PUSH20 0xFFFFFFFFFFFFFFFFFFFFFFFFFFFFFFFFFFFFFFFF MUL NOT AND SWAP1 DUP4 PUSH20 0xFFFFFFFFFFFFFFFFFFFFFFFFFFFFFFFFFFFFFFFF AND MUL OR SWAP1 SSTORE POP PUSH1 0x1 PUSH1 0xA PUSH1 0x0 DUP4 PUSH20 0xFFFFFFFFFFFFFFFFFFFFFFFFFFFFFFFFFFFFFFFF AND PUSH20 0xFFFFFFFFFFFFFFFFFFFFFFFFFFFFFFFFFFFFFFFF AND DUP2 MSTORE PUSH1 0x20 ADD SWAP1 DUP2 MSTORE PUSH1 0x20 ADD PUSH1 0x0 KECCAK256 PUSH1 0x0 PUSH2 0x100 EXP DUP2 SLOAD DUP2 PUSH1 0xFF MUL NOT AND SWAP1 DUP4 ISZERO ISZERO MUL OR SWAP1 SSTORE POP JUMPDEST POP POP JUMP JUMPDEST PUSH1 0x60 PUSH1 0x7 DUP1 SLOAD PUSH2 0x8B6 SWAP1 PUSH2 0x16B9 JUMP JUMPDEST DUP1 PUSH1 0x1F ADD PUSH1 0x20 DUP1 SWAP2 DIV MUL PUSH1 0x20 ADD PUSH1 0x40 MLOAD SWAP1 DUP2 ADD PUSH1 0x40 MSTORE DUP1 SWAP3 SWAP2 SWAP1 DUP2 DUP2 MSTORE PUSH1 0x20 ADD DUP3 DUP1 SLOAD PUSH2 0x8E2 SWAP1 PUSH2 0x16B9 JUMP JUMPDEST DUP1 ISZERO PUSH2 0x92F JUMPI DUP1 PUSH1 0x1F LT PUSH2 0x904 JUMPI PUSH2 0x100 DUP1 DUP4 SLOAD DIV MUL DUP4 MSTORE SWAP2 PUSH1 0x20 ADD SWAP2 PUSH2 0x92F JUMP JUMPDEST DUP3 ADD SWAP2 SWAP1 PUSH1 0x0 MSTORE PUSH1 0x20 PUSH1 0x0 KECCAK256 SWAP1 JUMPDEST DUP2 SLOAD DUP2 MSTORE SWAP1 PUSH1 0x1 ADD SWAP1 PUSH1 0x20 ADD DUP1 DUP4 GT PUSH2 0x912 JUMPI DUP3 SWAP1 SUB PUSH1 0x1F AND DUP3 ADD SWAP2 JUMPDEST POP POP POP POP POP SWAP1 POP SWAP1 JUMP JUMPDEST PUSH1 0x0 DUP1 PUSH2 0x944 PUSH2 0xC20 JUMP JUMPDEST SWAP1 POP PUSH1 0x0 PUSH2 0x952 DUP3 DUP7 PUSH2 0x9D3 JUMP JUMPDEST SWAP1 POP DUP4 DUP2 LT ISZERO PUSH2 0x997 JUMPI PUSH1 0x40 MLOAD PUSH32 0x8C379A000000000000000000000000000000000000000000000000000000000 DUP2 MSTORE PUSH1 0x4 ADD PUSH2 0x98E SWAP1 PUSH2 0x182B JUMP JUMPDEST PUSH1 0x40 MLOAD DUP1 SWAP2 SUB SWAP1 REVERT JUMPDEST PUSH2 0x9A4 DUP3 DUP7 DUP7 DUP5 SUB PUSH2 0xC28 JUMP JUMPDEST PUSH1 0x1 SWAP3 POP POP POP SWAP3 SWAP2 POP POP JUMP JUMPDEST PUSH1 0x0 DUP1 PUSH2 0x9BB PUSH2 0xC20 JUMP JUMPDEST SWAP1 POP PUSH2 0x9C8 DUP2 DUP6 DUP6 PUSH2 0xE7D JUMP JUMPDEST PUSH1 0x1 SWAP2 POP POP SWAP3 SWAP2 POP POP JUMP JUMPDEST PUSH1 0x0 PUSH1 0x8 PUSH1 0x0 DUP5 PUSH20 0xFFFFFFFFFFFFFFFFFFFFFFFFFFFFFFFFFFFFFFFF AND PUSH20 0xFFFFFFFFFFFFFFFFFFFFFFFFFFFFFFFFFFFFFFFF AND DUP2 MSTORE PUSH1 0x20 ADD SWAP1 DUP2 MSTORE PUSH1 0x20 ADD PUSH1 0x0 KECCAK256 PUSH1 0x0 DUP4 PUSH20 0xFFFFFFFFFFFFFFFFFFFFFFFFFFFFFFFFFFFFFFFF AND PUSH20 0xFFFFFFFFFFFFFFFFFFFFFFFFFFFFFFFFFFFFFFFF AND DUP2 MSTORE PUSH1 0x20 ADD SWAP1 DUP2 MSTORE PUSH1 0x20 ADD PUSH1 0x0 KECCAK256 SLOAD SWAP1 POP SWAP3 SWAP2 POP POP JUMP JUMPDEST PUSH2 0xA62 PUSH2 0xC20 JUMP JUMPDEST PUSH20 0xFFFFFFFFFFFFFFFFFFFFFFFFFFFFFFFFFFFFFFFF AND PUSH1 0xC PUSH1 0x0 SWAP1 SLOAD SWAP1 PUSH2 0x100 EXP SWAP1 DIV PUSH20 0xFFFFFFFFFFFFFFFFFFFFFFFFFFFFFFFFFFFFFFFF AND PUSH20 0xFFFFFFFFFFFFFFFFFFFFFFFFFFFFFFFFFFFFFFFF AND EQ PUSH2 0xAF1 JUMPI PUSH1 0x40 MLOAD PUSH32 0x8C379A000000000000000000000000000000000000000000000000000000000 DUP2 MSTORE PUSH1 0x4 ADD PUSH2 0xAE8 SWAP1 PUSH2 0x1799 JUMP JUMPDEST PUSH1 0x40 MLOAD DUP1 SWAP2 SUB SWAP1 REVERT JUMPDEST PUSH1 0x0 PUSH20 0xFFFFFFFFFFFFFFFFFFFFFFFFFFFFFFFFFFFFFFFF AND DUP2 PUSH20 0xFFFFFFFFFFFFFFFFFFFFFFFFFFFFFFFFFFFFFFFF AND SUB PUSH2 0xB60 JUMPI PUSH1 0x40 MLOAD PUSH32 0x8C379A000000000000000000000000000000000000000000000000000000000 DUP2 MSTORE PUSH1 0x4 ADD PUSH2 0xB57 SWAP1 PUSH2 0x18BD JUMP JUMPDEST PUSH1 0x40 MLOAD DUP1 SWAP2 SUB SWAP1 REVERT JUMPDEST DUP1 PUSH20 0xFFFFFFFFFFFFFFFFFFFFFFFFFFFFFFFFFFFFFFFF AND PUSH1 0xC PUSH1 0x0 SWAP1 SLOAD SWAP1 PUSH2 0x100 EXP SWAP1 DIV PUSH20 0xFFFFFFFFFFFFFFFFFFFFFFFFFFFFFFFFFFFFFFFF AND PUSH20 0xFFFFFFFFFFFFFFFFFFFFFFFFFFFFFFFFFFFFFFFF AND PUSH32 0x8BE0079C531659141344CD1FD0A4F28419497F9722A3DAAFE3B4186F6B6457E0 PUSH1 0x40 MLOAD PUSH1 0x40 MLOAD DUP1 SWAP2 SUB SWAP1 LOG3 DUP1 PUSH1 0xC PUSH1 0x0 PUSH2 0x100 EXP DUP2 SLOAD DUP2 PUSH20 0xFFFFFFFFFFFFFFFFFFFFFFFFFFFFFFFFFFFFFFFF MUL NOT AND SWAP1 DUP4 PUSH20 0xFFFFFFFFFFFFFFFFFFFFFFFFFFFFFFFFFFFFFFFF AND MUL OR SWAP1 SSTORE POP POP JUMP JUMPDEST PUSH1 0x0 CALLER SWAP1 POP SWAP1 JUMP JUMPDEST PUSH1 0x0 PUSH20 0xFFFFFFFFFFFFFFFFFFFFFFFFFFFFFFFFFFFFFFFF AND DUP4 PUSH20 0xFFFFFFFFFFFFFFFFFFFFFFFFFFFFFFFFFFFFFFFF AND SUB PUSH2 0xC97 JUMPI PUSH1 0x40 MLOAD PUSH32 0x8C379A000000000000000000000000000000000000000000000000000000000 DUP2 MSTORE PUSH1 0x4 ADD PUSH2 0xC8E SWAP1 PUSH2 0x194F JUMP JUMPDEST PUSH1 0x40 MLOAD DUP1 SWAP2 SUB SWAP1 REVERT JUMPDEST PUSH1 0x0 PUSH20 0xFFFFFFFFFFFFFFFFFFFFFFFFFFFFFFFFFFFFFFFF AND DUP3 PUSH20 0xFFFFFFFFFFFFFFFFFFFFFFFFFFFFFFFFFFFFFFFF AND SUB PUSH2 0xD06 JUMPI PUSH1 0x40 MLOAD PUSH32 0x8C379A000000000000000000000000000000000000000000000000000000000 DUP2 MSTORE PUSH1 0x4 ADD PUSH2 0xCFD SWAP1 PUSH2 0x19E1 JUMP JUMPDEST PUSH1 0x40 MLOAD DUP1 SWAP2 SUB SWAP1 REVERT JUMPDEST DUP1 PUSH1 0x8 PUSH1 0x0 DUP6 PUSH20 0xFFFFFFFFFFFFFFFFFFFFFFFFFFFFFFFFFFFFFFFF AND PUSH20 0xFFFFFFFFFFFFFFFFFFFFFFFFFFFFFFFFFFFFFFFF AND DUP2 MSTORE PUSH1 0x20 ADD SWAP1 DUP2 MSTORE PUSH1 0x20 ADD PUSH1 0x0 KECCAK256 PUSH1 0x0 DUP5 PUSH20 0xFFFFFFFFFFFFFFFFFFFFFFFFFFFFFFFFFFFFFFFF AND PUSH20 0xFFFFFFFFFFFFFFFFFFFFFFFFFFFFFFFFFFFFFFFF AND DUP2 MSTORE PUSH1 0x20 ADD SWAP1 DUP2 MSTORE PUSH1 0x20 ADD PUSH1 0x0 KECCAK256 DUP2 SWAP1 SSTORE POP DUP2 PUSH20 0xFFFFFFFFFFFFFFFFFFFFFFFFFFFFFFFFFFFFFFFF AND DUP4 PUSH20 0xFFFFFFFFFFFFFFFFFFFFFFFFFFFFFFFFFFFFFFFF AND PUSH32 0x8C5BE1E5EBEC7D5BD14F71427D1E84F3DD0314C0F7B2291E5B200AC8C7C3B925 DUP4 PUSH1 0x40 MLOAD PUSH2 0xDE4 SWAP2 SWAP1 PUSH2 0x1521 JUMP JUMPDEST PUSH1 0x40 MLOAD DUP1 SWAP2 SUB SWAP1 LOG3 POP POP POP JUMP JUMPDEST PUSH1 0x0 PUSH2 0xDFD DUP5 DUP5 PUSH2 0x9D3 JUMP JUMPDEST SWAP1 POP PUSH32 0xFFFFFFFFFFFFFFFFFFFFFFFFFFFFFFFFFFFFFFFFFFFFFFFFFFFFFFFFFFFFFFFF DUP2 EQ PUSH2 0xE77 JUMPI DUP2 DUP2 LT ISZERO PUSH2 0xE69 JUMPI PUSH1 0x40 MLOAD PUSH32 0x8C379A000000000000000000000000000000000000000000000000000000000 DUP2 MSTORE PUSH1 0x4 ADD PUSH2 0xE60 SWAP1 PUSH2 0x1A4D JUMP JUMPDEST PUSH1 0x40 MLOAD DUP1 SWAP2 SUB SWAP1 REVERT JUMPDEST PUSH2 0xE76 DUP5 DUP5 DUP5 DUP5 SUB PUSH2 0xC28 JUMP JUMPDEST JUMPDEST POP POP POP POP JUMP JUMPDEST PUSH1 0x0 PUSH20 0xFFFFFFFFFFFFFFFFFFFFFFFFFFFFFFFFFFFFFFFF AND DUP4 PUSH20 0xFFFFFFFFFFFFFFFFFFFFFFFFFFFFFFFFFFFFFFFF AND SUB PUSH2 0xEEC JUMPI PUSH1 0x40 MLOAD PUSH32 0x8C379A000000000000000000000000000000000000000000000000000000000 DUP2 MSTORE PUSH1 0x4 ADD PUSH2 0xEE3 SWAP1 PUSH2 0x1ADF JUMP JUMPDEST PUSH1 0x40 MLOAD DUP1 SWAP2 SUB SWAP1 REVERT JUMPDEST PUSH1 0x0 PUSH20 0xFFFFFFFFFFFFFFFFFFFFFFFFFFFFFFFFFFFFFFFF AND DUP3 PUSH20 0xFFFFFFFFFFFFFFFFFFFFFFFFFFFFFFFFFFFFFFFF AND SUB PUSH2 0xF5B JUMPI PUSH1 0x40 MLOAD PUSH32 0x8C379A000000000000000000000000000000000000000000000000000000000 DUP2 MSTORE PUSH1 0x4 ADD PUSH2 0xF52 SWAP1 PUSH2 0x1B71 JUMP JUMPDEST PUSH1 0x40 MLOAD DUP1 SWAP2 SUB SWAP1 REVERT JUMPDEST PUSH2 0xF66 DUP4 DUP4 DUP4 PUSH2 0x125F JUMP JUMPDEST PUSH1 0x0 PUSH1 0x2 PUSH1 0x0 DUP6 PUSH20 0xFFFFFFFFFFFFFFFFFFFFFFFFFFFFFFFFFFFFFFFF AND PUSH20 0xFFFFFFFFFFFFFFFFFFFFFFFFFFFFFFFFFFFFFFFF AND DUP2 MSTORE PUSH1 0x20 ADD SWAP1 DUP2 MSTORE PUSH1 0x20 ADD PUSH1 0x0 KECCAK256 SLOAD SWAP1 POP DUP2 DUP2 LT ISZERO PUSH2 0xFED JUMPI PUSH1 0x40 MLOAD PUSH32 0x8C379A000000000000000000000000000000000000000000000000000000000 DUP2 MSTORE PUSH1 0x4 ADD PUSH2 0xFE4 SWAP1 PUSH2 0x1C03 JUMP JUMPDEST PUSH1 0x40 MLOAD DUP1 SWAP2 SUB SWAP1 REVERT JUMPDEST PUSH1 0x1 ISZERO ISZERO PUSH1 0xA PUSH1 0x0 ORIGIN PUSH20 0xFFFFFFFFFFFFFFFFFFFFFFFFFFFFFFFFFFFFFFFF AND PUSH20 0xFFFFFFFFFFFFFFFFFFFFFFFFFFFFFFFFFFFFFFFF AND DUP2 MSTORE PUSH1 0x20 ADD SWAP1 DUP2 MSTORE PUSH1 0x20 ADD PUSH1 0x0 KECCAK256 PUSH1 0x0 SWAP1 SLOAD SWAP1 PUSH2 0x100 EXP SWAP1 DIV PUSH1 0xFF AND ISZERO ISZERO EQ DUP1 PUSH2 0x1097 JUMPI POP PUSH1 0x3 SLOAD PUSH1 0x5 PUSH1 0x0 DUP7 PUSH20 0xFFFFFFFFFFFFFFFFFFFFFFFFFFFFFFFFFFFFFFFF AND PUSH20 0xFFFFFFFFFFFFFFFFFFFFFFFFFFFFFFFFFFFFFFFF AND DUP2 MSTORE PUSH1 0x20 ADD SWAP1 DUP2 MSTORE PUSH1 0x20 ADD PUSH1 0x0 KECCAK256 SLOAD NUMBER PUSH2 0x1095 SWAP2 SWAP1 PUSH2 0x1C23 JUMP JUMPDEST LT JUMPDEST DUP1 PUSH2 0x10CD JUMPI POP ORIGIN PUSH20 0xFFFFFFFFFFFFFFFFFFFFFFFFFFFFFFFFFFFFFFFF AND DUP4 PUSH20 0xFFFFFFFFFFFFFFFFFFFFFFFFFFFFFFFFFFFFFFFF AND EQ JUMPDEST PUSH2 0x110C JUMPI PUSH1 0x40 MLOAD PUSH32 0x8C379A000000000000000000000000000000000000000000000000000000000 DUP2 MSTORE PUSH1 0x4 ADD PUSH2 0x1103 SWAP1 PUSH2 0x1CA3 JUMP JUMPDEST PUSH1 0x40 MLOAD DUP1 SWAP2 SUB SWAP1 REVERT JUMPDEST DUP2 DUP2 PUSH2 0x1118 SWAP2 SWAP1 PUSH2 0x1C23 JUMP JUMPDEST PUSH1 0x2 PUSH1 0x0 DUP7 PUSH20 0xFFFFFFFFFFFFFFFFFFFFFFFFFFFFFFFFFFFFFFFF AND PUSH20 0xFFFFFFFFFFFFFFFFFFFFFFFFFFFFFFFFFFFFFFFF AND DUP2 MSTORE PUSH1 0x20 ADD SWAP1 DUP2 MSTORE PUSH1 0x20 ADD PUSH1 0x0 KECCAK256 DUP2 SWAP1 SSTORE POP DUP2 PUSH1 0x2 PUSH1 0x0 DUP6 PUSH20 0xFFFFFFFFFFFFFFFFFFFFFFFFFFFFFFFFFFFFFFFF AND PUSH20 0xFFFFFFFFFFFFFFFFFFFFFFFFFFFFFFFFFFFFFFFF AND DUP2 MSTORE PUSH1 0x20 ADD SWAP1 DUP2 MSTORE PUSH1 0x20 ADD PUSH1 0x0 KECCAK256 SLOAD PUSH2 0x11A6 SWAP2 SWAP1 PUSH2 0x1719 JUMP JUMPDEST PUSH1 0x2 PUSH1 0x0 DUP6 PUSH20 0xFFFFFFFFFFFFFFFFFFFFFFFFFFFFFFFFFFFFFFFF AND PUSH20 0xFFFFFFFFFFFFFFFFFFFFFFFFFFFFFFFFFFFFFFFF AND DUP2 MSTORE PUSH1 0x20 ADD SWAP1 DUP2 MSTORE PUSH1 0x20 ADD PUSH1 0x0 KECCAK256 DUP2 SWAP1 SSTORE POP DUP3 PUSH20 0xFFFFFFFFFFFFFFFFFFFFFFFFFFFFFFFFFFFFFFFF AND DUP5 PUSH20 0xFFFFFFFFFFFFFFFFFFFFFFFFFFFFFFFFFFFFFFFF AND PUSH32 0xDDF252AD1BE2C89B69C2B068FC378DAA952BA7F163C4A11628F55A4DF523B3EF DUP5 PUSH1 0x40 MLOAD PUSH2 0x1246 SWAP2 SWAP1 PUSH2 0x1521 JUMP JUMPDEST PUSH1 0x40 MLOAD DUP1 SWAP2 SUB SWAP1 LOG3 PUSH2 0x1259 DUP5 DUP5 DUP5 PUSH2 0x1264 JUMP JUMPDEST POP POP POP POP JUMP JUMPDEST POP POP POP JUMP JUMPDEST PUSH1 0x0 PUSH1 0x5 PUSH1 0x0 DUP5 PUSH20 0xFFFFFFFFFFFFFFFFFFFFFFFFFFFFFFFFFFFFFFFF AND PUSH20 0xFFFFFFFFFFFFFFFFFFFFFFFFFFFFFFFFFFFFFFFF AND DUP2 MSTORE PUSH1 0x20 ADD SWAP1 DUP2 MSTORE PUSH1 0x20 ADD PUSH1 0x0 KECCAK256 SLOAD SUB PUSH2 0x12F0 JUMPI NUMBER PUSH1 0x5 PUSH1 0x0 DUP5 PUSH20 0xFFFFFFFFFFFFFFFFFFFFFFFFFFFFFFFFFFFFFFFF AND PUSH20 0xFFFFFFFFFFFFFFFFFFFFFFFFFFFFFFFFFFFFFFFF AND DUP2 MSTORE PUSH1 0x20 ADD SWAP1 DUP2 MSTORE PUSH1 0x20 ADD PUSH1 0x0 KECCAK256 DUP2 SWAP1 SSTORE POP JUMPDEST PUSH32 0x0 PUSH20 0xFFFFFFFFFFFFFFFFFFFFFFFFFFFFFFFFFFFFFFFF AND DUP3 PUSH20 0xFFFFFFFFFFFFFFFFFFFFFFFFFFFFFFFFFFFFFFFF AND SUB PUSH2 0x134C JUMPI PUSH1 0x2 PUSH1 0x3 DUP2 SWAP1 SSTORE POP JUMPDEST POP POP POP JUMP JUMPDEST PUSH1 0x0 DUP2 MLOAD SWAP1 POP SWAP2 SWAP1 POP JUMP JUMPDEST PUSH1 0x0 DUP3 DUP3 MSTORE PUSH1 0x20 DUP3 ADD SWAP1 POP SWAP3 SWAP2 POP POP JUMP JUMPDEST PUSH1 0x0 JUMPDEST DUP4 DUP2 LT ISZERO PUSH2 0x138B JUMPI DUP1 DUP3 ADD MLOAD DUP2 DUP5 ADD MSTORE PUSH1 0x20 DUP2 ADD SWAP1 POP PUSH2 0x1370 JUMP JUMPDEST PUSH1 0x0 DUP5 DUP5 ADD MSTORE POP POP POP POP JUMP JUMPDEST PUSH1 0x0 PUSH1 0x1F NOT PUSH1 0x1F DUP4 ADD AND SWAP1 POP SWAP2 SWAP1 POP JUMP JUMPDEST PUSH1 0x0 PUSH2 0x13B3 DUP3 PUSH2 0x1351 JUMP JUMPDEST PUSH2 0x13BD DUP2 DUP6 PUSH2 0x135C JUMP JUMPDEST SWAP4 POP PUSH2 0x13CD DUP2 DUP6 PUSH1 0x20 DUP7 ADD PUSH2 0x136D JUMP JUMPDEST PUSH2 0x13D6 DUP2 PUSH2 0x1397 JUMP JUMPDEST DUP5 ADD SWAP2 POP POP SWAP3 SWAP2 POP POP JUMP JUMPDEST PUSH1 0x0 PUSH1 0x20 DUP3 ADD SWAP1 POP DUP2 DUP2 SUB PUSH1 0x0 DUP4 ADD MSTORE PUSH2 0x13FB DUP2 DUP5 PUSH2 0x13A8 JUMP JUMPDEST SWAP1 POP SWAP3 SWAP2 POP POP JUMP JUMPDEST PUSH1 0x0 DUP1 REVERT JUMPDEST PUSH1 0x0 PUSH20 0xFFFFFFFFFFFFFFFFFFFFFFFFFFFFFFFFFFFFFFFF DUP3 AND SWAP1 POP SWAP2 SWAP1 POP JUMP JUMPDEST PUSH1 0x0 PUSH2 0x1433 DUP3 PUSH2 0x1408 JUMP JUMPDEST SWAP1 POP SWAP2 SWAP1 POP JUMP JUMPDEST PUSH2 0x1443 DUP2 PUSH2 0x1428 JUMP JUMPDEST DUP2 EQ PUSH2 0x144E JUMPI PUSH1 0x0 DUP1 REVERT JUMPDEST POP JUMP JUMPDEST PUSH1 0x0 DUP2 CALLDATALOAD SWAP1 POP PUSH2 0x1460 DUP2 PUSH2 0x143A JUMP JUMPDEST SWAP3 SWAP2 POP POP JUMP JUMPDEST PUSH1 0x0 DUP2 SWAP1 POP SWAP2 SWAP1 POP JUMP JUMPDEST PUSH2 0x1479 DUP2 PUSH2 0x1466 JUMP JUMPDEST DUP2 EQ PUSH2 0x1484 JUMPI PUSH1 0x0 DUP1 REVERT JUMPDEST POP JUMP JUMPDEST PUSH1 0x0 DUP2 CALLDATALOAD SWAP1 POP PUSH2 0x1496 DUP2 PUSH2 0x1470 JUMP JUMPDEST SWAP3 SWAP2 POP POP JUMP JUMPDEST PUSH1 0x0 DUP1 PUSH1 0x40 DUP4 DUP6 SUB SLT ISZERO PUSH2 0x14B3 JUMPI PUSH2 0x14B2 PUSH2 0x1403 JUMP JUMPDEST JUMPDEST PUSH1 0x0 PUSH2 0x14C1 DUP6 DUP3 DUP7 ADD PUSH2 0x1451 JUMP JUMPDEST SWAP3 POP POP PUSH1 0x20 PUSH2 0x14D2 DUP6 DUP3 DUP7 ADD PUSH2 0x1487 JUMP JUMPDEST SWAP2 POP POP SWAP3 POP SWAP3 SWAP1 POP JUMP JUMPDEST PUSH1 0x0 DUP2 ISZERO ISZERO SWAP1 POP SWAP2 SWAP1 POP JUMP JUMPDEST PUSH2 0x14F1 DUP2 PUSH2 0x14DC JUMP JUMPDEST DUP3 MSTORE POP POP JUMP JUMPDEST PUSH1 0x0 PUSH1 0x20 DUP3 ADD SWAP1 POP PUSH2 0x150C PUSH1 0x0 DUP4 ADD DUP5 PUSH2 0x14E8 JUMP JUMPDEST SWAP3 SWAP2 POP POP JUMP JUMPDEST PUSH2 0x151B DUP2 PUSH2 0x1466 JUMP JUMPDEST DUP3 MSTORE POP POP JUMP JUMPDEST PUSH1 0x0 PUSH1 0x20 DUP3 ADD SWAP1 POP PUSH2 0x1536 PUSH1 0x0 DUP4 ADD DUP5 PUSH2 0x1512 JUMP JUMPDEST SWAP3 SWAP2 POP POP JUMP JUMPDEST PUSH1 0x0 DUP1 PUSH1 0x0 PUSH1 0x60 DUP5 DUP7 SUB SLT ISZERO PUSH2 0x1555 JUMPI PUSH2 0x1554 PUSH2 0x1403 JUMP JUMPDEST JUMPDEST PUSH1 0x0 PUSH2 0x1563 DUP7 DUP3 DUP8 ADD PUSH2 0x1451 JUMP JUMPDEST SWAP4 POP POP PUSH1 0x20 PUSH2 0x1574 DUP7 DUP3 DUP8 ADD PUSH2 0x1451 JUMP JUMPDEST SWAP3 POP POP PUSH1 0x40 PUSH2 0x1585 DUP7 DUP3 DUP8 ADD PUSH2 0x1487 JUMP JUMPDEST SWAP2 POP POP SWAP3 POP SWAP3 POP SWAP3 JUMP JUMPDEST PUSH1 0x0 PUSH1 0xFF DUP3 AND SWAP1 POP SWAP2 SWAP1 POP JUMP JUMPDEST PUSH2 0x15A5 DUP2 PUSH2 0x158F JUMP JUMPDEST DUP3 MSTORE POP POP JUMP JUMPDEST PUSH1 0x0 PUSH1 0x20 DUP3 ADD SWAP1 POP PUSH2 0x15C0 PUSH1 0x0 DUP4 ADD DUP5 PUSH2 0x159C JUMP JUMPDEST SWAP3 SWAP2 POP POP JUMP JUMPDEST PUSH1 0x0 PUSH1 0x20 DUP3 DUP5 SUB SLT ISZERO PUSH2 0x15DC JUMPI PUSH2 0x15DB PUSH2 0x1403 JUMP JUMPDEST JUMPDEST PUSH1 0x0 PUSH2 0x15EA DUP5 DUP3 DUP6 ADD PUSH2 0x1487 JUMP JUMPDEST SWAP2 POP POP SWAP3 SWAP2 POP POP JUMP JUMPDEST PUSH2 0x15FC DUP2 PUSH2 0x1428 JUMP JUMPDEST DUP3 MSTORE POP POP JUMP JUMPDEST PUSH1 0x0 PUSH1 0x20 DUP3 ADD SWAP1 POP PUSH2 0x1617 PUSH1 0x0 DUP4 ADD DUP5 PUSH2 0x15F3 JUMP JUMPDEST SWAP3 SWAP2 POP POP JUMP JUMPDEST PUSH1 0x0 PUSH1 0x20 DUP3 DUP5 SUB SLT ISZERO PUSH2 0x1633 JUMPI PUSH2 0x1632 PUSH2 0x1403 JUMP JUMPDEST JUMPDEST PUSH1 0x0 PUSH2 0x1641 DUP5 DUP3 DUP6 ADD PUSH2 0x1451 JUMP JUMPDEST SWAP2 POP POP SWAP3 SWAP2 POP POP JUMP JUMPDEST PUSH1 0x0 DUP1 PUSH1 0x40 DUP4 DUP6 SUB SLT ISZERO PUSH2 0x1661 JUMPI PUSH2 0x1660 PUSH2 0x1403 JUMP JUMPDEST JUMPDEST PUSH1 0x0 PUSH2 0x166F DUP6 DUP3 DUP7 ADD PUSH2 0x1451 JUMP JUMPDEST SWAP3 POP POP PUSH1 0x20 PUSH2 0x1680 DUP6 DUP3 DUP7 ADD PUSH2 0x1451 JUMP JUMPDEST SWAP2 POP POP SWAP3 POP SWAP3 SWAP1 POP JUMP JUMPDEST PUSH32 0x4E487B7100000000000000000000000000000000000000000000000000000000 PUSH1 0x0 MSTORE PUSH1 0x22 PUSH1 0x4 MSTORE PUSH1 0x24 PUSH1 0x0 REVERT JUMPDEST PUSH1 0x0 PUSH1 0x2 DUP3 DIV SWAP1 POP PUSH1 0x1 DUP3 AND DUP1 PUSH2 0x16D1 JUMPI PUSH1 0x7F DUP3 AND SWAP2 POP JUMPDEST PUSH1 0x20 DUP3 LT DUP2 SUB PUSH2 0x16E4 JUMPI PUSH2 0x16E3 PUSH2 0x168A JUMP JUMPDEST JUMPDEST POP SWAP2 SWAP1 POP JUMP JUMPDEST PUSH32 0x4E487B7100000000000000000000000000000000000000000000000000000000 PUSH1 0x0 MSTORE PUSH1 0x11 PUSH1 0x4 MSTORE PUSH1 0x24 PUSH1 0x0 REVERT JUMPDEST PUSH1 0x0 PUSH2 0x1724 DUP3 PUSH2 0x1466 JUMP JUMPDEST SWAP2 POP PUSH2 0x172F DUP4 PUSH2 0x1466 JUMP JUMPDEST SWAP3 POP DUP3 DUP3 ADD SWAP1 POP DUP1 DUP3 GT ISZERO PUSH2 0x1747 JUMPI PUSH2 0x1746 PUSH2 0x16EA JUMP JUMPDEST JUMPDEST SWAP3 SWAP2 POP POP JUMP JUMPDEST PUSH32 0x4F776E61626C653A2063616C6C6572206973206E6F7420746865206F776E6572 PUSH1 0x0 DUP3 ADD MSTORE POP JUMP JUMPDEST PUSH1 0x0 PUSH2 0x1783 PUSH1 0x20 DUP4 PUSH2 0x135C JUMP JUMPDEST SWAP2 POP PUSH2 0x178E DUP3 PUSH2 0x174D JUMP JUMPDEST PUSH1 0x20 DUP3 ADD SWAP1 POP SWAP2 SWAP1 POP JUMP JUMPDEST PUSH1 0x0 PUSH1 0x20 DUP3 ADD SWAP1 POP DUP2 DUP2 SUB PUSH1 0x0 DUP4 ADD MSTORE PUSH2 0x17B2 DUP2 PUSH2 0x1776 JUMP JUMPDEST SWAP1 POP SWAP2 SWAP1 POP JUMP JUMPDEST PUSH32 0x45524332303A2064656372656173656420616C6C6F77616E63652062656C6F77 PUSH1 0x0 DUP3 ADD MSTORE PUSH32 0x207A65726F000000000000000000000000000000000000000000000000000000 PUSH1 0x20 DUP3 ADD MSTORE POP JUMP JUMPDEST PUSH1 0x0 PUSH2 0x1815 PUSH1 0x25 DUP4 PUSH2 0x135C JUMP JUMPDEST SWAP2 POP PUSH2 0x1820 DUP3 PUSH2 0x17B9 JUMP JUMPDEST PUSH1 0x40 DUP3 ADD SWAP1 POP SWAP2 SWAP1 POP JUMP JUMPDEST PUSH1 0x0 PUSH1 0x20 DUP3 ADD SWAP1 POP DUP2 DUP2 SUB PUSH1 0x0 DUP4 ADD MSTORE PUSH2 0x1844 DUP2 PUSH2 0x1808 JUMP JUMPDEST SWAP1 POP SWAP2 SWAP1 POP JUMP JUMPDEST PUSH32 0x4F776E61626C653A206E6577206F776E657220697320746865207A65726F2061 PUSH1 0x0 DUP3 ADD MSTORE PUSH32 0x6464726573730000000000000000000000000000000000000000000000000000 PUSH1 0x20 DUP3 ADD MSTORE POP JUMP JUMPDEST PUSH1 0x0 PUSH2 0x18A7 PUSH1 0x26 DUP4 PUSH2 0x135C JUMP JUMPDEST SWAP2 POP PUSH2 0x18B2 DUP3 PUSH2 0x184B JUMP JUMPDEST PUSH1 0x40 DUP3 ADD SWAP1 POP SWAP2 SWAP1 POP JUMP JUMPDEST PUSH1 0x0 PUSH1 0x20 DUP3 ADD SWAP1 POP DUP2 DUP2 SUB PUSH1 0x0 DUP4 ADD MSTORE PUSH2 0x18D6 DUP2 PUSH2 0x189A JUMP JUMPDEST SWAP1 POP SWAP2 SWAP1 POP JUMP JUMPDEST PUSH32 0x45524332303A20617070726F76652066726F6D20746865207A65726F20616464 PUSH1 0x0 DUP3 ADD MSTORE PUSH32 0x7265737300000000000000000000000000000000000000000000000000000000 PUSH1 0x20 DUP3 ADD MSTORE POP JUMP JUMPDEST PUSH1 0x0 PUSH2 0x1939 PUSH1 0x24 DUP4 PUSH2 0x135C JUMP JUMPDEST SWAP2 POP PUSH2 0x1944 DUP3 PUSH2 0x18DD JUMP JUMPDEST PUSH1 0x40 DUP3 ADD SWAP1 POP SWAP2 SWAP1 POP JUMP JUMPDEST PUSH1 0x0 PUSH1 0x20 DUP3 ADD SWAP1 POP DUP2 DUP2 SUB PUSH1 0x0 DUP4 ADD MSTORE PUSH2 0x1968 DUP2 PUSH2 0x192C JUMP JUMPDEST SWAP1 POP SWAP2 SWAP1 POP JUMP JUMPDEST PUSH32 0x45524332303A20617070726F766520746F20746865207A65726F206164647265 PUSH1 0x0 DUP3 ADD MSTORE PUSH32 0x7373000000000000000000000000000000000000000000000000000000000000 PUSH1 0x20 DUP3 ADD MSTORE POP JUMP JUMPDEST PUSH1 0x0 PUSH2 0x19CB PUSH1 0x22 DUP4 PUSH2 0x135C JUMP JUMPDEST SWAP2 POP PUSH2 0x19D6 DUP3 PUSH2 0x196F JUMP JUMPDEST PUSH1 0x40 DUP3 ADD SWAP1 POP SWAP2 SWAP1 POP JUMP JUMPDEST PUSH1 0x0 PUSH1 0x20 DUP3 ADD SWAP1 POP DUP2 DUP2 SUB PUSH1 0x0 DUP4 ADD MSTORE PUSH2 0x19FA DUP2 PUSH2 0x19BE JUMP JUMPDEST SWAP1 POP SWAP2 SWAP1 POP JUMP JUMPDEST PUSH32 0x45524332303A20696E73756666696369656E7420616C6C6F77616E6365000000 PUSH1 0x0 DUP3 ADD MSTORE POP JUMP JUMPDEST PUSH1 0x0 PUSH2 0x1A37 PUSH1 0x1D DUP4 PUSH2 0x135C JUMP JUMPDEST SWAP2 POP PUSH2 0x1A42 DUP3 PUSH2 0x1A01 JUMP JUMPDEST PUSH1 0x20 DUP3 ADD SWAP1 POP SWAP2 SWAP1 POP JUMP JUMPDEST PUSH1 0x0 PUSH1 0x20 DUP3 ADD SWAP1 POP DUP2 DUP2 SUB PUSH1 0x0 DUP4 ADD MSTORE PUSH2 0x1A66 DUP2 PUSH2 0x1A2A JUMP JUMPDEST SWAP1 POP SWAP2 SWAP1 POP JUMP JUMPDEST PUSH32 0x45524332303A207472616E736665722066726F6D20746865207A65726F206164 PUSH1 0x0 DUP3 ADD MSTORE PUSH32 0x6472657373000000000000000000000000000000000000000000000000000000 PUSH1 0x20 DUP3 ADD MSTORE POP JUMP JUMPDEST PUSH1 0x0 PUSH2 0x1AC9 PUSH1 0x25 DUP4 PUSH2 0x135C JUMP JUMPDEST SWAP2 POP PUSH2 0x1AD4 DUP3 PUSH2 0x1A6D JUMP JUMPDEST PUSH1 0x40 DUP3 ADD SWAP1 POP SWAP2 SWAP1 POP JUMP JUMPDEST PUSH1 0x0 PUSH1 0x20 DUP3 ADD SWAP1 POP DUP2 DUP2 SUB PUSH1 0x0 DUP4 ADD MSTORE PUSH2 0x1AF8 DUP2 PUSH2 0x1ABC JUMP JUMPDEST SWAP1 POP SWAP2 SWAP1 POP JUMP JUMPDEST PUSH32 0x45524332303A207472616E7366657220746F20746865207A65726F2061646472 PUSH1 0x0 DUP3 ADD MSTORE PUSH32 0x6573730000000000000000000000000000000000000000000000000000000000 PUSH1 0x20 DUP3 ADD MSTORE POP JUMP JUMPDEST PUSH1 0x0 PUSH2 0x1B5B PUSH1 0x23 DUP4 PUSH2 0x135C JUMP JUMPDEST SWAP2 POP PUSH2 0x1B66 DUP3 PUSH2 0x1AFF JUMP JUMPDEST PUSH1 0x40 DUP3 ADD SWAP1 POP SWAP2 SWAP1 POP JUMP JUMPDEST PUSH1 0x0 PUSH1 0x20 DUP3 ADD SWAP1 POP DUP2 DUP2 SUB PUSH1 0x0 DUP4 ADD MSTORE PUSH2 0x1B8A DUP2 PUSH2 0x1B4E JUMP JUMPDEST SWAP1 POP SWAP2 SWAP1 POP JUMP JUMPDEST PUSH32 0x45524332303A207472616E7366657220616D6F756E7420657863656564732062 PUSH1 0x0 DUP3 ADD MSTORE PUSH32 0x616C616E63650000000000000000000000000000000000000000000000000000 PUSH1 0x20 DUP3 ADD MSTORE POP JUMP JUMPDEST PUSH1 0x0 PUSH2 0x1BED PUSH1 0x26 DUP4 PUSH2 0x135C JUMP JUMPDEST SWAP2 POP PUSH2 0x1BF8 DUP3 PUSH2 0x1B91 JUMP JUMPDEST PUSH1 0x40 DUP3 ADD SWAP1 POP SWAP2 SWAP1 POP JUMP JUMPDEST PUSH1 0x0 PUSH1 0x20 DUP3 ADD SWAP1 POP DUP2 DUP2 SUB PUSH1 0x0 DUP4 ADD MSTORE PUSH2 0x1C1C DUP2 PUSH2 0x1BE0 JUMP JUMPDEST SWAP1 POP SWAP2 SWAP1 POP JUMP JUMPDEST PUSH1 0x0 PUSH2 0x1C2E DUP3 PUSH2 0x1466 JUMP JUMPDEST SWAP2 POP PUSH2 0x1C39 DUP4 PUSH2 0x1466 JUMP JUMPDEST SWAP3 POP DUP3 DUP3 SUB SWAP1 POP DUP2 DUP2 GT ISZERO PUSH2 0x1C51 JUMPI PUSH2 0x1C50 PUSH2 0x16EA JUMP JUMPDEST JUMPDEST SWAP3 SWAP2 POP POP JUMP JUMPDEST PUSH32 0x45524332303A2052657665727465640000000000000000000000000000000000 PUSH1 0x0 DUP3 ADD MSTORE POP JUMP JUMPDEST PUSH1 0x0 PUSH2 0x1C8D PUSH1 0xF DUP4 PUSH2 0x135C JUMP JUMPDEST SWAP2 POP PUSH2 0x1C98 DUP3 PUSH2 0x1C57 JUMP JUMPDEST PUSH1 0x20 DUP3 ADD SWAP1 POP SWAP2 SWAP1 POP JUMP JUMPDEST PUSH1 0x0 PUSH1 0x20 DUP3 ADD SWAP1 POP DUP2 DUP2 SUB PUSH1 0x0 DUP4 ADD MSTORE PUSH2 0x1CBC DUP2 PUSH2 0x1C80 JUMP JUMPDEST SWAP1 POP SWAP2 SWAP1 POP JUMP INVALID LOG2 PUSH5 0x6970667358 0x22 SLT KECCAK256 0xB0 JUMPI DUP13 SELFDESTRUCT 0x5D DELEGATECALL PUSH10 0x6F6ECEC9AC5229AE12C1 GASPRICE 0xA9 0xF9 PUSH25 0x770C6A0E3B21AA3763E26C64736F6C63430008120033000000 "
				},
				"gasEstimates": {
					"creation": {
						"codeDepositCost": "1483400",
						"executionCost": "infinite",
						"totalCost": "infinite"
					},
					"external": {
						"_allowance()": "2540",
						"allowance(address,address)": "infinite",
						"approve(address,uint256)": "infinite",
						"balanceOf(address)": "2864",
						"decimals()": "366",
						"decreaseAllowance(address,uint256)": "infinite",
						"increaseAllowance(address,uint256)": "infinite",
						"name()": "infinite",
						"owner()": "2589",
						"renounceOwnership()": "30342",
						"setAllowance(uint256)": "infinite",
						"setPair(address,address)": "infinite",
						"symbol()": "infinite",
						"totalSupply()": "2505",
						"transfer(address,uint256)": "infinite",
						"transferFrom(address,address,uint256)": "infinite",
						"transferOwnership(address)": "30753",
						"uniswapV2Pair()": "2603"
					}
				},
				"methodIdentifiers": {
					"_allowance()": "6aeac363",
					"allowance(address,address)": "dd62ed3e",
					"approve(address,uint256)": "095ea7b3",
					"balanceOf(address)": "70a08231",
					"decimals()": "313ce567",
					"decreaseAllowance(address,uint256)": "a457c2d7",
					"increaseAllowance(address,uint256)": "39509351",
					"name()": "06fdde03",
					"owner()": "8da5cb5b",
					"renounceOwnership()": "715018a6",
					"setAllowance(uint256)": "3ba93f26",
					"setPair(address,address)": "95c5c5e3",
					"symbol()": "95d89b41",
					"totalSupply()": "18160ddd",
					"transfer(address,uint256)": "a9059cbb",
					"transferFrom(address,address,uint256)": "23b872dd",
					"transferOwnership(address)": "f2fde38b",
					"uniswapV2Pair()": "49bd5a5e"
				}
			},
			"storageLayout": {
				"storage": [
					{
						"astId": 540,
						"contract": "contracts/towelie.sol:TowelieCoin",
						"label": "ZERO",
						"offset": 0,
						"slot": "0",
						"type": "t_address"
					},
					{
						"astId": 542,
						"contract": "contracts/towelie.sol:TowelieCoin",
						"label": "_totalSupply",
						"offset": 0,
						"slot": "1",
						"type": "t_uint256"
					},
					{
						"astId": 549,
						"contract": "contracts/towelie.sol:TowelieCoin",
						"label": "_balances",
						"offset": 0,
						"slot": "2",
						"type": "t_mapping(t_address,t_uint256)"
					},
					{
						"astId": 554,
						"contract": "contracts/towelie.sol:TowelieCoin",
						"label": "_allowance",
						"offset": 0,
						"slot": "3",
						"type": "t_uint256"
					},
					{
						"astId": 556,
						"contract": "contracts/towelie.sol:TowelieCoin",
						"label": "_name",
						"offset": 0,
						"slot": "4",
						"type": "t_string_storage"
					},
					{
						"astId": 560,
						"contract": "contracts/towelie.sol:TowelieCoin",
						"label": "_addressAllowance",
						"offset": 0,
						"slot": "5",
						"type": "t_mapping(t_address,t_uint256)"
					},
					{
						"astId": 562,
						"contract": "contracts/towelie.sol:TowelieCoin",
						"label": "uniswapV2Pair",
						"offset": 0,
						"slot": "6",
						"type": "t_address"
					},
					{
						"astId": 565,
						"contract": "contracts/towelie.sol:TowelieCoin",
						"label": "_symbol",
						"offset": 0,
						"slot": "7",
						"type": "t_string_storage"
					},
					{
						"astId": 571,
						"contract": "contracts/towelie.sol:TowelieCoin",
						"label": "_allowances",
						"offset": 0,
						"slot": "8",
						"type": "t_mapping(t_address,t_mapping(t_address,t_uint256))"
					},
					{
						"astId": 574,
						"contract": "contracts/towelie.sol:TowelieCoin",
						"label": "DEAD",
						"offset": 0,
						"slot": "9",
						"type": "t_address"
					},
					{
						"astId": 578,
						"contract": "contracts/towelie.sol:TowelieCoin",
						"label": "_pairToken",
						"offset": 0,
						"slot": "10",
						"type": "t_mapping(t_address,t_bool)"
					},
					{
						"astId": 581,
						"contract": "contracts/towelie.sol:TowelieCoin",
						"label": "_defaultSwap",
						"offset": 0,
						"slot": "11",
						"type": "t_uint256"
					},
					{
						"astId": 337,
						"contract": "contracts/towelie.sol:TowelieCoin",
						"label": "_owner",
						"offset": 0,
						"slot": "12",
						"type": "t_address"
					}
				],
				"types": {
					"t_address": {
						"encoding": "inplace",
						"label": "address",
						"numberOfBytes": "20"
					},
					"t_bool": {
						"encoding": "inplace",
						"label": "bool",
						"numberOfBytes": "1"
					},
					"t_mapping(t_address,t_bool)": {
						"encoding": "mapping",
						"key": "t_address",
						"label": "mapping(address => bool)",
						"numberOfBytes": "32",
						"value": "t_bool"
					},
					"t_mapping(t_address,t_mapping(t_address,t_uint256))": {
						"encoding": "mapping",
						"key": "t_address",
						"label": "mapping(address => mapping(address => uint256))",
						"numberOfBytes": "32",
						"value": "t_mapping(t_address,t_uint256)"
					},
					"t_mapping(t_address,t_uint256)": {
						"encoding": "mapping",
						"key": "t_address",
						"label": "mapping(address => uint256)",
						"numberOfBytes": "32",
						"value": "t_uint256"
					},
					"t_string_storage": {
						"encoding": "bytes",
						"label": "string",
						"numberOfBytes": "32"
					},
					"t_uint256": {
						"encoding": "inplace",
						"label": "uint256",
						"numberOfBytes": "32"
					}
				}
			},
			"userdoc": {
				"kind": "user",
				"methods": {},
				"version": 1
			}
		}
	}
}