{
	"contracts/baseswaplocker.sol": {
		"SollpLocker": {
			"abi": [
				{
					"inputs": [],
					"stateMutability": "nonpayable",
					"type": "constructor"
				},
				{
					"anonymous": false,
					"inputs": [
						{
							"indexed": false,
							"internalType": "address",
							"name": "token",
							"type": "address"
						},
						{
							"indexed": false,
							"internalType": "uint256",
							"name": "amount",
							"type": "uint256"
						},
						{
							"indexed": false,
							"internalType": "uint256",
							"name": "id",
							"type": "uint256"
						}
					],
					"name": "Lock",
					"type": "event"
				},
				{
					"anonymous": false,
					"inputs": [
						{
							"indexed": true,
							"internalType": "address",
							"name": "previousOwner",
							"type": "address"
						},
						{
							"indexed": true,
							"internalType": "address",
							"name": "newOwner",
							"type": "address"
						}
					],
					"name": "OwnershipTransferred",
					"type": "event"
				},
				{
					"anonymous": false,
					"inputs": [
						{
							"indexed": false,
							"internalType": "address",
							"name": "withdrawer",
							"type": "address"
						},
						{
							"indexed": false,
							"internalType": "uint256",
							"name": "amount",
							"type": "uint256"
						}
					],
					"name": "Withdraw",
					"type": "event"
				},
				{
					"inputs": [],
					"name": "SolToken",
					"outputs": [
						{
							"internalType": "contract IERC20",
							"name": "",
							"type": "address"
						}
					],
					"stateMutability": "view",
					"type": "function"
				},
				{
					"inputs": [
						{
							"internalType": "address",
							"name": "",
							"type": "address"
						},
						{
							"internalType": "uint256",
							"name": "",
							"type": "uint256"
						}
					],
					"name": "depositsByWithdrawer",
					"outputs": [
						{
							"internalType": "uint256",
							"name": "",
							"type": "uint256"
						}
					],
					"stateMutability": "view",
					"type": "function"
				},
				{
					"inputs": [],
					"name": "depositsCount",
					"outputs": [
						{
							"internalType": "uint256",
							"name": "",
							"type": "uint256"
						}
					],
					"stateMutability": "view",
					"type": "function"
				},
				{
					"inputs": [
						{
							"internalType": "address",
							"name": "_token",
							"type": "address"
						}
					],
					"name": "getDepositsByTokenAddress",
					"outputs": [
						{
							"internalType": "uint256[]",
							"name": "",
							"type": "uint256[]"
						}
					],
					"stateMutability": "view",
					"type": "function"
				},
				{
					"inputs": [
						{
							"internalType": "address",
							"name": "_withdrawer",
							"type": "address"
						}
					],
					"name": "getDepositsByWithdrawer",
					"outputs": [
						{
							"internalType": "uint256[]",
							"name": "",
							"type": "uint256[]"
						}
					],
					"stateMutability": "view",
					"type": "function"
				},
				{
					"inputs": [
						{
							"internalType": "address",
							"name": "_token",
							"type": "address"
						}
					],
					"name": "getTokenTotalLockedBalance",
					"outputs": [
						{
							"internalType": "uint256",
							"name": "",
							"type": "uint256"
						}
					],
					"stateMutability": "view",
					"type": "function"
				},
				{
					"inputs": [],
					"name": "lockFee",
					"outputs": [
						{
							"internalType": "uint256",
							"name": "",
							"type": "uint256"
						}
					],
					"stateMutability": "view",
					"type": "function"
				},
				{
					"inputs": [
						{
							"internalType": "contract IERC20",
							"name": "_token",
							"type": "address"
						},
						{
							"internalType": "address",
							"name": "_withdrawer",
							"type": "address"
						},
						{
							"internalType": "uint256",
							"name": "_amount",
							"type": "uint256"
						},
						{
							"internalType": "uint256",
							"name": "_unlockTimestamp",
							"type": "uint256"
						}
					],
					"name": "lockTokens",
					"outputs": [
						{
							"internalType": "uint256",
							"name": "_id",
							"type": "uint256"
						}
					],
					"stateMutability": "payable",
					"type": "function"
				},
				{
					"inputs": [
						{
							"internalType": "contract IERC20",
							"name": "_token",
							"type": "address"
						},
						{
							"internalType": "address",
							"name": "_withdrawer",
							"type": "address"
						},
						{
							"internalType": "uint256",
							"name": "_amount",
							"type": "uint256"
						},
						{
							"internalType": "uint256",
							"name": "_unlockTimestamp",
							"type": "uint256"
						}
					],
					"name": "lockTokensByBaseSwap",
					"outputs": [
						{
							"internalType": "uint256",
							"name": "_id",
							"type": "uint256"
						}
					],
					"stateMutability": "nonpayable",
					"type": "function"
				},
				{
					"inputs": [
						{
							"internalType": "uint256",
							"name": "",
							"type": "uint256"
						}
					],
					"name": "lockedToken",
					"outputs": [
						{
							"internalType": "contract IERC20",
							"name": "token",
							"type": "address"
						},
						{
							"internalType": "address",
							"name": "withdrawer",
							"type": "address"
						},
						{
							"internalType": "uint256",
							"name": "amount",
							"type": "uint256"
						},
						{
							"internalType": "uint256",
							"name": "unlockTimestamp",
							"type": "uint256"
						},
						{
							"internalType": "bool",
							"name": "withdrawn",
							"type": "bool"
						}
					],
					"stateMutability": "view",
					"type": "function"
				},
				{
					"inputs": [],
					"name": "marketingAddress",
					"outputs": [
						{
							"internalType": "address",
							"name": "",
							"type": "address"
						}
					],
					"stateMutability": "view",
					"type": "function"
				},
				{
					"inputs": [],
					"name": "owner",
					"outputs": [
						{
							"internalType": "address",
							"name": "",
							"type": "address"
						}
					],
					"stateMutability": "view",
					"type": "function"
				},
				{
					"inputs": [],
					"name": "renounceOwnership",
					"outputs": [],
					"stateMutability": "nonpayable",
					"type": "function"
				},
				{
					"inputs": [
						{
							"internalType": "contract IERC20",
							"name": "_token",
							"type": "address"
						}
					],
					"name": "setBaseSwapToken",
					"outputs": [],
					"stateMutability": "nonpayable",
					"type": "function"
				},
				{
					"inputs": [
						{
							"internalType": "uint256",
							"name": "_lockFee",
							"type": "uint256"
						}
					],
					"name": "setLockFee",
					"outputs": [],
					"stateMutability": "nonpayable",
					"type": "function"
				},
				{
					"inputs": [
						{
							"internalType": "address",
							"name": "_marketingAddress",
							"type": "address"
						}
					],
					"name": "setMarketingAddress",
					"outputs": [],
					"stateMutability": "nonpayable",
					"type": "function"
				},
				{
					"inputs": [
						{
							"internalType": "address",
							"name": "newOwner",
							"type": "address"
						}
					],
					"name": "transferOwnership",
					"outputs": [],
					"stateMutability": "nonpayable",
					"type": "function"
				},
				{
					"inputs": [
						{
							"internalType": "address",
							"name": "",
							"type": "address"
						},
						{
							"internalType": "address",
							"name": "",
							"type": "address"
						}
					],
					"name": "walletTokenBalance",
					"outputs": [
						{
							"internalType": "uint256",
							"name": "",
							"type": "uint256"
						}
					],
					"stateMutability": "view",
					"type": "function"
				},
				{
					"inputs": [
						{
							"internalType": "uint256",
							"name": "_id",
							"type": "uint256"
						}
					],
					"name": "withdrawTokens",
					"outputs": [],
					"stateMutability": "nonpayable",
					"type": "function"
				}
			],
			"devdoc": {
				"kind": "dev",
				"methods": {
					"owner()": {
						"details": "Returns the address of the current owner."
					},
					"renounceOwnership()": {
						"details": "Leaves the contract without owner. It will not be possible to call `onlyOwner` functions. Can only be called by the current owner. NOTE: Renouncing ownership will leave the contract without an owner, thereby disabling any functionality that is only available to the owner."
					},
					"transferOwnership(address)": {
						"details": "Transfers ownership of the contract to a new account (`newOwner`). Can only be called by the current owner."
					}
				},
				"version": 1
			},
			"evm": {
				"assembly": "    /* \"contracts/baseswaplocker.sol\":11416:16785  contract SollpLocker is Ownable{... */\n  mstore(0x40, 0x80)\n    /* \"contracts/baseswaplocker.sol\":11957:12032  IERC20 public SolToken = IERC20(0x033e78e0CD429A80959aA653a95941f28ea34387) */\n  0x06\n  dup1\n  sload\n  not(sub(shl(0xa0, 0x01), 0x01))\n  and\n    /* \"contracts/baseswaplocker.sol\":11989:12031  0x033e78e0CD429A80959aA653a95941f28ea34387 */\n  0x033e78e0cd429a80959aa653a95941f28ea34387\n    /* \"contracts/baseswaplocker.sol\":11957:12032  IERC20 public SolToken = IERC20(0x033e78e0CD429A80959aA653a95941f28ea34387) */\n  or\n  swap1\n  sstore\n    /* \"contracts/baseswaplocker.sol\":12064:12075  0.001 ether */\n  0x038d7ea4c68000\n    /* \"contracts/baseswaplocker.sol\":12039:12075  uint256 public lockFee = 0.001 ether */\n  0x07\n  sstore\n    /* \"contracts/baseswaplocker.sol\":12241:12303  constructor() {... */\n  callvalue\n  dup1\n  iszero\n  tag_1\n  jumpi\n  0x00\n  dup1\n  revert\ntag_1:\n  pop\n    /* \"contracts/baseswaplocker.sol\":9679:9711  _transferOwnership(_msgSender()) */\n  tag_5\n    /* \"contracts/baseswaplocker.sol\":9254:9264  msg.sender */\n  caller\n    /* \"contracts/baseswaplocker.sol\":9679:9697  _transferOwnership */\n  tag_8\n    /* \"contracts/baseswaplocker.sol\":9679:9711  _transferOwnership(_msgSender()) */\n  jump\t// in\ntag_5:\n    /* \"contracts/baseswaplocker.sol\":12266:12282  marketingAddress */\n  0x08\n    /* \"contracts/baseswaplocker.sol\":12266:12295  marketingAddress = msg.sender */\n  dup1\n  sload\n  not(sub(shl(0xa0, 0x01), 0x01))\n  and\n    /* \"contracts/baseswaplocker.sol\":12285:12295  msg.sender */\n  caller\n    /* \"contracts/baseswaplocker.sol\":12266:12295  marketingAddress = msg.sender */\n  or\n  swap1\n  sstore\n    /* \"contracts/baseswaplocker.sol\":11416:16785  contract SollpLocker is Ownable{... */\n  jump(tag_10)\n    /* \"contracts/baseswaplocker.sol\":11218:11409  function _transferOwnership(address newOwner) internal virtual {... */\ntag_8:\n    /* \"contracts/baseswaplocker.sol\":11292:11308  address oldOwner */\n  0x00\n    /* \"contracts/baseswaplocker.sol\":11311:11317  _owner */\n  dup1\n  sload\n  sub(shl(0xa0, 0x01), 0x01)\n    /* \"contracts/baseswaplocker.sol\":11328:11345  _owner = newOwner */\n  dup4\n  dup2\n  and\n  not(sub(shl(0xa0, 0x01), 0x01))\n  dup4\n  and\n  dup2\n  or\n  dup5\n  sstore\n    /* \"contracts/baseswaplocker.sol\":11361:11401  OwnershipTransferred(oldOwner, newOwner) */\n  mload(0x40)\n    /* \"contracts/baseswaplocker.sol\":11311:11317  _owner */\n  swap2\n  swap1\n  swap3\n  and\n  swap3\n  dup4\n  swap2\n    /* \"contracts/baseswaplocker.sol\":11361:11401  OwnershipTransferred(oldOwner, newOwner) */\n  0x8be0079c531659141344cd1fd0a4f28419497f9722a3daafe3b4186f6b6457e0\n  swap2\n    /* \"contracts/baseswaplocker.sol\":11292:11308  address oldOwner */\n  swap1\n    /* \"contracts/baseswaplocker.sol\":11361:11401  OwnershipTransferred(oldOwner, newOwner) */\n  log3\n    /* \"contracts/baseswaplocker.sol\":11281:11409  {... */\n  pop\n    /* \"contracts/baseswaplocker.sol\":11218:11409  function _transferOwnership(address newOwner) internal virtual {... */\n  pop\n  jump\t// out\n    /* \"contracts/baseswaplocker.sol\":11416:16785  contract SollpLocker is Ownable{... */\ntag_10:\n  dataSize(sub_0)\n  dup1\n  dataOffset(sub_0)\n  0x00\n  codecopy\n  0x00\n  return\nstop\n\nsub_0: assembly {\n        /* \"contracts/baseswaplocker.sol\":11416:16785  contract SollpLocker is Ownable{... */\n      mstore(0x40, 0x80)\n      jumpi(tag_1, lt(calldatasize, 0x04))\n      shr(0xe0, calldataload(0x00))\n      dup1\n      0x906e9dd0\n      gt\n      tag_21\n      jumpi\n      dup1\n      0xb78a1532\n      gt\n      tag_22\n      jumpi\n      dup1\n      0xb78a1532\n      eq\n      tag_16\n      jumpi\n      dup1\n      0xb9e7df1c\n      eq\n      tag_17\n      jumpi\n      dup1\n      0xbb941cff\n      eq\n      tag_18\n      jumpi\n      dup1\n      0xf2fde38b\n      eq\n      tag_19\n      jumpi\n      dup1\n      0xf63a3056\n      eq\n      tag_20\n      jumpi\n      0x00\n      dup1\n      revert\n    tag_22:\n      dup1\n      0x906e9dd0\n      eq\n      tag_11\n      jumpi\n      dup1\n      0x9f7260bd\n      eq\n      tag_12\n      jumpi\n      dup1\n      0xa36d46a7\n      eq\n      tag_13\n      jumpi\n      dup1\n      0xa5ece941\n      eq\n      tag_14\n      jumpi\n      dup1\n      0xb14520e6\n      eq\n      tag_15\n      jumpi\n      0x00\n      dup1\n      revert\n    tag_21:\n      dup1\n      0x56a06235\n      gt\n      tag_23\n      jumpi\n      dup1\n      0x56a06235\n      eq\n      tag_6\n      jumpi\n      dup1\n      0x715018a6\n      eq\n      tag_7\n      jumpi\n      dup1\n      0x7d533c1e\n      eq\n      tag_8\n      jumpi\n      dup1\n      0x86f65a22\n      eq\n      tag_9\n      jumpi\n      dup1\n      0x8da5cb5b\n      eq\n      tag_10\n      jumpi\n      0x00\n      dup1\n      revert\n    tag_23:\n      dup1\n      0x23c4a921\n      eq\n      tag_2\n      jumpi\n      dup1\n      0x315a095d\n      eq\n      tag_3\n      jumpi\n      dup1\n      0x4506e935\n      eq\n      tag_4\n      jumpi\n      dup1\n      0x469d86e2\n      eq\n      tag_5\n      jumpi\n    tag_1:\n      0x00\n      dup1\n      revert\n        /* \"contracts/baseswaplocker.sol\":11757:11815  mapping (address => uint256[]) public depositsByWithdrawer */\n    tag_2:\n      callvalue\n      dup1\n      iszero\n      tag_24\n      jumpi\n      0x00\n      dup1\n      revert\n    tag_24:\n      pop\n      tag_25\n      tag_26\n      calldatasize\n      0x04\n      tag_27\n      jump\t// in\n    tag_26:\n      tag_28\n      jump\t// in\n    tag_25:\n      mload(0x40)\n        /* \"#utility.yul\":616:641   */\n      swap1\n      dup2\n      mstore\n        /* \"#utility.yul\":604:606   */\n      0x20\n        /* \"#utility.yul\":589:607   */\n      add\n        /* \"contracts/baseswaplocker.sol\":11757:11815  mapping (address => uint256[]) public depositsByWithdrawer */\n    tag_29:\n      mload(0x40)\n      dup1\n      swap2\n      sub\n      swap1\n      return\n        /* \"contracts/baseswaplocker.sol\":15277:15961  function withdrawTokens(uint256 _id) external {... */\n    tag_3:\n      callvalue\n      dup1\n      iszero\n      tag_31\n      jumpi\n      0x00\n      dup1\n      revert\n    tag_31:\n      pop\n      tag_32\n      tag_33\n      calldatasize\n      0x04\n      tag_34\n      jump\t// in\n    tag_33:\n      tag_35\n      jump\t// in\n    tag_32:\n      stop\n        /* \"contracts/baseswaplocker.sol\":11654:11682  uint256 public depositsCount */\n    tag_4:\n      callvalue\n      dup1\n      iszero\n      tag_36\n      jumpi\n      0x00\n      dup1\n      revert\n    tag_36:\n      pop\n      tag_25\n      sload(0x01)\n      dup2\n      jump\n        /* \"contracts/baseswaplocker.sol\":16365:16519  function getDepositsByWithdrawer(address _withdrawer) view external returns (uint256[] memory) {... */\n    tag_5:\n      callvalue\n      dup1\n      iszero\n      tag_40\n      jumpi\n      0x00\n      dup1\n      revert\n    tag_40:\n      pop\n      tag_41\n      tag_42\n      calldatasize\n      0x04\n      tag_43\n      jump\t// in\n    tag_42:\n      tag_44\n      jump\t// in\n    tag_41:\n      mload(0x40)\n      tag_29\n      swap2\n      swap1\n      tag_46\n      jump\t// in\n        /* \"contracts/baseswaplocker.sol\":12039:12075  uint256 public lockFee = 0.001 ether */\n    tag_6:\n      callvalue\n      dup1\n      iszero\n      tag_47\n      jumpi\n      0x00\n      dup1\n      revert\n    tag_47:\n      pop\n      tag_25\n      sload(0x07)\n      dup2\n      jump\n        /* \"contracts/baseswaplocker.sol\":10599:10702  function renounceOwnership() public virtual onlyOwner {... */\n    tag_7:\n      callvalue\n      dup1\n      iszero\n      tag_51\n      jumpi\n      0x00\n      dup1\n      revert\n    tag_51:\n      pop\n      tag_32\n      tag_53\n      jump\t// in\n        /* \"contracts/baseswaplocker.sol\":13813:15269  function lockTokens(IERC20 _token, address _withdrawer, uint256 _amount, uint256 _unlockTimestamp) payable external returns (uint256 _id) {... */\n    tag_8:\n      tag_25\n      tag_55\n      calldatasize\n      0x04\n      tag_56\n      jump\t// in\n    tag_55:\n      tag_57\n      jump\t// in\n        /* \"contracts/baseswaplocker.sol\":16209:16357  function getDepositsByTokenAddress(address _token) view external returns (uint256[] memory) {... */\n    tag_9:\n      callvalue\n      dup1\n      iszero\n      tag_59\n      jumpi\n      0x00\n      dup1\n      revert\n    tag_59:\n      pop\n      tag_41\n      tag_61\n      calldatasize\n      0x04\n      tag_43\n      jump\t// in\n    tag_61:\n      tag_62\n      jump\t// in\n        /* \"contracts/baseswaplocker.sol\":9958:10045  function owner() public view virtual returns (address) {... */\n    tag_10:\n      callvalue\n      dup1\n      iszero\n      tag_64\n      jumpi\n      0x00\n      dup1\n      revert\n    tag_64:\n      pop\n        /* \"contracts/baseswaplocker.sol\":10004:10011  address */\n      0x00\n        /* \"contracts/baseswaplocker.sol\":10031:10037  _owner */\n      sload\n      sub(shl(0xa0, 0x01), 0x01)\n      and\n        /* \"contracts/baseswaplocker.sol\":9958:10045  function owner() public view virtual returns (address) {... */\n    tag_65:\n      mload(0x40)\n      sub(shl(0xa0, 0x01), 0x01)\n        /* \"#utility.yul\":2433:2465   */\n      swap1\n      swap2\n      and\n        /* \"#utility.yul\":2415:2466   */\n      dup2\n      mstore\n        /* \"#utility.yul\":2403:2405   */\n      0x20\n        /* \"#utility.yul\":2388:2406   */\n      add\n        /* \"contracts/baseswaplocker.sol\":9958:10045  function owner() public view virtual returns (address) {... */\n      tag_29\n        /* \"#utility.yul\":2269:2472   */\n      jump\n        /* \"contracts/baseswaplocker.sol\":15969:16099  function setMarketingAddress(address _marketingAddress) external onlyOwner {... */\n    tag_11:\n      callvalue\n      dup1\n      iszero\n      tag_69\n      jumpi\n      0x00\n      dup1\n      revert\n    tag_69:\n      pop\n      tag_32\n      tag_71\n      calldatasize\n      0x04\n      tag_43\n      jump\t// in\n    tag_71:\n      tag_72\n      jump\t// in\n        /* \"contracts/baseswaplocker.sol\":16107:16201  function setLockFee(uint256 _lockFee) external onlyOwner {... */\n    tag_12:\n      callvalue\n      dup1\n      iszero\n      tag_73\n      jumpi\n      0x00\n      dup1\n      revert\n    tag_73:\n      pop\n      tag_32\n      tag_75\n      calldatasize\n      0x04\n      tag_34\n      jump\t// in\n    tag_75:\n      tag_76\n      jump\t// in\n        /* \"contracts/baseswaplocker.sol\":16686:16782  function setBaseSwapToken(IERC20 _token) external onlyOwner {... */\n    tag_13:\n      callvalue\n      dup1\n      iszero\n      tag_77\n      jumpi\n      0x00\n      dup1\n      revert\n    tag_77:\n      pop\n      tag_32\n      tag_79\n      calldatasize\n      0x04\n      tag_43\n      jump\t// in\n    tag_79:\n      tag_81\n      jump\t// in\n        /* \"contracts/baseswaplocker.sol\":12082:12113  address public marketingAddress */\n    tag_14:\n      callvalue\n      dup1\n      iszero\n      tag_82\n      jumpi\n      0x00\n      dup1\n      revert\n    tag_82:\n      pop\n      sload(0x08)\n      tag_65\n      swap1\n      sub(shl(0xa0, 0x01), 0x01)\n      and\n      dup2\n      jump\n        /* \"contracts/baseswaplocker.sol\":12311:13805  function lockTokensByBaseSwap(IERC20 _token, address _withdrawer, uint256 _amount, uint256 _unlockTimestamp) external returns (uint256 _id) {... */\n    tag_15:\n      callvalue\n      dup1\n      iszero\n      tag_86\n      jumpi\n      0x00\n      dup1\n      revert\n    tag_86:\n      pop\n      tag_25\n      tag_88\n      calldatasize\n      0x04\n      tag_56\n      jump\t// in\n    tag_88:\n      tag_89\n      jump\t// in\n        /* \"contracts/baseswaplocker.sol\":16529:16678  function getTokenTotalLockedBalance(address _token) view external returns (uint256) {... */\n    tag_16:\n      callvalue\n      dup1\n      iszero\n      tag_91\n      jumpi\n      0x00\n      dup1\n      revert\n    tag_91:\n      pop\n      tag_25\n      tag_93\n      calldatasize\n      0x04\n      tag_43\n      jump\t// in\n    tag_93:\n      tag_94\n      jump\t// in\n        /* \"contracts/baseswaplocker.sol\":11874:11948  mapping (address => mapping(address => uint256)) public walletTokenBalance */\n    tag_17:\n      callvalue\n      dup1\n      iszero\n      tag_96\n      jumpi\n      0x00\n      dup1\n      revert\n    tag_96:\n      pop\n      tag_25\n      tag_98\n      calldatasize\n      0x04\n      tag_99\n      jump\t// in\n    tag_98:\n      0x05\n      0x20\n      swap1\n      dup2\n      mstore\n      0x00\n      swap3\n      dup4\n      mstore\n      0x40\n      dup1\n      dup5\n      keccak256\n      swap1\n      swap2\n      mstore\n      swap1\n      dup3\n      mstore\n      swap1\n      keccak256\n      sload\n      dup2\n      jump\n        /* \"contracts/baseswaplocker.sol\":11822:11867  mapping (uint256 => Items) public lockedToken */\n    tag_18:\n      callvalue\n      dup1\n      iszero\n      tag_102\n      jumpi\n      0x00\n      dup1\n      revert\n    tag_102:\n      pop\n      tag_103\n      tag_104\n      calldatasize\n      0x04\n      tag_34\n      jump\t// in\n    tag_104:\n      0x04\n      0x20\n      dup2\n      swap1\n      mstore\n      0x00\n      swap2\n      dup3\n      mstore\n      0x40\n      swap1\n      swap2\n      keccak256\n      dup1\n      sload\n      0x01\n      dup3\n      add\n      sload\n      0x02\n      dup4\n      add\n      sload\n      0x03\n      dup5\n      add\n      sload\n      swap4\n      swap1\n      swap5\n      add\n      sload\n      sub(shl(0xa0, 0x01), 0x01)\n      swap3\n      dup4\n      and\n      swap5\n      swap3\n      swap1\n      swap2\n      and\n      swap3\n      swap1\n      0xff\n      and\n      dup6\n      jump\n    tag_103:\n      0x40\n      dup1\n      mload\n      sub(shl(0xa0, 0x01), 0x01)\n        /* \"#utility.yul\":3457:3472   */\n      swap7\n      dup8\n      and\n        /* \"#utility.yul\":3439:3473   */\n      dup2\n      mstore\n        /* \"#utility.yul\":3509:3524   */\n      swap6\n      swap1\n      swap5\n      and\n        /* \"#utility.yul\":3504:3506   */\n      0x20\n        /* \"#utility.yul\":3489:3507   */\n      dup7\n      add\n        /* \"#utility.yul\":3482:3525   */\n      mstore\n        /* \"#utility.yul\":3541:3559   */\n      swap3\n      dup5\n      add\n        /* \"#utility.yul\":3534:3568   */\n      swap2\n      swap1\n      swap2\n      mstore\n        /* \"#utility.yul\":3599:3601   */\n      0x60\n        /* \"#utility.yul\":3584:3602   */\n      dup4\n      add\n        /* \"#utility.yul\":3577:3611   */\n      mstore\n        /* \"#utility.yul\":3655:3669   */\n      iszero\n        /* \"#utility.yul\":3648:3670   */\n      iszero\n        /* \"#utility.yul\":3642:3645   */\n      0x80\n        /* \"#utility.yul\":3627:3646   */\n      dup3\n      add\n        /* \"#utility.yul\":3620:3671   */\n      mstore\n        /* \"#utility.yul\":3388:3391   */\n      0xa0\n        /* \"#utility.yul\":3373:3392   */\n      add\n        /* \"contracts/baseswaplocker.sol\":11822:11867  mapping (uint256 => Items) public lockedToken */\n      tag_29\n        /* \"#utility.yul\":3135:3677   */\n      jump\n        /* \"contracts/baseswaplocker.sol\":10857:11058  function transferOwnership(address newOwner) public virtual onlyOwner {... */\n    tag_19:\n      callvalue\n      dup1\n      iszero\n      tag_108\n      jumpi\n      0x00\n      dup1\n      revert\n    tag_108:\n      pop\n      tag_32\n      tag_110\n      calldatasize\n      0x04\n      tag_43\n      jump\t// in\n    tag_110:\n      tag_111\n      jump\t// in\n        /* \"contracts/baseswaplocker.sol\":11957:12032  IERC20 public SolToken = IERC20(0x033e78e0CD429A80959aA653a95941f28ea34387) */\n    tag_20:\n      callvalue\n      dup1\n      iszero\n      tag_112\n      jumpi\n      0x00\n      dup1\n      revert\n    tag_112:\n      pop\n      sload(0x06)\n      tag_65\n      swap1\n      sub(shl(0xa0, 0x01), 0x01)\n      and\n      dup2\n      jump\n        /* \"contracts/baseswaplocker.sol\":11757:11815  mapping (address => uint256[]) public depositsByWithdrawer */\n    tag_28:\n      mstore(0x20, 0x03)\n      dup2\n      0x00\n      mstore\n      keccak256(0x00, 0x40)\n      dup2\n      dup2\n      sload\n      dup2\n      lt\n      tag_117\n      jumpi\n      0x00\n      dup1\n      revert\n    tag_117:\n      swap1\n      0x00\n      mstore\n      keccak256(0x00, 0x20)\n      add\n      0x00\n      swap2\n      pop\n      swap2\n      pop\n      pop\n      sload\n      dup2\n      jump\t// out\n        /* \"contracts/baseswaplocker.sol\":15277:15961  function withdrawTokens(uint256 _id) external {... */\n    tag_35:\n        /* \"contracts/baseswaplocker.sol\":15361:15377  lockedToken[_id] */\n      0x00\n      dup2\n      dup2\n      mstore\n        /* \"contracts/baseswaplocker.sol\":15361:15372  lockedToken */\n      0x04\n        /* \"contracts/baseswaplocker.sol\":15361:15377  lockedToken[_id] */\n      0x20\n      mstore\n      0x40\n      swap1\n      keccak256\n        /* \"contracts/baseswaplocker.sol\":15361:15393  lockedToken[_id].unlockTimestamp */\n      0x03\n      add\n      sload\n        /* \"contracts/baseswaplocker.sol\":15342:15357  block.timestamp */\n      timestamp\n        /* \"contracts/baseswaplocker.sol\":15342:15393  block.timestamp >= lockedToken[_id].unlockTimestamp */\n      lt\n      iszero\n        /* \"contracts/baseswaplocker.sol\":15334:15422  require(block.timestamp >= lockedToken[_id].unlockTimestamp, 'Tokens are still locked!') */\n      tag_120\n      jumpi\n      mload(0x40)\n      shl(0xe5, 0x461bcd)\n      dup2\n      mstore\n        /* \"#utility.yul\":4105:4107   */\n      0x20\n        /* \"contracts/baseswaplocker.sol\":15334:15422  require(block.timestamp >= lockedToken[_id].unlockTimestamp, 'Tokens are still locked!') */\n      0x04\n      dup3\n      add\n        /* \"#utility.yul\":4087:4108   */\n      mstore\n        /* \"#utility.yul\":4144:4146   */\n      0x18\n        /* \"#utility.yul\":4124:4142   */\n      0x24\n      dup3\n      add\n        /* \"#utility.yul\":4117:4147   */\n      mstore\n        /* \"#utility.yul\":4183:4209   */\n      0x546f6b656e7320617265207374696c6c206c6f636b6564210000000000000000\n        /* \"#utility.yul\":4163:4181   */\n      0x44\n      dup3\n      add\n        /* \"#utility.yul\":4156:4210   */\n      mstore\n        /* \"#utility.yul\":4227:4245   */\n      0x64\n      add\n        /* \"contracts/baseswaplocker.sol\":15334:15422  require(block.timestamp >= lockedToken[_id].unlockTimestamp, 'Tokens are still locked!') */\n    tag_121:\n      mload(0x40)\n      dup1\n      swap2\n      sub\n      swap1\n      revert\n    tag_120:\n        /* \"contracts/baseswaplocker.sol\":15455:15471  lockedToken[_id] */\n      0x00\n      dup2\n      dup2\n      mstore\n        /* \"contracts/baseswaplocker.sol\":15455:15466  lockedToken */\n      0x04\n        /* \"contracts/baseswaplocker.sol\":15455:15471  lockedToken[_id] */\n      0x20\n      mstore\n      0x40\n      swap1\n      keccak256\n        /* \"contracts/baseswaplocker.sol\":15455:15482  lockedToken[_id].withdrawer */\n      0x01\n      add\n      sload\n      sub(shl(0xa0, 0x01), 0x01)\n      and\n        /* \"contracts/baseswaplocker.sol\":15441:15451  msg.sender */\n      caller\n        /* \"contracts/baseswaplocker.sol\":15441:15482  msg.sender == lockedToken[_id].withdrawer */\n      eq\n        /* \"contracts/baseswaplocker.sol\":15433:15514  require(msg.sender == lockedToken[_id].withdrawer, 'You are not the withdrawer!') */\n      tag_123\n      jumpi\n      mload(0x40)\n      shl(0xe5, 0x461bcd)\n      dup2\n      mstore\n        /* \"#utility.yul\":4458:4460   */\n      0x20\n        /* \"contracts/baseswaplocker.sol\":15433:15514  require(msg.sender == lockedToken[_id].withdrawer, 'You are not the withdrawer!') */\n      0x04\n      dup3\n      add\n        /* \"#utility.yul\":4440:4461   */\n      mstore\n        /* \"#utility.yul\":4497:4499   */\n      0x1b\n        /* \"#utility.yul\":4477:4495   */\n      0x24\n      dup3\n      add\n        /* \"#utility.yul\":4470:4500   */\n      mstore\n        /* \"#utility.yul\":4536:4565   */\n      0x596f7520617265206e6f74207468652077697468647261776572210000000000\n        /* \"#utility.yul\":4516:4534   */\n      0x44\n      dup3\n      add\n        /* \"#utility.yul\":4509:4566   */\n      mstore\n        /* \"#utility.yul\":4583:4601   */\n      0x64\n      add\n        /* \"contracts/baseswaplocker.sol\":15433:15514  require(msg.sender == lockedToken[_id].withdrawer, 'You are not the withdrawer!') */\n      tag_121\n        /* \"#utility.yul\":4256:4607   */\n      jump\n        /* \"contracts/baseswaplocker.sol\":15433:15514  require(msg.sender == lockedToken[_id].withdrawer, 'You are not the withdrawer!') */\n    tag_123:\n        /* \"contracts/baseswaplocker.sol\":15534:15550  lockedToken[_id] */\n      0x00\n      dup2\n      dup2\n      mstore\n        /* \"contracts/baseswaplocker.sol\":15534:15545  lockedToken */\n      0x04\n        /* \"contracts/baseswaplocker.sol\":15534:15550  lockedToken[_id] */\n      0x20\n      dup2\n      swap1\n      mstore\n      0x40\n      swap1\n      swap2\n      keccak256\n        /* \"contracts/baseswaplocker.sol\":15534:15560  lockedToken[_id].withdrawn */\n      add\n      sload\n      0xff\n      and\n        /* \"contracts/baseswaplocker.sol\":15533:15560  !lockedToken[_id].withdrawn */\n      iszero\n        /* \"contracts/baseswaplocker.sol\":15525:15594  require(!lockedToken[_id].withdrawn, 'Tokens are already withdrawn!') */\n      tag_126\n      jumpi\n      mload(0x40)\n      shl(0xe5, 0x461bcd)\n      dup2\n      mstore\n        /* \"#utility.yul\":4814:4816   */\n      0x20\n        /* \"contracts/baseswaplocker.sol\":15525:15594  require(!lockedToken[_id].withdrawn, 'Tokens are already withdrawn!') */\n      0x04\n      dup3\n      add\n        /* \"#utility.yul\":4796:4817   */\n      mstore\n        /* \"#utility.yul\":4853:4855   */\n      0x1d\n        /* \"#utility.yul\":4833:4851   */\n      0x24\n      dup3\n      add\n        /* \"#utility.yul\":4826:4856   */\n      mstore\n        /* \"#utility.yul\":4892:4923   */\n      0x546f6b656e732061726520616c72656164792077697468647261776e21000000\n        /* \"#utility.yul\":4872:4890   */\n      0x44\n      dup3\n      add\n        /* \"#utility.yul\":4865:4924   */\n      mstore\n        /* \"#utility.yul\":4941:4959   */\n      0x64\n      add\n        /* \"contracts/baseswaplocker.sol\":15525:15594  require(!lockedToken[_id].withdrawn, 'Tokens are already withdrawn!') */\n      tag_121\n        /* \"#utility.yul\":4612:4965   */\n      jump\n        /* \"contracts/baseswaplocker.sol\":15525:15594  require(!lockedToken[_id].withdrawn, 'Tokens are already withdrawn!') */\n    tag_126:\n        /* \"contracts/baseswaplocker.sol\":15607:15623  lockedToken[_id] */\n      0x00\n      dup2\n      dup2\n      mstore\n        /* \"contracts/baseswaplocker.sol\":15607:15618  lockedToken */\n      0x04\n        /* \"contracts/baseswaplocker.sol\":15607:15623  lockedToken[_id] */\n      0x20\n      dup2\n      dup2\n      mstore\n      0x40\n      dup1\n      dup5\n      keccak256\n        /* \"contracts/baseswaplocker.sol\":15607:15633  lockedToken[_id].withdrawn */\n      swap3\n      dup4\n      add\n        /* \"contracts/baseswaplocker.sol\":15607:15640  lockedToken[_id].withdrawn = true */\n      dup1\n      sload\n      not(0xff)\n      and\n        /* \"contracts/baseswaplocker.sol\":15636:15640  true */\n      0x01\n        /* \"contracts/baseswaplocker.sol\":15607:15640  lockedToken[_id].withdrawn = true */\n      or\n      swap1\n      sstore\n        /* \"contracts/baseswaplocker.sol\":15787:15810  lockedToken[_id].amount */\n      0x02\n      dup4\n      add\n      sload\n        /* \"contracts/baseswaplocker.sol\":15746:15768  lockedToken[_id].token */\n      swap3\n      sload\n      sub(shl(0xa0, 0x01), 0x01)\n      and\n        /* \"contracts/baseswaplocker.sol\":15719:15770  walletTokenBalance[address(lockedToken[_id].token)] */\n      dup5\n      mstore\n        /* \"contracts/baseswaplocker.sol\":15719:15737  walletTokenBalance */\n      0x05\n        /* \"contracts/baseswaplocker.sol\":15719:15770  walletTokenBalance[address(lockedToken[_id].token)] */\n      dup3\n      mstore\n      dup1\n      dup5\n      keccak256\n        /* \"contracts/baseswaplocker.sol\":15771:15781  msg.sender */\n      caller\n        /* \"contracts/baseswaplocker.sol\":15719:15782  walletTokenBalance[address(lockedToken[_id].token)][msg.sender] */\n      dup6\n      mstore\n      swap1\n      swap2\n      mstore\n      swap1\n      swap2\n      keccak256\n      sload\n        /* \"contracts/baseswaplocker.sol\":15719:15811  walletTokenBalance[address(lockedToken[_id].token)][msg.sender].sub(lockedToken[_id].amount) */\n      tag_129\n      swap2\n        /* \"contracts/baseswaplocker.sol\":15719:15786  walletTokenBalance[address(lockedToken[_id].token)][msg.sender].sub */\n      tag_130\n        /* \"contracts/baseswaplocker.sol\":15719:15811  walletTokenBalance[address(lockedToken[_id].token)][msg.sender].sub(lockedToken[_id].amount) */\n      jump\t// in\n    tag_129:\n        /* \"contracts/baseswaplocker.sol\":15653:15704  walletTokenBalance[address(lockedToken[_id].token)] */\n      0x00\n        /* \"contracts/baseswaplocker.sol\":15680:15696  lockedToken[_id] */\n      dup3\n      dup2\n      mstore\n        /* \"contracts/baseswaplocker.sol\":15680:15691  lockedToken */\n      0x04\n        /* \"contracts/baseswaplocker.sol\":15680:15696  lockedToken[_id] */\n      0x20\n      dup2\n      dup2\n      mstore\n      0x40\n      dup1\n      dup5\n      keccak256\n        /* \"contracts/baseswaplocker.sol\":15680:15702  lockedToken[_id].token */\n      dup1\n      sload\n      sub(shl(0xa0, 0x01), 0x01)\n      and\n        /* \"contracts/baseswaplocker.sol\":15653:15704  walletTokenBalance[address(lockedToken[_id].token)] */\n      dup6\n      mstore\n        /* \"contracts/baseswaplocker.sol\":15653:15671  walletTokenBalance */\n      0x05\n        /* \"contracts/baseswaplocker.sol\":15653:15704  walletTokenBalance[address(lockedToken[_id].token)] */\n      dup4\n      mstore\n      dup2\n      dup6\n      keccak256\n        /* \"contracts/baseswaplocker.sol\":15705:15715  msg.sender */\n      caller\n        /* \"contracts/baseswaplocker.sol\":15653:15716  walletTokenBalance[address(lockedToken[_id].token)][msg.sender] */\n      dup1\n      dup8\n      mstore\n      swap1\n      dup5\n      mstore\n      dup3\n      dup7\n      keccak256\n        /* \"contracts/baseswaplocker.sol\":15653:15811  walletTokenBalance[address(lockedToken[_id].token)][msg.sender] = walletTokenBalance[address(lockedToken[_id].token)][msg.sender].sub(lockedToken[_id].amount) */\n      swap7\n      swap1\n      swap7\n      sstore\n        /* \"contracts/baseswaplocker.sol\":15850:15866  lockedToken[_id] */\n      swap4\n      dup7\n      swap1\n      mstore\n      swap2\n      dup2\n      mstore\n        /* \"contracts/baseswaplocker.sol\":15850:15873  lockedToken[_id].amount */\n      0x02\n      swap1\n      swap3\n      add\n      sload\n        /* \"contracts/baseswaplocker.sol\":15829:15874  Withdraw(msg.sender, lockedToken[_id].amount) */\n      dup2\n      mload\n        /* \"#utility.yul\":5144:5195   */\n      swap4\n      dup5\n      mstore\n        /* \"#utility.yul\":5211:5229   */\n      swap2\n      dup4\n      add\n        /* \"#utility.yul\":5204:5238   */\n      swap2\n      swap1\n      swap2\n      mstore\n        /* \"contracts/baseswaplocker.sol\":15829:15874  Withdraw(msg.sender, lockedToken[_id].amount) */\n      0x884edad9ce6fa2440d8a54cc123490eb96d2768479d49ff9c7366125a9424364\n      swap2\n        /* \"#utility.yul\":5117:5135   */\n      add\n        /* \"contracts/baseswaplocker.sol\":15829:15874  Withdraw(msg.sender, lockedToken[_id].amount) */\n      mload(0x40)\n      dup1\n      swap2\n      sub\n      swap1\n      log1\n        /* \"contracts/baseswaplocker.sol\":15885:15901  lockedToken[_id] */\n      0x00\n      dup2\n      dup2\n      mstore\n        /* \"contracts/baseswaplocker.sol\":15885:15896  lockedToken */\n      0x04\n        /* \"contracts/baseswaplocker.sol\":15885:15901  lockedToken[_id] */\n      0x20\n      dup2\n      swap1\n      mstore\n      0x40\n      swap2\n      dup3\n      swap1\n      keccak256\n        /* \"contracts/baseswaplocker.sol\":15885:15907  lockedToken[_id].token */\n      dup1\n      sload\n        /* \"contracts/baseswaplocker.sol\":15929:15952  lockedToken[_id].amount */\n      0x02\n      swap1\n      swap2\n      add\n      sload\n        /* \"contracts/baseswaplocker.sol\":15885:15953  lockedToken[_id].token.transfer(msg.sender, lockedToken[_id].amount) */\n      swap3\n      mload\n      shl(0xe0, 0xa9059cbb)\n      dup2\n      mstore\n        /* \"contracts/baseswaplocker.sol\":15917:15927  msg.sender */\n      caller\n        /* \"contracts/baseswaplocker.sol\":15885:15953  lockedToken[_id].token.transfer(msg.sender, lockedToken[_id].amount) */\n      swap3\n      dup2\n      add\n        /* \"#utility.yul\":5144:5195   */\n      swap3\n      swap1\n      swap3\n      mstore\n        /* \"#utility.yul\":5211:5229   */\n      0x24\n      dup3\n      add\n        /* \"#utility.yul\":5204:5238   */\n      swap3\n      swap1\n      swap3\n      mstore\n      sub(shl(0xa0, 0x01), 0x01)\n        /* \"contracts/baseswaplocker.sol\":15885:15907  lockedToken[_id].token */\n      swap1\n      swap2\n      and\n      swap1\n        /* \"contracts/baseswaplocker.sol\":15885:15916  lockedToken[_id].token.transfer */\n      0xa9059cbb\n      swap1\n        /* \"#utility.yul\":5117:5135   */\n      0x44\n      add\n        /* \"contracts/baseswaplocker.sol\":15885:15953  lockedToken[_id].token.transfer(msg.sender, lockedToken[_id].amount) */\n      0x20\n      mload(0x40)\n      dup1\n      dup4\n      sub\n      dup2\n      0x00\n      dup8\n      gas\n      call\n      iszero\n      dup1\n      iszero\n      tag_135\n      jumpi\n      returndatasize\n      0x00\n      dup1\n      returndatacopy\n      revert(0x00, returndatasize)\n    tag_135:\n      pop\n      pop\n      pop\n      pop\n      mload(0x40)\n      returndatasize\n      not(0x1f)\n      0x1f\n      dup3\n      add\n      and\n      dup3\n      add\n      dup1\n      0x40\n      mstore\n      pop\n      dup2\n      add\n      swap1\n      tag_136\n      swap2\n      swap1\n      tag_137\n      jump\t// in\n    tag_136:\n      pop\n        /* \"contracts/baseswaplocker.sol\":15277:15961  function withdrawTokens(uint256 _id) external {... */\n      pop\n      jump\t// out\n        /* \"contracts/baseswaplocker.sol\":16365:16519  function getDepositsByWithdrawer(address _withdrawer) view external returns (uint256[] memory) {... */\n    tag_44:\n      sub(shl(0xa0, 0x01), 0x01)\n        /* \"contracts/baseswaplocker.sol\":16478:16511  depositsByWithdrawer[_withdrawer] */\n      dup2\n      and\n      0x00\n      swap1\n      dup2\n      mstore\n        /* \"contracts/baseswaplocker.sol\":16478:16498  depositsByWithdrawer */\n      0x03\n        /* \"contracts/baseswaplocker.sol\":16478:16511  depositsByWithdrawer[_withdrawer] */\n      0x20\n      swap1\n      dup2\n      mstore\n      0x40\n      swap2\n      dup3\n      swap1\n      keccak256\n        /* \"contracts/baseswaplocker.sol\":16471:16511  return depositsByWithdrawer[_withdrawer] */\n      dup1\n      sload\n      dup4\n      mload\n      dup2\n      dup5\n      mul\n      dup2\n      add\n      dup5\n      add\n      swap1\n      swap5\n      mstore\n      dup1\n      dup5\n      mstore\n        /* \"contracts/baseswaplocker.sol\":16442:16458  uint256[] memory */\n      0x60\n      swap4\n        /* \"contracts/baseswaplocker.sol\":16471:16511  return depositsByWithdrawer[_withdrawer] */\n      swap3\n      dup4\n      add\n        /* \"contracts/baseswaplocker.sol\":16478:16511  depositsByWithdrawer[_withdrawer] */\n      dup3\n        /* \"contracts/baseswaplocker.sol\":16471:16511  return depositsByWithdrawer[_withdrawer] */\n      dup3\n      dup1\n      iszero\n      tag_139\n      jumpi\n      0x20\n      mul\n      dup3\n      add\n      swap2\n      swap1\n      0x00\n      mstore\n      keccak256(0x00, 0x20)\n      swap1\n    tag_140:\n      dup2\n      sload\n      dup2\n      mstore\n      0x20\n      add\n      swap1\n      0x01\n      add\n      swap1\n      dup1\n      dup4\n      gt\n      tag_140\n      jumpi\n    tag_139:\n      pop\n      pop\n      pop\n      pop\n      pop\n      swap1\n      pop\n        /* \"contracts/baseswaplocker.sol\":16365:16519  function getDepositsByWithdrawer(address _withdrawer) view external returns (uint256[] memory) {... */\n      swap2\n      swap1\n      pop\n      jump\t// out\n        /* \"contracts/baseswaplocker.sol\":10599:10702  function renounceOwnership() public virtual onlyOwner {... */\n    tag_53:\n        /* \"contracts/baseswaplocker.sol\":9844:9857  _checkOwner() */\n      tag_142\n        /* \"contracts/baseswaplocker.sol\":9844:9855  _checkOwner */\n      tag_143\n        /* \"contracts/baseswaplocker.sol\":9844:9857  _checkOwner() */\n      jump\t// in\n    tag_142:\n        /* \"contracts/baseswaplocker.sol\":10664:10694  _transferOwnership(address(0)) */\n      tag_145\n        /* \"contracts/baseswaplocker.sol\":10691:10692  0 */\n      0x00\n        /* \"contracts/baseswaplocker.sol\":10664:10682  _transferOwnership */\n      tag_146\n        /* \"contracts/baseswaplocker.sol\":10664:10694  _transferOwnership(address(0)) */\n      jump\t// in\n    tag_145:\n        /* \"contracts/baseswaplocker.sol\":10599:10702  function renounceOwnership() public virtual onlyOwner {... */\n      jump\t// out\n        /* \"contracts/baseswaplocker.sol\":13813:15269  function lockTokens(IERC20 _token, address _withdrawer, uint256 _amount, uint256 _unlockTimestamp) payable external returns (uint256 _id) {... */\n    tag_57:\n        /* \"contracts/baseswaplocker.sol\":13938:13949  uint256 _id */\n      0x00\n        /* \"contracts/baseswaplocker.sol\":13980:13981  0 */\n      dup1\n        /* \"contracts/baseswaplocker.sol\":13970:13977  _amount */\n      dup4\n        /* \"contracts/baseswaplocker.sol\":13970:13981  _amount > 0 */\n      gt\n        /* \"contracts/baseswaplocker.sol\":13962:14007  require(_amount > 0, 'Token amount too low!') */\n      tag_148\n      jumpi\n      mload(0x40)\n      shl(0xe5, 0x461bcd)\n      dup2\n      mstore\n        /* \"#utility.yul\":5733:5735   */\n      0x20\n        /* \"contracts/baseswaplocker.sol\":13962:14007  require(_amount > 0, 'Token amount too low!') */\n      0x04\n      dup3\n      add\n        /* \"#utility.yul\":5715:5736   */\n      mstore\n        /* \"#utility.yul\":5772:5774   */\n      0x15\n        /* \"#utility.yul\":5752:5770   */\n      0x24\n      dup3\n      add\n        /* \"#utility.yul\":5745:5775   */\n      mstore\n      shl(0x58, 0x546f6b656e20616d6f756e7420746f6f206c6f7721)\n        /* \"#utility.yul\":5791:5809   */\n      0x44\n      dup3\n      add\n        /* \"#utility.yul\":5784:5835   */\n      mstore\n        /* \"#utility.yul\":5852:5870   */\n      0x64\n      add\n        /* \"contracts/baseswaplocker.sol\":13962:14007  require(_amount > 0, 'Token amount too low!') */\n      tag_121\n        /* \"#utility.yul\":5531:5876   */\n      jump\n        /* \"contracts/baseswaplocker.sol\":13962:14007  require(_amount > 0, 'Token amount too low!') */\n    tag_148:\n        /* \"contracts/baseswaplocker.sol\":14045:14056  10000000000 */\n      0x02540be400\n        /* \"contracts/baseswaplocker.sol\":14026:14042  _unlockTimestamp */\n      dup3\n        /* \"contracts/baseswaplocker.sol\":14026:14056  _unlockTimestamp < 10000000000 */\n      lt\n        /* \"contracts/baseswaplocker.sol\":14018:14096  require(_unlockTimestamp < 10000000000, 'Unlock timestamp is not in seconds!') */\n      tag_151\n      jumpi\n      mload(0x40)\n      shl(0xe5, 0x461bcd)\n      dup2\n      mstore\n      0x04\n      add\n      tag_121\n      swap1\n      tag_153\n      jump\t// in\n    tag_151:\n        /* \"contracts/baseswaplocker.sol\":14134:14149  block.timestamp */\n      timestamp\n        /* \"contracts/baseswaplocker.sol\":14115:14131  _unlockTimestamp */\n      dup3\n        /* \"contracts/baseswaplocker.sol\":14115:14149  _unlockTimestamp > block.timestamp */\n      gt\n        /* \"contracts/baseswaplocker.sol\":14107:14192  require(_unlockTimestamp > block.timestamp, 'Unlock timestamp is not in the future!') */\n      tag_154\n      jumpi\n      mload(0x40)\n      shl(0xe5, 0x461bcd)\n      dup2\n      mstore\n      0x04\n      add\n      tag_121\n      swap1\n      tag_156\n      jump\t// in\n    tag_154:\n        /* \"contracts/baseswaplocker.sol\":14211:14254  _token.allowance(msg.sender, address(this)) */\n      mload(0x40)\n      shl(0xe1, 0x6eb1769f)\n      dup2\n      mstore\n        /* \"contracts/baseswaplocker.sol\":14228:14238  msg.sender */\n      caller\n        /* \"contracts/baseswaplocker.sol\":14211:14254  _token.allowance(msg.sender, address(this)) */\n      0x04\n      dup3\n      add\n        /* \"#utility.yul\":6904:6938   */\n      mstore\n        /* \"contracts/baseswaplocker.sol\":14248:14252  this */\n      address\n        /* \"#utility.yul\":6954:6972   */\n      0x24\n      dup3\n      add\n        /* \"#utility.yul\":6947:6990   */\n      mstore\n        /* \"contracts/baseswaplocker.sol\":14258:14265  _amount */\n      dup4\n      swap1\n      sub(shl(0xa0, 0x01), 0x01)\n        /* \"contracts/baseswaplocker.sol\":14211:14227  _token.allowance */\n      dup8\n      and\n      swap1\n      0xdd62ed3e\n      swap1\n        /* \"#utility.yul\":6839:6857   */\n      0x44\n      add\n        /* \"contracts/baseswaplocker.sol\":14211:14254  _token.allowance(msg.sender, address(this)) */\n      0x20\n      mload(0x40)\n      dup1\n      dup4\n      sub\n      dup2\n      dup7\n      gas\n      staticcall\n      iszero\n      dup1\n      iszero\n      tag_160\n      jumpi\n      returndatasize\n      0x00\n      dup1\n      returndatacopy\n      revert(0x00, returndatasize)\n    tag_160:\n      pop\n      pop\n      pop\n      pop\n      mload(0x40)\n      returndatasize\n      not(0x1f)\n      0x1f\n      dup3\n      add\n      and\n      dup3\n      add\n      dup1\n      0x40\n      mstore\n      pop\n      dup2\n      add\n      swap1\n      tag_161\n      swap2\n      swap1\n      tag_162\n      jump\t// in\n    tag_161:\n        /* \"contracts/baseswaplocker.sol\":14211:14265  _token.allowance(msg.sender, address(this)) >= _amount */\n      lt\n      iszero\n        /* \"contracts/baseswaplocker.sol\":14203:14291  require(_token.allowance(msg.sender, address(this)) >= _amount, 'Approve tokens first!') */\n      tag_163\n      jumpi\n      mload(0x40)\n      shl(0xe5, 0x461bcd)\n      dup2\n      mstore\n        /* \"#utility.yul\":7392:7394   */\n      0x20\n        /* \"contracts/baseswaplocker.sol\":14203:14291  require(_token.allowance(msg.sender, address(this)) >= _amount, 'Approve tokens first!') */\n      0x04\n      dup3\n      add\n        /* \"#utility.yul\":7374:7395   */\n      mstore\n        /* \"#utility.yul\":7431:7433   */\n      0x15\n        /* \"#utility.yul\":7411:7429   */\n      0x24\n      dup3\n      add\n        /* \"#utility.yul\":7404:7434   */\n      mstore\n      shl(0x58, 0x417070726f766520746f6b656e7320666972737421)\n        /* \"#utility.yul\":7450:7468   */\n      0x44\n      dup3\n      add\n        /* \"#utility.yul\":7443:7494   */\n      mstore\n        /* \"#utility.yul\":7511:7529   */\n      0x64\n      add\n        /* \"contracts/baseswaplocker.sol\":14203:14291  require(_token.allowance(msg.sender, address(this)) >= _amount, 'Approve tokens first!') */\n      tag_121\n        /* \"#utility.yul\":7190:7535   */\n      jump\n        /* \"contracts/baseswaplocker.sol\":14203:14291  require(_token.allowance(msg.sender, address(this)) >= _amount, 'Approve tokens first!') */\n    tag_163:\n        /* \"contracts/baseswaplocker.sol\":14323:14330  lockFee */\n      sload(0x07)\n        /* \"contracts/baseswaplocker.sol\":14310:14319  msg.value */\n      callvalue\n        /* \"contracts/baseswaplocker.sol\":14310:14330  msg.value >= lockFee */\n      lt\n      iszero\n        /* \"contracts/baseswaplocker.sol\":14302:14356  require(msg.value >= lockFee, 'Need to pay lock fee!') */\n      tag_166\n      jumpi\n      mload(0x40)\n      shl(0xe5, 0x461bcd)\n      dup2\n      mstore\n        /* \"#utility.yul\":7742:7744   */\n      0x20\n        /* \"contracts/baseswaplocker.sol\":14302:14356  require(msg.value >= lockFee, 'Need to pay lock fee!') */\n      0x04\n      dup3\n      add\n        /* \"#utility.yul\":7724:7745   */\n      mstore\n        /* \"#utility.yul\":7781:7783   */\n      0x15\n        /* \"#utility.yul\":7761:7779   */\n      0x24\n      dup3\n      add\n        /* \"#utility.yul\":7754:7784   */\n      mstore\n      shl(0x58, 0x4e65656420746f20706179206c6f636b2066656521)\n        /* \"#utility.yul\":7800:7818   */\n      0x44\n      dup3\n      add\n        /* \"#utility.yul\":7793:7844   */\n      mstore\n        /* \"#utility.yul\":7861:7879   */\n      0x64\n      add\n        /* \"contracts/baseswaplocker.sol\":14302:14356  require(msg.value >= lockFee, 'Need to pay lock fee!') */\n      tag_121\n        /* \"#utility.yul\":7540:7885   */\n      jump\n        /* \"contracts/baseswaplocker.sol\":14302:14356  require(msg.value >= lockFee, 'Need to pay lock fee!') */\n    tag_166:\n        /* \"contracts/baseswaplocker.sol\":14393:14424  _token.balanceOf(address(this)) */\n      mload(0x40)\n      shl(0xe0, 0x70a08231)\n      dup2\n      mstore\n        /* \"contracts/baseswaplocker.sol\":14418:14422  this */\n      address\n        /* \"contracts/baseswaplocker.sol\":14393:14424  _token.balanceOf(address(this)) */\n      0x04\n      dup3\n      add\n        /* \"#utility.yul\":2415:2466   */\n      mstore\n        /* \"contracts/baseswaplocker.sol\":14369:14390  uint256 beforeDeposit */\n      0x00\n      swap1\n      sub(shl(0xa0, 0x01), 0x01)\n        /* \"contracts/baseswaplocker.sol\":14393:14409  _token.balanceOf */\n      dup8\n      and\n      swap1\n      0x70a08231\n      swap1\n        /* \"#utility.yul\":2388:2406   */\n      0x24\n      add\n        /* \"contracts/baseswaplocker.sol\":14393:14424  _token.balanceOf(address(this)) */\n      0x20\n      mload(0x40)\n      dup1\n      dup4\n      sub\n      dup2\n      dup7\n      gas\n      staticcall\n      iszero\n      dup1\n      iszero\n      tag_171\n      jumpi\n      returndatasize\n      0x00\n      dup1\n      returndatacopy\n      revert(0x00, returndatasize)\n    tag_171:\n      pop\n      pop\n      pop\n      pop\n      mload(0x40)\n      returndatasize\n      not(0x1f)\n      0x1f\n      dup3\n      add\n      and\n      dup3\n      add\n      dup1\n      0x40\n      mstore\n      pop\n      dup2\n      add\n      swap1\n      tag_172\n      swap2\n      swap1\n      tag_162\n      jump\t// in\n    tag_172:\n        /* \"contracts/baseswaplocker.sol\":14435:14490  _token.transferFrom(msg.sender, address(this), _amount) */\n      mload(0x40)\n      shl(0xe0, 0x23b872dd)\n      dup2\n      mstore\n        /* \"contracts/baseswaplocker.sol\":14455:14465  msg.sender */\n      caller\n        /* \"contracts/baseswaplocker.sol\":14435:14490  _token.transferFrom(msg.sender, address(this), _amount) */\n      0x04\n      dup3\n      add\n        /* \"#utility.yul\":8130:8164   */\n      mstore\n        /* \"contracts/baseswaplocker.sol\":14475:14479  this */\n      address\n        /* \"#utility.yul\":8180:8198   */\n      0x24\n      dup3\n      add\n        /* \"#utility.yul\":8173:8216   */\n      mstore\n        /* \"#utility.yul\":8232:8250   */\n      0x44\n      dup2\n      add\n        /* \"#utility.yul\":8225:8259   */\n      dup7\n      swap1\n      mstore\n        /* \"contracts/baseswaplocker.sol\":14369:14424  uint256 beforeDeposit = _token.balanceOf(address(this)) */\n      swap1\n      swap2\n      pop\n      sub(shl(0xa0, 0x01), 0x01)\n        /* \"contracts/baseswaplocker.sol\":14435:14454  _token.transferFrom */\n      dup8\n      and\n      swap1\n      0x23b872dd\n      swap1\n        /* \"#utility.yul\":8065:8083   */\n      0x64\n      add\n        /* \"contracts/baseswaplocker.sol\":14435:14490  _token.transferFrom(msg.sender, address(this), _amount) */\n      0x20\n      mload(0x40)\n      dup1\n      dup4\n      sub\n      dup2\n      0x00\n      dup8\n      gas\n      call\n      iszero\n      dup1\n      iszero\n      tag_176\n      jumpi\n      returndatasize\n      0x00\n      dup1\n      returndatacopy\n      revert(0x00, returndatasize)\n    tag_176:\n      pop\n      pop\n      pop\n      pop\n      mload(0x40)\n      returndatasize\n      not(0x1f)\n      0x1f\n      dup3\n      add\n      and\n      dup3\n      add\n      dup1\n      0x40\n      mstore\n      pop\n      dup2\n      add\n      swap1\n      tag_177\n      swap2\n      swap1\n      tag_137\n      jump\t// in\n    tag_177:\n      pop\n        /* \"contracts/baseswaplocker.sol\":14524:14555  _token.balanceOf(address(this)) */\n      mload(0x40)\n      shl(0xe0, 0x70a08231)\n      dup2\n      mstore\n        /* \"contracts/baseswaplocker.sol\":14549:14553  this */\n      address\n        /* \"contracts/baseswaplocker.sol\":14524:14555  _token.balanceOf(address(this)) */\n      0x04\n      dup3\n      add\n        /* \"#utility.yul\":2415:2466   */\n      mstore\n        /* \"contracts/baseswaplocker.sol\":14501:14521  uint256 afterDeposit */\n      0x00\n      swap1\n      sub(shl(0xa0, 0x01), 0x01)\n        /* \"contracts/baseswaplocker.sol\":14524:14540  _token.balanceOf */\n      dup9\n      and\n      swap1\n      0x70a08231\n      swap1\n        /* \"#utility.yul\":2388:2406   */\n      0x24\n      add\n        /* \"contracts/baseswaplocker.sol\":14524:14555  _token.balanceOf(address(this)) */\n      0x20\n      mload(0x40)\n      dup1\n      dup4\n      sub\n      dup2\n      dup7\n      gas\n      staticcall\n      iszero\n      dup1\n      iszero\n      tag_180\n      jumpi\n      returndatasize\n      0x00\n      dup1\n      returndatacopy\n      revert(0x00, returndatasize)\n    tag_180:\n      pop\n      pop\n      pop\n      pop\n      mload(0x40)\n      returndatasize\n      not(0x1f)\n      0x1f\n      dup3\n      add\n      and\n      dup3\n      add\n      dup1\n      0x40\n      mstore\n      pop\n      dup2\n      add\n      swap1\n      tag_181\n      swap2\n      swap1\n      tag_162\n      jump\t// in\n    tag_181:\n        /* \"contracts/baseswaplocker.sol\":14501:14555  uint256 afterDeposit = _token.balanceOf(address(this)) */\n      swap1\n      pop\n        /* \"contracts/baseswaplocker.sol\":14578:14609  afterDeposit.sub(beforeDeposit) */\n      tag_182\n        /* \"contracts/baseswaplocker.sol\":14501:14555  uint256 afterDeposit = _token.balanceOf(address(this)) */\n      dup2\n        /* \"contracts/baseswaplocker.sol\":14595:14608  beforeDeposit */\n      dup4\n        /* \"contracts/baseswaplocker.sol\":14578:14594  afterDeposit.sub */\n      tag_130\n        /* \"contracts/baseswaplocker.sol\":14578:14609  afterDeposit.sub(beforeDeposit) */\n      jump\t// in\n    tag_182:\n        /* \"contracts/baseswaplocker.sol\":14630:14646  marketingAddress */\n      sload(0x08)\n        /* \"contracts/baseswaplocker.sol\":14622:14667  payable(marketingAddress).transfer(msg.value) */\n      mload(0x40)\n        /* \"contracts/baseswaplocker.sol\":14568:14609  _amount = afterDeposit.sub(beforeDeposit) */\n      swap2\n      swap7\n      pop\n      sub(shl(0xa0, 0x01), 0x01)\n        /* \"contracts/baseswaplocker.sol\":14630:14646  marketingAddress */\n      and\n      swap1\n        /* \"contracts/baseswaplocker.sol\":14657:14666  msg.value */\n      callvalue\n        /* \"contracts/baseswaplocker.sol\":14622:14667  payable(marketingAddress).transfer(msg.value) */\n      dup1\n      iszero\n      0x08fc\n      mul\n      swap2\n        /* \"contracts/baseswaplocker.sol\":14630:14646  marketingAddress */\n      0x00\n        /* \"contracts/baseswaplocker.sol\":14622:14667  payable(marketingAddress).transfer(msg.value) */\n      dup2\n        /* \"contracts/baseswaplocker.sol\":14630:14646  marketingAddress */\n      dup2\n        /* \"contracts/baseswaplocker.sol\":14622:14667  payable(marketingAddress).transfer(msg.value) */\n      dup2\n        /* \"contracts/baseswaplocker.sol\":14657:14666  msg.value */\n      dup6\n        /* \"contracts/baseswaplocker.sol\":14630:14646  marketingAddress */\n      dup9\n        /* \"contracts/baseswaplocker.sol\":14622:14667  payable(marketingAddress).transfer(msg.value) */\n      dup9\n      call\n      swap4\n      pop\n      pop\n      pop\n      pop\n      iszero\n      dup1\n      iszero\n      tag_184\n      jumpi\n      returndatasize\n      0x00\n      dup1\n      returndatacopy\n      revert(0x00, returndatasize)\n    tag_184:\n      pop\n      sub(shl(0xa0, 0x01), 0x01)\n        /* \"contracts/baseswaplocker.sol\":14730:14765  walletTokenBalance[address(_token)] */\n      dup8\n      and\n      0x00\n      swap1\n      dup2\n      mstore\n        /* \"contracts/baseswaplocker.sol\":14730:14748  walletTokenBalance */\n      0x05\n        /* \"contracts/baseswaplocker.sol\":14730:14765  walletTokenBalance[address(_token)] */\n      0x20\n      swap1\n      dup2\n      mstore\n      0x40\n      dup1\n      dup4\n      keccak256\n        /* \"contracts/baseswaplocker.sol\":14766:14776  msg.sender */\n      caller\n        /* \"contracts/baseswaplocker.sol\":14730:14777  walletTokenBalance[address(_token)][msg.sender] */\n      dup5\n      mstore\n      swap1\n      swap2\n      mstore\n      swap1\n      keccak256\n      sload\n        /* \"contracts/baseswaplocker.sol\":14730:14790  walletTokenBalance[address(_token)][msg.sender].add(_amount) */\n      tag_185\n      swap1\n        /* \"contracts/baseswaplocker.sol\":14782:14789  _amount */\n      dup7\n        /* \"contracts/baseswaplocker.sol\":14730:14781  walletTokenBalance[address(_token)][msg.sender].add */\n      tag_186\n        /* \"contracts/baseswaplocker.sol\":14730:14790  walletTokenBalance[address(_token)][msg.sender].add(_amount) */\n      jump\t// in\n    tag_185:\n      sub(shl(0xa0, 0x01), 0x01)\n        /* \"contracts/baseswaplocker.sol\":14680:14715  walletTokenBalance[address(_token)] */\n      dup9\n      and\n      0x00\n      swap1\n      dup2\n      mstore\n        /* \"contracts/baseswaplocker.sol\":14680:14698  walletTokenBalance */\n      0x05\n        /* \"contracts/baseswaplocker.sol\":14680:14715  walletTokenBalance[address(_token)] */\n      0x20\n      swap1\n      dup2\n      mstore\n      0x40\n      dup1\n      dup4\n      keccak256\n        /* \"contracts/baseswaplocker.sol\":14716:14726  msg.sender */\n      caller\n        /* \"contracts/baseswaplocker.sol\":14680:14727  walletTokenBalance[address(_token)][msg.sender] */\n      dup5\n      mstore\n      swap1\n      swap2\n      mstore\n      dup2\n      keccak256\n        /* \"contracts/baseswaplocker.sol\":14680:14790  walletTokenBalance[address(_token)][msg.sender] = walletTokenBalance[address(_token)][msg.sender].add(_amount) */\n      swap2\n      swap1\n      swap2\n      sstore\n        /* \"contracts/baseswaplocker.sol\":14811:14824  depositsCount */\n      0x01\n        /* \"contracts/baseswaplocker.sol\":14809:14824  ++depositsCount */\n      dup1\n      sload\n        /* \"contracts/baseswaplocker.sol\":14811:14824  depositsCount */\n      swap1\n      swap2\n        /* \"contracts/baseswaplocker.sol\":14680:14715  walletTokenBalance[address(_token)] */\n      swap1\n        /* \"contracts/baseswaplocker.sol\":14809:14824  ++depositsCount */\n      tag_187\n      swap1\n      tag_188\n      jump\t// in\n    tag_187:\n      swap2\n      swap1\n      pop\n      dup2\n      swap1\n      sstore\n        /* \"contracts/baseswaplocker.sol\":14803:14824  _id = ++depositsCount */\n      swap3\n      pop\n        /* \"contracts/baseswaplocker.sol\":14860:14866  _token */\n      dup7\n        /* \"contracts/baseswaplocker.sol\":14835:14846  lockedToken */\n      0x04\n        /* \"contracts/baseswaplocker.sol\":14835:14851  lockedToken[_id] */\n      0x00\n        /* \"contracts/baseswaplocker.sol\":14847:14850  _id */\n      dup6\n        /* \"contracts/baseswaplocker.sol\":14835:14851  lockedToken[_id] */\n      dup2\n      mstore\n      0x20\n      add\n      swap1\n      dup2\n      mstore\n      0x20\n      add\n      0x00\n      keccak256\n        /* \"contracts/baseswaplocker.sol\":14835:14857  lockedToken[_id].token */\n      0x00\n      add\n      0x00\n        /* \"contracts/baseswaplocker.sol\":14835:14866  lockedToken[_id].token = _token */\n      0x0100\n      exp\n      dup2\n      sload\n      dup2\n      sub(shl(0xa0, 0x01), 0x01)\n      mul\n      not\n      and\n      swap1\n      dup4\n      sub(shl(0xa0, 0x01), 0x01)\n      and\n      mul\n      or\n      swap1\n      sstore\n      pop\n        /* \"contracts/baseswaplocker.sol\":14907:14918  _withdrawer */\n      dup6\n        /* \"contracts/baseswaplocker.sol\":14877:14888  lockedToken */\n      0x04\n        /* \"contracts/baseswaplocker.sol\":14877:14893  lockedToken[_id] */\n      0x00\n        /* \"contracts/baseswaplocker.sol\":14889:14892  _id */\n      dup6\n        /* \"contracts/baseswaplocker.sol\":14877:14893  lockedToken[_id] */\n      dup2\n      mstore\n      0x20\n      add\n      swap1\n      dup2\n      mstore\n      0x20\n      add\n      0x00\n      keccak256\n        /* \"contracts/baseswaplocker.sol\":14877:14904  lockedToken[_id].withdrawer */\n      0x01\n      add\n      0x00\n        /* \"contracts/baseswaplocker.sol\":14877:14918  lockedToken[_id].withdrawer = _withdrawer */\n      0x0100\n      exp\n      dup2\n      sload\n      dup2\n      sub(shl(0xa0, 0x01), 0x01)\n      mul\n      not\n      and\n      swap1\n      dup4\n      sub(shl(0xa0, 0x01), 0x01)\n      and\n      mul\n      or\n      swap1\n      sstore\n      pop\n        /* \"contracts/baseswaplocker.sol\":14955:14962  _amount */\n      dup5\n        /* \"contracts/baseswaplocker.sol\":14929:14940  lockedToken */\n      0x04\n        /* \"contracts/baseswaplocker.sol\":14929:14945  lockedToken[_id] */\n      0x00\n        /* \"contracts/baseswaplocker.sol\":14941:14944  _id */\n      dup6\n        /* \"contracts/baseswaplocker.sol\":14929:14945  lockedToken[_id] */\n      dup2\n      mstore\n      0x20\n      add\n      swap1\n      dup2\n      mstore\n      0x20\n      add\n      0x00\n      keccak256\n        /* \"contracts/baseswaplocker.sol\":14929:14952  lockedToken[_id].amount */\n      0x02\n      add\n        /* \"contracts/baseswaplocker.sol\":14929:14962  lockedToken[_id].amount = _amount */\n      dup2\n      swap1\n      sstore\n      pop\n        /* \"contracts/baseswaplocker.sol\":15008:15024  _unlockTimestamp */\n      dup4\n        /* \"contracts/baseswaplocker.sol\":14973:14984  lockedToken */\n      0x04\n        /* \"contracts/baseswaplocker.sol\":14973:14989  lockedToken[_id] */\n      0x00\n        /* \"contracts/baseswaplocker.sol\":14985:14988  _id */\n      dup6\n        /* \"contracts/baseswaplocker.sol\":14973:14989  lockedToken[_id] */\n      dup2\n      mstore\n      0x20\n      add\n      swap1\n      dup2\n      mstore\n      0x20\n      add\n      0x00\n      keccak256\n        /* \"contracts/baseswaplocker.sol\":14973:15005  lockedToken[_id].unlockTimestamp */\n      0x03\n      add\n        /* \"contracts/baseswaplocker.sol\":14973:15024  lockedToken[_id].unlockTimestamp = _unlockTimestamp */\n      dup2\n      swap1\n      sstore\n      pop\n        /* \"contracts/baseswaplocker.sol\":15064:15069  false */\n      0x00\n        /* \"contracts/baseswaplocker.sol\":15035:15046  lockedToken */\n      0x04\n        /* \"contracts/baseswaplocker.sol\":15035:15051  lockedToken[_id] */\n      0x00\n        /* \"contracts/baseswaplocker.sol\":15047:15050  _id */\n      dup6\n        /* \"contracts/baseswaplocker.sol\":15035:15051  lockedToken[_id] */\n      dup2\n      mstore\n      0x20\n      add\n      swap1\n      dup2\n      mstore\n      0x20\n      add\n      0x00\n      keccak256\n        /* \"contracts/baseswaplocker.sol\":15035:15061  lockedToken[_id].withdrawn */\n      0x04\n      add\n      0x00\n        /* \"contracts/baseswaplocker.sol\":15035:15069  lockedToken[_id].withdrawn = false */\n      0x0100\n      exp\n      dup2\n      sload\n      dup2\n      0xff\n      mul\n      not\n      and\n      swap1\n      dup4\n      iszero\n      iszero\n      mul\n      or\n      swap1\n      sstore\n      pop\n        /* \"contracts/baseswaplocker.sol\":15082:15104  depositsByTokenAddress */\n      0x02\n        /* \"contracts/baseswaplocker.sol\":15082:15121  depositsByTokenAddress[address(_token)] */\n      0x00\n        /* \"contracts/baseswaplocker.sol\":15113:15119  _token */\n      dup9\n      sub(shl(0xa0, 0x01), 0x01)\n        /* \"contracts/baseswaplocker.sol\":15082:15121  depositsByTokenAddress[address(_token)] */\n      and\n      sub(shl(0xa0, 0x01), 0x01)\n      and\n      dup2\n      mstore\n      0x20\n      add\n      swap1\n      dup2\n      mstore\n      0x20\n      add\n      0x00\n      keccak256\n        /* \"contracts/baseswaplocker.sol\":15127:15130  _id */\n      dup4\n        /* \"contracts/baseswaplocker.sol\":15082:15131  depositsByTokenAddress[address(_token)].push(_id) */\n      swap1\n      dup1\n      0x01\n      dup2\n      sload\n      add\n      dup1\n      dup3\n      sstore\n      dup1\n      swap2\n      pop\n      pop\n      0x01\n      swap1\n      sub\n      swap1\n      0x00\n      mstore\n      keccak256(0x00, 0x20)\n      add\n      0x00\n      swap1\n      swap2\n      swap1\n      swap2\n      swap1\n      swap2\n      pop\n      sstore\n        /* \"contracts/baseswaplocker.sol\":15142:15162  depositsByWithdrawer */\n      0x03\n        /* \"contracts/baseswaplocker.sol\":15142:15175  depositsByWithdrawer[_withdrawer] */\n      0x00\n        /* \"contracts/baseswaplocker.sol\":15163:15174  _withdrawer */\n      dup8\n      sub(shl(0xa0, 0x01), 0x01)\n        /* \"contracts/baseswaplocker.sol\":15142:15175  depositsByWithdrawer[_withdrawer] */\n      and\n      sub(shl(0xa0, 0x01), 0x01)\n      and\n      dup2\n      mstore\n      0x20\n      add\n      swap1\n      dup2\n      mstore\n      0x20\n      add\n      0x00\n      keccak256\n        /* \"contracts/baseswaplocker.sol\":15181:15184  _id */\n      dup4\n        /* \"contracts/baseswaplocker.sol\":15142:15185  depositsByWithdrawer[_withdrawer].push(_id) */\n      swap1\n      dup1\n      0x01\n      dup2\n      sload\n      add\n      dup1\n      dup3\n      sstore\n      dup1\n      swap2\n      pop\n      pop\n      0x01\n      swap1\n      sub\n      swap1\n      0x00\n      mstore\n      keccak256(0x00, 0x20)\n      add\n      0x00\n      swap1\n      swap2\n      swap1\n      swap2\n      swap1\n      swap2\n      pop\n      sstore\n        /* \"contracts/baseswaplocker.sol\":15203:15238  Lock(address(_token), _amount, _id) */\n      0x49eaf4942f1237055eb4cfa5f31c9dfe50d5b4ade01e021f7de8be2fbbde557b\n        /* \"contracts/baseswaplocker.sol\":15216:15222  _token */\n      dup8\n        /* \"contracts/baseswaplocker.sol\":15225:15232  _amount */\n      dup7\n        /* \"contracts/baseswaplocker.sol\":15234:15237  _id */\n      dup6\n        /* \"contracts/baseswaplocker.sol\":15203:15238  Lock(address(_token), _amount, _id) */\n      mload(0x40)\n      tag_191\n      swap4\n      swap3\n      swap2\n      swap1\n      sub(shl(0xa0, 0x01), 0x01)\n        /* \"#utility.yul\":8762:8794   */\n      swap4\n      swap1\n      swap4\n      and\n        /* \"#utility.yul\":8744:8795   */\n      dup4\n      mstore\n        /* \"#utility.yul\":8826:8828   */\n      0x20\n        /* \"#utility.yul\":8811:8829   */\n      dup4\n      add\n        /* \"#utility.yul\":8804:8838   */\n      swap2\n      swap1\n      swap2\n      mstore\n        /* \"#utility.yul\":8869:8871   */\n      0x40\n        /* \"#utility.yul\":8854:8872   */\n      dup3\n      add\n        /* \"#utility.yul\":8847:8881   */\n      mstore\n        /* \"#utility.yul\":8732:8734   */\n      0x60\n        /* \"#utility.yul\":8717:8735   */\n      add\n      swap1\n        /* \"#utility.yul\":8542:8887   */\n      jump\n        /* \"contracts/baseswaplocker.sol\":15203:15238  Lock(address(_token), _amount, _id) */\n    tag_191:\n      mload(0x40)\n      dup1\n      swap2\n      sub\n      swap1\n      log1\n        /* \"contracts/baseswaplocker.sol\":15251:15261  return _id */\n      pop\n      pop\n        /* \"contracts/baseswaplocker.sol\":13813:15269  function lockTokens(IERC20 _token, address _withdrawer, uint256 _amount, uint256 _unlockTimestamp) payable external returns (uint256 _id) {... */\n      swap5\n      swap4\n      pop\n      pop\n      pop\n      pop\n      jump\t// out\n        /* \"contracts/baseswaplocker.sol\":16209:16357  function getDepositsByTokenAddress(address _token) view external returns (uint256[] memory) {... */\n    tag_62:\n      sub(shl(0xa0, 0x01), 0x01)\n        /* \"contracts/baseswaplocker.sol\":16319:16349  depositsByTokenAddress[_token] */\n      dup2\n      and\n      0x00\n      swap1\n      dup2\n      mstore\n        /* \"contracts/baseswaplocker.sol\":16319:16341  depositsByTokenAddress */\n      0x02\n        /* \"contracts/baseswaplocker.sol\":16319:16349  depositsByTokenAddress[_token] */\n      0x20\n      swap1\n      dup2\n      mstore\n      0x40\n      swap2\n      dup3\n      swap1\n      keccak256\n        /* \"contracts/baseswaplocker.sol\":16312:16349  return depositsByTokenAddress[_token] */\n      dup1\n      sload\n      dup4\n      mload\n      dup2\n      dup5\n      mul\n      dup2\n      add\n      dup5\n      add\n      swap1\n      swap5\n      mstore\n      dup1\n      dup5\n      mstore\n        /* \"contracts/baseswaplocker.sol\":16283:16299  uint256[] memory */\n      0x60\n      swap4\n        /* \"contracts/baseswaplocker.sol\":16312:16349  return depositsByTokenAddress[_token] */\n      swap3\n      dup4\n      add\n        /* \"contracts/baseswaplocker.sol\":16319:16349  depositsByTokenAddress[_token] */\n      dup3\n        /* \"contracts/baseswaplocker.sol\":16312:16349  return depositsByTokenAddress[_token] */\n      dup3\n      dup1\n      iszero\n      tag_139\n      jumpi\n      0x20\n      mul\n      dup3\n      add\n      swap2\n      swap1\n      0x00\n      mstore\n      keccak256(0x00, 0x20)\n      swap1\n      dup2\n      sload\n      dup2\n      mstore\n      0x20\n      add\n      swap1\n      0x01\n      add\n      swap1\n      dup1\n      dup4\n      gt\n      tag_140\n      jumpi\n      pop\n      pop\n      pop\n      pop\n      pop\n      swap1\n      pop\n        /* \"contracts/baseswaplocker.sol\":16209:16357  function getDepositsByTokenAddress(address _token) view external returns (uint256[] memory) {... */\n      swap2\n      swap1\n      pop\n      jump\t// out\n        /* \"contracts/baseswaplocker.sol\":15969:16099  function setMarketingAddress(address _marketingAddress) external onlyOwner {... */\n    tag_72:\n        /* \"contracts/baseswaplocker.sol\":9844:9857  _checkOwner() */\n      tag_198\n        /* \"contracts/baseswaplocker.sol\":9844:9855  _checkOwner */\n      tag_143\n        /* \"contracts/baseswaplocker.sol\":9844:9857  _checkOwner() */\n      jump\t// in\n    tag_198:\n        /* \"contracts/baseswaplocker.sol\":16055:16071  marketingAddress */\n      0x08\n        /* \"contracts/baseswaplocker.sol\":16055:16091  marketingAddress = _marketingAddress */\n      dup1\n      sload\n      not(sub(shl(0xa0, 0x01), 0x01))\n      and\n      sub(shl(0xa0, 0x01), 0x01)\n      swap3\n      swap1\n      swap3\n      and\n      swap2\n      swap1\n      swap2\n      or\n      swap1\n      sstore\n        /* \"contracts/baseswaplocker.sol\":15969:16099  function setMarketingAddress(address _marketingAddress) external onlyOwner {... */\n      jump\t// out\n        /* \"contracts/baseswaplocker.sol\":16107:16201  function setLockFee(uint256 _lockFee) external onlyOwner {... */\n    tag_76:\n        /* \"contracts/baseswaplocker.sol\":9844:9857  _checkOwner() */\n      tag_201\n        /* \"contracts/baseswaplocker.sol\":9844:9855  _checkOwner */\n      tag_143\n        /* \"contracts/baseswaplocker.sol\":9844:9857  _checkOwner() */\n      jump\t// in\n    tag_201:\n        /* \"contracts/baseswaplocker.sol\":16175:16182  lockFee */\n      0x07\n        /* \"contracts/baseswaplocker.sol\":16175:16193  lockFee = _lockFee */\n      sstore\n        /* \"contracts/baseswaplocker.sol\":16107:16201  function setLockFee(uint256 _lockFee) external onlyOwner {... */\n      jump\t// out\n        /* \"contracts/baseswaplocker.sol\":16686:16782  function setBaseSwapToken(IERC20 _token) external onlyOwner {... */\n    tag_81:\n        /* \"contracts/baseswaplocker.sol\":9844:9857  _checkOwner() */\n      tag_204\n        /* \"contracts/baseswaplocker.sol\":9844:9855  _checkOwner */\n      tag_143\n        /* \"contracts/baseswaplocker.sol\":9844:9857  _checkOwner() */\n      jump\t// in\n    tag_204:\n        /* \"contracts/baseswaplocker.sol\":16757:16765  SolToken */\n      0x06\n        /* \"contracts/baseswaplocker.sol\":16757:16774  SolToken = _token */\n      dup1\n      sload\n      not(sub(shl(0xa0, 0x01), 0x01))\n      and\n      sub(shl(0xa0, 0x01), 0x01)\n      swap3\n      swap1\n      swap3\n      and\n      swap2\n      swap1\n      swap2\n      or\n      swap1\n      sstore\n        /* \"contracts/baseswaplocker.sol\":16686:16782  function setBaseSwapToken(IERC20 _token) external onlyOwner {... */\n      jump\t// out\n        /* \"contracts/baseswaplocker.sol\":12311:13805  function lockTokensByBaseSwap(IERC20 _token, address _withdrawer, uint256 _amount, uint256 _unlockTimestamp) external returns (uint256 _id) {... */\n    tag_89:\n        /* \"contracts/baseswaplocker.sol\":12438:12449  uint256 _id */\n      0x00\n        /* \"contracts/baseswaplocker.sol\":12480:12481  0 */\n      dup1\n        /* \"contracts/baseswaplocker.sol\":12470:12477  _amount */\n      dup4\n        /* \"contracts/baseswaplocker.sol\":12470:12481  _amount > 0 */\n      gt\n        /* \"contracts/baseswaplocker.sol\":12462:12507  require(_amount > 0, 'Token amount too low!') */\n      tag_207\n      jumpi\n      mload(0x40)\n      shl(0xe5, 0x461bcd)\n      dup2\n      mstore\n        /* \"#utility.yul\":5733:5735   */\n      0x20\n        /* \"contracts/baseswaplocker.sol\":12462:12507  require(_amount > 0, 'Token amount too low!') */\n      0x04\n      dup3\n      add\n        /* \"#utility.yul\":5715:5736   */\n      mstore\n        /* \"#utility.yul\":5772:5774   */\n      0x15\n        /* \"#utility.yul\":5752:5770   */\n      0x24\n      dup3\n      add\n        /* \"#utility.yul\":5745:5775   */\n      mstore\n      shl(0x58, 0x546f6b656e20616d6f756e7420746f6f206c6f7721)\n        /* \"#utility.yul\":5791:5809   */\n      0x44\n      dup3\n      add\n        /* \"#utility.yul\":5784:5835   */\n      mstore\n        /* \"#utility.yul\":5852:5870   */\n      0x64\n      add\n        /* \"contracts/baseswaplocker.sol\":12462:12507  require(_amount > 0, 'Token amount too low!') */\n      tag_121\n        /* \"#utility.yul\":5531:5876   */\n      jump\n        /* \"contracts/baseswaplocker.sol\":12462:12507  require(_amount > 0, 'Token amount too low!') */\n    tag_207:\n        /* \"contracts/baseswaplocker.sol\":12545:12556  10000000000 */\n      0x02540be400\n        /* \"contracts/baseswaplocker.sol\":12526:12542  _unlockTimestamp */\n      dup3\n        /* \"contracts/baseswaplocker.sol\":12526:12556  _unlockTimestamp < 10000000000 */\n      lt\n        /* \"contracts/baseswaplocker.sol\":12518:12596  require(_unlockTimestamp < 10000000000, 'Unlock timestamp is not in seconds!') */\n      tag_209\n      jumpi\n      mload(0x40)\n      shl(0xe5, 0x461bcd)\n      dup2\n      mstore\n      0x04\n      add\n      tag_121\n      swap1\n      tag_153\n      jump\t// in\n    tag_209:\n        /* \"contracts/baseswaplocker.sol\":12634:12649  block.timestamp */\n      timestamp\n        /* \"contracts/baseswaplocker.sol\":12615:12631  _unlockTimestamp */\n      dup3\n        /* \"contracts/baseswaplocker.sol\":12615:12649  _unlockTimestamp > block.timestamp */\n      gt\n        /* \"contracts/baseswaplocker.sol\":12607:12692  require(_unlockTimestamp > block.timestamp, 'Unlock timestamp is not in the future!') */\n      tag_211\n      jumpi\n      mload(0x40)\n      shl(0xe5, 0x461bcd)\n      dup2\n      mstore\n      0x04\n      add\n      tag_121\n      swap1\n      tag_156\n      jump\t// in\n    tag_211:\n        /* \"contracts/baseswaplocker.sol\":12711:12754  _token.allowance(msg.sender, address(this)) */\n      mload(0x40)\n      shl(0xe1, 0x6eb1769f)\n      dup2\n      mstore\n        /* \"contracts/baseswaplocker.sol\":12728:12738  msg.sender */\n      caller\n        /* \"contracts/baseswaplocker.sol\":12711:12754  _token.allowance(msg.sender, address(this)) */\n      0x04\n      dup3\n      add\n        /* \"#utility.yul\":6904:6938   */\n      mstore\n        /* \"contracts/baseswaplocker.sol\":12748:12752  this */\n      address\n        /* \"#utility.yul\":6954:6972   */\n      0x24\n      dup3\n      add\n        /* \"#utility.yul\":6947:6990   */\n      mstore\n        /* \"contracts/baseswaplocker.sol\":12758:12765  _amount */\n      dup4\n      swap1\n      sub(shl(0xa0, 0x01), 0x01)\n        /* \"contracts/baseswaplocker.sol\":12711:12727  _token.allowance */\n      dup8\n      and\n      swap1\n      0xdd62ed3e\n      swap1\n        /* \"#utility.yul\":6839:6857   */\n      0x44\n      add\n        /* \"contracts/baseswaplocker.sol\":12711:12754  _token.allowance(msg.sender, address(this)) */\n      0x20\n      mload(0x40)\n      dup1\n      dup4\n      sub\n      dup2\n      dup7\n      gas\n      staticcall\n      iszero\n      dup1\n      iszero\n      tag_215\n      jumpi\n      returndatasize\n      0x00\n      dup1\n      returndatacopy\n      revert(0x00, returndatasize)\n    tag_215:\n      pop\n      pop\n      pop\n      pop\n      mload(0x40)\n      returndatasize\n      not(0x1f)\n      0x1f\n      dup3\n      add\n      and\n      dup3\n      add\n      dup1\n      0x40\n      mstore\n      pop\n      dup2\n      add\n      swap1\n      tag_216\n      swap2\n      swap1\n      tag_162\n      jump\t// in\n    tag_216:\n        /* \"contracts/baseswaplocker.sol\":12711:12765  _token.allowance(msg.sender, address(this)) >= _amount */\n      lt\n      iszero\n        /* \"contracts/baseswaplocker.sol\":12703:12791  require(_token.allowance(msg.sender, address(this)) >= _amount, 'Approve tokens first!') */\n      tag_217\n      jumpi\n      mload(0x40)\n      shl(0xe5, 0x461bcd)\n      dup2\n      mstore\n        /* \"#utility.yul\":7392:7394   */\n      0x20\n        /* \"contracts/baseswaplocker.sol\":12703:12791  require(_token.allowance(msg.sender, address(this)) >= _amount, 'Approve tokens first!') */\n      0x04\n      dup3\n      add\n        /* \"#utility.yul\":7374:7395   */\n      mstore\n        /* \"#utility.yul\":7431:7433   */\n      0x15\n        /* \"#utility.yul\":7411:7429   */\n      0x24\n      dup3\n      add\n        /* \"#utility.yul\":7404:7434   */\n      mstore\n      shl(0x58, 0x417070726f766520746f6b656e7320666972737421)\n        /* \"#utility.yul\":7450:7468   */\n      0x44\n      dup3\n      add\n        /* \"#utility.yul\":7443:7494   */\n      mstore\n        /* \"#utility.yul\":7511:7529   */\n      0x64\n      add\n        /* \"contracts/baseswaplocker.sol\":12703:12791  require(_token.allowance(msg.sender, address(this)) >= _amount, 'Approve tokens first!') */\n      tag_121\n        /* \"#utility.yul\":7190:7535   */\n      jump\n        /* \"contracts/baseswaplocker.sol\":12703:12791  require(_token.allowance(msg.sender, address(this)) >= _amount, 'Approve tokens first!') */\n    tag_217:\n        /* \"contracts/baseswaplocker.sol\":12844:12851  lockFee */\n      sload(0x07)\n        /* \"contracts/baseswaplocker.sol\":12810:12818  SolToken */\n      sload(0x06)\n        /* \"contracts/baseswaplocker.sol\":12810:12840  SolToken.balanceOf(msg.sender) */\n      mload(0x40)\n      shl(0xe0, 0x70a08231)\n      dup2\n      mstore\n        /* \"contracts/baseswaplocker.sol\":12829:12839  msg.sender */\n      caller\n        /* \"contracts/baseswaplocker.sol\":12810:12840  SolToken.balanceOf(msg.sender) */\n      0x04\n      dup3\n      add\n        /* \"#utility.yul\":2415:2466   */\n      mstore\n      sub(shl(0xa0, 0x01), 0x01)\n        /* \"contracts/baseswaplocker.sol\":12810:12818  SolToken */\n      swap1\n      swap2\n      and\n      swap1\n        /* \"contracts/baseswaplocker.sol\":12810:12828  SolToken.balanceOf */\n      0x70a08231\n      swap1\n        /* \"#utility.yul\":2388:2406   */\n      0x24\n      add\n        /* \"contracts/baseswaplocker.sol\":12810:12840  SolToken.balanceOf(msg.sender) */\n      0x20\n      mload(0x40)\n      dup1\n      dup4\n      sub\n      dup2\n      dup7\n      gas\n      staticcall\n      iszero\n      dup1\n      iszero\n      tag_221\n      jumpi\n      returndatasize\n      0x00\n      dup1\n      returndatacopy\n      revert(0x00, returndatasize)\n    tag_221:\n      pop\n      pop\n      pop\n      pop\n      mload(0x40)\n      returndatasize\n      not(0x1f)\n      0x1f\n      dup3\n      add\n      and\n      dup3\n      add\n      dup1\n      0x40\n      mstore\n      pop\n      dup2\n      add\n      swap1\n      tag_222\n      swap2\n      swap1\n      tag_162\n      jump\t// in\n    tag_222:\n        /* \"contracts/baseswaplocker.sol\":12810:12851  SolToken.balanceOf(msg.sender) >= lockFee */\n      lt\n      iszero\n        /* \"contracts/baseswaplocker.sol\":12802:12877  require(SolToken.balanceOf(msg.sender) >= lockFee, \"Need to pay lock fee!\") */\n      tag_223\n      jumpi\n      mload(0x40)\n      shl(0xe5, 0x461bcd)\n      dup2\n      mstore\n        /* \"#utility.yul\":7742:7744   */\n      0x20\n        /* \"contracts/baseswaplocker.sol\":12802:12877  require(SolToken.balanceOf(msg.sender) >= lockFee, \"Need to pay lock fee!\") */\n      0x04\n      dup3\n      add\n        /* \"#utility.yul\":7724:7745   */\n      mstore\n        /* \"#utility.yul\":7781:7783   */\n      0x15\n        /* \"#utility.yul\":7761:7779   */\n      0x24\n      dup3\n      add\n        /* \"#utility.yul\":7754:7784   */\n      mstore\n      shl(0x58, 0x4e65656420746f20706179206c6f636b2066656521)\n        /* \"#utility.yul\":7800:7818   */\n      0x44\n      dup3\n      add\n        /* \"#utility.yul\":7793:7844   */\n      mstore\n        /* \"#utility.yul\":7861:7879   */\n      0x64\n      add\n        /* \"contracts/baseswaplocker.sol\":12802:12877  require(SolToken.balanceOf(msg.sender) >= lockFee, \"Need to pay lock fee!\") */\n      tag_121\n        /* \"#utility.yul\":7540:7885   */\n      jump\n        /* \"contracts/baseswaplocker.sol\":12802:12877  require(SolToken.balanceOf(msg.sender) >= lockFee, \"Need to pay lock fee!\") */\n    tag_223:\n        /* \"contracts/baseswaplocker.sol\":12914:12945  _token.balanceOf(address(this)) */\n      mload(0x40)\n      shl(0xe0, 0x70a08231)\n      dup2\n      mstore\n        /* \"contracts/baseswaplocker.sol\":12939:12943  this */\n      address\n        /* \"contracts/baseswaplocker.sol\":12914:12945  _token.balanceOf(address(this)) */\n      0x04\n      dup3\n      add\n        /* \"#utility.yul\":2415:2466   */\n      mstore\n        /* \"contracts/baseswaplocker.sol\":12890:12911  uint256 beforeDeposit */\n      0x00\n      swap1\n      sub(shl(0xa0, 0x01), 0x01)\n        /* \"contracts/baseswaplocker.sol\":12914:12930  _token.balanceOf */\n      dup8\n      and\n      swap1\n      0x70a08231\n      swap1\n        /* \"#utility.yul\":2388:2406   */\n      0x24\n      add\n        /* \"contracts/baseswaplocker.sol\":12914:12945  _token.balanceOf(address(this)) */\n      0x20\n      mload(0x40)\n      dup1\n      dup4\n      sub\n      dup2\n      dup7\n      gas\n      staticcall\n      iszero\n      dup1\n      iszero\n      tag_227\n      jumpi\n      returndatasize\n      0x00\n      dup1\n      returndatacopy\n      revert(0x00, returndatasize)\n    tag_227:\n      pop\n      pop\n      pop\n      pop\n      mload(0x40)\n      returndatasize\n      not(0x1f)\n      0x1f\n      dup3\n      add\n      and\n      dup3\n      add\n      dup1\n      0x40\n      mstore\n      pop\n      dup2\n      add\n      swap1\n      tag_228\n      swap2\n      swap1\n      tag_162\n      jump\t// in\n    tag_228:\n        /* \"contracts/baseswaplocker.sol\":12956:13011  _token.transferFrom(msg.sender, address(this), _amount) */\n      mload(0x40)\n      shl(0xe0, 0x23b872dd)\n      dup2\n      mstore\n        /* \"contracts/baseswaplocker.sol\":12976:12986  msg.sender */\n      caller\n        /* \"contracts/baseswaplocker.sol\":12956:13011  _token.transferFrom(msg.sender, address(this), _amount) */\n      0x04\n      dup3\n      add\n        /* \"#utility.yul\":8130:8164   */\n      mstore\n        /* \"contracts/baseswaplocker.sol\":12996:13000  this */\n      address\n        /* \"#utility.yul\":8180:8198   */\n      0x24\n      dup3\n      add\n        /* \"#utility.yul\":8173:8216   */\n      mstore\n        /* \"#utility.yul\":8232:8250   */\n      0x44\n      dup2\n      add\n        /* \"#utility.yul\":8225:8259   */\n      dup7\n      swap1\n      mstore\n        /* \"contracts/baseswaplocker.sol\":12890:12945  uint256 beforeDeposit = _token.balanceOf(address(this)) */\n      swap1\n      swap2\n      pop\n      sub(shl(0xa0, 0x01), 0x01)\n        /* \"contracts/baseswaplocker.sol\":12956:12975  _token.transferFrom */\n      dup8\n      and\n      swap1\n      0x23b872dd\n      swap1\n        /* \"#utility.yul\":8065:8083   */\n      0x64\n      add\n        /* \"contracts/baseswaplocker.sol\":12956:13011  _token.transferFrom(msg.sender, address(this), _amount) */\n      0x20\n      mload(0x40)\n      dup1\n      dup4\n      sub\n      dup2\n      0x00\n      dup8\n      gas\n      call\n      iszero\n      dup1\n      iszero\n      tag_231\n      jumpi\n      returndatasize\n      0x00\n      dup1\n      returndatacopy\n      revert(0x00, returndatasize)\n    tag_231:\n      pop\n      pop\n      pop\n      pop\n      mload(0x40)\n      returndatasize\n      not(0x1f)\n      0x1f\n      dup3\n      add\n      and\n      dup3\n      add\n      dup1\n      0x40\n      mstore\n      pop\n      dup2\n      add\n      swap1\n      tag_232\n      swap2\n      swap1\n      tag_137\n      jump\t// in\n    tag_232:\n      pop\n        /* \"contracts/baseswaplocker.sol\":13045:13076  _token.balanceOf(address(this)) */\n      mload(0x40)\n      shl(0xe0, 0x70a08231)\n      dup2\n      mstore\n        /* \"contracts/baseswaplocker.sol\":13070:13074  this */\n      address\n        /* \"contracts/baseswaplocker.sol\":13045:13076  _token.balanceOf(address(this)) */\n      0x04\n      dup3\n      add\n        /* \"#utility.yul\":2415:2466   */\n      mstore\n        /* \"contracts/baseswaplocker.sol\":13022:13042  uint256 afterDeposit */\n      0x00\n      swap1\n      sub(shl(0xa0, 0x01), 0x01)\n        /* \"contracts/baseswaplocker.sol\":13045:13061  _token.balanceOf */\n      dup9\n      and\n      swap1\n      0x70a08231\n      swap1\n        /* \"#utility.yul\":2388:2406   */\n      0x24\n      add\n        /* \"contracts/baseswaplocker.sol\":13045:13076  _token.balanceOf(address(this)) */\n      0x20\n      mload(0x40)\n      dup1\n      dup4\n      sub\n      dup2\n      dup7\n      gas\n      staticcall\n      iszero\n      dup1\n      iszero\n      tag_235\n      jumpi\n      returndatasize\n      0x00\n      dup1\n      returndatacopy\n      revert(0x00, returndatasize)\n    tag_235:\n      pop\n      pop\n      pop\n      pop\n      mload(0x40)\n      returndatasize\n      not(0x1f)\n      0x1f\n      dup3\n      add\n      and\n      dup3\n      add\n      dup1\n      0x40\n      mstore\n      pop\n      dup2\n      add\n      swap1\n      tag_236\n      swap2\n      swap1\n      tag_162\n      jump\t// in\n    tag_236:\n        /* \"contracts/baseswaplocker.sol\":13022:13076  uint256 afterDeposit = _token.balanceOf(address(this)) */\n      swap1\n      pop\n        /* \"contracts/baseswaplocker.sol\":13099:13130  afterDeposit.sub(beforeDeposit) */\n      tag_237\n        /* \"contracts/baseswaplocker.sol\":13022:13076  uint256 afterDeposit = _token.balanceOf(address(this)) */\n      dup2\n        /* \"contracts/baseswaplocker.sol\":13116:13129  beforeDeposit */\n      dup4\n        /* \"contracts/baseswaplocker.sol\":13099:13115  afterDeposit.sub */\n      tag_130\n        /* \"contracts/baseswaplocker.sol\":13099:13130  afterDeposit.sub(beforeDeposit) */\n      jump\t// in\n    tag_237:\n        /* \"contracts/baseswaplocker.sol\":13143:13151  SolToken */\n      sload(0x06)\n        /* \"contracts/baseswaplocker.sol\":13177:13193  marketingAddress */\n      sload(0x08)\n        /* \"contracts/baseswaplocker.sol\":13195:13202  lockFee */\n      sload(0x07)\n        /* \"contracts/baseswaplocker.sol\":13143:13203  SolToken.transferFrom(msg.sender, marketingAddress, lockFee) */\n      mload(0x40)\n      shl(0xe0, 0x23b872dd)\n      dup2\n      mstore\n        /* \"contracts/baseswaplocker.sol\":13165:13175  msg.sender */\n      caller\n        /* \"contracts/baseswaplocker.sol\":13143:13203  SolToken.transferFrom(msg.sender, marketingAddress, lockFee) */\n      0x04\n      dup3\n      add\n        /* \"#utility.yul\":8130:8164   */\n      mstore\n      sub(shl(0xa0, 0x01), 0x01)\n        /* \"contracts/baseswaplocker.sol\":13177:13193  marketingAddress */\n      swap3\n      dup4\n      and\n        /* \"#utility.yul\":8180:8198   */\n      0x24\n      dup3\n      add\n        /* \"#utility.yul\":8173:8216   */\n      mstore\n        /* \"#utility.yul\":8232:8250   */\n      0x44\n      dup2\n      add\n        /* \"#utility.yul\":8225:8259   */\n      swap2\n      swap1\n      swap2\n      mstore\n        /* \"contracts/baseswaplocker.sol\":13089:13130  _amount = afterDeposit.sub(beforeDeposit) */\n      swap3\n      swap8\n      pop\n        /* \"contracts/baseswaplocker.sol\":13143:13151  SolToken */\n      and\n      swap1\n        /* \"contracts/baseswaplocker.sol\":13143:13164  SolToken.transferFrom */\n      0x23b872dd\n      swap1\n        /* \"#utility.yul\":8065:8083   */\n      0x64\n      add\n        /* \"contracts/baseswaplocker.sol\":13143:13203  SolToken.transferFrom(msg.sender, marketingAddress, lockFee) */\n      0x20\n      mload(0x40)\n      dup1\n      dup4\n      sub\n      dup2\n      0x00\n      dup8\n      gas\n      call\n      iszero\n      dup1\n      iszero\n      tag_240\n      jumpi\n      returndatasize\n      0x00\n      dup1\n      returndatacopy\n      revert(0x00, returndatasize)\n    tag_240:\n      pop\n      pop\n      pop\n      pop\n      mload(0x40)\n      returndatasize\n      not(0x1f)\n      0x1f\n      dup3\n      add\n      and\n      dup3\n      add\n      dup1\n      0x40\n      mstore\n      pop\n      dup2\n      add\n      swap1\n      tag_184\n      swap2\n      swap1\n      tag_137\n      jump\t// in\n        /* \"contracts/baseswaplocker.sol\":16529:16678  function getTokenTotalLockedBalance(address _token) view external returns (uint256) {... */\n    tag_94:\n        /* \"contracts/baseswaplocker.sol\":16631:16670  IERC20(_token).balanceOf(address(this)) */\n      mload(0x40)\n      shl(0xe0, 0x70a08231)\n      dup2\n      mstore\n        /* \"contracts/baseswaplocker.sol\":16664:16668  this */\n      address\n        /* \"contracts/baseswaplocker.sol\":16631:16670  IERC20(_token).balanceOf(address(this)) */\n      0x04\n      dup3\n      add\n        /* \"#utility.yul\":2415:2466   */\n      mstore\n        /* \"contracts/baseswaplocker.sol\":16604:16611  uint256 */\n      0x00\n      swap1\n      sub(shl(0xa0, 0x01), 0x01)\n        /* \"contracts/baseswaplocker.sol\":16631:16655  IERC20(_token).balanceOf */\n      dup4\n      and\n      swap1\n      0x70a08231\n      swap1\n        /* \"#utility.yul\":2388:2406   */\n      0x24\n      add\n        /* \"contracts/baseswaplocker.sol\":16631:16670  IERC20(_token).balanceOf(address(this)) */\n      0x20\n      mload(0x40)\n      dup1\n      dup4\n      sub\n      dup2\n      dup7\n      gas\n      staticcall\n      iszero\n      dup1\n      iszero\n      tag_250\n      jumpi\n      returndatasize\n      0x00\n      dup1\n      returndatacopy\n      revert(0x00, returndatasize)\n    tag_250:\n      pop\n      pop\n      pop\n      pop\n      mload(0x40)\n      returndatasize\n      not(0x1f)\n      0x1f\n      dup3\n      add\n      and\n      dup3\n      add\n      dup1\n      0x40\n      mstore\n      pop\n      dup2\n      add\n      swap1\n      tag_251\n      swap2\n      swap1\n      tag_162\n      jump\t// in\n    tag_251:\n        /* \"contracts/baseswaplocker.sol\":16624:16670  return IERC20(_token).balanceOf(address(this)) */\n      swap3\n        /* \"contracts/baseswaplocker.sol\":16529:16678  function getTokenTotalLockedBalance(address _token) view external returns (uint256) {... */\n      swap2\n      pop\n      pop\n      jump\t// out\n        /* \"contracts/baseswaplocker.sol\":10857:11058  function transferOwnership(address newOwner) public virtual onlyOwner {... */\n    tag_111:\n        /* \"contracts/baseswaplocker.sol\":9844:9857  _checkOwner() */\n      tag_253\n        /* \"contracts/baseswaplocker.sol\":9844:9855  _checkOwner */\n      tag_143\n        /* \"contracts/baseswaplocker.sol\":9844:9857  _checkOwner() */\n      jump\t// in\n    tag_253:\n      sub(shl(0xa0, 0x01), 0x01)\n        /* \"contracts/baseswaplocker.sol\":10946:10968  newOwner != address(0) */\n      dup2\n      and\n        /* \"contracts/baseswaplocker.sol\":10938:11011  require(newOwner != address(0), \"Ownable: new owner is the zero address\") */\n      tag_255\n      jumpi\n      mload(0x40)\n      shl(0xe5, 0x461bcd)\n      dup2\n      mstore\n        /* \"#utility.yul\":9094:9096   */\n      0x20\n        /* \"contracts/baseswaplocker.sol\":10938:11011  require(newOwner != address(0), \"Ownable: new owner is the zero address\") */\n      0x04\n      dup3\n      add\n        /* \"#utility.yul\":9076:9097   */\n      mstore\n        /* \"#utility.yul\":9133:9135   */\n      0x26\n        /* \"#utility.yul\":9113:9131   */\n      0x24\n      dup3\n      add\n        /* \"#utility.yul\":9106:9136   */\n      mstore\n        /* \"#utility.yul\":9172:9206   */\n      0x4f776e61626c653a206e6577206f776e657220697320746865207a65726f2061\n        /* \"#utility.yul\":9152:9170   */\n      0x44\n      dup3\n      add\n        /* \"#utility.yul\":9145:9207   */\n      mstore\n      shl(0xd0, 0x646472657373)\n        /* \"#utility.yul\":9223:9241   */\n      0x64\n      dup3\n      add\n        /* \"#utility.yul\":9216:9252   */\n      mstore\n        /* \"#utility.yul\":9269:9288   */\n      0x84\n      add\n        /* \"contracts/baseswaplocker.sol\":10938:11011  require(newOwner != address(0), \"Ownable: new owner is the zero address\") */\n      tag_121\n        /* \"#utility.yul\":8892:9294   */\n      jump\n        /* \"contracts/baseswaplocker.sol\":10938:11011  require(newOwner != address(0), \"Ownable: new owner is the zero address\") */\n    tag_255:\n        /* \"contracts/baseswaplocker.sol\":11022:11050  _transferOwnership(newOwner) */\n      tag_258\n        /* \"contracts/baseswaplocker.sol\":11041:11049  newOwner */\n      dup2\n        /* \"contracts/baseswaplocker.sol\":11022:11040  _transferOwnership */\n      tag_146\n        /* \"contracts/baseswaplocker.sol\":11022:11050  _transferOwnership(newOwner) */\n      jump\t// in\n    tag_258:\n        /* \"contracts/baseswaplocker.sol\":10857:11058  function transferOwnership(address newOwner) public virtual onlyOwner {... */\n      pop\n      jump\t// out\n        /* \"contracts/baseswaplocker.sol\":5459:5557  function sub(uint256 a, uint256 b) internal pure returns (uint256) {... */\n    tag_130:\n        /* \"contracts/baseswaplocker.sol\":5517:5524  uint256 */\n      0x00\n        /* \"contracts/baseswaplocker.sol\":5544:5549  a - b */\n      tag_260\n        /* \"contracts/baseswaplocker.sol\":5548:5549  b */\n      dup3\n        /* \"contracts/baseswaplocker.sol\":5544:5545  a */\n      dup5\n        /* \"contracts/baseswaplocker.sol\":5544:5549  a - b */\n      tag_261\n      jump\t// in\n    tag_260:\n        /* \"contracts/baseswaplocker.sol\":5537:5549  return a - b */\n      swap4\n        /* \"contracts/baseswaplocker.sol\":5459:5557  function sub(uint256 a, uint256 b) internal pure returns (uint256) {... */\n      swap3\n      pop\n      pop\n      pop\n      jump\t// out\n        /* \"contracts/baseswaplocker.sol\":10123:10255  function _checkOwner() internal view virtual {... */\n    tag_143:\n        /* \"contracts/baseswaplocker.sol\":10004:10011  address */\n      0x00\n        /* \"contracts/baseswaplocker.sol\":10031:10037  _owner */\n      sload\n      sub(shl(0xa0, 0x01), 0x01)\n      and\n        /* \"contracts/baseswaplocker.sol\":9254:9264  msg.sender */\n      caller\n        /* \"contracts/baseswaplocker.sol\":10187:10210  owner() == _msgSender() */\n      eq\n        /* \"contracts/baseswaplocker.sol\":10179:10247  require(owner() == _msgSender(), \"Ownable: caller is not the owner\") */\n      tag_145\n      jumpi\n      mload(0x40)\n      shl(0xe5, 0x461bcd)\n      dup2\n      mstore\n        /* \"#utility.yul\":9631:9633   */\n      0x20\n        /* \"contracts/baseswaplocker.sol\":10179:10247  require(owner() == _msgSender(), \"Ownable: caller is not the owner\") */\n      0x04\n      dup3\n      add\n        /* \"#utility.yul\":9613:9634   */\n      dup2\n      swap1\n      mstore\n        /* \"#utility.yul\":9650:9668   */\n      0x24\n      dup3\n      add\n        /* \"#utility.yul\":9643:9673   */\n      mstore\n        /* \"#utility.yul\":9709:9743   */\n      0x4f776e61626c653a2063616c6c6572206973206e6f7420746865206f776e6572\n        /* \"#utility.yul\":9689:9707   */\n      0x44\n      dup3\n      add\n        /* \"#utility.yul\":9682:9744   */\n      mstore\n        /* \"#utility.yul\":9761:9779   */\n      0x64\n      add\n        /* \"contracts/baseswaplocker.sol\":10179:10247  require(owner() == _msgSender(), \"Ownable: caller is not the owner\") */\n      tag_121\n        /* \"#utility.yul\":9429:9785   */\n      jump\n        /* \"contracts/baseswaplocker.sol\":11218:11409  function _transferOwnership(address newOwner) internal virtual {... */\n    tag_146:\n        /* \"contracts/baseswaplocker.sol\":11292:11308  address oldOwner */\n      0x00\n        /* \"contracts/baseswaplocker.sol\":11311:11317  _owner */\n      dup1\n      sload\n      sub(shl(0xa0, 0x01), 0x01)\n        /* \"contracts/baseswaplocker.sol\":11328:11345  _owner = newOwner */\n      dup4\n      dup2\n      and\n      not(sub(shl(0xa0, 0x01), 0x01))\n      dup4\n      and\n      dup2\n      or\n      dup5\n      sstore\n        /* \"contracts/baseswaplocker.sol\":11361:11401  OwnershipTransferred(oldOwner, newOwner) */\n      mload(0x40)\n        /* \"contracts/baseswaplocker.sol\":11311:11317  _owner */\n      swap2\n      swap1\n      swap3\n      and\n      swap3\n      dup4\n      swap2\n        /* \"contracts/baseswaplocker.sol\":11361:11401  OwnershipTransferred(oldOwner, newOwner) */\n      0x8be0079c531659141344cd1fd0a4f28419497f9722a3daafe3b4186f6b6457e0\n      swap2\n        /* \"contracts/baseswaplocker.sol\":11292:11308  address oldOwner */\n      swap1\n        /* \"contracts/baseswaplocker.sol\":11361:11401  OwnershipTransferred(oldOwner, newOwner) */\n      log3\n        /* \"contracts/baseswaplocker.sol\":11281:11409  {... */\n      pop\n        /* \"contracts/baseswaplocker.sol\":11218:11409  function _transferOwnership(address newOwner) internal virtual {... */\n      pop\n      jump\t// out\n        /* \"contracts/baseswaplocker.sol\":5078:5176  function add(uint256 a, uint256 b) internal pure returns (uint256) {... */\n    tag_186:\n        /* \"contracts/baseswaplocker.sol\":5136:5143  uint256 */\n      0x00\n        /* \"contracts/baseswaplocker.sol\":5163:5168  a + b */\n      tag_260\n        /* \"contracts/baseswaplocker.sol\":5167:5168  b */\n      dup3\n        /* \"contracts/baseswaplocker.sol\":5163:5164  a */\n      dup5\n        /* \"contracts/baseswaplocker.sol\":5163:5168  a + b */\n      tag_272\n      jump\t// in\n        /* \"#utility.yul\":14:145   */\n    tag_274:\n      sub(shl(0xa0, 0x01), 0x01)\n        /* \"#utility.yul\":89:120   */\n      dup2\n      and\n        /* \"#utility.yul\":79:121   */\n      dup2\n      eq\n        /* \"#utility.yul\":69:139   */\n      tag_258\n      jumpi\n        /* \"#utility.yul\":135:136   */\n      0x00\n        /* \"#utility.yul\":132:133   */\n      dup1\n        /* \"#utility.yul\":125:137   */\n      revert\n        /* \"#utility.yul\":150:465   */\n    tag_27:\n        /* \"#utility.yul\":218:224   */\n      0x00\n        /* \"#utility.yul\":226:232   */\n      dup1\n        /* \"#utility.yul\":279:281   */\n      0x40\n        /* \"#utility.yul\":267:276   */\n      dup4\n        /* \"#utility.yul\":258:265   */\n      dup6\n        /* \"#utility.yul\":254:277   */\n      sub\n        /* \"#utility.yul\":250:282   */\n      slt\n        /* \"#utility.yul\":247:299   */\n      iszero\n      tag_280\n      jumpi\n        /* \"#utility.yul\":295:296   */\n      0x00\n        /* \"#utility.yul\":292:293   */\n      dup1\n        /* \"#utility.yul\":285:297   */\n      revert\n        /* \"#utility.yul\":247:299   */\n    tag_280:\n        /* \"#utility.yul\":334:343   */\n      dup3\n        /* \"#utility.yul\":321:344   */\n      calldataload\n        /* \"#utility.yul\":353:384   */\n      tag_281\n        /* \"#utility.yul\":378:383   */\n      dup2\n        /* \"#utility.yul\":353:384   */\n      tag_274\n      jump\t// in\n    tag_281:\n        /* \"#utility.yul\":403:408   */\n      swap5\n        /* \"#utility.yul\":455:457   */\n      0x20\n        /* \"#utility.yul\":440:458   */\n      swap4\n      swap1\n      swap4\n      add\n        /* \"#utility.yul\":427:459   */\n      calldataload\n      swap4\n      pop\n      pop\n      pop\n        /* \"#utility.yul\":150:465   */\n      jump\t// out\n        /* \"#utility.yul\":652:832   */\n    tag_34:\n        /* \"#utility.yul\":711:717   */\n      0x00\n        /* \"#utility.yul\":764:766   */\n      0x20\n        /* \"#utility.yul\":752:761   */\n      dup3\n        /* \"#utility.yul\":743:750   */\n      dup5\n        /* \"#utility.yul\":739:762   */\n      sub\n        /* \"#utility.yul\":735:767   */\n      slt\n        /* \"#utility.yul\":732:784   */\n      iszero\n      tag_284\n      jumpi\n        /* \"#utility.yul\":780:781   */\n      0x00\n        /* \"#utility.yul\":777:778   */\n      dup1\n        /* \"#utility.yul\":770:782   */\n      revert\n        /* \"#utility.yul\":732:784   */\n    tag_284:\n      pop\n        /* \"#utility.yul\":803:826   */\n      calldataload\n      swap2\n        /* \"#utility.yul\":652:832   */\n      swap1\n      pop\n      jump\t// out\n        /* \"#utility.yul\":837:1084   */\n    tag_43:\n        /* \"#utility.yul\":896:902   */\n      0x00\n        /* \"#utility.yul\":949:951   */\n      0x20\n        /* \"#utility.yul\":937:946   */\n      dup3\n        /* \"#utility.yul\":928:935   */\n      dup5\n        /* \"#utility.yul\":924:947   */\n      sub\n        /* \"#utility.yul\":920:952   */\n      slt\n        /* \"#utility.yul\":917:969   */\n      iszero\n      tag_286\n      jumpi\n        /* \"#utility.yul\":965:966   */\n      0x00\n        /* \"#utility.yul\":962:963   */\n      dup1\n        /* \"#utility.yul\":955:967   */\n      revert\n        /* \"#utility.yul\":917:969   */\n    tag_286:\n        /* \"#utility.yul\":1004:1013   */\n      dup2\n        /* \"#utility.yul\":991:1014   */\n      calldataload\n        /* \"#utility.yul\":1023:1054   */\n      tag_260\n        /* \"#utility.yul\":1048:1053   */\n      dup2\n        /* \"#utility.yul\":1023:1054   */\n      tag_274\n      jump\t// in\n        /* \"#utility.yul\":1089:1721   */\n    tag_46:\n        /* \"#utility.yul\":1260:1262   */\n      0x20\n        /* \"#utility.yul\":1312:1333   */\n      dup1\n      dup3\n      mstore\n        /* \"#utility.yul\":1382:1395   */\n      dup3\n      mload\n        /* \"#utility.yul\":1285:1303   */\n      dup3\n      dup3\n      add\n        /* \"#utility.yul\":1404:1426   */\n      dup2\n      swap1\n      mstore\n        /* \"#utility.yul\":1231:1235   */\n      0x00\n      swap2\n        /* \"#utility.yul\":1260:1262   */\n      swap1\n        /* \"#utility.yul\":1483:1498   */\n      dup5\n      dup3\n      add\n      swap1\n        /* \"#utility.yul\":1457:1459   */\n      0x40\n        /* \"#utility.yul\":1442:1460   */\n      dup6\n      add\n      swap1\n        /* \"#utility.yul\":1231:1235   */\n      dup5\n        /* \"#utility.yul\":1526:1695   */\n    tag_289:\n        /* \"#utility.yul\":1540:1546   */\n      dup2\n        /* \"#utility.yul\":1537:1538   */\n      dup2\n        /* \"#utility.yul\":1534:1547   */\n      lt\n        /* \"#utility.yul\":1526:1695   */\n      iszero\n      tag_291\n      jumpi\n        /* \"#utility.yul\":1601:1614   */\n      dup4\n      mload\n        /* \"#utility.yul\":1589:1615   */\n      dup4\n      mstore\n        /* \"#utility.yul\":1670:1685   */\n      swap3\n      dup5\n      add\n      swap3\n        /* \"#utility.yul\":1635:1647   */\n      swap2\n      dup5\n      add\n      swap2\n        /* \"#utility.yul\":1562:1563   */\n      0x01\n        /* \"#utility.yul\":1555:1564   */\n      add\n        /* \"#utility.yul\":1526:1695   */\n      jump(tag_289)\n    tag_291:\n      pop\n        /* \"#utility.yul\":1712:1715   */\n      swap1\n      swap7\n        /* \"#utility.yul\":1089:1721   */\n      swap6\n      pop\n      pop\n      pop\n      pop\n      pop\n      pop\n      jump\t// out\n        /* \"#utility.yul\":1726:2264   */\n    tag_56:\n        /* \"#utility.yul\":1825:1831   */\n      0x00\n        /* \"#utility.yul\":1833:1839   */\n      dup1\n        /* \"#utility.yul\":1841:1847   */\n      0x00\n        /* \"#utility.yul\":1849:1855   */\n      dup1\n        /* \"#utility.yul\":1902:1905   */\n      0x80\n        /* \"#utility.yul\":1890:1899   */\n      dup6\n        /* \"#utility.yul\":1881:1888   */\n      dup8\n        /* \"#utility.yul\":1877:1900   */\n      sub\n        /* \"#utility.yul\":1873:1906   */\n      slt\n        /* \"#utility.yul\":1870:1923   */\n      iszero\n      tag_293\n      jumpi\n        /* \"#utility.yul\":1919:1920   */\n      0x00\n        /* \"#utility.yul\":1916:1917   */\n      dup1\n        /* \"#utility.yul\":1909:1921   */\n      revert\n        /* \"#utility.yul\":1870:1923   */\n    tag_293:\n        /* \"#utility.yul\":1958:1967   */\n      dup5\n        /* \"#utility.yul\":1945:1968   */\n      calldataload\n        /* \"#utility.yul\":1977:2008   */\n      tag_294\n        /* \"#utility.yul\":2002:2007   */\n      dup2\n        /* \"#utility.yul\":1977:2008   */\n      tag_274\n      jump\t// in\n    tag_294:\n        /* \"#utility.yul\":2027:2032   */\n      swap4\n      pop\n        /* \"#utility.yul\":2084:2086   */\n      0x20\n        /* \"#utility.yul\":2069:2087   */\n      dup6\n      add\n        /* \"#utility.yul\":2056:2088   */\n      calldataload\n        /* \"#utility.yul\":2097:2130   */\n      tag_295\n        /* \"#utility.yul\":2056:2088   */\n      dup2\n        /* \"#utility.yul\":2097:2130   */\n      tag_274\n      jump\t// in\n    tag_295:\n        /* \"#utility.yul\":1726:2264   */\n      swap4\n      swap7\n        /* \"#utility.yul\":2149:2156   */\n      swap4\n      swap6\n      pop\n      pop\n      pop\n      pop\n        /* \"#utility.yul\":2203:2205   */\n      0x40\n        /* \"#utility.yul\":2188:2206   */\n      dup3\n      add\n        /* \"#utility.yul\":2175:2207   */\n      calldataload\n      swap2\n        /* \"#utility.yul\":2254:2256   */\n      0x60\n        /* \"#utility.yul\":2239:2257   */\n      add\n        /* \"#utility.yul\":2226:2258   */\n      calldataload\n      swap1\n        /* \"#utility.yul\":1726:2264   */\n      jump\t// out\n        /* \"#utility.yul\":2742:3130   */\n    tag_99:\n        /* \"#utility.yul\":2810:2816   */\n      0x00\n        /* \"#utility.yul\":2818:2824   */\n      dup1\n        /* \"#utility.yul\":2871:2873   */\n      0x40\n        /* \"#utility.yul\":2859:2868   */\n      dup4\n        /* \"#utility.yul\":2850:2857   */\n      dup6\n        /* \"#utility.yul\":2846:2869   */\n      sub\n        /* \"#utility.yul\":2842:2874   */\n      slt\n        /* \"#utility.yul\":2839:2891   */\n      iszero\n      tag_301\n      jumpi\n        /* \"#utility.yul\":2887:2888   */\n      0x00\n        /* \"#utility.yul\":2884:2885   */\n      dup1\n        /* \"#utility.yul\":2877:2889   */\n      revert\n        /* \"#utility.yul\":2839:2891   */\n    tag_301:\n        /* \"#utility.yul\":2926:2935   */\n      dup3\n        /* \"#utility.yul\":2913:2936   */\n      calldataload\n        /* \"#utility.yul\":2945:2976   */\n      tag_302\n        /* \"#utility.yul\":2970:2975   */\n      dup2\n        /* \"#utility.yul\":2945:2976   */\n      tag_274\n      jump\t// in\n    tag_302:\n        /* \"#utility.yul\":2995:3000   */\n      swap2\n      pop\n        /* \"#utility.yul\":3052:3054   */\n      0x20\n        /* \"#utility.yul\":3037:3055   */\n      dup4\n      add\n        /* \"#utility.yul\":3024:3056   */\n      calldataload\n        /* \"#utility.yul\":3065:3098   */\n      tag_303\n        /* \"#utility.yul\":3024:3056   */\n      dup2\n        /* \"#utility.yul\":3065:3098   */\n      tag_274\n      jump\t// in\n    tag_303:\n        /* \"#utility.yul\":3117:3124   */\n      dup1\n        /* \"#utility.yul\":3107:3124   */\n      swap2\n      pop\n      pop\n        /* \"#utility.yul\":2742:3130   */\n      swap3\n      pop\n      swap3\n      swap1\n      pop\n      jump\t// out\n        /* \"#utility.yul\":5249:5526   */\n    tag_137:\n        /* \"#utility.yul\":5316:5322   */\n      0x00\n        /* \"#utility.yul\":5369:5371   */\n      0x20\n        /* \"#utility.yul\":5357:5366   */\n      dup3\n        /* \"#utility.yul\":5348:5355   */\n      dup5\n        /* \"#utility.yul\":5344:5367   */\n      sub\n        /* \"#utility.yul\":5340:5372   */\n      slt\n        /* \"#utility.yul\":5337:5389   */\n      iszero\n      tag_311\n      jumpi\n        /* \"#utility.yul\":5385:5386   */\n      0x00\n        /* \"#utility.yul\":5382:5383   */\n      dup1\n        /* \"#utility.yul\":5375:5387   */\n      revert\n        /* \"#utility.yul\":5337:5389   */\n    tag_311:\n        /* \"#utility.yul\":5417:5426   */\n      dup2\n        /* \"#utility.yul\":5411:5427   */\n      mload\n        /* \"#utility.yul\":5470:5475   */\n      dup1\n        /* \"#utility.yul\":5463:5476   */\n      iszero\n        /* \"#utility.yul\":5456:5477   */\n      iszero\n        /* \"#utility.yul\":5449:5454   */\n      dup2\n        /* \"#utility.yul\":5446:5478   */\n      eq\n        /* \"#utility.yul\":5436:5496   */\n      tag_260\n      jumpi\n        /* \"#utility.yul\":5492:5493   */\n      0x00\n        /* \"#utility.yul\":5489:5490   */\n      dup1\n        /* \"#utility.yul\":5482:5494   */\n      revert\n        /* \"#utility.yul\":5881:6280   */\n    tag_153:\n        /* \"#utility.yul\":6083:6085   */\n      0x20\n        /* \"#utility.yul\":6065:6086   */\n      dup1\n      dup3\n      mstore\n        /* \"#utility.yul\":6122:6124   */\n      0x23\n        /* \"#utility.yul\":6102:6120   */\n      swap1\n      dup3\n      add\n        /* \"#utility.yul\":6095:6125   */\n      mstore\n        /* \"#utility.yul\":6161:6195   */\n      0x556e6c6f636b2074696d657374616d70206973206e6f7420696e207365636f6e\n        /* \"#utility.yul\":6156:6158   */\n      0x40\n        /* \"#utility.yul\":6141:6159   */\n      dup3\n      add\n        /* \"#utility.yul\":6134:6196   */\n      mstore\n      shl(0xe8, 0x647321)\n        /* \"#utility.yul\":6227:6229   */\n      0x60\n        /* \"#utility.yul\":6212:6230   */\n      dup3\n      add\n        /* \"#utility.yul\":6205:6238   */\n      mstore\n        /* \"#utility.yul\":6270:6273   */\n      0x80\n        /* \"#utility.yul\":6255:6274   */\n      add\n      swap1\n        /* \"#utility.yul\":5881:6280   */\n      jump\t// out\n        /* \"#utility.yul\":6285:6687   */\n    tag_156:\n        /* \"#utility.yul\":6487:6489   */\n      0x20\n        /* \"#utility.yul\":6469:6490   */\n      dup1\n      dup3\n      mstore\n        /* \"#utility.yul\":6526:6528   */\n      0x26\n        /* \"#utility.yul\":6506:6524   */\n      swap1\n      dup3\n      add\n        /* \"#utility.yul\":6499:6529   */\n      mstore\n        /* \"#utility.yul\":6565:6599   */\n      0x556e6c6f636b2074696d657374616d70206973206e6f7420696e207468652066\n        /* \"#utility.yul\":6560:6562   */\n      0x40\n        /* \"#utility.yul\":6545:6563   */\n      dup3\n      add\n        /* \"#utility.yul\":6538:6600   */\n      mstore\n      shl(0xd0, 0x757475726521)\n        /* \"#utility.yul\":6631:6633   */\n      0x60\n        /* \"#utility.yul\":6616:6634   */\n      dup3\n      add\n        /* \"#utility.yul\":6609:6645   */\n      mstore\n        /* \"#utility.yul\":6677:6680   */\n      0x80\n        /* \"#utility.yul\":6662:6681   */\n      add\n      swap1\n        /* \"#utility.yul\":6285:6687   */\n      jump\t// out\n        /* \"#utility.yul\":7001:7185   */\n    tag_162:\n        /* \"#utility.yul\":7071:7077   */\n      0x00\n        /* \"#utility.yul\":7124:7126   */\n      0x20\n        /* \"#utility.yul\":7112:7121   */\n      dup3\n        /* \"#utility.yul\":7103:7110   */\n      dup5\n        /* \"#utility.yul\":7099:7122   */\n      sub\n        /* \"#utility.yul\":7095:7127   */\n      slt\n        /* \"#utility.yul\":7092:7144   */\n      iszero\n      tag_318\n      jumpi\n        /* \"#utility.yul\":7140:7141   */\n      0x00\n        /* \"#utility.yul\":7137:7138   */\n      dup1\n        /* \"#utility.yul\":7130:7142   */\n      revert\n        /* \"#utility.yul\":7092:7144   */\n    tag_318:\n      pop\n        /* \"#utility.yul\":7163:7179   */\n      mload\n      swap2\n        /* \"#utility.yul\":7001:7185   */\n      swap1\n      pop\n      jump\t// out\n        /* \"#utility.yul\":8270:8397   */\n    tag_275:\n        /* \"#utility.yul\":8331:8341   */\n      0x4e487b71\n        /* \"#utility.yul\":8326:8329   */\n      0xe0\n        /* \"#utility.yul\":8322:8342   */\n      shl\n        /* \"#utility.yul\":8319:8320   */\n      0x00\n        /* \"#utility.yul\":8312:8343   */\n      mstore\n        /* \"#utility.yul\":8362:8366   */\n      0x11\n        /* \"#utility.yul\":8359:8360   */\n      0x04\n        /* \"#utility.yul\":8352:8367   */\n      mstore\n        /* \"#utility.yul\":8386:8390   */\n      0x24\n        /* \"#utility.yul\":8383:8384   */\n      0x00\n        /* \"#utility.yul\":8376:8391   */\n      revert\n        /* \"#utility.yul\":8402:8537   */\n    tag_188:\n        /* \"#utility.yul\":8441:8444   */\n      0x00\n      not(0x00)\n        /* \"#utility.yul\":8462:8479   */\n      dup3\n      eq\n        /* \"#utility.yul\":8459:8502   */\n      iszero\n      tag_325\n      jumpi\n        /* \"#utility.yul\":8482:8500   */\n      tag_325\n      tag_275\n      jump\t// in\n    tag_325:\n      pop\n        /* \"#utility.yul\":8529:8530   */\n      0x01\n        /* \"#utility.yul\":8518:8531   */\n      add\n      swap1\n        /* \"#utility.yul\":8402:8537   */\n      jump\t// out\n        /* \"#utility.yul\":9299:9424   */\n    tag_261:\n        /* \"#utility.yul\":9339:9343   */\n      0x00\n        /* \"#utility.yul\":9367:9368   */\n      dup3\n        /* \"#utility.yul\":9364:9365   */\n      dup3\n        /* \"#utility.yul\":9361:9369   */\n      lt\n        /* \"#utility.yul\":9358:9392   */\n      iszero\n      tag_330\n      jumpi\n        /* \"#utility.yul\":9372:9390   */\n      tag_330\n      tag_275\n      jump\t// in\n    tag_330:\n      pop\n        /* \"#utility.yul\":9409:9418   */\n      sub\n      swap1\n        /* \"#utility.yul\":9299:9424   */\n      jump\t// out\n        /* \"#utility.yul\":9790:9918   */\n    tag_272:\n        /* \"#utility.yul\":9830:9833   */\n      0x00\n        /* \"#utility.yul\":9861:9862   */\n      dup3\n        /* \"#utility.yul\":9857:9863   */\n      not\n        /* \"#utility.yul\":9854:9855   */\n      dup3\n        /* \"#utility.yul\":9851:9864   */\n      gt\n        /* \"#utility.yul\":9848:9887   */\n      iszero\n      tag_334\n      jumpi\n        /* \"#utility.yul\":9867:9885   */\n      tag_334\n      tag_275\n      jump\t// in\n    tag_334:\n      pop\n        /* \"#utility.yul\":9903:9912   */\n      add\n      swap1\n        /* \"#utility.yul\":9790:9918   */\n      jump\t// out\n\n    auxdata: 0xa264697066735822122041ffa3977fa7b359b32d9c8253c0c276c859af588b4ceeedd1c8e13b51e4b1ed64736f6c634300080c0033\n}\n",
				"bytecode": {
					"linkReferences": {},
					"object": "6080604052600680546001600160a01b03191673033e78e0cd429a80959aa653a95941f28ea3438717905566038d7ea4c6800060075534801561004157600080fd5b5061004b33610062565b600880546001600160a01b031916331790556100b2565b600080546001600160a01b038381166001600160a01b0319831681178455604051919092169283917f8be0079c531659141344cd1fd0a4f28419497f9722a3daafe3b4186f6b6457e09190a35050565b61158f806100c16000396000f3fe6080604052600436106101145760003560e01c8063906e9dd0116100a0578063b78a153211610064578063b78a1532146102e1578063b9e7df1c14610301578063bb941cff14610339578063f2fde38b146103c8578063f63a3056146103e857600080fd5b8063906e9dd0146102415780639f7260bd14610261578063a36d46a714610281578063a5ece941146102a1578063b14520e6146102c157600080fd5b806356a06235116100e757806356a06235146101b1578063715018a6146101c75780637d533c1e146101dc57806386f65a22146101ef5780638da5cb5b1461020f57600080fd5b806323c4a92114610119578063315a095d1461014c5780634506e9351461016e578063469d86e214610184575b600080fd5b34801561012557600080fd5b50610139610134366004611310565b610408565b6040519081526020015b60405180910390f35b34801561015857600080fd5b5061016c61016736600461133c565b610439565b005b34801561017a57600080fd5b5061013960015481565b34801561019057600080fd5b506101a461019f366004611355565b6106bf565b6040516101439190611372565b3480156101bd57600080fd5b5061013960075481565b3480156101d357600080fd5b5061016c61072b565b6101396101ea3660046113b6565b61073f565b3480156101fb57600080fd5b506101a461020a366004611355565b610ca4565b34801561021b57600080fd5b506000546001600160a01b03165b6040516001600160a01b039091168152602001610143565b34801561024d57600080fd5b5061016c61025c366004611355565b610d0e565b34801561026d57600080fd5b5061016c61027c36600461133c565b610d38565b34801561028d57600080fd5b5061016c61029c366004611355565b610d45565b3480156102ad57600080fd5b50600854610229906001600160a01b031681565b3480156102cd57600080fd5b506101396102dc3660046113b6565b610d6f565b3480156102ed57600080fd5b506101396102fc366004611355565b611148565b34801561030d57600080fd5b5061013961031c3660046113fc565b600560209081526000928352604080842090915290825290205481565b34801561034557600080fd5b5061039361035436600461133c565b6004602081905260009182526040909120805460018201546002830154600384015493909401546001600160a01b039283169492909116929060ff1685565b604080516001600160a01b0396871681529590941660208601529284019190915260608301521515608082015260a001610143565b3480156103d457600080fd5b5061016c6103e3366004611355565b6111b9565b3480156103f457600080fd5b50600654610229906001600160a01b031681565b6003602052816000526040600020818154811061042457600080fd5b90600052602060002001600091509150505481565b60008181526004602052604090206003015442101561049f5760405162461bcd60e51b815260206004820152601860248201527f546f6b656e7320617265207374696c6c206c6f636b656421000000000000000060448201526064015b60405180910390fd5b6000818152600460205260409020600101546001600160a01b031633146105085760405162461bcd60e51b815260206004820152601b60248201527f596f7520617265206e6f742074686520776974686472617765722100000000006044820152606401610496565b6000818152600460208190526040909120015460ff161561056b5760405162461bcd60e51b815260206004820152601d60248201527f546f6b656e732061726520616c72656164792077697468647261776e210000006044820152606401610496565b6000818152600460208181526040808420928301805460ff19166001179055600283015492546001600160a01b0316845260058252808420338552909152909120546105b691611232565b600082815260046020818152604080842080546001600160a01b03168552600583528185203380875290845282862096909655938690529181526002909201548151938452918301919091527f884edad9ce6fa2440d8a54cc123490eb96d2768479d49ff9c7366125a9424364910160405180910390a16000818152600460208190526040918290208054600290910154925163a9059cbb60e01b8152339281019290925260248201929092526001600160a01b039091169063a9059cbb906044016020604051808303816000875af1158015610697573d6000803e3d6000fd5b505050506040513d601f19601f820116820180604052508101906106bb9190611435565b5050565b6001600160a01b03811660009081526003602090815260409182902080548351818402810184019094528084526060939283018282801561071f57602002820191906000526020600020905b81548152602001906001019080831161070b575b50505050509050919050565b610733611245565b61073d600061129f565b565b60008083116107885760405162461bcd60e51b8152602060048201526015602482015274546f6b656e20616d6f756e7420746f6f206c6f772160581b6044820152606401610496565b6402540be40082106107ac5760405162461bcd60e51b815260040161049690611457565b4282116107cb5760405162461bcd60e51b81526004016104969061149a565b604051636eb1769f60e11b815233600482015230602482015283906001600160a01b0387169063dd62ed3e90604401602060405180830381865afa158015610817573d6000803e3d6000fd5b505050506040513d601f19601f8201168201806040525081019061083b91906114e0565b10156108815760405162461bcd60e51b8152602060048201526015602482015274417070726f766520746f6b656e732066697273742160581b6044820152606401610496565b6007543410156108cb5760405162461bcd60e51b81526020600482015260156024820152744e65656420746f20706179206c6f636b206665652160581b6044820152606401610496565b6040516370a0823160e01b81523060048201526000906001600160a01b038716906370a0823190602401602060405180830381865afa158015610912573d6000803e3d6000fd5b505050506040513d601f19601f8201168201806040525081019061093691906114e0565b6040516323b872dd60e01b8152336004820152306024820152604481018690529091506001600160a01b038716906323b872dd906064016020604051808303816000875af115801561098c573d6000803e3d6000fd5b505050506040513d601f19601f820116820180604052508101906109b09190611435565b506040516370a0823160e01b81523060048201526000906001600160a01b038816906370a0823190602401602060405180830381865afa1580156109f8573d6000803e3d6000fd5b505050506040513d601f19601f82011682018060405250810190610a1c91906114e0565b9050610a288183611232565b6008546040519196506001600160a01b0316903480156108fc02916000818181858888f19350505050158015610a62573d6000803e3d6000fd5b506001600160a01b0387166000908152600560209081526040808320338452909152902054610a9190866112ef565b6001600160a01b038816600090815260056020908152604080832033845290915281209190915560018054909190610ac89061150f565b9190508190559250866004600085815260200190815260200160002060000160006101000a8154816001600160a01b0302191690836001600160a01b03160217905550856004600085815260200190815260200160002060010160006101000a8154816001600160a01b0302191690836001600160a01b0316021790555084600460008581526020019081526020016000206002018190555083600460008581526020019081526020016000206003018190555060006004600085815260200190815260200160002060040160006101000a81548160ff02191690831515021790555060026000886001600160a01b03166001600160a01b0316815260200190815260200160002083908060018154018082558091505060019003906000526020600020016000909190919091505560036000876001600160a01b03166001600160a01b031681526020019081526020016000208390806001815401808255809150506001900390600052602060002001600090919091909150557f49eaf4942f1237055eb4cfa5f31c9dfe50d5b4ade01e021f7de8be2fbbde557b878685604051610c92939291906001600160a01b039390931683526020830191909152604082015260600190565b60405180910390a15050949350505050565b6001600160a01b03811660009081526002602090815260409182902080548351818402810184019094528084526060939283018282801561071f576020028201919060005260206000209081548152602001906001019080831161070b5750505050509050919050565b610d16611245565b600880546001600160a01b0319166001600160a01b0392909216919091179055565b610d40611245565b600755565b610d4d611245565b600680546001600160a01b0319166001600160a01b0392909216919091179055565b6000808311610db85760405162461bcd60e51b8152602060048201526015602482015274546f6b656e20616d6f756e7420746f6f206c6f772160581b6044820152606401610496565b6402540be4008210610ddc5760405162461bcd60e51b815260040161049690611457565b428211610dfb5760405162461bcd60e51b81526004016104969061149a565b604051636eb1769f60e11b815233600482015230602482015283906001600160a01b0387169063dd62ed3e90604401602060405180830381865afa158015610e47573d6000803e3d6000fd5b505050506040513d601f19601f82011682018060405250810190610e6b91906114e0565b1015610eb15760405162461bcd60e51b8152602060048201526015602482015274417070726f766520746f6b656e732066697273742160581b6044820152606401610496565b6007546006546040516370a0823160e01b81523360048201526001600160a01b03909116906370a0823190602401602060405180830381865afa158015610efc573d6000803e3d6000fd5b505050506040513d601f19601f82011682018060405250810190610f2091906114e0565b1015610f665760405162461bcd60e51b81526020600482015260156024820152744e65656420746f20706179206c6f636b206665652160581b6044820152606401610496565b6040516370a0823160e01b81523060048201526000906001600160a01b038716906370a0823190602401602060405180830381865afa158015610fad573d6000803e3d6000fd5b505050506040513d601f19601f82011682018060405250810190610fd191906114e0565b6040516323b872dd60e01b8152336004820152306024820152604481018690529091506001600160a01b038716906323b872dd906064016020604051808303816000875af1158015611027573d6000803e3d6000fd5b505050506040513d601f19601f8201168201806040525081019061104b9190611435565b506040516370a0823160e01b81523060048201526000906001600160a01b038816906370a0823190602401602060405180830381865afa158015611093573d6000803e3d6000fd5b505050506040513d601f19601f820116820180604052508101906110b791906114e0565b90506110c38183611232565b6006546008546007546040516323b872dd60e01b81523360048201526001600160a01b039283166024820152604481019190915292975016906323b872dd906064016020604051808303816000875af1158015611124573d6000803e3d6000fd5b505050506040513d601f19601f82011682018060405250810190610a629190611435565b6040516370a0823160e01b81523060048201526000906001600160a01b038316906370a0823190602401602060405180830381865afa15801561118f573d6000803e3d6000fd5b505050506040513d601f19601f820116820180604052508101906111b391906114e0565b92915050565b6111c1611245565b6001600160a01b0381166112265760405162461bcd60e51b815260206004820152602660248201527f4f776e61626c653a206e6577206f776e657220697320746865207a65726f206160448201526564647265737360d01b6064820152608401610496565b61122f8161129f565b50565b600061123e828461152a565b9392505050565b6000546001600160a01b0316331461073d5760405162461bcd60e51b815260206004820181905260248201527f4f776e61626c653a2063616c6c6572206973206e6f7420746865206f776e65726044820152606401610496565b600080546001600160a01b038381166001600160a01b0319831681178455604051919092169283917f8be0079c531659141344cd1fd0a4f28419497f9722a3daafe3b4186f6b6457e09190a35050565b600061123e8284611541565b6001600160a01b038116811461122f57600080fd5b6000806040838503121561132357600080fd5b823561132e816112fb565b946020939093013593505050565b60006020828403121561134e57600080fd5b5035919050565b60006020828403121561136757600080fd5b813561123e816112fb565b6020808252825182820181905260009190848201906040850190845b818110156113aa5783518352928401929184019160010161138e565b50909695505050505050565b600080600080608085870312156113cc57600080fd5b84356113d7816112fb565b935060208501356113e7816112fb565b93969395505050506040820135916060013590565b6000806040838503121561140f57600080fd5b823561141a816112fb565b9150602083013561142a816112fb565b809150509250929050565b60006020828403121561144757600080fd5b8151801515811461123e57600080fd5b60208082526023908201527f556e6c6f636b2074696d657374616d70206973206e6f7420696e207365636f6e60408201526264732160e81b606082015260800190565b60208082526026908201527f556e6c6f636b2074696d657374616d70206973206e6f7420696e20746865206660408201526575747572652160d01b606082015260800190565b6000602082840312156114f257600080fd5b5051919050565b634e487b7160e01b600052601160045260246000fd5b6000600019821415611523576115236114f9565b5060010190565b60008282101561153c5761153c6114f9565b500390565b60008219821115611554576115546114f9565b50019056fea264697066735822122041ffa3977fa7b359b32d9c8253c0c276c859af588b4ceeedd1c8e13b51e4b1ed64736f6c634300080c0033",
					"opcodes": "PUSH1 0x80 PUSH1 0x40 MSTORE PUSH1 0x6 DUP1 SLOAD PUSH1 0x1 PUSH1 0x1 PUSH1 0xA0 SHL SUB NOT AND PUSH20 0x33E78E0CD429A80959AA653A95941F28EA34387 OR SWAP1 SSTORE PUSH7 0x38D7EA4C68000 PUSH1 0x7 SSTORE CALLVALUE DUP1 ISZERO PUSH2 0x41 JUMPI PUSH1 0x0 DUP1 REVERT JUMPDEST POP PUSH2 0x4B CALLER PUSH2 0x62 JUMP JUMPDEST PUSH1 0x8 DUP1 SLOAD PUSH1 0x1 PUSH1 0x1 PUSH1 0xA0 SHL SUB NOT AND CALLER OR SWAP1 SSTORE PUSH2 0xB2 JUMP JUMPDEST PUSH1 0x0 DUP1 SLOAD PUSH1 0x1 PUSH1 0x1 PUSH1 0xA0 SHL SUB DUP4 DUP2 AND PUSH1 0x1 PUSH1 0x1 PUSH1 0xA0 SHL SUB NOT DUP4 AND DUP2 OR DUP5 SSTORE PUSH1 0x40 MLOAD SWAP2 SWAP1 SWAP3 AND SWAP3 DUP4 SWAP2 PUSH32 0x8BE0079C531659141344CD1FD0A4F28419497F9722A3DAAFE3B4186F6B6457E0 SWAP2 SWAP1 LOG3 POP POP JUMP JUMPDEST PUSH2 0x158F DUP1 PUSH2 0xC1 PUSH1 0x0 CODECOPY PUSH1 0x0 RETURN INVALID PUSH1 0x80 PUSH1 0x40 MSTORE PUSH1 0x4 CALLDATASIZE LT PUSH2 0x114 JUMPI PUSH1 0x0 CALLDATALOAD PUSH1 0xE0 SHR DUP1 PUSH4 0x906E9DD0 GT PUSH2 0xA0 JUMPI DUP1 PUSH4 0xB78A1532 GT PUSH2 0x64 JUMPI DUP1 PUSH4 0xB78A1532 EQ PUSH2 0x2E1 JUMPI DUP1 PUSH4 0xB9E7DF1C EQ PUSH2 0x301 JUMPI DUP1 PUSH4 0xBB941CFF EQ PUSH2 0x339 JUMPI DUP1 PUSH4 0xF2FDE38B EQ PUSH2 0x3C8 JUMPI DUP1 PUSH4 0xF63A3056 EQ PUSH2 0x3E8 JUMPI PUSH1 0x0 DUP1 REVERT JUMPDEST DUP1 PUSH4 0x906E9DD0 EQ PUSH2 0x241 JUMPI DUP1 PUSH4 0x9F7260BD EQ PUSH2 0x261 JUMPI DUP1 PUSH4 0xA36D46A7 EQ PUSH2 0x281 JUMPI DUP1 PUSH4 0xA5ECE941 EQ PUSH2 0x2A1 JUMPI DUP1 PUSH4 0xB14520E6 EQ PUSH2 0x2C1 JUMPI PUSH1 0x0 DUP1 REVERT JUMPDEST DUP1 PUSH4 0x56A06235 GT PUSH2 0xE7 JUMPI DUP1 PUSH4 0x56A06235 EQ PUSH2 0x1B1 JUMPI DUP1 PUSH4 0x715018A6 EQ PUSH2 0x1C7 JUMPI DUP1 PUSH4 0x7D533C1E EQ PUSH2 0x1DC JUMPI DUP1 PUSH4 0x86F65A22 EQ PUSH2 0x1EF JUMPI DUP1 PUSH4 0x8DA5CB5B EQ PUSH2 0x20F JUMPI PUSH1 0x0 DUP1 REVERT JUMPDEST DUP1 PUSH4 0x23C4A921 EQ PUSH2 0x119 JUMPI DUP1 PUSH4 0x315A095D EQ PUSH2 0x14C JUMPI DUP1 PUSH4 0x4506E935 EQ PUSH2 0x16E JUMPI DUP1 PUSH4 0x469D86E2 EQ PUSH2 0x184 JUMPI JUMPDEST PUSH1 0x0 DUP1 REVERT JUMPDEST CALLVALUE DUP1 ISZERO PUSH2 0x125 JUMPI PUSH1 0x0 DUP1 REVERT JUMPDEST POP PUSH2 0x139 PUSH2 0x134 CALLDATASIZE PUSH1 0x4 PUSH2 0x1310 JUMP JUMPDEST PUSH2 0x408 JUMP JUMPDEST PUSH1 0x40 MLOAD SWAP1 DUP2 MSTORE PUSH1 0x20 ADD JUMPDEST PUSH1 0x40 MLOAD DUP1 SWAP2 SUB SWAP1 RETURN JUMPDEST CALLVALUE DUP1 ISZERO PUSH2 0x158 JUMPI PUSH1 0x0 DUP1 REVERT JUMPDEST POP PUSH2 0x16C PUSH2 0x167 CALLDATASIZE PUSH1 0x4 PUSH2 0x133C JUMP JUMPDEST PUSH2 0x439 JUMP JUMPDEST STOP JUMPDEST CALLVALUE DUP1 ISZERO PUSH2 0x17A JUMPI PUSH1 0x0 DUP1 REVERT JUMPDEST POP PUSH2 0x139 PUSH1 0x1 SLOAD DUP2 JUMP JUMPDEST CALLVALUE DUP1 ISZERO PUSH2 0x190 JUMPI PUSH1 0x0 DUP1 REVERT JUMPDEST POP PUSH2 0x1A4 PUSH2 0x19F CALLDATASIZE PUSH1 0x4 PUSH2 0x1355 JUMP JUMPDEST PUSH2 0x6BF JUMP JUMPDEST PUSH1 0x40 MLOAD PUSH2 0x143 SWAP2 SWAP1 PUSH2 0x1372 JUMP JUMPDEST CALLVALUE DUP1 ISZERO PUSH2 0x1BD JUMPI PUSH1 0x0 DUP1 REVERT JUMPDEST POP PUSH2 0x139 PUSH1 0x7 SLOAD DUP2 JUMP JUMPDEST CALLVALUE DUP1 ISZERO PUSH2 0x1D3 JUMPI PUSH1 0x0 DUP1 REVERT JUMPDEST POP PUSH2 0x16C PUSH2 0x72B JUMP JUMPDEST PUSH2 0x139 PUSH2 0x1EA CALLDATASIZE PUSH1 0x4 PUSH2 0x13B6 JUMP JUMPDEST PUSH2 0x73F JUMP JUMPDEST CALLVALUE DUP1 ISZERO PUSH2 0x1FB JUMPI PUSH1 0x0 DUP1 REVERT JUMPDEST POP PUSH2 0x1A4 PUSH2 0x20A CALLDATASIZE PUSH1 0x4 PUSH2 0x1355 JUMP JUMPDEST PUSH2 0xCA4 JUMP JUMPDEST CALLVALUE DUP1 ISZERO PUSH2 0x21B JUMPI PUSH1 0x0 DUP1 REVERT JUMPDEST POP PUSH1 0x0 SLOAD PUSH1 0x1 PUSH1 0x1 PUSH1 0xA0 SHL SUB AND JUMPDEST PUSH1 0x40 MLOAD PUSH1 0x1 PUSH1 0x1 PUSH1 0xA0 SHL SUB SWAP1 SWAP2 AND DUP2 MSTORE PUSH1 0x20 ADD PUSH2 0x143 JUMP JUMPDEST CALLVALUE DUP1 ISZERO PUSH2 0x24D JUMPI PUSH1 0x0 DUP1 REVERT JUMPDEST POP PUSH2 0x16C PUSH2 0x25C CALLDATASIZE PUSH1 0x4 PUSH2 0x1355 JUMP JUMPDEST PUSH2 0xD0E JUMP JUMPDEST CALLVALUE DUP1 ISZERO PUSH2 0x26D JUMPI PUSH1 0x0 DUP1 REVERT JUMPDEST POP PUSH2 0x16C PUSH2 0x27C CALLDATASIZE PUSH1 0x4 PUSH2 0x133C JUMP JUMPDEST PUSH2 0xD38 JUMP JUMPDEST CALLVALUE DUP1 ISZERO PUSH2 0x28D JUMPI PUSH1 0x0 DUP1 REVERT JUMPDEST POP PUSH2 0x16C PUSH2 0x29C CALLDATASIZE PUSH1 0x4 PUSH2 0x1355 JUMP JUMPDEST PUSH2 0xD45 JUMP JUMPDEST CALLVALUE DUP1 ISZERO PUSH2 0x2AD JUMPI PUSH1 0x0 DUP1 REVERT JUMPDEST POP PUSH1 0x8 SLOAD PUSH2 0x229 SWAP1 PUSH1 0x1 PUSH1 0x1 PUSH1 0xA0 SHL SUB AND DUP2 JUMP JUMPDEST CALLVALUE DUP1 ISZERO PUSH2 0x2CD JUMPI PUSH1 0x0 DUP1 REVERT JUMPDEST POP PUSH2 0x139 PUSH2 0x2DC CALLDATASIZE PUSH1 0x4 PUSH2 0x13B6 JUMP JUMPDEST PUSH2 0xD6F JUMP JUMPDEST CALLVALUE DUP1 ISZERO PUSH2 0x2ED JUMPI PUSH1 0x0 DUP1 REVERT JUMPDEST POP PUSH2 0x139 PUSH2 0x2FC CALLDATASIZE PUSH1 0x4 PUSH2 0x1355 JUMP JUMPDEST PUSH2 0x1148 JUMP JUMPDEST CALLVALUE DUP1 ISZERO PUSH2 0x30D JUMPI PUSH1 0x0 DUP1 REVERT JUMPDEST POP PUSH2 0x139 PUSH2 0x31C CALLDATASIZE PUSH1 0x4 PUSH2 0x13FC JUMP JUMPDEST PUSH1 0x5 PUSH1 0x20 SWAP1 DUP2 MSTORE PUSH1 0x0 SWAP3 DUP4 MSTORE PUSH1 0x40 DUP1 DUP5 KECCAK256 SWAP1 SWAP2 MSTORE SWAP1 DUP3 MSTORE SWAP1 KECCAK256 SLOAD DUP2 JUMP JUMPDEST CALLVALUE DUP1 ISZERO PUSH2 0x345 JUMPI PUSH1 0x0 DUP1 REVERT JUMPDEST POP PUSH2 0x393 PUSH2 0x354 CALLDATASIZE PUSH1 0x4 PUSH2 0x133C JUMP JUMPDEST PUSH1 0x4 PUSH1 0x20 DUP2 SWAP1 MSTORE PUSH1 0x0 SWAP2 DUP3 MSTORE PUSH1 0x40 SWAP1 SWAP2 KECCAK256 DUP1 SLOAD PUSH1 0x1 DUP3 ADD SLOAD PUSH1 0x2 DUP4 ADD SLOAD PUSH1 0x3 DUP5 ADD SLOAD SWAP4 SWAP1 SWAP5 ADD SLOAD PUSH1 0x1 PUSH1 0x1 PUSH1 0xA0 SHL SUB SWAP3 DUP4 AND SWAP5 SWAP3 SWAP1 SWAP2 AND SWAP3 SWAP1 PUSH1 0xFF AND DUP6 JUMP JUMPDEST PUSH1 0x40 DUP1 MLOAD PUSH1 0x1 PUSH1 0x1 PUSH1 0xA0 SHL SUB SWAP7 DUP8 AND DUP2 MSTORE SWAP6 SWAP1 SWAP5 AND PUSH1 0x20 DUP7 ADD MSTORE SWAP3 DUP5 ADD SWAP2 SWAP1 SWAP2 MSTORE PUSH1 0x60 DUP4 ADD MSTORE ISZERO ISZERO PUSH1 0x80 DUP3 ADD MSTORE PUSH1 0xA0 ADD PUSH2 0x143 JUMP JUMPDEST CALLVALUE DUP1 ISZERO PUSH2 0x3D4 JUMPI PUSH1 0x0 DUP1 REVERT JUMPDEST POP PUSH2 0x16C PUSH2 0x3E3 CALLDATASIZE PUSH1 0x4 PUSH2 0x1355 JUMP JUMPDEST PUSH2 0x11B9 JUMP JUMPDEST CALLVALUE DUP1 ISZERO PUSH2 0x3F4 JUMPI PUSH1 0x0 DUP1 REVERT JUMPDEST POP PUSH1 0x6 SLOAD PUSH2 0x229 SWAP1 PUSH1 0x1 PUSH1 0x1 PUSH1 0xA0 SHL SUB AND DUP2 JUMP JUMPDEST PUSH1 0x3 PUSH1 0x20 MSTORE DUP2 PUSH1 0x0 MSTORE PUSH1 0x40 PUSH1 0x0 KECCAK256 DUP2 DUP2 SLOAD DUP2 LT PUSH2 0x424 JUMPI PUSH1 0x0 DUP1 REVERT JUMPDEST SWAP1 PUSH1 0x0 MSTORE PUSH1 0x20 PUSH1 0x0 KECCAK256 ADD PUSH1 0x0 SWAP2 POP SWAP2 POP POP SLOAD DUP2 JUMP JUMPDEST PUSH1 0x0 DUP2 DUP2 MSTORE PUSH1 0x4 PUSH1 0x20 MSTORE PUSH1 0x40 SWAP1 KECCAK256 PUSH1 0x3 ADD SLOAD TIMESTAMP LT ISZERO PUSH2 0x49F JUMPI PUSH1 0x40 MLOAD PUSH3 0x461BCD PUSH1 0xE5 SHL DUP2 MSTORE PUSH1 0x20 PUSH1 0x4 DUP3 ADD MSTORE PUSH1 0x18 PUSH1 0x24 DUP3 ADD MSTORE PUSH32 0x546F6B656E7320617265207374696C6C206C6F636B6564210000000000000000 PUSH1 0x44 DUP3 ADD MSTORE PUSH1 0x64 ADD JUMPDEST PUSH1 0x40 MLOAD DUP1 SWAP2 SUB SWAP1 REVERT JUMPDEST PUSH1 0x0 DUP2 DUP2 MSTORE PUSH1 0x4 PUSH1 0x20 MSTORE PUSH1 0x40 SWAP1 KECCAK256 PUSH1 0x1 ADD SLOAD PUSH1 0x1 PUSH1 0x1 PUSH1 0xA0 SHL SUB AND CALLER EQ PUSH2 0x508 JUMPI PUSH1 0x40 MLOAD PUSH3 0x461BCD PUSH1 0xE5 SHL DUP2 MSTORE PUSH1 0x20 PUSH1 0x4 DUP3 ADD MSTORE PUSH1 0x1B PUSH1 0x24 DUP3 ADD MSTORE PUSH32 0x596F7520617265206E6F74207468652077697468647261776572210000000000 PUSH1 0x44 DUP3 ADD MSTORE PUSH1 0x64 ADD PUSH2 0x496 JUMP JUMPDEST PUSH1 0x0 DUP2 DUP2 MSTORE PUSH1 0x4 PUSH1 0x20 DUP2 SWAP1 MSTORE PUSH1 0x40 SWAP1 SWAP2 KECCAK256 ADD SLOAD PUSH1 0xFF AND ISZERO PUSH2 0x56B JUMPI PUSH1 0x40 MLOAD PUSH3 0x461BCD PUSH1 0xE5 SHL DUP2 MSTORE PUSH1 0x20 PUSH1 0x4 DUP3 ADD MSTORE PUSH1 0x1D PUSH1 0x24 DUP3 ADD MSTORE PUSH32 0x546F6B656E732061726520616C72656164792077697468647261776E21000000 PUSH1 0x44 DUP3 ADD MSTORE PUSH1 0x64 ADD PUSH2 0x496 JUMP JUMPDEST PUSH1 0x0 DUP2 DUP2 MSTORE PUSH1 0x4 PUSH1 0x20 DUP2 DUP2 MSTORE PUSH1 0x40 DUP1 DUP5 KECCAK256 SWAP3 DUP4 ADD DUP1 SLOAD PUSH1 0xFF NOT AND PUSH1 0x1 OR SWAP1 SSTORE PUSH1 0x2 DUP4 ADD SLOAD SWAP3 SLOAD PUSH1 0x1 PUSH1 0x1 PUSH1 0xA0 SHL SUB AND DUP5 MSTORE PUSH1 0x5 DUP3 MSTORE DUP1 DUP5 KECCAK256 CALLER DUP6 MSTORE SWAP1 SWAP2 MSTORE SWAP1 SWAP2 KECCAK256 SLOAD PUSH2 0x5B6 SWAP2 PUSH2 0x1232 JUMP JUMPDEST PUSH1 0x0 DUP3 DUP2 MSTORE PUSH1 0x4 PUSH1 0x20 DUP2 DUP2 MSTORE PUSH1 0x40 DUP1 DUP5 KECCAK256 DUP1 SLOAD PUSH1 0x1 PUSH1 0x1 PUSH1 0xA0 SHL SUB AND DUP6 MSTORE PUSH1 0x5 DUP4 MSTORE DUP2 DUP6 KECCAK256 CALLER DUP1 DUP8 MSTORE SWAP1 DUP5 MSTORE DUP3 DUP7 KECCAK256 SWAP7 SWAP1 SWAP7 SSTORE SWAP4 DUP7 SWAP1 MSTORE SWAP2 DUP2 MSTORE PUSH1 0x2 SWAP1 SWAP3 ADD SLOAD DUP2 MLOAD SWAP4 DUP5 MSTORE SWAP2 DUP4 ADD SWAP2 SWAP1 SWAP2 MSTORE PUSH32 0x884EDAD9CE6FA2440D8A54CC123490EB96D2768479D49FF9C7366125A9424364 SWAP2 ADD PUSH1 0x40 MLOAD DUP1 SWAP2 SUB SWAP1 LOG1 PUSH1 0x0 DUP2 DUP2 MSTORE PUSH1 0x4 PUSH1 0x20 DUP2 SWAP1 MSTORE PUSH1 0x40 SWAP2 DUP3 SWAP1 KECCAK256 DUP1 SLOAD PUSH1 0x2 SWAP1 SWAP2 ADD SLOAD SWAP3 MLOAD PUSH4 0xA9059CBB PUSH1 0xE0 SHL DUP2 MSTORE CALLER SWAP3 DUP2 ADD SWAP3 SWAP1 SWAP3 MSTORE PUSH1 0x24 DUP3 ADD SWAP3 SWAP1 SWAP3 MSTORE PUSH1 0x1 PUSH1 0x1 PUSH1 0xA0 SHL SUB SWAP1 SWAP2 AND SWAP1 PUSH4 0xA9059CBB SWAP1 PUSH1 0x44 ADD PUSH1 0x20 PUSH1 0x40 MLOAD DUP1 DUP4 SUB DUP2 PUSH1 0x0 DUP8 GAS CALL ISZERO DUP1 ISZERO PUSH2 0x697 JUMPI RETURNDATASIZE PUSH1 0x0 DUP1 RETURNDATACOPY RETURNDATASIZE PUSH1 0x0 REVERT JUMPDEST POP POP POP POP PUSH1 0x40 MLOAD RETURNDATASIZE PUSH1 0x1F NOT PUSH1 0x1F DUP3 ADD AND DUP3 ADD DUP1 PUSH1 0x40 MSTORE POP DUP2 ADD SWAP1 PUSH2 0x6BB SWAP2 SWAP1 PUSH2 0x1435 JUMP JUMPDEST POP POP JUMP JUMPDEST PUSH1 0x1 PUSH1 0x1 PUSH1 0xA0 SHL SUB DUP2 AND PUSH1 0x0 SWAP1 DUP2 MSTORE PUSH1 0x3 PUSH1 0x20 SWAP1 DUP2 MSTORE PUSH1 0x40 SWAP2 DUP3 SWAP1 KECCAK256 DUP1 SLOAD DUP4 MLOAD DUP2 DUP5 MUL DUP2 ADD DUP5 ADD SWAP1 SWAP5 MSTORE DUP1 DUP5 MSTORE PUSH1 0x60 SWAP4 SWAP3 DUP4 ADD DUP3 DUP3 DUP1 ISZERO PUSH2 0x71F JUMPI PUSH1 0x20 MUL DUP3 ADD SWAP2 SWAP1 PUSH1 0x0 MSTORE PUSH1 0x20 PUSH1 0x0 KECCAK256 SWAP1 JUMPDEST DUP2 SLOAD DUP2 MSTORE PUSH1 0x20 ADD SWAP1 PUSH1 0x1 ADD SWAP1 DUP1 DUP4 GT PUSH2 0x70B JUMPI JUMPDEST POP POP POP POP POP SWAP1 POP SWAP2 SWAP1 POP JUMP JUMPDEST PUSH2 0x733 PUSH2 0x1245 JUMP JUMPDEST PUSH2 0x73D PUSH1 0x0 PUSH2 0x129F JUMP JUMPDEST JUMP JUMPDEST PUSH1 0x0 DUP1 DUP4 GT PUSH2 0x788 JUMPI PUSH1 0x40 MLOAD PUSH3 0x461BCD PUSH1 0xE5 SHL DUP2 MSTORE PUSH1 0x20 PUSH1 0x4 DUP3 ADD MSTORE PUSH1 0x15 PUSH1 0x24 DUP3 ADD MSTORE PUSH21 0x546F6B656E20616D6F756E7420746F6F206C6F7721 PUSH1 0x58 SHL PUSH1 0x44 DUP3 ADD MSTORE PUSH1 0x64 ADD PUSH2 0x496 JUMP JUMPDEST PUSH5 0x2540BE400 DUP3 LT PUSH2 0x7AC JUMPI PUSH1 0x40 MLOAD PUSH3 0x461BCD PUSH1 0xE5 SHL DUP2 MSTORE PUSH1 0x4 ADD PUSH2 0x496 SWAP1 PUSH2 0x1457 JUMP JUMPDEST TIMESTAMP DUP3 GT PUSH2 0x7CB JUMPI PUSH1 0x40 MLOAD PUSH3 0x461BCD PUSH1 0xE5 SHL DUP2 MSTORE PUSH1 0x4 ADD PUSH2 0x496 SWAP1 PUSH2 0x149A JUMP JUMPDEST PUSH1 0x40 MLOAD PUSH4 0x6EB1769F PUSH1 0xE1 SHL DUP2 MSTORE CALLER PUSH1 0x4 DUP3 ADD MSTORE ADDRESS PUSH1 0x24 DUP3 ADD MSTORE DUP4 SWAP1 PUSH1 0x1 PUSH1 0x1 PUSH1 0xA0 SHL SUB DUP8 AND SWAP1 PUSH4 0xDD62ED3E SWAP1 PUSH1 0x44 ADD PUSH1 0x20 PUSH1 0x40 MLOAD DUP1 DUP4 SUB DUP2 DUP7 GAS STATICCALL ISZERO DUP1 ISZERO PUSH2 0x817 JUMPI RETURNDATASIZE PUSH1 0x0 DUP1 RETURNDATACOPY RETURNDATASIZE PUSH1 0x0 REVERT JUMPDEST POP POP POP POP PUSH1 0x40 MLOAD RETURNDATASIZE PUSH1 0x1F NOT PUSH1 0x1F DUP3 ADD AND DUP3 ADD DUP1 PUSH1 0x40 MSTORE POP DUP2 ADD SWAP1 PUSH2 0x83B SWAP2 SWAP1 PUSH2 0x14E0 JUMP JUMPDEST LT ISZERO PUSH2 0x881 JUMPI PUSH1 0x40 MLOAD PUSH3 0x461BCD PUSH1 0xE5 SHL DUP2 MSTORE PUSH1 0x20 PUSH1 0x4 DUP3 ADD MSTORE PUSH1 0x15 PUSH1 0x24 DUP3 ADD MSTORE PUSH21 0x417070726F766520746F6B656E7320666972737421 PUSH1 0x58 SHL PUSH1 0x44 DUP3 ADD MSTORE PUSH1 0x64 ADD PUSH2 0x496 JUMP JUMPDEST PUSH1 0x7 SLOAD CALLVALUE LT ISZERO PUSH2 0x8CB JUMPI PUSH1 0x40 MLOAD PUSH3 0x461BCD PUSH1 0xE5 SHL DUP2 MSTORE PUSH1 0x20 PUSH1 0x4 DUP3 ADD MSTORE PUSH1 0x15 PUSH1 0x24 DUP3 ADD MSTORE PUSH21 0x4E65656420746F20706179206C6F636B2066656521 PUSH1 0x58 SHL PUSH1 0x44 DUP3 ADD MSTORE PUSH1 0x64 ADD PUSH2 0x496 JUMP JUMPDEST PUSH1 0x40 MLOAD PUSH4 0x70A08231 PUSH1 0xE0 SHL DUP2 MSTORE ADDRESS PUSH1 0x4 DUP3 ADD MSTORE PUSH1 0x0 SWAP1 PUSH1 0x1 PUSH1 0x1 PUSH1 0xA0 SHL SUB DUP8 AND SWAP1 PUSH4 0x70A08231 SWAP1 PUSH1 0x24 ADD PUSH1 0x20 PUSH1 0x40 MLOAD DUP1 DUP4 SUB DUP2 DUP7 GAS STATICCALL ISZERO DUP1 ISZERO PUSH2 0x912 JUMPI RETURNDATASIZE PUSH1 0x0 DUP1 RETURNDATACOPY RETURNDATASIZE PUSH1 0x0 REVERT JUMPDEST POP POP POP POP PUSH1 0x40 MLOAD RETURNDATASIZE PUSH1 0x1F NOT PUSH1 0x1F DUP3 ADD AND DUP3 ADD DUP1 PUSH1 0x40 MSTORE POP DUP2 ADD SWAP1 PUSH2 0x936 SWAP2 SWAP1 PUSH2 0x14E0 JUMP JUMPDEST PUSH1 0x40 MLOAD PUSH4 0x23B872DD PUSH1 0xE0 SHL DUP2 MSTORE CALLER PUSH1 0x4 DUP3 ADD MSTORE ADDRESS PUSH1 0x24 DUP3 ADD MSTORE PUSH1 0x44 DUP2 ADD DUP7 SWAP1 MSTORE SWAP1 SWAP2 POP PUSH1 0x1 PUSH1 0x1 PUSH1 0xA0 SHL SUB DUP8 AND SWAP1 PUSH4 0x23B872DD SWAP1 PUSH1 0x64 ADD PUSH1 0x20 PUSH1 0x40 MLOAD DUP1 DUP4 SUB DUP2 PUSH1 0x0 DUP8 GAS CALL ISZERO DUP1 ISZERO PUSH2 0x98C JUMPI RETURNDATASIZE PUSH1 0x0 DUP1 RETURNDATACOPY RETURNDATASIZE PUSH1 0x0 REVERT JUMPDEST POP POP POP POP PUSH1 0x40 MLOAD RETURNDATASIZE PUSH1 0x1F NOT PUSH1 0x1F DUP3 ADD AND DUP3 ADD DUP1 PUSH1 0x40 MSTORE POP DUP2 ADD SWAP1 PUSH2 0x9B0 SWAP2 SWAP1 PUSH2 0x1435 JUMP JUMPDEST POP PUSH1 0x40 MLOAD PUSH4 0x70A08231 PUSH1 0xE0 SHL DUP2 MSTORE ADDRESS PUSH1 0x4 DUP3 ADD MSTORE PUSH1 0x0 SWAP1 PUSH1 0x1 PUSH1 0x1 PUSH1 0xA0 SHL SUB DUP9 AND SWAP1 PUSH4 0x70A08231 SWAP1 PUSH1 0x24 ADD PUSH1 0x20 PUSH1 0x40 MLOAD DUP1 DUP4 SUB DUP2 DUP7 GAS STATICCALL ISZERO DUP1 ISZERO PUSH2 0x9F8 JUMPI RETURNDATASIZE PUSH1 0x0 DUP1 RETURNDATACOPY RETURNDATASIZE PUSH1 0x0 REVERT JUMPDEST POP POP POP POP PUSH1 0x40 MLOAD RETURNDATASIZE PUSH1 0x1F NOT PUSH1 0x1F DUP3 ADD AND DUP3 ADD DUP1 PUSH1 0x40 MSTORE POP DUP2 ADD SWAP1 PUSH2 0xA1C SWAP2 SWAP1 PUSH2 0x14E0 JUMP JUMPDEST SWAP1 POP PUSH2 0xA28 DUP2 DUP4 PUSH2 0x1232 JUMP JUMPDEST PUSH1 0x8 SLOAD PUSH1 0x40 MLOAD SWAP2 SWAP7 POP PUSH1 0x1 PUSH1 0x1 PUSH1 0xA0 SHL SUB AND SWAP1 CALLVALUE DUP1 ISZERO PUSH2 0x8FC MUL SWAP2 PUSH1 0x0 DUP2 DUP2 DUP2 DUP6 DUP9 DUP9 CALL SWAP4 POP POP POP POP ISZERO DUP1 ISZERO PUSH2 0xA62 JUMPI RETURNDATASIZE PUSH1 0x0 DUP1 RETURNDATACOPY RETURNDATASIZE PUSH1 0x0 REVERT JUMPDEST POP PUSH1 0x1 PUSH1 0x1 PUSH1 0xA0 SHL SUB DUP8 AND PUSH1 0x0 SWAP1 DUP2 MSTORE PUSH1 0x5 PUSH1 0x20 SWAP1 DUP2 MSTORE PUSH1 0x40 DUP1 DUP4 KECCAK256 CALLER DUP5 MSTORE SWAP1 SWAP2 MSTORE SWAP1 KECCAK256 SLOAD PUSH2 0xA91 SWAP1 DUP7 PUSH2 0x12EF JUMP JUMPDEST PUSH1 0x1 PUSH1 0x1 PUSH1 0xA0 SHL SUB DUP9 AND PUSH1 0x0 SWAP1 DUP2 MSTORE PUSH1 0x5 PUSH1 0x20 SWAP1 DUP2 MSTORE PUSH1 0x40 DUP1 DUP4 KECCAK256 CALLER DUP5 MSTORE SWAP1 SWAP2 MSTORE DUP2 KECCAK256 SWAP2 SWAP1 SWAP2 SSTORE PUSH1 0x1 DUP1 SLOAD SWAP1 SWAP2 SWAP1 PUSH2 0xAC8 SWAP1 PUSH2 0x150F JUMP JUMPDEST SWAP2 SWAP1 POP DUP2 SWAP1 SSTORE SWAP3 POP DUP7 PUSH1 0x4 PUSH1 0x0 DUP6 DUP2 MSTORE PUSH1 0x20 ADD SWAP1 DUP2 MSTORE PUSH1 0x20 ADD PUSH1 0x0 KECCAK256 PUSH1 0x0 ADD PUSH1 0x0 PUSH2 0x100 EXP DUP2 SLOAD DUP2 PUSH1 0x1 PUSH1 0x1 PUSH1 0xA0 SHL SUB MUL NOT AND SWAP1 DUP4 PUSH1 0x1 PUSH1 0x1 PUSH1 0xA0 SHL SUB AND MUL OR SWAP1 SSTORE POP DUP6 PUSH1 0x4 PUSH1 0x0 DUP6 DUP2 MSTORE PUSH1 0x20 ADD SWAP1 DUP2 MSTORE PUSH1 0x20 ADD PUSH1 0x0 KECCAK256 PUSH1 0x1 ADD PUSH1 0x0 PUSH2 0x100 EXP DUP2 SLOAD DUP2 PUSH1 0x1 PUSH1 0x1 PUSH1 0xA0 SHL SUB MUL NOT AND SWAP1 DUP4 PUSH1 0x1 PUSH1 0x1 PUSH1 0xA0 SHL SUB AND MUL OR SWAP1 SSTORE POP DUP5 PUSH1 0x4 PUSH1 0x0 DUP6 DUP2 MSTORE PUSH1 0x20 ADD SWAP1 DUP2 MSTORE PUSH1 0x20 ADD PUSH1 0x0 KECCAK256 PUSH1 0x2 ADD DUP2 SWAP1 SSTORE POP DUP4 PUSH1 0x4 PUSH1 0x0 DUP6 DUP2 MSTORE PUSH1 0x20 ADD SWAP1 DUP2 MSTORE PUSH1 0x20 ADD PUSH1 0x0 KECCAK256 PUSH1 0x3 ADD DUP2 SWAP1 SSTORE POP PUSH1 0x0 PUSH1 0x4 PUSH1 0x0 DUP6 DUP2 MSTORE PUSH1 0x20 ADD SWAP1 DUP2 MSTORE PUSH1 0x20 ADD PUSH1 0x0 KECCAK256 PUSH1 0x4 ADD PUSH1 0x0 PUSH2 0x100 EXP DUP2 SLOAD DUP2 PUSH1 0xFF MUL NOT AND SWAP1 DUP4 ISZERO ISZERO MUL OR SWAP1 SSTORE POP PUSH1 0x2 PUSH1 0x0 DUP9 PUSH1 0x1 PUSH1 0x1 PUSH1 0xA0 SHL SUB AND PUSH1 0x1 PUSH1 0x1 PUSH1 0xA0 SHL SUB AND DUP2 MSTORE PUSH1 0x20 ADD SWAP1 DUP2 MSTORE PUSH1 0x20 ADD PUSH1 0x0 KECCAK256 DUP4 SWAP1 DUP1 PUSH1 0x1 DUP2 SLOAD ADD DUP1 DUP3 SSTORE DUP1 SWAP2 POP POP PUSH1 0x1 SWAP1 SUB SWAP1 PUSH1 0x0 MSTORE PUSH1 0x20 PUSH1 0x0 KECCAK256 ADD PUSH1 0x0 SWAP1 SWAP2 SWAP1 SWAP2 SWAP1 SWAP2 POP SSTORE PUSH1 0x3 PUSH1 0x0 DUP8 PUSH1 0x1 PUSH1 0x1 PUSH1 0xA0 SHL SUB AND PUSH1 0x1 PUSH1 0x1 PUSH1 0xA0 SHL SUB AND DUP2 MSTORE PUSH1 0x20 ADD SWAP1 DUP2 MSTORE PUSH1 0x20 ADD PUSH1 0x0 KECCAK256 DUP4 SWAP1 DUP1 PUSH1 0x1 DUP2 SLOAD ADD DUP1 DUP3 SSTORE DUP1 SWAP2 POP POP PUSH1 0x1 SWAP1 SUB SWAP1 PUSH1 0x0 MSTORE PUSH1 0x20 PUSH1 0x0 KECCAK256 ADD PUSH1 0x0 SWAP1 SWAP2 SWAP1 SWAP2 SWAP1 SWAP2 POP SSTORE PUSH32 0x49EAF4942F1237055EB4CFA5F31C9DFE50D5B4ADE01E021F7DE8BE2FBBDE557B DUP8 DUP7 DUP6 PUSH1 0x40 MLOAD PUSH2 0xC92 SWAP4 SWAP3 SWAP2 SWAP1 PUSH1 0x1 PUSH1 0x1 PUSH1 0xA0 SHL SUB SWAP4 SWAP1 SWAP4 AND DUP4 MSTORE PUSH1 0x20 DUP4 ADD SWAP2 SWAP1 SWAP2 MSTORE PUSH1 0x40 DUP3 ADD MSTORE PUSH1 0x60 ADD SWAP1 JUMP JUMPDEST PUSH1 0x40 MLOAD DUP1 SWAP2 SUB SWAP1 LOG1 POP POP SWAP5 SWAP4 POP POP POP POP JUMP JUMPDEST PUSH1 0x1 PUSH1 0x1 PUSH1 0xA0 SHL SUB DUP2 AND PUSH1 0x0 SWAP1 DUP2 MSTORE PUSH1 0x2 PUSH1 0x20 SWAP1 DUP2 MSTORE PUSH1 0x40 SWAP2 DUP3 SWAP1 KECCAK256 DUP1 SLOAD DUP4 MLOAD DUP2 DUP5 MUL DUP2 ADD DUP5 ADD SWAP1 SWAP5 MSTORE DUP1 DUP5 MSTORE PUSH1 0x60 SWAP4 SWAP3 DUP4 ADD DUP3 DUP3 DUP1 ISZERO PUSH2 0x71F JUMPI PUSH1 0x20 MUL DUP3 ADD SWAP2 SWAP1 PUSH1 0x0 MSTORE PUSH1 0x20 PUSH1 0x0 KECCAK256 SWAP1 DUP2 SLOAD DUP2 MSTORE PUSH1 0x20 ADD SWAP1 PUSH1 0x1 ADD SWAP1 DUP1 DUP4 GT PUSH2 0x70B JUMPI POP POP POP POP POP SWAP1 POP SWAP2 SWAP1 POP JUMP JUMPDEST PUSH2 0xD16 PUSH2 0x1245 JUMP JUMPDEST PUSH1 0x8 DUP1 SLOAD PUSH1 0x1 PUSH1 0x1 PUSH1 0xA0 SHL SUB NOT AND PUSH1 0x1 PUSH1 0x1 PUSH1 0xA0 SHL SUB SWAP3 SWAP1 SWAP3 AND SWAP2 SWAP1 SWAP2 OR SWAP1 SSTORE JUMP JUMPDEST PUSH2 0xD40 PUSH2 0x1245 JUMP JUMPDEST PUSH1 0x7 SSTORE JUMP JUMPDEST PUSH2 0xD4D PUSH2 0x1245 JUMP JUMPDEST PUSH1 0x6 DUP1 SLOAD PUSH1 0x1 PUSH1 0x1 PUSH1 0xA0 SHL SUB NOT AND PUSH1 0x1 PUSH1 0x1 PUSH1 0xA0 SHL SUB SWAP3 SWAP1 SWAP3 AND SWAP2 SWAP1 SWAP2 OR SWAP1 SSTORE JUMP JUMPDEST PUSH1 0x0 DUP1 DUP4 GT PUSH2 0xDB8 JUMPI PUSH1 0x40 MLOAD PUSH3 0x461BCD PUSH1 0xE5 SHL DUP2 MSTORE PUSH1 0x20 PUSH1 0x4 DUP3 ADD MSTORE PUSH1 0x15 PUSH1 0x24 DUP3 ADD MSTORE PUSH21 0x546F6B656E20616D6F756E7420746F6F206C6F7721 PUSH1 0x58 SHL PUSH1 0x44 DUP3 ADD MSTORE PUSH1 0x64 ADD PUSH2 0x496 JUMP JUMPDEST PUSH5 0x2540BE400 DUP3 LT PUSH2 0xDDC JUMPI PUSH1 0x40 MLOAD PUSH3 0x461BCD PUSH1 0xE5 SHL DUP2 MSTORE PUSH1 0x4 ADD PUSH2 0x496 SWAP1 PUSH2 0x1457 JUMP JUMPDEST TIMESTAMP DUP3 GT PUSH2 0xDFB JUMPI PUSH1 0x40 MLOAD PUSH3 0x461BCD PUSH1 0xE5 SHL DUP2 MSTORE PUSH1 0x4 ADD PUSH2 0x496 SWAP1 PUSH2 0x149A JUMP JUMPDEST PUSH1 0x40 MLOAD PUSH4 0x6EB1769F PUSH1 0xE1 SHL DUP2 MSTORE CALLER PUSH1 0x4 DUP3 ADD MSTORE ADDRESS PUSH1 0x24 DUP3 ADD MSTORE DUP4 SWAP1 PUSH1 0x1 PUSH1 0x1 PUSH1 0xA0 SHL SUB DUP8 AND SWAP1 PUSH4 0xDD62ED3E SWAP1 PUSH1 0x44 ADD PUSH1 0x20 PUSH1 0x40 MLOAD DUP1 DUP4 SUB DUP2 DUP7 GAS STATICCALL ISZERO DUP1 ISZERO PUSH2 0xE47 JUMPI RETURNDATASIZE PUSH1 0x0 DUP1 RETURNDATACOPY RETURNDATASIZE PUSH1 0x0 REVERT JUMPDEST POP POP POP POP PUSH1 0x40 MLOAD RETURNDATASIZE PUSH1 0x1F NOT PUSH1 0x1F DUP3 ADD AND DUP3 ADD DUP1 PUSH1 0x40 MSTORE POP DUP2 ADD SWAP1 PUSH2 0xE6B SWAP2 SWAP1 PUSH2 0x14E0 JUMP JUMPDEST LT ISZERO PUSH2 0xEB1 JUMPI PUSH1 0x40 MLOAD PUSH3 0x461BCD PUSH1 0xE5 SHL DUP2 MSTORE PUSH1 0x20 PUSH1 0x4 DUP3 ADD MSTORE PUSH1 0x15 PUSH1 0x24 DUP3 ADD MSTORE PUSH21 0x417070726F766520746F6B656E7320666972737421 PUSH1 0x58 SHL PUSH1 0x44 DUP3 ADD MSTORE PUSH1 0x64 ADD PUSH2 0x496 JUMP JUMPDEST PUSH1 0x7 SLOAD PUSH1 0x6 SLOAD PUSH1 0x40 MLOAD PUSH4 0x70A08231 PUSH1 0xE0 SHL DUP2 MSTORE CALLER PUSH1 0x4 DUP3 ADD MSTORE PUSH1 0x1 PUSH1 0x1 PUSH1 0xA0 SHL SUB SWAP1 SWAP2 AND SWAP1 PUSH4 0x70A08231 SWAP1 PUSH1 0x24 ADD PUSH1 0x20 PUSH1 0x40 MLOAD DUP1 DUP4 SUB DUP2 DUP7 GAS STATICCALL ISZERO DUP1 ISZERO PUSH2 0xEFC JUMPI RETURNDATASIZE PUSH1 0x0 DUP1 RETURNDATACOPY RETURNDATASIZE PUSH1 0x0 REVERT JUMPDEST POP POP POP POP PUSH1 0x40 MLOAD RETURNDATASIZE PUSH1 0x1F NOT PUSH1 0x1F DUP3 ADD AND DUP3 ADD DUP1 PUSH1 0x40 MSTORE POP DUP2 ADD SWAP1 PUSH2 0xF20 SWAP2 SWAP1 PUSH2 0x14E0 JUMP JUMPDEST LT ISZERO PUSH2 0xF66 JUMPI PUSH1 0x40 MLOAD PUSH3 0x461BCD PUSH1 0xE5 SHL DUP2 MSTORE PUSH1 0x20 PUSH1 0x4 DUP3 ADD MSTORE PUSH1 0x15 PUSH1 0x24 DUP3 ADD MSTORE PUSH21 0x4E65656420746F20706179206C6F636B2066656521 PUSH1 0x58 SHL PUSH1 0x44 DUP3 ADD MSTORE PUSH1 0x64 ADD PUSH2 0x496 JUMP JUMPDEST PUSH1 0x40 MLOAD PUSH4 0x70A08231 PUSH1 0xE0 SHL DUP2 MSTORE ADDRESS PUSH1 0x4 DUP3 ADD MSTORE PUSH1 0x0 SWAP1 PUSH1 0x1 PUSH1 0x1 PUSH1 0xA0 SHL SUB DUP8 AND SWAP1 PUSH4 0x70A08231 SWAP1 PUSH1 0x24 ADD PUSH1 0x20 PUSH1 0x40 MLOAD DUP1 DUP4 SUB DUP2 DUP7 GAS STATICCALL ISZERO DUP1 ISZERO PUSH2 0xFAD JUMPI RETURNDATASIZE PUSH1 0x0 DUP1 RETURNDATACOPY RETURNDATASIZE PUSH1 0x0 REVERT JUMPDEST POP POP POP POP PUSH1 0x40 MLOAD RETURNDATASIZE PUSH1 0x1F NOT PUSH1 0x1F DUP3 ADD AND DUP3 ADD DUP1 PUSH1 0x40 MSTORE POP DUP2 ADD SWAP1 PUSH2 0xFD1 SWAP2 SWAP1 PUSH2 0x14E0 JUMP JUMPDEST PUSH1 0x40 MLOAD PUSH4 0x23B872DD PUSH1 0xE0 SHL DUP2 MSTORE CALLER PUSH1 0x4 DUP3 ADD MSTORE ADDRESS PUSH1 0x24 DUP3 ADD MSTORE PUSH1 0x44 DUP2 ADD DUP7 SWAP1 MSTORE SWAP1 SWAP2 POP PUSH1 0x1 PUSH1 0x1 PUSH1 0xA0 SHL SUB DUP8 AND SWAP1 PUSH4 0x23B872DD SWAP1 PUSH1 0x64 ADD PUSH1 0x20 PUSH1 0x40 MLOAD DUP1 DUP4 SUB DUP2 PUSH1 0x0 DUP8 GAS CALL ISZERO DUP1 ISZERO PUSH2 0x1027 JUMPI RETURNDATASIZE PUSH1 0x0 DUP1 RETURNDATACOPY RETURNDATASIZE PUSH1 0x0 REVERT JUMPDEST POP POP POP POP PUSH1 0x40 MLOAD RETURNDATASIZE PUSH1 0x1F NOT PUSH1 0x1F DUP3 ADD AND DUP3 ADD DUP1 PUSH1 0x40 MSTORE POP DUP2 ADD SWAP1 PUSH2 0x104B SWAP2 SWAP1 PUSH2 0x1435 JUMP JUMPDEST POP PUSH1 0x40 MLOAD PUSH4 0x70A08231 PUSH1 0xE0 SHL DUP2 MSTORE ADDRESS PUSH1 0x4 DUP3 ADD MSTORE PUSH1 0x0 SWAP1 PUSH1 0x1 PUSH1 0x1 PUSH1 0xA0 SHL SUB DUP9 AND SWAP1 PUSH4 0x70A08231 SWAP1 PUSH1 0x24 ADD PUSH1 0x20 PUSH1 0x40 MLOAD DUP1 DUP4 SUB DUP2 DUP7 GAS STATICCALL ISZERO DUP1 ISZERO PUSH2 0x1093 JUMPI RETURNDATASIZE PUSH1 0x0 DUP1 RETURNDATACOPY RETURNDATASIZE PUSH1 0x0 REVERT JUMPDEST POP POP POP POP PUSH1 0x40 MLOAD RETURNDATASIZE PUSH1 0x1F NOT PUSH1 0x1F DUP3 ADD AND DUP3 ADD DUP1 PUSH1 0x40 MSTORE POP DUP2 ADD SWAP1 PUSH2 0x10B7 SWAP2 SWAP1 PUSH2 0x14E0 JUMP JUMPDEST SWAP1 POP PUSH2 0x10C3 DUP2 DUP4 PUSH2 0x1232 JUMP JUMPDEST PUSH1 0x6 SLOAD PUSH1 0x8 SLOAD PUSH1 0x7 SLOAD PUSH1 0x40 MLOAD PUSH4 0x23B872DD PUSH1 0xE0 SHL DUP2 MSTORE CALLER PUSH1 0x4 DUP3 ADD MSTORE PUSH1 0x1 PUSH1 0x1 PUSH1 0xA0 SHL SUB SWAP3 DUP4 AND PUSH1 0x24 DUP3 ADD MSTORE PUSH1 0x44 DUP2 ADD SWAP2 SWAP1 SWAP2 MSTORE SWAP3 SWAP8 POP AND SWAP1 PUSH4 0x23B872DD SWAP1 PUSH1 0x64 ADD PUSH1 0x20 PUSH1 0x40 MLOAD DUP1 DUP4 SUB DUP2 PUSH1 0x0 DUP8 GAS CALL ISZERO DUP1 ISZERO PUSH2 0x1124 JUMPI RETURNDATASIZE PUSH1 0x0 DUP1 RETURNDATACOPY RETURNDATASIZE PUSH1 0x0 REVERT JUMPDEST POP POP POP POP PUSH1 0x40 MLOAD RETURNDATASIZE PUSH1 0x1F NOT PUSH1 0x1F DUP3 ADD AND DUP3 ADD DUP1 PUSH1 0x40 MSTORE POP DUP2 ADD SWAP1 PUSH2 0xA62 SWAP2 SWAP1 PUSH2 0x1435 JUMP JUMPDEST PUSH1 0x40 MLOAD PUSH4 0x70A08231 PUSH1 0xE0 SHL DUP2 MSTORE ADDRESS PUSH1 0x4 DUP3 ADD MSTORE PUSH1 0x0 SWAP1 PUSH1 0x1 PUSH1 0x1 PUSH1 0xA0 SHL SUB DUP4 AND SWAP1 PUSH4 0x70A08231 SWAP1 PUSH1 0x24 ADD PUSH1 0x20 PUSH1 0x40 MLOAD DUP1 DUP4 SUB DUP2 DUP7 GAS STATICCALL ISZERO DUP1 ISZERO PUSH2 0x118F JUMPI RETURNDATASIZE PUSH1 0x0 DUP1 RETURNDATACOPY RETURNDATASIZE PUSH1 0x0 REVERT JUMPDEST POP POP POP POP PUSH1 0x40 MLOAD RETURNDATASIZE PUSH1 0x1F NOT PUSH1 0x1F DUP3 ADD AND DUP3 ADD DUP1 PUSH1 0x40 MSTORE POP DUP2 ADD SWAP1 PUSH2 0x11B3 SWAP2 SWAP1 PUSH2 0x14E0 JUMP JUMPDEST SWAP3 SWAP2 POP POP JUMP JUMPDEST PUSH2 0x11C1 PUSH2 0x1245 JUMP JUMPDEST PUSH1 0x1 PUSH1 0x1 PUSH1 0xA0 SHL SUB DUP2 AND PUSH2 0x1226 JUMPI PUSH1 0x40 MLOAD PUSH3 0x461BCD PUSH1 0xE5 SHL DUP2 MSTORE PUSH1 0x20 PUSH1 0x4 DUP3 ADD MSTORE PUSH1 0x26 PUSH1 0x24 DUP3 ADD MSTORE PUSH32 0x4F776E61626C653A206E6577206F776E657220697320746865207A65726F2061 PUSH1 0x44 DUP3 ADD MSTORE PUSH6 0x646472657373 PUSH1 0xD0 SHL PUSH1 0x64 DUP3 ADD MSTORE PUSH1 0x84 ADD PUSH2 0x496 JUMP JUMPDEST PUSH2 0x122F DUP2 PUSH2 0x129F JUMP JUMPDEST POP JUMP JUMPDEST PUSH1 0x0 PUSH2 0x123E DUP3 DUP5 PUSH2 0x152A JUMP JUMPDEST SWAP4 SWAP3 POP POP POP JUMP JUMPDEST PUSH1 0x0 SLOAD PUSH1 0x1 PUSH1 0x1 PUSH1 0xA0 SHL SUB AND CALLER EQ PUSH2 0x73D JUMPI PUSH1 0x40 MLOAD PUSH3 0x461BCD PUSH1 0xE5 SHL DUP2 MSTORE PUSH1 0x20 PUSH1 0x4 DUP3 ADD DUP2 SWAP1 MSTORE PUSH1 0x24 DUP3 ADD MSTORE PUSH32 0x4F776E61626C653A2063616C6C6572206973206E6F7420746865206F776E6572 PUSH1 0x44 DUP3 ADD MSTORE PUSH1 0x64 ADD PUSH2 0x496 JUMP JUMPDEST PUSH1 0x0 DUP1 SLOAD PUSH1 0x1 PUSH1 0x1 PUSH1 0xA0 SHL SUB DUP4 DUP2 AND PUSH1 0x1 PUSH1 0x1 PUSH1 0xA0 SHL SUB NOT DUP4 AND DUP2 OR DUP5 SSTORE PUSH1 0x40 MLOAD SWAP2 SWAP1 SWAP3 AND SWAP3 DUP4 SWAP2 PUSH32 0x8BE0079C531659141344CD1FD0A4F28419497F9722A3DAAFE3B4186F6B6457E0 SWAP2 SWAP1 LOG3 POP POP JUMP JUMPDEST PUSH1 0x0 PUSH2 0x123E DUP3 DUP5 PUSH2 0x1541 JUMP JUMPDEST PUSH1 0x1 PUSH1 0x1 PUSH1 0xA0 SHL SUB DUP2 AND DUP2 EQ PUSH2 0x122F JUMPI PUSH1 0x0 DUP1 REVERT JUMPDEST PUSH1 0x0 DUP1 PUSH1 0x40 DUP4 DUP6 SUB SLT ISZERO PUSH2 0x1323 JUMPI PUSH1 0x0 DUP1 REVERT JUMPDEST DUP3 CALLDATALOAD PUSH2 0x132E DUP2 PUSH2 0x12FB JUMP JUMPDEST SWAP5 PUSH1 0x20 SWAP4 SWAP1 SWAP4 ADD CALLDATALOAD SWAP4 POP POP POP JUMP JUMPDEST PUSH1 0x0 PUSH1 0x20 DUP3 DUP5 SUB SLT ISZERO PUSH2 0x134E JUMPI PUSH1 0x0 DUP1 REVERT JUMPDEST POP CALLDATALOAD SWAP2 SWAP1 POP JUMP JUMPDEST PUSH1 0x0 PUSH1 0x20 DUP3 DUP5 SUB SLT ISZERO PUSH2 0x1367 JUMPI PUSH1 0x0 DUP1 REVERT JUMPDEST DUP2 CALLDATALOAD PUSH2 0x123E DUP2 PUSH2 0x12FB JUMP JUMPDEST PUSH1 0x20 DUP1 DUP3 MSTORE DUP3 MLOAD DUP3 DUP3 ADD DUP2 SWAP1 MSTORE PUSH1 0x0 SWAP2 SWAP1 DUP5 DUP3 ADD SWAP1 PUSH1 0x40 DUP6 ADD SWAP1 DUP5 JUMPDEST DUP2 DUP2 LT ISZERO PUSH2 0x13AA JUMPI DUP4 MLOAD DUP4 MSTORE SWAP3 DUP5 ADD SWAP3 SWAP2 DUP5 ADD SWAP2 PUSH1 0x1 ADD PUSH2 0x138E JUMP JUMPDEST POP SWAP1 SWAP7 SWAP6 POP POP POP POP POP POP JUMP JUMPDEST PUSH1 0x0 DUP1 PUSH1 0x0 DUP1 PUSH1 0x80 DUP6 DUP8 SUB SLT ISZERO PUSH2 0x13CC JUMPI PUSH1 0x0 DUP1 REVERT JUMPDEST DUP5 CALLDATALOAD PUSH2 0x13D7 DUP2 PUSH2 0x12FB JUMP JUMPDEST SWAP4 POP PUSH1 0x20 DUP6 ADD CALLDATALOAD PUSH2 0x13E7 DUP2 PUSH2 0x12FB JUMP JUMPDEST SWAP4 SWAP7 SWAP4 SWAP6 POP POP POP POP PUSH1 0x40 DUP3 ADD CALLDATALOAD SWAP2 PUSH1 0x60 ADD CALLDATALOAD SWAP1 JUMP JUMPDEST PUSH1 0x0 DUP1 PUSH1 0x40 DUP4 DUP6 SUB SLT ISZERO PUSH2 0x140F JUMPI PUSH1 0x0 DUP1 REVERT JUMPDEST DUP3 CALLDATALOAD PUSH2 0x141A DUP2 PUSH2 0x12FB JUMP JUMPDEST SWAP2 POP PUSH1 0x20 DUP4 ADD CALLDATALOAD PUSH2 0x142A DUP2 PUSH2 0x12FB JUMP JUMPDEST DUP1 SWAP2 POP POP SWAP3 POP SWAP3 SWAP1 POP JUMP JUMPDEST PUSH1 0x0 PUSH1 0x20 DUP3 DUP5 SUB SLT ISZERO PUSH2 0x1447 JUMPI PUSH1 0x0 DUP1 REVERT JUMPDEST DUP2 MLOAD DUP1 ISZERO ISZERO DUP2 EQ PUSH2 0x123E JUMPI PUSH1 0x0 DUP1 REVERT JUMPDEST PUSH1 0x20 DUP1 DUP3 MSTORE PUSH1 0x23 SWAP1 DUP3 ADD MSTORE PUSH32 0x556E6C6F636B2074696D657374616D70206973206E6F7420696E207365636F6E PUSH1 0x40 DUP3 ADD MSTORE PUSH3 0x647321 PUSH1 0xE8 SHL PUSH1 0x60 DUP3 ADD MSTORE PUSH1 0x80 ADD SWAP1 JUMP JUMPDEST PUSH1 0x20 DUP1 DUP3 MSTORE PUSH1 0x26 SWAP1 DUP3 ADD MSTORE PUSH32 0x556E6C6F636B2074696D657374616D70206973206E6F7420696E207468652066 PUSH1 0x40 DUP3 ADD MSTORE PUSH6 0x757475726521 PUSH1 0xD0 SHL PUSH1 0x60 DUP3 ADD MSTORE PUSH1 0x80 ADD SWAP1 JUMP JUMPDEST PUSH1 0x0 PUSH1 0x20 DUP3 DUP5 SUB SLT ISZERO PUSH2 0x14F2 JUMPI PUSH1 0x0 DUP1 REVERT JUMPDEST POP MLOAD SWAP2 SWAP1 POP JUMP JUMPDEST PUSH4 0x4E487B71 PUSH1 0xE0 SHL PUSH1 0x0 MSTORE PUSH1 0x11 PUSH1 0x4 MSTORE PUSH1 0x24 PUSH1 0x0 REVERT JUMPDEST PUSH1 0x0 PUSH1 0x0 NOT DUP3 EQ ISZERO PUSH2 0x1523 JUMPI PUSH2 0x1523 PUSH2 0x14F9 JUMP JUMPDEST POP PUSH1 0x1 ADD SWAP1 JUMP JUMPDEST PUSH1 0x0 DUP3 DUP3 LT ISZERO PUSH2 0x153C JUMPI PUSH2 0x153C PUSH2 0x14F9 JUMP JUMPDEST POP SUB SWAP1 JUMP JUMPDEST PUSH1 0x0 DUP3 NOT DUP3 GT ISZERO PUSH2 0x1554 JUMPI PUSH2 0x1554 PUSH2 0x14F9 JUMP JUMPDEST POP ADD SWAP1 JUMP INVALID LOG2 PUSH5 0x6970667358 0x22 SLT KECCAK256 COINBASE SELFDESTRUCT LOG3 SWAP8 PUSH32 0xA7B359B32D9C8253C0C276C859AF588B4CEEEDD1C8E13B51E4B1ED64736F6C63 NUMBER STOP ADDMOD 0xC STOP CALLER "
				},
				"gasEstimates": {
					"creation": {
						"codeDepositCost": "1103800",
						"executionCost": "97565",
						"totalCost": "1201365"
					},
					"external": {
						"SolToken()": "2447",
						"depositsByWithdrawer(address,uint256)": "4751",
						"depositsCount()": "2352",
						"getDepositsByTokenAddress(address)": "infinite",
						"getDepositsByWithdrawer(address)": "infinite",
						"getTokenTotalLockedBalance(address)": "infinite",
						"lockFee()": "2307",
						"lockTokens(address,address,uint256,uint256)": "infinite",
						"lockTokensByBaseSwap(address,address,uint256,uint256)": "infinite",
						"lockedToken(uint256)": "11117",
						"marketingAddress()": "2426",
						"owner()": "2431",
						"renounceOwnership()": "infinite",
						"setBaseSwapToken(address)": "26796",
						"setLockFee(uint256)": "24533",
						"setMarketingAddress(address)": "26752",
						"transferOwnership(address)": "infinite",
						"walletTokenBalance(address,address)": "infinite",
						"withdrawTokens(uint256)": "infinite"
					}
				},
				"methodIdentifiers": {
					"SolToken()": "f63a3056",
					"depositsByWithdrawer(address,uint256)": "23c4a921",
					"depositsCount()": "4506e935",
					"getDepositsByTokenAddress(address)": "86f65a22",
					"getDepositsByWithdrawer(address)": "469d86e2",
					"getTokenTotalLockedBalance(address)": "b78a1532",
					"lockFee()": "56a06235",
					"lockTokens(address,address,uint256,uint256)": "7d533c1e",
					"lockTokensByBaseSwap(address,address,uint256,uint256)": "b14520e6",
					"lockedToken(uint256)": "bb941cff",
					"marketingAddress()": "a5ece941",
					"owner()": "8da5cb5b",
					"renounceOwnership()": "715018a6",
					"setBaseSwapToken(address)": "a36d46a7",
					"setLockFee(uint256)": "9f7260bd",
					"setMarketingAddress(address)": "906e9dd0",
					"transferOwnership(address)": "f2fde38b",
					"walletTokenBalance(address,address)": "b9e7df1c",
					"withdrawTokens(uint256)": "315a095d"
				}
			},
			"storageLayout": {
				"storage": [
					{
						"astId": 408,
						"contract": "contracts/baseswaplocker.sol:SollpLocker",
						"label": "_owner",
						"offset": 0,
						"slot": "0",
						"type": "t_address"
					},
					{
						"astId": 532,
						"contract": "contracts/baseswaplocker.sol:SollpLocker",
						"label": "depositsCount",
						"offset": 0,
						"slot": "1",
						"type": "t_uint256"
					},
					{
						"astId": 537,
						"contract": "contracts/baseswaplocker.sol:SollpLocker",
						"label": "depositsByTokenAddress",
						"offset": 0,
						"slot": "2",
						"type": "t_mapping(t_address,t_array(t_uint256)dyn_storage)"
					},
					{
						"astId": 542,
						"contract": "contracts/baseswaplocker.sol:SollpLocker",
						"label": "depositsByWithdrawer",
						"offset": 0,
						"slot": "3",
						"type": "t_mapping(t_address,t_array(t_uint256)dyn_storage)"
					},
					{
						"astId": 547,
						"contract": "contracts/baseswaplocker.sol:SollpLocker",
						"label": "lockedToken",
						"offset": 0,
						"slot": "4",
						"type": "t_mapping(t_uint256,t_struct(Items)530_storage)"
					},
					{
						"astId": 553,
						"contract": "contracts/baseswaplocker.sol:SollpLocker",
						"label": "walletTokenBalance",
						"offset": 0,
						"slot": "5",
						"type": "t_mapping(t_address,t_mapping(t_address,t_uint256))"
					},
					{
						"astId": 559,
						"contract": "contracts/baseswaplocker.sol:SollpLocker",
						"label": "SolToken",
						"offset": 0,
						"slot": "6",
						"type": "t_contract(IERC20)76"
					},
					{
						"astId": 562,
						"contract": "contracts/baseswaplocker.sol:SollpLocker",
						"label": "lockFee",
						"offset": 0,
						"slot": "7",
						"type": "t_uint256"
					},
					{
						"astId": 564,
						"contract": "contracts/baseswaplocker.sol:SollpLocker",
						"label": "marketingAddress",
						"offset": 0,
						"slot": "8",
						"type": "t_address"
					}
				],
				"types": {
					"t_address": {
						"encoding": "inplace",
						"label": "address",
						"numberOfBytes": "20"
					},
					"t_array(t_uint256)dyn_storage": {
						"base": "t_uint256",
						"encoding": "dynamic_array",
						"label": "uint256[]",
						"numberOfBytes": "32"
					},
					"t_bool": {
						"encoding": "inplace",
						"label": "bool",
						"numberOfBytes": "1"
					},
					"t_contract(IERC20)76": {
						"encoding": "inplace",
						"label": "contract IERC20",
						"numberOfBytes": "20"
					},
					"t_mapping(t_address,t_array(t_uint256)dyn_storage)": {
						"encoding": "mapping",
						"key": "t_address",
						"label": "mapping(address => uint256[])",
						"numberOfBytes": "32",
						"value": "t_array(t_uint256)dyn_storage"
					},
					"t_mapping(t_address,t_mapping(t_address,t_uint256))": {
						"encoding": "mapping",
						"key": "t_address",
						"label": "mapping(address => mapping(address => uint256))",
						"numberOfBytes": "32",
						"value": "t_mapping(t_address,t_uint256)"
					},
					"t_mapping(t_address,t_uint256)": {
						"encoding": "mapping",
						"key": "t_address",
						"label": "mapping(address => uint256)",
						"numberOfBytes": "32",
						"value": "t_uint256"
					},
					"t_mapping(t_uint256,t_struct(Items)530_storage)": {
						"encoding": "mapping",
						"key": "t_uint256",
						"label": "mapping(uint256 => struct SollpLocker.Items)",
						"numberOfBytes": "32",
						"value": "t_struct(Items)530_storage"
					},
					"t_struct(Items)530_storage": {
						"encoding": "inplace",
						"label": "struct SollpLocker.Items",
						"members": [
							{
								"astId": 521,
								"contract": "contracts/baseswaplocker.sol:SollpLocker",
								"label": "token",
								"offset": 0,
								"slot": "0",
								"type": "t_contract(IERC20)76"
							},
							{
								"astId": 523,
								"contract": "contracts/baseswaplocker.sol:SollpLocker",
								"label": "withdrawer",
								"offset": 0,
								"slot": "1",
								"type": "t_address"
							},
							{
								"astId": 525,
								"contract": "contracts/baseswaplocker.sol:SollpLocker",
								"label": "amount",
								"offset": 0,
								"slot": "2",
								"type": "t_uint256"
							},
							{
								"astId": 527,
								"contract": "contracts/baseswaplocker.sol:SollpLocker",
								"label": "unlockTimestamp",
								"offset": 0,
								"slot": "3",
								"type": "t_uint256"
							},
							{
								"astId": 529,
								"contract": "contracts/baseswaplocker.sol:SollpLocker",
								"label": "withdrawn",
								"offset": 0,
								"slot": "4",
								"type": "t_bool"
							}
						],
						"numberOfBytes": "160"
					},
					"t_uint256": {
						"encoding": "inplace",
						"label": "uint256",
						"numberOfBytes": "32"
					}
				}
			},
			"userdoc": {
				"kind": "user",
				"methods": {},
				"version": 1
			}
		}
	}
}