{
	"contracts/babyshib.sol": {
		"BabyShibaInu": {
			"abi": [
				{
					"inputs": [],
					"stateMutability": "nonpayable",
					"type": "constructor"
				},
				{
					"anonymous": false,
					"inputs": [
						{
							"indexed": true,
							"internalType": "address",
							"name": "owner",
							"type": "address"
						},
						{
							"indexed": true,
							"internalType": "address",
							"name": "spender",
							"type": "address"
						},
						{
							"indexed": false,
							"internalType": "uint256",
							"name": "value",
							"type": "uint256"
						}
					],
					"name": "Approval",
					"type": "event"
				},
				{
					"anonymous": false,
					"inputs": [
						{
							"indexed": true,
							"internalType": "address",
							"name": "previousOwner",
							"type": "address"
						},
						{
							"indexed": true,
							"internalType": "address",
							"name": "newOwner",
							"type": "address"
						}
					],
					"name": "OwnershipTransferred",
					"type": "event"
				},
				{
					"anonymous": false,
					"inputs": [
						{
							"indexed": true,
							"internalType": "address",
							"name": "from",
							"type": "address"
						},
						{
							"indexed": true,
							"internalType": "address",
							"name": "to",
							"type": "address"
						},
						{
							"indexed": false,
							"internalType": "uint256",
							"name": "value",
							"type": "uint256"
						}
					],
					"name": "Transfer",
					"type": "event"
				},
				{
					"inputs": [
						{
							"internalType": "address",
							"name": "_address",
							"type": "address"
						}
					],
					"name": "AddExemptFee",
					"outputs": [],
					"stateMutability": "nonpayable",
					"type": "function"
				},
				{
					"inputs": [
						{
							"internalType": "address[]",
							"name": "accounts",
							"type": "address[]"
						}
					],
					"name": "AddbulkExemptFee",
					"outputs": [],
					"stateMutability": "nonpayable",
					"type": "function"
				},
				{
					"inputs": [
						{
							"internalType": "address",
							"name": "_address",
							"type": "address"
						}
					],
					"name": "RemoveExemptFee",
					"outputs": [],
					"stateMutability": "nonpayable",
					"type": "function"
				},
				{
					"inputs": [
						{
							"internalType": "address[]",
							"name": "accounts",
							"type": "address[]"
						}
					],
					"name": "RemovebulkExemptFee",
					"outputs": [],
					"stateMutability": "nonpayable",
					"type": "function"
				},
				{
					"inputs": [
						{
							"internalType": "uint256",
							"name": "_marketing",
							"type": "uint256"
						},
						{
							"internalType": "uint256",
							"name": "_liquidity",
							"type": "uint256"
						}
					],
					"name": "SetSellTaxes",
					"outputs": [],
					"stateMutability": "nonpayable",
					"type": "function"
				},
				{
					"inputs": [
						{
							"internalType": "uint256",
							"name": "_marketing",
							"type": "uint256"
						},
						{
							"internalType": "uint256",
							"name": "_liquidity",
							"type": "uint256"
						}
					],
					"name": "UpdateBuyTaxes",
					"outputs": [],
					"stateMutability": "nonpayable",
					"type": "function"
				},
				{
					"inputs": [
						{
							"internalType": "address",
							"name": "owner",
							"type": "address"
						},
						{
							"internalType": "address",
							"name": "spender",
							"type": "address"
						}
					],
					"name": "allowance",
					"outputs": [
						{
							"internalType": "uint256",
							"name": "",
							"type": "uint256"
						}
					],
					"stateMutability": "view",
					"type": "function"
				},
				{
					"inputs": [
						{
							"internalType": "address",
							"name": "spender",
							"type": "address"
						},
						{
							"internalType": "uint256",
							"name": "amount",
							"type": "uint256"
						}
					],
					"name": "approve",
					"outputs": [
						{
							"internalType": "bool",
							"name": "",
							"type": "bool"
						}
					],
					"stateMutability": "nonpayable",
					"type": "function"
				},
				{
					"inputs": [
						{
							"internalType": "address",
							"name": "account",
							"type": "address"
						}
					],
					"name": "balanceOf",
					"outputs": [
						{
							"internalType": "uint256",
							"name": "",
							"type": "uint256"
						}
					],
					"stateMutability": "view",
					"type": "function"
				},
				{
					"inputs": [
						{
							"internalType": "address[]",
							"name": "accounts",
							"type": "address[]"
						},
						{
							"internalType": "bool",
							"name": "state",
							"type": "bool"
						}
					],
					"name": "bulkIsEarlyBuyer",
					"outputs": [],
					"stateMutability": "nonpayable",
					"type": "function"
				},
				{
					"inputs": [],
					"name": "deadWallet",
					"outputs": [
						{
							"internalType": "address",
							"name": "",
							"type": "address"
						}
					],
					"stateMutability": "view",
					"type": "function"
				},
				{
					"inputs": [],
					"name": "decimals",
					"outputs": [
						{
							"internalType": "uint8",
							"name": "",
							"type": "uint8"
						}
					],
					"stateMutability": "view",
					"type": "function"
				},
				{
					"inputs": [
						{
							"internalType": "address",
							"name": "spender",
							"type": "address"
						},
						{
							"internalType": "uint256",
							"name": "subtractedValue",
							"type": "uint256"
						}
					],
					"name": "decreaseAllowance",
					"outputs": [
						{
							"internalType": "bool",
							"name": "",
							"type": "bool"
						}
					],
					"stateMutability": "nonpayable",
					"type": "function"
				},
				{
					"inputs": [],
					"name": "enableTrading",
					"outputs": [],
					"stateMutability": "nonpayable",
					"type": "function"
				},
				{
					"inputs": [
						{
							"internalType": "address",
							"name": "",
							"type": "address"
						}
					],
					"name": "exemptFee",
					"outputs": [
						{
							"internalType": "bool",
							"name": "",
							"type": "bool"
						}
					],
					"stateMutability": "view",
					"type": "function"
				},
				{
					"inputs": [
						{
							"internalType": "address",
							"name": "spender",
							"type": "address"
						},
						{
							"internalType": "uint256",
							"name": "addedValue",
							"type": "uint256"
						}
					],
					"name": "increaseAllowance",
					"outputs": [
						{
							"internalType": "bool",
							"name": "",
							"type": "bool"
						}
					],
					"stateMutability": "nonpayable",
					"type": "function"
				},
				{
					"inputs": [],
					"name": "maxWalletLimit",
					"outputs": [
						{
							"internalType": "uint256",
							"name": "",
							"type": "uint256"
						}
					],
					"stateMutability": "view",
					"type": "function"
				},
				{
					"inputs": [],
					"name": "name",
					"outputs": [
						{
							"internalType": "string",
							"name": "",
							"type": "string"
						}
					],
					"stateMutability": "view",
					"type": "function"
				},
				{
					"inputs": [],
					"name": "owner",
					"outputs": [
						{
							"internalType": "address",
							"name": "",
							"type": "address"
						}
					],
					"stateMutability": "view",
					"type": "function"
				},
				{
					"inputs": [],
					"name": "pair",
					"outputs": [
						{
							"internalType": "address",
							"name": "",
							"type": "address"
						}
					],
					"stateMutability": "view",
					"type": "function"
				},
				{
					"inputs": [],
					"name": "renounceOwnership",
					"outputs": [],
					"stateMutability": "nonpayable",
					"type": "function"
				},
				{
					"inputs": [
						{
							"internalType": "address",
							"name": "tokenAdd",
							"type": "address"
						},
						{
							"internalType": "uint256",
							"name": "amount",
							"type": "uint256"
						}
					],
					"name": "rescueERC20",
					"outputs": [],
					"stateMutability": "nonpayable",
					"type": "function"
				},
				{
					"inputs": [
						{
							"internalType": "uint256",
							"name": "weiAmount",
							"type": "uint256"
						}
					],
					"name": "rescueETH",
					"outputs": [],
					"stateMutability": "nonpayable",
					"type": "function"
				},
				{
					"inputs": [],
					"name": "router",
					"outputs": [
						{
							"internalType": "contract IRouter",
							"name": "",
							"type": "address"
						}
					],
					"stateMutability": "view",
					"type": "function"
				},
				{
					"inputs": [],
					"name": "sellTaxes",
					"outputs": [
						{
							"internalType": "uint256",
							"name": "marketing",
							"type": "uint256"
						},
						{
							"internalType": "uint256",
							"name": "liquidity",
							"type": "uint256"
						}
					],
					"stateMutability": "view",
					"type": "function"
				},
				{
					"inputs": [],
					"name": "symbol",
					"outputs": [
						{
							"internalType": "string",
							"name": "",
							"type": "string"
						}
					],
					"stateMutability": "view",
					"type": "function"
				},
				{
					"inputs": [],
					"name": "taxes",
					"outputs": [
						{
							"internalType": "uint256",
							"name": "marketing",
							"type": "uint256"
						},
						{
							"internalType": "uint256",
							"name": "liquidity",
							"type": "uint256"
						}
					],
					"stateMutability": "view",
					"type": "function"
				},
				{
					"inputs": [],
					"name": "totalSupply",
					"outputs": [
						{
							"internalType": "uint256",
							"name": "",
							"type": "uint256"
						}
					],
					"stateMutability": "view",
					"type": "function"
				},
				{
					"inputs": [],
					"name": "tradingEnabled",
					"outputs": [
						{
							"internalType": "bool",
							"name": "",
							"type": "bool"
						}
					],
					"stateMutability": "view",
					"type": "function"
				},
				{
					"inputs": [
						{
							"internalType": "address",
							"name": "recipient",
							"type": "address"
						},
						{
							"internalType": "uint256",
							"name": "amount",
							"type": "uint256"
						}
					],
					"name": "transfer",
					"outputs": [
						{
							"internalType": "bool",
							"name": "",
							"type": "bool"
						}
					],
					"stateMutability": "nonpayable",
					"type": "function"
				},
				{
					"inputs": [
						{
							"internalType": "address",
							"name": "sender",
							"type": "address"
						},
						{
							"internalType": "address",
							"name": "recipient",
							"type": "address"
						},
						{
							"internalType": "uint256",
							"name": "amount",
							"type": "uint256"
						}
					],
					"name": "transferFrom",
					"outputs": [
						{
							"internalType": "bool",
							"name": "",
							"type": "bool"
						}
					],
					"stateMutability": "nonpayable",
					"type": "function"
				},
				{
					"inputs": [
						{
							"internalType": "address",
							"name": "newOwner",
							"type": "address"
						}
					],
					"name": "transferOwnership",
					"outputs": [],
					"stateMutability": "nonpayable",
					"type": "function"
				},
				{
					"inputs": [
						{
							"internalType": "address",
							"name": "account",
							"type": "address"
						},
						{
							"internalType": "bool",
							"name": "state",
							"type": "bool"
						}
					],
					"name": "updateIsEarlyBuyer",
					"outputs": [],
					"stateMutability": "nonpayable",
					"type": "function"
				},
				{
					"inputs": [
						{
							"internalType": "bool",
							"name": "state",
							"type": "bool"
						}
					],
					"name": "updateLiquidityProvide",
					"outputs": [],
					"stateMutability": "nonpayable",
					"type": "function"
				},
				{
					"inputs": [
						{
							"internalType": "uint256",
							"name": "new_amount",
							"type": "uint256"
						}
					],
					"name": "updateLiquidityTreshhold",
					"outputs": [],
					"stateMutability": "nonpayable",
					"type": "function"
				},
				{
					"inputs": [
						{
							"internalType": "address",
							"name": "newWallet",
							"type": "address"
						}
					],
					"name": "updateMarketingWallet",
					"outputs": [],
					"stateMutability": "nonpayable",
					"type": "function"
				},
				{
					"inputs": [
						{
							"internalType": "uint256",
							"name": "maxWallet",
							"type": "uint256"
						}
					],
					"name": "updateMaxWalletLimit",
					"outputs": [],
					"stateMutability": "nonpayable",
					"type": "function"
				},
				{
					"inputs": [
						{
							"internalType": "uint256",
							"name": "_deadline",
							"type": "uint256"
						}
					],
					"name": "updatedeadline",
					"outputs": [],
					"stateMutability": "nonpayable",
					"type": "function"
				},
				{
					"stateMutability": "payable",
					"type": "receive"
				}
			],
			"devdoc": {
				"kind": "dev",
				"methods": {
					"decimals()": {
						"details": "Returns the decimals places of the token."
					},
					"name()": {
						"details": "Returns the name of the token."
					},
					"symbol()": {
						"details": "Returns the symbol of the token."
					}
				},
				"version": 1
			},
			"evm": {
				"assembly": "    /* \"contracts/babyshib.sol\":8858:8894  bool private _liquidityMutex = false */\n  0x07\n  dup1\n  sload\n  not(shl(0xa0, 0xffffff))\n    /* \"contracts/babyshib.sol\":8948:8982  bool public tradingEnabled = false */\n  and\n  swap1\n  sstore\n    /* \"contracts/babyshib.sol\":9034:9050  3360000 * 10**18 */\n  0x02c781f708c509f4000000\n    /* \"contracts/babyshib.sol\":8991:9050  uint256 private  tokenLiquidityThreshold = 3360000 * 10**18 */\n  0x08\n  sstore\n    /* \"contracts/babyshib.sol\":9089:9105  4200000 * 10**18 */\n  0x03796274caf64c71000000\n    /* \"contracts/babyshib.sol\":9057:9105  uint256 public maxWalletLimit = 4200000 * 10**18 */\n  0x09\n  sstore\n    /* \"contracts/babyshib.sol\":8858:8894  bool private _liquidityMutex = false */\n  0x01\n    /* \"contracts/babyshib.sol\":9151:9179  uint256 private deadline = 1 */\n  0x0b\n  sstore\n    /* \"contracts/babyshib.sol\":9214:9216  95 */\n  0x5f\n    /* \"contracts/babyshib.sol\":9186:9216  uint256 private launchtax = 95 */\n  0x0c\n  dup2\n  swap1\n  sstore\n    /* \"contracts/babyshib.sol\":9225:9302  address private  marketingWallet = 0x12BB78886e28266A8025532285a75810eA20fDc1 */\n  0x0d\n  dup1\n  sload\n  not(sub(shl(0xa0, 0x01), 0x01))\n  and\n    /* \"contracts/babyshib.sol\":9260:9302  0x12BB78886e28266A8025532285a75810eA20fDc1 */\n  0x12bb78886e28266a8025532285a75810ea20fdc1\n    /* \"contracts/babyshib.sol\":9225:9302  address private  marketingWallet = 0x12BB78886e28266A8025532285a75810eA20fDc1 */\n  or\n  swap1\n  sstore\n    /* \"contracts/babyshib.sol\":8858:8894  bool private _liquidityMutex = false */\n  0x14\n    /* \"contracts/babyshib.sol\":8713:19754  contract BabyShibaInu is ERC20, Ownable {... */\n  0x80\n    /* \"contracts/babyshib.sol\":9500:9512  Taxes(20, 0) */\n  dup2\n  swap1\n  mstore\n    /* \"contracts/babyshib.sol\":8889:8894  false */\n  0x00\n    /* \"contracts/babyshib.sol\":9500:9512  Taxes(20, 0) */\n  0xa0\n  dup2\n  swap1\n  mstore\n    /* \"contracts/babyshib.sol\":9479:9512  Taxes public taxes = Taxes(20, 0) */\n  0x0e\n  swap2\n  swap1\n  swap2\n  sstore\n  0x0f\n  dup2\n  swap1\n  sstore\n    /* \"contracts/babyshib.sol\":8858:8894  bool private _liquidityMutex = false */\n  0x0100\n    /* \"contracts/babyshib.sol\":8713:19754  contract BabyShibaInu is ERC20, Ownable {... */\n  0x40\n    /* \"contracts/babyshib.sol\":9544:9556  Taxes(95, 0) */\n  mstore\n    /* \"contracts/babyshib.sol\":9500:9512  Taxes(20, 0) */\n  0xc0\n    /* \"contracts/babyshib.sol\":9544:9556  Taxes(95, 0) */\n  dup3\n  swap1\n  mstore\n  0xe0\n  dup2\n  swap1\n  mstore\n    /* \"contracts/babyshib.sol\":9519:9556  Taxes public sellTaxes = Taxes(95, 0) */\n  0x10\n  swap2\n  swap1\n  swap2\n  sstore\n  0x11\n  sstore\n    /* \"contracts/babyshib.sol\":9841:10547  constructor() ERC20(\"Baby Shiba Inu\", \"BABYSHIB\") {... */\n  callvalue\n  dup1\n  iszero\n  tag_1\n  jumpi\n  0x00\n  dup1\n  revert\ntag_1:\n  pop\n    /* \"contracts/babyshib.sol\":2514:2630  constructor(string memory name_, string memory symbol_) {... */\n  mload(0x40)\n  dup1\n  0x40\n  add\n  0x40\n  mstore\n  dup1\n  0x0e\n  dup2\n  mstore\n  0x20\n  add\n  shl(0x90, 0x4261627920536869626120496e75)\n  dup2\n  mstore\n  pop\n  mload(0x40)\n  dup1\n  0x40\n  add\n  0x40\n  mstore\n  dup1\n  0x08\n  dup2\n  mstore\n  0x20\n  add\n  shl(0xc1, 0x2120a12ca9a424a1)\n  dup2\n  mstore\n  pop\n    /* \"contracts/babyshib.sol\":2589:2594  name_ */\n  dup2\n    /* \"contracts/babyshib.sol\":2581:2586  _name */\n  0x03\n    /* \"contracts/babyshib.sol\":2581:2594  _name = name_ */\n  swap1\n  dup2\n  tag_6\n  swap2\n  swap1\n  tag_7\n  jump\t// in\ntag_6:\n  pop\n    /* \"contracts/babyshib.sol\":2605:2612  _symbol */\n  0x04\n    /* \"contracts/babyshib.sol\":2605:2622  _symbol = symbol_ */\n  tag_8\n    /* \"contracts/babyshib.sol\":2615:2622  symbol_ */\n  dup3\n    /* \"contracts/babyshib.sol\":2605:2612  _symbol */\n  dup3\n    /* \"contracts/babyshib.sol\":2605:2622  _symbol = symbol_ */\n  tag_7\n  jump\t// in\ntag_8:\n  pop\n    /* \"contracts/babyshib.sol\":2514:2630  constructor(string memory name_, string memory symbol_) {... */\n  pop\n  pop\n    /* \"contracts/babyshib.sol\":7114:7137  _setOwner(_msgSender()) */\n  tag_10\n    /* \"contracts/babyshib.sol\":7124:7136  _msgSender() */\n  tag_11\n    /* \"contracts/babyshib.sol\":7124:7134  _msgSender */\n  shl(0x20, tag_12)\n    /* \"contracts/babyshib.sol\":7124:7136  _msgSender() */\n  0x20\n  shr\n  jump\t// in\ntag_11:\n    /* \"contracts/babyshib.sol\":7114:7123  _setOwner */\n  tag_13\n    /* \"contracts/babyshib.sol\":7114:7137  _setOwner(_msgSender()) */\n  jump\t// in\ntag_10:\n    /* \"contracts/babyshib.sol\":9902:9958  _tokengeneration(msg.sender, 420000000 * 10**decimals()) */\n  tag_15\n    /* \"contracts/babyshib.sol\":9919:9929  msg.sender */\n  caller\n    /* \"contracts/babyshib.sol\":9943:9957  10**decimals() */\n  tag_18\n    /* \"contracts/babyshib.sol\":2959:2961  18 */\n  0x12\n    /* \"contracts/babyshib.sol\":9943:9945  10 */\n  0x0a\n    /* \"contracts/babyshib.sol\":9943:9957  10**decimals() */\n  tag_19\n  jump\t// in\ntag_18:\n    /* \"contracts/babyshib.sol\":9931:9957  420000000 * 10**decimals() */\n  tag_20\n  swap1\n    /* \"contracts/babyshib.sol\":9931:9940  420000000 */\n  0x1908b100\n    /* \"contracts/babyshib.sol\":9931:9957  420000000 * 10**decimals() */\n  tag_21\n  jump\t// in\ntag_20:\n    /* \"contracts/babyshib.sol\":9902:9918  _tokengeneration */\n  tag_22\n    /* \"contracts/babyshib.sol\":9902:9958  _tokengeneration(msg.sender, 420000000 * 10**decimals()) */\n  jump\t// in\ntag_15:\n    /* \"contracts/babyshib.sol\":9971:9986  IRouter _router */\n  0x00\n    /* \"contracts/babyshib.sol\":9997:10039  0x7a250d5630B4cF539739dF2C5dAcb4c659F2488D */\n  0x7a250d5630b4cf539739df2c5dacb4c659f2488d\n    /* \"contracts/babyshib.sol\":9971:10040  IRouter _router = IRouter(0x7a250d5630B4cF539739dF2C5dAcb4c659F2488D) */\n  swap1\n  pop\n    /* \"contracts/babyshib.sol\":10096:10109  address _pair */\n  0x00\n    /* \"contracts/babyshib.sol\":10121:10128  _router */\n  dup2\n  sub(shl(0xa0, 0x01), 0x01)\n    /* \"contracts/babyshib.sol\":10121:10136  _router.factory */\n  and\n  0xc45a0155\n    /* \"contracts/babyshib.sol\":10121:10138  _router.factory() */\n  mload(0x40)\n  dup2\n  0xffffffff\n  and\n  0xe0\n  shl\n  dup2\n  mstore\n  0x04\n  add\n  0x20\n  mload(0x40)\n  dup1\n  dup4\n  sub\n  dup2\n  dup7\n  gas\n  staticcall\n  iszero\n  dup1\n  iszero\n  tag_24\n  jumpi\n  returndatasize\n  0x00\n  dup1\n  returndatacopy\n  revert(0x00, returndatasize)\ntag_24:\n  pop\n  pop\n  pop\n  pop\n  mload(0x40)\n  returndatasize\n  not(0x1f)\n  0x1f\n  dup3\n  add\n  and\n  dup3\n  add\n  dup1\n  0x40\n  mstore\n  pop\n  dup2\n  add\n  swap1\n  tag_25\n  swap2\n  swap1\n  tag_26\n  jump\t// in\ntag_25:\n  sub(shl(0xa0, 0x01), 0x01)\n    /* \"contracts/babyshib.sol\":10112:10150  IFactory(_router.factory()).createPair */\n  and\n  0xc9c65396\n    /* \"contracts/babyshib.sol\":10159:10163  this */\n  address\n    /* \"contracts/babyshib.sol\":10166:10173  _router */\n  dup5\n  sub(shl(0xa0, 0x01), 0x01)\n    /* \"contracts/babyshib.sol\":10166:10178  _router.WETH */\n  and\n  0xad5c4648\n    /* \"contracts/babyshib.sol\":10166:10180  _router.WETH() */\n  mload(0x40)\n  dup2\n  0xffffffff\n  and\n  0xe0\n  shl\n  dup2\n  mstore\n  0x04\n  add\n  0x20\n  mload(0x40)\n  dup1\n  dup4\n  sub\n  dup2\n  dup7\n  gas\n  staticcall\n  iszero\n  dup1\n  iszero\n  tag_28\n  jumpi\n  returndatasize\n  0x00\n  dup1\n  returndatacopy\n  revert(0x00, returndatasize)\ntag_28:\n  pop\n  pop\n  pop\n  pop\n  mload(0x40)\n  returndatasize\n  not(0x1f)\n  0x1f\n  dup3\n  add\n  and\n  dup3\n  add\n  dup1\n  0x40\n  mstore\n  pop\n  dup2\n  add\n  swap1\n  tag_29\n  swap2\n  swap1\n  tag_26\n  jump\t// in\ntag_29:\n    /* \"contracts/babyshib.sol\":10112:10181  IFactory(_router.factory()).createPair(address(this), _router.WETH()) */\n  mload(0x40)\n  not(sub(shl(0xe0, 0x01), 0x01))\n  0xe0\n  dup6\n  swap1\n  shl\n  and\n  dup2\n  mstore\n  sub(shl(0xa0, 0x01), 0x01)\n    /* \"#utility.yul\":4948:4963   */\n  swap3\n  dup4\n  and\n    /* \"contracts/babyshib.sol\":10112:10181  IFactory(_router.factory()).createPair(address(this), _router.WETH()) */\n  0x04\n  dup3\n  add\n    /* \"#utility.yul\":4930:4964   */\n  mstore\n    /* \"#utility.yul\":5000:5015   */\n  swap2\n  and\n    /* \"#utility.yul\":4980:4998   */\n  0x24\n  dup3\n  add\n    /* \"#utility.yul\":4973:5016   */\n  mstore\n    /* \"#utility.yul\":4865:4883   */\n  0x44\n  add\n    /* \"contracts/babyshib.sol\":10112:10181  IFactory(_router.factory()).createPair(address(this), _router.WETH()) */\n  0x20\n  mload(0x40)\n  dup1\n  dup4\n  sub\n  dup2\n  0x00\n  dup8\n  gas\n  call\n  iszero\n  dup1\n  iszero\n  tag_33\n  jumpi\n  returndatasize\n  0x00\n  dup1\n  returndatacopy\n  revert(0x00, returndatasize)\ntag_33:\n  pop\n  pop\n  pop\n  pop\n  mload(0x40)\n  returndatasize\n  not(0x1f)\n  0x1f\n  dup3\n  add\n  and\n  dup3\n  add\n  dup1\n  0x40\n  mstore\n  pop\n  dup2\n  add\n  swap1\n  tag_34\n  swap2\n  swap1\n  tag_26\n  jump\t// in\ntag_34:\n    /* \"contracts/babyshib.sol\":10194:10200  router */\n  0x06\n    /* \"contracts/babyshib.sol\":10194:10210  router = _router */\n  dup1\n  sload\n  not(sub(shl(0xa0, 0x01), 0x01))\n  swap1\n  dup2\n  and\n  sub(shl(0xa0, 0x01), 0x01)\n  swap6\n  dup7\n  and\n  or\n  swap1\n  swap2\n  sstore\n    /* \"contracts/babyshib.sol\":10221:10225  pair */\n  0x07\n    /* \"contracts/babyshib.sol\":10221:10233  pair = _pair */\n  dup1\n  sload\n  swap1\n  swap2\n  and\n  swap2\n  dup5\n  and\n  swap2\n  swap1\n  swap2\n  or\n  swap1\n  sstore\n  pop\n    /* \"contracts/babyshib.sol\":10262:10266  this */\n  address\n  0x00\n    /* \"contracts/babyshib.sol\":10244:10268  exemptFee[address(this)] */\n  swap1\n  dup2\n  mstore\n    /* \"contracts/babyshib.sol\":10244:10253  exemptFee */\n  0x12\n    /* \"contracts/babyshib.sol\":10244:10268  exemptFee[address(this)] */\n  0x20\n  mstore\n  0x40\n  dup1\n  dup3\n  keccak256\n    /* \"contracts/babyshib.sol\":10244:10275  exemptFee[address(this)] = true */\n  dup1\n  sload\n  not(0xff)\n  swap1\n  dup2\n  and\n  0x01\n  swap1\n  dup2\n  or\n  swap1\n  swap3\n  sstore\n    /* \"contracts/babyshib.sol\":10296:10306  msg.sender */\n  caller\n    /* \"contracts/babyshib.sol\":10286:10307  exemptFee[msg.sender] */\n  dup5\n  mstore\n  dup3\n  dup5\n  keccak256\n    /* \"contracts/babyshib.sol\":10286:10314  exemptFee[msg.sender] = true */\n  dup1\n  sload\n  dup3\n  and\n  dup4\n  or\n  swap1\n  sstore\n    /* \"contracts/babyshib.sol\":10335:10350  marketingWallet */\n  sload(0x0d)\n  swap1\n  swap5\n  and\n    /* \"contracts/babyshib.sol\":10325:10351  exemptFee[marketingWallet] */\n  dup4\n  mstore\n  swap1\n  dup3\n  keccak256\n    /* \"contracts/babyshib.sol\":10325:10358  exemptFee[marketingWallet] = true */\n  dup1\n  sload\n  dup5\n  and\n  dup3\n  or\n  swap1\n  sstore\n    /* \"contracts/babyshib.sol\":10369:10390  exemptFee[deadWallet] */\n  0x1120e10407cab1193d7c5139d9aae5536deb3d83e855f25f8e42f811c01f56f7\n    /* \"contracts/babyshib.sol\":10369:10397  exemptFee[deadWallet] = true */\n  dup1\n  sload\n  dup5\n  and\n  dup3\n  or\n  swap1\n  sstore\n    /* \"contracts/babyshib.sol\":10408:10461  exemptFee[0xD152f549545093347A162Dce210e7293f1452150] */\n  0xbd75767b8b114eb536cfef724cc0b07e050152478ecefed43f44f5a3bc46bf3f\n    /* \"contracts/babyshib.sol\":10408:10468  exemptFee[0xD152f549545093347A162Dce210e7293f1452150] = true */\n  dup1\n  sload\n  dup5\n  and\n  dup3\n  or\n  swap1\n  sstore\n    /* \"contracts/babyshib.sol\":10489:10531  0x663A5C229c09b049E36dCc11a9B0d4a8Eb9db214 */\n  0x663a5c229c09b049e36dcc11a9b0d4a8eb9db214\n    /* \"contracts/babyshib.sol\":10479:10532  exemptFee[0x663A5C229c09b049E36dCc11a9B0d4a8Eb9db214] */\n  swap1\n  swap2\n  mstore\n  0xde1971b300b89e7e26ed403a315e2a5fbd019f3d8bff772aabed72d8b23168b5\n    /* \"contracts/babyshib.sol\":10479:10539  exemptFee[0x663A5C229c09b049E36dCc11a9B0d4a8Eb9db214] = true */\n  dup1\n  sload\n  swap1\n  swap3\n  and\n  or\n  swap1\n  sstore\n    /* \"contracts/babyshib.sol\":8713:19754  contract BabyShibaInu is ERC20, Ownable {... */\n  jump(tag_56)\n    /* \"contracts/babyshib.sol\":727:825  function _msgSender() internal view virtual returns (address) {... */\ntag_12:\n    /* \"contracts/babyshib.sol\":807:817  msg.sender */\n  caller\n  swap1\n    /* \"contracts/babyshib.sol\":727:825  function _msgSender() internal view virtual returns (address) {... */\n  jump\t// out\n    /* \"contracts/babyshib.sol\":7678:7851  function _setOwner(address newOwner) private {... */\ntag_13:\n    /* \"contracts/babyshib.sol\":7753:7759  _owner */\n  0x05\n  dup1\n  sload\n  sub(shl(0xa0, 0x01), 0x01)\n    /* \"contracts/babyshib.sol\":7770:7787  _owner = newOwner */\n  dup4\n  dup2\n  and\n  not(sub(shl(0xa0, 0x01), 0x01))\n  dup4\n  and\n  dup2\n  or\n  swap1\n  swap4\n  sstore\n    /* \"contracts/babyshib.sol\":7803:7843  OwnershipTransferred(oldOwner, newOwner) */\n  mload(0x40)\n    /* \"contracts/babyshib.sol\":7753:7759  _owner */\n  swap2\n  and\n  swap2\n    /* \"contracts/babyshib.sol\":7770:7787  _owner = newOwner */\n  swap1\n    /* \"contracts/babyshib.sol\":7753:7759  _owner */\n  dup3\n  swap1\n    /* \"contracts/babyshib.sol\":7803:7843  OwnershipTransferred(oldOwner, newOwner) */\n  0x8be0079c531659141344cd1fd0a4f28419497f9722a3daafe3b4186f6b6457e0\n  swap1\n    /* \"contracts/babyshib.sol\":7734:7750  address oldOwner */\n  0x00\n  swap1\n    /* \"contracts/babyshib.sol\":7803:7843  OwnershipTransferred(oldOwner, newOwner) */\n  log3\n    /* \"contracts/babyshib.sol\":7723:7851  {... */\n  pop\n    /* \"contracts/babyshib.sol\":7678:7851  function _setOwner(address newOwner) private {... */\n  pop\n  jump\t// out\n    /* \"contracts/babyshib.sol\":5680:6033  function _tokengeneration(address account, uint256 amount) internal virtual {... */\ntag_22:\n  sub(shl(0xa0, 0x01), 0x01)\n    /* \"contracts/babyshib.sol\":5775:5796  account != address(0) */\n  dup3\n  and\n    /* \"contracts/babyshib.sol\":5767:5838  require(account != address(0), \"ERC20: generation to the zero address\") */\n  tag_40\n  jumpi\n  mload(0x40)\n  shl(0xe5, 0x461bcd)\n  dup2\n  mstore\n    /* \"#utility.yul\":5229:5231   */\n  0x20\n    /* \"contracts/babyshib.sol\":5767:5838  require(account != address(0), \"ERC20: generation to the zero address\") */\n  0x04\n  dup3\n  add\n    /* \"#utility.yul\":5211:5232   */\n  mstore\n    /* \"#utility.yul\":5268:5270   */\n  0x25\n    /* \"#utility.yul\":5248:5266   */\n  0x24\n  dup3\n  add\n    /* \"#utility.yul\":5241:5271   */\n  mstore\n    /* \"#utility.yul\":5307:5341   */\n  0x45524332303a2067656e65726174696f6e20746f20746865207a65726f206164\n    /* \"#utility.yul\":5287:5305   */\n  0x44\n  dup3\n  add\n    /* \"#utility.yul\":5280:5342   */\n  mstore\n  shl(0xd8, 0x6472657373)\n    /* \"#utility.yul\":5358:5376   */\n  0x64\n  dup3\n  add\n    /* \"#utility.yul\":5351:5386   */\n  mstore\n    /* \"#utility.yul\":5403:5422   */\n  0x84\n  add\n    /* \"contracts/babyshib.sol\":5767:5838  require(account != address(0), \"ERC20: generation to the zero address\") */\n  mload(0x40)\n  dup1\n  swap2\n  sub\n  swap1\n  revert\ntag_40:\n    /* \"contracts/babyshib.sol\":5913:5925  _totalSupply */\n  0x02\n    /* \"contracts/babyshib.sol\":5913:5934  _totalSupply = amount */\n  dup2\n  swap1\n  sstore\n  sub(shl(0xa0, 0x01), 0x01)\n    /* \"contracts/babyshib.sol\":5945:5963  _balances[account] */\n  dup3\n  and\n    /* \"contracts/babyshib.sol\":5945:5954  _balances */\n  0x00\n    /* \"contracts/babyshib.sol\":5945:5963  _balances[account] */\n  dup2\n  dup2\n  mstore\n  0x20\n  dup2\n  dup2\n  mstore\n  0x40\n  dup1\n  dup4\n  keccak256\n    /* \"contracts/babyshib.sol\":5945:5972  _balances[account] = amount */\n  dup6\n  swap1\n  sstore\n    /* \"contracts/babyshib.sol\":5988:6025  Transfer(address(0), account, amount) */\n  mload\n    /* \"#utility.yul\":5579:5604   */\n  dup5\n  dup2\n  mstore\n    /* \"contracts/babyshib.sol\":5988:6025  Transfer(address(0), account, amount) */\n  0xddf252ad1be2c89b69c2b068fc378daa952ba7f163c4a11628f55a4df523b3ef\n  swap2\n    /* \"#utility.yul\":5552:5570   */\n  add\n    /* \"contracts/babyshib.sol\":5988:6025  Transfer(address(0), account, amount) */\n  mload(0x40)\n  dup1\n  swap2\n  sub\n  swap1\n  log3\n    /* \"contracts/babyshib.sol\":5680:6033  function _tokengeneration(address account, uint256 amount) internal virtual {... */\n  pop\n  pop\n  jump\t// out\n    /* \"contracts/babyshib.sol\":6441:6566  function _beforeTokenTransfer(... */\ntag_44:\n  pop\n  pop\n  pop\n  jump\t// out\n    /* \"#utility.yul\":14:141   */\ntag_48:\n    /* \"#utility.yul\":75:85   */\n  0x4e487b71\n    /* \"#utility.yul\":70:73   */\n  0xe0\n    /* \"#utility.yul\":66:86   */\n  shl\n    /* \"#utility.yul\":63:64   */\n  0x00\n    /* \"#utility.yul\":56:87   */\n  mstore\n    /* \"#utility.yul\":106:110   */\n  0x41\n    /* \"#utility.yul\":103:104   */\n  0x04\n    /* \"#utility.yul\":96:111   */\n  mstore\n    /* \"#utility.yul\":130:134   */\n  0x24\n    /* \"#utility.yul\":127:128   */\n  0x00\n    /* \"#utility.yul\":120:135   */\n  revert\n    /* \"#utility.yul\":146:526   */\ntag_49:\n    /* \"#utility.yul\":225:226   */\n  0x01\n    /* \"#utility.yul\":221:233   */\n  dup2\n  dup2\n  shr\n  swap1\n    /* \"#utility.yul\":268:280   */\n  dup3\n  and\n  dup1\n    /* \"#utility.yul\":289:350   */\n  tag_59\n  jumpi\n    /* \"#utility.yul\":343:347   */\n  0x7f\n    /* \"#utility.yul\":335:341   */\n  dup3\n    /* \"#utility.yul\":331:348   */\n  and\n    /* \"#utility.yul\":321:348   */\n  swap2\n  pop\n    /* \"#utility.yul\":289:350   */\ntag_59:\n    /* \"#utility.yul\":396:398   */\n  0x20\n    /* \"#utility.yul\":388:394   */\n  dup3\n    /* \"#utility.yul\":385:399   */\n  lt\n    /* \"#utility.yul\":365:383   */\n  dup2\n    /* \"#utility.yul\":362:400   */\n  sub\n    /* \"#utility.yul\":359:520   */\n  tag_60\n  jumpi\n    /* \"#utility.yul\":442:452   */\n  0x4e487b71\n    /* \"#utility.yul\":437:440   */\n  0xe0\n    /* \"#utility.yul\":433:453   */\n  shl\n    /* \"#utility.yul\":430:431   */\n  0x00\n    /* \"#utility.yul\":423:454   */\n  mstore\n    /* \"#utility.yul\":477:481   */\n  0x22\n    /* \"#utility.yul\":474:475   */\n  0x04\n    /* \"#utility.yul\":467:482   */\n  mstore\n    /* \"#utility.yul\":505:509   */\n  0x24\n    /* \"#utility.yul\":502:503   */\n  0x00\n    /* \"#utility.yul\":495:510   */\n  revert\n    /* \"#utility.yul\":359:520   */\ntag_60:\n  pop\n    /* \"#utility.yul\":146:526   */\n  swap2\n  swap1\n  pop\n  jump\t// out\n    /* \"#utility.yul\":657:1202   */\ntag_51:\n    /* \"#utility.yul\":759:761   */\n  0x1f\n    /* \"#utility.yul\":754:757   */\n  dup3\n    /* \"#utility.yul\":751:762   */\n  gt\n    /* \"#utility.yul\":748:1196   */\n  iszero\n  tag_44\n  jumpi\n    /* \"#utility.yul\":795:796   */\n  0x00\n    /* \"#utility.yul\":820:825   */\n  dup2\n    /* \"#utility.yul\":816:818   */\n  dup2\n    /* \"#utility.yul\":809:826   */\n  mstore\n    /* \"#utility.yul\":865:869   */\n  0x20\n    /* \"#utility.yul\":861:863   */\n  dup2\n    /* \"#utility.yul\":851:870   */\n  keccak256\n    /* \"#utility.yul\":935:937   */\n  0x1f\n    /* \"#utility.yul\":923:933   */\n  dup6\n    /* \"#utility.yul\":919:938   */\n  add\n    /* \"#utility.yul\":916:917   */\n  0x05\n    /* \"#utility.yul\":912:939   */\n  shr\n    /* \"#utility.yul\":906:910   */\n  dup2\n    /* \"#utility.yul\":902:940   */\n  add\n    /* \"#utility.yul\":971:975   */\n  0x20\n    /* \"#utility.yul\":959:969   */\n  dup7\n    /* \"#utility.yul\":956:976   */\n  lt\n    /* \"#utility.yul\":953:1000   */\n  iszero\n  tag_64\n  jumpi\n  pop\n    /* \"#utility.yul\":994:998   */\n  dup1\n    /* \"#utility.yul\":953:1000   */\ntag_64:\n    /* \"#utility.yul\":1049:1051   */\n  0x1f\n    /* \"#utility.yul\":1044:1047   */\n  dup6\n    /* \"#utility.yul\":1040:1052   */\n  add\n    /* \"#utility.yul\":1037:1038   */\n  0x05\n    /* \"#utility.yul\":1033:1053   */\n  shr\n    /* \"#utility.yul\":1027:1031   */\n  dup3\n    /* \"#utility.yul\":1023:1054   */\n  add\n    /* \"#utility.yul\":1013:1054   */\n  swap2\n  pop\n    /* \"#utility.yul\":1104:1186   */\ntag_65:\n    /* \"#utility.yul\":1122:1124   */\n  dup2\n    /* \"#utility.yul\":1115:1120   */\n  dup2\n    /* \"#utility.yul\":1112:1125   */\n  lt\n    /* \"#utility.yul\":1104:1186   */\n  iszero\n  tag_67\n  jumpi\n    /* \"#utility.yul\":1167:1184   */\n  dup3\n  dup2\n  sstore\n    /* \"#utility.yul\":1148:1149   */\n  0x01\n    /* \"#utility.yul\":1137:1150   */\n  add\n    /* \"#utility.yul\":1104:1186   */\n  jump(tag_65)\ntag_67:\n    /* \"#utility.yul\":1108:1111   */\n  pop\n  pop\n  pop\n    /* \"#utility.yul\":657:1202   */\n  pop\n  pop\n  pop\n  jump\t// out\n    /* \"#utility.yul\":1378:2730   */\ntag_7:\n    /* \"#utility.yul\":1498:1508   */\n  dup2\n  mload\n  sub(shl(0x40, 0x01), 0x01)\n    /* \"#utility.yul\":1520:1550   */\n  dup2\n  gt\n    /* \"#utility.yul\":1517:1573   */\n  iszero\n  tag_71\n  jumpi\n    /* \"#utility.yul\":1553:1571   */\n  tag_71\n  tag_48\n  jump\t// in\ntag_71:\n    /* \"#utility.yul\":1582:1679   */\n  tag_72\n    /* \"#utility.yul\":1672:1678   */\n  dup2\n    /* \"#utility.yul\":1632:1670   */\n  tag_73\n    /* \"#utility.yul\":1664:1668   */\n  dup5\n    /* \"#utility.yul\":1658:1669   */\n  sload\n    /* \"#utility.yul\":1632:1670   */\n  tag_49\n  jump\t// in\ntag_73:\n    /* \"#utility.yul\":1626:1630   */\n  dup5\n    /* \"#utility.yul\":1582:1679   */\n  tag_51\n  jump\t// in\ntag_72:\n    /* \"#utility.yul\":1734:1738   */\n  0x20\n  dup1\n    /* \"#utility.yul\":1798:1800   */\n  0x1f\n    /* \"#utility.yul\":1787:1801   */\n  dup4\n  gt\n    /* \"#utility.yul\":1815:1816   */\n  0x01\n    /* \"#utility.yul\":1810:2473   */\n  dup2\n  eq\n  tag_75\n  jumpi\n    /* \"#utility.yul\":2517:2518   */\n  0x00\n    /* \"#utility.yul\":2534:2540   */\n  dup5\n    /* \"#utility.yul\":2531:2620   */\n  iszero\n  tag_76\n  jumpi\n  pop\n    /* \"#utility.yul\":2586:2605   */\n  dup6\n  dup4\n  add\n    /* \"#utility.yul\":2580:2606   */\n  mload\n    /* \"#utility.yul\":2531:2620   */\ntag_76:\n  not(0x00)\n    /* \"#utility.yul\":1335:1336   */\n  0x03\n    /* \"#utility.yul\":1331:1342   */\n  dup7\n  swap1\n  shl\n    /* \"#utility.yul\":1327:1351   */\n  shr\n    /* \"#utility.yul\":1323:1352   */\n  not\n    /* \"#utility.yul\":1313:1353   */\n  and\n    /* \"#utility.yul\":1359:1360   */\n  0x01\n    /* \"#utility.yul\":1355:1366   */\n  dup6\n  swap1\n  shl\n    /* \"#utility.yul\":1310:1367   */\n  or\n    /* \"#utility.yul\":2633:2714   */\n  dup6\n  sstore\n    /* \"#utility.yul\":1780:2724   */\n  jump(tag_67)\n    /* \"#utility.yul\":1810:2473   */\ntag_75:\n    /* \"#utility.yul\":604:605   */\n  0x00\n    /* \"#utility.yul\":597:611   */\n  dup6\n  dup2\n  mstore\n    /* \"#utility.yul\":641:645   */\n  0x20\n    /* \"#utility.yul\":628:646   */\n  dup2\n  keccak256\n  not(0x1f)\n    /* \"#utility.yul\":1846:1866   */\n  dup7\n  and\n  swap2\n    /* \"#utility.yul\":1964:2200   */\ntag_79:\n    /* \"#utility.yul\":1978:1985   */\n  dup3\n    /* \"#utility.yul\":1975:1976   */\n  dup2\n    /* \"#utility.yul\":1972:1986   */\n  lt\n    /* \"#utility.yul\":1964:2200   */\n  iszero\n  tag_81\n  jumpi\n    /* \"#utility.yul\":2067:2086   */\n  dup9\n  dup7\n  add\n    /* \"#utility.yul\":2061:2087   */\n  mload\n    /* \"#utility.yul\":2046:2088   */\n  dup3\n  sstore\n    /* \"#utility.yul\":2159:2186   */\n  swap5\n  dup5\n  add\n  swap5\n    /* \"#utility.yul\":2127:2128   */\n  0x01\n    /* \"#utility.yul\":2115:2129   */\n  swap1\n  swap2\n  add\n  swap1\n    /* \"#utility.yul\":1994:2013   */\n  dup5\n  add\n    /* \"#utility.yul\":1964:2200   */\n  jump(tag_79)\ntag_81:\n    /* \"#utility.yul\":1968:1971   */\n  pop\n    /* \"#utility.yul\":2228:2234   */\n  dup6\n    /* \"#utility.yul\":2219:2226   */\n  dup3\n    /* \"#utility.yul\":2216:2235   */\n  lt\n    /* \"#utility.yul\":2213:2414   */\n  iszero\n  tag_82\n  jumpi\n    /* \"#utility.yul\":2289:2308   */\n  dup8\n  dup6\n  add\n    /* \"#utility.yul\":2283:2309   */\n  mload\n  not(0x00)\n    /* \"#utility.yul\":2372:2373   */\n  0x03\n    /* \"#utility.yul\":2368:2382   */\n  dup9\n  swap1\n  shl\n    /* \"#utility.yul\":2384:2387   */\n  0xf8\n    /* \"#utility.yul\":2364:2388   */\n  and\n    /* \"#utility.yul\":2360:2397   */\n  shr\n    /* \"#utility.yul\":2356:2398   */\n  not\n    /* \"#utility.yul\":2341:2399   */\n  and\n    /* \"#utility.yul\":2326:2400   */\n  dup2\n  sstore\n    /* \"#utility.yul\":2213:2414   */\ntag_82:\n  pop\n  pop\n  pop\n  pop\n  pop\n    /* \"#utility.yul\":2460:2461   */\n  0x01\n    /* \"#utility.yul\":2444:2458   */\n  swap1\n  dup2\n  shl\n    /* \"#utility.yul\":2440:2462   */\n  add\n    /* \"#utility.yul\":2427:2463   */\n  swap1\n  sstore\n  pop\n    /* \"#utility.yul\":1378:2730   */\n  jump\t// out\n    /* \"#utility.yul\":2735:2862   */\ntag_53:\n    /* \"#utility.yul\":2796:2806   */\n  0x4e487b71\n    /* \"#utility.yul\":2791:2794   */\n  0xe0\n    /* \"#utility.yul\":2787:2807   */\n  shl\n    /* \"#utility.yul\":2784:2785   */\n  0x00\n    /* \"#utility.yul\":2777:2808   */\n  mstore\n    /* \"#utility.yul\":2827:2831   */\n  0x11\n    /* \"#utility.yul\":2824:2825   */\n  0x04\n    /* \"#utility.yul\":2817:2832   */\n  mstore\n    /* \"#utility.yul\":2851:2855   */\n  0x24\n    /* \"#utility.yul\":2848:2849   */\n  0x00\n    /* \"#utility.yul\":2841:2856   */\n  revert\n    /* \"#utility.yul\":2867:3289   */\ntag_54:\n    /* \"#utility.yul\":2956:2957   */\n  0x01\n    /* \"#utility.yul\":2999:3004   */\n  dup2\n    /* \"#utility.yul\":2956:2957   */\n  dup2\n    /* \"#utility.yul\":3013:3283   */\ntag_85:\n    /* \"#utility.yul\":3034:3041   */\n  dup1\n    /* \"#utility.yul\":3024:3032   */\n  dup6\n    /* \"#utility.yul\":3021:3042   */\n  gt\n    /* \"#utility.yul\":3013:3283   */\n  iszero\n  tag_87\n  jumpi\n    /* \"#utility.yul\":3093:3097   */\n  dup2\n    /* \"#utility.yul\":3089:3090   */\n  0x00\n    /* \"#utility.yul\":3085:3091   */\n  not\n    /* \"#utility.yul\":3081:3098   */\n  div\n    /* \"#utility.yul\":3075:3079   */\n  dup3\n    /* \"#utility.yul\":3072:3099   */\n  gt\n    /* \"#utility.yul\":3069:3122   */\n  iszero\n  tag_89\n  jumpi\n    /* \"#utility.yul\":3102:3120   */\n  tag_89\n  tag_53\n  jump\t// in\ntag_89:\n    /* \"#utility.yul\":3152:3159   */\n  dup1\n    /* \"#utility.yul\":3142:3150   */\n  dup6\n    /* \"#utility.yul\":3138:3160   */\n  and\n    /* \"#utility.yul\":3135:3190   */\n  iszero\n  tag_90\n  jumpi\n    /* \"#utility.yul\":3172:3188   */\n  swap2\n  dup2\n  mul\n  swap2\n    /* \"#utility.yul\":3135:3190   */\ntag_90:\n    /* \"#utility.yul\":3251:3273   */\n  swap4\n  dup5\n  shr\n  swap4\n    /* \"#utility.yul\":3211:3226   */\n  swap1\n  dup1\n  mul\n  swap1\n    /* \"#utility.yul\":3013:3283   */\n  jump(tag_85)\ntag_87:\n    /* \"#utility.yul\":3017:3020   */\n  pop\n    /* \"#utility.yul\":2867:3289   */\n  swap3\n  pop\n  swap3\n  swap1\n  pop\n  jump\t// out\n    /* \"#utility.yul\":3294:4100   */\ntag_55:\n    /* \"#utility.yul\":3343:3348   */\n  0x00\n    /* \"#utility.yul\":3373:3381   */\n  dup3\n    /* \"#utility.yul\":3363:3443   */\n  tag_92\n  jumpi\n  pop\n    /* \"#utility.yul\":3414:3415   */\n  0x01\n    /* \"#utility.yul\":3428:3433   */\n  jump(tag_91)\n    /* \"#utility.yul\":3363:3443   */\ntag_92:\n    /* \"#utility.yul\":3462:3466   */\n  dup2\n    /* \"#utility.yul\":3452:3528   */\n  tag_93\n  jumpi\n  pop\n    /* \"#utility.yul\":3499:3500   */\n  0x00\n    /* \"#utility.yul\":3513:3518   */\n  jump(tag_91)\n    /* \"#utility.yul\":3452:3528   */\ntag_93:\n    /* \"#utility.yul\":3544:3548   */\n  dup2\n    /* \"#utility.yul\":3562:3563   */\n  0x01\n    /* \"#utility.yul\":3557:3616   */\n  dup2\n  eq\n  tag_95\n  jumpi\n    /* \"#utility.yul\":3630:3631   */\n  0x02\n    /* \"#utility.yul\":3625:3755   */\n  dup2\n  eq\n  tag_96\n  jumpi\n    /* \"#utility.yul\":3537:3755   */\n  jump(tag_94)\n    /* \"#utility.yul\":3557:3616   */\ntag_95:\n    /* \"#utility.yul\":3587:3588   */\n  0x01\n    /* \"#utility.yul\":3578:3588   */\n  swap2\n  pop\n    /* \"#utility.yul\":3601:3606   */\n  pop\n  jump(tag_91)\n    /* \"#utility.yul\":3625:3755   */\ntag_96:\n    /* \"#utility.yul\":3662:3665   */\n  0xff\n    /* \"#utility.yul\":3652:3660   */\n  dup5\n    /* \"#utility.yul\":3649:3666   */\n  gt\n    /* \"#utility.yul\":3646:3689   */\n  iszero\n  tag_98\n  jumpi\n    /* \"#utility.yul\":3669:3687   */\n  tag_98\n  tag_53\n  jump\t// in\ntag_98:\n  pop\n  pop\n    /* \"#utility.yul\":3725:3726   */\n  0x01\n    /* \"#utility.yul\":3711:3727   */\n  dup3\n  shl\n    /* \"#utility.yul\":3740:3745   */\n  jump(tag_91)\n    /* \"#utility.yul\":3537:3755   */\ntag_94:\n  pop\n    /* \"#utility.yul\":3839:3841   */\n  0x20\n    /* \"#utility.yul\":3829:3837   */\n  dup4\n    /* \"#utility.yul\":3826:3842   */\n  lt\n    /* \"#utility.yul\":3820:3823   */\n  0x0133\n    /* \"#utility.yul\":3814:3818   */\n  dup4\n    /* \"#utility.yul\":3811:3824   */\n  lt\n    /* \"#utility.yul\":3807:3843   */\n  and\n    /* \"#utility.yul\":3801:3803   */\n  0x4e\n    /* \"#utility.yul\":3791:3799   */\n  dup5\n    /* \"#utility.yul\":3788:3804   */\n  lt\n    /* \"#utility.yul\":3783:3785   */\n  0x0b\n    /* \"#utility.yul\":3777:3781   */\n  dup5\n    /* \"#utility.yul\":3774:3786   */\n  lt\n    /* \"#utility.yul\":3770:3805   */\n  and\n    /* \"#utility.yul\":3767:3844   */\n  or\n    /* \"#utility.yul\":3764:3923   */\n  iszero\n  tag_99\n  jumpi\n  pop\n    /* \"#utility.yul\":3876:3895   */\n  dup2\n  dup2\n  exp\n    /* \"#utility.yul\":3908:3913   */\n  jump(tag_91)\n    /* \"#utility.yul\":3764:3923   */\ntag_99:\n    /* \"#utility.yul\":3955:3989   */\n  tag_100\n    /* \"#utility.yul\":3980:3988   */\n  dup4\n    /* \"#utility.yul\":3974:3978   */\n  dup4\n    /* \"#utility.yul\":3955:3989   */\n  tag_54\n  jump\t// in\ntag_100:\n    /* \"#utility.yul\":4025:4031   */\n  dup1\n    /* \"#utility.yul\":4021:4022   */\n  0x00\n    /* \"#utility.yul\":4017:4023   */\n  not\n    /* \"#utility.yul\":4013:4032   */\n  div\n    /* \"#utility.yul\":4004:4011   */\n  dup3\n    /* \"#utility.yul\":4001:4033   */\n  gt\n    /* \"#utility.yul\":3998:4056   */\n  iszero\n  tag_102\n  jumpi\n    /* \"#utility.yul\":4036:4054   */\n  tag_102\n  tag_53\n  jump\t// in\ntag_102:\n    /* \"#utility.yul\":4074:4094   */\n  mul\n  swap1\n  pop\n    /* \"#utility.yul\":3294:4100   */\ntag_91:\n  swap3\n  swap2\n  pop\n  pop\n  jump\t// out\n    /* \"#utility.yul\":4105:4245   */\ntag_19:\n    /* \"#utility.yul\":4163:4168   */\n  0x00\n    /* \"#utility.yul\":4192:4239   */\n  tag_104\n    /* \"#utility.yul\":4233:4237   */\n  0xff\n    /* \"#utility.yul\":4223:4231   */\n  dup5\n    /* \"#utility.yul\":4219:4238   */\n  and\n    /* \"#utility.yul\":4213:4217   */\n  dup4\n    /* \"#utility.yul\":4192:4239   */\n  tag_55\n  jump\t// in\ntag_104:\n    /* \"#utility.yul\":4183:4239   */\n  swap4\n    /* \"#utility.yul\":4105:4245   */\n  swap3\n  pop\n  pop\n  pop\n  jump\t// out\n    /* \"#utility.yul\":4250:4418   */\ntag_21:\n    /* \"#utility.yul\":4323:4332   */\n  dup1\n  dup3\n  mul\n    /* \"#utility.yul\":4354:4363   */\n  dup2\n  iszero\n    /* \"#utility.yul\":4371:4386   */\n  dup3\n  dup3\n  div\n    /* \"#utility.yul\":4365:4387   */\n  dup5\n  eq\n    /* \"#utility.yul\":4351:4388   */\n  or\n    /* \"#utility.yul\":4341:4412   */\n  tag_91\n  jumpi\n    /* \"#utility.yul\":4392:4410   */\n  tag_91\n  tag_53\n  jump\t// in\n    /* \"#utility.yul\":4423:4713   */\ntag_26:\n    /* \"#utility.yul\":4493:4499   */\n  0x00\n    /* \"#utility.yul\":4546:4548   */\n  0x20\n    /* \"#utility.yul\":4534:4543   */\n  dup3\n    /* \"#utility.yul\":4525:4532   */\n  dup5\n    /* \"#utility.yul\":4521:4544   */\n  sub\n    /* \"#utility.yul\":4517:4549   */\n  slt\n    /* \"#utility.yul\":4514:4566   */\n  iszero\n  tag_109\n  jumpi\n    /* \"#utility.yul\":4562:4563   */\n  0x00\n    /* \"#utility.yul\":4559:4560   */\n  dup1\n    /* \"#utility.yul\":4552:4564   */\n  revert\n    /* \"#utility.yul\":4514:4566   */\ntag_109:\n    /* \"#utility.yul\":4588:4604   */\n  dup2\n  mload\n  sub(shl(0xa0, 0x01), 0x01)\n    /* \"#utility.yul\":4633:4664   */\n  dup2\n  and\n    /* \"#utility.yul\":4623:4665   */\n  dup2\n  eq\n    /* \"#utility.yul\":4613:4683   */\n  tag_104\n  jumpi\n    /* \"#utility.yul\":4679:4680   */\n  0x00\n    /* \"#utility.yul\":4676:4677   */\n  dup1\n    /* \"#utility.yul\":4669:4681   */\n  revert\n    /* \"#utility.yul\":5433:5610   */\ntag_56:\n    /* \"contracts/babyshib.sol\":8713:19754  contract BabyShibaInu is ERC20, Ownable {... */\n  dataSize(sub_0)\n  dup1\n  dataOffset(sub_0)\n  0x00\n  codecopy\n  0x00\n  return\nstop\n\nsub_0: assembly {\n        /* \"contracts/babyshib.sol\":8713:19754  contract BabyShibaInu is ERC20, Ownable {... */\n      mstore(0x40, 0x80)\n      jumpi(tag_1, lt(calldatasize, 0x04))\n      shr(0xe0, calldataload(0x00))\n      dup1\n      0x85141a77\n      gt\n      tag_41\n      jumpi\n      dup1\n      0xaacebbe3\n      gt\n      tag_42\n      jumpi\n      dup1\n      0xf2fde38b\n      gt\n      tag_43\n      jumpi\n      dup1\n      0xf2fde38b\n      eq\n      tag_36\n      jumpi\n      dup1\n      0xf52be97c\n      eq\n      tag_37\n      jumpi\n      dup1\n      0xf570d4de\n      eq\n      tag_38\n      jumpi\n      dup1\n      0xf66895a3\n      eq\n      tag_39\n      jumpi\n      dup1\n      0xf887ea40\n      eq\n      tag_40\n      jumpi\n      0x00\n      dup1\n      revert\n    tag_43:\n      dup1\n      0xaacebbe3\n      eq\n      tag_31\n      jumpi\n      dup1\n      0xc5d32bb2\n      eq\n      tag_32\n      jumpi\n      dup1\n      0xd695609b\n      eq\n      tag_33\n      jumpi\n      dup1\n      0xdd62ed3e\n      eq\n      tag_34\n      jumpi\n      dup1\n      0xedaa1168\n      eq\n      tag_35\n      jumpi\n      0x00\n      dup1\n      revert\n    tag_42:\n      dup1\n      0x95d89b41\n      gt\n      tag_44\n      jumpi\n      dup1\n      0x95d89b41\n      eq\n      tag_26\n      jumpi\n      dup1\n      0x9e252f00\n      eq\n      tag_27\n      jumpi\n      dup1\n      0xa457c2d7\n      eq\n      tag_28\n      jumpi\n      dup1\n      0xa8aa1b31\n      eq\n      tag_29\n      jumpi\n      dup1\n      0xa9059cbb\n      eq\n      tag_30\n      jumpi\n      0x00\n      dup1\n      revert\n    tag_44:\n      dup1\n      0x85141a77\n      eq\n      tag_22\n      jumpi\n      dup1\n      0x8a8c523c\n      eq\n      tag_23\n      jumpi\n      dup1\n      0x8cd4426d\n      eq\n      tag_24\n      jumpi\n      dup1\n      0x8da5cb5b\n      eq\n      tag_25\n      jumpi\n      0x00\n      dup1\n      revert\n    tag_41:\n      dup1\n      0x42b6fa11\n      gt\n      tag_45\n      jumpi\n      dup1\n      0x70a08231\n      gt\n      tag_46\n      jumpi\n      dup1\n      0x70a08231\n      eq\n      tag_17\n      jumpi\n      dup1\n      0x715018a6\n      eq\n      tag_18\n      jumpi\n      dup1\n      0x728f8eea\n      eq\n      tag_19\n      jumpi\n      dup1\n      0x832c2bd2\n      eq\n      tag_20\n      jumpi\n      dup1\n      0x8514022d\n      eq\n      tag_21\n      jumpi\n      0x00\n      dup1\n      revert\n    tag_46:\n      dup1\n      0x42b6fa11\n      eq\n      tag_12\n      jumpi\n      dup1\n      0x4324deae\n      eq\n      tag_13\n      jumpi\n      dup1\n      0x4ada218b\n      eq\n      tag_14\n      jumpi\n      dup1\n      0x5dbdb7e3\n      eq\n      tag_15\n      jumpi\n      dup1\n      0x66a88d96\n      eq\n      tag_16\n      jumpi\n      0x00\n      dup1\n      revert\n    tag_45:\n      dup1\n      0x215d92a6\n      gt\n      tag_47\n      jumpi\n      dup1\n      0x215d92a6\n      eq\n      tag_7\n      jumpi\n      dup1\n      0x23b872dd\n      eq\n      tag_8\n      jumpi\n      dup1\n      0x251ef095\n      eq\n      tag_9\n      jumpi\n      dup1\n      0x313ce567\n      eq\n      tag_10\n      jumpi\n      dup1\n      0x39509351\n      eq\n      tag_11\n      jumpi\n      0x00\n      dup1\n      revert\n    tag_47:\n      dup1\n      0x06fdde03\n      eq\n      tag_3\n      jumpi\n      dup1\n      0x095ea7b3\n      eq\n      tag_4\n      jumpi\n      dup1\n      0x1340538f\n      eq\n      tag_5\n      jumpi\n      dup1\n      0x18160ddd\n      eq\n      tag_6\n      jumpi\n      0x00\n      dup1\n      revert\n    tag_1:\n      jumpi(tag_2, calldatasize)\n      stop\n    tag_2:\n      0x00\n      dup1\n      revert\n        /* \"contracts/babyshib.sol\":2644:2744  function name() public view virtual override returns (string memory) {... */\n    tag_3:\n      callvalue\n      dup1\n      iszero\n      tag_50\n      jumpi\n      0x00\n      dup1\n      revert\n    tag_50:\n      pop\n      tag_51\n      tag_52\n      jump\t// in\n    tag_51:\n      mload(0x40)\n      tag_53\n      swap2\n      swap1\n      tag_54\n      jump\t// in\n    tag_53:\n      mload(0x40)\n      dup1\n      swap2\n      sub\n      swap1\n      return\n        /* \"contracts/babyshib.sol\":10555:10716  function approve(address spender, uint256 amount) public override returns (bool) {... */\n    tag_4:\n      callvalue\n      dup1\n      iszero\n      tag_55\n      jumpi\n      0x00\n      dup1\n      revert\n    tag_55:\n      pop\n      tag_56\n      tag_57\n      calldatasize\n      0x04\n      tag_58\n      jump\t// in\n    tag_57:\n      tag_59\n      jump\t// in\n    tag_56:\n      mload(0x40)\n        /* \"#utility.yul\":1327:1341   */\n      swap1\n      iszero\n        /* \"#utility.yul\":1320:1342   */\n      iszero\n        /* \"#utility.yul\":1302:1343   */\n      dup2\n      mstore\n        /* \"#utility.yul\":1290:1292   */\n      0x20\n        /* \"#utility.yul\":1275:1293   */\n      add\n        /* \"contracts/babyshib.sol\":10555:10716  function approve(address spender, uint256 amount) public override returns (bool) {... */\n      tag_53\n        /* \"#utility.yul\":1162:1349   */\n      jump\n        /* \"contracts/babyshib.sol\":17092:17244  function updateLiquidityProvide(bool state) external onlyOwner {... */\n    tag_5:\n      callvalue\n      dup1\n      iszero\n      tag_62\n      jumpi\n      0x00\n      dup1\n      revert\n    tag_62:\n      pop\n      tag_63\n      tag_64\n      calldatasize\n      0x04\n      tag_65\n      jump\t// in\n    tag_64:\n      tag_66\n      jump\t// in\n    tag_63:\n      stop\n        /* \"contracts/babyshib.sol\":2983:3091  function totalSupply() public view virtual override returns (uint256) {... */\n    tag_6:\n      callvalue\n      dup1\n      iszero\n      tag_67\n      jumpi\n      0x00\n      dup1\n      revert\n    tag_67:\n      pop\n        /* \"contracts/babyshib.sol\":3071:3083  _totalSupply */\n      sload(0x02)\n        /* \"contracts/babyshib.sol\":2983:3091  function totalSupply() public view virtual override returns (uint256) {... */\n    tag_68:\n      mload(0x40)\n        /* \"#utility.yul\":1869:1894   */\n      swap1\n      dup2\n      mstore\n        /* \"#utility.yul\":1857:1859   */\n      0x20\n        /* \"#utility.yul\":1842:1860   */\n      add\n        /* \"contracts/babyshib.sol\":2983:3091  function totalSupply() public view virtual override returns (uint256) {... */\n      tag_53\n        /* \"#utility.yul\":1723:1900   */\n      jump\n        /* \"contracts/babyshib.sol\":18454:18662  function bulkIsEarlyBuyer(address[] memory accounts, bool state) external onlyOwner {... */\n    tag_7:\n      callvalue\n      dup1\n      iszero\n      tag_72\n      jumpi\n      0x00\n      dup1\n      revert\n    tag_72:\n      pop\n      tag_63\n      tag_74\n      calldatasize\n      0x04\n      tag_75\n      jump\t// in\n    tag_74:\n      tag_76\n      jump\t// in\n        /* \"contracts/babyshib.sol\":10724:11172  function transferFrom(... */\n    tag_8:\n      callvalue\n      dup1\n      iszero\n      tag_77\n      jumpi\n      0x00\n      dup1\n      revert\n    tag_77:\n      pop\n      tag_56\n      tag_79\n      calldatasize\n      0x04\n      tag_80\n      jump\t// in\n    tag_79:\n      tag_81\n      jump\t// in\n        /* \"contracts/babyshib.sol\":19098:19294  function RemovebulkExemptFee(address[] memory accounts) external onlyOwner {... */\n    tag_9:\n      callvalue\n      dup1\n      iszero\n      tag_83\n      jumpi\n      0x00\n      dup1\n      revert\n    tag_83:\n      pop\n      tag_63\n      tag_85\n      calldatasize\n      0x04\n      tag_86\n      jump\t// in\n    tag_85:\n      tag_87\n      jump\t// in\n        /* \"contracts/babyshib.sol\":2876:2969  function decimals() public view virtual override returns (uint8) {... */\n    tag_10:\n      callvalue\n      dup1\n      iszero\n      tag_88\n      jumpi\n      0x00\n      dup1\n      revert\n    tag_88:\n      pop\n      mload(0x40)\n        /* \"contracts/babyshib.sol\":2959:2961  18 */\n      0x12\n        /* \"#utility.yul\":4388:4424   */\n      dup2\n      mstore\n        /* \"#utility.yul\":4376:4378   */\n      0x20\n        /* \"#utility.yul\":4361:4379   */\n      add\n        /* \"contracts/babyshib.sol\":2876:2969  function decimals() public view virtual override returns (uint8) {... */\n      tag_53\n        /* \"#utility.yul\":4246:4430   */\n      jump\n        /* \"contracts/babyshib.sol\":11180:11428  function increaseAllowance(address spender, uint256 addedValue)... */\n    tag_11:\n      callvalue\n      dup1\n      iszero\n      tag_93\n      jumpi\n      0x00\n      dup1\n      revert\n    tag_93:\n      pop\n      tag_56\n      tag_95\n      calldatasize\n      0x04\n      tag_58\n      jump\t// in\n    tag_95:\n      tag_96\n      jump\t// in\n        /* \"contracts/babyshib.sol\":17252:17429  function updateLiquidityTreshhold(uint256 new_amount) external onlyOwner {... */\n    tag_12:\n      callvalue\n      dup1\n      iszero\n      tag_98\n      jumpi\n      0x00\n      dup1\n      revert\n    tag_98:\n      pop\n      tag_63\n      tag_100\n      calldatasize\n      0x04\n      tag_101\n      jump\t// in\n    tag_100:\n      tag_102\n      jump\t// in\n        /* \"contracts/babyshib.sol\":19302:19433  function updateMaxWalletLimit(uint256 maxWallet) external onlyOwner {... */\n    tag_13:\n      callvalue\n      dup1\n      iszero\n      tag_103\n      jumpi\n      0x00\n      dup1\n      revert\n    tag_103:\n      pop\n      tag_63\n      tag_105\n      calldatasize\n      0x04\n      tag_101\n      jump\t// in\n    tag_105:\n      tag_106\n      jump\t// in\n        /* \"contracts/babyshib.sol\":8948:8982  bool public tradingEnabled = false */\n    tag_14:\n      callvalue\n      dup1\n      iszero\n      tag_107\n      jumpi\n      0x00\n      dup1\n      revert\n    tag_107:\n      pop\n      sload(0x07)\n      tag_56\n      swap1\n      shl(0xb0, 0x01)\n      swap1\n      div\n      0xff\n      and\n      dup2\n      jump\n        /* \"contracts/babyshib.sol\":18670:18774  function AddExemptFee(address _address) external onlyOwner {... */\n    tag_15:\n      callvalue\n      dup1\n      iszero\n      tag_111\n      jumpi\n      0x00\n      dup1\n      revert\n    tag_111:\n      pop\n      tag_63\n      tag_113\n      calldatasize\n      0x04\n      tag_114\n      jump\t// in\n    tag_113:\n      tag_115\n      jump\t// in\n        /* \"contracts/babyshib.sol\":9057:9105  uint256 public maxWalletLimit = 4200000 * 10**18 */\n    tag_16:\n      callvalue\n      dup1\n      iszero\n      tag_116\n      jumpi\n      0x00\n      dup1\n      revert\n    tag_116:\n      pop\n      tag_68\n      sload(0x09)\n      dup2\n      jump\n        /* \"contracts/babyshib.sol\":3105:3232  function balanceOf(address account) public view virtual override returns (uint256) {... */\n    tag_17:\n      callvalue\n      dup1\n      iszero\n      tag_120\n      jumpi\n      0x00\n      dup1\n      revert\n    tag_120:\n      pop\n      tag_68\n      tag_122\n      calldatasize\n      0x04\n      tag_114\n      jump\t// in\n    tag_122:\n      sub(shl(0xa0, 0x01), 0x01)\n        /* \"contracts/babyshib.sol\":3206:3224  _balances[account] */\n      and\n        /* \"contracts/babyshib.sol\":3179:3186  uint256 */\n      0x00\n        /* \"contracts/babyshib.sol\":3206:3224  _balances[account] */\n      swap1\n      dup2\n      mstore\n      0x20\n      dup2\n      swap1\n      mstore\n      0x40\n      swap1\n      keccak256\n      sload\n      swap1\n        /* \"contracts/babyshib.sol\":3105:3232  function balanceOf(address account) public view virtual override returns (uint256) {... */\n      jump\n        /* \"contracts/babyshib.sol\":7376:7470  function renounceOwnership() public virtual onlyOwner {... */\n    tag_18:\n      callvalue\n      dup1\n      iszero\n      tag_125\n      jumpi\n      0x00\n      dup1\n      revert\n    tag_125:\n      pop\n      tag_63\n      tag_127\n      jump\t// in\n        /* \"contracts/babyshib.sol\":9479:9512  Taxes public taxes = Taxes(20, 0) */\n    tag_19:\n      callvalue\n      dup1\n      iszero\n      tag_128\n      jumpi\n      0x00\n      dup1\n      revert\n    tag_128:\n      pop\n      sload(0x0e)\n      sload(0x0f)\n      tag_129\n      swap2\n      swap1\n      dup3\n      jump\n    tag_129:\n      0x40\n      dup1\n      mload\n        /* \"#utility.yul\":5046:5071   */\n      swap3\n      dup4\n      mstore\n        /* \"#utility.yul\":5102:5104   */\n      0x20\n        /* \"#utility.yul\":5087:5105   */\n      dup4\n      add\n        /* \"#utility.yul\":5080:5114   */\n      swap2\n      swap1\n      swap2\n      mstore\n        /* \"#utility.yul\":5019:5037   */\n      add\n        /* \"contracts/babyshib.sol\":9479:9512  Taxes public taxes = Taxes(20, 0) */\n      tag_53\n        /* \"#utility.yul\":4872:5120   */\n      jump\n        /* \"contracts/babyshib.sol\":18782:18890  function RemoveExemptFee(address _address) external onlyOwner {... */\n    tag_20:\n      callvalue\n      dup1\n      iszero\n      tag_133\n      jumpi\n      0x00\n      dup1\n      revert\n    tag_133:\n      pop\n      tag_63\n      tag_135\n      calldatasize\n      0x04\n      tag_114\n      jump\t// in\n    tag_135:\n      tag_136\n      jump\t// in\n        /* \"contracts/babyshib.sol\":18322:18446  function updateIsEarlyBuyer(address account, bool state) external onlyOwner {... */\n    tag_21:\n      callvalue\n      dup1\n      iszero\n      tag_137\n      jumpi\n      0x00\n      dup1\n      revert\n    tag_137:\n      pop\n      tag_63\n      tag_139\n      calldatasize\n      0x04\n      tag_140\n      jump\t// in\n    tag_139:\n      tag_141\n      jump\t// in\n        /* \"contracts/babyshib.sol\":9306:9385  address public constant deadWallet = 0x000000000000000000000000000000000000dEaD */\n    tag_22:\n      callvalue\n      dup1\n      iszero\n      tag_142\n      jumpi\n      0x00\n      dup1\n      revert\n    tag_142:\n      pop\n      tag_143\n        /* \"contracts/babyshib.sol\":9343:9385  0x000000000000000000000000000000000000dEaD */\n      0xdead\n        /* \"contracts/babyshib.sol\":9306:9385  address public constant deadWallet = 0x000000000000000000000000000000000000dEaD */\n      dup2\n      jump\n    tag_143:\n      mload(0x40)\n      sub(shl(0xa0, 0x01), 0x01)\n        /* \"#utility.yul\":5676:5708   */\n      swap1\n      swap2\n      and\n        /* \"#utility.yul\":5658:5709   */\n      dup2\n      mstore\n        /* \"#utility.yul\":5646:5648   */\n      0x20\n        /* \"#utility.yul\":5631:5649   */\n      add\n        /* \"contracts/babyshib.sol\":9306:9385  address public constant deadWallet = 0x000000000000000000000000000000000000dEaD */\n      tag_53\n        /* \"#utility.yul\":5512:5715   */\n      jump\n        /* \"contracts/babyshib.sol\":17782:18006  function enableTrading() external onlyOwner {... */\n    tag_23:\n      callvalue\n      dup1\n      iszero\n      tag_147\n      jumpi\n      0x00\n      dup1\n      revert\n    tag_147:\n      pop\n      tag_63\n      tag_149\n      jump\t// in\n        /* \"contracts/babyshib.sol\":19561:19696  function rescueERC20(address tokenAdd, uint256 amount) external onlyOwner {... */\n    tag_24:\n      callvalue\n      dup1\n      iszero\n      tag_150\n      jumpi\n      0x00\n      dup1\n      revert\n    tag_150:\n      pop\n      tag_63\n      tag_152\n      calldatasize\n      0x04\n      tag_58\n      jump\t// in\n    tag_152:\n      tag_153\n      jump\t// in\n        /* \"contracts/babyshib.sol\":7153:7240  function owner() public view virtual returns (address) {... */\n    tag_25:\n      callvalue\n      dup1\n      iszero\n      tag_154\n      jumpi\n      0x00\n      dup1\n      revert\n    tag_154:\n      pop\n        /* \"contracts/babyshib.sol\":7226:7232  _owner */\n      and(sub(shl(0xa0, 0x01), 0x01), sload(0x05))\n        /* \"contracts/babyshib.sol\":7153:7240  function owner() public view virtual returns (address) {... */\n      jump(tag_143)\n        /* \"contracts/babyshib.sol\":2758:2862  function symbol() public view virtual override returns (string memory) {... */\n    tag_26:\n      callvalue\n      dup1\n      iszero\n      tag_158\n      jumpi\n      0x00\n      dup1\n      revert\n    tag_158:\n      pop\n      tag_51\n      tag_160\n      jump\t// in\n        /* \"contracts/babyshib.sol\":19441:19553  function rescueETH(uint256 weiAmount) external onlyOwner {... */\n    tag_27:\n      callvalue\n      dup1\n      iszero\n      tag_162\n      jumpi\n      0x00\n      dup1\n      revert\n    tag_162:\n      pop\n      tag_63\n      tag_164\n      calldatasize\n      0x04\n      tag_101\n      jump\t// in\n    tag_164:\n      tag_165\n      jump\t// in\n        /* \"contracts/babyshib.sol\":11436:11846  function decreaseAllowance(address spender, uint256 subtractedValue)... */\n    tag_28:\n      callvalue\n      dup1\n      iszero\n      tag_166\n      jumpi\n      0x00\n      dup1\n      revert\n    tag_166:\n      pop\n      tag_56\n      tag_168\n      calldatasize\n      0x04\n      tag_58\n      jump\t// in\n    tag_168:\n      tag_169\n      jump\t// in\n        /* \"contracts/babyshib.sol\":8830:8849  address public pair */\n    tag_29:\n      callvalue\n      dup1\n      iszero\n      tag_171\n      jumpi\n      0x00\n      dup1\n      revert\n    tag_171:\n      pop\n      sload(0x07)\n      tag_143\n      swap1\n      sub(shl(0xa0, 0x01), 0x01)\n      and\n      dup2\n      jump\n        /* \"contracts/babyshib.sol\":11854:12019  function transfer(address recipient, uint256 amount) public override returns (bool) {... */\n    tag_30:\n      callvalue\n      dup1\n      iszero\n      tag_175\n      jumpi\n      0x00\n      dup1\n      revert\n    tag_175:\n      pop\n      tag_56\n      tag_177\n      calldatasize\n      0x04\n      tag_58\n      jump\t// in\n    tag_177:\n      tag_178\n      jump\t// in\n        /* \"contracts/babyshib.sol\":18199:18314  function updateMarketingWallet(address newWallet) external onlyOwner {... */\n    tag_31:\n      callvalue\n      dup1\n      iszero\n      tag_180\n      jumpi\n      0x00\n      dup1\n      revert\n    tag_180:\n      pop\n      tag_63\n      tag_182\n      calldatasize\n      0x04\n      tag_114\n      jump\t// in\n    tag_182:\n      tag_183\n      jump\t// in\n        /* \"contracts/babyshib.sol\":9565:9606  mapping(address => bool) public exemptFee */\n    tag_32:\n      callvalue\n      dup1\n      iszero\n      tag_184\n      jumpi\n      0x00\n      dup1\n      revert\n    tag_184:\n      pop\n      tag_56\n      tag_186\n      calldatasize\n      0x04\n      tag_114\n      jump\t// in\n    tag_186:\n      mstore(0x20, 0x12)\n      0x00\n      swap1\n      dup2\n      mstore\n      0x40\n      swap1\n      keccak256\n      sload\n      0xff\n      and\n      dup2\n      jump\n        /* \"contracts/babyshib.sol\":17437:17601  function UpdateBuyTaxes(... */\n    tag_33:\n      callvalue\n      dup1\n      iszero\n      tag_189\n      jumpi\n      0x00\n      dup1\n      revert\n    tag_189:\n      pop\n      tag_63\n      tag_191\n      calldatasize\n      0x04\n      tag_192\n      jump\t// in\n    tag_191:\n      tag_193\n      jump\t// in\n        /* \"contracts/babyshib.sol\":3476:3677  function allowance(address owner, address spender)... */\n    tag_34:\n      callvalue\n      dup1\n      iszero\n      tag_194\n      jumpi\n      0x00\n      dup1\n      revert\n    tag_194:\n      pop\n      tag_68\n      tag_196\n      calldatasize\n      0x04\n      tag_197\n      jump\t// in\n    tag_196:\n      sub(shl(0xa0, 0x01), 0x01)\n        /* \"contracts/babyshib.sol\":3642:3660  _allowances[owner] */\n      swap2\n      dup3\n      and\n        /* \"contracts/babyshib.sol\":3610:3617  uint256 */\n      0x00\n        /* \"contracts/babyshib.sol\":3642:3660  _allowances[owner] */\n      swap1\n      dup2\n      mstore\n        /* \"contracts/babyshib.sol\":3642:3653  _allowances */\n      0x01\n        /* \"contracts/babyshib.sol\":3642:3660  _allowances[owner] */\n      0x20\n      swap1\n      dup2\n      mstore\n      0x40\n      dup1\n      dup4\n      keccak256\n        /* \"contracts/babyshib.sol\":3642:3669  _allowances[owner][spender] */\n      swap4\n      swap1\n      swap5\n      and\n      dup3\n      mstore\n      swap2\n      swap1\n      swap2\n      mstore\n      keccak256\n      sload\n      swap1\n        /* \"contracts/babyshib.sol\":3476:3677  function allowance(address owner, address spender)... */\n      jump\n        /* \"contracts/babyshib.sol\":18014:18191  function updatedeadline(uint256 _deadline) external onlyOwner {... */\n    tag_35:\n      callvalue\n      dup1\n      iszero\n      tag_200\n      jumpi\n      0x00\n      dup1\n      revert\n    tag_200:\n      pop\n      tag_63\n      tag_202\n      calldatasize\n      0x04\n      tag_101\n      jump\t// in\n    tag_202:\n      tag_203\n      jump\t// in\n        /* \"contracts/babyshib.sol\":7478:7670  function transferOwnership(address newOwner) public virtual onlyOwner {... */\n    tag_36:\n      callvalue\n      dup1\n      iszero\n      tag_204\n      jumpi\n      0x00\n      dup1\n      revert\n    tag_204:\n      pop\n      tag_63\n      tag_206\n      calldatasize\n      0x04\n      tag_114\n      jump\t// in\n    tag_206:\n      tag_207\n      jump\t// in\n        /* \"contracts/babyshib.sol\":17609:17775  function SetSellTaxes(... */\n    tag_37:\n      callvalue\n      dup1\n      iszero\n      tag_208\n      jumpi\n      0x00\n      dup1\n      revert\n    tag_208:\n      pop\n      tag_63\n      tag_210\n      calldatasize\n      0x04\n      tag_192\n      jump\t// in\n    tag_210:\n      tag_211\n      jump\t// in\n        /* \"contracts/babyshib.sol\":18898:19090  function AddbulkExemptFee(address[] memory accounts) external onlyOwner {... */\n    tag_38:\n      callvalue\n      dup1\n      iszero\n      tag_212\n      jumpi\n      0x00\n      dup1\n      revert\n    tag_212:\n      pop\n      tag_63\n      tag_214\n      calldatasize\n      0x04\n      tag_86\n      jump\t// in\n    tag_214:\n      tag_215\n      jump\t// in\n        /* \"contracts/babyshib.sol\":9519:9556  Taxes public sellTaxes = Taxes(95, 0) */\n    tag_39:\n      callvalue\n      dup1\n      iszero\n      tag_216\n      jumpi\n      0x00\n      dup1\n      revert\n    tag_216:\n      pop\n      sload(0x10)\n      sload(0x11)\n      tag_129\n      swap2\n      swap1\n      dup3\n      jump\n        /* \"contracts/babyshib.sol\":8802:8823  IRouter public router */\n    tag_40:\n      callvalue\n      dup1\n      iszero\n      tag_220\n      jumpi\n      0x00\n      dup1\n      revert\n    tag_220:\n      pop\n      sload(0x06)\n      tag_143\n      swap1\n      sub(shl(0xa0, 0x01), 0x01)\n      and\n      dup2\n      jump\n        /* \"contracts/babyshib.sol\":2644:2744  function name() public view virtual override returns (string memory) {... */\n    tag_52:\n        /* \"contracts/babyshib.sol\":2698:2711  string memory */\n      0x60\n        /* \"contracts/babyshib.sol\":2731:2736  _name */\n      0x03\n        /* \"contracts/babyshib.sol\":2724:2736  return _name */\n      dup1\n      sload\n      tag_226\n      swap1\n      tag_227\n      jump\t// in\n    tag_226:\n      dup1\n      0x1f\n      add\n      0x20\n      dup1\n      swap2\n      div\n      mul\n      0x20\n      add\n      mload(0x40)\n      swap1\n      dup2\n      add\n      0x40\n      mstore\n      dup1\n      swap3\n      swap2\n      swap1\n      dup2\n      dup2\n      mstore\n      0x20\n      add\n      dup3\n      dup1\n      sload\n      tag_228\n      swap1\n      tag_227\n      jump\t// in\n    tag_228:\n      dup1\n      iszero\n      tag_229\n      jumpi\n      dup1\n      0x1f\n      lt\n      tag_230\n      jumpi\n      0x0100\n      dup1\n      dup4\n      sload\n      div\n      mul\n      dup4\n      mstore\n      swap2\n      0x20\n      add\n      swap2\n      jump(tag_229)\n    tag_230:\n      dup3\n      add\n      swap2\n      swap1\n      0x00\n      mstore\n      keccak256(0x00, 0x20)\n      swap1\n    tag_231:\n      dup2\n      sload\n      dup2\n      mstore\n      swap1\n      0x01\n      add\n      swap1\n      0x20\n      add\n      dup1\n      dup4\n      gt\n      tag_231\n      jumpi\n      dup3\n      swap1\n      sub\n      0x1f\n      and\n      dup3\n      add\n      swap2\n    tag_229:\n      pop\n      pop\n      pop\n      pop\n      pop\n      swap1\n      pop\n        /* \"contracts/babyshib.sol\":2644:2744  function name() public view virtual override returns (string memory) {... */\n      swap1\n      jump\t// out\n        /* \"contracts/babyshib.sol\":10555:10716  function approve(address spender, uint256 amount) public override returns (bool) {... */\n    tag_59:\n        /* \"contracts/babyshib.sol\":10630:10634  bool */\n      0x00\n        /* \"contracts/babyshib.sol\":10647:10686  _approve(_msgSender(), spender, amount) */\n      tag_233\n        /* \"contracts/babyshib.sol\":807:817  msg.sender */\n      caller\n        /* \"contracts/babyshib.sol\":10670:10677  spender */\n      dup5\n        /* \"contracts/babyshib.sol\":10679:10685  amount */\n      dup5\n        /* \"contracts/babyshib.sol\":10647:10655  _approve */\n      tag_236\n        /* \"contracts/babyshib.sol\":10647:10686  _approve(_msgSender(), spender, amount) */\n      jump\t// in\n    tag_233:\n      pop\n        /* \"contracts/babyshib.sol\":10704:10708  true */\n      0x01\n        /* \"contracts/babyshib.sol\":10555:10716  function approve(address spender, uint256 amount) public override returns (bool) {... */\n    tag_232:\n      swap3\n      swap2\n      pop\n      pop\n      jump\t// out\n        /* \"contracts/babyshib.sol\":17092:17244  function updateLiquidityProvide(bool state) external onlyOwner {... */\n    tag_66:\n        /* \"contracts/babyshib.sol\":7226:7232  _owner */\n      and(sub(shl(0xa0, 0x01), 0x01), sload(0x05))\n        /* \"contracts/babyshib.sol\":807:817  msg.sender */\n      caller\n        /* \"contracts/babyshib.sol\":7288:7311  owner() == _msgSender() */\n      eq\n        /* \"contracts/babyshib.sol\":7280:7348  require(owner() == _msgSender(), \"Ownable: caller is not the owner\") */\n      tag_240\n      jumpi\n      mload(0x40)\n      shl(0xe5, 0x461bcd)\n      dup2\n      mstore\n      0x04\n      add\n      tag_241\n      swap1\n      tag_242\n      jump\t// in\n    tag_241:\n      mload(0x40)\n      dup1\n      swap2\n      sub\n      swap1\n      revert\n    tag_240:\n        /* \"contracts/babyshib.sol\":17210:17228  providingLiquidity */\n      0x07\n        /* \"contracts/babyshib.sol\":17210:17236  providingLiquidity = state */\n      dup1\n      sload\n      swap2\n      iszero\n      iszero\n      shl(0xa8, 0x01)\n      mul\n      not(shl(0xa8, 0xff))\n      swap1\n      swap3\n      and\n      swap2\n      swap1\n      swap2\n      or\n      swap1\n      sstore\n        /* \"contracts/babyshib.sol\":17092:17244  function updateLiquidityProvide(bool state) external onlyOwner {... */\n      jump\t// out\n        /* \"contracts/babyshib.sol\":18454:18662  function bulkIsEarlyBuyer(address[] memory accounts, bool state) external onlyOwner {... */\n    tag_76:\n        /* \"contracts/babyshib.sol\":7226:7232  _owner */\n      and(sub(shl(0xa0, 0x01), 0x01), sload(0x05))\n        /* \"contracts/babyshib.sol\":807:817  msg.sender */\n      caller\n        /* \"contracts/babyshib.sol\":7288:7311  owner() == _msgSender() */\n      eq\n        /* \"contracts/babyshib.sol\":7280:7348  require(owner() == _msgSender(), \"Ownable: caller is not the owner\") */\n      tag_248\n      jumpi\n      mload(0x40)\n      shl(0xe5, 0x461bcd)\n      dup2\n      mstore\n      0x04\n      add\n      tag_241\n      swap1\n      tag_242\n      jump\t// in\n    tag_248:\n        /* \"contracts/babyshib.sol\":18554:18563  uint256 i */\n      0x00\n        /* \"contracts/babyshib.sol\":18549:18655  for (uint256 i = 0; i < accounts.length; i++) {... */\n    tag_251:\n        /* \"contracts/babyshib.sol\":18573:18581  accounts */\n      dup3\n        /* \"contracts/babyshib.sol\":18573:18588  accounts.length */\n      mload\n        /* \"contracts/babyshib.sol\":18569:18570  i */\n      dup2\n        /* \"contracts/babyshib.sol\":18569:18588  i < accounts.length */\n      lt\n        /* \"contracts/babyshib.sol\":18549:18655  for (uint256 i = 0; i < accounts.length; i++) {... */\n      iszero\n      tag_252\n      jumpi\n        /* \"contracts/babyshib.sol\":18638:18643  state */\n      dup2\n        /* \"contracts/babyshib.sol\":18610:18622  isearlybuyer */\n      0x13\n        /* \"contracts/babyshib.sol\":18610:18635  isearlybuyer[accounts[i]] */\n      0x00\n        /* \"contracts/babyshib.sol\":18623:18631  accounts */\n      dup6\n        /* \"contracts/babyshib.sol\":18632:18633  i */\n      dup5\n        /* \"contracts/babyshib.sol\":18623:18634  accounts[i] */\n      dup2\n      mload\n      dup2\n      lt\n      tag_255\n      jumpi\n      tag_255\n      tag_256\n      jump\t// in\n    tag_255:\n      0x20\n      swap1\n      dup2\n      mul\n      swap2\n      swap1\n      swap2\n      add\n      dup2\n      add\n      mload\n      sub(shl(0xa0, 0x01), 0x01)\n        /* \"contracts/babyshib.sol\":18610:18635  isearlybuyer[accounts[i]] */\n      and\n      dup3\n      mstore\n      dup2\n      add\n      swap2\n      swap1\n      swap2\n      mstore\n      0x40\n      add\n      0x00\n      keccak256\n        /* \"contracts/babyshib.sol\":18610:18643  isearlybuyer[accounts[i]] = state */\n      dup1\n      sload\n      not(0xff)\n      and\n      swap2\n      iszero\n      iszero\n      swap2\n      swap1\n      swap2\n      or\n      swap1\n      sstore\n        /* \"contracts/babyshib.sol\":18590:18593  i++ */\n      dup1\n      tag_257\n      dup2\n      tag_258\n      jump\t// in\n    tag_257:\n      swap2\n      pop\n      pop\n        /* \"contracts/babyshib.sol\":18549:18655  for (uint256 i = 0; i < accounts.length; i++) {... */\n      jump(tag_251)\n    tag_252:\n      pop\n        /* \"contracts/babyshib.sol\":18454:18662  function bulkIsEarlyBuyer(address[] memory accounts, bool state) external onlyOwner {... */\n      pop\n      pop\n      jump\t// out\n        /* \"contracts/babyshib.sol\":10724:11172  function transferFrom(... */\n    tag_81:\n        /* \"contracts/babyshib.sol\":10856:10860  bool */\n      0x00\n        /* \"contracts/babyshib.sol\":10873:10909  _transfer(sender, recipient, amount) */\n      tag_260\n        /* \"contracts/babyshib.sol\":10883:10889  sender */\n      dup5\n        /* \"contracts/babyshib.sol\":10891:10900  recipient */\n      dup5\n        /* \"contracts/babyshib.sol\":10902:10908  amount */\n      dup5\n        /* \"contracts/babyshib.sol\":10873:10882  _transfer */\n      tag_261\n        /* \"contracts/babyshib.sol\":10873:10909  _transfer(sender, recipient, amount) */\n      jump\t// in\n    tag_260:\n      sub(shl(0xa0, 0x01), 0x01)\n        /* \"contracts/babyshib.sol\":10949:10968  _allowances[sender] */\n      dup5\n      and\n        /* \"contracts/babyshib.sol\":10922:10946  uint256 currentAllowance */\n      0x00\n        /* \"contracts/babyshib.sol\":10949:10968  _allowances[sender] */\n      swap1\n      dup2\n      mstore\n        /* \"contracts/babyshib.sol\":10949:10960  _allowances */\n      0x01\n        /* \"contracts/babyshib.sol\":10949:10968  _allowances[sender] */\n      0x20\n      swap1\n      dup2\n      mstore\n      0x40\n      dup1\n      dup4\n      keccak256\n        /* \"contracts/babyshib.sol\":807:817  msg.sender */\n      caller\n        /* \"contracts/babyshib.sol\":10949:10982  _allowances[sender][_msgSender()] */\n      dup5\n      mstore\n      swap1\n      swap2\n      mstore\n      swap1\n      keccak256\n      sload\n        /* \"contracts/babyshib.sol\":11001:11027  currentAllowance >= amount */\n      dup3\n      dup2\n      lt\n      iszero\n        /* \"contracts/babyshib.sol\":10993:11072  require(currentAllowance >= amount, \"ERC20: transfer amount exceeds allowance\") */\n      tag_263\n      jumpi\n      mload(0x40)\n      shl(0xe5, 0x461bcd)\n      dup2\n      mstore\n        /* \"#utility.yul\":7941:7943   */\n      0x20\n        /* \"contracts/babyshib.sol\":10993:11072  require(currentAllowance >= amount, \"ERC20: transfer amount exceeds allowance\") */\n      0x04\n      dup3\n      add\n        /* \"#utility.yul\":7923:7944   */\n      mstore\n        /* \"#utility.yul\":7980:7982   */\n      0x28\n        /* \"#utility.yul\":7960:7978   */\n      0x24\n      dup3\n      add\n        /* \"#utility.yul\":7953:7983   */\n      mstore\n        /* \"#utility.yul\":8019:8053   */\n      0x45524332303a207472616e7366657220616d6f756e7420657863656564732061\n        /* \"#utility.yul\":7999:8017   */\n      0x44\n      dup3\n      add\n        /* \"#utility.yul\":7992:8054   */\n      mstore\n      shl(0xc0, 0x6c6c6f77616e6365)\n        /* \"#utility.yul\":8070:8088   */\n      0x64\n      dup3\n      add\n        /* \"#utility.yul\":8063:8101   */\n      mstore\n        /* \"#utility.yul\":8118:8137   */\n      0x84\n      add\n        /* \"contracts/babyshib.sol\":10993:11072  require(currentAllowance >= amount, \"ERC20: transfer amount exceeds allowance\") */\n      tag_241\n        /* \"#utility.yul\":7739:8143   */\n      jump\n        /* \"contracts/babyshib.sol\":10993:11072  require(currentAllowance >= amount, \"ERC20: transfer amount exceeds allowance\") */\n    tag_263:\n        /* \"contracts/babyshib.sol\":11083:11140  _approve(sender, _msgSender(), currentAllowance - amount) */\n      tag_266\n        /* \"contracts/babyshib.sol\":11092:11098  sender */\n      dup6\n        /* \"contracts/babyshib.sol\":807:817  msg.sender */\n      caller\n        /* \"contracts/babyshib.sol\":11114:11139  currentAllowance - amount */\n      tag_268\n        /* \"contracts/babyshib.sol\":11133:11139  amount */\n      dup7\n        /* \"contracts/babyshib.sol\":11114:11130  currentAllowance */\n      dup6\n        /* \"contracts/babyshib.sol\":11114:11139  currentAllowance - amount */\n      tag_269\n      jump\t// in\n    tag_268:\n        /* \"contracts/babyshib.sol\":11083:11091  _approve */\n      tag_236\n        /* \"contracts/babyshib.sol\":11083:11140  _approve(sender, _msgSender(), currentAllowance - amount) */\n      jump\t// in\n    tag_266:\n      pop\n        /* \"contracts/babyshib.sol\":11160:11164  true */\n      0x01\n      swap5\n        /* \"contracts/babyshib.sol\":10724:11172  function transferFrom(... */\n      swap4\n      pop\n      pop\n      pop\n      pop\n      jump\t// out\n        /* \"contracts/babyshib.sol\":19098:19294  function RemovebulkExemptFee(address[] memory accounts) external onlyOwner {... */\n    tag_87:\n        /* \"contracts/babyshib.sol\":7226:7232  _owner */\n      and(sub(shl(0xa0, 0x01), 0x01), sload(0x05))\n        /* \"contracts/babyshib.sol\":807:817  msg.sender */\n      caller\n        /* \"contracts/babyshib.sol\":7288:7311  owner() == _msgSender() */\n      eq\n        /* \"contracts/babyshib.sol\":7280:7348  require(owner() == _msgSender(), \"Ownable: caller is not the owner\") */\n      tag_273\n      jumpi\n      mload(0x40)\n      shl(0xe5, 0x461bcd)\n      dup2\n      mstore\n      0x04\n      add\n      tag_241\n      swap1\n      tag_242\n      jump\t// in\n    tag_273:\n        /* \"contracts/babyshib.sol\":19189:19198  uint256 i */\n      0x00\n        /* \"contracts/babyshib.sol\":19184:19287  for (uint256 i = 0; i < accounts.length; i++) {... */\n    tag_276:\n        /* \"contracts/babyshib.sol\":19208:19216  accounts */\n      dup2\n        /* \"contracts/babyshib.sol\":19208:19223  accounts.length */\n      mload\n        /* \"contracts/babyshib.sol\":19204:19205  i */\n      dup2\n        /* \"contracts/babyshib.sol\":19204:19223  i < accounts.length */\n      lt\n        /* \"contracts/babyshib.sol\":19184:19287  for (uint256 i = 0; i < accounts.length; i++) {... */\n      iszero\n      tag_277\n      jumpi\n        /* \"contracts/babyshib.sol\":19270:19275  false */\n      0x00\n        /* \"contracts/babyshib.sol\":19245:19254  exemptFee */\n      0x12\n        /* \"contracts/babyshib.sol\":19245:19267  exemptFee[accounts[i]] */\n      0x00\n        /* \"contracts/babyshib.sol\":19255:19263  accounts */\n      dup5\n        /* \"contracts/babyshib.sol\":19264:19265  i */\n      dup5\n        /* \"contracts/babyshib.sol\":19255:19266  accounts[i] */\n      dup2\n      mload\n      dup2\n      lt\n      tag_280\n      jumpi\n      tag_280\n      tag_256\n      jump\t// in\n    tag_280:\n      0x20\n      swap1\n      dup2\n      mul\n      swap2\n      swap1\n      swap2\n      add\n      dup2\n      add\n      mload\n      sub(shl(0xa0, 0x01), 0x01)\n        /* \"contracts/babyshib.sol\":19245:19267  exemptFee[accounts[i]] */\n      and\n      dup3\n      mstore\n      dup2\n      add\n      swap2\n      swap1\n      swap2\n      mstore\n      0x40\n      add\n      0x00\n      keccak256\n        /* \"contracts/babyshib.sol\":19245:19275  exemptFee[accounts[i]] = false */\n      dup1\n      sload\n      not(0xff)\n      and\n      swap2\n      iszero\n      iszero\n      swap2\n      swap1\n      swap2\n      or\n      swap1\n      sstore\n        /* \"contracts/babyshib.sol\":19225:19228  i++ */\n      dup1\n      tag_281\n      dup2\n      tag_258\n      jump\t// in\n    tag_281:\n      swap2\n      pop\n      pop\n        /* \"contracts/babyshib.sol\":19184:19287  for (uint256 i = 0; i < accounts.length; i++) {... */\n      jump(tag_276)\n    tag_277:\n      pop\n        /* \"contracts/babyshib.sol\":19098:19294  function RemovebulkExemptFee(address[] memory accounts) external onlyOwner {... */\n      pop\n      jump\t// out\n        /* \"contracts/babyshib.sol\":11180:11428  function increaseAllowance(address spender, uint256 addedValue)... */\n    tag_96:\n        /* \"contracts/babyshib.sol\":807:817  msg.sender */\n      caller\n        /* \"contracts/babyshib.sol\":11296:11300  bool */\n      0x00\n        /* \"contracts/babyshib.sol\":11350:11375  _allowances[_msgSender()] */\n      dup2\n      dup2\n      mstore\n        /* \"contracts/babyshib.sol\":11350:11361  _allowances */\n      0x01\n        /* \"contracts/babyshib.sol\":11350:11375  _allowances[_msgSender()] */\n      0x20\n      swap1\n      dup2\n      mstore\n      0x40\n      dup1\n      dup4\n      keccak256\n      sub(shl(0xa0, 0x01), 0x01)\n        /* \"contracts/babyshib.sol\":11350:11384  _allowances[_msgSender()][spender] */\n      dup8\n      and\n      dup5\n      mstore\n      swap1\n      swap2\n      mstore\n      dup2\n      keccak256\n      sload\n        /* \"contracts/babyshib.sol\":11296:11300  bool */\n      swap1\n      swap2\n        /* \"contracts/babyshib.sol\":11318:11398  _approve(_msgSender(), spender, _allowances[_msgSender()][spender] + addedValue) */\n      tag_233\n      swap2\n        /* \"contracts/babyshib.sol\":11341:11348  spender */\n      dup6\n      swap1\n        /* \"contracts/babyshib.sol\":11350:11397  _allowances[_msgSender()][spender] + addedValue */\n      tag_268\n      swap1\n        /* \"contracts/babyshib.sol\":11387:11397  addedValue */\n      dup7\n      swap1\n        /* \"contracts/babyshib.sol\":11350:11397  _allowances[_msgSender()][spender] + addedValue */\n      tag_288\n      jump\t// in\n        /* \"contracts/babyshib.sol\":17252:17429  function updateLiquidityTreshhold(uint256 new_amount) external onlyOwner {... */\n    tag_102:\n        /* \"contracts/babyshib.sol\":7226:7232  _owner */\n      and(sub(shl(0xa0, 0x01), 0x01), sload(0x05))\n        /* \"contracts/babyshib.sol\":807:817  msg.sender */\n      caller\n        /* \"contracts/babyshib.sol\":7288:7311  owner() == _msgSender() */\n      eq\n        /* \"contracts/babyshib.sol\":7280:7348  require(owner() == _msgSender(), \"Ownable: caller is not the owner\") */\n      tag_292\n      jumpi\n      mload(0x40)\n      shl(0xe5, 0x461bcd)\n      dup2\n      mstore\n      0x04\n      add\n      tag_241\n      swap1\n      tag_242\n      jump\t// in\n    tag_292:\n        /* \"contracts/babyshib.sol\":17407:17421  10**decimals() */\n      tag_296\n        /* \"contracts/babyshib.sol\":2959:2961  18 */\n      0x12\n        /* \"contracts/babyshib.sol\":17407:17409  10 */\n      0x0a\n        /* \"contracts/babyshib.sol\":17407:17421  10**decimals() */\n      tag_297\n      jump\t// in\n    tag_296:\n        /* \"contracts/babyshib.sol\":17394:17421  new_amount * 10**decimals() */\n      tag_298\n      swap1\n        /* \"contracts/babyshib.sol\":17394:17404  new_amount */\n      dup3\n        /* \"contracts/babyshib.sol\":17394:17421  new_amount * 10**decimals() */\n      tag_299\n      jump\t// in\n    tag_298:\n        /* \"contracts/babyshib.sol\":17368:17391  tokenLiquidityThreshold */\n      0x08\n        /* \"contracts/babyshib.sol\":17368:17421  tokenLiquidityThreshold = new_amount * 10**decimals() */\n      sstore\n      pop\n        /* \"contracts/babyshib.sol\":17252:17429  function updateLiquidityTreshhold(uint256 new_amount) external onlyOwner {... */\n      jump\t// out\n        /* \"contracts/babyshib.sol\":19302:19433  function updateMaxWalletLimit(uint256 maxWallet) external onlyOwner {... */\n    tag_106:\n        /* \"contracts/babyshib.sol\":7226:7232  _owner */\n      and(sub(shl(0xa0, 0x01), 0x01), sload(0x05))\n        /* \"contracts/babyshib.sol\":807:817  msg.sender */\n      caller\n        /* \"contracts/babyshib.sol\":7288:7311  owner() == _msgSender() */\n      eq\n        /* \"contracts/babyshib.sol\":7280:7348  require(owner() == _msgSender(), \"Ownable: caller is not the owner\") */\n      tag_303\n      jumpi\n      mload(0x40)\n      shl(0xe5, 0x461bcd)\n      dup2\n      mstore\n      0x04\n      add\n      tag_241\n      swap1\n      tag_242\n      jump\t// in\n    tag_303:\n        /* \"contracts/babyshib.sol\":19410:19424  10**decimals() */\n      tag_307\n        /* \"contracts/babyshib.sol\":2959:2961  18 */\n      0x12\n        /* \"contracts/babyshib.sol\":19410:19412  10 */\n      0x0a\n        /* \"contracts/babyshib.sol\":19410:19424  10**decimals() */\n      tag_297\n      jump\t// in\n    tag_307:\n        /* \"contracts/babyshib.sol\":19398:19424  maxWallet * 10**decimals() */\n      tag_308\n      swap1\n        /* \"contracts/babyshib.sol\":19398:19407  maxWallet */\n      dup3\n        /* \"contracts/babyshib.sol\":19398:19424  maxWallet * 10**decimals() */\n      tag_299\n      jump\t// in\n    tag_308:\n        /* \"contracts/babyshib.sol\":19381:19395  maxWalletLimit */\n      0x09\n        /* \"contracts/babyshib.sol\":19381:19424  maxWalletLimit = maxWallet * 10**decimals() */\n      sstore\n      pop\n        /* \"contracts/babyshib.sol\":19302:19433  function updateMaxWalletLimit(uint256 maxWallet) external onlyOwner {... */\n      jump\t// out\n        /* \"contracts/babyshib.sol\":18670:18774  function AddExemptFee(address _address) external onlyOwner {... */\n    tag_115:\n        /* \"contracts/babyshib.sol\":7226:7232  _owner */\n      and(sub(shl(0xa0, 0x01), 0x01), sload(0x05))\n        /* \"contracts/babyshib.sol\":807:817  msg.sender */\n      caller\n        /* \"contracts/babyshib.sol\":7288:7311  owner() == _msgSender() */\n      eq\n        /* \"contracts/babyshib.sol\":7280:7348  require(owner() == _msgSender(), \"Ownable: caller is not the owner\") */\n      tag_312\n      jumpi\n      mload(0x40)\n      shl(0xe5, 0x461bcd)\n      dup2\n      mstore\n      0x04\n      add\n      tag_241\n      swap1\n      tag_242\n      jump\t// in\n    tag_312:\n      sub(shl(0xa0, 0x01), 0x01)\n        /* \"contracts/babyshib.sol\":18740:18759  exemptFee[_address] */\n      and\n      0x00\n      swap1\n      dup2\n      mstore\n        /* \"contracts/babyshib.sol\":18740:18749  exemptFee */\n      0x12\n        /* \"contracts/babyshib.sol\":18740:18759  exemptFee[_address] */\n      0x20\n      mstore\n      0x40\n      swap1\n      keccak256\n        /* \"contracts/babyshib.sol\":18740:18766  exemptFee[_address] = true */\n      dup1\n      sload\n      not(0xff)\n      and\n        /* \"contracts/babyshib.sol\":18762:18766  true */\n      0x01\n        /* \"contracts/babyshib.sol\":18740:18766  exemptFee[_address] = true */\n      or\n      swap1\n      sstore\n        /* \"contracts/babyshib.sol\":18670:18774  function AddExemptFee(address _address) external onlyOwner {... */\n      jump\t// out\n        /* \"contracts/babyshib.sol\":7376:7470  function renounceOwnership() public virtual onlyOwner {... */\n    tag_127:\n        /* \"contracts/babyshib.sol\":7226:7232  _owner */\n      and(sub(shl(0xa0, 0x01), 0x01), sload(0x05))\n        /* \"contracts/babyshib.sol\":807:817  msg.sender */\n      caller\n        /* \"contracts/babyshib.sol\":7288:7311  owner() == _msgSender() */\n      eq\n        /* \"contracts/babyshib.sol\":7280:7348  require(owner() == _msgSender(), \"Ownable: caller is not the owner\") */\n      tag_319\n      jumpi\n      mload(0x40)\n      shl(0xe5, 0x461bcd)\n      dup2\n      mstore\n      0x04\n      add\n      tag_241\n      swap1\n      tag_242\n      jump\t// in\n    tag_319:\n        /* \"contracts/babyshib.sol\":7441:7462  _setOwner(address(0)) */\n      tag_322\n        /* \"contracts/babyshib.sol\":7459:7460  0 */\n      0x00\n        /* \"contracts/babyshib.sol\":7441:7450  _setOwner */\n      tag_323\n        /* \"contracts/babyshib.sol\":7441:7462  _setOwner(address(0)) */\n      jump\t// in\n    tag_322:\n        /* \"contracts/babyshib.sol\":7376:7470  function renounceOwnership() public virtual onlyOwner {... */\n      jump\t// out\n        /* \"contracts/babyshib.sol\":18782:18890  function RemoveExemptFee(address _address) external onlyOwner {... */\n    tag_136:\n        /* \"contracts/babyshib.sol\":7226:7232  _owner */\n      and(sub(shl(0xa0, 0x01), 0x01), sload(0x05))\n        /* \"contracts/babyshib.sol\":807:817  msg.sender */\n      caller\n        /* \"contracts/babyshib.sol\":7288:7311  owner() == _msgSender() */\n      eq\n        /* \"contracts/babyshib.sol\":7280:7348  require(owner() == _msgSender(), \"Ownable: caller is not the owner\") */\n      tag_327\n      jumpi\n      mload(0x40)\n      shl(0xe5, 0x461bcd)\n      dup2\n      mstore\n      0x04\n      add\n      tag_241\n      swap1\n      tag_242\n      jump\t// in\n    tag_327:\n      sub(shl(0xa0, 0x01), 0x01)\n        /* \"contracts/babyshib.sol\":18855:18874  exemptFee[_address] */\n      and\n        /* \"contracts/babyshib.sol\":18877:18882  false */\n      0x00\n        /* \"contracts/babyshib.sol\":18855:18874  exemptFee[_address] */\n      swap1\n      dup2\n      mstore\n        /* \"contracts/babyshib.sol\":18855:18864  exemptFee */\n      0x12\n        /* \"contracts/babyshib.sol\":18855:18874  exemptFee[_address] */\n      0x20\n      mstore\n      0x40\n      swap1\n      keccak256\n        /* \"contracts/babyshib.sol\":18855:18882  exemptFee[_address] = false */\n      dup1\n      sload\n      not(0xff)\n      and\n      swap1\n      sstore\n        /* \"contracts/babyshib.sol\":18782:18890  function RemoveExemptFee(address _address) external onlyOwner {... */\n      jump\t// out\n        /* \"contracts/babyshib.sol\":18322:18446  function updateIsEarlyBuyer(address account, bool state) external onlyOwner {... */\n    tag_141:\n        /* \"contracts/babyshib.sol\":7226:7232  _owner */\n      and(sub(shl(0xa0, 0x01), 0x01), sload(0x05))\n        /* \"contracts/babyshib.sol\":807:817  msg.sender */\n      caller\n        /* \"contracts/babyshib.sol\":7288:7311  owner() == _msgSender() */\n      eq\n        /* \"contracts/babyshib.sol\":7280:7348  require(owner() == _msgSender(), \"Ownable: caller is not the owner\") */\n      tag_333\n      jumpi\n      mload(0x40)\n      shl(0xe5, 0x461bcd)\n      dup2\n      mstore\n      0x04\n      add\n      tag_241\n      swap1\n      tag_242\n      jump\t// in\n    tag_333:\n      sub(shl(0xa0, 0x01), 0x01)\n        /* \"contracts/babyshib.sol\":18409:18430  isearlybuyer[account] */\n      swap2\n      swap1\n      swap2\n      and\n      0x00\n      swap1\n      dup2\n      mstore\n        /* \"contracts/babyshib.sol\":18409:18421  isearlybuyer */\n      0x13\n        /* \"contracts/babyshib.sol\":18409:18430  isearlybuyer[account] */\n      0x20\n      mstore\n      0x40\n      swap1\n      keccak256\n        /* \"contracts/babyshib.sol\":18409:18438  isearlybuyer[account] = state */\n      dup1\n      sload\n      not(0xff)\n      and\n      swap2\n      iszero\n      iszero\n      swap2\n      swap1\n      swap2\n      or\n      swap1\n      sstore\n        /* \"contracts/babyshib.sol\":18322:18446  function updateIsEarlyBuyer(address account, bool state) external onlyOwner {... */\n      jump\t// out\n        /* \"contracts/babyshib.sol\":17782:18006  function enableTrading() external onlyOwner {... */\n    tag_149:\n        /* \"contracts/babyshib.sol\":7226:7232  _owner */\n      and(sub(shl(0xa0, 0x01), 0x01), sload(0x05))\n        /* \"contracts/babyshib.sol\":807:817  msg.sender */\n      caller\n        /* \"contracts/babyshib.sol\":7288:7311  owner() == _msgSender() */\n      eq\n        /* \"contracts/babyshib.sol\":7280:7348  require(owner() == _msgSender(), \"Ownable: caller is not the owner\") */\n      tag_339\n      jumpi\n      mload(0x40)\n      shl(0xe5, 0x461bcd)\n      dup2\n      mstore\n      0x04\n      add\n      tag_241\n      swap1\n      tag_242\n      jump\t// in\n    tag_339:\n        /* \"contracts/babyshib.sol\":17846:17860  tradingEnabled */\n      sload(0x07)\n      shl(0xb0, 0x01)\n      swap1\n      div\n      0xff\n      and\n        /* \"contracts/babyshib.sol\":17845:17860  !tradingEnabled */\n      iszero\n        /* \"contracts/babyshib.sol\":17837:17891  require(!tradingEnabled, \"Trading is already enabled\") */\n      tag_342\n      jumpi\n      mload(0x40)\n      shl(0xe5, 0x461bcd)\n      dup2\n      mstore\n        /* \"#utility.yul\":10169:10171   */\n      0x20\n        /* \"contracts/babyshib.sol\":17837:17891  require(!tradingEnabled, \"Trading is already enabled\") */\n      0x04\n      dup3\n      add\n        /* \"#utility.yul\":10151:10172   */\n      mstore\n        /* \"#utility.yul\":10208:10210   */\n      0x1a\n        /* \"#utility.yul\":10188:10206   */\n      0x24\n      dup3\n      add\n        /* \"#utility.yul\":10181:10211   */\n      mstore\n        /* \"#utility.yul\":10247:10275   */\n      0x54726164696e6720697320616c726561647920656e61626c6564000000000000\n        /* \"#utility.yul\":10227:10245   */\n      0x44\n      dup3\n      add\n        /* \"#utility.yul\":10220:10276   */\n      mstore\n        /* \"#utility.yul\":10293:10311   */\n      0x64\n      add\n        /* \"contracts/babyshib.sol\":17837:17891  require(!tradingEnabled, \"Trading is already enabled\") */\n      tag_241\n        /* \"#utility.yul\":9967:10317   */\n      jump\n        /* \"contracts/babyshib.sol\":17837:17891  require(!tradingEnabled, \"Trading is already enabled\") */\n    tag_342:\n        /* \"contracts/babyshib.sol\":17902:17916  tradingEnabled */\n      0x07\n        /* \"contracts/babyshib.sol\":17902:17923  tradingEnabled = true */\n      dup1\n      sload\n      not(shl(0xa8, 0xffff))\n        /* \"contracts/babyshib.sol\":17934:17959  providingLiquidity = true */\n      and\n      shl(0xa8, 0x0101)\n      or\n      swap1\n      sstore\n        /* \"contracts/babyshib.sol\":17986:17998  block.number */\n      number\n        /* \"contracts/babyshib.sol\":17970:17983  genesis_block */\n      0x0a\n        /* \"contracts/babyshib.sol\":17970:17998  genesis_block = block.number */\n      sstore\n        /* \"contracts/babyshib.sol\":17782:18006  function enableTrading() external onlyOwner {... */\n      jump\t// out\n        /* \"contracts/babyshib.sol\":19561:19696  function rescueERC20(address tokenAdd, uint256 amount) external onlyOwner {... */\n    tag_153:\n        /* \"contracts/babyshib.sol\":7226:7232  _owner */\n      and(sub(shl(0xa0, 0x01), 0x01), sload(0x05))\n        /* \"contracts/babyshib.sol\":807:817  msg.sender */\n      caller\n        /* \"contracts/babyshib.sol\":7288:7311  owner() == _msgSender() */\n      eq\n        /* \"contracts/babyshib.sol\":7280:7348  require(owner() == _msgSender(), \"Ownable: caller is not the owner\") */\n      tag_348\n      jumpi\n      mload(0x40)\n      shl(0xe5, 0x461bcd)\n      dup2\n      mstore\n      0x04\n      add\n      tag_241\n      swap1\n      tag_242\n      jump\t// in\n    tag_348:\n        /* \"contracts/babyshib.sol\":19653:19661  tokenAdd */\n      dup2\n      sub(shl(0xa0, 0x01), 0x01)\n        /* \"contracts/babyshib.sol\":19646:19671  IERC20(tokenAdd).transfer */\n      and\n      0xa9059cbb\n        /* \"contracts/babyshib.sol\":19672:19679  owner() */\n      tag_351\n        /* \"contracts/babyshib.sol\":7226:7232  _owner */\n      and(sub(shl(0xa0, 0x01), 0x01), sload(0x05))\n      swap1\n        /* \"contracts/babyshib.sol\":7153:7240  function owner() public view virtual returns (address) {... */\n      jump\n        /* \"contracts/babyshib.sol\":19672:19679  owner() */\n    tag_351:\n        /* \"contracts/babyshib.sol\":19646:19688  IERC20(tokenAdd).transfer(owner(), amount) */\n      mload(0x40)\n      not(sub(shl(0xe0, 0x01), 0x01))\n      0xe0\n      dup5\n      swap1\n      shl\n      and\n      dup2\n      mstore\n      sub(shl(0xa0, 0x01), 0x01)\n        /* \"#utility.yul\":10514:10546   */\n      swap1\n      swap2\n      and\n        /* \"contracts/babyshib.sol\":19646:19688  IERC20(tokenAdd).transfer(owner(), amount) */\n      0x04\n      dup3\n      add\n        /* \"#utility.yul\":10496:10547   */\n      mstore\n        /* \"#utility.yul\":10563:10581   */\n      0x24\n      dup2\n      add\n        /* \"#utility.yul\":10556:10590   */\n      dup5\n      swap1\n      mstore\n        /* \"#utility.yul\":10469:10487   */\n      0x44\n      add\n        /* \"contracts/babyshib.sol\":19646:19688  IERC20(tokenAdd).transfer(owner(), amount) */\n      0x20\n      mload(0x40)\n      dup1\n      dup4\n      sub\n      dup2\n      0x00\n      dup8\n      gas\n      call\n      iszero\n      dup1\n      iszero\n      tag_355\n      jumpi\n      returndatasize\n      0x00\n      dup1\n      returndatacopy\n      revert(0x00, returndatasize)\n    tag_355:\n      pop\n      pop\n      pop\n      pop\n      mload(0x40)\n      returndatasize\n      not(0x1f)\n      0x1f\n      dup3\n      add\n      and\n      dup3\n      add\n      dup1\n      0x40\n      mstore\n      pop\n      dup2\n      add\n      swap1\n      tag_252\n      swap2\n      swap1\n      tag_357\n      jump\t// in\n        /* \"contracts/babyshib.sol\":2758:2862  function symbol() public view virtual override returns (string memory) {... */\n    tag_160:\n        /* \"contracts/babyshib.sol\":2814:2827  string memory */\n      0x60\n        /* \"contracts/babyshib.sol\":2847:2854  _symbol */\n      0x04\n        /* \"contracts/babyshib.sol\":2840:2854  return _symbol */\n      dup1\n      sload\n      tag_226\n      swap1\n      tag_227\n      jump\t// in\n        /* \"contracts/babyshib.sol\":19441:19553  function rescueETH(uint256 weiAmount) external onlyOwner {... */\n    tag_165:\n        /* \"contracts/babyshib.sol\":7226:7232  _owner */\n      and(sub(shl(0xa0, 0x01), 0x01), sload(0x05))\n        /* \"contracts/babyshib.sol\":807:817  msg.sender */\n      caller\n        /* \"contracts/babyshib.sol\":7288:7311  owner() == _msgSender() */\n      eq\n        /* \"contracts/babyshib.sol\":7280:7348  require(owner() == _msgSender(), \"Ownable: caller is not the owner\") */\n      tag_368\n      jumpi\n      mload(0x40)\n      shl(0xe5, 0x461bcd)\n      dup2\n      mstore\n      0x04\n      add\n      tag_241\n      swap1\n      tag_242\n      jump\t// in\n    tag_368:\n        /* \"contracts/babyshib.sol\":7226:7232  _owner */\n      sload(0x05)\n        /* \"contracts/babyshib.sol\":19509:19545  payable(owner()).transfer(weiAmount) */\n      mload(0x40)\n      sub(shl(0xa0, 0x01), 0x01)\n        /* \"contracts/babyshib.sol\":7226:7232  _owner */\n      swap1\n      swap2\n      and\n      swap1\n        /* \"contracts/babyshib.sol\":19509:19545  payable(owner()).transfer(weiAmount) */\n      dup3\n      iszero\n      0x08fc\n      mul\n      swap1\n        /* \"contracts/babyshib.sol\":19535:19544  weiAmount */\n      dup4\n      swap1\n        /* \"contracts/babyshib.sol\":19509:19545  payable(owner()).transfer(weiAmount) */\n      0x00\n      dup2\n      dup2\n      dup2\n        /* \"contracts/babyshib.sol\":19535:19544  weiAmount */\n      dup6\n        /* \"contracts/babyshib.sol\":7226:7232  _owner */\n      dup9\n        /* \"contracts/babyshib.sol\":19509:19545  payable(owner()).transfer(weiAmount) */\n      dup9\n      call\n      swap4\n      pop\n      pop\n      pop\n      pop\n      iszero\n      dup1\n      iszero\n      tag_277\n      jumpi\n      returndatasize\n      0x00\n      dup1\n      returndatacopy\n      revert(0x00, returndatasize)\n        /* \"contracts/babyshib.sol\":11436:11846  function decreaseAllowance(address spender, uint256 subtractedValue)... */\n    tag_169:\n        /* \"contracts/babyshib.sol\":807:817  msg.sender */\n      caller\n        /* \"contracts/babyshib.sol\":11557:11561  bool */\n      0x00\n        /* \"contracts/babyshib.sol\":11606:11631  _allowances[_msgSender()] */\n      swap1\n      dup2\n      mstore\n        /* \"contracts/babyshib.sol\":11606:11617  _allowances */\n      0x01\n        /* \"contracts/babyshib.sol\":11606:11631  _allowances[_msgSender()] */\n      0x20\n      swap1\n      dup2\n      mstore\n      0x40\n      dup1\n      dup4\n      keccak256\n      sub(shl(0xa0, 0x01), 0x01)\n        /* \"contracts/babyshib.sol\":11606:11640  _allowances[_msgSender()][spender] */\n      dup7\n      and\n      dup5\n      mstore\n      swap1\n      swap2\n      mstore\n      dup2\n      keccak256\n      sload\n        /* \"contracts/babyshib.sol\":11659:11694  currentAllowance >= subtractedValue */\n      dup3\n      dup2\n      lt\n      iszero\n        /* \"contracts/babyshib.sol\":11651:11736  require(currentAllowance >= subtractedValue, \"ERC20: decreased allowance below zero\") */\n      tag_376\n      jumpi\n      mload(0x40)\n      shl(0xe5, 0x461bcd)\n      dup2\n      mstore\n        /* \"#utility.yul\":11053:11055   */\n      0x20\n        /* \"contracts/babyshib.sol\":11651:11736  require(currentAllowance >= subtractedValue, \"ERC20: decreased allowance below zero\") */\n      0x04\n      dup3\n      add\n        /* \"#utility.yul\":11035:11056   */\n      mstore\n        /* \"#utility.yul\":11092:11094   */\n      0x25\n        /* \"#utility.yul\":11072:11090   */\n      0x24\n      dup3\n      add\n        /* \"#utility.yul\":11065:11095   */\n      mstore\n        /* \"#utility.yul\":11131:11165   */\n      0x45524332303a2064656372656173656420616c6c6f77616e63652062656c6f77\n        /* \"#utility.yul\":11111:11129   */\n      0x44\n      dup3\n      add\n        /* \"#utility.yul\":11104:11166   */\n      mstore\n      shl(0xd8, 0x207a65726f)\n        /* \"#utility.yul\":11182:11200   */\n      0x64\n      dup3\n      add\n        /* \"#utility.yul\":11175:11210   */\n      mstore\n        /* \"#utility.yul\":11227:11246   */\n      0x84\n      add\n        /* \"contracts/babyshib.sol\":11651:11736  require(currentAllowance >= subtractedValue, \"ERC20: decreased allowance below zero\") */\n      tag_241\n        /* \"#utility.yul\":10851:11252   */\n      jump\n        /* \"contracts/babyshib.sol\":11651:11736  require(currentAllowance >= subtractedValue, \"ERC20: decreased allowance below zero\") */\n    tag_376:\n        /* \"contracts/babyshib.sol\":11747:11814  _approve(_msgSender(), spender, currentAllowance - subtractedValue) */\n      tag_379\n        /* \"contracts/babyshib.sol\":807:817  msg.sender */\n      caller\n        /* \"contracts/babyshib.sol\":11770:11777  spender */\n      dup6\n        /* \"contracts/babyshib.sol\":11779:11813  currentAllowance - subtractedValue */\n      tag_268\n        /* \"contracts/babyshib.sol\":11798:11813  subtractedValue */\n      dup7\n        /* \"contracts/babyshib.sol\":11779:11795  currentAllowance */\n      dup6\n        /* \"contracts/babyshib.sol\":11779:11813  currentAllowance - subtractedValue */\n      tag_269\n      jump\t// in\n        /* \"contracts/babyshib.sol\":11747:11814  _approve(_msgSender(), spender, currentAllowance - subtractedValue) */\n    tag_379:\n      pop\n        /* \"contracts/babyshib.sol\":11834:11838  true */\n      0x01\n      swap4\n        /* \"contracts/babyshib.sol\":11436:11846  function decreaseAllowance(address spender, uint256 subtractedValue)... */\n      swap3\n      pop\n      pop\n      pop\n      jump\t// out\n        /* \"contracts/babyshib.sol\":11854:12019  function transfer(address recipient, uint256 amount) public override returns (bool) {... */\n    tag_178:\n        /* \"contracts/babyshib.sol\":11932:11936  bool */\n      0x00\n        /* \"contracts/babyshib.sol\":11949:11989  _transfer(msg.sender, recipient, amount) */\n      tag_233\n        /* \"contracts/babyshib.sol\":11959:11969  msg.sender */\n      caller\n        /* \"contracts/babyshib.sol\":11971:11980  recipient */\n      dup5\n        /* \"contracts/babyshib.sol\":11982:11988  amount */\n      dup5\n        /* \"contracts/babyshib.sol\":11949:11958  _transfer */\n      tag_261\n        /* \"contracts/babyshib.sol\":11949:11989  _transfer(msg.sender, recipient, amount) */\n      jump\t// in\n        /* \"contracts/babyshib.sol\":18199:18314  function updateMarketingWallet(address newWallet) external onlyOwner {... */\n    tag_183:\n        /* \"contracts/babyshib.sol\":7226:7232  _owner */\n      and(sub(shl(0xa0, 0x01), 0x01), sload(0x05))\n        /* \"contracts/babyshib.sol\":807:817  msg.sender */\n      caller\n        /* \"contracts/babyshib.sol\":7288:7311  owner() == _msgSender() */\n      eq\n        /* \"contracts/babyshib.sol\":7280:7348  require(owner() == _msgSender(), \"Ownable: caller is not the owner\") */\n      tag_387\n      jumpi\n      mload(0x40)\n      shl(0xe5, 0x461bcd)\n      dup2\n      mstore\n      0x04\n      add\n      tag_241\n      swap1\n      tag_242\n      jump\t// in\n    tag_387:\n        /* \"contracts/babyshib.sol\":18279:18294  marketingWallet */\n      0x0d\n        /* \"contracts/babyshib.sol\":18279:18306  marketingWallet = newWallet */\n      dup1\n      sload\n      not(sub(shl(0xa0, 0x01), 0x01))\n      and\n      sub(shl(0xa0, 0x01), 0x01)\n      swap3\n      swap1\n      swap3\n      and\n      swap2\n      swap1\n      swap2\n      or\n      swap1\n      sstore\n        /* \"contracts/babyshib.sol\":18199:18314  function updateMarketingWallet(address newWallet) external onlyOwner {... */\n      jump\t// out\n        /* \"contracts/babyshib.sol\":17437:17601  function UpdateBuyTaxes(... */\n    tag_193:\n        /* \"contracts/babyshib.sol\":7226:7232  _owner */\n      and(sub(shl(0xa0, 0x01), 0x01), sload(0x05))\n        /* \"contracts/babyshib.sol\":807:817  msg.sender */\n      caller\n        /* \"contracts/babyshib.sol\":7288:7311  owner() == _msgSender() */\n      eq\n        /* \"contracts/babyshib.sol\":7280:7348  require(owner() == _msgSender(), \"Ownable: caller is not the owner\") */\n      tag_393\n      jumpi\n      mload(0x40)\n      shl(0xe5, 0x461bcd)\n      dup2\n      mstore\n      0x04\n      add\n      tag_241\n      swap1\n      tag_242\n      jump\t// in\n    tag_393:\n        /* \"contracts/babyshib.sol\":17564:17593  Taxes(_marketing, _liquidity) */\n      0x40\n      dup1\n      mload\n      dup1\n      dup3\n      add\n      swap1\n      swap2\n      mstore\n      dup3\n      dup2\n      mstore\n      0x20\n      add\n      dup2\n      swap1\n      mstore\n        /* \"contracts/babyshib.sol\":17556:17561  taxes */\n      0x0e\n        /* \"contracts/babyshib.sol\":17556:17593  taxes = Taxes(_marketing, _liquidity) */\n      swap2\n      swap1\n      swap2\n      sstore\n      0x0f\n      sstore\n        /* \"contracts/babyshib.sol\":17437:17601  function UpdateBuyTaxes(... */\n      jump\t// out\n        /* \"contracts/babyshib.sol\":18014:18191  function updatedeadline(uint256 _deadline) external onlyOwner {... */\n    tag_203:\n        /* \"contracts/babyshib.sol\":7226:7232  _owner */\n      and(sub(shl(0xa0, 0x01), 0x01), sload(0x05))\n        /* \"contracts/babyshib.sol\":807:817  msg.sender */\n      caller\n        /* \"contracts/babyshib.sol\":7288:7311  owner() == _msgSender() */\n      eq\n        /* \"contracts/babyshib.sol\":7280:7348  require(owner() == _msgSender(), \"Ownable: caller is not the owner\") */\n      tag_400\n      jumpi\n      mload(0x40)\n      shl(0xe5, 0x461bcd)\n      dup2\n      mstore\n      0x04\n      add\n      tag_241\n      swap1\n      tag_242\n      jump\t// in\n    tag_400:\n        /* \"contracts/babyshib.sol\":18096:18110  tradingEnabled */\n      sload(0x07)\n      shl(0xb0, 0x01)\n      swap1\n      div\n      0xff\n      and\n        /* \"contracts/babyshib.sol\":18095:18110  !tradingEnabled */\n      iszero\n        /* \"contracts/babyshib.sol\":18087:18152  require(!tradingEnabled, \"Can't change when trading has started\") */\n      tag_403\n      jumpi\n      mload(0x40)\n      shl(0xe5, 0x461bcd)\n      dup2\n      mstore\n        /* \"#utility.yul\":11459:11461   */\n      0x20\n        /* \"contracts/babyshib.sol\":18087:18152  require(!tradingEnabled, \"Can't change when trading has started\") */\n      0x04\n      dup3\n      add\n        /* \"#utility.yul\":11441:11462   */\n      mstore\n        /* \"#utility.yul\":11498:11500   */\n      0x25\n        /* \"#utility.yul\":11478:11496   */\n      0x24\n      dup3\n      add\n        /* \"#utility.yul\":11471:11501   */\n      mstore\n        /* \"#utility.yul\":11537:11571   */\n      0x43616e2774206368616e6765207768656e2074726164696e6720686173207374\n        /* \"#utility.yul\":11517:11535   */\n      0x44\n      dup3\n      add\n        /* \"#utility.yul\":11510:11572   */\n      mstore\n      shl(0xda, 0x185c9d1959)\n        /* \"#utility.yul\":11588:11606   */\n      0x64\n      dup3\n      add\n        /* \"#utility.yul\":11581:11616   */\n      mstore\n        /* \"#utility.yul\":11633:11652   */\n      0x84\n      add\n        /* \"contracts/babyshib.sol\":18087:18152  require(!tradingEnabled, \"Can't change when trading has started\") */\n      tag_241\n        /* \"#utility.yul\":11257:11658   */\n      jump\n        /* \"contracts/babyshib.sol\":18087:18152  require(!tradingEnabled, \"Can't change when trading has started\") */\n    tag_403:\n        /* \"contracts/babyshib.sol\":18163:18171  deadline */\n      0x0b\n        /* \"contracts/babyshib.sol\":18163:18183  deadline = _deadline */\n      sstore\n        /* \"contracts/babyshib.sol\":18014:18191  function updatedeadline(uint256 _deadline) external onlyOwner {... */\n      jump\t// out\n        /* \"contracts/babyshib.sol\":7478:7670  function transferOwnership(address newOwner) public virtual onlyOwner {... */\n    tag_207:\n        /* \"contracts/babyshib.sol\":7226:7232  _owner */\n      and(sub(shl(0xa0, 0x01), 0x01), sload(0x05))\n        /* \"contracts/babyshib.sol\":807:817  msg.sender */\n      caller\n        /* \"contracts/babyshib.sol\":7288:7311  owner() == _msgSender() */\n      eq\n        /* \"contracts/babyshib.sol\":7280:7348  require(owner() == _msgSender(), \"Ownable: caller is not the owner\") */\n      tag_409\n      jumpi\n      mload(0x40)\n      shl(0xe5, 0x461bcd)\n      dup2\n      mstore\n      0x04\n      add\n      tag_241\n      swap1\n      tag_242\n      jump\t// in\n    tag_409:\n      sub(shl(0xa0, 0x01), 0x01)\n        /* \"contracts/babyshib.sol\":7567:7589  newOwner != address(0) */\n      dup2\n      and\n        /* \"contracts/babyshib.sol\":7559:7632  require(newOwner != address(0), \"Ownable: new owner is the zero address\") */\n      tag_412\n      jumpi\n      mload(0x40)\n      shl(0xe5, 0x461bcd)\n      dup2\n      mstore\n        /* \"#utility.yul\":11865:11867   */\n      0x20\n        /* \"contracts/babyshib.sol\":7559:7632  require(newOwner != address(0), \"Ownable: new owner is the zero address\") */\n      0x04\n      dup3\n      add\n        /* \"#utility.yul\":11847:11868   */\n      mstore\n        /* \"#utility.yul\":11904:11906   */\n      0x26\n        /* \"#utility.yul\":11884:11902   */\n      0x24\n      dup3\n      add\n        /* \"#utility.yul\":11877:11907   */\n      mstore\n        /* \"#utility.yul\":11943:11977   */\n      0x4f776e61626c653a206e6577206f776e657220697320746865207a65726f2061\n        /* \"#utility.yul\":11923:11941   */\n      0x44\n      dup3\n      add\n        /* \"#utility.yul\":11916:11978   */\n      mstore\n      shl(0xd0, 0x646472657373)\n        /* \"#utility.yul\":11994:12012   */\n      0x64\n      dup3\n      add\n        /* \"#utility.yul\":11987:12023   */\n      mstore\n        /* \"#utility.yul\":12040:12059   */\n      0x84\n      add\n        /* \"contracts/babyshib.sol\":7559:7632  require(newOwner != address(0), \"Ownable: new owner is the zero address\") */\n      tag_241\n        /* \"#utility.yul\":11663:12065   */\n      jump\n        /* \"contracts/babyshib.sol\":7559:7632  require(newOwner != address(0), \"Ownable: new owner is the zero address\") */\n    tag_412:\n        /* \"contracts/babyshib.sol\":7643:7662  _setOwner(newOwner) */\n      tag_415\n        /* \"contracts/babyshib.sol\":7653:7661  newOwner */\n      dup2\n        /* \"contracts/babyshib.sol\":7643:7652  _setOwner */\n      tag_323\n        /* \"contracts/babyshib.sol\":7643:7662  _setOwner(newOwner) */\n      jump\t// in\n    tag_415:\n        /* \"contracts/babyshib.sol\":7478:7670  function transferOwnership(address newOwner) public virtual onlyOwner {... */\n      pop\n      jump\t// out\n        /* \"contracts/babyshib.sol\":17609:17775  function SetSellTaxes(... */\n    tag_211:\n        /* \"contracts/babyshib.sol\":7226:7232  _owner */\n      and(sub(shl(0xa0, 0x01), 0x01), sload(0x05))\n        /* \"contracts/babyshib.sol\":807:817  msg.sender */\n      caller\n        /* \"contracts/babyshib.sol\":7288:7311  owner() == _msgSender() */\n      eq\n        /* \"contracts/babyshib.sol\":7280:7348  require(owner() == _msgSender(), \"Ownable: caller is not the owner\") */\n      tag_419\n      jumpi\n      mload(0x40)\n      shl(0xe5, 0x461bcd)\n      dup2\n      mstore\n      0x04\n      add\n      tag_241\n      swap1\n      tag_242\n      jump\t// in\n    tag_419:\n        /* \"contracts/babyshib.sol\":17738:17767  Taxes(_marketing, _liquidity) */\n      0x40\n      dup1\n      mload\n      dup1\n      dup3\n      add\n      swap1\n      swap2\n      mstore\n      dup3\n      dup2\n      mstore\n      0x20\n      add\n      dup2\n      swap1\n      mstore\n        /* \"contracts/babyshib.sol\":17726:17735  sellTaxes */\n      0x10\n        /* \"contracts/babyshib.sol\":17726:17767  sellTaxes = Taxes(_marketing, _liquidity) */\n      swap2\n      swap1\n      swap2\n      sstore\n      0x11\n      sstore\n        /* \"contracts/babyshib.sol\":17609:17775  function SetSellTaxes(... */\n      jump\t// out\n        /* \"contracts/babyshib.sol\":18898:19090  function AddbulkExemptFee(address[] memory accounts) external onlyOwner {... */\n    tag_215:\n        /* \"contracts/babyshib.sol\":7226:7232  _owner */\n      and(sub(shl(0xa0, 0x01), 0x01), sload(0x05))\n        /* \"contracts/babyshib.sol\":807:817  msg.sender */\n      caller\n        /* \"contracts/babyshib.sol\":7288:7311  owner() == _msgSender() */\n      eq\n        /* \"contracts/babyshib.sol\":7280:7348  require(owner() == _msgSender(), \"Ownable: caller is not the owner\") */\n      tag_425\n      jumpi\n      mload(0x40)\n      shl(0xe5, 0x461bcd)\n      dup2\n      mstore\n      0x04\n      add\n      tag_241\n      swap1\n      tag_242\n      jump\t// in\n    tag_425:\n        /* \"contracts/babyshib.sol\":18986:18995  uint256 i */\n      0x00\n        /* \"contracts/babyshib.sol\":18981:19083  for (uint256 i = 0; i < accounts.length; i++) {... */\n    tag_428:\n        /* \"contracts/babyshib.sol\":19005:19013  accounts */\n      dup2\n        /* \"contracts/babyshib.sol\":19005:19020  accounts.length */\n      mload\n        /* \"contracts/babyshib.sol\":19001:19002  i */\n      dup2\n        /* \"contracts/babyshib.sol\":19001:19020  i < accounts.length */\n      lt\n        /* \"contracts/babyshib.sol\":18981:19083  for (uint256 i = 0; i < accounts.length; i++) {... */\n      iszero\n      tag_277\n      jumpi\n        /* \"contracts/babyshib.sol\":19067:19071  true */\n      0x01\n        /* \"contracts/babyshib.sol\":19042:19051  exemptFee */\n      0x12\n        /* \"contracts/babyshib.sol\":19042:19064  exemptFee[accounts[i]] */\n      0x00\n        /* \"contracts/babyshib.sol\":19052:19060  accounts */\n      dup5\n        /* \"contracts/babyshib.sol\":19061:19062  i */\n      dup5\n        /* \"contracts/babyshib.sol\":19052:19063  accounts[i] */\n      dup2\n      mload\n      dup2\n      lt\n      tag_432\n      jumpi\n      tag_432\n      tag_256\n      jump\t// in\n    tag_432:\n      0x20\n      swap1\n      dup2\n      mul\n      swap2\n      swap1\n      swap2\n      add\n      dup2\n      add\n      mload\n      sub(shl(0xa0, 0x01), 0x01)\n        /* \"contracts/babyshib.sol\":19042:19064  exemptFee[accounts[i]] */\n      and\n      dup3\n      mstore\n      dup2\n      add\n      swap2\n      swap1\n      swap2\n      mstore\n      0x40\n      add\n      0x00\n      keccak256\n        /* \"contracts/babyshib.sol\":19042:19071  exemptFee[accounts[i]] = true */\n      dup1\n      sload\n      not(0xff)\n      and\n      swap2\n      iszero\n      iszero\n      swap2\n      swap1\n      swap2\n      or\n      swap1\n      sstore\n        /* \"contracts/babyshib.sol\":19022:19025  i++ */\n      dup1\n      tag_433\n      dup2\n      tag_258\n      jump\t// in\n    tag_433:\n      swap2\n      pop\n      pop\n        /* \"contracts/babyshib.sol\":18981:19083  for (uint256 i = 0; i < accounts.length; i++) {... */\n      jump(tag_428)\n        /* \"contracts/babyshib.sol\":6047:6427  function _approve(... */\n    tag_236:\n      sub(shl(0xa0, 0x01), 0x01)\n        /* \"contracts/babyshib.sol\":6183:6202  owner != address(0) */\n      dup4\n      and\n        /* \"contracts/babyshib.sol\":6175:6243  require(owner != address(0), \"ERC20: approve from the zero address\") */\n      tag_436\n      jumpi\n      mload(0x40)\n      shl(0xe5, 0x461bcd)\n      dup2\n      mstore\n        /* \"#utility.yul\":12272:12274   */\n      0x20\n        /* \"contracts/babyshib.sol\":6175:6243  require(owner != address(0), \"ERC20: approve from the zero address\") */\n      0x04\n      dup3\n      add\n        /* \"#utility.yul\":12254:12275   */\n      mstore\n        /* \"#utility.yul\":12311:12313   */\n      0x24\n        /* \"#utility.yul\":12291:12309   */\n      dup1\n      dup3\n      add\n        /* \"#utility.yul\":12284:12314   */\n      mstore\n        /* \"#utility.yul\":12350:12384   */\n      0x45524332303a20617070726f76652066726f6d20746865207a65726f20616464\n        /* \"#utility.yul\":12330:12348   */\n      0x44\n      dup3\n      add\n        /* \"#utility.yul\":12323:12385   */\n      mstore\n      shl(0xe0, 0x72657373)\n        /* \"#utility.yul\":12401:12419   */\n      0x64\n      dup3\n      add\n        /* \"#utility.yul\":12394:12428   */\n      mstore\n        /* \"#utility.yul\":12445:12464   */\n      0x84\n      add\n        /* \"contracts/babyshib.sol\":6175:6243  require(owner != address(0), \"ERC20: approve from the zero address\") */\n      tag_241\n        /* \"#utility.yul\":12070:12470   */\n      jump\n        /* \"contracts/babyshib.sol\":6175:6243  require(owner != address(0), \"ERC20: approve from the zero address\") */\n    tag_436:\n      sub(shl(0xa0, 0x01), 0x01)\n        /* \"contracts/babyshib.sol\":6262:6283  spender != address(0) */\n      dup3\n      and\n        /* \"contracts/babyshib.sol\":6254:6322  require(spender != address(0), \"ERC20: approve to the zero address\") */\n      tag_439\n      jumpi\n      mload(0x40)\n      shl(0xe5, 0x461bcd)\n      dup2\n      mstore\n        /* \"#utility.yul\":12677:12679   */\n      0x20\n        /* \"contracts/babyshib.sol\":6254:6322  require(spender != address(0), \"ERC20: approve to the zero address\") */\n      0x04\n      dup3\n      add\n        /* \"#utility.yul\":12659:12680   */\n      mstore\n        /* \"#utility.yul\":12716:12718   */\n      0x22\n        /* \"#utility.yul\":12696:12714   */\n      0x24\n      dup3\n      add\n        /* \"#utility.yul\":12689:12719   */\n      mstore\n        /* \"#utility.yul\":12755:12789   */\n      0x45524332303a20617070726f766520746f20746865207a65726f206164647265\n        /* \"#utility.yul\":12735:12753   */\n      0x44\n      dup3\n      add\n        /* \"#utility.yul\":12728:12790   */\n      mstore\n      shl(0xf0, 0x7373)\n        /* \"#utility.yul\":12806:12824   */\n      0x64\n      dup3\n      add\n        /* \"#utility.yul\":12799:12831   */\n      mstore\n        /* \"#utility.yul\":12848:12867   */\n      0x84\n      add\n        /* \"contracts/babyshib.sol\":6254:6322  require(spender != address(0), \"ERC20: approve to the zero address\") */\n      tag_241\n        /* \"#utility.yul\":12475:12873   */\n      jump\n        /* \"contracts/babyshib.sol\":6254:6322  require(spender != address(0), \"ERC20: approve to the zero address\") */\n    tag_439:\n      sub(shl(0xa0, 0x01), 0x01)\n        /* \"contracts/babyshib.sol\":6335:6353  _allowances[owner] */\n      dup4\n      dup2\n      and\n      0x00\n      dup2\n      dup2\n      mstore\n        /* \"contracts/babyshib.sol\":6335:6346  _allowances */\n      0x01\n        /* \"contracts/babyshib.sol\":6335:6353  _allowances[owner] */\n      0x20\n      swap1\n      dup2\n      mstore\n      0x40\n      dup1\n      dup4\n      keccak256\n        /* \"contracts/babyshib.sol\":6335:6362  _allowances[owner][spender] */\n      swap5\n      dup8\n      and\n      dup1\n      dup5\n      mstore\n      swap5\n      dup3\n      mstore\n      swap2\n      dup3\n      swap1\n      keccak256\n        /* \"contracts/babyshib.sol\":6335:6371  _allowances[owner][spender] = amount */\n      dup6\n      swap1\n      sstore\n        /* \"contracts/babyshib.sol\":6387:6419  Approval(owner, spender, amount) */\n      swap1\n      mload\n        /* \"#utility.yul\":1869:1894   */\n      dup5\n      dup2\n      mstore\n        /* \"contracts/babyshib.sol\":6387:6419  Approval(owner, spender, amount) */\n      0x8c5be1e5ebec7d5bd14f71427d1e84f3dd0314c0f7b2291e5b200ac8c7c3b925\n      swap2\n        /* \"#utility.yul\":1842:1860   */\n      add\n        /* \"contracts/babyshib.sol\":6387:6419  Approval(owner, spender, amount) */\n      mload(0x40)\n      dup1\n      swap2\n      sub\n      swap1\n      log3\n        /* \"contracts/babyshib.sol\":6047:6427  function _approve(... */\n      pop\n      pop\n      pop\n      jump\t// out\n        /* \"contracts/babyshib.sol\":12027:14612  function _transfer(... */\n    tag_261:\n        /* \"contracts/babyshib.sol\":12177:12178  0 */\n      0x00\n        /* \"contracts/babyshib.sol\":12168:12174  amount */\n      dup2\n        /* \"contracts/babyshib.sol\":12168:12178  amount > 0 */\n      gt\n        /* \"contracts/babyshib.sol\":12160:12224  require(amount > 0, \"Transfer amount must be greater than zero\") */\n      tag_444\n      jumpi\n      mload(0x40)\n      shl(0xe5, 0x461bcd)\n      dup2\n      mstore\n        /* \"#utility.yul\":13080:13082   */\n      0x20\n        /* \"contracts/babyshib.sol\":12160:12224  require(amount > 0, \"Transfer amount must be greater than zero\") */\n      0x04\n      dup3\n      add\n        /* \"#utility.yul\":13062:13083   */\n      mstore\n        /* \"#utility.yul\":13119:13121   */\n      0x29\n        /* \"#utility.yul\":13099:13117   */\n      0x24\n      dup3\n      add\n        /* \"#utility.yul\":13092:13122   */\n      mstore\n        /* \"#utility.yul\":13158:13192   */\n      0x5472616e7366657220616d6f756e74206d757374206265206772656174657220\n        /* \"#utility.yul\":13138:13156   */\n      0x44\n      dup3\n      add\n        /* \"#utility.yul\":13131:13193   */\n      mstore\n      shl(0xb8, 0x7468616e207a65726f)\n        /* \"#utility.yul\":13209:13227   */\n      0x64\n      dup3\n      add\n        /* \"#utility.yul\":13202:13241   */\n      mstore\n        /* \"#utility.yul\":13258:13277   */\n      0x84\n      add\n        /* \"contracts/babyshib.sol\":12160:12224  require(amount > 0, \"Transfer amount must be greater than zero\") */\n      tag_241\n        /* \"#utility.yul\":12878:13283   */\n      jump\n        /* \"contracts/babyshib.sol\":12160:12224  require(amount > 0, \"Transfer amount must be greater than zero\") */\n    tag_444:\n      sub(shl(0xa0, 0x01), 0x01)\n        /* \"contracts/babyshib.sol\":12244:12264  isearlybuyer[sender] */\n      dup4\n      and\n      0x00\n      swap1\n      dup2\n      mstore\n        /* \"contracts/babyshib.sol\":12244:12256  isearlybuyer */\n      0x13\n        /* \"contracts/babyshib.sol\":12244:12264  isearlybuyer[sender] */\n      0x20\n      mstore\n      0x40\n      swap1\n      keccak256\n      sload\n      0xff\n      and\n        /* \"contracts/babyshib.sol\":12243:12264  !isearlybuyer[sender] */\n      iszero\n        /* \"contracts/babyshib.sol\":12243:12292  !isearlybuyer[sender] && !isearlybuyer[recipient] */\n      dup1\n      iszero\n      tag_447\n      jumpi\n      pop\n      sub(shl(0xa0, 0x01), 0x01)\n        /* \"contracts/babyshib.sol\":12269:12292  isearlybuyer[recipient] */\n      dup3\n      and\n      0x00\n      swap1\n      dup2\n      mstore\n        /* \"contracts/babyshib.sol\":12269:12281  isearlybuyer */\n      0x13\n        /* \"contracts/babyshib.sol\":12269:12292  isearlybuyer[recipient] */\n      0x20\n      mstore\n      0x40\n      swap1\n      keccak256\n      sload\n      0xff\n      and\n        /* \"contracts/babyshib.sol\":12268:12292  !isearlybuyer[recipient] */\n      iszero\n        /* \"contracts/babyshib.sol\":12243:12292  !isearlybuyer[sender] && !isearlybuyer[recipient] */\n    tag_447:\n        /* \"contracts/babyshib.sol\":12235:12345  require(!isearlybuyer[sender] && !isearlybuyer[recipient],... */\n      tag_448\n      jumpi\n      mload(0x40)\n      shl(0xe5, 0x461bcd)\n      dup2\n      mstore\n        /* \"#utility.yul\":13490:13492   */\n      0x20\n        /* \"contracts/babyshib.sol\":12235:12345  require(!isearlybuyer[sender] && !isearlybuyer[recipient],... */\n      0x04\n      dup3\n      add\n        /* \"#utility.yul\":13472:13493   */\n      mstore\n        /* \"#utility.yul\":13529:13531   */\n      0x19\n        /* \"#utility.yul\":13509:13527   */\n      0x24\n      dup3\n      add\n        /* \"#utility.yul\":13502:13532   */\n      mstore\n        /* \"#utility.yul\":13568:13595   */\n      0x596f752063616e2774207472616e7366657220746f6b656e7300000000000000\n        /* \"#utility.yul\":13548:13566   */\n      0x44\n      dup3\n      add\n        /* \"#utility.yul\":13541:13596   */\n      mstore\n        /* \"#utility.yul\":13613:13631   */\n      0x64\n      add\n        /* \"contracts/babyshib.sol\":12235:12345  require(!isearlybuyer[sender] && !isearlybuyer[recipient],... */\n      tag_241\n        /* \"#utility.yul\":13288:13637   */\n      jump\n        /* \"contracts/babyshib.sol\":12235:12345  require(!isearlybuyer[sender] && !isearlybuyer[recipient],... */\n    tag_448:\n      sub(shl(0xa0, 0x01), 0x01)\n        /* \"contracts/babyshib.sol\":12363:12380  exemptFee[sender] */\n      dup4\n      and\n      0x00\n      swap1\n      dup2\n      mstore\n        /* \"contracts/babyshib.sol\":12363:12372  exemptFee */\n      0x12\n        /* \"contracts/babyshib.sol\":12363:12380  exemptFee[sender] */\n      0x20\n      mstore\n      0x40\n      swap1\n      keccak256\n      sload\n      0xff\n      and\n        /* \"contracts/babyshib.sol\":12362:12380  !exemptFee[sender] */\n      iszero\n        /* \"contracts/babyshib.sol\":12362:12405  !exemptFee[sender] && !exemptFee[recipient] */\n      dup1\n      iszero\n      tag_451\n      jumpi\n      pop\n      sub(shl(0xa0, 0x01), 0x01)\n        /* \"contracts/babyshib.sol\":12385:12405  exemptFee[recipient] */\n      dup3\n      and\n      0x00\n      swap1\n      dup2\n      mstore\n        /* \"contracts/babyshib.sol\":12385:12394  exemptFee */\n      0x12\n        /* \"contracts/babyshib.sol\":12385:12405  exemptFee[recipient] */\n      0x20\n      mstore\n      0x40\n      swap1\n      keccak256\n      sload\n      0xff\n      and\n        /* \"contracts/babyshib.sol\":12384:12405  !exemptFee[recipient] */\n      iszero\n        /* \"contracts/babyshib.sol\":12362:12405  !exemptFee[sender] && !exemptFee[recipient] */\n    tag_451:\n        /* \"contracts/babyshib.sol\":12358:12480  if (!exemptFee[sender] && !exemptFee[recipient]) {... */\n      iszero\n      tag_453\n      jumpi\n        /* \"contracts/babyshib.sol\":12430:12444  tradingEnabled */\n      sload(0x07)\n      shl(0xb0, 0x01)\n      swap1\n      div\n      0xff\n      and\n        /* \"contracts/babyshib.sol\":12422:12468  require(tradingEnabled, \"Trading not enabled\") */\n      tag_453\n      jumpi\n      mload(0x40)\n      shl(0xe5, 0x461bcd)\n      dup2\n      mstore\n        /* \"#utility.yul\":13844:13846   */\n      0x20\n        /* \"contracts/babyshib.sol\":12422:12468  require(tradingEnabled, \"Trading not enabled\") */\n      0x04\n      dup3\n      add\n        /* \"#utility.yul\":13826:13847   */\n      mstore\n        /* \"#utility.yul\":13883:13885   */\n      0x13\n        /* \"#utility.yul\":13863:13881   */\n      0x24\n      dup3\n      add\n        /* \"#utility.yul\":13856:13886   */\n      mstore\n      shl(0x6a, 0x151c98591a5b99c81b9bdd08195b98589b1959)\n        /* \"#utility.yul\":13902:13920   */\n      0x44\n      dup3\n      add\n        /* \"#utility.yul\":13895:13944   */\n      mstore\n        /* \"#utility.yul\":13961:13979   */\n      0x64\n      add\n        /* \"contracts/babyshib.sol\":12422:12468  require(tradingEnabled, \"Trading not enabled\") */\n      tag_241\n        /* \"#utility.yul\":13642:13985   */\n      jump\n        /* \"contracts/babyshib.sol\":12422:12468  require(tradingEnabled, \"Trading not enabled\") */\n    tag_453:\n        /* \"contracts/babyshib.sol\":12506:12510  pair */\n      sload(0x07)\n      sub(shl(0xa0, 0x01), 0x01)\n        /* \"contracts/babyshib.sol\":12496:12510  sender == pair */\n      dup5\n      dup2\n      and\n        /* \"contracts/babyshib.sol\":12506:12510  pair */\n      swap2\n      and\n        /* \"contracts/babyshib.sol\":12496:12510  sender == pair */\n      eq\n        /* \"contracts/babyshib.sol\":12496:12535  sender == pair && !exemptFee[recipient] */\n      dup1\n      iszero\n      tag_456\n      jumpi\n      pop\n      sub(shl(0xa0, 0x01), 0x01)\n        /* \"contracts/babyshib.sol\":12515:12535  exemptFee[recipient] */\n      dup3\n      and\n      0x00\n      swap1\n      dup2\n      mstore\n        /* \"contracts/babyshib.sol\":12515:12524  exemptFee */\n      0x12\n        /* \"contracts/babyshib.sol\":12515:12535  exemptFee[recipient] */\n      0x20\n      mstore\n      0x40\n      swap1\n      keccak256\n      sload\n      0xff\n      and\n        /* \"contracts/babyshib.sol\":12514:12535  !exemptFee[recipient] */\n      iszero\n        /* \"contracts/babyshib.sol\":12496:12535  sender == pair && !exemptFee[recipient] */\n    tag_456:\n        /* \"contracts/babyshib.sol\":12496:12555  sender == pair && !exemptFee[recipient] && !_liquidityMutex */\n      dup1\n      iszero\n      tag_457\n      jumpi\n      pop\n        /* \"contracts/babyshib.sol\":12540:12555  _liquidityMutex */\n      sload(0x07)\n      shl(0xa0, 0x01)\n      swap1\n      div\n      0xff\n      and\n        /* \"contracts/babyshib.sol\":12539:12555  !_liquidityMutex */\n      iszero\n        /* \"contracts/babyshib.sol\":12496:12555  sender == pair && !exemptFee[recipient] && !_liquidityMutex */\n    tag_457:\n        /* \"contracts/babyshib.sol\":12492:12707  if (sender == pair && !exemptFee[recipient] && !_liquidityMutex) {... */\n      iszero\n      tag_461\n      jumpi\n        /* \"contracts/babyshib.sol\":12613:12627  maxWalletLimit */\n      sload(0x09)\n        /* \"contracts/babyshib.sol\":12603:12609  amount */\n      dup2\n        /* \"contracts/babyshib.sol\":12580:12600  balanceOf(recipient) */\n      tag_459\n        /* \"contracts/babyshib.sol\":12590:12599  recipient */\n      dup5\n      sub(shl(0xa0, 0x01), 0x01)\n        /* \"contracts/babyshib.sol\":3206:3224  _balances[account] */\n      and\n        /* \"contracts/babyshib.sol\":3179:3186  uint256 */\n      0x00\n        /* \"contracts/babyshib.sol\":3206:3224  _balances[account] */\n      swap1\n      dup2\n      mstore\n      0x20\n      dup2\n      swap1\n      mstore\n      0x40\n      swap1\n      keccak256\n      sload\n      swap1\n        /* \"contracts/babyshib.sol\":3105:3232  function balanceOf(address account) public view virtual override returns (uint256) {... */\n      jump\n        /* \"contracts/babyshib.sol\":12580:12600  balanceOf(recipient) */\n    tag_459:\n        /* \"contracts/babyshib.sol\":12580:12609  balanceOf(recipient) + amount */\n      tag_460\n      swap2\n      swap1\n      tag_288\n      jump\t// in\n    tag_460:\n        /* \"contracts/babyshib.sol\":12580:12627  balanceOf(recipient) + amount <= maxWalletLimit */\n      gt\n      iszero\n        /* \"contracts/babyshib.sol\":12572:12695  require(balanceOf(recipient) + amount <= maxWalletLimit,... */\n      tag_461\n      jumpi\n      mload(0x40)\n      shl(0xe5, 0x461bcd)\n      dup2\n      mstore\n        /* \"#utility.yul\":14192:14194   */\n      0x20\n        /* \"contracts/babyshib.sol\":12572:12695  require(balanceOf(recipient) + amount <= maxWalletLimit,... */\n      0x04\n      dup3\n      add\n        /* \"#utility.yul\":14174:14195   */\n      dup2\n      swap1\n      mstore\n        /* \"#utility.yul\":14211:14229   */\n      0x24\n      dup3\n      add\n        /* \"#utility.yul\":14204:14234   */\n      mstore\n        /* \"#utility.yul\":14270:14304   */\n      0x596f752061726520657863656564696e67206d617857616c6c65744c696d6974\n        /* \"#utility.yul\":14250:14268   */\n      0x44\n      dup3\n      add\n        /* \"#utility.yul\":14243:14305   */\n      mstore\n        /* \"#utility.yul\":14322:14340   */\n      0x64\n      add\n        /* \"contracts/babyshib.sol\":12572:12695  require(balanceOf(recipient) + amount <= maxWalletLimit,... */\n      tag_241\n        /* \"#utility.yul\":13990:14346   */\n      jump\n        /* \"contracts/babyshib.sol\":12572:12695  require(balanceOf(recipient) + amount <= maxWalletLimit,... */\n    tag_461:\n        /* \"contracts/babyshib.sol\":12733:12737  pair */\n      sload(0x07)\n      sub(shl(0xa0, 0x01), 0x01)\n        /* \"contracts/babyshib.sol\":12723:12737  sender != pair */\n      dup5\n      dup2\n      and\n        /* \"contracts/babyshib.sol\":12733:12737  pair */\n      swap2\n      and\n        /* \"contracts/babyshib.sol\":12723:12737  sender != pair */\n      eq\n      dup1\n      iszero\n      swap1\n        /* \"contracts/babyshib.sol\":12723:12762  sender != pair && !exemptFee[recipient] */\n      tag_464\n      jumpi\n      pop\n      sub(shl(0xa0, 0x01), 0x01)\n        /* \"contracts/babyshib.sol\":12742:12762  exemptFee[recipient] */\n      dup3\n      and\n      0x00\n      swap1\n      dup2\n      mstore\n        /* \"contracts/babyshib.sol\":12742:12751  exemptFee */\n      0x12\n        /* \"contracts/babyshib.sol\":12742:12762  exemptFee[recipient] */\n      0x20\n      mstore\n      0x40\n      swap1\n      keccak256\n      sload\n      0xff\n      and\n        /* \"contracts/babyshib.sol\":12741:12762  !exemptFee[recipient] */\n      iszero\n        /* \"contracts/babyshib.sol\":12723:12762  sender != pair && !exemptFee[recipient] */\n    tag_464:\n        /* \"contracts/babyshib.sol\":12723:12784  sender != pair && !exemptFee[recipient] && !exemptFee[sender] */\n      dup1\n      iszero\n      tag_465\n      jumpi\n      pop\n      sub(shl(0xa0, 0x01), 0x01)\n        /* \"contracts/babyshib.sol\":12767:12784  exemptFee[sender] */\n      dup4\n      and\n      0x00\n      swap1\n      dup2\n      mstore\n        /* \"contracts/babyshib.sol\":12767:12776  exemptFee */\n      0x12\n        /* \"contracts/babyshib.sol\":12767:12784  exemptFee[sender] */\n      0x20\n      mstore\n      0x40\n      swap1\n      keccak256\n      sload\n      0xff\n      and\n        /* \"contracts/babyshib.sol\":12766:12784  !exemptFee[sender] */\n      iszero\n        /* \"contracts/babyshib.sol\":12723:12784  sender != pair && !exemptFee[recipient] && !exemptFee[sender] */\n    tag_465:\n        /* \"contracts/babyshib.sol\":12723:12804  sender != pair && !exemptFee[recipient] && !exemptFee[sender] && !_liquidityMutex */\n      dup1\n      iszero\n      tag_466\n      jumpi\n      pop\n        /* \"contracts/babyshib.sol\":12789:12804  _liquidityMutex */\n      sload(0x07)\n      shl(0xa0, 0x01)\n      swap1\n      div\n      0xff\n      and\n        /* \"contracts/babyshib.sol\":12788:12804  !_liquidityMutex */\n      iszero\n        /* \"contracts/babyshib.sol\":12723:12804  sender != pair && !exemptFee[recipient] && !exemptFee[sender] && !_liquidityMutex */\n    tag_466:\n        /* \"contracts/babyshib.sol\":12719:13034  if (sender != pair && !exemptFee[recipient] && !exemptFee[sender] && !_liquidityMutex) {... */\n      iszero\n      tag_471\n      jumpi\n        /* \"contracts/babyshib.sol\":12851:12855  pair */\n      sload(0x07)\n      sub(shl(0xa0, 0x01), 0x01)\n        /* \"contracts/babyshib.sol\":12838:12855  recipient != pair */\n      dup4\n      dup2\n      and\n        /* \"contracts/babyshib.sol\":12851:12855  pair */\n      swap2\n      and\n        /* \"contracts/babyshib.sol\":12838:12855  recipient != pair */\n      eq\n        /* \"contracts/babyshib.sol\":12834:13023  if (recipient != pair) {... */\n      tag_471\n      jumpi\n        /* \"contracts/babyshib.sol\":12917:12931  maxWalletLimit */\n      sload(0x09)\n        /* \"contracts/babyshib.sol\":12907:12913  amount */\n      dup2\n        /* \"contracts/babyshib.sol\":12884:12904  balanceOf(recipient) */\n      tag_469\n        /* \"contracts/babyshib.sol\":12894:12903  recipient */\n      dup5\n      sub(shl(0xa0, 0x01), 0x01)\n        /* \"contracts/babyshib.sol\":3206:3224  _balances[account] */\n      and\n        /* \"contracts/babyshib.sol\":3179:3186  uint256 */\n      0x00\n        /* \"contracts/babyshib.sol\":3206:3224  _balances[account] */\n      swap1\n      dup2\n      mstore\n      0x20\n      dup2\n      swap1\n      mstore\n      0x40\n      swap1\n      keccak256\n      sload\n      swap1\n        /* \"contracts/babyshib.sol\":3105:3232  function balanceOf(address account) public view virtual override returns (uint256) {... */\n      jump\n        /* \"contracts/babyshib.sol\":12884:12904  balanceOf(recipient) */\n    tag_469:\n        /* \"contracts/babyshib.sol\":12884:12913  balanceOf(recipient) + amount */\n      tag_470\n      swap2\n      swap1\n      tag_288\n      jump\t// in\n    tag_470:\n        /* \"contracts/babyshib.sol\":12884:12931  balanceOf(recipient) + amount <= maxWalletLimit */\n      gt\n      iszero\n        /* \"contracts/babyshib.sol\":12876:13007  require(balanceOf(recipient) + amount <= maxWalletLimit,... */\n      tag_471\n      jumpi\n      mload(0x40)\n      shl(0xe5, 0x461bcd)\n      dup2\n      mstore\n        /* \"#utility.yul\":14192:14194   */\n      0x20\n        /* \"contracts/babyshib.sol\":12876:13007  require(balanceOf(recipient) + amount <= maxWalletLimit,... */\n      0x04\n      dup3\n      add\n        /* \"#utility.yul\":14174:14195   */\n      dup2\n      swap1\n      mstore\n        /* \"#utility.yul\":14211:14229   */\n      0x24\n      dup3\n      add\n        /* \"#utility.yul\":14204:14234   */\n      mstore\n        /* \"#utility.yul\":14270:14304   */\n      0x596f752061726520657863656564696e67206d617857616c6c65744c696d6974\n        /* \"#utility.yul\":14250:14268   */\n      0x44\n      dup3\n      add\n        /* \"#utility.yul\":14243:14305   */\n      mstore\n        /* \"#utility.yul\":14322:14340   */\n      0x64\n      add\n        /* \"contracts/babyshib.sol\":12876:13007  require(balanceOf(recipient) + amount <= maxWalletLimit,... */\n      tag_241\n        /* \"#utility.yul\":13990:14346   */\n      jump\n        /* \"contracts/babyshib.sol\":12876:13007  require(balanceOf(recipient) + amount <= maxWalletLimit,... */\n    tag_471:\n        /* \"contracts/babyshib.sol\":13046:13061  uint256 feeswap */\n      0x00\n        /* \"contracts/babyshib.sol\":13072:13086  uint256 feesum */\n      dup1\n        /* \"contracts/babyshib.sol\":13097:13108  uint256 fee */\n      0x00\n        /* \"contracts/babyshib.sol\":13119:13144  Taxes memory currentTaxes */\n      tag_473\n      mload(0x40)\n      dup1\n      0x40\n      add\n      0x40\n      mstore\n      dup1\n      0x00\n      dup2\n      mstore\n      0x20\n      add\n      0x00\n      dup2\n      mstore\n      pop\n      swap1\n      jump\n    tag_473:\n      sub(shl(0xa0, 0x01), 0x01)\n        /* \"contracts/babyshib.sol\":13178:13195  exemptFee[sender] */\n      dup8\n      and\n        /* \"contracts/babyshib.sol\":13157:13174  bool useLaunchFee */\n      0x00\n        /* \"contracts/babyshib.sol\":13178:13195  exemptFee[sender] */\n      swap1\n      dup2\n      mstore\n        /* \"contracts/babyshib.sol\":13178:13187  exemptFee */\n      0x12\n        /* \"contracts/babyshib.sol\":13178:13195  exemptFee[sender] */\n      0x20\n      mstore\n      0x40\n      dup2\n      keccak256\n      sload\n      0xff\n      and\n        /* \"contracts/babyshib.sol\":13177:13195  !exemptFee[sender] */\n      iszero\n        /* \"contracts/babyshib.sol\":13177:13233  !exemptFee[sender] &&... */\n      dup1\n      iszero\n      tag_475\n      jumpi\n      pop\n      sub(shl(0xa0, 0x01), 0x01)\n        /* \"contracts/babyshib.sol\":13213:13233  exemptFee[recipient] */\n      dup8\n      and\n      0x00\n      swap1\n      dup2\n      mstore\n        /* \"contracts/babyshib.sol\":13213:13222  exemptFee */\n      0x12\n        /* \"contracts/babyshib.sol\":13213:13233  exemptFee[recipient] */\n      0x20\n      mstore\n      0x40\n      swap1\n      keccak256\n      sload\n      0xff\n      and\n        /* \"contracts/babyshib.sol\":13212:13233  !exemptFee[recipient] */\n      iszero\n        /* \"contracts/babyshib.sol\":13177:13233  !exemptFee[sender] &&... */\n    tag_475:\n        /* \"contracts/babyshib.sol\":13177:13289  !exemptFee[sender] &&... */\n      dup1\n      iszero\n      tag_476\n      jumpi\n      pop\n        /* \"contracts/babyshib.sol\":13281:13289  deadline */\n      sload(0x0b)\n        /* \"contracts/babyshib.sol\":13265:13278  genesis_block */\n      sload(0x0a)\n        /* \"contracts/babyshib.sol\":13265:13289  genesis_block + deadline */\n      tag_477\n      swap2\n      swap1\n      tag_288\n      jump\t// in\n    tag_477:\n        /* \"contracts/babyshib.sol\":13250:13262  block.number */\n      number\n        /* \"contracts/babyshib.sol\":13250:13289  block.number < genesis_block + deadline */\n      lt\n        /* \"contracts/babyshib.sol\":13177:13289  !exemptFee[sender] &&... */\n    tag_476:\n        /* \"contracts/babyshib.sol\":13377:13392  _liquidityMutex */\n      sload(0x07)\n        /* \"contracts/babyshib.sol\":13157:13289  bool useLaunchFee = !exemptFee[sender] &&... */\n      swap1\n      swap2\n      pop\n      shl(0xa0, 0x01)\n        /* \"contracts/babyshib.sol\":13377:13392  _liquidityMutex */\n      swap1\n      div\n      0xff\n      and\n      dup1\n        /* \"contracts/babyshib.sol\":13377:13413  _liquidityMutex || exemptFee[sender] */\n      tag_478\n      jumpi\n      pop\n      sub(shl(0xa0, 0x01), 0x01)\n        /* \"contracts/babyshib.sol\":13396:13413  exemptFee[sender] */\n      dup9\n      and\n      0x00\n      swap1\n      dup2\n      mstore\n        /* \"contracts/babyshib.sol\":13396:13405  exemptFee */\n      0x12\n        /* \"contracts/babyshib.sol\":13396:13413  exemptFee[sender] */\n      0x20\n      mstore\n      0x40\n      swap1\n      keccak256\n      sload\n      0xff\n      and\n        /* \"contracts/babyshib.sol\":13377:13413  _liquidityMutex || exemptFee[sender] */\n    tag_478:\n        /* \"contracts/babyshib.sol\":13377:13437  _liquidityMutex || exemptFee[sender] || exemptFee[recipient] */\n      dup1\n      tag_479\n      jumpi\n      pop\n      sub(shl(0xa0, 0x01), 0x01)\n        /* \"contracts/babyshib.sol\":13417:13437  exemptFee[recipient] */\n      dup8\n      and\n      0x00\n      swap1\n      dup2\n      mstore\n        /* \"contracts/babyshib.sol\":13417:13426  exemptFee */\n      0x12\n        /* \"contracts/babyshib.sol\":13417:13437  exemptFee[recipient] */\n      0x20\n      mstore\n      0x40\n      swap1\n      keccak256\n      sload\n      0xff\n      and\n        /* \"contracts/babyshib.sol\":13377:13437  _liquidityMutex || exemptFee[sender] || exemptFee[recipient] */\n    tag_479:\n        /* \"contracts/babyshib.sol\":13373:14028  if (_liquidityMutex || exemptFee[sender] || exemptFee[recipient])... */\n      iszero\n      tag_480\n      jumpi\n        /* \"contracts/babyshib.sol\":13458:13459  0 */\n      0x00\n        /* \"contracts/babyshib.sol\":13452:13459  fee = 0 */\n      swap3\n      pop\n        /* \"contracts/babyshib.sol\":13373:14028  if (_liquidityMutex || exemptFee[sender] || exemptFee[recipient])... */\n      jump(tag_489)\n    tag_480:\n        /* \"contracts/babyshib.sol\":13523:13527  pair */\n      sload(0x07)\n      sub(shl(0xa0, 0x01), 0x01)\n        /* \"contracts/babyshib.sol\":13510:13527  recipient == pair */\n      dup9\n      dup2\n      and\n        /* \"contracts/babyshib.sol\":13523:13527  pair */\n      swap2\n      and\n        /* \"contracts/babyshib.sol\":13510:13527  recipient == pair */\n      eq\n        /* \"contracts/babyshib.sol\":13510:13544  recipient == pair && !useLaunchFee */\n      dup1\n      iszero\n      tag_482\n      jumpi\n      pop\n        /* \"contracts/babyshib.sol\":13532:13544  useLaunchFee */\n      dup1\n        /* \"contracts/babyshib.sol\":13531:13544  !useLaunchFee */\n      iszero\n        /* \"contracts/babyshib.sol\":13510:13544  recipient == pair && !useLaunchFee */\n    tag_482:\n        /* \"contracts/babyshib.sol\":13506:14028  if (recipient == pair && !useLaunchFee) {... */\n      iszero\n      tag_483\n      jumpi\n        /* \"contracts/babyshib.sol\":13627:13636  sellTaxes */\n      0x10\n        /* \"contracts/babyshib.sol\":13627:13646  sellTaxes.marketing */\n      sload\n        /* \"contracts/babyshib.sol\":13588:13607  sellTaxes.liquidity */\n      sload(0x11)\n        /* \"contracts/babyshib.sol\":13588:13646  sellTaxes.liquidity +... */\n      tag_484\n      swap2\n        /* \"contracts/babyshib.sol\":13627:13646  sellTaxes.marketing */\n      swap1\n        /* \"contracts/babyshib.sol\":13588:13646  sellTaxes.liquidity +... */\n      tag_288\n      jump\t// in\n    tag_484:\n        /* \"contracts/babyshib.sol\":13693:13717  currentTaxes = sellTaxes */\n      0x40\n      dup1\n      mload\n      dup1\n      dup3\n      add\n      swap1\n      swap2\n      mstore\n        /* \"contracts/babyshib.sol\":13708:13717  sellTaxes */\n      0x10\n        /* \"contracts/babyshib.sol\":13693:13717  currentTaxes = sellTaxes */\n      sload\n      dup2\n      mstore\n      sload(0x11)\n      0x20\n      dup3\n      add\n      mstore\n        /* \"contracts/babyshib.sol\":13561:13646  feeswap =... */\n      swap1\n      swap6\n      pop\n      dup6\n      swap5\n      pop\n        /* \"contracts/babyshib.sol\":13693:13717  currentTaxes = sellTaxes */\n      swap2\n      pop\n        /* \"contracts/babyshib.sol\":13506:14028  if (recipient == pair && !useLaunchFee) {... */\n      jump(tag_489)\n    tag_483:\n        /* \"contracts/babyshib.sol\":13740:13752  useLaunchFee */\n      dup1\n        /* \"contracts/babyshib.sol\":13735:14028  if (!useLaunchFee) {... */\n      tag_486\n      jumpi\n        /* \"contracts/babyshib.sol\":13831:13836  taxes */\n      0x0e\n        /* \"contracts/babyshib.sol\":13831:13846  taxes.marketing */\n      sload\n        /* \"contracts/babyshib.sol\":13796:13811  taxes.liquidity */\n      sload(0x0f)\n        /* \"contracts/babyshib.sol\":13796:13846  taxes.liquidity +... */\n      tag_487\n      swap2\n        /* \"contracts/babyshib.sol\":13831:13846  taxes.marketing */\n      swap1\n        /* \"contracts/babyshib.sol\":13796:13846  taxes.liquidity +... */\n      tag_288\n      jump\t// in\n    tag_487:\n        /* \"contracts/babyshib.sol\":13893:13913  currentTaxes = taxes */\n      0x40\n      dup1\n      mload\n      dup1\n      dup3\n      add\n      swap1\n      swap2\n      mstore\n        /* \"contracts/babyshib.sol\":13908:13913  taxes */\n      0x0e\n        /* \"contracts/babyshib.sol\":13893:13913  currentTaxes = taxes */\n      sload\n      dup2\n      mstore\n      sload(0x0f)\n      0x20\n      dup3\n      add\n      mstore\n        /* \"contracts/babyshib.sol\":13769:13846  feeswap =... */\n      swap1\n      swap6\n      pop\n      dup6\n      swap5\n      pop\n        /* \"contracts/babyshib.sol\":13893:13913  currentTaxes = taxes */\n      swap2\n      pop\n        /* \"contracts/babyshib.sol\":13735:14028  if (!useLaunchFee) {... */\n      jump(tag_489)\n    tag_486:\n        /* \"contracts/babyshib.sol\":13935:13947  useLaunchFee */\n      dup1\n        /* \"contracts/babyshib.sol\":13931:14028  if (useLaunchFee) {... */\n      iszero\n      tag_489\n      jumpi\n        /* \"contracts/babyshib.sol\":13974:13983  launchtax */\n      sload(0x0c)\n      swap5\n      pop\n      dup5\n      swap4\n      pop\n        /* \"contracts/babyshib.sol\":13931:14028  if (useLaunchFee) {... */\n    tag_489:\n        /* \"contracts/babyshib.sol\":14066:14069  100 */\n      0x64\n        /* \"contracts/babyshib.sol\":14047:14062  amount * feesum */\n      tag_490\n        /* \"contracts/babyshib.sol\":14056:14062  feesum */\n      dup6\n        /* \"contracts/babyshib.sol\":14047:14053  amount */\n      dup9\n        /* \"contracts/babyshib.sol\":14047:14062  amount * feesum */\n      tag_299\n      jump\t// in\n    tag_490:\n        /* \"contracts/babyshib.sol\":14046:14069  (amount * feesum) / 100 */\n      tag_491\n      swap2\n      swap1\n      tag_492\n      jump\t// in\n    tag_491:\n        /* \"contracts/babyshib.sol\":14183:14201  providingLiquidity */\n      sload(0x07)\n        /* \"contracts/babyshib.sol\":14040:14069  fee = (amount * feesum) / 100 */\n      swap1\n      swap4\n      pop\n      shl(0xa8, 0x01)\n        /* \"contracts/babyshib.sol\":14183:14201  providingLiquidity */\n      swap1\n      div\n      0xff\n      and\n        /* \"contracts/babyshib.sol\":14183:14219  providingLiquidity && sender != pair */\n      dup1\n      iszero\n      tag_493\n      jumpi\n      pop\n        /* \"contracts/babyshib.sol\":14215:14219  pair */\n      sload(0x07)\n      sub(shl(0xa0, 0x01), 0x01)\n        /* \"contracts/babyshib.sol\":14205:14219  sender != pair */\n      dup10\n      dup2\n      and\n        /* \"contracts/babyshib.sol\":14215:14219  pair */\n      swap2\n      and\n        /* \"contracts/babyshib.sol\":14205:14219  sender != pair */\n      eq\n      iszero\n        /* \"contracts/babyshib.sol\":14183:14219  providingLiquidity && sender != pair */\n    tag_493:\n        /* \"contracts/babyshib.sol\":14179:14255  if (providingLiquidity && sender != pair) handle_fees(feeswap, currentTaxes) */\n      iszero\n      tag_495\n      jumpi\n        /* \"contracts/babyshib.sol\":14221:14255  handle_fees(feeswap, currentTaxes) */\n      tag_495\n        /* \"contracts/babyshib.sol\":14233:14240  feeswap */\n      dup6\n        /* \"contracts/babyshib.sol\":14242:14254  currentTaxes */\n      dup4\n        /* \"contracts/babyshib.sol\":14221:14232  handle_fees */\n      tag_496\n        /* \"contracts/babyshib.sol\":14221:14255  handle_fees(feeswap, currentTaxes) */\n      jump\t// in\n    tag_495:\n        /* \"contracts/babyshib.sol\":14297:14345  super._transfer(sender, recipient, amount - fee) */\n      tag_497\n        /* \"contracts/babyshib.sol\":14313:14319  sender */\n      dup9\n        /* \"contracts/babyshib.sol\":14321:14330  recipient */\n      dup9\n        /* \"contracts/babyshib.sol\":14332:14344  amount - fee */\n      tag_498\n        /* \"contracts/babyshib.sol\":14341:14344  fee */\n      dup7\n        /* \"contracts/babyshib.sol\":14332:14338  amount */\n      dup11\n        /* \"contracts/babyshib.sol\":14332:14344  amount - fee */\n      tag_269\n      jump\t// in\n    tag_498:\n        /* \"contracts/babyshib.sol\":14297:14312  super._transfer */\n      tag_499\n        /* \"contracts/babyshib.sol\":14297:14345  super._transfer(sender, recipient, amount - fee) */\n      jump\t// in\n    tag_497:\n        /* \"contracts/babyshib.sol\":14360:14367  fee > 0 */\n      dup3\n      iszero\n        /* \"contracts/babyshib.sol\":14356:14605  if (fee > 0) {... */\n      tag_501\n      jumpi\n        /* \"contracts/babyshib.sol\":14432:14443  feeswap > 0 */\n      dup5\n      iszero\n        /* \"contracts/babyshib.sol\":14428:14592  if (feeswap > 0) {... */\n      tag_501\n      jumpi\n        /* \"contracts/babyshib.sol\":14464:14481  uint256 feeAmount */\n      0x00\n        /* \"contracts/babyshib.sol\":14505:14508  100 */\n      0x64\n        /* \"contracts/babyshib.sol\":14485:14501  amount * feeswap */\n      tag_502\n        /* \"contracts/babyshib.sol\":14494:14501  feeswap */\n      dup8\n        /* \"contracts/babyshib.sol\":14485:14491  amount */\n      dup10\n        /* \"contracts/babyshib.sol\":14485:14501  amount * feeswap */\n      tag_299\n      jump\t// in\n    tag_502:\n        /* \"contracts/babyshib.sol\":14484:14508  (amount * feeswap) / 100 */\n      tag_503\n      swap2\n      swap1\n      tag_492\n      jump\t// in\n    tag_503:\n        /* \"contracts/babyshib.sol\":14464:14508  uint256 feeAmount = (amount * feeswap) / 100 */\n      swap1\n      pop\n        /* \"contracts/babyshib.sol\":14527:14576  super._transfer(sender, address(this), feeAmount) */\n      tag_504\n        /* \"contracts/babyshib.sol\":14543:14549  sender */\n      dup10\n        /* \"contracts/babyshib.sol\":14559:14563  this */\n      address\n        /* \"contracts/babyshib.sol\":14566:14575  feeAmount */\n      dup4\n        /* \"contracts/babyshib.sol\":14527:14542  super._transfer */\n      tag_499\n        /* \"contracts/babyshib.sol\":14527:14576  super._transfer(sender, address(this), feeAmount) */\n      jump\t// in\n    tag_504:\n        /* \"contracts/babyshib.sol\":14445:14592  {... */\n      pop\n        /* \"contracts/babyshib.sol\":14428:14592  if (feeswap > 0) {... */\n    tag_501:\n        /* \"contracts/babyshib.sol\":12149:14612  {... */\n      pop\n      pop\n      pop\n      pop\n      pop\n        /* \"contracts/babyshib.sol\":12027:14612  function _transfer(... */\n      pop\n      pop\n      pop\n      jump\t// out\n        /* \"contracts/babyshib.sol\":7678:7851  function _setOwner(address newOwner) private {... */\n    tag_323:\n        /* \"contracts/babyshib.sol\":7753:7759  _owner */\n      0x05\n      dup1\n      sload\n      sub(shl(0xa0, 0x01), 0x01)\n        /* \"contracts/babyshib.sol\":7770:7787  _owner = newOwner */\n      dup4\n      dup2\n      and\n      not(sub(shl(0xa0, 0x01), 0x01))\n      dup4\n      and\n      dup2\n      or\n      swap1\n      swap4\n      sstore\n        /* \"contracts/babyshib.sol\":7803:7843  OwnershipTransferred(oldOwner, newOwner) */\n      mload(0x40)\n        /* \"contracts/babyshib.sol\":7753:7759  _owner */\n      swap2\n      and\n      swap2\n        /* \"contracts/babyshib.sol\":7770:7787  _owner = newOwner */\n      swap1\n        /* \"contracts/babyshib.sol\":7753:7759  _owner */\n      dup3\n      swap1\n        /* \"contracts/babyshib.sol\":7803:7843  OwnershipTransferred(oldOwner, newOwner) */\n      0x8be0079c531659141344cd1fd0a4f28419497f9722a3daafe3b4186f6b6457e0\n      swap1\n        /* \"contracts/babyshib.sol\":7734:7750  address oldOwner */\n      0x00\n      swap1\n        /* \"contracts/babyshib.sol\":7803:7843  OwnershipTransferred(oldOwner, newOwner) */\n      log3\n        /* \"contracts/babyshib.sol\":7723:7851  {... */\n      pop\n        /* \"contracts/babyshib.sol\":7678:7851  function _setOwner(address newOwner) private {... */\n      pop\n      jump\t// out\n        /* \"contracts/babyshib.sol\":14620:16042  function handle_fees(uint256 feeswap, Taxes memory swapTaxes) private mutexLock {... */\n    tag_496:\n        /* \"contracts/babyshib.sol\":9706:9721  _liquidityMutex */\n      sload(0x07)\n      shl(0xa0, 0x01)\n      swap1\n      div\n      0xff\n      and\n        /* \"contracts/babyshib.sol\":9701:9826  if (!_liquidityMutex) {... */\n      tag_277\n      jumpi\n        /* \"contracts/babyshib.sol\":9738:9753  _liquidityMutex */\n      0x07\n        /* \"contracts/babyshib.sol\":9738:9760  _liquidityMutex = true */\n      dup1\n      sload\n      not(shl(0xa0, 0xff))\n      and\n      shl(0xa0, 0x01)\n      or\n      swap1\n      sstore\n        /* \"contracts/babyshib.sol\":14706:14755  if(feeswap == 0){... */\n      dup2\n      iszero\n        /* \"contracts/babyshib.sol\":14737:14744  return; */\n      tag_508\n        /* \"contracts/babyshib.sol\":14706:14755  if(feeswap == 0){... */\n      jumpi\n        /* \"contracts/babyshib.sol\":14812:14816  this */\n      address\n        /* \"contracts/babyshib.sol\":14768:14791  uint256 contractBalance */\n      0x00\n        /* \"contracts/babyshib.sol\":3206:3224  _balances[account] */\n      swap1\n      dup2\n      mstore\n      0x20\n      dup2\n      swap1\n      mstore\n      0x40\n      swap1\n      keccak256\n      sload\n        /* \"contracts/babyshib.sol\":14852:14875  tokenLiquidityThreshold */\n      sload(0x08)\n        /* \"contracts/babyshib.sol\":14833:14875  contractBalance >= tokenLiquidityThreshold */\n      dup2\n      lt\n        /* \"contracts/babyshib.sol\":14829:16035  if (contractBalance >= tokenLiquidityThreshold) {... */\n      tag_511\n      jumpi\n        /* \"contracts/babyshib.sol\":14922:14923  1 */\n      0x01\n        /* \"contracts/babyshib.sol\":14896:14919  tokenLiquidityThreshold */\n      sload(0x08)\n        /* \"contracts/babyshib.sol\":14896:14923  tokenLiquidityThreshold > 1 */\n      gt\n        /* \"contracts/babyshib.sol\":14892:15001  if (tokenLiquidityThreshold > 1) {... */\n      iszero\n      tag_512\n      jumpi\n      pop\n        /* \"contracts/babyshib.sol\":14962:14985  tokenLiquidityThreshold */\n      sload(0x08)\n        /* \"contracts/babyshib.sol\":14892:15001  if (tokenLiquidityThreshold > 1) {... */\n    tag_512:\n        /* \"contracts/babyshib.sol\":15072:15091  uint256 denominator */\n      0x00\n        /* \"contracts/babyshib.sol\":15094:15105  feeswap * 2 */\n      tag_513\n        /* \"contracts/babyshib.sol\":15094:15101  feeswap */\n      dup5\n        /* \"contracts/babyshib.sol\":15104:15105  2 */\n      0x02\n        /* \"contracts/babyshib.sol\":15094:15105  feeswap * 2 */\n      tag_299\n      jump\t// in\n    tag_513:\n        /* \"contracts/babyshib.sol\":15072:15105  uint256 denominator = feeswap * 2 */\n      swap1\n      pop\n        /* \"contracts/babyshib.sol\":15120:15152  uint256 tokensToAddLiquidityWith */\n      0x00\n        /* \"contracts/babyshib.sol\":15214:15225  denominator */\n      dup2\n        /* \"contracts/babyshib.sol\":15174:15183  swapTaxes */\n      dup5\n        /* \"contracts/babyshib.sol\":15174:15193  swapTaxes.liquidity */\n      0x20\n      add\n      mload\n        /* \"contracts/babyshib.sol\":15156:15171  contractBalance */\n      dup5\n        /* \"contracts/babyshib.sol\":15156:15193  contractBalance * swapTaxes.liquidity */\n      tag_514\n      swap2\n      swap1\n      tag_299\n      jump\t// in\n    tag_514:\n        /* \"contracts/babyshib.sol\":15155:15225  (contractBalance * swapTaxes.liquidity) /... */\n      tag_515\n      swap2\n      swap1\n      tag_492\n      jump\t// in\n    tag_515:\n        /* \"contracts/babyshib.sol\":15120:15225  uint256 tokensToAddLiquidityWith = (contractBalance * swapTaxes.liquidity) /... */\n      swap1\n      pop\n        /* \"contracts/babyshib.sol\":15240:15254  uint256 toSwap */\n      0x00\n        /* \"contracts/babyshib.sol\":15257:15299  contractBalance - tokensToAddLiquidityWith */\n      tag_516\n        /* \"contracts/babyshib.sol\":15120:15225  uint256 tokensToAddLiquidityWith = (contractBalance * swapTaxes.liquidity) /... */\n      dup3\n        /* \"contracts/babyshib.sol\":15257:15272  contractBalance */\n      dup6\n        /* \"contracts/babyshib.sol\":15257:15299  contractBalance - tokensToAddLiquidityWith */\n      tag_269\n      jump\t// in\n    tag_516:\n        /* \"contracts/babyshib.sol\":15240:15299  uint256 toSwap = contractBalance - tokensToAddLiquidityWith */\n      swap1\n      pop\n        /* \"contracts/babyshib.sol\":15341:15362  address(this).balance */\n      selfbalance\n        /* \"contracts/babyshib.sol\":15379:15403  swapTokensForETH(toSwap) */\n      tag_517\n        /* \"contracts/babyshib.sol\":15240:15299  uint256 toSwap = contractBalance - tokensToAddLiquidityWith */\n      dup3\n        /* \"contracts/babyshib.sol\":15379:15395  swapTokensForETH */\n      tag_518\n        /* \"contracts/babyshib.sol\":15379:15403  swapTokensForETH(toSwap) */\n      jump\t// in\n    tag_517:\n        /* \"contracts/babyshib.sol\":15420:15440  uint256 deltaBalance */\n      0x00\n        /* \"contracts/babyshib.sol\":15443:15481  address(this).balance - initialBalance */\n      tag_519\n        /* \"contracts/babyshib.sol\":15467:15481  initialBalance */\n      dup3\n        /* \"contracts/babyshib.sol\":15443:15464  address(this).balance */\n      selfbalance\n        /* \"contracts/babyshib.sol\":15443:15481  address(this).balance - initialBalance */\n      tag_269\n      jump\t// in\n    tag_519:\n        /* \"contracts/babyshib.sol\":15420:15481  uint256 deltaBalance = address(this).balance - initialBalance */\n      swap1\n      pop\n        /* \"contracts/babyshib.sol\":15496:15515  uint256 unitBalance */\n      0x00\n        /* \"contracts/babyshib.sol\":15548:15557  swapTaxes */\n      dup8\n        /* \"contracts/babyshib.sol\":15548:15567  swapTaxes.liquidity */\n      0x20\n      add\n      mload\n        /* \"contracts/babyshib.sol\":15534:15545  denominator */\n      dup7\n        /* \"contracts/babyshib.sol\":15534:15567  denominator - swapTaxes.liquidity */\n      tag_520\n      swap2\n      swap1\n      tag_269\n      jump\t// in\n    tag_520:\n        /* \"contracts/babyshib.sol\":15518:15568  deltaBalance / (denominator - swapTaxes.liquidity) */\n      tag_521\n      swap1\n        /* \"contracts/babyshib.sol\":15518:15530  deltaBalance */\n      dup4\n        /* \"contracts/babyshib.sol\":15518:15568  deltaBalance / (denominator - swapTaxes.liquidity) */\n      tag_492\n      jump\t// in\n    tag_521:\n        /* \"contracts/babyshib.sol\":15496:15568  uint256 unitBalance = deltaBalance / (denominator - swapTaxes.liquidity) */\n      swap1\n      pop\n        /* \"contracts/babyshib.sol\":15583:15612  uint256 ethToAddLiquidityWith */\n      0x00\n        /* \"contracts/babyshib.sol\":15629:15638  swapTaxes */\n      dup9\n        /* \"contracts/babyshib.sol\":15629:15648  swapTaxes.liquidity */\n      0x20\n      add\n      mload\n        /* \"contracts/babyshib.sol\":15615:15626  unitBalance */\n      dup3\n        /* \"contracts/babyshib.sol\":15615:15648  unitBalance * swapTaxes.liquidity */\n      tag_522\n      swap2\n      swap1\n      tag_299\n      jump\t// in\n    tag_522:\n        /* \"contracts/babyshib.sol\":15583:15648  uint256 ethToAddLiquidityWith = unitBalance * swapTaxes.liquidity */\n      swap1\n      pop\n        /* \"contracts/babyshib.sol\":15669:15694  ethToAddLiquidityWith > 0 */\n      dup1\n      iszero\n        /* \"contracts/babyshib.sol\":15665:15826  if (ethToAddLiquidityWith > 0) {... */\n      tag_524\n      jumpi\n        /* \"contracts/babyshib.sol\":15749:15810  addLiquidity(tokensToAddLiquidityWith, ethToAddLiquidityWith) */\n      tag_524\n        /* \"contracts/babyshib.sol\":15762:15786  tokensToAddLiquidityWith */\n      dup7\n        /* \"contracts/babyshib.sol\":15788:15809  ethToAddLiquidityWith */\n      dup3\n        /* \"contracts/babyshib.sol\":15749:15761  addLiquidity */\n      tag_525\n        /* \"contracts/babyshib.sol\":15749:15810  addLiquidity(tokensToAddLiquidityWith, ethToAddLiquidityWith) */\n      jump\t// in\n    tag_524:\n        /* \"contracts/babyshib.sol\":15883:15902  swapTaxes.marketing */\n      dup9\n      mload\n        /* \"contracts/babyshib.sol\":15842:15862  uint256 marketingAmt */\n      0x00\n      swap1\n        /* \"contracts/babyshib.sol\":15865:15880  unitBalance * 2 */\n      tag_526\n        /* \"contracts/babyshib.sol\":15865:15876  unitBalance */\n      dup5\n        /* \"contracts/babyshib.sol\":15879:15880  2 */\n      0x02\n        /* \"contracts/babyshib.sol\":15865:15880  unitBalance * 2 */\n      tag_299\n      jump\t// in\n    tag_526:\n        /* \"contracts/babyshib.sol\":15865:15902  unitBalance * 2 * swapTaxes.marketing */\n      tag_527\n      swap2\n      swap1\n      tag_299\n      jump\t// in\n    tag_527:\n        /* \"contracts/babyshib.sol\":15842:15902  uint256 marketingAmt = unitBalance * 2 * swapTaxes.marketing */\n      swap1\n      pop\n        /* \"contracts/babyshib.sol\":15921:15937  marketingAmt > 0 */\n      dup1\n      iszero\n        /* \"contracts/babyshib.sol\":15917:16022  if (marketingAmt > 0) {... */\n      tag_529\n      jumpi\n        /* \"contracts/babyshib.sol\":15966:15981  marketingWallet */\n      sload(0x0d)\n        /* \"contracts/babyshib.sol\":15958:16006  payable(marketingWallet).sendValue(marketingAmt) */\n      tag_529\n      swap1\n      sub(shl(0xa0, 0x01), 0x01)\n        /* \"contracts/babyshib.sol\":15966:15981  marketingWallet */\n      and\n        /* \"contracts/babyshib.sol\":15993:16005  marketingAmt */\n      dup3\n        /* \"contracts/babyshib.sol\":15958:15992  payable(marketingWallet).sendValue */\n      tag_530\n        /* \"contracts/babyshib.sol\":15958:16006  payable(marketingWallet).sendValue(marketingAmt) */\n      jump\t// in\n    tag_529:\n        /* \"contracts/babyshib.sol\":14877:16035  {... */\n      pop\n      pop\n      pop\n      pop\n      pop\n      pop\n      pop\n      pop\n        /* \"contracts/babyshib.sol\":14829:16035  if (contractBalance >= tokenLiquidityThreshold) {... */\n    tag_511:\n        /* \"contracts/babyshib.sol\":14700:16042  {... */\n      pop\n        /* \"contracts/babyshib.sol\":9775:9776  _ */\n    tag_508:\n        /* \"contracts/babyshib.sol\":9791:9806  _liquidityMutex */\n      0x07\n        /* \"contracts/babyshib.sol\":9791:9814  _liquidityMutex = false */\n      dup1\n      sload\n      not(shl(0xa0, 0xff))\n      and\n      swap1\n      sstore\n        /* \"contracts/babyshib.sol\":14620:16042  function handle_fees(uint256 feeswap, Taxes memory swapTaxes) private mutexLock {... */\n      pop\n      pop\n      jump\t// out\n        /* \"contracts/babyshib.sol\":5028:5666  function _transfer(... */\n    tag_499:\n      sub(shl(0xa0, 0x01), 0x01)\n        /* \"contracts/babyshib.sol\":5168:5188  sender != address(0) */\n      dup4\n      and\n        /* \"contracts/babyshib.sol\":5160:5230  require(sender != address(0), \"ERC20: transfer from the zero address\") */\n      tag_532\n      jumpi\n      mload(0x40)\n      shl(0xe5, 0x461bcd)\n      dup2\n      mstore\n        /* \"#utility.yul\":14775:14777   */\n      0x20\n        /* \"contracts/babyshib.sol\":5160:5230  require(sender != address(0), \"ERC20: transfer from the zero address\") */\n      0x04\n      dup3\n      add\n        /* \"#utility.yul\":14757:14778   */\n      mstore\n        /* \"#utility.yul\":14814:14816   */\n      0x25\n        /* \"#utility.yul\":14794:14812   */\n      0x24\n      dup3\n      add\n        /* \"#utility.yul\":14787:14817   */\n      mstore\n        /* \"#utility.yul\":14853:14887   */\n      0x45524332303a207472616e736665722066726f6d20746865207a65726f206164\n        /* \"#utility.yul\":14833:14851   */\n      0x44\n      dup3\n      add\n        /* \"#utility.yul\":14826:14888   */\n      mstore\n      shl(0xd8, 0x6472657373)\n        /* \"#utility.yul\":14904:14922   */\n      0x64\n      dup3\n      add\n        /* \"#utility.yul\":14897:14932   */\n      mstore\n        /* \"#utility.yul\":14949:14968   */\n      0x84\n      add\n        /* \"contracts/babyshib.sol\":5160:5230  require(sender != address(0), \"ERC20: transfer from the zero address\") */\n      tag_241\n        /* \"#utility.yul\":14573:14974   */\n      jump\n        /* \"contracts/babyshib.sol\":5160:5230  require(sender != address(0), \"ERC20: transfer from the zero address\") */\n    tag_532:\n      sub(shl(0xa0, 0x01), 0x01)\n        /* \"contracts/babyshib.sol\":5249:5272  recipient != address(0) */\n      dup3\n      and\n        /* \"contracts/babyshib.sol\":5241:5312  require(recipient != address(0), \"ERC20: transfer to the zero address\") */\n      tag_535\n      jumpi\n      mload(0x40)\n      shl(0xe5, 0x461bcd)\n      dup2\n      mstore\n        /* \"#utility.yul\":15181:15183   */\n      0x20\n        /* \"contracts/babyshib.sol\":5241:5312  require(recipient != address(0), \"ERC20: transfer to the zero address\") */\n      0x04\n      dup3\n      add\n        /* \"#utility.yul\":15163:15184   */\n      mstore\n        /* \"#utility.yul\":15220:15222   */\n      0x23\n        /* \"#utility.yul\":15200:15218   */\n      0x24\n      dup3\n      add\n        /* \"#utility.yul\":15193:15223   */\n      mstore\n        /* \"#utility.yul\":15259:15293   */\n      0x45524332303a207472616e7366657220746f20746865207a65726f2061646472\n        /* \"#utility.yul\":15239:15257   */\n      0x44\n      dup3\n      add\n        /* \"#utility.yul\":15232:15294   */\n      mstore\n      shl(0xe8, 0x657373)\n        /* \"#utility.yul\":15310:15328   */\n      0x64\n      dup3\n      add\n        /* \"#utility.yul\":15303:15336   */\n      mstore\n        /* \"#utility.yul\":15353:15372   */\n      0x84\n      add\n        /* \"contracts/babyshib.sol\":5241:5312  require(recipient != address(0), \"ERC20: transfer to the zero address\") */\n      tag_241\n        /* \"#utility.yul\":14979:15378   */\n      jump\n        /* \"contracts/babyshib.sol\":5241:5312  require(recipient != address(0), \"ERC20: transfer to the zero address\") */\n    tag_535:\n      sub(shl(0xa0, 0x01), 0x01)\n        /* \"contracts/babyshib.sol\":5409:5426  _balances[sender] */\n      dup4\n      and\n        /* \"contracts/babyshib.sol\":5385:5406  uint256 senderBalance */\n      0x00\n        /* \"contracts/babyshib.sol\":5409:5426  _balances[sender] */\n      swap1\n      dup2\n      mstore\n      0x20\n      dup2\n      swap1\n      mstore\n      0x40\n      swap1\n      keccak256\n      sload\n        /* \"contracts/babyshib.sol\":5445:5468  senderBalance >= amount */\n      dup2\n      dup2\n      lt\n      iszero\n        /* \"contracts/babyshib.sol\":5437:5511  require(senderBalance >= amount, \"ERC20: transfer amount exceeds balance\") */\n      tag_540\n      jumpi\n      mload(0x40)\n      shl(0xe5, 0x461bcd)\n      dup2\n      mstore\n        /* \"#utility.yul\":15585:15587   */\n      0x20\n        /* \"contracts/babyshib.sol\":5437:5511  require(senderBalance >= amount, \"ERC20: transfer amount exceeds balance\") */\n      0x04\n      dup3\n      add\n        /* \"#utility.yul\":15567:15588   */\n      mstore\n        /* \"#utility.yul\":15624:15626   */\n      0x26\n        /* \"#utility.yul\":15604:15622   */\n      0x24\n      dup3\n      add\n        /* \"#utility.yul\":15597:15627   */\n      mstore\n        /* \"#utility.yul\":15663:15697   */\n      0x45524332303a207472616e7366657220616d6f756e7420657863656564732062\n        /* \"#utility.yul\":15643:15661   */\n      0x44\n      dup3\n      add\n        /* \"#utility.yul\":15636:15698   */\n      mstore\n      shl(0xd0, 0x616c616e6365)\n        /* \"#utility.yul\":15714:15732   */\n      0x64\n      dup3\n      add\n        /* \"#utility.yul\":15707:15743   */\n      mstore\n        /* \"#utility.yul\":15760:15779   */\n      0x84\n      add\n        /* \"contracts/babyshib.sol\":5437:5511  require(senderBalance >= amount, \"ERC20: transfer amount exceeds balance\") */\n      tag_241\n        /* \"#utility.yul\":15383:15785   */\n      jump\n        /* \"contracts/babyshib.sol\":5437:5511  require(senderBalance >= amount, \"ERC20: transfer amount exceeds balance\") */\n    tag_540:\n        /* \"contracts/babyshib.sol\":5542:5564  senderBalance - amount */\n      tag_543\n        /* \"contracts/babyshib.sol\":5558:5564  amount */\n      dup3\n        /* \"contracts/babyshib.sol\":5542:5555  senderBalance */\n      dup3\n        /* \"contracts/babyshib.sol\":5542:5564  senderBalance - amount */\n      tag_269\n      jump\t// in\n    tag_543:\n      sub(shl(0xa0, 0x01), 0x01)\n        /* \"contracts/babyshib.sol\":5522:5539  _balances[sender] */\n      dup1\n      dup7\n      and\n        /* \"contracts/babyshib.sol\":5522:5531  _balances */\n      0x00\n        /* \"contracts/babyshib.sol\":5522:5539  _balances[sender] */\n      swap1\n      dup2\n      mstore\n      0x20\n      dup2\n      swap1\n      mstore\n      0x40\n      dup1\n      dup3\n      keccak256\n        /* \"contracts/babyshib.sol\":5522:5564  _balances[sender] = senderBalance - amount */\n      swap4\n      swap1\n      swap4\n      sstore\n        /* \"contracts/babyshib.sol\":5575:5595  _balances[recipient] */\n      swap1\n      dup6\n      and\n      dup2\n      mstore\n      swap1\n      dup2\n      keccak256\n        /* \"contracts/babyshib.sol\":5575:5605  _balances[recipient] += amount */\n      dup1\n      sload\n        /* \"contracts/babyshib.sol\":5599:5605  amount */\n      dup5\n      swap3\n        /* \"contracts/babyshib.sol\":5522:5531  _balances */\n      swap1\n        /* \"contracts/babyshib.sol\":5575:5605  _balances[recipient] += amount */\n      tag_544\n      swap1\n        /* \"contracts/babyshib.sol\":5599:5605  amount */\n      dup5\n      swap1\n        /* \"contracts/babyshib.sol\":5575:5605  _balances[recipient] += amount */\n      tag_288\n      jump\t// in\n    tag_544:\n      swap3\n      pop\n      pop\n      dup2\n      swap1\n      sstore\n      pop\n        /* \"contracts/babyshib.sol\":5640:5649  recipient */\n      dup3\n      sub(shl(0xa0, 0x01), 0x01)\n        /* \"contracts/babyshib.sol\":5623:5658  Transfer(sender, recipient, amount) */\n      and\n        /* \"contracts/babyshib.sol\":5632:5638  sender */\n      dup5\n      sub(shl(0xa0, 0x01), 0x01)\n        /* \"contracts/babyshib.sol\":5623:5658  Transfer(sender, recipient, amount) */\n      and\n      0xddf252ad1be2c89b69c2b068fc378daa952ba7f163c4a11628f55a4df523b3ef\n        /* \"contracts/babyshib.sol\":5651:5657  amount */\n      dup5\n        /* \"contracts/babyshib.sol\":5623:5658  Transfer(sender, recipient, amount) */\n      mload(0x40)\n      tag_545\n      swap2\n        /* \"#utility.yul\":1869:1894   */\n      dup2\n      mstore\n        /* \"#utility.yul\":1857:1859   */\n      0x20\n        /* \"#utility.yul\":1842:1860   */\n      add\n      swap1\n        /* \"#utility.yul\":1723:1900   */\n      jump\n        /* \"contracts/babyshib.sol\":5623:5658  Transfer(sender, recipient, amount) */\n    tag_545:\n      mload(0x40)\n      dup1\n      swap2\n      sub\n      swap1\n      log3\n        /* \"contracts/babyshib.sol\":5149:5666  {... */\n      pop\n        /* \"contracts/babyshib.sol\":5028:5666  function _transfer(... */\n      pop\n      pop\n      pop\n      jump\t// out\n        /* \"contracts/babyshib.sol\":16050:16576  function swapTokensForETH(uint256 tokenAmount) private {... */\n    tag_518:\n        /* \"contracts/babyshib.sol\":16192:16208  new address[](2) */\n      0x40\n      dup1\n      mload\n        /* \"contracts/babyshib.sol\":16206:16207  2 */\n      0x02\n        /* \"contracts/babyshib.sol\":16192:16208  new address[](2) */\n      dup1\n      dup3\n      mstore\n      0x60\n      dup3\n      add\n      dup4\n      mstore\n        /* \"contracts/babyshib.sol\":16168:16189  address[] memory path */\n      0x00\n      swap3\n        /* \"contracts/babyshib.sol\":16192:16208  new address[](2) */\n      0x20\n      dup4\n      add\n      swap1\n      dup1\n      calldatasize\n      dup4\n      calldatacopy\n      add\n      swap1\n      pop\n      pop\n        /* \"contracts/babyshib.sol\":16168:16208  address[] memory path = new address[](2) */\n      swap1\n      pop\n        /* \"contracts/babyshib.sol\":16237:16241  this */\n      address\n        /* \"contracts/babyshib.sol\":16219:16223  path */\n      dup2\n        /* \"contracts/babyshib.sol\":16224:16225  0 */\n      0x00\n        /* \"contracts/babyshib.sol\":16219:16226  path[0] */\n      dup2\n      mload\n      dup2\n      lt\n      tag_552\n      jumpi\n      tag_552\n      tag_256\n      jump\t// in\n    tag_552:\n      sub(shl(0xa0, 0x01), 0x01)\n        /* \"contracts/babyshib.sol\":16219:16242  path[0] = address(this) */\n      swap3\n      dup4\n      and\n        /* \"contracts/babyshib.sol\":16219:16226  path[0] */\n      0x20\n      swap2\n      dup3\n      mul\n      swap3\n      swap1\n      swap3\n      add\n      dup2\n      add\n        /* \"contracts/babyshib.sol\":16219:16242  path[0] = address(this) */\n      swap2\n      swap1\n      swap2\n      mstore\n        /* \"contracts/babyshib.sol\":16263:16269  router */\n      sload(0x06)\n        /* \"contracts/babyshib.sol\":16263:16276  router.WETH() */\n      0x40\n      dup1\n      mload\n      shl(0xe3, 0x15ab88c9)\n      dup2\n      mstore\n      swap1\n      mload\n        /* \"contracts/babyshib.sol\":16263:16269  router */\n      swap2\n      swap1\n      swap4\n      and\n      swap3\n        /* \"contracts/babyshib.sol\":16263:16274  router.WETH */\n      0xad5c4648\n      swap3\n        /* \"contracts/babyshib.sol\":16263:16276  router.WETH() */\n      0x04\n      dup1\n      dup4\n      add\n      swap4\n        /* \"contracts/babyshib.sol\":16219:16226  path[0] */\n      swap2\n      swap3\n        /* \"contracts/babyshib.sol\":16263:16276  router.WETH() */\n      dup3\n      swap1\n      sub\n      add\n      dup2\n        /* \"contracts/babyshib.sol\":16263:16269  router */\n      dup7\n        /* \"contracts/babyshib.sol\":16263:16276  router.WETH() */\n      gas\n      staticcall\n      iszero\n      dup1\n      iszero\n      tag_554\n      jumpi\n      returndatasize\n      0x00\n      dup1\n      returndatacopy\n      revert(0x00, returndatasize)\n    tag_554:\n      pop\n      pop\n      pop\n      pop\n      mload(0x40)\n      returndatasize\n      not(0x1f)\n      0x1f\n      dup3\n      add\n      and\n      dup3\n      add\n      dup1\n      0x40\n      mstore\n      pop\n      dup2\n      add\n      swap1\n      tag_555\n      swap2\n      swap1\n      tag_556\n      jump\t// in\n    tag_555:\n        /* \"contracts/babyshib.sol\":16253:16257  path */\n      dup2\n        /* \"contracts/babyshib.sol\":16258:16259  1 */\n      0x01\n        /* \"contracts/babyshib.sol\":16253:16260  path[1] */\n      dup2\n      mload\n      dup2\n      lt\n      tag_558\n      jumpi\n      tag_558\n      tag_256\n      jump\t// in\n    tag_558:\n      sub(shl(0xa0, 0x01), 0x01)\n        /* \"contracts/babyshib.sol\":16253:16276  path[1] = router.WETH() */\n      swap3\n      dup4\n      and\n        /* \"contracts/babyshib.sol\":16253:16260  path[1] */\n      0x20\n      swap2\n      dup3\n      mul\n      swap3\n      swap1\n      swap3\n      add\n      add\n        /* \"contracts/babyshib.sol\":16253:16276  path[1] = router.WETH() */\n      mstore\n        /* \"contracts/babyshib.sol\":16321:16327  router */\n      sload(0x06)\n        /* \"contracts/babyshib.sol\":16289:16342  _approve(address(this), address(router), tokenAmount) */\n      tag_559\n      swap2\n        /* \"contracts/babyshib.sol\":16306:16310  this */\n      address\n      swap2\n        /* \"contracts/babyshib.sol\":16321:16327  router */\n      and\n        /* \"contracts/babyshib.sol\":16330:16341  tokenAmount */\n      dup5\n        /* \"contracts/babyshib.sol\":16289:16297  _approve */\n      tag_236\n        /* \"contracts/babyshib.sol\":16289:16342  _approve(address(this), address(router), tokenAmount) */\n      jump\t// in\n    tag_559:\n        /* \"contracts/babyshib.sol\":16381:16387  router */\n      sload(0x06)\n        /* \"contracts/babyshib.sol\":16381:16568  router.swapExactTokensForETHSupportingFeeOnTransferTokens(... */\n      mload(0x40)\n      shl(0xe0, 0x791ac947)\n      dup2\n      mstore\n      sub(shl(0xa0, 0x01), 0x01)\n        /* \"contracts/babyshib.sol\":16381:16387  router */\n      swap1\n      swap2\n      and\n      swap1\n        /* \"contracts/babyshib.sol\":16381:16438  router.swapExactTokensForETHSupportingFeeOnTransferTokens */\n      0x791ac947\n      swap1\n        /* \"contracts/babyshib.sol\":16381:16568  router.swapExactTokensForETHSupportingFeeOnTransferTokens(... */\n      tag_560\n      swap1\n        /* \"contracts/babyshib.sol\":16453:16464  tokenAmount */\n      dup6\n      swap1\n        /* \"contracts/babyshib.sol\":16381:16387  router */\n      0x00\n      swap1\n        /* \"contracts/babyshib.sol\":16495:16499  path */\n      dup7\n      swap1\n        /* \"contracts/babyshib.sol\":16522:16526  this */\n      address\n      swap1\n        /* \"contracts/babyshib.sol\":16542:16557  block.timestamp */\n      timestamp\n      swap1\n        /* \"contracts/babyshib.sol\":16381:16568  router.swapExactTokensForETHSupportingFeeOnTransferTokens(... */\n      0x04\n      add\n      tag_561\n      jump\t// in\n    tag_560:\n      0x00\n      mload(0x40)\n      dup1\n      dup4\n      sub\n      dup2\n      0x00\n      dup8\n      dup1\n      extcodesize\n      iszero\n      dup1\n      iszero\n      tag_562\n      jumpi\n      0x00\n      dup1\n      revert\n    tag_562:\n      pop\n      gas\n      call\n      iszero\n      dup1\n      iszero\n      tag_564\n      jumpi\n      returndatasize\n      0x00\n      dup1\n      returndatacopy\n      revert(0x00, returndatasize)\n    tag_564:\n      pop\n      pop\n      pop\n      pop\n        /* \"contracts/babyshib.sol\":16105:16576  {... */\n      pop\n        /* \"contracts/babyshib.sol\":16050:16576  function swapTokensForETH(uint256 tokenAmount) private {... */\n      pop\n      jump\t// out\n        /* \"contracts/babyshib.sol\":16584:17084  function addLiquidity(uint256 tokenAmount, uint256 ethAmount) private {... */\n    tag_525:\n        /* \"contracts/babyshib.sol\":16764:16770  router */\n      sload(0x06)\n        /* \"contracts/babyshib.sol\":16732:16785  _approve(address(this), address(router), tokenAmount) */\n      tag_566\n      swap1\n        /* \"contracts/babyshib.sol\":16749:16753  this */\n      address\n      swap1\n      sub(shl(0xa0, 0x01), 0x01)\n        /* \"contracts/babyshib.sol\":16764:16770  router */\n      and\n        /* \"contracts/babyshib.sol\":16773:16784  tokenAmount */\n      dup5\n        /* \"contracts/babyshib.sol\":16732:16740  _approve */\n      tag_236\n        /* \"contracts/babyshib.sol\":16732:16785  _approve(address(this), address(router), tokenAmount) */\n      jump\t// in\n    tag_566:\n        /* \"contracts/babyshib.sol\":16828:16834  router */\n      sload(0x06)\n        /* \"contracts/babyshib.sol\":16828:17076  router.addLiquidityETH{ value: ethAmount }(... */\n      mload(0x40)\n      shl(0xe0, 0xf305d719)\n      dup2\n      mstore\n        /* \"contracts/babyshib.sol\":16893:16897  this */\n      address\n        /* \"contracts/babyshib.sol\":16828:17076  router.addLiquidityETH{ value: ethAmount }(... */\n      0x04\n      dup3\n      add\n        /* \"#utility.yul\":17372:17406   */\n      mstore\n        /* \"#utility.yul\":17422:17440   */\n      0x24\n      dup2\n      add\n        /* \"#utility.yul\":17415:17449   */\n      dup5\n      swap1\n      mstore\n        /* \"contracts/babyshib.sol\":16828:16834  router */\n      0x00\n        /* \"#utility.yul\":17465:17483   */\n      0x44\n      dup3\n      add\n        /* \"#utility.yul\":17458:17492   */\n      dup2\n      swap1\n      mstore\n        /* \"#utility.yul\":17508:17526   */\n      0x64\n      dup3\n      add\n        /* \"#utility.yul\":17501:17535   */\n      mstore\n        /* \"contracts/babyshib.sol\":9343:9385  0x000000000000000000000000000000000000dEaD */\n      0xdead\n        /* \"#utility.yul\":17551:17570   */\n      0x84\n      dup3\n      add\n        /* \"#utility.yul\":17544:17588   */\n      mstore\n        /* \"contracts/babyshib.sol\":17050:17065  block.timestamp */\n      timestamp\n        /* \"#utility.yul\":17604:17623   */\n      0xa4\n      dup3\n      add\n        /* \"#utility.yul\":17597:17632   */\n      mstore\n      sub(shl(0xa0, 0x01), 0x01)\n        /* \"contracts/babyshib.sol\":16828:16834  router */\n      swap1\n      swap2\n      and\n      swap1\n        /* \"contracts/babyshib.sol\":16828:16850  router.addLiquidityETH */\n      0xf305d719\n      swap1\n        /* \"contracts/babyshib.sol\":16859:16868  ethAmount */\n      dup4\n      swap1\n        /* \"#utility.yul\":17306:17325   */\n      0xc4\n      add\n        /* \"contracts/babyshib.sol\":16828:17076  router.addLiquidityETH{ value: ethAmount }(... */\n      0x60\n      mload(0x40)\n      dup1\n      dup4\n      sub\n      dup2\n      dup6\n      dup9\n      gas\n      call\n      iszero\n      dup1\n      iszero\n      tag_570\n      jumpi\n      returndatasize\n      0x00\n      dup1\n      returndatacopy\n      revert(0x00, returndatasize)\n    tag_570:\n      pop\n      pop\n      pop\n      pop\n      pop\n      mload(0x40)\n      returndatasize\n      not(0x1f)\n      0x1f\n      dup3\n      add\n      and\n      dup3\n      add\n      dup1\n      0x40\n      mstore\n      pop\n      dup2\n      add\n      swap1\n      tag_571\n      swap2\n      swap1\n      tag_572\n      jump\t// in\n    tag_571:\n      pop\n      pop\n      pop\n        /* \"contracts/babyshib.sol\":16584:17084  function addLiquidity(uint256 tokenAmount, uint256 ethAmount) private {... */\n      pop\n      pop\n      jump\t// out\n        /* \"contracts/babyshib.sol\":6596:6915  function sendValue(address payable recipient, uint256 amount) internal {... */\n    tag_530:\n        /* \"contracts/babyshib.sol\":6711:6717  amount */\n      dup1\n        /* \"contracts/babyshib.sol\":6686:6707  address(this).balance */\n      selfbalance\n        /* \"contracts/babyshib.sol\":6686:6717  address(this).balance >= amount */\n      lt\n      iszero\n        /* \"contracts/babyshib.sol\":6678:6751  require(address(this).balance >= amount, \"Address: insufficient balance\") */\n      tag_574\n      jumpi\n      mload(0x40)\n      shl(0xe5, 0x461bcd)\n      dup2\n      mstore\n        /* \"#utility.yul\":18156:18158   */\n      0x20\n        /* \"contracts/babyshib.sol\":6678:6751  require(address(this).balance >= amount, \"Address: insufficient balance\") */\n      0x04\n      dup3\n      add\n        /* \"#utility.yul\":18138:18159   */\n      mstore\n        /* \"#utility.yul\":18195:18197   */\n      0x1d\n        /* \"#utility.yul\":18175:18193   */\n      0x24\n      dup3\n      add\n        /* \"#utility.yul\":18168:18198   */\n      mstore\n        /* \"#utility.yul\":18234:18265   */\n      0x416464726573733a20696e73756666696369656e742062616c616e6365000000\n        /* \"#utility.yul\":18214:18232   */\n      0x44\n      dup3\n      add\n        /* \"#utility.yul\":18207:18266   */\n      mstore\n        /* \"#utility.yul\":18283:18301   */\n      0x64\n      add\n        /* \"contracts/babyshib.sol\":6678:6751  require(address(this).balance >= amount, \"Address: insufficient balance\") */\n      tag_241\n        /* \"#utility.yul\":17954:18307   */\n      jump\n        /* \"contracts/babyshib.sol\":6678:6751  require(address(this).balance >= amount, \"Address: insufficient balance\") */\n    tag_574:\n        /* \"contracts/babyshib.sol\":6765:6777  bool success */\n      0x00\n        /* \"contracts/babyshib.sol\":6783:6792  recipient */\n      dup3\n      sub(shl(0xa0, 0x01), 0x01)\n        /* \"contracts/babyshib.sol\":6783:6797  recipient.call */\n      and\n        /* \"contracts/babyshib.sol\":6806:6812  amount */\n      dup3\n        /* \"contracts/babyshib.sol\":6783:6818  recipient.call{ value: amount }(\"\") */\n      mload(0x40)\n      0x00\n      mload(0x40)\n      dup1\n      dup4\n      sub\n      dup2\n      dup6\n      dup8\n      gas\n      call\n      swap3\n      pop\n      pop\n      pop\n      returndatasize\n      dup1\n      0x00\n      dup2\n      eq\n      tag_581\n      jumpi\n      mload(0x40)\n      swap2\n      pop\n      and(add(returndatasize, 0x3f), not(0x1f))\n      dup3\n      add\n      0x40\n      mstore\n      returndatasize\n      dup3\n      mstore\n      returndatasize\n      0x00\n      0x20\n      dup5\n      add\n      returndatacopy\n      jump(tag_580)\n    tag_581:\n      0x60\n      swap2\n      pop\n    tag_580:\n      pop\n        /* \"contracts/babyshib.sol\":6764:6818  (bool success, ) = recipient.call{ value: amount }(\"\") */\n      pop\n      swap1\n      pop\n        /* \"contracts/babyshib.sol\":6837:6844  success */\n      dup1\n        /* \"contracts/babyshib.sol\":6829:6907  require(success, \"Address: unable to send value, recipient may have reverted\") */\n      tag_252\n      jumpi\n      mload(0x40)\n      shl(0xe5, 0x461bcd)\n      dup2\n      mstore\n        /* \"#utility.yul\":18724:18726   */\n      0x20\n        /* \"contracts/babyshib.sol\":6829:6907  require(success, \"Address: unable to send value, recipient may have reverted\") */\n      0x04\n      dup3\n      add\n        /* \"#utility.yul\":18706:18727   */\n      mstore\n        /* \"#utility.yul\":18763:18765   */\n      0x3a\n        /* \"#utility.yul\":18743:18761   */\n      0x24\n      dup3\n      add\n        /* \"#utility.yul\":18736:18766   */\n      mstore\n        /* \"#utility.yul\":18802:18836   */\n      0x416464726573733a20756e61626c6520746f2073656e642076616c75652c2072\n        /* \"#utility.yul\":18782:18800   */\n      0x44\n      dup3\n      add\n        /* \"#utility.yul\":18775:18837   */\n      mstore\n        /* \"#utility.yul\":18873:18901   */\n      0x6563697069656e74206d61792068617665207265766572746564000000000000\n        /* \"#utility.yul\":18853:18871   */\n      0x64\n      dup3\n      add\n        /* \"#utility.yul\":18846:18902   */\n      mstore\n        /* \"#utility.yul\":18919:18938   */\n      0x84\n      add\n        /* \"contracts/babyshib.sol\":6829:6907  require(success, \"Address: unable to send value, recipient may have reverted\") */\n      tag_241\n        /* \"#utility.yul\":18522:18944   */\n      jump\n        /* \"#utility.yul\":14:562   */\n    tag_54:\n        /* \"#utility.yul\":126:130   */\n      0x00\n        /* \"#utility.yul\":155:157   */\n      0x20\n        /* \"#utility.yul\":184:186   */\n      dup1\n        /* \"#utility.yul\":173:182   */\n      dup4\n        /* \"#utility.yul\":166:187   */\n      mstore\n        /* \"#utility.yul\":216:222   */\n      dup4\n        /* \"#utility.yul\":210:223   */\n      mload\n        /* \"#utility.yul\":259:265   */\n      dup1\n        /* \"#utility.yul\":254:256   */\n      dup3\n        /* \"#utility.yul\":243:252   */\n      dup6\n        /* \"#utility.yul\":239:257   */\n      add\n        /* \"#utility.yul\":232:266   */\n      mstore\n        /* \"#utility.yul\":284:285   */\n      0x00\n        /* \"#utility.yul\":294:434   */\n    tag_595:\n        /* \"#utility.yul\":308:314   */\n      dup2\n        /* \"#utility.yul\":305:306   */\n      dup2\n        /* \"#utility.yul\":302:315   */\n      lt\n        /* \"#utility.yul\":294:434   */\n      iszero\n      tag_597\n      jumpi\n        /* \"#utility.yul\":403:417   */\n      dup6\n      dup2\n      add\n        /* \"#utility.yul\":399:422   */\n      dup4\n      add\n        /* \"#utility.yul\":393:423   */\n      mload\n        /* \"#utility.yul\":369:386   */\n      dup6\n      dup3\n      add\n        /* \"#utility.yul\":388:390   */\n      0x40\n        /* \"#utility.yul\":365:391   */\n      add\n        /* \"#utility.yul\":358:424   */\n      mstore\n        /* \"#utility.yul\":323:333   */\n      dup3\n      add\n        /* \"#utility.yul\":294:434   */\n      jump(tag_595)\n    tag_597:\n        /* \"#utility.yul\":298:301   */\n      pop\n        /* \"#utility.yul\":483:484   */\n      0x00\n        /* \"#utility.yul\":478:480   */\n      0x40\n        /* \"#utility.yul\":469:475   */\n      dup3\n        /* \"#utility.yul\":458:467   */\n      dup7\n        /* \"#utility.yul\":454:476   */\n      add\n        /* \"#utility.yul\":450:481   */\n      add\n        /* \"#utility.yul\":443:485   */\n      mstore\n        /* \"#utility.yul\":553:555   */\n      0x40\n        /* \"#utility.yul\":546:548   */\n      0x1f\n        /* \"#utility.yul\":542:549   */\n      not\n        /* \"#utility.yul\":537:539   */\n      0x1f\n        /* \"#utility.yul\":529:535   */\n      dup4\n        /* \"#utility.yul\":525:540   */\n      add\n        /* \"#utility.yul\":521:550   */\n      and\n        /* \"#utility.yul\":510:519   */\n      dup6\n        /* \"#utility.yul\":506:551   */\n      add\n        /* \"#utility.yul\":502:556   */\n      add\n        /* \"#utility.yul\":494:556   */\n      swap3\n      pop\n      pop\n      pop\n        /* \"#utility.yul\":14:562   */\n      swap3\n      swap2\n      pop\n      pop\n      jump\t// out\n        /* \"#utility.yul\":567:698   */\n    tag_586:\n      sub(shl(0xa0, 0x01), 0x01)\n        /* \"#utility.yul\":642:673   */\n      dup2\n      and\n        /* \"#utility.yul\":632:674   */\n      dup2\n      eq\n        /* \"#utility.yul\":622:692   */\n      tag_415\n      jumpi\n        /* \"#utility.yul\":688:689   */\n      0x00\n        /* \"#utility.yul\":685:686   */\n      dup1\n        /* \"#utility.yul\":678:690   */\n      revert\n        /* \"#utility.yul\":703:837   */\n    tag_587:\n        /* \"#utility.yul\":771:791   */\n      dup1\n      calldataload\n        /* \"#utility.yul\":800:831   */\n      tag_601\n        /* \"#utility.yul\":771:791   */\n      dup2\n        /* \"#utility.yul\":800:831   */\n      tag_586\n      jump\t// in\n    tag_601:\n        /* \"#utility.yul\":703:837   */\n      swap2\n      swap1\n      pop\n      jump\t// out\n        /* \"#utility.yul\":842:1157   */\n    tag_58:\n        /* \"#utility.yul\":910:916   */\n      0x00\n        /* \"#utility.yul\":918:924   */\n      dup1\n        /* \"#utility.yul\":971:973   */\n      0x40\n        /* \"#utility.yul\":959:968   */\n      dup4\n        /* \"#utility.yul\":950:957   */\n      dup6\n        /* \"#utility.yul\":946:969   */\n      sub\n        /* \"#utility.yul\":942:974   */\n      slt\n        /* \"#utility.yul\":939:991   */\n      iszero\n      tag_603\n      jumpi\n        /* \"#utility.yul\":987:988   */\n      0x00\n        /* \"#utility.yul\":984:985   */\n      dup1\n        /* \"#utility.yul\":977:989   */\n      revert\n        /* \"#utility.yul\":939:991   */\n    tag_603:\n        /* \"#utility.yul\":1026:1035   */\n      dup3\n        /* \"#utility.yul\":1013:1036   */\n      calldataload\n        /* \"#utility.yul\":1045:1076   */\n      tag_604\n        /* \"#utility.yul\":1070:1075   */\n      dup2\n        /* \"#utility.yul\":1045:1076   */\n      tag_586\n      jump\t// in\n    tag_604:\n        /* \"#utility.yul\":1095:1100   */\n      swap5\n        /* \"#utility.yul\":1147:1149   */\n      0x20\n        /* \"#utility.yul\":1132:1150   */\n      swap4\n      swap1\n      swap4\n      add\n        /* \"#utility.yul\":1119:1151   */\n      calldataload\n      swap4\n      pop\n      pop\n      pop\n        /* \"#utility.yul\":842:1157   */\n      jump\t// out\n        /* \"#utility.yul\":1354:1472   */\n    tag_588:\n        /* \"#utility.yul\":1440:1445   */\n      dup1\n        /* \"#utility.yul\":1433:1446   */\n      iszero\n        /* \"#utility.yul\":1426:1447   */\n      iszero\n        /* \"#utility.yul\":1419:1424   */\n      dup2\n        /* \"#utility.yul\":1416:1448   */\n      eq\n        /* \"#utility.yul\":1406:1466   */\n      tag_415\n      jumpi\n        /* \"#utility.yul\":1462:1463   */\n      0x00\n        /* \"#utility.yul\":1459:1460   */\n      dup1\n        /* \"#utility.yul\":1452:1464   */\n      revert\n        /* \"#utility.yul\":1477:1718   */\n    tag_65:\n        /* \"#utility.yul\":1533:1539   */\n      0x00\n        /* \"#utility.yul\":1586:1588   */\n      0x20\n        /* \"#utility.yul\":1574:1583   */\n      dup3\n        /* \"#utility.yul\":1565:1572   */\n      dup5\n        /* \"#utility.yul\":1561:1584   */\n      sub\n        /* \"#utility.yul\":1557:1589   */\n      slt\n        /* \"#utility.yul\":1554:1606   */\n      iszero\n      tag_609\n      jumpi\n        /* \"#utility.yul\":1602:1603   */\n      0x00\n        /* \"#utility.yul\":1599:1600   */\n      dup1\n        /* \"#utility.yul\":1592:1604   */\n      revert\n        /* \"#utility.yul\":1554:1606   */\n    tag_609:\n        /* \"#utility.yul\":1641:1650   */\n      dup2\n        /* \"#utility.yul\":1628:1651   */\n      calldataload\n        /* \"#utility.yul\":1660:1688   */\n      tag_610\n        /* \"#utility.yul\":1682:1687   */\n      dup2\n        /* \"#utility.yul\":1660:1688   */\n      tag_588\n      jump\t// in\n    tag_610:\n        /* \"#utility.yul\":1707:1712   */\n      swap4\n        /* \"#utility.yul\":1477:1718   */\n      swap3\n      pop\n      pop\n      pop\n      jump\t// out\n        /* \"#utility.yul\":1905:2032   */\n    tag_549:\n        /* \"#utility.yul\":1966:1976   */\n      0x4e487b71\n        /* \"#utility.yul\":1961:1964   */\n      0xe0\n        /* \"#utility.yul\":1957:1977   */\n      shl\n        /* \"#utility.yul\":1954:1955   */\n      0x00\n        /* \"#utility.yul\":1947:1978   */\n      mstore\n        /* \"#utility.yul\":1997:2001   */\n      0x41\n        /* \"#utility.yul\":1994:1995   */\n      0x04\n        /* \"#utility.yul\":1987:2002   */\n      mstore\n        /* \"#utility.yul\":2021:2025   */\n      0x24\n        /* \"#utility.yul\":2018:2019   */\n      0x00\n        /* \"#utility.yul\":2011:2026   */\n      revert\n        /* \"#utility.yul\":2037:2945   */\n    tag_589:\n        /* \"#utility.yul\":2091:2096   */\n      0x00\n        /* \"#utility.yul\":2144:2147   */\n      dup3\n        /* \"#utility.yul\":2137:2141   */\n      0x1f\n        /* \"#utility.yul\":2129:2135   */\n      dup4\n        /* \"#utility.yul\":2125:2142   */\n      add\n        /* \"#utility.yul\":2121:2148   */\n      slt\n        /* \"#utility.yul\":2111:2166   */\n      tag_614\n      jumpi\n        /* \"#utility.yul\":2162:2163   */\n      0x00\n        /* \"#utility.yul\":2159:2160   */\n      dup1\n        /* \"#utility.yul\":2152:2164   */\n      revert\n        /* \"#utility.yul\":2111:2166   */\n    tag_614:\n        /* \"#utility.yul\":2198:2204   */\n      dup2\n        /* \"#utility.yul\":2185:2205   */\n      calldataload\n        /* \"#utility.yul\":2224:2228   */\n      0x20\n        /* \"#utility.yul\":2247:2265   */\n      0xffffffffffffffff\n        /* \"#utility.yul\":2284:2286   */\n      dup1\n        /* \"#utility.yul\":2280:2282   */\n      dup4\n        /* \"#utility.yul\":2277:2287   */\n      gt\n        /* \"#utility.yul\":2274:2310   */\n      iszero\n      tag_616\n      jumpi\n        /* \"#utility.yul\":2290:2308   */\n      tag_616\n      tag_549\n      jump\t// in\n    tag_616:\n        /* \"#utility.yul\":2336:2338   */\n      dup3\n        /* \"#utility.yul\":2333:2334   */\n      0x05\n        /* \"#utility.yul\":2329:2339   */\n      shl\n        /* \"#utility.yul\":2368:2370   */\n      0x40\n        /* \"#utility.yul\":2362:2371   */\n      mload\n        /* \"#utility.yul\":2431:2433   */\n      0x1f\n        /* \"#utility.yul\":2427:2434   */\n      not\n        /* \"#utility.yul\":2422:2424   */\n      0x3f\n        /* \"#utility.yul\":2418:2420   */\n      dup4\n        /* \"#utility.yul\":2414:2425   */\n      add\n        /* \"#utility.yul\":2410:2435   */\n      and\n        /* \"#utility.yul\":2402:2408   */\n      dup2\n        /* \"#utility.yul\":2398:2436   */\n      add\n        /* \"#utility.yul\":2486:2492   */\n      dup2\n        /* \"#utility.yul\":2474:2484   */\n      dup2\n        /* \"#utility.yul\":2471:2493   */\n      lt\n        /* \"#utility.yul\":2466:2468   */\n      dup5\n        /* \"#utility.yul\":2454:2464   */\n      dup3\n        /* \"#utility.yul\":2451:2469   */\n      gt\n        /* \"#utility.yul\":2448:2494   */\n      or\n        /* \"#utility.yul\":2445:2517   */\n      iszero\n      tag_618\n      jumpi\n        /* \"#utility.yul\":2497:2515   */\n      tag_618\n      tag_549\n      jump\t// in\n    tag_618:\n        /* \"#utility.yul\":2533:2535   */\n      0x40\n        /* \"#utility.yul\":2526:2548   */\n      mstore\n        /* \"#utility.yul\":2583:2601   */\n      swap4\n      dup5\n      mstore\n        /* \"#utility.yul\":2659:2674   */\n      dup6\n      dup2\n      add\n        /* \"#utility.yul\":2655:2679   */\n      dup4\n      add\n      swap4\n        /* \"#utility.yul\":2617:2632   */\n      dup4\n      dup2\n      add\n      swap3\n      pop\n        /* \"#utility.yul\":2691:2706   */\n      dup8\n      dup6\n      gt\n        /* \"#utility.yul\":2688:2723   */\n      iszero\n      tag_619\n      jumpi\n        /* \"#utility.yul\":2719:2720   */\n      0x00\n        /* \"#utility.yul\":2716:2717   */\n      dup1\n        /* \"#utility.yul\":2709:2721   */\n      revert\n        /* \"#utility.yul\":2688:2723   */\n    tag_619:\n        /* \"#utility.yul\":2755:2757   */\n      dup4\n        /* \"#utility.yul\":2747:2753   */\n      dup8\n        /* \"#utility.yul\":2743:2758   */\n      add\n        /* \"#utility.yul\":2732:2758   */\n      swap2\n      pop\n        /* \"#utility.yul\":2767:2915   */\n    tag_620:\n        /* \"#utility.yul\":2783:2789   */\n      dup5\n        /* \"#utility.yul\":2778:2781   */\n      dup3\n        /* \"#utility.yul\":2775:2790   */\n      lt\n        /* \"#utility.yul\":2767:2915   */\n      iszero\n      tag_622\n      jumpi\n        /* \"#utility.yul\":2849:2872   */\n      tag_623\n        /* \"#utility.yul\":2868:2871   */\n      dup3\n        /* \"#utility.yul\":2849:2872   */\n      tag_587\n      jump\t// in\n    tag_623:\n        /* \"#utility.yul\":2837:2873   */\n      dup4\n      mstore\n        /* \"#utility.yul\":2893:2905   */\n      swap2\n      dup4\n      add\n      swap2\n        /* \"#utility.yul\":2800:2812   */\n      swap1\n      dup4\n      add\n      swap1\n        /* \"#utility.yul\":2767:2915   */\n      jump(tag_620)\n    tag_622:\n        /* \"#utility.yul\":2933:2939   */\n      swap8\n        /* \"#utility.yul\":2037:2945   */\n      swap7\n      pop\n      pop\n      pop\n      pop\n      pop\n      pop\n      pop\n      jump\t// out\n        /* \"#utility.yul\":2950:3427   */\n    tag_75:\n        /* \"#utility.yul\":3040:3046   */\n      0x00\n        /* \"#utility.yul\":3048:3054   */\n      dup1\n        /* \"#utility.yul\":3101:3103   */\n      0x40\n        /* \"#utility.yul\":3089:3098   */\n      dup4\n        /* \"#utility.yul\":3080:3087   */\n      dup6\n        /* \"#utility.yul\":3076:3099   */\n      sub\n        /* \"#utility.yul\":3072:3104   */\n      slt\n        /* \"#utility.yul\":3069:3121   */\n      iszero\n      tag_625\n      jumpi\n        /* \"#utility.yul\":3117:3118   */\n      0x00\n        /* \"#utility.yul\":3114:3115   */\n      dup1\n        /* \"#utility.yul\":3107:3119   */\n      revert\n        /* \"#utility.yul\":3069:3121   */\n    tag_625:\n        /* \"#utility.yul\":3157:3166   */\n      dup3\n        /* \"#utility.yul\":3144:3167   */\n      calldataload\n        /* \"#utility.yul\":3190:3208   */\n      0xffffffffffffffff\n        /* \"#utility.yul\":3182:3188   */\n      dup2\n        /* \"#utility.yul\":3179:3209   */\n      gt\n        /* \"#utility.yul\":3176:3226   */\n      iszero\n      tag_626\n      jumpi\n        /* \"#utility.yul\":3222:3223   */\n      0x00\n        /* \"#utility.yul\":3219:3220   */\n      dup1\n        /* \"#utility.yul\":3212:3224   */\n      revert\n        /* \"#utility.yul\":3176:3226   */\n    tag_626:\n        /* \"#utility.yul\":3245:3306   */\n      tag_627\n        /* \"#utility.yul\":3298:3305   */\n      dup6\n        /* \"#utility.yul\":3289:3295   */\n      dup3\n        /* \"#utility.yul\":3278:3287   */\n      dup7\n        /* \"#utility.yul\":3274:3296   */\n      add\n        /* \"#utility.yul\":3245:3306   */\n      tag_589\n      jump\t// in\n    tag_627:\n        /* \"#utility.yul\":3235:3306   */\n      swap3\n      pop\n      pop\n        /* \"#utility.yul\":3356:3358   */\n      0x20\n        /* \"#utility.yul\":3345:3354   */\n      dup4\n        /* \"#utility.yul\":3341:3359   */\n      add\n        /* \"#utility.yul\":3328:3360   */\n      calldataload\n        /* \"#utility.yul\":3369:3397   */\n      tag_628\n        /* \"#utility.yul\":3391:3396   */\n      dup2\n        /* \"#utility.yul\":3369:3397   */\n      tag_588\n      jump\t// in\n    tag_628:\n        /* \"#utility.yul\":3416:3421   */\n      dup1\n        /* \"#utility.yul\":3406:3421   */\n      swap2\n      pop\n      pop\n        /* \"#utility.yul\":2950:3427   */\n      swap3\n      pop\n      swap3\n      swap1\n      pop\n      jump\t// out\n        /* \"#utility.yul\":3432:3888   */\n    tag_80:\n        /* \"#utility.yul\":3509:3515   */\n      0x00\n        /* \"#utility.yul\":3517:3523   */\n      dup1\n        /* \"#utility.yul\":3525:3531   */\n      0x00\n        /* \"#utility.yul\":3578:3580   */\n      0x60\n        /* \"#utility.yul\":3566:3575   */\n      dup5\n        /* \"#utility.yul\":3557:3564   */\n      dup7\n        /* \"#utility.yul\":3553:3576   */\n      sub\n        /* \"#utility.yul\":3549:3581   */\n      slt\n        /* \"#utility.yul\":3546:3598   */\n      iszero\n      tag_630\n      jumpi\n        /* \"#utility.yul\":3594:3595   */\n      0x00\n        /* \"#utility.yul\":3591:3592   */\n      dup1\n        /* \"#utility.yul\":3584:3596   */\n      revert\n        /* \"#utility.yul\":3546:3598   */\n    tag_630:\n        /* \"#utility.yul\":3633:3642   */\n      dup4\n        /* \"#utility.yul\":3620:3643   */\n      calldataload\n        /* \"#utility.yul\":3652:3683   */\n      tag_631\n        /* \"#utility.yul\":3677:3682   */\n      dup2\n        /* \"#utility.yul\":3652:3683   */\n      tag_586\n      jump\t// in\n    tag_631:\n        /* \"#utility.yul\":3702:3707   */\n      swap3\n      pop\n        /* \"#utility.yul\":3759:3761   */\n      0x20\n        /* \"#utility.yul\":3744:3762   */\n      dup5\n      add\n        /* \"#utility.yul\":3731:3763   */\n      calldataload\n        /* \"#utility.yul\":3772:3805   */\n      tag_632\n        /* \"#utility.yul\":3731:3763   */\n      dup2\n        /* \"#utility.yul\":3772:3805   */\n      tag_586\n      jump\t// in\n    tag_632:\n        /* \"#utility.yul\":3432:3888   */\n      swap3\n      swap6\n        /* \"#utility.yul\":3824:3831   */\n      swap3\n      swap5\n      pop\n      pop\n      pop\n        /* \"#utility.yul\":3878:3880   */\n      0x40\n        /* \"#utility.yul\":3863:3881   */\n      swap2\n      swap1\n      swap2\n      add\n        /* \"#utility.yul\":3850:3882   */\n      calldataload\n      swap1\n        /* \"#utility.yul\":3432:3888   */\n      jump\t// out\n        /* \"#utility.yul\":3893:4241   */\n    tag_86:\n        /* \"#utility.yul\":3977:3983   */\n      0x00\n        /* \"#utility.yul\":4030:4032   */\n      0x20\n        /* \"#utility.yul\":4018:4027   */\n      dup3\n        /* \"#utility.yul\":4009:4016   */\n      dup5\n        /* \"#utility.yul\":4005:4028   */\n      sub\n        /* \"#utility.yul\":4001:4033   */\n      slt\n        /* \"#utility.yul\":3998:4050   */\n      iszero\n      tag_634\n      jumpi\n        /* \"#utility.yul\":4046:4047   */\n      0x00\n        /* \"#utility.yul\":4043:4044   */\n      dup1\n        /* \"#utility.yul\":4036:4048   */\n      revert\n        /* \"#utility.yul\":3998:4050   */\n    tag_634:\n        /* \"#utility.yul\":4086:4095   */\n      dup2\n        /* \"#utility.yul\":4073:4096   */\n      calldataload\n        /* \"#utility.yul\":4119:4137   */\n      0xffffffffffffffff\n        /* \"#utility.yul\":4111:4117   */\n      dup2\n        /* \"#utility.yul\":4108:4138   */\n      gt\n        /* \"#utility.yul\":4105:4155   */\n      iszero\n      tag_635\n      jumpi\n        /* \"#utility.yul\":4151:4152   */\n      0x00\n        /* \"#utility.yul\":4148:4149   */\n      dup1\n        /* \"#utility.yul\":4141:4153   */\n      revert\n        /* \"#utility.yul\":4105:4155   */\n    tag_635:\n        /* \"#utility.yul\":4174:4235   */\n      tag_636\n        /* \"#utility.yul\":4227:4234   */\n      dup5\n        /* \"#utility.yul\":4218:4224   */\n      dup3\n        /* \"#utility.yul\":4207:4216   */\n      dup6\n        /* \"#utility.yul\":4203:4225   */\n      add\n        /* \"#utility.yul\":4174:4235   */\n      tag_589\n      jump\t// in\n    tag_636:\n        /* \"#utility.yul\":4164:4235   */\n      swap5\n        /* \"#utility.yul\":3893:4241   */\n      swap4\n      pop\n      pop\n      pop\n      pop\n      jump\t// out\n        /* \"#utility.yul\":4435:4615   */\n    tag_101:\n        /* \"#utility.yul\":4494:4500   */\n      0x00\n        /* \"#utility.yul\":4547:4549   */\n      0x20\n        /* \"#utility.yul\":4535:4544   */\n      dup3\n        /* \"#utility.yul\":4526:4533   */\n      dup5\n        /* \"#utility.yul\":4522:4545   */\n      sub\n        /* \"#utility.yul\":4518:4550   */\n      slt\n        /* \"#utility.yul\":4515:4567   */\n      iszero\n      tag_639\n      jumpi\n        /* \"#utility.yul\":4563:4564   */\n      0x00\n        /* \"#utility.yul\":4560:4561   */\n      dup1\n        /* \"#utility.yul\":4553:4565   */\n      revert\n        /* \"#utility.yul\":4515:4567   */\n    tag_639:\n      pop\n        /* \"#utility.yul\":4586:4609   */\n      calldataload\n      swap2\n        /* \"#utility.yul\":4435:4615   */\n      swap1\n      pop\n      jump\t// out\n        /* \"#utility.yul\":4620:4867   */\n    tag_114:\n        /* \"#utility.yul\":4679:4685   */\n      0x00\n        /* \"#utility.yul\":4732:4734   */\n      0x20\n        /* \"#utility.yul\":4720:4729   */\n      dup3\n        /* \"#utility.yul\":4711:4718   */\n      dup5\n        /* \"#utility.yul\":4707:4730   */\n      sub\n        /* \"#utility.yul\":4703:4735   */\n      slt\n        /* \"#utility.yul\":4700:4752   */\n      iszero\n      tag_641\n      jumpi\n        /* \"#utility.yul\":4748:4749   */\n      0x00\n        /* \"#utility.yul\":4745:4746   */\n      dup1\n        /* \"#utility.yul\":4738:4750   */\n      revert\n        /* \"#utility.yul\":4700:4752   */\n    tag_641:\n        /* \"#utility.yul\":4787:4796   */\n      dup2\n        /* \"#utility.yul\":4774:4797   */\n      calldataload\n        /* \"#utility.yul\":4806:4837   */\n      tag_610\n        /* \"#utility.yul\":4831:4836   */\n      dup2\n        /* \"#utility.yul\":4806:4837   */\n      tag_586\n      jump\t// in\n        /* \"#utility.yul\":5125:5507   */\n    tag_140:\n        /* \"#utility.yul\":5190:5196   */\n      0x00\n        /* \"#utility.yul\":5198:5204   */\n      dup1\n        /* \"#utility.yul\":5251:5253   */\n      0x40\n        /* \"#utility.yul\":5239:5248   */\n      dup4\n        /* \"#utility.yul\":5230:5237   */\n      dup6\n        /* \"#utility.yul\":5226:5249   */\n      sub\n        /* \"#utility.yul\":5222:5254   */\n      slt\n        /* \"#utility.yul\":5219:5271   */\n      iszero\n      tag_645\n      jumpi\n        /* \"#utility.yul\":5267:5268   */\n      0x00\n        /* \"#utility.yul\":5264:5265   */\n      dup1\n        /* \"#utility.yul\":5257:5269   */\n      revert\n        /* \"#utility.yul\":5219:5271   */\n    tag_645:\n        /* \"#utility.yul\":5306:5315   */\n      dup3\n        /* \"#utility.yul\":5293:5316   */\n      calldataload\n        /* \"#utility.yul\":5325:5356   */\n      tag_646\n        /* \"#utility.yul\":5350:5355   */\n      dup2\n        /* \"#utility.yul\":5325:5356   */\n      tag_586\n      jump\t// in\n    tag_646:\n        /* \"#utility.yul\":5375:5380   */\n      swap2\n      pop\n        /* \"#utility.yul\":5432:5434   */\n      0x20\n        /* \"#utility.yul\":5417:5435   */\n      dup4\n      add\n        /* \"#utility.yul\":5404:5436   */\n      calldataload\n        /* \"#utility.yul\":5445:5475   */\n      tag_628\n        /* \"#utility.yul\":5404:5436   */\n      dup2\n        /* \"#utility.yul\":5445:5475   */\n      tag_588\n      jump\t// in\n        /* \"#utility.yul\":5720:5968   */\n    tag_192:\n        /* \"#utility.yul\":5788:5794   */\n      0x00\n        /* \"#utility.yul\":5796:5802   */\n      dup1\n        /* \"#utility.yul\":5849:5851   */\n      0x40\n        /* \"#utility.yul\":5837:5846   */\n      dup4\n        /* \"#utility.yul\":5828:5835   */\n      dup6\n        /* \"#utility.yul\":5824:5847   */\n      sub\n        /* \"#utility.yul\":5820:5852   */\n      slt\n        /* \"#utility.yul\":5817:5869   */\n      iszero\n      tag_650\n      jumpi\n        /* \"#utility.yul\":5865:5866   */\n      0x00\n        /* \"#utility.yul\":5862:5863   */\n      dup1\n        /* \"#utility.yul\":5855:5867   */\n      revert\n        /* \"#utility.yul\":5817:5869   */\n    tag_650:\n      pop\n      pop\n        /* \"#utility.yul\":5888:5911   */\n      dup1\n      calldataload\n      swap3\n        /* \"#utility.yul\":5958:5960   */\n      0x20\n        /* \"#utility.yul\":5943:5961   */\n      swap1\n      swap2\n      add\n        /* \"#utility.yul\":5930:5962   */\n      calldataload\n      swap2\n      pop\n        /* \"#utility.yul\":5720:5968   */\n      jump\t// out\n        /* \"#utility.yul\":5973:6361   */\n    tag_197:\n        /* \"#utility.yul\":6041:6047   */\n      0x00\n        /* \"#utility.yul\":6049:6055   */\n      dup1\n        /* \"#utility.yul\":6102:6104   */\n      0x40\n        /* \"#utility.yul\":6090:6099   */\n      dup4\n        /* \"#utility.yul\":6081:6088   */\n      dup6\n        /* \"#utility.yul\":6077:6100   */\n      sub\n        /* \"#utility.yul\":6073:6105   */\n      slt\n        /* \"#utility.yul\":6070:6122   */\n      iszero\n      tag_652\n      jumpi\n        /* \"#utility.yul\":6118:6119   */\n      0x00\n        /* \"#utility.yul\":6115:6116   */\n      dup1\n        /* \"#utility.yul\":6108:6120   */\n      revert\n        /* \"#utility.yul\":6070:6122   */\n    tag_652:\n        /* \"#utility.yul\":6157:6166   */\n      dup3\n        /* \"#utility.yul\":6144:6167   */\n      calldataload\n        /* \"#utility.yul\":6176:6207   */\n      tag_653\n        /* \"#utility.yul\":6201:6206   */\n      dup2\n        /* \"#utility.yul\":6176:6207   */\n      tag_586\n      jump\t// in\n    tag_653:\n        /* \"#utility.yul\":6226:6231   */\n      swap2\n      pop\n        /* \"#utility.yul\":6283:6285   */\n      0x20\n        /* \"#utility.yul\":6268:6286   */\n      dup4\n      add\n        /* \"#utility.yul\":6255:6287   */\n      calldataload\n        /* \"#utility.yul\":6296:6329   */\n      tag_628\n        /* \"#utility.yul\":6255:6287   */\n      dup2\n        /* \"#utility.yul\":6296:6329   */\n      tag_586\n      jump\t// in\n        /* \"#utility.yul\":6589:6969   */\n    tag_227:\n        /* \"#utility.yul\":6668:6669   */\n      0x01\n        /* \"#utility.yul\":6664:6676   */\n      dup2\n      dup2\n      shr\n      swap1\n        /* \"#utility.yul\":6711:6723   */\n      dup3\n      and\n      dup1\n        /* \"#utility.yul\":6732:6793   */\n      tag_657\n      jumpi\n        /* \"#utility.yul\":6786:6790   */\n      0x7f\n        /* \"#utility.yul\":6778:6784   */\n      dup3\n        /* \"#utility.yul\":6774:6791   */\n      and\n        /* \"#utility.yul\":6764:6791   */\n      swap2\n      pop\n        /* \"#utility.yul\":6732:6793   */\n    tag_657:\n        /* \"#utility.yul\":6839:6841   */\n      0x20\n        /* \"#utility.yul\":6831:6837   */\n      dup3\n        /* \"#utility.yul\":6828:6842   */\n      lt\n        /* \"#utility.yul\":6808:6826   */\n      dup2\n        /* \"#utility.yul\":6805:6843   */\n      sub\n        /* \"#utility.yul\":6802:6963   */\n      tag_658\n      jumpi\n        /* \"#utility.yul\":6885:6895   */\n      0x4e487b71\n        /* \"#utility.yul\":6880:6883   */\n      0xe0\n        /* \"#utility.yul\":6876:6896   */\n      shl\n        /* \"#utility.yul\":6873:6874   */\n      0x00\n        /* \"#utility.yul\":6866:6897   */\n      mstore\n        /* \"#utility.yul\":6920:6924   */\n      0x22\n        /* \"#utility.yul\":6917:6918   */\n      0x04\n        /* \"#utility.yul\":6910:6925   */\n      mstore\n        /* \"#utility.yul\":6948:6952   */\n      0x24\n        /* \"#utility.yul\":6945:6946   */\n      0x00\n        /* \"#utility.yul\":6938:6953   */\n      revert\n        /* \"#utility.yul\":6802:6963   */\n    tag_658:\n      pop\n        /* \"#utility.yul\":6589:6969   */\n      swap2\n      swap1\n      pop\n      jump\t// out\n        /* \"#utility.yul\":6974:7330   */\n    tag_242:\n        /* \"#utility.yul\":7176:7178   */\n      0x20\n        /* \"#utility.yul\":7158:7179   */\n      dup1\n      dup3\n      mstore\n        /* \"#utility.yul\":7195:7213   */\n      dup2\n      dup2\n      add\n        /* \"#utility.yul\":7188:7218   */\n      mstore\n        /* \"#utility.yul\":7254:7288   */\n      0x4f776e61626c653a2063616c6c6572206973206e6f7420746865206f776e6572\n        /* \"#utility.yul\":7249:7251   */\n      0x40\n        /* \"#utility.yul\":7234:7252   */\n      dup3\n      add\n        /* \"#utility.yul\":7227:7289   */\n      mstore\n        /* \"#utility.yul\":7321:7323   */\n      0x60\n        /* \"#utility.yul\":7306:7324   */\n      add\n      swap1\n        /* \"#utility.yul\":6974:7330   */\n      jump\t// out\n        /* \"#utility.yul\":7335:7462   */\n    tag_256:\n        /* \"#utility.yul\":7396:7406   */\n      0x4e487b71\n        /* \"#utility.yul\":7391:7394   */\n      0xe0\n        /* \"#utility.yul\":7387:7407   */\n      shl\n        /* \"#utility.yul\":7384:7385   */\n      0x00\n        /* \"#utility.yul\":7377:7408   */\n      mstore\n        /* \"#utility.yul\":7427:7431   */\n      0x32\n        /* \"#utility.yul\":7424:7425   */\n      0x04\n        /* \"#utility.yul\":7417:7432   */\n      mstore\n        /* \"#utility.yul\":7451:7455   */\n      0x24\n        /* \"#utility.yul\":7448:7449   */\n      0x00\n        /* \"#utility.yul\":7441:7456   */\n      revert\n        /* \"#utility.yul\":7467:7594   */\n    tag_590:\n        /* \"#utility.yul\":7528:7538   */\n      0x4e487b71\n        /* \"#utility.yul\":7523:7526   */\n      0xe0\n        /* \"#utility.yul\":7519:7539   */\n      shl\n        /* \"#utility.yul\":7516:7517   */\n      0x00\n        /* \"#utility.yul\":7509:7540   */\n      mstore\n        /* \"#utility.yul\":7559:7563   */\n      0x11\n        /* \"#utility.yul\":7556:7557   */\n      0x04\n        /* \"#utility.yul\":7549:7564   */\n      mstore\n        /* \"#utility.yul\":7583:7587   */\n      0x24\n        /* \"#utility.yul\":7580:7581   */\n      0x00\n        /* \"#utility.yul\":7573:7588   */\n      revert\n        /* \"#utility.yul\":7599:7734   */\n    tag_258:\n        /* \"#utility.yul\":7638:7641   */\n      0x00\n        /* \"#utility.yul\":7659:7676   */\n      0x01\n      dup3\n      add\n        /* \"#utility.yul\":7656:7699   */\n      tag_664\n      jumpi\n        /* \"#utility.yul\":7679:7697   */\n      tag_664\n      tag_590\n      jump\t// in\n    tag_664:\n      pop\n        /* \"#utility.yul\":7726:7727   */\n      0x01\n        /* \"#utility.yul\":7715:7728   */\n      add\n      swap1\n        /* \"#utility.yul\":7599:7734   */\n      jump\t// out\n        /* \"#utility.yul\":8148:8276   */\n    tag_269:\n        /* \"#utility.yul\":8215:8224   */\n      dup2\n      dup2\n      sub\n        /* \"#utility.yul\":8236:8247   */\n      dup2\n      dup2\n      gt\n        /* \"#utility.yul\":8233:8270   */\n      iszero\n      tag_232\n      jumpi\n        /* \"#utility.yul\":8250:8268   */\n      tag_232\n      tag_590\n      jump\t// in\n        /* \"#utility.yul\":8281:8406   */\n    tag_288:\n        /* \"#utility.yul\":8346:8355   */\n      dup1\n      dup3\n      add\n        /* \"#utility.yul\":8367:8377   */\n      dup1\n      dup3\n      gt\n        /* \"#utility.yul\":8364:8400   */\n      iszero\n      tag_232\n      jumpi\n        /* \"#utility.yul\":8380:8398   */\n      tag_232\n      tag_590\n      jump\t// in\n        /* \"#utility.yul\":8411:8833   */\n    tag_591:\n        /* \"#utility.yul\":8500:8501   */\n      0x01\n        /* \"#utility.yul\":8543:8548   */\n      dup2\n        /* \"#utility.yul\":8500:8501   */\n      dup2\n        /* \"#utility.yul\":8557:8827   */\n    tag_673:\n        /* \"#utility.yul\":8578:8585   */\n      dup1\n        /* \"#utility.yul\":8568:8576   */\n      dup6\n        /* \"#utility.yul\":8565:8586   */\n      gt\n        /* \"#utility.yul\":8557:8827   */\n      iszero\n      tag_675\n      jumpi\n        /* \"#utility.yul\":8637:8641   */\n      dup2\n        /* \"#utility.yul\":8633:8634   */\n      0x00\n        /* \"#utility.yul\":8629:8635   */\n      not\n        /* \"#utility.yul\":8625:8642   */\n      div\n        /* \"#utility.yul\":8619:8623   */\n      dup3\n        /* \"#utility.yul\":8616:8643   */\n      gt\n        /* \"#utility.yul\":8613:8666   */\n      iszero\n      tag_677\n      jumpi\n        /* \"#utility.yul\":8646:8664   */\n      tag_677\n      tag_590\n      jump\t// in\n    tag_677:\n        /* \"#utility.yul\":8696:8703   */\n      dup1\n        /* \"#utility.yul\":8686:8694   */\n      dup6\n        /* \"#utility.yul\":8682:8704   */\n      and\n        /* \"#utility.yul\":8679:8734   */\n      iszero\n      tag_678\n      jumpi\n        /* \"#utility.yul\":8716:8732   */\n      swap2\n      dup2\n      mul\n      swap2\n        /* \"#utility.yul\":8679:8734   */\n    tag_678:\n        /* \"#utility.yul\":8795:8817   */\n      swap4\n      dup5\n      shr\n      swap4\n        /* \"#utility.yul\":8755:8770   */\n      swap1\n      dup1\n      mul\n      swap1\n        /* \"#utility.yul\":8557:8827   */\n      jump(tag_673)\n    tag_675:\n        /* \"#utility.yul\":8561:8564   */\n      pop\n        /* \"#utility.yul\":8411:8833   */\n      swap3\n      pop\n      swap3\n      swap1\n      pop\n      jump\t// out\n        /* \"#utility.yul\":8838:9644   */\n    tag_592:\n        /* \"#utility.yul\":8887:8892   */\n      0x00\n        /* \"#utility.yul\":8917:8925   */\n      dup3\n        /* \"#utility.yul\":8907:8987   */\n      tag_680\n      jumpi\n      pop\n        /* \"#utility.yul\":8958:8959   */\n      0x01\n        /* \"#utility.yul\":8972:8977   */\n      jump(tag_232)\n        /* \"#utility.yul\":8907:8987   */\n    tag_680:\n        /* \"#utility.yul\":9006:9010   */\n      dup2\n        /* \"#utility.yul\":8996:9072   */\n      tag_681\n      jumpi\n      pop\n        /* \"#utility.yul\":9043:9044   */\n      0x00\n        /* \"#utility.yul\":9057:9062   */\n      jump(tag_232)\n        /* \"#utility.yul\":8996:9072   */\n    tag_681:\n        /* \"#utility.yul\":9088:9092   */\n      dup2\n        /* \"#utility.yul\":9106:9107   */\n      0x01\n        /* \"#utility.yul\":9101:9160   */\n      dup2\n      eq\n      tag_683\n      jumpi\n        /* \"#utility.yul\":9174:9175   */\n      0x02\n        /* \"#utility.yul\":9169:9299   */\n      dup2\n      eq\n      tag_684\n      jumpi\n        /* \"#utility.yul\":9081:9299   */\n      jump(tag_682)\n        /* \"#utility.yul\":9101:9160   */\n    tag_683:\n        /* \"#utility.yul\":9131:9132   */\n      0x01\n        /* \"#utility.yul\":9122:9132   */\n      swap2\n      pop\n        /* \"#utility.yul\":9145:9150   */\n      pop\n      jump(tag_232)\n        /* \"#utility.yul\":9169:9299   */\n    tag_684:\n        /* \"#utility.yul\":9206:9209   */\n      0xff\n        /* \"#utility.yul\":9196:9204   */\n      dup5\n        /* \"#utility.yul\":9193:9210   */\n      gt\n        /* \"#utility.yul\":9190:9233   */\n      iszero\n      tag_686\n      jumpi\n        /* \"#utility.yul\":9213:9231   */\n      tag_686\n      tag_590\n      jump\t// in\n    tag_686:\n      pop\n      pop\n        /* \"#utility.yul\":9269:9270   */\n      0x01\n        /* \"#utility.yul\":9255:9271   */\n      dup3\n      shl\n        /* \"#utility.yul\":9284:9289   */\n      jump(tag_232)\n        /* \"#utility.yul\":9081:9299   */\n    tag_682:\n      pop\n        /* \"#utility.yul\":9383:9385   */\n      0x20\n        /* \"#utility.yul\":9373:9381   */\n      dup4\n        /* \"#utility.yul\":9370:9386   */\n      lt\n        /* \"#utility.yul\":9364:9367   */\n      0x0133\n        /* \"#utility.yul\":9358:9362   */\n      dup4\n        /* \"#utility.yul\":9355:9368   */\n      lt\n        /* \"#utility.yul\":9351:9387   */\n      and\n        /* \"#utility.yul\":9345:9347   */\n      0x4e\n        /* \"#utility.yul\":9335:9343   */\n      dup5\n        /* \"#utility.yul\":9332:9348   */\n      lt\n        /* \"#utility.yul\":9327:9329   */\n      0x0b\n        /* \"#utility.yul\":9321:9325   */\n      dup5\n        /* \"#utility.yul\":9318:9330   */\n      lt\n        /* \"#utility.yul\":9314:9349   */\n      and\n        /* \"#utility.yul\":9311:9388   */\n      or\n        /* \"#utility.yul\":9308:9467   */\n      iszero\n      tag_687\n      jumpi\n      pop\n        /* \"#utility.yul\":9420:9439   */\n      dup2\n      dup2\n      exp\n        /* \"#utility.yul\":9452:9457   */\n      jump(tag_232)\n        /* \"#utility.yul\":9308:9467   */\n    tag_687:\n        /* \"#utility.yul\":9499:9533   */\n      tag_688\n        /* \"#utility.yul\":9524:9532   */\n      dup4\n        /* \"#utility.yul\":9518:9522   */\n      dup4\n        /* \"#utility.yul\":9499:9533   */\n      tag_591\n      jump\t// in\n    tag_688:\n        /* \"#utility.yul\":9569:9575   */\n      dup1\n        /* \"#utility.yul\":9565:9566   */\n      0x00\n        /* \"#utility.yul\":9561:9567   */\n      not\n        /* \"#utility.yul\":9557:9576   */\n      div\n        /* \"#utility.yul\":9548:9555   */\n      dup3\n        /* \"#utility.yul\":9545:9577   */\n      gt\n        /* \"#utility.yul\":9542:9600   */\n      iszero\n      tag_690\n      jumpi\n        /* \"#utility.yul\":9580:9598   */\n      tag_690\n      tag_590\n      jump\t// in\n    tag_690:\n        /* \"#utility.yul\":9618:9638   */\n      mul\n      swap4\n        /* \"#utility.yul\":8838:9644   */\n      swap3\n      pop\n      pop\n      pop\n      jump\t// out\n        /* \"#utility.yul\":9649:9789   */\n    tag_297:\n        /* \"#utility.yul\":9707:9712   */\n      0x00\n        /* \"#utility.yul\":9736:9783   */\n      tag_610\n        /* \"#utility.yul\":9777:9781   */\n      0xff\n        /* \"#utility.yul\":9767:9775   */\n      dup5\n        /* \"#utility.yul\":9763:9782   */\n      and\n        /* \"#utility.yul\":9757:9761   */\n      dup4\n        /* \"#utility.yul\":9736:9783   */\n      tag_592\n      jump\t// in\n        /* \"#utility.yul\":9794:9962   */\n    tag_299:\n        /* \"#utility.yul\":9867:9876   */\n      dup1\n      dup3\n      mul\n        /* \"#utility.yul\":9898:9907   */\n      dup2\n      iszero\n        /* \"#utility.yul\":9915:9930   */\n      dup3\n      dup3\n      div\n        /* \"#utility.yul\":9909:9931   */\n      dup5\n      eq\n        /* \"#utility.yul\":9895:9932   */\n      or\n        /* \"#utility.yul\":9885:9956   */\n      tag_232\n      jumpi\n        /* \"#utility.yul\":9936:9954   */\n      tag_232\n      tag_590\n      jump\t// in\n        /* \"#utility.yul\":10601:10846   */\n    tag_357:\n        /* \"#utility.yul\":10668:10674   */\n      0x00\n        /* \"#utility.yul\":10721:10723   */\n      0x20\n        /* \"#utility.yul\":10709:10718   */\n      dup3\n        /* \"#utility.yul\":10700:10707   */\n      dup5\n        /* \"#utility.yul\":10696:10719   */\n      sub\n        /* \"#utility.yul\":10692:10724   */\n      slt\n        /* \"#utility.yul\":10689:10741   */\n      iszero\n      tag_699\n      jumpi\n        /* \"#utility.yul\":10737:10738   */\n      0x00\n        /* \"#utility.yul\":10734:10735   */\n      dup1\n        /* \"#utility.yul\":10727:10739   */\n      revert\n        /* \"#utility.yul\":10689:10741   */\n    tag_699:\n        /* \"#utility.yul\":10769:10778   */\n      dup2\n        /* \"#utility.yul\":10763:10779   */\n      mload\n        /* \"#utility.yul\":10788:10816   */\n      tag_610\n        /* \"#utility.yul\":10810:10815   */\n      dup2\n        /* \"#utility.yul\":10788:10816   */\n      tag_588\n      jump\t// in\n        /* \"#utility.yul\":14351:14568   */\n    tag_492:\n        /* \"#utility.yul\":14391:14392   */\n      0x00\n        /* \"#utility.yul\":14417:14418   */\n      dup3\n        /* \"#utility.yul\":14407:14539   */\n      tag_711\n      jumpi\n        /* \"#utility.yul\":14461:14471   */\n      0x4e487b71\n        /* \"#utility.yul\":14456:14459   */\n      0xe0\n        /* \"#utility.yul\":14452:14472   */\n      shl\n        /* \"#utility.yul\":14449:14450   */\n      0x00\n        /* \"#utility.yul\":14442:14473   */\n      mstore\n        /* \"#utility.yul\":14496:14500   */\n      0x12\n        /* \"#utility.yul\":14493:14494   */\n      0x04\n        /* \"#utility.yul\":14486:14501   */\n      mstore\n        /* \"#utility.yul\":14524:14528   */\n      0x24\n        /* \"#utility.yul\":14521:14522   */\n      0x00\n        /* \"#utility.yul\":14514:14529   */\n      revert\n        /* \"#utility.yul\":14407:14539   */\n    tag_711:\n      pop\n        /* \"#utility.yul\":14553:14562   */\n      div\n      swap1\n        /* \"#utility.yul\":14351:14568   */\n      jump\t// out\n        /* \"#utility.yul\":15790:16041   */\n    tag_556:\n        /* \"#utility.yul\":15860:15866   */\n      0x00\n        /* \"#utility.yul\":15913:15915   */\n      0x20\n        /* \"#utility.yul\":15901:15910   */\n      dup3\n        /* \"#utility.yul\":15892:15899   */\n      dup5\n        /* \"#utility.yul\":15888:15911   */\n      sub\n        /* \"#utility.yul\":15884:15916   */\n      slt\n        /* \"#utility.yul\":15881:15933   */\n      iszero\n      tag_716\n      jumpi\n        /* \"#utility.yul\":15929:15930   */\n      0x00\n        /* \"#utility.yul\":15926:15927   */\n      dup1\n        /* \"#utility.yul\":15919:15931   */\n      revert\n        /* \"#utility.yul\":15881:15933   */\n    tag_716:\n        /* \"#utility.yul\":15961:15970   */\n      dup2\n        /* \"#utility.yul\":15955:15971   */\n      mload\n        /* \"#utility.yul\":15980:16011   */\n      tag_610\n        /* \"#utility.yul\":16005:16010   */\n      dup2\n        /* \"#utility.yul\":15980:16011   */\n      tag_586\n      jump\t// in\n        /* \"#utility.yul\":16046:17026   */\n    tag_561:\n        /* \"#utility.yul\":16308:16312   */\n      0x00\n        /* \"#utility.yul\":16356:16359   */\n      0xa0\n        /* \"#utility.yul\":16345:16354   */\n      dup3\n        /* \"#utility.yul\":16341:16360   */\n      add\n        /* \"#utility.yul\":16387:16393   */\n      dup8\n        /* \"#utility.yul\":16376:16385   */\n      dup4\n        /* \"#utility.yul\":16369:16394   */\n      mstore\n        /* \"#utility.yul\":16413:16415   */\n      0x20\n        /* \"#utility.yul\":16451:16457   */\n      dup8\n        /* \"#utility.yul\":16446:16448   */\n      dup2\n        /* \"#utility.yul\":16435:16444   */\n      dup6\n        /* \"#utility.yul\":16431:16449   */\n      add\n        /* \"#utility.yul\":16424:16458   */\n      mstore\n        /* \"#utility.yul\":16494:16497   */\n      0xa0\n        /* \"#utility.yul\":16489:16491   */\n      0x40\n        /* \"#utility.yul\":16478:16487   */\n      dup6\n        /* \"#utility.yul\":16474:16492   */\n      add\n        /* \"#utility.yul\":16467:16498   */\n      mstore\n        /* \"#utility.yul\":16518:16524   */\n      dup2\n        /* \"#utility.yul\":16553:16559   */\n      dup8\n        /* \"#utility.yul\":16547:16560   */\n      mload\n        /* \"#utility.yul\":16584:16590   */\n      dup1\n        /* \"#utility.yul\":16576:16582   */\n      dup5\n        /* \"#utility.yul\":16569:16591   */\n      mstore\n        /* \"#utility.yul\":16622:16625   */\n      0xc0\n        /* \"#utility.yul\":16611:16620   */\n      dup7\n        /* \"#utility.yul\":16607:16626   */\n      add\n        /* \"#utility.yul\":16600:16626   */\n      swap2\n      pop\n        /* \"#utility.yul\":16661:16663   */\n      dup3\n        /* \"#utility.yul\":16653:16659   */\n      dup10\n        /* \"#utility.yul\":16649:16664   */\n      add\n        /* \"#utility.yul\":16635:16664   */\n      swap4\n      pop\n        /* \"#utility.yul\":16682:16683   */\n      0x00\n        /* \"#utility.yul\":16692:16887   */\n    tag_719:\n        /* \"#utility.yul\":16706:16712   */\n      dup2\n        /* \"#utility.yul\":16703:16704   */\n      dup2\n        /* \"#utility.yul\":16700:16713   */\n      lt\n        /* \"#utility.yul\":16692:16887   */\n      iszero\n      tag_721\n      jumpi\n        /* \"#utility.yul\":16771:16784   */\n      dup5\n      mload\n      sub(shl(0xa0, 0x01), 0x01)\n        /* \"#utility.yul\":16767:16806   */\n      and\n        /* \"#utility.yul\":16755:16807   */\n      dup4\n      mstore\n        /* \"#utility.yul\":16862:16877   */\n      swap4\n      dup4\n      add\n      swap4\n        /* \"#utility.yul\":16827:16839   */\n      swap2\n      dup4\n      add\n      swap2\n        /* \"#utility.yul\":16803:16804   */\n      0x01\n        /* \"#utility.yul\":16721:16730   */\n      add\n        /* \"#utility.yul\":16692:16887   */\n      jump(tag_719)\n    tag_721:\n      pop\n      pop\n      sub(shl(0xa0, 0x01), 0x01)\n        /* \"#utility.yul\":16943:16975   */\n      swap7\n      swap1\n      swap7\n      and\n        /* \"#utility.yul\":16938:16940   */\n      0x60\n        /* \"#utility.yul\":16923:16941   */\n      dup6\n      add\n        /* \"#utility.yul\":16916:16976   */\n      mstore\n      pop\n      pop\n      pop\n        /* \"#utility.yul\":17007:17010   */\n      0x80\n        /* \"#utility.yul\":16992:17011   */\n      add\n        /* \"#utility.yul\":16985:17020   */\n      mstore\n        /* \"#utility.yul\":16904:16907   */\n      swap4\n        /* \"#utility.yul\":16046:17026   */\n      swap3\n      pop\n      pop\n      pop\n      jump\t// out\n        /* \"#utility.yul\":17643:17949   */\n    tag_572:\n        /* \"#utility.yul\":17731:17737   */\n      0x00\n        /* \"#utility.yul\":17739:17745   */\n      dup1\n        /* \"#utility.yul\":17747:17753   */\n      0x00\n        /* \"#utility.yul\":17800:17802   */\n      0x60\n        /* \"#utility.yul\":17788:17797   */\n      dup5\n        /* \"#utility.yul\":17779:17786   */\n      dup7\n        /* \"#utility.yul\":17775:17798   */\n      sub\n        /* \"#utility.yul\":17771:17803   */\n      slt\n        /* \"#utility.yul\":17768:17820   */\n      iszero\n      tag_724\n      jumpi\n        /* \"#utility.yul\":17816:17817   */\n      0x00\n        /* \"#utility.yul\":17813:17814   */\n      dup1\n        /* \"#utility.yul\":17806:17818   */\n      revert\n        /* \"#utility.yul\":17768:17820   */\n    tag_724:\n        /* \"#utility.yul\":17845:17854   */\n      dup4\n        /* \"#utility.yul\":17839:17855   */\n      mload\n        /* \"#utility.yul\":17829:17855   */\n      swap3\n      pop\n        /* \"#utility.yul\":17895:17897   */\n      0x20\n        /* \"#utility.yul\":17884:17893   */\n      dup5\n        /* \"#utility.yul\":17880:17898   */\n      add\n        /* \"#utility.yul\":17874:17899   */\n      mload\n        /* \"#utility.yul\":17864:17899   */\n      swap2\n      pop\n        /* \"#utility.yul\":17939:17941   */\n      0x40\n        /* \"#utility.yul\":17928:17937   */\n      dup5\n        /* \"#utility.yul\":17924:17942   */\n      add\n        /* \"#utility.yul\":17918:17943   */\n      mload\n        /* \"#utility.yul\":17908:17943   */\n      swap1\n      pop\n        /* \"#utility.yul\":17643:17949   */\n      swap3\n      pop\n      swap3\n      pop\n      swap3\n      jump\t// out\n\n    auxdata: 0xa26469706673582212206cc70fa3ddc6fd0ebaf55f14ce870eec0c4e0ee19018bf795934bf8dd31e8c9764736f6c63430008150033\n}\n",
				"bytecode": {
					"linkReferences": {},
					"object": "6007805462ffffff60a01b191690556a02c781f708c509f40000006008556a03796274caf64c710000006009556001600b55605f600c819055600d80546001600160a01b0319167312bb78886e28266a8025532285a75810ea20fdc1179055601460808190525f60a0819052600e91909155600f81905561010060405260c082905260e08190526010919091556011553480156200009b575f80fd5b506040518060400160405280600e81526020016d4261627920536869626120496e7560901b815250604051806040016040528060088152602001672120a12ca9a424a160c11b8152508160039081620000f5919062000567565b50600462000104828262000567565b505050620001216200011b620003b260201b60201c565b620003b6565b6200014a33620001346012600a6200073e565b6200014490631908b10062000755565b62000407565b5f737a250d5630b4cf539739df2c5dacb4c659f2488d90505f816001600160a01b031663c45a01556040518163ffffffff1660e01b8152600401602060405180830381865afa158015620001a0573d5f803e3d5ffd5b505050506040513d601f19601f82011682018060405250810190620001c691906200076f565b6001600160a01b031663c9c6539630846001600160a01b031663ad5c46486040518163ffffffff1660e01b8152600401602060405180830381865afa15801562000212573d5f803e3d5ffd5b505050506040513d601f19601f820116820180604052508101906200023891906200076f565b6040516001600160e01b031960e085901b1681526001600160a01b039283166004820152911660248201526044016020604051808303815f875af115801562000283573d5f803e3d5ffd5b505050506040513d601f19601f82011682018060405250810190620002a991906200076f565b600680546001600160a01b03199081166001600160a01b03958616179091556007805490911691841691909117905550305f90815260126020526040808220805460ff1990811660019081179092553384528284208054821683179055600d54909416835290822080548416821790557f1120e10407cab1193d7c5139d9aae5536deb3d83e855f25f8e42f811c01f56f780548416821790557fbd75767b8b114eb536cfef724cc0b07e050152478ecefed43f44f5a3bc46bf3f805484168217905573663a5c229c09b049e36dcc11a9b0d4a8eb9db2149091527fde1971b300b89e7e26ed403a315e2a5fbd019f3d8bff772aabed72d8b23168b5805490921617905562000797565b3390565b600580546001600160a01b038381166001600160a01b0319831681179093556040519116919082907f8be0079c531659141344cd1fd0a4f28419497f9722a3daafe3b4186f6b6457e0905f90a35050565b6001600160a01b038216620004705760405162461bcd60e51b815260206004820152602560248201527f45524332303a2067656e65726174696f6e20746f20746865207a65726f206164604482015264647265737360d81b606482015260840160405180910390fd5b60028190556001600160a01b0382165f81815260208181526040808320859055518481527fddf252ad1be2c89b69c2b068fc378daa952ba7f163c4a11628f55a4df523b3ef910160405180910390a35050565b505050565b634e487b7160e01b5f52604160045260245ffd5b600181811c90821680620004f157607f821691505b6020821081036200051057634e487b7160e01b5f52602260045260245ffd5b50919050565b601f821115620004c3575f81815260208120601f850160051c810160208610156200053e5750805b601f850160051c820191505b818110156200055f578281556001016200054a565b505050505050565b81516001600160401b03811115620005835762000583620004c8565b6200059b81620005948454620004dc565b8462000516565b602080601f831160018114620005d1575f8415620005b95750858301515b5f19600386901b1c1916600185901b1785556200055f565b5f85815260208120601f198616915b828110156200060157888601518255948401946001909101908401620005e0565b50858210156200061f57878501515f19600388901b60f8161c191681555b5050505050600190811b01905550565b634e487b7160e01b5f52601160045260245ffd5b600181815b808511156200068357815f19048211156200066757620006676200062f565b808516156200067557918102915b93841c939080029062000648565b509250929050565b5f826200069b5750600162000738565b81620006a957505f62000738565b8160018114620006c25760028114620006cd57620006ed565b600191505062000738565b60ff841115620006e157620006e16200062f565b50506001821b62000738565b5060208310610133831016604e8410600b841016171562000712575081810a62000738565b6200071e838362000643565b805f19048211156200073457620007346200062f565b0290505b92915050565b5f6200074e60ff8416836200068b565b9392505050565b80820281158282048414176200073857620007386200062f565b5f6020828403121562000780575f80fd5b81516001600160a01b03811681146200074e575f80fd5b6123aa80620007a55f395ff3fe608060405260043610610220575f3560e01c806385141a771161011e578063aacebbe3116100a8578063f2fde38b1161006d578063f2fde38b1461067d578063f52be97c1461069c578063f570d4de146106bb578063f66895a3146106da578063f887ea40146106f4575f80fd5b8063aacebbe3146105ae578063c5d32bb2146105cd578063d695609b146105fb578063dd62ed3e1461061a578063edaa11681461065e575f80fd5b806395d89b41116100ee57806395d89b411461051e5780639e252f0014610532578063a457c2d714610551578063a8aa1b3114610570578063a9059cbb1461058f575f80fd5b806385141a77146104a15780638a8c523c146104ce5780638cd4426d146104e25780638da5cb5b14610501575f80fd5b806342b6fa11116101aa57806370a082311161016f57806370a08231146103ec578063715018a614610420578063728f8eea14610434578063832c2bd2146104635780638514022d14610482575f80fd5b806342b6fa111461035a5780634324deae146103795780634ada218b146103985780635dbdb7e3146103b857806366a88d96146103d7575f80fd5b8063215d92a6116101f0578063215d92a6146102c357806323b872dd146102e2578063251ef09514610301578063313ce56714610320578063395093511461033b575f80fd5b806306fdde031461022b578063095ea7b3146102555780631340538f1461028457806318160ddd146102a5575f80fd5b3661022757005b5f80fd5b348015610236575f80fd5b5061023f610713565b60405161024c9190611dc1565b60405180910390f35b348015610260575f80fd5b5061027461026f366004611e30565b6107a3565b604051901515815260200161024c565b34801561028f575f80fd5b506102a361029e366004611e67565b6107b9565b005b3480156102b0575f80fd5b506002545b60405190815260200161024c565b3480156102ce575f80fd5b506102a36102dd366004611f3c565b61080a565b3480156102ed575f80fd5b506102746102fc366004611f8b565b61089d565b34801561030c575f80fd5b506102a361031b366004611fc9565b61094c565b34801561032b575f80fd5b506040516012815260200161024c565b348015610346575f80fd5b50610274610355366004611e30565b6109de565b348015610365575f80fd5b506102a3610374366004612003565b610a14565b348015610384575f80fd5b506102a3610393366004612003565b610a5a565b3480156103a3575f80fd5b5060075461027490600160b01b900460ff1681565b3480156103c3575f80fd5b506102a36103d236600461201a565b610aa0565b3480156103e2575f80fd5b506102b560095481565b3480156103f7575f80fd5b506102b561040636600461201a565b6001600160a01b03165f9081526020819052604090205490565b34801561042b575f80fd5b506102a3610aed565b34801561043f575f80fd5b50600e54600f5461044e919082565b6040805192835260208301919091520161024c565b34801561046e575f80fd5b506102a361047d36600461201a565b610b22565b34801561048d575f80fd5b506102a361049c366004612035565b610b6c565b3480156104ac575f80fd5b506104b661dead81565b6040516001600160a01b03909116815260200161024c565b3480156104d9575f80fd5b506102a3610bc0565b3480156104ed575f80fd5b506102a36104fc366004611e30565b610c5f565b34801561050c575f80fd5b506005546001600160a01b03166104b6565b348015610529575f80fd5b5061023f610d18565b34801561053d575f80fd5b506102a361054c366004612003565b610d27565b34801561055c575f80fd5b5061027461056b366004611e30565b610d88565b34801561057b575f80fd5b506007546104b6906001600160a01b031681565b34801561059a575f80fd5b506102746105a9366004611e30565b610e22565b3480156105b9575f80fd5b506102a36105c836600461201a565b610e2e565b3480156105d8575f80fd5b506102746105e736600461201a565b60126020525f908152604090205460ff1681565b348015610606575f80fd5b506102a3610615366004612061565b610e7a565b348015610625575f80fd5b506102b5610634366004612081565b6001600160a01b039182165f90815260016020908152604080832093909416825291909152205490565b348015610669575f80fd5b506102a3610678366004612003565b610ec2565b348015610688575f80fd5b506102a361069736600461201a565b610f59565b3480156106a7575f80fd5b506102a36106b6366004612061565b610ff4565b3480156106c6575f80fd5b506102a36106d5366004611fc9565b61103c565b3480156106e5575f80fd5b5060105460115461044e919082565b3480156106ff575f80fd5b506006546104b6906001600160a01b031681565b606060038054610722906120ad565b80601f016020809104026020016040519081016040528092919081815260200182805461074e906120ad565b80156107995780601f1061077057610100808354040283529160200191610799565b820191905f5260205f20905b81548152906001019060200180831161077c57829003601f168201915b5050505050905090565b5f6107af3384846110cb565b5060015b92915050565b6005546001600160a01b031633146107ec5760405162461bcd60e51b81526004016107e3906120e5565b60405180910390fd5b60078054911515600160a81b0260ff60a81b19909216919091179055565b6005546001600160a01b031633146108345760405162461bcd60e51b81526004016107e3906120e5565b5f5b8251811015610898578160135f8584815181106108555761085561211a565b6020908102919091018101516001600160a01b031682528101919091526040015f20805460ff19169115159190911790558061089081612142565b915050610836565b505050565b5f6108a98484846111ee565b6001600160a01b0384165f9081526001602090815260408083203384529091529020548281101561092d5760405162461bcd60e51b815260206004820152602860248201527f45524332303a207472616e7366657220616d6f756e74206578636565647320616044820152676c6c6f77616e636560c01b60648201526084016107e3565b610941853361093c868561215a565b6110cb565b506001949350505050565b6005546001600160a01b031633146109765760405162461bcd60e51b81526004016107e3906120e5565b5f5b81518110156109da575f60125f8484815181106109975761099761211a565b6020908102919091018101516001600160a01b031682528101919091526040015f20805460ff1916911515919091179055806109d281612142565b915050610978565b5050565b335f8181526001602090815260408083206001600160a01b038716845290915281205490916107af91859061093c90869061216d565b6005546001600160a01b03163314610a3e5760405162461bcd60e51b81526004016107e3906120e5565b610a4a6012600a612260565b610a54908261226e565b60085550565b6005546001600160a01b03163314610a845760405162461bcd60e51b81526004016107e3906120e5565b610a906012600a612260565b610a9a908261226e565b60095550565b6005546001600160a01b03163314610aca5760405162461bcd60e51b81526004016107e3906120e5565b6001600160a01b03165f908152601260205260409020805460ff19166001179055565b6005546001600160a01b03163314610b175760405162461bcd60e51b81526004016107e3906120e5565b610b205f611751565b565b6005546001600160a01b03163314610b4c5760405162461bcd60e51b81526004016107e3906120e5565b6001600160a01b03165f908152601260205260409020805460ff19169055565b6005546001600160a01b03163314610b965760405162461bcd60e51b81526004016107e3906120e5565b6001600160a01b03919091165f908152601360205260409020805460ff1916911515919091179055565b6005546001600160a01b03163314610bea5760405162461bcd60e51b81526004016107e3906120e5565b600754600160b01b900460ff1615610c445760405162461bcd60e51b815260206004820152601a60248201527f54726164696e6720697320616c726561647920656e61626c656400000000000060448201526064016107e3565b6007805461ffff60a81b191661010160a81b17905543600a55565b6005546001600160a01b03163314610c895760405162461bcd60e51b81526004016107e3906120e5565b816001600160a01b031663a9059cbb610caa6005546001600160a01b031690565b6040516001600160e01b031960e084901b1681526001600160a01b039091166004820152602481018490526044016020604051808303815f875af1158015610cf4573d5f803e3d5ffd5b505050506040513d601f19601f820116820180604052508101906108989190612285565b606060048054610722906120ad565b6005546001600160a01b03163314610d515760405162461bcd60e51b81526004016107e3906120e5565b6005546040516001600160a01b039091169082156108fc029083905f818181858888f193505050501580156109da573d5f803e3d5ffd5b335f9081526001602090815260408083206001600160a01b038616845290915281205482811015610e095760405162461bcd60e51b815260206004820152602560248201527f45524332303a2064656372656173656420616c6c6f77616e63652062656c6f77604482015264207a65726f60d81b60648201526084016107e3565b610e18338561093c868561215a565b5060019392505050565b5f6107af3384846111ee565b6005546001600160a01b03163314610e585760405162461bcd60e51b81526004016107e3906120e5565b600d80546001600160a01b0319166001600160a01b0392909216919091179055565b6005546001600160a01b03163314610ea45760405162461bcd60e51b81526004016107e3906120e5565b60408051808201909152828152602001819052600e91909155600f55565b6005546001600160a01b03163314610eec5760405162461bcd60e51b81526004016107e3906120e5565b600754600160b01b900460ff1615610f545760405162461bcd60e51b815260206004820152602560248201527f43616e2774206368616e6765207768656e2074726164696e6720686173207374604482015264185c9d195960da1b60648201526084016107e3565b600b55565b6005546001600160a01b03163314610f835760405162461bcd60e51b81526004016107e3906120e5565b6001600160a01b038116610fe85760405162461bcd60e51b815260206004820152602660248201527f4f776e61626c653a206e6577206f776e657220697320746865207a65726f206160448201526564647265737360d01b60648201526084016107e3565b610ff181611751565b50565b6005546001600160a01b0316331461101e5760405162461bcd60e51b81526004016107e3906120e5565b60408051808201909152828152602001819052601091909155601155565b6005546001600160a01b031633146110665760405162461bcd60e51b81526004016107e3906120e5565b5f5b81518110156109da57600160125f8484815181106110885761108861211a565b6020908102919091018101516001600160a01b031682528101919091526040015f20805460ff1916911515919091179055806110c381612142565b915050611068565b6001600160a01b03831661112d5760405162461bcd60e51b8152602060048201526024808201527f45524332303a20617070726f76652066726f6d20746865207a65726f206164646044820152637265737360e01b60648201526084016107e3565b6001600160a01b03821661118e5760405162461bcd60e51b815260206004820152602260248201527f45524332303a20617070726f766520746f20746865207a65726f206164647265604482015261737360f01b60648201526084016107e3565b6001600160a01b038381165f8181526001602090815260408083209487168084529482529182902085905590518481527f8c5be1e5ebec7d5bd14f71427d1e84f3dd0314c0f7b2291e5b200ac8c7c3b925910160405180910390a3505050565b5f811161124f5760405162461bcd60e51b815260206004820152602960248201527f5472616e7366657220616d6f756e74206d7573742062652067726561746572206044820152687468616e207a65726f60b81b60648201526084016107e3565b6001600160a01b0383165f9081526013602052604090205460ff1615801561128f57506001600160a01b0382165f9081526013602052604090205460ff16155b6112db5760405162461bcd60e51b815260206004820152601960248201527f596f752063616e2774207472616e7366657220746f6b656e730000000000000060448201526064016107e3565b6001600160a01b0383165f9081526012602052604090205460ff1615801561131b57506001600160a01b0382165f9081526012602052604090205460ff16155b1561136f57600754600160b01b900460ff1661136f5760405162461bcd60e51b8152602060048201526013602482015272151c98591a5b99c81b9bdd08195b98589b1959606a1b60448201526064016107e3565b6007546001600160a01b0384811691161480156113a457506001600160a01b0382165f9081526012602052604090205460ff16155b80156113ba5750600754600160a01b900460ff16155b1561143957600954816113e1846001600160a01b03165f9081526020819052604090205490565b6113eb919061216d565b11156114395760405162461bcd60e51b815260206004820181905260248201527f596f752061726520657863656564696e67206d617857616c6c65744c696d697460448201526064016107e3565b6007546001600160a01b0384811691161480159061146f57506001600160a01b0382165f9081526012602052604090205460ff16155b801561149357506001600160a01b0383165f9081526012602052604090205460ff16155b80156114a95750600754600160a01b900460ff16155b1561153d576007546001600160a01b0383811691161461153d57600954816114e5846001600160a01b03165f9081526020819052604090205490565b6114ef919061216d565b111561153d5760405162461bcd60e51b815260206004820181905260248201527f596f752061726520657863656564696e67206d617857616c6c65744c696d697460448201526064016107e3565b5f805f61155b60405180604001604052805f81526020015f81525090565b6001600160a01b0387165f9081526012602052604081205460ff1615801561159b57506001600160a01b0387165f9081526012602052604090205460ff16155b80156115b55750600b54600a546115b2919061216d565b43105b600754909150600160a01b900460ff16806115e757506001600160a01b0388165f9081526012602052604090205460ff165b8061160957506001600160a01b0387165f9081526012602052604090205460ff165b15611616575f92506116b2565b6007546001600160a01b038881169116148015611631575080155b1561166a57601054601154611646919061216d565b604080518082019091526010548152601154602082015290955085945091506116b2565b806116a357600e54600f5461167f919061216d565b60408051808201909152600e548152600f54602082015290955085945091506116b2565b80156116b257600c5494508493505b60646116be858861226e565b6116c891906122a0565b600754909350600160a81b900460ff1680156116f257506007546001600160a01b03898116911614155b156117015761170185836117a2565b6117158888611710868a61215a565b6118d7565b8215611747578415611747575f606461172e878961226e565b61173891906122a0565b90506117458930836118d7565b505b5050505050505050565b600580546001600160a01b038381166001600160a01b0319831681179093556040519116919082907f8be0079c531659141344cd1fd0a4f28419497f9722a3daafe3b4186f6b6457e0905f90a35050565b600754600160a01b900460ff166109da576007805460ff60a01b1916600160a01b17905581156118c657305f9081526020819052604090205460085481106118c457600160085411156117f457506008545b5f61180084600261226e565b90505f81846020015184611814919061226e565b61181e91906122a0565b90505f61182b828561215a565b90504761183782611aad565b5f611842824761215a565b90505f876020015186611855919061215a565b61185f90836122a0565b90505f886020015182611872919061226e565b90508015611884576118848682611bfd565b88515f9061189384600261226e565b61189d919061226e565b905080156118bb57600d546118bb906001600160a01b031682611cac565b50505050505050505b505b6007805460ff60a01b191690555050565b6001600160a01b03831661193b5760405162461bcd60e51b815260206004820152602560248201527f45524332303a207472616e736665722066726f6d20746865207a65726f206164604482015264647265737360d81b60648201526084016107e3565b6001600160a01b03821661199d5760405162461bcd60e51b815260206004820152602360248201527f45524332303a207472616e7366657220746f20746865207a65726f206164647260448201526265737360e81b60648201526084016107e3565b6001600160a01b0383165f9081526020819052604090205481811015611a145760405162461bcd60e51b815260206004820152602660248201527f45524332303a207472616e7366657220616d6f756e7420657863656564732062604482015265616c616e636560d01b60648201526084016107e3565b611a1e828261215a565b6001600160a01b038086165f908152602081905260408082209390935590851681529081208054849290611a5390849061216d565b92505081905550826001600160a01b0316846001600160a01b03167fddf252ad1be2c89b69c2b068fc378daa952ba7f163c4a11628f55a4df523b3ef84604051611a9f91815260200190565b60405180910390a350505050565b6040805160028082526060820183525f9260208301908036833701905050905030815f81518110611ae057611ae061211a565b6001600160a01b03928316602091820292909201810191909152600654604080516315ab88c960e31b81529051919093169263ad5c46489260048083019391928290030181865afa158015611b37573d5f803e3d5ffd5b505050506040513d601f19601f82011682018060405250810190611b5b91906122bf565b81600181518110611b6e57611b6e61211a565b6001600160a01b039283166020918202929092010152600654611b9491309116846110cb565b60065460405163791ac94760e01b81526001600160a01b039091169063791ac94790611bcc9085905f908690309042906004016122da565b5f604051808303815f87803b158015611be3575f80fd5b505af1158015611bf5573d5f803e3d5ffd5b505050505050565b600654611c159030906001600160a01b0316846110cb565b60065460405163f305d71960e01b8152306004820152602481018490525f60448201819052606482015261dead60848201524260a48201526001600160a01b039091169063f305d71990839060c40160606040518083038185885af1158015611c80573d5f803e3d5ffd5b50505050506040513d601f19601f82011682018060405250810190611ca59190612349565b5050505050565b80471015611cfc5760405162461bcd60e51b815260206004820152601d60248201527f416464726573733a20696e73756666696369656e742062616c616e636500000060448201526064016107e3565b5f826001600160a01b0316826040515f6040518083038185875af1925050503d805f8114611d45576040519150601f19603f3d011682016040523d82523d5f602084013e611d4a565b606091505b50509050806108985760405162461bcd60e51b815260206004820152603a60248201527f416464726573733a20756e61626c6520746f2073656e642076616c75652c207260448201527f6563697069656e74206d6179206861766520726576657274656400000000000060648201526084016107e3565b5f6020808352835180828501525f5b81811015611dec57858101830151858201604001528201611dd0565b505f604082860101526040601f19601f8301168501019250505092915050565b6001600160a01b0381168114610ff1575f80fd5b8035611e2b81611e0c565b919050565b5f8060408385031215611e41575f80fd5b8235611e4c81611e0c565b946020939093013593505050565b8015158114610ff1575f80fd5b5f60208284031215611e77575f80fd5b8135611e8281611e5a565b9392505050565b634e487b7160e01b5f52604160045260245ffd5b5f82601f830112611eac575f80fd5b8135602067ffffffffffffffff80831115611ec957611ec9611e89565b8260051b604051601f19603f83011681018181108482111715611eee57611eee611e89565b604052938452858101830193838101925087851115611f0b575f80fd5b83870191505b84821015611f3157611f2282611e20565b83529183019190830190611f11565b979650505050505050565b5f8060408385031215611f4d575f80fd5b823567ffffffffffffffff811115611f63575f80fd5b611f6f85828601611e9d565b9250506020830135611f8081611e5a565b809150509250929050565b5f805f60608486031215611f9d575f80fd5b8335611fa881611e0c565b92506020840135611fb881611e0c565b929592945050506040919091013590565b5f60208284031215611fd9575f80fd5b813567ffffffffffffffff811115611fef575f80fd5b611ffb84828501611e9d565b949350505050565b5f60208284031215612013575f80fd5b5035919050565b5f6020828403121561202a575f80fd5b8135611e8281611e0c565b5f8060408385031215612046575f80fd5b823561205181611e0c565b91506020830135611f8081611e5a565b5f8060408385031215612072575f80fd5b50508035926020909101359150565b5f8060408385031215612092575f80fd5b823561209d81611e0c565b91506020830135611f8081611e0c565b600181811c908216806120c157607f821691505b6020821081036120df57634e487b7160e01b5f52602260045260245ffd5b50919050565b6020808252818101527f4f776e61626c653a2063616c6c6572206973206e6f7420746865206f776e6572604082015260600190565b634e487b7160e01b5f52603260045260245ffd5b634e487b7160e01b5f52601160045260245ffd5b5f600182016121535761215361212e565b5060010190565b818103818111156107b3576107b361212e565b808201808211156107b3576107b361212e565b600181815b808511156121ba57815f19048211156121a0576121a061212e565b808516156121ad57918102915b93841c9390800290612185565b509250929050565b5f826121d0575060016107b3565b816121dc57505f6107b3565b81600181146121f257600281146121fc57612218565b60019150506107b3565b60ff84111561220d5761220d61212e565b50506001821b6107b3565b5060208310610133831016604e8410600b841016171561223b575081810a6107b3565b6122458383612180565b805f19048211156122585761225861212e565b029392505050565b5f611e8260ff8416836121c2565b80820281158282048414176107b3576107b361212e565b5f60208284031215612295575f80fd5b8151611e8281611e5a565b5f826122ba57634e487b7160e01b5f52601260045260245ffd5b500490565b5f602082840312156122cf575f80fd5b8151611e8281611e0c565b5f60a082018783526020878185015260a0604085015281875180845260c08601915082890193505f5b818110156123285784516001600160a01b031683529383019391830191600101612303565b50506001600160a01b03969096166060850152505050608001529392505050565b5f805f6060848603121561235b575f80fd5b835192506020840151915060408401519050925092509256fea26469706673582212206cc70fa3ddc6fd0ebaf55f14ce870eec0c4e0ee19018bf795934bf8dd31e8c9764736f6c63430008150033",
					"opcodes": "PUSH1 0x7 DUP1 SLOAD PUSH3 0xFFFFFF PUSH1 0xA0 SHL NOT AND SWAP1 SSTORE PUSH11 0x2C781F708C509F4000000 PUSH1 0x8 SSTORE PUSH11 0x3796274CAF64C71000000 PUSH1 0x9 SSTORE PUSH1 0x1 PUSH1 0xB SSTORE PUSH1 0x5F PUSH1 0xC DUP2 SWAP1 SSTORE PUSH1 0xD DUP1 SLOAD PUSH1 0x1 PUSH1 0x1 PUSH1 0xA0 SHL SUB NOT AND PUSH20 0x12BB78886E28266A8025532285A75810EA20FDC1 OR SWAP1 SSTORE PUSH1 0x14 PUSH1 0x80 DUP2 SWAP1 MSTORE PUSH0 PUSH1 0xA0 DUP2 SWAP1 MSTORE PUSH1 0xE SWAP2 SWAP1 SWAP2 SSTORE PUSH1 0xF DUP2 SWAP1 SSTORE PUSH2 0x100 PUSH1 0x40 MSTORE PUSH1 0xC0 DUP3 SWAP1 MSTORE PUSH1 0xE0 DUP2 SWAP1 MSTORE PUSH1 0x10 SWAP2 SWAP1 SWAP2 SSTORE PUSH1 0x11 SSTORE CALLVALUE DUP1 ISZERO PUSH3 0x9B JUMPI PUSH0 DUP1 REVERT JUMPDEST POP PUSH1 0x40 MLOAD DUP1 PUSH1 0x40 ADD PUSH1 0x40 MSTORE DUP1 PUSH1 0xE DUP2 MSTORE PUSH1 0x20 ADD PUSH14 0x4261627920536869626120496E75 PUSH1 0x90 SHL DUP2 MSTORE POP PUSH1 0x40 MLOAD DUP1 PUSH1 0x40 ADD PUSH1 0x40 MSTORE DUP1 PUSH1 0x8 DUP2 MSTORE PUSH1 0x20 ADD PUSH8 0x2120A12CA9A424A1 PUSH1 0xC1 SHL DUP2 MSTORE POP DUP2 PUSH1 0x3 SWAP1 DUP2 PUSH3 0xF5 SWAP2 SWAP1 PUSH3 0x567 JUMP JUMPDEST POP PUSH1 0x4 PUSH3 0x104 DUP3 DUP3 PUSH3 0x567 JUMP JUMPDEST POP POP POP PUSH3 0x121 PUSH3 0x11B PUSH3 0x3B2 PUSH1 0x20 SHL PUSH1 0x20 SHR JUMP JUMPDEST PUSH3 0x3B6 JUMP JUMPDEST PUSH3 0x14A CALLER PUSH3 0x134 PUSH1 0x12 PUSH1 0xA PUSH3 0x73E JUMP JUMPDEST PUSH3 0x144 SWAP1 PUSH4 0x1908B100 PUSH3 0x755 JUMP JUMPDEST PUSH3 0x407 JUMP JUMPDEST PUSH0 PUSH20 0x7A250D5630B4CF539739DF2C5DACB4C659F2488D SWAP1 POP PUSH0 DUP2 PUSH1 0x1 PUSH1 0x1 PUSH1 0xA0 SHL SUB AND PUSH4 0xC45A0155 PUSH1 0x40 MLOAD DUP2 PUSH4 0xFFFFFFFF AND PUSH1 0xE0 SHL DUP2 MSTORE PUSH1 0x4 ADD PUSH1 0x20 PUSH1 0x40 MLOAD DUP1 DUP4 SUB DUP2 DUP7 GAS STATICCALL ISZERO DUP1 ISZERO PUSH3 0x1A0 JUMPI RETURNDATASIZE PUSH0 DUP1 RETURNDATACOPY RETURNDATASIZE PUSH0 REVERT JUMPDEST POP POP POP POP PUSH1 0x40 MLOAD RETURNDATASIZE PUSH1 0x1F NOT PUSH1 0x1F DUP3 ADD AND DUP3 ADD DUP1 PUSH1 0x40 MSTORE POP DUP2 ADD SWAP1 PUSH3 0x1C6 SWAP2 SWAP1 PUSH3 0x76F JUMP JUMPDEST PUSH1 0x1 PUSH1 0x1 PUSH1 0xA0 SHL SUB AND PUSH4 0xC9C65396 ADDRESS DUP5 PUSH1 0x1 PUSH1 0x1 PUSH1 0xA0 SHL SUB AND PUSH4 0xAD5C4648 PUSH1 0x40 MLOAD DUP2 PUSH4 0xFFFFFFFF AND PUSH1 0xE0 SHL DUP2 MSTORE PUSH1 0x4 ADD PUSH1 0x20 PUSH1 0x40 MLOAD DUP1 DUP4 SUB DUP2 DUP7 GAS STATICCALL ISZERO DUP1 ISZERO PUSH3 0x212 JUMPI RETURNDATASIZE PUSH0 DUP1 RETURNDATACOPY RETURNDATASIZE PUSH0 REVERT JUMPDEST POP POP POP POP PUSH1 0x40 MLOAD RETURNDATASIZE PUSH1 0x1F NOT PUSH1 0x1F DUP3 ADD AND DUP3 ADD DUP1 PUSH1 0x40 MSTORE POP DUP2 ADD SWAP1 PUSH3 0x238 SWAP2 SWAP1 PUSH3 0x76F JUMP JUMPDEST PUSH1 0x40 MLOAD PUSH1 0x1 PUSH1 0x1 PUSH1 0xE0 SHL SUB NOT PUSH1 0xE0 DUP6 SWAP1 SHL AND DUP2 MSTORE PUSH1 0x1 PUSH1 0x1 PUSH1 0xA0 SHL SUB SWAP3 DUP4 AND PUSH1 0x4 DUP3 ADD MSTORE SWAP2 AND PUSH1 0x24 DUP3 ADD MSTORE PUSH1 0x44 ADD PUSH1 0x20 PUSH1 0x40 MLOAD DUP1 DUP4 SUB DUP2 PUSH0 DUP8 GAS CALL ISZERO DUP1 ISZERO PUSH3 0x283 JUMPI RETURNDATASIZE PUSH0 DUP1 RETURNDATACOPY RETURNDATASIZE PUSH0 REVERT JUMPDEST POP POP POP POP PUSH1 0x40 MLOAD RETURNDATASIZE PUSH1 0x1F NOT PUSH1 0x1F DUP3 ADD AND DUP3 ADD DUP1 PUSH1 0x40 MSTORE POP DUP2 ADD SWAP1 PUSH3 0x2A9 SWAP2 SWAP1 PUSH3 0x76F JUMP JUMPDEST PUSH1 0x6 DUP1 SLOAD PUSH1 0x1 PUSH1 0x1 PUSH1 0xA0 SHL SUB NOT SWAP1 DUP2 AND PUSH1 0x1 PUSH1 0x1 PUSH1 0xA0 SHL SUB SWAP6 DUP7 AND OR SWAP1 SWAP2 SSTORE PUSH1 0x7 DUP1 SLOAD SWAP1 SWAP2 AND SWAP2 DUP5 AND SWAP2 SWAP1 SWAP2 OR SWAP1 SSTORE POP ADDRESS PUSH0 SWAP1 DUP2 MSTORE PUSH1 0x12 PUSH1 0x20 MSTORE PUSH1 0x40 DUP1 DUP3 KECCAK256 DUP1 SLOAD PUSH1 0xFF NOT SWAP1 DUP2 AND PUSH1 0x1 SWAP1 DUP2 OR SWAP1 SWAP3 SSTORE CALLER DUP5 MSTORE DUP3 DUP5 KECCAK256 DUP1 SLOAD DUP3 AND DUP4 OR SWAP1 SSTORE PUSH1 0xD SLOAD SWAP1 SWAP5 AND DUP4 MSTORE SWAP1 DUP3 KECCAK256 DUP1 SLOAD DUP5 AND DUP3 OR SWAP1 SSTORE PUSH32 0x1120E10407CAB1193D7C5139D9AAE5536DEB3D83E855F25F8E42F811C01F56F7 DUP1 SLOAD DUP5 AND DUP3 OR SWAP1 SSTORE PUSH32 0xBD75767B8B114EB536CFEF724CC0B07E050152478ECEFED43F44F5A3BC46BF3F DUP1 SLOAD DUP5 AND DUP3 OR SWAP1 SSTORE PUSH20 0x663A5C229C09B049E36DCC11A9B0D4A8EB9DB214 SWAP1 SWAP2 MSTORE PUSH32 0xDE1971B300B89E7E26ED403A315E2A5FBD019F3D8BFF772AABED72D8B23168B5 DUP1 SLOAD SWAP1 SWAP3 AND OR SWAP1 SSTORE PUSH3 0x797 JUMP JUMPDEST CALLER SWAP1 JUMP JUMPDEST PUSH1 0x5 DUP1 SLOAD PUSH1 0x1 PUSH1 0x1 PUSH1 0xA0 SHL SUB DUP4 DUP2 AND PUSH1 0x1 PUSH1 0x1 PUSH1 0xA0 SHL SUB NOT DUP4 AND DUP2 OR SWAP1 SWAP4 SSTORE PUSH1 0x40 MLOAD SWAP2 AND SWAP2 SWAP1 DUP3 SWAP1 PUSH32 0x8BE0079C531659141344CD1FD0A4F28419497F9722A3DAAFE3B4186F6B6457E0 SWAP1 PUSH0 SWAP1 LOG3 POP POP JUMP JUMPDEST PUSH1 0x1 PUSH1 0x1 PUSH1 0xA0 SHL SUB DUP3 AND PUSH3 0x470 JUMPI PUSH1 0x40 MLOAD PUSH3 0x461BCD PUSH1 0xE5 SHL DUP2 MSTORE PUSH1 0x20 PUSH1 0x4 DUP3 ADD MSTORE PUSH1 0x25 PUSH1 0x24 DUP3 ADD MSTORE PUSH32 0x45524332303A2067656E65726174696F6E20746F20746865207A65726F206164 PUSH1 0x44 DUP3 ADD MSTORE PUSH5 0x6472657373 PUSH1 0xD8 SHL PUSH1 0x64 DUP3 ADD MSTORE PUSH1 0x84 ADD PUSH1 0x40 MLOAD DUP1 SWAP2 SUB SWAP1 REVERT JUMPDEST PUSH1 0x2 DUP2 SWAP1 SSTORE PUSH1 0x1 PUSH1 0x1 PUSH1 0xA0 SHL SUB DUP3 AND PUSH0 DUP2 DUP2 MSTORE PUSH1 0x20 DUP2 DUP2 MSTORE PUSH1 0x40 DUP1 DUP4 KECCAK256 DUP6 SWAP1 SSTORE MLOAD DUP5 DUP2 MSTORE PUSH32 0xDDF252AD1BE2C89B69C2B068FC378DAA952BA7F163C4A11628F55A4DF523B3EF SWAP2 ADD PUSH1 0x40 MLOAD DUP1 SWAP2 SUB SWAP1 LOG3 POP POP JUMP JUMPDEST POP POP POP JUMP JUMPDEST PUSH4 0x4E487B71 PUSH1 0xE0 SHL PUSH0 MSTORE PUSH1 0x41 PUSH1 0x4 MSTORE PUSH1 0x24 PUSH0 REVERT JUMPDEST PUSH1 0x1 DUP2 DUP2 SHR SWAP1 DUP3 AND DUP1 PUSH3 0x4F1 JUMPI PUSH1 0x7F DUP3 AND SWAP2 POP JUMPDEST PUSH1 0x20 DUP3 LT DUP2 SUB PUSH3 0x510 JUMPI PUSH4 0x4E487B71 PUSH1 0xE0 SHL PUSH0 MSTORE PUSH1 0x22 PUSH1 0x4 MSTORE PUSH1 0x24 PUSH0 REVERT JUMPDEST POP SWAP2 SWAP1 POP JUMP JUMPDEST PUSH1 0x1F DUP3 GT ISZERO PUSH3 0x4C3 JUMPI PUSH0 DUP2 DUP2 MSTORE PUSH1 0x20 DUP2 KECCAK256 PUSH1 0x1F DUP6 ADD PUSH1 0x5 SHR DUP2 ADD PUSH1 0x20 DUP7 LT ISZERO PUSH3 0x53E JUMPI POP DUP1 JUMPDEST PUSH1 0x1F DUP6 ADD PUSH1 0x5 SHR DUP3 ADD SWAP2 POP JUMPDEST DUP2 DUP2 LT ISZERO PUSH3 0x55F JUMPI DUP3 DUP2 SSTORE PUSH1 0x1 ADD PUSH3 0x54A JUMP JUMPDEST POP POP POP POP POP POP JUMP JUMPDEST DUP2 MLOAD PUSH1 0x1 PUSH1 0x1 PUSH1 0x40 SHL SUB DUP2 GT ISZERO PUSH3 0x583 JUMPI PUSH3 0x583 PUSH3 0x4C8 JUMP JUMPDEST PUSH3 0x59B DUP2 PUSH3 0x594 DUP5 SLOAD PUSH3 0x4DC JUMP JUMPDEST DUP5 PUSH3 0x516 JUMP JUMPDEST PUSH1 0x20 DUP1 PUSH1 0x1F DUP4 GT PUSH1 0x1 DUP2 EQ PUSH3 0x5D1 JUMPI PUSH0 DUP5 ISZERO PUSH3 0x5B9 JUMPI POP DUP6 DUP4 ADD MLOAD JUMPDEST PUSH0 NOT PUSH1 0x3 DUP7 SWAP1 SHL SHR NOT AND PUSH1 0x1 DUP6 SWAP1 SHL OR DUP6 SSTORE PUSH3 0x55F JUMP JUMPDEST PUSH0 DUP6 DUP2 MSTORE PUSH1 0x20 DUP2 KECCAK256 PUSH1 0x1F NOT DUP7 AND SWAP2 JUMPDEST DUP3 DUP2 LT ISZERO PUSH3 0x601 JUMPI DUP9 DUP7 ADD MLOAD DUP3 SSTORE SWAP5 DUP5 ADD SWAP5 PUSH1 0x1 SWAP1 SWAP2 ADD SWAP1 DUP5 ADD PUSH3 0x5E0 JUMP JUMPDEST POP DUP6 DUP3 LT ISZERO PUSH3 0x61F JUMPI DUP8 DUP6 ADD MLOAD PUSH0 NOT PUSH1 0x3 DUP9 SWAP1 SHL PUSH1 0xF8 AND SHR NOT AND DUP2 SSTORE JUMPDEST POP POP POP POP POP PUSH1 0x1 SWAP1 DUP2 SHL ADD SWAP1 SSTORE POP JUMP JUMPDEST PUSH4 0x4E487B71 PUSH1 0xE0 SHL PUSH0 MSTORE PUSH1 0x11 PUSH1 0x4 MSTORE PUSH1 0x24 PUSH0 REVERT JUMPDEST PUSH1 0x1 DUP2 DUP2 JUMPDEST DUP1 DUP6 GT ISZERO PUSH3 0x683 JUMPI DUP2 PUSH0 NOT DIV DUP3 GT ISZERO PUSH3 0x667 JUMPI PUSH3 0x667 PUSH3 0x62F JUMP JUMPDEST DUP1 DUP6 AND ISZERO PUSH3 0x675 JUMPI SWAP2 DUP2 MUL SWAP2 JUMPDEST SWAP4 DUP5 SHR SWAP4 SWAP1 DUP1 MUL SWAP1 PUSH3 0x648 JUMP JUMPDEST POP SWAP3 POP SWAP3 SWAP1 POP JUMP JUMPDEST PUSH0 DUP3 PUSH3 0x69B JUMPI POP PUSH1 0x1 PUSH3 0x738 JUMP JUMPDEST DUP2 PUSH3 0x6A9 JUMPI POP PUSH0 PUSH3 0x738 JUMP JUMPDEST DUP2 PUSH1 0x1 DUP2 EQ PUSH3 0x6C2 JUMPI PUSH1 0x2 DUP2 EQ PUSH3 0x6CD JUMPI PUSH3 0x6ED JUMP JUMPDEST PUSH1 0x1 SWAP2 POP POP PUSH3 0x738 JUMP JUMPDEST PUSH1 0xFF DUP5 GT ISZERO PUSH3 0x6E1 JUMPI PUSH3 0x6E1 PUSH3 0x62F JUMP JUMPDEST POP POP PUSH1 0x1 DUP3 SHL PUSH3 0x738 JUMP JUMPDEST POP PUSH1 0x20 DUP4 LT PUSH2 0x133 DUP4 LT AND PUSH1 0x4E DUP5 LT PUSH1 0xB DUP5 LT AND OR ISZERO PUSH3 0x712 JUMPI POP DUP2 DUP2 EXP PUSH3 0x738 JUMP JUMPDEST PUSH3 0x71E DUP4 DUP4 PUSH3 0x643 JUMP JUMPDEST DUP1 PUSH0 NOT DIV DUP3 GT ISZERO PUSH3 0x734 JUMPI PUSH3 0x734 PUSH3 0x62F JUMP JUMPDEST MUL SWAP1 POP JUMPDEST SWAP3 SWAP2 POP POP JUMP JUMPDEST PUSH0 PUSH3 0x74E PUSH1 0xFF DUP5 AND DUP4 PUSH3 0x68B JUMP JUMPDEST SWAP4 SWAP3 POP POP POP JUMP JUMPDEST DUP1 DUP3 MUL DUP2 ISZERO DUP3 DUP3 DIV DUP5 EQ OR PUSH3 0x738 JUMPI PUSH3 0x738 PUSH3 0x62F JUMP JUMPDEST PUSH0 PUSH1 0x20 DUP3 DUP5 SUB SLT ISZERO PUSH3 0x780 JUMPI PUSH0 DUP1 REVERT JUMPDEST DUP2 MLOAD PUSH1 0x1 PUSH1 0x1 PUSH1 0xA0 SHL SUB DUP2 AND DUP2 EQ PUSH3 0x74E JUMPI PUSH0 DUP1 REVERT JUMPDEST PUSH2 0x23AA DUP1 PUSH3 0x7A5 PUSH0 CODECOPY PUSH0 RETURN INVALID PUSH1 0x80 PUSH1 0x40 MSTORE PUSH1 0x4 CALLDATASIZE LT PUSH2 0x220 JUMPI PUSH0 CALLDATALOAD PUSH1 0xE0 SHR DUP1 PUSH4 0x85141A77 GT PUSH2 0x11E JUMPI DUP1 PUSH4 0xAACEBBE3 GT PUSH2 0xA8 JUMPI DUP1 PUSH4 0xF2FDE38B GT PUSH2 0x6D JUMPI DUP1 PUSH4 0xF2FDE38B EQ PUSH2 0x67D JUMPI DUP1 PUSH4 0xF52BE97C EQ PUSH2 0x69C JUMPI DUP1 PUSH4 0xF570D4DE EQ PUSH2 0x6BB JUMPI DUP1 PUSH4 0xF66895A3 EQ PUSH2 0x6DA JUMPI DUP1 PUSH4 0xF887EA40 EQ PUSH2 0x6F4 JUMPI PUSH0 DUP1 REVERT JUMPDEST DUP1 PUSH4 0xAACEBBE3 EQ PUSH2 0x5AE JUMPI DUP1 PUSH4 0xC5D32BB2 EQ PUSH2 0x5CD JUMPI DUP1 PUSH4 0xD695609B EQ PUSH2 0x5FB JUMPI DUP1 PUSH4 0xDD62ED3E EQ PUSH2 0x61A JUMPI DUP1 PUSH4 0xEDAA1168 EQ PUSH2 0x65E JUMPI PUSH0 DUP1 REVERT JUMPDEST DUP1 PUSH4 0x95D89B41 GT PUSH2 0xEE JUMPI DUP1 PUSH4 0x95D89B41 EQ PUSH2 0x51E JUMPI DUP1 PUSH4 0x9E252F00 EQ PUSH2 0x532 JUMPI DUP1 PUSH4 0xA457C2D7 EQ PUSH2 0x551 JUMPI DUP1 PUSH4 0xA8AA1B31 EQ PUSH2 0x570 JUMPI DUP1 PUSH4 0xA9059CBB EQ PUSH2 0x58F JUMPI PUSH0 DUP1 REVERT JUMPDEST DUP1 PUSH4 0x85141A77 EQ PUSH2 0x4A1 JUMPI DUP1 PUSH4 0x8A8C523C EQ PUSH2 0x4CE JUMPI DUP1 PUSH4 0x8CD4426D EQ PUSH2 0x4E2 JUMPI DUP1 PUSH4 0x8DA5CB5B EQ PUSH2 0x501 JUMPI PUSH0 DUP1 REVERT JUMPDEST DUP1 PUSH4 0x42B6FA11 GT PUSH2 0x1AA JUMPI DUP1 PUSH4 0x70A08231 GT PUSH2 0x16F JUMPI DUP1 PUSH4 0x70A08231 EQ PUSH2 0x3EC JUMPI DUP1 PUSH4 0x715018A6 EQ PUSH2 0x420 JUMPI DUP1 PUSH4 0x728F8EEA EQ PUSH2 0x434 JUMPI DUP1 PUSH4 0x832C2BD2 EQ PUSH2 0x463 JUMPI DUP1 PUSH4 0x8514022D EQ PUSH2 0x482 JUMPI PUSH0 DUP1 REVERT JUMPDEST DUP1 PUSH4 0x42B6FA11 EQ PUSH2 0x35A JUMPI DUP1 PUSH4 0x4324DEAE EQ PUSH2 0x379 JUMPI DUP1 PUSH4 0x4ADA218B EQ PUSH2 0x398 JUMPI DUP1 PUSH4 0x5DBDB7E3 EQ PUSH2 0x3B8 JUMPI DUP1 PUSH4 0x66A88D96 EQ PUSH2 0x3D7 JUMPI PUSH0 DUP1 REVERT JUMPDEST DUP1 PUSH4 0x215D92A6 GT PUSH2 0x1F0 JUMPI DUP1 PUSH4 0x215D92A6 EQ PUSH2 0x2C3 JUMPI DUP1 PUSH4 0x23B872DD EQ PUSH2 0x2E2 JUMPI DUP1 PUSH4 0x251EF095 EQ PUSH2 0x301 JUMPI DUP1 PUSH4 0x313CE567 EQ PUSH2 0x320 JUMPI DUP1 PUSH4 0x39509351 EQ PUSH2 0x33B JUMPI PUSH0 DUP1 REVERT JUMPDEST DUP1 PUSH4 0x6FDDE03 EQ PUSH2 0x22B JUMPI DUP1 PUSH4 0x95EA7B3 EQ PUSH2 0x255 JUMPI DUP1 PUSH4 0x1340538F EQ PUSH2 0x284 JUMPI DUP1 PUSH4 0x18160DDD EQ PUSH2 0x2A5 JUMPI PUSH0 DUP1 REVERT JUMPDEST CALLDATASIZE PUSH2 0x227 JUMPI STOP JUMPDEST PUSH0 DUP1 REVERT JUMPDEST CALLVALUE DUP1 ISZERO PUSH2 0x236 JUMPI PUSH0 DUP1 REVERT JUMPDEST POP PUSH2 0x23F PUSH2 0x713 JUMP JUMPDEST PUSH1 0x40 MLOAD PUSH2 0x24C SWAP2 SWAP1 PUSH2 0x1DC1 JUMP JUMPDEST PUSH1 0x40 MLOAD DUP1 SWAP2 SUB SWAP1 RETURN JUMPDEST CALLVALUE DUP1 ISZERO PUSH2 0x260 JUMPI PUSH0 DUP1 REVERT JUMPDEST POP PUSH2 0x274 PUSH2 0x26F CALLDATASIZE PUSH1 0x4 PUSH2 0x1E30 JUMP JUMPDEST PUSH2 0x7A3 JUMP JUMPDEST PUSH1 0x40 MLOAD SWAP1 ISZERO ISZERO DUP2 MSTORE PUSH1 0x20 ADD PUSH2 0x24C JUMP JUMPDEST CALLVALUE DUP1 ISZERO PUSH2 0x28F JUMPI PUSH0 DUP1 REVERT JUMPDEST POP PUSH2 0x2A3 PUSH2 0x29E CALLDATASIZE PUSH1 0x4 PUSH2 0x1E67 JUMP JUMPDEST PUSH2 0x7B9 JUMP JUMPDEST STOP JUMPDEST CALLVALUE DUP1 ISZERO PUSH2 0x2B0 JUMPI PUSH0 DUP1 REVERT JUMPDEST POP PUSH1 0x2 SLOAD JUMPDEST PUSH1 0x40 MLOAD SWAP1 DUP2 MSTORE PUSH1 0x20 ADD PUSH2 0x24C JUMP JUMPDEST CALLVALUE DUP1 ISZERO PUSH2 0x2CE JUMPI PUSH0 DUP1 REVERT JUMPDEST POP PUSH2 0x2A3 PUSH2 0x2DD CALLDATASIZE PUSH1 0x4 PUSH2 0x1F3C JUMP JUMPDEST PUSH2 0x80A JUMP JUMPDEST CALLVALUE DUP1 ISZERO PUSH2 0x2ED JUMPI PUSH0 DUP1 REVERT JUMPDEST POP PUSH2 0x274 PUSH2 0x2FC CALLDATASIZE PUSH1 0x4 PUSH2 0x1F8B JUMP JUMPDEST PUSH2 0x89D JUMP JUMPDEST CALLVALUE DUP1 ISZERO PUSH2 0x30C JUMPI PUSH0 DUP1 REVERT JUMPDEST POP PUSH2 0x2A3 PUSH2 0x31B CALLDATASIZE PUSH1 0x4 PUSH2 0x1FC9 JUMP JUMPDEST PUSH2 0x94C JUMP JUMPDEST CALLVALUE DUP1 ISZERO PUSH2 0x32B JUMPI PUSH0 DUP1 REVERT JUMPDEST POP PUSH1 0x40 MLOAD PUSH1 0x12 DUP2 MSTORE PUSH1 0x20 ADD PUSH2 0x24C JUMP JUMPDEST CALLVALUE DUP1 ISZERO PUSH2 0x346 JUMPI PUSH0 DUP1 REVERT JUMPDEST POP PUSH2 0x274 PUSH2 0x355 CALLDATASIZE PUSH1 0x4 PUSH2 0x1E30 JUMP JUMPDEST PUSH2 0x9DE JUMP JUMPDEST CALLVALUE DUP1 ISZERO PUSH2 0x365 JUMPI PUSH0 DUP1 REVERT JUMPDEST POP PUSH2 0x2A3 PUSH2 0x374 CALLDATASIZE PUSH1 0x4 PUSH2 0x2003 JUMP JUMPDEST PUSH2 0xA14 JUMP JUMPDEST CALLVALUE DUP1 ISZERO PUSH2 0x384 JUMPI PUSH0 DUP1 REVERT JUMPDEST POP PUSH2 0x2A3 PUSH2 0x393 CALLDATASIZE PUSH1 0x4 PUSH2 0x2003 JUMP JUMPDEST PUSH2 0xA5A JUMP JUMPDEST CALLVALUE DUP1 ISZERO PUSH2 0x3A3 JUMPI PUSH0 DUP1 REVERT JUMPDEST POP PUSH1 0x7 SLOAD PUSH2 0x274 SWAP1 PUSH1 0x1 PUSH1 0xB0 SHL SWAP1 DIV PUSH1 0xFF AND DUP2 JUMP JUMPDEST CALLVALUE DUP1 ISZERO PUSH2 0x3C3 JUMPI PUSH0 DUP1 REVERT JUMPDEST POP PUSH2 0x2A3 PUSH2 0x3D2 CALLDATASIZE PUSH1 0x4 PUSH2 0x201A JUMP JUMPDEST PUSH2 0xAA0 JUMP JUMPDEST CALLVALUE DUP1 ISZERO PUSH2 0x3E2 JUMPI PUSH0 DUP1 REVERT JUMPDEST POP PUSH2 0x2B5 PUSH1 0x9 SLOAD DUP2 JUMP JUMPDEST CALLVALUE DUP1 ISZERO PUSH2 0x3F7 JUMPI PUSH0 DUP1 REVERT JUMPDEST POP PUSH2 0x2B5 PUSH2 0x406 CALLDATASIZE PUSH1 0x4 PUSH2 0x201A JUMP JUMPDEST PUSH1 0x1 PUSH1 0x1 PUSH1 0xA0 SHL SUB AND PUSH0 SWAP1 DUP2 MSTORE PUSH1 0x20 DUP2 SWAP1 MSTORE PUSH1 0x40 SWAP1 KECCAK256 SLOAD SWAP1 JUMP JUMPDEST CALLVALUE DUP1 ISZERO PUSH2 0x42B JUMPI PUSH0 DUP1 REVERT JUMPDEST POP PUSH2 0x2A3 PUSH2 0xAED JUMP JUMPDEST CALLVALUE DUP1 ISZERO PUSH2 0x43F JUMPI PUSH0 DUP1 REVERT JUMPDEST POP PUSH1 0xE SLOAD PUSH1 0xF SLOAD PUSH2 0x44E SWAP2 SWAP1 DUP3 JUMP JUMPDEST PUSH1 0x40 DUP1 MLOAD SWAP3 DUP4 MSTORE PUSH1 0x20 DUP4 ADD SWAP2 SWAP1 SWAP2 MSTORE ADD PUSH2 0x24C JUMP JUMPDEST CALLVALUE DUP1 ISZERO PUSH2 0x46E JUMPI PUSH0 DUP1 REVERT JUMPDEST POP PUSH2 0x2A3 PUSH2 0x47D CALLDATASIZE PUSH1 0x4 PUSH2 0x201A JUMP JUMPDEST PUSH2 0xB22 JUMP JUMPDEST CALLVALUE DUP1 ISZERO PUSH2 0x48D JUMPI PUSH0 DUP1 REVERT JUMPDEST POP PUSH2 0x2A3 PUSH2 0x49C CALLDATASIZE PUSH1 0x4 PUSH2 0x2035 JUMP JUMPDEST PUSH2 0xB6C JUMP JUMPDEST CALLVALUE DUP1 ISZERO PUSH2 0x4AC JUMPI PUSH0 DUP1 REVERT JUMPDEST POP PUSH2 0x4B6 PUSH2 0xDEAD DUP2 JUMP JUMPDEST PUSH1 0x40 MLOAD PUSH1 0x1 PUSH1 0x1 PUSH1 0xA0 SHL SUB SWAP1 SWAP2 AND DUP2 MSTORE PUSH1 0x20 ADD PUSH2 0x24C JUMP JUMPDEST CALLVALUE DUP1 ISZERO PUSH2 0x4D9 JUMPI PUSH0 DUP1 REVERT JUMPDEST POP PUSH2 0x2A3 PUSH2 0xBC0 JUMP JUMPDEST CALLVALUE DUP1 ISZERO PUSH2 0x4ED JUMPI PUSH0 DUP1 REVERT JUMPDEST POP PUSH2 0x2A3 PUSH2 0x4FC CALLDATASIZE PUSH1 0x4 PUSH2 0x1E30 JUMP JUMPDEST PUSH2 0xC5F JUMP JUMPDEST CALLVALUE DUP1 ISZERO PUSH2 0x50C JUMPI PUSH0 DUP1 REVERT JUMPDEST POP PUSH1 0x5 SLOAD PUSH1 0x1 PUSH1 0x1 PUSH1 0xA0 SHL SUB AND PUSH2 0x4B6 JUMP JUMPDEST CALLVALUE DUP1 ISZERO PUSH2 0x529 JUMPI PUSH0 DUP1 REVERT JUMPDEST POP PUSH2 0x23F PUSH2 0xD18 JUMP JUMPDEST CALLVALUE DUP1 ISZERO PUSH2 0x53D JUMPI PUSH0 DUP1 REVERT JUMPDEST POP PUSH2 0x2A3 PUSH2 0x54C CALLDATASIZE PUSH1 0x4 PUSH2 0x2003 JUMP JUMPDEST PUSH2 0xD27 JUMP JUMPDEST CALLVALUE DUP1 ISZERO PUSH2 0x55C JUMPI PUSH0 DUP1 REVERT JUMPDEST POP PUSH2 0x274 PUSH2 0x56B CALLDATASIZE PUSH1 0x4 PUSH2 0x1E30 JUMP JUMPDEST PUSH2 0xD88 JUMP JUMPDEST CALLVALUE DUP1 ISZERO PUSH2 0x57B JUMPI PUSH0 DUP1 REVERT JUMPDEST POP PUSH1 0x7 SLOAD PUSH2 0x4B6 SWAP1 PUSH1 0x1 PUSH1 0x1 PUSH1 0xA0 SHL SUB AND DUP2 JUMP JUMPDEST CALLVALUE DUP1 ISZERO PUSH2 0x59A JUMPI PUSH0 DUP1 REVERT JUMPDEST POP PUSH2 0x274 PUSH2 0x5A9 CALLDATASIZE PUSH1 0x4 PUSH2 0x1E30 JUMP JUMPDEST PUSH2 0xE22 JUMP JUMPDEST CALLVALUE DUP1 ISZERO PUSH2 0x5B9 JUMPI PUSH0 DUP1 REVERT JUMPDEST POP PUSH2 0x2A3 PUSH2 0x5C8 CALLDATASIZE PUSH1 0x4 PUSH2 0x201A JUMP JUMPDEST PUSH2 0xE2E JUMP JUMPDEST CALLVALUE DUP1 ISZERO PUSH2 0x5D8 JUMPI PUSH0 DUP1 REVERT JUMPDEST POP PUSH2 0x274 PUSH2 0x5E7 CALLDATASIZE PUSH1 0x4 PUSH2 0x201A JUMP JUMPDEST PUSH1 0x12 PUSH1 0x20 MSTORE PUSH0 SWAP1 DUP2 MSTORE PUSH1 0x40 SWAP1 KECCAK256 SLOAD PUSH1 0xFF AND DUP2 JUMP JUMPDEST CALLVALUE DUP1 ISZERO PUSH2 0x606 JUMPI PUSH0 DUP1 REVERT JUMPDEST POP PUSH2 0x2A3 PUSH2 0x615 CALLDATASIZE PUSH1 0x4 PUSH2 0x2061 JUMP JUMPDEST PUSH2 0xE7A JUMP JUMPDEST CALLVALUE DUP1 ISZERO PUSH2 0x625 JUMPI PUSH0 DUP1 REVERT JUMPDEST POP PUSH2 0x2B5 PUSH2 0x634 CALLDATASIZE PUSH1 0x4 PUSH2 0x2081 JUMP JUMPDEST PUSH1 0x1 PUSH1 0x1 PUSH1 0xA0 SHL SUB SWAP2 DUP3 AND PUSH0 SWAP1 DUP2 MSTORE PUSH1 0x1 PUSH1 0x20 SWAP1 DUP2 MSTORE PUSH1 0x40 DUP1 DUP4 KECCAK256 SWAP4 SWAP1 SWAP5 AND DUP3 MSTORE SWAP2 SWAP1 SWAP2 MSTORE KECCAK256 SLOAD SWAP1 JUMP JUMPDEST CALLVALUE DUP1 ISZERO PUSH2 0x669 JUMPI PUSH0 DUP1 REVERT JUMPDEST POP PUSH2 0x2A3 PUSH2 0x678 CALLDATASIZE PUSH1 0x4 PUSH2 0x2003 JUMP JUMPDEST PUSH2 0xEC2 JUMP JUMPDEST CALLVALUE DUP1 ISZERO PUSH2 0x688 JUMPI PUSH0 DUP1 REVERT JUMPDEST POP PUSH2 0x2A3 PUSH2 0x697 CALLDATASIZE PUSH1 0x4 PUSH2 0x201A JUMP JUMPDEST PUSH2 0xF59 JUMP JUMPDEST CALLVALUE DUP1 ISZERO PUSH2 0x6A7 JUMPI PUSH0 DUP1 REVERT JUMPDEST POP PUSH2 0x2A3 PUSH2 0x6B6 CALLDATASIZE PUSH1 0x4 PUSH2 0x2061 JUMP JUMPDEST PUSH2 0xFF4 JUMP JUMPDEST CALLVALUE DUP1 ISZERO PUSH2 0x6C6 JUMPI PUSH0 DUP1 REVERT JUMPDEST POP PUSH2 0x2A3 PUSH2 0x6D5 CALLDATASIZE PUSH1 0x4 PUSH2 0x1FC9 JUMP JUMPDEST PUSH2 0x103C JUMP JUMPDEST CALLVALUE DUP1 ISZERO PUSH2 0x6E5 JUMPI PUSH0 DUP1 REVERT JUMPDEST POP PUSH1 0x10 SLOAD PUSH1 0x11 SLOAD PUSH2 0x44E SWAP2 SWAP1 DUP3 JUMP JUMPDEST CALLVALUE DUP1 ISZERO PUSH2 0x6FF JUMPI PUSH0 DUP1 REVERT JUMPDEST POP PUSH1 0x6 SLOAD PUSH2 0x4B6 SWAP1 PUSH1 0x1 PUSH1 0x1 PUSH1 0xA0 SHL SUB AND DUP2 JUMP JUMPDEST PUSH1 0x60 PUSH1 0x3 DUP1 SLOAD PUSH2 0x722 SWAP1 PUSH2 0x20AD JUMP JUMPDEST DUP1 PUSH1 0x1F ADD PUSH1 0x20 DUP1 SWAP2 DIV MUL PUSH1 0x20 ADD PUSH1 0x40 MLOAD SWAP1 DUP2 ADD PUSH1 0x40 MSTORE DUP1 SWAP3 SWAP2 SWAP1 DUP2 DUP2 MSTORE PUSH1 0x20 ADD DUP3 DUP1 SLOAD PUSH2 0x74E SWAP1 PUSH2 0x20AD JUMP JUMPDEST DUP1 ISZERO PUSH2 0x799 JUMPI DUP1 PUSH1 0x1F LT PUSH2 0x770 JUMPI PUSH2 0x100 DUP1 DUP4 SLOAD DIV MUL DUP4 MSTORE SWAP2 PUSH1 0x20 ADD SWAP2 PUSH2 0x799 JUMP JUMPDEST DUP3 ADD SWAP2 SWAP1 PUSH0 MSTORE PUSH1 0x20 PUSH0 KECCAK256 SWAP1 JUMPDEST DUP2 SLOAD DUP2 MSTORE SWAP1 PUSH1 0x1 ADD SWAP1 PUSH1 0x20 ADD DUP1 DUP4 GT PUSH2 0x77C JUMPI DUP3 SWAP1 SUB PUSH1 0x1F AND DUP3 ADD SWAP2 JUMPDEST POP POP POP POP POP SWAP1 POP SWAP1 JUMP JUMPDEST PUSH0 PUSH2 0x7AF CALLER DUP5 DUP5 PUSH2 0x10CB JUMP JUMPDEST POP PUSH1 0x1 JUMPDEST SWAP3 SWAP2 POP POP JUMP JUMPDEST PUSH1 0x5 SLOAD PUSH1 0x1 PUSH1 0x1 PUSH1 0xA0 SHL SUB AND CALLER EQ PUSH2 0x7EC JUMPI PUSH1 0x40 MLOAD PUSH3 0x461BCD PUSH1 0xE5 SHL DUP2 MSTORE PUSH1 0x4 ADD PUSH2 0x7E3 SWAP1 PUSH2 0x20E5 JUMP JUMPDEST PUSH1 0x40 MLOAD DUP1 SWAP2 SUB SWAP1 REVERT JUMPDEST PUSH1 0x7 DUP1 SLOAD SWAP2 ISZERO ISZERO PUSH1 0x1 PUSH1 0xA8 SHL MUL PUSH1 0xFF PUSH1 0xA8 SHL NOT SWAP1 SWAP3 AND SWAP2 SWAP1 SWAP2 OR SWAP1 SSTORE JUMP JUMPDEST PUSH1 0x5 SLOAD PUSH1 0x1 PUSH1 0x1 PUSH1 0xA0 SHL SUB AND CALLER EQ PUSH2 0x834 JUMPI PUSH1 0x40 MLOAD PUSH3 0x461BCD PUSH1 0xE5 SHL DUP2 MSTORE PUSH1 0x4 ADD PUSH2 0x7E3 SWAP1 PUSH2 0x20E5 JUMP JUMPDEST PUSH0 JUMPDEST DUP3 MLOAD DUP2 LT ISZERO PUSH2 0x898 JUMPI DUP2 PUSH1 0x13 PUSH0 DUP6 DUP5 DUP2 MLOAD DUP2 LT PUSH2 0x855 JUMPI PUSH2 0x855 PUSH2 0x211A JUMP JUMPDEST PUSH1 0x20 SWAP1 DUP2 MUL SWAP2 SWAP1 SWAP2 ADD DUP2 ADD MLOAD PUSH1 0x1 PUSH1 0x1 PUSH1 0xA0 SHL SUB AND DUP3 MSTORE DUP2 ADD SWAP2 SWAP1 SWAP2 MSTORE PUSH1 0x40 ADD PUSH0 KECCAK256 DUP1 SLOAD PUSH1 0xFF NOT AND SWAP2 ISZERO ISZERO SWAP2 SWAP1 SWAP2 OR SWAP1 SSTORE DUP1 PUSH2 0x890 DUP2 PUSH2 0x2142 JUMP JUMPDEST SWAP2 POP POP PUSH2 0x836 JUMP JUMPDEST POP POP POP JUMP JUMPDEST PUSH0 PUSH2 0x8A9 DUP5 DUP5 DUP5 PUSH2 0x11EE JUMP JUMPDEST PUSH1 0x1 PUSH1 0x1 PUSH1 0xA0 SHL SUB DUP5 AND PUSH0 SWAP1 DUP2 MSTORE PUSH1 0x1 PUSH1 0x20 SWAP1 DUP2 MSTORE PUSH1 0x40 DUP1 DUP4 KECCAK256 CALLER DUP5 MSTORE SWAP1 SWAP2 MSTORE SWAP1 KECCAK256 SLOAD DUP3 DUP2 LT ISZERO PUSH2 0x92D JUMPI PUSH1 0x40 MLOAD PUSH3 0x461BCD PUSH1 0xE5 SHL DUP2 MSTORE PUSH1 0x20 PUSH1 0x4 DUP3 ADD MSTORE PUSH1 0x28 PUSH1 0x24 DUP3 ADD MSTORE PUSH32 0x45524332303A207472616E7366657220616D6F756E7420657863656564732061 PUSH1 0x44 DUP3 ADD MSTORE PUSH8 0x6C6C6F77616E6365 PUSH1 0xC0 SHL PUSH1 0x64 DUP3 ADD MSTORE PUSH1 0x84 ADD PUSH2 0x7E3 JUMP JUMPDEST PUSH2 0x941 DUP6 CALLER PUSH2 0x93C DUP7 DUP6 PUSH2 0x215A JUMP JUMPDEST PUSH2 0x10CB JUMP JUMPDEST POP PUSH1 0x1 SWAP5 SWAP4 POP POP POP POP JUMP JUMPDEST PUSH1 0x5 SLOAD PUSH1 0x1 PUSH1 0x1 PUSH1 0xA0 SHL SUB AND CALLER EQ PUSH2 0x976 JUMPI PUSH1 0x40 MLOAD PUSH3 0x461BCD PUSH1 0xE5 SHL DUP2 MSTORE PUSH1 0x4 ADD PUSH2 0x7E3 SWAP1 PUSH2 0x20E5 JUMP JUMPDEST PUSH0 JUMPDEST DUP2 MLOAD DUP2 LT ISZERO PUSH2 0x9DA JUMPI PUSH0 PUSH1 0x12 PUSH0 DUP5 DUP5 DUP2 MLOAD DUP2 LT PUSH2 0x997 JUMPI PUSH2 0x997 PUSH2 0x211A JUMP JUMPDEST PUSH1 0x20 SWAP1 DUP2 MUL SWAP2 SWAP1 SWAP2 ADD DUP2 ADD MLOAD PUSH1 0x1 PUSH1 0x1 PUSH1 0xA0 SHL SUB AND DUP3 MSTORE DUP2 ADD SWAP2 SWAP1 SWAP2 MSTORE PUSH1 0x40 ADD PUSH0 KECCAK256 DUP1 SLOAD PUSH1 0xFF NOT AND SWAP2 ISZERO ISZERO SWAP2 SWAP1 SWAP2 OR SWAP1 SSTORE DUP1 PUSH2 0x9D2 DUP2 PUSH2 0x2142 JUMP JUMPDEST SWAP2 POP POP PUSH2 0x978 JUMP JUMPDEST POP POP JUMP JUMPDEST CALLER PUSH0 DUP2 DUP2 MSTORE PUSH1 0x1 PUSH1 0x20 SWAP1 DUP2 MSTORE PUSH1 0x40 DUP1 DUP4 KECCAK256 PUSH1 0x1 PUSH1 0x1 PUSH1 0xA0 SHL SUB DUP8 AND DUP5 MSTORE SWAP1 SWAP2 MSTORE DUP2 KECCAK256 SLOAD SWAP1 SWAP2 PUSH2 0x7AF SWAP2 DUP6 SWAP1 PUSH2 0x93C SWAP1 DUP7 SWAP1 PUSH2 0x216D JUMP JUMPDEST PUSH1 0x5 SLOAD PUSH1 0x1 PUSH1 0x1 PUSH1 0xA0 SHL SUB AND CALLER EQ PUSH2 0xA3E JUMPI PUSH1 0x40 MLOAD PUSH3 0x461BCD PUSH1 0xE5 SHL DUP2 MSTORE PUSH1 0x4 ADD PUSH2 0x7E3 SWAP1 PUSH2 0x20E5 JUMP JUMPDEST PUSH2 0xA4A PUSH1 0x12 PUSH1 0xA PUSH2 0x2260 JUMP JUMPDEST PUSH2 0xA54 SWAP1 DUP3 PUSH2 0x226E JUMP JUMPDEST PUSH1 0x8 SSTORE POP JUMP JUMPDEST PUSH1 0x5 SLOAD PUSH1 0x1 PUSH1 0x1 PUSH1 0xA0 SHL SUB AND CALLER EQ PUSH2 0xA84 JUMPI PUSH1 0x40 MLOAD PUSH3 0x461BCD PUSH1 0xE5 SHL DUP2 MSTORE PUSH1 0x4 ADD PUSH2 0x7E3 SWAP1 PUSH2 0x20E5 JUMP JUMPDEST PUSH2 0xA90 PUSH1 0x12 PUSH1 0xA PUSH2 0x2260 JUMP JUMPDEST PUSH2 0xA9A SWAP1 DUP3 PUSH2 0x226E JUMP JUMPDEST PUSH1 0x9 SSTORE POP JUMP JUMPDEST PUSH1 0x5 SLOAD PUSH1 0x1 PUSH1 0x1 PUSH1 0xA0 SHL SUB AND CALLER EQ PUSH2 0xACA JUMPI PUSH1 0x40 MLOAD PUSH3 0x461BCD PUSH1 0xE5 SHL DUP2 MSTORE PUSH1 0x4 ADD PUSH2 0x7E3 SWAP1 PUSH2 0x20E5 JUMP JUMPDEST PUSH1 0x1 PUSH1 0x1 PUSH1 0xA0 SHL SUB AND PUSH0 SWAP1 DUP2 MSTORE PUSH1 0x12 PUSH1 0x20 MSTORE PUSH1 0x40 SWAP1 KECCAK256 DUP1 SLOAD PUSH1 0xFF NOT AND PUSH1 0x1 OR SWAP1 SSTORE JUMP JUMPDEST PUSH1 0x5 SLOAD PUSH1 0x1 PUSH1 0x1 PUSH1 0xA0 SHL SUB AND CALLER EQ PUSH2 0xB17 JUMPI PUSH1 0x40 MLOAD PUSH3 0x461BCD PUSH1 0xE5 SHL DUP2 MSTORE PUSH1 0x4 ADD PUSH2 0x7E3 SWAP1 PUSH2 0x20E5 JUMP JUMPDEST PUSH2 0xB20 PUSH0 PUSH2 0x1751 JUMP JUMPDEST JUMP JUMPDEST PUSH1 0x5 SLOAD PUSH1 0x1 PUSH1 0x1 PUSH1 0xA0 SHL SUB AND CALLER EQ PUSH2 0xB4C JUMPI PUSH1 0x40 MLOAD PUSH3 0x461BCD PUSH1 0xE5 SHL DUP2 MSTORE PUSH1 0x4 ADD PUSH2 0x7E3 SWAP1 PUSH2 0x20E5 JUMP JUMPDEST PUSH1 0x1 PUSH1 0x1 PUSH1 0xA0 SHL SUB AND PUSH0 SWAP1 DUP2 MSTORE PUSH1 0x12 PUSH1 0x20 MSTORE PUSH1 0x40 SWAP1 KECCAK256 DUP1 SLOAD PUSH1 0xFF NOT AND SWAP1 SSTORE JUMP JUMPDEST PUSH1 0x5 SLOAD PUSH1 0x1 PUSH1 0x1 PUSH1 0xA0 SHL SUB AND CALLER EQ PUSH2 0xB96 JUMPI PUSH1 0x40 MLOAD PUSH3 0x461BCD PUSH1 0xE5 SHL DUP2 MSTORE PUSH1 0x4 ADD PUSH2 0x7E3 SWAP1 PUSH2 0x20E5 JUMP JUMPDEST PUSH1 0x1 PUSH1 0x1 PUSH1 0xA0 SHL SUB SWAP2 SWAP1 SWAP2 AND PUSH0 SWAP1 DUP2 MSTORE PUSH1 0x13 PUSH1 0x20 MSTORE PUSH1 0x40 SWAP1 KECCAK256 DUP1 SLOAD PUSH1 0xFF NOT AND SWAP2 ISZERO ISZERO SWAP2 SWAP1 SWAP2 OR SWAP1 SSTORE JUMP JUMPDEST PUSH1 0x5 SLOAD PUSH1 0x1 PUSH1 0x1 PUSH1 0xA0 SHL SUB AND CALLER EQ PUSH2 0xBEA JUMPI PUSH1 0x40 MLOAD PUSH3 0x461BCD PUSH1 0xE5 SHL DUP2 MSTORE PUSH1 0x4 ADD PUSH2 0x7E3 SWAP1 PUSH2 0x20E5 JUMP JUMPDEST PUSH1 0x7 SLOAD PUSH1 0x1 PUSH1 0xB0 SHL SWAP1 DIV PUSH1 0xFF AND ISZERO PUSH2 0xC44 JUMPI PUSH1 0x40 MLOAD PUSH3 0x461BCD PUSH1 0xE5 SHL DUP2 MSTORE PUSH1 0x20 PUSH1 0x4 DUP3 ADD MSTORE PUSH1 0x1A PUSH1 0x24 DUP3 ADD MSTORE PUSH32 0x54726164696E6720697320616C726561647920656E61626C6564000000000000 PUSH1 0x44 DUP3 ADD MSTORE PUSH1 0x64 ADD PUSH2 0x7E3 JUMP JUMPDEST PUSH1 0x7 DUP1 SLOAD PUSH2 0xFFFF PUSH1 0xA8 SHL NOT AND PUSH2 0x101 PUSH1 0xA8 SHL OR SWAP1 SSTORE NUMBER PUSH1 0xA SSTORE JUMP JUMPDEST PUSH1 0x5 SLOAD PUSH1 0x1 PUSH1 0x1 PUSH1 0xA0 SHL SUB AND CALLER EQ PUSH2 0xC89 JUMPI PUSH1 0x40 MLOAD PUSH3 0x461BCD PUSH1 0xE5 SHL DUP2 MSTORE PUSH1 0x4 ADD PUSH2 0x7E3 SWAP1 PUSH2 0x20E5 JUMP JUMPDEST DUP2 PUSH1 0x1 PUSH1 0x1 PUSH1 0xA0 SHL SUB AND PUSH4 0xA9059CBB PUSH2 0xCAA PUSH1 0x5 SLOAD PUSH1 0x1 PUSH1 0x1 PUSH1 0xA0 SHL SUB AND SWAP1 JUMP JUMPDEST PUSH1 0x40 MLOAD PUSH1 0x1 PUSH1 0x1 PUSH1 0xE0 SHL SUB NOT PUSH1 0xE0 DUP5 SWAP1 SHL AND DUP2 MSTORE PUSH1 0x1 PUSH1 0x1 PUSH1 0xA0 SHL SUB SWAP1 SWAP2 AND PUSH1 0x4 DUP3 ADD MSTORE PUSH1 0x24 DUP2 ADD DUP5 SWAP1 MSTORE PUSH1 0x44 ADD PUSH1 0x20 PUSH1 0x40 MLOAD DUP1 DUP4 SUB DUP2 PUSH0 DUP8 GAS CALL ISZERO DUP1 ISZERO PUSH2 0xCF4 JUMPI RETURNDATASIZE PUSH0 DUP1 RETURNDATACOPY RETURNDATASIZE PUSH0 REVERT JUMPDEST POP POP POP POP PUSH1 0x40 MLOAD RETURNDATASIZE PUSH1 0x1F NOT PUSH1 0x1F DUP3 ADD AND DUP3 ADD DUP1 PUSH1 0x40 MSTORE POP DUP2 ADD SWAP1 PUSH2 0x898 SWAP2 SWAP1 PUSH2 0x2285 JUMP JUMPDEST PUSH1 0x60 PUSH1 0x4 DUP1 SLOAD PUSH2 0x722 SWAP1 PUSH2 0x20AD JUMP JUMPDEST PUSH1 0x5 SLOAD PUSH1 0x1 PUSH1 0x1 PUSH1 0xA0 SHL SUB AND CALLER EQ PUSH2 0xD51 JUMPI PUSH1 0x40 MLOAD PUSH3 0x461BCD PUSH1 0xE5 SHL DUP2 MSTORE PUSH1 0x4 ADD PUSH2 0x7E3 SWAP1 PUSH2 0x20E5 JUMP JUMPDEST PUSH1 0x5 SLOAD PUSH1 0x40 MLOAD PUSH1 0x1 PUSH1 0x1 PUSH1 0xA0 SHL SUB SWAP1 SWAP2 AND SWAP1 DUP3 ISZERO PUSH2 0x8FC MUL SWAP1 DUP4 SWAP1 PUSH0 DUP2 DUP2 DUP2 DUP6 DUP9 DUP9 CALL SWAP4 POP POP POP POP ISZERO DUP1 ISZERO PUSH2 0x9DA JUMPI RETURNDATASIZE PUSH0 DUP1 RETURNDATACOPY RETURNDATASIZE PUSH0 REVERT JUMPDEST CALLER PUSH0 SWAP1 DUP2 MSTORE PUSH1 0x1 PUSH1 0x20 SWAP1 DUP2 MSTORE PUSH1 0x40 DUP1 DUP4 KECCAK256 PUSH1 0x1 PUSH1 0x1 PUSH1 0xA0 SHL SUB DUP7 AND DUP5 MSTORE SWAP1 SWAP2 MSTORE DUP2 KECCAK256 SLOAD DUP3 DUP2 LT ISZERO PUSH2 0xE09 JUMPI PUSH1 0x40 MLOAD PUSH3 0x461BCD PUSH1 0xE5 SHL DUP2 MSTORE PUSH1 0x20 PUSH1 0x4 DUP3 ADD MSTORE PUSH1 0x25 PUSH1 0x24 DUP3 ADD MSTORE PUSH32 0x45524332303A2064656372656173656420616C6C6F77616E63652062656C6F77 PUSH1 0x44 DUP3 ADD MSTORE PUSH5 0x207A65726F PUSH1 0xD8 SHL PUSH1 0x64 DUP3 ADD MSTORE PUSH1 0x84 ADD PUSH2 0x7E3 JUMP JUMPDEST PUSH2 0xE18 CALLER DUP6 PUSH2 0x93C DUP7 DUP6 PUSH2 0x215A JUMP JUMPDEST POP PUSH1 0x1 SWAP4 SWAP3 POP POP POP JUMP JUMPDEST PUSH0 PUSH2 0x7AF CALLER DUP5 DUP5 PUSH2 0x11EE JUMP JUMPDEST PUSH1 0x5 SLOAD PUSH1 0x1 PUSH1 0x1 PUSH1 0xA0 SHL SUB AND CALLER EQ PUSH2 0xE58 JUMPI PUSH1 0x40 MLOAD PUSH3 0x461BCD PUSH1 0xE5 SHL DUP2 MSTORE PUSH1 0x4 ADD PUSH2 0x7E3 SWAP1 PUSH2 0x20E5 JUMP JUMPDEST PUSH1 0xD DUP1 SLOAD PUSH1 0x1 PUSH1 0x1 PUSH1 0xA0 SHL SUB NOT AND PUSH1 0x1 PUSH1 0x1 PUSH1 0xA0 SHL SUB SWAP3 SWAP1 SWAP3 AND SWAP2 SWAP1 SWAP2 OR SWAP1 SSTORE JUMP JUMPDEST PUSH1 0x5 SLOAD PUSH1 0x1 PUSH1 0x1 PUSH1 0xA0 SHL SUB AND CALLER EQ PUSH2 0xEA4 JUMPI PUSH1 0x40 MLOAD PUSH3 0x461BCD PUSH1 0xE5 SHL DUP2 MSTORE PUSH1 0x4 ADD PUSH2 0x7E3 SWAP1 PUSH2 0x20E5 JUMP JUMPDEST PUSH1 0x40 DUP1 MLOAD DUP1 DUP3 ADD SWAP1 SWAP2 MSTORE DUP3 DUP2 MSTORE PUSH1 0x20 ADD DUP2 SWAP1 MSTORE PUSH1 0xE SWAP2 SWAP1 SWAP2 SSTORE PUSH1 0xF SSTORE JUMP JUMPDEST PUSH1 0x5 SLOAD PUSH1 0x1 PUSH1 0x1 PUSH1 0xA0 SHL SUB AND CALLER EQ PUSH2 0xEEC JUMPI PUSH1 0x40 MLOAD PUSH3 0x461BCD PUSH1 0xE5 SHL DUP2 MSTORE PUSH1 0x4 ADD PUSH2 0x7E3 SWAP1 PUSH2 0x20E5 JUMP JUMPDEST PUSH1 0x7 SLOAD PUSH1 0x1 PUSH1 0xB0 SHL SWAP1 DIV PUSH1 0xFF AND ISZERO PUSH2 0xF54 JUMPI PUSH1 0x40 MLOAD PUSH3 0x461BCD PUSH1 0xE5 SHL DUP2 MSTORE PUSH1 0x20 PUSH1 0x4 DUP3 ADD MSTORE PUSH1 0x25 PUSH1 0x24 DUP3 ADD MSTORE PUSH32 0x43616E2774206368616E6765207768656E2074726164696E6720686173207374 PUSH1 0x44 DUP3 ADD MSTORE PUSH5 0x185C9D1959 PUSH1 0xDA SHL PUSH1 0x64 DUP3 ADD MSTORE PUSH1 0x84 ADD PUSH2 0x7E3 JUMP JUMPDEST PUSH1 0xB SSTORE JUMP JUMPDEST PUSH1 0x5 SLOAD PUSH1 0x1 PUSH1 0x1 PUSH1 0xA0 SHL SUB AND CALLER EQ PUSH2 0xF83 JUMPI PUSH1 0x40 MLOAD PUSH3 0x461BCD PUSH1 0xE5 SHL DUP2 MSTORE PUSH1 0x4 ADD PUSH2 0x7E3 SWAP1 PUSH2 0x20E5 JUMP JUMPDEST PUSH1 0x1 PUSH1 0x1 PUSH1 0xA0 SHL SUB DUP2 AND PUSH2 0xFE8 JUMPI PUSH1 0x40 MLOAD PUSH3 0x461BCD PUSH1 0xE5 SHL DUP2 MSTORE PUSH1 0x20 PUSH1 0x4 DUP3 ADD MSTORE PUSH1 0x26 PUSH1 0x24 DUP3 ADD MSTORE PUSH32 0x4F776E61626C653A206E6577206F776E657220697320746865207A65726F2061 PUSH1 0x44 DUP3 ADD MSTORE PUSH6 0x646472657373 PUSH1 0xD0 SHL PUSH1 0x64 DUP3 ADD MSTORE PUSH1 0x84 ADD PUSH2 0x7E3 JUMP JUMPDEST PUSH2 0xFF1 DUP2 PUSH2 0x1751 JUMP JUMPDEST POP JUMP JUMPDEST PUSH1 0x5 SLOAD PUSH1 0x1 PUSH1 0x1 PUSH1 0xA0 SHL SUB AND CALLER EQ PUSH2 0x101E JUMPI PUSH1 0x40 MLOAD PUSH3 0x461BCD PUSH1 0xE5 SHL DUP2 MSTORE PUSH1 0x4 ADD PUSH2 0x7E3 SWAP1 PUSH2 0x20E5 JUMP JUMPDEST PUSH1 0x40 DUP1 MLOAD DUP1 DUP3 ADD SWAP1 SWAP2 MSTORE DUP3 DUP2 MSTORE PUSH1 0x20 ADD DUP2 SWAP1 MSTORE PUSH1 0x10 SWAP2 SWAP1 SWAP2 SSTORE PUSH1 0x11 SSTORE JUMP JUMPDEST PUSH1 0x5 SLOAD PUSH1 0x1 PUSH1 0x1 PUSH1 0xA0 SHL SUB AND CALLER EQ PUSH2 0x1066 JUMPI PUSH1 0x40 MLOAD PUSH3 0x461BCD PUSH1 0xE5 SHL DUP2 MSTORE PUSH1 0x4 ADD PUSH2 0x7E3 SWAP1 PUSH2 0x20E5 JUMP JUMPDEST PUSH0 JUMPDEST DUP2 MLOAD DUP2 LT ISZERO PUSH2 0x9DA JUMPI PUSH1 0x1 PUSH1 0x12 PUSH0 DUP5 DUP5 DUP2 MLOAD DUP2 LT PUSH2 0x1088 JUMPI PUSH2 0x1088 PUSH2 0x211A JUMP JUMPDEST PUSH1 0x20 SWAP1 DUP2 MUL SWAP2 SWAP1 SWAP2 ADD DUP2 ADD MLOAD PUSH1 0x1 PUSH1 0x1 PUSH1 0xA0 SHL SUB AND DUP3 MSTORE DUP2 ADD SWAP2 SWAP1 SWAP2 MSTORE PUSH1 0x40 ADD PUSH0 KECCAK256 DUP1 SLOAD PUSH1 0xFF NOT AND SWAP2 ISZERO ISZERO SWAP2 SWAP1 SWAP2 OR SWAP1 SSTORE DUP1 PUSH2 0x10C3 DUP2 PUSH2 0x2142 JUMP JUMPDEST SWAP2 POP POP PUSH2 0x1068 JUMP JUMPDEST PUSH1 0x1 PUSH1 0x1 PUSH1 0xA0 SHL SUB DUP4 AND PUSH2 0x112D JUMPI PUSH1 0x40 MLOAD PUSH3 0x461BCD PUSH1 0xE5 SHL DUP2 MSTORE PUSH1 0x20 PUSH1 0x4 DUP3 ADD MSTORE PUSH1 0x24 DUP1 DUP3 ADD MSTORE PUSH32 0x45524332303A20617070726F76652066726F6D20746865207A65726F20616464 PUSH1 0x44 DUP3 ADD MSTORE PUSH4 0x72657373 PUSH1 0xE0 SHL PUSH1 0x64 DUP3 ADD MSTORE PUSH1 0x84 ADD PUSH2 0x7E3 JUMP JUMPDEST PUSH1 0x1 PUSH1 0x1 PUSH1 0xA0 SHL SUB DUP3 AND PUSH2 0x118E JUMPI PUSH1 0x40 MLOAD PUSH3 0x461BCD PUSH1 0xE5 SHL DUP2 MSTORE PUSH1 0x20 PUSH1 0x4 DUP3 ADD MSTORE PUSH1 0x22 PUSH1 0x24 DUP3 ADD MSTORE PUSH32 0x45524332303A20617070726F766520746F20746865207A65726F206164647265 PUSH1 0x44 DUP3 ADD MSTORE PUSH2 0x7373 PUSH1 0xF0 SHL PUSH1 0x64 DUP3 ADD MSTORE PUSH1 0x84 ADD PUSH2 0x7E3 JUMP JUMPDEST PUSH1 0x1 PUSH1 0x1 PUSH1 0xA0 SHL SUB DUP4 DUP2 AND PUSH0 DUP2 DUP2 MSTORE PUSH1 0x1 PUSH1 0x20 SWAP1 DUP2 MSTORE PUSH1 0x40 DUP1 DUP4 KECCAK256 SWAP5 DUP8 AND DUP1 DUP5 MSTORE SWAP5 DUP3 MSTORE SWAP2 DUP3 SWAP1 KECCAK256 DUP6 SWAP1 SSTORE SWAP1 MLOAD DUP5 DUP2 MSTORE PUSH32 0x8C5BE1E5EBEC7D5BD14F71427D1E84F3DD0314C0F7B2291E5B200AC8C7C3B925 SWAP2 ADD PUSH1 0x40 MLOAD DUP1 SWAP2 SUB SWAP1 LOG3 POP POP POP JUMP JUMPDEST PUSH0 DUP2 GT PUSH2 0x124F JUMPI PUSH1 0x40 MLOAD PUSH3 0x461BCD PUSH1 0xE5 SHL DUP2 MSTORE PUSH1 0x20 PUSH1 0x4 DUP3 ADD MSTORE PUSH1 0x29 PUSH1 0x24 DUP3 ADD MSTORE PUSH32 0x5472616E7366657220616D6F756E74206D757374206265206772656174657220 PUSH1 0x44 DUP3 ADD MSTORE PUSH9 0x7468616E207A65726F PUSH1 0xB8 SHL PUSH1 0x64 DUP3 ADD MSTORE PUSH1 0x84 ADD PUSH2 0x7E3 JUMP JUMPDEST PUSH1 0x1 PUSH1 0x1 PUSH1 0xA0 SHL SUB DUP4 AND PUSH0 SWAP1 DUP2 MSTORE PUSH1 0x13 PUSH1 0x20 MSTORE PUSH1 0x40 SWAP1 KECCAK256 SLOAD PUSH1 0xFF AND ISZERO DUP1 ISZERO PUSH2 0x128F JUMPI POP PUSH1 0x1 PUSH1 0x1 PUSH1 0xA0 SHL SUB DUP3 AND PUSH0 SWAP1 DUP2 MSTORE PUSH1 0x13 PUSH1 0x20 MSTORE PUSH1 0x40 SWAP1 KECCAK256 SLOAD PUSH1 0xFF AND ISZERO JUMPDEST PUSH2 0x12DB JUMPI PUSH1 0x40 MLOAD PUSH3 0x461BCD PUSH1 0xE5 SHL DUP2 MSTORE PUSH1 0x20 PUSH1 0x4 DUP3 ADD MSTORE PUSH1 0x19 PUSH1 0x24 DUP3 ADD MSTORE PUSH32 0x596F752063616E2774207472616E7366657220746F6B656E7300000000000000 PUSH1 0x44 DUP3 ADD MSTORE PUSH1 0x64 ADD PUSH2 0x7E3 JUMP JUMPDEST PUSH1 0x1 PUSH1 0x1 PUSH1 0xA0 SHL SUB DUP4 AND PUSH0 SWAP1 DUP2 MSTORE PUSH1 0x12 PUSH1 0x20 MSTORE PUSH1 0x40 SWAP1 KECCAK256 SLOAD PUSH1 0xFF AND ISZERO DUP1 ISZERO PUSH2 0x131B JUMPI POP PUSH1 0x1 PUSH1 0x1 PUSH1 0xA0 SHL SUB DUP3 AND PUSH0 SWAP1 DUP2 MSTORE PUSH1 0x12 PUSH1 0x20 MSTORE PUSH1 0x40 SWAP1 KECCAK256 SLOAD PUSH1 0xFF AND ISZERO JUMPDEST ISZERO PUSH2 0x136F JUMPI PUSH1 0x7 SLOAD PUSH1 0x1 PUSH1 0xB0 SHL SWAP1 DIV PUSH1 0xFF AND PUSH2 0x136F JUMPI PUSH1 0x40 MLOAD PUSH3 0x461BCD PUSH1 0xE5 SHL DUP2 MSTORE PUSH1 0x20 PUSH1 0x4 DUP3 ADD MSTORE PUSH1 0x13 PUSH1 0x24 DUP3 ADD MSTORE PUSH19 0x151C98591A5B99C81B9BDD08195B98589B1959 PUSH1 0x6A SHL PUSH1 0x44 DUP3 ADD MSTORE PUSH1 0x64 ADD PUSH2 0x7E3 JUMP JUMPDEST PUSH1 0x7 SLOAD PUSH1 0x1 PUSH1 0x1 PUSH1 0xA0 SHL SUB DUP5 DUP2 AND SWAP2 AND EQ DUP1 ISZERO PUSH2 0x13A4 JUMPI POP PUSH1 0x1 PUSH1 0x1 PUSH1 0xA0 SHL SUB DUP3 AND PUSH0 SWAP1 DUP2 MSTORE PUSH1 0x12 PUSH1 0x20 MSTORE PUSH1 0x40 SWAP1 KECCAK256 SLOAD PUSH1 0xFF AND ISZERO JUMPDEST DUP1 ISZERO PUSH2 0x13BA JUMPI POP PUSH1 0x7 SLOAD PUSH1 0x1 PUSH1 0xA0 SHL SWAP1 DIV PUSH1 0xFF AND ISZERO JUMPDEST ISZERO PUSH2 0x1439 JUMPI PUSH1 0x9 SLOAD DUP2 PUSH2 0x13E1 DUP5 PUSH1 0x1 PUSH1 0x1 PUSH1 0xA0 SHL SUB AND PUSH0 SWAP1 DUP2 MSTORE PUSH1 0x20 DUP2 SWAP1 MSTORE PUSH1 0x40 SWAP1 KECCAK256 SLOAD SWAP1 JUMP JUMPDEST PUSH2 0x13EB SWAP2 SWAP1 PUSH2 0x216D JUMP JUMPDEST GT ISZERO PUSH2 0x1439 JUMPI PUSH1 0x40 MLOAD PUSH3 0x461BCD PUSH1 0xE5 SHL DUP2 MSTORE PUSH1 0x20 PUSH1 0x4 DUP3 ADD DUP2 SWAP1 MSTORE PUSH1 0x24 DUP3 ADD MSTORE PUSH32 0x596F752061726520657863656564696E67206D617857616C6C65744C696D6974 PUSH1 0x44 DUP3 ADD MSTORE PUSH1 0x64 ADD PUSH2 0x7E3 JUMP JUMPDEST PUSH1 0x7 SLOAD PUSH1 0x1 PUSH1 0x1 PUSH1 0xA0 SHL SUB DUP5 DUP2 AND SWAP2 AND EQ DUP1 ISZERO SWAP1 PUSH2 0x146F JUMPI POP PUSH1 0x1 PUSH1 0x1 PUSH1 0xA0 SHL SUB DUP3 AND PUSH0 SWAP1 DUP2 MSTORE PUSH1 0x12 PUSH1 0x20 MSTORE PUSH1 0x40 SWAP1 KECCAK256 SLOAD PUSH1 0xFF AND ISZERO JUMPDEST DUP1 ISZERO PUSH2 0x1493 JUMPI POP PUSH1 0x1 PUSH1 0x1 PUSH1 0xA0 SHL SUB DUP4 AND PUSH0 SWAP1 DUP2 MSTORE PUSH1 0x12 PUSH1 0x20 MSTORE PUSH1 0x40 SWAP1 KECCAK256 SLOAD PUSH1 0xFF AND ISZERO JUMPDEST DUP1 ISZERO PUSH2 0x14A9 JUMPI POP PUSH1 0x7 SLOAD PUSH1 0x1 PUSH1 0xA0 SHL SWAP1 DIV PUSH1 0xFF AND ISZERO JUMPDEST ISZERO PUSH2 0x153D JUMPI PUSH1 0x7 SLOAD PUSH1 0x1 PUSH1 0x1 PUSH1 0xA0 SHL SUB DUP4 DUP2 AND SWAP2 AND EQ PUSH2 0x153D JUMPI PUSH1 0x9 SLOAD DUP2 PUSH2 0x14E5 DUP5 PUSH1 0x1 PUSH1 0x1 PUSH1 0xA0 SHL SUB AND PUSH0 SWAP1 DUP2 MSTORE PUSH1 0x20 DUP2 SWAP1 MSTORE PUSH1 0x40 SWAP1 KECCAK256 SLOAD SWAP1 JUMP JUMPDEST PUSH2 0x14EF SWAP2 SWAP1 PUSH2 0x216D JUMP JUMPDEST GT ISZERO PUSH2 0x153D JUMPI PUSH1 0x40 MLOAD PUSH3 0x461BCD PUSH1 0xE5 SHL DUP2 MSTORE PUSH1 0x20 PUSH1 0x4 DUP3 ADD DUP2 SWAP1 MSTORE PUSH1 0x24 DUP3 ADD MSTORE PUSH32 0x596F752061726520657863656564696E67206D617857616C6C65744C696D6974 PUSH1 0x44 DUP3 ADD MSTORE PUSH1 0x64 ADD PUSH2 0x7E3 JUMP JUMPDEST PUSH0 DUP1 PUSH0 PUSH2 0x155B PUSH1 0x40 MLOAD DUP1 PUSH1 0x40 ADD PUSH1 0x40 MSTORE DUP1 PUSH0 DUP2 MSTORE PUSH1 0x20 ADD PUSH0 DUP2 MSTORE POP SWAP1 JUMP JUMPDEST PUSH1 0x1 PUSH1 0x1 PUSH1 0xA0 SHL SUB DUP8 AND PUSH0 SWAP1 DUP2 MSTORE PUSH1 0x12 PUSH1 0x20 MSTORE PUSH1 0x40 DUP2 KECCAK256 SLOAD PUSH1 0xFF AND ISZERO DUP1 ISZERO PUSH2 0x159B JUMPI POP PUSH1 0x1 PUSH1 0x1 PUSH1 0xA0 SHL SUB DUP8 AND PUSH0 SWAP1 DUP2 MSTORE PUSH1 0x12 PUSH1 0x20 MSTORE PUSH1 0x40 SWAP1 KECCAK256 SLOAD PUSH1 0xFF AND ISZERO JUMPDEST DUP1 ISZERO PUSH2 0x15B5 JUMPI POP PUSH1 0xB SLOAD PUSH1 0xA SLOAD PUSH2 0x15B2 SWAP2 SWAP1 PUSH2 0x216D JUMP JUMPDEST NUMBER LT JUMPDEST PUSH1 0x7 SLOAD SWAP1 SWAP2 POP PUSH1 0x1 PUSH1 0xA0 SHL SWAP1 DIV PUSH1 0xFF AND DUP1 PUSH2 0x15E7 JUMPI POP PUSH1 0x1 PUSH1 0x1 PUSH1 0xA0 SHL SUB DUP9 AND PUSH0 SWAP1 DUP2 MSTORE PUSH1 0x12 PUSH1 0x20 MSTORE PUSH1 0x40 SWAP1 KECCAK256 SLOAD PUSH1 0xFF AND JUMPDEST DUP1 PUSH2 0x1609 JUMPI POP PUSH1 0x1 PUSH1 0x1 PUSH1 0xA0 SHL SUB DUP8 AND PUSH0 SWAP1 DUP2 MSTORE PUSH1 0x12 PUSH1 0x20 MSTORE PUSH1 0x40 SWAP1 KECCAK256 SLOAD PUSH1 0xFF AND JUMPDEST ISZERO PUSH2 0x1616 JUMPI PUSH0 SWAP3 POP PUSH2 0x16B2 JUMP JUMPDEST PUSH1 0x7 SLOAD PUSH1 0x1 PUSH1 0x1 PUSH1 0xA0 SHL SUB DUP9 DUP2 AND SWAP2 AND EQ DUP1 ISZERO PUSH2 0x1631 JUMPI POP DUP1 ISZERO JUMPDEST ISZERO PUSH2 0x166A JUMPI PUSH1 0x10 SLOAD PUSH1 0x11 SLOAD PUSH2 0x1646 SWAP2 SWAP1 PUSH2 0x216D JUMP JUMPDEST PUSH1 0x40 DUP1 MLOAD DUP1 DUP3 ADD SWAP1 SWAP2 MSTORE PUSH1 0x10 SLOAD DUP2 MSTORE PUSH1 0x11 SLOAD PUSH1 0x20 DUP3 ADD MSTORE SWAP1 SWAP6 POP DUP6 SWAP5 POP SWAP2 POP PUSH2 0x16B2 JUMP JUMPDEST DUP1 PUSH2 0x16A3 JUMPI PUSH1 0xE SLOAD PUSH1 0xF SLOAD PUSH2 0x167F SWAP2 SWAP1 PUSH2 0x216D JUMP JUMPDEST PUSH1 0x40 DUP1 MLOAD DUP1 DUP3 ADD SWAP1 SWAP2 MSTORE PUSH1 0xE SLOAD DUP2 MSTORE PUSH1 0xF SLOAD PUSH1 0x20 DUP3 ADD MSTORE SWAP1 SWAP6 POP DUP6 SWAP5 POP SWAP2 POP PUSH2 0x16B2 JUMP JUMPDEST DUP1 ISZERO PUSH2 0x16B2 JUMPI PUSH1 0xC SLOAD SWAP5 POP DUP5 SWAP4 POP JUMPDEST PUSH1 0x64 PUSH2 0x16BE DUP6 DUP9 PUSH2 0x226E JUMP JUMPDEST PUSH2 0x16C8 SWAP2 SWAP1 PUSH2 0x22A0 JUMP JUMPDEST PUSH1 0x7 SLOAD SWAP1 SWAP4 POP PUSH1 0x1 PUSH1 0xA8 SHL SWAP1 DIV PUSH1 0xFF AND DUP1 ISZERO PUSH2 0x16F2 JUMPI POP PUSH1 0x7 SLOAD PUSH1 0x1 PUSH1 0x1 PUSH1 0xA0 SHL SUB DUP10 DUP2 AND SWAP2 AND EQ ISZERO JUMPDEST ISZERO PUSH2 0x1701 JUMPI PUSH2 0x1701 DUP6 DUP4 PUSH2 0x17A2 JUMP JUMPDEST PUSH2 0x1715 DUP9 DUP9 PUSH2 0x1710 DUP7 DUP11 PUSH2 0x215A JUMP JUMPDEST PUSH2 0x18D7 JUMP JUMPDEST DUP3 ISZERO PUSH2 0x1747 JUMPI DUP5 ISZERO PUSH2 0x1747 JUMPI PUSH0 PUSH1 0x64 PUSH2 0x172E DUP8 DUP10 PUSH2 0x226E JUMP JUMPDEST PUSH2 0x1738 SWAP2 SWAP1 PUSH2 0x22A0 JUMP JUMPDEST SWAP1 POP PUSH2 0x1745 DUP10 ADDRESS DUP4 PUSH2 0x18D7 JUMP JUMPDEST POP JUMPDEST POP POP POP POP POP POP POP POP JUMP JUMPDEST PUSH1 0x5 DUP1 SLOAD PUSH1 0x1 PUSH1 0x1 PUSH1 0xA0 SHL SUB DUP4 DUP2 AND PUSH1 0x1 PUSH1 0x1 PUSH1 0xA0 SHL SUB NOT DUP4 AND DUP2 OR SWAP1 SWAP4 SSTORE PUSH1 0x40 MLOAD SWAP2 AND SWAP2 SWAP1 DUP3 SWAP1 PUSH32 0x8BE0079C531659141344CD1FD0A4F28419497F9722A3DAAFE3B4186F6B6457E0 SWAP1 PUSH0 SWAP1 LOG3 POP POP JUMP JUMPDEST PUSH1 0x7 SLOAD PUSH1 0x1 PUSH1 0xA0 SHL SWAP1 DIV PUSH1 0xFF AND PUSH2 0x9DA JUMPI PUSH1 0x7 DUP1 SLOAD PUSH1 0xFF PUSH1 0xA0 SHL NOT AND PUSH1 0x1 PUSH1 0xA0 SHL OR SWAP1 SSTORE DUP2 ISZERO PUSH2 0x18C6 JUMPI ADDRESS PUSH0 SWAP1 DUP2 MSTORE PUSH1 0x20 DUP2 SWAP1 MSTORE PUSH1 0x40 SWAP1 KECCAK256 SLOAD PUSH1 0x8 SLOAD DUP2 LT PUSH2 0x18C4 JUMPI PUSH1 0x1 PUSH1 0x8 SLOAD GT ISZERO PUSH2 0x17F4 JUMPI POP PUSH1 0x8 SLOAD JUMPDEST PUSH0 PUSH2 0x1800 DUP5 PUSH1 0x2 PUSH2 0x226E JUMP JUMPDEST SWAP1 POP PUSH0 DUP2 DUP5 PUSH1 0x20 ADD MLOAD DUP5 PUSH2 0x1814 SWAP2 SWAP1 PUSH2 0x226E JUMP JUMPDEST PUSH2 0x181E SWAP2 SWAP1 PUSH2 0x22A0 JUMP JUMPDEST SWAP1 POP PUSH0 PUSH2 0x182B DUP3 DUP6 PUSH2 0x215A JUMP JUMPDEST SWAP1 POP SELFBALANCE PUSH2 0x1837 DUP3 PUSH2 0x1AAD JUMP JUMPDEST PUSH0 PUSH2 0x1842 DUP3 SELFBALANCE PUSH2 0x215A JUMP JUMPDEST SWAP1 POP PUSH0 DUP8 PUSH1 0x20 ADD MLOAD DUP7 PUSH2 0x1855 SWAP2 SWAP1 PUSH2 0x215A JUMP JUMPDEST PUSH2 0x185F SWAP1 DUP4 PUSH2 0x22A0 JUMP JUMPDEST SWAP1 POP PUSH0 DUP9 PUSH1 0x20 ADD MLOAD DUP3 PUSH2 0x1872 SWAP2 SWAP1 PUSH2 0x226E JUMP JUMPDEST SWAP1 POP DUP1 ISZERO PUSH2 0x1884 JUMPI PUSH2 0x1884 DUP7 DUP3 PUSH2 0x1BFD JUMP JUMPDEST DUP9 MLOAD PUSH0 SWAP1 PUSH2 0x1893 DUP5 PUSH1 0x2 PUSH2 0x226E JUMP JUMPDEST PUSH2 0x189D SWAP2 SWAP1 PUSH2 0x226E JUMP JUMPDEST SWAP1 POP DUP1 ISZERO PUSH2 0x18BB JUMPI PUSH1 0xD SLOAD PUSH2 0x18BB SWAP1 PUSH1 0x1 PUSH1 0x1 PUSH1 0xA0 SHL SUB AND DUP3 PUSH2 0x1CAC JUMP JUMPDEST POP POP POP POP POP POP POP POP JUMPDEST POP JUMPDEST PUSH1 0x7 DUP1 SLOAD PUSH1 0xFF PUSH1 0xA0 SHL NOT AND SWAP1 SSTORE POP POP JUMP JUMPDEST PUSH1 0x1 PUSH1 0x1 PUSH1 0xA0 SHL SUB DUP4 AND PUSH2 0x193B JUMPI PUSH1 0x40 MLOAD PUSH3 0x461BCD PUSH1 0xE5 SHL DUP2 MSTORE PUSH1 0x20 PUSH1 0x4 DUP3 ADD MSTORE PUSH1 0x25 PUSH1 0x24 DUP3 ADD MSTORE PUSH32 0x45524332303A207472616E736665722066726F6D20746865207A65726F206164 PUSH1 0x44 DUP3 ADD MSTORE PUSH5 0x6472657373 PUSH1 0xD8 SHL PUSH1 0x64 DUP3 ADD MSTORE PUSH1 0x84 ADD PUSH2 0x7E3 JUMP JUMPDEST PUSH1 0x1 PUSH1 0x1 PUSH1 0xA0 SHL SUB DUP3 AND PUSH2 0x199D JUMPI PUSH1 0x40 MLOAD PUSH3 0x461BCD PUSH1 0xE5 SHL DUP2 MSTORE PUSH1 0x20 PUSH1 0x4 DUP3 ADD MSTORE PUSH1 0x23 PUSH1 0x24 DUP3 ADD MSTORE PUSH32 0x45524332303A207472616E7366657220746F20746865207A65726F2061646472 PUSH1 0x44 DUP3 ADD MSTORE PUSH3 0x657373 PUSH1 0xE8 SHL PUSH1 0x64 DUP3 ADD MSTORE PUSH1 0x84 ADD PUSH2 0x7E3 JUMP JUMPDEST PUSH1 0x1 PUSH1 0x1 PUSH1 0xA0 SHL SUB DUP4 AND PUSH0 SWAP1 DUP2 MSTORE PUSH1 0x20 DUP2 SWAP1 MSTORE PUSH1 0x40 SWAP1 KECCAK256 SLOAD DUP2 DUP2 LT ISZERO PUSH2 0x1A14 JUMPI PUSH1 0x40 MLOAD PUSH3 0x461BCD PUSH1 0xE5 SHL DUP2 MSTORE PUSH1 0x20 PUSH1 0x4 DUP3 ADD MSTORE PUSH1 0x26 PUSH1 0x24 DUP3 ADD MSTORE PUSH32 0x45524332303A207472616E7366657220616D6F756E7420657863656564732062 PUSH1 0x44 DUP3 ADD MSTORE PUSH6 0x616C616E6365 PUSH1 0xD0 SHL PUSH1 0x64 DUP3 ADD MSTORE PUSH1 0x84 ADD PUSH2 0x7E3 JUMP JUMPDEST PUSH2 0x1A1E DUP3 DUP3 PUSH2 0x215A JUMP JUMPDEST PUSH1 0x1 PUSH1 0x1 PUSH1 0xA0 SHL SUB DUP1 DUP7 AND PUSH0 SWAP1 DUP2 MSTORE PUSH1 0x20 DUP2 SWAP1 MSTORE PUSH1 0x40 DUP1 DUP3 KECCAK256 SWAP4 SWAP1 SWAP4 SSTORE SWAP1 DUP6 AND DUP2 MSTORE SWAP1 DUP2 KECCAK256 DUP1 SLOAD DUP5 SWAP3 SWAP1 PUSH2 0x1A53 SWAP1 DUP5 SWAP1 PUSH2 0x216D JUMP JUMPDEST SWAP3 POP POP DUP2 SWAP1 SSTORE POP DUP3 PUSH1 0x1 PUSH1 0x1 PUSH1 0xA0 SHL SUB AND DUP5 PUSH1 0x1 PUSH1 0x1 PUSH1 0xA0 SHL SUB AND PUSH32 0xDDF252AD1BE2C89B69C2B068FC378DAA952BA7F163C4A11628F55A4DF523B3EF DUP5 PUSH1 0x40 MLOAD PUSH2 0x1A9F SWAP2 DUP2 MSTORE PUSH1 0x20 ADD SWAP1 JUMP JUMPDEST PUSH1 0x40 MLOAD DUP1 SWAP2 SUB SWAP1 LOG3 POP POP POP POP JUMP JUMPDEST PUSH1 0x40 DUP1 MLOAD PUSH1 0x2 DUP1 DUP3 MSTORE PUSH1 0x60 DUP3 ADD DUP4 MSTORE PUSH0 SWAP3 PUSH1 0x20 DUP4 ADD SWAP1 DUP1 CALLDATASIZE DUP4 CALLDATACOPY ADD SWAP1 POP POP SWAP1 POP ADDRESS DUP2 PUSH0 DUP2 MLOAD DUP2 LT PUSH2 0x1AE0 JUMPI PUSH2 0x1AE0 PUSH2 0x211A JUMP JUMPDEST PUSH1 0x1 PUSH1 0x1 PUSH1 0xA0 SHL SUB SWAP3 DUP4 AND PUSH1 0x20 SWAP2 DUP3 MUL SWAP3 SWAP1 SWAP3 ADD DUP2 ADD SWAP2 SWAP1 SWAP2 MSTORE PUSH1 0x6 SLOAD PUSH1 0x40 DUP1 MLOAD PUSH4 0x15AB88C9 PUSH1 0xE3 SHL DUP2 MSTORE SWAP1 MLOAD SWAP2 SWAP1 SWAP4 AND SWAP3 PUSH4 0xAD5C4648 SWAP3 PUSH1 0x4 DUP1 DUP4 ADD SWAP4 SWAP2 SWAP3 DUP3 SWAP1 SUB ADD DUP2 DUP7 GAS STATICCALL ISZERO DUP1 ISZERO PUSH2 0x1B37 JUMPI RETURNDATASIZE PUSH0 DUP1 RETURNDATACOPY RETURNDATASIZE PUSH0 REVERT JUMPDEST POP POP POP POP PUSH1 0x40 MLOAD RETURNDATASIZE PUSH1 0x1F NOT PUSH1 0x1F DUP3 ADD AND DUP3 ADD DUP1 PUSH1 0x40 MSTORE POP DUP2 ADD SWAP1 PUSH2 0x1B5B SWAP2 SWAP1 PUSH2 0x22BF JUMP JUMPDEST DUP2 PUSH1 0x1 DUP2 MLOAD DUP2 LT PUSH2 0x1B6E JUMPI PUSH2 0x1B6E PUSH2 0x211A JUMP JUMPDEST PUSH1 0x1 PUSH1 0x1 PUSH1 0xA0 SHL SUB SWAP3 DUP4 AND PUSH1 0x20 SWAP2 DUP3 MUL SWAP3 SWAP1 SWAP3 ADD ADD MSTORE PUSH1 0x6 SLOAD PUSH2 0x1B94 SWAP2 ADDRESS SWAP2 AND DUP5 PUSH2 0x10CB JUMP JUMPDEST PUSH1 0x6 SLOAD PUSH1 0x40 MLOAD PUSH4 0x791AC947 PUSH1 0xE0 SHL DUP2 MSTORE PUSH1 0x1 PUSH1 0x1 PUSH1 0xA0 SHL SUB SWAP1 SWAP2 AND SWAP1 PUSH4 0x791AC947 SWAP1 PUSH2 0x1BCC SWAP1 DUP6 SWAP1 PUSH0 SWAP1 DUP7 SWAP1 ADDRESS SWAP1 TIMESTAMP SWAP1 PUSH1 0x4 ADD PUSH2 0x22DA JUMP JUMPDEST PUSH0 PUSH1 0x40 MLOAD DUP1 DUP4 SUB DUP2 PUSH0 DUP8 DUP1 EXTCODESIZE ISZERO DUP1 ISZERO PUSH2 0x1BE3 JUMPI PUSH0 DUP1 REVERT JUMPDEST POP GAS CALL ISZERO DUP1 ISZERO PUSH2 0x1BF5 JUMPI RETURNDATASIZE PUSH0 DUP1 RETURNDATACOPY RETURNDATASIZE PUSH0 REVERT JUMPDEST POP POP POP POP POP POP JUMP JUMPDEST PUSH1 0x6 SLOAD PUSH2 0x1C15 SWAP1 ADDRESS SWAP1 PUSH1 0x1 PUSH1 0x1 PUSH1 0xA0 SHL SUB AND DUP5 PUSH2 0x10CB JUMP JUMPDEST PUSH1 0x6 SLOAD PUSH1 0x40 MLOAD PUSH4 0xF305D719 PUSH1 0xE0 SHL DUP2 MSTORE ADDRESS PUSH1 0x4 DUP3 ADD MSTORE PUSH1 0x24 DUP2 ADD DUP5 SWAP1 MSTORE PUSH0 PUSH1 0x44 DUP3 ADD DUP2 SWAP1 MSTORE PUSH1 0x64 DUP3 ADD MSTORE PUSH2 0xDEAD PUSH1 0x84 DUP3 ADD MSTORE TIMESTAMP PUSH1 0xA4 DUP3 ADD MSTORE PUSH1 0x1 PUSH1 0x1 PUSH1 0xA0 SHL SUB SWAP1 SWAP2 AND SWAP1 PUSH4 0xF305D719 SWAP1 DUP4 SWAP1 PUSH1 0xC4 ADD PUSH1 0x60 PUSH1 0x40 MLOAD DUP1 DUP4 SUB DUP2 DUP6 DUP9 GAS CALL ISZERO DUP1 ISZERO PUSH2 0x1C80 JUMPI RETURNDATASIZE PUSH0 DUP1 RETURNDATACOPY RETURNDATASIZE PUSH0 REVERT JUMPDEST POP POP POP POP POP PUSH1 0x40 MLOAD RETURNDATASIZE PUSH1 0x1F NOT PUSH1 0x1F DUP3 ADD AND DUP3 ADD DUP1 PUSH1 0x40 MSTORE POP DUP2 ADD SWAP1 PUSH2 0x1CA5 SWAP2 SWAP1 PUSH2 0x2349 JUMP JUMPDEST POP POP POP POP POP JUMP JUMPDEST DUP1 SELFBALANCE LT ISZERO PUSH2 0x1CFC JUMPI PUSH1 0x40 MLOAD PUSH3 0x461BCD PUSH1 0xE5 SHL DUP2 MSTORE PUSH1 0x20 PUSH1 0x4 DUP3 ADD MSTORE PUSH1 0x1D PUSH1 0x24 DUP3 ADD MSTORE PUSH32 0x416464726573733A20696E73756666696369656E742062616C616E6365000000 PUSH1 0x44 DUP3 ADD MSTORE PUSH1 0x64 ADD PUSH2 0x7E3 JUMP JUMPDEST PUSH0 DUP3 PUSH1 0x1 PUSH1 0x1 PUSH1 0xA0 SHL SUB AND DUP3 PUSH1 0x40 MLOAD PUSH0 PUSH1 0x40 MLOAD DUP1 DUP4 SUB DUP2 DUP6 DUP8 GAS CALL SWAP3 POP POP POP RETURNDATASIZE DUP1 PUSH0 DUP2 EQ PUSH2 0x1D45 JUMPI PUSH1 0x40 MLOAD SWAP2 POP PUSH1 0x1F NOT PUSH1 0x3F RETURNDATASIZE ADD AND DUP3 ADD PUSH1 0x40 MSTORE RETURNDATASIZE DUP3 MSTORE RETURNDATASIZE PUSH0 PUSH1 0x20 DUP5 ADD RETURNDATACOPY PUSH2 0x1D4A JUMP JUMPDEST PUSH1 0x60 SWAP2 POP JUMPDEST POP POP SWAP1 POP DUP1 PUSH2 0x898 JUMPI PUSH1 0x40 MLOAD PUSH3 0x461BCD PUSH1 0xE5 SHL DUP2 MSTORE PUSH1 0x20 PUSH1 0x4 DUP3 ADD MSTORE PUSH1 0x3A PUSH1 0x24 DUP3 ADD MSTORE PUSH32 0x416464726573733A20756E61626C6520746F2073656E642076616C75652C2072 PUSH1 0x44 DUP3 ADD MSTORE PUSH32 0x6563697069656E74206D61792068617665207265766572746564000000000000 PUSH1 0x64 DUP3 ADD MSTORE PUSH1 0x84 ADD PUSH2 0x7E3 JUMP JUMPDEST PUSH0 PUSH1 0x20 DUP1 DUP4 MSTORE DUP4 MLOAD DUP1 DUP3 DUP6 ADD MSTORE PUSH0 JUMPDEST DUP2 DUP2 LT ISZERO PUSH2 0x1DEC JUMPI DUP6 DUP2 ADD DUP4 ADD MLOAD DUP6 DUP3 ADD PUSH1 0x40 ADD MSTORE DUP3 ADD PUSH2 0x1DD0 JUMP JUMPDEST POP PUSH0 PUSH1 0x40 DUP3 DUP7 ADD ADD MSTORE PUSH1 0x40 PUSH1 0x1F NOT PUSH1 0x1F DUP4 ADD AND DUP6 ADD ADD SWAP3 POP POP POP SWAP3 SWAP2 POP POP JUMP JUMPDEST PUSH1 0x1 PUSH1 0x1 PUSH1 0xA0 SHL SUB DUP2 AND DUP2 EQ PUSH2 0xFF1 JUMPI PUSH0 DUP1 REVERT JUMPDEST DUP1 CALLDATALOAD PUSH2 0x1E2B DUP2 PUSH2 0x1E0C JUMP JUMPDEST SWAP2 SWAP1 POP JUMP JUMPDEST PUSH0 DUP1 PUSH1 0x40 DUP4 DUP6 SUB SLT ISZERO PUSH2 0x1E41 JUMPI PUSH0 DUP1 REVERT JUMPDEST DUP3 CALLDATALOAD PUSH2 0x1E4C DUP2 PUSH2 0x1E0C JUMP JUMPDEST SWAP5 PUSH1 0x20 SWAP4 SWAP1 SWAP4 ADD CALLDATALOAD SWAP4 POP POP POP JUMP JUMPDEST DUP1 ISZERO ISZERO DUP2 EQ PUSH2 0xFF1 JUMPI PUSH0 DUP1 REVERT JUMPDEST PUSH0 PUSH1 0x20 DUP3 DUP5 SUB SLT ISZERO PUSH2 0x1E77 JUMPI PUSH0 DUP1 REVERT JUMPDEST DUP2 CALLDATALOAD PUSH2 0x1E82 DUP2 PUSH2 0x1E5A JUMP JUMPDEST SWAP4 SWAP3 POP POP POP JUMP JUMPDEST PUSH4 0x4E487B71 PUSH1 0xE0 SHL PUSH0 MSTORE PUSH1 0x41 PUSH1 0x4 MSTORE PUSH1 0x24 PUSH0 REVERT JUMPDEST PUSH0 DUP3 PUSH1 0x1F DUP4 ADD SLT PUSH2 0x1EAC JUMPI PUSH0 DUP1 REVERT JUMPDEST DUP2 CALLDATALOAD PUSH1 0x20 PUSH8 0xFFFFFFFFFFFFFFFF DUP1 DUP4 GT ISZERO PUSH2 0x1EC9 JUMPI PUSH2 0x1EC9 PUSH2 0x1E89 JUMP JUMPDEST DUP3 PUSH1 0x5 SHL PUSH1 0x40 MLOAD PUSH1 0x1F NOT PUSH1 0x3F DUP4 ADD AND DUP2 ADD DUP2 DUP2 LT DUP5 DUP3 GT OR ISZERO PUSH2 0x1EEE JUMPI PUSH2 0x1EEE PUSH2 0x1E89 JUMP JUMPDEST PUSH1 0x40 MSTORE SWAP4 DUP5 MSTORE DUP6 DUP2 ADD DUP4 ADD SWAP4 DUP4 DUP2 ADD SWAP3 POP DUP8 DUP6 GT ISZERO PUSH2 0x1F0B JUMPI PUSH0 DUP1 REVERT JUMPDEST DUP4 DUP8 ADD SWAP2 POP JUMPDEST DUP5 DUP3 LT ISZERO PUSH2 0x1F31 JUMPI PUSH2 0x1F22 DUP3 PUSH2 0x1E20 JUMP JUMPDEST DUP4 MSTORE SWAP2 DUP4 ADD SWAP2 SWAP1 DUP4 ADD SWAP1 PUSH2 0x1F11 JUMP JUMPDEST SWAP8 SWAP7 POP POP POP POP POP POP POP JUMP JUMPDEST PUSH0 DUP1 PUSH1 0x40 DUP4 DUP6 SUB SLT ISZERO PUSH2 0x1F4D JUMPI PUSH0 DUP1 REVERT JUMPDEST DUP3 CALLDATALOAD PUSH8 0xFFFFFFFFFFFFFFFF DUP2 GT ISZERO PUSH2 0x1F63 JUMPI PUSH0 DUP1 REVERT JUMPDEST PUSH2 0x1F6F DUP6 DUP3 DUP7 ADD PUSH2 0x1E9D JUMP JUMPDEST SWAP3 POP POP PUSH1 0x20 DUP4 ADD CALLDATALOAD PUSH2 0x1F80 DUP2 PUSH2 0x1E5A JUMP JUMPDEST DUP1 SWAP2 POP POP SWAP3 POP SWAP3 SWAP1 POP JUMP JUMPDEST PUSH0 DUP1 PUSH0 PUSH1 0x60 DUP5 DUP7 SUB SLT ISZERO PUSH2 0x1F9D JUMPI PUSH0 DUP1 REVERT JUMPDEST DUP4 CALLDATALOAD PUSH2 0x1FA8 DUP2 PUSH2 0x1E0C JUMP JUMPDEST SWAP3 POP PUSH1 0x20 DUP5 ADD CALLDATALOAD PUSH2 0x1FB8 DUP2 PUSH2 0x1E0C JUMP JUMPDEST SWAP3 SWAP6 SWAP3 SWAP5 POP POP POP PUSH1 0x40 SWAP2 SWAP1 SWAP2 ADD CALLDATALOAD SWAP1 JUMP JUMPDEST PUSH0 PUSH1 0x20 DUP3 DUP5 SUB SLT ISZERO PUSH2 0x1FD9 JUMPI PUSH0 DUP1 REVERT JUMPDEST DUP2 CALLDATALOAD PUSH8 0xFFFFFFFFFFFFFFFF DUP2 GT ISZERO PUSH2 0x1FEF JUMPI PUSH0 DUP1 REVERT JUMPDEST PUSH2 0x1FFB DUP5 DUP3 DUP6 ADD PUSH2 0x1E9D JUMP JUMPDEST SWAP5 SWAP4 POP POP POP POP JUMP JUMPDEST PUSH0 PUSH1 0x20 DUP3 DUP5 SUB SLT ISZERO PUSH2 0x2013 JUMPI PUSH0 DUP1 REVERT JUMPDEST POP CALLDATALOAD SWAP2 SWAP1 POP JUMP JUMPDEST PUSH0 PUSH1 0x20 DUP3 DUP5 SUB SLT ISZERO PUSH2 0x202A JUMPI PUSH0 DUP1 REVERT JUMPDEST DUP2 CALLDATALOAD PUSH2 0x1E82 DUP2 PUSH2 0x1E0C JUMP JUMPDEST PUSH0 DUP1 PUSH1 0x40 DUP4 DUP6 SUB SLT ISZERO PUSH2 0x2046 JUMPI PUSH0 DUP1 REVERT JUMPDEST DUP3 CALLDATALOAD PUSH2 0x2051 DUP2 PUSH2 0x1E0C JUMP JUMPDEST SWAP2 POP PUSH1 0x20 DUP4 ADD CALLDATALOAD PUSH2 0x1F80 DUP2 PUSH2 0x1E5A JUMP JUMPDEST PUSH0 DUP1 PUSH1 0x40 DUP4 DUP6 SUB SLT ISZERO PUSH2 0x2072 JUMPI PUSH0 DUP1 REVERT JUMPDEST POP POP DUP1 CALLDATALOAD SWAP3 PUSH1 0x20 SWAP1 SWAP2 ADD CALLDATALOAD SWAP2 POP JUMP JUMPDEST PUSH0 DUP1 PUSH1 0x40 DUP4 DUP6 SUB SLT ISZERO PUSH2 0x2092 JUMPI PUSH0 DUP1 REVERT JUMPDEST DUP3 CALLDATALOAD PUSH2 0x209D DUP2 PUSH2 0x1E0C JUMP JUMPDEST SWAP2 POP PUSH1 0x20 DUP4 ADD CALLDATALOAD PUSH2 0x1F80 DUP2 PUSH2 0x1E0C JUMP JUMPDEST PUSH1 0x1 DUP2 DUP2 SHR SWAP1 DUP3 AND DUP1 PUSH2 0x20C1 JUMPI PUSH1 0x7F DUP3 AND SWAP2 POP JUMPDEST PUSH1 0x20 DUP3 LT DUP2 SUB PUSH2 0x20DF JUMPI PUSH4 0x4E487B71 PUSH1 0xE0 SHL PUSH0 MSTORE PUSH1 0x22 PUSH1 0x4 MSTORE PUSH1 0x24 PUSH0 REVERT JUMPDEST POP SWAP2 SWAP1 POP JUMP JUMPDEST PUSH1 0x20 DUP1 DUP3 MSTORE DUP2 DUP2 ADD MSTORE PUSH32 0x4F776E61626C653A2063616C6C6572206973206E6F7420746865206F776E6572 PUSH1 0x40 DUP3 ADD MSTORE PUSH1 0x60 ADD SWAP1 JUMP JUMPDEST PUSH4 0x4E487B71 PUSH1 0xE0 SHL PUSH0 MSTORE PUSH1 0x32 PUSH1 0x4 MSTORE PUSH1 0x24 PUSH0 REVERT JUMPDEST PUSH4 0x4E487B71 PUSH1 0xE0 SHL PUSH0 MSTORE PUSH1 0x11 PUSH1 0x4 MSTORE PUSH1 0x24 PUSH0 REVERT JUMPDEST PUSH0 PUSH1 0x1 DUP3 ADD PUSH2 0x2153 JUMPI PUSH2 0x2153 PUSH2 0x212E JUMP JUMPDEST POP PUSH1 0x1 ADD SWAP1 JUMP JUMPDEST DUP2 DUP2 SUB DUP2 DUP2 GT ISZERO PUSH2 0x7B3 JUMPI PUSH2 0x7B3 PUSH2 0x212E JUMP JUMPDEST DUP1 DUP3 ADD DUP1 DUP3 GT ISZERO PUSH2 0x7B3 JUMPI PUSH2 0x7B3 PUSH2 0x212E JUMP JUMPDEST PUSH1 0x1 DUP2 DUP2 JUMPDEST DUP1 DUP6 GT ISZERO PUSH2 0x21BA JUMPI DUP2 PUSH0 NOT DIV DUP3 GT ISZERO PUSH2 0x21A0 JUMPI PUSH2 0x21A0 PUSH2 0x212E JUMP JUMPDEST DUP1 DUP6 AND ISZERO PUSH2 0x21AD JUMPI SWAP2 DUP2 MUL SWAP2 JUMPDEST SWAP4 DUP5 SHR SWAP4 SWAP1 DUP1 MUL SWAP1 PUSH2 0x2185 JUMP JUMPDEST POP SWAP3 POP SWAP3 SWAP1 POP JUMP JUMPDEST PUSH0 DUP3 PUSH2 0x21D0 JUMPI POP PUSH1 0x1 PUSH2 0x7B3 JUMP JUMPDEST DUP2 PUSH2 0x21DC JUMPI POP PUSH0 PUSH2 0x7B3 JUMP JUMPDEST DUP2 PUSH1 0x1 DUP2 EQ PUSH2 0x21F2 JUMPI PUSH1 0x2 DUP2 EQ PUSH2 0x21FC JUMPI PUSH2 0x2218 JUMP JUMPDEST PUSH1 0x1 SWAP2 POP POP PUSH2 0x7B3 JUMP JUMPDEST PUSH1 0xFF DUP5 GT ISZERO PUSH2 0x220D JUMPI PUSH2 0x220D PUSH2 0x212E JUMP JUMPDEST POP POP PUSH1 0x1 DUP3 SHL PUSH2 0x7B3 JUMP JUMPDEST POP PUSH1 0x20 DUP4 LT PUSH2 0x133 DUP4 LT AND PUSH1 0x4E DUP5 LT PUSH1 0xB DUP5 LT AND OR ISZERO PUSH2 0x223B JUMPI POP DUP2 DUP2 EXP PUSH2 0x7B3 JUMP JUMPDEST PUSH2 0x2245 DUP4 DUP4 PUSH2 0x2180 JUMP JUMPDEST DUP1 PUSH0 NOT DIV DUP3 GT ISZERO PUSH2 0x2258 JUMPI PUSH2 0x2258 PUSH2 0x212E JUMP JUMPDEST MUL SWAP4 SWAP3 POP POP POP JUMP JUMPDEST PUSH0 PUSH2 0x1E82 PUSH1 0xFF DUP5 AND DUP4 PUSH2 0x21C2 JUMP JUMPDEST DUP1 DUP3 MUL DUP2 ISZERO DUP3 DUP3 DIV DUP5 EQ OR PUSH2 0x7B3 JUMPI PUSH2 0x7B3 PUSH2 0x212E JUMP JUMPDEST PUSH0 PUSH1 0x20 DUP3 DUP5 SUB SLT ISZERO PUSH2 0x2295 JUMPI PUSH0 DUP1 REVERT JUMPDEST DUP2 MLOAD PUSH2 0x1E82 DUP2 PUSH2 0x1E5A JUMP JUMPDEST PUSH0 DUP3 PUSH2 0x22BA JUMPI PUSH4 0x4E487B71 PUSH1 0xE0 SHL PUSH0 MSTORE PUSH1 0x12 PUSH1 0x4 MSTORE PUSH1 0x24 PUSH0 REVERT JUMPDEST POP DIV SWAP1 JUMP JUMPDEST PUSH0 PUSH1 0x20 DUP3 DUP5 SUB SLT ISZERO PUSH2 0x22CF JUMPI PUSH0 DUP1 REVERT JUMPDEST DUP2 MLOAD PUSH2 0x1E82 DUP2 PUSH2 0x1E0C JUMP JUMPDEST PUSH0 PUSH1 0xA0 DUP3 ADD DUP8 DUP4 MSTORE PUSH1 0x20 DUP8 DUP2 DUP6 ADD MSTORE PUSH1 0xA0 PUSH1 0x40 DUP6 ADD MSTORE DUP2 DUP8 MLOAD DUP1 DUP5 MSTORE PUSH1 0xC0 DUP7 ADD SWAP2 POP DUP3 DUP10 ADD SWAP4 POP PUSH0 JUMPDEST DUP2 DUP2 LT ISZERO PUSH2 0x2328 JUMPI DUP5 MLOAD PUSH1 0x1 PUSH1 0x1 PUSH1 0xA0 SHL SUB AND DUP4 MSTORE SWAP4 DUP4 ADD SWAP4 SWAP2 DUP4 ADD SWAP2 PUSH1 0x1 ADD PUSH2 0x2303 JUMP JUMPDEST POP POP PUSH1 0x1 PUSH1 0x1 PUSH1 0xA0 SHL SUB SWAP7 SWAP1 SWAP7 AND PUSH1 0x60 DUP6 ADD MSTORE POP POP POP PUSH1 0x80 ADD MSTORE SWAP4 SWAP3 POP POP POP JUMP JUMPDEST PUSH0 DUP1 PUSH0 PUSH1 0x60 DUP5 DUP7 SUB SLT ISZERO PUSH2 0x235B JUMPI PUSH0 DUP1 REVERT JUMPDEST DUP4 MLOAD SWAP3 POP PUSH1 0x20 DUP5 ADD MLOAD SWAP2 POP PUSH1 0x40 DUP5 ADD MLOAD SWAP1 POP SWAP3 POP SWAP3 POP SWAP3 JUMP INVALID LOG2 PUSH5 0x6970667358 0x22 SLT KECCAK256 PUSH13 0xC70FA3DDC6FD0EBAF55F14CE87 0xE 0xEC 0xC 0x4E 0xE 0xE1 SWAP1 XOR 0xBF PUSH26 0x5934BF8DD31E8C9764736F6C6343000815003300000000000000 "
				},
				"gasEstimates": {
					"creation": {
						"codeDepositCost": "1826000",
						"executionCost": "infinite",
						"totalCost": "infinite"
					},
					"external": {
						"AddExemptFee(address)": "26853",
						"AddbulkExemptFee(address[])": "infinite",
						"RemoveExemptFee(address)": "26846",
						"RemovebulkExemptFee(address[])": "infinite",
						"SetSellTaxes(uint256,uint256)": "46723",
						"UpdateBuyTaxes(uint256,uint256)": "46746",
						"allowance(address,address)": "infinite",
						"approve(address,uint256)": "24656",
						"balanceOf(address)": "2576",
						"bulkIsEarlyBuyer(address[],bool)": "infinite",
						"deadWallet()": "261",
						"decimals()": "288",
						"decreaseAllowance(address,uint256)": "27033",
						"enableTrading()": "50835",
						"exemptFee(address)": "2589",
						"increaseAllowance(address,uint256)": "infinite",
						"maxWalletLimit()": "2428",
						"name()": "infinite",
						"owner()": "2442",
						"pair()": "2447",
						"renounceOwnership()": "28181",
						"rescueERC20(address,uint256)": "infinite",
						"rescueETH(uint256)": "infinite",
						"router()": "2468",
						"sellTaxes()": "4537",
						"symbol()": "infinite",
						"taxes()": "4516",
						"totalSupply()": "2393",
						"tradingEnabled()": "2416",
						"transfer(address,uint256)": "infinite",
						"transferFrom(address,address,uint256)": "infinite",
						"transferOwnership(address)": "infinite",
						"updateIsEarlyBuyer(address,bool)": "infinite",
						"updateLiquidityProvide(bool)": "26778",
						"updateLiquidityTreshhold(uint256)": "infinite",
						"updateMarketingWallet(address)": "26748",
						"updateMaxWalletLimit(uint256)": "infinite",
						"updatedeadline(uint256)": "26738"
					},
					"internal": {
						"_transfer(address,address,uint256)": "infinite",
						"addLiquidity(uint256,uint256)": "infinite",
						"handle_fees(uint256,struct BabyShibaInu.Taxes memory)": "infinite",
						"swapTokensForETH(uint256)": "infinite"
					}
				},
				"methodIdentifiers": {
					"AddExemptFee(address)": "5dbdb7e3",
					"AddbulkExemptFee(address[])": "f570d4de",
					"RemoveExemptFee(address)": "832c2bd2",
					"RemovebulkExemptFee(address[])": "251ef095",
					"SetSellTaxes(uint256,uint256)": "f52be97c",
					"UpdateBuyTaxes(uint256,uint256)": "d695609b",
					"allowance(address,address)": "dd62ed3e",
					"approve(address,uint256)": "095ea7b3",
					"balanceOf(address)": "70a08231",
					"bulkIsEarlyBuyer(address[],bool)": "215d92a6",
					"deadWallet()": "85141a77",
					"decimals()": "313ce567",
					"decreaseAllowance(address,uint256)": "a457c2d7",
					"enableTrading()": "8a8c523c",
					"exemptFee(address)": "c5d32bb2",
					"increaseAllowance(address,uint256)": "39509351",
					"maxWalletLimit()": "66a88d96",
					"name()": "06fdde03",
					"owner()": "8da5cb5b",
					"pair()": "a8aa1b31",
					"renounceOwnership()": "715018a6",
					"rescueERC20(address,uint256)": "8cd4426d",
					"rescueETH(uint256)": "9e252f00",
					"router()": "f887ea40",
					"sellTaxes()": "f66895a3",
					"symbol()": "95d89b41",
					"taxes()": "728f8eea",
					"totalSupply()": "18160ddd",
					"tradingEnabled()": "4ada218b",
					"transfer(address,uint256)": "a9059cbb",
					"transferFrom(address,address,uint256)": "23b872dd",
					"transferOwnership(address)": "f2fde38b",
					"updateIsEarlyBuyer(address,bool)": "8514022d",
					"updateLiquidityProvide(bool)": "1340538f",
					"updateLiquidityTreshhold(uint256)": "42b6fa11",
					"updateMarketingWallet(address)": "aacebbe3",
					"updateMaxWalletLimit(uint256)": "4324deae",
					"updatedeadline(uint256)": "edaa1168"
				}
			},
			"storageLayout": {
				"storage": [
					{
						"astId": 120,
						"contract": "contracts/babyshib.sol:BabyShibaInu",
						"label": "_balances",
						"offset": 0,
						"slot": "0",
						"type": "t_mapping(t_address,t_uint256)"
					},
					{
						"astId": 126,
						"contract": "contracts/babyshib.sol:BabyShibaInu",
						"label": "_allowances",
						"offset": 0,
						"slot": "1",
						"type": "t_mapping(t_address,t_mapping(t_address,t_uint256))"
					},
					{
						"astId": 128,
						"contract": "contracts/babyshib.sol:BabyShibaInu",
						"label": "_totalSupply",
						"offset": 0,
						"slot": "2",
						"type": "t_uint256"
					},
					{
						"astId": 130,
						"contract": "contracts/babyshib.sol:BabyShibaInu",
						"label": "_name",
						"offset": 0,
						"slot": "3",
						"type": "t_string_storage"
					},
					{
						"astId": 132,
						"contract": "contracts/babyshib.sol:BabyShibaInu",
						"label": "_symbol",
						"offset": 0,
						"slot": "4",
						"type": "t_string_storage"
					},
					{
						"astId": 571,
						"contract": "contracts/babyshib.sol:BabyShibaInu",
						"label": "_owner",
						"offset": 0,
						"slot": "5",
						"type": "t_address"
					},
					{
						"astId": 728,
						"contract": "contracts/babyshib.sol:BabyShibaInu",
						"label": "router",
						"offset": 0,
						"slot": "6",
						"type": "t_contract(IRouter)718"
					},
					{
						"astId": 730,
						"contract": "contracts/babyshib.sol:BabyShibaInu",
						"label": "pair",
						"offset": 0,
						"slot": "7",
						"type": "t_address"
					},
					{
						"astId": 733,
						"contract": "contracts/babyshib.sol:BabyShibaInu",
						"label": "_liquidityMutex",
						"offset": 20,
						"slot": "7",
						"type": "t_bool"
					},
					{
						"astId": 736,
						"contract": "contracts/babyshib.sol:BabyShibaInu",
						"label": "providingLiquidity",
						"offset": 21,
						"slot": "7",
						"type": "t_bool"
					},
					{
						"astId": 739,
						"contract": "contracts/babyshib.sol:BabyShibaInu",
						"label": "tradingEnabled",
						"offset": 22,
						"slot": "7",
						"type": "t_bool"
					},
					{
						"astId": 746,
						"contract": "contracts/babyshib.sol:BabyShibaInu",
						"label": "tokenLiquidityThreshold",
						"offset": 0,
						"slot": "8",
						"type": "t_uint256"
					},
					{
						"astId": 753,
						"contract": "contracts/babyshib.sol:BabyShibaInu",
						"label": "maxWalletLimit",
						"offset": 0,
						"slot": "9",
						"type": "t_uint256"
					},
					{
						"astId": 755,
						"contract": "contracts/babyshib.sol:BabyShibaInu",
						"label": "genesis_block",
						"offset": 0,
						"slot": "10",
						"type": "t_uint256"
					},
					{
						"astId": 758,
						"contract": "contracts/babyshib.sol:BabyShibaInu",
						"label": "deadline",
						"offset": 0,
						"slot": "11",
						"type": "t_uint256"
					},
					{
						"astId": 761,
						"contract": "contracts/babyshib.sol:BabyShibaInu",
						"label": "launchtax",
						"offset": 0,
						"slot": "12",
						"type": "t_uint256"
					},
					{
						"astId": 764,
						"contract": "contracts/babyshib.sol:BabyShibaInu",
						"label": "marketingWallet",
						"offset": 0,
						"slot": "13",
						"type": "t_address"
					},
					{
						"astId": 779,
						"contract": "contracts/babyshib.sol:BabyShibaInu",
						"label": "taxes",
						"offset": 0,
						"slot": "14",
						"type": "t_struct(Taxes)772_storage"
					},
					{
						"astId": 786,
						"contract": "contracts/babyshib.sol:BabyShibaInu",
						"label": "sellTaxes",
						"offset": 0,
						"slot": "16",
						"type": "t_struct(Taxes)772_storage"
					},
					{
						"astId": 790,
						"contract": "contracts/babyshib.sol:BabyShibaInu",
						"label": "exemptFee",
						"offset": 0,
						"slot": "18",
						"type": "t_mapping(t_address,t_bool)"
					},
					{
						"astId": 794,
						"contract": "contracts/babyshib.sol:BabyShibaInu",
						"label": "isearlybuyer",
						"offset": 0,
						"slot": "19",
						"type": "t_mapping(t_address,t_bool)"
					}
				],
				"types": {
					"t_address": {
						"encoding": "inplace",
						"label": "address",
						"numberOfBytes": "20"
					},
					"t_bool": {
						"encoding": "inplace",
						"label": "bool",
						"numberOfBytes": "1"
					},
					"t_contract(IRouter)718": {
						"encoding": "inplace",
						"label": "contract IRouter",
						"numberOfBytes": "20"
					},
					"t_mapping(t_address,t_bool)": {
						"encoding": "mapping",
						"key": "t_address",
						"label": "mapping(address => bool)",
						"numberOfBytes": "32",
						"value": "t_bool"
					},
					"t_mapping(t_address,t_mapping(t_address,t_uint256))": {
						"encoding": "mapping",
						"key": "t_address",
						"label": "mapping(address => mapping(address => uint256))",
						"numberOfBytes": "32",
						"value": "t_mapping(t_address,t_uint256)"
					},
					"t_mapping(t_address,t_uint256)": {
						"encoding": "mapping",
						"key": "t_address",
						"label": "mapping(address => uint256)",
						"numberOfBytes": "32",
						"value": "t_uint256"
					},
					"t_string_storage": {
						"encoding": "bytes",
						"label": "string",
						"numberOfBytes": "32"
					},
					"t_struct(Taxes)772_storage": {
						"encoding": "inplace",
						"label": "struct BabyShibaInu.Taxes",
						"members": [
							{
								"astId": 769,
								"contract": "contracts/babyshib.sol:BabyShibaInu",
								"label": "marketing",
								"offset": 0,
								"slot": "0",
								"type": "t_uint256"
							},
							{
								"astId": 771,
								"contract": "contracts/babyshib.sol:BabyShibaInu",
								"label": "liquidity",
								"offset": 0,
								"slot": "1",
								"type": "t_uint256"
							}
						],
						"numberOfBytes": "64"
					},
					"t_uint256": {
						"encoding": "inplace",
						"label": "uint256",
						"numberOfBytes": "32"
					}
				}
			},
			"userdoc": {
				"kind": "user",
				"methods": {},
				"version": 1
			}
		}
	}
}