{
	"contracts/brosniper.sol": {
		"PancakeSwapSniper": {
			"abi": [
				{
					"inputs": [],
					"stateMutability": "nonpayable",
					"type": "constructor"
				},
				{
					"inputs": [
						{
							"internalType": "address",
							"name": "_targetTokenAddress",
							"type": "address"
						}
					],
					"name": "setTargetTokenAddress",
					"outputs": [],
					"stateMutability": "nonpayable",
					"type": "function"
				},
				{
					"inputs": [],
					"name": "swapBNBForToken",
					"outputs": [],
					"stateMutability": "payable",
					"type": "function"
				},
				{
					"inputs": [],
					"name": "withdrawBNB",
					"outputs": [],
					"stateMutability": "nonpayable",
					"type": "function"
				},
				{
					"stateMutability": "payable",
					"type": "receive"
				}
			],
			"devdoc": {
				"kind": "dev",
				"methods": {},
				"version": 1
			},
			"evm": {
				"assembly": "    /* \"contracts/brosniper.sol\":575:3345  contract PancakeSwapSniper {\r... */\n  mstore(0x40, 0x80)\n    /* \"contracts/brosniper.sol\":1140:1228  constructor() {\r... */\n  callvalue\n  dup1\n  iszero\n  tag_1\n  jumpi\n  0x00\n  dup1\n  revert\ntag_1:\n  pop\n    /* \"contracts/brosniper.sol\":1165:1171  router */\n  0x01\n    /* \"contracts/brosniper.sol\":1165:1220  router = IPancakeSwapRouter(PANCAKESWAP_ROUTER_ADDRESS) */\n  dup1\n  sload\n  not(sub(shl(0xa0, 0x01), 0x01))\n  and\n    /* \"contracts/brosniper.sol\":663:705  0x10ED43C718714eb63d5aA57B78B54704E256024E */\n  0x10ed43c718714eb63d5aa57b78b54704e256024e\n    /* \"contracts/brosniper.sol\":1165:1220  router = IPancakeSwapRouter(PANCAKESWAP_ROUTER_ADDRESS) */\n  or\n  swap1\n  sstore\n    /* \"contracts/brosniper.sol\":575:3345  contract PancakeSwapSniper {\r... */\n  dataSize(sub_0)\n  dup1\n  dataOffset(sub_0)\n  0x00\n  codecopy\n  0x00\n  return\nstop\n\nsub_0: assembly {\n        /* \"contracts/brosniper.sol\":575:3345  contract PancakeSwapSniper {\r... */\n      mstore(0x40, 0x80)\n      jumpi(tag_1, lt(calldatasize, 0x04))\n      shr(0xe0, calldataload(0x00))\n      dup1\n      0x1d111d13\n      eq\n      tag_3\n      jumpi\n      dup1\n      0x387da661\n      eq\n      tag_4\n      jumpi\n      dup1\n      0x7a0e335c\n      eq\n      tag_5\n      jumpi\n      jump(tag_2)\n    tag_1:\n      jumpi(tag_2, calldatasize)\n      stop\n    tag_2:\n      0x00\n      dup1\n      revert\n        /* \"contracts/brosniper.sol\":3137:3342  function withdrawBNB() external {\r... */\n    tag_3:\n      callvalue\n      dup1\n      iszero\n      tag_8\n      jumpi\n      0x00\n      dup1\n      revert\n    tag_8:\n      pop\n      tag_9\n      tag_10\n      jump\t// in\n    tag_9:\n      stop\n        /* \"contracts/brosniper.sol\":1582:2501  function swapBNBForToken() external payable {\r... */\n    tag_4:\n      tag_9\n      tag_12\n      jump\t// in\n        /* \"contracts/brosniper.sol\":1273:1574  function setTargetTokenAddress(address _targetTokenAddress) external {\r... */\n    tag_5:\n      callvalue\n      dup1\n      iszero\n      tag_13\n      jumpi\n      0x00\n      dup1\n      revert\n    tag_13:\n      pop\n      tag_9\n      tag_15\n      calldatasize\n      0x04\n      tag_16\n      jump\t// in\n    tag_15:\n      tag_17\n      jump\t// in\n        /* \"contracts/brosniper.sol\":3137:3342  function withdrawBNB() external {\r... */\n    tag_10:\n        /* \"contracts/brosniper.sol\":3248:3282  msg.sender.call{value: amount}(\"\") */\n      mload(0x40)\n        /* \"contracts/brosniper.sol\":3197:3218  address(this).balance */\n      selfbalance\n      swap1\n        /* \"contracts/brosniper.sol\":3180:3194  uint256 amount */\n      0x00\n      swap1\n        /* \"contracts/brosniper.sol\":3248:3258  msg.sender */\n      caller\n      swap1\n        /* \"contracts/brosniper.sol\":3197:3218  address(this).balance */\n      dup4\n      swap1\n        /* \"contracts/brosniper.sol\":3248:3282  msg.sender.call{value: amount}(\"\") */\n      tag_19\n      swap1\n      tag_20\n      jump\t// in\n    tag_19:\n      0x00\n      mload(0x40)\n      dup1\n      dup4\n      sub\n      dup2\n      dup6\n      dup8\n      gas\n      call\n      swap3\n      pop\n      pop\n      pop\n      returndatasize\n      dup1\n      0x00\n      dup2\n      eq\n      tag_23\n      jumpi\n      mload(0x40)\n      swap2\n      pop\n      and(add(returndatasize, 0x3f), not(0x1f))\n      dup3\n      add\n      0x40\n      mstore\n      returndatasize\n      dup3\n      mstore\n      returndatasize\n      0x00\n      0x20\n      dup5\n      add\n      returndatacopy\n      jump(tag_22)\n    tag_23:\n      0x60\n      swap2\n      pop\n    tag_22:\n      pop\n        /* \"contracts/brosniper.sol\":3229:3282  (bool success, ) = msg.sender.call{value: amount}(\"\") */\n      pop\n      swap1\n      pop\n        /* \"contracts/brosniper.sol\":3301:3308  success */\n      dup1\n        /* \"contracts/brosniper.sol\":3293:3334  require(success, \"BNB withdrawal failed\") */\n      tag_24\n      jumpi\n      mload(0x40)\n      shl(0xe5, 0x461bcd)\n      dup2\n      mstore\n      0x04\n      add\n      tag_25\n      swap1\n      tag_26\n      jump\t// in\n    tag_25:\n      mload(0x40)\n      dup1\n      swap2\n      sub\n      swap1\n      revert\n    tag_24:\n        /* \"contracts/brosniper.sol\":3137:3342  function withdrawBNB() external {\r... */\n      pop\n      pop\n      jump\t// out\n        /* \"contracts/brosniper.sol\":1582:2501  function swapBNBForToken() external payable {\r... */\n    tag_12:\n        /* \"contracts/brosniper.sol\":1677:1678  0 */\n      0x00\n        /* \"contracts/brosniper.sol\":1645:1665  TARGET_TOKEN_ADDRESS */\n      sload\n      sub(shl(0xa0, 0x01), 0x01)\n      and\n        /* \"contracts/brosniper.sol\":1637:1712  require(TARGET_TOKEN_ADDRESS != address(0), \"Target token address not set\") */\n      tag_28\n      jumpi\n      mload(0x40)\n      shl(0xe5, 0x461bcd)\n      dup2\n      mstore\n      0x04\n      add\n      tag_25\n      swap1\n      tag_30\n      jump\t// in\n    tag_28:\n        /* \"contracts/brosniper.sol\":1749:1765  new address[](2) */\n      0x40\n      dup1\n      mload\n        /* \"contracts/brosniper.sol\":1763:1764  2 */\n      0x02\n        /* \"contracts/brosniper.sol\":1749:1765  new address[](2) */\n      dup1\n      dup3\n      mstore\n      0x60\n      dup3\n      add\n      dup4\n      mstore\n        /* \"contracts/brosniper.sol\":1725:1746  address[] memory path */\n      0x00\n      swap3\n        /* \"contracts/brosniper.sol\":1749:1765  new address[](2) */\n      0x20\n      dup4\n      add\n      swap1\n      dup1\n      calldatasize\n      dup4\n      calldatacopy\n      add\n      swap1\n      pop\n      pop\n        /* \"contracts/brosniper.sol\":1725:1765  address[] memory path = new address[](2) */\n      swap1\n      pop\n        /* \"contracts/brosniper.sol\":885:927  0xbb4CdB9CBd36B01bD1cBaEBF2De08d9173bc095c */\n      0xbb4cdb9cbd36b01bd1cbaebf2de08d9173bc095c\n        /* \"contracts/brosniper.sol\":1776:1780  path */\n      dup2\n        /* \"contracts/brosniper.sol\":1781:1782  0 */\n      0x00\n        /* \"contracts/brosniper.sol\":1776:1783  path[0] */\n      dup2\n      mload\n      dup2\n      lt\n      tag_33\n      jumpi\n      mstore(0x00, shl(0xe0, 0x4e487b71))\n      mstore(0x04, 0x32)\n      revert(0x00, 0x24)\n    tag_33:\n      sub(shl(0xa0, 0x01), 0x01)\n        /* \"contracts/brosniper.sol\":1776:1798  path[0] = WBNB_ADDRESS */\n      swap3\n      dup4\n      and\n        /* \"contracts/brosniper.sol\":1776:1783  path[0] */\n      0x20\n      swap2\n      dup3\n      mul\n      swap3\n      swap1\n      swap3\n      add\n      add\n        /* \"contracts/brosniper.sol\":1776:1798  path[0] = WBNB_ADDRESS */\n      mstore\n        /* \"contracts/brosniper.sol\":1819:1839  TARGET_TOKEN_ADDRESS */\n      sload(0x00)\n        /* \"contracts/brosniper.sol\":1809:1816  path[1] */\n      dup3\n      mload\n        /* \"contracts/brosniper.sol\":1819:1839  TARGET_TOKEN_ADDRESS */\n      swap2\n      and\n      swap1\n        /* \"contracts/brosniper.sol\":1809:1813  path */\n      dup3\n      swap1\n        /* \"contracts/brosniper.sol\":1819:1839  TARGET_TOKEN_ADDRESS */\n      0x01\n      swap1\n        /* \"contracts/brosniper.sol\":1809:1816  path[1] */\n      dup2\n      lt\n      tag_34\n      jumpi\n      mstore(0x00, shl(0xe0, 0x4e487b71))\n      mstore(0x04, 0x32)\n      revert(0x00, 0x24)\n    tag_34:\n      sub(shl(0xa0, 0x01), 0x01)\n        /* \"contracts/brosniper.sol\":1809:1839  path[1] = TARGET_TOKEN_ADDRESS */\n      swap1\n      swap3\n      and\n        /* \"contracts/brosniper.sol\":1809:1816  path[1] */\n      0x20\n      swap3\n      dup4\n      mul\n      swap2\n      swap1\n      swap2\n      add\n      swap1\n      swap2\n      add\n        /* \"contracts/brosniper.sol\":1809:1839  path[1] = TARGET_TOKEN_ADDRESS */\n      mstore\n        /* \"contracts/brosniper.sol\":1852:1872  uint256 amountOutMin */\n      0x00\n      dup1\n        /* \"contracts/brosniper.sol\":1963:1984  block.timestamp + 300 */\n      tag_35\n        /* \"contracts/brosniper.sol\":1963:1978  block.timestamp */\n      timestamp\n        /* \"contracts/brosniper.sol\":1981:1984  300 */\n      0x012c\n        /* \"contracts/brosniper.sol\":1963:1984  block.timestamp + 300 */\n      tag_36\n      jump\t// in\n    tag_35:\n        /* \"contracts/brosniper.sol\":2046:2052  router */\n      sload(0x01)\n        /* \"contracts/brosniper.sol\":2046:2137  router.swapExactETHForTokens{value: msg.value}(amountOutMin, path, address(this), deadline) */\n      mload(0x40)\n      shl(0xe0, 0x7ff36ab5)\n      dup2\n      mstore\n        /* \"contracts/brosniper.sol\":1944:1984  uint256 deadline = block.timestamp + 300 */\n      swap2\n      swap3\n      pop\n      sub(shl(0xa0, 0x01), 0x01)\n        /* \"contracts/brosniper.sol\":2046:2052  router */\n      and\n      swap1\n        /* \"contracts/brosniper.sol\":2046:2074  router.swapExactETHForTokens */\n      0x7ff36ab5\n      swap1\n        /* \"contracts/brosniper.sol\":2082:2091  msg.value */\n      callvalue\n      swap1\n        /* \"contracts/brosniper.sol\":2046:2137  router.swapExactETHForTokens{value: msg.value}(amountOutMin, path, address(this), deadline) */\n      tag_37\n      swap1\n        /* \"contracts/brosniper.sol\":2093:2105  amountOutMin */\n      dup7\n      swap1\n        /* \"contracts/brosniper.sol\":2107:2111  path */\n      dup9\n      swap1\n        /* \"contracts/brosniper.sol\":2121:2125  this */\n      address\n      swap1\n        /* \"contracts/brosniper.sol\":1944:1984  uint256 deadline = block.timestamp + 300 */\n      dup9\n      swap1\n        /* \"contracts/brosniper.sol\":2046:2137  router.swapExactETHForTokens{value: msg.value}(amountOutMin, path, address(this), deadline) */\n      0x04\n      add\n      tag_38\n      jump\t// in\n    tag_37:\n      0x00\n      mload(0x40)\n      dup1\n      dup4\n      sub\n      dup2\n      dup6\n      dup9\n      dup1\n      extcodesize\n      iszero\n      dup1\n      iszero\n      tag_39\n      jumpi\n      0x00\n      dup1\n      revert\n    tag_39:\n      pop\n      gas\n      call\n      iszero\n      dup1\n      iszero\n      tag_41\n      jumpi\n      returndatasize\n      0x00\n      dup1\n      returndatacopy\n      revert(0x00, returndatasize)\n    tag_41:\n      pop\n      pop\n      pop\n      pop\n      pop\n      mload(0x40)\n      returndatasize\n      0x00\n      dup3\n      returndatacopy\n      0x1f\n      returndatasize\n      swap1\n      dup2\n      add\n      not(0x1f)\n      and\n      dup3\n      add\n      0x40\n      mstore\n      tag_42\n      swap2\n      swap1\n      dup2\n      add\n      swap1\n      tag_43\n      jump\t// in\n    tag_42:\n      pop\n        /* \"contracts/brosniper.sol\":2199:2219  initialBNBInvestment */\n      sload(0x02)\n        /* \"contracts/brosniper.sol\":2195:2285  if (initialBNBInvestment == 0) {\r... */\n      tag_44\n      jumpi\n        /* \"contracts/brosniper.sol\":2264:2273  msg.value */\n      callvalue\n        /* \"contracts/brosniper.sol\":2241:2261  initialBNBInvestment */\n      0x02\n        /* \"contracts/brosniper.sol\":2241:2273  initialBNBInvestment = msg.value */\n      sstore\n        /* \"contracts/brosniper.sol\":2195:2285  if (initialBNBInvestment == 0) {\r... */\n    tag_44:\n        /* \"contracts/brosniper.sol\":2396:2416  initialBNBInvestment */\n      sload(0x02)\n        /* \"contracts/brosniper.sol\":2396:2421  initialBNBInvestment * 10 */\n      tag_45\n      swap1\n        /* \"contracts/brosniper.sol\":2419:2421  10 */\n      0x0a\n        /* \"contracts/brosniper.sol\":2396:2421  initialBNBInvestment * 10 */\n      tag_46\n      jump\t// in\n    tag_45:\n        /* \"contracts/brosniper.sol\":2375:2392  getTokenBalance() */\n      tag_47\n        /* \"contracts/brosniper.sol\":2375:2390  getTokenBalance */\n      tag_48\n        /* \"contracts/brosniper.sol\":2375:2392  getTokenBalance() */\n      jump\t// in\n    tag_47:\n        /* \"contracts/brosniper.sol\":2375:2421  getTokenBalance() >= initialBNBInvestment * 10 */\n      lt\n        /* \"contracts/brosniper.sol\":2371:2494  if (getTokenBalance() >= initialBNBInvestment * 10) {\r... */\n      tag_49\n      jumpi\n        /* \"contracts/brosniper.sol\":2438:2456  sellTokensForBNB() */\n      tag_50\n        /* \"contracts/brosniper.sol\":2438:2454  sellTokensForBNB */\n      tag_51\n        /* \"contracts/brosniper.sol\":2438:2456  sellTokensForBNB() */\n      jump\t// in\n    tag_50:\n        /* \"contracts/brosniper.sol\":2471:2475  sold */\n      0x03\n        /* \"contracts/brosniper.sol\":2471:2482  sold = true */\n      dup1\n      sload\n      not(0xff)\n      and\n        /* \"contracts/brosniper.sol\":2478:2482  true */\n      0x01\n        /* \"contracts/brosniper.sol\":2471:2482  sold = true */\n      or\n      swap1\n      sstore\n        /* \"contracts/brosniper.sol\":2371:2494  if (getTokenBalance() >= initialBNBInvestment * 10) {\r... */\n    tag_49:\n        /* \"contracts/brosniper.sol\":1582:2501  function swapBNBForToken() external payable {\r... */\n      pop\n      pop\n      pop\n      jump\t// out\n        /* \"contracts/brosniper.sol\":1273:1574  function setTargetTokenAddress(address _targetTokenAddress) external {\r... */\n    tag_17:\n        /* \"contracts/brosniper.sol\":1474:1475  0 */\n      0x00\n        /* \"contracts/brosniper.sol\":1442:1462  TARGET_TOKEN_ADDRESS */\n      sload\n      sub(shl(0xa0, 0x01), 0x01)\n      and\n        /* \"contracts/brosniper.sol\":1442:1476  TARGET_TOKEN_ADDRESS == address(0) */\n      iszero\n        /* \"contracts/brosniper.sol\":1434:1513  require(TARGET_TOKEN_ADDRESS == address(0), \"Target token address already set\") */\n      tag_53\n      jumpi\n      mload(0x40)\n      shl(0xe5, 0x461bcd)\n      dup2\n      mstore\n      0x04\n      add\n      tag_25\n      swap1\n      tag_55\n      jump\t// in\n    tag_53:\n        /* \"contracts/brosniper.sol\":1524:1544  TARGET_TOKEN_ADDRESS */\n      0x00\n        /* \"contracts/brosniper.sol\":1524:1566  TARGET_TOKEN_ADDRESS = _targetTokenAddress */\n      dup1\n      sload\n      not(sub(shl(0xa0, 0x01), 0x01))\n      and\n      sub(shl(0xa0, 0x01), 0x01)\n      swap3\n      swap1\n      swap3\n      and\n      swap2\n      swap1\n      swap2\n      or\n      swap1\n      sstore\n        /* \"contracts/brosniper.sol\":1273:1574  function setTargetTokenAddress(address _targetTokenAddress) external {\r... */\n      jump\t// out\n        /* \"contracts/brosniper.sol\":2922:3129  function getTokenBalance() private view returns (uint256) {\r... */\n    tag_48:\n        /* \"contracts/brosniper.sol\":2971:2978  uint256 */\n      0x00\n        /* \"contracts/brosniper.sol\":3075:3095  TARGET_TOKEN_ADDRESS */\n      dup1\n      sload\n        /* \"contracts/brosniper.sol\":3068:3121  IERC20(TARGET_TOKEN_ADDRESS).balanceOf(address(this)) */\n      mload(0x40)\n      shl(0xe0, 0x70a08231)\n      dup2\n      mstore\n      sub(shl(0xa0, 0x01), 0x01)\n        /* \"contracts/brosniper.sol\":3075:3095  TARGET_TOKEN_ADDRESS */\n      swap1\n      swap2\n      and\n      swap1\n        /* \"contracts/brosniper.sol\":3068:3106  IERC20(TARGET_TOKEN_ADDRESS).balanceOf */\n      0x70a08231\n      swap1\n        /* \"contracts/brosniper.sol\":3068:3121  IERC20(TARGET_TOKEN_ADDRESS).balanceOf(address(this)) */\n      tag_57\n      swap1\n        /* \"contracts/brosniper.sol\":3115:3119  this */\n      address\n      swap1\n        /* \"contracts/brosniper.sol\":3068:3121  IERC20(TARGET_TOKEN_ADDRESS).balanceOf(address(this)) */\n      0x04\n      add\n      tag_58\n      jump\t// in\n    tag_57:\n      0x20\n      mload(0x40)\n      dup1\n      dup4\n      sub\n      dup2\n      dup7\n      dup1\n      extcodesize\n      iszero\n      dup1\n      iszero\n      tag_59\n      jumpi\n      0x00\n      dup1\n      revert\n    tag_59:\n      pop\n      gas\n      staticcall\n      iszero\n      dup1\n      iszero\n      tag_61\n      jumpi\n      returndatasize\n      0x00\n      dup1\n      returndatacopy\n      revert(0x00, returndatasize)\n    tag_61:\n      pop\n      pop\n      pop\n      pop\n      mload(0x40)\n      returndatasize\n      not(0x1f)\n      0x1f\n      dup3\n      add\n      and\n      dup3\n      add\n      dup1\n      0x40\n      mstore\n      pop\n      dup2\n      add\n      swap1\n      tag_62\n      swap2\n      swap1\n      tag_63\n      jump\t// in\n    tag_62:\n        /* \"contracts/brosniper.sol\":3061:3121  return IERC20(TARGET_TOKEN_ADDRESS).balanceOf(address(this)) */\n      swap1\n      pop\n        /* \"contracts/brosniper.sol\":2922:3129  function getTokenBalance() private view returns (uint256) {\r... */\n      swap1\n      jump\t// out\n        /* \"contracts/brosniper.sol\":2509:2914  function sellTokensForBNB() private {\r... */\n    tag_51:\n        /* \"contracts/brosniper.sol\":2580:2596  new address[](2) */\n      0x40\n      dup1\n      mload\n        /* \"contracts/brosniper.sol\":2594:2595  2 */\n      0x02\n        /* \"contracts/brosniper.sol\":2580:2596  new address[](2) */\n      dup1\n      dup3\n      mstore\n      0x60\n      dup3\n      add\n      dup4\n      mstore\n        /* \"contracts/brosniper.sol\":2556:2577  address[] memory path */\n      0x00\n      swap3\n        /* \"contracts/brosniper.sol\":2580:2596  new address[](2) */\n      0x20\n      dup4\n      add\n      swap1\n      dup1\n      calldatasize\n      dup4\n      calldatacopy\n      pop\n      pop\n        /* \"contracts/brosniper.sol\":2617:2637  TARGET_TOKEN_ADDRESS */\n      0x00\n      dup1\n      sload\n        /* \"contracts/brosniper.sol\":2607:2614  path[0] */\n      dup4\n      mload\n      swap4\n      swap5\n      pop\n      sub(shl(0xa0, 0x01), 0x01)\n        /* \"contracts/brosniper.sol\":2617:2637  TARGET_TOKEN_ADDRESS */\n      and\n      swap3\n        /* \"contracts/brosniper.sol\":2607:2614  path[0] */\n      dup5\n      swap3\n      pop\n      tag_67\n      jumpi\n      mstore(0x00, shl(0xe0, 0x4e487b71))\n      mstore(0x04, 0x32)\n      revert(0x00, 0x24)\n    tag_67:\n      0x20\n      mul\n      0x20\n      add\n      add\n        /* \"contracts/brosniper.sol\":2607:2637  path[0] = TARGET_TOKEN_ADDRESS */\n      swap1\n      sub(shl(0xa0, 0x01), 0x01)\n      and\n      swap1\n      dup2\n      sub(shl(0xa0, 0x01), 0x01)\n      and\n      dup2\n      mstore\n      pop\n      pop\n        /* \"contracts/brosniper.sol\":885:927  0xbb4CdB9CBd36B01bD1cBaEBF2De08d9173bc095c */\n      0xbb4cdb9cbd36b01bd1cbaebf2de08d9173bc095c\n        /* \"contracts/brosniper.sol\":2648:2652  path */\n      dup2\n        /* \"contracts/brosniper.sol\":2653:2654  1 */\n      0x01\n        /* \"contracts/brosniper.sol\":2648:2655  path[1] */\n      dup2\n      mload\n      dup2\n      lt\n      tag_68\n      jumpi\n      mstore(0x00, shl(0xe0, 0x4e487b71))\n      mstore(0x04, 0x32)\n      revert(0x00, 0x24)\n    tag_68:\n      0x20\n      mul\n      0x20\n      add\n      add\n        /* \"contracts/brosniper.sol\":2648:2670  path[1] = WBNB_ADDRESS */\n      swap1\n      sub(shl(0xa0, 0x01), 0x01)\n      and\n      swap1\n      dup2\n      sub(shl(0xa0, 0x01), 0x01)\n      and\n      dup2\n      mstore\n      pop\n      pop\n        /* \"contracts/brosniper.sol\":2683:2699  uint256 amountIn */\n      0x00\n        /* \"contracts/brosniper.sol\":2702:2719  getTokenBalance() */\n      tag_69\n        /* \"contracts/brosniper.sol\":2702:2717  getTokenBalance */\n      tag_48\n        /* \"contracts/brosniper.sol\":2702:2719  getTokenBalance() */\n      jump\t// in\n    tag_69:\n        /* \"contracts/brosniper.sol\":2683:2719  uint256 amountIn = getTokenBalance() */\n      swap1\n      pop\n        /* \"contracts/brosniper.sol\":2732:2748  uint256 deadline */\n      0x00\n        /* \"contracts/brosniper.sol\":2751:2772  block.timestamp + 300 */\n      tag_70\n        /* \"contracts/brosniper.sol\":2751:2766  block.timestamp */\n      timestamp\n        /* \"contracts/brosniper.sol\":2769:2772  300 */\n      0x012c\n        /* \"contracts/brosniper.sol\":2751:2772  block.timestamp + 300 */\n      tag_36\n      jump\t// in\n    tag_70:\n        /* \"contracts/brosniper.sol\":2834:2840  router */\n      sload(0x01)\n        /* \"contracts/brosniper.sol\":2834:2906  router.swapExactTokensForETH(amountIn, 0, path, address(this), deadline) */\n      mload(0x40)\n      shl(0xe0, 0x18cbafe5)\n      dup2\n      mstore\n        /* \"contracts/brosniper.sol\":2732:2772  uint256 deadline = block.timestamp + 300 */\n      swap2\n      swap3\n      pop\n      sub(shl(0xa0, 0x01), 0x01)\n        /* \"contracts/brosniper.sol\":2834:2840  router */\n      and\n      swap1\n        /* \"contracts/brosniper.sol\":2834:2862  router.swapExactTokensForETH */\n      0x18cbafe5\n      swap1\n        /* \"contracts/brosniper.sol\":2834:2906  router.swapExactTokensForETH(amountIn, 0, path, address(this), deadline) */\n      tag_71\n      swap1\n        /* \"contracts/brosniper.sol\":2863:2871  amountIn */\n      dup6\n      swap1\n        /* \"contracts/brosniper.sol\":2834:2840  router */\n      0x00\n      swap1\n        /* \"contracts/brosniper.sol\":2876:2880  path */\n      dup9\n      swap1\n        /* \"contracts/brosniper.sol\":2890:2894  this */\n      address\n      swap1\n        /* \"contracts/brosniper.sol\":2732:2772  uint256 deadline = block.timestamp + 300 */\n      dup9\n      swap1\n        /* \"contracts/brosniper.sol\":2834:2906  router.swapExactTokensForETH(amountIn, 0, path, address(this), deadline) */\n      0x04\n      add\n      tag_72\n      jump\t// in\n    tag_71:\n      0x00\n      mload(0x40)\n      dup1\n      dup4\n      sub\n      dup2\n      0x00\n      dup8\n      dup1\n      extcodesize\n      iszero\n      dup1\n      iszero\n      tag_73\n      jumpi\n      0x00\n      dup1\n      revert\n    tag_73:\n      pop\n      gas\n      call\n      iszero\n      dup1\n      iszero\n      tag_75\n      jumpi\n      returndatasize\n      0x00\n      dup1\n      returndatacopy\n      revert(0x00, returndatasize)\n    tag_75:\n      pop\n      pop\n      pop\n      pop\n      mload(0x40)\n      returndatasize\n      0x00\n      dup3\n      returndatacopy\n      0x1f\n      returndatasize\n      swap1\n      dup2\n      add\n      not(0x1f)\n      and\n      dup3\n      add\n      0x40\n      mstore\n      tag_76\n      swap2\n      swap1\n      dup2\n      add\n      swap1\n      tag_43\n      jump\t// in\n    tag_76:\n      pop\n        /* \"contracts/brosniper.sol\":2509:2914  function sellTokensForBNB() private {\r... */\n      pop\n      pop\n      pop\n      jump\t// out\n        /* \"#utility.yul\":14:320   */\n    tag_16:\n      0x00\n        /* \"#utility.yul\":126:128   */\n      0x20\n        /* \"#utility.yul\":114:123   */\n      dup3\n        /* \"#utility.yul\":105:112   */\n      dup5\n        /* \"#utility.yul\":101:124   */\n      sub\n        /* \"#utility.yul\":97:129   */\n      slt\n        /* \"#utility.yul\":94:96   */\n      iszero\n      tag_79\n      jumpi\n        /* \"#utility.yul\":147:153   */\n      dup1\n        /* \"#utility.yul\":139:145   */\n      dup2\n        /* \"#utility.yul\":132:154   */\n      revert\n        /* \"#utility.yul\":94:96   */\n    tag_79:\n        /* \"#utility.yul\":178:201   */\n      dup2\n      calldataload\n      sub(shl(0xa0, 0x01), 0x01)\n        /* \"#utility.yul\":230:261   */\n      dup2\n      and\n        /* \"#utility.yul\":220:262   */\n      dup2\n      eq\n        /* \"#utility.yul\":210:212   */\n      tag_80\n      jumpi\n        /* \"#utility.yul\":281:287   */\n      dup2\n        /* \"#utility.yul\":273:279   */\n      dup3\n        /* \"#utility.yul\":266:288   */\n      revert\n        /* \"#utility.yul\":210:212   */\n    tag_80:\n        /* \"#utility.yul\":309:314   */\n      swap4\n        /* \"#utility.yul\":84:320   */\n      swap3\n      pop\n      pop\n      pop\n      jump\t// out\n        /* \"#utility.yul\":325:1473   */\n    tag_43:\n      0x00\n        /* \"#utility.yul\":451:453   */\n      0x20\n        /* \"#utility.yul\":494:496   */\n      dup1\n        /* \"#utility.yul\":482:491   */\n      dup4\n        /* \"#utility.yul\":473:480   */\n      dup6\n        /* \"#utility.yul\":469:492   */\n      sub\n        /* \"#utility.yul\":465:497   */\n      slt\n        /* \"#utility.yul\":462:464   */\n      iszero\n      tag_82\n      jumpi\n        /* \"#utility.yul\":515:521   */\n      dup2\n        /* \"#utility.yul\":507:513   */\n      dup3\n        /* \"#utility.yul\":500:522   */\n      revert\n        /* \"#utility.yul\":462:464   */\n    tag_82:\n        /* \"#utility.yul\":553:562   */\n      dup3\n        /* \"#utility.yul\":547:563   */\n      mload\n        /* \"#utility.yul\":582:600   */\n      0xffffffffffffffff\n        /* \"#utility.yul\":623:625   */\n      dup1\n        /* \"#utility.yul\":615:621   */\n      dup3\n        /* \"#utility.yul\":612:626   */\n      gt\n        /* \"#utility.yul\":609:611   */\n      iszero\n      tag_83\n      jumpi\n        /* \"#utility.yul\":644:650   */\n      dup4\n        /* \"#utility.yul\":636:642   */\n      dup5\n        /* \"#utility.yul\":629:651   */\n      revert\n        /* \"#utility.yul\":609:611   */\n    tag_83:\n        /* \"#utility.yul\":687:693   */\n      dup2\n        /* \"#utility.yul\":676:685   */\n      dup6\n        /* \"#utility.yul\":672:694   */\n      add\n        /* \"#utility.yul\":662:694   */\n      swap2\n      pop\n        /* \"#utility.yul\":732:739   */\n      dup6\n        /* \"#utility.yul\":725:729   */\n      0x1f\n        /* \"#utility.yul\":721:723   */\n      dup4\n        /* \"#utility.yul\":717:730   */\n      add\n        /* \"#utility.yul\":713:740   */\n      slt\n        /* \"#utility.yul\":703:705   */\n      tag_84\n      jumpi\n        /* \"#utility.yul\":759:765   */\n      dup4\n        /* \"#utility.yul\":751:757   */\n      dup5\n        /* \"#utility.yul\":744:766   */\n      revert\n        /* \"#utility.yul\":703:705   */\n    tag_84:\n        /* \"#utility.yul\":793:795   */\n      dup2\n        /* \"#utility.yul\":787:796   */\n      mload\n        /* \"#utility.yul\":815:817   */\n      dup2\n        /* \"#utility.yul\":811:813   */\n      dup2\n        /* \"#utility.yul\":808:818   */\n      gt\n        /* \"#utility.yul\":805:807   */\n      iszero\n      tag_86\n      jumpi\n        /* \"#utility.yul\":821:839   */\n      tag_86\n      tag_87\n      jump\t// in\n    tag_86:\n        /* \"#utility.yul\":868:870   */\n      dup4\n        /* \"#utility.yul\":864:866   */\n      dup2\n        /* \"#utility.yul\":860:871   */\n      mul\n        /* \"#utility.yul\":900:902   */\n      0x40\n        /* \"#utility.yul\":894:903   */\n      mload\n        /* \"#utility.yul\":951:953   */\n      dup6\n        /* \"#utility.yul\":946:948   */\n      dup3\n        /* \"#utility.yul\":938:944   */\n      dup3\n        /* \"#utility.yul\":934:949   */\n      add\n        /* \"#utility.yul\":930:954   */\n      add\n        /* \"#utility.yul\":1004:1010   */\n      dup2\n        /* \"#utility.yul\":992:1002   */\n      dup2\n        /* \"#utility.yul\":989:1011   */\n      lt\n        /* \"#utility.yul\":984:986   */\n      dup6\n        /* \"#utility.yul\":972:982   */\n      dup3\n        /* \"#utility.yul\":969:987   */\n      gt\n        /* \"#utility.yul\":966:1012   */\n      or\n        /* \"#utility.yul\":963:965   */\n      iszero\n      tag_89\n      jumpi\n        /* \"#utility.yul\":1015:1033   */\n      tag_89\n      tag_87\n      jump\t// in\n    tag_89:\n        /* \"#utility.yul\":1051:1053   */\n      0x40\n        /* \"#utility.yul\":1044:1066   */\n      mstore\n        /* \"#utility.yul\":1101:1119   */\n      dup3\n      dup2\n      mstore\n        /* \"#utility.yul\":1135:1150   */\n      dup6\n      dup2\n      add\n      swap4\n      pop\n        /* \"#utility.yul\":1170:1181   */\n      dup5\n      dup7\n      add\n        /* \"#utility.yul\":1200:1211   */\n      dup3\n      dup7\n      add\n        /* \"#utility.yul\":1196:1216   */\n      dup8\n      add\n        /* \"#utility.yul\":1193:1226   */\n      dup11\n      lt\n        /* \"#utility.yul\":1190:1192   */\n      iszero\n      tag_90\n      jumpi\n        /* \"#utility.yul\":1244:1250   */\n      dup8\n        /* \"#utility.yul\":1236:1242   */\n      dup9\n        /* \"#utility.yul\":1229:1251   */\n      revert\n        /* \"#utility.yul\":1190:1192   */\n    tag_90:\n        /* \"#utility.yul\":1271:1277   */\n      dup8\n        /* \"#utility.yul\":1262:1277   */\n      swap6\n      pop\n        /* \"#utility.yul\":1286:1442   */\n    tag_91:\n        /* \"#utility.yul\":1300:1302   */\n      dup4\n        /* \"#utility.yul\":1297:1298   */\n      dup7\n        /* \"#utility.yul\":1294:1303   */\n      lt\n        /* \"#utility.yul\":1286:1442   */\n      iszero\n      tag_93\n      jumpi\n        /* \"#utility.yul\":1357:1367   */\n      dup1\n      mload\n        /* \"#utility.yul\":1345:1368   */\n      dup6\n      mstore\n        /* \"#utility.yul\":1318:1319   */\n      0x01\n        /* \"#utility.yul\":1311:1320   */\n      swap6\n      swap1\n      swap6\n      add\n      swap5\n        /* \"#utility.yul\":1388:1400   */\n      swap4\n      dup7\n      add\n      swap4\n        /* \"#utility.yul\":1420:1432   */\n      dup7\n      add\n        /* \"#utility.yul\":1286:1442   */\n      jump(tag_91)\n    tag_93:\n      pop\n        /* \"#utility.yul\":1461:1467   */\n      swap9\n        /* \"#utility.yul\":431:1473   */\n      swap8\n      pop\n      pop\n      pop\n      pop\n      pop\n      pop\n      pop\n      pop\n      jump\t// out\n        /* \"#utility.yul\":1478:1672   */\n    tag_63:\n      0x00\n        /* \"#utility.yul\":1601:1603   */\n      0x20\n        /* \"#utility.yul\":1589:1598   */\n      dup3\n        /* \"#utility.yul\":1580:1587   */\n      dup5\n        /* \"#utility.yul\":1576:1599   */\n      sub\n        /* \"#utility.yul\":1572:1604   */\n      slt\n        /* \"#utility.yul\":1569:1571   */\n      iszero\n      tag_95\n      jumpi\n        /* \"#utility.yul\":1622:1628   */\n      dup1\n        /* \"#utility.yul\":1614:1620   */\n      dup2\n        /* \"#utility.yul\":1607:1629   */\n      revert\n        /* \"#utility.yul\":1569:1571   */\n    tag_95:\n      pop\n        /* \"#utility.yul\":1650:1666   */\n      mload\n      swap2\n        /* \"#utility.yul\":1559:1672   */\n      swap1\n      pop\n      jump\t// out\n        /* \"#utility.yul\":1677:2146   */\n    tag_96:\n      0x00\n        /* \"#utility.yul\":1774:1779   */\n      dup2\n        /* \"#utility.yul\":1768:1780   */\n      mload\n        /* \"#utility.yul\":1801:1807   */\n      dup1\n        /* \"#utility.yul\":1796:1799   */\n      dup5\n        /* \"#utility.yul\":1789:1808   */\n      mstore\n        /* \"#utility.yul\":1827:1831   */\n      0x20\n        /* \"#utility.yul\":1856:1858   */\n      dup1\n        /* \"#utility.yul\":1851:1854   */\n      dup6\n        /* \"#utility.yul\":1847:1859   */\n      add\n        /* \"#utility.yul\":1840:1859   */\n      swap5\n      pop\n        /* \"#utility.yul\":1893:1895   */\n      dup1\n        /* \"#utility.yul\":1886:1891   */\n      dup5\n        /* \"#utility.yul\":1882:1896   */\n      add\n        /* \"#utility.yul\":1914:1917   */\n      dup4\n        /* \"#utility.yul\":1926:2121   */\n    tag_98:\n        /* \"#utility.yul\":1940:1946   */\n      dup4\n        /* \"#utility.yul\":1937:1938   */\n      dup2\n        /* \"#utility.yul\":1934:1947   */\n      lt\n        /* \"#utility.yul\":1926:2121   */\n      iszero\n      tag_100\n      jumpi\n        /* \"#utility.yul\":2005:2018   */\n      dup2\n      mload\n      sub(shl(0xa0, 0x01), 0x01)\n        /* \"#utility.yul\":2001:2040   */\n      and\n        /* \"#utility.yul\":1989:2041   */\n      dup8\n      mstore\n        /* \"#utility.yul\":2061:2073   */\n      swap6\n      dup3\n      add\n      swap6\n        /* \"#utility.yul\":2096:2111   */\n      swap1\n      dup3\n      add\n      swap1\n        /* \"#utility.yul\":2037:2038   */\n      0x01\n        /* \"#utility.yul\":1955:1964   */\n      add\n        /* \"#utility.yul\":1926:2121   */\n      jump(tag_98)\n    tag_100:\n      pop\n        /* \"#utility.yul\":2137:2140   */\n      swap5\n      swap6\n        /* \"#utility.yul\":1744:2146   */\n      swap5\n      pop\n      pop\n      pop\n      pop\n      pop\n      jump\t// out\n        /* \"#utility.yul\":2151:2356   */\n    tag_20:\n        /* \"#utility.yul\":2351:2354   */\n      swap1\n        /* \"#utility.yul\":2342:2356   */\n      jump\t// out\n        /* \"#utility.yul\":2361:2564   */\n    tag_58:\n      sub(shl(0xa0, 0x01), 0x01)\n        /* \"#utility.yul\":2525:2557   */\n      swap2\n      swap1\n      swap2\n      and\n        /* \"#utility.yul\":2507:2558   */\n      dup2\n      mstore\n        /* \"#utility.yul\":2495:2497   */\n      0x20\n        /* \"#utility.yul\":2480:2498   */\n      add\n      swap1\n        /* \"#utility.yul\":2462:2564   */\n      jump\t// out\n        /* \"#utility.yul\":2569:2914   */\n    tag_26:\n        /* \"#utility.yul\":2771:2773   */\n      0x20\n        /* \"#utility.yul\":2753:2774   */\n      dup1\n      dup3\n      mstore\n        /* \"#utility.yul\":2810:2812   */\n      0x15\n        /* \"#utility.yul\":2790:2808   */\n      swap1\n      dup3\n      add\n        /* \"#utility.yul\":2783:2813   */\n      mstore\n      shl(0x5a, 0x109390881dda5d1a191c985dd85b0819985a5b1959)\n        /* \"#utility.yul\":2844:2846   */\n      0x40\n        /* \"#utility.yul\":2829:2847   */\n      dup3\n      add\n        /* \"#utility.yul\":2822:2873   */\n      mstore\n        /* \"#utility.yul\":2905:2907   */\n      0x60\n        /* \"#utility.yul\":2890:2908   */\n      add\n      swap1\n        /* \"#utility.yul\":2743:2914   */\n      jump\t// out\n        /* \"#utility.yul\":2919:3275   */\n    tag_55:\n        /* \"#utility.yul\":3121:3123   */\n      0x20\n        /* \"#utility.yul\":3103:3124   */\n      dup1\n      dup3\n      mstore\n        /* \"#utility.yul\":3140:3158   */\n      dup2\n      dup2\n      add\n        /* \"#utility.yul\":3133:3163   */\n      mstore\n        /* \"#utility.yul\":3199:3233   */\n      0x54617267657420746f6b656e206164647265737320616c726561647920736574\n        /* \"#utility.yul\":3194:3196   */\n      0x40\n        /* \"#utility.yul\":3179:3197   */\n      dup3\n      add\n        /* \"#utility.yul\":3172:3234   */\n      mstore\n        /* \"#utility.yul\":3266:3268   */\n      0x60\n        /* \"#utility.yul\":3251:3269   */\n      add\n      swap1\n        /* \"#utility.yul\":3093:3275   */\n      jump\t// out\n        /* \"#utility.yul\":3280:3632   */\n    tag_30:\n        /* \"#utility.yul\":3482:3484   */\n      0x20\n        /* \"#utility.yul\":3464:3485   */\n      dup1\n      dup3\n      mstore\n        /* \"#utility.yul\":3521:3523   */\n      0x1c\n        /* \"#utility.yul\":3501:3519   */\n      swap1\n      dup3\n      add\n        /* \"#utility.yul\":3494:3524   */\n      mstore\n        /* \"#utility.yul\":3560:3590   */\n      0x54617267657420746f6b656e2061646472657373206e6f742073657400000000\n        /* \"#utility.yul\":3555:3557   */\n      0x40\n        /* \"#utility.yul\":3540:3558   */\n      dup3\n      add\n        /* \"#utility.yul\":3533:3591   */\n      mstore\n        /* \"#utility.yul\":3623:3625   */\n      0x60\n        /* \"#utility.yul\":3608:3626   */\n      add\n      swap1\n        /* \"#utility.yul\":3454:3632   */\n      jump\t// out\n        /* \"#utility.yul\":3637:4145   */\n    tag_38:\n      0x00\n        /* \"#utility.yul\":3900:3906   */\n      dup6\n        /* \"#utility.yul\":3889:3898   */\n      dup3\n        /* \"#utility.yul\":3882:3907   */\n      mstore\n        /* \"#utility.yul\":3943:3946   */\n      0x80\n        /* \"#utility.yul\":3938:3940   */\n      0x20\n        /* \"#utility.yul\":3927:3936   */\n      dup4\n        /* \"#utility.yul\":3923:3941   */\n      add\n        /* \"#utility.yul\":3916:3947   */\n      mstore\n        /* \"#utility.yul\":3964:4027   */\n      tag_107\n        /* \"#utility.yul\":4022:4025   */\n      0x80\n        /* \"#utility.yul\":4011:4020   */\n      dup4\n        /* \"#utility.yul\":4007:4026   */\n      add\n        /* \"#utility.yul\":3999:4005   */\n      dup7\n        /* \"#utility.yul\":3964:4027   */\n      tag_96\n      jump\t// in\n    tag_107:\n      sub(shl(0xa0, 0x01), 0x01)\n        /* \"#utility.yul\":4063:4095   */\n      swap5\n      swap1\n      swap5\n      and\n        /* \"#utility.yul\":4058:4060   */\n      0x40\n        /* \"#utility.yul\":4043:4061   */\n      dup4\n      add\n        /* \"#utility.yul\":4036:4096   */\n      mstore\n      pop\n        /* \"#utility.yul\":4127:4129   */\n      0x60\n        /* \"#utility.yul\":4112:4130   */\n      add\n        /* \"#utility.yul\":4105:4139   */\n      mstore\n        /* \"#utility.yul\":3956:4027   */\n      swap3\n        /* \"#utility.yul\":3872:4145   */\n      swap2\n      pop\n      pop\n      jump\t// out\n        /* \"#utility.yul\":4150:4738   */\n    tag_72:\n      0x00\n        /* \"#utility.yul\":4449:4455   */\n      dup7\n        /* \"#utility.yul\":4438:4447   */\n      dup3\n        /* \"#utility.yul\":4431:4456   */\n      mstore\n        /* \"#utility.yul\":4492:4498   */\n      dup6\n        /* \"#utility.yul\":4487:4489   */\n      0x20\n        /* \"#utility.yul\":4476:4485   */\n      dup4\n        /* \"#utility.yul\":4472:4490   */\n      add\n        /* \"#utility.yul\":4465:4499   */\n      mstore\n        /* \"#utility.yul\":4535:4538   */\n      0xa0\n        /* \"#utility.yul\":4530:4532   */\n      0x40\n        /* \"#utility.yul\":4519:4528   */\n      dup4\n        /* \"#utility.yul\":4515:4533   */\n      add\n        /* \"#utility.yul\":4508:4539   */\n      mstore\n        /* \"#utility.yul\":4556:4619   */\n      tag_109\n        /* \"#utility.yul\":4614:4617   */\n      0xa0\n        /* \"#utility.yul\":4603:4612   */\n      dup4\n        /* \"#utility.yul\":4599:4618   */\n      add\n        /* \"#utility.yul\":4591:4597   */\n      dup7\n        /* \"#utility.yul\":4556:4619   */\n      tag_96\n      jump\t// in\n    tag_109:\n      sub(shl(0xa0, 0x01), 0x01)\n        /* \"#utility.yul\":4655:4687   */\n      swap5\n      swap1\n      swap5\n      and\n        /* \"#utility.yul\":4650:4652   */\n      0x60\n        /* \"#utility.yul\":4635:4653   */\n      dup4\n      add\n        /* \"#utility.yul\":4628:4688   */\n      mstore\n      pop\n        /* \"#utility.yul\":4719:4722   */\n      0x80\n        /* \"#utility.yul\":4704:4723   */\n      add\n        /* \"#utility.yul\":4697:4732   */\n      mstore\n        /* \"#utility.yul\":4548:4619   */\n      swap4\n        /* \"#utility.yul\":4421:4738   */\n      swap3\n      pop\n      pop\n      pop\n      jump\t// out\n        /* \"#utility.yul\":4743:4871   */\n    tag_36:\n      0x00\n        /* \"#utility.yul\":4814:4815   */\n      dup3\n        /* \"#utility.yul\":4810:4816   */\n      not\n        /* \"#utility.yul\":4807:4808   */\n      dup3\n        /* \"#utility.yul\":4804:4817   */\n      gt\n        /* \"#utility.yul\":4801:4803   */\n      iszero\n      tag_112\n      jumpi\n        /* \"#utility.yul\":4820:4838   */\n      tag_112\n      tag_113\n      jump\t// in\n    tag_112:\n      pop\n        /* \"#utility.yul\":4856:4865   */\n      add\n      swap1\n        /* \"#utility.yul\":4791:4871   */\n      jump\t// out\n        /* \"#utility.yul\":4876:5044   */\n    tag_46:\n      0x00\n        /* \"#utility.yul\":4982:4983   */\n      dup2\n        /* \"#utility.yul\":4978:4979   */\n      0x00\n        /* \"#utility.yul\":4974:4980   */\n      not\n        /* \"#utility.yul\":4970:4984   */\n      div\n        /* \"#utility.yul\":4967:4968   */\n      dup4\n        /* \"#utility.yul\":4964:4985   */\n      gt\n        /* \"#utility.yul\":4959:4960   */\n      dup3\n        /* \"#utility.yul\":4952:4961   */\n      iszero\n        /* \"#utility.yul\":4945:4962   */\n      iszero\n        /* \"#utility.yul\":4941:4986   */\n      and\n        /* \"#utility.yul\":4938:4940   */\n      iszero\n      tag_116\n      jumpi\n        /* \"#utility.yul\":4989:5007   */\n      tag_116\n      tag_113\n      jump\t// in\n    tag_116:\n      pop\n        /* \"#utility.yul\":5029:5038   */\n      mul\n      swap1\n        /* \"#utility.yul\":4928:5044   */\n      jump\t// out\n        /* \"#utility.yul\":5049:5176   */\n    tag_113:\n        /* \"#utility.yul\":5110:5120   */\n      0x4e487b71\n        /* \"#utility.yul\":5105:5108   */\n      0xe0\n        /* \"#utility.yul\":5101:5121   */\n      shl\n        /* \"#utility.yul\":5098:5099   */\n      0x00\n        /* \"#utility.yul\":5091:5122   */\n      mstore\n        /* \"#utility.yul\":5141:5145   */\n      0x11\n        /* \"#utility.yul\":5138:5139   */\n      0x04\n        /* \"#utility.yul\":5131:5146   */\n      mstore\n        /* \"#utility.yul\":5165:5169   */\n      0x24\n        /* \"#utility.yul\":5162:5163   */\n      0x00\n        /* \"#utility.yul\":5155:5170   */\n      revert\n        /* \"#utility.yul\":5181:5308   */\n    tag_87:\n        /* \"#utility.yul\":5242:5252   */\n      0x4e487b71\n        /* \"#utility.yul\":5237:5240   */\n      0xe0\n        /* \"#utility.yul\":5233:5253   */\n      shl\n        /* \"#utility.yul\":5230:5231   */\n      0x00\n        /* \"#utility.yul\":5223:5254   */\n      mstore\n        /* \"#utility.yul\":5273:5277   */\n      0x41\n        /* \"#utility.yul\":5270:5271   */\n      0x04\n        /* \"#utility.yul\":5263:5278   */\n      mstore\n        /* \"#utility.yul\":5297:5301   */\n      0x24\n        /* \"#utility.yul\":5294:5295   */\n      0x00\n        /* \"#utility.yul\":5287:5302   */\n      revert\n\n    auxdata: 0xa264697066735822122027abfeef3f19f92fe2368525d0955f4d26e5a0c624ae571f237758c257b0965664736f6c63430008000033\n}\n",
				"bytecode": {
					"linkReferences": {},
					"object": "608060405234801561001057600080fd5b50600180546001600160a01b0319167310ed43c718714eb63d5aa57b78b54704e256024e179055610802806100466000396000f3fe6080604052600436106100385760003560e01c80631d111d1314610044578063387da6611461005b5780637a0e335c146100635761003f565b3661003f57005b600080fd5b34801561005057600080fd5b50610059610083565b005b610059610108565b34801561006f57600080fd5b5061005961007e366004610503565b6102bf565b60405147906000903390839061009890610646565b60006040518083038185875af1925050503d80600081146100d5576040519150601f19603f3d011682016040523d82523d6000602084013e6100da565b606091505b50509050806101045760405162461bcd60e51b81526004016100fb9061065d565b60405180910390fd5b5050565b6000546001600160a01b03166101305760405162461bcd60e51b81526004016100fb906106c1565b60408051600280825260608201835260009260208301908036833701905050905073bb4cdb9cbd36b01bd1cbaebf2de08d9173bc095c8160008151811061018757634e487b7160e01b600052603260045260246000fd5b6001600160a01b0392831660209182029290920101526000548251911690829060019081106101c657634e487b7160e01b600052603260045260246000fd5b6001600160a01b03909216602092830291909101909101526000806101ed4261012c610769565b600154604051637ff36ab560e01b81529192506001600160a01b031690637ff36ab59034906102269086908890309088906004016106f8565b6000604051808303818588803b15801561023f57600080fd5b505af1158015610253573d6000803e3d6000fd5b50505050506040513d6000823e601f3d908101601f1916820160405261027c9190810190610531565b5060025461028957346002555b60025461029790600a610781565b61029f61030a565b106102ba576102ac610390565b6003805460ff191660011790555b505050565b6000546001600160a01b0316156102e85760405162461bcd60e51b81526004016100fb9061068c565b600080546001600160a01b0319166001600160a01b0392909216919091179055565b600080546040516370a0823160e01b81526001600160a01b03909116906370a082319061033b903090600401610649565b60206040518083038186803b15801561035357600080fd5b505afa158015610367573d6000803e3d6000fd5b505050506040513d601f19601f8201168201806040525081019061038b91906105eb565b905090565b60408051600280825260608201835260009260208301908036833750506000805483519394506001600160a01b0316928492506103dd57634e487b7160e01b600052603260045260246000fd5b60200260200101906001600160a01b031690816001600160a01b03168152505073bb4cdb9cbd36b01bd1cbaebf2de08d9173bc095c8160018151811061043357634e487b7160e01b600052603260045260246000fd5b60200260200101906001600160a01b031690816001600160a01b031681525050600061045d61030a565b9050600061046d4261012c610769565b6001546040516318cbafe560e01b81529192506001600160a01b0316906318cbafe5906104a790859060009088903090889060040161072d565b600060405180830381600087803b1580156104c157600080fd5b505af11580156104d5573d6000803e3d6000fd5b505050506040513d6000823e601f3d908101601f191682016040526104fd9190810190610531565b50505050565b600060208284031215610514578081fd5b81356001600160a01b038116811461052a578182fd5b9392505050565b60006020808385031215610543578182fd5b825167ffffffffffffffff8082111561055a578384fd5b818501915085601f83011261056d578384fd5b81518181111561057f5761057f6107b6565b8381026040518582820101818110858211171561059e5761059e6107b6565b604052828152858101935084860182860187018a10156105bc578788fd5b8795505b838610156105de5780518552600195909501949386019386016105c0565b5098975050505050505050565b6000602082840312156105fc578081fd5b5051919050565b6000815180845260208085019450808401835b8381101561063b5781516001600160a01b031687529582019590820190600101610616565b509495945050505050565b90565b6001600160a01b0391909116815260200190565b602080825260159082015274109390881dda5d1a191c985dd85b0819985a5b1959605a1b604082015260600190565b6020808252818101527f54617267657420746f6b656e206164647265737320616c726561647920736574604082015260600190565b6020808252601c908201527f54617267657420746f6b656e2061646472657373206e6f742073657400000000604082015260600190565b6000858252608060208301526107116080830186610603565b6001600160a01b03949094166040830152506060015292915050565b600086825285602083015260a0604083015261074c60a0830186610603565b6001600160a01b0394909416606083015250608001529392505050565b6000821982111561077c5761077c6107a0565b500190565b600081600019048311821515161561079b5761079b6107a0565b500290565b634e487b7160e01b600052601160045260246000fd5b634e487b7160e01b600052604160045260246000fdfea264697066735822122027abfeef3f19f92fe2368525d0955f4d26e5a0c624ae571f237758c257b0965664736f6c63430008000033",
					"opcodes": "PUSH1 0x80 PUSH1 0x40 MSTORE CALLVALUE DUP1 ISZERO PUSH2 0x10 JUMPI PUSH1 0x0 DUP1 REVERT JUMPDEST POP PUSH1 0x1 DUP1 SLOAD PUSH1 0x1 PUSH1 0x1 PUSH1 0xA0 SHL SUB NOT AND PUSH20 0x10ED43C718714EB63D5AA57B78B54704E256024E OR SWAP1 SSTORE PUSH2 0x802 DUP1 PUSH2 0x46 PUSH1 0x0 CODECOPY PUSH1 0x0 RETURN INVALID PUSH1 0x80 PUSH1 0x40 MSTORE PUSH1 0x4 CALLDATASIZE LT PUSH2 0x38 JUMPI PUSH1 0x0 CALLDATALOAD PUSH1 0xE0 SHR DUP1 PUSH4 0x1D111D13 EQ PUSH2 0x44 JUMPI DUP1 PUSH4 0x387DA661 EQ PUSH2 0x5B JUMPI DUP1 PUSH4 0x7A0E335C EQ PUSH2 0x63 JUMPI PUSH2 0x3F JUMP JUMPDEST CALLDATASIZE PUSH2 0x3F JUMPI STOP JUMPDEST PUSH1 0x0 DUP1 REVERT JUMPDEST CALLVALUE DUP1 ISZERO PUSH2 0x50 JUMPI PUSH1 0x0 DUP1 REVERT JUMPDEST POP PUSH2 0x59 PUSH2 0x83 JUMP JUMPDEST STOP JUMPDEST PUSH2 0x59 PUSH2 0x108 JUMP JUMPDEST CALLVALUE DUP1 ISZERO PUSH2 0x6F JUMPI PUSH1 0x0 DUP1 REVERT JUMPDEST POP PUSH2 0x59 PUSH2 0x7E CALLDATASIZE PUSH1 0x4 PUSH2 0x503 JUMP JUMPDEST PUSH2 0x2BF JUMP JUMPDEST PUSH1 0x40 MLOAD SELFBALANCE SWAP1 PUSH1 0x0 SWAP1 CALLER SWAP1 DUP4 SWAP1 PUSH2 0x98 SWAP1 PUSH2 0x646 JUMP JUMPDEST PUSH1 0x0 PUSH1 0x40 MLOAD DUP1 DUP4 SUB DUP2 DUP6 DUP8 GAS CALL SWAP3 POP POP POP RETURNDATASIZE DUP1 PUSH1 0x0 DUP2 EQ PUSH2 0xD5 JUMPI PUSH1 0x40 MLOAD SWAP2 POP PUSH1 0x1F NOT PUSH1 0x3F RETURNDATASIZE ADD AND DUP3 ADD PUSH1 0x40 MSTORE RETURNDATASIZE DUP3 MSTORE RETURNDATASIZE PUSH1 0x0 PUSH1 0x20 DUP5 ADD RETURNDATACOPY PUSH2 0xDA JUMP JUMPDEST PUSH1 0x60 SWAP2 POP JUMPDEST POP POP SWAP1 POP DUP1 PUSH2 0x104 JUMPI PUSH1 0x40 MLOAD PUSH3 0x461BCD PUSH1 0xE5 SHL DUP2 MSTORE PUSH1 0x4 ADD PUSH2 0xFB SWAP1 PUSH2 0x65D JUMP JUMPDEST PUSH1 0x40 MLOAD DUP1 SWAP2 SUB SWAP1 REVERT JUMPDEST POP POP JUMP JUMPDEST PUSH1 0x0 SLOAD PUSH1 0x1 PUSH1 0x1 PUSH1 0xA0 SHL SUB AND PUSH2 0x130 JUMPI PUSH1 0x40 MLOAD PUSH3 0x461BCD PUSH1 0xE5 SHL DUP2 MSTORE PUSH1 0x4 ADD PUSH2 0xFB SWAP1 PUSH2 0x6C1 JUMP JUMPDEST PUSH1 0x40 DUP1 MLOAD PUSH1 0x2 DUP1 DUP3 MSTORE PUSH1 0x60 DUP3 ADD DUP4 MSTORE PUSH1 0x0 SWAP3 PUSH1 0x20 DUP4 ADD SWAP1 DUP1 CALLDATASIZE DUP4 CALLDATACOPY ADD SWAP1 POP POP SWAP1 POP PUSH20 0xBB4CDB9CBD36B01BD1CBAEBF2DE08D9173BC095C DUP2 PUSH1 0x0 DUP2 MLOAD DUP2 LT PUSH2 0x187 JUMPI PUSH4 0x4E487B71 PUSH1 0xE0 SHL PUSH1 0x0 MSTORE PUSH1 0x32 PUSH1 0x4 MSTORE PUSH1 0x24 PUSH1 0x0 REVERT JUMPDEST PUSH1 0x1 PUSH1 0x1 PUSH1 0xA0 SHL SUB SWAP3 DUP4 AND PUSH1 0x20 SWAP2 DUP3 MUL SWAP3 SWAP1 SWAP3 ADD ADD MSTORE PUSH1 0x0 SLOAD DUP3 MLOAD SWAP2 AND SWAP1 DUP3 SWAP1 PUSH1 0x1 SWAP1 DUP2 LT PUSH2 0x1C6 JUMPI PUSH4 0x4E487B71 PUSH1 0xE0 SHL PUSH1 0x0 MSTORE PUSH1 0x32 PUSH1 0x4 MSTORE PUSH1 0x24 PUSH1 0x0 REVERT JUMPDEST PUSH1 0x1 PUSH1 0x1 PUSH1 0xA0 SHL SUB SWAP1 SWAP3 AND PUSH1 0x20 SWAP3 DUP4 MUL SWAP2 SWAP1 SWAP2 ADD SWAP1 SWAP2 ADD MSTORE PUSH1 0x0 DUP1 PUSH2 0x1ED TIMESTAMP PUSH2 0x12C PUSH2 0x769 JUMP JUMPDEST PUSH1 0x1 SLOAD PUSH1 0x40 MLOAD PUSH4 0x7FF36AB5 PUSH1 0xE0 SHL DUP2 MSTORE SWAP2 SWAP3 POP PUSH1 0x1 PUSH1 0x1 PUSH1 0xA0 SHL SUB AND SWAP1 PUSH4 0x7FF36AB5 SWAP1 CALLVALUE SWAP1 PUSH2 0x226 SWAP1 DUP7 SWAP1 DUP9 SWAP1 ADDRESS SWAP1 DUP9 SWAP1 PUSH1 0x4 ADD PUSH2 0x6F8 JUMP JUMPDEST PUSH1 0x0 PUSH1 0x40 MLOAD DUP1 DUP4 SUB DUP2 DUP6 DUP9 DUP1 EXTCODESIZE ISZERO DUP1 ISZERO PUSH2 0x23F JUMPI PUSH1 0x0 DUP1 REVERT JUMPDEST POP GAS CALL ISZERO DUP1 ISZERO PUSH2 0x253 JUMPI RETURNDATASIZE PUSH1 0x0 DUP1 RETURNDATACOPY RETURNDATASIZE PUSH1 0x0 REVERT JUMPDEST POP POP POP POP POP PUSH1 0x40 MLOAD RETURNDATASIZE PUSH1 0x0 DUP3 RETURNDATACOPY PUSH1 0x1F RETURNDATASIZE SWAP1 DUP2 ADD PUSH1 0x1F NOT AND DUP3 ADD PUSH1 0x40 MSTORE PUSH2 0x27C SWAP2 SWAP1 DUP2 ADD SWAP1 PUSH2 0x531 JUMP JUMPDEST POP PUSH1 0x2 SLOAD PUSH2 0x289 JUMPI CALLVALUE PUSH1 0x2 SSTORE JUMPDEST PUSH1 0x2 SLOAD PUSH2 0x297 SWAP1 PUSH1 0xA PUSH2 0x781 JUMP JUMPDEST PUSH2 0x29F PUSH2 0x30A JUMP JUMPDEST LT PUSH2 0x2BA JUMPI PUSH2 0x2AC PUSH2 0x390 JUMP JUMPDEST PUSH1 0x3 DUP1 SLOAD PUSH1 0xFF NOT AND PUSH1 0x1 OR SWAP1 SSTORE JUMPDEST POP POP POP JUMP JUMPDEST PUSH1 0x0 SLOAD PUSH1 0x1 PUSH1 0x1 PUSH1 0xA0 SHL SUB AND ISZERO PUSH2 0x2E8 JUMPI PUSH1 0x40 MLOAD PUSH3 0x461BCD PUSH1 0xE5 SHL DUP2 MSTORE PUSH1 0x4 ADD PUSH2 0xFB SWAP1 PUSH2 0x68C JUMP JUMPDEST PUSH1 0x0 DUP1 SLOAD PUSH1 0x1 PUSH1 0x1 PUSH1 0xA0 SHL SUB NOT AND PUSH1 0x1 PUSH1 0x1 PUSH1 0xA0 SHL SUB SWAP3 SWAP1 SWAP3 AND SWAP2 SWAP1 SWAP2 OR SWAP1 SSTORE JUMP JUMPDEST PUSH1 0x0 DUP1 SLOAD PUSH1 0x40 MLOAD PUSH4 0x70A08231 PUSH1 0xE0 SHL DUP2 MSTORE PUSH1 0x1 PUSH1 0x1 PUSH1 0xA0 SHL SUB SWAP1 SWAP2 AND SWAP1 PUSH4 0x70A08231 SWAP1 PUSH2 0x33B SWAP1 ADDRESS SWAP1 PUSH1 0x4 ADD PUSH2 0x649 JUMP JUMPDEST PUSH1 0x20 PUSH1 0x40 MLOAD DUP1 DUP4 SUB DUP2 DUP7 DUP1 EXTCODESIZE ISZERO DUP1 ISZERO PUSH2 0x353 JUMPI PUSH1 0x0 DUP1 REVERT JUMPDEST POP GAS STATICCALL ISZERO DUP1 ISZERO PUSH2 0x367 JUMPI RETURNDATASIZE PUSH1 0x0 DUP1 RETURNDATACOPY RETURNDATASIZE PUSH1 0x0 REVERT JUMPDEST POP POP POP POP PUSH1 0x40 MLOAD RETURNDATASIZE PUSH1 0x1F NOT PUSH1 0x1F DUP3 ADD AND DUP3 ADD DUP1 PUSH1 0x40 MSTORE POP DUP2 ADD SWAP1 PUSH2 0x38B SWAP2 SWAP1 PUSH2 0x5EB JUMP JUMPDEST SWAP1 POP SWAP1 JUMP JUMPDEST PUSH1 0x40 DUP1 MLOAD PUSH1 0x2 DUP1 DUP3 MSTORE PUSH1 0x60 DUP3 ADD DUP4 MSTORE PUSH1 0x0 SWAP3 PUSH1 0x20 DUP4 ADD SWAP1 DUP1 CALLDATASIZE DUP4 CALLDATACOPY POP POP PUSH1 0x0 DUP1 SLOAD DUP4 MLOAD SWAP4 SWAP5 POP PUSH1 0x1 PUSH1 0x1 PUSH1 0xA0 SHL SUB AND SWAP3 DUP5 SWAP3 POP PUSH2 0x3DD JUMPI PUSH4 0x4E487B71 PUSH1 0xE0 SHL PUSH1 0x0 MSTORE PUSH1 0x32 PUSH1 0x4 MSTORE PUSH1 0x24 PUSH1 0x0 REVERT JUMPDEST PUSH1 0x20 MUL PUSH1 0x20 ADD ADD SWAP1 PUSH1 0x1 PUSH1 0x1 PUSH1 0xA0 SHL SUB AND SWAP1 DUP2 PUSH1 0x1 PUSH1 0x1 PUSH1 0xA0 SHL SUB AND DUP2 MSTORE POP POP PUSH20 0xBB4CDB9CBD36B01BD1CBAEBF2DE08D9173BC095C DUP2 PUSH1 0x1 DUP2 MLOAD DUP2 LT PUSH2 0x433 JUMPI PUSH4 0x4E487B71 PUSH1 0xE0 SHL PUSH1 0x0 MSTORE PUSH1 0x32 PUSH1 0x4 MSTORE PUSH1 0x24 PUSH1 0x0 REVERT JUMPDEST PUSH1 0x20 MUL PUSH1 0x20 ADD ADD SWAP1 PUSH1 0x1 PUSH1 0x1 PUSH1 0xA0 SHL SUB AND SWAP1 DUP2 PUSH1 0x1 PUSH1 0x1 PUSH1 0xA0 SHL SUB AND DUP2 MSTORE POP POP PUSH1 0x0 PUSH2 0x45D PUSH2 0x30A JUMP JUMPDEST SWAP1 POP PUSH1 0x0 PUSH2 0x46D TIMESTAMP PUSH2 0x12C PUSH2 0x769 JUMP JUMPDEST PUSH1 0x1 SLOAD PUSH1 0x40 MLOAD PUSH4 0x18CBAFE5 PUSH1 0xE0 SHL DUP2 MSTORE SWAP2 SWAP3 POP PUSH1 0x1 PUSH1 0x1 PUSH1 0xA0 SHL SUB AND SWAP1 PUSH4 0x18CBAFE5 SWAP1 PUSH2 0x4A7 SWAP1 DUP6 SWAP1 PUSH1 0x0 SWAP1 DUP9 SWAP1 ADDRESS SWAP1 DUP9 SWAP1 PUSH1 0x4 ADD PUSH2 0x72D JUMP JUMPDEST PUSH1 0x0 PUSH1 0x40 MLOAD DUP1 DUP4 SUB DUP2 PUSH1 0x0 DUP8 DUP1 EXTCODESIZE ISZERO DUP1 ISZERO PUSH2 0x4C1 JUMPI PUSH1 0x0 DUP1 REVERT JUMPDEST POP GAS CALL ISZERO DUP1 ISZERO PUSH2 0x4D5 JUMPI RETURNDATASIZE PUSH1 0x0 DUP1 RETURNDATACOPY RETURNDATASIZE PUSH1 0x0 REVERT JUMPDEST POP POP POP POP PUSH1 0x40 MLOAD RETURNDATASIZE PUSH1 0x0 DUP3 RETURNDATACOPY PUSH1 0x1F RETURNDATASIZE SWAP1 DUP2 ADD PUSH1 0x1F NOT AND DUP3 ADD PUSH1 0x40 MSTORE PUSH2 0x4FD SWAP2 SWAP1 DUP2 ADD SWAP1 PUSH2 0x531 JUMP JUMPDEST POP POP POP POP JUMP JUMPDEST PUSH1 0x0 PUSH1 0x20 DUP3 DUP5 SUB SLT ISZERO PUSH2 0x514 JUMPI DUP1 DUP2 REVERT JUMPDEST DUP2 CALLDATALOAD PUSH1 0x1 PUSH1 0x1 PUSH1 0xA0 SHL SUB DUP2 AND DUP2 EQ PUSH2 0x52A JUMPI DUP2 DUP3 REVERT JUMPDEST SWAP4 SWAP3 POP POP POP JUMP JUMPDEST PUSH1 0x0 PUSH1 0x20 DUP1 DUP4 DUP6 SUB SLT ISZERO PUSH2 0x543 JUMPI DUP2 DUP3 REVERT JUMPDEST DUP3 MLOAD PUSH8 0xFFFFFFFFFFFFFFFF DUP1 DUP3 GT ISZERO PUSH2 0x55A JUMPI DUP4 DUP5 REVERT JUMPDEST DUP2 DUP6 ADD SWAP2 POP DUP6 PUSH1 0x1F DUP4 ADD SLT PUSH2 0x56D JUMPI DUP4 DUP5 REVERT JUMPDEST DUP2 MLOAD DUP2 DUP2 GT ISZERO PUSH2 0x57F JUMPI PUSH2 0x57F PUSH2 0x7B6 JUMP JUMPDEST DUP4 DUP2 MUL PUSH1 0x40 MLOAD DUP6 DUP3 DUP3 ADD ADD DUP2 DUP2 LT DUP6 DUP3 GT OR ISZERO PUSH2 0x59E JUMPI PUSH2 0x59E PUSH2 0x7B6 JUMP JUMPDEST PUSH1 0x40 MSTORE DUP3 DUP2 MSTORE DUP6 DUP2 ADD SWAP4 POP DUP5 DUP7 ADD DUP3 DUP7 ADD DUP8 ADD DUP11 LT ISZERO PUSH2 0x5BC JUMPI DUP8 DUP9 REVERT JUMPDEST DUP8 SWAP6 POP JUMPDEST DUP4 DUP7 LT ISZERO PUSH2 0x5DE JUMPI DUP1 MLOAD DUP6 MSTORE PUSH1 0x1 SWAP6 SWAP1 SWAP6 ADD SWAP5 SWAP4 DUP7 ADD SWAP4 DUP7 ADD PUSH2 0x5C0 JUMP JUMPDEST POP SWAP9 SWAP8 POP POP POP POP POP POP POP POP JUMP JUMPDEST PUSH1 0x0 PUSH1 0x20 DUP3 DUP5 SUB SLT ISZERO PUSH2 0x5FC JUMPI DUP1 DUP2 REVERT JUMPDEST POP MLOAD SWAP2 SWAP1 POP JUMP JUMPDEST PUSH1 0x0 DUP2 MLOAD DUP1 DUP5 MSTORE PUSH1 0x20 DUP1 DUP6 ADD SWAP5 POP DUP1 DUP5 ADD DUP4 JUMPDEST DUP4 DUP2 LT ISZERO PUSH2 0x63B JUMPI DUP2 MLOAD PUSH1 0x1 PUSH1 0x1 PUSH1 0xA0 SHL SUB AND DUP8 MSTORE SWAP6 DUP3 ADD SWAP6 SWAP1 DUP3 ADD SWAP1 PUSH1 0x1 ADD PUSH2 0x616 JUMP JUMPDEST POP SWAP5 SWAP6 SWAP5 POP POP POP POP POP JUMP JUMPDEST SWAP1 JUMP JUMPDEST PUSH1 0x1 PUSH1 0x1 PUSH1 0xA0 SHL SUB SWAP2 SWAP1 SWAP2 AND DUP2 MSTORE PUSH1 0x20 ADD SWAP1 JUMP JUMPDEST PUSH1 0x20 DUP1 DUP3 MSTORE PUSH1 0x15 SWAP1 DUP3 ADD MSTORE PUSH21 0x109390881DDA5D1A191C985DD85B0819985A5B1959 PUSH1 0x5A SHL PUSH1 0x40 DUP3 ADD MSTORE PUSH1 0x60 ADD SWAP1 JUMP JUMPDEST PUSH1 0x20 DUP1 DUP3 MSTORE DUP2 DUP2 ADD MSTORE PUSH32 0x54617267657420746F6B656E206164647265737320616C726561647920736574 PUSH1 0x40 DUP3 ADD MSTORE PUSH1 0x60 ADD SWAP1 JUMP JUMPDEST PUSH1 0x20 DUP1 DUP3 MSTORE PUSH1 0x1C SWAP1 DUP3 ADD MSTORE PUSH32 0x54617267657420746F6B656E2061646472657373206E6F742073657400000000 PUSH1 0x40 DUP3 ADD MSTORE PUSH1 0x60 ADD SWAP1 JUMP JUMPDEST PUSH1 0x0 DUP6 DUP3 MSTORE PUSH1 0x80 PUSH1 0x20 DUP4 ADD MSTORE PUSH2 0x711 PUSH1 0x80 DUP4 ADD DUP7 PUSH2 0x603 JUMP JUMPDEST PUSH1 0x1 PUSH1 0x1 PUSH1 0xA0 SHL SUB SWAP5 SWAP1 SWAP5 AND PUSH1 0x40 DUP4 ADD MSTORE POP PUSH1 0x60 ADD MSTORE SWAP3 SWAP2 POP POP JUMP JUMPDEST PUSH1 0x0 DUP7 DUP3 MSTORE DUP6 PUSH1 0x20 DUP4 ADD MSTORE PUSH1 0xA0 PUSH1 0x40 DUP4 ADD MSTORE PUSH2 0x74C PUSH1 0xA0 DUP4 ADD DUP7 PUSH2 0x603 JUMP JUMPDEST PUSH1 0x1 PUSH1 0x1 PUSH1 0xA0 SHL SUB SWAP5 SWAP1 SWAP5 AND PUSH1 0x60 DUP4 ADD MSTORE POP PUSH1 0x80 ADD MSTORE SWAP4 SWAP3 POP POP POP JUMP JUMPDEST PUSH1 0x0 DUP3 NOT DUP3 GT ISZERO PUSH2 0x77C JUMPI PUSH2 0x77C PUSH2 0x7A0 JUMP JUMPDEST POP ADD SWAP1 JUMP JUMPDEST PUSH1 0x0 DUP2 PUSH1 0x0 NOT DIV DUP4 GT DUP3 ISZERO ISZERO AND ISZERO PUSH2 0x79B JUMPI PUSH2 0x79B PUSH2 0x7A0 JUMP JUMPDEST POP MUL SWAP1 JUMP JUMPDEST PUSH4 0x4E487B71 PUSH1 0xE0 SHL PUSH1 0x0 MSTORE PUSH1 0x11 PUSH1 0x4 MSTORE PUSH1 0x24 PUSH1 0x0 REVERT JUMPDEST PUSH4 0x4E487B71 PUSH1 0xE0 SHL PUSH1 0x0 MSTORE PUSH1 0x41 PUSH1 0x4 MSTORE PUSH1 0x24 PUSH1 0x0 REVERT INVALID LOG2 PUSH5 0x6970667358 0x22 SLT KECCAK256 0x27 0xAB INVALID 0xEF EXTCODEHASH NOT 0xF9 0x2F 0xE2 CALLDATASIZE DUP6 0x25 0xD0 SWAP6 0x5F 0x4D 0x26 0xE5 LOG0 0xC6 0x24 0xAE JUMPI 0x1F 0x23 PUSH24 0x58C257B0965664736F6C6343000800003300000000000000 "
				},
				"gasEstimates": {
					"creation": {
						"codeDepositCost": "410000",
						"executionCost": "21285",
						"totalCost": "431285"
					},
					"external": {
						"setTargetTokenAddress(address)": "21996",
						"swapBNBForToken()": "infinite",
						"withdrawBNB()": "infinite"
					},
					"internal": {
						"getTokenBalance()": "infinite",
						"sellTokensForBNB()": "infinite"
					}
				},
				"methodIdentifiers": {
					"setTargetTokenAddress(address)": "7a0e335c",
					"swapBNBForToken()": "387da661",
					"withdrawBNB()": "1d111d13"
				}
			},
			"storageLayout": {
				"storage": [
					{
						"astId": 121,
						"contract": "contracts/brosniper.sol:PancakeSwapSniper",
						"label": "TARGET_TOKEN_ADDRESS",
						"offset": 0,
						"slot": "0",
						"type": "t_address"
					},
					{
						"astId": 124,
						"contract": "contracts/brosniper.sol:PancakeSwapSniper",
						"label": "router",
						"offset": 0,
						"slot": "1",
						"type": "t_contract(IPancakeSwapRouter)113"
					},
					{
						"astId": 126,
						"contract": "contracts/brosniper.sol:PancakeSwapSniper",
						"label": "initialBNBInvestment",
						"offset": 0,
						"slot": "2",
						"type": "t_uint256"
					},
					{
						"astId": 128,
						"contract": "contracts/brosniper.sol:PancakeSwapSniper",
						"label": "sold",
						"offset": 0,
						"slot": "3",
						"type": "t_bool"
					}
				],
				"types": {
					"t_address": {
						"encoding": "inplace",
						"label": "address",
						"numberOfBytes": "20"
					},
					"t_bool": {
						"encoding": "inplace",
						"label": "bool",
						"numberOfBytes": "1"
					},
					"t_contract(IPancakeSwapRouter)113": {
						"encoding": "inplace",
						"label": "contract IPancakeSwapRouter",
						"numberOfBytes": "20"
					},
					"t_uint256": {
						"encoding": "inplace",
						"label": "uint256",
						"numberOfBytes": "32"
					}
				}
			},
			"userdoc": {
				"kind": "user",
				"methods": {},
				"version": 1
			}
		}
	}
}