{
	"contracts/lottery.sol": {
		"Lottery": {
			"abi": [
				{
					"inputs": [],
					"stateMutability": "nonpayable",
					"type": "constructor"
				},
				{
					"inputs": [],
					"name": "BuyTickets",
					"outputs": [],
					"stateMutability": "payable",
					"type": "function"
				},
				{
					"inputs": [],
					"name": "CurrentWinningReward",
					"outputs": [
						{
							"internalType": "uint256",
							"name": "",
							"type": "uint256"
						}
					],
					"stateMutability": "view",
					"type": "function"
				},
				{
					"inputs": [],
					"name": "DrawWinnerTicket",
					"outputs": [],
					"stateMutability": "nonpayable",
					"type": "function"
				},
				{
					"inputs": [],
					"name": "IsWinner",
					"outputs": [
						{
							"internalType": "bool",
							"name": "",
							"type": "bool"
						}
					],
					"stateMutability": "view",
					"type": "function"
				},
				{
					"inputs": [],
					"name": "RefundAll",
					"outputs": [],
					"stateMutability": "nonpayable",
					"type": "function"
				},
				{
					"inputs": [],
					"name": "RemainingTickets",
					"outputs": [
						{
							"internalType": "uint256",
							"name": "",
							"type": "uint256"
						}
					],
					"stateMutability": "view",
					"type": "function"
				},
				{
					"inputs": [],
					"name": "WithdrawCommission",
					"outputs": [],
					"stateMutability": "nonpayable",
					"type": "function"
				},
				{
					"inputs": [],
					"name": "WithdrawWinnings",
					"outputs": [],
					"stateMutability": "nonpayable",
					"type": "function"
				},
				{
					"inputs": [],
					"name": "checkWinningsAmount",
					"outputs": [
						{
							"internalType": "uint256",
							"name": "",
							"type": "uint256"
						}
					],
					"stateMutability": "view",
					"type": "function"
				},
				{
					"inputs": [],
					"name": "duration",
					"outputs": [
						{
							"internalType": "uint256",
							"name": "",
							"type": "uint256"
						}
					],
					"stateMutability": "view",
					"type": "function"
				},
				{
					"inputs": [],
					"name": "expiration",
					"outputs": [
						{
							"internalType": "uint256",
							"name": "",
							"type": "uint256"
						}
					],
					"stateMutability": "view",
					"type": "function"
				},
				{
					"inputs": [],
					"name": "getTickets",
					"outputs": [
						{
							"internalType": "address[]",
							"name": "",
							"type": "address[]"
						}
					],
					"stateMutability": "view",
					"type": "function"
				},
				{
					"inputs": [
						{
							"internalType": "address",
							"name": "addr",
							"type": "address"
						}
					],
					"name": "getWinningsForAddress",
					"outputs": [
						{
							"internalType": "uint256",
							"name": "",
							"type": "uint256"
						}
					],
					"stateMutability": "view",
					"type": "function"
				},
				{
					"inputs": [],
					"name": "lastWinner",
					"outputs": [
						{
							"internalType": "address",
							"name": "",
							"type": "address"
						}
					],
					"stateMutability": "view",
					"type": "function"
				},
				{
					"inputs": [],
					"name": "lastWinnerAmount",
					"outputs": [
						{
							"internalType": "uint256",
							"name": "",
							"type": "uint256"
						}
					],
					"stateMutability": "view",
					"type": "function"
				},
				{
					"inputs": [],
					"name": "lotteryOperator",
					"outputs": [
						{
							"internalType": "address",
							"name": "",
							"type": "address"
						}
					],
					"stateMutability": "view",
					"type": "function"
				},
				{
					"inputs": [],
					"name": "maxTickets",
					"outputs": [
						{
							"internalType": "uint256",
							"name": "",
							"type": "uint256"
						}
					],
					"stateMutability": "view",
					"type": "function"
				},
				{
					"inputs": [],
					"name": "maxTicketsPerAddress",
					"outputs": [
						{
							"internalType": "uint256",
							"name": "",
							"type": "uint256"
						}
					],
					"stateMutability": "view",
					"type": "function"
				},
				{
					"inputs": [],
					"name": "operatorTotalCommission",
					"outputs": [
						{
							"internalType": "uint256",
							"name": "",
							"type": "uint256"
						}
					],
					"stateMutability": "view",
					"type": "function"
				},
				{
					"inputs": [],
					"name": "restartDraw",
					"outputs": [],
					"stateMutability": "nonpayable",
					"type": "function"
				},
				{
					"inputs": [
						{
							"internalType": "uint256",
							"name": "newMaxTicketsPerAddress",
							"type": "uint256"
						}
					],
					"name": "setMaxTicketsPerAddress",
					"outputs": [],
					"stateMutability": "nonpayable",
					"type": "function"
				},
				{
					"inputs": [],
					"name": "ticketCommission",
					"outputs": [
						{
							"internalType": "uint256",
							"name": "",
							"type": "uint256"
						}
					],
					"stateMutability": "view",
					"type": "function"
				},
				{
					"inputs": [],
					"name": "ticketPrice",
					"outputs": [
						{
							"internalType": "uint256",
							"name": "",
							"type": "uint256"
						}
					],
					"stateMutability": "view",
					"type": "function"
				},
				{
					"inputs": [
						{
							"internalType": "uint256",
							"name": "",
							"type": "uint256"
						}
					],
					"name": "tickets",
					"outputs": [
						{
							"internalType": "address",
							"name": "",
							"type": "address"
						}
					],
					"stateMutability": "view",
					"type": "function"
				},
				{
					"inputs": [
						{
							"internalType": "uint256",
							"name": "newTicketPrice",
							"type": "uint256"
						},
						{
							"internalType": "uint256",
							"name": "newMaxTickets",
							"type": "uint256"
						},
						{
							"internalType": "uint256",
							"name": "newTicketCommission",
							"type": "uint256"
						},
						{
							"internalType": "uint256",
							"name": "newDuration",
							"type": "uint256"
						}
					],
					"name": "updateLotteryParams",
					"outputs": [],
					"stateMutability": "nonpayable",
					"type": "function"
				},
				{
					"inputs": [
						{
							"internalType": "address",
							"name": "",
							"type": "address"
						}
					],
					"name": "winnings",
					"outputs": [
						{
							"internalType": "uint256",
							"name": "",
							"type": "uint256"
						}
					],
					"stateMutability": "view",
					"type": "function"
				}
			],
			"devdoc": {
				"kind": "dev",
				"methods": {},
				"version": 1
			},
			"evm": {
				"assembly": "    /* \"contracts/lottery.sol\":127:5544  contract Lottery {... */\n  mstore(0x40, 0x80)\n    /* \"contracts/lottery.sol\":180:190  0.01 ether */\n  0x2386f26fc10000\n    /* \"contracts/lottery.sol\":151:190  uint256 public ticketPrice = 0.01 ether */\n  0x00\n  sstore\n    /* \"contracts/lottery.sol\":225:228  100 */\n  0x64\n    /* \"contracts/lottery.sol\":197:228  uint256 public maxTickets = 100 */\n  0x01\n  sstore\n    /* \"contracts/lottery.sol\":300:311  0.001 ether */\n  0x038d7ea4c68000\n    /* \"contracts/lottery.sol\":266:311  uint256 public ticketCommission = 0.001 ether */\n  0x02\n  sstore\n    /* \"contracts/lottery.sol\":369:379  30 minutes */\n  0x0708\n    /* \"contracts/lottery.sol\":343:379  uint256 public duration = 30 minutes */\n  0x03\n  sstore\n    /* \"contracts/lottery.sol\":460:461  5 */\n  0x05\n    /* \"contracts/lottery.sol\":422:461  uint256 public maxTicketsPerAddress = 5 */\n  0x04\n  sstore\n    /* \"contracts/lottery.sol\":718:719  0 */\n  0x00\n    /* \"contracts/lottery.sol\":677:719  uint256 public operatorTotalCommission = 0 */\n  0x07\n  sstore\n    /* \"contracts/lottery.sol\":2173:2284  constructor() {... */\n  callvalue\n  dup1\n  iszero\n  tag_1\n  jumpi\n  0x00\n  dup1\n  revert\ntag_1:\n  pop\n    /* \"contracts/lottery.sol\":2216:2226  msg.sender */\n  caller\n    /* \"contracts/lottery.sol\":2198:2213  lotteryOperator */\n  0x06\n  0x00\n    /* \"contracts/lottery.sol\":2198:2226  lotteryOperator = msg.sender */\n  0x0100\n  exp\n  dup2\n  sload\n  dup2\n  0xffffffffffffffffffffffffffffffffffffffff\n  mul\n  not\n  and\n  swap1\n  dup4\n  0xffffffffffffffffffffffffffffffffffffffff\n  and\n  mul\n  or\n  swap1\n  sstore\n  pop\n    /* \"contracts/lottery.sol\":2268:2276  duration */\n  sload(0x03)\n    /* \"contracts/lottery.sol\":2250:2265  block.timestamp */\n  timestamp\n    /* \"contracts/lottery.sol\":2250:2276  block.timestamp + duration */\n  tag_4\n  swap2\n  swap1\n  tag_5\n  jump\t// in\ntag_4:\n    /* \"contracts/lottery.sol\":2237:2247  expiration */\n  0x05\n    /* \"contracts/lottery.sol\":2237:2276  expiration = block.timestamp + duration */\n  dup2\n  swap1\n  sstore\n  pop\n    /* \"contracts/lottery.sol\":127:5544  contract Lottery {... */\n  jump(tag_6)\n    /* \"#utility.yul\":7:84   */\ntag_7:\n    /* \"#utility.yul\":44:51   */\n  0x00\n    /* \"#utility.yul\":73:78   */\n  dup2\n    /* \"#utility.yul\":62:78   */\n  swap1\n  pop\n    /* \"#utility.yul\":7:84   */\n  swap2\n  swap1\n  pop\n  jump\t// out\n    /* \"#utility.yul\":90:270   */\ntag_8:\n    /* \"#utility.yul\":138:215   */\n  0x4e487b7100000000000000000000000000000000000000000000000000000000\n    /* \"#utility.yul\":135:136   */\n  0x00\n    /* \"#utility.yul\":128:216   */\n  mstore\n    /* \"#utility.yul\":235:239   */\n  0x11\n    /* \"#utility.yul\":232:233   */\n  0x04\n    /* \"#utility.yul\":225:240   */\n  mstore\n    /* \"#utility.yul\":259:263   */\n  0x24\n    /* \"#utility.yul\":256:257   */\n  0x00\n    /* \"#utility.yul\":249:264   */\n  revert\n    /* \"#utility.yul\":276:467   */\ntag_5:\n    /* \"#utility.yul\":316:319   */\n  0x00\n    /* \"#utility.yul\":335:355   */\n  tag_13\n    /* \"#utility.yul\":353:354   */\n  dup3\n    /* \"#utility.yul\":335:355   */\n  tag_7\n  jump\t// in\ntag_13:\n    /* \"#utility.yul\":330:355   */\n  swap2\n  pop\n    /* \"#utility.yul\":369:389   */\n  tag_14\n    /* \"#utility.yul\":387:388   */\n  dup4\n    /* \"#utility.yul\":369:389   */\n  tag_7\n  jump\t// in\ntag_14:\n    /* \"#utility.yul\":364:389   */\n  swap3\n  pop\n    /* \"#utility.yul\":412:413   */\n  dup3\n    /* \"#utility.yul\":409:410   */\n  dup3\n    /* \"#utility.yul\":405:414   */\n  add\n    /* \"#utility.yul\":398:414   */\n  swap1\n  pop\n    /* \"#utility.yul\":433:436   */\n  dup1\n    /* \"#utility.yul\":430:431   */\n  dup3\n    /* \"#utility.yul\":427:437   */\n  gt\n    /* \"#utility.yul\":424:460   */\n  iszero\n  tag_15\n  jumpi\n    /* \"#utility.yul\":440:458   */\n  tag_16\n  tag_8\n  jump\t// in\ntag_16:\n    /* \"#utility.yul\":424:460   */\ntag_15:\n    /* \"#utility.yul\":276:467   */\n  swap3\n  swap2\n  pop\n  pop\n  jump\t// out\n    /* \"contracts/lottery.sol\":127:5544  contract Lottery {... */\ntag_6:\n  dataSize(sub_0)\n  dup1\n  dataOffset(sub_0)\n  0x00\n  codecopy\n  0x00\n  return\nstop\n\nsub_0: assembly {\n        /* \"contracts/lottery.sol\":127:5544  contract Lottery {... */\n      mstore(0x40, 0x80)\n      jumpi(tag_1, lt(calldatasize, 0x04))\n      shr(0xe0, calldataload(0x00))\n      dup1\n      0x71827b7b\n      gt\n      tag_28\n      jumpi\n      dup1\n      0xa88f4672\n      gt\n      tag_29\n      jumpi\n      dup1\n      0xdd64e534\n      gt\n      tag_30\n      jumpi\n      dup1\n      0xdd64e534\n      eq\n      tag_24\n      jumpi\n      dup1\n      0xea3a1499\n      eq\n      tag_25\n      jumpi\n      dup1\n      0xf2613269\n      eq\n      tag_26\n      jumpi\n      dup1\n      0xfe188184\n      eq\n      tag_27\n      jumpi\n      jump(tag_1)\n    tag_30:\n      dup1\n      0xa88f4672\n      eq\n      tag_21\n      jumpi\n      dup1\n      0xba946d79\n      eq\n      tag_22\n      jumpi\n      dup1\n      0xc6944fa0\n      eq\n      tag_23\n      jumpi\n      jump(tag_1)\n    tag_29:\n      dup1\n      0x71827b7b\n      eq\n      tag_15\n      jumpi\n      dup1\n      0x91d8b14e\n      eq\n      tag_16\n      jumpi\n      dup1\n      0x93a563b5\n      eq\n      tag_17\n      jumpi\n      dup1\n      0x96c85ef3\n      eq\n      tag_18\n      jumpi\n      dup1\n      0x9802cf2f\n      eq\n      tag_19\n      jumpi\n      dup1\n      0x9b894703\n      eq\n      tag_20\n      jumpi\n      jump(tag_1)\n    tag_28:\n      dup1\n      0x463a94a5\n      gt\n      tag_31\n      jumpi\n      dup1\n      0x4ed02622\n      gt\n      tag_32\n      jumpi\n      dup1\n      0x4ed02622\n      eq\n      tag_11\n      jumpi\n      dup1\n      0x50b44712\n      eq\n      tag_12\n      jumpi\n      dup1\n      0x5a58acdd\n      eq\n      tag_13\n      jumpi\n      dup1\n      0x6032a4f9\n      eq\n      tag_14\n      jumpi\n      jump(tag_1)\n    tag_32:\n      dup1\n      0x463a94a5\n      eq\n      tag_8\n      jumpi\n      dup1\n      0x4665096d\n      eq\n      tag_9\n      jumpi\n      dup1\n      0x4788af7c\n      eq\n      tag_10\n      jumpi\n      jump(tag_1)\n    tag_31:\n      dup1\n      0x06f7f3bf\n      eq\n      tag_2\n      jumpi\n      dup1\n      0x0789c607\n      eq\n      tag_3\n      jumpi\n      dup1\n      0x0fb5a6b4\n      eq\n      tag_4\n      jumpi\n      dup1\n      0x1209b1f6\n      eq\n      tag_5\n      jumpi\n      dup1\n      0x35580df2\n      eq\n      tag_6\n      jumpi\n      dup1\n      0x44a8c611\n      eq\n      tag_7\n      jumpi\n    tag_1:\n      0x00\n      dup1\n      revert\n        /* \"contracts/lottery.sol\":824:855  uint256 public lastWinnerAmount */\n    tag_2:\n      callvalue\n      dup1\n      iszero\n      tag_33\n      jumpi\n      0x00\n      dup1\n      revert\n    tag_33:\n      pop\n      tag_34\n      tag_35\n      jump\t// in\n    tag_34:\n      mload(0x40)\n      tag_36\n      swap2\n      swap1\n      tag_37\n      jump\t// in\n    tag_36:\n      mload(0x40)\n      dup1\n      swap2\n      sub\n      swap1\n      return\n        /* \"contracts/lottery.sol\":4107:4321  function checkWinningsAmount() public view returns (uint256) {... */\n    tag_3:\n      callvalue\n      dup1\n      iszero\n      tag_38\n      jumpi\n      0x00\n      dup1\n      revert\n    tag_38:\n      pop\n      tag_39\n      tag_40\n      jump\t// in\n    tag_39:\n      mload(0x40)\n      tag_41\n      swap2\n      swap1\n      tag_37\n      jump\t// in\n    tag_41:\n      mload(0x40)\n      dup1\n      swap2\n      sub\n      swap1\n      return\n        /* \"contracts/lottery.sol\":343:379  uint256 public duration = 30 minutes */\n    tag_4:\n      callvalue\n      dup1\n      iszero\n      tag_42\n      jumpi\n      0x00\n      dup1\n      revert\n    tag_42:\n      pop\n      tag_43\n      tag_44\n      jump\t// in\n    tag_43:\n      mload(0x40)\n      tag_45\n      swap2\n      swap1\n      tag_37\n      jump\t// in\n    tag_45:\n      mload(0x40)\n      dup1\n      swap2\n      sub\n      swap1\n      return\n        /* \"contracts/lottery.sol\":151:190  uint256 public ticketPrice = 0.01 ether */\n    tag_5:\n      callvalue\n      dup1\n      iszero\n      tag_46\n      jumpi\n      0x00\n      dup1\n      revert\n    tag_46:\n      pop\n      tag_47\n      tag_48\n      jump\t// in\n    tag_47:\n      mload(0x40)\n      tag_49\n      swap2\n      swap1\n      tag_37\n      jump\t// in\n    tag_49:\n      mload(0x40)\n      dup1\n      swap2\n      sub\n      swap1\n      return\n        /* \"contracts/lottery.sol\":4925:5193  function WithdrawCommission() public isOperator {... */\n    tag_6:\n      callvalue\n      dup1\n      iszero\n      tag_50\n      jumpi\n      0x00\n      dup1\n      revert\n    tag_50:\n      pop\n      tag_51\n      tag_52\n      jump\t// in\n    tag_51:\n      stop\n        /* \"contracts/lottery.sol\":1397:1752  function updateLotteryParams(... */\n    tag_7:\n      callvalue\n      dup1\n      iszero\n      tag_53\n      jumpi\n      0x00\n      dup1\n      revert\n    tag_53:\n      pop\n      tag_54\n      0x04\n      dup1\n      calldatasize\n      sub\n      dup2\n      add\n      swap1\n      tag_55\n      swap2\n      swap1\n      tag_56\n      jump\t// in\n    tag_55:\n      tag_57\n      jump\t// in\n    tag_54:\n      stop\n        /* \"contracts/lottery.sol\":422:461  uint256 public maxTicketsPerAddress = 5 */\n    tag_8:\n      callvalue\n      dup1\n      iszero\n      tag_58\n      jumpi\n      0x00\n      dup1\n      revert\n    tag_58:\n      pop\n      tag_59\n      tag_60\n      jump\t// in\n    tag_59:\n      mload(0x40)\n      tag_61\n      swap2\n      swap1\n      tag_37\n      jump\t// in\n    tag_61:\n      mload(0x40)\n      dup1\n      swap2\n      sub\n      swap1\n      return\n        /* \"contracts/lottery.sol\":522:547  uint256 public expiration */\n    tag_9:\n      callvalue\n      dup1\n      iszero\n      tag_62\n      jumpi\n      0x00\n      dup1\n      revert\n    tag_62:\n      pop\n      tag_63\n      tag_64\n      jump\t// in\n    tag_63:\n      mload(0x40)\n      tag_65\n      swap2\n      swap1\n      tag_37\n      jump\t// in\n    tag_65:\n      mload(0x40)\n      dup1\n      swap2\n      sub\n      swap1\n      return\n        /* \"contracts/lottery.sol\":3146:3884  function DrawWinnerTicket() public isOperator {... */\n    tag_10:\n      callvalue\n      dup1\n      iszero\n      tag_66\n      jumpi\n      0x00\n      dup1\n      revert\n    tag_66:\n      pop\n      tag_67\n      tag_68\n      jump\t// in\n    tag_67:\n      stop\n        /* \"contracts/lottery.sol\":2323:2417  function getTickets() public view returns (address[] memory) {... */\n    tag_11:\n      callvalue\n      dup1\n      iszero\n      tag_69\n      jumpi\n      0x00\n      dup1\n      revert\n    tag_69:\n      pop\n      tag_70\n      tag_71\n      jump\t// in\n    tag_70:\n      mload(0x40)\n      tag_72\n      swap2\n      swap1\n      tag_73\n      jump\t// in\n    tag_72:\n      mload(0x40)\n      dup1\n      swap2\n      sub\n      swap1\n      return\n        /* \"contracts/lottery.sol\":993:1017  address[] public tickets */\n    tag_12:\n      callvalue\n      dup1\n      iszero\n      tag_74\n      jumpi\n      0x00\n      dup1\n      revert\n    tag_74:\n      pop\n      tag_75\n      0x04\n      dup1\n      calldatasize\n      sub\n      dup2\n      add\n      swap1\n      tag_76\n      swap2\n      swap1\n      tag_77\n      jump\t// in\n    tag_76:\n      tag_78\n      jump\t// in\n    tag_75:\n      mload(0x40)\n      tag_79\n      swap2\n      swap1\n      tag_80\n      jump\t// in\n    tag_79:\n      mload(0x40)\n      dup1\n      swap2\n      sub\n      swap1\n      return\n        /* \"contracts/lottery.sol\":611:641  address public lotteryOperator */\n    tag_13:\n      callvalue\n      dup1\n      iszero\n      tag_81\n      jumpi\n      0x00\n      dup1\n      revert\n    tag_81:\n      pop\n      tag_82\n      tag_83\n      jump\t// in\n    tag_82:\n      mload(0x40)\n      tag_84\n      swap2\n      swap1\n      tag_80\n      jump\t// in\n    tag_84:\n      mload(0x40)\n      dup1\n      swap2\n      sub\n      swap1\n      return\n        /* \"contracts/lottery.sol\":266:311  uint256 public ticketCommission = 0.001 ether */\n    tag_14:\n      callvalue\n      dup1\n      iszero\n      tag_85\n      jumpi\n      0x00\n      dup1\n      revert\n    tag_85:\n      pop\n      tag_86\n      tag_87\n      jump\t// in\n    tag_86:\n      mload(0x40)\n      tag_88\n      swap2\n      swap1\n      tag_37\n      jump\t// in\n    tag_88:\n      mload(0x40)\n      dup1\n      swap2\n      sub\n      swap1\n      return\n        /* \"contracts/lottery.sol\":4329:4567  function WithdrawWinnings() public isWinner {... */\n    tag_15:\n      callvalue\n      dup1\n      iszero\n      tag_89\n      jumpi\n      0x00\n      dup1\n      revert\n    tag_89:\n      pop\n      tag_90\n      tag_91\n      jump\t// in\n    tag_90:\n      stop\n        /* \"contracts/lottery.sol\":2548:3138  function BuyTickets() public payable {... */\n    tag_16:\n      tag_92\n      tag_93\n      jump\t// in\n    tag_92:\n      stop\n        /* \"contracts/lottery.sol\":5430:5541  function RemainingTickets() public view returns (uint256) {... */\n    tag_17:\n      callvalue\n      dup1\n      iszero\n      tag_94\n      jumpi\n      0x00\n      dup1\n      revert\n    tag_94:\n      pop\n      tag_95\n      tag_96\n      jump\t// in\n    tag_95:\n      mload(0x40)\n      tag_97\n      swap2\n      swap1\n      tag_37\n      jump\t// in\n    tag_97:\n      mload(0x40)\n      dup1\n      swap2\n      sub\n      swap1\n      return\n        /* \"contracts/lottery.sol\":5201:5298  function IsWinner() public view returns (bool) {... */\n    tag_18:\n      callvalue\n      dup1\n      iszero\n      tag_98\n      jumpi\n      0x00\n      dup1\n      revert\n    tag_98:\n      pop\n      tag_99\n      tag_100\n      jump\t// in\n    tag_99:\n      mload(0x40)\n      tag_101\n      swap2\n      swap1\n      tag_102\n      jump\t// in\n    tag_101:\n      mload(0x40)\n      dup1\n      swap2\n      sub\n      swap1\n      return\n        /* \"contracts/lottery.sol\":1837:2011  function setMaxTicketsPerAddress(uint256 newMaxTicketsPerAddress)... */\n    tag_19:\n      callvalue\n      dup1\n      iszero\n      tag_103\n      jumpi\n      0x00\n      dup1\n      revert\n    tag_103:\n      pop\n      tag_104\n      0x04\n      dup1\n      calldatasize\n      sub\n      dup2\n      add\n      swap1\n      tag_105\n      swap2\n      swap1\n      tag_77\n      jump\t// in\n    tag_105:\n      tag_106\n      jump\t// in\n    tag_104:\n      stop\n        /* \"contracts/lottery.sol\":197:228  uint256 public maxTickets = 100 */\n    tag_20:\n      callvalue\n      dup1\n      iszero\n      tag_107\n      jumpi\n      0x00\n      dup1\n      revert\n    tag_107:\n      pop\n      tag_108\n      tag_109\n      jump\t// in\n    tag_108:\n      mload(0x40)\n      tag_110\n      swap2\n      swap1\n      tag_37\n      jump\t// in\n    tag_110:\n      mload(0x40)\n      dup1\n      swap2\n      sub\n      swap1\n      return\n        /* \"contracts/lottery.sol\":4575:4917  function RefundAll() public {... */\n    tag_21:\n      callvalue\n      dup1\n      iszero\n      tag_111\n      jumpi\n      0x00\n      dup1\n      revert\n    tag_111:\n      pop\n      tag_112\n      tag_113\n      jump\t// in\n    tag_112:\n      stop\n        /* \"contracts/lottery.sol\":677:719  uint256 public operatorTotalCommission = 0 */\n    tag_22:\n      callvalue\n      dup1\n      iszero\n      tag_114\n      jumpi\n      0x00\n      dup1\n      revert\n    tag_114:\n      pop\n      tag_115\n      tag_116\n      jump\t// in\n    tag_115:\n      mload(0x40)\n      tag_117\n      swap2\n      swap1\n      tag_37\n      jump\t// in\n    tag_117:\n      mload(0x40)\n      dup1\n      swap2\n      sub\n      swap1\n      return\n        /* \"contracts/lottery.sol\":5306:5422  function CurrentWinningReward() public view returns (uint256) {... */\n    tag_23:\n      callvalue\n      dup1\n      iszero\n      tag_118\n      jumpi\n      0x00\n      dup1\n      revert\n    tag_118:\n      pop\n      tag_119\n      tag_120\n      jump\t// in\n    tag_119:\n      mload(0x40)\n      tag_121\n      swap2\n      swap1\n      tag_37\n      jump\t// in\n    tag_121:\n      mload(0x40)\n      dup1\n      swap2\n      sub\n      swap1\n      return\n        /* \"contracts/lottery.sol\":2425:2540  function getWinningsForAddress(address addr) public view returns (uint256) {... */\n    tag_24:\n      callvalue\n      dup1\n      iszero\n      tag_122\n      jumpi\n      0x00\n      dup1\n      revert\n    tag_122:\n      pop\n      tag_123\n      0x04\n      dup1\n      calldatasize\n      sub\n      dup2\n      add\n      swap1\n      tag_124\n      swap2\n      swap1\n      tag_125\n      jump\t// in\n    tag_124:\n      tag_126\n      jump\t// in\n    tag_123:\n      mload(0x40)\n      tag_127\n      swap2\n      swap1\n      tag_37\n      jump\t// in\n    tag_127:\n      mload(0x40)\n      dup1\n      swap2\n      sub\n      swap1\n      return\n        /* \"contracts/lottery.sol\":905:948  mapping(address => uint256) public winnings */\n    tag_25:\n      callvalue\n      dup1\n      iszero\n      tag_128\n      jumpi\n      0x00\n      dup1\n      revert\n    tag_128:\n      pop\n      tag_129\n      0x04\n      dup1\n      calldatasize\n      sub\n      dup2\n      add\n      swap1\n      tag_130\n      swap2\n      swap1\n      tag_125\n      jump\t// in\n    tag_130:\n      tag_131\n      jump\t// in\n    tag_129:\n      mload(0x40)\n      tag_132\n      swap2\n      swap1\n      tag_37\n      jump\t// in\n    tag_132:\n      mload(0x40)\n      dup1\n      swap2\n      sub\n      swap1\n      return\n        /* \"contracts/lottery.sol\":3892:4099  function restartDraw() public isOperator {... */\n    tag_26:\n      callvalue\n      dup1\n      iszero\n      tag_133\n      jumpi\n      0x00\n      dup1\n      revert\n    tag_133:\n      pop\n      tag_134\n      tag_135\n      jump\t// in\n    tag_134:\n      stop\n        /* \"contracts/lottery.sol\":758:783  address public lastWinner */\n    tag_27:\n      callvalue\n      dup1\n      iszero\n      tag_136\n      jumpi\n      0x00\n      dup1\n      revert\n    tag_136:\n      pop\n      tag_137\n      tag_138\n      jump\t// in\n    tag_137:\n      mload(0x40)\n      tag_139\n      swap2\n      swap1\n      tag_80\n      jump\t// in\n    tag_139:\n      mload(0x40)\n      dup1\n      swap2\n      sub\n      swap1\n      return\n        /* \"contracts/lottery.sol\":824:855  uint256 public lastWinnerAmount */\n    tag_35:\n      sload(0x09)\n      dup2\n      jump\t// out\n        /* \"contracts/lottery.sol\":4107:4321  function checkWinningsAmount() public view returns (uint256) {... */\n    tag_40:\n        /* \"contracts/lottery.sol\":4159:4166  uint256 */\n      0x00\n        /* \"contracts/lottery.sol\":4179:4201  address payable winner */\n      dup1\n        /* \"contracts/lottery.sol\":4212:4222  msg.sender */\n      caller\n        /* \"contracts/lottery.sol\":4179:4223  address payable winner = payable(msg.sender) */\n      swap1\n      pop\n        /* \"contracts/lottery.sol\":4236:4259  uint256 reward2Transfer */\n      0x00\n        /* \"contracts/lottery.sol\":4262:4270  winnings */\n      0x0a\n        /* \"contracts/lottery.sol\":4262:4278  winnings[winner] */\n      0x00\n        /* \"contracts/lottery.sol\":4271:4277  winner */\n      dup4\n        /* \"contracts/lottery.sol\":4262:4278  winnings[winner] */\n      0xffffffffffffffffffffffffffffffffffffffff\n      and\n      0xffffffffffffffffffffffffffffffffffffffff\n      and\n      dup2\n      mstore\n      0x20\n      add\n      swap1\n      dup2\n      mstore\n      0x20\n      add\n      0x00\n      keccak256\n      sload\n        /* \"contracts/lottery.sol\":4236:4278  uint256 reward2Transfer = winnings[winner] */\n      swap1\n      pop\n        /* \"contracts/lottery.sol\":4298:4313  reward2Transfer */\n      dup1\n        /* \"contracts/lottery.sol\":4291:4313  return reward2Transfer */\n      swap3\n      pop\n      pop\n      pop\n        /* \"contracts/lottery.sol\":4107:4321  function checkWinningsAmount() public view returns (uint256) {... */\n      swap1\n      jump\t// out\n        /* \"contracts/lottery.sol\":343:379  uint256 public duration = 30 minutes */\n    tag_44:\n      sload(0x03)\n      dup2\n      jump\t// out\n        /* \"contracts/lottery.sol\":151:190  uint256 public ticketPrice = 0.01 ether */\n    tag_48:\n      sload(0x00)\n      dup2\n      jump\t// out\n        /* \"contracts/lottery.sol\":4925:5193  function WithdrawCommission() public isOperator {... */\n    tag_52:\n        /* \"contracts/lottery.sol\":1185:1200  lotteryOperator */\n      0x06\n      0x00\n      swap1\n      sload\n      swap1\n      0x0100\n      exp\n      swap1\n      div\n      0xffffffffffffffffffffffffffffffffffffffff\n      and\n        /* \"contracts/lottery.sol\":1171:1200  msg.sender == lotteryOperator */\n      0xffffffffffffffffffffffffffffffffffffffff\n      and\n        /* \"contracts/lottery.sol\":1171:1181  msg.sender */\n      caller\n        /* \"contracts/lottery.sol\":1171:1200  msg.sender == lotteryOperator */\n      0xffffffffffffffffffffffffffffffffffffffff\n      and\n      eq\n        /* \"contracts/lottery.sol\":1148:1263  require(... */\n      tag_142\n      jumpi\n      mload(0x40)\n      0x08c379a000000000000000000000000000000000000000000000000000000000\n      dup2\n      mstore\n      0x04\n      add\n      tag_143\n      swap1\n      tag_144\n      jump\t// in\n    tag_143:\n      mload(0x40)\n      dup1\n      swap2\n      sub\n      swap1\n      revert\n    tag_142:\n        /* \"contracts/lottery.sol\":4984:5008  address payable operator */\n      0x00\n        /* \"contracts/lottery.sol\":5019:5029  msg.sender */\n      caller\n        /* \"contracts/lottery.sol\":4984:5030  address payable operator = payable(msg.sender) */\n      swap1\n      pop\n        /* \"contracts/lottery.sol\":5043:5070  uint256 commission2Transfer */\n      0x00\n        /* \"contracts/lottery.sol\":5073:5096  operatorTotalCommission */\n      sload(0x07)\n        /* \"contracts/lottery.sol\":5043:5096  uint256 commission2Transfer = operatorTotalCommission */\n      swap1\n      pop\n        /* \"contracts/lottery.sol\":5133:5134  0 */\n      0x00\n        /* \"contracts/lottery.sol\":5107:5130  operatorTotalCommission */\n      0x07\n        /* \"contracts/lottery.sol\":5107:5134  operatorTotalCommission = 0 */\n      dup2\n      swap1\n      sstore\n      pop\n        /* \"contracts/lottery.sol\":5147:5155  operator */\n      dup2\n        /* \"contracts/lottery.sol\":5147:5164  operator.transfer */\n      0xffffffffffffffffffffffffffffffffffffffff\n      and\n        /* \"contracts/lottery.sol\":5147:5185  operator.transfer(commission2Transfer) */\n      0x08fc\n        /* \"contracts/lottery.sol\":5165:5184  commission2Transfer */\n      dup3\n        /* \"contracts/lottery.sol\":5147:5185  operator.transfer(commission2Transfer) */\n      swap1\n      dup2\n      iszero\n      mul\n      swap1\n      mload(0x40)\n      0x00\n      mload(0x40)\n      dup1\n      dup4\n      sub\n      dup2\n      dup6\n      dup9\n      dup9\n      call\n      swap4\n      pop\n      pop\n      pop\n      pop\n      iszero\n      dup1\n      iszero\n      tag_147\n      jumpi\n      returndatasize\n      0x00\n      dup1\n      returndatacopy\n      revert(0x00, returndatasize)\n    tag_147:\n      pop\n        /* \"contracts/lottery.sol\":4973:5193  {... */\n      pop\n      pop\n        /* \"contracts/lottery.sol\":4925:5193  function WithdrawCommission() public isOperator {... */\n      jump\t// out\n        /* \"contracts/lottery.sol\":1397:1752  function updateLotteryParams(... */\n    tag_57:\n        /* \"contracts/lottery.sol\":1185:1200  lotteryOperator */\n      0x06\n      0x00\n      swap1\n      sload\n      swap1\n      0x0100\n      exp\n      swap1\n      div\n      0xffffffffffffffffffffffffffffffffffffffff\n      and\n        /* \"contracts/lottery.sol\":1171:1200  msg.sender == lotteryOperator */\n      0xffffffffffffffffffffffffffffffffffffffff\n      and\n        /* \"contracts/lottery.sol\":1171:1181  msg.sender */\n      caller\n        /* \"contracts/lottery.sol\":1171:1200  msg.sender == lotteryOperator */\n      0xffffffffffffffffffffffffffffffffffffffff\n      and\n      eq\n        /* \"contracts/lottery.sol\":1148:1263  require(... */\n      tag_149\n      jumpi\n      mload(0x40)\n      0x08c379a000000000000000000000000000000000000000000000000000000000\n      dup2\n      mstore\n      0x04\n      add\n      tag_150\n      swap1\n      tag_144\n      jump\t// in\n    tag_150:\n      mload(0x40)\n      dup1\n      swap2\n      sub\n      swap1\n      revert\n    tag_149:\n        /* \"contracts/lottery.sol\":1611:1625  newTicketPrice */\n      dup4\n        /* \"contracts/lottery.sol\":1597:1608  ticketPrice */\n      0x00\n        /* \"contracts/lottery.sol\":1597:1625  ticketPrice = newTicketPrice */\n      dup2\n      swap1\n      sstore\n      pop\n        /* \"contracts/lottery.sol\":1649:1662  newMaxTickets */\n      dup3\n        /* \"contracts/lottery.sol\":1636:1646  maxTickets */\n      0x01\n        /* \"contracts/lottery.sol\":1636:1662  maxTickets = newMaxTickets */\n      dup2\n      swap1\n      sstore\n      pop\n        /* \"contracts/lottery.sol\":1692:1711  newTicketCommission */\n      dup2\n        /* \"contracts/lottery.sol\":1673:1689  ticketCommission */\n      0x02\n        /* \"contracts/lottery.sol\":1673:1711  ticketCommission = newTicketCommission */\n      dup2\n      swap1\n      sstore\n      pop\n        /* \"contracts/lottery.sol\":1733:1744  newDuration */\n      dup1\n        /* \"contracts/lottery.sol\":1722:1730  duration */\n      0x03\n        /* \"contracts/lottery.sol\":1722:1744  duration = newDuration */\n      dup2\n      swap1\n      sstore\n      pop\n        /* \"contracts/lottery.sol\":1397:1752  function updateLotteryParams(... */\n      pop\n      pop\n      pop\n      pop\n      jump\t// out\n        /* \"contracts/lottery.sol\":422:461  uint256 public maxTicketsPerAddress = 5 */\n    tag_60:\n      sload(0x04)\n      dup2\n      jump\t// out\n        /* \"contracts/lottery.sol\":522:547  uint256 public expiration */\n    tag_64:\n      sload(0x05)\n      dup2\n      jump\t// out\n        /* \"contracts/lottery.sol\":3146:3884  function DrawWinnerTicket() public isOperator {... */\n    tag_68:\n        /* \"contracts/lottery.sol\":1185:1200  lotteryOperator */\n      0x06\n      0x00\n      swap1\n      sload\n      swap1\n      0x0100\n      exp\n      swap1\n      div\n      0xffffffffffffffffffffffffffffffffffffffff\n      and\n        /* \"contracts/lottery.sol\":1171:1200  msg.sender == lotteryOperator */\n      0xffffffffffffffffffffffffffffffffffffffff\n      and\n        /* \"contracts/lottery.sol\":1171:1181  msg.sender */\n      caller\n        /* \"contracts/lottery.sol\":1171:1200  msg.sender == lotteryOperator */\n      0xffffffffffffffffffffffffffffffffffffffff\n      and\n      eq\n        /* \"contracts/lottery.sol\":1148:1263  require(... */\n      tag_153\n      jumpi\n      mload(0x40)\n      0x08c379a000000000000000000000000000000000000000000000000000000000\n      dup2\n      mstore\n      0x04\n      add\n      tag_154\n      swap1\n      tag_144\n      jump\t// in\n    tag_154:\n      mload(0x40)\n      dup1\n      swap2\n      sub\n      swap1\n      revert\n    tag_153:\n        /* \"contracts/lottery.sol\":3228:3229  0 */\n      0x00\n        /* \"contracts/lottery.sol\":3211:3218  tickets */\n      0x0b\n        /* \"contracts/lottery.sol\":3211:3225  tickets.length */\n      dup1\n      sload\n      swap1\n      pop\n        /* \"contracts/lottery.sol\":3211:3229  tickets.length > 0 */\n      gt\n        /* \"contracts/lottery.sol\":3203:3259  require(tickets.length > 0, \"No tickets were purchased\") */\n      tag_156\n      jumpi\n      mload(0x40)\n      0x08c379a000000000000000000000000000000000000000000000000000000000\n      dup2\n      mstore\n      0x04\n      add\n      tag_157\n      swap1\n      tag_158\n      jump\t// in\n    tag_157:\n      mload(0x40)\n      dup1\n      swap2\n      sub\n      swap1\n      revert\n    tag_156:\n        /* \"contracts/lottery.sol\":3272:3289  bytes32 blockHash */\n      0x00\n        /* \"contracts/lottery.sol\":3317:3324  tickets */\n      0x0b\n        /* \"contracts/lottery.sol\":3317:3331  tickets.length */\n      dup1\n      sload\n      swap1\n      pop\n        /* \"contracts/lottery.sol\":3302:3314  block.number */\n      number\n        /* \"contracts/lottery.sol\":3302:3331  block.number - tickets.length */\n      tag_159\n      swap2\n      swap1\n      tag_160\n      jump\t// in\n    tag_159:\n        /* \"contracts/lottery.sol\":3292:3332  blockhash(block.number - tickets.length) */\n      blockhash\n        /* \"contracts/lottery.sol\":3272:3332  bytes32 blockHash = blockhash(block.number - tickets.length) */\n      swap1\n      pop\n        /* \"contracts/lottery.sol\":3343:3363  uint256 randomNumber */\n      0x00\n        /* \"contracts/lottery.sol\":3415:3430  block.timestamp */\n      timestamp\n        /* \"contracts/lottery.sol\":3432:3441  blockHash */\n      dup3\n        /* \"contracts/lottery.sol\":3398:3442  abi.encodePacked(block.timestamp, blockHash) */\n      add(0x20, mload(0x40))\n      tag_161\n      swap3\n      swap2\n      swap1\n      tag_162\n      jump\t// in\n    tag_161:\n      mload(0x40)\n      0x20\n      dup2\n      dup4\n      sub\n      sub\n      dup2\n      mstore\n      swap1\n      0x40\n      mstore\n        /* \"contracts/lottery.sol\":3388:3443  keccak256(abi.encodePacked(block.timestamp, blockHash)) */\n      dup1\n      mload\n      swap1\n      0x20\n      add\n      keccak256\n        /* \"contracts/lottery.sol\":3366:3454  uint256(... */\n      0x00\n      shr\n        /* \"contracts/lottery.sol\":3343:3454  uint256 randomNumber = uint256(... */\n      swap1\n      pop\n        /* \"contracts/lottery.sol\":3465:3486  uint256 winningTicket */\n      0x00\n        /* \"contracts/lottery.sol\":3504:3511  tickets */\n      0x0b\n        /* \"contracts/lottery.sol\":3504:3518  tickets.length */\n      dup1\n      sload\n      swap1\n      pop\n        /* \"contracts/lottery.sol\":3489:3501  randomNumber */\n      dup3\n        /* \"contracts/lottery.sol\":3489:3518  randomNumber % tickets.length */\n      tag_163\n      swap2\n      swap1\n      tag_164\n      jump\t// in\n    tag_163:\n        /* \"contracts/lottery.sol\":3465:3518  uint256 winningTicket = randomNumber % tickets.length */\n      swap1\n      pop\n        /* \"contracts/lottery.sol\":3531:3545  address winner */\n      0x00\n        /* \"contracts/lottery.sol\":3548:3555  tickets */\n      0x0b\n        /* \"contracts/lottery.sol\":3556:3569  winningTicket */\n      dup3\n        /* \"contracts/lottery.sol\":3548:3570  tickets[winningTicket] */\n      dup2\n      sload\n      dup2\n      lt\n      tag_165\n      jumpi\n      tag_166\n      tag_167\n      jump\t// in\n    tag_166:\n    tag_165:\n      swap1\n      0x00\n      mstore\n      keccak256(0x00, 0x20)\n      add\n      0x00\n      swap1\n      sload\n      swap1\n      0x0100\n      exp\n      swap1\n      div\n      0xffffffffffffffffffffffffffffffffffffffff\n      and\n        /* \"contracts/lottery.sol\":3531:3570  address winner = tickets[winningTicket] */\n      swap1\n      pop\n        /* \"contracts/lottery.sol\":3594:3600  winner */\n      dup1\n        /* \"contracts/lottery.sol\":3581:3591  lastWinner */\n      0x08\n      0x00\n        /* \"contracts/lottery.sol\":3581:3600  lastWinner = winner */\n      0x0100\n      exp\n      dup2\n      sload\n      dup2\n      0xffffffffffffffffffffffffffffffffffffffff\n      mul\n      not\n      and\n      swap1\n      dup4\n      0xffffffffffffffffffffffffffffffffffffffff\n      and\n      mul\n      or\n      swap1\n      sstore\n      pop\n        /* \"contracts/lottery.sol\":3664:3680  ticketCommission */\n      sload(0x02)\n        /* \"contracts/lottery.sol\":3650:3661  ticketPrice */\n      sload(0x00)\n        /* \"contracts/lottery.sol\":3650:3680  ticketPrice - ticketCommission */\n      tag_169\n      swap2\n      swap1\n      tag_160\n      jump\t// in\n    tag_169:\n        /* \"contracts/lottery.sol\":3632:3639  tickets */\n      0x0b\n        /* \"contracts/lottery.sol\":3632:3646  tickets.length */\n      dup1\n      sload\n      swap1\n      pop\n        /* \"contracts/lottery.sol\":3632:3681  tickets.length * (ticketPrice - ticketCommission) */\n      tag_170\n      swap2\n      swap1\n      tag_171\n      jump\t// in\n    tag_170:\n        /* \"contracts/lottery.sol\":3611:3619  winnings */\n      0x0a\n        /* \"contracts/lottery.sol\":3611:3627  winnings[winner] */\n      0x00\n        /* \"contracts/lottery.sol\":3620:3626  winner */\n      dup4\n        /* \"contracts/lottery.sol\":3611:3627  winnings[winner] */\n      0xffffffffffffffffffffffffffffffffffffffff\n      and\n      0xffffffffffffffffffffffffffffffffffffffff\n      and\n      dup2\n      mstore\n      0x20\n      add\n      swap1\n      dup2\n      mstore\n      0x20\n      add\n      0x00\n      keccak256\n      0x00\n        /* \"contracts/lottery.sol\":3611:3682  winnings[winner] += (tickets.length * (ticketPrice - ticketCommission)) */\n      dup3\n      dup3\n      sload\n      tag_172\n      swap2\n      swap1\n      tag_173\n      jump\t// in\n    tag_172:\n      swap3\n      pop\n      pop\n      dup2\n      swap1\n      sstore\n      pop\n        /* \"contracts/lottery.sol\":3712:3720  winnings */\n      0x0a\n        /* \"contracts/lottery.sol\":3712:3728  winnings[winner] */\n      0x00\n        /* \"contracts/lottery.sol\":3721:3727  winner */\n      dup3\n        /* \"contracts/lottery.sol\":3712:3728  winnings[winner] */\n      0xffffffffffffffffffffffffffffffffffffffff\n      and\n      0xffffffffffffffffffffffffffffffffffffffff\n      and\n      dup2\n      mstore\n      0x20\n      add\n      swap1\n      dup2\n      mstore\n      0x20\n      add\n      0x00\n      keccak256\n      sload\n        /* \"contracts/lottery.sol\":3693:3709  lastWinnerAmount */\n      0x09\n        /* \"contracts/lottery.sol\":3693:3728  lastWinnerAmount = winnings[winner] */\n      dup2\n      swap1\n      sstore\n      pop\n        /* \"contracts/lottery.sol\":3784:3800  ticketCommission */\n      sload(0x02)\n        /* \"contracts/lottery.sol\":3767:3774  tickets */\n      0x0b\n        /* \"contracts/lottery.sol\":3767:3781  tickets.length */\n      dup1\n      sload\n      swap1\n      pop\n        /* \"contracts/lottery.sol\":3767:3800  tickets.length * ticketCommission */\n      tag_174\n      swap2\n      swap1\n      tag_171\n      jump\t// in\n    tag_174:\n        /* \"contracts/lottery.sol\":3739:3762  operatorTotalCommission */\n      0x07\n      0x00\n        /* \"contracts/lottery.sol\":3739:3801  operatorTotalCommission += (tickets.length * ticketCommission) */\n      dup3\n      dup3\n      sload\n      tag_175\n      swap2\n      swap1\n      tag_173\n      jump\t// in\n    tag_175:\n      swap3\n      pop\n      pop\n      dup2\n      swap1\n      sstore\n      pop\n        /* \"contracts/lottery.sol\":3819:3826  tickets */\n      0x0b\n      0x00\n        /* \"contracts/lottery.sol\":3812:3826  delete tickets */\n      tag_176\n      swap2\n      swap1\n      tag_177\n      jump\t// in\n    tag_176:\n        /* \"contracts/lottery.sol\":3868:3876  duration */\n      sload(0x03)\n        /* \"contracts/lottery.sol\":3850:3865  block.timestamp */\n      timestamp\n        /* \"contracts/lottery.sol\":3850:3876  block.timestamp + duration */\n      tag_178\n      swap2\n      swap1\n      tag_173\n      jump\t// in\n    tag_178:\n        /* \"contracts/lottery.sol\":3837:3847  expiration */\n      0x05\n        /* \"contracts/lottery.sol\":3837:3876  expiration = block.timestamp + duration */\n      dup2\n      swap1\n      sstore\n      pop\n        /* \"contracts/lottery.sol\":3192:3884  {... */\n      pop\n      pop\n      pop\n      pop\n        /* \"contracts/lottery.sol\":3146:3884  function DrawWinnerTicket() public isOperator {... */\n      jump\t// out\n        /* \"contracts/lottery.sol\":2323:2417  function getTickets() public view returns (address[] memory) {... */\n    tag_71:\n        /* \"contracts/lottery.sol\":2366:2382  address[] memory */\n      0x60\n        /* \"contracts/lottery.sol\":2402:2409  tickets */\n      0x0b\n        /* \"contracts/lottery.sol\":2395:2409  return tickets */\n      dup1\n      sload\n      dup1\n      0x20\n      mul\n      0x20\n      add\n      mload(0x40)\n      swap1\n      dup2\n      add\n      0x40\n      mstore\n      dup1\n      swap3\n      swap2\n      swap1\n      dup2\n      dup2\n      mstore\n      0x20\n      add\n      dup3\n      dup1\n      sload\n      dup1\n      iszero\n      tag_180\n      jumpi\n      0x20\n      mul\n      dup3\n      add\n      swap2\n      swap1\n      0x00\n      mstore\n      keccak256(0x00, 0x20)\n      swap1\n    tag_181:\n      dup2\n      0x00\n      swap1\n      sload\n      swap1\n      0x0100\n      exp\n      swap1\n      div\n      0xffffffffffffffffffffffffffffffffffffffff\n      and\n      0xffffffffffffffffffffffffffffffffffffffff\n      and\n      dup2\n      mstore\n      0x20\n      add\n      swap1\n      0x01\n      add\n      swap1\n      dup1\n      dup4\n      gt\n      tag_181\n      jumpi\n    tag_180:\n      pop\n      pop\n      pop\n      pop\n      pop\n      swap1\n      pop\n        /* \"contracts/lottery.sol\":2323:2417  function getTickets() public view returns (address[] memory) {... */\n      swap1\n      jump\t// out\n        /* \"contracts/lottery.sol\":993:1017  address[] public tickets */\n    tag_78:\n      0x0b\n      dup2\n      dup2\n      sload\n      dup2\n      lt\n      tag_182\n      jumpi\n      0x00\n      dup1\n      revert\n    tag_182:\n      swap1\n      0x00\n      mstore\n      keccak256(0x00, 0x20)\n      add\n      0x00\n      swap2\n      pop\n      sload\n      swap1\n      0x0100\n      exp\n      swap1\n      div\n      0xffffffffffffffffffffffffffffffffffffffff\n      and\n      dup2\n      jump\t// out\n        /* \"contracts/lottery.sol\":611:641  address public lotteryOperator */\n    tag_83:\n      0x06\n      0x00\n      swap1\n      sload\n      swap1\n      0x0100\n      exp\n      swap1\n      div\n      0xffffffffffffffffffffffffffffffffffffffff\n      and\n      dup2\n      jump\t// out\n        /* \"contracts/lottery.sol\":266:311  uint256 public ticketCommission = 0.001 ether */\n    tag_87:\n      sload(0x02)\n      dup2\n      jump\t// out\n        /* \"contracts/lottery.sol\":4329:4567  function WithdrawWinnings() public isWinner {... */\n    tag_91:\n        /* \"contracts/lottery.sol\":2108:2118  IsWinner() */\n      tag_185\n        /* \"contracts/lottery.sol\":2108:2116  IsWinner */\n      tag_100\n        /* \"contracts/lottery.sol\":2108:2118  IsWinner() */\n      jump\t// in\n    tag_185:\n        /* \"contracts/lottery.sol\":2100:2145  require(IsWinner(), \"Caller is not a winner\") */\n      tag_186\n      jumpi\n      mload(0x40)\n      0x08c379a000000000000000000000000000000000000000000000000000000000\n      dup2\n      mstore\n      0x04\n      add\n      tag_187\n      swap1\n      tag_188\n      jump\t// in\n    tag_187:\n      mload(0x40)\n      dup1\n      swap2\n      sub\n      swap1\n      revert\n    tag_186:\n        /* \"contracts/lottery.sol\":4384:4406  address payable winner */\n      0x00\n        /* \"contracts/lottery.sol\":4417:4427  msg.sender */\n      caller\n        /* \"contracts/lottery.sol\":4384:4428  address payable winner = payable(msg.sender) */\n      swap1\n      pop\n        /* \"contracts/lottery.sol\":4441:4464  uint256 reward2Transfer */\n      0x00\n        /* \"contracts/lottery.sol\":4467:4475  winnings */\n      0x0a\n        /* \"contracts/lottery.sol\":4467:4483  winnings[winner] */\n      0x00\n        /* \"contracts/lottery.sol\":4476:4482  winner */\n      dup4\n        /* \"contracts/lottery.sol\":4467:4483  winnings[winner] */\n      0xffffffffffffffffffffffffffffffffffffffff\n      and\n      0xffffffffffffffffffffffffffffffffffffffff\n      and\n      dup2\n      mstore\n      0x20\n      add\n      swap1\n      dup2\n      mstore\n      0x20\n      add\n      0x00\n      keccak256\n      sload\n        /* \"contracts/lottery.sol\":4441:4483  uint256 reward2Transfer = winnings[winner] */\n      swap1\n      pop\n        /* \"contracts/lottery.sol\":4513:4514  0 */\n      0x00\n        /* \"contracts/lottery.sol\":4494:4502  winnings */\n      0x0a\n        /* \"contracts/lottery.sol\":4494:4510  winnings[winner] */\n      0x00\n        /* \"contracts/lottery.sol\":4503:4509  winner */\n      dup5\n        /* \"contracts/lottery.sol\":4494:4510  winnings[winner] */\n      0xffffffffffffffffffffffffffffffffffffffff\n      and\n      0xffffffffffffffffffffffffffffffffffffffff\n      and\n      dup2\n      mstore\n      0x20\n      add\n      swap1\n      dup2\n      mstore\n      0x20\n      add\n      0x00\n      keccak256\n        /* \"contracts/lottery.sol\":4494:4514  winnings[winner] = 0 */\n      dup2\n      swap1\n      sstore\n      pop\n        /* \"contracts/lottery.sol\":4527:4533  winner */\n      dup2\n        /* \"contracts/lottery.sol\":4527:4542  winner.transfer */\n      0xffffffffffffffffffffffffffffffffffffffff\n      and\n        /* \"contracts/lottery.sol\":4527:4559  winner.transfer(reward2Transfer) */\n      0x08fc\n        /* \"contracts/lottery.sol\":4543:4558  reward2Transfer */\n      dup3\n        /* \"contracts/lottery.sol\":4527:4559  winner.transfer(reward2Transfer) */\n      swap1\n      dup2\n      iszero\n      mul\n      swap1\n      mload(0x40)\n      0x00\n      mload(0x40)\n      dup1\n      dup4\n      sub\n      dup2\n      dup6\n      dup9\n      dup9\n      call\n      swap4\n      pop\n      pop\n      pop\n      pop\n      iszero\n      dup1\n      iszero\n      tag_191\n      jumpi\n      returndatasize\n      0x00\n      dup1\n      returndatacopy\n      revert(0x00, returndatasize)\n    tag_191:\n      pop\n        /* \"contracts/lottery.sol\":4373:4567  {... */\n      pop\n      pop\n        /* \"contracts/lottery.sol\":4329:4567  function WithdrawWinnings() public isWinner {... */\n      jump\t// out\n        /* \"contracts/lottery.sol\":2548:3138  function BuyTickets() public payable {... */\n    tag_93:\n        /* \"contracts/lottery.sol\":2645:2646  0 */\n      0x00\n        /* \"contracts/lottery.sol\":2630:2641  ticketPrice */\n      dup1\n      sload\n        /* \"contracts/lottery.sol\":2618:2627  msg.value */\n      callvalue\n        /* \"contracts/lottery.sol\":2618:2641  msg.value % ticketPrice */\n      tag_193\n      swap2\n      swap1\n      tag_164\n      jump\t// in\n    tag_193:\n        /* \"contracts/lottery.sol\":2618:2646  msg.value % ticketPrice == 0 */\n      eq\n        /* \"contracts/lottery.sol\":2744:2773  Strings.toString(ticketPrice) */\n      tag_194\n        /* \"contracts/lottery.sol\":2761:2772  ticketPrice */\n      sload(0x00)\n        /* \"contracts/lottery.sol\":2744:2760  Strings.toString */\n      tag_195\n        /* \"contracts/lottery.sol\":2744:2773  Strings.toString(ticketPrice) */\n      jump\t// in\n    tag_194:\n        /* \"contracts/lottery.sol\":2661:2815  string.concat(... */\n      add(0x20, mload(0x40))\n      tag_196\n      swap2\n      swap1\n      tag_197\n      jump\t// in\n    tag_196:\n      mload(0x40)\n      0x20\n      dup2\n      dup4\n      sub\n      sub\n      dup2\n      mstore\n      swap1\n      0x40\n      mstore\n        /* \"contracts/lottery.sol\":2596:2826  require(... */\n      swap1\n      tag_198\n      jumpi\n      mload(0x40)\n      0x08c379a000000000000000000000000000000000000000000000000000000000\n      dup2\n      mstore\n      0x04\n      add\n      tag_199\n      swap2\n      swap1\n      tag_200\n      jump\t// in\n    tag_199:\n      mload(0x40)\n      dup1\n      swap2\n      sub\n      swap1\n      revert\n    tag_198:\n      pop\n        /* \"contracts/lottery.sol\":2837:2862  uint256 numOfTicketsToBuy */\n      0x00\n        /* \"contracts/lottery.sol\":2877:2888  ticketPrice */\n      dup1\n      sload\n        /* \"contracts/lottery.sol\":2865:2874  msg.value */\n      callvalue\n        /* \"contracts/lottery.sol\":2865:2888  msg.value / ticketPrice */\n      tag_201\n      swap2\n      swap1\n      tag_202\n      jump\t// in\n    tag_201:\n        /* \"contracts/lottery.sol\":2837:2888  uint256 numOfTicketsToBuy = msg.value / ticketPrice */\n      swap1\n      pop\n        /* \"contracts/lottery.sol\":2944:2962  RemainingTickets() */\n      tag_203\n        /* \"contracts/lottery.sol\":2944:2960  RemainingTickets */\n      tag_96\n        /* \"contracts/lottery.sol\":2944:2962  RemainingTickets() */\n      jump\t// in\n    tag_203:\n        /* \"contracts/lottery.sol\":2923:2940  numOfTicketsToBuy */\n      dup2\n        /* \"contracts/lottery.sol\":2923:2962  numOfTicketsToBuy <= RemainingTickets() */\n      gt\n      iszero\n        /* \"contracts/lottery.sol\":2901:3019  require(... */\n      tag_204\n      jumpi\n      mload(0x40)\n      0x08c379a000000000000000000000000000000000000000000000000000000000\n      dup2\n      mstore\n      0x04\n      add\n      tag_205\n      swap1\n      tag_206\n      jump\t// in\n    tag_205:\n      mload(0x40)\n      dup1\n      swap2\n      sub\n      swap1\n      revert\n    tag_204:\n        /* \"contracts/lottery.sol\":3037:3046  uint256 i */\n      0x00\n        /* \"contracts/lottery.sol\":3032:3131  for (uint256 i = 0; i < numOfTicketsToBuy; i++) {... */\n    tag_207:\n        /* \"contracts/lottery.sol\":3056:3073  numOfTicketsToBuy */\n      dup2\n        /* \"contracts/lottery.sol\":3052:3053  i */\n      dup2\n        /* \"contracts/lottery.sol\":3052:3073  i < numOfTicketsToBuy */\n      lt\n        /* \"contracts/lottery.sol\":3032:3131  for (uint256 i = 0; i < numOfTicketsToBuy; i++) {... */\n      iszero\n      tag_208\n      jumpi\n        /* \"contracts/lottery.sol\":3095:3102  tickets */\n      0x0b\n        /* \"contracts/lottery.sol\":3108:3118  msg.sender */\n      caller\n        /* \"contracts/lottery.sol\":3095:3119  tickets.push(msg.sender) */\n      swap1\n      dup1\n      0x01\n      dup2\n      sload\n      add\n      dup1\n      dup3\n      sstore\n      dup1\n      swap2\n      pop\n      pop\n      0x01\n      swap1\n      sub\n      swap1\n      0x00\n      mstore\n      keccak256(0x00, 0x20)\n      add\n      0x00\n      swap1\n      swap2\n      swap1\n      swap2\n      swap1\n      swap2\n      0x0100\n      exp\n      dup2\n      sload\n      dup2\n      0xffffffffffffffffffffffffffffffffffffffff\n      mul\n      not\n      and\n      swap1\n      dup4\n      0xffffffffffffffffffffffffffffffffffffffff\n      and\n      mul\n      or\n      swap1\n      sstore\n      pop\n        /* \"contracts/lottery.sol\":3075:3078  i++ */\n      dup1\n      dup1\n      tag_211\n      swap1\n      tag_212\n      jump\t// in\n    tag_211:\n      swap2\n      pop\n      pop\n        /* \"contracts/lottery.sol\":3032:3131  for (uint256 i = 0; i < numOfTicketsToBuy; i++) {... */\n      jump(tag_207)\n    tag_208:\n      pop\n        /* \"contracts/lottery.sol\":2585:3138  {... */\n      pop\n        /* \"contracts/lottery.sol\":2548:3138  function BuyTickets() public payable {... */\n      jump\t// out\n        /* \"contracts/lottery.sol\":5430:5541  function RemainingTickets() public view returns (uint256) {... */\n    tag_96:\n        /* \"contracts/lottery.sol\":5479:5486  uint256 */\n      0x00\n        /* \"contracts/lottery.sol\":5519:5526  tickets */\n      0x0b\n        /* \"contracts/lottery.sol\":5519:5533  tickets.length */\n      dup1\n      sload\n      swap1\n      pop\n        /* \"contracts/lottery.sol\":5506:5516  maxTickets */\n      sload(0x01)\n        /* \"contracts/lottery.sol\":5506:5533  maxTickets - tickets.length */\n      tag_214\n      swap2\n      swap1\n      tag_160\n      jump\t// in\n    tag_214:\n        /* \"contracts/lottery.sol\":5499:5533  return maxTickets - tickets.length */\n      swap1\n      pop\n        /* \"contracts/lottery.sol\":5430:5541  function RemainingTickets() public view returns (uint256) {... */\n      swap1\n      jump\t// out\n        /* \"contracts/lottery.sol\":5201:5298  function IsWinner() public view returns (bool) {... */\n    tag_100:\n        /* \"contracts/lottery.sol\":5242:5246  bool */\n      0x00\n        /* \"contracts/lottery.sol\":5289:5290  0 */\n      dup1\n        /* \"contracts/lottery.sol\":5266:5274  winnings */\n      0x0a\n        /* \"contracts/lottery.sol\":5266:5286  winnings[msg.sender] */\n      0x00\n        /* \"contracts/lottery.sol\":5275:5285  msg.sender */\n      caller\n        /* \"contracts/lottery.sol\":5266:5286  winnings[msg.sender] */\n      0xffffffffffffffffffffffffffffffffffffffff\n      and\n      0xffffffffffffffffffffffffffffffffffffffff\n      and\n      dup2\n      mstore\n      0x20\n      add\n      swap1\n      dup2\n      mstore\n      0x20\n      add\n      0x00\n      keccak256\n      sload\n        /* \"contracts/lottery.sol\":5266:5290  winnings[msg.sender] > 0 */\n      gt\n        /* \"contracts/lottery.sol\":5259:5290  return winnings[msg.sender] > 0 */\n      swap1\n      pop\n        /* \"contracts/lottery.sol\":5201:5298  function IsWinner() public view returns (bool) {... */\n      swap1\n      jump\t// out\n        /* \"contracts/lottery.sol\":1837:2011  function setMaxTicketsPerAddress(uint256 newMaxTicketsPerAddress)... */\n    tag_106:\n        /* \"contracts/lottery.sol\":1185:1200  lotteryOperator */\n      0x06\n      0x00\n      swap1\n      sload\n      swap1\n      0x0100\n      exp\n      swap1\n      div\n      0xffffffffffffffffffffffffffffffffffffffff\n      and\n        /* \"contracts/lottery.sol\":1171:1200  msg.sender == lotteryOperator */\n      0xffffffffffffffffffffffffffffffffffffffff\n      and\n        /* \"contracts/lottery.sol\":1171:1181  msg.sender */\n      caller\n        /* \"contracts/lottery.sol\":1171:1200  msg.sender == lotteryOperator */\n      0xffffffffffffffffffffffffffffffffffffffff\n      and\n      eq\n        /* \"contracts/lottery.sol\":1148:1263  require(... */\n      tag_217\n      jumpi\n      mload(0x40)\n      0x08c379a000000000000000000000000000000000000000000000000000000000\n      dup2\n      mstore\n      0x04\n      add\n      tag_218\n      swap1\n      tag_144\n      jump\t// in\n    tag_218:\n      mload(0x40)\n      dup1\n      swap2\n      sub\n      swap1\n      revert\n    tag_217:\n        /* \"contracts/lottery.sol\":1980:2003  newMaxTicketsPerAddress */\n      dup1\n        /* \"contracts/lottery.sol\":1957:1977  maxTicketsPerAddress */\n      0x04\n        /* \"contracts/lottery.sol\":1957:2003  maxTicketsPerAddress = newMaxTicketsPerAddress */\n      dup2\n      swap1\n      sstore\n      pop\n        /* \"contracts/lottery.sol\":1837:2011  function setMaxTicketsPerAddress(uint256 newMaxTicketsPerAddress)... */\n      pop\n      jump\t// out\n        /* \"contracts/lottery.sol\":197:228  uint256 public maxTickets = 100 */\n    tag_109:\n      sload(0x01)\n      dup2\n      jump\t// out\n        /* \"contracts/lottery.sol\":4575:4917  function RefundAll() public {... */\n    tag_113:\n        /* \"contracts/lottery.sol\":4641:4651  expiration */\n      sload(0x05)\n        /* \"contracts/lottery.sol\":4622:4637  block.timestamp */\n      timestamp\n        /* \"contracts/lottery.sol\":4622:4651  block.timestamp >= expiration */\n      lt\n      iszero\n        /* \"contracts/lottery.sol\":4614:4683  require(block.timestamp >= expiration, \"the lottery not expired yet\") */\n      tag_221\n      jumpi\n      mload(0x40)\n      0x08c379a000000000000000000000000000000000000000000000000000000000\n      dup2\n      mstore\n      0x04\n      add\n      tag_222\n      swap1\n      tag_223\n      jump\t// in\n    tag_222:\n      mload(0x40)\n      dup1\n      swap2\n      sub\n      swap1\n      revert\n    tag_221:\n        /* \"contracts/lottery.sol\":4701:4710  uint256 i */\n      0x00\n        /* \"contracts/lottery.sol\":4696:4885  for (uint256 i = 0; i < tickets.length; i++) {... */\n    tag_224:\n        /* \"contracts/lottery.sol\":4720:4727  tickets */\n      0x0b\n        /* \"contracts/lottery.sol\":4720:4734  tickets.length */\n      dup1\n      sload\n      swap1\n      pop\n        /* \"contracts/lottery.sol\":4716:4717  i */\n      dup2\n        /* \"contracts/lottery.sol\":4716:4734  i < tickets.length */\n      lt\n        /* \"contracts/lottery.sol\":4696:4885  for (uint256 i = 0; i < tickets.length; i++) {... */\n      iszero\n      tag_225\n      jumpi\n        /* \"contracts/lottery.sol\":4756:4774  address payable to */\n      0x00\n        /* \"contracts/lottery.sol\":4785:4792  tickets */\n      0x0b\n        /* \"contracts/lottery.sol\":4793:4794  i */\n      dup3\n        /* \"contracts/lottery.sol\":4785:4795  tickets[i] */\n      dup2\n      sload\n      dup2\n      lt\n      tag_227\n      jumpi\n      tag_228\n      tag_167\n      jump\t// in\n    tag_228:\n    tag_227:\n      swap1\n      0x00\n      mstore\n      keccak256(0x00, 0x20)\n      add\n      0x00\n      swap1\n      sload\n      swap1\n      0x0100\n      exp\n      swap1\n      div\n      0xffffffffffffffffffffffffffffffffffffffff\n      and\n        /* \"contracts/lottery.sol\":4756:4796  address payable to = payable(tickets[i]) */\n      swap1\n      pop\n        /* \"contracts/lottery.sol\":4832:4833  0 */\n      0x00\n        /* \"contracts/lottery.sol\":4811:4818  tickets */\n      0x0b\n        /* \"contracts/lottery.sol\":4819:4820  i */\n      dup4\n        /* \"contracts/lottery.sol\":4811:4821  tickets[i] */\n      dup2\n      sload\n      dup2\n      lt\n      tag_230\n      jumpi\n      tag_231\n      tag_167\n      jump\t// in\n    tag_231:\n    tag_230:\n      swap1\n      0x00\n      mstore\n      keccak256(0x00, 0x20)\n      add\n      0x00\n        /* \"contracts/lottery.sol\":4811:4834  tickets[i] = address(0) */\n      0x0100\n      exp\n      dup2\n      sload\n      dup2\n      0xffffffffffffffffffffffffffffffffffffffff\n      mul\n      not\n      and\n      swap1\n      dup4\n      0xffffffffffffffffffffffffffffffffffffffff\n      and\n      mul\n      or\n      swap1\n      sstore\n      pop\n        /* \"contracts/lottery.sol\":4849:4851  to */\n      dup1\n        /* \"contracts/lottery.sol\":4849:4860  to.transfer */\n      0xffffffffffffffffffffffffffffffffffffffff\n      and\n        /* \"contracts/lottery.sol\":4849:4873  to.transfer(ticketPrice) */\n      0x08fc\n        /* \"contracts/lottery.sol\":4861:4872  ticketPrice */\n      sload(0x00)\n        /* \"contracts/lottery.sol\":4849:4873  to.transfer(ticketPrice) */\n      swap1\n      dup2\n      iszero\n      mul\n      swap1\n      mload(0x40)\n      0x00\n      mload(0x40)\n      dup1\n      dup4\n      sub\n      dup2\n      dup6\n      dup9\n      dup9\n      call\n      swap4\n      pop\n      pop\n      pop\n      pop\n      iszero\n      dup1\n      iszero\n      tag_234\n      jumpi\n      returndatasize\n      0x00\n      dup1\n      returndatacopy\n      revert(0x00, returndatasize)\n    tag_234:\n      pop\n        /* \"contracts/lottery.sol\":4741:4885  {... */\n      pop\n        /* \"contracts/lottery.sol\":4736:4739  i++ */\n      dup1\n      dup1\n      tag_235\n      swap1\n      tag_212\n      jump\t// in\n    tag_235:\n      swap2\n      pop\n      pop\n        /* \"contracts/lottery.sol\":4696:4885  for (uint256 i = 0; i < tickets.length; i++) {... */\n      jump(tag_224)\n    tag_225:\n      pop\n        /* \"contracts/lottery.sol\":4902:4909  tickets */\n      0x0b\n      0x00\n        /* \"contracts/lottery.sol\":4895:4909  delete tickets */\n      tag_236\n      swap2\n      swap1\n      tag_177\n      jump\t// in\n    tag_236:\n        /* \"contracts/lottery.sol\":4575:4917  function RefundAll() public {... */\n      jump\t// out\n        /* \"contracts/lottery.sol\":677:719  uint256 public operatorTotalCommission = 0 */\n    tag_116:\n      sload(0x07)\n      dup2\n      jump\t// out\n        /* \"contracts/lottery.sol\":5306:5422  function CurrentWinningReward() public view returns (uint256) {... */\n    tag_120:\n        /* \"contracts/lottery.sol\":5359:5366  uint256 */\n      0x00\n        /* \"contracts/lottery.sol\":5403:5414  ticketPrice */\n      dup1\n      sload\n        /* \"contracts/lottery.sol\":5386:5393  tickets */\n      0x0b\n        /* \"contracts/lottery.sol\":5386:5400  tickets.length */\n      dup1\n      sload\n      swap1\n      pop\n        /* \"contracts/lottery.sol\":5386:5414  tickets.length * ticketPrice */\n      tag_238\n      swap2\n      swap1\n      tag_171\n      jump\t// in\n    tag_238:\n        /* \"contracts/lottery.sol\":5379:5414  return tickets.length * ticketPrice */\n      swap1\n      pop\n        /* \"contracts/lottery.sol\":5306:5422  function CurrentWinningReward() public view returns (uint256) {... */\n      swap1\n      jump\t// out\n        /* \"contracts/lottery.sol\":2425:2540  function getWinningsForAddress(address addr) public view returns (uint256) {... */\n    tag_126:\n        /* \"contracts/lottery.sol\":2491:2498  uint256 */\n      0x00\n        /* \"contracts/lottery.sol\":2518:2526  winnings */\n      0x0a\n        /* \"contracts/lottery.sol\":2518:2532  winnings[addr] */\n      0x00\n        /* \"contracts/lottery.sol\":2527:2531  addr */\n      dup4\n        /* \"contracts/lottery.sol\":2518:2532  winnings[addr] */\n      0xffffffffffffffffffffffffffffffffffffffff\n      and\n      0xffffffffffffffffffffffffffffffffffffffff\n      and\n      dup2\n      mstore\n      0x20\n      add\n      swap1\n      dup2\n      mstore\n      0x20\n      add\n      0x00\n      keccak256\n      sload\n        /* \"contracts/lottery.sol\":2511:2532  return winnings[addr] */\n      swap1\n      pop\n        /* \"contracts/lottery.sol\":2425:2540  function getWinningsForAddress(address addr) public view returns (uint256) {... */\n      swap2\n      swap1\n      pop\n      jump\t// out\n        /* \"contracts/lottery.sol\":905:948  mapping(address => uint256) public winnings */\n    tag_131:\n      mstore(0x20, 0x0a)\n      dup1\n      0x00\n      mstore\n      keccak256(0x00, 0x40)\n      0x00\n      swap2\n      pop\n      swap1\n      pop\n      sload\n      dup2\n      jump\t// out\n        /* \"contracts/lottery.sol\":3892:4099  function restartDraw() public isOperator {... */\n    tag_135:\n        /* \"contracts/lottery.sol\":1185:1200  lotteryOperator */\n      0x06\n      0x00\n      swap1\n      sload\n      swap1\n      0x0100\n      exp\n      swap1\n      div\n      0xffffffffffffffffffffffffffffffffffffffff\n      and\n        /* \"contracts/lottery.sol\":1171:1200  msg.sender == lotteryOperator */\n      0xffffffffffffffffffffffffffffffffffffffff\n      and\n        /* \"contracts/lottery.sol\":1171:1181  msg.sender */\n      caller\n        /* \"contracts/lottery.sol\":1171:1200  msg.sender == lotteryOperator */\n      0xffffffffffffffffffffffffffffffffffffffff\n      and\n      eq\n        /* \"contracts/lottery.sol\":1148:1263  require(... */\n      tag_241\n      jumpi\n      mload(0x40)\n      0x08c379a000000000000000000000000000000000000000000000000000000000\n      dup2\n      mstore\n      0x04\n      add\n      tag_242\n      swap1\n      tag_144\n      jump\t// in\n    tag_242:\n      mload(0x40)\n      dup1\n      swap2\n      sub\n      swap1\n      revert\n    tag_241:\n        /* \"contracts/lottery.sol\":3970:3971  0 */\n      0x00\n        /* \"contracts/lottery.sol\":3952:3959  tickets */\n      0x0b\n        /* \"contracts/lottery.sol\":3952:3966  tickets.length */\n      dup1\n      sload\n      swap1\n      pop\n        /* \"contracts/lottery.sol\":3952:3971  tickets.length == 0 */\n      eq\n        /* \"contracts/lottery.sol\":3944:4014  require(tickets.length == 0, \"Cannot Restart Draw as Draw is in play\") */\n      tag_244\n      jumpi\n      mload(0x40)\n      0x08c379a000000000000000000000000000000000000000000000000000000000\n      dup2\n      mstore\n      0x04\n      add\n      tag_245\n      swap1\n      tag_246\n      jump\t// in\n    tag_245:\n      mload(0x40)\n      dup1\n      swap2\n      sub\n      swap1\n      revert\n    tag_244:\n        /* \"contracts/lottery.sol\":4034:4041  tickets */\n      0x0b\n      0x00\n        /* \"contracts/lottery.sol\":4027:4041  delete tickets */\n      tag_247\n      swap2\n      swap1\n      tag_177\n      jump\t// in\n    tag_247:\n        /* \"contracts/lottery.sol\":4083:4091  duration */\n      sload(0x03)\n        /* \"contracts/lottery.sol\":4065:4080  block.timestamp */\n      timestamp\n        /* \"contracts/lottery.sol\":4065:4091  block.timestamp + duration */\n      tag_248\n      swap2\n      swap1\n      tag_173\n      jump\t// in\n    tag_248:\n        /* \"contracts/lottery.sol\":4052:4062  expiration */\n      0x05\n        /* \"contracts/lottery.sol\":4052:4091  expiration = block.timestamp + duration */\n      dup2\n      swap1\n      sstore\n      pop\n        /* \"contracts/lottery.sol\":3892:4099  function restartDraw() public isOperator {... */\n      jump\t// out\n        /* \"contracts/lottery.sol\":758:783  address public lastWinner */\n    tag_138:\n      0x08\n      0x00\n      swap1\n      sload\n      swap1\n      0x0100\n      exp\n      swap1\n      div\n      0xffffffffffffffffffffffffffffffffffffffff\n      and\n      dup2\n      jump\t// out\n        /* \"@openzeppelin/contracts/utils/Strings.sol\":447:1143  function toString(uint256 value) internal pure returns (string memory) {... */\n    tag_195:\n        /* \"@openzeppelin/contracts/utils/Strings.sol\":503:516  string memory */\n      0x60\n        /* \"@openzeppelin/contracts/utils/Strings.sol\":552:566  uint256 length */\n      0x00\n        /* \"@openzeppelin/contracts/utils/Strings.sol\":589:590  1 */\n      0x01\n        /* \"@openzeppelin/contracts/utils/Strings.sol\":569:586  Math.log10(value) */\n      tag_250\n        /* \"@openzeppelin/contracts/utils/Strings.sol\":580:585  value */\n      dup5\n        /* \"@openzeppelin/contracts/utils/Strings.sol\":569:579  Math.log10 */\n      tag_251\n        /* \"@openzeppelin/contracts/utils/Strings.sol\":569:586  Math.log10(value) */\n      jump\t// in\n    tag_250:\n        /* \"@openzeppelin/contracts/utils/Strings.sol\":569:590  Math.log10(value) + 1 */\n      add\n        /* \"@openzeppelin/contracts/utils/Strings.sol\":552:590  uint256 length = Math.log10(value) + 1 */\n      swap1\n      pop\n        /* \"@openzeppelin/contracts/utils/Strings.sol\":604:624  string memory buffer */\n      0x00\n        /* \"@openzeppelin/contracts/utils/Strings.sol\":638:644  length */\n      dup2\n        /* \"@openzeppelin/contracts/utils/Strings.sol\":627:645  new string(length) */\n      0xffffffffffffffff\n      dup2\n      gt\n      iszero\n      tag_252\n      jumpi\n      tag_253\n      tag_254\n      jump\t// in\n    tag_253:\n    tag_252:\n      mload(0x40)\n      swap1\n      dup1\n      dup3\n      mstore\n      dup1\n      0x1f\n      add\n      not(0x1f)\n      and\n      0x20\n      add\n      dup3\n      add\n      0x40\n      mstore\n      dup1\n      iszero\n      tag_255\n      jumpi\n      dup2\n      0x20\n      add\n      0x01\n      dup3\n      mul\n      dup1\n      calldatasize\n      dup4\n      calldatacopy\n      dup1\n      dup3\n      add\n      swap2\n      pop\n      pop\n      swap1\n      pop\n    tag_255:\n      pop\n        /* \"@openzeppelin/contracts/utils/Strings.sol\":604:645  string memory buffer = new string(length) */\n      swap1\n      pop\n        /* \"@openzeppelin/contracts/utils/Strings.sol\":659:670  uint256 ptr */\n      0x00\n        /* \"@openzeppelin/contracts/utils/Strings.sol\":785:791  length */\n      dup3\n        /* \"@openzeppelin/contracts/utils/Strings.sol\":781:783  32 */\n      0x20\n        /* \"@openzeppelin/contracts/utils/Strings.sol\":777:792  add(32, length) */\n      add\n        /* \"@openzeppelin/contracts/utils/Strings.sol\":769:775  buffer */\n      dup3\n        /* \"@openzeppelin/contracts/utils/Strings.sol\":765:793  add(buffer, add(32, length)) */\n      add\n        /* \"@openzeppelin/contracts/utils/Strings.sol\":758:793  ptr := add(buffer, add(32, length)) */\n      swap1\n      pop\n        /* \"@openzeppelin/contracts/utils/Strings.sol\":820:1100  while (true) {... */\n    tag_256:\n        /* \"@openzeppelin/contracts/utils/Strings.sol\":827:831  true */\n      0x01\n        /* \"@openzeppelin/contracts/utils/Strings.sol\":820:1100  while (true) {... */\n      iszero\n      tag_257\n      jumpi\n        /* \"@openzeppelin/contracts/utils/Strings.sol\":851:856  ptr-- */\n      dup1\n      dup1\n      0x01\n      swap1\n      sub\n      swap2\n      pop\n      pop\n        /* \"@openzeppelin/contracts/utils/Strings.sol\":990:998  _SYMBOLS */\n      0x3031323334353637383961626364656600000000000000000000000000000000\n        /* \"@openzeppelin/contracts/utils/Strings.sol\":985:987  10 */\n      0x0a\n        /* \"@openzeppelin/contracts/utils/Strings.sol\":978:983  value */\n      dup7\n        /* \"@openzeppelin/contracts/utils/Strings.sol\":974:988  mod(value, 10) */\n      mod\n        /* \"@openzeppelin/contracts/utils/Strings.sol\":969:999  byte(mod(value, 10), _SYMBOLS) */\n      byte\n        /* \"@openzeppelin/contracts/utils/Strings.sol\":964:967  ptr */\n      dup2\n        /* \"@openzeppelin/contracts/utils/Strings.sol\":956:1000  mstore8(ptr, byte(mod(value, 10), _SYMBOLS)) */\n      mstore8\n        /* \"@openzeppelin/contracts/utils/Strings.sol\":1044:1046  10 */\n      0x0a\n        /* \"@openzeppelin/contracts/utils/Strings.sol\":1035:1046  value /= 10 */\n      dup6\n      dup2\n      tag_258\n      jumpi\n      tag_259\n      tag_260\n      jump\t// in\n    tag_259:\n    tag_258:\n      div\n      swap5\n      pop\n        /* \"@openzeppelin/contracts/utils/Strings.sol\":1077:1078  0 */\n      0x00\n        /* \"@openzeppelin/contracts/utils/Strings.sol\":1068:1073  value */\n      dup6\n        /* \"@openzeppelin/contracts/utils/Strings.sol\":1068:1078  value == 0 */\n      sub\n        /* \"@openzeppelin/contracts/utils/Strings.sol\":820:1100  while (true) {... */\n      tag_256\n        /* \"@openzeppelin/contracts/utils/Strings.sol\":1064:1085  if (value == 0) break */\n      jumpi\n        /* \"@openzeppelin/contracts/utils/Strings.sol\":820:1100  while (true) {... */\n    tag_257:\n        /* \"@openzeppelin/contracts/utils/Strings.sol\":1120:1126  buffer */\n      dup2\n        /* \"@openzeppelin/contracts/utils/Strings.sol\":1113:1126  return buffer */\n      swap4\n      pop\n      pop\n      pop\n      pop\n        /* \"@openzeppelin/contracts/utils/Strings.sol\":447:1143  function toString(uint256 value) internal pure returns (string memory) {... */\n      swap2\n      swap1\n      pop\n      jump\t// out\n        /* \"@openzeppelin/contracts/utils/math/Math.sol\":10139:11055  function log10(uint256 value) internal pure returns (uint256) {... */\n    tag_251:\n        /* \"@openzeppelin/contracts/utils/math/Math.sol\":10192:10199  uint256 */\n      0x00\n        /* \"@openzeppelin/contracts/utils/math/Math.sol\":10211:10225  uint256 result */\n      dup1\n        /* \"@openzeppelin/contracts/utils/math/Math.sol\":10228:10229  0 */\n      0x00\n        /* \"@openzeppelin/contracts/utils/math/Math.sol\":10211:10229  uint256 result = 0 */\n      swap1\n      pop\n        /* \"@openzeppelin/contracts/utils/math/Math.sol\":10276:10284  10 ** 64 */\n      0x184f03e93ff9f4daa797ed6e38ed64bf6a1f010000000000000000\n        /* \"@openzeppelin/contracts/utils/math/Math.sol\":10267:10272  value */\n      dup4\n        /* \"@openzeppelin/contracts/utils/math/Math.sol\":10267:10284  value >= 10 ** 64 */\n      lt\n        /* \"@openzeppelin/contracts/utils/math/Math.sol\":10263:10366  if (value >= 10 ** 64) {... */\n      tag_263\n      jumpi\n        /* \"@openzeppelin/contracts/utils/math/Math.sol\":10313:10321  10 ** 64 */\n      0x184f03e93ff9f4daa797ed6e38ed64bf6a1f010000000000000000\n        /* \"@openzeppelin/contracts/utils/math/Math.sol\":10304:10321  value /= 10 ** 64 */\n      dup4\n      dup2\n      tag_264\n      jumpi\n      tag_265\n      tag_260\n      jump\t// in\n    tag_265:\n    tag_264:\n      div\n      swap3\n      pop\n        /* \"@openzeppelin/contracts/utils/math/Math.sol\":10349:10351  64 */\n      0x40\n        /* \"@openzeppelin/contracts/utils/math/Math.sol\":10339:10351  result += 64 */\n      dup2\n      add\n      swap1\n      pop\n        /* \"@openzeppelin/contracts/utils/math/Math.sol\":10263:10366  if (value >= 10 ** 64) {... */\n    tag_263:\n        /* \"@openzeppelin/contracts/utils/math/Math.sol\":10392:10400  10 ** 32 */\n      0x04ee2d6d415b85acef8100000000\n        /* \"@openzeppelin/contracts/utils/math/Math.sol\":10383:10388  value */\n      dup4\n        /* \"@openzeppelin/contracts/utils/math/Math.sol\":10383:10400  value >= 10 ** 32 */\n      lt\n        /* \"@openzeppelin/contracts/utils/math/Math.sol\":10379:10482  if (value >= 10 ** 32) {... */\n      tag_266\n      jumpi\n        /* \"@openzeppelin/contracts/utils/math/Math.sol\":10429:10437  10 ** 32 */\n      0x04ee2d6d415b85acef8100000000\n        /* \"@openzeppelin/contracts/utils/math/Math.sol\":10420:10437  value /= 10 ** 32 */\n      dup4\n      dup2\n      tag_267\n      jumpi\n      tag_268\n      tag_260\n      jump\t// in\n    tag_268:\n    tag_267:\n      div\n      swap3\n      pop\n        /* \"@openzeppelin/contracts/utils/math/Math.sol\":10465:10467  32 */\n      0x20\n        /* \"@openzeppelin/contracts/utils/math/Math.sol\":10455:10467  result += 32 */\n      dup2\n      add\n      swap1\n      pop\n        /* \"@openzeppelin/contracts/utils/math/Math.sol\":10379:10482  if (value >= 10 ** 32) {... */\n    tag_266:\n        /* \"@openzeppelin/contracts/utils/math/Math.sol\":10508:10516  10 ** 16 */\n      0x2386f26fc10000\n        /* \"@openzeppelin/contracts/utils/math/Math.sol\":10499:10504  value */\n      dup4\n        /* \"@openzeppelin/contracts/utils/math/Math.sol\":10499:10516  value >= 10 ** 16 */\n      lt\n        /* \"@openzeppelin/contracts/utils/math/Math.sol\":10495:10598  if (value >= 10 ** 16) {... */\n      tag_269\n      jumpi\n        /* \"@openzeppelin/contracts/utils/math/Math.sol\":10545:10553  10 ** 16 */\n      0x2386f26fc10000\n        /* \"@openzeppelin/contracts/utils/math/Math.sol\":10536:10553  value /= 10 ** 16 */\n      dup4\n      dup2\n      tag_270\n      jumpi\n      tag_271\n      tag_260\n      jump\t// in\n    tag_271:\n    tag_270:\n      div\n      swap3\n      pop\n        /* \"@openzeppelin/contracts/utils/math/Math.sol\":10581:10583  16 */\n      0x10\n        /* \"@openzeppelin/contracts/utils/math/Math.sol\":10571:10583  result += 16 */\n      dup2\n      add\n      swap1\n      pop\n        /* \"@openzeppelin/contracts/utils/math/Math.sol\":10495:10598  if (value >= 10 ** 16) {... */\n    tag_269:\n        /* \"@openzeppelin/contracts/utils/math/Math.sol\":10624:10631  10 ** 8 */\n      0x05f5e100\n        /* \"@openzeppelin/contracts/utils/math/Math.sol\":10615:10620  value */\n      dup4\n        /* \"@openzeppelin/contracts/utils/math/Math.sol\":10615:10631  value >= 10 ** 8 */\n      lt\n        /* \"@openzeppelin/contracts/utils/math/Math.sol\":10611:10711  if (value >= 10 ** 8) {... */\n      tag_272\n      jumpi\n        /* \"@openzeppelin/contracts/utils/math/Math.sol\":10660:10667  10 ** 8 */\n      0x05f5e100\n        /* \"@openzeppelin/contracts/utils/math/Math.sol\":10651:10667  value /= 10 ** 8 */\n      dup4\n      dup2\n      tag_273\n      jumpi\n      tag_274\n      tag_260\n      jump\t// in\n    tag_274:\n    tag_273:\n      div\n      swap3\n      pop\n        /* \"@openzeppelin/contracts/utils/math/Math.sol\":10695:10696  8 */\n      0x08\n        /* \"@openzeppelin/contracts/utils/math/Math.sol\":10685:10696  result += 8 */\n      dup2\n      add\n      swap1\n      pop\n        /* \"@openzeppelin/contracts/utils/math/Math.sol\":10611:10711  if (value >= 10 ** 8) {... */\n    tag_272:\n        /* \"@openzeppelin/contracts/utils/math/Math.sol\":10737:10744  10 ** 4 */\n      0x2710\n        /* \"@openzeppelin/contracts/utils/math/Math.sol\":10728:10733  value */\n      dup4\n        /* \"@openzeppelin/contracts/utils/math/Math.sol\":10728:10744  value >= 10 ** 4 */\n      lt\n        /* \"@openzeppelin/contracts/utils/math/Math.sol\":10724:10824  if (value >= 10 ** 4) {... */\n      tag_275\n      jumpi\n        /* \"@openzeppelin/contracts/utils/math/Math.sol\":10773:10780  10 ** 4 */\n      0x2710\n        /* \"@openzeppelin/contracts/utils/math/Math.sol\":10764:10780  value /= 10 ** 4 */\n      dup4\n      dup2\n      tag_276\n      jumpi\n      tag_277\n      tag_260\n      jump\t// in\n    tag_277:\n    tag_276:\n      div\n      swap3\n      pop\n        /* \"@openzeppelin/contracts/utils/math/Math.sol\":10808:10809  4 */\n      0x04\n        /* \"@openzeppelin/contracts/utils/math/Math.sol\":10798:10809  result += 4 */\n      dup2\n      add\n      swap1\n      pop\n        /* \"@openzeppelin/contracts/utils/math/Math.sol\":10724:10824  if (value >= 10 ** 4) {... */\n    tag_275:\n        /* \"@openzeppelin/contracts/utils/math/Math.sol\":10850:10857  10 ** 2 */\n      0x64\n        /* \"@openzeppelin/contracts/utils/math/Math.sol\":10841:10846  value */\n      dup4\n        /* \"@openzeppelin/contracts/utils/math/Math.sol\":10841:10857  value >= 10 ** 2 */\n      lt\n        /* \"@openzeppelin/contracts/utils/math/Math.sol\":10837:10937  if (value >= 10 ** 2) {... */\n      tag_278\n      jumpi\n        /* \"@openzeppelin/contracts/utils/math/Math.sol\":10886:10893  10 ** 2 */\n      0x64\n        /* \"@openzeppelin/contracts/utils/math/Math.sol\":10877:10893  value /= 10 ** 2 */\n      dup4\n      dup2\n      tag_279\n      jumpi\n      tag_280\n      tag_260\n      jump\t// in\n    tag_280:\n    tag_279:\n      div\n      swap3\n      pop\n        /* \"@openzeppelin/contracts/utils/math/Math.sol\":10921:10922  2 */\n      0x02\n        /* \"@openzeppelin/contracts/utils/math/Math.sol\":10911:10922  result += 2 */\n      dup2\n      add\n      swap1\n      pop\n        /* \"@openzeppelin/contracts/utils/math/Math.sol\":10837:10937  if (value >= 10 ** 2) {... */\n    tag_278:\n        /* \"@openzeppelin/contracts/utils/math/Math.sol\":10963:10970  10 ** 1 */\n      0x0a\n        /* \"@openzeppelin/contracts/utils/math/Math.sol\":10954:10959  value */\n      dup4\n        /* \"@openzeppelin/contracts/utils/math/Math.sol\":10954:10970  value >= 10 ** 1 */\n      lt\n        /* \"@openzeppelin/contracts/utils/math/Math.sol\":10950:11016  if (value >= 10 ** 1) {... */\n      tag_281\n      jumpi\n        /* \"@openzeppelin/contracts/utils/math/Math.sol\":11000:11001  1 */\n      0x01\n        /* \"@openzeppelin/contracts/utils/math/Math.sol\":10990:11001  result += 1 */\n      dup2\n      add\n      swap1\n      pop\n        /* \"@openzeppelin/contracts/utils/math/Math.sol\":10950:11016  if (value >= 10 ** 1) {... */\n    tag_281:\n        /* \"@openzeppelin/contracts/utils/math/Math.sol\":11042:11048  result */\n      dup1\n        /* \"@openzeppelin/contracts/utils/math/Math.sol\":11035:11048  return result */\n      swap2\n      pop\n      pop\n        /* \"@openzeppelin/contracts/utils/math/Math.sol\":10139:11055  function log10(uint256 value) internal pure returns (uint256) {... */\n      swap2\n      swap1\n      pop\n      jump\t// out\n    tag_177:\n      pop\n      dup1\n      sload\n      0x00\n      dup3\n      sstore\n      swap1\n      0x00\n      mstore\n      keccak256(0x00, 0x20)\n      swap1\n      dup2\n      add\n      swap1\n      tag_283\n      swap2\n      swap1\n      tag_284\n      jump\t// in\n    tag_283:\n      pop\n      jump\t// out\n    tag_284:\n    tag_285:\n      dup1\n      dup3\n      gt\n      iszero\n      tag_286\n      jumpi\n      0x00\n      dup2\n      0x00\n      swap1\n      sstore\n      pop\n      0x01\n      add\n      jump(tag_285)\n    tag_286:\n      pop\n      swap1\n      jump\t// out\n        /* \"#utility.yul\":7:84   */\n    tag_287:\n        /* \"#utility.yul\":44:51   */\n      0x00\n        /* \"#utility.yul\":73:78   */\n      dup2\n        /* \"#utility.yul\":62:78   */\n      swap1\n      pop\n        /* \"#utility.yul\":7:84   */\n      swap2\n      swap1\n      pop\n      jump\t// out\n        /* \"#utility.yul\":90:208   */\n    tag_288:\n        /* \"#utility.yul\":177:201   */\n      tag_338\n        /* \"#utility.yul\":195:200   */\n      dup2\n        /* \"#utility.yul\":177:201   */\n      tag_287\n      jump\t// in\n    tag_338:\n        /* \"#utility.yul\":172:175   */\n      dup3\n        /* \"#utility.yul\":165:202   */\n      mstore\n        /* \"#utility.yul\":90:208   */\n      pop\n      pop\n      jump\t// out\n        /* \"#utility.yul\":214:436   */\n    tag_37:\n        /* \"#utility.yul\":307:311   */\n      0x00\n        /* \"#utility.yul\":345:347   */\n      0x20\n        /* \"#utility.yul\":334:343   */\n      dup3\n        /* \"#utility.yul\":330:348   */\n      add\n        /* \"#utility.yul\":322:348   */\n      swap1\n      pop\n        /* \"#utility.yul\":358:429   */\n      tag_340\n        /* \"#utility.yul\":426:427   */\n      0x00\n        /* \"#utility.yul\":415:424   */\n      dup4\n        /* \"#utility.yul\":411:428   */\n      add\n        /* \"#utility.yul\":402:408   */\n      dup5\n        /* \"#utility.yul\":358:429   */\n      tag_288\n      jump\t// in\n    tag_340:\n        /* \"#utility.yul\":214:436   */\n      swap3\n      swap2\n      pop\n      pop\n      jump\t// out\n        /* \"#utility.yul\":523:640   */\n    tag_290:\n        /* \"#utility.yul\":632:633   */\n      0x00\n        /* \"#utility.yul\":629:630   */\n      dup1\n        /* \"#utility.yul\":622:634   */\n      revert\n        /* \"#utility.yul\":769:891   */\n    tag_292:\n        /* \"#utility.yul\":842:866   */\n      tag_345\n        /* \"#utility.yul\":860:865   */\n      dup2\n        /* \"#utility.yul\":842:866   */\n      tag_287\n      jump\t// in\n    tag_345:\n        /* \"#utility.yul\":835:840   */\n      dup2\n        /* \"#utility.yul\":832:867   */\n      eq\n        /* \"#utility.yul\":822:885   */\n      tag_346\n      jumpi\n        /* \"#utility.yul\":881:882   */\n      0x00\n        /* \"#utility.yul\":878:879   */\n      dup1\n        /* \"#utility.yul\":871:883   */\n      revert\n        /* \"#utility.yul\":822:885   */\n    tag_346:\n        /* \"#utility.yul\":769:891   */\n      pop\n      jump\t// out\n        /* \"#utility.yul\":897:1036   */\n    tag_293:\n        /* \"#utility.yul\":943:948   */\n      0x00\n        /* \"#utility.yul\":981:987   */\n      dup2\n        /* \"#utility.yul\":968:988   */\n      calldataload\n        /* \"#utility.yul\":959:988   */\n      swap1\n      pop\n        /* \"#utility.yul\":997:1030   */\n      tag_348\n        /* \"#utility.yul\":1024:1029   */\n      dup2\n        /* \"#utility.yul\":997:1030   */\n      tag_292\n      jump\t// in\n    tag_348:\n        /* \"#utility.yul\":897:1036   */\n      swap3\n      swap2\n      pop\n      pop\n      jump\t// out\n        /* \"#utility.yul\":1042:1807   */\n    tag_56:\n        /* \"#utility.yul\":1128:1134   */\n      0x00\n        /* \"#utility.yul\":1136:1142   */\n      dup1\n        /* \"#utility.yul\":1144:1150   */\n      0x00\n        /* \"#utility.yul\":1152:1158   */\n      dup1\n        /* \"#utility.yul\":1201:1204   */\n      0x80\n        /* \"#utility.yul\":1189:1198   */\n      dup6\n        /* \"#utility.yul\":1180:1187   */\n      dup8\n        /* \"#utility.yul\":1176:1199   */\n      sub\n        /* \"#utility.yul\":1172:1205   */\n      slt\n        /* \"#utility.yul\":1169:1289   */\n      iszero\n      tag_350\n      jumpi\n        /* \"#utility.yul\":1208:1287   */\n      tag_351\n      tag_290\n      jump\t// in\n    tag_351:\n        /* \"#utility.yul\":1169:1289   */\n    tag_350:\n        /* \"#utility.yul\":1328:1329   */\n      0x00\n        /* \"#utility.yul\":1353:1406   */\n      tag_352\n        /* \"#utility.yul\":1398:1405   */\n      dup8\n        /* \"#utility.yul\":1389:1395   */\n      dup3\n        /* \"#utility.yul\":1378:1387   */\n      dup9\n        /* \"#utility.yul\":1374:1396   */\n      add\n        /* \"#utility.yul\":1353:1406   */\n      tag_293\n      jump\t// in\n    tag_352:\n        /* \"#utility.yul\":1343:1406   */\n      swap5\n      pop\n        /* \"#utility.yul\":1299:1416   */\n      pop\n        /* \"#utility.yul\":1455:1457   */\n      0x20\n        /* \"#utility.yul\":1481:1534   */\n      tag_353\n        /* \"#utility.yul\":1526:1533   */\n      dup8\n        /* \"#utility.yul\":1517:1523   */\n      dup3\n        /* \"#utility.yul\":1506:1515   */\n      dup9\n        /* \"#utility.yul\":1502:1524   */\n      add\n        /* \"#utility.yul\":1481:1534   */\n      tag_293\n      jump\t// in\n    tag_353:\n        /* \"#utility.yul\":1471:1534   */\n      swap4\n      pop\n        /* \"#utility.yul\":1426:1544   */\n      pop\n        /* \"#utility.yul\":1583:1585   */\n      0x40\n        /* \"#utility.yul\":1609:1662   */\n      tag_354\n        /* \"#utility.yul\":1654:1661   */\n      dup8\n        /* \"#utility.yul\":1645:1651   */\n      dup3\n        /* \"#utility.yul\":1634:1643   */\n      dup9\n        /* \"#utility.yul\":1630:1652   */\n      add\n        /* \"#utility.yul\":1609:1662   */\n      tag_293\n      jump\t// in\n    tag_354:\n        /* \"#utility.yul\":1599:1662   */\n      swap3\n      pop\n        /* \"#utility.yul\":1554:1672   */\n      pop\n        /* \"#utility.yul\":1711:1713   */\n      0x60\n        /* \"#utility.yul\":1737:1790   */\n      tag_355\n        /* \"#utility.yul\":1782:1789   */\n      dup8\n        /* \"#utility.yul\":1773:1779   */\n      dup3\n        /* \"#utility.yul\":1762:1771   */\n      dup9\n        /* \"#utility.yul\":1758:1780   */\n      add\n        /* \"#utility.yul\":1737:1790   */\n      tag_293\n      jump\t// in\n    tag_355:\n        /* \"#utility.yul\":1727:1790   */\n      swap2\n      pop\n        /* \"#utility.yul\":1682:1800   */\n      pop\n        /* \"#utility.yul\":1042:1807   */\n      swap3\n      swap6\n      swap2\n      swap5\n      pop\n      swap3\n      pop\n      jump\t// out\n        /* \"#utility.yul\":1813:1927   */\n    tag_294:\n        /* \"#utility.yul\":1880:1886   */\n      0x00\n        /* \"#utility.yul\":1914:1919   */\n      dup2\n        /* \"#utility.yul\":1908:1920   */\n      mload\n        /* \"#utility.yul\":1898:1920   */\n      swap1\n      pop\n        /* \"#utility.yul\":1813:1927   */\n      swap2\n      swap1\n      pop\n      jump\t// out\n        /* \"#utility.yul\":1933:2117   */\n    tag_295:\n        /* \"#utility.yul\":2032:2043   */\n      0x00\n        /* \"#utility.yul\":2066:2072   */\n      dup3\n        /* \"#utility.yul\":2061:2064   */\n      dup3\n        /* \"#utility.yul\":2054:2073   */\n      mstore\n        /* \"#utility.yul\":2106:2110   */\n      0x20\n        /* \"#utility.yul\":2101:2104   */\n      dup3\n        /* \"#utility.yul\":2097:2111   */\n      add\n        /* \"#utility.yul\":2082:2111   */\n      swap1\n      pop\n        /* \"#utility.yul\":1933:2117   */\n      swap3\n      swap2\n      pop\n      pop\n      jump\t// out\n        /* \"#utility.yul\":2123:2255   */\n    tag_296:\n        /* \"#utility.yul\":2190:2194   */\n      0x00\n        /* \"#utility.yul\":2213:2216   */\n      dup2\n        /* \"#utility.yul\":2205:2216   */\n      swap1\n      pop\n        /* \"#utility.yul\":2243:2247   */\n      0x20\n        /* \"#utility.yul\":2238:2241   */\n      dup3\n        /* \"#utility.yul\":2234:2248   */\n      add\n        /* \"#utility.yul\":2226:2248   */\n      swap1\n      pop\n        /* \"#utility.yul\":2123:2255   */\n      swap2\n      swap1\n      pop\n      jump\t// out\n        /* \"#utility.yul\":2261:2387   */\n    tag_297:\n        /* \"#utility.yul\":2298:2305   */\n      0x00\n        /* \"#utility.yul\":2338:2380   */\n      0xffffffffffffffffffffffffffffffffffffffff\n        /* \"#utility.yul\":2331:2336   */\n      dup3\n        /* \"#utility.yul\":2327:2381   */\n      and\n        /* \"#utility.yul\":2316:2381   */\n      swap1\n      pop\n        /* \"#utility.yul\":2261:2387   */\n      swap2\n      swap1\n      pop\n      jump\t// out\n        /* \"#utility.yul\":2393:2489   */\n    tag_298:\n        /* \"#utility.yul\":2430:2437   */\n      0x00\n        /* \"#utility.yul\":2459:2483   */\n      tag_361\n        /* \"#utility.yul\":2477:2482   */\n      dup3\n        /* \"#utility.yul\":2459:2483   */\n      tag_297\n      jump\t// in\n    tag_361:\n        /* \"#utility.yul\":2448:2483   */\n      swap1\n      pop\n        /* \"#utility.yul\":2393:2489   */\n      swap2\n      swap1\n      pop\n      jump\t// out\n        /* \"#utility.yul\":2495:2603   */\n    tag_299:\n        /* \"#utility.yul\":2572:2596   */\n      tag_363\n        /* \"#utility.yul\":2590:2595   */\n      dup2\n        /* \"#utility.yul\":2572:2596   */\n      tag_298\n      jump\t// in\n    tag_363:\n        /* \"#utility.yul\":2567:2570   */\n      dup3\n        /* \"#utility.yul\":2560:2597   */\n      mstore\n        /* \"#utility.yul\":2495:2603   */\n      pop\n      pop\n      jump\t// out\n        /* \"#utility.yul\":2609:2788   */\n    tag_300:\n        /* \"#utility.yul\":2678:2688   */\n      0x00\n        /* \"#utility.yul\":2699:2745   */\n      tag_365\n        /* \"#utility.yul\":2741:2744   */\n      dup4\n        /* \"#utility.yul\":2733:2739   */\n      dup4\n        /* \"#utility.yul\":2699:2745   */\n      tag_299\n      jump\t// in\n    tag_365:\n        /* \"#utility.yul\":2777:2781   */\n      0x20\n        /* \"#utility.yul\":2772:2775   */\n      dup4\n        /* \"#utility.yul\":2768:2782   */\n      add\n        /* \"#utility.yul\":2754:2782   */\n      swap1\n      pop\n        /* \"#utility.yul\":2609:2788   */\n      swap3\n      swap2\n      pop\n      pop\n      jump\t// out\n        /* \"#utility.yul\":2794:2907   */\n    tag_301:\n        /* \"#utility.yul\":2864:2868   */\n      0x00\n        /* \"#utility.yul\":2896:2900   */\n      0x20\n        /* \"#utility.yul\":2891:2894   */\n      dup3\n        /* \"#utility.yul\":2887:2901   */\n      add\n        /* \"#utility.yul\":2879:2901   */\n      swap1\n      pop\n        /* \"#utility.yul\":2794:2907   */\n      swap2\n      swap1\n      pop\n      jump\t// out\n        /* \"#utility.yul\":2943:3675   */\n    tag_302:\n        /* \"#utility.yul\":3062:3065   */\n      0x00\n        /* \"#utility.yul\":3091:3145   */\n      tag_368\n        /* \"#utility.yul\":3139:3144   */\n      dup3\n        /* \"#utility.yul\":3091:3145   */\n      tag_294\n      jump\t// in\n    tag_368:\n        /* \"#utility.yul\":3161:3247   */\n      tag_369\n        /* \"#utility.yul\":3240:3246   */\n      dup2\n        /* \"#utility.yul\":3235:3238   */\n      dup6\n        /* \"#utility.yul\":3161:3247   */\n      tag_295\n      jump\t// in\n    tag_369:\n        /* \"#utility.yul\":3154:3247   */\n      swap4\n      pop\n        /* \"#utility.yul\":3271:3327   */\n      tag_370\n        /* \"#utility.yul\":3321:3326   */\n      dup4\n        /* \"#utility.yul\":3271:3327   */\n      tag_296\n      jump\t// in\n    tag_370:\n        /* \"#utility.yul\":3350:3357   */\n      dup1\n        /* \"#utility.yul\":3381:3382   */\n      0x00\n        /* \"#utility.yul\":3366:3650   */\n    tag_371:\n        /* \"#utility.yul\":3391:3397   */\n      dup4\n        /* \"#utility.yul\":3388:3389   */\n      dup2\n        /* \"#utility.yul\":3385:3398   */\n      lt\n        /* \"#utility.yul\":3366:3650   */\n      iszero\n      tag_373\n      jumpi\n        /* \"#utility.yul\":3467:3473   */\n      dup2\n        /* \"#utility.yul\":3461:3474   */\n      mload\n        /* \"#utility.yul\":3494:3557   */\n      tag_374\n        /* \"#utility.yul\":3553:3556   */\n      dup9\n        /* \"#utility.yul\":3538:3551   */\n      dup3\n        /* \"#utility.yul\":3494:3557   */\n      tag_300\n      jump\t// in\n    tag_374:\n        /* \"#utility.yul\":3487:3557   */\n      swap8\n      pop\n        /* \"#utility.yul\":3580:3640   */\n      tag_375\n        /* \"#utility.yul\":3633:3639   */\n      dup4\n        /* \"#utility.yul\":3580:3640   */\n      tag_301\n      jump\t// in\n    tag_375:\n        /* \"#utility.yul\":3570:3640   */\n      swap3\n      pop\n        /* \"#utility.yul\":3426:3650   */\n      pop\n        /* \"#utility.yul\":3413:3414   */\n      0x01\n        /* \"#utility.yul\":3410:3411   */\n      dup2\n        /* \"#utility.yul\":3406:3415   */\n      add\n        /* \"#utility.yul\":3401:3415   */\n      swap1\n      pop\n        /* \"#utility.yul\":3366:3650   */\n      jump(tag_371)\n    tag_373:\n        /* \"#utility.yul\":3370:3384   */\n      pop\n        /* \"#utility.yul\":3666:3669   */\n      dup6\n        /* \"#utility.yul\":3659:3669   */\n      swap4\n      pop\n        /* \"#utility.yul\":3067:3675   */\n      pop\n      pop\n      pop\n        /* \"#utility.yul\":2943:3675   */\n      swap3\n      swap2\n      pop\n      pop\n      jump\t// out\n        /* \"#utility.yul\":3681:4054   */\n    tag_73:\n        /* \"#utility.yul\":3824:3828   */\n      0x00\n        /* \"#utility.yul\":3862:3864   */\n      0x20\n        /* \"#utility.yul\":3851:3860   */\n      dup3\n        /* \"#utility.yul\":3847:3865   */\n      add\n        /* \"#utility.yul\":3839:3865   */\n      swap1\n      pop\n        /* \"#utility.yul\":3911:3920   */\n      dup2\n        /* \"#utility.yul\":3905:3909   */\n      dup2\n        /* \"#utility.yul\":3901:3921   */\n      sub\n        /* \"#utility.yul\":3897:3898   */\n      0x00\n        /* \"#utility.yul\":3886:3895   */\n      dup4\n        /* \"#utility.yul\":3882:3899   */\n      add\n        /* \"#utility.yul\":3875:3922   */\n      mstore\n        /* \"#utility.yul\":3939:4047   */\n      tag_377\n        /* \"#utility.yul\":4042:4046   */\n      dup2\n        /* \"#utility.yul\":4033:4039   */\n      dup5\n        /* \"#utility.yul\":3939:4047   */\n      tag_302\n      jump\t// in\n    tag_377:\n        /* \"#utility.yul\":3931:4047   */\n      swap1\n      pop\n        /* \"#utility.yul\":3681:4054   */\n      swap3\n      swap2\n      pop\n      pop\n      jump\t// out\n        /* \"#utility.yul\":4060:4389   */\n    tag_77:\n        /* \"#utility.yul\":4119:4125   */\n      0x00\n        /* \"#utility.yul\":4168:4170   */\n      0x20\n        /* \"#utility.yul\":4156:4165   */\n      dup3\n        /* \"#utility.yul\":4147:4154   */\n      dup5\n        /* \"#utility.yul\":4143:4166   */\n      sub\n        /* \"#utility.yul\":4139:4171   */\n      slt\n        /* \"#utility.yul\":4136:4255   */\n      iszero\n      tag_379\n      jumpi\n        /* \"#utility.yul\":4174:4253   */\n      tag_380\n      tag_290\n      jump\t// in\n    tag_380:\n        /* \"#utility.yul\":4136:4255   */\n    tag_379:\n        /* \"#utility.yul\":4294:4295   */\n      0x00\n        /* \"#utility.yul\":4319:4372   */\n      tag_381\n        /* \"#utility.yul\":4364:4371   */\n      dup5\n        /* \"#utility.yul\":4355:4361   */\n      dup3\n        /* \"#utility.yul\":4344:4353   */\n      dup6\n        /* \"#utility.yul\":4340:4362   */\n      add\n        /* \"#utility.yul\":4319:4372   */\n      tag_293\n      jump\t// in\n    tag_381:\n        /* \"#utility.yul\":4309:4372   */\n      swap2\n      pop\n        /* \"#utility.yul\":4265:4382   */\n      pop\n        /* \"#utility.yul\":4060:4389   */\n      swap3\n      swap2\n      pop\n      pop\n      jump\t// out\n        /* \"#utility.yul\":4395:4513   */\n    tag_303:\n        /* \"#utility.yul\":4482:4506   */\n      tag_383\n        /* \"#utility.yul\":4500:4505   */\n      dup2\n        /* \"#utility.yul\":4482:4506   */\n      tag_298\n      jump\t// in\n    tag_383:\n        /* \"#utility.yul\":4477:4480   */\n      dup3\n        /* \"#utility.yul\":4470:4507   */\n      mstore\n        /* \"#utility.yul\":4395:4513   */\n      pop\n      pop\n      jump\t// out\n        /* \"#utility.yul\":4519:4741   */\n    tag_80:\n        /* \"#utility.yul\":4612:4616   */\n      0x00\n        /* \"#utility.yul\":4650:4652   */\n      0x20\n        /* \"#utility.yul\":4639:4648   */\n      dup3\n        /* \"#utility.yul\":4635:4653   */\n      add\n        /* \"#utility.yul\":4627:4653   */\n      swap1\n      pop\n        /* \"#utility.yul\":4663:4734   */\n      tag_385\n        /* \"#utility.yul\":4731:4732   */\n      0x00\n        /* \"#utility.yul\":4720:4729   */\n      dup4\n        /* \"#utility.yul\":4716:4733   */\n      add\n        /* \"#utility.yul\":4707:4713   */\n      dup5\n        /* \"#utility.yul\":4663:4734   */\n      tag_303\n      jump\t// in\n    tag_385:\n        /* \"#utility.yul\":4519:4741   */\n      swap3\n      swap2\n      pop\n      pop\n      jump\t// out\n        /* \"#utility.yul\":4747:4837   */\n    tag_304:\n        /* \"#utility.yul\":4781:4788   */\n      0x00\n        /* \"#utility.yul\":4824:4829   */\n      dup2\n        /* \"#utility.yul\":4817:4830   */\n      iszero\n        /* \"#utility.yul\":4810:4831   */\n      iszero\n        /* \"#utility.yul\":4799:4831   */\n      swap1\n      pop\n        /* \"#utility.yul\":4747:4837   */\n      swap2\n      swap1\n      pop\n      jump\t// out\n        /* \"#utility.yul\":4843:4952   */\n    tag_305:\n        /* \"#utility.yul\":4924:4945   */\n      tag_388\n        /* \"#utility.yul\":4939:4944   */\n      dup2\n        /* \"#utility.yul\":4924:4945   */\n      tag_304\n      jump\t// in\n    tag_388:\n        /* \"#utility.yul\":4919:4922   */\n      dup3\n        /* \"#utility.yul\":4912:4946   */\n      mstore\n        /* \"#utility.yul\":4843:4952   */\n      pop\n      pop\n      jump\t// out\n        /* \"#utility.yul\":4958:5168   */\n    tag_102:\n        /* \"#utility.yul\":5045:5049   */\n      0x00\n        /* \"#utility.yul\":5083:5085   */\n      0x20\n        /* \"#utility.yul\":5072:5081   */\n      dup3\n        /* \"#utility.yul\":5068:5086   */\n      add\n        /* \"#utility.yul\":5060:5086   */\n      swap1\n      pop\n        /* \"#utility.yul\":5096:5161   */\n      tag_390\n        /* \"#utility.yul\":5158:5159   */\n      0x00\n        /* \"#utility.yul\":5147:5156   */\n      dup4\n        /* \"#utility.yul\":5143:5160   */\n      add\n        /* \"#utility.yul\":5134:5140   */\n      dup5\n        /* \"#utility.yul\":5096:5161   */\n      tag_305\n      jump\t// in\n    tag_390:\n        /* \"#utility.yul\":4958:5168   */\n      swap3\n      swap2\n      pop\n      pop\n      jump\t// out\n        /* \"#utility.yul\":5174:5296   */\n    tag_306:\n        /* \"#utility.yul\":5247:5271   */\n      tag_392\n        /* \"#utility.yul\":5265:5270   */\n      dup2\n        /* \"#utility.yul\":5247:5271   */\n      tag_298\n      jump\t// in\n    tag_392:\n        /* \"#utility.yul\":5240:5245   */\n      dup2\n        /* \"#utility.yul\":5237:5272   */\n      eq\n        /* \"#utility.yul\":5227:5290   */\n      tag_393\n      jumpi\n        /* \"#utility.yul\":5286:5287   */\n      0x00\n        /* \"#utility.yul\":5283:5284   */\n      dup1\n        /* \"#utility.yul\":5276:5288   */\n      revert\n        /* \"#utility.yul\":5227:5290   */\n    tag_393:\n        /* \"#utility.yul\":5174:5296   */\n      pop\n      jump\t// out\n        /* \"#utility.yul\":5302:5441   */\n    tag_307:\n        /* \"#utility.yul\":5348:5353   */\n      0x00\n        /* \"#utility.yul\":5386:5392   */\n      dup2\n        /* \"#utility.yul\":5373:5393   */\n      calldataload\n        /* \"#utility.yul\":5364:5393   */\n      swap1\n      pop\n        /* \"#utility.yul\":5402:5435   */\n      tag_395\n        /* \"#utility.yul\":5429:5434   */\n      dup2\n        /* \"#utility.yul\":5402:5435   */\n      tag_306\n      jump\t// in\n    tag_395:\n        /* \"#utility.yul\":5302:5441   */\n      swap3\n      swap2\n      pop\n      pop\n      jump\t// out\n        /* \"#utility.yul\":5447:5776   */\n    tag_125:\n        /* \"#utility.yul\":5506:5512   */\n      0x00\n        /* \"#utility.yul\":5555:5557   */\n      0x20\n        /* \"#utility.yul\":5543:5552   */\n      dup3\n        /* \"#utility.yul\":5534:5541   */\n      dup5\n        /* \"#utility.yul\":5530:5553   */\n      sub\n        /* \"#utility.yul\":5526:5558   */\n      slt\n        /* \"#utility.yul\":5523:5642   */\n      iszero\n      tag_397\n      jumpi\n        /* \"#utility.yul\":5561:5640   */\n      tag_398\n      tag_290\n      jump\t// in\n    tag_398:\n        /* \"#utility.yul\":5523:5642   */\n    tag_397:\n        /* \"#utility.yul\":5681:5682   */\n      0x00\n        /* \"#utility.yul\":5706:5759   */\n      tag_399\n        /* \"#utility.yul\":5751:5758   */\n      dup5\n        /* \"#utility.yul\":5742:5748   */\n      dup3\n        /* \"#utility.yul\":5731:5740   */\n      dup6\n        /* \"#utility.yul\":5727:5749   */\n      add\n        /* \"#utility.yul\":5706:5759   */\n      tag_307\n      jump\t// in\n    tag_399:\n        /* \"#utility.yul\":5696:5759   */\n      swap2\n      pop\n        /* \"#utility.yul\":5652:5769   */\n      pop\n        /* \"#utility.yul\":5447:5776   */\n      swap3\n      swap2\n      pop\n      pop\n      jump\t// out\n        /* \"#utility.yul\":5782:5951   */\n    tag_308:\n        /* \"#utility.yul\":5866:5877   */\n      0x00\n        /* \"#utility.yul\":5900:5906   */\n      dup3\n        /* \"#utility.yul\":5895:5898   */\n      dup3\n        /* \"#utility.yul\":5888:5907   */\n      mstore\n        /* \"#utility.yul\":5940:5944   */\n      0x20\n        /* \"#utility.yul\":5935:5938   */\n      dup3\n        /* \"#utility.yul\":5931:5945   */\n      add\n        /* \"#utility.yul\":5916:5945   */\n      swap1\n      pop\n        /* \"#utility.yul\":5782:5951   */\n      swap3\n      swap2\n      pop\n      pop\n      jump\t// out\n        /* \"#utility.yul\":5957:6178   */\n    tag_309:\n        /* \"#utility.yul\":6097:6131   */\n      0x43616c6c6572206973206e6f7420746865206c6f7474657279206f7065726174\n        /* \"#utility.yul\":6093:6094   */\n      0x00\n        /* \"#utility.yul\":6085:6091   */\n      dup3\n        /* \"#utility.yul\":6081:6095   */\n      add\n        /* \"#utility.yul\":6074:6132   */\n      mstore\n        /* \"#utility.yul\":6166:6170   */\n      0x6f72000000000000000000000000000000000000000000000000000000000000\n        /* \"#utility.yul\":6161:6163   */\n      0x20\n        /* \"#utility.yul\":6153:6159   */\n      dup3\n        /* \"#utility.yul\":6149:6164   */\n      add\n        /* \"#utility.yul\":6142:6171   */\n      mstore\n        /* \"#utility.yul\":5957:6178   */\n      pop\n      jump\t// out\n        /* \"#utility.yul\":6184:6550   */\n    tag_310:\n        /* \"#utility.yul\":6326:6329   */\n      0x00\n        /* \"#utility.yul\":6347:6414   */\n      tag_403\n        /* \"#utility.yul\":6411:6413   */\n      0x22\n        /* \"#utility.yul\":6406:6409   */\n      dup4\n        /* \"#utility.yul\":6347:6414   */\n      tag_308\n      jump\t// in\n    tag_403:\n        /* \"#utility.yul\":6340:6414   */\n      swap2\n      pop\n        /* \"#utility.yul\":6423:6516   */\n      tag_404\n        /* \"#utility.yul\":6512:6515   */\n      dup3\n        /* \"#utility.yul\":6423:6516   */\n      tag_309\n      jump\t// in\n    tag_404:\n        /* \"#utility.yul\":6541:6543   */\n      0x40\n        /* \"#utility.yul\":6536:6539   */\n      dup3\n        /* \"#utility.yul\":6532:6544   */\n      add\n        /* \"#utility.yul\":6525:6544   */\n      swap1\n      pop\n        /* \"#utility.yul\":6184:6550   */\n      swap2\n      swap1\n      pop\n      jump\t// out\n        /* \"#utility.yul\":6556:6975   */\n    tag_144:\n        /* \"#utility.yul\":6722:6726   */\n      0x00\n        /* \"#utility.yul\":6760:6762   */\n      0x20\n        /* \"#utility.yul\":6749:6758   */\n      dup3\n        /* \"#utility.yul\":6745:6763   */\n      add\n        /* \"#utility.yul\":6737:6763   */\n      swap1\n      pop\n        /* \"#utility.yul\":6809:6818   */\n      dup2\n        /* \"#utility.yul\":6803:6807   */\n      dup2\n        /* \"#utility.yul\":6799:6819   */\n      sub\n        /* \"#utility.yul\":6795:6796   */\n      0x00\n        /* \"#utility.yul\":6784:6793   */\n      dup4\n        /* \"#utility.yul\":6780:6797   */\n      add\n        /* \"#utility.yul\":6773:6820   */\n      mstore\n        /* \"#utility.yul\":6837:6968   */\n      tag_406\n        /* \"#utility.yul\":6963:6967   */\n      dup2\n        /* \"#utility.yul\":6837:6968   */\n      tag_310\n      jump\t// in\n    tag_406:\n        /* \"#utility.yul\":6829:6968   */\n      swap1\n      pop\n        /* \"#utility.yul\":6556:6975   */\n      swap2\n      swap1\n      pop\n      jump\t// out\n        /* \"#utility.yul\":6981:7156   */\n    tag_311:\n        /* \"#utility.yul\":7121:7148   */\n      0x4e6f207469636b65747320776572652070757263686173656400000000000000\n        /* \"#utility.yul\":7117:7118   */\n      0x00\n        /* \"#utility.yul\":7109:7115   */\n      dup3\n        /* \"#utility.yul\":7105:7119   */\n      add\n        /* \"#utility.yul\":7098:7149   */\n      mstore\n        /* \"#utility.yul\":6981:7156   */\n      pop\n      jump\t// out\n        /* \"#utility.yul\":7162:7528   */\n    tag_312:\n        /* \"#utility.yul\":7304:7307   */\n      0x00\n        /* \"#utility.yul\":7325:7392   */\n      tag_409\n        /* \"#utility.yul\":7389:7391   */\n      0x19\n        /* \"#utility.yul\":7384:7387   */\n      dup4\n        /* \"#utility.yul\":7325:7392   */\n      tag_308\n      jump\t// in\n    tag_409:\n        /* \"#utility.yul\":7318:7392   */\n      swap2\n      pop\n        /* \"#utility.yul\":7401:7494   */\n      tag_410\n        /* \"#utility.yul\":7490:7493   */\n      dup3\n        /* \"#utility.yul\":7401:7494   */\n      tag_311\n      jump\t// in\n    tag_410:\n        /* \"#utility.yul\":7519:7521   */\n      0x20\n        /* \"#utility.yul\":7514:7517   */\n      dup3\n        /* \"#utility.yul\":7510:7522   */\n      add\n        /* \"#utility.yul\":7503:7522   */\n      swap1\n      pop\n        /* \"#utility.yul\":7162:7528   */\n      swap2\n      swap1\n      pop\n      jump\t// out\n        /* \"#utility.yul\":7534:7953   */\n    tag_158:\n        /* \"#utility.yul\":7700:7704   */\n      0x00\n        /* \"#utility.yul\":7738:7740   */\n      0x20\n        /* \"#utility.yul\":7727:7736   */\n      dup3\n        /* \"#utility.yul\":7723:7741   */\n      add\n        /* \"#utility.yul\":7715:7741   */\n      swap1\n      pop\n        /* \"#utility.yul\":7787:7796   */\n      dup2\n        /* \"#utility.yul\":7781:7785   */\n      dup2\n        /* \"#utility.yul\":7777:7797   */\n      sub\n        /* \"#utility.yul\":7773:7774   */\n      0x00\n        /* \"#utility.yul\":7762:7771   */\n      dup4\n        /* \"#utility.yul\":7758:7775   */\n      add\n        /* \"#utility.yul\":7751:7798   */\n      mstore\n        /* \"#utility.yul\":7815:7946   */\n      tag_412\n        /* \"#utility.yul\":7941:7945   */\n      dup2\n        /* \"#utility.yul\":7815:7946   */\n      tag_312\n      jump\t// in\n    tag_412:\n        /* \"#utility.yul\":7807:7946   */\n      swap1\n      pop\n        /* \"#utility.yul\":7534:7953   */\n      swap2\n      swap1\n      pop\n      jump\t// out\n        /* \"#utility.yul\":7959:8139   */\n    tag_313:\n        /* \"#utility.yul\":8007:8084   */\n      0x4e487b7100000000000000000000000000000000000000000000000000000000\n        /* \"#utility.yul\":8004:8005   */\n      0x00\n        /* \"#utility.yul\":7997:8085   */\n      mstore\n        /* \"#utility.yul\":8104:8108   */\n      0x11\n        /* \"#utility.yul\":8101:8102   */\n      0x04\n        /* \"#utility.yul\":8094:8109   */\n      mstore\n        /* \"#utility.yul\":8128:8132   */\n      0x24\n        /* \"#utility.yul\":8125:8126   */\n      0x00\n        /* \"#utility.yul\":8118:8133   */\n      revert\n        /* \"#utility.yul\":8145:8339   */\n    tag_160:\n        /* \"#utility.yul\":8185:8189   */\n      0x00\n        /* \"#utility.yul\":8205:8225   */\n      tag_415\n        /* \"#utility.yul\":8223:8224   */\n      dup3\n        /* \"#utility.yul\":8205:8225   */\n      tag_287\n      jump\t// in\n    tag_415:\n        /* \"#utility.yul\":8200:8225   */\n      swap2\n      pop\n        /* \"#utility.yul\":8239:8259   */\n      tag_416\n        /* \"#utility.yul\":8257:8258   */\n      dup4\n        /* \"#utility.yul\":8239:8259   */\n      tag_287\n      jump\t// in\n    tag_416:\n        /* \"#utility.yul\":8234:8259   */\n      swap3\n      pop\n        /* \"#utility.yul\":8283:8284   */\n      dup3\n        /* \"#utility.yul\":8280:8281   */\n      dup3\n        /* \"#utility.yul\":8276:8285   */\n      sub\n        /* \"#utility.yul\":8268:8285   */\n      swap1\n      pop\n        /* \"#utility.yul\":8307:8308   */\n      dup2\n        /* \"#utility.yul\":8301:8305   */\n      dup2\n        /* \"#utility.yul\":8298:8309   */\n      gt\n        /* \"#utility.yul\":8295:8332   */\n      iszero\n      tag_417\n      jumpi\n        /* \"#utility.yul\":8312:8330   */\n      tag_418\n      tag_313\n      jump\t// in\n    tag_418:\n        /* \"#utility.yul\":8295:8332   */\n    tag_417:\n        /* \"#utility.yul\":8145:8339   */\n      swap3\n      swap2\n      pop\n      pop\n      jump\t// out\n        /* \"#utility.yul\":8345:8424   */\n    tag_314:\n        /* \"#utility.yul\":8384:8391   */\n      0x00\n        /* \"#utility.yul\":8413:8418   */\n      dup2\n        /* \"#utility.yul\":8402:8418   */\n      swap1\n      pop\n        /* \"#utility.yul\":8345:8424   */\n      swap2\n      swap1\n      pop\n      jump\t// out\n        /* \"#utility.yul\":8430:8587   */\n    tag_315:\n        /* \"#utility.yul\":8535:8580   */\n      tag_421\n        /* \"#utility.yul\":8555:8579   */\n      tag_422\n        /* \"#utility.yul\":8573:8578   */\n      dup3\n        /* \"#utility.yul\":8555:8579   */\n      tag_287\n      jump\t// in\n    tag_422:\n        /* \"#utility.yul\":8535:8580   */\n      tag_314\n      jump\t// in\n    tag_421:\n        /* \"#utility.yul\":8530:8533   */\n      dup3\n        /* \"#utility.yul\":8523:8581   */\n      mstore\n        /* \"#utility.yul\":8430:8587   */\n      pop\n      pop\n      jump\t// out\n        /* \"#utility.yul\":8593:8670   */\n    tag_316:\n        /* \"#utility.yul\":8630:8637   */\n      0x00\n        /* \"#utility.yul\":8659:8664   */\n      dup2\n        /* \"#utility.yul\":8648:8664   */\n      swap1\n      pop\n        /* \"#utility.yul\":8593:8670   */\n      swap2\n      swap1\n      pop\n      jump\t// out\n        /* \"#utility.yul\":8676:8755   */\n    tag_317:\n        /* \"#utility.yul\":8715:8722   */\n      0x00\n        /* \"#utility.yul\":8744:8749   */\n      dup2\n        /* \"#utility.yul\":8733:8749   */\n      swap1\n      pop\n        /* \"#utility.yul\":8676:8755   */\n      swap2\n      swap1\n      pop\n      jump\t// out\n        /* \"#utility.yul\":8761:8918   */\n    tag_318:\n        /* \"#utility.yul\":8866:8911   */\n      tag_426\n        /* \"#utility.yul\":8886:8910   */\n      tag_427\n        /* \"#utility.yul\":8904:8909   */\n      dup3\n        /* \"#utility.yul\":8886:8910   */\n      tag_316\n      jump\t// in\n    tag_427:\n        /* \"#utility.yul\":8866:8911   */\n      tag_317\n      jump\t// in\n    tag_426:\n        /* \"#utility.yul\":8861:8864   */\n      dup3\n        /* \"#utility.yul\":8854:8912   */\n      mstore\n        /* \"#utility.yul\":8761:8918   */\n      pop\n      pop\n      jump\t// out\n        /* \"#utility.yul\":8924:9321   */\n    tag_162:\n        /* \"#utility.yul\":9064:9067   */\n      0x00\n        /* \"#utility.yul\":9079:9154   */\n      tag_429\n        /* \"#utility.yul\":9150:9153   */\n      dup3\n        /* \"#utility.yul\":9141:9147   */\n      dup6\n        /* \"#utility.yul\":9079:9154   */\n      tag_315\n      jump\t// in\n    tag_429:\n        /* \"#utility.yul\":9179:9181   */\n      0x20\n        /* \"#utility.yul\":9174:9177   */\n      dup3\n        /* \"#utility.yul\":9170:9182   */\n      add\n        /* \"#utility.yul\":9163:9182   */\n      swap2\n      pop\n        /* \"#utility.yul\":9192:9267   */\n      tag_430\n        /* \"#utility.yul\":9263:9266   */\n      dup3\n        /* \"#utility.yul\":9254:9260   */\n      dup5\n        /* \"#utility.yul\":9192:9267   */\n      tag_318\n      jump\t// in\n    tag_430:\n        /* \"#utility.yul\":9292:9294   */\n      0x20\n        /* \"#utility.yul\":9287:9290   */\n      dup3\n        /* \"#utility.yul\":9283:9295   */\n      add\n        /* \"#utility.yul\":9276:9295   */\n      swap2\n      pop\n        /* \"#utility.yul\":9312:9315   */\n      dup2\n        /* \"#utility.yul\":9305:9315   */\n      swap1\n      pop\n        /* \"#utility.yul\":8924:9321   */\n      swap4\n      swap3\n      pop\n      pop\n      pop\n      jump\t// out\n        /* \"#utility.yul\":9327:9507   */\n    tag_260:\n        /* \"#utility.yul\":9375:9452   */\n      0x4e487b7100000000000000000000000000000000000000000000000000000000\n        /* \"#utility.yul\":9372:9373   */\n      0x00\n        /* \"#utility.yul\":9365:9453   */\n      mstore\n        /* \"#utility.yul\":9472:9476   */\n      0x12\n        /* \"#utility.yul\":9469:9470   */\n      0x04\n        /* \"#utility.yul\":9462:9477   */\n      mstore\n        /* \"#utility.yul\":9496:9500   */\n      0x24\n        /* \"#utility.yul\":9493:9494   */\n      0x00\n        /* \"#utility.yul\":9486:9501   */\n      revert\n        /* \"#utility.yul\":9513:9689   */\n    tag_164:\n        /* \"#utility.yul\":9545:9546   */\n      0x00\n        /* \"#utility.yul\":9562:9582   */\n      tag_433\n        /* \"#utility.yul\":9580:9581   */\n      dup3\n        /* \"#utility.yul\":9562:9582   */\n      tag_287\n      jump\t// in\n    tag_433:\n        /* \"#utility.yul\":9557:9582   */\n      swap2\n      pop\n        /* \"#utility.yul\":9596:9616   */\n      tag_434\n        /* \"#utility.yul\":9614:9615   */\n      dup4\n        /* \"#utility.yul\":9596:9616   */\n      tag_287\n      jump\t// in\n    tag_434:\n        /* \"#utility.yul\":9591:9616   */\n      swap3\n      pop\n        /* \"#utility.yul\":9635:9636   */\n      dup3\n        /* \"#utility.yul\":9625:9660   */\n      tag_435\n      jumpi\n        /* \"#utility.yul\":9640:9658   */\n      tag_436\n      tag_260\n      jump\t// in\n    tag_436:\n        /* \"#utility.yul\":9625:9660   */\n    tag_435:\n        /* \"#utility.yul\":9681:9682   */\n      dup3\n        /* \"#utility.yul\":9678:9679   */\n      dup3\n        /* \"#utility.yul\":9674:9683   */\n      mod\n        /* \"#utility.yul\":9669:9683   */\n      swap1\n      pop\n        /* \"#utility.yul\":9513:9689   */\n      swap3\n      swap2\n      pop\n      pop\n      jump\t// out\n        /* \"#utility.yul\":9695:9875   */\n    tag_167:\n        /* \"#utility.yul\":9743:9820   */\n      0x4e487b7100000000000000000000000000000000000000000000000000000000\n        /* \"#utility.yul\":9740:9741   */\n      0x00\n        /* \"#utility.yul\":9733:9821   */\n      mstore\n        /* \"#utility.yul\":9840:9844   */\n      0x32\n        /* \"#utility.yul\":9837:9838   */\n      0x04\n        /* \"#utility.yul\":9830:9845   */\n      mstore\n        /* \"#utility.yul\":9864:9868   */\n      0x24\n        /* \"#utility.yul\":9861:9862   */\n      0x00\n        /* \"#utility.yul\":9854:9869   */\n      revert\n        /* \"#utility.yul\":9881:10291   */\n    tag_171:\n        /* \"#utility.yul\":9921:9928   */\n      0x00\n        /* \"#utility.yul\":9944:9964   */\n      tag_439\n        /* \"#utility.yul\":9962:9963   */\n      dup3\n        /* \"#utility.yul\":9944:9964   */\n      tag_287\n      jump\t// in\n    tag_439:\n        /* \"#utility.yul\":9939:9964   */\n      swap2\n      pop\n        /* \"#utility.yul\":9978:9998   */\n      tag_440\n        /* \"#utility.yul\":9996:9997   */\n      dup4\n        /* \"#utility.yul\":9978:9998   */\n      tag_287\n      jump\t// in\n    tag_440:\n        /* \"#utility.yul\":9973:9998   */\n      swap3\n      pop\n        /* \"#utility.yul\":10033:10034   */\n      dup3\n        /* \"#utility.yul\":10030:10031   */\n      dup3\n        /* \"#utility.yul\":10026:10035   */\n      mul\n        /* \"#utility.yul\":10055:10085   */\n      tag_441\n        /* \"#utility.yul\":10073:10084   */\n      dup2\n        /* \"#utility.yul\":10055:10085   */\n      tag_287\n      jump\t// in\n    tag_441:\n        /* \"#utility.yul\":10044:10085   */\n      swap2\n      pop\n        /* \"#utility.yul\":10234:10235   */\n      dup3\n        /* \"#utility.yul\":10225:10232   */\n      dup3\n        /* \"#utility.yul\":10221:10236   */\n      div\n        /* \"#utility.yul\":10218:10219   */\n      dup5\n        /* \"#utility.yul\":10215:10237   */\n      eq\n        /* \"#utility.yul\":10195:10196   */\n      dup4\n        /* \"#utility.yul\":10188:10197   */\n      iszero\n        /* \"#utility.yul\":10168:10251   */\n      or\n        /* \"#utility.yul\":10145:10284   */\n      tag_442\n      jumpi\n        /* \"#utility.yul\":10264:10282   */\n      tag_443\n      tag_313\n      jump\t// in\n    tag_443:\n        /* \"#utility.yul\":10145:10284   */\n    tag_442:\n        /* \"#utility.yul\":9929:10291   */\n      pop\n        /* \"#utility.yul\":9881:10291   */\n      swap3\n      swap2\n      pop\n      pop\n      jump\t// out\n        /* \"#utility.yul\":10297:10488   */\n    tag_173:\n        /* \"#utility.yul\":10337:10340   */\n      0x00\n        /* \"#utility.yul\":10356:10376   */\n      tag_445\n        /* \"#utility.yul\":10374:10375   */\n      dup3\n        /* \"#utility.yul\":10356:10376   */\n      tag_287\n      jump\t// in\n    tag_445:\n        /* \"#utility.yul\":10351:10376   */\n      swap2\n      pop\n        /* \"#utility.yul\":10390:10410   */\n      tag_446\n        /* \"#utility.yul\":10408:10409   */\n      dup4\n        /* \"#utility.yul\":10390:10410   */\n      tag_287\n      jump\t// in\n    tag_446:\n        /* \"#utility.yul\":10385:10410   */\n      swap3\n      pop\n        /* \"#utility.yul\":10433:10434   */\n      dup3\n        /* \"#utility.yul\":10430:10431   */\n      dup3\n        /* \"#utility.yul\":10426:10435   */\n      add\n        /* \"#utility.yul\":10419:10435   */\n      swap1\n      pop\n        /* \"#utility.yul\":10454:10457   */\n      dup1\n        /* \"#utility.yul\":10451:10452   */\n      dup3\n        /* \"#utility.yul\":10448:10458   */\n      gt\n        /* \"#utility.yul\":10445:10481   */\n      iszero\n      tag_447\n      jumpi\n        /* \"#utility.yul\":10461:10479   */\n      tag_448\n      tag_313\n      jump\t// in\n    tag_448:\n        /* \"#utility.yul\":10445:10481   */\n    tag_447:\n        /* \"#utility.yul\":10297:10488   */\n      swap3\n      swap2\n      pop\n      pop\n      jump\t// out\n        /* \"#utility.yul\":10494:10666   */\n    tag_319:\n        /* \"#utility.yul\":10634:10658   */\n      0x43616c6c6572206973206e6f7420612077696e6e657200000000000000000000\n        /* \"#utility.yul\":10630:10631   */\n      0x00\n        /* \"#utility.yul\":10622:10628   */\n      dup3\n        /* \"#utility.yul\":10618:10632   */\n      add\n        /* \"#utility.yul\":10611:10659   */\n      mstore\n        /* \"#utility.yul\":10494:10666   */\n      pop\n      jump\t// out\n        /* \"#utility.yul\":10672:11038   */\n    tag_320:\n        /* \"#utility.yul\":10814:10817   */\n      0x00\n        /* \"#utility.yul\":10835:10902   */\n      tag_451\n        /* \"#utility.yul\":10899:10901   */\n      0x16\n        /* \"#utility.yul\":10894:10897   */\n      dup4\n        /* \"#utility.yul\":10835:10902   */\n      tag_308\n      jump\t// in\n    tag_451:\n        /* \"#utility.yul\":10828:10902   */\n      swap2\n      pop\n        /* \"#utility.yul\":10911:11004   */\n      tag_452\n        /* \"#utility.yul\":11000:11003   */\n      dup3\n        /* \"#utility.yul\":10911:11004   */\n      tag_319\n      jump\t// in\n    tag_452:\n        /* \"#utility.yul\":11029:11031   */\n      0x20\n        /* \"#utility.yul\":11024:11027   */\n      dup3\n        /* \"#utility.yul\":11020:11032   */\n      add\n        /* \"#utility.yul\":11013:11032   */\n      swap1\n      pop\n        /* \"#utility.yul\":10672:11038   */\n      swap2\n      swap1\n      pop\n      jump\t// out\n        /* \"#utility.yul\":11044:11463   */\n    tag_188:\n        /* \"#utility.yul\":11210:11214   */\n      0x00\n        /* \"#utility.yul\":11248:11250   */\n      0x20\n        /* \"#utility.yul\":11237:11246   */\n      dup3\n        /* \"#utility.yul\":11233:11251   */\n      add\n        /* \"#utility.yul\":11225:11251   */\n      swap1\n      pop\n        /* \"#utility.yul\":11297:11306   */\n      dup2\n        /* \"#utility.yul\":11291:11295   */\n      dup2\n        /* \"#utility.yul\":11287:11307   */\n      sub\n        /* \"#utility.yul\":11283:11284   */\n      0x00\n        /* \"#utility.yul\":11272:11281   */\n      dup4\n        /* \"#utility.yul\":11268:11285   */\n      add\n        /* \"#utility.yul\":11261:11308   */\n      mstore\n        /* \"#utility.yul\":11325:11456   */\n      tag_454\n        /* \"#utility.yul\":11451:11455   */\n      dup2\n        /* \"#utility.yul\":11325:11456   */\n      tag_320\n      jump\t// in\n    tag_454:\n        /* \"#utility.yul\":11317:11456   */\n      swap1\n      pop\n        /* \"#utility.yul\":11044:11463   */\n      swap2\n      swap1\n      pop\n      jump\t// out\n        /* \"#utility.yul\":11469:11677   */\n    tag_321:\n        /* \"#utility.yul\":11638:11670   */\n      0x7468652076616c7565206d757374206265206d756c7469706c65206f66200000\n        /* \"#utility.yul\":11633:11636   */\n      dup2\n        /* \"#utility.yul\":11626:11671   */\n      mstore\n        /* \"#utility.yul\":11469:11677   */\n      pop\n      jump\t// out\n        /* \"#utility.yul\":11683:11782   */\n    tag_322:\n        /* \"#utility.yul\":11735:11741   */\n      0x00\n        /* \"#utility.yul\":11769:11774   */\n      dup2\n        /* \"#utility.yul\":11763:11775   */\n      mload\n        /* \"#utility.yul\":11753:11775   */\n      swap1\n      pop\n        /* \"#utility.yul\":11683:11782   */\n      swap2\n      swap1\n      pop\n      jump\t// out\n        /* \"#utility.yul\":11788:11936   */\n    tag_323:\n        /* \"#utility.yul\":11890:11901   */\n      0x00\n        /* \"#utility.yul\":11927:11930   */\n      dup2\n        /* \"#utility.yul\":11912:11930   */\n      swap1\n      pop\n        /* \"#utility.yul\":11788:11936   */\n      swap3\n      swap2\n      pop\n      pop\n      jump\t// out\n        /* \"#utility.yul\":11942:12188   */\n    tag_324:\n        /* \"#utility.yul\":12023:12024   */\n      0x00\n        /* \"#utility.yul\":12033:12146   */\n    tag_459:\n        /* \"#utility.yul\":12047:12053   */\n      dup4\n        /* \"#utility.yul\":12044:12045   */\n      dup2\n        /* \"#utility.yul\":12041:12054   */\n      lt\n        /* \"#utility.yul\":12033:12146   */\n      iszero\n      tag_461\n      jumpi\n        /* \"#utility.yul\":12132:12133   */\n      dup1\n        /* \"#utility.yul\":12127:12130   */\n      dup3\n        /* \"#utility.yul\":12123:12134   */\n      add\n        /* \"#utility.yul\":12117:12135   */\n      mload\n        /* \"#utility.yul\":12113:12114   */\n      dup2\n        /* \"#utility.yul\":12108:12111   */\n      dup5\n        /* \"#utility.yul\":12104:12115   */\n      add\n        /* \"#utility.yul\":12097:12136   */\n      mstore\n        /* \"#utility.yul\":12069:12071   */\n      0x20\n        /* \"#utility.yul\":12066:12067   */\n      dup2\n        /* \"#utility.yul\":12062:12072   */\n      add\n        /* \"#utility.yul\":12057:12072   */\n      swap1\n      pop\n        /* \"#utility.yul\":12033:12146   */\n      jump(tag_459)\n    tag_461:\n        /* \"#utility.yul\":12180:12181   */\n      0x00\n        /* \"#utility.yul\":12171:12177   */\n      dup5\n        /* \"#utility.yul\":12166:12169   */\n      dup5\n        /* \"#utility.yul\":12162:12178   */\n      add\n        /* \"#utility.yul\":12155:12182   */\n      mstore\n        /* \"#utility.yul\":12004:12188   */\n      pop\n        /* \"#utility.yul\":11942:12188   */\n      pop\n      pop\n      pop\n      jump\t// out\n        /* \"#utility.yul\":12194:12584   */\n    tag_325:\n        /* \"#utility.yul\":12300:12303   */\n      0x00\n        /* \"#utility.yul\":12328:12367   */\n      tag_463\n        /* \"#utility.yul\":12361:12366   */\n      dup3\n        /* \"#utility.yul\":12328:12367   */\n      tag_322\n      jump\t// in\n    tag_463:\n        /* \"#utility.yul\":12383:12472   */\n      tag_464\n        /* \"#utility.yul\":12465:12471   */\n      dup2\n        /* \"#utility.yul\":12460:12463   */\n      dup6\n        /* \"#utility.yul\":12383:12472   */\n      tag_323\n      jump\t// in\n    tag_464:\n        /* \"#utility.yul\":12376:12472   */\n      swap4\n      pop\n        /* \"#utility.yul\":12481:12546   */\n      tag_465\n        /* \"#utility.yul\":12539:12545   */\n      dup2\n        /* \"#utility.yul\":12534:12537   */\n      dup6\n        /* \"#utility.yul\":12527:12531   */\n      0x20\n        /* \"#utility.yul\":12520:12525   */\n      dup7\n        /* \"#utility.yul\":12516:12532   */\n      add\n        /* \"#utility.yul\":12481:12546   */\n      tag_324\n      jump\t// in\n    tag_465:\n        /* \"#utility.yul\":12571:12577   */\n      dup1\n        /* \"#utility.yul\":12566:12569   */\n      dup5\n        /* \"#utility.yul\":12562:12578   */\n      add\n        /* \"#utility.yul\":12555:12578   */\n      swap2\n      pop\n        /* \"#utility.yul\":12304:12584   */\n      pop\n        /* \"#utility.yul\":12194:12584   */\n      swap3\n      swap2\n      pop\n      pop\n      jump\t// out\n        /* \"#utility.yul\":12590:12773   */\n    tag_326:\n        /* \"#utility.yul\":12758:12766   */\n      0x2045746865720000000000000000000000000000000000000000000000000000\n        /* \"#utility.yul\":12753:12756   */\n      dup2\n        /* \"#utility.yul\":12746:12767   */\n      mstore\n        /* \"#utility.yul\":12590:12773   */\n      pop\n      jump\t// out\n        /* \"#utility.yul\":12779:13585   */\n    tag_197:\n        /* \"#utility.yul\":13092:13095   */\n      0x00\n        /* \"#utility.yul\":13107:13245   */\n      tag_468\n        /* \"#utility.yul\":13241:13244   */\n      dup3\n        /* \"#utility.yul\":13107:13245   */\n      tag_321\n      jump\t// in\n    tag_468:\n        /* \"#utility.yul\":13270:13272   */\n      0x1e\n        /* \"#utility.yul\":13265:13268   */\n      dup3\n        /* \"#utility.yul\":13261:13273   */\n      add\n        /* \"#utility.yul\":13254:13273   */\n      swap2\n      pop\n        /* \"#utility.yul\":13290:13385   */\n      tag_469\n        /* \"#utility.yul\":13381:13384   */\n      dup3\n        /* \"#utility.yul\":13372:13378   */\n      dup5\n        /* \"#utility.yul\":13290:13385   */\n      tag_325\n      jump\t// in\n    tag_469:\n        /* \"#utility.yul\":13283:13385   */\n      swap2\n      pop\n        /* \"#utility.yul\":13395:13532   */\n      tag_470\n        /* \"#utility.yul\":13528:13531   */\n      dup3\n        /* \"#utility.yul\":13395:13532   */\n      tag_326\n      jump\t// in\n    tag_470:\n        /* \"#utility.yul\":13557:13558   */\n      0x06\n        /* \"#utility.yul\":13552:13555   */\n      dup3\n        /* \"#utility.yul\":13548:13559   */\n      add\n        /* \"#utility.yul\":13541:13559   */\n      swap2\n      pop\n        /* \"#utility.yul\":13576:13579   */\n      dup2\n        /* \"#utility.yul\":13569:13579   */\n      swap1\n      pop\n        /* \"#utility.yul\":12779:13585   */\n      swap3\n      swap2\n      pop\n      pop\n      jump\t// out\n        /* \"#utility.yul\":13591:13693   */\n    tag_327:\n        /* \"#utility.yul\":13632:13638   */\n      0x00\n        /* \"#utility.yul\":13683:13685   */\n      0x1f\n        /* \"#utility.yul\":13679:13686   */\n      not\n        /* \"#utility.yul\":13674:13676   */\n      0x1f\n        /* \"#utility.yul\":13667:13672   */\n      dup4\n        /* \"#utility.yul\":13663:13677   */\n      add\n        /* \"#utility.yul\":13659:13687   */\n      and\n        /* \"#utility.yul\":13649:13687   */\n      swap1\n      pop\n        /* \"#utility.yul\":13591:13693   */\n      swap2\n      swap1\n      pop\n      jump\t// out\n        /* \"#utility.yul\":13699:14076   */\n    tag_328:\n        /* \"#utility.yul\":13787:13790   */\n      0x00\n        /* \"#utility.yul\":13815:13854   */\n      tag_473\n        /* \"#utility.yul\":13848:13853   */\n      dup3\n        /* \"#utility.yul\":13815:13854   */\n      tag_322\n      jump\t// in\n    tag_473:\n        /* \"#utility.yul\":13870:13941   */\n      tag_474\n        /* \"#utility.yul\":13934:13940   */\n      dup2\n        /* \"#utility.yul\":13929:13932   */\n      dup6\n        /* \"#utility.yul\":13870:13941   */\n      tag_308\n      jump\t// in\n    tag_474:\n        /* \"#utility.yul\":13863:13941   */\n      swap4\n      pop\n        /* \"#utility.yul\":13950:14015   */\n      tag_475\n        /* \"#utility.yul\":14008:14014   */\n      dup2\n        /* \"#utility.yul\":14003:14006   */\n      dup6\n        /* \"#utility.yul\":13996:14000   */\n      0x20\n        /* \"#utility.yul\":13989:13994   */\n      dup7\n        /* \"#utility.yul\":13985:14001   */\n      add\n        /* \"#utility.yul\":13950:14015   */\n      tag_324\n      jump\t// in\n    tag_475:\n        /* \"#utility.yul\":14040:14069   */\n      tag_476\n        /* \"#utility.yul\":14062:14068   */\n      dup2\n        /* \"#utility.yul\":14040:14069   */\n      tag_327\n      jump\t// in\n    tag_476:\n        /* \"#utility.yul\":14035:14038   */\n      dup5\n        /* \"#utility.yul\":14031:14070   */\n      add\n        /* \"#utility.yul\":14024:14070   */\n      swap2\n      pop\n        /* \"#utility.yul\":13791:14076   */\n      pop\n        /* \"#utility.yul\":13699:14076   */\n      swap3\n      swap2\n      pop\n      pop\n      jump\t// out\n        /* \"#utility.yul\":14082:14395   */\n    tag_200:\n        /* \"#utility.yul\":14195:14199   */\n      0x00\n        /* \"#utility.yul\":14233:14235   */\n      0x20\n        /* \"#utility.yul\":14222:14231   */\n      dup3\n        /* \"#utility.yul\":14218:14236   */\n      add\n        /* \"#utility.yul\":14210:14236   */\n      swap1\n      pop\n        /* \"#utility.yul\":14282:14291   */\n      dup2\n        /* \"#utility.yul\":14276:14280   */\n      dup2\n        /* \"#utility.yul\":14272:14292   */\n      sub\n        /* \"#utility.yul\":14268:14269   */\n      0x00\n        /* \"#utility.yul\":14257:14266   */\n      dup4\n        /* \"#utility.yul\":14253:14270   */\n      add\n        /* \"#utility.yul\":14246:14293   */\n      mstore\n        /* \"#utility.yul\":14310:14388   */\n      tag_478\n        /* \"#utility.yul\":14383:14387   */\n      dup2\n        /* \"#utility.yul\":14374:14380   */\n      dup5\n        /* \"#utility.yul\":14310:14388   */\n      tag_328\n      jump\t// in\n    tag_478:\n        /* \"#utility.yul\":14302:14388   */\n      swap1\n      pop\n        /* \"#utility.yul\":14082:14395   */\n      swap3\n      swap2\n      pop\n      pop\n      jump\t// out\n        /* \"#utility.yul\":14401:14586   */\n    tag_202:\n        /* \"#utility.yul\":14441:14442   */\n      0x00\n        /* \"#utility.yul\":14458:14478   */\n      tag_480\n        /* \"#utility.yul\":14476:14477   */\n      dup3\n        /* \"#utility.yul\":14458:14478   */\n      tag_287\n      jump\t// in\n    tag_480:\n        /* \"#utility.yul\":14453:14478   */\n      swap2\n      pop\n        /* \"#utility.yul\":14492:14512   */\n      tag_481\n        /* \"#utility.yul\":14510:14511   */\n      dup4\n        /* \"#utility.yul\":14492:14512   */\n      tag_287\n      jump\t// in\n    tag_481:\n        /* \"#utility.yul\":14487:14512   */\n      swap3\n      pop\n        /* \"#utility.yul\":14531:14532   */\n      dup3\n        /* \"#utility.yul\":14521:14556   */\n      tag_482\n      jumpi\n        /* \"#utility.yul\":14536:14554   */\n      tag_483\n      tag_260\n      jump\t// in\n    tag_483:\n        /* \"#utility.yul\":14521:14556   */\n    tag_482:\n        /* \"#utility.yul\":14578:14579   */\n      dup3\n        /* \"#utility.yul\":14575:14576   */\n      dup3\n        /* \"#utility.yul\":14571:14580   */\n      div\n        /* \"#utility.yul\":14566:14580   */\n      swap1\n      pop\n        /* \"#utility.yul\":14401:14586   */\n      swap3\n      swap2\n      pop\n      pop\n      jump\t// out\n        /* \"#utility.yul\":14592:14771   */\n    tag_329:\n        /* \"#utility.yul\":14732:14763   */\n      0x4e6f7420656e6f756768207469636b65747320617661696c61626c652e000000\n        /* \"#utility.yul\":14728:14729   */\n      0x00\n        /* \"#utility.yul\":14720:14726   */\n      dup3\n        /* \"#utility.yul\":14716:14730   */\n      add\n        /* \"#utility.yul\":14709:14764   */\n      mstore\n        /* \"#utility.yul\":14592:14771   */\n      pop\n      jump\t// out\n        /* \"#utility.yul\":14777:15143   */\n    tag_330:\n        /* \"#utility.yul\":14919:14922   */\n      0x00\n        /* \"#utility.yul\":14940:15007   */\n      tag_486\n        /* \"#utility.yul\":15004:15006   */\n      0x1d\n        /* \"#utility.yul\":14999:15002   */\n      dup4\n        /* \"#utility.yul\":14940:15007   */\n      tag_308\n      jump\t// in\n    tag_486:\n        /* \"#utility.yul\":14933:15007   */\n      swap2\n      pop\n        /* \"#utility.yul\":15016:15109   */\n      tag_487\n        /* \"#utility.yul\":15105:15108   */\n      dup3\n        /* \"#utility.yul\":15016:15109   */\n      tag_329\n      jump\t// in\n    tag_487:\n        /* \"#utility.yul\":15134:15136   */\n      0x20\n        /* \"#utility.yul\":15129:15132   */\n      dup3\n        /* \"#utility.yul\":15125:15137   */\n      add\n        /* \"#utility.yul\":15118:15137   */\n      swap1\n      pop\n        /* \"#utility.yul\":14777:15143   */\n      swap2\n      swap1\n      pop\n      jump\t// out\n        /* \"#utility.yul\":15149:15568   */\n    tag_206:\n        /* \"#utility.yul\":15315:15319   */\n      0x00\n        /* \"#utility.yul\":15353:15355   */\n      0x20\n        /* \"#utility.yul\":15342:15351   */\n      dup3\n        /* \"#utility.yul\":15338:15356   */\n      add\n        /* \"#utility.yul\":15330:15356   */\n      swap1\n      pop\n        /* \"#utility.yul\":15402:15411   */\n      dup2\n        /* \"#utility.yul\":15396:15400   */\n      dup2\n        /* \"#utility.yul\":15392:15412   */\n      sub\n        /* \"#utility.yul\":15388:15389   */\n      0x00\n        /* \"#utility.yul\":15377:15386   */\n      dup4\n        /* \"#utility.yul\":15373:15390   */\n      add\n        /* \"#utility.yul\":15366:15413   */\n      mstore\n        /* \"#utility.yul\":15430:15561   */\n      tag_489\n        /* \"#utility.yul\":15556:15560   */\n      dup2\n        /* \"#utility.yul\":15430:15561   */\n      tag_330\n      jump\t// in\n    tag_489:\n        /* \"#utility.yul\":15422:15561   */\n      swap1\n      pop\n        /* \"#utility.yul\":15149:15568   */\n      swap2\n      swap1\n      pop\n      jump\t// out\n        /* \"#utility.yul\":15574:15807   */\n    tag_212:\n        /* \"#utility.yul\":15613:15616   */\n      0x00\n        /* \"#utility.yul\":15636:15660   */\n      tag_491\n        /* \"#utility.yul\":15654:15659   */\n      dup3\n        /* \"#utility.yul\":15636:15660   */\n      tag_287\n      jump\t// in\n    tag_491:\n        /* \"#utility.yul\":15627:15660   */\n      swap2\n      pop\n        /* \"#utility.yul\":15682:15748   */\n      0xffffffffffffffffffffffffffffffffffffffffffffffffffffffffffffffff\n        /* \"#utility.yul\":15675:15680   */\n      dup3\n        /* \"#utility.yul\":15672:15749   */\n      sub\n        /* \"#utility.yul\":15669:15772   */\n      tag_492\n      jumpi\n        /* \"#utility.yul\":15752:15770   */\n      tag_493\n      tag_313\n      jump\t// in\n    tag_493:\n        /* \"#utility.yul\":15669:15772   */\n    tag_492:\n        /* \"#utility.yul\":15799:15800   */\n      0x01\n        /* \"#utility.yul\":15792:15797   */\n      dup3\n        /* \"#utility.yul\":15788:15801   */\n      add\n        /* \"#utility.yul\":15781:15801   */\n      swap1\n      pop\n        /* \"#utility.yul\":15574:15807   */\n      swap2\n      swap1\n      pop\n      jump\t// out\n        /* \"#utility.yul\":15813:15990   */\n    tag_331:\n        /* \"#utility.yul\":15953:15982   */\n      0x746865206c6f7474657279206e6f742065787069726564207965740000000000\n        /* \"#utility.yul\":15949:15950   */\n      0x00\n        /* \"#utility.yul\":15941:15947   */\n      dup3\n        /* \"#utility.yul\":15937:15951   */\n      add\n        /* \"#utility.yul\":15930:15983   */\n      mstore\n        /* \"#utility.yul\":15813:15990   */\n      pop\n      jump\t// out\n        /* \"#utility.yul\":15996:16362   */\n    tag_332:\n        /* \"#utility.yul\":16138:16141   */\n      0x00\n        /* \"#utility.yul\":16159:16226   */\n      tag_496\n        /* \"#utility.yul\":16223:16225   */\n      0x1b\n        /* \"#utility.yul\":16218:16221   */\n      dup4\n        /* \"#utility.yul\":16159:16226   */\n      tag_308\n      jump\t// in\n    tag_496:\n        /* \"#utility.yul\":16152:16226   */\n      swap2\n      pop\n        /* \"#utility.yul\":16235:16328   */\n      tag_497\n        /* \"#utility.yul\":16324:16327   */\n      dup3\n        /* \"#utility.yul\":16235:16328   */\n      tag_331\n      jump\t// in\n    tag_497:\n        /* \"#utility.yul\":16353:16355   */\n      0x20\n        /* \"#utility.yul\":16348:16351   */\n      dup3\n        /* \"#utility.yul\":16344:16356   */\n      add\n        /* \"#utility.yul\":16337:16356   */\n      swap1\n      pop\n        /* \"#utility.yul\":15996:16362   */\n      swap2\n      swap1\n      pop\n      jump\t// out\n        /* \"#utility.yul\":16368:16787   */\n    tag_223:\n        /* \"#utility.yul\":16534:16538   */\n      0x00\n        /* \"#utility.yul\":16572:16574   */\n      0x20\n        /* \"#utility.yul\":16561:16570   */\n      dup3\n        /* \"#utility.yul\":16557:16575   */\n      add\n        /* \"#utility.yul\":16549:16575   */\n      swap1\n      pop\n        /* \"#utility.yul\":16621:16630   */\n      dup2\n        /* \"#utility.yul\":16615:16619   */\n      dup2\n        /* \"#utility.yul\":16611:16631   */\n      sub\n        /* \"#utility.yul\":16607:16608   */\n      0x00\n        /* \"#utility.yul\":16596:16605   */\n      dup4\n        /* \"#utility.yul\":16592:16609   */\n      add\n        /* \"#utility.yul\":16585:16632   */\n      mstore\n        /* \"#utility.yul\":16649:16780   */\n      tag_499\n        /* \"#utility.yul\":16775:16779   */\n      dup2\n        /* \"#utility.yul\":16649:16780   */\n      tag_332\n      jump\t// in\n    tag_499:\n        /* \"#utility.yul\":16641:16780   */\n      swap1\n      pop\n        /* \"#utility.yul\":16368:16787   */\n      swap2\n      swap1\n      pop\n      jump\t// out\n        /* \"#utility.yul\":16793:17018   */\n    tag_333:\n        /* \"#utility.yul\":16933:16967   */\n      0x43616e6e6f742052657374617274204472617720617320447261772069732069\n        /* \"#utility.yul\":16929:16930   */\n      0x00\n        /* \"#utility.yul\":16921:16927   */\n      dup3\n        /* \"#utility.yul\":16917:16931   */\n      add\n        /* \"#utility.yul\":16910:16968   */\n      mstore\n        /* \"#utility.yul\":17002:17010   */\n      0x6e20706c61790000000000000000000000000000000000000000000000000000\n        /* \"#utility.yul\":16997:16999   */\n      0x20\n        /* \"#utility.yul\":16989:16995   */\n      dup3\n        /* \"#utility.yul\":16985:17000   */\n      add\n        /* \"#utility.yul\":16978:17011   */\n      mstore\n        /* \"#utility.yul\":16793:17018   */\n      pop\n      jump\t// out\n        /* \"#utility.yul\":17024:17390   */\n    tag_334:\n        /* \"#utility.yul\":17166:17169   */\n      0x00\n        /* \"#utility.yul\":17187:17254   */\n      tag_502\n        /* \"#utility.yul\":17251:17253   */\n      0x26\n        /* \"#utility.yul\":17246:17249   */\n      dup4\n        /* \"#utility.yul\":17187:17254   */\n      tag_308\n      jump\t// in\n    tag_502:\n        /* \"#utility.yul\":17180:17254   */\n      swap2\n      pop\n        /* \"#utility.yul\":17263:17356   */\n      tag_503\n        /* \"#utility.yul\":17352:17355   */\n      dup3\n        /* \"#utility.yul\":17263:17356   */\n      tag_333\n      jump\t// in\n    tag_503:\n        /* \"#utility.yul\":17381:17383   */\n      0x40\n        /* \"#utility.yul\":17376:17379   */\n      dup3\n        /* \"#utility.yul\":17372:17384   */\n      add\n        /* \"#utility.yul\":17365:17384   */\n      swap1\n      pop\n        /* \"#utility.yul\":17024:17390   */\n      swap2\n      swap1\n      pop\n      jump\t// out\n        /* \"#utility.yul\":17396:17815   */\n    tag_246:\n        /* \"#utility.yul\":17562:17566   */\n      0x00\n        /* \"#utility.yul\":17600:17602   */\n      0x20\n        /* \"#utility.yul\":17589:17598   */\n      dup3\n        /* \"#utility.yul\":17585:17603   */\n      add\n        /* \"#utility.yul\":17577:17603   */\n      swap1\n      pop\n        /* \"#utility.yul\":17649:17658   */\n      dup2\n        /* \"#utility.yul\":17643:17647   */\n      dup2\n        /* \"#utility.yul\":17639:17659   */\n      sub\n        /* \"#utility.yul\":17635:17636   */\n      0x00\n        /* \"#utility.yul\":17624:17633   */\n      dup4\n        /* \"#utility.yul\":17620:17637   */\n      add\n        /* \"#utility.yul\":17613:17660   */\n      mstore\n        /* \"#utility.yul\":17677:17808   */\n      tag_505\n        /* \"#utility.yul\":17803:17807   */\n      dup2\n        /* \"#utility.yul\":17677:17808   */\n      tag_334\n      jump\t// in\n    tag_505:\n        /* \"#utility.yul\":17669:17808   */\n      swap1\n      pop\n        /* \"#utility.yul\":17396:17815   */\n      swap2\n      swap1\n      pop\n      jump\t// out\n        /* \"#utility.yul\":17821:18001   */\n    tag_254:\n        /* \"#utility.yul\":17869:17946   */\n      0x4e487b7100000000000000000000000000000000000000000000000000000000\n        /* \"#utility.yul\":17866:17867   */\n      0x00\n        /* \"#utility.yul\":17859:17947   */\n      mstore\n        /* \"#utility.yul\":17966:17970   */\n      0x41\n        /* \"#utility.yul\":17963:17964   */\n      0x04\n        /* \"#utility.yul\":17956:17971   */\n      mstore\n        /* \"#utility.yul\":17990:17994   */\n      0x24\n        /* \"#utility.yul\":17987:17988   */\n      0x00\n        /* \"#utility.yul\":17980:17995   */\n      revert\n\n    auxdata: 0xa2646970667358221220e90ba0b526ec90000179c7133a1ec6047c36bab52d956e5a53bcc20b141e5d7764736f6c63430008120033\n}\n",
				"bytecode": {
					"linkReferences": {},
					"object": "6080604052662386f26fc10000600055606460015566038d7ea4c68000600255610708600355600560045560006007553480156200003c57600080fd5b5033600660006101000a81548173ffffffffffffffffffffffffffffffffffffffff021916908373ffffffffffffffffffffffffffffffffffffffff160217905550600354426200008e9190620000d3565b6005819055506200010e565b6000819050919050565b7f4e487b7100000000000000000000000000000000000000000000000000000000600052601160045260246000fd5b6000620000e0826200009a565b9150620000ed836200009a565b9250828201905080821115620001085762000107620000a4565b5b92915050565b611e09806200011e6000396000f3fe6080604052600436106101815760003560e01c806371827b7b116100d1578063a88f46721161008a578063dd64e53411610064578063dd64e534146104d5578063ea3a149914610512578063f26132691461054f578063fe1881841461056657610181565b8063a88f467214610468578063ba946d791461047f578063c6944fa0146104aa57610181565b806371827b7b1461039d57806391d8b14e146103b457806393a563b5146103be57806396c85ef3146103e95780639802cf2f146104145780639b8947031461043d57610181565b8063463a94a51161013e5780634ed02622116101185780634ed02622146102df57806350b447121461030a5780635a58acdd146103475780636032a4f91461037257610181565b8063463a94a5146102725780634665096d1461029d5780634788af7c146102c857610181565b806306f7f3bf146101865780630789c607146101b15780630fb5a6b4146101dc5780631209b1f61461020757806335580df21461023257806344a8c61114610249575b600080fd5b34801561019257600080fd5b5061019b610591565b6040516101a8919061145d565b60405180910390f35b3480156101bd57600080fd5b506101c6610597565b6040516101d3919061145d565b60405180910390f35b3480156101e857600080fd5b506101f16105e9565b6040516101fe919061145d565b60405180910390f35b34801561021357600080fd5b5061021c6105ef565b604051610229919061145d565b60405180910390f35b34801561023e57600080fd5b506102476105f5565b005b34801561025557600080fd5b50610270600480360381019061026b91906114a9565b6106e4565b005b34801561027e57600080fd5b50610287610796565b604051610294919061145d565b60405180910390f35b3480156102a957600080fd5b506102b261079c565b6040516102bf919061145d565b60405180910390f35b3480156102d457600080fd5b506102dd6107a2565b005b3480156102eb57600080fd5b506102f4610a67565b6040516103019190611600565b60405180910390f35b34801561031657600080fd5b50610331600480360381019061032c9190611622565b610af5565b60405161033e919061165e565b60405180910390f35b34801561035357600080fd5b5061035c610b34565b604051610369919061165e565b60405180910390f35b34801561037e57600080fd5b50610387610b5a565b604051610394919061145d565b60405180910390f35b3480156103a957600080fd5b506103b2610b60565b005b6103bc610c80565b005b3480156103ca57600080fd5b506103d3610ddc565b6040516103e0919061145d565b60405180910390f35b3480156103f557600080fd5b506103fe610df6565b60405161040b9190611694565b60405180910390f35b34801561042057600080fd5b5061043b60048036038101906104369190611622565b610e3f565b005b34801561044957600080fd5b50610452610ed9565b60405161045f919061145d565b60405180910390f35b34801561047457600080fd5b5061047d610edf565b005b34801561048b57600080fd5b50610494611043565b6040516104a1919061145d565b60405180910390f35b3480156104b657600080fd5b506104bf611049565b6040516104cc919061145d565b60405180910390f35b3480156104e157600080fd5b506104fc60048036038101906104f791906116db565b611062565b604051610509919061145d565b60405180910390f35b34801561051e57600080fd5b50610539600480360381019061053491906116db565b6110ab565b604051610546919061145d565b60405180910390f35b34801561055b57600080fd5b506105646110c3565b005b34801561057257600080fd5b5061057b6111bf565b604051610588919061165e565b60405180910390f35b60095481565b6000803390506000600a60008373ffffffffffffffffffffffffffffffffffffffff1673ffffffffffffffffffffffffffffffffffffffff168152602001908152602001600020549050809250505090565b60035481565b60005481565b600660009054906101000a900473ffffffffffffffffffffffffffffffffffffffff1673ffffffffffffffffffffffffffffffffffffffff163373ffffffffffffffffffffffffffffffffffffffff1614610685576040517f08c379a000000000000000000000000000000000000000000000000000000000815260040161067c9061178b565b60405180910390fd5b60003390506000600754905060006007819055508173ffffffffffffffffffffffffffffffffffffffff166108fc829081150290604051600060405180830381858888f193505050501580156106df573d6000803e3d6000fd5b505050565b600660009054906101000a900473ffffffffffffffffffffffffffffffffffffffff1673ffffffffffffffffffffffffffffffffffffffff163373ffffffffffffffffffffffffffffffffffffffff1614610774576040517f08c379a000000000000000000000000000000000000000000000000000000000815260040161076b9061178b565b60405180910390fd5b8360008190555082600181905550816002819055508060038190555050505050565b60045481565b60055481565b600660009054906101000a900473ffffffffffffffffffffffffffffffffffffffff1673ffffffffffffffffffffffffffffffffffffffff163373ffffffffffffffffffffffffffffffffffffffff1614610832576040517f08c379a00000000000000000000000000000000000000000000000000000000081526004016108299061178b565b60405180910390fd5b6000600b805490501161087a576040517f08c379a0000000000000000000000000000000000000000000000000000000008152600401610871906117f7565b60405180910390fd5b6000600b805490504361088d9190611846565b409050600042826040516020016108a59291906118c6565b6040516020818303038152906040528051906020012060001c90506000600b80549050826108d39190611921565b90506000600b82815481106108eb576108ea611952565b5b9060005260206000200160009054906101000a900473ffffffffffffffffffffffffffffffffffffffff16905080600860006101000a81548173ffffffffffffffffffffffffffffffffffffffff021916908373ffffffffffffffffffffffffffffffffffffffff1602179055506002546000546109699190611846565b600b805490506109799190611981565b600a60008373ffffffffffffffffffffffffffffffffffffffff1673ffffffffffffffffffffffffffffffffffffffff16815260200190815260200160002060008282546109c791906119c3565b92505081905550600a60008273ffffffffffffffffffffffffffffffffffffffff1673ffffffffffffffffffffffffffffffffffffffff16815260200190815260200160002054600981905550600254600b80549050610a279190611981565b60076000828254610a3891906119c3565b92505081905550600b6000610a4d9190611406565b60035442610a5b91906119c3565b60058190555050505050565b6060600b805480602002602001604051908101604052809291908181526020018280548015610aeb57602002820191906000526020600020905b8160009054906101000a900473ffffffffffffffffffffffffffffffffffffffff1673ffffffffffffffffffffffffffffffffffffffff1681526020019060010190808311610aa1575b5050505050905090565b600b8181548110610b0557600080fd5b906000526020600020016000915054906101000a900473ffffffffffffffffffffffffffffffffffffffff1681565b600660009054906101000a900473ffffffffffffffffffffffffffffffffffffffff1681565b60025481565b610b68610df6565b610ba7576040517f08c379a0000000000000000000000000000000000000000000000000000000008152600401610b9e90611a43565b60405180910390fd5b60003390506000600a60008373ffffffffffffffffffffffffffffffffffffffff1673ffffffffffffffffffffffffffffffffffffffff1681526020019081526020016000205490506000600a60008473ffffffffffffffffffffffffffffffffffffffff1673ffffffffffffffffffffffffffffffffffffffff168152602001908152602001600020819055508173ffffffffffffffffffffffffffffffffffffffff166108fc829081150290604051600060405180830381858888f19350505050158015610c7b573d6000803e3d6000fd5b505050565b6000805434610c8f9190611921565b14610c9b6000546111e5565b604051602001610cab9190611b20565b60405160208183030381529060405290610cfb576040517f08c379a0000000000000000000000000000000000000000000000000000000008152600401610cf29190611b9f565b60405180910390fd5b506000805434610d0b9190611bc1565b9050610d15610ddc565b811115610d57576040517f08c379a0000000000000000000000000000000000000000000000000000000008152600401610d4e90611c3e565b60405180910390fd5b60005b81811015610dd857600b339080600181540180825580915050600190039060005260206000200160009091909190916101000a81548173ffffffffffffffffffffffffffffffffffffffff021916908373ffffffffffffffffffffffffffffffffffffffff1602179055508080610dd090611c5e565b915050610d5a565b5050565b6000600b80549050600154610df19190611846565b905090565b600080600a60003373ffffffffffffffffffffffffffffffffffffffff1673ffffffffffffffffffffffffffffffffffffffff1681526020019081526020016000205411905090565b600660009054906101000a900473ffffffffffffffffffffffffffffffffffffffff1673ffffffffffffffffffffffffffffffffffffffff163373ffffffffffffffffffffffffffffffffffffffff1614610ecf576040517f08c379a0000000000000000000000000000000000000000000000000000000008152600401610ec69061178b565b60405180910390fd5b8060048190555050565b60015481565b600554421015610f24576040517f08c379a0000000000000000000000000000000000000000000000000000000008152600401610f1b90611cf2565b60405180910390fd5b60005b600b80549050811015611032576000600b8281548110610f4a57610f49611952565b5b9060005260206000200160009054906101000a900473ffffffffffffffffffffffffffffffffffffffff1690506000600b8381548110610f8d57610f8c611952565b5b9060005260206000200160006101000a81548173ffffffffffffffffffffffffffffffffffffffff021916908373ffffffffffffffffffffffffffffffffffffffff1602179055508073ffffffffffffffffffffffffffffffffffffffff166108fc6000549081150290604051600060405180830381858888f1935050505015801561101d573d6000803e3d6000fd5b5050808061102a90611c5e565b915050610f27565b50600b60006110419190611406565b565b60075481565b60008054600b8054905061105d9190611981565b905090565b6000600a60008373ffffffffffffffffffffffffffffffffffffffff1673ffffffffffffffffffffffffffffffffffffffff168152602001908152602001600020549050919050565b600a6020528060005260406000206000915090505481565b600660009054906101000a900473ffffffffffffffffffffffffffffffffffffffff1673ffffffffffffffffffffffffffffffffffffffff163373ffffffffffffffffffffffffffffffffffffffff1614611153576040517f08c379a000000000000000000000000000000000000000000000000000000000815260040161114a9061178b565b60405180910390fd5b6000600b805490501461119b576040517f08c379a000000000000000000000000000000000000000000000000000000000815260040161119290611d84565b60405180910390fd5b600b60006111a99190611406565b600354426111b791906119c3565b600581905550565b600860009054906101000a900473ffffffffffffffffffffffffffffffffffffffff1681565b6060600060016111f4846112b3565b01905060008167ffffffffffffffff81111561121357611212611da4565b5b6040519080825280601f01601f1916602001820160405280156112455781602001600182028036833780820191505090505b509050600082602001820190505b6001156112a8578080600190039150507f3031323334353637383961626364656600000000000000000000000000000000600a86061a8153600a858161129c5761129b6118f2565b5b04945060008503611253575b819350505050919050565b600080600090507a184f03e93ff9f4daa797ed6e38ed64bf6a1f0100000000000000008310611311577a184f03e93ff9f4daa797ed6e38ed64bf6a1f0100000000000000008381611307576113066118f2565b5b0492506040810190505b6d04ee2d6d415b85acef8100000000831061134e576d04ee2d6d415b85acef81000000008381611344576113436118f2565b5b0492506020810190505b662386f26fc10000831061137d57662386f26fc100008381611373576113726118f2565b5b0492506010810190505b6305f5e10083106113a6576305f5e100838161139c5761139b6118f2565b5b0492506008810190505b61271083106113cb5761271083816113c1576113c06118f2565b5b0492506004810190505b606483106113ee57606483816113e4576113e36118f2565b5b0492506002810190505b600a83106113fd576001810190505b80915050919050565b50805460008255906000526020600020908101906114249190611427565b50565b5b80821115611440576000816000905550600101611428565b5090565b6000819050919050565b61145781611444565b82525050565b6000602082019050611472600083018461144e565b92915050565b600080fd5b61148681611444565b811461149157600080fd5b50565b6000813590506114a38161147d565b92915050565b600080600080608085870312156114c3576114c2611478565b5b60006114d187828801611494565b94505060206114e287828801611494565b93505060406114f387828801611494565b925050606061150487828801611494565b91505092959194509250565b600081519050919050565b600082825260208201905092915050565b6000819050602082019050919050565b600073ffffffffffffffffffffffffffffffffffffffff82169050919050565b60006115678261153c565b9050919050565b6115778161155c565b82525050565b6000611589838361156e565b60208301905092915050565b6000602082019050919050565b60006115ad82611510565b6115b7818561151b565b93506115c28361152c565b8060005b838110156115f35781516115da888261157d565b97506115e583611595565b9250506001810190506115c6565b5085935050505092915050565b6000602082019050818103600083015261161a81846115a2565b905092915050565b60006020828403121561163857611637611478565b5b600061164684828501611494565b91505092915050565b6116588161155c565b82525050565b6000602082019050611673600083018461164f565b92915050565b60008115159050919050565b61168e81611679565b82525050565b60006020820190506116a96000830184611685565b92915050565b6116b88161155c565b81146116c357600080fd5b50565b6000813590506116d5816116af565b92915050565b6000602082840312156116f1576116f0611478565b5b60006116ff848285016116c6565b91505092915050565b600082825260208201905092915050565b7f43616c6c6572206973206e6f7420746865206c6f7474657279206f706572617460008201527f6f72000000000000000000000000000000000000000000000000000000000000602082015250565b6000611775602283611708565b915061178082611719565b604082019050919050565b600060208201905081810360008301526117a481611768565b9050919050565b7f4e6f207469636b65747320776572652070757263686173656400000000000000600082015250565b60006117e1601983611708565b91506117ec826117ab565b602082019050919050565b60006020820190508181036000830152611810816117d4565b9050919050565b7f4e487b7100000000000000000000000000000000000000000000000000000000600052601160045260246000fd5b600061185182611444565b915061185c83611444565b925082820390508181111561187457611873611817565b5b92915050565b6000819050919050565b61189561189082611444565b61187a565b82525050565b6000819050919050565b6000819050919050565b6118c06118bb8261189b565b6118a5565b82525050565b60006118d28285611884565b6020820191506118e282846118af565b6020820191508190509392505050565b7f4e487b7100000000000000000000000000000000000000000000000000000000600052601260045260246000fd5b600061192c82611444565b915061193783611444565b925082611947576119466118f2565b5b828206905092915050565b7f4e487b7100000000000000000000000000000000000000000000000000000000600052603260045260246000fd5b600061198c82611444565b915061199783611444565b92508282026119a581611444565b915082820484148315176119bc576119bb611817565b5b5092915050565b60006119ce82611444565b91506119d983611444565b92508282019050808211156119f1576119f0611817565b5b92915050565b7f43616c6c6572206973206e6f7420612077696e6e657200000000000000000000600082015250565b6000611a2d601683611708565b9150611a38826119f7565b602082019050919050565b60006020820190508181036000830152611a5c81611a20565b9050919050565b7f7468652076616c7565206d757374206265206d756c7469706c65206f66200000815250565b600081519050919050565b600081905092915050565b60005b83811015611abd578082015181840152602081019050611aa2565b60008484015250505050565b6000611ad482611a89565b611ade8185611a94565b9350611aee818560208601611a9f565b80840191505092915050565b7f2045746865720000000000000000000000000000000000000000000000000000815250565b6000611b2b82611a63565b601e82019150611b3b8284611ac9565b9150611b4682611afa565b60068201915081905092915050565b6000601f19601f8301169050919050565b6000611b7182611a89565b611b7b8185611708565b9350611b8b818560208601611a9f565b611b9481611b55565b840191505092915050565b60006020820190508181036000830152611bb98184611b66565b905092915050565b6000611bcc82611444565b9150611bd783611444565b925082611be757611be66118f2565b5b828204905092915050565b7f4e6f7420656e6f756768207469636b65747320617661696c61626c652e000000600082015250565b6000611c28601d83611708565b9150611c3382611bf2565b602082019050919050565b60006020820190508181036000830152611c5781611c1b565b9050919050565b6000611c6982611444565b91507fffffffffffffffffffffffffffffffffffffffffffffffffffffffffffffffff8203611c9b57611c9a611817565b5b600182019050919050565b7f746865206c6f7474657279206e6f742065787069726564207965740000000000600082015250565b6000611cdc601b83611708565b9150611ce782611ca6565b602082019050919050565b60006020820190508181036000830152611d0b81611ccf565b9050919050565b7f43616e6e6f74205265737461727420447261772061732044726177206973206960008201527f6e20706c61790000000000000000000000000000000000000000000000000000602082015250565b6000611d6e602683611708565b9150611d7982611d12565b604082019050919050565b60006020820190508181036000830152611d9d81611d61565b9050919050565b7f4e487b7100000000000000000000000000000000000000000000000000000000600052604160045260246000fdfea2646970667358221220e90ba0b526ec90000179c7133a1ec6047c36bab52d956e5a53bcc20b141e5d7764736f6c63430008120033",
					"opcodes": "PUSH1 0x80 PUSH1 0x40 MSTORE PUSH7 0x2386F26FC10000 PUSH1 0x0 SSTORE PUSH1 0x64 PUSH1 0x1 SSTORE PUSH7 0x38D7EA4C68000 PUSH1 0x2 SSTORE PUSH2 0x708 PUSH1 0x3 SSTORE PUSH1 0x5 PUSH1 0x4 SSTORE PUSH1 0x0 PUSH1 0x7 SSTORE CALLVALUE DUP1 ISZERO PUSH3 0x3C JUMPI PUSH1 0x0 DUP1 REVERT JUMPDEST POP CALLER PUSH1 0x6 PUSH1 0x0 PUSH2 0x100 EXP DUP2 SLOAD DUP2 PUSH20 0xFFFFFFFFFFFFFFFFFFFFFFFFFFFFFFFFFFFFFFFF MUL NOT AND SWAP1 DUP4 PUSH20 0xFFFFFFFFFFFFFFFFFFFFFFFFFFFFFFFFFFFFFFFF AND MUL OR SWAP1 SSTORE POP PUSH1 0x3 SLOAD TIMESTAMP PUSH3 0x8E SWAP2 SWAP1 PUSH3 0xD3 JUMP JUMPDEST PUSH1 0x5 DUP2 SWAP1 SSTORE POP PUSH3 0x10E JUMP JUMPDEST PUSH1 0x0 DUP2 SWAP1 POP SWAP2 SWAP1 POP JUMP JUMPDEST PUSH32 0x4E487B7100000000000000000000000000000000000000000000000000000000 PUSH1 0x0 MSTORE PUSH1 0x11 PUSH1 0x4 MSTORE PUSH1 0x24 PUSH1 0x0 REVERT JUMPDEST PUSH1 0x0 PUSH3 0xE0 DUP3 PUSH3 0x9A JUMP JUMPDEST SWAP2 POP PUSH3 0xED DUP4 PUSH3 0x9A JUMP JUMPDEST SWAP3 POP DUP3 DUP3 ADD SWAP1 POP DUP1 DUP3 GT ISZERO PUSH3 0x108 JUMPI PUSH3 0x107 PUSH3 0xA4 JUMP JUMPDEST JUMPDEST SWAP3 SWAP2 POP POP JUMP JUMPDEST PUSH2 0x1E09 DUP1 PUSH3 0x11E PUSH1 0x0 CODECOPY PUSH1 0x0 RETURN INVALID PUSH1 0x80 PUSH1 0x40 MSTORE PUSH1 0x4 CALLDATASIZE LT PUSH2 0x181 JUMPI PUSH1 0x0 CALLDATALOAD PUSH1 0xE0 SHR DUP1 PUSH4 0x71827B7B GT PUSH2 0xD1 JUMPI DUP1 PUSH4 0xA88F4672 GT PUSH2 0x8A JUMPI DUP1 PUSH4 0xDD64E534 GT PUSH2 0x64 JUMPI DUP1 PUSH4 0xDD64E534 EQ PUSH2 0x4D5 JUMPI DUP1 PUSH4 0xEA3A1499 EQ PUSH2 0x512 JUMPI DUP1 PUSH4 0xF2613269 EQ PUSH2 0x54F JUMPI DUP1 PUSH4 0xFE188184 EQ PUSH2 0x566 JUMPI PUSH2 0x181 JUMP JUMPDEST DUP1 PUSH4 0xA88F4672 EQ PUSH2 0x468 JUMPI DUP1 PUSH4 0xBA946D79 EQ PUSH2 0x47F JUMPI DUP1 PUSH4 0xC6944FA0 EQ PUSH2 0x4AA JUMPI PUSH2 0x181 JUMP JUMPDEST DUP1 PUSH4 0x71827B7B EQ PUSH2 0x39D JUMPI DUP1 PUSH4 0x91D8B14E EQ PUSH2 0x3B4 JUMPI DUP1 PUSH4 0x93A563B5 EQ PUSH2 0x3BE JUMPI DUP1 PUSH4 0x96C85EF3 EQ PUSH2 0x3E9 JUMPI DUP1 PUSH4 0x9802CF2F EQ PUSH2 0x414 JUMPI DUP1 PUSH4 0x9B894703 EQ PUSH2 0x43D JUMPI PUSH2 0x181 JUMP JUMPDEST DUP1 PUSH4 0x463A94A5 GT PUSH2 0x13E JUMPI DUP1 PUSH4 0x4ED02622 GT PUSH2 0x118 JUMPI DUP1 PUSH4 0x4ED02622 EQ PUSH2 0x2DF JUMPI DUP1 PUSH4 0x50B44712 EQ PUSH2 0x30A JUMPI DUP1 PUSH4 0x5A58ACDD EQ PUSH2 0x347 JUMPI DUP1 PUSH4 0x6032A4F9 EQ PUSH2 0x372 JUMPI PUSH2 0x181 JUMP JUMPDEST DUP1 PUSH4 0x463A94A5 EQ PUSH2 0x272 JUMPI DUP1 PUSH4 0x4665096D EQ PUSH2 0x29D JUMPI DUP1 PUSH4 0x4788AF7C EQ PUSH2 0x2C8 JUMPI PUSH2 0x181 JUMP JUMPDEST DUP1 PUSH4 0x6F7F3BF EQ PUSH2 0x186 JUMPI DUP1 PUSH4 0x789C607 EQ PUSH2 0x1B1 JUMPI DUP1 PUSH4 0xFB5A6B4 EQ PUSH2 0x1DC JUMPI DUP1 PUSH4 0x1209B1F6 EQ PUSH2 0x207 JUMPI DUP1 PUSH4 0x35580DF2 EQ PUSH2 0x232 JUMPI DUP1 PUSH4 0x44A8C611 EQ PUSH2 0x249 JUMPI JUMPDEST PUSH1 0x0 DUP1 REVERT JUMPDEST CALLVALUE DUP1 ISZERO PUSH2 0x192 JUMPI PUSH1 0x0 DUP1 REVERT JUMPDEST POP PUSH2 0x19B PUSH2 0x591 JUMP JUMPDEST PUSH1 0x40 MLOAD PUSH2 0x1A8 SWAP2 SWAP1 PUSH2 0x145D JUMP JUMPDEST PUSH1 0x40 MLOAD DUP1 SWAP2 SUB SWAP1 RETURN JUMPDEST CALLVALUE DUP1 ISZERO PUSH2 0x1BD JUMPI PUSH1 0x0 DUP1 REVERT JUMPDEST POP PUSH2 0x1C6 PUSH2 0x597 JUMP JUMPDEST PUSH1 0x40 MLOAD PUSH2 0x1D3 SWAP2 SWAP1 PUSH2 0x145D JUMP JUMPDEST PUSH1 0x40 MLOAD DUP1 SWAP2 SUB SWAP1 RETURN JUMPDEST CALLVALUE DUP1 ISZERO PUSH2 0x1E8 JUMPI PUSH1 0x0 DUP1 REVERT JUMPDEST POP PUSH2 0x1F1 PUSH2 0x5E9 JUMP JUMPDEST PUSH1 0x40 MLOAD PUSH2 0x1FE SWAP2 SWAP1 PUSH2 0x145D JUMP JUMPDEST PUSH1 0x40 MLOAD DUP1 SWAP2 SUB SWAP1 RETURN JUMPDEST CALLVALUE DUP1 ISZERO PUSH2 0x213 JUMPI PUSH1 0x0 DUP1 REVERT JUMPDEST POP PUSH2 0x21C PUSH2 0x5EF JUMP JUMPDEST PUSH1 0x40 MLOAD PUSH2 0x229 SWAP2 SWAP1 PUSH2 0x145D JUMP JUMPDEST PUSH1 0x40 MLOAD DUP1 SWAP2 SUB SWAP1 RETURN JUMPDEST CALLVALUE DUP1 ISZERO PUSH2 0x23E JUMPI PUSH1 0x0 DUP1 REVERT JUMPDEST POP PUSH2 0x247 PUSH2 0x5F5 JUMP JUMPDEST STOP JUMPDEST CALLVALUE DUP1 ISZERO PUSH2 0x255 JUMPI PUSH1 0x0 DUP1 REVERT JUMPDEST POP PUSH2 0x270 PUSH1 0x4 DUP1 CALLDATASIZE SUB DUP2 ADD SWAP1 PUSH2 0x26B SWAP2 SWAP1 PUSH2 0x14A9 JUMP JUMPDEST PUSH2 0x6E4 JUMP JUMPDEST STOP JUMPDEST CALLVALUE DUP1 ISZERO PUSH2 0x27E JUMPI PUSH1 0x0 DUP1 REVERT JUMPDEST POP PUSH2 0x287 PUSH2 0x796 JUMP JUMPDEST PUSH1 0x40 MLOAD PUSH2 0x294 SWAP2 SWAP1 PUSH2 0x145D JUMP JUMPDEST PUSH1 0x40 MLOAD DUP1 SWAP2 SUB SWAP1 RETURN JUMPDEST CALLVALUE DUP1 ISZERO PUSH2 0x2A9 JUMPI PUSH1 0x0 DUP1 REVERT JUMPDEST POP PUSH2 0x2B2 PUSH2 0x79C JUMP JUMPDEST PUSH1 0x40 MLOAD PUSH2 0x2BF SWAP2 SWAP1 PUSH2 0x145D JUMP JUMPDEST PUSH1 0x40 MLOAD DUP1 SWAP2 SUB SWAP1 RETURN JUMPDEST CALLVALUE DUP1 ISZERO PUSH2 0x2D4 JUMPI PUSH1 0x0 DUP1 REVERT JUMPDEST POP PUSH2 0x2DD PUSH2 0x7A2 JUMP JUMPDEST STOP JUMPDEST CALLVALUE DUP1 ISZERO PUSH2 0x2EB JUMPI PUSH1 0x0 DUP1 REVERT JUMPDEST POP PUSH2 0x2F4 PUSH2 0xA67 JUMP JUMPDEST PUSH1 0x40 MLOAD PUSH2 0x301 SWAP2 SWAP1 PUSH2 0x1600 JUMP JUMPDEST PUSH1 0x40 MLOAD DUP1 SWAP2 SUB SWAP1 RETURN JUMPDEST CALLVALUE DUP1 ISZERO PUSH2 0x316 JUMPI PUSH1 0x0 DUP1 REVERT JUMPDEST POP PUSH2 0x331 PUSH1 0x4 DUP1 CALLDATASIZE SUB DUP2 ADD SWAP1 PUSH2 0x32C SWAP2 SWAP1 PUSH2 0x1622 JUMP JUMPDEST PUSH2 0xAF5 JUMP JUMPDEST PUSH1 0x40 MLOAD PUSH2 0x33E SWAP2 SWAP1 PUSH2 0x165E JUMP JUMPDEST PUSH1 0x40 MLOAD DUP1 SWAP2 SUB SWAP1 RETURN JUMPDEST CALLVALUE DUP1 ISZERO PUSH2 0x353 JUMPI PUSH1 0x0 DUP1 REVERT JUMPDEST POP PUSH2 0x35C PUSH2 0xB34 JUMP JUMPDEST PUSH1 0x40 MLOAD PUSH2 0x369 SWAP2 SWAP1 PUSH2 0x165E JUMP JUMPDEST PUSH1 0x40 MLOAD DUP1 SWAP2 SUB SWAP1 RETURN JUMPDEST CALLVALUE DUP1 ISZERO PUSH2 0x37E JUMPI PUSH1 0x0 DUP1 REVERT JUMPDEST POP PUSH2 0x387 PUSH2 0xB5A JUMP JUMPDEST PUSH1 0x40 MLOAD PUSH2 0x394 SWAP2 SWAP1 PUSH2 0x145D JUMP JUMPDEST PUSH1 0x40 MLOAD DUP1 SWAP2 SUB SWAP1 RETURN JUMPDEST CALLVALUE DUP1 ISZERO PUSH2 0x3A9 JUMPI PUSH1 0x0 DUP1 REVERT JUMPDEST POP PUSH2 0x3B2 PUSH2 0xB60 JUMP JUMPDEST STOP JUMPDEST PUSH2 0x3BC PUSH2 0xC80 JUMP JUMPDEST STOP JUMPDEST CALLVALUE DUP1 ISZERO PUSH2 0x3CA JUMPI PUSH1 0x0 DUP1 REVERT JUMPDEST POP PUSH2 0x3D3 PUSH2 0xDDC JUMP JUMPDEST PUSH1 0x40 MLOAD PUSH2 0x3E0 SWAP2 SWAP1 PUSH2 0x145D JUMP JUMPDEST PUSH1 0x40 MLOAD DUP1 SWAP2 SUB SWAP1 RETURN JUMPDEST CALLVALUE DUP1 ISZERO PUSH2 0x3F5 JUMPI PUSH1 0x0 DUP1 REVERT JUMPDEST POP PUSH2 0x3FE PUSH2 0xDF6 JUMP JUMPDEST PUSH1 0x40 MLOAD PUSH2 0x40B SWAP2 SWAP1 PUSH2 0x1694 JUMP JUMPDEST PUSH1 0x40 MLOAD DUP1 SWAP2 SUB SWAP1 RETURN JUMPDEST CALLVALUE DUP1 ISZERO PUSH2 0x420 JUMPI PUSH1 0x0 DUP1 REVERT JUMPDEST POP PUSH2 0x43B PUSH1 0x4 DUP1 CALLDATASIZE SUB DUP2 ADD SWAP1 PUSH2 0x436 SWAP2 SWAP1 PUSH2 0x1622 JUMP JUMPDEST PUSH2 0xE3F JUMP JUMPDEST STOP JUMPDEST CALLVALUE DUP1 ISZERO PUSH2 0x449 JUMPI PUSH1 0x0 DUP1 REVERT JUMPDEST POP PUSH2 0x452 PUSH2 0xED9 JUMP JUMPDEST PUSH1 0x40 MLOAD PUSH2 0x45F SWAP2 SWAP1 PUSH2 0x145D JUMP JUMPDEST PUSH1 0x40 MLOAD DUP1 SWAP2 SUB SWAP1 RETURN JUMPDEST CALLVALUE DUP1 ISZERO PUSH2 0x474 JUMPI PUSH1 0x0 DUP1 REVERT JUMPDEST POP PUSH2 0x47D PUSH2 0xEDF JUMP JUMPDEST STOP JUMPDEST CALLVALUE DUP1 ISZERO PUSH2 0x48B JUMPI PUSH1 0x0 DUP1 REVERT JUMPDEST POP PUSH2 0x494 PUSH2 0x1043 JUMP JUMPDEST PUSH1 0x40 MLOAD PUSH2 0x4A1 SWAP2 SWAP1 PUSH2 0x145D JUMP JUMPDEST PUSH1 0x40 MLOAD DUP1 SWAP2 SUB SWAP1 RETURN JUMPDEST CALLVALUE DUP1 ISZERO PUSH2 0x4B6 JUMPI PUSH1 0x0 DUP1 REVERT JUMPDEST POP PUSH2 0x4BF PUSH2 0x1049 JUMP JUMPDEST PUSH1 0x40 MLOAD PUSH2 0x4CC SWAP2 SWAP1 PUSH2 0x145D JUMP JUMPDEST PUSH1 0x40 MLOAD DUP1 SWAP2 SUB SWAP1 RETURN JUMPDEST CALLVALUE DUP1 ISZERO PUSH2 0x4E1 JUMPI PUSH1 0x0 DUP1 REVERT JUMPDEST POP PUSH2 0x4FC PUSH1 0x4 DUP1 CALLDATASIZE SUB DUP2 ADD SWAP1 PUSH2 0x4F7 SWAP2 SWAP1 PUSH2 0x16DB JUMP JUMPDEST PUSH2 0x1062 JUMP JUMPDEST PUSH1 0x40 MLOAD PUSH2 0x509 SWAP2 SWAP1 PUSH2 0x145D JUMP JUMPDEST PUSH1 0x40 MLOAD DUP1 SWAP2 SUB SWAP1 RETURN JUMPDEST CALLVALUE DUP1 ISZERO PUSH2 0x51E JUMPI PUSH1 0x0 DUP1 REVERT JUMPDEST POP PUSH2 0x539 PUSH1 0x4 DUP1 CALLDATASIZE SUB DUP2 ADD SWAP1 PUSH2 0x534 SWAP2 SWAP1 PUSH2 0x16DB JUMP JUMPDEST PUSH2 0x10AB JUMP JUMPDEST PUSH1 0x40 MLOAD PUSH2 0x546 SWAP2 SWAP1 PUSH2 0x145D JUMP JUMPDEST PUSH1 0x40 MLOAD DUP1 SWAP2 SUB SWAP1 RETURN JUMPDEST CALLVALUE DUP1 ISZERO PUSH2 0x55B JUMPI PUSH1 0x0 DUP1 REVERT JUMPDEST POP PUSH2 0x564 PUSH2 0x10C3 JUMP JUMPDEST STOP JUMPDEST CALLVALUE DUP1 ISZERO PUSH2 0x572 JUMPI PUSH1 0x0 DUP1 REVERT JUMPDEST POP PUSH2 0x57B PUSH2 0x11BF JUMP JUMPDEST PUSH1 0x40 MLOAD PUSH2 0x588 SWAP2 SWAP1 PUSH2 0x165E JUMP JUMPDEST PUSH1 0x40 MLOAD DUP1 SWAP2 SUB SWAP1 RETURN JUMPDEST PUSH1 0x9 SLOAD DUP2 JUMP JUMPDEST PUSH1 0x0 DUP1 CALLER SWAP1 POP PUSH1 0x0 PUSH1 0xA PUSH1 0x0 DUP4 PUSH20 0xFFFFFFFFFFFFFFFFFFFFFFFFFFFFFFFFFFFFFFFF AND PUSH20 0xFFFFFFFFFFFFFFFFFFFFFFFFFFFFFFFFFFFFFFFF AND DUP2 MSTORE PUSH1 0x20 ADD SWAP1 DUP2 MSTORE PUSH1 0x20 ADD PUSH1 0x0 KECCAK256 SLOAD SWAP1 POP DUP1 SWAP3 POP POP POP SWAP1 JUMP JUMPDEST PUSH1 0x3 SLOAD DUP2 JUMP JUMPDEST PUSH1 0x0 SLOAD DUP2 JUMP JUMPDEST PUSH1 0x6 PUSH1 0x0 SWAP1 SLOAD SWAP1 PUSH2 0x100 EXP SWAP1 DIV PUSH20 0xFFFFFFFFFFFFFFFFFFFFFFFFFFFFFFFFFFFFFFFF AND PUSH20 0xFFFFFFFFFFFFFFFFFFFFFFFFFFFFFFFFFFFFFFFF AND CALLER PUSH20 0xFFFFFFFFFFFFFFFFFFFFFFFFFFFFFFFFFFFFFFFF AND EQ PUSH2 0x685 JUMPI PUSH1 0x40 MLOAD PUSH32 0x8C379A000000000000000000000000000000000000000000000000000000000 DUP2 MSTORE PUSH1 0x4 ADD PUSH2 0x67C SWAP1 PUSH2 0x178B JUMP JUMPDEST PUSH1 0x40 MLOAD DUP1 SWAP2 SUB SWAP1 REVERT JUMPDEST PUSH1 0x0 CALLER SWAP1 POP PUSH1 0x0 PUSH1 0x7 SLOAD SWAP1 POP PUSH1 0x0 PUSH1 0x7 DUP2 SWAP1 SSTORE POP DUP2 PUSH20 0xFFFFFFFFFFFFFFFFFFFFFFFFFFFFFFFFFFFFFFFF AND PUSH2 0x8FC DUP3 SWAP1 DUP2 ISZERO MUL SWAP1 PUSH1 0x40 MLOAD PUSH1 0x0 PUSH1 0x40 MLOAD DUP1 DUP4 SUB DUP2 DUP6 DUP9 DUP9 CALL SWAP4 POP POP POP POP ISZERO DUP1 ISZERO PUSH2 0x6DF JUMPI RETURNDATASIZE PUSH1 0x0 DUP1 RETURNDATACOPY RETURNDATASIZE PUSH1 0x0 REVERT JUMPDEST POP POP POP JUMP JUMPDEST PUSH1 0x6 PUSH1 0x0 SWAP1 SLOAD SWAP1 PUSH2 0x100 EXP SWAP1 DIV PUSH20 0xFFFFFFFFFFFFFFFFFFFFFFFFFFFFFFFFFFFFFFFF AND PUSH20 0xFFFFFFFFFFFFFFFFFFFFFFFFFFFFFFFFFFFFFFFF AND CALLER PUSH20 0xFFFFFFFFFFFFFFFFFFFFFFFFFFFFFFFFFFFFFFFF AND EQ PUSH2 0x774 JUMPI PUSH1 0x40 MLOAD PUSH32 0x8C379A000000000000000000000000000000000000000000000000000000000 DUP2 MSTORE PUSH1 0x4 ADD PUSH2 0x76B SWAP1 PUSH2 0x178B JUMP JUMPDEST PUSH1 0x40 MLOAD DUP1 SWAP2 SUB SWAP1 REVERT JUMPDEST DUP4 PUSH1 0x0 DUP2 SWAP1 SSTORE POP DUP3 PUSH1 0x1 DUP2 SWAP1 SSTORE POP DUP2 PUSH1 0x2 DUP2 SWAP1 SSTORE POP DUP1 PUSH1 0x3 DUP2 SWAP1 SSTORE POP POP POP POP POP JUMP JUMPDEST PUSH1 0x4 SLOAD DUP2 JUMP JUMPDEST PUSH1 0x5 SLOAD DUP2 JUMP JUMPDEST PUSH1 0x6 PUSH1 0x0 SWAP1 SLOAD SWAP1 PUSH2 0x100 EXP SWAP1 DIV PUSH20 0xFFFFFFFFFFFFFFFFFFFFFFFFFFFFFFFFFFFFFFFF AND PUSH20 0xFFFFFFFFFFFFFFFFFFFFFFFFFFFFFFFFFFFFFFFF AND CALLER PUSH20 0xFFFFFFFFFFFFFFFFFFFFFFFFFFFFFFFFFFFFFFFF AND EQ PUSH2 0x832 JUMPI PUSH1 0x40 MLOAD PUSH32 0x8C379A000000000000000000000000000000000000000000000000000000000 DUP2 MSTORE PUSH1 0x4 ADD PUSH2 0x829 SWAP1 PUSH2 0x178B JUMP JUMPDEST PUSH1 0x40 MLOAD DUP1 SWAP2 SUB SWAP1 REVERT JUMPDEST PUSH1 0x0 PUSH1 0xB DUP1 SLOAD SWAP1 POP GT PUSH2 0x87A JUMPI PUSH1 0x40 MLOAD PUSH32 0x8C379A000000000000000000000000000000000000000000000000000000000 DUP2 MSTORE PUSH1 0x4 ADD PUSH2 0x871 SWAP1 PUSH2 0x17F7 JUMP JUMPDEST PUSH1 0x40 MLOAD DUP1 SWAP2 SUB SWAP1 REVERT JUMPDEST PUSH1 0x0 PUSH1 0xB DUP1 SLOAD SWAP1 POP NUMBER PUSH2 0x88D SWAP2 SWAP1 PUSH2 0x1846 JUMP JUMPDEST BLOCKHASH SWAP1 POP PUSH1 0x0 TIMESTAMP DUP3 PUSH1 0x40 MLOAD PUSH1 0x20 ADD PUSH2 0x8A5 SWAP3 SWAP2 SWAP1 PUSH2 0x18C6 JUMP JUMPDEST PUSH1 0x40 MLOAD PUSH1 0x20 DUP2 DUP4 SUB SUB DUP2 MSTORE SWAP1 PUSH1 0x40 MSTORE DUP1 MLOAD SWAP1 PUSH1 0x20 ADD KECCAK256 PUSH1 0x0 SHR SWAP1 POP PUSH1 0x0 PUSH1 0xB DUP1 SLOAD SWAP1 POP DUP3 PUSH2 0x8D3 SWAP2 SWAP1 PUSH2 0x1921 JUMP JUMPDEST SWAP1 POP PUSH1 0x0 PUSH1 0xB DUP3 DUP2 SLOAD DUP2 LT PUSH2 0x8EB JUMPI PUSH2 0x8EA PUSH2 0x1952 JUMP JUMPDEST JUMPDEST SWAP1 PUSH1 0x0 MSTORE PUSH1 0x20 PUSH1 0x0 KECCAK256 ADD PUSH1 0x0 SWAP1 SLOAD SWAP1 PUSH2 0x100 EXP SWAP1 DIV PUSH20 0xFFFFFFFFFFFFFFFFFFFFFFFFFFFFFFFFFFFFFFFF AND SWAP1 POP DUP1 PUSH1 0x8 PUSH1 0x0 PUSH2 0x100 EXP DUP2 SLOAD DUP2 PUSH20 0xFFFFFFFFFFFFFFFFFFFFFFFFFFFFFFFFFFFFFFFF MUL NOT AND SWAP1 DUP4 PUSH20 0xFFFFFFFFFFFFFFFFFFFFFFFFFFFFFFFFFFFFFFFF AND MUL OR SWAP1 SSTORE POP PUSH1 0x2 SLOAD PUSH1 0x0 SLOAD PUSH2 0x969 SWAP2 SWAP1 PUSH2 0x1846 JUMP JUMPDEST PUSH1 0xB DUP1 SLOAD SWAP1 POP PUSH2 0x979 SWAP2 SWAP1 PUSH2 0x1981 JUMP JUMPDEST PUSH1 0xA PUSH1 0x0 DUP4 PUSH20 0xFFFFFFFFFFFFFFFFFFFFFFFFFFFFFFFFFFFFFFFF AND PUSH20 0xFFFFFFFFFFFFFFFFFFFFFFFFFFFFFFFFFFFFFFFF AND DUP2 MSTORE PUSH1 0x20 ADD SWAP1 DUP2 MSTORE PUSH1 0x20 ADD PUSH1 0x0 KECCAK256 PUSH1 0x0 DUP3 DUP3 SLOAD PUSH2 0x9C7 SWAP2 SWAP1 PUSH2 0x19C3 JUMP JUMPDEST SWAP3 POP POP DUP2 SWAP1 SSTORE POP PUSH1 0xA PUSH1 0x0 DUP3 PUSH20 0xFFFFFFFFFFFFFFFFFFFFFFFFFFFFFFFFFFFFFFFF AND PUSH20 0xFFFFFFFFFFFFFFFFFFFFFFFFFFFFFFFFFFFFFFFF AND DUP2 MSTORE PUSH1 0x20 ADD SWAP1 DUP2 MSTORE PUSH1 0x20 ADD PUSH1 0x0 KECCAK256 SLOAD PUSH1 0x9 DUP2 SWAP1 SSTORE POP PUSH1 0x2 SLOAD PUSH1 0xB DUP1 SLOAD SWAP1 POP PUSH2 0xA27 SWAP2 SWAP1 PUSH2 0x1981 JUMP JUMPDEST PUSH1 0x7 PUSH1 0x0 DUP3 DUP3 SLOAD PUSH2 0xA38 SWAP2 SWAP1 PUSH2 0x19C3 JUMP JUMPDEST SWAP3 POP POP DUP2 SWAP1 SSTORE POP PUSH1 0xB PUSH1 0x0 PUSH2 0xA4D SWAP2 SWAP1 PUSH2 0x1406 JUMP JUMPDEST PUSH1 0x3 SLOAD TIMESTAMP PUSH2 0xA5B SWAP2 SWAP1 PUSH2 0x19C3 JUMP JUMPDEST PUSH1 0x5 DUP2 SWAP1 SSTORE POP POP POP POP POP JUMP JUMPDEST PUSH1 0x60 PUSH1 0xB DUP1 SLOAD DUP1 PUSH1 0x20 MUL PUSH1 0x20 ADD PUSH1 0x40 MLOAD SWAP1 DUP2 ADD PUSH1 0x40 MSTORE DUP1 SWAP3 SWAP2 SWAP1 DUP2 DUP2 MSTORE PUSH1 0x20 ADD DUP3 DUP1 SLOAD DUP1 ISZERO PUSH2 0xAEB JUMPI PUSH1 0x20 MUL DUP3 ADD SWAP2 SWAP1 PUSH1 0x0 MSTORE PUSH1 0x20 PUSH1 0x0 KECCAK256 SWAP1 JUMPDEST DUP2 PUSH1 0x0 SWAP1 SLOAD SWAP1 PUSH2 0x100 EXP SWAP1 DIV PUSH20 0xFFFFFFFFFFFFFFFFFFFFFFFFFFFFFFFFFFFFFFFF AND PUSH20 0xFFFFFFFFFFFFFFFFFFFFFFFFFFFFFFFFFFFFFFFF AND DUP2 MSTORE PUSH1 0x20 ADD SWAP1 PUSH1 0x1 ADD SWAP1 DUP1 DUP4 GT PUSH2 0xAA1 JUMPI JUMPDEST POP POP POP POP POP SWAP1 POP SWAP1 JUMP JUMPDEST PUSH1 0xB DUP2 DUP2 SLOAD DUP2 LT PUSH2 0xB05 JUMPI PUSH1 0x0 DUP1 REVERT JUMPDEST SWAP1 PUSH1 0x0 MSTORE PUSH1 0x20 PUSH1 0x0 KECCAK256 ADD PUSH1 0x0 SWAP2 POP SLOAD SWAP1 PUSH2 0x100 EXP SWAP1 DIV PUSH20 0xFFFFFFFFFFFFFFFFFFFFFFFFFFFFFFFFFFFFFFFF AND DUP2 JUMP JUMPDEST PUSH1 0x6 PUSH1 0x0 SWAP1 SLOAD SWAP1 PUSH2 0x100 EXP SWAP1 DIV PUSH20 0xFFFFFFFFFFFFFFFFFFFFFFFFFFFFFFFFFFFFFFFF AND DUP2 JUMP JUMPDEST PUSH1 0x2 SLOAD DUP2 JUMP JUMPDEST PUSH2 0xB68 PUSH2 0xDF6 JUMP JUMPDEST PUSH2 0xBA7 JUMPI PUSH1 0x40 MLOAD PUSH32 0x8C379A000000000000000000000000000000000000000000000000000000000 DUP2 MSTORE PUSH1 0x4 ADD PUSH2 0xB9E SWAP1 PUSH2 0x1A43 JUMP JUMPDEST PUSH1 0x40 MLOAD DUP1 SWAP2 SUB SWAP1 REVERT JUMPDEST PUSH1 0x0 CALLER SWAP1 POP PUSH1 0x0 PUSH1 0xA PUSH1 0x0 DUP4 PUSH20 0xFFFFFFFFFFFFFFFFFFFFFFFFFFFFFFFFFFFFFFFF AND PUSH20 0xFFFFFFFFFFFFFFFFFFFFFFFFFFFFFFFFFFFFFFFF AND DUP2 MSTORE PUSH1 0x20 ADD SWAP1 DUP2 MSTORE PUSH1 0x20 ADD PUSH1 0x0 KECCAK256 SLOAD SWAP1 POP PUSH1 0x0 PUSH1 0xA PUSH1 0x0 DUP5 PUSH20 0xFFFFFFFFFFFFFFFFFFFFFFFFFFFFFFFFFFFFFFFF AND PUSH20 0xFFFFFFFFFFFFFFFFFFFFFFFFFFFFFFFFFFFFFFFF AND DUP2 MSTORE PUSH1 0x20 ADD SWAP1 DUP2 MSTORE PUSH1 0x20 ADD PUSH1 0x0 KECCAK256 DUP2 SWAP1 SSTORE POP DUP2 PUSH20 0xFFFFFFFFFFFFFFFFFFFFFFFFFFFFFFFFFFFFFFFF AND PUSH2 0x8FC DUP3 SWAP1 DUP2 ISZERO MUL SWAP1 PUSH1 0x40 MLOAD PUSH1 0x0 PUSH1 0x40 MLOAD DUP1 DUP4 SUB DUP2 DUP6 DUP9 DUP9 CALL SWAP4 POP POP POP POP ISZERO DUP1 ISZERO PUSH2 0xC7B JUMPI RETURNDATASIZE PUSH1 0x0 DUP1 RETURNDATACOPY RETURNDATASIZE PUSH1 0x0 REVERT JUMPDEST POP POP POP JUMP JUMPDEST PUSH1 0x0 DUP1 SLOAD CALLVALUE PUSH2 0xC8F SWAP2 SWAP1 PUSH2 0x1921 JUMP JUMPDEST EQ PUSH2 0xC9B PUSH1 0x0 SLOAD PUSH2 0x11E5 JUMP JUMPDEST PUSH1 0x40 MLOAD PUSH1 0x20 ADD PUSH2 0xCAB SWAP2 SWAP1 PUSH2 0x1B20 JUMP JUMPDEST PUSH1 0x40 MLOAD PUSH1 0x20 DUP2 DUP4 SUB SUB DUP2 MSTORE SWAP1 PUSH1 0x40 MSTORE SWAP1 PUSH2 0xCFB JUMPI PUSH1 0x40 MLOAD PUSH32 0x8C379A000000000000000000000000000000000000000000000000000000000 DUP2 MSTORE PUSH1 0x4 ADD PUSH2 0xCF2 SWAP2 SWAP1 PUSH2 0x1B9F JUMP JUMPDEST PUSH1 0x40 MLOAD DUP1 SWAP2 SUB SWAP1 REVERT JUMPDEST POP PUSH1 0x0 DUP1 SLOAD CALLVALUE PUSH2 0xD0B SWAP2 SWAP1 PUSH2 0x1BC1 JUMP JUMPDEST SWAP1 POP PUSH2 0xD15 PUSH2 0xDDC JUMP JUMPDEST DUP2 GT ISZERO PUSH2 0xD57 JUMPI PUSH1 0x40 MLOAD PUSH32 0x8C379A000000000000000000000000000000000000000000000000000000000 DUP2 MSTORE PUSH1 0x4 ADD PUSH2 0xD4E SWAP1 PUSH2 0x1C3E JUMP JUMPDEST PUSH1 0x40 MLOAD DUP1 SWAP2 SUB SWAP1 REVERT JUMPDEST PUSH1 0x0 JUMPDEST DUP2 DUP2 LT ISZERO PUSH2 0xDD8 JUMPI PUSH1 0xB CALLER SWAP1 DUP1 PUSH1 0x1 DUP2 SLOAD ADD DUP1 DUP3 SSTORE DUP1 SWAP2 POP POP PUSH1 0x1 SWAP1 SUB SWAP1 PUSH1 0x0 MSTORE PUSH1 0x20 PUSH1 0x0 KECCAK256 ADD PUSH1 0x0 SWAP1 SWAP2 SWAP1 SWAP2 SWAP1 SWAP2 PUSH2 0x100 EXP DUP2 SLOAD DUP2 PUSH20 0xFFFFFFFFFFFFFFFFFFFFFFFFFFFFFFFFFFFFFFFF MUL NOT AND SWAP1 DUP4 PUSH20 0xFFFFFFFFFFFFFFFFFFFFFFFFFFFFFFFFFFFFFFFF AND MUL OR SWAP1 SSTORE POP DUP1 DUP1 PUSH2 0xDD0 SWAP1 PUSH2 0x1C5E JUMP JUMPDEST SWAP2 POP POP PUSH2 0xD5A JUMP JUMPDEST POP POP JUMP JUMPDEST PUSH1 0x0 PUSH1 0xB DUP1 SLOAD SWAP1 POP PUSH1 0x1 SLOAD PUSH2 0xDF1 SWAP2 SWAP1 PUSH2 0x1846 JUMP JUMPDEST SWAP1 POP SWAP1 JUMP JUMPDEST PUSH1 0x0 DUP1 PUSH1 0xA PUSH1 0x0 CALLER PUSH20 0xFFFFFFFFFFFFFFFFFFFFFFFFFFFFFFFFFFFFFFFF AND PUSH20 0xFFFFFFFFFFFFFFFFFFFFFFFFFFFFFFFFFFFFFFFF AND DUP2 MSTORE PUSH1 0x20 ADD SWAP1 DUP2 MSTORE PUSH1 0x20 ADD PUSH1 0x0 KECCAK256 SLOAD GT SWAP1 POP SWAP1 JUMP JUMPDEST PUSH1 0x6 PUSH1 0x0 SWAP1 SLOAD SWAP1 PUSH2 0x100 EXP SWAP1 DIV PUSH20 0xFFFFFFFFFFFFFFFFFFFFFFFFFFFFFFFFFFFFFFFF AND PUSH20 0xFFFFFFFFFFFFFFFFFFFFFFFFFFFFFFFFFFFFFFFF AND CALLER PUSH20 0xFFFFFFFFFFFFFFFFFFFFFFFFFFFFFFFFFFFFFFFF AND EQ PUSH2 0xECF JUMPI PUSH1 0x40 MLOAD PUSH32 0x8C379A000000000000000000000000000000000000000000000000000000000 DUP2 MSTORE PUSH1 0x4 ADD PUSH2 0xEC6 SWAP1 PUSH2 0x178B JUMP JUMPDEST PUSH1 0x40 MLOAD DUP1 SWAP2 SUB SWAP1 REVERT JUMPDEST DUP1 PUSH1 0x4 DUP2 SWAP1 SSTORE POP POP JUMP JUMPDEST PUSH1 0x1 SLOAD DUP2 JUMP JUMPDEST PUSH1 0x5 SLOAD TIMESTAMP LT ISZERO PUSH2 0xF24 JUMPI PUSH1 0x40 MLOAD PUSH32 0x8C379A000000000000000000000000000000000000000000000000000000000 DUP2 MSTORE PUSH1 0x4 ADD PUSH2 0xF1B SWAP1 PUSH2 0x1CF2 JUMP JUMPDEST PUSH1 0x40 MLOAD DUP1 SWAP2 SUB SWAP1 REVERT JUMPDEST PUSH1 0x0 JUMPDEST PUSH1 0xB DUP1 SLOAD SWAP1 POP DUP2 LT ISZERO PUSH2 0x1032 JUMPI PUSH1 0x0 PUSH1 0xB DUP3 DUP2 SLOAD DUP2 LT PUSH2 0xF4A JUMPI PUSH2 0xF49 PUSH2 0x1952 JUMP JUMPDEST JUMPDEST SWAP1 PUSH1 0x0 MSTORE PUSH1 0x20 PUSH1 0x0 KECCAK256 ADD PUSH1 0x0 SWAP1 SLOAD SWAP1 PUSH2 0x100 EXP SWAP1 DIV PUSH20 0xFFFFFFFFFFFFFFFFFFFFFFFFFFFFFFFFFFFFFFFF AND SWAP1 POP PUSH1 0x0 PUSH1 0xB DUP4 DUP2 SLOAD DUP2 LT PUSH2 0xF8D JUMPI PUSH2 0xF8C PUSH2 0x1952 JUMP JUMPDEST JUMPDEST SWAP1 PUSH1 0x0 MSTORE PUSH1 0x20 PUSH1 0x0 KECCAK256 ADD PUSH1 0x0 PUSH2 0x100 EXP DUP2 SLOAD DUP2 PUSH20 0xFFFFFFFFFFFFFFFFFFFFFFFFFFFFFFFFFFFFFFFF MUL NOT AND SWAP1 DUP4 PUSH20 0xFFFFFFFFFFFFFFFFFFFFFFFFFFFFFFFFFFFFFFFF AND MUL OR SWAP1 SSTORE POP DUP1 PUSH20 0xFFFFFFFFFFFFFFFFFFFFFFFFFFFFFFFFFFFFFFFF AND PUSH2 0x8FC PUSH1 0x0 SLOAD SWAP1 DUP2 ISZERO MUL SWAP1 PUSH1 0x40 MLOAD PUSH1 0x0 PUSH1 0x40 MLOAD DUP1 DUP4 SUB DUP2 DUP6 DUP9 DUP9 CALL SWAP4 POP POP POP POP ISZERO DUP1 ISZERO PUSH2 0x101D JUMPI RETURNDATASIZE PUSH1 0x0 DUP1 RETURNDATACOPY RETURNDATASIZE PUSH1 0x0 REVERT JUMPDEST POP POP DUP1 DUP1 PUSH2 0x102A SWAP1 PUSH2 0x1C5E JUMP JUMPDEST SWAP2 POP POP PUSH2 0xF27 JUMP JUMPDEST POP PUSH1 0xB PUSH1 0x0 PUSH2 0x1041 SWAP2 SWAP1 PUSH2 0x1406 JUMP JUMPDEST JUMP JUMPDEST PUSH1 0x7 SLOAD DUP2 JUMP JUMPDEST PUSH1 0x0 DUP1 SLOAD PUSH1 0xB DUP1 SLOAD SWAP1 POP PUSH2 0x105D SWAP2 SWAP1 PUSH2 0x1981 JUMP JUMPDEST SWAP1 POP SWAP1 JUMP JUMPDEST PUSH1 0x0 PUSH1 0xA PUSH1 0x0 DUP4 PUSH20 0xFFFFFFFFFFFFFFFFFFFFFFFFFFFFFFFFFFFFFFFF AND PUSH20 0xFFFFFFFFFFFFFFFFFFFFFFFFFFFFFFFFFFFFFFFF AND DUP2 MSTORE PUSH1 0x20 ADD SWAP1 DUP2 MSTORE PUSH1 0x20 ADD PUSH1 0x0 KECCAK256 SLOAD SWAP1 POP SWAP2 SWAP1 POP JUMP JUMPDEST PUSH1 0xA PUSH1 0x20 MSTORE DUP1 PUSH1 0x0 MSTORE PUSH1 0x40 PUSH1 0x0 KECCAK256 PUSH1 0x0 SWAP2 POP SWAP1 POP SLOAD DUP2 JUMP JUMPDEST PUSH1 0x6 PUSH1 0x0 SWAP1 SLOAD SWAP1 PUSH2 0x100 EXP SWAP1 DIV PUSH20 0xFFFFFFFFFFFFFFFFFFFFFFFFFFFFFFFFFFFFFFFF AND PUSH20 0xFFFFFFFFFFFFFFFFFFFFFFFFFFFFFFFFFFFFFFFF AND CALLER PUSH20 0xFFFFFFFFFFFFFFFFFFFFFFFFFFFFFFFFFFFFFFFF AND EQ PUSH2 0x1153 JUMPI PUSH1 0x40 MLOAD PUSH32 0x8C379A000000000000000000000000000000000000000000000000000000000 DUP2 MSTORE PUSH1 0x4 ADD PUSH2 0x114A SWAP1 PUSH2 0x178B JUMP JUMPDEST PUSH1 0x40 MLOAD DUP1 SWAP2 SUB SWAP1 REVERT JUMPDEST PUSH1 0x0 PUSH1 0xB DUP1 SLOAD SWAP1 POP EQ PUSH2 0x119B JUMPI PUSH1 0x40 MLOAD PUSH32 0x8C379A000000000000000000000000000000000000000000000000000000000 DUP2 MSTORE PUSH1 0x4 ADD PUSH2 0x1192 SWAP1 PUSH2 0x1D84 JUMP JUMPDEST PUSH1 0x40 MLOAD DUP1 SWAP2 SUB SWAP1 REVERT JUMPDEST PUSH1 0xB PUSH1 0x0 PUSH2 0x11A9 SWAP2 SWAP1 PUSH2 0x1406 JUMP JUMPDEST PUSH1 0x3 SLOAD TIMESTAMP PUSH2 0x11B7 SWAP2 SWAP1 PUSH2 0x19C3 JUMP JUMPDEST PUSH1 0x5 DUP2 SWAP1 SSTORE POP JUMP JUMPDEST PUSH1 0x8 PUSH1 0x0 SWAP1 SLOAD SWAP1 PUSH2 0x100 EXP SWAP1 DIV PUSH20 0xFFFFFFFFFFFFFFFFFFFFFFFFFFFFFFFFFFFFFFFF AND DUP2 JUMP JUMPDEST PUSH1 0x60 PUSH1 0x0 PUSH1 0x1 PUSH2 0x11F4 DUP5 PUSH2 0x12B3 JUMP JUMPDEST ADD SWAP1 POP PUSH1 0x0 DUP2 PUSH8 0xFFFFFFFFFFFFFFFF DUP2 GT ISZERO PUSH2 0x1213 JUMPI PUSH2 0x1212 PUSH2 0x1DA4 JUMP JUMPDEST JUMPDEST PUSH1 0x40 MLOAD SWAP1 DUP1 DUP3 MSTORE DUP1 PUSH1 0x1F ADD PUSH1 0x1F NOT AND PUSH1 0x20 ADD DUP3 ADD PUSH1 0x40 MSTORE DUP1 ISZERO PUSH2 0x1245 JUMPI DUP2 PUSH1 0x20 ADD PUSH1 0x1 DUP3 MUL DUP1 CALLDATASIZE DUP4 CALLDATACOPY DUP1 DUP3 ADD SWAP2 POP POP SWAP1 POP JUMPDEST POP SWAP1 POP PUSH1 0x0 DUP3 PUSH1 0x20 ADD DUP3 ADD SWAP1 POP JUMPDEST PUSH1 0x1 ISZERO PUSH2 0x12A8 JUMPI DUP1 DUP1 PUSH1 0x1 SWAP1 SUB SWAP2 POP POP PUSH32 0x3031323334353637383961626364656600000000000000000000000000000000 PUSH1 0xA DUP7 MOD BYTE DUP2 MSTORE8 PUSH1 0xA DUP6 DUP2 PUSH2 0x129C JUMPI PUSH2 0x129B PUSH2 0x18F2 JUMP JUMPDEST JUMPDEST DIV SWAP5 POP PUSH1 0x0 DUP6 SUB PUSH2 0x1253 JUMPI JUMPDEST DUP2 SWAP4 POP POP POP POP SWAP2 SWAP1 POP JUMP JUMPDEST PUSH1 0x0 DUP1 PUSH1 0x0 SWAP1 POP PUSH27 0x184F03E93FF9F4DAA797ED6E38ED64BF6A1F010000000000000000 DUP4 LT PUSH2 0x1311 JUMPI PUSH27 0x184F03E93FF9F4DAA797ED6E38ED64BF6A1F010000000000000000 DUP4 DUP2 PUSH2 0x1307 JUMPI PUSH2 0x1306 PUSH2 0x18F2 JUMP JUMPDEST JUMPDEST DIV SWAP3 POP PUSH1 0x40 DUP2 ADD SWAP1 POP JUMPDEST PUSH14 0x4EE2D6D415B85ACEF8100000000 DUP4 LT PUSH2 0x134E JUMPI PUSH14 0x4EE2D6D415B85ACEF8100000000 DUP4 DUP2 PUSH2 0x1344 JUMPI PUSH2 0x1343 PUSH2 0x18F2 JUMP JUMPDEST JUMPDEST DIV SWAP3 POP PUSH1 0x20 DUP2 ADD SWAP1 POP JUMPDEST PUSH7 0x2386F26FC10000 DUP4 LT PUSH2 0x137D JUMPI PUSH7 0x2386F26FC10000 DUP4 DUP2 PUSH2 0x1373 JUMPI PUSH2 0x1372 PUSH2 0x18F2 JUMP JUMPDEST JUMPDEST DIV SWAP3 POP PUSH1 0x10 DUP2 ADD SWAP1 POP JUMPDEST PUSH4 0x5F5E100 DUP4 LT PUSH2 0x13A6 JUMPI PUSH4 0x5F5E100 DUP4 DUP2 PUSH2 0x139C JUMPI PUSH2 0x139B PUSH2 0x18F2 JUMP JUMPDEST JUMPDEST DIV SWAP3 POP PUSH1 0x8 DUP2 ADD SWAP1 POP JUMPDEST PUSH2 0x2710 DUP4 LT PUSH2 0x13CB JUMPI PUSH2 0x2710 DUP4 DUP2 PUSH2 0x13C1 JUMPI PUSH2 0x13C0 PUSH2 0x18F2 JUMP JUMPDEST JUMPDEST DIV SWAP3 POP PUSH1 0x4 DUP2 ADD SWAP1 POP JUMPDEST PUSH1 0x64 DUP4 LT PUSH2 0x13EE JUMPI PUSH1 0x64 DUP4 DUP2 PUSH2 0x13E4 JUMPI PUSH2 0x13E3 PUSH2 0x18F2 JUMP JUMPDEST JUMPDEST DIV SWAP3 POP PUSH1 0x2 DUP2 ADD SWAP1 POP JUMPDEST PUSH1 0xA DUP4 LT PUSH2 0x13FD JUMPI PUSH1 0x1 DUP2 ADD SWAP1 POP JUMPDEST DUP1 SWAP2 POP POP SWAP2 SWAP1 POP JUMP JUMPDEST POP DUP1 SLOAD PUSH1 0x0 DUP3 SSTORE SWAP1 PUSH1 0x0 MSTORE PUSH1 0x20 PUSH1 0x0 KECCAK256 SWAP1 DUP2 ADD SWAP1 PUSH2 0x1424 SWAP2 SWAP1 PUSH2 0x1427 JUMP JUMPDEST POP JUMP JUMPDEST JUMPDEST DUP1 DUP3 GT ISZERO PUSH2 0x1440 JUMPI PUSH1 0x0 DUP2 PUSH1 0x0 SWAP1 SSTORE POP PUSH1 0x1 ADD PUSH2 0x1428 JUMP JUMPDEST POP SWAP1 JUMP JUMPDEST PUSH1 0x0 DUP2 SWAP1 POP SWAP2 SWAP1 POP JUMP JUMPDEST PUSH2 0x1457 DUP2 PUSH2 0x1444 JUMP JUMPDEST DUP3 MSTORE POP POP JUMP JUMPDEST PUSH1 0x0 PUSH1 0x20 DUP3 ADD SWAP1 POP PUSH2 0x1472 PUSH1 0x0 DUP4 ADD DUP5 PUSH2 0x144E JUMP JUMPDEST SWAP3 SWAP2 POP POP JUMP JUMPDEST PUSH1 0x0 DUP1 REVERT JUMPDEST PUSH2 0x1486 DUP2 PUSH2 0x1444 JUMP JUMPDEST DUP2 EQ PUSH2 0x1491 JUMPI PUSH1 0x0 DUP1 REVERT JUMPDEST POP JUMP JUMPDEST PUSH1 0x0 DUP2 CALLDATALOAD SWAP1 POP PUSH2 0x14A3 DUP2 PUSH2 0x147D JUMP JUMPDEST SWAP3 SWAP2 POP POP JUMP JUMPDEST PUSH1 0x0 DUP1 PUSH1 0x0 DUP1 PUSH1 0x80 DUP6 DUP8 SUB SLT ISZERO PUSH2 0x14C3 JUMPI PUSH2 0x14C2 PUSH2 0x1478 JUMP JUMPDEST JUMPDEST PUSH1 0x0 PUSH2 0x14D1 DUP8 DUP3 DUP9 ADD PUSH2 0x1494 JUMP JUMPDEST SWAP5 POP POP PUSH1 0x20 PUSH2 0x14E2 DUP8 DUP3 DUP9 ADD PUSH2 0x1494 JUMP JUMPDEST SWAP4 POP POP PUSH1 0x40 PUSH2 0x14F3 DUP8 DUP3 DUP9 ADD PUSH2 0x1494 JUMP JUMPDEST SWAP3 POP POP PUSH1 0x60 PUSH2 0x1504 DUP8 DUP3 DUP9 ADD PUSH2 0x1494 JUMP JUMPDEST SWAP2 POP POP SWAP3 SWAP6 SWAP2 SWAP5 POP SWAP3 POP JUMP JUMPDEST PUSH1 0x0 DUP2 MLOAD SWAP1 POP SWAP2 SWAP1 POP JUMP JUMPDEST PUSH1 0x0 DUP3 DUP3 MSTORE PUSH1 0x20 DUP3 ADD SWAP1 POP SWAP3 SWAP2 POP POP JUMP JUMPDEST PUSH1 0x0 DUP2 SWAP1 POP PUSH1 0x20 DUP3 ADD SWAP1 POP SWAP2 SWAP1 POP JUMP JUMPDEST PUSH1 0x0 PUSH20 0xFFFFFFFFFFFFFFFFFFFFFFFFFFFFFFFFFFFFFFFF DUP3 AND SWAP1 POP SWAP2 SWAP1 POP JUMP JUMPDEST PUSH1 0x0 PUSH2 0x1567 DUP3 PUSH2 0x153C JUMP JUMPDEST SWAP1 POP SWAP2 SWAP1 POP JUMP JUMPDEST PUSH2 0x1577 DUP2 PUSH2 0x155C JUMP JUMPDEST DUP3 MSTORE POP POP JUMP JUMPDEST PUSH1 0x0 PUSH2 0x1589 DUP4 DUP4 PUSH2 0x156E JUMP JUMPDEST PUSH1 0x20 DUP4 ADD SWAP1 POP SWAP3 SWAP2 POP POP JUMP JUMPDEST PUSH1 0x0 PUSH1 0x20 DUP3 ADD SWAP1 POP SWAP2 SWAP1 POP JUMP JUMPDEST PUSH1 0x0 PUSH2 0x15AD DUP3 PUSH2 0x1510 JUMP JUMPDEST PUSH2 0x15B7 DUP2 DUP6 PUSH2 0x151B JUMP JUMPDEST SWAP4 POP PUSH2 0x15C2 DUP4 PUSH2 0x152C JUMP JUMPDEST DUP1 PUSH1 0x0 JUMPDEST DUP4 DUP2 LT ISZERO PUSH2 0x15F3 JUMPI DUP2 MLOAD PUSH2 0x15DA DUP9 DUP3 PUSH2 0x157D JUMP JUMPDEST SWAP8 POP PUSH2 0x15E5 DUP4 PUSH2 0x1595 JUMP JUMPDEST SWAP3 POP POP PUSH1 0x1 DUP2 ADD SWAP1 POP PUSH2 0x15C6 JUMP JUMPDEST POP DUP6 SWAP4 POP POP POP POP SWAP3 SWAP2 POP POP JUMP JUMPDEST PUSH1 0x0 PUSH1 0x20 DUP3 ADD SWAP1 POP DUP2 DUP2 SUB PUSH1 0x0 DUP4 ADD MSTORE PUSH2 0x161A DUP2 DUP5 PUSH2 0x15A2 JUMP JUMPDEST SWAP1 POP SWAP3 SWAP2 POP POP JUMP JUMPDEST PUSH1 0x0 PUSH1 0x20 DUP3 DUP5 SUB SLT ISZERO PUSH2 0x1638 JUMPI PUSH2 0x1637 PUSH2 0x1478 JUMP JUMPDEST JUMPDEST PUSH1 0x0 PUSH2 0x1646 DUP5 DUP3 DUP6 ADD PUSH2 0x1494 JUMP JUMPDEST SWAP2 POP POP SWAP3 SWAP2 POP POP JUMP JUMPDEST PUSH2 0x1658 DUP2 PUSH2 0x155C JUMP JUMPDEST DUP3 MSTORE POP POP JUMP JUMPDEST PUSH1 0x0 PUSH1 0x20 DUP3 ADD SWAP1 POP PUSH2 0x1673 PUSH1 0x0 DUP4 ADD DUP5 PUSH2 0x164F JUMP JUMPDEST SWAP3 SWAP2 POP POP JUMP JUMPDEST PUSH1 0x0 DUP2 ISZERO ISZERO SWAP1 POP SWAP2 SWAP1 POP JUMP JUMPDEST PUSH2 0x168E DUP2 PUSH2 0x1679 JUMP JUMPDEST DUP3 MSTORE POP POP JUMP JUMPDEST PUSH1 0x0 PUSH1 0x20 DUP3 ADD SWAP1 POP PUSH2 0x16A9 PUSH1 0x0 DUP4 ADD DUP5 PUSH2 0x1685 JUMP JUMPDEST SWAP3 SWAP2 POP POP JUMP JUMPDEST PUSH2 0x16B8 DUP2 PUSH2 0x155C JUMP JUMPDEST DUP2 EQ PUSH2 0x16C3 JUMPI PUSH1 0x0 DUP1 REVERT JUMPDEST POP JUMP JUMPDEST PUSH1 0x0 DUP2 CALLDATALOAD SWAP1 POP PUSH2 0x16D5 DUP2 PUSH2 0x16AF JUMP JUMPDEST SWAP3 SWAP2 POP POP JUMP JUMPDEST PUSH1 0x0 PUSH1 0x20 DUP3 DUP5 SUB SLT ISZERO PUSH2 0x16F1 JUMPI PUSH2 0x16F0 PUSH2 0x1478 JUMP JUMPDEST JUMPDEST PUSH1 0x0 PUSH2 0x16FF DUP5 DUP3 DUP6 ADD PUSH2 0x16C6 JUMP JUMPDEST SWAP2 POP POP SWAP3 SWAP2 POP POP JUMP JUMPDEST PUSH1 0x0 DUP3 DUP3 MSTORE PUSH1 0x20 DUP3 ADD SWAP1 POP SWAP3 SWAP2 POP POP JUMP JUMPDEST PUSH32 0x43616C6C6572206973206E6F7420746865206C6F7474657279206F7065726174 PUSH1 0x0 DUP3 ADD MSTORE PUSH32 0x6F72000000000000000000000000000000000000000000000000000000000000 PUSH1 0x20 DUP3 ADD MSTORE POP JUMP JUMPDEST PUSH1 0x0 PUSH2 0x1775 PUSH1 0x22 DUP4 PUSH2 0x1708 JUMP JUMPDEST SWAP2 POP PUSH2 0x1780 DUP3 PUSH2 0x1719 JUMP JUMPDEST PUSH1 0x40 DUP3 ADD SWAP1 POP SWAP2 SWAP1 POP JUMP JUMPDEST PUSH1 0x0 PUSH1 0x20 DUP3 ADD SWAP1 POP DUP2 DUP2 SUB PUSH1 0x0 DUP4 ADD MSTORE PUSH2 0x17A4 DUP2 PUSH2 0x1768 JUMP JUMPDEST SWAP1 POP SWAP2 SWAP1 POP JUMP JUMPDEST PUSH32 0x4E6F207469636B65747320776572652070757263686173656400000000000000 PUSH1 0x0 DUP3 ADD MSTORE POP JUMP JUMPDEST PUSH1 0x0 PUSH2 0x17E1 PUSH1 0x19 DUP4 PUSH2 0x1708 JUMP JUMPDEST SWAP2 POP PUSH2 0x17EC DUP3 PUSH2 0x17AB JUMP JUMPDEST PUSH1 0x20 DUP3 ADD SWAP1 POP SWAP2 SWAP1 POP JUMP JUMPDEST PUSH1 0x0 PUSH1 0x20 DUP3 ADD SWAP1 POP DUP2 DUP2 SUB PUSH1 0x0 DUP4 ADD MSTORE PUSH2 0x1810 DUP2 PUSH2 0x17D4 JUMP JUMPDEST SWAP1 POP SWAP2 SWAP1 POP JUMP JUMPDEST PUSH32 0x4E487B7100000000000000000000000000000000000000000000000000000000 PUSH1 0x0 MSTORE PUSH1 0x11 PUSH1 0x4 MSTORE PUSH1 0x24 PUSH1 0x0 REVERT JUMPDEST PUSH1 0x0 PUSH2 0x1851 DUP3 PUSH2 0x1444 JUMP JUMPDEST SWAP2 POP PUSH2 0x185C DUP4 PUSH2 0x1444 JUMP JUMPDEST SWAP3 POP DUP3 DUP3 SUB SWAP1 POP DUP2 DUP2 GT ISZERO PUSH2 0x1874 JUMPI PUSH2 0x1873 PUSH2 0x1817 JUMP JUMPDEST JUMPDEST SWAP3 SWAP2 POP POP JUMP JUMPDEST PUSH1 0x0 DUP2 SWAP1 POP SWAP2 SWAP1 POP JUMP JUMPDEST PUSH2 0x1895 PUSH2 0x1890 DUP3 PUSH2 0x1444 JUMP JUMPDEST PUSH2 0x187A JUMP JUMPDEST DUP3 MSTORE POP POP JUMP JUMPDEST PUSH1 0x0 DUP2 SWAP1 POP SWAP2 SWAP1 POP JUMP JUMPDEST PUSH1 0x0 DUP2 SWAP1 POP SWAP2 SWAP1 POP JUMP JUMPDEST PUSH2 0x18C0 PUSH2 0x18BB DUP3 PUSH2 0x189B JUMP JUMPDEST PUSH2 0x18A5 JUMP JUMPDEST DUP3 MSTORE POP POP JUMP JUMPDEST PUSH1 0x0 PUSH2 0x18D2 DUP3 DUP6 PUSH2 0x1884 JUMP JUMPDEST PUSH1 0x20 DUP3 ADD SWAP2 POP PUSH2 0x18E2 DUP3 DUP5 PUSH2 0x18AF JUMP JUMPDEST PUSH1 0x20 DUP3 ADD SWAP2 POP DUP2 SWAP1 POP SWAP4 SWAP3 POP POP POP JUMP JUMPDEST PUSH32 0x4E487B7100000000000000000000000000000000000000000000000000000000 PUSH1 0x0 MSTORE PUSH1 0x12 PUSH1 0x4 MSTORE PUSH1 0x24 PUSH1 0x0 REVERT JUMPDEST PUSH1 0x0 PUSH2 0x192C DUP3 PUSH2 0x1444 JUMP JUMPDEST SWAP2 POP PUSH2 0x1937 DUP4 PUSH2 0x1444 JUMP JUMPDEST SWAP3 POP DUP3 PUSH2 0x1947 JUMPI PUSH2 0x1946 PUSH2 0x18F2 JUMP JUMPDEST JUMPDEST DUP3 DUP3 MOD SWAP1 POP SWAP3 SWAP2 POP POP JUMP JUMPDEST PUSH32 0x4E487B7100000000000000000000000000000000000000000000000000000000 PUSH1 0x0 MSTORE PUSH1 0x32 PUSH1 0x4 MSTORE PUSH1 0x24 PUSH1 0x0 REVERT JUMPDEST PUSH1 0x0 PUSH2 0x198C DUP3 PUSH2 0x1444 JUMP JUMPDEST SWAP2 POP PUSH2 0x1997 DUP4 PUSH2 0x1444 JUMP JUMPDEST SWAP3 POP DUP3 DUP3 MUL PUSH2 0x19A5 DUP2 PUSH2 0x1444 JUMP JUMPDEST SWAP2 POP DUP3 DUP3 DIV DUP5 EQ DUP4 ISZERO OR PUSH2 0x19BC JUMPI PUSH2 0x19BB PUSH2 0x1817 JUMP JUMPDEST JUMPDEST POP SWAP3 SWAP2 POP POP JUMP JUMPDEST PUSH1 0x0 PUSH2 0x19CE DUP3 PUSH2 0x1444 JUMP JUMPDEST SWAP2 POP PUSH2 0x19D9 DUP4 PUSH2 0x1444 JUMP JUMPDEST SWAP3 POP DUP3 DUP3 ADD SWAP1 POP DUP1 DUP3 GT ISZERO PUSH2 0x19F1 JUMPI PUSH2 0x19F0 PUSH2 0x1817 JUMP JUMPDEST JUMPDEST SWAP3 SWAP2 POP POP JUMP JUMPDEST PUSH32 0x43616C6C6572206973206E6F7420612077696E6E657200000000000000000000 PUSH1 0x0 DUP3 ADD MSTORE POP JUMP JUMPDEST PUSH1 0x0 PUSH2 0x1A2D PUSH1 0x16 DUP4 PUSH2 0x1708 JUMP JUMPDEST SWAP2 POP PUSH2 0x1A38 DUP3 PUSH2 0x19F7 JUMP JUMPDEST PUSH1 0x20 DUP3 ADD SWAP1 POP SWAP2 SWAP1 POP JUMP JUMPDEST PUSH1 0x0 PUSH1 0x20 DUP3 ADD SWAP1 POP DUP2 DUP2 SUB PUSH1 0x0 DUP4 ADD MSTORE PUSH2 0x1A5C DUP2 PUSH2 0x1A20 JUMP JUMPDEST SWAP1 POP SWAP2 SWAP1 POP JUMP JUMPDEST PUSH32 0x7468652076616C7565206D757374206265206D756C7469706C65206F66200000 DUP2 MSTORE POP JUMP JUMPDEST PUSH1 0x0 DUP2 MLOAD SWAP1 POP SWAP2 SWAP1 POP JUMP JUMPDEST PUSH1 0x0 DUP2 SWAP1 POP SWAP3 SWAP2 POP POP JUMP JUMPDEST PUSH1 0x0 JUMPDEST DUP4 DUP2 LT ISZERO PUSH2 0x1ABD JUMPI DUP1 DUP3 ADD MLOAD DUP2 DUP5 ADD MSTORE PUSH1 0x20 DUP2 ADD SWAP1 POP PUSH2 0x1AA2 JUMP JUMPDEST PUSH1 0x0 DUP5 DUP5 ADD MSTORE POP POP POP POP JUMP JUMPDEST PUSH1 0x0 PUSH2 0x1AD4 DUP3 PUSH2 0x1A89 JUMP JUMPDEST PUSH2 0x1ADE DUP2 DUP6 PUSH2 0x1A94 JUMP JUMPDEST SWAP4 POP PUSH2 0x1AEE DUP2 DUP6 PUSH1 0x20 DUP7 ADD PUSH2 0x1A9F JUMP JUMPDEST DUP1 DUP5 ADD SWAP2 POP POP SWAP3 SWAP2 POP POP JUMP JUMPDEST PUSH32 0x2045746865720000000000000000000000000000000000000000000000000000 DUP2 MSTORE POP JUMP JUMPDEST PUSH1 0x0 PUSH2 0x1B2B DUP3 PUSH2 0x1A63 JUMP JUMPDEST PUSH1 0x1E DUP3 ADD SWAP2 POP PUSH2 0x1B3B DUP3 DUP5 PUSH2 0x1AC9 JUMP JUMPDEST SWAP2 POP PUSH2 0x1B46 DUP3 PUSH2 0x1AFA JUMP JUMPDEST PUSH1 0x6 DUP3 ADD SWAP2 POP DUP2 SWAP1 POP SWAP3 SWAP2 POP POP JUMP JUMPDEST PUSH1 0x0 PUSH1 0x1F NOT PUSH1 0x1F DUP4 ADD AND SWAP1 POP SWAP2 SWAP1 POP JUMP JUMPDEST PUSH1 0x0 PUSH2 0x1B71 DUP3 PUSH2 0x1A89 JUMP JUMPDEST PUSH2 0x1B7B DUP2 DUP6 PUSH2 0x1708 JUMP JUMPDEST SWAP4 POP PUSH2 0x1B8B DUP2 DUP6 PUSH1 0x20 DUP7 ADD PUSH2 0x1A9F JUMP JUMPDEST PUSH2 0x1B94 DUP2 PUSH2 0x1B55 JUMP JUMPDEST DUP5 ADD SWAP2 POP POP SWAP3 SWAP2 POP POP JUMP JUMPDEST PUSH1 0x0 PUSH1 0x20 DUP3 ADD SWAP1 POP DUP2 DUP2 SUB PUSH1 0x0 DUP4 ADD MSTORE PUSH2 0x1BB9 DUP2 DUP5 PUSH2 0x1B66 JUMP JUMPDEST SWAP1 POP SWAP3 SWAP2 POP POP JUMP JUMPDEST PUSH1 0x0 PUSH2 0x1BCC DUP3 PUSH2 0x1444 JUMP JUMPDEST SWAP2 POP PUSH2 0x1BD7 DUP4 PUSH2 0x1444 JUMP JUMPDEST SWAP3 POP DUP3 PUSH2 0x1BE7 JUMPI PUSH2 0x1BE6 PUSH2 0x18F2 JUMP JUMPDEST JUMPDEST DUP3 DUP3 DIV SWAP1 POP SWAP3 SWAP2 POP POP JUMP JUMPDEST PUSH32 0x4E6F7420656E6F756768207469636B65747320617661696C61626C652E000000 PUSH1 0x0 DUP3 ADD MSTORE POP JUMP JUMPDEST PUSH1 0x0 PUSH2 0x1C28 PUSH1 0x1D DUP4 PUSH2 0x1708 JUMP JUMPDEST SWAP2 POP PUSH2 0x1C33 DUP3 PUSH2 0x1BF2 JUMP JUMPDEST PUSH1 0x20 DUP3 ADD SWAP1 POP SWAP2 SWAP1 POP JUMP JUMPDEST PUSH1 0x0 PUSH1 0x20 DUP3 ADD SWAP1 POP DUP2 DUP2 SUB PUSH1 0x0 DUP4 ADD MSTORE PUSH2 0x1C57 DUP2 PUSH2 0x1C1B JUMP JUMPDEST SWAP1 POP SWAP2 SWAP1 POP JUMP JUMPDEST PUSH1 0x0 PUSH2 0x1C69 DUP3 PUSH2 0x1444 JUMP JUMPDEST SWAP2 POP PUSH32 0xFFFFFFFFFFFFFFFFFFFFFFFFFFFFFFFFFFFFFFFFFFFFFFFFFFFFFFFFFFFFFFFF DUP3 SUB PUSH2 0x1C9B JUMPI PUSH2 0x1C9A PUSH2 0x1817 JUMP JUMPDEST JUMPDEST PUSH1 0x1 DUP3 ADD SWAP1 POP SWAP2 SWAP1 POP JUMP JUMPDEST PUSH32 0x746865206C6F7474657279206E6F742065787069726564207965740000000000 PUSH1 0x0 DUP3 ADD MSTORE POP JUMP JUMPDEST PUSH1 0x0 PUSH2 0x1CDC PUSH1 0x1B DUP4 PUSH2 0x1708 JUMP JUMPDEST SWAP2 POP PUSH2 0x1CE7 DUP3 PUSH2 0x1CA6 JUMP JUMPDEST PUSH1 0x20 DUP3 ADD SWAP1 POP SWAP2 SWAP1 POP JUMP JUMPDEST PUSH1 0x0 PUSH1 0x20 DUP3 ADD SWAP1 POP DUP2 DUP2 SUB PUSH1 0x0 DUP4 ADD MSTORE PUSH2 0x1D0B DUP2 PUSH2 0x1CCF JUMP JUMPDEST SWAP1 POP SWAP2 SWAP1 POP JUMP JUMPDEST PUSH32 0x43616E6E6F742052657374617274204472617720617320447261772069732069 PUSH1 0x0 DUP3 ADD MSTORE PUSH32 0x6E20706C61790000000000000000000000000000000000000000000000000000 PUSH1 0x20 DUP3 ADD MSTORE POP JUMP JUMPDEST PUSH1 0x0 PUSH2 0x1D6E PUSH1 0x26 DUP4 PUSH2 0x1708 JUMP JUMPDEST SWAP2 POP PUSH2 0x1D79 DUP3 PUSH2 0x1D12 JUMP JUMPDEST PUSH1 0x40 DUP3 ADD SWAP1 POP SWAP2 SWAP1 POP JUMP JUMPDEST PUSH1 0x0 PUSH1 0x20 DUP3 ADD SWAP1 POP DUP2 DUP2 SUB PUSH1 0x0 DUP4 ADD MSTORE PUSH2 0x1D9D DUP2 PUSH2 0x1D61 JUMP JUMPDEST SWAP1 POP SWAP2 SWAP1 POP JUMP JUMPDEST PUSH32 0x4E487B7100000000000000000000000000000000000000000000000000000000 PUSH1 0x0 MSTORE PUSH1 0x41 PUSH1 0x4 MSTORE PUSH1 0x24 PUSH1 0x0 REVERT INVALID LOG2 PUSH5 0x6970667358 0x22 SLT KECCAK256 0xE9 SIGNEXTEND LOG0 0xB5 0x26 0xEC SWAP1 STOP ADD PUSH26 0xC7133A1EC6047C36BAB52D956E5A53BCC20B141E5D7764736F6C PUSH4 0x43000812 STOP CALLER "
				},
				"gasEstimates": {
					"creation": {
						"codeDepositCost": "1537800",
						"executionCost": "infinite",
						"totalCost": "infinite"
					},
					"external": {
						"BuyTickets()": "infinite",
						"CurrentWinningReward()": "infinite",
						"DrawWinnerTicket()": "infinite",
						"IsWinner()": "2627",
						"RefundAll()": "infinite",
						"RemainingTickets()": "infinite",
						"WithdrawCommission()": "infinite",
						"WithdrawWinnings()": "infinite",
						"checkWinningsAmount()": "2598",
						"duration()": "2497",
						"expiration()": "2497",
						"getTickets()": "infinite",
						"getWinningsForAddress(address)": "2885",
						"lastWinner()": "2624",
						"lastWinnerAmount()": "2453",
						"lotteryOperator()": "2603",
						"maxTickets()": "2562",
						"maxTicketsPerAddress()": "2475",
						"operatorTotalCommission()": "2496",
						"restartDraw()": "infinite",
						"setMaxTicketsPerAddress(uint256)": "24801",
						"ticketCommission()": "2540",
						"ticketPrice()": "2519",
						"tickets(uint256)": "5023",
						"updateLotteryParams(uint256,uint256,uint256,uint256)": "infinite",
						"winnings(address)": "2880"
					}
				},
				"methodIdentifiers": {
					"BuyTickets()": "91d8b14e",
					"CurrentWinningReward()": "c6944fa0",
					"DrawWinnerTicket()": "4788af7c",
					"IsWinner()": "96c85ef3",
					"RefundAll()": "a88f4672",
					"RemainingTickets()": "93a563b5",
					"WithdrawCommission()": "35580df2",
					"WithdrawWinnings()": "71827b7b",
					"checkWinningsAmount()": "0789c607",
					"duration()": "0fb5a6b4",
					"expiration()": "4665096d",
					"getTickets()": "4ed02622",
					"getWinningsForAddress(address)": "dd64e534",
					"lastWinner()": "fe188184",
					"lastWinnerAmount()": "06f7f3bf",
					"lotteryOperator()": "5a58acdd",
					"maxTickets()": "9b894703",
					"maxTicketsPerAddress()": "463a94a5",
					"operatorTotalCommission()": "ba946d79",
					"restartDraw()": "f2613269",
					"setMaxTicketsPerAddress(uint256)": "9802cf2f",
					"ticketCommission()": "6032a4f9",
					"ticketPrice()": "1209b1f6",
					"tickets(uint256)": "50b44712",
					"updateLotteryParams(uint256,uint256,uint256,uint256)": "44a8c611",
					"winnings(address)": "ea3a1499"
				}
			},
			"storageLayout": {
				"storage": [
					{
						"astId": 1205,
						"contract": "contracts/lottery.sol:Lottery",
						"label": "ticketPrice",
						"offset": 0,
						"slot": "0",
						"type": "t_uint256"
					},
					{
						"astId": 1208,
						"contract": "contracts/lottery.sol:Lottery",
						"label": "maxTickets",
						"offset": 0,
						"slot": "1",
						"type": "t_uint256"
					},
					{
						"astId": 1211,
						"contract": "contracts/lottery.sol:Lottery",
						"label": "ticketCommission",
						"offset": 0,
						"slot": "2",
						"type": "t_uint256"
					},
					{
						"astId": 1214,
						"contract": "contracts/lottery.sol:Lottery",
						"label": "duration",
						"offset": 0,
						"slot": "3",
						"type": "t_uint256"
					},
					{
						"astId": 1217,
						"contract": "contracts/lottery.sol:Lottery",
						"label": "maxTicketsPerAddress",
						"offset": 0,
						"slot": "4",
						"type": "t_uint256"
					},
					{
						"astId": 1219,
						"contract": "contracts/lottery.sol:Lottery",
						"label": "expiration",
						"offset": 0,
						"slot": "5",
						"type": "t_uint256"
					},
					{
						"astId": 1221,
						"contract": "contracts/lottery.sol:Lottery",
						"label": "lotteryOperator",
						"offset": 0,
						"slot": "6",
						"type": "t_address"
					},
					{
						"astId": 1224,
						"contract": "contracts/lottery.sol:Lottery",
						"label": "operatorTotalCommission",
						"offset": 0,
						"slot": "7",
						"type": "t_uint256"
					},
					{
						"astId": 1226,
						"contract": "contracts/lottery.sol:Lottery",
						"label": "lastWinner",
						"offset": 0,
						"slot": "8",
						"type": "t_address"
					},
					{
						"astId": 1228,
						"contract": "contracts/lottery.sol:Lottery",
						"label": "lastWinnerAmount",
						"offset": 0,
						"slot": "9",
						"type": "t_uint256"
					},
					{
						"astId": 1232,
						"contract": "contracts/lottery.sol:Lottery",
						"label": "winnings",
						"offset": 0,
						"slot": "10",
						"type": "t_mapping(t_address,t_uint256)"
					},
					{
						"astId": 1235,
						"contract": "contracts/lottery.sol:Lottery",
						"label": "tickets",
						"offset": 0,
						"slot": "11",
						"type": "t_array(t_address)dyn_storage"
					}
				],
				"types": {
					"t_address": {
						"encoding": "inplace",
						"label": "address",
						"numberOfBytes": "20"
					},
					"t_array(t_address)dyn_storage": {
						"base": "t_address",
						"encoding": "dynamic_array",
						"label": "address[]",
						"numberOfBytes": "32"
					},
					"t_mapping(t_address,t_uint256)": {
						"encoding": "mapping",
						"key": "t_address",
						"label": "mapping(address => uint256)",
						"numberOfBytes": "32",
						"value": "t_uint256"
					},
					"t_uint256": {
						"encoding": "inplace",
						"label": "uint256",
						"numberOfBytes": "32"
					}
				}
			},
			"userdoc": {
				"kind": "user",
				"methods": {},
				"version": 1
			}
		}
	}
}