{
	"contracts/PEPEuni.sol": {
		"PepeToken": {
			"abi": [
				{
					"inputs": [
						{
							"internalType": "uint256",
							"name": "_totalSupply",
							"type": "uint256"
						}
					],
					"stateMutability": "nonpayable",
					"type": "constructor"
				},
				{
					"anonymous": false,
					"inputs": [
						{
							"indexed": true,
							"internalType": "address",
							"name": "owner",
							"type": "address"
						},
						{
							"indexed": true,
							"internalType": "address",
							"name": "spender",
							"type": "address"
						},
						{
							"indexed": false,
							"internalType": "uint256",
							"name": "value",
							"type": "uint256"
						}
					],
					"name": "Approval",
					"type": "event"
				},
				{
					"anonymous": false,
					"inputs": [
						{
							"indexed": true,
							"internalType": "address",
							"name": "previousOwner",
							"type": "address"
						},
						{
							"indexed": true,
							"internalType": "address",
							"name": "newOwner",
							"type": "address"
						}
					],
					"name": "OwnershipTransferred",
					"type": "event"
				},
				{
					"anonymous": false,
					"inputs": [
						{
							"indexed": true,
							"internalType": "address",
							"name": "from",
							"type": "address"
						},
						{
							"indexed": true,
							"internalType": "address",
							"name": "to",
							"type": "address"
						},
						{
							"indexed": false,
							"internalType": "uint256",
							"name": "value",
							"type": "uint256"
						}
					],
					"name": "Transfer",
					"type": "event"
				},
				{
					"inputs": [
						{
							"internalType": "address",
							"name": "owner",
							"type": "address"
						},
						{
							"internalType": "address",
							"name": "spender",
							"type": "address"
						}
					],
					"name": "allowance",
					"outputs": [
						{
							"internalType": "uint256",
							"name": "",
							"type": "uint256"
						}
					],
					"stateMutability": "view",
					"type": "function"
				},
				{
					"inputs": [
						{
							"internalType": "address",
							"name": "spender",
							"type": "address"
						},
						{
							"internalType": "uint256",
							"name": "amount",
							"type": "uint256"
						}
					],
					"name": "approve",
					"outputs": [
						{
							"internalType": "bool",
							"name": "",
							"type": "bool"
						}
					],
					"stateMutability": "nonpayable",
					"type": "function"
				},
				{
					"inputs": [
						{
							"internalType": "address",
							"name": "account",
							"type": "address"
						}
					],
					"name": "balanceOf",
					"outputs": [
						{
							"internalType": "uint256",
							"name": "",
							"type": "uint256"
						}
					],
					"stateMutability": "view",
					"type": "function"
				},
				{
					"inputs": [
						{
							"internalType": "address",
							"name": "_address",
							"type": "address"
						},
						{
							"internalType": "bool",
							"name": "_isBlacklisting",
							"type": "bool"
						}
					],
					"name": "blacklist",
					"outputs": [],
					"stateMutability": "nonpayable",
					"type": "function"
				},
				{
					"inputs": [
						{
							"internalType": "address",
							"name": "",
							"type": "address"
						}
					],
					"name": "blacklists",
					"outputs": [
						{
							"internalType": "bool",
							"name": "",
							"type": "bool"
						}
					],
					"stateMutability": "view",
					"type": "function"
				},
				{
					"inputs": [
						{
							"internalType": "uint256",
							"name": "value",
							"type": "uint256"
						}
					],
					"name": "burn",
					"outputs": [],
					"stateMutability": "nonpayable",
					"type": "function"
				},
				{
					"inputs": [],
					"name": "decimals",
					"outputs": [
						{
							"internalType": "uint8",
							"name": "",
							"type": "uint8"
						}
					],
					"stateMutability": "view",
					"type": "function"
				},
				{
					"inputs": [
						{
							"internalType": "address",
							"name": "spender",
							"type": "address"
						},
						{
							"internalType": "uint256",
							"name": "subtractedValue",
							"type": "uint256"
						}
					],
					"name": "decreaseAllowance",
					"outputs": [
						{
							"internalType": "bool",
							"name": "",
							"type": "bool"
						}
					],
					"stateMutability": "nonpayable",
					"type": "function"
				},
				{
					"inputs": [
						{
							"internalType": "address",
							"name": "spender",
							"type": "address"
						},
						{
							"internalType": "uint256",
							"name": "addedValue",
							"type": "uint256"
						}
					],
					"name": "increaseAllowance",
					"outputs": [
						{
							"internalType": "bool",
							"name": "",
							"type": "bool"
						}
					],
					"stateMutability": "nonpayable",
					"type": "function"
				},
				{
					"inputs": [],
					"name": "limited",
					"outputs": [
						{
							"internalType": "bool",
							"name": "",
							"type": "bool"
						}
					],
					"stateMutability": "view",
					"type": "function"
				},
				{
					"inputs": [],
					"name": "maxHoldingAmount",
					"outputs": [
						{
							"internalType": "uint256",
							"name": "",
							"type": "uint256"
						}
					],
					"stateMutability": "view",
					"type": "function"
				},
				{
					"inputs": [],
					"name": "minHoldingAmount",
					"outputs": [
						{
							"internalType": "uint256",
							"name": "",
							"type": "uint256"
						}
					],
					"stateMutability": "view",
					"type": "function"
				},
				{
					"inputs": [],
					"name": "name",
					"outputs": [
						{
							"internalType": "string",
							"name": "",
							"type": "string"
						}
					],
					"stateMutability": "view",
					"type": "function"
				},
				{
					"inputs": [],
					"name": "owner",
					"outputs": [
						{
							"internalType": "address",
							"name": "",
							"type": "address"
						}
					],
					"stateMutability": "view",
					"type": "function"
				},
				{
					"inputs": [],
					"name": "renounceOwnership",
					"outputs": [],
					"stateMutability": "nonpayable",
					"type": "function"
				},
				{
					"inputs": [
						{
							"internalType": "bool",
							"name": "_limited",
							"type": "bool"
						},
						{
							"internalType": "address",
							"name": "_uniswapV2Pair",
							"type": "address"
						},
						{
							"internalType": "uint256",
							"name": "_maxHoldingAmount",
							"type": "uint256"
						},
						{
							"internalType": "uint256",
							"name": "_minHoldingAmount",
							"type": "uint256"
						}
					],
					"name": "setRule",
					"outputs": [],
					"stateMutability": "nonpayable",
					"type": "function"
				},
				{
					"inputs": [],
					"name": "symbol",
					"outputs": [
						{
							"internalType": "string",
							"name": "",
							"type": "string"
						}
					],
					"stateMutability": "view",
					"type": "function"
				},
				{
					"inputs": [],
					"name": "totalSupply",
					"outputs": [
						{
							"internalType": "uint256",
							"name": "",
							"type": "uint256"
						}
					],
					"stateMutability": "view",
					"type": "function"
				},
				{
					"inputs": [
						{
							"internalType": "address",
							"name": "recipient",
							"type": "address"
						},
						{
							"internalType": "uint256",
							"name": "amount",
							"type": "uint256"
						}
					],
					"name": "transfer",
					"outputs": [
						{
							"internalType": "bool",
							"name": "",
							"type": "bool"
						}
					],
					"stateMutability": "nonpayable",
					"type": "function"
				},
				{
					"inputs": [
						{
							"internalType": "address",
							"name": "sender",
							"type": "address"
						},
						{
							"internalType": "address",
							"name": "recipient",
							"type": "address"
						},
						{
							"internalType": "uint256",
							"name": "amount",
							"type": "uint256"
						}
					],
					"name": "transferFrom",
					"outputs": [
						{
							"internalType": "bool",
							"name": "",
							"type": "bool"
						}
					],
					"stateMutability": "nonpayable",
					"type": "function"
				},
				{
					"inputs": [
						{
							"internalType": "address",
							"name": "newOwner",
							"type": "address"
						}
					],
					"name": "transferOwnership",
					"outputs": [],
					"stateMutability": "nonpayable",
					"type": "function"
				},
				{
					"inputs": [],
					"name": "uniswapV2Pair",
					"outputs": [
						{
							"internalType": "address",
							"name": "",
							"type": "address"
						}
					],
					"stateMutability": "view",
					"type": "function"
				}
			],
			"devdoc": {
				"events": {
					"Approval(address,address,uint256)": {
						"details": "Emitted when the allowance of a `spender` for an `owner` is set by a call to {approve}. `value` is the new allowance."
					},
					"Transfer(address,address,uint256)": {
						"details": "Emitted when `value` tokens are moved from one account (`from`) to another (`to`). Note that `value` may be zero."
					}
				},
				"kind": "dev",
				"methods": {
					"allowance(address,address)": {
						"details": "See {IERC20-allowance}."
					},
					"approve(address,uint256)": {
						"details": "See {IERC20-approve}. Requirements: - `spender` cannot be the zero address."
					},
					"balanceOf(address)": {
						"details": "See {IERC20-balanceOf}."
					},
					"decimals()": {
						"details": "Returns the number of decimals used to get its user representation. For example, if `decimals` equals `2`, a balance of `505` tokens should be displayed to a user as `5.05` (`505 / 10 ** 2`). Tokens usually opt for a value of 18, imitating the relationship between Ether and Wei. This is the value {ERC20} uses, unless this function is overridden; NOTE: This information is only used for _display_ purposes: it in no way affects any of the arithmetic of the contract, including {IERC20-balanceOf} and {IERC20-transfer}."
					},
					"decreaseAllowance(address,uint256)": {
						"details": "Atomically decreases the allowance granted to `spender` by the caller. This is an alternative to {approve} that can be used as a mitigation for problems described in {IERC20-approve}. Emits an {Approval} event indicating the updated allowance. Requirements: - `spender` cannot be the zero address. - `spender` must have allowance for the caller of at least `subtractedValue`."
					},
					"increaseAllowance(address,uint256)": {
						"details": "Atomically increases the allowance granted to `spender` by the caller. This is an alternative to {approve} that can be used as a mitigation for problems described in {IERC20-approve}. Emits an {Approval} event indicating the updated allowance. Requirements: - `spender` cannot be the zero address."
					},
					"name()": {
						"details": "Returns the name of the token."
					},
					"owner()": {
						"details": "Returns the address of the current owner."
					},
					"renounceOwnership()": {
						"details": "Leaves the contract without owner. It will not be possible to call `onlyOwner` functions anymore. Can only be called by the current owner. NOTE: Renouncing ownership will leave the contract without an owner, thereby removing any functionality that is only available to the owner."
					},
					"symbol()": {
						"details": "Returns the symbol of the token, usually a shorter version of the name."
					},
					"totalSupply()": {
						"details": "See {IERC20-totalSupply}."
					},
					"transfer(address,uint256)": {
						"details": "See {IERC20-transfer}. Requirements: - `recipient` cannot be the zero address. - the caller must have a balance of at least `amount`."
					},
					"transferFrom(address,address,uint256)": {
						"details": "See {IERC20-transferFrom}. Emits an {Approval} event indicating the updated allowance. This is not required by the EIP. See the note at the beginning of {ERC20}. Requirements: - `sender` and `recipient` cannot be the zero address. - `sender` must have a balance of at least `amount`. - the caller must have allowance for ``sender``'s tokens of at least `amount`."
					},
					"transferOwnership(address)": {
						"details": "Transfers ownership of the contract to a new account (`newOwner`). Can only be called by the current owner."
					}
				},
				"version": 1
			},
			"evm": {
				"assembly": "    /* \"contracts/PEPEuni.sol\":19414:20871  contract PepeToken is Ownable, ERC20 {... */\n  mstore(0x40, 0x80)\n    /* \"contracts/PEPEuni.sol\":19646:19752  constructor(uint256 _totalSupply) ERC20(\"Pepe\", \"PEPE\") {... */\n  callvalue\n  dup1\n  iszero\n  tag_1\n  jumpi\n  0x00\n  dup1\n  revert\ntag_1:\n  pop\n  mload(0x40)\n  sub(codesize, bytecodeSize)\n  dup1\n  bytecodeSize\n  dup4\n  codecopy\n  dup2\n  dup2\n  add\n  0x40\n  mstore\n  dup2\n  add\n  swap1\n  tag_2\n  swap2\n  swap1\n  tag_3\n  jump\t// in\ntag_2:\n    /* \"contracts/PEPEuni.sol\":9197:9313  constructor(string memory name_, string memory symbol_) {... */\n  mload(0x40)\n  dup1\n  0x40\n  add\n  0x40\n  mstore\n  dup1\n  0x04\n  dup2\n  mstore\n  0x20\n  add\n  0x5065706500000000000000000000000000000000000000000000000000000000\n  dup2\n  mstore\n  pop\n  mload(0x40)\n  dup1\n  0x40\n  add\n  0x40\n  mstore\n  dup1\n  0x04\n  dup2\n  mstore\n  0x20\n  add\n  0x5045504500000000000000000000000000000000000000000000000000000000\n  dup2\n  mstore\n  pop\n    /* \"contracts/PEPEuni.sol\":2012:2044  _transferOwnership(_msgSender()) */\n  tag_8\n    /* \"contracts/PEPEuni.sol\":2031:2043  _msgSender() */\n  tag_9\n    /* \"contracts/PEPEuni.sol\":2031:2041  _msgSender */\n  shl(0x20, tag_10)\n    /* \"contracts/PEPEuni.sol\":2031:2043  _msgSender() */\n  0x20\n  shr\n  jump\t// in\ntag_9:\n    /* \"contracts/PEPEuni.sol\":2012:2030  _transferOwnership */\n  shl(0x20, tag_11)\n    /* \"contracts/PEPEuni.sol\":2012:2044  _transferOwnership(_msgSender()) */\n  0x20\n  shr\n  jump\t// in\ntag_8:\n    /* \"contracts/PEPEuni.sol\":9272:9277  name_ */\n  dup2\n    /* \"contracts/PEPEuni.sol\":9264:9269  _name */\n  0x04\n    /* \"contracts/PEPEuni.sol\":9264:9277  _name = name_ */\n  swap1\n  dup2\n  tag_13\n  swap2\n  swap1\n  tag_14\n  jump\t// in\ntag_13:\n  pop\n    /* \"contracts/PEPEuni.sol\":9298:9305  symbol_ */\n  dup1\n    /* \"contracts/PEPEuni.sol\":9288:9295  _symbol */\n  0x05\n    /* \"contracts/PEPEuni.sol\":9288:9305  _symbol = symbol_ */\n  swap1\n  dup2\n  tag_15\n  swap2\n  swap1\n  tag_14\n  jump\t// in\ntag_15:\n  pop\n    /* \"contracts/PEPEuni.sol\":9197:9313  constructor(string memory name_, string memory symbol_) {... */\n  pop\n  pop\n    /* \"contracts/PEPEuni.sol\":19713:19744  _mint(msg.sender, _totalSupply) */\n  tag_17\n    /* \"contracts/PEPEuni.sol\":19719:19729  msg.sender */\n  caller\n    /* \"contracts/PEPEuni.sol\":19731:19743  _totalSupply */\n  dup3\n    /* \"contracts/PEPEuni.sol\":19713:19718  _mint */\n  shl(0x20, tag_18)\n    /* \"contracts/PEPEuni.sol\":19713:19744  _mint(msg.sender, _totalSupply) */\n  0x20\n  shr\n  jump\t// in\ntag_17:\n    /* \"contracts/PEPEuni.sol\":19646:19752  constructor(uint256 _totalSupply) ERC20(\"Pepe\", \"PEPE\") {... */\n  pop\n    /* \"contracts/PEPEuni.sol\":19414:20871  contract PepeToken is Ownable, ERC20 {... */\n  jump(tag_19)\n    /* \"contracts/PEPEuni.sol\":851:949  function _msgSender() internal view virtual returns (address) {... */\ntag_10:\n    /* \"contracts/PEPEuni.sol\":904:911  address */\n  0x00\n    /* \"contracts/PEPEuni.sol\":931:941  msg.sender */\n  caller\n    /* \"contracts/PEPEuni.sol\":924:941  return msg.sender */\n  swap1\n  pop\n    /* \"contracts/PEPEuni.sol\":851:949  function _msgSender() internal view virtual returns (address) {... */\n  swap1\n  jump\t// out\n    /* \"contracts/PEPEuni.sol\":3403:3594  function _transferOwnership(address newOwner) internal virtual {... */\ntag_11:\n    /* \"contracts/PEPEuni.sol\":3477:3493  address oldOwner */\n  0x00\n    /* \"contracts/PEPEuni.sol\":3496:3502  _owner */\n  dup1\n  0x00\n  swap1\n  sload\n  swap1\n  0x0100\n  exp\n  swap1\n  div\n  0xffffffffffffffffffffffffffffffffffffffff\n  and\n    /* \"contracts/PEPEuni.sol\":3477:3502  address oldOwner = _owner */\n  swap1\n  pop\n    /* \"contracts/PEPEuni.sol\":3522:3530  newOwner */\n  dup2\n    /* \"contracts/PEPEuni.sol\":3513:3519  _owner */\n  0x00\n  dup1\n    /* \"contracts/PEPEuni.sol\":3513:3530  _owner = newOwner */\n  0x0100\n  exp\n  dup2\n  sload\n  dup2\n  0xffffffffffffffffffffffffffffffffffffffff\n  mul\n  not\n  and\n  swap1\n  dup4\n  0xffffffffffffffffffffffffffffffffffffffff\n  and\n  mul\n  or\n  swap1\n  sstore\n  pop\n    /* \"contracts/PEPEuni.sol\":3577:3585  newOwner */\n  dup2\n    /* \"contracts/PEPEuni.sol\":3546:3586  OwnershipTransferred(oldOwner, newOwner) */\n  0xffffffffffffffffffffffffffffffffffffffff\n  and\n    /* \"contracts/PEPEuni.sol\":3567:3575  oldOwner */\n  dup2\n    /* \"contracts/PEPEuni.sol\":3546:3586  OwnershipTransferred(oldOwner, newOwner) */\n  0xffffffffffffffffffffffffffffffffffffffff\n  and\n  0x8be0079c531659141344cd1fd0a4f28419497f9722a3daafe3b4186f6b6457e0\n  mload(0x40)\n  mload(0x40)\n  dup1\n  swap2\n  sub\n  swap1\n  log3\n    /* \"contracts/PEPEuni.sol\":3466:3594  {... */\n  pop\n    /* \"contracts/PEPEuni.sol\":3403:3594  function _transferOwnership(address newOwner) internal virtual {... */\n  pop\n  jump\t// out\n    /* \"contracts/PEPEuni.sol\":15743:16142  function _mint(address account, uint256 amount) internal virtual {... */\ntag_18:\n    /* \"contracts/PEPEuni.sol\":15846:15847  0 */\n  0x00\n    /* \"contracts/PEPEuni.sol\":15827:15848  account != address(0) */\n  0xffffffffffffffffffffffffffffffffffffffff\n  and\n    /* \"contracts/PEPEuni.sol\":15827:15834  account */\n  dup3\n    /* \"contracts/PEPEuni.sol\":15827:15848  account != address(0) */\n  0xffffffffffffffffffffffffffffffffffffffff\n  and\n  sub\n    /* \"contracts/PEPEuni.sol\":15819:15884  require(account != address(0), \"ERC20: mint to the zero address\") */\n  tag_23\n  jumpi\n  mload(0x40)\n  0x08c379a000000000000000000000000000000000000000000000000000000000\n  dup2\n  mstore\n  0x04\n  add\n  tag_24\n  swap1\n  tag_25\n  jump\t// in\ntag_24:\n  mload(0x40)\n  dup1\n  swap2\n  sub\n  swap1\n  revert\ntag_23:\n    /* \"contracts/PEPEuni.sol\":15897:15946  _beforeTokenTransfer(address(0), account, amount) */\n  tag_26\n    /* \"contracts/PEPEuni.sol\":15926:15927  0 */\n  0x00\n    /* \"contracts/PEPEuni.sol\":15930:15937  account */\n  dup4\n    /* \"contracts/PEPEuni.sol\":15939:15945  amount */\n  dup4\n    /* \"contracts/PEPEuni.sol\":15897:15917  _beforeTokenTransfer */\n  shl(0x20, tag_27)\n    /* \"contracts/PEPEuni.sol\":15897:15946  _beforeTokenTransfer(address(0), account, amount) */\n  0x20\n  shr\n  jump\t// in\ntag_26:\n    /* \"contracts/PEPEuni.sol\":15975:15981  amount */\n  dup1\n    /* \"contracts/PEPEuni.sol\":15959:15971  _totalSupply */\n  0x03\n  0x00\n    /* \"contracts/PEPEuni.sol\":15959:15981  _totalSupply += amount */\n  dup3\n  dup3\n  sload\n  tag_28\n  swap2\n  swap1\n  tag_29\n  jump\t// in\ntag_28:\n  swap3\n  pop\n  pop\n  dup2\n  swap1\n  sstore\n  pop\n    /* \"contracts/PEPEuni.sol\":16014:16020  amount */\n  dup1\n    /* \"contracts/PEPEuni.sol\":15992:16001  _balances */\n  0x01\n    /* \"contracts/PEPEuni.sol\":15992:16010  _balances[account] */\n  0x00\n    /* \"contracts/PEPEuni.sol\":16002:16009  account */\n  dup5\n    /* \"contracts/PEPEuni.sol\":15992:16010  _balances[account] */\n  0xffffffffffffffffffffffffffffffffffffffff\n  and\n  0xffffffffffffffffffffffffffffffffffffffff\n  and\n  dup2\n  mstore\n  0x20\n  add\n  swap1\n  dup2\n  mstore\n  0x20\n  add\n  0x00\n  keccak256\n  0x00\n    /* \"contracts/PEPEuni.sol\":15992:16020  _balances[account] += amount */\n  dup3\n  dup3\n  sload\n  tag_30\n  swap2\n  swap1\n  tag_29\n  jump\t// in\ntag_30:\n  swap3\n  pop\n  pop\n  dup2\n  swap1\n  sstore\n  pop\n    /* \"contracts/PEPEuni.sol\":16057:16064  account */\n  dup2\n    /* \"contracts/PEPEuni.sol\":16036:16073  Transfer(address(0), account, amount) */\n  0xffffffffffffffffffffffffffffffffffffffff\n  and\n    /* \"contracts/PEPEuni.sol\":16053:16054  0 */\n  0x00\n    /* \"contracts/PEPEuni.sol\":16036:16073  Transfer(address(0), account, amount) */\n  0xffffffffffffffffffffffffffffffffffffffff\n  and\n  0xddf252ad1be2c89b69c2b068fc378daa952ba7f163c4a11628f55a4df523b3ef\n    /* \"contracts/PEPEuni.sol\":16066:16072  amount */\n  dup4\n    /* \"contracts/PEPEuni.sol\":16036:16073  Transfer(address(0), account, amount) */\n  mload(0x40)\n  tag_31\n  swap2\n  swap1\n  tag_32\n  jump\t// in\ntag_31:\n  mload(0x40)\n  dup1\n  swap2\n  sub\n  swap1\n  log3\n    /* \"contracts/PEPEuni.sol\":16086:16134  _afterTokenTransfer(address(0), account, amount) */\n  tag_33\n    /* \"contracts/PEPEuni.sol\":16114:16115  0 */\n  0x00\n    /* \"contracts/PEPEuni.sol\":16118:16125  account */\n  dup4\n    /* \"contracts/PEPEuni.sol\":16127:16133  amount */\n  dup4\n    /* \"contracts/PEPEuni.sol\":16086:16105  _afterTokenTransfer */\n  shl(0x20, tag_34)\n    /* \"contracts/PEPEuni.sol\":16086:16134  _afterTokenTransfer(address(0), account, amount) */\n  0x20\n  shr\n  jump\t// in\ntag_33:\n    /* \"contracts/PEPEuni.sol\":15743:16142  function _mint(address account, uint256 amount) internal virtual {... */\n  pop\n  pop\n  jump\t// out\n    /* \"contracts/PEPEuni.sol\":20212:20779  function _beforeTokenTransfer(... */\ntag_27:\n    /* \"contracts/PEPEuni.sol\":20364:20374  blacklists */\n  0x0a\n    /* \"contracts/PEPEuni.sol\":20364:20378  blacklists[to] */\n  0x00\n    /* \"contracts/PEPEuni.sol\":20375:20377  to */\n  dup4\n    /* \"contracts/PEPEuni.sol\":20364:20378  blacklists[to] */\n  0xffffffffffffffffffffffffffffffffffffffff\n  and\n  0xffffffffffffffffffffffffffffffffffffffff\n  and\n  dup2\n  mstore\n  0x20\n  add\n  swap1\n  dup2\n  mstore\n  0x20\n  add\n  0x00\n  keccak256\n  0x00\n  swap1\n  sload\n  swap1\n  0x0100\n  exp\n  swap1\n  div\n  0xff\n  and\n    /* \"contracts/PEPEuni.sol\":20363:20378  !blacklists[to] */\n  iszero\n    /* \"contracts/PEPEuni.sol\":20363:20399  !blacklists[to] && !blacklists[from] */\n  dup1\n  iszero\n  tag_36\n  jumpi\n  pop\n    /* \"contracts/PEPEuni.sol\":20383:20393  blacklists */\n  0x0a\n    /* \"contracts/PEPEuni.sol\":20383:20399  blacklists[from] */\n  0x00\n    /* \"contracts/PEPEuni.sol\":20394:20398  from */\n  dup5\n    /* \"contracts/PEPEuni.sol\":20383:20399  blacklists[from] */\n  0xffffffffffffffffffffffffffffffffffffffff\n  and\n  0xffffffffffffffffffffffffffffffffffffffff\n  and\n  dup2\n  mstore\n  0x20\n  add\n  swap1\n  dup2\n  mstore\n  0x20\n  add\n  0x00\n  keccak256\n  0x00\n  swap1\n  sload\n  swap1\n  0x0100\n  exp\n  swap1\n  div\n  0xff\n  and\n    /* \"contracts/PEPEuni.sol\":20382:20399  !blacklists[from] */\n  iszero\n    /* \"contracts/PEPEuni.sol\":20363:20399  !blacklists[to] && !blacklists[from] */\ntag_36:\n    /* \"contracts/PEPEuni.sol\":20355:20415  require(!blacklists[to] && !blacklists[from], \"Blacklisted\") */\n  tag_37\n  jumpi\n  mload(0x40)\n  0x08c379a000000000000000000000000000000000000000000000000000000000\n  dup2\n  mstore\n  0x04\n  add\n  tag_38\n  swap1\n  tag_39\n  jump\t// in\ntag_38:\n  mload(0x40)\n  dup1\n  swap2\n  sub\n  swap1\n  revert\ntag_37:\n    /* \"contracts/PEPEuni.sol\":20457:20458  0 */\n  0x00\n    /* \"contracts/PEPEuni.sol\":20432:20459  uniswapV2Pair == address(0) */\n  0xffffffffffffffffffffffffffffffffffffffff\n  and\n    /* \"contracts/PEPEuni.sol\":20432:20445  uniswapV2Pair */\n  0x09\n  0x00\n  swap1\n  sload\n  swap1\n  0x0100\n  exp\n  swap1\n  div\n  0xffffffffffffffffffffffffffffffffffffffff\n  and\n    /* \"contracts/PEPEuni.sol\":20432:20459  uniswapV2Pair == address(0) */\n  0xffffffffffffffffffffffffffffffffffffffff\n  and\n  sub\n    /* \"contracts/PEPEuni.sol\":20428:20576  if (uniswapV2Pair == address(0)) {... */\n  tag_40\n  jumpi\n    /* \"contracts/PEPEuni.sol\":20492:20499  owner() */\n  tag_41\n    /* \"contracts/PEPEuni.sol\":20492:20497  owner */\n  shl(0x20, tag_42)\n    /* \"contracts/PEPEuni.sol\":20492:20499  owner() */\n  0x20\n  shr\n  jump\t// in\ntag_41:\n    /* \"contracts/PEPEuni.sol\":20484:20499  from == owner() */\n  0xffffffffffffffffffffffffffffffffffffffff\n  and\n    /* \"contracts/PEPEuni.sol\":20484:20488  from */\n  dup4\n    /* \"contracts/PEPEuni.sol\":20484:20499  from == owner() */\n  0xffffffffffffffffffffffffffffffffffffffff\n  and\n  eq\n    /* \"contracts/PEPEuni.sol\":20484:20516  from == owner() || to == owner() */\n  dup1\n  tag_43\n  jumpi\n  pop\n    /* \"contracts/PEPEuni.sol\":20509:20516  owner() */\n  tag_44\n    /* \"contracts/PEPEuni.sol\":20509:20514  owner */\n  shl(0x20, tag_42)\n    /* \"contracts/PEPEuni.sol\":20509:20516  owner() */\n  0x20\n  shr\n  jump\t// in\ntag_44:\n    /* \"contracts/PEPEuni.sol\":20503:20516  to == owner() */\n  0xffffffffffffffffffffffffffffffffffffffff\n  and\n    /* \"contracts/PEPEuni.sol\":20503:20505  to */\n  dup3\n    /* \"contracts/PEPEuni.sol\":20503:20516  to == owner() */\n  0xffffffffffffffffffffffffffffffffffffffff\n  and\n  eq\n    /* \"contracts/PEPEuni.sol\":20484:20516  from == owner() || to == owner() */\ntag_43:\n    /* \"contracts/PEPEuni.sol\":20476:20543  require(from == owner() || to == owner(), \"trading is not started\") */\n  tag_45\n  jumpi\n  mload(0x40)\n  0x08c379a000000000000000000000000000000000000000000000000000000000\n  dup2\n  mstore\n  0x04\n  add\n  tag_46\n  swap1\n  tag_47\n  jump\t// in\ntag_46:\n  mload(0x40)\n  dup1\n  swap2\n  sub\n  swap1\n  revert\ntag_45:\n    /* \"contracts/PEPEuni.sol\":20558:20565  return; */\n  jump(tag_35)\n    /* \"contracts/PEPEuni.sol\":20428:20576  if (uniswapV2Pair == address(0)) {... */\ntag_40:\n    /* \"contracts/PEPEuni.sol\":20592:20599  limited */\n  0x06\n  0x00\n  swap1\n  sload\n  swap1\n  0x0100\n  exp\n  swap1\n  div\n  0xff\n  and\n    /* \"contracts/PEPEuni.sol\":20592:20624  limited && from == uniswapV2Pair */\n  dup1\n  iszero\n  tag_48\n  jumpi\n  pop\n    /* \"contracts/PEPEuni.sol\":20611:20624  uniswapV2Pair */\n  0x09\n  0x00\n  swap1\n  sload\n  swap1\n  0x0100\n  exp\n  swap1\n  div\n  0xffffffffffffffffffffffffffffffffffffffff\n  and\n    /* \"contracts/PEPEuni.sol\":20603:20624  from == uniswapV2Pair */\n  0xffffffffffffffffffffffffffffffffffffffff\n  and\n    /* \"contracts/PEPEuni.sol\":20603:20607  from */\n  dup4\n    /* \"contracts/PEPEuni.sol\":20603:20624  from == uniswapV2Pair */\n  0xffffffffffffffffffffffffffffffffffffffff\n  and\n  eq\n    /* \"contracts/PEPEuni.sol\":20592:20624  limited && from == uniswapV2Pair */\ntag_48:\n    /* \"contracts/PEPEuni.sol\":20588:20772  if (limited && from == uniswapV2Pair) {... */\n  iszero\n  tag_49\n  jumpi\n    /* \"contracts/PEPEuni.sol\":20681:20697  maxHoldingAmount */\n  sload(0x07)\n    /* \"contracts/PEPEuni.sol\":20671:20677  amount */\n  dup2\n    /* \"contracts/PEPEuni.sol\":20649:20668  super.balanceOf(to) */\n  tag_50\n    /* \"contracts/PEPEuni.sol\":20665:20667  to */\n  dup5\n    /* \"contracts/PEPEuni.sol\":20649:20664  super.balanceOf */\n  shl(0x20, tag_51)\n    /* \"contracts/PEPEuni.sol\":20649:20668  super.balanceOf(to) */\n  0x20\n  shr\n  jump\t// in\ntag_50:\n    /* \"contracts/PEPEuni.sol\":20649:20677  super.balanceOf(to) + amount */\n  tag_52\n  swap2\n  swap1\n  tag_29\n  jump\t// in\ntag_52:\n    /* \"contracts/PEPEuni.sol\":20649:20697  super.balanceOf(to) + amount <= maxHoldingAmount */\n  gt\n  iszero\n    /* \"contracts/PEPEuni.sol\":20649:20749  super.balanceOf(to) + amount <= maxHoldingAmount && super.balanceOf(to) + amount >= minHoldingAmount */\n  dup1\n  iszero\n  tag_53\n  jumpi\n  pop\n    /* \"contracts/PEPEuni.sol\":20733:20749  minHoldingAmount */\n  sload(0x08)\n    /* \"contracts/PEPEuni.sol\":20723:20729  amount */\n  dup2\n    /* \"contracts/PEPEuni.sol\":20701:20720  super.balanceOf(to) */\n  tag_54\n    /* \"contracts/PEPEuni.sol\":20717:20719  to */\n  dup5\n    /* \"contracts/PEPEuni.sol\":20701:20716  super.balanceOf */\n  shl(0x20, tag_51)\n    /* \"contracts/PEPEuni.sol\":20701:20720  super.balanceOf(to) */\n  0x20\n  shr\n  jump\t// in\ntag_54:\n    /* \"contracts/PEPEuni.sol\":20701:20729  super.balanceOf(to) + amount */\n  tag_55\n  swap2\n  swap1\n  tag_29\n  jump\t// in\ntag_55:\n    /* \"contracts/PEPEuni.sol\":20701:20749  super.balanceOf(to) + amount >= minHoldingAmount */\n  lt\n  iszero\n    /* \"contracts/PEPEuni.sol\":20649:20749  super.balanceOf(to) + amount <= maxHoldingAmount && super.balanceOf(to) + amount >= minHoldingAmount */\ntag_53:\n    /* \"contracts/PEPEuni.sol\":20641:20760  require(super.balanceOf(to) + amount <= maxHoldingAmount && super.balanceOf(to) + amount >= minHoldingAmount, \"Forbid\") */\n  tag_56\n  jumpi\n  mload(0x40)\n  0x08c379a000000000000000000000000000000000000000000000000000000000\n  dup2\n  mstore\n  0x04\n  add\n  tag_57\n  swap1\n  tag_58\n  jump\t// in\ntag_57:\n  mload(0x40)\n  dup1\n  swap2\n  sub\n  swap1\n  revert\ntag_56:\n    /* \"contracts/PEPEuni.sol\":20588:20772  if (limited && from == uniswapV2Pair) {... */\ntag_49:\n    /* \"contracts/PEPEuni.sol\":20212:20779  function _beforeTokenTransfer(... */\ntag_35:\n  pop\n  pop\n  pop\n  jump\t// out\n    /* \"contracts/PEPEuni.sol\":19213:19337  function _afterTokenTransfer(... */\ntag_34:\n  pop\n  pop\n  pop\n  jump\t// out\n    /* \"contracts/PEPEuni.sol\":2133:2220  function owner() public view virtual returns (address) {... */\ntag_42:\n    /* \"contracts/PEPEuni.sol\":2179:2186  address */\n  0x00\n    /* \"contracts/PEPEuni.sol\":2206:2212  _owner */\n  dup1\n  0x00\n  swap1\n  sload\n  swap1\n  0x0100\n  exp\n  swap1\n  div\n  0xffffffffffffffffffffffffffffffffffffffff\n  and\n    /* \"contracts/PEPEuni.sol\":2199:2212  return _owner */\n  swap1\n  pop\n    /* \"contracts/PEPEuni.sol\":2133:2220  function owner() public view virtual returns (address) {... */\n  swap1\n  jump\t// out\n    /* \"contracts/PEPEuni.sol\":10674:10801  function balanceOf(address account) public view virtual override returns (uint256) {... */\ntag_51:\n    /* \"contracts/PEPEuni.sol\":10748:10755  uint256 */\n  0x00\n    /* \"contracts/PEPEuni.sol\":10775:10784  _balances */\n  0x01\n    /* \"contracts/PEPEuni.sol\":10775:10793  _balances[account] */\n  0x00\n    /* \"contracts/PEPEuni.sol\":10785:10792  account */\n  dup4\n    /* \"contracts/PEPEuni.sol\":10775:10793  _balances[account] */\n  0xffffffffffffffffffffffffffffffffffffffff\n  and\n  0xffffffffffffffffffffffffffffffffffffffff\n  and\n  dup2\n  mstore\n  0x20\n  add\n  swap1\n  dup2\n  mstore\n  0x20\n  add\n  0x00\n  keccak256\n  sload\n    /* \"contracts/PEPEuni.sol\":10768:10793  return _balances[account] */\n  swap1\n  pop\n    /* \"contracts/PEPEuni.sol\":10674:10801  function balanceOf(address account) public view virtual override returns (uint256) {... */\n  swap2\n  swap1\n  pop\n  jump\t// out\n    /* \"#utility.yul\":88:205   */\ntag_63:\n    /* \"#utility.yul\":197:198   */\n  0x00\n    /* \"#utility.yul\":194:195   */\n  dup1\n    /* \"#utility.yul\":187:199   */\n  revert\n    /* \"#utility.yul\":334:411   */\ntag_65:\n    /* \"#utility.yul\":371:378   */\n  0x00\n    /* \"#utility.yul\":400:405   */\n  dup2\n    /* \"#utility.yul\":389:405   */\n  swap1\n  pop\n    /* \"#utility.yul\":334:411   */\n  swap2\n  swap1\n  pop\n  jump\t// out\n    /* \"#utility.yul\":417:539   */\ntag_66:\n    /* \"#utility.yul\":490:514   */\n  tag_104\n    /* \"#utility.yul\":508:513   */\n  dup2\n    /* \"#utility.yul\":490:514   */\n  tag_65\n  jump\t// in\ntag_104:\n    /* \"#utility.yul\":483:488   */\n  dup2\n    /* \"#utility.yul\":480:515   */\n  eq\n    /* \"#utility.yul\":470:533   */\n  tag_105\n  jumpi\n    /* \"#utility.yul\":529:530   */\n  0x00\n    /* \"#utility.yul\":526:527   */\n  dup1\n    /* \"#utility.yul\":519:531   */\n  revert\n    /* \"#utility.yul\":470:533   */\ntag_105:\n    /* \"#utility.yul\":417:539   */\n  pop\n  jump\t// out\n    /* \"#utility.yul\":545:688   */\ntag_67:\n    /* \"#utility.yul\":602:607   */\n  0x00\n    /* \"#utility.yul\":633:639   */\n  dup2\n    /* \"#utility.yul\":627:640   */\n  mload\n    /* \"#utility.yul\":618:640   */\n  swap1\n  pop\n    /* \"#utility.yul\":649:682   */\n  tag_107\n    /* \"#utility.yul\":676:681   */\n  dup2\n    /* \"#utility.yul\":649:682   */\n  tag_66\n  jump\t// in\ntag_107:\n    /* \"#utility.yul\":545:688   */\n  swap3\n  swap2\n  pop\n  pop\n  jump\t// out\n    /* \"#utility.yul\":694:1045   */\ntag_3:\n    /* \"#utility.yul\":764:770   */\n  0x00\n    /* \"#utility.yul\":813:815   */\n  0x20\n    /* \"#utility.yul\":801:810   */\n  dup3\n    /* \"#utility.yul\":792:799   */\n  dup5\n    /* \"#utility.yul\":788:811   */\n  sub\n    /* \"#utility.yul\":784:816   */\n  slt\n    /* \"#utility.yul\":781:900   */\n  iszero\n  tag_109\n  jumpi\n    /* \"#utility.yul\":819:898   */\n  tag_110\n  tag_63\n  jump\t// in\ntag_110:\n    /* \"#utility.yul\":781:900   */\ntag_109:\n    /* \"#utility.yul\":939:940   */\n  0x00\n    /* \"#utility.yul\":964:1028   */\n  tag_111\n    /* \"#utility.yul\":1020:1027   */\n  dup5\n    /* \"#utility.yul\":1011:1017   */\n  dup3\n    /* \"#utility.yul\":1000:1009   */\n  dup6\n    /* \"#utility.yul\":996:1018   */\n  add\n    /* \"#utility.yul\":964:1028   */\n  tag_67\n  jump\t// in\ntag_111:\n    /* \"#utility.yul\":954:1028   */\n  swap2\n  pop\n    /* \"#utility.yul\":910:1038   */\n  pop\n    /* \"#utility.yul\":694:1045   */\n  swap3\n  swap2\n  pop\n  pop\n  jump\t// out\n    /* \"#utility.yul\":1051:1150   */\ntag_68:\n    /* \"#utility.yul\":1103:1109   */\n  0x00\n    /* \"#utility.yul\":1137:1142   */\n  dup2\n    /* \"#utility.yul\":1131:1143   */\n  mload\n    /* \"#utility.yul\":1121:1143   */\n  swap1\n  pop\n    /* \"#utility.yul\":1051:1150   */\n  swap2\n  swap1\n  pop\n  jump\t// out\n    /* \"#utility.yul\":1156:1336   */\ntag_69:\n    /* \"#utility.yul\":1204:1281   */\n  0x4e487b7100000000000000000000000000000000000000000000000000000000\n    /* \"#utility.yul\":1201:1202   */\n  0x00\n    /* \"#utility.yul\":1194:1282   */\n  mstore\n    /* \"#utility.yul\":1301:1305   */\n  0x41\n    /* \"#utility.yul\":1298:1299   */\n  0x04\n    /* \"#utility.yul\":1291:1306   */\n  mstore\n    /* \"#utility.yul\":1325:1329   */\n  0x24\n    /* \"#utility.yul\":1322:1323   */\n  0x00\n    /* \"#utility.yul\":1315:1330   */\n  revert\n    /* \"#utility.yul\":1342:1522   */\ntag_70:\n    /* \"#utility.yul\":1390:1467   */\n  0x4e487b7100000000000000000000000000000000000000000000000000000000\n    /* \"#utility.yul\":1387:1388   */\n  0x00\n    /* \"#utility.yul\":1380:1468   */\n  mstore\n    /* \"#utility.yul\":1487:1491   */\n  0x22\n    /* \"#utility.yul\":1484:1485   */\n  0x04\n    /* \"#utility.yul\":1477:1492   */\n  mstore\n    /* \"#utility.yul\":1511:1515   */\n  0x24\n    /* \"#utility.yul\":1508:1509   */\n  0x00\n    /* \"#utility.yul\":1501:1516   */\n  revert\n    /* \"#utility.yul\":1528:1848   */\ntag_71:\n    /* \"#utility.yul\":1572:1578   */\n  0x00\n    /* \"#utility.yul\":1609:1610   */\n  0x02\n    /* \"#utility.yul\":1603:1607   */\n  dup3\n    /* \"#utility.yul\":1599:1611   */\n  div\n    /* \"#utility.yul\":1589:1611   */\n  swap1\n  pop\n    /* \"#utility.yul\":1656:1657   */\n  0x01\n    /* \"#utility.yul\":1650:1654   */\n  dup3\n    /* \"#utility.yul\":1646:1658   */\n  and\n    /* \"#utility.yul\":1677:1695   */\n  dup1\n    /* \"#utility.yul\":1667:1748   */\n  tag_116\n  jumpi\n    /* \"#utility.yul\":1733:1737   */\n  0x7f\n    /* \"#utility.yul\":1725:1731   */\n  dup3\n    /* \"#utility.yul\":1721:1738   */\n  and\n    /* \"#utility.yul\":1711:1738   */\n  swap2\n  pop\n    /* \"#utility.yul\":1667:1748   */\ntag_116:\n    /* \"#utility.yul\":1795:1797   */\n  0x20\n    /* \"#utility.yul\":1787:1793   */\n  dup3\n    /* \"#utility.yul\":1784:1798   */\n  lt\n    /* \"#utility.yul\":1764:1782   */\n  dup2\n    /* \"#utility.yul\":1761:1799   */\n  sub\n    /* \"#utility.yul\":1758:1842   */\n  tag_117\n  jumpi\n    /* \"#utility.yul\":1814:1832   */\n  tag_118\n  tag_70\n  jump\t// in\ntag_118:\n    /* \"#utility.yul\":1758:1842   */\ntag_117:\n    /* \"#utility.yul\":1579:1848   */\n  pop\n    /* \"#utility.yul\":1528:1848   */\n  swap2\n  swap1\n  pop\n  jump\t// out\n    /* \"#utility.yul\":1854:1995   */\ntag_72:\n    /* \"#utility.yul\":1903:1907   */\n  0x00\n    /* \"#utility.yul\":1926:1929   */\n  dup2\n    /* \"#utility.yul\":1918:1929   */\n  swap1\n  pop\n    /* \"#utility.yul\":1949:1952   */\n  dup2\n    /* \"#utility.yul\":1946:1947   */\n  0x00\n    /* \"#utility.yul\":1939:1953   */\n  mstore\n    /* \"#utility.yul\":1983:1987   */\n  0x20\n    /* \"#utility.yul\":1980:1981   */\n  0x00\n    /* \"#utility.yul\":1970:1988   */\n  keccak256\n    /* \"#utility.yul\":1962:1988   */\n  swap1\n  pop\n    /* \"#utility.yul\":1854:1995   */\n  swap2\n  swap1\n  pop\n  jump\t// out\n    /* \"#utility.yul\":2001:2094   */\ntag_73:\n    /* \"#utility.yul\":2038:2044   */\n  0x00\n    /* \"#utility.yul\":2085:2087   */\n  0x20\n    /* \"#utility.yul\":2080:2082   */\n  0x1f\n    /* \"#utility.yul\":2073:2078   */\n  dup4\n    /* \"#utility.yul\":2069:2083   */\n  add\n    /* \"#utility.yul\":2065:2088   */\n  div\n    /* \"#utility.yul\":2055:2088   */\n  swap1\n  pop\n    /* \"#utility.yul\":2001:2094   */\n  swap2\n  swap1\n  pop\n  jump\t// out\n    /* \"#utility.yul\":2100:2207   */\ntag_74:\n    /* \"#utility.yul\":2144:2152   */\n  0x00\n    /* \"#utility.yul\":2194:2199   */\n  dup3\n    /* \"#utility.yul\":2188:2192   */\n  dup3\n    /* \"#utility.yul\":2184:2200   */\n  shl\n    /* \"#utility.yul\":2163:2200   */\n  swap1\n  pop\n    /* \"#utility.yul\":2100:2207   */\n  swap3\n  swap2\n  pop\n  pop\n  jump\t// out\n    /* \"#utility.yul\":2213:2606   */\ntag_75:\n    /* \"#utility.yul\":2282:2288   */\n  0x00\n    /* \"#utility.yul\":2332:2333   */\n  0x08\n    /* \"#utility.yul\":2320:2330   */\n  dup4\n    /* \"#utility.yul\":2316:2334   */\n  mul\n    /* \"#utility.yul\":2355:2452   */\n  tag_123\n    /* \"#utility.yul\":2385:2451   */\n  0xffffffffffffffffffffffffffffffffffffffffffffffffffffffffffffffff\n    /* \"#utility.yul\":2374:2383   */\n  dup3\n    /* \"#utility.yul\":2355:2452   */\n  tag_74\n  jump\t// in\ntag_123:\n    /* \"#utility.yul\":2473:2512   */\n  tag_124\n    /* \"#utility.yul\":2503:2511   */\n  dup7\n    /* \"#utility.yul\":2492:2501   */\n  dup4\n    /* \"#utility.yul\":2473:2512   */\n  tag_74\n  jump\t// in\ntag_124:\n    /* \"#utility.yul\":2461:2512   */\n  swap6\n  pop\n    /* \"#utility.yul\":2545:2549   */\n  dup1\n    /* \"#utility.yul\":2541:2550   */\n  not\n    /* \"#utility.yul\":2534:2539   */\n  dup5\n    /* \"#utility.yul\":2530:2551   */\n  and\n    /* \"#utility.yul\":2521:2551   */\n  swap4\n  pop\n    /* \"#utility.yul\":2594:2598   */\n  dup1\n    /* \"#utility.yul\":2584:2592   */\n  dup7\n    /* \"#utility.yul\":2580:2599   */\n  and\n    /* \"#utility.yul\":2573:2578   */\n  dup5\n    /* \"#utility.yul\":2570:2600   */\n  or\n    /* \"#utility.yul\":2560:2600   */\n  swap3\n  pop\n    /* \"#utility.yul\":2289:2606   */\n  pop\n  pop\n    /* \"#utility.yul\":2213:2606   */\n  swap4\n  swap3\n  pop\n  pop\n  pop\n  jump\t// out\n    /* \"#utility.yul\":2612:2672   */\ntag_76:\n    /* \"#utility.yul\":2640:2643   */\n  0x00\n    /* \"#utility.yul\":2661:2666   */\n  dup2\n    /* \"#utility.yul\":2654:2666   */\n  swap1\n  pop\n    /* \"#utility.yul\":2612:2672   */\n  swap2\n  swap1\n  pop\n  jump\t// out\n    /* \"#utility.yul\":2678:2820   */\ntag_77:\n    /* \"#utility.yul\":2728:2737   */\n  0x00\n    /* \"#utility.yul\":2761:2814   */\n  tag_127\n    /* \"#utility.yul\":2779:2813   */\n  tag_128\n    /* \"#utility.yul\":2788:2812   */\n  tag_129\n    /* \"#utility.yul\":2806:2811   */\n  dup5\n    /* \"#utility.yul\":2788:2812   */\n  tag_65\n  jump\t// in\ntag_129:\n    /* \"#utility.yul\":2779:2813   */\n  tag_76\n  jump\t// in\ntag_128:\n    /* \"#utility.yul\":2761:2814   */\n  tag_65\n  jump\t// in\ntag_127:\n    /* \"#utility.yul\":2748:2814   */\n  swap1\n  pop\n    /* \"#utility.yul\":2678:2820   */\n  swap2\n  swap1\n  pop\n  jump\t// out\n    /* \"#utility.yul\":2826:2901   */\ntag_78:\n    /* \"#utility.yul\":2869:2872   */\n  0x00\n    /* \"#utility.yul\":2890:2895   */\n  dup2\n    /* \"#utility.yul\":2883:2895   */\n  swap1\n  pop\n    /* \"#utility.yul\":2826:2901   */\n  swap2\n  swap1\n  pop\n  jump\t// out\n    /* \"#utility.yul\":2907:3176   */\ntag_79:\n    /* \"#utility.yul\":3017:3056   */\n  tag_132\n    /* \"#utility.yul\":3048:3055   */\n  dup4\n    /* \"#utility.yul\":3017:3056   */\n  tag_77\n  jump\t// in\ntag_132:\n    /* \"#utility.yul\":3078:3169   */\n  tag_133\n    /* \"#utility.yul\":3127:3168   */\n  tag_134\n    /* \"#utility.yul\":3151:3167   */\n  dup3\n    /* \"#utility.yul\":3127:3168   */\n  tag_78\n  jump\t// in\ntag_134:\n    /* \"#utility.yul\":3119:3125   */\n  dup5\n    /* \"#utility.yul\":3112:3116   */\n  dup5\n    /* \"#utility.yul\":3106:3117   */\n  sload\n    /* \"#utility.yul\":3078:3169   */\n  tag_75\n  jump\t// in\ntag_133:\n    /* \"#utility.yul\":3072:3076   */\n  dup3\n    /* \"#utility.yul\":3065:3170   */\n  sstore\n    /* \"#utility.yul\":2983:3176   */\n  pop\n    /* \"#utility.yul\":2907:3176   */\n  pop\n  pop\n  pop\n  jump\t// out\n    /* \"#utility.yul\":3182:3255   */\ntag_80:\n    /* \"#utility.yul\":3227:3230   */\n  0x00\n    /* \"#utility.yul\":3182:3255   */\n  swap1\n  jump\t// out\n    /* \"#utility.yul\":3261:3450   */\ntag_81:\n    /* \"#utility.yul\":3338:3370   */\n  tag_137\n  tag_80\n  jump\t// in\ntag_137:\n    /* \"#utility.yul\":3379:3444   */\n  tag_138\n    /* \"#utility.yul\":3437:3443   */\n  dup2\n    /* \"#utility.yul\":3429:3435   */\n  dup5\n    /* \"#utility.yul\":3423:3427   */\n  dup5\n    /* \"#utility.yul\":3379:3444   */\n  tag_79\n  jump\t// in\ntag_138:\n    /* \"#utility.yul\":3314:3450   */\n  pop\n    /* \"#utility.yul\":3261:3450   */\n  pop\n  pop\n  jump\t// out\n    /* \"#utility.yul\":3456:3642   */\ntag_82:\n    /* \"#utility.yul\":3516:3636   */\ntag_140:\n    /* \"#utility.yul\":3533:3536   */\n  dup2\n    /* \"#utility.yul\":3526:3531   */\n  dup2\n    /* \"#utility.yul\":3523:3537   */\n  lt\n    /* \"#utility.yul\":3516:3636   */\n  iszero\n  tag_142\n  jumpi\n    /* \"#utility.yul\":3587:3626   */\n  tag_143\n    /* \"#utility.yul\":3624:3625   */\n  0x00\n    /* \"#utility.yul\":3617:3622   */\n  dup3\n    /* \"#utility.yul\":3587:3626   */\n  tag_81\n  jump\t// in\ntag_143:\n    /* \"#utility.yul\":3560:3561   */\n  0x01\n    /* \"#utility.yul\":3553:3558   */\n  dup2\n    /* \"#utility.yul\":3549:3562   */\n  add\n    /* \"#utility.yul\":3540:3562   */\n  swap1\n  pop\n    /* \"#utility.yul\":3516:3636   */\n  jump(tag_140)\ntag_142:\n    /* \"#utility.yul\":3456:3642   */\n  pop\n  pop\n  jump\t// out\n    /* \"#utility.yul\":3648:4191   */\ntag_83:\n    /* \"#utility.yul\":3749:3751   */\n  0x1f\n    /* \"#utility.yul\":3744:3747   */\n  dup3\n    /* \"#utility.yul\":3741:3752   */\n  gt\n    /* \"#utility.yul\":3738:4184   */\n  iszero\n  tag_145\n  jumpi\n    /* \"#utility.yul\":3783:3821   */\n  tag_146\n    /* \"#utility.yul\":3815:3820   */\n  dup2\n    /* \"#utility.yul\":3783:3821   */\n  tag_72\n  jump\t// in\ntag_146:\n    /* \"#utility.yul\":3867:3896   */\n  tag_147\n    /* \"#utility.yul\":3885:3895   */\n  dup5\n    /* \"#utility.yul\":3867:3896   */\n  tag_73\n  jump\t// in\ntag_147:\n    /* \"#utility.yul\":3857:3865   */\n  dup2\n    /* \"#utility.yul\":3853:3897   */\n  add\n    /* \"#utility.yul\":4050:4052   */\n  0x20\n    /* \"#utility.yul\":4038:4048   */\n  dup6\n    /* \"#utility.yul\":4035:4053   */\n  lt\n    /* \"#utility.yul\":4032:4081   */\n  iszero\n  tag_148\n  jumpi\n    /* \"#utility.yul\":4071:4079   */\n  dup2\n    /* \"#utility.yul\":4056:4079   */\n  swap1\n  pop\n    /* \"#utility.yul\":4032:4081   */\ntag_148:\n    /* \"#utility.yul\":4094:4174   */\n  tag_149\n    /* \"#utility.yul\":4150:4172   */\n  tag_150\n    /* \"#utility.yul\":4168:4171   */\n  dup6\n    /* \"#utility.yul\":4150:4172   */\n  tag_73\n  jump\t// in\ntag_150:\n    /* \"#utility.yul\":4140:4148   */\n  dup4\n    /* \"#utility.yul\":4136:4173   */\n  add\n    /* \"#utility.yul\":4123:4134   */\n  dup3\n    /* \"#utility.yul\":4094:4174   */\n  tag_82\n  jump\t// in\ntag_149:\n    /* \"#utility.yul\":3753:4184   */\n  pop\n  pop\n    /* \"#utility.yul\":3738:4184   */\ntag_145:\n    /* \"#utility.yul\":3648:4191   */\n  pop\n  pop\n  pop\n  jump\t// out\n    /* \"#utility.yul\":4197:4314   */\ntag_84:\n    /* \"#utility.yul\":4251:4259   */\n  0x00\n    /* \"#utility.yul\":4301:4306   */\n  dup3\n    /* \"#utility.yul\":4295:4299   */\n  dup3\n    /* \"#utility.yul\":4291:4307   */\n  shr\n    /* \"#utility.yul\":4270:4307   */\n  swap1\n  pop\n    /* \"#utility.yul\":4197:4314   */\n  swap3\n  swap2\n  pop\n  pop\n  jump\t// out\n    /* \"#utility.yul\":4320:4489   */\ntag_85:\n    /* \"#utility.yul\":4364:4370   */\n  0x00\n    /* \"#utility.yul\":4397:4448   */\n  tag_153\n    /* \"#utility.yul\":4445:4446   */\n  0x00\n    /* \"#utility.yul\":4441:4447   */\n  not\n    /* \"#utility.yul\":4433:4438   */\n  dup5\n    /* \"#utility.yul\":4430:4431   */\n  0x08\n    /* \"#utility.yul\":4426:4439   */\n  mul\n    /* \"#utility.yul\":4397:4448   */\n  tag_84\n  jump\t// in\ntag_153:\n    /* \"#utility.yul\":4393:4449   */\n  not\n    /* \"#utility.yul\":4478:4482   */\n  dup1\n    /* \"#utility.yul\":4472:4476   */\n  dup4\n    /* \"#utility.yul\":4468:4483   */\n  and\n    /* \"#utility.yul\":4458:4483   */\n  swap2\n  pop\n    /* \"#utility.yul\":4371:4489   */\n  pop\n    /* \"#utility.yul\":4320:4489   */\n  swap3\n  swap2\n  pop\n  pop\n  jump\t// out\n    /* \"#utility.yul\":4494:4789   */\ntag_86:\n    /* \"#utility.yul\":4570:4574   */\n  0x00\n    /* \"#utility.yul\":4716:4745   */\n  tag_155\n    /* \"#utility.yul\":4741:4744   */\n  dup4\n    /* \"#utility.yul\":4735:4739   */\n  dup4\n    /* \"#utility.yul\":4716:4745   */\n  tag_85\n  jump\t// in\ntag_155:\n    /* \"#utility.yul\":4708:4745   */\n  swap2\n  pop\n    /* \"#utility.yul\":4778:4781   */\n  dup3\n    /* \"#utility.yul\":4775:4776   */\n  0x02\n    /* \"#utility.yul\":4771:4782   */\n  mul\n    /* \"#utility.yul\":4765:4769   */\n  dup3\n    /* \"#utility.yul\":4762:4783   */\n  or\n    /* \"#utility.yul\":4754:4783   */\n  swap1\n  pop\n    /* \"#utility.yul\":4494:4789   */\n  swap3\n  swap2\n  pop\n  pop\n  jump\t// out\n    /* \"#utility.yul\":4794:6189   */\ntag_14:\n    /* \"#utility.yul\":4911:4948   */\n  tag_157\n    /* \"#utility.yul\":4944:4947   */\n  dup3\n    /* \"#utility.yul\":4911:4948   */\n  tag_68\n  jump\t// in\ntag_157:\n    /* \"#utility.yul\":5013:5031   */\n  0xffffffffffffffff\n    /* \"#utility.yul\":5005:5011   */\n  dup2\n    /* \"#utility.yul\":5002:5032   */\n  gt\n    /* \"#utility.yul\":4999:5055   */\n  iszero\n  tag_158\n  jumpi\n    /* \"#utility.yul\":5035:5053   */\n  tag_159\n  tag_69\n  jump\t// in\ntag_159:\n    /* \"#utility.yul\":4999:5055   */\ntag_158:\n    /* \"#utility.yul\":5079:5117   */\n  tag_160\n    /* \"#utility.yul\":5111:5115   */\n  dup3\n    /* \"#utility.yul\":5105:5116   */\n  sload\n    /* \"#utility.yul\":5079:5117   */\n  tag_71\n  jump\t// in\ntag_160:\n    /* \"#utility.yul\":5164:5231   */\n  tag_161\n    /* \"#utility.yul\":5224:5230   */\n  dup3\n    /* \"#utility.yul\":5216:5222   */\n  dup3\n    /* \"#utility.yul\":5210:5214   */\n  dup6\n    /* \"#utility.yul\":5164:5231   */\n  tag_83\n  jump\t// in\ntag_161:\n    /* \"#utility.yul\":5258:5259   */\n  0x00\n    /* \"#utility.yul\":5282:5286   */\n  0x20\n    /* \"#utility.yul\":5269:5286   */\n  swap1\n  pop\n    /* \"#utility.yul\":5314:5316   */\n  0x1f\n    /* \"#utility.yul\":5306:5312   */\n  dup4\n    /* \"#utility.yul\":5303:5317   */\n  gt\n    /* \"#utility.yul\":5331:5332   */\n  0x01\n    /* \"#utility.yul\":5326:5944   */\n  dup2\n  eq\n  tag_163\n  jumpi\n    /* \"#utility.yul\":5988:5989   */\n  0x00\n    /* \"#utility.yul\":6005:6011   */\n  dup5\n    /* \"#utility.yul\":6002:6079   */\n  iszero\n  tag_164\n  jumpi\n    /* \"#utility.yul\":6054:6063   */\n  dup3\n    /* \"#utility.yul\":6049:6052   */\n  dup8\n    /* \"#utility.yul\":6045:6064   */\n  add\n    /* \"#utility.yul\":6039:6065   */\n  mload\n    /* \"#utility.yul\":6030:6065   */\n  swap1\n  pop\n    /* \"#utility.yul\":6002:6079   */\ntag_164:\n    /* \"#utility.yul\":6105:6172   */\n  tag_165\n    /* \"#utility.yul\":6165:6171   */\n  dup6\n    /* \"#utility.yul\":6158:6163   */\n  dup3\n    /* \"#utility.yul\":6105:6172   */\n  tag_86\n  jump\t// in\ntag_165:\n    /* \"#utility.yul\":6099:6103   */\n  dup7\n    /* \"#utility.yul\":6092:6173   */\n  sstore\n    /* \"#utility.yul\":5961:6183   */\n  pop\n    /* \"#utility.yul\":5296:6183   */\n  jump(tag_162)\n    /* \"#utility.yul\":5326:5944   */\ntag_163:\n    /* \"#utility.yul\":5378:5382   */\n  0x1f\n    /* \"#utility.yul\":5374:5383   */\n  not\n    /* \"#utility.yul\":5366:5372   */\n  dup5\n    /* \"#utility.yul\":5362:5384   */\n  and\n    /* \"#utility.yul\":5412:5449   */\n  tag_166\n    /* \"#utility.yul\":5444:5448   */\n  dup7\n    /* \"#utility.yul\":5412:5449   */\n  tag_72\n  jump\t// in\ntag_166:\n    /* \"#utility.yul\":5471:5472   */\n  0x00\n    /* \"#utility.yul\":5485:5693   */\ntag_167:\n    /* \"#utility.yul\":5499:5506   */\n  dup3\n    /* \"#utility.yul\":5496:5497   */\n  dup2\n    /* \"#utility.yul\":5493:5507   */\n  lt\n    /* \"#utility.yul\":5485:5693   */\n  iszero\n  tag_169\n  jumpi\n    /* \"#utility.yul\":5578:5587   */\n  dup5\n    /* \"#utility.yul\":5573:5576   */\n  dup10\n    /* \"#utility.yul\":5569:5588   */\n  add\n    /* \"#utility.yul\":5563:5589   */\n  mload\n    /* \"#utility.yul\":5555:5561   */\n  dup3\n    /* \"#utility.yul\":5548:5590   */\n  sstore\n    /* \"#utility.yul\":5629:5630   */\n  0x01\n    /* \"#utility.yul\":5621:5627   */\n  dup3\n    /* \"#utility.yul\":5617:5631   */\n  add\n    /* \"#utility.yul\":5607:5631   */\n  swap2\n  pop\n    /* \"#utility.yul\":5676:5678   */\n  0x20\n    /* \"#utility.yul\":5665:5674   */\n  dup6\n    /* \"#utility.yul\":5661:5679   */\n  add\n    /* \"#utility.yul\":5648:5679   */\n  swap5\n  pop\n    /* \"#utility.yul\":5522:5526   */\n  0x20\n    /* \"#utility.yul\":5519:5520   */\n  dup2\n    /* \"#utility.yul\":5515:5527   */\n  add\n    /* \"#utility.yul\":5510:5527   */\n  swap1\n  pop\n    /* \"#utility.yul\":5485:5693   */\n  jump(tag_167)\ntag_169:\n    /* \"#utility.yul\":5721:5727   */\n  dup7\n    /* \"#utility.yul\":5712:5719   */\n  dup4\n    /* \"#utility.yul\":5709:5728   */\n  lt\n    /* \"#utility.yul\":5706:5885   */\n  iszero\n  tag_170\n  jumpi\n    /* \"#utility.yul\":5779:5788   */\n  dup5\n    /* \"#utility.yul\":5774:5777   */\n  dup10\n    /* \"#utility.yul\":5770:5789   */\n  add\n    /* \"#utility.yul\":5764:5790   */\n  mload\n    /* \"#utility.yul\":5822:5870   */\n  tag_171\n    /* \"#utility.yul\":5864:5868   */\n  0x1f\n    /* \"#utility.yul\":5856:5862   */\n  dup10\n    /* \"#utility.yul\":5852:5869   */\n  and\n    /* \"#utility.yul\":5841:5850   */\n  dup3\n    /* \"#utility.yul\":5822:5870   */\n  tag_85\n  jump\t// in\ntag_171:\n    /* \"#utility.yul\":5814:5820   */\n  dup4\n    /* \"#utility.yul\":5807:5871   */\n  sstore\n    /* \"#utility.yul\":5729:5885   */\n  pop\n    /* \"#utility.yul\":5706:5885   */\ntag_170:\n    /* \"#utility.yul\":5931:5932   */\n  0x01\n    /* \"#utility.yul\":5927:5928   */\n  0x02\n    /* \"#utility.yul\":5919:5925   */\n  dup9\n    /* \"#utility.yul\":5915:5929   */\n  mul\n    /* \"#utility.yul\":5911:5933   */\n  add\n    /* \"#utility.yul\":5905:5909   */\n  dup9\n    /* \"#utility.yul\":5898:5934   */\n  sstore\n    /* \"#utility.yul\":5333:5944   */\n  pop\n  pop\n  pop\n    /* \"#utility.yul\":5296:6183   */\ntag_162:\n  pop\n    /* \"#utility.yul\":4886:6189   */\n  pop\n  pop\n  pop\n    /* \"#utility.yul\":4794:6189   */\n  pop\n  pop\n  jump\t// out\n    /* \"#utility.yul\":6195:6364   */\ntag_87:\n    /* \"#utility.yul\":6279:6290   */\n  0x00\n    /* \"#utility.yul\":6313:6319   */\n  dup3\n    /* \"#utility.yul\":6308:6311   */\n  dup3\n    /* \"#utility.yul\":6301:6320   */\n  mstore\n    /* \"#utility.yul\":6353:6357   */\n  0x20\n    /* \"#utility.yul\":6348:6351   */\n  dup3\n    /* \"#utility.yul\":6344:6358   */\n  add\n    /* \"#utility.yul\":6329:6358   */\n  swap1\n  pop\n    /* \"#utility.yul\":6195:6364   */\n  swap3\n  swap2\n  pop\n  pop\n  jump\t// out\n    /* \"#utility.yul\":6370:6551   */\ntag_88:\n    /* \"#utility.yul\":6510:6543   */\n  0x45524332303a206d696e7420746f20746865207a65726f206164647265737300\n    /* \"#utility.yul\":6506:6507   */\n  0x00\n    /* \"#utility.yul\":6498:6504   */\n  dup3\n    /* \"#utility.yul\":6494:6508   */\n  add\n    /* \"#utility.yul\":6487:6544   */\n  mstore\n    /* \"#utility.yul\":6370:6551   */\n  pop\n  jump\t// out\n    /* \"#utility.yul\":6557:6923   */\ntag_89:\n    /* \"#utility.yul\":6699:6702   */\n  0x00\n    /* \"#utility.yul\":6720:6787   */\n  tag_175\n    /* \"#utility.yul\":6784:6786   */\n  0x1f\n    /* \"#utility.yul\":6779:6782   */\n  dup4\n    /* \"#utility.yul\":6720:6787   */\n  tag_87\n  jump\t// in\ntag_175:\n    /* \"#utility.yul\":6713:6787   */\n  swap2\n  pop\n    /* \"#utility.yul\":6796:6889   */\n  tag_176\n    /* \"#utility.yul\":6885:6888   */\n  dup3\n    /* \"#utility.yul\":6796:6889   */\n  tag_88\n  jump\t// in\ntag_176:\n    /* \"#utility.yul\":6914:6916   */\n  0x20\n    /* \"#utility.yul\":6909:6912   */\n  dup3\n    /* \"#utility.yul\":6905:6917   */\n  add\n    /* \"#utility.yul\":6898:6917   */\n  swap1\n  pop\n    /* \"#utility.yul\":6557:6923   */\n  swap2\n  swap1\n  pop\n  jump\t// out\n    /* \"#utility.yul\":6929:7348   */\ntag_25:\n    /* \"#utility.yul\":7095:7099   */\n  0x00\n    /* \"#utility.yul\":7133:7135   */\n  0x20\n    /* \"#utility.yul\":7122:7131   */\n  dup3\n    /* \"#utility.yul\":7118:7136   */\n  add\n    /* \"#utility.yul\":7110:7136   */\n  swap1\n  pop\n    /* \"#utility.yul\":7182:7191   */\n  dup2\n    /* \"#utility.yul\":7176:7180   */\n  dup2\n    /* \"#utility.yul\":7172:7192   */\n  sub\n    /* \"#utility.yul\":7168:7169   */\n  0x00\n    /* \"#utility.yul\":7157:7166   */\n  dup4\n    /* \"#utility.yul\":7153:7170   */\n  add\n    /* \"#utility.yul\":7146:7193   */\n  mstore\n    /* \"#utility.yul\":7210:7341   */\n  tag_178\n    /* \"#utility.yul\":7336:7340   */\n  dup2\n    /* \"#utility.yul\":7210:7341   */\n  tag_89\n  jump\t// in\ntag_178:\n    /* \"#utility.yul\":7202:7341   */\n  swap1\n  pop\n    /* \"#utility.yul\":6929:7348   */\n  swap2\n  swap1\n  pop\n  jump\t// out\n    /* \"#utility.yul\":7354:7534   */\ntag_90:\n    /* \"#utility.yul\":7402:7479   */\n  0x4e487b7100000000000000000000000000000000000000000000000000000000\n    /* \"#utility.yul\":7399:7400   */\n  0x00\n    /* \"#utility.yul\":7392:7480   */\n  mstore\n    /* \"#utility.yul\":7499:7503   */\n  0x11\n    /* \"#utility.yul\":7496:7497   */\n  0x04\n    /* \"#utility.yul\":7489:7504   */\n  mstore\n    /* \"#utility.yul\":7523:7527   */\n  0x24\n    /* \"#utility.yul\":7520:7521   */\n  0x00\n    /* \"#utility.yul\":7513:7528   */\n  revert\n    /* \"#utility.yul\":7540:7731   */\ntag_29:\n    /* \"#utility.yul\":7580:7583   */\n  0x00\n    /* \"#utility.yul\":7599:7619   */\n  tag_181\n    /* \"#utility.yul\":7617:7618   */\n  dup3\n    /* \"#utility.yul\":7599:7619   */\n  tag_65\n  jump\t// in\ntag_181:\n    /* \"#utility.yul\":7594:7619   */\n  swap2\n  pop\n    /* \"#utility.yul\":7633:7653   */\n  tag_182\n    /* \"#utility.yul\":7651:7652   */\n  dup4\n    /* \"#utility.yul\":7633:7653   */\n  tag_65\n  jump\t// in\ntag_182:\n    /* \"#utility.yul\":7628:7653   */\n  swap3\n  pop\n    /* \"#utility.yul\":7676:7677   */\n  dup3\n    /* \"#utility.yul\":7673:7674   */\n  dup3\n    /* \"#utility.yul\":7669:7678   */\n  add\n    /* \"#utility.yul\":7662:7678   */\n  swap1\n  pop\n    /* \"#utility.yul\":7697:7700   */\n  dup1\n    /* \"#utility.yul\":7694:7695   */\n  dup3\n    /* \"#utility.yul\":7691:7701   */\n  gt\n    /* \"#utility.yul\":7688:7724   */\n  iszero\n  tag_183\n  jumpi\n    /* \"#utility.yul\":7704:7722   */\n  tag_184\n  tag_90\n  jump\t// in\ntag_184:\n    /* \"#utility.yul\":7688:7724   */\ntag_183:\n    /* \"#utility.yul\":7540:7731   */\n  swap3\n  swap2\n  pop\n  pop\n  jump\t// out\n    /* \"#utility.yul\":7737:7855   */\ntag_91:\n    /* \"#utility.yul\":7824:7848   */\n  tag_186\n    /* \"#utility.yul\":7842:7847   */\n  dup2\n    /* \"#utility.yul\":7824:7848   */\n  tag_65\n  jump\t// in\ntag_186:\n    /* \"#utility.yul\":7819:7822   */\n  dup3\n    /* \"#utility.yul\":7812:7849   */\n  mstore\n    /* \"#utility.yul\":7737:7855   */\n  pop\n  pop\n  jump\t// out\n    /* \"#utility.yul\":7861:8083   */\ntag_32:\n    /* \"#utility.yul\":7954:7958   */\n  0x00\n    /* \"#utility.yul\":7992:7994   */\n  0x20\n    /* \"#utility.yul\":7981:7990   */\n  dup3\n    /* \"#utility.yul\":7977:7995   */\n  add\n    /* \"#utility.yul\":7969:7995   */\n  swap1\n  pop\n    /* \"#utility.yul\":8005:8076   */\n  tag_188\n    /* \"#utility.yul\":8073:8074   */\n  0x00\n    /* \"#utility.yul\":8062:8071   */\n  dup4\n    /* \"#utility.yul\":8058:8075   */\n  add\n    /* \"#utility.yul\":8049:8055   */\n  dup5\n    /* \"#utility.yul\":8005:8076   */\n  tag_91\n  jump\t// in\ntag_188:\n    /* \"#utility.yul\":7861:8083   */\n  swap3\n  swap2\n  pop\n  pop\n  jump\t// out\n    /* \"#utility.yul\":8089:8250   */\ntag_92:\n    /* \"#utility.yul\":8229:8242   */\n  0x426c61636b6c6973746564000000000000000000000000000000000000000000\n    /* \"#utility.yul\":8225:8226   */\n  0x00\n    /* \"#utility.yul\":8217:8223   */\n  dup3\n    /* \"#utility.yul\":8213:8227   */\n  add\n    /* \"#utility.yul\":8206:8243   */\n  mstore\n    /* \"#utility.yul\":8089:8250   */\n  pop\n  jump\t// out\n    /* \"#utility.yul\":8256:8622   */\ntag_93:\n    /* \"#utility.yul\":8398:8401   */\n  0x00\n    /* \"#utility.yul\":8419:8486   */\n  tag_191\n    /* \"#utility.yul\":8483:8485   */\n  0x0b\n    /* \"#utility.yul\":8478:8481   */\n  dup4\n    /* \"#utility.yul\":8419:8486   */\n  tag_87\n  jump\t// in\ntag_191:\n    /* \"#utility.yul\":8412:8486   */\n  swap2\n  pop\n    /* \"#utility.yul\":8495:8588   */\n  tag_192\n    /* \"#utility.yul\":8584:8587   */\n  dup3\n    /* \"#utility.yul\":8495:8588   */\n  tag_92\n  jump\t// in\ntag_192:\n    /* \"#utility.yul\":8613:8615   */\n  0x20\n    /* \"#utility.yul\":8608:8611   */\n  dup3\n    /* \"#utility.yul\":8604:8616   */\n  add\n    /* \"#utility.yul\":8597:8616   */\n  swap1\n  pop\n    /* \"#utility.yul\":8256:8622   */\n  swap2\n  swap1\n  pop\n  jump\t// out\n    /* \"#utility.yul\":8628:9047   */\ntag_39:\n    /* \"#utility.yul\":8794:8798   */\n  0x00\n    /* \"#utility.yul\":8832:8834   */\n  0x20\n    /* \"#utility.yul\":8821:8830   */\n  dup3\n    /* \"#utility.yul\":8817:8835   */\n  add\n    /* \"#utility.yul\":8809:8835   */\n  swap1\n  pop\n    /* \"#utility.yul\":8881:8890   */\n  dup2\n    /* \"#utility.yul\":8875:8879   */\n  dup2\n    /* \"#utility.yul\":8871:8891   */\n  sub\n    /* \"#utility.yul\":8867:8868   */\n  0x00\n    /* \"#utility.yul\":8856:8865   */\n  dup4\n    /* \"#utility.yul\":8852:8869   */\n  add\n    /* \"#utility.yul\":8845:8892   */\n  mstore\n    /* \"#utility.yul\":8909:9040   */\n  tag_194\n    /* \"#utility.yul\":9035:9039   */\n  dup2\n    /* \"#utility.yul\":8909:9040   */\n  tag_93\n  jump\t// in\ntag_194:\n    /* \"#utility.yul\":8901:9040   */\n  swap1\n  pop\n    /* \"#utility.yul\":8628:9047   */\n  swap2\n  swap1\n  pop\n  jump\t// out\n    /* \"#utility.yul\":9053:9225   */\ntag_94:\n    /* \"#utility.yul\":9193:9217   */\n  0x74726164696e67206973206e6f74207374617274656400000000000000000000\n    /* \"#utility.yul\":9189:9190   */\n  0x00\n    /* \"#utility.yul\":9181:9187   */\n  dup3\n    /* \"#utility.yul\":9177:9191   */\n  add\n    /* \"#utility.yul\":9170:9218   */\n  mstore\n    /* \"#utility.yul\":9053:9225   */\n  pop\n  jump\t// out\n    /* \"#utility.yul\":9231:9597   */\ntag_95:\n    /* \"#utility.yul\":9373:9376   */\n  0x00\n    /* \"#utility.yul\":9394:9461   */\n  tag_197\n    /* \"#utility.yul\":9458:9460   */\n  0x16\n    /* \"#utility.yul\":9453:9456   */\n  dup4\n    /* \"#utility.yul\":9394:9461   */\n  tag_87\n  jump\t// in\ntag_197:\n    /* \"#utility.yul\":9387:9461   */\n  swap2\n  pop\n    /* \"#utility.yul\":9470:9563   */\n  tag_198\n    /* \"#utility.yul\":9559:9562   */\n  dup3\n    /* \"#utility.yul\":9470:9563   */\n  tag_94\n  jump\t// in\ntag_198:\n    /* \"#utility.yul\":9588:9590   */\n  0x20\n    /* \"#utility.yul\":9583:9586   */\n  dup3\n    /* \"#utility.yul\":9579:9591   */\n  add\n    /* \"#utility.yul\":9572:9591   */\n  swap1\n  pop\n    /* \"#utility.yul\":9231:9597   */\n  swap2\n  swap1\n  pop\n  jump\t// out\n    /* \"#utility.yul\":9603:10022   */\ntag_47:\n    /* \"#utility.yul\":9769:9773   */\n  0x00\n    /* \"#utility.yul\":9807:9809   */\n  0x20\n    /* \"#utility.yul\":9796:9805   */\n  dup3\n    /* \"#utility.yul\":9792:9810   */\n  add\n    /* \"#utility.yul\":9784:9810   */\n  swap1\n  pop\n    /* \"#utility.yul\":9856:9865   */\n  dup2\n    /* \"#utility.yul\":9850:9854   */\n  dup2\n    /* \"#utility.yul\":9846:9866   */\n  sub\n    /* \"#utility.yul\":9842:9843   */\n  0x00\n    /* \"#utility.yul\":9831:9840   */\n  dup4\n    /* \"#utility.yul\":9827:9844   */\n  add\n    /* \"#utility.yul\":9820:9867   */\n  mstore\n    /* \"#utility.yul\":9884:10015   */\n  tag_200\n    /* \"#utility.yul\":10010:10014   */\n  dup2\n    /* \"#utility.yul\":9884:10015   */\n  tag_95\n  jump\t// in\ntag_200:\n    /* \"#utility.yul\":9876:10015   */\n  swap1\n  pop\n    /* \"#utility.yul\":9603:10022   */\n  swap2\n  swap1\n  pop\n  jump\t// out\n    /* \"#utility.yul\":10028:10184   */\ntag_96:\n    /* \"#utility.yul\":10168:10176   */\n  0x466f726269640000000000000000000000000000000000000000000000000000\n    /* \"#utility.yul\":10164:10165   */\n  0x00\n    /* \"#utility.yul\":10156:10162   */\n  dup3\n    /* \"#utility.yul\":10152:10166   */\n  add\n    /* \"#utility.yul\":10145:10177   */\n  mstore\n    /* \"#utility.yul\":10028:10184   */\n  pop\n  jump\t// out\n    /* \"#utility.yul\":10190:10555   */\ntag_97:\n    /* \"#utility.yul\":10332:10335   */\n  0x00\n    /* \"#utility.yul\":10353:10419   */\n  tag_203\n    /* \"#utility.yul\":10417:10418   */\n  0x06\n    /* \"#utility.yul\":10412:10415   */\n  dup4\n    /* \"#utility.yul\":10353:10419   */\n  tag_87\n  jump\t// in\ntag_203:\n    /* \"#utility.yul\":10346:10419   */\n  swap2\n  pop\n    /* \"#utility.yul\":10428:10521   */\n  tag_204\n    /* \"#utility.yul\":10517:10520   */\n  dup3\n    /* \"#utility.yul\":10428:10521   */\n  tag_96\n  jump\t// in\ntag_204:\n    /* \"#utility.yul\":10546:10548   */\n  0x20\n    /* \"#utility.yul\":10541:10544   */\n  dup3\n    /* \"#utility.yul\":10537:10549   */\n  add\n    /* \"#utility.yul\":10530:10549   */\n  swap1\n  pop\n    /* \"#utility.yul\":10190:10555   */\n  swap2\n  swap1\n  pop\n  jump\t// out\n    /* \"#utility.yul\":10561:10980   */\ntag_58:\n    /* \"#utility.yul\":10727:10731   */\n  0x00\n    /* \"#utility.yul\":10765:10767   */\n  0x20\n    /* \"#utility.yul\":10754:10763   */\n  dup3\n    /* \"#utility.yul\":10750:10768   */\n  add\n    /* \"#utility.yul\":10742:10768   */\n  swap1\n  pop\n    /* \"#utility.yul\":10814:10823   */\n  dup2\n    /* \"#utility.yul\":10808:10812   */\n  dup2\n    /* \"#utility.yul\":10804:10824   */\n  sub\n    /* \"#utility.yul\":10800:10801   */\n  0x00\n    /* \"#utility.yul\":10789:10798   */\n  dup4\n    /* \"#utility.yul\":10785:10802   */\n  add\n    /* \"#utility.yul\":10778:10825   */\n  mstore\n    /* \"#utility.yul\":10842:10973   */\n  tag_206\n    /* \"#utility.yul\":10968:10972   */\n  dup2\n    /* \"#utility.yul\":10842:10973   */\n  tag_97\n  jump\t// in\ntag_206:\n    /* \"#utility.yul\":10834:10973   */\n  swap1\n  pop\n    /* \"#utility.yul\":10561:10980   */\n  swap2\n  swap1\n  pop\n  jump\t// out\n    /* \"contracts/PEPEuni.sol\":19414:20871  contract PepeToken is Ownable, ERC20 {... */\ntag_19:\n  dataSize(sub_0)\n  dup1\n  dataOffset(sub_0)\n  0x00\n  codecopy\n  0x00\n  return\nstop\n\nsub_0: assembly {\n        /* \"contracts/PEPEuni.sol\":19414:20871  contract PepeToken is Ownable, ERC20 {... */\n      mstore(0x40, 0x80)\n      callvalue\n      dup1\n      iszero\n      tag_1\n      jumpi\n      0x00\n      dup1\n      revert\n    tag_1:\n      pop\n      jumpi(tag_2, lt(calldatasize, 0x04))\n      shr(0xe0, calldataload(0x00))\n      dup1\n      0x49bd5a5e\n      gt\n      tag_25\n      jumpi\n      dup1\n      0x8da5cb5b\n      gt\n      tag_26\n      jumpi\n      dup1\n      0x8da5cb5b\n      eq\n      tag_19\n      jumpi\n      dup1\n      0x95d89b41\n      eq\n      tag_20\n      jumpi\n      dup1\n      0xa457c2d7\n      eq\n      tag_21\n      jumpi\n      dup1\n      0xa9059cbb\n      eq\n      tag_22\n      jumpi\n      dup1\n      0xdd62ed3e\n      eq\n      tag_23\n      jumpi\n      dup1\n      0xf2fde38b\n      eq\n      tag_24\n      jumpi\n      jump(tag_2)\n    tag_26:\n      dup1\n      0x49bd5a5e\n      eq\n      tag_14\n      jumpi\n      dup1\n      0x70a08231\n      eq\n      tag_15\n      jumpi\n      dup1\n      0x715018a6\n      eq\n      tag_16\n      jumpi\n      dup1\n      0x860a32ec\n      eq\n      tag_17\n      jumpi\n      dup1\n      0x89f9a1d3\n      eq\n      tag_18\n      jumpi\n      jump(tag_2)\n    tag_25:\n      dup1\n      0x23b872dd\n      gt\n      tag_27\n      jumpi\n      dup1\n      0x23b872dd\n      eq\n      tag_8\n      jumpi\n      dup1\n      0x313ce567\n      eq\n      tag_9\n      jumpi\n      dup1\n      0x39509351\n      eq\n      tag_10\n      jumpi\n      dup1\n      0x3aa633aa\n      eq\n      tag_11\n      jumpi\n      dup1\n      0x404e5129\n      eq\n      tag_12\n      jumpi\n      dup1\n      0x42966c68\n      eq\n      tag_13\n      jumpi\n      jump(tag_2)\n    tag_27:\n      dup1\n      0x06fdde03\n      eq\n      tag_3\n      jumpi\n      dup1\n      0x095ea7b3\n      eq\n      tag_4\n      jumpi\n      dup1\n      0x16c02129\n      eq\n      tag_5\n      jumpi\n      dup1\n      0x18160ddd\n      eq\n      tag_6\n      jumpi\n      dup1\n      0x1ab99e12\n      eq\n      tag_7\n      jumpi\n    tag_2:\n      0x00\n      dup1\n      revert\n        /* \"contracts/PEPEuni.sol\":9383:9483  function name() public view virtual override returns (string memory) {... */\n    tag_3:\n      tag_28\n      tag_29\n      jump\t// in\n    tag_28:\n      mload(0x40)\n      tag_30\n      swap2\n      swap1\n      tag_31\n      jump\t// in\n    tag_30:\n      mload(0x40)\n      dup1\n      swap2\n      sub\n      swap1\n      return\n        /* \"contracts/PEPEuni.sol\":11550:11719  function approve(address spender, uint256 amount) public virtual override returns (bool) {... */\n    tag_4:\n      tag_32\n      0x04\n      dup1\n      calldatasize\n      sub\n      dup2\n      add\n      swap1\n      tag_33\n      swap2\n      swap1\n      tag_34\n      jump\t// in\n    tag_33:\n      tag_35\n      jump\t// in\n    tag_32:\n      mload(0x40)\n      tag_36\n      swap2\n      swap1\n      tag_37\n      jump\t// in\n    tag_36:\n      mload(0x40)\n      dup1\n      swap2\n      sub\n      swap1\n      return\n        /* \"contracts/PEPEuni.sol\":19595:19637  mapping(address => bool) public blacklists */\n    tag_5:\n      tag_38\n      0x04\n      dup1\n      calldatasize\n      sub\n      dup2\n      add\n      swap1\n      tag_39\n      swap2\n      swap1\n      tag_40\n      jump\t// in\n    tag_39:\n      tag_41\n      jump\t// in\n    tag_38:\n      mload(0x40)\n      tag_42\n      swap2\n      swap1\n      tag_37\n      jump\t// in\n    tag_42:\n      mload(0x40)\n      dup1\n      swap2\n      sub\n      swap1\n      return\n        /* \"contracts/PEPEuni.sol\":10503:10611  function totalSupply() public view virtual override returns (uint256) {... */\n    tag_6:\n      tag_43\n      tag_44\n      jump\t// in\n    tag_43:\n      mload(0x40)\n      tag_45\n      swap2\n      swap1\n      tag_46\n      jump\t// in\n    tag_45:\n      mload(0x40)\n      dup1\n      swap2\n      sub\n      swap1\n      return\n        /* \"contracts/PEPEuni.sol\":19522:19553  uint256 public minHoldingAmount */\n    tag_7:\n      tag_47\n      tag_48\n      jump\t// in\n    tag_47:\n      mload(0x40)\n      tag_49\n      swap2\n      swap1\n      tag_46\n      jump\t// in\n    tag_49:\n      mload(0x40)\n      dup1\n      swap2\n      sub\n      swap1\n      return\n        /* \"contracts/PEPEuni.sol\":12201:12693  function transferFrom(... */\n    tag_8:\n      tag_50\n      0x04\n      dup1\n      calldatasize\n      sub\n      dup2\n      add\n      swap1\n      tag_51\n      swap2\n      swap1\n      tag_52\n      jump\t// in\n    tag_51:\n      tag_53\n      jump\t// in\n    tag_50:\n      mload(0x40)\n      tag_54\n      swap2\n      swap1\n      tag_37\n      jump\t// in\n    tag_54:\n      mload(0x40)\n      dup1\n      swap2\n      sub\n      swap1\n      return\n        /* \"contracts/PEPEuni.sol\":10345:10438  function decimals() public view virtual override returns (uint8) {... */\n    tag_9:\n      tag_55\n      tag_56\n      jump\t// in\n    tag_55:\n      mload(0x40)\n      tag_57\n      swap2\n      swap1\n      tag_58\n      jump\t// in\n    tag_57:\n      mload(0x40)\n      dup1\n      swap2\n      sub\n      swap1\n      return\n        /* \"contracts/PEPEuni.sol\":13102:13317  function increaseAllowance(address spender, uint256 addedValue) public virtual returns (bool) {... */\n    tag_10:\n      tag_59\n      0x04\n      dup1\n      calldatasize\n      sub\n      dup2\n      add\n      swap1\n      tag_60\n      swap2\n      swap1\n      tag_34\n      jump\t// in\n    tag_60:\n      tag_61\n      jump\t// in\n    tag_59:\n      mload(0x40)\n      tag_62\n      swap2\n      swap1\n      tag_37\n      jump\t// in\n    tag_62:\n      mload(0x40)\n      dup1\n      swap2\n      sub\n      swap1\n      return\n        /* \"contracts/PEPEuni.sol\":19903:20204  function setRule(bool _limited, address _uniswapV2Pair, uint256 _maxHoldingAmount, uint256 _minHoldingAmount) external onlyOwner {... */\n    tag_11:\n      tag_63\n      0x04\n      dup1\n      calldatasize\n      sub\n      dup2\n      add\n      swap1\n      tag_64\n      swap2\n      swap1\n      tag_65\n      jump\t// in\n    tag_64:\n      tag_66\n      jump\t// in\n    tag_63:\n      stop\n        /* \"contracts/PEPEuni.sol\":19760:19895  function blacklist(address _address, bool _isBlacklisting) external onlyOwner {... */\n    tag_12:\n      tag_67\n      0x04\n      dup1\n      calldatasize\n      sub\n      dup2\n      add\n      swap1\n      tag_68\n      swap2\n      swap1\n      tag_69\n      jump\t// in\n    tag_68:\n      tag_70\n      jump\t// in\n    tag_67:\n      stop\n        /* \"contracts/PEPEuni.sol\":20787:20868  function burn(uint256 value) external {... */\n    tag_13:\n      tag_71\n      0x04\n      dup1\n      calldatasize\n      sub\n      dup2\n      add\n      swap1\n      tag_72\n      swap2\n      swap1\n      tag_73\n      jump\t// in\n    tag_72:\n      tag_74\n      jump\t// in\n    tag_71:\n      stop\n        /* \"contracts/PEPEuni.sol\":19560:19588  address public uniswapV2Pair */\n    tag_14:\n      tag_75\n      tag_76\n      jump\t// in\n    tag_75:\n      mload(0x40)\n      tag_77\n      swap2\n      swap1\n      tag_78\n      jump\t// in\n    tag_77:\n      mload(0x40)\n      dup1\n      swap2\n      sub\n      swap1\n      return\n        /* \"contracts/PEPEuni.sol\":10674:10801  function balanceOf(address account) public view virtual override returns (uint256) {... */\n    tag_15:\n      tag_79\n      0x04\n      dup1\n      calldatasize\n      sub\n      dup2\n      add\n      swap1\n      tag_80\n      swap2\n      swap1\n      tag_40\n      jump\t// in\n    tag_80:\n      tag_81\n      jump\t// in\n    tag_79:\n      mload(0x40)\n      tag_82\n      swap2\n      swap1\n      tag_46\n      jump\t// in\n    tag_82:\n      mload(0x40)\n      dup1\n      swap2\n      sub\n      swap1\n      return\n        /* \"contracts/PEPEuni.sol\":2784:2887  function renounceOwnership() public virtual onlyOwner {... */\n    tag_16:\n      tag_83\n      tag_84\n      jump\t// in\n    tag_83:\n      stop\n        /* \"contracts/PEPEuni.sol\":19458:19477  bool public limited */\n    tag_17:\n      tag_85\n      tag_86\n      jump\t// in\n    tag_85:\n      mload(0x40)\n      tag_87\n      swap2\n      swap1\n      tag_37\n      jump\t// in\n    tag_87:\n      mload(0x40)\n      dup1\n      swap2\n      sub\n      swap1\n      return\n        /* \"contracts/PEPEuni.sol\":19484:19515  uint256 public maxHoldingAmount */\n    tag_18:\n      tag_88\n      tag_89\n      jump\t// in\n    tag_88:\n      mload(0x40)\n      tag_90\n      swap2\n      swap1\n      tag_46\n      jump\t// in\n    tag_90:\n      mload(0x40)\n      dup1\n      swap2\n      sub\n      swap1\n      return\n        /* \"contracts/PEPEuni.sol\":2133:2220  function owner() public view virtual returns (address) {... */\n    tag_19:\n      tag_91\n      tag_92\n      jump\t// in\n    tag_91:\n      mload(0x40)\n      tag_93\n      swap2\n      swap1\n      tag_78\n      jump\t// in\n    tag_93:\n      mload(0x40)\n      dup1\n      swap2\n      sub\n      swap1\n      return\n        /* \"contracts/PEPEuni.sol\":9602:9706  function symbol() public view virtual override returns (string memory) {... */\n    tag_20:\n      tag_94\n      tag_95\n      jump\t// in\n    tag_94:\n      mload(0x40)\n      tag_96\n      swap2\n      swap1\n      tag_31\n      jump\t// in\n    tag_96:\n      mload(0x40)\n      dup1\n      swap2\n      sub\n      swap1\n      return\n        /* \"contracts/PEPEuni.sol\":13820:14233  function decreaseAllowance(address spender, uint256 subtractedValue) public virtual returns (bool) {... */\n    tag_21:\n      tag_97\n      0x04\n      dup1\n      calldatasize\n      sub\n      dup2\n      add\n      swap1\n      tag_98\n      swap2\n      swap1\n      tag_34\n      jump\t// in\n    tag_98:\n      tag_99\n      jump\t// in\n    tag_97:\n      mload(0x40)\n      tag_100\n      swap2\n      swap1\n      tag_37\n      jump\t// in\n    tag_100:\n      mload(0x40)\n      dup1\n      swap2\n      sub\n      swap1\n      return\n        /* \"contracts/PEPEuni.sol\":11014:11189  function transfer(address recipient, uint256 amount) public virtual override returns (bool) {... */\n    tag_22:\n      tag_101\n      0x04\n      dup1\n      calldatasize\n      sub\n      dup2\n      add\n      swap1\n      tag_102\n      swap2\n      swap1\n      tag_34\n      jump\t// in\n    tag_102:\n      tag_103\n      jump\t// in\n    tag_101:\n      mload(0x40)\n      tag_104\n      swap2\n      swap1\n      tag_37\n      jump\t// in\n    tag_104:\n      mload(0x40)\n      dup1\n      swap2\n      sub\n      swap1\n      return\n        /* \"contracts/PEPEuni.sol\":11252:11403  function allowance(address owner, address spender) public view virtual override returns (uint256) {... */\n    tag_23:\n      tag_105\n      0x04\n      dup1\n      calldatasize\n      sub\n      dup2\n      add\n      swap1\n      tag_106\n      swap2\n      swap1\n      tag_107\n      jump\t// in\n    tag_106:\n      tag_108\n      jump\t// in\n    tag_105:\n      mload(0x40)\n      tag_109\n      swap2\n      swap1\n      tag_46\n      jump\t// in\n    tag_109:\n      mload(0x40)\n      dup1\n      swap2\n      sub\n      swap1\n      return\n        /* \"contracts/PEPEuni.sol\":3042:3243  function transferOwnership(address newOwner) public virtual onlyOwner {... */\n    tag_24:\n      tag_110\n      0x04\n      dup1\n      calldatasize\n      sub\n      dup2\n      add\n      swap1\n      tag_111\n      swap2\n      swap1\n      tag_40\n      jump\t// in\n    tag_111:\n      tag_112\n      jump\t// in\n    tag_110:\n      stop\n        /* \"contracts/PEPEuni.sol\":9383:9483  function name() public view virtual override returns (string memory) {... */\n    tag_29:\n        /* \"contracts/PEPEuni.sol\":9437:9450  string memory */\n      0x60\n        /* \"contracts/PEPEuni.sol\":9470:9475  _name */\n      0x04\n        /* \"contracts/PEPEuni.sol\":9463:9475  return _name */\n      dup1\n      sload\n      tag_114\n      swap1\n      tag_115\n      jump\t// in\n    tag_114:\n      dup1\n      0x1f\n      add\n      0x20\n      dup1\n      swap2\n      div\n      mul\n      0x20\n      add\n      mload(0x40)\n      swap1\n      dup2\n      add\n      0x40\n      mstore\n      dup1\n      swap3\n      swap2\n      swap1\n      dup2\n      dup2\n      mstore\n      0x20\n      add\n      dup3\n      dup1\n      sload\n      tag_116\n      swap1\n      tag_115\n      jump\t// in\n    tag_116:\n      dup1\n      iszero\n      tag_117\n      jumpi\n      dup1\n      0x1f\n      lt\n      tag_118\n      jumpi\n      0x0100\n      dup1\n      dup4\n      sload\n      div\n      mul\n      dup4\n      mstore\n      swap2\n      0x20\n      add\n      swap2\n      jump(tag_117)\n    tag_118:\n      dup3\n      add\n      swap2\n      swap1\n      0x00\n      mstore\n      keccak256(0x00, 0x20)\n      swap1\n    tag_119:\n      dup2\n      sload\n      dup2\n      mstore\n      swap1\n      0x01\n      add\n      swap1\n      0x20\n      add\n      dup1\n      dup4\n      gt\n      tag_119\n      jumpi\n      dup3\n      swap1\n      sub\n      0x1f\n      and\n      dup3\n      add\n      swap2\n    tag_117:\n      pop\n      pop\n      pop\n      pop\n      pop\n      swap1\n      pop\n        /* \"contracts/PEPEuni.sol\":9383:9483  function name() public view virtual override returns (string memory) {... */\n      swap1\n      jump\t// out\n        /* \"contracts/PEPEuni.sol\":11550:11719  function approve(address spender, uint256 amount) public virtual override returns (bool) {... */\n    tag_35:\n        /* \"contracts/PEPEuni.sol\":11633:11637  bool */\n      0x00\n        /* \"contracts/PEPEuni.sol\":11650:11689  _approve(_msgSender(), spender, amount) */\n      tag_121\n        /* \"contracts/PEPEuni.sol\":11659:11671  _msgSender() */\n      tag_122\n        /* \"contracts/PEPEuni.sol\":11659:11669  _msgSender */\n      tag_123\n        /* \"contracts/PEPEuni.sol\":11659:11671  _msgSender() */\n      jump\t// in\n    tag_122:\n        /* \"contracts/PEPEuni.sol\":11673:11680  spender */\n      dup5\n        /* \"contracts/PEPEuni.sol\":11682:11688  amount */\n      dup5\n        /* \"contracts/PEPEuni.sol\":11650:11658  _approve */\n      tag_124\n        /* \"contracts/PEPEuni.sol\":11650:11689  _approve(_msgSender(), spender, amount) */\n      jump\t// in\n    tag_121:\n        /* \"contracts/PEPEuni.sol\":11707:11711  true */\n      0x01\n        /* \"contracts/PEPEuni.sol\":11700:11711  return true */\n      swap1\n      pop\n        /* \"contracts/PEPEuni.sol\":11550:11719  function approve(address spender, uint256 amount) public virtual override returns (bool) {... */\n      swap3\n      swap2\n      pop\n      pop\n      jump\t// out\n        /* \"contracts/PEPEuni.sol\":19595:19637  mapping(address => bool) public blacklists */\n    tag_41:\n      mstore(0x20, 0x0a)\n      dup1\n      0x00\n      mstore\n      keccak256(0x00, 0x40)\n      0x00\n      swap2\n      pop\n      sload\n      swap1\n      0x0100\n      exp\n      swap1\n      div\n      0xff\n      and\n      dup2\n      jump\t// out\n        /* \"contracts/PEPEuni.sol\":10503:10611  function totalSupply() public view virtual override returns (uint256) {... */\n    tag_44:\n        /* \"contracts/PEPEuni.sol\":10564:10571  uint256 */\n      0x00\n        /* \"contracts/PEPEuni.sol\":10591:10603  _totalSupply */\n      sload(0x03)\n        /* \"contracts/PEPEuni.sol\":10584:10603  return _totalSupply */\n      swap1\n      pop\n        /* \"contracts/PEPEuni.sol\":10503:10611  function totalSupply() public view virtual override returns (uint256) {... */\n      swap1\n      jump\t// out\n        /* \"contracts/PEPEuni.sol\":19522:19553  uint256 public minHoldingAmount */\n    tag_48:\n      sload(0x08)\n      dup2\n      jump\t// out\n        /* \"contracts/PEPEuni.sol\":12201:12693  function transferFrom(... */\n    tag_53:\n        /* \"contracts/PEPEuni.sol\":12341:12345  bool */\n      0x00\n        /* \"contracts/PEPEuni.sol\":12358:12394  _transfer(sender, recipient, amount) */\n      tag_127\n        /* \"contracts/PEPEuni.sol\":12368:12374  sender */\n      dup5\n        /* \"contracts/PEPEuni.sol\":12376:12385  recipient */\n      dup5\n        /* \"contracts/PEPEuni.sol\":12387:12393  amount */\n      dup5\n        /* \"contracts/PEPEuni.sol\":12358:12367  _transfer */\n      tag_128\n        /* \"contracts/PEPEuni.sol\":12358:12394  _transfer(sender, recipient, amount) */\n      jump\t// in\n    tag_127:\n        /* \"contracts/PEPEuni.sol\":12407:12431  uint256 currentAllowance */\n      0x00\n        /* \"contracts/PEPEuni.sol\":12434:12445  _allowances */\n      0x02\n        /* \"contracts/PEPEuni.sol\":12434:12453  _allowances[sender] */\n      0x00\n        /* \"contracts/PEPEuni.sol\":12446:12452  sender */\n      dup7\n        /* \"contracts/PEPEuni.sol\":12434:12453  _allowances[sender] */\n      0xffffffffffffffffffffffffffffffffffffffff\n      and\n      0xffffffffffffffffffffffffffffffffffffffff\n      and\n      dup2\n      mstore\n      0x20\n      add\n      swap1\n      dup2\n      mstore\n      0x20\n      add\n      0x00\n      keccak256\n        /* \"contracts/PEPEuni.sol\":12434:12467  _allowances[sender][_msgSender()] */\n      0x00\n        /* \"contracts/PEPEuni.sol\":12454:12466  _msgSender() */\n      tag_129\n        /* \"contracts/PEPEuni.sol\":12454:12464  _msgSender */\n      tag_123\n        /* \"contracts/PEPEuni.sol\":12454:12466  _msgSender() */\n      jump\t// in\n    tag_129:\n        /* \"contracts/PEPEuni.sol\":12434:12467  _allowances[sender][_msgSender()] */\n      0xffffffffffffffffffffffffffffffffffffffff\n      and\n      0xffffffffffffffffffffffffffffffffffffffff\n      and\n      dup2\n      mstore\n      0x20\n      add\n      swap1\n      dup2\n      mstore\n      0x20\n      add\n      0x00\n      keccak256\n      sload\n        /* \"contracts/PEPEuni.sol\":12407:12467  uint256 currentAllowance = _allowances[sender][_msgSender()] */\n      swap1\n      pop\n        /* \"contracts/PEPEuni.sol\":12506:12512  amount */\n      dup3\n        /* \"contracts/PEPEuni.sol\":12486:12502  currentAllowance */\n      dup2\n        /* \"contracts/PEPEuni.sol\":12486:12512  currentAllowance >= amount */\n      lt\n      iszero\n        /* \"contracts/PEPEuni.sol\":12478:12557  require(currentAllowance >= amount, \"ERC20: transfer amount exceeds allowance\") */\n      tag_130\n      jumpi\n      mload(0x40)\n      0x08c379a000000000000000000000000000000000000000000000000000000000\n      dup2\n      mstore\n      0x04\n      add\n      tag_131\n      swap1\n      tag_132\n      jump\t// in\n    tag_131:\n      mload(0x40)\n      dup1\n      swap2\n      sub\n      swap1\n      revert\n    tag_130:\n        /* \"contracts/PEPEuni.sol\":12593:12650  _approve(sender, _msgSender(), currentAllowance - amount) */\n      tag_133\n        /* \"contracts/PEPEuni.sol\":12602:12608  sender */\n      dup6\n        /* \"contracts/PEPEuni.sol\":12610:12622  _msgSender() */\n      tag_134\n        /* \"contracts/PEPEuni.sol\":12610:12620  _msgSender */\n      tag_123\n        /* \"contracts/PEPEuni.sol\":12610:12622  _msgSender() */\n      jump\t// in\n    tag_134:\n        /* \"contracts/PEPEuni.sol\":12643:12649  amount */\n      dup6\n        /* \"contracts/PEPEuni.sol\":12624:12640  currentAllowance */\n      dup5\n        /* \"contracts/PEPEuni.sol\":12624:12649  currentAllowance - amount */\n      sub\n        /* \"contracts/PEPEuni.sol\":12593:12601  _approve */\n      tag_124\n        /* \"contracts/PEPEuni.sol\":12593:12650  _approve(sender, _msgSender(), currentAllowance - amount) */\n      jump\t// in\n    tag_133:\n        /* \"contracts/PEPEuni.sol\":12681:12685  true */\n      0x01\n        /* \"contracts/PEPEuni.sol\":12674:12685  return true */\n      swap2\n      pop\n      pop\n        /* \"contracts/PEPEuni.sol\":12201:12693  function transferFrom(... */\n      swap4\n      swap3\n      pop\n      pop\n      pop\n      jump\t// out\n        /* \"contracts/PEPEuni.sol\":10345:10438  function decimals() public view virtual override returns (uint8) {... */\n    tag_56:\n        /* \"contracts/PEPEuni.sol\":10403:10408  uint8 */\n      0x00\n        /* \"contracts/PEPEuni.sol\":10428:10430  18 */\n      0x12\n        /* \"contracts/PEPEuni.sol\":10421:10430  return 18 */\n      swap1\n      pop\n        /* \"contracts/PEPEuni.sol\":10345:10438  function decimals() public view virtual override returns (uint8) {... */\n      swap1\n      jump\t// out\n        /* \"contracts/PEPEuni.sol\":13102:13317  function increaseAllowance(address spender, uint256 addedValue) public virtual returns (bool) {... */\n    tag_61:\n        /* \"contracts/PEPEuni.sol\":13190:13194  bool */\n      0x00\n        /* \"contracts/PEPEuni.sol\":13207:13287  _approve(_msgSender(), spender, _allowances[_msgSender()][spender] + addedValue) */\n      tag_137\n        /* \"contracts/PEPEuni.sol\":13216:13228  _msgSender() */\n      tag_138\n        /* \"contracts/PEPEuni.sol\":13216:13226  _msgSender */\n      tag_123\n        /* \"contracts/PEPEuni.sol\":13216:13228  _msgSender() */\n      jump\t// in\n    tag_138:\n        /* \"contracts/PEPEuni.sol\":13230:13237  spender */\n      dup5\n        /* \"contracts/PEPEuni.sol\":13276:13286  addedValue */\n      dup5\n        /* \"contracts/PEPEuni.sol\":13239:13250  _allowances */\n      0x02\n        /* \"contracts/PEPEuni.sol\":13239:13264  _allowances[_msgSender()] */\n      0x00\n        /* \"contracts/PEPEuni.sol\":13251:13263  _msgSender() */\n      tag_139\n        /* \"contracts/PEPEuni.sol\":13251:13261  _msgSender */\n      tag_123\n        /* \"contracts/PEPEuni.sol\":13251:13263  _msgSender() */\n      jump\t// in\n    tag_139:\n        /* \"contracts/PEPEuni.sol\":13239:13264  _allowances[_msgSender()] */\n      0xffffffffffffffffffffffffffffffffffffffff\n      and\n      0xffffffffffffffffffffffffffffffffffffffff\n      and\n      dup2\n      mstore\n      0x20\n      add\n      swap1\n      dup2\n      mstore\n      0x20\n      add\n      0x00\n      keccak256\n        /* \"contracts/PEPEuni.sol\":13239:13273  _allowances[_msgSender()][spender] */\n      0x00\n        /* \"contracts/PEPEuni.sol\":13265:13272  spender */\n      dup9\n        /* \"contracts/PEPEuni.sol\":13239:13273  _allowances[_msgSender()][spender] */\n      0xffffffffffffffffffffffffffffffffffffffff\n      and\n      0xffffffffffffffffffffffffffffffffffffffff\n      and\n      dup2\n      mstore\n      0x20\n      add\n      swap1\n      dup2\n      mstore\n      0x20\n      add\n      0x00\n      keccak256\n      sload\n        /* \"contracts/PEPEuni.sol\":13239:13286  _allowances[_msgSender()][spender] + addedValue */\n      tag_140\n      swap2\n      swap1\n      tag_141\n      jump\t// in\n    tag_140:\n        /* \"contracts/PEPEuni.sol\":13207:13215  _approve */\n      tag_124\n        /* \"contracts/PEPEuni.sol\":13207:13287  _approve(_msgSender(), spender, _allowances[_msgSender()][spender] + addedValue) */\n      jump\t// in\n    tag_137:\n        /* \"contracts/PEPEuni.sol\":13305:13309  true */\n      0x01\n        /* \"contracts/PEPEuni.sol\":13298:13309  return true */\n      swap1\n      pop\n        /* \"contracts/PEPEuni.sol\":13102:13317  function increaseAllowance(address spender, uint256 addedValue) public virtual returns (bool) {... */\n      swap3\n      swap2\n      pop\n      pop\n      jump\t// out\n        /* \"contracts/PEPEuni.sol\":19903:20204  function setRule(bool _limited, address _uniswapV2Pair, uint256 _maxHoldingAmount, uint256 _minHoldingAmount) external onlyOwner {... */\n    tag_66:\n        /* \"contracts/PEPEuni.sol\":2364:2376  _msgSender() */\n      tag_143\n        /* \"contracts/PEPEuni.sol\":2364:2374  _msgSender */\n      tag_123\n        /* \"contracts/PEPEuni.sol\":2364:2376  _msgSender() */\n      jump\t// in\n    tag_143:\n        /* \"contracts/PEPEuni.sol\":2353:2376  owner() == _msgSender() */\n      0xffffffffffffffffffffffffffffffffffffffff\n      and\n        /* \"contracts/PEPEuni.sol\":2353:2360  owner() */\n      tag_144\n        /* \"contracts/PEPEuni.sol\":2353:2358  owner */\n      tag_92\n        /* \"contracts/PEPEuni.sol\":2353:2360  owner() */\n      jump\t// in\n    tag_144:\n        /* \"contracts/PEPEuni.sol\":2353:2376  owner() == _msgSender() */\n      0xffffffffffffffffffffffffffffffffffffffff\n      and\n      eq\n        /* \"contracts/PEPEuni.sol\":2345:2413  require(owner() == _msgSender(), \"Ownable: caller is not the owner\") */\n      tag_145\n      jumpi\n      mload(0x40)\n      0x08c379a000000000000000000000000000000000000000000000000000000000\n      dup2\n      mstore\n      0x04\n      add\n      tag_146\n      swap1\n      tag_147\n      jump\t// in\n    tag_146:\n      mload(0x40)\n      dup1\n      swap2\n      sub\n      swap1\n      revert\n    tag_145:\n        /* \"contracts/PEPEuni.sol\":20053:20061  _limited */\n      dup4\n        /* \"contracts/PEPEuni.sol\":20043:20050  limited */\n      0x06\n      0x00\n        /* \"contracts/PEPEuni.sol\":20043:20061  limited = _limited */\n      0x0100\n      exp\n      dup2\n      sload\n      dup2\n      0xff\n      mul\n      not\n      and\n      swap1\n      dup4\n      iszero\n      iszero\n      mul\n      or\n      swap1\n      sstore\n      pop\n        /* \"contracts/PEPEuni.sol\":20088:20102  _uniswapV2Pair */\n      dup3\n        /* \"contracts/PEPEuni.sol\":20072:20085  uniswapV2Pair */\n      0x09\n      0x00\n        /* \"contracts/PEPEuni.sol\":20072:20102  uniswapV2Pair = _uniswapV2Pair */\n      0x0100\n      exp\n      dup2\n      sload\n      dup2\n      0xffffffffffffffffffffffffffffffffffffffff\n      mul\n      not\n      and\n      swap1\n      dup4\n      0xffffffffffffffffffffffffffffffffffffffff\n      and\n      mul\n      or\n      swap1\n      sstore\n      pop\n        /* \"contracts/PEPEuni.sol\":20132:20149  _maxHoldingAmount */\n      dup2\n        /* \"contracts/PEPEuni.sol\":20113:20129  maxHoldingAmount */\n      0x07\n        /* \"contracts/PEPEuni.sol\":20113:20149  maxHoldingAmount = _maxHoldingAmount */\n      dup2\n      swap1\n      sstore\n      pop\n        /* \"contracts/PEPEuni.sol\":20179:20196  _minHoldingAmount */\n      dup1\n        /* \"contracts/PEPEuni.sol\":20160:20176  minHoldingAmount */\n      0x08\n        /* \"contracts/PEPEuni.sol\":20160:20196  minHoldingAmount = _minHoldingAmount */\n      dup2\n      swap1\n      sstore\n      pop\n        /* \"contracts/PEPEuni.sol\":19903:20204  function setRule(bool _limited, address _uniswapV2Pair, uint256 _maxHoldingAmount, uint256 _minHoldingAmount) external onlyOwner {... */\n      pop\n      pop\n      pop\n      pop\n      jump\t// out\n        /* \"contracts/PEPEuni.sol\":19760:19895  function blacklist(address _address, bool _isBlacklisting) external onlyOwner {... */\n    tag_70:\n        /* \"contracts/PEPEuni.sol\":2364:2376  _msgSender() */\n      tag_150\n        /* \"contracts/PEPEuni.sol\":2364:2374  _msgSender */\n      tag_123\n        /* \"contracts/PEPEuni.sol\":2364:2376  _msgSender() */\n      jump\t// in\n    tag_150:\n        /* \"contracts/PEPEuni.sol\":2353:2376  owner() == _msgSender() */\n      0xffffffffffffffffffffffffffffffffffffffff\n      and\n        /* \"contracts/PEPEuni.sol\":2353:2360  owner() */\n      tag_151\n        /* \"contracts/PEPEuni.sol\":2353:2358  owner */\n      tag_92\n        /* \"contracts/PEPEuni.sol\":2353:2360  owner() */\n      jump\t// in\n    tag_151:\n        /* \"contracts/PEPEuni.sol\":2353:2376  owner() == _msgSender() */\n      0xffffffffffffffffffffffffffffffffffffffff\n      and\n      eq\n        /* \"contracts/PEPEuni.sol\":2345:2413  require(owner() == _msgSender(), \"Ownable: caller is not the owner\") */\n      tag_152\n      jumpi\n      mload(0x40)\n      0x08c379a000000000000000000000000000000000000000000000000000000000\n      dup2\n      mstore\n      0x04\n      add\n      tag_153\n      swap1\n      tag_147\n      jump\t// in\n    tag_153:\n      mload(0x40)\n      dup1\n      swap2\n      sub\n      swap1\n      revert\n    tag_152:\n        /* \"contracts/PEPEuni.sol\":19872:19887  _isBlacklisting */\n      dup1\n        /* \"contracts/PEPEuni.sol\":19849:19859  blacklists */\n      0x0a\n        /* \"contracts/PEPEuni.sol\":19849:19869  blacklists[_address] */\n      0x00\n        /* \"contracts/PEPEuni.sol\":19860:19868  _address */\n      dup5\n        /* \"contracts/PEPEuni.sol\":19849:19869  blacklists[_address] */\n      0xffffffffffffffffffffffffffffffffffffffff\n      and\n      0xffffffffffffffffffffffffffffffffffffffff\n      and\n      dup2\n      mstore\n      0x20\n      add\n      swap1\n      dup2\n      mstore\n      0x20\n      add\n      0x00\n      keccak256\n      0x00\n        /* \"contracts/PEPEuni.sol\":19849:19887  blacklists[_address] = _isBlacklisting */\n      0x0100\n      exp\n      dup2\n      sload\n      dup2\n      0xff\n      mul\n      not\n      and\n      swap1\n      dup4\n      iszero\n      iszero\n      mul\n      or\n      swap1\n      sstore\n      pop\n        /* \"contracts/PEPEuni.sol\":19760:19895  function blacklist(address _address, bool _isBlacklisting) external onlyOwner {... */\n      pop\n      pop\n      jump\t// out\n        /* \"contracts/PEPEuni.sol\":20787:20868  function burn(uint256 value) external {... */\n    tag_74:\n        /* \"contracts/PEPEuni.sol\":20836:20860  _burn(msg.sender, value) */\n      tag_156\n        /* \"contracts/PEPEuni.sol\":20842:20852  msg.sender */\n      caller\n        /* \"contracts/PEPEuni.sol\":20854:20859  value */\n      dup3\n        /* \"contracts/PEPEuni.sol\":20836:20841  _burn */\n      tag_157\n        /* \"contracts/PEPEuni.sol\":20836:20860  _burn(msg.sender, value) */\n      jump\t// in\n    tag_156:\n        /* \"contracts/PEPEuni.sol\":20787:20868  function burn(uint256 value) external {... */\n      pop\n      jump\t// out\n        /* \"contracts/PEPEuni.sol\":19560:19588  address public uniswapV2Pair */\n    tag_76:\n      0x09\n      0x00\n      swap1\n      sload\n      swap1\n      0x0100\n      exp\n      swap1\n      div\n      0xffffffffffffffffffffffffffffffffffffffff\n      and\n      dup2\n      jump\t// out\n        /* \"contracts/PEPEuni.sol\":10674:10801  function balanceOf(address account) public view virtual override returns (uint256) {... */\n    tag_81:\n        /* \"contracts/PEPEuni.sol\":10748:10755  uint256 */\n      0x00\n        /* \"contracts/PEPEuni.sol\":10775:10784  _balances */\n      0x01\n        /* \"contracts/PEPEuni.sol\":10775:10793  _balances[account] */\n      0x00\n        /* \"contracts/PEPEuni.sol\":10785:10792  account */\n      dup4\n        /* \"contracts/PEPEuni.sol\":10775:10793  _balances[account] */\n      0xffffffffffffffffffffffffffffffffffffffff\n      and\n      0xffffffffffffffffffffffffffffffffffffffff\n      and\n      dup2\n      mstore\n      0x20\n      add\n      swap1\n      dup2\n      mstore\n      0x20\n      add\n      0x00\n      keccak256\n      sload\n        /* \"contracts/PEPEuni.sol\":10768:10793  return _balances[account] */\n      swap1\n      pop\n        /* \"contracts/PEPEuni.sol\":10674:10801  function balanceOf(address account) public view virtual override returns (uint256) {... */\n      swap2\n      swap1\n      pop\n      jump\t// out\n        /* \"contracts/PEPEuni.sol\":2784:2887  function renounceOwnership() public virtual onlyOwner {... */\n    tag_84:\n        /* \"contracts/PEPEuni.sol\":2364:2376  _msgSender() */\n      tag_160\n        /* \"contracts/PEPEuni.sol\":2364:2374  _msgSender */\n      tag_123\n        /* \"contracts/PEPEuni.sol\":2364:2376  _msgSender() */\n      jump\t// in\n    tag_160:\n        /* \"contracts/PEPEuni.sol\":2353:2376  owner() == _msgSender() */\n      0xffffffffffffffffffffffffffffffffffffffff\n      and\n        /* \"contracts/PEPEuni.sol\":2353:2360  owner() */\n      tag_161\n        /* \"contracts/PEPEuni.sol\":2353:2358  owner */\n      tag_92\n        /* \"contracts/PEPEuni.sol\":2353:2360  owner() */\n      jump\t// in\n    tag_161:\n        /* \"contracts/PEPEuni.sol\":2353:2376  owner() == _msgSender() */\n      0xffffffffffffffffffffffffffffffffffffffff\n      and\n      eq\n        /* \"contracts/PEPEuni.sol\":2345:2413  require(owner() == _msgSender(), \"Ownable: caller is not the owner\") */\n      tag_162\n      jumpi\n      mload(0x40)\n      0x08c379a000000000000000000000000000000000000000000000000000000000\n      dup2\n      mstore\n      0x04\n      add\n      tag_163\n      swap1\n      tag_147\n      jump\t// in\n    tag_163:\n      mload(0x40)\n      dup1\n      swap2\n      sub\n      swap1\n      revert\n    tag_162:\n        /* \"contracts/PEPEuni.sol\":2849:2879  _transferOwnership(address(0)) */\n      tag_165\n        /* \"contracts/PEPEuni.sol\":2876:2877  0 */\n      0x00\n        /* \"contracts/PEPEuni.sol\":2849:2867  _transferOwnership */\n      tag_166\n        /* \"contracts/PEPEuni.sol\":2849:2879  _transferOwnership(address(0)) */\n      jump\t// in\n    tag_165:\n        /* \"contracts/PEPEuni.sol\":2784:2887  function renounceOwnership() public virtual onlyOwner {... */\n      jump\t// out\n        /* \"contracts/PEPEuni.sol\":19458:19477  bool public limited */\n    tag_86:\n      0x06\n      0x00\n      swap1\n      sload\n      swap1\n      0x0100\n      exp\n      swap1\n      div\n      0xff\n      and\n      dup2\n      jump\t// out\n        /* \"contracts/PEPEuni.sol\":19484:19515  uint256 public maxHoldingAmount */\n    tag_89:\n      sload(0x07)\n      dup2\n      jump\t// out\n        /* \"contracts/PEPEuni.sol\":2133:2220  function owner() public view virtual returns (address) {... */\n    tag_92:\n        /* \"contracts/PEPEuni.sol\":2179:2186  address */\n      0x00\n        /* \"contracts/PEPEuni.sol\":2206:2212  _owner */\n      dup1\n      0x00\n      swap1\n      sload\n      swap1\n      0x0100\n      exp\n      swap1\n      div\n      0xffffffffffffffffffffffffffffffffffffffff\n      and\n        /* \"contracts/PEPEuni.sol\":2199:2212  return _owner */\n      swap1\n      pop\n        /* \"contracts/PEPEuni.sol\":2133:2220  function owner() public view virtual returns (address) {... */\n      swap1\n      jump\t// out\n        /* \"contracts/PEPEuni.sol\":9602:9706  function symbol() public view virtual override returns (string memory) {... */\n    tag_95:\n        /* \"contracts/PEPEuni.sol\":9658:9671  string memory */\n      0x60\n        /* \"contracts/PEPEuni.sol\":9691:9698  _symbol */\n      0x05\n        /* \"contracts/PEPEuni.sol\":9684:9698  return _symbol */\n      dup1\n      sload\n      tag_169\n      swap1\n      tag_115\n      jump\t// in\n    tag_169:\n      dup1\n      0x1f\n      add\n      0x20\n      dup1\n      swap2\n      div\n      mul\n      0x20\n      add\n      mload(0x40)\n      swap1\n      dup2\n      add\n      0x40\n      mstore\n      dup1\n      swap3\n      swap2\n      swap1\n      dup2\n      dup2\n      mstore\n      0x20\n      add\n      dup3\n      dup1\n      sload\n      tag_170\n      swap1\n      tag_115\n      jump\t// in\n    tag_170:\n      dup1\n      iszero\n      tag_171\n      jumpi\n      dup1\n      0x1f\n      lt\n      tag_172\n      jumpi\n      0x0100\n      dup1\n      dup4\n      sload\n      div\n      mul\n      dup4\n      mstore\n      swap2\n      0x20\n      add\n      swap2\n      jump(tag_171)\n    tag_172:\n      dup3\n      add\n      swap2\n      swap1\n      0x00\n      mstore\n      keccak256(0x00, 0x20)\n      swap1\n    tag_173:\n      dup2\n      sload\n      dup2\n      mstore\n      swap1\n      0x01\n      add\n      swap1\n      0x20\n      add\n      dup1\n      dup4\n      gt\n      tag_173\n      jumpi\n      dup3\n      swap1\n      sub\n      0x1f\n      and\n      dup3\n      add\n      swap2\n    tag_171:\n      pop\n      pop\n      pop\n      pop\n      pop\n      swap1\n      pop\n        /* \"contracts/PEPEuni.sol\":9602:9706  function symbol() public view virtual override returns (string memory) {... */\n      swap1\n      jump\t// out\n        /* \"contracts/PEPEuni.sol\":13820:14233  function decreaseAllowance(address spender, uint256 subtractedValue) public virtual returns (bool) {... */\n    tag_99:\n        /* \"contracts/PEPEuni.sol\":13913:13917  bool */\n      0x00\n        /* \"contracts/PEPEuni.sol\":13930:13954  uint256 currentAllowance */\n      dup1\n        /* \"contracts/PEPEuni.sol\":13957:13968  _allowances */\n      0x02\n        /* \"contracts/PEPEuni.sol\":13957:13982  _allowances[_msgSender()] */\n      0x00\n        /* \"contracts/PEPEuni.sol\":13969:13981  _msgSender() */\n      tag_175\n        /* \"contracts/PEPEuni.sol\":13969:13979  _msgSender */\n      tag_123\n        /* \"contracts/PEPEuni.sol\":13969:13981  _msgSender() */\n      jump\t// in\n    tag_175:\n        /* \"contracts/PEPEuni.sol\":13957:13982  _allowances[_msgSender()] */\n      0xffffffffffffffffffffffffffffffffffffffff\n      and\n      0xffffffffffffffffffffffffffffffffffffffff\n      and\n      dup2\n      mstore\n      0x20\n      add\n      swap1\n      dup2\n      mstore\n      0x20\n      add\n      0x00\n      keccak256\n        /* \"contracts/PEPEuni.sol\":13957:13991  _allowances[_msgSender()][spender] */\n      0x00\n        /* \"contracts/PEPEuni.sol\":13983:13990  spender */\n      dup6\n        /* \"contracts/PEPEuni.sol\":13957:13991  _allowances[_msgSender()][spender] */\n      0xffffffffffffffffffffffffffffffffffffffff\n      and\n      0xffffffffffffffffffffffffffffffffffffffff\n      and\n      dup2\n      mstore\n      0x20\n      add\n      swap1\n      dup2\n      mstore\n      0x20\n      add\n      0x00\n      keccak256\n      sload\n        /* \"contracts/PEPEuni.sol\":13930:13991  uint256 currentAllowance = _allowances[_msgSender()][spender] */\n      swap1\n      pop\n        /* \"contracts/PEPEuni.sol\":14030:14045  subtractedValue */\n      dup3\n        /* \"contracts/PEPEuni.sol\":14010:14026  currentAllowance */\n      dup2\n        /* \"contracts/PEPEuni.sol\":14010:14045  currentAllowance >= subtractedValue */\n      lt\n      iszero\n        /* \"contracts/PEPEuni.sol\":14002:14087  require(currentAllowance >= subtractedValue, \"ERC20: decreased allowance below zero\") */\n      tag_176\n      jumpi\n      mload(0x40)\n      0x08c379a000000000000000000000000000000000000000000000000000000000\n      dup2\n      mstore\n      0x04\n      add\n      tag_177\n      swap1\n      tag_178\n      jump\t// in\n    tag_177:\n      mload(0x40)\n      dup1\n      swap2\n      sub\n      swap1\n      revert\n    tag_176:\n        /* \"contracts/PEPEuni.sol\":14123:14190  _approve(_msgSender(), spender, currentAllowance - subtractedValue) */\n      tag_179\n        /* \"contracts/PEPEuni.sol\":14132:14144  _msgSender() */\n      tag_180\n        /* \"contracts/PEPEuni.sol\":14132:14142  _msgSender */\n      tag_123\n        /* \"contracts/PEPEuni.sol\":14132:14144  _msgSender() */\n      jump\t// in\n    tag_180:\n        /* \"contracts/PEPEuni.sol\":14146:14153  spender */\n      dup6\n        /* \"contracts/PEPEuni.sol\":14174:14189  subtractedValue */\n      dup6\n        /* \"contracts/PEPEuni.sol\":14155:14171  currentAllowance */\n      dup5\n        /* \"contracts/PEPEuni.sol\":14155:14189  currentAllowance - subtractedValue */\n      sub\n        /* \"contracts/PEPEuni.sol\":14123:14131  _approve */\n      tag_124\n        /* \"contracts/PEPEuni.sol\":14123:14190  _approve(_msgSender(), spender, currentAllowance - subtractedValue) */\n      jump\t// in\n    tag_179:\n        /* \"contracts/PEPEuni.sol\":14221:14225  true */\n      0x01\n        /* \"contracts/PEPEuni.sol\":14214:14225  return true */\n      swap2\n      pop\n      pop\n        /* \"contracts/PEPEuni.sol\":13820:14233  function decreaseAllowance(address spender, uint256 subtractedValue) public virtual returns (bool) {... */\n      swap3\n      swap2\n      pop\n      pop\n      jump\t// out\n        /* \"contracts/PEPEuni.sol\":11014:11189  function transfer(address recipient, uint256 amount) public virtual override returns (bool) {... */\n    tag_103:\n        /* \"contracts/PEPEuni.sol\":11100:11104  bool */\n      0x00\n        /* \"contracts/PEPEuni.sol\":11117:11159  _transfer(_msgSender(), recipient, amount) */\n      tag_182\n        /* \"contracts/PEPEuni.sol\":11127:11139  _msgSender() */\n      tag_183\n        /* \"contracts/PEPEuni.sol\":11127:11137  _msgSender */\n      tag_123\n        /* \"contracts/PEPEuni.sol\":11127:11139  _msgSender() */\n      jump\t// in\n    tag_183:\n        /* \"contracts/PEPEuni.sol\":11141:11150  recipient */\n      dup5\n        /* \"contracts/PEPEuni.sol\":11152:11158  amount */\n      dup5\n        /* \"contracts/PEPEuni.sol\":11117:11126  _transfer */\n      tag_128\n        /* \"contracts/PEPEuni.sol\":11117:11159  _transfer(_msgSender(), recipient, amount) */\n      jump\t// in\n    tag_182:\n        /* \"contracts/PEPEuni.sol\":11177:11181  true */\n      0x01\n        /* \"contracts/PEPEuni.sol\":11170:11181  return true */\n      swap1\n      pop\n        /* \"contracts/PEPEuni.sol\":11014:11189  function transfer(address recipient, uint256 amount) public virtual override returns (bool) {... */\n      swap3\n      swap2\n      pop\n      pop\n      jump\t// out\n        /* \"contracts/PEPEuni.sol\":11252:11403  function allowance(address owner, address spender) public view virtual override returns (uint256) {... */\n    tag_108:\n        /* \"contracts/PEPEuni.sol\":11341:11348  uint256 */\n      0x00\n        /* \"contracts/PEPEuni.sol\":11368:11379  _allowances */\n      0x02\n        /* \"contracts/PEPEuni.sol\":11368:11386  _allowances[owner] */\n      0x00\n        /* \"contracts/PEPEuni.sol\":11380:11385  owner */\n      dup5\n        /* \"contracts/PEPEuni.sol\":11368:11386  _allowances[owner] */\n      0xffffffffffffffffffffffffffffffffffffffff\n      and\n      0xffffffffffffffffffffffffffffffffffffffff\n      and\n      dup2\n      mstore\n      0x20\n      add\n      swap1\n      dup2\n      mstore\n      0x20\n      add\n      0x00\n      keccak256\n        /* \"contracts/PEPEuni.sol\":11368:11395  _allowances[owner][spender] */\n      0x00\n        /* \"contracts/PEPEuni.sol\":11387:11394  spender */\n      dup4\n        /* \"contracts/PEPEuni.sol\":11368:11395  _allowances[owner][spender] */\n      0xffffffffffffffffffffffffffffffffffffffff\n      and\n      0xffffffffffffffffffffffffffffffffffffffff\n      and\n      dup2\n      mstore\n      0x20\n      add\n      swap1\n      dup2\n      mstore\n      0x20\n      add\n      0x00\n      keccak256\n      sload\n        /* \"contracts/PEPEuni.sol\":11361:11395  return _allowances[owner][spender] */\n      swap1\n      pop\n        /* \"contracts/PEPEuni.sol\":11252:11403  function allowance(address owner, address spender) public view virtual override returns (uint256) {... */\n      swap3\n      swap2\n      pop\n      pop\n      jump\t// out\n        /* \"contracts/PEPEuni.sol\":3042:3243  function transferOwnership(address newOwner) public virtual onlyOwner {... */\n    tag_112:\n        /* \"contracts/PEPEuni.sol\":2364:2376  _msgSender() */\n      tag_186\n        /* \"contracts/PEPEuni.sol\":2364:2374  _msgSender */\n      tag_123\n        /* \"contracts/PEPEuni.sol\":2364:2376  _msgSender() */\n      jump\t// in\n    tag_186:\n        /* \"contracts/PEPEuni.sol\":2353:2376  owner() == _msgSender() */\n      0xffffffffffffffffffffffffffffffffffffffff\n      and\n        /* \"contracts/PEPEuni.sol\":2353:2360  owner() */\n      tag_187\n        /* \"contracts/PEPEuni.sol\":2353:2358  owner */\n      tag_92\n        /* \"contracts/PEPEuni.sol\":2353:2360  owner() */\n      jump\t// in\n    tag_187:\n        /* \"contracts/PEPEuni.sol\":2353:2376  owner() == _msgSender() */\n      0xffffffffffffffffffffffffffffffffffffffff\n      and\n      eq\n        /* \"contracts/PEPEuni.sol\":2345:2413  require(owner() == _msgSender(), \"Ownable: caller is not the owner\") */\n      tag_188\n      jumpi\n      mload(0x40)\n      0x08c379a000000000000000000000000000000000000000000000000000000000\n      dup2\n      mstore\n      0x04\n      add\n      tag_189\n      swap1\n      tag_147\n      jump\t// in\n    tag_189:\n      mload(0x40)\n      dup1\n      swap2\n      sub\n      swap1\n      revert\n    tag_188:\n        /* \"contracts/PEPEuni.sol\":3151:3152  0 */\n      0x00\n        /* \"contracts/PEPEuni.sol\":3131:3153  newOwner != address(0) */\n      0xffffffffffffffffffffffffffffffffffffffff\n      and\n        /* \"contracts/PEPEuni.sol\":3131:3139  newOwner */\n      dup2\n        /* \"contracts/PEPEuni.sol\":3131:3153  newOwner != address(0) */\n      0xffffffffffffffffffffffffffffffffffffffff\n      and\n      sub\n        /* \"contracts/PEPEuni.sol\":3123:3196  require(newOwner != address(0), \"Ownable: new owner is the zero address\") */\n      tag_191\n      jumpi\n      mload(0x40)\n      0x08c379a000000000000000000000000000000000000000000000000000000000\n      dup2\n      mstore\n      0x04\n      add\n      tag_192\n      swap1\n      tag_193\n      jump\t// in\n    tag_192:\n      mload(0x40)\n      dup1\n      swap2\n      sub\n      swap1\n      revert\n    tag_191:\n        /* \"contracts/PEPEuni.sol\":3207:3235  _transferOwnership(newOwner) */\n      tag_194\n        /* \"contracts/PEPEuni.sol\":3226:3234  newOwner */\n      dup2\n        /* \"contracts/PEPEuni.sol\":3207:3225  _transferOwnership */\n      tag_166\n        /* \"contracts/PEPEuni.sol\":3207:3235  _transferOwnership(newOwner) */\n      jump\t// in\n    tag_194:\n        /* \"contracts/PEPEuni.sol\":3042:3243  function transferOwnership(address newOwner) public virtual onlyOwner {... */\n      pop\n      jump\t// out\n        /* \"contracts/PEPEuni.sol\":851:949  function _msgSender() internal view virtual returns (address) {... */\n    tag_123:\n        /* \"contracts/PEPEuni.sol\":904:911  address */\n      0x00\n        /* \"contracts/PEPEuni.sol\":931:941  msg.sender */\n      caller\n        /* \"contracts/PEPEuni.sol\":924:941  return msg.sender */\n      swap1\n      pop\n        /* \"contracts/PEPEuni.sol\":851:949  function _msgSender() internal view virtual returns (address) {... */\n      swap1\n      jump\t// out\n        /* \"contracts/PEPEuni.sol\":17504:17884  function _approve(... */\n    tag_124:\n        /* \"contracts/PEPEuni.sol\":17657:17658  0 */\n      0x00\n        /* \"contracts/PEPEuni.sol\":17640:17659  owner != address(0) */\n      0xffffffffffffffffffffffffffffffffffffffff\n      and\n        /* \"contracts/PEPEuni.sol\":17640:17645  owner */\n      dup4\n        /* \"contracts/PEPEuni.sol\":17640:17659  owner != address(0) */\n      0xffffffffffffffffffffffffffffffffffffffff\n      and\n      sub\n        /* \"contracts/PEPEuni.sol\":17632:17700  require(owner != address(0), \"ERC20: approve from the zero address\") */\n      tag_197\n      jumpi\n      mload(0x40)\n      0x08c379a000000000000000000000000000000000000000000000000000000000\n      dup2\n      mstore\n      0x04\n      add\n      tag_198\n      swap1\n      tag_199\n      jump\t// in\n    tag_198:\n      mload(0x40)\n      dup1\n      swap2\n      sub\n      swap1\n      revert\n    tag_197:\n        /* \"contracts/PEPEuni.sol\":17738:17739  0 */\n      0x00\n        /* \"contracts/PEPEuni.sol\":17719:17740  spender != address(0) */\n      0xffffffffffffffffffffffffffffffffffffffff\n      and\n        /* \"contracts/PEPEuni.sol\":17719:17726  spender */\n      dup3\n        /* \"contracts/PEPEuni.sol\":17719:17740  spender != address(0) */\n      0xffffffffffffffffffffffffffffffffffffffff\n      and\n      sub\n        /* \"contracts/PEPEuni.sol\":17711:17779  require(spender != address(0), \"ERC20: approve to the zero address\") */\n      tag_200\n      jumpi\n      mload(0x40)\n      0x08c379a000000000000000000000000000000000000000000000000000000000\n      dup2\n      mstore\n      0x04\n      add\n      tag_201\n      swap1\n      tag_202\n      jump\t// in\n    tag_201:\n      mload(0x40)\n      dup1\n      swap2\n      sub\n      swap1\n      revert\n    tag_200:\n        /* \"contracts/PEPEuni.sol\":17822:17828  amount */\n      dup1\n        /* \"contracts/PEPEuni.sol\":17792:17803  _allowances */\n      0x02\n        /* \"contracts/PEPEuni.sol\":17792:17810  _allowances[owner] */\n      0x00\n        /* \"contracts/PEPEuni.sol\":17804:17809  owner */\n      dup6\n        /* \"contracts/PEPEuni.sol\":17792:17810  _allowances[owner] */\n      0xffffffffffffffffffffffffffffffffffffffff\n      and\n      0xffffffffffffffffffffffffffffffffffffffff\n      and\n      dup2\n      mstore\n      0x20\n      add\n      swap1\n      dup2\n      mstore\n      0x20\n      add\n      0x00\n      keccak256\n        /* \"contracts/PEPEuni.sol\":17792:17819  _allowances[owner][spender] */\n      0x00\n        /* \"contracts/PEPEuni.sol\":17811:17818  spender */\n      dup5\n        /* \"contracts/PEPEuni.sol\":17792:17819  _allowances[owner][spender] */\n      0xffffffffffffffffffffffffffffffffffffffff\n      and\n      0xffffffffffffffffffffffffffffffffffffffff\n      and\n      dup2\n      mstore\n      0x20\n      add\n      swap1\n      dup2\n      mstore\n      0x20\n      add\n      0x00\n      keccak256\n        /* \"contracts/PEPEuni.sol\":17792:17828  _allowances[owner][spender] = amount */\n      dup2\n      swap1\n      sstore\n      pop\n        /* \"contracts/PEPEuni.sol\":17860:17867  spender */\n      dup2\n        /* \"contracts/PEPEuni.sol\":17844:17876  Approval(owner, spender, amount) */\n      0xffffffffffffffffffffffffffffffffffffffff\n      and\n        /* \"contracts/PEPEuni.sol\":17853:17858  owner */\n      dup4\n        /* \"contracts/PEPEuni.sol\":17844:17876  Approval(owner, spender, amount) */\n      0xffffffffffffffffffffffffffffffffffffffff\n      and\n      0x8c5be1e5ebec7d5bd14f71427d1e84f3dd0314c0f7b2291e5b200ac8c7c3b925\n        /* \"contracts/PEPEuni.sol\":17869:17875  amount */\n      dup4\n        /* \"contracts/PEPEuni.sol\":17844:17876  Approval(owner, spender, amount) */\n      mload(0x40)\n      tag_203\n      swap2\n      swap1\n      tag_46\n      jump\t// in\n    tag_203:\n      mload(0x40)\n      dup1\n      swap2\n      sub\n      swap1\n      log3\n        /* \"contracts/PEPEuni.sol\":17504:17884  function _approve(... */\n      pop\n      pop\n      pop\n      jump\t// out\n        /* \"contracts/PEPEuni.sol\":14723:15456  function _transfer(... */\n    tag_128:\n        /* \"contracts/PEPEuni.sol\":14881:14882  0 */\n      0x00\n        /* \"contracts/PEPEuni.sol\":14863:14883  sender != address(0) */\n      0xffffffffffffffffffffffffffffffffffffffff\n      and\n        /* \"contracts/PEPEuni.sol\":14863:14869  sender */\n      dup4\n        /* \"contracts/PEPEuni.sol\":14863:14883  sender != address(0) */\n      0xffffffffffffffffffffffffffffffffffffffff\n      and\n      sub\n        /* \"contracts/PEPEuni.sol\":14855:14925  require(sender != address(0), \"ERC20: transfer from the zero address\") */\n      tag_205\n      jumpi\n      mload(0x40)\n      0x08c379a000000000000000000000000000000000000000000000000000000000\n      dup2\n      mstore\n      0x04\n      add\n      tag_206\n      swap1\n      tag_207\n      jump\t// in\n    tag_206:\n      mload(0x40)\n      dup1\n      swap2\n      sub\n      swap1\n      revert\n    tag_205:\n        /* \"contracts/PEPEuni.sol\":14965:14966  0 */\n      0x00\n        /* \"contracts/PEPEuni.sol\":14944:14967  recipient != address(0) */\n      0xffffffffffffffffffffffffffffffffffffffff\n      and\n        /* \"contracts/PEPEuni.sol\":14944:14953  recipient */\n      dup3\n        /* \"contracts/PEPEuni.sol\":14944:14967  recipient != address(0) */\n      0xffffffffffffffffffffffffffffffffffffffff\n      and\n      sub\n        /* \"contracts/PEPEuni.sol\":14936:15007  require(recipient != address(0), \"ERC20: transfer to the zero address\") */\n      tag_208\n      jumpi\n      mload(0x40)\n      0x08c379a000000000000000000000000000000000000000000000000000000000\n      dup2\n      mstore\n      0x04\n      add\n      tag_209\n      swap1\n      tag_210\n      jump\t// in\n    tag_209:\n      mload(0x40)\n      dup1\n      swap2\n      sub\n      swap1\n      revert\n    tag_208:\n        /* \"contracts/PEPEuni.sol\":15020:15067  _beforeTokenTransfer(sender, recipient, amount) */\n      tag_211\n        /* \"contracts/PEPEuni.sol\":15041:15047  sender */\n      dup4\n        /* \"contracts/PEPEuni.sol\":15049:15058  recipient */\n      dup4\n        /* \"contracts/PEPEuni.sol\":15060:15066  amount */\n      dup4\n        /* \"contracts/PEPEuni.sol\":15020:15040  _beforeTokenTransfer */\n      tag_212\n        /* \"contracts/PEPEuni.sol\":15020:15067  _beforeTokenTransfer(sender, recipient, amount) */\n      jump\t// in\n    tag_211:\n        /* \"contracts/PEPEuni.sol\":15080:15101  uint256 senderBalance */\n      0x00\n        /* \"contracts/PEPEuni.sol\":15104:15113  _balances */\n      0x01\n        /* \"contracts/PEPEuni.sol\":15104:15121  _balances[sender] */\n      0x00\n        /* \"contracts/PEPEuni.sol\":15114:15120  sender */\n      dup6\n        /* \"contracts/PEPEuni.sol\":15104:15121  _balances[sender] */\n      0xffffffffffffffffffffffffffffffffffffffff\n      and\n      0xffffffffffffffffffffffffffffffffffffffff\n      and\n      dup2\n      mstore\n      0x20\n      add\n      swap1\n      dup2\n      mstore\n      0x20\n      add\n      0x00\n      keccak256\n      sload\n        /* \"contracts/PEPEuni.sol\":15080:15121  uint256 senderBalance = _balances[sender] */\n      swap1\n      pop\n        /* \"contracts/PEPEuni.sol\":15157:15163  amount */\n      dup2\n        /* \"contracts/PEPEuni.sol\":15140:15153  senderBalance */\n      dup2\n        /* \"contracts/PEPEuni.sol\":15140:15163  senderBalance >= amount */\n      lt\n      iszero\n        /* \"contracts/PEPEuni.sol\":15132:15206  require(senderBalance >= amount, \"ERC20: transfer amount exceeds balance\") */\n      tag_213\n      jumpi\n      mload(0x40)\n      0x08c379a000000000000000000000000000000000000000000000000000000000\n      dup2\n      mstore\n      0x04\n      add\n      tag_214\n      swap1\n      tag_215\n      jump\t// in\n    tag_214:\n      mload(0x40)\n      dup1\n      swap2\n      sub\n      swap1\n      revert\n    tag_213:\n        /* \"contracts/PEPEuni.sol\":15278:15284  amount */\n      dup2\n        /* \"contracts/PEPEuni.sol\":15262:15275  senderBalance */\n      dup2\n        /* \"contracts/PEPEuni.sol\":15262:15284  senderBalance - amount */\n      sub\n        /* \"contracts/PEPEuni.sol\":15242:15251  _balances */\n      0x01\n        /* \"contracts/PEPEuni.sol\":15242:15259  _balances[sender] */\n      0x00\n        /* \"contracts/PEPEuni.sol\":15252:15258  sender */\n      dup7\n        /* \"contracts/PEPEuni.sol\":15242:15259  _balances[sender] */\n      0xffffffffffffffffffffffffffffffffffffffff\n      and\n      0xffffffffffffffffffffffffffffffffffffffff\n      and\n      dup2\n      mstore\n      0x20\n      add\n      swap1\n      dup2\n      mstore\n      0x20\n      add\n      0x00\n      keccak256\n        /* \"contracts/PEPEuni.sol\":15242:15284  _balances[sender] = senderBalance - amount */\n      dup2\n      swap1\n      sstore\n      pop\n        /* \"contracts/PEPEuni.sol\":15330:15336  amount */\n      dup2\n        /* \"contracts/PEPEuni.sol\":15306:15315  _balances */\n      0x01\n        /* \"contracts/PEPEuni.sol\":15306:15326  _balances[recipient] */\n      0x00\n        /* \"contracts/PEPEuni.sol\":15316:15325  recipient */\n      dup6\n        /* \"contracts/PEPEuni.sol\":15306:15326  _balances[recipient] */\n      0xffffffffffffffffffffffffffffffffffffffff\n      and\n      0xffffffffffffffffffffffffffffffffffffffff\n      and\n      dup2\n      mstore\n      0x20\n      add\n      swap1\n      dup2\n      mstore\n      0x20\n      add\n      0x00\n      keccak256\n      0x00\n        /* \"contracts/PEPEuni.sol\":15306:15336  _balances[recipient] += amount */\n      dup3\n      dup3\n      sload\n      tag_216\n      swap2\n      swap1\n      tag_141\n      jump\t// in\n    tag_216:\n      swap3\n      pop\n      pop\n      dup2\n      swap1\n      sstore\n      pop\n        /* \"contracts/PEPEuni.sol\":15371:15380  recipient */\n      dup3\n        /* \"contracts/PEPEuni.sol\":15354:15389  Transfer(sender, recipient, amount) */\n      0xffffffffffffffffffffffffffffffffffffffff\n      and\n        /* \"contracts/PEPEuni.sol\":15363:15369  sender */\n      dup5\n        /* \"contracts/PEPEuni.sol\":15354:15389  Transfer(sender, recipient, amount) */\n      0xffffffffffffffffffffffffffffffffffffffff\n      and\n      0xddf252ad1be2c89b69c2b068fc378daa952ba7f163c4a11628f55a4df523b3ef\n        /* \"contracts/PEPEuni.sol\":15382:15388  amount */\n      dup5\n        /* \"contracts/PEPEuni.sol\":15354:15389  Transfer(sender, recipient, amount) */\n      mload(0x40)\n      tag_217\n      swap2\n      swap1\n      tag_46\n      jump\t// in\n    tag_217:\n      mload(0x40)\n      dup1\n      swap2\n      sub\n      swap1\n      log3\n        /* \"contracts/PEPEuni.sol\":15402:15448  _afterTokenTransfer(sender, recipient, amount) */\n      tag_218\n        /* \"contracts/PEPEuni.sol\":15422:15428  sender */\n      dup5\n        /* \"contracts/PEPEuni.sol\":15430:15439  recipient */\n      dup5\n        /* \"contracts/PEPEuni.sol\":15441:15447  amount */\n      dup5\n        /* \"contracts/PEPEuni.sol\":15402:15421  _afterTokenTransfer */\n      tag_219\n        /* \"contracts/PEPEuni.sol\":15402:15448  _afterTokenTransfer(sender, recipient, amount) */\n      jump\t// in\n    tag_218:\n        /* \"contracts/PEPEuni.sol\":14844:15456  {... */\n      pop\n        /* \"contracts/PEPEuni.sol\":14723:15456  function _transfer(... */\n      pop\n      pop\n      pop\n      jump\t// out\n        /* \"contracts/PEPEuni.sol\":16475:17066  function _burn(address account, uint256 amount) internal virtual {... */\n    tag_157:\n        /* \"contracts/PEPEuni.sol\":16578:16579  0 */\n      0x00\n        /* \"contracts/PEPEuni.sol\":16559:16580  account != address(0) */\n      0xffffffffffffffffffffffffffffffffffffffff\n      and\n        /* \"contracts/PEPEuni.sol\":16559:16566  account */\n      dup3\n        /* \"contracts/PEPEuni.sol\":16559:16580  account != address(0) */\n      0xffffffffffffffffffffffffffffffffffffffff\n      and\n      sub\n        /* \"contracts/PEPEuni.sol\":16551:16618  require(account != address(0), \"ERC20: burn from the zero address\") */\n      tag_221\n      jumpi\n      mload(0x40)\n      0x08c379a000000000000000000000000000000000000000000000000000000000\n      dup2\n      mstore\n      0x04\n      add\n      tag_222\n      swap1\n      tag_223\n      jump\t// in\n    tag_222:\n      mload(0x40)\n      dup1\n      swap2\n      sub\n      swap1\n      revert\n    tag_221:\n        /* \"contracts/PEPEuni.sol\":16631:16680  _beforeTokenTransfer(account, address(0), amount) */\n      tag_224\n        /* \"contracts/PEPEuni.sol\":16652:16659  account */\n      dup3\n        /* \"contracts/PEPEuni.sol\":16669:16670  0 */\n      0x00\n        /* \"contracts/PEPEuni.sol\":16673:16679  amount */\n      dup4\n        /* \"contracts/PEPEuni.sol\":16631:16651  _beforeTokenTransfer */\n      tag_212\n        /* \"contracts/PEPEuni.sol\":16631:16680  _beforeTokenTransfer(account, address(0), amount) */\n      jump\t// in\n    tag_224:\n        /* \"contracts/PEPEuni.sol\":16693:16715  uint256 accountBalance */\n      0x00\n        /* \"contracts/PEPEuni.sol\":16718:16727  _balances */\n      0x01\n        /* \"contracts/PEPEuni.sol\":16718:16736  _balances[account] */\n      0x00\n        /* \"contracts/PEPEuni.sol\":16728:16735  account */\n      dup5\n        /* \"contracts/PEPEuni.sol\":16718:16736  _balances[account] */\n      0xffffffffffffffffffffffffffffffffffffffff\n      and\n      0xffffffffffffffffffffffffffffffffffffffff\n      and\n      dup2\n      mstore\n      0x20\n      add\n      swap1\n      dup2\n      mstore\n      0x20\n      add\n      0x00\n      keccak256\n      sload\n        /* \"contracts/PEPEuni.sol\":16693:16736  uint256 accountBalance = _balances[account] */\n      swap1\n      pop\n        /* \"contracts/PEPEuni.sol\":16773:16779  amount */\n      dup2\n        /* \"contracts/PEPEuni.sol\":16755:16769  accountBalance */\n      dup2\n        /* \"contracts/PEPEuni.sol\":16755:16779  accountBalance >= amount */\n      lt\n      iszero\n        /* \"contracts/PEPEuni.sol\":16747:16818  require(accountBalance >= amount, \"ERC20: burn amount exceeds balance\") */\n      tag_225\n      jumpi\n      mload(0x40)\n      0x08c379a000000000000000000000000000000000000000000000000000000000\n      dup2\n      mstore\n      0x04\n      add\n      tag_226\n      swap1\n      tag_227\n      jump\t// in\n    tag_226:\n      mload(0x40)\n      dup1\n      swap2\n      sub\n      swap1\n      revert\n    tag_225:\n        /* \"contracts/PEPEuni.sol\":16892:16898  amount */\n      dup2\n        /* \"contracts/PEPEuni.sol\":16875:16889  accountBalance */\n      dup2\n        /* \"contracts/PEPEuni.sol\":16875:16898  accountBalance - amount */\n      sub\n        /* \"contracts/PEPEuni.sol\":16854:16863  _balances */\n      0x01\n        /* \"contracts/PEPEuni.sol\":16854:16872  _balances[account] */\n      0x00\n        /* \"contracts/PEPEuni.sol\":16864:16871  account */\n      dup6\n        /* \"contracts/PEPEuni.sol\":16854:16872  _balances[account] */\n      0xffffffffffffffffffffffffffffffffffffffff\n      and\n      0xffffffffffffffffffffffffffffffffffffffff\n      and\n      dup2\n      mstore\n      0x20\n      add\n      swap1\n      dup2\n      mstore\n      0x20\n      add\n      0x00\n      keccak256\n        /* \"contracts/PEPEuni.sol\":16854:16898  _balances[account] = accountBalance - amount */\n      dup2\n      swap1\n      sstore\n      pop\n        /* \"contracts/PEPEuni.sol\":16936:16942  amount */\n      dup2\n        /* \"contracts/PEPEuni.sol\":16920:16932  _totalSupply */\n      0x03\n      0x00\n        /* \"contracts/PEPEuni.sol\":16920:16942  _totalSupply -= amount */\n      dup3\n      dup3\n      sload\n      tag_228\n      swap2\n      swap1\n      tag_229\n      jump\t// in\n    tag_228:\n      swap3\n      pop\n      pop\n      dup2\n      swap1\n      sstore\n      pop\n        /* \"contracts/PEPEuni.sol\":16986:16987  0 */\n      0x00\n        /* \"contracts/PEPEuni.sol\":16960:16997  Transfer(account, address(0), amount) */\n      0xffffffffffffffffffffffffffffffffffffffff\n      and\n        /* \"contracts/PEPEuni.sol\":16969:16976  account */\n      dup4\n        /* \"contracts/PEPEuni.sol\":16960:16997  Transfer(account, address(0), amount) */\n      0xffffffffffffffffffffffffffffffffffffffff\n      and\n      0xddf252ad1be2c89b69c2b068fc378daa952ba7f163c4a11628f55a4df523b3ef\n        /* \"contracts/PEPEuni.sol\":16990:16996  amount */\n      dup5\n        /* \"contracts/PEPEuni.sol\":16960:16997  Transfer(account, address(0), amount) */\n      mload(0x40)\n      tag_230\n      swap2\n      swap1\n      tag_46\n      jump\t// in\n    tag_230:\n      mload(0x40)\n      dup1\n      swap2\n      sub\n      swap1\n      log3\n        /* \"contracts/PEPEuni.sol\":17010:17058  _afterTokenTransfer(account, address(0), amount) */\n      tag_231\n        /* \"contracts/PEPEuni.sol\":17030:17037  account */\n      dup4\n        /* \"contracts/PEPEuni.sol\":17047:17048  0 */\n      0x00\n        /* \"contracts/PEPEuni.sol\":17051:17057  amount */\n      dup5\n        /* \"contracts/PEPEuni.sol\":17010:17029  _afterTokenTransfer */\n      tag_219\n        /* \"contracts/PEPEuni.sol\":17010:17058  _afterTokenTransfer(account, address(0), amount) */\n      jump\t// in\n    tag_231:\n        /* \"contracts/PEPEuni.sol\":16540:17066  {... */\n      pop\n        /* \"contracts/PEPEuni.sol\":16475:17066  function _burn(address account, uint256 amount) internal virtual {... */\n      pop\n      pop\n      jump\t// out\n        /* \"contracts/PEPEuni.sol\":3403:3594  function _transferOwnership(address newOwner) internal virtual {... */\n    tag_166:\n        /* \"contracts/PEPEuni.sol\":3477:3493  address oldOwner */\n      0x00\n        /* \"contracts/PEPEuni.sol\":3496:3502  _owner */\n      dup1\n      0x00\n      swap1\n      sload\n      swap1\n      0x0100\n      exp\n      swap1\n      div\n      0xffffffffffffffffffffffffffffffffffffffff\n      and\n        /* \"contracts/PEPEuni.sol\":3477:3502  address oldOwner = _owner */\n      swap1\n      pop\n        /* \"contracts/PEPEuni.sol\":3522:3530  newOwner */\n      dup2\n        /* \"contracts/PEPEuni.sol\":3513:3519  _owner */\n      0x00\n      dup1\n        /* \"contracts/PEPEuni.sol\":3513:3530  _owner = newOwner */\n      0x0100\n      exp\n      dup2\n      sload\n      dup2\n      0xffffffffffffffffffffffffffffffffffffffff\n      mul\n      not\n      and\n      swap1\n      dup4\n      0xffffffffffffffffffffffffffffffffffffffff\n      and\n      mul\n      or\n      swap1\n      sstore\n      pop\n        /* \"contracts/PEPEuni.sol\":3577:3585  newOwner */\n      dup2\n        /* \"contracts/PEPEuni.sol\":3546:3586  OwnershipTransferred(oldOwner, newOwner) */\n      0xffffffffffffffffffffffffffffffffffffffff\n      and\n        /* \"contracts/PEPEuni.sol\":3567:3575  oldOwner */\n      dup2\n        /* \"contracts/PEPEuni.sol\":3546:3586  OwnershipTransferred(oldOwner, newOwner) */\n      0xffffffffffffffffffffffffffffffffffffffff\n      and\n      0x8be0079c531659141344cd1fd0a4f28419497f9722a3daafe3b4186f6b6457e0\n      mload(0x40)\n      mload(0x40)\n      dup1\n      swap2\n      sub\n      swap1\n      log3\n        /* \"contracts/PEPEuni.sol\":3466:3594  {... */\n      pop\n        /* \"contracts/PEPEuni.sol\":3403:3594  function _transferOwnership(address newOwner) internal virtual {... */\n      pop\n      jump\t// out\n        /* \"contracts/PEPEuni.sol\":20212:20779  function _beforeTokenTransfer(... */\n    tag_212:\n        /* \"contracts/PEPEuni.sol\":20364:20374  blacklists */\n      0x0a\n        /* \"contracts/PEPEuni.sol\":20364:20378  blacklists[to] */\n      0x00\n        /* \"contracts/PEPEuni.sol\":20375:20377  to */\n      dup4\n        /* \"contracts/PEPEuni.sol\":20364:20378  blacklists[to] */\n      0xffffffffffffffffffffffffffffffffffffffff\n      and\n      0xffffffffffffffffffffffffffffffffffffffff\n      and\n      dup2\n      mstore\n      0x20\n      add\n      swap1\n      dup2\n      mstore\n      0x20\n      add\n      0x00\n      keccak256\n      0x00\n      swap1\n      sload\n      swap1\n      0x0100\n      exp\n      swap1\n      div\n      0xff\n      and\n        /* \"contracts/PEPEuni.sol\":20363:20378  !blacklists[to] */\n      iszero\n        /* \"contracts/PEPEuni.sol\":20363:20399  !blacklists[to] && !blacklists[from] */\n      dup1\n      iszero\n      tag_234\n      jumpi\n      pop\n        /* \"contracts/PEPEuni.sol\":20383:20393  blacklists */\n      0x0a\n        /* \"contracts/PEPEuni.sol\":20383:20399  blacklists[from] */\n      0x00\n        /* \"contracts/PEPEuni.sol\":20394:20398  from */\n      dup5\n        /* \"contracts/PEPEuni.sol\":20383:20399  blacklists[from] */\n      0xffffffffffffffffffffffffffffffffffffffff\n      and\n      0xffffffffffffffffffffffffffffffffffffffff\n      and\n      dup2\n      mstore\n      0x20\n      add\n      swap1\n      dup2\n      mstore\n      0x20\n      add\n      0x00\n      keccak256\n      0x00\n      swap1\n      sload\n      swap1\n      0x0100\n      exp\n      swap1\n      div\n      0xff\n      and\n        /* \"contracts/PEPEuni.sol\":20382:20399  !blacklists[from] */\n      iszero\n        /* \"contracts/PEPEuni.sol\":20363:20399  !blacklists[to] && !blacklists[from] */\n    tag_234:\n        /* \"contracts/PEPEuni.sol\":20355:20415  require(!blacklists[to] && !blacklists[from], \"Blacklisted\") */\n      tag_235\n      jumpi\n      mload(0x40)\n      0x08c379a000000000000000000000000000000000000000000000000000000000\n      dup2\n      mstore\n      0x04\n      add\n      tag_236\n      swap1\n      tag_237\n      jump\t// in\n    tag_236:\n      mload(0x40)\n      dup1\n      swap2\n      sub\n      swap1\n      revert\n    tag_235:\n        /* \"contracts/PEPEuni.sol\":20457:20458  0 */\n      0x00\n        /* \"contracts/PEPEuni.sol\":20432:20459  uniswapV2Pair == address(0) */\n      0xffffffffffffffffffffffffffffffffffffffff\n      and\n        /* \"contracts/PEPEuni.sol\":20432:20445  uniswapV2Pair */\n      0x09\n      0x00\n      swap1\n      sload\n      swap1\n      0x0100\n      exp\n      swap1\n      div\n      0xffffffffffffffffffffffffffffffffffffffff\n      and\n        /* \"contracts/PEPEuni.sol\":20432:20459  uniswapV2Pair == address(0) */\n      0xffffffffffffffffffffffffffffffffffffffff\n      and\n      sub\n        /* \"contracts/PEPEuni.sol\":20428:20576  if (uniswapV2Pair == address(0)) {... */\n      tag_238\n      jumpi\n        /* \"contracts/PEPEuni.sol\":20492:20499  owner() */\n      tag_239\n        /* \"contracts/PEPEuni.sol\":20492:20497  owner */\n      tag_92\n        /* \"contracts/PEPEuni.sol\":20492:20499  owner() */\n      jump\t// in\n    tag_239:\n        /* \"contracts/PEPEuni.sol\":20484:20499  from == owner() */\n      0xffffffffffffffffffffffffffffffffffffffff\n      and\n        /* \"contracts/PEPEuni.sol\":20484:20488  from */\n      dup4\n        /* \"contracts/PEPEuni.sol\":20484:20499  from == owner() */\n      0xffffffffffffffffffffffffffffffffffffffff\n      and\n      eq\n        /* \"contracts/PEPEuni.sol\":20484:20516  from == owner() || to == owner() */\n      dup1\n      tag_240\n      jumpi\n      pop\n        /* \"contracts/PEPEuni.sol\":20509:20516  owner() */\n      tag_241\n        /* \"contracts/PEPEuni.sol\":20509:20514  owner */\n      tag_92\n        /* \"contracts/PEPEuni.sol\":20509:20516  owner() */\n      jump\t// in\n    tag_241:\n        /* \"contracts/PEPEuni.sol\":20503:20516  to == owner() */\n      0xffffffffffffffffffffffffffffffffffffffff\n      and\n        /* \"contracts/PEPEuni.sol\":20503:20505  to */\n      dup3\n        /* \"contracts/PEPEuni.sol\":20503:20516  to == owner() */\n      0xffffffffffffffffffffffffffffffffffffffff\n      and\n      eq\n        /* \"contracts/PEPEuni.sol\":20484:20516  from == owner() || to == owner() */\n    tag_240:\n        /* \"contracts/PEPEuni.sol\":20476:20543  require(from == owner() || to == owner(), \"trading is not started\") */\n      tag_242\n      jumpi\n      mload(0x40)\n      0x08c379a000000000000000000000000000000000000000000000000000000000\n      dup2\n      mstore\n      0x04\n      add\n      tag_243\n      swap1\n      tag_244\n      jump\t// in\n    tag_243:\n      mload(0x40)\n      dup1\n      swap2\n      sub\n      swap1\n      revert\n    tag_242:\n        /* \"contracts/PEPEuni.sol\":20558:20565  return; */\n      jump(tag_233)\n        /* \"contracts/PEPEuni.sol\":20428:20576  if (uniswapV2Pair == address(0)) {... */\n    tag_238:\n        /* \"contracts/PEPEuni.sol\":20592:20599  limited */\n      0x06\n      0x00\n      swap1\n      sload\n      swap1\n      0x0100\n      exp\n      swap1\n      div\n      0xff\n      and\n        /* \"contracts/PEPEuni.sol\":20592:20624  limited && from == uniswapV2Pair */\n      dup1\n      iszero\n      tag_245\n      jumpi\n      pop\n        /* \"contracts/PEPEuni.sol\":20611:20624  uniswapV2Pair */\n      0x09\n      0x00\n      swap1\n      sload\n      swap1\n      0x0100\n      exp\n      swap1\n      div\n      0xffffffffffffffffffffffffffffffffffffffff\n      and\n        /* \"contracts/PEPEuni.sol\":20603:20624  from == uniswapV2Pair */\n      0xffffffffffffffffffffffffffffffffffffffff\n      and\n        /* \"contracts/PEPEuni.sol\":20603:20607  from */\n      dup4\n        /* \"contracts/PEPEuni.sol\":20603:20624  from == uniswapV2Pair */\n      0xffffffffffffffffffffffffffffffffffffffff\n      and\n      eq\n        /* \"contracts/PEPEuni.sol\":20592:20624  limited && from == uniswapV2Pair */\n    tag_245:\n        /* \"contracts/PEPEuni.sol\":20588:20772  if (limited && from == uniswapV2Pair) {... */\n      iszero\n      tag_246\n      jumpi\n        /* \"contracts/PEPEuni.sol\":20681:20697  maxHoldingAmount */\n      sload(0x07)\n        /* \"contracts/PEPEuni.sol\":20671:20677  amount */\n      dup2\n        /* \"contracts/PEPEuni.sol\":20649:20668  super.balanceOf(to) */\n      tag_247\n        /* \"contracts/PEPEuni.sol\":20665:20667  to */\n      dup5\n        /* \"contracts/PEPEuni.sol\":20649:20664  super.balanceOf */\n      tag_81\n        /* \"contracts/PEPEuni.sol\":20649:20668  super.balanceOf(to) */\n      jump\t// in\n    tag_247:\n        /* \"contracts/PEPEuni.sol\":20649:20677  super.balanceOf(to) + amount */\n      tag_248\n      swap2\n      swap1\n      tag_141\n      jump\t// in\n    tag_248:\n        /* \"contracts/PEPEuni.sol\":20649:20697  super.balanceOf(to) + amount <= maxHoldingAmount */\n      gt\n      iszero\n        /* \"contracts/PEPEuni.sol\":20649:20749  super.balanceOf(to) + amount <= maxHoldingAmount && super.balanceOf(to) + amount >= minHoldingAmount */\n      dup1\n      iszero\n      tag_249\n      jumpi\n      pop\n        /* \"contracts/PEPEuni.sol\":20733:20749  minHoldingAmount */\n      sload(0x08)\n        /* \"contracts/PEPEuni.sol\":20723:20729  amount */\n      dup2\n        /* \"contracts/PEPEuni.sol\":20701:20720  super.balanceOf(to) */\n      tag_250\n        /* \"contracts/PEPEuni.sol\":20717:20719  to */\n      dup5\n        /* \"contracts/PEPEuni.sol\":20701:20716  super.balanceOf */\n      tag_81\n        /* \"contracts/PEPEuni.sol\":20701:20720  super.balanceOf(to) */\n      jump\t// in\n    tag_250:\n        /* \"contracts/PEPEuni.sol\":20701:20729  super.balanceOf(to) + amount */\n      tag_251\n      swap2\n      swap1\n      tag_141\n      jump\t// in\n    tag_251:\n        /* \"contracts/PEPEuni.sol\":20701:20749  super.balanceOf(to) + amount >= minHoldingAmount */\n      lt\n      iszero\n        /* \"contracts/PEPEuni.sol\":20649:20749  super.balanceOf(to) + amount <= maxHoldingAmount && super.balanceOf(to) + amount >= minHoldingAmount */\n    tag_249:\n        /* \"contracts/PEPEuni.sol\":20641:20760  require(super.balanceOf(to) + amount <= maxHoldingAmount && super.balanceOf(to) + amount >= minHoldingAmount, \"Forbid\") */\n      tag_252\n      jumpi\n      mload(0x40)\n      0x08c379a000000000000000000000000000000000000000000000000000000000\n      dup2\n      mstore\n      0x04\n      add\n      tag_253\n      swap1\n      tag_254\n      jump\t// in\n    tag_253:\n      mload(0x40)\n      dup1\n      swap2\n      sub\n      swap1\n      revert\n    tag_252:\n        /* \"contracts/PEPEuni.sol\":20588:20772  if (limited && from == uniswapV2Pair) {... */\n    tag_246:\n        /* \"contracts/PEPEuni.sol\":20212:20779  function _beforeTokenTransfer(... */\n    tag_233:\n      pop\n      pop\n      pop\n      jump\t// out\n        /* \"contracts/PEPEuni.sol\":19213:19337  function _afterTokenTransfer(... */\n    tag_219:\n      pop\n      pop\n      pop\n      jump\t// out\n        /* \"#utility.yul\":7:106   */\n    tag_256:\n        /* \"#utility.yul\":59:65   */\n      0x00\n        /* \"#utility.yul\":93:98   */\n      dup2\n        /* \"#utility.yul\":87:99   */\n      mload\n        /* \"#utility.yul\":77:99   */\n      swap1\n      pop\n        /* \"#utility.yul\":7:106   */\n      swap2\n      swap1\n      pop\n      jump\t// out\n        /* \"#utility.yul\":112:281   */\n    tag_257:\n        /* \"#utility.yul\":196:207   */\n      0x00\n        /* \"#utility.yul\":230:236   */\n      dup3\n        /* \"#utility.yul\":225:228   */\n      dup3\n        /* \"#utility.yul\":218:237   */\n      mstore\n        /* \"#utility.yul\":270:274   */\n      0x20\n        /* \"#utility.yul\":265:268   */\n      dup3\n        /* \"#utility.yul\":261:275   */\n      add\n        /* \"#utility.yul\":246:275   */\n      swap1\n      pop\n        /* \"#utility.yul\":112:281   */\n      swap3\n      swap2\n      pop\n      pop\n      jump\t// out\n        /* \"#utility.yul\":287:533   */\n    tag_258:\n        /* \"#utility.yul\":368:369   */\n      0x00\n        /* \"#utility.yul\":378:491   */\n    tag_313:\n        /* \"#utility.yul\":392:398   */\n      dup4\n        /* \"#utility.yul\":389:390   */\n      dup2\n        /* \"#utility.yul\":386:399   */\n      lt\n        /* \"#utility.yul\":378:491   */\n      iszero\n      tag_315\n      jumpi\n        /* \"#utility.yul\":477:478   */\n      dup1\n        /* \"#utility.yul\":472:475   */\n      dup3\n        /* \"#utility.yul\":468:479   */\n      add\n        /* \"#utility.yul\":462:480   */\n      mload\n        /* \"#utility.yul\":458:459   */\n      dup2\n        /* \"#utility.yul\":453:456   */\n      dup5\n        /* \"#utility.yul\":449:460   */\n      add\n        /* \"#utility.yul\":442:481   */\n      mstore\n        /* \"#utility.yul\":414:416   */\n      0x20\n        /* \"#utility.yul\":411:412   */\n      dup2\n        /* \"#utility.yul\":407:417   */\n      add\n        /* \"#utility.yul\":402:417   */\n      swap1\n      pop\n        /* \"#utility.yul\":378:491   */\n      jump(tag_313)\n    tag_315:\n        /* \"#utility.yul\":525:526   */\n      0x00\n        /* \"#utility.yul\":516:522   */\n      dup5\n        /* \"#utility.yul\":511:514   */\n      dup5\n        /* \"#utility.yul\":507:523   */\n      add\n        /* \"#utility.yul\":500:527   */\n      mstore\n        /* \"#utility.yul\":349:533   */\n      pop\n        /* \"#utility.yul\":287:533   */\n      pop\n      pop\n      pop\n      jump\t// out\n        /* \"#utility.yul\":539:641   */\n    tag_259:\n        /* \"#utility.yul\":580:586   */\n      0x00\n        /* \"#utility.yul\":631:633   */\n      0x1f\n        /* \"#utility.yul\":627:634   */\n      not\n        /* \"#utility.yul\":622:624   */\n      0x1f\n        /* \"#utility.yul\":615:620   */\n      dup4\n        /* \"#utility.yul\":611:625   */\n      add\n        /* \"#utility.yul\":607:635   */\n      and\n        /* \"#utility.yul\":597:635   */\n      swap1\n      pop\n        /* \"#utility.yul\":539:641   */\n      swap2\n      swap1\n      pop\n      jump\t// out\n        /* \"#utility.yul\":647:1024   */\n    tag_260:\n        /* \"#utility.yul\":735:738   */\n      0x00\n        /* \"#utility.yul\":763:802   */\n      tag_318\n        /* \"#utility.yul\":796:801   */\n      dup3\n        /* \"#utility.yul\":763:802   */\n      tag_256\n      jump\t// in\n    tag_318:\n        /* \"#utility.yul\":818:889   */\n      tag_319\n        /* \"#utility.yul\":882:888   */\n      dup2\n        /* \"#utility.yul\":877:880   */\n      dup6\n        /* \"#utility.yul\":818:889   */\n      tag_257\n      jump\t// in\n    tag_319:\n        /* \"#utility.yul\":811:889   */\n      swap4\n      pop\n        /* \"#utility.yul\":898:963   */\n      tag_320\n        /* \"#utility.yul\":956:962   */\n      dup2\n        /* \"#utility.yul\":951:954   */\n      dup6\n        /* \"#utility.yul\":944:948   */\n      0x20\n        /* \"#utility.yul\":937:942   */\n      dup7\n        /* \"#utility.yul\":933:949   */\n      add\n        /* \"#utility.yul\":898:963   */\n      tag_258\n      jump\t// in\n    tag_320:\n        /* \"#utility.yul\":988:1017   */\n      tag_321\n        /* \"#utility.yul\":1010:1016   */\n      dup2\n        /* \"#utility.yul\":988:1017   */\n      tag_259\n      jump\t// in\n    tag_321:\n        /* \"#utility.yul\":983:986   */\n      dup5\n        /* \"#utility.yul\":979:1018   */\n      add\n        /* \"#utility.yul\":972:1018   */\n      swap2\n      pop\n        /* \"#utility.yul\":739:1024   */\n      pop\n        /* \"#utility.yul\":647:1024   */\n      swap3\n      swap2\n      pop\n      pop\n      jump\t// out\n        /* \"#utility.yul\":1030:1343   */\n    tag_31:\n        /* \"#utility.yul\":1143:1147   */\n      0x00\n        /* \"#utility.yul\":1181:1183   */\n      0x20\n        /* \"#utility.yul\":1170:1179   */\n      dup3\n        /* \"#utility.yul\":1166:1184   */\n      add\n        /* \"#utility.yul\":1158:1184   */\n      swap1\n      pop\n        /* \"#utility.yul\":1230:1239   */\n      dup2\n        /* \"#utility.yul\":1224:1228   */\n      dup2\n        /* \"#utility.yul\":1220:1240   */\n      sub\n        /* \"#utility.yul\":1216:1217   */\n      0x00\n        /* \"#utility.yul\":1205:1214   */\n      dup4\n        /* \"#utility.yul\":1201:1218   */\n      add\n        /* \"#utility.yul\":1194:1241   */\n      mstore\n        /* \"#utility.yul\":1258:1336   */\n      tag_323\n        /* \"#utility.yul\":1331:1335   */\n      dup2\n        /* \"#utility.yul\":1322:1328   */\n      dup5\n        /* \"#utility.yul\":1258:1336   */\n      tag_260\n      jump\t// in\n    tag_323:\n        /* \"#utility.yul\":1250:1336   */\n      swap1\n      pop\n        /* \"#utility.yul\":1030:1343   */\n      swap3\n      swap2\n      pop\n      pop\n      jump\t// out\n        /* \"#utility.yul\":1430:1547   */\n    tag_262:\n        /* \"#utility.yul\":1539:1540   */\n      0x00\n        /* \"#utility.yul\":1536:1537   */\n      dup1\n        /* \"#utility.yul\":1529:1541   */\n      revert\n        /* \"#utility.yul\":1676:1802   */\n    tag_264:\n        /* \"#utility.yul\":1713:1720   */\n      0x00\n        /* \"#utility.yul\":1753:1795   */\n      0xffffffffffffffffffffffffffffffffffffffff\n        /* \"#utility.yul\":1746:1751   */\n      dup3\n        /* \"#utility.yul\":1742:1796   */\n      and\n        /* \"#utility.yul\":1731:1796   */\n      swap1\n      pop\n        /* \"#utility.yul\":1676:1802   */\n      swap2\n      swap1\n      pop\n      jump\t// out\n        /* \"#utility.yul\":1808:1904   */\n    tag_265:\n        /* \"#utility.yul\":1845:1852   */\n      0x00\n        /* \"#utility.yul\":1874:1898   */\n      tag_329\n        /* \"#utility.yul\":1892:1897   */\n      dup3\n        /* \"#utility.yul\":1874:1898   */\n      tag_264\n      jump\t// in\n    tag_329:\n        /* \"#utility.yul\":1863:1898   */\n      swap1\n      pop\n        /* \"#utility.yul\":1808:1904   */\n      swap2\n      swap1\n      pop\n      jump\t// out\n        /* \"#utility.yul\":1910:2032   */\n    tag_266:\n        /* \"#utility.yul\":1983:2007   */\n      tag_331\n        /* \"#utility.yul\":2001:2006   */\n      dup2\n        /* \"#utility.yul\":1983:2007   */\n      tag_265\n      jump\t// in\n    tag_331:\n        /* \"#utility.yul\":1976:1981   */\n      dup2\n        /* \"#utility.yul\":1973:2008   */\n      eq\n        /* \"#utility.yul\":1963:2026   */\n      tag_332\n      jumpi\n        /* \"#utility.yul\":2022:2023   */\n      0x00\n        /* \"#utility.yul\":2019:2020   */\n      dup1\n        /* \"#utility.yul\":2012:2024   */\n      revert\n        /* \"#utility.yul\":1963:2026   */\n    tag_332:\n        /* \"#utility.yul\":1910:2032   */\n      pop\n      jump\t// out\n        /* \"#utility.yul\":2038:2177   */\n    tag_267:\n        /* \"#utility.yul\":2084:2089   */\n      0x00\n        /* \"#utility.yul\":2122:2128   */\n      dup2\n        /* \"#utility.yul\":2109:2129   */\n      calldataload\n        /* \"#utility.yul\":2100:2129   */\n      swap1\n      pop\n        /* \"#utility.yul\":2138:2171   */\n      tag_334\n        /* \"#utility.yul\":2165:2170   */\n      dup2\n        /* \"#utility.yul\":2138:2171   */\n      tag_266\n      jump\t// in\n    tag_334:\n        /* \"#utility.yul\":2038:2177   */\n      swap3\n      swap2\n      pop\n      pop\n      jump\t// out\n        /* \"#utility.yul\":2183:2260   */\n    tag_268:\n        /* \"#utility.yul\":2220:2227   */\n      0x00\n        /* \"#utility.yul\":2249:2254   */\n      dup2\n        /* \"#utility.yul\":2238:2254   */\n      swap1\n      pop\n        /* \"#utility.yul\":2183:2260   */\n      swap2\n      swap1\n      pop\n      jump\t// out\n        /* \"#utility.yul\":2266:2388   */\n    tag_269:\n        /* \"#utility.yul\":2339:2363   */\n      tag_337\n        /* \"#utility.yul\":2357:2362   */\n      dup2\n        /* \"#utility.yul\":2339:2363   */\n      tag_268\n      jump\t// in\n    tag_337:\n        /* \"#utility.yul\":2332:2337   */\n      dup2\n        /* \"#utility.yul\":2329:2364   */\n      eq\n        /* \"#utility.yul\":2319:2382   */\n      tag_338\n      jumpi\n        /* \"#utility.yul\":2378:2379   */\n      0x00\n        /* \"#utility.yul\":2375:2376   */\n      dup1\n        /* \"#utility.yul\":2368:2380   */\n      revert\n        /* \"#utility.yul\":2319:2382   */\n    tag_338:\n        /* \"#utility.yul\":2266:2388   */\n      pop\n      jump\t// out\n        /* \"#utility.yul\":2394:2533   */\n    tag_270:\n        /* \"#utility.yul\":2440:2445   */\n      0x00\n        /* \"#utility.yul\":2478:2484   */\n      dup2\n        /* \"#utility.yul\":2465:2485   */\n      calldataload\n        /* \"#utility.yul\":2456:2485   */\n      swap1\n      pop\n        /* \"#utility.yul\":2494:2527   */\n      tag_340\n        /* \"#utility.yul\":2521:2526   */\n      dup2\n        /* \"#utility.yul\":2494:2527   */\n      tag_269\n      jump\t// in\n    tag_340:\n        /* \"#utility.yul\":2394:2533   */\n      swap3\n      swap2\n      pop\n      pop\n      jump\t// out\n        /* \"#utility.yul\":2539:3013   */\n    tag_34:\n        /* \"#utility.yul\":2607:2613   */\n      0x00\n        /* \"#utility.yul\":2615:2621   */\n      dup1\n        /* \"#utility.yul\":2664:2666   */\n      0x40\n        /* \"#utility.yul\":2652:2661   */\n      dup4\n        /* \"#utility.yul\":2643:2650   */\n      dup6\n        /* \"#utility.yul\":2639:2662   */\n      sub\n        /* \"#utility.yul\":2635:2667   */\n      slt\n        /* \"#utility.yul\":2632:2751   */\n      iszero\n      tag_342\n      jumpi\n        /* \"#utility.yul\":2670:2749   */\n      tag_343\n      tag_262\n      jump\t// in\n    tag_343:\n        /* \"#utility.yul\":2632:2751   */\n    tag_342:\n        /* \"#utility.yul\":2790:2791   */\n      0x00\n        /* \"#utility.yul\":2815:2868   */\n      tag_344\n        /* \"#utility.yul\":2860:2867   */\n      dup6\n        /* \"#utility.yul\":2851:2857   */\n      dup3\n        /* \"#utility.yul\":2840:2849   */\n      dup7\n        /* \"#utility.yul\":2836:2858   */\n      add\n        /* \"#utility.yul\":2815:2868   */\n      tag_267\n      jump\t// in\n    tag_344:\n        /* \"#utility.yul\":2805:2868   */\n      swap3\n      pop\n        /* \"#utility.yul\":2761:2878   */\n      pop\n        /* \"#utility.yul\":2917:2919   */\n      0x20\n        /* \"#utility.yul\":2943:2996   */\n      tag_345\n        /* \"#utility.yul\":2988:2995   */\n      dup6\n        /* \"#utility.yul\":2979:2985   */\n      dup3\n        /* \"#utility.yul\":2968:2977   */\n      dup7\n        /* \"#utility.yul\":2964:2986   */\n      add\n        /* \"#utility.yul\":2943:2996   */\n      tag_270\n      jump\t// in\n    tag_345:\n        /* \"#utility.yul\":2933:2996   */\n      swap2\n      pop\n        /* \"#utility.yul\":2888:3006   */\n      pop\n        /* \"#utility.yul\":2539:3013   */\n      swap3\n      pop\n      swap3\n      swap1\n      pop\n      jump\t// out\n        /* \"#utility.yul\":3019:3109   */\n    tag_271:\n        /* \"#utility.yul\":3053:3060   */\n      0x00\n        /* \"#utility.yul\":3096:3101   */\n      dup2\n        /* \"#utility.yul\":3089:3102   */\n      iszero\n        /* \"#utility.yul\":3082:3103   */\n      iszero\n        /* \"#utility.yul\":3071:3103   */\n      swap1\n      pop\n        /* \"#utility.yul\":3019:3109   */\n      swap2\n      swap1\n      pop\n      jump\t// out\n        /* \"#utility.yul\":3115:3224   */\n    tag_272:\n        /* \"#utility.yul\":3196:3217   */\n      tag_348\n        /* \"#utility.yul\":3211:3216   */\n      dup2\n        /* \"#utility.yul\":3196:3217   */\n      tag_271\n      jump\t// in\n    tag_348:\n        /* \"#utility.yul\":3191:3194   */\n      dup3\n        /* \"#utility.yul\":3184:3218   */\n      mstore\n        /* \"#utility.yul\":3115:3224   */\n      pop\n      pop\n      jump\t// out\n        /* \"#utility.yul\":3230:3440   */\n    tag_37:\n        /* \"#utility.yul\":3317:3321   */\n      0x00\n        /* \"#utility.yul\":3355:3357   */\n      0x20\n        /* \"#utility.yul\":3344:3353   */\n      dup3\n        /* \"#utility.yul\":3340:3358   */\n      add\n        /* \"#utility.yul\":3332:3358   */\n      swap1\n      pop\n        /* \"#utility.yul\":3368:3433   */\n      tag_350\n        /* \"#utility.yul\":3430:3431   */\n      0x00\n        /* \"#utility.yul\":3419:3428   */\n      dup4\n        /* \"#utility.yul\":3415:3432   */\n      add\n        /* \"#utility.yul\":3406:3412   */\n      dup5\n        /* \"#utility.yul\":3368:3433   */\n      tag_272\n      jump\t// in\n    tag_350:\n        /* \"#utility.yul\":3230:3440   */\n      swap3\n      swap2\n      pop\n      pop\n      jump\t// out\n        /* \"#utility.yul\":3446:3775   */\n    tag_40:\n        /* \"#utility.yul\":3505:3511   */\n      0x00\n        /* \"#utility.yul\":3554:3556   */\n      0x20\n        /* \"#utility.yul\":3542:3551   */\n      dup3\n        /* \"#utility.yul\":3533:3540   */\n      dup5\n        /* \"#utility.yul\":3529:3552   */\n      sub\n        /* \"#utility.yul\":3525:3557   */\n      slt\n        /* \"#utility.yul\":3522:3641   */\n      iszero\n      tag_352\n      jumpi\n        /* \"#utility.yul\":3560:3639   */\n      tag_353\n      tag_262\n      jump\t// in\n    tag_353:\n        /* \"#utility.yul\":3522:3641   */\n    tag_352:\n        /* \"#utility.yul\":3680:3681   */\n      0x00\n        /* \"#utility.yul\":3705:3758   */\n      tag_354\n        /* \"#utility.yul\":3750:3757   */\n      dup5\n        /* \"#utility.yul\":3741:3747   */\n      dup3\n        /* \"#utility.yul\":3730:3739   */\n      dup6\n        /* \"#utility.yul\":3726:3748   */\n      add\n        /* \"#utility.yul\":3705:3758   */\n      tag_267\n      jump\t// in\n    tag_354:\n        /* \"#utility.yul\":3695:3758   */\n      swap2\n      pop\n        /* \"#utility.yul\":3651:3768   */\n      pop\n        /* \"#utility.yul\":3446:3775   */\n      swap3\n      swap2\n      pop\n      pop\n      jump\t// out\n        /* \"#utility.yul\":3781:3899   */\n    tag_273:\n        /* \"#utility.yul\":3868:3892   */\n      tag_356\n        /* \"#utility.yul\":3886:3891   */\n      dup2\n        /* \"#utility.yul\":3868:3892   */\n      tag_268\n      jump\t// in\n    tag_356:\n        /* \"#utility.yul\":3863:3866   */\n      dup3\n        /* \"#utility.yul\":3856:3893   */\n      mstore\n        /* \"#utility.yul\":3781:3899   */\n      pop\n      pop\n      jump\t// out\n        /* \"#utility.yul\":3905:4127   */\n    tag_46:\n        /* \"#utility.yul\":3998:4002   */\n      0x00\n        /* \"#utility.yul\":4036:4038   */\n      0x20\n        /* \"#utility.yul\":4025:4034   */\n      dup3\n        /* \"#utility.yul\":4021:4039   */\n      add\n        /* \"#utility.yul\":4013:4039   */\n      swap1\n      pop\n        /* \"#utility.yul\":4049:4120   */\n      tag_358\n        /* \"#utility.yul\":4117:4118   */\n      0x00\n        /* \"#utility.yul\":4106:4115   */\n      dup4\n        /* \"#utility.yul\":4102:4119   */\n      add\n        /* \"#utility.yul\":4093:4099   */\n      dup5\n        /* \"#utility.yul\":4049:4120   */\n      tag_273\n      jump\t// in\n    tag_358:\n        /* \"#utility.yul\":3905:4127   */\n      swap3\n      swap2\n      pop\n      pop\n      jump\t// out\n        /* \"#utility.yul\":4133:4752   */\n    tag_52:\n        /* \"#utility.yul\":4210:4216   */\n      0x00\n        /* \"#utility.yul\":4218:4224   */\n      dup1\n        /* \"#utility.yul\":4226:4232   */\n      0x00\n        /* \"#utility.yul\":4275:4277   */\n      0x60\n        /* \"#utility.yul\":4263:4272   */\n      dup5\n        /* \"#utility.yul\":4254:4261   */\n      dup7\n        /* \"#utility.yul\":4250:4273   */\n      sub\n        /* \"#utility.yul\":4246:4278   */\n      slt\n        /* \"#utility.yul\":4243:4362   */\n      iszero\n      tag_360\n      jumpi\n        /* \"#utility.yul\":4281:4360   */\n      tag_361\n      tag_262\n      jump\t// in\n    tag_361:\n        /* \"#utility.yul\":4243:4362   */\n    tag_360:\n        /* \"#utility.yul\":4401:4402   */\n      0x00\n        /* \"#utility.yul\":4426:4479   */\n      tag_362\n        /* \"#utility.yul\":4471:4478   */\n      dup7\n        /* \"#utility.yul\":4462:4468   */\n      dup3\n        /* \"#utility.yul\":4451:4460   */\n      dup8\n        /* \"#utility.yul\":4447:4469   */\n      add\n        /* \"#utility.yul\":4426:4479   */\n      tag_267\n      jump\t// in\n    tag_362:\n        /* \"#utility.yul\":4416:4479   */\n      swap4\n      pop\n        /* \"#utility.yul\":4372:4489   */\n      pop\n        /* \"#utility.yul\":4528:4530   */\n      0x20\n        /* \"#utility.yul\":4554:4607   */\n      tag_363\n        /* \"#utility.yul\":4599:4606   */\n      dup7\n        /* \"#utility.yul\":4590:4596   */\n      dup3\n        /* \"#utility.yul\":4579:4588   */\n      dup8\n        /* \"#utility.yul\":4575:4597   */\n      add\n        /* \"#utility.yul\":4554:4607   */\n      tag_267\n      jump\t// in\n    tag_363:\n        /* \"#utility.yul\":4544:4607   */\n      swap3\n      pop\n        /* \"#utility.yul\":4499:4617   */\n      pop\n        /* \"#utility.yul\":4656:4658   */\n      0x40\n        /* \"#utility.yul\":4682:4735   */\n      tag_364\n        /* \"#utility.yul\":4727:4734   */\n      dup7\n        /* \"#utility.yul\":4718:4724   */\n      dup3\n        /* \"#utility.yul\":4707:4716   */\n      dup8\n        /* \"#utility.yul\":4703:4725   */\n      add\n        /* \"#utility.yul\":4682:4735   */\n      tag_270\n      jump\t// in\n    tag_364:\n        /* \"#utility.yul\":4672:4735   */\n      swap2\n      pop\n        /* \"#utility.yul\":4627:4745   */\n      pop\n        /* \"#utility.yul\":4133:4752   */\n      swap3\n      pop\n      swap3\n      pop\n      swap3\n      jump\t// out\n        /* \"#utility.yul\":4758:4844   */\n    tag_274:\n        /* \"#utility.yul\":4793:4800   */\n      0x00\n        /* \"#utility.yul\":4833:4837   */\n      0xff\n        /* \"#utility.yul\":4826:4831   */\n      dup3\n        /* \"#utility.yul\":4822:4838   */\n      and\n        /* \"#utility.yul\":4811:4838   */\n      swap1\n      pop\n        /* \"#utility.yul\":4758:4844   */\n      swap2\n      swap1\n      pop\n      jump\t// out\n        /* \"#utility.yul\":4850:4962   */\n    tag_275:\n        /* \"#utility.yul\":4933:4955   */\n      tag_367\n        /* \"#utility.yul\":4949:4954   */\n      dup2\n        /* \"#utility.yul\":4933:4955   */\n      tag_274\n      jump\t// in\n    tag_367:\n        /* \"#utility.yul\":4928:4931   */\n      dup3\n        /* \"#utility.yul\":4921:4956   */\n      mstore\n        /* \"#utility.yul\":4850:4962   */\n      pop\n      pop\n      jump\t// out\n        /* \"#utility.yul\":4968:5182   */\n    tag_58:\n        /* \"#utility.yul\":5057:5061   */\n      0x00\n        /* \"#utility.yul\":5095:5097   */\n      0x20\n        /* \"#utility.yul\":5084:5093   */\n      dup3\n        /* \"#utility.yul\":5080:5098   */\n      add\n        /* \"#utility.yul\":5072:5098   */\n      swap1\n      pop\n        /* \"#utility.yul\":5108:5175   */\n      tag_369\n        /* \"#utility.yul\":5172:5173   */\n      0x00\n        /* \"#utility.yul\":5161:5170   */\n      dup4\n        /* \"#utility.yul\":5157:5174   */\n      add\n        /* \"#utility.yul\":5148:5154   */\n      dup5\n        /* \"#utility.yul\":5108:5175   */\n      tag_275\n      jump\t// in\n    tag_369:\n        /* \"#utility.yul\":4968:5182   */\n      swap3\n      swap2\n      pop\n      pop\n      jump\t// out\n        /* \"#utility.yul\":5188:5304   */\n    tag_276:\n        /* \"#utility.yul\":5258:5279   */\n      tag_371\n        /* \"#utility.yul\":5273:5278   */\n      dup2\n        /* \"#utility.yul\":5258:5279   */\n      tag_271\n      jump\t// in\n    tag_371:\n        /* \"#utility.yul\":5251:5256   */\n      dup2\n        /* \"#utility.yul\":5248:5280   */\n      eq\n        /* \"#utility.yul\":5238:5298   */\n      tag_372\n      jumpi\n        /* \"#utility.yul\":5294:5295   */\n      0x00\n        /* \"#utility.yul\":5291:5292   */\n      dup1\n        /* \"#utility.yul\":5284:5296   */\n      revert\n        /* \"#utility.yul\":5238:5298   */\n    tag_372:\n        /* \"#utility.yul\":5188:5304   */\n      pop\n      jump\t// out\n        /* \"#utility.yul\":5310:5443   */\n    tag_277:\n        /* \"#utility.yul\":5353:5358   */\n      0x00\n        /* \"#utility.yul\":5391:5397   */\n      dup2\n        /* \"#utility.yul\":5378:5398   */\n      calldataload\n        /* \"#utility.yul\":5369:5398   */\n      swap1\n      pop\n        /* \"#utility.yul\":5407:5437   */\n      tag_374\n        /* \"#utility.yul\":5431:5436   */\n      dup2\n        /* \"#utility.yul\":5407:5437   */\n      tag_276\n      jump\t// in\n    tag_374:\n        /* \"#utility.yul\":5310:5443   */\n      swap3\n      swap2\n      pop\n      pop\n      jump\t// out\n        /* \"#utility.yul\":5449:6208   */\n    tag_65:\n        /* \"#utility.yul\":5532:5538   */\n      0x00\n        /* \"#utility.yul\":5540:5546   */\n      dup1\n        /* \"#utility.yul\":5548:5554   */\n      0x00\n        /* \"#utility.yul\":5556:5562   */\n      dup1\n        /* \"#utility.yul\":5605:5608   */\n      0x80\n        /* \"#utility.yul\":5593:5602   */\n      dup6\n        /* \"#utility.yul\":5584:5591   */\n      dup8\n        /* \"#utility.yul\":5580:5603   */\n      sub\n        /* \"#utility.yul\":5576:5609   */\n      slt\n        /* \"#utility.yul\":5573:5693   */\n      iszero\n      tag_376\n      jumpi\n        /* \"#utility.yul\":5612:5691   */\n      tag_377\n      tag_262\n      jump\t// in\n    tag_377:\n        /* \"#utility.yul\":5573:5693   */\n    tag_376:\n        /* \"#utility.yul\":5732:5733   */\n      0x00\n        /* \"#utility.yul\":5757:5807   */\n      tag_378\n        /* \"#utility.yul\":5799:5806   */\n      dup8\n        /* \"#utility.yul\":5790:5796   */\n      dup3\n        /* \"#utility.yul\":5779:5788   */\n      dup9\n        /* \"#utility.yul\":5775:5797   */\n      add\n        /* \"#utility.yul\":5757:5807   */\n      tag_277\n      jump\t// in\n    tag_378:\n        /* \"#utility.yul\":5747:5807   */\n      swap5\n      pop\n        /* \"#utility.yul\":5703:5817   */\n      pop\n        /* \"#utility.yul\":5856:5858   */\n      0x20\n        /* \"#utility.yul\":5882:5935   */\n      tag_379\n        /* \"#utility.yul\":5927:5934   */\n      dup8\n        /* \"#utility.yul\":5918:5924   */\n      dup3\n        /* \"#utility.yul\":5907:5916   */\n      dup9\n        /* \"#utility.yul\":5903:5925   */\n      add\n        /* \"#utility.yul\":5882:5935   */\n      tag_267\n      jump\t// in\n    tag_379:\n        /* \"#utility.yul\":5872:5935   */\n      swap4\n      pop\n        /* \"#utility.yul\":5827:5945   */\n      pop\n        /* \"#utility.yul\":5984:5986   */\n      0x40\n        /* \"#utility.yul\":6010:6063   */\n      tag_380\n        /* \"#utility.yul\":6055:6062   */\n      dup8\n        /* \"#utility.yul\":6046:6052   */\n      dup3\n        /* \"#utility.yul\":6035:6044   */\n      dup9\n        /* \"#utility.yul\":6031:6053   */\n      add\n        /* \"#utility.yul\":6010:6063   */\n      tag_270\n      jump\t// in\n    tag_380:\n        /* \"#utility.yul\":6000:6063   */\n      swap3\n      pop\n        /* \"#utility.yul\":5955:6073   */\n      pop\n        /* \"#utility.yul\":6112:6114   */\n      0x60\n        /* \"#utility.yul\":6138:6191   */\n      tag_381\n        /* \"#utility.yul\":6183:6190   */\n      dup8\n        /* \"#utility.yul\":6174:6180   */\n      dup3\n        /* \"#utility.yul\":6163:6172   */\n      dup9\n        /* \"#utility.yul\":6159:6181   */\n      add\n        /* \"#utility.yul\":6138:6191   */\n      tag_270\n      jump\t// in\n    tag_381:\n        /* \"#utility.yul\":6128:6191   */\n      swap2\n      pop\n        /* \"#utility.yul\":6083:6201   */\n      pop\n        /* \"#utility.yul\":5449:6208   */\n      swap3\n      swap6\n      swap2\n      swap5\n      pop\n      swap3\n      pop\n      jump\t// out\n        /* \"#utility.yul\":6214:6682   */\n    tag_69:\n        /* \"#utility.yul\":6279:6285   */\n      0x00\n        /* \"#utility.yul\":6287:6293   */\n      dup1\n        /* \"#utility.yul\":6336:6338   */\n      0x40\n        /* \"#utility.yul\":6324:6333   */\n      dup4\n        /* \"#utility.yul\":6315:6322   */\n      dup6\n        /* \"#utility.yul\":6311:6334   */\n      sub\n        /* \"#utility.yul\":6307:6339   */\n      slt\n        /* \"#utility.yul\":6304:6423   */\n      iszero\n      tag_383\n      jumpi\n        /* \"#utility.yul\":6342:6421   */\n      tag_384\n      tag_262\n      jump\t// in\n    tag_384:\n        /* \"#utility.yul\":6304:6423   */\n    tag_383:\n        /* \"#utility.yul\":6462:6463   */\n      0x00\n        /* \"#utility.yul\":6487:6540   */\n      tag_385\n        /* \"#utility.yul\":6532:6539   */\n      dup6\n        /* \"#utility.yul\":6523:6529   */\n      dup3\n        /* \"#utility.yul\":6512:6521   */\n      dup7\n        /* \"#utility.yul\":6508:6530   */\n      add\n        /* \"#utility.yul\":6487:6540   */\n      tag_267\n      jump\t// in\n    tag_385:\n        /* \"#utility.yul\":6477:6540   */\n      swap3\n      pop\n        /* \"#utility.yul\":6433:6550   */\n      pop\n        /* \"#utility.yul\":6589:6591   */\n      0x20\n        /* \"#utility.yul\":6615:6665   */\n      tag_386\n        /* \"#utility.yul\":6657:6664   */\n      dup6\n        /* \"#utility.yul\":6648:6654   */\n      dup3\n        /* \"#utility.yul\":6637:6646   */\n      dup7\n        /* \"#utility.yul\":6633:6655   */\n      add\n        /* \"#utility.yul\":6615:6665   */\n      tag_277\n      jump\t// in\n    tag_386:\n        /* \"#utility.yul\":6605:6665   */\n      swap2\n      pop\n        /* \"#utility.yul\":6560:6675   */\n      pop\n        /* \"#utility.yul\":6214:6682   */\n      swap3\n      pop\n      swap3\n      swap1\n      pop\n      jump\t// out\n        /* \"#utility.yul\":6688:7017   */\n    tag_73:\n        /* \"#utility.yul\":6747:6753   */\n      0x00\n        /* \"#utility.yul\":6796:6798   */\n      0x20\n        /* \"#utility.yul\":6784:6793   */\n      dup3\n        /* \"#utility.yul\":6775:6782   */\n      dup5\n        /* \"#utility.yul\":6771:6794   */\n      sub\n        /* \"#utility.yul\":6767:6799   */\n      slt\n        /* \"#utility.yul\":6764:6883   */\n      iszero\n      tag_388\n      jumpi\n        /* \"#utility.yul\":6802:6881   */\n      tag_389\n      tag_262\n      jump\t// in\n    tag_389:\n        /* \"#utility.yul\":6764:6883   */\n    tag_388:\n        /* \"#utility.yul\":6922:6923   */\n      0x00\n        /* \"#utility.yul\":6947:7000   */\n      tag_390\n        /* \"#utility.yul\":6992:6999   */\n      dup5\n        /* \"#utility.yul\":6983:6989   */\n      dup3\n        /* \"#utility.yul\":6972:6981   */\n      dup6\n        /* \"#utility.yul\":6968:6990   */\n      add\n        /* \"#utility.yul\":6947:7000   */\n      tag_270\n      jump\t// in\n    tag_390:\n        /* \"#utility.yul\":6937:7000   */\n      swap2\n      pop\n        /* \"#utility.yul\":6893:7010   */\n      pop\n        /* \"#utility.yul\":6688:7017   */\n      swap3\n      swap2\n      pop\n      pop\n      jump\t// out\n        /* \"#utility.yul\":7023:7141   */\n    tag_278:\n        /* \"#utility.yul\":7110:7134   */\n      tag_392\n        /* \"#utility.yul\":7128:7133   */\n      dup2\n        /* \"#utility.yul\":7110:7134   */\n      tag_265\n      jump\t// in\n    tag_392:\n        /* \"#utility.yul\":7105:7108   */\n      dup3\n        /* \"#utility.yul\":7098:7135   */\n      mstore\n        /* \"#utility.yul\":7023:7141   */\n      pop\n      pop\n      jump\t// out\n        /* \"#utility.yul\":7147:7369   */\n    tag_78:\n        /* \"#utility.yul\":7240:7244   */\n      0x00\n        /* \"#utility.yul\":7278:7280   */\n      0x20\n        /* \"#utility.yul\":7267:7276   */\n      dup3\n        /* \"#utility.yul\":7263:7281   */\n      add\n        /* \"#utility.yul\":7255:7281   */\n      swap1\n      pop\n        /* \"#utility.yul\":7291:7362   */\n      tag_394\n        /* \"#utility.yul\":7359:7360   */\n      0x00\n        /* \"#utility.yul\":7348:7357   */\n      dup4\n        /* \"#utility.yul\":7344:7361   */\n      add\n        /* \"#utility.yul\":7335:7341   */\n      dup5\n        /* \"#utility.yul\":7291:7362   */\n      tag_278\n      jump\t// in\n    tag_394:\n        /* \"#utility.yul\":7147:7369   */\n      swap3\n      swap2\n      pop\n      pop\n      jump\t// out\n        /* \"#utility.yul\":7375:7849   */\n    tag_107:\n        /* \"#utility.yul\":7443:7449   */\n      0x00\n        /* \"#utility.yul\":7451:7457   */\n      dup1\n        /* \"#utility.yul\":7500:7502   */\n      0x40\n        /* \"#utility.yul\":7488:7497   */\n      dup4\n        /* \"#utility.yul\":7479:7486   */\n      dup6\n        /* \"#utility.yul\":7475:7498   */\n      sub\n        /* \"#utility.yul\":7471:7503   */\n      slt\n        /* \"#utility.yul\":7468:7587   */\n      iszero\n      tag_396\n      jumpi\n        /* \"#utility.yul\":7506:7585   */\n      tag_397\n      tag_262\n      jump\t// in\n    tag_397:\n        /* \"#utility.yul\":7468:7587   */\n    tag_396:\n        /* \"#utility.yul\":7626:7627   */\n      0x00\n        /* \"#utility.yul\":7651:7704   */\n      tag_398\n        /* \"#utility.yul\":7696:7703   */\n      dup6\n        /* \"#utility.yul\":7687:7693   */\n      dup3\n        /* \"#utility.yul\":7676:7685   */\n      dup7\n        /* \"#utility.yul\":7672:7694   */\n      add\n        /* \"#utility.yul\":7651:7704   */\n      tag_267\n      jump\t// in\n    tag_398:\n        /* \"#utility.yul\":7641:7704   */\n      swap3\n      pop\n        /* \"#utility.yul\":7597:7714   */\n      pop\n        /* \"#utility.yul\":7753:7755   */\n      0x20\n        /* \"#utility.yul\":7779:7832   */\n      tag_399\n        /* \"#utility.yul\":7824:7831   */\n      dup6\n        /* \"#utility.yul\":7815:7821   */\n      dup3\n        /* \"#utility.yul\":7804:7813   */\n      dup7\n        /* \"#utility.yul\":7800:7822   */\n      add\n        /* \"#utility.yul\":7779:7832   */\n      tag_267\n      jump\t// in\n    tag_399:\n        /* \"#utility.yul\":7769:7832   */\n      swap2\n      pop\n        /* \"#utility.yul\":7724:7842   */\n      pop\n        /* \"#utility.yul\":7375:7849   */\n      swap3\n      pop\n      swap3\n      swap1\n      pop\n      jump\t// out\n        /* \"#utility.yul\":7855:8035   */\n    tag_279:\n        /* \"#utility.yul\":7903:7980   */\n      0x4e487b7100000000000000000000000000000000000000000000000000000000\n        /* \"#utility.yul\":7900:7901   */\n      0x00\n        /* \"#utility.yul\":7893:7981   */\n      mstore\n        /* \"#utility.yul\":8000:8004   */\n      0x22\n        /* \"#utility.yul\":7997:7998   */\n      0x04\n        /* \"#utility.yul\":7990:8005   */\n      mstore\n        /* \"#utility.yul\":8024:8028   */\n      0x24\n        /* \"#utility.yul\":8021:8022   */\n      0x00\n        /* \"#utility.yul\":8014:8029   */\n      revert\n        /* \"#utility.yul\":8041:8361   */\n    tag_115:\n        /* \"#utility.yul\":8085:8091   */\n      0x00\n        /* \"#utility.yul\":8122:8123   */\n      0x02\n        /* \"#utility.yul\":8116:8120   */\n      dup3\n        /* \"#utility.yul\":8112:8124   */\n      div\n        /* \"#utility.yul\":8102:8124   */\n      swap1\n      pop\n        /* \"#utility.yul\":8169:8170   */\n      0x01\n        /* \"#utility.yul\":8163:8167   */\n      dup3\n        /* \"#utility.yul\":8159:8171   */\n      and\n        /* \"#utility.yul\":8190:8208   */\n      dup1\n        /* \"#utility.yul\":8180:8261   */\n      tag_402\n      jumpi\n        /* \"#utility.yul\":8246:8250   */\n      0x7f\n        /* \"#utility.yul\":8238:8244   */\n      dup3\n        /* \"#utility.yul\":8234:8251   */\n      and\n        /* \"#utility.yul\":8224:8251   */\n      swap2\n      pop\n        /* \"#utility.yul\":8180:8261   */\n    tag_402:\n        /* \"#utility.yul\":8308:8310   */\n      0x20\n        /* \"#utility.yul\":8300:8306   */\n      dup3\n        /* \"#utility.yul\":8297:8311   */\n      lt\n        /* \"#utility.yul\":8277:8295   */\n      dup2\n        /* \"#utility.yul\":8274:8312   */\n      sub\n        /* \"#utility.yul\":8271:8355   */\n      tag_403\n      jumpi\n        /* \"#utility.yul\":8327:8345   */\n      tag_404\n      tag_279\n      jump\t// in\n    tag_404:\n        /* \"#utility.yul\":8271:8355   */\n    tag_403:\n        /* \"#utility.yul\":8092:8361   */\n      pop\n        /* \"#utility.yul\":8041:8361   */\n      swap2\n      swap1\n      pop\n      jump\t// out\n        /* \"#utility.yul\":8367:8594   */\n    tag_280:\n        /* \"#utility.yul\":8507:8541   */\n      0x45524332303a207472616e7366657220616d6f756e7420657863656564732061\n        /* \"#utility.yul\":8503:8504   */\n      0x00\n        /* \"#utility.yul\":8495:8501   */\n      dup3\n        /* \"#utility.yul\":8491:8505   */\n      add\n        /* \"#utility.yul\":8484:8542   */\n      mstore\n        /* \"#utility.yul\":8576:8586   */\n      0x6c6c6f77616e6365000000000000000000000000000000000000000000000000\n        /* \"#utility.yul\":8571:8573   */\n      0x20\n        /* \"#utility.yul\":8563:8569   */\n      dup3\n        /* \"#utility.yul\":8559:8574   */\n      add\n        /* \"#utility.yul\":8552:8587   */\n      mstore\n        /* \"#utility.yul\":8367:8594   */\n      pop\n      jump\t// out\n        /* \"#utility.yul\":8600:8966   */\n    tag_281:\n        /* \"#utility.yul\":8742:8745   */\n      0x00\n        /* \"#utility.yul\":8763:8830   */\n      tag_407\n        /* \"#utility.yul\":8827:8829   */\n      0x28\n        /* \"#utility.yul\":8822:8825   */\n      dup4\n        /* \"#utility.yul\":8763:8830   */\n      tag_257\n      jump\t// in\n    tag_407:\n        /* \"#utility.yul\":8756:8830   */\n      swap2\n      pop\n        /* \"#utility.yul\":8839:8932   */\n      tag_408\n        /* \"#utility.yul\":8928:8931   */\n      dup3\n        /* \"#utility.yul\":8839:8932   */\n      tag_280\n      jump\t// in\n    tag_408:\n        /* \"#utility.yul\":8957:8959   */\n      0x40\n        /* \"#utility.yul\":8952:8955   */\n      dup3\n        /* \"#utility.yul\":8948:8960   */\n      add\n        /* \"#utility.yul\":8941:8960   */\n      swap1\n      pop\n        /* \"#utility.yul\":8600:8966   */\n      swap2\n      swap1\n      pop\n      jump\t// out\n        /* \"#utility.yul\":8972:9391   */\n    tag_132:\n        /* \"#utility.yul\":9138:9142   */\n      0x00\n        /* \"#utility.yul\":9176:9178   */\n      0x20\n        /* \"#utility.yul\":9165:9174   */\n      dup3\n        /* \"#utility.yul\":9161:9179   */\n      add\n        /* \"#utility.yul\":9153:9179   */\n      swap1\n      pop\n        /* \"#utility.yul\":9225:9234   */\n      dup2\n        /* \"#utility.yul\":9219:9223   */\n      dup2\n        /* \"#utility.yul\":9215:9235   */\n      sub\n        /* \"#utility.yul\":9211:9212   */\n      0x00\n        /* \"#utility.yul\":9200:9209   */\n      dup4\n        /* \"#utility.yul\":9196:9213   */\n      add\n        /* \"#utility.yul\":9189:9236   */\n      mstore\n        /* \"#utility.yul\":9253:9384   */\n      tag_410\n        /* \"#utility.yul\":9379:9383   */\n      dup2\n        /* \"#utility.yul\":9253:9384   */\n      tag_281\n      jump\t// in\n    tag_410:\n        /* \"#utility.yul\":9245:9384   */\n      swap1\n      pop\n        /* \"#utility.yul\":8972:9391   */\n      swap2\n      swap1\n      pop\n      jump\t// out\n        /* \"#utility.yul\":9397:9577   */\n    tag_282:\n        /* \"#utility.yul\":9445:9522   */\n      0x4e487b7100000000000000000000000000000000000000000000000000000000\n        /* \"#utility.yul\":9442:9443   */\n      0x00\n        /* \"#utility.yul\":9435:9523   */\n      mstore\n        /* \"#utility.yul\":9542:9546   */\n      0x11\n        /* \"#utility.yul\":9539:9540   */\n      0x04\n        /* \"#utility.yul\":9532:9547   */\n      mstore\n        /* \"#utility.yul\":9566:9570   */\n      0x24\n        /* \"#utility.yul\":9563:9564   */\n      0x00\n        /* \"#utility.yul\":9556:9571   */\n      revert\n        /* \"#utility.yul\":9583:9774   */\n    tag_141:\n        /* \"#utility.yul\":9623:9626   */\n      0x00\n        /* \"#utility.yul\":9642:9662   */\n      tag_413\n        /* \"#utility.yul\":9660:9661   */\n      dup3\n        /* \"#utility.yul\":9642:9662   */\n      tag_268\n      jump\t// in\n    tag_413:\n        /* \"#utility.yul\":9637:9662   */\n      swap2\n      pop\n        /* \"#utility.yul\":9676:9696   */\n      tag_414\n        /* \"#utility.yul\":9694:9695   */\n      dup4\n        /* \"#utility.yul\":9676:9696   */\n      tag_268\n      jump\t// in\n    tag_414:\n        /* \"#utility.yul\":9671:9696   */\n      swap3\n      pop\n        /* \"#utility.yul\":9719:9720   */\n      dup3\n        /* \"#utility.yul\":9716:9717   */\n      dup3\n        /* \"#utility.yul\":9712:9721   */\n      add\n        /* \"#utility.yul\":9705:9721   */\n      swap1\n      pop\n        /* \"#utility.yul\":9740:9743   */\n      dup1\n        /* \"#utility.yul\":9737:9738   */\n      dup3\n        /* \"#utility.yul\":9734:9744   */\n      gt\n        /* \"#utility.yul\":9731:9767   */\n      iszero\n      tag_415\n      jumpi\n        /* \"#utility.yul\":9747:9765   */\n      tag_416\n      tag_282\n      jump\t// in\n    tag_416:\n        /* \"#utility.yul\":9731:9767   */\n    tag_415:\n        /* \"#utility.yul\":9583:9774   */\n      swap3\n      swap2\n      pop\n      pop\n      jump\t// out\n        /* \"#utility.yul\":9780:9962   */\n    tag_283:\n        /* \"#utility.yul\":9920:9954   */\n      0x4f776e61626c653a2063616c6c6572206973206e6f7420746865206f776e6572\n        /* \"#utility.yul\":9916:9917   */\n      0x00\n        /* \"#utility.yul\":9908:9914   */\n      dup3\n        /* \"#utility.yul\":9904:9918   */\n      add\n        /* \"#utility.yul\":9897:9955   */\n      mstore\n        /* \"#utility.yul\":9780:9962   */\n      pop\n      jump\t// out\n        /* \"#utility.yul\":9968:10334   */\n    tag_284:\n        /* \"#utility.yul\":10110:10113   */\n      0x00\n        /* \"#utility.yul\":10131:10198   */\n      tag_419\n        /* \"#utility.yul\":10195:10197   */\n      0x20\n        /* \"#utility.yul\":10190:10193   */\n      dup4\n        /* \"#utility.yul\":10131:10198   */\n      tag_257\n      jump\t// in\n    tag_419:\n        /* \"#utility.yul\":10124:10198   */\n      swap2\n      pop\n        /* \"#utility.yul\":10207:10300   */\n      tag_420\n        /* \"#utility.yul\":10296:10299   */\n      dup3\n        /* \"#utility.yul\":10207:10300   */\n      tag_283\n      jump\t// in\n    tag_420:\n        /* \"#utility.yul\":10325:10327   */\n      0x20\n        /* \"#utility.yul\":10320:10323   */\n      dup3\n        /* \"#utility.yul\":10316:10328   */\n      add\n        /* \"#utility.yul\":10309:10328   */\n      swap1\n      pop\n        /* \"#utility.yul\":9968:10334   */\n      swap2\n      swap1\n      pop\n      jump\t// out\n        /* \"#utility.yul\":10340:10759   */\n    tag_147:\n        /* \"#utility.yul\":10506:10510   */\n      0x00\n        /* \"#utility.yul\":10544:10546   */\n      0x20\n        /* \"#utility.yul\":10533:10542   */\n      dup3\n        /* \"#utility.yul\":10529:10547   */\n      add\n        /* \"#utility.yul\":10521:10547   */\n      swap1\n      pop\n        /* \"#utility.yul\":10593:10602   */\n      dup2\n        /* \"#utility.yul\":10587:10591   */\n      dup2\n        /* \"#utility.yul\":10583:10603   */\n      sub\n        /* \"#utility.yul\":10579:10580   */\n      0x00\n        /* \"#utility.yul\":10568:10577   */\n      dup4\n        /* \"#utility.yul\":10564:10581   */\n      add\n        /* \"#utility.yul\":10557:10604   */\n      mstore\n        /* \"#utility.yul\":10621:10752   */\n      tag_422\n        /* \"#utility.yul\":10747:10751   */\n      dup2\n        /* \"#utility.yul\":10621:10752   */\n      tag_284\n      jump\t// in\n    tag_422:\n        /* \"#utility.yul\":10613:10752   */\n      swap1\n      pop\n        /* \"#utility.yul\":10340:10759   */\n      swap2\n      swap1\n      pop\n      jump\t// out\n        /* \"#utility.yul\":10765:10989   */\n    tag_285:\n        /* \"#utility.yul\":10905:10939   */\n      0x45524332303a2064656372656173656420616c6c6f77616e63652062656c6f77\n        /* \"#utility.yul\":10901:10902   */\n      0x00\n        /* \"#utility.yul\":10893:10899   */\n      dup3\n        /* \"#utility.yul\":10889:10903   */\n      add\n        /* \"#utility.yul\":10882:10940   */\n      mstore\n        /* \"#utility.yul\":10974:10981   */\n      0x207a65726f000000000000000000000000000000000000000000000000000000\n        /* \"#utility.yul\":10969:10971   */\n      0x20\n        /* \"#utility.yul\":10961:10967   */\n      dup3\n        /* \"#utility.yul\":10957:10972   */\n      add\n        /* \"#utility.yul\":10950:10982   */\n      mstore\n        /* \"#utility.yul\":10765:10989   */\n      pop\n      jump\t// out\n        /* \"#utility.yul\":10995:11361   */\n    tag_286:\n        /* \"#utility.yul\":11137:11140   */\n      0x00\n        /* \"#utility.yul\":11158:11225   */\n      tag_425\n        /* \"#utility.yul\":11222:11224   */\n      0x25\n        /* \"#utility.yul\":11217:11220   */\n      dup4\n        /* \"#utility.yul\":11158:11225   */\n      tag_257\n      jump\t// in\n    tag_425:\n        /* \"#utility.yul\":11151:11225   */\n      swap2\n      pop\n        /* \"#utility.yul\":11234:11327   */\n      tag_426\n        /* \"#utility.yul\":11323:11326   */\n      dup3\n        /* \"#utility.yul\":11234:11327   */\n      tag_285\n      jump\t// in\n    tag_426:\n        /* \"#utility.yul\":11352:11354   */\n      0x40\n        /* \"#utility.yul\":11347:11350   */\n      dup3\n        /* \"#utility.yul\":11343:11355   */\n      add\n        /* \"#utility.yul\":11336:11355   */\n      swap1\n      pop\n        /* \"#utility.yul\":10995:11361   */\n      swap2\n      swap1\n      pop\n      jump\t// out\n        /* \"#utility.yul\":11367:11786   */\n    tag_178:\n        /* \"#utility.yul\":11533:11537   */\n      0x00\n        /* \"#utility.yul\":11571:11573   */\n      0x20\n        /* \"#utility.yul\":11560:11569   */\n      dup3\n        /* \"#utility.yul\":11556:11574   */\n      add\n        /* \"#utility.yul\":11548:11574   */\n      swap1\n      pop\n        /* \"#utility.yul\":11620:11629   */\n      dup2\n        /* \"#utility.yul\":11614:11618   */\n      dup2\n        /* \"#utility.yul\":11610:11630   */\n      sub\n        /* \"#utility.yul\":11606:11607   */\n      0x00\n        /* \"#utility.yul\":11595:11604   */\n      dup4\n        /* \"#utility.yul\":11591:11608   */\n      add\n        /* \"#utility.yul\":11584:11631   */\n      mstore\n        /* \"#utility.yul\":11648:11779   */\n      tag_428\n        /* \"#utility.yul\":11774:11778   */\n      dup2\n        /* \"#utility.yul\":11648:11779   */\n      tag_286\n      jump\t// in\n    tag_428:\n        /* \"#utility.yul\":11640:11779   */\n      swap1\n      pop\n        /* \"#utility.yul\":11367:11786   */\n      swap2\n      swap1\n      pop\n      jump\t// out\n        /* \"#utility.yul\":11792:12017   */\n    tag_287:\n        /* \"#utility.yul\":11932:11966   */\n      0x4f776e61626c653a206e6577206f776e657220697320746865207a65726f2061\n        /* \"#utility.yul\":11928:11929   */\n      0x00\n        /* \"#utility.yul\":11920:11926   */\n      dup3\n        /* \"#utility.yul\":11916:11930   */\n      add\n        /* \"#utility.yul\":11909:11967   */\n      mstore\n        /* \"#utility.yul\":12001:12009   */\n      0x6464726573730000000000000000000000000000000000000000000000000000\n        /* \"#utility.yul\":11996:11998   */\n      0x20\n        /* \"#utility.yul\":11988:11994   */\n      dup3\n        /* \"#utility.yul\":11984:11999   */\n      add\n        /* \"#utility.yul\":11977:12010   */\n      mstore\n        /* \"#utility.yul\":11792:12017   */\n      pop\n      jump\t// out\n        /* \"#utility.yul\":12023:12389   */\n    tag_288:\n        /* \"#utility.yul\":12165:12168   */\n      0x00\n        /* \"#utility.yul\":12186:12253   */\n      tag_431\n        /* \"#utility.yul\":12250:12252   */\n      0x26\n        /* \"#utility.yul\":12245:12248   */\n      dup4\n        /* \"#utility.yul\":12186:12253   */\n      tag_257\n      jump\t// in\n    tag_431:\n        /* \"#utility.yul\":12179:12253   */\n      swap2\n      pop\n        /* \"#utility.yul\":12262:12355   */\n      tag_432\n        /* \"#utility.yul\":12351:12354   */\n      dup3\n        /* \"#utility.yul\":12262:12355   */\n      tag_287\n      jump\t// in\n    tag_432:\n        /* \"#utility.yul\":12380:12382   */\n      0x40\n        /* \"#utility.yul\":12375:12378   */\n      dup3\n        /* \"#utility.yul\":12371:12383   */\n      add\n        /* \"#utility.yul\":12364:12383   */\n      swap1\n      pop\n        /* \"#utility.yul\":12023:12389   */\n      swap2\n      swap1\n      pop\n      jump\t// out\n        /* \"#utility.yul\":12395:12814   */\n    tag_193:\n        /* \"#utility.yul\":12561:12565   */\n      0x00\n        /* \"#utility.yul\":12599:12601   */\n      0x20\n        /* \"#utility.yul\":12588:12597   */\n      dup3\n        /* \"#utility.yul\":12584:12602   */\n      add\n        /* \"#utility.yul\":12576:12602   */\n      swap1\n      pop\n        /* \"#utility.yul\":12648:12657   */\n      dup2\n        /* \"#utility.yul\":12642:12646   */\n      dup2\n        /* \"#utility.yul\":12638:12658   */\n      sub\n        /* \"#utility.yul\":12634:12635   */\n      0x00\n        /* \"#utility.yul\":12623:12632   */\n      dup4\n        /* \"#utility.yul\":12619:12636   */\n      add\n        /* \"#utility.yul\":12612:12659   */\n      mstore\n        /* \"#utility.yul\":12676:12807   */\n      tag_434\n        /* \"#utility.yul\":12802:12806   */\n      dup2\n        /* \"#utility.yul\":12676:12807   */\n      tag_288\n      jump\t// in\n    tag_434:\n        /* \"#utility.yul\":12668:12807   */\n      swap1\n      pop\n        /* \"#utility.yul\":12395:12814   */\n      swap2\n      swap1\n      pop\n      jump\t// out\n        /* \"#utility.yul\":12820:13043   */\n    tag_289:\n        /* \"#utility.yul\":12960:12994   */\n      0x45524332303a20617070726f76652066726f6d20746865207a65726f20616464\n        /* \"#utility.yul\":12956:12957   */\n      0x00\n        /* \"#utility.yul\":12948:12954   */\n      dup3\n        /* \"#utility.yul\":12944:12958   */\n      add\n        /* \"#utility.yul\":12937:12995   */\n      mstore\n        /* \"#utility.yul\":13029:13035   */\n      0x7265737300000000000000000000000000000000000000000000000000000000\n        /* \"#utility.yul\":13024:13026   */\n      0x20\n        /* \"#utility.yul\":13016:13022   */\n      dup3\n        /* \"#utility.yul\":13012:13027   */\n      add\n        /* \"#utility.yul\":13005:13036   */\n      mstore\n        /* \"#utility.yul\":12820:13043   */\n      pop\n      jump\t// out\n        /* \"#utility.yul\":13049:13415   */\n    tag_290:\n        /* \"#utility.yul\":13191:13194   */\n      0x00\n        /* \"#utility.yul\":13212:13279   */\n      tag_437\n        /* \"#utility.yul\":13276:13278   */\n      0x24\n        /* \"#utility.yul\":13271:13274   */\n      dup4\n        /* \"#utility.yul\":13212:13279   */\n      tag_257\n      jump\t// in\n    tag_437:\n        /* \"#utility.yul\":13205:13279   */\n      swap2\n      pop\n        /* \"#utility.yul\":13288:13381   */\n      tag_438\n        /* \"#utility.yul\":13377:13380   */\n      dup3\n        /* \"#utility.yul\":13288:13381   */\n      tag_289\n      jump\t// in\n    tag_438:\n        /* \"#utility.yul\":13406:13408   */\n      0x40\n        /* \"#utility.yul\":13401:13404   */\n      dup3\n        /* \"#utility.yul\":13397:13409   */\n      add\n        /* \"#utility.yul\":13390:13409   */\n      swap1\n      pop\n        /* \"#utility.yul\":13049:13415   */\n      swap2\n      swap1\n      pop\n      jump\t// out\n        /* \"#utility.yul\":13421:13840   */\n    tag_199:\n        /* \"#utility.yul\":13587:13591   */\n      0x00\n        /* \"#utility.yul\":13625:13627   */\n      0x20\n        /* \"#utility.yul\":13614:13623   */\n      dup3\n        /* \"#utility.yul\":13610:13628   */\n      add\n        /* \"#utility.yul\":13602:13628   */\n      swap1\n      pop\n        /* \"#utility.yul\":13674:13683   */\n      dup2\n        /* \"#utility.yul\":13668:13672   */\n      dup2\n        /* \"#utility.yul\":13664:13684   */\n      sub\n        /* \"#utility.yul\":13660:13661   */\n      0x00\n        /* \"#utility.yul\":13649:13658   */\n      dup4\n        /* \"#utility.yul\":13645:13662   */\n      add\n        /* \"#utility.yul\":13638:13685   */\n      mstore\n        /* \"#utility.yul\":13702:13833   */\n      tag_440\n        /* \"#utility.yul\":13828:13832   */\n      dup2\n        /* \"#utility.yul\":13702:13833   */\n      tag_290\n      jump\t// in\n    tag_440:\n        /* \"#utility.yul\":13694:13833   */\n      swap1\n      pop\n        /* \"#utility.yul\":13421:13840   */\n      swap2\n      swap1\n      pop\n      jump\t// out\n        /* \"#utility.yul\":13846:14067   */\n    tag_291:\n        /* \"#utility.yul\":13986:14020   */\n      0x45524332303a20617070726f766520746f20746865207a65726f206164647265\n        /* \"#utility.yul\":13982:13983   */\n      0x00\n        /* \"#utility.yul\":13974:13980   */\n      dup3\n        /* \"#utility.yul\":13970:13984   */\n      add\n        /* \"#utility.yul\":13963:14021   */\n      mstore\n        /* \"#utility.yul\":14055:14059   */\n      0x7373000000000000000000000000000000000000000000000000000000000000\n        /* \"#utility.yul\":14050:14052   */\n      0x20\n        /* \"#utility.yul\":14042:14048   */\n      dup3\n        /* \"#utility.yul\":14038:14053   */\n      add\n        /* \"#utility.yul\":14031:14060   */\n      mstore\n        /* \"#utility.yul\":13846:14067   */\n      pop\n      jump\t// out\n        /* \"#utility.yul\":14073:14439   */\n    tag_292:\n        /* \"#utility.yul\":14215:14218   */\n      0x00\n        /* \"#utility.yul\":14236:14303   */\n      tag_443\n        /* \"#utility.yul\":14300:14302   */\n      0x22\n        /* \"#utility.yul\":14295:14298   */\n      dup4\n        /* \"#utility.yul\":14236:14303   */\n      tag_257\n      jump\t// in\n    tag_443:\n        /* \"#utility.yul\":14229:14303   */\n      swap2\n      pop\n        /* \"#utility.yul\":14312:14405   */\n      tag_444\n        /* \"#utility.yul\":14401:14404   */\n      dup3\n        /* \"#utility.yul\":14312:14405   */\n      tag_291\n      jump\t// in\n    tag_444:\n        /* \"#utility.yul\":14430:14432   */\n      0x40\n        /* \"#utility.yul\":14425:14428   */\n      dup3\n        /* \"#utility.yul\":14421:14433   */\n      add\n        /* \"#utility.yul\":14414:14433   */\n      swap1\n      pop\n        /* \"#utility.yul\":14073:14439   */\n      swap2\n      swap1\n      pop\n      jump\t// out\n        /* \"#utility.yul\":14445:14864   */\n    tag_202:\n        /* \"#utility.yul\":14611:14615   */\n      0x00\n        /* \"#utility.yul\":14649:14651   */\n      0x20\n        /* \"#utility.yul\":14638:14647   */\n      dup3\n        /* \"#utility.yul\":14634:14652   */\n      add\n        /* \"#utility.yul\":14626:14652   */\n      swap1\n      pop\n        /* \"#utility.yul\":14698:14707   */\n      dup2\n        /* \"#utility.yul\":14692:14696   */\n      dup2\n        /* \"#utility.yul\":14688:14708   */\n      sub\n        /* \"#utility.yul\":14684:14685   */\n      0x00\n        /* \"#utility.yul\":14673:14682   */\n      dup4\n        /* \"#utility.yul\":14669:14686   */\n      add\n        /* \"#utility.yul\":14662:14709   */\n      mstore\n        /* \"#utility.yul\":14726:14857   */\n      tag_446\n        /* \"#utility.yul\":14852:14856   */\n      dup2\n        /* \"#utility.yul\":14726:14857   */\n      tag_292\n      jump\t// in\n    tag_446:\n        /* \"#utility.yul\":14718:14857   */\n      swap1\n      pop\n        /* \"#utility.yul\":14445:14864   */\n      swap2\n      swap1\n      pop\n      jump\t// out\n        /* \"#utility.yul\":14870:15094   */\n    tag_293:\n        /* \"#utility.yul\":15010:15044   */\n      0x45524332303a207472616e736665722066726f6d20746865207a65726f206164\n        /* \"#utility.yul\":15006:15007   */\n      0x00\n        /* \"#utility.yul\":14998:15004   */\n      dup3\n        /* \"#utility.yul\":14994:15008   */\n      add\n        /* \"#utility.yul\":14987:15045   */\n      mstore\n        /* \"#utility.yul\":15079:15086   */\n      0x6472657373000000000000000000000000000000000000000000000000000000\n        /* \"#utility.yul\":15074:15076   */\n      0x20\n        /* \"#utility.yul\":15066:15072   */\n      dup3\n        /* \"#utility.yul\":15062:15077   */\n      add\n        /* \"#utility.yul\":15055:15087   */\n      mstore\n        /* \"#utility.yul\":14870:15094   */\n      pop\n      jump\t// out\n        /* \"#utility.yul\":15100:15466   */\n    tag_294:\n        /* \"#utility.yul\":15242:15245   */\n      0x00\n        /* \"#utility.yul\":15263:15330   */\n      tag_449\n        /* \"#utility.yul\":15327:15329   */\n      0x25\n        /* \"#utility.yul\":15322:15325   */\n      dup4\n        /* \"#utility.yul\":15263:15330   */\n      tag_257\n      jump\t// in\n    tag_449:\n        /* \"#utility.yul\":15256:15330   */\n      swap2\n      pop\n        /* \"#utility.yul\":15339:15432   */\n      tag_450\n        /* \"#utility.yul\":15428:15431   */\n      dup3\n        /* \"#utility.yul\":15339:15432   */\n      tag_293\n      jump\t// in\n    tag_450:\n        /* \"#utility.yul\":15457:15459   */\n      0x40\n        /* \"#utility.yul\":15452:15455   */\n      dup3\n        /* \"#utility.yul\":15448:15460   */\n      add\n        /* \"#utility.yul\":15441:15460   */\n      swap1\n      pop\n        /* \"#utility.yul\":15100:15466   */\n      swap2\n      swap1\n      pop\n      jump\t// out\n        /* \"#utility.yul\":15472:15891   */\n    tag_207:\n        /* \"#utility.yul\":15638:15642   */\n      0x00\n        /* \"#utility.yul\":15676:15678   */\n      0x20\n        /* \"#utility.yul\":15665:15674   */\n      dup3\n        /* \"#utility.yul\":15661:15679   */\n      add\n        /* \"#utility.yul\":15653:15679   */\n      swap1\n      pop\n        /* \"#utility.yul\":15725:15734   */\n      dup2\n        /* \"#utility.yul\":15719:15723   */\n      dup2\n        /* \"#utility.yul\":15715:15735   */\n      sub\n        /* \"#utility.yul\":15711:15712   */\n      0x00\n        /* \"#utility.yul\":15700:15709   */\n      dup4\n        /* \"#utility.yul\":15696:15713   */\n      add\n        /* \"#utility.yul\":15689:15736   */\n      mstore\n        /* \"#utility.yul\":15753:15884   */\n      tag_452\n        /* \"#utility.yul\":15879:15883   */\n      dup2\n        /* \"#utility.yul\":15753:15884   */\n      tag_294\n      jump\t// in\n    tag_452:\n        /* \"#utility.yul\":15745:15884   */\n      swap1\n      pop\n        /* \"#utility.yul\":15472:15891   */\n      swap2\n      swap1\n      pop\n      jump\t// out\n        /* \"#utility.yul\":15897:16119   */\n    tag_295:\n        /* \"#utility.yul\":16037:16071   */\n      0x45524332303a207472616e7366657220746f20746865207a65726f2061646472\n        /* \"#utility.yul\":16033:16034   */\n      0x00\n        /* \"#utility.yul\":16025:16031   */\n      dup3\n        /* \"#utility.yul\":16021:16035   */\n      add\n        /* \"#utility.yul\":16014:16072   */\n      mstore\n        /* \"#utility.yul\":16106:16111   */\n      0x6573730000000000000000000000000000000000000000000000000000000000\n        /* \"#utility.yul\":16101:16103   */\n      0x20\n        /* \"#utility.yul\":16093:16099   */\n      dup3\n        /* \"#utility.yul\":16089:16104   */\n      add\n        /* \"#utility.yul\":16082:16112   */\n      mstore\n        /* \"#utility.yul\":15897:16119   */\n      pop\n      jump\t// out\n        /* \"#utility.yul\":16125:16491   */\n    tag_296:\n        /* \"#utility.yul\":16267:16270   */\n      0x00\n        /* \"#utility.yul\":16288:16355   */\n      tag_455\n        /* \"#utility.yul\":16352:16354   */\n      0x23\n        /* \"#utility.yul\":16347:16350   */\n      dup4\n        /* \"#utility.yul\":16288:16355   */\n      tag_257\n      jump\t// in\n    tag_455:\n        /* \"#utility.yul\":16281:16355   */\n      swap2\n      pop\n        /* \"#utility.yul\":16364:16457   */\n      tag_456\n        /* \"#utility.yul\":16453:16456   */\n      dup3\n        /* \"#utility.yul\":16364:16457   */\n      tag_295\n      jump\t// in\n    tag_456:\n        /* \"#utility.yul\":16482:16484   */\n      0x40\n        /* \"#utility.yul\":16477:16480   */\n      dup3\n        /* \"#utility.yul\":16473:16485   */\n      add\n        /* \"#utility.yul\":16466:16485   */\n      swap1\n      pop\n        /* \"#utility.yul\":16125:16491   */\n      swap2\n      swap1\n      pop\n      jump\t// out\n        /* \"#utility.yul\":16497:16916   */\n    tag_210:\n        /* \"#utility.yul\":16663:16667   */\n      0x00\n        /* \"#utility.yul\":16701:16703   */\n      0x20\n        /* \"#utility.yul\":16690:16699   */\n      dup3\n        /* \"#utility.yul\":16686:16704   */\n      add\n        /* \"#utility.yul\":16678:16704   */\n      swap1\n      pop\n        /* \"#utility.yul\":16750:16759   */\n      dup2\n        /* \"#utility.yul\":16744:16748   */\n      dup2\n        /* \"#utility.yul\":16740:16760   */\n      sub\n        /* \"#utility.yul\":16736:16737   */\n      0x00\n        /* \"#utility.yul\":16725:16734   */\n      dup4\n        /* \"#utility.yul\":16721:16738   */\n      add\n        /* \"#utility.yul\":16714:16761   */\n      mstore\n        /* \"#utility.yul\":16778:16909   */\n      tag_458\n        /* \"#utility.yul\":16904:16908   */\n      dup2\n        /* \"#utility.yul\":16778:16909   */\n      tag_296\n      jump\t// in\n    tag_458:\n        /* \"#utility.yul\":16770:16909   */\n      swap1\n      pop\n        /* \"#utility.yul\":16497:16916   */\n      swap2\n      swap1\n      pop\n      jump\t// out\n        /* \"#utility.yul\":16922:17147   */\n    tag_297:\n        /* \"#utility.yul\":17062:17096   */\n      0x45524332303a207472616e7366657220616d6f756e7420657863656564732062\n        /* \"#utility.yul\":17058:17059   */\n      0x00\n        /* \"#utility.yul\":17050:17056   */\n      dup3\n        /* \"#utility.yul\":17046:17060   */\n      add\n        /* \"#utility.yul\":17039:17097   */\n      mstore\n        /* \"#utility.yul\":17131:17139   */\n      0x616c616e63650000000000000000000000000000000000000000000000000000\n        /* \"#utility.yul\":17126:17128   */\n      0x20\n        /* \"#utility.yul\":17118:17124   */\n      dup3\n        /* \"#utility.yul\":17114:17129   */\n      add\n        /* \"#utility.yul\":17107:17140   */\n      mstore\n        /* \"#utility.yul\":16922:17147   */\n      pop\n      jump\t// out\n        /* \"#utility.yul\":17153:17519   */\n    tag_298:\n        /* \"#utility.yul\":17295:17298   */\n      0x00\n        /* \"#utility.yul\":17316:17383   */\n      tag_461\n        /* \"#utility.yul\":17380:17382   */\n      0x26\n        /* \"#utility.yul\":17375:17378   */\n      dup4\n        /* \"#utility.yul\":17316:17383   */\n      tag_257\n      jump\t// in\n    tag_461:\n        /* \"#utility.yul\":17309:17383   */\n      swap2\n      pop\n        /* \"#utility.yul\":17392:17485   */\n      tag_462\n        /* \"#utility.yul\":17481:17484   */\n      dup3\n        /* \"#utility.yul\":17392:17485   */\n      tag_297\n      jump\t// in\n    tag_462:\n        /* \"#utility.yul\":17510:17512   */\n      0x40\n        /* \"#utility.yul\":17505:17508   */\n      dup3\n        /* \"#utility.yul\":17501:17513   */\n      add\n        /* \"#utility.yul\":17494:17513   */\n      swap1\n      pop\n        /* \"#utility.yul\":17153:17519   */\n      swap2\n      swap1\n      pop\n      jump\t// out\n        /* \"#utility.yul\":17525:17944   */\n    tag_215:\n        /* \"#utility.yul\":17691:17695   */\n      0x00\n        /* \"#utility.yul\":17729:17731   */\n      0x20\n        /* \"#utility.yul\":17718:17727   */\n      dup3\n        /* \"#utility.yul\":17714:17732   */\n      add\n        /* \"#utility.yul\":17706:17732   */\n      swap1\n      pop\n        /* \"#utility.yul\":17778:17787   */\n      dup2\n        /* \"#utility.yul\":17772:17776   */\n      dup2\n        /* \"#utility.yul\":17768:17788   */\n      sub\n        /* \"#utility.yul\":17764:17765   */\n      0x00\n        /* \"#utility.yul\":17753:17762   */\n      dup4\n        /* \"#utility.yul\":17749:17766   */\n      add\n        /* \"#utility.yul\":17742:17789   */\n      mstore\n        /* \"#utility.yul\":17806:17937   */\n      tag_464\n        /* \"#utility.yul\":17932:17936   */\n      dup2\n        /* \"#utility.yul\":17806:17937   */\n      tag_298\n      jump\t// in\n    tag_464:\n        /* \"#utility.yul\":17798:17937   */\n      swap1\n      pop\n        /* \"#utility.yul\":17525:17944   */\n      swap2\n      swap1\n      pop\n      jump\t// out\n        /* \"#utility.yul\":17950:18170   */\n    tag_299:\n        /* \"#utility.yul\":18090:18124   */\n      0x45524332303a206275726e2066726f6d20746865207a65726f20616464726573\n        /* \"#utility.yul\":18086:18087   */\n      0x00\n        /* \"#utility.yul\":18078:18084   */\n      dup3\n        /* \"#utility.yul\":18074:18088   */\n      add\n        /* \"#utility.yul\":18067:18125   */\n      mstore\n        /* \"#utility.yul\":18159:18162   */\n      0x7300000000000000000000000000000000000000000000000000000000000000\n        /* \"#utility.yul\":18154:18156   */\n      0x20\n        /* \"#utility.yul\":18146:18152   */\n      dup3\n        /* \"#utility.yul\":18142:18157   */\n      add\n        /* \"#utility.yul\":18135:18163   */\n      mstore\n        /* \"#utility.yul\":17950:18170   */\n      pop\n      jump\t// out\n        /* \"#utility.yul\":18176:18542   */\n    tag_300:\n        /* \"#utility.yul\":18318:18321   */\n      0x00\n        /* \"#utility.yul\":18339:18406   */\n      tag_467\n        /* \"#utility.yul\":18403:18405   */\n      0x21\n        /* \"#utility.yul\":18398:18401   */\n      dup4\n        /* \"#utility.yul\":18339:18406   */\n      tag_257\n      jump\t// in\n    tag_467:\n        /* \"#utility.yul\":18332:18406   */\n      swap2\n      pop\n        /* \"#utility.yul\":18415:18508   */\n      tag_468\n        /* \"#utility.yul\":18504:18507   */\n      dup3\n        /* \"#utility.yul\":18415:18508   */\n      tag_299\n      jump\t// in\n    tag_468:\n        /* \"#utility.yul\":18533:18535   */\n      0x40\n        /* \"#utility.yul\":18528:18531   */\n      dup3\n        /* \"#utility.yul\":18524:18536   */\n      add\n        /* \"#utility.yul\":18517:18536   */\n      swap1\n      pop\n        /* \"#utility.yul\":18176:18542   */\n      swap2\n      swap1\n      pop\n      jump\t// out\n        /* \"#utility.yul\":18548:18967   */\n    tag_223:\n        /* \"#utility.yul\":18714:18718   */\n      0x00\n        /* \"#utility.yul\":18752:18754   */\n      0x20\n        /* \"#utility.yul\":18741:18750   */\n      dup3\n        /* \"#utility.yul\":18737:18755   */\n      add\n        /* \"#utility.yul\":18729:18755   */\n      swap1\n      pop\n        /* \"#utility.yul\":18801:18810   */\n      dup2\n        /* \"#utility.yul\":18795:18799   */\n      dup2\n        /* \"#utility.yul\":18791:18811   */\n      sub\n        /* \"#utility.yul\":18787:18788   */\n      0x00\n        /* \"#utility.yul\":18776:18785   */\n      dup4\n        /* \"#utility.yul\":18772:18789   */\n      add\n        /* \"#utility.yul\":18765:18812   */\n      mstore\n        /* \"#utility.yul\":18829:18960   */\n      tag_470\n        /* \"#utility.yul\":18955:18959   */\n      dup2\n        /* \"#utility.yul\":18829:18960   */\n      tag_300\n      jump\t// in\n    tag_470:\n        /* \"#utility.yul\":18821:18960   */\n      swap1\n      pop\n        /* \"#utility.yul\":18548:18967   */\n      swap2\n      swap1\n      pop\n      jump\t// out\n        /* \"#utility.yul\":18973:19194   */\n    tag_301:\n        /* \"#utility.yul\":19113:19147   */\n      0x45524332303a206275726e20616d6f756e7420657863656564732062616c616e\n        /* \"#utility.yul\":19109:19110   */\n      0x00\n        /* \"#utility.yul\":19101:19107   */\n      dup3\n        /* \"#utility.yul\":19097:19111   */\n      add\n        /* \"#utility.yul\":19090:19148   */\n      mstore\n        /* \"#utility.yul\":19182:19186   */\n      0x6365000000000000000000000000000000000000000000000000000000000000\n        /* \"#utility.yul\":19177:19179   */\n      0x20\n        /* \"#utility.yul\":19169:19175   */\n      dup3\n        /* \"#utility.yul\":19165:19180   */\n      add\n        /* \"#utility.yul\":19158:19187   */\n      mstore\n        /* \"#utility.yul\":18973:19194   */\n      pop\n      jump\t// out\n        /* \"#utility.yul\":19200:19566   */\n    tag_302:\n        /* \"#utility.yul\":19342:19345   */\n      0x00\n        /* \"#utility.yul\":19363:19430   */\n      tag_473\n        /* \"#utility.yul\":19427:19429   */\n      0x22\n        /* \"#utility.yul\":19422:19425   */\n      dup4\n        /* \"#utility.yul\":19363:19430   */\n      tag_257\n      jump\t// in\n    tag_473:\n        /* \"#utility.yul\":19356:19430   */\n      swap2\n      pop\n        /* \"#utility.yul\":19439:19532   */\n      tag_474\n        /* \"#utility.yul\":19528:19531   */\n      dup3\n        /* \"#utility.yul\":19439:19532   */\n      tag_301\n      jump\t// in\n    tag_474:\n        /* \"#utility.yul\":19557:19559   */\n      0x40\n        /* \"#utility.yul\":19552:19555   */\n      dup3\n        /* \"#utility.yul\":19548:19560   */\n      add\n        /* \"#utility.yul\":19541:19560   */\n      swap1\n      pop\n        /* \"#utility.yul\":19200:19566   */\n      swap2\n      swap1\n      pop\n      jump\t// out\n        /* \"#utility.yul\":19572:19991   */\n    tag_227:\n        /* \"#utility.yul\":19738:19742   */\n      0x00\n        /* \"#utility.yul\":19776:19778   */\n      0x20\n        /* \"#utility.yul\":19765:19774   */\n      dup3\n        /* \"#utility.yul\":19761:19779   */\n      add\n        /* \"#utility.yul\":19753:19779   */\n      swap1\n      pop\n        /* \"#utility.yul\":19825:19834   */\n      dup2\n        /* \"#utility.yul\":19819:19823   */\n      dup2\n        /* \"#utility.yul\":19815:19835   */\n      sub\n        /* \"#utility.yul\":19811:19812   */\n      0x00\n        /* \"#utility.yul\":19800:19809   */\n      dup4\n        /* \"#utility.yul\":19796:19813   */\n      add\n        /* \"#utility.yul\":19789:19836   */\n      mstore\n        /* \"#utility.yul\":19853:19984   */\n      tag_476\n        /* \"#utility.yul\":19979:19983   */\n      dup2\n        /* \"#utility.yul\":19853:19984   */\n      tag_302\n      jump\t// in\n    tag_476:\n        /* \"#utility.yul\":19845:19984   */\n      swap1\n      pop\n        /* \"#utility.yul\":19572:19991   */\n      swap2\n      swap1\n      pop\n      jump\t// out\n        /* \"#utility.yul\":19997:20191   */\n    tag_229:\n        /* \"#utility.yul\":20037:20041   */\n      0x00\n        /* \"#utility.yul\":20057:20077   */\n      tag_478\n        /* \"#utility.yul\":20075:20076   */\n      dup3\n        /* \"#utility.yul\":20057:20077   */\n      tag_268\n      jump\t// in\n    tag_478:\n        /* \"#utility.yul\":20052:20077   */\n      swap2\n      pop\n        /* \"#utility.yul\":20091:20111   */\n      tag_479\n        /* \"#utility.yul\":20109:20110   */\n      dup4\n        /* \"#utility.yul\":20091:20111   */\n      tag_268\n      jump\t// in\n    tag_479:\n        /* \"#utility.yul\":20086:20111   */\n      swap3\n      pop\n        /* \"#utility.yul\":20135:20136   */\n      dup3\n        /* \"#utility.yul\":20132:20133   */\n      dup3\n        /* \"#utility.yul\":20128:20137   */\n      sub\n        /* \"#utility.yul\":20120:20137   */\n      swap1\n      pop\n        /* \"#utility.yul\":20159:20160   */\n      dup2\n        /* \"#utility.yul\":20153:20157   */\n      dup2\n        /* \"#utility.yul\":20150:20161   */\n      gt\n        /* \"#utility.yul\":20147:20184   */\n      iszero\n      tag_480\n      jumpi\n        /* \"#utility.yul\":20164:20182   */\n      tag_481\n      tag_282\n      jump\t// in\n    tag_481:\n        /* \"#utility.yul\":20147:20184   */\n    tag_480:\n        /* \"#utility.yul\":19997:20191   */\n      swap3\n      swap2\n      pop\n      pop\n      jump\t// out\n        /* \"#utility.yul\":20197:20358   */\n    tag_303:\n        /* \"#utility.yul\":20337:20350   */\n      0x426c61636b6c6973746564000000000000000000000000000000000000000000\n        /* \"#utility.yul\":20333:20334   */\n      0x00\n        /* \"#utility.yul\":20325:20331   */\n      dup3\n        /* \"#utility.yul\":20321:20335   */\n      add\n        /* \"#utility.yul\":20314:20351   */\n      mstore\n        /* \"#utility.yul\":20197:20358   */\n      pop\n      jump\t// out\n        /* \"#utility.yul\":20364:20730   */\n    tag_304:\n        /* \"#utility.yul\":20506:20509   */\n      0x00\n        /* \"#utility.yul\":20527:20594   */\n      tag_484\n        /* \"#utility.yul\":20591:20593   */\n      0x0b\n        /* \"#utility.yul\":20586:20589   */\n      dup4\n        /* \"#utility.yul\":20527:20594   */\n      tag_257\n      jump\t// in\n    tag_484:\n        /* \"#utility.yul\":20520:20594   */\n      swap2\n      pop\n        /* \"#utility.yul\":20603:20696   */\n      tag_485\n        /* \"#utility.yul\":20692:20695   */\n      dup3\n        /* \"#utility.yul\":20603:20696   */\n      tag_303\n      jump\t// in\n    tag_485:\n        /* \"#utility.yul\":20721:20723   */\n      0x20\n        /* \"#utility.yul\":20716:20719   */\n      dup3\n        /* \"#utility.yul\":20712:20724   */\n      add\n        /* \"#utility.yul\":20705:20724   */\n      swap1\n      pop\n        /* \"#utility.yul\":20364:20730   */\n      swap2\n      swap1\n      pop\n      jump\t// out\n        /* \"#utility.yul\":20736:21155   */\n    tag_237:\n        /* \"#utility.yul\":20902:20906   */\n      0x00\n        /* \"#utility.yul\":20940:20942   */\n      0x20\n        /* \"#utility.yul\":20929:20938   */\n      dup3\n        /* \"#utility.yul\":20925:20943   */\n      add\n        /* \"#utility.yul\":20917:20943   */\n      swap1\n      pop\n        /* \"#utility.yul\":20989:20998   */\n      dup2\n        /* \"#utility.yul\":20983:20987   */\n      dup2\n        /* \"#utility.yul\":20979:20999   */\n      sub\n        /* \"#utility.yul\":20975:20976   */\n      0x00\n        /* \"#utility.yul\":20964:20973   */\n      dup4\n        /* \"#utility.yul\":20960:20977   */\n      add\n        /* \"#utility.yul\":20953:21000   */\n      mstore\n        /* \"#utility.yul\":21017:21148   */\n      tag_487\n        /* \"#utility.yul\":21143:21147   */\n      dup2\n        /* \"#utility.yul\":21017:21148   */\n      tag_304\n      jump\t// in\n    tag_487:\n        /* \"#utility.yul\":21009:21148   */\n      swap1\n      pop\n        /* \"#utility.yul\":20736:21155   */\n      swap2\n      swap1\n      pop\n      jump\t// out\n        /* \"#utility.yul\":21161:21333   */\n    tag_305:\n        /* \"#utility.yul\":21301:21325   */\n      0x74726164696e67206973206e6f74207374617274656400000000000000000000\n        /* \"#utility.yul\":21297:21298   */\n      0x00\n        /* \"#utility.yul\":21289:21295   */\n      dup3\n        /* \"#utility.yul\":21285:21299   */\n      add\n        /* \"#utility.yul\":21278:21326   */\n      mstore\n        /* \"#utility.yul\":21161:21333   */\n      pop\n      jump\t// out\n        /* \"#utility.yul\":21339:21705   */\n    tag_306:\n        /* \"#utility.yul\":21481:21484   */\n      0x00\n        /* \"#utility.yul\":21502:21569   */\n      tag_490\n        /* \"#utility.yul\":21566:21568   */\n      0x16\n        /* \"#utility.yul\":21561:21564   */\n      dup4\n        /* \"#utility.yul\":21502:21569   */\n      tag_257\n      jump\t// in\n    tag_490:\n        /* \"#utility.yul\":21495:21569   */\n      swap2\n      pop\n        /* \"#utility.yul\":21578:21671   */\n      tag_491\n        /* \"#utility.yul\":21667:21670   */\n      dup3\n        /* \"#utility.yul\":21578:21671   */\n      tag_305\n      jump\t// in\n    tag_491:\n        /* \"#utility.yul\":21696:21698   */\n      0x20\n        /* \"#utility.yul\":21691:21694   */\n      dup3\n        /* \"#utility.yul\":21687:21699   */\n      add\n        /* \"#utility.yul\":21680:21699   */\n      swap1\n      pop\n        /* \"#utility.yul\":21339:21705   */\n      swap2\n      swap1\n      pop\n      jump\t// out\n        /* \"#utility.yul\":21711:22130   */\n    tag_244:\n        /* \"#utility.yul\":21877:21881   */\n      0x00\n        /* \"#utility.yul\":21915:21917   */\n      0x20\n        /* \"#utility.yul\":21904:21913   */\n      dup3\n        /* \"#utility.yul\":21900:21918   */\n      add\n        /* \"#utility.yul\":21892:21918   */\n      swap1\n      pop\n        /* \"#utility.yul\":21964:21973   */\n      dup2\n        /* \"#utility.yul\":21958:21962   */\n      dup2\n        /* \"#utility.yul\":21954:21974   */\n      sub\n        /* \"#utility.yul\":21950:21951   */\n      0x00\n        /* \"#utility.yul\":21939:21948   */\n      dup4\n        /* \"#utility.yul\":21935:21952   */\n      add\n        /* \"#utility.yul\":21928:21975   */\n      mstore\n        /* \"#utility.yul\":21992:22123   */\n      tag_493\n        /* \"#utility.yul\":22118:22122   */\n      dup2\n        /* \"#utility.yul\":21992:22123   */\n      tag_306\n      jump\t// in\n    tag_493:\n        /* \"#utility.yul\":21984:22123   */\n      swap1\n      pop\n        /* \"#utility.yul\":21711:22130   */\n      swap2\n      swap1\n      pop\n      jump\t// out\n        /* \"#utility.yul\":22136:22292   */\n    tag_307:\n        /* \"#utility.yul\":22276:22284   */\n      0x466f726269640000000000000000000000000000000000000000000000000000\n        /* \"#utility.yul\":22272:22273   */\n      0x00\n        /* \"#utility.yul\":22264:22270   */\n      dup3\n        /* \"#utility.yul\":22260:22274   */\n      add\n        /* \"#utility.yul\":22253:22285   */\n      mstore\n        /* \"#utility.yul\":22136:22292   */\n      pop\n      jump\t// out\n        /* \"#utility.yul\":22298:22663   */\n    tag_308:\n        /* \"#utility.yul\":22440:22443   */\n      0x00\n        /* \"#utility.yul\":22461:22527   */\n      tag_496\n        /* \"#utility.yul\":22525:22526   */\n      0x06\n        /* \"#utility.yul\":22520:22523   */\n      dup4\n        /* \"#utility.yul\":22461:22527   */\n      tag_257\n      jump\t// in\n    tag_496:\n        /* \"#utility.yul\":22454:22527   */\n      swap2\n      pop\n        /* \"#utility.yul\":22536:22629   */\n      tag_497\n        /* \"#utility.yul\":22625:22628   */\n      dup3\n        /* \"#utility.yul\":22536:22629   */\n      tag_307\n      jump\t// in\n    tag_497:\n        /* \"#utility.yul\":22654:22656   */\n      0x20\n        /* \"#utility.yul\":22649:22652   */\n      dup3\n        /* \"#utility.yul\":22645:22657   */\n      add\n        /* \"#utility.yul\":22638:22657   */\n      swap1\n      pop\n        /* \"#utility.yul\":22298:22663   */\n      swap2\n      swap1\n      pop\n      jump\t// out\n        /* \"#utility.yul\":22669:23088   */\n    tag_254:\n        /* \"#utility.yul\":22835:22839   */\n      0x00\n        /* \"#utility.yul\":22873:22875   */\n      0x20\n        /* \"#utility.yul\":22862:22871   */\n      dup3\n        /* \"#utility.yul\":22858:22876   */\n      add\n        /* \"#utility.yul\":22850:22876   */\n      swap1\n      pop\n        /* \"#utility.yul\":22922:22931   */\n      dup2\n        /* \"#utility.yul\":22916:22920   */\n      dup2\n        /* \"#utility.yul\":22912:22932   */\n      sub\n        /* \"#utility.yul\":22908:22909   */\n      0x00\n        /* \"#utility.yul\":22897:22906   */\n      dup4\n        /* \"#utility.yul\":22893:22910   */\n      add\n        /* \"#utility.yul\":22886:22933   */\n      mstore\n        /* \"#utility.yul\":22950:23081   */\n      tag_499\n        /* \"#utility.yul\":23076:23080   */\n      dup2\n        /* \"#utility.yul\":22950:23081   */\n      tag_308\n      jump\t// in\n    tag_499:\n        /* \"#utility.yul\":22942:23081   */\n      swap1\n      pop\n        /* \"#utility.yul\":22669:23088   */\n      swap2\n      swap1\n      pop\n      jump\t// out\n\n    auxdata: 0xa2646970667358221220b2a8590b3b4bd667fb24979f12edce5d97053fabb02852afce4153f6dd788daa64736f6c63430008140033\n}\n",
				"bytecode": {
					"linkReferences": {},
					"object": "608060405234801562000010575f80fd5b5060405162002f7038038062002f708339818101604052810190620000369190620006f0565b6040518060400160405280600481526020017f50657065000000000000000000000000000000000000000000000000000000008152506040518060400160405280600481526020017f5045504500000000000000000000000000000000000000000000000000000000815250620000c2620000b66200010160201b60201c565b6200010860201b60201c565b8160049081620000d391906200097b565b508060059081620000e591906200097b565b505050620000fa3382620001c960201b60201c565b5062000cba565b5f33905090565b5f805f9054906101000a900473ffffffffffffffffffffffffffffffffffffffff169050815f806101000a81548173ffffffffffffffffffffffffffffffffffffffff021916908373ffffffffffffffffffffffffffffffffffffffff1602179055508173ffffffffffffffffffffffffffffffffffffffff168173ffffffffffffffffffffffffffffffffffffffff167f8be0079c531659141344cd1fd0a4f28419497f9722a3daafe3b4186f6b6457e060405160405180910390a35050565b5f73ffffffffffffffffffffffffffffffffffffffff168273ffffffffffffffffffffffffffffffffffffffff16036200023a576040517f08c379a0000000000000000000000000000000000000000000000000000000008152600401620002319062000abd565b60405180910390fd5b6200024d5f83836200033a60201b60201c565b8060035f82825462000260919062000b0a565b925050819055508060015f8473ffffffffffffffffffffffffffffffffffffffff1673ffffffffffffffffffffffffffffffffffffffff1681526020019081526020015f205f828254620002b5919062000b0a565b925050819055508173ffffffffffffffffffffffffffffffffffffffff165f73ffffffffffffffffffffffffffffffffffffffff167fddf252ad1be2c89b69c2b068fc378daa952ba7f163c4a11628f55a4df523b3ef836040516200031b919062000b55565b60405180910390a3620003365f83836200064260201b60201c565b5050565b600a5f8373ffffffffffffffffffffffffffffffffffffffff1673ffffffffffffffffffffffffffffffffffffffff1681526020019081526020015f205f9054906101000a900460ff16158015620003d95750600a5f8473ffffffffffffffffffffffffffffffffffffffff1673ffffffffffffffffffffffffffffffffffffffff1681526020019081526020015f205f9054906101000a900460ff16155b6200041b576040517f08c379a0000000000000000000000000000000000000000000000000000000008152600401620004129062000bbe565b60405180910390fd5b5f73ffffffffffffffffffffffffffffffffffffffff1660095f9054906101000a900473ffffffffffffffffffffffffffffffffffffffff1673ffffffffffffffffffffffffffffffffffffffff16036200053c57620004806200064760201b60201c565b73ffffffffffffffffffffffffffffffffffffffff168373ffffffffffffffffffffffffffffffffffffffff161480620004f45750620004c56200064760201b60201c565b73ffffffffffffffffffffffffffffffffffffffff168273ffffffffffffffffffffffffffffffffffffffff16145b62000536576040517f08c379a00000000000000000000000000000000000000000000000000000000081526004016200052d9062000c2c565b60405180910390fd5b6200063d565b60065f9054906101000a900460ff168015620005a4575060095f9054906101000a900473ffffffffffffffffffffffffffffffffffffffff1673ffffffffffffffffffffffffffffffffffffffff168373ffffffffffffffffffffffffffffffffffffffff16145b156200063c5760075481620005bf846200066e60201b60201c565b620005cb919062000b0a565b11158015620005f9575060085481620005ea846200066e60201b60201c565b620005f6919062000b0a565b10155b6200063b576040517f08c379a0000000000000000000000000000000000000000000000000000000008152600401620006329062000c9a565b60405180910390fd5b5b5b505050565b505050565b5f805f9054906101000a900473ffffffffffffffffffffffffffffffffffffffff16905090565b5f60015f8373ffffffffffffffffffffffffffffffffffffffff1673ffffffffffffffffffffffffffffffffffffffff1681526020019081526020015f20549050919050565b5f80fd5b5f819050919050565b620006cc81620006b8565b8114620006d7575f80fd5b50565b5f81519050620006ea81620006c1565b92915050565b5f60208284031215620007085762000707620006b4565b5b5f6200071784828501620006da565b91505092915050565b5f81519050919050565b7f4e487b71000000000000000000000000000000000000000000000000000000005f52604160045260245ffd5b7f4e487b71000000000000000000000000000000000000000000000000000000005f52602260045260245ffd5b5f60028204905060018216806200079c57607f821691505b602082108103620007b257620007b162000757565b5b50919050565b5f819050815f5260205f209050919050565b5f6020601f8301049050919050565b5f82821b905092915050565b5f60088302620008167fffffffffffffffffffffffffffffffffffffffffffffffffffffffffffffffff82620007d9565b620008228683620007d9565b95508019841693508086168417925050509392505050565b5f819050919050565b5f620008636200085d6200085784620006b8565b6200083a565b620006b8565b9050919050565b5f819050919050565b6200087e8362000843565b620008966200088d826200086a565b848454620007e5565b825550505050565b5f90565b620008ac6200089e565b620008b981848462000873565b505050565b5b81811015620008e057620008d45f82620008a2565b600181019050620008bf565b5050565b601f8211156200092f57620008f981620007b8565b6200090484620007ca565b8101602085101562000914578190505b6200092c6200092385620007ca565b830182620008be565b50505b505050565b5f82821c905092915050565b5f620009515f198460080262000934565b1980831691505092915050565b5f6200096b838362000940565b9150826002028217905092915050565b620009868262000720565b67ffffffffffffffff811115620009a257620009a16200072a565b5b620009ae825462000784565b620009bb828285620008e4565b5f60209050601f831160018114620009f1575f8415620009dc578287015190505b620009e885826200095e565b86555062000a57565b601f19841662000a0186620007b8565b5f5b8281101562000a2a5784890151825560018201915060208501945060208101905062000a03565b8683101562000a4a578489015162000a46601f89168262000940565b8355505b6001600288020188555050505b505050505050565b5f82825260208201905092915050565b7f45524332303a206d696e7420746f20746865207a65726f2061646472657373005f82015250565b5f62000aa5601f8362000a5f565b915062000ab28262000a6f565b602082019050919050565b5f6020820190508181035f83015262000ad68162000a97565b9050919050565b7f4e487b71000000000000000000000000000000000000000000000000000000005f52601160045260245ffd5b5f62000b1682620006b8565b915062000b2383620006b8565b925082820190508082111562000b3e5762000b3d62000add565b5b92915050565b62000b4f81620006b8565b82525050565b5f60208201905062000b6a5f83018462000b44565b92915050565b7f426c61636b6c69737465640000000000000000000000000000000000000000005f82015250565b5f62000ba6600b8362000a5f565b915062000bb38262000b70565b602082019050919050565b5f6020820190508181035f83015262000bd78162000b98565b9050919050565b7f74726164696e67206973206e6f742073746172746564000000000000000000005f82015250565b5f62000c1460168362000a5f565b915062000c218262000bde565b602082019050919050565b5f6020820190508181035f83015262000c458162000c06565b9050919050565b7f466f7262696400000000000000000000000000000000000000000000000000005f82015250565b5f62000c8260068362000a5f565b915062000c8f8262000c4c565b602082019050919050565b5f6020820190508181035f83015262000cb38162000c74565b9050919050565b6122a88062000cc85f395ff3fe608060405234801561000f575f80fd5b5060043610610140575f3560e01c806349bd5a5e116100b65780638da5cb5b1161007a5780638da5cb5b1461036457806395d89b4114610382578063a457c2d7146103a0578063a9059cbb146103d0578063dd62ed3e14610400578063f2fde38b1461043057610140565b806349bd5a5e146102d057806370a08231146102ee578063715018a61461031e578063860a32ec1461032857806389f9a1d31461034657610140565b806323b872dd1161010857806323b872dd146101fe578063313ce5671461022e578063395093511461024c5780633aa633aa1461027c578063404e51291461029857806342966c68146102b457610140565b806306fdde0314610144578063095ea7b31461016257806316c021291461019257806318160ddd146101c25780631ab99e12146101e0575b5f80fd5b61014c61044c565b6040516101599190611700565b60405180910390f35b61017c600480360381019061017791906117b1565b6104dc565b6040516101899190611809565b60405180910390f35b6101ac60048036038101906101a79190611822565b6104f9565b6040516101b99190611809565b60405180910390f35b6101ca610516565b6040516101d7919061185c565b60405180910390f35b6101e861051f565b6040516101f5919061185c565b60405180910390f35b61021860048036038101906102139190611875565b610525565b6040516102259190611809565b60405180910390f35b610236610617565b60405161024391906118e0565b60405180910390f35b610266600480360381019061026191906117b1565b61061f565b6040516102739190611809565b60405180910390f35b61029660048036038101906102919190611923565b6106c6565b005b6102b260048036038101906102ad9190611987565b6107af565b005b6102ce60048036038101906102c991906119c5565b610883565b005b6102d8610890565b6040516102e591906119ff565b60405180910390f35b61030860048036038101906103039190611822565b6108b5565b604051610315919061185c565b60405180910390f35b6103266108fb565b005b610330610982565b60405161033d9190611809565b60405180910390f35b61034e610994565b60405161035b919061185c565b60405180910390f35b61036c61099a565b60405161037991906119ff565b60405180910390f35b61038a6109c1565b6040516103979190611700565b60405180910390f35b6103ba60048036038101906103b591906117b1565b610a51565b6040516103c79190611809565b60405180910390f35b6103ea60048036038101906103e591906117b1565b610b37565b6040516103f79190611809565b60405180910390f35b61041a60048036038101906104159190611a18565b610b54565b604051610427919061185c565b60405180910390f35b61044a60048036038101906104459190611822565b610bd6565b005b60606004805461045b90611a83565b80601f016020809104026020016040519081016040528092919081815260200182805461048790611a83565b80156104d25780601f106104a9576101008083540402835291602001916104d2565b820191905f5260205f20905b8154815290600101906020018083116104b557829003601f168201915b5050505050905090565b5f6104ef6104e8610ccc565b8484610cd3565b6001905092915050565b600a602052805f5260405f205f915054906101000a900460ff1681565b5f600354905090565b60085481565b5f610531848484610e96565b5f60025f8673ffffffffffffffffffffffffffffffffffffffff1673ffffffffffffffffffffffffffffffffffffffff1681526020019081526020015f205f610578610ccc565b73ffffffffffffffffffffffffffffffffffffffff1673ffffffffffffffffffffffffffffffffffffffff1681526020019081526020015f20549050828110156105f7576040517f08c379a00000000000000000000000000000000000000000000000000000000081526004016105ee90611b23565b60405180910390fd5b61060b85610603610ccc565b858403610cd3565b60019150509392505050565b5f6012905090565b5f6106bc61062b610ccc565b848460025f610638610ccc565b73ffffffffffffffffffffffffffffffffffffffff1673ffffffffffffffffffffffffffffffffffffffff1681526020019081526020015f205f8873ffffffffffffffffffffffffffffffffffffffff1673ffffffffffffffffffffffffffffffffffffffff1681526020019081526020015f20546106b79190611b6e565b610cd3565b6001905092915050565b6106ce610ccc565b73ffffffffffffffffffffffffffffffffffffffff166106ec61099a565b73ffffffffffffffffffffffffffffffffffffffff1614610742576040517f08c379a000000000000000000000000000000000000000000000000000000000815260040161073990611beb565b60405180910390fd5b8360065f6101000a81548160ff0219169083151502179055508260095f6101000a81548173ffffffffffffffffffffffffffffffffffffffff021916908373ffffffffffffffffffffffffffffffffffffffff160217905550816007819055508060088190555050505050565b6107b7610ccc565b73ffffffffffffffffffffffffffffffffffffffff166107d561099a565b73ffffffffffffffffffffffffffffffffffffffff161461082b576040517f08c379a000000000000000000000000000000000000000000000000000000000815260040161082290611beb565b60405180910390fd5b80600a5f8473ffffffffffffffffffffffffffffffffffffffff1673ffffffffffffffffffffffffffffffffffffffff1681526020019081526020015f205f6101000a81548160ff0219169083151502179055505050565b61088d338261110e565b50565b60095f9054906101000a900473ffffffffffffffffffffffffffffffffffffffff1681565b5f60015f8373ffffffffffffffffffffffffffffffffffffffff1673ffffffffffffffffffffffffffffffffffffffff1681526020019081526020015f20549050919050565b610903610ccc565b73ffffffffffffffffffffffffffffffffffffffff1661092161099a565b73ffffffffffffffffffffffffffffffffffffffff1614610977576040517f08c379a000000000000000000000000000000000000000000000000000000000815260040161096e90611beb565b60405180910390fd5b6109805f6112dc565b565b60065f9054906101000a900460ff1681565b60075481565b5f805f9054906101000a900473ffffffffffffffffffffffffffffffffffffffff16905090565b6060600580546109d090611a83565b80601f01602080910402602001604051908101604052809291908181526020018280546109fc90611a83565b8015610a475780601f10610a1e57610100808354040283529160200191610a47565b820191905f5260205f20905b815481529060010190602001808311610a2a57829003601f168201915b5050505050905090565b5f8060025f610a5e610ccc565b73ffffffffffffffffffffffffffffffffffffffff1673ffffffffffffffffffffffffffffffffffffffff1681526020019081526020015f205f8573ffffffffffffffffffffffffffffffffffffffff1673ffffffffffffffffffffffffffffffffffffffff1681526020019081526020015f2054905082811015610b18576040517f08c379a0000000000000000000000000000000000000000000000000000000008152600401610b0f90611c79565b60405180910390fd5b610b2c610b23610ccc565b85858403610cd3565b600191505092915050565b5f610b4a610b43610ccc565b8484610e96565b6001905092915050565b5f60025f8473ffffffffffffffffffffffffffffffffffffffff1673ffffffffffffffffffffffffffffffffffffffff1681526020019081526020015f205f8373ffffffffffffffffffffffffffffffffffffffff1673ffffffffffffffffffffffffffffffffffffffff1681526020019081526020015f2054905092915050565b610bde610ccc565b73ffffffffffffffffffffffffffffffffffffffff16610bfc61099a565b73ffffffffffffffffffffffffffffffffffffffff1614610c52576040517f08c379a0000000000000000000000000000000000000000000000000000000008152600401610c4990611beb565b60405180910390fd5b5f73ffffffffffffffffffffffffffffffffffffffff168173ffffffffffffffffffffffffffffffffffffffff1603610cc0576040517f08c379a0000000000000000000000000000000000000000000000000000000008152600401610cb790611d07565b60405180910390fd5b610cc9816112dc565b50565b5f33905090565b5f73ffffffffffffffffffffffffffffffffffffffff168373ffffffffffffffffffffffffffffffffffffffff1603610d41576040517f08c379a0000000000000000000000000000000000000000000000000000000008152600401610d3890611d95565b60405180910390fd5b5f73ffffffffffffffffffffffffffffffffffffffff168273ffffffffffffffffffffffffffffffffffffffff1603610daf576040517f08c379a0000000000000000000000000000000000000000000000000000000008152600401610da690611e23565b60405180910390fd5b8060025f8573ffffffffffffffffffffffffffffffffffffffff1673ffffffffffffffffffffffffffffffffffffffff1681526020019081526020015f205f8473ffffffffffffffffffffffffffffffffffffffff1673ffffffffffffffffffffffffffffffffffffffff1681526020019081526020015f20819055508173ffffffffffffffffffffffffffffffffffffffff168373ffffffffffffffffffffffffffffffffffffffff167f8c5be1e5ebec7d5bd14f71427d1e84f3dd0314c0f7b2291e5b200ac8c7c3b92583604051610e89919061185c565b60405180910390a3505050565b5f73ffffffffffffffffffffffffffffffffffffffff168373ffffffffffffffffffffffffffffffffffffffff1603610f04576040517f08c379a0000000000000000000000000000000000000000000000000000000008152600401610efb90611eb1565b60405180910390fd5b5f73ffffffffffffffffffffffffffffffffffffffff168273ffffffffffffffffffffffffffffffffffffffff1603610f72576040517f08c379a0000000000000000000000000000000000000000000000000000000008152600401610f6990611f3f565b60405180910390fd5b610f7d83838361139d565b5f60015f8573ffffffffffffffffffffffffffffffffffffffff1673ffffffffffffffffffffffffffffffffffffffff1681526020019081526020015f2054905081811015611001576040517f08c379a0000000000000000000000000000000000000000000000000000000008152600401610ff890611fcd565b60405180910390fd5b81810360015f8673ffffffffffffffffffffffffffffffffffffffff1673ffffffffffffffffffffffffffffffffffffffff1681526020019081526020015f20819055508160015f8573ffffffffffffffffffffffffffffffffffffffff1673ffffffffffffffffffffffffffffffffffffffff1681526020019081526020015f205f8282546110919190611b6e565b925050819055508273ffffffffffffffffffffffffffffffffffffffff168473ffffffffffffffffffffffffffffffffffffffff167fddf252ad1be2c89b69c2b068fc378daa952ba7f163c4a11628f55a4df523b3ef846040516110f5919061185c565b60405180910390a3611108848484611671565b50505050565b5f73ffffffffffffffffffffffffffffffffffffffff168273ffffffffffffffffffffffffffffffffffffffff160361117c576040517f08c379a00000000000000000000000000000000000000000000000000000000081526004016111739061205b565b60405180910390fd5b611187825f8361139d565b5f60015f8473ffffffffffffffffffffffffffffffffffffffff1673ffffffffffffffffffffffffffffffffffffffff1681526020019081526020015f205490508181101561120b576040517f08c379a0000000000000000000000000000000000000000000000000000000008152600401611202906120e9565b60405180910390fd5b81810360015f8573ffffffffffffffffffffffffffffffffffffffff1673ffffffffffffffffffffffffffffffffffffffff1681526020019081526020015f20819055508160035f8282546112609190612107565b925050819055505f73ffffffffffffffffffffffffffffffffffffffff168373ffffffffffffffffffffffffffffffffffffffff167fddf252ad1be2c89b69c2b068fc378daa952ba7f163c4a11628f55a4df523b3ef846040516112c4919061185c565b60405180910390a36112d7835f84611671565b505050565b5f805f9054906101000a900473ffffffffffffffffffffffffffffffffffffffff169050815f806101000a81548173ffffffffffffffffffffffffffffffffffffffff021916908373ffffffffffffffffffffffffffffffffffffffff1602179055508173ffffffffffffffffffffffffffffffffffffffff168173ffffffffffffffffffffffffffffffffffffffff167f8be0079c531659141344cd1fd0a4f28419497f9722a3daafe3b4186f6b6457e060405160405180910390a35050565b600a5f8373ffffffffffffffffffffffffffffffffffffffff1673ffffffffffffffffffffffffffffffffffffffff1681526020019081526020015f205f9054906101000a900460ff1615801561143b5750600a5f8473ffffffffffffffffffffffffffffffffffffffff1673ffffffffffffffffffffffffffffffffffffffff1681526020019081526020015f205f9054906101000a900460ff16155b61147a576040517f08c379a000000000000000000000000000000000000000000000000000000000815260040161147190612184565b60405180910390fd5b5f73ffffffffffffffffffffffffffffffffffffffff1660095f9054906101000a900473ffffffffffffffffffffffffffffffffffffffff1673ffffffffffffffffffffffffffffffffffffffff1603611585576114d661099a565b73ffffffffffffffffffffffffffffffffffffffff168373ffffffffffffffffffffffffffffffffffffffff161480611541575061151261099a565b73ffffffffffffffffffffffffffffffffffffffff168273ffffffffffffffffffffffffffffffffffffffff16145b611580576040517f08c379a0000000000000000000000000000000000000000000000000000000008152600401611577906121ec565b60405180910390fd5b61166c565b60065f9054906101000a900460ff1680156115ec575060095f9054906101000a900473ffffffffffffffffffffffffffffffffffffffff1673ffffffffffffffffffffffffffffffffffffffff168373ffffffffffffffffffffffffffffffffffffffff16145b1561166b57600754816115fe846108b5565b6116089190611b6e565b1115801561162b57506008548161161e846108b5565b6116289190611b6e565b10155b61166a576040517f08c379a000000000000000000000000000000000000000000000000000000000815260040161166190612254565b60405180910390fd5b5b5b505050565b505050565b5f81519050919050565b5f82825260208201905092915050565b5f5b838110156116ad578082015181840152602081019050611692565b5f8484015250505050565b5f601f19601f8301169050919050565b5f6116d282611676565b6116dc8185611680565b93506116ec818560208601611690565b6116f5816116b8565b840191505092915050565b5f6020820190508181035f83015261171881846116c8565b905092915050565b5f80fd5b5f73ffffffffffffffffffffffffffffffffffffffff82169050919050565b5f61174d82611724565b9050919050565b61175d81611743565b8114611767575f80fd5b50565b5f8135905061177881611754565b92915050565b5f819050919050565b6117908161177e565b811461179a575f80fd5b50565b5f813590506117ab81611787565b92915050565b5f80604083850312156117c7576117c6611720565b5b5f6117d48582860161176a565b92505060206117e58582860161179d565b9150509250929050565b5f8115159050919050565b611803816117ef565b82525050565b5f60208201905061181c5f8301846117fa565b92915050565b5f6020828403121561183757611836611720565b5b5f6118448482850161176a565b91505092915050565b6118568161177e565b82525050565b5f60208201905061186f5f83018461184d565b92915050565b5f805f6060848603121561188c5761188b611720565b5b5f6118998682870161176a565b93505060206118aa8682870161176a565b92505060406118bb8682870161179d565b9150509250925092565b5f60ff82169050919050565b6118da816118c5565b82525050565b5f6020820190506118f35f8301846118d1565b92915050565b611902816117ef565b811461190c575f80fd5b50565b5f8135905061191d816118f9565b92915050565b5f805f806080858703121561193b5761193a611720565b5b5f6119488782880161190f565b94505060206119598782880161176a565b935050604061196a8782880161179d565b925050606061197b8782880161179d565b91505092959194509250565b5f806040838503121561199d5761199c611720565b5b5f6119aa8582860161176a565b92505060206119bb8582860161190f565b9150509250929050565b5f602082840312156119da576119d9611720565b5b5f6119e78482850161179d565b91505092915050565b6119f981611743565b82525050565b5f602082019050611a125f8301846119f0565b92915050565b5f8060408385031215611a2e57611a2d611720565b5b5f611a3b8582860161176a565b9250506020611a4c8582860161176a565b9150509250929050565b7f4e487b71000000000000000000000000000000000000000000000000000000005f52602260045260245ffd5b5f6002820490506001821680611a9a57607f821691505b602082108103611aad57611aac611a56565b5b50919050565b7f45524332303a207472616e7366657220616d6f756e74206578636565647320615f8201527f6c6c6f77616e6365000000000000000000000000000000000000000000000000602082015250565b5f611b0d602883611680565b9150611b1882611ab3565b604082019050919050565b5f6020820190508181035f830152611b3a81611b01565b9050919050565b7f4e487b71000000000000000000000000000000000000000000000000000000005f52601160045260245ffd5b5f611b788261177e565b9150611b838361177e565b9250828201905080821115611b9b57611b9a611b41565b5b92915050565b7f4f776e61626c653a2063616c6c6572206973206e6f7420746865206f776e65725f82015250565b5f611bd5602083611680565b9150611be082611ba1565b602082019050919050565b5f6020820190508181035f830152611c0281611bc9565b9050919050565b7f45524332303a2064656372656173656420616c6c6f77616e63652062656c6f775f8201527f207a65726f000000000000000000000000000000000000000000000000000000602082015250565b5f611c63602583611680565b9150611c6e82611c09565b604082019050919050565b5f6020820190508181035f830152611c9081611c57565b9050919050565b7f4f776e61626c653a206e6577206f776e657220697320746865207a65726f20615f8201527f6464726573730000000000000000000000000000000000000000000000000000602082015250565b5f611cf1602683611680565b9150611cfc82611c97565b604082019050919050565b5f6020820190508181035f830152611d1e81611ce5565b9050919050565b7f45524332303a20617070726f76652066726f6d20746865207a65726f206164645f8201527f7265737300000000000000000000000000000000000000000000000000000000602082015250565b5f611d7f602483611680565b9150611d8a82611d25565b604082019050919050565b5f6020820190508181035f830152611dac81611d73565b9050919050565b7f45524332303a20617070726f766520746f20746865207a65726f2061646472655f8201527f7373000000000000000000000000000000000000000000000000000000000000602082015250565b5f611e0d602283611680565b9150611e1882611db3565b604082019050919050565b5f6020820190508181035f830152611e3a81611e01565b9050919050565b7f45524332303a207472616e736665722066726f6d20746865207a65726f2061645f8201527f6472657373000000000000000000000000000000000000000000000000000000602082015250565b5f611e9b602583611680565b9150611ea682611e41565b604082019050919050565b5f6020820190508181035f830152611ec881611e8f565b9050919050565b7f45524332303a207472616e7366657220746f20746865207a65726f20616464725f8201527f6573730000000000000000000000000000000000000000000000000000000000602082015250565b5f611f29602383611680565b9150611f3482611ecf565b604082019050919050565b5f6020820190508181035f830152611f5681611f1d565b9050919050565b7f45524332303a207472616e7366657220616d6f756e74206578636565647320625f8201527f616c616e63650000000000000000000000000000000000000000000000000000602082015250565b5f611fb7602683611680565b9150611fc282611f5d565b604082019050919050565b5f6020820190508181035f830152611fe481611fab565b9050919050565b7f45524332303a206275726e2066726f6d20746865207a65726f206164647265735f8201527f7300000000000000000000000000000000000000000000000000000000000000602082015250565b5f612045602183611680565b915061205082611feb565b604082019050919050565b5f6020820190508181035f83015261207281612039565b9050919050565b7f45524332303a206275726e20616d6f756e7420657863656564732062616c616e5f8201527f6365000000000000000000000000000000000000000000000000000000000000602082015250565b5f6120d3602283611680565b91506120de82612079565b604082019050919050565b5f6020820190508181035f830152612100816120c7565b9050919050565b5f6121118261177e565b915061211c8361177e565b925082820390508181111561213457612133611b41565b5b92915050565b7f426c61636b6c69737465640000000000000000000000000000000000000000005f82015250565b5f61216e600b83611680565b91506121798261213a565b602082019050919050565b5f6020820190508181035f83015261219b81612162565b9050919050565b7f74726164696e67206973206e6f742073746172746564000000000000000000005f82015250565b5f6121d6601683611680565b91506121e1826121a2565b602082019050919050565b5f6020820190508181035f830152612203816121ca565b9050919050565b7f466f7262696400000000000000000000000000000000000000000000000000005f82015250565b5f61223e600683611680565b91506122498261220a565b602082019050919050565b5f6020820190508181035f83015261226b81612232565b905091905056fea2646970667358221220b2a8590b3b4bd667fb24979f12edce5d97053fabb02852afce4153f6dd788daa64736f6c63430008140033",
					"opcodes": "PUSH1 0x80 PUSH1 0x40 MSTORE CALLVALUE DUP1 ISZERO PUSH3 0x10 JUMPI PUSH0 DUP1 REVERT JUMPDEST POP PUSH1 0x40 MLOAD PUSH3 0x2F70 CODESIZE SUB DUP1 PUSH3 0x2F70 DUP4 CODECOPY DUP2 DUP2 ADD PUSH1 0x40 MSTORE DUP2 ADD SWAP1 PUSH3 0x36 SWAP2 SWAP1 PUSH3 0x6F0 JUMP JUMPDEST PUSH1 0x40 MLOAD DUP1 PUSH1 0x40 ADD PUSH1 0x40 MSTORE DUP1 PUSH1 0x4 DUP2 MSTORE PUSH1 0x20 ADD PUSH32 0x5065706500000000000000000000000000000000000000000000000000000000 DUP2 MSTORE POP PUSH1 0x40 MLOAD DUP1 PUSH1 0x40 ADD PUSH1 0x40 MSTORE DUP1 PUSH1 0x4 DUP2 MSTORE PUSH1 0x20 ADD PUSH32 0x5045504500000000000000000000000000000000000000000000000000000000 DUP2 MSTORE POP PUSH3 0xC2 PUSH3 0xB6 PUSH3 0x101 PUSH1 0x20 SHL PUSH1 0x20 SHR JUMP JUMPDEST PUSH3 0x108 PUSH1 0x20 SHL PUSH1 0x20 SHR JUMP JUMPDEST DUP2 PUSH1 0x4 SWAP1 DUP2 PUSH3 0xD3 SWAP2 SWAP1 PUSH3 0x97B JUMP JUMPDEST POP DUP1 PUSH1 0x5 SWAP1 DUP2 PUSH3 0xE5 SWAP2 SWAP1 PUSH3 0x97B JUMP JUMPDEST POP POP POP PUSH3 0xFA CALLER DUP3 PUSH3 0x1C9 PUSH1 0x20 SHL PUSH1 0x20 SHR JUMP JUMPDEST POP PUSH3 0xCBA JUMP JUMPDEST PUSH0 CALLER SWAP1 POP SWAP1 JUMP JUMPDEST PUSH0 DUP1 PUSH0 SWAP1 SLOAD SWAP1 PUSH2 0x100 EXP SWAP1 DIV PUSH20 0xFFFFFFFFFFFFFFFFFFFFFFFFFFFFFFFFFFFFFFFF AND SWAP1 POP DUP2 PUSH0 DUP1 PUSH2 0x100 EXP DUP2 SLOAD DUP2 PUSH20 0xFFFFFFFFFFFFFFFFFFFFFFFFFFFFFFFFFFFFFFFF MUL NOT AND SWAP1 DUP4 PUSH20 0xFFFFFFFFFFFFFFFFFFFFFFFFFFFFFFFFFFFFFFFF AND MUL OR SWAP1 SSTORE POP DUP2 PUSH20 0xFFFFFFFFFFFFFFFFFFFFFFFFFFFFFFFFFFFFFFFF AND DUP2 PUSH20 0xFFFFFFFFFFFFFFFFFFFFFFFFFFFFFFFFFFFFFFFF AND PUSH32 0x8BE0079C531659141344CD1FD0A4F28419497F9722A3DAAFE3B4186F6B6457E0 PUSH1 0x40 MLOAD PUSH1 0x40 MLOAD DUP1 SWAP2 SUB SWAP1 LOG3 POP POP JUMP JUMPDEST PUSH0 PUSH20 0xFFFFFFFFFFFFFFFFFFFFFFFFFFFFFFFFFFFFFFFF AND DUP3 PUSH20 0xFFFFFFFFFFFFFFFFFFFFFFFFFFFFFFFFFFFFFFFF AND SUB PUSH3 0x23A JUMPI PUSH1 0x40 MLOAD PUSH32 0x8C379A000000000000000000000000000000000000000000000000000000000 DUP2 MSTORE PUSH1 0x4 ADD PUSH3 0x231 SWAP1 PUSH3 0xABD JUMP JUMPDEST PUSH1 0x40 MLOAD DUP1 SWAP2 SUB SWAP1 REVERT JUMPDEST PUSH3 0x24D PUSH0 DUP4 DUP4 PUSH3 0x33A PUSH1 0x20 SHL PUSH1 0x20 SHR JUMP JUMPDEST DUP1 PUSH1 0x3 PUSH0 DUP3 DUP3 SLOAD PUSH3 0x260 SWAP2 SWAP1 PUSH3 0xB0A JUMP JUMPDEST SWAP3 POP POP DUP2 SWAP1 SSTORE POP DUP1 PUSH1 0x1 PUSH0 DUP5 PUSH20 0xFFFFFFFFFFFFFFFFFFFFFFFFFFFFFFFFFFFFFFFF AND PUSH20 0xFFFFFFFFFFFFFFFFFFFFFFFFFFFFFFFFFFFFFFFF AND DUP2 MSTORE PUSH1 0x20 ADD SWAP1 DUP2 MSTORE PUSH1 0x20 ADD PUSH0 KECCAK256 PUSH0 DUP3 DUP3 SLOAD PUSH3 0x2B5 SWAP2 SWAP1 PUSH3 0xB0A JUMP JUMPDEST SWAP3 POP POP DUP2 SWAP1 SSTORE POP DUP2 PUSH20 0xFFFFFFFFFFFFFFFFFFFFFFFFFFFFFFFFFFFFFFFF AND PUSH0 PUSH20 0xFFFFFFFFFFFFFFFFFFFFFFFFFFFFFFFFFFFFFFFF AND PUSH32 0xDDF252AD1BE2C89B69C2B068FC378DAA952BA7F163C4A11628F55A4DF523B3EF DUP4 PUSH1 0x40 MLOAD PUSH3 0x31B SWAP2 SWAP1 PUSH3 0xB55 JUMP JUMPDEST PUSH1 0x40 MLOAD DUP1 SWAP2 SUB SWAP1 LOG3 PUSH3 0x336 PUSH0 DUP4 DUP4 PUSH3 0x642 PUSH1 0x20 SHL PUSH1 0x20 SHR JUMP JUMPDEST POP POP JUMP JUMPDEST PUSH1 0xA PUSH0 DUP4 PUSH20 0xFFFFFFFFFFFFFFFFFFFFFFFFFFFFFFFFFFFFFFFF AND PUSH20 0xFFFFFFFFFFFFFFFFFFFFFFFFFFFFFFFFFFFFFFFF AND DUP2 MSTORE PUSH1 0x20 ADD SWAP1 DUP2 MSTORE PUSH1 0x20 ADD PUSH0 KECCAK256 PUSH0 SWAP1 SLOAD SWAP1 PUSH2 0x100 EXP SWAP1 DIV PUSH1 0xFF AND ISZERO DUP1 ISZERO PUSH3 0x3D9 JUMPI POP PUSH1 0xA PUSH0 DUP5 PUSH20 0xFFFFFFFFFFFFFFFFFFFFFFFFFFFFFFFFFFFFFFFF AND PUSH20 0xFFFFFFFFFFFFFFFFFFFFFFFFFFFFFFFFFFFFFFFF AND DUP2 MSTORE PUSH1 0x20 ADD SWAP1 DUP2 MSTORE PUSH1 0x20 ADD PUSH0 KECCAK256 PUSH0 SWAP1 SLOAD SWAP1 PUSH2 0x100 EXP SWAP1 DIV PUSH1 0xFF AND ISZERO JUMPDEST PUSH3 0x41B JUMPI PUSH1 0x40 MLOAD PUSH32 0x8C379A000000000000000000000000000000000000000000000000000000000 DUP2 MSTORE PUSH1 0x4 ADD PUSH3 0x412 SWAP1 PUSH3 0xBBE JUMP JUMPDEST PUSH1 0x40 MLOAD DUP1 SWAP2 SUB SWAP1 REVERT JUMPDEST PUSH0 PUSH20 0xFFFFFFFFFFFFFFFFFFFFFFFFFFFFFFFFFFFFFFFF AND PUSH1 0x9 PUSH0 SWAP1 SLOAD SWAP1 PUSH2 0x100 EXP SWAP1 DIV PUSH20 0xFFFFFFFFFFFFFFFFFFFFFFFFFFFFFFFFFFFFFFFF AND PUSH20 0xFFFFFFFFFFFFFFFFFFFFFFFFFFFFFFFFFFFFFFFF AND SUB PUSH3 0x53C JUMPI PUSH3 0x480 PUSH3 0x647 PUSH1 0x20 SHL PUSH1 0x20 SHR JUMP JUMPDEST PUSH20 0xFFFFFFFFFFFFFFFFFFFFFFFFFFFFFFFFFFFFFFFF AND DUP4 PUSH20 0xFFFFFFFFFFFFFFFFFFFFFFFFFFFFFFFFFFFFFFFF AND EQ DUP1 PUSH3 0x4F4 JUMPI POP PUSH3 0x4C5 PUSH3 0x647 PUSH1 0x20 SHL PUSH1 0x20 SHR JUMP JUMPDEST PUSH20 0xFFFFFFFFFFFFFFFFFFFFFFFFFFFFFFFFFFFFFFFF AND DUP3 PUSH20 0xFFFFFFFFFFFFFFFFFFFFFFFFFFFFFFFFFFFFFFFF AND EQ JUMPDEST PUSH3 0x536 JUMPI PUSH1 0x40 MLOAD PUSH32 0x8C379A000000000000000000000000000000000000000000000000000000000 DUP2 MSTORE PUSH1 0x4 ADD PUSH3 0x52D SWAP1 PUSH3 0xC2C JUMP JUMPDEST PUSH1 0x40 MLOAD DUP1 SWAP2 SUB SWAP1 REVERT JUMPDEST PUSH3 0x63D JUMP JUMPDEST PUSH1 0x6 PUSH0 SWAP1 SLOAD SWAP1 PUSH2 0x100 EXP SWAP1 DIV PUSH1 0xFF AND DUP1 ISZERO PUSH3 0x5A4 JUMPI POP PUSH1 0x9 PUSH0 SWAP1 SLOAD SWAP1 PUSH2 0x100 EXP SWAP1 DIV PUSH20 0xFFFFFFFFFFFFFFFFFFFFFFFFFFFFFFFFFFFFFFFF AND PUSH20 0xFFFFFFFFFFFFFFFFFFFFFFFFFFFFFFFFFFFFFFFF AND DUP4 PUSH20 0xFFFFFFFFFFFFFFFFFFFFFFFFFFFFFFFFFFFFFFFF AND EQ JUMPDEST ISZERO PUSH3 0x63C JUMPI PUSH1 0x7 SLOAD DUP2 PUSH3 0x5BF DUP5 PUSH3 0x66E PUSH1 0x20 SHL PUSH1 0x20 SHR JUMP JUMPDEST PUSH3 0x5CB SWAP2 SWAP1 PUSH3 0xB0A JUMP JUMPDEST GT ISZERO DUP1 ISZERO PUSH3 0x5F9 JUMPI POP PUSH1 0x8 SLOAD DUP2 PUSH3 0x5EA DUP5 PUSH3 0x66E PUSH1 0x20 SHL PUSH1 0x20 SHR JUMP JUMPDEST PUSH3 0x5F6 SWAP2 SWAP1 PUSH3 0xB0A JUMP JUMPDEST LT ISZERO JUMPDEST PUSH3 0x63B JUMPI PUSH1 0x40 MLOAD PUSH32 0x8C379A000000000000000000000000000000000000000000000000000000000 DUP2 MSTORE PUSH1 0x4 ADD PUSH3 0x632 SWAP1 PUSH3 0xC9A JUMP JUMPDEST PUSH1 0x40 MLOAD DUP1 SWAP2 SUB SWAP1 REVERT JUMPDEST JUMPDEST JUMPDEST POP POP POP JUMP JUMPDEST POP POP POP JUMP JUMPDEST PUSH0 DUP1 PUSH0 SWAP1 SLOAD SWAP1 PUSH2 0x100 EXP SWAP1 DIV PUSH20 0xFFFFFFFFFFFFFFFFFFFFFFFFFFFFFFFFFFFFFFFF AND SWAP1 POP SWAP1 JUMP JUMPDEST PUSH0 PUSH1 0x1 PUSH0 DUP4 PUSH20 0xFFFFFFFFFFFFFFFFFFFFFFFFFFFFFFFFFFFFFFFF AND PUSH20 0xFFFFFFFFFFFFFFFFFFFFFFFFFFFFFFFFFFFFFFFF AND DUP2 MSTORE PUSH1 0x20 ADD SWAP1 DUP2 MSTORE PUSH1 0x20 ADD PUSH0 KECCAK256 SLOAD SWAP1 POP SWAP2 SWAP1 POP JUMP JUMPDEST PUSH0 DUP1 REVERT JUMPDEST PUSH0 DUP2 SWAP1 POP SWAP2 SWAP1 POP JUMP JUMPDEST PUSH3 0x6CC DUP2 PUSH3 0x6B8 JUMP JUMPDEST DUP2 EQ PUSH3 0x6D7 JUMPI PUSH0 DUP1 REVERT JUMPDEST POP JUMP JUMPDEST PUSH0 DUP2 MLOAD SWAP1 POP PUSH3 0x6EA DUP2 PUSH3 0x6C1 JUMP JUMPDEST SWAP3 SWAP2 POP POP JUMP JUMPDEST PUSH0 PUSH1 0x20 DUP3 DUP5 SUB SLT ISZERO PUSH3 0x708 JUMPI PUSH3 0x707 PUSH3 0x6B4 JUMP JUMPDEST JUMPDEST PUSH0 PUSH3 0x717 DUP5 DUP3 DUP6 ADD PUSH3 0x6DA JUMP JUMPDEST SWAP2 POP POP SWAP3 SWAP2 POP POP JUMP JUMPDEST PUSH0 DUP2 MLOAD SWAP1 POP SWAP2 SWAP1 POP JUMP JUMPDEST PUSH32 0x4E487B7100000000000000000000000000000000000000000000000000000000 PUSH0 MSTORE PUSH1 0x41 PUSH1 0x4 MSTORE PUSH1 0x24 PUSH0 REVERT JUMPDEST PUSH32 0x4E487B7100000000000000000000000000000000000000000000000000000000 PUSH0 MSTORE PUSH1 0x22 PUSH1 0x4 MSTORE PUSH1 0x24 PUSH0 REVERT JUMPDEST PUSH0 PUSH1 0x2 DUP3 DIV SWAP1 POP PUSH1 0x1 DUP3 AND DUP1 PUSH3 0x79C JUMPI PUSH1 0x7F DUP3 AND SWAP2 POP JUMPDEST PUSH1 0x20 DUP3 LT DUP2 SUB PUSH3 0x7B2 JUMPI PUSH3 0x7B1 PUSH3 0x757 JUMP JUMPDEST JUMPDEST POP SWAP2 SWAP1 POP JUMP JUMPDEST PUSH0 DUP2 SWAP1 POP DUP2 PUSH0 MSTORE PUSH1 0x20 PUSH0 KECCAK256 SWAP1 POP SWAP2 SWAP1 POP JUMP JUMPDEST PUSH0 PUSH1 0x20 PUSH1 0x1F DUP4 ADD DIV SWAP1 POP SWAP2 SWAP1 POP JUMP JUMPDEST PUSH0 DUP3 DUP3 SHL SWAP1 POP SWAP3 SWAP2 POP POP JUMP JUMPDEST PUSH0 PUSH1 0x8 DUP4 MUL PUSH3 0x816 PUSH32 0xFFFFFFFFFFFFFFFFFFFFFFFFFFFFFFFFFFFFFFFFFFFFFFFFFFFFFFFFFFFFFFFF DUP3 PUSH3 0x7D9 JUMP JUMPDEST PUSH3 0x822 DUP7 DUP4 PUSH3 0x7D9 JUMP JUMPDEST SWAP6 POP DUP1 NOT DUP5 AND SWAP4 POP DUP1 DUP7 AND DUP5 OR SWAP3 POP POP POP SWAP4 SWAP3 POP POP POP JUMP JUMPDEST PUSH0 DUP2 SWAP1 POP SWAP2 SWAP1 POP JUMP JUMPDEST PUSH0 PUSH3 0x863 PUSH3 0x85D PUSH3 0x857 DUP5 PUSH3 0x6B8 JUMP JUMPDEST PUSH3 0x83A JUMP JUMPDEST PUSH3 0x6B8 JUMP JUMPDEST SWAP1 POP SWAP2 SWAP1 POP JUMP JUMPDEST PUSH0 DUP2 SWAP1 POP SWAP2 SWAP1 POP JUMP JUMPDEST PUSH3 0x87E DUP4 PUSH3 0x843 JUMP JUMPDEST PUSH3 0x896 PUSH3 0x88D DUP3 PUSH3 0x86A JUMP JUMPDEST DUP5 DUP5 SLOAD PUSH3 0x7E5 JUMP JUMPDEST DUP3 SSTORE POP POP POP POP JUMP JUMPDEST PUSH0 SWAP1 JUMP JUMPDEST PUSH3 0x8AC PUSH3 0x89E JUMP JUMPDEST PUSH3 0x8B9 DUP2 DUP5 DUP5 PUSH3 0x873 JUMP JUMPDEST POP POP POP JUMP JUMPDEST JUMPDEST DUP2 DUP2 LT ISZERO PUSH3 0x8E0 JUMPI PUSH3 0x8D4 PUSH0 DUP3 PUSH3 0x8A2 JUMP JUMPDEST PUSH1 0x1 DUP2 ADD SWAP1 POP PUSH3 0x8BF JUMP JUMPDEST POP POP JUMP JUMPDEST PUSH1 0x1F DUP3 GT ISZERO PUSH3 0x92F JUMPI PUSH3 0x8F9 DUP2 PUSH3 0x7B8 JUMP JUMPDEST PUSH3 0x904 DUP5 PUSH3 0x7CA JUMP JUMPDEST DUP2 ADD PUSH1 0x20 DUP6 LT ISZERO PUSH3 0x914 JUMPI DUP2 SWAP1 POP JUMPDEST PUSH3 0x92C PUSH3 0x923 DUP6 PUSH3 0x7CA JUMP JUMPDEST DUP4 ADD DUP3 PUSH3 0x8BE JUMP JUMPDEST POP POP JUMPDEST POP POP POP JUMP JUMPDEST PUSH0 DUP3 DUP3 SHR SWAP1 POP SWAP3 SWAP2 POP POP JUMP JUMPDEST PUSH0 PUSH3 0x951 PUSH0 NOT DUP5 PUSH1 0x8 MUL PUSH3 0x934 JUMP JUMPDEST NOT DUP1 DUP4 AND SWAP2 POP POP SWAP3 SWAP2 POP POP JUMP JUMPDEST PUSH0 PUSH3 0x96B DUP4 DUP4 PUSH3 0x940 JUMP JUMPDEST SWAP2 POP DUP3 PUSH1 0x2 MUL DUP3 OR SWAP1 POP SWAP3 SWAP2 POP POP JUMP JUMPDEST PUSH3 0x986 DUP3 PUSH3 0x720 JUMP JUMPDEST PUSH8 0xFFFFFFFFFFFFFFFF DUP2 GT ISZERO PUSH3 0x9A2 JUMPI PUSH3 0x9A1 PUSH3 0x72A JUMP JUMPDEST JUMPDEST PUSH3 0x9AE DUP3 SLOAD PUSH3 0x784 JUMP JUMPDEST PUSH3 0x9BB DUP3 DUP3 DUP6 PUSH3 0x8E4 JUMP JUMPDEST PUSH0 PUSH1 0x20 SWAP1 POP PUSH1 0x1F DUP4 GT PUSH1 0x1 DUP2 EQ PUSH3 0x9F1 JUMPI PUSH0 DUP5 ISZERO PUSH3 0x9DC JUMPI DUP3 DUP8 ADD MLOAD SWAP1 POP JUMPDEST PUSH3 0x9E8 DUP6 DUP3 PUSH3 0x95E JUMP JUMPDEST DUP7 SSTORE POP PUSH3 0xA57 JUMP JUMPDEST PUSH1 0x1F NOT DUP5 AND PUSH3 0xA01 DUP7 PUSH3 0x7B8 JUMP JUMPDEST PUSH0 JUMPDEST DUP3 DUP2 LT ISZERO PUSH3 0xA2A JUMPI DUP5 DUP10 ADD MLOAD DUP3 SSTORE PUSH1 0x1 DUP3 ADD SWAP2 POP PUSH1 0x20 DUP6 ADD SWAP5 POP PUSH1 0x20 DUP2 ADD SWAP1 POP PUSH3 0xA03 JUMP JUMPDEST DUP7 DUP4 LT ISZERO PUSH3 0xA4A JUMPI DUP5 DUP10 ADD MLOAD PUSH3 0xA46 PUSH1 0x1F DUP10 AND DUP3 PUSH3 0x940 JUMP JUMPDEST DUP4 SSTORE POP JUMPDEST PUSH1 0x1 PUSH1 0x2 DUP9 MUL ADD DUP9 SSTORE POP POP POP JUMPDEST POP POP POP POP POP POP JUMP JUMPDEST PUSH0 DUP3 DUP3 MSTORE PUSH1 0x20 DUP3 ADD SWAP1 POP SWAP3 SWAP2 POP POP JUMP JUMPDEST PUSH32 0x45524332303A206D696E7420746F20746865207A65726F206164647265737300 PUSH0 DUP3 ADD MSTORE POP JUMP JUMPDEST PUSH0 PUSH3 0xAA5 PUSH1 0x1F DUP4 PUSH3 0xA5F JUMP JUMPDEST SWAP2 POP PUSH3 0xAB2 DUP3 PUSH3 0xA6F JUMP JUMPDEST PUSH1 0x20 DUP3 ADD SWAP1 POP SWAP2 SWAP1 POP JUMP JUMPDEST PUSH0 PUSH1 0x20 DUP3 ADD SWAP1 POP DUP2 DUP2 SUB PUSH0 DUP4 ADD MSTORE PUSH3 0xAD6 DUP2 PUSH3 0xA97 JUMP JUMPDEST SWAP1 POP SWAP2 SWAP1 POP JUMP JUMPDEST PUSH32 0x4E487B7100000000000000000000000000000000000000000000000000000000 PUSH0 MSTORE PUSH1 0x11 PUSH1 0x4 MSTORE PUSH1 0x24 PUSH0 REVERT JUMPDEST PUSH0 PUSH3 0xB16 DUP3 PUSH3 0x6B8 JUMP JUMPDEST SWAP2 POP PUSH3 0xB23 DUP4 PUSH3 0x6B8 JUMP JUMPDEST SWAP3 POP DUP3 DUP3 ADD SWAP1 POP DUP1 DUP3 GT ISZERO PUSH3 0xB3E JUMPI PUSH3 0xB3D PUSH3 0xADD JUMP JUMPDEST JUMPDEST SWAP3 SWAP2 POP POP JUMP JUMPDEST PUSH3 0xB4F DUP2 PUSH3 0x6B8 JUMP JUMPDEST DUP3 MSTORE POP POP JUMP JUMPDEST PUSH0 PUSH1 0x20 DUP3 ADD SWAP1 POP PUSH3 0xB6A PUSH0 DUP4 ADD DUP5 PUSH3 0xB44 JUMP JUMPDEST SWAP3 SWAP2 POP POP JUMP JUMPDEST PUSH32 0x426C61636B6C6973746564000000000000000000000000000000000000000000 PUSH0 DUP3 ADD MSTORE POP JUMP JUMPDEST PUSH0 PUSH3 0xBA6 PUSH1 0xB DUP4 PUSH3 0xA5F JUMP JUMPDEST SWAP2 POP PUSH3 0xBB3 DUP3 PUSH3 0xB70 JUMP JUMPDEST PUSH1 0x20 DUP3 ADD SWAP1 POP SWAP2 SWAP1 POP JUMP JUMPDEST PUSH0 PUSH1 0x20 DUP3 ADD SWAP1 POP DUP2 DUP2 SUB PUSH0 DUP4 ADD MSTORE PUSH3 0xBD7 DUP2 PUSH3 0xB98 JUMP JUMPDEST SWAP1 POP SWAP2 SWAP1 POP JUMP JUMPDEST PUSH32 0x74726164696E67206973206E6F74207374617274656400000000000000000000 PUSH0 DUP3 ADD MSTORE POP JUMP JUMPDEST PUSH0 PUSH3 0xC14 PUSH1 0x16 DUP4 PUSH3 0xA5F JUMP JUMPDEST SWAP2 POP PUSH3 0xC21 DUP3 PUSH3 0xBDE JUMP JUMPDEST PUSH1 0x20 DUP3 ADD SWAP1 POP SWAP2 SWAP1 POP JUMP JUMPDEST PUSH0 PUSH1 0x20 DUP3 ADD SWAP1 POP DUP2 DUP2 SUB PUSH0 DUP4 ADD MSTORE PUSH3 0xC45 DUP2 PUSH3 0xC06 JUMP JUMPDEST SWAP1 POP SWAP2 SWAP1 POP JUMP JUMPDEST PUSH32 0x466F726269640000000000000000000000000000000000000000000000000000 PUSH0 DUP3 ADD MSTORE POP JUMP JUMPDEST PUSH0 PUSH3 0xC82 PUSH1 0x6 DUP4 PUSH3 0xA5F JUMP JUMPDEST SWAP2 POP PUSH3 0xC8F DUP3 PUSH3 0xC4C JUMP JUMPDEST PUSH1 0x20 DUP3 ADD SWAP1 POP SWAP2 SWAP1 POP JUMP JUMPDEST PUSH0 PUSH1 0x20 DUP3 ADD SWAP1 POP DUP2 DUP2 SUB PUSH0 DUP4 ADD MSTORE PUSH3 0xCB3 DUP2 PUSH3 0xC74 JUMP JUMPDEST SWAP1 POP SWAP2 SWAP1 POP JUMP JUMPDEST PUSH2 0x22A8 DUP1 PUSH3 0xCC8 PUSH0 CODECOPY PUSH0 RETURN INVALID PUSH1 0x80 PUSH1 0x40 MSTORE CALLVALUE DUP1 ISZERO PUSH2 0xF JUMPI PUSH0 DUP1 REVERT JUMPDEST POP PUSH1 0x4 CALLDATASIZE LT PUSH2 0x140 JUMPI PUSH0 CALLDATALOAD PUSH1 0xE0 SHR DUP1 PUSH4 0x49BD5A5E GT PUSH2 0xB6 JUMPI DUP1 PUSH4 0x8DA5CB5B GT PUSH2 0x7A JUMPI DUP1 PUSH4 0x8DA5CB5B EQ PUSH2 0x364 JUMPI DUP1 PUSH4 0x95D89B41 EQ PUSH2 0x382 JUMPI DUP1 PUSH4 0xA457C2D7 EQ PUSH2 0x3A0 JUMPI DUP1 PUSH4 0xA9059CBB EQ PUSH2 0x3D0 JUMPI DUP1 PUSH4 0xDD62ED3E EQ PUSH2 0x400 JUMPI DUP1 PUSH4 0xF2FDE38B EQ PUSH2 0x430 JUMPI PUSH2 0x140 JUMP JUMPDEST DUP1 PUSH4 0x49BD5A5E EQ PUSH2 0x2D0 JUMPI DUP1 PUSH4 0x70A08231 EQ PUSH2 0x2EE JUMPI DUP1 PUSH4 0x715018A6 EQ PUSH2 0x31E JUMPI DUP1 PUSH4 0x860A32EC EQ PUSH2 0x328 JUMPI DUP1 PUSH4 0x89F9A1D3 EQ PUSH2 0x346 JUMPI PUSH2 0x140 JUMP JUMPDEST DUP1 PUSH4 0x23B872DD GT PUSH2 0x108 JUMPI DUP1 PUSH4 0x23B872DD EQ PUSH2 0x1FE JUMPI DUP1 PUSH4 0x313CE567 EQ PUSH2 0x22E JUMPI DUP1 PUSH4 0x39509351 EQ PUSH2 0x24C JUMPI DUP1 PUSH4 0x3AA633AA EQ PUSH2 0x27C JUMPI DUP1 PUSH4 0x404E5129 EQ PUSH2 0x298 JUMPI DUP1 PUSH4 0x42966C68 EQ PUSH2 0x2B4 JUMPI PUSH2 0x140 JUMP JUMPDEST DUP1 PUSH4 0x6FDDE03 EQ PUSH2 0x144 JUMPI DUP1 PUSH4 0x95EA7B3 EQ PUSH2 0x162 JUMPI DUP1 PUSH4 0x16C02129 EQ PUSH2 0x192 JUMPI DUP1 PUSH4 0x18160DDD EQ PUSH2 0x1C2 JUMPI DUP1 PUSH4 0x1AB99E12 EQ PUSH2 0x1E0 JUMPI JUMPDEST PUSH0 DUP1 REVERT JUMPDEST PUSH2 0x14C PUSH2 0x44C JUMP JUMPDEST PUSH1 0x40 MLOAD PUSH2 0x159 SWAP2 SWAP1 PUSH2 0x1700 JUMP JUMPDEST PUSH1 0x40 MLOAD DUP1 SWAP2 SUB SWAP1 RETURN JUMPDEST PUSH2 0x17C PUSH1 0x4 DUP1 CALLDATASIZE SUB DUP2 ADD SWAP1 PUSH2 0x177 SWAP2 SWAP1 PUSH2 0x17B1 JUMP JUMPDEST PUSH2 0x4DC JUMP JUMPDEST PUSH1 0x40 MLOAD PUSH2 0x189 SWAP2 SWAP1 PUSH2 0x1809 JUMP JUMPDEST PUSH1 0x40 MLOAD DUP1 SWAP2 SUB SWAP1 RETURN JUMPDEST PUSH2 0x1AC PUSH1 0x4 DUP1 CALLDATASIZE SUB DUP2 ADD SWAP1 PUSH2 0x1A7 SWAP2 SWAP1 PUSH2 0x1822 JUMP JUMPDEST PUSH2 0x4F9 JUMP JUMPDEST PUSH1 0x40 MLOAD PUSH2 0x1B9 SWAP2 SWAP1 PUSH2 0x1809 JUMP JUMPDEST PUSH1 0x40 MLOAD DUP1 SWAP2 SUB SWAP1 RETURN JUMPDEST PUSH2 0x1CA PUSH2 0x516 JUMP JUMPDEST PUSH1 0x40 MLOAD PUSH2 0x1D7 SWAP2 SWAP1 PUSH2 0x185C JUMP JUMPDEST PUSH1 0x40 MLOAD DUP1 SWAP2 SUB SWAP1 RETURN JUMPDEST PUSH2 0x1E8 PUSH2 0x51F JUMP JUMPDEST PUSH1 0x40 MLOAD PUSH2 0x1F5 SWAP2 SWAP1 PUSH2 0x185C JUMP JUMPDEST PUSH1 0x40 MLOAD DUP1 SWAP2 SUB SWAP1 RETURN JUMPDEST PUSH2 0x218 PUSH1 0x4 DUP1 CALLDATASIZE SUB DUP2 ADD SWAP1 PUSH2 0x213 SWAP2 SWAP1 PUSH2 0x1875 JUMP JUMPDEST PUSH2 0x525 JUMP JUMPDEST PUSH1 0x40 MLOAD PUSH2 0x225 SWAP2 SWAP1 PUSH2 0x1809 JUMP JUMPDEST PUSH1 0x40 MLOAD DUP1 SWAP2 SUB SWAP1 RETURN JUMPDEST PUSH2 0x236 PUSH2 0x617 JUMP JUMPDEST PUSH1 0x40 MLOAD PUSH2 0x243 SWAP2 SWAP1 PUSH2 0x18E0 JUMP JUMPDEST PUSH1 0x40 MLOAD DUP1 SWAP2 SUB SWAP1 RETURN JUMPDEST PUSH2 0x266 PUSH1 0x4 DUP1 CALLDATASIZE SUB DUP2 ADD SWAP1 PUSH2 0x261 SWAP2 SWAP1 PUSH2 0x17B1 JUMP JUMPDEST PUSH2 0x61F JUMP JUMPDEST PUSH1 0x40 MLOAD PUSH2 0x273 SWAP2 SWAP1 PUSH2 0x1809 JUMP JUMPDEST PUSH1 0x40 MLOAD DUP1 SWAP2 SUB SWAP1 RETURN JUMPDEST PUSH2 0x296 PUSH1 0x4 DUP1 CALLDATASIZE SUB DUP2 ADD SWAP1 PUSH2 0x291 SWAP2 SWAP1 PUSH2 0x1923 JUMP JUMPDEST PUSH2 0x6C6 JUMP JUMPDEST STOP JUMPDEST PUSH2 0x2B2 PUSH1 0x4 DUP1 CALLDATASIZE SUB DUP2 ADD SWAP1 PUSH2 0x2AD SWAP2 SWAP1 PUSH2 0x1987 JUMP JUMPDEST PUSH2 0x7AF JUMP JUMPDEST STOP JUMPDEST PUSH2 0x2CE PUSH1 0x4 DUP1 CALLDATASIZE SUB DUP2 ADD SWAP1 PUSH2 0x2C9 SWAP2 SWAP1 PUSH2 0x19C5 JUMP JUMPDEST PUSH2 0x883 JUMP JUMPDEST STOP JUMPDEST PUSH2 0x2D8 PUSH2 0x890 JUMP JUMPDEST PUSH1 0x40 MLOAD PUSH2 0x2E5 SWAP2 SWAP1 PUSH2 0x19FF JUMP JUMPDEST PUSH1 0x40 MLOAD DUP1 SWAP2 SUB SWAP1 RETURN JUMPDEST PUSH2 0x308 PUSH1 0x4 DUP1 CALLDATASIZE SUB DUP2 ADD SWAP1 PUSH2 0x303 SWAP2 SWAP1 PUSH2 0x1822 JUMP JUMPDEST PUSH2 0x8B5 JUMP JUMPDEST PUSH1 0x40 MLOAD PUSH2 0x315 SWAP2 SWAP1 PUSH2 0x185C JUMP JUMPDEST PUSH1 0x40 MLOAD DUP1 SWAP2 SUB SWAP1 RETURN JUMPDEST PUSH2 0x326 PUSH2 0x8FB JUMP JUMPDEST STOP JUMPDEST PUSH2 0x330 PUSH2 0x982 JUMP JUMPDEST PUSH1 0x40 MLOAD PUSH2 0x33D SWAP2 SWAP1 PUSH2 0x1809 JUMP JUMPDEST PUSH1 0x40 MLOAD DUP1 SWAP2 SUB SWAP1 RETURN JUMPDEST PUSH2 0x34E PUSH2 0x994 JUMP JUMPDEST PUSH1 0x40 MLOAD PUSH2 0x35B SWAP2 SWAP1 PUSH2 0x185C JUMP JUMPDEST PUSH1 0x40 MLOAD DUP1 SWAP2 SUB SWAP1 RETURN JUMPDEST PUSH2 0x36C PUSH2 0x99A JUMP JUMPDEST PUSH1 0x40 MLOAD PUSH2 0x379 SWAP2 SWAP1 PUSH2 0x19FF JUMP JUMPDEST PUSH1 0x40 MLOAD DUP1 SWAP2 SUB SWAP1 RETURN JUMPDEST PUSH2 0x38A PUSH2 0x9C1 JUMP JUMPDEST PUSH1 0x40 MLOAD PUSH2 0x397 SWAP2 SWAP1 PUSH2 0x1700 JUMP JUMPDEST PUSH1 0x40 MLOAD DUP1 SWAP2 SUB SWAP1 RETURN JUMPDEST PUSH2 0x3BA PUSH1 0x4 DUP1 CALLDATASIZE SUB DUP2 ADD SWAP1 PUSH2 0x3B5 SWAP2 SWAP1 PUSH2 0x17B1 JUMP JUMPDEST PUSH2 0xA51 JUMP JUMPDEST PUSH1 0x40 MLOAD PUSH2 0x3C7 SWAP2 SWAP1 PUSH2 0x1809 JUMP JUMPDEST PUSH1 0x40 MLOAD DUP1 SWAP2 SUB SWAP1 RETURN JUMPDEST PUSH2 0x3EA PUSH1 0x4 DUP1 CALLDATASIZE SUB DUP2 ADD SWAP1 PUSH2 0x3E5 SWAP2 SWAP1 PUSH2 0x17B1 JUMP JUMPDEST PUSH2 0xB37 JUMP JUMPDEST PUSH1 0x40 MLOAD PUSH2 0x3F7 SWAP2 SWAP1 PUSH2 0x1809 JUMP JUMPDEST PUSH1 0x40 MLOAD DUP1 SWAP2 SUB SWAP1 RETURN JUMPDEST PUSH2 0x41A PUSH1 0x4 DUP1 CALLDATASIZE SUB DUP2 ADD SWAP1 PUSH2 0x415 SWAP2 SWAP1 PUSH2 0x1A18 JUMP JUMPDEST PUSH2 0xB54 JUMP JUMPDEST PUSH1 0x40 MLOAD PUSH2 0x427 SWAP2 SWAP1 PUSH2 0x185C JUMP JUMPDEST PUSH1 0x40 MLOAD DUP1 SWAP2 SUB SWAP1 RETURN JUMPDEST PUSH2 0x44A PUSH1 0x4 DUP1 CALLDATASIZE SUB DUP2 ADD SWAP1 PUSH2 0x445 SWAP2 SWAP1 PUSH2 0x1822 JUMP JUMPDEST PUSH2 0xBD6 JUMP JUMPDEST STOP JUMPDEST PUSH1 0x60 PUSH1 0x4 DUP1 SLOAD PUSH2 0x45B SWAP1 PUSH2 0x1A83 JUMP JUMPDEST DUP1 PUSH1 0x1F ADD PUSH1 0x20 DUP1 SWAP2 DIV MUL PUSH1 0x20 ADD PUSH1 0x40 MLOAD SWAP1 DUP2 ADD PUSH1 0x40 MSTORE DUP1 SWAP3 SWAP2 SWAP1 DUP2 DUP2 MSTORE PUSH1 0x20 ADD DUP3 DUP1 SLOAD PUSH2 0x487 SWAP1 PUSH2 0x1A83 JUMP JUMPDEST DUP1 ISZERO PUSH2 0x4D2 JUMPI DUP1 PUSH1 0x1F LT PUSH2 0x4A9 JUMPI PUSH2 0x100 DUP1 DUP4 SLOAD DIV MUL DUP4 MSTORE SWAP2 PUSH1 0x20 ADD SWAP2 PUSH2 0x4D2 JUMP JUMPDEST DUP3 ADD SWAP2 SWAP1 PUSH0 MSTORE PUSH1 0x20 PUSH0 KECCAK256 SWAP1 JUMPDEST DUP2 SLOAD DUP2 MSTORE SWAP1 PUSH1 0x1 ADD SWAP1 PUSH1 0x20 ADD DUP1 DUP4 GT PUSH2 0x4B5 JUMPI DUP3 SWAP1 SUB PUSH1 0x1F AND DUP3 ADD SWAP2 JUMPDEST POP POP POP POP POP SWAP1 POP SWAP1 JUMP JUMPDEST PUSH0 PUSH2 0x4EF PUSH2 0x4E8 PUSH2 0xCCC JUMP JUMPDEST DUP5 DUP5 PUSH2 0xCD3 JUMP JUMPDEST PUSH1 0x1 SWAP1 POP SWAP3 SWAP2 POP POP JUMP JUMPDEST PUSH1 0xA PUSH1 0x20 MSTORE DUP1 PUSH0 MSTORE PUSH1 0x40 PUSH0 KECCAK256 PUSH0 SWAP2 POP SLOAD SWAP1 PUSH2 0x100 EXP SWAP1 DIV PUSH1 0xFF AND DUP2 JUMP JUMPDEST PUSH0 PUSH1 0x3 SLOAD SWAP1 POP SWAP1 JUMP JUMPDEST PUSH1 0x8 SLOAD DUP2 JUMP JUMPDEST PUSH0 PUSH2 0x531 DUP5 DUP5 DUP5 PUSH2 0xE96 JUMP JUMPDEST PUSH0 PUSH1 0x2 PUSH0 DUP7 PUSH20 0xFFFFFFFFFFFFFFFFFFFFFFFFFFFFFFFFFFFFFFFF AND PUSH20 0xFFFFFFFFFFFFFFFFFFFFFFFFFFFFFFFFFFFFFFFF AND DUP2 MSTORE PUSH1 0x20 ADD SWAP1 DUP2 MSTORE PUSH1 0x20 ADD PUSH0 KECCAK256 PUSH0 PUSH2 0x578 PUSH2 0xCCC JUMP JUMPDEST PUSH20 0xFFFFFFFFFFFFFFFFFFFFFFFFFFFFFFFFFFFFFFFF AND PUSH20 0xFFFFFFFFFFFFFFFFFFFFFFFFFFFFFFFFFFFFFFFF AND DUP2 MSTORE PUSH1 0x20 ADD SWAP1 DUP2 MSTORE PUSH1 0x20 ADD PUSH0 KECCAK256 SLOAD SWAP1 POP DUP3 DUP2 LT ISZERO PUSH2 0x5F7 JUMPI PUSH1 0x40 MLOAD PUSH32 0x8C379A000000000000000000000000000000000000000000000000000000000 DUP2 MSTORE PUSH1 0x4 ADD PUSH2 0x5EE SWAP1 PUSH2 0x1B23 JUMP JUMPDEST PUSH1 0x40 MLOAD DUP1 SWAP2 SUB SWAP1 REVERT JUMPDEST PUSH2 0x60B DUP6 PUSH2 0x603 PUSH2 0xCCC JUMP JUMPDEST DUP6 DUP5 SUB PUSH2 0xCD3 JUMP JUMPDEST PUSH1 0x1 SWAP2 POP POP SWAP4 SWAP3 POP POP POP JUMP JUMPDEST PUSH0 PUSH1 0x12 SWAP1 POP SWAP1 JUMP JUMPDEST PUSH0 PUSH2 0x6BC PUSH2 0x62B PUSH2 0xCCC JUMP JUMPDEST DUP5 DUP5 PUSH1 0x2 PUSH0 PUSH2 0x638 PUSH2 0xCCC JUMP JUMPDEST PUSH20 0xFFFFFFFFFFFFFFFFFFFFFFFFFFFFFFFFFFFFFFFF AND PUSH20 0xFFFFFFFFFFFFFFFFFFFFFFFFFFFFFFFFFFFFFFFF AND DUP2 MSTORE PUSH1 0x20 ADD SWAP1 DUP2 MSTORE PUSH1 0x20 ADD PUSH0 KECCAK256 PUSH0 DUP9 PUSH20 0xFFFFFFFFFFFFFFFFFFFFFFFFFFFFFFFFFFFFFFFF AND PUSH20 0xFFFFFFFFFFFFFFFFFFFFFFFFFFFFFFFFFFFFFFFF AND DUP2 MSTORE PUSH1 0x20 ADD SWAP1 DUP2 MSTORE PUSH1 0x20 ADD PUSH0 KECCAK256 SLOAD PUSH2 0x6B7 SWAP2 SWAP1 PUSH2 0x1B6E JUMP JUMPDEST PUSH2 0xCD3 JUMP JUMPDEST PUSH1 0x1 SWAP1 POP SWAP3 SWAP2 POP POP JUMP JUMPDEST PUSH2 0x6CE PUSH2 0xCCC JUMP JUMPDEST PUSH20 0xFFFFFFFFFFFFFFFFFFFFFFFFFFFFFFFFFFFFFFFF AND PUSH2 0x6EC PUSH2 0x99A JUMP JUMPDEST PUSH20 0xFFFFFFFFFFFFFFFFFFFFFFFFFFFFFFFFFFFFFFFF AND EQ PUSH2 0x742 JUMPI PUSH1 0x40 MLOAD PUSH32 0x8C379A000000000000000000000000000000000000000000000000000000000 DUP2 MSTORE PUSH1 0x4 ADD PUSH2 0x739 SWAP1 PUSH2 0x1BEB JUMP JUMPDEST PUSH1 0x40 MLOAD DUP1 SWAP2 SUB SWAP1 REVERT JUMPDEST DUP4 PUSH1 0x6 PUSH0 PUSH2 0x100 EXP DUP2 SLOAD DUP2 PUSH1 0xFF MUL NOT AND SWAP1 DUP4 ISZERO ISZERO MUL OR SWAP1 SSTORE POP DUP3 PUSH1 0x9 PUSH0 PUSH2 0x100 EXP DUP2 SLOAD DUP2 PUSH20 0xFFFFFFFFFFFFFFFFFFFFFFFFFFFFFFFFFFFFFFFF MUL NOT AND SWAP1 DUP4 PUSH20 0xFFFFFFFFFFFFFFFFFFFFFFFFFFFFFFFFFFFFFFFF AND MUL OR SWAP1 SSTORE POP DUP2 PUSH1 0x7 DUP2 SWAP1 SSTORE POP DUP1 PUSH1 0x8 DUP2 SWAP1 SSTORE POP POP POP POP POP JUMP JUMPDEST PUSH2 0x7B7 PUSH2 0xCCC JUMP JUMPDEST PUSH20 0xFFFFFFFFFFFFFFFFFFFFFFFFFFFFFFFFFFFFFFFF AND PUSH2 0x7D5 PUSH2 0x99A JUMP JUMPDEST PUSH20 0xFFFFFFFFFFFFFFFFFFFFFFFFFFFFFFFFFFFFFFFF AND EQ PUSH2 0x82B JUMPI PUSH1 0x40 MLOAD PUSH32 0x8C379A000000000000000000000000000000000000000000000000000000000 DUP2 MSTORE PUSH1 0x4 ADD PUSH2 0x822 SWAP1 PUSH2 0x1BEB JUMP JUMPDEST PUSH1 0x40 MLOAD DUP1 SWAP2 SUB SWAP1 REVERT JUMPDEST DUP1 PUSH1 0xA PUSH0 DUP5 PUSH20 0xFFFFFFFFFFFFFFFFFFFFFFFFFFFFFFFFFFFFFFFF AND PUSH20 0xFFFFFFFFFFFFFFFFFFFFFFFFFFFFFFFFFFFFFFFF AND DUP2 MSTORE PUSH1 0x20 ADD SWAP1 DUP2 MSTORE PUSH1 0x20 ADD PUSH0 KECCAK256 PUSH0 PUSH2 0x100 EXP DUP2 SLOAD DUP2 PUSH1 0xFF MUL NOT AND SWAP1 DUP4 ISZERO ISZERO MUL OR SWAP1 SSTORE POP POP POP JUMP JUMPDEST PUSH2 0x88D CALLER DUP3 PUSH2 0x110E JUMP JUMPDEST POP JUMP JUMPDEST PUSH1 0x9 PUSH0 SWAP1 SLOAD SWAP1 PUSH2 0x100 EXP SWAP1 DIV PUSH20 0xFFFFFFFFFFFFFFFFFFFFFFFFFFFFFFFFFFFFFFFF AND DUP2 JUMP JUMPDEST PUSH0 PUSH1 0x1 PUSH0 DUP4 PUSH20 0xFFFFFFFFFFFFFFFFFFFFFFFFFFFFFFFFFFFFFFFF AND PUSH20 0xFFFFFFFFFFFFFFFFFFFFFFFFFFFFFFFFFFFFFFFF AND DUP2 MSTORE PUSH1 0x20 ADD SWAP1 DUP2 MSTORE PUSH1 0x20 ADD PUSH0 KECCAK256 SLOAD SWAP1 POP SWAP2 SWAP1 POP JUMP JUMPDEST PUSH2 0x903 PUSH2 0xCCC JUMP JUMPDEST PUSH20 0xFFFFFFFFFFFFFFFFFFFFFFFFFFFFFFFFFFFFFFFF AND PUSH2 0x921 PUSH2 0x99A JUMP JUMPDEST PUSH20 0xFFFFFFFFFFFFFFFFFFFFFFFFFFFFFFFFFFFFFFFF AND EQ PUSH2 0x977 JUMPI PUSH1 0x40 MLOAD PUSH32 0x8C379A000000000000000000000000000000000000000000000000000000000 DUP2 MSTORE PUSH1 0x4 ADD PUSH2 0x96E SWAP1 PUSH2 0x1BEB JUMP JUMPDEST PUSH1 0x40 MLOAD DUP1 SWAP2 SUB SWAP1 REVERT JUMPDEST PUSH2 0x980 PUSH0 PUSH2 0x12DC JUMP JUMPDEST JUMP JUMPDEST PUSH1 0x6 PUSH0 SWAP1 SLOAD SWAP1 PUSH2 0x100 EXP SWAP1 DIV PUSH1 0xFF AND DUP2 JUMP JUMPDEST PUSH1 0x7 SLOAD DUP2 JUMP JUMPDEST PUSH0 DUP1 PUSH0 SWAP1 SLOAD SWAP1 PUSH2 0x100 EXP SWAP1 DIV PUSH20 0xFFFFFFFFFFFFFFFFFFFFFFFFFFFFFFFFFFFFFFFF AND SWAP1 POP SWAP1 JUMP JUMPDEST PUSH1 0x60 PUSH1 0x5 DUP1 SLOAD PUSH2 0x9D0 SWAP1 PUSH2 0x1A83 JUMP JUMPDEST DUP1 PUSH1 0x1F ADD PUSH1 0x20 DUP1 SWAP2 DIV MUL PUSH1 0x20 ADD PUSH1 0x40 MLOAD SWAP1 DUP2 ADD PUSH1 0x40 MSTORE DUP1 SWAP3 SWAP2 SWAP1 DUP2 DUP2 MSTORE PUSH1 0x20 ADD DUP3 DUP1 SLOAD PUSH2 0x9FC SWAP1 PUSH2 0x1A83 JUMP JUMPDEST DUP1 ISZERO PUSH2 0xA47 JUMPI DUP1 PUSH1 0x1F LT PUSH2 0xA1E JUMPI PUSH2 0x100 DUP1 DUP4 SLOAD DIV MUL DUP4 MSTORE SWAP2 PUSH1 0x20 ADD SWAP2 PUSH2 0xA47 JUMP JUMPDEST DUP3 ADD SWAP2 SWAP1 PUSH0 MSTORE PUSH1 0x20 PUSH0 KECCAK256 SWAP1 JUMPDEST DUP2 SLOAD DUP2 MSTORE SWAP1 PUSH1 0x1 ADD SWAP1 PUSH1 0x20 ADD DUP1 DUP4 GT PUSH2 0xA2A JUMPI DUP3 SWAP1 SUB PUSH1 0x1F AND DUP3 ADD SWAP2 JUMPDEST POP POP POP POP POP SWAP1 POP SWAP1 JUMP JUMPDEST PUSH0 DUP1 PUSH1 0x2 PUSH0 PUSH2 0xA5E PUSH2 0xCCC JUMP JUMPDEST PUSH20 0xFFFFFFFFFFFFFFFFFFFFFFFFFFFFFFFFFFFFFFFF AND PUSH20 0xFFFFFFFFFFFFFFFFFFFFFFFFFFFFFFFFFFFFFFFF AND DUP2 MSTORE PUSH1 0x20 ADD SWAP1 DUP2 MSTORE PUSH1 0x20 ADD PUSH0 KECCAK256 PUSH0 DUP6 PUSH20 0xFFFFFFFFFFFFFFFFFFFFFFFFFFFFFFFFFFFFFFFF AND PUSH20 0xFFFFFFFFFFFFFFFFFFFFFFFFFFFFFFFFFFFFFFFF AND DUP2 MSTORE PUSH1 0x20 ADD SWAP1 DUP2 MSTORE PUSH1 0x20 ADD PUSH0 KECCAK256 SLOAD SWAP1 POP DUP3 DUP2 LT ISZERO PUSH2 0xB18 JUMPI PUSH1 0x40 MLOAD PUSH32 0x8C379A000000000000000000000000000000000000000000000000000000000 DUP2 MSTORE PUSH1 0x4 ADD PUSH2 0xB0F SWAP1 PUSH2 0x1C79 JUMP JUMPDEST PUSH1 0x40 MLOAD DUP1 SWAP2 SUB SWAP1 REVERT JUMPDEST PUSH2 0xB2C PUSH2 0xB23 PUSH2 0xCCC JUMP JUMPDEST DUP6 DUP6 DUP5 SUB PUSH2 0xCD3 JUMP JUMPDEST PUSH1 0x1 SWAP2 POP POP SWAP3 SWAP2 POP POP JUMP JUMPDEST PUSH0 PUSH2 0xB4A PUSH2 0xB43 PUSH2 0xCCC JUMP JUMPDEST DUP5 DUP5 PUSH2 0xE96 JUMP JUMPDEST PUSH1 0x1 SWAP1 POP SWAP3 SWAP2 POP POP JUMP JUMPDEST PUSH0 PUSH1 0x2 PUSH0 DUP5 PUSH20 0xFFFFFFFFFFFFFFFFFFFFFFFFFFFFFFFFFFFFFFFF AND PUSH20 0xFFFFFFFFFFFFFFFFFFFFFFFFFFFFFFFFFFFFFFFF AND DUP2 MSTORE PUSH1 0x20 ADD SWAP1 DUP2 MSTORE PUSH1 0x20 ADD PUSH0 KECCAK256 PUSH0 DUP4 PUSH20 0xFFFFFFFFFFFFFFFFFFFFFFFFFFFFFFFFFFFFFFFF AND PUSH20 0xFFFFFFFFFFFFFFFFFFFFFFFFFFFFFFFFFFFFFFFF AND DUP2 MSTORE PUSH1 0x20 ADD SWAP1 DUP2 MSTORE PUSH1 0x20 ADD PUSH0 KECCAK256 SLOAD SWAP1 POP SWAP3 SWAP2 POP POP JUMP JUMPDEST PUSH2 0xBDE PUSH2 0xCCC JUMP JUMPDEST PUSH20 0xFFFFFFFFFFFFFFFFFFFFFFFFFFFFFFFFFFFFFFFF AND PUSH2 0xBFC PUSH2 0x99A JUMP JUMPDEST PUSH20 0xFFFFFFFFFFFFFFFFFFFFFFFFFFFFFFFFFFFFFFFF AND EQ PUSH2 0xC52 JUMPI PUSH1 0x40 MLOAD PUSH32 0x8C379A000000000000000000000000000000000000000000000000000000000 DUP2 MSTORE PUSH1 0x4 ADD PUSH2 0xC49 SWAP1 PUSH2 0x1BEB JUMP JUMPDEST PUSH1 0x40 MLOAD DUP1 SWAP2 SUB SWAP1 REVERT JUMPDEST PUSH0 PUSH20 0xFFFFFFFFFFFFFFFFFFFFFFFFFFFFFFFFFFFFFFFF AND DUP2 PUSH20 0xFFFFFFFFFFFFFFFFFFFFFFFFFFFFFFFFFFFFFFFF AND SUB PUSH2 0xCC0 JUMPI PUSH1 0x40 MLOAD PUSH32 0x8C379A000000000000000000000000000000000000000000000000000000000 DUP2 MSTORE PUSH1 0x4 ADD PUSH2 0xCB7 SWAP1 PUSH2 0x1D07 JUMP JUMPDEST PUSH1 0x40 MLOAD DUP1 SWAP2 SUB SWAP1 REVERT JUMPDEST PUSH2 0xCC9 DUP2 PUSH2 0x12DC JUMP JUMPDEST POP JUMP JUMPDEST PUSH0 CALLER SWAP1 POP SWAP1 JUMP JUMPDEST PUSH0 PUSH20 0xFFFFFFFFFFFFFFFFFFFFFFFFFFFFFFFFFFFFFFFF AND DUP4 PUSH20 0xFFFFFFFFFFFFFFFFFFFFFFFFFFFFFFFFFFFFFFFF AND SUB PUSH2 0xD41 JUMPI PUSH1 0x40 MLOAD PUSH32 0x8C379A000000000000000000000000000000000000000000000000000000000 DUP2 MSTORE PUSH1 0x4 ADD PUSH2 0xD38 SWAP1 PUSH2 0x1D95 JUMP JUMPDEST PUSH1 0x40 MLOAD DUP1 SWAP2 SUB SWAP1 REVERT JUMPDEST PUSH0 PUSH20 0xFFFFFFFFFFFFFFFFFFFFFFFFFFFFFFFFFFFFFFFF AND DUP3 PUSH20 0xFFFFFFFFFFFFFFFFFFFFFFFFFFFFFFFFFFFFFFFF AND SUB PUSH2 0xDAF JUMPI PUSH1 0x40 MLOAD PUSH32 0x8C379A000000000000000000000000000000000000000000000000000000000 DUP2 MSTORE PUSH1 0x4 ADD PUSH2 0xDA6 SWAP1 PUSH2 0x1E23 JUMP JUMPDEST PUSH1 0x40 MLOAD DUP1 SWAP2 SUB SWAP1 REVERT JUMPDEST DUP1 PUSH1 0x2 PUSH0 DUP6 PUSH20 0xFFFFFFFFFFFFFFFFFFFFFFFFFFFFFFFFFFFFFFFF AND PUSH20 0xFFFFFFFFFFFFFFFFFFFFFFFFFFFFFFFFFFFFFFFF AND DUP2 MSTORE PUSH1 0x20 ADD SWAP1 DUP2 MSTORE PUSH1 0x20 ADD PUSH0 KECCAK256 PUSH0 DUP5 PUSH20 0xFFFFFFFFFFFFFFFFFFFFFFFFFFFFFFFFFFFFFFFF AND PUSH20 0xFFFFFFFFFFFFFFFFFFFFFFFFFFFFFFFFFFFFFFFF AND DUP2 MSTORE PUSH1 0x20 ADD SWAP1 DUP2 MSTORE PUSH1 0x20 ADD PUSH0 KECCAK256 DUP2 SWAP1 SSTORE POP DUP2 PUSH20 0xFFFFFFFFFFFFFFFFFFFFFFFFFFFFFFFFFFFFFFFF AND DUP4 PUSH20 0xFFFFFFFFFFFFFFFFFFFFFFFFFFFFFFFFFFFFFFFF AND PUSH32 0x8C5BE1E5EBEC7D5BD14F71427D1E84F3DD0314C0F7B2291E5B200AC8C7C3B925 DUP4 PUSH1 0x40 MLOAD PUSH2 0xE89 SWAP2 SWAP1 PUSH2 0x185C JUMP JUMPDEST PUSH1 0x40 MLOAD DUP1 SWAP2 SUB SWAP1 LOG3 POP POP POP JUMP JUMPDEST PUSH0 PUSH20 0xFFFFFFFFFFFFFFFFFFFFFFFFFFFFFFFFFFFFFFFF AND DUP4 PUSH20 0xFFFFFFFFFFFFFFFFFFFFFFFFFFFFFFFFFFFFFFFF AND SUB PUSH2 0xF04 JUMPI PUSH1 0x40 MLOAD PUSH32 0x8C379A000000000000000000000000000000000000000000000000000000000 DUP2 MSTORE PUSH1 0x4 ADD PUSH2 0xEFB SWAP1 PUSH2 0x1EB1 JUMP JUMPDEST PUSH1 0x40 MLOAD DUP1 SWAP2 SUB SWAP1 REVERT JUMPDEST PUSH0 PUSH20 0xFFFFFFFFFFFFFFFFFFFFFFFFFFFFFFFFFFFFFFFF AND DUP3 PUSH20 0xFFFFFFFFFFFFFFFFFFFFFFFFFFFFFFFFFFFFFFFF AND SUB PUSH2 0xF72 JUMPI PUSH1 0x40 MLOAD PUSH32 0x8C379A000000000000000000000000000000000000000000000000000000000 DUP2 MSTORE PUSH1 0x4 ADD PUSH2 0xF69 SWAP1 PUSH2 0x1F3F JUMP JUMPDEST PUSH1 0x40 MLOAD DUP1 SWAP2 SUB SWAP1 REVERT JUMPDEST PUSH2 0xF7D DUP4 DUP4 DUP4 PUSH2 0x139D JUMP JUMPDEST PUSH0 PUSH1 0x1 PUSH0 DUP6 PUSH20 0xFFFFFFFFFFFFFFFFFFFFFFFFFFFFFFFFFFFFFFFF AND PUSH20 0xFFFFFFFFFFFFFFFFFFFFFFFFFFFFFFFFFFFFFFFF AND DUP2 MSTORE PUSH1 0x20 ADD SWAP1 DUP2 MSTORE PUSH1 0x20 ADD PUSH0 KECCAK256 SLOAD SWAP1 POP DUP2 DUP2 LT ISZERO PUSH2 0x1001 JUMPI PUSH1 0x40 MLOAD PUSH32 0x8C379A000000000000000000000000000000000000000000000000000000000 DUP2 MSTORE PUSH1 0x4 ADD PUSH2 0xFF8 SWAP1 PUSH2 0x1FCD JUMP JUMPDEST PUSH1 0x40 MLOAD DUP1 SWAP2 SUB SWAP1 REVERT JUMPDEST DUP2 DUP2 SUB PUSH1 0x1 PUSH0 DUP7 PUSH20 0xFFFFFFFFFFFFFFFFFFFFFFFFFFFFFFFFFFFFFFFF AND PUSH20 0xFFFFFFFFFFFFFFFFFFFFFFFFFFFFFFFFFFFFFFFF AND DUP2 MSTORE PUSH1 0x20 ADD SWAP1 DUP2 MSTORE PUSH1 0x20 ADD PUSH0 KECCAK256 DUP2 SWAP1 SSTORE POP DUP2 PUSH1 0x1 PUSH0 DUP6 PUSH20 0xFFFFFFFFFFFFFFFFFFFFFFFFFFFFFFFFFFFFFFFF AND PUSH20 0xFFFFFFFFFFFFFFFFFFFFFFFFFFFFFFFFFFFFFFFF AND DUP2 MSTORE PUSH1 0x20 ADD SWAP1 DUP2 MSTORE PUSH1 0x20 ADD PUSH0 KECCAK256 PUSH0 DUP3 DUP3 SLOAD PUSH2 0x1091 SWAP2 SWAP1 PUSH2 0x1B6E JUMP JUMPDEST SWAP3 POP POP DUP2 SWAP1 SSTORE POP DUP3 PUSH20 0xFFFFFFFFFFFFFFFFFFFFFFFFFFFFFFFFFFFFFFFF AND DUP5 PUSH20 0xFFFFFFFFFFFFFFFFFFFFFFFFFFFFFFFFFFFFFFFF AND PUSH32 0xDDF252AD1BE2C89B69C2B068FC378DAA952BA7F163C4A11628F55A4DF523B3EF DUP5 PUSH1 0x40 MLOAD PUSH2 0x10F5 SWAP2 SWAP1 PUSH2 0x185C JUMP JUMPDEST PUSH1 0x40 MLOAD DUP1 SWAP2 SUB SWAP1 LOG3 PUSH2 0x1108 DUP5 DUP5 DUP5 PUSH2 0x1671 JUMP JUMPDEST POP POP POP POP JUMP JUMPDEST PUSH0 PUSH20 0xFFFFFFFFFFFFFFFFFFFFFFFFFFFFFFFFFFFFFFFF AND DUP3 PUSH20 0xFFFFFFFFFFFFFFFFFFFFFFFFFFFFFFFFFFFFFFFF AND SUB PUSH2 0x117C JUMPI PUSH1 0x40 MLOAD PUSH32 0x8C379A000000000000000000000000000000000000000000000000000000000 DUP2 MSTORE PUSH1 0x4 ADD PUSH2 0x1173 SWAP1 PUSH2 0x205B JUMP JUMPDEST PUSH1 0x40 MLOAD DUP1 SWAP2 SUB SWAP1 REVERT JUMPDEST PUSH2 0x1187 DUP3 PUSH0 DUP4 PUSH2 0x139D JUMP JUMPDEST PUSH0 PUSH1 0x1 PUSH0 DUP5 PUSH20 0xFFFFFFFFFFFFFFFFFFFFFFFFFFFFFFFFFFFFFFFF AND PUSH20 0xFFFFFFFFFFFFFFFFFFFFFFFFFFFFFFFFFFFFFFFF AND DUP2 MSTORE PUSH1 0x20 ADD SWAP1 DUP2 MSTORE PUSH1 0x20 ADD PUSH0 KECCAK256 SLOAD SWAP1 POP DUP2 DUP2 LT ISZERO PUSH2 0x120B JUMPI PUSH1 0x40 MLOAD PUSH32 0x8C379A000000000000000000000000000000000000000000000000000000000 DUP2 MSTORE PUSH1 0x4 ADD PUSH2 0x1202 SWAP1 PUSH2 0x20E9 JUMP JUMPDEST PUSH1 0x40 MLOAD DUP1 SWAP2 SUB SWAP1 REVERT JUMPDEST DUP2 DUP2 SUB PUSH1 0x1 PUSH0 DUP6 PUSH20 0xFFFFFFFFFFFFFFFFFFFFFFFFFFFFFFFFFFFFFFFF AND PUSH20 0xFFFFFFFFFFFFFFFFFFFFFFFFFFFFFFFFFFFFFFFF AND DUP2 MSTORE PUSH1 0x20 ADD SWAP1 DUP2 MSTORE PUSH1 0x20 ADD PUSH0 KECCAK256 DUP2 SWAP1 SSTORE POP DUP2 PUSH1 0x3 PUSH0 DUP3 DUP3 SLOAD PUSH2 0x1260 SWAP2 SWAP1 PUSH2 0x2107 JUMP JUMPDEST SWAP3 POP POP DUP2 SWAP1 SSTORE POP PUSH0 PUSH20 0xFFFFFFFFFFFFFFFFFFFFFFFFFFFFFFFFFFFFFFFF AND DUP4 PUSH20 0xFFFFFFFFFFFFFFFFFFFFFFFFFFFFFFFFFFFFFFFF AND PUSH32 0xDDF252AD1BE2C89B69C2B068FC378DAA952BA7F163C4A11628F55A4DF523B3EF DUP5 PUSH1 0x40 MLOAD PUSH2 0x12C4 SWAP2 SWAP1 PUSH2 0x185C JUMP JUMPDEST PUSH1 0x40 MLOAD DUP1 SWAP2 SUB SWAP1 LOG3 PUSH2 0x12D7 DUP4 PUSH0 DUP5 PUSH2 0x1671 JUMP JUMPDEST POP POP POP JUMP JUMPDEST PUSH0 DUP1 PUSH0 SWAP1 SLOAD SWAP1 PUSH2 0x100 EXP SWAP1 DIV PUSH20 0xFFFFFFFFFFFFFFFFFFFFFFFFFFFFFFFFFFFFFFFF AND SWAP1 POP DUP2 PUSH0 DUP1 PUSH2 0x100 EXP DUP2 SLOAD DUP2 PUSH20 0xFFFFFFFFFFFFFFFFFFFFFFFFFFFFFFFFFFFFFFFF MUL NOT AND SWAP1 DUP4 PUSH20 0xFFFFFFFFFFFFFFFFFFFFFFFFFFFFFFFFFFFFFFFF AND MUL OR SWAP1 SSTORE POP DUP2 PUSH20 0xFFFFFFFFFFFFFFFFFFFFFFFFFFFFFFFFFFFFFFFF AND DUP2 PUSH20 0xFFFFFFFFFFFFFFFFFFFFFFFFFFFFFFFFFFFFFFFF AND PUSH32 0x8BE0079C531659141344CD1FD0A4F28419497F9722A3DAAFE3B4186F6B6457E0 PUSH1 0x40 MLOAD PUSH1 0x40 MLOAD DUP1 SWAP2 SUB SWAP1 LOG3 POP POP JUMP JUMPDEST PUSH1 0xA PUSH0 DUP4 PUSH20 0xFFFFFFFFFFFFFFFFFFFFFFFFFFFFFFFFFFFFFFFF AND PUSH20 0xFFFFFFFFFFFFFFFFFFFFFFFFFFFFFFFFFFFFFFFF AND DUP2 MSTORE PUSH1 0x20 ADD SWAP1 DUP2 MSTORE PUSH1 0x20 ADD PUSH0 KECCAK256 PUSH0 SWAP1 SLOAD SWAP1 PUSH2 0x100 EXP SWAP1 DIV PUSH1 0xFF AND ISZERO DUP1 ISZERO PUSH2 0x143B JUMPI POP PUSH1 0xA PUSH0 DUP5 PUSH20 0xFFFFFFFFFFFFFFFFFFFFFFFFFFFFFFFFFFFFFFFF AND PUSH20 0xFFFFFFFFFFFFFFFFFFFFFFFFFFFFFFFFFFFFFFFF AND DUP2 MSTORE PUSH1 0x20 ADD SWAP1 DUP2 MSTORE PUSH1 0x20 ADD PUSH0 KECCAK256 PUSH0 SWAP1 SLOAD SWAP1 PUSH2 0x100 EXP SWAP1 DIV PUSH1 0xFF AND ISZERO JUMPDEST PUSH2 0x147A JUMPI PUSH1 0x40 MLOAD PUSH32 0x8C379A000000000000000000000000000000000000000000000000000000000 DUP2 MSTORE PUSH1 0x4 ADD PUSH2 0x1471 SWAP1 PUSH2 0x2184 JUMP JUMPDEST PUSH1 0x40 MLOAD DUP1 SWAP2 SUB SWAP1 REVERT JUMPDEST PUSH0 PUSH20 0xFFFFFFFFFFFFFFFFFFFFFFFFFFFFFFFFFFFFFFFF AND PUSH1 0x9 PUSH0 SWAP1 SLOAD SWAP1 PUSH2 0x100 EXP SWAP1 DIV PUSH20 0xFFFFFFFFFFFFFFFFFFFFFFFFFFFFFFFFFFFFFFFF AND PUSH20 0xFFFFFFFFFFFFFFFFFFFFFFFFFFFFFFFFFFFFFFFF AND SUB PUSH2 0x1585 JUMPI PUSH2 0x14D6 PUSH2 0x99A JUMP JUMPDEST PUSH20 0xFFFFFFFFFFFFFFFFFFFFFFFFFFFFFFFFFFFFFFFF AND DUP4 PUSH20 0xFFFFFFFFFFFFFFFFFFFFFFFFFFFFFFFFFFFFFFFF AND EQ DUP1 PUSH2 0x1541 JUMPI POP PUSH2 0x1512 PUSH2 0x99A JUMP JUMPDEST PUSH20 0xFFFFFFFFFFFFFFFFFFFFFFFFFFFFFFFFFFFFFFFF AND DUP3 PUSH20 0xFFFFFFFFFFFFFFFFFFFFFFFFFFFFFFFFFFFFFFFF AND EQ JUMPDEST PUSH2 0x1580 JUMPI PUSH1 0x40 MLOAD PUSH32 0x8C379A000000000000000000000000000000000000000000000000000000000 DUP2 MSTORE PUSH1 0x4 ADD PUSH2 0x1577 SWAP1 PUSH2 0x21EC JUMP JUMPDEST PUSH1 0x40 MLOAD DUP1 SWAP2 SUB SWAP1 REVERT JUMPDEST PUSH2 0x166C JUMP JUMPDEST PUSH1 0x6 PUSH0 SWAP1 SLOAD SWAP1 PUSH2 0x100 EXP SWAP1 DIV PUSH1 0xFF AND DUP1 ISZERO PUSH2 0x15EC JUMPI POP PUSH1 0x9 PUSH0 SWAP1 SLOAD SWAP1 PUSH2 0x100 EXP SWAP1 DIV PUSH20 0xFFFFFFFFFFFFFFFFFFFFFFFFFFFFFFFFFFFFFFFF AND PUSH20 0xFFFFFFFFFFFFFFFFFFFFFFFFFFFFFFFFFFFFFFFF AND DUP4 PUSH20 0xFFFFFFFFFFFFFFFFFFFFFFFFFFFFFFFFFFFFFFFF AND EQ JUMPDEST ISZERO PUSH2 0x166B JUMPI PUSH1 0x7 SLOAD DUP2 PUSH2 0x15FE DUP5 PUSH2 0x8B5 JUMP JUMPDEST PUSH2 0x1608 SWAP2 SWAP1 PUSH2 0x1B6E JUMP JUMPDEST GT ISZERO DUP1 ISZERO PUSH2 0x162B JUMPI POP PUSH1 0x8 SLOAD DUP2 PUSH2 0x161E DUP5 PUSH2 0x8B5 JUMP JUMPDEST PUSH2 0x1628 SWAP2 SWAP1 PUSH2 0x1B6E JUMP JUMPDEST LT ISZERO JUMPDEST PUSH2 0x166A JUMPI PUSH1 0x40 MLOAD PUSH32 0x8C379A000000000000000000000000000000000000000000000000000000000 DUP2 MSTORE PUSH1 0x4 ADD PUSH2 0x1661 SWAP1 PUSH2 0x2254 JUMP JUMPDEST PUSH1 0x40 MLOAD DUP1 SWAP2 SUB SWAP1 REVERT JUMPDEST JUMPDEST JUMPDEST POP POP POP JUMP JUMPDEST POP POP POP JUMP JUMPDEST PUSH0 DUP2 MLOAD SWAP1 POP SWAP2 SWAP1 POP JUMP JUMPDEST PUSH0 DUP3 DUP3 MSTORE PUSH1 0x20 DUP3 ADD SWAP1 POP SWAP3 SWAP2 POP POP JUMP JUMPDEST PUSH0 JUMPDEST DUP4 DUP2 LT ISZERO PUSH2 0x16AD JUMPI DUP1 DUP3 ADD MLOAD DUP2 DUP5 ADD MSTORE PUSH1 0x20 DUP2 ADD SWAP1 POP PUSH2 0x1692 JUMP JUMPDEST PUSH0 DUP5 DUP5 ADD MSTORE POP POP POP POP JUMP JUMPDEST PUSH0 PUSH1 0x1F NOT PUSH1 0x1F DUP4 ADD AND SWAP1 POP SWAP2 SWAP1 POP JUMP JUMPDEST PUSH0 PUSH2 0x16D2 DUP3 PUSH2 0x1676 JUMP JUMPDEST PUSH2 0x16DC DUP2 DUP6 PUSH2 0x1680 JUMP JUMPDEST SWAP4 POP PUSH2 0x16EC DUP2 DUP6 PUSH1 0x20 DUP7 ADD PUSH2 0x1690 JUMP JUMPDEST PUSH2 0x16F5 DUP2 PUSH2 0x16B8 JUMP JUMPDEST DUP5 ADD SWAP2 POP POP SWAP3 SWAP2 POP POP JUMP JUMPDEST PUSH0 PUSH1 0x20 DUP3 ADD SWAP1 POP DUP2 DUP2 SUB PUSH0 DUP4 ADD MSTORE PUSH2 0x1718 DUP2 DUP5 PUSH2 0x16C8 JUMP JUMPDEST SWAP1 POP SWAP3 SWAP2 POP POP JUMP JUMPDEST PUSH0 DUP1 REVERT JUMPDEST PUSH0 PUSH20 0xFFFFFFFFFFFFFFFFFFFFFFFFFFFFFFFFFFFFFFFF DUP3 AND SWAP1 POP SWAP2 SWAP1 POP JUMP JUMPDEST PUSH0 PUSH2 0x174D DUP3 PUSH2 0x1724 JUMP JUMPDEST SWAP1 POP SWAP2 SWAP1 POP JUMP JUMPDEST PUSH2 0x175D DUP2 PUSH2 0x1743 JUMP JUMPDEST DUP2 EQ PUSH2 0x1767 JUMPI PUSH0 DUP1 REVERT JUMPDEST POP JUMP JUMPDEST PUSH0 DUP2 CALLDATALOAD SWAP1 POP PUSH2 0x1778 DUP2 PUSH2 0x1754 JUMP JUMPDEST SWAP3 SWAP2 POP POP JUMP JUMPDEST PUSH0 DUP2 SWAP1 POP SWAP2 SWAP1 POP JUMP JUMPDEST PUSH2 0x1790 DUP2 PUSH2 0x177E JUMP JUMPDEST DUP2 EQ PUSH2 0x179A JUMPI PUSH0 DUP1 REVERT JUMPDEST POP JUMP JUMPDEST PUSH0 DUP2 CALLDATALOAD SWAP1 POP PUSH2 0x17AB DUP2 PUSH2 0x1787 JUMP JUMPDEST SWAP3 SWAP2 POP POP JUMP JUMPDEST PUSH0 DUP1 PUSH1 0x40 DUP4 DUP6 SUB SLT ISZERO PUSH2 0x17C7 JUMPI PUSH2 0x17C6 PUSH2 0x1720 JUMP JUMPDEST JUMPDEST PUSH0 PUSH2 0x17D4 DUP6 DUP3 DUP7 ADD PUSH2 0x176A JUMP JUMPDEST SWAP3 POP POP PUSH1 0x20 PUSH2 0x17E5 DUP6 DUP3 DUP7 ADD PUSH2 0x179D JUMP JUMPDEST SWAP2 POP POP SWAP3 POP SWAP3 SWAP1 POP JUMP JUMPDEST PUSH0 DUP2 ISZERO ISZERO SWAP1 POP SWAP2 SWAP1 POP JUMP JUMPDEST PUSH2 0x1803 DUP2 PUSH2 0x17EF JUMP JUMPDEST DUP3 MSTORE POP POP JUMP JUMPDEST PUSH0 PUSH1 0x20 DUP3 ADD SWAP1 POP PUSH2 0x181C PUSH0 DUP4 ADD DUP5 PUSH2 0x17FA JUMP JUMPDEST SWAP3 SWAP2 POP POP JUMP JUMPDEST PUSH0 PUSH1 0x20 DUP3 DUP5 SUB SLT ISZERO PUSH2 0x1837 JUMPI PUSH2 0x1836 PUSH2 0x1720 JUMP JUMPDEST JUMPDEST PUSH0 PUSH2 0x1844 DUP5 DUP3 DUP6 ADD PUSH2 0x176A JUMP JUMPDEST SWAP2 POP POP SWAP3 SWAP2 POP POP JUMP JUMPDEST PUSH2 0x1856 DUP2 PUSH2 0x177E JUMP JUMPDEST DUP3 MSTORE POP POP JUMP JUMPDEST PUSH0 PUSH1 0x20 DUP3 ADD SWAP1 POP PUSH2 0x186F PUSH0 DUP4 ADD DUP5 PUSH2 0x184D JUMP JUMPDEST SWAP3 SWAP2 POP POP JUMP JUMPDEST PUSH0 DUP1 PUSH0 PUSH1 0x60 DUP5 DUP7 SUB SLT ISZERO PUSH2 0x188C JUMPI PUSH2 0x188B PUSH2 0x1720 JUMP JUMPDEST JUMPDEST PUSH0 PUSH2 0x1899 DUP7 DUP3 DUP8 ADD PUSH2 0x176A JUMP JUMPDEST SWAP4 POP POP PUSH1 0x20 PUSH2 0x18AA DUP7 DUP3 DUP8 ADD PUSH2 0x176A JUMP JUMPDEST SWAP3 POP POP PUSH1 0x40 PUSH2 0x18BB DUP7 DUP3 DUP8 ADD PUSH2 0x179D JUMP JUMPDEST SWAP2 POP POP SWAP3 POP SWAP3 POP SWAP3 JUMP JUMPDEST PUSH0 PUSH1 0xFF DUP3 AND SWAP1 POP SWAP2 SWAP1 POP JUMP JUMPDEST PUSH2 0x18DA DUP2 PUSH2 0x18C5 JUMP JUMPDEST DUP3 MSTORE POP POP JUMP JUMPDEST PUSH0 PUSH1 0x20 DUP3 ADD SWAP1 POP PUSH2 0x18F3 PUSH0 DUP4 ADD DUP5 PUSH2 0x18D1 JUMP JUMPDEST SWAP3 SWAP2 POP POP JUMP JUMPDEST PUSH2 0x1902 DUP2 PUSH2 0x17EF JUMP JUMPDEST DUP2 EQ PUSH2 0x190C JUMPI PUSH0 DUP1 REVERT JUMPDEST POP JUMP JUMPDEST PUSH0 DUP2 CALLDATALOAD SWAP1 POP PUSH2 0x191D DUP2 PUSH2 0x18F9 JUMP JUMPDEST SWAP3 SWAP2 POP POP JUMP JUMPDEST PUSH0 DUP1 PUSH0 DUP1 PUSH1 0x80 DUP6 DUP8 SUB SLT ISZERO PUSH2 0x193B JUMPI PUSH2 0x193A PUSH2 0x1720 JUMP JUMPDEST JUMPDEST PUSH0 PUSH2 0x1948 DUP8 DUP3 DUP9 ADD PUSH2 0x190F JUMP JUMPDEST SWAP5 POP POP PUSH1 0x20 PUSH2 0x1959 DUP8 DUP3 DUP9 ADD PUSH2 0x176A JUMP JUMPDEST SWAP4 POP POP PUSH1 0x40 PUSH2 0x196A DUP8 DUP3 DUP9 ADD PUSH2 0x179D JUMP JUMPDEST SWAP3 POP POP PUSH1 0x60 PUSH2 0x197B DUP8 DUP3 DUP9 ADD PUSH2 0x179D JUMP JUMPDEST SWAP2 POP POP SWAP3 SWAP6 SWAP2 SWAP5 POP SWAP3 POP JUMP JUMPDEST PUSH0 DUP1 PUSH1 0x40 DUP4 DUP6 SUB SLT ISZERO PUSH2 0x199D JUMPI PUSH2 0x199C PUSH2 0x1720 JUMP JUMPDEST JUMPDEST PUSH0 PUSH2 0x19AA DUP6 DUP3 DUP7 ADD PUSH2 0x176A JUMP JUMPDEST SWAP3 POP POP PUSH1 0x20 PUSH2 0x19BB DUP6 DUP3 DUP7 ADD PUSH2 0x190F JUMP JUMPDEST SWAP2 POP POP SWAP3 POP SWAP3 SWAP1 POP JUMP JUMPDEST PUSH0 PUSH1 0x20 DUP3 DUP5 SUB SLT ISZERO PUSH2 0x19DA JUMPI PUSH2 0x19D9 PUSH2 0x1720 JUMP JUMPDEST JUMPDEST PUSH0 PUSH2 0x19E7 DUP5 DUP3 DUP6 ADD PUSH2 0x179D JUMP JUMPDEST SWAP2 POP POP SWAP3 SWAP2 POP POP JUMP JUMPDEST PUSH2 0x19F9 DUP2 PUSH2 0x1743 JUMP JUMPDEST DUP3 MSTORE POP POP JUMP JUMPDEST PUSH0 PUSH1 0x20 DUP3 ADD SWAP1 POP PUSH2 0x1A12 PUSH0 DUP4 ADD DUP5 PUSH2 0x19F0 JUMP JUMPDEST SWAP3 SWAP2 POP POP JUMP JUMPDEST PUSH0 DUP1 PUSH1 0x40 DUP4 DUP6 SUB SLT ISZERO PUSH2 0x1A2E JUMPI PUSH2 0x1A2D PUSH2 0x1720 JUMP JUMPDEST JUMPDEST PUSH0 PUSH2 0x1A3B DUP6 DUP3 DUP7 ADD PUSH2 0x176A JUMP JUMPDEST SWAP3 POP POP PUSH1 0x20 PUSH2 0x1A4C DUP6 DUP3 DUP7 ADD PUSH2 0x176A JUMP JUMPDEST SWAP2 POP POP SWAP3 POP SWAP3 SWAP1 POP JUMP JUMPDEST PUSH32 0x4E487B7100000000000000000000000000000000000000000000000000000000 PUSH0 MSTORE PUSH1 0x22 PUSH1 0x4 MSTORE PUSH1 0x24 PUSH0 REVERT JUMPDEST PUSH0 PUSH1 0x2 DUP3 DIV SWAP1 POP PUSH1 0x1 DUP3 AND DUP1 PUSH2 0x1A9A JUMPI PUSH1 0x7F DUP3 AND SWAP2 POP JUMPDEST PUSH1 0x20 DUP3 LT DUP2 SUB PUSH2 0x1AAD JUMPI PUSH2 0x1AAC PUSH2 0x1A56 JUMP JUMPDEST JUMPDEST POP SWAP2 SWAP1 POP JUMP JUMPDEST PUSH32 0x45524332303A207472616E7366657220616D6F756E7420657863656564732061 PUSH0 DUP3 ADD MSTORE PUSH32 0x6C6C6F77616E6365000000000000000000000000000000000000000000000000 PUSH1 0x20 DUP3 ADD MSTORE POP JUMP JUMPDEST PUSH0 PUSH2 0x1B0D PUSH1 0x28 DUP4 PUSH2 0x1680 JUMP JUMPDEST SWAP2 POP PUSH2 0x1B18 DUP3 PUSH2 0x1AB3 JUMP JUMPDEST PUSH1 0x40 DUP3 ADD SWAP1 POP SWAP2 SWAP1 POP JUMP JUMPDEST PUSH0 PUSH1 0x20 DUP3 ADD SWAP1 POP DUP2 DUP2 SUB PUSH0 DUP4 ADD MSTORE PUSH2 0x1B3A DUP2 PUSH2 0x1B01 JUMP JUMPDEST SWAP1 POP SWAP2 SWAP1 POP JUMP JUMPDEST PUSH32 0x4E487B7100000000000000000000000000000000000000000000000000000000 PUSH0 MSTORE PUSH1 0x11 PUSH1 0x4 MSTORE PUSH1 0x24 PUSH0 REVERT JUMPDEST PUSH0 PUSH2 0x1B78 DUP3 PUSH2 0x177E JUMP JUMPDEST SWAP2 POP PUSH2 0x1B83 DUP4 PUSH2 0x177E JUMP JUMPDEST SWAP3 POP DUP3 DUP3 ADD SWAP1 POP DUP1 DUP3 GT ISZERO PUSH2 0x1B9B JUMPI PUSH2 0x1B9A PUSH2 0x1B41 JUMP JUMPDEST JUMPDEST SWAP3 SWAP2 POP POP JUMP JUMPDEST PUSH32 0x4F776E61626C653A2063616C6C6572206973206E6F7420746865206F776E6572 PUSH0 DUP3 ADD MSTORE POP JUMP JUMPDEST PUSH0 PUSH2 0x1BD5 PUSH1 0x20 DUP4 PUSH2 0x1680 JUMP JUMPDEST SWAP2 POP PUSH2 0x1BE0 DUP3 PUSH2 0x1BA1 JUMP JUMPDEST PUSH1 0x20 DUP3 ADD SWAP1 POP SWAP2 SWAP1 POP JUMP JUMPDEST PUSH0 PUSH1 0x20 DUP3 ADD SWAP1 POP DUP2 DUP2 SUB PUSH0 DUP4 ADD MSTORE PUSH2 0x1C02 DUP2 PUSH2 0x1BC9 JUMP JUMPDEST SWAP1 POP SWAP2 SWAP1 POP JUMP JUMPDEST PUSH32 0x45524332303A2064656372656173656420616C6C6F77616E63652062656C6F77 PUSH0 DUP3 ADD MSTORE PUSH32 0x207A65726F000000000000000000000000000000000000000000000000000000 PUSH1 0x20 DUP3 ADD MSTORE POP JUMP JUMPDEST PUSH0 PUSH2 0x1C63 PUSH1 0x25 DUP4 PUSH2 0x1680 JUMP JUMPDEST SWAP2 POP PUSH2 0x1C6E DUP3 PUSH2 0x1C09 JUMP JUMPDEST PUSH1 0x40 DUP3 ADD SWAP1 POP SWAP2 SWAP1 POP JUMP JUMPDEST PUSH0 PUSH1 0x20 DUP3 ADD SWAP1 POP DUP2 DUP2 SUB PUSH0 DUP4 ADD MSTORE PUSH2 0x1C90 DUP2 PUSH2 0x1C57 JUMP JUMPDEST SWAP1 POP SWAP2 SWAP1 POP JUMP JUMPDEST PUSH32 0x4F776E61626C653A206E6577206F776E657220697320746865207A65726F2061 PUSH0 DUP3 ADD MSTORE PUSH32 0x6464726573730000000000000000000000000000000000000000000000000000 PUSH1 0x20 DUP3 ADD MSTORE POP JUMP JUMPDEST PUSH0 PUSH2 0x1CF1 PUSH1 0x26 DUP4 PUSH2 0x1680 JUMP JUMPDEST SWAP2 POP PUSH2 0x1CFC DUP3 PUSH2 0x1C97 JUMP JUMPDEST PUSH1 0x40 DUP3 ADD SWAP1 POP SWAP2 SWAP1 POP JUMP JUMPDEST PUSH0 PUSH1 0x20 DUP3 ADD SWAP1 POP DUP2 DUP2 SUB PUSH0 DUP4 ADD MSTORE PUSH2 0x1D1E DUP2 PUSH2 0x1CE5 JUMP JUMPDEST SWAP1 POP SWAP2 SWAP1 POP JUMP JUMPDEST PUSH32 0x45524332303A20617070726F76652066726F6D20746865207A65726F20616464 PUSH0 DUP3 ADD MSTORE PUSH32 0x7265737300000000000000000000000000000000000000000000000000000000 PUSH1 0x20 DUP3 ADD MSTORE POP JUMP JUMPDEST PUSH0 PUSH2 0x1D7F PUSH1 0x24 DUP4 PUSH2 0x1680 JUMP JUMPDEST SWAP2 POP PUSH2 0x1D8A DUP3 PUSH2 0x1D25 JUMP JUMPDEST PUSH1 0x40 DUP3 ADD SWAP1 POP SWAP2 SWAP1 POP JUMP JUMPDEST PUSH0 PUSH1 0x20 DUP3 ADD SWAP1 POP DUP2 DUP2 SUB PUSH0 DUP4 ADD MSTORE PUSH2 0x1DAC DUP2 PUSH2 0x1D73 JUMP JUMPDEST SWAP1 POP SWAP2 SWAP1 POP JUMP JUMPDEST PUSH32 0x45524332303A20617070726F766520746F20746865207A65726F206164647265 PUSH0 DUP3 ADD MSTORE PUSH32 0x7373000000000000000000000000000000000000000000000000000000000000 PUSH1 0x20 DUP3 ADD MSTORE POP JUMP JUMPDEST PUSH0 PUSH2 0x1E0D PUSH1 0x22 DUP4 PUSH2 0x1680 JUMP JUMPDEST SWAP2 POP PUSH2 0x1E18 DUP3 PUSH2 0x1DB3 JUMP JUMPDEST PUSH1 0x40 DUP3 ADD SWAP1 POP SWAP2 SWAP1 POP JUMP JUMPDEST PUSH0 PUSH1 0x20 DUP3 ADD SWAP1 POP DUP2 DUP2 SUB PUSH0 DUP4 ADD MSTORE PUSH2 0x1E3A DUP2 PUSH2 0x1E01 JUMP JUMPDEST SWAP1 POP SWAP2 SWAP1 POP JUMP JUMPDEST PUSH32 0x45524332303A207472616E736665722066726F6D20746865207A65726F206164 PUSH0 DUP3 ADD MSTORE PUSH32 0x6472657373000000000000000000000000000000000000000000000000000000 PUSH1 0x20 DUP3 ADD MSTORE POP JUMP JUMPDEST PUSH0 PUSH2 0x1E9B PUSH1 0x25 DUP4 PUSH2 0x1680 JUMP JUMPDEST SWAP2 POP PUSH2 0x1EA6 DUP3 PUSH2 0x1E41 JUMP JUMPDEST PUSH1 0x40 DUP3 ADD SWAP1 POP SWAP2 SWAP1 POP JUMP JUMPDEST PUSH0 PUSH1 0x20 DUP3 ADD SWAP1 POP DUP2 DUP2 SUB PUSH0 DUP4 ADD MSTORE PUSH2 0x1EC8 DUP2 PUSH2 0x1E8F JUMP JUMPDEST SWAP1 POP SWAP2 SWAP1 POP JUMP JUMPDEST PUSH32 0x45524332303A207472616E7366657220746F20746865207A65726F2061646472 PUSH0 DUP3 ADD MSTORE PUSH32 0x6573730000000000000000000000000000000000000000000000000000000000 PUSH1 0x20 DUP3 ADD MSTORE POP JUMP JUMPDEST PUSH0 PUSH2 0x1F29 PUSH1 0x23 DUP4 PUSH2 0x1680 JUMP JUMPDEST SWAP2 POP PUSH2 0x1F34 DUP3 PUSH2 0x1ECF JUMP JUMPDEST PUSH1 0x40 DUP3 ADD SWAP1 POP SWAP2 SWAP1 POP JUMP JUMPDEST PUSH0 PUSH1 0x20 DUP3 ADD SWAP1 POP DUP2 DUP2 SUB PUSH0 DUP4 ADD MSTORE PUSH2 0x1F56 DUP2 PUSH2 0x1F1D JUMP JUMPDEST SWAP1 POP SWAP2 SWAP1 POP JUMP JUMPDEST PUSH32 0x45524332303A207472616E7366657220616D6F756E7420657863656564732062 PUSH0 DUP3 ADD MSTORE PUSH32 0x616C616E63650000000000000000000000000000000000000000000000000000 PUSH1 0x20 DUP3 ADD MSTORE POP JUMP JUMPDEST PUSH0 PUSH2 0x1FB7 PUSH1 0x26 DUP4 PUSH2 0x1680 JUMP JUMPDEST SWAP2 POP PUSH2 0x1FC2 DUP3 PUSH2 0x1F5D JUMP JUMPDEST PUSH1 0x40 DUP3 ADD SWAP1 POP SWAP2 SWAP1 POP JUMP JUMPDEST PUSH0 PUSH1 0x20 DUP3 ADD SWAP1 POP DUP2 DUP2 SUB PUSH0 DUP4 ADD MSTORE PUSH2 0x1FE4 DUP2 PUSH2 0x1FAB JUMP JUMPDEST SWAP1 POP SWAP2 SWAP1 POP JUMP JUMPDEST PUSH32 0x45524332303A206275726E2066726F6D20746865207A65726F20616464726573 PUSH0 DUP3 ADD MSTORE PUSH32 0x7300000000000000000000000000000000000000000000000000000000000000 PUSH1 0x20 DUP3 ADD MSTORE POP JUMP JUMPDEST PUSH0 PUSH2 0x2045 PUSH1 0x21 DUP4 PUSH2 0x1680 JUMP JUMPDEST SWAP2 POP PUSH2 0x2050 DUP3 PUSH2 0x1FEB JUMP JUMPDEST PUSH1 0x40 DUP3 ADD SWAP1 POP SWAP2 SWAP1 POP JUMP JUMPDEST PUSH0 PUSH1 0x20 DUP3 ADD SWAP1 POP DUP2 DUP2 SUB PUSH0 DUP4 ADD MSTORE PUSH2 0x2072 DUP2 PUSH2 0x2039 JUMP JUMPDEST SWAP1 POP SWAP2 SWAP1 POP JUMP JUMPDEST PUSH32 0x45524332303A206275726E20616D6F756E7420657863656564732062616C616E PUSH0 DUP3 ADD MSTORE PUSH32 0x6365000000000000000000000000000000000000000000000000000000000000 PUSH1 0x20 DUP3 ADD MSTORE POP JUMP JUMPDEST PUSH0 PUSH2 0x20D3 PUSH1 0x22 DUP4 PUSH2 0x1680 JUMP JUMPDEST SWAP2 POP PUSH2 0x20DE DUP3 PUSH2 0x2079 JUMP JUMPDEST PUSH1 0x40 DUP3 ADD SWAP1 POP SWAP2 SWAP1 POP JUMP JUMPDEST PUSH0 PUSH1 0x20 DUP3 ADD SWAP1 POP DUP2 DUP2 SUB PUSH0 DUP4 ADD MSTORE PUSH2 0x2100 DUP2 PUSH2 0x20C7 JUMP JUMPDEST SWAP1 POP SWAP2 SWAP1 POP JUMP JUMPDEST PUSH0 PUSH2 0x2111 DUP3 PUSH2 0x177E JUMP JUMPDEST SWAP2 POP PUSH2 0x211C DUP4 PUSH2 0x177E JUMP JUMPDEST SWAP3 POP DUP3 DUP3 SUB SWAP1 POP DUP2 DUP2 GT ISZERO PUSH2 0x2134 JUMPI PUSH2 0x2133 PUSH2 0x1B41 JUMP JUMPDEST JUMPDEST SWAP3 SWAP2 POP POP JUMP JUMPDEST PUSH32 0x426C61636B6C6973746564000000000000000000000000000000000000000000 PUSH0 DUP3 ADD MSTORE POP JUMP JUMPDEST PUSH0 PUSH2 0x216E PUSH1 0xB DUP4 PUSH2 0x1680 JUMP JUMPDEST SWAP2 POP PUSH2 0x2179 DUP3 PUSH2 0x213A JUMP JUMPDEST PUSH1 0x20 DUP3 ADD SWAP1 POP SWAP2 SWAP1 POP JUMP JUMPDEST PUSH0 PUSH1 0x20 DUP3 ADD SWAP1 POP DUP2 DUP2 SUB PUSH0 DUP4 ADD MSTORE PUSH2 0x219B DUP2 PUSH2 0x2162 JUMP JUMPDEST SWAP1 POP SWAP2 SWAP1 POP JUMP JUMPDEST PUSH32 0x74726164696E67206973206E6F74207374617274656400000000000000000000 PUSH0 DUP3 ADD MSTORE POP JUMP JUMPDEST PUSH0 PUSH2 0x21D6 PUSH1 0x16 DUP4 PUSH2 0x1680 JUMP JUMPDEST SWAP2 POP PUSH2 0x21E1 DUP3 PUSH2 0x21A2 JUMP JUMPDEST PUSH1 0x20 DUP3 ADD SWAP1 POP SWAP2 SWAP1 POP JUMP JUMPDEST PUSH0 PUSH1 0x20 DUP3 ADD SWAP1 POP DUP2 DUP2 SUB PUSH0 DUP4 ADD MSTORE PUSH2 0x2203 DUP2 PUSH2 0x21CA JUMP JUMPDEST SWAP1 POP SWAP2 SWAP1 POP JUMP JUMPDEST PUSH32 0x466F726269640000000000000000000000000000000000000000000000000000 PUSH0 DUP3 ADD MSTORE POP JUMP JUMPDEST PUSH0 PUSH2 0x223E PUSH1 0x6 DUP4 PUSH2 0x1680 JUMP JUMPDEST SWAP2 POP PUSH2 0x2249 DUP3 PUSH2 0x220A JUMP JUMPDEST PUSH1 0x20 DUP3 ADD SWAP1 POP SWAP2 SWAP1 POP JUMP JUMPDEST PUSH0 PUSH1 0x20 DUP3 ADD SWAP1 POP DUP2 DUP2 SUB PUSH0 DUP4 ADD MSTORE PUSH2 0x226B DUP2 PUSH2 0x2232 JUMP JUMPDEST SWAP1 POP SWAP2 SWAP1 POP JUMP INVALID LOG2 PUSH5 0x6970667358 0x22 SLT KECCAK256 0xB2 0xA8 MSIZE SIGNEXTEND EXTCODESIZE 0x4B 0xD6 PUSH8 0xFB24979F12EDCE5D SWAP8 SDIV EXTCODEHASH 0xAB 0xB0 0x28 MSTORE 0xAF 0xCE COINBASE MSTORE8 0xF6 0xDD PUSH25 0x8DAA64736F6C63430008140033000000000000000000000000 "
				},
				"gasEstimates": {
					"creation": {
						"codeDepositCost": "1774400",
						"executionCost": "infinite",
						"totalCost": "infinite"
					},
					"external": {
						"allowance(address,address)": "infinite",
						"approve(address,uint256)": "infinite",
						"balanceOf(address)": "2874",
						"blacklist(address,bool)": "27328",
						"blacklists(address)": "2901",
						"burn(uint256)": "infinite",
						"decimals()": "383",
						"decreaseAllowance(address,uint256)": "infinite",
						"increaseAllowance(address,uint256)": "infinite",
						"limited()": "2555",
						"maxHoldingAmount()": "2536",
						"minHoldingAmount()": "2537",
						"name()": "infinite",
						"owner()": "2537",
						"renounceOwnership()": "30433",
						"setRule(bool,address,uint256,uint256)": "infinite",
						"symbol()": "infinite",
						"totalSupply()": "2522",
						"transfer(address,uint256)": "infinite",
						"transferFrom(address,address,uint256)": "infinite",
						"transferOwnership(address)": "30839",
						"uniswapV2Pair()": "2531"
					},
					"internal": {
						"_beforeTokenTransfer(address,address,uint256)": "infinite"
					}
				},
				"methodIdentifiers": {
					"allowance(address,address)": "dd62ed3e",
					"approve(address,uint256)": "095ea7b3",
					"balanceOf(address)": "70a08231",
					"blacklist(address,bool)": "404e5129",
					"blacklists(address)": "16c02129",
					"burn(uint256)": "42966c68",
					"decimals()": "313ce567",
					"decreaseAllowance(address,uint256)": "a457c2d7",
					"increaseAllowance(address,uint256)": "39509351",
					"limited()": "860a32ec",
					"maxHoldingAmount()": "89f9a1d3",
					"minHoldingAmount()": "1ab99e12",
					"name()": "06fdde03",
					"owner()": "8da5cb5b",
					"renounceOwnership()": "715018a6",
					"setRule(bool,address,uint256,uint256)": "3aa633aa",
					"symbol()": "95d89b41",
					"totalSupply()": "18160ddd",
					"transfer(address,uint256)": "a9059cbb",
					"transferFrom(address,address,uint256)": "23b872dd",
					"transferOwnership(address)": "f2fde38b",
					"uniswapV2Pair()": "49bd5a5e"
				}
			},
			"storageLayout": {
				"storage": [
					{
						"astId": 27,
						"contract": "contracts/PEPEuni.sol:PepeToken",
						"label": "_owner",
						"offset": 0,
						"slot": "0",
						"type": "t_address"
					},
					{
						"astId": 236,
						"contract": "contracts/PEPEuni.sol:PepeToken",
						"label": "_balances",
						"offset": 0,
						"slot": "1",
						"type": "t_mapping(t_address,t_uint256)"
					},
					{
						"astId": 242,
						"contract": "contracts/PEPEuni.sol:PepeToken",
						"label": "_allowances",
						"offset": 0,
						"slot": "2",
						"type": "t_mapping(t_address,t_mapping(t_address,t_uint256))"
					},
					{
						"astId": 244,
						"contract": "contracts/PEPEuni.sol:PepeToken",
						"label": "_totalSupply",
						"offset": 0,
						"slot": "3",
						"type": "t_uint256"
					},
					{
						"astId": 246,
						"contract": "contracts/PEPEuni.sol:PepeToken",
						"label": "_name",
						"offset": 0,
						"slot": "4",
						"type": "t_string_storage"
					},
					{
						"astId": 248,
						"contract": "contracts/PEPEuni.sol:PepeToken",
						"label": "_symbol",
						"offset": 0,
						"slot": "5",
						"type": "t_string_storage"
					},
					{
						"astId": 773,
						"contract": "contracts/PEPEuni.sol:PepeToken",
						"label": "limited",
						"offset": 0,
						"slot": "6",
						"type": "t_bool"
					},
					{
						"astId": 775,
						"contract": "contracts/PEPEuni.sol:PepeToken",
						"label": "maxHoldingAmount",
						"offset": 0,
						"slot": "7",
						"type": "t_uint256"
					},
					{
						"astId": 777,
						"contract": "contracts/PEPEuni.sol:PepeToken",
						"label": "minHoldingAmount",
						"offset": 0,
						"slot": "8",
						"type": "t_uint256"
					},
					{
						"astId": 779,
						"contract": "contracts/PEPEuni.sol:PepeToken",
						"label": "uniswapV2Pair",
						"offset": 0,
						"slot": "9",
						"type": "t_address"
					},
					{
						"astId": 783,
						"contract": "contracts/PEPEuni.sol:PepeToken",
						"label": "blacklists",
						"offset": 0,
						"slot": "10",
						"type": "t_mapping(t_address,t_bool)"
					}
				],
				"types": {
					"t_address": {
						"encoding": "inplace",
						"label": "address",
						"numberOfBytes": "20"
					},
					"t_bool": {
						"encoding": "inplace",
						"label": "bool",
						"numberOfBytes": "1"
					},
					"t_mapping(t_address,t_bool)": {
						"encoding": "mapping",
						"key": "t_address",
						"label": "mapping(address => bool)",
						"numberOfBytes": "32",
						"value": "t_bool"
					},
					"t_mapping(t_address,t_mapping(t_address,t_uint256))": {
						"encoding": "mapping",
						"key": "t_address",
						"label": "mapping(address => mapping(address => uint256))",
						"numberOfBytes": "32",
						"value": "t_mapping(t_address,t_uint256)"
					},
					"t_mapping(t_address,t_uint256)": {
						"encoding": "mapping",
						"key": "t_address",
						"label": "mapping(address => uint256)",
						"numberOfBytes": "32",
						"value": "t_uint256"
					},
					"t_string_storage": {
						"encoding": "bytes",
						"label": "string",
						"numberOfBytes": "32"
					},
					"t_uint256": {
						"encoding": "inplace",
						"label": "uint256",
						"numberOfBytes": "32"
					}
				}
			},
			"userdoc": {
				"kind": "user",
				"methods": {},
				"version": 1
			}
		}
	}
}