{
	"contracts/shia.sol": {
		"SHIA": {
			"abi": [
				{
					"inputs": [],
					"stateMutability": "nonpayable",
					"type": "constructor"
				},
				{
					"anonymous": false,
					"inputs": [
						{
							"indexed": true,
							"internalType": "address",
							"name": "owner",
							"type": "address"
						},
						{
							"indexed": true,
							"internalType": "address",
							"name": "spender",
							"type": "address"
						},
						{
							"indexed": false,
							"internalType": "uint256",
							"name": "value",
							"type": "uint256"
						}
					],
					"name": "Approval",
					"type": "event"
				},
				{
					"anonymous": false,
					"inputs": [
						{
							"indexed": true,
							"internalType": "address",
							"name": "previousOwner",
							"type": "address"
						},
						{
							"indexed": true,
							"internalType": "address",
							"name": "newOwner",
							"type": "address"
						}
					],
					"name": "OwnershipTransferred",
					"type": "event"
				},
				{
					"anonymous": false,
					"inputs": [
						{
							"indexed": true,
							"internalType": "address",
							"name": "from",
							"type": "address"
						},
						{
							"indexed": true,
							"internalType": "address",
							"name": "to",
							"type": "address"
						},
						{
							"indexed": false,
							"internalType": "uint256",
							"name": "value",
							"type": "uint256"
						}
					],
					"name": "Transfer",
					"type": "event"
				},
				{
					"inputs": [],
					"name": "DEAD_WALLET",
					"outputs": [
						{
							"internalType": "address",
							"name": "",
							"type": "address"
						}
					],
					"stateMutability": "view",
					"type": "function"
				},
				{
					"inputs": [],
					"name": "_taxWallet",
					"outputs": [
						{
							"internalType": "address payable",
							"name": "",
							"type": "address"
						}
					],
					"stateMutability": "view",
					"type": "function"
				},
				{
					"inputs": [
						{
							"internalType": "address",
							"name": "owner",
							"type": "address"
						},
						{
							"internalType": "address",
							"name": "spender",
							"type": "address"
						}
					],
					"name": "allowance",
					"outputs": [
						{
							"internalType": "uint256",
							"name": "",
							"type": "uint256"
						}
					],
					"stateMutability": "view",
					"type": "function"
				},
				{
					"inputs": [
						{
							"internalType": "address",
							"name": "spender",
							"type": "address"
						},
						{
							"internalType": "uint256",
							"name": "amount",
							"type": "uint256"
						}
					],
					"name": "approve",
					"outputs": [
						{
							"internalType": "bool",
							"name": "",
							"type": "bool"
						}
					],
					"stateMutability": "nonpayable",
					"type": "function"
				},
				{
					"inputs": [
						{
							"internalType": "address",
							"name": "account",
							"type": "address"
						}
					],
					"name": "balanceOf",
					"outputs": [
						{
							"internalType": "uint256",
							"name": "",
							"type": "uint256"
						}
					],
					"stateMutability": "view",
					"type": "function"
				},
				{
					"inputs": [
						{
							"internalType": "uint256",
							"name": "value",
							"type": "uint256"
						}
					],
					"name": "burn",
					"outputs": [],
					"stateMutability": "nonpayable",
					"type": "function"
				},
				{
					"inputs": [],
					"name": "decimals",
					"outputs": [
						{
							"internalType": "uint8",
							"name": "",
							"type": "uint8"
						}
					],
					"stateMutability": "view",
					"type": "function"
				},
				{
					"inputs": [
						{
							"internalType": "address",
							"name": "spender",
							"type": "address"
						},
						{
							"internalType": "uint256",
							"name": "subtractedValue",
							"type": "uint256"
						}
					],
					"name": "decreaseAllowance",
					"outputs": [
						{
							"internalType": "bool",
							"name": "",
							"type": "bool"
						}
					],
					"stateMutability": "nonpayable",
					"type": "function"
				},
				{
					"inputs": [
						{
							"internalType": "address",
							"name": "spender",
							"type": "address"
						},
						{
							"internalType": "uint256",
							"name": "addedValue",
							"type": "uint256"
						}
					],
					"name": "increaseAllowance",
					"outputs": [
						{
							"internalType": "bool",
							"name": "",
							"type": "bool"
						}
					],
					"stateMutability": "nonpayable",
					"type": "function"
				},
				{
					"inputs": [],
					"name": "maxHoldingAmount",
					"outputs": [
						{
							"internalType": "uint256",
							"name": "",
							"type": "uint256"
						}
					],
					"stateMutability": "view",
					"type": "function"
				},
				{
					"inputs": [],
					"name": "maxTxAmount",
					"outputs": [
						{
							"internalType": "uint256",
							"name": "",
							"type": "uint256"
						}
					],
					"stateMutability": "view",
					"type": "function"
				},
				{
					"inputs": [],
					"name": "name",
					"outputs": [
						{
							"internalType": "string",
							"name": "",
							"type": "string"
						}
					],
					"stateMutability": "view",
					"type": "function"
				},
				{
					"inputs": [],
					"name": "owner",
					"outputs": [
						{
							"internalType": "address",
							"name": "",
							"type": "address"
						}
					],
					"stateMutability": "view",
					"type": "function"
				},
				{
					"inputs": [],
					"name": "renounceOwnership",
					"outputs": [],
					"stateMutability": "nonpayable",
					"type": "function"
				},
				{
					"inputs": [],
					"name": "symbol",
					"outputs": [
						{
							"internalType": "string",
							"name": "",
							"type": "string"
						}
					],
					"stateMutability": "view",
					"type": "function"
				},
				{
					"inputs": [],
					"name": "totalSupply",
					"outputs": [
						{
							"internalType": "uint256",
							"name": "",
							"type": "uint256"
						}
					],
					"stateMutability": "view",
					"type": "function"
				},
				{
					"inputs": [
						{
							"internalType": "address",
							"name": "recipient",
							"type": "address"
						},
						{
							"internalType": "uint256",
							"name": "amount",
							"type": "uint256"
						}
					],
					"name": "transfer",
					"outputs": [
						{
							"internalType": "bool",
							"name": "",
							"type": "bool"
						}
					],
					"stateMutability": "nonpayable",
					"type": "function"
				},
				{
					"inputs": [
						{
							"internalType": "address",
							"name": "sender",
							"type": "address"
						},
						{
							"internalType": "address",
							"name": "recipient",
							"type": "address"
						},
						{
							"internalType": "uint256",
							"name": "amount",
							"type": "uint256"
						}
					],
					"name": "transferFrom",
					"outputs": [
						{
							"internalType": "bool",
							"name": "",
							"type": "bool"
						}
					],
					"stateMutability": "nonpayable",
					"type": "function"
				},
				{
					"inputs": [
						{
							"internalType": "address",
							"name": "newOwner",
							"type": "address"
						}
					],
					"name": "transferOwnership",
					"outputs": [],
					"stateMutability": "nonpayable",
					"type": "function"
				},
				{
					"stateMutability": "payable",
					"type": "receive"
				}
			],
			"devdoc": {
				"kind": "dev",
				"methods": {
					"allowance(address,address)": {
						"details": "See {IERC20-allowance}."
					},
					"balanceOf(address)": {
						"details": "See {IERC20-balanceOf}."
					},
					"decimals()": {
						"details": "Returns the decimals places of the token."
					},
					"name()": {
						"details": "Returns the name of the token."
					},
					"owner()": {
						"details": "Returns the address of the current owner."
					},
					"symbol()": {
						"details": "Returns the symbol of the token, usually a shorter version of the name."
					},
					"totalSupply()": {
						"details": "See {IERC20-totalSupply}."
					},
					"transferOwnership(address)": {
						"details": "Transfers ownership of the contract to a new account (`newOwner`). Can only be called by the current owner."
					}
				},
				"version": 1
			},
			"evm": {
				"assembly": "    /* \"contracts/shia.sol\":8920:11643  contract SHIA is ERC20, Ownable {... */\n  mstore(0x40, 0x80)\n    /* \"contracts/shia.sol\":9243:9285  0x7a250d5630B4cF539739dF2C5dAcb4c659F2488D */\n  0x7a250d5630b4cf539739df2c5dacb4c659f2488d\n    /* \"contracts/shia.sol\":9201:9285  address private uniswapV2Router =... */\n  0x09\n  exp(0x0100, 0x00)\n  dup2\n  sload\n  dup2\n  0xffffffffffffffffffffffffffffffffffffffff\n  mul\n  not\n  and\n  swap1\n  dup4\n  0xffffffffffffffffffffffffffffffffffffffff\n  and\n  mul\n  or\n  swap1\n  sstore\n  pop\n    /* \"contracts/shia.sol\":9350:9355  false */\n  0x00\n    /* \"contracts/shia.sol\":9328:9355  bool private inSwap = false */\n  0x0a\n  exp(0x0100, 0x14)\n  dup2\n  sload\n  dup2\n  0xff\n  mul\n  not\n  and\n  swap1\n  dup4\n  iszero\n  iszero\n  mul\n  or\n  swap1\n  sstore\n  pop\n    /* \"contracts/shia.sol\":9456:9717  constructor() ERC20(unicode\"One Anon\", unicode\"$OAT\") {... */\n  callvalue\n  dup1\n  iszero\n  tag_1\n  jumpi\n  0x00\n  dup1\n  revert\ntag_1:\n  pop\n    /* \"contracts/shia.sol\":3992:4105  constructor(string memory name_, string memory symbol_) {... */\n  mload(0x40)\n  dup1\n  0x40\n  add\n  0x40\n  mstore\n  dup1\n  0x08\n  dup2\n  mstore\n  0x20\n  add\n  0x4f6e6520416e6f6e000000000000000000000000000000000000000000000000\n  dup2\n  mstore\n  pop\n  mload(0x40)\n  dup1\n  0x40\n  add\n  0x40\n  mstore\n  dup1\n  0x04\n  dup2\n  mstore\n  0x20\n  add\n  0x244f415400000000000000000000000000000000000000000000000000000000\n  dup2\n  mstore\n  pop\n    /* \"contracts/shia.sol\":4066:4071  name_ */\n  dup2\n    /* \"contracts/shia.sol\":4058:4063  _name */\n  0x03\n    /* \"contracts/shia.sol\":4058:4071  _name = name_ */\n  swap1\n  dup2\n  tag_6\n  swap2\n  swap1\n  tag_7\n  jump\t// in\ntag_6:\n  pop\n    /* \"contracts/shia.sol\":4091:4098  symbol_ */\n  dup1\n    /* \"contracts/shia.sol\":4081:4088  _symbol */\n  0x04\n    /* \"contracts/shia.sol\":4081:4098  _symbol = symbol_ */\n  swap1\n  dup2\n  tag_8\n  swap2\n  swap1\n  tag_7\n  jump\t// in\ntag_8:\n  pop\n    /* \"contracts/shia.sol\":3992:4105  constructor(string memory name_, string memory symbol_) {... */\n  pop\n  pop\n    /* \"contracts/shia.sol\":865:882  address msgSender */\n  0x00\n    /* \"contracts/shia.sol\":885:897  _msgSender() */\n  tag_10\n    /* \"contracts/shia.sol\":885:895  _msgSender */\n  shl(0x20, tag_11)\n    /* \"contracts/shia.sol\":885:897  _msgSender() */\n  0x20\n  shr\n  jump\t// in\ntag_10:\n    /* \"contracts/shia.sol\":865:897  address msgSender = _msgSender() */\n  swap1\n  pop\n    /* \"contracts/shia.sol\":916:925  msgSender */\n  dup1\n    /* \"contracts/shia.sol\":907:913  _owner */\n  0x05\n  0x00\n    /* \"contracts/shia.sol\":907:925  _owner = msgSender */\n  0x0100\n  exp\n  dup2\n  sload\n  dup2\n  0xffffffffffffffffffffffffffffffffffffffff\n  mul\n  not\n  and\n  swap1\n  dup4\n  0xffffffffffffffffffffffffffffffffffffffff\n  and\n  mul\n  or\n  swap1\n  sstore\n  pop\n    /* \"contracts/shia.sol\":973:982  msgSender */\n  dup1\n    /* \"contracts/shia.sol\":940:983  OwnershipTransferred(address(0), msgSender) */\n  0xffffffffffffffffffffffffffffffffffffffff\n  and\n    /* \"contracts/shia.sol\":969:970  0 */\n  0x00\n    /* \"contracts/shia.sol\":940:983  OwnershipTransferred(address(0), msgSender) */\n  0xffffffffffffffffffffffffffffffffffffffff\n  and\n  0x8be0079c531659141344cd1fd0a4f28419497f9722a3daafe3b4186f6b6457e0\n  mload(0x40)\n  mload(0x40)\n  dup1\n  swap2\n  sub\n  swap1\n  log3\n    /* \"contracts/shia.sol\":855:990  {... */\n  pop\n    /* \"contracts/shia.sol\":9520:9565  _mint(msg.sender, 100000000 * 10**decimals()) */\n  tag_13\n    /* \"contracts/shia.sol\":9526:9536  msg.sender */\n  caller\n    /* \"contracts/shia.sol\":9554:9564  decimals() */\n  tag_14\n    /* \"contracts/shia.sol\":9554:9562  decimals */\n  shl(0x20, tag_15)\n    /* \"contracts/shia.sol\":9554:9564  decimals() */\n  0x20\n  shr\n  jump\t// in\ntag_14:\n    /* \"contracts/shia.sol\":9550:9552  10 */\n  0x0a\n    /* \"contracts/shia.sol\":9550:9564  10**decimals() */\n  tag_16\n  swap2\n  swap1\n  tag_17\n  jump\t// in\ntag_16:\n    /* \"contracts/shia.sol\":9538:9547  100000000 */\n  0x05f5e100\n    /* \"contracts/shia.sol\":9538:9564  100000000 * 10**decimals() */\n  tag_18\n  swap2\n  swap1\n  tag_19\n  jump\t// in\ntag_18:\n    /* \"contracts/shia.sol\":9520:9525  _mint */\n  shl(0x20, tag_20)\n    /* \"contracts/shia.sol\":9520:9565  _mint(msg.sender, 100000000 * 10**decimals()) */\n  0x20\n  shr\n  jump\t// in\ntag_13:\n    /* \"contracts/shia.sol\":9603:9613  decimals() */\n  tag_21\n    /* \"contracts/shia.sol\":9603:9611  decimals */\n  shl(0x20, tag_15)\n    /* \"contracts/shia.sol\":9603:9613  decimals() */\n  0x20\n  shr\n  jump\t// in\ntag_21:\n    /* \"contracts/shia.sol\":9599:9601  10 */\n  0x0a\n    /* \"contracts/shia.sol\":9599:9613  10**decimals() */\n  tag_22\n  swap2\n  swap1\n  tag_17\n  jump\t// in\ntag_22:\n    /* \"contracts/shia.sol\":9589:9596  1000000 */\n  0x0f4240\n    /* \"contracts/shia.sol\":9589:9613  1000000 * 10**decimals() */\n  tag_23\n  swap2\n  swap1\n  tag_19\n  jump\t// in\ntag_23:\n    /* \"contracts/shia.sol\":9575:9586  maxTxAmount */\n  0x07\n    /* \"contracts/shia.sol\":9575:9613  maxTxAmount = 1000000 * 10**decimals() */\n  dup2\n  swap1\n  sstore\n  pop\n    /* \"contracts/shia.sol\":9656:9666  decimals() */\n  tag_24\n    /* \"contracts/shia.sol\":9656:9664  decimals */\n  shl(0x20, tag_15)\n    /* \"contracts/shia.sol\":9656:9666  decimals() */\n  0x20\n  shr\n  jump\t// in\ntag_24:\n    /* \"contracts/shia.sol\":9652:9654  10 */\n  0x0a\n    /* \"contracts/shia.sol\":9652:9666  10**decimals() */\n  tag_25\n  swap2\n  swap1\n  tag_17\n  jump\t// in\ntag_25:\n    /* \"contracts/shia.sol\":9642:9649  1000000 */\n  0x0f4240\n    /* \"contracts/shia.sol\":9642:9666  1000000 * 10**decimals() */\n  tag_26\n  swap2\n  swap1\n  tag_19\n  jump\t// in\ntag_26:\n    /* \"contracts/shia.sol\":9623:9639  maxHoldingAmount */\n  0x06\n    /* \"contracts/shia.sol\":9623:9666  maxHoldingAmount = 1000000 * 10**decimals() */\n  dup2\n  swap1\n  sstore\n  pop\n    /* \"contracts/shia.sol\":9697:9709  _msgSender() */\n  tag_27\n    /* \"contracts/shia.sol\":9697:9707  _msgSender */\n  shl(0x20, tag_11)\n    /* \"contracts/shia.sol\":9697:9709  _msgSender() */\n  0x20\n  shr\n  jump\t// in\ntag_27:\n    /* \"contracts/shia.sol\":9676:9686  _taxWallet */\n  0x08\n  0x00\n    /* \"contracts/shia.sol\":9676:9710  _taxWallet = payable(_msgSender()) */\n  0x0100\n  exp\n  dup2\n  sload\n  dup2\n  0xffffffffffffffffffffffffffffffffffffffff\n  mul\n  not\n  and\n  swap1\n  dup4\n  0xffffffffffffffffffffffffffffffffffffffff\n  and\n  mul\n  or\n  swap1\n  sstore\n  pop\n    /* \"contracts/shia.sol\":8920:11643  contract SHIA is ERC20, Ownable {... */\n  jump(tag_28)\n    /* \"contracts/shia.sol\":144:240  function _msgSender() internal view virtual returns (address) {... */\ntag_11:\n    /* \"contracts/shia.sol\":197:204  address */\n  0x00\n    /* \"contracts/shia.sol\":223:233  msg.sender */\n  caller\n    /* \"contracts/shia.sol\":216:233  return msg.sender */\n  swap1\n  pop\n    /* \"contracts/shia.sol\":144:240  function _msgSender() internal view virtual returns (address) {... */\n  swap1\n  jump\t// out\n    /* \"contracts/shia.sol\":4490:4581  function decimals() public view virtual override returns (uint8) {... */\ntag_15:\n    /* \"contracts/shia.sol\":4548:4553  uint8 */\n  0x00\n    /* \"contracts/shia.sol\":4572:4574  18 */\n  0x12\n    /* \"contracts/shia.sol\":4565:4574  return 18 */\n  swap1\n  pop\n    /* \"contracts/shia.sol\":4490:4581  function decimals() public view virtual override returns (uint8) {... */\n  swap1\n  jump\t// out\n    /* \"contracts/shia.sol\":7537:7867  function _mint(address account, uint256 amount) internal virtual {... */\ntag_20:\n    /* \"contracts/shia.sol\":7639:7640  0 */\n  0x00\n    /* \"contracts/shia.sol\":7620:7641  account != address(0) */\n  0xffffffffffffffffffffffffffffffffffffffff\n  and\n    /* \"contracts/shia.sol\":7620:7627  account */\n  dup3\n    /* \"contracts/shia.sol\":7620:7641  account != address(0) */\n  0xffffffffffffffffffffffffffffffffffffffff\n  and\n  sub\n    /* \"contracts/shia.sol\":7612:7677  require(account != address(0), \"ERC20: mint to the zero address\") */\n  tag_32\n  jumpi\n  mload(0x40)\n  0x08c379a000000000000000000000000000000000000000000000000000000000\n  dup2\n  mstore\n  0x04\n  add\n  tag_33\n  swap1\n  tag_34\n  jump\t// in\ntag_33:\n  mload(0x40)\n  dup1\n  swap2\n  sub\n  swap1\n  revert\ntag_32:\n    /* \"contracts/shia.sol\":7688:7737  _beforeTokenTransfer(address(0), account, amount) */\n  tag_35\n    /* \"contracts/shia.sol\":7717:7718  0 */\n  0x00\n    /* \"contracts/shia.sol\":7721:7728  account */\n  dup4\n    /* \"contracts/shia.sol\":7730:7736  amount */\n  dup4\n    /* \"contracts/shia.sol\":7688:7708  _beforeTokenTransfer */\n  shl(0x20, tag_36)\n    /* \"contracts/shia.sol\":7688:7737  _beforeTokenTransfer(address(0), account, amount) */\n  0x20\n  shr\n  jump\t// in\ntag_35:\n    /* \"contracts/shia.sol\":7764:7770  amount */\n  dup1\n    /* \"contracts/shia.sol\":7748:7760  _totalSupply */\n  0x02\n  0x00\n    /* \"contracts/shia.sol\":7748:7770  _totalSupply += amount */\n  dup3\n  dup3\n  sload\n  tag_37\n  swap2\n  swap1\n  tag_38\n  jump\t// in\ntag_37:\n  swap3\n  pop\n  pop\n  dup2\n  swap1\n  sstore\n  pop\n    /* \"contracts/shia.sol\":7802:7808  amount */\n  dup1\n    /* \"contracts/shia.sol\":7780:7789  _balances */\n  0x00\n    /* \"contracts/shia.sol\":7780:7798  _balances[account] */\n  dup1\n    /* \"contracts/shia.sol\":7790:7797  account */\n  dup5\n    /* \"contracts/shia.sol\":7780:7798  _balances[account] */\n  0xffffffffffffffffffffffffffffffffffffffff\n  and\n  0xffffffffffffffffffffffffffffffffffffffff\n  and\n  dup2\n  mstore\n  0x20\n  add\n  swap1\n  dup2\n  mstore\n  0x20\n  add\n  0x00\n  keccak256\n  0x00\n    /* \"contracts/shia.sol\":7780:7808  _balances[account] += amount */\n  dup3\n  dup3\n  sload\n  tag_39\n  swap2\n  swap1\n  tag_38\n  jump\t// in\ntag_39:\n  swap3\n  pop\n  pop\n  dup2\n  swap1\n  sstore\n  pop\n    /* \"contracts/shia.sol\":7844:7851  account */\n  dup2\n    /* \"contracts/shia.sol\":7823:7860  Transfer(address(0), account, amount) */\n  0xffffffffffffffffffffffffffffffffffffffff\n  and\n    /* \"contracts/shia.sol\":7840:7841  0 */\n  0x00\n    /* \"contracts/shia.sol\":7823:7860  Transfer(address(0), account, amount) */\n  0xffffffffffffffffffffffffffffffffffffffff\n  and\n  0xddf252ad1be2c89b69c2b068fc378daa952ba7f163c4a11628f55a4df523b3ef\n    /* \"contracts/shia.sol\":7853:7859  amount */\n  dup4\n    /* \"contracts/shia.sol\":7823:7860  Transfer(address(0), account, amount) */\n  mload(0x40)\n  tag_40\n  swap2\n  swap1\n  tag_41\n  jump\t// in\ntag_40:\n  mload(0x40)\n  dup1\n  swap2\n  sub\n  swap1\n  log3\n    /* \"contracts/shia.sol\":7537:7867  function _mint(address account, uint256 amount) internal virtual {... */\n  pop\n  pop\n  jump\t// out\n    /* \"contracts/shia.sol\":9723:11425  function _beforeTokenTransfer(... */\ntag_36:\n    /* \"contracts/shia.sol\":9861:9878  uint256 taxAmount */\n  0x00\n    /* \"contracts/shia.sol\":9918:9925  owner() */\n  tag_43\n    /* \"contracts/shia.sol\":9918:9923  owner */\n  shl(0x20, tag_44)\n    /* \"contracts/shia.sol\":9918:9925  owner() */\n  0x20\n  shr\n  jump\t// in\ntag_43:\n    /* \"contracts/shia.sol\":9910:9925  from != owner() */\n  0xffffffffffffffffffffffffffffffffffffffff\n  and\n    /* \"contracts/shia.sol\":9910:9914  from */\n  dup5\n    /* \"contracts/shia.sol\":9910:9925  from != owner() */\n  0xffffffffffffffffffffffffffffffffffffffff\n  and\n  eq\n  iszero\n    /* \"contracts/shia.sol\":9910:9954  from != owner() &&... */\n  dup1\n  iszero\n  tag_45\n  jumpi\n  pop\n    /* \"contracts/shia.sol\":9947:9954  owner() */\n  tag_46\n    /* \"contracts/shia.sol\":9947:9952  owner */\n  shl(0x20, tag_44)\n    /* \"contracts/shia.sol\":9947:9954  owner() */\n  0x20\n  shr\n  jump\t// in\ntag_46:\n    /* \"contracts/shia.sol\":9941:9954  to != owner() */\n  0xffffffffffffffffffffffffffffffffffffffff\n  and\n    /* \"contracts/shia.sol\":9941:9943  to */\n  dup4\n    /* \"contracts/shia.sol\":9941:9954  to != owner() */\n  0xffffffffffffffffffffffffffffffffffffffff\n  and\n  eq\n  iszero\n    /* \"contracts/shia.sol\":9910:9954  from != owner() &&... */\ntag_45:\n    /* \"contracts/shia.sol\":9910:10000  from != owner() &&... */\n  dup1\n  iszero\n  tag_47\n  jumpi\n  pop\n    /* \"contracts/shia.sol\":9984:9999  uniswapV2Router */\n  0x09\n  0x00\n  swap1\n  sload\n  swap1\n  0x0100\n  exp\n  swap1\n  div\n  0xffffffffffffffffffffffffffffffffffffffff\n  and\n    /* \"contracts/shia.sol\":9970:10000  to != address(uniswapV2Router) */\n  0xffffffffffffffffffffffffffffffffffffffff\n  and\n    /* \"contracts/shia.sol\":9970:9972  to */\n  dup4\n    /* \"contracts/shia.sol\":9970:10000  to != address(uniswapV2Router) */\n  0xffffffffffffffffffffffffffffffffffffffff\n  and\n  eq\n  iszero\n    /* \"contracts/shia.sol\":9910:10000  from != owner() &&... */\ntag_47:\n    /* \"contracts/shia.sol\":9910:10048  from != owner() &&... */\n  dup1\n  iszero\n  tag_48\n  jumpi\n  pop\n    /* \"contracts/shia.sol\":10032:10047  uniswapV2Router */\n  0x09\n  0x00\n  swap1\n  sload\n  swap1\n  0x0100\n  exp\n  swap1\n  div\n  0xffffffffffffffffffffffffffffffffffffffff\n  and\n    /* \"contracts/shia.sol\":10016:10048  from != address(uniswapV2Router) */\n  0xffffffffffffffffffffffffffffffffffffffff\n  and\n    /* \"contracts/shia.sol\":10016:10020  from */\n  dup5\n    /* \"contracts/shia.sol\":10016:10048  from != address(uniswapV2Router) */\n  0xffffffffffffffffffffffffffffffffffffffff\n  and\n  eq\n  iszero\n    /* \"contracts/shia.sol\":9910:10048  from != owner() &&... */\ntag_48:\n    /* \"contracts/shia.sol\":9910:10080  from != owner() &&... */\n  dup1\n  iszero\n  tag_49\n  jumpi\n  pop\n    /* \"contracts/shia.sol\":10070:10080  _taxWallet */\n  0x08\n  0x00\n  swap1\n  sload\n  swap1\n  0x0100\n  exp\n  swap1\n  div\n  0xffffffffffffffffffffffffffffffffffffffff\n  and\n    /* \"contracts/shia.sol\":10064:10080  to != _taxWallet */\n  0xffffffffffffffffffffffffffffffffffffffff\n  and\n    /* \"contracts/shia.sol\":10064:10066  to */\n  dup4\n    /* \"contracts/shia.sol\":10064:10080  to != _taxWallet */\n  0xffffffffffffffffffffffffffffffffffffffff\n  and\n  eq\n  iszero\n    /* \"contracts/shia.sol\":9910:10080  from != owner() &&... */\ntag_49:\n    /* \"contracts/shia.sol\":9910:10114  from != owner() &&... */\n  dup1\n  iszero\n  tag_50\n  jumpi\n  pop\n    /* \"contracts/shia.sol\":10104:10114  _taxWallet */\n  0x08\n  0x00\n  swap1\n  sload\n  swap1\n  0x0100\n  exp\n  swap1\n  div\n  0xffffffffffffffffffffffffffffffffffffffff\n  and\n    /* \"contracts/shia.sol\":10096:10114  from != _taxWallet */\n  0xffffffffffffffffffffffffffffffffffffffff\n  and\n    /* \"contracts/shia.sol\":10096:10100  from */\n  dup5\n    /* \"contracts/shia.sol\":10096:10114  from != _taxWallet */\n  0xffffffffffffffffffffffffffffffffffffffff\n  and\n  eq\n  iszero\n    /* \"contracts/shia.sol\":9910:10114  from != owner() &&... */\ntag_50:\n    /* \"contracts/shia.sol\":9910:10147  from != owner() &&... */\n  dup1\n  iszero\n  tag_51\n  jumpi\n  pop\n    /* \"contracts/shia.sol\":9153:9195  0x000000000000000000000000000000000000dEaD */\n  0xdead\n    /* \"contracts/shia.sol\":10130:10147  to != DEAD_WALLET */\n  0xffffffffffffffffffffffffffffffffffffffff\n  and\n    /* \"contracts/shia.sol\":10130:10132  to */\n  dup4\n    /* \"contracts/shia.sol\":10130:10147  to != DEAD_WALLET */\n  0xffffffffffffffffffffffffffffffffffffffff\n  and\n  eq\n  iszero\n    /* \"contracts/shia.sol\":9910:10147  from != owner() &&... */\ntag_51:\n    /* \"contracts/shia.sol\":9910:10182  from != owner() &&... */\n  dup1\n  iszero\n  tag_52\n  jumpi\n  pop\n    /* \"contracts/shia.sol\":10169:10182  uniswapV2Pair */\n  0x0a\n  0x00\n  swap1\n  sload\n  swap1\n  0x0100\n  exp\n  swap1\n  div\n  0xffffffffffffffffffffffffffffffffffffffff\n  and\n    /* \"contracts/shia.sol\":10163:10182  to != uniswapV2Pair */\n  0xffffffffffffffffffffffffffffffffffffffff\n  and\n    /* \"contracts/shia.sol\":10163:10165  to */\n  dup4\n    /* \"contracts/shia.sol\":10163:10182  to != uniswapV2Pair */\n  0xffffffffffffffffffffffffffffffffffffffff\n  and\n  eq\n  iszero\n    /* \"contracts/shia.sol\":9910:10182  from != owner() &&... */\ntag_52:\n    /* \"contracts/shia.sol\":9910:10219  from != owner() &&... */\n  dup1\n  iszero\n  tag_53\n  jumpi\n  pop\n    /* \"contracts/shia.sol\":10206:10219  uniswapV2Pair */\n  0x0a\n  0x00\n  swap1\n  sload\n  swap1\n  0x0100\n  exp\n  swap1\n  div\n  0xffffffffffffffffffffffffffffffffffffffff\n  and\n    /* \"contracts/shia.sol\":10198:10219  from != uniswapV2Pair */\n  0xffffffffffffffffffffffffffffffffffffffff\n  and\n    /* \"contracts/shia.sol\":10198:10202  from */\n  dup5\n    /* \"contracts/shia.sol\":10198:10219  from != uniswapV2Pair */\n  0xffffffffffffffffffffffffffffffffffffffff\n  and\n  eq\n  iszero\n    /* \"contracts/shia.sol\":9910:10219  from != owner() &&... */\ntag_53:\n    /* \"contracts/shia.sol\":9893:10346  if (... */\n  iszero\n  tag_54\n  jumpi\n    /* \"contracts/shia.sol\":10284:10300  maxHoldingAmount */\n  sload(0x06)\n    /* \"contracts/shia.sol\":10274:10280  amount */\n  dup3\n    /* \"contracts/shia.sol\":10252:10271  super.balanceOf(to) */\n  tag_55\n    /* \"contracts/shia.sol\":10268:10270  to */\n  dup6\n    /* \"contracts/shia.sol\":10252:10267  super.balanceOf */\n  shl(0x20, tag_56)\n    /* \"contracts/shia.sol\":10252:10271  super.balanceOf(to) */\n  0x20\n  shr\n  jump\t// in\ntag_55:\n    /* \"contracts/shia.sol\":10252:10280  super.balanceOf(to) + amount */\n  tag_57\n  swap2\n  swap1\n  tag_38\n  jump\t// in\ntag_57:\n    /* \"contracts/shia.sol\":10252:10300  super.balanceOf(to) + amount <= maxHoldingAmount */\n  gt\n  iszero\n    /* \"contracts/shia.sol\":10244:10334  require(super.balanceOf(to) + amount <= maxHoldingAmount, \"Max wallet cannot be exceeded\") */\n  tag_58\n  jumpi\n  mload(0x40)\n  0x08c379a000000000000000000000000000000000000000000000000000000000\n  dup2\n  mstore\n  0x04\n  add\n  tag_59\n  swap1\n  tag_60\n  jump\t// in\ntag_59:\n  mload(0x40)\n  dup1\n  swap2\n  sub\n  swap1\n  revert\ntag_58:\n    /* \"contracts/shia.sol\":9893:10346  if (... */\ntag_54:\n    /* \"contracts/shia.sol\":10367:10380  uniswapV2Pair */\n  0x0a\n  0x00\n  swap1\n  sload\n  swap1\n  0x0100\n  exp\n  swap1\n  div\n  0xffffffffffffffffffffffffffffffffffffffff\n  and\n    /* \"contracts/shia.sol\":10361:10380  to == uniswapV2Pair */\n  0xffffffffffffffffffffffffffffffffffffffff\n  and\n    /* \"contracts/shia.sol\":10361:10363  to */\n  dup4\n    /* \"contracts/shia.sol\":10361:10380  to == uniswapV2Pair */\n  0xffffffffffffffffffffffffffffffffffffffff\n  and\n  eq\n    /* \"contracts/shia.sol\":10361:10414  to == uniswapV2Pair && to == address(uniswapV2Router) */\n  dup1\n  iszero\n  tag_61\n  jumpi\n  pop\n    /* \"contracts/shia.sol\":10398:10413  uniswapV2Router */\n  0x09\n  0x00\n  swap1\n  sload\n  swap1\n  0x0100\n  exp\n  swap1\n  div\n  0xffffffffffffffffffffffffffffffffffffffff\n  and\n    /* \"contracts/shia.sol\":10384:10414  to == address(uniswapV2Router) */\n  0xffffffffffffffffffffffffffffffffffffffff\n  and\n    /* \"contracts/shia.sol\":10384:10386  to */\n  dup4\n    /* \"contracts/shia.sol\":10384:10414  to == address(uniswapV2Router) */\n  0xffffffffffffffffffffffffffffffffffffffff\n  and\n  eq\n    /* \"contracts/shia.sol\":10361:10414  to == uniswapV2Pair && to == address(uniswapV2Router) */\ntag_61:\n    /* \"contracts/shia.sol\":10361:10439  to == uniswapV2Pair && to == address(uniswapV2Router) && from != address(this) */\n  dup1\n  iszero\n  tag_62\n  jumpi\n  pop\n    /* \"contracts/shia.sol\":10434:10438  this */\n  address\n    /* \"contracts/shia.sol\":10418:10439  from != address(this) */\n  0xffffffffffffffffffffffffffffffffffffffff\n  and\n    /* \"contracts/shia.sol\":10418:10422  from */\n  dup5\n    /* \"contracts/shia.sol\":10418:10439  from != address(this) */\n  0xffffffffffffffffffffffffffffffffffffffff\n  and\n  eq\n  iszero\n    /* \"contracts/shia.sol\":10361:10439  to == uniswapV2Pair && to == address(uniswapV2Router) && from != address(this) */\ntag_62:\n    /* \"contracts/shia.sol\":10361:10470  to == uniswapV2Pair && to == address(uniswapV2Router) && from != address(this) &&... */\n  dup1\n  iszero\n  tag_63\n  jumpi\n  pop\n    /* \"contracts/shia.sol\":10463:10470  owner() */\n  tag_64\n    /* \"contracts/shia.sol\":10463:10468  owner */\n  shl(0x20, tag_44)\n    /* \"contracts/shia.sol\":10463:10470  owner() */\n  0x20\n  shr\n  jump\t// in\ntag_64:\n    /* \"contracts/shia.sol\":10455:10470  from != owner() */\n  0xffffffffffffffffffffffffffffffffffffffff\n  and\n    /* \"contracts/shia.sol\":10455:10459  from */\n  dup5\n    /* \"contracts/shia.sol\":10455:10470  from != owner() */\n  0xffffffffffffffffffffffffffffffffffffffff\n  and\n  eq\n  iszero\n    /* \"contracts/shia.sol\":10361:10470  to == uniswapV2Pair && to == address(uniswapV2Router) && from != address(this) &&... */\ntag_63:\n    /* \"contracts/shia.sol\":10361:10492  to == uniswapV2Pair && to == address(uniswapV2Router) && from != address(this) &&... */\n  dup1\n  iszero\n  tag_65\n  jumpi\n  pop\n    /* \"contracts/shia.sol\":10482:10492  _taxWallet */\n  0x08\n  0x00\n  swap1\n  sload\n  swap1\n  0x0100\n  exp\n  swap1\n  div\n  0xffffffffffffffffffffffffffffffffffffffff\n  and\n    /* \"contracts/shia.sol\":10474:10492  from != _taxWallet */\n  0xffffffffffffffffffffffffffffffffffffffff\n  and\n    /* \"contracts/shia.sol\":10474:10478  from */\n  dup5\n    /* \"contracts/shia.sol\":10474:10492  from != _taxWallet */\n  0xffffffffffffffffffffffffffffffffffffffff\n  and\n  eq\n  iszero\n    /* \"contracts/shia.sol\":10361:10492  to == uniswapV2Pair && to == address(uniswapV2Router) && from != address(this) &&... */\ntag_65:\n    /* \"contracts/shia.sol\":10357:10564  if (to == uniswapV2Pair && to == address(uniswapV2Router) && from != address(this) &&... */\n  iszero\n  tag_66\n  jumpi\n    /* \"contracts/shia.sol\":10545:10548  100 */\n  0x64\n    /* \"contracts/shia.sol\":9100:9101  1 */\n  0x01\n    /* \"contracts/shia.sol\":10525:10531  amount */\n  dup4\n    /* \"contracts/shia.sol\":10525:10540  amount * _oaTax */\n  tag_67\n  swap2\n  swap1\n  tag_19\n  jump\t// in\ntag_67:\n    /* \"contracts/shia.sol\":10524:10549  (amount * _oaTax) / (100) */\n  tag_68\n  swap2\n  swap1\n  tag_69\n  jump\t// in\ntag_68:\n    /* \"contracts/shia.sol\":10512:10549  taxAmount = (amount * _oaTax) / (100) */\n  swap1\n  pop\n    /* \"contracts/shia.sol\":10357:10564  if (to == uniswapV2Pair && to == address(uniswapV2Router) && from != address(this) &&... */\ntag_66:\n    /* \"contracts/shia.sol\":10591:10604  uniswapV2Pair */\n  0x0a\n  0x00\n  swap1\n  sload\n  swap1\n  0x0100\n  exp\n  swap1\n  div\n  0xffffffffffffffffffffffffffffffffffffffff\n  and\n    /* \"contracts/shia.sol\":10583:10604  from == uniswapV2Pair */\n  0xffffffffffffffffffffffffffffffffffffffff\n  and\n    /* \"contracts/shia.sol\":10583:10587  from */\n  dup5\n    /* \"contracts/shia.sol\":10583:10604  from == uniswapV2Pair */\n  0xffffffffffffffffffffffffffffffffffffffff\n  and\n  eq\n    /* \"contracts/shia.sol\":10583:10640  from == uniswapV2Pair && from == address(uniswapV2Router) */\n  dup1\n  iszero\n  tag_70\n  jumpi\n  pop\n    /* \"contracts/shia.sol\":10624:10639  uniswapV2Router */\n  0x09\n  0x00\n  swap1\n  sload\n  swap1\n  0x0100\n  exp\n  swap1\n  div\n  0xffffffffffffffffffffffffffffffffffffffff\n  and\n    /* \"contracts/shia.sol\":10608:10640  from == address(uniswapV2Router) */\n  0xffffffffffffffffffffffffffffffffffffffff\n  and\n    /* \"contracts/shia.sol\":10608:10612  from */\n  dup5\n    /* \"contracts/shia.sol\":10608:10640  from == address(uniswapV2Router) */\n  0xffffffffffffffffffffffffffffffffffffffff\n  and\n  eq\n    /* \"contracts/shia.sol\":10583:10640  from == uniswapV2Pair && from == address(uniswapV2Router) */\ntag_70:\n    /* \"contracts/shia.sol\":10583:10663  from == uniswapV2Pair && from == address(uniswapV2Router) && to != address(this) */\n  dup1\n  iszero\n  tag_71\n  jumpi\n  pop\n    /* \"contracts/shia.sol\":10658:10662  this */\n  address\n    /* \"contracts/shia.sol\":10644:10663  to != address(this) */\n  0xffffffffffffffffffffffffffffffffffffffff\n  and\n    /* \"contracts/shia.sol\":10644:10646  to */\n  dup4\n    /* \"contracts/shia.sol\":10644:10663  to != address(this) */\n  0xffffffffffffffffffffffffffffffffffffffff\n  and\n  eq\n  iszero\n    /* \"contracts/shia.sol\":10583:10663  from == uniswapV2Pair && from == address(uniswapV2Router) && to != address(this) */\ntag_71:\n    /* \"contracts/shia.sol\":10583:10693  from == uniswapV2Pair && from == address(uniswapV2Router) && to != address(this)... */\n  dup1\n  iszero\n  tag_72\n  jumpi\n  pop\n    /* \"contracts/shia.sol\":10686:10693  owner() */\n  tag_73\n    /* \"contracts/shia.sol\":10686:10691  owner */\n  shl(0x20, tag_44)\n    /* \"contracts/shia.sol\":10686:10693  owner() */\n  0x20\n  shr\n  jump\t// in\ntag_73:\n    /* \"contracts/shia.sol\":10680:10693  to != owner() */\n  0xffffffffffffffffffffffffffffffffffffffff\n  and\n    /* \"contracts/shia.sol\":10680:10682  to */\n  dup4\n    /* \"contracts/shia.sol\":10680:10693  to != owner() */\n  0xffffffffffffffffffffffffffffffffffffffff\n  and\n  eq\n  iszero\n    /* \"contracts/shia.sol\":10583:10693  from == uniswapV2Pair && from == address(uniswapV2Router) && to != address(this)... */\ntag_72:\n    /* \"contracts/shia.sol\":10583:10713  from == uniswapV2Pair && from == address(uniswapV2Router) && to != address(this)... */\n  dup1\n  iszero\n  tag_74\n  jumpi\n  pop\n    /* \"contracts/shia.sol\":10703:10713  _taxWallet */\n  0x08\n  0x00\n  swap1\n  sload\n  swap1\n  0x0100\n  exp\n  swap1\n  div\n  0xffffffffffffffffffffffffffffffffffffffff\n  and\n    /* \"contracts/shia.sol\":10697:10713  to != _taxWallet */\n  0xffffffffffffffffffffffffffffffffffffffff\n  and\n    /* \"contracts/shia.sol\":10697:10699  to */\n  dup4\n    /* \"contracts/shia.sol\":10697:10713  to != _taxWallet */\n  0xffffffffffffffffffffffffffffffffffffffff\n  and\n  eq\n  iszero\n    /* \"contracts/shia.sol\":10583:10713  from == uniswapV2Pair && from == address(uniswapV2Router) && to != address(this)... */\ntag_74:\n    /* \"contracts/shia.sol\":10579:10785  if (from == uniswapV2Pair && from == address(uniswapV2Router) && to != address(this)... */\n  iszero\n  tag_75\n  jumpi\n    /* \"contracts/shia.sol\":10766:10769  100 */\n  0x64\n    /* \"contracts/shia.sol\":9100:9101  1 */\n  0x01\n    /* \"contracts/shia.sol\":10746:10752  amount */\n  dup4\n    /* \"contracts/shia.sol\":10746:10761  amount * _oaTax */\n  tag_76\n  swap2\n  swap1\n  tag_19\n  jump\t// in\ntag_76:\n    /* \"contracts/shia.sol\":10745:10770  (amount * _oaTax) / (100) */\n  tag_77\n  swap2\n  swap1\n  tag_69\n  jump\t// in\ntag_77:\n    /* \"contracts/shia.sol\":10733:10770  taxAmount = (amount * _oaTax) / (100) */\n  swap1\n  pop\n    /* \"contracts/shia.sol\":10579:10785  if (from == uniswapV2Pair && from == address(uniswapV2Router) && to != address(this)... */\ntag_75:\n    /* \"contracts/shia.sol\":10826:10827  0 */\n  0x00\n    /* \"contracts/shia.sol\":10812:10823  maxTxAmount */\n  sload(0x07)\n    /* \"contracts/shia.sol\":10812:10827  maxTxAmount > 0 */\n  gt\n    /* \"contracts/shia.sol\":10812:10858  maxTxAmount > 0 &&... */\n  dup1\n  iszero\n  tag_78\n  jumpi\n  pop\n    /* \"contracts/shia.sol\":10851:10858  owner() */\n  tag_79\n    /* \"contracts/shia.sol\":10851:10856  owner */\n  shl(0x20, tag_44)\n    /* \"contracts/shia.sol\":10851:10858  owner() */\n  0x20\n  shr\n  jump\t// in\ntag_79:\n    /* \"contracts/shia.sol\":10843:10858  from != owner() */\n  0xffffffffffffffffffffffffffffffffffffffff\n  and\n    /* \"contracts/shia.sol\":10843:10847  from */\n  dup5\n    /* \"contracts/shia.sol\":10843:10858  from != owner() */\n  0xffffffffffffffffffffffffffffffffffffffff\n  and\n  eq\n  iszero\n    /* \"contracts/shia.sol\":10812:10858  maxTxAmount > 0 &&... */\ntag_78:\n    /* \"contracts/shia.sol\":10812:10887  maxTxAmount > 0 &&... */\n  dup1\n  iszero\n  tag_80\n  jumpi\n  pop\n    /* \"contracts/shia.sol\":10880:10887  owner() */\n  tag_81\n    /* \"contracts/shia.sol\":10880:10885  owner */\n  shl(0x20, tag_44)\n    /* \"contracts/shia.sol\":10880:10887  owner() */\n  0x20\n  shr\n  jump\t// in\ntag_81:\n    /* \"contracts/shia.sol\":10874:10887  to != owner() */\n  0xffffffffffffffffffffffffffffffffffffffff\n  and\n    /* \"contracts/shia.sol\":10874:10876  to */\n  dup4\n    /* \"contracts/shia.sol\":10874:10887  to != owner() */\n  0xffffffffffffffffffffffffffffffffffffffff\n  and\n  eq\n  iszero\n    /* \"contracts/shia.sol\":10812:10887  maxTxAmount > 0 &&... */\ntag_80:\n    /* \"contracts/shia.sol\":10812:10933  maxTxAmount > 0 &&... */\n  dup1\n  iszero\n  tag_82\n  jumpi\n  pop\n    /* \"contracts/shia.sol\":10917:10932  uniswapV2Router */\n  0x09\n  0x00\n  swap1\n  sload\n  swap1\n  0x0100\n  exp\n  swap1\n  div\n  0xffffffffffffffffffffffffffffffffffffffff\n  and\n    /* \"contracts/shia.sol\":10903:10933  to != address(uniswapV2Router) */\n  0xffffffffffffffffffffffffffffffffffffffff\n  and\n    /* \"contracts/shia.sol\":10903:10905  to */\n  dup4\n    /* \"contracts/shia.sol\":10903:10933  to != address(uniswapV2Router) */\n  0xffffffffffffffffffffffffffffffffffffffff\n  and\n  eq\n  iszero\n    /* \"contracts/shia.sol\":10812:10933  maxTxAmount > 0 &&... */\ntag_82:\n    /* \"contracts/shia.sol\":10812:10981  maxTxAmount > 0 &&... */\n  dup1\n  iszero\n  tag_83\n  jumpi\n  pop\n    /* \"contracts/shia.sol\":10965:10980  uniswapV2Router */\n  0x09\n  0x00\n  swap1\n  sload\n  swap1\n  0x0100\n  exp\n  swap1\n  div\n  0xffffffffffffffffffffffffffffffffffffffff\n  and\n    /* \"contracts/shia.sol\":10949:10981  from != address(uniswapV2Router) */\n  0xffffffffffffffffffffffffffffffffffffffff\n  and\n    /* \"contracts/shia.sol\":10949:10953  from */\n  dup5\n    /* \"contracts/shia.sol\":10949:10981  from != address(uniswapV2Router) */\n  0xffffffffffffffffffffffffffffffffffffffff\n  and\n  eq\n  iszero\n    /* \"contracts/shia.sol\":10812:10981  maxTxAmount > 0 &&... */\ntag_83:\n    /* \"contracts/shia.sol\":10812:11013  maxTxAmount > 0 &&... */\n  dup1\n  iszero\n  tag_84\n  jumpi\n  pop\n    /* \"contracts/shia.sol\":11003:11013  _taxWallet */\n  0x08\n  0x00\n  swap1\n  sload\n  swap1\n  0x0100\n  exp\n  swap1\n  div\n  0xffffffffffffffffffffffffffffffffffffffff\n  and\n    /* \"contracts/shia.sol\":10997:11013  to != _taxWallet */\n  0xffffffffffffffffffffffffffffffffffffffff\n  and\n    /* \"contracts/shia.sol\":10997:10999  to */\n  dup4\n    /* \"contracts/shia.sol\":10997:11013  to != _taxWallet */\n  0xffffffffffffffffffffffffffffffffffffffff\n  and\n  eq\n  iszero\n    /* \"contracts/shia.sol\":10812:11013  maxTxAmount > 0 &&... */\ntag_84:\n    /* \"contracts/shia.sol\":10812:11047  maxTxAmount > 0 &&... */\n  dup1\n  iszero\n  tag_85\n  jumpi\n  pop\n    /* \"contracts/shia.sol\":11037:11047  _taxWallet */\n  0x08\n  0x00\n  swap1\n  sload\n  swap1\n  0x0100\n  exp\n  swap1\n  div\n  0xffffffffffffffffffffffffffffffffffffffff\n  and\n    /* \"contracts/shia.sol\":11029:11047  from != _taxWallet */\n  0xffffffffffffffffffffffffffffffffffffffff\n  and\n    /* \"contracts/shia.sol\":11029:11033  from */\n  dup5\n    /* \"contracts/shia.sol\":11029:11047  from != _taxWallet */\n  0xffffffffffffffffffffffffffffffffffffffff\n  and\n  eq\n  iszero\n    /* \"contracts/shia.sol\":10812:11047  maxTxAmount > 0 &&... */\ntag_85:\n    /* \"contracts/shia.sol\":10812:11080  maxTxAmount > 0 &&... */\n  dup1\n  iszero\n  tag_86\n  jumpi\n  pop\n    /* \"contracts/shia.sol\":9153:9195  0x000000000000000000000000000000000000dEaD */\n  0xdead\n    /* \"contracts/shia.sol\":11063:11080  to != DEAD_WALLET */\n  0xffffffffffffffffffffffffffffffffffffffff\n  and\n    /* \"contracts/shia.sol\":11063:11065  to */\n  dup4\n    /* \"contracts/shia.sol\":11063:11080  to != DEAD_WALLET */\n  0xffffffffffffffffffffffffffffffffffffffff\n  and\n  eq\n  iszero\n    /* \"contracts/shia.sol\":10812:11080  maxTxAmount > 0 &&... */\ntag_86:\n    /* \"contracts/shia.sol\":10812:11115  maxTxAmount > 0 &&... */\n  dup1\n  iszero\n  tag_87\n  jumpi\n  pop\n    /* \"contracts/shia.sol\":11102:11115  uniswapV2Pair */\n  0x0a\n  0x00\n  swap1\n  sload\n  swap1\n  0x0100\n  exp\n  swap1\n  div\n  0xffffffffffffffffffffffffffffffffffffffff\n  and\n    /* \"contracts/shia.sol\":11096:11115  to != uniswapV2Pair */\n  0xffffffffffffffffffffffffffffffffffffffff\n  and\n    /* \"contracts/shia.sol\":11096:11098  to */\n  dup4\n    /* \"contracts/shia.sol\":11096:11115  to != uniswapV2Pair */\n  0xffffffffffffffffffffffffffffffffffffffff\n  and\n  eq\n  iszero\n    /* \"contracts/shia.sol\":10812:11115  maxTxAmount > 0 &&... */\ntag_87:\n    /* \"contracts/shia.sol\":10812:11152  maxTxAmount > 0 &&... */\n  dup1\n  iszero\n  tag_88\n  jumpi\n  pop\n    /* \"contracts/shia.sol\":11139:11152  uniswapV2Pair */\n  0x0a\n  0x00\n  swap1\n  sload\n  swap1\n  0x0100\n  exp\n  swap1\n  div\n  0xffffffffffffffffffffffffffffffffffffffff\n  and\n    /* \"contracts/shia.sol\":11131:11152  from != uniswapV2Pair */\n  0xffffffffffffffffffffffffffffffffffffffff\n  and\n    /* \"contracts/shia.sol\":11131:11135  from */\n  dup5\n    /* \"contracts/shia.sol\":11131:11152  from != uniswapV2Pair */\n  0xffffffffffffffffffffffffffffffffffffffff\n  and\n  eq\n  iszero\n    /* \"contracts/shia.sol\":10812:11152  maxTxAmount > 0 &&... */\ntag_88:\n    /* \"contracts/shia.sol\":10795:11252  if (... */\n  iszero\n  tag_89\n  jumpi\n    /* \"contracts/shia.sol\":11195:11206  maxTxAmount */\n  sload(0x07)\n    /* \"contracts/shia.sol\":11185:11191  amount */\n  dup3\n    /* \"contracts/shia.sol\":11185:11206  amount <= maxTxAmount */\n  gt\n  iszero\n    /* \"contracts/shia.sol\":11177:11241  require(amount <= maxTxAmount, \"Exceeds max transaction amount\") */\n  tag_90\n  jumpi\n  mload(0x40)\n  0x08c379a000000000000000000000000000000000000000000000000000000000\n  dup2\n  mstore\n  0x04\n  add\n  tag_91\n  swap1\n  tag_92\n  jump\t// in\ntag_91:\n  mload(0x40)\n  dup1\n  swap2\n  sub\n  swap1\n  revert\ntag_90:\n    /* \"contracts/shia.sol\":10795:11252  if (... */\ntag_89:\n    /* \"contracts/shia.sol\":11262:11288  uint256 contractETHBalance */\n  0x00\n    /* \"contracts/shia.sol\":11291:11312  address(this).balance */\n  selfbalance\n    /* \"contracts/shia.sol\":11262:11312  uint256 contractETHBalance = address(this).balance */\n  swap1\n  pop\n    /* \"contracts/shia.sol\":11347:11357  0.05 ether */\n  0xb1a2bc2ec50000\n    /* \"contracts/shia.sol\":11326:11344  contractETHBalance */\n  dup2\n    /* \"contracts/shia.sol\":11326:11357  contractETHBalance > 0.05 ether */\n  gt\n    /* \"contracts/shia.sol\":11322:11419  if (contractETHBalance > 0.05 ether) {... */\n  iszero\n  tag_93\n  jumpi\n    /* \"contracts/shia.sol\":11373:11408  sendETHToFee(address(this).balance) */\n  tag_94\n    /* \"contracts/shia.sol\":11386:11407  address(this).balance */\n  selfbalance\n    /* \"contracts/shia.sol\":11373:11385  sendETHToFee */\n  shl(0x20, tag_95)\n    /* \"contracts/shia.sol\":11373:11408  sendETHToFee(address(this).balance) */\n  0x20\n  shr\n  jump\t// in\ntag_94:\n    /* \"contracts/shia.sol\":11322:11419  if (contractETHBalance > 0.05 ether) {... */\ntag_93:\n    /* \"contracts/shia.sol\":9851:11425  {... */\n  pop\n  pop\n    /* \"contracts/shia.sol\":9723:11425  function _beforeTokenTransfer(... */\n  pop\n  pop\n  pop\n  jump\t// out\n    /* \"contracts/shia.sol\":1066:1151  function owner() public view virtual returns (address) {... */\ntag_44:\n    /* \"contracts/shia.sol\":1112:1119  address */\n  0x00\n    /* \"contracts/shia.sol\":1138:1144  _owner */\n  0x05\n  0x00\n  swap1\n  sload\n  swap1\n  0x0100\n  exp\n  swap1\n  div\n  0xffffffffffffffffffffffffffffffffffffffff\n  and\n    /* \"contracts/shia.sol\":1131:1144  return _owner */\n  swap1\n  pop\n    /* \"contracts/shia.sol\":1066:1151  function owner() public view virtual returns (address) {... */\n  swap1\n  jump\t// out\n    /* \"contracts/shia.sol\":4805:4974  function balanceOf(address account)... */\ntag_56:\n    /* \"contracts/shia.sol\":4919:4926  uint256 */\n  0x00\n    /* \"contracts/shia.sol\":4949:4958  _balances */\n  dup1\n    /* \"contracts/shia.sol\":4949:4967  _balances[account] */\n  0x00\n    /* \"contracts/shia.sol\":4959:4966  account */\n  dup4\n    /* \"contracts/shia.sol\":4949:4967  _balances[account] */\n  0xffffffffffffffffffffffffffffffffffffffff\n  and\n  0xffffffffffffffffffffffffffffffffffffffff\n  and\n  dup2\n  mstore\n  0x20\n  add\n  swap1\n  dup2\n  mstore\n  0x20\n  add\n  0x00\n  keccak256\n  sload\n    /* \"contracts/shia.sol\":4942:4967  return _balances[account] */\n  swap1\n  pop\n    /* \"contracts/shia.sol\":4805:4974  function balanceOf(address account)... */\n  swap2\n  swap1\n  pop\n  jump\t// out\n    /* \"contracts/shia.sol\":11516:11606  function sendETHToFee(uint256 amount) private {... */\ntag_95:\n    /* \"contracts/shia.sol\":11572:11582  _taxWallet */\n  0x08\n  0x00\n  swap1\n  sload\n  swap1\n  0x0100\n  exp\n  swap1\n  div\n  0xffffffffffffffffffffffffffffffffffffffff\n  and\n    /* \"contracts/shia.sol\":11572:11591  _taxWallet.transfer */\n  0xffffffffffffffffffffffffffffffffffffffff\n  and\n    /* \"contracts/shia.sol\":11572:11599  _taxWallet.transfer(amount) */\n  0x08fc\n    /* \"contracts/shia.sol\":11592:11598  amount */\n  dup3\n    /* \"contracts/shia.sol\":11572:11599  _taxWallet.transfer(amount) */\n  swap1\n  dup2\n  iszero\n  mul\n  swap1\n  mload(0x40)\n  0x00\n  mload(0x40)\n  dup1\n  dup4\n  sub\n  dup2\n  dup6\n  dup9\n  dup9\n  call\n  swap4\n  pop\n  pop\n  pop\n  pop\n  iszero\n  dup1\n  iszero\n  tag_100\n  jumpi\n  returndatasize\n  0x00\n  dup1\n  returndatacopy\n  revert(0x00, returndatasize)\ntag_100:\n  pop\n    /* \"contracts/shia.sol\":11516:11606  function sendETHToFee(uint256 amount) private {... */\n  pop\n  jump\t// out\n    /* \"#utility.yul\":7:106   */\ntag_101:\n    /* \"#utility.yul\":59:65   */\n  0x00\n    /* \"#utility.yul\":93:98   */\n  dup2\n    /* \"#utility.yul\":87:99   */\n  mload\n    /* \"#utility.yul\":77:99   */\n  swap1\n  pop\n    /* \"#utility.yul\":7:106   */\n  swap2\n  swap1\n  pop\n  jump\t// out\n    /* \"#utility.yul\":112:292   */\ntag_102:\n    /* \"#utility.yul\":160:237   */\n  0x4e487b7100000000000000000000000000000000000000000000000000000000\n    /* \"#utility.yul\":157:158   */\n  0x00\n    /* \"#utility.yul\":150:238   */\n  mstore\n    /* \"#utility.yul\":257:261   */\n  0x41\n    /* \"#utility.yul\":254:255   */\n  0x04\n    /* \"#utility.yul\":247:262   */\n  mstore\n    /* \"#utility.yul\":281:285   */\n  0x24\n    /* \"#utility.yul\":278:279   */\n  0x00\n    /* \"#utility.yul\":271:286   */\n  revert\n    /* \"#utility.yul\":298:478   */\ntag_103:\n    /* \"#utility.yul\":346:423   */\n  0x4e487b7100000000000000000000000000000000000000000000000000000000\n    /* \"#utility.yul\":343:344   */\n  0x00\n    /* \"#utility.yul\":336:424   */\n  mstore\n    /* \"#utility.yul\":443:447   */\n  0x22\n    /* \"#utility.yul\":440:441   */\n  0x04\n    /* \"#utility.yul\":433:448   */\n  mstore\n    /* \"#utility.yul\":467:471   */\n  0x24\n    /* \"#utility.yul\":464:465   */\n  0x00\n    /* \"#utility.yul\":457:472   */\n  revert\n    /* \"#utility.yul\":484:804   */\ntag_104:\n    /* \"#utility.yul\":528:534   */\n  0x00\n    /* \"#utility.yul\":565:566   */\n  0x02\n    /* \"#utility.yul\":559:563   */\n  dup3\n    /* \"#utility.yul\":555:567   */\n  div\n    /* \"#utility.yul\":545:567   */\n  swap1\n  pop\n    /* \"#utility.yul\":612:613   */\n  0x01\n    /* \"#utility.yul\":606:610   */\n  dup3\n    /* \"#utility.yul\":602:614   */\n  and\n    /* \"#utility.yul\":633:651   */\n  dup1\n    /* \"#utility.yul\":623:704   */\n  tag_140\n  jumpi\n    /* \"#utility.yul\":689:693   */\n  0x7f\n    /* \"#utility.yul\":681:687   */\n  dup3\n    /* \"#utility.yul\":677:694   */\n  and\n    /* \"#utility.yul\":667:694   */\n  swap2\n  pop\n    /* \"#utility.yul\":623:704   */\ntag_140:\n    /* \"#utility.yul\":751:753   */\n  0x20\n    /* \"#utility.yul\":743:749   */\n  dup3\n    /* \"#utility.yul\":740:754   */\n  lt\n    /* \"#utility.yul\":720:738   */\n  dup2\n    /* \"#utility.yul\":717:755   */\n  sub\n    /* \"#utility.yul\":714:798   */\n  tag_141\n  jumpi\n    /* \"#utility.yul\":770:788   */\n  tag_142\n  tag_103\n  jump\t// in\ntag_142:\n    /* \"#utility.yul\":714:798   */\ntag_141:\n    /* \"#utility.yul\":535:804   */\n  pop\n    /* \"#utility.yul\":484:804   */\n  swap2\n  swap1\n  pop\n  jump\t// out\n    /* \"#utility.yul\":810:951   */\ntag_105:\n    /* \"#utility.yul\":859:863   */\n  0x00\n    /* \"#utility.yul\":882:885   */\n  dup2\n    /* \"#utility.yul\":874:885   */\n  swap1\n  pop\n    /* \"#utility.yul\":905:908   */\n  dup2\n    /* \"#utility.yul\":902:903   */\n  0x00\n    /* \"#utility.yul\":895:909   */\n  mstore\n    /* \"#utility.yul\":939:943   */\n  0x20\n    /* \"#utility.yul\":936:937   */\n  0x00\n    /* \"#utility.yul\":926:944   */\n  keccak256\n    /* \"#utility.yul\":918:944   */\n  swap1\n  pop\n    /* \"#utility.yul\":810:951   */\n  swap2\n  swap1\n  pop\n  jump\t// out\n    /* \"#utility.yul\":957:1050   */\ntag_106:\n    /* \"#utility.yul\":994:1000   */\n  0x00\n    /* \"#utility.yul\":1041:1043   */\n  0x20\n    /* \"#utility.yul\":1036:1038   */\n  0x1f\n    /* \"#utility.yul\":1029:1034   */\n  dup4\n    /* \"#utility.yul\":1025:1039   */\n  add\n    /* \"#utility.yul\":1021:1044   */\n  div\n    /* \"#utility.yul\":1011:1044   */\n  swap1\n  pop\n    /* \"#utility.yul\":957:1050   */\n  swap2\n  swap1\n  pop\n  jump\t// out\n    /* \"#utility.yul\":1056:1163   */\ntag_107:\n    /* \"#utility.yul\":1100:1108   */\n  0x00\n    /* \"#utility.yul\":1150:1155   */\n  dup3\n    /* \"#utility.yul\":1144:1148   */\n  dup3\n    /* \"#utility.yul\":1140:1156   */\n  shl\n    /* \"#utility.yul\":1119:1156   */\n  swap1\n  pop\n    /* \"#utility.yul\":1056:1163   */\n  swap3\n  swap2\n  pop\n  pop\n  jump\t// out\n    /* \"#utility.yul\":1169:1562   */\ntag_108:\n    /* \"#utility.yul\":1238:1244   */\n  0x00\n    /* \"#utility.yul\":1288:1289   */\n  0x08\n    /* \"#utility.yul\":1276:1286   */\n  dup4\n    /* \"#utility.yul\":1272:1290   */\n  mul\n    /* \"#utility.yul\":1311:1408   */\n  tag_147\n    /* \"#utility.yul\":1341:1407   */\n  0xffffffffffffffffffffffffffffffffffffffffffffffffffffffffffffffff\n    /* \"#utility.yul\":1330:1339   */\n  dup3\n    /* \"#utility.yul\":1311:1408   */\n  tag_107\n  jump\t// in\ntag_147:\n    /* \"#utility.yul\":1429:1468   */\n  tag_148\n    /* \"#utility.yul\":1459:1467   */\n  dup7\n    /* \"#utility.yul\":1448:1457   */\n  dup4\n    /* \"#utility.yul\":1429:1468   */\n  tag_107\n  jump\t// in\ntag_148:\n    /* \"#utility.yul\":1417:1468   */\n  swap6\n  pop\n    /* \"#utility.yul\":1501:1505   */\n  dup1\n    /* \"#utility.yul\":1497:1506   */\n  not\n    /* \"#utility.yul\":1490:1495   */\n  dup5\n    /* \"#utility.yul\":1486:1507   */\n  and\n    /* \"#utility.yul\":1477:1507   */\n  swap4\n  pop\n    /* \"#utility.yul\":1550:1554   */\n  dup1\n    /* \"#utility.yul\":1540:1548   */\n  dup7\n    /* \"#utility.yul\":1536:1555   */\n  and\n    /* \"#utility.yul\":1529:1534   */\n  dup5\n    /* \"#utility.yul\":1526:1556   */\n  or\n    /* \"#utility.yul\":1516:1556   */\n  swap3\n  pop\n    /* \"#utility.yul\":1245:1562   */\n  pop\n  pop\n    /* \"#utility.yul\":1169:1562   */\n  swap4\n  swap3\n  pop\n  pop\n  pop\n  jump\t// out\n    /* \"#utility.yul\":1568:1645   */\ntag_109:\n    /* \"#utility.yul\":1605:1612   */\n  0x00\n    /* \"#utility.yul\":1634:1639   */\n  dup2\n    /* \"#utility.yul\":1623:1639   */\n  swap1\n  pop\n    /* \"#utility.yul\":1568:1645   */\n  swap2\n  swap1\n  pop\n  jump\t// out\n    /* \"#utility.yul\":1651:1711   */\ntag_110:\n    /* \"#utility.yul\":1679:1682   */\n  0x00\n    /* \"#utility.yul\":1700:1705   */\n  dup2\n    /* \"#utility.yul\":1693:1705   */\n  swap1\n  pop\n    /* \"#utility.yul\":1651:1711   */\n  swap2\n  swap1\n  pop\n  jump\t// out\n    /* \"#utility.yul\":1717:1859   */\ntag_111:\n    /* \"#utility.yul\":1767:1776   */\n  0x00\n    /* \"#utility.yul\":1800:1853   */\n  tag_152\n    /* \"#utility.yul\":1818:1852   */\n  tag_153\n    /* \"#utility.yul\":1827:1851   */\n  tag_154\n    /* \"#utility.yul\":1845:1850   */\n  dup5\n    /* \"#utility.yul\":1827:1851   */\n  tag_109\n  jump\t// in\ntag_154:\n    /* \"#utility.yul\":1818:1852   */\n  tag_110\n  jump\t// in\ntag_153:\n    /* \"#utility.yul\":1800:1853   */\n  tag_109\n  jump\t// in\ntag_152:\n    /* \"#utility.yul\":1787:1853   */\n  swap1\n  pop\n    /* \"#utility.yul\":1717:1859   */\n  swap2\n  swap1\n  pop\n  jump\t// out\n    /* \"#utility.yul\":1865:1940   */\ntag_112:\n    /* \"#utility.yul\":1908:1911   */\n  0x00\n    /* \"#utility.yul\":1929:1934   */\n  dup2\n    /* \"#utility.yul\":1922:1934   */\n  swap1\n  pop\n    /* \"#utility.yul\":1865:1940   */\n  swap2\n  swap1\n  pop\n  jump\t// out\n    /* \"#utility.yul\":1946:2215   */\ntag_113:\n    /* \"#utility.yul\":2056:2095   */\n  tag_157\n    /* \"#utility.yul\":2087:2094   */\n  dup4\n    /* \"#utility.yul\":2056:2095   */\n  tag_111\n  jump\t// in\ntag_157:\n    /* \"#utility.yul\":2117:2208   */\n  tag_158\n    /* \"#utility.yul\":2166:2207   */\n  tag_159\n    /* \"#utility.yul\":2190:2206   */\n  dup3\n    /* \"#utility.yul\":2166:2207   */\n  tag_112\n  jump\t// in\ntag_159:\n    /* \"#utility.yul\":2158:2164   */\n  dup5\n    /* \"#utility.yul\":2151:2155   */\n  dup5\n    /* \"#utility.yul\":2145:2156   */\n  sload\n    /* \"#utility.yul\":2117:2208   */\n  tag_108\n  jump\t// in\ntag_158:\n    /* \"#utility.yul\":2111:2115   */\n  dup3\n    /* \"#utility.yul\":2104:2209   */\n  sstore\n    /* \"#utility.yul\":2022:2215   */\n  pop\n    /* \"#utility.yul\":1946:2215   */\n  pop\n  pop\n  pop\n  jump\t// out\n    /* \"#utility.yul\":2221:2294   */\ntag_114:\n    /* \"#utility.yul\":2266:2269   */\n  0x00\n    /* \"#utility.yul\":2221:2294   */\n  swap1\n  jump\t// out\n    /* \"#utility.yul\":2300:2489   */\ntag_115:\n    /* \"#utility.yul\":2377:2409   */\n  tag_162\n  tag_114\n  jump\t// in\ntag_162:\n    /* \"#utility.yul\":2418:2483   */\n  tag_163\n    /* \"#utility.yul\":2476:2482   */\n  dup2\n    /* \"#utility.yul\":2468:2474   */\n  dup5\n    /* \"#utility.yul\":2462:2466   */\n  dup5\n    /* \"#utility.yul\":2418:2483   */\n  tag_113\n  jump\t// in\ntag_163:\n    /* \"#utility.yul\":2353:2489   */\n  pop\n    /* \"#utility.yul\":2300:2489   */\n  pop\n  pop\n  jump\t// out\n    /* \"#utility.yul\":2495:2681   */\ntag_116:\n    /* \"#utility.yul\":2555:2675   */\ntag_165:\n    /* \"#utility.yul\":2572:2575   */\n  dup2\n    /* \"#utility.yul\":2565:2570   */\n  dup2\n    /* \"#utility.yul\":2562:2576   */\n  lt\n    /* \"#utility.yul\":2555:2675   */\n  iszero\n  tag_167\n  jumpi\n    /* \"#utility.yul\":2626:2665   */\n  tag_168\n    /* \"#utility.yul\":2663:2664   */\n  0x00\n    /* \"#utility.yul\":2656:2661   */\n  dup3\n    /* \"#utility.yul\":2626:2665   */\n  tag_115\n  jump\t// in\ntag_168:\n    /* \"#utility.yul\":2599:2600   */\n  0x01\n    /* \"#utility.yul\":2592:2597   */\n  dup2\n    /* \"#utility.yul\":2588:2601   */\n  add\n    /* \"#utility.yul\":2579:2601   */\n  swap1\n  pop\n    /* \"#utility.yul\":2555:2675   */\n  jump(tag_165)\ntag_167:\n    /* \"#utility.yul\":2495:2681   */\n  pop\n  pop\n  jump\t// out\n    /* \"#utility.yul\":2687:3230   */\ntag_117:\n    /* \"#utility.yul\":2788:2790   */\n  0x1f\n    /* \"#utility.yul\":2783:2786   */\n  dup3\n    /* \"#utility.yul\":2780:2791   */\n  gt\n    /* \"#utility.yul\":2777:3223   */\n  iszero\n  tag_170\n  jumpi\n    /* \"#utility.yul\":2822:2860   */\n  tag_171\n    /* \"#utility.yul\":2854:2859   */\n  dup2\n    /* \"#utility.yul\":2822:2860   */\n  tag_105\n  jump\t// in\ntag_171:\n    /* \"#utility.yul\":2906:2935   */\n  tag_172\n    /* \"#utility.yul\":2924:2934   */\n  dup5\n    /* \"#utility.yul\":2906:2935   */\n  tag_106\n  jump\t// in\ntag_172:\n    /* \"#utility.yul\":2896:2904   */\n  dup2\n    /* \"#utility.yul\":2892:2936   */\n  add\n    /* \"#utility.yul\":3089:3091   */\n  0x20\n    /* \"#utility.yul\":3077:3087   */\n  dup6\n    /* \"#utility.yul\":3074:3092   */\n  lt\n    /* \"#utility.yul\":3071:3120   */\n  iszero\n  tag_173\n  jumpi\n    /* \"#utility.yul\":3110:3118   */\n  dup2\n    /* \"#utility.yul\":3095:3118   */\n  swap1\n  pop\n    /* \"#utility.yul\":3071:3120   */\ntag_173:\n    /* \"#utility.yul\":3133:3213   */\n  tag_174\n    /* \"#utility.yul\":3189:3211   */\n  tag_175\n    /* \"#utility.yul\":3207:3210   */\n  dup6\n    /* \"#utility.yul\":3189:3211   */\n  tag_106\n  jump\t// in\ntag_175:\n    /* \"#utility.yul\":3179:3187   */\n  dup4\n    /* \"#utility.yul\":3175:3212   */\n  add\n    /* \"#utility.yul\":3162:3173   */\n  dup3\n    /* \"#utility.yul\":3133:3213   */\n  tag_116\n  jump\t// in\ntag_174:\n    /* \"#utility.yul\":2792:3223   */\n  pop\n  pop\n    /* \"#utility.yul\":2777:3223   */\ntag_170:\n    /* \"#utility.yul\":2687:3230   */\n  pop\n  pop\n  pop\n  jump\t// out\n    /* \"#utility.yul\":3236:3353   */\ntag_118:\n    /* \"#utility.yul\":3290:3298   */\n  0x00\n    /* \"#utility.yul\":3340:3345   */\n  dup3\n    /* \"#utility.yul\":3334:3338   */\n  dup3\n    /* \"#utility.yul\":3330:3346   */\n  shr\n    /* \"#utility.yul\":3309:3346   */\n  swap1\n  pop\n    /* \"#utility.yul\":3236:3353   */\n  swap3\n  swap2\n  pop\n  pop\n  jump\t// out\n    /* \"#utility.yul\":3359:3528   */\ntag_119:\n    /* \"#utility.yul\":3403:3409   */\n  0x00\n    /* \"#utility.yul\":3436:3487   */\n  tag_178\n    /* \"#utility.yul\":3484:3485   */\n  0x00\n    /* \"#utility.yul\":3480:3486   */\n  not\n    /* \"#utility.yul\":3472:3477   */\n  dup5\n    /* \"#utility.yul\":3469:3470   */\n  0x08\n    /* \"#utility.yul\":3465:3478   */\n  mul\n    /* \"#utility.yul\":3436:3487   */\n  tag_118\n  jump\t// in\ntag_178:\n    /* \"#utility.yul\":3432:3488   */\n  not\n    /* \"#utility.yul\":3517:3521   */\n  dup1\n    /* \"#utility.yul\":3511:3515   */\n  dup4\n    /* \"#utility.yul\":3507:3522   */\n  and\n    /* \"#utility.yul\":3497:3522   */\n  swap2\n  pop\n    /* \"#utility.yul\":3410:3528   */\n  pop\n    /* \"#utility.yul\":3359:3528   */\n  swap3\n  swap2\n  pop\n  pop\n  jump\t// out\n    /* \"#utility.yul\":3533:3828   */\ntag_120:\n    /* \"#utility.yul\":3609:3613   */\n  0x00\n    /* \"#utility.yul\":3755:3784   */\n  tag_180\n    /* \"#utility.yul\":3780:3783   */\n  dup4\n    /* \"#utility.yul\":3774:3778   */\n  dup4\n    /* \"#utility.yul\":3755:3784   */\n  tag_119\n  jump\t// in\ntag_180:\n    /* \"#utility.yul\":3747:3784   */\n  swap2\n  pop\n    /* \"#utility.yul\":3817:3820   */\n  dup3\n    /* \"#utility.yul\":3814:3815   */\n  0x02\n    /* \"#utility.yul\":3810:3821   */\n  mul\n    /* \"#utility.yul\":3804:3808   */\n  dup3\n    /* \"#utility.yul\":3801:3822   */\n  or\n    /* \"#utility.yul\":3793:3822   */\n  swap1\n  pop\n    /* \"#utility.yul\":3533:3828   */\n  swap3\n  swap2\n  pop\n  pop\n  jump\t// out\n    /* \"#utility.yul\":3833:5228   */\ntag_7:\n    /* \"#utility.yul\":3950:3987   */\n  tag_182\n    /* \"#utility.yul\":3983:3986   */\n  dup3\n    /* \"#utility.yul\":3950:3987   */\n  tag_101\n  jump\t// in\ntag_182:\n    /* \"#utility.yul\":4052:4070   */\n  0xffffffffffffffff\n    /* \"#utility.yul\":4044:4050   */\n  dup2\n    /* \"#utility.yul\":4041:4071   */\n  gt\n    /* \"#utility.yul\":4038:4094   */\n  iszero\n  tag_183\n  jumpi\n    /* \"#utility.yul\":4074:4092   */\n  tag_184\n  tag_102\n  jump\t// in\ntag_184:\n    /* \"#utility.yul\":4038:4094   */\ntag_183:\n    /* \"#utility.yul\":4118:4156   */\n  tag_185\n    /* \"#utility.yul\":4150:4154   */\n  dup3\n    /* \"#utility.yul\":4144:4155   */\n  sload\n    /* \"#utility.yul\":4118:4156   */\n  tag_104\n  jump\t// in\ntag_185:\n    /* \"#utility.yul\":4203:4270   */\n  tag_186\n    /* \"#utility.yul\":4263:4269   */\n  dup3\n    /* \"#utility.yul\":4255:4261   */\n  dup3\n    /* \"#utility.yul\":4249:4253   */\n  dup6\n    /* \"#utility.yul\":4203:4270   */\n  tag_117\n  jump\t// in\ntag_186:\n    /* \"#utility.yul\":4297:4298   */\n  0x00\n    /* \"#utility.yul\":4321:4325   */\n  0x20\n    /* \"#utility.yul\":4308:4325   */\n  swap1\n  pop\n    /* \"#utility.yul\":4353:4355   */\n  0x1f\n    /* \"#utility.yul\":4345:4351   */\n  dup4\n    /* \"#utility.yul\":4342:4356   */\n  gt\n    /* \"#utility.yul\":4370:4371   */\n  0x01\n    /* \"#utility.yul\":4365:4983   */\n  dup2\n  eq\n  tag_188\n  jumpi\n    /* \"#utility.yul\":5027:5028   */\n  0x00\n    /* \"#utility.yul\":5044:5050   */\n  dup5\n    /* \"#utility.yul\":5041:5118   */\n  iszero\n  tag_189\n  jumpi\n    /* \"#utility.yul\":5093:5102   */\n  dup3\n    /* \"#utility.yul\":5088:5091   */\n  dup8\n    /* \"#utility.yul\":5084:5103   */\n  add\n    /* \"#utility.yul\":5078:5104   */\n  mload\n    /* \"#utility.yul\":5069:5104   */\n  swap1\n  pop\n    /* \"#utility.yul\":5041:5118   */\ntag_189:\n    /* \"#utility.yul\":5144:5211   */\n  tag_190\n    /* \"#utility.yul\":5204:5210   */\n  dup6\n    /* \"#utility.yul\":5197:5202   */\n  dup3\n    /* \"#utility.yul\":5144:5211   */\n  tag_120\n  jump\t// in\ntag_190:\n    /* \"#utility.yul\":5138:5142   */\n  dup7\n    /* \"#utility.yul\":5131:5212   */\n  sstore\n    /* \"#utility.yul\":5000:5222   */\n  pop\n    /* \"#utility.yul\":4335:5222   */\n  jump(tag_187)\n    /* \"#utility.yul\":4365:4983   */\ntag_188:\n    /* \"#utility.yul\":4417:4421   */\n  0x1f\n    /* \"#utility.yul\":4413:4422   */\n  not\n    /* \"#utility.yul\":4405:4411   */\n  dup5\n    /* \"#utility.yul\":4401:4423   */\n  and\n    /* \"#utility.yul\":4451:4488   */\n  tag_191\n    /* \"#utility.yul\":4483:4487   */\n  dup7\n    /* \"#utility.yul\":4451:4488   */\n  tag_105\n  jump\t// in\ntag_191:\n    /* \"#utility.yul\":4510:4511   */\n  0x00\n    /* \"#utility.yul\":4524:4732   */\ntag_192:\n    /* \"#utility.yul\":4538:4545   */\n  dup3\n    /* \"#utility.yul\":4535:4536   */\n  dup2\n    /* \"#utility.yul\":4532:4546   */\n  lt\n    /* \"#utility.yul\":4524:4732   */\n  iszero\n  tag_194\n  jumpi\n    /* \"#utility.yul\":4617:4626   */\n  dup5\n    /* \"#utility.yul\":4612:4615   */\n  dup10\n    /* \"#utility.yul\":4608:4627   */\n  add\n    /* \"#utility.yul\":4602:4628   */\n  mload\n    /* \"#utility.yul\":4594:4600   */\n  dup3\n    /* \"#utility.yul\":4587:4629   */\n  sstore\n    /* \"#utility.yul\":4668:4669   */\n  0x01\n    /* \"#utility.yul\":4660:4666   */\n  dup3\n    /* \"#utility.yul\":4656:4670   */\n  add\n    /* \"#utility.yul\":4646:4670   */\n  swap2\n  pop\n    /* \"#utility.yul\":4715:4717   */\n  0x20\n    /* \"#utility.yul\":4704:4713   */\n  dup6\n    /* \"#utility.yul\":4700:4718   */\n  add\n    /* \"#utility.yul\":4687:4718   */\n  swap5\n  pop\n    /* \"#utility.yul\":4561:4565   */\n  0x20\n    /* \"#utility.yul\":4558:4559   */\n  dup2\n    /* \"#utility.yul\":4554:4566   */\n  add\n    /* \"#utility.yul\":4549:4566   */\n  swap1\n  pop\n    /* \"#utility.yul\":4524:4732   */\n  jump(tag_192)\ntag_194:\n    /* \"#utility.yul\":4760:4766   */\n  dup7\n    /* \"#utility.yul\":4751:4758   */\n  dup4\n    /* \"#utility.yul\":4748:4767   */\n  lt\n    /* \"#utility.yul\":4745:4924   */\n  iszero\n  tag_195\n  jumpi\n    /* \"#utility.yul\":4818:4827   */\n  dup5\n    /* \"#utility.yul\":4813:4816   */\n  dup10\n    /* \"#utility.yul\":4809:4828   */\n  add\n    /* \"#utility.yul\":4803:4829   */\n  mload\n    /* \"#utility.yul\":4861:4909   */\n  tag_196\n    /* \"#utility.yul\":4903:4907   */\n  0x1f\n    /* \"#utility.yul\":4895:4901   */\n  dup10\n    /* \"#utility.yul\":4891:4908   */\n  and\n    /* \"#utility.yul\":4880:4889   */\n  dup3\n    /* \"#utility.yul\":4861:4909   */\n  tag_119\n  jump\t// in\ntag_196:\n    /* \"#utility.yul\":4853:4859   */\n  dup4\n    /* \"#utility.yul\":4846:4910   */\n  sstore\n    /* \"#utility.yul\":4768:4924   */\n  pop\n    /* \"#utility.yul\":4745:4924   */\ntag_195:\n    /* \"#utility.yul\":4970:4971   */\n  0x01\n    /* \"#utility.yul\":4966:4967   */\n  0x02\n    /* \"#utility.yul\":4958:4964   */\n  dup9\n    /* \"#utility.yul\":4954:4968   */\n  mul\n    /* \"#utility.yul\":4950:4972   */\n  add\n    /* \"#utility.yul\":4944:4948   */\n  dup9\n    /* \"#utility.yul\":4937:4973   */\n  sstore\n    /* \"#utility.yul\":4372:4983   */\n  pop\n  pop\n  pop\n    /* \"#utility.yul\":4335:5222   */\ntag_187:\n  pop\n    /* \"#utility.yul\":3925:5228   */\n  pop\n  pop\n  pop\n    /* \"#utility.yul\":3833:5228   */\n  pop\n  pop\n  jump\t// out\n    /* \"#utility.yul\":5234:5414   */\ntag_121:\n    /* \"#utility.yul\":5282:5359   */\n  0x4e487b7100000000000000000000000000000000000000000000000000000000\n    /* \"#utility.yul\":5279:5280   */\n  0x00\n    /* \"#utility.yul\":5272:5360   */\n  mstore\n    /* \"#utility.yul\":5379:5383   */\n  0x11\n    /* \"#utility.yul\":5376:5377   */\n  0x04\n    /* \"#utility.yul\":5369:5384   */\n  mstore\n    /* \"#utility.yul\":5403:5407   */\n  0x24\n    /* \"#utility.yul\":5400:5401   */\n  0x00\n    /* \"#utility.yul\":5393:5408   */\n  revert\n    /* \"#utility.yul\":5420:5522   */\ntag_122:\n    /* \"#utility.yul\":5462:5470   */\n  0x00\n    /* \"#utility.yul\":5509:5514   */\n  dup2\n    /* \"#utility.yul\":5506:5507   */\n  0x01\n    /* \"#utility.yul\":5502:5515   */\n  shr\n    /* \"#utility.yul\":5481:5515   */\n  swap1\n  pop\n    /* \"#utility.yul\":5420:5522   */\n  swap2\n  swap1\n  pop\n  jump\t// out\n    /* \"#utility.yul\":5528:6376   */\ntag_123:\n    /* \"#utility.yul\":5589:5594   */\n  0x00\n    /* \"#utility.yul\":5596:5600   */\n  dup1\n    /* \"#utility.yul\":5620:5626   */\n  dup3\n    /* \"#utility.yul\":5611:5626   */\n  swap2\n  pop\n    /* \"#utility.yul\":5644:5649   */\n  dup4\n    /* \"#utility.yul\":5635:5649   */\n  swap1\n  pop\n    /* \"#utility.yul\":5658:6370   */\ntag_200:\n    /* \"#utility.yul\":5679:5680   */\n  0x01\n    /* \"#utility.yul\":5669:5677   */\n  dup6\n    /* \"#utility.yul\":5666:5681   */\n  gt\n    /* \"#utility.yul\":5658:6370   */\n  iszero\n  tag_202\n  jumpi\n    /* \"#utility.yul\":5774:5778   */\n  dup1\n    /* \"#utility.yul\":5769:5772   */\n  dup7\n    /* \"#utility.yul\":5765:5779   */\n  div\n    /* \"#utility.yul\":5759:5763   */\n  dup2\n    /* \"#utility.yul\":5756:5780   */\n  gt\n    /* \"#utility.yul\":5753:5803   */\n  iszero\n  tag_203\n  jumpi\n    /* \"#utility.yul\":5783:5801   */\n  tag_204\n  tag_121\n  jump\t// in\ntag_204:\n    /* \"#utility.yul\":5753:5803   */\ntag_203:\n    /* \"#utility.yul\":5833:5834   */\n  0x01\n    /* \"#utility.yul\":5823:5831   */\n  dup6\n    /* \"#utility.yul\":5819:5835   */\n  and\n    /* \"#utility.yul\":5816:6267   */\n  iszero\n  tag_205\n  jumpi\n    /* \"#utility.yul\":6248:6252   */\n  dup1\n    /* \"#utility.yul\":6241:6246   */\n  dup3\n    /* \"#utility.yul\":6237:6253   */\n  mul\n    /* \"#utility.yul\":6228:6253   */\n  swap2\n  pop\n    /* \"#utility.yul\":5816:6267   */\ntag_205:\n    /* \"#utility.yul\":6298:6302   */\n  dup1\n    /* \"#utility.yul\":6292:6296   */\n  dup2\n    /* \"#utility.yul\":6288:6303   */\n  mul\n    /* \"#utility.yul\":6280:6303   */\n  swap1\n  pop\n    /* \"#utility.yul\":6328:6360   */\n  tag_206\n    /* \"#utility.yul\":6351:6359   */\n  dup6\n    /* \"#utility.yul\":6328:6360   */\n  tag_122\n  jump\t// in\ntag_206:\n    /* \"#utility.yul\":6316:6360   */\n  swap5\n  pop\n    /* \"#utility.yul\":5658:6370   */\n  jump(tag_200)\ntag_202:\n    /* \"#utility.yul\":5528:6376   */\n  swap5\n  pop\n  swap5\n  swap3\n  pop\n  pop\n  pop\n  jump\t// out\n    /* \"#utility.yul\":6382:7455   */\ntag_124:\n    /* \"#utility.yul\":6436:6441   */\n  0x00\n    /* \"#utility.yul\":6627:6635   */\n  dup3\n    /* \"#utility.yul\":6617:6657   */\n  tag_208\n  jumpi\n    /* \"#utility.yul\":6648:6649   */\n  0x01\n    /* \"#utility.yul\":6639:6649   */\n  swap1\n  pop\n    /* \"#utility.yul\":6650:6655   */\n  jump(tag_207)\n    /* \"#utility.yul\":6617:6657   */\ntag_208:\n    /* \"#utility.yul\":6676:6680   */\n  dup2\n    /* \"#utility.yul\":6666:6702   */\n  tag_209\n  jumpi\n    /* \"#utility.yul\":6693:6694   */\n  0x00\n    /* \"#utility.yul\":6684:6694   */\n  swap1\n  pop\n    /* \"#utility.yul\":6695:6700   */\n  jump(tag_207)\n    /* \"#utility.yul\":6666:6702   */\ntag_209:\n    /* \"#utility.yul\":6762:6766   */\n  dup2\n    /* \"#utility.yul\":6810:6811   */\n  0x01\n    /* \"#utility.yul\":6805:6832   */\n  dup2\n  eq\n  tag_211\n  jumpi\n    /* \"#utility.yul\":6846:6847   */\n  0x02\n    /* \"#utility.yul\":6841:7032   */\n  dup2\n  eq\n  tag_212\n  jumpi\n    /* \"#utility.yul\":6755:7032   */\n  jump(tag_210)\n    /* \"#utility.yul\":6805:6832   */\ntag_211:\n    /* \"#utility.yul\":6823:6824   */\n  0x01\n    /* \"#utility.yul\":6814:6824   */\n  swap2\n  pop\n    /* \"#utility.yul\":6825:6830   */\n  pop\n  jump(tag_207)\n    /* \"#utility.yul\":6841:7032   */\ntag_212:\n    /* \"#utility.yul\":6886:6889   */\n  0xff\n    /* \"#utility.yul\":6876:6884   */\n  dup5\n    /* \"#utility.yul\":6873:6890   */\n  gt\n    /* \"#utility.yul\":6870:6913   */\n  iszero\n  tag_213\n  jumpi\n    /* \"#utility.yul\":6893:6911   */\n  tag_214\n  tag_121\n  jump\t// in\ntag_214:\n    /* \"#utility.yul\":6870:6913   */\ntag_213:\n    /* \"#utility.yul\":6942:6950   */\n  dup4\n    /* \"#utility.yul\":6939:6940   */\n  0x02\n    /* \"#utility.yul\":6935:6951   */\n  exp\n    /* \"#utility.yul\":6926:6951   */\n  swap2\n  pop\n    /* \"#utility.yul\":6977:6980   */\n  dup5\n    /* \"#utility.yul\":6970:6975   */\n  dup3\n    /* \"#utility.yul\":6967:6981   */\n  gt\n    /* \"#utility.yul\":6964:7004   */\n  iszero\n  tag_215\n  jumpi\n    /* \"#utility.yul\":6984:7002   */\n  tag_216\n  tag_121\n  jump\t// in\ntag_216:\n    /* \"#utility.yul\":6964:7004   */\ntag_215:\n    /* \"#utility.yul\":7017:7022   */\n  pop\n  jump(tag_207)\n    /* \"#utility.yul\":6755:7032   */\ntag_210:\n  pop\n    /* \"#utility.yul\":7141:7143   */\n  0x20\n    /* \"#utility.yul\":7131:7139   */\n  dup4\n    /* \"#utility.yul\":7128:7144   */\n  lt\n    /* \"#utility.yul\":7122:7125   */\n  0x0133\n    /* \"#utility.yul\":7116:7120   */\n  dup4\n    /* \"#utility.yul\":7113:7126   */\n  lt\n    /* \"#utility.yul\":7109:7145   */\n  and\n    /* \"#utility.yul\":7091:7093   */\n  0x4e\n    /* \"#utility.yul\":7081:7089   */\n  dup5\n    /* \"#utility.yul\":7078:7094   */\n  lt\n    /* \"#utility.yul\":7073:7075   */\n  0x0b\n    /* \"#utility.yul\":7067:7071   */\n  dup5\n    /* \"#utility.yul\":7064:7076   */\n  lt\n    /* \"#utility.yul\":7060:7095   */\n  and\n    /* \"#utility.yul\":7044:7155   */\n  or\n    /* \"#utility.yul\":7041:7287   */\n  iszero\n  tag_217\n  jumpi\n    /* \"#utility.yul\":7197:7205   */\n  dup3\n    /* \"#utility.yul\":7191:7195   */\n  dup3\n    /* \"#utility.yul\":7187:7206   */\n  exp\n    /* \"#utility.yul\":7178:7206   */\n  swap1\n  pop\n    /* \"#utility.yul\":7232:7235   */\n  dup4\n    /* \"#utility.yul\":7225:7230   */\n  dup2\n    /* \"#utility.yul\":7222:7236   */\n  gt\n    /* \"#utility.yul\":7219:7259   */\n  iszero\n  tag_218\n  jumpi\n    /* \"#utility.yul\":7239:7257   */\n  tag_219\n  tag_121\n  jump\t// in\ntag_219:\n    /* \"#utility.yul\":7219:7259   */\ntag_218:\n    /* \"#utility.yul\":7272:7277   */\n  jump(tag_207)\n    /* \"#utility.yul\":7041:7287   */\ntag_217:\n    /* \"#utility.yul\":7312:7354   */\n  tag_220\n    /* \"#utility.yul\":7350:7353   */\n  dup5\n    /* \"#utility.yul\":7340:7348   */\n  dup5\n    /* \"#utility.yul\":7334:7338   */\n  dup5\n    /* \"#utility.yul\":7331:7332   */\n  0x01\n    /* \"#utility.yul\":7312:7354   */\n  tag_123\n  jump\t// in\ntag_220:\n    /* \"#utility.yul\":7297:7354   */\n  swap3\n  pop\n  swap1\n  pop\n    /* \"#utility.yul\":7386:7390   */\n  dup2\n    /* \"#utility.yul\":7381:7384   */\n  dup5\n    /* \"#utility.yul\":7377:7391   */\n  div\n    /* \"#utility.yul\":7370:7375   */\n  dup2\n    /* \"#utility.yul\":7367:7392   */\n  gt\n    /* \"#utility.yul\":7364:7415   */\n  iszero\n  tag_221\n  jumpi\n    /* \"#utility.yul\":7395:7413   */\n  tag_222\n  tag_121\n  jump\t// in\ntag_222:\n    /* \"#utility.yul\":7364:7415   */\ntag_221:\n    /* \"#utility.yul\":7444:7448   */\n  dup2\n    /* \"#utility.yul\":7437:7442   */\n  dup2\n    /* \"#utility.yul\":7433:7449   */\n  mul\n    /* \"#utility.yul\":7424:7449   */\n  swap1\n  pop\n    /* \"#utility.yul\":6382:7455   */\ntag_207:\n  swap4\n  swap3\n  pop\n  pop\n  pop\n  jump\t// out\n    /* \"#utility.yul\":7461:7547   */\ntag_125:\n    /* \"#utility.yul\":7496:7503   */\n  0x00\n    /* \"#utility.yul\":7536:7540   */\n  0xff\n    /* \"#utility.yul\":7529:7534   */\n  dup3\n    /* \"#utility.yul\":7525:7541   */\n  and\n    /* \"#utility.yul\":7514:7541   */\n  swap1\n  pop\n    /* \"#utility.yul\":7461:7547   */\n  swap2\n  swap1\n  pop\n  jump\t// out\n    /* \"#utility.yul\":7553:7834   */\ntag_17:\n    /* \"#utility.yul\":7611:7616   */\n  0x00\n    /* \"#utility.yul\":7635:7658   */\n  tag_225\n    /* \"#utility.yul\":7653:7657   */\n  dup3\n    /* \"#utility.yul\":7635:7658   */\n  tag_109\n  jump\t// in\ntag_225:\n    /* \"#utility.yul\":7627:7658   */\n  swap2\n  pop\n    /* \"#utility.yul\":7679:7704   */\n  tag_226\n    /* \"#utility.yul\":7695:7703   */\n  dup4\n    /* \"#utility.yul\":7679:7704   */\n  tag_125\n  jump\t// in\ntag_226:\n    /* \"#utility.yul\":7667:7704   */\n  swap3\n  pop\n    /* \"#utility.yul\":7723:7827   */\n  tag_227\n    /* \"#utility.yul\":7760:7826   */\n  0xffffffffffffffffffffffffffffffffffffffffffffffffffffffffffffffff\n    /* \"#utility.yul\":7750:7758   */\n  dup5\n    /* \"#utility.yul\":7744:7748   */\n  dup5\n    /* \"#utility.yul\":7723:7827   */\n  tag_124\n  jump\t// in\ntag_227:\n    /* \"#utility.yul\":7714:7827   */\n  swap1\n  pop\n    /* \"#utility.yul\":7553:7834   */\n  swap3\n  swap2\n  pop\n  pop\n  jump\t// out\n    /* \"#utility.yul\":7840:8250   */\ntag_19:\n    /* \"#utility.yul\":7880:7887   */\n  0x00\n    /* \"#utility.yul\":7903:7923   */\n  tag_229\n    /* \"#utility.yul\":7921:7922   */\n  dup3\n    /* \"#utility.yul\":7903:7923   */\n  tag_109\n  jump\t// in\ntag_229:\n    /* \"#utility.yul\":7898:7923   */\n  swap2\n  pop\n    /* \"#utility.yul\":7937:7957   */\n  tag_230\n    /* \"#utility.yul\":7955:7956   */\n  dup4\n    /* \"#utility.yul\":7937:7957   */\n  tag_109\n  jump\t// in\ntag_230:\n    /* \"#utility.yul\":7932:7957   */\n  swap3\n  pop\n    /* \"#utility.yul\":7992:7993   */\n  dup3\n    /* \"#utility.yul\":7989:7990   */\n  dup3\n    /* \"#utility.yul\":7985:7994   */\n  mul\n    /* \"#utility.yul\":8014:8044   */\n  tag_231\n    /* \"#utility.yul\":8032:8043   */\n  dup2\n    /* \"#utility.yul\":8014:8044   */\n  tag_109\n  jump\t// in\ntag_231:\n    /* \"#utility.yul\":8003:8044   */\n  swap2\n  pop\n    /* \"#utility.yul\":8193:8194   */\n  dup3\n    /* \"#utility.yul\":8184:8191   */\n  dup3\n    /* \"#utility.yul\":8180:8195   */\n  div\n    /* \"#utility.yul\":8177:8178   */\n  dup5\n    /* \"#utility.yul\":8174:8196   */\n  eq\n    /* \"#utility.yul\":8154:8155   */\n  dup4\n    /* \"#utility.yul\":8147:8156   */\n  iszero\n    /* \"#utility.yul\":8127:8210   */\n  or\n    /* \"#utility.yul\":8104:8243   */\n  tag_232\n  jumpi\n    /* \"#utility.yul\":8223:8241   */\n  tag_233\n  tag_121\n  jump\t// in\ntag_233:\n    /* \"#utility.yul\":8104:8243   */\ntag_232:\n    /* \"#utility.yul\":7888:8250   */\n  pop\n    /* \"#utility.yul\":7840:8250   */\n  swap3\n  swap2\n  pop\n  pop\n  jump\t// out\n    /* \"#utility.yul\":8256:8425   */\ntag_126:\n    /* \"#utility.yul\":8340:8351   */\n  0x00\n    /* \"#utility.yul\":8374:8380   */\n  dup3\n    /* \"#utility.yul\":8369:8372   */\n  dup3\n    /* \"#utility.yul\":8362:8381   */\n  mstore\n    /* \"#utility.yul\":8414:8418   */\n  0x20\n    /* \"#utility.yul\":8409:8412   */\n  dup3\n    /* \"#utility.yul\":8405:8419   */\n  add\n    /* \"#utility.yul\":8390:8419   */\n  swap1\n  pop\n    /* \"#utility.yul\":8256:8425   */\n  swap3\n  swap2\n  pop\n  pop\n  jump\t// out\n    /* \"#utility.yul\":8431:8612   */\ntag_127:\n    /* \"#utility.yul\":8571:8604   */\n  0x45524332303a206d696e7420746f20746865207a65726f206164647265737300\n    /* \"#utility.yul\":8567:8568   */\n  0x00\n    /* \"#utility.yul\":8559:8565   */\n  dup3\n    /* \"#utility.yul\":8555:8569   */\n  add\n    /* \"#utility.yul\":8548:8605   */\n  mstore\n    /* \"#utility.yul\":8431:8612   */\n  pop\n  jump\t// out\n    /* \"#utility.yul\":8618:8984   */\ntag_128:\n    /* \"#utility.yul\":8760:8763   */\n  0x00\n    /* \"#utility.yul\":8781:8848   */\n  tag_237\n    /* \"#utility.yul\":8845:8847   */\n  0x1f\n    /* \"#utility.yul\":8840:8843   */\n  dup4\n    /* \"#utility.yul\":8781:8848   */\n  tag_126\n  jump\t// in\ntag_237:\n    /* \"#utility.yul\":8774:8848   */\n  swap2\n  pop\n    /* \"#utility.yul\":8857:8950   */\n  tag_238\n    /* \"#utility.yul\":8946:8949   */\n  dup3\n    /* \"#utility.yul\":8857:8950   */\n  tag_127\n  jump\t// in\ntag_238:\n    /* \"#utility.yul\":8975:8977   */\n  0x20\n    /* \"#utility.yul\":8970:8973   */\n  dup3\n    /* \"#utility.yul\":8966:8978   */\n  add\n    /* \"#utility.yul\":8959:8978   */\n  swap1\n  pop\n    /* \"#utility.yul\":8618:8984   */\n  swap2\n  swap1\n  pop\n  jump\t// out\n    /* \"#utility.yul\":8990:9409   */\ntag_34:\n    /* \"#utility.yul\":9156:9160   */\n  0x00\n    /* \"#utility.yul\":9194:9196   */\n  0x20\n    /* \"#utility.yul\":9183:9192   */\n  dup3\n    /* \"#utility.yul\":9179:9197   */\n  add\n    /* \"#utility.yul\":9171:9197   */\n  swap1\n  pop\n    /* \"#utility.yul\":9243:9252   */\n  dup2\n    /* \"#utility.yul\":9237:9241   */\n  dup2\n    /* \"#utility.yul\":9233:9253   */\n  sub\n    /* \"#utility.yul\":9229:9230   */\n  0x00\n    /* \"#utility.yul\":9218:9227   */\n  dup4\n    /* \"#utility.yul\":9214:9231   */\n  add\n    /* \"#utility.yul\":9207:9254   */\n  mstore\n    /* \"#utility.yul\":9271:9402   */\n  tag_240\n    /* \"#utility.yul\":9397:9401   */\n  dup2\n    /* \"#utility.yul\":9271:9402   */\n  tag_128\n  jump\t// in\ntag_240:\n    /* \"#utility.yul\":9263:9402   */\n  swap1\n  pop\n    /* \"#utility.yul\":8990:9409   */\n  swap2\n  swap1\n  pop\n  jump\t// out\n    /* \"#utility.yul\":9415:9606   */\ntag_38:\n    /* \"#utility.yul\":9455:9458   */\n  0x00\n    /* \"#utility.yul\":9474:9494   */\n  tag_242\n    /* \"#utility.yul\":9492:9493   */\n  dup3\n    /* \"#utility.yul\":9474:9494   */\n  tag_109\n  jump\t// in\ntag_242:\n    /* \"#utility.yul\":9469:9494   */\n  swap2\n  pop\n    /* \"#utility.yul\":9508:9528   */\n  tag_243\n    /* \"#utility.yul\":9526:9527   */\n  dup4\n    /* \"#utility.yul\":9508:9528   */\n  tag_109\n  jump\t// in\ntag_243:\n    /* \"#utility.yul\":9503:9528   */\n  swap3\n  pop\n    /* \"#utility.yul\":9551:9552   */\n  dup3\n    /* \"#utility.yul\":9548:9549   */\n  dup3\n    /* \"#utility.yul\":9544:9553   */\n  add\n    /* \"#utility.yul\":9537:9553   */\n  swap1\n  pop\n    /* \"#utility.yul\":9572:9575   */\n  dup1\n    /* \"#utility.yul\":9569:9570   */\n  dup3\n    /* \"#utility.yul\":9566:9576   */\n  gt\n    /* \"#utility.yul\":9563:9599   */\n  iszero\n  tag_244\n  jumpi\n    /* \"#utility.yul\":9579:9597   */\n  tag_245\n  tag_121\n  jump\t// in\ntag_245:\n    /* \"#utility.yul\":9563:9599   */\ntag_244:\n    /* \"#utility.yul\":9415:9606   */\n  swap3\n  swap2\n  pop\n  pop\n  jump\t// out\n    /* \"#utility.yul\":9612:9730   */\ntag_129:\n    /* \"#utility.yul\":9699:9723   */\n  tag_247\n    /* \"#utility.yul\":9717:9722   */\n  dup2\n    /* \"#utility.yul\":9699:9723   */\n  tag_109\n  jump\t// in\ntag_247:\n    /* \"#utility.yul\":9694:9697   */\n  dup3\n    /* \"#utility.yul\":9687:9724   */\n  mstore\n    /* \"#utility.yul\":9612:9730   */\n  pop\n  pop\n  jump\t// out\n    /* \"#utility.yul\":9736:9958   */\ntag_41:\n    /* \"#utility.yul\":9829:9833   */\n  0x00\n    /* \"#utility.yul\":9867:9869   */\n  0x20\n    /* \"#utility.yul\":9856:9865   */\n  dup3\n    /* \"#utility.yul\":9852:9870   */\n  add\n    /* \"#utility.yul\":9844:9870   */\n  swap1\n  pop\n    /* \"#utility.yul\":9880:9951   */\n  tag_249\n    /* \"#utility.yul\":9948:9949   */\n  0x00\n    /* \"#utility.yul\":9937:9946   */\n  dup4\n    /* \"#utility.yul\":9933:9950   */\n  add\n    /* \"#utility.yul\":9924:9930   */\n  dup5\n    /* \"#utility.yul\":9880:9951   */\n  tag_129\n  jump\t// in\ntag_249:\n    /* \"#utility.yul\":9736:9958   */\n  swap3\n  swap2\n  pop\n  pop\n  jump\t// out\n    /* \"#utility.yul\":9964:10143   */\ntag_130:\n    /* \"#utility.yul\":10104:10135   */\n  0x4d61782077616c6c65742063616e6e6f74206265206578636565646564000000\n    /* \"#utility.yul\":10100:10101   */\n  0x00\n    /* \"#utility.yul\":10092:10098   */\n  dup3\n    /* \"#utility.yul\":10088:10102   */\n  add\n    /* \"#utility.yul\":10081:10136   */\n  mstore\n    /* \"#utility.yul\":9964:10143   */\n  pop\n  jump\t// out\n    /* \"#utility.yul\":10149:10515   */\ntag_131:\n    /* \"#utility.yul\":10291:10294   */\n  0x00\n    /* \"#utility.yul\":10312:10379   */\n  tag_252\n    /* \"#utility.yul\":10376:10378   */\n  0x1d\n    /* \"#utility.yul\":10371:10374   */\n  dup4\n    /* \"#utility.yul\":10312:10379   */\n  tag_126\n  jump\t// in\ntag_252:\n    /* \"#utility.yul\":10305:10379   */\n  swap2\n  pop\n    /* \"#utility.yul\":10388:10481   */\n  tag_253\n    /* \"#utility.yul\":10477:10480   */\n  dup3\n    /* \"#utility.yul\":10388:10481   */\n  tag_130\n  jump\t// in\ntag_253:\n    /* \"#utility.yul\":10506:10508   */\n  0x20\n    /* \"#utility.yul\":10501:10504   */\n  dup3\n    /* \"#utility.yul\":10497:10509   */\n  add\n    /* \"#utility.yul\":10490:10509   */\n  swap1\n  pop\n    /* \"#utility.yul\":10149:10515   */\n  swap2\n  swap1\n  pop\n  jump\t// out\n    /* \"#utility.yul\":10521:10940   */\ntag_60:\n    /* \"#utility.yul\":10687:10691   */\n  0x00\n    /* \"#utility.yul\":10725:10727   */\n  0x20\n    /* \"#utility.yul\":10714:10723   */\n  dup3\n    /* \"#utility.yul\":10710:10728   */\n  add\n    /* \"#utility.yul\":10702:10728   */\n  swap1\n  pop\n    /* \"#utility.yul\":10774:10783   */\n  dup2\n    /* \"#utility.yul\":10768:10772   */\n  dup2\n    /* \"#utility.yul\":10764:10784   */\n  sub\n    /* \"#utility.yul\":10760:10761   */\n  0x00\n    /* \"#utility.yul\":10749:10758   */\n  dup4\n    /* \"#utility.yul\":10745:10762   */\n  add\n    /* \"#utility.yul\":10738:10785   */\n  mstore\n    /* \"#utility.yul\":10802:10933   */\n  tag_255\n    /* \"#utility.yul\":10928:10932   */\n  dup2\n    /* \"#utility.yul\":10802:10933   */\n  tag_131\n  jump\t// in\ntag_255:\n    /* \"#utility.yul\":10794:10933   */\n  swap1\n  pop\n    /* \"#utility.yul\":10521:10940   */\n  swap2\n  swap1\n  pop\n  jump\t// out\n    /* \"#utility.yul\":10946:11126   */\ntag_132:\n    /* \"#utility.yul\":10994:11071   */\n  0x4e487b7100000000000000000000000000000000000000000000000000000000\n    /* \"#utility.yul\":10991:10992   */\n  0x00\n    /* \"#utility.yul\":10984:11072   */\n  mstore\n    /* \"#utility.yul\":11091:11095   */\n  0x12\n    /* \"#utility.yul\":11088:11089   */\n  0x04\n    /* \"#utility.yul\":11081:11096   */\n  mstore\n    /* \"#utility.yul\":11115:11119   */\n  0x24\n    /* \"#utility.yul\":11112:11113   */\n  0x00\n    /* \"#utility.yul\":11105:11120   */\n  revert\n    /* \"#utility.yul\":11132:11317   */\ntag_69:\n    /* \"#utility.yul\":11172:11173   */\n  0x00\n    /* \"#utility.yul\":11189:11209   */\n  tag_258\n    /* \"#utility.yul\":11207:11208   */\n  dup3\n    /* \"#utility.yul\":11189:11209   */\n  tag_109\n  jump\t// in\ntag_258:\n    /* \"#utility.yul\":11184:11209   */\n  swap2\n  pop\n    /* \"#utility.yul\":11223:11243   */\n  tag_259\n    /* \"#utility.yul\":11241:11242   */\n  dup4\n    /* \"#utility.yul\":11223:11243   */\n  tag_109\n  jump\t// in\ntag_259:\n    /* \"#utility.yul\":11218:11243   */\n  swap3\n  pop\n    /* \"#utility.yul\":11262:11263   */\n  dup3\n    /* \"#utility.yul\":11252:11287   */\n  tag_260\n  jumpi\n    /* \"#utility.yul\":11267:11285   */\n  tag_261\n  tag_132\n  jump\t// in\ntag_261:\n    /* \"#utility.yul\":11252:11287   */\ntag_260:\n    /* \"#utility.yul\":11309:11310   */\n  dup3\n    /* \"#utility.yul\":11306:11307   */\n  dup3\n    /* \"#utility.yul\":11302:11311   */\n  div\n    /* \"#utility.yul\":11297:11311   */\n  swap1\n  pop\n    /* \"#utility.yul\":11132:11317   */\n  swap3\n  swap2\n  pop\n  pop\n  jump\t// out\n    /* \"#utility.yul\":11323:11503   */\ntag_133:\n    /* \"#utility.yul\":11463:11495   */\n  0x45786365656473206d6178207472616e73616374696f6e20616d6f756e740000\n    /* \"#utility.yul\":11459:11460   */\n  0x00\n    /* \"#utility.yul\":11451:11457   */\n  dup3\n    /* \"#utility.yul\":11447:11461   */\n  add\n    /* \"#utility.yul\":11440:11496   */\n  mstore\n    /* \"#utility.yul\":11323:11503   */\n  pop\n  jump\t// out\n    /* \"#utility.yul\":11509:11875   */\ntag_134:\n    /* \"#utility.yul\":11651:11654   */\n  0x00\n    /* \"#utility.yul\":11672:11739   */\n  tag_264\n    /* \"#utility.yul\":11736:11738   */\n  0x1e\n    /* \"#utility.yul\":11731:11734   */\n  dup4\n    /* \"#utility.yul\":11672:11739   */\n  tag_126\n  jump\t// in\ntag_264:\n    /* \"#utility.yul\":11665:11739   */\n  swap2\n  pop\n    /* \"#utility.yul\":11748:11841   */\n  tag_265\n    /* \"#utility.yul\":11837:11840   */\n  dup3\n    /* \"#utility.yul\":11748:11841   */\n  tag_133\n  jump\t// in\ntag_265:\n    /* \"#utility.yul\":11866:11868   */\n  0x20\n    /* \"#utility.yul\":11861:11864   */\n  dup3\n    /* \"#utility.yul\":11857:11869   */\n  add\n    /* \"#utility.yul\":11850:11869   */\n  swap1\n  pop\n    /* \"#utility.yul\":11509:11875   */\n  swap2\n  swap1\n  pop\n  jump\t// out\n    /* \"#utility.yul\":11881:12300   */\ntag_92:\n    /* \"#utility.yul\":12047:12051   */\n  0x00\n    /* \"#utility.yul\":12085:12087   */\n  0x20\n    /* \"#utility.yul\":12074:12083   */\n  dup3\n    /* \"#utility.yul\":12070:12088   */\n  add\n    /* \"#utility.yul\":12062:12088   */\n  swap1\n  pop\n    /* \"#utility.yul\":12134:12143   */\n  dup2\n    /* \"#utility.yul\":12128:12132   */\n  dup2\n    /* \"#utility.yul\":12124:12144   */\n  sub\n    /* \"#utility.yul\":12120:12121   */\n  0x00\n    /* \"#utility.yul\":12109:12118   */\n  dup4\n    /* \"#utility.yul\":12105:12122   */\n  add\n    /* \"#utility.yul\":12098:12145   */\n  mstore\n    /* \"#utility.yul\":12162:12293   */\n  tag_267\n    /* \"#utility.yul\":12288:12292   */\n  dup2\n    /* \"#utility.yul\":12162:12293   */\n  tag_134\n  jump\t// in\ntag_267:\n    /* \"#utility.yul\":12154:12293   */\n  swap1\n  pop\n    /* \"#utility.yul\":11881:12300   */\n  swap2\n  swap1\n  pop\n  jump\t// out\n    /* \"contracts/shia.sol\":8920:11643  contract SHIA is ERC20, Ownable {... */\ntag_28:\n  dataSize(sub_0)\n  dup1\n  dataOffset(sub_0)\n  0x00\n  codecopy\n  0x00\n  return\nstop\n\nsub_0: assembly {\n        /* \"contracts/shia.sol\":8920:11643  contract SHIA is ERC20, Ownable {... */\n      mstore(0x40, 0x80)\n      jumpi(tag_1, lt(calldatasize, 0x04))\n      shr(0xe0, calldataload(0x00))\n      dup1\n      0x715018a6\n      gt\n      tag_22\n      jumpi\n      dup1\n      0xa01c3483\n      gt\n      tag_23\n      jumpi\n      dup1\n      0xa01c3483\n      eq\n      tag_17\n      jumpi\n      dup1\n      0xa457c2d7\n      eq\n      tag_18\n      jumpi\n      dup1\n      0xa9059cbb\n      eq\n      tag_19\n      jumpi\n      dup1\n      0xdd62ed3e\n      eq\n      tag_20\n      jumpi\n      dup1\n      0xf2fde38b\n      eq\n      tag_21\n      jumpi\n      jump(tag_2)\n    tag_23:\n      dup1\n      0x715018a6\n      eq\n      tag_12\n      jumpi\n      dup1\n      0x89f9a1d3\n      eq\n      tag_13\n      jumpi\n      dup1\n      0x8c0b5e22\n      eq\n      tag_14\n      jumpi\n      dup1\n      0x8da5cb5b\n      eq\n      tag_15\n      jumpi\n      dup1\n      0x95d89b41\n      eq\n      tag_16\n      jumpi\n      jump(tag_2)\n    tag_22:\n      dup1\n      0x313ce567\n      gt\n      tag_24\n      jumpi\n      dup1\n      0x313ce567\n      eq\n      tag_7\n      jumpi\n      dup1\n      0x39509351\n      eq\n      tag_8\n      jumpi\n      dup1\n      0x42966c68\n      eq\n      tag_9\n      jumpi\n      dup1\n      0x6f268a99\n      eq\n      tag_10\n      jumpi\n      dup1\n      0x70a08231\n      eq\n      tag_11\n      jumpi\n      jump(tag_2)\n    tag_24:\n      dup1\n      0x06fdde03\n      eq\n      tag_3\n      jumpi\n      dup1\n      0x095ea7b3\n      eq\n      tag_4\n      jumpi\n      dup1\n      0x18160ddd\n      eq\n      tag_5\n      jumpi\n      dup1\n      0x23b872dd\n      eq\n      tag_6\n      jumpi\n      jump(tag_2)\n    tag_1:\n      jumpi(tag_2, calldatasize)\n      stop\n    tag_2:\n      0x00\n      dup1\n      revert\n        /* \"contracts/shia.sol\":4170:4268  function name() public view virtual override returns (string memory) {... */\n    tag_3:\n      callvalue\n      dup1\n      iszero\n      tag_27\n      jumpi\n      0x00\n      dup1\n      revert\n    tag_27:\n      pop\n      tag_28\n      tag_29\n      jump\t// in\n    tag_28:\n      mload(0x40)\n      tag_30\n      swap2\n      swap1\n      tag_31\n      jump\t// in\n    tag_30:\n      mload(0x40)\n      dup1\n      swap2\n      sub\n      swap1\n      return\n        /* \"contracts/shia.sol\":5447:5649  function approve(address spender, uint256 amount)... */\n    tag_4:\n      callvalue\n      dup1\n      iszero\n      tag_32\n      jumpi\n      0x00\n      dup1\n      revert\n    tag_32:\n      pop\n      tag_33\n      0x04\n      dup1\n      calldatasize\n      sub\n      dup2\n      add\n      swap1\n      tag_34\n      swap2\n      swap1\n      tag_35\n      jump\t// in\n    tag_34:\n      tag_36\n      jump\t// in\n    tag_33:\n      mload(0x40)\n      tag_37\n      swap2\n      swap1\n      tag_38\n      jump\t// in\n    tag_37:\n      mload(0x40)\n      dup1\n      swap2\n      sub\n      swap1\n      return\n        /* \"contracts/shia.sol\":4641:4747  function totalSupply() public view virtual override returns (uint256) {... */\n    tag_5:\n      callvalue\n      dup1\n      iszero\n      tag_39\n      jumpi\n      0x00\n      dup1\n      revert\n    tag_39:\n      pop\n      tag_40\n      tag_41\n      jump\t// in\n    tag_40:\n      mload(0x40)\n      tag_42\n      swap2\n      swap1\n      tag_43\n      jump\t// in\n    tag_42:\n      mload(0x40)\n      dup1\n      swap2\n      sub\n      swap1\n      return\n        /* \"contracts/shia.sol\":5656:6134  function transferFrom(... */\n    tag_6:\n      callvalue\n      dup1\n      iszero\n      tag_44\n      jumpi\n      0x00\n      dup1\n      revert\n    tag_44:\n      pop\n      tag_45\n      0x04\n      dup1\n      calldatasize\n      sub\n      dup2\n      add\n      swap1\n      tag_46\n      swap2\n      swap1\n      tag_47\n      jump\t// in\n    tag_46:\n      tag_48\n      jump\t// in\n    tag_45:\n      mload(0x40)\n      tag_49\n      swap2\n      swap1\n      tag_38\n      jump\t// in\n    tag_49:\n      mload(0x40)\n      dup1\n      swap2\n      sub\n      swap1\n      return\n        /* \"contracts/shia.sol\":4490:4581  function decimals() public view virtual override returns (uint8) {... */\n    tag_7:\n      callvalue\n      dup1\n      iszero\n      tag_50\n      jumpi\n      0x00\n      dup1\n      revert\n    tag_50:\n      pop\n      tag_51\n      tag_52\n      jump\t// in\n    tag_51:\n      mload(0x40)\n      tag_53\n      swap2\n      swap1\n      tag_54\n      jump\t// in\n    tag_53:\n      mload(0x40)\n      dup1\n      swap2\n      sub\n      swap1\n      return\n        /* \"contracts/shia.sol\":6141:6427  function increaseAllowance(address spender, uint256 addedValue)... */\n    tag_8:\n      callvalue\n      dup1\n      iszero\n      tag_55\n      jumpi\n      0x00\n      dup1\n      revert\n    tag_55:\n      pop\n      tag_56\n      0x04\n      dup1\n      calldatasize\n      sub\n      dup2\n      add\n      swap1\n      tag_57\n      swap2\n      swap1\n      tag_35\n      jump\t// in\n    tag_57:\n      tag_58\n      jump\t// in\n    tag_56:\n      mload(0x40)\n      tag_59\n      swap2\n      swap1\n      tag_38\n      jump\t// in\n    tag_59:\n      mload(0x40)\n      dup1\n      swap2\n      sub\n      swap1\n      return\n        /* \"contracts/shia.sol\":11431:11510  function burn(uint256 value) external {... */\n    tag_9:\n      callvalue\n      dup1\n      iszero\n      tag_60\n      jumpi\n      0x00\n      dup1\n      revert\n    tag_60:\n      pop\n      tag_61\n      0x04\n      dup1\n      calldatasize\n      sub\n      dup2\n      add\n      swap1\n      tag_62\n      swap2\n      swap1\n      tag_63\n      jump\t// in\n    tag_62:\n      tag_64\n      jump\t// in\n    tag_61:\n      stop\n        /* \"contracts/shia.sol\":9027:9060  address payable public _taxWallet */\n    tag_10:\n      callvalue\n      dup1\n      iszero\n      tag_65\n      jumpi\n      0x00\n      dup1\n      revert\n    tag_65:\n      pop\n      tag_66\n      tag_67\n      jump\t// in\n    tag_66:\n      mload(0x40)\n      tag_68\n      swap2\n      swap1\n      tag_69\n      jump\t// in\n    tag_68:\n      mload(0x40)\n      dup1\n      swap2\n      sub\n      swap1\n      return\n        /* \"contracts/shia.sol\":4805:4974  function balanceOf(address account)... */\n    tag_11:\n      callvalue\n      dup1\n      iszero\n      tag_70\n      jumpi\n      0x00\n      dup1\n      revert\n    tag_70:\n      pop\n      tag_71\n      0x04\n      dup1\n      calldatasize\n      sub\n      dup2\n      add\n      swap1\n      tag_72\n      swap2\n      swap1\n      tag_73\n      jump\t// in\n    tag_72:\n      tag_74\n      jump\t// in\n    tag_71:\n      mload(0x40)\n      tag_75\n      swap2\n      swap1\n      tag_43\n      jump\t// in\n    tag_75:\n      mload(0x40)\n      dup1\n      swap2\n      sub\n      swap1\n      return\n        /* \"contracts/shia.sol\":1362:1507  function renounceOwnership() public virtual onlyOwner {... */\n    tag_12:\n      callvalue\n      dup1\n      iszero\n      tag_76\n      jumpi\n      0x00\n      dup1\n      revert\n    tag_76:\n      pop\n      tag_77\n      tag_78\n      jump\t// in\n    tag_77:\n      stop\n        /* \"contracts/shia.sol\":8958:8989  uint256 public maxHoldingAmount */\n    tag_13:\n      callvalue\n      dup1\n      iszero\n      tag_79\n      jumpi\n      0x00\n      dup1\n      revert\n    tag_79:\n      pop\n      tag_80\n      tag_81\n      jump\t// in\n    tag_80:\n      mload(0x40)\n      tag_82\n      swap2\n      swap1\n      tag_43\n      jump\t// in\n    tag_82:\n      mload(0x40)\n      dup1\n      swap2\n      sub\n      swap1\n      return\n        /* \"contracts/shia.sol\":8995:9021  uint256 public maxTxAmount */\n    tag_14:\n      callvalue\n      dup1\n      iszero\n      tag_83\n      jumpi\n      0x00\n      dup1\n      revert\n    tag_83:\n      pop\n      tag_84\n      tag_85\n      jump\t// in\n    tag_84:\n      mload(0x40)\n      tag_86\n      swap2\n      swap1\n      tag_43\n      jump\t// in\n    tag_86:\n      mload(0x40)\n      dup1\n      swap2\n      sub\n      swap1\n      return\n        /* \"contracts/shia.sol\":1066:1151  function owner() public view virtual returns (address) {... */\n    tag_15:\n      callvalue\n      dup1\n      iszero\n      tag_87\n      jumpi\n      0x00\n      dup1\n      revert\n    tag_87:\n      pop\n      tag_88\n      tag_89\n      jump\t// in\n    tag_88:\n      mload(0x40)\n      tag_90\n      swap2\n      swap1\n      tag_91\n      jump\t// in\n    tag_90:\n      mload(0x40)\n      dup1\n      swap2\n      sub\n      swap1\n      return\n        /* \"contracts/shia.sol\":4381:4483  function symbol() public view virtual override returns (string memory) {... */\n    tag_16:\n      callvalue\n      dup1\n      iszero\n      tag_92\n      jumpi\n      0x00\n      dup1\n      revert\n    tag_92:\n      pop\n      tag_93\n      tag_94\n      jump\t// in\n    tag_93:\n      mload(0x40)\n      tag_95\n      swap2\n      swap1\n      tag_31\n      jump\t// in\n    tag_95:\n      mload(0x40)\n      dup1\n      swap2\n      sub\n      swap1\n      return\n        /* \"contracts/shia.sol\":9107:9195  address public constant DEAD_WALLET =... */\n    tag_17:\n      callvalue\n      dup1\n      iszero\n      tag_96\n      jumpi\n      0x00\n      dup1\n      revert\n    tag_96:\n      pop\n      tag_97\n      tag_98\n      jump\t// in\n    tag_97:\n      mload(0x40)\n      tag_99\n      swap2\n      swap1\n      tag_91\n      jump\t// in\n    tag_99:\n      mload(0x40)\n      dup1\n      swap2\n      sub\n      swap1\n      return\n        /* \"contracts/shia.sol\":6434:6867  function decreaseAllowance(address spender, uint256 subtractedValue)... */\n    tag_18:\n      callvalue\n      dup1\n      iszero\n      tag_100\n      jumpi\n      0x00\n      dup1\n      revert\n    tag_100:\n      pop\n      tag_101\n      0x04\n      dup1\n      calldatasize\n      sub\n      dup2\n      add\n      swap1\n      tag_102\n      swap2\n      swap1\n      tag_35\n      jump\t// in\n    tag_102:\n      tag_103\n      jump\t// in\n    tag_101:\n      mload(0x40)\n      tag_104\n      swap2\n      swap1\n      tag_38\n      jump\t// in\n    tag_104:\n      mload(0x40)\n      dup1\n      swap2\n      sub\n      swap1\n      return\n        /* \"contracts/shia.sol\":4981:5189  function transfer(address recipient, uint256 amount)... */\n    tag_19:\n      callvalue\n      dup1\n      iszero\n      tag_105\n      jumpi\n      0x00\n      dup1\n      revert\n    tag_105:\n      pop\n      tag_106\n      0x04\n      dup1\n      calldatasize\n      sub\n      dup2\n      add\n      swap1\n      tag_107\n      swap2\n      swap1\n      tag_35\n      jump\t// in\n    tag_107:\n      tag_108\n      jump\t// in\n    tag_106:\n      mload(0x40)\n      tag_109\n      swap2\n      swap1\n      tag_38\n      jump\t// in\n    tag_109:\n      mload(0x40)\n      dup1\n      swap2\n      sub\n      swap1\n      return\n        /* \"contracts/shia.sol\":5247:5440  function allowance(address owner, address spender)... */\n    tag_20:\n      callvalue\n      dup1\n      iszero\n      tag_110\n      jumpi\n      0x00\n      dup1\n      revert\n    tag_110:\n      pop\n      tag_111\n      0x04\n      dup1\n      calldatasize\n      sub\n      dup2\n      add\n      swap1\n      tag_112\n      swap2\n      swap1\n      tag_113\n      jump\t// in\n    tag_112:\n      tag_114\n      jump\t// in\n    tag_111:\n      mload(0x40)\n      tag_115\n      swap2\n      swap1\n      tag_43\n      jump\t// in\n    tag_115:\n      mload(0x40)\n      dup1\n      swap2\n      sub\n      swap1\n      return\n        /* \"contracts/shia.sol\":1656:1930  function transferOwnership(address newOwner) public virtual onlyOwner {... */\n    tag_21:\n      callvalue\n      dup1\n      iszero\n      tag_116\n      jumpi\n      0x00\n      dup1\n      revert\n    tag_116:\n      pop\n      tag_117\n      0x04\n      dup1\n      calldatasize\n      sub\n      dup2\n      add\n      swap1\n      tag_118\n      swap2\n      swap1\n      tag_73\n      jump\t// in\n    tag_118:\n      tag_119\n      jump\t// in\n    tag_117:\n      stop\n        /* \"contracts/shia.sol\":4170:4268  function name() public view virtual override returns (string memory) {... */\n    tag_29:\n        /* \"contracts/shia.sol\":4224:4237  string memory */\n      0x60\n        /* \"contracts/shia.sol\":4256:4261  _name */\n      0x03\n        /* \"contracts/shia.sol\":4249:4261  return _name */\n      dup1\n      sload\n      tag_121\n      swap1\n      tag_122\n      jump\t// in\n    tag_121:\n      dup1\n      0x1f\n      add\n      0x20\n      dup1\n      swap2\n      div\n      mul\n      0x20\n      add\n      mload(0x40)\n      swap1\n      dup2\n      add\n      0x40\n      mstore\n      dup1\n      swap3\n      swap2\n      swap1\n      dup2\n      dup2\n      mstore\n      0x20\n      add\n      dup3\n      dup1\n      sload\n      tag_123\n      swap1\n      tag_122\n      jump\t// in\n    tag_123:\n      dup1\n      iszero\n      tag_124\n      jumpi\n      dup1\n      0x1f\n      lt\n      tag_125\n      jumpi\n      0x0100\n      dup1\n      dup4\n      sload\n      div\n      mul\n      dup4\n      mstore\n      swap2\n      0x20\n      add\n      swap2\n      jump(tag_124)\n    tag_125:\n      dup3\n      add\n      swap2\n      swap1\n      0x00\n      mstore\n      keccak256(0x00, 0x20)\n      swap1\n    tag_126:\n      dup2\n      sload\n      dup2\n      mstore\n      swap1\n      0x01\n      add\n      swap1\n      0x20\n      add\n      dup1\n      dup4\n      gt\n      tag_126\n      jumpi\n      dup3\n      swap1\n      sub\n      0x1f\n      and\n      dup3\n      add\n      swap2\n    tag_124:\n      pop\n      pop\n      pop\n      pop\n      pop\n      swap1\n      pop\n        /* \"contracts/shia.sol\":4170:4268  function name() public view virtual override returns (string memory) {... */\n      swap1\n      jump\t// out\n        /* \"contracts/shia.sol\":5447:5649  function approve(address spender, uint256 amount)... */\n    tag_36:\n        /* \"contracts/shia.sol\":5562:5566  bool */\n      0x00\n        /* \"contracts/shia.sol\":5582:5621  _approve(_msgSender(), spender, amount) */\n      tag_128\n        /* \"contracts/shia.sol\":5591:5603  _msgSender() */\n      tag_129\n        /* \"contracts/shia.sol\":5591:5601  _msgSender */\n      tag_130\n        /* \"contracts/shia.sol\":5591:5603  _msgSender() */\n      jump\t// in\n    tag_129:\n        /* \"contracts/shia.sol\":5605:5612  spender */\n      dup5\n        /* \"contracts/shia.sol\":5614:5620  amount */\n      dup5\n        /* \"contracts/shia.sol\":5582:5590  _approve */\n      tag_131\n        /* \"contracts/shia.sol\":5582:5621  _approve(_msgSender(), spender, amount) */\n      jump\t// in\n    tag_128:\n        /* \"contracts/shia.sol\":5638:5642  true */\n      0x01\n        /* \"contracts/shia.sol\":5631:5642  return true */\n      swap1\n      pop\n        /* \"contracts/shia.sol\":5447:5649  function approve(address spender, uint256 amount)... */\n      swap3\n      swap2\n      pop\n      pop\n      jump\t// out\n        /* \"contracts/shia.sol\":4641:4747  function totalSupply() public view virtual override returns (uint256) {... */\n    tag_41:\n        /* \"contracts/shia.sol\":4702:4709  uint256 */\n      0x00\n        /* \"contracts/shia.sol\":4728:4740  _totalSupply */\n      sload(0x02)\n        /* \"contracts/shia.sol\":4721:4740  return _totalSupply */\n      swap1\n      pop\n        /* \"contracts/shia.sol\":4641:4747  function totalSupply() public view virtual override returns (uint256) {... */\n      swap1\n      jump\t// out\n        /* \"contracts/shia.sol\":5656:6134  function transferFrom(... */\n    tag_48:\n        /* \"contracts/shia.sol\":5792:5796  bool */\n      0x00\n        /* \"contracts/shia.sol\":5808:5844  _transfer(sender, recipient, amount) */\n      tag_134\n        /* \"contracts/shia.sol\":5818:5824  sender */\n      dup5\n        /* \"contracts/shia.sol\":5826:5835  recipient */\n      dup5\n        /* \"contracts/shia.sol\":5837:5843  amount */\n      dup5\n        /* \"contracts/shia.sol\":5808:5817  _transfer */\n      tag_135\n        /* \"contracts/shia.sol\":5808:5844  _transfer(sender, recipient, amount) */\n      jump\t// in\n    tag_134:\n        /* \"contracts/shia.sol\":5855:5879  uint256 currentAllowance */\n      0x00\n        /* \"contracts/shia.sol\":5882:5893  _allowances */\n      0x01\n        /* \"contracts/shia.sol\":5882:5901  _allowances[sender] */\n      0x00\n        /* \"contracts/shia.sol\":5894:5900  sender */\n      dup7\n        /* \"contracts/shia.sol\":5882:5901  _allowances[sender] */\n      0xffffffffffffffffffffffffffffffffffffffff\n      and\n      0xffffffffffffffffffffffffffffffffffffffff\n      and\n      dup2\n      mstore\n      0x20\n      add\n      swap1\n      dup2\n      mstore\n      0x20\n      add\n      0x00\n      keccak256\n        /* \"contracts/shia.sol\":5882:5915  _allowances[sender][_msgSender()] */\n      0x00\n        /* \"contracts/shia.sol\":5902:5914  _msgSender() */\n      tag_136\n        /* \"contracts/shia.sol\":5902:5912  _msgSender */\n      tag_130\n        /* \"contracts/shia.sol\":5902:5914  _msgSender() */\n      jump\t// in\n    tag_136:\n        /* \"contracts/shia.sol\":5882:5915  _allowances[sender][_msgSender()] */\n      0xffffffffffffffffffffffffffffffffffffffff\n      and\n      0xffffffffffffffffffffffffffffffffffffffff\n      and\n      dup2\n      mstore\n      0x20\n      add\n      swap1\n      dup2\n      mstore\n      0x20\n      add\n      0x00\n      keccak256\n      sload\n        /* \"contracts/shia.sol\":5855:5915  uint256 currentAllowance = _allowances[sender][_msgSender()] */\n      swap1\n      pop\n        /* \"contracts/shia.sol\":5966:5972  amount */\n      dup3\n        /* \"contracts/shia.sol\":5946:5962  currentAllowance */\n      dup2\n        /* \"contracts/shia.sol\":5946:5972  currentAllowance >= amount */\n      lt\n      iszero\n        /* \"contracts/shia.sol\":5925:6038  require(... */\n      tag_137\n      jumpi\n      mload(0x40)\n      0x08c379a000000000000000000000000000000000000000000000000000000000\n      dup2\n      mstore\n      0x04\n      add\n      tag_138\n      swap1\n      tag_139\n      jump\t// in\n    tag_138:\n      mload(0x40)\n      dup1\n      swap2\n      sub\n      swap1\n      revert\n    tag_137:\n        /* \"contracts/shia.sol\":6048:6105  _approve(sender, _msgSender(), currentAllowance - amount) */\n      tag_140\n        /* \"contracts/shia.sol\":6057:6063  sender */\n      dup6\n        /* \"contracts/shia.sol\":6065:6077  _msgSender() */\n      tag_141\n        /* \"contracts/shia.sol\":6065:6075  _msgSender */\n      tag_130\n        /* \"contracts/shia.sol\":6065:6077  _msgSender() */\n      jump\t// in\n    tag_141:\n        /* \"contracts/shia.sol\":6098:6104  amount */\n      dup6\n        /* \"contracts/shia.sol\":6079:6095  currentAllowance */\n      dup5\n        /* \"contracts/shia.sol\":6079:6104  currentAllowance - amount */\n      tag_142\n      swap2\n      swap1\n      tag_143\n      jump\t// in\n    tag_142:\n        /* \"contracts/shia.sol\":6048:6056  _approve */\n      tag_131\n        /* \"contracts/shia.sol\":6048:6105  _approve(sender, _msgSender(), currentAllowance - amount) */\n      jump\t// in\n    tag_140:\n        /* \"contracts/shia.sol\":6123:6127  true */\n      0x01\n        /* \"contracts/shia.sol\":6116:6127  return true */\n      swap2\n      pop\n      pop\n        /* \"contracts/shia.sol\":5656:6134  function transferFrom(... */\n      swap4\n      swap3\n      pop\n      pop\n      pop\n      jump\t// out\n        /* \"contracts/shia.sol\":4490:4581  function decimals() public view virtual override returns (uint8) {... */\n    tag_52:\n        /* \"contracts/shia.sol\":4548:4553  uint8 */\n      0x00\n        /* \"contracts/shia.sol\":4572:4574  18 */\n      0x12\n        /* \"contracts/shia.sol\":4565:4574  return 18 */\n      swap1\n      pop\n        /* \"contracts/shia.sol\":4490:4581  function decimals() public view virtual override returns (uint8) {... */\n      swap1\n      jump\t// out\n        /* \"contracts/shia.sol\":6141:6427  function increaseAllowance(address spender, uint256 addedValue)... */\n    tag_58:\n        /* \"contracts/shia.sol\":6253:6257  bool */\n      0x00\n        /* \"contracts/shia.sol\":6273:6399  _approve(... */\n      tag_146\n        /* \"contracts/shia.sol\":6295:6307  _msgSender() */\n      tag_147\n        /* \"contracts/shia.sol\":6295:6305  _msgSender */\n      tag_130\n        /* \"contracts/shia.sol\":6295:6307  _msgSender() */\n      jump\t// in\n    tag_147:\n        /* \"contracts/shia.sol\":6321:6328  spender */\n      dup5\n        /* \"contracts/shia.sol\":6379:6389  addedValue */\n      dup5\n        /* \"contracts/shia.sol\":6342:6353  _allowances */\n      0x01\n        /* \"contracts/shia.sol\":6342:6367  _allowances[_msgSender()] */\n      0x00\n        /* \"contracts/shia.sol\":6354:6366  _msgSender() */\n      tag_148\n        /* \"contracts/shia.sol\":6354:6364  _msgSender */\n      tag_130\n        /* \"contracts/shia.sol\":6354:6366  _msgSender() */\n      jump\t// in\n    tag_148:\n        /* \"contracts/shia.sol\":6342:6367  _allowances[_msgSender()] */\n      0xffffffffffffffffffffffffffffffffffffffff\n      and\n      0xffffffffffffffffffffffffffffffffffffffff\n      and\n      dup2\n      mstore\n      0x20\n      add\n      swap1\n      dup2\n      mstore\n      0x20\n      add\n      0x00\n      keccak256\n        /* \"contracts/shia.sol\":6342:6376  _allowances[_msgSender()][spender] */\n      0x00\n        /* \"contracts/shia.sol\":6368:6375  spender */\n      dup9\n        /* \"contracts/shia.sol\":6342:6376  _allowances[_msgSender()][spender] */\n      0xffffffffffffffffffffffffffffffffffffffff\n      and\n      0xffffffffffffffffffffffffffffffffffffffff\n      and\n      dup2\n      mstore\n      0x20\n      add\n      swap1\n      dup2\n      mstore\n      0x20\n      add\n      0x00\n      keccak256\n      sload\n        /* \"contracts/shia.sol\":6342:6389  _allowances[_msgSender()][spender] + addedValue */\n      tag_149\n      swap2\n      swap1\n      tag_150\n      jump\t// in\n    tag_149:\n        /* \"contracts/shia.sol\":6273:6281  _approve */\n      tag_131\n        /* \"contracts/shia.sol\":6273:6399  _approve(... */\n      jump\t// in\n    tag_146:\n        /* \"contracts/shia.sol\":6416:6420  true */\n      0x01\n        /* \"contracts/shia.sol\":6409:6420  return true */\n      swap1\n      pop\n        /* \"contracts/shia.sol\":6141:6427  function increaseAllowance(address spender, uint256 addedValue)... */\n      swap3\n      swap2\n      pop\n      pop\n      jump\t// out\n        /* \"contracts/shia.sol\":11431:11510  function burn(uint256 value) external {... */\n    tag_64:\n        /* \"contracts/shia.sol\":11479:11503  _burn(msg.sender, value) */\n      tag_152\n        /* \"contracts/shia.sol\":11485:11495  msg.sender */\n      caller\n        /* \"contracts/shia.sol\":11497:11502  value */\n      dup3\n        /* \"contracts/shia.sol\":11479:11484  _burn */\n      tag_153\n        /* \"contracts/shia.sol\":11479:11503  _burn(msg.sender, value) */\n      jump\t// in\n    tag_152:\n        /* \"contracts/shia.sol\":11431:11510  function burn(uint256 value) external {... */\n      pop\n      jump\t// out\n        /* \"contracts/shia.sol\":9027:9060  address payable public _taxWallet */\n    tag_67:\n      0x08\n      0x00\n      swap1\n      sload\n      swap1\n      0x0100\n      exp\n      swap1\n      div\n      0xffffffffffffffffffffffffffffffffffffffff\n      and\n      dup2\n      jump\t// out\n        /* \"contracts/shia.sol\":4805:4974  function balanceOf(address account)... */\n    tag_74:\n        /* \"contracts/shia.sol\":4919:4926  uint256 */\n      0x00\n        /* \"contracts/shia.sol\":4949:4958  _balances */\n      dup1\n        /* \"contracts/shia.sol\":4949:4967  _balances[account] */\n      0x00\n        /* \"contracts/shia.sol\":4959:4966  account */\n      dup4\n        /* \"contracts/shia.sol\":4949:4967  _balances[account] */\n      0xffffffffffffffffffffffffffffffffffffffff\n      and\n      0xffffffffffffffffffffffffffffffffffffffff\n      and\n      dup2\n      mstore\n      0x20\n      add\n      swap1\n      dup2\n      mstore\n      0x20\n      add\n      0x00\n      keccak256\n      sload\n        /* \"contracts/shia.sol\":4942:4967  return _balances[account] */\n      swap1\n      pop\n        /* \"contracts/shia.sol\":4805:4974  function balanceOf(address account)... */\n      swap2\n      swap1\n      pop\n      jump\t// out\n        /* \"contracts/shia.sol\":1362:1507  function renounceOwnership() public virtual onlyOwner {... */\n    tag_78:\n        /* \"contracts/shia.sol\":1289:1301  _msgSender() */\n      tag_156\n        /* \"contracts/shia.sol\":1289:1299  _msgSender */\n      tag_130\n        /* \"contracts/shia.sol\":1289:1301  _msgSender() */\n      jump\t// in\n    tag_156:\n        /* \"contracts/shia.sol\":1278:1301  owner() == _msgSender() */\n      0xffffffffffffffffffffffffffffffffffffffff\n      and\n        /* \"contracts/shia.sol\":1278:1285  owner() */\n      tag_157\n        /* \"contracts/shia.sol\":1278:1283  owner */\n      tag_89\n        /* \"contracts/shia.sol\":1278:1285  owner() */\n      jump\t// in\n    tag_157:\n        /* \"contracts/shia.sol\":1278:1301  owner() == _msgSender() */\n      0xffffffffffffffffffffffffffffffffffffffff\n      and\n      eq\n        /* \"contracts/shia.sol\":1270:1338  require(owner() == _msgSender(), \"Ownable: caller is not the owner\") */\n      tag_158\n      jumpi\n      mload(0x40)\n      0x08c379a000000000000000000000000000000000000000000000000000000000\n      dup2\n      mstore\n      0x04\n      add\n      tag_159\n      swap1\n      tag_160\n      jump\t// in\n    tag_159:\n      mload(0x40)\n      dup1\n      swap2\n      sub\n      swap1\n      revert\n    tag_158:\n        /* \"contracts/shia.sol\":1468:1469  0 */\n      0x00\n        /* \"contracts/shia.sol\":1431:1471  OwnershipTransferred(_owner, address(0)) */\n      0xffffffffffffffffffffffffffffffffffffffff\n      and\n        /* \"contracts/shia.sol\":1452:1458  _owner */\n      0x05\n      0x00\n      swap1\n      sload\n      swap1\n      0x0100\n      exp\n      swap1\n      div\n      0xffffffffffffffffffffffffffffffffffffffff\n      and\n        /* \"contracts/shia.sol\":1431:1471  OwnershipTransferred(_owner, address(0)) */\n      0xffffffffffffffffffffffffffffffffffffffff\n      and\n      0x8be0079c531659141344cd1fd0a4f28419497f9722a3daafe3b4186f6b6457e0\n      mload(0x40)\n      mload(0x40)\n      dup1\n      swap2\n      sub\n      swap1\n      log3\n        /* \"contracts/shia.sol\":1498:1499  0 */\n      0x00\n        /* \"contracts/shia.sol\":1481:1487  _owner */\n      0x05\n      0x00\n        /* \"contracts/shia.sol\":1481:1500  _owner = address(0) */\n      0x0100\n      exp\n      dup2\n      sload\n      dup2\n      0xffffffffffffffffffffffffffffffffffffffff\n      mul\n      not\n      and\n      swap1\n      dup4\n      0xffffffffffffffffffffffffffffffffffffffff\n      and\n      mul\n      or\n      swap1\n      sstore\n      pop\n        /* \"contracts/shia.sol\":1362:1507  function renounceOwnership() public virtual onlyOwner {... */\n      jump\t// out\n        /* \"contracts/shia.sol\":8958:8989  uint256 public maxHoldingAmount */\n    tag_81:\n      sload(0x06)\n      dup2\n      jump\t// out\n        /* \"contracts/shia.sol\":8995:9021  uint256 public maxTxAmount */\n    tag_85:\n      sload(0x07)\n      dup2\n      jump\t// out\n        /* \"contracts/shia.sol\":1066:1151  function owner() public view virtual returns (address) {... */\n    tag_89:\n        /* \"contracts/shia.sol\":1112:1119  address */\n      0x00\n        /* \"contracts/shia.sol\":1138:1144  _owner */\n      0x05\n      0x00\n      swap1\n      sload\n      swap1\n      0x0100\n      exp\n      swap1\n      div\n      0xffffffffffffffffffffffffffffffffffffffff\n      and\n        /* \"contracts/shia.sol\":1131:1144  return _owner */\n      swap1\n      pop\n        /* \"contracts/shia.sol\":1066:1151  function owner() public view virtual returns (address) {... */\n      swap1\n      jump\t// out\n        /* \"contracts/shia.sol\":4381:4483  function symbol() public view virtual override returns (string memory) {... */\n    tag_94:\n        /* \"contracts/shia.sol\":4437:4450  string memory */\n      0x60\n        /* \"contracts/shia.sol\":4469:4476  _symbol */\n      0x04\n        /* \"contracts/shia.sol\":4462:4476  return _symbol */\n      dup1\n      sload\n      tag_164\n      swap1\n      tag_122\n      jump\t// in\n    tag_164:\n      dup1\n      0x1f\n      add\n      0x20\n      dup1\n      swap2\n      div\n      mul\n      0x20\n      add\n      mload(0x40)\n      swap1\n      dup2\n      add\n      0x40\n      mstore\n      dup1\n      swap3\n      swap2\n      swap1\n      dup2\n      dup2\n      mstore\n      0x20\n      add\n      dup3\n      dup1\n      sload\n      tag_165\n      swap1\n      tag_122\n      jump\t// in\n    tag_165:\n      dup1\n      iszero\n      tag_166\n      jumpi\n      dup1\n      0x1f\n      lt\n      tag_167\n      jumpi\n      0x0100\n      dup1\n      dup4\n      sload\n      div\n      mul\n      dup4\n      mstore\n      swap2\n      0x20\n      add\n      swap2\n      jump(tag_166)\n    tag_167:\n      dup3\n      add\n      swap2\n      swap1\n      0x00\n      mstore\n      keccak256(0x00, 0x20)\n      swap1\n    tag_168:\n      dup2\n      sload\n      dup2\n      mstore\n      swap1\n      0x01\n      add\n      swap1\n      0x20\n      add\n      dup1\n      dup4\n      gt\n      tag_168\n      jumpi\n      dup3\n      swap1\n      sub\n      0x1f\n      and\n      dup3\n      add\n      swap2\n    tag_166:\n      pop\n      pop\n      pop\n      pop\n      pop\n      swap1\n      pop\n        /* \"contracts/shia.sol\":4381:4483  function symbol() public view virtual override returns (string memory) {... */\n      swap1\n      jump\t// out\n        /* \"contracts/shia.sol\":9107:9195  address public constant DEAD_WALLET =... */\n    tag_98:\n        /* \"contracts/shia.sol\":9153:9195  0x000000000000000000000000000000000000dEaD */\n      0xdead\n        /* \"contracts/shia.sol\":9107:9195  address public constant DEAD_WALLET =... */\n      dup2\n      jump\t// out\n        /* \"contracts/shia.sol\":6434:6867  function decreaseAllowance(address spender, uint256 subtractedValue)... */\n    tag_103:\n        /* \"contracts/shia.sol\":6551:6555  bool */\n      0x00\n        /* \"contracts/shia.sol\":6571:6595  uint256 currentAllowance */\n      dup1\n        /* \"contracts/shia.sol\":6598:6609  _allowances */\n      0x01\n        /* \"contracts/shia.sol\":6598:6623  _allowances[_msgSender()] */\n      0x00\n        /* \"contracts/shia.sol\":6610:6622  _msgSender() */\n      tag_170\n        /* \"contracts/shia.sol\":6610:6620  _msgSender */\n      tag_130\n        /* \"contracts/shia.sol\":6610:6622  _msgSender() */\n      jump\t// in\n    tag_170:\n        /* \"contracts/shia.sol\":6598:6623  _allowances[_msgSender()] */\n      0xffffffffffffffffffffffffffffffffffffffff\n      and\n      0xffffffffffffffffffffffffffffffffffffffff\n      and\n      dup2\n      mstore\n      0x20\n      add\n      swap1\n      dup2\n      mstore\n      0x20\n      add\n      0x00\n      keccak256\n        /* \"contracts/shia.sol\":6598:6632  _allowances[_msgSender()][spender] */\n      0x00\n        /* \"contracts/shia.sol\":6624:6631  spender */\n      dup6\n        /* \"contracts/shia.sol\":6598:6632  _allowances[_msgSender()][spender] */\n      0xffffffffffffffffffffffffffffffffffffffff\n      and\n      0xffffffffffffffffffffffffffffffffffffffff\n      and\n      dup2\n      mstore\n      0x20\n      add\n      swap1\n      dup2\n      mstore\n      0x20\n      add\n      0x00\n      keccak256\n      sload\n        /* \"contracts/shia.sol\":6571:6632  uint256 currentAllowance = _allowances[_msgSender()][spender] */\n      swap1\n      pop\n        /* \"contracts/shia.sol\":6683:6698  subtractedValue */\n      dup3\n        /* \"contracts/shia.sol\":6663:6679  currentAllowance */\n      dup2\n        /* \"contracts/shia.sol\":6663:6698  currentAllowance >= subtractedValue */\n      lt\n      iszero\n        /* \"contracts/shia.sol\":6642:6761  require(... */\n      tag_171\n      jumpi\n      mload(0x40)\n      0x08c379a000000000000000000000000000000000000000000000000000000000\n      dup2\n      mstore\n      0x04\n      add\n      tag_172\n      swap1\n      tag_173\n      jump\t// in\n    tag_172:\n      mload(0x40)\n      dup1\n      swap2\n      sub\n      swap1\n      revert\n    tag_171:\n        /* \"contracts/shia.sol\":6771:6838  _approve(_msgSender(), spender, currentAllowance - subtractedValue) */\n      tag_174\n        /* \"contracts/shia.sol\":6780:6792  _msgSender() */\n      tag_175\n        /* \"contracts/shia.sol\":6780:6790  _msgSender */\n      tag_130\n        /* \"contracts/shia.sol\":6780:6792  _msgSender() */\n      jump\t// in\n    tag_175:\n        /* \"contracts/shia.sol\":6794:6801  spender */\n      dup6\n        /* \"contracts/shia.sol\":6822:6837  subtractedValue */\n      dup6\n        /* \"contracts/shia.sol\":6803:6819  currentAllowance */\n      dup5\n        /* \"contracts/shia.sol\":6803:6837  currentAllowance - subtractedValue */\n      tag_176\n      swap2\n      swap1\n      tag_143\n      jump\t// in\n    tag_176:\n        /* \"contracts/shia.sol\":6771:6779  _approve */\n      tag_131\n        /* \"contracts/shia.sol\":6771:6838  _approve(_msgSender(), spender, currentAllowance - subtractedValue) */\n      jump\t// in\n    tag_174:\n        /* \"contracts/shia.sol\":6856:6860  true */\n      0x01\n        /* \"contracts/shia.sol\":6849:6860  return true */\n      swap2\n      pop\n      pop\n        /* \"contracts/shia.sol\":6434:6867  function decreaseAllowance(address spender, uint256 subtractedValue)... */\n      swap3\n      swap2\n      pop\n      pop\n      jump\t// out\n        /* \"contracts/shia.sol\":4981:5189  function transfer(address recipient, uint256 amount)... */\n    tag_108:\n        /* \"contracts/shia.sol\":5099:5103  bool */\n      0x00\n        /* \"contracts/shia.sol\":5119:5161  _transfer(_msgSender(), recipient, amount) */\n      tag_178\n        /* \"contracts/shia.sol\":5129:5141  _msgSender() */\n      tag_179\n        /* \"contracts/shia.sol\":5129:5139  _msgSender */\n      tag_130\n        /* \"contracts/shia.sol\":5129:5141  _msgSender() */\n      jump\t// in\n    tag_179:\n        /* \"contracts/shia.sol\":5143:5152  recipient */\n      dup5\n        /* \"contracts/shia.sol\":5154:5160  amount */\n      dup5\n        /* \"contracts/shia.sol\":5119:5128  _transfer */\n      tag_135\n        /* \"contracts/shia.sol\":5119:5161  _transfer(_msgSender(), recipient, amount) */\n      jump\t// in\n    tag_178:\n        /* \"contracts/shia.sol\":5178:5182  true */\n      0x01\n        /* \"contracts/shia.sol\":5171:5182  return true */\n      swap1\n      pop\n        /* \"contracts/shia.sol\":4981:5189  function transfer(address recipient, uint256 amount)... */\n      swap3\n      swap2\n      pop\n      pop\n      jump\t// out\n        /* \"contracts/shia.sol\":5247:5440  function allowance(address owner, address spender)... */\n    tag_114:\n        /* \"contracts/shia.sol\":5376:5383  uint256 */\n      0x00\n        /* \"contracts/shia.sol\":5406:5417  _allowances */\n      0x01\n        /* \"contracts/shia.sol\":5406:5424  _allowances[owner] */\n      0x00\n        /* \"contracts/shia.sol\":5418:5423  owner */\n      dup5\n        /* \"contracts/shia.sol\":5406:5424  _allowances[owner] */\n      0xffffffffffffffffffffffffffffffffffffffff\n      and\n      0xffffffffffffffffffffffffffffffffffffffff\n      and\n      dup2\n      mstore\n      0x20\n      add\n      swap1\n      dup2\n      mstore\n      0x20\n      add\n      0x00\n      keccak256\n        /* \"contracts/shia.sol\":5406:5433  _allowances[owner][spender] */\n      0x00\n        /* \"contracts/shia.sol\":5425:5432  spender */\n      dup4\n        /* \"contracts/shia.sol\":5406:5433  _allowances[owner][spender] */\n      0xffffffffffffffffffffffffffffffffffffffff\n      and\n      0xffffffffffffffffffffffffffffffffffffffff\n      and\n      dup2\n      mstore\n      0x20\n      add\n      swap1\n      dup2\n      mstore\n      0x20\n      add\n      0x00\n      keccak256\n      sload\n        /* \"contracts/shia.sol\":5399:5433  return _allowances[owner][spender] */\n      swap1\n      pop\n        /* \"contracts/shia.sol\":5247:5440  function allowance(address owner, address spender)... */\n      swap3\n      swap2\n      pop\n      pop\n      jump\t// out\n        /* \"contracts/shia.sol\":1656:1930  function transferOwnership(address newOwner) public virtual onlyOwner {... */\n    tag_119:\n        /* \"contracts/shia.sol\":1289:1301  _msgSender() */\n      tag_182\n        /* \"contracts/shia.sol\":1289:1299  _msgSender */\n      tag_130\n        /* \"contracts/shia.sol\":1289:1301  _msgSender() */\n      jump\t// in\n    tag_182:\n        /* \"contracts/shia.sol\":1278:1301  owner() == _msgSender() */\n      0xffffffffffffffffffffffffffffffffffffffff\n      and\n        /* \"contracts/shia.sol\":1278:1285  owner() */\n      tag_183\n        /* \"contracts/shia.sol\":1278:1283  owner */\n      tag_89\n        /* \"contracts/shia.sol\":1278:1285  owner() */\n      jump\t// in\n    tag_183:\n        /* \"contracts/shia.sol\":1278:1301  owner() == _msgSender() */\n      0xffffffffffffffffffffffffffffffffffffffff\n      and\n      eq\n        /* \"contracts/shia.sol\":1270:1338  require(owner() == _msgSender(), \"Ownable: caller is not the owner\") */\n      tag_184\n      jumpi\n      mload(0x40)\n      0x08c379a000000000000000000000000000000000000000000000000000000000\n      dup2\n      mstore\n      0x04\n      add\n      tag_185\n      swap1\n      tag_160\n      jump\t// in\n    tag_185:\n      mload(0x40)\n      dup1\n      swap2\n      sub\n      swap1\n      revert\n    tag_184:\n        /* \"contracts/shia.sol\":1777:1778  0 */\n      0x00\n        /* \"contracts/shia.sol\":1757:1779  newOwner != address(0) */\n      0xffffffffffffffffffffffffffffffffffffffff\n      and\n        /* \"contracts/shia.sol\":1757:1765  newOwner */\n      dup2\n        /* \"contracts/shia.sol\":1757:1779  newOwner != address(0) */\n      0xffffffffffffffffffffffffffffffffffffffff\n      and\n      sub\n        /* \"contracts/shia.sol\":1736:1843  require(... */\n      tag_187\n      jumpi\n      mload(0x40)\n      0x08c379a000000000000000000000000000000000000000000000000000000000\n      dup2\n      mstore\n      0x04\n      add\n      tag_188\n      swap1\n      tag_189\n      jump\t// in\n    tag_188:\n      mload(0x40)\n      dup1\n      swap2\n      sub\n      swap1\n      revert\n    tag_187:\n        /* \"contracts/shia.sol\":1887:1895  newOwner */\n      dup1\n        /* \"contracts/shia.sol\":1858:1896  OwnershipTransferred(_owner, newOwner) */\n      0xffffffffffffffffffffffffffffffffffffffff\n      and\n        /* \"contracts/shia.sol\":1879:1885  _owner */\n      0x05\n      0x00\n      swap1\n      sload\n      swap1\n      0x0100\n      exp\n      swap1\n      div\n      0xffffffffffffffffffffffffffffffffffffffff\n      and\n        /* \"contracts/shia.sol\":1858:1896  OwnershipTransferred(_owner, newOwner) */\n      0xffffffffffffffffffffffffffffffffffffffff\n      and\n      0x8be0079c531659141344cd1fd0a4f28419497f9722a3daafe3b4186f6b6457e0\n      mload(0x40)\n      mload(0x40)\n      dup1\n      swap2\n      sub\n      swap1\n      log3\n        /* \"contracts/shia.sol\":1915:1923  newOwner */\n      dup1\n        /* \"contracts/shia.sol\":1906:1912  _owner */\n      0x05\n      0x00\n        /* \"contracts/shia.sol\":1906:1923  _owner = newOwner */\n      0x0100\n      exp\n      dup2\n      sload\n      dup2\n      0xffffffffffffffffffffffffffffffffffffffff\n      mul\n      not\n      and\n      swap1\n      dup4\n      0xffffffffffffffffffffffffffffffffffffffff\n      and\n      mul\n      or\n      swap1\n      sstore\n      pop\n        /* \"contracts/shia.sol\":1656:1930  function transferOwnership(address newOwner) public virtual onlyOwner {... */\n      pop\n      jump\t// out\n        /* \"contracts/shia.sol\":144:240  function _msgSender() internal view virtual returns (address) {... */\n    tag_130:\n        /* \"contracts/shia.sol\":197:204  address */\n      0x00\n        /* \"contracts/shia.sol\":223:233  msg.sender */\n      caller\n        /* \"contracts/shia.sol\":216:233  return msg.sender */\n      swap1\n      pop\n        /* \"contracts/shia.sol\":144:240  function _msgSender() internal view virtual returns (address) {... */\n      swap1\n      jump\t// out\n        /* \"contracts/shia.sol\":8364:8734  function _approve(... */\n    tag_131:\n        /* \"contracts/shia.sol\":8512:8513  0 */\n      0x00\n        /* \"contracts/shia.sol\":8495:8514  owner != address(0) */\n      0xffffffffffffffffffffffffffffffffffffffff\n      and\n        /* \"contracts/shia.sol\":8495:8500  owner */\n      dup4\n        /* \"contracts/shia.sol\":8495:8514  owner != address(0) */\n      0xffffffffffffffffffffffffffffffffffffffff\n      and\n      sub\n        /* \"contracts/shia.sol\":8487:8555  require(owner != address(0), \"ERC20: approve from the zero address\") */\n      tag_192\n      jumpi\n      mload(0x40)\n      0x08c379a000000000000000000000000000000000000000000000000000000000\n      dup2\n      mstore\n      0x04\n      add\n      tag_193\n      swap1\n      tag_194\n      jump\t// in\n    tag_193:\n      mload(0x40)\n      dup1\n      swap2\n      sub\n      swap1\n      revert\n    tag_192:\n        /* \"contracts/shia.sol\":8592:8593  0 */\n      0x00\n        /* \"contracts/shia.sol\":8573:8594  spender != address(0) */\n      0xffffffffffffffffffffffffffffffffffffffff\n      and\n        /* \"contracts/shia.sol\":8573:8580  spender */\n      dup3\n        /* \"contracts/shia.sol\":8573:8594  spender != address(0) */\n      0xffffffffffffffffffffffffffffffffffffffff\n      and\n      sub\n        /* \"contracts/shia.sol\":8565:8633  require(spender != address(0), \"ERC20: approve to the zero address\") */\n      tag_195\n      jumpi\n      mload(0x40)\n      0x08c379a000000000000000000000000000000000000000000000000000000000\n      dup2\n      mstore\n      0x04\n      add\n      tag_196\n      swap1\n      tag_197\n      jump\t// in\n    tag_196:\n      mload(0x40)\n      dup1\n      swap2\n      sub\n      swap1\n      revert\n    tag_195:\n        /* \"contracts/shia.sol\":8674:8680  amount */\n      dup1\n        /* \"contracts/shia.sol\":8644:8655  _allowances */\n      0x01\n        /* \"contracts/shia.sol\":8644:8662  _allowances[owner] */\n      0x00\n        /* \"contracts/shia.sol\":8656:8661  owner */\n      dup6\n        /* \"contracts/shia.sol\":8644:8662  _allowances[owner] */\n      0xffffffffffffffffffffffffffffffffffffffff\n      and\n      0xffffffffffffffffffffffffffffffffffffffff\n      and\n      dup2\n      mstore\n      0x20\n      add\n      swap1\n      dup2\n      mstore\n      0x20\n      add\n      0x00\n      keccak256\n        /* \"contracts/shia.sol\":8644:8671  _allowances[owner][spender] */\n      0x00\n        /* \"contracts/shia.sol\":8663:8670  spender */\n      dup5\n        /* \"contracts/shia.sol\":8644:8671  _allowances[owner][spender] */\n      0xffffffffffffffffffffffffffffffffffffffff\n      and\n      0xffffffffffffffffffffffffffffffffffffffff\n      and\n      dup2\n      mstore\n      0x20\n      add\n      swap1\n      dup2\n      mstore\n      0x20\n      add\n      0x00\n      keccak256\n        /* \"contracts/shia.sol\":8644:8680  _allowances[owner][spender] = amount */\n      dup2\n      swap1\n      sstore\n      pop\n        /* \"contracts/shia.sol\":8711:8718  spender */\n      dup2\n        /* \"contracts/shia.sol\":8695:8727  Approval(owner, spender, amount) */\n      0xffffffffffffffffffffffffffffffffffffffff\n      and\n        /* \"contracts/shia.sol\":8704:8709  owner */\n      dup4\n        /* \"contracts/shia.sol\":8695:8727  Approval(owner, spender, amount) */\n      0xffffffffffffffffffffffffffffffffffffffff\n      and\n      0x8c5be1e5ebec7d5bd14f71427d1e84f3dd0314c0f7b2291e5b200ac8c7c3b925\n        /* \"contracts/shia.sol\":8720:8726  amount */\n      dup4\n        /* \"contracts/shia.sol\":8695:8727  Approval(owner, spender, amount) */\n      mload(0x40)\n      tag_198\n      swap2\n      swap1\n      tag_43\n      jump\t// in\n    tag_198:\n      mload(0x40)\n      dup1\n      swap2\n      sub\n      swap1\n      log3\n        /* \"contracts/shia.sol\":8364:8734  function _approve(... */\n      pop\n      pop\n      pop\n      jump\t// out\n        /* \"contracts/shia.sol\":6874:7530  function _transfer(... */\n    tag_135:\n        /* \"contracts/shia.sol\":7027:7028  0 */\n      0x00\n        /* \"contracts/shia.sol\":7009:7029  sender != address(0) */\n      0xffffffffffffffffffffffffffffffffffffffff\n      and\n        /* \"contracts/shia.sol\":7009:7015  sender */\n      dup4\n        /* \"contracts/shia.sol\":7009:7029  sender != address(0) */\n      0xffffffffffffffffffffffffffffffffffffffff\n      and\n      sub\n        /* \"contracts/shia.sol\":7001:7071  require(sender != address(0), \"ERC20: transfer from the zero address\") */\n      tag_200\n      jumpi\n      mload(0x40)\n      0x08c379a000000000000000000000000000000000000000000000000000000000\n      dup2\n      mstore\n      0x04\n      add\n      tag_201\n      swap1\n      tag_202\n      jump\t// in\n    tag_201:\n      mload(0x40)\n      dup1\n      swap2\n      sub\n      swap1\n      revert\n    tag_200:\n        /* \"contracts/shia.sol\":7110:7111  0 */\n      0x00\n        /* \"contracts/shia.sol\":7089:7112  recipient != address(0) */\n      0xffffffffffffffffffffffffffffffffffffffff\n      and\n        /* \"contracts/shia.sol\":7089:7098  recipient */\n      dup3\n        /* \"contracts/shia.sol\":7089:7112  recipient != address(0) */\n      0xffffffffffffffffffffffffffffffffffffffff\n      and\n      sub\n        /* \"contracts/shia.sol\":7081:7152  require(recipient != address(0), \"ERC20: transfer to the zero address\") */\n      tag_203\n      jumpi\n      mload(0x40)\n      0x08c379a000000000000000000000000000000000000000000000000000000000\n      dup2\n      mstore\n      0x04\n      add\n      tag_204\n      swap1\n      tag_205\n      jump\t// in\n    tag_204:\n      mload(0x40)\n      dup1\n      swap2\n      sub\n      swap1\n      revert\n    tag_203:\n        /* \"contracts/shia.sol\":7163:7210  _beforeTokenTransfer(sender, recipient, amount) */\n      tag_206\n        /* \"contracts/shia.sol\":7184:7190  sender */\n      dup4\n        /* \"contracts/shia.sol\":7192:7201  recipient */\n      dup4\n        /* \"contracts/shia.sol\":7203:7209  amount */\n      dup4\n        /* \"contracts/shia.sol\":7163:7183  _beforeTokenTransfer */\n      tag_207\n        /* \"contracts/shia.sol\":7163:7210  _beforeTokenTransfer(sender, recipient, amount) */\n      jump\t// in\n    tag_206:\n        /* \"contracts/shia.sol\":7221:7242  uint256 senderBalance */\n      0x00\n        /* \"contracts/shia.sol\":7245:7254  _balances */\n      dup1\n        /* \"contracts/shia.sol\":7245:7262  _balances[sender] */\n      0x00\n        /* \"contracts/shia.sol\":7255:7261  sender */\n      dup6\n        /* \"contracts/shia.sol\":7245:7262  _balances[sender] */\n      0xffffffffffffffffffffffffffffffffffffffff\n      and\n      0xffffffffffffffffffffffffffffffffffffffff\n      and\n      dup2\n      mstore\n      0x20\n      add\n      swap1\n      dup2\n      mstore\n      0x20\n      add\n      0x00\n      keccak256\n      sload\n        /* \"contracts/shia.sol\":7221:7262  uint256 senderBalance = _balances[sender] */\n      swap1\n      pop\n        /* \"contracts/shia.sol\":7310:7316  amount */\n      dup2\n        /* \"contracts/shia.sol\":7293:7306  senderBalance */\n      dup2\n        /* \"contracts/shia.sol\":7293:7316  senderBalance >= amount */\n      lt\n      iszero\n        /* \"contracts/shia.sol\":7272:7380  require(... */\n      tag_208\n      jumpi\n      mload(0x40)\n      0x08c379a000000000000000000000000000000000000000000000000000000000\n      dup2\n      mstore\n      0x04\n      add\n      tag_209\n      swap1\n      tag_210\n      jump\t// in\n    tag_209:\n      mload(0x40)\n      dup1\n      swap2\n      sub\n      swap1\n      revert\n    tag_208:\n        /* \"contracts/shia.sol\":7426:7432  amount */\n      dup2\n        /* \"contracts/shia.sol\":7410:7423  senderBalance */\n      dup2\n        /* \"contracts/shia.sol\":7410:7432  senderBalance - amount */\n      tag_211\n      swap2\n      swap1\n      tag_143\n      jump\t// in\n    tag_211:\n        /* \"contracts/shia.sol\":7390:7399  _balances */\n      0x00\n        /* \"contracts/shia.sol\":7390:7407  _balances[sender] */\n      dup1\n        /* \"contracts/shia.sol\":7400:7406  sender */\n      dup7\n        /* \"contracts/shia.sol\":7390:7407  _balances[sender] */\n      0xffffffffffffffffffffffffffffffffffffffff\n      and\n      0xffffffffffffffffffffffffffffffffffffffff\n      and\n      dup2\n      mstore\n      0x20\n      add\n      swap1\n      dup2\n      mstore\n      0x20\n      add\n      0x00\n      keccak256\n        /* \"contracts/shia.sol\":7390:7432  _balances[sender] = senderBalance - amount */\n      dup2\n      swap1\n      sstore\n      pop\n        /* \"contracts/shia.sol\":7466:7472  amount */\n      dup2\n        /* \"contracts/shia.sol\":7442:7451  _balances */\n      0x00\n        /* \"contracts/shia.sol\":7442:7462  _balances[recipient] */\n      dup1\n        /* \"contracts/shia.sol\":7452:7461  recipient */\n      dup6\n        /* \"contracts/shia.sol\":7442:7462  _balances[recipient] */\n      0xffffffffffffffffffffffffffffffffffffffff\n      and\n      0xffffffffffffffffffffffffffffffffffffffff\n      and\n      dup2\n      mstore\n      0x20\n      add\n      swap1\n      dup2\n      mstore\n      0x20\n      add\n      0x00\n      keccak256\n      0x00\n        /* \"contracts/shia.sol\":7442:7472  _balances[recipient] += amount */\n      dup3\n      dup3\n      sload\n      tag_212\n      swap2\n      swap1\n      tag_150\n      jump\t// in\n    tag_212:\n      swap3\n      pop\n      pop\n      dup2\n      swap1\n      sstore\n      pop\n        /* \"contracts/shia.sol\":7505:7514  recipient */\n      dup3\n        /* \"contracts/shia.sol\":7488:7523  Transfer(sender, recipient, amount) */\n      0xffffffffffffffffffffffffffffffffffffffff\n      and\n        /* \"contracts/shia.sol\":7497:7503  sender */\n      dup5\n        /* \"contracts/shia.sol\":7488:7523  Transfer(sender, recipient, amount) */\n      0xffffffffffffffffffffffffffffffffffffffff\n      and\n      0xddf252ad1be2c89b69c2b068fc378daa952ba7f163c4a11628f55a4df523b3ef\n        /* \"contracts/shia.sol\":7516:7522  amount */\n      dup5\n        /* \"contracts/shia.sol\":7488:7523  Transfer(sender, recipient, amount) */\n      mload(0x40)\n      tag_213\n      swap2\n      swap1\n      tag_43\n      jump\t// in\n    tag_213:\n      mload(0x40)\n      dup1\n      swap2\n      sub\n      swap1\n      log3\n        /* \"contracts/shia.sol\":6991:7530  {... */\n      pop\n        /* \"contracts/shia.sol\":6874:7530  function _transfer(... */\n      pop\n      pop\n      pop\n      jump\t// out\n        /* \"contracts/shia.sol\":7874:8357  function _burn(address account, uint256 amount) internal virtual {... */\n    tag_153:\n        /* \"contracts/shia.sol\":7976:7977  0 */\n      0x00\n        /* \"contracts/shia.sol\":7957:7978  account != address(0) */\n      0xffffffffffffffffffffffffffffffffffffffff\n      and\n        /* \"contracts/shia.sol\":7957:7964  account */\n      dup3\n        /* \"contracts/shia.sol\":7957:7978  account != address(0) */\n      0xffffffffffffffffffffffffffffffffffffffff\n      and\n      sub\n        /* \"contracts/shia.sol\":7949:8016  require(account != address(0), \"ERC20: burn from the zero address\") */\n      tag_215\n      jumpi\n      mload(0x40)\n      0x08c379a000000000000000000000000000000000000000000000000000000000\n      dup2\n      mstore\n      0x04\n      add\n      tag_216\n      swap1\n      tag_217\n      jump\t// in\n    tag_216:\n      mload(0x40)\n      dup1\n      swap2\n      sub\n      swap1\n      revert\n    tag_215:\n        /* \"contracts/shia.sol\":8027:8076  _beforeTokenTransfer(account, address(0), amount) */\n      tag_218\n        /* \"contracts/shia.sol\":8048:8055  account */\n      dup3\n        /* \"contracts/shia.sol\":8065:8066  0 */\n      0x00\n        /* \"contracts/shia.sol\":8069:8075  amount */\n      dup4\n        /* \"contracts/shia.sol\":8027:8047  _beforeTokenTransfer */\n      tag_207\n        /* \"contracts/shia.sol\":8027:8076  _beforeTokenTransfer(account, address(0), amount) */\n      jump\t// in\n    tag_218:\n        /* \"contracts/shia.sol\":8087:8109  uint256 accountBalance */\n      0x00\n        /* \"contracts/shia.sol\":8112:8121  _balances */\n      dup1\n        /* \"contracts/shia.sol\":8112:8130  _balances[account] */\n      0x00\n        /* \"contracts/shia.sol\":8122:8129  account */\n      dup5\n        /* \"contracts/shia.sol\":8112:8130  _balances[account] */\n      0xffffffffffffffffffffffffffffffffffffffff\n      and\n      0xffffffffffffffffffffffffffffffffffffffff\n      and\n      dup2\n      mstore\n      0x20\n      add\n      swap1\n      dup2\n      mstore\n      0x20\n      add\n      0x00\n      keccak256\n      sload\n        /* \"contracts/shia.sol\":8087:8130  uint256 accountBalance = _balances[account] */\n      swap1\n      pop\n        /* \"contracts/shia.sol\":8166:8172  amount */\n      dup2\n        /* \"contracts/shia.sol\":8148:8162  accountBalance */\n      dup2\n        /* \"contracts/shia.sol\":8148:8172  accountBalance >= amount */\n      lt\n      iszero\n        /* \"contracts/shia.sol\":8140:8211  require(accountBalance >= amount, \"ERC20: burn amount exceeds balance\") */\n      tag_219\n      jumpi\n      mload(0x40)\n      0x08c379a000000000000000000000000000000000000000000000000000000000\n      dup2\n      mstore\n      0x04\n      add\n      tag_220\n      swap1\n      tag_221\n      jump\t// in\n    tag_220:\n      mload(0x40)\n      dup1\n      swap2\n      sub\n      swap1\n      revert\n    tag_219:\n        /* \"contracts/shia.sol\":8259:8265  amount */\n      dup2\n        /* \"contracts/shia.sol\":8242:8256  accountBalance */\n      dup2\n        /* \"contracts/shia.sol\":8242:8265  accountBalance - amount */\n      tag_222\n      swap2\n      swap1\n      tag_143\n      jump\t// in\n    tag_222:\n        /* \"contracts/shia.sol\":8221:8230  _balances */\n      0x00\n        /* \"contracts/shia.sol\":8221:8239  _balances[account] */\n      dup1\n        /* \"contracts/shia.sol\":8231:8238  account */\n      dup6\n        /* \"contracts/shia.sol\":8221:8239  _balances[account] */\n      0xffffffffffffffffffffffffffffffffffffffff\n      and\n      0xffffffffffffffffffffffffffffffffffffffff\n      and\n      dup2\n      mstore\n      0x20\n      add\n      swap1\n      dup2\n      mstore\n      0x20\n      add\n      0x00\n      keccak256\n        /* \"contracts/shia.sol\":8221:8265  _balances[account] = accountBalance - amount */\n      dup2\n      swap1\n      sstore\n      pop\n        /* \"contracts/shia.sol\":8291:8297  amount */\n      dup2\n        /* \"contracts/shia.sol\":8275:8287  _totalSupply */\n      0x02\n      0x00\n        /* \"contracts/shia.sol\":8275:8297  _totalSupply -= amount */\n      dup3\n      dup3\n      sload\n      tag_223\n      swap2\n      swap1\n      tag_143\n      jump\t// in\n    tag_223:\n      swap3\n      pop\n      pop\n      dup2\n      swap1\n      sstore\n      pop\n        /* \"contracts/shia.sol\":8339:8340  0 */\n      0x00\n        /* \"contracts/shia.sol\":8313:8350  Transfer(account, address(0), amount) */\n      0xffffffffffffffffffffffffffffffffffffffff\n      and\n        /* \"contracts/shia.sol\":8322:8329  account */\n      dup4\n        /* \"contracts/shia.sol\":8313:8350  Transfer(account, address(0), amount) */\n      0xffffffffffffffffffffffffffffffffffffffff\n      and\n      0xddf252ad1be2c89b69c2b068fc378daa952ba7f163c4a11628f55a4df523b3ef\n        /* \"contracts/shia.sol\":8343:8349  amount */\n      dup5\n        /* \"contracts/shia.sol\":8313:8350  Transfer(account, address(0), amount) */\n      mload(0x40)\n      tag_224\n      swap2\n      swap1\n      tag_43\n      jump\t// in\n    tag_224:\n      mload(0x40)\n      dup1\n      swap2\n      sub\n      swap1\n      log3\n        /* \"contracts/shia.sol\":7939:8357  {... */\n      pop\n        /* \"contracts/shia.sol\":7874:8357  function _burn(address account, uint256 amount) internal virtual {... */\n      pop\n      pop\n      jump\t// out\n        /* \"contracts/shia.sol\":9723:11425  function _beforeTokenTransfer(... */\n    tag_207:\n        /* \"contracts/shia.sol\":9861:9878  uint256 taxAmount */\n      0x00\n        /* \"contracts/shia.sol\":9918:9925  owner() */\n      tag_226\n        /* \"contracts/shia.sol\":9918:9923  owner */\n      tag_89\n        /* \"contracts/shia.sol\":9918:9925  owner() */\n      jump\t// in\n    tag_226:\n        /* \"contracts/shia.sol\":9910:9925  from != owner() */\n      0xffffffffffffffffffffffffffffffffffffffff\n      and\n        /* \"contracts/shia.sol\":9910:9914  from */\n      dup5\n        /* \"contracts/shia.sol\":9910:9925  from != owner() */\n      0xffffffffffffffffffffffffffffffffffffffff\n      and\n      eq\n      iszero\n        /* \"contracts/shia.sol\":9910:9954  from != owner() &&... */\n      dup1\n      iszero\n      tag_227\n      jumpi\n      pop\n        /* \"contracts/shia.sol\":9947:9954  owner() */\n      tag_228\n        /* \"contracts/shia.sol\":9947:9952  owner */\n      tag_89\n        /* \"contracts/shia.sol\":9947:9954  owner() */\n      jump\t// in\n    tag_228:\n        /* \"contracts/shia.sol\":9941:9954  to != owner() */\n      0xffffffffffffffffffffffffffffffffffffffff\n      and\n        /* \"contracts/shia.sol\":9941:9943  to */\n      dup4\n        /* \"contracts/shia.sol\":9941:9954  to != owner() */\n      0xffffffffffffffffffffffffffffffffffffffff\n      and\n      eq\n      iszero\n        /* \"contracts/shia.sol\":9910:9954  from != owner() &&... */\n    tag_227:\n        /* \"contracts/shia.sol\":9910:10000  from != owner() &&... */\n      dup1\n      iszero\n      tag_229\n      jumpi\n      pop\n        /* \"contracts/shia.sol\":9984:9999  uniswapV2Router */\n      0x09\n      0x00\n      swap1\n      sload\n      swap1\n      0x0100\n      exp\n      swap1\n      div\n      0xffffffffffffffffffffffffffffffffffffffff\n      and\n        /* \"contracts/shia.sol\":9970:10000  to != address(uniswapV2Router) */\n      0xffffffffffffffffffffffffffffffffffffffff\n      and\n        /* \"contracts/shia.sol\":9970:9972  to */\n      dup4\n        /* \"contracts/shia.sol\":9970:10000  to != address(uniswapV2Router) */\n      0xffffffffffffffffffffffffffffffffffffffff\n      and\n      eq\n      iszero\n        /* \"contracts/shia.sol\":9910:10000  from != owner() &&... */\n    tag_229:\n        /* \"contracts/shia.sol\":9910:10048  from != owner() &&... */\n      dup1\n      iszero\n      tag_230\n      jumpi\n      pop\n        /* \"contracts/shia.sol\":10032:10047  uniswapV2Router */\n      0x09\n      0x00\n      swap1\n      sload\n      swap1\n      0x0100\n      exp\n      swap1\n      div\n      0xffffffffffffffffffffffffffffffffffffffff\n      and\n        /* \"contracts/shia.sol\":10016:10048  from != address(uniswapV2Router) */\n      0xffffffffffffffffffffffffffffffffffffffff\n      and\n        /* \"contracts/shia.sol\":10016:10020  from */\n      dup5\n        /* \"contracts/shia.sol\":10016:10048  from != address(uniswapV2Router) */\n      0xffffffffffffffffffffffffffffffffffffffff\n      and\n      eq\n      iszero\n        /* \"contracts/shia.sol\":9910:10048  from != owner() &&... */\n    tag_230:\n        /* \"contracts/shia.sol\":9910:10080  from != owner() &&... */\n      dup1\n      iszero\n      tag_231\n      jumpi\n      pop\n        /* \"contracts/shia.sol\":10070:10080  _taxWallet */\n      0x08\n      0x00\n      swap1\n      sload\n      swap1\n      0x0100\n      exp\n      swap1\n      div\n      0xffffffffffffffffffffffffffffffffffffffff\n      and\n        /* \"contracts/shia.sol\":10064:10080  to != _taxWallet */\n      0xffffffffffffffffffffffffffffffffffffffff\n      and\n        /* \"contracts/shia.sol\":10064:10066  to */\n      dup4\n        /* \"contracts/shia.sol\":10064:10080  to != _taxWallet */\n      0xffffffffffffffffffffffffffffffffffffffff\n      and\n      eq\n      iszero\n        /* \"contracts/shia.sol\":9910:10080  from != owner() &&... */\n    tag_231:\n        /* \"contracts/shia.sol\":9910:10114  from != owner() &&... */\n      dup1\n      iszero\n      tag_232\n      jumpi\n      pop\n        /* \"contracts/shia.sol\":10104:10114  _taxWallet */\n      0x08\n      0x00\n      swap1\n      sload\n      swap1\n      0x0100\n      exp\n      swap1\n      div\n      0xffffffffffffffffffffffffffffffffffffffff\n      and\n        /* \"contracts/shia.sol\":10096:10114  from != _taxWallet */\n      0xffffffffffffffffffffffffffffffffffffffff\n      and\n        /* \"contracts/shia.sol\":10096:10100  from */\n      dup5\n        /* \"contracts/shia.sol\":10096:10114  from != _taxWallet */\n      0xffffffffffffffffffffffffffffffffffffffff\n      and\n      eq\n      iszero\n        /* \"contracts/shia.sol\":9910:10114  from != owner() &&... */\n    tag_232:\n        /* \"contracts/shia.sol\":9910:10147  from != owner() &&... */\n      dup1\n      iszero\n      tag_233\n      jumpi\n      pop\n        /* \"contracts/shia.sol\":9153:9195  0x000000000000000000000000000000000000dEaD */\n      0xdead\n        /* \"contracts/shia.sol\":10130:10147  to != DEAD_WALLET */\n      0xffffffffffffffffffffffffffffffffffffffff\n      and\n        /* \"contracts/shia.sol\":10130:10132  to */\n      dup4\n        /* \"contracts/shia.sol\":10130:10147  to != DEAD_WALLET */\n      0xffffffffffffffffffffffffffffffffffffffff\n      and\n      eq\n      iszero\n        /* \"contracts/shia.sol\":9910:10147  from != owner() &&... */\n    tag_233:\n        /* \"contracts/shia.sol\":9910:10182  from != owner() &&... */\n      dup1\n      iszero\n      tag_234\n      jumpi\n      pop\n        /* \"contracts/shia.sol\":10169:10182  uniswapV2Pair */\n      0x0a\n      0x00\n      swap1\n      sload\n      swap1\n      0x0100\n      exp\n      swap1\n      div\n      0xffffffffffffffffffffffffffffffffffffffff\n      and\n        /* \"contracts/shia.sol\":10163:10182  to != uniswapV2Pair */\n      0xffffffffffffffffffffffffffffffffffffffff\n      and\n        /* \"contracts/shia.sol\":10163:10165  to */\n      dup4\n        /* \"contracts/shia.sol\":10163:10182  to != uniswapV2Pair */\n      0xffffffffffffffffffffffffffffffffffffffff\n      and\n      eq\n      iszero\n        /* \"contracts/shia.sol\":9910:10182  from != owner() &&... */\n    tag_234:\n        /* \"contracts/shia.sol\":9910:10219  from != owner() &&... */\n      dup1\n      iszero\n      tag_235\n      jumpi\n      pop\n        /* \"contracts/shia.sol\":10206:10219  uniswapV2Pair */\n      0x0a\n      0x00\n      swap1\n      sload\n      swap1\n      0x0100\n      exp\n      swap1\n      div\n      0xffffffffffffffffffffffffffffffffffffffff\n      and\n        /* \"contracts/shia.sol\":10198:10219  from != uniswapV2Pair */\n      0xffffffffffffffffffffffffffffffffffffffff\n      and\n        /* \"contracts/shia.sol\":10198:10202  from */\n      dup5\n        /* \"contracts/shia.sol\":10198:10219  from != uniswapV2Pair */\n      0xffffffffffffffffffffffffffffffffffffffff\n      and\n      eq\n      iszero\n        /* \"contracts/shia.sol\":9910:10219  from != owner() &&... */\n    tag_235:\n        /* \"contracts/shia.sol\":9893:10346  if (... */\n      iszero\n      tag_236\n      jumpi\n        /* \"contracts/shia.sol\":10284:10300  maxHoldingAmount */\n      sload(0x06)\n        /* \"contracts/shia.sol\":10274:10280  amount */\n      dup3\n        /* \"contracts/shia.sol\":10252:10271  super.balanceOf(to) */\n      tag_237\n        /* \"contracts/shia.sol\":10268:10270  to */\n      dup6\n        /* \"contracts/shia.sol\":10252:10267  super.balanceOf */\n      tag_74\n        /* \"contracts/shia.sol\":10252:10271  super.balanceOf(to) */\n      jump\t// in\n    tag_237:\n        /* \"contracts/shia.sol\":10252:10280  super.balanceOf(to) + amount */\n      tag_238\n      swap2\n      swap1\n      tag_150\n      jump\t// in\n    tag_238:\n        /* \"contracts/shia.sol\":10252:10300  super.balanceOf(to) + amount <= maxHoldingAmount */\n      gt\n      iszero\n        /* \"contracts/shia.sol\":10244:10334  require(super.balanceOf(to) + amount <= maxHoldingAmount, \"Max wallet cannot be exceeded\") */\n      tag_239\n      jumpi\n      mload(0x40)\n      0x08c379a000000000000000000000000000000000000000000000000000000000\n      dup2\n      mstore\n      0x04\n      add\n      tag_240\n      swap1\n      tag_241\n      jump\t// in\n    tag_240:\n      mload(0x40)\n      dup1\n      swap2\n      sub\n      swap1\n      revert\n    tag_239:\n        /* \"contracts/shia.sol\":9893:10346  if (... */\n    tag_236:\n        /* \"contracts/shia.sol\":10367:10380  uniswapV2Pair */\n      0x0a\n      0x00\n      swap1\n      sload\n      swap1\n      0x0100\n      exp\n      swap1\n      div\n      0xffffffffffffffffffffffffffffffffffffffff\n      and\n        /* \"contracts/shia.sol\":10361:10380  to == uniswapV2Pair */\n      0xffffffffffffffffffffffffffffffffffffffff\n      and\n        /* \"contracts/shia.sol\":10361:10363  to */\n      dup4\n        /* \"contracts/shia.sol\":10361:10380  to == uniswapV2Pair */\n      0xffffffffffffffffffffffffffffffffffffffff\n      and\n      eq\n        /* \"contracts/shia.sol\":10361:10414  to == uniswapV2Pair && to == address(uniswapV2Router) */\n      dup1\n      iszero\n      tag_242\n      jumpi\n      pop\n        /* \"contracts/shia.sol\":10398:10413  uniswapV2Router */\n      0x09\n      0x00\n      swap1\n      sload\n      swap1\n      0x0100\n      exp\n      swap1\n      div\n      0xffffffffffffffffffffffffffffffffffffffff\n      and\n        /* \"contracts/shia.sol\":10384:10414  to == address(uniswapV2Router) */\n      0xffffffffffffffffffffffffffffffffffffffff\n      and\n        /* \"contracts/shia.sol\":10384:10386  to */\n      dup4\n        /* \"contracts/shia.sol\":10384:10414  to == address(uniswapV2Router) */\n      0xffffffffffffffffffffffffffffffffffffffff\n      and\n      eq\n        /* \"contracts/shia.sol\":10361:10414  to == uniswapV2Pair && to == address(uniswapV2Router) */\n    tag_242:\n        /* \"contracts/shia.sol\":10361:10439  to == uniswapV2Pair && to == address(uniswapV2Router) && from != address(this) */\n      dup1\n      iszero\n      tag_243\n      jumpi\n      pop\n        /* \"contracts/shia.sol\":10434:10438  this */\n      address\n        /* \"contracts/shia.sol\":10418:10439  from != address(this) */\n      0xffffffffffffffffffffffffffffffffffffffff\n      and\n        /* \"contracts/shia.sol\":10418:10422  from */\n      dup5\n        /* \"contracts/shia.sol\":10418:10439  from != address(this) */\n      0xffffffffffffffffffffffffffffffffffffffff\n      and\n      eq\n      iszero\n        /* \"contracts/shia.sol\":10361:10439  to == uniswapV2Pair && to == address(uniswapV2Router) && from != address(this) */\n    tag_243:\n        /* \"contracts/shia.sol\":10361:10470  to == uniswapV2Pair && to == address(uniswapV2Router) && from != address(this) &&... */\n      dup1\n      iszero\n      tag_244\n      jumpi\n      pop\n        /* \"contracts/shia.sol\":10463:10470  owner() */\n      tag_245\n        /* \"contracts/shia.sol\":10463:10468  owner */\n      tag_89\n        /* \"contracts/shia.sol\":10463:10470  owner() */\n      jump\t// in\n    tag_245:\n        /* \"contracts/shia.sol\":10455:10470  from != owner() */\n      0xffffffffffffffffffffffffffffffffffffffff\n      and\n        /* \"contracts/shia.sol\":10455:10459  from */\n      dup5\n        /* \"contracts/shia.sol\":10455:10470  from != owner() */\n      0xffffffffffffffffffffffffffffffffffffffff\n      and\n      eq\n      iszero\n        /* \"contracts/shia.sol\":10361:10470  to == uniswapV2Pair && to == address(uniswapV2Router) && from != address(this) &&... */\n    tag_244:\n        /* \"contracts/shia.sol\":10361:10492  to == uniswapV2Pair && to == address(uniswapV2Router) && from != address(this) &&... */\n      dup1\n      iszero\n      tag_246\n      jumpi\n      pop\n        /* \"contracts/shia.sol\":10482:10492  _taxWallet */\n      0x08\n      0x00\n      swap1\n      sload\n      swap1\n      0x0100\n      exp\n      swap1\n      div\n      0xffffffffffffffffffffffffffffffffffffffff\n      and\n        /* \"contracts/shia.sol\":10474:10492  from != _taxWallet */\n      0xffffffffffffffffffffffffffffffffffffffff\n      and\n        /* \"contracts/shia.sol\":10474:10478  from */\n      dup5\n        /* \"contracts/shia.sol\":10474:10492  from != _taxWallet */\n      0xffffffffffffffffffffffffffffffffffffffff\n      and\n      eq\n      iszero\n        /* \"contracts/shia.sol\":10361:10492  to == uniswapV2Pair && to == address(uniswapV2Router) && from != address(this) &&... */\n    tag_246:\n        /* \"contracts/shia.sol\":10357:10564  if (to == uniswapV2Pair && to == address(uniswapV2Router) && from != address(this) &&... */\n      iszero\n      tag_247\n      jumpi\n        /* \"contracts/shia.sol\":10545:10548  100 */\n      0x64\n        /* \"contracts/shia.sol\":9100:9101  1 */\n      0x01\n        /* \"contracts/shia.sol\":10525:10531  amount */\n      dup4\n        /* \"contracts/shia.sol\":10525:10540  amount * _oaTax */\n      tag_248\n      swap2\n      swap1\n      tag_249\n      jump\t// in\n    tag_248:\n        /* \"contracts/shia.sol\":10524:10549  (amount * _oaTax) / (100) */\n      tag_250\n      swap2\n      swap1\n      tag_251\n      jump\t// in\n    tag_250:\n        /* \"contracts/shia.sol\":10512:10549  taxAmount = (amount * _oaTax) / (100) */\n      swap1\n      pop\n        /* \"contracts/shia.sol\":10357:10564  if (to == uniswapV2Pair && to == address(uniswapV2Router) && from != address(this) &&... */\n    tag_247:\n        /* \"contracts/shia.sol\":10591:10604  uniswapV2Pair */\n      0x0a\n      0x00\n      swap1\n      sload\n      swap1\n      0x0100\n      exp\n      swap1\n      div\n      0xffffffffffffffffffffffffffffffffffffffff\n      and\n        /* \"contracts/shia.sol\":10583:10604  from == uniswapV2Pair */\n      0xffffffffffffffffffffffffffffffffffffffff\n      and\n        /* \"contracts/shia.sol\":10583:10587  from */\n      dup5\n        /* \"contracts/shia.sol\":10583:10604  from == uniswapV2Pair */\n      0xffffffffffffffffffffffffffffffffffffffff\n      and\n      eq\n        /* \"contracts/shia.sol\":10583:10640  from == uniswapV2Pair && from == address(uniswapV2Router) */\n      dup1\n      iszero\n      tag_252\n      jumpi\n      pop\n        /* \"contracts/shia.sol\":10624:10639  uniswapV2Router */\n      0x09\n      0x00\n      swap1\n      sload\n      swap1\n      0x0100\n      exp\n      swap1\n      div\n      0xffffffffffffffffffffffffffffffffffffffff\n      and\n        /* \"contracts/shia.sol\":10608:10640  from == address(uniswapV2Router) */\n      0xffffffffffffffffffffffffffffffffffffffff\n      and\n        /* \"contracts/shia.sol\":10608:10612  from */\n      dup5\n        /* \"contracts/shia.sol\":10608:10640  from == address(uniswapV2Router) */\n      0xffffffffffffffffffffffffffffffffffffffff\n      and\n      eq\n        /* \"contracts/shia.sol\":10583:10640  from == uniswapV2Pair && from == address(uniswapV2Router) */\n    tag_252:\n        /* \"contracts/shia.sol\":10583:10663  from == uniswapV2Pair && from == address(uniswapV2Router) && to != address(this) */\n      dup1\n      iszero\n      tag_253\n      jumpi\n      pop\n        /* \"contracts/shia.sol\":10658:10662  this */\n      address\n        /* \"contracts/shia.sol\":10644:10663  to != address(this) */\n      0xffffffffffffffffffffffffffffffffffffffff\n      and\n        /* \"contracts/shia.sol\":10644:10646  to */\n      dup4\n        /* \"contracts/shia.sol\":10644:10663  to != address(this) */\n      0xffffffffffffffffffffffffffffffffffffffff\n      and\n      eq\n      iszero\n        /* \"contracts/shia.sol\":10583:10663  from == uniswapV2Pair && from == address(uniswapV2Router) && to != address(this) */\n    tag_253:\n        /* \"contracts/shia.sol\":10583:10693  from == uniswapV2Pair && from == address(uniswapV2Router) && to != address(this)... */\n      dup1\n      iszero\n      tag_254\n      jumpi\n      pop\n        /* \"contracts/shia.sol\":10686:10693  owner() */\n      tag_255\n        /* \"contracts/shia.sol\":10686:10691  owner */\n      tag_89\n        /* \"contracts/shia.sol\":10686:10693  owner() */\n      jump\t// in\n    tag_255:\n        /* \"contracts/shia.sol\":10680:10693  to != owner() */\n      0xffffffffffffffffffffffffffffffffffffffff\n      and\n        /* \"contracts/shia.sol\":10680:10682  to */\n      dup4\n        /* \"contracts/shia.sol\":10680:10693  to != owner() */\n      0xffffffffffffffffffffffffffffffffffffffff\n      and\n      eq\n      iszero\n        /* \"contracts/shia.sol\":10583:10693  from == uniswapV2Pair && from == address(uniswapV2Router) && to != address(this)... */\n    tag_254:\n        /* \"contracts/shia.sol\":10583:10713  from == uniswapV2Pair && from == address(uniswapV2Router) && to != address(this)... */\n      dup1\n      iszero\n      tag_256\n      jumpi\n      pop\n        /* \"contracts/shia.sol\":10703:10713  _taxWallet */\n      0x08\n      0x00\n      swap1\n      sload\n      swap1\n      0x0100\n      exp\n      swap1\n      div\n      0xffffffffffffffffffffffffffffffffffffffff\n      and\n        /* \"contracts/shia.sol\":10697:10713  to != _taxWallet */\n      0xffffffffffffffffffffffffffffffffffffffff\n      and\n        /* \"contracts/shia.sol\":10697:10699  to */\n      dup4\n        /* \"contracts/shia.sol\":10697:10713  to != _taxWallet */\n      0xffffffffffffffffffffffffffffffffffffffff\n      and\n      eq\n      iszero\n        /* \"contracts/shia.sol\":10583:10713  from == uniswapV2Pair && from == address(uniswapV2Router) && to != address(this)... */\n    tag_256:\n        /* \"contracts/shia.sol\":10579:10785  if (from == uniswapV2Pair && from == address(uniswapV2Router) && to != address(this)... */\n      iszero\n      tag_257\n      jumpi\n        /* \"contracts/shia.sol\":10766:10769  100 */\n      0x64\n        /* \"contracts/shia.sol\":9100:9101  1 */\n      0x01\n        /* \"contracts/shia.sol\":10746:10752  amount */\n      dup4\n        /* \"contracts/shia.sol\":10746:10761  amount * _oaTax */\n      tag_258\n      swap2\n      swap1\n      tag_249\n      jump\t// in\n    tag_258:\n        /* \"contracts/shia.sol\":10745:10770  (amount * _oaTax) / (100) */\n      tag_259\n      swap2\n      swap1\n      tag_251\n      jump\t// in\n    tag_259:\n        /* \"contracts/shia.sol\":10733:10770  taxAmount = (amount * _oaTax) / (100) */\n      swap1\n      pop\n        /* \"contracts/shia.sol\":10579:10785  if (from == uniswapV2Pair && from == address(uniswapV2Router) && to != address(this)... */\n    tag_257:\n        /* \"contracts/shia.sol\":10826:10827  0 */\n      0x00\n        /* \"contracts/shia.sol\":10812:10823  maxTxAmount */\n      sload(0x07)\n        /* \"contracts/shia.sol\":10812:10827  maxTxAmount > 0 */\n      gt\n        /* \"contracts/shia.sol\":10812:10858  maxTxAmount > 0 &&... */\n      dup1\n      iszero\n      tag_260\n      jumpi\n      pop\n        /* \"contracts/shia.sol\":10851:10858  owner() */\n      tag_261\n        /* \"contracts/shia.sol\":10851:10856  owner */\n      tag_89\n        /* \"contracts/shia.sol\":10851:10858  owner() */\n      jump\t// in\n    tag_261:\n        /* \"contracts/shia.sol\":10843:10858  from != owner() */\n      0xffffffffffffffffffffffffffffffffffffffff\n      and\n        /* \"contracts/shia.sol\":10843:10847  from */\n      dup5\n        /* \"contracts/shia.sol\":10843:10858  from != owner() */\n      0xffffffffffffffffffffffffffffffffffffffff\n      and\n      eq\n      iszero\n        /* \"contracts/shia.sol\":10812:10858  maxTxAmount > 0 &&... */\n    tag_260:\n        /* \"contracts/shia.sol\":10812:10887  maxTxAmount > 0 &&... */\n      dup1\n      iszero\n      tag_262\n      jumpi\n      pop\n        /* \"contracts/shia.sol\":10880:10887  owner() */\n      tag_263\n        /* \"contracts/shia.sol\":10880:10885  owner */\n      tag_89\n        /* \"contracts/shia.sol\":10880:10887  owner() */\n      jump\t// in\n    tag_263:\n        /* \"contracts/shia.sol\":10874:10887  to != owner() */\n      0xffffffffffffffffffffffffffffffffffffffff\n      and\n        /* \"contracts/shia.sol\":10874:10876  to */\n      dup4\n        /* \"contracts/shia.sol\":10874:10887  to != owner() */\n      0xffffffffffffffffffffffffffffffffffffffff\n      and\n      eq\n      iszero\n        /* \"contracts/shia.sol\":10812:10887  maxTxAmount > 0 &&... */\n    tag_262:\n        /* \"contracts/shia.sol\":10812:10933  maxTxAmount > 0 &&... */\n      dup1\n      iszero\n      tag_264\n      jumpi\n      pop\n        /* \"contracts/shia.sol\":10917:10932  uniswapV2Router */\n      0x09\n      0x00\n      swap1\n      sload\n      swap1\n      0x0100\n      exp\n      swap1\n      div\n      0xffffffffffffffffffffffffffffffffffffffff\n      and\n        /* \"contracts/shia.sol\":10903:10933  to != address(uniswapV2Router) */\n      0xffffffffffffffffffffffffffffffffffffffff\n      and\n        /* \"contracts/shia.sol\":10903:10905  to */\n      dup4\n        /* \"contracts/shia.sol\":10903:10933  to != address(uniswapV2Router) */\n      0xffffffffffffffffffffffffffffffffffffffff\n      and\n      eq\n      iszero\n        /* \"contracts/shia.sol\":10812:10933  maxTxAmount > 0 &&... */\n    tag_264:\n        /* \"contracts/shia.sol\":10812:10981  maxTxAmount > 0 &&... */\n      dup1\n      iszero\n      tag_265\n      jumpi\n      pop\n        /* \"contracts/shia.sol\":10965:10980  uniswapV2Router */\n      0x09\n      0x00\n      swap1\n      sload\n      swap1\n      0x0100\n      exp\n      swap1\n      div\n      0xffffffffffffffffffffffffffffffffffffffff\n      and\n        /* \"contracts/shia.sol\":10949:10981  from != address(uniswapV2Router) */\n      0xffffffffffffffffffffffffffffffffffffffff\n      and\n        /* \"contracts/shia.sol\":10949:10953  from */\n      dup5\n        /* \"contracts/shia.sol\":10949:10981  from != address(uniswapV2Router) */\n      0xffffffffffffffffffffffffffffffffffffffff\n      and\n      eq\n      iszero\n        /* \"contracts/shia.sol\":10812:10981  maxTxAmount > 0 &&... */\n    tag_265:\n        /* \"contracts/shia.sol\":10812:11013  maxTxAmount > 0 &&... */\n      dup1\n      iszero\n      tag_266\n      jumpi\n      pop\n        /* \"contracts/shia.sol\":11003:11013  _taxWallet */\n      0x08\n      0x00\n      swap1\n      sload\n      swap1\n      0x0100\n      exp\n      swap1\n      div\n      0xffffffffffffffffffffffffffffffffffffffff\n      and\n        /* \"contracts/shia.sol\":10997:11013  to != _taxWallet */\n      0xffffffffffffffffffffffffffffffffffffffff\n      and\n        /* \"contracts/shia.sol\":10997:10999  to */\n      dup4\n        /* \"contracts/shia.sol\":10997:11013  to != _taxWallet */\n      0xffffffffffffffffffffffffffffffffffffffff\n      and\n      eq\n      iszero\n        /* \"contracts/shia.sol\":10812:11013  maxTxAmount > 0 &&... */\n    tag_266:\n        /* \"contracts/shia.sol\":10812:11047  maxTxAmount > 0 &&... */\n      dup1\n      iszero\n      tag_267\n      jumpi\n      pop\n        /* \"contracts/shia.sol\":11037:11047  _taxWallet */\n      0x08\n      0x00\n      swap1\n      sload\n      swap1\n      0x0100\n      exp\n      swap1\n      div\n      0xffffffffffffffffffffffffffffffffffffffff\n      and\n        /* \"contracts/shia.sol\":11029:11047  from != _taxWallet */\n      0xffffffffffffffffffffffffffffffffffffffff\n      and\n        /* \"contracts/shia.sol\":11029:11033  from */\n      dup5\n        /* \"contracts/shia.sol\":11029:11047  from != _taxWallet */\n      0xffffffffffffffffffffffffffffffffffffffff\n      and\n      eq\n      iszero\n        /* \"contracts/shia.sol\":10812:11047  maxTxAmount > 0 &&... */\n    tag_267:\n        /* \"contracts/shia.sol\":10812:11080  maxTxAmount > 0 &&... */\n      dup1\n      iszero\n      tag_268\n      jumpi\n      pop\n        /* \"contracts/shia.sol\":9153:9195  0x000000000000000000000000000000000000dEaD */\n      0xdead\n        /* \"contracts/shia.sol\":11063:11080  to != DEAD_WALLET */\n      0xffffffffffffffffffffffffffffffffffffffff\n      and\n        /* \"contracts/shia.sol\":11063:11065  to */\n      dup4\n        /* \"contracts/shia.sol\":11063:11080  to != DEAD_WALLET */\n      0xffffffffffffffffffffffffffffffffffffffff\n      and\n      eq\n      iszero\n        /* \"contracts/shia.sol\":10812:11080  maxTxAmount > 0 &&... */\n    tag_268:\n        /* \"contracts/shia.sol\":10812:11115  maxTxAmount > 0 &&... */\n      dup1\n      iszero\n      tag_269\n      jumpi\n      pop\n        /* \"contracts/shia.sol\":11102:11115  uniswapV2Pair */\n      0x0a\n      0x00\n      swap1\n      sload\n      swap1\n      0x0100\n      exp\n      swap1\n      div\n      0xffffffffffffffffffffffffffffffffffffffff\n      and\n        /* \"contracts/shia.sol\":11096:11115  to != uniswapV2Pair */\n      0xffffffffffffffffffffffffffffffffffffffff\n      and\n        /* \"contracts/shia.sol\":11096:11098  to */\n      dup4\n        /* \"contracts/shia.sol\":11096:11115  to != uniswapV2Pair */\n      0xffffffffffffffffffffffffffffffffffffffff\n      and\n      eq\n      iszero\n        /* \"contracts/shia.sol\":10812:11115  maxTxAmount > 0 &&... */\n    tag_269:\n        /* \"contracts/shia.sol\":10812:11152  maxTxAmount > 0 &&... */\n      dup1\n      iszero\n      tag_270\n      jumpi\n      pop\n        /* \"contracts/shia.sol\":11139:11152  uniswapV2Pair */\n      0x0a\n      0x00\n      swap1\n      sload\n      swap1\n      0x0100\n      exp\n      swap1\n      div\n      0xffffffffffffffffffffffffffffffffffffffff\n      and\n        /* \"contracts/shia.sol\":11131:11152  from != uniswapV2Pair */\n      0xffffffffffffffffffffffffffffffffffffffff\n      and\n        /* \"contracts/shia.sol\":11131:11135  from */\n      dup5\n        /* \"contracts/shia.sol\":11131:11152  from != uniswapV2Pair */\n      0xffffffffffffffffffffffffffffffffffffffff\n      and\n      eq\n      iszero\n        /* \"contracts/shia.sol\":10812:11152  maxTxAmount > 0 &&... */\n    tag_270:\n        /* \"contracts/shia.sol\":10795:11252  if (... */\n      iszero\n      tag_271\n      jumpi\n        /* \"contracts/shia.sol\":11195:11206  maxTxAmount */\n      sload(0x07)\n        /* \"contracts/shia.sol\":11185:11191  amount */\n      dup3\n        /* \"contracts/shia.sol\":11185:11206  amount <= maxTxAmount */\n      gt\n      iszero\n        /* \"contracts/shia.sol\":11177:11241  require(amount <= maxTxAmount, \"Exceeds max transaction amount\") */\n      tag_272\n      jumpi\n      mload(0x40)\n      0x08c379a000000000000000000000000000000000000000000000000000000000\n      dup2\n      mstore\n      0x04\n      add\n      tag_273\n      swap1\n      tag_274\n      jump\t// in\n    tag_273:\n      mload(0x40)\n      dup1\n      swap2\n      sub\n      swap1\n      revert\n    tag_272:\n        /* \"contracts/shia.sol\":10795:11252  if (... */\n    tag_271:\n        /* \"contracts/shia.sol\":11262:11288  uint256 contractETHBalance */\n      0x00\n        /* \"contracts/shia.sol\":11291:11312  address(this).balance */\n      selfbalance\n        /* \"contracts/shia.sol\":11262:11312  uint256 contractETHBalance = address(this).balance */\n      swap1\n      pop\n        /* \"contracts/shia.sol\":11347:11357  0.05 ether */\n      0xb1a2bc2ec50000\n        /* \"contracts/shia.sol\":11326:11344  contractETHBalance */\n      dup2\n        /* \"contracts/shia.sol\":11326:11357  contractETHBalance > 0.05 ether */\n      gt\n        /* \"contracts/shia.sol\":11322:11419  if (contractETHBalance > 0.05 ether) {... */\n      iszero\n      tag_275\n      jumpi\n        /* \"contracts/shia.sol\":11373:11408  sendETHToFee(address(this).balance) */\n      tag_276\n        /* \"contracts/shia.sol\":11386:11407  address(this).balance */\n      selfbalance\n        /* \"contracts/shia.sol\":11373:11385  sendETHToFee */\n      tag_277\n        /* \"contracts/shia.sol\":11373:11408  sendETHToFee(address(this).balance) */\n      jump\t// in\n    tag_276:\n        /* \"contracts/shia.sol\":11322:11419  if (contractETHBalance > 0.05 ether) {... */\n    tag_275:\n        /* \"contracts/shia.sol\":9851:11425  {... */\n      pop\n      pop\n        /* \"contracts/shia.sol\":9723:11425  function _beforeTokenTransfer(... */\n      pop\n      pop\n      pop\n      jump\t// out\n        /* \"contracts/shia.sol\":11516:11606  function sendETHToFee(uint256 amount) private {... */\n    tag_277:\n        /* \"contracts/shia.sol\":11572:11582  _taxWallet */\n      0x08\n      0x00\n      swap1\n      sload\n      swap1\n      0x0100\n      exp\n      swap1\n      div\n      0xffffffffffffffffffffffffffffffffffffffff\n      and\n        /* \"contracts/shia.sol\":11572:11591  _taxWallet.transfer */\n      0xffffffffffffffffffffffffffffffffffffffff\n      and\n        /* \"contracts/shia.sol\":11572:11599  _taxWallet.transfer(amount) */\n      0x08fc\n        /* \"contracts/shia.sol\":11592:11598  amount */\n      dup3\n        /* \"contracts/shia.sol\":11572:11599  _taxWallet.transfer(amount) */\n      swap1\n      dup2\n      iszero\n      mul\n      swap1\n      mload(0x40)\n      0x00\n      mload(0x40)\n      dup1\n      dup4\n      sub\n      dup2\n      dup6\n      dup9\n      dup9\n      call\n      swap4\n      pop\n      pop\n      pop\n      pop\n      iszero\n      dup1\n      iszero\n      tag_280\n      jumpi\n      returndatasize\n      0x00\n      dup1\n      returndatacopy\n      revert(0x00, returndatasize)\n    tag_280:\n      pop\n        /* \"contracts/shia.sol\":11516:11606  function sendETHToFee(uint256 amount) private {... */\n      pop\n      jump\t// out\n        /* \"#utility.yul\":7:106   */\n    tag_281:\n        /* \"#utility.yul\":59:65   */\n      0x00\n        /* \"#utility.yul\":93:98   */\n      dup2\n        /* \"#utility.yul\":87:99   */\n      mload\n        /* \"#utility.yul\":77:99   */\n      swap1\n      pop\n        /* \"#utility.yul\":7:106   */\n      swap2\n      swap1\n      pop\n      jump\t// out\n        /* \"#utility.yul\":112:281   */\n    tag_282:\n        /* \"#utility.yul\":196:207   */\n      0x00\n        /* \"#utility.yul\":230:236   */\n      dup3\n        /* \"#utility.yul\":225:228   */\n      dup3\n        /* \"#utility.yul\":218:237   */\n      mstore\n        /* \"#utility.yul\":270:274   */\n      0x20\n        /* \"#utility.yul\":265:268   */\n      dup3\n        /* \"#utility.yul\":261:275   */\n      add\n        /* \"#utility.yul\":246:275   */\n      swap1\n      pop\n        /* \"#utility.yul\":112:281   */\n      swap3\n      swap2\n      pop\n      pop\n      jump\t// out\n        /* \"#utility.yul\":287:533   */\n    tag_283:\n        /* \"#utility.yul\":368:369   */\n      0x00\n        /* \"#utility.yul\":378:491   */\n    tag_337:\n        /* \"#utility.yul\":392:398   */\n      dup4\n        /* \"#utility.yul\":389:390   */\n      dup2\n        /* \"#utility.yul\":386:399   */\n      lt\n        /* \"#utility.yul\":378:491   */\n      iszero\n      tag_339\n      jumpi\n        /* \"#utility.yul\":477:478   */\n      dup1\n        /* \"#utility.yul\":472:475   */\n      dup3\n        /* \"#utility.yul\":468:479   */\n      add\n        /* \"#utility.yul\":462:480   */\n      mload\n        /* \"#utility.yul\":458:459   */\n      dup2\n        /* \"#utility.yul\":453:456   */\n      dup5\n        /* \"#utility.yul\":449:460   */\n      add\n        /* \"#utility.yul\":442:481   */\n      mstore\n        /* \"#utility.yul\":414:416   */\n      0x20\n        /* \"#utility.yul\":411:412   */\n      dup2\n        /* \"#utility.yul\":407:417   */\n      add\n        /* \"#utility.yul\":402:417   */\n      swap1\n      pop\n        /* \"#utility.yul\":378:491   */\n      jump(tag_337)\n    tag_339:\n        /* \"#utility.yul\":525:526   */\n      0x00\n        /* \"#utility.yul\":516:522   */\n      dup5\n        /* \"#utility.yul\":511:514   */\n      dup5\n        /* \"#utility.yul\":507:523   */\n      add\n        /* \"#utility.yul\":500:527   */\n      mstore\n        /* \"#utility.yul\":349:533   */\n      pop\n        /* \"#utility.yul\":287:533   */\n      pop\n      pop\n      pop\n      jump\t// out\n        /* \"#utility.yul\":539:641   */\n    tag_284:\n        /* \"#utility.yul\":580:586   */\n      0x00\n        /* \"#utility.yul\":631:633   */\n      0x1f\n        /* \"#utility.yul\":627:634   */\n      not\n        /* \"#utility.yul\":622:624   */\n      0x1f\n        /* \"#utility.yul\":615:620   */\n      dup4\n        /* \"#utility.yul\":611:625   */\n      add\n        /* \"#utility.yul\":607:635   */\n      and\n        /* \"#utility.yul\":597:635   */\n      swap1\n      pop\n        /* \"#utility.yul\":539:641   */\n      swap2\n      swap1\n      pop\n      jump\t// out\n        /* \"#utility.yul\":647:1024   */\n    tag_285:\n        /* \"#utility.yul\":735:738   */\n      0x00\n        /* \"#utility.yul\":763:802   */\n      tag_342\n        /* \"#utility.yul\":796:801   */\n      dup3\n        /* \"#utility.yul\":763:802   */\n      tag_281\n      jump\t// in\n    tag_342:\n        /* \"#utility.yul\":818:889   */\n      tag_343\n        /* \"#utility.yul\":882:888   */\n      dup2\n        /* \"#utility.yul\":877:880   */\n      dup6\n        /* \"#utility.yul\":818:889   */\n      tag_282\n      jump\t// in\n    tag_343:\n        /* \"#utility.yul\":811:889   */\n      swap4\n      pop\n        /* \"#utility.yul\":898:963   */\n      tag_344\n        /* \"#utility.yul\":956:962   */\n      dup2\n        /* \"#utility.yul\":951:954   */\n      dup6\n        /* \"#utility.yul\":944:948   */\n      0x20\n        /* \"#utility.yul\":937:942   */\n      dup7\n        /* \"#utility.yul\":933:949   */\n      add\n        /* \"#utility.yul\":898:963   */\n      tag_283\n      jump\t// in\n    tag_344:\n        /* \"#utility.yul\":988:1017   */\n      tag_345\n        /* \"#utility.yul\":1010:1016   */\n      dup2\n        /* \"#utility.yul\":988:1017   */\n      tag_284\n      jump\t// in\n    tag_345:\n        /* \"#utility.yul\":983:986   */\n      dup5\n        /* \"#utility.yul\":979:1018   */\n      add\n        /* \"#utility.yul\":972:1018   */\n      swap2\n      pop\n        /* \"#utility.yul\":739:1024   */\n      pop\n        /* \"#utility.yul\":647:1024   */\n      swap3\n      swap2\n      pop\n      pop\n      jump\t// out\n        /* \"#utility.yul\":1030:1343   */\n    tag_31:\n        /* \"#utility.yul\":1143:1147   */\n      0x00\n        /* \"#utility.yul\":1181:1183   */\n      0x20\n        /* \"#utility.yul\":1170:1179   */\n      dup3\n        /* \"#utility.yul\":1166:1184   */\n      add\n        /* \"#utility.yul\":1158:1184   */\n      swap1\n      pop\n        /* \"#utility.yul\":1230:1239   */\n      dup2\n        /* \"#utility.yul\":1224:1228   */\n      dup2\n        /* \"#utility.yul\":1220:1240   */\n      sub\n        /* \"#utility.yul\":1216:1217   */\n      0x00\n        /* \"#utility.yul\":1205:1214   */\n      dup4\n        /* \"#utility.yul\":1201:1218   */\n      add\n        /* \"#utility.yul\":1194:1241   */\n      mstore\n        /* \"#utility.yul\":1258:1336   */\n      tag_347\n        /* \"#utility.yul\":1331:1335   */\n      dup2\n        /* \"#utility.yul\":1322:1328   */\n      dup5\n        /* \"#utility.yul\":1258:1336   */\n      tag_285\n      jump\t// in\n    tag_347:\n        /* \"#utility.yul\":1250:1336   */\n      swap1\n      pop\n        /* \"#utility.yul\":1030:1343   */\n      swap3\n      swap2\n      pop\n      pop\n      jump\t// out\n        /* \"#utility.yul\":1430:1547   */\n    tag_287:\n        /* \"#utility.yul\":1539:1540   */\n      0x00\n        /* \"#utility.yul\":1536:1537   */\n      dup1\n        /* \"#utility.yul\":1529:1541   */\n      revert\n        /* \"#utility.yul\":1676:1802   */\n    tag_289:\n        /* \"#utility.yul\":1713:1720   */\n      0x00\n        /* \"#utility.yul\":1753:1795   */\n      0xffffffffffffffffffffffffffffffffffffffff\n        /* \"#utility.yul\":1746:1751   */\n      dup3\n        /* \"#utility.yul\":1742:1796   */\n      and\n        /* \"#utility.yul\":1731:1796   */\n      swap1\n      pop\n        /* \"#utility.yul\":1676:1802   */\n      swap2\n      swap1\n      pop\n      jump\t// out\n        /* \"#utility.yul\":1808:1904   */\n    tag_290:\n        /* \"#utility.yul\":1845:1852   */\n      0x00\n        /* \"#utility.yul\":1874:1898   */\n      tag_353\n        /* \"#utility.yul\":1892:1897   */\n      dup3\n        /* \"#utility.yul\":1874:1898   */\n      tag_289\n      jump\t// in\n    tag_353:\n        /* \"#utility.yul\":1863:1898   */\n      swap1\n      pop\n        /* \"#utility.yul\":1808:1904   */\n      swap2\n      swap1\n      pop\n      jump\t// out\n        /* \"#utility.yul\":1910:2032   */\n    tag_291:\n        /* \"#utility.yul\":1983:2007   */\n      tag_355\n        /* \"#utility.yul\":2001:2006   */\n      dup2\n        /* \"#utility.yul\":1983:2007   */\n      tag_290\n      jump\t// in\n    tag_355:\n        /* \"#utility.yul\":1976:1981   */\n      dup2\n        /* \"#utility.yul\":1973:2008   */\n      eq\n        /* \"#utility.yul\":1963:2026   */\n      tag_356\n      jumpi\n        /* \"#utility.yul\":2022:2023   */\n      0x00\n        /* \"#utility.yul\":2019:2020   */\n      dup1\n        /* \"#utility.yul\":2012:2024   */\n      revert\n        /* \"#utility.yul\":1963:2026   */\n    tag_356:\n        /* \"#utility.yul\":1910:2032   */\n      pop\n      jump\t// out\n        /* \"#utility.yul\":2038:2177   */\n    tag_292:\n        /* \"#utility.yul\":2084:2089   */\n      0x00\n        /* \"#utility.yul\":2122:2128   */\n      dup2\n        /* \"#utility.yul\":2109:2129   */\n      calldataload\n        /* \"#utility.yul\":2100:2129   */\n      swap1\n      pop\n        /* \"#utility.yul\":2138:2171   */\n      tag_358\n        /* \"#utility.yul\":2165:2170   */\n      dup2\n        /* \"#utility.yul\":2138:2171   */\n      tag_291\n      jump\t// in\n    tag_358:\n        /* \"#utility.yul\":2038:2177   */\n      swap3\n      swap2\n      pop\n      pop\n      jump\t// out\n        /* \"#utility.yul\":2183:2260   */\n    tag_293:\n        /* \"#utility.yul\":2220:2227   */\n      0x00\n        /* \"#utility.yul\":2249:2254   */\n      dup2\n        /* \"#utility.yul\":2238:2254   */\n      swap1\n      pop\n        /* \"#utility.yul\":2183:2260   */\n      swap2\n      swap1\n      pop\n      jump\t// out\n        /* \"#utility.yul\":2266:2388   */\n    tag_294:\n        /* \"#utility.yul\":2339:2363   */\n      tag_361\n        /* \"#utility.yul\":2357:2362   */\n      dup2\n        /* \"#utility.yul\":2339:2363   */\n      tag_293\n      jump\t// in\n    tag_361:\n        /* \"#utility.yul\":2332:2337   */\n      dup2\n        /* \"#utility.yul\":2329:2364   */\n      eq\n        /* \"#utility.yul\":2319:2382   */\n      tag_362\n      jumpi\n        /* \"#utility.yul\":2378:2379   */\n      0x00\n        /* \"#utility.yul\":2375:2376   */\n      dup1\n        /* \"#utility.yul\":2368:2380   */\n      revert\n        /* \"#utility.yul\":2319:2382   */\n    tag_362:\n        /* \"#utility.yul\":2266:2388   */\n      pop\n      jump\t// out\n        /* \"#utility.yul\":2394:2533   */\n    tag_295:\n        /* \"#utility.yul\":2440:2445   */\n      0x00\n        /* \"#utility.yul\":2478:2484   */\n      dup2\n        /* \"#utility.yul\":2465:2485   */\n      calldataload\n        /* \"#utility.yul\":2456:2485   */\n      swap1\n      pop\n        /* \"#utility.yul\":2494:2527   */\n      tag_364\n        /* \"#utility.yul\":2521:2526   */\n      dup2\n        /* \"#utility.yul\":2494:2527   */\n      tag_294\n      jump\t// in\n    tag_364:\n        /* \"#utility.yul\":2394:2533   */\n      swap3\n      swap2\n      pop\n      pop\n      jump\t// out\n        /* \"#utility.yul\":2539:3013   */\n    tag_35:\n        /* \"#utility.yul\":2607:2613   */\n      0x00\n        /* \"#utility.yul\":2615:2621   */\n      dup1\n        /* \"#utility.yul\":2664:2666   */\n      0x40\n        /* \"#utility.yul\":2652:2661   */\n      dup4\n        /* \"#utility.yul\":2643:2650   */\n      dup6\n        /* \"#utility.yul\":2639:2662   */\n      sub\n        /* \"#utility.yul\":2635:2667   */\n      slt\n        /* \"#utility.yul\":2632:2751   */\n      iszero\n      tag_366\n      jumpi\n        /* \"#utility.yul\":2670:2749   */\n      tag_367\n      tag_287\n      jump\t// in\n    tag_367:\n        /* \"#utility.yul\":2632:2751   */\n    tag_366:\n        /* \"#utility.yul\":2790:2791   */\n      0x00\n        /* \"#utility.yul\":2815:2868   */\n      tag_368\n        /* \"#utility.yul\":2860:2867   */\n      dup6\n        /* \"#utility.yul\":2851:2857   */\n      dup3\n        /* \"#utility.yul\":2840:2849   */\n      dup7\n        /* \"#utility.yul\":2836:2858   */\n      add\n        /* \"#utility.yul\":2815:2868   */\n      tag_292\n      jump\t// in\n    tag_368:\n        /* \"#utility.yul\":2805:2868   */\n      swap3\n      pop\n        /* \"#utility.yul\":2761:2878   */\n      pop\n        /* \"#utility.yul\":2917:2919   */\n      0x20\n        /* \"#utility.yul\":2943:2996   */\n      tag_369\n        /* \"#utility.yul\":2988:2995   */\n      dup6\n        /* \"#utility.yul\":2979:2985   */\n      dup3\n        /* \"#utility.yul\":2968:2977   */\n      dup7\n        /* \"#utility.yul\":2964:2986   */\n      add\n        /* \"#utility.yul\":2943:2996   */\n      tag_295\n      jump\t// in\n    tag_369:\n        /* \"#utility.yul\":2933:2996   */\n      swap2\n      pop\n        /* \"#utility.yul\":2888:3006   */\n      pop\n        /* \"#utility.yul\":2539:3013   */\n      swap3\n      pop\n      swap3\n      swap1\n      pop\n      jump\t// out\n        /* \"#utility.yul\":3019:3109   */\n    tag_296:\n        /* \"#utility.yul\":3053:3060   */\n      0x00\n        /* \"#utility.yul\":3096:3101   */\n      dup2\n        /* \"#utility.yul\":3089:3102   */\n      iszero\n        /* \"#utility.yul\":3082:3103   */\n      iszero\n        /* \"#utility.yul\":3071:3103   */\n      swap1\n      pop\n        /* \"#utility.yul\":3019:3109   */\n      swap2\n      swap1\n      pop\n      jump\t// out\n        /* \"#utility.yul\":3115:3224   */\n    tag_297:\n        /* \"#utility.yul\":3196:3217   */\n      tag_372\n        /* \"#utility.yul\":3211:3216   */\n      dup2\n        /* \"#utility.yul\":3196:3217   */\n      tag_296\n      jump\t// in\n    tag_372:\n        /* \"#utility.yul\":3191:3194   */\n      dup3\n        /* \"#utility.yul\":3184:3218   */\n      mstore\n        /* \"#utility.yul\":3115:3224   */\n      pop\n      pop\n      jump\t// out\n        /* \"#utility.yul\":3230:3440   */\n    tag_38:\n        /* \"#utility.yul\":3317:3321   */\n      0x00\n        /* \"#utility.yul\":3355:3357   */\n      0x20\n        /* \"#utility.yul\":3344:3353   */\n      dup3\n        /* \"#utility.yul\":3340:3358   */\n      add\n        /* \"#utility.yul\":3332:3358   */\n      swap1\n      pop\n        /* \"#utility.yul\":3368:3433   */\n      tag_374\n        /* \"#utility.yul\":3430:3431   */\n      0x00\n        /* \"#utility.yul\":3419:3428   */\n      dup4\n        /* \"#utility.yul\":3415:3432   */\n      add\n        /* \"#utility.yul\":3406:3412   */\n      dup5\n        /* \"#utility.yul\":3368:3433   */\n      tag_297\n      jump\t// in\n    tag_374:\n        /* \"#utility.yul\":3230:3440   */\n      swap3\n      swap2\n      pop\n      pop\n      jump\t// out\n        /* \"#utility.yul\":3446:3564   */\n    tag_298:\n        /* \"#utility.yul\":3533:3557   */\n      tag_376\n        /* \"#utility.yul\":3551:3556   */\n      dup2\n        /* \"#utility.yul\":3533:3557   */\n      tag_293\n      jump\t// in\n    tag_376:\n        /* \"#utility.yul\":3528:3531   */\n      dup3\n        /* \"#utility.yul\":3521:3558   */\n      mstore\n        /* \"#utility.yul\":3446:3564   */\n      pop\n      pop\n      jump\t// out\n        /* \"#utility.yul\":3570:3792   */\n    tag_43:\n        /* \"#utility.yul\":3663:3667   */\n      0x00\n        /* \"#utility.yul\":3701:3703   */\n      0x20\n        /* \"#utility.yul\":3690:3699   */\n      dup3\n        /* \"#utility.yul\":3686:3704   */\n      add\n        /* \"#utility.yul\":3678:3704   */\n      swap1\n      pop\n        /* \"#utility.yul\":3714:3785   */\n      tag_378\n        /* \"#utility.yul\":3782:3783   */\n      0x00\n        /* \"#utility.yul\":3771:3780   */\n      dup4\n        /* \"#utility.yul\":3767:3784   */\n      add\n        /* \"#utility.yul\":3758:3764   */\n      dup5\n        /* \"#utility.yul\":3714:3785   */\n      tag_298\n      jump\t// in\n    tag_378:\n        /* \"#utility.yul\":3570:3792   */\n      swap3\n      swap2\n      pop\n      pop\n      jump\t// out\n        /* \"#utility.yul\":3798:4417   */\n    tag_47:\n        /* \"#utility.yul\":3875:3881   */\n      0x00\n        /* \"#utility.yul\":3883:3889   */\n      dup1\n        /* \"#utility.yul\":3891:3897   */\n      0x00\n        /* \"#utility.yul\":3940:3942   */\n      0x60\n        /* \"#utility.yul\":3928:3937   */\n      dup5\n        /* \"#utility.yul\":3919:3926   */\n      dup7\n        /* \"#utility.yul\":3915:3938   */\n      sub\n        /* \"#utility.yul\":3911:3943   */\n      slt\n        /* \"#utility.yul\":3908:4027   */\n      iszero\n      tag_380\n      jumpi\n        /* \"#utility.yul\":3946:4025   */\n      tag_381\n      tag_287\n      jump\t// in\n    tag_381:\n        /* \"#utility.yul\":3908:4027   */\n    tag_380:\n        /* \"#utility.yul\":4066:4067   */\n      0x00\n        /* \"#utility.yul\":4091:4144   */\n      tag_382\n        /* \"#utility.yul\":4136:4143   */\n      dup7\n        /* \"#utility.yul\":4127:4133   */\n      dup3\n        /* \"#utility.yul\":4116:4125   */\n      dup8\n        /* \"#utility.yul\":4112:4134   */\n      add\n        /* \"#utility.yul\":4091:4144   */\n      tag_292\n      jump\t// in\n    tag_382:\n        /* \"#utility.yul\":4081:4144   */\n      swap4\n      pop\n        /* \"#utility.yul\":4037:4154   */\n      pop\n        /* \"#utility.yul\":4193:4195   */\n      0x20\n        /* \"#utility.yul\":4219:4272   */\n      tag_383\n        /* \"#utility.yul\":4264:4271   */\n      dup7\n        /* \"#utility.yul\":4255:4261   */\n      dup3\n        /* \"#utility.yul\":4244:4253   */\n      dup8\n        /* \"#utility.yul\":4240:4262   */\n      add\n        /* \"#utility.yul\":4219:4272   */\n      tag_292\n      jump\t// in\n    tag_383:\n        /* \"#utility.yul\":4209:4272   */\n      swap3\n      pop\n        /* \"#utility.yul\":4164:4282   */\n      pop\n        /* \"#utility.yul\":4321:4323   */\n      0x40\n        /* \"#utility.yul\":4347:4400   */\n      tag_384\n        /* \"#utility.yul\":4392:4399   */\n      dup7\n        /* \"#utility.yul\":4383:4389   */\n      dup3\n        /* \"#utility.yul\":4372:4381   */\n      dup8\n        /* \"#utility.yul\":4368:4390   */\n      add\n        /* \"#utility.yul\":4347:4400   */\n      tag_295\n      jump\t// in\n    tag_384:\n        /* \"#utility.yul\":4337:4400   */\n      swap2\n      pop\n        /* \"#utility.yul\":4292:4410   */\n      pop\n        /* \"#utility.yul\":3798:4417   */\n      swap3\n      pop\n      swap3\n      pop\n      swap3\n      jump\t// out\n        /* \"#utility.yul\":4423:4509   */\n    tag_299:\n        /* \"#utility.yul\":4458:4465   */\n      0x00\n        /* \"#utility.yul\":4498:4502   */\n      0xff\n        /* \"#utility.yul\":4491:4496   */\n      dup3\n        /* \"#utility.yul\":4487:4503   */\n      and\n        /* \"#utility.yul\":4476:4503   */\n      swap1\n      pop\n        /* \"#utility.yul\":4423:4509   */\n      swap2\n      swap1\n      pop\n      jump\t// out\n        /* \"#utility.yul\":4515:4627   */\n    tag_300:\n        /* \"#utility.yul\":4598:4620   */\n      tag_387\n        /* \"#utility.yul\":4614:4619   */\n      dup2\n        /* \"#utility.yul\":4598:4620   */\n      tag_299\n      jump\t// in\n    tag_387:\n        /* \"#utility.yul\":4593:4596   */\n      dup3\n        /* \"#utility.yul\":4586:4621   */\n      mstore\n        /* \"#utility.yul\":4515:4627   */\n      pop\n      pop\n      jump\t// out\n        /* \"#utility.yul\":4633:4847   */\n    tag_54:\n        /* \"#utility.yul\":4722:4726   */\n      0x00\n        /* \"#utility.yul\":4760:4762   */\n      0x20\n        /* \"#utility.yul\":4749:4758   */\n      dup3\n        /* \"#utility.yul\":4745:4763   */\n      add\n        /* \"#utility.yul\":4737:4763   */\n      swap1\n      pop\n        /* \"#utility.yul\":4773:4840   */\n      tag_389\n        /* \"#utility.yul\":4837:4838   */\n      0x00\n        /* \"#utility.yul\":4826:4835   */\n      dup4\n        /* \"#utility.yul\":4822:4839   */\n      add\n        /* \"#utility.yul\":4813:4819   */\n      dup5\n        /* \"#utility.yul\":4773:4840   */\n      tag_300\n      jump\t// in\n    tag_389:\n        /* \"#utility.yul\":4633:4847   */\n      swap3\n      swap2\n      pop\n      pop\n      jump\t// out\n        /* \"#utility.yul\":4853:5182   */\n    tag_63:\n        /* \"#utility.yul\":4912:4918   */\n      0x00\n        /* \"#utility.yul\":4961:4963   */\n      0x20\n        /* \"#utility.yul\":4949:4958   */\n      dup3\n        /* \"#utility.yul\":4940:4947   */\n      dup5\n        /* \"#utility.yul\":4936:4959   */\n      sub\n        /* \"#utility.yul\":4932:4964   */\n      slt\n        /* \"#utility.yul\":4929:5048   */\n      iszero\n      tag_391\n      jumpi\n        /* \"#utility.yul\":4967:5046   */\n      tag_392\n      tag_287\n      jump\t// in\n    tag_392:\n        /* \"#utility.yul\":4929:5048   */\n    tag_391:\n        /* \"#utility.yul\":5087:5088   */\n      0x00\n        /* \"#utility.yul\":5112:5165   */\n      tag_393\n        /* \"#utility.yul\":5157:5164   */\n      dup5\n        /* \"#utility.yul\":5148:5154   */\n      dup3\n        /* \"#utility.yul\":5137:5146   */\n      dup6\n        /* \"#utility.yul\":5133:5155   */\n      add\n        /* \"#utility.yul\":5112:5165   */\n      tag_295\n      jump\t// in\n    tag_393:\n        /* \"#utility.yul\":5102:5165   */\n      swap2\n      pop\n        /* \"#utility.yul\":5058:5175   */\n      pop\n        /* \"#utility.yul\":4853:5182   */\n      swap3\n      swap2\n      pop\n      pop\n      jump\t// out\n        /* \"#utility.yul\":5188:5292   */\n    tag_301:\n        /* \"#utility.yul\":5233:5240   */\n      0x00\n        /* \"#utility.yul\":5262:5286   */\n      tag_395\n        /* \"#utility.yul\":5280:5285   */\n      dup3\n        /* \"#utility.yul\":5262:5286   */\n      tag_289\n      jump\t// in\n    tag_395:\n        /* \"#utility.yul\":5251:5286   */\n      swap1\n      pop\n        /* \"#utility.yul\":5188:5292   */\n      swap2\n      swap1\n      pop\n      jump\t// out\n        /* \"#utility.yul\":5298:5440   */\n    tag_302:\n        /* \"#utility.yul\":5401:5433   */\n      tag_397\n        /* \"#utility.yul\":5427:5432   */\n      dup2\n        /* \"#utility.yul\":5401:5433   */\n      tag_301\n      jump\t// in\n    tag_397:\n        /* \"#utility.yul\":5396:5399   */\n      dup3\n        /* \"#utility.yul\":5389:5434   */\n      mstore\n        /* \"#utility.yul\":5298:5440   */\n      pop\n      pop\n      jump\t// out\n        /* \"#utility.yul\":5446:5700   */\n    tag_69:\n        /* \"#utility.yul\":5555:5559   */\n      0x00\n        /* \"#utility.yul\":5593:5595   */\n      0x20\n        /* \"#utility.yul\":5582:5591   */\n      dup3\n        /* \"#utility.yul\":5578:5596   */\n      add\n        /* \"#utility.yul\":5570:5596   */\n      swap1\n      pop\n        /* \"#utility.yul\":5606:5693   */\n      tag_399\n        /* \"#utility.yul\":5690:5691   */\n      0x00\n        /* \"#utility.yul\":5679:5688   */\n      dup4\n        /* \"#utility.yul\":5675:5692   */\n      add\n        /* \"#utility.yul\":5666:5672   */\n      dup5\n        /* \"#utility.yul\":5606:5693   */\n      tag_302\n      jump\t// in\n    tag_399:\n        /* \"#utility.yul\":5446:5700   */\n      swap3\n      swap2\n      pop\n      pop\n      jump\t// out\n        /* \"#utility.yul\":5706:6035   */\n    tag_73:\n        /* \"#utility.yul\":5765:5771   */\n      0x00\n        /* \"#utility.yul\":5814:5816   */\n      0x20\n        /* \"#utility.yul\":5802:5811   */\n      dup3\n        /* \"#utility.yul\":5793:5800   */\n      dup5\n        /* \"#utility.yul\":5789:5812   */\n      sub\n        /* \"#utility.yul\":5785:5817   */\n      slt\n        /* \"#utility.yul\":5782:5901   */\n      iszero\n      tag_401\n      jumpi\n        /* \"#utility.yul\":5820:5899   */\n      tag_402\n      tag_287\n      jump\t// in\n    tag_402:\n        /* \"#utility.yul\":5782:5901   */\n    tag_401:\n        /* \"#utility.yul\":5940:5941   */\n      0x00\n        /* \"#utility.yul\":5965:6018   */\n      tag_403\n        /* \"#utility.yul\":6010:6017   */\n      dup5\n        /* \"#utility.yul\":6001:6007   */\n      dup3\n        /* \"#utility.yul\":5990:5999   */\n      dup6\n        /* \"#utility.yul\":5986:6008   */\n      add\n        /* \"#utility.yul\":5965:6018   */\n      tag_292\n      jump\t// in\n    tag_403:\n        /* \"#utility.yul\":5955:6018   */\n      swap2\n      pop\n        /* \"#utility.yul\":5911:6028   */\n      pop\n        /* \"#utility.yul\":5706:6035   */\n      swap3\n      swap2\n      pop\n      pop\n      jump\t// out\n        /* \"#utility.yul\":6041:6159   */\n    tag_303:\n        /* \"#utility.yul\":6128:6152   */\n      tag_405\n        /* \"#utility.yul\":6146:6151   */\n      dup2\n        /* \"#utility.yul\":6128:6152   */\n      tag_290\n      jump\t// in\n    tag_405:\n        /* \"#utility.yul\":6123:6126   */\n      dup3\n        /* \"#utility.yul\":6116:6153   */\n      mstore\n        /* \"#utility.yul\":6041:6159   */\n      pop\n      pop\n      jump\t// out\n        /* \"#utility.yul\":6165:6387   */\n    tag_91:\n        /* \"#utility.yul\":6258:6262   */\n      0x00\n        /* \"#utility.yul\":6296:6298   */\n      0x20\n        /* \"#utility.yul\":6285:6294   */\n      dup3\n        /* \"#utility.yul\":6281:6299   */\n      add\n        /* \"#utility.yul\":6273:6299   */\n      swap1\n      pop\n        /* \"#utility.yul\":6309:6380   */\n      tag_407\n        /* \"#utility.yul\":6377:6378   */\n      0x00\n        /* \"#utility.yul\":6366:6375   */\n      dup4\n        /* \"#utility.yul\":6362:6379   */\n      add\n        /* \"#utility.yul\":6353:6359   */\n      dup5\n        /* \"#utility.yul\":6309:6380   */\n      tag_303\n      jump\t// in\n    tag_407:\n        /* \"#utility.yul\":6165:6387   */\n      swap3\n      swap2\n      pop\n      pop\n      jump\t// out\n        /* \"#utility.yul\":6393:6867   */\n    tag_113:\n        /* \"#utility.yul\":6461:6467   */\n      0x00\n        /* \"#utility.yul\":6469:6475   */\n      dup1\n        /* \"#utility.yul\":6518:6520   */\n      0x40\n        /* \"#utility.yul\":6506:6515   */\n      dup4\n        /* \"#utility.yul\":6497:6504   */\n      dup6\n        /* \"#utility.yul\":6493:6516   */\n      sub\n        /* \"#utility.yul\":6489:6521   */\n      slt\n        /* \"#utility.yul\":6486:6605   */\n      iszero\n      tag_409\n      jumpi\n        /* \"#utility.yul\":6524:6603   */\n      tag_410\n      tag_287\n      jump\t// in\n    tag_410:\n        /* \"#utility.yul\":6486:6605   */\n    tag_409:\n        /* \"#utility.yul\":6644:6645   */\n      0x00\n        /* \"#utility.yul\":6669:6722   */\n      tag_411\n        /* \"#utility.yul\":6714:6721   */\n      dup6\n        /* \"#utility.yul\":6705:6711   */\n      dup3\n        /* \"#utility.yul\":6694:6703   */\n      dup7\n        /* \"#utility.yul\":6690:6712   */\n      add\n        /* \"#utility.yul\":6669:6722   */\n      tag_292\n      jump\t// in\n    tag_411:\n        /* \"#utility.yul\":6659:6722   */\n      swap3\n      pop\n        /* \"#utility.yul\":6615:6732   */\n      pop\n        /* \"#utility.yul\":6771:6773   */\n      0x20\n        /* \"#utility.yul\":6797:6850   */\n      tag_412\n        /* \"#utility.yul\":6842:6849   */\n      dup6\n        /* \"#utility.yul\":6833:6839   */\n      dup3\n        /* \"#utility.yul\":6822:6831   */\n      dup7\n        /* \"#utility.yul\":6818:6840   */\n      add\n        /* \"#utility.yul\":6797:6850   */\n      tag_292\n      jump\t// in\n    tag_412:\n        /* \"#utility.yul\":6787:6850   */\n      swap2\n      pop\n        /* \"#utility.yul\":6742:6860   */\n      pop\n        /* \"#utility.yul\":6393:6867   */\n      swap3\n      pop\n      swap3\n      swap1\n      pop\n      jump\t// out\n        /* \"#utility.yul\":6873:7053   */\n    tag_304:\n        /* \"#utility.yul\":6921:6998   */\n      0x4e487b7100000000000000000000000000000000000000000000000000000000\n        /* \"#utility.yul\":6918:6919   */\n      0x00\n        /* \"#utility.yul\":6911:6999   */\n      mstore\n        /* \"#utility.yul\":7018:7022   */\n      0x22\n        /* \"#utility.yul\":7015:7016   */\n      0x04\n        /* \"#utility.yul\":7008:7023   */\n      mstore\n        /* \"#utility.yul\":7042:7046   */\n      0x24\n        /* \"#utility.yul\":7039:7040   */\n      0x00\n        /* \"#utility.yul\":7032:7047   */\n      revert\n        /* \"#utility.yul\":7059:7379   */\n    tag_122:\n        /* \"#utility.yul\":7103:7109   */\n      0x00\n        /* \"#utility.yul\":7140:7141   */\n      0x02\n        /* \"#utility.yul\":7134:7138   */\n      dup3\n        /* \"#utility.yul\":7130:7142   */\n      div\n        /* \"#utility.yul\":7120:7142   */\n      swap1\n      pop\n        /* \"#utility.yul\":7187:7188   */\n      0x01\n        /* \"#utility.yul\":7181:7185   */\n      dup3\n        /* \"#utility.yul\":7177:7189   */\n      and\n        /* \"#utility.yul\":7208:7226   */\n      dup1\n        /* \"#utility.yul\":7198:7279   */\n      tag_415\n      jumpi\n        /* \"#utility.yul\":7264:7268   */\n      0x7f\n        /* \"#utility.yul\":7256:7262   */\n      dup3\n        /* \"#utility.yul\":7252:7269   */\n      and\n        /* \"#utility.yul\":7242:7269   */\n      swap2\n      pop\n        /* \"#utility.yul\":7198:7279   */\n    tag_415:\n        /* \"#utility.yul\":7326:7328   */\n      0x20\n        /* \"#utility.yul\":7318:7324   */\n      dup3\n        /* \"#utility.yul\":7315:7329   */\n      lt\n        /* \"#utility.yul\":7295:7313   */\n      dup2\n        /* \"#utility.yul\":7292:7330   */\n      sub\n        /* \"#utility.yul\":7289:7373   */\n      tag_416\n      jumpi\n        /* \"#utility.yul\":7345:7363   */\n      tag_417\n      tag_304\n      jump\t// in\n    tag_417:\n        /* \"#utility.yul\":7289:7373   */\n    tag_416:\n        /* \"#utility.yul\":7110:7379   */\n      pop\n        /* \"#utility.yul\":7059:7379   */\n      swap2\n      swap1\n      pop\n      jump\t// out\n        /* \"#utility.yul\":7385:7612   */\n    tag_305:\n        /* \"#utility.yul\":7525:7559   */\n      0x45524332303a207472616e7366657220616d6f756e7420657863656564732061\n        /* \"#utility.yul\":7521:7522   */\n      0x00\n        /* \"#utility.yul\":7513:7519   */\n      dup3\n        /* \"#utility.yul\":7509:7523   */\n      add\n        /* \"#utility.yul\":7502:7560   */\n      mstore\n        /* \"#utility.yul\":7594:7604   */\n      0x6c6c6f77616e6365000000000000000000000000000000000000000000000000\n        /* \"#utility.yul\":7589:7591   */\n      0x20\n        /* \"#utility.yul\":7581:7587   */\n      dup3\n        /* \"#utility.yul\":7577:7592   */\n      add\n        /* \"#utility.yul\":7570:7605   */\n      mstore\n        /* \"#utility.yul\":7385:7612   */\n      pop\n      jump\t// out\n        /* \"#utility.yul\":7618:7984   */\n    tag_306:\n        /* \"#utility.yul\":7760:7763   */\n      0x00\n        /* \"#utility.yul\":7781:7848   */\n      tag_420\n        /* \"#utility.yul\":7845:7847   */\n      0x28\n        /* \"#utility.yul\":7840:7843   */\n      dup4\n        /* \"#utility.yul\":7781:7848   */\n      tag_282\n      jump\t// in\n    tag_420:\n        /* \"#utility.yul\":7774:7848   */\n      swap2\n      pop\n        /* \"#utility.yul\":7857:7950   */\n      tag_421\n        /* \"#utility.yul\":7946:7949   */\n      dup3\n        /* \"#utility.yul\":7857:7950   */\n      tag_305\n      jump\t// in\n    tag_421:\n        /* \"#utility.yul\":7975:7977   */\n      0x40\n        /* \"#utility.yul\":7970:7973   */\n      dup3\n        /* \"#utility.yul\":7966:7978   */\n      add\n        /* \"#utility.yul\":7959:7978   */\n      swap1\n      pop\n        /* \"#utility.yul\":7618:7984   */\n      swap2\n      swap1\n      pop\n      jump\t// out\n        /* \"#utility.yul\":7990:8409   */\n    tag_139:\n        /* \"#utility.yul\":8156:8160   */\n      0x00\n        /* \"#utility.yul\":8194:8196   */\n      0x20\n        /* \"#utility.yul\":8183:8192   */\n      dup3\n        /* \"#utility.yul\":8179:8197   */\n      add\n        /* \"#utility.yul\":8171:8197   */\n      swap1\n      pop\n        /* \"#utility.yul\":8243:8252   */\n      dup2\n        /* \"#utility.yul\":8237:8241   */\n      dup2\n        /* \"#utility.yul\":8233:8253   */\n      sub\n        /* \"#utility.yul\":8229:8230   */\n      0x00\n        /* \"#utility.yul\":8218:8227   */\n      dup4\n        /* \"#utility.yul\":8214:8231   */\n      add\n        /* \"#utility.yul\":8207:8254   */\n      mstore\n        /* \"#utility.yul\":8271:8402   */\n      tag_423\n        /* \"#utility.yul\":8397:8401   */\n      dup2\n        /* \"#utility.yul\":8271:8402   */\n      tag_306\n      jump\t// in\n    tag_423:\n        /* \"#utility.yul\":8263:8402   */\n      swap1\n      pop\n        /* \"#utility.yul\":7990:8409   */\n      swap2\n      swap1\n      pop\n      jump\t// out\n        /* \"#utility.yul\":8415:8595   */\n    tag_307:\n        /* \"#utility.yul\":8463:8540   */\n      0x4e487b7100000000000000000000000000000000000000000000000000000000\n        /* \"#utility.yul\":8460:8461   */\n      0x00\n        /* \"#utility.yul\":8453:8541   */\n      mstore\n        /* \"#utility.yul\":8560:8564   */\n      0x11\n        /* \"#utility.yul\":8557:8558   */\n      0x04\n        /* \"#utility.yul\":8550:8565   */\n      mstore\n        /* \"#utility.yul\":8584:8588   */\n      0x24\n        /* \"#utility.yul\":8581:8582   */\n      0x00\n        /* \"#utility.yul\":8574:8589   */\n      revert\n        /* \"#utility.yul\":8601:8795   */\n    tag_143:\n        /* \"#utility.yul\":8641:8645   */\n      0x00\n        /* \"#utility.yul\":8661:8681   */\n      tag_426\n        /* \"#utility.yul\":8679:8680   */\n      dup3\n        /* \"#utility.yul\":8661:8681   */\n      tag_293\n      jump\t// in\n    tag_426:\n        /* \"#utility.yul\":8656:8681   */\n      swap2\n      pop\n        /* \"#utility.yul\":8695:8715   */\n      tag_427\n        /* \"#utility.yul\":8713:8714   */\n      dup4\n        /* \"#utility.yul\":8695:8715   */\n      tag_293\n      jump\t// in\n    tag_427:\n        /* \"#utility.yul\":8690:8715   */\n      swap3\n      pop\n        /* \"#utility.yul\":8739:8740   */\n      dup3\n        /* \"#utility.yul\":8736:8737   */\n      dup3\n        /* \"#utility.yul\":8732:8741   */\n      sub\n        /* \"#utility.yul\":8724:8741   */\n      swap1\n      pop\n        /* \"#utility.yul\":8763:8764   */\n      dup2\n        /* \"#utility.yul\":8757:8761   */\n      dup2\n        /* \"#utility.yul\":8754:8765   */\n      gt\n        /* \"#utility.yul\":8751:8788   */\n      iszero\n      tag_428\n      jumpi\n        /* \"#utility.yul\":8768:8786   */\n      tag_429\n      tag_307\n      jump\t// in\n    tag_429:\n        /* \"#utility.yul\":8751:8788   */\n    tag_428:\n        /* \"#utility.yul\":8601:8795   */\n      swap3\n      swap2\n      pop\n      pop\n      jump\t// out\n        /* \"#utility.yul\":8801:8992   */\n    tag_150:\n        /* \"#utility.yul\":8841:8844   */\n      0x00\n        /* \"#utility.yul\":8860:8880   */\n      tag_431\n        /* \"#utility.yul\":8878:8879   */\n      dup3\n        /* \"#utility.yul\":8860:8880   */\n      tag_293\n      jump\t// in\n    tag_431:\n        /* \"#utility.yul\":8855:8880   */\n      swap2\n      pop\n        /* \"#utility.yul\":8894:8914   */\n      tag_432\n        /* \"#utility.yul\":8912:8913   */\n      dup4\n        /* \"#utility.yul\":8894:8914   */\n      tag_293\n      jump\t// in\n    tag_432:\n        /* \"#utility.yul\":8889:8914   */\n      swap3\n      pop\n        /* \"#utility.yul\":8937:8938   */\n      dup3\n        /* \"#utility.yul\":8934:8935   */\n      dup3\n        /* \"#utility.yul\":8930:8939   */\n      add\n        /* \"#utility.yul\":8923:8939   */\n      swap1\n      pop\n        /* \"#utility.yul\":8958:8961   */\n      dup1\n        /* \"#utility.yul\":8955:8956   */\n      dup3\n        /* \"#utility.yul\":8952:8962   */\n      gt\n        /* \"#utility.yul\":8949:8985   */\n      iszero\n      tag_433\n      jumpi\n        /* \"#utility.yul\":8965:8983   */\n      tag_434\n      tag_307\n      jump\t// in\n    tag_434:\n        /* \"#utility.yul\":8949:8985   */\n    tag_433:\n        /* \"#utility.yul\":8801:8992   */\n      swap3\n      swap2\n      pop\n      pop\n      jump\t// out\n        /* \"#utility.yul\":8998:9180   */\n    tag_308:\n        /* \"#utility.yul\":9138:9172   */\n      0x4f776e61626c653a2063616c6c6572206973206e6f7420746865206f776e6572\n        /* \"#utility.yul\":9134:9135   */\n      0x00\n        /* \"#utility.yul\":9126:9132   */\n      dup3\n        /* \"#utility.yul\":9122:9136   */\n      add\n        /* \"#utility.yul\":9115:9173   */\n      mstore\n        /* \"#utility.yul\":8998:9180   */\n      pop\n      jump\t// out\n        /* \"#utility.yul\":9186:9552   */\n    tag_309:\n        /* \"#utility.yul\":9328:9331   */\n      0x00\n        /* \"#utility.yul\":9349:9416   */\n      tag_437\n        /* \"#utility.yul\":9413:9415   */\n      0x20\n        /* \"#utility.yul\":9408:9411   */\n      dup4\n        /* \"#utility.yul\":9349:9416   */\n      tag_282\n      jump\t// in\n    tag_437:\n        /* \"#utility.yul\":9342:9416   */\n      swap2\n      pop\n        /* \"#utility.yul\":9425:9518   */\n      tag_438\n        /* \"#utility.yul\":9514:9517   */\n      dup3\n        /* \"#utility.yul\":9425:9518   */\n      tag_308\n      jump\t// in\n    tag_438:\n        /* \"#utility.yul\":9543:9545   */\n      0x20\n        /* \"#utility.yul\":9538:9541   */\n      dup3\n        /* \"#utility.yul\":9534:9546   */\n      add\n        /* \"#utility.yul\":9527:9546   */\n      swap1\n      pop\n        /* \"#utility.yul\":9186:9552   */\n      swap2\n      swap1\n      pop\n      jump\t// out\n        /* \"#utility.yul\":9558:9977   */\n    tag_160:\n        /* \"#utility.yul\":9724:9728   */\n      0x00\n        /* \"#utility.yul\":9762:9764   */\n      0x20\n        /* \"#utility.yul\":9751:9760   */\n      dup3\n        /* \"#utility.yul\":9747:9765   */\n      add\n        /* \"#utility.yul\":9739:9765   */\n      swap1\n      pop\n        /* \"#utility.yul\":9811:9820   */\n      dup2\n        /* \"#utility.yul\":9805:9809   */\n      dup2\n        /* \"#utility.yul\":9801:9821   */\n      sub\n        /* \"#utility.yul\":9797:9798   */\n      0x00\n        /* \"#utility.yul\":9786:9795   */\n      dup4\n        /* \"#utility.yul\":9782:9799   */\n      add\n        /* \"#utility.yul\":9775:9822   */\n      mstore\n        /* \"#utility.yul\":9839:9970   */\n      tag_440\n        /* \"#utility.yul\":9965:9969   */\n      dup2\n        /* \"#utility.yul\":9839:9970   */\n      tag_309\n      jump\t// in\n    tag_440:\n        /* \"#utility.yul\":9831:9970   */\n      swap1\n      pop\n        /* \"#utility.yul\":9558:9977   */\n      swap2\n      swap1\n      pop\n      jump\t// out\n        /* \"#utility.yul\":9983:10207   */\n    tag_310:\n        /* \"#utility.yul\":10123:10157   */\n      0x45524332303a2064656372656173656420616c6c6f77616e63652062656c6f77\n        /* \"#utility.yul\":10119:10120   */\n      0x00\n        /* \"#utility.yul\":10111:10117   */\n      dup3\n        /* \"#utility.yul\":10107:10121   */\n      add\n        /* \"#utility.yul\":10100:10158   */\n      mstore\n        /* \"#utility.yul\":10192:10199   */\n      0x207a65726f000000000000000000000000000000000000000000000000000000\n        /* \"#utility.yul\":10187:10189   */\n      0x20\n        /* \"#utility.yul\":10179:10185   */\n      dup3\n        /* \"#utility.yul\":10175:10190   */\n      add\n        /* \"#utility.yul\":10168:10200   */\n      mstore\n        /* \"#utility.yul\":9983:10207   */\n      pop\n      jump\t// out\n        /* \"#utility.yul\":10213:10579   */\n    tag_311:\n        /* \"#utility.yul\":10355:10358   */\n      0x00\n        /* \"#utility.yul\":10376:10443   */\n      tag_443\n        /* \"#utility.yul\":10440:10442   */\n      0x25\n        /* \"#utility.yul\":10435:10438   */\n      dup4\n        /* \"#utility.yul\":10376:10443   */\n      tag_282\n      jump\t// in\n    tag_443:\n        /* \"#utility.yul\":10369:10443   */\n      swap2\n      pop\n        /* \"#utility.yul\":10452:10545   */\n      tag_444\n        /* \"#utility.yul\":10541:10544   */\n      dup3\n        /* \"#utility.yul\":10452:10545   */\n      tag_310\n      jump\t// in\n    tag_444:\n        /* \"#utility.yul\":10570:10572   */\n      0x40\n        /* \"#utility.yul\":10565:10568   */\n      dup3\n        /* \"#utility.yul\":10561:10573   */\n      add\n        /* \"#utility.yul\":10554:10573   */\n      swap1\n      pop\n        /* \"#utility.yul\":10213:10579   */\n      swap2\n      swap1\n      pop\n      jump\t// out\n        /* \"#utility.yul\":10585:11004   */\n    tag_173:\n        /* \"#utility.yul\":10751:10755   */\n      0x00\n        /* \"#utility.yul\":10789:10791   */\n      0x20\n        /* \"#utility.yul\":10778:10787   */\n      dup3\n        /* \"#utility.yul\":10774:10792   */\n      add\n        /* \"#utility.yul\":10766:10792   */\n      swap1\n      pop\n        /* \"#utility.yul\":10838:10847   */\n      dup2\n        /* \"#utility.yul\":10832:10836   */\n      dup2\n        /* \"#utility.yul\":10828:10848   */\n      sub\n        /* \"#utility.yul\":10824:10825   */\n      0x00\n        /* \"#utility.yul\":10813:10822   */\n      dup4\n        /* \"#utility.yul\":10809:10826   */\n      add\n        /* \"#utility.yul\":10802:10849   */\n      mstore\n        /* \"#utility.yul\":10866:10997   */\n      tag_446\n        /* \"#utility.yul\":10992:10996   */\n      dup2\n        /* \"#utility.yul\":10866:10997   */\n      tag_311\n      jump\t// in\n    tag_446:\n        /* \"#utility.yul\":10858:10997   */\n      swap1\n      pop\n        /* \"#utility.yul\":10585:11004   */\n      swap2\n      swap1\n      pop\n      jump\t// out\n        /* \"#utility.yul\":11010:11235   */\n    tag_312:\n        /* \"#utility.yul\":11150:11184   */\n      0x4f776e61626c653a206e6577206f776e657220697320746865207a65726f2061\n        /* \"#utility.yul\":11146:11147   */\n      0x00\n        /* \"#utility.yul\":11138:11144   */\n      dup3\n        /* \"#utility.yul\":11134:11148   */\n      add\n        /* \"#utility.yul\":11127:11185   */\n      mstore\n        /* \"#utility.yul\":11219:11227   */\n      0x6464726573730000000000000000000000000000000000000000000000000000\n        /* \"#utility.yul\":11214:11216   */\n      0x20\n        /* \"#utility.yul\":11206:11212   */\n      dup3\n        /* \"#utility.yul\":11202:11217   */\n      add\n        /* \"#utility.yul\":11195:11228   */\n      mstore\n        /* \"#utility.yul\":11010:11235   */\n      pop\n      jump\t// out\n        /* \"#utility.yul\":11241:11607   */\n    tag_313:\n        /* \"#utility.yul\":11383:11386   */\n      0x00\n        /* \"#utility.yul\":11404:11471   */\n      tag_449\n        /* \"#utility.yul\":11468:11470   */\n      0x26\n        /* \"#utility.yul\":11463:11466   */\n      dup4\n        /* \"#utility.yul\":11404:11471   */\n      tag_282\n      jump\t// in\n    tag_449:\n        /* \"#utility.yul\":11397:11471   */\n      swap2\n      pop\n        /* \"#utility.yul\":11480:11573   */\n      tag_450\n        /* \"#utility.yul\":11569:11572   */\n      dup3\n        /* \"#utility.yul\":11480:11573   */\n      tag_312\n      jump\t// in\n    tag_450:\n        /* \"#utility.yul\":11598:11600   */\n      0x40\n        /* \"#utility.yul\":11593:11596   */\n      dup3\n        /* \"#utility.yul\":11589:11601   */\n      add\n        /* \"#utility.yul\":11582:11601   */\n      swap1\n      pop\n        /* \"#utility.yul\":11241:11607   */\n      swap2\n      swap1\n      pop\n      jump\t// out\n        /* \"#utility.yul\":11613:12032   */\n    tag_189:\n        /* \"#utility.yul\":11779:11783   */\n      0x00\n        /* \"#utility.yul\":11817:11819   */\n      0x20\n        /* \"#utility.yul\":11806:11815   */\n      dup3\n        /* \"#utility.yul\":11802:11820   */\n      add\n        /* \"#utility.yul\":11794:11820   */\n      swap1\n      pop\n        /* \"#utility.yul\":11866:11875   */\n      dup2\n        /* \"#utility.yul\":11860:11864   */\n      dup2\n        /* \"#utility.yul\":11856:11876   */\n      sub\n        /* \"#utility.yul\":11852:11853   */\n      0x00\n        /* \"#utility.yul\":11841:11850   */\n      dup4\n        /* \"#utility.yul\":11837:11854   */\n      add\n        /* \"#utility.yul\":11830:11877   */\n      mstore\n        /* \"#utility.yul\":11894:12025   */\n      tag_452\n        /* \"#utility.yul\":12020:12024   */\n      dup2\n        /* \"#utility.yul\":11894:12025   */\n      tag_313\n      jump\t// in\n    tag_452:\n        /* \"#utility.yul\":11886:12025   */\n      swap1\n      pop\n        /* \"#utility.yul\":11613:12032   */\n      swap2\n      swap1\n      pop\n      jump\t// out\n        /* \"#utility.yul\":12038:12261   */\n    tag_314:\n        /* \"#utility.yul\":12178:12212   */\n      0x45524332303a20617070726f76652066726f6d20746865207a65726f20616464\n        /* \"#utility.yul\":12174:12175   */\n      0x00\n        /* \"#utility.yul\":12166:12172   */\n      dup3\n        /* \"#utility.yul\":12162:12176   */\n      add\n        /* \"#utility.yul\":12155:12213   */\n      mstore\n        /* \"#utility.yul\":12247:12253   */\n      0x7265737300000000000000000000000000000000000000000000000000000000\n        /* \"#utility.yul\":12242:12244   */\n      0x20\n        /* \"#utility.yul\":12234:12240   */\n      dup3\n        /* \"#utility.yul\":12230:12245   */\n      add\n        /* \"#utility.yul\":12223:12254   */\n      mstore\n        /* \"#utility.yul\":12038:12261   */\n      pop\n      jump\t// out\n        /* \"#utility.yul\":12267:12633   */\n    tag_315:\n        /* \"#utility.yul\":12409:12412   */\n      0x00\n        /* \"#utility.yul\":12430:12497   */\n      tag_455\n        /* \"#utility.yul\":12494:12496   */\n      0x24\n        /* \"#utility.yul\":12489:12492   */\n      dup4\n        /* \"#utility.yul\":12430:12497   */\n      tag_282\n      jump\t// in\n    tag_455:\n        /* \"#utility.yul\":12423:12497   */\n      swap2\n      pop\n        /* \"#utility.yul\":12506:12599   */\n      tag_456\n        /* \"#utility.yul\":12595:12598   */\n      dup3\n        /* \"#utility.yul\":12506:12599   */\n      tag_314\n      jump\t// in\n    tag_456:\n        /* \"#utility.yul\":12624:12626   */\n      0x40\n        /* \"#utility.yul\":12619:12622   */\n      dup3\n        /* \"#utility.yul\":12615:12627   */\n      add\n        /* \"#utility.yul\":12608:12627   */\n      swap1\n      pop\n        /* \"#utility.yul\":12267:12633   */\n      swap2\n      swap1\n      pop\n      jump\t// out\n        /* \"#utility.yul\":12639:13058   */\n    tag_194:\n        /* \"#utility.yul\":12805:12809   */\n      0x00\n        /* \"#utility.yul\":12843:12845   */\n      0x20\n        /* \"#utility.yul\":12832:12841   */\n      dup3\n        /* \"#utility.yul\":12828:12846   */\n      add\n        /* \"#utility.yul\":12820:12846   */\n      swap1\n      pop\n        /* \"#utility.yul\":12892:12901   */\n      dup2\n        /* \"#utility.yul\":12886:12890   */\n      dup2\n        /* \"#utility.yul\":12882:12902   */\n      sub\n        /* \"#utility.yul\":12878:12879   */\n      0x00\n        /* \"#utility.yul\":12867:12876   */\n      dup4\n        /* \"#utility.yul\":12863:12880   */\n      add\n        /* \"#utility.yul\":12856:12903   */\n      mstore\n        /* \"#utility.yul\":12920:13051   */\n      tag_458\n        /* \"#utility.yul\":13046:13050   */\n      dup2\n        /* \"#utility.yul\":12920:13051   */\n      tag_315\n      jump\t// in\n    tag_458:\n        /* \"#utility.yul\":12912:13051   */\n      swap1\n      pop\n        /* \"#utility.yul\":12639:13058   */\n      swap2\n      swap1\n      pop\n      jump\t// out\n        /* \"#utility.yul\":13064:13285   */\n    tag_316:\n        /* \"#utility.yul\":13204:13238   */\n      0x45524332303a20617070726f766520746f20746865207a65726f206164647265\n        /* \"#utility.yul\":13200:13201   */\n      0x00\n        /* \"#utility.yul\":13192:13198   */\n      dup3\n        /* \"#utility.yul\":13188:13202   */\n      add\n        /* \"#utility.yul\":13181:13239   */\n      mstore\n        /* \"#utility.yul\":13273:13277   */\n      0x7373000000000000000000000000000000000000000000000000000000000000\n        /* \"#utility.yul\":13268:13270   */\n      0x20\n        /* \"#utility.yul\":13260:13266   */\n      dup3\n        /* \"#utility.yul\":13256:13271   */\n      add\n        /* \"#utility.yul\":13249:13278   */\n      mstore\n        /* \"#utility.yul\":13064:13285   */\n      pop\n      jump\t// out\n        /* \"#utility.yul\":13291:13657   */\n    tag_317:\n        /* \"#utility.yul\":13433:13436   */\n      0x00\n        /* \"#utility.yul\":13454:13521   */\n      tag_461\n        /* \"#utility.yul\":13518:13520   */\n      0x22\n        /* \"#utility.yul\":13513:13516   */\n      dup4\n        /* \"#utility.yul\":13454:13521   */\n      tag_282\n      jump\t// in\n    tag_461:\n        /* \"#utility.yul\":13447:13521   */\n      swap2\n      pop\n        /* \"#utility.yul\":13530:13623   */\n      tag_462\n        /* \"#utility.yul\":13619:13622   */\n      dup3\n        /* \"#utility.yul\":13530:13623   */\n      tag_316\n      jump\t// in\n    tag_462:\n        /* \"#utility.yul\":13648:13650   */\n      0x40\n        /* \"#utility.yul\":13643:13646   */\n      dup3\n        /* \"#utility.yul\":13639:13651   */\n      add\n        /* \"#utility.yul\":13632:13651   */\n      swap1\n      pop\n        /* \"#utility.yul\":13291:13657   */\n      swap2\n      swap1\n      pop\n      jump\t// out\n        /* \"#utility.yul\":13663:14082   */\n    tag_197:\n        /* \"#utility.yul\":13829:13833   */\n      0x00\n        /* \"#utility.yul\":13867:13869   */\n      0x20\n        /* \"#utility.yul\":13856:13865   */\n      dup3\n        /* \"#utility.yul\":13852:13870   */\n      add\n        /* \"#utility.yul\":13844:13870   */\n      swap1\n      pop\n        /* \"#utility.yul\":13916:13925   */\n      dup2\n        /* \"#utility.yul\":13910:13914   */\n      dup2\n        /* \"#utility.yul\":13906:13926   */\n      sub\n        /* \"#utility.yul\":13902:13903   */\n      0x00\n        /* \"#utility.yul\":13891:13900   */\n      dup4\n        /* \"#utility.yul\":13887:13904   */\n      add\n        /* \"#utility.yul\":13880:13927   */\n      mstore\n        /* \"#utility.yul\":13944:14075   */\n      tag_464\n        /* \"#utility.yul\":14070:14074   */\n      dup2\n        /* \"#utility.yul\":13944:14075   */\n      tag_317\n      jump\t// in\n    tag_464:\n        /* \"#utility.yul\":13936:14075   */\n      swap1\n      pop\n        /* \"#utility.yul\":13663:14082   */\n      swap2\n      swap1\n      pop\n      jump\t// out\n        /* \"#utility.yul\":14088:14312   */\n    tag_318:\n        /* \"#utility.yul\":14228:14262   */\n      0x45524332303a207472616e736665722066726f6d20746865207a65726f206164\n        /* \"#utility.yul\":14224:14225   */\n      0x00\n        /* \"#utility.yul\":14216:14222   */\n      dup3\n        /* \"#utility.yul\":14212:14226   */\n      add\n        /* \"#utility.yul\":14205:14263   */\n      mstore\n        /* \"#utility.yul\":14297:14304   */\n      0x6472657373000000000000000000000000000000000000000000000000000000\n        /* \"#utility.yul\":14292:14294   */\n      0x20\n        /* \"#utility.yul\":14284:14290   */\n      dup3\n        /* \"#utility.yul\":14280:14295   */\n      add\n        /* \"#utility.yul\":14273:14305   */\n      mstore\n        /* \"#utility.yul\":14088:14312   */\n      pop\n      jump\t// out\n        /* \"#utility.yul\":14318:14684   */\n    tag_319:\n        /* \"#utility.yul\":14460:14463   */\n      0x00\n        /* \"#utility.yul\":14481:14548   */\n      tag_467\n        /* \"#utility.yul\":14545:14547   */\n      0x25\n        /* \"#utility.yul\":14540:14543   */\n      dup4\n        /* \"#utility.yul\":14481:14548   */\n      tag_282\n      jump\t// in\n    tag_467:\n        /* \"#utility.yul\":14474:14548   */\n      swap2\n      pop\n        /* \"#utility.yul\":14557:14650   */\n      tag_468\n        /* \"#utility.yul\":14646:14649   */\n      dup3\n        /* \"#utility.yul\":14557:14650   */\n      tag_318\n      jump\t// in\n    tag_468:\n        /* \"#utility.yul\":14675:14677   */\n      0x40\n        /* \"#utility.yul\":14670:14673   */\n      dup3\n        /* \"#utility.yul\":14666:14678   */\n      add\n        /* \"#utility.yul\":14659:14678   */\n      swap1\n      pop\n        /* \"#utility.yul\":14318:14684   */\n      swap2\n      swap1\n      pop\n      jump\t// out\n        /* \"#utility.yul\":14690:15109   */\n    tag_202:\n        /* \"#utility.yul\":14856:14860   */\n      0x00\n        /* \"#utility.yul\":14894:14896   */\n      0x20\n        /* \"#utility.yul\":14883:14892   */\n      dup3\n        /* \"#utility.yul\":14879:14897   */\n      add\n        /* \"#utility.yul\":14871:14897   */\n      swap1\n      pop\n        /* \"#utility.yul\":14943:14952   */\n      dup2\n        /* \"#utility.yul\":14937:14941   */\n      dup2\n        /* \"#utility.yul\":14933:14953   */\n      sub\n        /* \"#utility.yul\":14929:14930   */\n      0x00\n        /* \"#utility.yul\":14918:14927   */\n      dup4\n        /* \"#utility.yul\":14914:14931   */\n      add\n        /* \"#utility.yul\":14907:14954   */\n      mstore\n        /* \"#utility.yul\":14971:15102   */\n      tag_470\n        /* \"#utility.yul\":15097:15101   */\n      dup2\n        /* \"#utility.yul\":14971:15102   */\n      tag_319\n      jump\t// in\n    tag_470:\n        /* \"#utility.yul\":14963:15102   */\n      swap1\n      pop\n        /* \"#utility.yul\":14690:15109   */\n      swap2\n      swap1\n      pop\n      jump\t// out\n        /* \"#utility.yul\":15115:15337   */\n    tag_320:\n        /* \"#utility.yul\":15255:15289   */\n      0x45524332303a207472616e7366657220746f20746865207a65726f2061646472\n        /* \"#utility.yul\":15251:15252   */\n      0x00\n        /* \"#utility.yul\":15243:15249   */\n      dup3\n        /* \"#utility.yul\":15239:15253   */\n      add\n        /* \"#utility.yul\":15232:15290   */\n      mstore\n        /* \"#utility.yul\":15324:15329   */\n      0x6573730000000000000000000000000000000000000000000000000000000000\n        /* \"#utility.yul\":15319:15321   */\n      0x20\n        /* \"#utility.yul\":15311:15317   */\n      dup3\n        /* \"#utility.yul\":15307:15322   */\n      add\n        /* \"#utility.yul\":15300:15330   */\n      mstore\n        /* \"#utility.yul\":15115:15337   */\n      pop\n      jump\t// out\n        /* \"#utility.yul\":15343:15709   */\n    tag_321:\n        /* \"#utility.yul\":15485:15488   */\n      0x00\n        /* \"#utility.yul\":15506:15573   */\n      tag_473\n        /* \"#utility.yul\":15570:15572   */\n      0x23\n        /* \"#utility.yul\":15565:15568   */\n      dup4\n        /* \"#utility.yul\":15506:15573   */\n      tag_282\n      jump\t// in\n    tag_473:\n        /* \"#utility.yul\":15499:15573   */\n      swap2\n      pop\n        /* \"#utility.yul\":15582:15675   */\n      tag_474\n        /* \"#utility.yul\":15671:15674   */\n      dup3\n        /* \"#utility.yul\":15582:15675   */\n      tag_320\n      jump\t// in\n    tag_474:\n        /* \"#utility.yul\":15700:15702   */\n      0x40\n        /* \"#utility.yul\":15695:15698   */\n      dup3\n        /* \"#utility.yul\":15691:15703   */\n      add\n        /* \"#utility.yul\":15684:15703   */\n      swap1\n      pop\n        /* \"#utility.yul\":15343:15709   */\n      swap2\n      swap1\n      pop\n      jump\t// out\n        /* \"#utility.yul\":15715:16134   */\n    tag_205:\n        /* \"#utility.yul\":15881:15885   */\n      0x00\n        /* \"#utility.yul\":15919:15921   */\n      0x20\n        /* \"#utility.yul\":15908:15917   */\n      dup3\n        /* \"#utility.yul\":15904:15922   */\n      add\n        /* \"#utility.yul\":15896:15922   */\n      swap1\n      pop\n        /* \"#utility.yul\":15968:15977   */\n      dup2\n        /* \"#utility.yul\":15962:15966   */\n      dup2\n        /* \"#utility.yul\":15958:15978   */\n      sub\n        /* \"#utility.yul\":15954:15955   */\n      0x00\n        /* \"#utility.yul\":15943:15952   */\n      dup4\n        /* \"#utility.yul\":15939:15956   */\n      add\n        /* \"#utility.yul\":15932:15979   */\n      mstore\n        /* \"#utility.yul\":15996:16127   */\n      tag_476\n        /* \"#utility.yul\":16122:16126   */\n      dup2\n        /* \"#utility.yul\":15996:16127   */\n      tag_321\n      jump\t// in\n    tag_476:\n        /* \"#utility.yul\":15988:16127   */\n      swap1\n      pop\n        /* \"#utility.yul\":15715:16134   */\n      swap2\n      swap1\n      pop\n      jump\t// out\n        /* \"#utility.yul\":16140:16365   */\n    tag_322:\n        /* \"#utility.yul\":16280:16314   */\n      0x45524332303a207472616e7366657220616d6f756e7420657863656564732062\n        /* \"#utility.yul\":16276:16277   */\n      0x00\n        /* \"#utility.yul\":16268:16274   */\n      dup3\n        /* \"#utility.yul\":16264:16278   */\n      add\n        /* \"#utility.yul\":16257:16315   */\n      mstore\n        /* \"#utility.yul\":16349:16357   */\n      0x616c616e63650000000000000000000000000000000000000000000000000000\n        /* \"#utility.yul\":16344:16346   */\n      0x20\n        /* \"#utility.yul\":16336:16342   */\n      dup3\n        /* \"#utility.yul\":16332:16347   */\n      add\n        /* \"#utility.yul\":16325:16358   */\n      mstore\n        /* \"#utility.yul\":16140:16365   */\n      pop\n      jump\t// out\n        /* \"#utility.yul\":16371:16737   */\n    tag_323:\n        /* \"#utility.yul\":16513:16516   */\n      0x00\n        /* \"#utility.yul\":16534:16601   */\n      tag_479\n        /* \"#utility.yul\":16598:16600   */\n      0x26\n        /* \"#utility.yul\":16593:16596   */\n      dup4\n        /* \"#utility.yul\":16534:16601   */\n      tag_282\n      jump\t// in\n    tag_479:\n        /* \"#utility.yul\":16527:16601   */\n      swap2\n      pop\n        /* \"#utility.yul\":16610:16703   */\n      tag_480\n        /* \"#utility.yul\":16699:16702   */\n      dup3\n        /* \"#utility.yul\":16610:16703   */\n      tag_322\n      jump\t// in\n    tag_480:\n        /* \"#utility.yul\":16728:16730   */\n      0x40\n        /* \"#utility.yul\":16723:16726   */\n      dup3\n        /* \"#utility.yul\":16719:16731   */\n      add\n        /* \"#utility.yul\":16712:16731   */\n      swap1\n      pop\n        /* \"#utility.yul\":16371:16737   */\n      swap2\n      swap1\n      pop\n      jump\t// out\n        /* \"#utility.yul\":16743:17162   */\n    tag_210:\n        /* \"#utility.yul\":16909:16913   */\n      0x00\n        /* \"#utility.yul\":16947:16949   */\n      0x20\n        /* \"#utility.yul\":16936:16945   */\n      dup3\n        /* \"#utility.yul\":16932:16950   */\n      add\n        /* \"#utility.yul\":16924:16950   */\n      swap1\n      pop\n        /* \"#utility.yul\":16996:17005   */\n      dup2\n        /* \"#utility.yul\":16990:16994   */\n      dup2\n        /* \"#utility.yul\":16986:17006   */\n      sub\n        /* \"#utility.yul\":16982:16983   */\n      0x00\n        /* \"#utility.yul\":16971:16980   */\n      dup4\n        /* \"#utility.yul\":16967:16984   */\n      add\n        /* \"#utility.yul\":16960:17007   */\n      mstore\n        /* \"#utility.yul\":17024:17155   */\n      tag_482\n        /* \"#utility.yul\":17150:17154   */\n      dup2\n        /* \"#utility.yul\":17024:17155   */\n      tag_323\n      jump\t// in\n    tag_482:\n        /* \"#utility.yul\":17016:17155   */\n      swap1\n      pop\n        /* \"#utility.yul\":16743:17162   */\n      swap2\n      swap1\n      pop\n      jump\t// out\n        /* \"#utility.yul\":17168:17388   */\n    tag_324:\n        /* \"#utility.yul\":17308:17342   */\n      0x45524332303a206275726e2066726f6d20746865207a65726f20616464726573\n        /* \"#utility.yul\":17304:17305   */\n      0x00\n        /* \"#utility.yul\":17296:17302   */\n      dup3\n        /* \"#utility.yul\":17292:17306   */\n      add\n        /* \"#utility.yul\":17285:17343   */\n      mstore\n        /* \"#utility.yul\":17377:17380   */\n      0x7300000000000000000000000000000000000000000000000000000000000000\n        /* \"#utility.yul\":17372:17374   */\n      0x20\n        /* \"#utility.yul\":17364:17370   */\n      dup3\n        /* \"#utility.yul\":17360:17375   */\n      add\n        /* \"#utility.yul\":17353:17381   */\n      mstore\n        /* \"#utility.yul\":17168:17388   */\n      pop\n      jump\t// out\n        /* \"#utility.yul\":17394:17760   */\n    tag_325:\n        /* \"#utility.yul\":17536:17539   */\n      0x00\n        /* \"#utility.yul\":17557:17624   */\n      tag_485\n        /* \"#utility.yul\":17621:17623   */\n      0x21\n        /* \"#utility.yul\":17616:17619   */\n      dup4\n        /* \"#utility.yul\":17557:17624   */\n      tag_282\n      jump\t// in\n    tag_485:\n        /* \"#utility.yul\":17550:17624   */\n      swap2\n      pop\n        /* \"#utility.yul\":17633:17726   */\n      tag_486\n        /* \"#utility.yul\":17722:17725   */\n      dup3\n        /* \"#utility.yul\":17633:17726   */\n      tag_324\n      jump\t// in\n    tag_486:\n        /* \"#utility.yul\":17751:17753   */\n      0x40\n        /* \"#utility.yul\":17746:17749   */\n      dup3\n        /* \"#utility.yul\":17742:17754   */\n      add\n        /* \"#utility.yul\":17735:17754   */\n      swap1\n      pop\n        /* \"#utility.yul\":17394:17760   */\n      swap2\n      swap1\n      pop\n      jump\t// out\n        /* \"#utility.yul\":17766:18185   */\n    tag_217:\n        /* \"#utility.yul\":17932:17936   */\n      0x00\n        /* \"#utility.yul\":17970:17972   */\n      0x20\n        /* \"#utility.yul\":17959:17968   */\n      dup3\n        /* \"#utility.yul\":17955:17973   */\n      add\n        /* \"#utility.yul\":17947:17973   */\n      swap1\n      pop\n        /* \"#utility.yul\":18019:18028   */\n      dup2\n        /* \"#utility.yul\":18013:18017   */\n      dup2\n        /* \"#utility.yul\":18009:18029   */\n      sub\n        /* \"#utility.yul\":18005:18006   */\n      0x00\n        /* \"#utility.yul\":17994:18003   */\n      dup4\n        /* \"#utility.yul\":17990:18007   */\n      add\n        /* \"#utility.yul\":17983:18030   */\n      mstore\n        /* \"#utility.yul\":18047:18178   */\n      tag_488\n        /* \"#utility.yul\":18173:18177   */\n      dup2\n        /* \"#utility.yul\":18047:18178   */\n      tag_325\n      jump\t// in\n    tag_488:\n        /* \"#utility.yul\":18039:18178   */\n      swap1\n      pop\n        /* \"#utility.yul\":17766:18185   */\n      swap2\n      swap1\n      pop\n      jump\t// out\n        /* \"#utility.yul\":18191:18412   */\n    tag_326:\n        /* \"#utility.yul\":18331:18365   */\n      0x45524332303a206275726e20616d6f756e7420657863656564732062616c616e\n        /* \"#utility.yul\":18327:18328   */\n      0x00\n        /* \"#utility.yul\":18319:18325   */\n      dup3\n        /* \"#utility.yul\":18315:18329   */\n      add\n        /* \"#utility.yul\":18308:18366   */\n      mstore\n        /* \"#utility.yul\":18400:18404   */\n      0x6365000000000000000000000000000000000000000000000000000000000000\n        /* \"#utility.yul\":18395:18397   */\n      0x20\n        /* \"#utility.yul\":18387:18393   */\n      dup3\n        /* \"#utility.yul\":18383:18398   */\n      add\n        /* \"#utility.yul\":18376:18405   */\n      mstore\n        /* \"#utility.yul\":18191:18412   */\n      pop\n      jump\t// out\n        /* \"#utility.yul\":18418:18784   */\n    tag_327:\n        /* \"#utility.yul\":18560:18563   */\n      0x00\n        /* \"#utility.yul\":18581:18648   */\n      tag_491\n        /* \"#utility.yul\":18645:18647   */\n      0x22\n        /* \"#utility.yul\":18640:18643   */\n      dup4\n        /* \"#utility.yul\":18581:18648   */\n      tag_282\n      jump\t// in\n    tag_491:\n        /* \"#utility.yul\":18574:18648   */\n      swap2\n      pop\n        /* \"#utility.yul\":18657:18750   */\n      tag_492\n        /* \"#utility.yul\":18746:18749   */\n      dup3\n        /* \"#utility.yul\":18657:18750   */\n      tag_326\n      jump\t// in\n    tag_492:\n        /* \"#utility.yul\":18775:18777   */\n      0x40\n        /* \"#utility.yul\":18770:18773   */\n      dup3\n        /* \"#utility.yul\":18766:18778   */\n      add\n        /* \"#utility.yul\":18759:18778   */\n      swap1\n      pop\n        /* \"#utility.yul\":18418:18784   */\n      swap2\n      swap1\n      pop\n      jump\t// out\n        /* \"#utility.yul\":18790:19209   */\n    tag_221:\n        /* \"#utility.yul\":18956:18960   */\n      0x00\n        /* \"#utility.yul\":18994:18996   */\n      0x20\n        /* \"#utility.yul\":18983:18992   */\n      dup3\n        /* \"#utility.yul\":18979:18997   */\n      add\n        /* \"#utility.yul\":18971:18997   */\n      swap1\n      pop\n        /* \"#utility.yul\":19043:19052   */\n      dup2\n        /* \"#utility.yul\":19037:19041   */\n      dup2\n        /* \"#utility.yul\":19033:19053   */\n      sub\n        /* \"#utility.yul\":19029:19030   */\n      0x00\n        /* \"#utility.yul\":19018:19027   */\n      dup4\n        /* \"#utility.yul\":19014:19031   */\n      add\n        /* \"#utility.yul\":19007:19054   */\n      mstore\n        /* \"#utility.yul\":19071:19202   */\n      tag_494\n        /* \"#utility.yul\":19197:19201   */\n      dup2\n        /* \"#utility.yul\":19071:19202   */\n      tag_327\n      jump\t// in\n    tag_494:\n        /* \"#utility.yul\":19063:19202   */\n      swap1\n      pop\n        /* \"#utility.yul\":18790:19209   */\n      swap2\n      swap1\n      pop\n      jump\t// out\n        /* \"#utility.yul\":19215:19394   */\n    tag_328:\n        /* \"#utility.yul\":19355:19386   */\n      0x4d61782077616c6c65742063616e6e6f74206265206578636565646564000000\n        /* \"#utility.yul\":19351:19352   */\n      0x00\n        /* \"#utility.yul\":19343:19349   */\n      dup3\n        /* \"#utility.yul\":19339:19353   */\n      add\n        /* \"#utility.yul\":19332:19387   */\n      mstore\n        /* \"#utility.yul\":19215:19394   */\n      pop\n      jump\t// out\n        /* \"#utility.yul\":19400:19766   */\n    tag_329:\n        /* \"#utility.yul\":19542:19545   */\n      0x00\n        /* \"#utility.yul\":19563:19630   */\n      tag_497\n        /* \"#utility.yul\":19627:19629   */\n      0x1d\n        /* \"#utility.yul\":19622:19625   */\n      dup4\n        /* \"#utility.yul\":19563:19630   */\n      tag_282\n      jump\t// in\n    tag_497:\n        /* \"#utility.yul\":19556:19630   */\n      swap2\n      pop\n        /* \"#utility.yul\":19639:19732   */\n      tag_498\n        /* \"#utility.yul\":19728:19731   */\n      dup3\n        /* \"#utility.yul\":19639:19732   */\n      tag_328\n      jump\t// in\n    tag_498:\n        /* \"#utility.yul\":19757:19759   */\n      0x20\n        /* \"#utility.yul\":19752:19755   */\n      dup3\n        /* \"#utility.yul\":19748:19760   */\n      add\n        /* \"#utility.yul\":19741:19760   */\n      swap1\n      pop\n        /* \"#utility.yul\":19400:19766   */\n      swap2\n      swap1\n      pop\n      jump\t// out\n        /* \"#utility.yul\":19772:20191   */\n    tag_241:\n        /* \"#utility.yul\":19938:19942   */\n      0x00\n        /* \"#utility.yul\":19976:19978   */\n      0x20\n        /* \"#utility.yul\":19965:19974   */\n      dup3\n        /* \"#utility.yul\":19961:19979   */\n      add\n        /* \"#utility.yul\":19953:19979   */\n      swap1\n      pop\n        /* \"#utility.yul\":20025:20034   */\n      dup2\n        /* \"#utility.yul\":20019:20023   */\n      dup2\n        /* \"#utility.yul\":20015:20035   */\n      sub\n        /* \"#utility.yul\":20011:20012   */\n      0x00\n        /* \"#utility.yul\":20000:20009   */\n      dup4\n        /* \"#utility.yul\":19996:20013   */\n      add\n        /* \"#utility.yul\":19989:20036   */\n      mstore\n        /* \"#utility.yul\":20053:20184   */\n      tag_500\n        /* \"#utility.yul\":20179:20183   */\n      dup2\n        /* \"#utility.yul\":20053:20184   */\n      tag_329\n      jump\t// in\n    tag_500:\n        /* \"#utility.yul\":20045:20184   */\n      swap1\n      pop\n        /* \"#utility.yul\":19772:20191   */\n      swap2\n      swap1\n      pop\n      jump\t// out\n        /* \"#utility.yul\":20197:20607   */\n    tag_249:\n        /* \"#utility.yul\":20237:20244   */\n      0x00\n        /* \"#utility.yul\":20260:20280   */\n      tag_502\n        /* \"#utility.yul\":20278:20279   */\n      dup3\n        /* \"#utility.yul\":20260:20280   */\n      tag_293\n      jump\t// in\n    tag_502:\n        /* \"#utility.yul\":20255:20280   */\n      swap2\n      pop\n        /* \"#utility.yul\":20294:20314   */\n      tag_503\n        /* \"#utility.yul\":20312:20313   */\n      dup4\n        /* \"#utility.yul\":20294:20314   */\n      tag_293\n      jump\t// in\n    tag_503:\n        /* \"#utility.yul\":20289:20314   */\n      swap3\n      pop\n        /* \"#utility.yul\":20349:20350   */\n      dup3\n        /* \"#utility.yul\":20346:20347   */\n      dup3\n        /* \"#utility.yul\":20342:20351   */\n      mul\n        /* \"#utility.yul\":20371:20401   */\n      tag_504\n        /* \"#utility.yul\":20389:20400   */\n      dup2\n        /* \"#utility.yul\":20371:20401   */\n      tag_293\n      jump\t// in\n    tag_504:\n        /* \"#utility.yul\":20360:20401   */\n      swap2\n      pop\n        /* \"#utility.yul\":20550:20551   */\n      dup3\n        /* \"#utility.yul\":20541:20548   */\n      dup3\n        /* \"#utility.yul\":20537:20552   */\n      div\n        /* \"#utility.yul\":20534:20535   */\n      dup5\n        /* \"#utility.yul\":20531:20553   */\n      eq\n        /* \"#utility.yul\":20511:20512   */\n      dup4\n        /* \"#utility.yul\":20504:20513   */\n      iszero\n        /* \"#utility.yul\":20484:20567   */\n      or\n        /* \"#utility.yul\":20461:20600   */\n      tag_505\n      jumpi\n        /* \"#utility.yul\":20580:20598   */\n      tag_506\n      tag_307\n      jump\t// in\n    tag_506:\n        /* \"#utility.yul\":20461:20600   */\n    tag_505:\n        /* \"#utility.yul\":20245:20607   */\n      pop\n        /* \"#utility.yul\":20197:20607   */\n      swap3\n      swap2\n      pop\n      pop\n      jump\t// out\n        /* \"#utility.yul\":20613:20793   */\n    tag_330:\n        /* \"#utility.yul\":20661:20738   */\n      0x4e487b7100000000000000000000000000000000000000000000000000000000\n        /* \"#utility.yul\":20658:20659   */\n      0x00\n        /* \"#utility.yul\":20651:20739   */\n      mstore\n        /* \"#utility.yul\":20758:20762   */\n      0x12\n        /* \"#utility.yul\":20755:20756   */\n      0x04\n        /* \"#utility.yul\":20748:20763   */\n      mstore\n        /* \"#utility.yul\":20782:20786   */\n      0x24\n        /* \"#utility.yul\":20779:20780   */\n      0x00\n        /* \"#utility.yul\":20772:20787   */\n      revert\n        /* \"#utility.yul\":20799:20984   */\n    tag_251:\n        /* \"#utility.yul\":20839:20840   */\n      0x00\n        /* \"#utility.yul\":20856:20876   */\n      tag_509\n        /* \"#utility.yul\":20874:20875   */\n      dup3\n        /* \"#utility.yul\":20856:20876   */\n      tag_293\n      jump\t// in\n    tag_509:\n        /* \"#utility.yul\":20851:20876   */\n      swap2\n      pop\n        /* \"#utility.yul\":20890:20910   */\n      tag_510\n        /* \"#utility.yul\":20908:20909   */\n      dup4\n        /* \"#utility.yul\":20890:20910   */\n      tag_293\n      jump\t// in\n    tag_510:\n        /* \"#utility.yul\":20885:20910   */\n      swap3\n      pop\n        /* \"#utility.yul\":20929:20930   */\n      dup3\n        /* \"#utility.yul\":20919:20954   */\n      tag_511\n      jumpi\n        /* \"#utility.yul\":20934:20952   */\n      tag_512\n      tag_330\n      jump\t// in\n    tag_512:\n        /* \"#utility.yul\":20919:20954   */\n    tag_511:\n        /* \"#utility.yul\":20976:20977   */\n      dup3\n        /* \"#utility.yul\":20973:20974   */\n      dup3\n        /* \"#utility.yul\":20969:20978   */\n      div\n        /* \"#utility.yul\":20964:20978   */\n      swap1\n      pop\n        /* \"#utility.yul\":20799:20984   */\n      swap3\n      swap2\n      pop\n      pop\n      jump\t// out\n        /* \"#utility.yul\":20990:21170   */\n    tag_331:\n        /* \"#utility.yul\":21130:21162   */\n      0x45786365656473206d6178207472616e73616374696f6e20616d6f756e740000\n        /* \"#utility.yul\":21126:21127   */\n      0x00\n        /* \"#utility.yul\":21118:21124   */\n      dup3\n        /* \"#utility.yul\":21114:21128   */\n      add\n        /* \"#utility.yul\":21107:21163   */\n      mstore\n        /* \"#utility.yul\":20990:21170   */\n      pop\n      jump\t// out\n        /* \"#utility.yul\":21176:21542   */\n    tag_332:\n        /* \"#utility.yul\":21318:21321   */\n      0x00\n        /* \"#utility.yul\":21339:21406   */\n      tag_515\n        /* \"#utility.yul\":21403:21405   */\n      0x1e\n        /* \"#utility.yul\":21398:21401   */\n      dup4\n        /* \"#utility.yul\":21339:21406   */\n      tag_282\n      jump\t// in\n    tag_515:\n        /* \"#utility.yul\":21332:21406   */\n      swap2\n      pop\n        /* \"#utility.yul\":21415:21508   */\n      tag_516\n        /* \"#utility.yul\":21504:21507   */\n      dup3\n        /* \"#utility.yul\":21415:21508   */\n      tag_331\n      jump\t// in\n    tag_516:\n        /* \"#utility.yul\":21533:21535   */\n      0x20\n        /* \"#utility.yul\":21528:21531   */\n      dup3\n        /* \"#utility.yul\":21524:21536   */\n      add\n        /* \"#utility.yul\":21517:21536   */\n      swap1\n      pop\n        /* \"#utility.yul\":21176:21542   */\n      swap2\n      swap1\n      pop\n      jump\t// out\n        /* \"#utility.yul\":21548:21967   */\n    tag_274:\n        /* \"#utility.yul\":21714:21718   */\n      0x00\n        /* \"#utility.yul\":21752:21754   */\n      0x20\n        /* \"#utility.yul\":21741:21750   */\n      dup3\n        /* \"#utility.yul\":21737:21755   */\n      add\n        /* \"#utility.yul\":21729:21755   */\n      swap1\n      pop\n        /* \"#utility.yul\":21801:21810   */\n      dup2\n        /* \"#utility.yul\":21795:21799   */\n      dup2\n        /* \"#utility.yul\":21791:21811   */\n      sub\n        /* \"#utility.yul\":21787:21788   */\n      0x00\n        /* \"#utility.yul\":21776:21785   */\n      dup4\n        /* \"#utility.yul\":21772:21789   */\n      add\n        /* \"#utility.yul\":21765:21812   */\n      mstore\n        /* \"#utility.yul\":21829:21960   */\n      tag_518\n        /* \"#utility.yul\":21955:21959   */\n      dup2\n        /* \"#utility.yul\":21829:21960   */\n      tag_332\n      jump\t// in\n    tag_518:\n        /* \"#utility.yul\":21821:21960   */\n      swap1\n      pop\n        /* \"#utility.yul\":21548:21967   */\n      swap2\n      swap1\n      pop\n      jump\t// out\n\n    auxdata: 0xa2646970667358221220426f1e93b0b6613d6cdbfe85e8a90edc4b34ed2337ab70dd6b3f08946a0950ab64736f6c63430008130033\n}\n",
				"bytecode": {
					"linkReferences": {},
					"object": "6080604052737a250d5630b4cf539739df2c5dacb4c659f2488d600960006101000a81548173ffffffffffffffffffffffffffffffffffffffff021916908373ffffffffffffffffffffffffffffffffffffffff1602179055506000600a60146101000a81548160ff0219169083151502179055503480156200008157600080fd5b506040518060400160405280600881526020017f4f6e6520416e6f6e0000000000000000000000000000000000000000000000008152506040518060400160405280600481526020017f244f4154000000000000000000000000000000000000000000000000000000008152508160039081620000ff9190620011ad565b508060049081620001119190620011ad565b505050600062000126620002c360201b60201c565b905080600560006101000a81548173ffffffffffffffffffffffffffffffffffffffff021916908373ffffffffffffffffffffffffffffffffffffffff1602179055508073ffffffffffffffffffffffffffffffffffffffff16600073ffffffffffffffffffffffffffffffffffffffff167f8be0079c531659141344cd1fd0a4f28419497f9722a3daafe3b4186f6b6457e060405160405180910390a3506200020533620001da620002cb60201b60201c565b600a620001e8919062001424565b6305f5e100620001f9919062001475565b620002d460201b60201c565b62000215620002cb60201b60201c565b600a62000223919062001424565b620f424062000233919062001475565b60078190555062000249620002cb60201b60201c565b600a62000257919062001424565b620f424062000267919062001475565b6006819055506200027d620002c360201b60201c565b600860006101000a81548173ffffffffffffffffffffffffffffffffffffffff021916908373ffffffffffffffffffffffffffffffffffffffff160217905550620016f7565b600033905090565b60006012905090565b600073ffffffffffffffffffffffffffffffffffffffff168273ffffffffffffffffffffffffffffffffffffffff160362000346576040517f08c379a00000000000000000000000000000000000000000000000000000000081526004016200033d9062001521565b60405180910390fd5b6200035a600083836200043860201b60201c565b80600260008282546200036e919062001543565b92505081905550806000808473ffffffffffffffffffffffffffffffffffffffff1673ffffffffffffffffffffffffffffffffffffffff1681526020019081526020016000206000828254620003c5919062001543565b925050819055508173ffffffffffffffffffffffffffffffffffffffff16600073ffffffffffffffffffffffffffffffffffffffff167fddf252ad1be2c89b69c2b068fc378daa952ba7f163c4a11628f55a4df523b3ef836040516200042c91906200158f565b60405180910390a35050565b60006200044a62000e5460201b60201c565b73ffffffffffffffffffffffffffffffffffffffff168473ffffffffffffffffffffffffffffffffffffffff1614158015620004c157506200049162000e5460201b60201c565b73ffffffffffffffffffffffffffffffffffffffff168373ffffffffffffffffffffffffffffffffffffffff1614155b80156200051c5750600960009054906101000a900473ffffffffffffffffffffffffffffffffffffffff1673ffffffffffffffffffffffffffffffffffffffff168373ffffffffffffffffffffffffffffffffffffffff1614155b8015620005775750600960009054906101000a900473ffffffffffffffffffffffffffffffffffffffff1673ffffffffffffffffffffffffffffffffffffffff168473ffffffffffffffffffffffffffffffffffffffff1614155b8015620005d25750600860009054906101000a900473ffffffffffffffffffffffffffffffffffffffff1673ffffffffffffffffffffffffffffffffffffffff168373ffffffffffffffffffffffffffffffffffffffff1614155b80156200062d5750600860009054906101000a900473ffffffffffffffffffffffffffffffffffffffff1673ffffffffffffffffffffffffffffffffffffffff168473ffffffffffffffffffffffffffffffffffffffff1614155b801562000668575061dead73ffffffffffffffffffffffffffffffffffffffff168373ffffffffffffffffffffffffffffffffffffffff1614155b8015620006c35750600a60009054906101000a900473ffffffffffffffffffffffffffffffffffffffff1673ffffffffffffffffffffffffffffffffffffffff168373ffffffffffffffffffffffffffffffffffffffff1614155b80156200071e5750600a60009054906101000a900473ffffffffffffffffffffffffffffffffffffffff1673ffffffffffffffffffffffffffffffffffffffff168473ffffffffffffffffffffffffffffffffffffffff1614155b156200078a5760065482620007398562000e7e60201b60201c565b62000745919062001543565b111562000789576040517f08c379a00000000000000000000000000000000000000000000000000000000081526004016200078090620015fc565b60405180910390fd5b5b600a60009054906101000a900473ffffffffffffffffffffffffffffffffffffffff1673ffffffffffffffffffffffffffffffffffffffff168373ffffffffffffffffffffffffffffffffffffffff16148015620008355750600960009054906101000a900473ffffffffffffffffffffffffffffffffffffffff1673ffffffffffffffffffffffffffffffffffffffff168373ffffffffffffffffffffffffffffffffffffffff16145b80156200086e57503073ffffffffffffffffffffffffffffffffffffffff168473ffffffffffffffffffffffffffffffffffffffff1614155b8015620008b657506200088662000e5460201b60201c565b73ffffffffffffffffffffffffffffffffffffffff168473ffffffffffffffffffffffffffffffffffffffff1614155b8015620009115750600860009054906101000a900473ffffffffffffffffffffffffffffffffffffffff1673ffffffffffffffffffffffffffffffffffffffff168473ffffffffffffffffffffffffffffffffffffffff1614155b156200093757606460018362000928919062001475565b6200093491906200164d565b90505b600a60009054906101000a900473ffffffffffffffffffffffffffffffffffffffff1673ffffffffffffffffffffffffffffffffffffffff168473ffffffffffffffffffffffffffffffffffffffff16148015620009e25750600960009054906101000a900473ffffffffffffffffffffffffffffffffffffffff1673ffffffffffffffffffffffffffffffffffffffff168473ffffffffffffffffffffffffffffffffffffffff16145b801562000a1b57503073ffffffffffffffffffffffffffffffffffffffff168373ffffffffffffffffffffffffffffffffffffffff1614155b801562000a63575062000a3362000e5460201b60201c565b73ffffffffffffffffffffffffffffffffffffffff168373ffffffffffffffffffffffffffffffffffffffff1614155b801562000abe5750600860009054906101000a900473ffffffffffffffffffffffffffffffffffffffff1673ffffffffffffffffffffffffffffffffffffffff168373ffffffffffffffffffffffffffffffffffffffff1614155b1562000ae457606460018362000ad5919062001475565b62000ae191906200164d565b90505b600060075411801562000b32575062000b0262000e5460201b60201c565b73ffffffffffffffffffffffffffffffffffffffff168473ffffffffffffffffffffffffffffffffffffffff1614155b801562000b7a575062000b4a62000e5460201b60201c565b73ffffffffffffffffffffffffffffffffffffffff168373ffffffffffffffffffffffffffffffffffffffff1614155b801562000bd55750600960009054906101000a900473ffffffffffffffffffffffffffffffffffffffff1673ffffffffffffffffffffffffffffffffffffffff168373ffffffffffffffffffffffffffffffffffffffff1614155b801562000c305750600960009054906101000a900473ffffffffffffffffffffffffffffffffffffffff1673ffffffffffffffffffffffffffffffffffffffff168473ffffffffffffffffffffffffffffffffffffffff1614155b801562000c8b5750600860009054906101000a900473ffffffffffffffffffffffffffffffffffffffff1673ffffffffffffffffffffffffffffffffffffffff168373ffffffffffffffffffffffffffffffffffffffff1614155b801562000ce65750600860009054906101000a900473ffffffffffffffffffffffffffffffffffffffff1673ffffffffffffffffffffffffffffffffffffffff168473ffffffffffffffffffffffffffffffffffffffff1614155b801562000d21575061dead73ffffffffffffffffffffffffffffffffffffffff168373ffffffffffffffffffffffffffffffffffffffff1614155b801562000d7c5750600a60009054906101000a900473ffffffffffffffffffffffffffffffffffffffff1673ffffffffffffffffffffffffffffffffffffffff168373ffffffffffffffffffffffffffffffffffffffff1614155b801562000dd75750600a60009054906101000a900473ffffffffffffffffffffffffffffffffffffffff1673ffffffffffffffffffffffffffffffffffffffff168473ffffffffffffffffffffffffffffffffffffffff1614155b1562000e265760075482111562000e25576040517f08c379a000000000000000000000000000000000000000000000000000000000815260040162000e1c90620016d5565b60405180910390fd5b5b600047905066b1a2bc2ec5000081111562000e4d5762000e4c4762000ec660201b60201c565b5b5050505050565b6000600560009054906101000a900473ffffffffffffffffffffffffffffffffffffffff16905090565b60008060008373ffffffffffffffffffffffffffffffffffffffff1673ffffffffffffffffffffffffffffffffffffffff168152602001908152602001600020549050919050565b600860009054906101000a900473ffffffffffffffffffffffffffffffffffffffff1673ffffffffffffffffffffffffffffffffffffffff166108fc829081150290604051600060405180830381858888f1935050505015801562000f2f573d6000803e3d6000fd5b5050565b600081519050919050565b7f4e487b7100000000000000000000000000000000000000000000000000000000600052604160045260246000fd5b7f4e487b7100000000000000000000000000000000000000000000000000000000600052602260045260246000fd5b6000600282049050600182168062000fb557607f821691505b60208210810362000fcb5762000fca62000f6d565b5b50919050565b60008190508160005260206000209050919050565b60006020601f8301049050919050565b600082821b905092915050565b600060088302620010357fffffffffffffffffffffffffffffffffffffffffffffffffffffffffffffffff8262000ff6565b62001041868362000ff6565b95508019841693508086168417925050509392505050565b6000819050919050565b6000819050919050565b60006200108e62001088620010828462001059565b62001063565b62001059565b9050919050565b6000819050919050565b620010aa836200106d565b620010c2620010b98262001095565b84845462001003565b825550505050565b600090565b620010d9620010ca565b620010e68184846200109f565b505050565b5b818110156200110e5762001102600082620010cf565b600181019050620010ec565b5050565b601f8211156200115d57620011278162000fd1565b620011328462000fe6565b8101602085101562001142578190505b6200115a620011518562000fe6565b830182620010eb565b50505b505050565b600082821c905092915050565b6000620011826000198460080262001162565b1980831691505092915050565b60006200119d83836200116f565b9150826002028217905092915050565b620011b88262000f33565b67ffffffffffffffff811115620011d457620011d362000f3e565b5b620011e0825462000f9c565b620011ed82828562001112565b600060209050601f83116001811462001225576000841562001210578287015190505b6200121c85826200118f565b8655506200128c565b601f198416620012358662000fd1565b60005b828110156200125f5784890151825560018201915060208501945060208101905062001238565b868310156200127f57848901516200127b601f8916826200116f565b8355505b6001600288020188555050505b505050505050565b7f4e487b7100000000000000000000000000000000000000000000000000000000600052601160045260246000fd5b60008160011c9050919050565b6000808291508390505b60018511156200132257808604811115620012fa57620012f962001294565b5b60018516156200130a5780820291505b80810290506200131a85620012c3565b9450620012da565b94509492505050565b6000826200133d576001905062001410565b816200134d576000905062001410565b81600181146200136657600281146200137157620013a7565b600191505062001410565b60ff84111562001386576200138562001294565b5b8360020a915084821115620013a0576200139f62001294565b5b5062001410565b5060208310610133831016604e8410600b8410161715620013e15782820a905083811115620013db57620013da62001294565b5b62001410565b620013f08484846001620012d0565b925090508184048111156200140a576200140962001294565b5b81810290505b9392505050565b600060ff82169050919050565b6000620014318262001059565b91506200143e8362001417565b92506200146d7fffffffffffffffffffffffffffffffffffffffffffffffffffffffffffffffff84846200132b565b905092915050565b6000620014828262001059565b91506200148f8362001059565b92508282026200149f8162001059565b91508282048414831517620014b957620014b862001294565b5b5092915050565b600082825260208201905092915050565b7f45524332303a206d696e7420746f20746865207a65726f206164647265737300600082015250565b600062001509601f83620014c0565b91506200151682620014d1565b602082019050919050565b600060208201905081810360008301526200153c81620014fa565b9050919050565b6000620015508262001059565b91506200155d8362001059565b925082820190508082111562001578576200157762001294565b5b92915050565b620015898162001059565b82525050565b6000602082019050620015a660008301846200157e565b92915050565b7f4d61782077616c6c65742063616e6e6f74206265206578636565646564000000600082015250565b6000620015e4601d83620014c0565b9150620015f182620015ac565b602082019050919050565b600060208201905081810360008301526200161781620015d5565b9050919050565b7f4e487b7100000000000000000000000000000000000000000000000000000000600052601260045260246000fd5b60006200165a8262001059565b9150620016678362001059565b9250826200167a57620016796200161e565b5b828204905092915050565b7f45786365656473206d6178207472616e73616374696f6e20616d6f756e740000600082015250565b6000620016bd601e83620014c0565b9150620016ca8262001685565b602082019050919050565b60006020820190508181036000830152620016f081620016ae565b9050919050565b61296c80620017076000396000f3fe6080604052600436106101185760003560e01c8063715018a6116100a0578063a01c348311610064578063a01c3483146103b0578063a457c2d7146103db578063a9059cbb14610418578063dd62ed3e14610455578063f2fde38b146104925761011f565b8063715018a6146102ed57806389f9a1d3146103045780638c0b5e221461032f5780638da5cb5b1461035a57806395d89b41146103855761011f565b8063313ce567116100e7578063313ce567146101f4578063395093511461021f57806342966c681461025c5780636f268a991461028557806370a08231146102b05761011f565b806306fdde0314610124578063095ea7b31461014f57806318160ddd1461018c57806323b872dd146101b75761011f565b3661011f57005b600080fd5b34801561013057600080fd5b506101396104bb565b6040516101469190611dc0565b60405180910390f35b34801561015b57600080fd5b5061017660048036038101906101719190611e7b565b61054d565b6040516101839190611ed6565b60405180910390f35b34801561019857600080fd5b506101a161056b565b6040516101ae9190611f00565b60405180910390f35b3480156101c357600080fd5b506101de60048036038101906101d99190611f1b565b610575565b6040516101eb9190611ed6565b60405180910390f35b34801561020057600080fd5b50610209610676565b6040516102169190611f8a565b60405180910390f35b34801561022b57600080fd5b5061024660048036038101906102419190611e7b565b61067f565b6040516102539190611ed6565b60405180910390f35b34801561026857600080fd5b50610283600480360381019061027e9190611fa5565b61072b565b005b34801561029157600080fd5b5061029a610738565b6040516102a79190611ff3565b60405180910390f35b3480156102bc57600080fd5b506102d760048036038101906102d2919061200e565b61075e565b6040516102e49190611f00565b60405180910390f35b3480156102f957600080fd5b506103026107a6565b005b34801561031057600080fd5b506103196108e3565b6040516103269190611f00565b60405180910390f35b34801561033b57600080fd5b506103446108e9565b6040516103519190611f00565b60405180910390f35b34801561036657600080fd5b5061036f6108ef565b60405161037c919061204a565b60405180910390f35b34801561039157600080fd5b5061039a610919565b6040516103a79190611dc0565b60405180910390f35b3480156103bc57600080fd5b506103c56109ab565b6040516103d2919061204a565b60405180910390f35b3480156103e757600080fd5b5061040260048036038101906103fd9190611e7b565b6109b1565b60405161040f9190611ed6565b60405180910390f35b34801561042457600080fd5b5061043f600480360381019061043a9190611e7b565b610aa5565b60405161044c9190611ed6565b60405180910390f35b34801561046157600080fd5b5061047c60048036038101906104779190612065565b610ac3565b6040516104899190611f00565b60405180910390f35b34801561049e57600080fd5b506104b960048036038101906104b4919061200e565b610b4a565b005b6060600380546104ca906120d4565b80601f01602080910402602001604051908101604052809291908181526020018280546104f6906120d4565b80156105435780601f1061051857610100808354040283529160200191610543565b820191906000526020600020905b81548152906001019060200180831161052657829003601f168201915b5050505050905090565b600061056161055a610cf5565b8484610cfd565b6001905092915050565b6000600254905090565b6000610582848484610ec6565b6000600160008673ffffffffffffffffffffffffffffffffffffffff1673ffffffffffffffffffffffffffffffffffffffff16815260200190815260200160002060006105cd610cf5565b73ffffffffffffffffffffffffffffffffffffffff1673ffffffffffffffffffffffffffffffffffffffff1681526020019081526020016000205490508281101561064d576040517f08c379a000000000000000000000000000000000000000000000000000000000815260040161064490612177565b60405180910390fd5b61066a85610659610cf5565b858461066591906121c6565b610cfd565b60019150509392505050565b60006012905090565b600061072161068c610cf5565b84846001600061069a610cf5565b73ffffffffffffffffffffffffffffffffffffffff1673ffffffffffffffffffffffffffffffffffffffff16815260200190815260200160002060008873ffffffffffffffffffffffffffffffffffffffff1673ffffffffffffffffffffffffffffffffffffffff1681526020019081526020016000205461071c91906121fa565b610cfd565b6001905092915050565b6107353382611143565b50565b600860009054906101000a900473ffffffffffffffffffffffffffffffffffffffff1681565b60008060008373ffffffffffffffffffffffffffffffffffffffff1673ffffffffffffffffffffffffffffffffffffffff168152602001908152602001600020549050919050565b6107ae610cf5565b73ffffffffffffffffffffffffffffffffffffffff166107cc6108ef565b73ffffffffffffffffffffffffffffffffffffffff1614610822576040517f08c379a00000000000000000000000000000000000000000000000000000000081526004016108199061227a565b60405180910390fd5b600073ffffffffffffffffffffffffffffffffffffffff16600560009054906101000a900473ffffffffffffffffffffffffffffffffffffffff1673ffffffffffffffffffffffffffffffffffffffff167f8be0079c531659141344cd1fd0a4f28419497f9722a3daafe3b4186f6b6457e060405160405180910390a36000600560006101000a81548173ffffffffffffffffffffffffffffffffffffffff021916908373ffffffffffffffffffffffffffffffffffffffff160217905550565b60065481565b60075481565b6000600560009054906101000a900473ffffffffffffffffffffffffffffffffffffffff16905090565b606060048054610928906120d4565b80601f0160208091040260200160405190810160405280929190818152602001828054610954906120d4565b80156109a15780601f10610976576101008083540402835291602001916109a1565b820191906000526020600020905b81548152906001019060200180831161098457829003601f168201915b5050505050905090565b61dead81565b600080600160006109c0610cf5565b73ffffffffffffffffffffffffffffffffffffffff1673ffffffffffffffffffffffffffffffffffffffff16815260200190815260200160002060008573ffffffffffffffffffffffffffffffffffffffff1673ffffffffffffffffffffffffffffffffffffffff16815260200190815260200160002054905082811015610a7d576040517f08c379a0000000000000000000000000000000000000000000000000000000008152600401610a749061230c565b60405180910390fd5b610a9a610a88610cf5565b858584610a9591906121c6565b610cfd565b600191505092915050565b6000610ab9610ab2610cf5565b8484610ec6565b6001905092915050565b6000600160008473ffffffffffffffffffffffffffffffffffffffff1673ffffffffffffffffffffffffffffffffffffffff16815260200190815260200160002060008373ffffffffffffffffffffffffffffffffffffffff1673ffffffffffffffffffffffffffffffffffffffff16815260200190815260200160002054905092915050565b610b52610cf5565b73ffffffffffffffffffffffffffffffffffffffff16610b706108ef565b73ffffffffffffffffffffffffffffffffffffffff1614610bc6576040517f08c379a0000000000000000000000000000000000000000000000000000000008152600401610bbd9061227a565b60405180910390fd5b600073ffffffffffffffffffffffffffffffffffffffff168173ffffffffffffffffffffffffffffffffffffffff1603610c35576040517f08c379a0000000000000000000000000000000000000000000000000000000008152600401610c2c9061239e565b60405180910390fd5b8073ffffffffffffffffffffffffffffffffffffffff16600560009054906101000a900473ffffffffffffffffffffffffffffffffffffffff1673ffffffffffffffffffffffffffffffffffffffff167f8be0079c531659141344cd1fd0a4f28419497f9722a3daafe3b4186f6b6457e060405160405180910390a380600560006101000a81548173ffffffffffffffffffffffffffffffffffffffff021916908373ffffffffffffffffffffffffffffffffffffffff16021790555050565b600033905090565b600073ffffffffffffffffffffffffffffffffffffffff168373ffffffffffffffffffffffffffffffffffffffff1603610d6c576040517f08c379a0000000000000000000000000000000000000000000000000000000008152600401610d6390612430565b60405180910390fd5b600073ffffffffffffffffffffffffffffffffffffffff168273ffffffffffffffffffffffffffffffffffffffff1603610ddb576040517f08c379a0000000000000000000000000000000000000000000000000000000008152600401610dd2906124c2565b60405180910390fd5b80600160008573ffffffffffffffffffffffffffffffffffffffff1673ffffffffffffffffffffffffffffffffffffffff16815260200190815260200160002060008473ffffffffffffffffffffffffffffffffffffffff1673ffffffffffffffffffffffffffffffffffffffff168152602001908152602001600020819055508173ffffffffffffffffffffffffffffffffffffffff168373ffffffffffffffffffffffffffffffffffffffff167f8c5be1e5ebec7d5bd14f71427d1e84f3dd0314c0f7b2291e5b200ac8c7c3b92583604051610eb99190611f00565b60405180910390a3505050565b600073ffffffffffffffffffffffffffffffffffffffff168373ffffffffffffffffffffffffffffffffffffffff1603610f35576040517f08c379a0000000000000000000000000000000000000000000000000000000008152600401610f2c90612554565b60405180910390fd5b600073ffffffffffffffffffffffffffffffffffffffff168273ffffffffffffffffffffffffffffffffffffffff1603610fa4576040517f08c379a0000000000000000000000000000000000000000000000000000000008152600401610f9b906125e6565b60405180910390fd5b610faf838383611316565b60008060008573ffffffffffffffffffffffffffffffffffffffff1673ffffffffffffffffffffffffffffffffffffffff16815260200190815260200160002054905081811015611035576040517f08c379a000000000000000000000000000000000000000000000000000000000815260040161102c90612678565b60405180910390fd5b818161104191906121c6565b6000808673ffffffffffffffffffffffffffffffffffffffff1673ffffffffffffffffffffffffffffffffffffffff16815260200190815260200160002081905550816000808573ffffffffffffffffffffffffffffffffffffffff1673ffffffffffffffffffffffffffffffffffffffff16815260200190815260200160002060008282546110d191906121fa565b925050819055508273ffffffffffffffffffffffffffffffffffffffff168473ffffffffffffffffffffffffffffffffffffffff167fddf252ad1be2c89b69c2b068fc378daa952ba7f163c4a11628f55a4df523b3ef846040516111359190611f00565b60405180910390a350505050565b600073ffffffffffffffffffffffffffffffffffffffff168273ffffffffffffffffffffffffffffffffffffffff16036111b2576040517f08c379a00000000000000000000000000000000000000000000000000000000081526004016111a99061270a565b60405180910390fd5b6111be82600083611316565b60008060008473ffffffffffffffffffffffffffffffffffffffff1673ffffffffffffffffffffffffffffffffffffffff16815260200190815260200160002054905081811015611244576040517f08c379a000000000000000000000000000000000000000000000000000000000815260040161123b9061279c565b60405180910390fd5b818161125091906121c6565b6000808573ffffffffffffffffffffffffffffffffffffffff1673ffffffffffffffffffffffffffffffffffffffff1681526020019081526020016000208190555081600260008282546112a491906121c6565b92505081905550600073ffffffffffffffffffffffffffffffffffffffff168373ffffffffffffffffffffffffffffffffffffffff167fddf252ad1be2c89b69c2b068fc378daa952ba7f163c4a11628f55a4df523b3ef846040516113099190611f00565b60405180910390a3505050565b60006113206108ef565b73ffffffffffffffffffffffffffffffffffffffff168473ffffffffffffffffffffffffffffffffffffffff161415801561138e575061135e6108ef565b73ffffffffffffffffffffffffffffffffffffffff168373ffffffffffffffffffffffffffffffffffffffff1614155b80156113e85750600960009054906101000a900473ffffffffffffffffffffffffffffffffffffffff1673ffffffffffffffffffffffffffffffffffffffff168373ffffffffffffffffffffffffffffffffffffffff1614155b80156114425750600960009054906101000a900473ffffffffffffffffffffffffffffffffffffffff1673ffffffffffffffffffffffffffffffffffffffff168473ffffffffffffffffffffffffffffffffffffffff1614155b801561149c5750600860009054906101000a900473ffffffffffffffffffffffffffffffffffffffff1673ffffffffffffffffffffffffffffffffffffffff168373ffffffffffffffffffffffffffffffffffffffff1614155b80156114f65750600860009054906101000a900473ffffffffffffffffffffffffffffffffffffffff1673ffffffffffffffffffffffffffffffffffffffff168473ffffffffffffffffffffffffffffffffffffffff1614155b8015611530575061dead73ffffffffffffffffffffffffffffffffffffffff168373ffffffffffffffffffffffffffffffffffffffff1614155b801561158a5750600a60009054906101000a900473ffffffffffffffffffffffffffffffffffffffff1673ffffffffffffffffffffffffffffffffffffffff168373ffffffffffffffffffffffffffffffffffffffff1614155b80156115e45750600a60009054906101000a900473ffffffffffffffffffffffffffffffffffffffff1673ffffffffffffffffffffffffffffffffffffffff168473ffffffffffffffffffffffffffffffffffffffff1614155b1561164257600654826115f68561075e565b61160091906121fa565b1115611641576040517f08c379a000000000000000000000000000000000000000000000000000000000815260040161163890612808565b60405180910390fd5b5b600a60009054906101000a900473ffffffffffffffffffffffffffffffffffffffff1673ffffffffffffffffffffffffffffffffffffffff168373ffffffffffffffffffffffffffffffffffffffff161480156116ec5750600960009054906101000a900473ffffffffffffffffffffffffffffffffffffffff1673ffffffffffffffffffffffffffffffffffffffff168373ffffffffffffffffffffffffffffffffffffffff16145b801561172457503073ffffffffffffffffffffffffffffffffffffffff168473ffffffffffffffffffffffffffffffffffffffff1614155b801561176357506117336108ef565b73ffffffffffffffffffffffffffffffffffffffff168473ffffffffffffffffffffffffffffffffffffffff1614155b80156117bd5750600860009054906101000a900473ffffffffffffffffffffffffffffffffffffffff1673ffffffffffffffffffffffffffffffffffffffff168473ffffffffffffffffffffffffffffffffffffffff1614155b156117de5760646001836117d19190612828565b6117db9190612899565b90505b600a60009054906101000a900473ffffffffffffffffffffffffffffffffffffffff1673ffffffffffffffffffffffffffffffffffffffff168473ffffffffffffffffffffffffffffffffffffffff161480156118885750600960009054906101000a900473ffffffffffffffffffffffffffffffffffffffff1673ffffffffffffffffffffffffffffffffffffffff168473ffffffffffffffffffffffffffffffffffffffff16145b80156118c057503073ffffffffffffffffffffffffffffffffffffffff168373ffffffffffffffffffffffffffffffffffffffff1614155b80156118ff57506118cf6108ef565b73ffffffffffffffffffffffffffffffffffffffff168373ffffffffffffffffffffffffffffffffffffffff1614155b80156119595750600860009054906101000a900473ffffffffffffffffffffffffffffffffffffffff1673ffffffffffffffffffffffffffffffffffffffff168373ffffffffffffffffffffffffffffffffffffffff1614155b1561197a57606460018361196d9190612828565b6119779190612899565b90505b60006007541180156119bf575061198f6108ef565b73ffffffffffffffffffffffffffffffffffffffff168473ffffffffffffffffffffffffffffffffffffffff1614155b80156119fe57506119ce6108ef565b73ffffffffffffffffffffffffffffffffffffffff168373ffffffffffffffffffffffffffffffffffffffff1614155b8015611a585750600960009054906101000a900473ffffffffffffffffffffffffffffffffffffffff1673ffffffffffffffffffffffffffffffffffffffff168373ffffffffffffffffffffffffffffffffffffffff1614155b8015611ab25750600960009054906101000a900473ffffffffffffffffffffffffffffffffffffffff1673ffffffffffffffffffffffffffffffffffffffff168473ffffffffffffffffffffffffffffffffffffffff1614155b8015611b0c5750600860009054906101000a900473ffffffffffffffffffffffffffffffffffffffff1673ffffffffffffffffffffffffffffffffffffffff168373ffffffffffffffffffffffffffffffffffffffff1614155b8015611b665750600860009054906101000a900473ffffffffffffffffffffffffffffffffffffffff1673ffffffffffffffffffffffffffffffffffffffff168473ffffffffffffffffffffffffffffffffffffffff1614155b8015611ba0575061dead73ffffffffffffffffffffffffffffffffffffffff168373ffffffffffffffffffffffffffffffffffffffff1614155b8015611bfa5750600a60009054906101000a900473ffffffffffffffffffffffffffffffffffffffff1673ffffffffffffffffffffffffffffffffffffffff168373ffffffffffffffffffffffffffffffffffffffff1614155b8015611c545750600a60009054906101000a900473ffffffffffffffffffffffffffffffffffffffff1673ffffffffffffffffffffffffffffffffffffffff168473ffffffffffffffffffffffffffffffffffffffff1614155b15611c9f57600754821115611c9e576040517f08c379a0000000000000000000000000000000000000000000000000000000008152600401611c9590612916565b60405180910390fd5b5b600047905066b1a2bc2ec50000811115611cbd57611cbc47611cc4565b5b5050505050565b600860009054906101000a900473ffffffffffffffffffffffffffffffffffffffff1673ffffffffffffffffffffffffffffffffffffffff166108fc829081150290604051600060405180830381858888f19350505050158015611d2c573d6000803e3d6000fd5b5050565b600081519050919050565b600082825260208201905092915050565b60005b83811015611d6a578082015181840152602081019050611d4f565b60008484015250505050565b6000601f19601f8301169050919050565b6000611d9282611d30565b611d9c8185611d3b565b9350611dac818560208601611d4c565b611db581611d76565b840191505092915050565b60006020820190508181036000830152611dda8184611d87565b905092915050565b600080fd5b600073ffffffffffffffffffffffffffffffffffffffff82169050919050565b6000611e1282611de7565b9050919050565b611e2281611e07565b8114611e2d57600080fd5b50565b600081359050611e3f81611e19565b92915050565b6000819050919050565b611e5881611e45565b8114611e6357600080fd5b50565b600081359050611e7581611e4f565b92915050565b60008060408385031215611e9257611e91611de2565b5b6000611ea085828601611e30565b9250506020611eb185828601611e66565b9150509250929050565b60008115159050919050565b611ed081611ebb565b82525050565b6000602082019050611eeb6000830184611ec7565b92915050565b611efa81611e45565b82525050565b6000602082019050611f156000830184611ef1565b92915050565b600080600060608486031215611f3457611f33611de2565b5b6000611f4286828701611e30565b9350506020611f5386828701611e30565b9250506040611f6486828701611e66565b9150509250925092565b600060ff82169050919050565b611f8481611f6e565b82525050565b6000602082019050611f9f6000830184611f7b565b92915050565b600060208284031215611fbb57611fba611de2565b5b6000611fc984828501611e66565b91505092915050565b6000611fdd82611de7565b9050919050565b611fed81611fd2565b82525050565b60006020820190506120086000830184611fe4565b92915050565b60006020828403121561202457612023611de2565b5b600061203284828501611e30565b91505092915050565b61204481611e07565b82525050565b600060208201905061205f600083018461203b565b92915050565b6000806040838503121561207c5761207b611de2565b5b600061208a85828601611e30565b925050602061209b85828601611e30565b9150509250929050565b7f4e487b7100000000000000000000000000000000000000000000000000000000600052602260045260246000fd5b600060028204905060018216806120ec57607f821691505b6020821081036120ff576120fe6120a5565b5b50919050565b7f45524332303a207472616e7366657220616d6f756e742065786365656473206160008201527f6c6c6f77616e6365000000000000000000000000000000000000000000000000602082015250565b6000612161602883611d3b565b915061216c82612105565b604082019050919050565b6000602082019050818103600083015261219081612154565b9050919050565b7f4e487b7100000000000000000000000000000000000000000000000000000000600052601160045260246000fd5b60006121d182611e45565b91506121dc83611e45565b92508282039050818111156121f4576121f3612197565b5b92915050565b600061220582611e45565b915061221083611e45565b925082820190508082111561222857612227612197565b5b92915050565b7f4f776e61626c653a2063616c6c6572206973206e6f7420746865206f776e6572600082015250565b6000612264602083611d3b565b915061226f8261222e565b602082019050919050565b6000602082019050818103600083015261229381612257565b9050919050565b7f45524332303a2064656372656173656420616c6c6f77616e63652062656c6f7760008201527f207a65726f000000000000000000000000000000000000000000000000000000602082015250565b60006122f6602583611d3b565b91506123018261229a565b604082019050919050565b60006020820190508181036000830152612325816122e9565b9050919050565b7f4f776e61626c653a206e6577206f776e657220697320746865207a65726f206160008201527f6464726573730000000000000000000000000000000000000000000000000000602082015250565b6000612388602683611d3b565b91506123938261232c565b604082019050919050565b600060208201905081810360008301526123b78161237b565b9050919050565b7f45524332303a20617070726f76652066726f6d20746865207a65726f2061646460008201527f7265737300000000000000000000000000000000000000000000000000000000602082015250565b600061241a602483611d3b565b9150612425826123be565b604082019050919050565b600060208201905081810360008301526124498161240d565b9050919050565b7f45524332303a20617070726f766520746f20746865207a65726f20616464726560008201527f7373000000000000000000000000000000000000000000000000000000000000602082015250565b60006124ac602283611d3b565b91506124b782612450565b604082019050919050565b600060208201905081810360008301526124db8161249f565b9050919050565b7f45524332303a207472616e736665722066726f6d20746865207a65726f20616460008201527f6472657373000000000000000000000000000000000000000000000000000000602082015250565b600061253e602583611d3b565b9150612549826124e2565b604082019050919050565b6000602082019050818103600083015261256d81612531565b9050919050565b7f45524332303a207472616e7366657220746f20746865207a65726f206164647260008201527f6573730000000000000000000000000000000000000000000000000000000000602082015250565b60006125d0602383611d3b565b91506125db82612574565b604082019050919050565b600060208201905081810360008301526125ff816125c3565b9050919050565b7f45524332303a207472616e7366657220616d6f756e742065786365656473206260008201527f616c616e63650000000000000000000000000000000000000000000000000000602082015250565b6000612662602683611d3b565b915061266d82612606565b604082019050919050565b6000602082019050818103600083015261269181612655565b9050919050565b7f45524332303a206275726e2066726f6d20746865207a65726f2061646472657360008201527f7300000000000000000000000000000000000000000000000000000000000000602082015250565b60006126f4602183611d3b565b91506126ff82612698565b604082019050919050565b60006020820190508181036000830152612723816126e7565b9050919050565b7f45524332303a206275726e20616d6f756e7420657863656564732062616c616e60008201527f6365000000000000000000000000000000000000000000000000000000000000602082015250565b6000612786602283611d3b565b91506127918261272a565b604082019050919050565b600060208201905081810360008301526127b581612779565b9050919050565b7f4d61782077616c6c65742063616e6e6f74206265206578636565646564000000600082015250565b60006127f2601d83611d3b565b91506127fd826127bc565b602082019050919050565b60006020820190508181036000830152612821816127e5565b9050919050565b600061283382611e45565b915061283e83611e45565b925082820261284c81611e45565b9150828204841483151761286357612862612197565b5b5092915050565b7f4e487b7100000000000000000000000000000000000000000000000000000000600052601260045260246000fd5b60006128a482611e45565b91506128af83611e45565b9250826128bf576128be61286a565b5b828204905092915050565b7f45786365656473206d6178207472616e73616374696f6e20616d6f756e740000600082015250565b6000612900601e83611d3b565b915061290b826128ca565b602082019050919050565b6000602082019050818103600083015261292f816128f3565b905091905056fea2646970667358221220426f1e93b0b6613d6cdbfe85e8a90edc4b34ed2337ab70dd6b3f08946a0950ab64736f6c63430008130033",
					"opcodes": "PUSH1 0x80 PUSH1 0x40 MSTORE PUSH20 0x7A250D5630B4CF539739DF2C5DACB4C659F2488D PUSH1 0x9 PUSH1 0x0 PUSH2 0x100 EXP DUP2 SLOAD DUP2 PUSH20 0xFFFFFFFFFFFFFFFFFFFFFFFFFFFFFFFFFFFFFFFF MUL NOT AND SWAP1 DUP4 PUSH20 0xFFFFFFFFFFFFFFFFFFFFFFFFFFFFFFFFFFFFFFFF AND MUL OR SWAP1 SSTORE POP PUSH1 0x0 PUSH1 0xA PUSH1 0x14 PUSH2 0x100 EXP DUP2 SLOAD DUP2 PUSH1 0xFF MUL NOT AND SWAP1 DUP4 ISZERO ISZERO MUL OR SWAP1 SSTORE POP CALLVALUE DUP1 ISZERO PUSH3 0x81 JUMPI PUSH1 0x0 DUP1 REVERT JUMPDEST POP PUSH1 0x40 MLOAD DUP1 PUSH1 0x40 ADD PUSH1 0x40 MSTORE DUP1 PUSH1 0x8 DUP2 MSTORE PUSH1 0x20 ADD PUSH32 0x4F6E6520416E6F6E000000000000000000000000000000000000000000000000 DUP2 MSTORE POP PUSH1 0x40 MLOAD DUP1 PUSH1 0x40 ADD PUSH1 0x40 MSTORE DUP1 PUSH1 0x4 DUP2 MSTORE PUSH1 0x20 ADD PUSH32 0x244F415400000000000000000000000000000000000000000000000000000000 DUP2 MSTORE POP DUP2 PUSH1 0x3 SWAP1 DUP2 PUSH3 0xFF SWAP2 SWAP1 PUSH3 0x11AD JUMP JUMPDEST POP DUP1 PUSH1 0x4 SWAP1 DUP2 PUSH3 0x111 SWAP2 SWAP1 PUSH3 0x11AD JUMP JUMPDEST POP POP POP PUSH1 0x0 PUSH3 0x126 PUSH3 0x2C3 PUSH1 0x20 SHL PUSH1 0x20 SHR JUMP JUMPDEST SWAP1 POP DUP1 PUSH1 0x5 PUSH1 0x0 PUSH2 0x100 EXP DUP2 SLOAD DUP2 PUSH20 0xFFFFFFFFFFFFFFFFFFFFFFFFFFFFFFFFFFFFFFFF MUL NOT AND SWAP1 DUP4 PUSH20 0xFFFFFFFFFFFFFFFFFFFFFFFFFFFFFFFFFFFFFFFF AND MUL OR SWAP1 SSTORE POP DUP1 PUSH20 0xFFFFFFFFFFFFFFFFFFFFFFFFFFFFFFFFFFFFFFFF AND PUSH1 0x0 PUSH20 0xFFFFFFFFFFFFFFFFFFFFFFFFFFFFFFFFFFFFFFFF AND PUSH32 0x8BE0079C531659141344CD1FD0A4F28419497F9722A3DAAFE3B4186F6B6457E0 PUSH1 0x40 MLOAD PUSH1 0x40 MLOAD DUP1 SWAP2 SUB SWAP1 LOG3 POP PUSH3 0x205 CALLER PUSH3 0x1DA PUSH3 0x2CB PUSH1 0x20 SHL PUSH1 0x20 SHR JUMP JUMPDEST PUSH1 0xA PUSH3 0x1E8 SWAP2 SWAP1 PUSH3 0x1424 JUMP JUMPDEST PUSH4 0x5F5E100 PUSH3 0x1F9 SWAP2 SWAP1 PUSH3 0x1475 JUMP JUMPDEST PUSH3 0x2D4 PUSH1 0x20 SHL PUSH1 0x20 SHR JUMP JUMPDEST PUSH3 0x215 PUSH3 0x2CB PUSH1 0x20 SHL PUSH1 0x20 SHR JUMP JUMPDEST PUSH1 0xA PUSH3 0x223 SWAP2 SWAP1 PUSH3 0x1424 JUMP JUMPDEST PUSH3 0xF4240 PUSH3 0x233 SWAP2 SWAP1 PUSH3 0x1475 JUMP JUMPDEST PUSH1 0x7 DUP2 SWAP1 SSTORE POP PUSH3 0x249 PUSH3 0x2CB PUSH1 0x20 SHL PUSH1 0x20 SHR JUMP JUMPDEST PUSH1 0xA PUSH3 0x257 SWAP2 SWAP1 PUSH3 0x1424 JUMP JUMPDEST PUSH3 0xF4240 PUSH3 0x267 SWAP2 SWAP1 PUSH3 0x1475 JUMP JUMPDEST PUSH1 0x6 DUP2 SWAP1 SSTORE POP PUSH3 0x27D PUSH3 0x2C3 PUSH1 0x20 SHL PUSH1 0x20 SHR JUMP JUMPDEST PUSH1 0x8 PUSH1 0x0 PUSH2 0x100 EXP DUP2 SLOAD DUP2 PUSH20 0xFFFFFFFFFFFFFFFFFFFFFFFFFFFFFFFFFFFFFFFF MUL NOT AND SWAP1 DUP4 PUSH20 0xFFFFFFFFFFFFFFFFFFFFFFFFFFFFFFFFFFFFFFFF AND MUL OR SWAP1 SSTORE POP PUSH3 0x16F7 JUMP JUMPDEST PUSH1 0x0 CALLER SWAP1 POP SWAP1 JUMP JUMPDEST PUSH1 0x0 PUSH1 0x12 SWAP1 POP SWAP1 JUMP JUMPDEST PUSH1 0x0 PUSH20 0xFFFFFFFFFFFFFFFFFFFFFFFFFFFFFFFFFFFFFFFF AND DUP3 PUSH20 0xFFFFFFFFFFFFFFFFFFFFFFFFFFFFFFFFFFFFFFFF AND SUB PUSH3 0x346 JUMPI PUSH1 0x40 MLOAD PUSH32 0x8C379A000000000000000000000000000000000000000000000000000000000 DUP2 MSTORE PUSH1 0x4 ADD PUSH3 0x33D SWAP1 PUSH3 0x1521 JUMP JUMPDEST PUSH1 0x40 MLOAD DUP1 SWAP2 SUB SWAP1 REVERT JUMPDEST PUSH3 0x35A PUSH1 0x0 DUP4 DUP4 PUSH3 0x438 PUSH1 0x20 SHL PUSH1 0x20 SHR JUMP JUMPDEST DUP1 PUSH1 0x2 PUSH1 0x0 DUP3 DUP3 SLOAD PUSH3 0x36E SWAP2 SWAP1 PUSH3 0x1543 JUMP JUMPDEST SWAP3 POP POP DUP2 SWAP1 SSTORE POP DUP1 PUSH1 0x0 DUP1 DUP5 PUSH20 0xFFFFFFFFFFFFFFFFFFFFFFFFFFFFFFFFFFFFFFFF AND PUSH20 0xFFFFFFFFFFFFFFFFFFFFFFFFFFFFFFFFFFFFFFFF AND DUP2 MSTORE PUSH1 0x20 ADD SWAP1 DUP2 MSTORE PUSH1 0x20 ADD PUSH1 0x0 KECCAK256 PUSH1 0x0 DUP3 DUP3 SLOAD PUSH3 0x3C5 SWAP2 SWAP1 PUSH3 0x1543 JUMP JUMPDEST SWAP3 POP POP DUP2 SWAP1 SSTORE POP DUP2 PUSH20 0xFFFFFFFFFFFFFFFFFFFFFFFFFFFFFFFFFFFFFFFF AND PUSH1 0x0 PUSH20 0xFFFFFFFFFFFFFFFFFFFFFFFFFFFFFFFFFFFFFFFF AND PUSH32 0xDDF252AD1BE2C89B69C2B068FC378DAA952BA7F163C4A11628F55A4DF523B3EF DUP4 PUSH1 0x40 MLOAD PUSH3 0x42C SWAP2 SWAP1 PUSH3 0x158F JUMP JUMPDEST PUSH1 0x40 MLOAD DUP1 SWAP2 SUB SWAP1 LOG3 POP POP JUMP JUMPDEST PUSH1 0x0 PUSH3 0x44A PUSH3 0xE54 PUSH1 0x20 SHL PUSH1 0x20 SHR JUMP JUMPDEST PUSH20 0xFFFFFFFFFFFFFFFFFFFFFFFFFFFFFFFFFFFFFFFF AND DUP5 PUSH20 0xFFFFFFFFFFFFFFFFFFFFFFFFFFFFFFFFFFFFFFFF AND EQ ISZERO DUP1 ISZERO PUSH3 0x4C1 JUMPI POP PUSH3 0x491 PUSH3 0xE54 PUSH1 0x20 SHL PUSH1 0x20 SHR JUMP JUMPDEST PUSH20 0xFFFFFFFFFFFFFFFFFFFFFFFFFFFFFFFFFFFFFFFF AND DUP4 PUSH20 0xFFFFFFFFFFFFFFFFFFFFFFFFFFFFFFFFFFFFFFFF AND EQ ISZERO JUMPDEST DUP1 ISZERO PUSH3 0x51C JUMPI POP PUSH1 0x9 PUSH1 0x0 SWAP1 SLOAD SWAP1 PUSH2 0x100 EXP SWAP1 DIV PUSH20 0xFFFFFFFFFFFFFFFFFFFFFFFFFFFFFFFFFFFFFFFF AND PUSH20 0xFFFFFFFFFFFFFFFFFFFFFFFFFFFFFFFFFFFFFFFF AND DUP4 PUSH20 0xFFFFFFFFFFFFFFFFFFFFFFFFFFFFFFFFFFFFFFFF AND EQ ISZERO JUMPDEST DUP1 ISZERO PUSH3 0x577 JUMPI POP PUSH1 0x9 PUSH1 0x0 SWAP1 SLOAD SWAP1 PUSH2 0x100 EXP SWAP1 DIV PUSH20 0xFFFFFFFFFFFFFFFFFFFFFFFFFFFFFFFFFFFFFFFF AND PUSH20 0xFFFFFFFFFFFFFFFFFFFFFFFFFFFFFFFFFFFFFFFF AND DUP5 PUSH20 0xFFFFFFFFFFFFFFFFFFFFFFFFFFFFFFFFFFFFFFFF AND EQ ISZERO JUMPDEST DUP1 ISZERO PUSH3 0x5D2 JUMPI POP PUSH1 0x8 PUSH1 0x0 SWAP1 SLOAD SWAP1 PUSH2 0x100 EXP SWAP1 DIV PUSH20 0xFFFFFFFFFFFFFFFFFFFFFFFFFFFFFFFFFFFFFFFF AND PUSH20 0xFFFFFFFFFFFFFFFFFFFFFFFFFFFFFFFFFFFFFFFF AND DUP4 PUSH20 0xFFFFFFFFFFFFFFFFFFFFFFFFFFFFFFFFFFFFFFFF AND EQ ISZERO JUMPDEST DUP1 ISZERO PUSH3 0x62D JUMPI POP PUSH1 0x8 PUSH1 0x0 SWAP1 SLOAD SWAP1 PUSH2 0x100 EXP SWAP1 DIV PUSH20 0xFFFFFFFFFFFFFFFFFFFFFFFFFFFFFFFFFFFFFFFF AND PUSH20 0xFFFFFFFFFFFFFFFFFFFFFFFFFFFFFFFFFFFFFFFF AND DUP5 PUSH20 0xFFFFFFFFFFFFFFFFFFFFFFFFFFFFFFFFFFFFFFFF AND EQ ISZERO JUMPDEST DUP1 ISZERO PUSH3 0x668 JUMPI POP PUSH2 0xDEAD PUSH20 0xFFFFFFFFFFFFFFFFFFFFFFFFFFFFFFFFFFFFFFFF AND DUP4 PUSH20 0xFFFFFFFFFFFFFFFFFFFFFFFFFFFFFFFFFFFFFFFF AND EQ ISZERO JUMPDEST DUP1 ISZERO PUSH3 0x6C3 JUMPI POP PUSH1 0xA PUSH1 0x0 SWAP1 SLOAD SWAP1 PUSH2 0x100 EXP SWAP1 DIV PUSH20 0xFFFFFFFFFFFFFFFFFFFFFFFFFFFFFFFFFFFFFFFF AND PUSH20 0xFFFFFFFFFFFFFFFFFFFFFFFFFFFFFFFFFFFFFFFF AND DUP4 PUSH20 0xFFFFFFFFFFFFFFFFFFFFFFFFFFFFFFFFFFFFFFFF AND EQ ISZERO JUMPDEST DUP1 ISZERO PUSH3 0x71E JUMPI POP PUSH1 0xA PUSH1 0x0 SWAP1 SLOAD SWAP1 PUSH2 0x100 EXP SWAP1 DIV PUSH20 0xFFFFFFFFFFFFFFFFFFFFFFFFFFFFFFFFFFFFFFFF AND PUSH20 0xFFFFFFFFFFFFFFFFFFFFFFFFFFFFFFFFFFFFFFFF AND DUP5 PUSH20 0xFFFFFFFFFFFFFFFFFFFFFFFFFFFFFFFFFFFFFFFF AND EQ ISZERO JUMPDEST ISZERO PUSH3 0x78A JUMPI PUSH1 0x6 SLOAD DUP3 PUSH3 0x739 DUP6 PUSH3 0xE7E PUSH1 0x20 SHL PUSH1 0x20 SHR JUMP JUMPDEST PUSH3 0x745 SWAP2 SWAP1 PUSH3 0x1543 JUMP JUMPDEST GT ISZERO PUSH3 0x789 JUMPI PUSH1 0x40 MLOAD PUSH32 0x8C379A000000000000000000000000000000000000000000000000000000000 DUP2 MSTORE PUSH1 0x4 ADD PUSH3 0x780 SWAP1 PUSH3 0x15FC JUMP JUMPDEST PUSH1 0x40 MLOAD DUP1 SWAP2 SUB SWAP1 REVERT JUMPDEST JUMPDEST PUSH1 0xA PUSH1 0x0 SWAP1 SLOAD SWAP1 PUSH2 0x100 EXP SWAP1 DIV PUSH20 0xFFFFFFFFFFFFFFFFFFFFFFFFFFFFFFFFFFFFFFFF AND PUSH20 0xFFFFFFFFFFFFFFFFFFFFFFFFFFFFFFFFFFFFFFFF AND DUP4 PUSH20 0xFFFFFFFFFFFFFFFFFFFFFFFFFFFFFFFFFFFFFFFF AND EQ DUP1 ISZERO PUSH3 0x835 JUMPI POP PUSH1 0x9 PUSH1 0x0 SWAP1 SLOAD SWAP1 PUSH2 0x100 EXP SWAP1 DIV PUSH20 0xFFFFFFFFFFFFFFFFFFFFFFFFFFFFFFFFFFFFFFFF AND PUSH20 0xFFFFFFFFFFFFFFFFFFFFFFFFFFFFFFFFFFFFFFFF AND DUP4 PUSH20 0xFFFFFFFFFFFFFFFFFFFFFFFFFFFFFFFFFFFFFFFF AND EQ JUMPDEST DUP1 ISZERO PUSH3 0x86E JUMPI POP ADDRESS PUSH20 0xFFFFFFFFFFFFFFFFFFFFFFFFFFFFFFFFFFFFFFFF AND DUP5 PUSH20 0xFFFFFFFFFFFFFFFFFFFFFFFFFFFFFFFFFFFFFFFF AND EQ ISZERO JUMPDEST DUP1 ISZERO PUSH3 0x8B6 JUMPI POP PUSH3 0x886 PUSH3 0xE54 PUSH1 0x20 SHL PUSH1 0x20 SHR JUMP JUMPDEST PUSH20 0xFFFFFFFFFFFFFFFFFFFFFFFFFFFFFFFFFFFFFFFF AND DUP5 PUSH20 0xFFFFFFFFFFFFFFFFFFFFFFFFFFFFFFFFFFFFFFFF AND EQ ISZERO JUMPDEST DUP1 ISZERO PUSH3 0x911 JUMPI POP PUSH1 0x8 PUSH1 0x0 SWAP1 SLOAD SWAP1 PUSH2 0x100 EXP SWAP1 DIV PUSH20 0xFFFFFFFFFFFFFFFFFFFFFFFFFFFFFFFFFFFFFFFF AND PUSH20 0xFFFFFFFFFFFFFFFFFFFFFFFFFFFFFFFFFFFFFFFF AND DUP5 PUSH20 0xFFFFFFFFFFFFFFFFFFFFFFFFFFFFFFFFFFFFFFFF AND EQ ISZERO JUMPDEST ISZERO PUSH3 0x937 JUMPI PUSH1 0x64 PUSH1 0x1 DUP4 PUSH3 0x928 SWAP2 SWAP1 PUSH3 0x1475 JUMP JUMPDEST PUSH3 0x934 SWAP2 SWAP1 PUSH3 0x164D JUMP JUMPDEST SWAP1 POP JUMPDEST PUSH1 0xA PUSH1 0x0 SWAP1 SLOAD SWAP1 PUSH2 0x100 EXP SWAP1 DIV PUSH20 0xFFFFFFFFFFFFFFFFFFFFFFFFFFFFFFFFFFFFFFFF AND PUSH20 0xFFFFFFFFFFFFFFFFFFFFFFFFFFFFFFFFFFFFFFFF AND DUP5 PUSH20 0xFFFFFFFFFFFFFFFFFFFFFFFFFFFFFFFFFFFFFFFF AND EQ DUP1 ISZERO PUSH3 0x9E2 JUMPI POP PUSH1 0x9 PUSH1 0x0 SWAP1 SLOAD SWAP1 PUSH2 0x100 EXP SWAP1 DIV PUSH20 0xFFFFFFFFFFFFFFFFFFFFFFFFFFFFFFFFFFFFFFFF AND PUSH20 0xFFFFFFFFFFFFFFFFFFFFFFFFFFFFFFFFFFFFFFFF AND DUP5 PUSH20 0xFFFFFFFFFFFFFFFFFFFFFFFFFFFFFFFFFFFFFFFF AND EQ JUMPDEST DUP1 ISZERO PUSH3 0xA1B JUMPI POP ADDRESS PUSH20 0xFFFFFFFFFFFFFFFFFFFFFFFFFFFFFFFFFFFFFFFF AND DUP4 PUSH20 0xFFFFFFFFFFFFFFFFFFFFFFFFFFFFFFFFFFFFFFFF AND EQ ISZERO JUMPDEST DUP1 ISZERO PUSH3 0xA63 JUMPI POP PUSH3 0xA33 PUSH3 0xE54 PUSH1 0x20 SHL PUSH1 0x20 SHR JUMP JUMPDEST PUSH20 0xFFFFFFFFFFFFFFFFFFFFFFFFFFFFFFFFFFFFFFFF AND DUP4 PUSH20 0xFFFFFFFFFFFFFFFFFFFFFFFFFFFFFFFFFFFFFFFF AND EQ ISZERO JUMPDEST DUP1 ISZERO PUSH3 0xABE JUMPI POP PUSH1 0x8 PUSH1 0x0 SWAP1 SLOAD SWAP1 PUSH2 0x100 EXP SWAP1 DIV PUSH20 0xFFFFFFFFFFFFFFFFFFFFFFFFFFFFFFFFFFFFFFFF AND PUSH20 0xFFFFFFFFFFFFFFFFFFFFFFFFFFFFFFFFFFFFFFFF AND DUP4 PUSH20 0xFFFFFFFFFFFFFFFFFFFFFFFFFFFFFFFFFFFFFFFF AND EQ ISZERO JUMPDEST ISZERO PUSH3 0xAE4 JUMPI PUSH1 0x64 PUSH1 0x1 DUP4 PUSH3 0xAD5 SWAP2 SWAP1 PUSH3 0x1475 JUMP JUMPDEST PUSH3 0xAE1 SWAP2 SWAP1 PUSH3 0x164D JUMP JUMPDEST SWAP1 POP JUMPDEST PUSH1 0x0 PUSH1 0x7 SLOAD GT DUP1 ISZERO PUSH3 0xB32 JUMPI POP PUSH3 0xB02 PUSH3 0xE54 PUSH1 0x20 SHL PUSH1 0x20 SHR JUMP JUMPDEST PUSH20 0xFFFFFFFFFFFFFFFFFFFFFFFFFFFFFFFFFFFFFFFF AND DUP5 PUSH20 0xFFFFFFFFFFFFFFFFFFFFFFFFFFFFFFFFFFFFFFFF AND EQ ISZERO JUMPDEST DUP1 ISZERO PUSH3 0xB7A JUMPI POP PUSH3 0xB4A PUSH3 0xE54 PUSH1 0x20 SHL PUSH1 0x20 SHR JUMP JUMPDEST PUSH20 0xFFFFFFFFFFFFFFFFFFFFFFFFFFFFFFFFFFFFFFFF AND DUP4 PUSH20 0xFFFFFFFFFFFFFFFFFFFFFFFFFFFFFFFFFFFFFFFF AND EQ ISZERO JUMPDEST DUP1 ISZERO PUSH3 0xBD5 JUMPI POP PUSH1 0x9 PUSH1 0x0 SWAP1 SLOAD SWAP1 PUSH2 0x100 EXP SWAP1 DIV PUSH20 0xFFFFFFFFFFFFFFFFFFFFFFFFFFFFFFFFFFFFFFFF AND PUSH20 0xFFFFFFFFFFFFFFFFFFFFFFFFFFFFFFFFFFFFFFFF AND DUP4 PUSH20 0xFFFFFFFFFFFFFFFFFFFFFFFFFFFFFFFFFFFFFFFF AND EQ ISZERO JUMPDEST DUP1 ISZERO PUSH3 0xC30 JUMPI POP PUSH1 0x9 PUSH1 0x0 SWAP1 SLOAD SWAP1 PUSH2 0x100 EXP SWAP1 DIV PUSH20 0xFFFFFFFFFFFFFFFFFFFFFFFFFFFFFFFFFFFFFFFF AND PUSH20 0xFFFFFFFFFFFFFFFFFFFFFFFFFFFFFFFFFFFFFFFF AND DUP5 PUSH20 0xFFFFFFFFFFFFFFFFFFFFFFFFFFFFFFFFFFFFFFFF AND EQ ISZERO JUMPDEST DUP1 ISZERO PUSH3 0xC8B JUMPI POP PUSH1 0x8 PUSH1 0x0 SWAP1 SLOAD SWAP1 PUSH2 0x100 EXP SWAP1 DIV PUSH20 0xFFFFFFFFFFFFFFFFFFFFFFFFFFFFFFFFFFFFFFFF AND PUSH20 0xFFFFFFFFFFFFFFFFFFFFFFFFFFFFFFFFFFFFFFFF AND DUP4 PUSH20 0xFFFFFFFFFFFFFFFFFFFFFFFFFFFFFFFFFFFFFFFF AND EQ ISZERO JUMPDEST DUP1 ISZERO PUSH3 0xCE6 JUMPI POP PUSH1 0x8 PUSH1 0x0 SWAP1 SLOAD SWAP1 PUSH2 0x100 EXP SWAP1 DIV PUSH20 0xFFFFFFFFFFFFFFFFFFFFFFFFFFFFFFFFFFFFFFFF AND PUSH20 0xFFFFFFFFFFFFFFFFFFFFFFFFFFFFFFFFFFFFFFFF AND DUP5 PUSH20 0xFFFFFFFFFFFFFFFFFFFFFFFFFFFFFFFFFFFFFFFF AND EQ ISZERO JUMPDEST DUP1 ISZERO PUSH3 0xD21 JUMPI POP PUSH2 0xDEAD PUSH20 0xFFFFFFFFFFFFFFFFFFFFFFFFFFFFFFFFFFFFFFFF AND DUP4 PUSH20 0xFFFFFFFFFFFFFFFFFFFFFFFFFFFFFFFFFFFFFFFF AND EQ ISZERO JUMPDEST DUP1 ISZERO PUSH3 0xD7C JUMPI POP PUSH1 0xA PUSH1 0x0 SWAP1 SLOAD SWAP1 PUSH2 0x100 EXP SWAP1 DIV PUSH20 0xFFFFFFFFFFFFFFFFFFFFFFFFFFFFFFFFFFFFFFFF AND PUSH20 0xFFFFFFFFFFFFFFFFFFFFFFFFFFFFFFFFFFFFFFFF AND DUP4 PUSH20 0xFFFFFFFFFFFFFFFFFFFFFFFFFFFFFFFFFFFFFFFF AND EQ ISZERO JUMPDEST DUP1 ISZERO PUSH3 0xDD7 JUMPI POP PUSH1 0xA PUSH1 0x0 SWAP1 SLOAD SWAP1 PUSH2 0x100 EXP SWAP1 DIV PUSH20 0xFFFFFFFFFFFFFFFFFFFFFFFFFFFFFFFFFFFFFFFF AND PUSH20 0xFFFFFFFFFFFFFFFFFFFFFFFFFFFFFFFFFFFFFFFF AND DUP5 PUSH20 0xFFFFFFFFFFFFFFFFFFFFFFFFFFFFFFFFFFFFFFFF AND EQ ISZERO JUMPDEST ISZERO PUSH3 0xE26 JUMPI PUSH1 0x7 SLOAD DUP3 GT ISZERO PUSH3 0xE25 JUMPI PUSH1 0x40 MLOAD PUSH32 0x8C379A000000000000000000000000000000000000000000000000000000000 DUP2 MSTORE PUSH1 0x4 ADD PUSH3 0xE1C SWAP1 PUSH3 0x16D5 JUMP JUMPDEST PUSH1 0x40 MLOAD DUP1 SWAP2 SUB SWAP1 REVERT JUMPDEST JUMPDEST PUSH1 0x0 SELFBALANCE SWAP1 POP PUSH7 0xB1A2BC2EC50000 DUP2 GT ISZERO PUSH3 0xE4D JUMPI PUSH3 0xE4C SELFBALANCE PUSH3 0xEC6 PUSH1 0x20 SHL PUSH1 0x20 SHR JUMP JUMPDEST JUMPDEST POP POP POP POP POP JUMP JUMPDEST PUSH1 0x0 PUSH1 0x5 PUSH1 0x0 SWAP1 SLOAD SWAP1 PUSH2 0x100 EXP SWAP1 DIV PUSH20 0xFFFFFFFFFFFFFFFFFFFFFFFFFFFFFFFFFFFFFFFF AND SWAP1 POP SWAP1 JUMP JUMPDEST PUSH1 0x0 DUP1 PUSH1 0x0 DUP4 PUSH20 0xFFFFFFFFFFFFFFFFFFFFFFFFFFFFFFFFFFFFFFFF AND PUSH20 0xFFFFFFFFFFFFFFFFFFFFFFFFFFFFFFFFFFFFFFFF AND DUP2 MSTORE PUSH1 0x20 ADD SWAP1 DUP2 MSTORE PUSH1 0x20 ADD PUSH1 0x0 KECCAK256 SLOAD SWAP1 POP SWAP2 SWAP1 POP JUMP JUMPDEST PUSH1 0x8 PUSH1 0x0 SWAP1 SLOAD SWAP1 PUSH2 0x100 EXP SWAP1 DIV PUSH20 0xFFFFFFFFFFFFFFFFFFFFFFFFFFFFFFFFFFFFFFFF AND PUSH20 0xFFFFFFFFFFFFFFFFFFFFFFFFFFFFFFFFFFFFFFFF AND PUSH2 0x8FC DUP3 SWAP1 DUP2 ISZERO MUL SWAP1 PUSH1 0x40 MLOAD PUSH1 0x0 PUSH1 0x40 MLOAD DUP1 DUP4 SUB DUP2 DUP6 DUP9 DUP9 CALL SWAP4 POP POP POP POP ISZERO DUP1 ISZERO PUSH3 0xF2F JUMPI RETURNDATASIZE PUSH1 0x0 DUP1 RETURNDATACOPY RETURNDATASIZE PUSH1 0x0 REVERT JUMPDEST POP POP JUMP JUMPDEST PUSH1 0x0 DUP2 MLOAD SWAP1 POP SWAP2 SWAP1 POP JUMP JUMPDEST PUSH32 0x4E487B7100000000000000000000000000000000000000000000000000000000 PUSH1 0x0 MSTORE PUSH1 0x41 PUSH1 0x4 MSTORE PUSH1 0x24 PUSH1 0x0 REVERT JUMPDEST PUSH32 0x4E487B7100000000000000000000000000000000000000000000000000000000 PUSH1 0x0 MSTORE PUSH1 0x22 PUSH1 0x4 MSTORE PUSH1 0x24 PUSH1 0x0 REVERT JUMPDEST PUSH1 0x0 PUSH1 0x2 DUP3 DIV SWAP1 POP PUSH1 0x1 DUP3 AND DUP1 PUSH3 0xFB5 JUMPI PUSH1 0x7F DUP3 AND SWAP2 POP JUMPDEST PUSH1 0x20 DUP3 LT DUP2 SUB PUSH3 0xFCB JUMPI PUSH3 0xFCA PUSH3 0xF6D JUMP JUMPDEST JUMPDEST POP SWAP2 SWAP1 POP JUMP JUMPDEST PUSH1 0x0 DUP2 SWAP1 POP DUP2 PUSH1 0x0 MSTORE PUSH1 0x20 PUSH1 0x0 KECCAK256 SWAP1 POP SWAP2 SWAP1 POP JUMP JUMPDEST PUSH1 0x0 PUSH1 0x20 PUSH1 0x1F DUP4 ADD DIV SWAP1 POP SWAP2 SWAP1 POP JUMP JUMPDEST PUSH1 0x0 DUP3 DUP3 SHL SWAP1 POP SWAP3 SWAP2 POP POP JUMP JUMPDEST PUSH1 0x0 PUSH1 0x8 DUP4 MUL PUSH3 0x1035 PUSH32 0xFFFFFFFFFFFFFFFFFFFFFFFFFFFFFFFFFFFFFFFFFFFFFFFFFFFFFFFFFFFFFFFF DUP3 PUSH3 0xFF6 JUMP JUMPDEST PUSH3 0x1041 DUP7 DUP4 PUSH3 0xFF6 JUMP JUMPDEST SWAP6 POP DUP1 NOT DUP5 AND SWAP4 POP DUP1 DUP7 AND DUP5 OR SWAP3 POP POP POP SWAP4 SWAP3 POP POP POP JUMP JUMPDEST PUSH1 0x0 DUP2 SWAP1 POP SWAP2 SWAP1 POP JUMP JUMPDEST PUSH1 0x0 DUP2 SWAP1 POP SWAP2 SWAP1 POP JUMP JUMPDEST PUSH1 0x0 PUSH3 0x108E PUSH3 0x1088 PUSH3 0x1082 DUP5 PUSH3 0x1059 JUMP JUMPDEST PUSH3 0x1063 JUMP JUMPDEST PUSH3 0x1059 JUMP JUMPDEST SWAP1 POP SWAP2 SWAP1 POP JUMP JUMPDEST PUSH1 0x0 DUP2 SWAP1 POP SWAP2 SWAP1 POP JUMP JUMPDEST PUSH3 0x10AA DUP4 PUSH3 0x106D JUMP JUMPDEST PUSH3 0x10C2 PUSH3 0x10B9 DUP3 PUSH3 0x1095 JUMP JUMPDEST DUP5 DUP5 SLOAD PUSH3 0x1003 JUMP JUMPDEST DUP3 SSTORE POP POP POP POP JUMP JUMPDEST PUSH1 0x0 SWAP1 JUMP JUMPDEST PUSH3 0x10D9 PUSH3 0x10CA JUMP JUMPDEST PUSH3 0x10E6 DUP2 DUP5 DUP5 PUSH3 0x109F JUMP JUMPDEST POP POP POP JUMP JUMPDEST JUMPDEST DUP2 DUP2 LT ISZERO PUSH3 0x110E JUMPI PUSH3 0x1102 PUSH1 0x0 DUP3 PUSH3 0x10CF JUMP JUMPDEST PUSH1 0x1 DUP2 ADD SWAP1 POP PUSH3 0x10EC JUMP JUMPDEST POP POP JUMP JUMPDEST PUSH1 0x1F DUP3 GT ISZERO PUSH3 0x115D JUMPI PUSH3 0x1127 DUP2 PUSH3 0xFD1 JUMP JUMPDEST PUSH3 0x1132 DUP5 PUSH3 0xFE6 JUMP JUMPDEST DUP2 ADD PUSH1 0x20 DUP6 LT ISZERO PUSH3 0x1142 JUMPI DUP2 SWAP1 POP JUMPDEST PUSH3 0x115A PUSH3 0x1151 DUP6 PUSH3 0xFE6 JUMP JUMPDEST DUP4 ADD DUP3 PUSH3 0x10EB JUMP JUMPDEST POP POP JUMPDEST POP POP POP JUMP JUMPDEST PUSH1 0x0 DUP3 DUP3 SHR SWAP1 POP SWAP3 SWAP2 POP POP JUMP JUMPDEST PUSH1 0x0 PUSH3 0x1182 PUSH1 0x0 NOT DUP5 PUSH1 0x8 MUL PUSH3 0x1162 JUMP JUMPDEST NOT DUP1 DUP4 AND SWAP2 POP POP SWAP3 SWAP2 POP POP JUMP JUMPDEST PUSH1 0x0 PUSH3 0x119D DUP4 DUP4 PUSH3 0x116F JUMP JUMPDEST SWAP2 POP DUP3 PUSH1 0x2 MUL DUP3 OR SWAP1 POP SWAP3 SWAP2 POP POP JUMP JUMPDEST PUSH3 0x11B8 DUP3 PUSH3 0xF33 JUMP JUMPDEST PUSH8 0xFFFFFFFFFFFFFFFF DUP2 GT ISZERO PUSH3 0x11D4 JUMPI PUSH3 0x11D3 PUSH3 0xF3E JUMP JUMPDEST JUMPDEST PUSH3 0x11E0 DUP3 SLOAD PUSH3 0xF9C JUMP JUMPDEST PUSH3 0x11ED DUP3 DUP3 DUP6 PUSH3 0x1112 JUMP JUMPDEST PUSH1 0x0 PUSH1 0x20 SWAP1 POP PUSH1 0x1F DUP4 GT PUSH1 0x1 DUP2 EQ PUSH3 0x1225 JUMPI PUSH1 0x0 DUP5 ISZERO PUSH3 0x1210 JUMPI DUP3 DUP8 ADD MLOAD SWAP1 POP JUMPDEST PUSH3 0x121C DUP6 DUP3 PUSH3 0x118F JUMP JUMPDEST DUP7 SSTORE POP PUSH3 0x128C JUMP JUMPDEST PUSH1 0x1F NOT DUP5 AND PUSH3 0x1235 DUP7 PUSH3 0xFD1 JUMP JUMPDEST PUSH1 0x0 JUMPDEST DUP3 DUP2 LT ISZERO PUSH3 0x125F JUMPI DUP5 DUP10 ADD MLOAD DUP3 SSTORE PUSH1 0x1 DUP3 ADD SWAP2 POP PUSH1 0x20 DUP6 ADD SWAP5 POP PUSH1 0x20 DUP2 ADD SWAP1 POP PUSH3 0x1238 JUMP JUMPDEST DUP7 DUP4 LT ISZERO PUSH3 0x127F JUMPI DUP5 DUP10 ADD MLOAD PUSH3 0x127B PUSH1 0x1F DUP10 AND DUP3 PUSH3 0x116F JUMP JUMPDEST DUP4 SSTORE POP JUMPDEST PUSH1 0x1 PUSH1 0x2 DUP9 MUL ADD DUP9 SSTORE POP POP POP JUMPDEST POP POP POP POP POP POP JUMP JUMPDEST PUSH32 0x4E487B7100000000000000000000000000000000000000000000000000000000 PUSH1 0x0 MSTORE PUSH1 0x11 PUSH1 0x4 MSTORE PUSH1 0x24 PUSH1 0x0 REVERT JUMPDEST PUSH1 0x0 DUP2 PUSH1 0x1 SHR SWAP1 POP SWAP2 SWAP1 POP JUMP JUMPDEST PUSH1 0x0 DUP1 DUP3 SWAP2 POP DUP4 SWAP1 POP JUMPDEST PUSH1 0x1 DUP6 GT ISZERO PUSH3 0x1322 JUMPI DUP1 DUP7 DIV DUP2 GT ISZERO PUSH3 0x12FA JUMPI PUSH3 0x12F9 PUSH3 0x1294 JUMP JUMPDEST JUMPDEST PUSH1 0x1 DUP6 AND ISZERO PUSH3 0x130A JUMPI DUP1 DUP3 MUL SWAP2 POP JUMPDEST DUP1 DUP2 MUL SWAP1 POP PUSH3 0x131A DUP6 PUSH3 0x12C3 JUMP JUMPDEST SWAP5 POP PUSH3 0x12DA JUMP JUMPDEST SWAP5 POP SWAP5 SWAP3 POP POP POP JUMP JUMPDEST PUSH1 0x0 DUP3 PUSH3 0x133D JUMPI PUSH1 0x1 SWAP1 POP PUSH3 0x1410 JUMP JUMPDEST DUP2 PUSH3 0x134D JUMPI PUSH1 0x0 SWAP1 POP PUSH3 0x1410 JUMP JUMPDEST DUP2 PUSH1 0x1 DUP2 EQ PUSH3 0x1366 JUMPI PUSH1 0x2 DUP2 EQ PUSH3 0x1371 JUMPI PUSH3 0x13A7 JUMP JUMPDEST PUSH1 0x1 SWAP2 POP POP PUSH3 0x1410 JUMP JUMPDEST PUSH1 0xFF DUP5 GT ISZERO PUSH3 0x1386 JUMPI PUSH3 0x1385 PUSH3 0x1294 JUMP JUMPDEST JUMPDEST DUP4 PUSH1 0x2 EXP SWAP2 POP DUP5 DUP3 GT ISZERO PUSH3 0x13A0 JUMPI PUSH3 0x139F PUSH3 0x1294 JUMP JUMPDEST JUMPDEST POP PUSH3 0x1410 JUMP JUMPDEST POP PUSH1 0x20 DUP4 LT PUSH2 0x133 DUP4 LT AND PUSH1 0x4E DUP5 LT PUSH1 0xB DUP5 LT AND OR ISZERO PUSH3 0x13E1 JUMPI DUP3 DUP3 EXP SWAP1 POP DUP4 DUP2 GT ISZERO PUSH3 0x13DB JUMPI PUSH3 0x13DA PUSH3 0x1294 JUMP JUMPDEST JUMPDEST PUSH3 0x1410 JUMP JUMPDEST PUSH3 0x13F0 DUP5 DUP5 DUP5 PUSH1 0x1 PUSH3 0x12D0 JUMP JUMPDEST SWAP3 POP SWAP1 POP DUP2 DUP5 DIV DUP2 GT ISZERO PUSH3 0x140A JUMPI PUSH3 0x1409 PUSH3 0x1294 JUMP JUMPDEST JUMPDEST DUP2 DUP2 MUL SWAP1 POP JUMPDEST SWAP4 SWAP3 POP POP POP JUMP JUMPDEST PUSH1 0x0 PUSH1 0xFF DUP3 AND SWAP1 POP SWAP2 SWAP1 POP JUMP JUMPDEST PUSH1 0x0 PUSH3 0x1431 DUP3 PUSH3 0x1059 JUMP JUMPDEST SWAP2 POP PUSH3 0x143E DUP4 PUSH3 0x1417 JUMP JUMPDEST SWAP3 POP PUSH3 0x146D PUSH32 0xFFFFFFFFFFFFFFFFFFFFFFFFFFFFFFFFFFFFFFFFFFFFFFFFFFFFFFFFFFFFFFFF DUP5 DUP5 PUSH3 0x132B JUMP JUMPDEST SWAP1 POP SWAP3 SWAP2 POP POP JUMP JUMPDEST PUSH1 0x0 PUSH3 0x1482 DUP3 PUSH3 0x1059 JUMP JUMPDEST SWAP2 POP PUSH3 0x148F DUP4 PUSH3 0x1059 JUMP JUMPDEST SWAP3 POP DUP3 DUP3 MUL PUSH3 0x149F DUP2 PUSH3 0x1059 JUMP JUMPDEST SWAP2 POP DUP3 DUP3 DIV DUP5 EQ DUP4 ISZERO OR PUSH3 0x14B9 JUMPI PUSH3 0x14B8 PUSH3 0x1294 JUMP JUMPDEST JUMPDEST POP SWAP3 SWAP2 POP POP JUMP JUMPDEST PUSH1 0x0 DUP3 DUP3 MSTORE PUSH1 0x20 DUP3 ADD SWAP1 POP SWAP3 SWAP2 POP POP JUMP JUMPDEST PUSH32 0x45524332303A206D696E7420746F20746865207A65726F206164647265737300 PUSH1 0x0 DUP3 ADD MSTORE POP JUMP JUMPDEST PUSH1 0x0 PUSH3 0x1509 PUSH1 0x1F DUP4 PUSH3 0x14C0 JUMP JUMPDEST SWAP2 POP PUSH3 0x1516 DUP3 PUSH3 0x14D1 JUMP JUMPDEST PUSH1 0x20 DUP3 ADD SWAP1 POP SWAP2 SWAP1 POP JUMP JUMPDEST PUSH1 0x0 PUSH1 0x20 DUP3 ADD SWAP1 POP DUP2 DUP2 SUB PUSH1 0x0 DUP4 ADD MSTORE PUSH3 0x153C DUP2 PUSH3 0x14FA JUMP JUMPDEST SWAP1 POP SWAP2 SWAP1 POP JUMP JUMPDEST PUSH1 0x0 PUSH3 0x1550 DUP3 PUSH3 0x1059 JUMP JUMPDEST SWAP2 POP PUSH3 0x155D DUP4 PUSH3 0x1059 JUMP JUMPDEST SWAP3 POP DUP3 DUP3 ADD SWAP1 POP DUP1 DUP3 GT ISZERO PUSH3 0x1578 JUMPI PUSH3 0x1577 PUSH3 0x1294 JUMP JUMPDEST JUMPDEST SWAP3 SWAP2 POP POP JUMP JUMPDEST PUSH3 0x1589 DUP2 PUSH3 0x1059 JUMP JUMPDEST DUP3 MSTORE POP POP JUMP JUMPDEST PUSH1 0x0 PUSH1 0x20 DUP3 ADD SWAP1 POP PUSH3 0x15A6 PUSH1 0x0 DUP4 ADD DUP5 PUSH3 0x157E JUMP JUMPDEST SWAP3 SWAP2 POP POP JUMP JUMPDEST PUSH32 0x4D61782077616C6C65742063616E6E6F74206265206578636565646564000000 PUSH1 0x0 DUP3 ADD MSTORE POP JUMP JUMPDEST PUSH1 0x0 PUSH3 0x15E4 PUSH1 0x1D DUP4 PUSH3 0x14C0 JUMP JUMPDEST SWAP2 POP PUSH3 0x15F1 DUP3 PUSH3 0x15AC JUMP JUMPDEST PUSH1 0x20 DUP3 ADD SWAP1 POP SWAP2 SWAP1 POP JUMP JUMPDEST PUSH1 0x0 PUSH1 0x20 DUP3 ADD SWAP1 POP DUP2 DUP2 SUB PUSH1 0x0 DUP4 ADD MSTORE PUSH3 0x1617 DUP2 PUSH3 0x15D5 JUMP JUMPDEST SWAP1 POP SWAP2 SWAP1 POP JUMP JUMPDEST PUSH32 0x4E487B7100000000000000000000000000000000000000000000000000000000 PUSH1 0x0 MSTORE PUSH1 0x12 PUSH1 0x4 MSTORE PUSH1 0x24 PUSH1 0x0 REVERT JUMPDEST PUSH1 0x0 PUSH3 0x165A DUP3 PUSH3 0x1059 JUMP JUMPDEST SWAP2 POP PUSH3 0x1667 DUP4 PUSH3 0x1059 JUMP JUMPDEST SWAP3 POP DUP3 PUSH3 0x167A JUMPI PUSH3 0x1679 PUSH3 0x161E JUMP JUMPDEST JUMPDEST DUP3 DUP3 DIV SWAP1 POP SWAP3 SWAP2 POP POP JUMP JUMPDEST PUSH32 0x45786365656473206D6178207472616E73616374696F6E20616D6F756E740000 PUSH1 0x0 DUP3 ADD MSTORE POP JUMP JUMPDEST PUSH1 0x0 PUSH3 0x16BD PUSH1 0x1E DUP4 PUSH3 0x14C0 JUMP JUMPDEST SWAP2 POP PUSH3 0x16CA DUP3 PUSH3 0x1685 JUMP JUMPDEST PUSH1 0x20 DUP3 ADD SWAP1 POP SWAP2 SWAP1 POP JUMP JUMPDEST PUSH1 0x0 PUSH1 0x20 DUP3 ADD SWAP1 POP DUP2 DUP2 SUB PUSH1 0x0 DUP4 ADD MSTORE PUSH3 0x16F0 DUP2 PUSH3 0x16AE JUMP JUMPDEST SWAP1 POP SWAP2 SWAP1 POP JUMP JUMPDEST PUSH2 0x296C DUP1 PUSH3 0x1707 PUSH1 0x0 CODECOPY PUSH1 0x0 RETURN INVALID PUSH1 0x80 PUSH1 0x40 MSTORE PUSH1 0x4 CALLDATASIZE LT PUSH2 0x118 JUMPI PUSH1 0x0 CALLDATALOAD PUSH1 0xE0 SHR DUP1 PUSH4 0x715018A6 GT PUSH2 0xA0 JUMPI DUP1 PUSH4 0xA01C3483 GT PUSH2 0x64 JUMPI DUP1 PUSH4 0xA01C3483 EQ PUSH2 0x3B0 JUMPI DUP1 PUSH4 0xA457C2D7 EQ PUSH2 0x3DB JUMPI DUP1 PUSH4 0xA9059CBB EQ PUSH2 0x418 JUMPI DUP1 PUSH4 0xDD62ED3E EQ PUSH2 0x455 JUMPI DUP1 PUSH4 0xF2FDE38B EQ PUSH2 0x492 JUMPI PUSH2 0x11F JUMP JUMPDEST DUP1 PUSH4 0x715018A6 EQ PUSH2 0x2ED JUMPI DUP1 PUSH4 0x89F9A1D3 EQ PUSH2 0x304 JUMPI DUP1 PUSH4 0x8C0B5E22 EQ PUSH2 0x32F JUMPI DUP1 PUSH4 0x8DA5CB5B EQ PUSH2 0x35A JUMPI DUP1 PUSH4 0x95D89B41 EQ PUSH2 0x385 JUMPI PUSH2 0x11F JUMP JUMPDEST DUP1 PUSH4 0x313CE567 GT PUSH2 0xE7 JUMPI DUP1 PUSH4 0x313CE567 EQ PUSH2 0x1F4 JUMPI DUP1 PUSH4 0x39509351 EQ PUSH2 0x21F JUMPI DUP1 PUSH4 0x42966C68 EQ PUSH2 0x25C JUMPI DUP1 PUSH4 0x6F268A99 EQ PUSH2 0x285 JUMPI DUP1 PUSH4 0x70A08231 EQ PUSH2 0x2B0 JUMPI PUSH2 0x11F JUMP JUMPDEST DUP1 PUSH4 0x6FDDE03 EQ PUSH2 0x124 JUMPI DUP1 PUSH4 0x95EA7B3 EQ PUSH2 0x14F JUMPI DUP1 PUSH4 0x18160DDD EQ PUSH2 0x18C JUMPI DUP1 PUSH4 0x23B872DD EQ PUSH2 0x1B7 JUMPI PUSH2 0x11F JUMP JUMPDEST CALLDATASIZE PUSH2 0x11F JUMPI STOP JUMPDEST PUSH1 0x0 DUP1 REVERT JUMPDEST CALLVALUE DUP1 ISZERO PUSH2 0x130 JUMPI PUSH1 0x0 DUP1 REVERT JUMPDEST POP PUSH2 0x139 PUSH2 0x4BB JUMP JUMPDEST PUSH1 0x40 MLOAD PUSH2 0x146 SWAP2 SWAP1 PUSH2 0x1DC0 JUMP JUMPDEST PUSH1 0x40 MLOAD DUP1 SWAP2 SUB SWAP1 RETURN JUMPDEST CALLVALUE DUP1 ISZERO PUSH2 0x15B JUMPI PUSH1 0x0 DUP1 REVERT JUMPDEST POP PUSH2 0x176 PUSH1 0x4 DUP1 CALLDATASIZE SUB DUP2 ADD SWAP1 PUSH2 0x171 SWAP2 SWAP1 PUSH2 0x1E7B JUMP JUMPDEST PUSH2 0x54D JUMP JUMPDEST PUSH1 0x40 MLOAD PUSH2 0x183 SWAP2 SWAP1 PUSH2 0x1ED6 JUMP JUMPDEST PUSH1 0x40 MLOAD DUP1 SWAP2 SUB SWAP1 RETURN JUMPDEST CALLVALUE DUP1 ISZERO PUSH2 0x198 JUMPI PUSH1 0x0 DUP1 REVERT JUMPDEST POP PUSH2 0x1A1 PUSH2 0x56B JUMP JUMPDEST PUSH1 0x40 MLOAD PUSH2 0x1AE SWAP2 SWAP1 PUSH2 0x1F00 JUMP JUMPDEST PUSH1 0x40 MLOAD DUP1 SWAP2 SUB SWAP1 RETURN JUMPDEST CALLVALUE DUP1 ISZERO PUSH2 0x1C3 JUMPI PUSH1 0x0 DUP1 REVERT JUMPDEST POP PUSH2 0x1DE PUSH1 0x4 DUP1 CALLDATASIZE SUB DUP2 ADD SWAP1 PUSH2 0x1D9 SWAP2 SWAP1 PUSH2 0x1F1B JUMP JUMPDEST PUSH2 0x575 JUMP JUMPDEST PUSH1 0x40 MLOAD PUSH2 0x1EB SWAP2 SWAP1 PUSH2 0x1ED6 JUMP JUMPDEST PUSH1 0x40 MLOAD DUP1 SWAP2 SUB SWAP1 RETURN JUMPDEST CALLVALUE DUP1 ISZERO PUSH2 0x200 JUMPI PUSH1 0x0 DUP1 REVERT JUMPDEST POP PUSH2 0x209 PUSH2 0x676 JUMP JUMPDEST PUSH1 0x40 MLOAD PUSH2 0x216 SWAP2 SWAP1 PUSH2 0x1F8A JUMP JUMPDEST PUSH1 0x40 MLOAD DUP1 SWAP2 SUB SWAP1 RETURN JUMPDEST CALLVALUE DUP1 ISZERO PUSH2 0x22B JUMPI PUSH1 0x0 DUP1 REVERT JUMPDEST POP PUSH2 0x246 PUSH1 0x4 DUP1 CALLDATASIZE SUB DUP2 ADD SWAP1 PUSH2 0x241 SWAP2 SWAP1 PUSH2 0x1E7B JUMP JUMPDEST PUSH2 0x67F JUMP JUMPDEST PUSH1 0x40 MLOAD PUSH2 0x253 SWAP2 SWAP1 PUSH2 0x1ED6 JUMP JUMPDEST PUSH1 0x40 MLOAD DUP1 SWAP2 SUB SWAP1 RETURN JUMPDEST CALLVALUE DUP1 ISZERO PUSH2 0x268 JUMPI PUSH1 0x0 DUP1 REVERT JUMPDEST POP PUSH2 0x283 PUSH1 0x4 DUP1 CALLDATASIZE SUB DUP2 ADD SWAP1 PUSH2 0x27E SWAP2 SWAP1 PUSH2 0x1FA5 JUMP JUMPDEST PUSH2 0x72B JUMP JUMPDEST STOP JUMPDEST CALLVALUE DUP1 ISZERO PUSH2 0x291 JUMPI PUSH1 0x0 DUP1 REVERT JUMPDEST POP PUSH2 0x29A PUSH2 0x738 JUMP JUMPDEST PUSH1 0x40 MLOAD PUSH2 0x2A7 SWAP2 SWAP1 PUSH2 0x1FF3 JUMP JUMPDEST PUSH1 0x40 MLOAD DUP1 SWAP2 SUB SWAP1 RETURN JUMPDEST CALLVALUE DUP1 ISZERO PUSH2 0x2BC JUMPI PUSH1 0x0 DUP1 REVERT JUMPDEST POP PUSH2 0x2D7 PUSH1 0x4 DUP1 CALLDATASIZE SUB DUP2 ADD SWAP1 PUSH2 0x2D2 SWAP2 SWAP1 PUSH2 0x200E JUMP JUMPDEST PUSH2 0x75E JUMP JUMPDEST PUSH1 0x40 MLOAD PUSH2 0x2E4 SWAP2 SWAP1 PUSH2 0x1F00 JUMP JUMPDEST PUSH1 0x40 MLOAD DUP1 SWAP2 SUB SWAP1 RETURN JUMPDEST CALLVALUE DUP1 ISZERO PUSH2 0x2F9 JUMPI PUSH1 0x0 DUP1 REVERT JUMPDEST POP PUSH2 0x302 PUSH2 0x7A6 JUMP JUMPDEST STOP JUMPDEST CALLVALUE DUP1 ISZERO PUSH2 0x310 JUMPI PUSH1 0x0 DUP1 REVERT JUMPDEST POP PUSH2 0x319 PUSH2 0x8E3 JUMP JUMPDEST PUSH1 0x40 MLOAD PUSH2 0x326 SWAP2 SWAP1 PUSH2 0x1F00 JUMP JUMPDEST PUSH1 0x40 MLOAD DUP1 SWAP2 SUB SWAP1 RETURN JUMPDEST CALLVALUE DUP1 ISZERO PUSH2 0x33B JUMPI PUSH1 0x0 DUP1 REVERT JUMPDEST POP PUSH2 0x344 PUSH2 0x8E9 JUMP JUMPDEST PUSH1 0x40 MLOAD PUSH2 0x351 SWAP2 SWAP1 PUSH2 0x1F00 JUMP JUMPDEST PUSH1 0x40 MLOAD DUP1 SWAP2 SUB SWAP1 RETURN JUMPDEST CALLVALUE DUP1 ISZERO PUSH2 0x366 JUMPI PUSH1 0x0 DUP1 REVERT JUMPDEST POP PUSH2 0x36F PUSH2 0x8EF JUMP JUMPDEST PUSH1 0x40 MLOAD PUSH2 0x37C SWAP2 SWAP1 PUSH2 0x204A JUMP JUMPDEST PUSH1 0x40 MLOAD DUP1 SWAP2 SUB SWAP1 RETURN JUMPDEST CALLVALUE DUP1 ISZERO PUSH2 0x391 JUMPI PUSH1 0x0 DUP1 REVERT JUMPDEST POP PUSH2 0x39A PUSH2 0x919 JUMP JUMPDEST PUSH1 0x40 MLOAD PUSH2 0x3A7 SWAP2 SWAP1 PUSH2 0x1DC0 JUMP JUMPDEST PUSH1 0x40 MLOAD DUP1 SWAP2 SUB SWAP1 RETURN JUMPDEST CALLVALUE DUP1 ISZERO PUSH2 0x3BC JUMPI PUSH1 0x0 DUP1 REVERT JUMPDEST POP PUSH2 0x3C5 PUSH2 0x9AB JUMP JUMPDEST PUSH1 0x40 MLOAD PUSH2 0x3D2 SWAP2 SWAP1 PUSH2 0x204A JUMP JUMPDEST PUSH1 0x40 MLOAD DUP1 SWAP2 SUB SWAP1 RETURN JUMPDEST CALLVALUE DUP1 ISZERO PUSH2 0x3E7 JUMPI PUSH1 0x0 DUP1 REVERT JUMPDEST POP PUSH2 0x402 PUSH1 0x4 DUP1 CALLDATASIZE SUB DUP2 ADD SWAP1 PUSH2 0x3FD SWAP2 SWAP1 PUSH2 0x1E7B JUMP JUMPDEST PUSH2 0x9B1 JUMP JUMPDEST PUSH1 0x40 MLOAD PUSH2 0x40F SWAP2 SWAP1 PUSH2 0x1ED6 JUMP JUMPDEST PUSH1 0x40 MLOAD DUP1 SWAP2 SUB SWAP1 RETURN JUMPDEST CALLVALUE DUP1 ISZERO PUSH2 0x424 JUMPI PUSH1 0x0 DUP1 REVERT JUMPDEST POP PUSH2 0x43F PUSH1 0x4 DUP1 CALLDATASIZE SUB DUP2 ADD SWAP1 PUSH2 0x43A SWAP2 SWAP1 PUSH2 0x1E7B JUMP JUMPDEST PUSH2 0xAA5 JUMP JUMPDEST PUSH1 0x40 MLOAD PUSH2 0x44C SWAP2 SWAP1 PUSH2 0x1ED6 JUMP JUMPDEST PUSH1 0x40 MLOAD DUP1 SWAP2 SUB SWAP1 RETURN JUMPDEST CALLVALUE DUP1 ISZERO PUSH2 0x461 JUMPI PUSH1 0x0 DUP1 REVERT JUMPDEST POP PUSH2 0x47C PUSH1 0x4 DUP1 CALLDATASIZE SUB DUP2 ADD SWAP1 PUSH2 0x477 SWAP2 SWAP1 PUSH2 0x2065 JUMP JUMPDEST PUSH2 0xAC3 JUMP JUMPDEST PUSH1 0x40 MLOAD PUSH2 0x489 SWAP2 SWAP1 PUSH2 0x1F00 JUMP JUMPDEST PUSH1 0x40 MLOAD DUP1 SWAP2 SUB SWAP1 RETURN JUMPDEST CALLVALUE DUP1 ISZERO PUSH2 0x49E JUMPI PUSH1 0x0 DUP1 REVERT JUMPDEST POP PUSH2 0x4B9 PUSH1 0x4 DUP1 CALLDATASIZE SUB DUP2 ADD SWAP1 PUSH2 0x4B4 SWAP2 SWAP1 PUSH2 0x200E JUMP JUMPDEST PUSH2 0xB4A JUMP JUMPDEST STOP JUMPDEST PUSH1 0x60 PUSH1 0x3 DUP1 SLOAD PUSH2 0x4CA SWAP1 PUSH2 0x20D4 JUMP JUMPDEST DUP1 PUSH1 0x1F ADD PUSH1 0x20 DUP1 SWAP2 DIV MUL PUSH1 0x20 ADD PUSH1 0x40 MLOAD SWAP1 DUP2 ADD PUSH1 0x40 MSTORE DUP1 SWAP3 SWAP2 SWAP1 DUP2 DUP2 MSTORE PUSH1 0x20 ADD DUP3 DUP1 SLOAD PUSH2 0x4F6 SWAP1 PUSH2 0x20D4 JUMP JUMPDEST DUP1 ISZERO PUSH2 0x543 JUMPI DUP1 PUSH1 0x1F LT PUSH2 0x518 JUMPI PUSH2 0x100 DUP1 DUP4 SLOAD DIV MUL DUP4 MSTORE SWAP2 PUSH1 0x20 ADD SWAP2 PUSH2 0x543 JUMP JUMPDEST DUP3 ADD SWAP2 SWAP1 PUSH1 0x0 MSTORE PUSH1 0x20 PUSH1 0x0 KECCAK256 SWAP1 JUMPDEST DUP2 SLOAD DUP2 MSTORE SWAP1 PUSH1 0x1 ADD SWAP1 PUSH1 0x20 ADD DUP1 DUP4 GT PUSH2 0x526 JUMPI DUP3 SWAP1 SUB PUSH1 0x1F AND DUP3 ADD SWAP2 JUMPDEST POP POP POP POP POP SWAP1 POP SWAP1 JUMP JUMPDEST PUSH1 0x0 PUSH2 0x561 PUSH2 0x55A PUSH2 0xCF5 JUMP JUMPDEST DUP5 DUP5 PUSH2 0xCFD JUMP JUMPDEST PUSH1 0x1 SWAP1 POP SWAP3 SWAP2 POP POP JUMP JUMPDEST PUSH1 0x0 PUSH1 0x2 SLOAD SWAP1 POP SWAP1 JUMP JUMPDEST PUSH1 0x0 PUSH2 0x582 DUP5 DUP5 DUP5 PUSH2 0xEC6 JUMP JUMPDEST PUSH1 0x0 PUSH1 0x1 PUSH1 0x0 DUP7 PUSH20 0xFFFFFFFFFFFFFFFFFFFFFFFFFFFFFFFFFFFFFFFF AND PUSH20 0xFFFFFFFFFFFFFFFFFFFFFFFFFFFFFFFFFFFFFFFF AND DUP2 MSTORE PUSH1 0x20 ADD SWAP1 DUP2 MSTORE PUSH1 0x20 ADD PUSH1 0x0 KECCAK256 PUSH1 0x0 PUSH2 0x5CD PUSH2 0xCF5 JUMP JUMPDEST PUSH20 0xFFFFFFFFFFFFFFFFFFFFFFFFFFFFFFFFFFFFFFFF AND PUSH20 0xFFFFFFFFFFFFFFFFFFFFFFFFFFFFFFFFFFFFFFFF AND DUP2 MSTORE PUSH1 0x20 ADD SWAP1 DUP2 MSTORE PUSH1 0x20 ADD PUSH1 0x0 KECCAK256 SLOAD SWAP1 POP DUP3 DUP2 LT ISZERO PUSH2 0x64D JUMPI PUSH1 0x40 MLOAD PUSH32 0x8C379A000000000000000000000000000000000000000000000000000000000 DUP2 MSTORE PUSH1 0x4 ADD PUSH2 0x644 SWAP1 PUSH2 0x2177 JUMP JUMPDEST PUSH1 0x40 MLOAD DUP1 SWAP2 SUB SWAP1 REVERT JUMPDEST PUSH2 0x66A DUP6 PUSH2 0x659 PUSH2 0xCF5 JUMP JUMPDEST DUP6 DUP5 PUSH2 0x665 SWAP2 SWAP1 PUSH2 0x21C6 JUMP JUMPDEST PUSH2 0xCFD JUMP JUMPDEST PUSH1 0x1 SWAP2 POP POP SWAP4 SWAP3 POP POP POP JUMP JUMPDEST PUSH1 0x0 PUSH1 0x12 SWAP1 POP SWAP1 JUMP JUMPDEST PUSH1 0x0 PUSH2 0x721 PUSH2 0x68C PUSH2 0xCF5 JUMP JUMPDEST DUP5 DUP5 PUSH1 0x1 PUSH1 0x0 PUSH2 0x69A PUSH2 0xCF5 JUMP JUMPDEST PUSH20 0xFFFFFFFFFFFFFFFFFFFFFFFFFFFFFFFFFFFFFFFF AND PUSH20 0xFFFFFFFFFFFFFFFFFFFFFFFFFFFFFFFFFFFFFFFF AND DUP2 MSTORE PUSH1 0x20 ADD SWAP1 DUP2 MSTORE PUSH1 0x20 ADD PUSH1 0x0 KECCAK256 PUSH1 0x0 DUP9 PUSH20 0xFFFFFFFFFFFFFFFFFFFFFFFFFFFFFFFFFFFFFFFF AND PUSH20 0xFFFFFFFFFFFFFFFFFFFFFFFFFFFFFFFFFFFFFFFF AND DUP2 MSTORE PUSH1 0x20 ADD SWAP1 DUP2 MSTORE PUSH1 0x20 ADD PUSH1 0x0 KECCAK256 SLOAD PUSH2 0x71C SWAP2 SWAP1 PUSH2 0x21FA JUMP JUMPDEST PUSH2 0xCFD JUMP JUMPDEST PUSH1 0x1 SWAP1 POP SWAP3 SWAP2 POP POP JUMP JUMPDEST PUSH2 0x735 CALLER DUP3 PUSH2 0x1143 JUMP JUMPDEST POP JUMP JUMPDEST PUSH1 0x8 PUSH1 0x0 SWAP1 SLOAD SWAP1 PUSH2 0x100 EXP SWAP1 DIV PUSH20 0xFFFFFFFFFFFFFFFFFFFFFFFFFFFFFFFFFFFFFFFF AND DUP2 JUMP JUMPDEST PUSH1 0x0 DUP1 PUSH1 0x0 DUP4 PUSH20 0xFFFFFFFFFFFFFFFFFFFFFFFFFFFFFFFFFFFFFFFF AND PUSH20 0xFFFFFFFFFFFFFFFFFFFFFFFFFFFFFFFFFFFFFFFF AND DUP2 MSTORE PUSH1 0x20 ADD SWAP1 DUP2 MSTORE PUSH1 0x20 ADD PUSH1 0x0 KECCAK256 SLOAD SWAP1 POP SWAP2 SWAP1 POP JUMP JUMPDEST PUSH2 0x7AE PUSH2 0xCF5 JUMP JUMPDEST PUSH20 0xFFFFFFFFFFFFFFFFFFFFFFFFFFFFFFFFFFFFFFFF AND PUSH2 0x7CC PUSH2 0x8EF JUMP JUMPDEST PUSH20 0xFFFFFFFFFFFFFFFFFFFFFFFFFFFFFFFFFFFFFFFF AND EQ PUSH2 0x822 JUMPI PUSH1 0x40 MLOAD PUSH32 0x8C379A000000000000000000000000000000000000000000000000000000000 DUP2 MSTORE PUSH1 0x4 ADD PUSH2 0x819 SWAP1 PUSH2 0x227A JUMP JUMPDEST PUSH1 0x40 MLOAD DUP1 SWAP2 SUB SWAP1 REVERT JUMPDEST PUSH1 0x0 PUSH20 0xFFFFFFFFFFFFFFFFFFFFFFFFFFFFFFFFFFFFFFFF AND PUSH1 0x5 PUSH1 0x0 SWAP1 SLOAD SWAP1 PUSH2 0x100 EXP SWAP1 DIV PUSH20 0xFFFFFFFFFFFFFFFFFFFFFFFFFFFFFFFFFFFFFFFF AND PUSH20 0xFFFFFFFFFFFFFFFFFFFFFFFFFFFFFFFFFFFFFFFF AND PUSH32 0x8BE0079C531659141344CD1FD0A4F28419497F9722A3DAAFE3B4186F6B6457E0 PUSH1 0x40 MLOAD PUSH1 0x40 MLOAD DUP1 SWAP2 SUB SWAP1 LOG3 PUSH1 0x0 PUSH1 0x5 PUSH1 0x0 PUSH2 0x100 EXP DUP2 SLOAD DUP2 PUSH20 0xFFFFFFFFFFFFFFFFFFFFFFFFFFFFFFFFFFFFFFFF MUL NOT AND SWAP1 DUP4 PUSH20 0xFFFFFFFFFFFFFFFFFFFFFFFFFFFFFFFFFFFFFFFF AND MUL OR SWAP1 SSTORE POP JUMP JUMPDEST PUSH1 0x6 SLOAD DUP2 JUMP JUMPDEST PUSH1 0x7 SLOAD DUP2 JUMP JUMPDEST PUSH1 0x0 PUSH1 0x5 PUSH1 0x0 SWAP1 SLOAD SWAP1 PUSH2 0x100 EXP SWAP1 DIV PUSH20 0xFFFFFFFFFFFFFFFFFFFFFFFFFFFFFFFFFFFFFFFF AND SWAP1 POP SWAP1 JUMP JUMPDEST PUSH1 0x60 PUSH1 0x4 DUP1 SLOAD PUSH2 0x928 SWAP1 PUSH2 0x20D4 JUMP JUMPDEST DUP1 PUSH1 0x1F ADD PUSH1 0x20 DUP1 SWAP2 DIV MUL PUSH1 0x20 ADD PUSH1 0x40 MLOAD SWAP1 DUP2 ADD PUSH1 0x40 MSTORE DUP1 SWAP3 SWAP2 SWAP1 DUP2 DUP2 MSTORE PUSH1 0x20 ADD DUP3 DUP1 SLOAD PUSH2 0x954 SWAP1 PUSH2 0x20D4 JUMP JUMPDEST DUP1 ISZERO PUSH2 0x9A1 JUMPI DUP1 PUSH1 0x1F LT PUSH2 0x976 JUMPI PUSH2 0x100 DUP1 DUP4 SLOAD DIV MUL DUP4 MSTORE SWAP2 PUSH1 0x20 ADD SWAP2 PUSH2 0x9A1 JUMP JUMPDEST DUP3 ADD SWAP2 SWAP1 PUSH1 0x0 MSTORE PUSH1 0x20 PUSH1 0x0 KECCAK256 SWAP1 JUMPDEST DUP2 SLOAD DUP2 MSTORE SWAP1 PUSH1 0x1 ADD SWAP1 PUSH1 0x20 ADD DUP1 DUP4 GT PUSH2 0x984 JUMPI DUP3 SWAP1 SUB PUSH1 0x1F AND DUP3 ADD SWAP2 JUMPDEST POP POP POP POP POP SWAP1 POP SWAP1 JUMP JUMPDEST PUSH2 0xDEAD DUP2 JUMP JUMPDEST PUSH1 0x0 DUP1 PUSH1 0x1 PUSH1 0x0 PUSH2 0x9C0 PUSH2 0xCF5 JUMP JUMPDEST PUSH20 0xFFFFFFFFFFFFFFFFFFFFFFFFFFFFFFFFFFFFFFFF AND PUSH20 0xFFFFFFFFFFFFFFFFFFFFFFFFFFFFFFFFFFFFFFFF AND DUP2 MSTORE PUSH1 0x20 ADD SWAP1 DUP2 MSTORE PUSH1 0x20 ADD PUSH1 0x0 KECCAK256 PUSH1 0x0 DUP6 PUSH20 0xFFFFFFFFFFFFFFFFFFFFFFFFFFFFFFFFFFFFFFFF AND PUSH20 0xFFFFFFFFFFFFFFFFFFFFFFFFFFFFFFFFFFFFFFFF AND DUP2 MSTORE PUSH1 0x20 ADD SWAP1 DUP2 MSTORE PUSH1 0x20 ADD PUSH1 0x0 KECCAK256 SLOAD SWAP1 POP DUP3 DUP2 LT ISZERO PUSH2 0xA7D JUMPI PUSH1 0x40 MLOAD PUSH32 0x8C379A000000000000000000000000000000000000000000000000000000000 DUP2 MSTORE PUSH1 0x4 ADD PUSH2 0xA74 SWAP1 PUSH2 0x230C JUMP JUMPDEST PUSH1 0x40 MLOAD DUP1 SWAP2 SUB SWAP1 REVERT JUMPDEST PUSH2 0xA9A PUSH2 0xA88 PUSH2 0xCF5 JUMP JUMPDEST DUP6 DUP6 DUP5 PUSH2 0xA95 SWAP2 SWAP1 PUSH2 0x21C6 JUMP JUMPDEST PUSH2 0xCFD JUMP JUMPDEST PUSH1 0x1 SWAP2 POP POP SWAP3 SWAP2 POP POP JUMP JUMPDEST PUSH1 0x0 PUSH2 0xAB9 PUSH2 0xAB2 PUSH2 0xCF5 JUMP JUMPDEST DUP5 DUP5 PUSH2 0xEC6 JUMP JUMPDEST PUSH1 0x1 SWAP1 POP SWAP3 SWAP2 POP POP JUMP JUMPDEST PUSH1 0x0 PUSH1 0x1 PUSH1 0x0 DUP5 PUSH20 0xFFFFFFFFFFFFFFFFFFFFFFFFFFFFFFFFFFFFFFFF AND PUSH20 0xFFFFFFFFFFFFFFFFFFFFFFFFFFFFFFFFFFFFFFFF AND DUP2 MSTORE PUSH1 0x20 ADD SWAP1 DUP2 MSTORE PUSH1 0x20 ADD PUSH1 0x0 KECCAK256 PUSH1 0x0 DUP4 PUSH20 0xFFFFFFFFFFFFFFFFFFFFFFFFFFFFFFFFFFFFFFFF AND PUSH20 0xFFFFFFFFFFFFFFFFFFFFFFFFFFFFFFFFFFFFFFFF AND DUP2 MSTORE PUSH1 0x20 ADD SWAP1 DUP2 MSTORE PUSH1 0x20 ADD PUSH1 0x0 KECCAK256 SLOAD SWAP1 POP SWAP3 SWAP2 POP POP JUMP JUMPDEST PUSH2 0xB52 PUSH2 0xCF5 JUMP JUMPDEST PUSH20 0xFFFFFFFFFFFFFFFFFFFFFFFFFFFFFFFFFFFFFFFF AND PUSH2 0xB70 PUSH2 0x8EF JUMP JUMPDEST PUSH20 0xFFFFFFFFFFFFFFFFFFFFFFFFFFFFFFFFFFFFFFFF AND EQ PUSH2 0xBC6 JUMPI PUSH1 0x40 MLOAD PUSH32 0x8C379A000000000000000000000000000000000000000000000000000000000 DUP2 MSTORE PUSH1 0x4 ADD PUSH2 0xBBD SWAP1 PUSH2 0x227A JUMP JUMPDEST PUSH1 0x40 MLOAD DUP1 SWAP2 SUB SWAP1 REVERT JUMPDEST PUSH1 0x0 PUSH20 0xFFFFFFFFFFFFFFFFFFFFFFFFFFFFFFFFFFFFFFFF AND DUP2 PUSH20 0xFFFFFFFFFFFFFFFFFFFFFFFFFFFFFFFFFFFFFFFF AND SUB PUSH2 0xC35 JUMPI PUSH1 0x40 MLOAD PUSH32 0x8C379A000000000000000000000000000000000000000000000000000000000 DUP2 MSTORE PUSH1 0x4 ADD PUSH2 0xC2C SWAP1 PUSH2 0x239E JUMP JUMPDEST PUSH1 0x40 MLOAD DUP1 SWAP2 SUB SWAP1 REVERT JUMPDEST DUP1 PUSH20 0xFFFFFFFFFFFFFFFFFFFFFFFFFFFFFFFFFFFFFFFF AND PUSH1 0x5 PUSH1 0x0 SWAP1 SLOAD SWAP1 PUSH2 0x100 EXP SWAP1 DIV PUSH20 0xFFFFFFFFFFFFFFFFFFFFFFFFFFFFFFFFFFFFFFFF AND PUSH20 0xFFFFFFFFFFFFFFFFFFFFFFFFFFFFFFFFFFFFFFFF AND PUSH32 0x8BE0079C531659141344CD1FD0A4F28419497F9722A3DAAFE3B4186F6B6457E0 PUSH1 0x40 MLOAD PUSH1 0x40 MLOAD DUP1 SWAP2 SUB SWAP1 LOG3 DUP1 PUSH1 0x5 PUSH1 0x0 PUSH2 0x100 EXP DUP2 SLOAD DUP2 PUSH20 0xFFFFFFFFFFFFFFFFFFFFFFFFFFFFFFFFFFFFFFFF MUL NOT AND SWAP1 DUP4 PUSH20 0xFFFFFFFFFFFFFFFFFFFFFFFFFFFFFFFFFFFFFFFF AND MUL OR SWAP1 SSTORE POP POP JUMP JUMPDEST PUSH1 0x0 CALLER SWAP1 POP SWAP1 JUMP JUMPDEST PUSH1 0x0 PUSH20 0xFFFFFFFFFFFFFFFFFFFFFFFFFFFFFFFFFFFFFFFF AND DUP4 PUSH20 0xFFFFFFFFFFFFFFFFFFFFFFFFFFFFFFFFFFFFFFFF AND SUB PUSH2 0xD6C JUMPI PUSH1 0x40 MLOAD PUSH32 0x8C379A000000000000000000000000000000000000000000000000000000000 DUP2 MSTORE PUSH1 0x4 ADD PUSH2 0xD63 SWAP1 PUSH2 0x2430 JUMP JUMPDEST PUSH1 0x40 MLOAD DUP1 SWAP2 SUB SWAP1 REVERT JUMPDEST PUSH1 0x0 PUSH20 0xFFFFFFFFFFFFFFFFFFFFFFFFFFFFFFFFFFFFFFFF AND DUP3 PUSH20 0xFFFFFFFFFFFFFFFFFFFFFFFFFFFFFFFFFFFFFFFF AND SUB PUSH2 0xDDB JUMPI PUSH1 0x40 MLOAD PUSH32 0x8C379A000000000000000000000000000000000000000000000000000000000 DUP2 MSTORE PUSH1 0x4 ADD PUSH2 0xDD2 SWAP1 PUSH2 0x24C2 JUMP JUMPDEST PUSH1 0x40 MLOAD DUP1 SWAP2 SUB SWAP1 REVERT JUMPDEST DUP1 PUSH1 0x1 PUSH1 0x0 DUP6 PUSH20 0xFFFFFFFFFFFFFFFFFFFFFFFFFFFFFFFFFFFFFFFF AND PUSH20 0xFFFFFFFFFFFFFFFFFFFFFFFFFFFFFFFFFFFFFFFF AND DUP2 MSTORE PUSH1 0x20 ADD SWAP1 DUP2 MSTORE PUSH1 0x20 ADD PUSH1 0x0 KECCAK256 PUSH1 0x0 DUP5 PUSH20 0xFFFFFFFFFFFFFFFFFFFFFFFFFFFFFFFFFFFFFFFF AND PUSH20 0xFFFFFFFFFFFFFFFFFFFFFFFFFFFFFFFFFFFFFFFF AND DUP2 MSTORE PUSH1 0x20 ADD SWAP1 DUP2 MSTORE PUSH1 0x20 ADD PUSH1 0x0 KECCAK256 DUP2 SWAP1 SSTORE POP DUP2 PUSH20 0xFFFFFFFFFFFFFFFFFFFFFFFFFFFFFFFFFFFFFFFF AND DUP4 PUSH20 0xFFFFFFFFFFFFFFFFFFFFFFFFFFFFFFFFFFFFFFFF AND PUSH32 0x8C5BE1E5EBEC7D5BD14F71427D1E84F3DD0314C0F7B2291E5B200AC8C7C3B925 DUP4 PUSH1 0x40 MLOAD PUSH2 0xEB9 SWAP2 SWAP1 PUSH2 0x1F00 JUMP JUMPDEST PUSH1 0x40 MLOAD DUP1 SWAP2 SUB SWAP1 LOG3 POP POP POP JUMP JUMPDEST PUSH1 0x0 PUSH20 0xFFFFFFFFFFFFFFFFFFFFFFFFFFFFFFFFFFFFFFFF AND DUP4 PUSH20 0xFFFFFFFFFFFFFFFFFFFFFFFFFFFFFFFFFFFFFFFF AND SUB PUSH2 0xF35 JUMPI PUSH1 0x40 MLOAD PUSH32 0x8C379A000000000000000000000000000000000000000000000000000000000 DUP2 MSTORE PUSH1 0x4 ADD PUSH2 0xF2C SWAP1 PUSH2 0x2554 JUMP JUMPDEST PUSH1 0x40 MLOAD DUP1 SWAP2 SUB SWAP1 REVERT JUMPDEST PUSH1 0x0 PUSH20 0xFFFFFFFFFFFFFFFFFFFFFFFFFFFFFFFFFFFFFFFF AND DUP3 PUSH20 0xFFFFFFFFFFFFFFFFFFFFFFFFFFFFFFFFFFFFFFFF AND SUB PUSH2 0xFA4 JUMPI PUSH1 0x40 MLOAD PUSH32 0x8C379A000000000000000000000000000000000000000000000000000000000 DUP2 MSTORE PUSH1 0x4 ADD PUSH2 0xF9B SWAP1 PUSH2 0x25E6 JUMP JUMPDEST PUSH1 0x40 MLOAD DUP1 SWAP2 SUB SWAP1 REVERT JUMPDEST PUSH2 0xFAF DUP4 DUP4 DUP4 PUSH2 0x1316 JUMP JUMPDEST PUSH1 0x0 DUP1 PUSH1 0x0 DUP6 PUSH20 0xFFFFFFFFFFFFFFFFFFFFFFFFFFFFFFFFFFFFFFFF AND PUSH20 0xFFFFFFFFFFFFFFFFFFFFFFFFFFFFFFFFFFFFFFFF AND DUP2 MSTORE PUSH1 0x20 ADD SWAP1 DUP2 MSTORE PUSH1 0x20 ADD PUSH1 0x0 KECCAK256 SLOAD SWAP1 POP DUP2 DUP2 LT ISZERO PUSH2 0x1035 JUMPI PUSH1 0x40 MLOAD PUSH32 0x8C379A000000000000000000000000000000000000000000000000000000000 DUP2 MSTORE PUSH1 0x4 ADD PUSH2 0x102C SWAP1 PUSH2 0x2678 JUMP JUMPDEST PUSH1 0x40 MLOAD DUP1 SWAP2 SUB SWAP1 REVERT JUMPDEST DUP2 DUP2 PUSH2 0x1041 SWAP2 SWAP1 PUSH2 0x21C6 JUMP JUMPDEST PUSH1 0x0 DUP1 DUP7 PUSH20 0xFFFFFFFFFFFFFFFFFFFFFFFFFFFFFFFFFFFFFFFF AND PUSH20 0xFFFFFFFFFFFFFFFFFFFFFFFFFFFFFFFFFFFFFFFF AND DUP2 MSTORE PUSH1 0x20 ADD SWAP1 DUP2 MSTORE PUSH1 0x20 ADD PUSH1 0x0 KECCAK256 DUP2 SWAP1 SSTORE POP DUP2 PUSH1 0x0 DUP1 DUP6 PUSH20 0xFFFFFFFFFFFFFFFFFFFFFFFFFFFFFFFFFFFFFFFF AND PUSH20 0xFFFFFFFFFFFFFFFFFFFFFFFFFFFFFFFFFFFFFFFF AND DUP2 MSTORE PUSH1 0x20 ADD SWAP1 DUP2 MSTORE PUSH1 0x20 ADD PUSH1 0x0 KECCAK256 PUSH1 0x0 DUP3 DUP3 SLOAD PUSH2 0x10D1 SWAP2 SWAP1 PUSH2 0x21FA JUMP JUMPDEST SWAP3 POP POP DUP2 SWAP1 SSTORE POP DUP3 PUSH20 0xFFFFFFFFFFFFFFFFFFFFFFFFFFFFFFFFFFFFFFFF AND DUP5 PUSH20 0xFFFFFFFFFFFFFFFFFFFFFFFFFFFFFFFFFFFFFFFF AND PUSH32 0xDDF252AD1BE2C89B69C2B068FC378DAA952BA7F163C4A11628F55A4DF523B3EF DUP5 PUSH1 0x40 MLOAD PUSH2 0x1135 SWAP2 SWAP1 PUSH2 0x1F00 JUMP JUMPDEST PUSH1 0x40 MLOAD DUP1 SWAP2 SUB SWAP1 LOG3 POP POP POP POP JUMP JUMPDEST PUSH1 0x0 PUSH20 0xFFFFFFFFFFFFFFFFFFFFFFFFFFFFFFFFFFFFFFFF AND DUP3 PUSH20 0xFFFFFFFFFFFFFFFFFFFFFFFFFFFFFFFFFFFFFFFF AND SUB PUSH2 0x11B2 JUMPI PUSH1 0x40 MLOAD PUSH32 0x8C379A000000000000000000000000000000000000000000000000000000000 DUP2 MSTORE PUSH1 0x4 ADD PUSH2 0x11A9 SWAP1 PUSH2 0x270A JUMP JUMPDEST PUSH1 0x40 MLOAD DUP1 SWAP2 SUB SWAP1 REVERT JUMPDEST PUSH2 0x11BE DUP3 PUSH1 0x0 DUP4 PUSH2 0x1316 JUMP JUMPDEST PUSH1 0x0 DUP1 PUSH1 0x0 DUP5 PUSH20 0xFFFFFFFFFFFFFFFFFFFFFFFFFFFFFFFFFFFFFFFF AND PUSH20 0xFFFFFFFFFFFFFFFFFFFFFFFFFFFFFFFFFFFFFFFF AND DUP2 MSTORE PUSH1 0x20 ADD SWAP1 DUP2 MSTORE PUSH1 0x20 ADD PUSH1 0x0 KECCAK256 SLOAD SWAP1 POP DUP2 DUP2 LT ISZERO PUSH2 0x1244 JUMPI PUSH1 0x40 MLOAD PUSH32 0x8C379A000000000000000000000000000000000000000000000000000000000 DUP2 MSTORE PUSH1 0x4 ADD PUSH2 0x123B SWAP1 PUSH2 0x279C JUMP JUMPDEST PUSH1 0x40 MLOAD DUP1 SWAP2 SUB SWAP1 REVERT JUMPDEST DUP2 DUP2 PUSH2 0x1250 SWAP2 SWAP1 PUSH2 0x21C6 JUMP JUMPDEST PUSH1 0x0 DUP1 DUP6 PUSH20 0xFFFFFFFFFFFFFFFFFFFFFFFFFFFFFFFFFFFFFFFF AND PUSH20 0xFFFFFFFFFFFFFFFFFFFFFFFFFFFFFFFFFFFFFFFF AND DUP2 MSTORE PUSH1 0x20 ADD SWAP1 DUP2 MSTORE PUSH1 0x20 ADD PUSH1 0x0 KECCAK256 DUP2 SWAP1 SSTORE POP DUP2 PUSH1 0x2 PUSH1 0x0 DUP3 DUP3 SLOAD PUSH2 0x12A4 SWAP2 SWAP1 PUSH2 0x21C6 JUMP JUMPDEST SWAP3 POP POP DUP2 SWAP1 SSTORE POP PUSH1 0x0 PUSH20 0xFFFFFFFFFFFFFFFFFFFFFFFFFFFFFFFFFFFFFFFF AND DUP4 PUSH20 0xFFFFFFFFFFFFFFFFFFFFFFFFFFFFFFFFFFFFFFFF AND PUSH32 0xDDF252AD1BE2C89B69C2B068FC378DAA952BA7F163C4A11628F55A4DF523B3EF DUP5 PUSH1 0x40 MLOAD PUSH2 0x1309 SWAP2 SWAP1 PUSH2 0x1F00 JUMP JUMPDEST PUSH1 0x40 MLOAD DUP1 SWAP2 SUB SWAP1 LOG3 POP POP POP JUMP JUMPDEST PUSH1 0x0 PUSH2 0x1320 PUSH2 0x8EF JUMP JUMPDEST PUSH20 0xFFFFFFFFFFFFFFFFFFFFFFFFFFFFFFFFFFFFFFFF AND DUP5 PUSH20 0xFFFFFFFFFFFFFFFFFFFFFFFFFFFFFFFFFFFFFFFF AND EQ ISZERO DUP1 ISZERO PUSH2 0x138E JUMPI POP PUSH2 0x135E PUSH2 0x8EF JUMP JUMPDEST PUSH20 0xFFFFFFFFFFFFFFFFFFFFFFFFFFFFFFFFFFFFFFFF AND DUP4 PUSH20 0xFFFFFFFFFFFFFFFFFFFFFFFFFFFFFFFFFFFFFFFF AND EQ ISZERO JUMPDEST DUP1 ISZERO PUSH2 0x13E8 JUMPI POP PUSH1 0x9 PUSH1 0x0 SWAP1 SLOAD SWAP1 PUSH2 0x100 EXP SWAP1 DIV PUSH20 0xFFFFFFFFFFFFFFFFFFFFFFFFFFFFFFFFFFFFFFFF AND PUSH20 0xFFFFFFFFFFFFFFFFFFFFFFFFFFFFFFFFFFFFFFFF AND DUP4 PUSH20 0xFFFFFFFFFFFFFFFFFFFFFFFFFFFFFFFFFFFFFFFF AND EQ ISZERO JUMPDEST DUP1 ISZERO PUSH2 0x1442 JUMPI POP PUSH1 0x9 PUSH1 0x0 SWAP1 SLOAD SWAP1 PUSH2 0x100 EXP SWAP1 DIV PUSH20 0xFFFFFFFFFFFFFFFFFFFFFFFFFFFFFFFFFFFFFFFF AND PUSH20 0xFFFFFFFFFFFFFFFFFFFFFFFFFFFFFFFFFFFFFFFF AND DUP5 PUSH20 0xFFFFFFFFFFFFFFFFFFFFFFFFFFFFFFFFFFFFFFFF AND EQ ISZERO JUMPDEST DUP1 ISZERO PUSH2 0x149C JUMPI POP PUSH1 0x8 PUSH1 0x0 SWAP1 SLOAD SWAP1 PUSH2 0x100 EXP SWAP1 DIV PUSH20 0xFFFFFFFFFFFFFFFFFFFFFFFFFFFFFFFFFFFFFFFF AND PUSH20 0xFFFFFFFFFFFFFFFFFFFFFFFFFFFFFFFFFFFFFFFF AND DUP4 PUSH20 0xFFFFFFFFFFFFFFFFFFFFFFFFFFFFFFFFFFFFFFFF AND EQ ISZERO JUMPDEST DUP1 ISZERO PUSH2 0x14F6 JUMPI POP PUSH1 0x8 PUSH1 0x0 SWAP1 SLOAD SWAP1 PUSH2 0x100 EXP SWAP1 DIV PUSH20 0xFFFFFFFFFFFFFFFFFFFFFFFFFFFFFFFFFFFFFFFF AND PUSH20 0xFFFFFFFFFFFFFFFFFFFFFFFFFFFFFFFFFFFFFFFF AND DUP5 PUSH20 0xFFFFFFFFFFFFFFFFFFFFFFFFFFFFFFFFFFFFFFFF AND EQ ISZERO JUMPDEST DUP1 ISZERO PUSH2 0x1530 JUMPI POP PUSH2 0xDEAD PUSH20 0xFFFFFFFFFFFFFFFFFFFFFFFFFFFFFFFFFFFFFFFF AND DUP4 PUSH20 0xFFFFFFFFFFFFFFFFFFFFFFFFFFFFFFFFFFFFFFFF AND EQ ISZERO JUMPDEST DUP1 ISZERO PUSH2 0x158A JUMPI POP PUSH1 0xA PUSH1 0x0 SWAP1 SLOAD SWAP1 PUSH2 0x100 EXP SWAP1 DIV PUSH20 0xFFFFFFFFFFFFFFFFFFFFFFFFFFFFFFFFFFFFFFFF AND PUSH20 0xFFFFFFFFFFFFFFFFFFFFFFFFFFFFFFFFFFFFFFFF AND DUP4 PUSH20 0xFFFFFFFFFFFFFFFFFFFFFFFFFFFFFFFFFFFFFFFF AND EQ ISZERO JUMPDEST DUP1 ISZERO PUSH2 0x15E4 JUMPI POP PUSH1 0xA PUSH1 0x0 SWAP1 SLOAD SWAP1 PUSH2 0x100 EXP SWAP1 DIV PUSH20 0xFFFFFFFFFFFFFFFFFFFFFFFFFFFFFFFFFFFFFFFF AND PUSH20 0xFFFFFFFFFFFFFFFFFFFFFFFFFFFFFFFFFFFFFFFF AND DUP5 PUSH20 0xFFFFFFFFFFFFFFFFFFFFFFFFFFFFFFFFFFFFFFFF AND EQ ISZERO JUMPDEST ISZERO PUSH2 0x1642 JUMPI PUSH1 0x6 SLOAD DUP3 PUSH2 0x15F6 DUP6 PUSH2 0x75E JUMP JUMPDEST PUSH2 0x1600 SWAP2 SWAP1 PUSH2 0x21FA JUMP JUMPDEST GT ISZERO PUSH2 0x1641 JUMPI PUSH1 0x40 MLOAD PUSH32 0x8C379A000000000000000000000000000000000000000000000000000000000 DUP2 MSTORE PUSH1 0x4 ADD PUSH2 0x1638 SWAP1 PUSH2 0x2808 JUMP JUMPDEST PUSH1 0x40 MLOAD DUP1 SWAP2 SUB SWAP1 REVERT JUMPDEST JUMPDEST PUSH1 0xA PUSH1 0x0 SWAP1 SLOAD SWAP1 PUSH2 0x100 EXP SWAP1 DIV PUSH20 0xFFFFFFFFFFFFFFFFFFFFFFFFFFFFFFFFFFFFFFFF AND PUSH20 0xFFFFFFFFFFFFFFFFFFFFFFFFFFFFFFFFFFFFFFFF AND DUP4 PUSH20 0xFFFFFFFFFFFFFFFFFFFFFFFFFFFFFFFFFFFFFFFF AND EQ DUP1 ISZERO PUSH2 0x16EC JUMPI POP PUSH1 0x9 PUSH1 0x0 SWAP1 SLOAD SWAP1 PUSH2 0x100 EXP SWAP1 DIV PUSH20 0xFFFFFFFFFFFFFFFFFFFFFFFFFFFFFFFFFFFFFFFF AND PUSH20 0xFFFFFFFFFFFFFFFFFFFFFFFFFFFFFFFFFFFFFFFF AND DUP4 PUSH20 0xFFFFFFFFFFFFFFFFFFFFFFFFFFFFFFFFFFFFFFFF AND EQ JUMPDEST DUP1 ISZERO PUSH2 0x1724 JUMPI POP ADDRESS PUSH20 0xFFFFFFFFFFFFFFFFFFFFFFFFFFFFFFFFFFFFFFFF AND DUP5 PUSH20 0xFFFFFFFFFFFFFFFFFFFFFFFFFFFFFFFFFFFFFFFF AND EQ ISZERO JUMPDEST DUP1 ISZERO PUSH2 0x1763 JUMPI POP PUSH2 0x1733 PUSH2 0x8EF JUMP JUMPDEST PUSH20 0xFFFFFFFFFFFFFFFFFFFFFFFFFFFFFFFFFFFFFFFF AND DUP5 PUSH20 0xFFFFFFFFFFFFFFFFFFFFFFFFFFFFFFFFFFFFFFFF AND EQ ISZERO JUMPDEST DUP1 ISZERO PUSH2 0x17BD JUMPI POP PUSH1 0x8 PUSH1 0x0 SWAP1 SLOAD SWAP1 PUSH2 0x100 EXP SWAP1 DIV PUSH20 0xFFFFFFFFFFFFFFFFFFFFFFFFFFFFFFFFFFFFFFFF AND PUSH20 0xFFFFFFFFFFFFFFFFFFFFFFFFFFFFFFFFFFFFFFFF AND DUP5 PUSH20 0xFFFFFFFFFFFFFFFFFFFFFFFFFFFFFFFFFFFFFFFF AND EQ ISZERO JUMPDEST ISZERO PUSH2 0x17DE JUMPI PUSH1 0x64 PUSH1 0x1 DUP4 PUSH2 0x17D1 SWAP2 SWAP1 PUSH2 0x2828 JUMP JUMPDEST PUSH2 0x17DB SWAP2 SWAP1 PUSH2 0x2899 JUMP JUMPDEST SWAP1 POP JUMPDEST PUSH1 0xA PUSH1 0x0 SWAP1 SLOAD SWAP1 PUSH2 0x100 EXP SWAP1 DIV PUSH20 0xFFFFFFFFFFFFFFFFFFFFFFFFFFFFFFFFFFFFFFFF AND PUSH20 0xFFFFFFFFFFFFFFFFFFFFFFFFFFFFFFFFFFFFFFFF AND DUP5 PUSH20 0xFFFFFFFFFFFFFFFFFFFFFFFFFFFFFFFFFFFFFFFF AND EQ DUP1 ISZERO PUSH2 0x1888 JUMPI POP PUSH1 0x9 PUSH1 0x0 SWAP1 SLOAD SWAP1 PUSH2 0x100 EXP SWAP1 DIV PUSH20 0xFFFFFFFFFFFFFFFFFFFFFFFFFFFFFFFFFFFFFFFF AND PUSH20 0xFFFFFFFFFFFFFFFFFFFFFFFFFFFFFFFFFFFFFFFF AND DUP5 PUSH20 0xFFFFFFFFFFFFFFFFFFFFFFFFFFFFFFFFFFFFFFFF AND EQ JUMPDEST DUP1 ISZERO PUSH2 0x18C0 JUMPI POP ADDRESS PUSH20 0xFFFFFFFFFFFFFFFFFFFFFFFFFFFFFFFFFFFFFFFF AND DUP4 PUSH20 0xFFFFFFFFFFFFFFFFFFFFFFFFFFFFFFFFFFFFFFFF AND EQ ISZERO JUMPDEST DUP1 ISZERO PUSH2 0x18FF JUMPI POP PUSH2 0x18CF PUSH2 0x8EF JUMP JUMPDEST PUSH20 0xFFFFFFFFFFFFFFFFFFFFFFFFFFFFFFFFFFFFFFFF AND DUP4 PUSH20 0xFFFFFFFFFFFFFFFFFFFFFFFFFFFFFFFFFFFFFFFF AND EQ ISZERO JUMPDEST DUP1 ISZERO PUSH2 0x1959 JUMPI POP PUSH1 0x8 PUSH1 0x0 SWAP1 SLOAD SWAP1 PUSH2 0x100 EXP SWAP1 DIV PUSH20 0xFFFFFFFFFFFFFFFFFFFFFFFFFFFFFFFFFFFFFFFF AND PUSH20 0xFFFFFFFFFFFFFFFFFFFFFFFFFFFFFFFFFFFFFFFF AND DUP4 PUSH20 0xFFFFFFFFFFFFFFFFFFFFFFFFFFFFFFFFFFFFFFFF AND EQ ISZERO JUMPDEST ISZERO PUSH2 0x197A JUMPI PUSH1 0x64 PUSH1 0x1 DUP4 PUSH2 0x196D SWAP2 SWAP1 PUSH2 0x2828 JUMP JUMPDEST PUSH2 0x1977 SWAP2 SWAP1 PUSH2 0x2899 JUMP JUMPDEST SWAP1 POP JUMPDEST PUSH1 0x0 PUSH1 0x7 SLOAD GT DUP1 ISZERO PUSH2 0x19BF JUMPI POP PUSH2 0x198F PUSH2 0x8EF JUMP JUMPDEST PUSH20 0xFFFFFFFFFFFFFFFFFFFFFFFFFFFFFFFFFFFFFFFF AND DUP5 PUSH20 0xFFFFFFFFFFFFFFFFFFFFFFFFFFFFFFFFFFFFFFFF AND EQ ISZERO JUMPDEST DUP1 ISZERO PUSH2 0x19FE JUMPI POP PUSH2 0x19CE PUSH2 0x8EF JUMP JUMPDEST PUSH20 0xFFFFFFFFFFFFFFFFFFFFFFFFFFFFFFFFFFFFFFFF AND DUP4 PUSH20 0xFFFFFFFFFFFFFFFFFFFFFFFFFFFFFFFFFFFFFFFF AND EQ ISZERO JUMPDEST DUP1 ISZERO PUSH2 0x1A58 JUMPI POP PUSH1 0x9 PUSH1 0x0 SWAP1 SLOAD SWAP1 PUSH2 0x100 EXP SWAP1 DIV PUSH20 0xFFFFFFFFFFFFFFFFFFFFFFFFFFFFFFFFFFFFFFFF AND PUSH20 0xFFFFFFFFFFFFFFFFFFFFFFFFFFFFFFFFFFFFFFFF AND DUP4 PUSH20 0xFFFFFFFFFFFFFFFFFFFFFFFFFFFFFFFFFFFFFFFF AND EQ ISZERO JUMPDEST DUP1 ISZERO PUSH2 0x1AB2 JUMPI POP PUSH1 0x9 PUSH1 0x0 SWAP1 SLOAD SWAP1 PUSH2 0x100 EXP SWAP1 DIV PUSH20 0xFFFFFFFFFFFFFFFFFFFFFFFFFFFFFFFFFFFFFFFF AND PUSH20 0xFFFFFFFFFFFFFFFFFFFFFFFFFFFFFFFFFFFFFFFF AND DUP5 PUSH20 0xFFFFFFFFFFFFFFFFFFFFFFFFFFFFFFFFFFFFFFFF AND EQ ISZERO JUMPDEST DUP1 ISZERO PUSH2 0x1B0C JUMPI POP PUSH1 0x8 PUSH1 0x0 SWAP1 SLOAD SWAP1 PUSH2 0x100 EXP SWAP1 DIV PUSH20 0xFFFFFFFFFFFFFFFFFFFFFFFFFFFFFFFFFFFFFFFF AND PUSH20 0xFFFFFFFFFFFFFFFFFFFFFFFFFFFFFFFFFFFFFFFF AND DUP4 PUSH20 0xFFFFFFFFFFFFFFFFFFFFFFFFFFFFFFFFFFFFFFFF AND EQ ISZERO JUMPDEST DUP1 ISZERO PUSH2 0x1B66 JUMPI POP PUSH1 0x8 PUSH1 0x0 SWAP1 SLOAD SWAP1 PUSH2 0x100 EXP SWAP1 DIV PUSH20 0xFFFFFFFFFFFFFFFFFFFFFFFFFFFFFFFFFFFFFFFF AND PUSH20 0xFFFFFFFFFFFFFFFFFFFFFFFFFFFFFFFFFFFFFFFF AND DUP5 PUSH20 0xFFFFFFFFFFFFFFFFFFFFFFFFFFFFFFFFFFFFFFFF AND EQ ISZERO JUMPDEST DUP1 ISZERO PUSH2 0x1BA0 JUMPI POP PUSH2 0xDEAD PUSH20 0xFFFFFFFFFFFFFFFFFFFFFFFFFFFFFFFFFFFFFFFF AND DUP4 PUSH20 0xFFFFFFFFFFFFFFFFFFFFFFFFFFFFFFFFFFFFFFFF AND EQ ISZERO JUMPDEST DUP1 ISZERO PUSH2 0x1BFA JUMPI POP PUSH1 0xA PUSH1 0x0 SWAP1 SLOAD SWAP1 PUSH2 0x100 EXP SWAP1 DIV PUSH20 0xFFFFFFFFFFFFFFFFFFFFFFFFFFFFFFFFFFFFFFFF AND PUSH20 0xFFFFFFFFFFFFFFFFFFFFFFFFFFFFFFFFFFFFFFFF AND DUP4 PUSH20 0xFFFFFFFFFFFFFFFFFFFFFFFFFFFFFFFFFFFFFFFF AND EQ ISZERO JUMPDEST DUP1 ISZERO PUSH2 0x1C54 JUMPI POP PUSH1 0xA PUSH1 0x0 SWAP1 SLOAD SWAP1 PUSH2 0x100 EXP SWAP1 DIV PUSH20 0xFFFFFFFFFFFFFFFFFFFFFFFFFFFFFFFFFFFFFFFF AND PUSH20 0xFFFFFFFFFFFFFFFFFFFFFFFFFFFFFFFFFFFFFFFF AND DUP5 PUSH20 0xFFFFFFFFFFFFFFFFFFFFFFFFFFFFFFFFFFFFFFFF AND EQ ISZERO JUMPDEST ISZERO PUSH2 0x1C9F JUMPI PUSH1 0x7 SLOAD DUP3 GT ISZERO PUSH2 0x1C9E JUMPI PUSH1 0x40 MLOAD PUSH32 0x8C379A000000000000000000000000000000000000000000000000000000000 DUP2 MSTORE PUSH1 0x4 ADD PUSH2 0x1C95 SWAP1 PUSH2 0x2916 JUMP JUMPDEST PUSH1 0x40 MLOAD DUP1 SWAP2 SUB SWAP1 REVERT JUMPDEST JUMPDEST PUSH1 0x0 SELFBALANCE SWAP1 POP PUSH7 0xB1A2BC2EC50000 DUP2 GT ISZERO PUSH2 0x1CBD JUMPI PUSH2 0x1CBC SELFBALANCE PUSH2 0x1CC4 JUMP JUMPDEST JUMPDEST POP POP POP POP POP JUMP JUMPDEST PUSH1 0x8 PUSH1 0x0 SWAP1 SLOAD SWAP1 PUSH2 0x100 EXP SWAP1 DIV PUSH20 0xFFFFFFFFFFFFFFFFFFFFFFFFFFFFFFFFFFFFFFFF AND PUSH20 0xFFFFFFFFFFFFFFFFFFFFFFFFFFFFFFFFFFFFFFFF AND PUSH2 0x8FC DUP3 SWAP1 DUP2 ISZERO MUL SWAP1 PUSH1 0x40 MLOAD PUSH1 0x0 PUSH1 0x40 MLOAD DUP1 DUP4 SUB DUP2 DUP6 DUP9 DUP9 CALL SWAP4 POP POP POP POP ISZERO DUP1 ISZERO PUSH2 0x1D2C JUMPI RETURNDATASIZE PUSH1 0x0 DUP1 RETURNDATACOPY RETURNDATASIZE PUSH1 0x0 REVERT JUMPDEST POP POP JUMP JUMPDEST PUSH1 0x0 DUP2 MLOAD SWAP1 POP SWAP2 SWAP1 POP JUMP JUMPDEST PUSH1 0x0 DUP3 DUP3 MSTORE PUSH1 0x20 DUP3 ADD SWAP1 POP SWAP3 SWAP2 POP POP JUMP JUMPDEST PUSH1 0x0 JUMPDEST DUP4 DUP2 LT ISZERO PUSH2 0x1D6A JUMPI DUP1 DUP3 ADD MLOAD DUP2 DUP5 ADD MSTORE PUSH1 0x20 DUP2 ADD SWAP1 POP PUSH2 0x1D4F JUMP JUMPDEST PUSH1 0x0 DUP5 DUP5 ADD MSTORE POP POP POP POP JUMP JUMPDEST PUSH1 0x0 PUSH1 0x1F NOT PUSH1 0x1F DUP4 ADD AND SWAP1 POP SWAP2 SWAP1 POP JUMP JUMPDEST PUSH1 0x0 PUSH2 0x1D92 DUP3 PUSH2 0x1D30 JUMP JUMPDEST PUSH2 0x1D9C DUP2 DUP6 PUSH2 0x1D3B JUMP JUMPDEST SWAP4 POP PUSH2 0x1DAC DUP2 DUP6 PUSH1 0x20 DUP7 ADD PUSH2 0x1D4C JUMP JUMPDEST PUSH2 0x1DB5 DUP2 PUSH2 0x1D76 JUMP JUMPDEST DUP5 ADD SWAP2 POP POP SWAP3 SWAP2 POP POP JUMP JUMPDEST PUSH1 0x0 PUSH1 0x20 DUP3 ADD SWAP1 POP DUP2 DUP2 SUB PUSH1 0x0 DUP4 ADD MSTORE PUSH2 0x1DDA DUP2 DUP5 PUSH2 0x1D87 JUMP JUMPDEST SWAP1 POP SWAP3 SWAP2 POP POP JUMP JUMPDEST PUSH1 0x0 DUP1 REVERT JUMPDEST PUSH1 0x0 PUSH20 0xFFFFFFFFFFFFFFFFFFFFFFFFFFFFFFFFFFFFFFFF DUP3 AND SWAP1 POP SWAP2 SWAP1 POP JUMP JUMPDEST PUSH1 0x0 PUSH2 0x1E12 DUP3 PUSH2 0x1DE7 JUMP JUMPDEST SWAP1 POP SWAP2 SWAP1 POP JUMP JUMPDEST PUSH2 0x1E22 DUP2 PUSH2 0x1E07 JUMP JUMPDEST DUP2 EQ PUSH2 0x1E2D JUMPI PUSH1 0x0 DUP1 REVERT JUMPDEST POP JUMP JUMPDEST PUSH1 0x0 DUP2 CALLDATALOAD SWAP1 POP PUSH2 0x1E3F DUP2 PUSH2 0x1E19 JUMP JUMPDEST SWAP3 SWAP2 POP POP JUMP JUMPDEST PUSH1 0x0 DUP2 SWAP1 POP SWAP2 SWAP1 POP JUMP JUMPDEST PUSH2 0x1E58 DUP2 PUSH2 0x1E45 JUMP JUMPDEST DUP2 EQ PUSH2 0x1E63 JUMPI PUSH1 0x0 DUP1 REVERT JUMPDEST POP JUMP JUMPDEST PUSH1 0x0 DUP2 CALLDATALOAD SWAP1 POP PUSH2 0x1E75 DUP2 PUSH2 0x1E4F JUMP JUMPDEST SWAP3 SWAP2 POP POP JUMP JUMPDEST PUSH1 0x0 DUP1 PUSH1 0x40 DUP4 DUP6 SUB SLT ISZERO PUSH2 0x1E92 JUMPI PUSH2 0x1E91 PUSH2 0x1DE2 JUMP JUMPDEST JUMPDEST PUSH1 0x0 PUSH2 0x1EA0 DUP6 DUP3 DUP7 ADD PUSH2 0x1E30 JUMP JUMPDEST SWAP3 POP POP PUSH1 0x20 PUSH2 0x1EB1 DUP6 DUP3 DUP7 ADD PUSH2 0x1E66 JUMP JUMPDEST SWAP2 POP POP SWAP3 POP SWAP3 SWAP1 POP JUMP JUMPDEST PUSH1 0x0 DUP2 ISZERO ISZERO SWAP1 POP SWAP2 SWAP1 POP JUMP JUMPDEST PUSH2 0x1ED0 DUP2 PUSH2 0x1EBB JUMP JUMPDEST DUP3 MSTORE POP POP JUMP JUMPDEST PUSH1 0x0 PUSH1 0x20 DUP3 ADD SWAP1 POP PUSH2 0x1EEB PUSH1 0x0 DUP4 ADD DUP5 PUSH2 0x1EC7 JUMP JUMPDEST SWAP3 SWAP2 POP POP JUMP JUMPDEST PUSH2 0x1EFA DUP2 PUSH2 0x1E45 JUMP JUMPDEST DUP3 MSTORE POP POP JUMP JUMPDEST PUSH1 0x0 PUSH1 0x20 DUP3 ADD SWAP1 POP PUSH2 0x1F15 PUSH1 0x0 DUP4 ADD DUP5 PUSH2 0x1EF1 JUMP JUMPDEST SWAP3 SWAP2 POP POP JUMP JUMPDEST PUSH1 0x0 DUP1 PUSH1 0x0 PUSH1 0x60 DUP5 DUP7 SUB SLT ISZERO PUSH2 0x1F34 JUMPI PUSH2 0x1F33 PUSH2 0x1DE2 JUMP JUMPDEST JUMPDEST PUSH1 0x0 PUSH2 0x1F42 DUP7 DUP3 DUP8 ADD PUSH2 0x1E30 JUMP JUMPDEST SWAP4 POP POP PUSH1 0x20 PUSH2 0x1F53 DUP7 DUP3 DUP8 ADD PUSH2 0x1E30 JUMP JUMPDEST SWAP3 POP POP PUSH1 0x40 PUSH2 0x1F64 DUP7 DUP3 DUP8 ADD PUSH2 0x1E66 JUMP JUMPDEST SWAP2 POP POP SWAP3 POP SWAP3 POP SWAP3 JUMP JUMPDEST PUSH1 0x0 PUSH1 0xFF DUP3 AND SWAP1 POP SWAP2 SWAP1 POP JUMP JUMPDEST PUSH2 0x1F84 DUP2 PUSH2 0x1F6E JUMP JUMPDEST DUP3 MSTORE POP POP JUMP JUMPDEST PUSH1 0x0 PUSH1 0x20 DUP3 ADD SWAP1 POP PUSH2 0x1F9F PUSH1 0x0 DUP4 ADD DUP5 PUSH2 0x1F7B JUMP JUMPDEST SWAP3 SWAP2 POP POP JUMP JUMPDEST PUSH1 0x0 PUSH1 0x20 DUP3 DUP5 SUB SLT ISZERO PUSH2 0x1FBB JUMPI PUSH2 0x1FBA PUSH2 0x1DE2 JUMP JUMPDEST JUMPDEST PUSH1 0x0 PUSH2 0x1FC9 DUP5 DUP3 DUP6 ADD PUSH2 0x1E66 JUMP JUMPDEST SWAP2 POP POP SWAP3 SWAP2 POP POP JUMP JUMPDEST PUSH1 0x0 PUSH2 0x1FDD DUP3 PUSH2 0x1DE7 JUMP JUMPDEST SWAP1 POP SWAP2 SWAP1 POP JUMP JUMPDEST PUSH2 0x1FED DUP2 PUSH2 0x1FD2 JUMP JUMPDEST DUP3 MSTORE POP POP JUMP JUMPDEST PUSH1 0x0 PUSH1 0x20 DUP3 ADD SWAP1 POP PUSH2 0x2008 PUSH1 0x0 DUP4 ADD DUP5 PUSH2 0x1FE4 JUMP JUMPDEST SWAP3 SWAP2 POP POP JUMP JUMPDEST PUSH1 0x0 PUSH1 0x20 DUP3 DUP5 SUB SLT ISZERO PUSH2 0x2024 JUMPI PUSH2 0x2023 PUSH2 0x1DE2 JUMP JUMPDEST JUMPDEST PUSH1 0x0 PUSH2 0x2032 DUP5 DUP3 DUP6 ADD PUSH2 0x1E30 JUMP JUMPDEST SWAP2 POP POP SWAP3 SWAP2 POP POP JUMP JUMPDEST PUSH2 0x2044 DUP2 PUSH2 0x1E07 JUMP JUMPDEST DUP3 MSTORE POP POP JUMP JUMPDEST PUSH1 0x0 PUSH1 0x20 DUP3 ADD SWAP1 POP PUSH2 0x205F PUSH1 0x0 DUP4 ADD DUP5 PUSH2 0x203B JUMP JUMPDEST SWAP3 SWAP2 POP POP JUMP JUMPDEST PUSH1 0x0 DUP1 PUSH1 0x40 DUP4 DUP6 SUB SLT ISZERO PUSH2 0x207C JUMPI PUSH2 0x207B PUSH2 0x1DE2 JUMP JUMPDEST JUMPDEST PUSH1 0x0 PUSH2 0x208A DUP6 DUP3 DUP7 ADD PUSH2 0x1E30 JUMP JUMPDEST SWAP3 POP POP PUSH1 0x20 PUSH2 0x209B DUP6 DUP3 DUP7 ADD PUSH2 0x1E30 JUMP JUMPDEST SWAP2 POP POP SWAP3 POP SWAP3 SWAP1 POP JUMP JUMPDEST PUSH32 0x4E487B7100000000000000000000000000000000000000000000000000000000 PUSH1 0x0 MSTORE PUSH1 0x22 PUSH1 0x4 MSTORE PUSH1 0x24 PUSH1 0x0 REVERT JUMPDEST PUSH1 0x0 PUSH1 0x2 DUP3 DIV SWAP1 POP PUSH1 0x1 DUP3 AND DUP1 PUSH2 0x20EC JUMPI PUSH1 0x7F DUP3 AND SWAP2 POP JUMPDEST PUSH1 0x20 DUP3 LT DUP2 SUB PUSH2 0x20FF JUMPI PUSH2 0x20FE PUSH2 0x20A5 JUMP JUMPDEST JUMPDEST POP SWAP2 SWAP1 POP JUMP JUMPDEST PUSH32 0x45524332303A207472616E7366657220616D6F756E7420657863656564732061 PUSH1 0x0 DUP3 ADD MSTORE PUSH32 0x6C6C6F77616E6365000000000000000000000000000000000000000000000000 PUSH1 0x20 DUP3 ADD MSTORE POP JUMP JUMPDEST PUSH1 0x0 PUSH2 0x2161 PUSH1 0x28 DUP4 PUSH2 0x1D3B JUMP JUMPDEST SWAP2 POP PUSH2 0x216C DUP3 PUSH2 0x2105 JUMP JUMPDEST PUSH1 0x40 DUP3 ADD SWAP1 POP SWAP2 SWAP1 POP JUMP JUMPDEST PUSH1 0x0 PUSH1 0x20 DUP3 ADD SWAP1 POP DUP2 DUP2 SUB PUSH1 0x0 DUP4 ADD MSTORE PUSH2 0x2190 DUP2 PUSH2 0x2154 JUMP JUMPDEST SWAP1 POP SWAP2 SWAP1 POP JUMP JUMPDEST PUSH32 0x4E487B7100000000000000000000000000000000000000000000000000000000 PUSH1 0x0 MSTORE PUSH1 0x11 PUSH1 0x4 MSTORE PUSH1 0x24 PUSH1 0x0 REVERT JUMPDEST PUSH1 0x0 PUSH2 0x21D1 DUP3 PUSH2 0x1E45 JUMP JUMPDEST SWAP2 POP PUSH2 0x21DC DUP4 PUSH2 0x1E45 JUMP JUMPDEST SWAP3 POP DUP3 DUP3 SUB SWAP1 POP DUP2 DUP2 GT ISZERO PUSH2 0x21F4 JUMPI PUSH2 0x21F3 PUSH2 0x2197 JUMP JUMPDEST JUMPDEST SWAP3 SWAP2 POP POP JUMP JUMPDEST PUSH1 0x0 PUSH2 0x2205 DUP3 PUSH2 0x1E45 JUMP JUMPDEST SWAP2 POP PUSH2 0x2210 DUP4 PUSH2 0x1E45 JUMP JUMPDEST SWAP3 POP DUP3 DUP3 ADD SWAP1 POP DUP1 DUP3 GT ISZERO PUSH2 0x2228 JUMPI PUSH2 0x2227 PUSH2 0x2197 JUMP JUMPDEST JUMPDEST SWAP3 SWAP2 POP POP JUMP JUMPDEST PUSH32 0x4F776E61626C653A2063616C6C6572206973206E6F7420746865206F776E6572 PUSH1 0x0 DUP3 ADD MSTORE POP JUMP JUMPDEST PUSH1 0x0 PUSH2 0x2264 PUSH1 0x20 DUP4 PUSH2 0x1D3B JUMP JUMPDEST SWAP2 POP PUSH2 0x226F DUP3 PUSH2 0x222E JUMP JUMPDEST PUSH1 0x20 DUP3 ADD SWAP1 POP SWAP2 SWAP1 POP JUMP JUMPDEST PUSH1 0x0 PUSH1 0x20 DUP3 ADD SWAP1 POP DUP2 DUP2 SUB PUSH1 0x0 DUP4 ADD MSTORE PUSH2 0x2293 DUP2 PUSH2 0x2257 JUMP JUMPDEST SWAP1 POP SWAP2 SWAP1 POP JUMP JUMPDEST PUSH32 0x45524332303A2064656372656173656420616C6C6F77616E63652062656C6F77 PUSH1 0x0 DUP3 ADD MSTORE PUSH32 0x207A65726F000000000000000000000000000000000000000000000000000000 PUSH1 0x20 DUP3 ADD MSTORE POP JUMP JUMPDEST PUSH1 0x0 PUSH2 0x22F6 PUSH1 0x25 DUP4 PUSH2 0x1D3B JUMP JUMPDEST SWAP2 POP PUSH2 0x2301 DUP3 PUSH2 0x229A JUMP JUMPDEST PUSH1 0x40 DUP3 ADD SWAP1 POP SWAP2 SWAP1 POP JUMP JUMPDEST PUSH1 0x0 PUSH1 0x20 DUP3 ADD SWAP1 POP DUP2 DUP2 SUB PUSH1 0x0 DUP4 ADD MSTORE PUSH2 0x2325 DUP2 PUSH2 0x22E9 JUMP JUMPDEST SWAP1 POP SWAP2 SWAP1 POP JUMP JUMPDEST PUSH32 0x4F776E61626C653A206E6577206F776E657220697320746865207A65726F2061 PUSH1 0x0 DUP3 ADD MSTORE PUSH32 0x6464726573730000000000000000000000000000000000000000000000000000 PUSH1 0x20 DUP3 ADD MSTORE POP JUMP JUMPDEST PUSH1 0x0 PUSH2 0x2388 PUSH1 0x26 DUP4 PUSH2 0x1D3B JUMP JUMPDEST SWAP2 POP PUSH2 0x2393 DUP3 PUSH2 0x232C JUMP JUMPDEST PUSH1 0x40 DUP3 ADD SWAP1 POP SWAP2 SWAP1 POP JUMP JUMPDEST PUSH1 0x0 PUSH1 0x20 DUP3 ADD SWAP1 POP DUP2 DUP2 SUB PUSH1 0x0 DUP4 ADD MSTORE PUSH2 0x23B7 DUP2 PUSH2 0x237B JUMP JUMPDEST SWAP1 POP SWAP2 SWAP1 POP JUMP JUMPDEST PUSH32 0x45524332303A20617070726F76652066726F6D20746865207A65726F20616464 PUSH1 0x0 DUP3 ADD MSTORE PUSH32 0x7265737300000000000000000000000000000000000000000000000000000000 PUSH1 0x20 DUP3 ADD MSTORE POP JUMP JUMPDEST PUSH1 0x0 PUSH2 0x241A PUSH1 0x24 DUP4 PUSH2 0x1D3B JUMP JUMPDEST SWAP2 POP PUSH2 0x2425 DUP3 PUSH2 0x23BE JUMP JUMPDEST PUSH1 0x40 DUP3 ADD SWAP1 POP SWAP2 SWAP1 POP JUMP JUMPDEST PUSH1 0x0 PUSH1 0x20 DUP3 ADD SWAP1 POP DUP2 DUP2 SUB PUSH1 0x0 DUP4 ADD MSTORE PUSH2 0x2449 DUP2 PUSH2 0x240D JUMP JUMPDEST SWAP1 POP SWAP2 SWAP1 POP JUMP JUMPDEST PUSH32 0x45524332303A20617070726F766520746F20746865207A65726F206164647265 PUSH1 0x0 DUP3 ADD MSTORE PUSH32 0x7373000000000000000000000000000000000000000000000000000000000000 PUSH1 0x20 DUP3 ADD MSTORE POP JUMP JUMPDEST PUSH1 0x0 PUSH2 0x24AC PUSH1 0x22 DUP4 PUSH2 0x1D3B JUMP JUMPDEST SWAP2 POP PUSH2 0x24B7 DUP3 PUSH2 0x2450 JUMP JUMPDEST PUSH1 0x40 DUP3 ADD SWAP1 POP SWAP2 SWAP1 POP JUMP JUMPDEST PUSH1 0x0 PUSH1 0x20 DUP3 ADD SWAP1 POP DUP2 DUP2 SUB PUSH1 0x0 DUP4 ADD MSTORE PUSH2 0x24DB DUP2 PUSH2 0x249F JUMP JUMPDEST SWAP1 POP SWAP2 SWAP1 POP JUMP JUMPDEST PUSH32 0x45524332303A207472616E736665722066726F6D20746865207A65726F206164 PUSH1 0x0 DUP3 ADD MSTORE PUSH32 0x6472657373000000000000000000000000000000000000000000000000000000 PUSH1 0x20 DUP3 ADD MSTORE POP JUMP JUMPDEST PUSH1 0x0 PUSH2 0x253E PUSH1 0x25 DUP4 PUSH2 0x1D3B JUMP JUMPDEST SWAP2 POP PUSH2 0x2549 DUP3 PUSH2 0x24E2 JUMP JUMPDEST PUSH1 0x40 DUP3 ADD SWAP1 POP SWAP2 SWAP1 POP JUMP JUMPDEST PUSH1 0x0 PUSH1 0x20 DUP3 ADD SWAP1 POP DUP2 DUP2 SUB PUSH1 0x0 DUP4 ADD MSTORE PUSH2 0x256D DUP2 PUSH2 0x2531 JUMP JUMPDEST SWAP1 POP SWAP2 SWAP1 POP JUMP JUMPDEST PUSH32 0x45524332303A207472616E7366657220746F20746865207A65726F2061646472 PUSH1 0x0 DUP3 ADD MSTORE PUSH32 0x6573730000000000000000000000000000000000000000000000000000000000 PUSH1 0x20 DUP3 ADD MSTORE POP JUMP JUMPDEST PUSH1 0x0 PUSH2 0x25D0 PUSH1 0x23 DUP4 PUSH2 0x1D3B JUMP JUMPDEST SWAP2 POP PUSH2 0x25DB DUP3 PUSH2 0x2574 JUMP JUMPDEST PUSH1 0x40 DUP3 ADD SWAP1 POP SWAP2 SWAP1 POP JUMP JUMPDEST PUSH1 0x0 PUSH1 0x20 DUP3 ADD SWAP1 POP DUP2 DUP2 SUB PUSH1 0x0 DUP4 ADD MSTORE PUSH2 0x25FF DUP2 PUSH2 0x25C3 JUMP JUMPDEST SWAP1 POP SWAP2 SWAP1 POP JUMP JUMPDEST PUSH32 0x45524332303A207472616E7366657220616D6F756E7420657863656564732062 PUSH1 0x0 DUP3 ADD MSTORE PUSH32 0x616C616E63650000000000000000000000000000000000000000000000000000 PUSH1 0x20 DUP3 ADD MSTORE POP JUMP JUMPDEST PUSH1 0x0 PUSH2 0x2662 PUSH1 0x26 DUP4 PUSH2 0x1D3B JUMP JUMPDEST SWAP2 POP PUSH2 0x266D DUP3 PUSH2 0x2606 JUMP JUMPDEST PUSH1 0x40 DUP3 ADD SWAP1 POP SWAP2 SWAP1 POP JUMP JUMPDEST PUSH1 0x0 PUSH1 0x20 DUP3 ADD SWAP1 POP DUP2 DUP2 SUB PUSH1 0x0 DUP4 ADD MSTORE PUSH2 0x2691 DUP2 PUSH2 0x2655 JUMP JUMPDEST SWAP1 POP SWAP2 SWAP1 POP JUMP JUMPDEST PUSH32 0x45524332303A206275726E2066726F6D20746865207A65726F20616464726573 PUSH1 0x0 DUP3 ADD MSTORE PUSH32 0x7300000000000000000000000000000000000000000000000000000000000000 PUSH1 0x20 DUP3 ADD MSTORE POP JUMP JUMPDEST PUSH1 0x0 PUSH2 0x26F4 PUSH1 0x21 DUP4 PUSH2 0x1D3B JUMP JUMPDEST SWAP2 POP PUSH2 0x26FF DUP3 PUSH2 0x2698 JUMP JUMPDEST PUSH1 0x40 DUP3 ADD SWAP1 POP SWAP2 SWAP1 POP JUMP JUMPDEST PUSH1 0x0 PUSH1 0x20 DUP3 ADD SWAP1 POP DUP2 DUP2 SUB PUSH1 0x0 DUP4 ADD MSTORE PUSH2 0x2723 DUP2 PUSH2 0x26E7 JUMP JUMPDEST SWAP1 POP SWAP2 SWAP1 POP JUMP JUMPDEST PUSH32 0x45524332303A206275726E20616D6F756E7420657863656564732062616C616E PUSH1 0x0 DUP3 ADD MSTORE PUSH32 0x6365000000000000000000000000000000000000000000000000000000000000 PUSH1 0x20 DUP3 ADD MSTORE POP JUMP JUMPDEST PUSH1 0x0 PUSH2 0x2786 PUSH1 0x22 DUP4 PUSH2 0x1D3B JUMP JUMPDEST SWAP2 POP PUSH2 0x2791 DUP3 PUSH2 0x272A JUMP JUMPDEST PUSH1 0x40 DUP3 ADD SWAP1 POP SWAP2 SWAP1 POP JUMP JUMPDEST PUSH1 0x0 PUSH1 0x20 DUP3 ADD SWAP1 POP DUP2 DUP2 SUB PUSH1 0x0 DUP4 ADD MSTORE PUSH2 0x27B5 DUP2 PUSH2 0x2779 JUMP JUMPDEST SWAP1 POP SWAP2 SWAP1 POP JUMP JUMPDEST PUSH32 0x4D61782077616C6C65742063616E6E6F74206265206578636565646564000000 PUSH1 0x0 DUP3 ADD MSTORE POP JUMP JUMPDEST PUSH1 0x0 PUSH2 0x27F2 PUSH1 0x1D DUP4 PUSH2 0x1D3B JUMP JUMPDEST SWAP2 POP PUSH2 0x27FD DUP3 PUSH2 0x27BC JUMP JUMPDEST PUSH1 0x20 DUP3 ADD SWAP1 POP SWAP2 SWAP1 POP JUMP JUMPDEST PUSH1 0x0 PUSH1 0x20 DUP3 ADD SWAP1 POP DUP2 DUP2 SUB PUSH1 0x0 DUP4 ADD MSTORE PUSH2 0x2821 DUP2 PUSH2 0x27E5 JUMP JUMPDEST SWAP1 POP SWAP2 SWAP1 POP JUMP JUMPDEST PUSH1 0x0 PUSH2 0x2833 DUP3 PUSH2 0x1E45 JUMP JUMPDEST SWAP2 POP PUSH2 0x283E DUP4 PUSH2 0x1E45 JUMP JUMPDEST SWAP3 POP DUP3 DUP3 MUL PUSH2 0x284C DUP2 PUSH2 0x1E45 JUMP JUMPDEST SWAP2 POP DUP3 DUP3 DIV DUP5 EQ DUP4 ISZERO OR PUSH2 0x2863 JUMPI PUSH2 0x2862 PUSH2 0x2197 JUMP JUMPDEST JUMPDEST POP SWAP3 SWAP2 POP POP JUMP JUMPDEST PUSH32 0x4E487B7100000000000000000000000000000000000000000000000000000000 PUSH1 0x0 MSTORE PUSH1 0x12 PUSH1 0x4 MSTORE PUSH1 0x24 PUSH1 0x0 REVERT JUMPDEST PUSH1 0x0 PUSH2 0x28A4 DUP3 PUSH2 0x1E45 JUMP JUMPDEST SWAP2 POP PUSH2 0x28AF DUP4 PUSH2 0x1E45 JUMP JUMPDEST SWAP3 POP DUP3 PUSH2 0x28BF JUMPI PUSH2 0x28BE PUSH2 0x286A JUMP JUMPDEST JUMPDEST DUP3 DUP3 DIV SWAP1 POP SWAP3 SWAP2 POP POP JUMP JUMPDEST PUSH32 0x45786365656473206D6178207472616E73616374696F6E20616D6F756E740000 PUSH1 0x0 DUP3 ADD MSTORE POP JUMP JUMPDEST PUSH1 0x0 PUSH2 0x2900 PUSH1 0x1E DUP4 PUSH2 0x1D3B JUMP JUMPDEST SWAP2 POP PUSH2 0x290B DUP3 PUSH2 0x28CA JUMP JUMPDEST PUSH1 0x20 DUP3 ADD SWAP1 POP SWAP2 SWAP1 POP JUMP JUMPDEST PUSH1 0x0 PUSH1 0x20 DUP3 ADD SWAP1 POP DUP2 DUP2 SUB PUSH1 0x0 DUP4 ADD MSTORE PUSH2 0x292F DUP2 PUSH2 0x28F3 JUMP JUMPDEST SWAP1 POP SWAP2 SWAP1 POP JUMP INVALID LOG2 PUSH5 0x6970667358 0x22 SLT KECCAK256 TIMESTAMP PUSH16 0x1E93B0B6613D6CDBFE85E8A90EDC4B34 0xED 0x23 CALLDATACOPY 0xAB PUSH17 0xDD6B3F08946A0950AB64736F6C63430008 SGT STOP CALLER "
				},
				"gasEstimates": {
					"creation": {
						"codeDepositCost": "2120800",
						"executionCost": "infinite",
						"totalCost": "infinite"
					},
					"external": {
						"DEAD_WALLET()": "400",
						"_taxWallet()": "2603",
						"allowance(address,address)": "infinite",
						"approve(address,uint256)": "infinite",
						"balanceOf(address)": "2952",
						"burn(uint256)": "infinite",
						"decimals()": "366",
						"decreaseAllowance(address,uint256)": "infinite",
						"increaseAllowance(address,uint256)": "infinite",
						"maxHoldingAmount()": "2474",
						"maxTxAmount()": "2496",
						"name()": "infinite",
						"owner()": "2611",
						"renounceOwnership()": "30355",
						"symbol()": "infinite",
						"totalSupply()": "2505",
						"transfer(address,uint256)": "infinite",
						"transferFrom(address,address,uint256)": "infinite",
						"transferOwnership(address)": "30788"
					},
					"internal": {
						"_beforeTokenTransfer(address,address,uint256)": "infinite",
						"sendETHToFee(uint256)": "infinite"
					}
				},
				"methodIdentifiers": {
					"DEAD_WALLET()": "a01c3483",
					"_taxWallet()": "6f268a99",
					"allowance(address,address)": "dd62ed3e",
					"approve(address,uint256)": "095ea7b3",
					"balanceOf(address)": "70a08231",
					"burn(uint256)": "42966c68",
					"decimals()": "313ce567",
					"decreaseAllowance(address,uint256)": "a457c2d7",
					"increaseAllowance(address,uint256)": "39509351",
					"maxHoldingAmount()": "89f9a1d3",
					"maxTxAmount()": "8c0b5e22",
					"name()": "06fdde03",
					"owner()": "8da5cb5b",
					"renounceOwnership()": "715018a6",
					"symbol()": "95d89b41",
					"totalSupply()": "18160ddd",
					"transfer(address,uint256)": "a9059cbb",
					"transferFrom(address,address,uint256)": "23b872dd",
					"transferOwnership(address)": "f2fde38b"
				}
			},
			"storageLayout": {
				"storage": [
					{
						"astId": 233,
						"contract": "contracts/shia.sol:SHIA",
						"label": "_balances",
						"offset": 0,
						"slot": "0",
						"type": "t_mapping(t_address,t_uint256)"
					},
					{
						"astId": 239,
						"contract": "contracts/shia.sol:SHIA",
						"label": "_allowances",
						"offset": 0,
						"slot": "1",
						"type": "t_mapping(t_address,t_mapping(t_address,t_uint256))"
					},
					{
						"astId": 241,
						"contract": "contracts/shia.sol:SHIA",
						"label": "_totalSupply",
						"offset": 0,
						"slot": "2",
						"type": "t_uint256"
					},
					{
						"astId": 243,
						"contract": "contracts/shia.sol:SHIA",
						"label": "_name",
						"offset": 0,
						"slot": "3",
						"type": "t_string_storage"
					},
					{
						"astId": 245,
						"contract": "contracts/shia.sol:SHIA",
						"label": "_symbol",
						"offset": 0,
						"slot": "4",
						"type": "t_string_storage"
					},
					{
						"astId": 27,
						"contract": "contracts/shia.sol:SHIA",
						"label": "_owner",
						"offset": 0,
						"slot": "5",
						"type": "t_address"
					},
					{
						"astId": 719,
						"contract": "contracts/shia.sol:SHIA",
						"label": "maxHoldingAmount",
						"offset": 0,
						"slot": "6",
						"type": "t_uint256"
					},
					{
						"astId": 721,
						"contract": "contracts/shia.sol:SHIA",
						"label": "maxTxAmount",
						"offset": 0,
						"slot": "7",
						"type": "t_uint256"
					},
					{
						"astId": 723,
						"contract": "contracts/shia.sol:SHIA",
						"label": "_taxWallet",
						"offset": 0,
						"slot": "8",
						"type": "t_address_payable"
					},
					{
						"astId": 732,
						"contract": "contracts/shia.sol:SHIA",
						"label": "uniswapV2Router",
						"offset": 0,
						"slot": "9",
						"type": "t_address"
					},
					{
						"astId": 734,
						"contract": "contracts/shia.sol:SHIA",
						"label": "uniswapV2Pair",
						"offset": 0,
						"slot": "10",
						"type": "t_address"
					},
					{
						"astId": 737,
						"contract": "contracts/shia.sol:SHIA",
						"label": "inSwap",
						"offset": 20,
						"slot": "10",
						"type": "t_bool"
					}
				],
				"types": {
					"t_address": {
						"encoding": "inplace",
						"label": "address",
						"numberOfBytes": "20"
					},
					"t_address_payable": {
						"encoding": "inplace",
						"label": "address payable",
						"numberOfBytes": "20"
					},
					"t_bool": {
						"encoding": "inplace",
						"label": "bool",
						"numberOfBytes": "1"
					},
					"t_mapping(t_address,t_mapping(t_address,t_uint256))": {
						"encoding": "mapping",
						"key": "t_address",
						"label": "mapping(address => mapping(address => uint256))",
						"numberOfBytes": "32",
						"value": "t_mapping(t_address,t_uint256)"
					},
					"t_mapping(t_address,t_uint256)": {
						"encoding": "mapping",
						"key": "t_address",
						"label": "mapping(address => uint256)",
						"numberOfBytes": "32",
						"value": "t_uint256"
					},
					"t_string_storage": {
						"encoding": "bytes",
						"label": "string",
						"numberOfBytes": "32"
					},
					"t_uint256": {
						"encoding": "inplace",
						"label": "uint256",
						"numberOfBytes": "32"
					}
				}
			},
			"userdoc": {
				"kind": "user",
				"methods": {},
				"version": 1
			}
		}
	}
}