{
	"contracts/stellaris.sol": {
		"AnonConnect": {
			"abi": [
				{
					"inputs": [],
					"stateMutability": "nonpayable",
					"type": "constructor"
				},
				{
					"anonymous": false,
					"inputs": [
						{
							"indexed": true,
							"internalType": "address",
							"name": "owner",
							"type": "address"
						},
						{
							"indexed": true,
							"internalType": "address",
							"name": "spender",
							"type": "address"
						},
						{
							"indexed": false,
							"internalType": "uint256",
							"name": "value",
							"type": "uint256"
						}
					],
					"name": "Approval",
					"type": "event"
				},
				{
					"anonymous": false,
					"inputs": [
						{
							"indexed": false,
							"internalType": "uint256",
							"name": "_maxTxAmount",
							"type": "uint256"
						}
					],
					"name": "MaxTxAmountUpdated",
					"type": "event"
				},
				{
					"anonymous": false,
					"inputs": [
						{
							"indexed": true,
							"internalType": "address",
							"name": "previousOwner",
							"type": "address"
						},
						{
							"indexed": true,
							"internalType": "address",
							"name": "newOwner",
							"type": "address"
						}
					],
					"name": "OwnershipTransferred",
					"type": "event"
				},
				{
					"anonymous": false,
					"inputs": [
						{
							"indexed": true,
							"internalType": "address",
							"name": "from",
							"type": "address"
						},
						{
							"indexed": true,
							"internalType": "address",
							"name": "to",
							"type": "address"
						},
						{
							"indexed": false,
							"internalType": "uint256",
							"name": "value",
							"type": "uint256"
						}
					],
					"name": "Transfer",
					"type": "event"
				},
				{
					"inputs": [],
					"name": "DEAD_WALLET",
					"outputs": [
						{
							"internalType": "address",
							"name": "",
							"type": "address"
						}
					],
					"stateMutability": "view",
					"type": "function"
				},
				{
					"inputs": [],
					"name": "_maxTaxSwap",
					"outputs": [
						{
							"internalType": "uint256",
							"name": "",
							"type": "uint256"
						}
					],
					"stateMutability": "view",
					"type": "function"
				},
				{
					"inputs": [],
					"name": "_maxTxAmount",
					"outputs": [
						{
							"internalType": "uint256",
							"name": "",
							"type": "uint256"
						}
					],
					"stateMutability": "view",
					"type": "function"
				},
				{
					"inputs": [],
					"name": "_maxWalletSize",
					"outputs": [
						{
							"internalType": "uint256",
							"name": "",
							"type": "uint256"
						}
					],
					"stateMutability": "view",
					"type": "function"
				},
				{
					"inputs": [],
					"name": "_taxSwapThreshold",
					"outputs": [
						{
							"internalType": "uint256",
							"name": "",
							"type": "uint256"
						}
					],
					"stateMutability": "view",
					"type": "function"
				},
				{
					"inputs": [
						{
							"internalType": "address",
							"name": "owner",
							"type": "address"
						},
						{
							"internalType": "address",
							"name": "spender",
							"type": "address"
						}
					],
					"name": "allowance",
					"outputs": [
						{
							"internalType": "uint256",
							"name": "",
							"type": "uint256"
						}
					],
					"stateMutability": "view",
					"type": "function"
				},
				{
					"inputs": [
						{
							"internalType": "address",
							"name": "spender",
							"type": "address"
						},
						{
							"internalType": "uint256",
							"name": "amount",
							"type": "uint256"
						}
					],
					"name": "approve",
					"outputs": [
						{
							"internalType": "bool",
							"name": "",
							"type": "bool"
						}
					],
					"stateMutability": "nonpayable",
					"type": "function"
				},
				{
					"inputs": [
						{
							"internalType": "address",
							"name": "account",
							"type": "address"
						}
					],
					"name": "balanceOf",
					"outputs": [
						{
							"internalType": "uint256",
							"name": "",
							"type": "uint256"
						}
					],
					"stateMutability": "view",
					"type": "function"
				},
				{
					"inputs": [],
					"name": "decimals",
					"outputs": [
						{
							"internalType": "uint8",
							"name": "",
							"type": "uint8"
						}
					],
					"stateMutability": "pure",
					"type": "function"
				},
				{
					"inputs": [],
					"name": "manualSwap",
					"outputs": [],
					"stateMutability": "nonpayable",
					"type": "function"
				},
				{
					"inputs": [],
					"name": "name",
					"outputs": [
						{
							"internalType": "string",
							"name": "",
							"type": "string"
						}
					],
					"stateMutability": "pure",
					"type": "function"
				},
				{
					"inputs": [],
					"name": "openTrading",
					"outputs": [],
					"stateMutability": "nonpayable",
					"type": "function"
				},
				{
					"inputs": [],
					"name": "owner",
					"outputs": [
						{
							"internalType": "address",
							"name": "",
							"type": "address"
						}
					],
					"stateMutability": "view",
					"type": "function"
				},
				{
					"inputs": [],
					"name": "removelimits",
					"outputs": [],
					"stateMutability": "nonpayable",
					"type": "function"
				},
				{
					"inputs": [],
					"name": "renounceOwnership",
					"outputs": [],
					"stateMutability": "nonpayable",
					"type": "function"
				},
				{
					"inputs": [
						{
							"internalType": "address payable",
							"name": "newWallet",
							"type": "address"
						}
					],
					"name": "setFeeAddressWallets",
					"outputs": [],
					"stateMutability": "nonpayable",
					"type": "function"
				},
				{
					"inputs": [
						{
							"internalType": "uint256",
							"name": "newTxAmt",
							"type": "uint256"
						}
					],
					"name": "setMaxTXlimit",
					"outputs": [],
					"stateMutability": "nonpayable",
					"type": "function"
				},
				{
					"inputs": [],
					"name": "symbol",
					"outputs": [
						{
							"internalType": "string",
							"name": "",
							"type": "string"
						}
					],
					"stateMutability": "pure",
					"type": "function"
				},
				{
					"inputs": [],
					"name": "totalSupply",
					"outputs": [
						{
							"internalType": "uint256",
							"name": "",
							"type": "uint256"
						}
					],
					"stateMutability": "pure",
					"type": "function"
				},
				{
					"inputs": [
						{
							"internalType": "address",
							"name": "recipient",
							"type": "address"
						},
						{
							"internalType": "uint256",
							"name": "amount",
							"type": "uint256"
						}
					],
					"name": "transfer",
					"outputs": [
						{
							"internalType": "bool",
							"name": "",
							"type": "bool"
						}
					],
					"stateMutability": "nonpayable",
					"type": "function"
				},
				{
					"inputs": [
						{
							"internalType": "address",
							"name": "sender",
							"type": "address"
						},
						{
							"internalType": "address",
							"name": "recipient",
							"type": "address"
						},
						{
							"internalType": "uint256",
							"name": "amount",
							"type": "uint256"
						}
					],
					"name": "transferFrom",
					"outputs": [
						{
							"internalType": "bool",
							"name": "",
							"type": "bool"
						}
					],
					"stateMutability": "nonpayable",
					"type": "function"
				},
				{
					"inputs": [
						{
							"internalType": "uint256",
							"name": "newSellTax",
							"type": "uint256"
						}
					],
					"name": "updateFeeSell",
					"outputs": [],
					"stateMutability": "nonpayable",
					"type": "function"
				},
				{
					"inputs": [
						{
							"internalType": "uint256",
							"name": "newBuyTax",
							"type": "uint256"
						}
					],
					"name": "update_BuyFee",
					"outputs": [],
					"stateMutability": "nonpayable",
					"type": "function"
				},
				{
					"stateMutability": "payable",
					"type": "receive"
				}
			],
			"devdoc": {
				"kind": "dev",
				"methods": {},
				"version": 1
			},
			"evm": {
				"assembly": "    /* \"contracts/stellaris.sol\":4039:11302  contract AnonConnect is Context, IERC20, Ownable {... */\n  mstore(0x40, 0x80)\n    /* \"contracts/stellaris.sol\":4446:4472  int64 private tetori = 259 */\n  0x04\n  dup1\n  sload\n  not(sub(shl(0xe0, 0x01), shl(0xa0, 0x01)))\n  and\n  shl(0xa0, 0x0103)\n  or\n  swap1\n  sstore\n    /* \"contracts/stellaris.sol\":4507:4508  2 */\n  0x02\n    /* \"contracts/stellaris.sol\":4481:4508  uint256 private _buytax = 2 */\n  0x05\n  dup2\n  swap1\n  sstore\n    /* \"contracts/stellaris.sol\":4515:4543  uint256 private _selltax = 2 */\n  0x06\n  sstore\n    /* \"contracts/stellaris.sol\":4644:4657  10**_decimals */\n  tag_1\n    /* \"contracts/stellaris.sol\":4587:4589  18 */\n  0x12\n    /* \"contracts/stellaris.sol\":4644:4646  10 */\n  0x0a\n    /* \"contracts/stellaris.sol\":4644:4657  10**_decimals */\n  tag_2\n  jump\t// in\ntag_1:\n    /* \"contracts/stellaris.sol\":4631:4657  1000000000 * 10**_decimals */\n  tag_3\n  swap1\n    /* \"contracts/stellaris.sol\":4631:4641  1000000000 */\n  0x3b9aca00\n    /* \"contracts/stellaris.sol\":4631:4657  1000000000 * 10**_decimals */\n  tag_4\n  jump\t// in\ntag_3:\n    /* \"contracts/stellaris.sol\":4778:4815  uint256 public _maxTxAmount = _tTotal */\n  0x07\n  sstore\n    /* \"contracts/stellaris.sol\":4644:4657  10**_decimals */\n  tag_5\n    /* \"contracts/stellaris.sol\":4587:4589  18 */\n  0x12\n    /* \"contracts/stellaris.sol\":4644:4646  10 */\n  0x0a\n    /* \"contracts/stellaris.sol\":4644:4657  10**_decimals */\n  tag_2\n  jump\t// in\ntag_5:\n    /* \"contracts/stellaris.sol\":4631:4657  1000000000 * 10**_decimals */\n  tag_6\n  swap1\n    /* \"contracts/stellaris.sol\":4631:4641  1000000000 */\n  0x3b9aca00\n    /* \"contracts/stellaris.sol\":4631:4657  1000000000 * 10**_decimals */\n  tag_4\n  jump\t// in\ntag_6:\n    /* \"contracts/stellaris.sol\":4822:4862  uint256 public _maxWalletSize =  _tTotal */\n  0x08\n  sstore\n    /* \"contracts/stellaris.sol\":4915:4919  1000 */\n  0x03e8\n    /* \"contracts/stellaris.sol\":4644:4657  10**_decimals */\n  tag_7\n    /* \"contracts/stellaris.sol\":4587:4589  18 */\n  0x12\n    /* \"contracts/stellaris.sol\":4644:4646  10 */\n  0x0a\n    /* \"contracts/stellaris.sol\":4644:4657  10**_decimals */\n  tag_2\n  jump\t// in\ntag_7:\n    /* \"contracts/stellaris.sol\":4631:4657  1000000000 * 10**_decimals */\n  tag_8\n  swap1\n    /* \"contracts/stellaris.sol\":4631:4641  1000000000 */\n  0x3b9aca00\n    /* \"contracts/stellaris.sol\":4631:4657  1000000000 * 10**_decimals */\n  tag_4\n  jump\t// in\ntag_8:\n    /* \"contracts/stellaris.sol\":4903:4914  _tTotal * 1 */\n  tag_9\n  swap1\n    /* \"contracts/stellaris.sol\":4913:4914  1 */\n  0x01\n    /* \"contracts/stellaris.sol\":4903:4914  _tTotal * 1 */\n  tag_4\n  jump\t// in\ntag_9:\n    /* \"contracts/stellaris.sol\":4903:4919  _tTotal * 1/1000 */\n  tag_10\n  swap2\n  swap1\n  tag_11\n  jump\t// in\ntag_10:\n    /* \"contracts/stellaris.sol\":4869:4919  uint256 public _taxSwapThreshold= _tTotal * 1/1000 */\n  0x09\n  sstore\n    /* \"contracts/stellaris.sol\":4966:4969  100 */\n  0x64\n    /* \"contracts/stellaris.sol\":4644:4657  10**_decimals */\n  tag_12\n    /* \"contracts/stellaris.sol\":4587:4589  18 */\n  0x12\n    /* \"contracts/stellaris.sol\":4644:4646  10 */\n  0x0a\n    /* \"contracts/stellaris.sol\":4644:4657  10**_decimals */\n  tag_2\n  jump\t// in\ntag_12:\n    /* \"contracts/stellaris.sol\":4631:4657  1000000000 * 10**_decimals */\n  tag_13\n  swap1\n    /* \"contracts/stellaris.sol\":4631:4641  1000000000 */\n  0x3b9aca00\n    /* \"contracts/stellaris.sol\":4631:4657  1000000000 * 10**_decimals */\n  tag_4\n  jump\t// in\ntag_13:\n    /* \"contracts/stellaris.sol\":4954:4965  _tTotal * 1 */\n  tag_14\n  swap1\n    /* \"contracts/stellaris.sol\":4964:4965  1 */\n  0x01\n    /* \"contracts/stellaris.sol\":4954:4965  _tTotal * 1 */\n  tag_4\n  jump\t// in\ntag_14:\n    /* \"contracts/stellaris.sol\":4954:4969  _tTotal * 1/100 */\n  tag_15\n  swap2\n  swap1\n  tag_11\n  jump\t// in\ntag_15:\n    /* \"contracts/stellaris.sol\":4926:4969  uint256 public _maxTaxSwap= _tTotal * 1/100 */\n  0x0a\n  sstore\n    /* \"contracts/stellaris.sol\":5094:5121  bool private inSwap = false */\n  0x0c\n  dup1\n  sload\n  not(shl(0xa8, 0xffff))\n    /* \"contracts/stellaris.sol\":5128:5160  bool private swapEnabled = false */\n  and\n  swap1\n  sstore\n    /* \"contracts/stellaris.sol\":5317:5683  constructor () {... */\n  callvalue\n  dup1\n  iszero\n  tag_16\n  jumpi\n  0x00\n  dup1\n  revert\ntag_16:\n  pop\n    /* \"contracts/stellaris.sol\":2770:2787  address msgSender */\n  0x00\n    /* \"contracts/stellaris.sol\":2813:2831  _owner = msgSender */\n  dup1\n  sload\n  not(sub(shl(0xa0, 0x01), 0x01))\n  and\n    /* \"contracts/stellaris.sol\":741:751  msg.sender */\n  caller\n    /* \"contracts/stellaris.sol\":2813:2831  _owner = msgSender */\n  swap1\n  dup2\n  or\n  dup3\n  sstore\n    /* \"contracts/stellaris.sol\":2847:2890  OwnershipTransferred(address(0), msgSender) */\n  mload(0x40)\n    /* \"contracts/stellaris.sol\":741:751  msg.sender */\n  swap1\n  swap2\n  dup3\n  swap2\n    /* \"contracts/stellaris.sol\":2847:2890  OwnershipTransferred(address(0), msgSender) */\n  0x8be0079c531659141344cd1fd0a4f28419497f9722a3daafe3b4186f6b6457e0\n  swap1\n    /* \"contracts/stellaris.sol\":2770:2787  address msgSender */\n  dup3\n  swap1\n    /* \"contracts/stellaris.sol\":2847:2890  OwnershipTransferred(address(0), msgSender) */\n  log3\n  pop\n    /* \"contracts/stellaris.sol\":5343:5353  _taxWallet */\n  0x04\n    /* \"contracts/stellaris.sol\":5343:5377  _taxWallet = payable(_msgSender()) */\n  dup1\n  sload\n  not(sub(shl(0xa0, 0x01), 0x01))\n  and\n    /* \"contracts/stellaris.sol\":741:751  msg.sender */\n  caller\n    /* \"contracts/stellaris.sol\":5343:5377  _taxWallet = payable(_msgSender()) */\n  or\n  swap1\n  sstore\n    /* \"contracts/stellaris.sol\":4644:4657  10**_decimals */\n  tag_24\n    /* \"contracts/stellaris.sol\":4587:4589  18 */\n  0x12\n    /* \"contracts/stellaris.sol\":4644:4646  10 */\n  0x0a\n    /* \"contracts/stellaris.sol\":4644:4657  10**_decimals */\n  tag_2\n  jump\t// in\ntag_24:\n    /* \"contracts/stellaris.sol\":4631:4657  1000000000 * 10**_decimals */\n  tag_25\n  swap1\n    /* \"contracts/stellaris.sol\":4631:4641  1000000000 */\n  0x3b9aca00\n    /* \"contracts/stellaris.sol\":4631:4657  1000000000 * 10**_decimals */\n  tag_4\n  jump\t// in\ntag_25:\n    /* \"contracts/stellaris.sol\":741:751  msg.sender */\n  caller\n    /* \"contracts/stellaris.sol\":5388:5411  _balances[_msgSender()] */\n  0x00\n  swap1\n  dup2\n  mstore\n    /* \"contracts/stellaris.sol\":5388:5397  _balances */\n  0x01\n    /* \"contracts/stellaris.sol\":5388:5411  _balances[_msgSender()] */\n  0x20\n  dup2\n  swap1\n  mstore\n  0x40\n  dup3\n  keccak256\n    /* \"contracts/stellaris.sol\":5388:5421  _balances[_msgSender()] = _tTotal */\n  swap3\n  swap1\n  swap3\n  sstore\n    /* \"contracts/stellaris.sol\":5432:5450  _isExcludedFromFee */\n  0x03\n  swap1\n    /* \"contracts/stellaris.sol\":5451:5458  owner() */\n  tag_27\n    /* \"contracts/stellaris.sol\":2944:2951  address */\n  0x00\n    /* \"contracts/stellaris.sol\":2971:2977  _owner */\n  sload\n  sub(shl(0xa0, 0x01), 0x01)\n  and\n  swap1\n    /* \"contracts/stellaris.sol\":2906:2985  function owner() public view returns (address) {... */\n  jump\n    /* \"contracts/stellaris.sol\":5451:5458  owner() */\ntag_27:\n  sub(shl(0xa0, 0x01), 0x01)\n    /* \"contracts/stellaris.sol\":5432:5459  _isExcludedFromFee[owner()] */\n  swap1\n  dup2\n  and\n  dup3\n  mstore\n  0x20\n  dup1\n  dup4\n  add\n  swap4\n  swap1\n  swap4\n  mstore\n  0x40\n  swap2\n  dup3\n  add\n  0x00\n  swap1\n  dup2\n  keccak256\n    /* \"contracts/stellaris.sol\":5432:5466  _isExcludedFromFee[owner()] = true */\n  dup1\n  sload\n  swap6\n  iszero\n  iszero\n  not(0xff)\n  swap7\n  dup8\n  and\n  or\n  swap1\n  sstore\n    /* \"contracts/stellaris.sol\":5504:5508  this */\n  address\n    /* \"contracts/stellaris.sol\":5477:5510  _isExcludedFromFee[address(this)] */\n  dup2\n  mstore\n    /* \"contracts/stellaris.sol\":5477:5495  _isExcludedFromFee */\n  0x03\n    /* \"contracts/stellaris.sol\":5477:5510  _isExcludedFromFee[address(this)] */\n  swap1\n  swap4\n  mstore\n  dup2\n  dup4\n  keccak256\n    /* \"contracts/stellaris.sol\":5477:5517  _isExcludedFromFee[address(this)] = true */\n  dup1\n  sload\n  dup6\n  and\n    /* \"contracts/stellaris.sol\":5432:5466  _isExcludedFromFee[owner()] = true */\n  0x01\n    /* \"contracts/stellaris.sol\":5477:5517  _isExcludedFromFee[address(this)] = true */\n  swap1\n  dup2\n  or\n  swap1\n  swap2\n  sstore\n    /* \"contracts/stellaris.sol\":5547:5557  _taxWallet */\n  sload(0x04)\n  swap1\n  swap2\n  and\n    /* \"contracts/stellaris.sol\":5528:5558  _isExcludedFromFee[_taxWallet] */\n  dup4\n  mstore\n  swap1\n  dup3\n  keccak256\n    /* \"contracts/stellaris.sol\":5528:5565  _isExcludedFromFee[_taxWallet] = true */\n  dup1\n  sload\n  dup5\n  and\n  dup3\n  or\n  swap1\n  sstore\n    /* \"contracts/stellaris.sol\":4395:4437  0x000000000000000000000000000000000000dEaD */\n  0xdead\n    /* \"contracts/stellaris.sol\":5576:5607  _isExcludedFromFee[DEAD_WALLET] */\n  swap1\n  swap2\n  mstore\n  0x262bb27bbdd95c1cdc8e16957e36e38579ea44f7f6413dd7a9c75939def06b2c\n    /* \"contracts/stellaris.sol\":5576:5614  _isExcludedFromFee[DEAD_WALLET] = true */\n  dup1\n  sload\n  swap1\n  swap3\n  and\n  or\n  swap1\n  sstore\n    /* \"contracts/stellaris.sol\":5653:5665  _msgSender() */\n  tag_29\n    /* \"contracts/stellaris.sol\":741:751  msg.sender */\n  caller\n  swap1\n    /* \"contracts/stellaris.sol\":661:759  function _msgSender() internal view virtual returns (address) {... */\n  jump\n    /* \"contracts/stellaris.sol\":5653:5665  _msgSender() */\ntag_29:\n  sub(shl(0xa0, 0x01), 0x01)\n    /* \"contracts/stellaris.sol\":5632:5675  Transfer(address(0), _msgSender(), _tTotal) */\n  and\n    /* \"contracts/stellaris.sol\":5649:5650  0 */\n  0x00\n    /* \"contracts/stellaris.sol\":5632:5675  Transfer(address(0), _msgSender(), _tTotal) */\n  0xddf252ad1be2c89b69c2b068fc378daa952ba7f163c4a11628f55a4df523b3ef\n    /* \"contracts/stellaris.sol\":4644:4657  10**_decimals */\n  tag_30\n    /* \"contracts/stellaris.sol\":4587:4589  18 */\n  0x12\n    /* \"contracts/stellaris.sol\":4644:4646  10 */\n  0x0a\n    /* \"contracts/stellaris.sol\":4644:4657  10**_decimals */\n  tag_2\n  jump\t// in\ntag_30:\n    /* \"contracts/stellaris.sol\":4631:4657  1000000000 * 10**_decimals */\n  tag_31\n  swap1\n    /* \"contracts/stellaris.sol\":4631:4641  1000000000 */\n  0x3b9aca00\n    /* \"contracts/stellaris.sol\":4631:4657  1000000000 * 10**_decimals */\n  tag_4\n  jump\t// in\ntag_31:\n    /* \"contracts/stellaris.sol\":5632:5675  Transfer(address(0), _msgSender(), _tTotal) */\n  mload(0x40)\n    /* \"#utility.yul\":2070:2095   */\n  swap1\n  dup2\n  mstore\n    /* \"#utility.yul\":2058:2060   */\n  0x20\n    /* \"#utility.yul\":2043:2061   */\n  add\n    /* \"contracts/stellaris.sol\":5632:5675  Transfer(address(0), _msgSender(), _tTotal) */\n  mload(0x40)\n  dup1\n  swap2\n  sub\n  swap1\n  log3\n    /* \"contracts/stellaris.sol\":4039:11302  contract AnonConnect is Context, IERC20, Ownable {... */\n  jump(tag_40)\n    /* \"#utility.yul\":14:141   */\ntag_37:\n    /* \"#utility.yul\":75:85   */\n  0x4e487b71\n    /* \"#utility.yul\":70:73   */\n  0xe0\n    /* \"#utility.yul\":66:86   */\n  shl\n    /* \"#utility.yul\":63:64   */\n  0x00\n    /* \"#utility.yul\":56:87   */\n  mstore\n    /* \"#utility.yul\":106:110   */\n  0x11\n    /* \"#utility.yul\":103:104   */\n  0x04\n    /* \"#utility.yul\":96:111   */\n  mstore\n    /* \"#utility.yul\":130:134   */\n  0x24\n    /* \"#utility.yul\":127:128   */\n  0x00\n    /* \"#utility.yul\":120:135   */\n  revert\n    /* \"#utility.yul\":146:568   */\ntag_38:\n    /* \"#utility.yul\":235:236   */\n  0x01\n    /* \"#utility.yul\":278:283   */\n  dup2\n    /* \"#utility.yul\":235:236   */\n  dup2\n    /* \"#utility.yul\":292:562   */\ntag_43:\n    /* \"#utility.yul\":313:320   */\n  dup1\n    /* \"#utility.yul\":303:311   */\n  dup6\n    /* \"#utility.yul\":300:321   */\n  gt\n    /* \"#utility.yul\":292:562   */\n  iszero\n  tag_45\n  jumpi\n    /* \"#utility.yul\":372:376   */\n  dup2\n    /* \"#utility.yul\":368:369   */\n  0x00\n    /* \"#utility.yul\":364:370   */\n  not\n    /* \"#utility.yul\":360:377   */\n  div\n    /* \"#utility.yul\":354:358   */\n  dup3\n    /* \"#utility.yul\":351:378   */\n  gt\n    /* \"#utility.yul\":348:401   */\n  iszero\n  tag_47\n  jumpi\n    /* \"#utility.yul\":381:399   */\n  tag_47\n  tag_37\n  jump\t// in\ntag_47:\n    /* \"#utility.yul\":431:438   */\n  dup1\n    /* \"#utility.yul\":421:429   */\n  dup6\n    /* \"#utility.yul\":417:439   */\n  and\n    /* \"#utility.yul\":414:469   */\n  iszero\n  tag_48\n  jumpi\n    /* \"#utility.yul\":451:467   */\n  swap2\n  dup2\n  mul\n  swap2\n    /* \"#utility.yul\":414:469   */\ntag_48:\n    /* \"#utility.yul\":530:552   */\n  swap4\n  dup5\n  shr\n  swap4\n    /* \"#utility.yul\":490:505   */\n  swap1\n  dup1\n  mul\n  swap1\n    /* \"#utility.yul\":292:562   */\n  jump(tag_43)\ntag_45:\n    /* \"#utility.yul\":296:299   */\n  pop\n    /* \"#utility.yul\":146:568   */\n  swap3\n  pop\n  swap3\n  swap1\n  pop\n  jump\t// out\n    /* \"#utility.yul\":573:1379   */\ntag_39:\n    /* \"#utility.yul\":622:627   */\n  0x00\n    /* \"#utility.yul\":652:660   */\n  dup3\n    /* \"#utility.yul\":642:722   */\n  tag_50\n  jumpi\n  pop\n    /* \"#utility.yul\":693:694   */\n  0x01\n    /* \"#utility.yul\":707:712   */\n  jump(tag_49)\n    /* \"#utility.yul\":642:722   */\ntag_50:\n    /* \"#utility.yul\":741:745   */\n  dup2\n    /* \"#utility.yul\":731:807   */\n  tag_51\n  jumpi\n  pop\n    /* \"#utility.yul\":778:779   */\n  0x00\n    /* \"#utility.yul\":792:797   */\n  jump(tag_49)\n    /* \"#utility.yul\":731:807   */\ntag_51:\n    /* \"#utility.yul\":823:827   */\n  dup2\n    /* \"#utility.yul\":841:842   */\n  0x01\n    /* \"#utility.yul\":836:895   */\n  dup2\n  eq\n  tag_53\n  jumpi\n    /* \"#utility.yul\":909:910   */\n  0x02\n    /* \"#utility.yul\":904:1034   */\n  dup2\n  eq\n  tag_54\n  jumpi\n    /* \"#utility.yul\":816:1034   */\n  jump(tag_52)\n    /* \"#utility.yul\":836:895   */\ntag_53:\n    /* \"#utility.yul\":866:867   */\n  0x01\n    /* \"#utility.yul\":857:867   */\n  swap2\n  pop\n    /* \"#utility.yul\":880:885   */\n  pop\n  jump(tag_49)\n    /* \"#utility.yul\":904:1034   */\ntag_54:\n    /* \"#utility.yul\":941:944   */\n  0xff\n    /* \"#utility.yul\":931:939   */\n  dup5\n    /* \"#utility.yul\":928:945   */\n  gt\n    /* \"#utility.yul\":925:968   */\n  iszero\n  tag_56\n  jumpi\n    /* \"#utility.yul\":948:966   */\n  tag_56\n  tag_37\n  jump\t// in\ntag_56:\n  pop\n  pop\n    /* \"#utility.yul\":1004:1005   */\n  0x01\n    /* \"#utility.yul\":990:1006   */\n  dup3\n  shl\n    /* \"#utility.yul\":1019:1024   */\n  jump(tag_49)\n    /* \"#utility.yul\":816:1034   */\ntag_52:\n  pop\n    /* \"#utility.yul\":1118:1120   */\n  0x20\n    /* \"#utility.yul\":1108:1116   */\n  dup4\n    /* \"#utility.yul\":1105:1121   */\n  lt\n    /* \"#utility.yul\":1099:1102   */\n  0x0133\n    /* \"#utility.yul\":1093:1097   */\n  dup4\n    /* \"#utility.yul\":1090:1103   */\n  lt\n    /* \"#utility.yul\":1086:1122   */\n  and\n    /* \"#utility.yul\":1080:1082   */\n  0x4e\n    /* \"#utility.yul\":1070:1078   */\n  dup5\n    /* \"#utility.yul\":1067:1083   */\n  lt\n    /* \"#utility.yul\":1062:1064   */\n  0x0b\n    /* \"#utility.yul\":1056:1060   */\n  dup5\n    /* \"#utility.yul\":1053:1065   */\n  lt\n    /* \"#utility.yul\":1049:1084   */\n  and\n    /* \"#utility.yul\":1046:1123   */\n  or\n    /* \"#utility.yul\":1043:1202   */\n  iszero\n  tag_57\n  jumpi\n  pop\n    /* \"#utility.yul\":1155:1174   */\n  dup2\n  dup2\n  exp\n    /* \"#utility.yul\":1187:1192   */\n  jump(tag_49)\n    /* \"#utility.yul\":1043:1202   */\ntag_57:\n    /* \"#utility.yul\":1234:1268   */\n  tag_58\n    /* \"#utility.yul\":1259:1267   */\n  dup4\n    /* \"#utility.yul\":1253:1257   */\n  dup4\n    /* \"#utility.yul\":1234:1268   */\n  tag_38\n  jump\t// in\ntag_58:\n    /* \"#utility.yul\":1304:1310   */\n  dup1\n    /* \"#utility.yul\":1300:1301   */\n  0x00\n    /* \"#utility.yul\":1296:1302   */\n  not\n    /* \"#utility.yul\":1292:1311   */\n  div\n    /* \"#utility.yul\":1283:1290   */\n  dup3\n    /* \"#utility.yul\":1280:1312   */\n  gt\n    /* \"#utility.yul\":1277:1335   */\n  iszero\n  tag_60\n  jumpi\n    /* \"#utility.yul\":1315:1333   */\n  tag_60\n  tag_37\n  jump\t// in\ntag_60:\n    /* \"#utility.yul\":1353:1373   */\n  mul\n  swap1\n  pop\n    /* \"#utility.yul\":573:1379   */\ntag_49:\n  swap3\n  swap2\n  pop\n  pop\n  jump\t// out\n    /* \"#utility.yul\":1384:1524   */\ntag_2:\n    /* \"#utility.yul\":1442:1447   */\n  0x00\n    /* \"#utility.yul\":1471:1518   */\n  tag_62\n    /* \"#utility.yul\":1512:1516   */\n  0xff\n    /* \"#utility.yul\":1502:1510   */\n  dup5\n    /* \"#utility.yul\":1498:1517   */\n  and\n    /* \"#utility.yul\":1492:1496   */\n  dup4\n    /* \"#utility.yul\":1471:1518   */\n  tag_39\n  jump\t// in\ntag_62:\n    /* \"#utility.yul\":1462:1518   */\n  swap4\n    /* \"#utility.yul\":1384:1524   */\n  swap3\n  pop\n  pop\n  pop\n  jump\t// out\n    /* \"#utility.yul\":1529:1697   */\ntag_4:\n    /* \"#utility.yul\":1602:1611   */\n  dup1\n  dup3\n  mul\n    /* \"#utility.yul\":1633:1642   */\n  dup2\n  iszero\n    /* \"#utility.yul\":1650:1665   */\n  dup3\n  dup3\n  div\n    /* \"#utility.yul\":1644:1666   */\n  dup5\n  eq\n    /* \"#utility.yul\":1630:1667   */\n  or\n    /* \"#utility.yul\":1620:1691   */\n  tag_49\n  jumpi\n    /* \"#utility.yul\":1671:1689   */\n  tag_49\n  tag_37\n  jump\t// in\n    /* \"#utility.yul\":1702:1919   */\ntag_11:\n    /* \"#utility.yul\":1742:1743   */\n  0x00\n    /* \"#utility.yul\":1768:1769   */\n  dup3\n    /* \"#utility.yul\":1758:1890   */\n  tag_67\n  jumpi\n    /* \"#utility.yul\":1812:1822   */\n  0x4e487b71\n    /* \"#utility.yul\":1807:1810   */\n  0xe0\n    /* \"#utility.yul\":1803:1823   */\n  shl\n    /* \"#utility.yul\":1800:1801   */\n  0x00\n    /* \"#utility.yul\":1793:1824   */\n  mstore\n    /* \"#utility.yul\":1847:1851   */\n  0x12\n    /* \"#utility.yul\":1844:1845   */\n  0x04\n    /* \"#utility.yul\":1837:1852   */\n  mstore\n    /* \"#utility.yul\":1875:1879   */\n  0x24\n    /* \"#utility.yul\":1872:1873   */\n  0x00\n    /* \"#utility.yul\":1865:1880   */\n  revert\n    /* \"#utility.yul\":1758:1890   */\ntag_67:\n  pop\n    /* \"#utility.yul\":1904:1913   */\n  div\n  swap1\n    /* \"#utility.yul\":1702:1919   */\n  jump\t// out\n    /* \"#utility.yul\":1924:2101   */\ntag_40:\n    /* \"contracts/stellaris.sol\":4039:11302  contract AnonConnect is Context, IERC20, Ownable {... */\n  dataSize(sub_0)\n  dup1\n  dataOffset(sub_0)\n  0x00\n  codecopy\n  0x00\n  return\nstop\n\nsub_0: assembly {\n        /* \"contracts/stellaris.sol\":4039:11302  contract AnonConnect is Context, IERC20, Ownable {... */\n      mstore(0x40, 0x80)\n      jumpi(tag_1, lt(calldatasize, 0x04))\n      shr(0xe0, calldataload(0x00))\n      dup1\n      0x7d1db4a5\n      gt\n      tag_26\n      jumpi\n      dup1\n      0xa01ce408\n      gt\n      tag_27\n      jumpi\n      dup1\n      0xa01ce408\n      eq\n      tag_20\n      jumpi\n      dup1\n      0xa9059cbb\n      eq\n      tag_21\n      jumpi\n      dup1\n      0xbf474bed\n      eq\n      tag_22\n      jumpi\n      dup1\n      0xc9567bf9\n      eq\n      tag_23\n      jumpi\n      dup1\n      0xdd62ed3e\n      eq\n      tag_24\n      jumpi\n      dup1\n      0xe89e109d\n      eq\n      tag_25\n      jumpi\n      0x00\n      dup1\n      revert\n    tag_27:\n      dup1\n      0x7d1db4a5\n      eq\n      tag_14\n      jumpi\n      dup1\n      0x879120fc\n      eq\n      tag_15\n      jumpi\n      dup1\n      0x8da5cb5b\n      eq\n      tag_16\n      jumpi\n      dup1\n      0x8f9a55c0\n      eq\n      tag_17\n      jumpi\n      dup1\n      0x95d89b41\n      eq\n      tag_18\n      jumpi\n      dup1\n      0xa01c3483\n      eq\n      tag_19\n      jumpi\n      0x00\n      dup1\n      revert\n    tag_26:\n      dup1\n      0x313ce567\n      gt\n      tag_28\n      jumpi\n      dup1\n      0x313ce567\n      eq\n      tag_8\n      jumpi\n      dup1\n      0x51bc3c85\n      eq\n      tag_9\n      jumpi\n      dup1\n      0x5c579404\n      eq\n      tag_10\n      jumpi\n      dup1\n      0x5e4ae81b\n      eq\n      tag_11\n      jumpi\n      dup1\n      0x70a08231\n      eq\n      tag_12\n      jumpi\n      dup1\n      0x715018a6\n      eq\n      tag_13\n      jumpi\n      0x00\n      dup1\n      revert\n    tag_28:\n      dup1\n      0x06fdde03\n      eq\n      tag_3\n      jumpi\n      dup1\n      0x095ea7b3\n      eq\n      tag_4\n      jumpi\n      dup1\n      0x0faee56f\n      eq\n      tag_5\n      jumpi\n      dup1\n      0x18160ddd\n      eq\n      tag_6\n      jumpi\n      dup1\n      0x23b872dd\n      eq\n      tag_7\n      jumpi\n      0x00\n      dup1\n      revert\n    tag_1:\n      jumpi(tag_2, calldatasize)\n      stop\n    tag_2:\n      0x00\n      dup1\n      revert\n        /* \"contracts/stellaris.sol\":5691:5774  function name() public pure returns (string memory) {... */\n    tag_3:\n      callvalue\n      dup1\n      iszero\n      tag_31\n      jumpi\n      0x00\n      dup1\n      revert\n    tag_31:\n      pop\n        /* \"contracts/stellaris.sol\":5761:5766  _name */\n      0x40\n      dup1\n      mload\n      dup1\n      dup3\n      add\n      swap1\n      swap2\n      mstore\n      0x0c\n      dup2\n      mstore\n      shl(0xa2, 0x105b9bdb8810dbdb9b9958dd)\n      0x20\n      dup3\n      add\n      mstore\n        /* \"contracts/stellaris.sol\":5691:5774  function name() public pure returns (string memory) {... */\n    tag_32:\n      mload(0x40)\n      tag_34\n      swap2\n      swap1\n      tag_35\n      jump\t// in\n    tag_34:\n      mload(0x40)\n      dup1\n      swap2\n      sub\n      swap1\n      return\n        /* \"contracts/stellaris.sol\":6524:6685  function approve(address spender, uint256 amount) public override returns (bool) {... */\n    tag_4:\n      callvalue\n      dup1\n      iszero\n      tag_36\n      jumpi\n      0x00\n      dup1\n      revert\n    tag_36:\n      pop\n      tag_37\n      tag_38\n      calldatasize\n      0x04\n      tag_39\n      jump\t// in\n    tag_38:\n      tag_40\n      jump\t// in\n    tag_37:\n      mload(0x40)\n        /* \"#utility.yul\":1188:1202   */\n      swap1\n      iszero\n        /* \"#utility.yul\":1181:1203   */\n      iszero\n        /* \"#utility.yul\":1163:1204   */\n      dup2\n      mstore\n        /* \"#utility.yul\":1151:1153   */\n      0x20\n        /* \"#utility.yul\":1136:1154   */\n      add\n        /* \"contracts/stellaris.sol\":6524:6685  function approve(address spender, uint256 amount) public override returns (bool) {... */\n      tag_34\n        /* \"#utility.yul\":1023:1210   */\n      jump\n        /* \"contracts/stellaris.sol\":4926:4969  uint256 public _maxTaxSwap= _tTotal * 1/100 */\n    tag_5:\n      callvalue\n      dup1\n      iszero\n      tag_43\n      jumpi\n      0x00\n      dup1\n      revert\n    tag_43:\n      pop\n      tag_44\n      sload(0x0a)\n      dup2\n      jump\n    tag_44:\n      mload(0x40)\n        /* \"#utility.yul\":1361:1386   */\n      swap1\n      dup2\n      mstore\n        /* \"#utility.yul\":1349:1351   */\n      0x20\n        /* \"#utility.yul\":1334:1352   */\n      add\n        /* \"contracts/stellaris.sol\":4926:4969  uint256 public _maxTaxSwap= _tTotal * 1/100 */\n      tag_34\n        /* \"#utility.yul\":1215:1392   */\n      jump\n        /* \"contracts/stellaris.sol\":5968:6063  function totalSupply() public pure override returns (uint256) {... */\n    tag_6:\n      callvalue\n      dup1\n      iszero\n      tag_48\n      jumpi\n      0x00\n      dup1\n      revert\n    tag_48:\n      pop\n      tag_44\n      tag_50\n      jump\t// in\n        /* \"contracts/stellaris.sol\":6693:7006  function transferFrom(address sender, address recipient, uint256 amount) public override returns (bool) {... */\n    tag_7:\n      callvalue\n      dup1\n      iszero\n      tag_52\n      jumpi\n      0x00\n      dup1\n      revert\n    tag_52:\n      pop\n      tag_37\n      tag_54\n      calldatasize\n      0x04\n      tag_55\n      jump\t// in\n    tag_54:\n      tag_56\n      jump\t// in\n        /* \"contracts/stellaris.sol\":5877:5960  function decimals() public pure returns (uint8) {... */\n    tag_8:\n      callvalue\n      dup1\n      iszero\n      tag_58\n      jumpi\n      0x00\n      dup1\n      revert\n    tag_58:\n      pop\n      mload(0x40)\n        /* \"contracts/stellaris.sol\":4587:4589  18 */\n      0x12\n        /* \"#utility.yul\":2000:2036   */\n      dup2\n      mstore\n        /* \"#utility.yul\":1988:1990   */\n      0x20\n        /* \"#utility.yul\":1973:1991   */\n      add\n        /* \"contracts/stellaris.sol\":5877:5960  function decimals() public pure returns (uint8) {... */\n      tag_34\n        /* \"#utility.yul\":1858:2042   */\n      jump\n        /* \"contracts/stellaris.sol\":10951:11299  function manualSwap() external {... */\n    tag_9:\n      callvalue\n      dup1\n      iszero\n      tag_63\n      jumpi\n      0x00\n      dup1\n      revert\n    tag_63:\n      pop\n      tag_64\n      tag_65\n      jump\t// in\n    tag_64:\n      stop\n        /* \"contracts/stellaris.sol\":9024:9172  function setMaxTXlimit(uint256 newTxAmt) external onlyOwner {... */\n    tag_10:\n      callvalue\n      dup1\n      iszero\n      tag_66\n      jumpi\n      0x00\n      dup1\n      revert\n    tag_66:\n      pop\n      tag_64\n      tag_68\n      calldatasize\n      0x04\n      tag_69\n      jump\t// in\n    tag_68:\n      tag_70\n      jump\t// in\n        /* \"contracts/stellaris.sol\":8821:8891  function removelimits() external virtual{... */\n    tag_11:\n      callvalue\n      dup1\n      iszero\n      tag_71\n      jumpi\n      0x00\n      dup1\n      revert\n    tag_71:\n      pop\n        /* \"contracts/stellaris.sol\":8872:8878  tetori */\n      0x04\n        /* \"contracts/stellaris.sol\":8872:8883  tetori = 11 */\n      dup1\n      sload\n      not(shl(0xa0, 0xffffffffffffffff))\n      and\n      shl(0xa0, 0x0b)\n      or\n      swap1\n      sstore\n        /* \"contracts/stellaris.sol\":10951:11299  function manualSwap() external {... */\n      stop\n        /* \"contracts/stellaris.sol\":6071:6190  function balanceOf(address account) public view override returns (uint256) {... */\n    tag_12:\n      callvalue\n      dup1\n      iszero\n      tag_74\n      jumpi\n      0x00\n      dup1\n      revert\n    tag_74:\n      pop\n      tag_44\n      tag_76\n      calldatasize\n      0x04\n      tag_77\n      jump\t// in\n    tag_76:\n      sub(shl(0xa0, 0x01), 0x01)\n        /* \"contracts/stellaris.sol\":6164:6182  _balances[account] */\n      and\n        /* \"contracts/stellaris.sol\":6137:6144  uint256 */\n      0x00\n        /* \"contracts/stellaris.sol\":6164:6182  _balances[account] */\n      swap1\n      dup2\n      mstore\n        /* \"contracts/stellaris.sol\":6164:6173  _balances */\n      0x01\n        /* \"contracts/stellaris.sol\":6164:6182  _balances[account] */\n      0x20\n      mstore\n      0x40\n      swap1\n      keccak256\n      sload\n      swap1\n        /* \"contracts/stellaris.sol\":6071:6190  function balanceOf(address account) public view override returns (uint256) {... */\n      jump\n        /* \"contracts/stellaris.sol\":3120:3268  function renounceOwnership() public virtual onlyOwner {... */\n    tag_13:\n      callvalue\n      dup1\n      iszero\n      tag_80\n      jumpi\n      0x00\n      dup1\n      revert\n    tag_80:\n      pop\n      tag_64\n      tag_82\n      jump\t// in\n        /* \"contracts/stellaris.sol\":4778:4815  uint256 public _maxTxAmount = _tTotal */\n    tag_14:\n      callvalue\n      dup1\n      iszero\n      tag_83\n      jumpi\n      0x00\n      dup1\n      revert\n    tag_83:\n      pop\n      tag_44\n      sload(0x07)\n      dup2\n      jump\n        /* \"contracts/stellaris.sol\":8899:9016  function setFeeAddressWallets(address payable newWallet) external onlyOwner {... */\n    tag_15:\n      callvalue\n      dup1\n      iszero\n      tag_87\n      jumpi\n      0x00\n      dup1\n      revert\n    tag_87:\n      pop\n      tag_64\n      tag_89\n      calldatasize\n      0x04\n      tag_77\n      jump\t// in\n    tag_89:\n      tag_91\n      jump\t// in\n        /* \"contracts/stellaris.sol\":2906:2985  function owner() public view returns (address) {... */\n    tag_16:\n      callvalue\n      dup1\n      iszero\n      tag_92\n      jumpi\n      0x00\n      dup1\n      revert\n    tag_92:\n      pop\n        /* \"contracts/stellaris.sol\":2944:2951  address */\n      0x00\n        /* \"contracts/stellaris.sol\":2971:2977  _owner */\n      sload\n      sub(shl(0xa0, 0x01), 0x01)\n      and\n        /* \"contracts/stellaris.sol\":2906:2985  function owner() public view returns (address) {... */\n    tag_93:\n      mload(0x40)\n      sub(shl(0xa0, 0x01), 0x01)\n        /* \"#utility.yul\":2908:2940   */\n      swap1\n      swap2\n      and\n        /* \"#utility.yul\":2890:2941   */\n      dup2\n      mstore\n        /* \"#utility.yul\":2878:2880   */\n      0x20\n        /* \"#utility.yul\":2863:2881   */\n      add\n        /* \"contracts/stellaris.sol\":2906:2985  function owner() public view returns (address) {... */\n      tag_34\n        /* \"#utility.yul\":2744:2947   */\n      jump\n        /* \"contracts/stellaris.sol\":4822:4862  uint256 public _maxWalletSize =  _tTotal */\n    tag_17:\n      callvalue\n      dup1\n      iszero\n      tag_97\n      jumpi\n      0x00\n      dup1\n      revert\n    tag_97:\n      pop\n      tag_44\n      sload(0x08)\n      dup2\n      jump\n        /* \"contracts/stellaris.sol\":5782:5869  function symbol() public pure returns (string memory) {... */\n    tag_18:\n      callvalue\n      dup1\n      iszero\n      tag_101\n      jumpi\n      0x00\n      dup1\n      revert\n    tag_101:\n      pop\n        /* \"contracts/stellaris.sol\":5854:5861  _symbol */\n      0x40\n      dup1\n      mload\n      dup1\n      dup3\n      add\n      swap1\n      swap2\n      mstore\n      0x03\n      dup2\n      mstore\n      shl(0xe8, 0x414e43)\n      0x20\n      dup3\n      add\n      mstore\n        /* \"contracts/stellaris.sol\":5782:5869  function symbol() public pure returns (string memory) {... */\n      jump(tag_32)\n        /* \"contracts/stellaris.sol\":4357:4437  address public constant DEAD_WALLET = 0x000000000000000000000000000000000000dEaD */\n    tag_19:\n      callvalue\n      dup1\n      iszero\n      tag_105\n      jumpi\n      0x00\n      dup1\n      revert\n    tag_105:\n      pop\n      tag_93\n        /* \"contracts/stellaris.sol\":4395:4437  0x000000000000000000000000000000000000dEaD */\n      0xdead\n        /* \"contracts/stellaris.sol\":4357:4437  address public constant DEAD_WALLET = 0x000000000000000000000000000000000000dEaD */\n      dup2\n      jump\n        /* \"contracts/stellaris.sol\":9321:9458  function updateFeeSell(uint256 newSellTax) external onlyOwner {... */\n    tag_20:\n      callvalue\n      dup1\n      iszero\n      tag_109\n      jumpi\n      0x00\n      dup1\n      revert\n    tag_109:\n      pop\n      tag_64\n      tag_111\n      calldatasize\n      0x04\n      tag_69\n      jump\t// in\n    tag_111:\n      tag_112\n      jump\t// in\n        /* \"contracts/stellaris.sol\":6198:6365  function transfer(address recipient, uint256 amount) public override returns (bool) {... */\n    tag_21:\n      callvalue\n      dup1\n      iszero\n      tag_113\n      jumpi\n      0x00\n      dup1\n      revert\n    tag_113:\n      pop\n      tag_37\n      tag_115\n      calldatasize\n      0x04\n      tag_39\n      jump\t// in\n    tag_115:\n      tag_116\n      jump\t// in\n        /* \"contracts/stellaris.sol\":4869:4919  uint256 public _taxSwapThreshold= _tTotal * 1/1000 */\n    tag_22:\n      callvalue\n      dup1\n      iszero\n      tag_118\n      jumpi\n      0x00\n      dup1\n      revert\n    tag_118:\n      pop\n      tag_44\n      sload(0x09)\n      dup2\n      jump\n        /* \"contracts/stellaris.sol\":10235:10906  function openTrading() external onlyOwner() {... */\n    tag_23:\n      callvalue\n      dup1\n      iszero\n      tag_122\n      jumpi\n      0x00\n      dup1\n      revert\n    tag_122:\n      pop\n      tag_64\n      tag_124\n      jump\t// in\n        /* \"contracts/stellaris.sol\":6373:6516  function allowance(address owner, address spender) public view override returns (uint256) {... */\n    tag_24:\n      callvalue\n      dup1\n      iszero\n      tag_125\n      jumpi\n      0x00\n      dup1\n      revert\n    tag_125:\n      pop\n      tag_44\n      tag_127\n      calldatasize\n      0x04\n      tag_128\n      jump\t// in\n    tag_127:\n      sub(shl(0xa0, 0x01), 0x01)\n        /* \"contracts/stellaris.sol\":6481:6499  _allowances[owner] */\n      swap2\n      dup3\n      and\n        /* \"contracts/stellaris.sol\":6454:6461  uint256 */\n      0x00\n        /* \"contracts/stellaris.sol\":6481:6499  _allowances[owner] */\n      swap1\n      dup2\n      mstore\n        /* \"contracts/stellaris.sol\":6481:6492  _allowances */\n      0x02\n        /* \"contracts/stellaris.sol\":6481:6499  _allowances[owner] */\n      0x20\n      swap1\n      dup2\n      mstore\n      0x40\n      dup1\n      dup4\n      keccak256\n        /* \"contracts/stellaris.sol\":6481:6508  _allowances[owner][spender] */\n      swap4\n      swap1\n      swap5\n      and\n      dup3\n      mstore\n      swap2\n      swap1\n      swap2\n      mstore\n      keccak256\n      sload\n      swap1\n        /* \"contracts/stellaris.sol\":6373:6516  function allowance(address owner, address spender) public view override returns (uint256) {... */\n      jump\n        /* \"contracts/stellaris.sol\":9180:9313  function update_BuyFee(uint256 newBuyTax) external onlyOwner {... */\n    tag_25:\n      callvalue\n      dup1\n      iszero\n      tag_131\n      jumpi\n      0x00\n      dup1\n      revert\n    tag_131:\n      pop\n      tag_64\n      tag_133\n      calldatasize\n      0x04\n      tag_69\n      jump\t// in\n    tag_133:\n      tag_134\n      jump\t// in\n        /* \"contracts/stellaris.sol\":6524:6685  function approve(address spender, uint256 amount) public override returns (bool) {... */\n    tag_40:\n        /* \"contracts/stellaris.sol\":6599:6603  bool */\n      0x00\n        /* \"contracts/stellaris.sol\":6616:6655  _approve(_msgSender(), spender, amount) */\n      tag_137\n        /* \"contracts/stellaris.sol\":741:751  msg.sender */\n      caller\n        /* \"contracts/stellaris.sol\":6639:6646  spender */\n      dup5\n        /* \"contracts/stellaris.sol\":6648:6654  amount */\n      dup5\n        /* \"contracts/stellaris.sol\":6616:6624  _approve */\n      tag_140\n        /* \"contracts/stellaris.sol\":6616:6655  _approve(_msgSender(), spender, amount) */\n      jump\t// in\n    tag_137:\n      pop\n        /* \"contracts/stellaris.sol\":6673:6677  true */\n      0x01\n        /* \"contracts/stellaris.sol\":6524:6685  function approve(address spender, uint256 amount) public override returns (bool) {... */\n    tag_136:\n      swap3\n      swap2\n      pop\n      pop\n      jump\t// out\n        /* \"contracts/stellaris.sol\":5968:6063  function totalSupply() public pure override returns (uint256) {... */\n    tag_50:\n        /* \"contracts/stellaris.sol\":6021:6028  uint256 */\n      0x00\n        /* \"contracts/stellaris.sol\":4644:4657  10**_decimals */\n      tag_142\n        /* \"contracts/stellaris.sol\":4587:4589  18 */\n      0x12\n        /* \"contracts/stellaris.sol\":4644:4646  10 */\n      0x0a\n        /* \"contracts/stellaris.sol\":4644:4657  10**_decimals */\n      tag_143\n      jump\t// in\n    tag_142:\n        /* \"contracts/stellaris.sol\":4631:4657  1000000000 * 10**_decimals */\n      tag_144\n      swap1\n        /* \"contracts/stellaris.sol\":4631:4641  1000000000 */\n      0x3b9aca00\n        /* \"contracts/stellaris.sol\":4631:4657  1000000000 * 10**_decimals */\n      tag_145\n      jump\t// in\n    tag_144:\n        /* \"contracts/stellaris.sol\":6041:6055  return _tTotal */\n      swap1\n      pop\n        /* \"contracts/stellaris.sol\":5968:6063  function totalSupply() public pure override returns (uint256) {... */\n      swap1\n      jump\t// out\n        /* \"contracts/stellaris.sol\":6693:7006  function transferFrom(address sender, address recipient, uint256 amount) public override returns (bool) {... */\n    tag_56:\n        /* \"contracts/stellaris.sol\":6791:6795  bool */\n      0x00\n        /* \"contracts/stellaris.sol\":6808:6844  _transfer(sender, recipient, amount) */\n      tag_147\n        /* \"contracts/stellaris.sol\":6818:6824  sender */\n      dup5\n        /* \"contracts/stellaris.sol\":6826:6835  recipient */\n      dup5\n        /* \"contracts/stellaris.sol\":6837:6843  amount */\n      dup5\n        /* \"contracts/stellaris.sol\":6808:6817  _transfer */\n      tag_148\n        /* \"contracts/stellaris.sol\":6808:6844  _transfer(sender, recipient, amount) */\n      jump\t// in\n    tag_147:\n        /* \"contracts/stellaris.sol\":6855:6976  _approve(sender, _msgSender(), _allowances[sender][_msgSender()].sub(amount, \"ERC20: transfer amount exceeds allowance\")) */\n      tag_149\n        /* \"contracts/stellaris.sol\":6864:6870  sender */\n      dup5\n        /* \"contracts/stellaris.sol\":741:751  msg.sender */\n      caller\n        /* \"contracts/stellaris.sol\":6886:6975  _allowances[sender][_msgSender()].sub(amount, \"ERC20: transfer amount exceeds allowance\") */\n      tag_151\n        /* \"contracts/stellaris.sol\":6924:6930  amount */\n      dup6\n        /* \"contracts/stellaris.sol\":6886:6975  _allowances[sender][_msgSender()].sub(amount, \"ERC20: transfer amount exceeds allowance\") */\n      mload(0x40)\n      dup1\n      0x60\n      add\n      0x40\n      mstore\n      dup1\n      0x28\n      dup2\n      mstore\n      0x20\n      add\n      data_974d1b4421da69cc60b481194f0dad36a5bb4e23da810da7a7fb30cdba178330\n      0x28\n      swap2\n      codecopy\n      sub(shl(0xa0, 0x01), 0x01)\n        /* \"contracts/stellaris.sol\":6886:6905  _allowances[sender] */\n      dup11\n      and\n      0x00\n      swap1\n      dup2\n      mstore\n        /* \"contracts/stellaris.sol\":6886:6897  _allowances */\n      0x02\n        /* \"contracts/stellaris.sol\":6886:6905  _allowances[sender] */\n      0x20\n      swap1\n      dup2\n      mstore\n      0x40\n      dup1\n      dup4\n      keccak256\n        /* \"contracts/stellaris.sol\":741:751  msg.sender */\n      caller\n        /* \"contracts/stellaris.sol\":6886:6919  _allowances[sender][_msgSender()] */\n      dup5\n      mstore\n      swap1\n      swap2\n      mstore\n      swap1\n      keccak256\n      sload\n      swap2\n      swap1\n        /* \"contracts/stellaris.sol\":6886:6923  _allowances[sender][_msgSender()].sub */\n      tag_153\n        /* \"contracts/stellaris.sol\":6886:6975  _allowances[sender][_msgSender()].sub(amount, \"ERC20: transfer amount exceeds allowance\") */\n      jump\t// in\n    tag_151:\n        /* \"contracts/stellaris.sol\":6855:6863  _approve */\n      tag_140\n        /* \"contracts/stellaris.sol\":6855:6976  _approve(sender, _msgSender(), _allowances[sender][_msgSender()].sub(amount, \"ERC20: transfer amount exceeds allowance\")) */\n      jump\t// in\n    tag_149:\n      pop\n        /* \"contracts/stellaris.sol\":6994:6998  true */\n      0x01\n        /* \"contracts/stellaris.sol\":6693:7006  function transferFrom(address sender, address recipient, uint256 amount) public override returns (bool) {... */\n      swap4\n      swap3\n      pop\n      pop\n      pop\n      jump\t// out\n        /* \"contracts/stellaris.sol\":10951:11299  function manualSwap() external {... */\n    tag_65:\n        /* \"contracts/stellaris.sol\":11015:11025  _taxWallet */\n      and(sub(shl(0xa0, 0x01), 0x01), sload(0x04))\n        /* \"contracts/stellaris.sol\":741:751  msg.sender */\n      caller\n      sub(shl(0xa0, 0x01), 0x01)\n        /* \"contracts/stellaris.sol\":11001:11025  _msgSender()==_taxWallet */\n      and\n      eq\n        /* \"contracts/stellaris.sol\":10993:11026  require(_msgSender()==_taxWallet) */\n      tag_157\n      jumpi\n      0x00\n      dup1\n      revert\n    tag_157:\n        /* \"contracts/stellaris.sol\":11076:11080  this */\n      address\n        /* \"contracts/stellaris.sol\":11037:11057  uint256 tokenBalance */\n      0x00\n        /* \"contracts/stellaris.sol\":6164:6182  _balances[account] */\n      swap1\n      dup2\n      mstore\n        /* \"contracts/stellaris.sol\":6164:6173  _balances */\n      0x01\n        /* \"contracts/stellaris.sol\":6164:6182  _balances[account] */\n      0x20\n      mstore\n      0x40\n      swap1\n      keccak256\n      sload\n        /* \"contracts/stellaris.sol\":11096:11110  tokenBalance>0 */\n      dup1\n      iszero\n        /* \"contracts/stellaris.sol\":11093:11166  if(tokenBalance>0){... */\n      tag_160\n      jumpi\n        /* \"contracts/stellaris.sol\":11124:11154  swapTokensForEth(tokenBalance) */\n      tag_160\n        /* \"contracts/stellaris.sol\":11141:11153  tokenBalance */\n      dup2\n        /* \"contracts/stellaris.sol\":11124:11140  swapTokensForEth */\n      tag_161\n        /* \"contracts/stellaris.sol\":11124:11154  swapTokensForEth(tokenBalance) */\n      jump\t// in\n    tag_160:\n        /* \"contracts/stellaris.sol\":11195:11216  address(this).balance */\n      selfbalance\n        /* \"contracts/stellaris.sol\":11230:11242  ethBalance>0 */\n      dup1\n      iszero\n        /* \"contracts/stellaris.sol\":11227:11292  if(ethBalance>0){... */\n      tag_163\n      jumpi\n        /* \"contracts/stellaris.sol\":11256:11280  sendETHToFee(ethBalance) */\n      tag_163\n        /* \"contracts/stellaris.sol\":11269:11279  ethBalance */\n      dup2\n        /* \"contracts/stellaris.sol\":11256:11268  sendETHToFee */\n      tag_164\n        /* \"contracts/stellaris.sol\":11256:11280  sendETHToFee(ethBalance) */\n      jump\t// in\n    tag_163:\n        /* \"contracts/stellaris.sol\":10982:11299  {... */\n      pop\n      pop\n        /* \"contracts/stellaris.sol\":10951:11299  function manualSwap() external {... */\n      jump\t// out\n        /* \"contracts/stellaris.sol\":9024:9172  function setMaxTXlimit(uint256 newTxAmt) external onlyOwner {... */\n    tag_70:\n        /* \"contracts/stellaris.sol\":3033:3039  _owner */\n      and(sub(shl(0xa0, 0x01), 0x01), sload(0x00))\n        /* \"contracts/stellaris.sol\":741:751  msg.sender */\n      caller\n        /* \"contracts/stellaris.sol\":3033:3055  _owner == _msgSender() */\n      eq\n        /* \"contracts/stellaris.sol\":3025:3092  require(_owner == _msgSender(), \"Ownable: caller is not the owner\") */\n      tag_167\n      jumpi\n      mload(0x40)\n      shl(0xe5, 0x461bcd)\n      dup2\n      mstore\n      0x04\n      add\n      tag_168\n      swap1\n      tag_169\n      jump\t// in\n    tag_168:\n      mload(0x40)\n      dup1\n      swap2\n      sub\n      swap1\n      revert\n    tag_167:\n        /* \"contracts/stellaris.sol\":9129:9132  100 */\n      0x64\n        /* \"contracts/stellaris.sol\":9120:9128  newTxAmt */\n      dup2\n        /* \"contracts/stellaris.sol\":4644:4657  10**_decimals */\n      tag_171\n        /* \"contracts/stellaris.sol\":4587:4589  18 */\n      0x12\n        /* \"contracts/stellaris.sol\":4644:4646  10 */\n      0x0a\n        /* \"contracts/stellaris.sol\":4644:4657  10**_decimals */\n      tag_143\n      jump\t// in\n    tag_171:\n        /* \"contracts/stellaris.sol\":4631:4657  1000000000 * 10**_decimals */\n      tag_172\n      swap1\n        /* \"contracts/stellaris.sol\":4631:4641  1000000000 */\n      0x3b9aca00\n        /* \"contracts/stellaris.sol\":4631:4657  1000000000 * 10**_decimals */\n      tag_145\n      jump\t// in\n    tag_172:\n        /* \"contracts/stellaris.sol\":9110:9128  _tTotal * newTxAmt */\n      tag_173\n      swap2\n      swap1\n      tag_145\n      jump\t// in\n    tag_173:\n        /* \"contracts/stellaris.sol\":9110:9132  _tTotal * newTxAmt/100 */\n      tag_174\n      swap2\n      swap1\n      tag_175\n      jump\t// in\n    tag_174:\n        /* \"contracts/stellaris.sol\":9095:9107  _maxTxAmount */\n      0x07\n        /* \"contracts/stellaris.sol\":9095:9132  _maxTxAmount = _tTotal * newTxAmt/100 */\n      sstore\n        /* \"contracts/stellaris.sol\":9162:9163  1 */\n      0x01\n        /* \"contracts/stellaris.sol\":9151:9163  newTxAmt >=1 */\n      dup2\n      lt\n      iszero\n        /* \"contracts/stellaris.sol\":9143:9164  require(newTxAmt >=1) */\n      tag_176\n      jumpi\n      0x00\n      dup1\n      revert\n    tag_176:\n        /* \"contracts/stellaris.sol\":9024:9172  function setMaxTXlimit(uint256 newTxAmt) external onlyOwner {... */\n      pop\n      jump\t// out\n        /* \"contracts/stellaris.sol\":3120:3268  function renounceOwnership() public virtual onlyOwner {... */\n    tag_82:\n        /* \"contracts/stellaris.sol\":3033:3039  _owner */\n      and(sub(shl(0xa0, 0x01), 0x01), sload(0x00))\n        /* \"contracts/stellaris.sol\":741:751  msg.sender */\n      caller\n        /* \"contracts/stellaris.sol\":3033:3055  _owner == _msgSender() */\n      eq\n        /* \"contracts/stellaris.sol\":3025:3092  require(_owner == _msgSender(), \"Ownable: caller is not the owner\") */\n      tag_181\n      jumpi\n      mload(0x40)\n      shl(0xe5, 0x461bcd)\n      dup2\n      mstore\n      0x04\n      add\n      tag_168\n      swap1\n      tag_169\n      jump\t// in\n    tag_181:\n        /* \"contracts/stellaris.sol\":3227:3228  0 */\n      0x00\n        /* \"contracts/stellaris.sol\":3211:3217  _owner */\n      dup1\n      sload\n        /* \"contracts/stellaris.sol\":3190:3230  OwnershipTransferred(_owner, address(0)) */\n      mload(0x40)\n      sub(shl(0xa0, 0x01), 0x01)\n        /* \"contracts/stellaris.sol\":3211:3217  _owner */\n      swap1\n      swap2\n      and\n      swap1\n        /* \"contracts/stellaris.sol\":3190:3230  OwnershipTransferred(_owner, address(0)) */\n      0x8be0079c531659141344cd1fd0a4f28419497f9722a3daafe3b4186f6b6457e0\n      swap1\n        /* \"contracts/stellaris.sol\":3227:3228  0 */\n      dup4\n      swap1\n        /* \"contracts/stellaris.sol\":3190:3230  OwnershipTransferred(_owner, address(0)) */\n      log3\n        /* \"contracts/stellaris.sol\":3258:3259  0 */\n      0x00\n        /* \"contracts/stellaris.sol\":3241:3260  _owner = address(0) */\n      dup1\n      sload\n      not(sub(shl(0xa0, 0x01), 0x01))\n      and\n      swap1\n      sstore\n        /* \"contracts/stellaris.sol\":3120:3268  function renounceOwnership() public virtual onlyOwner {... */\n      jump\t// out\n        /* \"contracts/stellaris.sol\":8899:9016  function setFeeAddressWallets(address payable newWallet) external onlyOwner {... */\n    tag_91:\n        /* \"contracts/stellaris.sol\":3033:3039  _owner */\n      and(sub(shl(0xa0, 0x01), 0x01), sload(0x00))\n        /* \"contracts/stellaris.sol\":741:751  msg.sender */\n      caller\n        /* \"contracts/stellaris.sol\":3033:3055  _owner == _msgSender() */\n      eq\n        /* \"contracts/stellaris.sol\":3025:3092  require(_owner == _msgSender(), \"Ownable: caller is not the owner\") */\n      tag_186\n      jumpi\n      mload(0x40)\n      shl(0xe5, 0x461bcd)\n      dup2\n      mstore\n      0x04\n      add\n      tag_168\n      swap1\n      tag_169\n      jump\t// in\n    tag_186:\n        /* \"contracts/stellaris.sol\":8986:8996  _taxWallet */\n      0x04\n        /* \"contracts/stellaris.sol\":8986:9008  _taxWallet = newWallet */\n      dup1\n      sload\n      not(sub(shl(0xa0, 0x01), 0x01))\n      and\n      sub(shl(0xa0, 0x01), 0x01)\n      swap3\n      swap1\n      swap3\n      and\n      swap2\n      swap1\n      swap2\n      or\n      swap1\n      sstore\n        /* \"contracts/stellaris.sol\":8899:9016  function setFeeAddressWallets(address payable newWallet) external onlyOwner {... */\n      jump\t// out\n        /* \"contracts/stellaris.sol\":9321:9458  function updateFeeSell(uint256 newSellTax) external onlyOwner {... */\n    tag_112:\n        /* \"contracts/stellaris.sol\":3033:3039  _owner */\n      and(sub(shl(0xa0, 0x01), 0x01), sload(0x00))\n        /* \"contracts/stellaris.sol\":741:751  msg.sender */\n      caller\n        /* \"contracts/stellaris.sol\":3033:3055  _owner == _msgSender() */\n      eq\n        /* \"contracts/stellaris.sol\":3025:3092  require(_owner == _msgSender(), \"Ownable: caller is not the owner\") */\n      tag_193\n      jumpi\n      mload(0x40)\n      shl(0xe5, 0x461bcd)\n      dup2\n      mstore\n      0x04\n      add\n      tag_168\n      swap1\n      tag_169\n      jump\t// in\n    tag_193:\n        /* \"contracts/stellaris.sol\":9394:9402  _selltax */\n      0x06\n        /* \"contracts/stellaris.sol\":9394:9415  _selltax = newSellTax */\n      dup2\n      swap1\n      sstore\n        /* \"contracts/stellaris.sol\":9448:9449  5 */\n      0x05\n        /* \"contracts/stellaris.sol\":9434:9449  newSellTax <= 5 */\n      dup2\n      gt\n      iszero\n        /* \"contracts/stellaris.sol\":9426:9450  require(newSellTax <= 5) */\n      tag_176\n      jumpi\n      0x00\n      dup1\n      revert\n        /* \"contracts/stellaris.sol\":6198:6365  function transfer(address recipient, uint256 amount) public override returns (bool) {... */\n    tag_116:\n        /* \"contracts/stellaris.sol\":6276:6280  bool */\n      0x00\n        /* \"contracts/stellaris.sol\":6293:6335  _transfer(_msgSender(), recipient, amount) */\n      tag_137\n        /* \"contracts/stellaris.sol\":741:751  msg.sender */\n      caller\n        /* \"contracts/stellaris.sol\":6317:6326  recipient */\n      dup5\n        /* \"contracts/stellaris.sol\":6328:6334  amount */\n      dup5\n        /* \"contracts/stellaris.sol\":6293:6302  _transfer */\n      tag_148\n        /* \"contracts/stellaris.sol\":6293:6335  _transfer(_msgSender(), recipient, amount) */\n      jump\t// in\n        /* \"contracts/stellaris.sol\":10235:10906  function openTrading() external onlyOwner() {... */\n    tag_124:\n        /* \"contracts/stellaris.sol\":3033:3039  _owner */\n      and(sub(shl(0xa0, 0x01), 0x01), sload(0x00))\n        /* \"contracts/stellaris.sol\":741:751  msg.sender */\n      caller\n        /* \"contracts/stellaris.sol\":3033:3055  _owner == _msgSender() */\n      eq\n        /* \"contracts/stellaris.sol\":3025:3092  require(_owner == _msgSender(), \"Ownable: caller is not the owner\") */\n      tag_202\n      jumpi\n      mload(0x40)\n      shl(0xe5, 0x461bcd)\n      dup2\n      mstore\n      0x04\n      add\n      tag_168\n      swap1\n      tag_169\n      jump\t// in\n    tag_202:\n        /* \"contracts/stellaris.sol\":10299:10310  tradingOpen */\n      sload(0x0c)\n      shl(0xa0, 0x01)\n      swap1\n      div\n      0xff\n      and\n        /* \"contracts/stellaris.sol\":10298:10310  !tradingOpen */\n      iszero\n        /* \"contracts/stellaris.sol\":10290:10337  require(!tradingOpen,\"trading is already open\") */\n      tag_205\n      jumpi\n      mload(0x40)\n      shl(0xe5, 0x461bcd)\n      dup2\n      mstore\n        /* \"#utility.yul\":5818:5820   */\n      0x20\n        /* \"contracts/stellaris.sol\":10290:10337  require(!tradingOpen,\"trading is already open\") */\n      0x04\n      dup3\n      add\n        /* \"#utility.yul\":5800:5821   */\n      mstore\n        /* \"#utility.yul\":5857:5859   */\n      0x17\n        /* \"#utility.yul\":5837:5855   */\n      0x24\n      dup3\n      add\n        /* \"#utility.yul\":5830:5860   */\n      mstore\n        /* \"#utility.yul\":5896:5921   */\n      0x74726164696e6720697320616c7265616479206f70656e000000000000000000\n        /* \"#utility.yul\":5876:5894   */\n      0x44\n      dup3\n      add\n        /* \"#utility.yul\":5869:5922   */\n      mstore\n        /* \"#utility.yul\":5939:5957   */\n      0x64\n      add\n        /* \"contracts/stellaris.sol\":10290:10337  require(!tradingOpen,\"trading is already open\") */\n      tag_168\n        /* \"#utility.yul\":5616:5963   */\n      jump\n        /* \"contracts/stellaris.sol\":10290:10337  require(!tradingOpen,\"trading is already open\") */\n    tag_205:\n        /* \"contracts/stellaris.sol\":10348:10363  uniswapV2Router */\n      0x0b\n        /* \"contracts/stellaris.sol\":10348:10428  uniswapV2Router = IUniswapV2Router02(0x7a250d5630B4cF539739dF2C5dAcb4c659F2488D) */\n      dup1\n      sload\n      not(sub(shl(0xa0, 0x01), 0x01))\n      and\n        /* \"contracts/stellaris.sol\":10385:10427  0x7a250d5630B4cF539739dF2C5dAcb4c659F2488D */\n      0x7a250d5630b4cf539739df2c5dacb4c659f2488d\n        /* \"contracts/stellaris.sol\":10348:10428  uniswapV2Router = IUniswapV2Router02(0x7a250d5630B4cF539739dF2C5dAcb4c659F2488D) */\n      swap1\n      dup2\n      or\n      swap1\n      swap2\n      sstore\n        /* \"contracts/stellaris.sol\":10439:10497  _approve(address(this), address(uniswapV2Router), _tTotal) */\n      tag_208\n      swap1\n        /* \"contracts/stellaris.sol\":10456:10460  this */\n      address\n      swap1\n        /* \"contracts/stellaris.sol\":4644:4657  10**_decimals */\n      tag_209\n        /* \"contracts/stellaris.sol\":4587:4589  18 */\n      0x12\n        /* \"contracts/stellaris.sol\":4644:4646  10 */\n      0x0a\n        /* \"contracts/stellaris.sol\":4644:4657  10**_decimals */\n      tag_143\n      jump\t// in\n    tag_209:\n        /* \"contracts/stellaris.sol\":4631:4657  1000000000 * 10**_decimals */\n      tag_151\n      swap1\n        /* \"contracts/stellaris.sol\":4631:4641  1000000000 */\n      0x3b9aca00\n        /* \"contracts/stellaris.sol\":4631:4657  1000000000 * 10**_decimals */\n      tag_145\n      jump\t// in\n        /* \"contracts/stellaris.sol\":10439:10497  _approve(address(this), address(uniswapV2Router), _tTotal) */\n    tag_208:\n        /* \"contracts/stellaris.sol\":10542:10557  uniswapV2Router */\n      0x0b\n      0x00\n      swap1\n      sload\n      swap1\n      0x0100\n      exp\n      swap1\n      div\n      sub(shl(0xa0, 0x01), 0x01)\n      and\n      sub(shl(0xa0, 0x01), 0x01)\n        /* \"contracts/stellaris.sol\":10542:10565  uniswapV2Router.factory */\n      and\n      0xc45a0155\n        /* \"contracts/stellaris.sol\":10542:10567  uniswapV2Router.factory() */\n      mload(0x40)\n      dup2\n      0xffffffff\n      and\n      0xe0\n      shl\n      dup2\n      mstore\n      0x04\n      add\n      0x20\n      mload(0x40)\n      dup1\n      dup4\n      sub\n      dup2\n      dup7\n      gas\n      staticcall\n      iszero\n      dup1\n      iszero\n      tag_212\n      jumpi\n      returndatasize\n      0x00\n      dup1\n      returndatacopy\n      revert(0x00, returndatasize)\n    tag_212:\n      pop\n      pop\n      pop\n      pop\n      mload(0x40)\n      returndatasize\n      not(0x1f)\n      0x1f\n      dup3\n      add\n      and\n      dup3\n      add\n      dup1\n      0x40\n      mstore\n      pop\n      dup2\n      add\n      swap1\n      tag_213\n      swap2\n      swap1\n      tag_214\n      jump\t// in\n    tag_213:\n      sub(shl(0xa0, 0x01), 0x01)\n        /* \"contracts/stellaris.sol\":10524:10579  IUniswapV2Factory(uniswapV2Router.factory()).createPair */\n      and\n      0xc9c65396\n        /* \"contracts/stellaris.sol\":10588:10592  this */\n      address\n        /* \"contracts/stellaris.sol\":10595:10610  uniswapV2Router */\n      0x0b\n      0x00\n      swap1\n      sload\n      swap1\n      0x0100\n      exp\n      swap1\n      div\n      sub(shl(0xa0, 0x01), 0x01)\n      and\n      sub(shl(0xa0, 0x01), 0x01)\n        /* \"contracts/stellaris.sol\":10595:10615  uniswapV2Router.WETH */\n      and\n      0xad5c4648\n        /* \"contracts/stellaris.sol\":10595:10617  uniswapV2Router.WETH() */\n      mload(0x40)\n      dup2\n      0xffffffff\n      and\n      0xe0\n      shl\n      dup2\n      mstore\n      0x04\n      add\n      0x20\n      mload(0x40)\n      dup1\n      dup4\n      sub\n      dup2\n      dup7\n      gas\n      staticcall\n      iszero\n      dup1\n      iszero\n      tag_216\n      jumpi\n      returndatasize\n      0x00\n      dup1\n      returndatacopy\n      revert(0x00, returndatasize)\n    tag_216:\n      pop\n      pop\n      pop\n      pop\n      mload(0x40)\n      returndatasize\n      not(0x1f)\n      0x1f\n      dup3\n      add\n      and\n      dup3\n      add\n      dup1\n      0x40\n      mstore\n      pop\n      dup2\n      add\n      swap1\n      tag_217\n      swap2\n      swap1\n      tag_214\n      jump\t// in\n    tag_217:\n        /* \"contracts/stellaris.sol\":10524:10618  IUniswapV2Factory(uniswapV2Router.factory()).createPair(address(this), uniswapV2Router.WETH()) */\n      mload(0x40)\n      not(sub(shl(0xe0, 0x01), 0x01))\n      0xe0\n      dup6\n      swap1\n      shl\n      and\n      dup2\n      mstore\n      sub(shl(0xa0, 0x01), 0x01)\n        /* \"#utility.yul\":6454:6469   */\n      swap3\n      dup4\n      and\n        /* \"contracts/stellaris.sol\":10524:10618  IUniswapV2Factory(uniswapV2Router.factory()).createPair(address(this), uniswapV2Router.WETH()) */\n      0x04\n      dup3\n      add\n        /* \"#utility.yul\":6436:6470   */\n      mstore\n        /* \"#utility.yul\":6506:6521   */\n      swap2\n      and\n        /* \"#utility.yul\":6486:6504   */\n      0x24\n      dup3\n      add\n        /* \"#utility.yul\":6479:6522   */\n      mstore\n        /* \"#utility.yul\":6371:6389   */\n      0x44\n      add\n        /* \"contracts/stellaris.sol\":10524:10618  IUniswapV2Factory(uniswapV2Router.factory()).createPair(address(this), uniswapV2Router.WETH()) */\n      0x20\n      mload(0x40)\n      dup1\n      dup4\n      sub\n      dup2\n      0x00\n      dup8\n      gas\n      call\n      iszero\n      dup1\n      iszero\n      tag_221\n      jumpi\n      returndatasize\n      0x00\n      dup1\n      returndatacopy\n      revert(0x00, returndatasize)\n    tag_221:\n      pop\n      pop\n      pop\n      pop\n      mload(0x40)\n      returndatasize\n      not(0x1f)\n      0x1f\n      dup3\n      add\n      and\n      dup3\n      add\n      dup1\n      0x40\n      mstore\n      pop\n      dup2\n      add\n      swap1\n      tag_222\n      swap2\n      swap1\n      tag_214\n      jump\t// in\n    tag_222:\n        /* \"contracts/stellaris.sol\":10508:10521  uniswapV2Pair */\n      0x0c\n        /* \"contracts/stellaris.sol\":10508:10618  uniswapV2Pair = IUniswapV2Factory(uniswapV2Router.factory()).createPair(address(this), uniswapV2Router.WETH()) */\n      dup1\n      sload\n      sub(shl(0xa0, 0x01), 0x01)\n      swap3\n      dup4\n      and\n      not(sub(shl(0xa0, 0x01), 0x01))\n      swap1\n      swap2\n      and\n      or\n      swap1\n      sstore\n        /* \"contracts/stellaris.sol\":10629:10644  uniswapV2Router */\n      sload(0x0b)\n      and\n        /* \"contracts/stellaris.sol\":10629:10660  uniswapV2Router.addLiquidityETH */\n      0xf305d719\n        /* \"contracts/stellaris.sol\":10668:10689  address(this).balance */\n      selfbalance\n        /* \"contracts/stellaris.sol\":10699:10703  this */\n      address\n        /* \"contracts/stellaris.sol\":10705:10729  balanceOf(address(this)) */\n      tag_223\n        /* \"contracts/stellaris.sol\":10699:10703  this */\n      dup2\n      sub(shl(0xa0, 0x01), 0x01)\n        /* \"contracts/stellaris.sol\":6164:6182  _balances[account] */\n      and\n        /* \"contracts/stellaris.sol\":6137:6144  uint256 */\n      0x00\n        /* \"contracts/stellaris.sol\":6164:6182  _balances[account] */\n      swap1\n      dup2\n      mstore\n        /* \"contracts/stellaris.sol\":6164:6173  _balances */\n      0x01\n        /* \"contracts/stellaris.sol\":6164:6182  _balances[account] */\n      0x20\n      mstore\n      0x40\n      swap1\n      keccak256\n      sload\n      swap1\n        /* \"contracts/stellaris.sol\":6071:6190  function balanceOf(address account) public view override returns (uint256) {... */\n      jump\n        /* \"contracts/stellaris.sol\":10705:10729  balanceOf(address(this)) */\n    tag_223:\n        /* \"contracts/stellaris.sol\":10730:10731  0 */\n      0x00\n        /* \"contracts/stellaris.sol\":10732:10733  0 */\n      dup1\n        /* \"contracts/stellaris.sol\":10734:10741  owner() */\n      tag_224\n        /* \"contracts/stellaris.sol\":2944:2951  address */\n      0x00\n        /* \"contracts/stellaris.sol\":2971:2977  _owner */\n      sload\n      sub(shl(0xa0, 0x01), 0x01)\n      and\n      swap1\n        /* \"contracts/stellaris.sol\":2906:2985  function owner() public view returns (address) {... */\n      jump\n        /* \"contracts/stellaris.sol\":10734:10741  owner() */\n    tag_224:\n        /* \"contracts/stellaris.sol\":10629:10758  uniswapV2Router.addLiquidityETH{value: address(this).balance}(address(this),balanceOf(address(this)),0,0,owner(),block.timestamp) */\n      mload(0x40)\n      0xe0\n      dup9\n      swap1\n      shl\n      not(sub(shl(0xe0, 0x01), 0x01))\n      and\n      dup2\n      mstore\n      sub(shl(0xa0, 0x01), 0x01)\n        /* \"#utility.yul\":6892:6907   */\n      swap6\n      dup7\n      and\n        /* \"contracts/stellaris.sol\":10629:10758  uniswapV2Router.addLiquidityETH{value: address(this).balance}(address(this),balanceOf(address(this)),0,0,owner(),block.timestamp) */\n      0x04\n      dup3\n      add\n        /* \"#utility.yul\":6874:6908   */\n      mstore\n        /* \"#utility.yul\":6924:6942   */\n      0x24\n      dup2\n      add\n        /* \"#utility.yul\":6917:6951   */\n      swap5\n      swap1\n      swap5\n      mstore\n        /* \"#utility.yul\":6967:6985   */\n      0x44\n      dup5\n      add\n        /* \"#utility.yul\":6960:6994   */\n      swap3\n      swap1\n      swap3\n      mstore\n        /* \"#utility.yul\":7010:7028   */\n      0x64\n      dup4\n      add\n        /* \"#utility.yul\":7003:7037   */\n      mstore\n        /* \"#utility.yul\":7074:7089   */\n      swap1\n      swap2\n      and\n        /* \"#utility.yul\":7053:7072   */\n      0x84\n      dup3\n      add\n        /* \"#utility.yul\":7046:7090   */\n      mstore\n        /* \"contracts/stellaris.sol\":10742:10757  block.timestamp */\n      timestamp\n        /* \"#utility.yul\":7106:7125   */\n      0xa4\n      dup3\n      add\n        /* \"#utility.yul\":7099:7134   */\n      mstore\n        /* \"#utility.yul\":6808:6827   */\n      0xc4\n      add\n        /* \"contracts/stellaris.sol\":10629:10758  uniswapV2Router.addLiquidityETH{value: address(this).balance}(address(this),balanceOf(address(this)),0,0,owner(),block.timestamp) */\n      0x60\n      mload(0x40)\n      dup1\n      dup4\n      sub\n      dup2\n      dup6\n      dup9\n      gas\n      call\n      iszero\n      dup1\n      iszero\n      tag_228\n      jumpi\n      returndatasize\n      0x00\n      dup1\n      returndatacopy\n      revert(0x00, returndatasize)\n    tag_228:\n      pop\n      pop\n      pop\n      pop\n      pop\n      mload(0x40)\n      returndatasize\n      not(0x1f)\n      0x1f\n      dup3\n      add\n      and\n      dup3\n      add\n      dup1\n      0x40\n      mstore\n      pop\n      dup2\n      add\n      swap1\n      tag_229\n      swap2\n      swap1\n      tag_230\n      jump\t// in\n    tag_229:\n      pop\n      pop\n        /* \"contracts/stellaris.sol\":10776:10789  uniswapV2Pair */\n      sload(0x0c)\n        /* \"contracts/stellaris.sol\":10807:10822  uniswapV2Router */\n      sload(0x0b)\n        /* \"contracts/stellaris.sol\":10769:10840  IERC20(uniswapV2Pair).approve(address(uniswapV2Router), type(uint).max) */\n      mload(0x40)\n      shl(0xe0, 0x095ea7b3)\n      dup2\n      mstore\n      sub(shl(0xa0, 0x01), 0x01)\n        /* \"contracts/stellaris.sol\":10807:10822  uniswapV2Router */\n      swap2\n      dup3\n      and\n        /* \"contracts/stellaris.sol\":10769:10840  IERC20(uniswapV2Pair).approve(address(uniswapV2Router), type(uint).max) */\n      0x04\n      dup3\n      add\n        /* \"#utility.yul\":7630:7681   */\n      mstore\n      not(0x00)\n        /* \"#utility.yul\":7697:7715   */\n      0x24\n      dup3\n      add\n        /* \"#utility.yul\":7690:7724   */\n      mstore\n        /* \"contracts/stellaris.sol\":10776:10789  uniswapV2Pair */\n      swap2\n      and\n      swap2\n      pop\n        /* \"contracts/stellaris.sol\":10769:10798  IERC20(uniswapV2Pair).approve */\n      0x095ea7b3\n      swap1\n        /* \"#utility.yul\":7603:7621   */\n      0x44\n      add\n        /* \"contracts/stellaris.sol\":10769:10840  IERC20(uniswapV2Pair).approve(address(uniswapV2Router), type(uint).max) */\n      0x20\n      mload(0x40)\n      dup1\n      dup4\n      sub\n      dup2\n      0x00\n      dup8\n      gas\n      call\n      iszero\n      dup1\n      iszero\n      tag_234\n      jumpi\n      returndatasize\n      0x00\n      dup1\n      returndatacopy\n      revert(0x00, returndatasize)\n    tag_234:\n      pop\n      pop\n      pop\n      pop\n      mload(0x40)\n      returndatasize\n      not(0x1f)\n      0x1f\n      dup3\n      add\n      and\n      dup3\n      add\n      dup1\n      0x40\n      mstore\n      pop\n      dup2\n      add\n      swap1\n      tag_235\n      swap2\n      swap1\n      tag_236\n      jump\t// in\n    tag_235:\n      pop\n        /* \"contracts/stellaris.sol\":10851:10862  swapEnabled */\n      0x0c\n        /* \"contracts/stellaris.sol\":10851:10869  swapEnabled = true */\n      dup1\n      sload\n      not(shl(0xa0, 0xff00ff))\n        /* \"contracts/stellaris.sol\":10880:10898  tradingOpen = true */\n      and\n      shl(0xa0, 0x010001)\n      or\n      swap1\n      sstore\n        /* \"contracts/stellaris.sol\":10235:10906  function openTrading() external onlyOwner() {... */\n      jump\t// out\n        /* \"contracts/stellaris.sol\":9180:9313  function update_BuyFee(uint256 newBuyTax) external onlyOwner {... */\n    tag_134:\n        /* \"contracts/stellaris.sol\":3033:3039  _owner */\n      and(sub(shl(0xa0, 0x01), 0x01), sload(0x00))\n        /* \"contracts/stellaris.sol\":741:751  msg.sender */\n      caller\n        /* \"contracts/stellaris.sol\":3033:3055  _owner == _msgSender() */\n      eq\n        /* \"contracts/stellaris.sol\":3025:3092  require(_owner == _msgSender(), \"Ownable: caller is not the owner\") */\n      tag_240\n      jumpi\n      mload(0x40)\n      shl(0xe5, 0x461bcd)\n      dup2\n      mstore\n      0x04\n      add\n      tag_168\n      swap1\n      tag_169\n      jump\t// in\n    tag_240:\n        /* \"contracts/stellaris.sol\":9252:9259  _buytax */\n      0x05\n        /* \"contracts/stellaris.sol\":9252:9271  _buytax = newBuyTax */\n      dup2\n      dup2\n      sstore\n        /* \"contracts/stellaris.sol\":9290:9304  newBuyTax <= 5 */\n      dup2\n      gt\n      iszero\n        /* \"contracts/stellaris.sol\":9282:9305  require(newBuyTax <= 5) */\n      tag_176\n      jumpi\n      0x00\n      dup1\n      revert\n        /* \"contracts/stellaris.sol\":7014:7349  function _approve(address owner, address spender, uint256 amount) private {... */\n    tag_140:\n      sub(shl(0xa0, 0x01), 0x01)\n        /* \"contracts/stellaris.sol\":7107:7126  owner != address(0) */\n      dup4\n      and\n        /* \"contracts/stellaris.sol\":7099:7167  require(owner != address(0), \"ERC20: approve from the zero address\") */\n      tag_246\n      jumpi\n      mload(0x40)\n      shl(0xe5, 0x461bcd)\n      dup2\n      mstore\n        /* \"#utility.yul\":8219:8221   */\n      0x20\n        /* \"contracts/stellaris.sol\":7099:7167  require(owner != address(0), \"ERC20: approve from the zero address\") */\n      0x04\n      dup3\n      add\n        /* \"#utility.yul\":8201:8222   */\n      mstore\n        /* \"#utility.yul\":8258:8260   */\n      0x24\n        /* \"#utility.yul\":8238:8256   */\n      dup1\n      dup3\n      add\n        /* \"#utility.yul\":8231:8261   */\n      mstore\n        /* \"#utility.yul\":8297:8331   */\n      0x45524332303a20617070726f76652066726f6d20746865207a65726f20616464\n        /* \"#utility.yul\":8277:8295   */\n      0x44\n      dup3\n      add\n        /* \"#utility.yul\":8270:8332   */\n      mstore\n      shl(0xe0, 0x72657373)\n        /* \"#utility.yul\":8348:8366   */\n      0x64\n      dup3\n      add\n        /* \"#utility.yul\":8341:8375   */\n      mstore\n        /* \"#utility.yul\":8392:8411   */\n      0x84\n      add\n        /* \"contracts/stellaris.sol\":7099:7167  require(owner != address(0), \"ERC20: approve from the zero address\") */\n      tag_168\n        /* \"#utility.yul\":8017:8417   */\n      jump\n        /* \"contracts/stellaris.sol\":7099:7167  require(owner != address(0), \"ERC20: approve from the zero address\") */\n    tag_246:\n      sub(shl(0xa0, 0x01), 0x01)\n        /* \"contracts/stellaris.sol\":7186:7207  spender != address(0) */\n      dup3\n      and\n        /* \"contracts/stellaris.sol\":7178:7246  require(spender != address(0), \"ERC20: approve to the zero address\") */\n      tag_249\n      jumpi\n      mload(0x40)\n      shl(0xe5, 0x461bcd)\n      dup2\n      mstore\n        /* \"#utility.yul\":8624:8626   */\n      0x20\n        /* \"contracts/stellaris.sol\":7178:7246  require(spender != address(0), \"ERC20: approve to the zero address\") */\n      0x04\n      dup3\n      add\n        /* \"#utility.yul\":8606:8627   */\n      mstore\n        /* \"#utility.yul\":8663:8665   */\n      0x22\n        /* \"#utility.yul\":8643:8661   */\n      0x24\n      dup3\n      add\n        /* \"#utility.yul\":8636:8666   */\n      mstore\n        /* \"#utility.yul\":8702:8736   */\n      0x45524332303a20617070726f766520746f20746865207a65726f206164647265\n        /* \"#utility.yul\":8682:8700   */\n      0x44\n      dup3\n      add\n        /* \"#utility.yul\":8675:8737   */\n      mstore\n      shl(0xf0, 0x7373)\n        /* \"#utility.yul\":8753:8771   */\n      0x64\n      dup3\n      add\n        /* \"#utility.yul\":8746:8778   */\n      mstore\n        /* \"#utility.yul\":8795:8814   */\n      0x84\n      add\n        /* \"contracts/stellaris.sol\":7178:7246  require(spender != address(0), \"ERC20: approve to the zero address\") */\n      tag_168\n        /* \"#utility.yul\":8422:8820   */\n      jump\n        /* \"contracts/stellaris.sol\":7178:7246  require(spender != address(0), \"ERC20: approve to the zero address\") */\n    tag_249:\n      sub(shl(0xa0, 0x01), 0x01)\n        /* \"contracts/stellaris.sol\":7257:7275  _allowances[owner] */\n      dup4\n      dup2\n      and\n      0x00\n      dup2\n      dup2\n      mstore\n        /* \"contracts/stellaris.sol\":7257:7268  _allowances */\n      0x02\n        /* \"contracts/stellaris.sol\":7257:7275  _allowances[owner] */\n      0x20\n      swap1\n      dup2\n      mstore\n      0x40\n      dup1\n      dup4\n      keccak256\n        /* \"contracts/stellaris.sol\":7257:7284  _allowances[owner][spender] */\n      swap5\n      dup8\n      and\n      dup1\n      dup5\n      mstore\n      swap5\n      dup3\n      mstore\n      swap2\n      dup3\n      swap1\n      keccak256\n        /* \"contracts/stellaris.sol\":7257:7293  _allowances[owner][spender] = amount */\n      dup6\n      swap1\n      sstore\n        /* \"contracts/stellaris.sol\":7309:7341  Approval(owner, spender, amount) */\n      swap1\n      mload\n        /* \"#utility.yul\":1361:1386   */\n      dup5\n      dup2\n      mstore\n        /* \"contracts/stellaris.sol\":7309:7341  Approval(owner, spender, amount) */\n      0x8c5be1e5ebec7d5bd14f71427d1e84f3dd0314c0f7b2291e5b200ac8c7c3b925\n      swap2\n        /* \"#utility.yul\":1334:1352   */\n      add\n        /* \"contracts/stellaris.sol\":7309:7341  Approval(owner, spender, amount) */\n      mload(0x40)\n      dup1\n      swap2\n      sub\n      swap1\n      log3\n        /* \"contracts/stellaris.sol\":7014:7349  function _approve(address owner, address spender, uint256 amount) private {... */\n      pop\n      pop\n      pop\n      jump\t// out\n        /* \"contracts/stellaris.sol\":7357:8813  function _transfer(address from, address to, uint256 amount) private {... */\n    tag_148:\n      sub(shl(0xa0, 0x01), 0x01)\n        /* \"contracts/stellaris.sol\":7445:7463  from != address(0) */\n      dup4\n      and\n        /* \"contracts/stellaris.sol\":7437:7505  require(from != address(0), \"ERC20: transfer from the zero address\") */\n      tag_254\n      jumpi\n      mload(0x40)\n      shl(0xe5, 0x461bcd)\n      dup2\n      mstore\n        /* \"#utility.yul\":9027:9029   */\n      0x20\n        /* \"contracts/stellaris.sol\":7437:7505  require(from != address(0), \"ERC20: transfer from the zero address\") */\n      0x04\n      dup3\n      add\n        /* \"#utility.yul\":9009:9030   */\n      mstore\n        /* \"#utility.yul\":9066:9068   */\n      0x25\n        /* \"#utility.yul\":9046:9064   */\n      0x24\n      dup3\n      add\n        /* \"#utility.yul\":9039:9069   */\n      mstore\n        /* \"#utility.yul\":9105:9139   */\n      0x45524332303a207472616e736665722066726f6d20746865207a65726f206164\n        /* \"#utility.yul\":9085:9103   */\n      0x44\n      dup3\n      add\n        /* \"#utility.yul\":9078:9140   */\n      mstore\n      shl(0xd8, 0x6472657373)\n        /* \"#utility.yul\":9156:9174   */\n      0x64\n      dup3\n      add\n        /* \"#utility.yul\":9149:9184   */\n      mstore\n        /* \"#utility.yul\":9201:9220   */\n      0x84\n      add\n        /* \"contracts/stellaris.sol\":7437:7505  require(from != address(0), \"ERC20: transfer from the zero address\") */\n      tag_168\n        /* \"#utility.yul\":8825:9226   */\n      jump\n        /* \"contracts/stellaris.sol\":7437:7505  require(from != address(0), \"ERC20: transfer from the zero address\") */\n    tag_254:\n      sub(shl(0xa0, 0x01), 0x01)\n        /* \"contracts/stellaris.sol\":7524:7540  to != address(0) */\n      dup3\n      and\n        /* \"contracts/stellaris.sol\":7516:7580  require(to != address(0), \"ERC20: transfer to the zero address\") */\n      tag_257\n      jumpi\n      mload(0x40)\n      shl(0xe5, 0x461bcd)\n      dup2\n      mstore\n        /* \"#utility.yul\":9433:9435   */\n      0x20\n        /* \"contracts/stellaris.sol\":7516:7580  require(to != address(0), \"ERC20: transfer to the zero address\") */\n      0x04\n      dup3\n      add\n        /* \"#utility.yul\":9415:9436   */\n      mstore\n        /* \"#utility.yul\":9472:9474   */\n      0x23\n        /* \"#utility.yul\":9452:9470   */\n      0x24\n      dup3\n      add\n        /* \"#utility.yul\":9445:9475   */\n      mstore\n        /* \"#utility.yul\":9511:9545   */\n      0x45524332303a207472616e7366657220746f20746865207a65726f2061646472\n        /* \"#utility.yul\":9491:9509   */\n      0x44\n      dup3\n      add\n        /* \"#utility.yul\":9484:9546   */\n      mstore\n      shl(0xe8, 0x657373)\n        /* \"#utility.yul\":9562:9580   */\n      0x64\n      dup3\n      add\n        /* \"#utility.yul\":9555:9588   */\n      mstore\n        /* \"#utility.yul\":9605:9624   */\n      0x84\n      add\n        /* \"contracts/stellaris.sol\":7516:7580  require(to != address(0), \"ERC20: transfer to the zero address\") */\n      tag_168\n        /* \"#utility.yul\":9231:9630   */\n      jump\n        /* \"contracts/stellaris.sol\":7516:7580  require(to != address(0), \"ERC20: transfer to the zero address\") */\n    tag_257:\n        /* \"contracts/stellaris.sol\":7608:7609  0 */\n      0x00\n        /* \"contracts/stellaris.sol\":7599:7605  amount */\n      dup2\n        /* \"contracts/stellaris.sol\":7599:7609  amount > 0 */\n      gt\n        /* \"contracts/stellaris.sol\":7591:7655  require(amount > 0, \"Transfer amount must be greater than zero\") */\n      tag_260\n      jumpi\n      mload(0x40)\n      shl(0xe5, 0x461bcd)\n      dup2\n      mstore\n        /* \"#utility.yul\":9837:9839   */\n      0x20\n        /* \"contracts/stellaris.sol\":7591:7655  require(amount > 0, \"Transfer amount must be greater than zero\") */\n      0x04\n      dup3\n      add\n        /* \"#utility.yul\":9819:9840   */\n      mstore\n        /* \"#utility.yul\":9876:9878   */\n      0x29\n        /* \"#utility.yul\":9856:9874   */\n      0x24\n      dup3\n      add\n        /* \"#utility.yul\":9849:9879   */\n      mstore\n        /* \"#utility.yul\":9915:9949   */\n      0x5472616e7366657220616d6f756e74206d757374206265206772656174657220\n        /* \"#utility.yul\":9895:9913   */\n      0x44\n      dup3\n      add\n        /* \"#utility.yul\":9888:9950   */\n      mstore\n      shl(0xb8, 0x7468616e207a65726f)\n        /* \"#utility.yul\":9966:9984   */\n      0x64\n      dup3\n      add\n        /* \"#utility.yul\":9959:9998   */\n      mstore\n        /* \"#utility.yul\":10015:10034   */\n      0x84\n      add\n        /* \"contracts/stellaris.sol\":7591:7655  require(amount > 0, \"Transfer amount must be greater than zero\") */\n      tag_168\n        /* \"#utility.yul\":9635:10040   */\n      jump\n        /* \"contracts/stellaris.sol\":7591:7655  require(amount > 0, \"Transfer amount must be greater than zero\") */\n    tag_260:\n        /* \"contracts/stellaris.sol\":7666:7683  uint256 taxAmount */\n      0x00\n        /* \"contracts/stellaris.sol\":2971:2977  _owner */\n      dup1\n      sload\n      sub(shl(0xa0, 0x01), 0x01)\n        /* \"contracts/stellaris.sol\":7700:7715  from != owner() */\n      dup6\n      dup2\n      and\n        /* \"contracts/stellaris.sol\":2971:2977  _owner */\n      swap2\n      and\n        /* \"contracts/stellaris.sol\":7700:7715  from != owner() */\n      eq\n      dup1\n      iszero\n      swap1\n        /* \"contracts/stellaris.sol\":7700:7732  from != owner() && to != owner() */\n      tag_264\n      jumpi\n      pop\n        /* \"contracts/stellaris.sol\":2944:2951  address */\n      0x00\n        /* \"contracts/stellaris.sol\":2971:2977  _owner */\n      sload\n      sub(shl(0xa0, 0x01), 0x01)\n        /* \"contracts/stellaris.sol\":7719:7732  to != owner() */\n      dup5\n      dup2\n      and\n        /* \"contracts/stellaris.sol\":2971:2977  _owner */\n      swap2\n      and\n        /* \"contracts/stellaris.sol\":7719:7732  to != owner() */\n      eq\n      iszero\n        /* \"contracts/stellaris.sol\":7700:7732  from != owner() && to != owner() */\n    tag_264:\n        /* \"contracts/stellaris.sol\":7696:8457  if (from != owner() && to != owner()) {... */\n      iszero\n      tag_266\n      jumpi\n        /* \"contracts/stellaris.sol\":7765:7793  amount.mul(_buytax).div(100) */\n      tag_267\n        /* \"contracts/stellaris.sol\":7789:7792  100 */\n      0x64\n        /* \"contracts/stellaris.sol\":7765:7784  amount.mul(_buytax) */\n      tag_268\n        /* \"contracts/stellaris.sol\":7776:7783  _buytax */\n      sload(0x05)\n        /* \"contracts/stellaris.sol\":7765:7771  amount */\n      dup6\n        /* \"contracts/stellaris.sol\":7765:7775  amount.mul */\n      tag_269\n      swap1\n        /* \"contracts/stellaris.sol\":7765:7784  amount.mul(_buytax) */\n      swap2\n      swap1\n      0xffffffff\n      and\n      jump\t// in\n    tag_268:\n        /* \"contracts/stellaris.sol\":7765:7788  amount.mul(_buytax).div */\n      swap1\n      tag_270\n        /* \"contracts/stellaris.sol\":7765:7793  amount.mul(_buytax).div(100) */\n      jump\t// in\n    tag_267:\n        /* \"contracts/stellaris.sol\":7817:7830  uniswapV2Pair */\n      sload(0x0c)\n        /* \"contracts/stellaris.sol\":7753:7793  taxAmount = amount.mul(_buytax).div(100) */\n      swap1\n      swap2\n      pop\n      sub(shl(0xa0, 0x01), 0x01)\n        /* \"contracts/stellaris.sol\":7811:7830  to == uniswapV2Pair */\n      dup5\n      dup2\n      and\n        /* \"contracts/stellaris.sol\":7817:7830  uniswapV2Pair */\n      swap2\n      and\n        /* \"contracts/stellaris.sol\":7811:7830  to == uniswapV2Pair */\n      eq\n        /* \"contracts/stellaris.sol\":7811:7854  to == uniswapV2Pair && from!= address(this) */\n      dup1\n      iszero\n      tag_271\n      jumpi\n      pop\n      sub(shl(0xa0, 0x01), 0x01)\n        /* \"contracts/stellaris.sol\":7834:7854  from!= address(this) */\n      dup5\n      and\n        /* \"contracts/stellaris.sol\":7849:7853  this */\n      address\n        /* \"contracts/stellaris.sol\":7834:7854  from!= address(this) */\n      eq\n      iszero\n        /* \"contracts/stellaris.sol\":7811:7854  to == uniswapV2Pair && from!= address(this) */\n    tag_271:\n        /* \"contracts/stellaris.sol\":7808:7973  if(to == uniswapV2Pair && from!= address(this) ){... */\n      iszero\n      tag_272\n      jumpi\n        /* \"contracts/stellaris.sol\":7883:7889  tetori */\n      sload(0x04)\n        /* \"contracts/stellaris.sol\":7893:7896  200 */\n      0xc8\n      shl(0xa0, 0x01)\n        /* \"contracts/stellaris.sol\":7883:7889  tetori */\n      swap1\n      swap2\n      div\n      0x07\n      signextend\n        /* \"contracts/stellaris.sol\":7883:7896  tetori >= 200 */\n      slt\n      iszero\n        /* \"contracts/stellaris.sol\":7875:7897  require(tetori >= 200) */\n      tag_273\n      jumpi\n      0x00\n      dup1\n      revert\n    tag_273:\n        /* \"contracts/stellaris.sol\":7928:7957  amount.mul(_selltax).div(100) */\n      tag_274\n        /* \"contracts/stellaris.sol\":7953:7956  100 */\n      0x64\n        /* \"contracts/stellaris.sol\":7928:7948  amount.mul(_selltax) */\n      tag_268\n        /* \"contracts/stellaris.sol\":7939:7947  _selltax */\n      sload(0x06)\n        /* \"contracts/stellaris.sol\":7928:7934  amount */\n      dup6\n        /* \"contracts/stellaris.sol\":7928:7938  amount.mul */\n      tag_269\n      swap1\n        /* \"contracts/stellaris.sol\":7928:7948  amount.mul(_selltax) */\n      swap2\n      swap1\n      0xffffffff\n      and\n      jump\t// in\n        /* \"contracts/stellaris.sol\":7928:7957  amount.mul(_selltax).div(100) */\n    tag_274:\n        /* \"contracts/stellaris.sol\":7916:7957  taxAmount = amount.mul(_selltax).div(100) */\n      swap1\n      pop\n        /* \"contracts/stellaris.sol\":7808:7973  if(to == uniswapV2Pair && from!= address(this) ){... */\n    tag_272:\n        /* \"contracts/stellaris.sol\":8038:8042  this */\n      address\n        /* \"contracts/stellaris.sol\":7989:8017  uint256 contractTokenBalance */\n      0x00\n        /* \"contracts/stellaris.sol\":6164:6182  _balances[account] */\n      swap1\n      dup2\n      mstore\n        /* \"contracts/stellaris.sol\":6164:6173  _balances */\n      0x01\n        /* \"contracts/stellaris.sol\":6164:6182  _balances[account] */\n      0x20\n      mstore\n      0x40\n      swap1\n      keccak256\n      sload\n        /* \"contracts/stellaris.sol\":8064:8070  inSwap */\n      sload(0x0c)\n      shl(0xa8, 0x01)\n      swap1\n      div\n      0xff\n      and\n        /* \"contracts/stellaris.sol\":8063:8070  !inSwap */\n      iszero\n        /* \"contracts/stellaris.sol\":8063:8093  !inSwap && to == uniswapV2Pair */\n      dup1\n      iszero\n      tag_277\n      jumpi\n      pop\n        /* \"contracts/stellaris.sol\":8080:8093  uniswapV2Pair */\n      sload(0x0c)\n      sub(shl(0xa0, 0x01), 0x01)\n        /* \"contracts/stellaris.sol\":8074:8093  to == uniswapV2Pair */\n      dup6\n      dup2\n      and\n        /* \"contracts/stellaris.sol\":8080:8093  uniswapV2Pair */\n      swap2\n      and\n        /* \"contracts/stellaris.sol\":8074:8093  to == uniswapV2Pair */\n      eq\n        /* \"contracts/stellaris.sol\":8063:8093  !inSwap && to == uniswapV2Pair */\n    tag_277:\n        /* \"contracts/stellaris.sol\":8063:8108  !inSwap && to == uniswapV2Pair && swapEnabled */\n      dup1\n      iszero\n      tag_278\n      jumpi\n      pop\n        /* \"contracts/stellaris.sol\":8097:8108  swapEnabled */\n      sload(0x0c)\n      shl(0xb0, 0x01)\n      swap1\n      div\n      0xff\n      and\n        /* \"contracts/stellaris.sol\":8063:8108  !inSwap && to == uniswapV2Pair && swapEnabled */\n    tag_278:\n        /* \"contracts/stellaris.sol\":8063:8150  !inSwap && to == uniswapV2Pair && swapEnabled && contractTokenBalance>_taxSwapThreshold */\n      dup1\n      iszero\n      tag_279\n      jumpi\n      pop\n        /* \"contracts/stellaris.sol\":8133:8150  _taxSwapThreshold */\n      sload(0x09)\n        /* \"contracts/stellaris.sol\":8112:8132  contractTokenBalance */\n      dup2\n        /* \"contracts/stellaris.sol\":8112:8150  contractTokenBalance>_taxSwapThreshold */\n      gt\n        /* \"contracts/stellaris.sol\":8063:8150  !inSwap && to == uniswapV2Pair && swapEnabled && contractTokenBalance>_taxSwapThreshold */\n    tag_279:\n        /* \"contracts/stellaris.sol\":8059:8446  if (!inSwap && to == uniswapV2Pair && swapEnabled && contractTokenBalance>_taxSwapThreshold) {... */\n      iszero\n      tag_280\n      jumpi\n        /* \"contracts/stellaris.sol\":8171:8238  swapTokensForEth(min(amount,min(contractTokenBalance,_maxTaxSwap))) */\n      tag_281\n        /* \"contracts/stellaris.sol\":8188:8237  min(amount,min(contractTokenBalance,_maxTaxSwap)) */\n      tag_282\n        /* \"contracts/stellaris.sol\":8192:8198  amount */\n      dup5\n        /* \"contracts/stellaris.sol\":8199:8236  min(contractTokenBalance,_maxTaxSwap) */\n      tag_283\n        /* \"contracts/stellaris.sol\":8203:8223  contractTokenBalance */\n      dup5\n        /* \"contracts/stellaris.sol\":8224:8235  _maxTaxSwap */\n      sload(0x0a)\n        /* \"contracts/stellaris.sol\":8199:8202  min */\n      tag_284\n        /* \"contracts/stellaris.sol\":8199:8236  min(contractTokenBalance,_maxTaxSwap) */\n      jump\t// in\n    tag_283:\n        /* \"contracts/stellaris.sol\":8188:8191  min */\n      tag_284\n        /* \"contracts/stellaris.sol\":8188:8237  min(amount,min(contractTokenBalance,_maxTaxSwap)) */\n      jump\t// in\n    tag_282:\n        /* \"contracts/stellaris.sol\":8171:8187  swapTokensForEth */\n      tag_161\n        /* \"contracts/stellaris.sol\":8171:8238  swapTokensForEth(min(amount,min(contractTokenBalance,_maxTaxSwap))) */\n      jump\t// in\n    tag_281:\n        /* \"contracts/stellaris.sol\":8286:8307  address(this).balance */\n      selfbalance\n        /* \"contracts/stellaris.sol\":8329:8351  contractETHBalance > 0 */\n      dup1\n      iszero\n        /* \"contracts/stellaris.sol\":8326:8431  if(contractETHBalance > 0) {... */\n      tag_286\n      jumpi\n        /* \"contracts/stellaris.sol\":8376:8411  sendETHToFee(address(this).balance) */\n      tag_286\n        /* \"contracts/stellaris.sol\":8389:8410  address(this).balance */\n      selfbalance\n        /* \"contracts/stellaris.sol\":8376:8388  sendETHToFee */\n      tag_164\n        /* \"contracts/stellaris.sol\":8376:8411  sendETHToFee(address(this).balance) */\n      jump\t// in\n    tag_286:\n        /* \"contracts/stellaris.sol\":8152:8446  {... */\n      pop\n        /* \"contracts/stellaris.sol\":8059:8446  if (!inSwap && to == uniswapV2Pair && swapEnabled && contractTokenBalance>_taxSwapThreshold) {... */\n    tag_280:\n        /* \"contracts/stellaris.sol\":7734:8457  {... */\n      pop\n        /* \"contracts/stellaris.sol\":7696:8457  if (from != owner() && to != owner()) {... */\n    tag_266:\n        /* \"contracts/stellaris.sol\":8472:8483  taxAmount>0 */\n      dup1\n      iszero\n        /* \"contracts/stellaris.sol\":8469:8630  if(taxAmount>0){... */\n      tag_287\n      jumpi\n        /* \"contracts/stellaris.sol\":8540:8544  this */\n      address\n        /* \"contracts/stellaris.sol\":8522:8546  _balances[address(this)] */\n      0x00\n      swap1\n      dup2\n      mstore\n        /* \"contracts/stellaris.sol\":8522:8531  _balances */\n      0x01\n        /* \"contracts/stellaris.sol\":8522:8546  _balances[address(this)] */\n      0x20\n      mstore\n      0x40\n      swap1\n      keccak256\n      sload\n        /* \"contracts/stellaris.sol\":8522:8561  _balances[address(this)].add(taxAmount) */\n      tag_288\n      swap1\n        /* \"contracts/stellaris.sol\":8551:8560  taxAmount */\n      dup3\n        /* \"contracts/stellaris.sol\":8522:8550  _balances[address(this)].add */\n      tag_289\n        /* \"contracts/stellaris.sol\":8522:8561  _balances[address(this)].add(taxAmount) */\n      jump\t// in\n    tag_288:\n        /* \"contracts/stellaris.sol\":8515:8519  this */\n      address\n        /* \"contracts/stellaris.sol\":8497:8521  _balances[address(this)] */\n      0x00\n      dup2\n      dup2\n      mstore\n        /* \"contracts/stellaris.sol\":8497:8506  _balances */\n      0x01\n        /* \"contracts/stellaris.sol\":8497:8521  _balances[address(this)] */\n      0x20\n      mstore\n      0x40\n      swap1\n      dup2\n      swap1\n      keccak256\n        /* \"contracts/stellaris.sol\":8497:8561  _balances[address(this)]=_balances[address(this)].add(taxAmount) */\n      swap3\n      swap1\n      swap3\n      sstore\n        /* \"contracts/stellaris.sol\":8579:8618  Transfer(from, address(this),taxAmount) */\n      swap1\n      mload\n      sub(shl(0xa0, 0x01), 0x01)\n      dup7\n      and\n      swap1\n      0xddf252ad1be2c89b69c2b068fc378daa952ba7f163c4a11628f55a4df523b3ef\n      swap1\n      tag_290\n      swap1\n        /* \"contracts/stellaris.sol\":8608:8617  taxAmount */\n      dup6\n        /* \"#utility.yul\":1361:1386   */\n      dup2\n      mstore\n        /* \"#utility.yul\":1349:1351   */\n      0x20\n        /* \"#utility.yul\":1334:1352   */\n      add\n      swap1\n        /* \"#utility.yul\":1215:1392   */\n      jump\n        /* \"contracts/stellaris.sol\":8579:8618  Transfer(from, address(this),taxAmount) */\n    tag_290:\n      mload(0x40)\n      dup1\n      swap2\n      sub\n      swap1\n      log3\n        /* \"contracts/stellaris.sol\":8469:8630  if(taxAmount>0){... */\n    tag_287:\n      sub(shl(0xa0, 0x01), 0x01)\n        /* \"contracts/stellaris.sol\":8656:8671  _balances[from] */\n      dup5\n      and\n      0x00\n      swap1\n      dup2\n      mstore\n        /* \"contracts/stellaris.sol\":8656:8665  _balances */\n      0x01\n        /* \"contracts/stellaris.sol\":8656:8671  _balances[from] */\n      0x20\n      mstore\n      0x40\n      swap1\n      keccak256\n      sload\n        /* \"contracts/stellaris.sol\":8656:8683  _balances[from].sub(amount) */\n      tag_291\n      swap1\n        /* \"contracts/stellaris.sol\":8676:8682  amount */\n      dup4\n        /* \"contracts/stellaris.sol\":8656:8675  _balances[from].sub */\n      tag_292\n        /* \"contracts/stellaris.sol\":8656:8683  _balances[from].sub(amount) */\n      jump\t// in\n    tag_291:\n      sub(shl(0xa0, 0x01), 0x01)\n        /* \"contracts/stellaris.sol\":8640:8655  _balances[from] */\n      dup6\n      and\n      0x00\n      swap1\n      dup2\n      mstore\n        /* \"contracts/stellaris.sol\":8640:8649  _balances */\n      0x01\n        /* \"contracts/stellaris.sol\":8640:8655  _balances[from] */\n      0x20\n      mstore\n      0x40\n      swap1\n      keccak256\n        /* \"contracts/stellaris.sol\":8640:8683  _balances[from]=_balances[from].sub(amount) */\n      sstore\n        /* \"contracts/stellaris.sol\":8708:8748  _balances[to].add(amount.sub(taxAmount)) */\n      tag_293\n        /* \"contracts/stellaris.sol\":8726:8747  amount.sub(taxAmount) */\n      tag_294\n        /* \"contracts/stellaris.sol\":8726:8732  amount */\n      dup4\n        /* \"contracts/stellaris.sol\":8737:8746  taxAmount */\n      dup4\n        /* \"contracts/stellaris.sol\":8726:8736  amount.sub */\n      tag_292\n        /* \"contracts/stellaris.sol\":8726:8747  amount.sub(taxAmount) */\n      jump\t// in\n    tag_294:\n      sub(shl(0xa0, 0x01), 0x01)\n        /* \"contracts/stellaris.sol\":8708:8721  _balances[to] */\n      dup6\n      and\n      0x00\n      swap1\n      dup2\n      mstore\n        /* \"contracts/stellaris.sol\":8708:8717  _balances */\n      0x01\n        /* \"contracts/stellaris.sol\":8708:8721  _balances[to] */\n      0x20\n      mstore\n      0x40\n      swap1\n      keccak256\n      sload\n      swap1\n        /* \"contracts/stellaris.sol\":8708:8725  _balances[to].add */\n      tag_289\n        /* \"contracts/stellaris.sol\":8708:8748  _balances[to].add(amount.sub(taxAmount)) */\n      jump\t// in\n    tag_293:\n      sub(shl(0xa0, 0x01), 0x01)\n        /* \"contracts/stellaris.sol\":8694:8707  _balances[to] */\n      dup1\n      dup6\n      and\n      0x00\n      dup2\n      dup2\n      mstore\n        /* \"contracts/stellaris.sol\":8694:8703  _balances */\n      0x01\n        /* \"contracts/stellaris.sol\":8694:8707  _balances[to] */\n      0x20\n      mstore\n      0x40\n      swap1\n      keccak256\n        /* \"contracts/stellaris.sol\":8694:8748  _balances[to]=_balances[to].add(amount.sub(taxAmount)) */\n      swap3\n      swap1\n      swap3\n      sstore\n        /* \"contracts/stellaris.sol\":8764:8805  Transfer(from, to, amount.sub(taxAmount)) */\n      dup6\n      and\n      0xddf252ad1be2c89b69c2b068fc378daa952ba7f163c4a11628f55a4df523b3ef\n        /* \"contracts/stellaris.sol\":8783:8804  amount.sub(taxAmount) */\n      tag_295\n        /* \"contracts/stellaris.sol\":8783:8789  amount */\n      dup6\n        /* \"contracts/stellaris.sol\":8794:8803  taxAmount */\n      dup6\n        /* \"contracts/stellaris.sol\":8783:8793  amount.sub */\n      tag_292\n        /* \"contracts/stellaris.sol\":8783:8804  amount.sub(taxAmount) */\n      jump\t// in\n    tag_295:\n        /* \"contracts/stellaris.sol\":8764:8805  Transfer(from, to, amount.sub(taxAmount)) */\n      mload(0x40)\n        /* \"#utility.yul\":1361:1386   */\n      swap1\n      dup2\n      mstore\n        /* \"#utility.yul\":1349:1351   */\n      0x20\n        /* \"#utility.yul\":1334:1352   */\n      add\n        /* \"contracts/stellaris.sol\":8764:8805  Transfer(from, to, amount.sub(taxAmount)) */\n      mload(0x40)\n      dup1\n      swap2\n      sub\n      swap1\n      log3\n        /* \"contracts/stellaris.sol\":7426:8813  {... */\n      pop\n        /* \"contracts/stellaris.sol\":7357:8813  function _transfer(address from, address to, uint256 amount) private {... */\n      pop\n      pop\n      pop\n      jump\t// out\n        /* \"contracts/stellaris.sol\":1798:1988  function sub(uint256 a, uint256 b, string memory errorMessage) internal pure returns (uint256) {... */\n    tag_153:\n        /* \"contracts/stellaris.sol\":1884:1891  uint256 */\n      0x00\n        /* \"contracts/stellaris.sol\":1920:1932  errorMessage */\n      dup2\n        /* \"contracts/stellaris.sol\":1912:1918  b <= a */\n      dup5\n      dup5\n      gt\n      iszero\n        /* \"contracts/stellaris.sol\":1904:1933  require(b <= a, errorMessage) */\n      tag_298\n      jumpi\n      mload(0x40)\n      shl(0xe5, 0x461bcd)\n      dup2\n      mstore\n      0x04\n      add\n      tag_168\n      swap2\n      swap1\n      tag_35\n      jump\t// in\n    tag_298:\n      pop\n        /* \"contracts/stellaris.sol\":1944:1953  uint256 c */\n      0x00\n        /* \"contracts/stellaris.sol\":1956:1961  a - b */\n      tag_300\n        /* \"contracts/stellaris.sol\":1960:1961  b */\n      dup5\n        /* \"contracts/stellaris.sol\":1956:1957  a */\n      dup7\n        /* \"contracts/stellaris.sol\":1956:1961  a - b */\n      tag_301\n      jump\t// in\n    tag_300:\n        /* \"contracts/stellaris.sol\":1944:1961  uint256 c = a - b */\n      swap6\n        /* \"contracts/stellaris.sol\":1798:1988  function sub(uint256 a, uint256 b, string memory errorMessage) internal pure returns (uint256) {... */\n      swap5\n      pop\n      pop\n      pop\n      pop\n      pop\n      jump\t// out\n        /* \"contracts/stellaris.sol\":9572:10127  function swapTokensForEth(uint256 tokenAmount) private lockTheSwap {... */\n    tag_161:\n        /* \"contracts/stellaris.sol\":5251:5257  inSwap */\n      0x0c\n        /* \"contracts/stellaris.sol\":5251:5264  inSwap = true */\n      dup1\n      sload\n      not(shl(0xa8, 0xff))\n      and\n      shl(0xa8, 0x01)\n      or\n      swap1\n      sstore\n        /* \"contracts/stellaris.sol\":9650:9677  if(tokenAmount==0){return;} */\n      dup1\n      iszero\n        /* \"contracts/stellaris.sol\":9669:9676  return; */\n      tag_303\n        /* \"contracts/stellaris.sol\":9650:9677  if(tokenAmount==0){return;} */\n      jumpi\n        /* \"contracts/stellaris.sol\":9691:9702  tradingOpen */\n      sload(0x0c)\n      shl(0xa0, 0x01)\n      swap1\n      div\n      0xff\n      and\n        /* \"contracts/stellaris.sol\":9687:9712  if(!tradingOpen){return;} */\n      iszero\n        /* \"contracts/stellaris.sol\":9704:9711  return; */\n      tag_303\n        /* \"contracts/stellaris.sol\":9687:9712  if(!tradingOpen){return;} */\n      jumpi\n        /* \"contracts/stellaris.sol\":9746:9762  new address[](2) */\n      0x40\n      dup1\n      mload\n        /* \"contracts/stellaris.sol\":9760:9761  2 */\n      0x02\n        /* \"contracts/stellaris.sol\":9746:9762  new address[](2) */\n      dup1\n      dup3\n      mstore\n      0x60\n      dup3\n      add\n      dup4\n      mstore\n        /* \"contracts/stellaris.sol\":9722:9743  address[] memory path */\n      0x00\n      swap3\n        /* \"contracts/stellaris.sol\":9746:9762  new address[](2) */\n      0x20\n      dup4\n      add\n      swap1\n      dup1\n      calldatasize\n      dup4\n      calldatacopy\n      add\n      swap1\n      pop\n      pop\n        /* \"contracts/stellaris.sol\":9722:9762  address[] memory path = new address[](2) */\n      swap1\n      pop\n        /* \"contracts/stellaris.sol\":9791:9795  this */\n      address\n        /* \"contracts/stellaris.sol\":9773:9777  path */\n      dup2\n        /* \"contracts/stellaris.sol\":9778:9779  0 */\n      0x00\n        /* \"contracts/stellaris.sol\":9773:9780  path[0] */\n      dup2\n      mload\n      dup2\n      lt\n      tag_311\n      jumpi\n      tag_311\n      tag_312\n      jump\t// in\n    tag_311:\n      sub(shl(0xa0, 0x01), 0x01)\n        /* \"contracts/stellaris.sol\":9773:9796  path[0] = address(this) */\n      swap3\n      dup4\n      and\n        /* \"contracts/stellaris.sol\":9773:9780  path[0] */\n      0x20\n      swap2\n      dup3\n      mul\n      swap3\n      swap1\n      swap3\n      add\n      dup2\n      add\n        /* \"contracts/stellaris.sol\":9773:9796  path[0] = address(this) */\n      swap2\n      swap1\n      swap2\n      mstore\n        /* \"contracts/stellaris.sol\":9817:9832  uniswapV2Router */\n      sload(0x0b)\n        /* \"contracts/stellaris.sol\":9817:9839  uniswapV2Router.WETH() */\n      0x40\n      dup1\n      mload\n      shl(0xe3, 0x15ab88c9)\n      dup2\n      mstore\n      swap1\n      mload\n        /* \"contracts/stellaris.sol\":9817:9832  uniswapV2Router */\n      swap2\n      swap1\n      swap4\n      and\n      swap3\n        /* \"contracts/stellaris.sol\":9817:9837  uniswapV2Router.WETH */\n      0xad5c4648\n      swap3\n        /* \"contracts/stellaris.sol\":9817:9839  uniswapV2Router.WETH() */\n      0x04\n      dup1\n      dup4\n      add\n      swap4\n        /* \"contracts/stellaris.sol\":9773:9780  path[0] */\n      swap2\n      swap3\n        /* \"contracts/stellaris.sol\":9817:9839  uniswapV2Router.WETH() */\n      dup3\n      swap1\n      sub\n      add\n      dup2\n        /* \"contracts/stellaris.sol\":9817:9832  uniswapV2Router */\n      dup7\n        /* \"contracts/stellaris.sol\":9817:9839  uniswapV2Router.WETH() */\n      gas\n      staticcall\n      iszero\n      dup1\n      iszero\n      tag_314\n      jumpi\n      returndatasize\n      0x00\n      dup1\n      returndatacopy\n      revert(0x00, returndatasize)\n    tag_314:\n      pop\n      pop\n      pop\n      pop\n      mload(0x40)\n      returndatasize\n      not(0x1f)\n      0x1f\n      dup3\n      add\n      and\n      dup3\n      add\n      dup1\n      0x40\n      mstore\n      pop\n      dup2\n      add\n      swap1\n      tag_315\n      swap2\n      swap1\n      tag_214\n      jump\t// in\n    tag_315:\n        /* \"contracts/stellaris.sol\":9807:9811  path */\n      dup2\n        /* \"contracts/stellaris.sol\":9812:9813  1 */\n      0x01\n        /* \"contracts/stellaris.sol\":9807:9814  path[1] */\n      dup2\n      mload\n      dup2\n      lt\n      tag_317\n      jumpi\n      tag_317\n      tag_312\n      jump\t// in\n    tag_317:\n      sub(shl(0xa0, 0x01), 0x01)\n        /* \"contracts/stellaris.sol\":9807:9839  path[1] = uniswapV2Router.WETH() */\n      swap3\n      dup4\n      and\n        /* \"contracts/stellaris.sol\":9807:9814  path[1] */\n      0x20\n      swap2\n      dup3\n      mul\n      swap3\n      swap1\n      swap3\n      add\n      add\n        /* \"contracts/stellaris.sol\":9807:9839  path[1] = uniswapV2Router.WETH() */\n      mstore\n        /* \"contracts/stellaris.sol\":9882:9897  uniswapV2Router */\n      sload(0x0b)\n        /* \"contracts/stellaris.sol\":9850:9912  _approve(address(this), address(uniswapV2Router), tokenAmount) */\n      tag_318\n      swap2\n        /* \"contracts/stellaris.sol\":9867:9871  this */\n      address\n      swap2\n        /* \"contracts/stellaris.sol\":9882:9897  uniswapV2Router */\n      and\n        /* \"contracts/stellaris.sol\":9900:9911  tokenAmount */\n      dup5\n        /* \"contracts/stellaris.sol\":9850:9858  _approve */\n      tag_140\n        /* \"contracts/stellaris.sol\":9850:9912  _approve(address(this), address(uniswapV2Router), tokenAmount) */\n      jump\t// in\n    tag_318:\n        /* \"contracts/stellaris.sol\":9923:9938  uniswapV2Router */\n      sload(0x0b)\n        /* \"contracts/stellaris.sol\":9923:10119  uniswapV2Router.swapExactTokensForETHSupportingFeeOnTransferTokens(... */\n      mload(0x40)\n      shl(0xe0, 0x791ac947)\n      dup2\n      mstore\n      sub(shl(0xa0, 0x01), 0x01)\n        /* \"contracts/stellaris.sol\":9923:9938  uniswapV2Router */\n      swap1\n      swap2\n      and\n      swap1\n        /* \"contracts/stellaris.sol\":9923:9989  uniswapV2Router.swapExactTokensForETHSupportingFeeOnTransferTokens */\n      0x791ac947\n      swap1\n        /* \"contracts/stellaris.sol\":9923:10119  uniswapV2Router.swapExactTokensForETHSupportingFeeOnTransferTokens(... */\n      tag_319\n      swap1\n        /* \"contracts/stellaris.sol\":10004:10015  tokenAmount */\n      dup6\n      swap1\n        /* \"contracts/stellaris.sol\":9923:9938  uniswapV2Router */\n      0x00\n      swap1\n        /* \"contracts/stellaris.sol\":10046:10050  path */\n      dup7\n      swap1\n        /* \"contracts/stellaris.sol\":10073:10077  this */\n      address\n      swap1\n        /* \"contracts/stellaris.sol\":10093:10108  block.timestamp */\n      timestamp\n      swap1\n        /* \"contracts/stellaris.sol\":9923:10119  uniswapV2Router.swapExactTokensForETHSupportingFeeOnTransferTokens(... */\n      0x04\n      add\n      tag_320\n      jump\t// in\n    tag_319:\n      0x00\n      mload(0x40)\n      dup1\n      dup4\n      sub\n      dup2\n      0x00\n      dup8\n      dup1\n      extcodesize\n      iszero\n      dup1\n      iszero\n      tag_321\n      jumpi\n      0x00\n      dup1\n      revert\n    tag_321:\n      pop\n      gas\n      call\n      iszero\n      dup1\n      iszero\n      tag_323\n      jumpi\n      returndatasize\n      0x00\n      dup1\n      returndatacopy\n      revert(0x00, returndatasize)\n    tag_323:\n      pop\n      pop\n      pop\n      pop\n        /* \"contracts/stellaris.sol\":9639:10127  {... */\n      pop\n        /* \"contracts/stellaris.sol\":5275:5276  _ */\n    tag_303:\n      pop\n        /* \"contracts/stellaris.sol\":5287:5293  inSwap */\n      0x0c\n        /* \"contracts/stellaris.sol\":5287:5301  inSwap = false */\n      dup1\n      sload\n      not(shl(0xa8, 0xff))\n      and\n      swap1\n      sstore\n        /* \"contracts/stellaris.sol\":9572:10127  function swapTokensForEth(uint256 tokenAmount) private lockTheSwap {... */\n      jump\t// out\n        /* \"contracts/stellaris.sol\":10135:10227  function sendETHToFee(uint256 amount) private {... */\n    tag_164:\n        /* \"contracts/stellaris.sol\":10192:10202  _taxWallet */\n      sload(0x04)\n        /* \"contracts/stellaris.sol\":10192:10219  _taxWallet.transfer(amount) */\n      mload(0x40)\n      sub(shl(0xa0, 0x01), 0x01)\n        /* \"contracts/stellaris.sol\":10192:10202  _taxWallet */\n      swap1\n      swap2\n      and\n      swap1\n        /* \"contracts/stellaris.sol\":10192:10219  _taxWallet.transfer(amount) */\n      dup3\n      iszero\n      0x08fc\n      mul\n      swap1\n        /* \"contracts/stellaris.sol\":10212:10218  amount */\n      dup4\n      swap1\n        /* \"contracts/stellaris.sol\":10192:10202  _taxWallet */\n      0x00\n        /* \"contracts/stellaris.sol\":10192:10219  _taxWallet.transfer(amount) */\n      dup2\n        /* \"contracts/stellaris.sol\":10192:10202  _taxWallet */\n      dup2\n        /* \"contracts/stellaris.sol\":10192:10219  _taxWallet.transfer(amount) */\n      dup2\n        /* \"contracts/stellaris.sol\":10212:10218  amount */\n      dup6\n        /* \"contracts/stellaris.sol\":10192:10202  _taxWallet */\n      dup9\n        /* \"contracts/stellaris.sol\":10192:10219  _taxWallet.transfer(amount) */\n      dup9\n      call\n      swap4\n      pop\n      pop\n      pop\n      pop\n      iszero\n      dup1\n      iszero\n      tag_163\n      jumpi\n      returndatasize\n      0x00\n      dup1\n      returndatacopy\n      revert(0x00, returndatasize)\n        /* \"contracts/stellaris.sol\":1996:2242  function mul(uint256 a, uint256 b) internal pure returns (uint256) {... */\n    tag_269:\n        /* \"contracts/stellaris.sol\":2054:2061  uint256 */\n      0x00\n        /* \"contracts/stellaris.sol\":2078:2079  a */\n      dup3\n        /* \"contracts/stellaris.sol\":2083:2084  0 */\n      0x00\n        /* \"contracts/stellaris.sol\":2078:2084  a == 0 */\n      sub\n        /* \"contracts/stellaris.sol\":2074:2121  if (a == 0) {... */\n      tag_328\n      jumpi\n      pop\n        /* \"contracts/stellaris.sol\":2108:2109  0 */\n      0x00\n        /* \"contracts/stellaris.sol\":2101:2109  return 0 */\n      jump(tag_136)\n        /* \"contracts/stellaris.sol\":2074:2121  if (a == 0) {... */\n    tag_328:\n        /* \"contracts/stellaris.sol\":2131:2140  uint256 c */\n      0x00\n        /* \"contracts/stellaris.sol\":2143:2148  a * b */\n      tag_329\n        /* \"contracts/stellaris.sol\":2147:2148  b */\n      dup4\n        /* \"contracts/stellaris.sol\":2143:2144  a */\n      dup6\n        /* \"contracts/stellaris.sol\":2143:2148  a * b */\n      tag_145\n      jump\t// in\n    tag_329:\n        /* \"contracts/stellaris.sol\":2131:2148  uint256 c = a * b */\n      swap1\n      pop\n        /* \"contracts/stellaris.sol\":2176:2177  b */\n      dup3\n        /* \"contracts/stellaris.sol\":2167:2172  c / a */\n      tag_330\n        /* \"contracts/stellaris.sol\":2171:2172  a */\n      dup6\n        /* \"contracts/stellaris.sol\":2131:2148  uint256 c = a * b */\n      dup4\n        /* \"contracts/stellaris.sol\":2167:2172  c / a */\n      tag_175\n      jump\t// in\n    tag_330:\n        /* \"contracts/stellaris.sol\":2167:2177  c / a == b */\n      eq\n        /* \"contracts/stellaris.sol\":2159:2215  require(c / a == b, \"SafeMath: multiplication overflow\") */\n      tag_331\n      jumpi\n      mload(0x40)\n      shl(0xe5, 0x461bcd)\n      dup2\n      mstore\n        /* \"#utility.yul\":11629:11631   */\n      0x20\n        /* \"contracts/stellaris.sol\":2159:2215  require(c / a == b, \"SafeMath: multiplication overflow\") */\n      0x04\n      dup3\n      add\n        /* \"#utility.yul\":11611:11632   */\n      mstore\n        /* \"#utility.yul\":11668:11670   */\n      0x21\n        /* \"#utility.yul\":11648:11666   */\n      0x24\n      dup3\n      add\n        /* \"#utility.yul\":11641:11671   */\n      mstore\n        /* \"#utility.yul\":11707:11741   */\n      0x536166654d6174683a206d756c7469706c69636174696f6e206f766572666c6f\n        /* \"#utility.yul\":11687:11705   */\n      0x44\n      dup3\n      add\n        /* \"#utility.yul\":11680:11742   */\n      mstore\n      shl(0xf8, 0x77)\n        /* \"#utility.yul\":11758:11776   */\n      0x64\n      dup3\n      add\n        /* \"#utility.yul\":11751:11782   */\n      mstore\n        /* \"#utility.yul\":11799:11818   */\n      0x84\n      add\n        /* \"contracts/stellaris.sol\":2159:2215  require(c / a == b, \"SafeMath: multiplication overflow\") */\n      tag_168\n        /* \"#utility.yul\":11427:11824   */\n      jump\n        /* \"contracts/stellaris.sol\":2159:2215  require(c / a == b, \"SafeMath: multiplication overflow\") */\n    tag_331:\n        /* \"contracts/stellaris.sol\":2233:2234  c */\n      swap4\n        /* \"contracts/stellaris.sol\":1996:2242  function mul(uint256 a, uint256 b) internal pure returns (uint256) {... */\n      swap3\n      pop\n      pop\n      pop\n      jump\t// out\n        /* \"contracts/stellaris.sol\":2250:2382  function div(uint256 a, uint256 b) internal pure returns (uint256) {... */\n    tag_270:\n        /* \"contracts/stellaris.sol\":2308:2315  uint256 */\n      0x00\n        /* \"contracts/stellaris.sol\":2335:2374  div(a, b, \"SafeMath: division by zero\") */\n      tag_331\n        /* \"contracts/stellaris.sol\":2339:2340  a */\n      dup4\n        /* \"contracts/stellaris.sol\":2342:2343  b */\n      dup4\n        /* \"contracts/stellaris.sol\":2335:2374  div(a, b, \"SafeMath: division by zero\") */\n      mload(0x40)\n      dup1\n      0x40\n      add\n      0x40\n      mstore\n      dup1\n      0x1a\n      dup2\n      mstore\n      0x20\n      add\n      0x536166654d6174683a206469766973696f6e206279207a65726f000000000000\n      dup2\n      mstore\n      pop\n        /* \"contracts/stellaris.sol\":2335:2338  div */\n      tag_336\n        /* \"contracts/stellaris.sol\":2335:2374  div(a, b, \"SafeMath: division by zero\") */\n      jump\t// in\n        /* \"contracts/stellaris.sol\":9466:9564  function min(uint256 a, uint256 b) private pure returns (uint256){... */\n    tag_284:\n        /* \"contracts/stellaris.sol\":9523:9530  uint256 */\n      0x00\n        /* \"contracts/stellaris.sol\":9550:9551  b */\n      dup2\n        /* \"contracts/stellaris.sol\":9548:9549  a */\n      dup4\n        /* \"contracts/stellaris.sol\":9548:9551  a>b */\n      gt\n        /* \"contracts/stellaris.sol\":9547:9556  (a>b)?b:a */\n      tag_338\n      jumpi\n        /* \"contracts/stellaris.sol\":9555:9556  a */\n      dup3\n        /* \"contracts/stellaris.sol\":9547:9556  (a>b)?b:a */\n      jump(tag_331)\n    tag_338:\n      pop\n        /* \"contracts/stellaris.sol\":9553:9554  b */\n      swap2\n        /* \"contracts/stellaris.sol\":9466:9564  function min(uint256 a, uint256 b) private pure returns (uint256){... */\n      swap1\n      pop\n      jump\t// out\n        /* \"contracts/stellaris.sol\":1467:1646  function add(uint256 a, uint256 b) internal pure returns (uint256) {... */\n    tag_289:\n        /* \"contracts/stellaris.sol\":1525:1532  uint256 */\n      0x00\n      dup1\n        /* \"contracts/stellaris.sol\":1557:1562  a + b */\n      tag_341\n        /* \"contracts/stellaris.sol\":1561:1562  b */\n      dup4\n        /* \"contracts/stellaris.sol\":1557:1558  a */\n      dup6\n        /* \"contracts/stellaris.sol\":1557:1562  a + b */\n      tag_342\n      jump\t// in\n    tag_341:\n        /* \"contracts/stellaris.sol\":1545:1562  uint256 c = a + b */\n      swap1\n      pop\n        /* \"contracts/stellaris.sol\":1586:1587  a */\n      dup4\n        /* \"contracts/stellaris.sol\":1581:1582  c */\n      dup2\n        /* \"contracts/stellaris.sol\":1581:1587  c >= a */\n      lt\n      iszero\n        /* \"contracts/stellaris.sol\":1573:1619  require(c >= a, \"SafeMath: addition overflow\") */\n      tag_331\n      jumpi\n      mload(0x40)\n      shl(0xe5, 0x461bcd)\n      dup2\n      mstore\n        /* \"#utility.yul\":12161:12163   */\n      0x20\n        /* \"contracts/stellaris.sol\":1573:1619  require(c >= a, \"SafeMath: addition overflow\") */\n      0x04\n      dup3\n      add\n        /* \"#utility.yul\":12143:12164   */\n      mstore\n        /* \"#utility.yul\":12200:12202   */\n      0x1b\n        /* \"#utility.yul\":12180:12198   */\n      0x24\n      dup3\n      add\n        /* \"#utility.yul\":12173:12203   */\n      mstore\n        /* \"#utility.yul\":12239:12268   */\n      0x536166654d6174683a206164646974696f6e206f766572666c6f770000000000\n        /* \"#utility.yul\":12219:12237   */\n      0x44\n      dup3\n      add\n        /* \"#utility.yul\":12212:12269   */\n      mstore\n        /* \"#utility.yul\":12286:12304   */\n      0x64\n      add\n        /* \"contracts/stellaris.sol\":1573:1619  require(c >= a, \"SafeMath: addition overflow\") */\n      tag_168\n        /* \"#utility.yul\":11959:12310   */\n      jump\n        /* \"contracts/stellaris.sol\":1654:1790  function sub(uint256 a, uint256 b) internal pure returns (uint256) {... */\n    tag_292:\n        /* \"contracts/stellaris.sol\":1712:1719  uint256 */\n      0x00\n        /* \"contracts/stellaris.sol\":1739:1782  sub(a, b, \"SafeMath: subtraction overflow\") */\n      tag_331\n        /* \"contracts/stellaris.sol\":1743:1744  a */\n      dup4\n        /* \"contracts/stellaris.sol\":1746:1747  b */\n      dup4\n        /* \"contracts/stellaris.sol\":1739:1782  sub(a, b, \"SafeMath: subtraction overflow\") */\n      mload(0x40)\n      dup1\n      0x40\n      add\n      0x40\n      mstore\n      dup1\n      0x1e\n      dup2\n      mstore\n      0x20\n      add\n      0x536166654d6174683a207375627472616374696f6e206f766572666c6f770000\n      dup2\n      mstore\n      pop\n        /* \"contracts/stellaris.sol\":1739:1742  sub */\n      tag_153\n        /* \"contracts/stellaris.sol\":1739:1782  sub(a, b, \"SafeMath: subtraction overflow\") */\n      jump\t// in\n        /* \"contracts/stellaris.sol\":2390:2579  function div(uint256 a, uint256 b, string memory errorMessage) internal pure returns (uint256) {... */\n    tag_336:\n        /* \"contracts/stellaris.sol\":2476:2483  uint256 */\n      0x00\n        /* \"contracts/stellaris.sol\":2511:2523  errorMessage */\n      dup2\n        /* \"contracts/stellaris.sol\":2504:2509  b > 0 */\n      dup4\n        /* \"contracts/stellaris.sol\":2496:2524  require(b > 0, errorMessage) */\n      tag_349\n      jumpi\n      mload(0x40)\n      shl(0xe5, 0x461bcd)\n      dup2\n      mstore\n      0x04\n      add\n      tag_168\n      swap2\n      swap1\n      tag_35\n      jump\t// in\n    tag_349:\n      pop\n        /* \"contracts/stellaris.sol\":2535:2544  uint256 c */\n      0x00\n        /* \"contracts/stellaris.sol\":2547:2552  a / b */\n      tag_300\n        /* \"contracts/stellaris.sol\":2551:2552  b */\n      dup5\n        /* \"contracts/stellaris.sol\":2547:2548  a */\n      dup7\n        /* \"contracts/stellaris.sol\":2547:2552  a / b */\n      tag_175\n      jump\t// in\n        /* \"#utility.yul\":14:562   */\n    tag_35:\n        /* \"#utility.yul\":126:130   */\n      0x00\n        /* \"#utility.yul\":155:157   */\n      0x20\n        /* \"#utility.yul\":184:186   */\n      dup1\n        /* \"#utility.yul\":173:182   */\n      dup4\n        /* \"#utility.yul\":166:187   */\n      mstore\n        /* \"#utility.yul\":216:222   */\n      dup4\n        /* \"#utility.yul\":210:223   */\n      mload\n        /* \"#utility.yul\":259:265   */\n      dup1\n        /* \"#utility.yul\":254:256   */\n      dup3\n        /* \"#utility.yul\":243:252   */\n      dup6\n        /* \"#utility.yul\":239:257   */\n      add\n        /* \"#utility.yul\":232:266   */\n      mstore\n        /* \"#utility.yul\":284:285   */\n      0x00\n        /* \"#utility.yul\":294:434   */\n    tag_358:\n        /* \"#utility.yul\":308:314   */\n      dup2\n        /* \"#utility.yul\":305:306   */\n      dup2\n        /* \"#utility.yul\":302:315   */\n      lt\n        /* \"#utility.yul\":294:434   */\n      iszero\n      tag_360\n      jumpi\n        /* \"#utility.yul\":403:417   */\n      dup6\n      dup2\n      add\n        /* \"#utility.yul\":399:422   */\n      dup4\n      add\n        /* \"#utility.yul\":393:423   */\n      mload\n        /* \"#utility.yul\":369:386   */\n      dup6\n      dup3\n      add\n        /* \"#utility.yul\":388:390   */\n      0x40\n        /* \"#utility.yul\":365:391   */\n      add\n        /* \"#utility.yul\":358:424   */\n      mstore\n        /* \"#utility.yul\":323:333   */\n      dup3\n      add\n        /* \"#utility.yul\":294:434   */\n      jump(tag_358)\n    tag_360:\n        /* \"#utility.yul\":298:301   */\n      pop\n        /* \"#utility.yul\":483:484   */\n      0x00\n        /* \"#utility.yul\":478:480   */\n      0x40\n        /* \"#utility.yul\":469:475   */\n      dup3\n        /* \"#utility.yul\":458:467   */\n      dup7\n        /* \"#utility.yul\":454:476   */\n      add\n        /* \"#utility.yul\":450:481   */\n      add\n        /* \"#utility.yul\":443:485   */\n      mstore\n        /* \"#utility.yul\":553:555   */\n      0x40\n        /* \"#utility.yul\":546:548   */\n      0x1f\n        /* \"#utility.yul\":542:549   */\n      not\n        /* \"#utility.yul\":537:539   */\n      0x1f\n        /* \"#utility.yul\":529:535   */\n      dup4\n        /* \"#utility.yul\":525:540   */\n      add\n        /* \"#utility.yul\":521:550   */\n      and\n        /* \"#utility.yul\":510:519   */\n      dup6\n        /* \"#utility.yul\":506:551   */\n      add\n        /* \"#utility.yul\":502:556   */\n      add\n        /* \"#utility.yul\":494:556   */\n      swap3\n      pop\n      pop\n      pop\n        /* \"#utility.yul\":14:562   */\n      swap3\n      swap2\n      pop\n      pop\n      jump\t// out\n        /* \"#utility.yul\":567:698   */\n    tag_352:\n      sub(shl(0xa0, 0x01), 0x01)\n        /* \"#utility.yul\":642:673   */\n      dup2\n      and\n        /* \"#utility.yul\":632:674   */\n      dup2\n      eq\n        /* \"#utility.yul\":622:692   */\n      tag_176\n      jumpi\n        /* \"#utility.yul\":688:689   */\n      0x00\n        /* \"#utility.yul\":685:686   */\n      dup1\n        /* \"#utility.yul\":678:690   */\n      revert\n        /* \"#utility.yul\":703:1018   */\n    tag_39:\n        /* \"#utility.yul\":771:777   */\n      0x00\n        /* \"#utility.yul\":779:785   */\n      dup1\n        /* \"#utility.yul\":832:834   */\n      0x40\n        /* \"#utility.yul\":820:829   */\n      dup4\n        /* \"#utility.yul\":811:818   */\n      dup6\n        /* \"#utility.yul\":807:830   */\n      sub\n        /* \"#utility.yul\":803:835   */\n      slt\n        /* \"#utility.yul\":800:852   */\n      iszero\n      tag_364\n      jumpi\n        /* \"#utility.yul\":848:849   */\n      0x00\n        /* \"#utility.yul\":845:846   */\n      dup1\n        /* \"#utility.yul\":838:850   */\n      revert\n        /* \"#utility.yul\":800:852   */\n    tag_364:\n        /* \"#utility.yul\":887:896   */\n      dup3\n        /* \"#utility.yul\":874:897   */\n      calldataload\n        /* \"#utility.yul\":906:937   */\n      tag_365\n        /* \"#utility.yul\":931:936   */\n      dup2\n        /* \"#utility.yul\":906:937   */\n      tag_352\n      jump\t// in\n    tag_365:\n        /* \"#utility.yul\":956:961   */\n      swap5\n        /* \"#utility.yul\":1008:1010   */\n      0x20\n        /* \"#utility.yul\":993:1011   */\n      swap4\n      swap1\n      swap4\n      add\n        /* \"#utility.yul\":980:1012   */\n      calldataload\n      swap4\n      pop\n      pop\n      pop\n        /* \"#utility.yul\":703:1018   */\n      jump\t// out\n        /* \"#utility.yul\":1397:1853   */\n    tag_55:\n        /* \"#utility.yul\":1474:1480   */\n      0x00\n        /* \"#utility.yul\":1482:1488   */\n      dup1\n        /* \"#utility.yul\":1490:1496   */\n      0x00\n        /* \"#utility.yul\":1543:1545   */\n      0x60\n        /* \"#utility.yul\":1531:1540   */\n      dup5\n        /* \"#utility.yul\":1522:1529   */\n      dup7\n        /* \"#utility.yul\":1518:1541   */\n      sub\n        /* \"#utility.yul\":1514:1546   */\n      slt\n        /* \"#utility.yul\":1511:1563   */\n      iszero\n      tag_369\n      jumpi\n        /* \"#utility.yul\":1559:1560   */\n      0x00\n        /* \"#utility.yul\":1556:1557   */\n      dup1\n        /* \"#utility.yul\":1549:1561   */\n      revert\n        /* \"#utility.yul\":1511:1563   */\n    tag_369:\n        /* \"#utility.yul\":1598:1607   */\n      dup4\n        /* \"#utility.yul\":1585:1608   */\n      calldataload\n        /* \"#utility.yul\":1617:1648   */\n      tag_370\n        /* \"#utility.yul\":1642:1647   */\n      dup2\n        /* \"#utility.yul\":1617:1648   */\n      tag_352\n      jump\t// in\n    tag_370:\n        /* \"#utility.yul\":1667:1672   */\n      swap3\n      pop\n        /* \"#utility.yul\":1724:1726   */\n      0x20\n        /* \"#utility.yul\":1709:1727   */\n      dup5\n      add\n        /* \"#utility.yul\":1696:1728   */\n      calldataload\n        /* \"#utility.yul\":1737:1770   */\n      tag_371\n        /* \"#utility.yul\":1696:1728   */\n      dup2\n        /* \"#utility.yul\":1737:1770   */\n      tag_352\n      jump\t// in\n    tag_371:\n        /* \"#utility.yul\":1397:1853   */\n      swap3\n      swap6\n        /* \"#utility.yul\":1789:1796   */\n      swap3\n      swap5\n      pop\n      pop\n      pop\n        /* \"#utility.yul\":1843:1845   */\n      0x40\n        /* \"#utility.yul\":1828:1846   */\n      swap2\n      swap1\n      swap2\n      add\n        /* \"#utility.yul\":1815:1847   */\n      calldataload\n      swap1\n        /* \"#utility.yul\":1397:1853   */\n      jump\t// out\n        /* \"#utility.yul\":2047:2227   */\n    tag_69:\n        /* \"#utility.yul\":2106:2112   */\n      0x00\n        /* \"#utility.yul\":2159:2161   */\n      0x20\n        /* \"#utility.yul\":2147:2156   */\n      dup3\n        /* \"#utility.yul\":2138:2145   */\n      dup5\n        /* \"#utility.yul\":2134:2157   */\n      sub\n        /* \"#utility.yul\":2130:2162   */\n      slt\n        /* \"#utility.yul\":2127:2179   */\n      iszero\n      tag_374\n      jumpi\n        /* \"#utility.yul\":2175:2176   */\n      0x00\n        /* \"#utility.yul\":2172:2173   */\n      dup1\n        /* \"#utility.yul\":2165:2177   */\n      revert\n        /* \"#utility.yul\":2127:2179   */\n    tag_374:\n      pop\n        /* \"#utility.yul\":2198:2221   */\n      calldataload\n      swap2\n        /* \"#utility.yul\":2047:2227   */\n      swap1\n      pop\n      jump\t// out\n        /* \"#utility.yul\":2232:2479   */\n    tag_77:\n        /* \"#utility.yul\":2291:2297   */\n      0x00\n        /* \"#utility.yul\":2344:2346   */\n      0x20\n        /* \"#utility.yul\":2332:2341   */\n      dup3\n        /* \"#utility.yul\":2323:2330   */\n      dup5\n        /* \"#utility.yul\":2319:2342   */\n      sub\n        /* \"#utility.yul\":2315:2347   */\n      slt\n        /* \"#utility.yul\":2312:2364   */\n      iszero\n      tag_376\n      jumpi\n        /* \"#utility.yul\":2360:2361   */\n      0x00\n        /* \"#utility.yul\":2357:2358   */\n      dup1\n        /* \"#utility.yul\":2350:2362   */\n      revert\n        /* \"#utility.yul\":2312:2364   */\n    tag_376:\n        /* \"#utility.yul\":2399:2408   */\n      dup2\n        /* \"#utility.yul\":2386:2409   */\n      calldataload\n        /* \"#utility.yul\":2418:2449   */\n      tag_331\n        /* \"#utility.yul\":2443:2448   */\n      dup2\n        /* \"#utility.yul\":2418:2449   */\n      tag_352\n      jump\t// in\n        /* \"#utility.yul\":2952:3340   */\n    tag_128:\n        /* \"#utility.yul\":3020:3026   */\n      0x00\n        /* \"#utility.yul\":3028:3034   */\n      dup1\n        /* \"#utility.yul\":3081:3083   */\n      0x40\n        /* \"#utility.yul\":3069:3078   */\n      dup4\n        /* \"#utility.yul\":3060:3067   */\n      dup6\n        /* \"#utility.yul\":3056:3079   */\n      sub\n        /* \"#utility.yul\":3052:3084   */\n      slt\n        /* \"#utility.yul\":3049:3101   */\n      iszero\n      tag_383\n      jumpi\n        /* \"#utility.yul\":3097:3098   */\n      0x00\n        /* \"#utility.yul\":3094:3095   */\n      dup1\n        /* \"#utility.yul\":3087:3099   */\n      revert\n        /* \"#utility.yul\":3049:3101   */\n    tag_383:\n        /* \"#utility.yul\":3136:3145   */\n      dup3\n        /* \"#utility.yul\":3123:3146   */\n      calldataload\n        /* \"#utility.yul\":3155:3186   */\n      tag_384\n        /* \"#utility.yul\":3180:3185   */\n      dup2\n        /* \"#utility.yul\":3155:3186   */\n      tag_352\n      jump\t// in\n    tag_384:\n        /* \"#utility.yul\":3205:3210   */\n      swap2\n      pop\n        /* \"#utility.yul\":3262:3264   */\n      0x20\n        /* \"#utility.yul\":3247:3265   */\n      dup4\n      add\n        /* \"#utility.yul\":3234:3266   */\n      calldataload\n        /* \"#utility.yul\":3275:3308   */\n      tag_385\n        /* \"#utility.yul\":3234:3266   */\n      dup2\n        /* \"#utility.yul\":3275:3308   */\n      tag_352\n      jump\t// in\n    tag_385:\n        /* \"#utility.yul\":3327:3334   */\n      dup1\n        /* \"#utility.yul\":3317:3334   */\n      swap2\n      pop\n      pop\n        /* \"#utility.yul\":2952:3340   */\n      swap3\n      pop\n      swap3\n      swap1\n      pop\n      jump\t// out\n        /* \"#utility.yul\":3345:3472   */\n    tag_353:\n        /* \"#utility.yul\":3406:3416   */\n      0x4e487b71\n        /* \"#utility.yul\":3401:3404   */\n      0xe0\n        /* \"#utility.yul\":3397:3417   */\n      shl\n        /* \"#utility.yul\":3394:3395   */\n      0x00\n        /* \"#utility.yul\":3387:3418   */\n      mstore\n        /* \"#utility.yul\":3437:3441   */\n      0x11\n        /* \"#utility.yul\":3434:3435   */\n      0x04\n        /* \"#utility.yul\":3427:3442   */\n      mstore\n        /* \"#utility.yul\":3461:3465   */\n      0x24\n        /* \"#utility.yul\":3458:3459   */\n      0x00\n        /* \"#utility.yul\":3451:3466   */\n      revert\n        /* \"#utility.yul\":3477:3899   */\n    tag_354:\n        /* \"#utility.yul\":3566:3567   */\n      0x01\n        /* \"#utility.yul\":3609:3614   */\n      dup2\n        /* \"#utility.yul\":3566:3567   */\n      dup2\n        /* \"#utility.yul\":3623:3893   */\n    tag_388:\n        /* \"#utility.yul\":3644:3651   */\n      dup1\n        /* \"#utility.yul\":3634:3642   */\n      dup6\n        /* \"#utility.yul\":3631:3652   */\n      gt\n        /* \"#utility.yul\":3623:3893   */\n      iszero\n      tag_390\n      jumpi\n        /* \"#utility.yul\":3703:3707   */\n      dup2\n        /* \"#utility.yul\":3699:3700   */\n      0x00\n        /* \"#utility.yul\":3695:3701   */\n      not\n        /* \"#utility.yul\":3691:3708   */\n      div\n        /* \"#utility.yul\":3685:3689   */\n      dup3\n        /* \"#utility.yul\":3682:3709   */\n      gt\n        /* \"#utility.yul\":3679:3732   */\n      iszero\n      tag_392\n      jumpi\n        /* \"#utility.yul\":3712:3730   */\n      tag_392\n      tag_353\n      jump\t// in\n    tag_392:\n        /* \"#utility.yul\":3762:3769   */\n      dup1\n        /* \"#utility.yul\":3752:3760   */\n      dup6\n        /* \"#utility.yul\":3748:3770   */\n      and\n        /* \"#utility.yul\":3745:3800   */\n      iszero\n      tag_393\n      jumpi\n        /* \"#utility.yul\":3782:3798   */\n      swap2\n      dup2\n      mul\n      swap2\n        /* \"#utility.yul\":3745:3800   */\n    tag_393:\n        /* \"#utility.yul\":3861:3883   */\n      swap4\n      dup5\n      shr\n      swap4\n        /* \"#utility.yul\":3821:3836   */\n      swap1\n      dup1\n      mul\n      swap1\n        /* \"#utility.yul\":3623:3893   */\n      jump(tag_388)\n    tag_390:\n        /* \"#utility.yul\":3627:3630   */\n      pop\n        /* \"#utility.yul\":3477:3899   */\n      swap3\n      pop\n      swap3\n      swap1\n      pop\n      jump\t// out\n        /* \"#utility.yul\":3904:4710   */\n    tag_355:\n        /* \"#utility.yul\":3953:3958   */\n      0x00\n        /* \"#utility.yul\":3983:3991   */\n      dup3\n        /* \"#utility.yul\":3973:4053   */\n      tag_395\n      jumpi\n      pop\n        /* \"#utility.yul\":4024:4025   */\n      0x01\n        /* \"#utility.yul\":4038:4043   */\n      jump(tag_136)\n        /* \"#utility.yul\":3973:4053   */\n    tag_395:\n        /* \"#utility.yul\":4072:4076   */\n      dup2\n        /* \"#utility.yul\":4062:4138   */\n      tag_396\n      jumpi\n      pop\n        /* \"#utility.yul\":4109:4110   */\n      0x00\n        /* \"#utility.yul\":4123:4128   */\n      jump(tag_136)\n        /* \"#utility.yul\":4062:4138   */\n    tag_396:\n        /* \"#utility.yul\":4154:4158   */\n      dup2\n        /* \"#utility.yul\":4172:4173   */\n      0x01\n        /* \"#utility.yul\":4167:4226   */\n      dup2\n      eq\n      tag_398\n      jumpi\n        /* \"#utility.yul\":4240:4241   */\n      0x02\n        /* \"#utility.yul\":4235:4365   */\n      dup2\n      eq\n      tag_399\n      jumpi\n        /* \"#utility.yul\":4147:4365   */\n      jump(tag_397)\n        /* \"#utility.yul\":4167:4226   */\n    tag_398:\n        /* \"#utility.yul\":4197:4198   */\n      0x01\n        /* \"#utility.yul\":4188:4198   */\n      swap2\n      pop\n        /* \"#utility.yul\":4211:4216   */\n      pop\n      jump(tag_136)\n        /* \"#utility.yul\":4235:4365   */\n    tag_399:\n        /* \"#utility.yul\":4272:4275   */\n      0xff\n        /* \"#utility.yul\":4262:4270   */\n      dup5\n        /* \"#utility.yul\":4259:4276   */\n      gt\n        /* \"#utility.yul\":4256:4299   */\n      iszero\n      tag_401\n      jumpi\n        /* \"#utility.yul\":4279:4297   */\n      tag_401\n      tag_353\n      jump\t// in\n    tag_401:\n      pop\n      pop\n        /* \"#utility.yul\":4335:4336   */\n      0x01\n        /* \"#utility.yul\":4321:4337   */\n      dup3\n      shl\n        /* \"#utility.yul\":4350:4355   */\n      jump(tag_136)\n        /* \"#utility.yul\":4147:4365   */\n    tag_397:\n      pop\n        /* \"#utility.yul\":4449:4451   */\n      0x20\n        /* \"#utility.yul\":4439:4447   */\n      dup4\n        /* \"#utility.yul\":4436:4452   */\n      lt\n        /* \"#utility.yul\":4430:4433   */\n      0x0133\n        /* \"#utility.yul\":4424:4428   */\n      dup4\n        /* \"#utility.yul\":4421:4434   */\n      lt\n        /* \"#utility.yul\":4417:4453   */\n      and\n        /* \"#utility.yul\":4411:4413   */\n      0x4e\n        /* \"#utility.yul\":4401:4409   */\n      dup5\n        /* \"#utility.yul\":4398:4414   */\n      lt\n        /* \"#utility.yul\":4393:4395   */\n      0x0b\n        /* \"#utility.yul\":4387:4391   */\n      dup5\n        /* \"#utility.yul\":4384:4396   */\n      lt\n        /* \"#utility.yul\":4380:4415   */\n      and\n        /* \"#utility.yul\":4377:4454   */\n      or\n        /* \"#utility.yul\":4374:4533   */\n      iszero\n      tag_402\n      jumpi\n      pop\n        /* \"#utility.yul\":4486:4505   */\n      dup2\n      dup2\n      exp\n        /* \"#utility.yul\":4518:4523   */\n      jump(tag_136)\n        /* \"#utility.yul\":4374:4533   */\n    tag_402:\n        /* \"#utility.yul\":4565:4599   */\n      tag_403\n        /* \"#utility.yul\":4590:4598   */\n      dup4\n        /* \"#utility.yul\":4584:4588   */\n      dup4\n        /* \"#utility.yul\":4565:4599   */\n      tag_354\n      jump\t// in\n    tag_403:\n        /* \"#utility.yul\":4635:4641   */\n      dup1\n        /* \"#utility.yul\":4631:4632   */\n      0x00\n        /* \"#utility.yul\":4627:4633   */\n      not\n        /* \"#utility.yul\":4623:4642   */\n      div\n        /* \"#utility.yul\":4614:4621   */\n      dup3\n        /* \"#utility.yul\":4611:4643   */\n      gt\n        /* \"#utility.yul\":4608:4666   */\n      iszero\n      tag_405\n      jumpi\n        /* \"#utility.yul\":4646:4664   */\n      tag_405\n      tag_353\n      jump\t// in\n    tag_405:\n        /* \"#utility.yul\":4684:4704   */\n      mul\n      swap4\n        /* \"#utility.yul\":3904:4710   */\n      swap3\n      pop\n      pop\n      pop\n      jump\t// out\n        /* \"#utility.yul\":4715:4855   */\n    tag_143:\n        /* \"#utility.yul\":4773:4778   */\n      0x00\n        /* \"#utility.yul\":4802:4849   */\n      tag_331\n        /* \"#utility.yul\":4843:4847   */\n      0xff\n        /* \"#utility.yul\":4833:4841   */\n      dup5\n        /* \"#utility.yul\":4829:4848   */\n      and\n        /* \"#utility.yul\":4823:4827   */\n      dup4\n        /* \"#utility.yul\":4802:4849   */\n      tag_355\n      jump\t// in\n        /* \"#utility.yul\":4860:5028   */\n    tag_145:\n        /* \"#utility.yul\":4933:4942   */\n      dup1\n      dup3\n      mul\n        /* \"#utility.yul\":4964:4973   */\n      dup2\n      iszero\n        /* \"#utility.yul\":4981:4996   */\n      dup3\n      dup3\n      div\n        /* \"#utility.yul\":4975:4997   */\n      dup5\n      eq\n        /* \"#utility.yul\":4961:4998   */\n      or\n        /* \"#utility.yul\":4951:5022   */\n      tag_136\n      jumpi\n        /* \"#utility.yul\":5002:5020   */\n      tag_136\n      tag_353\n      jump\t// in\n        /* \"#utility.yul\":5033:5389   */\n    tag_169:\n        /* \"#utility.yul\":5235:5237   */\n      0x20\n        /* \"#utility.yul\":5217:5238   */\n      dup1\n      dup3\n      mstore\n        /* \"#utility.yul\":5254:5272   */\n      dup2\n      dup2\n      add\n        /* \"#utility.yul\":5247:5277   */\n      mstore\n        /* \"#utility.yul\":5313:5347   */\n      0x4f776e61626c653a2063616c6c6572206973206e6f7420746865206f776e6572\n        /* \"#utility.yul\":5308:5310   */\n      0x40\n        /* \"#utility.yul\":5293:5311   */\n      dup3\n      add\n        /* \"#utility.yul\":5286:5348   */\n      mstore\n        /* \"#utility.yul\":5380:5382   */\n      0x60\n        /* \"#utility.yul\":5365:5383   */\n      add\n      swap1\n        /* \"#utility.yul\":5033:5389   */\n      jump\t// out\n        /* \"#utility.yul\":5394:5611   */\n    tag_175:\n        /* \"#utility.yul\":5434:5435   */\n      0x00\n        /* \"#utility.yul\":5460:5461   */\n      dup3\n        /* \"#utility.yul\":5450:5582   */\n      tag_413\n      jumpi\n        /* \"#utility.yul\":5504:5514   */\n      0x4e487b71\n        /* \"#utility.yul\":5499:5502   */\n      0xe0\n        /* \"#utility.yul\":5495:5515   */\n      shl\n        /* \"#utility.yul\":5492:5493   */\n      0x00\n        /* \"#utility.yul\":5485:5516   */\n      mstore\n        /* \"#utility.yul\":5539:5543   */\n      0x12\n        /* \"#utility.yul\":5536:5537   */\n      0x04\n        /* \"#utility.yul\":5529:5544   */\n      mstore\n        /* \"#utility.yul\":5567:5571   */\n      0x24\n        /* \"#utility.yul\":5564:5565   */\n      0x00\n        /* \"#utility.yul\":5557:5572   */\n      revert\n        /* \"#utility.yul\":5450:5582   */\n    tag_413:\n      pop\n        /* \"#utility.yul\":5596:5605   */\n      div\n      swap1\n        /* \"#utility.yul\":5394:5611   */\n      jump\t// out\n        /* \"#utility.yul\":5968:6219   */\n    tag_214:\n        /* \"#utility.yul\":6038:6044   */\n      0x00\n        /* \"#utility.yul\":6091:6093   */\n      0x20\n        /* \"#utility.yul\":6079:6088   */\n      dup3\n        /* \"#utility.yul\":6070:6077   */\n      dup5\n        /* \"#utility.yul\":6066:6089   */\n      sub\n        /* \"#utility.yul\":6062:6094   */\n      slt\n        /* \"#utility.yul\":6059:6111   */\n      iszero\n      tag_416\n      jumpi\n        /* \"#utility.yul\":6107:6108   */\n      0x00\n        /* \"#utility.yul\":6104:6105   */\n      dup1\n        /* \"#utility.yul\":6097:6109   */\n      revert\n        /* \"#utility.yul\":6059:6111   */\n    tag_416:\n        /* \"#utility.yul\":6139:6148   */\n      dup2\n        /* \"#utility.yul\":6133:6149   */\n      mload\n        /* \"#utility.yul\":6158:6189   */\n      tag_331\n        /* \"#utility.yul\":6183:6188   */\n      dup2\n        /* \"#utility.yul\":6158:6189   */\n      tag_352\n      jump\t// in\n        /* \"#utility.yul\":7145:7451   */\n    tag_230:\n        /* \"#utility.yul\":7233:7239   */\n      0x00\n        /* \"#utility.yul\":7241:7247   */\n      dup1\n        /* \"#utility.yul\":7249:7255   */\n      0x00\n        /* \"#utility.yul\":7302:7304   */\n      0x60\n        /* \"#utility.yul\":7290:7299   */\n      dup5\n        /* \"#utility.yul\":7281:7288   */\n      dup7\n        /* \"#utility.yul\":7277:7300   */\n      sub\n        /* \"#utility.yul\":7273:7305   */\n      slt\n        /* \"#utility.yul\":7270:7322   */\n      iszero\n      tag_421\n      jumpi\n        /* \"#utility.yul\":7318:7319   */\n      0x00\n        /* \"#utility.yul\":7315:7316   */\n      dup1\n        /* \"#utility.yul\":7308:7320   */\n      revert\n        /* \"#utility.yul\":7270:7322   */\n    tag_421:\n        /* \"#utility.yul\":7347:7356   */\n      dup4\n        /* \"#utility.yul\":7341:7357   */\n      mload\n        /* \"#utility.yul\":7331:7357   */\n      swap3\n      pop\n        /* \"#utility.yul\":7397:7399   */\n      0x20\n        /* \"#utility.yul\":7386:7395   */\n      dup5\n        /* \"#utility.yul\":7382:7400   */\n      add\n        /* \"#utility.yul\":7376:7401   */\n      mload\n        /* \"#utility.yul\":7366:7401   */\n      swap2\n      pop\n        /* \"#utility.yul\":7441:7443   */\n      0x40\n        /* \"#utility.yul\":7430:7439   */\n      dup5\n        /* \"#utility.yul\":7426:7444   */\n      add\n        /* \"#utility.yul\":7420:7445   */\n      mload\n        /* \"#utility.yul\":7410:7445   */\n      swap1\n      pop\n        /* \"#utility.yul\":7145:7451   */\n      swap3\n      pop\n      swap3\n      pop\n      swap3\n      jump\t// out\n        /* \"#utility.yul\":7735:8012   */\n    tag_236:\n        /* \"#utility.yul\":7802:7808   */\n      0x00\n        /* \"#utility.yul\":7855:7857   */\n      0x20\n        /* \"#utility.yul\":7843:7852   */\n      dup3\n        /* \"#utility.yul\":7834:7841   */\n      dup5\n        /* \"#utility.yul\":7830:7853   */\n      sub\n        /* \"#utility.yul\":7826:7858   */\n      slt\n        /* \"#utility.yul\":7823:7875   */\n      iszero\n      tag_424\n      jumpi\n        /* \"#utility.yul\":7871:7872   */\n      0x00\n        /* \"#utility.yul\":7868:7869   */\n      dup1\n        /* \"#utility.yul\":7861:7873   */\n      revert\n        /* \"#utility.yul\":7823:7875   */\n    tag_424:\n        /* \"#utility.yul\":7903:7912   */\n      dup2\n        /* \"#utility.yul\":7897:7913   */\n      mload\n        /* \"#utility.yul\":7956:7961   */\n      dup1\n        /* \"#utility.yul\":7949:7962   */\n      iszero\n        /* \"#utility.yul\":7942:7963   */\n      iszero\n        /* \"#utility.yul\":7935:7940   */\n      dup2\n        /* \"#utility.yul\":7932:7964   */\n      eq\n        /* \"#utility.yul\":7922:7982   */\n      tag_331\n      jumpi\n        /* \"#utility.yul\":7978:7979   */\n      0x00\n        /* \"#utility.yul\":7975:7976   */\n      dup1\n        /* \"#utility.yul\":7968:7980   */\n      revert\n        /* \"#utility.yul\":10045:10173   */\n    tag_301:\n        /* \"#utility.yul\":10112:10121   */\n      dup2\n      dup2\n      sub\n        /* \"#utility.yul\":10133:10144   */\n      dup2\n      dup2\n      gt\n        /* \"#utility.yul\":10130:10167   */\n      iszero\n      tag_136\n      jumpi\n        /* \"#utility.yul\":10147:10165   */\n      tag_136\n      tag_353\n      jump\t// in\n        /* \"#utility.yul\":10310:10437   */\n    tag_312:\n        /* \"#utility.yul\":10371:10381   */\n      0x4e487b71\n        /* \"#utility.yul\":10366:10369   */\n      0xe0\n        /* \"#utility.yul\":10362:10382   */\n      shl\n        /* \"#utility.yul\":10359:10360   */\n      0x00\n        /* \"#utility.yul\":10352:10383   */\n      mstore\n        /* \"#utility.yul\":10402:10406   */\n      0x32\n        /* \"#utility.yul\":10399:10400   */\n      0x04\n        /* \"#utility.yul\":10392:10407   */\n      mstore\n        /* \"#utility.yul\":10426:10430   */\n      0x24\n        /* \"#utility.yul\":10423:10424   */\n      0x00\n        /* \"#utility.yul\":10416:10431   */\n      revert\n        /* \"#utility.yul\":10442:11422   */\n    tag_320:\n        /* \"#utility.yul\":10704:10708   */\n      0x00\n        /* \"#utility.yul\":10752:10755   */\n      0xa0\n        /* \"#utility.yul\":10741:10750   */\n      dup3\n        /* \"#utility.yul\":10737:10756   */\n      add\n        /* \"#utility.yul\":10783:10789   */\n      dup8\n        /* \"#utility.yul\":10772:10781   */\n      dup4\n        /* \"#utility.yul\":10765:10790   */\n      mstore\n        /* \"#utility.yul\":10809:10811   */\n      0x20\n        /* \"#utility.yul\":10847:10853   */\n      dup8\n        /* \"#utility.yul\":10842:10844   */\n      dup2\n        /* \"#utility.yul\":10831:10840   */\n      dup6\n        /* \"#utility.yul\":10827:10845   */\n      add\n        /* \"#utility.yul\":10820:10854   */\n      mstore\n        /* \"#utility.yul\":10890:10893   */\n      0xa0\n        /* \"#utility.yul\":10885:10887   */\n      0x40\n        /* \"#utility.yul\":10874:10883   */\n      dup6\n        /* \"#utility.yul\":10870:10888   */\n      add\n        /* \"#utility.yul\":10863:10894   */\n      mstore\n        /* \"#utility.yul\":10914:10920   */\n      dup2\n        /* \"#utility.yul\":10949:10955   */\n      dup8\n        /* \"#utility.yul\":10943:10956   */\n      mload\n        /* \"#utility.yul\":10980:10986   */\n      dup1\n        /* \"#utility.yul\":10972:10978   */\n      dup5\n        /* \"#utility.yul\":10965:10987   */\n      mstore\n        /* \"#utility.yul\":11018:11021   */\n      0xc0\n        /* \"#utility.yul\":11007:11016   */\n      dup7\n        /* \"#utility.yul\":11003:11022   */\n      add\n        /* \"#utility.yul\":10996:11022   */\n      swap2\n      pop\n        /* \"#utility.yul\":11057:11059   */\n      dup3\n        /* \"#utility.yul\":11049:11055   */\n      dup10\n        /* \"#utility.yul\":11045:11060   */\n      add\n        /* \"#utility.yul\":11031:11060   */\n      swap4\n      pop\n        /* \"#utility.yul\":11078:11079   */\n      0x00\n        /* \"#utility.yul\":11088:11283   */\n    tag_437:\n        /* \"#utility.yul\":11102:11108   */\n      dup2\n        /* \"#utility.yul\":11099:11100   */\n      dup2\n        /* \"#utility.yul\":11096:11109   */\n      lt\n        /* \"#utility.yul\":11088:11283   */\n      iszero\n      tag_439\n      jumpi\n        /* \"#utility.yul\":11167:11180   */\n      dup5\n      mload\n      sub(shl(0xa0, 0x01), 0x01)\n        /* \"#utility.yul\":11163:11202   */\n      and\n        /* \"#utility.yul\":11151:11203   */\n      dup4\n      mstore\n        /* \"#utility.yul\":11258:11273   */\n      swap4\n      dup4\n      add\n      swap4\n        /* \"#utility.yul\":11223:11235   */\n      swap2\n      dup4\n      add\n      swap2\n        /* \"#utility.yul\":11199:11200   */\n      0x01\n        /* \"#utility.yul\":11117:11126   */\n      add\n        /* \"#utility.yul\":11088:11283   */\n      jump(tag_437)\n    tag_439:\n      pop\n      pop\n      sub(shl(0xa0, 0x01), 0x01)\n        /* \"#utility.yul\":11339:11371   */\n      swap7\n      swap1\n      swap7\n      and\n        /* \"#utility.yul\":11334:11336   */\n      0x60\n        /* \"#utility.yul\":11319:11337   */\n      dup6\n      add\n        /* \"#utility.yul\":11312:11372   */\n      mstore\n      pop\n      pop\n      pop\n        /* \"#utility.yul\":11403:11406   */\n      0x80\n        /* \"#utility.yul\":11388:11407   */\n      add\n        /* \"#utility.yul\":11381:11416   */\n      mstore\n        /* \"#utility.yul\":11300:11303   */\n      swap4\n        /* \"#utility.yul\":10442:11422   */\n      swap3\n      pop\n      pop\n      pop\n      jump\t// out\n        /* \"#utility.yul\":11829:11954   */\n    tag_342:\n        /* \"#utility.yul\":11894:11903   */\n      dup1\n      dup3\n      add\n        /* \"#utility.yul\":11915:11925   */\n      dup1\n      dup3\n      gt\n        /* \"#utility.yul\":11912:11948   */\n      iszero\n      tag_136\n      jumpi\n        /* \"#utility.yul\":11928:11946   */\n      tag_136\n      tag_353\n      jump\t// in\n    stop\n    data_974d1b4421da69cc60b481194f0dad36a5bb4e23da810da7a7fb30cdba178330 45524332303a207472616e7366657220616d6f756e74206578636565647320616c6c6f77616e6365\n\n    auxdata: 0xa2646970667358221220b6d01f260112c7d85e617c320d0a2b5abc6c2d99a42e2c9cfe282defb236419f64736f6c63430008150033\n}\n",
				"bytecode": {
					"linkReferences": {},
					"object": "608060405260048054600160a01b600160e01b03191661010360a01b17905560026005819055600655620000366012600a62000394565b6200004690633b9aca00620003ab565b600755620000576012600a62000394565b6200006790633b9aca00620003ab565b6008556103e86200007b6012600a62000394565b6200008b90633b9aca00620003ab565b62000098906001620003ab565b620000a49190620003c5565b6009556064620000b76012600a62000394565b620000c790633b9aca00620003ab565b620000d4906001620003ab565b620000e09190620003c5565b600a55600c805461ffff60a81b19169055348015620000fd575f80fd5b505f80546001600160a01b031916339081178255604051909182917f8be0079c531659141344cd1fd0a4f28419497f9722a3daafe3b4186f6b6457e0908290a350600480546001600160a01b031916331790556200015e6012600a62000394565b6200016e90633b9aca00620003ab565b335f908152600160208190526040822092909255600390620001975f546001600160a01b031690565b6001600160a01b03908116825260208083019390935260409182015f908120805495151560ff1996871617905530815260039093528183208054851660019081179091556004549091168352908220805484168217905561dead9091527f262bb27bbdd95c1cdc8e16957e36e38579ea44f7f6413dd7a9c75939def06b2c8054909216179055620002253390565b6001600160a01b03165f7fddf252ad1be2c89b69c2b068fc378daa952ba7f163c4a11628f55a4df523b3ef6200025e6012600a62000394565b6200026e90633b9aca00620003ab565b60405190815260200160405180910390a3620003e5565b634e487b7160e01b5f52601160045260245ffd5b600181815b80851115620002d957815f1904821115620002bd57620002bd62000285565b80851615620002cb57918102915b93841c93908002906200029e565b509250929050565b5f82620002f1575060016200038e565b81620002ff57505f6200038e565b8160018114620003185760028114620003235762000343565b60019150506200038e565b60ff84111562000337576200033762000285565b50506001821b6200038e565b5060208310610133831016604e8410600b841016171562000368575081810a6200038e565b62000374838362000299565b805f19048211156200038a576200038a62000285565b0290505b92915050565b5f620003a460ff841683620002e1565b9392505050565b80820281158282048414176200038e576200038e62000285565b5f82620003e057634e487b7160e01b5f52601260045260245ffd5b500490565b61171180620003f35f395ff3fe60806040526004361061013f575f3560e01c80637d1db4a5116100b3578063a01ce4081161006d578063a01ce4081461038e578063a9059cbb146103ad578063bf474bed146103cc578063c9567bf9146103e1578063dd62ed3e146103f5578063e89e109d14610439575f80fd5b80637d1db4a5146102d5578063879120fc146102ea5780638da5cb5b146103095780638f9a55c01461033957806395d89b411461034e578063a01c348314610379575f80fd5b8063313ce56711610104578063313ce5671461021557806351bc3c85146102305780635c579404146102465780635e4ae81b1461026557806370a082311461028d578063715018a6146102c1575f80fd5b806306fdde031461014a578063095ea7b3146101905780630faee56f146101bf57806318160ddd146101e257806323b872dd146101f6575f80fd5b3661014657005b5f80fd5b348015610155575f80fd5b5060408051808201909152600c81526b105b9bdb8810dbdb9b9958dd60a21b60208201525b6040516101879190611308565b60405180910390f35b34801561019b575f80fd5b506101af6101aa366004611367565b610458565b6040519015158152602001610187565b3480156101ca575f80fd5b506101d4600a5481565b604051908152602001610187565b3480156101ed575f80fd5b506101d461046e565b348015610201575f80fd5b506101af610210366004611391565b61048e565b348015610220575f80fd5b5060405160128152602001610187565b34801561023b575f80fd5b506102446104f5565b005b348015610251575f80fd5b506102446102603660046113cf565b610546565b348015610270575f80fd5b506004805467ffffffffffffffff60a01b1916600b60a01b179055005b348015610298575f80fd5b506101d46102a73660046113e6565b6001600160a01b03165f9081526001602052604090205490565b3480156102cc575f80fd5b506102446105bc565b3480156102e0575f80fd5b506101d460075481565b3480156102f5575f80fd5b506102446103043660046113e6565b61062d565b348015610314575f80fd5b505f546001600160a01b03165b6040516001600160a01b039091168152602001610187565b348015610344575f80fd5b506101d460085481565b348015610359575f80fd5b50604080518082019091526003815262414e4360e81b602082015261017a565b348015610384575f80fd5b5061032161dead81565b348015610399575f80fd5b506102446103a83660046113cf565b610678565b3480156103b8575f80fd5b506101af6103c7366004611367565b6106b3565b3480156103d7575f80fd5b506101d460095481565b3480156103ec575f80fd5b506102446106bf565b348015610400575f80fd5b506101d461040f366004611401565b6001600160a01b039182165f90815260026020908152604080832093909416825291909152205490565b348015610444575f80fd5b506102446104533660046113cf565b610a68565b5f610464338484610aa1565b5060015b92915050565b5f61047b6012600a61152c565b61048990633b9aca0061153a565b905090565b5f61049a848484610bc4565b6104eb84336104e6856040518060600160405280602881526020016116b4602891396001600160a01b038a165f9081526002602090815260408083203384529091529020549190610f6b565b610aa1565b5060019392505050565b6004546001600160a01b0316336001600160a01b031614610514575f80fd5b305f9081526001602052604090205480156105325761053281610fa3565b478015610542576105428161112c565b5050565b5f546001600160a01b031633146105785760405162461bcd60e51b815260040161056f90611551565b60405180910390fd5b6064816105876012600a61152c565b61059590633b9aca0061153a565b61059f919061153a565b6105a99190611586565b60075560018110156105b9575f80fd5b50565b5f546001600160a01b031633146105e55760405162461bcd60e51b815260040161056f90611551565b5f80546040516001600160a01b03909116907f8be0079c531659141344cd1fd0a4f28419497f9722a3daafe3b4186f6b6457e0908390a35f80546001600160a01b0319169055565b5f546001600160a01b031633146106565760405162461bcd60e51b815260040161056f90611551565b600480546001600160a01b0319166001600160a01b0392909216919091179055565b5f546001600160a01b031633146106a15760405162461bcd60e51b815260040161056f90611551565b600681905560058111156105b9575f80fd5b5f610464338484610bc4565b5f546001600160a01b031633146106e85760405162461bcd60e51b815260040161056f90611551565b600c54600160a01b900460ff16156107425760405162461bcd60e51b815260206004820152601760248201527f74726164696e6720697320616c7265616479206f70656e000000000000000000604482015260640161056f565b600b80546001600160a01b031916737a250d5630b4cf539739df2c5dacb4c659f2488d90811790915561078b90309061077d6012600a61152c565b6104e690633b9aca0061153a565b600b5f9054906101000a90046001600160a01b03166001600160a01b031663c45a01556040518163ffffffff1660e01b8152600401602060405180830381865afa1580156107db573d5f803e3d5ffd5b505050506040513d601f19601f820116820180604052508101906107ff91906115a5565b6001600160a01b031663c9c6539630600b5f9054906101000a90046001600160a01b03166001600160a01b031663ad5c46486040518163ffffffff1660e01b8152600401602060405180830381865afa15801561085e573d5f803e3d5ffd5b505050506040513d601f19601f8201168201806040525081019061088291906115a5565b6040516001600160e01b031960e085901b1681526001600160a01b039283166004820152911660248201526044016020604051808303815f875af11580156108cc573d5f803e3d5ffd5b505050506040513d601f19601f820116820180604052508101906108f091906115a5565b600c80546001600160a01b039283166001600160a01b0319909116179055600b541663f305d7194730610937816001600160a01b03165f9081526001602052604090205490565b5f8061094a5f546001600160a01b031690565b60405160e088901b6001600160e01b03191681526001600160a01b03958616600482015260248101949094526044840192909252606483015290911660848201524260a482015260c40160606040518083038185885af11580156109b0573d5f803e3d5ffd5b50505050506040513d601f19601f820116820180604052508101906109d591906115c0565b5050600c54600b5460405163095ea7b360e01b81526001600160a01b0391821660048201525f1960248201529116915063095ea7b3906044016020604051808303815f875af1158015610a2a573d5f803e3d5ffd5b505050506040513d601f19601f82011682018060405250810190610a4e91906115eb565b50600c805462ff00ff60a01b19166201000160a01b179055565b5f546001600160a01b03163314610a915760405162461bcd60e51b815260040161056f90611551565b60058181558111156105b9575f80fd5b6001600160a01b038316610b035760405162461bcd60e51b8152602060048201526024808201527f45524332303a20617070726f76652066726f6d20746865207a65726f206164646044820152637265737360e01b606482015260840161056f565b6001600160a01b038216610b645760405162461bcd60e51b815260206004820152602260248201527f45524332303a20617070726f766520746f20746865207a65726f206164647265604482015261737360f01b606482015260840161056f565b6001600160a01b038381165f8181526002602090815260408083209487168084529482529182902085905590518481527f8c5be1e5ebec7d5bd14f71427d1e84f3dd0314c0f7b2291e5b200ac8c7c3b925910160405180910390a3505050565b6001600160a01b038316610c285760405162461bcd60e51b815260206004820152602560248201527f45524332303a207472616e736665722066726f6d20746865207a65726f206164604482015264647265737360d81b606482015260840161056f565b6001600160a01b038216610c8a5760405162461bcd60e51b815260206004820152602360248201527f45524332303a207472616e7366657220746f20746865207a65726f206164647260448201526265737360e81b606482015260840161056f565b5f8111610ceb5760405162461bcd60e51b815260206004820152602960248201527f5472616e7366657220616d6f756e74206d7573742062652067726561746572206044820152687468616e207a65726f60b81b606482015260840161056f565b5f80546001600160a01b03858116911614801590610d1657505f546001600160a01b03848116911614155b15610e2e57610d3b6064610d356005548561116390919063ffffffff16565b906111e8565b600c549091506001600160a01b038481169116148015610d6457506001600160a01b0384163014155b15610da05760045460c8600160a01b90910460070b1215610d83575f80fd5b610d9d6064610d356006548561116390919063ffffffff16565b90505b305f90815260016020526040902054600c54600160a81b900460ff16158015610dd65750600c546001600160a01b038581169116145b8015610deb5750600c54600160b01b900460ff165b8015610df8575060095481115b15610e2c57610e1a610e1584610e1084600a54611229565b611229565b610fa3565b478015610e2a57610e2a4761112c565b505b505b8015610ea657305f90815260016020526040902054610e4d908261123d565b305f81815260016020526040908190209290925590516001600160a01b038616907fddf252ad1be2c89b69c2b068fc378daa952ba7f163c4a11628f55a4df523b3ef90610e9d9085815260200190565b60405180910390a35b6001600160a01b0384165f90815260016020526040902054610ec8908361129b565b6001600160a01b0385165f90815260016020526040902055610f0b610eed838361129b565b6001600160a01b0385165f908152600160205260409020549061123d565b6001600160a01b038085165f8181526001602052604090209290925585167fddf252ad1be2c89b69c2b068fc378daa952ba7f163c4a11628f55a4df523b3ef610f54858561129b565b60405190815260200160405180910390a350505050565b5f8184841115610f8e5760405162461bcd60e51b815260040161056f9190611308565b505f610f9a848661160a565b95945050505050565b600c805460ff60a81b1916600160a81b179055801561111c57600c54600160a01b900460ff161561111c576040805160028082526060820183525f9260208301908036833701905050905030815f815181106110015761100161161d565b6001600160a01b03928316602091820292909201810191909152600b54604080516315ab88c960e31b81529051919093169263ad5c46489260048083019391928290030181865afa158015611058573d5f803e3d5ffd5b505050506040513d601f19601f8201168201806040525081019061107c91906115a5565b8160018151811061108f5761108f61161d565b6001600160a01b039283166020918202929092010152600b546110b59130911684610aa1565b600b5460405163791ac94760e01b81526001600160a01b039091169063791ac947906110ed9085905f90869030904290600401611631565b5f604051808303815f87803b158015611104575f80fd5b505af1158015611116573d5f803e3d5ffd5b50505050505b50600c805460ff60a81b19169055565b6004546040516001600160a01b039091169082156108fc029083905f818181858888f19350505050158015610542573d5f803e3d5ffd5b5f825f0361117257505f610468565b5f61117d838561153a565b90508261118a8583611586565b146111e15760405162461bcd60e51b815260206004820152602160248201527f536166654d6174683a206d756c7469706c69636174696f6e206f766572666c6f6044820152607760f81b606482015260840161056f565b9392505050565b5f6111e183836040518060400160405280601a81526020017f536166654d6174683a206469766973696f6e206279207a65726f0000000000008152506112dc565b5f81831161123757826111e1565b50919050565b5f8061124983856116a0565b9050838110156111e15760405162461bcd60e51b815260206004820152601b60248201527f536166654d6174683a206164646974696f6e206f766572666c6f770000000000604482015260640161056f565b5f6111e183836040518060400160405280601e81526020017f536166654d6174683a207375627472616374696f6e206f766572666c6f770000815250610f6b565b5f81836112fc5760405162461bcd60e51b815260040161056f9190611308565b505f610f9a8486611586565b5f6020808352835180828501525f5b8181101561133357858101830151858201604001528201611317565b505f604082860101526040601f19601f8301168501019250505092915050565b6001600160a01b03811681146105b9575f80fd5b5f8060408385031215611378575f80fd5b823561138381611353565b946020939093013593505050565b5f805f606084860312156113a3575f80fd5b83356113ae81611353565b925060208401356113be81611353565b929592945050506040919091013590565b5f602082840312156113df575f80fd5b5035919050565b5f602082840312156113f6575f80fd5b81356111e181611353565b5f8060408385031215611412575f80fd5b823561141d81611353565b9150602083013561142d81611353565b809150509250929050565b634e487b7160e01b5f52601160045260245ffd5b600181815b8085111561148657815f190482111561146c5761146c611438565b8085161561147957918102915b93841c9390800290611451565b509250929050565b5f8261149c57506001610468565b816114a857505f610468565b81600181146114be57600281146114c8576114e4565b6001915050610468565b60ff8411156114d9576114d9611438565b50506001821b610468565b5060208310610133831016604e8410600b8410161715611507575081810a610468565b611511838361144c565b805f190482111561152457611524611438565b029392505050565b5f6111e160ff84168361148e565b808202811582820484141761046857610468611438565b6020808252818101527f4f776e61626c653a2063616c6c6572206973206e6f7420746865206f776e6572604082015260600190565b5f826115a057634e487b7160e01b5f52601260045260245ffd5b500490565b5f602082840312156115b5575f80fd5b81516111e181611353565b5f805f606084860312156115d2575f80fd5b8351925060208401519150604084015190509250925092565b5f602082840312156115fb575f80fd5b815180151581146111e1575f80fd5b8181038181111561046857610468611438565b634e487b7160e01b5f52603260045260245ffd5b5f60a082018783526020878185015260a0604085015281875180845260c08601915082890193505f5b8181101561167f5784516001600160a01b03168352938301939183019160010161165a565b50506001600160a01b03969096166060850152505050608001529392505050565b808201808211156104685761046861143856fe45524332303a207472616e7366657220616d6f756e74206578636565647320616c6c6f77616e6365a2646970667358221220b6d01f260112c7d85e617c320d0a2b5abc6c2d99a42e2c9cfe282defb236419f64736f6c63430008150033",
					"opcodes": "PUSH1 0x80 PUSH1 0x40 MSTORE PUSH1 0x4 DUP1 SLOAD PUSH1 0x1 PUSH1 0xA0 SHL PUSH1 0x1 PUSH1 0xE0 SHL SUB NOT AND PUSH2 0x103 PUSH1 0xA0 SHL OR SWAP1 SSTORE PUSH1 0x2 PUSH1 0x5 DUP2 SWAP1 SSTORE PUSH1 0x6 SSTORE PUSH3 0x36 PUSH1 0x12 PUSH1 0xA PUSH3 0x394 JUMP JUMPDEST PUSH3 0x46 SWAP1 PUSH4 0x3B9ACA00 PUSH3 0x3AB JUMP JUMPDEST PUSH1 0x7 SSTORE PUSH3 0x57 PUSH1 0x12 PUSH1 0xA PUSH3 0x394 JUMP JUMPDEST PUSH3 0x67 SWAP1 PUSH4 0x3B9ACA00 PUSH3 0x3AB JUMP JUMPDEST PUSH1 0x8 SSTORE PUSH2 0x3E8 PUSH3 0x7B PUSH1 0x12 PUSH1 0xA PUSH3 0x394 JUMP JUMPDEST PUSH3 0x8B SWAP1 PUSH4 0x3B9ACA00 PUSH3 0x3AB JUMP JUMPDEST PUSH3 0x98 SWAP1 PUSH1 0x1 PUSH3 0x3AB JUMP JUMPDEST PUSH3 0xA4 SWAP2 SWAP1 PUSH3 0x3C5 JUMP JUMPDEST PUSH1 0x9 SSTORE PUSH1 0x64 PUSH3 0xB7 PUSH1 0x12 PUSH1 0xA PUSH3 0x394 JUMP JUMPDEST PUSH3 0xC7 SWAP1 PUSH4 0x3B9ACA00 PUSH3 0x3AB JUMP JUMPDEST PUSH3 0xD4 SWAP1 PUSH1 0x1 PUSH3 0x3AB JUMP JUMPDEST PUSH3 0xE0 SWAP2 SWAP1 PUSH3 0x3C5 JUMP JUMPDEST PUSH1 0xA SSTORE PUSH1 0xC DUP1 SLOAD PUSH2 0xFFFF PUSH1 0xA8 SHL NOT AND SWAP1 SSTORE CALLVALUE DUP1 ISZERO PUSH3 0xFD JUMPI PUSH0 DUP1 REVERT JUMPDEST POP PUSH0 DUP1 SLOAD PUSH1 0x1 PUSH1 0x1 PUSH1 0xA0 SHL SUB NOT AND CALLER SWAP1 DUP2 OR DUP3 SSTORE PUSH1 0x40 MLOAD SWAP1 SWAP2 DUP3 SWAP2 PUSH32 0x8BE0079C531659141344CD1FD0A4F28419497F9722A3DAAFE3B4186F6B6457E0 SWAP1 DUP3 SWAP1 LOG3 POP PUSH1 0x4 DUP1 SLOAD PUSH1 0x1 PUSH1 0x1 PUSH1 0xA0 SHL SUB NOT AND CALLER OR SWAP1 SSTORE PUSH3 0x15E PUSH1 0x12 PUSH1 0xA PUSH3 0x394 JUMP JUMPDEST PUSH3 0x16E SWAP1 PUSH4 0x3B9ACA00 PUSH3 0x3AB JUMP JUMPDEST CALLER PUSH0 SWAP1 DUP2 MSTORE PUSH1 0x1 PUSH1 0x20 DUP2 SWAP1 MSTORE PUSH1 0x40 DUP3 KECCAK256 SWAP3 SWAP1 SWAP3 SSTORE PUSH1 0x3 SWAP1 PUSH3 0x197 PUSH0 SLOAD PUSH1 0x1 PUSH1 0x1 PUSH1 0xA0 SHL SUB AND SWAP1 JUMP JUMPDEST PUSH1 0x1 PUSH1 0x1 PUSH1 0xA0 SHL SUB SWAP1 DUP2 AND DUP3 MSTORE PUSH1 0x20 DUP1 DUP4 ADD SWAP4 SWAP1 SWAP4 MSTORE PUSH1 0x40 SWAP2 DUP3 ADD PUSH0 SWAP1 DUP2 KECCAK256 DUP1 SLOAD SWAP6 ISZERO ISZERO PUSH1 0xFF NOT SWAP7 DUP8 AND OR SWAP1 SSTORE ADDRESS DUP2 MSTORE PUSH1 0x3 SWAP1 SWAP4 MSTORE DUP2 DUP4 KECCAK256 DUP1 SLOAD DUP6 AND PUSH1 0x1 SWAP1 DUP2 OR SWAP1 SWAP2 SSTORE PUSH1 0x4 SLOAD SWAP1 SWAP2 AND DUP4 MSTORE SWAP1 DUP3 KECCAK256 DUP1 SLOAD DUP5 AND DUP3 OR SWAP1 SSTORE PUSH2 0xDEAD SWAP1 SWAP2 MSTORE PUSH32 0x262BB27BBDD95C1CDC8E16957E36E38579EA44F7F6413DD7A9C75939DEF06B2C DUP1 SLOAD SWAP1 SWAP3 AND OR SWAP1 SSTORE PUSH3 0x225 CALLER SWAP1 JUMP JUMPDEST PUSH1 0x1 PUSH1 0x1 PUSH1 0xA0 SHL SUB AND PUSH0 PUSH32 0xDDF252AD1BE2C89B69C2B068FC378DAA952BA7F163C4A11628F55A4DF523B3EF PUSH3 0x25E PUSH1 0x12 PUSH1 0xA PUSH3 0x394 JUMP JUMPDEST PUSH3 0x26E SWAP1 PUSH4 0x3B9ACA00 PUSH3 0x3AB JUMP JUMPDEST PUSH1 0x40 MLOAD SWAP1 DUP2 MSTORE PUSH1 0x20 ADD PUSH1 0x40 MLOAD DUP1 SWAP2 SUB SWAP1 LOG3 PUSH3 0x3E5 JUMP JUMPDEST PUSH4 0x4E487B71 PUSH1 0xE0 SHL PUSH0 MSTORE PUSH1 0x11 PUSH1 0x4 MSTORE PUSH1 0x24 PUSH0 REVERT JUMPDEST PUSH1 0x1 DUP2 DUP2 JUMPDEST DUP1 DUP6 GT ISZERO PUSH3 0x2D9 JUMPI DUP2 PUSH0 NOT DIV DUP3 GT ISZERO PUSH3 0x2BD JUMPI PUSH3 0x2BD PUSH3 0x285 JUMP JUMPDEST DUP1 DUP6 AND ISZERO PUSH3 0x2CB JUMPI SWAP2 DUP2 MUL SWAP2 JUMPDEST SWAP4 DUP5 SHR SWAP4 SWAP1 DUP1 MUL SWAP1 PUSH3 0x29E JUMP JUMPDEST POP SWAP3 POP SWAP3 SWAP1 POP JUMP JUMPDEST PUSH0 DUP3 PUSH3 0x2F1 JUMPI POP PUSH1 0x1 PUSH3 0x38E JUMP JUMPDEST DUP2 PUSH3 0x2FF JUMPI POP PUSH0 PUSH3 0x38E JUMP JUMPDEST DUP2 PUSH1 0x1 DUP2 EQ PUSH3 0x318 JUMPI PUSH1 0x2 DUP2 EQ PUSH3 0x323 JUMPI PUSH3 0x343 JUMP JUMPDEST PUSH1 0x1 SWAP2 POP POP PUSH3 0x38E JUMP JUMPDEST PUSH1 0xFF DUP5 GT ISZERO PUSH3 0x337 JUMPI PUSH3 0x337 PUSH3 0x285 JUMP JUMPDEST POP POP PUSH1 0x1 DUP3 SHL PUSH3 0x38E JUMP JUMPDEST POP PUSH1 0x20 DUP4 LT PUSH2 0x133 DUP4 LT AND PUSH1 0x4E DUP5 LT PUSH1 0xB DUP5 LT AND OR ISZERO PUSH3 0x368 JUMPI POP DUP2 DUP2 EXP PUSH3 0x38E JUMP JUMPDEST PUSH3 0x374 DUP4 DUP4 PUSH3 0x299 JUMP JUMPDEST DUP1 PUSH0 NOT DIV DUP3 GT ISZERO PUSH3 0x38A JUMPI PUSH3 0x38A PUSH3 0x285 JUMP JUMPDEST MUL SWAP1 POP JUMPDEST SWAP3 SWAP2 POP POP JUMP JUMPDEST PUSH0 PUSH3 0x3A4 PUSH1 0xFF DUP5 AND DUP4 PUSH3 0x2E1 JUMP JUMPDEST SWAP4 SWAP3 POP POP POP JUMP JUMPDEST DUP1 DUP3 MUL DUP2 ISZERO DUP3 DUP3 DIV DUP5 EQ OR PUSH3 0x38E JUMPI PUSH3 0x38E PUSH3 0x285 JUMP JUMPDEST PUSH0 DUP3 PUSH3 0x3E0 JUMPI PUSH4 0x4E487B71 PUSH1 0xE0 SHL PUSH0 MSTORE PUSH1 0x12 PUSH1 0x4 MSTORE PUSH1 0x24 PUSH0 REVERT JUMPDEST POP DIV SWAP1 JUMP JUMPDEST PUSH2 0x1711 DUP1 PUSH3 0x3F3 PUSH0 CODECOPY PUSH0 RETURN INVALID PUSH1 0x80 PUSH1 0x40 MSTORE PUSH1 0x4 CALLDATASIZE LT PUSH2 0x13F JUMPI PUSH0 CALLDATALOAD PUSH1 0xE0 SHR DUP1 PUSH4 0x7D1DB4A5 GT PUSH2 0xB3 JUMPI DUP1 PUSH4 0xA01CE408 GT PUSH2 0x6D JUMPI DUP1 PUSH4 0xA01CE408 EQ PUSH2 0x38E JUMPI DUP1 PUSH4 0xA9059CBB EQ PUSH2 0x3AD JUMPI DUP1 PUSH4 0xBF474BED EQ PUSH2 0x3CC JUMPI DUP1 PUSH4 0xC9567BF9 EQ PUSH2 0x3E1 JUMPI DUP1 PUSH4 0xDD62ED3E EQ PUSH2 0x3F5 JUMPI DUP1 PUSH4 0xE89E109D EQ PUSH2 0x439 JUMPI PUSH0 DUP1 REVERT JUMPDEST DUP1 PUSH4 0x7D1DB4A5 EQ PUSH2 0x2D5 JUMPI DUP1 PUSH4 0x879120FC EQ PUSH2 0x2EA JUMPI DUP1 PUSH4 0x8DA5CB5B EQ PUSH2 0x309 JUMPI DUP1 PUSH4 0x8F9A55C0 EQ PUSH2 0x339 JUMPI DUP1 PUSH4 0x95D89B41 EQ PUSH2 0x34E JUMPI DUP1 PUSH4 0xA01C3483 EQ PUSH2 0x379 JUMPI PUSH0 DUP1 REVERT JUMPDEST DUP1 PUSH4 0x313CE567 GT PUSH2 0x104 JUMPI DUP1 PUSH4 0x313CE567 EQ PUSH2 0x215 JUMPI DUP1 PUSH4 0x51BC3C85 EQ PUSH2 0x230 JUMPI DUP1 PUSH4 0x5C579404 EQ PUSH2 0x246 JUMPI DUP1 PUSH4 0x5E4AE81B EQ PUSH2 0x265 JUMPI DUP1 PUSH4 0x70A08231 EQ PUSH2 0x28D JUMPI DUP1 PUSH4 0x715018A6 EQ PUSH2 0x2C1 JUMPI PUSH0 DUP1 REVERT JUMPDEST DUP1 PUSH4 0x6FDDE03 EQ PUSH2 0x14A JUMPI DUP1 PUSH4 0x95EA7B3 EQ PUSH2 0x190 JUMPI DUP1 PUSH4 0xFAEE56F EQ PUSH2 0x1BF JUMPI DUP1 PUSH4 0x18160DDD EQ PUSH2 0x1E2 JUMPI DUP1 PUSH4 0x23B872DD EQ PUSH2 0x1F6 JUMPI PUSH0 DUP1 REVERT JUMPDEST CALLDATASIZE PUSH2 0x146 JUMPI STOP JUMPDEST PUSH0 DUP1 REVERT JUMPDEST CALLVALUE DUP1 ISZERO PUSH2 0x155 JUMPI PUSH0 DUP1 REVERT JUMPDEST POP PUSH1 0x40 DUP1 MLOAD DUP1 DUP3 ADD SWAP1 SWAP2 MSTORE PUSH1 0xC DUP2 MSTORE PUSH12 0x105B9BDB8810DBDB9B9958DD PUSH1 0xA2 SHL PUSH1 0x20 DUP3 ADD MSTORE JUMPDEST PUSH1 0x40 MLOAD PUSH2 0x187 SWAP2 SWAP1 PUSH2 0x1308 JUMP JUMPDEST PUSH1 0x40 MLOAD DUP1 SWAP2 SUB SWAP1 RETURN JUMPDEST CALLVALUE DUP1 ISZERO PUSH2 0x19B JUMPI PUSH0 DUP1 REVERT JUMPDEST POP PUSH2 0x1AF PUSH2 0x1AA CALLDATASIZE PUSH1 0x4 PUSH2 0x1367 JUMP JUMPDEST PUSH2 0x458 JUMP JUMPDEST PUSH1 0x40 MLOAD SWAP1 ISZERO ISZERO DUP2 MSTORE PUSH1 0x20 ADD PUSH2 0x187 JUMP JUMPDEST CALLVALUE DUP1 ISZERO PUSH2 0x1CA JUMPI PUSH0 DUP1 REVERT JUMPDEST POP PUSH2 0x1D4 PUSH1 0xA SLOAD DUP2 JUMP JUMPDEST PUSH1 0x40 MLOAD SWAP1 DUP2 MSTORE PUSH1 0x20 ADD PUSH2 0x187 JUMP JUMPDEST CALLVALUE DUP1 ISZERO PUSH2 0x1ED JUMPI PUSH0 DUP1 REVERT JUMPDEST POP PUSH2 0x1D4 PUSH2 0x46E JUMP JUMPDEST CALLVALUE DUP1 ISZERO PUSH2 0x201 JUMPI PUSH0 DUP1 REVERT JUMPDEST POP PUSH2 0x1AF PUSH2 0x210 CALLDATASIZE PUSH1 0x4 PUSH2 0x1391 JUMP JUMPDEST PUSH2 0x48E JUMP JUMPDEST CALLVALUE DUP1 ISZERO PUSH2 0x220 JUMPI PUSH0 DUP1 REVERT JUMPDEST POP PUSH1 0x40 MLOAD PUSH1 0x12 DUP2 MSTORE PUSH1 0x20 ADD PUSH2 0x187 JUMP JUMPDEST CALLVALUE DUP1 ISZERO PUSH2 0x23B JUMPI PUSH0 DUP1 REVERT JUMPDEST POP PUSH2 0x244 PUSH2 0x4F5 JUMP JUMPDEST STOP JUMPDEST CALLVALUE DUP1 ISZERO PUSH2 0x251 JUMPI PUSH0 DUP1 REVERT JUMPDEST POP PUSH2 0x244 PUSH2 0x260 CALLDATASIZE PUSH1 0x4 PUSH2 0x13CF JUMP JUMPDEST PUSH2 0x546 JUMP JUMPDEST CALLVALUE DUP1 ISZERO PUSH2 0x270 JUMPI PUSH0 DUP1 REVERT JUMPDEST POP PUSH1 0x4 DUP1 SLOAD PUSH8 0xFFFFFFFFFFFFFFFF PUSH1 0xA0 SHL NOT AND PUSH1 0xB PUSH1 0xA0 SHL OR SWAP1 SSTORE STOP JUMPDEST CALLVALUE DUP1 ISZERO PUSH2 0x298 JUMPI PUSH0 DUP1 REVERT JUMPDEST POP PUSH2 0x1D4 PUSH2 0x2A7 CALLDATASIZE PUSH1 0x4 PUSH2 0x13E6 JUMP JUMPDEST PUSH1 0x1 PUSH1 0x1 PUSH1 0xA0 SHL SUB AND PUSH0 SWAP1 DUP2 MSTORE PUSH1 0x1 PUSH1 0x20 MSTORE PUSH1 0x40 SWAP1 KECCAK256 SLOAD SWAP1 JUMP JUMPDEST CALLVALUE DUP1 ISZERO PUSH2 0x2CC JUMPI PUSH0 DUP1 REVERT JUMPDEST POP PUSH2 0x244 PUSH2 0x5BC JUMP JUMPDEST CALLVALUE DUP1 ISZERO PUSH2 0x2E0 JUMPI PUSH0 DUP1 REVERT JUMPDEST POP PUSH2 0x1D4 PUSH1 0x7 SLOAD DUP2 JUMP JUMPDEST CALLVALUE DUP1 ISZERO PUSH2 0x2F5 JUMPI PUSH0 DUP1 REVERT JUMPDEST POP PUSH2 0x244 PUSH2 0x304 CALLDATASIZE PUSH1 0x4 PUSH2 0x13E6 JUMP JUMPDEST PUSH2 0x62D JUMP JUMPDEST CALLVALUE DUP1 ISZERO PUSH2 0x314 JUMPI PUSH0 DUP1 REVERT JUMPDEST POP PUSH0 SLOAD PUSH1 0x1 PUSH1 0x1 PUSH1 0xA0 SHL SUB AND JUMPDEST PUSH1 0x40 MLOAD PUSH1 0x1 PUSH1 0x1 PUSH1 0xA0 SHL SUB SWAP1 SWAP2 AND DUP2 MSTORE PUSH1 0x20 ADD PUSH2 0x187 JUMP JUMPDEST CALLVALUE DUP1 ISZERO PUSH2 0x344 JUMPI PUSH0 DUP1 REVERT JUMPDEST POP PUSH2 0x1D4 PUSH1 0x8 SLOAD DUP2 JUMP JUMPDEST CALLVALUE DUP1 ISZERO PUSH2 0x359 JUMPI PUSH0 DUP1 REVERT JUMPDEST POP PUSH1 0x40 DUP1 MLOAD DUP1 DUP3 ADD SWAP1 SWAP2 MSTORE PUSH1 0x3 DUP2 MSTORE PUSH3 0x414E43 PUSH1 0xE8 SHL PUSH1 0x20 DUP3 ADD MSTORE PUSH2 0x17A JUMP JUMPDEST CALLVALUE DUP1 ISZERO PUSH2 0x384 JUMPI PUSH0 DUP1 REVERT JUMPDEST POP PUSH2 0x321 PUSH2 0xDEAD DUP2 JUMP JUMPDEST CALLVALUE DUP1 ISZERO PUSH2 0x399 JUMPI PUSH0 DUP1 REVERT JUMPDEST POP PUSH2 0x244 PUSH2 0x3A8 CALLDATASIZE PUSH1 0x4 PUSH2 0x13CF JUMP JUMPDEST PUSH2 0x678 JUMP JUMPDEST CALLVALUE DUP1 ISZERO PUSH2 0x3B8 JUMPI PUSH0 DUP1 REVERT JUMPDEST POP PUSH2 0x1AF PUSH2 0x3C7 CALLDATASIZE PUSH1 0x4 PUSH2 0x1367 JUMP JUMPDEST PUSH2 0x6B3 JUMP JUMPDEST CALLVALUE DUP1 ISZERO PUSH2 0x3D7 JUMPI PUSH0 DUP1 REVERT JUMPDEST POP PUSH2 0x1D4 PUSH1 0x9 SLOAD DUP2 JUMP JUMPDEST CALLVALUE DUP1 ISZERO PUSH2 0x3EC JUMPI PUSH0 DUP1 REVERT JUMPDEST POP PUSH2 0x244 PUSH2 0x6BF JUMP JUMPDEST CALLVALUE DUP1 ISZERO PUSH2 0x400 JUMPI PUSH0 DUP1 REVERT JUMPDEST POP PUSH2 0x1D4 PUSH2 0x40F CALLDATASIZE PUSH1 0x4 PUSH2 0x1401 JUMP JUMPDEST PUSH1 0x1 PUSH1 0x1 PUSH1 0xA0 SHL SUB SWAP2 DUP3 AND PUSH0 SWAP1 DUP2 MSTORE PUSH1 0x2 PUSH1 0x20 SWAP1 DUP2 MSTORE PUSH1 0x40 DUP1 DUP4 KECCAK256 SWAP4 SWAP1 SWAP5 AND DUP3 MSTORE SWAP2 SWAP1 SWAP2 MSTORE KECCAK256 SLOAD SWAP1 JUMP JUMPDEST CALLVALUE DUP1 ISZERO PUSH2 0x444 JUMPI PUSH0 DUP1 REVERT JUMPDEST POP PUSH2 0x244 PUSH2 0x453 CALLDATASIZE PUSH1 0x4 PUSH2 0x13CF JUMP JUMPDEST PUSH2 0xA68 JUMP JUMPDEST PUSH0 PUSH2 0x464 CALLER DUP5 DUP5 PUSH2 0xAA1 JUMP JUMPDEST POP PUSH1 0x1 JUMPDEST SWAP3 SWAP2 POP POP JUMP JUMPDEST PUSH0 PUSH2 0x47B PUSH1 0x12 PUSH1 0xA PUSH2 0x152C JUMP JUMPDEST PUSH2 0x489 SWAP1 PUSH4 0x3B9ACA00 PUSH2 0x153A JUMP JUMPDEST SWAP1 POP SWAP1 JUMP JUMPDEST PUSH0 PUSH2 0x49A DUP5 DUP5 DUP5 PUSH2 0xBC4 JUMP JUMPDEST PUSH2 0x4EB DUP5 CALLER PUSH2 0x4E6 DUP6 PUSH1 0x40 MLOAD DUP1 PUSH1 0x60 ADD PUSH1 0x40 MSTORE DUP1 PUSH1 0x28 DUP2 MSTORE PUSH1 0x20 ADD PUSH2 0x16B4 PUSH1 0x28 SWAP2 CODECOPY PUSH1 0x1 PUSH1 0x1 PUSH1 0xA0 SHL SUB DUP11 AND PUSH0 SWAP1 DUP2 MSTORE PUSH1 0x2 PUSH1 0x20 SWAP1 DUP2 MSTORE PUSH1 0x40 DUP1 DUP4 KECCAK256 CALLER DUP5 MSTORE SWAP1 SWAP2 MSTORE SWAP1 KECCAK256 SLOAD SWAP2 SWAP1 PUSH2 0xF6B JUMP JUMPDEST PUSH2 0xAA1 JUMP JUMPDEST POP PUSH1 0x1 SWAP4 SWAP3 POP POP POP JUMP JUMPDEST PUSH1 0x4 SLOAD PUSH1 0x1 PUSH1 0x1 PUSH1 0xA0 SHL SUB AND CALLER PUSH1 0x1 PUSH1 0x1 PUSH1 0xA0 SHL SUB AND EQ PUSH2 0x514 JUMPI PUSH0 DUP1 REVERT JUMPDEST ADDRESS PUSH0 SWAP1 DUP2 MSTORE PUSH1 0x1 PUSH1 0x20 MSTORE PUSH1 0x40 SWAP1 KECCAK256 SLOAD DUP1 ISZERO PUSH2 0x532 JUMPI PUSH2 0x532 DUP2 PUSH2 0xFA3 JUMP JUMPDEST SELFBALANCE DUP1 ISZERO PUSH2 0x542 JUMPI PUSH2 0x542 DUP2 PUSH2 0x112C JUMP JUMPDEST POP POP JUMP JUMPDEST PUSH0 SLOAD PUSH1 0x1 PUSH1 0x1 PUSH1 0xA0 SHL SUB AND CALLER EQ PUSH2 0x578 JUMPI PUSH1 0x40 MLOAD PUSH3 0x461BCD PUSH1 0xE5 SHL DUP2 MSTORE PUSH1 0x4 ADD PUSH2 0x56F SWAP1 PUSH2 0x1551 JUMP JUMPDEST PUSH1 0x40 MLOAD DUP1 SWAP2 SUB SWAP1 REVERT JUMPDEST PUSH1 0x64 DUP2 PUSH2 0x587 PUSH1 0x12 PUSH1 0xA PUSH2 0x152C JUMP JUMPDEST PUSH2 0x595 SWAP1 PUSH4 0x3B9ACA00 PUSH2 0x153A JUMP JUMPDEST PUSH2 0x59F SWAP2 SWAP1 PUSH2 0x153A JUMP JUMPDEST PUSH2 0x5A9 SWAP2 SWAP1 PUSH2 0x1586 JUMP JUMPDEST PUSH1 0x7 SSTORE PUSH1 0x1 DUP2 LT ISZERO PUSH2 0x5B9 JUMPI PUSH0 DUP1 REVERT JUMPDEST POP JUMP JUMPDEST PUSH0 SLOAD PUSH1 0x1 PUSH1 0x1 PUSH1 0xA0 SHL SUB AND CALLER EQ PUSH2 0x5E5 JUMPI PUSH1 0x40 MLOAD PUSH3 0x461BCD PUSH1 0xE5 SHL DUP2 MSTORE PUSH1 0x4 ADD PUSH2 0x56F SWAP1 PUSH2 0x1551 JUMP JUMPDEST PUSH0 DUP1 SLOAD PUSH1 0x40 MLOAD PUSH1 0x1 PUSH1 0x1 PUSH1 0xA0 SHL SUB SWAP1 SWAP2 AND SWAP1 PUSH32 0x8BE0079C531659141344CD1FD0A4F28419497F9722A3DAAFE3B4186F6B6457E0 SWAP1 DUP4 SWAP1 LOG3 PUSH0 DUP1 SLOAD PUSH1 0x1 PUSH1 0x1 PUSH1 0xA0 SHL SUB NOT AND SWAP1 SSTORE JUMP JUMPDEST PUSH0 SLOAD PUSH1 0x1 PUSH1 0x1 PUSH1 0xA0 SHL SUB AND CALLER EQ PUSH2 0x656 JUMPI PUSH1 0x40 MLOAD PUSH3 0x461BCD PUSH1 0xE5 SHL DUP2 MSTORE PUSH1 0x4 ADD PUSH2 0x56F SWAP1 PUSH2 0x1551 JUMP JUMPDEST PUSH1 0x4 DUP1 SLOAD PUSH1 0x1 PUSH1 0x1 PUSH1 0xA0 SHL SUB NOT AND PUSH1 0x1 PUSH1 0x1 PUSH1 0xA0 SHL SUB SWAP3 SWAP1 SWAP3 AND SWAP2 SWAP1 SWAP2 OR SWAP1 SSTORE JUMP JUMPDEST PUSH0 SLOAD PUSH1 0x1 PUSH1 0x1 PUSH1 0xA0 SHL SUB AND CALLER EQ PUSH2 0x6A1 JUMPI PUSH1 0x40 MLOAD PUSH3 0x461BCD PUSH1 0xE5 SHL DUP2 MSTORE PUSH1 0x4 ADD PUSH2 0x56F SWAP1 PUSH2 0x1551 JUMP JUMPDEST PUSH1 0x6 DUP2 SWAP1 SSTORE PUSH1 0x5 DUP2 GT ISZERO PUSH2 0x5B9 JUMPI PUSH0 DUP1 REVERT JUMPDEST PUSH0 PUSH2 0x464 CALLER DUP5 DUP5 PUSH2 0xBC4 JUMP JUMPDEST PUSH0 SLOAD PUSH1 0x1 PUSH1 0x1 PUSH1 0xA0 SHL SUB AND CALLER EQ PUSH2 0x6E8 JUMPI PUSH1 0x40 MLOAD PUSH3 0x461BCD PUSH1 0xE5 SHL DUP2 MSTORE PUSH1 0x4 ADD PUSH2 0x56F SWAP1 PUSH2 0x1551 JUMP JUMPDEST PUSH1 0xC SLOAD PUSH1 0x1 PUSH1 0xA0 SHL SWAP1 DIV PUSH1 0xFF AND ISZERO PUSH2 0x742 JUMPI PUSH1 0x40 MLOAD PUSH3 0x461BCD PUSH1 0xE5 SHL DUP2 MSTORE PUSH1 0x20 PUSH1 0x4 DUP3 ADD MSTORE PUSH1 0x17 PUSH1 0x24 DUP3 ADD MSTORE PUSH32 0x74726164696E6720697320616C7265616479206F70656E000000000000000000 PUSH1 0x44 DUP3 ADD MSTORE PUSH1 0x64 ADD PUSH2 0x56F JUMP JUMPDEST PUSH1 0xB DUP1 SLOAD PUSH1 0x1 PUSH1 0x1 PUSH1 0xA0 SHL SUB NOT AND PUSH20 0x7A250D5630B4CF539739DF2C5DACB4C659F2488D SWAP1 DUP2 OR SWAP1 SWAP2 SSTORE PUSH2 0x78B SWAP1 ADDRESS SWAP1 PUSH2 0x77D PUSH1 0x12 PUSH1 0xA PUSH2 0x152C JUMP JUMPDEST PUSH2 0x4E6 SWAP1 PUSH4 0x3B9ACA00 PUSH2 0x153A JUMP JUMPDEST PUSH1 0xB PUSH0 SWAP1 SLOAD SWAP1 PUSH2 0x100 EXP SWAP1 DIV PUSH1 0x1 PUSH1 0x1 PUSH1 0xA0 SHL SUB AND PUSH1 0x1 PUSH1 0x1 PUSH1 0xA0 SHL SUB AND PUSH4 0xC45A0155 PUSH1 0x40 MLOAD DUP2 PUSH4 0xFFFFFFFF AND PUSH1 0xE0 SHL DUP2 MSTORE PUSH1 0x4 ADD PUSH1 0x20 PUSH1 0x40 MLOAD DUP1 DUP4 SUB DUP2 DUP7 GAS STATICCALL ISZERO DUP1 ISZERO PUSH2 0x7DB JUMPI RETURNDATASIZE PUSH0 DUP1 RETURNDATACOPY RETURNDATASIZE PUSH0 REVERT JUMPDEST POP POP POP POP PUSH1 0x40 MLOAD RETURNDATASIZE PUSH1 0x1F NOT PUSH1 0x1F DUP3 ADD AND DUP3 ADD DUP1 PUSH1 0x40 MSTORE POP DUP2 ADD SWAP1 PUSH2 0x7FF SWAP2 SWAP1 PUSH2 0x15A5 JUMP JUMPDEST PUSH1 0x1 PUSH1 0x1 PUSH1 0xA0 SHL SUB AND PUSH4 0xC9C65396 ADDRESS PUSH1 0xB PUSH0 SWAP1 SLOAD SWAP1 PUSH2 0x100 EXP SWAP1 DIV PUSH1 0x1 PUSH1 0x1 PUSH1 0xA0 SHL SUB AND PUSH1 0x1 PUSH1 0x1 PUSH1 0xA0 SHL SUB AND PUSH4 0xAD5C4648 PUSH1 0x40 MLOAD DUP2 PUSH4 0xFFFFFFFF AND PUSH1 0xE0 SHL DUP2 MSTORE PUSH1 0x4 ADD PUSH1 0x20 PUSH1 0x40 MLOAD DUP1 DUP4 SUB DUP2 DUP7 GAS STATICCALL ISZERO DUP1 ISZERO PUSH2 0x85E JUMPI RETURNDATASIZE PUSH0 DUP1 RETURNDATACOPY RETURNDATASIZE PUSH0 REVERT JUMPDEST POP POP POP POP PUSH1 0x40 MLOAD RETURNDATASIZE PUSH1 0x1F NOT PUSH1 0x1F DUP3 ADD AND DUP3 ADD DUP1 PUSH1 0x40 MSTORE POP DUP2 ADD SWAP1 PUSH2 0x882 SWAP2 SWAP1 PUSH2 0x15A5 JUMP JUMPDEST PUSH1 0x40 MLOAD PUSH1 0x1 PUSH1 0x1 PUSH1 0xE0 SHL SUB NOT PUSH1 0xE0 DUP6 SWAP1 SHL AND DUP2 MSTORE PUSH1 0x1 PUSH1 0x1 PUSH1 0xA0 SHL SUB SWAP3 DUP4 AND PUSH1 0x4 DUP3 ADD MSTORE SWAP2 AND PUSH1 0x24 DUP3 ADD MSTORE PUSH1 0x44 ADD PUSH1 0x20 PUSH1 0x40 MLOAD DUP1 DUP4 SUB DUP2 PUSH0 DUP8 GAS CALL ISZERO DUP1 ISZERO PUSH2 0x8CC JUMPI RETURNDATASIZE PUSH0 DUP1 RETURNDATACOPY RETURNDATASIZE PUSH0 REVERT JUMPDEST POP POP POP POP PUSH1 0x40 MLOAD RETURNDATASIZE PUSH1 0x1F NOT PUSH1 0x1F DUP3 ADD AND DUP3 ADD DUP1 PUSH1 0x40 MSTORE POP DUP2 ADD SWAP1 PUSH2 0x8F0 SWAP2 SWAP1 PUSH2 0x15A5 JUMP JUMPDEST PUSH1 0xC DUP1 SLOAD PUSH1 0x1 PUSH1 0x1 PUSH1 0xA0 SHL SUB SWAP3 DUP4 AND PUSH1 0x1 PUSH1 0x1 PUSH1 0xA0 SHL SUB NOT SWAP1 SWAP2 AND OR SWAP1 SSTORE PUSH1 0xB SLOAD AND PUSH4 0xF305D719 SELFBALANCE ADDRESS PUSH2 0x937 DUP2 PUSH1 0x1 PUSH1 0x1 PUSH1 0xA0 SHL SUB AND PUSH0 SWAP1 DUP2 MSTORE PUSH1 0x1 PUSH1 0x20 MSTORE PUSH1 0x40 SWAP1 KECCAK256 SLOAD SWAP1 JUMP JUMPDEST PUSH0 DUP1 PUSH2 0x94A PUSH0 SLOAD PUSH1 0x1 PUSH1 0x1 PUSH1 0xA0 SHL SUB AND SWAP1 JUMP JUMPDEST PUSH1 0x40 MLOAD PUSH1 0xE0 DUP9 SWAP1 SHL PUSH1 0x1 PUSH1 0x1 PUSH1 0xE0 SHL SUB NOT AND DUP2 MSTORE PUSH1 0x1 PUSH1 0x1 PUSH1 0xA0 SHL SUB SWAP6 DUP7 AND PUSH1 0x4 DUP3 ADD MSTORE PUSH1 0x24 DUP2 ADD SWAP5 SWAP1 SWAP5 MSTORE PUSH1 0x44 DUP5 ADD SWAP3 SWAP1 SWAP3 MSTORE PUSH1 0x64 DUP4 ADD MSTORE SWAP1 SWAP2 AND PUSH1 0x84 DUP3 ADD MSTORE TIMESTAMP PUSH1 0xA4 DUP3 ADD MSTORE PUSH1 0xC4 ADD PUSH1 0x60 PUSH1 0x40 MLOAD DUP1 DUP4 SUB DUP2 DUP6 DUP9 GAS CALL ISZERO DUP1 ISZERO PUSH2 0x9B0 JUMPI RETURNDATASIZE PUSH0 DUP1 RETURNDATACOPY RETURNDATASIZE PUSH0 REVERT JUMPDEST POP POP POP POP POP PUSH1 0x40 MLOAD RETURNDATASIZE PUSH1 0x1F NOT PUSH1 0x1F DUP3 ADD AND DUP3 ADD DUP1 PUSH1 0x40 MSTORE POP DUP2 ADD SWAP1 PUSH2 0x9D5 SWAP2 SWAP1 PUSH2 0x15C0 JUMP JUMPDEST POP POP PUSH1 0xC SLOAD PUSH1 0xB SLOAD PUSH1 0x40 MLOAD PUSH4 0x95EA7B3 PUSH1 0xE0 SHL DUP2 MSTORE PUSH1 0x1 PUSH1 0x1 PUSH1 0xA0 SHL SUB SWAP2 DUP3 AND PUSH1 0x4 DUP3 ADD MSTORE PUSH0 NOT PUSH1 0x24 DUP3 ADD MSTORE SWAP2 AND SWAP2 POP PUSH4 0x95EA7B3 SWAP1 PUSH1 0x44 ADD PUSH1 0x20 PUSH1 0x40 MLOAD DUP1 DUP4 SUB DUP2 PUSH0 DUP8 GAS CALL ISZERO DUP1 ISZERO PUSH2 0xA2A JUMPI RETURNDATASIZE PUSH0 DUP1 RETURNDATACOPY RETURNDATASIZE PUSH0 REVERT JUMPDEST POP POP POP POP PUSH1 0x40 MLOAD RETURNDATASIZE PUSH1 0x1F NOT PUSH1 0x1F DUP3 ADD AND DUP3 ADD DUP1 PUSH1 0x40 MSTORE POP DUP2 ADD SWAP1 PUSH2 0xA4E SWAP2 SWAP1 PUSH2 0x15EB JUMP JUMPDEST POP PUSH1 0xC DUP1 SLOAD PUSH3 0xFF00FF PUSH1 0xA0 SHL NOT AND PUSH3 0x10001 PUSH1 0xA0 SHL OR SWAP1 SSTORE JUMP JUMPDEST PUSH0 SLOAD PUSH1 0x1 PUSH1 0x1 PUSH1 0xA0 SHL SUB AND CALLER EQ PUSH2 0xA91 JUMPI PUSH1 0x40 MLOAD PUSH3 0x461BCD PUSH1 0xE5 SHL DUP2 MSTORE PUSH1 0x4 ADD PUSH2 0x56F SWAP1 PUSH2 0x1551 JUMP JUMPDEST PUSH1 0x5 DUP2 DUP2 SSTORE DUP2 GT ISZERO PUSH2 0x5B9 JUMPI PUSH0 DUP1 REVERT JUMPDEST PUSH1 0x1 PUSH1 0x1 PUSH1 0xA0 SHL SUB DUP4 AND PUSH2 0xB03 JUMPI PUSH1 0x40 MLOAD PUSH3 0x461BCD PUSH1 0xE5 SHL DUP2 MSTORE PUSH1 0x20 PUSH1 0x4 DUP3 ADD MSTORE PUSH1 0x24 DUP1 DUP3 ADD MSTORE PUSH32 0x45524332303A20617070726F76652066726F6D20746865207A65726F20616464 PUSH1 0x44 DUP3 ADD MSTORE PUSH4 0x72657373 PUSH1 0xE0 SHL PUSH1 0x64 DUP3 ADD MSTORE PUSH1 0x84 ADD PUSH2 0x56F JUMP JUMPDEST PUSH1 0x1 PUSH1 0x1 PUSH1 0xA0 SHL SUB DUP3 AND PUSH2 0xB64 JUMPI PUSH1 0x40 MLOAD PUSH3 0x461BCD PUSH1 0xE5 SHL DUP2 MSTORE PUSH1 0x20 PUSH1 0x4 DUP3 ADD MSTORE PUSH1 0x22 PUSH1 0x24 DUP3 ADD MSTORE PUSH32 0x45524332303A20617070726F766520746F20746865207A65726F206164647265 PUSH1 0x44 DUP3 ADD MSTORE PUSH2 0x7373 PUSH1 0xF0 SHL PUSH1 0x64 DUP3 ADD MSTORE PUSH1 0x84 ADD PUSH2 0x56F JUMP JUMPDEST PUSH1 0x1 PUSH1 0x1 PUSH1 0xA0 SHL SUB DUP4 DUP2 AND PUSH0 DUP2 DUP2 MSTORE PUSH1 0x2 PUSH1 0x20 SWAP1 DUP2 MSTORE PUSH1 0x40 DUP1 DUP4 KECCAK256 SWAP5 DUP8 AND DUP1 DUP5 MSTORE SWAP5 DUP3 MSTORE SWAP2 DUP3 SWAP1 KECCAK256 DUP6 SWAP1 SSTORE SWAP1 MLOAD DUP5 DUP2 MSTORE PUSH32 0x8C5BE1E5EBEC7D5BD14F71427D1E84F3DD0314C0F7B2291E5B200AC8C7C3B925 SWAP2 ADD PUSH1 0x40 MLOAD DUP1 SWAP2 SUB SWAP1 LOG3 POP POP POP JUMP JUMPDEST PUSH1 0x1 PUSH1 0x1 PUSH1 0xA0 SHL SUB DUP4 AND PUSH2 0xC28 JUMPI PUSH1 0x40 MLOAD PUSH3 0x461BCD PUSH1 0xE5 SHL DUP2 MSTORE PUSH1 0x20 PUSH1 0x4 DUP3 ADD MSTORE PUSH1 0x25 PUSH1 0x24 DUP3 ADD MSTORE PUSH32 0x45524332303A207472616E736665722066726F6D20746865207A65726F206164 PUSH1 0x44 DUP3 ADD MSTORE PUSH5 0x6472657373 PUSH1 0xD8 SHL PUSH1 0x64 DUP3 ADD MSTORE PUSH1 0x84 ADD PUSH2 0x56F JUMP JUMPDEST PUSH1 0x1 PUSH1 0x1 PUSH1 0xA0 SHL SUB DUP3 AND PUSH2 0xC8A JUMPI PUSH1 0x40 MLOAD PUSH3 0x461BCD PUSH1 0xE5 SHL DUP2 MSTORE PUSH1 0x20 PUSH1 0x4 DUP3 ADD MSTORE PUSH1 0x23 PUSH1 0x24 DUP3 ADD MSTORE PUSH32 0x45524332303A207472616E7366657220746F20746865207A65726F2061646472 PUSH1 0x44 DUP3 ADD MSTORE PUSH3 0x657373 PUSH1 0xE8 SHL PUSH1 0x64 DUP3 ADD MSTORE PUSH1 0x84 ADD PUSH2 0x56F JUMP JUMPDEST PUSH0 DUP2 GT PUSH2 0xCEB JUMPI PUSH1 0x40 MLOAD PUSH3 0x461BCD PUSH1 0xE5 SHL DUP2 MSTORE PUSH1 0x20 PUSH1 0x4 DUP3 ADD MSTORE PUSH1 0x29 PUSH1 0x24 DUP3 ADD MSTORE PUSH32 0x5472616E7366657220616D6F756E74206D757374206265206772656174657220 PUSH1 0x44 DUP3 ADD MSTORE PUSH9 0x7468616E207A65726F PUSH1 0xB8 SHL PUSH1 0x64 DUP3 ADD MSTORE PUSH1 0x84 ADD PUSH2 0x56F JUMP JUMPDEST PUSH0 DUP1 SLOAD PUSH1 0x1 PUSH1 0x1 PUSH1 0xA0 SHL SUB DUP6 DUP2 AND SWAP2 AND EQ DUP1 ISZERO SWAP1 PUSH2 0xD16 JUMPI POP PUSH0 SLOAD PUSH1 0x1 PUSH1 0x1 PUSH1 0xA0 SHL SUB DUP5 DUP2 AND SWAP2 AND EQ ISZERO JUMPDEST ISZERO PUSH2 0xE2E JUMPI PUSH2 0xD3B PUSH1 0x64 PUSH2 0xD35 PUSH1 0x5 SLOAD DUP6 PUSH2 0x1163 SWAP1 SWAP2 SWAP1 PUSH4 0xFFFFFFFF AND JUMP JUMPDEST SWAP1 PUSH2 0x11E8 JUMP JUMPDEST PUSH1 0xC SLOAD SWAP1 SWAP2 POP PUSH1 0x1 PUSH1 0x1 PUSH1 0xA0 SHL SUB DUP5 DUP2 AND SWAP2 AND EQ DUP1 ISZERO PUSH2 0xD64 JUMPI POP PUSH1 0x1 PUSH1 0x1 PUSH1 0xA0 SHL SUB DUP5 AND ADDRESS EQ ISZERO JUMPDEST ISZERO PUSH2 0xDA0 JUMPI PUSH1 0x4 SLOAD PUSH1 0xC8 PUSH1 0x1 PUSH1 0xA0 SHL SWAP1 SWAP2 DIV PUSH1 0x7 SIGNEXTEND SLT ISZERO PUSH2 0xD83 JUMPI PUSH0 DUP1 REVERT JUMPDEST PUSH2 0xD9D PUSH1 0x64 PUSH2 0xD35 PUSH1 0x6 SLOAD DUP6 PUSH2 0x1163 SWAP1 SWAP2 SWAP1 PUSH4 0xFFFFFFFF AND JUMP JUMPDEST SWAP1 POP JUMPDEST ADDRESS PUSH0 SWAP1 DUP2 MSTORE PUSH1 0x1 PUSH1 0x20 MSTORE PUSH1 0x40 SWAP1 KECCAK256 SLOAD PUSH1 0xC SLOAD PUSH1 0x1 PUSH1 0xA8 SHL SWAP1 DIV PUSH1 0xFF AND ISZERO DUP1 ISZERO PUSH2 0xDD6 JUMPI POP PUSH1 0xC SLOAD PUSH1 0x1 PUSH1 0x1 PUSH1 0xA0 SHL SUB DUP6 DUP2 AND SWAP2 AND EQ JUMPDEST DUP1 ISZERO PUSH2 0xDEB JUMPI POP PUSH1 0xC SLOAD PUSH1 0x1 PUSH1 0xB0 SHL SWAP1 DIV PUSH1 0xFF AND JUMPDEST DUP1 ISZERO PUSH2 0xDF8 JUMPI POP PUSH1 0x9 SLOAD DUP2 GT JUMPDEST ISZERO PUSH2 0xE2C JUMPI PUSH2 0xE1A PUSH2 0xE15 DUP5 PUSH2 0xE10 DUP5 PUSH1 0xA SLOAD PUSH2 0x1229 JUMP JUMPDEST PUSH2 0x1229 JUMP JUMPDEST PUSH2 0xFA3 JUMP JUMPDEST SELFBALANCE DUP1 ISZERO PUSH2 0xE2A JUMPI PUSH2 0xE2A SELFBALANCE PUSH2 0x112C JUMP JUMPDEST POP JUMPDEST POP JUMPDEST DUP1 ISZERO PUSH2 0xEA6 JUMPI ADDRESS PUSH0 SWAP1 DUP2 MSTORE PUSH1 0x1 PUSH1 0x20 MSTORE PUSH1 0x40 SWAP1 KECCAK256 SLOAD PUSH2 0xE4D SWAP1 DUP3 PUSH2 0x123D JUMP JUMPDEST ADDRESS PUSH0 DUP2 DUP2 MSTORE PUSH1 0x1 PUSH1 0x20 MSTORE PUSH1 0x40 SWAP1 DUP2 SWAP1 KECCAK256 SWAP3 SWAP1 SWAP3 SSTORE SWAP1 MLOAD PUSH1 0x1 PUSH1 0x1 PUSH1 0xA0 SHL SUB DUP7 AND SWAP1 PUSH32 0xDDF252AD1BE2C89B69C2B068FC378DAA952BA7F163C4A11628F55A4DF523B3EF SWAP1 PUSH2 0xE9D SWAP1 DUP6 DUP2 MSTORE PUSH1 0x20 ADD SWAP1 JUMP JUMPDEST PUSH1 0x40 MLOAD DUP1 SWAP2 SUB SWAP1 LOG3 JUMPDEST PUSH1 0x1 PUSH1 0x1 PUSH1 0xA0 SHL SUB DUP5 AND PUSH0 SWAP1 DUP2 MSTORE PUSH1 0x1 PUSH1 0x20 MSTORE PUSH1 0x40 SWAP1 KECCAK256 SLOAD PUSH2 0xEC8 SWAP1 DUP4 PUSH2 0x129B JUMP JUMPDEST PUSH1 0x1 PUSH1 0x1 PUSH1 0xA0 SHL SUB DUP6 AND PUSH0 SWAP1 DUP2 MSTORE PUSH1 0x1 PUSH1 0x20 MSTORE PUSH1 0x40 SWAP1 KECCAK256 SSTORE PUSH2 0xF0B PUSH2 0xEED DUP4 DUP4 PUSH2 0x129B JUMP JUMPDEST PUSH1 0x1 PUSH1 0x1 PUSH1 0xA0 SHL SUB DUP6 AND PUSH0 SWAP1 DUP2 MSTORE PUSH1 0x1 PUSH1 0x20 MSTORE PUSH1 0x40 SWAP1 KECCAK256 SLOAD SWAP1 PUSH2 0x123D JUMP JUMPDEST PUSH1 0x1 PUSH1 0x1 PUSH1 0xA0 SHL SUB DUP1 DUP6 AND PUSH0 DUP2 DUP2 MSTORE PUSH1 0x1 PUSH1 0x20 MSTORE PUSH1 0x40 SWAP1 KECCAK256 SWAP3 SWAP1 SWAP3 SSTORE DUP6 AND PUSH32 0xDDF252AD1BE2C89B69C2B068FC378DAA952BA7F163C4A11628F55A4DF523B3EF PUSH2 0xF54 DUP6 DUP6 PUSH2 0x129B JUMP JUMPDEST PUSH1 0x40 MLOAD SWAP1 DUP2 MSTORE PUSH1 0x20 ADD PUSH1 0x40 MLOAD DUP1 SWAP2 SUB SWAP1 LOG3 POP POP POP POP JUMP JUMPDEST PUSH0 DUP2 DUP5 DUP5 GT ISZERO PUSH2 0xF8E JUMPI PUSH1 0x40 MLOAD PUSH3 0x461BCD PUSH1 0xE5 SHL DUP2 MSTORE PUSH1 0x4 ADD PUSH2 0x56F SWAP2 SWAP1 PUSH2 0x1308 JUMP JUMPDEST POP PUSH0 PUSH2 0xF9A DUP5 DUP7 PUSH2 0x160A JUMP JUMPDEST SWAP6 SWAP5 POP POP POP POP POP JUMP JUMPDEST PUSH1 0xC DUP1 SLOAD PUSH1 0xFF PUSH1 0xA8 SHL NOT AND PUSH1 0x1 PUSH1 0xA8 SHL OR SWAP1 SSTORE DUP1 ISZERO PUSH2 0x111C JUMPI PUSH1 0xC SLOAD PUSH1 0x1 PUSH1 0xA0 SHL SWAP1 DIV PUSH1 0xFF AND ISZERO PUSH2 0x111C JUMPI PUSH1 0x40 DUP1 MLOAD PUSH1 0x2 DUP1 DUP3 MSTORE PUSH1 0x60 DUP3 ADD DUP4 MSTORE PUSH0 SWAP3 PUSH1 0x20 DUP4 ADD SWAP1 DUP1 CALLDATASIZE DUP4 CALLDATACOPY ADD SWAP1 POP POP SWAP1 POP ADDRESS DUP2 PUSH0 DUP2 MLOAD DUP2 LT PUSH2 0x1001 JUMPI PUSH2 0x1001 PUSH2 0x161D JUMP JUMPDEST PUSH1 0x1 PUSH1 0x1 PUSH1 0xA0 SHL SUB SWAP3 DUP4 AND PUSH1 0x20 SWAP2 DUP3 MUL SWAP3 SWAP1 SWAP3 ADD DUP2 ADD SWAP2 SWAP1 SWAP2 MSTORE PUSH1 0xB SLOAD PUSH1 0x40 DUP1 MLOAD PUSH4 0x15AB88C9 PUSH1 0xE3 SHL DUP2 MSTORE SWAP1 MLOAD SWAP2 SWAP1 SWAP4 AND SWAP3 PUSH4 0xAD5C4648 SWAP3 PUSH1 0x4 DUP1 DUP4 ADD SWAP4 SWAP2 SWAP3 DUP3 SWAP1 SUB ADD DUP2 DUP7 GAS STATICCALL ISZERO DUP1 ISZERO PUSH2 0x1058 JUMPI RETURNDATASIZE PUSH0 DUP1 RETURNDATACOPY RETURNDATASIZE PUSH0 REVERT JUMPDEST POP POP POP POP PUSH1 0x40 MLOAD RETURNDATASIZE PUSH1 0x1F NOT PUSH1 0x1F DUP3 ADD AND DUP3 ADD DUP1 PUSH1 0x40 MSTORE POP DUP2 ADD SWAP1 PUSH2 0x107C SWAP2 SWAP1 PUSH2 0x15A5 JUMP JUMPDEST DUP2 PUSH1 0x1 DUP2 MLOAD DUP2 LT PUSH2 0x108F JUMPI PUSH2 0x108F PUSH2 0x161D JUMP JUMPDEST PUSH1 0x1 PUSH1 0x1 PUSH1 0xA0 SHL SUB SWAP3 DUP4 AND PUSH1 0x20 SWAP2 DUP3 MUL SWAP3 SWAP1 SWAP3 ADD ADD MSTORE PUSH1 0xB SLOAD PUSH2 0x10B5 SWAP2 ADDRESS SWAP2 AND DUP5 PUSH2 0xAA1 JUMP JUMPDEST PUSH1 0xB SLOAD PUSH1 0x40 MLOAD PUSH4 0x791AC947 PUSH1 0xE0 SHL DUP2 MSTORE PUSH1 0x1 PUSH1 0x1 PUSH1 0xA0 SHL SUB SWAP1 SWAP2 AND SWAP1 PUSH4 0x791AC947 SWAP1 PUSH2 0x10ED SWAP1 DUP6 SWAP1 PUSH0 SWAP1 DUP7 SWAP1 ADDRESS SWAP1 TIMESTAMP SWAP1 PUSH1 0x4 ADD PUSH2 0x1631 JUMP JUMPDEST PUSH0 PUSH1 0x40 MLOAD DUP1 DUP4 SUB DUP2 PUSH0 DUP8 DUP1 EXTCODESIZE ISZERO DUP1 ISZERO PUSH2 0x1104 JUMPI PUSH0 DUP1 REVERT JUMPDEST POP GAS CALL ISZERO DUP1 ISZERO PUSH2 0x1116 JUMPI RETURNDATASIZE PUSH0 DUP1 RETURNDATACOPY RETURNDATASIZE PUSH0 REVERT JUMPDEST POP POP POP POP POP JUMPDEST POP PUSH1 0xC DUP1 SLOAD PUSH1 0xFF PUSH1 0xA8 SHL NOT AND SWAP1 SSTORE JUMP JUMPDEST PUSH1 0x4 SLOAD PUSH1 0x40 MLOAD PUSH1 0x1 PUSH1 0x1 PUSH1 0xA0 SHL SUB SWAP1 SWAP2 AND SWAP1 DUP3 ISZERO PUSH2 0x8FC MUL SWAP1 DUP4 SWAP1 PUSH0 DUP2 DUP2 DUP2 DUP6 DUP9 DUP9 CALL SWAP4 POP POP POP POP ISZERO DUP1 ISZERO PUSH2 0x542 JUMPI RETURNDATASIZE PUSH0 DUP1 RETURNDATACOPY RETURNDATASIZE PUSH0 REVERT JUMPDEST PUSH0 DUP3 PUSH0 SUB PUSH2 0x1172 JUMPI POP PUSH0 PUSH2 0x468 JUMP JUMPDEST PUSH0 PUSH2 0x117D DUP4 DUP6 PUSH2 0x153A JUMP JUMPDEST SWAP1 POP DUP3 PUSH2 0x118A DUP6 DUP4 PUSH2 0x1586 JUMP JUMPDEST EQ PUSH2 0x11E1 JUMPI PUSH1 0x40 MLOAD PUSH3 0x461BCD PUSH1 0xE5 SHL DUP2 MSTORE PUSH1 0x20 PUSH1 0x4 DUP3 ADD MSTORE PUSH1 0x21 PUSH1 0x24 DUP3 ADD MSTORE PUSH32 0x536166654D6174683A206D756C7469706C69636174696F6E206F766572666C6F PUSH1 0x44 DUP3 ADD MSTORE PUSH1 0x77 PUSH1 0xF8 SHL PUSH1 0x64 DUP3 ADD MSTORE PUSH1 0x84 ADD PUSH2 0x56F JUMP JUMPDEST SWAP4 SWAP3 POP POP POP JUMP JUMPDEST PUSH0 PUSH2 0x11E1 DUP4 DUP4 PUSH1 0x40 MLOAD DUP1 PUSH1 0x40 ADD PUSH1 0x40 MSTORE DUP1 PUSH1 0x1A DUP2 MSTORE PUSH1 0x20 ADD PUSH32 0x536166654D6174683A206469766973696F6E206279207A65726F000000000000 DUP2 MSTORE POP PUSH2 0x12DC JUMP JUMPDEST PUSH0 DUP2 DUP4 GT PUSH2 0x1237 JUMPI DUP3 PUSH2 0x11E1 JUMP JUMPDEST POP SWAP2 SWAP1 POP JUMP JUMPDEST PUSH0 DUP1 PUSH2 0x1249 DUP4 DUP6 PUSH2 0x16A0 JUMP JUMPDEST SWAP1 POP DUP4 DUP2 LT ISZERO PUSH2 0x11E1 JUMPI PUSH1 0x40 MLOAD PUSH3 0x461BCD PUSH1 0xE5 SHL DUP2 MSTORE PUSH1 0x20 PUSH1 0x4 DUP3 ADD MSTORE PUSH1 0x1B PUSH1 0x24 DUP3 ADD MSTORE PUSH32 0x536166654D6174683A206164646974696F6E206F766572666C6F770000000000 PUSH1 0x44 DUP3 ADD MSTORE PUSH1 0x64 ADD PUSH2 0x56F JUMP JUMPDEST PUSH0 PUSH2 0x11E1 DUP4 DUP4 PUSH1 0x40 MLOAD DUP1 PUSH1 0x40 ADD PUSH1 0x40 MSTORE DUP1 PUSH1 0x1E DUP2 MSTORE PUSH1 0x20 ADD PUSH32 0x536166654D6174683A207375627472616374696F6E206F766572666C6F770000 DUP2 MSTORE POP PUSH2 0xF6B JUMP JUMPDEST PUSH0 DUP2 DUP4 PUSH2 0x12FC JUMPI PUSH1 0x40 MLOAD PUSH3 0x461BCD PUSH1 0xE5 SHL DUP2 MSTORE PUSH1 0x4 ADD PUSH2 0x56F SWAP2 SWAP1 PUSH2 0x1308 JUMP JUMPDEST POP PUSH0 PUSH2 0xF9A DUP5 DUP7 PUSH2 0x1586 JUMP JUMPDEST PUSH0 PUSH1 0x20 DUP1 DUP4 MSTORE DUP4 MLOAD DUP1 DUP3 DUP6 ADD MSTORE PUSH0 JUMPDEST DUP2 DUP2 LT ISZERO PUSH2 0x1333 JUMPI DUP6 DUP2 ADD DUP4 ADD MLOAD DUP6 DUP3 ADD PUSH1 0x40 ADD MSTORE DUP3 ADD PUSH2 0x1317 JUMP JUMPDEST POP PUSH0 PUSH1 0x40 DUP3 DUP7 ADD ADD MSTORE PUSH1 0x40 PUSH1 0x1F NOT PUSH1 0x1F DUP4 ADD AND DUP6 ADD ADD SWAP3 POP POP POP SWAP3 SWAP2 POP POP JUMP JUMPDEST PUSH1 0x1 PUSH1 0x1 PUSH1 0xA0 SHL SUB DUP2 AND DUP2 EQ PUSH2 0x5B9 JUMPI PUSH0 DUP1 REVERT JUMPDEST PUSH0 DUP1 PUSH1 0x40 DUP4 DUP6 SUB SLT ISZERO PUSH2 0x1378 JUMPI PUSH0 DUP1 REVERT JUMPDEST DUP3 CALLDATALOAD PUSH2 0x1383 DUP2 PUSH2 0x1353 JUMP JUMPDEST SWAP5 PUSH1 0x20 SWAP4 SWAP1 SWAP4 ADD CALLDATALOAD SWAP4 POP POP POP JUMP JUMPDEST PUSH0 DUP1 PUSH0 PUSH1 0x60 DUP5 DUP7 SUB SLT ISZERO PUSH2 0x13A3 JUMPI PUSH0 DUP1 REVERT JUMPDEST DUP4 CALLDATALOAD PUSH2 0x13AE DUP2 PUSH2 0x1353 JUMP JUMPDEST SWAP3 POP PUSH1 0x20 DUP5 ADD CALLDATALOAD PUSH2 0x13BE DUP2 PUSH2 0x1353 JUMP JUMPDEST SWAP3 SWAP6 SWAP3 SWAP5 POP POP POP PUSH1 0x40 SWAP2 SWAP1 SWAP2 ADD CALLDATALOAD SWAP1 JUMP JUMPDEST PUSH0 PUSH1 0x20 DUP3 DUP5 SUB SLT ISZERO PUSH2 0x13DF JUMPI PUSH0 DUP1 REVERT JUMPDEST POP CALLDATALOAD SWAP2 SWAP1 POP JUMP JUMPDEST PUSH0 PUSH1 0x20 DUP3 DUP5 SUB SLT ISZERO PUSH2 0x13F6 JUMPI PUSH0 DUP1 REVERT JUMPDEST DUP2 CALLDATALOAD PUSH2 0x11E1 DUP2 PUSH2 0x1353 JUMP JUMPDEST PUSH0 DUP1 PUSH1 0x40 DUP4 DUP6 SUB SLT ISZERO PUSH2 0x1412 JUMPI PUSH0 DUP1 REVERT JUMPDEST DUP3 CALLDATALOAD PUSH2 0x141D DUP2 PUSH2 0x1353 JUMP JUMPDEST SWAP2 POP PUSH1 0x20 DUP4 ADD CALLDATALOAD PUSH2 0x142D DUP2 PUSH2 0x1353 JUMP JUMPDEST DUP1 SWAP2 POP POP SWAP3 POP SWAP3 SWAP1 POP JUMP JUMPDEST PUSH4 0x4E487B71 PUSH1 0xE0 SHL PUSH0 MSTORE PUSH1 0x11 PUSH1 0x4 MSTORE PUSH1 0x24 PUSH0 REVERT JUMPDEST PUSH1 0x1 DUP2 DUP2 JUMPDEST DUP1 DUP6 GT ISZERO PUSH2 0x1486 JUMPI DUP2 PUSH0 NOT DIV DUP3 GT ISZERO PUSH2 0x146C JUMPI PUSH2 0x146C PUSH2 0x1438 JUMP JUMPDEST DUP1 DUP6 AND ISZERO PUSH2 0x1479 JUMPI SWAP2 DUP2 MUL SWAP2 JUMPDEST SWAP4 DUP5 SHR SWAP4 SWAP1 DUP1 MUL SWAP1 PUSH2 0x1451 JUMP JUMPDEST POP SWAP3 POP SWAP3 SWAP1 POP JUMP JUMPDEST PUSH0 DUP3 PUSH2 0x149C JUMPI POP PUSH1 0x1 PUSH2 0x468 JUMP JUMPDEST DUP2 PUSH2 0x14A8 JUMPI POP PUSH0 PUSH2 0x468 JUMP JUMPDEST DUP2 PUSH1 0x1 DUP2 EQ PUSH2 0x14BE JUMPI PUSH1 0x2 DUP2 EQ PUSH2 0x14C8 JUMPI PUSH2 0x14E4 JUMP JUMPDEST PUSH1 0x1 SWAP2 POP POP PUSH2 0x468 JUMP JUMPDEST PUSH1 0xFF DUP5 GT ISZERO PUSH2 0x14D9 JUMPI PUSH2 0x14D9 PUSH2 0x1438 JUMP JUMPDEST POP POP PUSH1 0x1 DUP3 SHL PUSH2 0x468 JUMP JUMPDEST POP PUSH1 0x20 DUP4 LT PUSH2 0x133 DUP4 LT AND PUSH1 0x4E DUP5 LT PUSH1 0xB DUP5 LT AND OR ISZERO PUSH2 0x1507 JUMPI POP DUP2 DUP2 EXP PUSH2 0x468 JUMP JUMPDEST PUSH2 0x1511 DUP4 DUP4 PUSH2 0x144C JUMP JUMPDEST DUP1 PUSH0 NOT DIV DUP3 GT ISZERO PUSH2 0x1524 JUMPI PUSH2 0x1524 PUSH2 0x1438 JUMP JUMPDEST MUL SWAP4 SWAP3 POP POP POP JUMP JUMPDEST PUSH0 PUSH2 0x11E1 PUSH1 0xFF DUP5 AND DUP4 PUSH2 0x148E JUMP JUMPDEST DUP1 DUP3 MUL DUP2 ISZERO DUP3 DUP3 DIV DUP5 EQ OR PUSH2 0x468 JUMPI PUSH2 0x468 PUSH2 0x1438 JUMP JUMPDEST PUSH1 0x20 DUP1 DUP3 MSTORE DUP2 DUP2 ADD MSTORE PUSH32 0x4F776E61626C653A2063616C6C6572206973206E6F7420746865206F776E6572 PUSH1 0x40 DUP3 ADD MSTORE PUSH1 0x60 ADD SWAP1 JUMP JUMPDEST PUSH0 DUP3 PUSH2 0x15A0 JUMPI PUSH4 0x4E487B71 PUSH1 0xE0 SHL PUSH0 MSTORE PUSH1 0x12 PUSH1 0x4 MSTORE PUSH1 0x24 PUSH0 REVERT JUMPDEST POP DIV SWAP1 JUMP JUMPDEST PUSH0 PUSH1 0x20 DUP3 DUP5 SUB SLT ISZERO PUSH2 0x15B5 JUMPI PUSH0 DUP1 REVERT JUMPDEST DUP2 MLOAD PUSH2 0x11E1 DUP2 PUSH2 0x1353 JUMP JUMPDEST PUSH0 DUP1 PUSH0 PUSH1 0x60 DUP5 DUP7 SUB SLT ISZERO PUSH2 0x15D2 JUMPI PUSH0 DUP1 REVERT JUMPDEST DUP4 MLOAD SWAP3 POP PUSH1 0x20 DUP5 ADD MLOAD SWAP2 POP PUSH1 0x40 DUP5 ADD MLOAD SWAP1 POP SWAP3 POP SWAP3 POP SWAP3 JUMP JUMPDEST PUSH0 PUSH1 0x20 DUP3 DUP5 SUB SLT ISZERO PUSH2 0x15FB JUMPI PUSH0 DUP1 REVERT JUMPDEST DUP2 MLOAD DUP1 ISZERO ISZERO DUP2 EQ PUSH2 0x11E1 JUMPI PUSH0 DUP1 REVERT JUMPDEST DUP2 DUP2 SUB DUP2 DUP2 GT ISZERO PUSH2 0x468 JUMPI PUSH2 0x468 PUSH2 0x1438 JUMP JUMPDEST PUSH4 0x4E487B71 PUSH1 0xE0 SHL PUSH0 MSTORE PUSH1 0x32 PUSH1 0x4 MSTORE PUSH1 0x24 PUSH0 REVERT JUMPDEST PUSH0 PUSH1 0xA0 DUP3 ADD DUP8 DUP4 MSTORE PUSH1 0x20 DUP8 DUP2 DUP6 ADD MSTORE PUSH1 0xA0 PUSH1 0x40 DUP6 ADD MSTORE DUP2 DUP8 MLOAD DUP1 DUP5 MSTORE PUSH1 0xC0 DUP7 ADD SWAP2 POP DUP3 DUP10 ADD SWAP4 POP PUSH0 JUMPDEST DUP2 DUP2 LT ISZERO PUSH2 0x167F JUMPI DUP5 MLOAD PUSH1 0x1 PUSH1 0x1 PUSH1 0xA0 SHL SUB AND DUP4 MSTORE SWAP4 DUP4 ADD SWAP4 SWAP2 DUP4 ADD SWAP2 PUSH1 0x1 ADD PUSH2 0x165A JUMP JUMPDEST POP POP PUSH1 0x1 PUSH1 0x1 PUSH1 0xA0 SHL SUB SWAP7 SWAP1 SWAP7 AND PUSH1 0x60 DUP6 ADD MSTORE POP POP POP PUSH1 0x80 ADD MSTORE SWAP4 SWAP3 POP POP POP JUMP JUMPDEST DUP1 DUP3 ADD DUP1 DUP3 GT ISZERO PUSH2 0x468 JUMPI PUSH2 0x468 PUSH2 0x1438 JUMP INVALID GASLIMIT MSTORE NUMBER ORIGIN ADDRESS GASPRICE KECCAK256 PUSH21 0x72616E7366657220616D6F756E7420657863656564 PUSH20 0x20616C6C6F77616E6365A2646970667358221220 0xB6 0xD0 0x1F 0x26 ADD SLT 0xC7 0xD8 0x5E PUSH2 0x7C32 0xD EXP 0x2B GAS 0xBC PUSH13 0x2D99A42E2C9CFE282DEFB23641 SWAP16 PUSH5 0x736F6C6343 STOP ADDMOD ISZERO STOP CALLER "
				},
				"gasEstimates": {
					"creation": {
						"codeDepositCost": "1181000",
						"executionCost": "infinite",
						"totalCost": "infinite"
					},
					"external": {
						"DEAD_WALLET()": "348",
						"_maxTaxSwap()": "2362",
						"_maxTxAmount()": "2317",
						"_maxWalletSize()": "2383",
						"_taxSwapThreshold()": "2360",
						"allowance(address,address)": "infinite",
						"approve(address,uint256)": "24633",
						"balanceOf(address)": "2639",
						"decimals()": "199",
						"manualSwap()": "infinite",
						"name()": "infinite",
						"openTrading()": "infinite",
						"owner()": "2385",
						"removelimits()": "24444",
						"renounceOwnership()": "30294",
						"setFeeAddressWallets(address)": "26747",
						"setMaxTXlimit(uint256)": "infinite",
						"symbol()": "infinite",
						"totalSupply()": "infinite",
						"transfer(address,uint256)": "infinite",
						"transferFrom(address,address,uint256)": "infinite",
						"updateFeeSell(uint256)": "24517",
						"update_BuyFee(uint256)": "24624"
					},
					"internal": {
						"_approve(address,address,uint256)": "infinite",
						"_transfer(address,address,uint256)": "infinite",
						"min(uint256,uint256)": "60",
						"sendETHToFee(uint256)": "infinite",
						"swapTokensForEth(uint256)": "infinite"
					}
				},
				"methodIdentifiers": {
					"DEAD_WALLET()": "a01c3483",
					"_maxTaxSwap()": "0faee56f",
					"_maxTxAmount()": "7d1db4a5",
					"_maxWalletSize()": "8f9a55c0",
					"_taxSwapThreshold()": "bf474bed",
					"allowance(address,address)": "dd62ed3e",
					"approve(address,uint256)": "095ea7b3",
					"balanceOf(address)": "70a08231",
					"decimals()": "313ce567",
					"manualSwap()": "51bc3c85",
					"name()": "06fdde03",
					"openTrading()": "c9567bf9",
					"owner()": "8da5cb5b",
					"removelimits()": "5e4ae81b",
					"renounceOwnership()": "715018a6",
					"setFeeAddressWallets(address)": "879120fc",
					"setMaxTXlimit(uint256)": "5c579404",
					"symbol()": "95d89b41",
					"totalSupply()": "18160ddd",
					"transfer(address,uint256)": "a9059cbb",
					"transferFrom(address,address,uint256)": "23b872dd",
					"updateFeeSell(uint256)": "a01ce408",
					"update_BuyFee(uint256)": "e89e109d"
				}
			},
			"storageLayout": {
				"storage": [
					{
						"astId": 228,
						"contract": "contracts/stellaris.sol:AnonConnect",
						"label": "_owner",
						"offset": 0,
						"slot": "0",
						"type": "t_address"
					},
					{
						"astId": 366,
						"contract": "contracts/stellaris.sol:AnonConnect",
						"label": "_balances",
						"offset": 0,
						"slot": "1",
						"type": "t_mapping(t_address,t_uint256)"
					},
					{
						"astId": 372,
						"contract": "contracts/stellaris.sol:AnonConnect",
						"label": "_allowances",
						"offset": 0,
						"slot": "2",
						"type": "t_mapping(t_address,t_mapping(t_address,t_uint256))"
					},
					{
						"astId": 376,
						"contract": "contracts/stellaris.sol:AnonConnect",
						"label": "_isExcludedFromFee",
						"offset": 0,
						"slot": "3",
						"type": "t_mapping(t_address,t_bool)"
					},
					{
						"astId": 378,
						"contract": "contracts/stellaris.sol:AnonConnect",
						"label": "_taxWallet",
						"offset": 0,
						"slot": "4",
						"type": "t_address_payable"
					},
					{
						"astId": 384,
						"contract": "contracts/stellaris.sol:AnonConnect",
						"label": "tetori",
						"offset": 20,
						"slot": "4",
						"type": "t_int64"
					},
					{
						"astId": 387,
						"contract": "contracts/stellaris.sol:AnonConnect",
						"label": "_buytax",
						"offset": 0,
						"slot": "5",
						"type": "t_uint256"
					},
					{
						"astId": 390,
						"contract": "contracts/stellaris.sol:AnonConnect",
						"label": "_selltax",
						"offset": 0,
						"slot": "6",
						"type": "t_uint256"
					},
					{
						"astId": 409,
						"contract": "contracts/stellaris.sol:AnonConnect",
						"label": "_maxTxAmount",
						"offset": 0,
						"slot": "7",
						"type": "t_uint256"
					},
					{
						"astId": 412,
						"contract": "contracts/stellaris.sol:AnonConnect",
						"label": "_maxWalletSize",
						"offset": 0,
						"slot": "8",
						"type": "t_uint256"
					},
					{
						"astId": 419,
						"contract": "contracts/stellaris.sol:AnonConnect",
						"label": "_taxSwapThreshold",
						"offset": 0,
						"slot": "9",
						"type": "t_uint256"
					},
					{
						"astId": 426,
						"contract": "contracts/stellaris.sol:AnonConnect",
						"label": "_maxTaxSwap",
						"offset": 0,
						"slot": "10",
						"type": "t_uint256"
					},
					{
						"astId": 429,
						"contract": "contracts/stellaris.sol:AnonConnect",
						"label": "uniswapV2Router",
						"offset": 0,
						"slot": "11",
						"type": "t_contract(IUniswapV2Router02)353"
					},
					{
						"astId": 431,
						"contract": "contracts/stellaris.sol:AnonConnect",
						"label": "uniswapV2Pair",
						"offset": 0,
						"slot": "12",
						"type": "t_address"
					},
					{
						"astId": 433,
						"contract": "contracts/stellaris.sol:AnonConnect",
						"label": "tradingOpen",
						"offset": 20,
						"slot": "12",
						"type": "t_bool"
					},
					{
						"astId": 436,
						"contract": "contracts/stellaris.sol:AnonConnect",
						"label": "inSwap",
						"offset": 21,
						"slot": "12",
						"type": "t_bool"
					},
					{
						"astId": 439,
						"contract": "contracts/stellaris.sol:AnonConnect",
						"label": "swapEnabled",
						"offset": 22,
						"slot": "12",
						"type": "t_bool"
					}
				],
				"types": {
					"t_address": {
						"encoding": "inplace",
						"label": "address",
						"numberOfBytes": "20"
					},
					"t_address_payable": {
						"encoding": "inplace",
						"label": "address payable",
						"numberOfBytes": "20"
					},
					"t_bool": {
						"encoding": "inplace",
						"label": "bool",
						"numberOfBytes": "1"
					},
					"t_contract(IUniswapV2Router02)353": {
						"encoding": "inplace",
						"label": "contract IUniswapV2Router02",
						"numberOfBytes": "20"
					},
					"t_int64": {
						"encoding": "inplace",
						"label": "int64",
						"numberOfBytes": "8"
					},
					"t_mapping(t_address,t_bool)": {
						"encoding": "mapping",
						"key": "t_address",
						"label": "mapping(address => bool)",
						"numberOfBytes": "32",
						"value": "t_bool"
					},
					"t_mapping(t_address,t_mapping(t_address,t_uint256))": {
						"encoding": "mapping",
						"key": "t_address",
						"label": "mapping(address => mapping(address => uint256))",
						"numberOfBytes": "32",
						"value": "t_mapping(t_address,t_uint256)"
					},
					"t_mapping(t_address,t_uint256)": {
						"encoding": "mapping",
						"key": "t_address",
						"label": "mapping(address => uint256)",
						"numberOfBytes": "32",
						"value": "t_uint256"
					},
					"t_uint256": {
						"encoding": "inplace",
						"label": "uint256",
						"numberOfBytes": "32"
					}
				}
			},
			"userdoc": {
				"kind": "user",
				"methods": {},
				"version": 1
			}
		}
	}
}