{
	"contracts/anntdraw.sol": {
		"Lottery": {
			"abi": [
				{
					"inputs": [],
					"stateMutability": "nonpayable",
					"type": "constructor"
				},
				{
					"inputs": [],
					"name": "BuyTickets",
					"outputs": [],
					"stateMutability": "payable",
					"type": "function"
				},
				{
					"inputs": [],
					"name": "CurrentWinningReward",
					"outputs": [
						{
							"internalType": "uint256",
							"name": "",
							"type": "uint256"
						}
					],
					"stateMutability": "view",
					"type": "function"
				},
				{
					"inputs": [],
					"name": "DrawWinnerTicket",
					"outputs": [],
					"stateMutability": "nonpayable",
					"type": "function"
				},
				{
					"inputs": [],
					"name": "IsWinner",
					"outputs": [
						{
							"internalType": "bool",
							"name": "",
							"type": "bool"
						}
					],
					"stateMutability": "view",
					"type": "function"
				},
				{
					"inputs": [],
					"name": "RefundAll",
					"outputs": [],
					"stateMutability": "nonpayable",
					"type": "function"
				},
				{
					"inputs": [],
					"name": "RemainingTickets",
					"outputs": [
						{
							"internalType": "uint256",
							"name": "",
							"type": "uint256"
						}
					],
					"stateMutability": "view",
					"type": "function"
				},
				{
					"inputs": [],
					"name": "WithdrawCommission",
					"outputs": [],
					"stateMutability": "nonpayable",
					"type": "function"
				},
				{
					"inputs": [],
					"name": "WithdrawWinnings",
					"outputs": [],
					"stateMutability": "nonpayable",
					"type": "function"
				},
				{
					"inputs": [],
					"name": "checkWinningsAmount",
					"outputs": [
						{
							"internalType": "uint256",
							"name": "",
							"type": "uint256"
						}
					],
					"stateMutability": "view",
					"type": "function"
				},
				{
					"inputs": [],
					"name": "expiration",
					"outputs": [
						{
							"internalType": "uint256",
							"name": "",
							"type": "uint256"
						}
					],
					"stateMutability": "view",
					"type": "function"
				},
				{
					"inputs": [],
					"name": "getTickets",
					"outputs": [
						{
							"internalType": "address[]",
							"name": "",
							"type": "address[]"
						}
					],
					"stateMutability": "view",
					"type": "function"
				},
				{
					"inputs": [
						{
							"internalType": "address",
							"name": "addr",
							"type": "address"
						}
					],
					"name": "getWinningsForAddress",
					"outputs": [
						{
							"internalType": "uint256",
							"name": "",
							"type": "uint256"
						}
					],
					"stateMutability": "view",
					"type": "function"
				},
				{
					"inputs": [],
					"name": "lastWinner",
					"outputs": [
						{
							"internalType": "address",
							"name": "",
							"type": "address"
						}
					],
					"stateMutability": "view",
					"type": "function"
				},
				{
					"inputs": [],
					"name": "lastWinnerAmount",
					"outputs": [
						{
							"internalType": "uint256",
							"name": "",
							"type": "uint256"
						}
					],
					"stateMutability": "view",
					"type": "function"
				},
				{
					"inputs": [],
					"name": "lotteryOperator",
					"outputs": [
						{
							"internalType": "address",
							"name": "",
							"type": "address"
						}
					],
					"stateMutability": "view",
					"type": "function"
				},
				{
					"inputs": [],
					"name": "maxTickets",
					"outputs": [
						{
							"internalType": "uint256",
							"name": "",
							"type": "uint256"
						}
					],
					"stateMutability": "view",
					"type": "function"
				},
				{
					"inputs": [],
					"name": "maxTicketsPerAddress",
					"outputs": [
						{
							"internalType": "uint256",
							"name": "",
							"type": "uint256"
						}
					],
					"stateMutability": "view",
					"type": "function"
				},
				{
					"inputs": [],
					"name": "operatorTotalCommission",
					"outputs": [
						{
							"internalType": "uint256",
							"name": "",
							"type": "uint256"
						}
					],
					"stateMutability": "view",
					"type": "function"
				},
				{
					"inputs": [],
					"name": "restartDraw",
					"outputs": [],
					"stateMutability": "nonpayable",
					"type": "function"
				},
				{
					"inputs": [
						{
							"internalType": "uint256",
							"name": "newMaxTicketsPerAddress",
							"type": "uint256"
						}
					],
					"name": "setMaxTicketsPerAddress",
					"outputs": [],
					"stateMutability": "nonpayable",
					"type": "function"
				},
				{
					"inputs": [],
					"name": "ticketCommission",
					"outputs": [
						{
							"internalType": "uint256",
							"name": "",
							"type": "uint256"
						}
					],
					"stateMutability": "view",
					"type": "function"
				},
				{
					"inputs": [],
					"name": "ticketPrice",
					"outputs": [
						{
							"internalType": "uint256",
							"name": "",
							"type": "uint256"
						}
					],
					"stateMutability": "view",
					"type": "function"
				},
				{
					"inputs": [
						{
							"internalType": "uint256",
							"name": "",
							"type": "uint256"
						}
					],
					"name": "tickets",
					"outputs": [
						{
							"internalType": "address",
							"name": "",
							"type": "address"
						}
					],
					"stateMutability": "view",
					"type": "function"
				},
				{
					"inputs": [
						{
							"internalType": "uint256",
							"name": "newTicketPriceInEther",
							"type": "uint256"
						},
						{
							"internalType": "uint256",
							"name": "newMaxTickets",
							"type": "uint256"
						},
						{
							"internalType": "uint256",
							"name": "newTicketCommissionInEther",
							"type": "uint256"
						}
					],
					"name": "updateLotteryParams",
					"outputs": [],
					"stateMutability": "nonpayable",
					"type": "function"
				},
				{
					"inputs": [
						{
							"internalType": "address",
							"name": "",
							"type": "address"
						}
					],
					"name": "winnings",
					"outputs": [
						{
							"internalType": "uint256",
							"name": "",
							"type": "uint256"
						}
					],
					"stateMutability": "view",
					"type": "function"
				}
			],
			"devdoc": {
				"kind": "dev",
				"methods": {},
				"version": 1
			},
			"evm": {
				"assembly": "    /* \"contracts/anntdraw.sol\":128:6202  contract Lottery {... */\n  mstore(0x40, 0x80)\n    /* \"contracts/anntdraw.sol\":181:191  0.01 ether */\n  0x2386f26fc10000\n    /* \"contracts/anntdraw.sol\":152:191  uint256 public ticketPrice = 0.01 ether */\n  0x00\n  sstore\n    /* \"contracts/anntdraw.sol\":226:229  150 */\n  0x96\n    /* \"contracts/anntdraw.sol\":198:229  uint256 public maxTickets = 150 */\n  0x01\n  sstore\n    /* \"contracts/anntdraw.sol\":301:312  0.001 ether */\n  0x038d7ea4c68000\n    /* \"contracts/anntdraw.sol\":267:312  uint256 public ticketCommission = 0.001 ether */\n  0x02\n  sstore\n    /* \"contracts/anntdraw.sol\":371:383  5040 minutes */\n  0x049d40\n    /* \"contracts/anntdraw.sol\":344:383  uint256 private duration = 5040 minutes */\n  0x03\n  sstore\n    /* \"contracts/anntdraw.sol\":464:465  5 */\n  0x05\n    /* \"contracts/anntdraw.sol\":426:465  uint256 public maxTicketsPerAddress = 5 */\n  0x04\n  sstore\n    /* \"contracts/anntdraw.sol\":716:717  0 */\n  0x00\n    /* \"contracts/anntdraw.sol\":675:717  uint256 public operatorTotalCommission = 0 */\n  0x07\n  sstore\n    /* \"contracts/anntdraw.sol\":2098:2209  constructor() {... */\n  callvalue\n  dup1\n  iszero\n  tag_1\n  jumpi\n  0x00\n  dup1\n  revert\ntag_1:\n  pop\n    /* \"contracts/anntdraw.sol\":2141:2151  msg.sender */\n  caller\n    /* \"contracts/anntdraw.sol\":2123:2138  lotteryOperator */\n  0x06\n  0x00\n    /* \"contracts/anntdraw.sol\":2123:2151  lotteryOperator = msg.sender */\n  0x0100\n  exp\n  dup2\n  sload\n  dup2\n  0xffffffffffffffffffffffffffffffffffffffff\n  mul\n  not\n  and\n  swap1\n  dup4\n  0xffffffffffffffffffffffffffffffffffffffff\n  and\n  mul\n  or\n  swap1\n  sstore\n  pop\n    /* \"contracts/anntdraw.sol\":2193:2201  duration */\n  sload(0x03)\n    /* \"contracts/anntdraw.sol\":2175:2190  block.timestamp */\n  timestamp\n    /* \"contracts/anntdraw.sol\":2175:2201  block.timestamp + duration */\n  tag_4\n  swap2\n  swap1\n  tag_5\n  jump\t// in\ntag_4:\n    /* \"contracts/anntdraw.sol\":2162:2172  expiration */\n  0x05\n    /* \"contracts/anntdraw.sol\":2162:2201  expiration = block.timestamp + duration */\n  dup2\n  swap1\n  sstore\n  pop\n    /* \"contracts/anntdraw.sol\":128:6202  contract Lottery {... */\n  jump(tag_6)\n    /* \"#utility.yul\":7:84   */\ntag_7:\n    /* \"#utility.yul\":44:51   */\n  0x00\n    /* \"#utility.yul\":73:78   */\n  dup2\n    /* \"#utility.yul\":62:78   */\n  swap1\n  pop\n    /* \"#utility.yul\":7:84   */\n  swap2\n  swap1\n  pop\n  jump\t// out\n    /* \"#utility.yul\":90:270   */\ntag_8:\n    /* \"#utility.yul\":138:215   */\n  0x4e487b7100000000000000000000000000000000000000000000000000000000\n    /* \"#utility.yul\":135:136   */\n  0x00\n    /* \"#utility.yul\":128:216   */\n  mstore\n    /* \"#utility.yul\":235:239   */\n  0x11\n    /* \"#utility.yul\":232:233   */\n  0x04\n    /* \"#utility.yul\":225:240   */\n  mstore\n    /* \"#utility.yul\":259:263   */\n  0x24\n    /* \"#utility.yul\":256:257   */\n  0x00\n    /* \"#utility.yul\":249:264   */\n  revert\n    /* \"#utility.yul\":276:467   */\ntag_5:\n    /* \"#utility.yul\":316:319   */\n  0x00\n    /* \"#utility.yul\":335:355   */\n  tag_13\n    /* \"#utility.yul\":353:354   */\n  dup3\n    /* \"#utility.yul\":335:355   */\n  tag_7\n  jump\t// in\ntag_13:\n    /* \"#utility.yul\":330:355   */\n  swap2\n  pop\n    /* \"#utility.yul\":369:389   */\n  tag_14\n    /* \"#utility.yul\":387:388   */\n  dup4\n    /* \"#utility.yul\":369:389   */\n  tag_7\n  jump\t// in\ntag_14:\n    /* \"#utility.yul\":364:389   */\n  swap3\n  pop\n    /* \"#utility.yul\":412:413   */\n  dup3\n    /* \"#utility.yul\":409:410   */\n  dup3\n    /* \"#utility.yul\":405:414   */\n  add\n    /* \"#utility.yul\":398:414   */\n  swap1\n  pop\n    /* \"#utility.yul\":433:436   */\n  dup1\n    /* \"#utility.yul\":430:431   */\n  dup3\n    /* \"#utility.yul\":427:437   */\n  gt\n    /* \"#utility.yul\":424:460   */\n  iszero\n  tag_15\n  jumpi\n    /* \"#utility.yul\":440:458   */\n  tag_16\n  tag_8\n  jump\t// in\ntag_16:\n    /* \"#utility.yul\":424:460   */\ntag_15:\n    /* \"#utility.yul\":276:467   */\n  swap3\n  swap2\n  pop\n  pop\n  jump\t// out\n    /* \"contracts/anntdraw.sol\":128:6202  contract Lottery {... */\ntag_6:\n  dataSize(sub_0)\n  dup1\n  dataOffset(sub_0)\n  0x00\n  codecopy\n  0x00\n  return\nstop\n\nsub_0: assembly {\n        /* \"contracts/anntdraw.sol\":128:6202  contract Lottery {... */\n      mstore(0x40, 0x80)\n      jumpi(tag_1, lt(calldatasize, 0x04))\n      shr(0xe0, calldataload(0x00))\n      dup1\n      0x91d8b14e\n      gt\n      tag_27\n      jumpi\n      dup1\n      0xa88f4672\n      gt\n      tag_28\n      jumpi\n      dup1\n      0xdd64e534\n      gt\n      tag_29\n      jumpi\n      dup1\n      0xdd64e534\n      eq\n      tag_23\n      jumpi\n      dup1\n      0xea3a1499\n      eq\n      tag_24\n      jumpi\n      dup1\n      0xf2613269\n      eq\n      tag_25\n      jumpi\n      dup1\n      0xfe188184\n      eq\n      tag_26\n      jumpi\n      jump(tag_1)\n    tag_29:\n      dup1\n      0xa88f4672\n      eq\n      tag_20\n      jumpi\n      dup1\n      0xba946d79\n      eq\n      tag_21\n      jumpi\n      dup1\n      0xc6944fa0\n      eq\n      tag_22\n      jumpi\n      jump(tag_1)\n    tag_28:\n      dup1\n      0x91d8b14e\n      eq\n      tag_14\n      jumpi\n      dup1\n      0x93a563b5\n      eq\n      tag_15\n      jumpi\n      dup1\n      0x96c85ef3\n      eq\n      tag_16\n      jumpi\n      dup1\n      0x9802cf2f\n      eq\n      tag_17\n      jumpi\n      dup1\n      0x9b478ab0\n      eq\n      tag_18\n      jumpi\n      dup1\n      0x9b894703\n      eq\n      tag_19\n      jumpi\n      jump(tag_1)\n    tag_27:\n      dup1\n      0x4788af7c\n      gt\n      tag_30\n      jumpi\n      dup1\n      0x4788af7c\n      eq\n      tag_8\n      jumpi\n      dup1\n      0x4ed02622\n      eq\n      tag_9\n      jumpi\n      dup1\n      0x50b44712\n      eq\n      tag_10\n      jumpi\n      dup1\n      0x5a58acdd\n      eq\n      tag_11\n      jumpi\n      dup1\n      0x6032a4f9\n      eq\n      tag_12\n      jumpi\n      dup1\n      0x71827b7b\n      eq\n      tag_13\n      jumpi\n      jump(tag_1)\n    tag_30:\n      dup1\n      0x06f7f3bf\n      eq\n      tag_2\n      jumpi\n      dup1\n      0x0789c607\n      eq\n      tag_3\n      jumpi\n      dup1\n      0x1209b1f6\n      eq\n      tag_4\n      jumpi\n      dup1\n      0x35580df2\n      eq\n      tag_5\n      jumpi\n      dup1\n      0x463a94a5\n      eq\n      tag_6\n      jumpi\n      dup1\n      0x4665096d\n      eq\n      tag_7\n      jumpi\n    tag_1:\n      0x00\n      dup1\n      revert\n        /* \"contracts/anntdraw.sol\":822:853  uint256 public lastWinnerAmount */\n    tag_2:\n      callvalue\n      dup1\n      iszero\n      tag_31\n      jumpi\n      0x00\n      dup1\n      revert\n    tag_31:\n      pop\n      tag_32\n      tag_33\n      jump\t// in\n    tag_32:\n      mload(0x40)\n      tag_34\n      swap2\n      swap1\n      tag_35\n      jump\t// in\n    tag_34:\n      mload(0x40)\n      dup1\n      swap2\n      sub\n      swap1\n      return\n        /* \"contracts/anntdraw.sol\":4765:4979  function checkWinningsAmount() public view returns (uint256) {... */\n    tag_3:\n      callvalue\n      dup1\n      iszero\n      tag_36\n      jumpi\n      0x00\n      dup1\n      revert\n    tag_36:\n      pop\n      tag_37\n      tag_38\n      jump\t// in\n    tag_37:\n      mload(0x40)\n      tag_39\n      swap2\n      swap1\n      tag_35\n      jump\t// in\n    tag_39:\n      mload(0x40)\n      dup1\n      swap2\n      sub\n      swap1\n      return\n        /* \"contracts/anntdraw.sol\":152:191  uint256 public ticketPrice = 0.01 ether */\n    tag_4:\n      callvalue\n      dup1\n      iszero\n      tag_40\n      jumpi\n      0x00\n      dup1\n      revert\n    tag_40:\n      pop\n      tag_41\n      tag_42\n      jump\t// in\n    tag_41:\n      mload(0x40)\n      tag_43\n      swap2\n      swap1\n      tag_35\n      jump\t// in\n    tag_43:\n      mload(0x40)\n      dup1\n      swap2\n      sub\n      swap1\n      return\n        /* \"contracts/anntdraw.sol\":5583:5851  function WithdrawCommission() public isOperator {... */\n    tag_5:\n      callvalue\n      dup1\n      iszero\n      tag_44\n      jumpi\n      0x00\n      dup1\n      revert\n    tag_44:\n      pop\n      tag_45\n      tag_46\n      jump\t// in\n    tag_45:\n      stop\n        /* \"contracts/anntdraw.sol\":426:465  uint256 public maxTicketsPerAddress = 5 */\n    tag_6:\n      callvalue\n      dup1\n      iszero\n      tag_47\n      jumpi\n      0x00\n      dup1\n      revert\n    tag_47:\n      pop\n      tag_48\n      tag_49\n      jump\t// in\n    tag_48:\n      mload(0x40)\n      tag_50\n      swap2\n      swap1\n      tag_35\n      jump\t// in\n    tag_50:\n      mload(0x40)\n      dup1\n      swap2\n      sub\n      swap1\n      return\n        /* \"contracts/anntdraw.sol\":520:545  uint256 public expiration */\n    tag_7:\n      callvalue\n      dup1\n      iszero\n      tag_51\n      jumpi\n      0x00\n      dup1\n      revert\n    tag_51:\n      pop\n      tag_52\n      tag_53\n      jump\t// in\n    tag_52:\n      mload(0x40)\n      tag_54\n      swap2\n      swap1\n      tag_35\n      jump\t// in\n    tag_54:\n      mload(0x40)\n      dup1\n      swap2\n      sub\n      swap1\n      return\n        /* \"contracts/anntdraw.sol\":3804:4542  function DrawWinnerTicket() public isOperator {... */\n    tag_8:\n      callvalue\n      dup1\n      iszero\n      tag_55\n      jumpi\n      0x00\n      dup1\n      revert\n    tag_55:\n      pop\n      tag_56\n      tag_57\n      jump\t// in\n    tag_56:\n      stop\n        /* \"contracts/anntdraw.sol\":2248:2342  function getTickets() public view returns (address[] memory) {... */\n    tag_9:\n      callvalue\n      dup1\n      iszero\n      tag_58\n      jumpi\n      0x00\n      dup1\n      revert\n    tag_58:\n      pop\n      tag_59\n      tag_60\n      jump\t// in\n    tag_59:\n      mload(0x40)\n      tag_61\n      swap2\n      swap1\n      tag_62\n      jump\t// in\n    tag_61:\n      mload(0x40)\n      dup1\n      swap2\n      sub\n      swap1\n      return\n        /* \"contracts/anntdraw.sol\":991:1015  address[] public tickets */\n    tag_10:\n      callvalue\n      dup1\n      iszero\n      tag_63\n      jumpi\n      0x00\n      dup1\n      revert\n    tag_63:\n      pop\n      tag_64\n      0x04\n      dup1\n      calldatasize\n      sub\n      dup2\n      add\n      swap1\n      tag_65\n      swap2\n      swap1\n      tag_66\n      jump\t// in\n    tag_65:\n      tag_67\n      jump\t// in\n    tag_64:\n      mload(0x40)\n      tag_68\n      swap2\n      swap1\n      tag_69\n      jump\t// in\n    tag_68:\n      mload(0x40)\n      dup1\n      swap2\n      sub\n      swap1\n      return\n        /* \"contracts/anntdraw.sol\":609:639  address public lotteryOperator */\n    tag_11:\n      callvalue\n      dup1\n      iszero\n      tag_70\n      jumpi\n      0x00\n      dup1\n      revert\n    tag_70:\n      pop\n      tag_71\n      tag_72\n      jump\t// in\n    tag_71:\n      mload(0x40)\n      tag_73\n      swap2\n      swap1\n      tag_69\n      jump\t// in\n    tag_73:\n      mload(0x40)\n      dup1\n      swap2\n      sub\n      swap1\n      return\n        /* \"contracts/anntdraw.sol\":267:312  uint256 public ticketCommission = 0.001 ether */\n    tag_12:\n      callvalue\n      dup1\n      iszero\n      tag_74\n      jumpi\n      0x00\n      dup1\n      revert\n    tag_74:\n      pop\n      tag_75\n      tag_76\n      jump\t// in\n    tag_75:\n      mload(0x40)\n      tag_77\n      swap2\n      swap1\n      tag_35\n      jump\t// in\n    tag_77:\n      mload(0x40)\n      dup1\n      swap2\n      sub\n      swap1\n      return\n        /* \"contracts/anntdraw.sol\":4987:5225  function WithdrawWinnings() public isWinner {... */\n    tag_13:\n      callvalue\n      dup1\n      iszero\n      tag_78\n      jumpi\n      0x00\n      dup1\n      revert\n    tag_78:\n      pop\n      tag_79\n      tag_80\n      jump\t// in\n    tag_79:\n      stop\n        /* \"contracts/anntdraw.sol\":2782:3796  function BuyTickets() public payable {... */\n    tag_14:\n      tag_81\n      tag_82\n      jump\t// in\n    tag_81:\n      stop\n        /* \"contracts/anntdraw.sol\":6088:6199  function RemainingTickets() public view returns (uint256) {... */\n    tag_15:\n      callvalue\n      dup1\n      iszero\n      tag_83\n      jumpi\n      0x00\n      dup1\n      revert\n    tag_83:\n      pop\n      tag_84\n      tag_85\n      jump\t// in\n    tag_84:\n      mload(0x40)\n      tag_86\n      swap2\n      swap1\n      tag_35\n      jump\t// in\n    tag_86:\n      mload(0x40)\n      dup1\n      swap2\n      sub\n      swap1\n      return\n        /* \"contracts/anntdraw.sol\":5859:5956  function IsWinner() public view returns (bool) {... */\n    tag_16:\n      callvalue\n      dup1\n      iszero\n      tag_87\n      jumpi\n      0x00\n      dup1\n      revert\n    tag_87:\n      pop\n      tag_88\n      tag_89\n      jump\t// in\n    tag_88:\n      mload(0x40)\n      tag_90\n      swap2\n      swap1\n      tag_91\n      jump\t// in\n    tag_90:\n      mload(0x40)\n      dup1\n      swap2\n      sub\n      swap1\n      return\n        /* \"contracts/anntdraw.sol\":1771:1938  function setMaxTicketsPerAddress(... */\n    tag_17:\n      callvalue\n      dup1\n      iszero\n      tag_92\n      jumpi\n      0x00\n      dup1\n      revert\n    tag_92:\n      pop\n      tag_93\n      0x04\n      dup1\n      calldatasize\n      sub\n      dup2\n      add\n      swap1\n      tag_94\n      swap2\n      swap1\n      tag_66\n      jump\t// in\n    tag_94:\n      tag_95\n      jump\t// in\n    tag_93:\n      stop\n        /* \"contracts/anntdraw.sol\":1372:1692  function updateLotteryParams(... */\n    tag_18:\n      callvalue\n      dup1\n      iszero\n      tag_96\n      jumpi\n      0x00\n      dup1\n      revert\n    tag_96:\n      pop\n      tag_97\n      0x04\n      dup1\n      calldatasize\n      sub\n      dup2\n      add\n      swap1\n      tag_98\n      swap2\n      swap1\n      tag_99\n      jump\t// in\n    tag_98:\n      tag_100\n      jump\t// in\n    tag_97:\n      stop\n        /* \"contracts/anntdraw.sol\":198:229  uint256 public maxTickets = 150 */\n    tag_19:\n      callvalue\n      dup1\n      iszero\n      tag_101\n      jumpi\n      0x00\n      dup1\n      revert\n    tag_101:\n      pop\n      tag_102\n      tag_103\n      jump\t// in\n    tag_102:\n      mload(0x40)\n      tag_104\n      swap2\n      swap1\n      tag_35\n      jump\t// in\n    tag_104:\n      mload(0x40)\n      dup1\n      swap2\n      sub\n      swap1\n      return\n        /* \"contracts/anntdraw.sol\":5233:5575  function RefundAll() public {... */\n    tag_20:\n      callvalue\n      dup1\n      iszero\n      tag_105\n      jumpi\n      0x00\n      dup1\n      revert\n    tag_105:\n      pop\n      tag_106\n      tag_107\n      jump\t// in\n    tag_106:\n      stop\n        /* \"contracts/anntdraw.sol\":675:717  uint256 public operatorTotalCommission = 0 */\n    tag_21:\n      callvalue\n      dup1\n      iszero\n      tag_108\n      jumpi\n      0x00\n      dup1\n      revert\n    tag_108:\n      pop\n      tag_109\n      tag_110\n      jump\t// in\n    tag_109:\n      mload(0x40)\n      tag_111\n      swap2\n      swap1\n      tag_35\n      jump\t// in\n    tag_111:\n      mload(0x40)\n      dup1\n      swap2\n      sub\n      swap1\n      return\n        /* \"contracts/anntdraw.sol\":5964:6080  function CurrentWinningReward() public view returns (uint256) {... */\n    tag_22:\n      callvalue\n      dup1\n      iszero\n      tag_112\n      jumpi\n      0x00\n      dup1\n      revert\n    tag_112:\n      pop\n      tag_113\n      tag_114\n      jump\t// in\n    tag_113:\n      mload(0x40)\n      tag_115\n      swap2\n      swap1\n      tag_35\n      jump\t// in\n    tag_115:\n      mload(0x40)\n      dup1\n      swap2\n      sub\n      swap1\n      return\n        /* \"contracts/anntdraw.sol\":2350:2465  function getWinningsForAddress(address addr) public view returns (uint256) {... */\n    tag_23:\n      callvalue\n      dup1\n      iszero\n      tag_116\n      jumpi\n      0x00\n      dup1\n      revert\n    tag_116:\n      pop\n      tag_117\n      0x04\n      dup1\n      calldatasize\n      sub\n      dup2\n      add\n      swap1\n      tag_118\n      swap2\n      swap1\n      tag_119\n      jump\t// in\n    tag_118:\n      tag_120\n      jump\t// in\n    tag_117:\n      mload(0x40)\n      tag_121\n      swap2\n      swap1\n      tag_35\n      jump\t// in\n    tag_121:\n      mload(0x40)\n      dup1\n      swap2\n      sub\n      swap1\n      return\n        /* \"contracts/anntdraw.sol\":903:946  mapping(address => uint256) public winnings */\n    tag_24:\n      callvalue\n      dup1\n      iszero\n      tag_122\n      jumpi\n      0x00\n      dup1\n      revert\n    tag_122:\n      pop\n      tag_123\n      0x04\n      dup1\n      calldatasize\n      sub\n      dup2\n      add\n      swap1\n      tag_124\n      swap2\n      swap1\n      tag_119\n      jump\t// in\n    tag_124:\n      tag_125\n      jump\t// in\n    tag_123:\n      mload(0x40)\n      tag_126\n      swap2\n      swap1\n      tag_35\n      jump\t// in\n    tag_126:\n      mload(0x40)\n      dup1\n      swap2\n      sub\n      swap1\n      return\n        /* \"contracts/anntdraw.sol\":4550:4757  function restartDraw() public isOperator {... */\n    tag_25:\n      callvalue\n      dup1\n      iszero\n      tag_127\n      jumpi\n      0x00\n      dup1\n      revert\n    tag_127:\n      pop\n      tag_128\n      tag_129\n      jump\t// in\n    tag_128:\n      stop\n        /* \"contracts/anntdraw.sol\":756:781  address public lastWinner */\n    tag_26:\n      callvalue\n      dup1\n      iszero\n      tag_130\n      jumpi\n      0x00\n      dup1\n      revert\n    tag_130:\n      pop\n      tag_131\n      tag_132\n      jump\t// in\n    tag_131:\n      mload(0x40)\n      tag_133\n      swap2\n      swap1\n      tag_69\n      jump\t// in\n    tag_133:\n      mload(0x40)\n      dup1\n      swap2\n      sub\n      swap1\n      return\n        /* \"contracts/anntdraw.sol\":822:853  uint256 public lastWinnerAmount */\n    tag_33:\n      sload(0x09)\n      dup2\n      jump\t// out\n        /* \"contracts/anntdraw.sol\":4765:4979  function checkWinningsAmount() public view returns (uint256) {... */\n    tag_38:\n        /* \"contracts/anntdraw.sol\":4817:4824  uint256 */\n      0x00\n        /* \"contracts/anntdraw.sol\":4837:4859  address payable winner */\n      dup1\n        /* \"contracts/anntdraw.sol\":4870:4880  msg.sender */\n      caller\n        /* \"contracts/anntdraw.sol\":4837:4881  address payable winner = payable(msg.sender) */\n      swap1\n      pop\n        /* \"contracts/anntdraw.sol\":4894:4917  uint256 reward2Transfer */\n      0x00\n        /* \"contracts/anntdraw.sol\":4920:4928  winnings */\n      0x0a\n        /* \"contracts/anntdraw.sol\":4920:4936  winnings[winner] */\n      0x00\n        /* \"contracts/anntdraw.sol\":4929:4935  winner */\n      dup4\n        /* \"contracts/anntdraw.sol\":4920:4936  winnings[winner] */\n      0xffffffffffffffffffffffffffffffffffffffff\n      and\n      0xffffffffffffffffffffffffffffffffffffffff\n      and\n      dup2\n      mstore\n      0x20\n      add\n      swap1\n      dup2\n      mstore\n      0x20\n      add\n      0x00\n      keccak256\n      sload\n        /* \"contracts/anntdraw.sol\":4894:4936  uint256 reward2Transfer = winnings[winner] */\n      swap1\n      pop\n        /* \"contracts/anntdraw.sol\":4956:4971  reward2Transfer */\n      dup1\n        /* \"contracts/anntdraw.sol\":4949:4971  return reward2Transfer */\n      swap3\n      pop\n      pop\n      pop\n        /* \"contracts/anntdraw.sol\":4765:4979  function checkWinningsAmount() public view returns (uint256) {... */\n      swap1\n      jump\t// out\n        /* \"contracts/anntdraw.sol\":152:191  uint256 public ticketPrice = 0.01 ether */\n    tag_42:\n      sload(0x00)\n      dup2\n      jump\t// out\n        /* \"contracts/anntdraw.sol\":5583:5851  function WithdrawCommission() public isOperator {... */\n    tag_46:\n        /* \"contracts/anntdraw.sol\":1183:1198  lotteryOperator */\n      0x06\n      0x00\n      swap1\n      sload\n      swap1\n      0x0100\n      exp\n      swap1\n      div\n      0xffffffffffffffffffffffffffffffffffffffff\n      and\n        /* \"contracts/anntdraw.sol\":1169:1198  msg.sender == lotteryOperator */\n      0xffffffffffffffffffffffffffffffffffffffff\n      and\n        /* \"contracts/anntdraw.sol\":1169:1179  msg.sender */\n      caller\n        /* \"contracts/anntdraw.sol\":1169:1198  msg.sender == lotteryOperator */\n      0xffffffffffffffffffffffffffffffffffffffff\n      and\n      eq\n        /* \"contracts/anntdraw.sol\":1146:1261  require(... */\n      tag_136\n      jumpi\n      mload(0x40)\n      0x08c379a000000000000000000000000000000000000000000000000000000000\n      dup2\n      mstore\n      0x04\n      add\n      tag_137\n      swap1\n      tag_138\n      jump\t// in\n    tag_137:\n      mload(0x40)\n      dup1\n      swap2\n      sub\n      swap1\n      revert\n    tag_136:\n        /* \"contracts/anntdraw.sol\":5642:5666  address payable operator */\n      0x00\n        /* \"contracts/anntdraw.sol\":5677:5687  msg.sender */\n      caller\n        /* \"contracts/anntdraw.sol\":5642:5688  address payable operator = payable(msg.sender) */\n      swap1\n      pop\n        /* \"contracts/anntdraw.sol\":5701:5728  uint256 commission2Transfer */\n      0x00\n        /* \"contracts/anntdraw.sol\":5731:5754  operatorTotalCommission */\n      sload(0x07)\n        /* \"contracts/anntdraw.sol\":5701:5754  uint256 commission2Transfer = operatorTotalCommission */\n      swap1\n      pop\n        /* \"contracts/anntdraw.sol\":5791:5792  0 */\n      0x00\n        /* \"contracts/anntdraw.sol\":5765:5788  operatorTotalCommission */\n      0x07\n        /* \"contracts/anntdraw.sol\":5765:5792  operatorTotalCommission = 0 */\n      dup2\n      swap1\n      sstore\n      pop\n        /* \"contracts/anntdraw.sol\":5805:5813  operator */\n      dup2\n        /* \"contracts/anntdraw.sol\":5805:5822  operator.transfer */\n      0xffffffffffffffffffffffffffffffffffffffff\n      and\n        /* \"contracts/anntdraw.sol\":5805:5843  operator.transfer(commission2Transfer) */\n      0x08fc\n        /* \"contracts/anntdraw.sol\":5823:5842  commission2Transfer */\n      dup3\n        /* \"contracts/anntdraw.sol\":5805:5843  operator.transfer(commission2Transfer) */\n      swap1\n      dup2\n      iszero\n      mul\n      swap1\n      mload(0x40)\n      0x00\n      mload(0x40)\n      dup1\n      dup4\n      sub\n      dup2\n      dup6\n      dup9\n      dup9\n      call\n      swap4\n      pop\n      pop\n      pop\n      pop\n      iszero\n      dup1\n      iszero\n      tag_141\n      jumpi\n      returndatasize\n      0x00\n      dup1\n      returndatacopy\n      revert(0x00, returndatasize)\n    tag_141:\n      pop\n        /* \"contracts/anntdraw.sol\":5631:5851  {... */\n      pop\n      pop\n        /* \"contracts/anntdraw.sol\":5583:5851  function WithdrawCommission() public isOperator {... */\n      jump\t// out\n        /* \"contracts/anntdraw.sol\":426:465  uint256 public maxTicketsPerAddress = 5 */\n    tag_49:\n      sload(0x04)\n      dup2\n      jump\t// out\n        /* \"contracts/anntdraw.sol\":520:545  uint256 public expiration */\n    tag_53:\n      sload(0x05)\n      dup2\n      jump\t// out\n        /* \"contracts/anntdraw.sol\":3804:4542  function DrawWinnerTicket() public isOperator {... */\n    tag_57:\n        /* \"contracts/anntdraw.sol\":1183:1198  lotteryOperator */\n      0x06\n      0x00\n      swap1\n      sload\n      swap1\n      0x0100\n      exp\n      swap1\n      div\n      0xffffffffffffffffffffffffffffffffffffffff\n      and\n        /* \"contracts/anntdraw.sol\":1169:1198  msg.sender == lotteryOperator */\n      0xffffffffffffffffffffffffffffffffffffffff\n      and\n        /* \"contracts/anntdraw.sol\":1169:1179  msg.sender */\n      caller\n        /* \"contracts/anntdraw.sol\":1169:1198  msg.sender == lotteryOperator */\n      0xffffffffffffffffffffffffffffffffffffffff\n      and\n      eq\n        /* \"contracts/anntdraw.sol\":1146:1261  require(... */\n      tag_143\n      jumpi\n      mload(0x40)\n      0x08c379a000000000000000000000000000000000000000000000000000000000\n      dup2\n      mstore\n      0x04\n      add\n      tag_144\n      swap1\n      tag_138\n      jump\t// in\n    tag_144:\n      mload(0x40)\n      dup1\n      swap2\n      sub\n      swap1\n      revert\n    tag_143:\n        /* \"contracts/anntdraw.sol\":3886:3887  0 */\n      0x00\n        /* \"contracts/anntdraw.sol\":3869:3876  tickets */\n      0x0b\n        /* \"contracts/anntdraw.sol\":3869:3883  tickets.length */\n      dup1\n      sload\n      swap1\n      pop\n        /* \"contracts/anntdraw.sol\":3869:3887  tickets.length > 0 */\n      gt\n        /* \"contracts/anntdraw.sol\":3861:3917  require(tickets.length > 0, \"No tickets were purchased\") */\n      tag_146\n      jumpi\n      mload(0x40)\n      0x08c379a000000000000000000000000000000000000000000000000000000000\n      dup2\n      mstore\n      0x04\n      add\n      tag_147\n      swap1\n      tag_148\n      jump\t// in\n    tag_147:\n      mload(0x40)\n      dup1\n      swap2\n      sub\n      swap1\n      revert\n    tag_146:\n        /* \"contracts/anntdraw.sol\":3930:3947  bytes32 blockHash */\n      0x00\n        /* \"contracts/anntdraw.sol\":3975:3982  tickets */\n      0x0b\n        /* \"contracts/anntdraw.sol\":3975:3989  tickets.length */\n      dup1\n      sload\n      swap1\n      pop\n        /* \"contracts/anntdraw.sol\":3960:3972  block.number */\n      number\n        /* \"contracts/anntdraw.sol\":3960:3989  block.number - tickets.length */\n      tag_149\n      swap2\n      swap1\n      tag_150\n      jump\t// in\n    tag_149:\n        /* \"contracts/anntdraw.sol\":3950:3990  blockhash(block.number - tickets.length) */\n      blockhash\n        /* \"contracts/anntdraw.sol\":3930:3990  bytes32 blockHash = blockhash(block.number - tickets.length) */\n      swap1\n      pop\n        /* \"contracts/anntdraw.sol\":4001:4021  uint256 randomNumber */\n      0x00\n        /* \"contracts/anntdraw.sol\":4073:4088  block.timestamp */\n      timestamp\n        /* \"contracts/anntdraw.sol\":4090:4099  blockHash */\n      dup3\n        /* \"contracts/anntdraw.sol\":4056:4100  abi.encodePacked(block.timestamp, blockHash) */\n      add(0x20, mload(0x40))\n      tag_151\n      swap3\n      swap2\n      swap1\n      tag_152\n      jump\t// in\n    tag_151:\n      mload(0x40)\n      0x20\n      dup2\n      dup4\n      sub\n      sub\n      dup2\n      mstore\n      swap1\n      0x40\n      mstore\n        /* \"contracts/anntdraw.sol\":4046:4101  keccak256(abi.encodePacked(block.timestamp, blockHash)) */\n      dup1\n      mload\n      swap1\n      0x20\n      add\n      keccak256\n        /* \"contracts/anntdraw.sol\":4024:4112  uint256(... */\n      0x00\n      shr\n        /* \"contracts/anntdraw.sol\":4001:4112  uint256 randomNumber = uint256(... */\n      swap1\n      pop\n        /* \"contracts/anntdraw.sol\":4123:4144  uint256 winningTicket */\n      0x00\n        /* \"contracts/anntdraw.sol\":4162:4169  tickets */\n      0x0b\n        /* \"contracts/anntdraw.sol\":4162:4176  tickets.length */\n      dup1\n      sload\n      swap1\n      pop\n        /* \"contracts/anntdraw.sol\":4147:4159  randomNumber */\n      dup3\n        /* \"contracts/anntdraw.sol\":4147:4176  randomNumber % tickets.length */\n      tag_153\n      swap2\n      swap1\n      tag_154\n      jump\t// in\n    tag_153:\n        /* \"contracts/anntdraw.sol\":4123:4176  uint256 winningTicket = randomNumber % tickets.length */\n      swap1\n      pop\n        /* \"contracts/anntdraw.sol\":4189:4203  address winner */\n      0x00\n        /* \"contracts/anntdraw.sol\":4206:4213  tickets */\n      0x0b\n        /* \"contracts/anntdraw.sol\":4214:4227  winningTicket */\n      dup3\n        /* \"contracts/anntdraw.sol\":4206:4228  tickets[winningTicket] */\n      dup2\n      sload\n      dup2\n      lt\n      tag_155\n      jumpi\n      tag_156\n      tag_157\n      jump\t// in\n    tag_156:\n    tag_155:\n      swap1\n      0x00\n      mstore\n      keccak256(0x00, 0x20)\n      add\n      0x00\n      swap1\n      sload\n      swap1\n      0x0100\n      exp\n      swap1\n      div\n      0xffffffffffffffffffffffffffffffffffffffff\n      and\n        /* \"contracts/anntdraw.sol\":4189:4228  address winner = tickets[winningTicket] */\n      swap1\n      pop\n        /* \"contracts/anntdraw.sol\":4252:4258  winner */\n      dup1\n        /* \"contracts/anntdraw.sol\":4239:4249  lastWinner */\n      0x08\n      0x00\n        /* \"contracts/anntdraw.sol\":4239:4258  lastWinner = winner */\n      0x0100\n      exp\n      dup2\n      sload\n      dup2\n      0xffffffffffffffffffffffffffffffffffffffff\n      mul\n      not\n      and\n      swap1\n      dup4\n      0xffffffffffffffffffffffffffffffffffffffff\n      and\n      mul\n      or\n      swap1\n      sstore\n      pop\n        /* \"contracts/anntdraw.sol\":4322:4338  ticketCommission */\n      sload(0x02)\n        /* \"contracts/anntdraw.sol\":4308:4319  ticketPrice */\n      sload(0x00)\n        /* \"contracts/anntdraw.sol\":4308:4338  ticketPrice - ticketCommission */\n      tag_159\n      swap2\n      swap1\n      tag_150\n      jump\t// in\n    tag_159:\n        /* \"contracts/anntdraw.sol\":4290:4297  tickets */\n      0x0b\n        /* \"contracts/anntdraw.sol\":4290:4304  tickets.length */\n      dup1\n      sload\n      swap1\n      pop\n        /* \"contracts/anntdraw.sol\":4290:4339  tickets.length * (ticketPrice - ticketCommission) */\n      tag_160\n      swap2\n      swap1\n      tag_161\n      jump\t// in\n    tag_160:\n        /* \"contracts/anntdraw.sol\":4269:4277  winnings */\n      0x0a\n        /* \"contracts/anntdraw.sol\":4269:4285  winnings[winner] */\n      0x00\n        /* \"contracts/anntdraw.sol\":4278:4284  winner */\n      dup4\n        /* \"contracts/anntdraw.sol\":4269:4285  winnings[winner] */\n      0xffffffffffffffffffffffffffffffffffffffff\n      and\n      0xffffffffffffffffffffffffffffffffffffffff\n      and\n      dup2\n      mstore\n      0x20\n      add\n      swap1\n      dup2\n      mstore\n      0x20\n      add\n      0x00\n      keccak256\n      0x00\n        /* \"contracts/anntdraw.sol\":4269:4340  winnings[winner] += (tickets.length * (ticketPrice - ticketCommission)) */\n      dup3\n      dup3\n      sload\n      tag_162\n      swap2\n      swap1\n      tag_163\n      jump\t// in\n    tag_162:\n      swap3\n      pop\n      pop\n      dup2\n      swap1\n      sstore\n      pop\n        /* \"contracts/anntdraw.sol\":4370:4378  winnings */\n      0x0a\n        /* \"contracts/anntdraw.sol\":4370:4386  winnings[winner] */\n      0x00\n        /* \"contracts/anntdraw.sol\":4379:4385  winner */\n      dup3\n        /* \"contracts/anntdraw.sol\":4370:4386  winnings[winner] */\n      0xffffffffffffffffffffffffffffffffffffffff\n      and\n      0xffffffffffffffffffffffffffffffffffffffff\n      and\n      dup2\n      mstore\n      0x20\n      add\n      swap1\n      dup2\n      mstore\n      0x20\n      add\n      0x00\n      keccak256\n      sload\n        /* \"contracts/anntdraw.sol\":4351:4367  lastWinnerAmount */\n      0x09\n        /* \"contracts/anntdraw.sol\":4351:4386  lastWinnerAmount = winnings[winner] */\n      dup2\n      swap1\n      sstore\n      pop\n        /* \"contracts/anntdraw.sol\":4442:4458  ticketCommission */\n      sload(0x02)\n        /* \"contracts/anntdraw.sol\":4425:4432  tickets */\n      0x0b\n        /* \"contracts/anntdraw.sol\":4425:4439  tickets.length */\n      dup1\n      sload\n      swap1\n      pop\n        /* \"contracts/anntdraw.sol\":4425:4458  tickets.length * ticketCommission */\n      tag_164\n      swap2\n      swap1\n      tag_161\n      jump\t// in\n    tag_164:\n        /* \"contracts/anntdraw.sol\":4397:4420  operatorTotalCommission */\n      0x07\n      0x00\n        /* \"contracts/anntdraw.sol\":4397:4459  operatorTotalCommission += (tickets.length * ticketCommission) */\n      dup3\n      dup3\n      sload\n      tag_165\n      swap2\n      swap1\n      tag_163\n      jump\t// in\n    tag_165:\n      swap3\n      pop\n      pop\n      dup2\n      swap1\n      sstore\n      pop\n        /* \"contracts/anntdraw.sol\":4477:4484  tickets */\n      0x0b\n      0x00\n        /* \"contracts/anntdraw.sol\":4470:4484  delete tickets */\n      tag_166\n      swap2\n      swap1\n      tag_167\n      jump\t// in\n    tag_166:\n        /* \"contracts/anntdraw.sol\":4526:4534  duration */\n      sload(0x03)\n        /* \"contracts/anntdraw.sol\":4508:4523  block.timestamp */\n      timestamp\n        /* \"contracts/anntdraw.sol\":4508:4534  block.timestamp + duration */\n      tag_168\n      swap2\n      swap1\n      tag_163\n      jump\t// in\n    tag_168:\n        /* \"contracts/anntdraw.sol\":4495:4505  expiration */\n      0x05\n        /* \"contracts/anntdraw.sol\":4495:4534  expiration = block.timestamp + duration */\n      dup2\n      swap1\n      sstore\n      pop\n        /* \"contracts/anntdraw.sol\":3850:4542  {... */\n      pop\n      pop\n      pop\n      pop\n        /* \"contracts/anntdraw.sol\":3804:4542  function DrawWinnerTicket() public isOperator {... */\n      jump\t// out\n        /* \"contracts/anntdraw.sol\":2248:2342  function getTickets() public view returns (address[] memory) {... */\n    tag_60:\n        /* \"contracts/anntdraw.sol\":2291:2307  address[] memory */\n      0x60\n        /* \"contracts/anntdraw.sol\":2327:2334  tickets */\n      0x0b\n        /* \"contracts/anntdraw.sol\":2320:2334  return tickets */\n      dup1\n      sload\n      dup1\n      0x20\n      mul\n      0x20\n      add\n      mload(0x40)\n      swap1\n      dup2\n      add\n      0x40\n      mstore\n      dup1\n      swap3\n      swap2\n      swap1\n      dup2\n      dup2\n      mstore\n      0x20\n      add\n      dup3\n      dup1\n      sload\n      dup1\n      iszero\n      tag_170\n      jumpi\n      0x20\n      mul\n      dup3\n      add\n      swap2\n      swap1\n      0x00\n      mstore\n      keccak256(0x00, 0x20)\n      swap1\n    tag_171:\n      dup2\n      0x00\n      swap1\n      sload\n      swap1\n      0x0100\n      exp\n      swap1\n      div\n      0xffffffffffffffffffffffffffffffffffffffff\n      and\n      0xffffffffffffffffffffffffffffffffffffffff\n      and\n      dup2\n      mstore\n      0x20\n      add\n      swap1\n      0x01\n      add\n      swap1\n      dup1\n      dup4\n      gt\n      tag_171\n      jumpi\n    tag_170:\n      pop\n      pop\n      pop\n      pop\n      pop\n      swap1\n      pop\n        /* \"contracts/anntdraw.sol\":2248:2342  function getTickets() public view returns (address[] memory) {... */\n      swap1\n      jump\t// out\n        /* \"contracts/anntdraw.sol\":991:1015  address[] public tickets */\n    tag_67:\n      0x0b\n      dup2\n      dup2\n      sload\n      dup2\n      lt\n      tag_172\n      jumpi\n      0x00\n      dup1\n      revert\n    tag_172:\n      swap1\n      0x00\n      mstore\n      keccak256(0x00, 0x20)\n      add\n      0x00\n      swap2\n      pop\n      sload\n      swap1\n      0x0100\n      exp\n      swap1\n      div\n      0xffffffffffffffffffffffffffffffffffffffff\n      and\n      dup2\n      jump\t// out\n        /* \"contracts/anntdraw.sol\":609:639  address public lotteryOperator */\n    tag_72:\n      0x06\n      0x00\n      swap1\n      sload\n      swap1\n      0x0100\n      exp\n      swap1\n      div\n      0xffffffffffffffffffffffffffffffffffffffff\n      and\n      dup2\n      jump\t// out\n        /* \"contracts/anntdraw.sol\":267:312  uint256 public ticketCommission = 0.001 ether */\n    tag_76:\n      sload(0x02)\n      dup2\n      jump\t// out\n        /* \"contracts/anntdraw.sol\":4987:5225  function WithdrawWinnings() public isWinner {... */\n    tag_80:\n        /* \"contracts/anntdraw.sol\":2033:2043  IsWinner() */\n      tag_175\n        /* \"contracts/anntdraw.sol\":2033:2041  IsWinner */\n      tag_89\n        /* \"contracts/anntdraw.sol\":2033:2043  IsWinner() */\n      jump\t// in\n    tag_175:\n        /* \"contracts/anntdraw.sol\":2025:2070  require(IsWinner(), \"Caller is not a winner\") */\n      tag_176\n      jumpi\n      mload(0x40)\n      0x08c379a000000000000000000000000000000000000000000000000000000000\n      dup2\n      mstore\n      0x04\n      add\n      tag_177\n      swap1\n      tag_178\n      jump\t// in\n    tag_177:\n      mload(0x40)\n      dup1\n      swap2\n      sub\n      swap1\n      revert\n    tag_176:\n        /* \"contracts/anntdraw.sol\":5042:5064  address payable winner */\n      0x00\n        /* \"contracts/anntdraw.sol\":5075:5085  msg.sender */\n      caller\n        /* \"contracts/anntdraw.sol\":5042:5086  address payable winner = payable(msg.sender) */\n      swap1\n      pop\n        /* \"contracts/anntdraw.sol\":5099:5122  uint256 reward2Transfer */\n      0x00\n        /* \"contracts/anntdraw.sol\":5125:5133  winnings */\n      0x0a\n        /* \"contracts/anntdraw.sol\":5125:5141  winnings[winner] */\n      0x00\n        /* \"contracts/anntdraw.sol\":5134:5140  winner */\n      dup4\n        /* \"contracts/anntdraw.sol\":5125:5141  winnings[winner] */\n      0xffffffffffffffffffffffffffffffffffffffff\n      and\n      0xffffffffffffffffffffffffffffffffffffffff\n      and\n      dup2\n      mstore\n      0x20\n      add\n      swap1\n      dup2\n      mstore\n      0x20\n      add\n      0x00\n      keccak256\n      sload\n        /* \"contracts/anntdraw.sol\":5099:5141  uint256 reward2Transfer = winnings[winner] */\n      swap1\n      pop\n        /* \"contracts/anntdraw.sol\":5171:5172  0 */\n      0x00\n        /* \"contracts/anntdraw.sol\":5152:5160  winnings */\n      0x0a\n        /* \"contracts/anntdraw.sol\":5152:5168  winnings[winner] */\n      0x00\n        /* \"contracts/anntdraw.sol\":5161:5167  winner */\n      dup5\n        /* \"contracts/anntdraw.sol\":5152:5168  winnings[winner] */\n      0xffffffffffffffffffffffffffffffffffffffff\n      and\n      0xffffffffffffffffffffffffffffffffffffffff\n      and\n      dup2\n      mstore\n      0x20\n      add\n      swap1\n      dup2\n      mstore\n      0x20\n      add\n      0x00\n      keccak256\n        /* \"contracts/anntdraw.sol\":5152:5172  winnings[winner] = 0 */\n      dup2\n      swap1\n      sstore\n      pop\n        /* \"contracts/anntdraw.sol\":5185:5191  winner */\n      dup2\n        /* \"contracts/anntdraw.sol\":5185:5200  winner.transfer */\n      0xffffffffffffffffffffffffffffffffffffffff\n      and\n        /* \"contracts/anntdraw.sol\":5185:5217  winner.transfer(reward2Transfer) */\n      0x08fc\n        /* \"contracts/anntdraw.sol\":5201:5216  reward2Transfer */\n      dup3\n        /* \"contracts/anntdraw.sol\":5185:5217  winner.transfer(reward2Transfer) */\n      swap1\n      dup2\n      iszero\n      mul\n      swap1\n      mload(0x40)\n      0x00\n      mload(0x40)\n      dup1\n      dup4\n      sub\n      dup2\n      dup6\n      dup9\n      dup9\n      call\n      swap4\n      pop\n      pop\n      pop\n      pop\n      iszero\n      dup1\n      iszero\n      tag_181\n      jumpi\n      returndatasize\n      0x00\n      dup1\n      returndatacopy\n      revert(0x00, returndatasize)\n    tag_181:\n      pop\n        /* \"contracts/anntdraw.sol\":5031:5225  {... */\n      pop\n      pop\n        /* \"contracts/anntdraw.sol\":4987:5225  function WithdrawWinnings() public isWinner {... */\n      jump\t// out\n        /* \"contracts/anntdraw.sol\":2782:3796  function BuyTickets() public payable {... */\n    tag_82:\n        /* \"contracts/anntdraw.sol\":2852:2853  0 */\n      0x00\n        /* \"contracts/anntdraw.sol\":2834:2841  tickets */\n      0x0b\n        /* \"contracts/anntdraw.sol\":2834:2848  tickets.length */\n      dup1\n      sload\n      swap1\n      pop\n        /* \"contracts/anntdraw.sol\":2834:2853  tickets.length == 0 */\n      eq\n        /* \"contracts/anntdraw.sol\":2834:2886  tickets.length == 0 && block.timestamp >= expiration */\n      dup1\n      iszero\n      tag_183\n      jumpi\n      pop\n        /* \"contracts/anntdraw.sol\":2876:2886  expiration */\n      sload(0x05)\n        /* \"contracts/anntdraw.sol\":2857:2872  block.timestamp */\n      timestamp\n        /* \"contracts/anntdraw.sol\":2857:2886  block.timestamp >= expiration */\n      lt\n      iszero\n        /* \"contracts/anntdraw.sol\":2834:2886  tickets.length == 0 && block.timestamp >= expiration */\n    tag_183:\n        /* \"contracts/anntdraw.sol\":2830:3050  if (tickets.length == 0 && block.timestamp >= expiration) {... */\n      iszero\n      tag_184\n      jumpi\n        /* \"contracts/anntdraw.sol\":3030:3038  duration */\n      sload(0x03)\n        /* \"contracts/anntdraw.sol\":3012:3027  block.timestamp */\n      timestamp\n        /* \"contracts/anntdraw.sol\":3012:3038  block.timestamp + duration */\n      tag_185\n      swap2\n      swap1\n      tag_163\n      jump\t// in\n    tag_185:\n        /* \"contracts/anntdraw.sol\":2999:3009  expiration */\n      0x05\n        /* \"contracts/anntdraw.sol\":2999:3038  expiration = block.timestamp + duration */\n      dup2\n      swap1\n      sstore\n      pop\n        /* \"contracts/anntdraw.sol\":2830:3050  if (tickets.length == 0 && block.timestamp >= expiration) {... */\n    tag_184:\n        /* \"contracts/anntdraw.sol\":3111:3112  0 */\n      0x00\n        /* \"contracts/anntdraw.sol\":3096:3107  ticketPrice */\n      dup1\n      sload\n        /* \"contracts/anntdraw.sol\":3084:3093  msg.value */\n      callvalue\n        /* \"contracts/anntdraw.sol\":3084:3107  msg.value % ticketPrice */\n      tag_186\n      swap2\n      swap1\n      tag_154\n      jump\t// in\n    tag_186:\n        /* \"contracts/anntdraw.sol\":3084:3112  msg.value % ticketPrice == 0 */\n      eq\n        /* \"contracts/anntdraw.sol\":3210:3239  Strings.toString(ticketPrice) */\n      tag_187\n        /* \"contracts/anntdraw.sol\":3227:3238  ticketPrice */\n      sload(0x00)\n        /* \"contracts/anntdraw.sol\":3210:3226  Strings.toString */\n      tag_188\n        /* \"contracts/anntdraw.sol\":3210:3239  Strings.toString(ticketPrice) */\n      jump\t// in\n    tag_187:\n        /* \"contracts/anntdraw.sol\":3127:3281  string.concat(... */\n      add(0x20, mload(0x40))\n      tag_189\n      swap2\n      swap1\n      tag_190\n      jump\t// in\n    tag_189:\n      mload(0x40)\n      0x20\n      dup2\n      dup4\n      sub\n      sub\n      dup2\n      mstore\n      swap1\n      0x40\n      mstore\n        /* \"contracts/anntdraw.sol\":3062:3292  require(... */\n      swap1\n      tag_191\n      jumpi\n      mload(0x40)\n      0x08c379a000000000000000000000000000000000000000000000000000000000\n      dup2\n      mstore\n      0x04\n      add\n      tag_192\n      swap2\n      swap1\n      tag_193\n      jump\t// in\n    tag_192:\n      mload(0x40)\n      dup1\n      swap2\n      sub\n      swap1\n      revert\n    tag_191:\n      pop\n        /* \"contracts/anntdraw.sol\":3303:3328  uint256 numOfTicketsToBuy */\n      0x00\n        /* \"contracts/anntdraw.sol\":3343:3354  ticketPrice */\n      dup1\n      sload\n        /* \"contracts/anntdraw.sol\":3331:3340  msg.value */\n      callvalue\n        /* \"contracts/anntdraw.sol\":3331:3354  msg.value / ticketPrice */\n      tag_194\n      swap2\n      swap1\n      tag_195\n      jump\t// in\n    tag_194:\n        /* \"contracts/anntdraw.sol\":3303:3354  uint256 numOfTicketsToBuy = msg.value / ticketPrice */\n      swap1\n      pop\n        /* \"contracts/anntdraw.sol\":3410:3428  RemainingTickets() */\n      tag_196\n        /* \"contracts/anntdraw.sol\":3410:3426  RemainingTickets */\n      tag_85\n        /* \"contracts/anntdraw.sol\":3410:3428  RemainingTickets() */\n      jump\t// in\n    tag_196:\n        /* \"contracts/anntdraw.sol\":3389:3406  numOfTicketsToBuy */\n      dup2\n        /* \"contracts/anntdraw.sol\":3389:3428  numOfTicketsToBuy <= RemainingTickets() */\n      gt\n      iszero\n        /* \"contracts/anntdraw.sol\":3367:3485  require(... */\n      tag_197\n      jumpi\n      mload(0x40)\n      0x08c379a000000000000000000000000000000000000000000000000000000000\n      dup2\n      mstore\n      0x04\n      add\n      tag_198\n      swap1\n      tag_199\n      jump\t// in\n    tag_198:\n      mload(0x40)\n      dup1\n      swap2\n      sub\n      swap1\n      revert\n    tag_197:\n        /* \"contracts/anntdraw.sol\":3596:3616  maxTicketsPerAddress */\n      sload(0x04)\n        /* \"contracts/anntdraw.sol\":3558:3575  numOfTicketsToBuy */\n      dup2\n        /* \"contracts/anntdraw.sol\":3520:3555  getNumTicketsPerAddress(msg.sender) */\n      tag_200\n        /* \"contracts/anntdraw.sol\":3544:3554  msg.sender */\n      caller\n        /* \"contracts/anntdraw.sol\":3520:3543  getNumTicketsPerAddress */\n      tag_201\n        /* \"contracts/anntdraw.sol\":3520:3555  getNumTicketsPerAddress(msg.sender) */\n      jump\t// in\n    tag_200:\n        /* \"contracts/anntdraw.sol\":3520:3575  getNumTicketsPerAddress(msg.sender) + numOfTicketsToBuy */\n      tag_202\n      swap2\n      swap1\n      tag_163\n      jump\t// in\n    tag_202:\n        /* \"contracts/anntdraw.sol\":3520:3616  getNumTicketsPerAddress(msg.sender) + numOfTicketsToBuy <=... */\n      gt\n      iszero\n        /* \"contracts/anntdraw.sol\":3498:3677  require(... */\n      tag_203\n      jumpi\n      mload(0x40)\n      0x08c379a000000000000000000000000000000000000000000000000000000000\n      dup2\n      mstore\n      0x04\n      add\n      tag_204\n      swap1\n      tag_205\n      jump\t// in\n    tag_204:\n      mload(0x40)\n      dup1\n      swap2\n      sub\n      swap1\n      revert\n    tag_203:\n        /* \"contracts/anntdraw.sol\":3695:3704  uint256 i */\n      0x00\n        /* \"contracts/anntdraw.sol\":3690:3789  for (uint256 i = 0; i < numOfTicketsToBuy; i++) {... */\n    tag_206:\n        /* \"contracts/anntdraw.sol\":3714:3731  numOfTicketsToBuy */\n      dup2\n        /* \"contracts/anntdraw.sol\":3710:3711  i */\n      dup2\n        /* \"contracts/anntdraw.sol\":3710:3731  i < numOfTicketsToBuy */\n      lt\n        /* \"contracts/anntdraw.sol\":3690:3789  for (uint256 i = 0; i < numOfTicketsToBuy; i++) {... */\n      iszero\n      tag_207\n      jumpi\n        /* \"contracts/anntdraw.sol\":3753:3760  tickets */\n      0x0b\n        /* \"contracts/anntdraw.sol\":3766:3776  msg.sender */\n      caller\n        /* \"contracts/anntdraw.sol\":3753:3777  tickets.push(msg.sender) */\n      swap1\n      dup1\n      0x01\n      dup2\n      sload\n      add\n      dup1\n      dup3\n      sstore\n      dup1\n      swap2\n      pop\n      pop\n      0x01\n      swap1\n      sub\n      swap1\n      0x00\n      mstore\n      keccak256(0x00, 0x20)\n      add\n      0x00\n      swap1\n      swap2\n      swap1\n      swap2\n      swap1\n      swap2\n      0x0100\n      exp\n      dup2\n      sload\n      dup2\n      0xffffffffffffffffffffffffffffffffffffffff\n      mul\n      not\n      and\n      swap1\n      dup4\n      0xffffffffffffffffffffffffffffffffffffffff\n      and\n      mul\n      or\n      swap1\n      sstore\n      pop\n        /* \"contracts/anntdraw.sol\":3733:3736  i++ */\n      dup1\n      dup1\n      tag_210\n      swap1\n      tag_211\n      jump\t// in\n    tag_210:\n      swap2\n      pop\n      pop\n        /* \"contracts/anntdraw.sol\":3690:3789  for (uint256 i = 0; i < numOfTicketsToBuy; i++) {... */\n      jump(tag_206)\n    tag_207:\n      pop\n        /* \"contracts/anntdraw.sol\":2819:3796  {... */\n      pop\n        /* \"contracts/anntdraw.sol\":2782:3796  function BuyTickets() public payable {... */\n      jump\t// out\n        /* \"contracts/anntdraw.sol\":6088:6199  function RemainingTickets() public view returns (uint256) {... */\n    tag_85:\n        /* \"contracts/anntdraw.sol\":6137:6144  uint256 */\n      0x00\n        /* \"contracts/anntdraw.sol\":6177:6184  tickets */\n      0x0b\n        /* \"contracts/anntdraw.sol\":6177:6191  tickets.length */\n      dup1\n      sload\n      swap1\n      pop\n        /* \"contracts/anntdraw.sol\":6164:6174  maxTickets */\n      sload(0x01)\n        /* \"contracts/anntdraw.sol\":6164:6191  maxTickets - tickets.length */\n      tag_213\n      swap2\n      swap1\n      tag_150\n      jump\t// in\n    tag_213:\n        /* \"contracts/anntdraw.sol\":6157:6191  return maxTickets - tickets.length */\n      swap1\n      pop\n        /* \"contracts/anntdraw.sol\":6088:6199  function RemainingTickets() public view returns (uint256) {... */\n      swap1\n      jump\t// out\n        /* \"contracts/anntdraw.sol\":5859:5956  function IsWinner() public view returns (bool) {... */\n    tag_89:\n        /* \"contracts/anntdraw.sol\":5900:5904  bool */\n      0x00\n        /* \"contracts/anntdraw.sol\":5947:5948  0 */\n      dup1\n        /* \"contracts/anntdraw.sol\":5924:5932  winnings */\n      0x0a\n        /* \"contracts/anntdraw.sol\":5924:5944  winnings[msg.sender] */\n      0x00\n        /* \"contracts/anntdraw.sol\":5933:5943  msg.sender */\n      caller\n        /* \"contracts/anntdraw.sol\":5924:5944  winnings[msg.sender] */\n      0xffffffffffffffffffffffffffffffffffffffff\n      and\n      0xffffffffffffffffffffffffffffffffffffffff\n      and\n      dup2\n      mstore\n      0x20\n      add\n      swap1\n      dup2\n      mstore\n      0x20\n      add\n      0x00\n      keccak256\n      sload\n        /* \"contracts/anntdraw.sol\":5924:5948  winnings[msg.sender] > 0 */\n      gt\n        /* \"contracts/anntdraw.sol\":5917:5948  return winnings[msg.sender] > 0 */\n      swap1\n      pop\n        /* \"contracts/anntdraw.sol\":5859:5956  function IsWinner() public view returns (bool) {... */\n      swap1\n      jump\t// out\n        /* \"contracts/anntdraw.sol\":1771:1938  function setMaxTicketsPerAddress(... */\n    tag_95:\n        /* \"contracts/anntdraw.sol\":1183:1198  lotteryOperator */\n      0x06\n      0x00\n      swap1\n      sload\n      swap1\n      0x0100\n      exp\n      swap1\n      div\n      0xffffffffffffffffffffffffffffffffffffffff\n      and\n        /* \"contracts/anntdraw.sol\":1169:1198  msg.sender == lotteryOperator */\n      0xffffffffffffffffffffffffffffffffffffffff\n      and\n        /* \"contracts/anntdraw.sol\":1169:1179  msg.sender */\n      caller\n        /* \"contracts/anntdraw.sol\":1169:1198  msg.sender == lotteryOperator */\n      0xffffffffffffffffffffffffffffffffffffffff\n      and\n      eq\n        /* \"contracts/anntdraw.sol\":1146:1261  require(... */\n      tag_216\n      jumpi\n      mload(0x40)\n      0x08c379a000000000000000000000000000000000000000000000000000000000\n      dup2\n      mstore\n      0x04\n      add\n      tag_217\n      swap1\n      tag_138\n      jump\t// in\n    tag_217:\n      mload(0x40)\n      dup1\n      swap2\n      sub\n      swap1\n      revert\n    tag_216:\n        /* \"contracts/anntdraw.sol\":1907:1930  newMaxTicketsPerAddress */\n      dup1\n        /* \"contracts/anntdraw.sol\":1884:1904  maxTicketsPerAddress */\n      0x04\n        /* \"contracts/anntdraw.sol\":1884:1930  maxTicketsPerAddress = newMaxTicketsPerAddress */\n      dup2\n      swap1\n      sstore\n      pop\n        /* \"contracts/anntdraw.sol\":1771:1938  function setMaxTicketsPerAddress(... */\n      pop\n      jump\t// out\n        /* \"contracts/anntdraw.sol\":1372:1692  function updateLotteryParams(... */\n    tag_100:\n        /* \"contracts/anntdraw.sol\":1183:1198  lotteryOperator */\n      0x06\n      0x00\n      swap1\n      sload\n      swap1\n      0x0100\n      exp\n      swap1\n      div\n      0xffffffffffffffffffffffffffffffffffffffff\n      and\n        /* \"contracts/anntdraw.sol\":1169:1198  msg.sender == lotteryOperator */\n      0xffffffffffffffffffffffffffffffffffffffff\n      and\n        /* \"contracts/anntdraw.sol\":1169:1179  msg.sender */\n      caller\n        /* \"contracts/anntdraw.sol\":1169:1198  msg.sender == lotteryOperator */\n      0xffffffffffffffffffffffffffffffffffffffff\n      and\n      eq\n        /* \"contracts/anntdraw.sol\":1146:1261  require(... */\n      tag_220\n      jumpi\n      mload(0x40)\n      0x08c379a000000000000000000000000000000000000000000000000000000000\n      dup2\n      mstore\n      0x04\n      add\n      tag_221\n      swap1\n      tag_138\n      jump\t// in\n    tag_221:\n      mload(0x40)\n      dup1\n      swap2\n      sub\n      swap1\n      revert\n    tag_220:\n        /* \"contracts/anntdraw.sol\":1570:1591  newTicketPriceInEther */\n      dup3\n        /* \"contracts/anntdraw.sol\":1556:1567  ticketPrice */\n      0x00\n        /* \"contracts/anntdraw.sol\":1556:1591  ticketPrice = newTicketPriceInEther */\n      dup2\n      swap1\n      sstore\n      pop\n        /* \"contracts/anntdraw.sol\":1615:1628  newMaxTickets */\n      dup2\n        /* \"contracts/anntdraw.sol\":1602:1612  maxTickets */\n      0x01\n        /* \"contracts/anntdraw.sol\":1602:1628  maxTickets = newMaxTickets */\n      dup2\n      swap1\n      sstore\n      pop\n        /* \"contracts/anntdraw.sol\":1658:1684  newTicketCommissionInEther */\n      dup1\n        /* \"contracts/anntdraw.sol\":1639:1655  ticketCommission */\n      0x02\n        /* \"contracts/anntdraw.sol\":1639:1684  ticketCommission = newTicketCommissionInEther */\n      dup2\n      swap1\n      sstore\n      pop\n        /* \"contracts/anntdraw.sol\":1372:1692  function updateLotteryParams(... */\n      pop\n      pop\n      pop\n      jump\t// out\n        /* \"contracts/anntdraw.sol\":198:229  uint256 public maxTickets = 150 */\n    tag_103:\n      sload(0x01)\n      dup2\n      jump\t// out\n        /* \"contracts/anntdraw.sol\":5233:5575  function RefundAll() public {... */\n    tag_107:\n        /* \"contracts/anntdraw.sol\":5299:5309  expiration */\n      sload(0x05)\n        /* \"contracts/anntdraw.sol\":5280:5295  block.timestamp */\n      timestamp\n        /* \"contracts/anntdraw.sol\":5280:5309  block.timestamp >= expiration */\n      lt\n      iszero\n        /* \"contracts/anntdraw.sol\":5272:5341  require(block.timestamp >= expiration, \"the lottery not expired yet\") */\n      tag_224\n      jumpi\n      mload(0x40)\n      0x08c379a000000000000000000000000000000000000000000000000000000000\n      dup2\n      mstore\n      0x04\n      add\n      tag_225\n      swap1\n      tag_226\n      jump\t// in\n    tag_225:\n      mload(0x40)\n      dup1\n      swap2\n      sub\n      swap1\n      revert\n    tag_224:\n        /* \"contracts/anntdraw.sol\":5359:5368  uint256 i */\n      0x00\n        /* \"contracts/anntdraw.sol\":5354:5543  for (uint256 i = 0; i < tickets.length; i++) {... */\n    tag_227:\n        /* \"contracts/anntdraw.sol\":5378:5385  tickets */\n      0x0b\n        /* \"contracts/anntdraw.sol\":5378:5392  tickets.length */\n      dup1\n      sload\n      swap1\n      pop\n        /* \"contracts/anntdraw.sol\":5374:5375  i */\n      dup2\n        /* \"contracts/anntdraw.sol\":5374:5392  i < tickets.length */\n      lt\n        /* \"contracts/anntdraw.sol\":5354:5543  for (uint256 i = 0; i < tickets.length; i++) {... */\n      iszero\n      tag_228\n      jumpi\n        /* \"contracts/anntdraw.sol\":5414:5432  address payable to */\n      0x00\n        /* \"contracts/anntdraw.sol\":5443:5450  tickets */\n      0x0b\n        /* \"contracts/anntdraw.sol\":5451:5452  i */\n      dup3\n        /* \"contracts/anntdraw.sol\":5443:5453  tickets[i] */\n      dup2\n      sload\n      dup2\n      lt\n      tag_230\n      jumpi\n      tag_231\n      tag_157\n      jump\t// in\n    tag_231:\n    tag_230:\n      swap1\n      0x00\n      mstore\n      keccak256(0x00, 0x20)\n      add\n      0x00\n      swap1\n      sload\n      swap1\n      0x0100\n      exp\n      swap1\n      div\n      0xffffffffffffffffffffffffffffffffffffffff\n      and\n        /* \"contracts/anntdraw.sol\":5414:5454  address payable to = payable(tickets[i]) */\n      swap1\n      pop\n        /* \"contracts/anntdraw.sol\":5490:5491  0 */\n      0x00\n        /* \"contracts/anntdraw.sol\":5469:5476  tickets */\n      0x0b\n        /* \"contracts/anntdraw.sol\":5477:5478  i */\n      dup4\n        /* \"contracts/anntdraw.sol\":5469:5479  tickets[i] */\n      dup2\n      sload\n      dup2\n      lt\n      tag_233\n      jumpi\n      tag_234\n      tag_157\n      jump\t// in\n    tag_234:\n    tag_233:\n      swap1\n      0x00\n      mstore\n      keccak256(0x00, 0x20)\n      add\n      0x00\n        /* \"contracts/anntdraw.sol\":5469:5492  tickets[i] = address(0) */\n      0x0100\n      exp\n      dup2\n      sload\n      dup2\n      0xffffffffffffffffffffffffffffffffffffffff\n      mul\n      not\n      and\n      swap1\n      dup4\n      0xffffffffffffffffffffffffffffffffffffffff\n      and\n      mul\n      or\n      swap1\n      sstore\n      pop\n        /* \"contracts/anntdraw.sol\":5507:5509  to */\n      dup1\n        /* \"contracts/anntdraw.sol\":5507:5518  to.transfer */\n      0xffffffffffffffffffffffffffffffffffffffff\n      and\n        /* \"contracts/anntdraw.sol\":5507:5531  to.transfer(ticketPrice) */\n      0x08fc\n        /* \"contracts/anntdraw.sol\":5519:5530  ticketPrice */\n      sload(0x00)\n        /* \"contracts/anntdraw.sol\":5507:5531  to.transfer(ticketPrice) */\n      swap1\n      dup2\n      iszero\n      mul\n      swap1\n      mload(0x40)\n      0x00\n      mload(0x40)\n      dup1\n      dup4\n      sub\n      dup2\n      dup6\n      dup9\n      dup9\n      call\n      swap4\n      pop\n      pop\n      pop\n      pop\n      iszero\n      dup1\n      iszero\n      tag_237\n      jumpi\n      returndatasize\n      0x00\n      dup1\n      returndatacopy\n      revert(0x00, returndatasize)\n    tag_237:\n      pop\n        /* \"contracts/anntdraw.sol\":5399:5543  {... */\n      pop\n        /* \"contracts/anntdraw.sol\":5394:5397  i++ */\n      dup1\n      dup1\n      tag_238\n      swap1\n      tag_211\n      jump\t// in\n    tag_238:\n      swap2\n      pop\n      pop\n        /* \"contracts/anntdraw.sol\":5354:5543  for (uint256 i = 0; i < tickets.length; i++) {... */\n      jump(tag_227)\n    tag_228:\n      pop\n        /* \"contracts/anntdraw.sol\":5560:5567  tickets */\n      0x0b\n      0x00\n        /* \"contracts/anntdraw.sol\":5553:5567  delete tickets */\n      tag_239\n      swap2\n      swap1\n      tag_167\n      jump\t// in\n    tag_239:\n        /* \"contracts/anntdraw.sol\":5233:5575  function RefundAll() public {... */\n      jump\t// out\n        /* \"contracts/anntdraw.sol\":675:717  uint256 public operatorTotalCommission = 0 */\n    tag_110:\n      sload(0x07)\n      dup2\n      jump\t// out\n        /* \"contracts/anntdraw.sol\":5964:6080  function CurrentWinningReward() public view returns (uint256) {... */\n    tag_114:\n        /* \"contracts/anntdraw.sol\":6017:6024  uint256 */\n      0x00\n        /* \"contracts/anntdraw.sol\":6061:6072  ticketPrice */\n      dup1\n      sload\n        /* \"contracts/anntdraw.sol\":6044:6051  tickets */\n      0x0b\n        /* \"contracts/anntdraw.sol\":6044:6058  tickets.length */\n      dup1\n      sload\n      swap1\n      pop\n        /* \"contracts/anntdraw.sol\":6044:6072  tickets.length * ticketPrice */\n      tag_241\n      swap2\n      swap1\n      tag_161\n      jump\t// in\n    tag_241:\n        /* \"contracts/anntdraw.sol\":6037:6072  return tickets.length * ticketPrice */\n      swap1\n      pop\n        /* \"contracts/anntdraw.sol\":5964:6080  function CurrentWinningReward() public view returns (uint256) {... */\n      swap1\n      jump\t// out\n        /* \"contracts/anntdraw.sol\":2350:2465  function getWinningsForAddress(address addr) public view returns (uint256) {... */\n    tag_120:\n        /* \"contracts/anntdraw.sol\":2416:2423  uint256 */\n      0x00\n        /* \"contracts/anntdraw.sol\":2443:2451  winnings */\n      0x0a\n        /* \"contracts/anntdraw.sol\":2443:2457  winnings[addr] */\n      0x00\n        /* \"contracts/anntdraw.sol\":2452:2456  addr */\n      dup4\n        /* \"contracts/anntdraw.sol\":2443:2457  winnings[addr] */\n      0xffffffffffffffffffffffffffffffffffffffff\n      and\n      0xffffffffffffffffffffffffffffffffffffffff\n      and\n      dup2\n      mstore\n      0x20\n      add\n      swap1\n      dup2\n      mstore\n      0x20\n      add\n      0x00\n      keccak256\n      sload\n        /* \"contracts/anntdraw.sol\":2436:2457  return winnings[addr] */\n      swap1\n      pop\n        /* \"contracts/anntdraw.sol\":2350:2465  function getWinningsForAddress(address addr) public view returns (uint256) {... */\n      swap2\n      swap1\n      pop\n      jump\t// out\n        /* \"contracts/anntdraw.sol\":903:946  mapping(address => uint256) public winnings */\n    tag_125:\n      mstore(0x20, 0x0a)\n      dup1\n      0x00\n      mstore\n      keccak256(0x00, 0x40)\n      0x00\n      swap2\n      pop\n      swap1\n      pop\n      sload\n      dup2\n      jump\t// out\n        /* \"contracts/anntdraw.sol\":4550:4757  function restartDraw() public isOperator {... */\n    tag_129:\n        /* \"contracts/anntdraw.sol\":1183:1198  lotteryOperator */\n      0x06\n      0x00\n      swap1\n      sload\n      swap1\n      0x0100\n      exp\n      swap1\n      div\n      0xffffffffffffffffffffffffffffffffffffffff\n      and\n        /* \"contracts/anntdraw.sol\":1169:1198  msg.sender == lotteryOperator */\n      0xffffffffffffffffffffffffffffffffffffffff\n      and\n        /* \"contracts/anntdraw.sol\":1169:1179  msg.sender */\n      caller\n        /* \"contracts/anntdraw.sol\":1169:1198  msg.sender == lotteryOperator */\n      0xffffffffffffffffffffffffffffffffffffffff\n      and\n      eq\n        /* \"contracts/anntdraw.sol\":1146:1261  require(... */\n      tag_244\n      jumpi\n      mload(0x40)\n      0x08c379a000000000000000000000000000000000000000000000000000000000\n      dup2\n      mstore\n      0x04\n      add\n      tag_245\n      swap1\n      tag_138\n      jump\t// in\n    tag_245:\n      mload(0x40)\n      dup1\n      swap2\n      sub\n      swap1\n      revert\n    tag_244:\n        /* \"contracts/anntdraw.sol\":4628:4629  0 */\n      0x00\n        /* \"contracts/anntdraw.sol\":4610:4617  tickets */\n      0x0b\n        /* \"contracts/anntdraw.sol\":4610:4624  tickets.length */\n      dup1\n      sload\n      swap1\n      pop\n        /* \"contracts/anntdraw.sol\":4610:4629  tickets.length == 0 */\n      eq\n        /* \"contracts/anntdraw.sol\":4602:4672  require(tickets.length == 0, \"Cannot Restart Draw as Draw is in play\") */\n      tag_247\n      jumpi\n      mload(0x40)\n      0x08c379a000000000000000000000000000000000000000000000000000000000\n      dup2\n      mstore\n      0x04\n      add\n      tag_248\n      swap1\n      tag_249\n      jump\t// in\n    tag_248:\n      mload(0x40)\n      dup1\n      swap2\n      sub\n      swap1\n      revert\n    tag_247:\n        /* \"contracts/anntdraw.sol\":4692:4699  tickets */\n      0x0b\n      0x00\n        /* \"contracts/anntdraw.sol\":4685:4699  delete tickets */\n      tag_250\n      swap2\n      swap1\n      tag_167\n      jump\t// in\n    tag_250:\n        /* \"contracts/anntdraw.sol\":4741:4749  duration */\n      sload(0x03)\n        /* \"contracts/anntdraw.sol\":4723:4738  block.timestamp */\n      timestamp\n        /* \"contracts/anntdraw.sol\":4723:4749  block.timestamp + duration */\n      tag_251\n      swap2\n      swap1\n      tag_163\n      jump\t// in\n    tag_251:\n        /* \"contracts/anntdraw.sol\":4710:4720  expiration */\n      0x05\n        /* \"contracts/anntdraw.sol\":4710:4749  expiration = block.timestamp + duration */\n      dup2\n      swap1\n      sstore\n      pop\n        /* \"contracts/anntdraw.sol\":4550:4757  function restartDraw() public isOperator {... */\n      jump\t// out\n        /* \"contracts/anntdraw.sol\":756:781  address public lastWinner */\n    tag_132:\n      0x08\n      0x00\n      swap1\n      sload\n      swap1\n      0x0100\n      exp\n      swap1\n      div\n      0xffffffffffffffffffffffffffffffffffffffff\n      and\n      dup2\n      jump\t// out\n        /* \"@openzeppelin/contracts/utils/Strings.sol\":447:1143  function toString(uint256 value) internal pure returns (string memory) {... */\n    tag_188:\n        /* \"@openzeppelin/contracts/utils/Strings.sol\":503:516  string memory */\n      0x60\n        /* \"@openzeppelin/contracts/utils/Strings.sol\":552:566  uint256 length */\n      0x00\n        /* \"@openzeppelin/contracts/utils/Strings.sol\":589:590  1 */\n      0x01\n        /* \"@openzeppelin/contracts/utils/Strings.sol\":569:586  Math.log10(value) */\n      tag_253\n        /* \"@openzeppelin/contracts/utils/Strings.sol\":580:585  value */\n      dup5\n        /* \"@openzeppelin/contracts/utils/Strings.sol\":569:579  Math.log10 */\n      tag_254\n        /* \"@openzeppelin/contracts/utils/Strings.sol\":569:586  Math.log10(value) */\n      jump\t// in\n    tag_253:\n        /* \"@openzeppelin/contracts/utils/Strings.sol\":569:590  Math.log10(value) + 1 */\n      add\n        /* \"@openzeppelin/contracts/utils/Strings.sol\":552:590  uint256 length = Math.log10(value) + 1 */\n      swap1\n      pop\n        /* \"@openzeppelin/contracts/utils/Strings.sol\":604:624  string memory buffer */\n      0x00\n        /* \"@openzeppelin/contracts/utils/Strings.sol\":638:644  length */\n      dup2\n        /* \"@openzeppelin/contracts/utils/Strings.sol\":627:645  new string(length) */\n      0xffffffffffffffff\n      dup2\n      gt\n      iszero\n      tag_255\n      jumpi\n      tag_256\n      tag_257\n      jump\t// in\n    tag_256:\n    tag_255:\n      mload(0x40)\n      swap1\n      dup1\n      dup3\n      mstore\n      dup1\n      0x1f\n      add\n      not(0x1f)\n      and\n      0x20\n      add\n      dup3\n      add\n      0x40\n      mstore\n      dup1\n      iszero\n      tag_258\n      jumpi\n      dup2\n      0x20\n      add\n      0x01\n      dup3\n      mul\n      dup1\n      calldatasize\n      dup4\n      calldatacopy\n      dup1\n      dup3\n      add\n      swap2\n      pop\n      pop\n      swap1\n      pop\n    tag_258:\n      pop\n        /* \"@openzeppelin/contracts/utils/Strings.sol\":604:645  string memory buffer = new string(length) */\n      swap1\n      pop\n        /* \"@openzeppelin/contracts/utils/Strings.sol\":659:670  uint256 ptr */\n      0x00\n        /* \"@openzeppelin/contracts/utils/Strings.sol\":785:791  length */\n      dup3\n        /* \"@openzeppelin/contracts/utils/Strings.sol\":781:783  32 */\n      0x20\n        /* \"@openzeppelin/contracts/utils/Strings.sol\":777:792  add(32, length) */\n      add\n        /* \"@openzeppelin/contracts/utils/Strings.sol\":769:775  buffer */\n      dup3\n        /* \"@openzeppelin/contracts/utils/Strings.sol\":765:793  add(buffer, add(32, length)) */\n      add\n        /* \"@openzeppelin/contracts/utils/Strings.sol\":758:793  ptr := add(buffer, add(32, length)) */\n      swap1\n      pop\n        /* \"@openzeppelin/contracts/utils/Strings.sol\":820:1100  while (true) {... */\n    tag_259:\n        /* \"@openzeppelin/contracts/utils/Strings.sol\":827:831  true */\n      0x01\n        /* \"@openzeppelin/contracts/utils/Strings.sol\":820:1100  while (true) {... */\n      iszero\n      tag_260\n      jumpi\n        /* \"@openzeppelin/contracts/utils/Strings.sol\":851:856  ptr-- */\n      dup1\n      dup1\n      0x01\n      swap1\n      sub\n      swap2\n      pop\n      pop\n        /* \"@openzeppelin/contracts/utils/Strings.sol\":990:998  _SYMBOLS */\n      0x3031323334353637383961626364656600000000000000000000000000000000\n        /* \"@openzeppelin/contracts/utils/Strings.sol\":985:987  10 */\n      0x0a\n        /* \"@openzeppelin/contracts/utils/Strings.sol\":978:983  value */\n      dup7\n        /* \"@openzeppelin/contracts/utils/Strings.sol\":974:988  mod(value, 10) */\n      mod\n        /* \"@openzeppelin/contracts/utils/Strings.sol\":969:999  byte(mod(value, 10), _SYMBOLS) */\n      byte\n        /* \"@openzeppelin/contracts/utils/Strings.sol\":964:967  ptr */\n      dup2\n        /* \"@openzeppelin/contracts/utils/Strings.sol\":956:1000  mstore8(ptr, byte(mod(value, 10), _SYMBOLS)) */\n      mstore8\n        /* \"@openzeppelin/contracts/utils/Strings.sol\":1044:1046  10 */\n      0x0a\n        /* \"@openzeppelin/contracts/utils/Strings.sol\":1035:1046  value /= 10 */\n      dup6\n      dup2\n      tag_261\n      jumpi\n      tag_262\n      tag_263\n      jump\t// in\n    tag_262:\n    tag_261:\n      div\n      swap5\n      pop\n        /* \"@openzeppelin/contracts/utils/Strings.sol\":1077:1078  0 */\n      0x00\n        /* \"@openzeppelin/contracts/utils/Strings.sol\":1068:1073  value */\n      dup6\n        /* \"@openzeppelin/contracts/utils/Strings.sol\":1068:1078  value == 0 */\n      sub\n        /* \"@openzeppelin/contracts/utils/Strings.sol\":820:1100  while (true) {... */\n      tag_259\n        /* \"@openzeppelin/contracts/utils/Strings.sol\":1064:1085  if (value == 0) break */\n      jumpi\n        /* \"@openzeppelin/contracts/utils/Strings.sol\":820:1100  while (true) {... */\n    tag_260:\n        /* \"@openzeppelin/contracts/utils/Strings.sol\":1120:1126  buffer */\n      dup2\n        /* \"@openzeppelin/contracts/utils/Strings.sol\":1113:1126  return buffer */\n      swap4\n      pop\n      pop\n      pop\n      pop\n        /* \"@openzeppelin/contracts/utils/Strings.sol\":447:1143  function toString(uint256 value) internal pure returns (string memory) {... */\n      swap2\n      swap1\n      pop\n      jump\t// out\n        /* \"contracts/anntdraw.sol\":2473:2774  function getNumTicketsPerAddress(... */\n    tag_201:\n        /* \"contracts/anntdraw.sol\":2559:2566  uint256 */\n      0x00\n        /* \"contracts/anntdraw.sol\":2579:2592  uint256 count */\n      dup1\n        /* \"contracts/anntdraw.sol\":2595:2596  0 */\n      0x00\n        /* \"contracts/anntdraw.sol\":2579:2596  uint256 count = 0 */\n      swap1\n      pop\n        /* \"contracts/anntdraw.sol\":2612:2621  uint256 i */\n      0x00\n        /* \"contracts/anntdraw.sol\":2607:2744  for (uint256 i = 0; i < tickets.length; i++) {... */\n    tag_266:\n        /* \"contracts/anntdraw.sol\":2631:2638  tickets */\n      0x0b\n        /* \"contracts/anntdraw.sol\":2631:2645  tickets.length */\n      dup1\n      sload\n      swap1\n      pop\n        /* \"contracts/anntdraw.sol\":2627:2628  i */\n      dup2\n        /* \"contracts/anntdraw.sol\":2627:2645  i < tickets.length */\n      lt\n        /* \"contracts/anntdraw.sol\":2607:2744  for (uint256 i = 0; i < tickets.length; i++) {... */\n      iszero\n      tag_267\n      jumpi\n        /* \"contracts/anntdraw.sol\":2685:2689  addr */\n      dup4\n        /* \"contracts/anntdraw.sol\":2671:2689  tickets[i] == addr */\n      0xffffffffffffffffffffffffffffffffffffffff\n      and\n        /* \"contracts/anntdraw.sol\":2671:2678  tickets */\n      0x0b\n        /* \"contracts/anntdraw.sol\":2679:2680  i */\n      dup3\n        /* \"contracts/anntdraw.sol\":2671:2681  tickets[i] */\n      dup2\n      sload\n      dup2\n      lt\n      tag_269\n      jumpi\n      tag_270\n      tag_157\n      jump\t// in\n    tag_270:\n    tag_269:\n      swap1\n      0x00\n      mstore\n      keccak256(0x00, 0x20)\n      add\n      0x00\n      swap1\n      sload\n      swap1\n      0x0100\n      exp\n      swap1\n      div\n      0xffffffffffffffffffffffffffffffffffffffff\n      and\n        /* \"contracts/anntdraw.sol\":2671:2689  tickets[i] == addr */\n      0xffffffffffffffffffffffffffffffffffffffff\n      and\n      sub\n        /* \"contracts/anntdraw.sol\":2667:2733  if (tickets[i] == addr) {... */\n      tag_272\n      jumpi\n        /* \"contracts/anntdraw.sol\":2710:2717  count++ */\n      dup2\n      dup1\n      tag_273\n      swap1\n      tag_211\n      jump\t// in\n    tag_273:\n      swap3\n      pop\n      pop\n        /* \"contracts/anntdraw.sol\":2667:2733  if (tickets[i] == addr) {... */\n    tag_272:\n        /* \"contracts/anntdraw.sol\":2647:2650  i++ */\n      dup1\n      dup1\n      tag_274\n      swap1\n      tag_211\n      jump\t// in\n    tag_274:\n      swap2\n      pop\n      pop\n        /* \"contracts/anntdraw.sol\":2607:2744  for (uint256 i = 0; i < tickets.length; i++) {... */\n      jump(tag_266)\n    tag_267:\n      pop\n        /* \"contracts/anntdraw.sol\":2761:2766  count */\n      dup1\n        /* \"contracts/anntdraw.sol\":2754:2766  return count */\n      swap2\n      pop\n      pop\n        /* \"contracts/anntdraw.sol\":2473:2774  function getNumTicketsPerAddress(... */\n      swap2\n      swap1\n      pop\n      jump\t// out\n        /* \"@openzeppelin/contracts/utils/math/Math.sol\":10139:11055  function log10(uint256 value) internal pure returns (uint256) {... */\n    tag_254:\n        /* \"@openzeppelin/contracts/utils/math/Math.sol\":10192:10199  uint256 */\n      0x00\n        /* \"@openzeppelin/contracts/utils/math/Math.sol\":10211:10225  uint256 result */\n      dup1\n        /* \"@openzeppelin/contracts/utils/math/Math.sol\":10228:10229  0 */\n      0x00\n        /* \"@openzeppelin/contracts/utils/math/Math.sol\":10211:10229  uint256 result = 0 */\n      swap1\n      pop\n        /* \"@openzeppelin/contracts/utils/math/Math.sol\":10276:10284  10 ** 64 */\n      0x184f03e93ff9f4daa797ed6e38ed64bf6a1f010000000000000000\n        /* \"@openzeppelin/contracts/utils/math/Math.sol\":10267:10272  value */\n      dup4\n        /* \"@openzeppelin/contracts/utils/math/Math.sol\":10267:10284  value >= 10 ** 64 */\n      lt\n        /* \"@openzeppelin/contracts/utils/math/Math.sol\":10263:10366  if (value >= 10 ** 64) {... */\n      tag_276\n      jumpi\n        /* \"@openzeppelin/contracts/utils/math/Math.sol\":10313:10321  10 ** 64 */\n      0x184f03e93ff9f4daa797ed6e38ed64bf6a1f010000000000000000\n        /* \"@openzeppelin/contracts/utils/math/Math.sol\":10304:10321  value /= 10 ** 64 */\n      dup4\n      dup2\n      tag_277\n      jumpi\n      tag_278\n      tag_263\n      jump\t// in\n    tag_278:\n    tag_277:\n      div\n      swap3\n      pop\n        /* \"@openzeppelin/contracts/utils/math/Math.sol\":10349:10351  64 */\n      0x40\n        /* \"@openzeppelin/contracts/utils/math/Math.sol\":10339:10351  result += 64 */\n      dup2\n      add\n      swap1\n      pop\n        /* \"@openzeppelin/contracts/utils/math/Math.sol\":10263:10366  if (value >= 10 ** 64) {... */\n    tag_276:\n        /* \"@openzeppelin/contracts/utils/math/Math.sol\":10392:10400  10 ** 32 */\n      0x04ee2d6d415b85acef8100000000\n        /* \"@openzeppelin/contracts/utils/math/Math.sol\":10383:10388  value */\n      dup4\n        /* \"@openzeppelin/contracts/utils/math/Math.sol\":10383:10400  value >= 10 ** 32 */\n      lt\n        /* \"@openzeppelin/contracts/utils/math/Math.sol\":10379:10482  if (value >= 10 ** 32) {... */\n      tag_279\n      jumpi\n        /* \"@openzeppelin/contracts/utils/math/Math.sol\":10429:10437  10 ** 32 */\n      0x04ee2d6d415b85acef8100000000\n        /* \"@openzeppelin/contracts/utils/math/Math.sol\":10420:10437  value /= 10 ** 32 */\n      dup4\n      dup2\n      tag_280\n      jumpi\n      tag_281\n      tag_263\n      jump\t// in\n    tag_281:\n    tag_280:\n      div\n      swap3\n      pop\n        /* \"@openzeppelin/contracts/utils/math/Math.sol\":10465:10467  32 */\n      0x20\n        /* \"@openzeppelin/contracts/utils/math/Math.sol\":10455:10467  result += 32 */\n      dup2\n      add\n      swap1\n      pop\n        /* \"@openzeppelin/contracts/utils/math/Math.sol\":10379:10482  if (value >= 10 ** 32) {... */\n    tag_279:\n        /* \"@openzeppelin/contracts/utils/math/Math.sol\":10508:10516  10 ** 16 */\n      0x2386f26fc10000\n        /* \"@openzeppelin/contracts/utils/math/Math.sol\":10499:10504  value */\n      dup4\n        /* \"@openzeppelin/contracts/utils/math/Math.sol\":10499:10516  value >= 10 ** 16 */\n      lt\n        /* \"@openzeppelin/contracts/utils/math/Math.sol\":10495:10598  if (value >= 10 ** 16) {... */\n      tag_282\n      jumpi\n        /* \"@openzeppelin/contracts/utils/math/Math.sol\":10545:10553  10 ** 16 */\n      0x2386f26fc10000\n        /* \"@openzeppelin/contracts/utils/math/Math.sol\":10536:10553  value /= 10 ** 16 */\n      dup4\n      dup2\n      tag_283\n      jumpi\n      tag_284\n      tag_263\n      jump\t// in\n    tag_284:\n    tag_283:\n      div\n      swap3\n      pop\n        /* \"@openzeppelin/contracts/utils/math/Math.sol\":10581:10583  16 */\n      0x10\n        /* \"@openzeppelin/contracts/utils/math/Math.sol\":10571:10583  result += 16 */\n      dup2\n      add\n      swap1\n      pop\n        /* \"@openzeppelin/contracts/utils/math/Math.sol\":10495:10598  if (value >= 10 ** 16) {... */\n    tag_282:\n        /* \"@openzeppelin/contracts/utils/math/Math.sol\":10624:10631  10 ** 8 */\n      0x05f5e100\n        /* \"@openzeppelin/contracts/utils/math/Math.sol\":10615:10620  value */\n      dup4\n        /* \"@openzeppelin/contracts/utils/math/Math.sol\":10615:10631  value >= 10 ** 8 */\n      lt\n        /* \"@openzeppelin/contracts/utils/math/Math.sol\":10611:10711  if (value >= 10 ** 8) {... */\n      tag_285\n      jumpi\n        /* \"@openzeppelin/contracts/utils/math/Math.sol\":10660:10667  10 ** 8 */\n      0x05f5e100\n        /* \"@openzeppelin/contracts/utils/math/Math.sol\":10651:10667  value /= 10 ** 8 */\n      dup4\n      dup2\n      tag_286\n      jumpi\n      tag_287\n      tag_263\n      jump\t// in\n    tag_287:\n    tag_286:\n      div\n      swap3\n      pop\n        /* \"@openzeppelin/contracts/utils/math/Math.sol\":10695:10696  8 */\n      0x08\n        /* \"@openzeppelin/contracts/utils/math/Math.sol\":10685:10696  result += 8 */\n      dup2\n      add\n      swap1\n      pop\n        /* \"@openzeppelin/contracts/utils/math/Math.sol\":10611:10711  if (value >= 10 ** 8) {... */\n    tag_285:\n        /* \"@openzeppelin/contracts/utils/math/Math.sol\":10737:10744  10 ** 4 */\n      0x2710\n        /* \"@openzeppelin/contracts/utils/math/Math.sol\":10728:10733  value */\n      dup4\n        /* \"@openzeppelin/contracts/utils/math/Math.sol\":10728:10744  value >= 10 ** 4 */\n      lt\n        /* \"@openzeppelin/contracts/utils/math/Math.sol\":10724:10824  if (value >= 10 ** 4) {... */\n      tag_288\n      jumpi\n        /* \"@openzeppelin/contracts/utils/math/Math.sol\":10773:10780  10 ** 4 */\n      0x2710\n        /* \"@openzeppelin/contracts/utils/math/Math.sol\":10764:10780  value /= 10 ** 4 */\n      dup4\n      dup2\n      tag_289\n      jumpi\n      tag_290\n      tag_263\n      jump\t// in\n    tag_290:\n    tag_289:\n      div\n      swap3\n      pop\n        /* \"@openzeppelin/contracts/utils/math/Math.sol\":10808:10809  4 */\n      0x04\n        /* \"@openzeppelin/contracts/utils/math/Math.sol\":10798:10809  result += 4 */\n      dup2\n      add\n      swap1\n      pop\n        /* \"@openzeppelin/contracts/utils/math/Math.sol\":10724:10824  if (value >= 10 ** 4) {... */\n    tag_288:\n        /* \"@openzeppelin/contracts/utils/math/Math.sol\":10850:10857  10 ** 2 */\n      0x64\n        /* \"@openzeppelin/contracts/utils/math/Math.sol\":10841:10846  value */\n      dup4\n        /* \"@openzeppelin/contracts/utils/math/Math.sol\":10841:10857  value >= 10 ** 2 */\n      lt\n        /* \"@openzeppelin/contracts/utils/math/Math.sol\":10837:10937  if (value >= 10 ** 2) {... */\n      tag_291\n      jumpi\n        /* \"@openzeppelin/contracts/utils/math/Math.sol\":10886:10893  10 ** 2 */\n      0x64\n        /* \"@openzeppelin/contracts/utils/math/Math.sol\":10877:10893  value /= 10 ** 2 */\n      dup4\n      dup2\n      tag_292\n      jumpi\n      tag_293\n      tag_263\n      jump\t// in\n    tag_293:\n    tag_292:\n      div\n      swap3\n      pop\n        /* \"@openzeppelin/contracts/utils/math/Math.sol\":10921:10922  2 */\n      0x02\n        /* \"@openzeppelin/contracts/utils/math/Math.sol\":10911:10922  result += 2 */\n      dup2\n      add\n      swap1\n      pop\n        /* \"@openzeppelin/contracts/utils/math/Math.sol\":10837:10937  if (value >= 10 ** 2) {... */\n    tag_291:\n        /* \"@openzeppelin/contracts/utils/math/Math.sol\":10963:10970  10 ** 1 */\n      0x0a\n        /* \"@openzeppelin/contracts/utils/math/Math.sol\":10954:10959  value */\n      dup4\n        /* \"@openzeppelin/contracts/utils/math/Math.sol\":10954:10970  value >= 10 ** 1 */\n      lt\n        /* \"@openzeppelin/contracts/utils/math/Math.sol\":10950:11016  if (value >= 10 ** 1) {... */\n      tag_294\n      jumpi\n        /* \"@openzeppelin/contracts/utils/math/Math.sol\":11000:11001  1 */\n      0x01\n        /* \"@openzeppelin/contracts/utils/math/Math.sol\":10990:11001  result += 1 */\n      dup2\n      add\n      swap1\n      pop\n        /* \"@openzeppelin/contracts/utils/math/Math.sol\":10950:11016  if (value >= 10 ** 1) {... */\n    tag_294:\n        /* \"@openzeppelin/contracts/utils/math/Math.sol\":11042:11048  result */\n      dup1\n        /* \"@openzeppelin/contracts/utils/math/Math.sol\":11035:11048  return result */\n      swap2\n      pop\n      pop\n        /* \"@openzeppelin/contracts/utils/math/Math.sol\":10139:11055  function log10(uint256 value) internal pure returns (uint256) {... */\n      swap2\n      swap1\n      pop\n      jump\t// out\n    tag_167:\n      pop\n      dup1\n      sload\n      0x00\n      dup3\n      sstore\n      swap1\n      0x00\n      mstore\n      keccak256(0x00, 0x20)\n      swap1\n      dup2\n      add\n      swap1\n      tag_296\n      swap2\n      swap1\n      tag_297\n      jump\t// in\n    tag_296:\n      pop\n      jump\t// out\n    tag_297:\n    tag_298:\n      dup1\n      dup3\n      gt\n      iszero\n      tag_299\n      jumpi\n      0x00\n      dup2\n      0x00\n      swap1\n      sstore\n      pop\n      0x01\n      add\n      jump(tag_298)\n    tag_299:\n      pop\n      swap1\n      jump\t// out\n        /* \"#utility.yul\":7:84   */\n    tag_300:\n        /* \"#utility.yul\":44:51   */\n      0x00\n        /* \"#utility.yul\":73:78   */\n      dup2\n        /* \"#utility.yul\":62:78   */\n      swap1\n      pop\n        /* \"#utility.yul\":7:84   */\n      swap2\n      swap1\n      pop\n      jump\t// out\n        /* \"#utility.yul\":90:208   */\n    tag_301:\n        /* \"#utility.yul\":177:201   */\n      tag_353\n        /* \"#utility.yul\":195:200   */\n      dup2\n        /* \"#utility.yul\":177:201   */\n      tag_300\n      jump\t// in\n    tag_353:\n        /* \"#utility.yul\":172:175   */\n      dup3\n        /* \"#utility.yul\":165:202   */\n      mstore\n        /* \"#utility.yul\":90:208   */\n      pop\n      pop\n      jump\t// out\n        /* \"#utility.yul\":214:436   */\n    tag_35:\n        /* \"#utility.yul\":307:311   */\n      0x00\n        /* \"#utility.yul\":345:347   */\n      0x20\n        /* \"#utility.yul\":334:343   */\n      dup3\n        /* \"#utility.yul\":330:348   */\n      add\n        /* \"#utility.yul\":322:348   */\n      swap1\n      pop\n        /* \"#utility.yul\":358:429   */\n      tag_355\n        /* \"#utility.yul\":426:427   */\n      0x00\n        /* \"#utility.yul\":415:424   */\n      dup4\n        /* \"#utility.yul\":411:428   */\n      add\n        /* \"#utility.yul\":402:408   */\n      dup5\n        /* \"#utility.yul\":358:429   */\n      tag_301\n      jump\t// in\n    tag_355:\n        /* \"#utility.yul\":214:436   */\n      swap3\n      swap2\n      pop\n      pop\n      jump\t// out\n        /* \"#utility.yul\":442:556   */\n    tag_302:\n        /* \"#utility.yul\":509:515   */\n      0x00\n        /* \"#utility.yul\":543:548   */\n      dup2\n        /* \"#utility.yul\":537:549   */\n      mload\n        /* \"#utility.yul\":527:549   */\n      swap1\n      pop\n        /* \"#utility.yul\":442:556   */\n      swap2\n      swap1\n      pop\n      jump\t// out\n        /* \"#utility.yul\":562:746   */\n    tag_303:\n        /* \"#utility.yul\":661:672   */\n      0x00\n        /* \"#utility.yul\":695:701   */\n      dup3\n        /* \"#utility.yul\":690:693   */\n      dup3\n        /* \"#utility.yul\":683:702   */\n      mstore\n        /* \"#utility.yul\":735:739   */\n      0x20\n        /* \"#utility.yul\":730:733   */\n      dup3\n        /* \"#utility.yul\":726:740   */\n      add\n        /* \"#utility.yul\":711:740   */\n      swap1\n      pop\n        /* \"#utility.yul\":562:746   */\n      swap3\n      swap2\n      pop\n      pop\n      jump\t// out\n        /* \"#utility.yul\":752:884   */\n    tag_304:\n        /* \"#utility.yul\":819:823   */\n      0x00\n        /* \"#utility.yul\":842:845   */\n      dup2\n        /* \"#utility.yul\":834:845   */\n      swap1\n      pop\n        /* \"#utility.yul\":872:876   */\n      0x20\n        /* \"#utility.yul\":867:870   */\n      dup3\n        /* \"#utility.yul\":863:877   */\n      add\n        /* \"#utility.yul\":855:877   */\n      swap1\n      pop\n        /* \"#utility.yul\":752:884   */\n      swap2\n      swap1\n      pop\n      jump\t// out\n        /* \"#utility.yul\":890:1016   */\n    tag_305:\n        /* \"#utility.yul\":927:934   */\n      0x00\n        /* \"#utility.yul\":967:1009   */\n      0xffffffffffffffffffffffffffffffffffffffff\n        /* \"#utility.yul\":960:965   */\n      dup3\n        /* \"#utility.yul\":956:1010   */\n      and\n        /* \"#utility.yul\":945:1010   */\n      swap1\n      pop\n        /* \"#utility.yul\":890:1016   */\n      swap2\n      swap1\n      pop\n      jump\t// out\n        /* \"#utility.yul\":1022:1118   */\n    tag_306:\n        /* \"#utility.yul\":1059:1066   */\n      0x00\n        /* \"#utility.yul\":1088:1112   */\n      tag_361\n        /* \"#utility.yul\":1106:1111   */\n      dup3\n        /* \"#utility.yul\":1088:1112   */\n      tag_305\n      jump\t// in\n    tag_361:\n        /* \"#utility.yul\":1077:1112   */\n      swap1\n      pop\n        /* \"#utility.yul\":1022:1118   */\n      swap2\n      swap1\n      pop\n      jump\t// out\n        /* \"#utility.yul\":1124:1232   */\n    tag_307:\n        /* \"#utility.yul\":1201:1225   */\n      tag_363\n        /* \"#utility.yul\":1219:1224   */\n      dup2\n        /* \"#utility.yul\":1201:1225   */\n      tag_306\n      jump\t// in\n    tag_363:\n        /* \"#utility.yul\":1196:1199   */\n      dup3\n        /* \"#utility.yul\":1189:1226   */\n      mstore\n        /* \"#utility.yul\":1124:1232   */\n      pop\n      pop\n      jump\t// out\n        /* \"#utility.yul\":1238:1417   */\n    tag_308:\n        /* \"#utility.yul\":1307:1317   */\n      0x00\n        /* \"#utility.yul\":1328:1374   */\n      tag_365\n        /* \"#utility.yul\":1370:1373   */\n      dup4\n        /* \"#utility.yul\":1362:1368   */\n      dup4\n        /* \"#utility.yul\":1328:1374   */\n      tag_307\n      jump\t// in\n    tag_365:\n        /* \"#utility.yul\":1406:1410   */\n      0x20\n        /* \"#utility.yul\":1401:1404   */\n      dup4\n        /* \"#utility.yul\":1397:1411   */\n      add\n        /* \"#utility.yul\":1383:1411   */\n      swap1\n      pop\n        /* \"#utility.yul\":1238:1417   */\n      swap3\n      swap2\n      pop\n      pop\n      jump\t// out\n        /* \"#utility.yul\":1423:1536   */\n    tag_309:\n        /* \"#utility.yul\":1493:1497   */\n      0x00\n        /* \"#utility.yul\":1525:1529   */\n      0x20\n        /* \"#utility.yul\":1520:1523   */\n      dup3\n        /* \"#utility.yul\":1516:1530   */\n      add\n        /* \"#utility.yul\":1508:1530   */\n      swap1\n      pop\n        /* \"#utility.yul\":1423:1536   */\n      swap2\n      swap1\n      pop\n      jump\t// out\n        /* \"#utility.yul\":1572:2304   */\n    tag_310:\n        /* \"#utility.yul\":1691:1694   */\n      0x00\n        /* \"#utility.yul\":1720:1774   */\n      tag_368\n        /* \"#utility.yul\":1768:1773   */\n      dup3\n        /* \"#utility.yul\":1720:1774   */\n      tag_302\n      jump\t// in\n    tag_368:\n        /* \"#utility.yul\":1790:1876   */\n      tag_369\n        /* \"#utility.yul\":1869:1875   */\n      dup2\n        /* \"#utility.yul\":1864:1867   */\n      dup6\n        /* \"#utility.yul\":1790:1876   */\n      tag_303\n      jump\t// in\n    tag_369:\n        /* \"#utility.yul\":1783:1876   */\n      swap4\n      pop\n        /* \"#utility.yul\":1900:1956   */\n      tag_370\n        /* \"#utility.yul\":1950:1955   */\n      dup4\n        /* \"#utility.yul\":1900:1956   */\n      tag_304\n      jump\t// in\n    tag_370:\n        /* \"#utility.yul\":1979:1986   */\n      dup1\n        /* \"#utility.yul\":2010:2011   */\n      0x00\n        /* \"#utility.yul\":1995:2279   */\n    tag_371:\n        /* \"#utility.yul\":2020:2026   */\n      dup4\n        /* \"#utility.yul\":2017:2018   */\n      dup2\n        /* \"#utility.yul\":2014:2027   */\n      lt\n        /* \"#utility.yul\":1995:2279   */\n      iszero\n      tag_373\n      jumpi\n        /* \"#utility.yul\":2096:2102   */\n      dup2\n        /* \"#utility.yul\":2090:2103   */\n      mload\n        /* \"#utility.yul\":2123:2186   */\n      tag_374\n        /* \"#utility.yul\":2182:2185   */\n      dup9\n        /* \"#utility.yul\":2167:2180   */\n      dup3\n        /* \"#utility.yul\":2123:2186   */\n      tag_308\n      jump\t// in\n    tag_374:\n        /* \"#utility.yul\":2116:2186   */\n      swap8\n      pop\n        /* \"#utility.yul\":2209:2269   */\n      tag_375\n        /* \"#utility.yul\":2262:2268   */\n      dup4\n        /* \"#utility.yul\":2209:2269   */\n      tag_309\n      jump\t// in\n    tag_375:\n        /* \"#utility.yul\":2199:2269   */\n      swap3\n      pop\n        /* \"#utility.yul\":2055:2279   */\n      pop\n        /* \"#utility.yul\":2042:2043   */\n      0x01\n        /* \"#utility.yul\":2039:2040   */\n      dup2\n        /* \"#utility.yul\":2035:2044   */\n      add\n        /* \"#utility.yul\":2030:2044   */\n      swap1\n      pop\n        /* \"#utility.yul\":1995:2279   */\n      jump(tag_371)\n    tag_373:\n        /* \"#utility.yul\":1999:2013   */\n      pop\n        /* \"#utility.yul\":2295:2298   */\n      dup6\n        /* \"#utility.yul\":2288:2298   */\n      swap4\n      pop\n        /* \"#utility.yul\":1696:2304   */\n      pop\n      pop\n      pop\n        /* \"#utility.yul\":1572:2304   */\n      swap3\n      swap2\n      pop\n      pop\n      jump\t// out\n        /* \"#utility.yul\":2310:2683   */\n    tag_62:\n        /* \"#utility.yul\":2453:2457   */\n      0x00\n        /* \"#utility.yul\":2491:2493   */\n      0x20\n        /* \"#utility.yul\":2480:2489   */\n      dup3\n        /* \"#utility.yul\":2476:2494   */\n      add\n        /* \"#utility.yul\":2468:2494   */\n      swap1\n      pop\n        /* \"#utility.yul\":2540:2549   */\n      dup2\n        /* \"#utility.yul\":2534:2538   */\n      dup2\n        /* \"#utility.yul\":2530:2550   */\n      sub\n        /* \"#utility.yul\":2526:2527   */\n      0x00\n        /* \"#utility.yul\":2515:2524   */\n      dup4\n        /* \"#utility.yul\":2511:2528   */\n      add\n        /* \"#utility.yul\":2504:2551   */\n      mstore\n        /* \"#utility.yul\":2568:2676   */\n      tag_377\n        /* \"#utility.yul\":2671:2675   */\n      dup2\n        /* \"#utility.yul\":2662:2668   */\n      dup5\n        /* \"#utility.yul\":2568:2676   */\n      tag_310\n      jump\t// in\n    tag_377:\n        /* \"#utility.yul\":2560:2676   */\n      swap1\n      pop\n        /* \"#utility.yul\":2310:2683   */\n      swap3\n      swap2\n      pop\n      pop\n      jump\t// out\n        /* \"#utility.yul\":2770:2887   */\n    tag_312:\n        /* \"#utility.yul\":2879:2880   */\n      0x00\n        /* \"#utility.yul\":2876:2877   */\n      dup1\n        /* \"#utility.yul\":2869:2881   */\n      revert\n        /* \"#utility.yul\":3016:3138   */\n    tag_314:\n        /* \"#utility.yul\":3089:3113   */\n      tag_382\n        /* \"#utility.yul\":3107:3112   */\n      dup2\n        /* \"#utility.yul\":3089:3113   */\n      tag_300\n      jump\t// in\n    tag_382:\n        /* \"#utility.yul\":3082:3087   */\n      dup2\n        /* \"#utility.yul\":3079:3114   */\n      eq\n        /* \"#utility.yul\":3069:3132   */\n      tag_383\n      jumpi\n        /* \"#utility.yul\":3128:3129   */\n      0x00\n        /* \"#utility.yul\":3125:3126   */\n      dup1\n        /* \"#utility.yul\":3118:3130   */\n      revert\n        /* \"#utility.yul\":3069:3132   */\n    tag_383:\n        /* \"#utility.yul\":3016:3138   */\n      pop\n      jump\t// out\n        /* \"#utility.yul\":3144:3283   */\n    tag_315:\n        /* \"#utility.yul\":3190:3195   */\n      0x00\n        /* \"#utility.yul\":3228:3234   */\n      dup2\n        /* \"#utility.yul\":3215:3235   */\n      calldataload\n        /* \"#utility.yul\":3206:3235   */\n      swap1\n      pop\n        /* \"#utility.yul\":3244:3277   */\n      tag_385\n        /* \"#utility.yul\":3271:3276   */\n      dup2\n        /* \"#utility.yul\":3244:3277   */\n      tag_314\n      jump\t// in\n    tag_385:\n        /* \"#utility.yul\":3144:3283   */\n      swap3\n      swap2\n      pop\n      pop\n      jump\t// out\n        /* \"#utility.yul\":3289:3618   */\n    tag_66:\n        /* \"#utility.yul\":3348:3354   */\n      0x00\n        /* \"#utility.yul\":3397:3399   */\n      0x20\n        /* \"#utility.yul\":3385:3394   */\n      dup3\n        /* \"#utility.yul\":3376:3383   */\n      dup5\n        /* \"#utility.yul\":3372:3395   */\n      sub\n        /* \"#utility.yul\":3368:3400   */\n      slt\n        /* \"#utility.yul\":3365:3484   */\n      iszero\n      tag_387\n      jumpi\n        /* \"#utility.yul\":3403:3482   */\n      tag_388\n      tag_312\n      jump\t// in\n    tag_388:\n        /* \"#utility.yul\":3365:3484   */\n    tag_387:\n        /* \"#utility.yul\":3523:3524   */\n      0x00\n        /* \"#utility.yul\":3548:3601   */\n      tag_389\n        /* \"#utility.yul\":3593:3600   */\n      dup5\n        /* \"#utility.yul\":3584:3590   */\n      dup3\n        /* \"#utility.yul\":3573:3582   */\n      dup6\n        /* \"#utility.yul\":3569:3591   */\n      add\n        /* \"#utility.yul\":3548:3601   */\n      tag_315\n      jump\t// in\n    tag_389:\n        /* \"#utility.yul\":3538:3601   */\n      swap2\n      pop\n        /* \"#utility.yul\":3494:3611   */\n      pop\n        /* \"#utility.yul\":3289:3618   */\n      swap3\n      swap2\n      pop\n      pop\n      jump\t// out\n        /* \"#utility.yul\":3624:3742   */\n    tag_316:\n        /* \"#utility.yul\":3711:3735   */\n      tag_391\n        /* \"#utility.yul\":3729:3734   */\n      dup2\n        /* \"#utility.yul\":3711:3735   */\n      tag_306\n      jump\t// in\n    tag_391:\n        /* \"#utility.yul\":3706:3709   */\n      dup3\n        /* \"#utility.yul\":3699:3736   */\n      mstore\n        /* \"#utility.yul\":3624:3742   */\n      pop\n      pop\n      jump\t// out\n        /* \"#utility.yul\":3748:3970   */\n    tag_69:\n        /* \"#utility.yul\":3841:3845   */\n      0x00\n        /* \"#utility.yul\":3879:3881   */\n      0x20\n        /* \"#utility.yul\":3868:3877   */\n      dup3\n        /* \"#utility.yul\":3864:3882   */\n      add\n        /* \"#utility.yul\":3856:3882   */\n      swap1\n      pop\n        /* \"#utility.yul\":3892:3963   */\n      tag_393\n        /* \"#utility.yul\":3960:3961   */\n      0x00\n        /* \"#utility.yul\":3949:3958   */\n      dup4\n        /* \"#utility.yul\":3945:3962   */\n      add\n        /* \"#utility.yul\":3936:3942   */\n      dup5\n        /* \"#utility.yul\":3892:3963   */\n      tag_316\n      jump\t// in\n    tag_393:\n        /* \"#utility.yul\":3748:3970   */\n      swap3\n      swap2\n      pop\n      pop\n      jump\t// out\n        /* \"#utility.yul\":3976:4066   */\n    tag_317:\n        /* \"#utility.yul\":4010:4017   */\n      0x00\n        /* \"#utility.yul\":4053:4058   */\n      dup2\n        /* \"#utility.yul\":4046:4059   */\n      iszero\n        /* \"#utility.yul\":4039:4060   */\n      iszero\n        /* \"#utility.yul\":4028:4060   */\n      swap1\n      pop\n        /* \"#utility.yul\":3976:4066   */\n      swap2\n      swap1\n      pop\n      jump\t// out\n        /* \"#utility.yul\":4072:4181   */\n    tag_318:\n        /* \"#utility.yul\":4153:4174   */\n      tag_396\n        /* \"#utility.yul\":4168:4173   */\n      dup2\n        /* \"#utility.yul\":4153:4174   */\n      tag_317\n      jump\t// in\n    tag_396:\n        /* \"#utility.yul\":4148:4151   */\n      dup3\n        /* \"#utility.yul\":4141:4175   */\n      mstore\n        /* \"#utility.yul\":4072:4181   */\n      pop\n      pop\n      jump\t// out\n        /* \"#utility.yul\":4187:4397   */\n    tag_91:\n        /* \"#utility.yul\":4274:4278   */\n      0x00\n        /* \"#utility.yul\":4312:4314   */\n      0x20\n        /* \"#utility.yul\":4301:4310   */\n      dup3\n        /* \"#utility.yul\":4297:4315   */\n      add\n        /* \"#utility.yul\":4289:4315   */\n      swap1\n      pop\n        /* \"#utility.yul\":4325:4390   */\n      tag_398\n        /* \"#utility.yul\":4387:4388   */\n      0x00\n        /* \"#utility.yul\":4376:4385   */\n      dup4\n        /* \"#utility.yul\":4372:4389   */\n      add\n        /* \"#utility.yul\":4363:4369   */\n      dup5\n        /* \"#utility.yul\":4325:4390   */\n      tag_318\n      jump\t// in\n    tag_398:\n        /* \"#utility.yul\":4187:4397   */\n      swap3\n      swap2\n      pop\n      pop\n      jump\t// out\n        /* \"#utility.yul\":4403:5022   */\n    tag_99:\n        /* \"#utility.yul\":4480:4486   */\n      0x00\n        /* \"#utility.yul\":4488:4494   */\n      dup1\n        /* \"#utility.yul\":4496:4502   */\n      0x00\n        /* \"#utility.yul\":4545:4547   */\n      0x60\n        /* \"#utility.yul\":4533:4542   */\n      dup5\n        /* \"#utility.yul\":4524:4531   */\n      dup7\n        /* \"#utility.yul\":4520:4543   */\n      sub\n        /* \"#utility.yul\":4516:4548   */\n      slt\n        /* \"#utility.yul\":4513:4632   */\n      iszero\n      tag_400\n      jumpi\n        /* \"#utility.yul\":4551:4630   */\n      tag_401\n      tag_312\n      jump\t// in\n    tag_401:\n        /* \"#utility.yul\":4513:4632   */\n    tag_400:\n        /* \"#utility.yul\":4671:4672   */\n      0x00\n        /* \"#utility.yul\":4696:4749   */\n      tag_402\n        /* \"#utility.yul\":4741:4748   */\n      dup7\n        /* \"#utility.yul\":4732:4738   */\n      dup3\n        /* \"#utility.yul\":4721:4730   */\n      dup8\n        /* \"#utility.yul\":4717:4739   */\n      add\n        /* \"#utility.yul\":4696:4749   */\n      tag_315\n      jump\t// in\n    tag_402:\n        /* \"#utility.yul\":4686:4749   */\n      swap4\n      pop\n        /* \"#utility.yul\":4642:4759   */\n      pop\n        /* \"#utility.yul\":4798:4800   */\n      0x20\n        /* \"#utility.yul\":4824:4877   */\n      tag_403\n        /* \"#utility.yul\":4869:4876   */\n      dup7\n        /* \"#utility.yul\":4860:4866   */\n      dup3\n        /* \"#utility.yul\":4849:4858   */\n      dup8\n        /* \"#utility.yul\":4845:4867   */\n      add\n        /* \"#utility.yul\":4824:4877   */\n      tag_315\n      jump\t// in\n    tag_403:\n        /* \"#utility.yul\":4814:4877   */\n      swap3\n      pop\n        /* \"#utility.yul\":4769:4887   */\n      pop\n        /* \"#utility.yul\":4926:4928   */\n      0x40\n        /* \"#utility.yul\":4952:5005   */\n      tag_404\n        /* \"#utility.yul\":4997:5004   */\n      dup7\n        /* \"#utility.yul\":4988:4994   */\n      dup3\n        /* \"#utility.yul\":4977:4986   */\n      dup8\n        /* \"#utility.yul\":4973:4995   */\n      add\n        /* \"#utility.yul\":4952:5005   */\n      tag_315\n      jump\t// in\n    tag_404:\n        /* \"#utility.yul\":4942:5005   */\n      swap2\n      pop\n        /* \"#utility.yul\":4897:5015   */\n      pop\n        /* \"#utility.yul\":4403:5022   */\n      swap3\n      pop\n      swap3\n      pop\n      swap3\n      jump\t// out\n        /* \"#utility.yul\":5028:5150   */\n    tag_319:\n        /* \"#utility.yul\":5101:5125   */\n      tag_406\n        /* \"#utility.yul\":5119:5124   */\n      dup2\n        /* \"#utility.yul\":5101:5125   */\n      tag_306\n      jump\t// in\n    tag_406:\n        /* \"#utility.yul\":5094:5099   */\n      dup2\n        /* \"#utility.yul\":5091:5126   */\n      eq\n        /* \"#utility.yul\":5081:5144   */\n      tag_407\n      jumpi\n        /* \"#utility.yul\":5140:5141   */\n      0x00\n        /* \"#utility.yul\":5137:5138   */\n      dup1\n        /* \"#utility.yul\":5130:5142   */\n      revert\n        /* \"#utility.yul\":5081:5144   */\n    tag_407:\n        /* \"#utility.yul\":5028:5150   */\n      pop\n      jump\t// out\n        /* \"#utility.yul\":5156:5295   */\n    tag_320:\n        /* \"#utility.yul\":5202:5207   */\n      0x00\n        /* \"#utility.yul\":5240:5246   */\n      dup2\n        /* \"#utility.yul\":5227:5247   */\n      calldataload\n        /* \"#utility.yul\":5218:5247   */\n      swap1\n      pop\n        /* \"#utility.yul\":5256:5289   */\n      tag_409\n        /* \"#utility.yul\":5283:5288   */\n      dup2\n        /* \"#utility.yul\":5256:5289   */\n      tag_319\n      jump\t// in\n    tag_409:\n        /* \"#utility.yul\":5156:5295   */\n      swap3\n      swap2\n      pop\n      pop\n      jump\t// out\n        /* \"#utility.yul\":5301:5630   */\n    tag_119:\n        /* \"#utility.yul\":5360:5366   */\n      0x00\n        /* \"#utility.yul\":5409:5411   */\n      0x20\n        /* \"#utility.yul\":5397:5406   */\n      dup3\n        /* \"#utility.yul\":5388:5395   */\n      dup5\n        /* \"#utility.yul\":5384:5407   */\n      sub\n        /* \"#utility.yul\":5380:5412   */\n      slt\n        /* \"#utility.yul\":5377:5496   */\n      iszero\n      tag_411\n      jumpi\n        /* \"#utility.yul\":5415:5494   */\n      tag_412\n      tag_312\n      jump\t// in\n    tag_412:\n        /* \"#utility.yul\":5377:5496   */\n    tag_411:\n        /* \"#utility.yul\":5535:5536   */\n      0x00\n        /* \"#utility.yul\":5560:5613   */\n      tag_413\n        /* \"#utility.yul\":5605:5612   */\n      dup5\n        /* \"#utility.yul\":5596:5602   */\n      dup3\n        /* \"#utility.yul\":5585:5594   */\n      dup6\n        /* \"#utility.yul\":5581:5603   */\n      add\n        /* \"#utility.yul\":5560:5613   */\n      tag_320\n      jump\t// in\n    tag_413:\n        /* \"#utility.yul\":5550:5613   */\n      swap2\n      pop\n        /* \"#utility.yul\":5506:5623   */\n      pop\n        /* \"#utility.yul\":5301:5630   */\n      swap3\n      swap2\n      pop\n      pop\n      jump\t// out\n        /* \"#utility.yul\":5636:5805   */\n    tag_321:\n        /* \"#utility.yul\":5720:5731   */\n      0x00\n        /* \"#utility.yul\":5754:5760   */\n      dup3\n        /* \"#utility.yul\":5749:5752   */\n      dup3\n        /* \"#utility.yul\":5742:5761   */\n      mstore\n        /* \"#utility.yul\":5794:5798   */\n      0x20\n        /* \"#utility.yul\":5789:5792   */\n      dup3\n        /* \"#utility.yul\":5785:5799   */\n      add\n        /* \"#utility.yul\":5770:5799   */\n      swap1\n      pop\n        /* \"#utility.yul\":5636:5805   */\n      swap3\n      swap2\n      pop\n      pop\n      jump\t// out\n        /* \"#utility.yul\":5811:6032   */\n    tag_322:\n        /* \"#utility.yul\":5951:5985   */\n      0x43616c6c6572206973206e6f7420746865206c6f7474657279206f7065726174\n        /* \"#utility.yul\":5947:5948   */\n      0x00\n        /* \"#utility.yul\":5939:5945   */\n      dup3\n        /* \"#utility.yul\":5935:5949   */\n      add\n        /* \"#utility.yul\":5928:5986   */\n      mstore\n        /* \"#utility.yul\":6020:6024   */\n      0x6f72000000000000000000000000000000000000000000000000000000000000\n        /* \"#utility.yul\":6015:6017   */\n      0x20\n        /* \"#utility.yul\":6007:6013   */\n      dup3\n        /* \"#utility.yul\":6003:6018   */\n      add\n        /* \"#utility.yul\":5996:6025   */\n      mstore\n        /* \"#utility.yul\":5811:6032   */\n      pop\n      jump\t// out\n        /* \"#utility.yul\":6038:6404   */\n    tag_323:\n        /* \"#utility.yul\":6180:6183   */\n      0x00\n        /* \"#utility.yul\":6201:6268   */\n      tag_417\n        /* \"#utility.yul\":6265:6267   */\n      0x22\n        /* \"#utility.yul\":6260:6263   */\n      dup4\n        /* \"#utility.yul\":6201:6268   */\n      tag_321\n      jump\t// in\n    tag_417:\n        /* \"#utility.yul\":6194:6268   */\n      swap2\n      pop\n        /* \"#utility.yul\":6277:6370   */\n      tag_418\n        /* \"#utility.yul\":6366:6369   */\n      dup3\n        /* \"#utility.yul\":6277:6370   */\n      tag_322\n      jump\t// in\n    tag_418:\n        /* \"#utility.yul\":6395:6397   */\n      0x40\n        /* \"#utility.yul\":6390:6393   */\n      dup3\n        /* \"#utility.yul\":6386:6398   */\n      add\n        /* \"#utility.yul\":6379:6398   */\n      swap1\n      pop\n        /* \"#utility.yul\":6038:6404   */\n      swap2\n      swap1\n      pop\n      jump\t// out\n        /* \"#utility.yul\":6410:6829   */\n    tag_138:\n        /* \"#utility.yul\":6576:6580   */\n      0x00\n        /* \"#utility.yul\":6614:6616   */\n      0x20\n        /* \"#utility.yul\":6603:6612   */\n      dup3\n        /* \"#utility.yul\":6599:6617   */\n      add\n        /* \"#utility.yul\":6591:6617   */\n      swap1\n      pop\n        /* \"#utility.yul\":6663:6672   */\n      dup2\n        /* \"#utility.yul\":6657:6661   */\n      dup2\n        /* \"#utility.yul\":6653:6673   */\n      sub\n        /* \"#utility.yul\":6649:6650   */\n      0x00\n        /* \"#utility.yul\":6638:6647   */\n      dup4\n        /* \"#utility.yul\":6634:6651   */\n      add\n        /* \"#utility.yul\":6627:6674   */\n      mstore\n        /* \"#utility.yul\":6691:6822   */\n      tag_420\n        /* \"#utility.yul\":6817:6821   */\n      dup2\n        /* \"#utility.yul\":6691:6822   */\n      tag_323\n      jump\t// in\n    tag_420:\n        /* \"#utility.yul\":6683:6822   */\n      swap1\n      pop\n        /* \"#utility.yul\":6410:6829   */\n      swap2\n      swap1\n      pop\n      jump\t// out\n        /* \"#utility.yul\":6835:7010   */\n    tag_324:\n        /* \"#utility.yul\":6975:7002   */\n      0x4e6f207469636b65747320776572652070757263686173656400000000000000\n        /* \"#utility.yul\":6971:6972   */\n      0x00\n        /* \"#utility.yul\":6963:6969   */\n      dup3\n        /* \"#utility.yul\":6959:6973   */\n      add\n        /* \"#utility.yul\":6952:7003   */\n      mstore\n        /* \"#utility.yul\":6835:7010   */\n      pop\n      jump\t// out\n        /* \"#utility.yul\":7016:7382   */\n    tag_325:\n        /* \"#utility.yul\":7158:7161   */\n      0x00\n        /* \"#utility.yul\":7179:7246   */\n      tag_423\n        /* \"#utility.yul\":7243:7245   */\n      0x19\n        /* \"#utility.yul\":7238:7241   */\n      dup4\n        /* \"#utility.yul\":7179:7246   */\n      tag_321\n      jump\t// in\n    tag_423:\n        /* \"#utility.yul\":7172:7246   */\n      swap2\n      pop\n        /* \"#utility.yul\":7255:7348   */\n      tag_424\n        /* \"#utility.yul\":7344:7347   */\n      dup3\n        /* \"#utility.yul\":7255:7348   */\n      tag_324\n      jump\t// in\n    tag_424:\n        /* \"#utility.yul\":7373:7375   */\n      0x20\n        /* \"#utility.yul\":7368:7371   */\n      dup3\n        /* \"#utility.yul\":7364:7376   */\n      add\n        /* \"#utility.yul\":7357:7376   */\n      swap1\n      pop\n        /* \"#utility.yul\":7016:7382   */\n      swap2\n      swap1\n      pop\n      jump\t// out\n        /* \"#utility.yul\":7388:7807   */\n    tag_148:\n        /* \"#utility.yul\":7554:7558   */\n      0x00\n        /* \"#utility.yul\":7592:7594   */\n      0x20\n        /* \"#utility.yul\":7581:7590   */\n      dup3\n        /* \"#utility.yul\":7577:7595   */\n      add\n        /* \"#utility.yul\":7569:7595   */\n      swap1\n      pop\n        /* \"#utility.yul\":7641:7650   */\n      dup2\n        /* \"#utility.yul\":7635:7639   */\n      dup2\n        /* \"#utility.yul\":7631:7651   */\n      sub\n        /* \"#utility.yul\":7627:7628   */\n      0x00\n        /* \"#utility.yul\":7616:7625   */\n      dup4\n        /* \"#utility.yul\":7612:7629   */\n      add\n        /* \"#utility.yul\":7605:7652   */\n      mstore\n        /* \"#utility.yul\":7669:7800   */\n      tag_426\n        /* \"#utility.yul\":7795:7799   */\n      dup2\n        /* \"#utility.yul\":7669:7800   */\n      tag_325\n      jump\t// in\n    tag_426:\n        /* \"#utility.yul\":7661:7800   */\n      swap1\n      pop\n        /* \"#utility.yul\":7388:7807   */\n      swap2\n      swap1\n      pop\n      jump\t// out\n        /* \"#utility.yul\":7813:7993   */\n    tag_326:\n        /* \"#utility.yul\":7861:7938   */\n      0x4e487b7100000000000000000000000000000000000000000000000000000000\n        /* \"#utility.yul\":7858:7859   */\n      0x00\n        /* \"#utility.yul\":7851:7939   */\n      mstore\n        /* \"#utility.yul\":7958:7962   */\n      0x11\n        /* \"#utility.yul\":7955:7956   */\n      0x04\n        /* \"#utility.yul\":7948:7963   */\n      mstore\n        /* \"#utility.yul\":7982:7986   */\n      0x24\n        /* \"#utility.yul\":7979:7980   */\n      0x00\n        /* \"#utility.yul\":7972:7987   */\n      revert\n        /* \"#utility.yul\":7999:8193   */\n    tag_150:\n        /* \"#utility.yul\":8039:8043   */\n      0x00\n        /* \"#utility.yul\":8059:8079   */\n      tag_429\n        /* \"#utility.yul\":8077:8078   */\n      dup3\n        /* \"#utility.yul\":8059:8079   */\n      tag_300\n      jump\t// in\n    tag_429:\n        /* \"#utility.yul\":8054:8079   */\n      swap2\n      pop\n        /* \"#utility.yul\":8093:8113   */\n      tag_430\n        /* \"#utility.yul\":8111:8112   */\n      dup4\n        /* \"#utility.yul\":8093:8113   */\n      tag_300\n      jump\t// in\n    tag_430:\n        /* \"#utility.yul\":8088:8113   */\n      swap3\n      pop\n        /* \"#utility.yul\":8137:8138   */\n      dup3\n        /* \"#utility.yul\":8134:8135   */\n      dup3\n        /* \"#utility.yul\":8130:8139   */\n      sub\n        /* \"#utility.yul\":8122:8139   */\n      swap1\n      pop\n        /* \"#utility.yul\":8161:8162   */\n      dup2\n        /* \"#utility.yul\":8155:8159   */\n      dup2\n        /* \"#utility.yul\":8152:8163   */\n      gt\n        /* \"#utility.yul\":8149:8186   */\n      iszero\n      tag_431\n      jumpi\n        /* \"#utility.yul\":8166:8184   */\n      tag_432\n      tag_326\n      jump\t// in\n    tag_432:\n        /* \"#utility.yul\":8149:8186   */\n    tag_431:\n        /* \"#utility.yul\":7999:8193   */\n      swap3\n      swap2\n      pop\n      pop\n      jump\t// out\n        /* \"#utility.yul\":8199:8278   */\n    tag_327:\n        /* \"#utility.yul\":8238:8245   */\n      0x00\n        /* \"#utility.yul\":8267:8272   */\n      dup2\n        /* \"#utility.yul\":8256:8272   */\n      swap1\n      pop\n        /* \"#utility.yul\":8199:8278   */\n      swap2\n      swap1\n      pop\n      jump\t// out\n        /* \"#utility.yul\":8284:8441   */\n    tag_328:\n        /* \"#utility.yul\":8389:8434   */\n      tag_435\n        /* \"#utility.yul\":8409:8433   */\n      tag_436\n        /* \"#utility.yul\":8427:8432   */\n      dup3\n        /* \"#utility.yul\":8409:8433   */\n      tag_300\n      jump\t// in\n    tag_436:\n        /* \"#utility.yul\":8389:8434   */\n      tag_327\n      jump\t// in\n    tag_435:\n        /* \"#utility.yul\":8384:8387   */\n      dup3\n        /* \"#utility.yul\":8377:8435   */\n      mstore\n        /* \"#utility.yul\":8284:8441   */\n      pop\n      pop\n      jump\t// out\n        /* \"#utility.yul\":8447:8524   */\n    tag_329:\n        /* \"#utility.yul\":8484:8491   */\n      0x00\n        /* \"#utility.yul\":8513:8518   */\n      dup2\n        /* \"#utility.yul\":8502:8518   */\n      swap1\n      pop\n        /* \"#utility.yul\":8447:8524   */\n      swap2\n      swap1\n      pop\n      jump\t// out\n        /* \"#utility.yul\":8530:8609   */\n    tag_330:\n        /* \"#utility.yul\":8569:8576   */\n      0x00\n        /* \"#utility.yul\":8598:8603   */\n      dup2\n        /* \"#utility.yul\":8587:8603   */\n      swap1\n      pop\n        /* \"#utility.yul\":8530:8609   */\n      swap2\n      swap1\n      pop\n      jump\t// out\n        /* \"#utility.yul\":8615:8772   */\n    tag_331:\n        /* \"#utility.yul\":8720:8765   */\n      tag_440\n        /* \"#utility.yul\":8740:8764   */\n      tag_441\n        /* \"#utility.yul\":8758:8763   */\n      dup3\n        /* \"#utility.yul\":8740:8764   */\n      tag_329\n      jump\t// in\n    tag_441:\n        /* \"#utility.yul\":8720:8765   */\n      tag_330\n      jump\t// in\n    tag_440:\n        /* \"#utility.yul\":8715:8718   */\n      dup3\n        /* \"#utility.yul\":8708:8766   */\n      mstore\n        /* \"#utility.yul\":8615:8772   */\n      pop\n      pop\n      jump\t// out\n        /* \"#utility.yul\":8778:9175   */\n    tag_152:\n        /* \"#utility.yul\":8918:8921   */\n      0x00\n        /* \"#utility.yul\":8933:9008   */\n      tag_443\n        /* \"#utility.yul\":9004:9007   */\n      dup3\n        /* \"#utility.yul\":8995:9001   */\n      dup6\n        /* \"#utility.yul\":8933:9008   */\n      tag_328\n      jump\t// in\n    tag_443:\n        /* \"#utility.yul\":9033:9035   */\n      0x20\n        /* \"#utility.yul\":9028:9031   */\n      dup3\n        /* \"#utility.yul\":9024:9036   */\n      add\n        /* \"#utility.yul\":9017:9036   */\n      swap2\n      pop\n        /* \"#utility.yul\":9046:9121   */\n      tag_444\n        /* \"#utility.yul\":9117:9120   */\n      dup3\n        /* \"#utility.yul\":9108:9114   */\n      dup5\n        /* \"#utility.yul\":9046:9121   */\n      tag_331\n      jump\t// in\n    tag_444:\n        /* \"#utility.yul\":9146:9148   */\n      0x20\n        /* \"#utility.yul\":9141:9144   */\n      dup3\n        /* \"#utility.yul\":9137:9149   */\n      add\n        /* \"#utility.yul\":9130:9149   */\n      swap2\n      pop\n        /* \"#utility.yul\":9166:9169   */\n      dup2\n        /* \"#utility.yul\":9159:9169   */\n      swap1\n      pop\n        /* \"#utility.yul\":8778:9175   */\n      swap4\n      swap3\n      pop\n      pop\n      pop\n      jump\t// out\n        /* \"#utility.yul\":9181:9361   */\n    tag_263:\n        /* \"#utility.yul\":9229:9306   */\n      0x4e487b7100000000000000000000000000000000000000000000000000000000\n        /* \"#utility.yul\":9226:9227   */\n      0x00\n        /* \"#utility.yul\":9219:9307   */\n      mstore\n        /* \"#utility.yul\":9326:9330   */\n      0x12\n        /* \"#utility.yul\":9323:9324   */\n      0x04\n        /* \"#utility.yul\":9316:9331   */\n      mstore\n        /* \"#utility.yul\":9350:9354   */\n      0x24\n        /* \"#utility.yul\":9347:9348   */\n      0x00\n        /* \"#utility.yul\":9340:9355   */\n      revert\n        /* \"#utility.yul\":9367:9543   */\n    tag_154:\n        /* \"#utility.yul\":9399:9400   */\n      0x00\n        /* \"#utility.yul\":9416:9436   */\n      tag_447\n        /* \"#utility.yul\":9434:9435   */\n      dup3\n        /* \"#utility.yul\":9416:9436   */\n      tag_300\n      jump\t// in\n    tag_447:\n        /* \"#utility.yul\":9411:9436   */\n      swap2\n      pop\n        /* \"#utility.yul\":9450:9470   */\n      tag_448\n        /* \"#utility.yul\":9468:9469   */\n      dup4\n        /* \"#utility.yul\":9450:9470   */\n      tag_300\n      jump\t// in\n    tag_448:\n        /* \"#utility.yul\":9445:9470   */\n      swap3\n      pop\n        /* \"#utility.yul\":9489:9490   */\n      dup3\n        /* \"#utility.yul\":9479:9514   */\n      tag_449\n      jumpi\n        /* \"#utility.yul\":9494:9512   */\n      tag_450\n      tag_263\n      jump\t// in\n    tag_450:\n        /* \"#utility.yul\":9479:9514   */\n    tag_449:\n        /* \"#utility.yul\":9535:9536   */\n      dup3\n        /* \"#utility.yul\":9532:9533   */\n      dup3\n        /* \"#utility.yul\":9528:9537   */\n      mod\n        /* \"#utility.yul\":9523:9537   */\n      swap1\n      pop\n        /* \"#utility.yul\":9367:9543   */\n      swap3\n      swap2\n      pop\n      pop\n      jump\t// out\n        /* \"#utility.yul\":9549:9729   */\n    tag_157:\n        /* \"#utility.yul\":9597:9674   */\n      0x4e487b7100000000000000000000000000000000000000000000000000000000\n        /* \"#utility.yul\":9594:9595   */\n      0x00\n        /* \"#utility.yul\":9587:9675   */\n      mstore\n        /* \"#utility.yul\":9694:9698   */\n      0x32\n        /* \"#utility.yul\":9691:9692   */\n      0x04\n        /* \"#utility.yul\":9684:9699   */\n      mstore\n        /* \"#utility.yul\":9718:9722   */\n      0x24\n        /* \"#utility.yul\":9715:9716   */\n      0x00\n        /* \"#utility.yul\":9708:9723   */\n      revert\n        /* \"#utility.yul\":9735:10145   */\n    tag_161:\n        /* \"#utility.yul\":9775:9782   */\n      0x00\n        /* \"#utility.yul\":9798:9818   */\n      tag_453\n        /* \"#utility.yul\":9816:9817   */\n      dup3\n        /* \"#utility.yul\":9798:9818   */\n      tag_300\n      jump\t// in\n    tag_453:\n        /* \"#utility.yul\":9793:9818   */\n      swap2\n      pop\n        /* \"#utility.yul\":9832:9852   */\n      tag_454\n        /* \"#utility.yul\":9850:9851   */\n      dup4\n        /* \"#utility.yul\":9832:9852   */\n      tag_300\n      jump\t// in\n    tag_454:\n        /* \"#utility.yul\":9827:9852   */\n      swap3\n      pop\n        /* \"#utility.yul\":9887:9888   */\n      dup3\n        /* \"#utility.yul\":9884:9885   */\n      dup3\n        /* \"#utility.yul\":9880:9889   */\n      mul\n        /* \"#utility.yul\":9909:9939   */\n      tag_455\n        /* \"#utility.yul\":9927:9938   */\n      dup2\n        /* \"#utility.yul\":9909:9939   */\n      tag_300\n      jump\t// in\n    tag_455:\n        /* \"#utility.yul\":9898:9939   */\n      swap2\n      pop\n        /* \"#utility.yul\":10088:10089   */\n      dup3\n        /* \"#utility.yul\":10079:10086   */\n      dup3\n        /* \"#utility.yul\":10075:10090   */\n      div\n        /* \"#utility.yul\":10072:10073   */\n      dup5\n        /* \"#utility.yul\":10069:10091   */\n      eq\n        /* \"#utility.yul\":10049:10050   */\n      dup4\n        /* \"#utility.yul\":10042:10051   */\n      iszero\n        /* \"#utility.yul\":10022:10105   */\n      or\n        /* \"#utility.yul\":9999:10138   */\n      tag_456\n      jumpi\n        /* \"#utility.yul\":10118:10136   */\n      tag_457\n      tag_326\n      jump\t// in\n    tag_457:\n        /* \"#utility.yul\":9999:10138   */\n    tag_456:\n        /* \"#utility.yul\":9783:10145   */\n      pop\n        /* \"#utility.yul\":9735:10145   */\n      swap3\n      swap2\n      pop\n      pop\n      jump\t// out\n        /* \"#utility.yul\":10151:10342   */\n    tag_163:\n        /* \"#utility.yul\":10191:10194   */\n      0x00\n        /* \"#utility.yul\":10210:10230   */\n      tag_459\n        /* \"#utility.yul\":10228:10229   */\n      dup3\n        /* \"#utility.yul\":10210:10230   */\n      tag_300\n      jump\t// in\n    tag_459:\n        /* \"#utility.yul\":10205:10230   */\n      swap2\n      pop\n        /* \"#utility.yul\":10244:10264   */\n      tag_460\n        /* \"#utility.yul\":10262:10263   */\n      dup4\n        /* \"#utility.yul\":10244:10264   */\n      tag_300\n      jump\t// in\n    tag_460:\n        /* \"#utility.yul\":10239:10264   */\n      swap3\n      pop\n        /* \"#utility.yul\":10287:10288   */\n      dup3\n        /* \"#utility.yul\":10284:10285   */\n      dup3\n        /* \"#utility.yul\":10280:10289   */\n      add\n        /* \"#utility.yul\":10273:10289   */\n      swap1\n      pop\n        /* \"#utility.yul\":10308:10311   */\n      dup1\n        /* \"#utility.yul\":10305:10306   */\n      dup3\n        /* \"#utility.yul\":10302:10312   */\n      gt\n        /* \"#utility.yul\":10299:10335   */\n      iszero\n      tag_461\n      jumpi\n        /* \"#utility.yul\":10315:10333   */\n      tag_462\n      tag_326\n      jump\t// in\n    tag_462:\n        /* \"#utility.yul\":10299:10335   */\n    tag_461:\n        /* \"#utility.yul\":10151:10342   */\n      swap3\n      swap2\n      pop\n      pop\n      jump\t// out\n        /* \"#utility.yul\":10348:10520   */\n    tag_332:\n        /* \"#utility.yul\":10488:10512   */\n      0x43616c6c6572206973206e6f7420612077696e6e657200000000000000000000\n        /* \"#utility.yul\":10484:10485   */\n      0x00\n        /* \"#utility.yul\":10476:10482   */\n      dup3\n        /* \"#utility.yul\":10472:10486   */\n      add\n        /* \"#utility.yul\":10465:10513   */\n      mstore\n        /* \"#utility.yul\":10348:10520   */\n      pop\n      jump\t// out\n        /* \"#utility.yul\":10526:10892   */\n    tag_333:\n        /* \"#utility.yul\":10668:10671   */\n      0x00\n        /* \"#utility.yul\":10689:10756   */\n      tag_465\n        /* \"#utility.yul\":10753:10755   */\n      0x16\n        /* \"#utility.yul\":10748:10751   */\n      dup4\n        /* \"#utility.yul\":10689:10756   */\n      tag_321\n      jump\t// in\n    tag_465:\n        /* \"#utility.yul\":10682:10756   */\n      swap2\n      pop\n        /* \"#utility.yul\":10765:10858   */\n      tag_466\n        /* \"#utility.yul\":10854:10857   */\n      dup3\n        /* \"#utility.yul\":10765:10858   */\n      tag_332\n      jump\t// in\n    tag_466:\n        /* \"#utility.yul\":10883:10885   */\n      0x20\n        /* \"#utility.yul\":10878:10881   */\n      dup3\n        /* \"#utility.yul\":10874:10886   */\n      add\n        /* \"#utility.yul\":10867:10886   */\n      swap1\n      pop\n        /* \"#utility.yul\":10526:10892   */\n      swap2\n      swap1\n      pop\n      jump\t// out\n        /* \"#utility.yul\":10898:11317   */\n    tag_178:\n        /* \"#utility.yul\":11064:11068   */\n      0x00\n        /* \"#utility.yul\":11102:11104   */\n      0x20\n        /* \"#utility.yul\":11091:11100   */\n      dup3\n        /* \"#utility.yul\":11087:11105   */\n      add\n        /* \"#utility.yul\":11079:11105   */\n      swap1\n      pop\n        /* \"#utility.yul\":11151:11160   */\n      dup2\n        /* \"#utility.yul\":11145:11149   */\n      dup2\n        /* \"#utility.yul\":11141:11161   */\n      sub\n        /* \"#utility.yul\":11137:11138   */\n      0x00\n        /* \"#utility.yul\":11126:11135   */\n      dup4\n        /* \"#utility.yul\":11122:11139   */\n      add\n        /* \"#utility.yul\":11115:11162   */\n      mstore\n        /* \"#utility.yul\":11179:11310   */\n      tag_468\n        /* \"#utility.yul\":11305:11309   */\n      dup2\n        /* \"#utility.yul\":11179:11310   */\n      tag_333\n      jump\t// in\n    tag_468:\n        /* \"#utility.yul\":11171:11310   */\n      swap1\n      pop\n        /* \"#utility.yul\":10898:11317   */\n      swap2\n      swap1\n      pop\n      jump\t// out\n        /* \"#utility.yul\":11323:11531   */\n    tag_334:\n        /* \"#utility.yul\":11492:11524   */\n      0x7468652076616c7565206d757374206265206d756c7469706c65206f66200000\n        /* \"#utility.yul\":11487:11490   */\n      dup2\n        /* \"#utility.yul\":11480:11525   */\n      mstore\n        /* \"#utility.yul\":11323:11531   */\n      pop\n      jump\t// out\n        /* \"#utility.yul\":11537:11636   */\n    tag_335:\n        /* \"#utility.yul\":11589:11595   */\n      0x00\n        /* \"#utility.yul\":11623:11628   */\n      dup2\n        /* \"#utility.yul\":11617:11629   */\n      mload\n        /* \"#utility.yul\":11607:11629   */\n      swap1\n      pop\n        /* \"#utility.yul\":11537:11636   */\n      swap2\n      swap1\n      pop\n      jump\t// out\n        /* \"#utility.yul\":11642:11790   */\n    tag_336:\n        /* \"#utility.yul\":11744:11755   */\n      0x00\n        /* \"#utility.yul\":11781:11784   */\n      dup2\n        /* \"#utility.yul\":11766:11784   */\n      swap1\n      pop\n        /* \"#utility.yul\":11642:11790   */\n      swap3\n      swap2\n      pop\n      pop\n      jump\t// out\n        /* \"#utility.yul\":11796:12042   */\n    tag_337:\n        /* \"#utility.yul\":11877:11878   */\n      0x00\n        /* \"#utility.yul\":11887:12000   */\n    tag_473:\n        /* \"#utility.yul\":11901:11907   */\n      dup4\n        /* \"#utility.yul\":11898:11899   */\n      dup2\n        /* \"#utility.yul\":11895:11908   */\n      lt\n        /* \"#utility.yul\":11887:12000   */\n      iszero\n      tag_475\n      jumpi\n        /* \"#utility.yul\":11986:11987   */\n      dup1\n        /* \"#utility.yul\":11981:11984   */\n      dup3\n        /* \"#utility.yul\":11977:11988   */\n      add\n        /* \"#utility.yul\":11971:11989   */\n      mload\n        /* \"#utility.yul\":11967:11968   */\n      dup2\n        /* \"#utility.yul\":11962:11965   */\n      dup5\n        /* \"#utility.yul\":11958:11969   */\n      add\n        /* \"#utility.yul\":11951:11990   */\n      mstore\n        /* \"#utility.yul\":11923:11925   */\n      0x20\n        /* \"#utility.yul\":11920:11921   */\n      dup2\n        /* \"#utility.yul\":11916:11926   */\n      add\n        /* \"#utility.yul\":11911:11926   */\n      swap1\n      pop\n        /* \"#utility.yul\":11887:12000   */\n      jump(tag_473)\n    tag_475:\n        /* \"#utility.yul\":12034:12035   */\n      0x00\n        /* \"#utility.yul\":12025:12031   */\n      dup5\n        /* \"#utility.yul\":12020:12023   */\n      dup5\n        /* \"#utility.yul\":12016:12032   */\n      add\n        /* \"#utility.yul\":12009:12036   */\n      mstore\n        /* \"#utility.yul\":11858:12042   */\n      pop\n        /* \"#utility.yul\":11796:12042   */\n      pop\n      pop\n      pop\n      jump\t// out\n        /* \"#utility.yul\":12048:12438   */\n    tag_338:\n        /* \"#utility.yul\":12154:12157   */\n      0x00\n        /* \"#utility.yul\":12182:12221   */\n      tag_477\n        /* \"#utility.yul\":12215:12220   */\n      dup3\n        /* \"#utility.yul\":12182:12221   */\n      tag_335\n      jump\t// in\n    tag_477:\n        /* \"#utility.yul\":12237:12326   */\n      tag_478\n        /* \"#utility.yul\":12319:12325   */\n      dup2\n        /* \"#utility.yul\":12314:12317   */\n      dup6\n        /* \"#utility.yul\":12237:12326   */\n      tag_336\n      jump\t// in\n    tag_478:\n        /* \"#utility.yul\":12230:12326   */\n      swap4\n      pop\n        /* \"#utility.yul\":12335:12400   */\n      tag_479\n        /* \"#utility.yul\":12393:12399   */\n      dup2\n        /* \"#utility.yul\":12388:12391   */\n      dup6\n        /* \"#utility.yul\":12381:12385   */\n      0x20\n        /* \"#utility.yul\":12374:12379   */\n      dup7\n        /* \"#utility.yul\":12370:12386   */\n      add\n        /* \"#utility.yul\":12335:12400   */\n      tag_337\n      jump\t// in\n    tag_479:\n        /* \"#utility.yul\":12425:12431   */\n      dup1\n        /* \"#utility.yul\":12420:12423   */\n      dup5\n        /* \"#utility.yul\":12416:12432   */\n      add\n        /* \"#utility.yul\":12409:12432   */\n      swap2\n      pop\n        /* \"#utility.yul\":12158:12438   */\n      pop\n        /* \"#utility.yul\":12048:12438   */\n      swap3\n      swap2\n      pop\n      pop\n      jump\t// out\n        /* \"#utility.yul\":12444:12627   */\n    tag_339:\n        /* \"#utility.yul\":12612:12620   */\n      0x2045746865720000000000000000000000000000000000000000000000000000\n        /* \"#utility.yul\":12607:12610   */\n      dup2\n        /* \"#utility.yul\":12600:12621   */\n      mstore\n        /* \"#utility.yul\":12444:12627   */\n      pop\n      jump\t// out\n        /* \"#utility.yul\":12633:13439   */\n    tag_190:\n        /* \"#utility.yul\":12946:12949   */\n      0x00\n        /* \"#utility.yul\":12961:13099   */\n      tag_482\n        /* \"#utility.yul\":13095:13098   */\n      dup3\n        /* \"#utility.yul\":12961:13099   */\n      tag_334\n      jump\t// in\n    tag_482:\n        /* \"#utility.yul\":13124:13126   */\n      0x1e\n        /* \"#utility.yul\":13119:13122   */\n      dup3\n        /* \"#utility.yul\":13115:13127   */\n      add\n        /* \"#utility.yul\":13108:13127   */\n      swap2\n      pop\n        /* \"#utility.yul\":13144:13239   */\n      tag_483\n        /* \"#utility.yul\":13235:13238   */\n      dup3\n        /* \"#utility.yul\":13226:13232   */\n      dup5\n        /* \"#utility.yul\":13144:13239   */\n      tag_338\n      jump\t// in\n    tag_483:\n        /* \"#utility.yul\":13137:13239   */\n      swap2\n      pop\n        /* \"#utility.yul\":13249:13386   */\n      tag_484\n        /* \"#utility.yul\":13382:13385   */\n      dup3\n        /* \"#utility.yul\":13249:13386   */\n      tag_339\n      jump\t// in\n    tag_484:\n        /* \"#utility.yul\":13411:13412   */\n      0x06\n        /* \"#utility.yul\":13406:13409   */\n      dup3\n        /* \"#utility.yul\":13402:13413   */\n      add\n        /* \"#utility.yul\":13395:13413   */\n      swap2\n      pop\n        /* \"#utility.yul\":13430:13433   */\n      dup2\n        /* \"#utility.yul\":13423:13433   */\n      swap1\n      pop\n        /* \"#utility.yul\":12633:13439   */\n      swap3\n      swap2\n      pop\n      pop\n      jump\t// out\n        /* \"#utility.yul\":13445:13547   */\n    tag_340:\n        /* \"#utility.yul\":13486:13492   */\n      0x00\n        /* \"#utility.yul\":13537:13539   */\n      0x1f\n        /* \"#utility.yul\":13533:13540   */\n      not\n        /* \"#utility.yul\":13528:13530   */\n      0x1f\n        /* \"#utility.yul\":13521:13526   */\n      dup4\n        /* \"#utility.yul\":13517:13531   */\n      add\n        /* \"#utility.yul\":13513:13541   */\n      and\n        /* \"#utility.yul\":13503:13541   */\n      swap1\n      pop\n        /* \"#utility.yul\":13445:13547   */\n      swap2\n      swap1\n      pop\n      jump\t// out\n        /* \"#utility.yul\":13553:13930   */\n    tag_341:\n        /* \"#utility.yul\":13641:13644   */\n      0x00\n        /* \"#utility.yul\":13669:13708   */\n      tag_487\n        /* \"#utility.yul\":13702:13707   */\n      dup3\n        /* \"#utility.yul\":13669:13708   */\n      tag_335\n      jump\t// in\n    tag_487:\n        /* \"#utility.yul\":13724:13795   */\n      tag_488\n        /* \"#utility.yul\":13788:13794   */\n      dup2\n        /* \"#utility.yul\":13783:13786   */\n      dup6\n        /* \"#utility.yul\":13724:13795   */\n      tag_321\n      jump\t// in\n    tag_488:\n        /* \"#utility.yul\":13717:13795   */\n      swap4\n      pop\n        /* \"#utility.yul\":13804:13869   */\n      tag_489\n        /* \"#utility.yul\":13862:13868   */\n      dup2\n        /* \"#utility.yul\":13857:13860   */\n      dup6\n        /* \"#utility.yul\":13850:13854   */\n      0x20\n        /* \"#utility.yul\":13843:13848   */\n      dup7\n        /* \"#utility.yul\":13839:13855   */\n      add\n        /* \"#utility.yul\":13804:13869   */\n      tag_337\n      jump\t// in\n    tag_489:\n        /* \"#utility.yul\":13894:13923   */\n      tag_490\n        /* \"#utility.yul\":13916:13922   */\n      dup2\n        /* \"#utility.yul\":13894:13923   */\n      tag_340\n      jump\t// in\n    tag_490:\n        /* \"#utility.yul\":13889:13892   */\n      dup5\n        /* \"#utility.yul\":13885:13924   */\n      add\n        /* \"#utility.yul\":13878:13924   */\n      swap2\n      pop\n        /* \"#utility.yul\":13645:13930   */\n      pop\n        /* \"#utility.yul\":13553:13930   */\n      swap3\n      swap2\n      pop\n      pop\n      jump\t// out\n        /* \"#utility.yul\":13936:14249   */\n    tag_193:\n        /* \"#utility.yul\":14049:14053   */\n      0x00\n        /* \"#utility.yul\":14087:14089   */\n      0x20\n        /* \"#utility.yul\":14076:14085   */\n      dup3\n        /* \"#utility.yul\":14072:14090   */\n      add\n        /* \"#utility.yul\":14064:14090   */\n      swap1\n      pop\n        /* \"#utility.yul\":14136:14145   */\n      dup2\n        /* \"#utility.yul\":14130:14134   */\n      dup2\n        /* \"#utility.yul\":14126:14146   */\n      sub\n        /* \"#utility.yul\":14122:14123   */\n      0x00\n        /* \"#utility.yul\":14111:14120   */\n      dup4\n        /* \"#utility.yul\":14107:14124   */\n      add\n        /* \"#utility.yul\":14100:14147   */\n      mstore\n        /* \"#utility.yul\":14164:14242   */\n      tag_492\n        /* \"#utility.yul\":14237:14241   */\n      dup2\n        /* \"#utility.yul\":14228:14234   */\n      dup5\n        /* \"#utility.yul\":14164:14242   */\n      tag_341\n      jump\t// in\n    tag_492:\n        /* \"#utility.yul\":14156:14242   */\n      swap1\n      pop\n        /* \"#utility.yul\":13936:14249   */\n      swap3\n      swap2\n      pop\n      pop\n      jump\t// out\n        /* \"#utility.yul\":14255:14440   */\n    tag_195:\n        /* \"#utility.yul\":14295:14296   */\n      0x00\n        /* \"#utility.yul\":14312:14332   */\n      tag_494\n        /* \"#utility.yul\":14330:14331   */\n      dup3\n        /* \"#utility.yul\":14312:14332   */\n      tag_300\n      jump\t// in\n    tag_494:\n        /* \"#utility.yul\":14307:14332   */\n      swap2\n      pop\n        /* \"#utility.yul\":14346:14366   */\n      tag_495\n        /* \"#utility.yul\":14364:14365   */\n      dup4\n        /* \"#utility.yul\":14346:14366   */\n      tag_300\n      jump\t// in\n    tag_495:\n        /* \"#utility.yul\":14341:14366   */\n      swap3\n      pop\n        /* \"#utility.yul\":14385:14386   */\n      dup3\n        /* \"#utility.yul\":14375:14410   */\n      tag_496\n      jumpi\n        /* \"#utility.yul\":14390:14408   */\n      tag_497\n      tag_263\n      jump\t// in\n    tag_497:\n        /* \"#utility.yul\":14375:14410   */\n    tag_496:\n        /* \"#utility.yul\":14432:14433   */\n      dup3\n        /* \"#utility.yul\":14429:14430   */\n      dup3\n        /* \"#utility.yul\":14425:14434   */\n      div\n        /* \"#utility.yul\":14420:14434   */\n      swap1\n      pop\n        /* \"#utility.yul\":14255:14440   */\n      swap3\n      swap2\n      pop\n      pop\n      jump\t// out\n        /* \"#utility.yul\":14446:14625   */\n    tag_342:\n        /* \"#utility.yul\":14586:14617   */\n      0x4e6f7420656e6f756768207469636b65747320617661696c61626c652e000000\n        /* \"#utility.yul\":14582:14583   */\n      0x00\n        /* \"#utility.yul\":14574:14580   */\n      dup3\n        /* \"#utility.yul\":14570:14584   */\n      add\n        /* \"#utility.yul\":14563:14618   */\n      mstore\n        /* \"#utility.yul\":14446:14625   */\n      pop\n      jump\t// out\n        /* \"#utility.yul\":14631:14997   */\n    tag_343:\n        /* \"#utility.yul\":14773:14776   */\n      0x00\n        /* \"#utility.yul\":14794:14861   */\n      tag_500\n        /* \"#utility.yul\":14858:14860   */\n      0x1d\n        /* \"#utility.yul\":14853:14856   */\n      dup4\n        /* \"#utility.yul\":14794:14861   */\n      tag_321\n      jump\t// in\n    tag_500:\n        /* \"#utility.yul\":14787:14861   */\n      swap2\n      pop\n        /* \"#utility.yul\":14870:14963   */\n      tag_501\n        /* \"#utility.yul\":14959:14962   */\n      dup3\n        /* \"#utility.yul\":14870:14963   */\n      tag_342\n      jump\t// in\n    tag_501:\n        /* \"#utility.yul\":14988:14990   */\n      0x20\n        /* \"#utility.yul\":14983:14986   */\n      dup3\n        /* \"#utility.yul\":14979:14991   */\n      add\n        /* \"#utility.yul\":14972:14991   */\n      swap1\n      pop\n        /* \"#utility.yul\":14631:14997   */\n      swap2\n      swap1\n      pop\n      jump\t// out\n        /* \"#utility.yul\":15003:15422   */\n    tag_199:\n        /* \"#utility.yul\":15169:15173   */\n      0x00\n        /* \"#utility.yul\":15207:15209   */\n      0x20\n        /* \"#utility.yul\":15196:15205   */\n      dup3\n        /* \"#utility.yul\":15192:15210   */\n      add\n        /* \"#utility.yul\":15184:15210   */\n      swap1\n      pop\n        /* \"#utility.yul\":15256:15265   */\n      dup2\n        /* \"#utility.yul\":15250:15254   */\n      dup2\n        /* \"#utility.yul\":15246:15266   */\n      sub\n        /* \"#utility.yul\":15242:15243   */\n      0x00\n        /* \"#utility.yul\":15231:15240   */\n      dup4\n        /* \"#utility.yul\":15227:15244   */\n      add\n        /* \"#utility.yul\":15220:15267   */\n      mstore\n        /* \"#utility.yul\":15284:15415   */\n      tag_503\n        /* \"#utility.yul\":15410:15414   */\n      dup2\n        /* \"#utility.yul\":15284:15415   */\n      tag_343\n      jump\t// in\n    tag_503:\n        /* \"#utility.yul\":15276:15415   */\n      swap1\n      pop\n        /* \"#utility.yul\":15003:15422   */\n      swap2\n      swap1\n      pop\n      jump\t// out\n        /* \"#utility.yul\":15428:15648   */\n    tag_344:\n        /* \"#utility.yul\":15568:15602   */\n      0x4d6178207469636b657473207065722061646472657373206578636565646564\n        /* \"#utility.yul\":15564:15565   */\n      0x00\n        /* \"#utility.yul\":15556:15562   */\n      dup3\n        /* \"#utility.yul\":15552:15566   */\n      add\n        /* \"#utility.yul\":15545:15603   */\n      mstore\n        /* \"#utility.yul\":15637:15640   */\n      0x2e00000000000000000000000000000000000000000000000000000000000000\n        /* \"#utility.yul\":15632:15634   */\n      0x20\n        /* \"#utility.yul\":15624:15630   */\n      dup3\n        /* \"#utility.yul\":15620:15635   */\n      add\n        /* \"#utility.yul\":15613:15641   */\n      mstore\n        /* \"#utility.yul\":15428:15648   */\n      pop\n      jump\t// out\n        /* \"#utility.yul\":15654:16020   */\n    tag_345:\n        /* \"#utility.yul\":15796:15799   */\n      0x00\n        /* \"#utility.yul\":15817:15884   */\n      tag_506\n        /* \"#utility.yul\":15881:15883   */\n      0x21\n        /* \"#utility.yul\":15876:15879   */\n      dup4\n        /* \"#utility.yul\":15817:15884   */\n      tag_321\n      jump\t// in\n    tag_506:\n        /* \"#utility.yul\":15810:15884   */\n      swap2\n      pop\n        /* \"#utility.yul\":15893:15986   */\n      tag_507\n        /* \"#utility.yul\":15982:15985   */\n      dup3\n        /* \"#utility.yul\":15893:15986   */\n      tag_344\n      jump\t// in\n    tag_507:\n        /* \"#utility.yul\":16011:16013   */\n      0x40\n        /* \"#utility.yul\":16006:16009   */\n      dup3\n        /* \"#utility.yul\":16002:16014   */\n      add\n        /* \"#utility.yul\":15995:16014   */\n      swap1\n      pop\n        /* \"#utility.yul\":15654:16020   */\n      swap2\n      swap1\n      pop\n      jump\t// out\n        /* \"#utility.yul\":16026:16445   */\n    tag_205:\n        /* \"#utility.yul\":16192:16196   */\n      0x00\n        /* \"#utility.yul\":16230:16232   */\n      0x20\n        /* \"#utility.yul\":16219:16228   */\n      dup3\n        /* \"#utility.yul\":16215:16233   */\n      add\n        /* \"#utility.yul\":16207:16233   */\n      swap1\n      pop\n        /* \"#utility.yul\":16279:16288   */\n      dup2\n        /* \"#utility.yul\":16273:16277   */\n      dup2\n        /* \"#utility.yul\":16269:16289   */\n      sub\n        /* \"#utility.yul\":16265:16266   */\n      0x00\n        /* \"#utility.yul\":16254:16263   */\n      dup4\n        /* \"#utility.yul\":16250:16267   */\n      add\n        /* \"#utility.yul\":16243:16290   */\n      mstore\n        /* \"#utility.yul\":16307:16438   */\n      tag_509\n        /* \"#utility.yul\":16433:16437   */\n      dup2\n        /* \"#utility.yul\":16307:16438   */\n      tag_345\n      jump\t// in\n    tag_509:\n        /* \"#utility.yul\":16299:16438   */\n      swap1\n      pop\n        /* \"#utility.yul\":16026:16445   */\n      swap2\n      swap1\n      pop\n      jump\t// out\n        /* \"#utility.yul\":16451:16684   */\n    tag_211:\n        /* \"#utility.yul\":16490:16493   */\n      0x00\n        /* \"#utility.yul\":16513:16537   */\n      tag_511\n        /* \"#utility.yul\":16531:16536   */\n      dup3\n        /* \"#utility.yul\":16513:16537   */\n      tag_300\n      jump\t// in\n    tag_511:\n        /* \"#utility.yul\":16504:16537   */\n      swap2\n      pop\n        /* \"#utility.yul\":16559:16625   */\n      0xffffffffffffffffffffffffffffffffffffffffffffffffffffffffffffffff\n        /* \"#utility.yul\":16552:16557   */\n      dup3\n        /* \"#utility.yul\":16549:16626   */\n      sub\n        /* \"#utility.yul\":16546:16649   */\n      tag_512\n      jumpi\n        /* \"#utility.yul\":16629:16647   */\n      tag_513\n      tag_326\n      jump\t// in\n    tag_513:\n        /* \"#utility.yul\":16546:16649   */\n    tag_512:\n        /* \"#utility.yul\":16676:16677   */\n      0x01\n        /* \"#utility.yul\":16669:16674   */\n      dup3\n        /* \"#utility.yul\":16665:16678   */\n      add\n        /* \"#utility.yul\":16658:16678   */\n      swap1\n      pop\n        /* \"#utility.yul\":16451:16684   */\n      swap2\n      swap1\n      pop\n      jump\t// out\n        /* \"#utility.yul\":16690:16867   */\n    tag_346:\n        /* \"#utility.yul\":16830:16859   */\n      0x746865206c6f7474657279206e6f742065787069726564207965740000000000\n        /* \"#utility.yul\":16826:16827   */\n      0x00\n        /* \"#utility.yul\":16818:16824   */\n      dup3\n        /* \"#utility.yul\":16814:16828   */\n      add\n        /* \"#utility.yul\":16807:16860   */\n      mstore\n        /* \"#utility.yul\":16690:16867   */\n      pop\n      jump\t// out\n        /* \"#utility.yul\":16873:17239   */\n    tag_347:\n        /* \"#utility.yul\":17015:17018   */\n      0x00\n        /* \"#utility.yul\":17036:17103   */\n      tag_516\n        /* \"#utility.yul\":17100:17102   */\n      0x1b\n        /* \"#utility.yul\":17095:17098   */\n      dup4\n        /* \"#utility.yul\":17036:17103   */\n      tag_321\n      jump\t// in\n    tag_516:\n        /* \"#utility.yul\":17029:17103   */\n      swap2\n      pop\n        /* \"#utility.yul\":17112:17205   */\n      tag_517\n        /* \"#utility.yul\":17201:17204   */\n      dup3\n        /* \"#utility.yul\":17112:17205   */\n      tag_346\n      jump\t// in\n    tag_517:\n        /* \"#utility.yul\":17230:17232   */\n      0x20\n        /* \"#utility.yul\":17225:17228   */\n      dup3\n        /* \"#utility.yul\":17221:17233   */\n      add\n        /* \"#utility.yul\":17214:17233   */\n      swap1\n      pop\n        /* \"#utility.yul\":16873:17239   */\n      swap2\n      swap1\n      pop\n      jump\t// out\n        /* \"#utility.yul\":17245:17664   */\n    tag_226:\n        /* \"#utility.yul\":17411:17415   */\n      0x00\n        /* \"#utility.yul\":17449:17451   */\n      0x20\n        /* \"#utility.yul\":17438:17447   */\n      dup3\n        /* \"#utility.yul\":17434:17452   */\n      add\n        /* \"#utility.yul\":17426:17452   */\n      swap1\n      pop\n        /* \"#utility.yul\":17498:17507   */\n      dup2\n        /* \"#utility.yul\":17492:17496   */\n      dup2\n        /* \"#utility.yul\":17488:17508   */\n      sub\n        /* \"#utility.yul\":17484:17485   */\n      0x00\n        /* \"#utility.yul\":17473:17482   */\n      dup4\n        /* \"#utility.yul\":17469:17486   */\n      add\n        /* \"#utility.yul\":17462:17509   */\n      mstore\n        /* \"#utility.yul\":17526:17657   */\n      tag_519\n        /* \"#utility.yul\":17652:17656   */\n      dup2\n        /* \"#utility.yul\":17526:17657   */\n      tag_347\n      jump\t// in\n    tag_519:\n        /* \"#utility.yul\":17518:17657   */\n      swap1\n      pop\n        /* \"#utility.yul\":17245:17664   */\n      swap2\n      swap1\n      pop\n      jump\t// out\n        /* \"#utility.yul\":17670:17895   */\n    tag_348:\n        /* \"#utility.yul\":17810:17844   */\n      0x43616e6e6f742052657374617274204472617720617320447261772069732069\n        /* \"#utility.yul\":17806:17807   */\n      0x00\n        /* \"#utility.yul\":17798:17804   */\n      dup3\n        /* \"#utility.yul\":17794:17808   */\n      add\n        /* \"#utility.yul\":17787:17845   */\n      mstore\n        /* \"#utility.yul\":17879:17887   */\n      0x6e20706c61790000000000000000000000000000000000000000000000000000\n        /* \"#utility.yul\":17874:17876   */\n      0x20\n        /* \"#utility.yul\":17866:17872   */\n      dup3\n        /* \"#utility.yul\":17862:17877   */\n      add\n        /* \"#utility.yul\":17855:17888   */\n      mstore\n        /* \"#utility.yul\":17670:17895   */\n      pop\n      jump\t// out\n        /* \"#utility.yul\":17901:18267   */\n    tag_349:\n        /* \"#utility.yul\":18043:18046   */\n      0x00\n        /* \"#utility.yul\":18064:18131   */\n      tag_522\n        /* \"#utility.yul\":18128:18130   */\n      0x26\n        /* \"#utility.yul\":18123:18126   */\n      dup4\n        /* \"#utility.yul\":18064:18131   */\n      tag_321\n      jump\t// in\n    tag_522:\n        /* \"#utility.yul\":18057:18131   */\n      swap2\n      pop\n        /* \"#utility.yul\":18140:18233   */\n      tag_523\n        /* \"#utility.yul\":18229:18232   */\n      dup3\n        /* \"#utility.yul\":18140:18233   */\n      tag_348\n      jump\t// in\n    tag_523:\n        /* \"#utility.yul\":18258:18260   */\n      0x40\n        /* \"#utility.yul\":18253:18256   */\n      dup3\n        /* \"#utility.yul\":18249:18261   */\n      add\n        /* \"#utility.yul\":18242:18261   */\n      swap1\n      pop\n        /* \"#utility.yul\":17901:18267   */\n      swap2\n      swap1\n      pop\n      jump\t// out\n        /* \"#utility.yul\":18273:18692   */\n    tag_249:\n        /* \"#utility.yul\":18439:18443   */\n      0x00\n        /* \"#utility.yul\":18477:18479   */\n      0x20\n        /* \"#utility.yul\":18466:18475   */\n      dup3\n        /* \"#utility.yul\":18462:18480   */\n      add\n        /* \"#utility.yul\":18454:18480   */\n      swap1\n      pop\n        /* \"#utility.yul\":18526:18535   */\n      dup2\n        /* \"#utility.yul\":18520:18524   */\n      dup2\n        /* \"#utility.yul\":18516:18536   */\n      sub\n        /* \"#utility.yul\":18512:18513   */\n      0x00\n        /* \"#utility.yul\":18501:18510   */\n      dup4\n        /* \"#utility.yul\":18497:18514   */\n      add\n        /* \"#utility.yul\":18490:18537   */\n      mstore\n        /* \"#utility.yul\":18554:18685   */\n      tag_525\n        /* \"#utility.yul\":18680:18684   */\n      dup2\n        /* \"#utility.yul\":18554:18685   */\n      tag_349\n      jump\t// in\n    tag_525:\n        /* \"#utility.yul\":18546:18685   */\n      swap1\n      pop\n        /* \"#utility.yul\":18273:18692   */\n      swap2\n      swap1\n      pop\n      jump\t// out\n        /* \"#utility.yul\":18698:18878   */\n    tag_257:\n        /* \"#utility.yul\":18746:18823   */\n      0x4e487b7100000000000000000000000000000000000000000000000000000000\n        /* \"#utility.yul\":18743:18744   */\n      0x00\n        /* \"#utility.yul\":18736:18824   */\n      mstore\n        /* \"#utility.yul\":18843:18847   */\n      0x41\n        /* \"#utility.yul\":18840:18841   */\n      0x04\n        /* \"#utility.yul\":18833:18848   */\n      mstore\n        /* \"#utility.yul\":18867:18871   */\n      0x24\n        /* \"#utility.yul\":18864:18865   */\n      0x00\n        /* \"#utility.yul\":18857:18872   */\n      revert\n\n    auxdata: 0xa2646970667358221220c5d3f417c04397ca0fd46c449f3a733064a16019db06f4ba49d2959c5d01903f64736f6c63430008120033\n}\n",
				"bytecode": {
					"linkReferences": {},
					"object": "6080604052662386f26fc10000600055609660015566038d7ea4c6800060025562049d40600355600560045560006007553480156200003d57600080fd5b5033600660006101000a81548173ffffffffffffffffffffffffffffffffffffffff021916908373ffffffffffffffffffffffffffffffffffffffff160217905550600354426200008f9190620000d4565b6005819055506200010f565b6000819050919050565b7f4e487b7100000000000000000000000000000000000000000000000000000000600052601160045260246000fd5b6000620000e1826200009b565b9150620000ee836200009b565b9250828201905080821115620001095762000108620000a5565b5b92915050565b611f70806200011f6000396000f3fe6080604052600436106101665760003560e01c806391d8b14e116100d1578063a88f46721161008a578063dd64e53411610064578063dd64e5341461048f578063ea3a1499146104cc578063f261326914610509578063fe1881841461052057610166565b8063a88f467214610422578063ba946d7914610439578063c6944fa01461046457610166565b806391d8b14e1461034557806393a563b51461034f57806396c85ef31461037a5780639802cf2f146103a55780639b478ab0146103ce5780639b894703146103f757610166565b80634788af7c116101235780634788af7c146102595780634ed026221461027057806350b447121461029b5780635a58acdd146102d85780636032a4f91461030357806371827b7b1461032e57610166565b806306f7f3bf1461016b5780630789c607146101965780631209b1f6146101c157806335580df2146101ec578063463a94a5146102035780634665096d1461022e575b600080fd5b34801561017757600080fd5b5061018061054b565b60405161018d9190611546565b60405180910390f35b3480156101a257600080fd5b506101ab610551565b6040516101b89190611546565b60405180910390f35b3480156101cd57600080fd5b506101d66105a3565b6040516101e39190611546565b60405180910390f35b3480156101f857600080fd5b506102016105a9565b005b34801561020f57600080fd5b50610218610698565b6040516102259190611546565b60405180910390f35b34801561023a57600080fd5b5061024361069e565b6040516102509190611546565b60405180910390f35b34801561026557600080fd5b5061026e6106a4565b005b34801561027c57600080fd5b50610285610969565b6040516102929190611651565b60405180910390f35b3480156102a757600080fd5b506102c260048036038101906102bd91906116a4565b6109f7565b6040516102cf91906116e0565b60405180910390f35b3480156102e457600080fd5b506102ed610a36565b6040516102fa91906116e0565b60405180910390f35b34801561030f57600080fd5b50610318610a5c565b6040516103259190611546565b60405180910390f35b34801561033a57600080fd5b50610343610a62565b005b61034d610b82565b005b34801561035b57600080fd5b50610364610d67565b6040516103719190611546565b60405180910390f35b34801561038657600080fd5b5061038f610d81565b60405161039c9190611716565b60405180910390f35b3480156103b157600080fd5b506103cc60048036038101906103c791906116a4565b610dca565b005b3480156103da57600080fd5b506103f560048036038101906103f09190611731565b610e64565b005b34801561040357600080fd5b5061040c610f0e565b6040516104199190611546565b60405180910390f35b34801561042e57600080fd5b50610437610f14565b005b34801561044557600080fd5b5061044e611078565b60405161045b9190611546565b60405180910390f35b34801561047057600080fd5b5061047961107e565b6040516104869190611546565b60405180910390f35b34801561049b57600080fd5b506104b660048036038101906104b191906117b0565b611097565b6040516104c39190611546565b60405180910390f35b3480156104d857600080fd5b506104f360048036038101906104ee91906117b0565b6110e0565b6040516105009190611546565b60405180910390f35b34801561051557600080fd5b5061051e6110f8565b005b34801561052c57600080fd5b506105356111f4565b60405161054291906116e0565b60405180910390f35b60095481565b6000803390506000600a60008373ffffffffffffffffffffffffffffffffffffffff1673ffffffffffffffffffffffffffffffffffffffff168152602001908152602001600020549050809250505090565b60005481565b600660009054906101000a900473ffffffffffffffffffffffffffffffffffffffff1673ffffffffffffffffffffffffffffffffffffffff163373ffffffffffffffffffffffffffffffffffffffff1614610639576040517f08c379a000000000000000000000000000000000000000000000000000000000815260040161063090611860565b60405180910390fd5b60003390506000600754905060006007819055508173ffffffffffffffffffffffffffffffffffffffff166108fc829081150290604051600060405180830381858888f19350505050158015610693573d6000803e3d6000fd5b505050565b60045481565b60055481565b600660009054906101000a900473ffffffffffffffffffffffffffffffffffffffff1673ffffffffffffffffffffffffffffffffffffffff163373ffffffffffffffffffffffffffffffffffffffff1614610734576040517f08c379a000000000000000000000000000000000000000000000000000000000815260040161072b90611860565b60405180910390fd5b6000600b805490501161077c576040517f08c379a0000000000000000000000000000000000000000000000000000000008152600401610773906118cc565b60405180910390fd5b6000600b805490504361078f919061191b565b409050600042826040516020016107a792919061199b565b6040516020818303038152906040528051906020012060001c90506000600b80549050826107d591906119f6565b90506000600b82815481106107ed576107ec611a27565b5b9060005260206000200160009054906101000a900473ffffffffffffffffffffffffffffffffffffffff16905080600860006101000a81548173ffffffffffffffffffffffffffffffffffffffff021916908373ffffffffffffffffffffffffffffffffffffffff16021790555060025460005461086b919061191b565b600b8054905061087b9190611a56565b600a60008373ffffffffffffffffffffffffffffffffffffffff1673ffffffffffffffffffffffffffffffffffffffff16815260200190815260200160002060008282546108c99190611a98565b92505081905550600a60008273ffffffffffffffffffffffffffffffffffffffff1673ffffffffffffffffffffffffffffffffffffffff16815260200190815260200160002054600981905550600254600b805490506109299190611a56565b6007600082825461093a9190611a98565b92505081905550600b600061094f91906114ef565b6003544261095d9190611a98565b60058190555050505050565b6060600b8054806020026020016040519081016040528092919081815260200182805480156109ed57602002820191906000526020600020905b8160009054906101000a900473ffffffffffffffffffffffffffffffffffffffff1673ffffffffffffffffffffffffffffffffffffffff16815260200190600101908083116109a3575b5050505050905090565b600b8181548110610a0757600080fd5b906000526020600020016000915054906101000a900473ffffffffffffffffffffffffffffffffffffffff1681565b600660009054906101000a900473ffffffffffffffffffffffffffffffffffffffff1681565b60025481565b610a6a610d81565b610aa9576040517f08c379a0000000000000000000000000000000000000000000000000000000008152600401610aa090611b18565b60405180910390fd5b60003390506000600a60008373ffffffffffffffffffffffffffffffffffffffff1673ffffffffffffffffffffffffffffffffffffffff1681526020019081526020016000205490506000600a60008473ffffffffffffffffffffffffffffffffffffffff1673ffffffffffffffffffffffffffffffffffffffff168152602001908152602001600020819055508173ffffffffffffffffffffffffffffffffffffffff166108fc829081150290604051600060405180830381858888f19350505050158015610b7d573d6000803e3d6000fd5b505050565b6000600b80549050148015610b9957506005544210155b15610bb35760035442610bac9190611a98565b6005819055505b6000805434610bc291906119f6565b14610bce60005461121a565b604051602001610bde9190611bf5565b60405160208183030381529060405290610c2e576040517f08c379a0000000000000000000000000000000000000000000000000000000008152600401610c259190611c74565b60405180910390fd5b506000805434610c3e9190611c96565b9050610c48610d67565b811115610c8a576040517f08c379a0000000000000000000000000000000000000000000000000000000008152600401610c8190611d13565b60405180910390fd5b60045481610c97336112e8565b610ca19190611a98565b1115610ce2576040517f08c379a0000000000000000000000000000000000000000000000000000000008152600401610cd990611da5565b60405180910390fd5b60005b81811015610d6357600b339080600181540180825580915050600190039060005260206000200160009091909190916101000a81548173ffffffffffffffffffffffffffffffffffffffff021916908373ffffffffffffffffffffffffffffffffffffffff1602179055508080610d5b90611dc5565b915050610ce5565b5050565b6000600b80549050600154610d7c919061191b565b905090565b600080600a60003373ffffffffffffffffffffffffffffffffffffffff1673ffffffffffffffffffffffffffffffffffffffff1681526020019081526020016000205411905090565b600660009054906101000a900473ffffffffffffffffffffffffffffffffffffffff1673ffffffffffffffffffffffffffffffffffffffff163373ffffffffffffffffffffffffffffffffffffffff1614610e5a576040517f08c379a0000000000000000000000000000000000000000000000000000000008152600401610e5190611860565b60405180910390fd5b8060048190555050565b600660009054906101000a900473ffffffffffffffffffffffffffffffffffffffff1673ffffffffffffffffffffffffffffffffffffffff163373ffffffffffffffffffffffffffffffffffffffff1614610ef4576040517f08c379a0000000000000000000000000000000000000000000000000000000008152600401610eeb90611860565b60405180910390fd5b826000819055508160018190555080600281905550505050565b60015481565b600554421015610f59576040517f08c379a0000000000000000000000000000000000000000000000000000000008152600401610f5090611e59565b60405180910390fd5b60005b600b80549050811015611067576000600b8281548110610f7f57610f7e611a27565b5b9060005260206000200160009054906101000a900473ffffffffffffffffffffffffffffffffffffffff1690506000600b8381548110610fc257610fc1611a27565b5b9060005260206000200160006101000a81548173ffffffffffffffffffffffffffffffffffffffff021916908373ffffffffffffffffffffffffffffffffffffffff1602179055508073ffffffffffffffffffffffffffffffffffffffff166108fc6000549081150290604051600060405180830381858888f19350505050158015611052573d6000803e3d6000fd5b5050808061105f90611dc5565b915050610f5c565b50600b600061107691906114ef565b565b60075481565b60008054600b805490506110929190611a56565b905090565b6000600a60008373ffffffffffffffffffffffffffffffffffffffff1673ffffffffffffffffffffffffffffffffffffffff168152602001908152602001600020549050919050565b600a6020528060005260406000206000915090505481565b600660009054906101000a900473ffffffffffffffffffffffffffffffffffffffff1673ffffffffffffffffffffffffffffffffffffffff163373ffffffffffffffffffffffffffffffffffffffff1614611188576040517f08c379a000000000000000000000000000000000000000000000000000000000815260040161117f90611860565b60405180910390fd5b6000600b80549050146111d0576040517f08c379a00000000000000000000000000000000000000000000000000000000081526004016111c790611eeb565b60405180910390fd5b600b60006111de91906114ef565b600354426111ec9190611a98565b600581905550565b600860009054906101000a900473ffffffffffffffffffffffffffffffffffffffff1681565b6060600060016112298461139c565b01905060008167ffffffffffffffff81111561124857611247611f0b565b5b6040519080825280601f01601f19166020018201604052801561127a5781602001600182028036833780820191505090505b509050600082602001820190505b6001156112dd578080600190039150507f3031323334353637383961626364656600000000000000000000000000000000600a86061a8153600a85816112d1576112d06119c7565b5b04945060008503611288575b819350505050919050565b6000806000905060005b600b80549050811015611392578373ffffffffffffffffffffffffffffffffffffffff16600b828154811061132a57611329611a27565b5b9060005260206000200160009054906101000a900473ffffffffffffffffffffffffffffffffffffffff1673ffffffffffffffffffffffffffffffffffffffff160361137f57818061137b90611dc5565b9250505b808061138a90611dc5565b9150506112f2565b5080915050919050565b600080600090507a184f03e93ff9f4daa797ed6e38ed64bf6a1f01000000000000000083106113fa577a184f03e93ff9f4daa797ed6e38ed64bf6a1f01000000000000000083816113f0576113ef6119c7565b5b0492506040810190505b6d04ee2d6d415b85acef81000000008310611437576d04ee2d6d415b85acef8100000000838161142d5761142c6119c7565b5b0492506020810190505b662386f26fc10000831061146657662386f26fc10000838161145c5761145b6119c7565b5b0492506010810190505b6305f5e100831061148f576305f5e1008381611485576114846119c7565b5b0492506008810190505b61271083106114b45761271083816114aa576114a96119c7565b5b0492506004810190505b606483106114d757606483816114cd576114cc6119c7565b5b0492506002810190505b600a83106114e6576001810190505b80915050919050565b508054600082559060005260206000209081019061150d9190611510565b50565b5b80821115611529576000816000905550600101611511565b5090565b6000819050919050565b6115408161152d565b82525050565b600060208201905061155b6000830184611537565b92915050565b600081519050919050565b600082825260208201905092915050565b6000819050602082019050919050565b600073ffffffffffffffffffffffffffffffffffffffff82169050919050565b60006115b88261158d565b9050919050565b6115c8816115ad565b82525050565b60006115da83836115bf565b60208301905092915050565b6000602082019050919050565b60006115fe82611561565b611608818561156c565b93506116138361157d565b8060005b8381101561164457815161162b88826115ce565b9750611636836115e6565b925050600181019050611617565b5085935050505092915050565b6000602082019050818103600083015261166b81846115f3565b905092915050565b600080fd5b6116818161152d565b811461168c57600080fd5b50565b60008135905061169e81611678565b92915050565b6000602082840312156116ba576116b9611673565b5b60006116c88482850161168f565b91505092915050565b6116da816115ad565b82525050565b60006020820190506116f560008301846116d1565b92915050565b60008115159050919050565b611710816116fb565b82525050565b600060208201905061172b6000830184611707565b92915050565b60008060006060848603121561174a57611749611673565b5b60006117588682870161168f565b93505060206117698682870161168f565b925050604061177a8682870161168f565b9150509250925092565b61178d816115ad565b811461179857600080fd5b50565b6000813590506117aa81611784565b92915050565b6000602082840312156117c6576117c5611673565b5b60006117d48482850161179b565b91505092915050565b600082825260208201905092915050565b7f43616c6c6572206973206e6f7420746865206c6f7474657279206f706572617460008201527f6f72000000000000000000000000000000000000000000000000000000000000602082015250565b600061184a6022836117dd565b9150611855826117ee565b604082019050919050565b600060208201905081810360008301526118798161183d565b9050919050565b7f4e6f207469636b65747320776572652070757263686173656400000000000000600082015250565b60006118b66019836117dd565b91506118c182611880565b602082019050919050565b600060208201905081810360008301526118e5816118a9565b9050919050565b7f4e487b7100000000000000000000000000000000000000000000000000000000600052601160045260246000fd5b60006119268261152d565b91506119318361152d565b9250828203905081811115611949576119486118ec565b5b92915050565b6000819050919050565b61196a6119658261152d565b61194f565b82525050565b6000819050919050565b6000819050919050565b61199561199082611970565b61197a565b82525050565b60006119a78285611959565b6020820191506119b78284611984565b6020820191508190509392505050565b7f4e487b7100000000000000000000000000000000000000000000000000000000600052601260045260246000fd5b6000611a018261152d565b9150611a0c8361152d565b925082611a1c57611a1b6119c7565b5b828206905092915050565b7f4e487b7100000000000000000000000000000000000000000000000000000000600052603260045260246000fd5b6000611a618261152d565b9150611a6c8361152d565b9250828202611a7a8161152d565b91508282048414831517611a9157611a906118ec565b5b5092915050565b6000611aa38261152d565b9150611aae8361152d565b9250828201905080821115611ac657611ac56118ec565b5b92915050565b7f43616c6c6572206973206e6f7420612077696e6e657200000000000000000000600082015250565b6000611b026016836117dd565b9150611b0d82611acc565b602082019050919050565b60006020820190508181036000830152611b3181611af5565b9050919050565b7f7468652076616c7565206d757374206265206d756c7469706c65206f66200000815250565b600081519050919050565b600081905092915050565b60005b83811015611b92578082015181840152602081019050611b77565b60008484015250505050565b6000611ba982611b5e565b611bb38185611b69565b9350611bc3818560208601611b74565b80840191505092915050565b7f2045746865720000000000000000000000000000000000000000000000000000815250565b6000611c0082611b38565b601e82019150611c108284611b9e565b9150611c1b82611bcf565b60068201915081905092915050565b6000601f19601f8301169050919050565b6000611c4682611b5e565b611c5081856117dd565b9350611c60818560208601611b74565b611c6981611c2a565b840191505092915050565b60006020820190508181036000830152611c8e8184611c3b565b905092915050565b6000611ca18261152d565b9150611cac8361152d565b925082611cbc57611cbb6119c7565b5b828204905092915050565b7f4e6f7420656e6f756768207469636b65747320617661696c61626c652e000000600082015250565b6000611cfd601d836117dd565b9150611d0882611cc7565b602082019050919050565b60006020820190508181036000830152611d2c81611cf0565b9050919050565b7f4d6178207469636b65747320706572206164647265737320657863656564656460008201527f2e00000000000000000000000000000000000000000000000000000000000000602082015250565b6000611d8f6021836117dd565b9150611d9a82611d33565b604082019050919050565b60006020820190508181036000830152611dbe81611d82565b9050919050565b6000611dd08261152d565b91507fffffffffffffffffffffffffffffffffffffffffffffffffffffffffffffffff8203611e0257611e016118ec565b5b600182019050919050565b7f746865206c6f7474657279206e6f742065787069726564207965740000000000600082015250565b6000611e43601b836117dd565b9150611e4e82611e0d565b602082019050919050565b60006020820190508181036000830152611e7281611e36565b9050919050565b7f43616e6e6f74205265737461727420447261772061732044726177206973206960008201527f6e20706c61790000000000000000000000000000000000000000000000000000602082015250565b6000611ed56026836117dd565b9150611ee082611e79565b604082019050919050565b60006020820190508181036000830152611f0481611ec8565b9050919050565b7f4e487b7100000000000000000000000000000000000000000000000000000000600052604160045260246000fdfea2646970667358221220c5d3f417c04397ca0fd46c449f3a733064a16019db06f4ba49d2959c5d01903f64736f6c63430008120033",
					"opcodes": "PUSH1 0x80 PUSH1 0x40 MSTORE PUSH7 0x2386F26FC10000 PUSH1 0x0 SSTORE PUSH1 0x96 PUSH1 0x1 SSTORE PUSH7 0x38D7EA4C68000 PUSH1 0x2 SSTORE PUSH3 0x49D40 PUSH1 0x3 SSTORE PUSH1 0x5 PUSH1 0x4 SSTORE PUSH1 0x0 PUSH1 0x7 SSTORE CALLVALUE DUP1 ISZERO PUSH3 0x3D JUMPI PUSH1 0x0 DUP1 REVERT JUMPDEST POP CALLER PUSH1 0x6 PUSH1 0x0 PUSH2 0x100 EXP DUP2 SLOAD DUP2 PUSH20 0xFFFFFFFFFFFFFFFFFFFFFFFFFFFFFFFFFFFFFFFF MUL NOT AND SWAP1 DUP4 PUSH20 0xFFFFFFFFFFFFFFFFFFFFFFFFFFFFFFFFFFFFFFFF AND MUL OR SWAP1 SSTORE POP PUSH1 0x3 SLOAD TIMESTAMP PUSH3 0x8F SWAP2 SWAP1 PUSH3 0xD4 JUMP JUMPDEST PUSH1 0x5 DUP2 SWAP1 SSTORE POP PUSH3 0x10F JUMP JUMPDEST PUSH1 0x0 DUP2 SWAP1 POP SWAP2 SWAP1 POP JUMP JUMPDEST PUSH32 0x4E487B7100000000000000000000000000000000000000000000000000000000 PUSH1 0x0 MSTORE PUSH1 0x11 PUSH1 0x4 MSTORE PUSH1 0x24 PUSH1 0x0 REVERT JUMPDEST PUSH1 0x0 PUSH3 0xE1 DUP3 PUSH3 0x9B JUMP JUMPDEST SWAP2 POP PUSH3 0xEE DUP4 PUSH3 0x9B JUMP JUMPDEST SWAP3 POP DUP3 DUP3 ADD SWAP1 POP DUP1 DUP3 GT ISZERO PUSH3 0x109 JUMPI PUSH3 0x108 PUSH3 0xA5 JUMP JUMPDEST JUMPDEST SWAP3 SWAP2 POP POP JUMP JUMPDEST PUSH2 0x1F70 DUP1 PUSH3 0x11F PUSH1 0x0 CODECOPY PUSH1 0x0 RETURN INVALID PUSH1 0x80 PUSH1 0x40 MSTORE PUSH1 0x4 CALLDATASIZE LT PUSH2 0x166 JUMPI PUSH1 0x0 CALLDATALOAD PUSH1 0xE0 SHR DUP1 PUSH4 0x91D8B14E GT PUSH2 0xD1 JUMPI DUP1 PUSH4 0xA88F4672 GT PUSH2 0x8A JUMPI DUP1 PUSH4 0xDD64E534 GT PUSH2 0x64 JUMPI DUP1 PUSH4 0xDD64E534 EQ PUSH2 0x48F JUMPI DUP1 PUSH4 0xEA3A1499 EQ PUSH2 0x4CC JUMPI DUP1 PUSH4 0xF2613269 EQ PUSH2 0x509 JUMPI DUP1 PUSH4 0xFE188184 EQ PUSH2 0x520 JUMPI PUSH2 0x166 JUMP JUMPDEST DUP1 PUSH4 0xA88F4672 EQ PUSH2 0x422 JUMPI DUP1 PUSH4 0xBA946D79 EQ PUSH2 0x439 JUMPI DUP1 PUSH4 0xC6944FA0 EQ PUSH2 0x464 JUMPI PUSH2 0x166 JUMP JUMPDEST DUP1 PUSH4 0x91D8B14E EQ PUSH2 0x345 JUMPI DUP1 PUSH4 0x93A563B5 EQ PUSH2 0x34F JUMPI DUP1 PUSH4 0x96C85EF3 EQ PUSH2 0x37A JUMPI DUP1 PUSH4 0x9802CF2F EQ PUSH2 0x3A5 JUMPI DUP1 PUSH4 0x9B478AB0 EQ PUSH2 0x3CE JUMPI DUP1 PUSH4 0x9B894703 EQ PUSH2 0x3F7 JUMPI PUSH2 0x166 JUMP JUMPDEST DUP1 PUSH4 0x4788AF7C GT PUSH2 0x123 JUMPI DUP1 PUSH4 0x4788AF7C EQ PUSH2 0x259 JUMPI DUP1 PUSH4 0x4ED02622 EQ PUSH2 0x270 JUMPI DUP1 PUSH4 0x50B44712 EQ PUSH2 0x29B JUMPI DUP1 PUSH4 0x5A58ACDD EQ PUSH2 0x2D8 JUMPI DUP1 PUSH4 0x6032A4F9 EQ PUSH2 0x303 JUMPI DUP1 PUSH4 0x71827B7B EQ PUSH2 0x32E JUMPI PUSH2 0x166 JUMP JUMPDEST DUP1 PUSH4 0x6F7F3BF EQ PUSH2 0x16B JUMPI DUP1 PUSH4 0x789C607 EQ PUSH2 0x196 JUMPI DUP1 PUSH4 0x1209B1F6 EQ PUSH2 0x1C1 JUMPI DUP1 PUSH4 0x35580DF2 EQ PUSH2 0x1EC JUMPI DUP1 PUSH4 0x463A94A5 EQ PUSH2 0x203 JUMPI DUP1 PUSH4 0x4665096D EQ PUSH2 0x22E JUMPI JUMPDEST PUSH1 0x0 DUP1 REVERT JUMPDEST CALLVALUE DUP1 ISZERO PUSH2 0x177 JUMPI PUSH1 0x0 DUP1 REVERT JUMPDEST POP PUSH2 0x180 PUSH2 0x54B JUMP JUMPDEST PUSH1 0x40 MLOAD PUSH2 0x18D SWAP2 SWAP1 PUSH2 0x1546 JUMP JUMPDEST PUSH1 0x40 MLOAD DUP1 SWAP2 SUB SWAP1 RETURN JUMPDEST CALLVALUE DUP1 ISZERO PUSH2 0x1A2 JUMPI PUSH1 0x0 DUP1 REVERT JUMPDEST POP PUSH2 0x1AB PUSH2 0x551 JUMP JUMPDEST PUSH1 0x40 MLOAD PUSH2 0x1B8 SWAP2 SWAP1 PUSH2 0x1546 JUMP JUMPDEST PUSH1 0x40 MLOAD DUP1 SWAP2 SUB SWAP1 RETURN JUMPDEST CALLVALUE DUP1 ISZERO PUSH2 0x1CD JUMPI PUSH1 0x0 DUP1 REVERT JUMPDEST POP PUSH2 0x1D6 PUSH2 0x5A3 JUMP JUMPDEST PUSH1 0x40 MLOAD PUSH2 0x1E3 SWAP2 SWAP1 PUSH2 0x1546 JUMP JUMPDEST PUSH1 0x40 MLOAD DUP1 SWAP2 SUB SWAP1 RETURN JUMPDEST CALLVALUE DUP1 ISZERO PUSH2 0x1F8 JUMPI PUSH1 0x0 DUP1 REVERT JUMPDEST POP PUSH2 0x201 PUSH2 0x5A9 JUMP JUMPDEST STOP JUMPDEST CALLVALUE DUP1 ISZERO PUSH2 0x20F JUMPI PUSH1 0x0 DUP1 REVERT JUMPDEST POP PUSH2 0x218 PUSH2 0x698 JUMP JUMPDEST PUSH1 0x40 MLOAD PUSH2 0x225 SWAP2 SWAP1 PUSH2 0x1546 JUMP JUMPDEST PUSH1 0x40 MLOAD DUP1 SWAP2 SUB SWAP1 RETURN JUMPDEST CALLVALUE DUP1 ISZERO PUSH2 0x23A JUMPI PUSH1 0x0 DUP1 REVERT JUMPDEST POP PUSH2 0x243 PUSH2 0x69E JUMP JUMPDEST PUSH1 0x40 MLOAD PUSH2 0x250 SWAP2 SWAP1 PUSH2 0x1546 JUMP JUMPDEST PUSH1 0x40 MLOAD DUP1 SWAP2 SUB SWAP1 RETURN JUMPDEST CALLVALUE DUP1 ISZERO PUSH2 0x265 JUMPI PUSH1 0x0 DUP1 REVERT JUMPDEST POP PUSH2 0x26E PUSH2 0x6A4 JUMP JUMPDEST STOP JUMPDEST CALLVALUE DUP1 ISZERO PUSH2 0x27C JUMPI PUSH1 0x0 DUP1 REVERT JUMPDEST POP PUSH2 0x285 PUSH2 0x969 JUMP JUMPDEST PUSH1 0x40 MLOAD PUSH2 0x292 SWAP2 SWAP1 PUSH2 0x1651 JUMP JUMPDEST PUSH1 0x40 MLOAD DUP1 SWAP2 SUB SWAP1 RETURN JUMPDEST CALLVALUE DUP1 ISZERO PUSH2 0x2A7 JUMPI PUSH1 0x0 DUP1 REVERT JUMPDEST POP PUSH2 0x2C2 PUSH1 0x4 DUP1 CALLDATASIZE SUB DUP2 ADD SWAP1 PUSH2 0x2BD SWAP2 SWAP1 PUSH2 0x16A4 JUMP JUMPDEST PUSH2 0x9F7 JUMP JUMPDEST PUSH1 0x40 MLOAD PUSH2 0x2CF SWAP2 SWAP1 PUSH2 0x16E0 JUMP JUMPDEST PUSH1 0x40 MLOAD DUP1 SWAP2 SUB SWAP1 RETURN JUMPDEST CALLVALUE DUP1 ISZERO PUSH2 0x2E4 JUMPI PUSH1 0x0 DUP1 REVERT JUMPDEST POP PUSH2 0x2ED PUSH2 0xA36 JUMP JUMPDEST PUSH1 0x40 MLOAD PUSH2 0x2FA SWAP2 SWAP1 PUSH2 0x16E0 JUMP JUMPDEST PUSH1 0x40 MLOAD DUP1 SWAP2 SUB SWAP1 RETURN JUMPDEST CALLVALUE DUP1 ISZERO PUSH2 0x30F JUMPI PUSH1 0x0 DUP1 REVERT JUMPDEST POP PUSH2 0x318 PUSH2 0xA5C JUMP JUMPDEST PUSH1 0x40 MLOAD PUSH2 0x325 SWAP2 SWAP1 PUSH2 0x1546 JUMP JUMPDEST PUSH1 0x40 MLOAD DUP1 SWAP2 SUB SWAP1 RETURN JUMPDEST CALLVALUE DUP1 ISZERO PUSH2 0x33A JUMPI PUSH1 0x0 DUP1 REVERT JUMPDEST POP PUSH2 0x343 PUSH2 0xA62 JUMP JUMPDEST STOP JUMPDEST PUSH2 0x34D PUSH2 0xB82 JUMP JUMPDEST STOP JUMPDEST CALLVALUE DUP1 ISZERO PUSH2 0x35B JUMPI PUSH1 0x0 DUP1 REVERT JUMPDEST POP PUSH2 0x364 PUSH2 0xD67 JUMP JUMPDEST PUSH1 0x40 MLOAD PUSH2 0x371 SWAP2 SWAP1 PUSH2 0x1546 JUMP JUMPDEST PUSH1 0x40 MLOAD DUP1 SWAP2 SUB SWAP1 RETURN JUMPDEST CALLVALUE DUP1 ISZERO PUSH2 0x386 JUMPI PUSH1 0x0 DUP1 REVERT JUMPDEST POP PUSH2 0x38F PUSH2 0xD81 JUMP JUMPDEST PUSH1 0x40 MLOAD PUSH2 0x39C SWAP2 SWAP1 PUSH2 0x1716 JUMP JUMPDEST PUSH1 0x40 MLOAD DUP1 SWAP2 SUB SWAP1 RETURN JUMPDEST CALLVALUE DUP1 ISZERO PUSH2 0x3B1 JUMPI PUSH1 0x0 DUP1 REVERT JUMPDEST POP PUSH2 0x3CC PUSH1 0x4 DUP1 CALLDATASIZE SUB DUP2 ADD SWAP1 PUSH2 0x3C7 SWAP2 SWAP1 PUSH2 0x16A4 JUMP JUMPDEST PUSH2 0xDCA JUMP JUMPDEST STOP JUMPDEST CALLVALUE DUP1 ISZERO PUSH2 0x3DA JUMPI PUSH1 0x0 DUP1 REVERT JUMPDEST POP PUSH2 0x3F5 PUSH1 0x4 DUP1 CALLDATASIZE SUB DUP2 ADD SWAP1 PUSH2 0x3F0 SWAP2 SWAP1 PUSH2 0x1731 JUMP JUMPDEST PUSH2 0xE64 JUMP JUMPDEST STOP JUMPDEST CALLVALUE DUP1 ISZERO PUSH2 0x403 JUMPI PUSH1 0x0 DUP1 REVERT JUMPDEST POP PUSH2 0x40C PUSH2 0xF0E JUMP JUMPDEST PUSH1 0x40 MLOAD PUSH2 0x419 SWAP2 SWAP1 PUSH2 0x1546 JUMP JUMPDEST PUSH1 0x40 MLOAD DUP1 SWAP2 SUB SWAP1 RETURN JUMPDEST CALLVALUE DUP1 ISZERO PUSH2 0x42E JUMPI PUSH1 0x0 DUP1 REVERT JUMPDEST POP PUSH2 0x437 PUSH2 0xF14 JUMP JUMPDEST STOP JUMPDEST CALLVALUE DUP1 ISZERO PUSH2 0x445 JUMPI PUSH1 0x0 DUP1 REVERT JUMPDEST POP PUSH2 0x44E PUSH2 0x1078 JUMP JUMPDEST PUSH1 0x40 MLOAD PUSH2 0x45B SWAP2 SWAP1 PUSH2 0x1546 JUMP JUMPDEST PUSH1 0x40 MLOAD DUP1 SWAP2 SUB SWAP1 RETURN JUMPDEST CALLVALUE DUP1 ISZERO PUSH2 0x470 JUMPI PUSH1 0x0 DUP1 REVERT JUMPDEST POP PUSH2 0x479 PUSH2 0x107E JUMP JUMPDEST PUSH1 0x40 MLOAD PUSH2 0x486 SWAP2 SWAP1 PUSH2 0x1546 JUMP JUMPDEST PUSH1 0x40 MLOAD DUP1 SWAP2 SUB SWAP1 RETURN JUMPDEST CALLVALUE DUP1 ISZERO PUSH2 0x49B JUMPI PUSH1 0x0 DUP1 REVERT JUMPDEST POP PUSH2 0x4B6 PUSH1 0x4 DUP1 CALLDATASIZE SUB DUP2 ADD SWAP1 PUSH2 0x4B1 SWAP2 SWAP1 PUSH2 0x17B0 JUMP JUMPDEST PUSH2 0x1097 JUMP JUMPDEST PUSH1 0x40 MLOAD PUSH2 0x4C3 SWAP2 SWAP1 PUSH2 0x1546 JUMP JUMPDEST PUSH1 0x40 MLOAD DUP1 SWAP2 SUB SWAP1 RETURN JUMPDEST CALLVALUE DUP1 ISZERO PUSH2 0x4D8 JUMPI PUSH1 0x0 DUP1 REVERT JUMPDEST POP PUSH2 0x4F3 PUSH1 0x4 DUP1 CALLDATASIZE SUB DUP2 ADD SWAP1 PUSH2 0x4EE SWAP2 SWAP1 PUSH2 0x17B0 JUMP JUMPDEST PUSH2 0x10E0 JUMP JUMPDEST PUSH1 0x40 MLOAD PUSH2 0x500 SWAP2 SWAP1 PUSH2 0x1546 JUMP JUMPDEST PUSH1 0x40 MLOAD DUP1 SWAP2 SUB SWAP1 RETURN JUMPDEST CALLVALUE DUP1 ISZERO PUSH2 0x515 JUMPI PUSH1 0x0 DUP1 REVERT JUMPDEST POP PUSH2 0x51E PUSH2 0x10F8 JUMP JUMPDEST STOP JUMPDEST CALLVALUE DUP1 ISZERO PUSH2 0x52C JUMPI PUSH1 0x0 DUP1 REVERT JUMPDEST POP PUSH2 0x535 PUSH2 0x11F4 JUMP JUMPDEST PUSH1 0x40 MLOAD PUSH2 0x542 SWAP2 SWAP1 PUSH2 0x16E0 JUMP JUMPDEST PUSH1 0x40 MLOAD DUP1 SWAP2 SUB SWAP1 RETURN JUMPDEST PUSH1 0x9 SLOAD DUP2 JUMP JUMPDEST PUSH1 0x0 DUP1 CALLER SWAP1 POP PUSH1 0x0 PUSH1 0xA PUSH1 0x0 DUP4 PUSH20 0xFFFFFFFFFFFFFFFFFFFFFFFFFFFFFFFFFFFFFFFF AND PUSH20 0xFFFFFFFFFFFFFFFFFFFFFFFFFFFFFFFFFFFFFFFF AND DUP2 MSTORE PUSH1 0x20 ADD SWAP1 DUP2 MSTORE PUSH1 0x20 ADD PUSH1 0x0 KECCAK256 SLOAD SWAP1 POP DUP1 SWAP3 POP POP POP SWAP1 JUMP JUMPDEST PUSH1 0x0 SLOAD DUP2 JUMP JUMPDEST PUSH1 0x6 PUSH1 0x0 SWAP1 SLOAD SWAP1 PUSH2 0x100 EXP SWAP1 DIV PUSH20 0xFFFFFFFFFFFFFFFFFFFFFFFFFFFFFFFFFFFFFFFF AND PUSH20 0xFFFFFFFFFFFFFFFFFFFFFFFFFFFFFFFFFFFFFFFF AND CALLER PUSH20 0xFFFFFFFFFFFFFFFFFFFFFFFFFFFFFFFFFFFFFFFF AND EQ PUSH2 0x639 JUMPI PUSH1 0x40 MLOAD PUSH32 0x8C379A000000000000000000000000000000000000000000000000000000000 DUP2 MSTORE PUSH1 0x4 ADD PUSH2 0x630 SWAP1 PUSH2 0x1860 JUMP JUMPDEST PUSH1 0x40 MLOAD DUP1 SWAP2 SUB SWAP1 REVERT JUMPDEST PUSH1 0x0 CALLER SWAP1 POP PUSH1 0x0 PUSH1 0x7 SLOAD SWAP1 POP PUSH1 0x0 PUSH1 0x7 DUP2 SWAP1 SSTORE POP DUP2 PUSH20 0xFFFFFFFFFFFFFFFFFFFFFFFFFFFFFFFFFFFFFFFF AND PUSH2 0x8FC DUP3 SWAP1 DUP2 ISZERO MUL SWAP1 PUSH1 0x40 MLOAD PUSH1 0x0 PUSH1 0x40 MLOAD DUP1 DUP4 SUB DUP2 DUP6 DUP9 DUP9 CALL SWAP4 POP POP POP POP ISZERO DUP1 ISZERO PUSH2 0x693 JUMPI RETURNDATASIZE PUSH1 0x0 DUP1 RETURNDATACOPY RETURNDATASIZE PUSH1 0x0 REVERT JUMPDEST POP POP POP JUMP JUMPDEST PUSH1 0x4 SLOAD DUP2 JUMP JUMPDEST PUSH1 0x5 SLOAD DUP2 JUMP JUMPDEST PUSH1 0x6 PUSH1 0x0 SWAP1 SLOAD SWAP1 PUSH2 0x100 EXP SWAP1 DIV PUSH20 0xFFFFFFFFFFFFFFFFFFFFFFFFFFFFFFFFFFFFFFFF AND PUSH20 0xFFFFFFFFFFFFFFFFFFFFFFFFFFFFFFFFFFFFFFFF AND CALLER PUSH20 0xFFFFFFFFFFFFFFFFFFFFFFFFFFFFFFFFFFFFFFFF AND EQ PUSH2 0x734 JUMPI PUSH1 0x40 MLOAD PUSH32 0x8C379A000000000000000000000000000000000000000000000000000000000 DUP2 MSTORE PUSH1 0x4 ADD PUSH2 0x72B SWAP1 PUSH2 0x1860 JUMP JUMPDEST PUSH1 0x40 MLOAD DUP1 SWAP2 SUB SWAP1 REVERT JUMPDEST PUSH1 0x0 PUSH1 0xB DUP1 SLOAD SWAP1 POP GT PUSH2 0x77C JUMPI PUSH1 0x40 MLOAD PUSH32 0x8C379A000000000000000000000000000000000000000000000000000000000 DUP2 MSTORE PUSH1 0x4 ADD PUSH2 0x773 SWAP1 PUSH2 0x18CC JUMP JUMPDEST PUSH1 0x40 MLOAD DUP1 SWAP2 SUB SWAP1 REVERT JUMPDEST PUSH1 0x0 PUSH1 0xB DUP1 SLOAD SWAP1 POP NUMBER PUSH2 0x78F SWAP2 SWAP1 PUSH2 0x191B JUMP JUMPDEST BLOCKHASH SWAP1 POP PUSH1 0x0 TIMESTAMP DUP3 PUSH1 0x40 MLOAD PUSH1 0x20 ADD PUSH2 0x7A7 SWAP3 SWAP2 SWAP1 PUSH2 0x199B JUMP JUMPDEST PUSH1 0x40 MLOAD PUSH1 0x20 DUP2 DUP4 SUB SUB DUP2 MSTORE SWAP1 PUSH1 0x40 MSTORE DUP1 MLOAD SWAP1 PUSH1 0x20 ADD KECCAK256 PUSH1 0x0 SHR SWAP1 POP PUSH1 0x0 PUSH1 0xB DUP1 SLOAD SWAP1 POP DUP3 PUSH2 0x7D5 SWAP2 SWAP1 PUSH2 0x19F6 JUMP JUMPDEST SWAP1 POP PUSH1 0x0 PUSH1 0xB DUP3 DUP2 SLOAD DUP2 LT PUSH2 0x7ED JUMPI PUSH2 0x7EC PUSH2 0x1A27 JUMP JUMPDEST JUMPDEST SWAP1 PUSH1 0x0 MSTORE PUSH1 0x20 PUSH1 0x0 KECCAK256 ADD PUSH1 0x0 SWAP1 SLOAD SWAP1 PUSH2 0x100 EXP SWAP1 DIV PUSH20 0xFFFFFFFFFFFFFFFFFFFFFFFFFFFFFFFFFFFFFFFF AND SWAP1 POP DUP1 PUSH1 0x8 PUSH1 0x0 PUSH2 0x100 EXP DUP2 SLOAD DUP2 PUSH20 0xFFFFFFFFFFFFFFFFFFFFFFFFFFFFFFFFFFFFFFFF MUL NOT AND SWAP1 DUP4 PUSH20 0xFFFFFFFFFFFFFFFFFFFFFFFFFFFFFFFFFFFFFFFF AND MUL OR SWAP1 SSTORE POP PUSH1 0x2 SLOAD PUSH1 0x0 SLOAD PUSH2 0x86B SWAP2 SWAP1 PUSH2 0x191B JUMP JUMPDEST PUSH1 0xB DUP1 SLOAD SWAP1 POP PUSH2 0x87B SWAP2 SWAP1 PUSH2 0x1A56 JUMP JUMPDEST PUSH1 0xA PUSH1 0x0 DUP4 PUSH20 0xFFFFFFFFFFFFFFFFFFFFFFFFFFFFFFFFFFFFFFFF AND PUSH20 0xFFFFFFFFFFFFFFFFFFFFFFFFFFFFFFFFFFFFFFFF AND DUP2 MSTORE PUSH1 0x20 ADD SWAP1 DUP2 MSTORE PUSH1 0x20 ADD PUSH1 0x0 KECCAK256 PUSH1 0x0 DUP3 DUP3 SLOAD PUSH2 0x8C9 SWAP2 SWAP1 PUSH2 0x1A98 JUMP JUMPDEST SWAP3 POP POP DUP2 SWAP1 SSTORE POP PUSH1 0xA PUSH1 0x0 DUP3 PUSH20 0xFFFFFFFFFFFFFFFFFFFFFFFFFFFFFFFFFFFFFFFF AND PUSH20 0xFFFFFFFFFFFFFFFFFFFFFFFFFFFFFFFFFFFFFFFF AND DUP2 MSTORE PUSH1 0x20 ADD SWAP1 DUP2 MSTORE PUSH1 0x20 ADD PUSH1 0x0 KECCAK256 SLOAD PUSH1 0x9 DUP2 SWAP1 SSTORE POP PUSH1 0x2 SLOAD PUSH1 0xB DUP1 SLOAD SWAP1 POP PUSH2 0x929 SWAP2 SWAP1 PUSH2 0x1A56 JUMP JUMPDEST PUSH1 0x7 PUSH1 0x0 DUP3 DUP3 SLOAD PUSH2 0x93A SWAP2 SWAP1 PUSH2 0x1A98 JUMP JUMPDEST SWAP3 POP POP DUP2 SWAP1 SSTORE POP PUSH1 0xB PUSH1 0x0 PUSH2 0x94F SWAP2 SWAP1 PUSH2 0x14EF JUMP JUMPDEST PUSH1 0x3 SLOAD TIMESTAMP PUSH2 0x95D SWAP2 SWAP1 PUSH2 0x1A98 JUMP JUMPDEST PUSH1 0x5 DUP2 SWAP1 SSTORE POP POP POP POP POP JUMP JUMPDEST PUSH1 0x60 PUSH1 0xB DUP1 SLOAD DUP1 PUSH1 0x20 MUL PUSH1 0x20 ADD PUSH1 0x40 MLOAD SWAP1 DUP2 ADD PUSH1 0x40 MSTORE DUP1 SWAP3 SWAP2 SWAP1 DUP2 DUP2 MSTORE PUSH1 0x20 ADD DUP3 DUP1 SLOAD DUP1 ISZERO PUSH2 0x9ED JUMPI PUSH1 0x20 MUL DUP3 ADD SWAP2 SWAP1 PUSH1 0x0 MSTORE PUSH1 0x20 PUSH1 0x0 KECCAK256 SWAP1 JUMPDEST DUP2 PUSH1 0x0 SWAP1 SLOAD SWAP1 PUSH2 0x100 EXP SWAP1 DIV PUSH20 0xFFFFFFFFFFFFFFFFFFFFFFFFFFFFFFFFFFFFFFFF AND PUSH20 0xFFFFFFFFFFFFFFFFFFFFFFFFFFFFFFFFFFFFFFFF AND DUP2 MSTORE PUSH1 0x20 ADD SWAP1 PUSH1 0x1 ADD SWAP1 DUP1 DUP4 GT PUSH2 0x9A3 JUMPI JUMPDEST POP POP POP POP POP SWAP1 POP SWAP1 JUMP JUMPDEST PUSH1 0xB DUP2 DUP2 SLOAD DUP2 LT PUSH2 0xA07 JUMPI PUSH1 0x0 DUP1 REVERT JUMPDEST SWAP1 PUSH1 0x0 MSTORE PUSH1 0x20 PUSH1 0x0 KECCAK256 ADD PUSH1 0x0 SWAP2 POP SLOAD SWAP1 PUSH2 0x100 EXP SWAP1 DIV PUSH20 0xFFFFFFFFFFFFFFFFFFFFFFFFFFFFFFFFFFFFFFFF AND DUP2 JUMP JUMPDEST PUSH1 0x6 PUSH1 0x0 SWAP1 SLOAD SWAP1 PUSH2 0x100 EXP SWAP1 DIV PUSH20 0xFFFFFFFFFFFFFFFFFFFFFFFFFFFFFFFFFFFFFFFF AND DUP2 JUMP JUMPDEST PUSH1 0x2 SLOAD DUP2 JUMP JUMPDEST PUSH2 0xA6A PUSH2 0xD81 JUMP JUMPDEST PUSH2 0xAA9 JUMPI PUSH1 0x40 MLOAD PUSH32 0x8C379A000000000000000000000000000000000000000000000000000000000 DUP2 MSTORE PUSH1 0x4 ADD PUSH2 0xAA0 SWAP1 PUSH2 0x1B18 JUMP JUMPDEST PUSH1 0x40 MLOAD DUP1 SWAP2 SUB SWAP1 REVERT JUMPDEST PUSH1 0x0 CALLER SWAP1 POP PUSH1 0x0 PUSH1 0xA PUSH1 0x0 DUP4 PUSH20 0xFFFFFFFFFFFFFFFFFFFFFFFFFFFFFFFFFFFFFFFF AND PUSH20 0xFFFFFFFFFFFFFFFFFFFFFFFFFFFFFFFFFFFFFFFF AND DUP2 MSTORE PUSH1 0x20 ADD SWAP1 DUP2 MSTORE PUSH1 0x20 ADD PUSH1 0x0 KECCAK256 SLOAD SWAP1 POP PUSH1 0x0 PUSH1 0xA PUSH1 0x0 DUP5 PUSH20 0xFFFFFFFFFFFFFFFFFFFFFFFFFFFFFFFFFFFFFFFF AND PUSH20 0xFFFFFFFFFFFFFFFFFFFFFFFFFFFFFFFFFFFFFFFF AND DUP2 MSTORE PUSH1 0x20 ADD SWAP1 DUP2 MSTORE PUSH1 0x20 ADD PUSH1 0x0 KECCAK256 DUP2 SWAP1 SSTORE POP DUP2 PUSH20 0xFFFFFFFFFFFFFFFFFFFFFFFFFFFFFFFFFFFFFFFF AND PUSH2 0x8FC DUP3 SWAP1 DUP2 ISZERO MUL SWAP1 PUSH1 0x40 MLOAD PUSH1 0x0 PUSH1 0x40 MLOAD DUP1 DUP4 SUB DUP2 DUP6 DUP9 DUP9 CALL SWAP4 POP POP POP POP ISZERO DUP1 ISZERO PUSH2 0xB7D JUMPI RETURNDATASIZE PUSH1 0x0 DUP1 RETURNDATACOPY RETURNDATASIZE PUSH1 0x0 REVERT JUMPDEST POP POP POP JUMP JUMPDEST PUSH1 0x0 PUSH1 0xB DUP1 SLOAD SWAP1 POP EQ DUP1 ISZERO PUSH2 0xB99 JUMPI POP PUSH1 0x5 SLOAD TIMESTAMP LT ISZERO JUMPDEST ISZERO PUSH2 0xBB3 JUMPI PUSH1 0x3 SLOAD TIMESTAMP PUSH2 0xBAC SWAP2 SWAP1 PUSH2 0x1A98 JUMP JUMPDEST PUSH1 0x5 DUP2 SWAP1 SSTORE POP JUMPDEST PUSH1 0x0 DUP1 SLOAD CALLVALUE PUSH2 0xBC2 SWAP2 SWAP1 PUSH2 0x19F6 JUMP JUMPDEST EQ PUSH2 0xBCE PUSH1 0x0 SLOAD PUSH2 0x121A JUMP JUMPDEST PUSH1 0x40 MLOAD PUSH1 0x20 ADD PUSH2 0xBDE SWAP2 SWAP1 PUSH2 0x1BF5 JUMP JUMPDEST PUSH1 0x40 MLOAD PUSH1 0x20 DUP2 DUP4 SUB SUB DUP2 MSTORE SWAP1 PUSH1 0x40 MSTORE SWAP1 PUSH2 0xC2E JUMPI PUSH1 0x40 MLOAD PUSH32 0x8C379A000000000000000000000000000000000000000000000000000000000 DUP2 MSTORE PUSH1 0x4 ADD PUSH2 0xC25 SWAP2 SWAP1 PUSH2 0x1C74 JUMP JUMPDEST PUSH1 0x40 MLOAD DUP1 SWAP2 SUB SWAP1 REVERT JUMPDEST POP PUSH1 0x0 DUP1 SLOAD CALLVALUE PUSH2 0xC3E SWAP2 SWAP1 PUSH2 0x1C96 JUMP JUMPDEST SWAP1 POP PUSH2 0xC48 PUSH2 0xD67 JUMP JUMPDEST DUP2 GT ISZERO PUSH2 0xC8A JUMPI PUSH1 0x40 MLOAD PUSH32 0x8C379A000000000000000000000000000000000000000000000000000000000 DUP2 MSTORE PUSH1 0x4 ADD PUSH2 0xC81 SWAP1 PUSH2 0x1D13 JUMP JUMPDEST PUSH1 0x40 MLOAD DUP1 SWAP2 SUB SWAP1 REVERT JUMPDEST PUSH1 0x4 SLOAD DUP2 PUSH2 0xC97 CALLER PUSH2 0x12E8 JUMP JUMPDEST PUSH2 0xCA1 SWAP2 SWAP1 PUSH2 0x1A98 JUMP JUMPDEST GT ISZERO PUSH2 0xCE2 JUMPI PUSH1 0x40 MLOAD PUSH32 0x8C379A000000000000000000000000000000000000000000000000000000000 DUP2 MSTORE PUSH1 0x4 ADD PUSH2 0xCD9 SWAP1 PUSH2 0x1DA5 JUMP JUMPDEST PUSH1 0x40 MLOAD DUP1 SWAP2 SUB SWAP1 REVERT JUMPDEST PUSH1 0x0 JUMPDEST DUP2 DUP2 LT ISZERO PUSH2 0xD63 JUMPI PUSH1 0xB CALLER SWAP1 DUP1 PUSH1 0x1 DUP2 SLOAD ADD DUP1 DUP3 SSTORE DUP1 SWAP2 POP POP PUSH1 0x1 SWAP1 SUB SWAP1 PUSH1 0x0 MSTORE PUSH1 0x20 PUSH1 0x0 KECCAK256 ADD PUSH1 0x0 SWAP1 SWAP2 SWAP1 SWAP2 SWAP1 SWAP2 PUSH2 0x100 EXP DUP2 SLOAD DUP2 PUSH20 0xFFFFFFFFFFFFFFFFFFFFFFFFFFFFFFFFFFFFFFFF MUL NOT AND SWAP1 DUP4 PUSH20 0xFFFFFFFFFFFFFFFFFFFFFFFFFFFFFFFFFFFFFFFF AND MUL OR SWAP1 SSTORE POP DUP1 DUP1 PUSH2 0xD5B SWAP1 PUSH2 0x1DC5 JUMP JUMPDEST SWAP2 POP POP PUSH2 0xCE5 JUMP JUMPDEST POP POP JUMP JUMPDEST PUSH1 0x0 PUSH1 0xB DUP1 SLOAD SWAP1 POP PUSH1 0x1 SLOAD PUSH2 0xD7C SWAP2 SWAP1 PUSH2 0x191B JUMP JUMPDEST SWAP1 POP SWAP1 JUMP JUMPDEST PUSH1 0x0 DUP1 PUSH1 0xA PUSH1 0x0 CALLER PUSH20 0xFFFFFFFFFFFFFFFFFFFFFFFFFFFFFFFFFFFFFFFF AND PUSH20 0xFFFFFFFFFFFFFFFFFFFFFFFFFFFFFFFFFFFFFFFF AND DUP2 MSTORE PUSH1 0x20 ADD SWAP1 DUP2 MSTORE PUSH1 0x20 ADD PUSH1 0x0 KECCAK256 SLOAD GT SWAP1 POP SWAP1 JUMP JUMPDEST PUSH1 0x6 PUSH1 0x0 SWAP1 SLOAD SWAP1 PUSH2 0x100 EXP SWAP1 DIV PUSH20 0xFFFFFFFFFFFFFFFFFFFFFFFFFFFFFFFFFFFFFFFF AND PUSH20 0xFFFFFFFFFFFFFFFFFFFFFFFFFFFFFFFFFFFFFFFF AND CALLER PUSH20 0xFFFFFFFFFFFFFFFFFFFFFFFFFFFFFFFFFFFFFFFF AND EQ PUSH2 0xE5A JUMPI PUSH1 0x40 MLOAD PUSH32 0x8C379A000000000000000000000000000000000000000000000000000000000 DUP2 MSTORE PUSH1 0x4 ADD PUSH2 0xE51 SWAP1 PUSH2 0x1860 JUMP JUMPDEST PUSH1 0x40 MLOAD DUP1 SWAP2 SUB SWAP1 REVERT JUMPDEST DUP1 PUSH1 0x4 DUP2 SWAP1 SSTORE POP POP JUMP JUMPDEST PUSH1 0x6 PUSH1 0x0 SWAP1 SLOAD SWAP1 PUSH2 0x100 EXP SWAP1 DIV PUSH20 0xFFFFFFFFFFFFFFFFFFFFFFFFFFFFFFFFFFFFFFFF AND PUSH20 0xFFFFFFFFFFFFFFFFFFFFFFFFFFFFFFFFFFFFFFFF AND CALLER PUSH20 0xFFFFFFFFFFFFFFFFFFFFFFFFFFFFFFFFFFFFFFFF AND EQ PUSH2 0xEF4 JUMPI PUSH1 0x40 MLOAD PUSH32 0x8C379A000000000000000000000000000000000000000000000000000000000 DUP2 MSTORE PUSH1 0x4 ADD PUSH2 0xEEB SWAP1 PUSH2 0x1860 JUMP JUMPDEST PUSH1 0x40 MLOAD DUP1 SWAP2 SUB SWAP1 REVERT JUMPDEST DUP3 PUSH1 0x0 DUP2 SWAP1 SSTORE POP DUP2 PUSH1 0x1 DUP2 SWAP1 SSTORE POP DUP1 PUSH1 0x2 DUP2 SWAP1 SSTORE POP POP POP POP JUMP JUMPDEST PUSH1 0x1 SLOAD DUP2 JUMP JUMPDEST PUSH1 0x5 SLOAD TIMESTAMP LT ISZERO PUSH2 0xF59 JUMPI PUSH1 0x40 MLOAD PUSH32 0x8C379A000000000000000000000000000000000000000000000000000000000 DUP2 MSTORE PUSH1 0x4 ADD PUSH2 0xF50 SWAP1 PUSH2 0x1E59 JUMP JUMPDEST PUSH1 0x40 MLOAD DUP1 SWAP2 SUB SWAP1 REVERT JUMPDEST PUSH1 0x0 JUMPDEST PUSH1 0xB DUP1 SLOAD SWAP1 POP DUP2 LT ISZERO PUSH2 0x1067 JUMPI PUSH1 0x0 PUSH1 0xB DUP3 DUP2 SLOAD DUP2 LT PUSH2 0xF7F JUMPI PUSH2 0xF7E PUSH2 0x1A27 JUMP JUMPDEST JUMPDEST SWAP1 PUSH1 0x0 MSTORE PUSH1 0x20 PUSH1 0x0 KECCAK256 ADD PUSH1 0x0 SWAP1 SLOAD SWAP1 PUSH2 0x100 EXP SWAP1 DIV PUSH20 0xFFFFFFFFFFFFFFFFFFFFFFFFFFFFFFFFFFFFFFFF AND SWAP1 POP PUSH1 0x0 PUSH1 0xB DUP4 DUP2 SLOAD DUP2 LT PUSH2 0xFC2 JUMPI PUSH2 0xFC1 PUSH2 0x1A27 JUMP JUMPDEST JUMPDEST SWAP1 PUSH1 0x0 MSTORE PUSH1 0x20 PUSH1 0x0 KECCAK256 ADD PUSH1 0x0 PUSH2 0x100 EXP DUP2 SLOAD DUP2 PUSH20 0xFFFFFFFFFFFFFFFFFFFFFFFFFFFFFFFFFFFFFFFF MUL NOT AND SWAP1 DUP4 PUSH20 0xFFFFFFFFFFFFFFFFFFFFFFFFFFFFFFFFFFFFFFFF AND MUL OR SWAP1 SSTORE POP DUP1 PUSH20 0xFFFFFFFFFFFFFFFFFFFFFFFFFFFFFFFFFFFFFFFF AND PUSH2 0x8FC PUSH1 0x0 SLOAD SWAP1 DUP2 ISZERO MUL SWAP1 PUSH1 0x40 MLOAD PUSH1 0x0 PUSH1 0x40 MLOAD DUP1 DUP4 SUB DUP2 DUP6 DUP9 DUP9 CALL SWAP4 POP POP POP POP ISZERO DUP1 ISZERO PUSH2 0x1052 JUMPI RETURNDATASIZE PUSH1 0x0 DUP1 RETURNDATACOPY RETURNDATASIZE PUSH1 0x0 REVERT JUMPDEST POP POP DUP1 DUP1 PUSH2 0x105F SWAP1 PUSH2 0x1DC5 JUMP JUMPDEST SWAP2 POP POP PUSH2 0xF5C JUMP JUMPDEST POP PUSH1 0xB PUSH1 0x0 PUSH2 0x1076 SWAP2 SWAP1 PUSH2 0x14EF JUMP JUMPDEST JUMP JUMPDEST PUSH1 0x7 SLOAD DUP2 JUMP JUMPDEST PUSH1 0x0 DUP1 SLOAD PUSH1 0xB DUP1 SLOAD SWAP1 POP PUSH2 0x1092 SWAP2 SWAP1 PUSH2 0x1A56 JUMP JUMPDEST SWAP1 POP SWAP1 JUMP JUMPDEST PUSH1 0x0 PUSH1 0xA PUSH1 0x0 DUP4 PUSH20 0xFFFFFFFFFFFFFFFFFFFFFFFFFFFFFFFFFFFFFFFF AND PUSH20 0xFFFFFFFFFFFFFFFFFFFFFFFFFFFFFFFFFFFFFFFF AND DUP2 MSTORE PUSH1 0x20 ADD SWAP1 DUP2 MSTORE PUSH1 0x20 ADD PUSH1 0x0 KECCAK256 SLOAD SWAP1 POP SWAP2 SWAP1 POP JUMP JUMPDEST PUSH1 0xA PUSH1 0x20 MSTORE DUP1 PUSH1 0x0 MSTORE PUSH1 0x40 PUSH1 0x0 KECCAK256 PUSH1 0x0 SWAP2 POP SWAP1 POP SLOAD DUP2 JUMP JUMPDEST PUSH1 0x6 PUSH1 0x0 SWAP1 SLOAD SWAP1 PUSH2 0x100 EXP SWAP1 DIV PUSH20 0xFFFFFFFFFFFFFFFFFFFFFFFFFFFFFFFFFFFFFFFF AND PUSH20 0xFFFFFFFFFFFFFFFFFFFFFFFFFFFFFFFFFFFFFFFF AND CALLER PUSH20 0xFFFFFFFFFFFFFFFFFFFFFFFFFFFFFFFFFFFFFFFF AND EQ PUSH2 0x1188 JUMPI PUSH1 0x40 MLOAD PUSH32 0x8C379A000000000000000000000000000000000000000000000000000000000 DUP2 MSTORE PUSH1 0x4 ADD PUSH2 0x117F SWAP1 PUSH2 0x1860 JUMP JUMPDEST PUSH1 0x40 MLOAD DUP1 SWAP2 SUB SWAP1 REVERT JUMPDEST PUSH1 0x0 PUSH1 0xB DUP1 SLOAD SWAP1 POP EQ PUSH2 0x11D0 JUMPI PUSH1 0x40 MLOAD PUSH32 0x8C379A000000000000000000000000000000000000000000000000000000000 DUP2 MSTORE PUSH1 0x4 ADD PUSH2 0x11C7 SWAP1 PUSH2 0x1EEB JUMP JUMPDEST PUSH1 0x40 MLOAD DUP1 SWAP2 SUB SWAP1 REVERT JUMPDEST PUSH1 0xB PUSH1 0x0 PUSH2 0x11DE SWAP2 SWAP1 PUSH2 0x14EF JUMP JUMPDEST PUSH1 0x3 SLOAD TIMESTAMP PUSH2 0x11EC SWAP2 SWAP1 PUSH2 0x1A98 JUMP JUMPDEST PUSH1 0x5 DUP2 SWAP1 SSTORE POP JUMP JUMPDEST PUSH1 0x8 PUSH1 0x0 SWAP1 SLOAD SWAP1 PUSH2 0x100 EXP SWAP1 DIV PUSH20 0xFFFFFFFFFFFFFFFFFFFFFFFFFFFFFFFFFFFFFFFF AND DUP2 JUMP JUMPDEST PUSH1 0x60 PUSH1 0x0 PUSH1 0x1 PUSH2 0x1229 DUP5 PUSH2 0x139C JUMP JUMPDEST ADD SWAP1 POP PUSH1 0x0 DUP2 PUSH8 0xFFFFFFFFFFFFFFFF DUP2 GT ISZERO PUSH2 0x1248 JUMPI PUSH2 0x1247 PUSH2 0x1F0B JUMP JUMPDEST JUMPDEST PUSH1 0x40 MLOAD SWAP1 DUP1 DUP3 MSTORE DUP1 PUSH1 0x1F ADD PUSH1 0x1F NOT AND PUSH1 0x20 ADD DUP3 ADD PUSH1 0x40 MSTORE DUP1 ISZERO PUSH2 0x127A JUMPI DUP2 PUSH1 0x20 ADD PUSH1 0x1 DUP3 MUL DUP1 CALLDATASIZE DUP4 CALLDATACOPY DUP1 DUP3 ADD SWAP2 POP POP SWAP1 POP JUMPDEST POP SWAP1 POP PUSH1 0x0 DUP3 PUSH1 0x20 ADD DUP3 ADD SWAP1 POP JUMPDEST PUSH1 0x1 ISZERO PUSH2 0x12DD JUMPI DUP1 DUP1 PUSH1 0x1 SWAP1 SUB SWAP2 POP POP PUSH32 0x3031323334353637383961626364656600000000000000000000000000000000 PUSH1 0xA DUP7 MOD BYTE DUP2 MSTORE8 PUSH1 0xA DUP6 DUP2 PUSH2 0x12D1 JUMPI PUSH2 0x12D0 PUSH2 0x19C7 JUMP JUMPDEST JUMPDEST DIV SWAP5 POP PUSH1 0x0 DUP6 SUB PUSH2 0x1288 JUMPI JUMPDEST DUP2 SWAP4 POP POP POP POP SWAP2 SWAP1 POP JUMP JUMPDEST PUSH1 0x0 DUP1 PUSH1 0x0 SWAP1 POP PUSH1 0x0 JUMPDEST PUSH1 0xB DUP1 SLOAD SWAP1 POP DUP2 LT ISZERO PUSH2 0x1392 JUMPI DUP4 PUSH20 0xFFFFFFFFFFFFFFFFFFFFFFFFFFFFFFFFFFFFFFFF AND PUSH1 0xB DUP3 DUP2 SLOAD DUP2 LT PUSH2 0x132A JUMPI PUSH2 0x1329 PUSH2 0x1A27 JUMP JUMPDEST JUMPDEST SWAP1 PUSH1 0x0 MSTORE PUSH1 0x20 PUSH1 0x0 KECCAK256 ADD PUSH1 0x0 SWAP1 SLOAD SWAP1 PUSH2 0x100 EXP SWAP1 DIV PUSH20 0xFFFFFFFFFFFFFFFFFFFFFFFFFFFFFFFFFFFFFFFF AND PUSH20 0xFFFFFFFFFFFFFFFFFFFFFFFFFFFFFFFFFFFFFFFF AND SUB PUSH2 0x137F JUMPI DUP2 DUP1 PUSH2 0x137B SWAP1 PUSH2 0x1DC5 JUMP JUMPDEST SWAP3 POP POP JUMPDEST DUP1 DUP1 PUSH2 0x138A SWAP1 PUSH2 0x1DC5 JUMP JUMPDEST SWAP2 POP POP PUSH2 0x12F2 JUMP JUMPDEST POP DUP1 SWAP2 POP POP SWAP2 SWAP1 POP JUMP JUMPDEST PUSH1 0x0 DUP1 PUSH1 0x0 SWAP1 POP PUSH27 0x184F03E93FF9F4DAA797ED6E38ED64BF6A1F010000000000000000 DUP4 LT PUSH2 0x13FA JUMPI PUSH27 0x184F03E93FF9F4DAA797ED6E38ED64BF6A1F010000000000000000 DUP4 DUP2 PUSH2 0x13F0 JUMPI PUSH2 0x13EF PUSH2 0x19C7 JUMP JUMPDEST JUMPDEST DIV SWAP3 POP PUSH1 0x40 DUP2 ADD SWAP1 POP JUMPDEST PUSH14 0x4EE2D6D415B85ACEF8100000000 DUP4 LT PUSH2 0x1437 JUMPI PUSH14 0x4EE2D6D415B85ACEF8100000000 DUP4 DUP2 PUSH2 0x142D JUMPI PUSH2 0x142C PUSH2 0x19C7 JUMP JUMPDEST JUMPDEST DIV SWAP3 POP PUSH1 0x20 DUP2 ADD SWAP1 POP JUMPDEST PUSH7 0x2386F26FC10000 DUP4 LT PUSH2 0x1466 JUMPI PUSH7 0x2386F26FC10000 DUP4 DUP2 PUSH2 0x145C JUMPI PUSH2 0x145B PUSH2 0x19C7 JUMP JUMPDEST JUMPDEST DIV SWAP3 POP PUSH1 0x10 DUP2 ADD SWAP1 POP JUMPDEST PUSH4 0x5F5E100 DUP4 LT PUSH2 0x148F JUMPI PUSH4 0x5F5E100 DUP4 DUP2 PUSH2 0x1485 JUMPI PUSH2 0x1484 PUSH2 0x19C7 JUMP JUMPDEST JUMPDEST DIV SWAP3 POP PUSH1 0x8 DUP2 ADD SWAP1 POP JUMPDEST PUSH2 0x2710 DUP4 LT PUSH2 0x14B4 JUMPI PUSH2 0x2710 DUP4 DUP2 PUSH2 0x14AA JUMPI PUSH2 0x14A9 PUSH2 0x19C7 JUMP JUMPDEST JUMPDEST DIV SWAP3 POP PUSH1 0x4 DUP2 ADD SWAP1 POP JUMPDEST PUSH1 0x64 DUP4 LT PUSH2 0x14D7 JUMPI PUSH1 0x64 DUP4 DUP2 PUSH2 0x14CD JUMPI PUSH2 0x14CC PUSH2 0x19C7 JUMP JUMPDEST JUMPDEST DIV SWAP3 POP PUSH1 0x2 DUP2 ADD SWAP1 POP JUMPDEST PUSH1 0xA DUP4 LT PUSH2 0x14E6 JUMPI PUSH1 0x1 DUP2 ADD SWAP1 POP JUMPDEST DUP1 SWAP2 POP POP SWAP2 SWAP1 POP JUMP JUMPDEST POP DUP1 SLOAD PUSH1 0x0 DUP3 SSTORE SWAP1 PUSH1 0x0 MSTORE PUSH1 0x20 PUSH1 0x0 KECCAK256 SWAP1 DUP2 ADD SWAP1 PUSH2 0x150D SWAP2 SWAP1 PUSH2 0x1510 JUMP JUMPDEST POP JUMP JUMPDEST JUMPDEST DUP1 DUP3 GT ISZERO PUSH2 0x1529 JUMPI PUSH1 0x0 DUP2 PUSH1 0x0 SWAP1 SSTORE POP PUSH1 0x1 ADD PUSH2 0x1511 JUMP JUMPDEST POP SWAP1 JUMP JUMPDEST PUSH1 0x0 DUP2 SWAP1 POP SWAP2 SWAP1 POP JUMP JUMPDEST PUSH2 0x1540 DUP2 PUSH2 0x152D JUMP JUMPDEST DUP3 MSTORE POP POP JUMP JUMPDEST PUSH1 0x0 PUSH1 0x20 DUP3 ADD SWAP1 POP PUSH2 0x155B PUSH1 0x0 DUP4 ADD DUP5 PUSH2 0x1537 JUMP JUMPDEST SWAP3 SWAP2 POP POP JUMP JUMPDEST PUSH1 0x0 DUP2 MLOAD SWAP1 POP SWAP2 SWAP1 POP JUMP JUMPDEST PUSH1 0x0 DUP3 DUP3 MSTORE PUSH1 0x20 DUP3 ADD SWAP1 POP SWAP3 SWAP2 POP POP JUMP JUMPDEST PUSH1 0x0 DUP2 SWAP1 POP PUSH1 0x20 DUP3 ADD SWAP1 POP SWAP2 SWAP1 POP JUMP JUMPDEST PUSH1 0x0 PUSH20 0xFFFFFFFFFFFFFFFFFFFFFFFFFFFFFFFFFFFFFFFF DUP3 AND SWAP1 POP SWAP2 SWAP1 POP JUMP JUMPDEST PUSH1 0x0 PUSH2 0x15B8 DUP3 PUSH2 0x158D JUMP JUMPDEST SWAP1 POP SWAP2 SWAP1 POP JUMP JUMPDEST PUSH2 0x15C8 DUP2 PUSH2 0x15AD JUMP JUMPDEST DUP3 MSTORE POP POP JUMP JUMPDEST PUSH1 0x0 PUSH2 0x15DA DUP4 DUP4 PUSH2 0x15BF JUMP JUMPDEST PUSH1 0x20 DUP4 ADD SWAP1 POP SWAP3 SWAP2 POP POP JUMP JUMPDEST PUSH1 0x0 PUSH1 0x20 DUP3 ADD SWAP1 POP SWAP2 SWAP1 POP JUMP JUMPDEST PUSH1 0x0 PUSH2 0x15FE DUP3 PUSH2 0x1561 JUMP JUMPDEST PUSH2 0x1608 DUP2 DUP6 PUSH2 0x156C JUMP JUMPDEST SWAP4 POP PUSH2 0x1613 DUP4 PUSH2 0x157D JUMP JUMPDEST DUP1 PUSH1 0x0 JUMPDEST DUP4 DUP2 LT ISZERO PUSH2 0x1644 JUMPI DUP2 MLOAD PUSH2 0x162B DUP9 DUP3 PUSH2 0x15CE JUMP JUMPDEST SWAP8 POP PUSH2 0x1636 DUP4 PUSH2 0x15E6 JUMP JUMPDEST SWAP3 POP POP PUSH1 0x1 DUP2 ADD SWAP1 POP PUSH2 0x1617 JUMP JUMPDEST POP DUP6 SWAP4 POP POP POP POP SWAP3 SWAP2 POP POP JUMP JUMPDEST PUSH1 0x0 PUSH1 0x20 DUP3 ADD SWAP1 POP DUP2 DUP2 SUB PUSH1 0x0 DUP4 ADD MSTORE PUSH2 0x166B DUP2 DUP5 PUSH2 0x15F3 JUMP JUMPDEST SWAP1 POP SWAP3 SWAP2 POP POP JUMP JUMPDEST PUSH1 0x0 DUP1 REVERT JUMPDEST PUSH2 0x1681 DUP2 PUSH2 0x152D JUMP JUMPDEST DUP2 EQ PUSH2 0x168C JUMPI PUSH1 0x0 DUP1 REVERT JUMPDEST POP JUMP JUMPDEST PUSH1 0x0 DUP2 CALLDATALOAD SWAP1 POP PUSH2 0x169E DUP2 PUSH2 0x1678 JUMP JUMPDEST SWAP3 SWAP2 POP POP JUMP JUMPDEST PUSH1 0x0 PUSH1 0x20 DUP3 DUP5 SUB SLT ISZERO PUSH2 0x16BA JUMPI PUSH2 0x16B9 PUSH2 0x1673 JUMP JUMPDEST JUMPDEST PUSH1 0x0 PUSH2 0x16C8 DUP5 DUP3 DUP6 ADD PUSH2 0x168F JUMP JUMPDEST SWAP2 POP POP SWAP3 SWAP2 POP POP JUMP JUMPDEST PUSH2 0x16DA DUP2 PUSH2 0x15AD JUMP JUMPDEST DUP3 MSTORE POP POP JUMP JUMPDEST PUSH1 0x0 PUSH1 0x20 DUP3 ADD SWAP1 POP PUSH2 0x16F5 PUSH1 0x0 DUP4 ADD DUP5 PUSH2 0x16D1 JUMP JUMPDEST SWAP3 SWAP2 POP POP JUMP JUMPDEST PUSH1 0x0 DUP2 ISZERO ISZERO SWAP1 POP SWAP2 SWAP1 POP JUMP JUMPDEST PUSH2 0x1710 DUP2 PUSH2 0x16FB JUMP JUMPDEST DUP3 MSTORE POP POP JUMP JUMPDEST PUSH1 0x0 PUSH1 0x20 DUP3 ADD SWAP1 POP PUSH2 0x172B PUSH1 0x0 DUP4 ADD DUP5 PUSH2 0x1707 JUMP JUMPDEST SWAP3 SWAP2 POP POP JUMP JUMPDEST PUSH1 0x0 DUP1 PUSH1 0x0 PUSH1 0x60 DUP5 DUP7 SUB SLT ISZERO PUSH2 0x174A JUMPI PUSH2 0x1749 PUSH2 0x1673 JUMP JUMPDEST JUMPDEST PUSH1 0x0 PUSH2 0x1758 DUP7 DUP3 DUP8 ADD PUSH2 0x168F JUMP JUMPDEST SWAP4 POP POP PUSH1 0x20 PUSH2 0x1769 DUP7 DUP3 DUP8 ADD PUSH2 0x168F JUMP JUMPDEST SWAP3 POP POP PUSH1 0x40 PUSH2 0x177A DUP7 DUP3 DUP8 ADD PUSH2 0x168F JUMP JUMPDEST SWAP2 POP POP SWAP3 POP SWAP3 POP SWAP3 JUMP JUMPDEST PUSH2 0x178D DUP2 PUSH2 0x15AD JUMP JUMPDEST DUP2 EQ PUSH2 0x1798 JUMPI PUSH1 0x0 DUP1 REVERT JUMPDEST POP JUMP JUMPDEST PUSH1 0x0 DUP2 CALLDATALOAD SWAP1 POP PUSH2 0x17AA DUP2 PUSH2 0x1784 JUMP JUMPDEST SWAP3 SWAP2 POP POP JUMP JUMPDEST PUSH1 0x0 PUSH1 0x20 DUP3 DUP5 SUB SLT ISZERO PUSH2 0x17C6 JUMPI PUSH2 0x17C5 PUSH2 0x1673 JUMP JUMPDEST JUMPDEST PUSH1 0x0 PUSH2 0x17D4 DUP5 DUP3 DUP6 ADD PUSH2 0x179B JUMP JUMPDEST SWAP2 POP POP SWAP3 SWAP2 POP POP JUMP JUMPDEST PUSH1 0x0 DUP3 DUP3 MSTORE PUSH1 0x20 DUP3 ADD SWAP1 POP SWAP3 SWAP2 POP POP JUMP JUMPDEST PUSH32 0x43616C6C6572206973206E6F7420746865206C6F7474657279206F7065726174 PUSH1 0x0 DUP3 ADD MSTORE PUSH32 0x6F72000000000000000000000000000000000000000000000000000000000000 PUSH1 0x20 DUP3 ADD MSTORE POP JUMP JUMPDEST PUSH1 0x0 PUSH2 0x184A PUSH1 0x22 DUP4 PUSH2 0x17DD JUMP JUMPDEST SWAP2 POP PUSH2 0x1855 DUP3 PUSH2 0x17EE JUMP JUMPDEST PUSH1 0x40 DUP3 ADD SWAP1 POP SWAP2 SWAP1 POP JUMP JUMPDEST PUSH1 0x0 PUSH1 0x20 DUP3 ADD SWAP1 POP DUP2 DUP2 SUB PUSH1 0x0 DUP4 ADD MSTORE PUSH2 0x1879 DUP2 PUSH2 0x183D JUMP JUMPDEST SWAP1 POP SWAP2 SWAP1 POP JUMP JUMPDEST PUSH32 0x4E6F207469636B65747320776572652070757263686173656400000000000000 PUSH1 0x0 DUP3 ADD MSTORE POP JUMP JUMPDEST PUSH1 0x0 PUSH2 0x18B6 PUSH1 0x19 DUP4 PUSH2 0x17DD JUMP JUMPDEST SWAP2 POP PUSH2 0x18C1 DUP3 PUSH2 0x1880 JUMP JUMPDEST PUSH1 0x20 DUP3 ADD SWAP1 POP SWAP2 SWAP1 POP JUMP JUMPDEST PUSH1 0x0 PUSH1 0x20 DUP3 ADD SWAP1 POP DUP2 DUP2 SUB PUSH1 0x0 DUP4 ADD MSTORE PUSH2 0x18E5 DUP2 PUSH2 0x18A9 JUMP JUMPDEST SWAP1 POP SWAP2 SWAP1 POP JUMP JUMPDEST PUSH32 0x4E487B7100000000000000000000000000000000000000000000000000000000 PUSH1 0x0 MSTORE PUSH1 0x11 PUSH1 0x4 MSTORE PUSH1 0x24 PUSH1 0x0 REVERT JUMPDEST PUSH1 0x0 PUSH2 0x1926 DUP3 PUSH2 0x152D JUMP JUMPDEST SWAP2 POP PUSH2 0x1931 DUP4 PUSH2 0x152D JUMP JUMPDEST SWAP3 POP DUP3 DUP3 SUB SWAP1 POP DUP2 DUP2 GT ISZERO PUSH2 0x1949 JUMPI PUSH2 0x1948 PUSH2 0x18EC JUMP JUMPDEST JUMPDEST SWAP3 SWAP2 POP POP JUMP JUMPDEST PUSH1 0x0 DUP2 SWAP1 POP SWAP2 SWAP1 POP JUMP JUMPDEST PUSH2 0x196A PUSH2 0x1965 DUP3 PUSH2 0x152D JUMP JUMPDEST PUSH2 0x194F JUMP JUMPDEST DUP3 MSTORE POP POP JUMP JUMPDEST PUSH1 0x0 DUP2 SWAP1 POP SWAP2 SWAP1 POP JUMP JUMPDEST PUSH1 0x0 DUP2 SWAP1 POP SWAP2 SWAP1 POP JUMP JUMPDEST PUSH2 0x1995 PUSH2 0x1990 DUP3 PUSH2 0x1970 JUMP JUMPDEST PUSH2 0x197A JUMP JUMPDEST DUP3 MSTORE POP POP JUMP JUMPDEST PUSH1 0x0 PUSH2 0x19A7 DUP3 DUP6 PUSH2 0x1959 JUMP JUMPDEST PUSH1 0x20 DUP3 ADD SWAP2 POP PUSH2 0x19B7 DUP3 DUP5 PUSH2 0x1984 JUMP JUMPDEST PUSH1 0x20 DUP3 ADD SWAP2 POP DUP2 SWAP1 POP SWAP4 SWAP3 POP POP POP JUMP JUMPDEST PUSH32 0x4E487B7100000000000000000000000000000000000000000000000000000000 PUSH1 0x0 MSTORE PUSH1 0x12 PUSH1 0x4 MSTORE PUSH1 0x24 PUSH1 0x0 REVERT JUMPDEST PUSH1 0x0 PUSH2 0x1A01 DUP3 PUSH2 0x152D JUMP JUMPDEST SWAP2 POP PUSH2 0x1A0C DUP4 PUSH2 0x152D JUMP JUMPDEST SWAP3 POP DUP3 PUSH2 0x1A1C JUMPI PUSH2 0x1A1B PUSH2 0x19C7 JUMP JUMPDEST JUMPDEST DUP3 DUP3 MOD SWAP1 POP SWAP3 SWAP2 POP POP JUMP JUMPDEST PUSH32 0x4E487B7100000000000000000000000000000000000000000000000000000000 PUSH1 0x0 MSTORE PUSH1 0x32 PUSH1 0x4 MSTORE PUSH1 0x24 PUSH1 0x0 REVERT JUMPDEST PUSH1 0x0 PUSH2 0x1A61 DUP3 PUSH2 0x152D JUMP JUMPDEST SWAP2 POP PUSH2 0x1A6C DUP4 PUSH2 0x152D JUMP JUMPDEST SWAP3 POP DUP3 DUP3 MUL PUSH2 0x1A7A DUP2 PUSH2 0x152D JUMP JUMPDEST SWAP2 POP DUP3 DUP3 DIV DUP5 EQ DUP4 ISZERO OR PUSH2 0x1A91 JUMPI PUSH2 0x1A90 PUSH2 0x18EC JUMP JUMPDEST JUMPDEST POP SWAP3 SWAP2 POP POP JUMP JUMPDEST PUSH1 0x0 PUSH2 0x1AA3 DUP3 PUSH2 0x152D JUMP JUMPDEST SWAP2 POP PUSH2 0x1AAE DUP4 PUSH2 0x152D JUMP JUMPDEST SWAP3 POP DUP3 DUP3 ADD SWAP1 POP DUP1 DUP3 GT ISZERO PUSH2 0x1AC6 JUMPI PUSH2 0x1AC5 PUSH2 0x18EC JUMP JUMPDEST JUMPDEST SWAP3 SWAP2 POP POP JUMP JUMPDEST PUSH32 0x43616C6C6572206973206E6F7420612077696E6E657200000000000000000000 PUSH1 0x0 DUP3 ADD MSTORE POP JUMP JUMPDEST PUSH1 0x0 PUSH2 0x1B02 PUSH1 0x16 DUP4 PUSH2 0x17DD JUMP JUMPDEST SWAP2 POP PUSH2 0x1B0D DUP3 PUSH2 0x1ACC JUMP JUMPDEST PUSH1 0x20 DUP3 ADD SWAP1 POP SWAP2 SWAP1 POP JUMP JUMPDEST PUSH1 0x0 PUSH1 0x20 DUP3 ADD SWAP1 POP DUP2 DUP2 SUB PUSH1 0x0 DUP4 ADD MSTORE PUSH2 0x1B31 DUP2 PUSH2 0x1AF5 JUMP JUMPDEST SWAP1 POP SWAP2 SWAP1 POP JUMP JUMPDEST PUSH32 0x7468652076616C7565206D757374206265206D756C7469706C65206F66200000 DUP2 MSTORE POP JUMP JUMPDEST PUSH1 0x0 DUP2 MLOAD SWAP1 POP SWAP2 SWAP1 POP JUMP JUMPDEST PUSH1 0x0 DUP2 SWAP1 POP SWAP3 SWAP2 POP POP JUMP JUMPDEST PUSH1 0x0 JUMPDEST DUP4 DUP2 LT ISZERO PUSH2 0x1B92 JUMPI DUP1 DUP3 ADD MLOAD DUP2 DUP5 ADD MSTORE PUSH1 0x20 DUP2 ADD SWAP1 POP PUSH2 0x1B77 JUMP JUMPDEST PUSH1 0x0 DUP5 DUP5 ADD MSTORE POP POP POP POP JUMP JUMPDEST PUSH1 0x0 PUSH2 0x1BA9 DUP3 PUSH2 0x1B5E JUMP JUMPDEST PUSH2 0x1BB3 DUP2 DUP6 PUSH2 0x1B69 JUMP JUMPDEST SWAP4 POP PUSH2 0x1BC3 DUP2 DUP6 PUSH1 0x20 DUP7 ADD PUSH2 0x1B74 JUMP JUMPDEST DUP1 DUP5 ADD SWAP2 POP POP SWAP3 SWAP2 POP POP JUMP JUMPDEST PUSH32 0x2045746865720000000000000000000000000000000000000000000000000000 DUP2 MSTORE POP JUMP JUMPDEST PUSH1 0x0 PUSH2 0x1C00 DUP3 PUSH2 0x1B38 JUMP JUMPDEST PUSH1 0x1E DUP3 ADD SWAP2 POP PUSH2 0x1C10 DUP3 DUP5 PUSH2 0x1B9E JUMP JUMPDEST SWAP2 POP PUSH2 0x1C1B DUP3 PUSH2 0x1BCF JUMP JUMPDEST PUSH1 0x6 DUP3 ADD SWAP2 POP DUP2 SWAP1 POP SWAP3 SWAP2 POP POP JUMP JUMPDEST PUSH1 0x0 PUSH1 0x1F NOT PUSH1 0x1F DUP4 ADD AND SWAP1 POP SWAP2 SWAP1 POP JUMP JUMPDEST PUSH1 0x0 PUSH2 0x1C46 DUP3 PUSH2 0x1B5E JUMP JUMPDEST PUSH2 0x1C50 DUP2 DUP6 PUSH2 0x17DD JUMP JUMPDEST SWAP4 POP PUSH2 0x1C60 DUP2 DUP6 PUSH1 0x20 DUP7 ADD PUSH2 0x1B74 JUMP JUMPDEST PUSH2 0x1C69 DUP2 PUSH2 0x1C2A JUMP JUMPDEST DUP5 ADD SWAP2 POP POP SWAP3 SWAP2 POP POP JUMP JUMPDEST PUSH1 0x0 PUSH1 0x20 DUP3 ADD SWAP1 POP DUP2 DUP2 SUB PUSH1 0x0 DUP4 ADD MSTORE PUSH2 0x1C8E DUP2 DUP5 PUSH2 0x1C3B JUMP JUMPDEST SWAP1 POP SWAP3 SWAP2 POP POP JUMP JUMPDEST PUSH1 0x0 PUSH2 0x1CA1 DUP3 PUSH2 0x152D JUMP JUMPDEST SWAP2 POP PUSH2 0x1CAC DUP4 PUSH2 0x152D JUMP JUMPDEST SWAP3 POP DUP3 PUSH2 0x1CBC JUMPI PUSH2 0x1CBB PUSH2 0x19C7 JUMP JUMPDEST JUMPDEST DUP3 DUP3 DIV SWAP1 POP SWAP3 SWAP2 POP POP JUMP JUMPDEST PUSH32 0x4E6F7420656E6F756768207469636B65747320617661696C61626C652E000000 PUSH1 0x0 DUP3 ADD MSTORE POP JUMP JUMPDEST PUSH1 0x0 PUSH2 0x1CFD PUSH1 0x1D DUP4 PUSH2 0x17DD JUMP JUMPDEST SWAP2 POP PUSH2 0x1D08 DUP3 PUSH2 0x1CC7 JUMP JUMPDEST PUSH1 0x20 DUP3 ADD SWAP1 POP SWAP2 SWAP1 POP JUMP JUMPDEST PUSH1 0x0 PUSH1 0x20 DUP3 ADD SWAP1 POP DUP2 DUP2 SUB PUSH1 0x0 DUP4 ADD MSTORE PUSH2 0x1D2C DUP2 PUSH2 0x1CF0 JUMP JUMPDEST SWAP1 POP SWAP2 SWAP1 POP JUMP JUMPDEST PUSH32 0x4D6178207469636B657473207065722061646472657373206578636565646564 PUSH1 0x0 DUP3 ADD MSTORE PUSH32 0x2E00000000000000000000000000000000000000000000000000000000000000 PUSH1 0x20 DUP3 ADD MSTORE POP JUMP JUMPDEST PUSH1 0x0 PUSH2 0x1D8F PUSH1 0x21 DUP4 PUSH2 0x17DD JUMP JUMPDEST SWAP2 POP PUSH2 0x1D9A DUP3 PUSH2 0x1D33 JUMP JUMPDEST PUSH1 0x40 DUP3 ADD SWAP1 POP SWAP2 SWAP1 POP JUMP JUMPDEST PUSH1 0x0 PUSH1 0x20 DUP3 ADD SWAP1 POP DUP2 DUP2 SUB PUSH1 0x0 DUP4 ADD MSTORE PUSH2 0x1DBE DUP2 PUSH2 0x1D82 JUMP JUMPDEST SWAP1 POP SWAP2 SWAP1 POP JUMP JUMPDEST PUSH1 0x0 PUSH2 0x1DD0 DUP3 PUSH2 0x152D JUMP JUMPDEST SWAP2 POP PUSH32 0xFFFFFFFFFFFFFFFFFFFFFFFFFFFFFFFFFFFFFFFFFFFFFFFFFFFFFFFFFFFFFFFF DUP3 SUB PUSH2 0x1E02 JUMPI PUSH2 0x1E01 PUSH2 0x18EC JUMP JUMPDEST JUMPDEST PUSH1 0x1 DUP3 ADD SWAP1 POP SWAP2 SWAP1 POP JUMP JUMPDEST PUSH32 0x746865206C6F7474657279206E6F742065787069726564207965740000000000 PUSH1 0x0 DUP3 ADD MSTORE POP JUMP JUMPDEST PUSH1 0x0 PUSH2 0x1E43 PUSH1 0x1B DUP4 PUSH2 0x17DD JUMP JUMPDEST SWAP2 POP PUSH2 0x1E4E DUP3 PUSH2 0x1E0D JUMP JUMPDEST PUSH1 0x20 DUP3 ADD SWAP1 POP SWAP2 SWAP1 POP JUMP JUMPDEST PUSH1 0x0 PUSH1 0x20 DUP3 ADD SWAP1 POP DUP2 DUP2 SUB PUSH1 0x0 DUP4 ADD MSTORE PUSH2 0x1E72 DUP2 PUSH2 0x1E36 JUMP JUMPDEST SWAP1 POP SWAP2 SWAP1 POP JUMP JUMPDEST PUSH32 0x43616E6E6F742052657374617274204472617720617320447261772069732069 PUSH1 0x0 DUP3 ADD MSTORE PUSH32 0x6E20706C61790000000000000000000000000000000000000000000000000000 PUSH1 0x20 DUP3 ADD MSTORE POP JUMP JUMPDEST PUSH1 0x0 PUSH2 0x1ED5 PUSH1 0x26 DUP4 PUSH2 0x17DD JUMP JUMPDEST SWAP2 POP PUSH2 0x1EE0 DUP3 PUSH2 0x1E79 JUMP JUMPDEST PUSH1 0x40 DUP3 ADD SWAP1 POP SWAP2 SWAP1 POP JUMP JUMPDEST PUSH1 0x0 PUSH1 0x20 DUP3 ADD SWAP1 POP DUP2 DUP2 SUB PUSH1 0x0 DUP4 ADD MSTORE PUSH2 0x1F04 DUP2 PUSH2 0x1EC8 JUMP JUMPDEST SWAP1 POP SWAP2 SWAP1 POP JUMP JUMPDEST PUSH32 0x4E487B7100000000000000000000000000000000000000000000000000000000 PUSH1 0x0 MSTORE PUSH1 0x41 PUSH1 0x4 MSTORE PUSH1 0x24 PUSH1 0x0 REVERT INVALID LOG2 PUSH5 0x6970667358 0x22 SLT KECCAK256 0xC5 0xD3 DELEGATECALL OR 0xC0 NUMBER SWAP8 0xCA 0xF 0xD4 PUSH13 0x449F3A733064A16019DB06F4BA 0x49 0xD2 SWAP6 SWAP13 0x5D ADD SWAP1 EXTCODEHASH PUSH5 0x736F6C6343 STOP ADDMOD SLT STOP CALLER "
				},
				"gasEstimates": {
					"creation": {
						"codeDepositCost": "1609600",
						"executionCost": "infinite",
						"totalCost": "infinite"
					},
					"external": {
						"BuyTickets()": "infinite",
						"CurrentWinningReward()": "infinite",
						"DrawWinnerTicket()": "infinite",
						"IsWinner()": "2605",
						"RefundAll()": "infinite",
						"RemainingTickets()": "infinite",
						"WithdrawCommission()": "infinite",
						"WithdrawWinnings()": "infinite",
						"checkWinningsAmount()": "2598",
						"expiration()": "2563",
						"getTickets()": "infinite",
						"getWinningsForAddress(address)": "2885",
						"lastWinner()": "2624",
						"lastWinnerAmount()": "2453",
						"lotteryOperator()": "2603",
						"maxTickets()": "2562",
						"maxTicketsPerAddress()": "2541",
						"operatorTotalCommission()": "2496",
						"restartDraw()": "infinite",
						"setMaxTicketsPerAddress(uint256)": "24779",
						"ticketCommission()": "2540",
						"ticketPrice()": "2497",
						"tickets(uint256)": "5023",
						"updateLotteryParams(uint256,uint256,uint256)": "infinite",
						"winnings(address)": "2880"
					},
					"internal": {
						"getNumTicketsPerAddress(address)": "infinite"
					}
				},
				"methodIdentifiers": {
					"BuyTickets()": "91d8b14e",
					"CurrentWinningReward()": "c6944fa0",
					"DrawWinnerTicket()": "4788af7c",
					"IsWinner()": "96c85ef3",
					"RefundAll()": "a88f4672",
					"RemainingTickets()": "93a563b5",
					"WithdrawCommission()": "35580df2",
					"WithdrawWinnings()": "71827b7b",
					"checkWinningsAmount()": "0789c607",
					"expiration()": "4665096d",
					"getTickets()": "4ed02622",
					"getWinningsForAddress(address)": "dd64e534",
					"lastWinner()": "fe188184",
					"lastWinnerAmount()": "06f7f3bf",
					"lotteryOperator()": "5a58acdd",
					"maxTickets()": "9b894703",
					"maxTicketsPerAddress()": "463a94a5",
					"operatorTotalCommission()": "ba946d79",
					"restartDraw()": "f2613269",
					"setMaxTicketsPerAddress(uint256)": "9802cf2f",
					"ticketCommission()": "6032a4f9",
					"ticketPrice()": "1209b1f6",
					"tickets(uint256)": "50b44712",
					"updateLotteryParams(uint256,uint256,uint256)": "9b478ab0",
					"winnings(address)": "ea3a1499"
				}
			},
			"storageLayout": {
				"storage": [
					{
						"astId": 1205,
						"contract": "contracts/anntdraw.sol:Lottery",
						"label": "ticketPrice",
						"offset": 0,
						"slot": "0",
						"type": "t_uint256"
					},
					{
						"astId": 1208,
						"contract": "contracts/anntdraw.sol:Lottery",
						"label": "maxTickets",
						"offset": 0,
						"slot": "1",
						"type": "t_uint256"
					},
					{
						"astId": 1211,
						"contract": "contracts/anntdraw.sol:Lottery",
						"label": "ticketCommission",
						"offset": 0,
						"slot": "2",
						"type": "t_uint256"
					},
					{
						"astId": 1214,
						"contract": "contracts/anntdraw.sol:Lottery",
						"label": "duration",
						"offset": 0,
						"slot": "3",
						"type": "t_uint256"
					},
					{
						"astId": 1217,
						"contract": "contracts/anntdraw.sol:Lottery",
						"label": "maxTicketsPerAddress",
						"offset": 0,
						"slot": "4",
						"type": "t_uint256"
					},
					{
						"astId": 1219,
						"contract": "contracts/anntdraw.sol:Lottery",
						"label": "expiration",
						"offset": 0,
						"slot": "5",
						"type": "t_uint256"
					},
					{
						"astId": 1221,
						"contract": "contracts/anntdraw.sol:Lottery",
						"label": "lotteryOperator",
						"offset": 0,
						"slot": "6",
						"type": "t_address"
					},
					{
						"astId": 1224,
						"contract": "contracts/anntdraw.sol:Lottery",
						"label": "operatorTotalCommission",
						"offset": 0,
						"slot": "7",
						"type": "t_uint256"
					},
					{
						"astId": 1226,
						"contract": "contracts/anntdraw.sol:Lottery",
						"label": "lastWinner",
						"offset": 0,
						"slot": "8",
						"type": "t_address"
					},
					{
						"astId": 1228,
						"contract": "contracts/anntdraw.sol:Lottery",
						"label": "lastWinnerAmount",
						"offset": 0,
						"slot": "9",
						"type": "t_uint256"
					},
					{
						"astId": 1232,
						"contract": "contracts/anntdraw.sol:Lottery",
						"label": "winnings",
						"offset": 0,
						"slot": "10",
						"type": "t_mapping(t_address,t_uint256)"
					},
					{
						"astId": 1235,
						"contract": "contracts/anntdraw.sol:Lottery",
						"label": "tickets",
						"offset": 0,
						"slot": "11",
						"type": "t_array(t_address)dyn_storage"
					}
				],
				"types": {
					"t_address": {
						"encoding": "inplace",
						"label": "address",
						"numberOfBytes": "20"
					},
					"t_array(t_address)dyn_storage": {
						"base": "t_address",
						"encoding": "dynamic_array",
						"label": "address[]",
						"numberOfBytes": "32"
					},
					"t_mapping(t_address,t_uint256)": {
						"encoding": "mapping",
						"key": "t_address",
						"label": "mapping(address => uint256)",
						"numberOfBytes": "32",
						"value": "t_uint256"
					},
					"t_uint256": {
						"encoding": "inplace",
						"label": "uint256",
						"numberOfBytes": "32"
					}
				}
			},
			"userdoc": {
				"kind": "user",
				"methods": {},
				"version": 1
			}
		}
	}
}