{
	"contracts/votingsystem.sol": {
		"voting_system": {
			"abi": [
				{
					"inputs": [],
					"stateMutability": "nonpayable",
					"type": "constructor"
				},
				{
					"inputs": [
						{
							"internalType": "string",
							"name": "_candidate",
							"type": "string"
						}
					],
					"name": "Vote",
					"outputs": [],
					"stateMutability": "nonpayable",
					"type": "function"
				},
				{
					"inputs": [],
					"name": "Winner",
					"outputs": [
						{
							"internalType": "string",
							"name": "",
							"type": "string"
						}
					],
					"stateMutability": "view",
					"type": "function"
				},
				{
					"inputs": [
						{
							"internalType": "string",
							"name": "_candidateName",
							"type": "string"
						},
						{
							"internalType": "uint256",
							"name": "_candidateAge",
							"type": "uint256"
						},
						{
							"internalType": "string",
							"name": "_candidateId",
							"type": "string"
						}
					],
					"name": "candidateRegistration",
					"outputs": [],
					"stateMutability": "nonpayable",
					"type": "function"
				},
				{
					"inputs": [],
					"name": "seeCandidates",
					"outputs": [
						{
							"internalType": "string[]",
							"name": "",
							"type": "string[]"
						}
					],
					"stateMutability": "view",
					"type": "function"
				},
				{
					"inputs": [],
					"name": "seeResults",
					"outputs": [
						{
							"internalType": "string",
							"name": "",
							"type": "string"
						}
					],
					"stateMutability": "view",
					"type": "function"
				},
				{
					"inputs": [
						{
							"internalType": "string",
							"name": "_candidate",
							"type": "string"
						}
					],
					"name": "seeVotes",
					"outputs": [
						{
							"internalType": "uint256",
							"name": "",
							"type": "uint256"
						}
					],
					"stateMutability": "view",
					"type": "function"
				}
			],
			"devdoc": {
				"kind": "dev",
				"methods": {
					"Vote(string)": {
						"details": "This function is so that people can vote for a candidate For this function to make sense we must: 1. Calculate the hash of the address of the person who executes this function. 2. We check if the voter has already voted. 3. We store the hash of the voter inside the voters array in case they didn't vote. ´´string [] voters´´ 4. We verify that the candidate is on the list of candidates 5. 4. Finally we add a vote to the selected candidate."
					},
					"candidateRegistration(string,uint256,string)": {
						"details": "This function is to register as a candidate for the elections It is public for anyone to register For this function to make sense we must:: 1. Create the hash of the candidate data. 2. We store the hash of the candidate's data linked to their name. 3. We store the name of the candidate in the dynamic array candidates."
					},
					"seeCandidates()": {
						"details": "This function is to see all the candidates registered For this function to make sense we must: 1. We must to return the dynamic array where the candidates are storaged.  string [] candidates;"
					},
					"seeVotes(string)": {
						"details": "This function return the name of a candidate, it returns the number of votes he has. For this function to make sense we must: 1. With the mapping candidate votes we can access the votes that the candidate has."
					}
				},
				"version": 1
			},
			"evm": {
				"assembly": "    /* \"contracts/votingsystem.sol\":415:6807  contract voting_system {\r... */\n  mstore(0x40, 0x80)\n    /* \"contracts/votingsystem.sol\":597:684  constructor() public {\r... */\n  callvalue\n  dup1\n  iszero\n  tag_1\n  jumpi\n  0x00\n  dup1\n  revert\ntag_1:\n  pop\n    /* \"contracts/votingsystem.sol\":629:634  owner */\n  0x00\n    /* \"contracts/votingsystem.sol\":629:647  owner = msg.sender */\n  dup1\n  sload\n  not(sub(shl(0xa0, 0x01), 0x01))\n  and\n    /* \"contracts/votingsystem.sol\":637:647  msg.sender */\n  caller\n    /* \"contracts/votingsystem.sol\":629:647  owner = msg.sender */\n  or\n  swap1\n  sstore\n    /* \"contracts/votingsystem.sol\":673:676  now */\n  timestamp\n    /* \"contracts/votingsystem.sol\":629:647  owner = msg.sender */\n  0x01\n    /* \"contracts/votingsystem.sol\":658:676  start_voting = now */\n  sstore\n    /* \"contracts/votingsystem.sol\":415:6807  contract voting_system {\r... */\n  dataSize(sub_0)\n  dup1\n  dataOffset(sub_0)\n  0x00\n  codecopy\n  0x00\n  return\nstop\n\nsub_0: assembly {\n        /* \"contracts/votingsystem.sol\":415:6807  contract voting_system {\r... */\n      mstore(0x40, 0x80)\n      callvalue\n      dup1\n      iszero\n      tag_1\n      jumpi\n      0x00\n      dup1\n      revert\n    tag_1:\n      pop\n      jumpi(tag_2, lt(calldatasize, 0x04))\n      shr(0xe0, calldataload(0x00))\n      dup1\n      0x032a08d9\n      eq\n      tag_3\n      jumpi\n      dup1\n      0x323082d7\n      eq\n      tag_4\n      jumpi\n      dup1\n      0x33bbc887\n      eq\n      tag_5\n      jumpi\n      dup1\n      0xb2b98ed2\n      eq\n      tag_6\n      jumpi\n      dup1\n      0xbc9cd2ce\n      eq\n      tag_7\n      jumpi\n      dup1\n      0xc03cd5d1\n      eq\n      tag_8\n      jumpi\n    tag_2:\n      0x00\n      dup1\n      revert\n        /* \"contracts/votingsystem.sol\":4299:4422  function seeVotes(string memory _candidate) public view returns(uint) {\r... */\n    tag_3:\n      tag_9\n      tag_10\n      calldatasize\n      0x04\n      tag_11\n      jump\t// in\n    tag_10:\n      tag_12\n      jump\t// in\n    tag_9:\n      mload(0x40)\n      tag_13\n      swap2\n      swap1\n      tag_14\n      jump\t// in\n    tag_13:\n      mload(0x40)\n      dup1\n      swap2\n      sub\n      swap1\n      return\n        /* \"contracts/votingsystem.sol\":2859:4031  function Vote(string memory _candidate) public {\r... */\n    tag_4:\n      tag_15\n      tag_16\n      calldatasize\n      0x04\n      tag_11\n      jump\t// in\n    tag_16:\n      tag_17\n      jump\t// in\n    tag_15:\n      stop\n        /* \"contracts/votingsystem.sol\":1493:1968  function candidateRegistration(string memory _candidateName, uint _candidateAge, string memory _candidateId) public {\r... */\n    tag_5:\n      tag_15\n      tag_19\n      calldatasize\n      0x04\n      tag_20\n      jump\t// in\n    tag_19:\n      tag_21\n      jump\t// in\n        /* \"contracts/votingsystem.sol\":5773:6802  function Winner() public view returns(string memory){\r... */\n    tag_6:\n      tag_22\n      tag_23\n      jump\t// in\n    tag_22:\n      mload(0x40)\n      tag_13\n      swap2\n      swap1\n      tag_25\n      jump\t// in\n        /* \"contracts/votingsystem.sol\":5026:5715  function seeResults() public view returns(string memory){\r... */\n    tag_7:\n      tag_22\n      tag_27\n      jump\t// in\n        /* \"contracts/votingsystem.sol\":2225:2323  function seeCandidates() public view returns(string[] memory) {\r... */\n    tag_8:\n      tag_29\n      tag_30\n      jump\t// in\n    tag_29:\n      mload(0x40)\n      tag_13\n      swap2\n      swap1\n      tag_32\n      jump\t// in\n        /* \"contracts/votingsystem.sol\":4299:4422  function seeVotes(string memory _candidate) public view returns(uint) {\r... */\n    tag_12:\n        /* \"contracts/votingsystem.sol\":4363:4367  uint */\n      0x00\n        /* \"contracts/votingsystem.sol\":4387:4402  candidate_votes */\n      0x03\n        /* \"contracts/votingsystem.sol\":4403:4413  _candidate */\n      dup3\n        /* \"contracts/votingsystem.sol\":4387:4414  candidate_votes[_candidate] */\n      mload(0x40)\n      tag_34\n      swap2\n      swap1\n      tag_35\n      jump\t// in\n    tag_34:\n      swap1\n      dup2\n      mstore\n      0x20\n      add\n      mload(0x40)\n      dup1\n      swap2\n      sub\n      swap1\n      keccak256\n      sload\n        /* \"contracts/votingsystem.sol\":4380:4414  return candidate_votes[_candidate] */\n      swap1\n      pop\n        /* \"contracts/votingsystem.sol\":4299:4422  function seeVotes(string memory _candidate) public view returns(uint) {\r... */\n    tag_33:\n      swap2\n      swap1\n      pop\n      jump\t// out\n        /* \"contracts/votingsystem.sol\":2859:4031  function Vote(string memory _candidate) public {\r... */\n    tag_17:\n        /* \"contracts/votingsystem.sol\":2984:2996  start_voting */\n      sload(0x01)\n        /* \"contracts/votingsystem.sol\":2999:3008  5 minutes */\n      0x012c\n        /* \"contracts/votingsystem.sol\":2984:3008  start_voting + 5 minutes */\n      add\n        /* \"contracts/votingsystem.sol\":2979:2982  now */\n      timestamp\n        /* \"contracts/votingsystem.sol\":2979:3008  now<=start_voting + 5 minutes */\n      gt\n      iszero\n        /* \"contracts/votingsystem.sol\":2971:3031  require(now<=start_voting + 5 minutes, \"can no longer vote\") */\n      tag_37\n      jumpi\n      mload(0x40)\n      shl(0xe5, 0x461bcd)\n      dup2\n      mstore\n      0x04\n      add\n      tag_38\n      swap1\n      tag_39\n      jump\t// in\n    tag_38:\n      mload(0x40)\n      dup1\n      swap2\n      sub\n      swap1\n      revert\n    tag_37:\n        /* \"contracts/votingsystem.sol\":3052:3070  bytes32 voter_hash */\n      0x00\n        /* \"contracts/votingsystem.sol\":3100:3110  msg.sender */\n      caller\n        /* \"contracts/votingsystem.sol\":3083:3111  abi.encodePacked(msg.sender) */\n      add(0x20, mload(0x40))\n      tag_40\n      swap2\n      swap1\n      tag_41\n      jump\t// in\n    tag_40:\n      mload(0x40)\n      0x20\n      dup2\n      dup4\n      sub\n      sub\n      dup2\n      mstore\n      swap1\n      0x40\n      mstore\n        /* \"contracts/votingsystem.sol\":3073:3112  keccak256(abi.encodePacked(msg.sender)) */\n      dup1\n      mload\n      swap1\n      0x20\n      add\n      keccak256\n        /* \"contracts/votingsystem.sol\":3052:3112  bytes32 voter_hash = keccak256(abi.encodePacked(msg.sender)) */\n      swap1\n      pop\n        /* \"contracts/votingsystem.sol\":3129:3135  uint i */\n      0x00\n        /* \"contracts/votingsystem.sol\":3125:3245  for(uint i = 0; i < voters.length; i++){\r... */\n    tag_42:\n        /* \"contracts/votingsystem.sol\":3145:3151  voters */\n      0x05\n        /* \"contracts/votingsystem.sol\":3145:3158  voters.length */\n      sload\n        /* \"contracts/votingsystem.sol\":3141:3158  i < voters.length */\n      dup2\n      lt\n        /* \"contracts/votingsystem.sol\":3125:3245  for(uint i = 0; i < voters.length; i++){\r... */\n      iszero\n      tag_43\n      jumpi\n        /* \"contracts/votingsystem.sol\":3200:3210  voter_hash */\n      dup2\n        /* \"contracts/votingsystem.sol\":3187:3193  voters */\n      0x05\n        /* \"contracts/votingsystem.sol\":3194:3195  i */\n      dup3\n        /* \"contracts/votingsystem.sol\":3187:3196  voters[i] */\n      dup2\n      sload\n      dup2\n      lt\n      tag_45\n      jumpi\n      invalid\n    tag_45:\n      swap1\n      0x00\n      mstore\n      keccak256(0x00, 0x20)\n      add\n      sload\n        /* \"contracts/votingsystem.sol\":3187:3210  voters[i] != voter_hash */\n      eq\n      iszero\n        /* \"contracts/votingsystem.sol\":3179:3233  require(voters[i] != voter_hash, \"You already voted!\") */\n      tag_47\n      jumpi\n      mload(0x40)\n      shl(0xe5, 0x461bcd)\n      dup2\n      mstore\n      0x04\n      add\n      tag_38\n      swap1\n      tag_49\n      jump\t// in\n    tag_47:\n        /* \"contracts/votingsystem.sol\":3160:3163  i++ */\n      0x01\n      add\n        /* \"contracts/votingsystem.sol\":3125:3245  for(uint i = 0; i < voters.length; i++){\r... */\n      jump(tag_42)\n    tag_43:\n      pop\n        /* \"contracts/votingsystem.sol\":3257:3263  voters */\n      0x05\n        /* \"contracts/votingsystem.sol\":3257:3280  voters.push(voter_hash) */\n      dup1\n      sload\n      0x01\n      dup2\n      add\n      dup3\n      sstore\n      0x00\n      swap2\n      dup3\n      mstore\n      0x036b6384b5eca791c62761152d0c79bb0604c104a5fb6f4eb0703f3154bb3db0\n      add\n      dup3\n      swap1\n      sstore\n      dup1\n        /* \"contracts/votingsystem.sol\":3413:3773  for(uint j = 0; j < candidates.length; j++){\r... */\n    tag_51:\n        /* \"contracts/votingsystem.sol\":3433:3443  candidates */\n      0x04\n        /* \"contracts/votingsystem.sol\":3433:3450  candidates.length */\n      sload\n        /* \"contracts/votingsystem.sol\":3429:3450  j < candidates.length */\n      dup2\n      lt\n        /* \"contracts/votingsystem.sol\":3413:3773  for(uint j = 0; j < candidates.length; j++){\r... */\n      iszero\n      tag_52\n      jumpi\n        /* \"contracts/votingsystem.sol\":3645:3655  _candidate */\n      dup4\n        /* \"contracts/votingsystem.sol\":3628:3656  abi.encodePacked(_candidate) */\n      add(0x20, mload(0x40))\n      tag_54\n      swap2\n      swap1\n      tag_35\n      jump\t// in\n    tag_54:\n      mload(0x40)\n      0x20\n      dup2\n      dup4\n      sub\n      sub\n      dup2\n      mstore\n      swap1\n      0x40\n      mstore\n        /* \"contracts/votingsystem.sol\":3618:3657  keccak256(abi.encodePacked(_candidate)) */\n      dup1\n      mload\n      swap1\n      0x20\n      add\n      keccak256\n        /* \"contracts/votingsystem.sol\":3599:3609  candidates */\n      0x04\n        /* \"contracts/votingsystem.sol\":3610:3611  j */\n      dup3\n        /* \"contracts/votingsystem.sol\":3599:3612  candidates[j] */\n      dup2\n      sload\n      dup2\n      lt\n      tag_55\n      jumpi\n      invalid\n    tag_55:\n      swap1\n      0x00\n      mstore\n      keccak256(0x00, 0x20)\n      add\n        /* \"contracts/votingsystem.sol\":3582:3613  abi.encodePacked(candidates[j]) */\n      add(0x20, mload(0x40))\n      tag_57\n      swap2\n      swap1\n      tag_58\n      jump\t// in\n    tag_57:\n      mload(0x40)\n      0x20\n      dup2\n      dup4\n      sub\n      sub\n      dup2\n      mstore\n      swap1\n      0x40\n      mstore\n        /* \"contracts/votingsystem.sol\":3572:3614  keccak256(abi.encodePacked(candidates[j])) */\n      dup1\n      mload\n      swap1\n      0x20\n      add\n      keccak256\n        /* \"contracts/votingsystem.sol\":3572:3657  keccak256(abi.encodePacked(candidates[j])) == keccak256(abi.encodePacked(_candidate)) */\n      eq\n        /* \"contracts/votingsystem.sol\":3569:3762  if(keccak256(abi.encodePacked(candidates[j])) == keccak256(abi.encodePacked(_candidate))){\r... */\n      iszero\n      tag_59\n      jumpi\n        /* \"contracts/votingsystem.sol\":3742:3746  true */\n      0x01\n        /* \"contracts/votingsystem.sol\":3737:3746  flag=true */\n      swap2\n      pop\n        /* \"contracts/votingsystem.sol\":3569:3762  if(keccak256(abi.encodePacked(candidates[j])) == keccak256(abi.encodePacked(_candidate))){\r... */\n    tag_59:\n        /* \"contracts/votingsystem.sol\":3452:3455  j++ */\n      0x01\n      add\n        /* \"contracts/votingsystem.sol\":3413:3773  for(uint j = 0; j < candidates.length; j++){\r... */\n      jump(tag_51)\n    tag_52:\n      pop\n        /* \"contracts/votingsystem.sol\":3878:3882  true */\n      0x01\n        /* \"contracts/votingsystem.sol\":3872:3882  flag==true */\n      dup2\n      iszero\n      iszero\n      eq\n        /* \"contracts/votingsystem.sol\":3864:3925  require(flag==true, \"No hay ningun candidato con ese nombre\") */\n      tag_60\n      jumpi\n      mload(0x40)\n      shl(0xe5, 0x461bcd)\n      dup2\n      mstore\n      0x04\n      add\n      tag_38\n      swap1\n      tag_62\n      jump\t// in\n    tag_60:\n        /* \"contracts/votingsystem.sol\":3994:4009  candidate_votes */\n      0x03\n        /* \"contracts/votingsystem.sol\":4010:4020  _candidate */\n      dup4\n        /* \"contracts/votingsystem.sol\":3994:4021  candidate_votes[_candidate] */\n      mload(0x40)\n      tag_63\n      swap2\n      swap1\n      tag_35\n      jump\t// in\n    tag_63:\n      swap1\n      dup2\n      mstore\n      mload(0x40)\n      swap1\n      dup2\n      swap1\n      sub\n      0x20\n      add\n      swap1\n      keccak256\n        /* \"contracts/votingsystem.sol\":3994:4023  candidate_votes[_candidate]++ */\n      dup1\n      sload\n      0x01\n      add\n      swap1\n      sstore\n      pop\n      pop\n      pop\n        /* \"contracts/votingsystem.sol\":2859:4031  function Vote(string memory _candidate) public {\r... */\n      jump\t// out\n        /* \"contracts/votingsystem.sol\":1493:1968  function candidateRegistration(string memory _candidateName, uint _candidateAge, string memory _candidateId) public {\r... */\n    tag_21:\n        /* \"contracts/votingsystem.sol\":1677:1689  start_voting */\n      sload(0x01)\n        /* \"contracts/votingsystem.sol\":1692:1701  5 minutes */\n      0x012c\n        /* \"contracts/votingsystem.sol\":1677:1701  start_voting + 5 minutes */\n      add\n        /* \"contracts/votingsystem.sol\":1671:1674  now */\n      timestamp\n        /* \"contracts/votingsystem.sol\":1671:1702  now<=(start_voting + 5 minutes) */\n      gt\n      iszero\n        /* \"contracts/votingsystem.sol\":1663:1744  require(now<=(start_voting + 5 minutes), \"Candidates can no longer be submitted\") */\n      tag_65\n      jumpi\n      mload(0x40)\n      shl(0xe5, 0x461bcd)\n      dup2\n      mstore\n      0x04\n      add\n      tag_38\n      swap1\n      tag_67\n      jump\t// in\n    tag_65:\n        /* \"contracts/votingsystem.sol\":1755:1777  bytes32 candidate_hash */\n      0x00\n        /* \"contracts/votingsystem.sol\":1807:1821  _candidateName */\n      dup4\n        /* \"contracts/votingsystem.sol\":1823:1836  _candidateAge */\n      dup4\n        /* \"contracts/votingsystem.sol\":1838:1850  _candidateId */\n      dup4\n        /* \"contracts/votingsystem.sol\":1790:1851  abi.encodePacked(_candidateName, _candidateAge, _candidateId) */\n      add(0x20, mload(0x40))\n      tag_68\n      swap4\n      swap3\n      swap2\n      swap1\n      tag_69\n      jump\t// in\n    tag_68:\n      mload(0x40)\n      0x20\n      dup2\n      dup4\n      sub\n      sub\n      dup2\n      mstore\n      swap1\n      0x40\n      mstore\n        /* \"contracts/votingsystem.sol\":1780:1852  keccak256(abi.encodePacked(_candidateName, _candidateAge, _candidateId)) */\n      dup1\n      mload\n      swap1\n      0x20\n      add\n      keccak256\n        /* \"contracts/votingsystem.sol\":1755:1852  bytes32 candidate_hash = keccak256(abi.encodePacked(_candidateName, _candidateAge, _candidateId)) */\n      swap1\n      pop\n        /* \"contracts/votingsystem.sol\":1894:1908  candidate_hash */\n      dup1\n        /* \"contracts/votingsystem.sol\":1863:1875  candidate_ID */\n      0x02\n        /* \"contracts/votingsystem.sol\":1876:1890  _candidateName */\n      dup6\n        /* \"contracts/votingsystem.sol\":1863:1891  candidate_ID[_candidateName] */\n      mload(0x40)\n      tag_70\n      swap2\n      swap1\n      tag_35\n      jump\t// in\n    tag_70:\n      swap1\n      dup2\n      mstore\n      mload(0x40)\n      0x20\n      swap2\n      dup2\n      swap1\n      sub\n      dup3\n      add\n      swap1\n      keccak256\n        /* \"contracts/votingsystem.sol\":1863:1908  candidate_ID[_candidateName] = candidate_hash */\n      swap2\n      swap1\n      swap2\n      sstore\n        /* \"contracts/votingsystem.sol\":1919:1929  candidates */\n      0x04\n        /* \"contracts/votingsystem.sol\":1919:1950  candidates.push(_candidateName) */\n      dup1\n      sload\n      0x01\n      dup2\n      add\n      dup3\n      sstore\n      0x00\n      swap2\n      swap1\n      swap2\n      mstore\n      dup6\n      mload\n      tag_72\n      swap3\n      0x8a35acfbc15ff81a39ae7d344fd709f28e8600b4aa8c65c6b64bfe7fe36bd19b\n      swap1\n      swap3\n      add\n      swap2\n      dup8\n      add\n      swap1\n      tag_73\n      jump\t// in\n    tag_72:\n      pop\n        /* \"contracts/votingsystem.sol\":1493:1968  function candidateRegistration(string memory _candidateName, uint _candidateAge, string memory _candidateId) public {\r... */\n      pop\n      pop\n      pop\n      pop\n      jump\t// out\n        /* \"contracts/votingsystem.sol\":5773:6802  function Winner() public view returns(string memory){\r... */\n    tag_23:\n        /* \"contracts/votingsystem.sol\":5811:5824  string memory */\n      0x60\n        /* \"contracts/votingsystem.sol\":5903:5915  start_voting */\n      sload(0x01)\n        /* \"contracts/votingsystem.sol\":5918:5927  5 minutes */\n      0x012c\n        /* \"contracts/votingsystem.sol\":5903:5927  start_voting + 5 minutes */\n      add\n        /* \"contracts/votingsystem.sol\":5898:5901  now */\n      timestamp\n        /* \"contracts/votingsystem.sol\":5898:5928  now>(start_voting + 5 minutes) */\n      gt\n        /* \"contracts/votingsystem.sol\":5890:5956  require(now>(start_voting + 5 minutes), \"Voting is not over yet.\") */\n      tag_75\n      jumpi\n      mload(0x40)\n      shl(0xe5, 0x461bcd)\n      dup2\n      mstore\n      0x04\n      add\n      tag_38\n      swap1\n      tag_77\n      jump\t// in\n    tag_75:\n        /* \"contracts/votingsystem.sol\":6055:6075  string memory winner */\n      0x60\n        /* \"contracts/votingsystem.sol\":6077:6087  candidates */\n      0x04\n        /* \"contracts/votingsystem.sol\":6088:6089  0 */\n      0x00\n        /* \"contracts/votingsystem.sol\":6077:6090  candidates[0] */\n      dup2\n      sload\n      dup2\n      lt\n      tag_78\n      jumpi\n      invalid\n    tag_78:\n      0x00\n      swap2\n      dup3\n      mstore\n      0x20\n      swap2\n      dup3\n      swap1\n      keccak256\n      add\n        /* \"contracts/votingsystem.sol\":6055:6090  string memory winner= candidates[0] */\n      dup1\n      sload\n      0x40\n      dup1\n      mload\n      0x1f\n      0x02\n      not(0x00)\n      0x0100\n      0x01\n      dup8\n      and\n      iszero\n      mul\n      add\n      swap1\n      swap5\n      and\n      swap4\n      swap1\n      swap4\n      div\n      swap3\n      dup4\n      add\n      dup6\n      swap1\n      div\n      dup6\n      mul\n      dup2\n      add\n      dup6\n      add\n      swap1\n      swap2\n      mstore\n      dup2\n      dup2\n      mstore\n      swap3\n      dup4\n      add\n        /* \"contracts/votingsystem.sol\":6077:6090  candidates[0] */\n      dup3\n        /* \"contracts/votingsystem.sol\":6055:6090  string memory winner= candidates[0] */\n      dup3\n      dup1\n      iszero\n      tag_80\n      jumpi\n      dup1\n      0x1f\n      lt\n      tag_81\n      jumpi\n      0x0100\n      dup1\n      dup4\n      sload\n      div\n      mul\n      dup4\n      mstore\n      swap2\n      0x20\n      add\n      swap2\n      jump(tag_80)\n    tag_81:\n      dup3\n      add\n      swap2\n      swap1\n      0x00\n      mstore\n      keccak256(0x00, 0x20)\n      swap1\n    tag_82:\n      dup2\n      sload\n      dup2\n      mstore\n      swap1\n      0x01\n      add\n      swap1\n      0x20\n      add\n      dup1\n      dup4\n      gt\n      tag_82\n      jumpi\n      dup3\n      swap1\n      sub\n      0x1f\n      and\n      dup3\n      add\n      swap2\n    tag_80:\n      pop\n      pop\n      pop\n      pop\n      pop\n      swap1\n      pop\n        /* \"contracts/votingsystem.sol\":6130:6139  bool flag */\n      0x00\n        /* \"contracts/votingsystem.sol\":6272:6278  uint i */\n      dup1\n        /* \"contracts/votingsystem.sol\":6281:6282  1 */\n      0x01\n        /* \"contracts/votingsystem.sol\":6272:6282  uint i = 1 */\n      swap1\n      pop\n        /* \"contracts/votingsystem.sol\":6268:6647  for(uint i = 1; i <candidates.length; i++){\r... */\n    tag_83:\n        /* \"contracts/votingsystem.sol\":6287:6297  candidates */\n      0x04\n        /* \"contracts/votingsystem.sol\":6287:6304  candidates.length */\n      sload\n        /* \"contracts/votingsystem.sol\":6284:6304  i <candidates.length */\n      dup2\n      lt\n        /* \"contracts/votingsystem.sol\":6268:6647  for(uint i = 1; i <candidates.length; i++){\r... */\n      iszero\n      tag_84\n      jumpi\n        /* \"contracts/votingsystem.sol\":6368:6383  candidate_votes */\n      0x03\n        /* \"contracts/votingsystem.sol\":6384:6394  candidates */\n      0x04\n        /* \"contracts/votingsystem.sol\":6395:6396  i */\n      dup3\n        /* \"contracts/votingsystem.sol\":6384:6397  candidates[i] */\n      dup2\n      sload\n      dup2\n      lt\n      tag_86\n      jumpi\n      invalid\n    tag_86:\n      swap1\n      0x00\n      mstore\n      keccak256(0x00, 0x20)\n      add\n        /* \"contracts/votingsystem.sol\":6368:6398  candidate_votes[candidates[i]] */\n      mload(0x40)\n      tag_88\n      swap2\n      swap1\n      tag_58\n      jump\t// in\n    tag_88:\n      swap1\n      dup2\n      mstore\n      0x20\n      add\n      mload(0x40)\n      dup1\n      swap2\n      sub\n      swap1\n      keccak256\n      sload\n        /* \"contracts/votingsystem.sol\":6342:6357  candidate_votes */\n      0x03\n        /* \"contracts/votingsystem.sol\":6358:6364  winner */\n      dup5\n        /* \"contracts/votingsystem.sol\":6342:6365  candidate_votes[winner] */\n      mload(0x40)\n      tag_89\n      swap2\n      swap1\n      tag_35\n      jump\t// in\n    tag_89:\n      swap1\n      dup2\n      mstore\n      0x20\n      add\n      mload(0x40)\n      dup1\n      swap2\n      sub\n      swap1\n      keccak256\n      sload\n        /* \"contracts/votingsystem.sol\":6342:6398  candidate_votes[winner] < candidate_votes[candidates[i]] */\n      lt\n        /* \"contracts/votingsystem.sol\":6339:6636  if(candidate_votes[winner] < candidate_votes[candidates[i]]){\r... */\n      iszero\n      tag_90\n      jumpi\n        /* \"contracts/votingsystem.sol\":6427:6437  candidates */\n      0x04\n        /* \"contracts/votingsystem.sol\":6438:6439  i */\n      dup2\n        /* \"contracts/votingsystem.sol\":6427:6440  candidates[i] */\n      dup2\n      sload\n      dup2\n      lt\n      tag_91\n      jumpi\n      invalid\n    tag_91:\n      0x00\n      swap2\n      dup3\n      mstore\n      0x20\n      swap2\n      dup3\n      swap1\n      keccak256\n      add\n        /* \"contracts/votingsystem.sol\":6418:6440  winner = candidates[i] */\n      dup1\n      sload\n      0x40\n      dup1\n      mload\n      0x1f\n      0x02\n      not(0x00)\n      0x0100\n      0x01\n      dup8\n      and\n      iszero\n      mul\n      add\n      swap1\n      swap5\n      and\n      swap4\n      swap1\n      swap4\n      div\n      swap3\n      dup4\n      add\n      dup6\n      swap1\n      div\n      dup6\n      mul\n      dup2\n      add\n      dup6\n      add\n      swap1\n      swap2\n      mstore\n      dup2\n      dup2\n      mstore\n      swap3\n      dup4\n      add\n        /* \"contracts/votingsystem.sol\":6427:6440  candidates[i] */\n      dup3\n        /* \"contracts/votingsystem.sol\":6418:6440  winner = candidates[i] */\n      dup3\n      dup1\n      iszero\n      tag_93\n      jumpi\n      dup1\n      0x1f\n      lt\n      tag_94\n      jumpi\n      0x0100\n      dup1\n      dup4\n      sload\n      div\n      mul\n      dup4\n      mstore\n      swap2\n      0x20\n      add\n      swap2\n      jump(tag_93)\n    tag_94:\n      dup3\n      add\n      swap2\n      swap1\n      0x00\n      mstore\n      keccak256(0x00, 0x20)\n      swap1\n    tag_95:\n      dup2\n      sload\n      dup2\n      mstore\n      swap1\n      0x01\n      add\n      swap1\n      0x20\n      add\n      dup1\n      dup4\n      gt\n      tag_95\n      jumpi\n      dup3\n      swap1\n      sub\n      0x1f\n      and\n      dup3\n      add\n      swap2\n    tag_93:\n      pop\n      pop\n      pop\n      pop\n      pop\n      swap3\n      pop\n        /* \"contracts/votingsystem.sol\":6464:6469  false */\n      0x00\n        /* \"contracts/votingsystem.sol\":6459:6469  flag=false */\n      swap2\n      pop\n        /* \"contracts/votingsystem.sol\":6339:6636  if(candidate_votes[winner] < candidate_votes[candidates[i]]){\r... */\n      jump(tag_101)\n    tag_90:\n        /* \"contracts/votingsystem.sol\":6538:6553  candidate_votes */\n      0x03\n        /* \"contracts/votingsystem.sol\":6554:6564  candidates */\n      0x04\n        /* \"contracts/votingsystem.sol\":6565:6566  i */\n      dup3\n        /* \"contracts/votingsystem.sol\":6554:6567  candidates[i] */\n      dup2\n      sload\n      dup2\n      lt\n      tag_97\n      jumpi\n      invalid\n    tag_97:\n      swap1\n      0x00\n      mstore\n      keccak256(0x00, 0x20)\n      add\n        /* \"contracts/votingsystem.sol\":6538:6568  candidate_votes[candidates[i]] */\n      mload(0x40)\n      tag_99\n      swap2\n      swap1\n      tag_58\n      jump\t// in\n    tag_99:\n      swap1\n      dup2\n      mstore\n      0x20\n      add\n      mload(0x40)\n      dup1\n      swap2\n      sub\n      swap1\n      keccak256\n      sload\n        /* \"contracts/votingsystem.sol\":6511:6526  candidate_votes */\n      0x03\n        /* \"contracts/votingsystem.sol\":6527:6533  winner */\n      dup5\n        /* \"contracts/votingsystem.sol\":6511:6534  candidate_votes[winner] */\n      mload(0x40)\n      tag_100\n      swap2\n      swap1\n      tag_35\n      jump\t// in\n    tag_100:\n      swap1\n      dup2\n      mstore\n      0x20\n      add\n      mload(0x40)\n      dup1\n      swap2\n      sub\n      swap1\n      keccak256\n      sload\n        /* \"contracts/votingsystem.sol\":6511:6568  candidate_votes[winner] == candidate_votes[candidates[i]] */\n      eq\n        /* \"contracts/votingsystem.sol\":6508:6621  if(candidate_votes[winner] == candidate_votes[candidates[i]]){\r... */\n      iszero\n      tag_101\n      jumpi\n        /* \"contracts/votingsystem.sol\":6597:6601  true */\n      0x01\n        /* \"contracts/votingsystem.sol\":6592:6601  flag=true */\n      swap2\n      pop\n        /* \"contracts/votingsystem.sol\":6508:6621  if(candidate_votes[winner] == candidate_votes[candidates[i]]){\r... */\n    tag_101:\n        /* \"contracts/votingsystem.sol\":6306:6309  i++ */\n      0x01\n      add\n        /* \"contracts/votingsystem.sol\":6268:6647  for(uint i = 1; i <candidates.length; i++){\r... */\n      jump(tag_83)\n    tag_84:\n      pop\n        /* \"contracts/votingsystem.sol\":6676:6680  true */\n      0x01\n        /* \"contracts/votingsystem.sol\":6670:6680  flag==true */\n      dup2\n      iszero\n      iszero\n      eq\n        /* \"contracts/votingsystem.sol\":6667:6771  if(flag==true){\r... */\n      iszero\n      tag_102\n      jumpi\n        /* \"contracts/votingsystem.sol\":6696:6745  winner = \"There is a tie between the candidates!\" */\n      mload(0x40)\n      dup1\n      0x60\n      add\n      0x40\n      mstore\n      dup1\n      0x26\n      dup2\n      mstore\n      0x20\n      add\n      data_eee2584c38bccf16070da41b3608363c5998430631b4447f0b56c636fabe8d05\n      0x26\n      swap2\n      codecopy\n      swap2\n      pop\n        /* \"contracts/votingsystem.sol\":6667:6771  if(flag==true){\r... */\n    tag_102:\n      pop\n        /* \"contracts/votingsystem.sol\":6788:6794  winner */\n      swap1\n      pop\n        /* \"contracts/votingsystem.sol\":5773:6802  function Winner() public view returns(string memory){\r... */\n      swap1\n      jump\t// out\n        /* \"contracts/votingsystem.sol\":5026:5715  function seeResults() public view returns(string memory){\r... */\n    tag_27:\n        /* \"contracts/votingsystem.sol\":5068:5081  string memory */\n      0x60\n        /* \"contracts/votingsystem.sol\":5177:5198  string memory results */\n      dup1\n        /* \"contracts/votingsystem.sol\":5304:5310  uint i */\n      0x00\n        /* \"contracts/votingsystem.sol\":5300:5639  for(uint i = 0; i < candidates.length; i++){\r... */\n    tag_104:\n        /* \"contracts/votingsystem.sol\":5320:5330  candidates */\n      0x04\n        /* \"contracts/votingsystem.sol\":5320:5337  candidates.length */\n      sload\n        /* \"contracts/votingsystem.sol\":5316:5337  i < candidates.length */\n      dup2\n      lt\n        /* \"contracts/votingsystem.sol\":5300:5639  for(uint i = 0; i < candidates.length; i++){\r... */\n      iszero\n      tag_102\n      jumpi\n        /* \"contracts/votingsystem.sol\":5549:5556  results */\n      dup2\n        /* \"contracts/votingsystem.sol\":5563:5573  candidates */\n      0x04\n        /* \"contracts/votingsystem.sol\":5574:5575  i */\n      dup3\n        /* \"contracts/votingsystem.sol\":5563:5576  candidates[i] */\n      dup2\n      sload\n      dup2\n      lt\n      tag_107\n      jumpi\n      invalid\n    tag_107:\n      swap1\n      0x00\n      mstore\n      keccak256(0x00, 0x20)\n      add\n        /* \"contracts/votingsystem.sol\":5584:5617  uint2str(seeVotes(candidates[i])) */\n      tag_109\n        /* \"contracts/votingsystem.sol\":5593:5616  seeVotes(candidates[i]) */\n      tag_110\n        /* \"contracts/votingsystem.sol\":5602:5612  candidates */\n      0x04\n        /* \"contracts/votingsystem.sol\":5613:5614  i */\n      dup6\n        /* \"contracts/votingsystem.sol\":5602:5615  candidates[i] */\n      dup2\n      sload\n      dup2\n      lt\n      tag_111\n      jumpi\n      invalid\n    tag_111:\n      0x00\n      swap2\n      dup3\n      mstore\n      0x20\n      swap2\n      dup3\n      swap1\n      keccak256\n      add\n        /* \"contracts/votingsystem.sol\":5593:5616  seeVotes(candidates[i]) */\n      dup1\n      sload\n      0x40\n      dup1\n      mload\n      0x1f\n      0x02\n      not(0x00)\n      0x0100\n      0x01\n      dup8\n      and\n      iszero\n      mul\n      add\n      swap1\n      swap5\n      and\n      swap4\n      swap1\n      swap4\n      div\n      swap3\n      dup4\n      add\n      dup6\n      swap1\n      div\n      dup6\n      mul\n      dup2\n      add\n      dup6\n      add\n      swap1\n      swap2\n      mstore\n      dup2\n      dup2\n      mstore\n      swap3\n      dup4\n      add\n        /* \"contracts/votingsystem.sol\":5602:5615  candidates[i] */\n      dup3\n        /* \"contracts/votingsystem.sol\":5593:5616  seeVotes(candidates[i]) */\n      dup3\n      dup1\n      iszero\n      tag_113\n      jumpi\n      dup1\n      0x1f\n      lt\n      tag_114\n      jumpi\n      0x0100\n      dup1\n      dup4\n      sload\n      div\n      mul\n      dup4\n      mstore\n      swap2\n      0x20\n      add\n      swap2\n      jump(tag_113)\n    tag_114:\n      dup3\n      add\n      swap2\n      swap1\n      0x00\n      mstore\n      keccak256(0x00, 0x20)\n      swap1\n    tag_115:\n      dup2\n      sload\n      dup2\n      mstore\n      swap1\n      0x01\n      add\n      swap1\n      0x20\n      add\n      dup1\n      dup4\n      gt\n      tag_115\n      jumpi\n      dup3\n      swap1\n      sub\n      0x1f\n      and\n      dup3\n      add\n      swap2\n    tag_113:\n      pop\n      pop\n      pop\n      pop\n      pop\n        /* \"contracts/votingsystem.sol\":5593:5601  seeVotes */\n      tag_12\n        /* \"contracts/votingsystem.sol\":5593:5616  seeVotes(candidates[i]) */\n      jump\t// in\n    tag_110:\n        /* \"contracts/votingsystem.sol\":5584:5592  uint2str */\n      tag_116\n        /* \"contracts/votingsystem.sol\":5584:5617  uint2str(seeVotes(candidates[i])) */\n      jump\t// in\n    tag_109:\n        /* \"contracts/votingsystem.sol\":5532:5626  abi.encodePacked(results, \"(\", candidates[i], \", \", uint2str(seeVotes(candidates[i])), \")---\") */\n      add(0x20, mload(0x40))\n      tag_117\n      swap4\n      swap3\n      swap2\n      swap1\n      tag_118\n      jump\t// in\n    tag_117:\n      0x40\n      dup1\n      mload\n      not(0x1f)\n      dup2\n      dup5\n      sub\n      add\n      dup2\n      mstore\n      swap2\n      swap1\n      mstore\n      swap2\n      pop\n        /* \"contracts/votingsystem.sol\":5339:5342  i++ */\n      0x01\n      add\n        /* \"contracts/votingsystem.sol\":5300:5639  for(uint i = 0; i < candidates.length; i++){\r... */\n      jump(tag_104)\n        /* \"contracts/votingsystem.sol\":2225:2323  function seeCandidates() public view returns(string[] memory) {\r... */\n    tag_30:\n        /* \"contracts/votingsystem.sol\":2270:2285  string[] memory */\n      0x60\n        /* \"contracts/votingsystem.sol\":2305:2315  candidates */\n      0x04\n        /* \"contracts/votingsystem.sol\":2298:2315  return candidates */\n      dup1\n      sload\n      dup1\n      0x20\n      mul\n      0x20\n      add\n      mload(0x40)\n      swap1\n      dup2\n      add\n      0x40\n      mstore\n      dup1\n      swap3\n      swap2\n      swap1\n      dup2\n      dup2\n      mstore\n      0x20\n      add\n      0x00\n      swap1\n    tag_120:\n      dup3\n      dup3\n      lt\n      iszero\n      tag_121\n      jumpi\n      0x00\n      dup5\n      dup2\n      mstore\n      0x20\n      swap1\n      dup2\n      swap1\n      keccak256\n      dup4\n      add\n      dup1\n      sload\n      0x40\n      dup1\n      mload\n      0x1f\n      0x02\n      not(0x00)\n      0x0100\n      0x01\n      dup8\n      and\n      iszero\n      mul\n      add\n      swap1\n      swap5\n      and\n      swap4\n      swap1\n      swap4\n      div\n      swap3\n      dup4\n      add\n      dup6\n      swap1\n      div\n      dup6\n      mul\n      dup2\n      add\n      dup6\n      add\n      swap1\n      swap2\n      mstore\n      dup2\n      dup2\n      mstore\n      swap3\n      dup4\n      add\n      dup3\n      dup3\n      dup1\n      iszero\n      tag_123\n      jumpi\n      dup1\n      0x1f\n      lt\n      tag_124\n      jumpi\n      0x0100\n      dup1\n      dup4\n      sload\n      div\n      mul\n      dup4\n      mstore\n      swap2\n      0x20\n      add\n      swap2\n      jump(tag_123)\n    tag_124:\n      dup3\n      add\n      swap2\n      swap1\n      0x00\n      mstore\n      keccak256(0x00, 0x20)\n      swap1\n    tag_125:\n      dup2\n      sload\n      dup2\n      mstore\n      swap1\n      0x01\n      add\n      swap1\n      0x20\n      add\n      dup1\n      dup4\n      gt\n      tag_125\n      jumpi\n      dup3\n      swap1\n      sub\n      0x1f\n      and\n      dup3\n      add\n      swap2\n    tag_123:\n      pop\n      pop\n      pop\n      pop\n      pop\n      dup2\n      mstore\n      0x20\n      add\n      swap1\n      0x01\n      add\n      swap1\n      jump(tag_120)\n    tag_121:\n      pop\n      pop\n      pop\n      pop\n      swap1\n      pop\n        /* \"contracts/votingsystem.sol\":2225:2323  function seeCandidates() public view returns(string[] memory) {\r... */\n      swap1\n      jump\t// out\n        /* \"contracts/votingsystem.sol\":4488:4970  function uint2str(uint _i) internal pure returns (string memory _uintAsString) {\r... */\n    tag_116:\n        /* \"contracts/votingsystem.sol\":4538:4565  string memory _uintAsString */\n      0x60\n        /* \"contracts/votingsystem.sol\":4582:4589  _i == 0 */\n      dup2\n        /* \"contracts/votingsystem.sol\":4578:4628  if (_i == 0) {\r... */\n      tag_127\n      jumpi\n      pop\n        /* \"contracts/votingsystem.sol\":4606:4616  return \"0\" */\n      0x40\n      dup1\n      mload\n      dup1\n      dup3\n      add\n      swap1\n      swap2\n      mstore\n      0x01\n      dup2\n      mstore\n      shl(0xfc, 0x03)\n      0x20\n      dup3\n      add\n      mstore\n      jump(tag_33)\n        /* \"contracts/votingsystem.sol\":4578:4628  if (_i == 0) {\r... */\n    tag_127:\n        /* \"contracts/votingsystem.sol\":4647:4649  _i */\n      dup2\n        /* \"contracts/votingsystem.sol\":4638:4644  uint j */\n      0x00\n        /* \"contracts/votingsystem.sol\":4679:4748  while (j != 0) {\r... */\n    tag_128:\n        /* \"contracts/votingsystem.sol\":4686:4692  j != 0 */\n      dup2\n      iszero\n        /* \"contracts/votingsystem.sol\":4679:4748  while (j != 0) {\r... */\n      tag_129\n      jumpi\n        /* \"contracts/votingsystem.sol\":4709:4714  len++ */\n      0x01\n      add\n        /* \"contracts/votingsystem.sol\":4734:4736  10 */\n      0x0a\n        /* \"contracts/votingsystem.sol\":4729:4736  j /= 10 */\n      dup3\n      div\n      swap2\n      pop\n        /* \"contracts/votingsystem.sol\":4679:4748  while (j != 0) {\r... */\n      jump(tag_128)\n    tag_129:\n        /* \"contracts/votingsystem.sol\":4758:4775  bytes memory bstr */\n      0x60\n        /* \"contracts/votingsystem.sol\":4788:4791  len */\n      dup2\n        /* \"contracts/votingsystem.sol\":4778:4792  new bytes(len) */\n      0xffffffffffffffff\n      dup2\n      gt\n      dup1\n      iszero\n      tag_131\n      jumpi\n      0x00\n      dup1\n      revert\n    tag_131:\n      pop\n      mload(0x40)\n      swap1\n      dup1\n      dup3\n      mstore\n      dup1\n      0x1f\n      add\n      not(0x1f)\n      and\n      0x20\n      add\n      dup3\n      add\n      0x40\n      mstore\n      dup1\n      iszero\n      tag_132\n      jumpi\n      0x20\n      dup3\n      add\n      dup2\n      dup1\n      calldatasize\n      dup4\n      calldatacopy\n      add\n      swap1\n      pop\n    tag_132:\n      pop\n        /* \"contracts/votingsystem.sol\":4758:4792  bytes memory bstr = new bytes(len) */\n      swap1\n      pop\n      not(0x00)\n        /* \"contracts/votingsystem.sol\":4812:4819  len - 1 */\n      dup3\n      add\n        /* \"contracts/votingsystem.sol\":4830:4933  while (_i != 0) {\r... */\n    tag_133:\n        /* \"contracts/votingsystem.sol\":4837:4844  _i != 0 */\n      dup6\n      iszero\n        /* \"contracts/votingsystem.sol\":4830:4933  while (_i != 0) {\r... */\n      tag_134\n      jumpi\n        /* \"contracts/votingsystem.sol\":4894:4896  10 */\n      0x0a\n        /* \"contracts/votingsystem.sol\":4889:4891  _i */\n      dup7\n        /* \"contracts/votingsystem.sol\":4889:4896  _i % 10 */\n      mod\n        /* \"contracts/votingsystem.sol\":4884:4886  48 */\n      0x30\n        /* \"contracts/votingsystem.sol\":4884:4896  48 + _i % 10 */\n      add\n        /* \"contracts/votingsystem.sol\":4873:4898  byte(uint8(48 + _i % 10)) */\n      0xf8\n      shl\n        /* \"contracts/votingsystem.sol\":4861:4865  bstr */\n      dup3\n        /* \"contracts/votingsystem.sol\":4866:4869  k-- */\n      dup3\n      dup1\n      0x01\n      swap1\n      sub\n      swap4\n      pop\n        /* \"contracts/votingsystem.sol\":4861:4870  bstr[k--] */\n      dup2\n      mload\n      dup2\n      lt\n      tag_136\n      jumpi\n      invalid\n    tag_136:\n      0x20\n      add\n      add\n        /* \"contracts/votingsystem.sol\":4861:4898  bstr[k--] = byte(uint8(48 + _i % 10)) */\n      swap1\n      not(sub(shl(0xf8, 0x01), 0x01))\n      and\n      swap1\n      dup2\n      0x00\n      byte\n      swap1\n      mstore8\n      pop\n        /* \"contracts/votingsystem.sol\":4919:4921  10 */\n      0x0a\n        /* \"contracts/votingsystem.sol\":4913:4921  _i /= 10 */\n      dup7\n      div\n      swap6\n      pop\n        /* \"contracts/votingsystem.sol\":4830:4933  while (_i != 0) {\r... */\n      jump(tag_133)\n    tag_134:\n      pop\n        /* \"contracts/votingsystem.sol\":4957:4961  bstr */\n      swap5\n        /* \"contracts/votingsystem.sol\":4488:4970  function uint2str(uint _i) internal pure returns (string memory _uintAsString) {\r... */\n      swap4\n      pop\n      pop\n      pop\n      pop\n      jump\t// out\n    tag_73:\n      dup3\n      dup1\n      sload\n      0x01\n      dup2\n      0x01\n      and\n      iszero\n      0x0100\n      mul\n      sub\n      and\n      0x02\n      swap1\n      div\n      swap1\n      0x00\n      mstore\n      keccak256(0x00, 0x20)\n      swap1\n      0x1f\n      add\n      0x20\n      swap1\n      div\n      dup2\n      add\n      swap3\n      dup3\n      0x1f\n      lt\n      tag_139\n      jumpi\n      dup1\n      mload\n      not(0xff)\n      and\n      dup4\n      dup1\n      add\n      or\n      dup6\n      sstore\n      jump(tag_141)\n    tag_139:\n      dup3\n      dup1\n      add\n      0x01\n      add\n      dup6\n      sstore\n      dup3\n      iszero\n      tag_141\n      jumpi\n      swap2\n      dup3\n      add\n    tag_140:\n      dup3\n      dup2\n      gt\n      iszero\n      tag_141\n      jumpi\n      dup3\n      mload\n      dup3\n      sstore\n      swap2\n      0x20\n      add\n      swap2\n      swap1\n      0x01\n      add\n      swap1\n      jump(tag_140)\n    tag_141:\n      pop\n      tag_142\n      swap3\n      swap2\n      pop\n      tag_143\n      jump\t// in\n    tag_142:\n      pop\n      swap1\n      jump\t// out\n    tag_143:\n    tag_144:\n      dup1\n      dup3\n      gt\n      iszero\n      tag_142\n      jumpi\n      0x00\n      dup2\n      sstore\n      0x01\n      add\n      jump(tag_144)\n        /* \"--CODEGEN--\":6:448   */\n    tag_147:\n      0x00\n        /* \"--CODEGEN--\":108:111   */\n      dup3\n        /* \"--CODEGEN--\":101:105   */\n      0x1f\n        /* \"--CODEGEN--\":93:99   */\n      dup4\n        /* \"--CODEGEN--\":89:106   */\n      add\n        /* \"--CODEGEN--\":85:112   */\n      slt\n        /* \"--CODEGEN--\":75:77   */\n      tag_149\n      jumpi\n      dup1\n      dup2\n        /* \"--CODEGEN--\":116:128   */\n      revert\n        /* \"--CODEGEN--\":75:77   */\n    tag_149:\n        /* \"--CODEGEN--\":163:169   */\n      dup2\n        /* \"--CODEGEN--\":150:170   */\n      calldataload\n        /* \"--CODEGEN--\":14371:14389   */\n      0xffffffffffffffff\n      dup1\n        /* \"--CODEGEN--\":14363:14369   */\n      dup3\n        /* \"--CODEGEN--\":14360:14390   */\n      gt\n        /* \"--CODEGEN--\":14357:14359   */\n      iszero\n      tag_150\n      jumpi\n      dup3\n      dup4\n        /* \"--CODEGEN--\":14393:14405   */\n      revert\n        /* \"--CODEGEN--\":14357:14359   */\n    tag_150:\n        /* \"--CODEGEN--\":14026:14028   */\n      0x40\n        /* \"--CODEGEN--\":14020:14029   */\n      mload\n        /* \"--CODEGEN--\":14466:14475   */\n      0x1f\n        /* \"--CODEGEN--\":14447:14464   */\n      dup4\n      add\n      not(0x1f)\n        /* \"--CODEGEN--\":14443:14476   */\n      and\n        /* \"--CODEGEN--\":14052:14069   */\n      dup2\n      add\n        /* \"--CODEGEN--\":14534:14538   */\n      0x20\n        /* \"--CODEGEN--\":14052:14069   */\n      add\n        /* \"--CODEGEN--\":14112:14146   */\n      dup3\n      dup2\n      gt\n        /* \"--CODEGEN--\":14148:14170   */\n      dup3\n      dup3\n      lt\n        /* \"--CODEGEN--\":14109:14171   */\n      or\n        /* \"--CODEGEN--\":14106:14108   */\n      iszero\n      tag_151\n      jumpi\n      dup5\n      dup6\n        /* \"--CODEGEN--\":14174:14186   */\n      revert\n        /* \"--CODEGEN--\":14106:14108   */\n    tag_151:\n        /* \"--CODEGEN--\":14026:14028   */\n      0x40\n        /* \"--CODEGEN--\":14193:14215   */\n      mstore\n        /* \"--CODEGEN--\":256:277   */\n      dup3\n      dup2\n      mstore\n        /* \"--CODEGEN--\":176:250   */\n      swap3\n      pop\n      dup3\n        /* \"--CODEGEN--\":356:372   */\n      dup5\n      dup4\n      add\n        /* \"--CODEGEN--\":14534:14538   */\n      0x20\n        /* \"--CODEGEN--\":356:372   */\n      add\n        /* \"--CODEGEN--\":353:378   */\n      dup7\n      lt\n        /* \"--CODEGEN--\":350:352   */\n      iszero\n      tag_152\n      jumpi\n        /* \"--CODEGEN--\":391:392   */\n      0x00\n      dup1\n        /* \"--CODEGEN--\":381:393   */\n      revert\n        /* \"--CODEGEN--\":350:352   */\n    tag_152:\n        /* \"--CODEGEN--\":16377:16383   */\n      dup3\n        /* \"--CODEGEN--\":14534:14538   */\n      0x20\n        /* \"--CODEGEN--\":298:304   */\n      dup7\n        /* \"--CODEGEN--\":294:311   */\n      add\n        /* \"--CODEGEN--\":14534:14538   */\n      0x20\n        /* \"--CODEGEN--\":332:337   */\n      dup4\n        /* \"--CODEGEN--\":328:344   */\n      add\n        /* \"--CODEGEN--\":16354:16384   */\n      calldatacopy\n        /* \"--CODEGEN--\":16433:16434   */\n      0x00\n        /* \"--CODEGEN--\":14534:14538   */\n      0x20\n        /* \"--CODEGEN--\":16424:16430   */\n      dup5\n        /* \"--CODEGEN--\":332:337   */\n      dup4\n        /* \"--CODEGEN--\":16415:16431   */\n      add\n      add\n        /* \"--CODEGEN--\":16408:16435   */\n      mstore\n      pop\n      pop\n      pop\n        /* \"--CODEGEN--\":68:448   */\n      swap3\n      swap2\n      pop\n      pop\n      jump\t// out\n        /* \"--CODEGEN--\":593:940   */\n    tag_11:\n      0x00\n        /* \"--CODEGEN--\":707:709   */\n      0x20\n        /* \"--CODEGEN--\":695:704   */\n      dup3\n        /* \"--CODEGEN--\":686:693   */\n      dup5\n        /* \"--CODEGEN--\":682:705   */\n      sub\n        /* \"--CODEGEN--\":678:710   */\n      slt\n        /* \"--CODEGEN--\":675:677   */\n      iszero\n      tag_154\n      jumpi\n      dup1\n      dup2\n        /* \"--CODEGEN--\":713:725   */\n      revert\n        /* \"--CODEGEN--\":675:677   */\n    tag_154:\n        /* \"--CODEGEN--\":771:788   */\n      dup2\n        /* \"--CODEGEN--\":758:789   */\n      calldataload\n        /* \"--CODEGEN--\":809:827   */\n      0xffffffffffffffff\n        /* \"--CODEGEN--\":801:807   */\n      dup2\n        /* \"--CODEGEN--\":798:828   */\n      gt\n        /* \"--CODEGEN--\":795:797   */\n      iszero\n      tag_155\n      jumpi\n      dup2\n      dup3\n        /* \"--CODEGEN--\":831:843   */\n      revert\n        /* \"--CODEGEN--\":795:797   */\n    tag_155:\n        /* \"--CODEGEN--\":861:924   */\n      tag_156\n        /* \"--CODEGEN--\":916:923   */\n      dup5\n        /* \"--CODEGEN--\":907:913   */\n      dup3\n        /* \"--CODEGEN--\":896:905   */\n      dup6\n        /* \"--CODEGEN--\":892:914   */\n      add\n        /* \"--CODEGEN--\":861:924   */\n      tag_147\n      jump\t// in\n    tag_156:\n        /* \"--CODEGEN--\":851:924   */\n      swap5\n        /* \"--CODEGEN--\":669:940   */\n      swap4\n      pop\n      pop\n      pop\n      pop\n      jump\t// out\n        /* \"--CODEGEN--\":947:1650   */\n    tag_20:\n      0x00\n      dup1\n      0x00\n        /* \"--CODEGEN--\":1105:1107   */\n      0x60\n        /* \"--CODEGEN--\":1093:1102   */\n      dup5\n        /* \"--CODEGEN--\":1084:1091   */\n      dup7\n        /* \"--CODEGEN--\":1080:1103   */\n      sub\n        /* \"--CODEGEN--\":1076:1108   */\n      slt\n        /* \"--CODEGEN--\":1073:1075   */\n      iszero\n      tag_158\n      jumpi\n      dup2\n      dup3\n        /* \"--CODEGEN--\":1111:1123   */\n      revert\n        /* \"--CODEGEN--\":1073:1075   */\n    tag_158:\n        /* \"--CODEGEN--\":1169:1186   */\n      dup4\n        /* \"--CODEGEN--\":1156:1187   */\n      calldataload\n        /* \"--CODEGEN--\":1207:1225   */\n      0xffffffffffffffff\n      dup1\n        /* \"--CODEGEN--\":1199:1205   */\n      dup3\n        /* \"--CODEGEN--\":1196:1226   */\n      gt\n        /* \"--CODEGEN--\":1193:1195   */\n      iszero\n      tag_159\n      jumpi\n      dup4\n      dup5\n        /* \"--CODEGEN--\":1229:1241   */\n      revert\n        /* \"--CODEGEN--\":1193:1195   */\n    tag_159:\n        /* \"--CODEGEN--\":1259:1322   */\n      tag_160\n        /* \"--CODEGEN--\":1314:1321   */\n      dup8\n        /* \"--CODEGEN--\":1305:1311   */\n      dup4\n        /* \"--CODEGEN--\":1294:1303   */\n      dup9\n        /* \"--CODEGEN--\":1290:1312   */\n      add\n        /* \"--CODEGEN--\":1259:1322   */\n      tag_147\n      jump\t// in\n    tag_160:\n        /* \"--CODEGEN--\":1249:1322   */\n      swap5\n      pop\n        /* \"--CODEGEN--\":1359:1361   */\n      0x20\n        /* \"--CODEGEN--\":1402:1411   */\n      dup7\n        /* \"--CODEGEN--\":1398:1420   */\n      add\n        /* \"--CODEGEN--\":523:543   */\n      calldataload\n        /* \"--CODEGEN--\":1367:1430   */\n      swap4\n      pop\n        /* \"--CODEGEN--\":1495:1497   */\n      0x40\n        /* \"--CODEGEN--\":1484:1493   */\n      dup7\n        /* \"--CODEGEN--\":1480:1498   */\n      add\n        /* \"--CODEGEN--\":1467:1499   */\n      calldataload\n        /* \"--CODEGEN--\":1453:1499   */\n      swap2\n      pop\n        /* \"--CODEGEN--\":1207:1225   */\n      dup1\n        /* \"--CODEGEN--\":1511:1517   */\n      dup3\n        /* \"--CODEGEN--\":1508:1538   */\n      gt\n        /* \"--CODEGEN--\":1505:1507   */\n      iszero\n      tag_161\n      jumpi\n      dup3\n      dup4\n        /* \"--CODEGEN--\":1541:1553   */\n      revert\n        /* \"--CODEGEN--\":1505:1507   */\n    tag_161:\n      pop\n        /* \"--CODEGEN--\":1571:1634   */\n      tag_162\n        /* \"--CODEGEN--\":1626:1633   */\n      dup7\n        /* \"--CODEGEN--\":1617:1623   */\n      dup3\n        /* \"--CODEGEN--\":1606:1615   */\n      dup8\n        /* \"--CODEGEN--\":1602:1624   */\n      add\n        /* \"--CODEGEN--\":1571:1634   */\n      tag_147\n      jump\t// in\n    tag_162:\n        /* \"--CODEGEN--\":1561:1634   */\n      swap2\n      pop\n      pop\n        /* \"--CODEGEN--\":1067:1650   */\n      swap3\n      pop\n      swap3\n      pop\n      swap3\n      jump\t// out\n        /* \"--CODEGEN--\":3015:3342   */\n    tag_163:\n      0x00\n        /* \"--CODEGEN--\":3150:3155   */\n      dup2\n        /* \"--CODEGEN--\":15002:15014   */\n      mload\n        /* \"--CODEGEN--\":15438:15444   */\n      dup1\n        /* \"--CODEGEN--\":15433:15436   */\n      dup5\n        /* \"--CODEGEN--\":15426:15445   */\n      mstore\n        /* \"--CODEGEN--\":3234:3286   */\n      tag_165\n        /* \"--CODEGEN--\":3279:3285   */\n      dup2\n        /* \"--CODEGEN--\":15475:15479   */\n      0x20\n        /* \"--CODEGEN--\":15470:15473   */\n      dup7\n        /* \"--CODEGEN--\":15466:15480   */\n      add\n        /* \"--CODEGEN--\":15475:15479   */\n      0x20\n        /* \"--CODEGEN--\":3260:3265   */\n      dup7\n        /* \"--CODEGEN--\":3256:3272   */\n      add\n        /* \"--CODEGEN--\":3234:3286   */\n      tag_166\n      jump\t// in\n    tag_165:\n        /* \"--CODEGEN--\":14466:14475   */\n      0x1f\n        /* \"--CODEGEN--\":17081:17095   */\n      add\n      not(0x1f)\n        /* \"--CODEGEN--\":17077:17105   */\n      and\n        /* \"--CODEGEN--\":3298:3337   */\n      swap3\n      swap1\n      swap3\n      add\n        /* \"--CODEGEN--\":15475:15479   */\n      0x20\n        /* \"--CODEGEN--\":3298:3337   */\n      add\n      swap3\n        /* \"--CODEGEN--\":3097:3342   */\n      swap2\n      pop\n      pop\n      jump\t// out\n        /* \"--CODEGEN--\":4095:4979   */\n    tag_167:\n      0x00\n        /* \"--CODEGEN--\":4232:4237   */\n      dup2\n        /* \"--CODEGEN--\":4226:4238   */\n      sload\n        /* \"--CODEGEN--\":4266:4267   */\n      0x01\n      dup1\n        /* \"--CODEGEN--\":4255:4264   */\n      dup3\n        /* \"--CODEGEN--\":4251:4268   */\n      and\n        /* \"--CODEGEN--\":4279:4280   */\n      0x00\n        /* \"--CODEGEN--\":4274:4542   */\n      dup2\n      eq\n      tag_170\n      jumpi\n        /* \"--CODEGEN--\":4553:4554   */\n      0x01\n        /* \"--CODEGEN--\":4548:4973   */\n      dup2\n      eq\n      tag_171\n      jumpi\n        /* \"--CODEGEN--\":4244:4973   */\n      jump(tag_169)\n        /* \"--CODEGEN--\":4274:4542   */\n    tag_170:\n      not(0xff)\n        /* \"--CODEGEN--\":4479:4504   */\n      dup4\n      and\n        /* \"--CODEGEN--\":4467:4505   */\n      dup7\n      mstore\n        /* \"--CODEGEN--\":4348:4349   */\n      0x02\n        /* \"--CODEGEN--\":4333:4350   */\n      dup4\n      div\n        /* \"--CODEGEN--\":4352:4356   */\n      0x7f\n        /* \"--CODEGEN--\":4329:4357   */\n      and\n        /* \"--CODEGEN--\":4519:4535   */\n      dup7\n      add\n      swap4\n      pop\n        /* \"--CODEGEN--\":4274:4542   */\n      jump(tag_169)\n        /* \"--CODEGEN--\":4548:4973   */\n    tag_171:\n        /* \"--CODEGEN--\":4617:4618   */\n      0x02\n        /* \"--CODEGEN--\":4606:4615   */\n      dup4\n        /* \"--CODEGEN--\":4602:4619   */\n      div\n        /* \"--CODEGEN--\":14829:14832   */\n      dup6\n      0x00\n        /* \"--CODEGEN--\":14819:14833   */\n      mstore\n        /* \"--CODEGEN--\":14861:14865   */\n      0x20\n      dup1\n      0x00\n        /* \"--CODEGEN--\":14848:14866   */\n      keccak256\n      0x00\n        /* \"--CODEGEN--\":4806:4936   */\n    tag_172:\n        /* \"--CODEGEN--\":4820:4826   */\n      dup4\n        /* \"--CODEGEN--\":4817:4818   */\n      dup2\n        /* \"--CODEGEN--\":4814:4827   */\n      lt\n        /* \"--CODEGEN--\":4806:4936   */\n      iszero\n      tag_174\n      jumpi\n        /* \"--CODEGEN--\":4879:4893   */\n      dup2\n      sload\n        /* \"--CODEGEN--\":4866:4877   */\n      dup11\n      dup3\n      add\n        /* \"--CODEGEN--\":4859:4894   */\n      mstore\n        /* \"--CODEGEN--\":4913:4928   */\n      swap1\n      dup6\n      add\n      swap1\n        /* \"--CODEGEN--\":4835:4847   */\n      dup3\n      add\n        /* \"--CODEGEN--\":4806:4936   */\n      jump(tag_172)\n    tag_174:\n      pop\n      pop\n      pop\n        /* \"--CODEGEN--\":4950:4966   */\n      dup7\n      add\n      swap4\n      pop\n        /* \"--CODEGEN--\":4244:4973   */\n    tag_169:\n      pop\n      pop\n      pop\n        /* \"--CODEGEN--\":4202:4979   */\n      swap3\n      swap2\n      pop\n      pop\n      jump\t// out\n        /* \"--CODEGEN--\":8055:8340   */\n    tag_41:\n        /* \"--CODEGEN--\":17192:17194   */\n      0x60\n        /* \"--CODEGEN--\":17188:17202   */\n      swap2\n      swap1\n      swap2\n      shl\n      not(0xffffffffffffffffffffffff)\n      and\n        /* \"--CODEGEN--\":1964:2038   */\n      dup2\n      mstore\n        /* \"--CODEGEN--\":8312:8314   */\n      0x14\n        /* \"--CODEGEN--\":8303:8315   */\n      add\n      swap1\n        /* \"--CODEGEN--\":8187:8340   */\n      jump\t// out\n        /* \"--CODEGEN--\":8347:8622   */\n    tag_35:\n      0x00\n        /* \"--CODEGEN--\":3866:3871   */\n      dup3\n        /* \"--CODEGEN--\":15002:15014   */\n      mload\n        /* \"--CODEGEN--\":3978:4030   */\n      tag_177\n        /* \"--CODEGEN--\":4023:4029   */\n      dup2\n        /* \"--CODEGEN--\":4018:4021   */\n      dup5\n        /* \"--CODEGEN--\":4011:4015   */\n      0x20\n        /* \"--CODEGEN--\":4004:4009   */\n      dup8\n        /* \"--CODEGEN--\":4000:4016   */\n      add\n        /* \"--CODEGEN--\":3978:4030   */\n      tag_166\n      jump\t// in\n    tag_177:\n        /* \"--CODEGEN--\":4042:4058   */\n      swap2\n      swap1\n      swap2\n      add\n      swap3\n        /* \"--CODEGEN--\":8483:8622   */\n      swap2\n      pop\n      pop\n      jump\t// out\n        /* \"--CODEGEN--\":8629:10021   */\n    tag_118:\n      0x00\n        /* \"--CODEGEN--\":3866:3871   */\n      dup5\n        /* \"--CODEGEN--\":15002:15014   */\n      mload\n        /* \"--CODEGEN--\":3978:4030   */\n      tag_179\n        /* \"--CODEGEN--\":4023:4029   */\n      dup2\n        /* \"--CODEGEN--\":4018:4021   */\n      dup5\n        /* \"--CODEGEN--\":4011:4015   */\n      0x20\n        /* \"--CODEGEN--\":4004:4009   */\n      dup10\n        /* \"--CODEGEN--\":4000:4016   */\n      add\n        /* \"--CODEGEN--\":3978:4030   */\n      tag_166\n      jump\t// in\n    tag_179:\n      shl(0xfb, 0x05)\n        /* \"--CODEGEN--\":4042:4058   */\n      swap1\n      dup4\n      add\n        /* \"--CODEGEN--\":5595:5619   */\n      swap1\n      dup2\n      mstore\n        /* \"--CODEGEN--\":9459:9551   */\n      tag_180\n        /* \"--CODEGEN--\":5580:5581   */\n      0x01\n        /* \"--CODEGEN--\":5638:5649   */\n      dup3\n      add\n        /* \"--CODEGEN--\":9538:9544   */\n      dup7\n        /* \"--CODEGEN--\":9459:9551   */\n      tag_167\n      jump\t// in\n    tag_180:\n      swap1\n      pop\n      shl(0xf5, 0x0161)\n        /* \"--CODEGEN--\":7003:7014   */\n      dup2\n        /* \"--CODEGEN--\":6996:7021   */\n      mstore\n        /* \"--CODEGEN--\":3866:3871   */\n      dup4\n        /* \"--CODEGEN--\":15002:15014   */\n      mload\n        /* \"--CODEGEN--\":3978:4030   */\n      tag_181\n        /* \"--CODEGEN--\":4023:4029   */\n      dup2\n        /* \"--CODEGEN--\":6981:6982   */\n      0x02\n        /* \"--CODEGEN--\":7044:7047   */\n      dup5\n        /* \"--CODEGEN--\":7040:7051   */\n      add\n        /* \"--CODEGEN--\":4011:4015   */\n      0x20\n        /* \"--CODEGEN--\":4004:4009   */\n      dup9\n        /* \"--CODEGEN--\":4000:4016   */\n      add\n        /* \"--CODEGEN--\":3978:4030   */\n      tag_166\n      jump\t// in\n    tag_181:\n      shl(0xe0, 0x292d2d2d)\n        /* \"--CODEGEN--\":6981:6982   */\n      0x02\n        /* \"--CODEGEN--\":4042:4058   */\n      swap3\n      swap1\n      swap2\n      add\n      swap2\n      dup3\n      add\n        /* \"--CODEGEN--\":5939:5966   */\n      mstore\n        /* \"--CODEGEN--\":5985:5996   */\n      0x06\n      add\n      swap6\n        /* \"--CODEGEN--\":9161:10021   */\n      swap5\n      pop\n      pop\n      pop\n      pop\n      pop\n      jump\t// out\n        /* \"--CODEGEN--\":10028:10603   */\n    tag_69:\n      0x00\n        /* \"--CODEGEN--\":3866:3871   */\n      dup5\n        /* \"--CODEGEN--\":15002:15014   */\n      mload\n        /* \"--CODEGEN--\":3978:4030   */\n      tag_183\n        /* \"--CODEGEN--\":4023:4029   */\n      dup2\n        /* \"--CODEGEN--\":4018:4021   */\n      dup5\n        /* \"--CODEGEN--\":4011:4015   */\n      0x20\n        /* \"--CODEGEN--\":4004:4009   */\n      dup10\n        /* \"--CODEGEN--\":4000:4016   */\n      add\n        /* \"--CODEGEN--\":3978:4030   */\n      tag_166\n      jump\t// in\n    tag_183:\n        /* \"--CODEGEN--\":4042:4058   */\n      dup3\n      add\n        /* \"--CODEGEN--\":7847:7884   */\n      dup5\n      dup2\n      mstore\n        /* \"--CODEGEN--\":15002:15014   */\n      dup4\n      mload\n        /* \"--CODEGEN--\":3978:4030   */\n      tag_184\n        /* \"--CODEGEN--\":15002:15014   */\n      dup2\n        /* \"--CODEGEN--\":4011:4015   */\n      0x20\n        /* \"--CODEGEN--\":10453:10465   */\n      dup1\n      dup6\n      add\n      swap1\n        /* \"--CODEGEN--\":4000:4016   */\n      dup9\n      add\n        /* \"--CODEGEN--\":3978:4030   */\n      tag_166\n      jump\t// in\n    tag_184:\n        /* \"--CODEGEN--\":4042:4058   */\n      add\n        /* \"--CODEGEN--\":4011:4015   */\n      0x20\n        /* \"--CODEGEN--\":4042:4058   */\n      add\n      swap6\n        /* \"--CODEGEN--\":10240:10603   */\n      swap5\n      pop\n      pop\n      pop\n      pop\n      pop\n      jump\t// out\n        /* \"--CODEGEN--\":10610:10879   */\n    tag_58:\n      0x00\n        /* \"--CODEGEN--\":10762:10854   */\n      tag_186\n        /* \"--CODEGEN--\":10850:10853   */\n      dup3\n        /* \"--CODEGEN--\":10841:10847   */\n      dup5\n        /* \"--CODEGEN--\":10762:10854   */\n      tag_167\n      jump\t// in\n    tag_186:\n        /* \"--CODEGEN--\":10864:10874   */\n      swap4\n        /* \"--CODEGEN--\":10743:10879   */\n      swap3\n      pop\n      pop\n      pop\n      jump\t// out\n        /* \"--CODEGEN--\":10886:11296   */\n    tag_32:\n      0x00\n        /* \"--CODEGEN--\":11083:11085   */\n      0x20\n      dup1\n        /* \"--CODEGEN--\":11072:11081   */\n      dup4\n        /* \"--CODEGEN--\":11068:11086   */\n      add\n        /* \"--CODEGEN--\":11083:11085   */\n      dup2\n        /* \"--CODEGEN--\":11104:11121   */\n      dup5\n        /* \"--CODEGEN--\":11097:11144   */\n      mstore\n        /* \"--CODEGEN--\":11158:11286   */\n      dup1\n        /* \"--CODEGEN--\":2302:2307   */\n      dup6\n        /* \"--CODEGEN--\":15002:15014   */\n      mload\n        /* \"--CODEGEN--\":15438:15444   */\n      dup1\n        /* \"--CODEGEN--\":15433:15436   */\n      dup4\n        /* \"--CODEGEN--\":15426:15445   */\n      mstore\n        /* \"--CODEGEN--\":15466:15480   */\n      0x40\n        /* \"--CODEGEN--\":11072:11081   */\n      dup7\n        /* \"--CODEGEN--\":15466:15480   */\n      add\n        /* \"--CODEGEN--\":2314:2417   */\n      swap2\n      pop\n        /* \"--CODEGEN--\":15466:15480   */\n      0x40\n        /* \"--CODEGEN--\":11083:11085   */\n      dup5\n        /* \"--CODEGEN--\":2474:2480   */\n      dup3\n        /* \"--CODEGEN--\":2470:2487   */\n      mul\n        /* \"--CODEGEN--\":11072:11081   */\n      dup8\n        /* \"--CODEGEN--\":2461:2488   */\n      add\n      add\n        /* \"--CODEGEN--\":2449:2488   */\n      swap3\n      pop\n        /* \"--CODEGEN--\":11083:11085   */\n      dup4\n        /* \"--CODEGEN--\":2569:2574   */\n      dup8\n        /* \"--CODEGEN--\":14681:14695   */\n      add\n      dup6\n        /* \"--CODEGEN--\":2608:2968   */\n    tag_188:\n        /* \"--CODEGEN--\":2633:2639   */\n      dup3\n        /* \"--CODEGEN--\":2630:2631   */\n      dup2\n        /* \"--CODEGEN--\":2627:2640   */\n      lt\n        /* \"--CODEGEN--\":2608:2968   */\n      iszero\n      tag_190\n      jumpi\n        /* \"--CODEGEN--\":2685:2705   */\n      not(0x3f)\n        /* \"--CODEGEN--\":11072:11081   */\n      dup9\n        /* \"--CODEGEN--\":2689:2693   */\n      dup7\n        /* \"--CODEGEN--\":2685:2705   */\n      sub\n      add\n        /* \"--CODEGEN--\":2680:2683   */\n      dup5\n        /* \"--CODEGEN--\":2673:2706   */\n      mstore\n        /* \"--CODEGEN--\":1779:1845   */\n      tag_191\n        /* \"--CODEGEN--\":1841:1844   */\n      dup6\n        /* \"--CODEGEN--\":2740:2746   */\n      dup4\n        /* \"--CODEGEN--\":2734:2747   */\n      mload\n        /* \"--CODEGEN--\":1779:1845   */\n      tag_163\n      jump\t// in\n    tag_191:\n        /* \"--CODEGEN--\":2754:2846   */\n      swap5\n      pop\n        /* \"--CODEGEN--\":2947:2961   */\n      swap3\n      dup6\n      add\n      swap3\n        /* \"--CODEGEN--\":15271:15285   */\n      swap1\n      dup6\n      add\n      swap1\n        /* \"--CODEGEN--\":2655:2656   */\n      0x01\n        /* \"--CODEGEN--\":2648:2657   */\n      add\n        /* \"--CODEGEN--\":2608:2968   */\n      jump(tag_188)\n    tag_190:\n      pop\n        /* \"--CODEGEN--\":11150:11286   */\n      swap3\n      swap8\n        /* \"--CODEGEN--\":11054:11296   */\n      swap7\n      pop\n      pop\n      pop\n      pop\n      pop\n      pop\n      pop\n      jump\t// out\n        /* \"--CODEGEN--\":11303:11613   */\n    tag_25:\n      0x00\n        /* \"--CODEGEN--\":11450:11452   */\n      0x20\n        /* \"--CODEGEN--\":11471:11488   */\n      dup3\n        /* \"--CODEGEN--\":11464:11511   */\n      mstore\n        /* \"--CODEGEN--\":11525:11603   */\n      tag_186\n        /* \"--CODEGEN--\":11450:11452   */\n      0x20\n        /* \"--CODEGEN--\":11439:11448   */\n      dup4\n        /* \"--CODEGEN--\":11435:11453   */\n      add\n        /* \"--CODEGEN--\":11589:11595   */\n      dup5\n        /* \"--CODEGEN--\":11525:11603   */\n      tag_163\n      jump\t// in\n        /* \"--CODEGEN--\":11620:12036   */\n    tag_77:\n        /* \"--CODEGEN--\":11820:11822   */\n      0x20\n        /* \"--CODEGEN--\":11834:11881   */\n      dup1\n      dup3\n      mstore\n        /* \"--CODEGEN--\":5212:5214   */\n      0x17\n        /* \"--CODEGEN--\":11805:11823   */\n      swap1\n      dup3\n      add\n        /* \"--CODEGEN--\":15426:15445   */\n      mstore\n        /* \"--CODEGEN--\":5248:5273   */\n      0x566f74696e67206973206e6f74206f766572207965742e000000000000000000\n        /* \"--CODEGEN--\":15466:15480   */\n      0x40\n      dup3\n      add\n        /* \"--CODEGEN--\":5228:5274   */\n      mstore\n        /* \"--CODEGEN--\":5293:5305   */\n      0x60\n      add\n      swap1\n        /* \"--CODEGEN--\":11791:12036   */\n      jump\t// out\n        /* \"--CODEGEN--\":12043:12459   */\n    tag_39:\n        /* \"--CODEGEN--\":12243:12245   */\n      0x20\n        /* \"--CODEGEN--\":12257:12304   */\n      dup1\n      dup3\n      mstore\n        /* \"--CODEGEN--\":6235:6237   */\n      0x12\n        /* \"--CODEGEN--\":12228:12246   */\n      swap1\n      dup3\n      add\n        /* \"--CODEGEN--\":15426:15445   */\n      mstore\n      shl(0x70, 0x63616e206e6f206c6f6e67657220766f7465)\n        /* \"--CODEGEN--\":15466:15480   */\n      0x40\n      dup3\n      add\n        /* \"--CODEGEN--\":6251:6292   */\n      mstore\n        /* \"--CODEGEN--\":6311:6323   */\n      0x60\n      add\n      swap1\n        /* \"--CODEGEN--\":12214:12459   */\n      jump\t// out\n        /* \"--CODEGEN--\":12466:12882   */\n    tag_67:\n        /* \"--CODEGEN--\":12666:12668   */\n      0x20\n        /* \"--CODEGEN--\":12680:12727   */\n      dup1\n      dup3\n      mstore\n        /* \"--CODEGEN--\":6562:6564   */\n      0x25\n        /* \"--CODEGEN--\":12651:12669   */\n      swap1\n      dup3\n      add\n        /* \"--CODEGEN--\":15426:15445   */\n      mstore\n        /* \"--CODEGEN--\":6598:6632   */\n      0x43616e646964617465732063616e206e6f206c6f6e676572206265207375626d\n        /* \"--CODEGEN--\":15466:15480   */\n      0x40\n      dup3\n      add\n        /* \"--CODEGEN--\":6578:6633   */\n      mstore\n      shl(0xda, 0x1a5d1d1959)\n        /* \"--CODEGEN--\":6653:6665   */\n      0x60\n      dup3\n      add\n        /* \"--CODEGEN--\":6646:6675   */\n      mstore\n        /* \"--CODEGEN--\":6694:6706   */\n      0x80\n      add\n      swap1\n        /* \"--CODEGEN--\":12637:12882   */\n      jump\t// out\n        /* \"--CODEGEN--\":12889:13305   */\n    tag_62:\n        /* \"--CODEGEN--\":13089:13091   */\n      0x20\n        /* \"--CODEGEN--\":13103:13150   */\n      dup1\n      dup3\n      mstore\n        /* \"--CODEGEN--\":7290:7292   */\n      0x26\n        /* \"--CODEGEN--\":13074:13092   */\n      swap1\n      dup3\n      add\n        /* \"--CODEGEN--\":15426:15445   */\n      mstore\n        /* \"--CODEGEN--\":7326:7360   */\n      0x4e6f20686179206e696e67756e2063616e64696461746f20636f6e2065736520\n        /* \"--CODEGEN--\":15466:15480   */\n      0x40\n      dup3\n      add\n        /* \"--CODEGEN--\":7306:7361   */\n      mstore\n      shl(0xd0, 0x6e6f6d627265)\n        /* \"--CODEGEN--\":7381:7393   */\n      0x60\n      dup3\n      add\n        /* \"--CODEGEN--\":7374:7404   */\n      mstore\n        /* \"--CODEGEN--\":7423:7435   */\n      0x80\n      add\n      swap1\n        /* \"--CODEGEN--\":13060:13305   */\n      jump\t// out\n        /* \"--CODEGEN--\":13312:13728   */\n    tag_49:\n        /* \"--CODEGEN--\":13512:13514   */\n      0x20\n        /* \"--CODEGEN--\":13526:13573   */\n      dup1\n      dup3\n      mstore\n        /* \"--CODEGEN--\":7674:7676   */\n      0x12\n        /* \"--CODEGEN--\":13497:13515   */\n      swap1\n      dup3\n      add\n        /* \"--CODEGEN--\":15426:15445   */\n      mstore\n      shl(0x70, 0x596f7520616c726561647920766f74656421)\n        /* \"--CODEGEN--\":15466:15480   */\n      0x40\n      dup3\n      add\n        /* \"--CODEGEN--\":7690:7731   */\n      mstore\n        /* \"--CODEGEN--\":7750:7762   */\n      0x60\n      add\n      swap1\n        /* \"--CODEGEN--\":13483:13728   */\n      jump\t// out\n        /* \"--CODEGEN--\":13735:13957   */\n    tag_14:\n        /* \"--CODEGEN--\":7847:7884   */\n      swap1\n      dup2\n      mstore\n        /* \"--CODEGEN--\":13862:13864   */\n      0x20\n        /* \"--CODEGEN--\":13847:13865   */\n      add\n      swap1\n        /* \"--CODEGEN--\":13833:13957   */\n      jump\t// out\n        /* \"--CODEGEN--\":16450:16718   */\n    tag_166:\n        /* \"--CODEGEN--\":16515:16516   */\n      0x00\n        /* \"--CODEGEN--\":16522:16623   */\n    tag_201:\n        /* \"--CODEGEN--\":16536:16542   */\n      dup4\n        /* \"--CODEGEN--\":16533:16534   */\n      dup2\n        /* \"--CODEGEN--\":16530:16543   */\n      lt\n        /* \"--CODEGEN--\":16522:16623   */\n      iszero\n      tag_203\n      jumpi\n        /* \"--CODEGEN--\":16603:16614   */\n      dup2\n      dup2\n      add\n        /* \"--CODEGEN--\":16597:16615   */\n      mload\n        /* \"--CODEGEN--\":16584:16595   */\n      dup4\n      dup3\n      add\n        /* \"--CODEGEN--\":16577:16616   */\n      mstore\n        /* \"--CODEGEN--\":16558:16560   */\n      0x20\n        /* \"--CODEGEN--\":16551:16561   */\n      add\n        /* \"--CODEGEN--\":16522:16623   */\n      jump(tag_201)\n    tag_203:\n        /* \"--CODEGEN--\":16638:16644   */\n      dup4\n        /* \"--CODEGEN--\":16635:16636   */\n      dup2\n        /* \"--CODEGEN--\":16632:16645   */\n      gt\n        /* \"--CODEGEN--\":16629:16631   */\n      iszero\n      tag_204\n      jumpi\n        /* \"--CODEGEN--\":16515:16516   */\n      0x00\n        /* \"--CODEGEN--\":16694:16700   */\n      dup5\n        /* \"--CODEGEN--\":16689:16692   */\n      dup5\n        /* \"--CODEGEN--\":16685:16701   */\n      add\n        /* \"--CODEGEN--\":16678:16705   */\n      mstore\n        /* \"--CODEGEN--\":16629:16631   */\n    tag_204:\n      pop\n        /* \"--CODEGEN--\":16499:16718   */\n      pop\n      pop\n      pop\n      jump\t// out\n    stop\n    data_eee2584c38bccf16070da41b3608363c5998430631b4447f0b56c636fabe8d05 5468657265206973206120746965206265747765656e207468652063616e6469646174657321\n\n    auxdata: 0xa2646970667358221220a7ea44859de69909823a6f7e05461e55b2723fbf0c41774a1100de36f02afa5d64736f6c634300060c0033\n}\n",
				"bytecode": {
					"linkReferences": {},
					"object": "608060405234801561001057600080fd5b50600080546001600160a01b0319163317905542600155610e0b806100366000396000f3fe608060405234801561001057600080fd5b50600436106100625760003560e01c8063032a08d914610067578063323082d71461009057806333bbc887146100a5578063b2b98ed2146100b8578063bc9cd2ce146100cd578063c03cd5d1146100d5575b600080fd5b61007a6100753660046109c0565b6100ea565b6040516100879190610d76565b60405180910390f35b6100a361009e3660046109c0565b610113565b005b6100a36100b33660046109fb565b6102bf565b6100c0610383565b6040516100879190610c49565b6100c06105fb565b6100dd6106ff565b6040516100879190610be9565b60006003826040516100fc9190610b1e565b90815260200160405180910390205490505b919050565b60015461012c014211156101425760405162461bcd60e51b815260040161013990610c93565b60405180910390fd5b6000336040516020016101559190610b01565b60405160208183030381529060405280519060200120905060005b6005548110156101b957816005828154811061018857fe5b906000526020600020015414156101b15760405162461bcd60e51b815260040161013990610d4a565b600101610170565b506005805460018101825560009182527f036b6384b5eca791c62761152d0c79bb0604c104a5fb6f4eb0703f3154bb3db001829055805b600454811015610271578360405160200161020b9190610b1e565b604051602081830303815290604052805190602001206004828154811061022e57fe5b906000526020600020016040516020016102489190610bd6565b60405160208183030381529060405280519060200120141561026957600191505b6001016101f0565b506001811515146102945760405162461bcd60e51b815260040161013990610d04565b6003836040516102a49190610b1e565b90815260405190819003602001902080546001019055505050565b60015461012c014211156102e55760405162461bcd60e51b815260040161013990610cbf565b60008383836040516020016102fc93929190610b9f565b604051602081830303815290604052805190602001209050806002856040516103259190610b1e565b908152604051602091819003820190209190915560048054600181018255600091909152855161037c927f8a35acfbc15ff81a39ae7d344fd709f28e8600b4aa8c65c6b64bfe7fe36bd19b909201918701906108af565b5050505050565b606060015461012c0142116103aa5760405162461bcd60e51b815260040161013990610c5c565b606060046000815481106103ba57fe5b600091825260209182902001805460408051601f60026000196101006001871615020190941693909304928301859004850281018501909152818152928301828280156104485780601f1061041d57610100808354040283529160200191610448565b820191906000526020600020905b81548152906001019060200180831161042b57829003601f168201915b50505050509050600080600190505b6004548110156105cd5760036004828154811061047057fe5b906000526020600020016040516104879190610bd6565b9081526020016040518091039020546003846040516104a69190610b1e565b908152602001604051809103902054101561056657600481815481106104c857fe5b600091825260209182902001805460408051601f60026000196101006001871615020190941693909304928301859004850281018501909152818152928301828280156105565780601f1061052b57610100808354040283529160200191610556565b820191906000526020600020905b81548152906001019060200180831161053957829003601f168201915b50505050509250600091506105c5565b60036004828154811061057557fe5b9060005260206000200160405161058c9190610bd6565b9081526020016040518091039020546003846040516105ab9190610b1e565b90815260200160405180910390205414156105c557600191505b600101610457565b50600181151514156105f557604051806060016040528060268152602001610db06026913991505b50905090565b60608060005b6004548110156105f557816004828154811061061957fe5b906000526020600020016106d36106ce6004858154811061063657fe5b600091825260209182902001805460408051601f60026000196101006001871615020190941693909304928301859004850281018501909152818152928301828280156106c45780601f10610699576101008083540402835291602001916106c4565b820191906000526020600020905b8154815290600101906020018083116106a757829003601f168201915b50505050506100ea565b6107d7565b6040516020016106e593929190610b3a565b60408051601f198184030181529190529150600101610601565b60606004805480602002602001604051908101604052809291908181526020016000905b828210156107ce5760008481526020908190208301805460408051601f60026000196101006001871615020190941693909304928301859004850281018501909152818152928301828280156107ba5780601f1061078f576101008083540402835291602001916107ba565b820191906000526020600020905b81548152906001019060200180831161079d57829003601f168201915b505050505081526020019060010190610723565b50505050905090565b6060816107fc57506040805180820190915260018152600360fc1b602082015261010e565b8160005b811561081457600101600a82049150610800565b60608167ffffffffffffffff8111801561082d57600080fd5b506040519080825280601f01601f191660200182016040528015610858576020820181803683370190505b50905060001982015b85156108a657600a860660300160f81b8282806001900393508151811061088457fe5b60200101906001600160f81b031916908160001a905350600a86049550610861565b50949350505050565b828054600181600116156101000203166002900490600052602060002090601f016020900481019282601f106108f057805160ff191683800117855561091d565b8280016001018555821561091d579182015b8281111561091d578251825591602001919060010190610902565b5061092992915061092d565b5090565b5b80821115610929576000815560010161092e565b600082601f830112610952578081fd5b813567ffffffffffffffff80821115610969578283fd5b604051601f8301601f191681016020018281118282101715610989578485fd5b6040528281529250828483016020018610156109a457600080fd5b8260208601602083013760006020848301015250505092915050565b6000602082840312156109d1578081fd5b813567ffffffffffffffff8111156109e7578182fd5b6109f384828501610942565b949350505050565b600080600060608486031215610a0f578182fd5b833567ffffffffffffffff80821115610a26578384fd5b610a3287838801610942565b9450602086013593506040860135915080821115610a4e578283fd5b50610a5b86828701610942565b9150509250925092565b60008151808452610a7d816020860160208601610d7f565b601f01601f19169290920160200192915050565b60008154600180821660008114610aaf5760018114610ac657610af8565b60ff198316865260028304607f1686019350610af8565b600283048560005260208060002060005b83811015610af05781548a820152908501908201610ad7565b505050860193505b50505092915050565b60609190911b6bffffffffffffffffffffffff1916815260140190565b60008251610b30818460208701610d7f565b9190910192915050565b60008451610b4c818460208901610d7f565b600560fb1b908301908152610b646001820186610a91565b905061016160f51b81528351610b81816002840160208801610d7f565b63292d2d2d60e01b6002929091019182015260060195945050505050565b60008451610bb1818460208901610d7f565b82018481528351610bc9816020808501908801610d7f565b0160200195945050505050565b6000610be28284610a91565b9392505050565b6000602080830181845280855180835260408601915060408482028701019250838701855b82811015610c3c57603f19888603018452610c2a858351610a65565b94509285019290850190600101610c0e565b5092979650505050505050565b600060208252610be26020830184610a65565b60208082526017908201527f566f74696e67206973206e6f74206f766572207965742e000000000000000000604082015260600190565b60208082526012908201527163616e206e6f206c6f6e67657220766f746560701b604082015260600190565b60208082526025908201527f43616e646964617465732063616e206e6f206c6f6e676572206265207375626d6040820152641a5d1d195960da1b606082015260800190565b60208082526026908201527f4e6f20686179206e696e67756e2063616e64696461746f20636f6e20657365206040820152656e6f6d62726560d01b606082015260800190565b602080825260129082015271596f7520616c726561647920766f7465642160701b604082015260600190565b90815260200190565b60005b83811015610d9a578181015183820152602001610d82565b83811115610da9576000848401525b5050505056fe5468657265206973206120746965206265747765656e207468652063616e6469646174657321a2646970667358221220a7ea44859de69909823a6f7e05461e55b2723fbf0c41774a1100de36f02afa5d64736f6c634300060c0033",
					"opcodes": "PUSH1 0x80 PUSH1 0x40 MSTORE CALLVALUE DUP1 ISZERO PUSH2 0x10 JUMPI PUSH1 0x0 DUP1 REVERT JUMPDEST POP PUSH1 0x0 DUP1 SLOAD PUSH1 0x1 PUSH1 0x1 PUSH1 0xA0 SHL SUB NOT AND CALLER OR SWAP1 SSTORE TIMESTAMP PUSH1 0x1 SSTORE PUSH2 0xE0B DUP1 PUSH2 0x36 PUSH1 0x0 CODECOPY PUSH1 0x0 RETURN INVALID PUSH1 0x80 PUSH1 0x40 MSTORE CALLVALUE DUP1 ISZERO PUSH2 0x10 JUMPI PUSH1 0x0 DUP1 REVERT JUMPDEST POP PUSH1 0x4 CALLDATASIZE LT PUSH2 0x62 JUMPI PUSH1 0x0 CALLDATALOAD PUSH1 0xE0 SHR DUP1 PUSH4 0x32A08D9 EQ PUSH2 0x67 JUMPI DUP1 PUSH4 0x323082D7 EQ PUSH2 0x90 JUMPI DUP1 PUSH4 0x33BBC887 EQ PUSH2 0xA5 JUMPI DUP1 PUSH4 0xB2B98ED2 EQ PUSH2 0xB8 JUMPI DUP1 PUSH4 0xBC9CD2CE EQ PUSH2 0xCD JUMPI DUP1 PUSH4 0xC03CD5D1 EQ PUSH2 0xD5 JUMPI JUMPDEST PUSH1 0x0 DUP1 REVERT JUMPDEST PUSH2 0x7A PUSH2 0x75 CALLDATASIZE PUSH1 0x4 PUSH2 0x9C0 JUMP JUMPDEST PUSH2 0xEA JUMP JUMPDEST PUSH1 0x40 MLOAD PUSH2 0x87 SWAP2 SWAP1 PUSH2 0xD76 JUMP JUMPDEST PUSH1 0x40 MLOAD DUP1 SWAP2 SUB SWAP1 RETURN JUMPDEST PUSH2 0xA3 PUSH2 0x9E CALLDATASIZE PUSH1 0x4 PUSH2 0x9C0 JUMP JUMPDEST PUSH2 0x113 JUMP JUMPDEST STOP JUMPDEST PUSH2 0xA3 PUSH2 0xB3 CALLDATASIZE PUSH1 0x4 PUSH2 0x9FB JUMP JUMPDEST PUSH2 0x2BF JUMP JUMPDEST PUSH2 0xC0 PUSH2 0x383 JUMP JUMPDEST PUSH1 0x40 MLOAD PUSH2 0x87 SWAP2 SWAP1 PUSH2 0xC49 JUMP JUMPDEST PUSH2 0xC0 PUSH2 0x5FB JUMP JUMPDEST PUSH2 0xDD PUSH2 0x6FF JUMP JUMPDEST PUSH1 0x40 MLOAD PUSH2 0x87 SWAP2 SWAP1 PUSH2 0xBE9 JUMP JUMPDEST PUSH1 0x0 PUSH1 0x3 DUP3 PUSH1 0x40 MLOAD PUSH2 0xFC SWAP2 SWAP1 PUSH2 0xB1E JUMP JUMPDEST SWAP1 DUP2 MSTORE PUSH1 0x20 ADD PUSH1 0x40 MLOAD DUP1 SWAP2 SUB SWAP1 KECCAK256 SLOAD SWAP1 POP JUMPDEST SWAP2 SWAP1 POP JUMP JUMPDEST PUSH1 0x1 SLOAD PUSH2 0x12C ADD TIMESTAMP GT ISZERO PUSH2 0x142 JUMPI PUSH1 0x40 MLOAD PUSH3 0x461BCD PUSH1 0xE5 SHL DUP2 MSTORE PUSH1 0x4 ADD PUSH2 0x139 SWAP1 PUSH2 0xC93 JUMP JUMPDEST PUSH1 0x40 MLOAD DUP1 SWAP2 SUB SWAP1 REVERT JUMPDEST PUSH1 0x0 CALLER PUSH1 0x40 MLOAD PUSH1 0x20 ADD PUSH2 0x155 SWAP2 SWAP1 PUSH2 0xB01 JUMP JUMPDEST PUSH1 0x40 MLOAD PUSH1 0x20 DUP2 DUP4 SUB SUB DUP2 MSTORE SWAP1 PUSH1 0x40 MSTORE DUP1 MLOAD SWAP1 PUSH1 0x20 ADD KECCAK256 SWAP1 POP PUSH1 0x0 JUMPDEST PUSH1 0x5 SLOAD DUP2 LT ISZERO PUSH2 0x1B9 JUMPI DUP2 PUSH1 0x5 DUP3 DUP2 SLOAD DUP2 LT PUSH2 0x188 JUMPI INVALID JUMPDEST SWAP1 PUSH1 0x0 MSTORE PUSH1 0x20 PUSH1 0x0 KECCAK256 ADD SLOAD EQ ISZERO PUSH2 0x1B1 JUMPI PUSH1 0x40 MLOAD PUSH3 0x461BCD PUSH1 0xE5 SHL DUP2 MSTORE PUSH1 0x4 ADD PUSH2 0x139 SWAP1 PUSH2 0xD4A JUMP JUMPDEST PUSH1 0x1 ADD PUSH2 0x170 JUMP JUMPDEST POP PUSH1 0x5 DUP1 SLOAD PUSH1 0x1 DUP2 ADD DUP3 SSTORE PUSH1 0x0 SWAP2 DUP3 MSTORE PUSH32 0x36B6384B5ECA791C62761152D0C79BB0604C104A5FB6F4EB0703F3154BB3DB0 ADD DUP3 SWAP1 SSTORE DUP1 JUMPDEST PUSH1 0x4 SLOAD DUP2 LT ISZERO PUSH2 0x271 JUMPI DUP4 PUSH1 0x40 MLOAD PUSH1 0x20 ADD PUSH2 0x20B SWAP2 SWAP1 PUSH2 0xB1E JUMP JUMPDEST PUSH1 0x40 MLOAD PUSH1 0x20 DUP2 DUP4 SUB SUB DUP2 MSTORE SWAP1 PUSH1 0x40 MSTORE DUP1 MLOAD SWAP1 PUSH1 0x20 ADD KECCAK256 PUSH1 0x4 DUP3 DUP2 SLOAD DUP2 LT PUSH2 0x22E JUMPI INVALID JUMPDEST SWAP1 PUSH1 0x0 MSTORE PUSH1 0x20 PUSH1 0x0 KECCAK256 ADD PUSH1 0x40 MLOAD PUSH1 0x20 ADD PUSH2 0x248 SWAP2 SWAP1 PUSH2 0xBD6 JUMP JUMPDEST PUSH1 0x40 MLOAD PUSH1 0x20 DUP2 DUP4 SUB SUB DUP2 MSTORE SWAP1 PUSH1 0x40 MSTORE DUP1 MLOAD SWAP1 PUSH1 0x20 ADD KECCAK256 EQ ISZERO PUSH2 0x269 JUMPI PUSH1 0x1 SWAP2 POP JUMPDEST PUSH1 0x1 ADD PUSH2 0x1F0 JUMP JUMPDEST POP PUSH1 0x1 DUP2 ISZERO ISZERO EQ PUSH2 0x294 JUMPI PUSH1 0x40 MLOAD PUSH3 0x461BCD PUSH1 0xE5 SHL DUP2 MSTORE PUSH1 0x4 ADD PUSH2 0x139 SWAP1 PUSH2 0xD04 JUMP JUMPDEST PUSH1 0x3 DUP4 PUSH1 0x40 MLOAD PUSH2 0x2A4 SWAP2 SWAP1 PUSH2 0xB1E JUMP JUMPDEST SWAP1 DUP2 MSTORE PUSH1 0x40 MLOAD SWAP1 DUP2 SWAP1 SUB PUSH1 0x20 ADD SWAP1 KECCAK256 DUP1 SLOAD PUSH1 0x1 ADD SWAP1 SSTORE POP POP POP JUMP JUMPDEST PUSH1 0x1 SLOAD PUSH2 0x12C ADD TIMESTAMP GT ISZERO PUSH2 0x2E5 JUMPI PUSH1 0x40 MLOAD PUSH3 0x461BCD PUSH1 0xE5 SHL DUP2 MSTORE PUSH1 0x4 ADD PUSH2 0x139 SWAP1 PUSH2 0xCBF JUMP JUMPDEST PUSH1 0x0 DUP4 DUP4 DUP4 PUSH1 0x40 MLOAD PUSH1 0x20 ADD PUSH2 0x2FC SWAP4 SWAP3 SWAP2 SWAP1 PUSH2 0xB9F JUMP JUMPDEST PUSH1 0x40 MLOAD PUSH1 0x20 DUP2 DUP4 SUB SUB DUP2 MSTORE SWAP1 PUSH1 0x40 MSTORE DUP1 MLOAD SWAP1 PUSH1 0x20 ADD KECCAK256 SWAP1 POP DUP1 PUSH1 0x2 DUP6 PUSH1 0x40 MLOAD PUSH2 0x325 SWAP2 SWAP1 PUSH2 0xB1E JUMP JUMPDEST SWAP1 DUP2 MSTORE PUSH1 0x40 MLOAD PUSH1 0x20 SWAP2 DUP2 SWAP1 SUB DUP3 ADD SWAP1 KECCAK256 SWAP2 SWAP1 SWAP2 SSTORE PUSH1 0x4 DUP1 SLOAD PUSH1 0x1 DUP2 ADD DUP3 SSTORE PUSH1 0x0 SWAP2 SWAP1 SWAP2 MSTORE DUP6 MLOAD PUSH2 0x37C SWAP3 PUSH32 0x8A35ACFBC15FF81A39AE7D344FD709F28E8600B4AA8C65C6B64BFE7FE36BD19B SWAP1 SWAP3 ADD SWAP2 DUP8 ADD SWAP1 PUSH2 0x8AF JUMP JUMPDEST POP POP POP POP POP JUMP JUMPDEST PUSH1 0x60 PUSH1 0x1 SLOAD PUSH2 0x12C ADD TIMESTAMP GT PUSH2 0x3AA JUMPI PUSH1 0x40 MLOAD PUSH3 0x461BCD PUSH1 0xE5 SHL DUP2 MSTORE PUSH1 0x4 ADD PUSH2 0x139 SWAP1 PUSH2 0xC5C JUMP JUMPDEST PUSH1 0x60 PUSH1 0x4 PUSH1 0x0 DUP2 SLOAD DUP2 LT PUSH2 0x3BA JUMPI INVALID JUMPDEST PUSH1 0x0 SWAP2 DUP3 MSTORE PUSH1 0x20 SWAP2 DUP3 SWAP1 KECCAK256 ADD DUP1 SLOAD PUSH1 0x40 DUP1 MLOAD PUSH1 0x1F PUSH1 0x2 PUSH1 0x0 NOT PUSH2 0x100 PUSH1 0x1 DUP8 AND ISZERO MUL ADD SWAP1 SWAP5 AND SWAP4 SWAP1 SWAP4 DIV SWAP3 DUP4 ADD DUP6 SWAP1 DIV DUP6 MUL DUP2 ADD DUP6 ADD SWAP1 SWAP2 MSTORE DUP2 DUP2 MSTORE SWAP3 DUP4 ADD DUP3 DUP3 DUP1 ISZERO PUSH2 0x448 JUMPI DUP1 PUSH1 0x1F LT PUSH2 0x41D JUMPI PUSH2 0x100 DUP1 DUP4 SLOAD DIV MUL DUP4 MSTORE SWAP2 PUSH1 0x20 ADD SWAP2 PUSH2 0x448 JUMP JUMPDEST DUP3 ADD SWAP2 SWAP1 PUSH1 0x0 MSTORE PUSH1 0x20 PUSH1 0x0 KECCAK256 SWAP1 JUMPDEST DUP2 SLOAD DUP2 MSTORE SWAP1 PUSH1 0x1 ADD SWAP1 PUSH1 0x20 ADD DUP1 DUP4 GT PUSH2 0x42B JUMPI DUP3 SWAP1 SUB PUSH1 0x1F AND DUP3 ADD SWAP2 JUMPDEST POP POP POP POP POP SWAP1 POP PUSH1 0x0 DUP1 PUSH1 0x1 SWAP1 POP JUMPDEST PUSH1 0x4 SLOAD DUP2 LT ISZERO PUSH2 0x5CD JUMPI PUSH1 0x3 PUSH1 0x4 DUP3 DUP2 SLOAD DUP2 LT PUSH2 0x470 JUMPI INVALID JUMPDEST SWAP1 PUSH1 0x0 MSTORE PUSH1 0x20 PUSH1 0x0 KECCAK256 ADD PUSH1 0x40 MLOAD PUSH2 0x487 SWAP2 SWAP1 PUSH2 0xBD6 JUMP JUMPDEST SWAP1 DUP2 MSTORE PUSH1 0x20 ADD PUSH1 0x40 MLOAD DUP1 SWAP2 SUB SWAP1 KECCAK256 SLOAD PUSH1 0x3 DUP5 PUSH1 0x40 MLOAD PUSH2 0x4A6 SWAP2 SWAP1 PUSH2 0xB1E JUMP JUMPDEST SWAP1 DUP2 MSTORE PUSH1 0x20 ADD PUSH1 0x40 MLOAD DUP1 SWAP2 SUB SWAP1 KECCAK256 SLOAD LT ISZERO PUSH2 0x566 JUMPI PUSH1 0x4 DUP2 DUP2 SLOAD DUP2 LT PUSH2 0x4C8 JUMPI INVALID JUMPDEST PUSH1 0x0 SWAP2 DUP3 MSTORE PUSH1 0x20 SWAP2 DUP3 SWAP1 KECCAK256 ADD DUP1 SLOAD PUSH1 0x40 DUP1 MLOAD PUSH1 0x1F PUSH1 0x2 PUSH1 0x0 NOT PUSH2 0x100 PUSH1 0x1 DUP8 AND ISZERO MUL ADD SWAP1 SWAP5 AND SWAP4 SWAP1 SWAP4 DIV SWAP3 DUP4 ADD DUP6 SWAP1 DIV DUP6 MUL DUP2 ADD DUP6 ADD SWAP1 SWAP2 MSTORE DUP2 DUP2 MSTORE SWAP3 DUP4 ADD DUP3 DUP3 DUP1 ISZERO PUSH2 0x556 JUMPI DUP1 PUSH1 0x1F LT PUSH2 0x52B JUMPI PUSH2 0x100 DUP1 DUP4 SLOAD DIV MUL DUP4 MSTORE SWAP2 PUSH1 0x20 ADD SWAP2 PUSH2 0x556 JUMP JUMPDEST DUP3 ADD SWAP2 SWAP1 PUSH1 0x0 MSTORE PUSH1 0x20 PUSH1 0x0 KECCAK256 SWAP1 JUMPDEST DUP2 SLOAD DUP2 MSTORE SWAP1 PUSH1 0x1 ADD SWAP1 PUSH1 0x20 ADD DUP1 DUP4 GT PUSH2 0x539 JUMPI DUP3 SWAP1 SUB PUSH1 0x1F AND DUP3 ADD SWAP2 JUMPDEST POP POP POP POP POP SWAP3 POP PUSH1 0x0 SWAP2 POP PUSH2 0x5C5 JUMP JUMPDEST PUSH1 0x3 PUSH1 0x4 DUP3 DUP2 SLOAD DUP2 LT PUSH2 0x575 JUMPI INVALID JUMPDEST SWAP1 PUSH1 0x0 MSTORE PUSH1 0x20 PUSH1 0x0 KECCAK256 ADD PUSH1 0x40 MLOAD PUSH2 0x58C SWAP2 SWAP1 PUSH2 0xBD6 JUMP JUMPDEST SWAP1 DUP2 MSTORE PUSH1 0x20 ADD PUSH1 0x40 MLOAD DUP1 SWAP2 SUB SWAP1 KECCAK256 SLOAD PUSH1 0x3 DUP5 PUSH1 0x40 MLOAD PUSH2 0x5AB SWAP2 SWAP1 PUSH2 0xB1E JUMP JUMPDEST SWAP1 DUP2 MSTORE PUSH1 0x20 ADD PUSH1 0x40 MLOAD DUP1 SWAP2 SUB SWAP1 KECCAK256 SLOAD EQ ISZERO PUSH2 0x5C5 JUMPI PUSH1 0x1 SWAP2 POP JUMPDEST PUSH1 0x1 ADD PUSH2 0x457 JUMP JUMPDEST POP PUSH1 0x1 DUP2 ISZERO ISZERO EQ ISZERO PUSH2 0x5F5 JUMPI PUSH1 0x40 MLOAD DUP1 PUSH1 0x60 ADD PUSH1 0x40 MSTORE DUP1 PUSH1 0x26 DUP2 MSTORE PUSH1 0x20 ADD PUSH2 0xDB0 PUSH1 0x26 SWAP2 CODECOPY SWAP2 POP JUMPDEST POP SWAP1 POP SWAP1 JUMP JUMPDEST PUSH1 0x60 DUP1 PUSH1 0x0 JUMPDEST PUSH1 0x4 SLOAD DUP2 LT ISZERO PUSH2 0x5F5 JUMPI DUP2 PUSH1 0x4 DUP3 DUP2 SLOAD DUP2 LT PUSH2 0x619 JUMPI INVALID JUMPDEST SWAP1 PUSH1 0x0 MSTORE PUSH1 0x20 PUSH1 0x0 KECCAK256 ADD PUSH2 0x6D3 PUSH2 0x6CE PUSH1 0x4 DUP6 DUP2 SLOAD DUP2 LT PUSH2 0x636 JUMPI INVALID JUMPDEST PUSH1 0x0 SWAP2 DUP3 MSTORE PUSH1 0x20 SWAP2 DUP3 SWAP1 KECCAK256 ADD DUP1 SLOAD PUSH1 0x40 DUP1 MLOAD PUSH1 0x1F PUSH1 0x2 PUSH1 0x0 NOT PUSH2 0x100 PUSH1 0x1 DUP8 AND ISZERO MUL ADD SWAP1 SWAP5 AND SWAP4 SWAP1 SWAP4 DIV SWAP3 DUP4 ADD DUP6 SWAP1 DIV DUP6 MUL DUP2 ADD DUP6 ADD SWAP1 SWAP2 MSTORE DUP2 DUP2 MSTORE SWAP3 DUP4 ADD DUP3 DUP3 DUP1 ISZERO PUSH2 0x6C4 JUMPI DUP1 PUSH1 0x1F LT PUSH2 0x699 JUMPI PUSH2 0x100 DUP1 DUP4 SLOAD DIV MUL DUP4 MSTORE SWAP2 PUSH1 0x20 ADD SWAP2 PUSH2 0x6C4 JUMP JUMPDEST DUP3 ADD SWAP2 SWAP1 PUSH1 0x0 MSTORE PUSH1 0x20 PUSH1 0x0 KECCAK256 SWAP1 JUMPDEST DUP2 SLOAD DUP2 MSTORE SWAP1 PUSH1 0x1 ADD SWAP1 PUSH1 0x20 ADD DUP1 DUP4 GT PUSH2 0x6A7 JUMPI DUP3 SWAP1 SUB PUSH1 0x1F AND DUP3 ADD SWAP2 JUMPDEST POP POP POP POP POP PUSH2 0xEA JUMP JUMPDEST PUSH2 0x7D7 JUMP JUMPDEST PUSH1 0x40 MLOAD PUSH1 0x20 ADD PUSH2 0x6E5 SWAP4 SWAP3 SWAP2 SWAP1 PUSH2 0xB3A JUMP JUMPDEST PUSH1 0x40 DUP1 MLOAD PUSH1 0x1F NOT DUP2 DUP5 SUB ADD DUP2 MSTORE SWAP2 SWAP1 MSTORE SWAP2 POP PUSH1 0x1 ADD PUSH2 0x601 JUMP JUMPDEST PUSH1 0x60 PUSH1 0x4 DUP1 SLOAD DUP1 PUSH1 0x20 MUL PUSH1 0x20 ADD PUSH1 0x40 MLOAD SWAP1 DUP2 ADD PUSH1 0x40 MSTORE DUP1 SWAP3 SWAP2 SWAP1 DUP2 DUP2 MSTORE PUSH1 0x20 ADD PUSH1 0x0 SWAP1 JUMPDEST DUP3 DUP3 LT ISZERO PUSH2 0x7CE JUMPI PUSH1 0x0 DUP5 DUP2 MSTORE PUSH1 0x20 SWAP1 DUP2 SWAP1 KECCAK256 DUP4 ADD DUP1 SLOAD PUSH1 0x40 DUP1 MLOAD PUSH1 0x1F PUSH1 0x2 PUSH1 0x0 NOT PUSH2 0x100 PUSH1 0x1 DUP8 AND ISZERO MUL ADD SWAP1 SWAP5 AND SWAP4 SWAP1 SWAP4 DIV SWAP3 DUP4 ADD DUP6 SWAP1 DIV DUP6 MUL DUP2 ADD DUP6 ADD SWAP1 SWAP2 MSTORE DUP2 DUP2 MSTORE SWAP3 DUP4 ADD DUP3 DUP3 DUP1 ISZERO PUSH2 0x7BA JUMPI DUP1 PUSH1 0x1F LT PUSH2 0x78F JUMPI PUSH2 0x100 DUP1 DUP4 SLOAD DIV MUL DUP4 MSTORE SWAP2 PUSH1 0x20 ADD SWAP2 PUSH2 0x7BA JUMP JUMPDEST DUP3 ADD SWAP2 SWAP1 PUSH1 0x0 MSTORE PUSH1 0x20 PUSH1 0x0 KECCAK256 SWAP1 JUMPDEST DUP2 SLOAD DUP2 MSTORE SWAP1 PUSH1 0x1 ADD SWAP1 PUSH1 0x20 ADD DUP1 DUP4 GT PUSH2 0x79D JUMPI DUP3 SWAP1 SUB PUSH1 0x1F AND DUP3 ADD SWAP2 JUMPDEST POP POP POP POP POP DUP2 MSTORE PUSH1 0x20 ADD SWAP1 PUSH1 0x1 ADD SWAP1 PUSH2 0x723 JUMP JUMPDEST POP POP POP POP SWAP1 POP SWAP1 JUMP JUMPDEST PUSH1 0x60 DUP2 PUSH2 0x7FC JUMPI POP PUSH1 0x40 DUP1 MLOAD DUP1 DUP3 ADD SWAP1 SWAP2 MSTORE PUSH1 0x1 DUP2 MSTORE PUSH1 0x3 PUSH1 0xFC SHL PUSH1 0x20 DUP3 ADD MSTORE PUSH2 0x10E JUMP JUMPDEST DUP2 PUSH1 0x0 JUMPDEST DUP2 ISZERO PUSH2 0x814 JUMPI PUSH1 0x1 ADD PUSH1 0xA DUP3 DIV SWAP2 POP PUSH2 0x800 JUMP JUMPDEST PUSH1 0x60 DUP2 PUSH8 0xFFFFFFFFFFFFFFFF DUP2 GT DUP1 ISZERO PUSH2 0x82D JUMPI PUSH1 0x0 DUP1 REVERT JUMPDEST POP PUSH1 0x40 MLOAD SWAP1 DUP1 DUP3 MSTORE DUP1 PUSH1 0x1F ADD PUSH1 0x1F NOT AND PUSH1 0x20 ADD DUP3 ADD PUSH1 0x40 MSTORE DUP1 ISZERO PUSH2 0x858 JUMPI PUSH1 0x20 DUP3 ADD DUP2 DUP1 CALLDATASIZE DUP4 CALLDATACOPY ADD SWAP1 POP JUMPDEST POP SWAP1 POP PUSH1 0x0 NOT DUP3 ADD JUMPDEST DUP6 ISZERO PUSH2 0x8A6 JUMPI PUSH1 0xA DUP7 MOD PUSH1 0x30 ADD PUSH1 0xF8 SHL DUP3 DUP3 DUP1 PUSH1 0x1 SWAP1 SUB SWAP4 POP DUP2 MLOAD DUP2 LT PUSH2 0x884 JUMPI INVALID JUMPDEST PUSH1 0x20 ADD ADD SWAP1 PUSH1 0x1 PUSH1 0x1 PUSH1 0xF8 SHL SUB NOT AND SWAP1 DUP2 PUSH1 0x0 BYTE SWAP1 MSTORE8 POP PUSH1 0xA DUP7 DIV SWAP6 POP PUSH2 0x861 JUMP JUMPDEST POP SWAP5 SWAP4 POP POP POP POP JUMP JUMPDEST DUP3 DUP1 SLOAD PUSH1 0x1 DUP2 PUSH1 0x1 AND ISZERO PUSH2 0x100 MUL SUB AND PUSH1 0x2 SWAP1 DIV SWAP1 PUSH1 0x0 MSTORE PUSH1 0x20 PUSH1 0x0 KECCAK256 SWAP1 PUSH1 0x1F ADD PUSH1 0x20 SWAP1 DIV DUP2 ADD SWAP3 DUP3 PUSH1 0x1F LT PUSH2 0x8F0 JUMPI DUP1 MLOAD PUSH1 0xFF NOT AND DUP4 DUP1 ADD OR DUP6 SSTORE PUSH2 0x91D JUMP JUMPDEST DUP3 DUP1 ADD PUSH1 0x1 ADD DUP6 SSTORE DUP3 ISZERO PUSH2 0x91D JUMPI SWAP2 DUP3 ADD JUMPDEST DUP3 DUP2 GT ISZERO PUSH2 0x91D JUMPI DUP3 MLOAD DUP3 SSTORE SWAP2 PUSH1 0x20 ADD SWAP2 SWAP1 PUSH1 0x1 ADD SWAP1 PUSH2 0x902 JUMP JUMPDEST POP PUSH2 0x929 SWAP3 SWAP2 POP PUSH2 0x92D JUMP JUMPDEST POP SWAP1 JUMP JUMPDEST JUMPDEST DUP1 DUP3 GT ISZERO PUSH2 0x929 JUMPI PUSH1 0x0 DUP2 SSTORE PUSH1 0x1 ADD PUSH2 0x92E JUMP JUMPDEST PUSH1 0x0 DUP3 PUSH1 0x1F DUP4 ADD SLT PUSH2 0x952 JUMPI DUP1 DUP2 REVERT JUMPDEST DUP2 CALLDATALOAD PUSH8 0xFFFFFFFFFFFFFFFF DUP1 DUP3 GT ISZERO PUSH2 0x969 JUMPI DUP3 DUP4 REVERT JUMPDEST PUSH1 0x40 MLOAD PUSH1 0x1F DUP4 ADD PUSH1 0x1F NOT AND DUP2 ADD PUSH1 0x20 ADD DUP3 DUP2 GT DUP3 DUP3 LT OR ISZERO PUSH2 0x989 JUMPI DUP5 DUP6 REVERT JUMPDEST PUSH1 0x40 MSTORE DUP3 DUP2 MSTORE SWAP3 POP DUP3 DUP5 DUP4 ADD PUSH1 0x20 ADD DUP7 LT ISZERO PUSH2 0x9A4 JUMPI PUSH1 0x0 DUP1 REVERT JUMPDEST DUP3 PUSH1 0x20 DUP7 ADD PUSH1 0x20 DUP4 ADD CALLDATACOPY PUSH1 0x0 PUSH1 0x20 DUP5 DUP4 ADD ADD MSTORE POP POP POP SWAP3 SWAP2 POP POP JUMP JUMPDEST PUSH1 0x0 PUSH1 0x20 DUP3 DUP5 SUB SLT ISZERO PUSH2 0x9D1 JUMPI DUP1 DUP2 REVERT JUMPDEST DUP2 CALLDATALOAD PUSH8 0xFFFFFFFFFFFFFFFF DUP2 GT ISZERO PUSH2 0x9E7 JUMPI DUP2 DUP3 REVERT JUMPDEST PUSH2 0x9F3 DUP5 DUP3 DUP6 ADD PUSH2 0x942 JUMP JUMPDEST SWAP5 SWAP4 POP POP POP POP JUMP JUMPDEST PUSH1 0x0 DUP1 PUSH1 0x0 PUSH1 0x60 DUP5 DUP7 SUB SLT ISZERO PUSH2 0xA0F JUMPI DUP2 DUP3 REVERT JUMPDEST DUP4 CALLDATALOAD PUSH8 0xFFFFFFFFFFFFFFFF DUP1 DUP3 GT ISZERO PUSH2 0xA26 JUMPI DUP4 DUP5 REVERT JUMPDEST PUSH2 0xA32 DUP8 DUP4 DUP9 ADD PUSH2 0x942 JUMP JUMPDEST SWAP5 POP PUSH1 0x20 DUP7 ADD CALLDATALOAD SWAP4 POP PUSH1 0x40 DUP7 ADD CALLDATALOAD SWAP2 POP DUP1 DUP3 GT ISZERO PUSH2 0xA4E JUMPI DUP3 DUP4 REVERT JUMPDEST POP PUSH2 0xA5B DUP7 DUP3 DUP8 ADD PUSH2 0x942 JUMP JUMPDEST SWAP2 POP POP SWAP3 POP SWAP3 POP SWAP3 JUMP JUMPDEST PUSH1 0x0 DUP2 MLOAD DUP1 DUP5 MSTORE PUSH2 0xA7D DUP2 PUSH1 0x20 DUP7 ADD PUSH1 0x20 DUP7 ADD PUSH2 0xD7F JUMP JUMPDEST PUSH1 0x1F ADD PUSH1 0x1F NOT AND SWAP3 SWAP1 SWAP3 ADD PUSH1 0x20 ADD SWAP3 SWAP2 POP POP JUMP JUMPDEST PUSH1 0x0 DUP2 SLOAD PUSH1 0x1 DUP1 DUP3 AND PUSH1 0x0 DUP2 EQ PUSH2 0xAAF JUMPI PUSH1 0x1 DUP2 EQ PUSH2 0xAC6 JUMPI PUSH2 0xAF8 JUMP JUMPDEST PUSH1 0xFF NOT DUP4 AND DUP7 MSTORE PUSH1 0x2 DUP4 DIV PUSH1 0x7F AND DUP7 ADD SWAP4 POP PUSH2 0xAF8 JUMP JUMPDEST PUSH1 0x2 DUP4 DIV DUP6 PUSH1 0x0 MSTORE PUSH1 0x20 DUP1 PUSH1 0x0 KECCAK256 PUSH1 0x0 JUMPDEST DUP4 DUP2 LT ISZERO PUSH2 0xAF0 JUMPI DUP2 SLOAD DUP11 DUP3 ADD MSTORE SWAP1 DUP6 ADD SWAP1 DUP3 ADD PUSH2 0xAD7 JUMP JUMPDEST POP POP POP DUP7 ADD SWAP4 POP JUMPDEST POP POP POP SWAP3 SWAP2 POP POP JUMP JUMPDEST PUSH1 0x60 SWAP2 SWAP1 SWAP2 SHL PUSH12 0xFFFFFFFFFFFFFFFFFFFFFFFF NOT AND DUP2 MSTORE PUSH1 0x14 ADD SWAP1 JUMP JUMPDEST PUSH1 0x0 DUP3 MLOAD PUSH2 0xB30 DUP2 DUP5 PUSH1 0x20 DUP8 ADD PUSH2 0xD7F JUMP JUMPDEST SWAP2 SWAP1 SWAP2 ADD SWAP3 SWAP2 POP POP JUMP JUMPDEST PUSH1 0x0 DUP5 MLOAD PUSH2 0xB4C DUP2 DUP5 PUSH1 0x20 DUP10 ADD PUSH2 0xD7F JUMP JUMPDEST PUSH1 0x5 PUSH1 0xFB SHL SWAP1 DUP4 ADD SWAP1 DUP2 MSTORE PUSH2 0xB64 PUSH1 0x1 DUP3 ADD DUP7 PUSH2 0xA91 JUMP JUMPDEST SWAP1 POP PUSH2 0x161 PUSH1 0xF5 SHL DUP2 MSTORE DUP4 MLOAD PUSH2 0xB81 DUP2 PUSH1 0x2 DUP5 ADD PUSH1 0x20 DUP9 ADD PUSH2 0xD7F JUMP JUMPDEST PUSH4 0x292D2D2D PUSH1 0xE0 SHL PUSH1 0x2 SWAP3 SWAP1 SWAP2 ADD SWAP2 DUP3 ADD MSTORE PUSH1 0x6 ADD SWAP6 SWAP5 POP POP POP POP POP JUMP JUMPDEST PUSH1 0x0 DUP5 MLOAD PUSH2 0xBB1 DUP2 DUP5 PUSH1 0x20 DUP10 ADD PUSH2 0xD7F JUMP JUMPDEST DUP3 ADD DUP5 DUP2 MSTORE DUP4 MLOAD PUSH2 0xBC9 DUP2 PUSH1 0x20 DUP1 DUP6 ADD SWAP1 DUP9 ADD PUSH2 0xD7F JUMP JUMPDEST ADD PUSH1 0x20 ADD SWAP6 SWAP5 POP POP POP POP POP JUMP JUMPDEST PUSH1 0x0 PUSH2 0xBE2 DUP3 DUP5 PUSH2 0xA91 JUMP JUMPDEST SWAP4 SWAP3 POP POP POP JUMP JUMPDEST PUSH1 0x0 PUSH1 0x20 DUP1 DUP4 ADD DUP2 DUP5 MSTORE DUP1 DUP6 MLOAD DUP1 DUP4 MSTORE PUSH1 0x40 DUP7 ADD SWAP2 POP PUSH1 0x40 DUP5 DUP3 MUL DUP8 ADD ADD SWAP3 POP DUP4 DUP8 ADD DUP6 JUMPDEST DUP3 DUP2 LT ISZERO PUSH2 0xC3C JUMPI PUSH1 0x3F NOT DUP9 DUP7 SUB ADD DUP5 MSTORE PUSH2 0xC2A DUP6 DUP4 MLOAD PUSH2 0xA65 JUMP JUMPDEST SWAP5 POP SWAP3 DUP6 ADD SWAP3 SWAP1 DUP6 ADD SWAP1 PUSH1 0x1 ADD PUSH2 0xC0E JUMP JUMPDEST POP SWAP3 SWAP8 SWAP7 POP POP POP POP POP POP POP JUMP JUMPDEST PUSH1 0x0 PUSH1 0x20 DUP3 MSTORE PUSH2 0xBE2 PUSH1 0x20 DUP4 ADD DUP5 PUSH2 0xA65 JUMP JUMPDEST PUSH1 0x20 DUP1 DUP3 MSTORE PUSH1 0x17 SWAP1 DUP3 ADD MSTORE PUSH32 0x566F74696E67206973206E6F74206F766572207965742E000000000000000000 PUSH1 0x40 DUP3 ADD MSTORE PUSH1 0x60 ADD SWAP1 JUMP JUMPDEST PUSH1 0x20 DUP1 DUP3 MSTORE PUSH1 0x12 SWAP1 DUP3 ADD MSTORE PUSH18 0x63616E206E6F206C6F6E67657220766F7465 PUSH1 0x70 SHL PUSH1 0x40 DUP3 ADD MSTORE PUSH1 0x60 ADD SWAP1 JUMP JUMPDEST PUSH1 0x20 DUP1 DUP3 MSTORE PUSH1 0x25 SWAP1 DUP3 ADD MSTORE PUSH32 0x43616E646964617465732063616E206E6F206C6F6E676572206265207375626D PUSH1 0x40 DUP3 ADD MSTORE PUSH5 0x1A5D1D1959 PUSH1 0xDA SHL PUSH1 0x60 DUP3 ADD MSTORE PUSH1 0x80 ADD SWAP1 JUMP JUMPDEST PUSH1 0x20 DUP1 DUP3 MSTORE PUSH1 0x26 SWAP1 DUP3 ADD MSTORE PUSH32 0x4E6F20686179206E696E67756E2063616E64696461746F20636F6E2065736520 PUSH1 0x40 DUP3 ADD MSTORE PUSH6 0x6E6F6D627265 PUSH1 0xD0 SHL PUSH1 0x60 DUP3 ADD MSTORE PUSH1 0x80 ADD SWAP1 JUMP JUMPDEST PUSH1 0x20 DUP1 DUP3 MSTORE PUSH1 0x12 SWAP1 DUP3 ADD MSTORE PUSH18 0x596F7520616C726561647920766F74656421 PUSH1 0x70 SHL PUSH1 0x40 DUP3 ADD MSTORE PUSH1 0x60 ADD SWAP1 JUMP JUMPDEST SWAP1 DUP2 MSTORE PUSH1 0x20 ADD SWAP1 JUMP JUMPDEST PUSH1 0x0 JUMPDEST DUP4 DUP2 LT ISZERO PUSH2 0xD9A JUMPI DUP2 DUP2 ADD MLOAD DUP4 DUP3 ADD MSTORE PUSH1 0x20 ADD PUSH2 0xD82 JUMP JUMPDEST DUP4 DUP2 GT ISZERO PUSH2 0xDA9 JUMPI PUSH1 0x0 DUP5 DUP5 ADD MSTORE JUMPDEST POP POP POP POP JUMP INVALID SLOAD PUSH9 0x657265206973206120 PUSH21 0x6965206265747765656E207468652063616E646964 PUSH2 0x7465 PUSH20 0x21A2646970667358221220A7EA44859DE6990982 GASPRICE PUSH16 0x7E05461E55B2723FBF0C41774A1100DE CALLDATASIZE CREATE 0x2A STATICCALL 0x5D PUSH5 0x736F6C6343 STOP MOD 0xC STOP CALLER "
				},
				"gasEstimates": {
					"creation": {
						"codeDepositCost": "719000",
						"executionCost": "41593",
						"totalCost": "760593"
					},
					"external": {
						"Vote(string)": "infinite",
						"Winner()": "infinite",
						"candidateRegistration(string,uint256,string)": "infinite",
						"seeCandidates()": "infinite",
						"seeResults()": "infinite",
						"seeVotes(string)": "infinite"
					},
					"internal": {
						"uint2str(uint256)": "infinite"
					}
				},
				"methodIdentifiers": {
					"Vote(string)": "323082d7",
					"Winner()": "b2b98ed2",
					"candidateRegistration(string,uint256,string)": "33bbc887",
					"seeCandidates()": "c03cd5d1",
					"seeResults()": "bc9cd2ce",
					"seeVotes(string)": "032a08d9"
				}
			},
			"storageLayout": {
				"storage": [
					{
						"astId": 4,
						"contract": "contracts/votingsystem.sol:voting_system",
						"label": "owner",
						"offset": 0,
						"slot": "0",
						"type": "t_address"
					},
					{
						"astId": 6,
						"contract": "contracts/votingsystem.sol:voting_system",
						"label": "start_voting",
						"offset": 0,
						"slot": "1",
						"type": "t_uint256"
					},
					{
						"astId": 23,
						"contract": "contracts/votingsystem.sol:voting_system",
						"label": "candidate_ID",
						"offset": 0,
						"slot": "2",
						"type": "t_mapping(t_string_memory_ptr,t_bytes32)"
					},
					{
						"astId": 27,
						"contract": "contracts/votingsystem.sol:voting_system",
						"label": "candidate_votes",
						"offset": 0,
						"slot": "3",
						"type": "t_mapping(t_string_memory_ptr,t_uint256)"
					},
					{
						"astId": 30,
						"contract": "contracts/votingsystem.sol:voting_system",
						"label": "candidates",
						"offset": 0,
						"slot": "4",
						"type": "t_array(t_string_storage)dyn_storage"
					},
					{
						"astId": 33,
						"contract": "contracts/votingsystem.sol:voting_system",
						"label": "voters",
						"offset": 0,
						"slot": "5",
						"type": "t_array(t_bytes32)dyn_storage"
					}
				],
				"types": {
					"t_address": {
						"encoding": "inplace",
						"label": "address",
						"numberOfBytes": "20"
					},
					"t_array(t_bytes32)dyn_storage": {
						"base": "t_bytes32",
						"encoding": "dynamic_array",
						"label": "bytes32[]",
						"numberOfBytes": "32"
					},
					"t_array(t_string_storage)dyn_storage": {
						"base": "t_string_storage",
						"encoding": "dynamic_array",
						"label": "string[]",
						"numberOfBytes": "32"
					},
					"t_bytes32": {
						"encoding": "inplace",
						"label": "bytes32",
						"numberOfBytes": "32"
					},
					"t_mapping(t_string_memory_ptr,t_bytes32)": {
						"encoding": "mapping",
						"key": "t_string_memory_ptr",
						"label": "mapping(string => bytes32)",
						"numberOfBytes": "32",
						"value": "t_bytes32"
					},
					"t_mapping(t_string_memory_ptr,t_uint256)": {
						"encoding": "mapping",
						"key": "t_string_memory_ptr",
						"label": "mapping(string => uint256)",
						"numberOfBytes": "32",
						"value": "t_uint256"
					},
					"t_string_memory_ptr": {
						"encoding": "bytes",
						"label": "string",
						"numberOfBytes": "32"
					},
					"t_string_storage": {
						"encoding": "bytes",
						"label": "string",
						"numberOfBytes": "32"
					},
					"t_uint256": {
						"encoding": "inplace",
						"label": "uint256",
						"numberOfBytes": "32"
					}
				}
			},
			"userdoc": {
				"kind": "user",
				"methods": {},
				"version": 1
			}
		}
	}
}