{
	"contracts/solidity-files-main/contracts/oatfinally.sol": {
		"OneAnonataTime": {
			"abi": [
				{
					"inputs": [],
					"stateMutability": "nonpayable",
					"type": "constructor"
				},
				{
					"anonymous": false,
					"inputs": [
						{
							"indexed": true,
							"internalType": "address",
							"name": "owner",
							"type": "address"
						},
						{
							"indexed": true,
							"internalType": "address",
							"name": "spender",
							"type": "address"
						},
						{
							"indexed": false,
							"internalType": "uint256",
							"name": "value",
							"type": "uint256"
						}
					],
					"name": "Approval",
					"type": "event"
				},
				{
					"anonymous": false,
					"inputs": [
						{
							"indexed": true,
							"internalType": "address",
							"name": "previousOwner",
							"type": "address"
						},
						{
							"indexed": true,
							"internalType": "address",
							"name": "newOwner",
							"type": "address"
						}
					],
					"name": "OwnershipTransferred",
					"type": "event"
				},
				{
					"anonymous": false,
					"inputs": [
						{
							"indexed": true,
							"internalType": "address",
							"name": "from",
							"type": "address"
						},
						{
							"indexed": true,
							"internalType": "address",
							"name": "to",
							"type": "address"
						},
						{
							"indexed": false,
							"internalType": "uint256",
							"name": "value",
							"type": "uint256"
						}
					],
					"name": "Transfer",
					"type": "event"
				},
				{
					"anonymous": false,
					"inputs": [
						{
							"indexed": false,
							"internalType": "uint256",
							"name": "amount",
							"type": "uint256"
						}
					],
					"name": "updateThresold",
					"type": "event"
				},
				{
					"inputs": [],
					"name": "DEAD_WALLET",
					"outputs": [
						{
							"internalType": "address",
							"name": "",
							"type": "address"
						}
					],
					"stateMutability": "view",
					"type": "function"
				},
				{
					"inputs": [],
					"name": "_maxTxAmount",
					"outputs": [
						{
							"internalType": "uint256",
							"name": "",
							"type": "uint256"
						}
					],
					"stateMutability": "view",
					"type": "function"
				},
				{
					"inputs": [],
					"name": "_maxWalletSize",
					"outputs": [
						{
							"internalType": "uint256",
							"name": "",
							"type": "uint256"
						}
					],
					"stateMutability": "view",
					"type": "function"
				},
				{
					"inputs": [
						{
							"internalType": "address",
							"name": "jaredAddress",
							"type": "address"
						}
					],
					"name": "addJaredAddress",
					"outputs": [],
					"stateMutability": "nonpayable",
					"type": "function"
				},
				{
					"inputs": [
						{
							"internalType": "address",
							"name": "noFeeAddress",
							"type": "address"
						}
					],
					"name": "addtoNofee",
					"outputs": [],
					"stateMutability": "nonpayable",
					"type": "function"
				},
				{
					"inputs": [
						{
							"internalType": "address",
							"name": "holder",
							"type": "address"
						},
						{
							"internalType": "address",
							"name": "spender",
							"type": "address"
						}
					],
					"name": "allowance",
					"outputs": [
						{
							"internalType": "uint256",
							"name": "",
							"type": "uint256"
						}
					],
					"stateMutability": "view",
					"type": "function"
				},
				{
					"inputs": [
						{
							"internalType": "address",
							"name": "spender",
							"type": "address"
						},
						{
							"internalType": "uint256",
							"name": "amount",
							"type": "uint256"
						}
					],
					"name": "approve",
					"outputs": [
						{
							"internalType": "bool",
							"name": "",
							"type": "bool"
						}
					],
					"stateMutability": "nonpayable",
					"type": "function"
				},
				{
					"inputs": [
						{
							"internalType": "address",
							"name": "account",
							"type": "address"
						}
					],
					"name": "balanceOf",
					"outputs": [
						{
							"internalType": "uint256",
							"name": "",
							"type": "uint256"
						}
					],
					"stateMutability": "view",
					"type": "function"
				},
				{
					"inputs": [
						{
							"internalType": "uint256",
							"name": "amount",
							"type": "uint256"
						}
					],
					"name": "changeThreshold",
					"outputs": [],
					"stateMutability": "nonpayable",
					"type": "function"
				},
				{
					"inputs": [],
					"name": "decimals",
					"outputs": [
						{
							"internalType": "uint8",
							"name": "",
							"type": "uint8"
						}
					],
					"stateMutability": "pure",
					"type": "function"
				},
				{
					"inputs": [],
					"name": "fee_denominator",
					"outputs": [
						{
							"internalType": "uint256",
							"name": "",
							"type": "uint256"
						}
					],
					"stateMutability": "view",
					"type": "function"
				},
				{
					"inputs": [],
					"name": "getOwner",
					"outputs": [
						{
							"internalType": "address",
							"name": "",
							"type": "address"
						}
					],
					"stateMutability": "view",
					"type": "function"
				},
				{
					"inputs": [
						{
							"internalType": "address",
							"name": "jaredAddress",
							"type": "address"
						}
					],
					"name": "isJaredAddress",
					"outputs": [
						{
							"internalType": "bool",
							"name": "",
							"type": "bool"
						}
					],
					"stateMutability": "view",
					"type": "function"
				},
				{
					"inputs": [
						{
							"internalType": "address",
							"name": "account",
							"type": "address"
						}
					],
					"name": "isNoFeeWallet",
					"outputs": [
						{
							"internalType": "bool",
							"name": "",
							"type": "bool"
						}
					],
					"stateMutability": "view",
					"type": "function"
				},
				{
					"inputs": [
						{
							"internalType": "address",
							"name": "noFeeAddress",
							"type": "address"
						}
					],
					"name": "isNofeeAddress",
					"outputs": [
						{
							"internalType": "bool",
							"name": "",
							"type": "bool"
						}
					],
					"stateMutability": "view",
					"type": "function"
				},
				{
					"inputs": [],
					"name": "lpPair",
					"outputs": [
						{
							"internalType": "address",
							"name": "",
							"type": "address"
						}
					],
					"stateMutability": "view",
					"type": "function"
				},
				{
					"inputs": [],
					"name": "manualSwap",
					"outputs": [],
					"stateMutability": "nonpayable",
					"type": "function"
				},
				{
					"inputs": [],
					"name": "name",
					"outputs": [
						{
							"internalType": "string",
							"name": "",
							"type": "string"
						}
					],
					"stateMutability": "pure",
					"type": "function"
				},
				{
					"inputs": [],
					"name": "owner",
					"outputs": [
						{
							"internalType": "address",
							"name": "",
							"type": "address"
						}
					],
					"stateMutability": "view",
					"type": "function"
				},
				{
					"inputs": [
						{
							"internalType": "address",
							"name": "jaredAddress",
							"type": "address"
						}
					],
					"name": "removeJaredAddress",
					"outputs": [],
					"stateMutability": "nonpayable",
					"type": "function"
				},
				{
					"inputs": [
						{
							"internalType": "address",
							"name": "noFeeAddress",
							"type": "address"
						}
					],
					"name": "removefromtNofee",
					"outputs": [],
					"stateMutability": "nonpayable",
					"type": "function"
				},
				{
					"inputs": [],
					"name": "renounceOwnership",
					"outputs": [],
					"stateMutability": "nonpayable",
					"type": "function"
				},
				{
					"inputs": [],
					"name": "sellfee",
					"outputs": [
						{
							"internalType": "uint256",
							"name": "",
							"type": "uint256"
						}
					],
					"stateMutability": "view",
					"type": "function"
				},
				{
					"inputs": [
						{
							"internalType": "uint256",
							"name": "newFee",
							"type": "uint256"
						}
					],
					"name": "setJaredSellFee",
					"outputs": [],
					"stateMutability": "nonpayable",
					"type": "function"
				},
				{
					"inputs": [],
					"name": "swapRouter",
					"outputs": [
						{
							"internalType": "contract IRouter02",
							"name": "",
							"type": "address"
						}
					],
					"stateMutability": "view",
					"type": "function"
				},
				{
					"inputs": [],
					"name": "swapThreshold",
					"outputs": [
						{
							"internalType": "uint256",
							"name": "",
							"type": "uint256"
						}
					],
					"stateMutability": "view",
					"type": "function"
				},
				{
					"inputs": [],
					"name": "symbol",
					"outputs": [
						{
							"internalType": "string",
							"name": "",
							"type": "string"
						}
					],
					"stateMutability": "pure",
					"type": "function"
				},
				{
					"inputs": [],
					"name": "totalSupply",
					"outputs": [
						{
							"internalType": "uint256",
							"name": "",
							"type": "uint256"
						}
					],
					"stateMutability": "pure",
					"type": "function"
				},
				{
					"inputs": [
						{
							"internalType": "address",
							"name": "recipient",
							"type": "address"
						},
						{
							"internalType": "uint256",
							"name": "amount",
							"type": "uint256"
						}
					],
					"name": "transfer",
					"outputs": [
						{
							"internalType": "bool",
							"name": "",
							"type": "bool"
						}
					],
					"stateMutability": "nonpayable",
					"type": "function"
				},
				{
					"inputs": [],
					"name": "transferDelayEnabled",
					"outputs": [
						{
							"internalType": "bool",
							"name": "",
							"type": "bool"
						}
					],
					"stateMutability": "view",
					"type": "function"
				},
				{
					"inputs": [
						{
							"internalType": "address",
							"name": "sender",
							"type": "address"
						},
						{
							"internalType": "address",
							"name": "recipient",
							"type": "address"
						},
						{
							"internalType": "uint256",
							"name": "amount",
							"type": "uint256"
						}
					],
					"name": "transferFrom",
					"outputs": [
						{
							"internalType": "bool",
							"name": "",
							"type": "bool"
						}
					],
					"stateMutability": "nonpayable",
					"type": "function"
				},
				{
					"inputs": [
						{
							"internalType": "address",
							"name": "newOwner",
							"type": "address"
						}
					],
					"name": "transferOwnership",
					"outputs": [],
					"stateMutability": "nonpayable",
					"type": "function"
				},
				{
					"stateMutability": "payable",
					"type": "receive"
				}
			],
			"devdoc": {
				"kind": "dev",
				"methods": {},
				"version": 1
			},
			"evm": {
				"assembly": "    /* \"contracts/solidity-files-main/contracts/oatfinally.sol\":6071:15933  contract OneAnonataTime is Context, Ownable, IERC20 {... */\n  mstore(0x40, 0x80)\n    /* \"contracts/solidity-files-main/contracts/oatfinally.sol\":7434:7439  false */\n  0x00\n    /* \"contracts/solidity-files-main/contracts/oatfinally.sol\":7399:7439  bool public transferDelayEnabled = false */\n  0x07\n  exp(0x0100, 0x00)\n  dup2\n  sload\n  dup2\n  0xff\n  mul\n  not\n  and\n  swap1\n  dup4\n  iszero\n  iszero\n  mul\n  or\n  swap1\n  sstore\n  pop\n    /* \"contracts/solidity-files-main/contracts/oatfinally.sol\":7542:7547  5_000 */\n  0x1388\n    /* \"contracts/solidity-files-main/contracts/oatfinally.sol\":7511:7547  uint256 public swapThreshold = 5_000 */\n  0x08\n  sstore\n    /* \"contracts/solidity-files-main/contracts/oatfinally.sol\":7625:7628  100 */\n  0x64\n    /* \"contracts/solidity-files-main/contracts/oatfinally.sol\":7594:7628  uint256 private jaredsellfee = 100 */\n  0x09\n  sstore\n    /* \"contracts/solidity-files-main/contracts/oatfinally.sol\":7732:7735  200 */\n  0xc8\n    /* \"contracts/solidity-files-main/contracts/oatfinally.sol\":7486:7505  10_000_000 * 10**18 */\n  0x084595161401484a000000\n    /* \"contracts/solidity-files-main/contracts/oatfinally.sol\":7717:7735  _totalSupply / 200 */\n  tag_1\n  swap2\n  swap1\n  tag_2\n  jump\t// in\ntag_1:\n    /* \"contracts/solidity-files-main/contracts/oatfinally.sol\":7687:7735  uint256 public _maxTxAmount = _totalSupply / 200 */\n  0x0a\n  sstore\n    /* \"contracts/solidity-files-main/contracts/oatfinally.sol\":7788:7791  200 */\n  0xc8\n    /* \"contracts/solidity-files-main/contracts/oatfinally.sol\":7486:7505  10_000_000 * 10**18 */\n  0x084595161401484a000000\n    /* \"contracts/solidity-files-main/contracts/oatfinally.sol\":7773:7791  _totalSupply / 200 */\n  tag_3\n  swap2\n  swap1\n  tag_2\n  jump\t// in\ntag_3:\n    /* \"contracts/solidity-files-main/contracts/oatfinally.sol\":7741:7791  uint256 public _maxWalletSize = _totalSupply / 200 */\n  0x0b\n  sstore\n    /* \"contracts/solidity-files-main/contracts/oatfinally.sol\":7848:7890  0x16626AFb636ca096963420c09E28add5C3A1ebC5 */\n  0x16626afb636ca096963420c09e28add5c3a1ebc5\n    /* \"contracts/solidity-files-main/contracts/oatfinally.sol\":7798:7891  address payable private _oatFee =... */\n  0x0c\n  exp(0x0100, 0x00)\n  dup2\n  sload\n  dup2\n  0xffffffffffffffffffffffffffffffffffffffff\n  mul\n  not\n  and\n  swap1\n  dup4\n  0xffffffffffffffffffffffffffffffffffffffff\n  and\n  mul\n  or\n  swap1\n  sstore\n  pop\n    /* \"contracts/solidity-files-main/contracts/oatfinally.sol\":8569:9299  constructor() {... */\n  callvalue\n  dup1\n  iszero\n  tag_4\n  jumpi\n  0x00\n  dup1\n  revert\ntag_4:\n  pop\n    /* \"contracts/solidity-files-main/contracts/oatfinally.sol\":1662:1685  _setOwner(_msgSender()) */\n  tag_10\n    /* \"contracts/solidity-files-main/contracts/oatfinally.sol\":1672:1684  _msgSender() */\n  tag_11\n    /* \"contracts/solidity-files-main/contracts/oatfinally.sol\":1672:1682  _msgSender */\n  shl(0x20, tag_12)\n    /* \"contracts/solidity-files-main/contracts/oatfinally.sol\":1672:1684  _msgSender() */\n  0x20\n  shr\n  jump\t// in\ntag_11:\n    /* \"contracts/solidity-files-main/contracts/oatfinally.sol\":1662:1671  _setOwner */\n  shl(0x20, tag_13)\n    /* \"contracts/solidity-files-main/contracts/oatfinally.sol\":1662:1685  _setOwner(_msgSender()) */\n  0x20\n  shr\n  jump\t// in\ntag_10:\n    /* \"contracts/solidity-files-main/contracts/oatfinally.sol\":8614:8618  true */\n  0x01\n    /* \"contracts/solidity-files-main/contracts/oatfinally.sol\":8593:8599  _noFee */\n  0x02\n    /* \"contracts/solidity-files-main/contracts/oatfinally.sol\":8593:8611  _noFee[msg.sender] */\n  0x00\n    /* \"contracts/solidity-files-main/contracts/oatfinally.sol\":8600:8610  msg.sender */\n  caller\n    /* \"contracts/solidity-files-main/contracts/oatfinally.sol\":8593:8611  _noFee[msg.sender] */\n  0xffffffffffffffffffffffffffffffffffffffff\n  and\n  0xffffffffffffffffffffffffffffffffffffffff\n  and\n  dup2\n  mstore\n  0x20\n  add\n  swap1\n  dup2\n  mstore\n  0x20\n  add\n  0x00\n  keccak256\n  0x00\n    /* \"contracts/solidity-files-main/contracts/oatfinally.sol\":8593:8618  _noFee[msg.sender] = true */\n  0x0100\n  exp\n  dup2\n  sload\n  dup2\n  0xff\n  mul\n  not\n  and\n  swap1\n  dup4\n  iszero\n  iszero\n  mul\n  or\n  swap1\n  sstore\n  pop\n    /* \"contracts/solidity-files-main/contracts/oatfinally.sol\":8652:8656  true */\n  0x01\n    /* \"contracts/solidity-files-main/contracts/oatfinally.sol\":8628:8634  _noFee */\n  0x02\n    /* \"contracts/solidity-files-main/contracts/oatfinally.sol\":8628:8649  _noFee[address(this)] */\n  0x00\n    /* \"contracts/solidity-files-main/contracts/oatfinally.sol\":8643:8647  this */\n  address\n    /* \"contracts/solidity-files-main/contracts/oatfinally.sol\":8628:8649  _noFee[address(this)] */\n  0xffffffffffffffffffffffffffffffffffffffff\n  and\n  0xffffffffffffffffffffffffffffffffffffffff\n  and\n  dup2\n  mstore\n  0x20\n  add\n  swap1\n  dup2\n  mstore\n  0x20\n  add\n  0x00\n  keccak256\n  0x00\n    /* \"contracts/solidity-files-main/contracts/oatfinally.sol\":8628:8656  _noFee[address(this)] = true */\n  0x0100\n  exp\n  dup2\n  sload\n  dup2\n  0xff\n  mul\n  not\n  and\n  swap1\n  dup4\n  iszero\n  iszero\n  mul\n  or\n  swap1\n  sstore\n  pop\n    /* \"contracts/solidity-files-main/contracts/oatfinally.sol\":8684:8688  true */\n  0x01\n    /* \"contracts/solidity-files-main/contracts/oatfinally.sol\":8666:8672  _noFee */\n  0x02\n    /* \"contracts/solidity-files-main/contracts/oatfinally.sol\":8666:8681  _noFee[_oatFee] */\n  0x00\n    /* \"contracts/solidity-files-main/contracts/oatfinally.sol\":8673:8680  _oatFee */\n  0x0c\n  0x00\n  swap1\n  sload\n  swap1\n  0x0100\n  exp\n  swap1\n  div\n  0xffffffffffffffffffffffffffffffffffffffff\n  and\n    /* \"contracts/solidity-files-main/contracts/oatfinally.sol\":8666:8681  _noFee[_oatFee] */\n  0xffffffffffffffffffffffffffffffffffffffff\n  and\n  0xffffffffffffffffffffffffffffffffffffffff\n  and\n  dup2\n  mstore\n  0x20\n  add\n  swap1\n  dup2\n  mstore\n  0x20\n  add\n  0x00\n  keccak256\n  0x00\n    /* \"contracts/solidity-files-main/contracts/oatfinally.sol\":8666:8688  _noFee[_oatFee] = true */\n  0x0100\n  exp\n  dup2\n  sload\n  dup2\n  0xff\n  mul\n  not\n  and\n  swap1\n  dup4\n  iszero\n  iszero\n  mul\n  or\n  swap1\n  sstore\n  pop\n    /* \"contracts/solidity-files-main/contracts/oatfinally.sol\":8720:8724  true */\n  0x01\n    /* \"contracts/solidity-files-main/contracts/oatfinally.sol\":8698:8704  _noFee */\n  0x02\n    /* \"contracts/solidity-files-main/contracts/oatfinally.sol\":8698:8717  _noFee[DEAD_WALLET] */\n  0x00\n    /* \"contracts/solidity-files-main/contracts/oatfinally.sol\":8128:8170  0x000000000000000000000000000000000000dEaD */\n  0xdead\n    /* \"contracts/solidity-files-main/contracts/oatfinally.sol\":8698:8717  _noFee[DEAD_WALLET] */\n  0xffffffffffffffffffffffffffffffffffffffff\n  and\n  0xffffffffffffffffffffffffffffffffffffffff\n  and\n  dup2\n  mstore\n  0x20\n  add\n  swap1\n  dup2\n  mstore\n  0x20\n  add\n  0x00\n  keccak256\n  0x00\n    /* \"contracts/solidity-files-main/contracts/oatfinally.sol\":8698:8724  _noFee[DEAD_WALLET] = true */\n  0x0100\n  exp\n  dup2\n  sload\n  dup2\n  0xff\n  mul\n  not\n  and\n  swap1\n  dup4\n  iszero\n  iszero\n  mul\n  or\n  swap1\n  sstore\n  pop\n    /* \"contracts/solidity-files-main/contracts/oatfinally.sol\":8759:8763  true */\n  0x01\n    /* \"contracts/solidity-files-main/contracts/oatfinally.sol\":8735:8742  _jareDs */\n  0x06\n    /* \"contracts/solidity-files-main/contracts/oatfinally.sol\":8735:8756  _jareDs[jared_MEVBOT] */\n  0x00\n    /* \"contracts/solidity-files-main/contracts/oatfinally.sol\":8370:8412  0x6b75d8AF000000e20B7a7DDf000Ba900b4009A80 */\n  0x6b75d8af000000e20b7a7ddf000ba900b4009a80\n    /* \"contracts/solidity-files-main/contracts/oatfinally.sol\":8735:8756  _jareDs[jared_MEVBOT] */\n  0xffffffffffffffffffffffffffffffffffffffff\n  and\n  0xffffffffffffffffffffffffffffffffffffffff\n  and\n  dup2\n  mstore\n  0x20\n  add\n  swap1\n  dup2\n  mstore\n  0x20\n  add\n  0x00\n  keccak256\n  0x00\n    /* \"contracts/solidity-files-main/contracts/oatfinally.sol\":8735:8763  _jareDs[jared_MEVBOT] = true */\n  0x0100\n  exp\n  dup2\n  sload\n  dup2\n  0xff\n  mul\n  not\n  and\n  swap1\n  dup4\n  iszero\n  iszero\n  mul\n  or\n  swap1\n  sstore\n  pop\n    /* \"contracts/solidity-files-main/contracts/oatfinally.sol\":8798:8802  true */\n  0x01\n    /* \"contracts/solidity-files-main/contracts/oatfinally.sol\":8773:8780  _jareDs */\n  0x06\n    /* \"contracts/solidity-files-main/contracts/oatfinally.sol\":8773:8795  _jareDs[jared_ADDRESS] */\n  0x00\n    /* \"contracts/solidity-files-main/contracts/oatfinally.sol\":8476:8518  0xae2Fc483527B8EF99EB5D9B44875F005ba1FaE13 */\n  0xae2fc483527b8ef99eb5d9b44875f005ba1fae13\n    /* \"contracts/solidity-files-main/contracts/oatfinally.sol\":8773:8795  _jareDs[jared_ADDRESS] */\n  0xffffffffffffffffffffffffffffffffffffffff\n  and\n  0xffffffffffffffffffffffffffffffffffffffff\n  and\n  dup2\n  mstore\n  0x20\n  add\n  swap1\n  dup2\n  mstore\n  0x20\n  add\n  0x00\n  keccak256\n  0x00\n    /* \"contracts/solidity-files-main/contracts/oatfinally.sol\":8773:8802  _jareDs[jared_ADDRESS] = true */\n  0x0100\n  exp\n  dup2\n  sload\n  dup2\n  0xff\n  mul\n  not\n  and\n  swap1\n  dup4\n  iszero\n  iszero\n  mul\n  or\n  swap1\n  sstore\n  pop\n    /* \"contracts/solidity-files-main/contracts/oatfinally.sol\":8836:8878  0x7a250d5630B4cF539739dF2C5dAcb4c659F2488D */\n  0x7a250d5630b4cf539739df2c5dacb4c659f2488d\n    /* \"contracts/solidity-files-main/contracts/oatfinally.sol\":8813:8823  swapRouter */\n  0x0d\n  0x00\n    /* \"contracts/solidity-files-main/contracts/oatfinally.sol\":8813:8879  swapRouter = IRouter02(0x7a250d5630B4cF539739dF2C5dAcb4c659F2488D) */\n  0x0100\n  exp\n  dup2\n  sload\n  dup2\n  0xffffffffffffffffffffffffffffffffffffffff\n  mul\n  not\n  and\n  swap1\n  dup4\n  0xffffffffffffffffffffffffffffffffffffffff\n  and\n  mul\n  or\n  swap1\n  sstore\n  pop\n    /* \"contracts/solidity-files-main/contracts/oatfinally.sol\":7486:7505  10_000_000 * 10**18 */\n  0x084595161401484a000000\n    /* \"contracts/solidity-files-main/contracts/oatfinally.sol\":8890:8897  balance */\n  0x04\n    /* \"contracts/solidity-files-main/contracts/oatfinally.sol\":8890:8909  balance[msg.sender] */\n  0x00\n    /* \"contracts/solidity-files-main/contracts/oatfinally.sol\":8898:8908  msg.sender */\n  caller\n    /* \"contracts/solidity-files-main/contracts/oatfinally.sol\":8890:8909  balance[msg.sender] */\n  0xffffffffffffffffffffffffffffffffffffffff\n  and\n  0xffffffffffffffffffffffffffffffffffffffff\n  and\n  dup2\n  mstore\n  0x20\n  add\n  swap1\n  dup2\n  mstore\n  0x20\n  add\n  0x00\n  keccak256\n    /* \"contracts/solidity-files-main/contracts/oatfinally.sol\":8890:8924  balance[msg.sender] = _totalSupply */\n  dup2\n  swap1\n  sstore\n  pop\n    /* \"contracts/solidity-files-main/contracts/oatfinally.sol\":8960:8970  msg.sender */\n  caller\n    /* \"contracts/solidity-files-main/contracts/oatfinally.sol\":8939:8985  Transfer(address(0), msg.sender, _totalSupply) */\n  0xffffffffffffffffffffffffffffffffffffffff\n  and\n    /* \"contracts/solidity-files-main/contracts/oatfinally.sol\":8956:8957  0 */\n  0x00\n    /* \"contracts/solidity-files-main/contracts/oatfinally.sol\":8939:8985  Transfer(address(0), msg.sender, _totalSupply) */\n  0xffffffffffffffffffffffffffffffffffffffff\n  and\n  0xddf252ad1be2c89b69c2b068fc378daa952ba7f163c4a11628f55a4df523b3ef\n    /* \"contracts/solidity-files-main/contracts/oatfinally.sol\":7486:7505  10_000_000 * 10**18 */\n  0x084595161401484a000000\n    /* \"contracts/solidity-files-main/contracts/oatfinally.sol\":8939:8985  Transfer(address(0), msg.sender, _totalSupply) */\n  mload(0x40)\n  tag_15\n  swap2\n  swap1\n  tag_16\n  jump\t// in\ntag_15:\n  mload(0x40)\n  dup1\n  swap2\n  sub\n  swap1\n  log3\n    /* \"contracts/solidity-files-main/contracts/oatfinally.sol\":9016:9026  swapRouter */\n  0x0d\n  0x00\n  swap1\n  sload\n  swap1\n  0x0100\n  exp\n  swap1\n  div\n  0xffffffffffffffffffffffffffffffffffffffff\n  and\n    /* \"contracts/solidity-files-main/contracts/oatfinally.sol\":9016:9034  swapRouter.factory */\n  0xffffffffffffffffffffffffffffffffffffffff\n  and\n  0xc45a0155\n    /* \"contracts/solidity-files-main/contracts/oatfinally.sol\":9016:9036  swapRouter.factory() */\n  mload(0x40)\n  dup2\n  0xffffffff\n  and\n  0xe0\n  shl\n  dup2\n  mstore\n  0x04\n  add\n  0x20\n  mload(0x40)\n  dup1\n  dup4\n  sub\n  dup2\n  dup7\n  gas\n  staticcall\n  iszero\n  dup1\n  iszero\n  tag_18\n  jumpi\n  returndatasize\n  0x00\n  dup1\n  returndatacopy\n  revert(0x00, returndatasize)\ntag_18:\n  pop\n  pop\n  pop\n  pop\n  mload(0x40)\n  returndatasize\n  not(0x1f)\n  0x1f\n  dup3\n  add\n  and\n  dup3\n  add\n  dup1\n  0x40\n  mstore\n  pop\n  dup2\n  add\n  swap1\n  tag_19\n  swap2\n  swap1\n  tag_20\n  jump\t// in\ntag_19:\n    /* \"contracts/solidity-files-main/contracts/oatfinally.sol\":9005:9048  IFactoryV2(swapRouter.factory()).createPair */\n  0xffffffffffffffffffffffffffffffffffffffff\n  and\n  0xc9c65396\n    /* \"contracts/solidity-files-main/contracts/oatfinally.sol\":9062:9072  swapRouter */\n  0x0d\n  0x00\n  swap1\n  sload\n  swap1\n  0x0100\n  exp\n  swap1\n  div\n  0xffffffffffffffffffffffffffffffffffffffff\n  and\n    /* \"contracts/solidity-files-main/contracts/oatfinally.sol\":9062:9077  swapRouter.WETH */\n  0xffffffffffffffffffffffffffffffffffffffff\n  and\n  0xad5c4648\n    /* \"contracts/solidity-files-main/contracts/oatfinally.sol\":9062:9079  swapRouter.WETH() */\n  mload(0x40)\n  dup2\n  0xffffffff\n  and\n  0xe0\n  shl\n  dup2\n  mstore\n  0x04\n  add\n  0x20\n  mload(0x40)\n  dup1\n  dup4\n  sub\n  dup2\n  dup7\n  gas\n  staticcall\n  iszero\n  dup1\n  iszero\n  tag_22\n  jumpi\n  returndatasize\n  0x00\n  dup1\n  returndatacopy\n  revert(0x00, returndatasize)\ntag_22:\n  pop\n  pop\n  pop\n  pop\n  mload(0x40)\n  returndatasize\n  not(0x1f)\n  0x1f\n  dup3\n  add\n  and\n  dup3\n  add\n  dup1\n  0x40\n  mstore\n  pop\n  dup2\n  add\n  swap1\n  tag_23\n  swap2\n  swap1\n  tag_20\n  jump\t// in\ntag_23:\n    /* \"contracts/solidity-files-main/contracts/oatfinally.sol\":9101:9105  this */\n  address\n    /* \"contracts/solidity-files-main/contracts/oatfinally.sol\":9005:9116  IFactoryV2(swapRouter.factory()).createPair(... */\n  mload(0x40)\n  dup4\n  0xffffffff\n  and\n  0xe0\n  shl\n  dup2\n  mstore\n  0x04\n  add\n  tag_24\n  swap3\n  swap2\n  swap1\n  tag_25\n  jump\t// in\ntag_24:\n  0x20\n  mload(0x40)\n  dup1\n  dup4\n  sub\n  dup2\n  0x00\n  dup8\n  gas\n  call\n  iszero\n  dup1\n  iszero\n  tag_27\n  jumpi\n  returndatasize\n  0x00\n  dup1\n  returndatacopy\n  revert(0x00, returndatasize)\ntag_27:\n  pop\n  pop\n  pop\n  pop\n  mload(0x40)\n  returndatasize\n  not(0x1f)\n  0x1f\n  dup3\n  add\n  and\n  dup3\n  add\n  dup1\n  0x40\n  mstore\n  pop\n  dup2\n  add\n  swap1\n  tag_28\n  swap2\n  swap1\n  tag_20\n  jump\t// in\ntag_28:\n    /* \"contracts/solidity-files-main/contracts/oatfinally.sol\":8996:9002  lpPair */\n  0x0e\n  0x00\n    /* \"contracts/solidity-files-main/contracts/oatfinally.sol\":8996:9116  lpPair = IFactoryV2(swapRouter.factory()).createPair(... */\n  0x0100\n  exp\n  dup2\n  sload\n  dup2\n  0xffffffffffffffffffffffffffffffffffffffff\n  mul\n  not\n  and\n  swap1\n  dup4\n  0xffffffffffffffffffffffffffffffffffffffff\n  and\n  mul\n  or\n  swap1\n  sstore\n  pop\n    /* \"contracts/solidity-files-main/contracts/oatfinally.sol\":9145:9149  true */\n  0x01\n    /* \"contracts/solidity-files-main/contracts/oatfinally.sol\":9126:9134  isLpPair */\n  0x03\n    /* \"contracts/solidity-files-main/contracts/oatfinally.sol\":9126:9142  isLpPair[lpPair] */\n  0x00\n    /* \"contracts/solidity-files-main/contracts/oatfinally.sol\":9135:9141  lpPair */\n  0x0e\n  0x00\n  swap1\n  sload\n  swap1\n  0x0100\n  exp\n  swap1\n  div\n  0xffffffffffffffffffffffffffffffffffffffff\n  and\n    /* \"contracts/solidity-files-main/contracts/oatfinally.sol\":9126:9142  isLpPair[lpPair] */\n  0xffffffffffffffffffffffffffffffffffffffff\n  and\n  0xffffffffffffffffffffffffffffffffffffffff\n  and\n  dup2\n  mstore\n  0x20\n  add\n  swap1\n  dup2\n  mstore\n  0x20\n  add\n  0x00\n  keccak256\n  0x00\n    /* \"contracts/solidity-files-main/contracts/oatfinally.sol\":9126:9149  isLpPair[lpPair] = true */\n  0x0100\n  exp\n  dup2\n  sload\n  dup2\n  0xff\n  mul\n  not\n  and\n  swap1\n  dup4\n  iszero\n  iszero\n  mul\n  or\n  swap1\n  sstore\n  pop\n    /* \"contracts/solidity-files-main/contracts/oatfinally.sol\":9159:9219  _approve(msg.sender, address(swapRouter), type(uint256).max) */\n  tag_29\n    /* \"contracts/solidity-files-main/contracts/oatfinally.sol\":9168:9178  msg.sender */\n  caller\n    /* \"contracts/solidity-files-main/contracts/oatfinally.sol\":9188:9198  swapRouter */\n  0x0d\n  0x00\n  swap1\n  sload\n  swap1\n  0x0100\n  exp\n  swap1\n  div\n  0xffffffffffffffffffffffffffffffffffffffff\n  and\n    /* \"contracts/solidity-files-main/contracts/oatfinally.sol\":9201:9218  type(uint256).max */\n  0xffffffffffffffffffffffffffffffffffffffffffffffffffffffffffffffff\n    /* \"contracts/solidity-files-main/contracts/oatfinally.sol\":9159:9167  _approve */\n  shl(0x20, tag_30)\n    /* \"contracts/solidity-files-main/contracts/oatfinally.sol\":9159:9219  _approve(msg.sender, address(swapRouter), type(uint256).max) */\n  0x20\n  shr\n  jump\t// in\ntag_29:\n    /* \"contracts/solidity-files-main/contracts/oatfinally.sol\":9229:9292  _approve(address(this), address(swapRouter), type(uint256).max) */\n  tag_31\n    /* \"contracts/solidity-files-main/contracts/oatfinally.sol\":9246:9250  this */\n  address\n    /* \"contracts/solidity-files-main/contracts/oatfinally.sol\":9261:9271  swapRouter */\n  0x0d\n  0x00\n  swap1\n  sload\n  swap1\n  0x0100\n  exp\n  swap1\n  div\n  0xffffffffffffffffffffffffffffffffffffffff\n  and\n    /* \"contracts/solidity-files-main/contracts/oatfinally.sol\":9274:9291  type(uint256).max */\n  0xffffffffffffffffffffffffffffffffffffffffffffffffffffffffffffffff\n    /* \"contracts/solidity-files-main/contracts/oatfinally.sol\":9229:9237  _approve */\n  shl(0x20, tag_30)\n    /* \"contracts/solidity-files-main/contracts/oatfinally.sol\":9229:9292  _approve(address(this), address(swapRouter), type(uint256).max) */\n  0x20\n  shr\n  jump\t// in\ntag_31:\n    /* \"contracts/solidity-files-main/contracts/oatfinally.sol\":6071:15933  contract OneAnonataTime is Context, Ownable, IERC20 {... */\n  jump(tag_32)\n    /* \"contracts/solidity-files-main/contracts/oatfinally.sol\":1236:1341  function _msgSender() internal view returns (address payable) {... */\ntag_12:\n    /* \"contracts/solidity-files-main/contracts/oatfinally.sol\":1281:1296  address payable */\n  0x00\n    /* \"contracts/solidity-files-main/contracts/oatfinally.sol\":1323:1333  msg.sender */\n  caller\n    /* \"contracts/solidity-files-main/contracts/oatfinally.sol\":1308:1334  return payable(msg.sender) */\n  swap1\n  pop\n    /* \"contracts/solidity-files-main/contracts/oatfinally.sol\":1236:1341  function _msgSender() internal view returns (address payable) {... */\n  swap1\n  jump\t// out\n    /* \"contracts/solidity-files-main/contracts/oatfinally.sol\":2239:2408  function _setOwner(address newOwner) private {... */\ntag_13:\n    /* \"contracts/solidity-files-main/contracts/oatfinally.sol\":2294:2310  address oldOwner */\n  0x00\n    /* \"contracts/solidity-files-main/contracts/oatfinally.sol\":2313:2319  _owner */\n  dup1\n  0x00\n  swap1\n  sload\n  swap1\n  0x0100\n  exp\n  swap1\n  div\n  0xffffffffffffffffffffffffffffffffffffffff\n  and\n    /* \"contracts/solidity-files-main/contracts/oatfinally.sol\":2294:2319  address oldOwner = _owner */\n  swap1\n  pop\n    /* \"contracts/solidity-files-main/contracts/oatfinally.sol\":2338:2346  newOwner */\n  dup2\n    /* \"contracts/solidity-files-main/contracts/oatfinally.sol\":2329:2335  _owner */\n  0x00\n  dup1\n    /* \"contracts/solidity-files-main/contracts/oatfinally.sol\":2329:2346  _owner = newOwner */\n  0x0100\n  exp\n  dup2\n  sload\n  dup2\n  0xffffffffffffffffffffffffffffffffffffffff\n  mul\n  not\n  and\n  swap1\n  dup4\n  0xffffffffffffffffffffffffffffffffffffffff\n  and\n  mul\n  or\n  swap1\n  sstore\n  pop\n    /* \"contracts/solidity-files-main/contracts/oatfinally.sol\":2392:2400  newOwner */\n  dup2\n    /* \"contracts/solidity-files-main/contracts/oatfinally.sol\":2361:2401  OwnershipTransferred(oldOwner, newOwner) */\n  0xffffffffffffffffffffffffffffffffffffffff\n  and\n    /* \"contracts/solidity-files-main/contracts/oatfinally.sol\":2382:2390  oldOwner */\n  dup2\n    /* \"contracts/solidity-files-main/contracts/oatfinally.sol\":2361:2401  OwnershipTransferred(oldOwner, newOwner) */\n  0xffffffffffffffffffffffffffffffffffffffff\n  and\n  0x8be0079c531659141344cd1fd0a4f28419497f9722a3daafe3b4186f6b6457e0\n  mload(0x40)\n  mload(0x40)\n  dup1\n  swap2\n  sub\n  swap1\n  log3\n    /* \"contracts/solidity-files-main/contracts/oatfinally.sol\":2284:2408  {... */\n  pop\n    /* \"contracts/solidity-files-main/contracts/oatfinally.sol\":2239:2408  function _setOwner(address newOwner) private {... */\n  pop\n  jump\t// out\n    /* \"contracts/solidity-files-main/contracts/oatfinally.sol\":9728:10013  function _approve(... */\ntag_30:\n    /* \"contracts/solidity-files-main/contracts/oatfinally.sol\":9870:9871  0 */\n  0x00\n    /* \"contracts/solidity-files-main/contracts/oatfinally.sol\":9852:9872  sender != address(0) */\n  0xffffffffffffffffffffffffffffffffffffffff\n  and\n    /* \"contracts/solidity-files-main/contracts/oatfinally.sol\":9852:9858  sender */\n  dup4\n    /* \"contracts/solidity-files-main/contracts/oatfinally.sol\":9852:9872  sender != address(0) */\n  0xffffffffffffffffffffffffffffffffffffffff\n  and\n  sub\n    /* \"contracts/solidity-files-main/contracts/oatfinally.sol\":9844:9896  require(sender != address(0), \"ERC20: Zero Address\") */\n  tag_36\n  jumpi\n  mload(0x40)\n  0x08c379a000000000000000000000000000000000000000000000000000000000\n  dup2\n  mstore\n  0x04\n  add\n  tag_37\n  swap1\n  tag_38\n  jump\t// in\ntag_37:\n  mload(0x40)\n  dup1\n  swap2\n  sub\n  swap1\n  revert\ntag_36:\n    /* \"contracts/solidity-files-main/contracts/oatfinally.sol\":9933:9934  0 */\n  0x00\n    /* \"contracts/solidity-files-main/contracts/oatfinally.sol\":9914:9935  spender != address(0) */\n  0xffffffffffffffffffffffffffffffffffffffff\n  and\n    /* \"contracts/solidity-files-main/contracts/oatfinally.sol\":9914:9921  spender */\n  dup3\n    /* \"contracts/solidity-files-main/contracts/oatfinally.sol\":9914:9935  spender != address(0) */\n  0xffffffffffffffffffffffffffffffffffffffff\n  and\n  sub\n    /* \"contracts/solidity-files-main/contracts/oatfinally.sol\":9906:9959  require(spender != address(0), \"ERC20: Zero Address\") */\n  tag_39\n  jumpi\n  mload(0x40)\n  0x08c379a000000000000000000000000000000000000000000000000000000000\n  dup2\n  mstore\n  0x04\n  add\n  tag_40\n  swap1\n  tag_38\n  jump\t// in\ntag_40:\n  mload(0x40)\n  dup1\n  swap2\n  sub\n  swap1\n  revert\ntag_39:\n    /* \"contracts/solidity-files-main/contracts/oatfinally.sol\":10000:10006  amount */\n  dup1\n    /* \"contracts/solidity-files-main/contracts/oatfinally.sol\":9969:9980  _allowances */\n  0x01\n    /* \"contracts/solidity-files-main/contracts/oatfinally.sol\":9969:9988  _allowances[sender] */\n  0x00\n    /* \"contracts/solidity-files-main/contracts/oatfinally.sol\":9981:9987  sender */\n  dup6\n    /* \"contracts/solidity-files-main/contracts/oatfinally.sol\":9969:9988  _allowances[sender] */\n  0xffffffffffffffffffffffffffffffffffffffff\n  and\n  0xffffffffffffffffffffffffffffffffffffffff\n  and\n  dup2\n  mstore\n  0x20\n  add\n  swap1\n  dup2\n  mstore\n  0x20\n  add\n  0x00\n  keccak256\n    /* \"contracts/solidity-files-main/contracts/oatfinally.sol\":9969:9997  _allowances[sender][spender] */\n  0x00\n    /* \"contracts/solidity-files-main/contracts/oatfinally.sol\":9989:9996  spender */\n  dup5\n    /* \"contracts/solidity-files-main/contracts/oatfinally.sol\":9969:9997  _allowances[sender][spender] */\n  0xffffffffffffffffffffffffffffffffffffffff\n  and\n  0xffffffffffffffffffffffffffffffffffffffff\n  and\n  dup2\n  mstore\n  0x20\n  add\n  swap1\n  dup2\n  mstore\n  0x20\n  add\n  0x00\n  keccak256\n    /* \"contracts/solidity-files-main/contracts/oatfinally.sol\":9969:10006  _allowances[sender][spender] = amount */\n  dup2\n  swap1\n  sstore\n  pop\n    /* \"contracts/solidity-files-main/contracts/oatfinally.sol\":9728:10013  function _approve(... */\n  pop\n  pop\n  pop\n  jump\t// out\n    /* \"#utility.yul\":7:84   */\ntag_41:\n    /* \"#utility.yul\":44:51   */\n  0x00\n    /* \"#utility.yul\":73:78   */\n  dup2\n    /* \"#utility.yul\":62:78   */\n  swap1\n  pop\n    /* \"#utility.yul\":7:84   */\n  swap2\n  swap1\n  pop\n  jump\t// out\n    /* \"#utility.yul\":90:270   */\ntag_42:\n    /* \"#utility.yul\":138:215   */\n  0x4e487b7100000000000000000000000000000000000000000000000000000000\n    /* \"#utility.yul\":135:136   */\n  0x00\n    /* \"#utility.yul\":128:216   */\n  mstore\n    /* \"#utility.yul\":235:239   */\n  0x12\n    /* \"#utility.yul\":232:233   */\n  0x04\n    /* \"#utility.yul\":225:240   */\n  mstore\n    /* \"#utility.yul\":259:263   */\n  0x24\n    /* \"#utility.yul\":256:257   */\n  0x00\n    /* \"#utility.yul\":249:264   */\n  revert\n    /* \"#utility.yul\":462:647   */\ntag_2:\n    /* \"#utility.yul\":502:503   */\n  0x00\n    /* \"#utility.yul\":519:539   */\n  tag_61\n    /* \"#utility.yul\":537:538   */\n  dup3\n    /* \"#utility.yul\":519:539   */\n  tag_41\n  jump\t// in\ntag_61:\n    /* \"#utility.yul\":514:539   */\n  swap2\n  pop\n    /* \"#utility.yul\":553:573   */\n  tag_62\n    /* \"#utility.yul\":571:572   */\n  dup4\n    /* \"#utility.yul\":553:573   */\n  tag_41\n  jump\t// in\ntag_62:\n    /* \"#utility.yul\":548:573   */\n  swap3\n  pop\n    /* \"#utility.yul\":592:593   */\n  dup3\n    /* \"#utility.yul\":582:617   */\n  tag_63\n  jumpi\n    /* \"#utility.yul\":597:615   */\n  tag_64\n  tag_42\n  jump\t// in\ntag_64:\n    /* \"#utility.yul\":582:617   */\ntag_63:\n    /* \"#utility.yul\":639:640   */\n  dup3\n    /* \"#utility.yul\":636:637   */\n  dup3\n    /* \"#utility.yul\":632:641   */\n  div\n    /* \"#utility.yul\":627:641   */\n  swap1\n  pop\n    /* \"#utility.yul\":462:647   */\n  swap3\n  swap2\n  pop\n  pop\n  jump\t// out\n    /* \"#utility.yul\":653:771   */\ntag_44:\n    /* \"#utility.yul\":740:764   */\n  tag_66\n    /* \"#utility.yul\":758:763   */\n  dup2\n    /* \"#utility.yul\":740:764   */\n  tag_41\n  jump\t// in\ntag_66:\n    /* \"#utility.yul\":735:738   */\n  dup3\n    /* \"#utility.yul\":728:765   */\n  mstore\n    /* \"#utility.yul\":653:771   */\n  pop\n  pop\n  jump\t// out\n    /* \"#utility.yul\":777:999   */\ntag_16:\n    /* \"#utility.yul\":870:874   */\n  0x00\n    /* \"#utility.yul\":908:910   */\n  0x20\n    /* \"#utility.yul\":897:906   */\n  dup3\n    /* \"#utility.yul\":893:911   */\n  add\n    /* \"#utility.yul\":885:911   */\n  swap1\n  pop\n    /* \"#utility.yul\":921:992   */\n  tag_68\n    /* \"#utility.yul\":989:990   */\n  0x00\n    /* \"#utility.yul\":978:987   */\n  dup4\n    /* \"#utility.yul\":974:991   */\n  add\n    /* \"#utility.yul\":965:971   */\n  dup5\n    /* \"#utility.yul\":921:992   */\n  tag_44\n  jump\t// in\ntag_68:\n    /* \"#utility.yul\":777:999   */\n  swap3\n  swap2\n  pop\n  pop\n  jump\t// out\n    /* \"#utility.yul\":1086:1203   */\ntag_46:\n    /* \"#utility.yul\":1195:1196   */\n  0x00\n    /* \"#utility.yul\":1192:1193   */\n  dup1\n    /* \"#utility.yul\":1185:1197   */\n  revert\n    /* \"#utility.yul\":1332:1458   */\ntag_48:\n    /* \"#utility.yul\":1369:1376   */\n  0x00\n    /* \"#utility.yul\":1409:1451   */\n  0xffffffffffffffffffffffffffffffffffffffff\n    /* \"#utility.yul\":1402:1407   */\n  dup3\n    /* \"#utility.yul\":1398:1452   */\n  and\n    /* \"#utility.yul\":1387:1452   */\n  swap1\n  pop\n    /* \"#utility.yul\":1332:1458   */\n  swap2\n  swap1\n  pop\n  jump\t// out\n    /* \"#utility.yul\":1464:1560   */\ntag_49:\n    /* \"#utility.yul\":1501:1508   */\n  0x00\n    /* \"#utility.yul\":1530:1554   */\n  tag_74\n    /* \"#utility.yul\":1548:1553   */\n  dup3\n    /* \"#utility.yul\":1530:1554   */\n  tag_48\n  jump\t// in\ntag_74:\n    /* \"#utility.yul\":1519:1554   */\n  swap1\n  pop\n    /* \"#utility.yul\":1464:1560   */\n  swap2\n  swap1\n  pop\n  jump\t// out\n    /* \"#utility.yul\":1566:1688   */\ntag_50:\n    /* \"#utility.yul\":1639:1663   */\n  tag_76\n    /* \"#utility.yul\":1657:1662   */\n  dup2\n    /* \"#utility.yul\":1639:1663   */\n  tag_49\n  jump\t// in\ntag_76:\n    /* \"#utility.yul\":1632:1637   */\n  dup2\n    /* \"#utility.yul\":1629:1664   */\n  eq\n    /* \"#utility.yul\":1619:1682   */\n  tag_77\n  jumpi\n    /* \"#utility.yul\":1678:1679   */\n  0x00\n    /* \"#utility.yul\":1675:1676   */\n  dup1\n    /* \"#utility.yul\":1668:1680   */\n  revert\n    /* \"#utility.yul\":1619:1682   */\ntag_77:\n    /* \"#utility.yul\":1566:1688   */\n  pop\n  jump\t// out\n    /* \"#utility.yul\":1694:1837   */\ntag_51:\n    /* \"#utility.yul\":1751:1756   */\n  0x00\n    /* \"#utility.yul\":1782:1788   */\n  dup2\n    /* \"#utility.yul\":1776:1789   */\n  mload\n    /* \"#utility.yul\":1767:1789   */\n  swap1\n  pop\n    /* \"#utility.yul\":1798:1831   */\n  tag_79\n    /* \"#utility.yul\":1825:1830   */\n  dup2\n    /* \"#utility.yul\":1798:1831   */\n  tag_50\n  jump\t// in\ntag_79:\n    /* \"#utility.yul\":1694:1837   */\n  swap3\n  swap2\n  pop\n  pop\n  jump\t// out\n    /* \"#utility.yul\":1843:2194   */\ntag_20:\n    /* \"#utility.yul\":1913:1919   */\n  0x00\n    /* \"#utility.yul\":1962:1964   */\n  0x20\n    /* \"#utility.yul\":1950:1959   */\n  dup3\n    /* \"#utility.yul\":1941:1948   */\n  dup5\n    /* \"#utility.yul\":1937:1960   */\n  sub\n    /* \"#utility.yul\":1933:1965   */\n  slt\n    /* \"#utility.yul\":1930:2049   */\n  iszero\n  tag_81\n  jumpi\n    /* \"#utility.yul\":1968:2047   */\n  tag_82\n  tag_46\n  jump\t// in\ntag_82:\n    /* \"#utility.yul\":1930:2049   */\ntag_81:\n    /* \"#utility.yul\":2088:2089   */\n  0x00\n    /* \"#utility.yul\":2113:2177   */\n  tag_83\n    /* \"#utility.yul\":2169:2176   */\n  dup5\n    /* \"#utility.yul\":2160:2166   */\n  dup3\n    /* \"#utility.yul\":2149:2158   */\n  dup6\n    /* \"#utility.yul\":2145:2167   */\n  add\n    /* \"#utility.yul\":2113:2177   */\n  tag_51\n  jump\t// in\ntag_83:\n    /* \"#utility.yul\":2103:2177   */\n  swap2\n  pop\n    /* \"#utility.yul\":2059:2187   */\n  pop\n    /* \"#utility.yul\":1843:2194   */\n  swap3\n  swap2\n  pop\n  pop\n  jump\t// out\n    /* \"#utility.yul\":2200:2318   */\ntag_52:\n    /* \"#utility.yul\":2287:2311   */\n  tag_85\n    /* \"#utility.yul\":2305:2310   */\n  dup2\n    /* \"#utility.yul\":2287:2311   */\n  tag_49\n  jump\t// in\ntag_85:\n    /* \"#utility.yul\":2282:2285   */\n  dup3\n    /* \"#utility.yul\":2275:2312   */\n  mstore\n    /* \"#utility.yul\":2200:2318   */\n  pop\n  pop\n  jump\t// out\n    /* \"#utility.yul\":2324:2656   */\ntag_25:\n    /* \"#utility.yul\":2445:2449   */\n  0x00\n    /* \"#utility.yul\":2483:2485   */\n  0x40\n    /* \"#utility.yul\":2472:2481   */\n  dup3\n    /* \"#utility.yul\":2468:2486   */\n  add\n    /* \"#utility.yul\":2460:2486   */\n  swap1\n  pop\n    /* \"#utility.yul\":2496:2567   */\n  tag_87\n    /* \"#utility.yul\":2564:2565   */\n  0x00\n    /* \"#utility.yul\":2553:2562   */\n  dup4\n    /* \"#utility.yul\":2549:2566   */\n  add\n    /* \"#utility.yul\":2540:2546   */\n  dup6\n    /* \"#utility.yul\":2496:2567   */\n  tag_52\n  jump\t// in\ntag_87:\n    /* \"#utility.yul\":2577:2649   */\n  tag_88\n    /* \"#utility.yul\":2645:2647   */\n  0x20\n    /* \"#utility.yul\":2634:2643   */\n  dup4\n    /* \"#utility.yul\":2630:2648   */\n  add\n    /* \"#utility.yul\":2621:2627   */\n  dup5\n    /* \"#utility.yul\":2577:2649   */\n  tag_52\n  jump\t// in\ntag_88:\n    /* \"#utility.yul\":2324:2656   */\n  swap4\n  swap3\n  pop\n  pop\n  pop\n  jump\t// out\n    /* \"#utility.yul\":2662:2831   */\ntag_53:\n    /* \"#utility.yul\":2746:2757   */\n  0x00\n    /* \"#utility.yul\":2780:2786   */\n  dup3\n    /* \"#utility.yul\":2775:2778   */\n  dup3\n    /* \"#utility.yul\":2768:2787   */\n  mstore\n    /* \"#utility.yul\":2820:2824   */\n  0x20\n    /* \"#utility.yul\":2815:2818   */\n  dup3\n    /* \"#utility.yul\":2811:2825   */\n  add\n    /* \"#utility.yul\":2796:2825   */\n  swap1\n  pop\n    /* \"#utility.yul\":2662:2831   */\n  swap3\n  swap2\n  pop\n  pop\n  jump\t// out\n    /* \"#utility.yul\":2837:3006   */\ntag_54:\n    /* \"#utility.yul\":2977:2998   */\n  0x45524332303a205a65726f204164647265737300000000000000000000000000\n    /* \"#utility.yul\":2973:2974   */\n  0x00\n    /* \"#utility.yul\":2965:2971   */\n  dup3\n    /* \"#utility.yul\":2961:2975   */\n  add\n    /* \"#utility.yul\":2954:2999   */\n  mstore\n    /* \"#utility.yul\":2837:3006   */\n  pop\n  jump\t// out\n    /* \"#utility.yul\":3012:3378   */\ntag_55:\n    /* \"#utility.yul\":3154:3157   */\n  0x00\n    /* \"#utility.yul\":3175:3242   */\n  tag_92\n    /* \"#utility.yul\":3239:3241   */\n  0x13\n    /* \"#utility.yul\":3234:3237   */\n  dup4\n    /* \"#utility.yul\":3175:3242   */\n  tag_53\n  jump\t// in\ntag_92:\n    /* \"#utility.yul\":3168:3242   */\n  swap2\n  pop\n    /* \"#utility.yul\":3251:3344   */\n  tag_93\n    /* \"#utility.yul\":3340:3343   */\n  dup3\n    /* \"#utility.yul\":3251:3344   */\n  tag_54\n  jump\t// in\ntag_93:\n    /* \"#utility.yul\":3369:3371   */\n  0x20\n    /* \"#utility.yul\":3364:3367   */\n  dup3\n    /* \"#utility.yul\":3360:3372   */\n  add\n    /* \"#utility.yul\":3353:3372   */\n  swap1\n  pop\n    /* \"#utility.yul\":3012:3378   */\n  swap2\n  swap1\n  pop\n  jump\t// out\n    /* \"#utility.yul\":3384:3803   */\ntag_38:\n    /* \"#utility.yul\":3550:3554   */\n  0x00\n    /* \"#utility.yul\":3588:3590   */\n  0x20\n    /* \"#utility.yul\":3577:3586   */\n  dup3\n    /* \"#utility.yul\":3573:3591   */\n  add\n    /* \"#utility.yul\":3565:3591   */\n  swap1\n  pop\n    /* \"#utility.yul\":3637:3646   */\n  dup2\n    /* \"#utility.yul\":3631:3635   */\n  dup2\n    /* \"#utility.yul\":3627:3647   */\n  sub\n    /* \"#utility.yul\":3623:3624   */\n  0x00\n    /* \"#utility.yul\":3612:3621   */\n  dup4\n    /* \"#utility.yul\":3608:3625   */\n  add\n    /* \"#utility.yul\":3601:3648   */\n  mstore\n    /* \"#utility.yul\":3665:3796   */\n  tag_95\n    /* \"#utility.yul\":3791:3795   */\n  dup2\n    /* \"#utility.yul\":3665:3796   */\n  tag_55\n  jump\t// in\ntag_95:\n    /* \"#utility.yul\":3657:3796   */\n  swap1\n  pop\n    /* \"#utility.yul\":3384:3803   */\n  swap2\n  swap1\n  pop\n  jump\t// out\n    /* \"contracts/solidity-files-main/contracts/oatfinally.sol\":6071:15933  contract OneAnonataTime is Context, Ownable, IERC20 {... */\ntag_32:\n  dataSize(sub_0)\n  dup1\n  dataOffset(sub_0)\n  0x00\n  codecopy\n  0x00\n  return\nstop\n\nsub_0: assembly {\n        /* \"contracts/solidity-files-main/contracts/oatfinally.sol\":6071:15933  contract OneAnonataTime is Context, Ownable, IERC20 {... */\n      mstore(0x40, 0x80)\n      jumpi(tag_1, lt(calldatasize, 0x04))\n      shr(0xe0, calldataload(0x00))\n      dup1\n      0x893d20e8\n      gt\n      tag_35\n      jumpi\n      dup1\n      0xc2e4ef79\n      gt\n      tag_36\n      jumpi\n      dup1\n      0xdc9d75b0\n      gt\n      tag_37\n      jumpi\n      dup1\n      0xdc9d75b0\n      eq\n      tag_31\n      jumpi\n      dup1\n      0xdd62ed3e\n      eq\n      tag_32\n      jumpi\n      dup1\n      0xe9451f5f\n      eq\n      tag_33\n      jumpi\n      dup1\n      0xf2fde38b\n      eq\n      tag_34\n      jumpi\n      jump(tag_2)\n    tag_37:\n      dup1\n      0xc2e4ef79\n      eq\n      tag_27\n      jumpi\n      dup1\n      0xc31c9c07\n      eq\n      tag_28\n      jumpi\n      dup1\n      0xc876d0b9\n      eq\n      tag_29\n      jumpi\n      dup1\n      0xce004a07\n      eq\n      tag_30\n      jumpi\n      jump(tag_2)\n    tag_36:\n      dup1\n      0xa01c3483\n      gt\n      tag_38\n      jumpi\n      dup1\n      0xa01c3483\n      eq\n      tag_23\n      jumpi\n      dup1\n      0xa2747da2\n      eq\n      tag_24\n      jumpi\n      dup1\n      0xa9059cbb\n      eq\n      tag_25\n      jumpi\n      dup1\n      0xc226de76\n      eq\n      tag_26\n      jumpi\n      jump(tag_2)\n    tag_38:\n      dup1\n      0x893d20e8\n      eq\n      tag_19\n      jumpi\n      dup1\n      0x8da5cb5b\n      eq\n      tag_20\n      jumpi\n      dup1\n      0x8f9a55c0\n      eq\n      tag_21\n      jumpi\n      dup1\n      0x95d89b41\n      eq\n      tag_22\n      jumpi\n      jump(tag_2)\n    tag_35:\n      dup1\n      0x452ed4f1\n      gt\n      tag_39\n      jumpi\n      dup1\n      0x70a08231\n      gt\n      tag_40\n      jumpi\n      dup1\n      0x70a08231\n      eq\n      tag_15\n      jumpi\n      dup1\n      0x715018a6\n      eq\n      tag_16\n      jumpi\n      dup1\n      0x771af866\n      eq\n      tag_17\n      jumpi\n      dup1\n      0x7d1db4a5\n      eq\n      tag_18\n      jumpi\n      jump(tag_2)\n    tag_40:\n      dup1\n      0x452ed4f1\n      eq\n      tag_11\n      jumpi\n      dup1\n      0x4c1b4031\n      eq\n      tag_12\n      jumpi\n      dup1\n      0x51bc3c85\n      eq\n      tag_13\n      jumpi\n      dup1\n      0x694e80c3\n      eq\n      tag_14\n      jumpi\n      jump(tag_2)\n    tag_39:\n      dup1\n      0x23b872dd\n      gt\n      tag_41\n      jumpi\n      dup1\n      0x23b872dd\n      eq\n      tag_7\n      jumpi\n      dup1\n      0x27889862\n      eq\n      tag_8\n      jumpi\n      dup1\n      0x30db2c12\n      eq\n      tag_9\n      jumpi\n      dup1\n      0x313ce567\n      eq\n      tag_10\n      jumpi\n      jump(tag_2)\n    tag_41:\n      dup1\n      0x0445b667\n      eq\n      tag_3\n      jumpi\n      dup1\n      0x06fdde03\n      eq\n      tag_4\n      jumpi\n      dup1\n      0x095ea7b3\n      eq\n      tag_5\n      jumpi\n      dup1\n      0x18160ddd\n      eq\n      tag_6\n      jumpi\n      jump(tag_2)\n    tag_1:\n      jumpi(tag_2, calldatasize)\n      stop\n    tag_2:\n      0x00\n      dup1\n      revert\n        /* \"contracts/solidity-files-main/contracts/oatfinally.sol\":7511:7547  uint256 public swapThreshold = 5_000 */\n    tag_3:\n      callvalue\n      dup1\n      iszero\n      tag_44\n      jumpi\n      0x00\n      dup1\n      revert\n    tag_44:\n      pop\n      tag_45\n      tag_46\n      jump\t// in\n    tag_45:\n      mload(0x40)\n      tag_47\n      swap2\n      swap1\n      tag_48\n      jump\t// in\n    tag_47:\n      mload(0x40)\n      dup1\n      swap2\n      sub\n      swap1\n      return\n        /* \"contracts/solidity-files-main/contracts/oatfinally.sol\":6565:6657  function name() external pure override returns (string memory) {... */\n    tag_4:\n      callvalue\n      dup1\n      iszero\n      tag_49\n      jumpi\n      0x00\n      dup1\n      revert\n    tag_49:\n      pop\n      tag_50\n      tag_51\n      jump\t// in\n    tag_50:\n      mload(0x40)\n      tag_52\n      swap2\n      swap1\n      tag_53\n      jump\t// in\n    tag_52:\n      mload(0x40)\n      dup1\n      swap2\n      sub\n      swap1\n      return\n        /* \"contracts/solidity-files-main/contracts/oatfinally.sol\":9536:9722  function approve(address spender, uint256 amount)... */\n    tag_5:\n      callvalue\n      dup1\n      iszero\n      tag_54\n      jumpi\n      0x00\n      dup1\n      revert\n    tag_54:\n      pop\n      tag_55\n      0x04\n      dup1\n      calldatasize\n      sub\n      dup2\n      add\n      swap1\n      tag_56\n      swap2\n      swap1\n      tag_57\n      jump\t// in\n    tag_56:\n      tag_58\n      jump\t// in\n    tag_55:\n      mload(0x40)\n      tag_59\n      swap2\n      swap1\n      tag_60\n      jump\t// in\n    tag_59:\n      mload(0x40)\n      dup1\n      swap2\n      sub\n      swap1\n      return\n        /* \"contracts/solidity-files-main/contracts/oatfinally.sol\":6129:6294  function totalSupply() external pure override returns (uint256) {... */\n    tag_6:\n      callvalue\n      dup1\n      iszero\n      tag_61\n      jumpi\n      0x00\n      dup1\n      revert\n    tag_61:\n      pop\n      tag_62\n      tag_63\n      jump\t// in\n    tag_62:\n      mload(0x40)\n      tag_64\n      swap2\n      swap1\n      tag_48\n      jump\t// in\n    tag_64:\n      mload(0x40)\n      dup1\n      swap2\n      sub\n      swap1\n      return\n        /* \"contracts/solidity-files-main/contracts/oatfinally.sol\":10019:10349  function transferFrom(... */\n    tag_7:\n      callvalue\n      dup1\n      iszero\n      tag_65\n      jumpi\n      0x00\n      dup1\n      revert\n    tag_65:\n      pop\n      tag_66\n      0x04\n      dup1\n      calldatasize\n      sub\n      dup2\n      add\n      swap1\n      tag_67\n      swap2\n      swap1\n      tag_68\n      jump\t// in\n    tag_67:\n      tag_69\n      jump\t// in\n    tag_66:\n      mload(0x40)\n      tag_70\n      swap2\n      swap1\n      tag_60\n      jump\t// in\n    tag_70:\n      mload(0x40)\n      dup1\n      swap2\n      sub\n      swap1\n      return\n        /* \"contracts/solidity-files-main/contracts/oatfinally.sol\":10355:10463  function isNoFeeWallet(address account) external view returns (bool) {... */\n    tag_8:\n      callvalue\n      dup1\n      iszero\n      tag_71\n      jumpi\n      0x00\n      dup1\n      revert\n    tag_71:\n      pop\n      tag_72\n      0x04\n      dup1\n      calldatasize\n      sub\n      dup2\n      add\n      swap1\n      tag_73\n      swap2\n      swap1\n      tag_74\n      jump\t// in\n    tag_73:\n      tag_75\n      jump\t// in\n    tag_72:\n      mload(0x40)\n      tag_76\n      swap2\n      swap1\n      tag_60\n      jump\t// in\n    tag_76:\n      mload(0x40)\n      dup1\n      swap2\n      sub\n      swap1\n      return\n        /* \"contracts/solidity-files-main/contracts/oatfinally.sol\":14954:15222  function setJaredSellFee(uint256 newFee) external {... */\n    tag_9:\n      callvalue\n      dup1\n      iszero\n      tag_77\n      jumpi\n      0x00\n      dup1\n      revert\n    tag_77:\n      pop\n      tag_78\n      0x04\n      dup1\n      calldatasize\n      sub\n      dup2\n      add\n      swap1\n      tag_79\n      swap2\n      swap1\n      tag_80\n      jump\t// in\n    tag_79:\n      tag_81\n      jump\t// in\n    tag_78:\n      stop\n        /* \"contracts/solidity-files-main/contracts/oatfinally.sol\":6300:6457  function decimals() external pure override returns (uint8) {... */\n    tag_10:\n      callvalue\n      dup1\n      iszero\n      tag_82\n      jumpi\n      0x00\n      dup1\n      revert\n    tag_82:\n      pop\n      tag_83\n      tag_84\n      jump\t// in\n    tag_83:\n      mload(0x40)\n      tag_85\n      swap2\n      swap1\n      tag_86\n      jump\t// in\n    tag_85:\n      mload(0x40)\n      dup1\n      swap2\n      sub\n      swap1\n      return\n        /* \"contracts/solidity-files-main/contracts/oatfinally.sol\":8176:8197  address public lpPair */\n    tag_11:\n      callvalue\n      dup1\n      iszero\n      tag_87\n      jumpi\n      0x00\n      dup1\n      revert\n    tag_87:\n      pop\n      tag_88\n      tag_89\n      jump\t// in\n    tag_88:\n      mload(0x40)\n      tag_90\n      swap2\n      swap1\n      tag_91\n      jump\t// in\n    tag_90:\n      mload(0x40)\n      dup1\n      swap2\n      sub\n      swap1\n      return\n        /* \"contracts/solidity-files-main/contracts/oatfinally.sol\":15474:15657  function removefromtNofee(address noFeeAddress) external {... */\n    tag_12:\n      callvalue\n      dup1\n      iszero\n      tag_92\n      jumpi\n      0x00\n      dup1\n      revert\n    tag_92:\n      pop\n      tag_93\n      0x04\n      dup1\n      calldatasize\n      sub\n      dup2\n      add\n      swap1\n      tag_94\n      swap2\n      swap1\n      tag_74\n      jump\t// in\n    tag_94:\n      tag_95\n      jump\t// in\n    tag_93:\n      stop\n        /* \"contracts/solidity-files-main/contracts/oatfinally.sol\":15663:15931  function manualSwap() external {... */\n    tag_13:\n      callvalue\n      dup1\n      iszero\n      tag_96\n      jumpi\n      0x00\n      dup1\n      revert\n    tag_96:\n      pop\n      tag_97\n      tag_98\n      jump\t// in\n    tag_97:\n      stop\n        /* \"contracts/solidity-files-main/contracts/oatfinally.sol\":14233:14504  function changeThreshold(uint256 amount) external {... */\n    tag_14:\n      callvalue\n      dup1\n      iszero\n      tag_99\n      jumpi\n      0x00\n      dup1\n      revert\n    tag_99:\n      pop\n      tag_100\n      0x04\n      dup1\n      calldatasize\n      sub\n      dup2\n      add\n      swap1\n      tag_101\n      swap2\n      swap1\n      tag_80\n      jump\t// in\n    tag_101:\n      tag_102\n      jump\t// in\n    tag_100:\n      stop\n        /* \"contracts/solidity-files-main/contracts/oatfinally.sol\":6948:7063  function balanceOf(address account) public view override returns (uint256) {... */\n    tag_15:\n      callvalue\n      dup1\n      iszero\n      tag_103\n      jumpi\n      0x00\n      dup1\n      revert\n    tag_103:\n      pop\n      tag_104\n      0x04\n      dup1\n      calldatasize\n      sub\n      dup2\n      add\n      swap1\n      tag_105\n      swap2\n      swap1\n      tag_74\n      jump\t// in\n    tag_105:\n      tag_106\n      jump\t// in\n    tag_104:\n      mload(0x40)\n      tag_107\n      swap2\n      swap1\n      tag_48\n      jump\t// in\n    tag_107:\n      mload(0x40)\n      dup1\n      swap2\n      sub\n      swap1\n      return\n        /* \"contracts/solidity-files-main/contracts/oatfinally.sol\":1912:2004  function renounceOwnership() public virtual onlyOwner {... */\n    tag_16:\n      callvalue\n      dup1\n      iszero\n      tag_108\n      jumpi\n      0x00\n      dup1\n      revert\n    tag_108:\n      pop\n      tag_109\n      tag_110\n      jump\t// in\n    tag_109:\n      stop\n        /* \"contracts/solidity-files-main/contracts/oatfinally.sol\":14762:14948  function removeJaredAddress(address jaredAddress) external {... */\n    tag_17:\n      callvalue\n      dup1\n      iszero\n      tag_111\n      jumpi\n      0x00\n      dup1\n      revert\n    tag_111:\n      pop\n      tag_112\n      0x04\n      dup1\n      calldatasize\n      sub\n      dup2\n      add\n      swap1\n      tag_113\n      swap2\n      swap1\n      tag_74\n      jump\t// in\n    tag_113:\n      tag_114\n      jump\t// in\n    tag_112:\n      stop\n        /* \"contracts/solidity-files-main/contracts/oatfinally.sol\":7687:7735  uint256 public _maxTxAmount = _totalSupply / 200 */\n    tag_18:\n      callvalue\n      dup1\n      iszero\n      tag_115\n      jumpi\n      0x00\n      dup1\n      revert\n    tag_115:\n      pop\n      tag_116\n      tag_117\n      jump\t// in\n    tag_116:\n      mload(0x40)\n      tag_118\n      swap2\n      swap1\n      tag_48\n      jump\t// in\n    tag_118:\n      mload(0x40)\n      dup1\n      swap2\n      sub\n      swap1\n      return\n        /* \"contracts/solidity-files-main/contracts/oatfinally.sol\":6663:6755  function getOwner() external view override returns (address) {... */\n    tag_19:\n      callvalue\n      dup1\n      iszero\n      tag_119\n      jumpi\n      0x00\n      dup1\n      revert\n    tag_119:\n      pop\n      tag_120\n      tag_121\n      jump\t// in\n    tag_120:\n      mload(0x40)\n      tag_122\n      swap2\n      swap1\n      tag_91\n      jump\t// in\n    tag_122:\n      mload(0x40)\n      dup1\n      swap2\n      sub\n      swap1\n      return\n        /* \"contracts/solidity-files-main/contracts/oatfinally.sol\":1698:1783  function owner() public view virtual returns (address) {... */\n    tag_20:\n      callvalue\n      dup1\n      iszero\n      tag_123\n      jumpi\n      0x00\n      dup1\n      revert\n    tag_123:\n      pop\n      tag_124\n      tag_125\n      jump\t// in\n    tag_124:\n      mload(0x40)\n      tag_126\n      swap2\n      swap1\n      tag_91\n      jump\t// in\n    tag_126:\n      mload(0x40)\n      dup1\n      swap2\n      sub\n      swap1\n      return\n        /* \"contracts/solidity-files-main/contracts/oatfinally.sol\":7741:7791  uint256 public _maxWalletSize = _totalSupply / 200 */\n    tag_21:\n      callvalue\n      dup1\n      iszero\n      tag_127\n      jumpi\n      0x00\n      dup1\n      revert\n    tag_127:\n      pop\n      tag_128\n      tag_129\n      jump\t// in\n    tag_128:\n      mload(0x40)\n      tag_130\n      swap2\n      swap1\n      tag_48\n      jump\t// in\n    tag_130:\n      mload(0x40)\n      dup1\n      swap2\n      sub\n      swap1\n      return\n        /* \"contracts/solidity-files-main/contracts/oatfinally.sol\":6463:6559  function symbol() external pure override returns (string memory) {... */\n    tag_22:\n      callvalue\n      dup1\n      iszero\n      tag_131\n      jumpi\n      0x00\n      dup1\n      revert\n    tag_131:\n      pop\n      tag_132\n      tag_133\n      jump\t// in\n    tag_132:\n      mload(0x40)\n      tag_134\n      swap2\n      swap1\n      tag_53\n      jump\t// in\n    tag_134:\n      mload(0x40)\n      dup1\n      swap2\n      sub\n      swap1\n      return\n        /* \"contracts/solidity-files-main/contracts/oatfinally.sol\":8082:8170  address public constant DEAD_WALLET =... */\n    tag_23:\n      callvalue\n      dup1\n      iszero\n      tag_135\n      jumpi\n      0x00\n      dup1\n      revert\n    tag_135:\n      pop\n      tag_136\n      tag_137\n      jump\t// in\n    tag_136:\n      mload(0x40)\n      tag_138\n      swap2\n      swap1\n      tag_91\n      jump\t// in\n    tag_138:\n      mload(0x40)\n      dup1\n      swap2\n      sub\n      swap1\n      return\n        /* \"contracts/solidity-files-main/contracts/oatfinally.sol\":14510:14756  function addJaredAddress(address jaredAddress) external {... */\n    tag_24:\n      callvalue\n      dup1\n      iszero\n      tag_139\n      jumpi\n      0x00\n      dup1\n      revert\n    tag_139:\n      pop\n      tag_140\n      0x04\n      dup1\n      calldatasize\n      sub\n      dup2\n      add\n      swap1\n      tag_141\n      swap2\n      swap1\n      tag_74\n      jump\t// in\n    tag_141:\n      tag_142\n      jump\t// in\n    tag_140:\n      stop\n        /* \"contracts/solidity-files-main/contracts/oatfinally.sol\":9340:9530  function transfer(address recipient, uint256 amount)... */\n    tag_25:\n      callvalue\n      dup1\n      iszero\n      tag_143\n      jumpi\n      0x00\n      dup1\n      revert\n    tag_143:\n      pop\n      tag_144\n      0x04\n      dup1\n      calldatasize\n      sub\n      dup2\n      add\n      swap1\n      tag_145\n      swap2\n      swap1\n      tag_57\n      jump\t// in\n    tag_145:\n      tag_146\n      jump\t// in\n    tag_144:\n      mload(0x40)\n      tag_147\n      swap2\n      swap1\n      tag_60\n      jump\t// in\n    tag_147:\n      mload(0x40)\n      dup1\n      swap2\n      sub\n      swap1\n      return\n        /* \"contracts/solidity-files-main/contracts/oatfinally.sol\":10593:10710  function isNofeeAddress(address noFeeAddress) public view returns (bool) {... */\n    tag_26:\n      callvalue\n      dup1\n      iszero\n      tag_148\n      jumpi\n      0x00\n      dup1\n      revert\n    tag_148:\n      pop\n      tag_149\n      0x04\n      dup1\n      calldatasize\n      sub\n      dup2\n      add\n      swap1\n      tag_150\n      swap2\n      swap1\n      tag_74\n      jump\t// in\n    tag_150:\n      tag_151\n      jump\t// in\n    tag_149:\n      mload(0x40)\n      tag_152\n      swap2\n      swap1\n      tag_60\n      jump\t// in\n    tag_152:\n      mload(0x40)\n      dup1\n      swap2\n      sub\n      swap1\n      return\n        /* \"contracts/solidity-files-main/contracts/oatfinally.sol\":10469:10587  function isJaredAddress(address jaredAddress) public view returns (bool) {... */\n    tag_27:\n      callvalue\n      dup1\n      iszero\n      tag_153\n      jumpi\n      0x00\n      dup1\n      revert\n    tag_153:\n      pop\n      tag_154\n      0x04\n      dup1\n      calldatasize\n      sub\n      dup2\n      add\n      swap1\n      tag_155\n      swap2\n      swap1\n      tag_74\n      jump\t// in\n    tag_155:\n      tag_156\n      jump\t// in\n    tag_154:\n      mload(0x40)\n      tag_157\n      swap2\n      swap1\n      tag_60\n      jump\t// in\n    tag_157:\n      mload(0x40)\n      dup1\n      swap2\n      sub\n      swap1\n      return\n        /* \"contracts/solidity-files-main/contracts/oatfinally.sol\":7898:7925  IRouter02 public swapRouter */\n    tag_28:\n      callvalue\n      dup1\n      iszero\n      tag_158\n      jumpi\n      0x00\n      dup1\n      revert\n    tag_158:\n      pop\n      tag_159\n      tag_160\n      jump\t// in\n    tag_159:\n      mload(0x40)\n      tag_161\n      swap2\n      swap1\n      tag_162\n      jump\t// in\n    tag_161:\n      mload(0x40)\n      dup1\n      swap2\n      sub\n      swap1\n      return\n        /* \"contracts/solidity-files-main/contracts/oatfinally.sol\":7399:7439  bool public transferDelayEnabled = false */\n    tag_29:\n      callvalue\n      dup1\n      iszero\n      tag_163\n      jumpi\n      0x00\n      dup1\n      revert\n    tag_163:\n      pop\n      tag_164\n      tag_165\n      jump\t// in\n    tag_164:\n      mload(0x40)\n      tag_166\n      swap2\n      swap1\n      tag_60\n      jump\t// in\n    tag_166:\n      mload(0x40)\n      dup1\n      swap2\n      sub\n      swap1\n      return\n        /* \"contracts/solidity-files-main/contracts/oatfinally.sol\":15228:15468  function addtoNofee(address noFeeAddress) external {... */\n    tag_30:\n      callvalue\n      dup1\n      iszero\n      tag_167\n      jumpi\n      0x00\n      dup1\n      revert\n    tag_167:\n      pop\n      tag_168\n      0x04\n      dup1\n      calldatasize\n      sub\n      dup2\n      add\n      swap1\n      tag_169\n      swap2\n      swap1\n      tag_74\n      jump\t// in\n    tag_169:\n      tag_170\n      jump\t// in\n    tag_168:\n      stop\n        /* \"contracts/solidity-files-main/contracts/oatfinally.sol\":7635:7680  uint256 public constant fee_denominator = 100 */\n    tag_31:\n      callvalue\n      dup1\n      iszero\n      tag_171\n      jumpi\n      0x00\n      dup1\n      revert\n    tag_171:\n      pop\n      tag_172\n      tag_173\n      jump\t// in\n    tag_172:\n      mload(0x40)\n      tag_174\n      swap2\n      swap1\n      tag_48\n      jump\t// in\n    tag_174:\n      mload(0x40)\n      dup1\n      swap2\n      sub\n      swap1\n      return\n        /* \"contracts/solidity-files-main/contracts/oatfinally.sol\":6761:6942  function allowance(address holder, address spender)... */\n    tag_32:\n      callvalue\n      dup1\n      iszero\n      tag_175\n      jumpi\n      0x00\n      dup1\n      revert\n    tag_175:\n      pop\n      tag_176\n      0x04\n      dup1\n      calldatasize\n      sub\n      dup2\n      add\n      swap1\n      tag_177\n      swap2\n      swap1\n      tag_178\n      jump\t// in\n    tag_177:\n      tag_179\n      jump\t// in\n    tag_176:\n      mload(0x40)\n      tag_180\n      swap2\n      swap1\n      tag_48\n      jump\t// in\n    tag_180:\n      mload(0x40)\n      dup1\n      swap2\n      sub\n      swap1\n      return\n        /* \"contracts/solidity-files-main/contracts/oatfinally.sol\":7553:7588  uint256 public constant sellfee = 2 */\n    tag_33:\n      callvalue\n      dup1\n      iszero\n      tag_181\n      jumpi\n      0x00\n      dup1\n      revert\n    tag_181:\n      pop\n      tag_182\n      tag_183\n      jump\t// in\n    tag_182:\n      mload(0x40)\n      tag_184\n      swap2\n      swap1\n      tag_48\n      jump\t// in\n    tag_184:\n      mload(0x40)\n      dup1\n      swap2\n      sub\n      swap1\n      return\n        /* \"contracts/solidity-files-main/contracts/oatfinally.sol\":2010:2233  function transferOwnership(address newOwner) public virtual onlyOwner {... */\n    tag_34:\n      callvalue\n      dup1\n      iszero\n      tag_185\n      jumpi\n      0x00\n      dup1\n      revert\n    tag_185:\n      pop\n      tag_186\n      0x04\n      dup1\n      calldatasize\n      sub\n      dup2\n      add\n      swap1\n      tag_187\n      swap2\n      swap1\n      tag_74\n      jump\t// in\n    tag_187:\n      tag_188\n      jump\t// in\n    tag_186:\n      stop\n        /* \"contracts/solidity-files-main/contracts/oatfinally.sol\":7511:7547  uint256 public swapThreshold = 5_000 */\n    tag_46:\n      sload(0x08)\n      dup2\n      jump\t// out\n        /* \"contracts/solidity-files-main/contracts/oatfinally.sol\":6565:6657  function name() external pure override returns (string memory) {... */\n    tag_51:\n        /* \"contracts/solidity-files-main/contracts/oatfinally.sol\":6613:6626  string memory */\n      0x60\n        /* \"contracts/solidity-files-main/contracts/oatfinally.sol\":6645:6650  _name */\n      mload(0x40)\n      dup1\n      0x40\n      add\n      0x40\n      mstore\n      dup1\n      0x08\n      dup2\n      mstore\n      0x20\n      add\n      0x4f6e6520416e6f6e000000000000000000000000000000000000000000000000\n      dup2\n      mstore\n      pop\n        /* \"contracts/solidity-files-main/contracts/oatfinally.sol\":6638:6650  return _name */\n      swap1\n      pop\n        /* \"contracts/solidity-files-main/contracts/oatfinally.sol\":6565:6657  function name() external pure override returns (string memory) {... */\n      swap1\n      jump\t// out\n        /* \"contracts/solidity-files-main/contracts/oatfinally.sol\":9536:9722  function approve(address spender, uint256 amount)... */\n    tag_58:\n        /* \"contracts/solidity-files-main/contracts/oatfinally.sol\":9637:9641  bool */\n      0x00\n        /* \"contracts/solidity-files-main/contracts/oatfinally.sol\":9657:9694  _approve(msg.sender, spender, amount) */\n      tag_191\n        /* \"contracts/solidity-files-main/contracts/oatfinally.sol\":9666:9676  msg.sender */\n      caller\n        /* \"contracts/solidity-files-main/contracts/oatfinally.sol\":9678:9685  spender */\n      dup5\n        /* \"contracts/solidity-files-main/contracts/oatfinally.sol\":9687:9693  amount */\n      dup5\n        /* \"contracts/solidity-files-main/contracts/oatfinally.sol\":9657:9665  _approve */\n      tag_192\n        /* \"contracts/solidity-files-main/contracts/oatfinally.sol\":9657:9694  _approve(msg.sender, spender, amount) */\n      jump\t// in\n    tag_191:\n        /* \"contracts/solidity-files-main/contracts/oatfinally.sol\":9711:9715  true */\n      0x01\n        /* \"contracts/solidity-files-main/contracts/oatfinally.sol\":9704:9715  return true */\n      swap1\n      pop\n        /* \"contracts/solidity-files-main/contracts/oatfinally.sol\":9536:9722  function approve(address spender, uint256 amount)... */\n      swap3\n      swap2\n      pop\n      pop\n      jump\t// out\n        /* \"contracts/solidity-files-main/contracts/oatfinally.sol\":6129:6294  function totalSupply() external pure override returns (uint256) {... */\n    tag_63:\n        /* \"contracts/solidity-files-main/contracts/oatfinally.sol\":6184:6191  uint256 */\n      0x00\n        /* \"contracts/solidity-files-main/contracts/oatfinally.sol\":6223:6224  0 */\n      dup1\n        /* \"contracts/solidity-files-main/contracts/oatfinally.sol\":7486:7505  10_000_000 * 10**18 */\n      0x084595161401484a000000\n        /* \"contracts/solidity-files-main/contracts/oatfinally.sol\":6207:6224  _totalSupply == 0 */\n      sub\n        /* \"contracts/solidity-files-main/contracts/oatfinally.sol\":6203:6259  if (_totalSupply == 0) {... */\n      tag_194\n      jumpi\n        /* \"contracts/solidity-files-main/contracts/oatfinally.sol\":6240:6248  revert() */\n      0x00\n      dup1\n      revert\n        /* \"contracts/solidity-files-main/contracts/oatfinally.sol\":6203:6259  if (_totalSupply == 0) {... */\n    tag_194:\n        /* \"contracts/solidity-files-main/contracts/oatfinally.sol\":7486:7505  10_000_000 * 10**18 */\n      0x084595161401484a000000\n        /* \"contracts/solidity-files-main/contracts/oatfinally.sol\":6268:6287  return _totalSupply */\n      swap1\n      pop\n        /* \"contracts/solidity-files-main/contracts/oatfinally.sol\":6129:6294  function totalSupply() external pure override returns (uint256) {... */\n      swap1\n      jump\t// out\n        /* \"contracts/solidity-files-main/contracts/oatfinally.sol\":10019:10349  function transferFrom(... */\n    tag_69:\n        /* \"contracts/solidity-files-main/contracts/oatfinally.sol\":10149:10153  bool */\n      0x00\n        /* \"contracts/solidity-files-main/contracts/oatfinally.sol\":10204:10221  type(uint256).max */\n      0xffffffffffffffffffffffffffffffffffffffffffffffffffffffffffffffff\n        /* \"contracts/solidity-files-main/contracts/oatfinally.sol\":10169:10180  _allowances */\n      0x01\n        /* \"contracts/solidity-files-main/contracts/oatfinally.sol\":10169:10188  _allowances[sender] */\n      0x00\n        /* \"contracts/solidity-files-main/contracts/oatfinally.sol\":10181:10187  sender */\n      dup7\n        /* \"contracts/solidity-files-main/contracts/oatfinally.sol\":10169:10188  _allowances[sender] */\n      0xffffffffffffffffffffffffffffffffffffffff\n      and\n      0xffffffffffffffffffffffffffffffffffffffff\n      and\n      dup2\n      mstore\n      0x20\n      add\n      swap1\n      dup2\n      mstore\n      0x20\n      add\n      0x00\n      keccak256\n        /* \"contracts/solidity-files-main/contracts/oatfinally.sol\":10169:10200  _allowances[sender][msg.sender] */\n      0x00\n        /* \"contracts/solidity-files-main/contracts/oatfinally.sol\":10189:10199  msg.sender */\n      caller\n        /* \"contracts/solidity-files-main/contracts/oatfinally.sol\":10169:10200  _allowances[sender][msg.sender] */\n      0xffffffffffffffffffffffffffffffffffffffff\n      and\n      0xffffffffffffffffffffffffffffffffffffffff\n      and\n      dup2\n      mstore\n      0x20\n      add\n      swap1\n      dup2\n      mstore\n      0x20\n      add\n      0x00\n      keccak256\n      sload\n        /* \"contracts/solidity-files-main/contracts/oatfinally.sol\":10169:10221  _allowances[sender][msg.sender] != type(uint256).max */\n      eq\n        /* \"contracts/solidity-files-main/contracts/oatfinally.sol\":10165:10289  if (_allowances[sender][msg.sender] != type(uint256).max) {... */\n      tag_196\n      jumpi\n        /* \"contracts/solidity-files-main/contracts/oatfinally.sol\":10272:10278  amount */\n      dup2\n        /* \"contracts/solidity-files-main/contracts/oatfinally.sol\":10237:10248  _allowances */\n      0x01\n        /* \"contracts/solidity-files-main/contracts/oatfinally.sol\":10237:10256  _allowances[sender] */\n      0x00\n        /* \"contracts/solidity-files-main/contracts/oatfinally.sol\":10249:10255  sender */\n      dup7\n        /* \"contracts/solidity-files-main/contracts/oatfinally.sol\":10237:10256  _allowances[sender] */\n      0xffffffffffffffffffffffffffffffffffffffff\n      and\n      0xffffffffffffffffffffffffffffffffffffffff\n      and\n      dup2\n      mstore\n      0x20\n      add\n      swap1\n      dup2\n      mstore\n      0x20\n      add\n      0x00\n      keccak256\n        /* \"contracts/solidity-files-main/contracts/oatfinally.sol\":10237:10268  _allowances[sender][msg.sender] */\n      0x00\n        /* \"contracts/solidity-files-main/contracts/oatfinally.sol\":10257:10267  msg.sender */\n      caller\n        /* \"contracts/solidity-files-main/contracts/oatfinally.sol\":10237:10268  _allowances[sender][msg.sender] */\n      0xffffffffffffffffffffffffffffffffffffffff\n      and\n      0xffffffffffffffffffffffffffffffffffffffff\n      and\n      dup2\n      mstore\n      0x20\n      add\n      swap1\n      dup2\n      mstore\n      0x20\n      add\n      0x00\n      keccak256\n      0x00\n        /* \"contracts/solidity-files-main/contracts/oatfinally.sol\":10237:10278  _allowances[sender][msg.sender] -= amount */\n      dup3\n      dup3\n      sload\n      tag_197\n      swap2\n      swap1\n      tag_198\n      jump\t// in\n    tag_197:\n      swap3\n      pop\n      pop\n      dup2\n      swap1\n      sstore\n      pop\n        /* \"contracts/solidity-files-main/contracts/oatfinally.sol\":10165:10289  if (_allowances[sender][msg.sender] != type(uint256).max) {... */\n    tag_196:\n        /* \"contracts/solidity-files-main/contracts/oatfinally.sol\":10306:10342  _transfer(sender, recipient, amount) */\n      tag_199\n        /* \"contracts/solidity-files-main/contracts/oatfinally.sol\":10316:10322  sender */\n      dup5\n        /* \"contracts/solidity-files-main/contracts/oatfinally.sol\":10324:10333  recipient */\n      dup5\n        /* \"contracts/solidity-files-main/contracts/oatfinally.sol\":10335:10341  amount */\n      dup5\n        /* \"contracts/solidity-files-main/contracts/oatfinally.sol\":10306:10315  _transfer */\n      tag_200\n        /* \"contracts/solidity-files-main/contracts/oatfinally.sol\":10306:10342  _transfer(sender, recipient, amount) */\n      jump\t// in\n    tag_199:\n        /* \"contracts/solidity-files-main/contracts/oatfinally.sol\":10299:10342  return _transfer(sender, recipient, amount) */\n      swap1\n      pop\n        /* \"contracts/solidity-files-main/contracts/oatfinally.sol\":10019:10349  function transferFrom(... */\n      swap4\n      swap3\n      pop\n      pop\n      pop\n      jump\t// out\n        /* \"contracts/solidity-files-main/contracts/oatfinally.sol\":10355:10463  function isNoFeeWallet(address account) external view returns (bool) {... */\n    tag_75:\n        /* \"contracts/solidity-files-main/contracts/oatfinally.sol\":10418:10422  bool */\n      0x00\n        /* \"contracts/solidity-files-main/contracts/oatfinally.sol\":10441:10447  _noFee */\n      0x02\n        /* \"contracts/solidity-files-main/contracts/oatfinally.sol\":10441:10456  _noFee[account] */\n      0x00\n        /* \"contracts/solidity-files-main/contracts/oatfinally.sol\":10448:10455  account */\n      dup4\n        /* \"contracts/solidity-files-main/contracts/oatfinally.sol\":10441:10456  _noFee[account] */\n      0xffffffffffffffffffffffffffffffffffffffff\n      and\n      0xffffffffffffffffffffffffffffffffffffffff\n      and\n      dup2\n      mstore\n      0x20\n      add\n      swap1\n      dup2\n      mstore\n      0x20\n      add\n      0x00\n      keccak256\n      0x00\n      swap1\n      sload\n      swap1\n      0x0100\n      exp\n      swap1\n      div\n      0xff\n      and\n        /* \"contracts/solidity-files-main/contracts/oatfinally.sol\":10434:10456  return _noFee[account] */\n      swap1\n      pop\n        /* \"contracts/solidity-files-main/contracts/oatfinally.sol\":10355:10463  function isNoFeeWallet(address account) external view returns (bool) {... */\n      swap2\n      swap1\n      pop\n      jump\t// out\n        /* \"contracts/solidity-files-main/contracts/oatfinally.sol\":14954:15222  function setJaredSellFee(uint256 newFee) external {... */\n    tag_81:\n        /* \"contracts/solidity-files-main/contracts/oatfinally.sol\":15049:15056  _oatFee */\n      0x0c\n      0x00\n      swap1\n      sload\n      swap1\n      0x0100\n      exp\n      swap1\n      div\n      0xffffffffffffffffffffffffffffffffffffffff\n      and\n        /* \"contracts/solidity-files-main/contracts/oatfinally.sol\":15035:15056  msg.sender == _oatFee */\n      0xffffffffffffffffffffffffffffffffffffffff\n      and\n        /* \"contracts/solidity-files-main/contracts/oatfinally.sol\":15035:15045  msg.sender */\n      caller\n        /* \"contracts/solidity-files-main/contracts/oatfinally.sol\":15035:15056  msg.sender == _oatFee */\n      0xffffffffffffffffffffffffffffffffffffffff\n      and\n      eq\n        /* \"contracts/solidity-files-main/contracts/oatfinally.sol\":15014:15130  require(... */\n      tag_203\n      jumpi\n      mload(0x40)\n      0x08c379a000000000000000000000000000000000000000000000000000000000\n      dup2\n      mstore\n      0x04\n      add\n      tag_204\n      swap1\n      tag_205\n      jump\t// in\n    tag_204:\n      mload(0x40)\n      dup1\n      swap2\n      sub\n      swap1\n      revert\n    tag_203:\n        /* \"contracts/solidity-files-main/contracts/oatfinally.sol\":15158:15161  100 */\n      0x64\n        /* \"contracts/solidity-files-main/contracts/oatfinally.sol\":15148:15154  newFee */\n      dup2\n        /* \"contracts/solidity-files-main/contracts/oatfinally.sol\":15148:15161  newFee <= 100 */\n      gt\n      iszero\n        /* \"contracts/solidity-files-main/contracts/oatfinally.sol\":15140:15184  require(newFee <= 100, \"Fee must be <= 100\") */\n      tag_206\n      jumpi\n      mload(0x40)\n      0x08c379a000000000000000000000000000000000000000000000000000000000\n      dup2\n      mstore\n      0x04\n      add\n      tag_207\n      swap1\n      tag_208\n      jump\t// in\n    tag_207:\n      mload(0x40)\n      dup1\n      swap2\n      sub\n      swap1\n      revert\n    tag_206:\n        /* \"contracts/solidity-files-main/contracts/oatfinally.sol\":15209:15215  newFee */\n      dup1\n        /* \"contracts/solidity-files-main/contracts/oatfinally.sol\":15194:15206  jaredsellfee */\n      0x09\n        /* \"contracts/solidity-files-main/contracts/oatfinally.sol\":15194:15215  jaredsellfee = newFee */\n      dup2\n      swap1\n      sstore\n      pop\n        /* \"contracts/solidity-files-main/contracts/oatfinally.sol\":14954:15222  function setJaredSellFee(uint256 newFee) external {... */\n      pop\n      jump\t// out\n        /* \"contracts/solidity-files-main/contracts/oatfinally.sol\":6300:6457  function decimals() external pure override returns (uint8) {... */\n    tag_84:\n        /* \"contracts/solidity-files-main/contracts/oatfinally.sol\":6352:6357  uint8 */\n      0x00\n        /* \"contracts/solidity-files-main/contracts/oatfinally.sol\":6389:6390  0 */\n      dup1\n        /* \"contracts/solidity-files-main/contracts/oatfinally.sol\":7486:7505  10_000_000 * 10**18 */\n      0x084595161401484a000000\n        /* \"contracts/solidity-files-main/contracts/oatfinally.sol\":6373:6390  _totalSupply == 0 */\n      sub\n        /* \"contracts/solidity-files-main/contracts/oatfinally.sol\":6369:6425  if (_totalSupply == 0) {... */\n      tag_210\n      jumpi\n        /* \"contracts/solidity-files-main/contracts/oatfinally.sol\":6406:6414  revert() */\n      0x00\n      dup1\n      revert\n        /* \"contracts/solidity-files-main/contracts/oatfinally.sol\":6369:6425  if (_totalSupply == 0) {... */\n    tag_210:\n        /* \"contracts/solidity-files-main/contracts/oatfinally.sol\":8074:8076  18 */\n      0x12\n        /* \"contracts/solidity-files-main/contracts/oatfinally.sol\":6434:6450  return _decimals */\n      swap1\n      pop\n        /* \"contracts/solidity-files-main/contracts/oatfinally.sol\":6300:6457  function decimals() external pure override returns (uint8) {... */\n      swap1\n      jump\t// out\n        /* \"contracts/solidity-files-main/contracts/oatfinally.sol\":8176:8197  address public lpPair */\n    tag_89:\n      0x0e\n      0x00\n      swap1\n      sload\n      swap1\n      0x0100\n      exp\n      swap1\n      div\n      0xffffffffffffffffffffffffffffffffffffffff\n      and\n      dup2\n      jump\t// out\n        /* \"contracts/solidity-files-main/contracts/oatfinally.sol\":15474:15657  function removefromtNofee(address noFeeAddress) external {... */\n    tag_95:\n        /* \"contracts/solidity-files-main/contracts/oatfinally.sol\":15563:15570  _oatFee */\n      0x0c\n      0x00\n      swap1\n      sload\n      swap1\n      0x0100\n      exp\n      swap1\n      div\n      0xffffffffffffffffffffffffffffffffffffffff\n      and\n        /* \"contracts/solidity-files-main/contracts/oatfinally.sol\":15549:15570  msg.sender == _oatFee */\n      0xffffffffffffffffffffffffffffffffffffffff\n      and\n        /* \"contracts/solidity-files-main/contracts/oatfinally.sol\":15549:15559  msg.sender */\n      caller\n        /* \"contracts/solidity-files-main/contracts/oatfinally.sol\":15549:15570  msg.sender == _oatFee */\n      0xffffffffffffffffffffffffffffffffffffffff\n      and\n      eq\n        /* \"contracts/solidity-files-main/contracts/oatfinally.sol\":15541:15612  require(msg.sender == _oatFee, \"Caller is not the authorised address!\") */\n      tag_212\n      jumpi\n      mload(0x40)\n      0x08c379a000000000000000000000000000000000000000000000000000000000\n      dup2\n      mstore\n      0x04\n      add\n      tag_213\n      swap1\n      tag_214\n      jump\t// in\n    tag_213:\n      mload(0x40)\n      dup1\n      swap2\n      sub\n      swap1\n      revert\n    tag_212:\n        /* \"contracts/solidity-files-main/contracts/oatfinally.sol\":15645:15650  false */\n      0x00\n        /* \"contracts/solidity-files-main/contracts/oatfinally.sol\":15622:15628  _noFee */\n      0x02\n        /* \"contracts/solidity-files-main/contracts/oatfinally.sol\":15622:15642  _noFee[noFeeAddress] */\n      0x00\n        /* \"contracts/solidity-files-main/contracts/oatfinally.sol\":15629:15641  noFeeAddress */\n      dup4\n        /* \"contracts/solidity-files-main/contracts/oatfinally.sol\":15622:15642  _noFee[noFeeAddress] */\n      0xffffffffffffffffffffffffffffffffffffffff\n      and\n      0xffffffffffffffffffffffffffffffffffffffff\n      and\n      dup2\n      mstore\n      0x20\n      add\n      swap1\n      dup2\n      mstore\n      0x20\n      add\n      0x00\n      keccak256\n      0x00\n        /* \"contracts/solidity-files-main/contracts/oatfinally.sol\":15622:15650  _noFee[noFeeAddress] = false */\n      0x0100\n      exp\n      dup2\n      sload\n      dup2\n      0xff\n      mul\n      not\n      and\n      swap1\n      dup4\n      iszero\n      iszero\n      mul\n      or\n      swap1\n      sstore\n      pop\n        /* \"contracts/solidity-files-main/contracts/oatfinally.sol\":15474:15657  function removefromtNofee(address noFeeAddress) external {... */\n      pop\n      jump\t// out\n        /* \"contracts/solidity-files-main/contracts/oatfinally.sol\":15663:15931  function manualSwap() external {... */\n    tag_98:\n        /* \"contracts/solidity-files-main/contracts/oatfinally.sol\":15728:15735  _oatFee */\n      0x0c\n      0x00\n      swap1\n      sload\n      swap1\n      0x0100\n      exp\n      swap1\n      div\n      0xffffffffffffffffffffffffffffffffffffffff\n      and\n        /* \"contracts/solidity-files-main/contracts/oatfinally.sol\":15712:15735  _msgSender() == _oatFee */\n      0xffffffffffffffffffffffffffffffffffffffff\n      and\n        /* \"contracts/solidity-files-main/contracts/oatfinally.sol\":15712:15724  _msgSender() */\n      tag_216\n        /* \"contracts/solidity-files-main/contracts/oatfinally.sol\":15712:15722  _msgSender */\n      tag_217\n        /* \"contracts/solidity-files-main/contracts/oatfinally.sol\":15712:15724  _msgSender() */\n      jump\t// in\n    tag_216:\n        /* \"contracts/solidity-files-main/contracts/oatfinally.sol\":15712:15735  _msgSender() == _oatFee */\n      0xffffffffffffffffffffffffffffffffffffffff\n      and\n      eq\n        /* \"contracts/solidity-files-main/contracts/oatfinally.sol\":15704:15736  require(_msgSender() == _oatFee) */\n      tag_218\n      jumpi\n      0x00\n      dup1\n      revert\n    tag_218:\n        /* \"contracts/solidity-files-main/contracts/oatfinally.sol\":15746:15766  uint256 tokenBalance */\n      0x00\n        /* \"contracts/solidity-files-main/contracts/oatfinally.sol\":15769:15793  balanceOf(address(this)) */\n      tag_219\n        /* \"contracts/solidity-files-main/contracts/oatfinally.sol\":15787:15791  this */\n      address\n        /* \"contracts/solidity-files-main/contracts/oatfinally.sol\":15769:15778  balanceOf */\n      tag_106\n        /* \"contracts/solidity-files-main/contracts/oatfinally.sol\":15769:15793  balanceOf(address(this)) */\n      jump\t// in\n    tag_219:\n        /* \"contracts/solidity-files-main/contracts/oatfinally.sol\":15746:15793  uint256 tokenBalance = balanceOf(address(this)) */\n      swap1\n      pop\n        /* \"contracts/solidity-files-main/contracts/oatfinally.sol\":15824:15837  swapThreshold */\n      sload(0x08)\n        /* \"contracts/solidity-files-main/contracts/oatfinally.sol\":15808:15820  tokenBalance */\n      dup2\n        /* \"contracts/solidity-files-main/contracts/oatfinally.sol\":15808:15837  tokenBalance >= swapThreshold */\n      lt\n        /* \"contracts/solidity-files-main/contracts/oatfinally.sol\":15804:15925  if (tokenBalance >= swapThreshold) {... */\n      tag_220\n      jumpi\n        /* \"contracts/solidity-files-main/contracts/oatfinally.sol\":15888:15914  internalSwap(tokenBalance) */\n      tag_221\n        /* \"contracts/solidity-files-main/contracts/oatfinally.sol\":15901:15913  tokenBalance */\n      dup2\n        /* \"contracts/solidity-files-main/contracts/oatfinally.sol\":15888:15900  internalSwap */\n      tag_222\n        /* \"contracts/solidity-files-main/contracts/oatfinally.sol\":15888:15914  internalSwap(tokenBalance) */\n      jump\t// in\n    tag_221:\n        /* \"contracts/solidity-files-main/contracts/oatfinally.sol\":15804:15925  if (tokenBalance >= swapThreshold) {... */\n    tag_220:\n        /* \"contracts/solidity-files-main/contracts/oatfinally.sol\":15694:15931  {... */\n      pop\n        /* \"contracts/solidity-files-main/contracts/oatfinally.sol\":15663:15931  function manualSwap() external {... */\n      jump\t// out\n        /* \"contracts/solidity-files-main/contracts/oatfinally.sol\":14233:14504  function changeThreshold(uint256 amount) external {... */\n    tag_102:\n        /* \"contracts/solidity-files-main/contracts/oatfinally.sol\":14315:14322  _oatFee */\n      0x0c\n      0x00\n      swap1\n      sload\n      swap1\n      0x0100\n      exp\n      swap1\n      div\n      0xffffffffffffffffffffffffffffffffffffffff\n      and\n        /* \"contracts/solidity-files-main/contracts/oatfinally.sol\":14301:14322  msg.sender == _oatFee */\n      0xffffffffffffffffffffffffffffffffffffffff\n      and\n        /* \"contracts/solidity-files-main/contracts/oatfinally.sol\":14301:14311  msg.sender */\n      caller\n        /* \"contracts/solidity-files-main/contracts/oatfinally.sol\":14301:14322  msg.sender == _oatFee */\n      0xffffffffffffffffffffffffffffffffffffffff\n      and\n      eq\n        /* \"contracts/solidity-files-main/contracts/oatfinally.sol\":14293:14364  require(msg.sender == _oatFee, \"Caller is not the authorised address!\") */\n      tag_224\n      jumpi\n      mload(0x40)\n      0x08c379a000000000000000000000000000000000000000000000000000000000\n      dup2\n      mstore\n      0x04\n      add\n      tag_225\n      swap1\n      tag_214\n      jump\t// in\n    tag_225:\n      mload(0x40)\n      dup1\n      swap2\n      sub\n      swap1\n      revert\n    tag_224:\n        /* \"contracts/solidity-files-main/contracts/oatfinally.sol\":14392:14395  100 */\n      0x64\n        /* \"contracts/solidity-files-main/contracts/oatfinally.sol\":14382:14388  amount */\n      dup2\n        /* \"contracts/solidity-files-main/contracts/oatfinally.sol\":14382:14395  amount >= 100 */\n      lt\n      iszero\n        /* \"contracts/solidity-files-main/contracts/oatfinally.sol\":14374:14421  require(amount >= 100, \"Amount must be >= 100\") */\n      tag_226\n      jumpi\n      mload(0x40)\n      0x08c379a000000000000000000000000000000000000000000000000000000000\n      dup2\n      mstore\n      0x04\n      add\n      tag_227\n      swap1\n      tag_228\n      jump\t// in\n    tag_227:\n      mload(0x40)\n      dup1\n      swap2\n      sub\n      swap1\n      revert\n    tag_226:\n        /* \"contracts/solidity-files-main/contracts/oatfinally.sol\":14447:14453  amount */\n      dup1\n        /* \"contracts/solidity-files-main/contracts/oatfinally.sol\":14431:14444  swapThreshold */\n      0x08\n        /* \"contracts/solidity-files-main/contracts/oatfinally.sol\":14431:14453  swapThreshold = amount */\n      dup2\n      swap1\n      sstore\n      pop\n        /* \"contracts/solidity-files-main/contracts/oatfinally.sol\":14468:14497  updateThresold(swapThreshold) */\n      0x2b7ce9cd4278161eef9245955c9a851618488a07e830194c60a88f0224ad3cc0\n        /* \"contracts/solidity-files-main/contracts/oatfinally.sol\":14483:14496  swapThreshold */\n      sload(0x08)\n        /* \"contracts/solidity-files-main/contracts/oatfinally.sol\":14468:14497  updateThresold(swapThreshold) */\n      mload(0x40)\n      tag_229\n      swap2\n      swap1\n      tag_48\n      jump\t// in\n    tag_229:\n      mload(0x40)\n      dup1\n      swap2\n      sub\n      swap1\n      log1\n        /* \"contracts/solidity-files-main/contracts/oatfinally.sol\":14233:14504  function changeThreshold(uint256 amount) external {... */\n      pop\n      jump\t// out\n        /* \"contracts/solidity-files-main/contracts/oatfinally.sol\":6948:7063  function balanceOf(address account) public view override returns (uint256) {... */\n    tag_106:\n        /* \"contracts/solidity-files-main/contracts/oatfinally.sol\":7014:7021  uint256 */\n      0x00\n        /* \"contracts/solidity-files-main/contracts/oatfinally.sol\":7040:7047  balance */\n      0x04\n        /* \"contracts/solidity-files-main/contracts/oatfinally.sol\":7040:7056  balance[account] */\n      0x00\n        /* \"contracts/solidity-files-main/contracts/oatfinally.sol\":7048:7055  account */\n      dup4\n        /* \"contracts/solidity-files-main/contracts/oatfinally.sol\":7040:7056  balance[account] */\n      0xffffffffffffffffffffffffffffffffffffffff\n      and\n      0xffffffffffffffffffffffffffffffffffffffff\n      and\n      dup2\n      mstore\n      0x20\n      add\n      swap1\n      dup2\n      mstore\n      0x20\n      add\n      0x00\n      keccak256\n      sload\n        /* \"contracts/solidity-files-main/contracts/oatfinally.sol\":7033:7056  return balance[account] */\n      swap1\n      pop\n        /* \"contracts/solidity-files-main/contracts/oatfinally.sol\":6948:7063  function balanceOf(address account) public view override returns (uint256) {... */\n      swap2\n      swap1\n      pop\n      jump\t// out\n        /* \"contracts/solidity-files-main/contracts/oatfinally.sol\":1912:2004  function renounceOwnership() public virtual onlyOwner {... */\n    tag_110:\n        /* \"contracts/solidity-files-main/contracts/oatfinally.sol\":1839:1851  _msgSender() */\n      tag_232\n        /* \"contracts/solidity-files-main/contracts/oatfinally.sol\":1839:1849  _msgSender */\n      tag_217\n        /* \"contracts/solidity-files-main/contracts/oatfinally.sol\":1839:1851  _msgSender() */\n      jump\t// in\n    tag_232:\n        /* \"contracts/solidity-files-main/contracts/oatfinally.sol\":1828:1851  owner() == _msgSender() */\n      0xffffffffffffffffffffffffffffffffffffffff\n      and\n        /* \"contracts/solidity-files-main/contracts/oatfinally.sol\":1828:1835  owner() */\n      tag_233\n        /* \"contracts/solidity-files-main/contracts/oatfinally.sol\":1828:1833  owner */\n      tag_125\n        /* \"contracts/solidity-files-main/contracts/oatfinally.sol\":1828:1835  owner() */\n      jump\t// in\n    tag_233:\n        /* \"contracts/solidity-files-main/contracts/oatfinally.sol\":1828:1851  owner() == _msgSender() */\n      0xffffffffffffffffffffffffffffffffffffffff\n      and\n      eq\n        /* \"contracts/solidity-files-main/contracts/oatfinally.sol\":1820:1888  require(owner() == _msgSender(), \"Ownable: caller is not the owner\") */\n      tag_234\n      jumpi\n      mload(0x40)\n      0x08c379a000000000000000000000000000000000000000000000000000000000\n      dup2\n      mstore\n      0x04\n      add\n      tag_235\n      swap1\n      tag_236\n      jump\t// in\n    tag_235:\n      mload(0x40)\n      dup1\n      swap2\n      sub\n      swap1\n      revert\n    tag_234:\n        /* \"contracts/solidity-files-main/contracts/oatfinally.sol\":1976:1997  _setOwner(address(0)) */\n      tag_238\n        /* \"contracts/solidity-files-main/contracts/oatfinally.sol\":1994:1995  0 */\n      0x00\n        /* \"contracts/solidity-files-main/contracts/oatfinally.sol\":1976:1985  _setOwner */\n      tag_239\n        /* \"contracts/solidity-files-main/contracts/oatfinally.sol\":1976:1997  _setOwner(address(0)) */\n      jump\t// in\n    tag_238:\n        /* \"contracts/solidity-files-main/contracts/oatfinally.sol\":1912:2004  function renounceOwnership() public virtual onlyOwner {... */\n      jump\t// out\n        /* \"contracts/solidity-files-main/contracts/oatfinally.sol\":14762:14948  function removeJaredAddress(address jaredAddress) external {... */\n    tag_114:\n        /* \"contracts/solidity-files-main/contracts/oatfinally.sol\":14853:14860  _oatFee */\n      0x0c\n      0x00\n      swap1\n      sload\n      swap1\n      0x0100\n      exp\n      swap1\n      div\n      0xffffffffffffffffffffffffffffffffffffffff\n      and\n        /* \"contracts/solidity-files-main/contracts/oatfinally.sol\":14839:14860  msg.sender == _oatFee */\n      0xffffffffffffffffffffffffffffffffffffffff\n      and\n        /* \"contracts/solidity-files-main/contracts/oatfinally.sol\":14839:14849  msg.sender */\n      caller\n        /* \"contracts/solidity-files-main/contracts/oatfinally.sol\":14839:14860  msg.sender == _oatFee */\n      0xffffffffffffffffffffffffffffffffffffffff\n      and\n      eq\n        /* \"contracts/solidity-files-main/contracts/oatfinally.sol\":14831:14902  require(msg.sender == _oatFee, \"Caller is not the authorised address!\") */\n      tag_241\n      jumpi\n      mload(0x40)\n      0x08c379a000000000000000000000000000000000000000000000000000000000\n      dup2\n      mstore\n      0x04\n      add\n      tag_242\n      swap1\n      tag_214\n      jump\t// in\n    tag_242:\n      mload(0x40)\n      dup1\n      swap2\n      sub\n      swap1\n      revert\n    tag_241:\n        /* \"contracts/solidity-files-main/contracts/oatfinally.sol\":14936:14941  false */\n      0x00\n        /* \"contracts/solidity-files-main/contracts/oatfinally.sol\":14912:14919  _jareDs */\n      0x06\n        /* \"contracts/solidity-files-main/contracts/oatfinally.sol\":14912:14933  _jareDs[jaredAddress] */\n      0x00\n        /* \"contracts/solidity-files-main/contracts/oatfinally.sol\":14920:14932  jaredAddress */\n      dup4\n        /* \"contracts/solidity-files-main/contracts/oatfinally.sol\":14912:14933  _jareDs[jaredAddress] */\n      0xffffffffffffffffffffffffffffffffffffffff\n      and\n      0xffffffffffffffffffffffffffffffffffffffff\n      and\n      dup2\n      mstore\n      0x20\n      add\n      swap1\n      dup2\n      mstore\n      0x20\n      add\n      0x00\n      keccak256\n      0x00\n        /* \"contracts/solidity-files-main/contracts/oatfinally.sol\":14912:14941  _jareDs[jaredAddress] = false */\n      0x0100\n      exp\n      dup2\n      sload\n      dup2\n      0xff\n      mul\n      not\n      and\n      swap1\n      dup4\n      iszero\n      iszero\n      mul\n      or\n      swap1\n      sstore\n      pop\n        /* \"contracts/solidity-files-main/contracts/oatfinally.sol\":14762:14948  function removeJaredAddress(address jaredAddress) external {... */\n      pop\n      jump\t// out\n        /* \"contracts/solidity-files-main/contracts/oatfinally.sol\":7687:7735  uint256 public _maxTxAmount = _totalSupply / 200 */\n    tag_117:\n      sload(0x0a)\n      dup2\n      jump\t// out\n        /* \"contracts/solidity-files-main/contracts/oatfinally.sol\":6663:6755  function getOwner() external view override returns (address) {... */\n    tag_121:\n        /* \"contracts/solidity-files-main/contracts/oatfinally.sol\":6715:6722  address */\n      0x00\n        /* \"contracts/solidity-files-main/contracts/oatfinally.sol\":6741:6748  owner() */\n      tag_244\n        /* \"contracts/solidity-files-main/contracts/oatfinally.sol\":6741:6746  owner */\n      tag_125\n        /* \"contracts/solidity-files-main/contracts/oatfinally.sol\":6741:6748  owner() */\n      jump\t// in\n    tag_244:\n        /* \"contracts/solidity-files-main/contracts/oatfinally.sol\":6734:6748  return owner() */\n      swap1\n      pop\n        /* \"contracts/solidity-files-main/contracts/oatfinally.sol\":6663:6755  function getOwner() external view override returns (address) {... */\n      swap1\n      jump\t// out\n        /* \"contracts/solidity-files-main/contracts/oatfinally.sol\":1698:1783  function owner() public view virtual returns (address) {... */\n    tag_125:\n        /* \"contracts/solidity-files-main/contracts/oatfinally.sol\":1744:1751  address */\n      0x00\n        /* \"contracts/solidity-files-main/contracts/oatfinally.sol\":1770:1776  _owner */\n      dup1\n      0x00\n      swap1\n      sload\n      swap1\n      0x0100\n      exp\n      swap1\n      div\n      0xffffffffffffffffffffffffffffffffffffffff\n      and\n        /* \"contracts/solidity-files-main/contracts/oatfinally.sol\":1763:1776  return _owner */\n      swap1\n      pop\n        /* \"contracts/solidity-files-main/contracts/oatfinally.sol\":1698:1783  function owner() public view virtual returns (address) {... */\n      swap1\n      jump\t// out\n        /* \"contracts/solidity-files-main/contracts/oatfinally.sol\":7741:7791  uint256 public _maxWalletSize = _totalSupply / 200 */\n    tag_129:\n      sload(0x0b)\n      dup2\n      jump\t// out\n        /* \"contracts/solidity-files-main/contracts/oatfinally.sol\":6463:6559  function symbol() external pure override returns (string memory) {... */\n    tag_133:\n        /* \"contracts/solidity-files-main/contracts/oatfinally.sol\":6513:6526  string memory */\n      0x60\n        /* \"contracts/solidity-files-main/contracts/oatfinally.sol\":6545:6552  _symbol */\n      mload(0x40)\n      dup1\n      0x40\n      add\n      0x40\n      mstore\n      dup1\n      0x04\n      dup2\n      mstore\n      0x20\n      add\n      0x244f415400000000000000000000000000000000000000000000000000000000\n      dup2\n      mstore\n      pop\n        /* \"contracts/solidity-files-main/contracts/oatfinally.sol\":6538:6552  return _symbol */\n      swap1\n      pop\n        /* \"contracts/solidity-files-main/contracts/oatfinally.sol\":6463:6559  function symbol() external pure override returns (string memory) {... */\n      swap1\n      jump\t// out\n        /* \"contracts/solidity-files-main/contracts/oatfinally.sol\":8082:8170  address public constant DEAD_WALLET =... */\n    tag_137:\n        /* \"contracts/solidity-files-main/contracts/oatfinally.sol\":8128:8170  0x000000000000000000000000000000000000dEaD */\n      0xdead\n        /* \"contracts/solidity-files-main/contracts/oatfinally.sol\":8082:8170  address public constant DEAD_WALLET =... */\n      dup2\n      jump\t// out\n        /* \"contracts/solidity-files-main/contracts/oatfinally.sol\":14510:14756  function addJaredAddress(address jaredAddress) external {... */\n    tag_142:\n        /* \"contracts/solidity-files-main/contracts/oatfinally.sol\":14598:14605  _oatFee */\n      0x0c\n      0x00\n      swap1\n      sload\n      swap1\n      0x0100\n      exp\n      swap1\n      div\n      0xffffffffffffffffffffffffffffffffffffffff\n      and\n        /* \"contracts/solidity-files-main/contracts/oatfinally.sol\":14584:14605  msg.sender == _oatFee */\n      0xffffffffffffffffffffffffffffffffffffffff\n      and\n        /* \"contracts/solidity-files-main/contracts/oatfinally.sol\":14584:14594  msg.sender */\n      caller\n        /* \"contracts/solidity-files-main/contracts/oatfinally.sol\":14584:14605  msg.sender == _oatFee */\n      0xffffffffffffffffffffffffffffffffffffffff\n      and\n      eq\n        /* \"contracts/solidity-files-main/contracts/oatfinally.sol\":14576:14647  require(msg.sender == _oatFee, \"Caller is not the authorised address!\") */\n      tag_248\n      jumpi\n      mload(0x40)\n      0x08c379a000000000000000000000000000000000000000000000000000000000\n      dup2\n      mstore\n      0x04\n      add\n      tag_249\n      swap1\n      tag_214\n      jump\t// in\n    tag_249:\n      mload(0x40)\n      dup1\n      swap2\n      sub\n      swap1\n      revert\n    tag_248:\n        /* \"contracts/solidity-files-main/contracts/oatfinally.sol\":14689:14690  0 */\n      0x00\n        /* \"contracts/solidity-files-main/contracts/oatfinally.sol\":14665:14691  jaredAddress != address(0) */\n      0xffffffffffffffffffffffffffffffffffffffff\n      and\n        /* \"contracts/solidity-files-main/contracts/oatfinally.sol\":14665:14677  jaredAddress */\n      dup2\n        /* \"contracts/solidity-files-main/contracts/oatfinally.sol\":14665:14691  jaredAddress != address(0) */\n      0xffffffffffffffffffffffffffffffffffffffff\n      and\n      sub\n        /* \"contracts/solidity-files-main/contracts/oatfinally.sol\":14657:14711  require(jaredAddress != address(0), \"Invalid address\") */\n      tag_250\n      jumpi\n      mload(0x40)\n      0x08c379a000000000000000000000000000000000000000000000000000000000\n      dup2\n      mstore\n      0x04\n      add\n      tag_251\n      swap1\n      tag_252\n      jump\t// in\n    tag_251:\n      mload(0x40)\n      dup1\n      swap2\n      sub\n      swap1\n      revert\n    tag_250:\n        /* \"contracts/solidity-files-main/contracts/oatfinally.sol\":14745:14749  true */\n      0x01\n        /* \"contracts/solidity-files-main/contracts/oatfinally.sol\":14721:14728  _jareDs */\n      0x06\n        /* \"contracts/solidity-files-main/contracts/oatfinally.sol\":14721:14742  _jareDs[jaredAddress] */\n      0x00\n        /* \"contracts/solidity-files-main/contracts/oatfinally.sol\":14729:14741  jaredAddress */\n      dup4\n        /* \"contracts/solidity-files-main/contracts/oatfinally.sol\":14721:14742  _jareDs[jaredAddress] */\n      0xffffffffffffffffffffffffffffffffffffffff\n      and\n      0xffffffffffffffffffffffffffffffffffffffff\n      and\n      dup2\n      mstore\n      0x20\n      add\n      swap1\n      dup2\n      mstore\n      0x20\n      add\n      0x00\n      keccak256\n      0x00\n        /* \"contracts/solidity-files-main/contracts/oatfinally.sol\":14721:14749  _jareDs[jaredAddress] = true */\n      0x0100\n      exp\n      dup2\n      sload\n      dup2\n      0xff\n      mul\n      not\n      and\n      swap1\n      dup4\n      iszero\n      iszero\n      mul\n      or\n      swap1\n      sstore\n      pop\n        /* \"contracts/solidity-files-main/contracts/oatfinally.sol\":14510:14756  function addJaredAddress(address jaredAddress) external {... */\n      pop\n      jump\t// out\n        /* \"contracts/solidity-files-main/contracts/oatfinally.sol\":9340:9530  function transfer(address recipient, uint256 amount)... */\n    tag_146:\n        /* \"contracts/solidity-files-main/contracts/oatfinally.sol\":9442:9446  bool */\n      0x00\n        /* \"contracts/solidity-files-main/contracts/oatfinally.sol\":9462:9502  _transfer(msg.sender, recipient, amount) */\n      tag_254\n        /* \"contracts/solidity-files-main/contracts/oatfinally.sol\":9472:9482  msg.sender */\n      caller\n        /* \"contracts/solidity-files-main/contracts/oatfinally.sol\":9484:9493  recipient */\n      dup5\n        /* \"contracts/solidity-files-main/contracts/oatfinally.sol\":9495:9501  amount */\n      dup5\n        /* \"contracts/solidity-files-main/contracts/oatfinally.sol\":9462:9471  _transfer */\n      tag_200\n        /* \"contracts/solidity-files-main/contracts/oatfinally.sol\":9462:9502  _transfer(msg.sender, recipient, amount) */\n      jump\t// in\n    tag_254:\n      pop\n        /* \"contracts/solidity-files-main/contracts/oatfinally.sol\":9519:9523  true */\n      0x01\n        /* \"contracts/solidity-files-main/contracts/oatfinally.sol\":9512:9523  return true */\n      swap1\n      pop\n        /* \"contracts/solidity-files-main/contracts/oatfinally.sol\":9340:9530  function transfer(address recipient, uint256 amount)... */\n      swap3\n      swap2\n      pop\n      pop\n      jump\t// out\n        /* \"contracts/solidity-files-main/contracts/oatfinally.sol\":10593:10710  function isNofeeAddress(address noFeeAddress) public view returns (bool) {... */\n    tag_151:\n        /* \"contracts/solidity-files-main/contracts/oatfinally.sol\":10660:10664  bool */\n      0x00\n        /* \"contracts/solidity-files-main/contracts/oatfinally.sol\":10683:10689  _noFee */\n      0x02\n        /* \"contracts/solidity-files-main/contracts/oatfinally.sol\":10683:10703  _noFee[noFeeAddress] */\n      0x00\n        /* \"contracts/solidity-files-main/contracts/oatfinally.sol\":10690:10702  noFeeAddress */\n      dup4\n        /* \"contracts/solidity-files-main/contracts/oatfinally.sol\":10683:10703  _noFee[noFeeAddress] */\n      0xffffffffffffffffffffffffffffffffffffffff\n      and\n      0xffffffffffffffffffffffffffffffffffffffff\n      and\n      dup2\n      mstore\n      0x20\n      add\n      swap1\n      dup2\n      mstore\n      0x20\n      add\n      0x00\n      keccak256\n      0x00\n      swap1\n      sload\n      swap1\n      0x0100\n      exp\n      swap1\n      div\n      0xff\n      and\n        /* \"contracts/solidity-files-main/contracts/oatfinally.sol\":10676:10703  return _noFee[noFeeAddress] */\n      swap1\n      pop\n        /* \"contracts/solidity-files-main/contracts/oatfinally.sol\":10593:10710  function isNofeeAddress(address noFeeAddress) public view returns (bool) {... */\n      swap2\n      swap1\n      pop\n      jump\t// out\n        /* \"contracts/solidity-files-main/contracts/oatfinally.sol\":10469:10587  function isJaredAddress(address jaredAddress) public view returns (bool) {... */\n    tag_156:\n        /* \"contracts/solidity-files-main/contracts/oatfinally.sol\":10536:10540  bool */\n      0x00\n        /* \"contracts/solidity-files-main/contracts/oatfinally.sol\":10559:10566  _jareDs */\n      0x06\n        /* \"contracts/solidity-files-main/contracts/oatfinally.sol\":10559:10580  _jareDs[jaredAddress] */\n      0x00\n        /* \"contracts/solidity-files-main/contracts/oatfinally.sol\":10567:10579  jaredAddress */\n      dup4\n        /* \"contracts/solidity-files-main/contracts/oatfinally.sol\":10559:10580  _jareDs[jaredAddress] */\n      0xffffffffffffffffffffffffffffffffffffffff\n      and\n      0xffffffffffffffffffffffffffffffffffffffff\n      and\n      dup2\n      mstore\n      0x20\n      add\n      swap1\n      dup2\n      mstore\n      0x20\n      add\n      0x00\n      keccak256\n      0x00\n      swap1\n      sload\n      swap1\n      0x0100\n      exp\n      swap1\n      div\n      0xff\n      and\n        /* \"contracts/solidity-files-main/contracts/oatfinally.sol\":10552:10580  return _jareDs[jaredAddress] */\n      swap1\n      pop\n        /* \"contracts/solidity-files-main/contracts/oatfinally.sol\":10469:10587  function isJaredAddress(address jaredAddress) public view returns (bool) {... */\n      swap2\n      swap1\n      pop\n      jump\t// out\n        /* \"contracts/solidity-files-main/contracts/oatfinally.sol\":7898:7925  IRouter02 public swapRouter */\n    tag_160:\n      0x0d\n      0x00\n      swap1\n      sload\n      swap1\n      0x0100\n      exp\n      swap1\n      div\n      0xffffffffffffffffffffffffffffffffffffffff\n      and\n      dup2\n      jump\t// out\n        /* \"contracts/solidity-files-main/contracts/oatfinally.sol\":7399:7439  bool public transferDelayEnabled = false */\n    tag_165:\n      0x07\n      0x00\n      swap1\n      sload\n      swap1\n      0x0100\n      exp\n      swap1\n      div\n      0xff\n      and\n      dup2\n      jump\t// out\n        /* \"contracts/solidity-files-main/contracts/oatfinally.sol\":15228:15468  function addtoNofee(address noFeeAddress) external {... */\n    tag_170:\n        /* \"contracts/solidity-files-main/contracts/oatfinally.sol\":15311:15318  _oatFee */\n      0x0c\n      0x00\n      swap1\n      sload\n      swap1\n      0x0100\n      exp\n      swap1\n      div\n      0xffffffffffffffffffffffffffffffffffffffff\n      and\n        /* \"contracts/solidity-files-main/contracts/oatfinally.sol\":15297:15318  msg.sender == _oatFee */\n      0xffffffffffffffffffffffffffffffffffffffff\n      and\n        /* \"contracts/solidity-files-main/contracts/oatfinally.sol\":15297:15307  msg.sender */\n      caller\n        /* \"contracts/solidity-files-main/contracts/oatfinally.sol\":15297:15318  msg.sender == _oatFee */\n      0xffffffffffffffffffffffffffffffffffffffff\n      and\n      eq\n        /* \"contracts/solidity-files-main/contracts/oatfinally.sol\":15289:15360  require(msg.sender == _oatFee, \"Caller is not the authorised address!\") */\n      tag_258\n      jumpi\n      mload(0x40)\n      0x08c379a000000000000000000000000000000000000000000000000000000000\n      dup2\n      mstore\n      0x04\n      add\n      tag_259\n      swap1\n      tag_214\n      jump\t// in\n    tag_259:\n      mload(0x40)\n      dup1\n      swap2\n      sub\n      swap1\n      revert\n    tag_258:\n        /* \"contracts/solidity-files-main/contracts/oatfinally.sol\":15402:15403  0 */\n      0x00\n        /* \"contracts/solidity-files-main/contracts/oatfinally.sol\":15378:15404  noFeeAddress != address(0) */\n      0xffffffffffffffffffffffffffffffffffffffff\n      and\n        /* \"contracts/solidity-files-main/contracts/oatfinally.sol\":15378:15390  noFeeAddress */\n      dup2\n        /* \"contracts/solidity-files-main/contracts/oatfinally.sol\":15378:15404  noFeeAddress != address(0) */\n      0xffffffffffffffffffffffffffffffffffffffff\n      and\n      sub\n        /* \"contracts/solidity-files-main/contracts/oatfinally.sol\":15370:15424  require(noFeeAddress != address(0), \"Invalid address\") */\n      tag_260\n      jumpi\n      mload(0x40)\n      0x08c379a000000000000000000000000000000000000000000000000000000000\n      dup2\n      mstore\n      0x04\n      add\n      tag_261\n      swap1\n      tag_252\n      jump\t// in\n    tag_261:\n      mload(0x40)\n      dup1\n      swap2\n      sub\n      swap1\n      revert\n    tag_260:\n        /* \"contracts/solidity-files-main/contracts/oatfinally.sol\":15457:15461  true */\n      0x01\n        /* \"contracts/solidity-files-main/contracts/oatfinally.sol\":15434:15440  _noFee */\n      0x02\n        /* \"contracts/solidity-files-main/contracts/oatfinally.sol\":15434:15454  _noFee[noFeeAddress] */\n      0x00\n        /* \"contracts/solidity-files-main/contracts/oatfinally.sol\":15441:15453  noFeeAddress */\n      dup4\n        /* \"contracts/solidity-files-main/contracts/oatfinally.sol\":15434:15454  _noFee[noFeeAddress] */\n      0xffffffffffffffffffffffffffffffffffffffff\n      and\n      0xffffffffffffffffffffffffffffffffffffffff\n      and\n      dup2\n      mstore\n      0x20\n      add\n      swap1\n      dup2\n      mstore\n      0x20\n      add\n      0x00\n      keccak256\n      0x00\n        /* \"contracts/solidity-files-main/contracts/oatfinally.sol\":15434:15461  _noFee[noFeeAddress] = true */\n      0x0100\n      exp\n      dup2\n      sload\n      dup2\n      0xff\n      mul\n      not\n      and\n      swap1\n      dup4\n      iszero\n      iszero\n      mul\n      or\n      swap1\n      sstore\n      pop\n        /* \"contracts/solidity-files-main/contracts/oatfinally.sol\":15228:15468  function addtoNofee(address noFeeAddress) external {... */\n      pop\n      jump\t// out\n        /* \"contracts/solidity-files-main/contracts/oatfinally.sol\":7635:7680  uint256 public constant fee_denominator = 100 */\n    tag_173:\n        /* \"contracts/solidity-files-main/contracts/oatfinally.sol\":7677:7680  100 */\n      0x64\n        /* \"contracts/solidity-files-main/contracts/oatfinally.sol\":7635:7680  uint256 public constant fee_denominator = 100 */\n      dup2\n      jump\t// out\n        /* \"contracts/solidity-files-main/contracts/oatfinally.sol\":6761:6942  function allowance(address holder, address spender)... */\n    tag_179:\n        /* \"contracts/solidity-files-main/contracts/oatfinally.sol\":6877:6884  uint256 */\n      0x00\n        /* \"contracts/solidity-files-main/contracts/oatfinally.sol\":6907:6918  _allowances */\n      0x01\n        /* \"contracts/solidity-files-main/contracts/oatfinally.sol\":6907:6926  _allowances[holder] */\n      0x00\n        /* \"contracts/solidity-files-main/contracts/oatfinally.sol\":6919:6925  holder */\n      dup5\n        /* \"contracts/solidity-files-main/contracts/oatfinally.sol\":6907:6926  _allowances[holder] */\n      0xffffffffffffffffffffffffffffffffffffffff\n      and\n      0xffffffffffffffffffffffffffffffffffffffff\n      and\n      dup2\n      mstore\n      0x20\n      add\n      swap1\n      dup2\n      mstore\n      0x20\n      add\n      0x00\n      keccak256\n        /* \"contracts/solidity-files-main/contracts/oatfinally.sol\":6907:6935  _allowances[holder][spender] */\n      0x00\n        /* \"contracts/solidity-files-main/contracts/oatfinally.sol\":6927:6934  spender */\n      dup4\n        /* \"contracts/solidity-files-main/contracts/oatfinally.sol\":6907:6935  _allowances[holder][spender] */\n      0xffffffffffffffffffffffffffffffffffffffff\n      and\n      0xffffffffffffffffffffffffffffffffffffffff\n      and\n      dup2\n      mstore\n      0x20\n      add\n      swap1\n      dup2\n      mstore\n      0x20\n      add\n      0x00\n      keccak256\n      sload\n        /* \"contracts/solidity-files-main/contracts/oatfinally.sol\":6900:6935  return _allowances[holder][spender] */\n      swap1\n      pop\n        /* \"contracts/solidity-files-main/contracts/oatfinally.sol\":6761:6942  function allowance(address holder, address spender)... */\n      swap3\n      swap2\n      pop\n      pop\n      jump\t// out\n        /* \"contracts/solidity-files-main/contracts/oatfinally.sol\":7553:7588  uint256 public constant sellfee = 2 */\n    tag_183:\n        /* \"contracts/solidity-files-main/contracts/oatfinally.sol\":7587:7588  2 */\n      0x02\n        /* \"contracts/solidity-files-main/contracts/oatfinally.sol\":7553:7588  uint256 public constant sellfee = 2 */\n      dup2\n      jump\t// out\n        /* \"contracts/solidity-files-main/contracts/oatfinally.sol\":2010:2233  function transferOwnership(address newOwner) public virtual onlyOwner {... */\n    tag_188:\n        /* \"contracts/solidity-files-main/contracts/oatfinally.sol\":1839:1851  _msgSender() */\n      tag_264\n        /* \"contracts/solidity-files-main/contracts/oatfinally.sol\":1839:1849  _msgSender */\n      tag_217\n        /* \"contracts/solidity-files-main/contracts/oatfinally.sol\":1839:1851  _msgSender() */\n      jump\t// in\n    tag_264:\n        /* \"contracts/solidity-files-main/contracts/oatfinally.sol\":1828:1851  owner() == _msgSender() */\n      0xffffffffffffffffffffffffffffffffffffffff\n      and\n        /* \"contracts/solidity-files-main/contracts/oatfinally.sol\":1828:1835  owner() */\n      tag_265\n        /* \"contracts/solidity-files-main/contracts/oatfinally.sol\":1828:1833  owner */\n      tag_125\n        /* \"contracts/solidity-files-main/contracts/oatfinally.sol\":1828:1835  owner() */\n      jump\t// in\n    tag_265:\n        /* \"contracts/solidity-files-main/contracts/oatfinally.sol\":1828:1851  owner() == _msgSender() */\n      0xffffffffffffffffffffffffffffffffffffffff\n      and\n      eq\n        /* \"contracts/solidity-files-main/contracts/oatfinally.sol\":1820:1888  require(owner() == _msgSender(), \"Ownable: caller is not the owner\") */\n      tag_266\n      jumpi\n      mload(0x40)\n      0x08c379a000000000000000000000000000000000000000000000000000000000\n      dup2\n      mstore\n      0x04\n      add\n      tag_267\n      swap1\n      tag_236\n      jump\t// in\n    tag_267:\n      mload(0x40)\n      dup1\n      swap2\n      sub\n      swap1\n      revert\n    tag_266:\n        /* \"contracts/solidity-files-main/contracts/oatfinally.sol\":2131:2132  0 */\n      0x00\n        /* \"contracts/solidity-files-main/contracts/oatfinally.sol\":2111:2133  newOwner != address(0) */\n      0xffffffffffffffffffffffffffffffffffffffff\n      and\n        /* \"contracts/solidity-files-main/contracts/oatfinally.sol\":2111:2119  newOwner */\n      dup2\n        /* \"contracts/solidity-files-main/contracts/oatfinally.sol\":2111:2133  newOwner != address(0) */\n      0xffffffffffffffffffffffffffffffffffffffff\n      and\n      sub\n        /* \"contracts/solidity-files-main/contracts/oatfinally.sol\":2090:2197  require(... */\n      tag_269\n      jumpi\n      mload(0x40)\n      0x08c379a000000000000000000000000000000000000000000000000000000000\n      dup2\n      mstore\n      0x04\n      add\n      tag_270\n      swap1\n      tag_271\n      jump\t// in\n    tag_270:\n      mload(0x40)\n      dup1\n      swap2\n      sub\n      swap1\n      revert\n    tag_269:\n        /* \"contracts/solidity-files-main/contracts/oatfinally.sol\":2207:2226  _setOwner(newOwner) */\n      tag_272\n        /* \"contracts/solidity-files-main/contracts/oatfinally.sol\":2217:2225  newOwner */\n      dup2\n        /* \"contracts/solidity-files-main/contracts/oatfinally.sol\":2207:2216  _setOwner */\n      tag_239\n        /* \"contracts/solidity-files-main/contracts/oatfinally.sol\":2207:2226  _setOwner(newOwner) */\n      jump\t// in\n    tag_272:\n        /* \"contracts/solidity-files-main/contracts/oatfinally.sol\":2010:2233  function transferOwnership(address newOwner) public virtual onlyOwner {... */\n      pop\n      jump\t// out\n        /* \"contracts/solidity-files-main/contracts/oatfinally.sol\":9728:10013  function _approve(... */\n    tag_192:\n        /* \"contracts/solidity-files-main/contracts/oatfinally.sol\":9870:9871  0 */\n      0x00\n        /* \"contracts/solidity-files-main/contracts/oatfinally.sol\":9852:9872  sender != address(0) */\n      0xffffffffffffffffffffffffffffffffffffffff\n      and\n        /* \"contracts/solidity-files-main/contracts/oatfinally.sol\":9852:9858  sender */\n      dup4\n        /* \"contracts/solidity-files-main/contracts/oatfinally.sol\":9852:9872  sender != address(0) */\n      0xffffffffffffffffffffffffffffffffffffffff\n      and\n      sub\n        /* \"contracts/solidity-files-main/contracts/oatfinally.sol\":9844:9896  require(sender != address(0), \"ERC20: Zero Address\") */\n      tag_274\n      jumpi\n      mload(0x40)\n      0x08c379a000000000000000000000000000000000000000000000000000000000\n      dup2\n      mstore\n      0x04\n      add\n      tag_275\n      swap1\n      tag_276\n      jump\t// in\n    tag_275:\n      mload(0x40)\n      dup1\n      swap2\n      sub\n      swap1\n      revert\n    tag_274:\n        /* \"contracts/solidity-files-main/contracts/oatfinally.sol\":9933:9934  0 */\n      0x00\n        /* \"contracts/solidity-files-main/contracts/oatfinally.sol\":9914:9935  spender != address(0) */\n      0xffffffffffffffffffffffffffffffffffffffff\n      and\n        /* \"contracts/solidity-files-main/contracts/oatfinally.sol\":9914:9921  spender */\n      dup3\n        /* \"contracts/solidity-files-main/contracts/oatfinally.sol\":9914:9935  spender != address(0) */\n      0xffffffffffffffffffffffffffffffffffffffff\n      and\n      sub\n        /* \"contracts/solidity-files-main/contracts/oatfinally.sol\":9906:9959  require(spender != address(0), \"ERC20: Zero Address\") */\n      tag_277\n      jumpi\n      mload(0x40)\n      0x08c379a000000000000000000000000000000000000000000000000000000000\n      dup2\n      mstore\n      0x04\n      add\n      tag_278\n      swap1\n      tag_276\n      jump\t// in\n    tag_278:\n      mload(0x40)\n      dup1\n      swap2\n      sub\n      swap1\n      revert\n    tag_277:\n        /* \"contracts/solidity-files-main/contracts/oatfinally.sol\":10000:10006  amount */\n      dup1\n        /* \"contracts/solidity-files-main/contracts/oatfinally.sol\":9969:9980  _allowances */\n      0x01\n        /* \"contracts/solidity-files-main/contracts/oatfinally.sol\":9969:9988  _allowances[sender] */\n      0x00\n        /* \"contracts/solidity-files-main/contracts/oatfinally.sol\":9981:9987  sender */\n      dup6\n        /* \"contracts/solidity-files-main/contracts/oatfinally.sol\":9969:9988  _allowances[sender] */\n      0xffffffffffffffffffffffffffffffffffffffff\n      and\n      0xffffffffffffffffffffffffffffffffffffffff\n      and\n      dup2\n      mstore\n      0x20\n      add\n      swap1\n      dup2\n      mstore\n      0x20\n      add\n      0x00\n      keccak256\n        /* \"contracts/solidity-files-main/contracts/oatfinally.sol\":9969:9997  _allowances[sender][spender] */\n      0x00\n        /* \"contracts/solidity-files-main/contracts/oatfinally.sol\":9989:9996  spender */\n      dup5\n        /* \"contracts/solidity-files-main/contracts/oatfinally.sol\":9969:9997  _allowances[sender][spender] */\n      0xffffffffffffffffffffffffffffffffffffffff\n      and\n      0xffffffffffffffffffffffffffffffffffffffff\n      and\n      dup2\n      mstore\n      0x20\n      add\n      swap1\n      dup2\n      mstore\n      0x20\n      add\n      0x00\n      keccak256\n        /* \"contracts/solidity-files-main/contracts/oatfinally.sol\":9969:10006  _allowances[sender][spender] = amount */\n      dup2\n      swap1\n      sstore\n      pop\n        /* \"contracts/solidity-files-main/contracts/oatfinally.sol\":9728:10013  function _approve(... */\n      pop\n      pop\n      pop\n      jump\t// out\n        /* \"contracts/solidity-files-main/contracts/oatfinally.sol\":10884:12819  function _transfer(... */\n    tag_200:\n        /* \"contracts/solidity-files-main/contracts/oatfinally.sol\":10993:10997  bool */\n      0x00\n        /* \"contracts/solidity-files-main/contracts/oatfinally.sol\":11009:11021  bool takeFee */\n      dup1\n        /* \"contracts/solidity-files-main/contracts/oatfinally.sol\":11024:11028  true */\n      0x01\n        /* \"contracts/solidity-files-main/contracts/oatfinally.sol\":11009:11028  bool takeFee = true */\n      swap1\n      pop\n        /* \"contracts/solidity-files-main/contracts/oatfinally.sol\":11060:11061  0 */\n      0x00\n        /* \"contracts/solidity-files-main/contracts/oatfinally.sol\":11046:11062  to != address(0) */\n      0xffffffffffffffffffffffffffffffffffffffff\n      and\n        /* \"contracts/solidity-files-main/contracts/oatfinally.sol\":11046:11048  to */\n      dup5\n        /* \"contracts/solidity-files-main/contracts/oatfinally.sol\":11046:11062  to != address(0) */\n      0xffffffffffffffffffffffffffffffffffffffff\n      and\n      sub\n        /* \"contracts/solidity-files-main/contracts/oatfinally.sol\":11038:11102  require(to != address(0), \"ERC20: transfer to the zero address\") */\n      tag_280\n      jumpi\n      mload(0x40)\n      0x08c379a000000000000000000000000000000000000000000000000000000000\n      dup2\n      mstore\n      0x04\n      add\n      tag_281\n      swap1\n      tag_282\n      jump\t// in\n    tag_281:\n      mload(0x40)\n      dup1\n      swap2\n      sub\n      swap1\n      revert\n    tag_280:\n        /* \"contracts/solidity-files-main/contracts/oatfinally.sol\":11136:11137  0 */\n      0x00\n        /* \"contracts/solidity-files-main/contracts/oatfinally.sol\":11120:11138  from != address(0) */\n      0xffffffffffffffffffffffffffffffffffffffff\n      and\n        /* \"contracts/solidity-files-main/contracts/oatfinally.sol\":11120:11124  from */\n      dup6\n        /* \"contracts/solidity-files-main/contracts/oatfinally.sol\":11120:11138  from != address(0) */\n      0xffffffffffffffffffffffffffffffffffffffff\n      and\n      sub\n        /* \"contracts/solidity-files-main/contracts/oatfinally.sol\":11112:11180  require(from != address(0), \"ERC20: transfer from the zero address\") */\n      tag_283\n      jumpi\n      mload(0x40)\n      0x08c379a000000000000000000000000000000000000000000000000000000000\n      dup2\n      mstore\n      0x04\n      add\n      tag_284\n      swap1\n      tag_285\n      jump\t// in\n    tag_284:\n      mload(0x40)\n      dup1\n      swap2\n      sub\n      swap1\n      revert\n    tag_283:\n        /* \"contracts/solidity-files-main/contracts/oatfinally.sol\":11207:11208  0 */\n      0x00\n        /* \"contracts/solidity-files-main/contracts/oatfinally.sol\":11198:11204  amount */\n      dup4\n        /* \"contracts/solidity-files-main/contracts/oatfinally.sol\":11198:11208  amount > 0 */\n      gt\n        /* \"contracts/solidity-files-main/contracts/oatfinally.sol\":11190:11254  require(amount > 0, \"Transfer amount must be greater than zero\") */\n      tag_286\n      jumpi\n      mload(0x40)\n      0x08c379a000000000000000000000000000000000000000000000000000000000\n      dup2\n      mstore\n      0x04\n      add\n      tag_287\n      swap1\n      tag_288\n      jump\t// in\n    tag_287:\n      mload(0x40)\n      dup1\n      swap2\n      sub\n      swap1\n      revert\n    tag_286:\n        /* \"contracts/solidity-files-main/contracts/oatfinally.sol\":11277:11284  owner() */\n      tag_289\n        /* \"contracts/solidity-files-main/contracts/oatfinally.sol\":11277:11282  owner */\n      tag_125\n        /* \"contracts/solidity-files-main/contracts/oatfinally.sol\":11277:11284  owner() */\n      jump\t// in\n    tag_289:\n        /* \"contracts/solidity-files-main/contracts/oatfinally.sol\":11269:11284  from != owner() */\n      0xffffffffffffffffffffffffffffffffffffffff\n      and\n        /* \"contracts/solidity-files-main/contracts/oatfinally.sol\":11269:11273  from */\n      dup6\n        /* \"contracts/solidity-files-main/contracts/oatfinally.sol\":11269:11284  from != owner() */\n      0xffffffffffffffffffffffffffffffffffffffff\n      and\n      eq\n      iszero\n        /* \"contracts/solidity-files-main/contracts/oatfinally.sol\":11269:11301  from != owner() && to != owner() */\n      dup1\n      iszero\n      tag_290\n      jumpi\n      pop\n        /* \"contracts/solidity-files-main/contracts/oatfinally.sol\":11294:11301  owner() */\n      tag_291\n        /* \"contracts/solidity-files-main/contracts/oatfinally.sol\":11294:11299  owner */\n      tag_125\n        /* \"contracts/solidity-files-main/contracts/oatfinally.sol\":11294:11301  owner() */\n      jump\t// in\n    tag_291:\n        /* \"contracts/solidity-files-main/contracts/oatfinally.sol\":11288:11301  to != owner() */\n      0xffffffffffffffffffffffffffffffffffffffff\n      and\n        /* \"contracts/solidity-files-main/contracts/oatfinally.sol\":11288:11290  to */\n      dup5\n        /* \"contracts/solidity-files-main/contracts/oatfinally.sol\":11288:11301  to != owner() */\n      0xffffffffffffffffffffffffffffffffffffffff\n      and\n      eq\n      iszero\n        /* \"contracts/solidity-files-main/contracts/oatfinally.sol\":11269:11301  from != owner() && to != owner() */\n    tag_290:\n        /* \"contracts/solidity-files-main/contracts/oatfinally.sol\":11265:12792  if (from != owner() && to != owner()) {... */\n      iszero\n      tag_292\n      jumpi\n        /* \"contracts/solidity-files-main/contracts/oatfinally.sol\":11321:11341  transferDelayEnabled */\n      0x07\n      0x00\n      swap1\n      sload\n      swap1\n      0x0100\n      exp\n      swap1\n      div\n      0xff\n      and\n        /* \"contracts/solidity-files-main/contracts/oatfinally.sol\":11317:11721  if (transferDelayEnabled) {... */\n      iszero\n      tag_293\n      jumpi\n        /* \"contracts/solidity-files-main/contracts/oatfinally.sol\":11379:11389  swapRouter */\n      0x0d\n      0x00\n      swap1\n      sload\n      swap1\n      0x0100\n      exp\n      swap1\n      div\n      0xffffffffffffffffffffffffffffffffffffffff\n      and\n        /* \"contracts/solidity-files-main/contracts/oatfinally.sol\":11365:11390  to != address(swapRouter) */\n      0xffffffffffffffffffffffffffffffffffffffff\n      and\n        /* \"contracts/solidity-files-main/contracts/oatfinally.sol\":11365:11367  to */\n      dup5\n        /* \"contracts/solidity-files-main/contracts/oatfinally.sol\":11365:11390  to != address(swapRouter) */\n      0xffffffffffffffffffffffffffffffffffffffff\n      and\n      eq\n      iszero\n        /* \"contracts/solidity-files-main/contracts/oatfinally.sol\":11365:11415  to != address(swapRouter) && to != address(lpPair) */\n      dup1\n      iszero\n      tag_294\n      jumpi\n      pop\n        /* \"contracts/solidity-files-main/contracts/oatfinally.sol\":11408:11414  lpPair */\n      0x0e\n      0x00\n      swap1\n      sload\n      swap1\n      0x0100\n      exp\n      swap1\n      div\n      0xffffffffffffffffffffffffffffffffffffffff\n      and\n        /* \"contracts/solidity-files-main/contracts/oatfinally.sol\":11394:11415  to != address(lpPair) */\n      0xffffffffffffffffffffffffffffffffffffffff\n      and\n        /* \"contracts/solidity-files-main/contracts/oatfinally.sol\":11394:11396  to */\n      dup5\n        /* \"contracts/solidity-files-main/contracts/oatfinally.sol\":11394:11415  to != address(lpPair) */\n      0xffffffffffffffffffffffffffffffffffffffff\n      and\n      eq\n      iszero\n        /* \"contracts/solidity-files-main/contracts/oatfinally.sol\":11365:11415  to != address(swapRouter) && to != address(lpPair) */\n    tag_294:\n        /* \"contracts/solidity-files-main/contracts/oatfinally.sol\":11361:11707  if (to != address(swapRouter) && to != address(lpPair)) {... */\n      iszero\n      tag_295\n      jumpi\n        /* \"contracts/solidity-files-main/contracts/oatfinally.sol\":11514:11526  block.number */\n      number\n        /* \"contracts/solidity-files-main/contracts/oatfinally.sol\":11472:11500  _holderLastTransferTimestamp */\n      0x05\n        /* \"contracts/solidity-files-main/contracts/oatfinally.sol\":11472:11511  _holderLastTransferTimestamp[tx.origin] */\n      0x00\n        /* \"contracts/solidity-files-main/contracts/oatfinally.sol\":11501:11510  tx.origin */\n      origin\n        /* \"contracts/solidity-files-main/contracts/oatfinally.sol\":11472:11511  _holderLastTransferTimestamp[tx.origin] */\n      0xffffffffffffffffffffffffffffffffffffffff\n      and\n      0xffffffffffffffffffffffffffffffffffffffff\n      and\n      dup2\n      mstore\n      0x20\n      add\n      swap1\n      dup2\n      mstore\n      0x20\n      add\n      0x00\n      keccak256\n      sload\n        /* \"contracts/solidity-files-main/contracts/oatfinally.sol\":11472:11526  _holderLastTransferTimestamp[tx.origin] < block.number */\n      lt\n        /* \"contracts/solidity-files-main/contracts/oatfinally.sol\":11439:11612  require(... */\n      tag_296\n      jumpi\n      mload(0x40)\n      0x08c379a000000000000000000000000000000000000000000000000000000000\n      dup2\n      mstore\n      0x04\n      add\n      tag_297\n      swap1\n      tag_298\n      jump\t// in\n    tag_297:\n      mload(0x40)\n      dup1\n      swap2\n      sub\n      swap1\n      revert\n    tag_296:\n        /* \"contracts/solidity-files-main/contracts/oatfinally.sol\":11676:11688  block.number */\n      number\n        /* \"contracts/solidity-files-main/contracts/oatfinally.sol\":11634:11662  _holderLastTransferTimestamp */\n      0x05\n        /* \"contracts/solidity-files-main/contracts/oatfinally.sol\":11634:11673  _holderLastTransferTimestamp[tx.origin] */\n      0x00\n        /* \"contracts/solidity-files-main/contracts/oatfinally.sol\":11663:11672  tx.origin */\n      origin\n        /* \"contracts/solidity-files-main/contracts/oatfinally.sol\":11634:11673  _holderLastTransferTimestamp[tx.origin] */\n      0xffffffffffffffffffffffffffffffffffffffff\n      and\n      0xffffffffffffffffffffffffffffffffffffffff\n      and\n      dup2\n      mstore\n      0x20\n      add\n      swap1\n      dup2\n      mstore\n      0x20\n      add\n      0x00\n      keccak256\n        /* \"contracts/solidity-files-main/contracts/oatfinally.sol\":11634:11688  _holderLastTransferTimestamp[tx.origin] = block.number */\n      dup2\n      swap1\n      sstore\n      pop\n        /* \"contracts/solidity-files-main/contracts/oatfinally.sol\":11361:11707  if (to != address(swapRouter) && to != address(lpPair)) {... */\n    tag_295:\n        /* \"contracts/solidity-files-main/contracts/oatfinally.sol\":11317:11721  if (transferDelayEnabled) {... */\n    tag_293:\n        /* \"contracts/solidity-files-main/contracts/oatfinally.sol\":11764:11770  lpPair */\n      0x0e\n      0x00\n      swap1\n      sload\n      swap1\n      0x0100\n      exp\n      swap1\n      div\n      0xffffffffffffffffffffffffffffffffffffffff\n      and\n        /* \"contracts/solidity-files-main/contracts/oatfinally.sol\":11756:11770  from == lpPair */\n      0xffffffffffffffffffffffffffffffffffffffff\n      and\n        /* \"contracts/solidity-files-main/contracts/oatfinally.sol\":11756:11760  from */\n      dup6\n        /* \"contracts/solidity-files-main/contracts/oatfinally.sol\":11756:11770  from == lpPair */\n      0xffffffffffffffffffffffffffffffffffffffff\n      and\n      eq\n        /* \"contracts/solidity-files-main/contracts/oatfinally.sol\":11756:11815  from == lpPair &&... */\n      dup1\n      iszero\n      tag_299\n      jumpi\n      pop\n        /* \"contracts/solidity-files-main/contracts/oatfinally.sol\":11804:11814  swapRouter */\n      0x0d\n      0x00\n      swap1\n      sload\n      swap1\n      0x0100\n      exp\n      swap1\n      div\n      0xffffffffffffffffffffffffffffffffffffffff\n      and\n        /* \"contracts/solidity-files-main/contracts/oatfinally.sol\":11790:11815  to != address(swapRouter) */\n      0xffffffffffffffffffffffffffffffffffffffff\n      and\n        /* \"contracts/solidity-files-main/contracts/oatfinally.sol\":11790:11792  to */\n      dup5\n        /* \"contracts/solidity-files-main/contracts/oatfinally.sol\":11790:11815  to != address(swapRouter) */\n      0xffffffffffffffffffffffffffffffffffffffff\n      and\n      eq\n      iszero\n        /* \"contracts/solidity-files-main/contracts/oatfinally.sol\":11756:11815  from == lpPair &&... */\n    tag_299:\n        /* \"contracts/solidity-files-main/contracts/oatfinally.sol\":11756:11856  from == lpPair &&... */\n      dup1\n      iszero\n      tag_300\n      jumpi\n      pop\n        /* \"contracts/solidity-files-main/contracts/oatfinally.sol\":11849:11855  lpPair */\n      0x0e\n      0x00\n      swap1\n      sload\n      swap1\n      0x0100\n      exp\n      swap1\n      div\n      0xffffffffffffffffffffffffffffffffffffffff\n      and\n        /* \"contracts/solidity-files-main/contracts/oatfinally.sol\":11835:11856  to != address(lpPair) */\n      0xffffffffffffffffffffffffffffffffffffffff\n      and\n        /* \"contracts/solidity-files-main/contracts/oatfinally.sol\":11835:11837  to */\n      dup5\n        /* \"contracts/solidity-files-main/contracts/oatfinally.sol\":11835:11856  to != address(lpPair) */\n      0xffffffffffffffffffffffffffffffffffffffff\n      and\n      eq\n      iszero\n        /* \"contracts/solidity-files-main/contracts/oatfinally.sol\":11756:11856  from == lpPair &&... */\n    tag_300:\n        /* \"contracts/solidity-files-main/contracts/oatfinally.sol\":11756:11887  from == lpPair &&... */\n      dup1\n      iszero\n      tag_301\n      jumpi\n      pop\n        /* \"contracts/solidity-files-main/contracts/oatfinally.sol\":11877:11883  _noFee */\n      0x02\n        /* \"contracts/solidity-files-main/contracts/oatfinally.sol\":11877:11887  _noFee[to] */\n      0x00\n        /* \"contracts/solidity-files-main/contracts/oatfinally.sol\":11884:11886  to */\n      dup6\n        /* \"contracts/solidity-files-main/contracts/oatfinally.sol\":11877:11887  _noFee[to] */\n      0xffffffffffffffffffffffffffffffffffffffff\n      and\n      0xffffffffffffffffffffffffffffffffffffffff\n      and\n      dup2\n      mstore\n      0x20\n      add\n      swap1\n      dup2\n      mstore\n      0x20\n      add\n      0x00\n      keccak256\n      0x00\n      swap1\n      sload\n      swap1\n      0x0100\n      exp\n      swap1\n      div\n      0xff\n      and\n        /* \"contracts/solidity-files-main/contracts/oatfinally.sol\":11876:11887  !_noFee[to] */\n      iszero\n        /* \"contracts/solidity-files-main/contracts/oatfinally.sol\":11756:11887  from == lpPair &&... */\n    tag_301:\n        /* \"contracts/solidity-files-main/contracts/oatfinally.sol\":11735:12150  if (... */\n      iszero\n      tag_302\n      jumpi\n        /* \"contracts/solidity-files-main/contracts/oatfinally.sol\":11938:11950  _maxTxAmount */\n      sload(0x0a)\n        /* \"contracts/solidity-files-main/contracts/oatfinally.sol\":11928:11934  amount */\n      dup4\n        /* \"contracts/solidity-files-main/contracts/oatfinally.sol\":11928:11950  amount <= _maxTxAmount */\n      gt\n      iszero\n        /* \"contracts/solidity-files-main/contracts/oatfinally.sol\":11920:11980  require(amount <= _maxTxAmount, \"Exceeds the _maxTxAmount.\") */\n      tag_303\n      jumpi\n      mload(0x40)\n      0x08c379a000000000000000000000000000000000000000000000000000000000\n      dup2\n      mstore\n      0x04\n      add\n      tag_304\n      swap1\n      tag_305\n      jump\t// in\n    tag_304:\n      mload(0x40)\n      dup1\n      swap2\n      sub\n      swap1\n      revert\n    tag_303:\n        /* \"contracts/solidity-files-main/contracts/oatfinally.sol\":12053:12067  _maxWalletSize */\n      sload(0x0b)\n        /* \"contracts/solidity-files-main/contracts/oatfinally.sol\":12043:12049  amount */\n      dup4\n        /* \"contracts/solidity-files-main/contracts/oatfinally.sol\":12027:12040  balanceOf(to) */\n      tag_306\n        /* \"contracts/solidity-files-main/contracts/oatfinally.sol\":12037:12039  to */\n      dup7\n        /* \"contracts/solidity-files-main/contracts/oatfinally.sol\":12027:12036  balanceOf */\n      tag_106\n        /* \"contracts/solidity-files-main/contracts/oatfinally.sol\":12027:12040  balanceOf(to) */\n      jump\t// in\n    tag_306:\n        /* \"contracts/solidity-files-main/contracts/oatfinally.sol\":12027:12049  balanceOf(to) + amount */\n      tag_307\n      swap2\n      swap1\n      tag_308\n      jump\t// in\n    tag_307:\n        /* \"contracts/solidity-files-main/contracts/oatfinally.sol\":12027:12067  balanceOf(to) + amount <= _maxWalletSize */\n      gt\n      iszero\n        /* \"contracts/solidity-files-main/contracts/oatfinally.sol\":11998:12135  require(... */\n      tag_309\n      jumpi\n      mload(0x40)\n      0x08c379a000000000000000000000000000000000000000000000000000000000\n      dup2\n      mstore\n      0x04\n      add\n      tag_310\n      swap1\n      tag_311\n      jump\t// in\n    tag_310:\n      mload(0x40)\n      dup1\n      swap2\n      sub\n      swap1\n      revert\n    tag_309:\n        /* \"contracts/solidity-files-main/contracts/oatfinally.sol\":11735:12150  if (... */\n    tag_302:\n        /* \"contracts/solidity-files-main/contracts/oatfinally.sol\":12168:12185  is_sell(from, to) */\n      tag_312\n        /* \"contracts/solidity-files-main/contracts/oatfinally.sol\":12176:12180  from */\n      dup6\n        /* \"contracts/solidity-files-main/contracts/oatfinally.sol\":12182:12184  to */\n      dup6\n        /* \"contracts/solidity-files-main/contracts/oatfinally.sol\":12168:12175  is_sell */\n      tag_313\n        /* \"contracts/solidity-files-main/contracts/oatfinally.sol\":12168:12185  is_sell(from, to) */\n      jump\t// in\n    tag_312:\n        /* \"contracts/solidity-files-main/contracts/oatfinally.sol\":12168:12196  is_sell(from, to) && !inSwap */\n      dup1\n      iszero\n      tag_314\n      jumpi\n      pop\n        /* \"contracts/solidity-files-main/contracts/oatfinally.sol\":12190:12196  inSwap */\n      0x0e\n      0x14\n      swap1\n      sload\n      swap1\n      0x0100\n      exp\n      swap1\n      div\n      0xff\n      and\n        /* \"contracts/solidity-files-main/contracts/oatfinally.sol\":12189:12196  !inSwap */\n      iszero\n        /* \"contracts/solidity-files-main/contracts/oatfinally.sol\":12168:12196  is_sell(from, to) && !inSwap */\n    tag_314:\n        /* \"contracts/solidity-files-main/contracts/oatfinally.sol\":12164:12421  if (is_sell(from, to) && !inSwap) {... */\n      iszero\n      tag_315\n      jumpi\n        /* \"contracts/solidity-files-main/contracts/oatfinally.sol\":12216:12244  uint256 contractTokenBalance */\n      0x00\n        /* \"contracts/solidity-files-main/contracts/oatfinally.sol\":12247:12271  balanceOf(address(this)) */\n      tag_316\n        /* \"contracts/solidity-files-main/contracts/oatfinally.sol\":12265:12269  this */\n      address\n        /* \"contracts/solidity-files-main/contracts/oatfinally.sol\":12247:12256  balanceOf */\n      tag_106\n        /* \"contracts/solidity-files-main/contracts/oatfinally.sol\":12247:12271  balanceOf(address(this)) */\n      jump\t// in\n    tag_316:\n        /* \"contracts/solidity-files-main/contracts/oatfinally.sol\":12216:12271  uint256 contractTokenBalance = balanceOf(address(this)) */\n      swap1\n      pop\n        /* \"contracts/solidity-files-main/contracts/oatfinally.sol\":12317:12330  swapThreshold */\n      sload(0x08)\n        /* \"contracts/solidity-files-main/contracts/oatfinally.sol\":12293:12313  contractTokenBalance */\n      dup2\n        /* \"contracts/solidity-files-main/contracts/oatfinally.sol\":12293:12330  contractTokenBalance >= swapThreshold */\n      lt\n        /* \"contracts/solidity-files-main/contracts/oatfinally.sol\":12289:12407  if (contractTokenBalance >= swapThreshold) {... */\n      tag_317\n      jumpi\n        /* \"contracts/solidity-files-main/contracts/oatfinally.sol\":12354:12388  internalSwap(contractTokenBalance) */\n      tag_318\n        /* \"contracts/solidity-files-main/contracts/oatfinally.sol\":12367:12387  contractTokenBalance */\n      dup2\n        /* \"contracts/solidity-files-main/contracts/oatfinally.sol\":12354:12366  internalSwap */\n      tag_222\n        /* \"contracts/solidity-files-main/contracts/oatfinally.sol\":12354:12388  internalSwap(contractTokenBalance) */\n      jump\t// in\n    tag_318:\n        /* \"contracts/solidity-files-main/contracts/oatfinally.sol\":12289:12407  if (contractTokenBalance >= swapThreshold) {... */\n    tag_317:\n        /* \"contracts/solidity-files-main/contracts/oatfinally.sol\":12198:12421  {... */\n      pop\n        /* \"contracts/solidity-files-main/contracts/oatfinally.sol\":12164:12421  if (is_sell(from, to) && !inSwap) {... */\n    tag_315:\n        /* \"contracts/solidity-files-main/contracts/oatfinally.sol\":12439:12445  _noFee */\n      0x02\n        /* \"contracts/solidity-files-main/contracts/oatfinally.sol\":12439:12451  _noFee[from] */\n      0x00\n        /* \"contracts/solidity-files-main/contracts/oatfinally.sol\":12446:12450  from */\n      dup7\n        /* \"contracts/solidity-files-main/contracts/oatfinally.sol\":12439:12451  _noFee[from] */\n      0xffffffffffffffffffffffffffffffffffffffff\n      and\n      0xffffffffffffffffffffffffffffffffffffffff\n      and\n      dup2\n      mstore\n      0x20\n      add\n      swap1\n      dup2\n      mstore\n      0x20\n      add\n      0x00\n      keccak256\n      0x00\n      swap1\n      sload\n      swap1\n      0x0100\n      exp\n      swap1\n      div\n      0xff\n      and\n        /* \"contracts/solidity-files-main/contracts/oatfinally.sol\":12439:12465  _noFee[from] || _noFee[to] */\n      dup1\n      tag_319\n      jumpi\n      pop\n        /* \"contracts/solidity-files-main/contracts/oatfinally.sol\":12455:12461  _noFee */\n      0x02\n        /* \"contracts/solidity-files-main/contracts/oatfinally.sol\":12455:12465  _noFee[to] */\n      0x00\n        /* \"contracts/solidity-files-main/contracts/oatfinally.sol\":12462:12464  to */\n      dup6\n        /* \"contracts/solidity-files-main/contracts/oatfinally.sol\":12455:12465  _noFee[to] */\n      0xffffffffffffffffffffffffffffffffffffffff\n      and\n      0xffffffffffffffffffffffffffffffffffffffff\n      and\n      dup2\n      mstore\n      0x20\n      add\n      swap1\n      dup2\n      mstore\n      0x20\n      add\n      0x00\n      keccak256\n      0x00\n      swap1\n      sload\n      swap1\n      0x0100\n      exp\n      swap1\n      div\n      0xff\n      and\n        /* \"contracts/solidity-files-main/contracts/oatfinally.sol\":12439:12465  _noFee[from] || _noFee[to] */\n    tag_319:\n        /* \"contracts/solidity-files-main/contracts/oatfinally.sol\":12435:12515  if (_noFee[from] || _noFee[to]) {... */\n      iszero\n      tag_320\n      jumpi\n        /* \"contracts/solidity-files-main/contracts/oatfinally.sol\":12495:12500  false */\n      0x00\n        /* \"contracts/solidity-files-main/contracts/oatfinally.sol\":12485:12500  takeFee = false */\n      swap1\n      pop\n        /* \"contracts/solidity-files-main/contracts/oatfinally.sol\":12435:12515  if (_noFee[from] || _noFee[to]) {... */\n    tag_320:\n        /* \"contracts/solidity-files-main/contracts/oatfinally.sol\":12545:12551  amount */\n      dup3\n        /* \"contracts/solidity-files-main/contracts/oatfinally.sol\":12528:12535  balance */\n      0x04\n        /* \"contracts/solidity-files-main/contracts/oatfinally.sol\":12528:12541  balance[from] */\n      0x00\n        /* \"contracts/solidity-files-main/contracts/oatfinally.sol\":12536:12540  from */\n      dup8\n        /* \"contracts/solidity-files-main/contracts/oatfinally.sol\":12528:12541  balance[from] */\n      0xffffffffffffffffffffffffffffffffffffffff\n      and\n      0xffffffffffffffffffffffffffffffffffffffff\n      and\n      dup2\n      mstore\n      0x20\n      add\n      swap1\n      dup2\n      mstore\n      0x20\n      add\n      0x00\n      keccak256\n      0x00\n        /* \"contracts/solidity-files-main/contracts/oatfinally.sol\":12528:12551  balance[from] -= amount */\n      dup3\n      dup3\n      sload\n      tag_321\n      swap2\n      swap1\n      tag_198\n      jump\t// in\n    tag_321:\n      swap3\n      pop\n      pop\n      dup2\n      swap1\n      sstore\n      pop\n        /* \"contracts/solidity-files-main/contracts/oatfinally.sol\":12565:12587  uint256 amountAfterFee */\n      0x00\n        /* \"contracts/solidity-files-main/contracts/oatfinally.sol\":12591:12598  takeFee */\n      dup2\n        /* \"contracts/solidity-files-main/contracts/oatfinally.sol\":12590:12685  (takeFee)... */\n      tag_322\n      jumpi\n        /* \"contracts/solidity-files-main/contracts/oatfinally.sol\":12679:12685  amount */\n      dup4\n        /* \"contracts/solidity-files-main/contracts/oatfinally.sol\":12590:12685  (takeFee)... */\n      jump(tag_323)\n    tag_322:\n        /* \"contracts/solidity-files-main/contracts/oatfinally.sol\":12618:12660  takeTaxes(from, is_sell(from, to), amount) */\n      tag_324\n        /* \"contracts/solidity-files-main/contracts/oatfinally.sol\":12628:12632  from */\n      dup7\n        /* \"contracts/solidity-files-main/contracts/oatfinally.sol\":12634:12651  is_sell(from, to) */\n      tag_325\n        /* \"contracts/solidity-files-main/contracts/oatfinally.sol\":12642:12646  from */\n      dup9\n        /* \"contracts/solidity-files-main/contracts/oatfinally.sol\":12648:12650  to */\n      dup9\n        /* \"contracts/solidity-files-main/contracts/oatfinally.sol\":12634:12641  is_sell */\n      tag_313\n        /* \"contracts/solidity-files-main/contracts/oatfinally.sol\":12634:12651  is_sell(from, to) */\n      jump\t// in\n    tag_325:\n        /* \"contracts/solidity-files-main/contracts/oatfinally.sol\":12653:12659  amount */\n      dup7\n        /* \"contracts/solidity-files-main/contracts/oatfinally.sol\":12618:12627  takeTaxes */\n      tag_326\n        /* \"contracts/solidity-files-main/contracts/oatfinally.sol\":12618:12660  takeTaxes(from, is_sell(from, to), amount) */\n      jump\t// in\n    tag_324:\n        /* \"contracts/solidity-files-main/contracts/oatfinally.sol\":12590:12685  (takeFee)... */\n    tag_323:\n        /* \"contracts/solidity-files-main/contracts/oatfinally.sol\":12565:12685  uint256 amountAfterFee = (takeFee)... */\n      swap1\n      pop\n        /* \"contracts/solidity-files-main/contracts/oatfinally.sol\":12714:12728  amountAfterFee */\n      dup1\n        /* \"contracts/solidity-files-main/contracts/oatfinally.sol\":12699:12706  balance */\n      0x04\n        /* \"contracts/solidity-files-main/contracts/oatfinally.sol\":12699:12710  balance[to] */\n      0x00\n        /* \"contracts/solidity-files-main/contracts/oatfinally.sol\":12707:12709  to */\n      dup8\n        /* \"contracts/solidity-files-main/contracts/oatfinally.sol\":12699:12710  balance[to] */\n      0xffffffffffffffffffffffffffffffffffffffff\n      and\n      0xffffffffffffffffffffffffffffffffffffffff\n      and\n      dup2\n      mstore\n      0x20\n      add\n      swap1\n      dup2\n      mstore\n      0x20\n      add\n      0x00\n      keccak256\n      0x00\n        /* \"contracts/solidity-files-main/contracts/oatfinally.sol\":12699:12728  balance[to] += amountAfterFee */\n      dup3\n      dup3\n      sload\n      tag_327\n      swap2\n      swap1\n      tag_308\n      jump\t// in\n    tag_327:\n      swap3\n      pop\n      pop\n      dup2\n      swap1\n      sstore\n      pop\n        /* \"contracts/solidity-files-main/contracts/oatfinally.sol\":12762:12764  to */\n      dup5\n        /* \"contracts/solidity-files-main/contracts/oatfinally.sol\":12747:12781  Transfer(from, to, amountAfterFee) */\n      0xffffffffffffffffffffffffffffffffffffffff\n      and\n        /* \"contracts/solidity-files-main/contracts/oatfinally.sol\":12756:12760  from */\n      dup7\n        /* \"contracts/solidity-files-main/contracts/oatfinally.sol\":12747:12781  Transfer(from, to, amountAfterFee) */\n      0xffffffffffffffffffffffffffffffffffffffff\n      and\n      0xddf252ad1be2c89b69c2b068fc378daa952ba7f163c4a11628f55a4df523b3ef\n        /* \"contracts/solidity-files-main/contracts/oatfinally.sol\":12766:12780  amountAfterFee */\n      dup4\n        /* \"contracts/solidity-files-main/contracts/oatfinally.sol\":12747:12781  Transfer(from, to, amountAfterFee) */\n      mload(0x40)\n      tag_328\n      swap2\n      swap1\n      tag_48\n      jump\t// in\n    tag_328:\n      mload(0x40)\n      dup1\n      swap2\n      sub\n      swap1\n      log3\n        /* \"contracts/solidity-files-main/contracts/oatfinally.sol\":11303:12792  {... */\n      pop\n        /* \"contracts/solidity-files-main/contracts/oatfinally.sol\":11265:12792  if (from != owner() && to != owner()) {... */\n    tag_292:\n        /* \"contracts/solidity-files-main/contracts/oatfinally.sol\":12808:12812  true */\n      0x01\n        /* \"contracts/solidity-files-main/contracts/oatfinally.sol\":12801:12812  return true */\n      swap2\n      pop\n      pop\n        /* \"contracts/solidity-files-main/contracts/oatfinally.sol\":10884:12819  function _transfer(... */\n      swap4\n      swap3\n      pop\n      pop\n      pop\n      jump\t// out\n        /* \"contracts/solidity-files-main/contracts/oatfinally.sol\":1236:1341  function _msgSender() internal view returns (address payable) {... */\n    tag_217:\n        /* \"contracts/solidity-files-main/contracts/oatfinally.sol\":1281:1296  address payable */\n      0x00\n        /* \"contracts/solidity-files-main/contracts/oatfinally.sol\":1323:1333  msg.sender */\n      caller\n        /* \"contracts/solidity-files-main/contracts/oatfinally.sol\":1308:1334  return payable(msg.sender) */\n      swap1\n      pop\n        /* \"contracts/solidity-files-main/contracts/oatfinally.sol\":1236:1341  function _msgSender() internal view returns (address payable) {... */\n      swap1\n      jump\t// out\n        /* \"contracts/solidity-files-main/contracts/oatfinally.sol\":13401:14227  function internalSwap(uint256 contractTokenBalance) internal inSwapFlag {... */\n    tag_222:\n        /* \"contracts/solidity-files-main/contracts/oatfinally.sol\":8270:8274  true */\n      0x01\n        /* \"contracts/solidity-files-main/contracts/oatfinally.sol\":8261:8267  inSwap */\n      0x0e\n      0x14\n        /* \"contracts/solidity-files-main/contracts/oatfinally.sol\":8261:8274  inSwap = true */\n      0x0100\n      exp\n      dup2\n      sload\n      dup2\n      0xff\n      mul\n      not\n      and\n      swap1\n      dup4\n      iszero\n      iszero\n      mul\n      or\n      swap1\n      sstore\n      pop\n        /* \"contracts/solidity-files-main/contracts/oatfinally.sol\":13483:13504  address[] memory path */\n      0x00\n        /* \"contracts/solidity-files-main/contracts/oatfinally.sol\":13521:13522  2 */\n      0x02\n        /* \"contracts/solidity-files-main/contracts/oatfinally.sol\":13507:13523  new address[](2) */\n      0xffffffffffffffff\n      dup2\n      gt\n      iszero\n      tag_332\n      jumpi\n      tag_333\n      tag_334\n      jump\t// in\n    tag_333:\n    tag_332:\n      mload(0x40)\n      swap1\n      dup1\n      dup3\n      mstore\n      dup1\n      0x20\n      mul\n      0x20\n      add\n      dup3\n      add\n      0x40\n      mstore\n      dup1\n      iszero\n      tag_335\n      jumpi\n      dup2\n      0x20\n      add\n      0x20\n      dup3\n      mul\n      dup1\n      calldatasize\n      dup4\n      calldatacopy\n      dup1\n      dup3\n      add\n      swap2\n      pop\n      pop\n      swap1\n      pop\n    tag_335:\n      pop\n        /* \"contracts/solidity-files-main/contracts/oatfinally.sol\":13483:13523  address[] memory path = new address[](2) */\n      swap1\n      pop\n        /* \"contracts/solidity-files-main/contracts/oatfinally.sol\":13551:13555  this */\n      address\n        /* \"contracts/solidity-files-main/contracts/oatfinally.sol\":13533:13537  path */\n      dup2\n        /* \"contracts/solidity-files-main/contracts/oatfinally.sol\":13538:13539  0 */\n      0x00\n        /* \"contracts/solidity-files-main/contracts/oatfinally.sol\":13533:13540  path[0] */\n      dup2\n      mload\n      dup2\n      lt\n      tag_336\n      jumpi\n      tag_337\n      tag_338\n      jump\t// in\n    tag_337:\n    tag_336:\n      0x20\n      mul\n      0x20\n      add\n      add\n        /* \"contracts/solidity-files-main/contracts/oatfinally.sol\":13533:13556  path[0] = address(this) */\n      swap1\n      0xffffffffffffffffffffffffffffffffffffffff\n      and\n      swap1\n      dup2\n      0xffffffffffffffffffffffffffffffffffffffff\n      and\n      dup2\n      mstore\n      pop\n      pop\n        /* \"contracts/solidity-files-main/contracts/oatfinally.sol\":13576:13586  swapRouter */\n      0x0d\n      0x00\n      swap1\n      sload\n      swap1\n      0x0100\n      exp\n      swap1\n      div\n      0xffffffffffffffffffffffffffffffffffffffff\n      and\n        /* \"contracts/solidity-files-main/contracts/oatfinally.sol\":13576:13591  swapRouter.WETH */\n      0xffffffffffffffffffffffffffffffffffffffff\n      and\n      0xad5c4648\n        /* \"contracts/solidity-files-main/contracts/oatfinally.sol\":13576:13593  swapRouter.WETH() */\n      mload(0x40)\n      dup2\n      0xffffffff\n      and\n      0xe0\n      shl\n      dup2\n      mstore\n      0x04\n      add\n      0x20\n      mload(0x40)\n      dup1\n      dup4\n      sub\n      dup2\n      dup7\n      gas\n      staticcall\n      iszero\n      dup1\n      iszero\n      tag_340\n      jumpi\n      returndatasize\n      0x00\n      dup1\n      returndatacopy\n      revert(0x00, returndatasize)\n    tag_340:\n      pop\n      pop\n      pop\n      pop\n      mload(0x40)\n      returndatasize\n      not(0x1f)\n      0x1f\n      dup3\n      add\n      and\n      dup3\n      add\n      dup1\n      0x40\n      mstore\n      pop\n      dup2\n      add\n      swap1\n      tag_341\n      swap2\n      swap1\n      tag_342\n      jump\t// in\n    tag_341:\n        /* \"contracts/solidity-files-main/contracts/oatfinally.sol\":13566:13570  path */\n      dup2\n        /* \"contracts/solidity-files-main/contracts/oatfinally.sol\":13571:13572  1 */\n      0x01\n        /* \"contracts/solidity-files-main/contracts/oatfinally.sol\":13566:13573  path[1] */\n      dup2\n      mload\n      dup2\n      lt\n      tag_343\n      jumpi\n      tag_344\n      tag_338\n      jump\t// in\n    tag_344:\n    tag_343:\n      0x20\n      mul\n      0x20\n      add\n      add\n        /* \"contracts/solidity-files-main/contracts/oatfinally.sol\":13566:13593  path[1] = swapRouter.WETH() */\n      swap1\n      0xffffffffffffffffffffffffffffffffffffffff\n      and\n      swap1\n      dup2\n      0xffffffffffffffffffffffffffffffffffffffff\n      and\n      dup2\n      mstore\n      pop\n      pop\n        /* \"contracts/solidity-files-main/contracts/oatfinally.sol\":13672:13689  type(uint256).max */\n      0xffffffffffffffffffffffffffffffffffffffffffffffffffffffffffffffff\n        /* \"contracts/solidity-files-main/contracts/oatfinally.sol\":13621:13632  _allowances */\n      0x01\n        /* \"contracts/solidity-files-main/contracts/oatfinally.sol\":13621:13647  _allowances[address(this)] */\n      0x00\n        /* \"contracts/solidity-files-main/contracts/oatfinally.sol\":13641:13645  this */\n      address\n        /* \"contracts/solidity-files-main/contracts/oatfinally.sol\":13621:13647  _allowances[address(this)] */\n      0xffffffffffffffffffffffffffffffffffffffff\n      and\n      0xffffffffffffffffffffffffffffffffffffffff\n      and\n      dup2\n      mstore\n      0x20\n      add\n      swap1\n      dup2\n      mstore\n      0x20\n      add\n      0x00\n      keccak256\n        /* \"contracts/solidity-files-main/contracts/oatfinally.sol\":13621:13668  _allowances[address(this)][address(swapRouter)] */\n      0x00\n        /* \"contracts/solidity-files-main/contracts/oatfinally.sol\":13656:13666  swapRouter */\n      0x0d\n      0x00\n      swap1\n      sload\n      swap1\n      0x0100\n      exp\n      swap1\n      div\n      0xffffffffffffffffffffffffffffffffffffffff\n      and\n        /* \"contracts/solidity-files-main/contracts/oatfinally.sol\":13621:13668  _allowances[address(this)][address(swapRouter)] */\n      0xffffffffffffffffffffffffffffffffffffffff\n      and\n      0xffffffffffffffffffffffffffffffffffffffff\n      and\n      dup2\n      mstore\n      0x20\n      add\n      swap1\n      dup2\n      mstore\n      0x20\n      add\n      0x00\n      keccak256\n      sload\n        /* \"contracts/solidity-files-main/contracts/oatfinally.sol\":13621:13689  _allowances[address(this)][address(swapRouter)] != type(uint256).max */\n      eq\n        /* \"contracts/solidity-files-main/contracts/oatfinally.sol\":13604:13792  if (... */\n      tag_345\n      jumpi\n        /* \"contracts/solidity-files-main/contracts/oatfinally.sol\":13764:13781  type(uint256).max */\n      0xffffffffffffffffffffffffffffffffffffffffffffffffffffffffffffffff\n        /* \"contracts/solidity-files-main/contracts/oatfinally.sol\":13714:13725  _allowances */\n      0x01\n        /* \"contracts/solidity-files-main/contracts/oatfinally.sol\":13714:13740  _allowances[address(this)] */\n      0x00\n        /* \"contracts/solidity-files-main/contracts/oatfinally.sol\":13734:13738  this */\n      address\n        /* \"contracts/solidity-files-main/contracts/oatfinally.sol\":13714:13740  _allowances[address(this)] */\n      0xffffffffffffffffffffffffffffffffffffffff\n      and\n      0xffffffffffffffffffffffffffffffffffffffff\n      and\n      dup2\n      mstore\n      0x20\n      add\n      swap1\n      dup2\n      mstore\n      0x20\n      add\n      0x00\n      keccak256\n        /* \"contracts/solidity-files-main/contracts/oatfinally.sol\":13714:13761  _allowances[address(this)][address(swapRouter)] */\n      0x00\n        /* \"contracts/solidity-files-main/contracts/oatfinally.sol\":13749:13759  swapRouter */\n      0x0d\n      0x00\n      swap1\n      sload\n      swap1\n      0x0100\n      exp\n      swap1\n      div\n      0xffffffffffffffffffffffffffffffffffffffff\n      and\n        /* \"contracts/solidity-files-main/contracts/oatfinally.sol\":13714:13761  _allowances[address(this)][address(swapRouter)] */\n      0xffffffffffffffffffffffffffffffffffffffff\n      and\n      0xffffffffffffffffffffffffffffffffffffffff\n      and\n      dup2\n      mstore\n      0x20\n      add\n      swap1\n      dup2\n      mstore\n      0x20\n      add\n      0x00\n      keccak256\n        /* \"contracts/solidity-files-main/contracts/oatfinally.sol\":13714:13781  _allowances[address(this)][address(swapRouter)] = type(uint256).max */\n      dup2\n      swap1\n      sstore\n      pop\n        /* \"contracts/solidity-files-main/contracts/oatfinally.sol\":13604:13792  if (... */\n    tag_345:\n        /* \"contracts/solidity-files-main/contracts/oatfinally.sol\":13818:13828  swapRouter */\n      0x0d\n      0x00\n      swap1\n      sload\n      swap1\n      0x0100\n      exp\n      swap1\n      div\n      0xffffffffffffffffffffffffffffffffffffffff\n      and\n        /* \"contracts/solidity-files-main/contracts/oatfinally.sol\":13818:13879  swapRouter.swapExactTokensForETHSupportingFeeOnTransferTokens */\n      0xffffffffffffffffffffffffffffffffffffffff\n      and\n      0x791ac947\n        /* \"contracts/solidity-files-main/contracts/oatfinally.sol\":13897:13917  contractTokenBalance */\n      dup4\n        /* \"contracts/solidity-files-main/contracts/oatfinally.sol\":13935:13936  0 */\n      0x00\n        /* \"contracts/solidity-files-main/contracts/oatfinally.sol\":13954:13958  path */\n      dup5\n        /* \"contracts/solidity-files-main/contracts/oatfinally.sol\":13984:13988  this */\n      address\n        /* \"contracts/solidity-files-main/contracts/oatfinally.sol\":14007:14022  block.timestamp */\n      timestamp\n        /* \"contracts/solidity-files-main/contracts/oatfinally.sol\":13818:14036  swapRouter.swapExactTokensForETHSupportingFeeOnTransferTokens(... */\n      mload(0x40)\n      dup7\n      0xffffffff\n      and\n      0xe0\n      shl\n      dup2\n      mstore\n      0x04\n      add\n      tag_346\n      swap6\n      swap5\n      swap4\n      swap3\n      swap2\n      swap1\n      tag_347\n      jump\t// in\n    tag_346:\n      0x00\n      mload(0x40)\n      dup1\n      dup4\n      sub\n      dup2\n      0x00\n      dup8\n      dup1\n      extcodesize\n      iszero\n      dup1\n      iszero\n      tag_348\n      jumpi\n      0x00\n      dup1\n      revert\n    tag_348:\n      pop\n      gas\n      call\n      swap3\n      pop\n      pop\n      pop\n      dup1\n      iszero\n      tag_349\n      jumpi\n      pop\n      0x01\n    tag_349:\n        /* \"contracts/solidity-files-main/contracts/oatfinally.sol\":13802:14085  try... */\n      tag_350\n      jumpi\n        /* \"contracts/solidity-files-main/contracts/oatfinally.sol\":14068:14075  return; */\n      pop\n      jump(tag_331)\n        /* \"contracts/solidity-files-main/contracts/oatfinally.sol\":13802:14085  try... */\n    tag_350:\n        /* \"contracts/solidity-files-main/contracts/oatfinally.sol\":14094:14106  bool success */\n      0x00\n        /* \"contracts/solidity-files-main/contracts/oatfinally.sol\":14145:14146  0 */\n      dup1\n        /* \"contracts/solidity-files-main/contracts/oatfinally.sol\":14121:14142  address(this).balance */\n      selfbalance\n        /* \"contracts/solidity-files-main/contracts/oatfinally.sol\":14121:14146  address(this).balance > 0 */\n      gt\n        /* \"contracts/solidity-files-main/contracts/oatfinally.sol\":14117:14220  if (address(this).balance > 0)... */\n      iszero\n      tag_355\n      jumpi\n        /* \"contracts/solidity-files-main/contracts/oatfinally.sol\":14174:14181  _oatFee */\n      0x0c\n      0x00\n      swap1\n      sload\n      swap1\n      0x0100\n      exp\n      swap1\n      div\n      0xffffffffffffffffffffffffffffffffffffffff\n      and\n        /* \"contracts/solidity-files-main/contracts/oatfinally.sol\":14174:14186  _oatFee.call */\n      0xffffffffffffffffffffffffffffffffffffffff\n      and\n        /* \"contracts/solidity-files-main/contracts/oatfinally.sol\":14194:14215  address(this).balance */\n      selfbalance\n        /* \"contracts/solidity-files-main/contracts/oatfinally.sol\":14174:14220  _oatFee.call{value: address(this).balance}(\"\") */\n      mload(0x40)\n      tag_356\n      swap1\n      tag_357\n      jump\t// in\n    tag_356:\n      0x00\n      mload(0x40)\n      dup1\n      dup4\n      sub\n      dup2\n      dup6\n      dup8\n      gas\n      call\n      swap3\n      pop\n      pop\n      pop\n      returndatasize\n      dup1\n      0x00\n      dup2\n      eq\n      tag_360\n      jumpi\n      mload(0x40)\n      swap2\n      pop\n      and(add(returndatasize, 0x3f), not(0x1f))\n      dup3\n      add\n      0x40\n      mstore\n      returndatasize\n      dup3\n      mstore\n      returndatasize\n      0x00\n      0x20\n      dup5\n      add\n      returndatacopy\n      jump(tag_359)\n    tag_360:\n      0x60\n      swap2\n      pop\n    tag_359:\n      pop\n        /* \"contracts/solidity-files-main/contracts/oatfinally.sol\":14160:14220  (success, ) = _oatFee.call{value: address(this).balance}(\"\") */\n      pop\n      dup1\n      swap2\n      pop\n      pop\n        /* \"contracts/solidity-files-main/contracts/oatfinally.sol\":14117:14220  if (address(this).balance > 0)... */\n    tag_355:\n        /* \"contracts/solidity-files-main/contracts/oatfinally.sol\":13473:14227  {... */\n      pop\n      pop\n        /* \"contracts/solidity-files-main/contracts/oatfinally.sol\":8284:8285  _ */\n    tag_331:\n        /* \"contracts/solidity-files-main/contracts/oatfinally.sol\":8304:8309  false */\n      0x00\n        /* \"contracts/solidity-files-main/contracts/oatfinally.sol\":8295:8301  inSwap */\n      0x0e\n      0x14\n        /* \"contracts/solidity-files-main/contracts/oatfinally.sol\":8295:8309  inSwap = false */\n      0x0100\n      exp\n      dup2\n      sload\n      dup2\n      0xff\n      mul\n      not\n      and\n      swap1\n      dup4\n      iszero\n      iszero\n      mul\n      or\n      swap1\n      sstore\n      pop\n        /* \"contracts/solidity-files-main/contracts/oatfinally.sol\":13401:14227  function internalSwap(uint256 contractTokenBalance) internal inSwapFlag {... */\n      pop\n      jump\t// out\n        /* \"contracts/solidity-files-main/contracts/oatfinally.sol\":2239:2408  function _setOwner(address newOwner) private {... */\n    tag_239:\n        /* \"contracts/solidity-files-main/contracts/oatfinally.sol\":2294:2310  address oldOwner */\n      0x00\n        /* \"contracts/solidity-files-main/contracts/oatfinally.sol\":2313:2319  _owner */\n      dup1\n      0x00\n      swap1\n      sload\n      swap1\n      0x0100\n      exp\n      swap1\n      div\n      0xffffffffffffffffffffffffffffffffffffffff\n      and\n        /* \"contracts/solidity-files-main/contracts/oatfinally.sol\":2294:2319  address oldOwner = _owner */\n      swap1\n      pop\n        /* \"contracts/solidity-files-main/contracts/oatfinally.sol\":2338:2346  newOwner */\n      dup2\n        /* \"contracts/solidity-files-main/contracts/oatfinally.sol\":2329:2335  _owner */\n      0x00\n      dup1\n        /* \"contracts/solidity-files-main/contracts/oatfinally.sol\":2329:2346  _owner = newOwner */\n      0x0100\n      exp\n      dup2\n      sload\n      dup2\n      0xffffffffffffffffffffffffffffffffffffffff\n      mul\n      not\n      and\n      swap1\n      dup4\n      0xffffffffffffffffffffffffffffffffffffffff\n      and\n      mul\n      or\n      swap1\n      sstore\n      pop\n        /* \"contracts/solidity-files-main/contracts/oatfinally.sol\":2392:2400  newOwner */\n      dup2\n        /* \"contracts/solidity-files-main/contracts/oatfinally.sol\":2361:2401  OwnershipTransferred(oldOwner, newOwner) */\n      0xffffffffffffffffffffffffffffffffffffffff\n      and\n        /* \"contracts/solidity-files-main/contracts/oatfinally.sol\":2382:2390  oldOwner */\n      dup2\n        /* \"contracts/solidity-files-main/contracts/oatfinally.sol\":2361:2401  OwnershipTransferred(oldOwner, newOwner) */\n      0xffffffffffffffffffffffffffffffffffffffff\n      and\n      0x8be0079c531659141344cd1fd0a4f28419497f9722a3daafe3b4186f6b6457e0\n      mload(0x40)\n      mload(0x40)\n      dup1\n      swap2\n      sub\n      swap1\n      log3\n        /* \"contracts/solidity-files-main/contracts/oatfinally.sol\":2284:2408  {... */\n      pop\n        /* \"contracts/solidity-files-main/contracts/oatfinally.sol\":2239:2408  function _setOwner(address newOwner) private {... */\n      pop\n      jump\t// out\n        /* \"contracts/solidity-files-main/contracts/oatfinally.sol\":10716:10877  function is_sell(address ins, address out) internal view returns (bool) {... */\n    tag_313:\n        /* \"contracts/solidity-files-main/contracts/oatfinally.sol\":10782:10786  bool */\n      0x00\n        /* \"contracts/solidity-files-main/contracts/oatfinally.sol\":10798:10811  bool _is_sell */\n      dup1\n        /* \"contracts/solidity-files-main/contracts/oatfinally.sol\":10814:10822  isLpPair */\n      0x03\n        /* \"contracts/solidity-files-main/contracts/oatfinally.sol\":10814:10827  isLpPair[out] */\n      0x00\n        /* \"contracts/solidity-files-main/contracts/oatfinally.sol\":10823:10826  out */\n      dup5\n        /* \"contracts/solidity-files-main/contracts/oatfinally.sol\":10814:10827  isLpPair[out] */\n      0xffffffffffffffffffffffffffffffffffffffff\n      and\n      0xffffffffffffffffffffffffffffffffffffffff\n      and\n      dup2\n      mstore\n      0x20\n      add\n      swap1\n      dup2\n      mstore\n      0x20\n      add\n      0x00\n      keccak256\n      0x00\n      swap1\n      sload\n      swap1\n      0x0100\n      exp\n      swap1\n      div\n      0xff\n      and\n        /* \"contracts/solidity-files-main/contracts/oatfinally.sol\":10814:10845  isLpPair[out] && !isLpPair[ins] */\n      dup1\n      iszero\n      tag_363\n      jumpi\n      pop\n        /* \"contracts/solidity-files-main/contracts/oatfinally.sol\":10832:10840  isLpPair */\n      0x03\n        /* \"contracts/solidity-files-main/contracts/oatfinally.sol\":10832:10845  isLpPair[ins] */\n      0x00\n        /* \"contracts/solidity-files-main/contracts/oatfinally.sol\":10841:10844  ins */\n      dup6\n        /* \"contracts/solidity-files-main/contracts/oatfinally.sol\":10832:10845  isLpPair[ins] */\n      0xffffffffffffffffffffffffffffffffffffffff\n      and\n      0xffffffffffffffffffffffffffffffffffffffff\n      and\n      dup2\n      mstore\n      0x20\n      add\n      swap1\n      dup2\n      mstore\n      0x20\n      add\n      0x00\n      keccak256\n      0x00\n      swap1\n      sload\n      swap1\n      0x0100\n      exp\n      swap1\n      div\n      0xff\n      and\n        /* \"contracts/solidity-files-main/contracts/oatfinally.sol\":10831:10845  !isLpPair[ins] */\n      iszero\n        /* \"contracts/solidity-files-main/contracts/oatfinally.sol\":10814:10845  isLpPair[out] && !isLpPair[ins] */\n    tag_363:\n        /* \"contracts/solidity-files-main/contracts/oatfinally.sol\":10798:10845  bool _is_sell = isLpPair[out] && !isLpPair[ins] */\n      swap1\n      pop\n        /* \"contracts/solidity-files-main/contracts/oatfinally.sol\":10862:10870  _is_sell */\n      dup1\n        /* \"contracts/solidity-files-main/contracts/oatfinally.sol\":10855:10870  return _is_sell */\n      swap2\n      pop\n      pop\n        /* \"contracts/solidity-files-main/contracts/oatfinally.sol\":10716:10877  function is_sell(address ins, address out) internal view returns (bool) {... */\n      swap3\n      swap2\n      pop\n      pop\n      jump\t// out\n        /* \"contracts/solidity-files-main/contracts/oatfinally.sol\":12825:13395  function takeTaxes(... */\n    tag_326:\n        /* \"contracts/solidity-files-main/contracts/oatfinally.sol\":12935:12942  uint256 */\n      0x00\n        /* \"contracts/solidity-files-main/contracts/oatfinally.sol\":12954:12965  uint256 fee */\n      dup1\n        /* \"contracts/solidity-files-main/contracts/oatfinally.sol\":12968:12969  0 */\n      0x00\n        /* \"contracts/solidity-files-main/contracts/oatfinally.sol\":12954:12969  uint256 fee = 0 */\n      swap1\n      pop\n        /* \"contracts/solidity-files-main/contracts/oatfinally.sol\":12983:12989  issell */\n      dup4\n        /* \"contracts/solidity-files-main/contracts/oatfinally.sol\":12983:13006  issell && _jareDs[from] */\n      dup1\n      iszero\n      tag_365\n      jumpi\n      pop\n        /* \"contracts/solidity-files-main/contracts/oatfinally.sol\":12993:13000  _jareDs */\n      0x06\n        /* \"contracts/solidity-files-main/contracts/oatfinally.sol\":12993:13006  _jareDs[from] */\n      0x00\n        /* \"contracts/solidity-files-main/contracts/oatfinally.sol\":13001:13005  from */\n      dup7\n        /* \"contracts/solidity-files-main/contracts/oatfinally.sol\":12993:13006  _jareDs[from] */\n      0xffffffffffffffffffffffffffffffffffffffff\n      and\n      0xffffffffffffffffffffffffffffffffffffffff\n      and\n      dup2\n      mstore\n      0x20\n      add\n      swap1\n      dup2\n      mstore\n      0x20\n      add\n      0x00\n      keccak256\n      0x00\n      swap1\n      sload\n      swap1\n      0x0100\n      exp\n      swap1\n      div\n      0xff\n      and\n        /* \"contracts/solidity-files-main/contracts/oatfinally.sol\":12983:13006  issell && _jareDs[from] */\n    tag_365:\n        /* \"contracts/solidity-files-main/contracts/oatfinally.sol\":12979:13107  if (issell && _jareDs[from]) {... */\n      iszero\n      tag_366\n      jumpi\n        /* \"contracts/solidity-files-main/contracts/oatfinally.sol\":13028:13040  jaredsellfee */\n      sload(0x09)\n        /* \"contracts/solidity-files-main/contracts/oatfinally.sol\":13022:13040  fee = jaredsellfee */\n      swap1\n      pop\n        /* \"contracts/solidity-files-main/contracts/oatfinally.sol\":12979:13107  if (issell && _jareDs[from]) {... */\n      jump(tag_367)\n    tag_366:\n        /* \"contracts/solidity-files-main/contracts/oatfinally.sol\":13061:13067  issell */\n      dup4\n        /* \"contracts/solidity-files-main/contracts/oatfinally.sol\":13057:13107  if (issell) {... */\n      iszero\n      tag_368\n      jumpi\n        /* \"contracts/solidity-files-main/contracts/oatfinally.sol\":7587:7588  2 */\n      0x02\n        /* \"contracts/solidity-files-main/contracts/oatfinally.sol\":13083:13096  fee = sellfee */\n      swap1\n      pop\n        /* \"contracts/solidity-files-main/contracts/oatfinally.sol\":13057:13107  if (issell) {... */\n    tag_368:\n        /* \"contracts/solidity-files-main/contracts/oatfinally.sol\":12979:13107  if (issell && _jareDs[from]) {... */\n    tag_367:\n        /* \"contracts/solidity-files-main/contracts/oatfinally.sol\":13127:13128  0 */\n      0x00\n        /* \"contracts/solidity-files-main/contracts/oatfinally.sol\":13120:13123  fee */\n      dup2\n        /* \"contracts/solidity-files-main/contracts/oatfinally.sol\":13120:13128  fee == 0 */\n      sub\n        /* \"contracts/solidity-files-main/contracts/oatfinally.sol\":13116:13143  if (fee == 0) return amount */\n      tag_369\n      jumpi\n        /* \"contracts/solidity-files-main/contracts/oatfinally.sol\":13137:13143  amount */\n      dup3\n        /* \"contracts/solidity-files-main/contracts/oatfinally.sol\":13130:13143  return amount */\n      swap2\n      pop\n      pop\n      jump(tag_364)\n        /* \"contracts/solidity-files-main/contracts/oatfinally.sol\":13116:13143  if (fee == 0) return amount */\n    tag_369:\n        /* \"contracts/solidity-files-main/contracts/oatfinally.sol\":13154:13171  uint256 feeAmount */\n      0x00\n        /* \"contracts/solidity-files-main/contracts/oatfinally.sol\":7677:7680  100 */\n      0x64\n        /* \"contracts/solidity-files-main/contracts/oatfinally.sol\":13184:13187  fee */\n      dup3\n        /* \"contracts/solidity-files-main/contracts/oatfinally.sol\":13175:13181  amount */\n      dup6\n        /* \"contracts/solidity-files-main/contracts/oatfinally.sol\":13175:13187  amount * fee */\n      tag_370\n      swap2\n      swap1\n      tag_371\n      jump\t// in\n    tag_370:\n        /* \"contracts/solidity-files-main/contracts/oatfinally.sol\":13174:13206  (amount * fee) / fee_denominator */\n      tag_372\n      swap2\n      swap1\n      tag_373\n      jump\t// in\n    tag_372:\n        /* \"contracts/solidity-files-main/contracts/oatfinally.sol\":13154:13206  uint256 feeAmount = (amount * fee) / fee_denominator */\n      swap1\n      pop\n        /* \"contracts/solidity-files-main/contracts/oatfinally.sol\":13232:13233  0 */\n      0x00\n        /* \"contracts/solidity-files-main/contracts/oatfinally.sol\":13220:13229  feeAmount */\n      dup2\n        /* \"contracts/solidity-files-main/contracts/oatfinally.sol\":13220:13233  feeAmount > 0 */\n      gt\n        /* \"contracts/solidity-files-main/contracts/oatfinally.sol\":13216:13354  if (feeAmount > 0) {... */\n      iszero\n      tag_374\n      jumpi\n        /* \"contracts/solidity-files-main/contracts/oatfinally.sol\":13275:13284  feeAmount */\n      dup1\n        /* \"contracts/solidity-files-main/contracts/oatfinally.sol\":13249:13256  balance */\n      0x04\n        /* \"contracts/solidity-files-main/contracts/oatfinally.sol\":13249:13271  balance[address(this)] */\n      0x00\n        /* \"contracts/solidity-files-main/contracts/oatfinally.sol\":13265:13269  this */\n      address\n        /* \"contracts/solidity-files-main/contracts/oatfinally.sol\":13249:13271  balance[address(this)] */\n      0xffffffffffffffffffffffffffffffffffffffff\n      and\n      0xffffffffffffffffffffffffffffffffffffffff\n      and\n      dup2\n      mstore\n      0x20\n      add\n      swap1\n      dup2\n      mstore\n      0x20\n      add\n      0x00\n      keccak256\n      0x00\n        /* \"contracts/solidity-files-main/contracts/oatfinally.sol\":13249:13284  balance[address(this)] += feeAmount */\n      dup3\n      dup3\n      sload\n      tag_375\n      swap2\n      swap1\n      tag_308\n      jump\t// in\n    tag_375:\n      swap3\n      pop\n      pop\n      dup2\n      swap1\n      sstore\n      pop\n        /* \"contracts/solidity-files-main/contracts/oatfinally.sol\":13326:13330  this */\n      address\n        /* \"contracts/solidity-files-main/contracts/oatfinally.sol\":13303:13343  Transfer(from, address(this), feeAmount) */\n      0xffffffffffffffffffffffffffffffffffffffff\n      and\n        /* \"contracts/solidity-files-main/contracts/oatfinally.sol\":13312:13316  from */\n      dup7\n        /* \"contracts/solidity-files-main/contracts/oatfinally.sol\":13303:13343  Transfer(from, address(this), feeAmount) */\n      0xffffffffffffffffffffffffffffffffffffffff\n      and\n      0xddf252ad1be2c89b69c2b068fc378daa952ba7f163c4a11628f55a4df523b3ef\n        /* \"contracts/solidity-files-main/contracts/oatfinally.sol\":13333:13342  feeAmount */\n      dup4\n        /* \"contracts/solidity-files-main/contracts/oatfinally.sol\":13303:13343  Transfer(from, address(this), feeAmount) */\n      mload(0x40)\n      tag_376\n      swap2\n      swap1\n      tag_48\n      jump\t// in\n    tag_376:\n      mload(0x40)\n      dup1\n      swap2\n      sub\n      swap1\n      log3\n        /* \"contracts/solidity-files-main/contracts/oatfinally.sol\":13216:13354  if (feeAmount > 0) {... */\n    tag_374:\n        /* \"contracts/solidity-files-main/contracts/oatfinally.sol\":13379:13388  feeAmount */\n      dup1\n        /* \"contracts/solidity-files-main/contracts/oatfinally.sol\":13370:13376  amount */\n      dup5\n        /* \"contracts/solidity-files-main/contracts/oatfinally.sol\":13370:13388  amount - feeAmount */\n      tag_377\n      swap2\n      swap1\n      tag_198\n      jump\t// in\n    tag_377:\n        /* \"contracts/solidity-files-main/contracts/oatfinally.sol\":13363:13388  return amount - feeAmount */\n      swap3\n      pop\n      pop\n      pop\n        /* \"contracts/solidity-files-main/contracts/oatfinally.sol\":12825:13395  function takeTaxes(... */\n    tag_364:\n      swap4\n      swap3\n      pop\n      pop\n      pop\n      jump\t// out\n        /* \"#utility.yul\":7:84   */\n    tag_378:\n        /* \"#utility.yul\":44:51   */\n      0x00\n        /* \"#utility.yul\":73:78   */\n      dup2\n        /* \"#utility.yul\":62:78   */\n      swap1\n      pop\n        /* \"#utility.yul\":7:84   */\n      swap2\n      swap1\n      pop\n      jump\t// out\n        /* \"#utility.yul\":90:208   */\n    tag_379:\n        /* \"#utility.yul\":177:201   */\n      tag_451\n        /* \"#utility.yul\":195:200   */\n      dup2\n        /* \"#utility.yul\":177:201   */\n      tag_378\n      jump\t// in\n    tag_451:\n        /* \"#utility.yul\":172:175   */\n      dup3\n        /* \"#utility.yul\":165:202   */\n      mstore\n        /* \"#utility.yul\":90:208   */\n      pop\n      pop\n      jump\t// out\n        /* \"#utility.yul\":214:436   */\n    tag_48:\n        /* \"#utility.yul\":307:311   */\n      0x00\n        /* \"#utility.yul\":345:347   */\n      0x20\n        /* \"#utility.yul\":334:343   */\n      dup3\n        /* \"#utility.yul\":330:348   */\n      add\n        /* \"#utility.yul\":322:348   */\n      swap1\n      pop\n        /* \"#utility.yul\":358:429   */\n      tag_453\n        /* \"#utility.yul\":426:427   */\n      0x00\n        /* \"#utility.yul\":415:424   */\n      dup4\n        /* \"#utility.yul\":411:428   */\n      add\n        /* \"#utility.yul\":402:408   */\n      dup5\n        /* \"#utility.yul\":358:429   */\n      tag_379\n      jump\t// in\n    tag_453:\n        /* \"#utility.yul\":214:436   */\n      swap3\n      swap2\n      pop\n      pop\n      jump\t// out\n        /* \"#utility.yul\":442:541   */\n    tag_380:\n        /* \"#utility.yul\":494:500   */\n      0x00\n        /* \"#utility.yul\":528:533   */\n      dup2\n        /* \"#utility.yul\":522:534   */\n      mload\n        /* \"#utility.yul\":512:534   */\n      swap1\n      pop\n        /* \"#utility.yul\":442:541   */\n      swap2\n      swap1\n      pop\n      jump\t// out\n        /* \"#utility.yul\":547:716   */\n    tag_381:\n        /* \"#utility.yul\":631:642   */\n      0x00\n        /* \"#utility.yul\":665:671   */\n      dup3\n        /* \"#utility.yul\":660:663   */\n      dup3\n        /* \"#utility.yul\":653:672   */\n      mstore\n        /* \"#utility.yul\":705:709   */\n      0x20\n        /* \"#utility.yul\":700:703   */\n      dup3\n        /* \"#utility.yul\":696:710   */\n      add\n        /* \"#utility.yul\":681:710   */\n      swap1\n      pop\n        /* \"#utility.yul\":547:716   */\n      swap3\n      swap2\n      pop\n      pop\n      jump\t// out\n        /* \"#utility.yul\":722:968   */\n    tag_382:\n        /* \"#utility.yul\":803:804   */\n      0x00\n        /* \"#utility.yul\":813:926   */\n    tag_457:\n        /* \"#utility.yul\":827:833   */\n      dup4\n        /* \"#utility.yul\":824:825   */\n      dup2\n        /* \"#utility.yul\":821:834   */\n      lt\n        /* \"#utility.yul\":813:926   */\n      iszero\n      tag_459\n      jumpi\n        /* \"#utility.yul\":912:913   */\n      dup1\n        /* \"#utility.yul\":907:910   */\n      dup3\n        /* \"#utility.yul\":903:914   */\n      add\n        /* \"#utility.yul\":897:915   */\n      mload\n        /* \"#utility.yul\":893:894   */\n      dup2\n        /* \"#utility.yul\":888:891   */\n      dup5\n        /* \"#utility.yul\":884:895   */\n      add\n        /* \"#utility.yul\":877:916   */\n      mstore\n        /* \"#utility.yul\":849:851   */\n      0x20\n        /* \"#utility.yul\":846:847   */\n      dup2\n        /* \"#utility.yul\":842:852   */\n      add\n        /* \"#utility.yul\":837:852   */\n      swap1\n      pop\n        /* \"#utility.yul\":813:926   */\n      jump(tag_457)\n    tag_459:\n        /* \"#utility.yul\":960:961   */\n      0x00\n        /* \"#utility.yul\":951:957   */\n      dup5\n        /* \"#utility.yul\":946:949   */\n      dup5\n        /* \"#utility.yul\":942:958   */\n      add\n        /* \"#utility.yul\":935:962   */\n      mstore\n        /* \"#utility.yul\":784:968   */\n      pop\n        /* \"#utility.yul\":722:968   */\n      pop\n      pop\n      pop\n      jump\t// out\n        /* \"#utility.yul\":974:1076   */\n    tag_383:\n        /* \"#utility.yul\":1015:1021   */\n      0x00\n        /* \"#utility.yul\":1066:1068   */\n      0x1f\n        /* \"#utility.yul\":1062:1069   */\n      not\n        /* \"#utility.yul\":1057:1059   */\n      0x1f\n        /* \"#utility.yul\":1050:1055   */\n      dup4\n        /* \"#utility.yul\":1046:1060   */\n      add\n        /* \"#utility.yul\":1042:1070   */\n      and\n        /* \"#utility.yul\":1032:1070   */\n      swap1\n      pop\n        /* \"#utility.yul\":974:1076   */\n      swap2\n      swap1\n      pop\n      jump\t// out\n        /* \"#utility.yul\":1082:1459   */\n    tag_384:\n        /* \"#utility.yul\":1170:1173   */\n      0x00\n        /* \"#utility.yul\":1198:1237   */\n      tag_462\n        /* \"#utility.yul\":1231:1236   */\n      dup3\n        /* \"#utility.yul\":1198:1237   */\n      tag_380\n      jump\t// in\n    tag_462:\n        /* \"#utility.yul\":1253:1324   */\n      tag_463\n        /* \"#utility.yul\":1317:1323   */\n      dup2\n        /* \"#utility.yul\":1312:1315   */\n      dup6\n        /* \"#utility.yul\":1253:1324   */\n      tag_381\n      jump\t// in\n    tag_463:\n        /* \"#utility.yul\":1246:1324   */\n      swap4\n      pop\n        /* \"#utility.yul\":1333:1398   */\n      tag_464\n        /* \"#utility.yul\":1391:1397   */\n      dup2\n        /* \"#utility.yul\":1386:1389   */\n      dup6\n        /* \"#utility.yul\":1379:1383   */\n      0x20\n        /* \"#utility.yul\":1372:1377   */\n      dup7\n        /* \"#utility.yul\":1368:1384   */\n      add\n        /* \"#utility.yul\":1333:1398   */\n      tag_382\n      jump\t// in\n    tag_464:\n        /* \"#utility.yul\":1423:1452   */\n      tag_465\n        /* \"#utility.yul\":1445:1451   */\n      dup2\n        /* \"#utility.yul\":1423:1452   */\n      tag_383\n      jump\t// in\n    tag_465:\n        /* \"#utility.yul\":1418:1421   */\n      dup5\n        /* \"#utility.yul\":1414:1453   */\n      add\n        /* \"#utility.yul\":1407:1453   */\n      swap2\n      pop\n        /* \"#utility.yul\":1174:1459   */\n      pop\n        /* \"#utility.yul\":1082:1459   */\n      swap3\n      swap2\n      pop\n      pop\n      jump\t// out\n        /* \"#utility.yul\":1465:1778   */\n    tag_53:\n        /* \"#utility.yul\":1578:1582   */\n      0x00\n        /* \"#utility.yul\":1616:1618   */\n      0x20\n        /* \"#utility.yul\":1605:1614   */\n      dup3\n        /* \"#utility.yul\":1601:1619   */\n      add\n        /* \"#utility.yul\":1593:1619   */\n      swap1\n      pop\n        /* \"#utility.yul\":1665:1674   */\n      dup2\n        /* \"#utility.yul\":1659:1663   */\n      dup2\n        /* \"#utility.yul\":1655:1675   */\n      sub\n        /* \"#utility.yul\":1651:1652   */\n      0x00\n        /* \"#utility.yul\":1640:1649   */\n      dup4\n        /* \"#utility.yul\":1636:1653   */\n      add\n        /* \"#utility.yul\":1629:1676   */\n      mstore\n        /* \"#utility.yul\":1693:1771   */\n      tag_467\n        /* \"#utility.yul\":1766:1770   */\n      dup2\n        /* \"#utility.yul\":1757:1763   */\n      dup5\n        /* \"#utility.yul\":1693:1771   */\n      tag_384\n      jump\t// in\n    tag_467:\n        /* \"#utility.yul\":1685:1771   */\n      swap1\n      pop\n        /* \"#utility.yul\":1465:1778   */\n      swap3\n      swap2\n      pop\n      pop\n      jump\t// out\n        /* \"#utility.yul\":1865:1982   */\n    tag_386:\n        /* \"#utility.yul\":1974:1975   */\n      0x00\n        /* \"#utility.yul\":1971:1972   */\n      dup1\n        /* \"#utility.yul\":1964:1976   */\n      revert\n        /* \"#utility.yul\":2111:2237   */\n    tag_388:\n        /* \"#utility.yul\":2148:2155   */\n      0x00\n        /* \"#utility.yul\":2188:2230   */\n      0xffffffffffffffffffffffffffffffffffffffff\n        /* \"#utility.yul\":2181:2186   */\n      dup3\n        /* \"#utility.yul\":2177:2231   */\n      and\n        /* \"#utility.yul\":2166:2231   */\n      swap1\n      pop\n        /* \"#utility.yul\":2111:2237   */\n      swap2\n      swap1\n      pop\n      jump\t// out\n        /* \"#utility.yul\":2243:2339   */\n    tag_389:\n        /* \"#utility.yul\":2280:2287   */\n      0x00\n        /* \"#utility.yul\":2309:2333   */\n      tag_473\n        /* \"#utility.yul\":2327:2332   */\n      dup3\n        /* \"#utility.yul\":2309:2333   */\n      tag_388\n      jump\t// in\n    tag_473:\n        /* \"#utility.yul\":2298:2333   */\n      swap1\n      pop\n        /* \"#utility.yul\":2243:2339   */\n      swap2\n      swap1\n      pop\n      jump\t// out\n        /* \"#utility.yul\":2345:2467   */\n    tag_390:\n        /* \"#utility.yul\":2418:2442   */\n      tag_475\n        /* \"#utility.yul\":2436:2441   */\n      dup2\n        /* \"#utility.yul\":2418:2442   */\n      tag_389\n      jump\t// in\n    tag_475:\n        /* \"#utility.yul\":2411:2416   */\n      dup2\n        /* \"#utility.yul\":2408:2443   */\n      eq\n        /* \"#utility.yul\":2398:2461   */\n      tag_476\n      jumpi\n        /* \"#utility.yul\":2457:2458   */\n      0x00\n        /* \"#utility.yul\":2454:2455   */\n      dup1\n        /* \"#utility.yul\":2447:2459   */\n      revert\n        /* \"#utility.yul\":2398:2461   */\n    tag_476:\n        /* \"#utility.yul\":2345:2467   */\n      pop\n      jump\t// out\n        /* \"#utility.yul\":2473:2612   */\n    tag_391:\n        /* \"#utility.yul\":2519:2524   */\n      0x00\n        /* \"#utility.yul\":2557:2563   */\n      dup2\n        /* \"#utility.yul\":2544:2564   */\n      calldataload\n        /* \"#utility.yul\":2535:2564   */\n      swap1\n      pop\n        /* \"#utility.yul\":2573:2606   */\n      tag_478\n        /* \"#utility.yul\":2600:2605   */\n      dup2\n        /* \"#utility.yul\":2573:2606   */\n      tag_390\n      jump\t// in\n    tag_478:\n        /* \"#utility.yul\":2473:2612   */\n      swap3\n      swap2\n      pop\n      pop\n      jump\t// out\n        /* \"#utility.yul\":2618:2740   */\n    tag_392:\n        /* \"#utility.yul\":2691:2715   */\n      tag_480\n        /* \"#utility.yul\":2709:2714   */\n      dup2\n        /* \"#utility.yul\":2691:2715   */\n      tag_378\n      jump\t// in\n    tag_480:\n        /* \"#utility.yul\":2684:2689   */\n      dup2\n        /* \"#utility.yul\":2681:2716   */\n      eq\n        /* \"#utility.yul\":2671:2734   */\n      tag_481\n      jumpi\n        /* \"#utility.yul\":2730:2731   */\n      0x00\n        /* \"#utility.yul\":2727:2728   */\n      dup1\n        /* \"#utility.yul\":2720:2732   */\n      revert\n        /* \"#utility.yul\":2671:2734   */\n    tag_481:\n        /* \"#utility.yul\":2618:2740   */\n      pop\n      jump\t// out\n        /* \"#utility.yul\":2746:2885   */\n    tag_393:\n        /* \"#utility.yul\":2792:2797   */\n      0x00\n        /* \"#utility.yul\":2830:2836   */\n      dup2\n        /* \"#utility.yul\":2817:2837   */\n      calldataload\n        /* \"#utility.yul\":2808:2837   */\n      swap1\n      pop\n        /* \"#utility.yul\":2846:2879   */\n      tag_483\n        /* \"#utility.yul\":2873:2878   */\n      dup2\n        /* \"#utility.yul\":2846:2879   */\n      tag_392\n      jump\t// in\n    tag_483:\n        /* \"#utility.yul\":2746:2885   */\n      swap3\n      swap2\n      pop\n      pop\n      jump\t// out\n        /* \"#utility.yul\":2891:3365   */\n    tag_57:\n        /* \"#utility.yul\":2959:2965   */\n      0x00\n        /* \"#utility.yul\":2967:2973   */\n      dup1\n        /* \"#utility.yul\":3016:3018   */\n      0x40\n        /* \"#utility.yul\":3004:3013   */\n      dup4\n        /* \"#utility.yul\":2995:3002   */\n      dup6\n        /* \"#utility.yul\":2991:3014   */\n      sub\n        /* \"#utility.yul\":2987:3019   */\n      slt\n        /* \"#utility.yul\":2984:3103   */\n      iszero\n      tag_485\n      jumpi\n        /* \"#utility.yul\":3022:3101   */\n      tag_486\n      tag_386\n      jump\t// in\n    tag_486:\n        /* \"#utility.yul\":2984:3103   */\n    tag_485:\n        /* \"#utility.yul\":3142:3143   */\n      0x00\n        /* \"#utility.yul\":3167:3220   */\n      tag_487\n        /* \"#utility.yul\":3212:3219   */\n      dup6\n        /* \"#utility.yul\":3203:3209   */\n      dup3\n        /* \"#utility.yul\":3192:3201   */\n      dup7\n        /* \"#utility.yul\":3188:3210   */\n      add\n        /* \"#utility.yul\":3167:3220   */\n      tag_391\n      jump\t// in\n    tag_487:\n        /* \"#utility.yul\":3157:3220   */\n      swap3\n      pop\n        /* \"#utility.yul\":3113:3230   */\n      pop\n        /* \"#utility.yul\":3269:3271   */\n      0x20\n        /* \"#utility.yul\":3295:3348   */\n      tag_488\n        /* \"#utility.yul\":3340:3347   */\n      dup6\n        /* \"#utility.yul\":3331:3337   */\n      dup3\n        /* \"#utility.yul\":3320:3329   */\n      dup7\n        /* \"#utility.yul\":3316:3338   */\n      add\n        /* \"#utility.yul\":3295:3348   */\n      tag_393\n      jump\t// in\n    tag_488:\n        /* \"#utility.yul\":3285:3348   */\n      swap2\n      pop\n        /* \"#utility.yul\":3240:3358   */\n      pop\n        /* \"#utility.yul\":2891:3365   */\n      swap3\n      pop\n      swap3\n      swap1\n      pop\n      jump\t// out\n        /* \"#utility.yul\":3371:3461   */\n    tag_394:\n        /* \"#utility.yul\":3405:3412   */\n      0x00\n        /* \"#utility.yul\":3448:3453   */\n      dup2\n        /* \"#utility.yul\":3441:3454   */\n      iszero\n        /* \"#utility.yul\":3434:3455   */\n      iszero\n        /* \"#utility.yul\":3423:3455   */\n      swap1\n      pop\n        /* \"#utility.yul\":3371:3461   */\n      swap2\n      swap1\n      pop\n      jump\t// out\n        /* \"#utility.yul\":3467:3576   */\n    tag_395:\n        /* \"#utility.yul\":3548:3569   */\n      tag_491\n        /* \"#utility.yul\":3563:3568   */\n      dup2\n        /* \"#utility.yul\":3548:3569   */\n      tag_394\n      jump\t// in\n    tag_491:\n        /* \"#utility.yul\":3543:3546   */\n      dup3\n        /* \"#utility.yul\":3536:3570   */\n      mstore\n        /* \"#utility.yul\":3467:3576   */\n      pop\n      pop\n      jump\t// out\n        /* \"#utility.yul\":3582:3792   */\n    tag_60:\n        /* \"#utility.yul\":3669:3673   */\n      0x00\n        /* \"#utility.yul\":3707:3709   */\n      0x20\n        /* \"#utility.yul\":3696:3705   */\n      dup3\n        /* \"#utility.yul\":3692:3710   */\n      add\n        /* \"#utility.yul\":3684:3710   */\n      swap1\n      pop\n        /* \"#utility.yul\":3720:3785   */\n      tag_493\n        /* \"#utility.yul\":3782:3783   */\n      0x00\n        /* \"#utility.yul\":3771:3780   */\n      dup4\n        /* \"#utility.yul\":3767:3784   */\n      add\n        /* \"#utility.yul\":3758:3764   */\n      dup5\n        /* \"#utility.yul\":3720:3785   */\n      tag_395\n      jump\t// in\n    tag_493:\n        /* \"#utility.yul\":3582:3792   */\n      swap3\n      swap2\n      pop\n      pop\n      jump\t// out\n        /* \"#utility.yul\":3798:4417   */\n    tag_68:\n        /* \"#utility.yul\":3875:3881   */\n      0x00\n        /* \"#utility.yul\":3883:3889   */\n      dup1\n        /* \"#utility.yul\":3891:3897   */\n      0x00\n        /* \"#utility.yul\":3940:3942   */\n      0x60\n        /* \"#utility.yul\":3928:3937   */\n      dup5\n        /* \"#utility.yul\":3919:3926   */\n      dup7\n        /* \"#utility.yul\":3915:3938   */\n      sub\n        /* \"#utility.yul\":3911:3943   */\n      slt\n        /* \"#utility.yul\":3908:4027   */\n      iszero\n      tag_495\n      jumpi\n        /* \"#utility.yul\":3946:4025   */\n      tag_496\n      tag_386\n      jump\t// in\n    tag_496:\n        /* \"#utility.yul\":3908:4027   */\n    tag_495:\n        /* \"#utility.yul\":4066:4067   */\n      0x00\n        /* \"#utility.yul\":4091:4144   */\n      tag_497\n        /* \"#utility.yul\":4136:4143   */\n      dup7\n        /* \"#utility.yul\":4127:4133   */\n      dup3\n        /* \"#utility.yul\":4116:4125   */\n      dup8\n        /* \"#utility.yul\":4112:4134   */\n      add\n        /* \"#utility.yul\":4091:4144   */\n      tag_391\n      jump\t// in\n    tag_497:\n        /* \"#utility.yul\":4081:4144   */\n      swap4\n      pop\n        /* \"#utility.yul\":4037:4154   */\n      pop\n        /* \"#utility.yul\":4193:4195   */\n      0x20\n        /* \"#utility.yul\":4219:4272   */\n      tag_498\n        /* \"#utility.yul\":4264:4271   */\n      dup7\n        /* \"#utility.yul\":4255:4261   */\n      dup3\n        /* \"#utility.yul\":4244:4253   */\n      dup8\n        /* \"#utility.yul\":4240:4262   */\n      add\n        /* \"#utility.yul\":4219:4272   */\n      tag_391\n      jump\t// in\n    tag_498:\n        /* \"#utility.yul\":4209:4272   */\n      swap3\n      pop\n        /* \"#utility.yul\":4164:4282   */\n      pop\n        /* \"#utility.yul\":4321:4323   */\n      0x40\n        /* \"#utility.yul\":4347:4400   */\n      tag_499\n        /* \"#utility.yul\":4392:4399   */\n      dup7\n        /* \"#utility.yul\":4383:4389   */\n      dup3\n        /* \"#utility.yul\":4372:4381   */\n      dup8\n        /* \"#utility.yul\":4368:4390   */\n      add\n        /* \"#utility.yul\":4347:4400   */\n      tag_393\n      jump\t// in\n    tag_499:\n        /* \"#utility.yul\":4337:4400   */\n      swap2\n      pop\n        /* \"#utility.yul\":4292:4410   */\n      pop\n        /* \"#utility.yul\":3798:4417   */\n      swap3\n      pop\n      swap3\n      pop\n      swap3\n      jump\t// out\n        /* \"#utility.yul\":4423:4752   */\n    tag_74:\n        /* \"#utility.yul\":4482:4488   */\n      0x00\n        /* \"#utility.yul\":4531:4533   */\n      0x20\n        /* \"#utility.yul\":4519:4528   */\n      dup3\n        /* \"#utility.yul\":4510:4517   */\n      dup5\n        /* \"#utility.yul\":4506:4529   */\n      sub\n        /* \"#utility.yul\":4502:4534   */\n      slt\n        /* \"#utility.yul\":4499:4618   */\n      iszero\n      tag_501\n      jumpi\n        /* \"#utility.yul\":4537:4616   */\n      tag_502\n      tag_386\n      jump\t// in\n    tag_502:\n        /* \"#utility.yul\":4499:4618   */\n    tag_501:\n        /* \"#utility.yul\":4657:4658   */\n      0x00\n        /* \"#utility.yul\":4682:4735   */\n      tag_503\n        /* \"#utility.yul\":4727:4734   */\n      dup5\n        /* \"#utility.yul\":4718:4724   */\n      dup3\n        /* \"#utility.yul\":4707:4716   */\n      dup6\n        /* \"#utility.yul\":4703:4725   */\n      add\n        /* \"#utility.yul\":4682:4735   */\n      tag_391\n      jump\t// in\n    tag_503:\n        /* \"#utility.yul\":4672:4735   */\n      swap2\n      pop\n        /* \"#utility.yul\":4628:4745   */\n      pop\n        /* \"#utility.yul\":4423:4752   */\n      swap3\n      swap2\n      pop\n      pop\n      jump\t// out\n        /* \"#utility.yul\":4758:5087   */\n    tag_80:\n        /* \"#utility.yul\":4817:4823   */\n      0x00\n        /* \"#utility.yul\":4866:4868   */\n      0x20\n        /* \"#utility.yul\":4854:4863   */\n      dup3\n        /* \"#utility.yul\":4845:4852   */\n      dup5\n        /* \"#utility.yul\":4841:4864   */\n      sub\n        /* \"#utility.yul\":4837:4869   */\n      slt\n        /* \"#utility.yul\":4834:4953   */\n      iszero\n      tag_505\n      jumpi\n        /* \"#utility.yul\":4872:4951   */\n      tag_506\n      tag_386\n      jump\t// in\n    tag_506:\n        /* \"#utility.yul\":4834:4953   */\n    tag_505:\n        /* \"#utility.yul\":4992:4993   */\n      0x00\n        /* \"#utility.yul\":5017:5070   */\n      tag_507\n        /* \"#utility.yul\":5062:5069   */\n      dup5\n        /* \"#utility.yul\":5053:5059   */\n      dup3\n        /* \"#utility.yul\":5042:5051   */\n      dup6\n        /* \"#utility.yul\":5038:5060   */\n      add\n        /* \"#utility.yul\":5017:5070   */\n      tag_393\n      jump\t// in\n    tag_507:\n        /* \"#utility.yul\":5007:5070   */\n      swap2\n      pop\n        /* \"#utility.yul\":4963:5080   */\n      pop\n        /* \"#utility.yul\":4758:5087   */\n      swap3\n      swap2\n      pop\n      pop\n      jump\t// out\n        /* \"#utility.yul\":5093:5179   */\n    tag_396:\n        /* \"#utility.yul\":5128:5135   */\n      0x00\n        /* \"#utility.yul\":5168:5172   */\n      0xff\n        /* \"#utility.yul\":5161:5166   */\n      dup3\n        /* \"#utility.yul\":5157:5173   */\n      and\n        /* \"#utility.yul\":5146:5173   */\n      swap1\n      pop\n        /* \"#utility.yul\":5093:5179   */\n      swap2\n      swap1\n      pop\n      jump\t// out\n        /* \"#utility.yul\":5185:5297   */\n    tag_397:\n        /* \"#utility.yul\":5268:5290   */\n      tag_510\n        /* \"#utility.yul\":5284:5289   */\n      dup2\n        /* \"#utility.yul\":5268:5290   */\n      tag_396\n      jump\t// in\n    tag_510:\n        /* \"#utility.yul\":5263:5266   */\n      dup3\n        /* \"#utility.yul\":5256:5291   */\n      mstore\n        /* \"#utility.yul\":5185:5297   */\n      pop\n      pop\n      jump\t// out\n        /* \"#utility.yul\":5303:5517   */\n    tag_86:\n        /* \"#utility.yul\":5392:5396   */\n      0x00\n        /* \"#utility.yul\":5430:5432   */\n      0x20\n        /* \"#utility.yul\":5419:5428   */\n      dup3\n        /* \"#utility.yul\":5415:5433   */\n      add\n        /* \"#utility.yul\":5407:5433   */\n      swap1\n      pop\n        /* \"#utility.yul\":5443:5510   */\n      tag_512\n        /* \"#utility.yul\":5507:5508   */\n      0x00\n        /* \"#utility.yul\":5496:5505   */\n      dup4\n        /* \"#utility.yul\":5492:5509   */\n      add\n        /* \"#utility.yul\":5483:5489   */\n      dup5\n        /* \"#utility.yul\":5443:5510   */\n      tag_397\n      jump\t// in\n    tag_512:\n        /* \"#utility.yul\":5303:5517   */\n      swap3\n      swap2\n      pop\n      pop\n      jump\t// out\n        /* \"#utility.yul\":5523:5641   */\n    tag_398:\n        /* \"#utility.yul\":5610:5634   */\n      tag_514\n        /* \"#utility.yul\":5628:5633   */\n      dup2\n        /* \"#utility.yul\":5610:5634   */\n      tag_389\n      jump\t// in\n    tag_514:\n        /* \"#utility.yul\":5605:5608   */\n      dup3\n        /* \"#utility.yul\":5598:5635   */\n      mstore\n        /* \"#utility.yul\":5523:5641   */\n      pop\n      pop\n      jump\t// out\n        /* \"#utility.yul\":5647:5869   */\n    tag_91:\n        /* \"#utility.yul\":5740:5744   */\n      0x00\n        /* \"#utility.yul\":5778:5780   */\n      0x20\n        /* \"#utility.yul\":5767:5776   */\n      dup3\n        /* \"#utility.yul\":5763:5781   */\n      add\n        /* \"#utility.yul\":5755:5781   */\n      swap1\n      pop\n        /* \"#utility.yul\":5791:5862   */\n      tag_516\n        /* \"#utility.yul\":5859:5860   */\n      0x00\n        /* \"#utility.yul\":5848:5857   */\n      dup4\n        /* \"#utility.yul\":5844:5861   */\n      add\n        /* \"#utility.yul\":5835:5841   */\n      dup5\n        /* \"#utility.yul\":5791:5862   */\n      tag_398\n      jump\t// in\n    tag_516:\n        /* \"#utility.yul\":5647:5869   */\n      swap3\n      swap2\n      pop\n      pop\n      jump\t// out\n        /* \"#utility.yul\":5875:5935   */\n    tag_399:\n        /* \"#utility.yul\":5903:5906   */\n      0x00\n        /* \"#utility.yul\":5924:5929   */\n      dup2\n        /* \"#utility.yul\":5917:5929   */\n      swap1\n      pop\n        /* \"#utility.yul\":5875:5935   */\n      swap2\n      swap1\n      pop\n      jump\t// out\n        /* \"#utility.yul\":5941:6083   */\n    tag_400:\n        /* \"#utility.yul\":5991:6000   */\n      0x00\n        /* \"#utility.yul\":6024:6077   */\n      tag_519\n        /* \"#utility.yul\":6042:6076   */\n      tag_520\n        /* \"#utility.yul\":6051:6075   */\n      tag_521\n        /* \"#utility.yul\":6069:6074   */\n      dup5\n        /* \"#utility.yul\":6051:6075   */\n      tag_388\n      jump\t// in\n    tag_521:\n        /* \"#utility.yul\":6042:6076   */\n      tag_399\n      jump\t// in\n    tag_520:\n        /* \"#utility.yul\":6024:6077   */\n      tag_388\n      jump\t// in\n    tag_519:\n        /* \"#utility.yul\":6011:6077   */\n      swap1\n      pop\n        /* \"#utility.yul\":5941:6083   */\n      swap2\n      swap1\n      pop\n      jump\t// out\n        /* \"#utility.yul\":6089:6215   */\n    tag_401:\n        /* \"#utility.yul\":6139:6148   */\n      0x00\n        /* \"#utility.yul\":6172:6209   */\n      tag_523\n        /* \"#utility.yul\":6203:6208   */\n      dup3\n        /* \"#utility.yul\":6172:6209   */\n      tag_400\n      jump\t// in\n    tag_523:\n        /* \"#utility.yul\":6159:6209   */\n      swap1\n      pop\n        /* \"#utility.yul\":6089:6215   */\n      swap2\n      swap1\n      pop\n      jump\t// out\n        /* \"#utility.yul\":6221:6364   */\n    tag_402:\n        /* \"#utility.yul\":6288:6297   */\n      0x00\n        /* \"#utility.yul\":6321:6358   */\n      tag_525\n        /* \"#utility.yul\":6352:6357   */\n      dup3\n        /* \"#utility.yul\":6321:6358   */\n      tag_401\n      jump\t// in\n    tag_525:\n        /* \"#utility.yul\":6308:6358   */\n      swap1\n      pop\n        /* \"#utility.yul\":6221:6364   */\n      swap2\n      swap1\n      pop\n      jump\t// out\n        /* \"#utility.yul\":6370:6535   */\n    tag_403:\n        /* \"#utility.yul\":6474:6528   */\n      tag_527\n        /* \"#utility.yul\":6522:6527   */\n      dup2\n        /* \"#utility.yul\":6474:6528   */\n      tag_402\n      jump\t// in\n    tag_527:\n        /* \"#utility.yul\":6469:6472   */\n      dup3\n        /* \"#utility.yul\":6462:6529   */\n      mstore\n        /* \"#utility.yul\":6370:6535   */\n      pop\n      pop\n      jump\t// out\n        /* \"#utility.yul\":6541:6797   */\n    tag_162:\n        /* \"#utility.yul\":6651:6655   */\n      0x00\n        /* \"#utility.yul\":6689:6691   */\n      0x20\n        /* \"#utility.yul\":6678:6687   */\n      dup3\n        /* \"#utility.yul\":6674:6692   */\n      add\n        /* \"#utility.yul\":6666:6692   */\n      swap1\n      pop\n        /* \"#utility.yul\":6702:6790   */\n      tag_529\n        /* \"#utility.yul\":6787:6788   */\n      0x00\n        /* \"#utility.yul\":6776:6785   */\n      dup4\n        /* \"#utility.yul\":6772:6789   */\n      add\n        /* \"#utility.yul\":6763:6769   */\n      dup5\n        /* \"#utility.yul\":6702:6790   */\n      tag_403\n      jump\t// in\n    tag_529:\n        /* \"#utility.yul\":6541:6797   */\n      swap3\n      swap2\n      pop\n      pop\n      jump\t// out\n        /* \"#utility.yul\":6803:7277   */\n    tag_178:\n        /* \"#utility.yul\":6871:6877   */\n      0x00\n        /* \"#utility.yul\":6879:6885   */\n      dup1\n        /* \"#utility.yul\":6928:6930   */\n      0x40\n        /* \"#utility.yul\":6916:6925   */\n      dup4\n        /* \"#utility.yul\":6907:6914   */\n      dup6\n        /* \"#utility.yul\":6903:6926   */\n      sub\n        /* \"#utility.yul\":6899:6931   */\n      slt\n        /* \"#utility.yul\":6896:7015   */\n      iszero\n      tag_531\n      jumpi\n        /* \"#utility.yul\":6934:7013   */\n      tag_532\n      tag_386\n      jump\t// in\n    tag_532:\n        /* \"#utility.yul\":6896:7015   */\n    tag_531:\n        /* \"#utility.yul\":7054:7055   */\n      0x00\n        /* \"#utility.yul\":7079:7132   */\n      tag_533\n        /* \"#utility.yul\":7124:7131   */\n      dup6\n        /* \"#utility.yul\":7115:7121   */\n      dup3\n        /* \"#utility.yul\":7104:7113   */\n      dup7\n        /* \"#utility.yul\":7100:7122   */\n      add\n        /* \"#utility.yul\":7079:7132   */\n      tag_391\n      jump\t// in\n    tag_533:\n        /* \"#utility.yul\":7069:7132   */\n      swap3\n      pop\n        /* \"#utility.yul\":7025:7142   */\n      pop\n        /* \"#utility.yul\":7181:7183   */\n      0x20\n        /* \"#utility.yul\":7207:7260   */\n      tag_534\n        /* \"#utility.yul\":7252:7259   */\n      dup6\n        /* \"#utility.yul\":7243:7249   */\n      dup3\n        /* \"#utility.yul\":7232:7241   */\n      dup7\n        /* \"#utility.yul\":7228:7250   */\n      add\n        /* \"#utility.yul\":7207:7260   */\n      tag_391\n      jump\t// in\n    tag_534:\n        /* \"#utility.yul\":7197:7260   */\n      swap2\n      pop\n        /* \"#utility.yul\":7152:7270   */\n      pop\n        /* \"#utility.yul\":6803:7277   */\n      swap3\n      pop\n      swap3\n      swap1\n      pop\n      jump\t// out\n        /* \"#utility.yul\":7283:7463   */\n    tag_404:\n        /* \"#utility.yul\":7331:7408   */\n      0x4e487b7100000000000000000000000000000000000000000000000000000000\n        /* \"#utility.yul\":7328:7329   */\n      0x00\n        /* \"#utility.yul\":7321:7409   */\n      mstore\n        /* \"#utility.yul\":7428:7432   */\n      0x11\n        /* \"#utility.yul\":7425:7426   */\n      0x04\n        /* \"#utility.yul\":7418:7433   */\n      mstore\n        /* \"#utility.yul\":7452:7456   */\n      0x24\n        /* \"#utility.yul\":7449:7450   */\n      0x00\n        /* \"#utility.yul\":7442:7457   */\n      revert\n        /* \"#utility.yul\":7469:7663   */\n    tag_198:\n        /* \"#utility.yul\":7509:7513   */\n      0x00\n        /* \"#utility.yul\":7529:7549   */\n      tag_537\n        /* \"#utility.yul\":7547:7548   */\n      dup3\n        /* \"#utility.yul\":7529:7549   */\n      tag_378\n      jump\t// in\n    tag_537:\n        /* \"#utility.yul\":7524:7549   */\n      swap2\n      pop\n        /* \"#utility.yul\":7563:7583   */\n      tag_538\n        /* \"#utility.yul\":7581:7582   */\n      dup4\n        /* \"#utility.yul\":7563:7583   */\n      tag_378\n      jump\t// in\n    tag_538:\n        /* \"#utility.yul\":7558:7583   */\n      swap3\n      pop\n        /* \"#utility.yul\":7607:7608   */\n      dup3\n        /* \"#utility.yul\":7604:7605   */\n      dup3\n        /* \"#utility.yul\":7600:7609   */\n      sub\n        /* \"#utility.yul\":7592:7609   */\n      swap1\n      pop\n        /* \"#utility.yul\":7631:7632   */\n      dup2\n        /* \"#utility.yul\":7625:7629   */\n      dup2\n        /* \"#utility.yul\":7622:7633   */\n      gt\n        /* \"#utility.yul\":7619:7656   */\n      iszero\n      tag_539\n      jumpi\n        /* \"#utility.yul\":7636:7654   */\n      tag_540\n      tag_404\n      jump\t// in\n    tag_540:\n        /* \"#utility.yul\":7619:7656   */\n    tag_539:\n        /* \"#utility.yul\":7469:7663   */\n      swap3\n      swap2\n      pop\n      pop\n      jump\t// out\n        /* \"#utility.yul\":7669:7904   */\n    tag_405:\n        /* \"#utility.yul\":7809:7843   */\n      0x4f6e6c7920417574686f726973656420616464726573732063616e206d6f6469\n        /* \"#utility.yul\":7805:7806   */\n      0x00\n        /* \"#utility.yul\":7797:7803   */\n      dup3\n        /* \"#utility.yul\":7793:7807   */\n      add\n        /* \"#utility.yul\":7786:7844   */\n      mstore\n        /* \"#utility.yul\":7878:7896   */\n      0x667920746865204a617265646665652100000000000000000000000000000000\n        /* \"#utility.yul\":7873:7875   */\n      0x20\n        /* \"#utility.yul\":7865:7871   */\n      dup3\n        /* \"#utility.yul\":7861:7876   */\n      add\n        /* \"#utility.yul\":7854:7897   */\n      mstore\n        /* \"#utility.yul\":7669:7904   */\n      pop\n      jump\t// out\n        /* \"#utility.yul\":7910:8276   */\n    tag_406:\n        /* \"#utility.yul\":8052:8055   */\n      0x00\n        /* \"#utility.yul\":8073:8140   */\n      tag_543\n        /* \"#utility.yul\":8137:8139   */\n      0x30\n        /* \"#utility.yul\":8132:8135   */\n      dup4\n        /* \"#utility.yul\":8073:8140   */\n      tag_381\n      jump\t// in\n    tag_543:\n        /* \"#utility.yul\":8066:8140   */\n      swap2\n      pop\n        /* \"#utility.yul\":8149:8242   */\n      tag_544\n        /* \"#utility.yul\":8238:8241   */\n      dup3\n        /* \"#utility.yul\":8149:8242   */\n      tag_405\n      jump\t// in\n    tag_544:\n        /* \"#utility.yul\":8267:8269   */\n      0x40\n        /* \"#utility.yul\":8262:8265   */\n      dup3\n        /* \"#utility.yul\":8258:8270   */\n      add\n        /* \"#utility.yul\":8251:8270   */\n      swap1\n      pop\n        /* \"#utility.yul\":7910:8276   */\n      swap2\n      swap1\n      pop\n      jump\t// out\n        /* \"#utility.yul\":8282:8701   */\n    tag_205:\n        /* \"#utility.yul\":8448:8452   */\n      0x00\n        /* \"#utility.yul\":8486:8488   */\n      0x20\n        /* \"#utility.yul\":8475:8484   */\n      dup3\n        /* \"#utility.yul\":8471:8489   */\n      add\n        /* \"#utility.yul\":8463:8489   */\n      swap1\n      pop\n        /* \"#utility.yul\":8535:8544   */\n      dup2\n        /* \"#utility.yul\":8529:8533   */\n      dup2\n        /* \"#utility.yul\":8525:8545   */\n      sub\n        /* \"#utility.yul\":8521:8522   */\n      0x00\n        /* \"#utility.yul\":8510:8519   */\n      dup4\n        /* \"#utility.yul\":8506:8523   */\n      add\n        /* \"#utility.yul\":8499:8546   */\n      mstore\n        /* \"#utility.yul\":8563:8694   */\n      tag_546\n        /* \"#utility.yul\":8689:8693   */\n      dup2\n        /* \"#utility.yul\":8563:8694   */\n      tag_406\n      jump\t// in\n    tag_546:\n        /* \"#utility.yul\":8555:8694   */\n      swap1\n      pop\n        /* \"#utility.yul\":8282:8701   */\n      swap2\n      swap1\n      pop\n      jump\t// out\n        /* \"#utility.yul\":8707:8875   */\n    tag_407:\n        /* \"#utility.yul\":8847:8867   */\n      0x466565206d757374206265203c3d203130300000000000000000000000000000\n        /* \"#utility.yul\":8843:8844   */\n      0x00\n        /* \"#utility.yul\":8835:8841   */\n      dup3\n        /* \"#utility.yul\":8831:8845   */\n      add\n        /* \"#utility.yul\":8824:8868   */\n      mstore\n        /* \"#utility.yul\":8707:8875   */\n      pop\n      jump\t// out\n        /* \"#utility.yul\":8881:9247   */\n    tag_408:\n        /* \"#utility.yul\":9023:9026   */\n      0x00\n        /* \"#utility.yul\":9044:9111   */\n      tag_549\n        /* \"#utility.yul\":9108:9110   */\n      0x12\n        /* \"#utility.yul\":9103:9106   */\n      dup4\n        /* \"#utility.yul\":9044:9111   */\n      tag_381\n      jump\t// in\n    tag_549:\n        /* \"#utility.yul\":9037:9111   */\n      swap2\n      pop\n        /* \"#utility.yul\":9120:9213   */\n      tag_550\n        /* \"#utility.yul\":9209:9212   */\n      dup3\n        /* \"#utility.yul\":9120:9213   */\n      tag_407\n      jump\t// in\n    tag_550:\n        /* \"#utility.yul\":9238:9240   */\n      0x20\n        /* \"#utility.yul\":9233:9236   */\n      dup3\n        /* \"#utility.yul\":9229:9241   */\n      add\n        /* \"#utility.yul\":9222:9241   */\n      swap1\n      pop\n        /* \"#utility.yul\":8881:9247   */\n      swap2\n      swap1\n      pop\n      jump\t// out\n        /* \"#utility.yul\":9253:9672   */\n    tag_208:\n        /* \"#utility.yul\":9419:9423   */\n      0x00\n        /* \"#utility.yul\":9457:9459   */\n      0x20\n        /* \"#utility.yul\":9446:9455   */\n      dup3\n        /* \"#utility.yul\":9442:9460   */\n      add\n        /* \"#utility.yul\":9434:9460   */\n      swap1\n      pop\n        /* \"#utility.yul\":9506:9515   */\n      dup2\n        /* \"#utility.yul\":9500:9504   */\n      dup2\n        /* \"#utility.yul\":9496:9516   */\n      sub\n        /* \"#utility.yul\":9492:9493   */\n      0x00\n        /* \"#utility.yul\":9481:9490   */\n      dup4\n        /* \"#utility.yul\":9477:9494   */\n      add\n        /* \"#utility.yul\":9470:9517   */\n      mstore\n        /* \"#utility.yul\":9534:9665   */\n      tag_552\n        /* \"#utility.yul\":9660:9664   */\n      dup2\n        /* \"#utility.yul\":9534:9665   */\n      tag_408\n      jump\t// in\n    tag_552:\n        /* \"#utility.yul\":9526:9665   */\n      swap1\n      pop\n        /* \"#utility.yul\":9253:9672   */\n      swap2\n      swap1\n      pop\n      jump\t// out\n        /* \"#utility.yul\":9678:9902   */\n    tag_409:\n        /* \"#utility.yul\":9818:9852   */\n      0x43616c6c6572206973206e6f742074686520617574686f726973656420616464\n        /* \"#utility.yul\":9814:9815   */\n      0x00\n        /* \"#utility.yul\":9806:9812   */\n      dup3\n        /* \"#utility.yul\":9802:9816   */\n      add\n        /* \"#utility.yul\":9795:9853   */\n      mstore\n        /* \"#utility.yul\":9887:9894   */\n      0x7265737321000000000000000000000000000000000000000000000000000000\n        /* \"#utility.yul\":9882:9884   */\n      0x20\n        /* \"#utility.yul\":9874:9880   */\n      dup3\n        /* \"#utility.yul\":9870:9885   */\n      add\n        /* \"#utility.yul\":9863:9895   */\n      mstore\n        /* \"#utility.yul\":9678:9902   */\n      pop\n      jump\t// out\n        /* \"#utility.yul\":9908:10274   */\n    tag_410:\n        /* \"#utility.yul\":10050:10053   */\n      0x00\n        /* \"#utility.yul\":10071:10138   */\n      tag_555\n        /* \"#utility.yul\":10135:10137   */\n      0x25\n        /* \"#utility.yul\":10130:10133   */\n      dup4\n        /* \"#utility.yul\":10071:10138   */\n      tag_381\n      jump\t// in\n    tag_555:\n        /* \"#utility.yul\":10064:10138   */\n      swap2\n      pop\n        /* \"#utility.yul\":10147:10240   */\n      tag_556\n        /* \"#utility.yul\":10236:10239   */\n      dup3\n        /* \"#utility.yul\":10147:10240   */\n      tag_409\n      jump\t// in\n    tag_556:\n        /* \"#utility.yul\":10265:10267   */\n      0x40\n        /* \"#utility.yul\":10260:10263   */\n      dup3\n        /* \"#utility.yul\":10256:10268   */\n      add\n        /* \"#utility.yul\":10249:10268   */\n      swap1\n      pop\n        /* \"#utility.yul\":9908:10274   */\n      swap2\n      swap1\n      pop\n      jump\t// out\n        /* \"#utility.yul\":10280:10699   */\n    tag_214:\n        /* \"#utility.yul\":10446:10450   */\n      0x00\n        /* \"#utility.yul\":10484:10486   */\n      0x20\n        /* \"#utility.yul\":10473:10482   */\n      dup3\n        /* \"#utility.yul\":10469:10487   */\n      add\n        /* \"#utility.yul\":10461:10487   */\n      swap1\n      pop\n        /* \"#utility.yul\":10533:10542   */\n      dup2\n        /* \"#utility.yul\":10527:10531   */\n      dup2\n        /* \"#utility.yul\":10523:10543   */\n      sub\n        /* \"#utility.yul\":10519:10520   */\n      0x00\n        /* \"#utility.yul\":10508:10517   */\n      dup4\n        /* \"#utility.yul\":10504:10521   */\n      add\n        /* \"#utility.yul\":10497:10544   */\n      mstore\n        /* \"#utility.yul\":10561:10692   */\n      tag_558\n        /* \"#utility.yul\":10687:10691   */\n      dup2\n        /* \"#utility.yul\":10561:10692   */\n      tag_410\n      jump\t// in\n    tag_558:\n        /* \"#utility.yul\":10553:10692   */\n      swap1\n      pop\n        /* \"#utility.yul\":10280:10699   */\n      swap2\n      swap1\n      pop\n      jump\t// out\n        /* \"#utility.yul\":10705:10876   */\n    tag_411:\n        /* \"#utility.yul\":10845:10868   */\n      0x416d6f756e74206d757374206265203e3d203130300000000000000000000000\n        /* \"#utility.yul\":10841:10842   */\n      0x00\n        /* \"#utility.yul\":10833:10839   */\n      dup3\n        /* \"#utility.yul\":10829:10843   */\n      add\n        /* \"#utility.yul\":10822:10869   */\n      mstore\n        /* \"#utility.yul\":10705:10876   */\n      pop\n      jump\t// out\n        /* \"#utility.yul\":10882:11248   */\n    tag_412:\n        /* \"#utility.yul\":11024:11027   */\n      0x00\n        /* \"#utility.yul\":11045:11112   */\n      tag_561\n        /* \"#utility.yul\":11109:11111   */\n      0x15\n        /* \"#utility.yul\":11104:11107   */\n      dup4\n        /* \"#utility.yul\":11045:11112   */\n      tag_381\n      jump\t// in\n    tag_561:\n        /* \"#utility.yul\":11038:11112   */\n      swap2\n      pop\n        /* \"#utility.yul\":11121:11214   */\n      tag_562\n        /* \"#utility.yul\":11210:11213   */\n      dup3\n        /* \"#utility.yul\":11121:11214   */\n      tag_411\n      jump\t// in\n    tag_562:\n        /* \"#utility.yul\":11239:11241   */\n      0x20\n        /* \"#utility.yul\":11234:11237   */\n      dup3\n        /* \"#utility.yul\":11230:11242   */\n      add\n        /* \"#utility.yul\":11223:11242   */\n      swap1\n      pop\n        /* \"#utility.yul\":10882:11248   */\n      swap2\n      swap1\n      pop\n      jump\t// out\n        /* \"#utility.yul\":11254:11673   */\n    tag_228:\n        /* \"#utility.yul\":11420:11424   */\n      0x00\n        /* \"#utility.yul\":11458:11460   */\n      0x20\n        /* \"#utility.yul\":11447:11456   */\n      dup3\n        /* \"#utility.yul\":11443:11461   */\n      add\n        /* \"#utility.yul\":11435:11461   */\n      swap1\n      pop\n        /* \"#utility.yul\":11507:11516   */\n      dup2\n        /* \"#utility.yul\":11501:11505   */\n      dup2\n        /* \"#utility.yul\":11497:11517   */\n      sub\n        /* \"#utility.yul\":11493:11494   */\n      0x00\n        /* \"#utility.yul\":11482:11491   */\n      dup4\n        /* \"#utility.yul\":11478:11495   */\n      add\n        /* \"#utility.yul\":11471:11518   */\n      mstore\n        /* \"#utility.yul\":11535:11666   */\n      tag_564\n        /* \"#utility.yul\":11661:11665   */\n      dup2\n        /* \"#utility.yul\":11535:11666   */\n      tag_412\n      jump\t// in\n    tag_564:\n        /* \"#utility.yul\":11527:11666   */\n      swap1\n      pop\n        /* \"#utility.yul\":11254:11673   */\n      swap2\n      swap1\n      pop\n      jump\t// out\n        /* \"#utility.yul\":11679:11861   */\n    tag_413:\n        /* \"#utility.yul\":11819:11853   */\n      0x4f776e61626c653a2063616c6c6572206973206e6f7420746865206f776e6572\n        /* \"#utility.yul\":11815:11816   */\n      0x00\n        /* \"#utility.yul\":11807:11813   */\n      dup3\n        /* \"#utility.yul\":11803:11817   */\n      add\n        /* \"#utility.yul\":11796:11854   */\n      mstore\n        /* \"#utility.yul\":11679:11861   */\n      pop\n      jump\t// out\n        /* \"#utility.yul\":11867:12233   */\n    tag_414:\n        /* \"#utility.yul\":12009:12012   */\n      0x00\n        /* \"#utility.yul\":12030:12097   */\n      tag_567\n        /* \"#utility.yul\":12094:12096   */\n      0x20\n        /* \"#utility.yul\":12089:12092   */\n      dup4\n        /* \"#utility.yul\":12030:12097   */\n      tag_381\n      jump\t// in\n    tag_567:\n        /* \"#utility.yul\":12023:12097   */\n      swap2\n      pop\n        /* \"#utility.yul\":12106:12199   */\n      tag_568\n        /* \"#utility.yul\":12195:12198   */\n      dup3\n        /* \"#utility.yul\":12106:12199   */\n      tag_413\n      jump\t// in\n    tag_568:\n        /* \"#utility.yul\":12224:12226   */\n      0x20\n        /* \"#utility.yul\":12219:12222   */\n      dup3\n        /* \"#utility.yul\":12215:12227   */\n      add\n        /* \"#utility.yul\":12208:12227   */\n      swap1\n      pop\n        /* \"#utility.yul\":11867:12233   */\n      swap2\n      swap1\n      pop\n      jump\t// out\n        /* \"#utility.yul\":12239:12658   */\n    tag_236:\n        /* \"#utility.yul\":12405:12409   */\n      0x00\n        /* \"#utility.yul\":12443:12445   */\n      0x20\n        /* \"#utility.yul\":12432:12441   */\n      dup3\n        /* \"#utility.yul\":12428:12446   */\n      add\n        /* \"#utility.yul\":12420:12446   */\n      swap1\n      pop\n        /* \"#utility.yul\":12492:12501   */\n      dup2\n        /* \"#utility.yul\":12486:12490   */\n      dup2\n        /* \"#utility.yul\":12482:12502   */\n      sub\n        /* \"#utility.yul\":12478:12479   */\n      0x00\n        /* \"#utility.yul\":12467:12476   */\n      dup4\n        /* \"#utility.yul\":12463:12480   */\n      add\n        /* \"#utility.yul\":12456:12503   */\n      mstore\n        /* \"#utility.yul\":12520:12651   */\n      tag_570\n        /* \"#utility.yul\":12646:12650   */\n      dup2\n        /* \"#utility.yul\":12520:12651   */\n      tag_414\n      jump\t// in\n    tag_570:\n        /* \"#utility.yul\":12512:12651   */\n      swap1\n      pop\n        /* \"#utility.yul\":12239:12658   */\n      swap2\n      swap1\n      pop\n      jump\t// out\n        /* \"#utility.yul\":12664:12829   */\n    tag_415:\n        /* \"#utility.yul\":12804:12821   */\n      0x496e76616c696420616464726573730000000000000000000000000000000000\n        /* \"#utility.yul\":12800:12801   */\n      0x00\n        /* \"#utility.yul\":12792:12798   */\n      dup3\n        /* \"#utility.yul\":12788:12802   */\n      add\n        /* \"#utility.yul\":12781:12822   */\n      mstore\n        /* \"#utility.yul\":12664:12829   */\n      pop\n      jump\t// out\n        /* \"#utility.yul\":12835:13201   */\n    tag_416:\n        /* \"#utility.yul\":12977:12980   */\n      0x00\n        /* \"#utility.yul\":12998:13065   */\n      tag_573\n        /* \"#utility.yul\":13062:13064   */\n      0x0f\n        /* \"#utility.yul\":13057:13060   */\n      dup4\n        /* \"#utility.yul\":12998:13065   */\n      tag_381\n      jump\t// in\n    tag_573:\n        /* \"#utility.yul\":12991:13065   */\n      swap2\n      pop\n        /* \"#utility.yul\":13074:13167   */\n      tag_574\n        /* \"#utility.yul\":13163:13166   */\n      dup3\n        /* \"#utility.yul\":13074:13167   */\n      tag_415\n      jump\t// in\n    tag_574:\n        /* \"#utility.yul\":13192:13194   */\n      0x20\n        /* \"#utility.yul\":13187:13190   */\n      dup3\n        /* \"#utility.yul\":13183:13195   */\n      add\n        /* \"#utility.yul\":13176:13195   */\n      swap1\n      pop\n        /* \"#utility.yul\":12835:13201   */\n      swap2\n      swap1\n      pop\n      jump\t// out\n        /* \"#utility.yul\":13207:13626   */\n    tag_252:\n        /* \"#utility.yul\":13373:13377   */\n      0x00\n        /* \"#utility.yul\":13411:13413   */\n      0x20\n        /* \"#utility.yul\":13400:13409   */\n      dup3\n        /* \"#utility.yul\":13396:13414   */\n      add\n        /* \"#utility.yul\":13388:13414   */\n      swap1\n      pop\n        /* \"#utility.yul\":13460:13469   */\n      dup2\n        /* \"#utility.yul\":13454:13458   */\n      dup2\n        /* \"#utility.yul\":13450:13470   */\n      sub\n        /* \"#utility.yul\":13446:13447   */\n      0x00\n        /* \"#utility.yul\":13435:13444   */\n      dup4\n        /* \"#utility.yul\":13431:13448   */\n      add\n        /* \"#utility.yul\":13424:13471   */\n      mstore\n        /* \"#utility.yul\":13488:13619   */\n      tag_576\n        /* \"#utility.yul\":13614:13618   */\n      dup2\n        /* \"#utility.yul\":13488:13619   */\n      tag_416\n      jump\t// in\n    tag_576:\n        /* \"#utility.yul\":13480:13619   */\n      swap1\n      pop\n        /* \"#utility.yul\":13207:13626   */\n      swap2\n      swap1\n      pop\n      jump\t// out\n        /* \"#utility.yul\":13632:13857   */\n    tag_417:\n        /* \"#utility.yul\":13772:13806   */\n      0x4f776e61626c653a206e6577206f776e657220697320746865207a65726f2061\n        /* \"#utility.yul\":13768:13769   */\n      0x00\n        /* \"#utility.yul\":13760:13766   */\n      dup3\n        /* \"#utility.yul\":13756:13770   */\n      add\n        /* \"#utility.yul\":13749:13807   */\n      mstore\n        /* \"#utility.yul\":13841:13849   */\n      0x6464726573730000000000000000000000000000000000000000000000000000\n        /* \"#utility.yul\":13836:13838   */\n      0x20\n        /* \"#utility.yul\":13828:13834   */\n      dup3\n        /* \"#utility.yul\":13824:13839   */\n      add\n        /* \"#utility.yul\":13817:13850   */\n      mstore\n        /* \"#utility.yul\":13632:13857   */\n      pop\n      jump\t// out\n        /* \"#utility.yul\":13863:14229   */\n    tag_418:\n        /* \"#utility.yul\":14005:14008   */\n      0x00\n        /* \"#utility.yul\":14026:14093   */\n      tag_579\n        /* \"#utility.yul\":14090:14092   */\n      0x26\n        /* \"#utility.yul\":14085:14088   */\n      dup4\n        /* \"#utility.yul\":14026:14093   */\n      tag_381\n      jump\t// in\n    tag_579:\n        /* \"#utility.yul\":14019:14093   */\n      swap2\n      pop\n        /* \"#utility.yul\":14102:14195   */\n      tag_580\n        /* \"#utility.yul\":14191:14194   */\n      dup3\n        /* \"#utility.yul\":14102:14195   */\n      tag_417\n      jump\t// in\n    tag_580:\n        /* \"#utility.yul\":14220:14222   */\n      0x40\n        /* \"#utility.yul\":14215:14218   */\n      dup3\n        /* \"#utility.yul\":14211:14223   */\n      add\n        /* \"#utility.yul\":14204:14223   */\n      swap1\n      pop\n        /* \"#utility.yul\":13863:14229   */\n      swap2\n      swap1\n      pop\n      jump\t// out\n        /* \"#utility.yul\":14235:14654   */\n    tag_271:\n        /* \"#utility.yul\":14401:14405   */\n      0x00\n        /* \"#utility.yul\":14439:14441   */\n      0x20\n        /* \"#utility.yul\":14428:14437   */\n      dup3\n        /* \"#utility.yul\":14424:14442   */\n      add\n        /* \"#utility.yul\":14416:14442   */\n      swap1\n      pop\n        /* \"#utility.yul\":14488:14497   */\n      dup2\n        /* \"#utility.yul\":14482:14486   */\n      dup2\n        /* \"#utility.yul\":14478:14498   */\n      sub\n        /* \"#utility.yul\":14474:14475   */\n      0x00\n        /* \"#utility.yul\":14463:14472   */\n      dup4\n        /* \"#utility.yul\":14459:14476   */\n      add\n        /* \"#utility.yul\":14452:14499   */\n      mstore\n        /* \"#utility.yul\":14516:14647   */\n      tag_582\n        /* \"#utility.yul\":14642:14646   */\n      dup2\n        /* \"#utility.yul\":14516:14647   */\n      tag_418\n      jump\t// in\n    tag_582:\n        /* \"#utility.yul\":14508:14647   */\n      swap1\n      pop\n        /* \"#utility.yul\":14235:14654   */\n      swap2\n      swap1\n      pop\n      jump\t// out\n        /* \"#utility.yul\":14660:14829   */\n    tag_419:\n        /* \"#utility.yul\":14800:14821   */\n      0x45524332303a205a65726f204164647265737300000000000000000000000000\n        /* \"#utility.yul\":14796:14797   */\n      0x00\n        /* \"#utility.yul\":14788:14794   */\n      dup3\n        /* \"#utility.yul\":14784:14798   */\n      add\n        /* \"#utility.yul\":14777:14822   */\n      mstore\n        /* \"#utility.yul\":14660:14829   */\n      pop\n      jump\t// out\n        /* \"#utility.yul\":14835:15201   */\n    tag_420:\n        /* \"#utility.yul\":14977:14980   */\n      0x00\n        /* \"#utility.yul\":14998:15065   */\n      tag_585\n        /* \"#utility.yul\":15062:15064   */\n      0x13\n        /* \"#utility.yul\":15057:15060   */\n      dup4\n        /* \"#utility.yul\":14998:15065   */\n      tag_381\n      jump\t// in\n    tag_585:\n        /* \"#utility.yul\":14991:15065   */\n      swap2\n      pop\n        /* \"#utility.yul\":15074:15167   */\n      tag_586\n        /* \"#utility.yul\":15163:15166   */\n      dup3\n        /* \"#utility.yul\":15074:15167   */\n      tag_419\n      jump\t// in\n    tag_586:\n        /* \"#utility.yul\":15192:15194   */\n      0x20\n        /* \"#utility.yul\":15187:15190   */\n      dup3\n        /* \"#utility.yul\":15183:15195   */\n      add\n        /* \"#utility.yul\":15176:15195   */\n      swap1\n      pop\n        /* \"#utility.yul\":14835:15201   */\n      swap2\n      swap1\n      pop\n      jump\t// out\n        /* \"#utility.yul\":15207:15626   */\n    tag_276:\n        /* \"#utility.yul\":15373:15377   */\n      0x00\n        /* \"#utility.yul\":15411:15413   */\n      0x20\n        /* \"#utility.yul\":15400:15409   */\n      dup3\n        /* \"#utility.yul\":15396:15414   */\n      add\n        /* \"#utility.yul\":15388:15414   */\n      swap1\n      pop\n        /* \"#utility.yul\":15460:15469   */\n      dup2\n        /* \"#utility.yul\":15454:15458   */\n      dup2\n        /* \"#utility.yul\":15450:15470   */\n      sub\n        /* \"#utility.yul\":15446:15447   */\n      0x00\n        /* \"#utility.yul\":15435:15444   */\n      dup4\n        /* \"#utility.yul\":15431:15448   */\n      add\n        /* \"#utility.yul\":15424:15471   */\n      mstore\n        /* \"#utility.yul\":15488:15619   */\n      tag_588\n        /* \"#utility.yul\":15614:15618   */\n      dup2\n        /* \"#utility.yul\":15488:15619   */\n      tag_420\n      jump\t// in\n    tag_588:\n        /* \"#utility.yul\":15480:15619   */\n      swap1\n      pop\n        /* \"#utility.yul\":15207:15626   */\n      swap2\n      swap1\n      pop\n      jump\t// out\n        /* \"#utility.yul\":15632:15854   */\n    tag_421:\n        /* \"#utility.yul\":15772:15806   */\n      0x45524332303a207472616e7366657220746f20746865207a65726f2061646472\n        /* \"#utility.yul\":15768:15769   */\n      0x00\n        /* \"#utility.yul\":15760:15766   */\n      dup3\n        /* \"#utility.yul\":15756:15770   */\n      add\n        /* \"#utility.yul\":15749:15807   */\n      mstore\n        /* \"#utility.yul\":15841:15846   */\n      0x6573730000000000000000000000000000000000000000000000000000000000\n        /* \"#utility.yul\":15836:15838   */\n      0x20\n        /* \"#utility.yul\":15828:15834   */\n      dup3\n        /* \"#utility.yul\":15824:15839   */\n      add\n        /* \"#utility.yul\":15817:15847   */\n      mstore\n        /* \"#utility.yul\":15632:15854   */\n      pop\n      jump\t// out\n        /* \"#utility.yul\":15860:16226   */\n    tag_422:\n        /* \"#utility.yul\":16002:16005   */\n      0x00\n        /* \"#utility.yul\":16023:16090   */\n      tag_591\n        /* \"#utility.yul\":16087:16089   */\n      0x23\n        /* \"#utility.yul\":16082:16085   */\n      dup4\n        /* \"#utility.yul\":16023:16090   */\n      tag_381\n      jump\t// in\n    tag_591:\n        /* \"#utility.yul\":16016:16090   */\n      swap2\n      pop\n        /* \"#utility.yul\":16099:16192   */\n      tag_592\n        /* \"#utility.yul\":16188:16191   */\n      dup3\n        /* \"#utility.yul\":16099:16192   */\n      tag_421\n      jump\t// in\n    tag_592:\n        /* \"#utility.yul\":16217:16219   */\n      0x40\n        /* \"#utility.yul\":16212:16215   */\n      dup3\n        /* \"#utility.yul\":16208:16220   */\n      add\n        /* \"#utility.yul\":16201:16220   */\n      swap1\n      pop\n        /* \"#utility.yul\":15860:16226   */\n      swap2\n      swap1\n      pop\n      jump\t// out\n        /* \"#utility.yul\":16232:16651   */\n    tag_282:\n        /* \"#utility.yul\":16398:16402   */\n      0x00\n        /* \"#utility.yul\":16436:16438   */\n      0x20\n        /* \"#utility.yul\":16425:16434   */\n      dup3\n        /* \"#utility.yul\":16421:16439   */\n      add\n        /* \"#utility.yul\":16413:16439   */\n      swap1\n      pop\n        /* \"#utility.yul\":16485:16494   */\n      dup2\n        /* \"#utility.yul\":16479:16483   */\n      dup2\n        /* \"#utility.yul\":16475:16495   */\n      sub\n        /* \"#utility.yul\":16471:16472   */\n      0x00\n        /* \"#utility.yul\":16460:16469   */\n      dup4\n        /* \"#utility.yul\":16456:16473   */\n      add\n        /* \"#utility.yul\":16449:16496   */\n      mstore\n        /* \"#utility.yul\":16513:16644   */\n      tag_594\n        /* \"#utility.yul\":16639:16643   */\n      dup2\n        /* \"#utility.yul\":16513:16644   */\n      tag_422\n      jump\t// in\n    tag_594:\n        /* \"#utility.yul\":16505:16644   */\n      swap1\n      pop\n        /* \"#utility.yul\":16232:16651   */\n      swap2\n      swap1\n      pop\n      jump\t// out\n        /* \"#utility.yul\":16657:16881   */\n    tag_423:\n        /* \"#utility.yul\":16797:16831   */\n      0x45524332303a207472616e736665722066726f6d20746865207a65726f206164\n        /* \"#utility.yul\":16793:16794   */\n      0x00\n        /* \"#utility.yul\":16785:16791   */\n      dup3\n        /* \"#utility.yul\":16781:16795   */\n      add\n        /* \"#utility.yul\":16774:16832   */\n      mstore\n        /* \"#utility.yul\":16866:16873   */\n      0x6472657373000000000000000000000000000000000000000000000000000000\n        /* \"#utility.yul\":16861:16863   */\n      0x20\n        /* \"#utility.yul\":16853:16859   */\n      dup3\n        /* \"#utility.yul\":16849:16864   */\n      add\n        /* \"#utility.yul\":16842:16874   */\n      mstore\n        /* \"#utility.yul\":16657:16881   */\n      pop\n      jump\t// out\n        /* \"#utility.yul\":16887:17253   */\n    tag_424:\n        /* \"#utility.yul\":17029:17032   */\n      0x00\n        /* \"#utility.yul\":17050:17117   */\n      tag_597\n        /* \"#utility.yul\":17114:17116   */\n      0x25\n        /* \"#utility.yul\":17109:17112   */\n      dup4\n        /* \"#utility.yul\":17050:17117   */\n      tag_381\n      jump\t// in\n    tag_597:\n        /* \"#utility.yul\":17043:17117   */\n      swap2\n      pop\n        /* \"#utility.yul\":17126:17219   */\n      tag_598\n        /* \"#utility.yul\":17215:17218   */\n      dup3\n        /* \"#utility.yul\":17126:17219   */\n      tag_423\n      jump\t// in\n    tag_598:\n        /* \"#utility.yul\":17244:17246   */\n      0x40\n        /* \"#utility.yul\":17239:17242   */\n      dup3\n        /* \"#utility.yul\":17235:17247   */\n      add\n        /* \"#utility.yul\":17228:17247   */\n      swap1\n      pop\n        /* \"#utility.yul\":16887:17253   */\n      swap2\n      swap1\n      pop\n      jump\t// out\n        /* \"#utility.yul\":17259:17678   */\n    tag_285:\n        /* \"#utility.yul\":17425:17429   */\n      0x00\n        /* \"#utility.yul\":17463:17465   */\n      0x20\n        /* \"#utility.yul\":17452:17461   */\n      dup3\n        /* \"#utility.yul\":17448:17466   */\n      add\n        /* \"#utility.yul\":17440:17466   */\n      swap1\n      pop\n        /* \"#utility.yul\":17512:17521   */\n      dup2\n        /* \"#utility.yul\":17506:17510   */\n      dup2\n        /* \"#utility.yul\":17502:17522   */\n      sub\n        /* \"#utility.yul\":17498:17499   */\n      0x00\n        /* \"#utility.yul\":17487:17496   */\n      dup4\n        /* \"#utility.yul\":17483:17500   */\n      add\n        /* \"#utility.yul\":17476:17523   */\n      mstore\n        /* \"#utility.yul\":17540:17671   */\n      tag_600\n        /* \"#utility.yul\":17666:17670   */\n      dup2\n        /* \"#utility.yul\":17540:17671   */\n      tag_424\n      jump\t// in\n    tag_600:\n        /* \"#utility.yul\":17532:17671   */\n      swap1\n      pop\n        /* \"#utility.yul\":17259:17678   */\n      swap2\n      swap1\n      pop\n      jump\t// out\n        /* \"#utility.yul\":17684:17912   */\n    tag_425:\n        /* \"#utility.yul\":17824:17858   */\n      0x5472616e7366657220616d6f756e74206d757374206265206772656174657220\n        /* \"#utility.yul\":17820:17821   */\n      0x00\n        /* \"#utility.yul\":17812:17818   */\n      dup3\n        /* \"#utility.yul\":17808:17822   */\n      add\n        /* \"#utility.yul\":17801:17859   */\n      mstore\n        /* \"#utility.yul\":17893:17904   */\n      0x7468616e207a65726f0000000000000000000000000000000000000000000000\n        /* \"#utility.yul\":17888:17890   */\n      0x20\n        /* \"#utility.yul\":17880:17886   */\n      dup3\n        /* \"#utility.yul\":17876:17891   */\n      add\n        /* \"#utility.yul\":17869:17905   */\n      mstore\n        /* \"#utility.yul\":17684:17912   */\n      pop\n      jump\t// out\n        /* \"#utility.yul\":17918:18284   */\n    tag_426:\n        /* \"#utility.yul\":18060:18063   */\n      0x00\n        /* \"#utility.yul\":18081:18148   */\n      tag_603\n        /* \"#utility.yul\":18145:18147   */\n      0x29\n        /* \"#utility.yul\":18140:18143   */\n      dup4\n        /* \"#utility.yul\":18081:18148   */\n      tag_381\n      jump\t// in\n    tag_603:\n        /* \"#utility.yul\":18074:18148   */\n      swap2\n      pop\n        /* \"#utility.yul\":18157:18250   */\n      tag_604\n        /* \"#utility.yul\":18246:18249   */\n      dup3\n        /* \"#utility.yul\":18157:18250   */\n      tag_425\n      jump\t// in\n    tag_604:\n        /* \"#utility.yul\":18275:18277   */\n      0x40\n        /* \"#utility.yul\":18270:18273   */\n      dup3\n        /* \"#utility.yul\":18266:18278   */\n      add\n        /* \"#utility.yul\":18259:18278   */\n      swap1\n      pop\n        /* \"#utility.yul\":17918:18284   */\n      swap2\n      swap1\n      pop\n      jump\t// out\n        /* \"#utility.yul\":18290:18709   */\n    tag_288:\n        /* \"#utility.yul\":18456:18460   */\n      0x00\n        /* \"#utility.yul\":18494:18496   */\n      0x20\n        /* \"#utility.yul\":18483:18492   */\n      dup3\n        /* \"#utility.yul\":18479:18497   */\n      add\n        /* \"#utility.yul\":18471:18497   */\n      swap1\n      pop\n        /* \"#utility.yul\":18543:18552   */\n      dup2\n        /* \"#utility.yul\":18537:18541   */\n      dup2\n        /* \"#utility.yul\":18533:18553   */\n      sub\n        /* \"#utility.yul\":18529:18530   */\n      0x00\n        /* \"#utility.yul\":18518:18527   */\n      dup4\n        /* \"#utility.yul\":18514:18531   */\n      add\n        /* \"#utility.yul\":18507:18554   */\n      mstore\n        /* \"#utility.yul\":18571:18702   */\n      tag_606\n        /* \"#utility.yul\":18697:18701   */\n      dup2\n        /* \"#utility.yul\":18571:18702   */\n      tag_426\n      jump\t// in\n    tag_606:\n        /* \"#utility.yul\":18563:18702   */\n      swap1\n      pop\n        /* \"#utility.yul\":18290:18709   */\n      swap2\n      swap1\n      pop\n      jump\t// out\n        /* \"#utility.yul\":18715:18938   */\n    tag_427:\n        /* \"#utility.yul\":18855:18889   */\n      0x4f6e6c79206f6e65207472616e736665722070657220626c6f636b20616c6c6f\n        /* \"#utility.yul\":18851:18852   */\n      0x00\n        /* \"#utility.yul\":18843:18849   */\n      dup3\n        /* \"#utility.yul\":18839:18853   */\n      add\n        /* \"#utility.yul\":18832:18890   */\n      mstore\n        /* \"#utility.yul\":18924:18930   */\n      0x7765642e00000000000000000000000000000000000000000000000000000000\n        /* \"#utility.yul\":18919:18921   */\n      0x20\n        /* \"#utility.yul\":18911:18917   */\n      dup3\n        /* \"#utility.yul\":18907:18922   */\n      add\n        /* \"#utility.yul\":18900:18931   */\n      mstore\n        /* \"#utility.yul\":18715:18938   */\n      pop\n      jump\t// out\n        /* \"#utility.yul\":18944:19310   */\n    tag_428:\n        /* \"#utility.yul\":19086:19089   */\n      0x00\n        /* \"#utility.yul\":19107:19174   */\n      tag_609\n        /* \"#utility.yul\":19171:19173   */\n      0x24\n        /* \"#utility.yul\":19166:19169   */\n      dup4\n        /* \"#utility.yul\":19107:19174   */\n      tag_381\n      jump\t// in\n    tag_609:\n        /* \"#utility.yul\":19100:19174   */\n      swap2\n      pop\n        /* \"#utility.yul\":19183:19276   */\n      tag_610\n        /* \"#utility.yul\":19272:19275   */\n      dup3\n        /* \"#utility.yul\":19183:19276   */\n      tag_427\n      jump\t// in\n    tag_610:\n        /* \"#utility.yul\":19301:19303   */\n      0x40\n        /* \"#utility.yul\":19296:19299   */\n      dup3\n        /* \"#utility.yul\":19292:19304   */\n      add\n        /* \"#utility.yul\":19285:19304   */\n      swap1\n      pop\n        /* \"#utility.yul\":18944:19310   */\n      swap2\n      swap1\n      pop\n      jump\t// out\n        /* \"#utility.yul\":19316:19735   */\n    tag_298:\n        /* \"#utility.yul\":19482:19486   */\n      0x00\n        /* \"#utility.yul\":19520:19522   */\n      0x20\n        /* \"#utility.yul\":19509:19518   */\n      dup3\n        /* \"#utility.yul\":19505:19523   */\n      add\n        /* \"#utility.yul\":19497:19523   */\n      swap1\n      pop\n        /* \"#utility.yul\":19569:19578   */\n      dup2\n        /* \"#utility.yul\":19563:19567   */\n      dup2\n        /* \"#utility.yul\":19559:19579   */\n      sub\n        /* \"#utility.yul\":19555:19556   */\n      0x00\n        /* \"#utility.yul\":19544:19553   */\n      dup4\n        /* \"#utility.yul\":19540:19557   */\n      add\n        /* \"#utility.yul\":19533:19580   */\n      mstore\n        /* \"#utility.yul\":19597:19728   */\n      tag_612\n        /* \"#utility.yul\":19723:19727   */\n      dup2\n        /* \"#utility.yul\":19597:19728   */\n      tag_428\n      jump\t// in\n    tag_612:\n        /* \"#utility.yul\":19589:19728   */\n      swap1\n      pop\n        /* \"#utility.yul\":19316:19735   */\n      swap2\n      swap1\n      pop\n      jump\t// out\n        /* \"#utility.yul\":19741:19916   */\n    tag_429:\n        /* \"#utility.yul\":19881:19908   */\n      0x4578636565647320746865205f6d61785478416d6f756e742e00000000000000\n        /* \"#utility.yul\":19877:19878   */\n      0x00\n        /* \"#utility.yul\":19869:19875   */\n      dup3\n        /* \"#utility.yul\":19865:19879   */\n      add\n        /* \"#utility.yul\":19858:19909   */\n      mstore\n        /* \"#utility.yul\":19741:19916   */\n      pop\n      jump\t// out\n        /* \"#utility.yul\":19922:20288   */\n    tag_430:\n        /* \"#utility.yul\":20064:20067   */\n      0x00\n        /* \"#utility.yul\":20085:20152   */\n      tag_615\n        /* \"#utility.yul\":20149:20151   */\n      0x19\n        /* \"#utility.yul\":20144:20147   */\n      dup4\n        /* \"#utility.yul\":20085:20152   */\n      tag_381\n      jump\t// in\n    tag_615:\n        /* \"#utility.yul\":20078:20152   */\n      swap2\n      pop\n        /* \"#utility.yul\":20161:20254   */\n      tag_616\n        /* \"#utility.yul\":20250:20253   */\n      dup3\n        /* \"#utility.yul\":20161:20254   */\n      tag_429\n      jump\t// in\n    tag_616:\n        /* \"#utility.yul\":20279:20281   */\n      0x20\n        /* \"#utility.yul\":20274:20277   */\n      dup3\n        /* \"#utility.yul\":20270:20282   */\n      add\n        /* \"#utility.yul\":20263:20282   */\n      swap1\n      pop\n        /* \"#utility.yul\":19922:20288   */\n      swap2\n      swap1\n      pop\n      jump\t// out\n        /* \"#utility.yul\":20294:20713   */\n    tag_305:\n        /* \"#utility.yul\":20460:20464   */\n      0x00\n        /* \"#utility.yul\":20498:20500   */\n      0x20\n        /* \"#utility.yul\":20487:20496   */\n      dup3\n        /* \"#utility.yul\":20483:20501   */\n      add\n        /* \"#utility.yul\":20475:20501   */\n      swap1\n      pop\n        /* \"#utility.yul\":20547:20556   */\n      dup2\n        /* \"#utility.yul\":20541:20545   */\n      dup2\n        /* \"#utility.yul\":20537:20557   */\n      sub\n        /* \"#utility.yul\":20533:20534   */\n      0x00\n        /* \"#utility.yul\":20522:20531   */\n      dup4\n        /* \"#utility.yul\":20518:20535   */\n      add\n        /* \"#utility.yul\":20511:20558   */\n      mstore\n        /* \"#utility.yul\":20575:20706   */\n      tag_618\n        /* \"#utility.yul\":20701:20705   */\n      dup2\n        /* \"#utility.yul\":20575:20706   */\n      tag_430\n      jump\t// in\n    tag_618:\n        /* \"#utility.yul\":20567:20706   */\n      swap1\n      pop\n        /* \"#utility.yul\":20294:20713   */\n      swap2\n      swap1\n      pop\n      jump\t// out\n        /* \"#utility.yul\":20719:20910   */\n    tag_308:\n        /* \"#utility.yul\":20759:20762   */\n      0x00\n        /* \"#utility.yul\":20778:20798   */\n      tag_620\n        /* \"#utility.yul\":20796:20797   */\n      dup3\n        /* \"#utility.yul\":20778:20798   */\n      tag_378\n      jump\t// in\n    tag_620:\n        /* \"#utility.yul\":20773:20798   */\n      swap2\n      pop\n        /* \"#utility.yul\":20812:20832   */\n      tag_621\n        /* \"#utility.yul\":20830:20831   */\n      dup4\n        /* \"#utility.yul\":20812:20832   */\n      tag_378\n      jump\t// in\n    tag_621:\n        /* \"#utility.yul\":20807:20832   */\n      swap3\n      pop\n        /* \"#utility.yul\":20855:20856   */\n      dup3\n        /* \"#utility.yul\":20852:20853   */\n      dup3\n        /* \"#utility.yul\":20848:20857   */\n      add\n        /* \"#utility.yul\":20841:20857   */\n      swap1\n      pop\n        /* \"#utility.yul\":20876:20879   */\n      dup1\n        /* \"#utility.yul\":20873:20874   */\n      dup3\n        /* \"#utility.yul\":20870:20880   */\n      gt\n        /* \"#utility.yul\":20867:20903   */\n      iszero\n      tag_622\n      jumpi\n        /* \"#utility.yul\":20883:20901   */\n      tag_623\n      tag_404\n      jump\t// in\n    tag_623:\n        /* \"#utility.yul\":20867:20903   */\n    tag_622:\n        /* \"#utility.yul\":20719:20910   */\n      swap3\n      swap2\n      pop\n      pop\n      jump\t// out\n        /* \"#utility.yul\":20916:21092   */\n    tag_431:\n        /* \"#utility.yul\":21056:21084   */\n      0x4578636565647320746865206d617857616c6c657453697a652e000000000000\n        /* \"#utility.yul\":21052:21053   */\n      0x00\n        /* \"#utility.yul\":21044:21050   */\n      dup3\n        /* \"#utility.yul\":21040:21054   */\n      add\n        /* \"#utility.yul\":21033:21085   */\n      mstore\n        /* \"#utility.yul\":20916:21092   */\n      pop\n      jump\t// out\n        /* \"#utility.yul\":21098:21464   */\n    tag_432:\n        /* \"#utility.yul\":21240:21243   */\n      0x00\n        /* \"#utility.yul\":21261:21328   */\n      tag_626\n        /* \"#utility.yul\":21325:21327   */\n      0x1a\n        /* \"#utility.yul\":21320:21323   */\n      dup4\n        /* \"#utility.yul\":21261:21328   */\n      tag_381\n      jump\t// in\n    tag_626:\n        /* \"#utility.yul\":21254:21328   */\n      swap2\n      pop\n        /* \"#utility.yul\":21337:21430   */\n      tag_627\n        /* \"#utility.yul\":21426:21429   */\n      dup3\n        /* \"#utility.yul\":21337:21430   */\n      tag_431\n      jump\t// in\n    tag_627:\n        /* \"#utility.yul\":21455:21457   */\n      0x20\n        /* \"#utility.yul\":21450:21453   */\n      dup3\n        /* \"#utility.yul\":21446:21458   */\n      add\n        /* \"#utility.yul\":21439:21458   */\n      swap1\n      pop\n        /* \"#utility.yul\":21098:21464   */\n      swap2\n      swap1\n      pop\n      jump\t// out\n        /* \"#utility.yul\":21470:21889   */\n    tag_311:\n        /* \"#utility.yul\":21636:21640   */\n      0x00\n        /* \"#utility.yul\":21674:21676   */\n      0x20\n        /* \"#utility.yul\":21663:21672   */\n      dup3\n        /* \"#utility.yul\":21659:21677   */\n      add\n        /* \"#utility.yul\":21651:21677   */\n      swap1\n      pop\n        /* \"#utility.yul\":21723:21732   */\n      dup2\n        /* \"#utility.yul\":21717:21721   */\n      dup2\n        /* \"#utility.yul\":21713:21733   */\n      sub\n        /* \"#utility.yul\":21709:21710   */\n      0x00\n        /* \"#utility.yul\":21698:21707   */\n      dup4\n        /* \"#utility.yul\":21694:21711   */\n      add\n        /* \"#utility.yul\":21687:21734   */\n      mstore\n        /* \"#utility.yul\":21751:21882   */\n      tag_629\n        /* \"#utility.yul\":21877:21881   */\n      dup2\n        /* \"#utility.yul\":21751:21882   */\n      tag_432\n      jump\t// in\n    tag_629:\n        /* \"#utility.yul\":21743:21882   */\n      swap1\n      pop\n        /* \"#utility.yul\":21470:21889   */\n      swap2\n      swap1\n      pop\n      jump\t// out\n        /* \"#utility.yul\":21895:22075   */\n    tag_334:\n        /* \"#utility.yul\":21943:22020   */\n      0x4e487b7100000000000000000000000000000000000000000000000000000000\n        /* \"#utility.yul\":21940:21941   */\n      0x00\n        /* \"#utility.yul\":21933:22021   */\n      mstore\n        /* \"#utility.yul\":22040:22044   */\n      0x41\n        /* \"#utility.yul\":22037:22038   */\n      0x04\n        /* \"#utility.yul\":22030:22045   */\n      mstore\n        /* \"#utility.yul\":22064:22068   */\n      0x24\n        /* \"#utility.yul\":22061:22062   */\n      0x00\n        /* \"#utility.yul\":22054:22069   */\n      revert\n        /* \"#utility.yul\":22081:22261   */\n    tag_338:\n        /* \"#utility.yul\":22129:22206   */\n      0x4e487b7100000000000000000000000000000000000000000000000000000000\n        /* \"#utility.yul\":22126:22127   */\n      0x00\n        /* \"#utility.yul\":22119:22207   */\n      mstore\n        /* \"#utility.yul\":22226:22230   */\n      0x32\n        /* \"#utility.yul\":22223:22224   */\n      0x04\n        /* \"#utility.yul\":22216:22231   */\n      mstore\n        /* \"#utility.yul\":22250:22254   */\n      0x24\n        /* \"#utility.yul\":22247:22248   */\n      0x00\n        /* \"#utility.yul\":22240:22255   */\n      revert\n        /* \"#utility.yul\":22267:22410   */\n    tag_433:\n        /* \"#utility.yul\":22324:22329   */\n      0x00\n        /* \"#utility.yul\":22355:22361   */\n      dup2\n        /* \"#utility.yul\":22349:22362   */\n      mload\n        /* \"#utility.yul\":22340:22362   */\n      swap1\n      pop\n        /* \"#utility.yul\":22371:22404   */\n      tag_633\n        /* \"#utility.yul\":22398:22403   */\n      dup2\n        /* \"#utility.yul\":22371:22404   */\n      tag_390\n      jump\t// in\n    tag_633:\n        /* \"#utility.yul\":22267:22410   */\n      swap3\n      swap2\n      pop\n      pop\n      jump\t// out\n        /* \"#utility.yul\":22416:22767   */\n    tag_342:\n        /* \"#utility.yul\":22486:22492   */\n      0x00\n        /* \"#utility.yul\":22535:22537   */\n      0x20\n        /* \"#utility.yul\":22523:22532   */\n      dup3\n        /* \"#utility.yul\":22514:22521   */\n      dup5\n        /* \"#utility.yul\":22510:22533   */\n      sub\n        /* \"#utility.yul\":22506:22538   */\n      slt\n        /* \"#utility.yul\":22503:22622   */\n      iszero\n      tag_635\n      jumpi\n        /* \"#utility.yul\":22541:22620   */\n      tag_636\n      tag_386\n      jump\t// in\n    tag_636:\n        /* \"#utility.yul\":22503:22622   */\n    tag_635:\n        /* \"#utility.yul\":22661:22662   */\n      0x00\n        /* \"#utility.yul\":22686:22750   */\n      tag_637\n        /* \"#utility.yul\":22742:22749   */\n      dup5\n        /* \"#utility.yul\":22733:22739   */\n      dup3\n        /* \"#utility.yul\":22722:22731   */\n      dup6\n        /* \"#utility.yul\":22718:22740   */\n      add\n        /* \"#utility.yul\":22686:22750   */\n      tag_433\n      jump\t// in\n    tag_637:\n        /* \"#utility.yul\":22676:22750   */\n      swap2\n      pop\n        /* \"#utility.yul\":22632:22760   */\n      pop\n        /* \"#utility.yul\":22416:22767   */\n      swap3\n      swap2\n      pop\n      pop\n      jump\t// out\n        /* \"#utility.yul\":22773:22858   */\n    tag_434:\n        /* \"#utility.yul\":22818:22825   */\n      0x00\n        /* \"#utility.yul\":22847:22852   */\n      dup2\n        /* \"#utility.yul\":22836:22852   */\n      swap1\n      pop\n        /* \"#utility.yul\":22773:22858   */\n      swap2\n      swap1\n      pop\n      jump\t// out\n        /* \"#utility.yul\":22864:23022   */\n    tag_435:\n        /* \"#utility.yul\":22922:22931   */\n      0x00\n        /* \"#utility.yul\":22955:23016   */\n      tag_640\n        /* \"#utility.yul\":22973:23015   */\n      tag_641\n        /* \"#utility.yul\":22982:23014   */\n      tag_642\n        /* \"#utility.yul\":23008:23013   */\n      dup5\n        /* \"#utility.yul\":22982:23014   */\n      tag_434\n      jump\t// in\n    tag_642:\n        /* \"#utility.yul\":22973:23015   */\n      tag_399\n      jump\t// in\n    tag_641:\n        /* \"#utility.yul\":22955:23016   */\n      tag_378\n      jump\t// in\n    tag_640:\n        /* \"#utility.yul\":22942:23016   */\n      swap1\n      pop\n        /* \"#utility.yul\":22864:23022   */\n      swap2\n      swap1\n      pop\n      jump\t// out\n        /* \"#utility.yul\":23028:23175   */\n    tag_436:\n        /* \"#utility.yul\":23123:23168   */\n      tag_644\n        /* \"#utility.yul\":23162:23167   */\n      dup2\n        /* \"#utility.yul\":23123:23168   */\n      tag_435\n      jump\t// in\n    tag_644:\n        /* \"#utility.yul\":23118:23121   */\n      dup3\n        /* \"#utility.yul\":23111:23169   */\n      mstore\n        /* \"#utility.yul\":23028:23175   */\n      pop\n      pop\n      jump\t// out\n        /* \"#utility.yul\":23181:23295   */\n    tag_437:\n        /* \"#utility.yul\":23248:23254   */\n      0x00\n        /* \"#utility.yul\":23282:23287   */\n      dup2\n        /* \"#utility.yul\":23276:23288   */\n      mload\n        /* \"#utility.yul\":23266:23288   */\n      swap1\n      pop\n        /* \"#utility.yul\":23181:23295   */\n      swap2\n      swap1\n      pop\n      jump\t// out\n        /* \"#utility.yul\":23301:23485   */\n    tag_438:\n        /* \"#utility.yul\":23400:23411   */\n      0x00\n        /* \"#utility.yul\":23434:23440   */\n      dup3\n        /* \"#utility.yul\":23429:23432   */\n      dup3\n        /* \"#utility.yul\":23422:23441   */\n      mstore\n        /* \"#utility.yul\":23474:23478   */\n      0x20\n        /* \"#utility.yul\":23469:23472   */\n      dup3\n        /* \"#utility.yul\":23465:23479   */\n      add\n        /* \"#utility.yul\":23450:23479   */\n      swap1\n      pop\n        /* \"#utility.yul\":23301:23485   */\n      swap3\n      swap2\n      pop\n      pop\n      jump\t// out\n        /* \"#utility.yul\":23491:23623   */\n    tag_439:\n        /* \"#utility.yul\":23558:23562   */\n      0x00\n        /* \"#utility.yul\":23581:23584   */\n      dup2\n        /* \"#utility.yul\":23573:23584   */\n      swap1\n      pop\n        /* \"#utility.yul\":23611:23615   */\n      0x20\n        /* \"#utility.yul\":23606:23609   */\n      dup3\n        /* \"#utility.yul\":23602:23616   */\n      add\n        /* \"#utility.yul\":23594:23616   */\n      swap1\n      pop\n        /* \"#utility.yul\":23491:23623   */\n      swap2\n      swap1\n      pop\n      jump\t// out\n        /* \"#utility.yul\":23629:23737   */\n    tag_440:\n        /* \"#utility.yul\":23706:23730   */\n      tag_649\n        /* \"#utility.yul\":23724:23729   */\n      dup2\n        /* \"#utility.yul\":23706:23730   */\n      tag_389\n      jump\t// in\n    tag_649:\n        /* \"#utility.yul\":23701:23704   */\n      dup3\n        /* \"#utility.yul\":23694:23731   */\n      mstore\n        /* \"#utility.yul\":23629:23737   */\n      pop\n      pop\n      jump\t// out\n        /* \"#utility.yul\":23743:23922   */\n    tag_441:\n        /* \"#utility.yul\":23812:23822   */\n      0x00\n        /* \"#utility.yul\":23833:23879   */\n      tag_651\n        /* \"#utility.yul\":23875:23878   */\n      dup4\n        /* \"#utility.yul\":23867:23873   */\n      dup4\n        /* \"#utility.yul\":23833:23879   */\n      tag_440\n      jump\t// in\n    tag_651:\n        /* \"#utility.yul\":23911:23915   */\n      0x20\n        /* \"#utility.yul\":23906:23909   */\n      dup4\n        /* \"#utility.yul\":23902:23916   */\n      add\n        /* \"#utility.yul\":23888:23916   */\n      swap1\n      pop\n        /* \"#utility.yul\":23743:23922   */\n      swap3\n      swap2\n      pop\n      pop\n      jump\t// out\n        /* \"#utility.yul\":23928:24041   */\n    tag_442:\n        /* \"#utility.yul\":23998:24002   */\n      0x00\n        /* \"#utility.yul\":24030:24034   */\n      0x20\n        /* \"#utility.yul\":24025:24028   */\n      dup3\n        /* \"#utility.yul\":24021:24035   */\n      add\n        /* \"#utility.yul\":24013:24035   */\n      swap1\n      pop\n        /* \"#utility.yul\":23928:24041   */\n      swap2\n      swap1\n      pop\n      jump\t// out\n        /* \"#utility.yul\":24077:24809   */\n    tag_443:\n        /* \"#utility.yul\":24196:24199   */\n      0x00\n        /* \"#utility.yul\":24225:24279   */\n      tag_654\n        /* \"#utility.yul\":24273:24278   */\n      dup3\n        /* \"#utility.yul\":24225:24279   */\n      tag_437\n      jump\t// in\n    tag_654:\n        /* \"#utility.yul\":24295:24381   */\n      tag_655\n        /* \"#utility.yul\":24374:24380   */\n      dup2\n        /* \"#utility.yul\":24369:24372   */\n      dup6\n        /* \"#utility.yul\":24295:24381   */\n      tag_438\n      jump\t// in\n    tag_655:\n        /* \"#utility.yul\":24288:24381   */\n      swap4\n      pop\n        /* \"#utility.yul\":24405:24461   */\n      tag_656\n        /* \"#utility.yul\":24455:24460   */\n      dup4\n        /* \"#utility.yul\":24405:24461   */\n      tag_439\n      jump\t// in\n    tag_656:\n        /* \"#utility.yul\":24484:24491   */\n      dup1\n        /* \"#utility.yul\":24515:24516   */\n      0x00\n        /* \"#utility.yul\":24500:24784   */\n    tag_657:\n        /* \"#utility.yul\":24525:24531   */\n      dup4\n        /* \"#utility.yul\":24522:24523   */\n      dup2\n        /* \"#utility.yul\":24519:24532   */\n      lt\n        /* \"#utility.yul\":24500:24784   */\n      iszero\n      tag_659\n      jumpi\n        /* \"#utility.yul\":24601:24607   */\n      dup2\n        /* \"#utility.yul\":24595:24608   */\n      mload\n        /* \"#utility.yul\":24628:24691   */\n      tag_660\n        /* \"#utility.yul\":24687:24690   */\n      dup9\n        /* \"#utility.yul\":24672:24685   */\n      dup3\n        /* \"#utility.yul\":24628:24691   */\n      tag_441\n      jump\t// in\n    tag_660:\n        /* \"#utility.yul\":24621:24691   */\n      swap8\n      pop\n        /* \"#utility.yul\":24714:24774   */\n      tag_661\n        /* \"#utility.yul\":24767:24773   */\n      dup4\n        /* \"#utility.yul\":24714:24774   */\n      tag_442\n      jump\t// in\n    tag_661:\n        /* \"#utility.yul\":24704:24774   */\n      swap3\n      pop\n        /* \"#utility.yul\":24560:24784   */\n      pop\n        /* \"#utility.yul\":24547:24548   */\n      0x01\n        /* \"#utility.yul\":24544:24545   */\n      dup2\n        /* \"#utility.yul\":24540:24549   */\n      add\n        /* \"#utility.yul\":24535:24549   */\n      swap1\n      pop\n        /* \"#utility.yul\":24500:24784   */\n      jump(tag_657)\n    tag_659:\n        /* \"#utility.yul\":24504:24518   */\n      pop\n        /* \"#utility.yul\":24800:24803   */\n      dup6\n        /* \"#utility.yul\":24793:24803   */\n      swap4\n      pop\n        /* \"#utility.yul\":24201:24809   */\n      pop\n      pop\n      pop\n        /* \"#utility.yul\":24077:24809   */\n      swap3\n      swap2\n      pop\n      pop\n      jump\t// out\n        /* \"#utility.yul\":24815:25646   */\n    tag_347:\n        /* \"#utility.yul\":25078:25082   */\n      0x00\n        /* \"#utility.yul\":25116:25119   */\n      0xa0\n        /* \"#utility.yul\":25105:25114   */\n      dup3\n        /* \"#utility.yul\":25101:25120   */\n      add\n        /* \"#utility.yul\":25093:25120   */\n      swap1\n      pop\n        /* \"#utility.yul\":25130:25201   */\n      tag_663\n        /* \"#utility.yul\":25198:25199   */\n      0x00\n        /* \"#utility.yul\":25187:25196   */\n      dup4\n        /* \"#utility.yul\":25183:25200   */\n      add\n        /* \"#utility.yul\":25174:25180   */\n      dup9\n        /* \"#utility.yul\":25130:25201   */\n      tag_379\n      jump\t// in\n    tag_663:\n        /* \"#utility.yul\":25211:25291   */\n      tag_664\n        /* \"#utility.yul\":25287:25289   */\n      0x20\n        /* \"#utility.yul\":25276:25285   */\n      dup4\n        /* \"#utility.yul\":25272:25290   */\n      add\n        /* \"#utility.yul\":25263:25269   */\n      dup8\n        /* \"#utility.yul\":25211:25291   */\n      tag_436\n      jump\t// in\n    tag_664:\n        /* \"#utility.yul\":25338:25347   */\n      dup2\n        /* \"#utility.yul\":25332:25336   */\n      dup2\n        /* \"#utility.yul\":25328:25348   */\n      sub\n        /* \"#utility.yul\":25323:25325   */\n      0x40\n        /* \"#utility.yul\":25312:25321   */\n      dup4\n        /* \"#utility.yul\":25308:25326   */\n      add\n        /* \"#utility.yul\":25301:25349   */\n      mstore\n        /* \"#utility.yul\":25366:25474   */\n      tag_665\n        /* \"#utility.yul\":25469:25473   */\n      dup2\n        /* \"#utility.yul\":25460:25466   */\n      dup7\n        /* \"#utility.yul\":25366:25474   */\n      tag_443\n      jump\t// in\n    tag_665:\n        /* \"#utility.yul\":25358:25474   */\n      swap1\n      pop\n        /* \"#utility.yul\":25484:25556   */\n      tag_666\n        /* \"#utility.yul\":25552:25554   */\n      0x60\n        /* \"#utility.yul\":25541:25550   */\n      dup4\n        /* \"#utility.yul\":25537:25555   */\n      add\n        /* \"#utility.yul\":25528:25534   */\n      dup6\n        /* \"#utility.yul\":25484:25556   */\n      tag_398\n      jump\t// in\n    tag_666:\n        /* \"#utility.yul\":25566:25639   */\n      tag_667\n        /* \"#utility.yul\":25634:25637   */\n      0x80\n        /* \"#utility.yul\":25623:25632   */\n      dup4\n        /* \"#utility.yul\":25619:25638   */\n      add\n        /* \"#utility.yul\":25610:25616   */\n      dup5\n        /* \"#utility.yul\":25566:25639   */\n      tag_379\n      jump\t// in\n    tag_667:\n        /* \"#utility.yul\":24815:25646   */\n      swap7\n      swap6\n      pop\n      pop\n      pop\n      pop\n      pop\n      pop\n      jump\t// out\n        /* \"#utility.yul\":25652:25799   */\n    tag_444:\n        /* \"#utility.yul\":25753:25764   */\n      0x00\n        /* \"#utility.yul\":25790:25793   */\n      dup2\n        /* \"#utility.yul\":25775:25793   */\n      swap1\n      pop\n        /* \"#utility.yul\":25652:25799   */\n      swap3\n      swap2\n      pop\n      pop\n      jump\t// out\n        /* \"#utility.yul\":25805:25919   */\n    tag_445:\n      pop\n      jump\t// out\n        /* \"#utility.yul\":25925:26323   */\n    tag_446:\n        /* \"#utility.yul\":26084:26087   */\n      0x00\n        /* \"#utility.yul\":26105:26188   */\n      tag_671\n        /* \"#utility.yul\":26186:26187   */\n      0x00\n        /* \"#utility.yul\":26181:26184   */\n      dup4\n        /* \"#utility.yul\":26105:26188   */\n      tag_444\n      jump\t// in\n    tag_671:\n        /* \"#utility.yul\":26098:26188   */\n      swap2\n      pop\n        /* \"#utility.yul\":26197:26290   */\n      tag_672\n        /* \"#utility.yul\":26286:26289   */\n      dup3\n        /* \"#utility.yul\":26197:26290   */\n      tag_445\n      jump\t// in\n    tag_672:\n        /* \"#utility.yul\":26315:26316   */\n      0x00\n        /* \"#utility.yul\":26310:26313   */\n      dup3\n        /* \"#utility.yul\":26306:26317   */\n      add\n        /* \"#utility.yul\":26299:26317   */\n      swap1\n      pop\n        /* \"#utility.yul\":25925:26323   */\n      swap2\n      swap1\n      pop\n      jump\t// out\n        /* \"#utility.yul\":26329:26708   */\n    tag_357:\n        /* \"#utility.yul\":26513:26516   */\n      0x00\n        /* \"#utility.yul\":26535:26682   */\n      tag_674\n        /* \"#utility.yul\":26678:26681   */\n      dup3\n        /* \"#utility.yul\":26535:26682   */\n      tag_446\n      jump\t// in\n    tag_674:\n        /* \"#utility.yul\":26528:26682   */\n      swap2\n      pop\n        /* \"#utility.yul\":26699:26702   */\n      dup2\n        /* \"#utility.yul\":26692:26702   */\n      swap1\n      pop\n        /* \"#utility.yul\":26329:26708   */\n      swap2\n      swap1\n      pop\n      jump\t// out\n        /* \"#utility.yul\":26714:27124   */\n    tag_371:\n        /* \"#utility.yul\":26754:26761   */\n      0x00\n        /* \"#utility.yul\":26777:26797   */\n      tag_676\n        /* \"#utility.yul\":26795:26796   */\n      dup3\n        /* \"#utility.yul\":26777:26797   */\n      tag_378\n      jump\t// in\n    tag_676:\n        /* \"#utility.yul\":26772:26797   */\n      swap2\n      pop\n        /* \"#utility.yul\":26811:26831   */\n      tag_677\n        /* \"#utility.yul\":26829:26830   */\n      dup4\n        /* \"#utility.yul\":26811:26831   */\n      tag_378\n      jump\t// in\n    tag_677:\n        /* \"#utility.yul\":26806:26831   */\n      swap3\n      pop\n        /* \"#utility.yul\":26866:26867   */\n      dup3\n        /* \"#utility.yul\":26863:26864   */\n      dup3\n        /* \"#utility.yul\":26859:26868   */\n      mul\n        /* \"#utility.yul\":26888:26918   */\n      tag_678\n        /* \"#utility.yul\":26906:26917   */\n      dup2\n        /* \"#utility.yul\":26888:26918   */\n      tag_378\n      jump\t// in\n    tag_678:\n        /* \"#utility.yul\":26877:26918   */\n      swap2\n      pop\n        /* \"#utility.yul\":27067:27068   */\n      dup3\n        /* \"#utility.yul\":27058:27065   */\n      dup3\n        /* \"#utility.yul\":27054:27069   */\n      div\n        /* \"#utility.yul\":27051:27052   */\n      dup5\n        /* \"#utility.yul\":27048:27070   */\n      eq\n        /* \"#utility.yul\":27028:27029   */\n      dup4\n        /* \"#utility.yul\":27021:27030   */\n      iszero\n        /* \"#utility.yul\":27001:27084   */\n      or\n        /* \"#utility.yul\":26978:27117   */\n      tag_679\n      jumpi\n        /* \"#utility.yul\":27097:27115   */\n      tag_680\n      tag_404\n      jump\t// in\n    tag_680:\n        /* \"#utility.yul\":26978:27117   */\n    tag_679:\n        /* \"#utility.yul\":26762:27124   */\n      pop\n        /* \"#utility.yul\":26714:27124   */\n      swap3\n      swap2\n      pop\n      pop\n      jump\t// out\n        /* \"#utility.yul\":27130:27310   */\n    tag_447:\n        /* \"#utility.yul\":27178:27255   */\n      0x4e487b7100000000000000000000000000000000000000000000000000000000\n        /* \"#utility.yul\":27175:27176   */\n      0x00\n        /* \"#utility.yul\":27168:27256   */\n      mstore\n        /* \"#utility.yul\":27275:27279   */\n      0x12\n        /* \"#utility.yul\":27272:27273   */\n      0x04\n        /* \"#utility.yul\":27265:27280   */\n      mstore\n        /* \"#utility.yul\":27299:27303   */\n      0x24\n        /* \"#utility.yul\":27296:27297   */\n      0x00\n        /* \"#utility.yul\":27289:27304   */\n      revert\n        /* \"#utility.yul\":27316:27501   */\n    tag_373:\n        /* \"#utility.yul\":27356:27357   */\n      0x00\n        /* \"#utility.yul\":27373:27393   */\n      tag_683\n        /* \"#utility.yul\":27391:27392   */\n      dup3\n        /* \"#utility.yul\":27373:27393   */\n      tag_378\n      jump\t// in\n    tag_683:\n        /* \"#utility.yul\":27368:27393   */\n      swap2\n      pop\n        /* \"#utility.yul\":27407:27427   */\n      tag_684\n        /* \"#utility.yul\":27425:27426   */\n      dup4\n        /* \"#utility.yul\":27407:27427   */\n      tag_378\n      jump\t// in\n    tag_684:\n        /* \"#utility.yul\":27402:27427   */\n      swap3\n      pop\n        /* \"#utility.yul\":27446:27447   */\n      dup3\n        /* \"#utility.yul\":27436:27471   */\n      tag_685\n      jumpi\n        /* \"#utility.yul\":27451:27469   */\n      tag_686\n      tag_447\n      jump\t// in\n    tag_686:\n        /* \"#utility.yul\":27436:27471   */\n    tag_685:\n        /* \"#utility.yul\":27493:27494   */\n      dup3\n        /* \"#utility.yul\":27490:27491   */\n      dup3\n        /* \"#utility.yul\":27486:27495   */\n      div\n        /* \"#utility.yul\":27481:27495   */\n      swap1\n      pop\n        /* \"#utility.yul\":27316:27501   */\n      swap3\n      swap2\n      pop\n      pop\n      jump\t// out\n\n    auxdata: 0xa26469706673582212206ec292604b6468605225e112d35aad8bd29ffc3f2b310bc4dc6f6a4cc86925ef64736f6c63430008130033\n}\n",
				"bytecode": {
					"linkReferences": {},
					"object": "60806040526000600760006101000a81548160ff021916908315150217905550611388600855606460095560c86a084595161401484a000000620000449190620009dc565b600a5560c86a084595161401484a000000620000619190620009dc565b600b557316626afb636ca096963420c09e28add5c3a1ebc5600c60006101000a81548173ffffffffffffffffffffffffffffffffffffffff021916908373ffffffffffffffffffffffffffffffffffffffff160217905550348015620000c657600080fd5b50620000e7620000db6200076d60201b60201c565b6200077560201b60201c565b6001600260003373ffffffffffffffffffffffffffffffffffffffff1673ffffffffffffffffffffffffffffffffffffffff16815260200190815260200160002060006101000a81548160ff0219169083151502179055506001600260003073ffffffffffffffffffffffffffffffffffffffff1673ffffffffffffffffffffffffffffffffffffffff16815260200190815260200160002060006101000a81548160ff021916908315150217905550600160026000600c60009054906101000a900473ffffffffffffffffffffffffffffffffffffffff1673ffffffffffffffffffffffffffffffffffffffff1673ffffffffffffffffffffffffffffffffffffffff16815260200190815260200160002060006101000a81548160ff02191690831515021790555060016002600061dead73ffffffffffffffffffffffffffffffffffffffff1673ffffffffffffffffffffffffffffffffffffffff16815260200190815260200160002060006101000a81548160ff021916908315150217905550600160066000736b75d8af000000e20b7a7ddf000ba900b4009a8073ffffffffffffffffffffffffffffffffffffffff1673ffffffffffffffffffffffffffffffffffffffff16815260200190815260200160002060006101000a81548160ff02191690831515021790555060016006600073ae2fc483527b8ef99eb5d9b44875f005ba1fae1373ffffffffffffffffffffffffffffffffffffffff1673ffffffffffffffffffffffffffffffffffffffff16815260200190815260200160002060006101000a81548160ff021916908315150217905550737a250d5630b4cf539739df2c5dacb4c659f2488d600d60006101000a81548173ffffffffffffffffffffffffffffffffffffffff021916908373ffffffffffffffffffffffffffffffffffffffff1602179055506a084595161401484a000000600460003373ffffffffffffffffffffffffffffffffffffffff1673ffffffffffffffffffffffffffffffffffffffff168152602001908152602001600020819055503373ffffffffffffffffffffffffffffffffffffffff16600073ffffffffffffffffffffffffffffffffffffffff167fddf252ad1be2c89b69c2b068fc378daa952ba7f163c4a11628f55a4df523b3ef6a084595161401484a00000060405162000452919062000a25565b60405180910390a3600d60009054906101000a900473ffffffffffffffffffffffffffffffffffffffff1673ffffffffffffffffffffffffffffffffffffffff1663c45a01556040518163ffffffff1660e01b8152600401602060405180830381865afa158015620004c8573d6000803e3d6000fd5b505050506040513d601f19601f82011682018060405250810190620004ee919062000aac565b73ffffffffffffffffffffffffffffffffffffffff1663c9c65396600d60009054906101000a900473ffffffffffffffffffffffffffffffffffffffff1673ffffffffffffffffffffffffffffffffffffffff1663ad5c46486040518163ffffffff1660e01b8152600401602060405180830381865afa15801562000577573d6000803e3d6000fd5b505050506040513d601f19601f820116820180604052508101906200059d919062000aac565b306040518363ffffffff1660e01b8152600401620005bd92919062000aef565b6020604051808303816000875af1158015620005dd573d6000803e3d6000fd5b505050506040513d601f19601f8201168201806040525081019062000603919062000aac565b600e60006101000a81548173ffffffffffffffffffffffffffffffffffffffff021916908373ffffffffffffffffffffffffffffffffffffffff160217905550600160036000600e60009054906101000a900473ffffffffffffffffffffffffffffffffffffffff1673ffffffffffffffffffffffffffffffffffffffff1673ffffffffffffffffffffffffffffffffffffffff16815260200190815260200160002060006101000a81548160ff0219169083151502179055506200071233600d60009054906101000a900473ffffffffffffffffffffffffffffffffffffffff167fffffffffffffffffffffffffffffffffffffffffffffffffffffffffffffffff6200083960201b60201c565b6200076730600d60009054906101000a900473ffffffffffffffffffffffffffffffffffffffff167fffffffffffffffffffffffffffffffffffffffffffffffffffffffffffffffff6200083960201b60201c565b62000b9f565b600033905090565b60008060009054906101000a900473ffffffffffffffffffffffffffffffffffffffff169050816000806101000a81548173ffffffffffffffffffffffffffffffffffffffff021916908373ffffffffffffffffffffffffffffffffffffffff1602179055508173ffffffffffffffffffffffffffffffffffffffff168173ffffffffffffffffffffffffffffffffffffffff167f8be0079c531659141344cd1fd0a4f28419497f9722a3daafe3b4186f6b6457e060405160405180910390a35050565b600073ffffffffffffffffffffffffffffffffffffffff168373ffffffffffffffffffffffffffffffffffffffff1603620008ab576040517f08c379a0000000000000000000000000000000000000000000000000000000008152600401620008a29062000b7d565b60405180910390fd5b600073ffffffffffffffffffffffffffffffffffffffff168273ffffffffffffffffffffffffffffffffffffffff16036200091d576040517f08c379a0000000000000000000000000000000000000000000000000000000008152600401620009149062000b7d565b60405180910390fd5b80600160008573ffffffffffffffffffffffffffffffffffffffff1673ffffffffffffffffffffffffffffffffffffffff16815260200190815260200160002060008473ffffffffffffffffffffffffffffffffffffffff1673ffffffffffffffffffffffffffffffffffffffff16815260200190815260200160002081905550505050565b6000819050919050565b7f4e487b7100000000000000000000000000000000000000000000000000000000600052601260045260246000fd5b6000620009e982620009a3565b9150620009f683620009a3565b92508262000a095762000a08620009ad565b5b828204905092915050565b62000a1f81620009a3565b82525050565b600060208201905062000a3c600083018462000a14565b92915050565b600080fd5b600073ffffffffffffffffffffffffffffffffffffffff82169050919050565b600062000a748262000a47565b9050919050565b62000a868162000a67565b811462000a9257600080fd5b50565b60008151905062000aa68162000a7b565b92915050565b60006020828403121562000ac55762000ac462000a42565b5b600062000ad58482850162000a95565b91505092915050565b62000ae98162000a67565b82525050565b600060408201905062000b06600083018562000ade565b62000b15602083018462000ade565b9392505050565b600082825260208201905092915050565b7f45524332303a205a65726f204164647265737300000000000000000000000000600082015250565b600062000b6560138362000b1c565b915062000b728262000b2d565b602082019050919050565b6000602082019050818103600083015262000b988162000b56565b9050919050565b6133848062000baf6000396000f3fe6080604052600436106101e75760003560e01c8063893d20e811610102578063c2e4ef7911610095578063dc9d75b011610064578063dc9d75b0146106f1578063dd62ed3e1461071c578063e9451f5f14610759578063f2fde38b14610784576101ee565b8063c2e4ef7914610635578063c31c9c0714610672578063c876d0b91461069d578063ce004a07146106c8576101ee565b8063a01c3483116100d1578063a01c348314610567578063a2747da214610592578063a9059cbb146105bb578063c226de76146105f8576101ee565b8063893d20e8146104bb5780638da5cb5b146104e65780638f9a55c01461051157806395d89b411461053c576101ee565b8063452ed4f11161017a57806370a082311161014957806370a0823114610413578063715018a614610450578063771af866146104675780637d1db4a514610490576101ee565b8063452ed4f11461037f5780634c1b4031146103aa57806351bc3c85146103d3578063694e80c3146103ea576101ee565b806323b872dd116101b657806323b872dd146102b157806327889862146102ee57806330db2c121461032b578063313ce56714610354576101ee565b80630445b667146101f357806306fdde031461021e578063095ea7b31461024957806318160ddd14610286576101ee565b366101ee57005b600080fd5b3480156101ff57600080fd5b506102086107ad565b6040516102159190612550565b60405180910390f35b34801561022a57600080fd5b506102336107b3565b60405161024091906125fb565b60405180910390f35b34801561025557600080fd5b50610270600480360381019061026b91906126ac565b6107f0565b60405161027d9190612707565b60405180910390f35b34801561029257600080fd5b5061029b610807565b6040516102a89190612550565b60405180910390f35b3480156102bd57600080fd5b506102d860048036038101906102d39190612722565b610831565b6040516102e59190612707565b60405180910390f35b3480156102fa57600080fd5b5061031560048036038101906103109190612775565b61097e565b6040516103229190612707565b60405180910390f35b34801561033757600080fd5b50610352600480360381019061034d91906127a2565b6109d4565b005b34801561036057600080fd5b50610369610ab2565b60405161037691906127eb565b60405180910390f35b34801561038b57600080fd5b50610394610ad2565b6040516103a19190612815565b60405180910390f35b3480156103b657600080fd5b506103d160048036038101906103cc9190612775565b610af8565b005b3480156103df57600080fd5b506103e8610be3565b005b3480156103f657600080fd5b50610411600480360381019061040c91906127a2565b610c67565b005b34801561041f57600080fd5b5061043a60048036038101906104359190612775565b610d7e565b6040516104479190612550565b60405180910390f35b34801561045c57600080fd5b50610465610dc7565b005b34801561047357600080fd5b5061048e60048036038101906104899190612775565b610e4f565b005b34801561049c57600080fd5b506104a5610f3a565b6040516104b29190612550565b60405180910390f35b3480156104c757600080fd5b506104d0610f40565b6040516104dd9190612815565b60405180910390f35b3480156104f257600080fd5b506104fb610f4f565b6040516105089190612815565b60405180910390f35b34801561051d57600080fd5b50610526610f78565b6040516105339190612550565b60405180910390f35b34801561054857600080fd5b50610551610f7e565b60405161055e91906125fb565b60405180910390f35b34801561057357600080fd5b5061057c610fbb565b6040516105899190612815565b60405180910390f35b34801561059e57600080fd5b506105b960048036038101906105b49190612775565b610fc1565b005b3480156105c757600080fd5b506105e260048036038101906105dd91906126ac565b61111b565b6040516105ef9190612707565b60405180910390f35b34801561060457600080fd5b5061061f600480360381019061061a9190612775565b611133565b60405161062c9190612707565b60405180910390f35b34801561064157600080fd5b5061065c60048036038101906106579190612775565b611189565b6040516106699190612707565b60405180910390f35b34801561067e57600080fd5b506106876111df565b604051610694919061288f565b60405180910390f35b3480156106a957600080fd5b506106b2611205565b6040516106bf9190612707565b60405180910390f35b3480156106d457600080fd5b506106ef60048036038101906106ea9190612775565b611218565b005b3480156106fd57600080fd5b50610706611372565b6040516107139190612550565b60405180910390f35b34801561072857600080fd5b50610743600480360381019061073e91906128aa565b611377565b6040516107509190612550565b60405180910390f35b34801561076557600080fd5b5061076e6113fe565b60405161077b9190612550565b60405180910390f35b34801561079057600080fd5b506107ab60048036038101906107a69190612775565b611403565b005b60085481565b60606040518060400160405280600881526020017f4f6e6520416e6f6e000000000000000000000000000000000000000000000000815250905090565b60006107fd3384846114fa565b6001905092915050565b6000806a084595161401484a0000000361082057600080fd5b6a084595161401484a000000905090565b60007fffffffffffffffffffffffffffffffffffffffffffffffffffffffffffffffff600160008673ffffffffffffffffffffffffffffffffffffffff1673ffffffffffffffffffffffffffffffffffffffff16815260200190815260200160002060003373ffffffffffffffffffffffffffffffffffffffff1673ffffffffffffffffffffffffffffffffffffffff168152602001908152602001600020541461096a5781600160008673ffffffffffffffffffffffffffffffffffffffff1673ffffffffffffffffffffffffffffffffffffffff16815260200190815260200160002060003373ffffffffffffffffffffffffffffffffffffffff1673ffffffffffffffffffffffffffffffffffffffff16815260200190815260200160002060008282546109629190612919565b925050819055505b61097584848461165e565b90509392505050565b6000600260008373ffffffffffffffffffffffffffffffffffffffff1673ffffffffffffffffffffffffffffffffffffffff16815260200190815260200160002060009054906101000a900460ff169050919050565b600c60009054906101000a900473ffffffffffffffffffffffffffffffffffffffff1673ffffffffffffffffffffffffffffffffffffffff163373ffffffffffffffffffffffffffffffffffffffff1614610a64576040517f08c379a0000000000000000000000000000000000000000000000000000000008152600401610a5b906129bf565b60405180910390fd5b6064811115610aa8576040517f08c379a0000000000000000000000000000000000000000000000000000000008152600401610a9f90612a2b565b60405180910390fd5b8060098190555050565b6000806a084595161401484a00000003610acb57600080fd5b6012905090565b600e60009054906101000a900473ffffffffffffffffffffffffffffffffffffffff1681565b600c60009054906101000a900473ffffffffffffffffffffffffffffffffffffffff1673ffffffffffffffffffffffffffffffffffffffff163373ffffffffffffffffffffffffffffffffffffffff1614610b88576040517f08c379a0000000000000000000000000000000000000000000000000000000008152600401610b7f90612abd565b60405180910390fd5b6000600260008373ffffffffffffffffffffffffffffffffffffffff1673ffffffffffffffffffffffffffffffffffffffff16815260200190815260200160002060006101000a81548160ff02191690831515021790555050565b600c60009054906101000a900473ffffffffffffffffffffffffffffffffffffffff1673ffffffffffffffffffffffffffffffffffffffff16610c24611dc4565b73ffffffffffffffffffffffffffffffffffffffff1614610c4457600080fd5b6000610c4f30610d7e565b90506008548110610c6457610c6381611dcc565b5b50565b600c60009054906101000a900473ffffffffffffffffffffffffffffffffffffffff1673ffffffffffffffffffffffffffffffffffffffff163373ffffffffffffffffffffffffffffffffffffffff1614610cf7576040517f08c379a0000000000000000000000000000000000000000000000000000000008152600401610cee90612abd565b60405180910390fd5b6064811015610d3b576040517f08c379a0000000000000000000000000000000000000000000000000000000008152600401610d3290612b29565b60405180910390fd5b806008819055507f2b7ce9cd4278161eef9245955c9a851618488a07e830194c60a88f0224ad3cc0600854604051610d739190612550565b60405180910390a150565b6000600460008373ffffffffffffffffffffffffffffffffffffffff1673ffffffffffffffffffffffffffffffffffffffff168152602001908152602001600020549050919050565b610dcf611dc4565b73ffffffffffffffffffffffffffffffffffffffff16610ded610f4f565b73ffffffffffffffffffffffffffffffffffffffff1614610e43576040517f08c379a0000000000000000000000000000000000000000000000000000000008152600401610e3a90612b95565b60405180910390fd5b610e4d600061223f565b565b600c60009054906101000a900473ffffffffffffffffffffffffffffffffffffffff1673ffffffffffffffffffffffffffffffffffffffff163373ffffffffffffffffffffffffffffffffffffffff1614610edf576040517f08c379a0000000000000000000000000000000000000000000000000000000008152600401610ed690612abd565b60405180910390fd5b6000600660008373ffffffffffffffffffffffffffffffffffffffff1673ffffffffffffffffffffffffffffffffffffffff16815260200190815260200160002060006101000a81548160ff02191690831515021790555050565b600a5481565b6000610f4a610f4f565b905090565b60008060009054906101000a900473ffffffffffffffffffffffffffffffffffffffff16905090565b600b5481565b60606040518060400160405280600481526020017f244f415400000000000000000000000000000000000000000000000000000000815250905090565b61dead81565b600c60009054906101000a900473ffffffffffffffffffffffffffffffffffffffff1673ffffffffffffffffffffffffffffffffffffffff163373ffffffffffffffffffffffffffffffffffffffff1614611051576040517f08c379a000000000000000000000000000000000000000000000000000000000815260040161104890612abd565b60405180910390fd5b600073ffffffffffffffffffffffffffffffffffffffff168173ffffffffffffffffffffffffffffffffffffffff16036110c0576040517f08c379a00000000000000000000000000000000000000000000000000000000081526004016110b790612c01565b60405180910390fd5b6001600660008373ffffffffffffffffffffffffffffffffffffffff1673ffffffffffffffffffffffffffffffffffffffff16815260200190815260200160002060006101000a81548160ff02191690831515021790555050565b600061112833848461165e565b506001905092915050565b6000600260008373ffffffffffffffffffffffffffffffffffffffff1673ffffffffffffffffffffffffffffffffffffffff16815260200190815260200160002060009054906101000a900460ff169050919050565b6000600660008373ffffffffffffffffffffffffffffffffffffffff1673ffffffffffffffffffffffffffffffffffffffff16815260200190815260200160002060009054906101000a900460ff169050919050565b600d60009054906101000a900473ffffffffffffffffffffffffffffffffffffffff1681565b600760009054906101000a900460ff1681565b600c60009054906101000a900473ffffffffffffffffffffffffffffffffffffffff1673ffffffffffffffffffffffffffffffffffffffff163373ffffffffffffffffffffffffffffffffffffffff16146112a8576040517f08c379a000000000000000000000000000000000000000000000000000000000815260040161129f90612abd565b60405180910390fd5b600073ffffffffffffffffffffffffffffffffffffffff168173ffffffffffffffffffffffffffffffffffffffff1603611317576040517f08c379a000000000000000000000000000000000000000000000000000000000815260040161130e90612c01565b60405180910390fd5b6001600260008373ffffffffffffffffffffffffffffffffffffffff1673ffffffffffffffffffffffffffffffffffffffff16815260200190815260200160002060006101000a81548160ff02191690831515021790555050565b606481565b6000600160008473ffffffffffffffffffffffffffffffffffffffff1673ffffffffffffffffffffffffffffffffffffffff16815260200190815260200160002060008373ffffffffffffffffffffffffffffffffffffffff1673ffffffffffffffffffffffffffffffffffffffff16815260200190815260200160002054905092915050565b600281565b61140b611dc4565b73ffffffffffffffffffffffffffffffffffffffff16611429610f4f565b73ffffffffffffffffffffffffffffffffffffffff161461147f576040517f08c379a000000000000000000000000000000000000000000000000000000000815260040161147690612b95565b60405180910390fd5b600073ffffffffffffffffffffffffffffffffffffffff168173ffffffffffffffffffffffffffffffffffffffff16036114ee576040517f08c379a00000000000000000000000000000000000000000000000000000000081526004016114e590612c93565b60405180910390fd5b6114f78161223f565b50565b600073ffffffffffffffffffffffffffffffffffffffff168373ffffffffffffffffffffffffffffffffffffffff1603611569576040517f08c379a000000000000000000000000000000000000000000000000000000000815260040161156090612cff565b60405180910390fd5b600073ffffffffffffffffffffffffffffffffffffffff168273ffffffffffffffffffffffffffffffffffffffff16036115d8576040517f08c379a00000000000000000000000000000000000000000000000000000000081526004016115cf90612cff565b60405180910390fd5b80600160008573ffffffffffffffffffffffffffffffffffffffff1673ffffffffffffffffffffffffffffffffffffffff16815260200190815260200160002060008473ffffffffffffffffffffffffffffffffffffffff1673ffffffffffffffffffffffffffffffffffffffff16815260200190815260200160002081905550505050565b60008060019050600073ffffffffffffffffffffffffffffffffffffffff168473ffffffffffffffffffffffffffffffffffffffff16036116d4576040517f08c379a00000000000000000000000000000000000000000000000000000000081526004016116cb90612d91565b60405180910390fd5b600073ffffffffffffffffffffffffffffffffffffffff168573ffffffffffffffffffffffffffffffffffffffff1603611743576040517f08c379a000000000000000000000000000000000000000000000000000000000815260040161173a90612e23565b60405180910390fd5b60008311611786576040517f08c379a000000000000000000000000000000000000000000000000000000000815260040161177d90612eb5565b60405180910390fd5b61178e610f4f565b73ffffffffffffffffffffffffffffffffffffffff168573ffffffffffffffffffffffffffffffffffffffff16141580156117fc57506117cc610f4f565b73ffffffffffffffffffffffffffffffffffffffff168473ffffffffffffffffffffffffffffffffffffffff1614155b15611db857600760009054906101000a900460ff161561198e57600d60009054906101000a900473ffffffffffffffffffffffffffffffffffffffff1673ffffffffffffffffffffffffffffffffffffffff168473ffffffffffffffffffffffffffffffffffffffff16141580156118c25750600e60009054906101000a900473ffffffffffffffffffffffffffffffffffffffff1673ffffffffffffffffffffffffffffffffffffffff168473ffffffffffffffffffffffffffffffffffffffff1614155b1561198d5743600560003273ffffffffffffffffffffffffffffffffffffffff1673ffffffffffffffffffffffffffffffffffffffff1681526020019081526020016000205410611948576040517f08c379a000000000000000000000000000000000000000000000000000000000815260040161193f90612f47565b60405180910390fd5b43600560003273ffffffffffffffffffffffffffffffffffffffff1673ffffffffffffffffffffffffffffffffffffffff168152602001908152602001600020819055505b5b600e60009054906101000a900473ffffffffffffffffffffffffffffffffffffffff1673ffffffffffffffffffffffffffffffffffffffff168573ffffffffffffffffffffffffffffffffffffffff16148015611a395750600d60009054906101000a900473ffffffffffffffffffffffffffffffffffffffff1673ffffffffffffffffffffffffffffffffffffffff168473ffffffffffffffffffffffffffffffffffffffff1614155b8015611a935750600e60009054906101000a900473ffffffffffffffffffffffffffffffffffffffff1673ffffffffffffffffffffffffffffffffffffffff168473ffffffffffffffffffffffffffffffffffffffff1614155b8015611ae95750600260008573ffffffffffffffffffffffffffffffffffffffff1673ffffffffffffffffffffffffffffffffffffffff16815260200190815260200160002060009054906101000a900460ff16155b15611b8c57600a54831115611b33576040517f08c379a0000000000000000000000000000000000000000000000000000000008152600401611b2a90612fb3565b60405180910390fd5b600b5483611b4086610d7e565b611b4a9190612fd3565b1115611b8b576040517f08c379a0000000000000000000000000000000000000000000000000000000008152600401611b8290613053565b60405180910390fd5b5b611b968585612303565b8015611baf5750600e60149054906101000a900460ff16155b15611bd6576000611bbf30610d7e565b90506008548110611bd457611bd381611dcc565b5b505b600260008673ffffffffffffffffffffffffffffffffffffffff1673ffffffffffffffffffffffffffffffffffffffff16815260200190815260200160002060009054906101000a900460ff1680611c775750600260008573ffffffffffffffffffffffffffffffffffffffff1673ffffffffffffffffffffffffffffffffffffffff16815260200190815260200160002060009054906101000a900460ff165b15611c8157600090505b82600460008773ffffffffffffffffffffffffffffffffffffffff1673ffffffffffffffffffffffffffffffffffffffff1681526020019081526020016000206000828254611cd09190612919565b92505081905550600081611ce45783611cf9565b611cf886611cf28888612303565b866123b5565b5b905080600460008773ffffffffffffffffffffffffffffffffffffffff1673ffffffffffffffffffffffffffffffffffffffff1681526020019081526020016000206000828254611d4a9190612fd3565b925050819055508473ffffffffffffffffffffffffffffffffffffffff168673ffffffffffffffffffffffffffffffffffffffff167fddf252ad1be2c89b69c2b068fc378daa952ba7f163c4a11628f55a4df523b3ef83604051611dae9190612550565b60405180910390a3505b60019150509392505050565b600033905090565b6001600e60146101000a81548160ff0219169083151502179055506000600267ffffffffffffffff811115611e0457611e03613073565b5b604051908082528060200260200182016040528015611e325781602001602082028036833780820191505090505b5090503081600081518110611e4a57611e496130a2565b5b602002602001019073ffffffffffffffffffffffffffffffffffffffff16908173ffffffffffffffffffffffffffffffffffffffff1681525050600d60009054906101000a900473ffffffffffffffffffffffffffffffffffffffff1673ffffffffffffffffffffffffffffffffffffffff1663ad5c46486040518163ffffffff1660e01b8152600401602060405180830381865afa158015611ef1573d6000803e3d6000fd5b505050506040513d601f19601f82011682018060405250810190611f1591906130e6565b81600181518110611f2957611f286130a2565b5b602002602001019073ffffffffffffffffffffffffffffffffffffffff16908173ffffffffffffffffffffffffffffffffffffffff16815250507fffffffffffffffffffffffffffffffffffffffffffffffffffffffffffffffff600160003073ffffffffffffffffffffffffffffffffffffffff1673ffffffffffffffffffffffffffffffffffffffff1681526020019081526020016000206000600d60009054906101000a900473ffffffffffffffffffffffffffffffffffffffff1673ffffffffffffffffffffffffffffffffffffffff1673ffffffffffffffffffffffffffffffffffffffff16815260200190815260200160002054146120ec577fffffffffffffffffffffffffffffffffffffffffffffffffffffffffffffffff600160003073ffffffffffffffffffffffffffffffffffffffff1673ffffffffffffffffffffffffffffffffffffffff1681526020019081526020016000206000600d60009054906101000a900473ffffffffffffffffffffffffffffffffffffffff1673ffffffffffffffffffffffffffffffffffffffff1673ffffffffffffffffffffffffffffffffffffffff168152602001908152602001600020819055505b600d60009054906101000a900473ffffffffffffffffffffffffffffffffffffffff1673ffffffffffffffffffffffffffffffffffffffff1663791ac9478360008430426040518663ffffffff1660e01b815260040161215095949392919061320c565b600060405180830381600087803b15801561216a57600080fd5b505af192505050801561217b575060015b6121855750612221565b60008047111561221e57600c60009054906101000a900473ffffffffffffffffffffffffffffffffffffffff1673ffffffffffffffffffffffffffffffffffffffff16476040516121d590613297565b60006040518083038185875af1925050503d8060008114612212576040519150601f19603f3d011682016040523d82523d6000602084013e612217565b606091505b5050809150505b50505b6000600e60146101000a81548160ff02191690831515021790555050565b60008060009054906101000a900473ffffffffffffffffffffffffffffffffffffffff169050816000806101000a81548173ffffffffffffffffffffffffffffffffffffffff021916908373ffffffffffffffffffffffffffffffffffffffff1602179055508173ffffffffffffffffffffffffffffffffffffffff168173ffffffffffffffffffffffffffffffffffffffff167f8be0079c531659141344cd1fd0a4f28419497f9722a3daafe3b4186f6b6457e060405160405180910390a35050565b600080600360008473ffffffffffffffffffffffffffffffffffffffff1673ffffffffffffffffffffffffffffffffffffffff16815260200190815260200160002060009054906101000a900460ff1680156123a95750600360008573ffffffffffffffffffffffffffffffffffffffff1673ffffffffffffffffffffffffffffffffffffffff16815260200190815260200160002060009054906101000a900460ff16155b90508091505092915050565b600080600090508380156124125750600660008673ffffffffffffffffffffffffffffffffffffffff1673ffffffffffffffffffffffffffffffffffffffff16815260200190815260200160002060009054906101000a900460ff165b1561242157600954905061242d565b831561242c57600290505b5b6000810361243e5782915050612530565b60006064828561244e91906132ac565b612458919061331d565b9050600081111561251f5780600460003073ffffffffffffffffffffffffffffffffffffffff1673ffffffffffffffffffffffffffffffffffffffff16815260200190815260200160002060008282546124b29190612fd3565b925050819055503073ffffffffffffffffffffffffffffffffffffffff168673ffffffffffffffffffffffffffffffffffffffff167fddf252ad1be2c89b69c2b068fc378daa952ba7f163c4a11628f55a4df523b3ef836040516125169190612550565b60405180910390a35b808461252b9190612919565b925050505b9392505050565b6000819050919050565b61254a81612537565b82525050565b60006020820190506125656000830184612541565b92915050565b600081519050919050565b600082825260208201905092915050565b60005b838110156125a557808201518184015260208101905061258a565b60008484015250505050565b6000601f19601f8301169050919050565b60006125cd8261256b565b6125d78185612576565b93506125e7818560208601612587565b6125f0816125b1565b840191505092915050565b6000602082019050818103600083015261261581846125c2565b905092915050565b600080fd5b600073ffffffffffffffffffffffffffffffffffffffff82169050919050565b600061264d82612622565b9050919050565b61265d81612642565b811461266857600080fd5b50565b60008135905061267a81612654565b92915050565b61268981612537565b811461269457600080fd5b50565b6000813590506126a681612680565b92915050565b600080604083850312156126c3576126c261261d565b5b60006126d18582860161266b565b92505060206126e285828601612697565b9150509250929050565b60008115159050919050565b612701816126ec565b82525050565b600060208201905061271c60008301846126f8565b92915050565b60008060006060848603121561273b5761273a61261d565b5b60006127498682870161266b565b935050602061275a8682870161266b565b925050604061276b86828701612697565b9150509250925092565b60006020828403121561278b5761278a61261d565b5b60006127998482850161266b565b91505092915050565b6000602082840312156127b8576127b761261d565b5b60006127c684828501612697565b91505092915050565b600060ff82169050919050565b6127e5816127cf565b82525050565b600060208201905061280060008301846127dc565b92915050565b61280f81612642565b82525050565b600060208201905061282a6000830184612806565b92915050565b6000819050919050565b600061285561285061284b84612622565b612830565b612622565b9050919050565b60006128678261283a565b9050919050565b60006128798261285c565b9050919050565b6128898161286e565b82525050565b60006020820190506128a46000830184612880565b92915050565b600080604083850312156128c1576128c061261d565b5b60006128cf8582860161266b565b92505060206128e08582860161266b565b9150509250929050565b7f4e487b7100000000000000000000000000000000000000000000000000000000600052601160045260246000fd5b600061292482612537565b915061292f83612537565b9250828203905081811115612947576129466128ea565b5b92915050565b7f4f6e6c7920417574686f726973656420616464726573732063616e206d6f646960008201527f667920746865204a617265646665652100000000000000000000000000000000602082015250565b60006129a9603083612576565b91506129b48261294d565b604082019050919050565b600060208201905081810360008301526129d88161299c565b9050919050565b7f466565206d757374206265203c3d203130300000000000000000000000000000600082015250565b6000612a15601283612576565b9150612a20826129df565b602082019050919050565b60006020820190508181036000830152612a4481612a08565b9050919050565b7f43616c6c6572206973206e6f742074686520617574686f72697365642061646460008201527f7265737321000000000000000000000000000000000000000000000000000000602082015250565b6000612aa7602583612576565b9150612ab282612a4b565b604082019050919050565b60006020820190508181036000830152612ad681612a9a565b9050919050565b7f416d6f756e74206d757374206265203e3d203130300000000000000000000000600082015250565b6000612b13601583612576565b9150612b1e82612add565b602082019050919050565b60006020820190508181036000830152612b4281612b06565b9050919050565b7f4f776e61626c653a2063616c6c6572206973206e6f7420746865206f776e6572600082015250565b6000612b7f602083612576565b9150612b8a82612b49565b602082019050919050565b60006020820190508181036000830152612bae81612b72565b9050919050565b7f496e76616c696420616464726573730000000000000000000000000000000000600082015250565b6000612beb600f83612576565b9150612bf682612bb5565b602082019050919050565b60006020820190508181036000830152612c1a81612bde565b9050919050565b7f4f776e61626c653a206e6577206f776e657220697320746865207a65726f206160008201527f6464726573730000000000000000000000000000000000000000000000000000602082015250565b6000612c7d602683612576565b9150612c8882612c21565b604082019050919050565b60006020820190508181036000830152612cac81612c70565b9050919050565b7f45524332303a205a65726f204164647265737300000000000000000000000000600082015250565b6000612ce9601383612576565b9150612cf482612cb3565b602082019050919050565b60006020820190508181036000830152612d1881612cdc565b9050919050565b7f45524332303a207472616e7366657220746f20746865207a65726f206164647260008201527f6573730000000000000000000000000000000000000000000000000000000000602082015250565b6000612d7b602383612576565b9150612d8682612d1f565b604082019050919050565b60006020820190508181036000830152612daa81612d6e565b9050919050565b7f45524332303a207472616e736665722066726f6d20746865207a65726f20616460008201527f6472657373000000000000000000000000000000000000000000000000000000602082015250565b6000612e0d602583612576565b9150612e1882612db1565b604082019050919050565b60006020820190508181036000830152612e3c81612e00565b9050919050565b7f5472616e7366657220616d6f756e74206d75737420626520677265617465722060008201527f7468616e207a65726f0000000000000000000000000000000000000000000000602082015250565b6000612e9f602983612576565b9150612eaa82612e43565b604082019050919050565b60006020820190508181036000830152612ece81612e92565b9050919050565b7f4f6e6c79206f6e65207472616e736665722070657220626c6f636b20616c6c6f60008201527f7765642e00000000000000000000000000000000000000000000000000000000602082015250565b6000612f31602483612576565b9150612f3c82612ed5565b604082019050919050565b60006020820190508181036000830152612f6081612f24565b9050919050565b7f4578636565647320746865205f6d61785478416d6f756e742e00000000000000600082015250565b6000612f9d601983612576565b9150612fa882612f67565b602082019050919050565b60006020820190508181036000830152612fcc81612f90565b9050919050565b6000612fde82612537565b9150612fe983612537565b9250828201905080821115613001576130006128ea565b5b92915050565b7f4578636565647320746865206d617857616c6c657453697a652e000000000000600082015250565b600061303d601a83612576565b915061304882613007565b602082019050919050565b6000602082019050818103600083015261306c81613030565b9050919050565b7f4e487b7100000000000000000000000000000000000000000000000000000000600052604160045260246000fd5b7f4e487b7100000000000000000000000000000000000000000000000000000000600052603260045260246000fd5b6000815190506130e081612654565b92915050565b6000602082840312156130fc576130fb61261d565b5b600061310a848285016130d1565b91505092915050565b6000819050919050565b600061313861313361312e84613113565b612830565b612537565b9050919050565b6131488161311d565b82525050565b600081519050919050565b600082825260208201905092915050565b6000819050602082019050919050565b61318381612642565b82525050565b6000613195838361317a565b60208301905092915050565b6000602082019050919050565b60006131b98261314e565b6131c38185613159565b93506131ce8361316a565b8060005b838110156131ff5781516131e68882613189565b97506131f1836131a1565b9250506001810190506131d2565b5085935050505092915050565b600060a0820190506132216000830188612541565b61322e602083018761313f565b818103604083015261324081866131ae565b905061324f6060830185612806565b61325c6080830184612541565b9695505050505050565b600081905092915050565b50565b6000613281600083613266565b915061328c82613271565b600082019050919050565b60006132a282613274565b9150819050919050565b60006132b782612537565b91506132c283612537565b92508282026132d081612537565b915082820484148315176132e7576132e66128ea565b5b5092915050565b7f4e487b7100000000000000000000000000000000000000000000000000000000600052601260045260246000fd5b600061332882612537565b915061333383612537565b925082613343576133426132ee565b5b82820490509291505056fea26469706673582212206ec292604b6468605225e112d35aad8bd29ffc3f2b310bc4dc6f6a4cc86925ef64736f6c63430008130033",
					"opcodes": "PUSH1 0x80 PUSH1 0x40 MSTORE PUSH1 0x0 PUSH1 0x7 PUSH1 0x0 PUSH2 0x100 EXP DUP2 SLOAD DUP2 PUSH1 0xFF MUL NOT AND SWAP1 DUP4 ISZERO ISZERO MUL OR SWAP1 SSTORE POP PUSH2 0x1388 PUSH1 0x8 SSTORE PUSH1 0x64 PUSH1 0x9 SSTORE PUSH1 0xC8 PUSH11 0x84595161401484A000000 PUSH3 0x44 SWAP2 SWAP1 PUSH3 0x9DC JUMP JUMPDEST PUSH1 0xA SSTORE PUSH1 0xC8 PUSH11 0x84595161401484A000000 PUSH3 0x61 SWAP2 SWAP1 PUSH3 0x9DC JUMP JUMPDEST PUSH1 0xB SSTORE PUSH20 0x16626AFB636CA096963420C09E28ADD5C3A1EBC5 PUSH1 0xC PUSH1 0x0 PUSH2 0x100 EXP DUP2 SLOAD DUP2 PUSH20 0xFFFFFFFFFFFFFFFFFFFFFFFFFFFFFFFFFFFFFFFF MUL NOT AND SWAP1 DUP4 PUSH20 0xFFFFFFFFFFFFFFFFFFFFFFFFFFFFFFFFFFFFFFFF AND MUL OR SWAP1 SSTORE POP CALLVALUE DUP1 ISZERO PUSH3 0xC6 JUMPI PUSH1 0x0 DUP1 REVERT JUMPDEST POP PUSH3 0xE7 PUSH3 0xDB PUSH3 0x76D PUSH1 0x20 SHL PUSH1 0x20 SHR JUMP JUMPDEST PUSH3 0x775 PUSH1 0x20 SHL PUSH1 0x20 SHR JUMP JUMPDEST PUSH1 0x1 PUSH1 0x2 PUSH1 0x0 CALLER PUSH20 0xFFFFFFFFFFFFFFFFFFFFFFFFFFFFFFFFFFFFFFFF AND PUSH20 0xFFFFFFFFFFFFFFFFFFFFFFFFFFFFFFFFFFFFFFFF AND DUP2 MSTORE PUSH1 0x20 ADD SWAP1 DUP2 MSTORE PUSH1 0x20 ADD PUSH1 0x0 KECCAK256 PUSH1 0x0 PUSH2 0x100 EXP DUP2 SLOAD DUP2 PUSH1 0xFF MUL NOT AND SWAP1 DUP4 ISZERO ISZERO MUL OR SWAP1 SSTORE POP PUSH1 0x1 PUSH1 0x2 PUSH1 0x0 ADDRESS PUSH20 0xFFFFFFFFFFFFFFFFFFFFFFFFFFFFFFFFFFFFFFFF AND PUSH20 0xFFFFFFFFFFFFFFFFFFFFFFFFFFFFFFFFFFFFFFFF AND DUP2 MSTORE PUSH1 0x20 ADD SWAP1 DUP2 MSTORE PUSH1 0x20 ADD PUSH1 0x0 KECCAK256 PUSH1 0x0 PUSH2 0x100 EXP DUP2 SLOAD DUP2 PUSH1 0xFF MUL NOT AND SWAP1 DUP4 ISZERO ISZERO MUL OR SWAP1 SSTORE POP PUSH1 0x1 PUSH1 0x2 PUSH1 0x0 PUSH1 0xC PUSH1 0x0 SWAP1 SLOAD SWAP1 PUSH2 0x100 EXP SWAP1 DIV PUSH20 0xFFFFFFFFFFFFFFFFFFFFFFFFFFFFFFFFFFFFFFFF AND PUSH20 0xFFFFFFFFFFFFFFFFFFFFFFFFFFFFFFFFFFFFFFFF AND PUSH20 0xFFFFFFFFFFFFFFFFFFFFFFFFFFFFFFFFFFFFFFFF AND DUP2 MSTORE PUSH1 0x20 ADD SWAP1 DUP2 MSTORE PUSH1 0x20 ADD PUSH1 0x0 KECCAK256 PUSH1 0x0 PUSH2 0x100 EXP DUP2 SLOAD DUP2 PUSH1 0xFF MUL NOT AND SWAP1 DUP4 ISZERO ISZERO MUL OR SWAP1 SSTORE POP PUSH1 0x1 PUSH1 0x2 PUSH1 0x0 PUSH2 0xDEAD PUSH20 0xFFFFFFFFFFFFFFFFFFFFFFFFFFFFFFFFFFFFFFFF AND PUSH20 0xFFFFFFFFFFFFFFFFFFFFFFFFFFFFFFFFFFFFFFFF AND DUP2 MSTORE PUSH1 0x20 ADD SWAP1 DUP2 MSTORE PUSH1 0x20 ADD PUSH1 0x0 KECCAK256 PUSH1 0x0 PUSH2 0x100 EXP DUP2 SLOAD DUP2 PUSH1 0xFF MUL NOT AND SWAP1 DUP4 ISZERO ISZERO MUL OR SWAP1 SSTORE POP PUSH1 0x1 PUSH1 0x6 PUSH1 0x0 PUSH20 0x6B75D8AF000000E20B7A7DDF000BA900B4009A80 PUSH20 0xFFFFFFFFFFFFFFFFFFFFFFFFFFFFFFFFFFFFFFFF AND PUSH20 0xFFFFFFFFFFFFFFFFFFFFFFFFFFFFFFFFFFFFFFFF AND DUP2 MSTORE PUSH1 0x20 ADD SWAP1 DUP2 MSTORE PUSH1 0x20 ADD PUSH1 0x0 KECCAK256 PUSH1 0x0 PUSH2 0x100 EXP DUP2 SLOAD DUP2 PUSH1 0xFF MUL NOT AND SWAP1 DUP4 ISZERO ISZERO MUL OR SWAP1 SSTORE POP PUSH1 0x1 PUSH1 0x6 PUSH1 0x0 PUSH20 0xAE2FC483527B8EF99EB5D9B44875F005BA1FAE13 PUSH20 0xFFFFFFFFFFFFFFFFFFFFFFFFFFFFFFFFFFFFFFFF AND PUSH20 0xFFFFFFFFFFFFFFFFFFFFFFFFFFFFFFFFFFFFFFFF AND DUP2 MSTORE PUSH1 0x20 ADD SWAP1 DUP2 MSTORE PUSH1 0x20 ADD PUSH1 0x0 KECCAK256 PUSH1 0x0 PUSH2 0x100 EXP DUP2 SLOAD DUP2 PUSH1 0xFF MUL NOT AND SWAP1 DUP4 ISZERO ISZERO MUL OR SWAP1 SSTORE POP PUSH20 0x7A250D5630B4CF539739DF2C5DACB4C659F2488D PUSH1 0xD PUSH1 0x0 PUSH2 0x100 EXP DUP2 SLOAD DUP2 PUSH20 0xFFFFFFFFFFFFFFFFFFFFFFFFFFFFFFFFFFFFFFFF MUL NOT AND SWAP1 DUP4 PUSH20 0xFFFFFFFFFFFFFFFFFFFFFFFFFFFFFFFFFFFFFFFF AND MUL OR SWAP1 SSTORE POP PUSH11 0x84595161401484A000000 PUSH1 0x4 PUSH1 0x0 CALLER PUSH20 0xFFFFFFFFFFFFFFFFFFFFFFFFFFFFFFFFFFFFFFFF AND PUSH20 0xFFFFFFFFFFFFFFFFFFFFFFFFFFFFFFFFFFFFFFFF AND DUP2 MSTORE PUSH1 0x20 ADD SWAP1 DUP2 MSTORE PUSH1 0x20 ADD PUSH1 0x0 KECCAK256 DUP2 SWAP1 SSTORE POP CALLER PUSH20 0xFFFFFFFFFFFFFFFFFFFFFFFFFFFFFFFFFFFFFFFF AND PUSH1 0x0 PUSH20 0xFFFFFFFFFFFFFFFFFFFFFFFFFFFFFFFFFFFFFFFF AND PUSH32 0xDDF252AD1BE2C89B69C2B068FC378DAA952BA7F163C4A11628F55A4DF523B3EF PUSH11 0x84595161401484A000000 PUSH1 0x40 MLOAD PUSH3 0x452 SWAP2 SWAP1 PUSH3 0xA25 JUMP JUMPDEST PUSH1 0x40 MLOAD DUP1 SWAP2 SUB SWAP1 LOG3 PUSH1 0xD PUSH1 0x0 SWAP1 SLOAD SWAP1 PUSH2 0x100 EXP SWAP1 DIV PUSH20 0xFFFFFFFFFFFFFFFFFFFFFFFFFFFFFFFFFFFFFFFF AND PUSH20 0xFFFFFFFFFFFFFFFFFFFFFFFFFFFFFFFFFFFFFFFF AND PUSH4 0xC45A0155 PUSH1 0x40 MLOAD DUP2 PUSH4 0xFFFFFFFF AND PUSH1 0xE0 SHL DUP2 MSTORE PUSH1 0x4 ADD PUSH1 0x20 PUSH1 0x40 MLOAD DUP1 DUP4 SUB DUP2 DUP7 GAS STATICCALL ISZERO DUP1 ISZERO PUSH3 0x4C8 JUMPI RETURNDATASIZE PUSH1 0x0 DUP1 RETURNDATACOPY RETURNDATASIZE PUSH1 0x0 REVERT JUMPDEST POP POP POP POP PUSH1 0x40 MLOAD RETURNDATASIZE PUSH1 0x1F NOT PUSH1 0x1F DUP3 ADD AND DUP3 ADD DUP1 PUSH1 0x40 MSTORE POP DUP2 ADD SWAP1 PUSH3 0x4EE SWAP2 SWAP1 PUSH3 0xAAC JUMP JUMPDEST PUSH20 0xFFFFFFFFFFFFFFFFFFFFFFFFFFFFFFFFFFFFFFFF AND PUSH4 0xC9C65396 PUSH1 0xD PUSH1 0x0 SWAP1 SLOAD SWAP1 PUSH2 0x100 EXP SWAP1 DIV PUSH20 0xFFFFFFFFFFFFFFFFFFFFFFFFFFFFFFFFFFFFFFFF AND PUSH20 0xFFFFFFFFFFFFFFFFFFFFFFFFFFFFFFFFFFFFFFFF AND PUSH4 0xAD5C4648 PUSH1 0x40 MLOAD DUP2 PUSH4 0xFFFFFFFF AND PUSH1 0xE0 SHL DUP2 MSTORE PUSH1 0x4 ADD PUSH1 0x20 PUSH1 0x40 MLOAD DUP1 DUP4 SUB DUP2 DUP7 GAS STATICCALL ISZERO DUP1 ISZERO PUSH3 0x577 JUMPI RETURNDATASIZE PUSH1 0x0 DUP1 RETURNDATACOPY RETURNDATASIZE PUSH1 0x0 REVERT JUMPDEST POP POP POP POP PUSH1 0x40 MLOAD RETURNDATASIZE PUSH1 0x1F NOT PUSH1 0x1F DUP3 ADD AND DUP3 ADD DUP1 PUSH1 0x40 MSTORE POP DUP2 ADD SWAP1 PUSH3 0x59D SWAP2 SWAP1 PUSH3 0xAAC JUMP JUMPDEST ADDRESS PUSH1 0x40 MLOAD DUP4 PUSH4 0xFFFFFFFF AND PUSH1 0xE0 SHL DUP2 MSTORE PUSH1 0x4 ADD PUSH3 0x5BD SWAP3 SWAP2 SWAP1 PUSH3 0xAEF JUMP JUMPDEST PUSH1 0x20 PUSH1 0x40 MLOAD DUP1 DUP4 SUB DUP2 PUSH1 0x0 DUP8 GAS CALL ISZERO DUP1 ISZERO PUSH3 0x5DD JUMPI RETURNDATASIZE PUSH1 0x0 DUP1 RETURNDATACOPY RETURNDATASIZE PUSH1 0x0 REVERT JUMPDEST POP POP POP POP PUSH1 0x40 MLOAD RETURNDATASIZE PUSH1 0x1F NOT PUSH1 0x1F DUP3 ADD AND DUP3 ADD DUP1 PUSH1 0x40 MSTORE POP DUP2 ADD SWAP1 PUSH3 0x603 SWAP2 SWAP1 PUSH3 0xAAC JUMP JUMPDEST PUSH1 0xE PUSH1 0x0 PUSH2 0x100 EXP DUP2 SLOAD DUP2 PUSH20 0xFFFFFFFFFFFFFFFFFFFFFFFFFFFFFFFFFFFFFFFF MUL NOT AND SWAP1 DUP4 PUSH20 0xFFFFFFFFFFFFFFFFFFFFFFFFFFFFFFFFFFFFFFFF AND MUL OR SWAP1 SSTORE POP PUSH1 0x1 PUSH1 0x3 PUSH1 0x0 PUSH1 0xE PUSH1 0x0 SWAP1 SLOAD SWAP1 PUSH2 0x100 EXP SWAP1 DIV PUSH20 0xFFFFFFFFFFFFFFFFFFFFFFFFFFFFFFFFFFFFFFFF AND PUSH20 0xFFFFFFFFFFFFFFFFFFFFFFFFFFFFFFFFFFFFFFFF AND PUSH20 0xFFFFFFFFFFFFFFFFFFFFFFFFFFFFFFFFFFFFFFFF AND DUP2 MSTORE PUSH1 0x20 ADD SWAP1 DUP2 MSTORE PUSH1 0x20 ADD PUSH1 0x0 KECCAK256 PUSH1 0x0 PUSH2 0x100 EXP DUP2 SLOAD DUP2 PUSH1 0xFF MUL NOT AND SWAP1 DUP4 ISZERO ISZERO MUL OR SWAP1 SSTORE POP PUSH3 0x712 CALLER PUSH1 0xD PUSH1 0x0 SWAP1 SLOAD SWAP1 PUSH2 0x100 EXP SWAP1 DIV PUSH20 0xFFFFFFFFFFFFFFFFFFFFFFFFFFFFFFFFFFFFFFFF AND PUSH32 0xFFFFFFFFFFFFFFFFFFFFFFFFFFFFFFFFFFFFFFFFFFFFFFFFFFFFFFFFFFFFFFFF PUSH3 0x839 PUSH1 0x20 SHL PUSH1 0x20 SHR JUMP JUMPDEST PUSH3 0x767 ADDRESS PUSH1 0xD PUSH1 0x0 SWAP1 SLOAD SWAP1 PUSH2 0x100 EXP SWAP1 DIV PUSH20 0xFFFFFFFFFFFFFFFFFFFFFFFFFFFFFFFFFFFFFFFF AND PUSH32 0xFFFFFFFFFFFFFFFFFFFFFFFFFFFFFFFFFFFFFFFFFFFFFFFFFFFFFFFFFFFFFFFF PUSH3 0x839 PUSH1 0x20 SHL PUSH1 0x20 SHR JUMP JUMPDEST PUSH3 0xB9F JUMP JUMPDEST PUSH1 0x0 CALLER SWAP1 POP SWAP1 JUMP JUMPDEST PUSH1 0x0 DUP1 PUSH1 0x0 SWAP1 SLOAD SWAP1 PUSH2 0x100 EXP SWAP1 DIV PUSH20 0xFFFFFFFFFFFFFFFFFFFFFFFFFFFFFFFFFFFFFFFF AND SWAP1 POP DUP2 PUSH1 0x0 DUP1 PUSH2 0x100 EXP DUP2 SLOAD DUP2 PUSH20 0xFFFFFFFFFFFFFFFFFFFFFFFFFFFFFFFFFFFFFFFF MUL NOT AND SWAP1 DUP4 PUSH20 0xFFFFFFFFFFFFFFFFFFFFFFFFFFFFFFFFFFFFFFFF AND MUL OR SWAP1 SSTORE POP DUP2 PUSH20 0xFFFFFFFFFFFFFFFFFFFFFFFFFFFFFFFFFFFFFFFF AND DUP2 PUSH20 0xFFFFFFFFFFFFFFFFFFFFFFFFFFFFFFFFFFFFFFFF AND PUSH32 0x8BE0079C531659141344CD1FD0A4F28419497F9722A3DAAFE3B4186F6B6457E0 PUSH1 0x40 MLOAD PUSH1 0x40 MLOAD DUP1 SWAP2 SUB SWAP1 LOG3 POP POP JUMP JUMPDEST PUSH1 0x0 PUSH20 0xFFFFFFFFFFFFFFFFFFFFFFFFFFFFFFFFFFFFFFFF AND DUP4 PUSH20 0xFFFFFFFFFFFFFFFFFFFFFFFFFFFFFFFFFFFFFFFF AND SUB PUSH3 0x8AB JUMPI PUSH1 0x40 MLOAD PUSH32 0x8C379A000000000000000000000000000000000000000000000000000000000 DUP2 MSTORE PUSH1 0x4 ADD PUSH3 0x8A2 SWAP1 PUSH3 0xB7D JUMP JUMPDEST PUSH1 0x40 MLOAD DUP1 SWAP2 SUB SWAP1 REVERT JUMPDEST PUSH1 0x0 PUSH20 0xFFFFFFFFFFFFFFFFFFFFFFFFFFFFFFFFFFFFFFFF AND DUP3 PUSH20 0xFFFFFFFFFFFFFFFFFFFFFFFFFFFFFFFFFFFFFFFF AND SUB PUSH3 0x91D JUMPI PUSH1 0x40 MLOAD PUSH32 0x8C379A000000000000000000000000000000000000000000000000000000000 DUP2 MSTORE PUSH1 0x4 ADD PUSH3 0x914 SWAP1 PUSH3 0xB7D JUMP JUMPDEST PUSH1 0x40 MLOAD DUP1 SWAP2 SUB SWAP1 REVERT JUMPDEST DUP1 PUSH1 0x1 PUSH1 0x0 DUP6 PUSH20 0xFFFFFFFFFFFFFFFFFFFFFFFFFFFFFFFFFFFFFFFF AND PUSH20 0xFFFFFFFFFFFFFFFFFFFFFFFFFFFFFFFFFFFFFFFF AND DUP2 MSTORE PUSH1 0x20 ADD SWAP1 DUP2 MSTORE PUSH1 0x20 ADD PUSH1 0x0 KECCAK256 PUSH1 0x0 DUP5 PUSH20 0xFFFFFFFFFFFFFFFFFFFFFFFFFFFFFFFFFFFFFFFF AND PUSH20 0xFFFFFFFFFFFFFFFFFFFFFFFFFFFFFFFFFFFFFFFF AND DUP2 MSTORE PUSH1 0x20 ADD SWAP1 DUP2 MSTORE PUSH1 0x20 ADD PUSH1 0x0 KECCAK256 DUP2 SWAP1 SSTORE POP POP POP POP JUMP JUMPDEST PUSH1 0x0 DUP2 SWAP1 POP SWAP2 SWAP1 POP JUMP JUMPDEST PUSH32 0x4E487B7100000000000000000000000000000000000000000000000000000000 PUSH1 0x0 MSTORE PUSH1 0x12 PUSH1 0x4 MSTORE PUSH1 0x24 PUSH1 0x0 REVERT JUMPDEST PUSH1 0x0 PUSH3 0x9E9 DUP3 PUSH3 0x9A3 JUMP JUMPDEST SWAP2 POP PUSH3 0x9F6 DUP4 PUSH3 0x9A3 JUMP JUMPDEST SWAP3 POP DUP3 PUSH3 0xA09 JUMPI PUSH3 0xA08 PUSH3 0x9AD JUMP JUMPDEST JUMPDEST DUP3 DUP3 DIV SWAP1 POP SWAP3 SWAP2 POP POP JUMP JUMPDEST PUSH3 0xA1F DUP2 PUSH3 0x9A3 JUMP JUMPDEST DUP3 MSTORE POP POP JUMP JUMPDEST PUSH1 0x0 PUSH1 0x20 DUP3 ADD SWAP1 POP PUSH3 0xA3C PUSH1 0x0 DUP4 ADD DUP5 PUSH3 0xA14 JUMP JUMPDEST SWAP3 SWAP2 POP POP JUMP JUMPDEST PUSH1 0x0 DUP1 REVERT JUMPDEST PUSH1 0x0 PUSH20 0xFFFFFFFFFFFFFFFFFFFFFFFFFFFFFFFFFFFFFFFF DUP3 AND SWAP1 POP SWAP2 SWAP1 POP JUMP JUMPDEST PUSH1 0x0 PUSH3 0xA74 DUP3 PUSH3 0xA47 JUMP JUMPDEST SWAP1 POP SWAP2 SWAP1 POP JUMP JUMPDEST PUSH3 0xA86 DUP2 PUSH3 0xA67 JUMP JUMPDEST DUP2 EQ PUSH3 0xA92 JUMPI PUSH1 0x0 DUP1 REVERT JUMPDEST POP JUMP JUMPDEST PUSH1 0x0 DUP2 MLOAD SWAP1 POP PUSH3 0xAA6 DUP2 PUSH3 0xA7B JUMP JUMPDEST SWAP3 SWAP2 POP POP JUMP JUMPDEST PUSH1 0x0 PUSH1 0x20 DUP3 DUP5 SUB SLT ISZERO PUSH3 0xAC5 JUMPI PUSH3 0xAC4 PUSH3 0xA42 JUMP JUMPDEST JUMPDEST PUSH1 0x0 PUSH3 0xAD5 DUP5 DUP3 DUP6 ADD PUSH3 0xA95 JUMP JUMPDEST SWAP2 POP POP SWAP3 SWAP2 POP POP JUMP JUMPDEST PUSH3 0xAE9 DUP2 PUSH3 0xA67 JUMP JUMPDEST DUP3 MSTORE POP POP JUMP JUMPDEST PUSH1 0x0 PUSH1 0x40 DUP3 ADD SWAP1 POP PUSH3 0xB06 PUSH1 0x0 DUP4 ADD DUP6 PUSH3 0xADE JUMP JUMPDEST PUSH3 0xB15 PUSH1 0x20 DUP4 ADD DUP5 PUSH3 0xADE JUMP JUMPDEST SWAP4 SWAP3 POP POP POP JUMP JUMPDEST PUSH1 0x0 DUP3 DUP3 MSTORE PUSH1 0x20 DUP3 ADD SWAP1 POP SWAP3 SWAP2 POP POP JUMP JUMPDEST PUSH32 0x45524332303A205A65726F204164647265737300000000000000000000000000 PUSH1 0x0 DUP3 ADD MSTORE POP JUMP JUMPDEST PUSH1 0x0 PUSH3 0xB65 PUSH1 0x13 DUP4 PUSH3 0xB1C JUMP JUMPDEST SWAP2 POP PUSH3 0xB72 DUP3 PUSH3 0xB2D JUMP JUMPDEST PUSH1 0x20 DUP3 ADD SWAP1 POP SWAP2 SWAP1 POP JUMP JUMPDEST PUSH1 0x0 PUSH1 0x20 DUP3 ADD SWAP1 POP DUP2 DUP2 SUB PUSH1 0x0 DUP4 ADD MSTORE PUSH3 0xB98 DUP2 PUSH3 0xB56 JUMP JUMPDEST SWAP1 POP SWAP2 SWAP1 POP JUMP JUMPDEST PUSH2 0x3384 DUP1 PUSH3 0xBAF PUSH1 0x0 CODECOPY PUSH1 0x0 RETURN INVALID PUSH1 0x80 PUSH1 0x40 MSTORE PUSH1 0x4 CALLDATASIZE LT PUSH2 0x1E7 JUMPI PUSH1 0x0 CALLDATALOAD PUSH1 0xE0 SHR DUP1 PUSH4 0x893D20E8 GT PUSH2 0x102 JUMPI DUP1 PUSH4 0xC2E4EF79 GT PUSH2 0x95 JUMPI DUP1 PUSH4 0xDC9D75B0 GT PUSH2 0x64 JUMPI DUP1 PUSH4 0xDC9D75B0 EQ PUSH2 0x6F1 JUMPI DUP1 PUSH4 0xDD62ED3E EQ PUSH2 0x71C JUMPI DUP1 PUSH4 0xE9451F5F EQ PUSH2 0x759 JUMPI DUP1 PUSH4 0xF2FDE38B EQ PUSH2 0x784 JUMPI PUSH2 0x1EE JUMP JUMPDEST DUP1 PUSH4 0xC2E4EF79 EQ PUSH2 0x635 JUMPI DUP1 PUSH4 0xC31C9C07 EQ PUSH2 0x672 JUMPI DUP1 PUSH4 0xC876D0B9 EQ PUSH2 0x69D JUMPI DUP1 PUSH4 0xCE004A07 EQ PUSH2 0x6C8 JUMPI PUSH2 0x1EE JUMP JUMPDEST DUP1 PUSH4 0xA01C3483 GT PUSH2 0xD1 JUMPI DUP1 PUSH4 0xA01C3483 EQ PUSH2 0x567 JUMPI DUP1 PUSH4 0xA2747DA2 EQ PUSH2 0x592 JUMPI DUP1 PUSH4 0xA9059CBB EQ PUSH2 0x5BB JUMPI DUP1 PUSH4 0xC226DE76 EQ PUSH2 0x5F8 JUMPI PUSH2 0x1EE JUMP JUMPDEST DUP1 PUSH4 0x893D20E8 EQ PUSH2 0x4BB JUMPI DUP1 PUSH4 0x8DA5CB5B EQ PUSH2 0x4E6 JUMPI DUP1 PUSH4 0x8F9A55C0 EQ PUSH2 0x511 JUMPI DUP1 PUSH4 0x95D89B41 EQ PUSH2 0x53C JUMPI PUSH2 0x1EE JUMP JUMPDEST DUP1 PUSH4 0x452ED4F1 GT PUSH2 0x17A JUMPI DUP1 PUSH4 0x70A08231 GT PUSH2 0x149 JUMPI DUP1 PUSH4 0x70A08231 EQ PUSH2 0x413 JUMPI DUP1 PUSH4 0x715018A6 EQ PUSH2 0x450 JUMPI DUP1 PUSH4 0x771AF866 EQ PUSH2 0x467 JUMPI DUP1 PUSH4 0x7D1DB4A5 EQ PUSH2 0x490 JUMPI PUSH2 0x1EE JUMP JUMPDEST DUP1 PUSH4 0x452ED4F1 EQ PUSH2 0x37F JUMPI DUP1 PUSH4 0x4C1B4031 EQ PUSH2 0x3AA JUMPI DUP1 PUSH4 0x51BC3C85 EQ PUSH2 0x3D3 JUMPI DUP1 PUSH4 0x694E80C3 EQ PUSH2 0x3EA JUMPI PUSH2 0x1EE JUMP JUMPDEST DUP1 PUSH4 0x23B872DD GT PUSH2 0x1B6 JUMPI DUP1 PUSH4 0x23B872DD EQ PUSH2 0x2B1 JUMPI DUP1 PUSH4 0x27889862 EQ PUSH2 0x2EE JUMPI DUP1 PUSH4 0x30DB2C12 EQ PUSH2 0x32B JUMPI DUP1 PUSH4 0x313CE567 EQ PUSH2 0x354 JUMPI PUSH2 0x1EE JUMP JUMPDEST DUP1 PUSH4 0x445B667 EQ PUSH2 0x1F3 JUMPI DUP1 PUSH4 0x6FDDE03 EQ PUSH2 0x21E JUMPI DUP1 PUSH4 0x95EA7B3 EQ PUSH2 0x249 JUMPI DUP1 PUSH4 0x18160DDD EQ PUSH2 0x286 JUMPI PUSH2 0x1EE JUMP JUMPDEST CALLDATASIZE PUSH2 0x1EE JUMPI STOP JUMPDEST PUSH1 0x0 DUP1 REVERT JUMPDEST CALLVALUE DUP1 ISZERO PUSH2 0x1FF JUMPI PUSH1 0x0 DUP1 REVERT JUMPDEST POP PUSH2 0x208 PUSH2 0x7AD JUMP JUMPDEST PUSH1 0x40 MLOAD PUSH2 0x215 SWAP2 SWAP1 PUSH2 0x2550 JUMP JUMPDEST PUSH1 0x40 MLOAD DUP1 SWAP2 SUB SWAP1 RETURN JUMPDEST CALLVALUE DUP1 ISZERO PUSH2 0x22A JUMPI PUSH1 0x0 DUP1 REVERT JUMPDEST POP PUSH2 0x233 PUSH2 0x7B3 JUMP JUMPDEST PUSH1 0x40 MLOAD PUSH2 0x240 SWAP2 SWAP1 PUSH2 0x25FB JUMP JUMPDEST PUSH1 0x40 MLOAD DUP1 SWAP2 SUB SWAP1 RETURN JUMPDEST CALLVALUE DUP1 ISZERO PUSH2 0x255 JUMPI PUSH1 0x0 DUP1 REVERT JUMPDEST POP PUSH2 0x270 PUSH1 0x4 DUP1 CALLDATASIZE SUB DUP2 ADD SWAP1 PUSH2 0x26B SWAP2 SWAP1 PUSH2 0x26AC JUMP JUMPDEST PUSH2 0x7F0 JUMP JUMPDEST PUSH1 0x40 MLOAD PUSH2 0x27D SWAP2 SWAP1 PUSH2 0x2707 JUMP JUMPDEST PUSH1 0x40 MLOAD DUP1 SWAP2 SUB SWAP1 RETURN JUMPDEST CALLVALUE DUP1 ISZERO PUSH2 0x292 JUMPI PUSH1 0x0 DUP1 REVERT JUMPDEST POP PUSH2 0x29B PUSH2 0x807 JUMP JUMPDEST PUSH1 0x40 MLOAD PUSH2 0x2A8 SWAP2 SWAP1 PUSH2 0x2550 JUMP JUMPDEST PUSH1 0x40 MLOAD DUP1 SWAP2 SUB SWAP1 RETURN JUMPDEST CALLVALUE DUP1 ISZERO PUSH2 0x2BD JUMPI PUSH1 0x0 DUP1 REVERT JUMPDEST POP PUSH2 0x2D8 PUSH1 0x4 DUP1 CALLDATASIZE SUB DUP2 ADD SWAP1 PUSH2 0x2D3 SWAP2 SWAP1 PUSH2 0x2722 JUMP JUMPDEST PUSH2 0x831 JUMP JUMPDEST PUSH1 0x40 MLOAD PUSH2 0x2E5 SWAP2 SWAP1 PUSH2 0x2707 JUMP JUMPDEST PUSH1 0x40 MLOAD DUP1 SWAP2 SUB SWAP1 RETURN JUMPDEST CALLVALUE DUP1 ISZERO PUSH2 0x2FA JUMPI PUSH1 0x0 DUP1 REVERT JUMPDEST POP PUSH2 0x315 PUSH1 0x4 DUP1 CALLDATASIZE SUB DUP2 ADD SWAP1 PUSH2 0x310 SWAP2 SWAP1 PUSH2 0x2775 JUMP JUMPDEST PUSH2 0x97E JUMP JUMPDEST PUSH1 0x40 MLOAD PUSH2 0x322 SWAP2 SWAP1 PUSH2 0x2707 JUMP JUMPDEST PUSH1 0x40 MLOAD DUP1 SWAP2 SUB SWAP1 RETURN JUMPDEST CALLVALUE DUP1 ISZERO PUSH2 0x337 JUMPI PUSH1 0x0 DUP1 REVERT JUMPDEST POP PUSH2 0x352 PUSH1 0x4 DUP1 CALLDATASIZE SUB DUP2 ADD SWAP1 PUSH2 0x34D SWAP2 SWAP1 PUSH2 0x27A2 JUMP JUMPDEST PUSH2 0x9D4 JUMP JUMPDEST STOP JUMPDEST CALLVALUE DUP1 ISZERO PUSH2 0x360 JUMPI PUSH1 0x0 DUP1 REVERT JUMPDEST POP PUSH2 0x369 PUSH2 0xAB2 JUMP JUMPDEST PUSH1 0x40 MLOAD PUSH2 0x376 SWAP2 SWAP1 PUSH2 0x27EB JUMP JUMPDEST PUSH1 0x40 MLOAD DUP1 SWAP2 SUB SWAP1 RETURN JUMPDEST CALLVALUE DUP1 ISZERO PUSH2 0x38B JUMPI PUSH1 0x0 DUP1 REVERT JUMPDEST POP PUSH2 0x394 PUSH2 0xAD2 JUMP JUMPDEST PUSH1 0x40 MLOAD PUSH2 0x3A1 SWAP2 SWAP1 PUSH2 0x2815 JUMP JUMPDEST PUSH1 0x40 MLOAD DUP1 SWAP2 SUB SWAP1 RETURN JUMPDEST CALLVALUE DUP1 ISZERO PUSH2 0x3B6 JUMPI PUSH1 0x0 DUP1 REVERT JUMPDEST POP PUSH2 0x3D1 PUSH1 0x4 DUP1 CALLDATASIZE SUB DUP2 ADD SWAP1 PUSH2 0x3CC SWAP2 SWAP1 PUSH2 0x2775 JUMP JUMPDEST PUSH2 0xAF8 JUMP JUMPDEST STOP JUMPDEST CALLVALUE DUP1 ISZERO PUSH2 0x3DF JUMPI PUSH1 0x0 DUP1 REVERT JUMPDEST POP PUSH2 0x3E8 PUSH2 0xBE3 JUMP JUMPDEST STOP JUMPDEST CALLVALUE DUP1 ISZERO PUSH2 0x3F6 JUMPI PUSH1 0x0 DUP1 REVERT JUMPDEST POP PUSH2 0x411 PUSH1 0x4 DUP1 CALLDATASIZE SUB DUP2 ADD SWAP1 PUSH2 0x40C SWAP2 SWAP1 PUSH2 0x27A2 JUMP JUMPDEST PUSH2 0xC67 JUMP JUMPDEST STOP JUMPDEST CALLVALUE DUP1 ISZERO PUSH2 0x41F JUMPI PUSH1 0x0 DUP1 REVERT JUMPDEST POP PUSH2 0x43A PUSH1 0x4 DUP1 CALLDATASIZE SUB DUP2 ADD SWAP1 PUSH2 0x435 SWAP2 SWAP1 PUSH2 0x2775 JUMP JUMPDEST PUSH2 0xD7E JUMP JUMPDEST PUSH1 0x40 MLOAD PUSH2 0x447 SWAP2 SWAP1 PUSH2 0x2550 JUMP JUMPDEST PUSH1 0x40 MLOAD DUP1 SWAP2 SUB SWAP1 RETURN JUMPDEST CALLVALUE DUP1 ISZERO PUSH2 0x45C JUMPI PUSH1 0x0 DUP1 REVERT JUMPDEST POP PUSH2 0x465 PUSH2 0xDC7 JUMP JUMPDEST STOP JUMPDEST CALLVALUE DUP1 ISZERO PUSH2 0x473 JUMPI PUSH1 0x0 DUP1 REVERT JUMPDEST POP PUSH2 0x48E PUSH1 0x4 DUP1 CALLDATASIZE SUB DUP2 ADD SWAP1 PUSH2 0x489 SWAP2 SWAP1 PUSH2 0x2775 JUMP JUMPDEST PUSH2 0xE4F JUMP JUMPDEST STOP JUMPDEST CALLVALUE DUP1 ISZERO PUSH2 0x49C JUMPI PUSH1 0x0 DUP1 REVERT JUMPDEST POP PUSH2 0x4A5 PUSH2 0xF3A JUMP JUMPDEST PUSH1 0x40 MLOAD PUSH2 0x4B2 SWAP2 SWAP1 PUSH2 0x2550 JUMP JUMPDEST PUSH1 0x40 MLOAD DUP1 SWAP2 SUB SWAP1 RETURN JUMPDEST CALLVALUE DUP1 ISZERO PUSH2 0x4C7 JUMPI PUSH1 0x0 DUP1 REVERT JUMPDEST POP PUSH2 0x4D0 PUSH2 0xF40 JUMP JUMPDEST PUSH1 0x40 MLOAD PUSH2 0x4DD SWAP2 SWAP1 PUSH2 0x2815 JUMP JUMPDEST PUSH1 0x40 MLOAD DUP1 SWAP2 SUB SWAP1 RETURN JUMPDEST CALLVALUE DUP1 ISZERO PUSH2 0x4F2 JUMPI PUSH1 0x0 DUP1 REVERT JUMPDEST POP PUSH2 0x4FB PUSH2 0xF4F JUMP JUMPDEST PUSH1 0x40 MLOAD PUSH2 0x508 SWAP2 SWAP1 PUSH2 0x2815 JUMP JUMPDEST PUSH1 0x40 MLOAD DUP1 SWAP2 SUB SWAP1 RETURN JUMPDEST CALLVALUE DUP1 ISZERO PUSH2 0x51D JUMPI PUSH1 0x0 DUP1 REVERT JUMPDEST POP PUSH2 0x526 PUSH2 0xF78 JUMP JUMPDEST PUSH1 0x40 MLOAD PUSH2 0x533 SWAP2 SWAP1 PUSH2 0x2550 JUMP JUMPDEST PUSH1 0x40 MLOAD DUP1 SWAP2 SUB SWAP1 RETURN JUMPDEST CALLVALUE DUP1 ISZERO PUSH2 0x548 JUMPI PUSH1 0x0 DUP1 REVERT JUMPDEST POP PUSH2 0x551 PUSH2 0xF7E JUMP JUMPDEST PUSH1 0x40 MLOAD PUSH2 0x55E SWAP2 SWAP1 PUSH2 0x25FB JUMP JUMPDEST PUSH1 0x40 MLOAD DUP1 SWAP2 SUB SWAP1 RETURN JUMPDEST CALLVALUE DUP1 ISZERO PUSH2 0x573 JUMPI PUSH1 0x0 DUP1 REVERT JUMPDEST POP PUSH2 0x57C PUSH2 0xFBB JUMP JUMPDEST PUSH1 0x40 MLOAD PUSH2 0x589 SWAP2 SWAP1 PUSH2 0x2815 JUMP JUMPDEST PUSH1 0x40 MLOAD DUP1 SWAP2 SUB SWAP1 RETURN JUMPDEST CALLVALUE DUP1 ISZERO PUSH2 0x59E JUMPI PUSH1 0x0 DUP1 REVERT JUMPDEST POP PUSH2 0x5B9 PUSH1 0x4 DUP1 CALLDATASIZE SUB DUP2 ADD SWAP1 PUSH2 0x5B4 SWAP2 SWAP1 PUSH2 0x2775 JUMP JUMPDEST PUSH2 0xFC1 JUMP JUMPDEST STOP JUMPDEST CALLVALUE DUP1 ISZERO PUSH2 0x5C7 JUMPI PUSH1 0x0 DUP1 REVERT JUMPDEST POP PUSH2 0x5E2 PUSH1 0x4 DUP1 CALLDATASIZE SUB DUP2 ADD SWAP1 PUSH2 0x5DD SWAP2 SWAP1 PUSH2 0x26AC JUMP JUMPDEST PUSH2 0x111B JUMP JUMPDEST PUSH1 0x40 MLOAD PUSH2 0x5EF SWAP2 SWAP1 PUSH2 0x2707 JUMP JUMPDEST PUSH1 0x40 MLOAD DUP1 SWAP2 SUB SWAP1 RETURN JUMPDEST CALLVALUE DUP1 ISZERO PUSH2 0x604 JUMPI PUSH1 0x0 DUP1 REVERT JUMPDEST POP PUSH2 0x61F PUSH1 0x4 DUP1 CALLDATASIZE SUB DUP2 ADD SWAP1 PUSH2 0x61A SWAP2 SWAP1 PUSH2 0x2775 JUMP JUMPDEST PUSH2 0x1133 JUMP JUMPDEST PUSH1 0x40 MLOAD PUSH2 0x62C SWAP2 SWAP1 PUSH2 0x2707 JUMP JUMPDEST PUSH1 0x40 MLOAD DUP1 SWAP2 SUB SWAP1 RETURN JUMPDEST CALLVALUE DUP1 ISZERO PUSH2 0x641 JUMPI PUSH1 0x0 DUP1 REVERT JUMPDEST POP PUSH2 0x65C PUSH1 0x4 DUP1 CALLDATASIZE SUB DUP2 ADD SWAP1 PUSH2 0x657 SWAP2 SWAP1 PUSH2 0x2775 JUMP JUMPDEST PUSH2 0x1189 JUMP JUMPDEST PUSH1 0x40 MLOAD PUSH2 0x669 SWAP2 SWAP1 PUSH2 0x2707 JUMP JUMPDEST PUSH1 0x40 MLOAD DUP1 SWAP2 SUB SWAP1 RETURN JUMPDEST CALLVALUE DUP1 ISZERO PUSH2 0x67E JUMPI PUSH1 0x0 DUP1 REVERT JUMPDEST POP PUSH2 0x687 PUSH2 0x11DF JUMP JUMPDEST PUSH1 0x40 MLOAD PUSH2 0x694 SWAP2 SWAP1 PUSH2 0x288F JUMP JUMPDEST PUSH1 0x40 MLOAD DUP1 SWAP2 SUB SWAP1 RETURN JUMPDEST CALLVALUE DUP1 ISZERO PUSH2 0x6A9 JUMPI PUSH1 0x0 DUP1 REVERT JUMPDEST POP PUSH2 0x6B2 PUSH2 0x1205 JUMP JUMPDEST PUSH1 0x40 MLOAD PUSH2 0x6BF SWAP2 SWAP1 PUSH2 0x2707 JUMP JUMPDEST PUSH1 0x40 MLOAD DUP1 SWAP2 SUB SWAP1 RETURN JUMPDEST CALLVALUE DUP1 ISZERO PUSH2 0x6D4 JUMPI PUSH1 0x0 DUP1 REVERT JUMPDEST POP PUSH2 0x6EF PUSH1 0x4 DUP1 CALLDATASIZE SUB DUP2 ADD SWAP1 PUSH2 0x6EA SWAP2 SWAP1 PUSH2 0x2775 JUMP JUMPDEST PUSH2 0x1218 JUMP JUMPDEST STOP JUMPDEST CALLVALUE DUP1 ISZERO PUSH2 0x6FD JUMPI PUSH1 0x0 DUP1 REVERT JUMPDEST POP PUSH2 0x706 PUSH2 0x1372 JUMP JUMPDEST PUSH1 0x40 MLOAD PUSH2 0x713 SWAP2 SWAP1 PUSH2 0x2550 JUMP JUMPDEST PUSH1 0x40 MLOAD DUP1 SWAP2 SUB SWAP1 RETURN JUMPDEST CALLVALUE DUP1 ISZERO PUSH2 0x728 JUMPI PUSH1 0x0 DUP1 REVERT JUMPDEST POP PUSH2 0x743 PUSH1 0x4 DUP1 CALLDATASIZE SUB DUP2 ADD SWAP1 PUSH2 0x73E SWAP2 SWAP1 PUSH2 0x28AA JUMP JUMPDEST PUSH2 0x1377 JUMP JUMPDEST PUSH1 0x40 MLOAD PUSH2 0x750 SWAP2 SWAP1 PUSH2 0x2550 JUMP JUMPDEST PUSH1 0x40 MLOAD DUP1 SWAP2 SUB SWAP1 RETURN JUMPDEST CALLVALUE DUP1 ISZERO PUSH2 0x765 JUMPI PUSH1 0x0 DUP1 REVERT JUMPDEST POP PUSH2 0x76E PUSH2 0x13FE JUMP JUMPDEST PUSH1 0x40 MLOAD PUSH2 0x77B SWAP2 SWAP1 PUSH2 0x2550 JUMP JUMPDEST PUSH1 0x40 MLOAD DUP1 SWAP2 SUB SWAP1 RETURN JUMPDEST CALLVALUE DUP1 ISZERO PUSH2 0x790 JUMPI PUSH1 0x0 DUP1 REVERT JUMPDEST POP PUSH2 0x7AB PUSH1 0x4 DUP1 CALLDATASIZE SUB DUP2 ADD SWAP1 PUSH2 0x7A6 SWAP2 SWAP1 PUSH2 0x2775 JUMP JUMPDEST PUSH2 0x1403 JUMP JUMPDEST STOP JUMPDEST PUSH1 0x8 SLOAD DUP2 JUMP JUMPDEST PUSH1 0x60 PUSH1 0x40 MLOAD DUP1 PUSH1 0x40 ADD PUSH1 0x40 MSTORE DUP1 PUSH1 0x8 DUP2 MSTORE PUSH1 0x20 ADD PUSH32 0x4F6E6520416E6F6E000000000000000000000000000000000000000000000000 DUP2 MSTORE POP SWAP1 POP SWAP1 JUMP JUMPDEST PUSH1 0x0 PUSH2 0x7FD CALLER DUP5 DUP5 PUSH2 0x14FA JUMP JUMPDEST PUSH1 0x1 SWAP1 POP SWAP3 SWAP2 POP POP JUMP JUMPDEST PUSH1 0x0 DUP1 PUSH11 0x84595161401484A000000 SUB PUSH2 0x820 JUMPI PUSH1 0x0 DUP1 REVERT JUMPDEST PUSH11 0x84595161401484A000000 SWAP1 POP SWAP1 JUMP JUMPDEST PUSH1 0x0 PUSH32 0xFFFFFFFFFFFFFFFFFFFFFFFFFFFFFFFFFFFFFFFFFFFFFFFFFFFFFFFFFFFFFFFF PUSH1 0x1 PUSH1 0x0 DUP7 PUSH20 0xFFFFFFFFFFFFFFFFFFFFFFFFFFFFFFFFFFFFFFFF AND PUSH20 0xFFFFFFFFFFFFFFFFFFFFFFFFFFFFFFFFFFFFFFFF AND DUP2 MSTORE PUSH1 0x20 ADD SWAP1 DUP2 MSTORE PUSH1 0x20 ADD PUSH1 0x0 KECCAK256 PUSH1 0x0 CALLER PUSH20 0xFFFFFFFFFFFFFFFFFFFFFFFFFFFFFFFFFFFFFFFF AND PUSH20 0xFFFFFFFFFFFFFFFFFFFFFFFFFFFFFFFFFFFFFFFF AND DUP2 MSTORE PUSH1 0x20 ADD SWAP1 DUP2 MSTORE PUSH1 0x20 ADD PUSH1 0x0 KECCAK256 SLOAD EQ PUSH2 0x96A JUMPI DUP2 PUSH1 0x1 PUSH1 0x0 DUP7 PUSH20 0xFFFFFFFFFFFFFFFFFFFFFFFFFFFFFFFFFFFFFFFF AND PUSH20 0xFFFFFFFFFFFFFFFFFFFFFFFFFFFFFFFFFFFFFFFF AND DUP2 MSTORE PUSH1 0x20 ADD SWAP1 DUP2 MSTORE PUSH1 0x20 ADD PUSH1 0x0 KECCAK256 PUSH1 0x0 CALLER PUSH20 0xFFFFFFFFFFFFFFFFFFFFFFFFFFFFFFFFFFFFFFFF AND PUSH20 0xFFFFFFFFFFFFFFFFFFFFFFFFFFFFFFFFFFFFFFFF AND DUP2 MSTORE PUSH1 0x20 ADD SWAP1 DUP2 MSTORE PUSH1 0x20 ADD PUSH1 0x0 KECCAK256 PUSH1 0x0 DUP3 DUP3 SLOAD PUSH2 0x962 SWAP2 SWAP1 PUSH2 0x2919 JUMP JUMPDEST SWAP3 POP POP DUP2 SWAP1 SSTORE POP JUMPDEST PUSH2 0x975 DUP5 DUP5 DUP5 PUSH2 0x165E JUMP JUMPDEST SWAP1 POP SWAP4 SWAP3 POP POP POP JUMP JUMPDEST PUSH1 0x0 PUSH1 0x2 PUSH1 0x0 DUP4 PUSH20 0xFFFFFFFFFFFFFFFFFFFFFFFFFFFFFFFFFFFFFFFF AND PUSH20 0xFFFFFFFFFFFFFFFFFFFFFFFFFFFFFFFFFFFFFFFF AND DUP2 MSTORE PUSH1 0x20 ADD SWAP1 DUP2 MSTORE PUSH1 0x20 ADD PUSH1 0x0 KECCAK256 PUSH1 0x0 SWAP1 SLOAD SWAP1 PUSH2 0x100 EXP SWAP1 DIV PUSH1 0xFF AND SWAP1 POP SWAP2 SWAP1 POP JUMP JUMPDEST PUSH1 0xC PUSH1 0x0 SWAP1 SLOAD SWAP1 PUSH2 0x100 EXP SWAP1 DIV PUSH20 0xFFFFFFFFFFFFFFFFFFFFFFFFFFFFFFFFFFFFFFFF AND PUSH20 0xFFFFFFFFFFFFFFFFFFFFFFFFFFFFFFFFFFFFFFFF AND CALLER PUSH20 0xFFFFFFFFFFFFFFFFFFFFFFFFFFFFFFFFFFFFFFFF AND EQ PUSH2 0xA64 JUMPI PUSH1 0x40 MLOAD PUSH32 0x8C379A000000000000000000000000000000000000000000000000000000000 DUP2 MSTORE PUSH1 0x4 ADD PUSH2 0xA5B SWAP1 PUSH2 0x29BF JUMP JUMPDEST PUSH1 0x40 MLOAD DUP1 SWAP2 SUB SWAP1 REVERT JUMPDEST PUSH1 0x64 DUP2 GT ISZERO PUSH2 0xAA8 JUMPI PUSH1 0x40 MLOAD PUSH32 0x8C379A000000000000000000000000000000000000000000000000000000000 DUP2 MSTORE PUSH1 0x4 ADD PUSH2 0xA9F SWAP1 PUSH2 0x2A2B JUMP JUMPDEST PUSH1 0x40 MLOAD DUP1 SWAP2 SUB SWAP1 REVERT JUMPDEST DUP1 PUSH1 0x9 DUP2 SWAP1 SSTORE POP POP JUMP JUMPDEST PUSH1 0x0 DUP1 PUSH11 0x84595161401484A000000 SUB PUSH2 0xACB JUMPI PUSH1 0x0 DUP1 REVERT JUMPDEST PUSH1 0x12 SWAP1 POP SWAP1 JUMP JUMPDEST PUSH1 0xE PUSH1 0x0 SWAP1 SLOAD SWAP1 PUSH2 0x100 EXP SWAP1 DIV PUSH20 0xFFFFFFFFFFFFFFFFFFFFFFFFFFFFFFFFFFFFFFFF AND DUP2 JUMP JUMPDEST PUSH1 0xC PUSH1 0x0 SWAP1 SLOAD SWAP1 PUSH2 0x100 EXP SWAP1 DIV PUSH20 0xFFFFFFFFFFFFFFFFFFFFFFFFFFFFFFFFFFFFFFFF AND PUSH20 0xFFFFFFFFFFFFFFFFFFFFFFFFFFFFFFFFFFFFFFFF AND CALLER PUSH20 0xFFFFFFFFFFFFFFFFFFFFFFFFFFFFFFFFFFFFFFFF AND EQ PUSH2 0xB88 JUMPI PUSH1 0x40 MLOAD PUSH32 0x8C379A000000000000000000000000000000000000000000000000000000000 DUP2 MSTORE PUSH1 0x4 ADD PUSH2 0xB7F SWAP1 PUSH2 0x2ABD JUMP JUMPDEST PUSH1 0x40 MLOAD DUP1 SWAP2 SUB SWAP1 REVERT JUMPDEST PUSH1 0x0 PUSH1 0x2 PUSH1 0x0 DUP4 PUSH20 0xFFFFFFFFFFFFFFFFFFFFFFFFFFFFFFFFFFFFFFFF AND PUSH20 0xFFFFFFFFFFFFFFFFFFFFFFFFFFFFFFFFFFFFFFFF AND DUP2 MSTORE PUSH1 0x20 ADD SWAP1 DUP2 MSTORE PUSH1 0x20 ADD PUSH1 0x0 KECCAK256 PUSH1 0x0 PUSH2 0x100 EXP DUP2 SLOAD DUP2 PUSH1 0xFF MUL NOT AND SWAP1 DUP4 ISZERO ISZERO MUL OR SWAP1 SSTORE POP POP JUMP JUMPDEST PUSH1 0xC PUSH1 0x0 SWAP1 SLOAD SWAP1 PUSH2 0x100 EXP SWAP1 DIV PUSH20 0xFFFFFFFFFFFFFFFFFFFFFFFFFFFFFFFFFFFFFFFF AND PUSH20 0xFFFFFFFFFFFFFFFFFFFFFFFFFFFFFFFFFFFFFFFF AND PUSH2 0xC24 PUSH2 0x1DC4 JUMP JUMPDEST PUSH20 0xFFFFFFFFFFFFFFFFFFFFFFFFFFFFFFFFFFFFFFFF AND EQ PUSH2 0xC44 JUMPI PUSH1 0x0 DUP1 REVERT JUMPDEST PUSH1 0x0 PUSH2 0xC4F ADDRESS PUSH2 0xD7E JUMP JUMPDEST SWAP1 POP PUSH1 0x8 SLOAD DUP2 LT PUSH2 0xC64 JUMPI PUSH2 0xC63 DUP2 PUSH2 0x1DCC JUMP JUMPDEST JUMPDEST POP JUMP JUMPDEST PUSH1 0xC PUSH1 0x0 SWAP1 SLOAD SWAP1 PUSH2 0x100 EXP SWAP1 DIV PUSH20 0xFFFFFFFFFFFFFFFFFFFFFFFFFFFFFFFFFFFFFFFF AND PUSH20 0xFFFFFFFFFFFFFFFFFFFFFFFFFFFFFFFFFFFFFFFF AND CALLER PUSH20 0xFFFFFFFFFFFFFFFFFFFFFFFFFFFFFFFFFFFFFFFF AND EQ PUSH2 0xCF7 JUMPI PUSH1 0x40 MLOAD PUSH32 0x8C379A000000000000000000000000000000000000000000000000000000000 DUP2 MSTORE PUSH1 0x4 ADD PUSH2 0xCEE SWAP1 PUSH2 0x2ABD JUMP JUMPDEST PUSH1 0x40 MLOAD DUP1 SWAP2 SUB SWAP1 REVERT JUMPDEST PUSH1 0x64 DUP2 LT ISZERO PUSH2 0xD3B JUMPI PUSH1 0x40 MLOAD PUSH32 0x8C379A000000000000000000000000000000000000000000000000000000000 DUP2 MSTORE PUSH1 0x4 ADD PUSH2 0xD32 SWAP1 PUSH2 0x2B29 JUMP JUMPDEST PUSH1 0x40 MLOAD DUP1 SWAP2 SUB SWAP1 REVERT JUMPDEST DUP1 PUSH1 0x8 DUP2 SWAP1 SSTORE POP PUSH32 0x2B7CE9CD4278161EEF9245955C9A851618488A07E830194C60A88F0224AD3CC0 PUSH1 0x8 SLOAD PUSH1 0x40 MLOAD PUSH2 0xD73 SWAP2 SWAP1 PUSH2 0x2550 JUMP JUMPDEST PUSH1 0x40 MLOAD DUP1 SWAP2 SUB SWAP1 LOG1 POP JUMP JUMPDEST PUSH1 0x0 PUSH1 0x4 PUSH1 0x0 DUP4 PUSH20 0xFFFFFFFFFFFFFFFFFFFFFFFFFFFFFFFFFFFFFFFF AND PUSH20 0xFFFFFFFFFFFFFFFFFFFFFFFFFFFFFFFFFFFFFFFF AND DUP2 MSTORE PUSH1 0x20 ADD SWAP1 DUP2 MSTORE PUSH1 0x20 ADD PUSH1 0x0 KECCAK256 SLOAD SWAP1 POP SWAP2 SWAP1 POP JUMP JUMPDEST PUSH2 0xDCF PUSH2 0x1DC4 JUMP JUMPDEST PUSH20 0xFFFFFFFFFFFFFFFFFFFFFFFFFFFFFFFFFFFFFFFF AND PUSH2 0xDED PUSH2 0xF4F JUMP JUMPDEST PUSH20 0xFFFFFFFFFFFFFFFFFFFFFFFFFFFFFFFFFFFFFFFF AND EQ PUSH2 0xE43 JUMPI PUSH1 0x40 MLOAD PUSH32 0x8C379A000000000000000000000000000000000000000000000000000000000 DUP2 MSTORE PUSH1 0x4 ADD PUSH2 0xE3A SWAP1 PUSH2 0x2B95 JUMP JUMPDEST PUSH1 0x40 MLOAD DUP1 SWAP2 SUB SWAP1 REVERT JUMPDEST PUSH2 0xE4D PUSH1 0x0 PUSH2 0x223F JUMP JUMPDEST JUMP JUMPDEST PUSH1 0xC PUSH1 0x0 SWAP1 SLOAD SWAP1 PUSH2 0x100 EXP SWAP1 DIV PUSH20 0xFFFFFFFFFFFFFFFFFFFFFFFFFFFFFFFFFFFFFFFF AND PUSH20 0xFFFFFFFFFFFFFFFFFFFFFFFFFFFFFFFFFFFFFFFF AND CALLER PUSH20 0xFFFFFFFFFFFFFFFFFFFFFFFFFFFFFFFFFFFFFFFF AND EQ PUSH2 0xEDF JUMPI PUSH1 0x40 MLOAD PUSH32 0x8C379A000000000000000000000000000000000000000000000000000000000 DUP2 MSTORE PUSH1 0x4 ADD PUSH2 0xED6 SWAP1 PUSH2 0x2ABD JUMP JUMPDEST PUSH1 0x40 MLOAD DUP1 SWAP2 SUB SWAP1 REVERT JUMPDEST PUSH1 0x0 PUSH1 0x6 PUSH1 0x0 DUP4 PUSH20 0xFFFFFFFFFFFFFFFFFFFFFFFFFFFFFFFFFFFFFFFF AND PUSH20 0xFFFFFFFFFFFFFFFFFFFFFFFFFFFFFFFFFFFFFFFF AND DUP2 MSTORE PUSH1 0x20 ADD SWAP1 DUP2 MSTORE PUSH1 0x20 ADD PUSH1 0x0 KECCAK256 PUSH1 0x0 PUSH2 0x100 EXP DUP2 SLOAD DUP2 PUSH1 0xFF MUL NOT AND SWAP1 DUP4 ISZERO ISZERO MUL OR SWAP1 SSTORE POP POP JUMP JUMPDEST PUSH1 0xA SLOAD DUP2 JUMP JUMPDEST PUSH1 0x0 PUSH2 0xF4A PUSH2 0xF4F JUMP JUMPDEST SWAP1 POP SWAP1 JUMP JUMPDEST PUSH1 0x0 DUP1 PUSH1 0x0 SWAP1 SLOAD SWAP1 PUSH2 0x100 EXP SWAP1 DIV PUSH20 0xFFFFFFFFFFFFFFFFFFFFFFFFFFFFFFFFFFFFFFFF AND SWAP1 POP SWAP1 JUMP JUMPDEST PUSH1 0xB SLOAD DUP2 JUMP JUMPDEST PUSH1 0x60 PUSH1 0x40 MLOAD DUP1 PUSH1 0x40 ADD PUSH1 0x40 MSTORE DUP1 PUSH1 0x4 DUP2 MSTORE PUSH1 0x20 ADD PUSH32 0x244F415400000000000000000000000000000000000000000000000000000000 DUP2 MSTORE POP SWAP1 POP SWAP1 JUMP JUMPDEST PUSH2 0xDEAD DUP2 JUMP JUMPDEST PUSH1 0xC PUSH1 0x0 SWAP1 SLOAD SWAP1 PUSH2 0x100 EXP SWAP1 DIV PUSH20 0xFFFFFFFFFFFFFFFFFFFFFFFFFFFFFFFFFFFFFFFF AND PUSH20 0xFFFFFFFFFFFFFFFFFFFFFFFFFFFFFFFFFFFFFFFF AND CALLER PUSH20 0xFFFFFFFFFFFFFFFFFFFFFFFFFFFFFFFFFFFFFFFF AND EQ PUSH2 0x1051 JUMPI PUSH1 0x40 MLOAD PUSH32 0x8C379A000000000000000000000000000000000000000000000000000000000 DUP2 MSTORE PUSH1 0x4 ADD PUSH2 0x1048 SWAP1 PUSH2 0x2ABD JUMP JUMPDEST PUSH1 0x40 MLOAD DUP1 SWAP2 SUB SWAP1 REVERT JUMPDEST PUSH1 0x0 PUSH20 0xFFFFFFFFFFFFFFFFFFFFFFFFFFFFFFFFFFFFFFFF AND DUP2 PUSH20 0xFFFFFFFFFFFFFFFFFFFFFFFFFFFFFFFFFFFFFFFF AND SUB PUSH2 0x10C0 JUMPI PUSH1 0x40 MLOAD PUSH32 0x8C379A000000000000000000000000000000000000000000000000000000000 DUP2 MSTORE PUSH1 0x4 ADD PUSH2 0x10B7 SWAP1 PUSH2 0x2C01 JUMP JUMPDEST PUSH1 0x40 MLOAD DUP1 SWAP2 SUB SWAP1 REVERT JUMPDEST PUSH1 0x1 PUSH1 0x6 PUSH1 0x0 DUP4 PUSH20 0xFFFFFFFFFFFFFFFFFFFFFFFFFFFFFFFFFFFFFFFF AND PUSH20 0xFFFFFFFFFFFFFFFFFFFFFFFFFFFFFFFFFFFFFFFF AND DUP2 MSTORE PUSH1 0x20 ADD SWAP1 DUP2 MSTORE PUSH1 0x20 ADD PUSH1 0x0 KECCAK256 PUSH1 0x0 PUSH2 0x100 EXP DUP2 SLOAD DUP2 PUSH1 0xFF MUL NOT AND SWAP1 DUP4 ISZERO ISZERO MUL OR SWAP1 SSTORE POP POP JUMP JUMPDEST PUSH1 0x0 PUSH2 0x1128 CALLER DUP5 DUP5 PUSH2 0x165E JUMP JUMPDEST POP PUSH1 0x1 SWAP1 POP SWAP3 SWAP2 POP POP JUMP JUMPDEST PUSH1 0x0 PUSH1 0x2 PUSH1 0x0 DUP4 PUSH20 0xFFFFFFFFFFFFFFFFFFFFFFFFFFFFFFFFFFFFFFFF AND PUSH20 0xFFFFFFFFFFFFFFFFFFFFFFFFFFFFFFFFFFFFFFFF AND DUP2 MSTORE PUSH1 0x20 ADD SWAP1 DUP2 MSTORE PUSH1 0x20 ADD PUSH1 0x0 KECCAK256 PUSH1 0x0 SWAP1 SLOAD SWAP1 PUSH2 0x100 EXP SWAP1 DIV PUSH1 0xFF AND SWAP1 POP SWAP2 SWAP1 POP JUMP JUMPDEST PUSH1 0x0 PUSH1 0x6 PUSH1 0x0 DUP4 PUSH20 0xFFFFFFFFFFFFFFFFFFFFFFFFFFFFFFFFFFFFFFFF AND PUSH20 0xFFFFFFFFFFFFFFFFFFFFFFFFFFFFFFFFFFFFFFFF AND DUP2 MSTORE PUSH1 0x20 ADD SWAP1 DUP2 MSTORE PUSH1 0x20 ADD PUSH1 0x0 KECCAK256 PUSH1 0x0 SWAP1 SLOAD SWAP1 PUSH2 0x100 EXP SWAP1 DIV PUSH1 0xFF AND SWAP1 POP SWAP2 SWAP1 POP JUMP JUMPDEST PUSH1 0xD PUSH1 0x0 SWAP1 SLOAD SWAP1 PUSH2 0x100 EXP SWAP1 DIV PUSH20 0xFFFFFFFFFFFFFFFFFFFFFFFFFFFFFFFFFFFFFFFF AND DUP2 JUMP JUMPDEST PUSH1 0x7 PUSH1 0x0 SWAP1 SLOAD SWAP1 PUSH2 0x100 EXP SWAP1 DIV PUSH1 0xFF AND DUP2 JUMP JUMPDEST PUSH1 0xC PUSH1 0x0 SWAP1 SLOAD SWAP1 PUSH2 0x100 EXP SWAP1 DIV PUSH20 0xFFFFFFFFFFFFFFFFFFFFFFFFFFFFFFFFFFFFFFFF AND PUSH20 0xFFFFFFFFFFFFFFFFFFFFFFFFFFFFFFFFFFFFFFFF AND CALLER PUSH20 0xFFFFFFFFFFFFFFFFFFFFFFFFFFFFFFFFFFFFFFFF AND EQ PUSH2 0x12A8 JUMPI PUSH1 0x40 MLOAD PUSH32 0x8C379A000000000000000000000000000000000000000000000000000000000 DUP2 MSTORE PUSH1 0x4 ADD PUSH2 0x129F SWAP1 PUSH2 0x2ABD JUMP JUMPDEST PUSH1 0x40 MLOAD DUP1 SWAP2 SUB SWAP1 REVERT JUMPDEST PUSH1 0x0 PUSH20 0xFFFFFFFFFFFFFFFFFFFFFFFFFFFFFFFFFFFFFFFF AND DUP2 PUSH20 0xFFFFFFFFFFFFFFFFFFFFFFFFFFFFFFFFFFFFFFFF AND SUB PUSH2 0x1317 JUMPI PUSH1 0x40 MLOAD PUSH32 0x8C379A000000000000000000000000000000000000000000000000000000000 DUP2 MSTORE PUSH1 0x4 ADD PUSH2 0x130E SWAP1 PUSH2 0x2C01 JUMP JUMPDEST PUSH1 0x40 MLOAD DUP1 SWAP2 SUB SWAP1 REVERT JUMPDEST PUSH1 0x1 PUSH1 0x2 PUSH1 0x0 DUP4 PUSH20 0xFFFFFFFFFFFFFFFFFFFFFFFFFFFFFFFFFFFFFFFF AND PUSH20 0xFFFFFFFFFFFFFFFFFFFFFFFFFFFFFFFFFFFFFFFF AND DUP2 MSTORE PUSH1 0x20 ADD SWAP1 DUP2 MSTORE PUSH1 0x20 ADD PUSH1 0x0 KECCAK256 PUSH1 0x0 PUSH2 0x100 EXP DUP2 SLOAD DUP2 PUSH1 0xFF MUL NOT AND SWAP1 DUP4 ISZERO ISZERO MUL OR SWAP1 SSTORE POP POP JUMP JUMPDEST PUSH1 0x64 DUP2 JUMP JUMPDEST PUSH1 0x0 PUSH1 0x1 PUSH1 0x0 DUP5 PUSH20 0xFFFFFFFFFFFFFFFFFFFFFFFFFFFFFFFFFFFFFFFF AND PUSH20 0xFFFFFFFFFFFFFFFFFFFFFFFFFFFFFFFFFFFFFFFF AND DUP2 MSTORE PUSH1 0x20 ADD SWAP1 DUP2 MSTORE PUSH1 0x20 ADD PUSH1 0x0 KECCAK256 PUSH1 0x0 DUP4 PUSH20 0xFFFFFFFFFFFFFFFFFFFFFFFFFFFFFFFFFFFFFFFF AND PUSH20 0xFFFFFFFFFFFFFFFFFFFFFFFFFFFFFFFFFFFFFFFF AND DUP2 MSTORE PUSH1 0x20 ADD SWAP1 DUP2 MSTORE PUSH1 0x20 ADD PUSH1 0x0 KECCAK256 SLOAD SWAP1 POP SWAP3 SWAP2 POP POP JUMP JUMPDEST PUSH1 0x2 DUP2 JUMP JUMPDEST PUSH2 0x140B PUSH2 0x1DC4 JUMP JUMPDEST PUSH20 0xFFFFFFFFFFFFFFFFFFFFFFFFFFFFFFFFFFFFFFFF AND PUSH2 0x1429 PUSH2 0xF4F JUMP JUMPDEST PUSH20 0xFFFFFFFFFFFFFFFFFFFFFFFFFFFFFFFFFFFFFFFF AND EQ PUSH2 0x147F JUMPI PUSH1 0x40 MLOAD PUSH32 0x8C379A000000000000000000000000000000000000000000000000000000000 DUP2 MSTORE PUSH1 0x4 ADD PUSH2 0x1476 SWAP1 PUSH2 0x2B95 JUMP JUMPDEST PUSH1 0x40 MLOAD DUP1 SWAP2 SUB SWAP1 REVERT JUMPDEST PUSH1 0x0 PUSH20 0xFFFFFFFFFFFFFFFFFFFFFFFFFFFFFFFFFFFFFFFF AND DUP2 PUSH20 0xFFFFFFFFFFFFFFFFFFFFFFFFFFFFFFFFFFFFFFFF AND SUB PUSH2 0x14EE JUMPI PUSH1 0x40 MLOAD PUSH32 0x8C379A000000000000000000000000000000000000000000000000000000000 DUP2 MSTORE PUSH1 0x4 ADD PUSH2 0x14E5 SWAP1 PUSH2 0x2C93 JUMP JUMPDEST PUSH1 0x40 MLOAD DUP1 SWAP2 SUB SWAP1 REVERT JUMPDEST PUSH2 0x14F7 DUP2 PUSH2 0x223F JUMP JUMPDEST POP JUMP JUMPDEST PUSH1 0x0 PUSH20 0xFFFFFFFFFFFFFFFFFFFFFFFFFFFFFFFFFFFFFFFF AND DUP4 PUSH20 0xFFFFFFFFFFFFFFFFFFFFFFFFFFFFFFFFFFFFFFFF AND SUB PUSH2 0x1569 JUMPI PUSH1 0x40 MLOAD PUSH32 0x8C379A000000000000000000000000000000000000000000000000000000000 DUP2 MSTORE PUSH1 0x4 ADD PUSH2 0x1560 SWAP1 PUSH2 0x2CFF JUMP JUMPDEST PUSH1 0x40 MLOAD DUP1 SWAP2 SUB SWAP1 REVERT JUMPDEST PUSH1 0x0 PUSH20 0xFFFFFFFFFFFFFFFFFFFFFFFFFFFFFFFFFFFFFFFF AND DUP3 PUSH20 0xFFFFFFFFFFFFFFFFFFFFFFFFFFFFFFFFFFFFFFFF AND SUB PUSH2 0x15D8 JUMPI PUSH1 0x40 MLOAD PUSH32 0x8C379A000000000000000000000000000000000000000000000000000000000 DUP2 MSTORE PUSH1 0x4 ADD PUSH2 0x15CF SWAP1 PUSH2 0x2CFF JUMP JUMPDEST PUSH1 0x40 MLOAD DUP1 SWAP2 SUB SWAP1 REVERT JUMPDEST DUP1 PUSH1 0x1 PUSH1 0x0 DUP6 PUSH20 0xFFFFFFFFFFFFFFFFFFFFFFFFFFFFFFFFFFFFFFFF AND PUSH20 0xFFFFFFFFFFFFFFFFFFFFFFFFFFFFFFFFFFFFFFFF AND DUP2 MSTORE PUSH1 0x20 ADD SWAP1 DUP2 MSTORE PUSH1 0x20 ADD PUSH1 0x0 KECCAK256 PUSH1 0x0 DUP5 PUSH20 0xFFFFFFFFFFFFFFFFFFFFFFFFFFFFFFFFFFFFFFFF AND PUSH20 0xFFFFFFFFFFFFFFFFFFFFFFFFFFFFFFFFFFFFFFFF AND DUP2 MSTORE PUSH1 0x20 ADD SWAP1 DUP2 MSTORE PUSH1 0x20 ADD PUSH1 0x0 KECCAK256 DUP2 SWAP1 SSTORE POP POP POP POP JUMP JUMPDEST PUSH1 0x0 DUP1 PUSH1 0x1 SWAP1 POP PUSH1 0x0 PUSH20 0xFFFFFFFFFFFFFFFFFFFFFFFFFFFFFFFFFFFFFFFF AND DUP5 PUSH20 0xFFFFFFFFFFFFFFFFFFFFFFFFFFFFFFFFFFFFFFFF AND SUB PUSH2 0x16D4 JUMPI PUSH1 0x40 MLOAD PUSH32 0x8C379A000000000000000000000000000000000000000000000000000000000 DUP2 MSTORE PUSH1 0x4 ADD PUSH2 0x16CB SWAP1 PUSH2 0x2D91 JUMP JUMPDEST PUSH1 0x40 MLOAD DUP1 SWAP2 SUB SWAP1 REVERT JUMPDEST PUSH1 0x0 PUSH20 0xFFFFFFFFFFFFFFFFFFFFFFFFFFFFFFFFFFFFFFFF AND DUP6 PUSH20 0xFFFFFFFFFFFFFFFFFFFFFFFFFFFFFFFFFFFFFFFF AND SUB PUSH2 0x1743 JUMPI PUSH1 0x40 MLOAD PUSH32 0x8C379A000000000000000000000000000000000000000000000000000000000 DUP2 MSTORE PUSH1 0x4 ADD PUSH2 0x173A SWAP1 PUSH2 0x2E23 JUMP JUMPDEST PUSH1 0x40 MLOAD DUP1 SWAP2 SUB SWAP1 REVERT JUMPDEST PUSH1 0x0 DUP4 GT PUSH2 0x1786 JUMPI PUSH1 0x40 MLOAD PUSH32 0x8C379A000000000000000000000000000000000000000000000000000000000 DUP2 MSTORE PUSH1 0x4 ADD PUSH2 0x177D SWAP1 PUSH2 0x2EB5 JUMP JUMPDEST PUSH1 0x40 MLOAD DUP1 SWAP2 SUB SWAP1 REVERT JUMPDEST PUSH2 0x178E PUSH2 0xF4F JUMP JUMPDEST PUSH20 0xFFFFFFFFFFFFFFFFFFFFFFFFFFFFFFFFFFFFFFFF AND DUP6 PUSH20 0xFFFFFFFFFFFFFFFFFFFFFFFFFFFFFFFFFFFFFFFF AND EQ ISZERO DUP1 ISZERO PUSH2 0x17FC JUMPI POP PUSH2 0x17CC PUSH2 0xF4F JUMP JUMPDEST PUSH20 0xFFFFFFFFFFFFFFFFFFFFFFFFFFFFFFFFFFFFFFFF AND DUP5 PUSH20 0xFFFFFFFFFFFFFFFFFFFFFFFFFFFFFFFFFFFFFFFF AND EQ ISZERO JUMPDEST ISZERO PUSH2 0x1DB8 JUMPI PUSH1 0x7 PUSH1 0x0 SWAP1 SLOAD SWAP1 PUSH2 0x100 EXP SWAP1 DIV PUSH1 0xFF AND ISZERO PUSH2 0x198E JUMPI PUSH1 0xD PUSH1 0x0 SWAP1 SLOAD SWAP1 PUSH2 0x100 EXP SWAP1 DIV PUSH20 0xFFFFFFFFFFFFFFFFFFFFFFFFFFFFFFFFFFFFFFFF AND PUSH20 0xFFFFFFFFFFFFFFFFFFFFFFFFFFFFFFFFFFFFFFFF AND DUP5 PUSH20 0xFFFFFFFFFFFFFFFFFFFFFFFFFFFFFFFFFFFFFFFF AND EQ ISZERO DUP1 ISZERO PUSH2 0x18C2 JUMPI POP PUSH1 0xE PUSH1 0x0 SWAP1 SLOAD SWAP1 PUSH2 0x100 EXP SWAP1 DIV PUSH20 0xFFFFFFFFFFFFFFFFFFFFFFFFFFFFFFFFFFFFFFFF AND PUSH20 0xFFFFFFFFFFFFFFFFFFFFFFFFFFFFFFFFFFFFFFFF AND DUP5 PUSH20 0xFFFFFFFFFFFFFFFFFFFFFFFFFFFFFFFFFFFFFFFF AND EQ ISZERO JUMPDEST ISZERO PUSH2 0x198D JUMPI NUMBER PUSH1 0x5 PUSH1 0x0 ORIGIN PUSH20 0xFFFFFFFFFFFFFFFFFFFFFFFFFFFFFFFFFFFFFFFF AND PUSH20 0xFFFFFFFFFFFFFFFFFFFFFFFFFFFFFFFFFFFFFFFF AND DUP2 MSTORE PUSH1 0x20 ADD SWAP1 DUP2 MSTORE PUSH1 0x20 ADD PUSH1 0x0 KECCAK256 SLOAD LT PUSH2 0x1948 JUMPI PUSH1 0x40 MLOAD PUSH32 0x8C379A000000000000000000000000000000000000000000000000000000000 DUP2 MSTORE PUSH1 0x4 ADD PUSH2 0x193F SWAP1 PUSH2 0x2F47 JUMP JUMPDEST PUSH1 0x40 MLOAD DUP1 SWAP2 SUB SWAP1 REVERT JUMPDEST NUMBER PUSH1 0x5 PUSH1 0x0 ORIGIN PUSH20 0xFFFFFFFFFFFFFFFFFFFFFFFFFFFFFFFFFFFFFFFF AND PUSH20 0xFFFFFFFFFFFFFFFFFFFFFFFFFFFFFFFFFFFFFFFF AND DUP2 MSTORE PUSH1 0x20 ADD SWAP1 DUP2 MSTORE PUSH1 0x20 ADD PUSH1 0x0 KECCAK256 DUP2 SWAP1 SSTORE POP JUMPDEST JUMPDEST PUSH1 0xE PUSH1 0x0 SWAP1 SLOAD SWAP1 PUSH2 0x100 EXP SWAP1 DIV PUSH20 0xFFFFFFFFFFFFFFFFFFFFFFFFFFFFFFFFFFFFFFFF AND PUSH20 0xFFFFFFFFFFFFFFFFFFFFFFFFFFFFFFFFFFFFFFFF AND DUP6 PUSH20 0xFFFFFFFFFFFFFFFFFFFFFFFFFFFFFFFFFFFFFFFF AND EQ DUP1 ISZERO PUSH2 0x1A39 JUMPI POP PUSH1 0xD PUSH1 0x0 SWAP1 SLOAD SWAP1 PUSH2 0x100 EXP SWAP1 DIV PUSH20 0xFFFFFFFFFFFFFFFFFFFFFFFFFFFFFFFFFFFFFFFF AND PUSH20 0xFFFFFFFFFFFFFFFFFFFFFFFFFFFFFFFFFFFFFFFF AND DUP5 PUSH20 0xFFFFFFFFFFFFFFFFFFFFFFFFFFFFFFFFFFFFFFFF AND EQ ISZERO JUMPDEST DUP1 ISZERO PUSH2 0x1A93 JUMPI POP PUSH1 0xE PUSH1 0x0 SWAP1 SLOAD SWAP1 PUSH2 0x100 EXP SWAP1 DIV PUSH20 0xFFFFFFFFFFFFFFFFFFFFFFFFFFFFFFFFFFFFFFFF AND PUSH20 0xFFFFFFFFFFFFFFFFFFFFFFFFFFFFFFFFFFFFFFFF AND DUP5 PUSH20 0xFFFFFFFFFFFFFFFFFFFFFFFFFFFFFFFFFFFFFFFF AND EQ ISZERO JUMPDEST DUP1 ISZERO PUSH2 0x1AE9 JUMPI POP PUSH1 0x2 PUSH1 0x0 DUP6 PUSH20 0xFFFFFFFFFFFFFFFFFFFFFFFFFFFFFFFFFFFFFFFF AND PUSH20 0xFFFFFFFFFFFFFFFFFFFFFFFFFFFFFFFFFFFFFFFF AND DUP2 MSTORE PUSH1 0x20 ADD SWAP1 DUP2 MSTORE PUSH1 0x20 ADD PUSH1 0x0 KECCAK256 PUSH1 0x0 SWAP1 SLOAD SWAP1 PUSH2 0x100 EXP SWAP1 DIV PUSH1 0xFF AND ISZERO JUMPDEST ISZERO PUSH2 0x1B8C JUMPI PUSH1 0xA SLOAD DUP4 GT ISZERO PUSH2 0x1B33 JUMPI PUSH1 0x40 MLOAD PUSH32 0x8C379A000000000000000000000000000000000000000000000000000000000 DUP2 MSTORE PUSH1 0x4 ADD PUSH2 0x1B2A SWAP1 PUSH2 0x2FB3 JUMP JUMPDEST PUSH1 0x40 MLOAD DUP1 SWAP2 SUB SWAP1 REVERT JUMPDEST PUSH1 0xB SLOAD DUP4 PUSH2 0x1B40 DUP7 PUSH2 0xD7E JUMP JUMPDEST PUSH2 0x1B4A SWAP2 SWAP1 PUSH2 0x2FD3 JUMP JUMPDEST GT ISZERO PUSH2 0x1B8B JUMPI PUSH1 0x40 MLOAD PUSH32 0x8C379A000000000000000000000000000000000000000000000000000000000 DUP2 MSTORE PUSH1 0x4 ADD PUSH2 0x1B82 SWAP1 PUSH2 0x3053 JUMP JUMPDEST PUSH1 0x40 MLOAD DUP1 SWAP2 SUB SWAP1 REVERT JUMPDEST JUMPDEST PUSH2 0x1B96 DUP6 DUP6 PUSH2 0x2303 JUMP JUMPDEST DUP1 ISZERO PUSH2 0x1BAF JUMPI POP PUSH1 0xE PUSH1 0x14 SWAP1 SLOAD SWAP1 PUSH2 0x100 EXP SWAP1 DIV PUSH1 0xFF AND ISZERO JUMPDEST ISZERO PUSH2 0x1BD6 JUMPI PUSH1 0x0 PUSH2 0x1BBF ADDRESS PUSH2 0xD7E JUMP JUMPDEST SWAP1 POP PUSH1 0x8 SLOAD DUP2 LT PUSH2 0x1BD4 JUMPI PUSH2 0x1BD3 DUP2 PUSH2 0x1DCC JUMP JUMPDEST JUMPDEST POP JUMPDEST PUSH1 0x2 PUSH1 0x0 DUP7 PUSH20 0xFFFFFFFFFFFFFFFFFFFFFFFFFFFFFFFFFFFFFFFF AND PUSH20 0xFFFFFFFFFFFFFFFFFFFFFFFFFFFFFFFFFFFFFFFF AND DUP2 MSTORE PUSH1 0x20 ADD SWAP1 DUP2 MSTORE PUSH1 0x20 ADD PUSH1 0x0 KECCAK256 PUSH1 0x0 SWAP1 SLOAD SWAP1 PUSH2 0x100 EXP SWAP1 DIV PUSH1 0xFF AND DUP1 PUSH2 0x1C77 JUMPI POP PUSH1 0x2 PUSH1 0x0 DUP6 PUSH20 0xFFFFFFFFFFFFFFFFFFFFFFFFFFFFFFFFFFFFFFFF AND PUSH20 0xFFFFFFFFFFFFFFFFFFFFFFFFFFFFFFFFFFFFFFFF AND DUP2 MSTORE PUSH1 0x20 ADD SWAP1 DUP2 MSTORE PUSH1 0x20 ADD PUSH1 0x0 KECCAK256 PUSH1 0x0 SWAP1 SLOAD SWAP1 PUSH2 0x100 EXP SWAP1 DIV PUSH1 0xFF AND JUMPDEST ISZERO PUSH2 0x1C81 JUMPI PUSH1 0x0 SWAP1 POP JUMPDEST DUP3 PUSH1 0x4 PUSH1 0x0 DUP8 PUSH20 0xFFFFFFFFFFFFFFFFFFFFFFFFFFFFFFFFFFFFFFFF AND PUSH20 0xFFFFFFFFFFFFFFFFFFFFFFFFFFFFFFFFFFFFFFFF AND DUP2 MSTORE PUSH1 0x20 ADD SWAP1 DUP2 MSTORE PUSH1 0x20 ADD PUSH1 0x0 KECCAK256 PUSH1 0x0 DUP3 DUP3 SLOAD PUSH2 0x1CD0 SWAP2 SWAP1 PUSH2 0x2919 JUMP JUMPDEST SWAP3 POP POP DUP2 SWAP1 SSTORE POP PUSH1 0x0 DUP2 PUSH2 0x1CE4 JUMPI DUP4 PUSH2 0x1CF9 JUMP JUMPDEST PUSH2 0x1CF8 DUP7 PUSH2 0x1CF2 DUP9 DUP9 PUSH2 0x2303 JUMP JUMPDEST DUP7 PUSH2 0x23B5 JUMP JUMPDEST JUMPDEST SWAP1 POP DUP1 PUSH1 0x4 PUSH1 0x0 DUP8 PUSH20 0xFFFFFFFFFFFFFFFFFFFFFFFFFFFFFFFFFFFFFFFF AND PUSH20 0xFFFFFFFFFFFFFFFFFFFFFFFFFFFFFFFFFFFFFFFF AND DUP2 MSTORE PUSH1 0x20 ADD SWAP1 DUP2 MSTORE PUSH1 0x20 ADD PUSH1 0x0 KECCAK256 PUSH1 0x0 DUP3 DUP3 SLOAD PUSH2 0x1D4A SWAP2 SWAP1 PUSH2 0x2FD3 JUMP JUMPDEST SWAP3 POP POP DUP2 SWAP1 SSTORE POP DUP5 PUSH20 0xFFFFFFFFFFFFFFFFFFFFFFFFFFFFFFFFFFFFFFFF AND DUP7 PUSH20 0xFFFFFFFFFFFFFFFFFFFFFFFFFFFFFFFFFFFFFFFF AND PUSH32 0xDDF252AD1BE2C89B69C2B068FC378DAA952BA7F163C4A11628F55A4DF523B3EF DUP4 PUSH1 0x40 MLOAD PUSH2 0x1DAE SWAP2 SWAP1 PUSH2 0x2550 JUMP JUMPDEST PUSH1 0x40 MLOAD DUP1 SWAP2 SUB SWAP1 LOG3 POP JUMPDEST PUSH1 0x1 SWAP2 POP POP SWAP4 SWAP3 POP POP POP JUMP JUMPDEST PUSH1 0x0 CALLER SWAP1 POP SWAP1 JUMP JUMPDEST PUSH1 0x1 PUSH1 0xE PUSH1 0x14 PUSH2 0x100 EXP DUP2 SLOAD DUP2 PUSH1 0xFF MUL NOT AND SWAP1 DUP4 ISZERO ISZERO MUL OR SWAP1 SSTORE POP PUSH1 0x0 PUSH1 0x2 PUSH8 0xFFFFFFFFFFFFFFFF DUP2 GT ISZERO PUSH2 0x1E04 JUMPI PUSH2 0x1E03 PUSH2 0x3073 JUMP JUMPDEST JUMPDEST PUSH1 0x40 MLOAD SWAP1 DUP1 DUP3 MSTORE DUP1 PUSH1 0x20 MUL PUSH1 0x20 ADD DUP3 ADD PUSH1 0x40 MSTORE DUP1 ISZERO PUSH2 0x1E32 JUMPI DUP2 PUSH1 0x20 ADD PUSH1 0x20 DUP3 MUL DUP1 CALLDATASIZE DUP4 CALLDATACOPY DUP1 DUP3 ADD SWAP2 POP POP SWAP1 POP JUMPDEST POP SWAP1 POP ADDRESS DUP2 PUSH1 0x0 DUP2 MLOAD DUP2 LT PUSH2 0x1E4A JUMPI PUSH2 0x1E49 PUSH2 0x30A2 JUMP JUMPDEST JUMPDEST PUSH1 0x20 MUL PUSH1 0x20 ADD ADD SWAP1 PUSH20 0xFFFFFFFFFFFFFFFFFFFFFFFFFFFFFFFFFFFFFFFF AND SWAP1 DUP2 PUSH20 0xFFFFFFFFFFFFFFFFFFFFFFFFFFFFFFFFFFFFFFFF AND DUP2 MSTORE POP POP PUSH1 0xD PUSH1 0x0 SWAP1 SLOAD SWAP1 PUSH2 0x100 EXP SWAP1 DIV PUSH20 0xFFFFFFFFFFFFFFFFFFFFFFFFFFFFFFFFFFFFFFFF AND PUSH20 0xFFFFFFFFFFFFFFFFFFFFFFFFFFFFFFFFFFFFFFFF AND PUSH4 0xAD5C4648 PUSH1 0x40 MLOAD DUP2 PUSH4 0xFFFFFFFF AND PUSH1 0xE0 SHL DUP2 MSTORE PUSH1 0x4 ADD PUSH1 0x20 PUSH1 0x40 MLOAD DUP1 DUP4 SUB DUP2 DUP7 GAS STATICCALL ISZERO DUP1 ISZERO PUSH2 0x1EF1 JUMPI RETURNDATASIZE PUSH1 0x0 DUP1 RETURNDATACOPY RETURNDATASIZE PUSH1 0x0 REVERT JUMPDEST POP POP POP POP PUSH1 0x40 MLOAD RETURNDATASIZE PUSH1 0x1F NOT PUSH1 0x1F DUP3 ADD AND DUP3 ADD DUP1 PUSH1 0x40 MSTORE POP DUP2 ADD SWAP1 PUSH2 0x1F15 SWAP2 SWAP1 PUSH2 0x30E6 JUMP JUMPDEST DUP2 PUSH1 0x1 DUP2 MLOAD DUP2 LT PUSH2 0x1F29 JUMPI PUSH2 0x1F28 PUSH2 0x30A2 JUMP JUMPDEST JUMPDEST PUSH1 0x20 MUL PUSH1 0x20 ADD ADD SWAP1 PUSH20 0xFFFFFFFFFFFFFFFFFFFFFFFFFFFFFFFFFFFFFFFF AND SWAP1 DUP2 PUSH20 0xFFFFFFFFFFFFFFFFFFFFFFFFFFFFFFFFFFFFFFFF AND DUP2 MSTORE POP POP PUSH32 0xFFFFFFFFFFFFFFFFFFFFFFFFFFFFFFFFFFFFFFFFFFFFFFFFFFFFFFFFFFFFFFFF PUSH1 0x1 PUSH1 0x0 ADDRESS PUSH20 0xFFFFFFFFFFFFFFFFFFFFFFFFFFFFFFFFFFFFFFFF AND PUSH20 0xFFFFFFFFFFFFFFFFFFFFFFFFFFFFFFFFFFFFFFFF AND DUP2 MSTORE PUSH1 0x20 ADD SWAP1 DUP2 MSTORE PUSH1 0x20 ADD PUSH1 0x0 KECCAK256 PUSH1 0x0 PUSH1 0xD PUSH1 0x0 SWAP1 SLOAD SWAP1 PUSH2 0x100 EXP SWAP1 DIV PUSH20 0xFFFFFFFFFFFFFFFFFFFFFFFFFFFFFFFFFFFFFFFF AND PUSH20 0xFFFFFFFFFFFFFFFFFFFFFFFFFFFFFFFFFFFFFFFF AND PUSH20 0xFFFFFFFFFFFFFFFFFFFFFFFFFFFFFFFFFFFFFFFF AND DUP2 MSTORE PUSH1 0x20 ADD SWAP1 DUP2 MSTORE PUSH1 0x20 ADD PUSH1 0x0 KECCAK256 SLOAD EQ PUSH2 0x20EC JUMPI PUSH32 0xFFFFFFFFFFFFFFFFFFFFFFFFFFFFFFFFFFFFFFFFFFFFFFFFFFFFFFFFFFFFFFFF PUSH1 0x1 PUSH1 0x0 ADDRESS PUSH20 0xFFFFFFFFFFFFFFFFFFFFFFFFFFFFFFFFFFFFFFFF AND PUSH20 0xFFFFFFFFFFFFFFFFFFFFFFFFFFFFFFFFFFFFFFFF AND DUP2 MSTORE PUSH1 0x20 ADD SWAP1 DUP2 MSTORE PUSH1 0x20 ADD PUSH1 0x0 KECCAK256 PUSH1 0x0 PUSH1 0xD PUSH1 0x0 SWAP1 SLOAD SWAP1 PUSH2 0x100 EXP SWAP1 DIV PUSH20 0xFFFFFFFFFFFFFFFFFFFFFFFFFFFFFFFFFFFFFFFF AND PUSH20 0xFFFFFFFFFFFFFFFFFFFFFFFFFFFFFFFFFFFFFFFF AND PUSH20 0xFFFFFFFFFFFFFFFFFFFFFFFFFFFFFFFFFFFFFFFF AND DUP2 MSTORE PUSH1 0x20 ADD SWAP1 DUP2 MSTORE PUSH1 0x20 ADD PUSH1 0x0 KECCAK256 DUP2 SWAP1 SSTORE POP JUMPDEST PUSH1 0xD PUSH1 0x0 SWAP1 SLOAD SWAP1 PUSH2 0x100 EXP SWAP1 DIV PUSH20 0xFFFFFFFFFFFFFFFFFFFFFFFFFFFFFFFFFFFFFFFF AND PUSH20 0xFFFFFFFFFFFFFFFFFFFFFFFFFFFFFFFFFFFFFFFF AND PUSH4 0x791AC947 DUP4 PUSH1 0x0 DUP5 ADDRESS TIMESTAMP PUSH1 0x40 MLOAD DUP7 PUSH4 0xFFFFFFFF AND PUSH1 0xE0 SHL DUP2 MSTORE PUSH1 0x4 ADD PUSH2 0x2150 SWAP6 SWAP5 SWAP4 SWAP3 SWAP2 SWAP1 PUSH2 0x320C JUMP JUMPDEST PUSH1 0x0 PUSH1 0x40 MLOAD DUP1 DUP4 SUB DUP2 PUSH1 0x0 DUP8 DUP1 EXTCODESIZE ISZERO DUP1 ISZERO PUSH2 0x216A JUMPI PUSH1 0x0 DUP1 REVERT JUMPDEST POP GAS CALL SWAP3 POP POP POP DUP1 ISZERO PUSH2 0x217B JUMPI POP PUSH1 0x1 JUMPDEST PUSH2 0x2185 JUMPI POP PUSH2 0x2221 JUMP JUMPDEST PUSH1 0x0 DUP1 SELFBALANCE GT ISZERO PUSH2 0x221E JUMPI PUSH1 0xC PUSH1 0x0 SWAP1 SLOAD SWAP1 PUSH2 0x100 EXP SWAP1 DIV PUSH20 0xFFFFFFFFFFFFFFFFFFFFFFFFFFFFFFFFFFFFFFFF AND PUSH20 0xFFFFFFFFFFFFFFFFFFFFFFFFFFFFFFFFFFFFFFFF AND SELFBALANCE PUSH1 0x40 MLOAD PUSH2 0x21D5 SWAP1 PUSH2 0x3297 JUMP JUMPDEST PUSH1 0x0 PUSH1 0x40 MLOAD DUP1 DUP4 SUB DUP2 DUP6 DUP8 GAS CALL SWAP3 POP POP POP RETURNDATASIZE DUP1 PUSH1 0x0 DUP2 EQ PUSH2 0x2212 JUMPI PUSH1 0x40 MLOAD SWAP2 POP PUSH1 0x1F NOT PUSH1 0x3F RETURNDATASIZE ADD AND DUP3 ADD PUSH1 0x40 MSTORE RETURNDATASIZE DUP3 MSTORE RETURNDATASIZE PUSH1 0x0 PUSH1 0x20 DUP5 ADD RETURNDATACOPY PUSH2 0x2217 JUMP JUMPDEST PUSH1 0x60 SWAP2 POP JUMPDEST POP POP DUP1 SWAP2 POP POP JUMPDEST POP POP JUMPDEST PUSH1 0x0 PUSH1 0xE PUSH1 0x14 PUSH2 0x100 EXP DUP2 SLOAD DUP2 PUSH1 0xFF MUL NOT AND SWAP1 DUP4 ISZERO ISZERO MUL OR SWAP1 SSTORE POP POP JUMP JUMPDEST PUSH1 0x0 DUP1 PUSH1 0x0 SWAP1 SLOAD SWAP1 PUSH2 0x100 EXP SWAP1 DIV PUSH20 0xFFFFFFFFFFFFFFFFFFFFFFFFFFFFFFFFFFFFFFFF AND SWAP1 POP DUP2 PUSH1 0x0 DUP1 PUSH2 0x100 EXP DUP2 SLOAD DUP2 PUSH20 0xFFFFFFFFFFFFFFFFFFFFFFFFFFFFFFFFFFFFFFFF MUL NOT AND SWAP1 DUP4 PUSH20 0xFFFFFFFFFFFFFFFFFFFFFFFFFFFFFFFFFFFFFFFF AND MUL OR SWAP1 SSTORE POP DUP2 PUSH20 0xFFFFFFFFFFFFFFFFFFFFFFFFFFFFFFFFFFFFFFFF AND DUP2 PUSH20 0xFFFFFFFFFFFFFFFFFFFFFFFFFFFFFFFFFFFFFFFF AND PUSH32 0x8BE0079C531659141344CD1FD0A4F28419497F9722A3DAAFE3B4186F6B6457E0 PUSH1 0x40 MLOAD PUSH1 0x40 MLOAD DUP1 SWAP2 SUB SWAP1 LOG3 POP POP JUMP JUMPDEST PUSH1 0x0 DUP1 PUSH1 0x3 PUSH1 0x0 DUP5 PUSH20 0xFFFFFFFFFFFFFFFFFFFFFFFFFFFFFFFFFFFFFFFF AND PUSH20 0xFFFFFFFFFFFFFFFFFFFFFFFFFFFFFFFFFFFFFFFF AND DUP2 MSTORE PUSH1 0x20 ADD SWAP1 DUP2 MSTORE PUSH1 0x20 ADD PUSH1 0x0 KECCAK256 PUSH1 0x0 SWAP1 SLOAD SWAP1 PUSH2 0x100 EXP SWAP1 DIV PUSH1 0xFF AND DUP1 ISZERO PUSH2 0x23A9 JUMPI POP PUSH1 0x3 PUSH1 0x0 DUP6 PUSH20 0xFFFFFFFFFFFFFFFFFFFFFFFFFFFFFFFFFFFFFFFF AND PUSH20 0xFFFFFFFFFFFFFFFFFFFFFFFFFFFFFFFFFFFFFFFF AND DUP2 MSTORE PUSH1 0x20 ADD SWAP1 DUP2 MSTORE PUSH1 0x20 ADD PUSH1 0x0 KECCAK256 PUSH1 0x0 SWAP1 SLOAD SWAP1 PUSH2 0x100 EXP SWAP1 DIV PUSH1 0xFF AND ISZERO JUMPDEST SWAP1 POP DUP1 SWAP2 POP POP SWAP3 SWAP2 POP POP JUMP JUMPDEST PUSH1 0x0 DUP1 PUSH1 0x0 SWAP1 POP DUP4 DUP1 ISZERO PUSH2 0x2412 JUMPI POP PUSH1 0x6 PUSH1 0x0 DUP7 PUSH20 0xFFFFFFFFFFFFFFFFFFFFFFFFFFFFFFFFFFFFFFFF AND PUSH20 0xFFFFFFFFFFFFFFFFFFFFFFFFFFFFFFFFFFFFFFFF AND DUP2 MSTORE PUSH1 0x20 ADD SWAP1 DUP2 MSTORE PUSH1 0x20 ADD PUSH1 0x0 KECCAK256 PUSH1 0x0 SWAP1 SLOAD SWAP1 PUSH2 0x100 EXP SWAP1 DIV PUSH1 0xFF AND JUMPDEST ISZERO PUSH2 0x2421 JUMPI PUSH1 0x9 SLOAD SWAP1 POP PUSH2 0x242D JUMP JUMPDEST DUP4 ISZERO PUSH2 0x242C JUMPI PUSH1 0x2 SWAP1 POP JUMPDEST JUMPDEST PUSH1 0x0 DUP2 SUB PUSH2 0x243E JUMPI DUP3 SWAP2 POP POP PUSH2 0x2530 JUMP JUMPDEST PUSH1 0x0 PUSH1 0x64 DUP3 DUP6 PUSH2 0x244E SWAP2 SWAP1 PUSH2 0x32AC JUMP JUMPDEST PUSH2 0x2458 SWAP2 SWAP1 PUSH2 0x331D JUMP JUMPDEST SWAP1 POP PUSH1 0x0 DUP2 GT ISZERO PUSH2 0x251F JUMPI DUP1 PUSH1 0x4 PUSH1 0x0 ADDRESS PUSH20 0xFFFFFFFFFFFFFFFFFFFFFFFFFFFFFFFFFFFFFFFF AND PUSH20 0xFFFFFFFFFFFFFFFFFFFFFFFFFFFFFFFFFFFFFFFF AND DUP2 MSTORE PUSH1 0x20 ADD SWAP1 DUP2 MSTORE PUSH1 0x20 ADD PUSH1 0x0 KECCAK256 PUSH1 0x0 DUP3 DUP3 SLOAD PUSH2 0x24B2 SWAP2 SWAP1 PUSH2 0x2FD3 JUMP JUMPDEST SWAP3 POP POP DUP2 SWAP1 SSTORE POP ADDRESS PUSH20 0xFFFFFFFFFFFFFFFFFFFFFFFFFFFFFFFFFFFFFFFF AND DUP7 PUSH20 0xFFFFFFFFFFFFFFFFFFFFFFFFFFFFFFFFFFFFFFFF AND PUSH32 0xDDF252AD1BE2C89B69C2B068FC378DAA952BA7F163C4A11628F55A4DF523B3EF DUP4 PUSH1 0x40 MLOAD PUSH2 0x2516 SWAP2 SWAP1 PUSH2 0x2550 JUMP JUMPDEST PUSH1 0x40 MLOAD DUP1 SWAP2 SUB SWAP1 LOG3 JUMPDEST DUP1 DUP5 PUSH2 0x252B SWAP2 SWAP1 PUSH2 0x2919 JUMP JUMPDEST SWAP3 POP POP POP JUMPDEST SWAP4 SWAP3 POP POP POP JUMP JUMPDEST PUSH1 0x0 DUP2 SWAP1 POP SWAP2 SWAP1 POP JUMP JUMPDEST PUSH2 0x254A DUP2 PUSH2 0x2537 JUMP JUMPDEST DUP3 MSTORE POP POP JUMP JUMPDEST PUSH1 0x0 PUSH1 0x20 DUP3 ADD SWAP1 POP PUSH2 0x2565 PUSH1 0x0 DUP4 ADD DUP5 PUSH2 0x2541 JUMP JUMPDEST SWAP3 SWAP2 POP POP JUMP JUMPDEST PUSH1 0x0 DUP2 MLOAD SWAP1 POP SWAP2 SWAP1 POP JUMP JUMPDEST PUSH1 0x0 DUP3 DUP3 MSTORE PUSH1 0x20 DUP3 ADD SWAP1 POP SWAP3 SWAP2 POP POP JUMP JUMPDEST PUSH1 0x0 JUMPDEST DUP4 DUP2 LT ISZERO PUSH2 0x25A5 JUMPI DUP1 DUP3 ADD MLOAD DUP2 DUP5 ADD MSTORE PUSH1 0x20 DUP2 ADD SWAP1 POP PUSH2 0x258A JUMP JUMPDEST PUSH1 0x0 DUP5 DUP5 ADD MSTORE POP POP POP POP JUMP JUMPDEST PUSH1 0x0 PUSH1 0x1F NOT PUSH1 0x1F DUP4 ADD AND SWAP1 POP SWAP2 SWAP1 POP JUMP JUMPDEST PUSH1 0x0 PUSH2 0x25CD DUP3 PUSH2 0x256B JUMP JUMPDEST PUSH2 0x25D7 DUP2 DUP6 PUSH2 0x2576 JUMP JUMPDEST SWAP4 POP PUSH2 0x25E7 DUP2 DUP6 PUSH1 0x20 DUP7 ADD PUSH2 0x2587 JUMP JUMPDEST PUSH2 0x25F0 DUP2 PUSH2 0x25B1 JUMP JUMPDEST DUP5 ADD SWAP2 POP POP SWAP3 SWAP2 POP POP JUMP JUMPDEST PUSH1 0x0 PUSH1 0x20 DUP3 ADD SWAP1 POP DUP2 DUP2 SUB PUSH1 0x0 DUP4 ADD MSTORE PUSH2 0x2615 DUP2 DUP5 PUSH2 0x25C2 JUMP JUMPDEST SWAP1 POP SWAP3 SWAP2 POP POP JUMP JUMPDEST PUSH1 0x0 DUP1 REVERT JUMPDEST PUSH1 0x0 PUSH20 0xFFFFFFFFFFFFFFFFFFFFFFFFFFFFFFFFFFFFFFFF DUP3 AND SWAP1 POP SWAP2 SWAP1 POP JUMP JUMPDEST PUSH1 0x0 PUSH2 0x264D DUP3 PUSH2 0x2622 JUMP JUMPDEST SWAP1 POP SWAP2 SWAP1 POP JUMP JUMPDEST PUSH2 0x265D DUP2 PUSH2 0x2642 JUMP JUMPDEST DUP2 EQ PUSH2 0x2668 JUMPI PUSH1 0x0 DUP1 REVERT JUMPDEST POP JUMP JUMPDEST PUSH1 0x0 DUP2 CALLDATALOAD SWAP1 POP PUSH2 0x267A DUP2 PUSH2 0x2654 JUMP JUMPDEST SWAP3 SWAP2 POP POP JUMP JUMPDEST PUSH2 0x2689 DUP2 PUSH2 0x2537 JUMP JUMPDEST DUP2 EQ PUSH2 0x2694 JUMPI PUSH1 0x0 DUP1 REVERT JUMPDEST POP JUMP JUMPDEST PUSH1 0x0 DUP2 CALLDATALOAD SWAP1 POP PUSH2 0x26A6 DUP2 PUSH2 0x2680 JUMP JUMPDEST SWAP3 SWAP2 POP POP JUMP JUMPDEST PUSH1 0x0 DUP1 PUSH1 0x40 DUP4 DUP6 SUB SLT ISZERO PUSH2 0x26C3 JUMPI PUSH2 0x26C2 PUSH2 0x261D JUMP JUMPDEST JUMPDEST PUSH1 0x0 PUSH2 0x26D1 DUP6 DUP3 DUP7 ADD PUSH2 0x266B JUMP JUMPDEST SWAP3 POP POP PUSH1 0x20 PUSH2 0x26E2 DUP6 DUP3 DUP7 ADD PUSH2 0x2697 JUMP JUMPDEST SWAP2 POP POP SWAP3 POP SWAP3 SWAP1 POP JUMP JUMPDEST PUSH1 0x0 DUP2 ISZERO ISZERO SWAP1 POP SWAP2 SWAP1 POP JUMP JUMPDEST PUSH2 0x2701 DUP2 PUSH2 0x26EC JUMP JUMPDEST DUP3 MSTORE POP POP JUMP JUMPDEST PUSH1 0x0 PUSH1 0x20 DUP3 ADD SWAP1 POP PUSH2 0x271C PUSH1 0x0 DUP4 ADD DUP5 PUSH2 0x26F8 JUMP JUMPDEST SWAP3 SWAP2 POP POP JUMP JUMPDEST PUSH1 0x0 DUP1 PUSH1 0x0 PUSH1 0x60 DUP5 DUP7 SUB SLT ISZERO PUSH2 0x273B JUMPI PUSH2 0x273A PUSH2 0x261D JUMP JUMPDEST JUMPDEST PUSH1 0x0 PUSH2 0x2749 DUP7 DUP3 DUP8 ADD PUSH2 0x266B JUMP JUMPDEST SWAP4 POP POP PUSH1 0x20 PUSH2 0x275A DUP7 DUP3 DUP8 ADD PUSH2 0x266B JUMP JUMPDEST SWAP3 POP POP PUSH1 0x40 PUSH2 0x276B DUP7 DUP3 DUP8 ADD PUSH2 0x2697 JUMP JUMPDEST SWAP2 POP POP SWAP3 POP SWAP3 POP SWAP3 JUMP JUMPDEST PUSH1 0x0 PUSH1 0x20 DUP3 DUP5 SUB SLT ISZERO PUSH2 0x278B JUMPI PUSH2 0x278A PUSH2 0x261D JUMP JUMPDEST JUMPDEST PUSH1 0x0 PUSH2 0x2799 DUP5 DUP3 DUP6 ADD PUSH2 0x266B JUMP JUMPDEST SWAP2 POP POP SWAP3 SWAP2 POP POP JUMP JUMPDEST PUSH1 0x0 PUSH1 0x20 DUP3 DUP5 SUB SLT ISZERO PUSH2 0x27B8 JUMPI PUSH2 0x27B7 PUSH2 0x261D JUMP JUMPDEST JUMPDEST PUSH1 0x0 PUSH2 0x27C6 DUP5 DUP3 DUP6 ADD PUSH2 0x2697 JUMP JUMPDEST SWAP2 POP POP SWAP3 SWAP2 POP POP JUMP JUMPDEST PUSH1 0x0 PUSH1 0xFF DUP3 AND SWAP1 POP SWAP2 SWAP1 POP JUMP JUMPDEST PUSH2 0x27E5 DUP2 PUSH2 0x27CF JUMP JUMPDEST DUP3 MSTORE POP POP JUMP JUMPDEST PUSH1 0x0 PUSH1 0x20 DUP3 ADD SWAP1 POP PUSH2 0x2800 PUSH1 0x0 DUP4 ADD DUP5 PUSH2 0x27DC JUMP JUMPDEST SWAP3 SWAP2 POP POP JUMP JUMPDEST PUSH2 0x280F DUP2 PUSH2 0x2642 JUMP JUMPDEST DUP3 MSTORE POP POP JUMP JUMPDEST PUSH1 0x0 PUSH1 0x20 DUP3 ADD SWAP1 POP PUSH2 0x282A PUSH1 0x0 DUP4 ADD DUP5 PUSH2 0x2806 JUMP JUMPDEST SWAP3 SWAP2 POP POP JUMP JUMPDEST PUSH1 0x0 DUP2 SWAP1 POP SWAP2 SWAP1 POP JUMP JUMPDEST PUSH1 0x0 PUSH2 0x2855 PUSH2 0x2850 PUSH2 0x284B DUP5 PUSH2 0x2622 JUMP JUMPDEST PUSH2 0x2830 JUMP JUMPDEST PUSH2 0x2622 JUMP JUMPDEST SWAP1 POP SWAP2 SWAP1 POP JUMP JUMPDEST PUSH1 0x0 PUSH2 0x2867 DUP3 PUSH2 0x283A JUMP JUMPDEST SWAP1 POP SWAP2 SWAP1 POP JUMP JUMPDEST PUSH1 0x0 PUSH2 0x2879 DUP3 PUSH2 0x285C JUMP JUMPDEST SWAP1 POP SWAP2 SWAP1 POP JUMP JUMPDEST PUSH2 0x2889 DUP2 PUSH2 0x286E JUMP JUMPDEST DUP3 MSTORE POP POP JUMP JUMPDEST PUSH1 0x0 PUSH1 0x20 DUP3 ADD SWAP1 POP PUSH2 0x28A4 PUSH1 0x0 DUP4 ADD DUP5 PUSH2 0x2880 JUMP JUMPDEST SWAP3 SWAP2 POP POP JUMP JUMPDEST PUSH1 0x0 DUP1 PUSH1 0x40 DUP4 DUP6 SUB SLT ISZERO PUSH2 0x28C1 JUMPI PUSH2 0x28C0 PUSH2 0x261D JUMP JUMPDEST JUMPDEST PUSH1 0x0 PUSH2 0x28CF DUP6 DUP3 DUP7 ADD PUSH2 0x266B JUMP JUMPDEST SWAP3 POP POP PUSH1 0x20 PUSH2 0x28E0 DUP6 DUP3 DUP7 ADD PUSH2 0x266B JUMP JUMPDEST SWAP2 POP POP SWAP3 POP SWAP3 SWAP1 POP JUMP JUMPDEST PUSH32 0x4E487B7100000000000000000000000000000000000000000000000000000000 PUSH1 0x0 MSTORE PUSH1 0x11 PUSH1 0x4 MSTORE PUSH1 0x24 PUSH1 0x0 REVERT JUMPDEST PUSH1 0x0 PUSH2 0x2924 DUP3 PUSH2 0x2537 JUMP JUMPDEST SWAP2 POP PUSH2 0x292F DUP4 PUSH2 0x2537 JUMP JUMPDEST SWAP3 POP DUP3 DUP3 SUB SWAP1 POP DUP2 DUP2 GT ISZERO PUSH2 0x2947 JUMPI PUSH2 0x2946 PUSH2 0x28EA JUMP JUMPDEST JUMPDEST SWAP3 SWAP2 POP POP JUMP JUMPDEST PUSH32 0x4F6E6C7920417574686F726973656420616464726573732063616E206D6F6469 PUSH1 0x0 DUP3 ADD MSTORE PUSH32 0x667920746865204A617265646665652100000000000000000000000000000000 PUSH1 0x20 DUP3 ADD MSTORE POP JUMP JUMPDEST PUSH1 0x0 PUSH2 0x29A9 PUSH1 0x30 DUP4 PUSH2 0x2576 JUMP JUMPDEST SWAP2 POP PUSH2 0x29B4 DUP3 PUSH2 0x294D JUMP JUMPDEST PUSH1 0x40 DUP3 ADD SWAP1 POP SWAP2 SWAP1 POP JUMP JUMPDEST PUSH1 0x0 PUSH1 0x20 DUP3 ADD SWAP1 POP DUP2 DUP2 SUB PUSH1 0x0 DUP4 ADD MSTORE PUSH2 0x29D8 DUP2 PUSH2 0x299C JUMP JUMPDEST SWAP1 POP SWAP2 SWAP1 POP JUMP JUMPDEST PUSH32 0x466565206D757374206265203C3D203130300000000000000000000000000000 PUSH1 0x0 DUP3 ADD MSTORE POP JUMP JUMPDEST PUSH1 0x0 PUSH2 0x2A15 PUSH1 0x12 DUP4 PUSH2 0x2576 JUMP JUMPDEST SWAP2 POP PUSH2 0x2A20 DUP3 PUSH2 0x29DF JUMP JUMPDEST PUSH1 0x20 DUP3 ADD SWAP1 POP SWAP2 SWAP1 POP JUMP JUMPDEST PUSH1 0x0 PUSH1 0x20 DUP3 ADD SWAP1 POP DUP2 DUP2 SUB PUSH1 0x0 DUP4 ADD MSTORE PUSH2 0x2A44 DUP2 PUSH2 0x2A08 JUMP JUMPDEST SWAP1 POP SWAP2 SWAP1 POP JUMP JUMPDEST PUSH32 0x43616C6C6572206973206E6F742074686520617574686F726973656420616464 PUSH1 0x0 DUP3 ADD MSTORE PUSH32 0x7265737321000000000000000000000000000000000000000000000000000000 PUSH1 0x20 DUP3 ADD MSTORE POP JUMP JUMPDEST PUSH1 0x0 PUSH2 0x2AA7 PUSH1 0x25 DUP4 PUSH2 0x2576 JUMP JUMPDEST SWAP2 POP PUSH2 0x2AB2 DUP3 PUSH2 0x2A4B JUMP JUMPDEST PUSH1 0x40 DUP3 ADD SWAP1 POP SWAP2 SWAP1 POP JUMP JUMPDEST PUSH1 0x0 PUSH1 0x20 DUP3 ADD SWAP1 POP DUP2 DUP2 SUB PUSH1 0x0 DUP4 ADD MSTORE PUSH2 0x2AD6 DUP2 PUSH2 0x2A9A JUMP JUMPDEST SWAP1 POP SWAP2 SWAP1 POP JUMP JUMPDEST PUSH32 0x416D6F756E74206D757374206265203E3D203130300000000000000000000000 PUSH1 0x0 DUP3 ADD MSTORE POP JUMP JUMPDEST PUSH1 0x0 PUSH2 0x2B13 PUSH1 0x15 DUP4 PUSH2 0x2576 JUMP JUMPDEST SWAP2 POP PUSH2 0x2B1E DUP3 PUSH2 0x2ADD JUMP JUMPDEST PUSH1 0x20 DUP3 ADD SWAP1 POP SWAP2 SWAP1 POP JUMP JUMPDEST PUSH1 0x0 PUSH1 0x20 DUP3 ADD SWAP1 POP DUP2 DUP2 SUB PUSH1 0x0 DUP4 ADD MSTORE PUSH2 0x2B42 DUP2 PUSH2 0x2B06 JUMP JUMPDEST SWAP1 POP SWAP2 SWAP1 POP JUMP JUMPDEST PUSH32 0x4F776E61626C653A2063616C6C6572206973206E6F7420746865206F776E6572 PUSH1 0x0 DUP3 ADD MSTORE POP JUMP JUMPDEST PUSH1 0x0 PUSH2 0x2B7F PUSH1 0x20 DUP4 PUSH2 0x2576 JUMP JUMPDEST SWAP2 POP PUSH2 0x2B8A DUP3 PUSH2 0x2B49 JUMP JUMPDEST PUSH1 0x20 DUP3 ADD SWAP1 POP SWAP2 SWAP1 POP JUMP JUMPDEST PUSH1 0x0 PUSH1 0x20 DUP3 ADD SWAP1 POP DUP2 DUP2 SUB PUSH1 0x0 DUP4 ADD MSTORE PUSH2 0x2BAE DUP2 PUSH2 0x2B72 JUMP JUMPDEST SWAP1 POP SWAP2 SWAP1 POP JUMP JUMPDEST PUSH32 0x496E76616C696420616464726573730000000000000000000000000000000000 PUSH1 0x0 DUP3 ADD MSTORE POP JUMP JUMPDEST PUSH1 0x0 PUSH2 0x2BEB PUSH1 0xF DUP4 PUSH2 0x2576 JUMP JUMPDEST SWAP2 POP PUSH2 0x2BF6 DUP3 PUSH2 0x2BB5 JUMP JUMPDEST PUSH1 0x20 DUP3 ADD SWAP1 POP SWAP2 SWAP1 POP JUMP JUMPDEST PUSH1 0x0 PUSH1 0x20 DUP3 ADD SWAP1 POP DUP2 DUP2 SUB PUSH1 0x0 DUP4 ADD MSTORE PUSH2 0x2C1A DUP2 PUSH2 0x2BDE JUMP JUMPDEST SWAP1 POP SWAP2 SWAP1 POP JUMP JUMPDEST PUSH32 0x4F776E61626C653A206E6577206F776E657220697320746865207A65726F2061 PUSH1 0x0 DUP3 ADD MSTORE PUSH32 0x6464726573730000000000000000000000000000000000000000000000000000 PUSH1 0x20 DUP3 ADD MSTORE POP JUMP JUMPDEST PUSH1 0x0 PUSH2 0x2C7D PUSH1 0x26 DUP4 PUSH2 0x2576 JUMP JUMPDEST SWAP2 POP PUSH2 0x2C88 DUP3 PUSH2 0x2C21 JUMP JUMPDEST PUSH1 0x40 DUP3 ADD SWAP1 POP SWAP2 SWAP1 POP JUMP JUMPDEST PUSH1 0x0 PUSH1 0x20 DUP3 ADD SWAP1 POP DUP2 DUP2 SUB PUSH1 0x0 DUP4 ADD MSTORE PUSH2 0x2CAC DUP2 PUSH2 0x2C70 JUMP JUMPDEST SWAP1 POP SWAP2 SWAP1 POP JUMP JUMPDEST PUSH32 0x45524332303A205A65726F204164647265737300000000000000000000000000 PUSH1 0x0 DUP3 ADD MSTORE POP JUMP JUMPDEST PUSH1 0x0 PUSH2 0x2CE9 PUSH1 0x13 DUP4 PUSH2 0x2576 JUMP JUMPDEST SWAP2 POP PUSH2 0x2CF4 DUP3 PUSH2 0x2CB3 JUMP JUMPDEST PUSH1 0x20 DUP3 ADD SWAP1 POP SWAP2 SWAP1 POP JUMP JUMPDEST PUSH1 0x0 PUSH1 0x20 DUP3 ADD SWAP1 POP DUP2 DUP2 SUB PUSH1 0x0 DUP4 ADD MSTORE PUSH2 0x2D18 DUP2 PUSH2 0x2CDC JUMP JUMPDEST SWAP1 POP SWAP2 SWAP1 POP JUMP JUMPDEST PUSH32 0x45524332303A207472616E7366657220746F20746865207A65726F2061646472 PUSH1 0x0 DUP3 ADD MSTORE PUSH32 0x6573730000000000000000000000000000000000000000000000000000000000 PUSH1 0x20 DUP3 ADD MSTORE POP JUMP JUMPDEST PUSH1 0x0 PUSH2 0x2D7B PUSH1 0x23 DUP4 PUSH2 0x2576 JUMP JUMPDEST SWAP2 POP PUSH2 0x2D86 DUP3 PUSH2 0x2D1F JUMP JUMPDEST PUSH1 0x40 DUP3 ADD SWAP1 POP SWAP2 SWAP1 POP JUMP JUMPDEST PUSH1 0x0 PUSH1 0x20 DUP3 ADD SWAP1 POP DUP2 DUP2 SUB PUSH1 0x0 DUP4 ADD MSTORE PUSH2 0x2DAA DUP2 PUSH2 0x2D6E JUMP JUMPDEST SWAP1 POP SWAP2 SWAP1 POP JUMP JUMPDEST PUSH32 0x45524332303A207472616E736665722066726F6D20746865207A65726F206164 PUSH1 0x0 DUP3 ADD MSTORE PUSH32 0x6472657373000000000000000000000000000000000000000000000000000000 PUSH1 0x20 DUP3 ADD MSTORE POP JUMP JUMPDEST PUSH1 0x0 PUSH2 0x2E0D PUSH1 0x25 DUP4 PUSH2 0x2576 JUMP JUMPDEST SWAP2 POP PUSH2 0x2E18 DUP3 PUSH2 0x2DB1 JUMP JUMPDEST PUSH1 0x40 DUP3 ADD SWAP1 POP SWAP2 SWAP1 POP JUMP JUMPDEST PUSH1 0x0 PUSH1 0x20 DUP3 ADD SWAP1 POP DUP2 DUP2 SUB PUSH1 0x0 DUP4 ADD MSTORE PUSH2 0x2E3C DUP2 PUSH2 0x2E00 JUMP JUMPDEST SWAP1 POP SWAP2 SWAP1 POP JUMP JUMPDEST PUSH32 0x5472616E7366657220616D6F756E74206D757374206265206772656174657220 PUSH1 0x0 DUP3 ADD MSTORE PUSH32 0x7468616E207A65726F0000000000000000000000000000000000000000000000 PUSH1 0x20 DUP3 ADD MSTORE POP JUMP JUMPDEST PUSH1 0x0 PUSH2 0x2E9F PUSH1 0x29 DUP4 PUSH2 0x2576 JUMP JUMPDEST SWAP2 POP PUSH2 0x2EAA DUP3 PUSH2 0x2E43 JUMP JUMPDEST PUSH1 0x40 DUP3 ADD SWAP1 POP SWAP2 SWAP1 POP JUMP JUMPDEST PUSH1 0x0 PUSH1 0x20 DUP3 ADD SWAP1 POP DUP2 DUP2 SUB PUSH1 0x0 DUP4 ADD MSTORE PUSH2 0x2ECE DUP2 PUSH2 0x2E92 JUMP JUMPDEST SWAP1 POP SWAP2 SWAP1 POP JUMP JUMPDEST PUSH32 0x4F6E6C79206F6E65207472616E736665722070657220626C6F636B20616C6C6F PUSH1 0x0 DUP3 ADD MSTORE PUSH32 0x7765642E00000000000000000000000000000000000000000000000000000000 PUSH1 0x20 DUP3 ADD MSTORE POP JUMP JUMPDEST PUSH1 0x0 PUSH2 0x2F31 PUSH1 0x24 DUP4 PUSH2 0x2576 JUMP JUMPDEST SWAP2 POP PUSH2 0x2F3C DUP3 PUSH2 0x2ED5 JUMP JUMPDEST PUSH1 0x40 DUP3 ADD SWAP1 POP SWAP2 SWAP1 POP JUMP JUMPDEST PUSH1 0x0 PUSH1 0x20 DUP3 ADD SWAP1 POP DUP2 DUP2 SUB PUSH1 0x0 DUP4 ADD MSTORE PUSH2 0x2F60 DUP2 PUSH2 0x2F24 JUMP JUMPDEST SWAP1 POP SWAP2 SWAP1 POP JUMP JUMPDEST PUSH32 0x4578636565647320746865205F6D61785478416D6F756E742E00000000000000 PUSH1 0x0 DUP3 ADD MSTORE POP JUMP JUMPDEST PUSH1 0x0 PUSH2 0x2F9D PUSH1 0x19 DUP4 PUSH2 0x2576 JUMP JUMPDEST SWAP2 POP PUSH2 0x2FA8 DUP3 PUSH2 0x2F67 JUMP JUMPDEST PUSH1 0x20 DUP3 ADD SWAP1 POP SWAP2 SWAP1 POP JUMP JUMPDEST PUSH1 0x0 PUSH1 0x20 DUP3 ADD SWAP1 POP DUP2 DUP2 SUB PUSH1 0x0 DUP4 ADD MSTORE PUSH2 0x2FCC DUP2 PUSH2 0x2F90 JUMP JUMPDEST SWAP1 POP SWAP2 SWAP1 POP JUMP JUMPDEST PUSH1 0x0 PUSH2 0x2FDE DUP3 PUSH2 0x2537 JUMP JUMPDEST SWAP2 POP PUSH2 0x2FE9 DUP4 PUSH2 0x2537 JUMP JUMPDEST SWAP3 POP DUP3 DUP3 ADD SWAP1 POP DUP1 DUP3 GT ISZERO PUSH2 0x3001 JUMPI PUSH2 0x3000 PUSH2 0x28EA JUMP JUMPDEST JUMPDEST SWAP3 SWAP2 POP POP JUMP JUMPDEST PUSH32 0x4578636565647320746865206D617857616C6C657453697A652E000000000000 PUSH1 0x0 DUP3 ADD MSTORE POP JUMP JUMPDEST PUSH1 0x0 PUSH2 0x303D PUSH1 0x1A DUP4 PUSH2 0x2576 JUMP JUMPDEST SWAP2 POP PUSH2 0x3048 DUP3 PUSH2 0x3007 JUMP JUMPDEST PUSH1 0x20 DUP3 ADD SWAP1 POP SWAP2 SWAP1 POP JUMP JUMPDEST PUSH1 0x0 PUSH1 0x20 DUP3 ADD SWAP1 POP DUP2 DUP2 SUB PUSH1 0x0 DUP4 ADD MSTORE PUSH2 0x306C DUP2 PUSH2 0x3030 JUMP JUMPDEST SWAP1 POP SWAP2 SWAP1 POP JUMP JUMPDEST PUSH32 0x4E487B7100000000000000000000000000000000000000000000000000000000 PUSH1 0x0 MSTORE PUSH1 0x41 PUSH1 0x4 MSTORE PUSH1 0x24 PUSH1 0x0 REVERT JUMPDEST PUSH32 0x4E487B7100000000000000000000000000000000000000000000000000000000 PUSH1 0x0 MSTORE PUSH1 0x32 PUSH1 0x4 MSTORE PUSH1 0x24 PUSH1 0x0 REVERT JUMPDEST PUSH1 0x0 DUP2 MLOAD SWAP1 POP PUSH2 0x30E0 DUP2 PUSH2 0x2654 JUMP JUMPDEST SWAP3 SWAP2 POP POP JUMP JUMPDEST PUSH1 0x0 PUSH1 0x20 DUP3 DUP5 SUB SLT ISZERO PUSH2 0x30FC JUMPI PUSH2 0x30FB PUSH2 0x261D JUMP JUMPDEST JUMPDEST PUSH1 0x0 PUSH2 0x310A DUP5 DUP3 DUP6 ADD PUSH2 0x30D1 JUMP JUMPDEST SWAP2 POP POP SWAP3 SWAP2 POP POP JUMP JUMPDEST PUSH1 0x0 DUP2 SWAP1 POP SWAP2 SWAP1 POP JUMP JUMPDEST PUSH1 0x0 PUSH2 0x3138 PUSH2 0x3133 PUSH2 0x312E DUP5 PUSH2 0x3113 JUMP JUMPDEST PUSH2 0x2830 JUMP JUMPDEST PUSH2 0x2537 JUMP JUMPDEST SWAP1 POP SWAP2 SWAP1 POP JUMP JUMPDEST PUSH2 0x3148 DUP2 PUSH2 0x311D JUMP JUMPDEST DUP3 MSTORE POP POP JUMP JUMPDEST PUSH1 0x0 DUP2 MLOAD SWAP1 POP SWAP2 SWAP1 POP JUMP JUMPDEST PUSH1 0x0 DUP3 DUP3 MSTORE PUSH1 0x20 DUP3 ADD SWAP1 POP SWAP3 SWAP2 POP POP JUMP JUMPDEST PUSH1 0x0 DUP2 SWAP1 POP PUSH1 0x20 DUP3 ADD SWAP1 POP SWAP2 SWAP1 POP JUMP JUMPDEST PUSH2 0x3183 DUP2 PUSH2 0x2642 JUMP JUMPDEST DUP3 MSTORE POP POP JUMP JUMPDEST PUSH1 0x0 PUSH2 0x3195 DUP4 DUP4 PUSH2 0x317A JUMP JUMPDEST PUSH1 0x20 DUP4 ADD SWAP1 POP SWAP3 SWAP2 POP POP JUMP JUMPDEST PUSH1 0x0 PUSH1 0x20 DUP3 ADD SWAP1 POP SWAP2 SWAP1 POP JUMP JUMPDEST PUSH1 0x0 PUSH2 0x31B9 DUP3 PUSH2 0x314E JUMP JUMPDEST PUSH2 0x31C3 DUP2 DUP6 PUSH2 0x3159 JUMP JUMPDEST SWAP4 POP PUSH2 0x31CE DUP4 PUSH2 0x316A JUMP JUMPDEST DUP1 PUSH1 0x0 JUMPDEST DUP4 DUP2 LT ISZERO PUSH2 0x31FF JUMPI DUP2 MLOAD PUSH2 0x31E6 DUP9 DUP3 PUSH2 0x3189 JUMP JUMPDEST SWAP8 POP PUSH2 0x31F1 DUP4 PUSH2 0x31A1 JUMP JUMPDEST SWAP3 POP POP PUSH1 0x1 DUP2 ADD SWAP1 POP PUSH2 0x31D2 JUMP JUMPDEST POP DUP6 SWAP4 POP POP POP POP SWAP3 SWAP2 POP POP JUMP JUMPDEST PUSH1 0x0 PUSH1 0xA0 DUP3 ADD SWAP1 POP PUSH2 0x3221 PUSH1 0x0 DUP4 ADD DUP9 PUSH2 0x2541 JUMP JUMPDEST PUSH2 0x322E PUSH1 0x20 DUP4 ADD DUP8 PUSH2 0x313F JUMP JUMPDEST DUP2 DUP2 SUB PUSH1 0x40 DUP4 ADD MSTORE PUSH2 0x3240 DUP2 DUP7 PUSH2 0x31AE JUMP JUMPDEST SWAP1 POP PUSH2 0x324F PUSH1 0x60 DUP4 ADD DUP6 PUSH2 0x2806 JUMP JUMPDEST PUSH2 0x325C PUSH1 0x80 DUP4 ADD DUP5 PUSH2 0x2541 JUMP JUMPDEST SWAP7 SWAP6 POP POP POP POP POP POP JUMP JUMPDEST PUSH1 0x0 DUP2 SWAP1 POP SWAP3 SWAP2 POP POP JUMP JUMPDEST POP JUMP JUMPDEST PUSH1 0x0 PUSH2 0x3281 PUSH1 0x0 DUP4 PUSH2 0x3266 JUMP JUMPDEST SWAP2 POP PUSH2 0x328C DUP3 PUSH2 0x3271 JUMP JUMPDEST PUSH1 0x0 DUP3 ADD SWAP1 POP SWAP2 SWAP1 POP JUMP JUMPDEST PUSH1 0x0 PUSH2 0x32A2 DUP3 PUSH2 0x3274 JUMP JUMPDEST SWAP2 POP DUP2 SWAP1 POP SWAP2 SWAP1 POP JUMP JUMPDEST PUSH1 0x0 PUSH2 0x32B7 DUP3 PUSH2 0x2537 JUMP JUMPDEST SWAP2 POP PUSH2 0x32C2 DUP4 PUSH2 0x2537 JUMP JUMPDEST SWAP3 POP DUP3 DUP3 MUL PUSH2 0x32D0 DUP2 PUSH2 0x2537 JUMP JUMPDEST SWAP2 POP DUP3 DUP3 DIV DUP5 EQ DUP4 ISZERO OR PUSH2 0x32E7 JUMPI PUSH2 0x32E6 PUSH2 0x28EA JUMP JUMPDEST JUMPDEST POP SWAP3 SWAP2 POP POP JUMP JUMPDEST PUSH32 0x4E487B7100000000000000000000000000000000000000000000000000000000 PUSH1 0x0 MSTORE PUSH1 0x12 PUSH1 0x4 MSTORE PUSH1 0x24 PUSH1 0x0 REVERT JUMPDEST PUSH1 0x0 PUSH2 0x3328 DUP3 PUSH2 0x2537 JUMP JUMPDEST SWAP2 POP PUSH2 0x3333 DUP4 PUSH2 0x2537 JUMP JUMPDEST SWAP3 POP DUP3 PUSH2 0x3343 JUMPI PUSH2 0x3342 PUSH2 0x32EE JUMP JUMPDEST JUMPDEST DUP3 DUP3 DIV SWAP1 POP SWAP3 SWAP2 POP POP JUMP INVALID LOG2 PUSH5 0x6970667358 0x22 SLT KECCAK256 PUSH15 0xC292604B6468605225E112D35AAD8B 0xD2 SWAP16 0xFC EXTCODEHASH 0x2B BALANCE SIGNEXTEND 0xC4 0xDC PUSH16 0x6A4CC86925EF64736F6C634300081300 CALLER "
				},
				"gasEstimates": {
					"creation": {
						"codeDepositCost": "2637600",
						"executionCost": "infinite",
						"totalCost": "infinite"
					},
					"external": {
						"DEAD_WALLET()": "423",
						"_maxTxAmount()": "2540",
						"_maxWalletSize()": "2519",
						"addJaredAddress(address)": "27084",
						"addtoNofee(address)": "27128",
						"allowance(address,address)": "infinite",
						"approve(address,uint256)": "23323",
						"balanceOf(address)": "2886",
						"changeThreshold(uint256)": "infinite",
						"decimals()": "478",
						"fee_denominator()": "373",
						"getOwner()": "2603",
						"isJaredAddress(address)": "2928",
						"isNoFeeWallet(address)": "2951",
						"isNofeeAddress(address)": "2994",
						"lpPair()": "2560",
						"manualSwap()": "infinite",
						"name()": "infinite",
						"owner()": "2590",
						"removeJaredAddress(address)": "27071",
						"removefromtNofee(address)": "27050",
						"renounceOwnership()": "30441",
						"sellfee()": "417",
						"setJaredSellFee(uint256)": "24806",
						"swapRouter()": "infinite",
						"swapThreshold()": "2476",
						"symbol()": "infinite",
						"totalSupply()": "473",
						"transfer(address,uint256)": "infinite",
						"transferDelayEnabled()": "2560",
						"transferFrom(address,address,uint256)": "infinite",
						"transferOwnership(address)": "30830"
					},
					"internal": {
						"_approve(address,address,uint256)": "infinite",
						"_transfer(address,address,uint256)": "infinite",
						"internalSwap(uint256)": "infinite",
						"is_sell(address,address)": "4529",
						"takeTaxes(address,bool,uint256)": "infinite"
					}
				},
				"methodIdentifiers": {
					"DEAD_WALLET()": "a01c3483",
					"_maxTxAmount()": "7d1db4a5",
					"_maxWalletSize()": "8f9a55c0",
					"addJaredAddress(address)": "a2747da2",
					"addtoNofee(address)": "ce004a07",
					"allowance(address,address)": "dd62ed3e",
					"approve(address,uint256)": "095ea7b3",
					"balanceOf(address)": "70a08231",
					"changeThreshold(uint256)": "694e80c3",
					"decimals()": "313ce567",
					"fee_denominator()": "dc9d75b0",
					"getOwner()": "893d20e8",
					"isJaredAddress(address)": "c2e4ef79",
					"isNoFeeWallet(address)": "27889862",
					"isNofeeAddress(address)": "c226de76",
					"lpPair()": "452ed4f1",
					"manualSwap()": "51bc3c85",
					"name()": "06fdde03",
					"owner()": "8da5cb5b",
					"removeJaredAddress(address)": "771af866",
					"removefromtNofee(address)": "4c1b4031",
					"renounceOwnership()": "715018a6",
					"sellfee()": "e9451f5f",
					"setJaredSellFee(uint256)": "30db2c12",
					"swapRouter()": "c31c9c07",
					"swapThreshold()": "0445b667",
					"symbol()": "95d89b41",
					"totalSupply()": "18160ddd",
					"transfer(address,uint256)": "a9059cbb",
					"transferDelayEnabled()": "c876d0b9",
					"transferFrom(address,address,uint256)": "23b872dd",
					"transferOwnership(address)": "f2fde38b"
				}
			},
			"storageLayout": {
				"storage": [
					{
						"astId": 33,
						"contract": "contracts/solidity-files-main/contracts/oatfinally.sol:OneAnonataTime",
						"label": "_owner",
						"offset": 0,
						"slot": "0",
						"type": "t_address"
					},
					{
						"astId": 498,
						"contract": "contracts/solidity-files-main/contracts/oatfinally.sol:OneAnonataTime",
						"label": "_allowances",
						"offset": 0,
						"slot": "1",
						"type": "t_mapping(t_address,t_mapping(t_address,t_uint256))"
					},
					{
						"astId": 502,
						"contract": "contracts/solidity-files-main/contracts/oatfinally.sol:OneAnonataTime",
						"label": "_noFee",
						"offset": 0,
						"slot": "2",
						"type": "t_mapping(t_address,t_bool)"
					},
					{
						"astId": 506,
						"contract": "contracts/solidity-files-main/contracts/oatfinally.sol:OneAnonataTime",
						"label": "isLpPair",
						"offset": 0,
						"slot": "3",
						"type": "t_mapping(t_address,t_bool)"
					},
					{
						"astId": 510,
						"contract": "contracts/solidity-files-main/contracts/oatfinally.sol:OneAnonataTime",
						"label": "balance",
						"offset": 0,
						"slot": "4",
						"type": "t_mapping(t_address,t_uint256)"
					},
					{
						"astId": 514,
						"contract": "contracts/solidity-files-main/contracts/oatfinally.sol:OneAnonataTime",
						"label": "_holderLastTransferTimestamp",
						"offset": 0,
						"slot": "5",
						"type": "t_mapping(t_address,t_uint256)"
					},
					{
						"astId": 518,
						"contract": "contracts/solidity-files-main/contracts/oatfinally.sol:OneAnonataTime",
						"label": "_jareDs",
						"offset": 0,
						"slot": "6",
						"type": "t_mapping(t_address,t_bool)"
					},
					{
						"astId": 521,
						"contract": "contracts/solidity-files-main/contracts/oatfinally.sol:OneAnonataTime",
						"label": "transferDelayEnabled",
						"offset": 0,
						"slot": "7",
						"type": "t_bool"
					},
					{
						"astId": 531,
						"contract": "contracts/solidity-files-main/contracts/oatfinally.sol:OneAnonataTime",
						"label": "swapThreshold",
						"offset": 0,
						"slot": "8",
						"type": "t_uint256"
					},
					{
						"astId": 537,
						"contract": "contracts/solidity-files-main/contracts/oatfinally.sol:OneAnonataTime",
						"label": "jaredsellfee",
						"offset": 0,
						"slot": "9",
						"type": "t_uint256"
					},
					{
						"astId": 545,
						"contract": "contracts/solidity-files-main/contracts/oatfinally.sol:OneAnonataTime",
						"label": "_maxTxAmount",
						"offset": 0,
						"slot": "10",
						"type": "t_uint256"
					},
					{
						"astId": 550,
						"contract": "contracts/solidity-files-main/contracts/oatfinally.sol:OneAnonataTime",
						"label": "_maxWalletSize",
						"offset": 0,
						"slot": "11",
						"type": "t_uint256"
					},
					{
						"astId": 556,
						"contract": "contracts/solidity-files-main/contracts/oatfinally.sol:OneAnonataTime",
						"label": "_oatFee",
						"offset": 0,
						"slot": "12",
						"type": "t_address_payable"
					},
					{
						"astId": 559,
						"contract": "contracts/solidity-files-main/contracts/oatfinally.sol:OneAnonataTime",
						"label": "swapRouter",
						"offset": 0,
						"slot": "13",
						"type": "t_contract(IRouter02)307"
					},
					{
						"astId": 573,
						"contract": "contracts/solidity-files-main/contracts/oatfinally.sol:OneAnonataTime",
						"label": "lpPair",
						"offset": 0,
						"slot": "14",
						"type": "t_address"
					},
					{
						"astId": 575,
						"contract": "contracts/solidity-files-main/contracts/oatfinally.sol:OneAnonataTime",
						"label": "inSwap",
						"offset": 20,
						"slot": "14",
						"type": "t_bool"
					}
				],
				"types": {
					"t_address": {
						"encoding": "inplace",
						"label": "address",
						"numberOfBytes": "20"
					},
					"t_address_payable": {
						"encoding": "inplace",
						"label": "address payable",
						"numberOfBytes": "20"
					},
					"t_bool": {
						"encoding": "inplace",
						"label": "bool",
						"numberOfBytes": "1"
					},
					"t_contract(IRouter02)307": {
						"encoding": "inplace",
						"label": "contract IRouter02",
						"numberOfBytes": "20"
					},
					"t_mapping(t_address,t_bool)": {
						"encoding": "mapping",
						"key": "t_address",
						"label": "mapping(address => bool)",
						"numberOfBytes": "32",
						"value": "t_bool"
					},
					"t_mapping(t_address,t_mapping(t_address,t_uint256))": {
						"encoding": "mapping",
						"key": "t_address",
						"label": "mapping(address => mapping(address => uint256))",
						"numberOfBytes": "32",
						"value": "t_mapping(t_address,t_uint256)"
					},
					"t_mapping(t_address,t_uint256)": {
						"encoding": "mapping",
						"key": "t_address",
						"label": "mapping(address => uint256)",
						"numberOfBytes": "32",
						"value": "t_uint256"
					},
					"t_uint256": {
						"encoding": "inplace",
						"label": "uint256",
						"numberOfBytes": "32"
					}
				}
			},
			"userdoc": {
				"kind": "user",
				"methods": {},
				"version": 1
			}
		}
	}
}