{
	"data": {
		"bytecode": {
			"linkReferences": {},
			"object": "60806040526012600a62000014919062001027565b6303c14dc062000025919062001078565b600019620000349190620010f2565b6000196200004391906200112a565b600a556101906012600a62000059919062001027565b6303c14dc06200006a919062001078565b62000076919062001165565b600c556000600d55600d54600e556003600f55600f546010556002601155601154601255600360135573e8ea1b0cc611bdebea7ec5403aab8398fbfee2a6601460006101000a81548173ffffffffffffffffffffffffffffffffffffffff021916908373ffffffffffffffffffffffffffffffffffffffff1602179055506013546015556002601655739d603baa5ea0de6f14be966dbcbc525fc70e4db8601760006101000a81548173ffffffffffffffffffffffffffffffffffffffff021916908373ffffffffffffffffffffffffffffffffffffffff1602179055506016546018556000601a60156101000a81548160ff0219169083151502179055506012600a62000185919062001027565b61c35062000194919062001078565b601b556012600a620001a7919062001027565b612710620001b6919062001078565b601c55348015620001c657600080fd5b506000620001d96200094160201b60201c565b9050806000806101000a81548173ffffffffffffffffffffffffffffffffffffffff021916908373ffffffffffffffffffffffffffffffffffffffff1602179055508073ffffffffffffffffffffffffffffffffffffffff16600073ffffffffffffffffffffffffffffffffffffffff167f8be0079c531659141344cd1fd0a4f28419497f9722a3daafe3b4186f6b6457e060405160405180910390a3506001600281905550600a5460036000620002966200094160201b60201c565b73ffffffffffffffffffffffffffffffffffffffff1673ffffffffffffffffffffffffffffffffffffffff1681526020019081526020016000208190555060007310ed43c718714eb63d5aa57b78b54704e256024e905060008173ffffffffffffffffffffffffffffffffffffffff1663c45a01556040518163ffffffff1660e01b8152600401602060405180830381865afa1580156200033b573d6000803e3d6000fd5b505050506040513d601f19601f8201168201806040525081019062000361919062001207565b73ffffffffffffffffffffffffffffffffffffffff1663c9c65396308473ffffffffffffffffffffffffffffffffffffffff1663ad5c46486040518163ffffffff1660e01b8152600401602060405180830381865afa158015620003c9573d6000803e3d6000fd5b505050506040513d601f19601f82011682018060405250810190620003ef919062001207565b6040518363ffffffff1660e01b81526004016200040e9291906200124a565b6020604051808303816000875af11580156200042e573d6000803e3d6000fd5b505050506040513d601f19601f8201168201806040525081019062000454919062001207565b905080601a60006101000a81548173ffffffffffffffffffffffffffffffffffffffff021916908373ffffffffffffffffffffffffffffffffffffffff16021790555081601960006101000a81548173ffffffffffffffffffffffffffffffffffffffff021916908373ffffffffffffffffffffffffffffffffffffffff160217905550600160066000620004ee6200094960201b60201c565b73ffffffffffffffffffffffffffffffffffffffff1673ffffffffffffffffffffffffffffffffffffffff16815260200190815260200160002060006101000a81548160ff0219169083151502179055506001600660003073ffffffffffffffffffffffffffffffffffffffff1673ffffffffffffffffffffffffffffffffffffffff16815260200190815260200160002060006101000a81548160ff0219169083151502179055506012600a620005a7919062001027565b63015ef3c0620005b8919062001078565b620005cb61dead6200097260201b60201c565b6012600a620005db919062001027565b6303c14dc0620005ec919062001078565b620005f891906200112a565b11620006075760006011819055505b6001600760006200061d6200094960201b60201c565b73ffffffffffffffffffffffffffffffffffffffff1673ffffffffffffffffffffffffffffffffffffffff16815260200190815260200160002060006101000a81548160ff0219169083151502179055506001600760003073ffffffffffffffffffffffffffffffffffffffff1673ffffffffffffffffffffffffffffffffffffffff16815260200190815260200160002060006101000a81548160ff0219169083151502179055506001600760008373ffffffffffffffffffffffffffffffffffffffff1673ffffffffffffffffffffffffffffffffffffffff16815260200190815260200160002060006101000a81548160ff02191690831515021790555060016007600061dead73ffffffffffffffffffffffffffffffffffffffff1673ffffffffffffffffffffffffffffffffffffffff16815260200190815260200160002060006101000a81548160ff021916908315150217905550600160076000601760009054906101000a900473ffffffffffffffffffffffffffffffffffffffff1673ffffffffffffffffffffffffffffffffffffffff1673ffffffffffffffffffffffffffffffffffffffff16815260200190815260200160002060006101000a81548160ff021916908315150217905550600160076000601460009054906101000a900473ffffffffffffffffffffffffffffffffffffffff1673ffffffffffffffffffffffffffffffffffffffff1673ffffffffffffffffffffffffffffffffffffffff16815260200190815260200160002060006101000a81548160ff0219169083151502179055506101906012600a6200087f919062001027565b6303c14dc062000890919062001078565b6200089c919062001165565b600c81905550620008b26200094160201b60201c565b73ffffffffffffffffffffffffffffffffffffffff16600073ffffffffffffffffffffffffffffffffffffffff167fddf252ad1be2c89b69c2b068fc378daa952ba7f163c4a11628f55a4df523b3ef6012600a62000911919062001027565b6303c14dc062000922919062001078565b60405162000931919062001288565b60405180910390a35050620013ca565b600033905090565b60008060009054906101000a900473ffffffffffffffffffffffffffffffffffffffff16905090565b6000600860008373ffffffffffffffffffffffffffffffffffffffff1673ffffffffffffffffffffffffffffffffffffffff16815260200190815260200160002060009054906101000a900460ff161562000a0f57600460008373ffffffffffffffffffffffffffffffffffffffff1673ffffffffffffffffffffffffffffffffffffffff16815260200190815260200160002054905062000a62565b62000a5f600360008473ffffffffffffffffffffffffffffffffffffffff1673ffffffffffffffffffffffffffffffffffffffff1681526020019081526020016000205462000a6760201b60201c565b90505b919050565b6000600a5482111562000ab1576040517f08c379a000000000000000000000000000000000000000000000000000000000815260040162000aa8906200132c565b60405180910390fd5b600062000ac362000ae260201b60201c565b905062000ada818462000b1760201b90919060201c565b915050919050565b600080600062000af762000b2f60201b60201c565b9150915062000b10818362000b1760201b90919060201c565b9250505090565b6000818362000b27919062001165565b905092915050565b6000806000600a54905060006012600a62000b4b919062001027565b6303c14dc062000b5c919062001078565b905060005b60098054905081101562000df85782600360006009848154811062000b8b5762000b8a6200134e565b5b9060005260206000200160009054906101000a900473ffffffffffffffffffffffffffffffffffffffff1673ffffffffffffffffffffffffffffffffffffffff1673ffffffffffffffffffffffffffffffffffffffff16815260200190815260200160002054118062000c7d575081600460006009848154811062000c155762000c146200134e565b5b9060005260206000200160009054906101000a900473ffffffffffffffffffffffffffffffffffffffff1673ffffffffffffffffffffffffffffffffffffffff1673ffffffffffffffffffffffffffffffffffffffff16815260200190815260200160002054115b1562000cb457600a546012600a62000c96919062001027565b6303c14dc062000ca7919062001078565b9450945050505062000e71565b62000d49600360006009848154811062000cd35762000cd26200134e565b5b9060005260206000200160009054906101000a900473ffffffffffffffffffffffffffffffffffffffff1673ffffffffffffffffffffffffffffffffffffffff1673ffffffffffffffffffffffffffffffffffffffff168152602001908152602001600020548462000e7560201b90919060201c565b925062000de0600460006009848154811062000d6a5762000d696200134e565b5b9060005260206000200160009054906101000a900473ffffffffffffffffffffffffffffffffffffffff1673ffffffffffffffffffffffffffffffffffffffff1673ffffffffffffffffffffffffffffffffffffffff168152602001908152602001600020548362000e7560201b90919060201c565b9150808062000def906200137d565b91505062000b61565b5062000e306012600a62000e0d919062001027565b6303c14dc062000e1e919062001078565b600a5462000b1760201b90919060201c565b82101562000e6857600a546012600a62000e4b919062001027565b6303c14dc062000e5c919062001078565b93509350505062000e71565b81819350935050505b9091565b6000818362000e8591906200112a565b905092915050565b7f4e487b7100000000000000000000000000000000000000000000000000000000600052601160045260246000fd5b60008160011c9050919050565b6000808291508390505b600185111562000f1b5780860481111562000ef35762000ef262000e8d565b5b600185161562000f035780820291505b808102905062000f138562000ebc565b945062000ed3565b94509492505050565b60008262000f36576001905062001009565b8162000f46576000905062001009565b816001811462000f5f576002811462000f6a5762000fa0565b600191505062001009565b60ff84111562000f7f5762000f7e62000e8d565b5b8360020a91508482111562000f995762000f9862000e8d565b5b5062001009565b5060208310610133831016604e8410600b841016171562000fda5782820a90508381111562000fd45762000fd362000e8d565b5b62001009565b62000fe9848484600162000ec9565b9250905081840481111562001003576200100262000e8d565b5b81810290505b9392505050565b6000819050919050565b600060ff82169050919050565b6000620010348262001010565b915062001041836200101a565b9250620010707fffffffffffffffffffffffffffffffffffffffffffffffffffffffffffffffff848462000f24565b905092915050565b6000620010858262001010565b9150620010928362001010565b9250828202620010a28162001010565b91508282048414831517620010bc57620010bb62000e8d565b5b5092915050565b7f4e487b7100000000000000000000000000000000000000000000000000000000600052601260045260246000fd5b6000620010ff8262001010565b91506200110c8362001010565b9250826200111f576200111e620010c3565b5b828206905092915050565b6000620011378262001010565b9150620011448362001010565b92508282039050818111156200115f576200115e62000e8d565b5b92915050565b6000620011728262001010565b91506200117f8362001010565b925082620011925762001191620010c3565b5b828204905092915050565b600080fd5b600073ffffffffffffffffffffffffffffffffffffffff82169050919050565b6000620011cf82620011a2565b9050919050565b620011e181620011c2565b8114620011ed57600080fd5b50565b6000815190506200120181620011d6565b92915050565b60006020828403121562001220576200121f6200119d565b5b60006200123084828501620011f0565b91505092915050565b6200124481620011c2565b82525050565b600060408201905062001261600083018562001239565b62001270602083018462001239565b9392505050565b620012828162001010565b82525050565b60006020820190506200129f600083018462001277565b92915050565b600082825260208201905092915050565b7f416d6f756e74206d757374206265206c657373207468616e20746f74616c207260008201527f65666c656374696f6e7300000000000000000000000000000000000000000000602082015250565b600062001314602a83620012a5565b91506200132182620012b6565b604082019050919050565b60006020820190508181036000830152620013478162001305565b9050919050565b7f4e487b7100000000000000000000000000000000000000000000000000000000600052603260045260246000fd5b60006200138a8262001010565b91507fffffffffffffffffffffffffffffffffffffffffffffffffffffffffffffffff8203620013bf57620013be62000e8d565b5b600182019050919050565b6171c680620013da6000396000f3fe6080604052600436106103905760003560e01c8063715018a6116101dc578063c49b9a8011610102578063dd62ed3e116100a0578063f0f165af1161006f578063f0f165af14610d51578063f2fde38b14610d7a578063fccc281314610da3578063ffc7863514610dce57610397565b8063dd62ed3e14610c97578063e5dffed314610cd4578063ea2f0b3714610cff578063ec28438a14610d2857610397565b8063d12a7688116100dc578063d12a768814610beb578063d147518514610c16578063d5eeca4d14610c41578063d89135cd14610c6c57610397565b8063c49b9a8014610b70578063c53b42ba14610b99578063cea2695814610bc257610397565b80639358928b1161017a578063a9059cbb11610149578063a9059cbb14610ab4578063af41063b14610af1578063c04a541414610b1a578063c0b0fda214610b4557610397565b80639358928b14610a0a57806395d89b4114610a35578063a457c2d714610a60578063a51c369514610a9d57610397565b80637d1db4a5116101b65780637d1db4a51461094e57806388f82020146109795780638da5cb5b146109b65780638ee88c53146109e157610397565b8063715018a6146108f5578063741af87f1461090c5780637b2087691461092357610397565b806340f8007a116102c157806352390c021161025f5780635d0044ca1161022e5780635d0044ca146108275780636bc87c3a146108505780636dd3d39f1461087b57806370a08231146108b857610397565b806352390c021461076d57806352892884146107965780635342acb4146107c15780635b700d91146107fe57610397565b80634549b0391161029b5780634549b039146106b15780634680ff35146106ee5780634a74bb02146107175780635122c4091461074257610397565b806340f8007a1461063457806341cb87fc1461065f578063437823ec1461068857610397565b80632d8381191161032e5780633685d419116103085780633685d4191461057a57806339509351146105a35780633b124fe7146105e05780633f33e9091461060b57610397565b80632d838119146104e957806330563bd714610526578063313ce5671461054f57610397565b80630b88faa61161036a5780630b88faa61461042d57806313114a9d1461045657806318160ddd1461048157806323b872dd146104ac57610397565b8063061c82d01461039c57806306fdde03146103c5578063095ea7b3146103f057610397565b3661039757005b600080fd5b3480156103a857600080fd5b506103c360048036038101906103be91906159c1565b610de5565b005b3480156103d157600080fd5b506103da610e84565b6040516103e79190615a7e565b60405180910390f35b3480156103fc57600080fd5b5061041760048036038101906104129190615afe565b610ec1565b6040516104249190615b59565b60405180910390f35b34801561043957600080fd5b50610454600480360381019061044f9190615b74565b610edf565b005b34801561046257600080fd5b5061046b611027565b6040516104789190615bb0565b60405180910390f35b34801561048d57600080fd5b50610496611031565b6040516104a39190615bb0565b60405180910390f35b3480156104b857600080fd5b506104d360048036038101906104ce9190615bcb565b611055565b6040516104e09190615b59565b60405180910390f35b3480156104f557600080fd5b50610510600480360381019061050b91906159c1565b61112e565b60405161051d9190615bb0565b60405180910390f35b34801561053257600080fd5b5061054d60048036038101906105489190615b74565b61119c565b005b34801561055b57600080fd5b506105646112e4565b6040516105719190615c3a565b60405180910390f35b34801561058657600080fd5b506105a1600480360381019061059c9190615b74565b6112ed565b005b3480156105af57600080fd5b506105ca60048036038101906105c59190615afe565b61163b565b6040516105d79190615b59565b60405180910390f35b3480156105ec57600080fd5b506105f56116ee565b6040516106029190615bb0565b60405180910390f35b34801561061757600080fd5b50610632600480360381019061062d9190615b74565b6116f4565b005b34801561064057600080fd5b506106496117e4565b6040516106569190615bb0565b60405180910390f35b34801561066b57600080fd5b5061068660048036038101906106819190615b74565b6117ea565b005b34801561069457600080fd5b506106af60048036038101906106aa9190615b74565b611c3b565b005b3480156106bd57600080fd5b506106d860048036038101906106d39190615c81565b611d2b565b6040516106e59190615bb0565b60405180910390f35b3480156106fa57600080fd5b50610715600480360381019061071091906159c1565b611dc9565b005b34801561072357600080fd5b5061072c611e68565b6040516107399190615b59565b60405180910390f35b34801561074e57600080fd5b50610757611e7b565b6040516107649190615bb0565b60405180910390f35b34801561077957600080fd5b50610794600480360381019061078f9190615b74565b611e9b565b005b3480156107a257600080fd5b506107ab6121d1565b6040516107b89190615cd0565b60405180910390f35b3480156107cd57600080fd5b506107e860048036038101906107e39190615b74565b6121f7565b6040516107f59190615b59565b60405180910390f35b34801561080a57600080fd5b5061082560048036038101906108209190615b74565b61224d565b005b34801561083357600080fd5b5061084e600480360381019061084991906159c1565b61233d565b005b34801561085c57600080fd5b50610865612448565b6040516108729190615bb0565b60405180910390f35b34801561088757600080fd5b506108a2600480360381019061089d9190615b74565b61244e565b6040516108af9190615b59565b60405180910390f35b3480156108c457600080fd5b506108df60048036038101906108da9190615b74565b6124a4565b6040516108ec9190615bb0565b60405180910390f35b34801561090157600080fd5b5061090a61258f565b005b34801561091857600080fd5b506109216126e2565b005b34801561092f57600080fd5b50610938612806565b6040516109459190615cd0565b60405180910390f35b34801561095a57600080fd5b5061096361282c565b6040516109709190615bb0565b60405180910390f35b34801561098557600080fd5b506109a0600480360381019061099b9190615b74565b612832565b6040516109ad9190615b59565b60405180910390f35b3480156109c257600080fd5b506109cb612888565b6040516109d89190615cd0565b60405180910390f35b3480156109ed57600080fd5b50610a086004803603810190610a0391906159c1565b6128b1565b005b348015610a1657600080fd5b50610a1f612950565b604051610a2c9190615bb0565b60405180910390f35b348015610a4157600080fd5b50610a4a612989565b604051610a579190615a7e565b60405180910390f35b348015610a6c57600080fd5b50610a876004803603810190610a829190615afe565b6129c6565b604051610a949190615b59565b60405180910390f35b348015610aa957600080fd5b50610ab2612a93565b005b348015610ac057600080fd5b50610adb6004803603810190610ad69190615afe565b612b32565b604051610ae89190615b59565b60405180910390f35b348015610afd57600080fd5b50610b186004803603810190610b1391906159c1565b612cfc565b005b348015610b2657600080fd5b50610b2f612d9b565b604051610b3c9190615cd0565b60405180910390f35b348015610b5157600080fd5b50610b5a612dc1565b604051610b679190615bb0565b60405180910390f35b348015610b7c57600080fd5b50610b976004803603810190610b929190615ceb565b612dc7565b005b348015610ba557600080fd5b50610bc06004803603810190610bbb9190615d56565b612eb0565b005b348015610bce57600080fd5b50610be96004803603810190610be491906159c1565b613095565b005b348015610bf757600080fd5b50610c00613134565b604051610c0d9190615bb0565b60405180910390f35b348015610c2257600080fd5b50610c2b61313a565b604051610c389190615bb0565b60405180910390f35b348015610c4d57600080fd5b50610c56613140565b604051610c639190615bb0565b60405180910390f35b348015610c7857600080fd5b50610c81613171565b604051610c8e9190615bb0565b60405180910390f35b348015610ca357600080fd5b50610cbe6004803603810190610cb99190615d96565b613183565b604051610ccb9190615bb0565b60405180910390f35b348015610ce057600080fd5b50610ce961320a565b604051610cf69190615e35565b60405180910390f35b348015610d0b57600080fd5b50610d266004803603810190610d219190615b74565b613230565b005b348015610d3457600080fd5b50610d4f6004803603810190610d4a91906159c1565b613320565b005b348015610d5d57600080fd5b50610d786004803603810190610d7391906159c1565b6133bf565b005b348015610d8657600080fd5b50610da16004803603810190610d9c9190615b74565b6134bb565b005b348015610daf57600080fd5b50610db861367c565b604051610dc59190615cd0565b60405180910390f35b348015610dda57600080fd5b50610de3613682565b005b610ded6137a6565b73ffffffffffffffffffffffffffffffffffffffff1660008054906101000a900473ffffffffffffffffffffffffffffffffffffffff1673ffffffffffffffffffffffffffffffffffffffff1614610e7a576040517f08c379a0000000000000000000000000000000000000000000000000000000008152600401610e7190615e9c565b60405180910390fd5b80600d8190555050565b60606040518060400160405280601381526020017f41204e6577204e69676572696120546f6b656e00000000000000000000000000815250905090565b6000610ed5610ece6137a6565b84846137ae565b6001905092915050565b610ee76137a6565b73ffffffffffffffffffffffffffffffffffffffff1660008054906101000a900473ffffffffffffffffffffffffffffffffffffffff1673ffffffffffffffffffffffffffffffffffffffff1614610f74576040517f08c379a0000000000000000000000000000000000000000000000000000000008152600401610f6b90615e9c565b60405180910390fd5b600073ffffffffffffffffffffffffffffffffffffffff168173ffffffffffffffffffffffffffffffffffffffff1603610fe3576040517f08c379a0000000000000000000000000000000000000000000000000000000008152600401610fda90615f2e565b60405180910390fd5b80601460006101000a81548173ffffffffffffffffffffffffffffffffffffffff021916908373ffffffffffffffffffffffffffffffffffffffff16021790555050565b6000600b54905090565b60006012600a61104191906160b0565b6303c14dc061105091906160fb565b905090565b6000611062848484613977565b6111238461106e6137a6565b61111e8560405180606001604052806028815260200161714460289139600560008b73ffffffffffffffffffffffffffffffffffffffff1673ffffffffffffffffffffffffffffffffffffffff16815260200190815260200160002060006110d46137a6565b73ffffffffffffffffffffffffffffffffffffffff1673ffffffffffffffffffffffffffffffffffffffff16815260200190815260200160002054613b619092919063ffffffff16565b6137ae565b600190509392505050565b6000600a54821115611175576040517f08c379a000000000000000000000000000000000000000000000000000000000815260040161116c906161af565b60405180910390fd5b600061117f613bb6565b90506111948184613be190919063ffffffff16565b915050919050565b6111a46137a6565b73ffffffffffffffffffffffffffffffffffffffff1660008054906101000a900473ffffffffffffffffffffffffffffffffffffffff1673ffffffffffffffffffffffffffffffffffffffff1614611231576040517f08c379a000000000000000000000000000000000000000000000000000000000815260040161122890615e9c565b60405180910390fd5b600073ffffffffffffffffffffffffffffffffffffffff168173ffffffffffffffffffffffffffffffffffffffff16036112a0576040517f08c379a000000000000000000000000000000000000000000000000000000000815260040161129790615f2e565b60405180910390fd5b80601760006101000a81548173ffffffffffffffffffffffffffffffffffffffff021916908373ffffffffffffffffffffffffffffffffffffffff16021790555050565b60006012905090565b6112f56137a6565b73ffffffffffffffffffffffffffffffffffffffff1660008054906101000a900473ffffffffffffffffffffffffffffffffffffffff1673ffffffffffffffffffffffffffffffffffffffff1614611382576040517f08c379a000000000000000000000000000000000000000000000000000000000815260040161137990615e9c565b60405180910390fd5b600860008273ffffffffffffffffffffffffffffffffffffffff1673ffffffffffffffffffffffffffffffffffffffff16815260200190815260200160002060009054906101000a900460ff1661140e576040517f08c379a00000000000000000000000000000000000000000000000000000000081526004016114059061621b565b60405180910390fd5b60005b600980549050811015611637578173ffffffffffffffffffffffffffffffffffffffff16600982815481106114495761144861623b565b5b9060005260206000200160009054906101000a900473ffffffffffffffffffffffffffffffffffffffff1673ffffffffffffffffffffffffffffffffffffffff160361162457600960016009805490506114a3919061626a565b815481106114b4576114b361623b565b5b9060005260206000200160009054906101000a900473ffffffffffffffffffffffffffffffffffffffff16600982815481106114f3576114f261623b565b5b9060005260206000200160006101000a81548173ffffffffffffffffffffffffffffffffffffffff021916908373ffffffffffffffffffffffffffffffffffffffff1602179055506000600460008473ffffffffffffffffffffffffffffffffffffffff1673ffffffffffffffffffffffffffffffffffffffff168152602001908152602001600020819055506000600860008473ffffffffffffffffffffffffffffffffffffffff1673ffffffffffffffffffffffffffffffffffffffff16815260200190815260200160002060006101000a81548160ff02191690831515021790555060098054806115ea576115e961629e565b5b6001900381819060005260206000200160006101000a81549073ffffffffffffffffffffffffffffffffffffffff02191690559055611637565b808061162f906162cd565b915050611411565b5050565b60006116e46116486137a6565b846116df85600560006116596137a6565b73ffffffffffffffffffffffffffffffffffffffff1673ffffffffffffffffffffffffffffffffffffffff16815260200190815260200160002060008973ffffffffffffffffffffffffffffffffffffffff1673ffffffffffffffffffffffffffffffffffffffff16815260200190815260200160002054613bf790919063ffffffff16565b6137ae565b6001905092915050565b600d5481565b6116fc6137a6565b73ffffffffffffffffffffffffffffffffffffffff1660008054906101000a900473ffffffffffffffffffffffffffffffffffffffff1673ffffffffffffffffffffffffffffffffffffffff1614611789576040517f08c379a000000000000000000000000000000000000000000000000000000000815260040161178090615e9c565b60405180910390fd5b6000600760008373ffffffffffffffffffffffffffffffffffffffff1673ffffffffffffffffffffffffffffffffffffffff16815260200190815260200160002060006101000a81548160ff02191690831515021790555050565b60165481565b6117f26137a6565b73ffffffffffffffffffffffffffffffffffffffff1660008054906101000a900473ffffffffffffffffffffffffffffffffffffffff1673ffffffffffffffffffffffffffffffffffffffff161461187f576040517f08c379a000000000000000000000000000000000000000000000000000000000815260040161187690615e9c565b60405180910390fd5b600081905060008173ffffffffffffffffffffffffffffffffffffffff1663c45a01556040518163ffffffff1660e01b8152600401602060405180830381865afa1580156118d1573d6000803e3d6000fd5b505050506040513d601f19601f820116820180604052508101906118f5919061632a565b73ffffffffffffffffffffffffffffffffffffffff1663e6a43905308473ffffffffffffffffffffffffffffffffffffffff1663ad5c46486040518163ffffffff1660e01b8152600401602060405180830381865afa15801561195c573d6000803e3d6000fd5b505050506040513d601f19601f82011682018060405250810190611980919061632a565b6040518363ffffffff1660e01b815260040161199d929190616357565b602060405180830381865afa1580156119ba573d6000803e3d6000fd5b505050506040513d601f19601f820116820180604052508101906119de919061632a565b9050600073ffffffffffffffffffffffffffffffffffffffff168173ffffffffffffffffffffffffffffffffffffffff1603611bb3578173ffffffffffffffffffffffffffffffffffffffff1663c45a01556040518163ffffffff1660e01b8152600401602060405180830381865afa158015611a5f573d6000803e3d6000fd5b505050506040513d601f19601f82011682018060405250810190611a83919061632a565b73ffffffffffffffffffffffffffffffffffffffff1663c9c65396308473ffffffffffffffffffffffffffffffffffffffff1663ad5c46486040518163ffffffff1660e01b8152600401602060405180830381865afa158015611aea573d6000803e3d6000fd5b505050506040513d601f19601f82011682018060405250810190611b0e919061632a565b6040518363ffffffff1660e01b8152600401611b2b929190616357565b6020604051808303816000875af1158015611b4a573d6000803e3d6000fd5b505050506040513d601f19601f82011682018060405250810190611b6e919061632a565b601a60006101000a81548173ffffffffffffffffffffffffffffffffffffffff021916908373ffffffffffffffffffffffffffffffffffffffff160217905550611bf5565b80601a60006101000a81548173ffffffffffffffffffffffffffffffffffffffff021916908373ffffffffffffffffffffffffffffffffffffffff1602179055505b81601960006101000a81548173ffffffffffffffffffffffffffffffffffffffff021916908373ffffffffffffffffffffffffffffffffffffffff160217905550505050565b611c436137a6565b73ffffffffffffffffffffffffffffffffffffffff1660008054906101000a900473ffffffffffffffffffffffffffffffffffffffff1673ffffffffffffffffffffffffffffffffffffffff1614611cd0576040517f08c379a0000000000000000000000000000000000000000000000000000000008152600401611cc790615e9c565b60405180910390fd5b6001600660008373ffffffffffffffffffffffffffffffffffffffff1673ffffffffffffffffffffffffffffffffffffffff16815260200190815260200160002060006101000a81548160ff02191690831515021790555050565b60006012600a611d3b91906160b0565b6303c14dc0611d4a91906160fb565b831115611d8c576040517f08c379a0000000000000000000000000000000000000000000000000000000008152600401611d83906163cc565b60405180910390fd5b81611dac576000611d9c84613c0d565b5050505050905080915050611dc3565b6000611db784613c0d565b50505050915050809150505b92915050565b611dd16137a6565b73ffffffffffffffffffffffffffffffffffffffff1660008054906101000a900473ffffffffffffffffffffffffffffffffffffffff1673ffffffffffffffffffffffffffffffffffffffff1614611e5e576040517f08c379a0000000000000000000000000000000000000000000000000000000008152600401611e5590615e9c565b60405180910390fd5b8060138190555050565b601a60159054906101000a900460ff1681565b6012600a611e8991906160b0565b63015ef3c0611e9891906160fb565b81565b611ea36137a6565b73ffffffffffffffffffffffffffffffffffffffff1660008054906101000a900473ffffffffffffffffffffffffffffffffffffffff1673ffffffffffffffffffffffffffffffffffffffff1614611f30576040517f08c379a0000000000000000000000000000000000000000000000000000000008152600401611f2790615e9c565b60405180910390fd5b7310ed43c718714eb63d5aa57b78b54704e256024e73ffffffffffffffffffffffffffffffffffffffff168173ffffffffffffffffffffffffffffffffffffffff1603611fb2576040517f08c379a0000000000000000000000000000000000000000000000000000000008152600401611fa99061645e565b60405180910390fd5b600860008273ffffffffffffffffffffffffffffffffffffffff1673ffffffffffffffffffffffffffffffffffffffff16815260200190815260200160002060009054906101000a900460ff161561203f576040517f08c379a0000000000000000000000000000000000000000000000000000000008152600401612036906164ca565b60405180910390fd5b6000600360008373ffffffffffffffffffffffffffffffffffffffff1673ffffffffffffffffffffffffffffffffffffffff168152602001908152602001600020541115612113576120cf600360008373ffffffffffffffffffffffffffffffffffffffff1673ffffffffffffffffffffffffffffffffffffffff1681526020019081526020016000205461112e565b600460008373ffffffffffffffffffffffffffffffffffffffff1673ffffffffffffffffffffffffffffffffffffffff168152602001908152602001600020819055505b6001600860008373ffffffffffffffffffffffffffffffffffffffff1673ffffffffffffffffffffffffffffffffffffffff16815260200190815260200160002060006101000a81548160ff0219169083151502179055506009819080600181540180825580915050600190039060005260206000200160009091909190916101000a81548173ffffffffffffffffffffffffffffffffffffffff021916908373ffffffffffffffffffffffffffffffffffffffff16021790555050565b601a60009054906101000a900473ffffffffffffffffffffffffffffffffffffffff1681565b6000600660008373ffffffffffffffffffffffffffffffffffffffff1673ffffffffffffffffffffffffffffffffffffffff16815260200190815260200160002060009054906101000a900460ff169050919050565b6122556137a6565b73ffffffffffffffffffffffffffffffffffffffff1660008054906101000a900473ffffffffffffffffffffffffffffffffffffffff1673ffffffffffffffffffffffffffffffffffffffff16146122e2576040517f08c379a00000000000000000000000000000000000000000000000000000000081526004016122d990615e9c565b60405180910390fd5b6001600760008373ffffffffffffffffffffffffffffffffffffffff1673ffffffffffffffffffffffffffffffffffffffff16815260200190815260200160002060006101000a81548160ff02191690831515021790555050565b6123456137a6565b73ffffffffffffffffffffffffffffffffffffffff1660008054906101000a900473ffffffffffffffffffffffffffffffffffffffff1673ffffffffffffffffffffffffffffffffffffffff16146123d2576040517f08c379a00000000000000000000000000000000000000000000000000000000081526004016123c990615e9c565b60405180910390fd5b6101906012600a6123e391906160b0565b6303c14dc06123f291906160fb565b6123fc9190616519565b81111561243e576040517f08c379a000000000000000000000000000000000000000000000000000000000815260040161243590616596565b60405180910390fd5b80600c8190555050565b600f5481565b6000600760008373ffffffffffffffffffffffffffffffffffffffff1673ffffffffffffffffffffffffffffffffffffffff16815260200190815260200160002060009054906101000a900460ff169050919050565b6000600860008373ffffffffffffffffffffffffffffffffffffffff1673ffffffffffffffffffffffffffffffffffffffff16815260200190815260200160002060009054906101000a900460ff161561253f57600460008373ffffffffffffffffffffffffffffffffffffffff1673ffffffffffffffffffffffffffffffffffffffff16815260200190815260200160002054905061258a565b612587600360008473ffffffffffffffffffffffffffffffffffffffff1673ffffffffffffffffffffffffffffffffffffffff1681526020019081526020016000205461112e565b90505b919050565b6125976137a6565b73ffffffffffffffffffffffffffffffffffffffff1660008054906101000a900473ffffffffffffffffffffffffffffffffffffffff1673ffffffffffffffffffffffffffffffffffffffff1614612624576040517f08c379a000000000000000000000000000000000000000000000000000000000815260040161261b90615e9c565b60405180910390fd5b600073ffffffffffffffffffffffffffffffffffffffff1660008054906101000a900473ffffffffffffffffffffffffffffffffffffffff1673ffffffffffffffffffffffffffffffffffffffff167f8be0079c531659141344cd1fd0a4f28419497f9722a3daafe3b4186f6b6457e060405160405180910390a360008060006101000a81548173ffffffffffffffffffffffffffffffffffffffff021916908373ffffffffffffffffffffffffffffffffffffffff160217905550565b6126ea6137a6565b73ffffffffffffffffffffffffffffffffffffffff1660008054906101000a900473ffffffffffffffffffffffffffffffffffffffff1673ffffffffffffffffffffffffffffffffffffffff1614612777576040517f08c379a000000000000000000000000000000000000000000000000000000000815260040161276e90615e9c565b60405180910390fd5b6000600d81905550600d54600e819055506000600f81905550600f546010819055506000601181905550601154601281905550600060138190555060135460158190555060006016819055506016546018819055507f53726dfcaf90650aa7eb35524f4d3220f07413c8d6cb404cc8c18bf5591bc15960006040516127fc9190615b59565b60405180910390a1565b601760009054906101000a900473ffffffffffffffffffffffffffffffffffffffff1681565b601b5481565b6000600860008373ffffffffffffffffffffffffffffffffffffffff1673ffffffffffffffffffffffffffffffffffffffff16815260200190815260200160002060009054906101000a900460ff169050919050565b60008060009054906101000a900473ffffffffffffffffffffffffffffffffffffffff16905090565b6128b96137a6565b73ffffffffffffffffffffffffffffffffffffffff1660008054906101000a900473ffffffffffffffffffffffffffffffffffffffff1673ffffffffffffffffffffffffffffffffffffffff1614612946576040517f08c379a000000000000000000000000000000000000000000000000000000000815260040161293d90615e9c565b60405180910390fd5b80600f8190555050565b600061295d61dead6124a4565b6012600a61296b91906160b0565b6303c14dc061297a91906160fb565b612984919061626a565b905090565b60606040518060400160405280600481526020017f414e4e5400000000000000000000000000000000000000000000000000000000815250905090565b6000612a896129d36137a6565b84612a848560405180606001604052806025815260200161716c60259139600560006129fd6137a6565b73ffffffffffffffffffffffffffffffffffffffff1673ffffffffffffffffffffffffffffffffffffffff16815260200190815260200160002060008a73ffffffffffffffffffffffffffffffffffffffff1673ffffffffffffffffffffffffffffffffffffffff16815260200190815260200160002054613b619092919063ffffffff16565b6137ae565b6001905092915050565b612a9b6137a6565b73ffffffffffffffffffffffffffffffffffffffff1660008054906101000a900473ffffffffffffffffffffffffffffffffffffffff1673ffffffffffffffffffffffffffffffffffffffff1614612b28576040517f08c379a0000000000000000000000000000000000000000000000000000000008152600401612b1f90615e9c565b60405180910390fd5b6000601181905550565b60006012600a612b4291906160b0565b63015ef3c0612b5191906160fb565b612b5c61dead6124a4565b6012600a612b6a91906160b0565b6303c14dc0612b7991906160fb565b612b83919061626a565b11612b915760006011819055505b3073ffffffffffffffffffffffffffffffffffffffff168373ffffffffffffffffffffffffffffffffffffffff1603612bff576040517f08c379a0000000000000000000000000000000000000000000000000000000008152600401612bf690616628565b60405180910390fd5b61dead73ffffffffffffffffffffffffffffffffffffffff168373ffffffffffffffffffffffffffffffffffffffff1603612ce057612c3c612888565b73ffffffffffffffffffffffffffffffffffffffff163373ffffffffffffffffffffffffffffffffffffffff161480612ca057503073ffffffffffffffffffffffffffffffffffffffff163373ffffffffffffffffffffffffffffffffffffffff16145b612cdf576040517f08c379a0000000000000000000000000000000000000000000000000000000008152600401612cd6906166e0565b60405180910390fd5b5b612cf2612ceb6137a6565b8484613977565b6001905092915050565b612d046137a6565b73ffffffffffffffffffffffffffffffffffffffff1660008054906101000a900473ffffffffffffffffffffffffffffffffffffffff1673ffffffffffffffffffffffffffffffffffffffff1614612d91576040517f08c379a0000000000000000000000000000000000000000000000000000000008152600401612d8890615e9c565b60405180910390fd5b8060168190555050565b601460009054906101000a900473ffffffffffffffffffffffffffffffffffffffff1681565b60115481565b612dcf6137a6565b73ffffffffffffffffffffffffffffffffffffffff1660008054906101000a900473ffffffffffffffffffffffffffffffffffffffff1673ffffffffffffffffffffffffffffffffffffffff1614612e5c576040517f08c379a0000000000000000000000000000000000000000000000000000000008152600401612e5390615e9c565b60405180910390fd5b80601a60156101000a81548160ff0219169083151502179055507f53726dfcaf90650aa7eb35524f4d3220f07413c8d6cb404cc8c18bf5591bc15981604051612ea59190615b59565b60405180910390a150565b612eb86137a6565b73ffffffffffffffffffffffffffffffffffffffff1660008054906101000a900473ffffffffffffffffffffffffffffffffffffffff1673ffffffffffffffffffffffffffffffffffffffff1614612f45576040517f08c379a0000000000000000000000000000000000000000000000000000000008152600401612f3c90615e9c565b60405180910390fd5b6002805403612f89576040517f08c379a0000000000000000000000000000000000000000000000000000000008152600401612f809061674c565b60405180910390fd5b60028081905550600073ffffffffffffffffffffffffffffffffffffffff168273ffffffffffffffffffffffffffffffffffffffff1603612fff576040517f08c379a0000000000000000000000000000000000000000000000000000000008152600401612ff6906167de565b60405180910390fd5b47811115613042576040517f08c379a000000000000000000000000000000000000000000000000000000000815260040161303990616870565b60405180910390fd5b8173ffffffffffffffffffffffffffffffffffffffff166108fc829081150290604051600060405180830381858888f19350505050158015613088573d6000803e3d6000fd5b5060016002819055505050565b61309d6137a6565b73ffffffffffffffffffffffffffffffffffffffff1660008054906101000a900473ffffffffffffffffffffffffffffffffffffffff1673ffffffffffffffffffffffffffffffffffffffff161461312a576040517f08c379a000000000000000000000000000000000000000000000000000000000815260040161312190615e9c565b60405180910390fd5b8060118190555050565b601c5481565b60135481565b6000601654601354601154600f546131589190616890565b6131629190616890565b61316c9190616890565b905090565b600061317e61dead6124a4565b905090565b6000600560008473ffffffffffffffffffffffffffffffffffffffff1673ffffffffffffffffffffffffffffffffffffffff16815260200190815260200160002060008373ffffffffffffffffffffffffffffffffffffffff1673ffffffffffffffffffffffffffffffffffffffff16815260200190815260200160002054905092915050565b601960009054906101000a900473ffffffffffffffffffffffffffffffffffffffff1681565b6132386137a6565b73ffffffffffffffffffffffffffffffffffffffff1660008054906101000a900473ffffffffffffffffffffffffffffffffffffffff1673ffffffffffffffffffffffffffffffffffffffff16146132c5576040517f08c379a00000000000000000000000000000000000000000000000000000000081526004016132bc90615e9c565b60405180910390fd5b6000600660008373ffffffffffffffffffffffffffffffffffffffff1673ffffffffffffffffffffffffffffffffffffffff16815260200190815260200160002060006101000a81548160ff02191690831515021790555050565b6133286137a6565b73ffffffffffffffffffffffffffffffffffffffff1660008054906101000a900473ffffffffffffffffffffffffffffffffffffffff1673ffffffffffffffffffffffffffffffffffffffff16146133b5576040517f08c379a00000000000000000000000000000000000000000000000000000000081526004016133ac90615e9c565b60405180910390fd5b80601b8190555050565b6133c76137a6565b73ffffffffffffffffffffffffffffffffffffffff1660008054906101000a900473ffffffffffffffffffffffffffffffffffffffff1673ffffffffffffffffffffffffffffffffffffffff1614613454576040517f08c379a000000000000000000000000000000000000000000000000000000000815260040161344b90615e9c565b60405180910390fd5b6012600a61346291906160b0565b61271061346f91906160fb565b8111156134b1576040517f08c379a00000000000000000000000000000000000000000000000000000000081526004016134a890616936565b60405180910390fd5b80601c8190555050565b6134c36137a6565b73ffffffffffffffffffffffffffffffffffffffff1660008054906101000a900473ffffffffffffffffffffffffffffffffffffffff1673ffffffffffffffffffffffffffffffffffffffff1614613550576040517f08c379a000000000000000000000000000000000000000000000000000000000815260040161354790615e9c565b60405180910390fd5b600073ffffffffffffffffffffffffffffffffffffffff168173ffffffffffffffffffffffffffffffffffffffff16036135bf576040517f08c379a00000000000000000000000000000000000000000000000000000000081526004016135b6906169c8565b60405180910390fd5b8073ffffffffffffffffffffffffffffffffffffffff1660008054906101000a900473ffffffffffffffffffffffffffffffffffffffff1673ffffffffffffffffffffffffffffffffffffffff167f8be0079c531659141344cd1fd0a4f28419497f9722a3daafe3b4186f6b6457e060405160405180910390a3806000806101000a81548173ffffffffffffffffffffffffffffffffffffffff021916908373ffffffffffffffffffffffffffffffffffffffff16021790555050565b61dead81565b61368a6137a6565b73ffffffffffffffffffffffffffffffffffffffff1660008054906101000a900473ffffffffffffffffffffffffffffffffffffffff1673ffffffffffffffffffffffffffffffffffffffff1614613717576040517f08c379a000000000000000000000000000000000000000000000000000000000815260040161370e90615e9c565b60405180910390fd5b6000600d81905550600d54600e819055506003600f81905550600f546010819055506002601181905550601154601281905550600360138190555060135460158190555060026016819055506016546018819055507f53726dfcaf90650aa7eb35524f4d3220f07413c8d6cb404cc8c18bf5591bc159600060405161379c9190615b59565b60405180910390a1565b600033905090565b600073ffffffffffffffffffffffffffffffffffffffff168373ffffffffffffffffffffffffffffffffffffffff160361381d576040517f08c379a000000000000000000000000000000000000000000000000000000000815260040161381490616a5a565b60405180910390fd5b600073ffffffffffffffffffffffffffffffffffffffff168273ffffffffffffffffffffffffffffffffffffffff160361388c576040517f08c379a000000000000000000000000000000000000000000000000000000000815260040161388390616aec565b60405180910390fd5b80600560008573ffffffffffffffffffffffffffffffffffffffff1673ffffffffffffffffffffffffffffffffffffffff16815260200190815260200160002060008473ffffffffffffffffffffffffffffffffffffffff1673ffffffffffffffffffffffffffffffffffffffff168152602001908152602001600020819055508173ffffffffffffffffffffffffffffffffffffffff168373ffffffffffffffffffffffffffffffffffffffff167f8c5be1e5ebec7d5bd14f71427d1e84f3dd0314c0f7b2291e5b200ac8c7c3b9258360405161396a9190615bb0565b60405180910390a3505050565b600073ffffffffffffffffffffffffffffffffffffffff168373ffffffffffffffffffffffffffffffffffffffff16036139e6576040517f08c379a00000000000000000000000000000000000000000000000000000000081526004016139dd90616b7e565b60405180910390fd5b600073ffffffffffffffffffffffffffffffffffffffff168273ffffffffffffffffffffffffffffffffffffffff1603613a55576040517f08c379a0000000000000000000000000000000000000000000000000000000008152600401613a4c90616c10565b60405180910390fd5b60008111613a98576040517f08c379a0000000000000000000000000000000000000000000000000000000008152600401613a8f90616ca2565b60405180910390fd5b6000613aa3306124a4565b90506000601c548210159050808015613ac95750601a60149054906101000a900460ff16155b8015613b235750601a60009054906101000a900473ffffffffffffffffffffffffffffffffffffffff1673ffffffffffffffffffffffffffffffffffffffff168573ffffffffffffffffffffffffffffffffffffffff1614155b8015613b3b5750601a60159054906101000a900460ff165b15613b4f57601c549150613b4e82613c69565b5b613b5a858585613d40565b5050505050565b6000838311158290613ba9576040517f08c379a0000000000000000000000000000000000000000000000000000000008152600401613ba09190615a7e565b60405180910390fd5b5082840390509392505050565b6000806000613bc3614574565b91509150613bda8183613be190919063ffffffff16565b9250505090565b60008183613bef9190616519565b905092915050565b60008183613c059190616890565b905092915050565b6000806000806000806000806000613c248a61488f565b9250925092506000806000613c428d8686613c3d613bb6565b6148e9565b9250925092508282828888889b509b509b509b509b509b5050505050505091939550919395565b6001601a60146101000a81548160ff0219169083151502179055506000613c9a600283613be190919063ffffffff16565b90506000613cb1828461497290919063ffffffff16565b90506000479050613cc183614988565b506000613cd7824761497290919063ffffffff16565b9050613ce38382614c44565b7f17bbfb9a6069321b6ded73bd96327c9e6b7212a5cd51ff219cd61370acafb561848285604051613d1693929190616cc2565b60405180910390a1505050506000601a60146101000a81548160ff02191690831515021790555050565b6012600a613d4e91906160b0565b63015ef3c0613d5d91906160fb565b613d6861dead6124a4565b6012600a613d7691906160b0565b6303c14dc0613d8591906160fb565b613d8f919061626a565b11613d9d5760006011819055505b600660008473ffffffffffffffffffffffffffffffffffffffff1673ffffffffffffffffffffffffffffffffffffffff16815260200190815260200160002060009054906101000a900460ff1680613e3e5750600660008373ffffffffffffffffffffffffffffffffffffffff1673ffffffffffffffffffffffffffffffffffffffff16815260200190815260200160002060009054906101000a900460ff165b15613e5057613e4b614d5b565b613e96565b601b54811115613e95576040517f08c379a0000000000000000000000000000000000000000000000000000000008152600401613e8c90616d6b565b60405180910390fd5b5b601a60009054906101000a900473ffffffffffffffffffffffffffffffffffffffff1673ffffffffffffffffffffffffffffffffffffffff168273ffffffffffffffffffffffffffffffffffffffff1614613f9857600c5481613ef8846124a4565b613f029190616890565b111580613f585750600760008373ffffffffffffffffffffffffffffffffffffffff1673ffffffffffffffffffffffffffffffffffffffff16815260200190815260200160002060009054906101000a900460ff165b613f97576040517f08c379a0000000000000000000000000000000000000000000000000000000008152600401613f8e90616dd7565b60405180910390fd5b5b6000613fc26064613fb460115485614d8590919063ffffffff16565b613be190919063ffffffff16565b90506000613fee6064613fe060135486614d8590919063ffffffff16565b613be190919063ffffffff16565b9050600061401a606461400c60165487614d8590919063ffffffff16565b613be190919063ffffffff16565b9050600860008773ffffffffffffffffffffffffffffffffffffffff1673ffffffffffffffffffffffffffffffffffffffff16815260200190815260200160002060009054906101000a900460ff1680156140bf5750600860008673ffffffffffffffffffffffffffffffffffffffff1673ffffffffffffffffffffffffffffffffffffffff16815260200190815260200160002060009054906101000a900460ff16155b1561410a576141058686614100846140f2876140e48a8c61497290919063ffffffff16565b61497290919063ffffffff16565b61497290919063ffffffff16565b614d9b565b614419565b600860008773ffffffffffffffffffffffffffffffffffffffff1673ffffffffffffffffffffffffffffffffffffffff16815260200190815260200160002060009054906101000a900460ff161580156141ad5750600860008673ffffffffffffffffffffffffffffffffffffffff1673ffffffffffffffffffffffffffffffffffffffff16815260200190815260200160002060009054906101000a900460ff165b156141f8576141f386866141ee846141e0876141d28a8c61497290919063ffffffff16565b61497290919063ffffffff16565b61497290919063ffffffff16565b614ffb565b614418565b600860008773ffffffffffffffffffffffffffffffffffffffff1673ffffffffffffffffffffffffffffffffffffffff16815260200190815260200160002060009054906101000a900460ff1615801561429c5750600860008673ffffffffffffffffffffffffffffffffffffffff1673ffffffffffffffffffffffffffffffffffffffff16815260200190815260200160002060009054906101000a900460ff16155b156142e7576142e286866142dd846142cf876142c18a8c61497290919063ffffffff16565b61497290919063ffffffff16565b61497290919063ffffffff16565b61525b565b614417565b600860008773ffffffffffffffffffffffffffffffffffffffff1673ffffffffffffffffffffffffffffffffffffffff16815260200190815260200160002060009054906101000a900460ff1680156143895750600860008673ffffffffffffffffffffffffffffffffffffffff1673ffffffffffffffffffffffffffffffffffffffff16815260200190815260200160002060009054906101000a900460ff165b156143d4576143cf86866143ca846143bc876143ae8a8c61497290919063ffffffff16565b61497290919063ffffffff16565b61497290919063ffffffff16565b615426565b614416565b614415868661441084614402876143f48a8c61497290919063ffffffff16565b61497290919063ffffffff16565b61497290919063ffffffff16565b61525b565b5b5b5b5b6000600d819055506000600f819055506144368661dead8561525b565b61444b83600a5461497290919063ffffffff16565b600a8190555061447e86601460009054906101000a900473ffffffffffffffffffffffffffffffffffffffff168461525b565b6144ab86601760009054906101000a900473ffffffffffffffffffffffffffffffffffffffff168361525b565b600e54600d81905550601054600f81905550600660008773ffffffffffffffffffffffffffffffffffffffff1673ffffffffffffffffffffffffffffffffffffffff16815260200190815260200160002060009054906101000a900460ff168061455e5750600660008673ffffffffffffffffffffffffffffffffffffffff1673ffffffffffffffffffffffffffffffffffffffff16815260200190815260200160002060009054906101000a900460ff165b1561456c5761456b61571b565b5b505050505050565b6000806000600a54905060006012600a61458e91906160b0565b6303c14dc061459d91906160fb565b905060005b60098054905081101561481e578260036000600984815481106145c8576145c761623b565b5b9060005260206000200160009054906101000a900473ffffffffffffffffffffffffffffffffffffffff1673ffffffffffffffffffffffffffffffffffffffff1673ffffffffffffffffffffffffffffffffffffffff1681526020019081526020016000205411806146b6575081600460006009848154811061464e5761464d61623b565b5b9060005260206000200160009054906101000a900473ffffffffffffffffffffffffffffffffffffffff1673ffffffffffffffffffffffffffffffffffffffff1673ffffffffffffffffffffffffffffffffffffffff16815260200190815260200160002054115b156146e757600a546012600a6146cc91906160b0565b6303c14dc06146db91906160fb565b9450945050505061488b565b61477760036000600984815481106147025761470161623b565b5b9060005260206000200160009054906101000a900473ffffffffffffffffffffffffffffffffffffffff1673ffffffffffffffffffffffffffffffffffffffff1673ffffffffffffffffffffffffffffffffffffffff168152602001908152602001600020548461497290919063ffffffff16565b925061480960046000600984815481106147945761479361623b565b5b9060005260206000200160009054906101000a900473ffffffffffffffffffffffffffffffffffffffff1673ffffffffffffffffffffffffffffffffffffffff1673ffffffffffffffffffffffffffffffffffffffff168152602001908152602001600020548361497290919063ffffffff16565b91508080614816906162cd565b9150506145a2565b506148506012600a61483091906160b0565b6303c14dc061483f91906160fb565b600a54613be190919063ffffffff16565b82101561488257600a546012600a61486891906160b0565b6303c14dc061487791906160fb565b93509350505061488b565b81819350935050505b9091565b60008060008061489e85615745565b905060006148ab86615776565b905060006148d4826148c6858a61497290919063ffffffff16565b61497290919063ffffffff16565b90508083839550955095505050509193909250565b6000806000806149028589614d8590919063ffffffff16565b905060006149198689614d8590919063ffffffff16565b905060006149308789614d8590919063ffffffff16565b905060006149598261494b858761497290919063ffffffff16565b61497290919063ffffffff16565b9050838184965096509650505050509450945094915050565b60008183614980919061626a565b905092915050565b600080600267ffffffffffffffff8111156149a6576149a5616df7565b5b6040519080825280602002602001820160405280156149d45781602001602082028036833780820191505090505b50905030816000815181106149ec576149eb61623b565b5b602002602001019073ffffffffffffffffffffffffffffffffffffffff16908173ffffffffffffffffffffffffffffffffffffffff1681525050601960009054906101000a900473ffffffffffffffffffffffffffffffffffffffff1673ffffffffffffffffffffffffffffffffffffffff1663ad5c46486040518163ffffffff1660e01b8152600401602060405180830381865afa158015614a93573d6000803e3d6000fd5b505050506040513d601f19601f82011682018060405250810190614ab7919061632a565b81600181518110614acb57614aca61623b565b5b602002602001019073ffffffffffffffffffffffffffffffffffffffff16908173ffffffffffffffffffffffffffffffffffffffff1681525050614b3230601960009054906101000a900473ffffffffffffffffffffffffffffffffffffffff16856137ae565b601960009054906101000a900473ffffffffffffffffffffffffffffffffffffffff1673ffffffffffffffffffffffffffffffffffffffff1663791ac9478460008430426040518663ffffffff1660e01b8152600401614b96959493929190616f1f565b600060405180830381600087803b158015614bb057600080fd5b505af1925050508015614bc1575060015b614c04577f22b212abbac4f28435a37f1253f735d1d9c9b444577feee64b691ca091130297604051614bf290616fc5565b60405180910390a16000915050614c3f565b7f22b212abbac4f28435a37f1253f735d1d9c9b444577feee64b691ca091130297604051614c3190617031565b60405180910390a160019150505b919050565b614c7130601960009054906101000a900473ffffffffffffffffffffffffffffffffffffffff16846137ae565b601960009054906101000a900473ffffffffffffffffffffffffffffffffffffffff1673ffffffffffffffffffffffffffffffffffffffff1663f305d71982308560008030426040518863ffffffff1660e01b8152600401614cd896959493929190617051565b60606040518083038185885af1158015614cf6573d6000803e3d6000fd5b50505050506040513d601f19601f82011682018060405250810190614d1b91906170c7565b5050507f38f8a0c92f4c5b0b6877f878cb4c0c8d348a47b76d716c8e78f425043df9515b8282604051614d4f92919061711a565b60405180910390a15050565b6000600d819055506000600f81905550600060118190555060006013819055506000601681905550565b60008183614d9391906160fb565b905092915050565b600080600080600080614dad87613c0d565b955095509550955095509550614e0b87600460008c73ffffffffffffffffffffffffffffffffffffffff1673ffffffffffffffffffffffffffffffffffffffff1681526020019081526020016000205461497290919063ffffffff16565b600460008b73ffffffffffffffffffffffffffffffffffffffff1673ffffffffffffffffffffffffffffffffffffffff16815260200190815260200160002081905550614ea086600360008c73ffffffffffffffffffffffffffffffffffffffff1673ffffffffffffffffffffffffffffffffffffffff1681526020019081526020016000205461497290919063ffffffff16565b600360008b73ffffffffffffffffffffffffffffffffffffffff1673ffffffffffffffffffffffffffffffffffffffff16815260200190815260200160002081905550614f3585600360008b73ffffffffffffffffffffffffffffffffffffffff1673ffffffffffffffffffffffffffffffffffffffff16815260200190815260200160002054613bf790919063ffffffff16565b600360008a73ffffffffffffffffffffffffffffffffffffffff1673ffffffffffffffffffffffffffffffffffffffff16815260200190815260200160002081905550614f81816157a7565b614f8b848361594c565b8773ffffffffffffffffffffffffffffffffffffffff168973ffffffffffffffffffffffffffffffffffffffff167fddf252ad1be2c89b69c2b068fc378daa952ba7f163c4a11628f55a4df523b3ef85604051614fe89190615bb0565b60405180910390a3505050505050505050565b60008060008060008061500d87613c0d565b95509550955095509550955061506b86600360008c73ffffffffffffffffffffffffffffffffffffffff1673ffffffffffffffffffffffffffffffffffffffff1681526020019081526020016000205461497290919063ffffffff16565b600360008b73ffffffffffffffffffffffffffffffffffffffff1673ffffffffffffffffffffffffffffffffffffffff1681526020019081526020016000208190555061510083600460008b73ffffffffffffffffffffffffffffffffffffffff1673ffffffffffffffffffffffffffffffffffffffff16815260200190815260200160002054613bf790919063ffffffff16565b600460008a73ffffffffffffffffffffffffffffffffffffffff1673ffffffffffffffffffffffffffffffffffffffff1681526020019081526020016000208190555061519585600360008b73ffffffffffffffffffffffffffffffffffffffff1673ffffffffffffffffffffffffffffffffffffffff16815260200190815260200160002054613bf790919063ffffffff16565b600360008a73ffffffffffffffffffffffffffffffffffffffff1673ffffffffffffffffffffffffffffffffffffffff168152602001908152602001600020819055506151e1816157a7565b6151eb848361594c565b8773ffffffffffffffffffffffffffffffffffffffff168973ffffffffffffffffffffffffffffffffffffffff167fddf252ad1be2c89b69c2b068fc378daa952ba7f163c4a11628f55a4df523b3ef856040516152489190615bb0565b60405180910390a3505050505050505050565b60008060008060008061526d87613c0d565b9550955095509550955095506152cb86600360008c73ffffffffffffffffffffffffffffffffffffffff1673ffffffffffffffffffffffffffffffffffffffff1681526020019081526020016000205461497290919063ffffffff16565b600360008b73ffffffffffffffffffffffffffffffffffffffff1673ffffffffffffffffffffffffffffffffffffffff1681526020019081526020016000208190555061536085600360008b73ffffffffffffffffffffffffffffffffffffffff1673ffffffffffffffffffffffffffffffffffffffff16815260200190815260200160002054613bf790919063ffffffff16565b600360008a73ffffffffffffffffffffffffffffffffffffffff1673ffffffffffffffffffffffffffffffffffffffff168152602001908152602001600020819055506153ac816157a7565b6153b6848361594c565b8773ffffffffffffffffffffffffffffffffffffffff168973ffffffffffffffffffffffffffffffffffffffff167fddf252ad1be2c89b69c2b068fc378daa952ba7f163c4a11628f55a4df523b3ef856040516154139190615bb0565b60405180910390a3505050505050505050565b60008060008060008061543887613c0d565b95509550955095509550955061549687600460008c73ffffffffffffffffffffffffffffffffffffffff1673ffffffffffffffffffffffffffffffffffffffff1681526020019081526020016000205461497290919063ffffffff16565b600460008b73ffffffffffffffffffffffffffffffffffffffff1673ffffffffffffffffffffffffffffffffffffffff1681526020019081526020016000208190555061552b86600360008c73ffffffffffffffffffffffffffffffffffffffff1673ffffffffffffffffffffffffffffffffffffffff1681526020019081526020016000205461497290919063ffffffff16565b600360008b73ffffffffffffffffffffffffffffffffffffffff1673ffffffffffffffffffffffffffffffffffffffff168152602001908152602001600020819055506155c083600460008b73ffffffffffffffffffffffffffffffffffffffff1673ffffffffffffffffffffffffffffffffffffffff16815260200190815260200160002054613bf790919063ffffffff16565b600460008a73ffffffffffffffffffffffffffffffffffffffff1673ffffffffffffffffffffffffffffffffffffffff1681526020019081526020016000208190555061565585600360008b73ffffffffffffffffffffffffffffffffffffffff1673ffffffffffffffffffffffffffffffffffffffff16815260200190815260200160002054613bf790919063ffffffff16565b600360008a73ffffffffffffffffffffffffffffffffffffffff1673ffffffffffffffffffffffffffffffffffffffff168152602001908152602001600020819055506156a1816157a7565b6156ab848361594c565b8773ffffffffffffffffffffffffffffffffffffffff168973ffffffffffffffffffffffffffffffffffffffff167fddf252ad1be2c89b69c2b068fc378daa952ba7f163c4a11628f55a4df523b3ef856040516157089190615bb0565b60405180910390a3505050505050505050565b6000600d819055506003600f81905550600260118190555060036013819055506002601681905550565b600061576f6064615761600d5485614d8590919063ffffffff16565b613be190919063ffffffff16565b9050919050565b60006157a06064615792600f5485614d8590919063ffffffff16565b613be190919063ffffffff16565b9050919050565b60006157b1613bb6565b905060006157c88284614d8590919063ffffffff16565b905061581c81600360003073ffffffffffffffffffffffffffffffffffffffff1673ffffffffffffffffffffffffffffffffffffffff16815260200190815260200160002054613bf790919063ffffffff16565b600360003073ffffffffffffffffffffffffffffffffffffffff1673ffffffffffffffffffffffffffffffffffffffff16815260200190815260200160002081905550600860003073ffffffffffffffffffffffffffffffffffffffff1673ffffffffffffffffffffffffffffffffffffffff16815260200190815260200160002060009054906101000a900460ff16156159475761590383600460003073ffffffffffffffffffffffffffffffffffffffff1673ffffffffffffffffffffffffffffffffffffffff16815260200190815260200160002054613bf790919063ffffffff16565b600460003073ffffffffffffffffffffffffffffffffffffffff1673ffffffffffffffffffffffffffffffffffffffff168152602001908152602001600020819055505b505050565b61596182600a5461497290919063ffffffff16565b600a8190555061597c81600b54613bf790919063ffffffff16565b600b819055505050565b600080fd5b6000819050919050565b61599e8161598b565b81146159a957600080fd5b50565b6000813590506159bb81615995565b92915050565b6000602082840312156159d7576159d6615986565b5b60006159e5848285016159ac565b91505092915050565b600081519050919050565b600082825260208201905092915050565b60005b83811015615a28578082015181840152602081019050615a0d565b60008484015250505050565b6000601f19601f8301169050919050565b6000615a50826159ee565b615a5a81856159f9565b9350615a6a818560208601615a0a565b615a7381615a34565b840191505092915050565b60006020820190508181036000830152615a988184615a45565b905092915050565b600073ffffffffffffffffffffffffffffffffffffffff82169050919050565b6000615acb82615aa0565b9050919050565b615adb81615ac0565b8114615ae657600080fd5b50565b600081359050615af881615ad2565b92915050565b60008060408385031215615b1557615b14615986565b5b6000615b2385828601615ae9565b9250506020615b34858286016159ac565b9150509250929050565b60008115159050919050565b615b5381615b3e565b82525050565b6000602082019050615b6e6000830184615b4a565b92915050565b600060208284031215615b8a57615b89615986565b5b6000615b9884828501615ae9565b91505092915050565b615baa8161598b565b82525050565b6000602082019050615bc56000830184615ba1565b92915050565b600080600060608486031215615be457615be3615986565b5b6000615bf286828701615ae9565b9350506020615c0386828701615ae9565b9250506040615c14868287016159ac565b9150509250925092565b600060ff82169050919050565b615c3481615c1e565b82525050565b6000602082019050615c4f6000830184615c2b565b92915050565b615c5e81615b3e565b8114615c6957600080fd5b50565b600081359050615c7b81615c55565b92915050565b60008060408385031215615c9857615c97615986565b5b6000615ca6858286016159ac565b9250506020615cb785828601615c6c565b9150509250929050565b615cca81615ac0565b82525050565b6000602082019050615ce56000830184615cc1565b92915050565b600060208284031215615d0157615d00615986565b5b6000615d0f84828501615c6c565b91505092915050565b6000615d2382615aa0565b9050919050565b615d3381615d18565b8114615d3e57600080fd5b50565b600081359050615d5081615d2a565b92915050565b60008060408385031215615d6d57615d6c615986565b5b6000615d7b85828601615d41565b9250506020615d8c858286016159ac565b9150509250929050565b60008060408385031215615dad57615dac615986565b5b6000615dbb85828601615ae9565b9250506020615dcc85828601615ae9565b9150509250929050565b6000819050919050565b6000615dfb615df6615df184615aa0565b615dd6565b615aa0565b9050919050565b6000615e0d82615de0565b9050919050565b6000615e1f82615e02565b9050919050565b615e2f81615e14565b82525050565b6000602082019050615e4a6000830184615e26565b92915050565b7f4f776e61626c653a2063616c6c6572206973206e6f7420746865206f776e6572600082015250565b6000615e866020836159f9565b9150615e9182615e50565b602082019050919050565b60006020820190508181036000830152615eb581615e79565b9050919050565b7f42455032303a20746865206e65772077616c6c65742063616e6e6f742062652060008201527f746865207a65726f20616464726573732e000000000000000000000000000000602082015250565b6000615f186031836159f9565b9150615f2382615ebc565b604082019050919050565b60006020820190508181036000830152615f4781615f0b565b9050919050565b7f4e487b7100000000000000000000000000000000000000000000000000000000600052601160045260246000fd5b60008160011c9050919050565b6000808291508390505b6001851115615fd457808604811115615fb057615faf615f4e565b5b6001851615615fbf5780820291505b8081029050615fcd85615f7d565b9450615f94565b94509492505050565b600082615fed57600190506160a9565b81615ffb57600090506160a9565b8160018114616011576002811461601b5761604a565b60019150506160a9565b60ff84111561602d5761602c615f4e565b5b8360020a91508482111561604457616043615f4e565b5b506160a9565b5060208310610133831016604e8410600b841016171561607f5782820a90508381111561607a57616079615f4e565b5b6160a9565b61608c8484846001615f8a565b925090508184048111156160a3576160a2615f4e565b5b81810290505b9392505050565b60006160bb8261598b565b91506160c683615c1e565b92506160f37fffffffffffffffffffffffffffffffffffffffffffffffffffffffffffffffff8484615fdd565b905092915050565b60006161068261598b565b91506161118361598b565b925082820261611f8161598b565b9150828204841483151761613657616135615f4e565b5b5092915050565b7f416d6f756e74206d757374206265206c657373207468616e20746f74616c207260008201527f65666c656374696f6e7300000000000000000000000000000000000000000000602082015250565b6000616199602a836159f9565b91506161a48261613d565b604082019050919050565b600060208201905081810360008301526161c88161618c565b9050919050565b7f4163636f756e74206973206e6f74206578636c75646564000000000000000000600082015250565b60006162056017836159f9565b9150616210826161cf565b602082019050919050565b60006020820190508181036000830152616234816161f8565b9050919050565b7f4e487b7100000000000000000000000000000000000000000000000000000000600052603260045260246000fd5b60006162758261598b565b91506162808361598b565b925082820390508181111561629857616297615f4e565b5b92915050565b7f4e487b7100000000000000000000000000000000000000000000000000000000600052603160045260246000fd5b60006162d88261598b565b91507fffffffffffffffffffffffffffffffffffffffffffffffffffffffffffffffff820361630a57616309615f4e565b5b600182019050919050565b60008151905061632481615ad2565b92915050565b6000602082840312156163405761633f615986565b5b600061634e84828501616315565b91505092915050565b600060408201905061636c6000830185615cc1565b6163796020830184615cc1565b9392505050565b7f416d6f756e74206d757374206265206c657373207468616e20737570706c7900600082015250565b60006163b6601f836159f9565b91506163c182616380565b602082019050919050565b600060208201905081810360008301526163e5816163a9565b9050919050565b7f57652063616e206e6f74206578636c7564652050616e63616b6520726f75746560008201527f722e000000000000000000000000000000000000000000000000000000000000602082015250565b60006164486022836159f9565b9150616453826163ec565b604082019050919050565b600060208201905081810360008301526164778161643b565b9050919050565b7f4163636f756e7420697320616c7265616479206578636c756465640000000000600082015250565b60006164b4601b836159f9565b91506164bf8261647e565b602082019050919050565b600060208201905081810360008301526164e3816164a7565b9050919050565b7f4e487b7100000000000000000000000000000000000000000000000000000000600052601260045260246000fd5b60006165248261598b565b915061652f8361598b565b92508261653f5761653e6164ea565b5b828204905092915050565b7f6d61782077616c6c6574206d617820616d6f756e743a20302e32352500000000600082015250565b6000616580601c836159f9565b915061658b8261654a565b602082019050919050565b600060208201905081810360008301526165af81616573565b9050919050565b7f43616e6e6f74207472616e7366657220746f20636f6e7472616374206164647260008201527f6573730000000000000000000000000000000000000000000000000000000000602082015250565b60006166126023836159f9565b915061661d826165b6565b604082019050919050565b6000602082019050818103600083015261664181616605565b9050919050565b7f4f6e6c7920636f6e7472616374206f776e6572206f7220636f6e74726163742060008201527f616464726573732063616e207472616e7366657220746f206275726e2061646460208201527f7265737300000000000000000000000000000000000000000000000000000000604082015250565b60006166ca6044836159f9565b91506166d582616648565b606082019050919050565b600060208201905081810360008301526166f9816166bd565b9050919050565b7f5265656e7472616e637947756172643a207265656e7472616e742063616c6c00600082015250565b6000616736601f836159f9565b915061674182616700565b602082019050919050565b6000602082019050818103600083015261676581616729565b9050919050565b7f42455032303a20726563697069656e742063616e6e6f7420626520746865207a60008201527f65726f2061646472657373000000000000000000000000000000000000000000602082015250565b60006167c8602b836159f9565b91506167d38261676c565b604082019050919050565b600060208201905081810360008301526167f7816167bb565b9050919050565b7f42455032303a20616d6f756e742073686f756c64206e6f74206578636565642060008201527f74686520636f6e74726163742062616c616e63652e0000000000000000000000602082015250565b600061685a6035836159f9565b9150616865826167fe565b604082019050919050565b600060208201905081810360008301526168898161684d565b9050919050565b600061689b8261598b565b91506168a68361598b565b92508282019050808211156168be576168bd615f4e565b5b92915050565b7f42455032303a2074686520616d6f756e74206d757374206265206c657373657260008201527f207468616e206f7220657175616c20746f2031304b2e00000000000000000000602082015250565b60006169206036836159f9565b915061692b826168c4565b604082019050919050565b6000602082019050818103600083015261694f81616913565b9050919050565b7f4f776e61626c653a206e6577206f776e657220697320746865207a65726f206160008201527f6464726573730000000000000000000000000000000000000000000000000000602082015250565b60006169b26026836159f9565b91506169bd82616956565b604082019050919050565b600060208201905081810360008301526169e1816169a5565b9050919050565b7f42455032303a20617070726f76652066726f6d20746865207a65726f2061646460008201527f7265737300000000000000000000000000000000000000000000000000000000602082015250565b6000616a446024836159f9565b9150616a4f826169e8565b604082019050919050565b60006020820190508181036000830152616a7381616a37565b9050919050565b7f42455032303a20617070726f766520746f20746865207a65726f20616464726560008201527f7373000000000000000000000000000000000000000000000000000000000000602082015250565b6000616ad66022836159f9565b9150616ae182616a7a565b604082019050919050565b60006020820190508181036000830152616b0581616ac9565b9050919050565b7f42455032303a207472616e736665722066726f6d20746865207a65726f20616460008201527f6472657373000000000000000000000000000000000000000000000000000000602082015250565b6000616b686025836159f9565b9150616b7382616b0c565b604082019050919050565b60006020820190508181036000830152616b9781616b5b565b9050919050565b7f42455032303a207472616e7366657220746f20746865207a65726f206164647260008201527f6573730000000000000000000000000000000000000000000000000000000000602082015250565b6000616bfa6023836159f9565b9150616c0582616b9e565b604082019050919050565b60006020820190508181036000830152616c2981616bed565b9050919050565b7f5472616e7366657220616d6f756e74206d75737420626520677265617465722060008201527f7468616e207a65726f0000000000000000000000000000000000000000000000602082015250565b6000616c8c6029836159f9565b9150616c9782616c30565b604082019050919050565b60006020820190508181036000830152616cbb81616c7f565b9050919050565b6000606082019050616cd76000830186615ba1565b616ce46020830185615ba1565b616cf16040830184615ba1565b949350505050565b7f5472616e7366657220616d6f756e74206578636565647320746865206d61785460008201527f78416d6f756e7400000000000000000000000000000000000000000000000000602082015250565b6000616d556027836159f9565b9150616d6082616cf9565b604082019050919050565b60006020820190508181036000830152616d8481616d48565b9050919050565b7f6d61782057616c6c6574206c696d697420657863656564656400000000000000600082015250565b6000616dc16019836159f9565b9150616dcc82616d8b565b602082019050919050565b60006020820190508181036000830152616df081616db4565b9050919050565b7f4e487b7100000000000000000000000000000000000000000000000000000000600052604160045260246000fd5b6000819050919050565b6000616e4b616e46616e4184616e26565b615dd6565b61598b565b9050919050565b616e5b81616e30565b82525050565b600081519050919050565b600082825260208201905092915050565b6000819050602082019050919050565b616e9681615ac0565b82525050565b6000616ea88383616e8d565b60208301905092915050565b6000602082019050919050565b6000616ecc82616e61565b616ed68185616e6c565b9350616ee183616e7d565b8060005b83811015616f12578151616ef98882616e9c565b9750616f0483616eb4565b925050600181019050616ee5565b5085935050505092915050565b600060a082019050616f346000830188615ba1565b616f416020830187616e52565b8181036040830152616f538186616ec1565b9050616f626060830185615cc1565b616f6f6080830184615ba1565b9695505050505050565b7f4661696c65640000000000000000000000000000000000000000000000000000600082015250565b6000616faf6006836159f9565b9150616fba82616f79565b602082019050919050565b60006020820190508181036000830152616fde81616fa2565b9050919050565b7f5375636365737300000000000000000000000000000000000000000000000000600082015250565b600061701b6007836159f9565b915061702682616fe5565b602082019050919050565b6000602082019050818103600083015261704a8161700e565b9050919050565b600060c0820190506170666000830189615cc1565b6170736020830188615ba1565b6170806040830187616e52565b61708d6060830186616e52565b61709a6080830185615cc1565b6170a760a0830184615ba1565b979650505050505050565b6000815190506170c181615995565b92915050565b6000806000606084860312156170e0576170df615986565b5b60006170ee868287016170b2565b93505060206170ff868287016170b2565b9250506040617110868287016170b2565b9150509250925092565b600060408201905061712f6000830185615ba1565b61713c6020830184615ba1565b939250505056fe42455032303a207472616e7366657220616d6f756e74206578636565647320616c6c6f77616e636542455032303a2064656372656173656420616c6c6f77616e63652062656c6f77207a65726fa264697066735822122067cf98aac5592a91145e620dfaa187cc83f71777aba6f7241787f69337907a8e64736f6c63430008130033",
			"opcodes": "PUSH1 0x80 PUSH1 0x40 MSTORE PUSH1 0x12 PUSH1 0xA PUSH3 0x14 SWAP2 SWAP1 PUSH3 0x1027 JUMP JUMPDEST PUSH4 0x3C14DC0 PUSH3 0x25 SWAP2 SWAP1 PUSH3 0x1078 JUMP JUMPDEST PUSH1 0x0 NOT PUSH3 0x34 SWAP2 SWAP1 PUSH3 0x10F2 JUMP JUMPDEST PUSH1 0x0 NOT PUSH3 0x43 SWAP2 SWAP1 PUSH3 0x112A JUMP JUMPDEST PUSH1 0xA SSTORE PUSH2 0x190 PUSH1 0x12 PUSH1 0xA PUSH3 0x59 SWAP2 SWAP1 PUSH3 0x1027 JUMP JUMPDEST PUSH4 0x3C14DC0 PUSH3 0x6A SWAP2 SWAP1 PUSH3 0x1078 JUMP JUMPDEST PUSH3 0x76 SWAP2 SWAP1 PUSH3 0x1165 JUMP JUMPDEST PUSH1 0xC SSTORE PUSH1 0x0 PUSH1 0xD SSTORE PUSH1 0xD SLOAD PUSH1 0xE SSTORE PUSH1 0x3 PUSH1 0xF SSTORE PUSH1 0xF SLOAD PUSH1 0x10 SSTORE PUSH1 0x2 PUSH1 0x11 SSTORE PUSH1 0x11 SLOAD PUSH1 0x12 SSTORE PUSH1 0x3 PUSH1 0x13 SSTORE PUSH20 0xE8EA1B0CC611BDEBEA7EC5403AAB8398FBFEE2A6 PUSH1 0x14 PUSH1 0x0 PUSH2 0x100 EXP DUP2 SLOAD DUP2 PUSH20 0xFFFFFFFFFFFFFFFFFFFFFFFFFFFFFFFFFFFFFFFF MUL NOT AND SWAP1 DUP4 PUSH20 0xFFFFFFFFFFFFFFFFFFFFFFFFFFFFFFFFFFFFFFFF AND MUL OR SWAP1 SSTORE POP PUSH1 0x13 SLOAD PUSH1 0x15 SSTORE PUSH1 0x2 PUSH1 0x16 SSTORE PUSH20 0x9D603BAA5EA0DE6F14BE966DBCBC525FC70E4DB8 PUSH1 0x17 PUSH1 0x0 PUSH2 0x100 EXP DUP2 SLOAD DUP2 PUSH20 0xFFFFFFFFFFFFFFFFFFFFFFFFFFFFFFFFFFFFFFFF MUL NOT AND SWAP1 DUP4 PUSH20 0xFFFFFFFFFFFFFFFFFFFFFFFFFFFFFFFFFFFFFFFF AND MUL OR SWAP1 SSTORE POP PUSH1 0x16 SLOAD PUSH1 0x18 SSTORE PUSH1 0x0 PUSH1 0x1A PUSH1 0x15 PUSH2 0x100 EXP DUP2 SLOAD DUP2 PUSH1 0xFF MUL NOT AND SWAP1 DUP4 ISZERO ISZERO MUL OR SWAP1 SSTORE POP PUSH1 0x12 PUSH1 0xA PUSH3 0x185 SWAP2 SWAP1 PUSH3 0x1027 JUMP JUMPDEST PUSH2 0xC350 PUSH3 0x194 SWAP2 SWAP1 PUSH3 0x1078 JUMP JUMPDEST PUSH1 0x1B SSTORE PUSH1 0x12 PUSH1 0xA PUSH3 0x1A7 SWAP2 SWAP1 PUSH3 0x1027 JUMP JUMPDEST PUSH2 0x2710 PUSH3 0x1B6 SWAP2 SWAP1 PUSH3 0x1078 JUMP JUMPDEST PUSH1 0x1C SSTORE CALLVALUE DUP1 ISZERO PUSH3 0x1C6 JUMPI PUSH1 0x0 DUP1 REVERT JUMPDEST POP PUSH1 0x0 PUSH3 0x1D9 PUSH3 0x941 PUSH1 0x20 SHL PUSH1 0x20 SHR JUMP JUMPDEST SWAP1 POP DUP1 PUSH1 0x0 DUP1 PUSH2 0x100 EXP DUP2 SLOAD DUP2 PUSH20 0xFFFFFFFFFFFFFFFFFFFFFFFFFFFFFFFFFFFFFFFF MUL NOT AND SWAP1 DUP4 PUSH20 0xFFFFFFFFFFFFFFFFFFFFFFFFFFFFFFFFFFFFFFFF AND MUL OR SWAP1 SSTORE POP DUP1 PUSH20 0xFFFFFFFFFFFFFFFFFFFFFFFFFFFFFFFFFFFFFFFF AND PUSH1 0x0 PUSH20 0xFFFFFFFFFFFFFFFFFFFFFFFFFFFFFFFFFFFFFFFF AND PUSH32 0x8BE0079C531659141344CD1FD0A4F28419497F9722A3DAAFE3B4186F6B6457E0 PUSH1 0x40 MLOAD PUSH1 0x40 MLOAD DUP1 SWAP2 SUB SWAP1 LOG3 POP PUSH1 0x1 PUSH1 0x2 DUP2 SWAP1 SSTORE POP PUSH1 0xA SLOAD PUSH1 0x3 PUSH1 0x0 PUSH3 0x296 PUSH3 0x941 PUSH1 0x20 SHL PUSH1 0x20 SHR JUMP JUMPDEST PUSH20 0xFFFFFFFFFFFFFFFFFFFFFFFFFFFFFFFFFFFFFFFF AND PUSH20 0xFFFFFFFFFFFFFFFFFFFFFFFFFFFFFFFFFFFFFFFF AND DUP2 MSTORE PUSH1 0x20 ADD SWAP1 DUP2 MSTORE PUSH1 0x20 ADD PUSH1 0x0 KECCAK256 DUP2 SWAP1 SSTORE POP PUSH1 0x0 PUSH20 0x10ED43C718714EB63D5AA57B78B54704E256024E SWAP1 POP PUSH1 0x0 DUP2 PUSH20 0xFFFFFFFFFFFFFFFFFFFFFFFFFFFFFFFFFFFFFFFF AND PUSH4 0xC45A0155 PUSH1 0x40 MLOAD DUP2 PUSH4 0xFFFFFFFF AND PUSH1 0xE0 SHL DUP2 MSTORE PUSH1 0x4 ADD PUSH1 0x20 PUSH1 0x40 MLOAD DUP1 DUP4 SUB DUP2 DUP7 GAS STATICCALL ISZERO DUP1 ISZERO PUSH3 0x33B JUMPI RETURNDATASIZE PUSH1 0x0 DUP1 RETURNDATACOPY RETURNDATASIZE PUSH1 0x0 REVERT JUMPDEST POP POP POP POP PUSH1 0x40 MLOAD RETURNDATASIZE PUSH1 0x1F NOT PUSH1 0x1F DUP3 ADD AND DUP3 ADD DUP1 PUSH1 0x40 MSTORE POP DUP2 ADD SWAP1 PUSH3 0x361 SWAP2 SWAP1 PUSH3 0x1207 JUMP JUMPDEST PUSH20 0xFFFFFFFFFFFFFFFFFFFFFFFFFFFFFFFFFFFFFFFF AND PUSH4 0xC9C65396 ADDRESS DUP5 PUSH20 0xFFFFFFFFFFFFFFFFFFFFFFFFFFFFFFFFFFFFFFFF AND PUSH4 0xAD5C4648 PUSH1 0x40 MLOAD DUP2 PUSH4 0xFFFFFFFF AND PUSH1 0xE0 SHL DUP2 MSTORE PUSH1 0x4 ADD PUSH1 0x20 PUSH1 0x40 MLOAD DUP1 DUP4 SUB DUP2 DUP7 GAS STATICCALL ISZERO DUP1 ISZERO PUSH3 0x3C9 JUMPI RETURNDATASIZE PUSH1 0x0 DUP1 RETURNDATACOPY RETURNDATASIZE PUSH1 0x0 REVERT JUMPDEST POP POP POP POP PUSH1 0x40 MLOAD RETURNDATASIZE PUSH1 0x1F NOT PUSH1 0x1F DUP3 ADD AND DUP3 ADD DUP1 PUSH1 0x40 MSTORE POP DUP2 ADD SWAP1 PUSH3 0x3EF SWAP2 SWAP1 PUSH3 0x1207 JUMP JUMPDEST PUSH1 0x40 MLOAD DUP4 PUSH4 0xFFFFFFFF AND PUSH1 0xE0 SHL DUP2 MSTORE PUSH1 0x4 ADD PUSH3 0x40E SWAP3 SWAP2 SWAP1 PUSH3 0x124A JUMP JUMPDEST PUSH1 0x20 PUSH1 0x40 MLOAD DUP1 DUP4 SUB DUP2 PUSH1 0x0 DUP8 GAS CALL ISZERO DUP1 ISZERO PUSH3 0x42E JUMPI RETURNDATASIZE PUSH1 0x0 DUP1 RETURNDATACOPY RETURNDATASIZE PUSH1 0x0 REVERT JUMPDEST POP POP POP POP PUSH1 0x40 MLOAD RETURNDATASIZE PUSH1 0x1F NOT PUSH1 0x1F DUP3 ADD AND DUP3 ADD DUP1 PUSH1 0x40 MSTORE POP DUP2 ADD SWAP1 PUSH3 0x454 SWAP2 SWAP1 PUSH3 0x1207 JUMP JUMPDEST SWAP1 POP DUP1 PUSH1 0x1A PUSH1 0x0 PUSH2 0x100 EXP DUP2 SLOAD DUP2 PUSH20 0xFFFFFFFFFFFFFFFFFFFFFFFFFFFFFFFFFFFFFFFF MUL NOT AND SWAP1 DUP4 PUSH20 0xFFFFFFFFFFFFFFFFFFFFFFFFFFFFFFFFFFFFFFFF AND MUL OR SWAP1 SSTORE POP DUP2 PUSH1 0x19 PUSH1 0x0 PUSH2 0x100 EXP DUP2 SLOAD DUP2 PUSH20 0xFFFFFFFFFFFFFFFFFFFFFFFFFFFFFFFFFFFFFFFF MUL NOT AND SWAP1 DUP4 PUSH20 0xFFFFFFFFFFFFFFFFFFFFFFFFFFFFFFFFFFFFFFFF AND MUL OR SWAP1 SSTORE POP PUSH1 0x1 PUSH1 0x6 PUSH1 0x0 PUSH3 0x4EE PUSH3 0x949 PUSH1 0x20 SHL PUSH1 0x20 SHR JUMP JUMPDEST PUSH20 0xFFFFFFFFFFFFFFFFFFFFFFFFFFFFFFFFFFFFFFFF AND PUSH20 0xFFFFFFFFFFFFFFFFFFFFFFFFFFFFFFFFFFFFFFFF AND DUP2 MSTORE PUSH1 0x20 ADD SWAP1 DUP2 MSTORE PUSH1 0x20 ADD PUSH1 0x0 KECCAK256 PUSH1 0x0 PUSH2 0x100 EXP DUP2 SLOAD DUP2 PUSH1 0xFF MUL NOT AND SWAP1 DUP4 ISZERO ISZERO MUL OR SWAP1 SSTORE POP PUSH1 0x1 PUSH1 0x6 PUSH1 0x0 ADDRESS PUSH20 0xFFFFFFFFFFFFFFFFFFFFFFFFFFFFFFFFFFFFFFFF AND PUSH20 0xFFFFFFFFFFFFFFFFFFFFFFFFFFFFFFFFFFFFFFFF AND DUP2 MSTORE PUSH1 0x20 ADD SWAP1 DUP2 MSTORE PUSH1 0x20 ADD PUSH1 0x0 KECCAK256 PUSH1 0x0 PUSH2 0x100 EXP DUP2 SLOAD DUP2 PUSH1 0xFF MUL NOT AND SWAP1 DUP4 ISZERO ISZERO MUL OR SWAP1 SSTORE POP PUSH1 0x12 PUSH1 0xA PUSH3 0x5A7 SWAP2 SWAP1 PUSH3 0x1027 JUMP JUMPDEST PUSH4 0x15EF3C0 PUSH3 0x5B8 SWAP2 SWAP1 PUSH3 0x1078 JUMP JUMPDEST PUSH3 0x5CB PUSH2 0xDEAD PUSH3 0x972 PUSH1 0x20 SHL PUSH1 0x20 SHR JUMP JUMPDEST PUSH1 0x12 PUSH1 0xA PUSH3 0x5DB SWAP2 SWAP1 PUSH3 0x1027 JUMP JUMPDEST PUSH4 0x3C14DC0 PUSH3 0x5EC SWAP2 SWAP1 PUSH3 0x1078 JUMP JUMPDEST PUSH3 0x5F8 SWAP2 SWAP1 PUSH3 0x112A JUMP JUMPDEST GT PUSH3 0x607 JUMPI PUSH1 0x0 PUSH1 0x11 DUP2 SWAP1 SSTORE POP JUMPDEST PUSH1 0x1 PUSH1 0x7 PUSH1 0x0 PUSH3 0x61D PUSH3 0x949 PUSH1 0x20 SHL PUSH1 0x20 SHR JUMP JUMPDEST PUSH20 0xFFFFFFFFFFFFFFFFFFFFFFFFFFFFFFFFFFFFFFFF AND PUSH20 0xFFFFFFFFFFFFFFFFFFFFFFFFFFFFFFFFFFFFFFFF AND DUP2 MSTORE PUSH1 0x20 ADD SWAP1 DUP2 MSTORE PUSH1 0x20 ADD PUSH1 0x0 KECCAK256 PUSH1 0x0 PUSH2 0x100 EXP DUP2 SLOAD DUP2 PUSH1 0xFF MUL NOT AND SWAP1 DUP4 ISZERO ISZERO MUL OR SWAP1 SSTORE POP PUSH1 0x1 PUSH1 0x7 PUSH1 0x0 ADDRESS PUSH20 0xFFFFFFFFFFFFFFFFFFFFFFFFFFFFFFFFFFFFFFFF AND PUSH20 0xFFFFFFFFFFFFFFFFFFFFFFFFFFFFFFFFFFFFFFFF AND DUP2 MSTORE PUSH1 0x20 ADD SWAP1 DUP2 MSTORE PUSH1 0x20 ADD PUSH1 0x0 KECCAK256 PUSH1 0x0 PUSH2 0x100 EXP DUP2 SLOAD DUP2 PUSH1 0xFF MUL NOT AND SWAP1 DUP4 ISZERO ISZERO MUL OR SWAP1 SSTORE POP PUSH1 0x1 PUSH1 0x7 PUSH1 0x0 DUP4 PUSH20 0xFFFFFFFFFFFFFFFFFFFFFFFFFFFFFFFFFFFFFFFF AND PUSH20 0xFFFFFFFFFFFFFFFFFFFFFFFFFFFFFFFFFFFFFFFF AND DUP2 MSTORE PUSH1 0x20 ADD SWAP1 DUP2 MSTORE PUSH1 0x20 ADD PUSH1 0x0 KECCAK256 PUSH1 0x0 PUSH2 0x100 EXP DUP2 SLOAD DUP2 PUSH1 0xFF MUL NOT AND SWAP1 DUP4 ISZERO ISZERO MUL OR SWAP1 SSTORE POP PUSH1 0x1 PUSH1 0x7 PUSH1 0x0 PUSH2 0xDEAD PUSH20 0xFFFFFFFFFFFFFFFFFFFFFFFFFFFFFFFFFFFFFFFF AND PUSH20 0xFFFFFFFFFFFFFFFFFFFFFFFFFFFFFFFFFFFFFFFF AND DUP2 MSTORE PUSH1 0x20 ADD SWAP1 DUP2 MSTORE PUSH1 0x20 ADD PUSH1 0x0 KECCAK256 PUSH1 0x0 PUSH2 0x100 EXP DUP2 SLOAD DUP2 PUSH1 0xFF MUL NOT AND SWAP1 DUP4 ISZERO ISZERO MUL OR SWAP1 SSTORE POP PUSH1 0x1 PUSH1 0x7 PUSH1 0x0 PUSH1 0x17 PUSH1 0x0 SWAP1 SLOAD SWAP1 PUSH2 0x100 EXP SWAP1 DIV PUSH20 0xFFFFFFFFFFFFFFFFFFFFFFFFFFFFFFFFFFFFFFFF AND PUSH20 0xFFFFFFFFFFFFFFFFFFFFFFFFFFFFFFFFFFFFFFFF AND PUSH20 0xFFFFFFFFFFFFFFFFFFFFFFFFFFFFFFFFFFFFFFFF AND DUP2 MSTORE PUSH1 0x20 ADD SWAP1 DUP2 MSTORE PUSH1 0x20 ADD PUSH1 0x0 KECCAK256 PUSH1 0x0 PUSH2 0x100 EXP DUP2 SLOAD DUP2 PUSH1 0xFF MUL NOT AND SWAP1 DUP4 ISZERO ISZERO MUL OR SWAP1 SSTORE POP PUSH1 0x1 PUSH1 0x7 PUSH1 0x0 PUSH1 0x14 PUSH1 0x0 SWAP1 SLOAD SWAP1 PUSH2 0x100 EXP SWAP1 DIV PUSH20 0xFFFFFFFFFFFFFFFFFFFFFFFFFFFFFFFFFFFFFFFF AND PUSH20 0xFFFFFFFFFFFFFFFFFFFFFFFFFFFFFFFFFFFFFFFF AND PUSH20 0xFFFFFFFFFFFFFFFFFFFFFFFFFFFFFFFFFFFFFFFF AND DUP2 MSTORE PUSH1 0x20 ADD SWAP1 DUP2 MSTORE PUSH1 0x20 ADD PUSH1 0x0 KECCAK256 PUSH1 0x0 PUSH2 0x100 EXP DUP2 SLOAD DUP2 PUSH1 0xFF MUL NOT AND SWAP1 DUP4 ISZERO ISZERO MUL OR SWAP1 SSTORE POP PUSH2 0x190 PUSH1 0x12 PUSH1 0xA PUSH3 0x87F SWAP2 SWAP1 PUSH3 0x1027 JUMP JUMPDEST PUSH4 0x3C14DC0 PUSH3 0x890 SWAP2 SWAP1 PUSH3 0x1078 JUMP JUMPDEST PUSH3 0x89C SWAP2 SWAP1 PUSH3 0x1165 JUMP JUMPDEST PUSH1 0xC DUP2 SWAP1 SSTORE POP PUSH3 0x8B2 PUSH3 0x941 PUSH1 0x20 SHL PUSH1 0x20 SHR JUMP JUMPDEST PUSH20 0xFFFFFFFFFFFFFFFFFFFFFFFFFFFFFFFFFFFFFFFF AND PUSH1 0x0 PUSH20 0xFFFFFFFFFFFFFFFFFFFFFFFFFFFFFFFFFFFFFFFF AND PUSH32 0xDDF252AD1BE2C89B69C2B068FC378DAA952BA7F163C4A11628F55A4DF523B3EF PUSH1 0x12 PUSH1 0xA PUSH3 0x911 SWAP2 SWAP1 PUSH3 0x1027 JUMP JUMPDEST PUSH4 0x3C14DC0 PUSH3 0x922 SWAP2 SWAP1 PUSH3 0x1078 JUMP JUMPDEST PUSH1 0x40 MLOAD PUSH3 0x931 SWAP2 SWAP1 PUSH3 0x1288 JUMP JUMPDEST PUSH1 0x40 MLOAD DUP1 SWAP2 SUB SWAP1 LOG3 POP POP PUSH3 0x13CA JUMP JUMPDEST PUSH1 0x0 CALLER SWAP1 POP SWAP1 JUMP JUMPDEST PUSH1 0x0 DUP1 PUSH1 0x0 SWAP1 SLOAD SWAP1 PUSH2 0x100 EXP SWAP1 DIV PUSH20 0xFFFFFFFFFFFFFFFFFFFFFFFFFFFFFFFFFFFFFFFF AND SWAP1 POP SWAP1 JUMP JUMPDEST PUSH1 0x0 PUSH1 0x8 PUSH1 0x0 DUP4 PUSH20 0xFFFFFFFFFFFFFFFFFFFFFFFFFFFFFFFFFFFFFFFF AND PUSH20 0xFFFFFFFFFFFFFFFFFFFFFFFFFFFFFFFFFFFFFFFF AND DUP2 MSTORE PUSH1 0x20 ADD SWAP1 DUP2 MSTORE PUSH1 0x20 ADD PUSH1 0x0 KECCAK256 PUSH1 0x0 SWAP1 SLOAD SWAP1 PUSH2 0x100 EXP SWAP1 DIV PUSH1 0xFF AND ISZERO PUSH3 0xA0F JUMPI PUSH1 0x4 PUSH1 0x0 DUP4 PUSH20 0xFFFFFFFFFFFFFFFFFFFFFFFFFFFFFFFFFFFFFFFF AND PUSH20 0xFFFFFFFFFFFFFFFFFFFFFFFFFFFFFFFFFFFFFFFF AND DUP2 MSTORE PUSH1 0x20 ADD SWAP1 DUP2 MSTORE PUSH1 0x20 ADD PUSH1 0x0 KECCAK256 SLOAD SWAP1 POP PUSH3 0xA62 JUMP JUMPDEST PUSH3 0xA5F PUSH1 0x3 PUSH1 0x0 DUP5 PUSH20 0xFFFFFFFFFFFFFFFFFFFFFFFFFFFFFFFFFFFFFFFF AND PUSH20 0xFFFFFFFFFFFFFFFFFFFFFFFFFFFFFFFFFFFFFFFF AND DUP2 MSTORE PUSH1 0x20 ADD SWAP1 DUP2 MSTORE PUSH1 0x20 ADD PUSH1 0x0 KECCAK256 SLOAD PUSH3 0xA67 PUSH1 0x20 SHL PUSH1 0x20 SHR JUMP JUMPDEST SWAP1 POP JUMPDEST SWAP2 SWAP1 POP JUMP JUMPDEST PUSH1 0x0 PUSH1 0xA SLOAD DUP3 GT ISZERO PUSH3 0xAB1 JUMPI PUSH1 0x40 MLOAD PUSH32 0x8C379A000000000000000000000000000000000000000000000000000000000 DUP2 MSTORE PUSH1 0x4 ADD PUSH3 0xAA8 SWAP1 PUSH3 0x132C JUMP JUMPDEST PUSH1 0x40 MLOAD DUP1 SWAP2 SUB SWAP1 REVERT JUMPDEST PUSH1 0x0 PUSH3 0xAC3 PUSH3 0xAE2 PUSH1 0x20 SHL PUSH1 0x20 SHR JUMP JUMPDEST SWAP1 POP PUSH3 0xADA DUP2 DUP5 PUSH3 0xB17 PUSH1 0x20 SHL SWAP1 SWAP2 SWAP1 PUSH1 0x20 SHR JUMP JUMPDEST SWAP2 POP POP SWAP2 SWAP1 POP JUMP JUMPDEST PUSH1 0x0 DUP1 PUSH1 0x0 PUSH3 0xAF7 PUSH3 0xB2F PUSH1 0x20 SHL PUSH1 0x20 SHR JUMP JUMPDEST SWAP2 POP SWAP2 POP PUSH3 0xB10 DUP2 DUP4 PUSH3 0xB17 PUSH1 0x20 SHL SWAP1 SWAP2 SWAP1 PUSH1 0x20 SHR JUMP JUMPDEST SWAP3 POP POP POP SWAP1 JUMP JUMPDEST PUSH1 0x0 DUP2 DUP4 PUSH3 0xB27 SWAP2 SWAP1 PUSH3 0x1165 JUMP JUMPDEST SWAP1 POP SWAP3 SWAP2 POP POP JUMP JUMPDEST PUSH1 0x0 DUP1 PUSH1 0x0 PUSH1 0xA SLOAD SWAP1 POP PUSH1 0x0 PUSH1 0x12 PUSH1 0xA PUSH3 0xB4B SWAP2 SWAP1 PUSH3 0x1027 JUMP JUMPDEST PUSH4 0x3C14DC0 PUSH3 0xB5C SWAP2 SWAP1 PUSH3 0x1078 JUMP JUMPDEST SWAP1 POP PUSH1 0x0 JUMPDEST PUSH1 0x9 DUP1 SLOAD SWAP1 POP DUP2 LT ISZERO PUSH3 0xDF8 JUMPI DUP3 PUSH1 0x3 PUSH1 0x0 PUSH1 0x9 DUP5 DUP2 SLOAD DUP2 LT PUSH3 0xB8B JUMPI PUSH3 0xB8A PUSH3 0x134E JUMP JUMPDEST JUMPDEST SWAP1 PUSH1 0x0 MSTORE PUSH1 0x20 PUSH1 0x0 KECCAK256 ADD PUSH1 0x0 SWAP1 SLOAD SWAP1 PUSH2 0x100 EXP SWAP1 DIV PUSH20 0xFFFFFFFFFFFFFFFFFFFFFFFFFFFFFFFFFFFFFFFF AND PUSH20 0xFFFFFFFFFFFFFFFFFFFFFFFFFFFFFFFFFFFFFFFF AND PUSH20 0xFFFFFFFFFFFFFFFFFFFFFFFFFFFFFFFFFFFFFFFF AND DUP2 MSTORE PUSH1 0x20 ADD SWAP1 DUP2 MSTORE PUSH1 0x20 ADD PUSH1 0x0 KECCAK256 SLOAD GT DUP1 PUSH3 0xC7D JUMPI POP DUP2 PUSH1 0x4 PUSH1 0x0 PUSH1 0x9 DUP5 DUP2 SLOAD DUP2 LT PUSH3 0xC15 JUMPI PUSH3 0xC14 PUSH3 0x134E JUMP JUMPDEST JUMPDEST SWAP1 PUSH1 0x0 MSTORE PUSH1 0x20 PUSH1 0x0 KECCAK256 ADD PUSH1 0x0 SWAP1 SLOAD SWAP1 PUSH2 0x100 EXP SWAP1 DIV PUSH20 0xFFFFFFFFFFFFFFFFFFFFFFFFFFFFFFFFFFFFFFFF AND PUSH20 0xFFFFFFFFFFFFFFFFFFFFFFFFFFFFFFFFFFFFFFFF AND PUSH20 0xFFFFFFFFFFFFFFFFFFFFFFFFFFFFFFFFFFFFFFFF AND DUP2 MSTORE PUSH1 0x20 ADD SWAP1 DUP2 MSTORE PUSH1 0x20 ADD PUSH1 0x0 KECCAK256 SLOAD GT JUMPDEST ISZERO PUSH3 0xCB4 JUMPI PUSH1 0xA SLOAD PUSH1 0x12 PUSH1 0xA PUSH3 0xC96 SWAP2 SWAP1 PUSH3 0x1027 JUMP JUMPDEST PUSH4 0x3C14DC0 PUSH3 0xCA7 SWAP2 SWAP1 PUSH3 0x1078 JUMP JUMPDEST SWAP5 POP SWAP5 POP POP POP POP PUSH3 0xE71 JUMP JUMPDEST PUSH3 0xD49 PUSH1 0x3 PUSH1 0x0 PUSH1 0x9 DUP5 DUP2 SLOAD DUP2 LT PUSH3 0xCD3 JUMPI PUSH3 0xCD2 PUSH3 0x134E JUMP JUMPDEST JUMPDEST SWAP1 PUSH1 0x0 MSTORE PUSH1 0x20 PUSH1 0x0 KECCAK256 ADD PUSH1 0x0 SWAP1 SLOAD SWAP1 PUSH2 0x100 EXP SWAP1 DIV PUSH20 0xFFFFFFFFFFFFFFFFFFFFFFFFFFFFFFFFFFFFFFFF AND PUSH20 0xFFFFFFFFFFFFFFFFFFFFFFFFFFFFFFFFFFFFFFFF AND PUSH20 0xFFFFFFFFFFFFFFFFFFFFFFFFFFFFFFFFFFFFFFFF AND DUP2 MSTORE PUSH1 0x20 ADD SWAP1 DUP2 MSTORE PUSH1 0x20 ADD PUSH1 0x0 KECCAK256 SLOAD DUP5 PUSH3 0xE75 PUSH1 0x20 SHL SWAP1 SWAP2 SWAP1 PUSH1 0x20 SHR JUMP JUMPDEST SWAP3 POP PUSH3 0xDE0 PUSH1 0x4 PUSH1 0x0 PUSH1 0x9 DUP5 DUP2 SLOAD DUP2 LT PUSH3 0xD6A JUMPI PUSH3 0xD69 PUSH3 0x134E JUMP JUMPDEST JUMPDEST SWAP1 PUSH1 0x0 MSTORE PUSH1 0x20 PUSH1 0x0 KECCAK256 ADD PUSH1 0x0 SWAP1 SLOAD SWAP1 PUSH2 0x100 EXP SWAP1 DIV PUSH20 0xFFFFFFFFFFFFFFFFFFFFFFFFFFFFFFFFFFFFFFFF AND PUSH20 0xFFFFFFFFFFFFFFFFFFFFFFFFFFFFFFFFFFFFFFFF AND PUSH20 0xFFFFFFFFFFFFFFFFFFFFFFFFFFFFFFFFFFFFFFFF AND DUP2 MSTORE PUSH1 0x20 ADD SWAP1 DUP2 MSTORE PUSH1 0x20 ADD PUSH1 0x0 KECCAK256 SLOAD DUP4 PUSH3 0xE75 PUSH1 0x20 SHL SWAP1 SWAP2 SWAP1 PUSH1 0x20 SHR JUMP JUMPDEST SWAP2 POP DUP1 DUP1 PUSH3 0xDEF SWAP1 PUSH3 0x137D JUMP JUMPDEST SWAP2 POP POP PUSH3 0xB61 JUMP JUMPDEST POP PUSH3 0xE30 PUSH1 0x12 PUSH1 0xA PUSH3 0xE0D SWAP2 SWAP1 PUSH3 0x1027 JUMP JUMPDEST PUSH4 0x3C14DC0 PUSH3 0xE1E SWAP2 SWAP1 PUSH3 0x1078 JUMP JUMPDEST PUSH1 0xA SLOAD PUSH3 0xB17 PUSH1 0x20 SHL SWAP1 SWAP2 SWAP1 PUSH1 0x20 SHR JUMP JUMPDEST DUP3 LT ISZERO PUSH3 0xE68 JUMPI PUSH1 0xA SLOAD PUSH1 0x12 PUSH1 0xA PUSH3 0xE4B SWAP2 SWAP1 PUSH3 0x1027 JUMP JUMPDEST PUSH4 0x3C14DC0 PUSH3 0xE5C SWAP2 SWAP1 PUSH3 0x1078 JUMP JUMPDEST SWAP4 POP SWAP4 POP POP POP PUSH3 0xE71 JUMP JUMPDEST DUP2 DUP2 SWAP4 POP SWAP4 POP POP POP JUMPDEST SWAP1 SWAP2 JUMP JUMPDEST PUSH1 0x0 DUP2 DUP4 PUSH3 0xE85 SWAP2 SWAP1 PUSH3 0x112A JUMP JUMPDEST SWAP1 POP SWAP3 SWAP2 POP POP JUMP JUMPDEST PUSH32 0x4E487B7100000000000000000000000000000000000000000000000000000000 PUSH1 0x0 MSTORE PUSH1 0x11 PUSH1 0x4 MSTORE PUSH1 0x24 PUSH1 0x0 REVERT JUMPDEST PUSH1 0x0 DUP2 PUSH1 0x1 SHR SWAP1 POP SWAP2 SWAP1 POP JUMP JUMPDEST PUSH1 0x0 DUP1 DUP3 SWAP2 POP DUP4 SWAP1 POP JUMPDEST PUSH1 0x1 DUP6 GT ISZERO PUSH3 0xF1B JUMPI DUP1 DUP7 DIV DUP2 GT ISZERO PUSH3 0xEF3 JUMPI PUSH3 0xEF2 PUSH3 0xE8D JUMP JUMPDEST JUMPDEST PUSH1 0x1 DUP6 AND ISZERO PUSH3 0xF03 JUMPI DUP1 DUP3 MUL SWAP2 POP JUMPDEST DUP1 DUP2 MUL SWAP1 POP PUSH3 0xF13 DUP6 PUSH3 0xEBC JUMP JUMPDEST SWAP5 POP PUSH3 0xED3 JUMP JUMPDEST SWAP5 POP SWAP5 SWAP3 POP POP POP JUMP JUMPDEST PUSH1 0x0 DUP3 PUSH3 0xF36 JUMPI PUSH1 0x1 SWAP1 POP PUSH3 0x1009 JUMP JUMPDEST DUP2 PUSH3 0xF46 JUMPI PUSH1 0x0 SWAP1 POP PUSH3 0x1009 JUMP JUMPDEST DUP2 PUSH1 0x1 DUP2 EQ PUSH3 0xF5F JUMPI PUSH1 0x2 DUP2 EQ PUSH3 0xF6A JUMPI PUSH3 0xFA0 JUMP JUMPDEST PUSH1 0x1 SWAP2 POP POP PUSH3 0x1009 JUMP JUMPDEST PUSH1 0xFF DUP5 GT ISZERO PUSH3 0xF7F JUMPI PUSH3 0xF7E PUSH3 0xE8D JUMP JUMPDEST JUMPDEST DUP4 PUSH1 0x2 EXP SWAP2 POP DUP5 DUP3 GT ISZERO PUSH3 0xF99 JUMPI PUSH3 0xF98 PUSH3 0xE8D JUMP JUMPDEST JUMPDEST POP PUSH3 0x1009 JUMP JUMPDEST POP PUSH1 0x20 DUP4 LT PUSH2 0x133 DUP4 LT AND PUSH1 0x4E DUP5 LT PUSH1 0xB DUP5 LT AND OR ISZERO PUSH3 0xFDA JUMPI DUP3 DUP3 EXP SWAP1 POP DUP4 DUP2 GT ISZERO PUSH3 0xFD4 JUMPI PUSH3 0xFD3 PUSH3 0xE8D JUMP JUMPDEST JUMPDEST PUSH3 0x1009 JUMP JUMPDEST PUSH3 0xFE9 DUP5 DUP5 DUP5 PUSH1 0x1 PUSH3 0xEC9 JUMP JUMPDEST SWAP3 POP SWAP1 POP DUP2 DUP5 DIV DUP2 GT ISZERO PUSH3 0x1003 JUMPI PUSH3 0x1002 PUSH3 0xE8D JUMP JUMPDEST JUMPDEST DUP2 DUP2 MUL SWAP1 POP JUMPDEST SWAP4 SWAP3 POP POP POP JUMP JUMPDEST PUSH1 0x0 DUP2 SWAP1 POP SWAP2 SWAP1 POP JUMP JUMPDEST PUSH1 0x0 PUSH1 0xFF DUP3 AND SWAP1 POP SWAP2 SWAP1 POP JUMP JUMPDEST PUSH1 0x0 PUSH3 0x1034 DUP3 PUSH3 0x1010 JUMP JUMPDEST SWAP2 POP PUSH3 0x1041 DUP4 PUSH3 0x101A JUMP JUMPDEST SWAP3 POP PUSH3 0x1070 PUSH32 0xFFFFFFFFFFFFFFFFFFFFFFFFFFFFFFFFFFFFFFFFFFFFFFFFFFFFFFFFFFFFFFFF DUP5 DUP5 PUSH3 0xF24 JUMP JUMPDEST SWAP1 POP SWAP3 SWAP2 POP POP JUMP JUMPDEST PUSH1 0x0 PUSH3 0x1085 DUP3 PUSH3 0x1010 JUMP JUMPDEST SWAP2 POP PUSH3 0x1092 DUP4 PUSH3 0x1010 JUMP JUMPDEST SWAP3 POP DUP3 DUP3 MUL PUSH3 0x10A2 DUP2 PUSH3 0x1010 JUMP JUMPDEST SWAP2 POP DUP3 DUP3 DIV DUP5 EQ DUP4 ISZERO OR PUSH3 0x10BC JUMPI PUSH3 0x10BB PUSH3 0xE8D JUMP JUMPDEST JUMPDEST POP SWAP3 SWAP2 POP POP JUMP JUMPDEST PUSH32 0x4E487B7100000000000000000000000000000000000000000000000000000000 PUSH1 0x0 MSTORE PUSH1 0x12 PUSH1 0x4 MSTORE PUSH1 0x24 PUSH1 0x0 REVERT JUMPDEST PUSH1 0x0 PUSH3 0x10FF DUP3 PUSH3 0x1010 JUMP JUMPDEST SWAP2 POP PUSH3 0x110C DUP4 PUSH3 0x1010 JUMP JUMPDEST SWAP3 POP DUP3 PUSH3 0x111F JUMPI PUSH3 0x111E PUSH3 0x10C3 JUMP JUMPDEST JUMPDEST DUP3 DUP3 MOD SWAP1 POP SWAP3 SWAP2 POP POP JUMP JUMPDEST PUSH1 0x0 PUSH3 0x1137 DUP3 PUSH3 0x1010 JUMP JUMPDEST SWAP2 POP PUSH3 0x1144 DUP4 PUSH3 0x1010 JUMP JUMPDEST SWAP3 POP DUP3 DUP3 SUB SWAP1 POP DUP2 DUP2 GT ISZERO PUSH3 0x115F JUMPI PUSH3 0x115E PUSH3 0xE8D JUMP JUMPDEST JUMPDEST SWAP3 SWAP2 POP POP JUMP JUMPDEST PUSH1 0x0 PUSH3 0x1172 DUP3 PUSH3 0x1010 JUMP JUMPDEST SWAP2 POP PUSH3 0x117F DUP4 PUSH3 0x1010 JUMP JUMPDEST SWAP3 POP DUP3 PUSH3 0x1192 JUMPI PUSH3 0x1191 PUSH3 0x10C3 JUMP JUMPDEST JUMPDEST DUP3 DUP3 DIV SWAP1 POP SWAP3 SWAP2 POP POP JUMP JUMPDEST PUSH1 0x0 DUP1 REVERT JUMPDEST PUSH1 0x0 PUSH20 0xFFFFFFFFFFFFFFFFFFFFFFFFFFFFFFFFFFFFFFFF DUP3 AND SWAP1 POP SWAP2 SWAP1 POP JUMP JUMPDEST PUSH1 0x0 PUSH3 0x11CF DUP3 PUSH3 0x11A2 JUMP JUMPDEST SWAP1 POP SWAP2 SWAP1 POP JUMP JUMPDEST PUSH3 0x11E1 DUP2 PUSH3 0x11C2 JUMP JUMPDEST DUP2 EQ PUSH3 0x11ED JUMPI PUSH1 0x0 DUP1 REVERT JUMPDEST POP JUMP JUMPDEST PUSH1 0x0 DUP2 MLOAD SWAP1 POP PUSH3 0x1201 DUP2 PUSH3 0x11D6 JUMP JUMPDEST SWAP3 SWAP2 POP POP JUMP JUMPDEST PUSH1 0x0 PUSH1 0x20 DUP3 DUP5 SUB SLT ISZERO PUSH3 0x1220 JUMPI PUSH3 0x121F PUSH3 0x119D JUMP JUMPDEST JUMPDEST PUSH1 0x0 PUSH3 0x1230 DUP5 DUP3 DUP6 ADD PUSH3 0x11F0 JUMP JUMPDEST SWAP2 POP POP SWAP3 SWAP2 POP POP JUMP JUMPDEST PUSH3 0x1244 DUP2 PUSH3 0x11C2 JUMP JUMPDEST DUP3 MSTORE POP POP JUMP JUMPDEST PUSH1 0x0 PUSH1 0x40 DUP3 ADD SWAP1 POP PUSH3 0x1261 PUSH1 0x0 DUP4 ADD DUP6 PUSH3 0x1239 JUMP JUMPDEST PUSH3 0x1270 PUSH1 0x20 DUP4 ADD DUP5 PUSH3 0x1239 JUMP JUMPDEST SWAP4 SWAP3 POP POP POP JUMP JUMPDEST PUSH3 0x1282 DUP2 PUSH3 0x1010 JUMP JUMPDEST DUP3 MSTORE POP POP JUMP JUMPDEST PUSH1 0x0 PUSH1 0x20 DUP3 ADD SWAP1 POP PUSH3 0x129F PUSH1 0x0 DUP4 ADD DUP5 PUSH3 0x1277 JUMP JUMPDEST SWAP3 SWAP2 POP POP JUMP JUMPDEST PUSH1 0x0 DUP3 DUP3 MSTORE PUSH1 0x20 DUP3 ADD SWAP1 POP SWAP3 SWAP2 POP POP JUMP JUMPDEST PUSH32 0x416D6F756E74206D757374206265206C657373207468616E20746F74616C2072 PUSH1 0x0 DUP3 ADD MSTORE PUSH32 0x65666C656374696F6E7300000000000000000000000000000000000000000000 PUSH1 0x20 DUP3 ADD MSTORE POP JUMP JUMPDEST PUSH1 0x0 PUSH3 0x1314 PUSH1 0x2A DUP4 PUSH3 0x12A5 JUMP JUMPDEST SWAP2 POP PUSH3 0x1321 DUP3 PUSH3 0x12B6 JUMP JUMPDEST PUSH1 0x40 DUP3 ADD SWAP1 POP SWAP2 SWAP1 POP JUMP JUMPDEST PUSH1 0x0 PUSH1 0x20 DUP3 ADD SWAP1 POP DUP2 DUP2 SUB PUSH1 0x0 DUP4 ADD MSTORE PUSH3 0x1347 DUP2 PUSH3 0x1305 JUMP JUMPDEST SWAP1 POP SWAP2 SWAP1 POP JUMP JUMPDEST PUSH32 0x4E487B7100000000000000000000000000000000000000000000000000000000 PUSH1 0x0 MSTORE PUSH1 0x32 PUSH1 0x4 MSTORE PUSH1 0x24 PUSH1 0x0 REVERT JUMPDEST PUSH1 0x0 PUSH3 0x138A DUP3 PUSH3 0x1010 JUMP JUMPDEST SWAP2 POP PUSH32 0xFFFFFFFFFFFFFFFFFFFFFFFFFFFFFFFFFFFFFFFFFFFFFFFFFFFFFFFFFFFFFFFF DUP3 SUB PUSH3 0x13BF JUMPI PUSH3 0x13BE PUSH3 0xE8D JUMP JUMPDEST JUMPDEST PUSH1 0x1 DUP3 ADD SWAP1 POP SWAP2 SWAP1 POP JUMP JUMPDEST PUSH2 0x71C6 DUP1 PUSH3 0x13DA PUSH1 0x0 CODECOPY PUSH1 0x0 RETURN INVALID PUSH1 0x80 PUSH1 0x40 MSTORE PUSH1 0x4 CALLDATASIZE LT PUSH2 0x390 JUMPI PUSH1 0x0 CALLDATALOAD PUSH1 0xE0 SHR DUP1 PUSH4 0x715018A6 GT PUSH2 0x1DC JUMPI DUP1 PUSH4 0xC49B9A80 GT PUSH2 0x102 JUMPI DUP1 PUSH4 0xDD62ED3E GT PUSH2 0xA0 JUMPI DUP1 PUSH4 0xF0F165AF GT PUSH2 0x6F JUMPI DUP1 PUSH4 0xF0F165AF EQ PUSH2 0xD51 JUMPI DUP1 PUSH4 0xF2FDE38B EQ PUSH2 0xD7A JUMPI DUP1 PUSH4 0xFCCC2813 EQ PUSH2 0xDA3 JUMPI DUP1 PUSH4 0xFFC78635 EQ PUSH2 0xDCE JUMPI PUSH2 0x397 JUMP JUMPDEST DUP1 PUSH4 0xDD62ED3E EQ PUSH2 0xC97 JUMPI DUP1 PUSH4 0xE5DFFED3 EQ PUSH2 0xCD4 JUMPI DUP1 PUSH4 0xEA2F0B37 EQ PUSH2 0xCFF JUMPI DUP1 PUSH4 0xEC28438A EQ PUSH2 0xD28 JUMPI PUSH2 0x397 JUMP JUMPDEST DUP1 PUSH4 0xD12A7688 GT PUSH2 0xDC JUMPI DUP1 PUSH4 0xD12A7688 EQ PUSH2 0xBEB JUMPI DUP1 PUSH4 0xD1475185 EQ PUSH2 0xC16 JUMPI DUP1 PUSH4 0xD5EECA4D EQ PUSH2 0xC41 JUMPI DUP1 PUSH4 0xD89135CD EQ PUSH2 0xC6C JUMPI PUSH2 0x397 JUMP JUMPDEST DUP1 PUSH4 0xC49B9A80 EQ PUSH2 0xB70 JUMPI DUP1 PUSH4 0xC53B42BA EQ PUSH2 0xB99 JUMPI DUP1 PUSH4 0xCEA26958 EQ PUSH2 0xBC2 JUMPI PUSH2 0x397 JUMP JUMPDEST DUP1 PUSH4 0x9358928B GT PUSH2 0x17A JUMPI DUP1 PUSH4 0xA9059CBB GT PUSH2 0x149 JUMPI DUP1 PUSH4 0xA9059CBB EQ PUSH2 0xAB4 JUMPI DUP1 PUSH4 0xAF41063B EQ PUSH2 0xAF1 JUMPI DUP1 PUSH4 0xC04A5414 EQ PUSH2 0xB1A JUMPI DUP1 PUSH4 0xC0B0FDA2 EQ PUSH2 0xB45 JUMPI PUSH2 0x397 JUMP JUMPDEST DUP1 PUSH4 0x9358928B EQ PUSH2 0xA0A JUMPI DUP1 PUSH4 0x95D89B41 EQ PUSH2 0xA35 JUMPI DUP1 PUSH4 0xA457C2D7 EQ PUSH2 0xA60 JUMPI DUP1 PUSH4 0xA51C3695 EQ PUSH2 0xA9D JUMPI PUSH2 0x397 JUMP JUMPDEST DUP1 PUSH4 0x7D1DB4A5 GT PUSH2 0x1B6 JUMPI DUP1 PUSH4 0x7D1DB4A5 EQ PUSH2 0x94E JUMPI DUP1 PUSH4 0x88F82020 EQ PUSH2 0x979 JUMPI DUP1 PUSH4 0x8DA5CB5B EQ PUSH2 0x9B6 JUMPI DUP1 PUSH4 0x8EE88C53 EQ PUSH2 0x9E1 JUMPI PUSH2 0x397 JUMP JUMPDEST DUP1 PUSH4 0x715018A6 EQ PUSH2 0x8F5 JUMPI DUP1 PUSH4 0x741AF87F EQ PUSH2 0x90C JUMPI DUP1 PUSH4 0x7B208769 EQ PUSH2 0x923 JUMPI PUSH2 0x397 JUMP JUMPDEST DUP1 PUSH4 0x40F8007A GT PUSH2 0x2C1 JUMPI DUP1 PUSH4 0x52390C02 GT PUSH2 0x25F JUMPI DUP1 PUSH4 0x5D0044CA GT PUSH2 0x22E JUMPI DUP1 PUSH4 0x5D0044CA EQ PUSH2 0x827 JUMPI DUP1 PUSH4 0x6BC87C3A EQ PUSH2 0x850 JUMPI DUP1 PUSH4 0x6DD3D39F EQ PUSH2 0x87B JUMPI DUP1 PUSH4 0x70A08231 EQ PUSH2 0x8B8 JUMPI PUSH2 0x397 JUMP JUMPDEST DUP1 PUSH4 0x52390C02 EQ PUSH2 0x76D JUMPI DUP1 PUSH4 0x52892884 EQ PUSH2 0x796 JUMPI DUP1 PUSH4 0x5342ACB4 EQ PUSH2 0x7C1 JUMPI DUP1 PUSH4 0x5B700D91 EQ PUSH2 0x7FE JUMPI PUSH2 0x397 JUMP JUMPDEST DUP1 PUSH4 0x4549B039 GT PUSH2 0x29B JUMPI DUP1 PUSH4 0x4549B039 EQ PUSH2 0x6B1 JUMPI DUP1 PUSH4 0x4680FF35 EQ PUSH2 0x6EE JUMPI DUP1 PUSH4 0x4A74BB02 EQ PUSH2 0x717 JUMPI DUP1 PUSH4 0x5122C409 EQ PUSH2 0x742 JUMPI PUSH2 0x397 JUMP JUMPDEST DUP1 PUSH4 0x40F8007A EQ PUSH2 0x634 JUMPI DUP1 PUSH4 0x41CB87FC EQ PUSH2 0x65F JUMPI DUP1 PUSH4 0x437823EC EQ PUSH2 0x688 JUMPI PUSH2 0x397 JUMP JUMPDEST DUP1 PUSH4 0x2D838119 GT PUSH2 0x32E JUMPI DUP1 PUSH4 0x3685D419 GT PUSH2 0x308 JUMPI DUP1 PUSH4 0x3685D419 EQ PUSH2 0x57A JUMPI DUP1 PUSH4 0x39509351 EQ PUSH2 0x5A3 JUMPI DUP1 PUSH4 0x3B124FE7 EQ PUSH2 0x5E0 JUMPI DUP1 PUSH4 0x3F33E909 EQ PUSH2 0x60B JUMPI PUSH2 0x397 JUMP JUMPDEST DUP1 PUSH4 0x2D838119 EQ PUSH2 0x4E9 JUMPI DUP1 PUSH4 0x30563BD7 EQ PUSH2 0x526 JUMPI DUP1 PUSH4 0x313CE567 EQ PUSH2 0x54F JUMPI PUSH2 0x397 JUMP JUMPDEST DUP1 PUSH4 0xB88FAA6 GT PUSH2 0x36A JUMPI DUP1 PUSH4 0xB88FAA6 EQ PUSH2 0x42D JUMPI DUP1 PUSH4 0x13114A9D EQ PUSH2 0x456 JUMPI DUP1 PUSH4 0x18160DDD EQ PUSH2 0x481 JUMPI DUP1 PUSH4 0x23B872DD EQ PUSH2 0x4AC JUMPI PUSH2 0x397 JUMP JUMPDEST DUP1 PUSH4 0x61C82D0 EQ PUSH2 0x39C JUMPI DUP1 PUSH4 0x6FDDE03 EQ PUSH2 0x3C5 JUMPI DUP1 PUSH4 0x95EA7B3 EQ PUSH2 0x3F0 JUMPI PUSH2 0x397 JUMP JUMPDEST CALLDATASIZE PUSH2 0x397 JUMPI STOP JUMPDEST PUSH1 0x0 DUP1 REVERT JUMPDEST CALLVALUE DUP1 ISZERO PUSH2 0x3A8 JUMPI PUSH1 0x0 DUP1 REVERT JUMPDEST POP PUSH2 0x3C3 PUSH1 0x4 DUP1 CALLDATASIZE SUB DUP2 ADD SWAP1 PUSH2 0x3BE SWAP2 SWAP1 PUSH2 0x59C1 JUMP JUMPDEST PUSH2 0xDE5 JUMP JUMPDEST STOP JUMPDEST CALLVALUE DUP1 ISZERO PUSH2 0x3D1 JUMPI PUSH1 0x0 DUP1 REVERT JUMPDEST POP PUSH2 0x3DA PUSH2 0xE84 JUMP JUMPDEST PUSH1 0x40 MLOAD PUSH2 0x3E7 SWAP2 SWAP1 PUSH2 0x5A7E JUMP JUMPDEST PUSH1 0x40 MLOAD DUP1 SWAP2 SUB SWAP1 RETURN JUMPDEST CALLVALUE DUP1 ISZERO PUSH2 0x3FC JUMPI PUSH1 0x0 DUP1 REVERT JUMPDEST POP PUSH2 0x417 PUSH1 0x4 DUP1 CALLDATASIZE SUB DUP2 ADD SWAP1 PUSH2 0x412 SWAP2 SWAP1 PUSH2 0x5AFE JUMP JUMPDEST PUSH2 0xEC1 JUMP JUMPDEST PUSH1 0x40 MLOAD PUSH2 0x424 SWAP2 SWAP1 PUSH2 0x5B59 JUMP JUMPDEST PUSH1 0x40 MLOAD DUP1 SWAP2 SUB SWAP1 RETURN JUMPDEST CALLVALUE DUP1 ISZERO PUSH2 0x439 JUMPI PUSH1 0x0 DUP1 REVERT JUMPDEST POP PUSH2 0x454 PUSH1 0x4 DUP1 CALLDATASIZE SUB DUP2 ADD SWAP1 PUSH2 0x44F SWAP2 SWAP1 PUSH2 0x5B74 JUMP JUMPDEST PUSH2 0xEDF JUMP JUMPDEST STOP JUMPDEST CALLVALUE DUP1 ISZERO PUSH2 0x462 JUMPI PUSH1 0x0 DUP1 REVERT JUMPDEST POP PUSH2 0x46B PUSH2 0x1027 JUMP JUMPDEST PUSH1 0x40 MLOAD PUSH2 0x478 SWAP2 SWAP1 PUSH2 0x5BB0 JUMP JUMPDEST PUSH1 0x40 MLOAD DUP1 SWAP2 SUB SWAP1 RETURN JUMPDEST CALLVALUE DUP1 ISZERO PUSH2 0x48D JUMPI PUSH1 0x0 DUP1 REVERT JUMPDEST POP PUSH2 0x496 PUSH2 0x1031 JUMP JUMPDEST PUSH1 0x40 MLOAD PUSH2 0x4A3 SWAP2 SWAP1 PUSH2 0x5BB0 JUMP JUMPDEST PUSH1 0x40 MLOAD DUP1 SWAP2 SUB SWAP1 RETURN JUMPDEST CALLVALUE DUP1 ISZERO PUSH2 0x4B8 JUMPI PUSH1 0x0 DUP1 REVERT JUMPDEST POP PUSH2 0x4D3 PUSH1 0x4 DUP1 CALLDATASIZE SUB DUP2 ADD SWAP1 PUSH2 0x4CE SWAP2 SWAP1 PUSH2 0x5BCB JUMP JUMPDEST PUSH2 0x1055 JUMP JUMPDEST PUSH1 0x40 MLOAD PUSH2 0x4E0 SWAP2 SWAP1 PUSH2 0x5B59 JUMP JUMPDEST PUSH1 0x40 MLOAD DUP1 SWAP2 SUB SWAP1 RETURN JUMPDEST CALLVALUE DUP1 ISZERO PUSH2 0x4F5 JUMPI PUSH1 0x0 DUP1 REVERT JUMPDEST POP PUSH2 0x510 PUSH1 0x4 DUP1 CALLDATASIZE SUB DUP2 ADD SWAP1 PUSH2 0x50B SWAP2 SWAP1 PUSH2 0x59C1 JUMP JUMPDEST PUSH2 0x112E JUMP JUMPDEST PUSH1 0x40 MLOAD PUSH2 0x51D SWAP2 SWAP1 PUSH2 0x5BB0 JUMP JUMPDEST PUSH1 0x40 MLOAD DUP1 SWAP2 SUB SWAP1 RETURN JUMPDEST CALLVALUE DUP1 ISZERO PUSH2 0x532 JUMPI PUSH1 0x0 DUP1 REVERT JUMPDEST POP PUSH2 0x54D PUSH1 0x4 DUP1 CALLDATASIZE SUB DUP2 ADD SWAP1 PUSH2 0x548 SWAP2 SWAP1 PUSH2 0x5B74 JUMP JUMPDEST PUSH2 0x119C JUMP JUMPDEST STOP JUMPDEST CALLVALUE DUP1 ISZERO PUSH2 0x55B JUMPI PUSH1 0x0 DUP1 REVERT JUMPDEST POP PUSH2 0x564 PUSH2 0x12E4 JUMP JUMPDEST PUSH1 0x40 MLOAD PUSH2 0x571 SWAP2 SWAP1 PUSH2 0x5C3A JUMP JUMPDEST PUSH1 0x40 MLOAD DUP1 SWAP2 SUB SWAP1 RETURN JUMPDEST CALLVALUE DUP1 ISZERO PUSH2 0x586 JUMPI PUSH1 0x0 DUP1 REVERT JUMPDEST POP PUSH2 0x5A1 PUSH1 0x4 DUP1 CALLDATASIZE SUB DUP2 ADD SWAP1 PUSH2 0x59C SWAP2 SWAP1 PUSH2 0x5B74 JUMP JUMPDEST PUSH2 0x12ED JUMP JUMPDEST STOP JUMPDEST CALLVALUE DUP1 ISZERO PUSH2 0x5AF JUMPI PUSH1 0x0 DUP1 REVERT JUMPDEST POP PUSH2 0x5CA PUSH1 0x4 DUP1 CALLDATASIZE SUB DUP2 ADD SWAP1 PUSH2 0x5C5 SWAP2 SWAP1 PUSH2 0x5AFE JUMP JUMPDEST PUSH2 0x163B JUMP JUMPDEST PUSH1 0x40 MLOAD PUSH2 0x5D7 SWAP2 SWAP1 PUSH2 0x5B59 JUMP JUMPDEST PUSH1 0x40 MLOAD DUP1 SWAP2 SUB SWAP1 RETURN JUMPDEST CALLVALUE DUP1 ISZERO PUSH2 0x5EC JUMPI PUSH1 0x0 DUP1 REVERT JUMPDEST POP PUSH2 0x5F5 PUSH2 0x16EE JUMP JUMPDEST PUSH1 0x40 MLOAD PUSH2 0x602 SWAP2 SWAP1 PUSH2 0x5BB0 JUMP JUMPDEST PUSH1 0x40 MLOAD DUP1 SWAP2 SUB SWAP1 RETURN JUMPDEST CALLVALUE DUP1 ISZERO PUSH2 0x617 JUMPI PUSH1 0x0 DUP1 REVERT JUMPDEST POP PUSH2 0x632 PUSH1 0x4 DUP1 CALLDATASIZE SUB DUP2 ADD SWAP1 PUSH2 0x62D SWAP2 SWAP1 PUSH2 0x5B74 JUMP JUMPDEST PUSH2 0x16F4 JUMP JUMPDEST STOP JUMPDEST CALLVALUE DUP1 ISZERO PUSH2 0x640 JUMPI PUSH1 0x0 DUP1 REVERT JUMPDEST POP PUSH2 0x649 PUSH2 0x17E4 JUMP JUMPDEST PUSH1 0x40 MLOAD PUSH2 0x656 SWAP2 SWAP1 PUSH2 0x5BB0 JUMP JUMPDEST PUSH1 0x40 MLOAD DUP1 SWAP2 SUB SWAP1 RETURN JUMPDEST CALLVALUE DUP1 ISZERO PUSH2 0x66B JUMPI PUSH1 0x0 DUP1 REVERT JUMPDEST POP PUSH2 0x686 PUSH1 0x4 DUP1 CALLDATASIZE SUB DUP2 ADD SWAP1 PUSH2 0x681 SWAP2 SWAP1 PUSH2 0x5B74 JUMP JUMPDEST PUSH2 0x17EA JUMP JUMPDEST STOP JUMPDEST CALLVALUE DUP1 ISZERO PUSH2 0x694 JUMPI PUSH1 0x0 DUP1 REVERT JUMPDEST POP PUSH2 0x6AF PUSH1 0x4 DUP1 CALLDATASIZE SUB DUP2 ADD SWAP1 PUSH2 0x6AA SWAP2 SWAP1 PUSH2 0x5B74 JUMP JUMPDEST PUSH2 0x1C3B JUMP JUMPDEST STOP JUMPDEST CALLVALUE DUP1 ISZERO PUSH2 0x6BD JUMPI PUSH1 0x0 DUP1 REVERT JUMPDEST POP PUSH2 0x6D8 PUSH1 0x4 DUP1 CALLDATASIZE SUB DUP2 ADD SWAP1 PUSH2 0x6D3 SWAP2 SWAP1 PUSH2 0x5C81 JUMP JUMPDEST PUSH2 0x1D2B JUMP JUMPDEST PUSH1 0x40 MLOAD PUSH2 0x6E5 SWAP2 SWAP1 PUSH2 0x5BB0 JUMP JUMPDEST PUSH1 0x40 MLOAD DUP1 SWAP2 SUB SWAP1 RETURN JUMPDEST CALLVALUE DUP1 ISZERO PUSH2 0x6FA JUMPI PUSH1 0x0 DUP1 REVERT JUMPDEST POP PUSH2 0x715 PUSH1 0x4 DUP1 CALLDATASIZE SUB DUP2 ADD SWAP1 PUSH2 0x710 SWAP2 SWAP1 PUSH2 0x59C1 JUMP JUMPDEST PUSH2 0x1DC9 JUMP JUMPDEST STOP JUMPDEST CALLVALUE DUP1 ISZERO PUSH2 0x723 JUMPI PUSH1 0x0 DUP1 REVERT JUMPDEST POP PUSH2 0x72C PUSH2 0x1E68 JUMP JUMPDEST PUSH1 0x40 MLOAD PUSH2 0x739 SWAP2 SWAP1 PUSH2 0x5B59 JUMP JUMPDEST PUSH1 0x40 MLOAD DUP1 SWAP2 SUB SWAP1 RETURN JUMPDEST CALLVALUE DUP1 ISZERO PUSH2 0x74E JUMPI PUSH1 0x0 DUP1 REVERT JUMPDEST POP PUSH2 0x757 PUSH2 0x1E7B JUMP JUMPDEST PUSH1 0x40 MLOAD PUSH2 0x764 SWAP2 SWAP1 PUSH2 0x5BB0 JUMP JUMPDEST PUSH1 0x40 MLOAD DUP1 SWAP2 SUB SWAP1 RETURN JUMPDEST CALLVALUE DUP1 ISZERO PUSH2 0x779 JUMPI PUSH1 0x0 DUP1 REVERT JUMPDEST POP PUSH2 0x794 PUSH1 0x4 DUP1 CALLDATASIZE SUB DUP2 ADD SWAP1 PUSH2 0x78F SWAP2 SWAP1 PUSH2 0x5B74 JUMP JUMPDEST PUSH2 0x1E9B JUMP JUMPDEST STOP JUMPDEST CALLVALUE DUP1 ISZERO PUSH2 0x7A2 JUMPI PUSH1 0x0 DUP1 REVERT JUMPDEST POP PUSH2 0x7AB PUSH2 0x21D1 JUMP JUMPDEST PUSH1 0x40 MLOAD PUSH2 0x7B8 SWAP2 SWAP1 PUSH2 0x5CD0 JUMP JUMPDEST PUSH1 0x40 MLOAD DUP1 SWAP2 SUB SWAP1 RETURN JUMPDEST CALLVALUE DUP1 ISZERO PUSH2 0x7CD JUMPI PUSH1 0x0 DUP1 REVERT JUMPDEST POP PUSH2 0x7E8 PUSH1 0x4 DUP1 CALLDATASIZE SUB DUP2 ADD SWAP1 PUSH2 0x7E3 SWAP2 SWAP1 PUSH2 0x5B74 JUMP JUMPDEST PUSH2 0x21F7 JUMP JUMPDEST PUSH1 0x40 MLOAD PUSH2 0x7F5 SWAP2 SWAP1 PUSH2 0x5B59 JUMP JUMPDEST PUSH1 0x40 MLOAD DUP1 SWAP2 SUB SWAP1 RETURN JUMPDEST CALLVALUE DUP1 ISZERO PUSH2 0x80A JUMPI PUSH1 0x0 DUP1 REVERT JUMPDEST POP PUSH2 0x825 PUSH1 0x4 DUP1 CALLDATASIZE SUB DUP2 ADD SWAP1 PUSH2 0x820 SWAP2 SWAP1 PUSH2 0x5B74 JUMP JUMPDEST PUSH2 0x224D JUMP JUMPDEST STOP JUMPDEST CALLVALUE DUP1 ISZERO PUSH2 0x833 JUMPI PUSH1 0x0 DUP1 REVERT JUMPDEST POP PUSH2 0x84E PUSH1 0x4 DUP1 CALLDATASIZE SUB DUP2 ADD SWAP1 PUSH2 0x849 SWAP2 SWAP1 PUSH2 0x59C1 JUMP JUMPDEST PUSH2 0x233D JUMP JUMPDEST STOP JUMPDEST CALLVALUE DUP1 ISZERO PUSH2 0x85C JUMPI PUSH1 0x0 DUP1 REVERT JUMPDEST POP PUSH2 0x865 PUSH2 0x2448 JUMP JUMPDEST PUSH1 0x40 MLOAD PUSH2 0x872 SWAP2 SWAP1 PUSH2 0x5BB0 JUMP JUMPDEST PUSH1 0x40 MLOAD DUP1 SWAP2 SUB SWAP1 RETURN JUMPDEST CALLVALUE DUP1 ISZERO PUSH2 0x887 JUMPI PUSH1 0x0 DUP1 REVERT JUMPDEST POP PUSH2 0x8A2 PUSH1 0x4 DUP1 CALLDATASIZE SUB DUP2 ADD SWAP1 PUSH2 0x89D SWAP2 SWAP1 PUSH2 0x5B74 JUMP JUMPDEST PUSH2 0x244E JUMP JUMPDEST PUSH1 0x40 MLOAD PUSH2 0x8AF SWAP2 SWAP1 PUSH2 0x5B59 JUMP JUMPDEST PUSH1 0x40 MLOAD DUP1 SWAP2 SUB SWAP1 RETURN JUMPDEST CALLVALUE DUP1 ISZERO PUSH2 0x8C4 JUMPI PUSH1 0x0 DUP1 REVERT JUMPDEST POP PUSH2 0x8DF PUSH1 0x4 DUP1 CALLDATASIZE SUB DUP2 ADD SWAP1 PUSH2 0x8DA SWAP2 SWAP1 PUSH2 0x5B74 JUMP JUMPDEST PUSH2 0x24A4 JUMP JUMPDEST PUSH1 0x40 MLOAD PUSH2 0x8EC SWAP2 SWAP1 PUSH2 0x5BB0 JUMP JUMPDEST PUSH1 0x40 MLOAD DUP1 SWAP2 SUB SWAP1 RETURN JUMPDEST CALLVALUE DUP1 ISZERO PUSH2 0x901 JUMPI PUSH1 0x0 DUP1 REVERT JUMPDEST POP PUSH2 0x90A PUSH2 0x258F JUMP JUMPDEST STOP JUMPDEST CALLVALUE DUP1 ISZERO PUSH2 0x918 JUMPI PUSH1 0x0 DUP1 REVERT JUMPDEST POP PUSH2 0x921 PUSH2 0x26E2 JUMP JUMPDEST STOP JUMPDEST CALLVALUE DUP1 ISZERO PUSH2 0x92F JUMPI PUSH1 0x0 DUP1 REVERT JUMPDEST POP PUSH2 0x938 PUSH2 0x2806 JUMP JUMPDEST PUSH1 0x40 MLOAD PUSH2 0x945 SWAP2 SWAP1 PUSH2 0x5CD0 JUMP JUMPDEST PUSH1 0x40 MLOAD DUP1 SWAP2 SUB SWAP1 RETURN JUMPDEST CALLVALUE DUP1 ISZERO PUSH2 0x95A JUMPI PUSH1 0x0 DUP1 REVERT JUMPDEST POP PUSH2 0x963 PUSH2 0x282C JUMP JUMPDEST PUSH1 0x40 MLOAD PUSH2 0x970 SWAP2 SWAP1 PUSH2 0x5BB0 JUMP JUMPDEST PUSH1 0x40 MLOAD DUP1 SWAP2 SUB SWAP1 RETURN JUMPDEST CALLVALUE DUP1 ISZERO PUSH2 0x985 JUMPI PUSH1 0x0 DUP1 REVERT JUMPDEST POP PUSH2 0x9A0 PUSH1 0x4 DUP1 CALLDATASIZE SUB DUP2 ADD SWAP1 PUSH2 0x99B SWAP2 SWAP1 PUSH2 0x5B74 JUMP JUMPDEST PUSH2 0x2832 JUMP JUMPDEST PUSH1 0x40 MLOAD PUSH2 0x9AD SWAP2 SWAP1 PUSH2 0x5B59 JUMP JUMPDEST PUSH1 0x40 MLOAD DUP1 SWAP2 SUB SWAP1 RETURN JUMPDEST CALLVALUE DUP1 ISZERO PUSH2 0x9C2 JUMPI PUSH1 0x0 DUP1 REVERT JUMPDEST POP PUSH2 0x9CB PUSH2 0x2888 JUMP JUMPDEST PUSH1 0x40 MLOAD PUSH2 0x9D8 SWAP2 SWAP1 PUSH2 0x5CD0 JUMP JUMPDEST PUSH1 0x40 MLOAD DUP1 SWAP2 SUB SWAP1 RETURN JUMPDEST CALLVALUE DUP1 ISZERO PUSH2 0x9ED JUMPI PUSH1 0x0 DUP1 REVERT JUMPDEST POP PUSH2 0xA08 PUSH1 0x4 DUP1 CALLDATASIZE SUB DUP2 ADD SWAP1 PUSH2 0xA03 SWAP2 SWAP1 PUSH2 0x59C1 JUMP JUMPDEST PUSH2 0x28B1 JUMP JUMPDEST STOP JUMPDEST CALLVALUE DUP1 ISZERO PUSH2 0xA16 JUMPI PUSH1 0x0 DUP1 REVERT JUMPDEST POP PUSH2 0xA1F PUSH2 0x2950 JUMP JUMPDEST PUSH1 0x40 MLOAD PUSH2 0xA2C SWAP2 SWAP1 PUSH2 0x5BB0 JUMP JUMPDEST PUSH1 0x40 MLOAD DUP1 SWAP2 SUB SWAP1 RETURN JUMPDEST CALLVALUE DUP1 ISZERO PUSH2 0xA41 JUMPI PUSH1 0x0 DUP1 REVERT JUMPDEST POP PUSH2 0xA4A PUSH2 0x2989 JUMP JUMPDEST PUSH1 0x40 MLOAD PUSH2 0xA57 SWAP2 SWAP1 PUSH2 0x5A7E JUMP JUMPDEST PUSH1 0x40 MLOAD DUP1 SWAP2 SUB SWAP1 RETURN JUMPDEST CALLVALUE DUP1 ISZERO PUSH2 0xA6C JUMPI PUSH1 0x0 DUP1 REVERT JUMPDEST POP PUSH2 0xA87 PUSH1 0x4 DUP1 CALLDATASIZE SUB DUP2 ADD SWAP1 PUSH2 0xA82 SWAP2 SWAP1 PUSH2 0x5AFE JUMP JUMPDEST PUSH2 0x29C6 JUMP JUMPDEST PUSH1 0x40 MLOAD PUSH2 0xA94 SWAP2 SWAP1 PUSH2 0x5B59 JUMP JUMPDEST PUSH1 0x40 MLOAD DUP1 SWAP2 SUB SWAP1 RETURN JUMPDEST CALLVALUE DUP1 ISZERO PUSH2 0xAA9 JUMPI PUSH1 0x0 DUP1 REVERT JUMPDEST POP PUSH2 0xAB2 PUSH2 0x2A93 JUMP JUMPDEST STOP JUMPDEST CALLVALUE DUP1 ISZERO PUSH2 0xAC0 JUMPI PUSH1 0x0 DUP1 REVERT JUMPDEST POP PUSH2 0xADB PUSH1 0x4 DUP1 CALLDATASIZE SUB DUP2 ADD SWAP1 PUSH2 0xAD6 SWAP2 SWAP1 PUSH2 0x5AFE JUMP JUMPDEST PUSH2 0x2B32 JUMP JUMPDEST PUSH1 0x40 MLOAD PUSH2 0xAE8 SWAP2 SWAP1 PUSH2 0x5B59 JUMP JUMPDEST PUSH1 0x40 MLOAD DUP1 SWAP2 SUB SWAP1 RETURN JUMPDEST CALLVALUE DUP1 ISZERO PUSH2 0xAFD JUMPI PUSH1 0x0 DUP1 REVERT JUMPDEST POP PUSH2 0xB18 PUSH1 0x4 DUP1 CALLDATASIZE SUB DUP2 ADD SWAP1 PUSH2 0xB13 SWAP2 SWAP1 PUSH2 0x59C1 JUMP JUMPDEST PUSH2 0x2CFC JUMP JUMPDEST STOP JUMPDEST CALLVALUE DUP1 ISZERO PUSH2 0xB26 JUMPI PUSH1 0x0 DUP1 REVERT JUMPDEST POP PUSH2 0xB2F PUSH2 0x2D9B JUMP JUMPDEST PUSH1 0x40 MLOAD PUSH2 0xB3C SWAP2 SWAP1 PUSH2 0x5CD0 JUMP JUMPDEST PUSH1 0x40 MLOAD DUP1 SWAP2 SUB SWAP1 RETURN JUMPDEST CALLVALUE DUP1 ISZERO PUSH2 0xB51 JUMPI PUSH1 0x0 DUP1 REVERT JUMPDEST POP PUSH2 0xB5A PUSH2 0x2DC1 JUMP JUMPDEST PUSH1 0x40 MLOAD PUSH2 0xB67 SWAP2 SWAP1 PUSH2 0x5BB0 JUMP JUMPDEST PUSH1 0x40 MLOAD DUP1 SWAP2 SUB SWAP1 RETURN JUMPDEST CALLVALUE DUP1 ISZERO PUSH2 0xB7C JUMPI PUSH1 0x0 DUP1 REVERT JUMPDEST POP PUSH2 0xB97 PUSH1 0x4 DUP1 CALLDATASIZE SUB DUP2 ADD SWAP1 PUSH2 0xB92 SWAP2 SWAP1 PUSH2 0x5CEB JUMP JUMPDEST PUSH2 0x2DC7 JUMP JUMPDEST STOP JUMPDEST CALLVALUE DUP1 ISZERO PUSH2 0xBA5 JUMPI PUSH1 0x0 DUP1 REVERT JUMPDEST POP PUSH2 0xBC0 PUSH1 0x4 DUP1 CALLDATASIZE SUB DUP2 ADD SWAP1 PUSH2 0xBBB SWAP2 SWAP1 PUSH2 0x5D56 JUMP JUMPDEST PUSH2 0x2EB0 JUMP JUMPDEST STOP JUMPDEST CALLVALUE DUP1 ISZERO PUSH2 0xBCE JUMPI PUSH1 0x0 DUP1 REVERT JUMPDEST POP PUSH2 0xBE9 PUSH1 0x4 DUP1 CALLDATASIZE SUB DUP2 ADD SWAP1 PUSH2 0xBE4 SWAP2 SWAP1 PUSH2 0x59C1 JUMP JUMPDEST PUSH2 0x3095 JUMP JUMPDEST STOP JUMPDEST CALLVALUE DUP1 ISZERO PUSH2 0xBF7 JUMPI PUSH1 0x0 DUP1 REVERT JUMPDEST POP PUSH2 0xC00 PUSH2 0x3134 JUMP JUMPDEST PUSH1 0x40 MLOAD PUSH2 0xC0D SWAP2 SWAP1 PUSH2 0x5BB0 JUMP JUMPDEST PUSH1 0x40 MLOAD DUP1 SWAP2 SUB SWAP1 RETURN JUMPDEST CALLVALUE DUP1 ISZERO PUSH2 0xC22 JUMPI PUSH1 0x0 DUP1 REVERT JUMPDEST POP PUSH2 0xC2B PUSH2 0x313A JUMP JUMPDEST PUSH1 0x40 MLOAD PUSH2 0xC38 SWAP2 SWAP1 PUSH2 0x5BB0 JUMP JUMPDEST PUSH1 0x40 MLOAD DUP1 SWAP2 SUB SWAP1 RETURN JUMPDEST CALLVALUE DUP1 ISZERO PUSH2 0xC4D JUMPI PUSH1 0x0 DUP1 REVERT JUMPDEST POP PUSH2 0xC56 PUSH2 0x3140 JUMP JUMPDEST PUSH1 0x40 MLOAD PUSH2 0xC63 SWAP2 SWAP1 PUSH2 0x5BB0 JUMP JUMPDEST PUSH1 0x40 MLOAD DUP1 SWAP2 SUB SWAP1 RETURN JUMPDEST CALLVALUE DUP1 ISZERO PUSH2 0xC78 JUMPI PUSH1 0x0 DUP1 REVERT JUMPDEST POP PUSH2 0xC81 PUSH2 0x3171 JUMP JUMPDEST PUSH1 0x40 MLOAD PUSH2 0xC8E SWAP2 SWAP1 PUSH2 0x5BB0 JUMP JUMPDEST PUSH1 0x40 MLOAD DUP1 SWAP2 SUB SWAP1 RETURN JUMPDEST CALLVALUE DUP1 ISZERO PUSH2 0xCA3 JUMPI PUSH1 0x0 DUP1 REVERT JUMPDEST POP PUSH2 0xCBE PUSH1 0x4 DUP1 CALLDATASIZE SUB DUP2 ADD SWAP1 PUSH2 0xCB9 SWAP2 SWAP1 PUSH2 0x5D96 JUMP JUMPDEST PUSH2 0x3183 JUMP JUMPDEST PUSH1 0x40 MLOAD PUSH2 0xCCB SWAP2 SWAP1 PUSH2 0x5BB0 JUMP JUMPDEST PUSH1 0x40 MLOAD DUP1 SWAP2 SUB SWAP1 RETURN JUMPDEST CALLVALUE DUP1 ISZERO PUSH2 0xCE0 JUMPI PUSH1 0x0 DUP1 REVERT JUMPDEST POP PUSH2 0xCE9 PUSH2 0x320A JUMP JUMPDEST PUSH1 0x40 MLOAD PUSH2 0xCF6 SWAP2 SWAP1 PUSH2 0x5E35 JUMP JUMPDEST PUSH1 0x40 MLOAD DUP1 SWAP2 SUB SWAP1 RETURN JUMPDEST CALLVALUE DUP1 ISZERO PUSH2 0xD0B JUMPI PUSH1 0x0 DUP1 REVERT JUMPDEST POP PUSH2 0xD26 PUSH1 0x4 DUP1 CALLDATASIZE SUB DUP2 ADD SWAP1 PUSH2 0xD21 SWAP2 SWAP1 PUSH2 0x5B74 JUMP JUMPDEST PUSH2 0x3230 JUMP JUMPDEST STOP JUMPDEST CALLVALUE DUP1 ISZERO PUSH2 0xD34 JUMPI PUSH1 0x0 DUP1 REVERT JUMPDEST POP PUSH2 0xD4F PUSH1 0x4 DUP1 CALLDATASIZE SUB DUP2 ADD SWAP1 PUSH2 0xD4A SWAP2 SWAP1 PUSH2 0x59C1 JUMP JUMPDEST PUSH2 0x3320 JUMP JUMPDEST STOP JUMPDEST CALLVALUE DUP1 ISZERO PUSH2 0xD5D JUMPI PUSH1 0x0 DUP1 REVERT JUMPDEST POP PUSH2 0xD78 PUSH1 0x4 DUP1 CALLDATASIZE SUB DUP2 ADD SWAP1 PUSH2 0xD73 SWAP2 SWAP1 PUSH2 0x59C1 JUMP JUMPDEST PUSH2 0x33BF JUMP JUMPDEST STOP JUMPDEST CALLVALUE DUP1 ISZERO PUSH2 0xD86 JUMPI PUSH1 0x0 DUP1 REVERT JUMPDEST POP PUSH2 0xDA1 PUSH1 0x4 DUP1 CALLDATASIZE SUB DUP2 ADD SWAP1 PUSH2 0xD9C SWAP2 SWAP1 PUSH2 0x5B74 JUMP JUMPDEST PUSH2 0x34BB JUMP JUMPDEST STOP JUMPDEST CALLVALUE DUP1 ISZERO PUSH2 0xDAF JUMPI PUSH1 0x0 DUP1 REVERT JUMPDEST POP PUSH2 0xDB8 PUSH2 0x367C JUMP JUMPDEST PUSH1 0x40 MLOAD PUSH2 0xDC5 SWAP2 SWAP1 PUSH2 0x5CD0 JUMP JUMPDEST PUSH1 0x40 MLOAD DUP1 SWAP2 SUB SWAP1 RETURN JUMPDEST CALLVALUE DUP1 ISZERO PUSH2 0xDDA JUMPI PUSH1 0x0 DUP1 REVERT JUMPDEST POP PUSH2 0xDE3 PUSH2 0x3682 JUMP JUMPDEST STOP JUMPDEST PUSH2 0xDED PUSH2 0x37A6 JUMP JUMPDEST PUSH20 0xFFFFFFFFFFFFFFFFFFFFFFFFFFFFFFFFFFFFFFFF AND PUSH1 0x0 DUP1 SLOAD SWAP1 PUSH2 0x100 EXP SWAP1 DIV PUSH20 0xFFFFFFFFFFFFFFFFFFFFFFFFFFFFFFFFFFFFFFFF AND PUSH20 0xFFFFFFFFFFFFFFFFFFFFFFFFFFFFFFFFFFFFFFFF AND EQ PUSH2 0xE7A JUMPI PUSH1 0x40 MLOAD PUSH32 0x8C379A000000000000000000000000000000000000000000000000000000000 DUP2 MSTORE PUSH1 0x4 ADD PUSH2 0xE71 SWAP1 PUSH2 0x5E9C JUMP JUMPDEST PUSH1 0x40 MLOAD DUP1 SWAP2 SUB SWAP1 REVERT JUMPDEST DUP1 PUSH1 0xD DUP2 SWAP1 SSTORE POP POP JUMP JUMPDEST PUSH1 0x60 PUSH1 0x40 MLOAD DUP1 PUSH1 0x40 ADD PUSH1 0x40 MSTORE DUP1 PUSH1 0x13 DUP2 MSTORE PUSH1 0x20 ADD PUSH32 0x41204E6577204E69676572696120546F6B656E00000000000000000000000000 DUP2 MSTORE POP SWAP1 POP SWAP1 JUMP JUMPDEST PUSH1 0x0 PUSH2 0xED5 PUSH2 0xECE PUSH2 0x37A6 JUMP JUMPDEST DUP5 DUP5 PUSH2 0x37AE JUMP JUMPDEST PUSH1 0x1 SWAP1 POP SWAP3 SWAP2 POP POP JUMP JUMPDEST PUSH2 0xEE7 PUSH2 0x37A6 JUMP JUMPDEST PUSH20 0xFFFFFFFFFFFFFFFFFFFFFFFFFFFFFFFFFFFFFFFF AND PUSH1 0x0 DUP1 SLOAD SWAP1 PUSH2 0x100 EXP SWAP1 DIV PUSH20 0xFFFFFFFFFFFFFFFFFFFFFFFFFFFFFFFFFFFFFFFF AND PUSH20 0xFFFFFFFFFFFFFFFFFFFFFFFFFFFFFFFFFFFFFFFF AND EQ PUSH2 0xF74 JUMPI PUSH1 0x40 MLOAD PUSH32 0x8C379A000000000000000000000000000000000000000000000000000000000 DUP2 MSTORE PUSH1 0x4 ADD PUSH2 0xF6B SWAP1 PUSH2 0x5E9C JUMP JUMPDEST PUSH1 0x40 MLOAD DUP1 SWAP2 SUB SWAP1 REVERT JUMPDEST PUSH1 0x0 PUSH20 0xFFFFFFFFFFFFFFFFFFFFFFFFFFFFFFFFFFFFFFFF AND DUP2 PUSH20 0xFFFFFFFFFFFFFFFFFFFFFFFFFFFFFFFFFFFFFFFF AND SUB PUSH2 0xFE3 JUMPI PUSH1 0x40 MLOAD PUSH32 0x8C379A000000000000000000000000000000000000000000000000000000000 DUP2 MSTORE PUSH1 0x4 ADD PUSH2 0xFDA SWAP1 PUSH2 0x5F2E JUMP JUMPDEST PUSH1 0x40 MLOAD DUP1 SWAP2 SUB SWAP1 REVERT JUMPDEST DUP1 PUSH1 0x14 PUSH1 0x0 PUSH2 0x100 EXP DUP2 SLOAD DUP2 PUSH20 0xFFFFFFFFFFFFFFFFFFFFFFFFFFFFFFFFFFFFFFFF MUL NOT AND SWAP1 DUP4 PUSH20 0xFFFFFFFFFFFFFFFFFFFFFFFFFFFFFFFFFFFFFFFF AND MUL OR SWAP1 SSTORE POP POP JUMP JUMPDEST PUSH1 0x0 PUSH1 0xB SLOAD SWAP1 POP SWAP1 JUMP JUMPDEST PUSH1 0x0 PUSH1 0x12 PUSH1 0xA PUSH2 0x1041 SWAP2 SWAP1 PUSH2 0x60B0 JUMP JUMPDEST PUSH4 0x3C14DC0 PUSH2 0x1050 SWAP2 SWAP1 PUSH2 0x60FB JUMP JUMPDEST SWAP1 POP SWAP1 JUMP JUMPDEST PUSH1 0x0 PUSH2 0x1062 DUP5 DUP5 DUP5 PUSH2 0x3977 JUMP JUMPDEST PUSH2 0x1123 DUP5 PUSH2 0x106E PUSH2 0x37A6 JUMP JUMPDEST PUSH2 0x111E DUP6 PUSH1 0x40 MLOAD DUP1 PUSH1 0x60 ADD PUSH1 0x40 MSTORE DUP1 PUSH1 0x28 DUP2 MSTORE PUSH1 0x20 ADD PUSH2 0x7144 PUSH1 0x28 SWAP2 CODECOPY PUSH1 0x5 PUSH1 0x0 DUP12 PUSH20 0xFFFFFFFFFFFFFFFFFFFFFFFFFFFFFFFFFFFFFFFF AND PUSH20 0xFFFFFFFFFFFFFFFFFFFFFFFFFFFFFFFFFFFFFFFF AND DUP2 MSTORE PUSH1 0x20 ADD SWAP1 DUP2 MSTORE PUSH1 0x20 ADD PUSH1 0x0 KECCAK256 PUSH1 0x0 PUSH2 0x10D4 PUSH2 0x37A6 JUMP JUMPDEST PUSH20 0xFFFFFFFFFFFFFFFFFFFFFFFFFFFFFFFFFFFFFFFF AND PUSH20 0xFFFFFFFFFFFFFFFFFFFFFFFFFFFFFFFFFFFFFFFF AND DUP2 MSTORE PUSH1 0x20 ADD SWAP1 DUP2 MSTORE PUSH1 0x20 ADD PUSH1 0x0 KECCAK256 SLOAD PUSH2 0x3B61 SWAP1 SWAP3 SWAP2 SWAP1 PUSH4 0xFFFFFFFF AND JUMP JUMPDEST PUSH2 0x37AE JUMP JUMPDEST PUSH1 0x1 SWAP1 POP SWAP4 SWAP3 POP POP POP JUMP JUMPDEST PUSH1 0x0 PUSH1 0xA SLOAD DUP3 GT ISZERO PUSH2 0x1175 JUMPI PUSH1 0x40 MLOAD PUSH32 0x8C379A000000000000000000000000000000000000000000000000000000000 DUP2 MSTORE PUSH1 0x4 ADD PUSH2 0x116C SWAP1 PUSH2 0x61AF JUMP JUMPDEST PUSH1 0x40 MLOAD DUP1 SWAP2 SUB SWAP1 REVERT JUMPDEST PUSH1 0x0 PUSH2 0x117F PUSH2 0x3BB6 JUMP JUMPDEST SWAP1 POP PUSH2 0x1194 DUP2 DUP5 PUSH2 0x3BE1 SWAP1 SWAP2 SWAP1 PUSH4 0xFFFFFFFF AND JUMP JUMPDEST SWAP2 POP POP SWAP2 SWAP1 POP JUMP JUMPDEST PUSH2 0x11A4 PUSH2 0x37A6 JUMP JUMPDEST PUSH20 0xFFFFFFFFFFFFFFFFFFFFFFFFFFFFFFFFFFFFFFFF AND PUSH1 0x0 DUP1 SLOAD SWAP1 PUSH2 0x100 EXP SWAP1 DIV PUSH20 0xFFFFFFFFFFFFFFFFFFFFFFFFFFFFFFFFFFFFFFFF AND PUSH20 0xFFFFFFFFFFFFFFFFFFFFFFFFFFFFFFFFFFFFFFFF AND EQ PUSH2 0x1231 JUMPI PUSH1 0x40 MLOAD PUSH32 0x8C379A000000000000000000000000000000000000000000000000000000000 DUP2 MSTORE PUSH1 0x4 ADD PUSH2 0x1228 SWAP1 PUSH2 0x5E9C JUMP JUMPDEST PUSH1 0x40 MLOAD DUP1 SWAP2 SUB SWAP1 REVERT JUMPDEST PUSH1 0x0 PUSH20 0xFFFFFFFFFFFFFFFFFFFFFFFFFFFFFFFFFFFFFFFF AND DUP2 PUSH20 0xFFFFFFFFFFFFFFFFFFFFFFFFFFFFFFFFFFFFFFFF AND SUB PUSH2 0x12A0 JUMPI PUSH1 0x40 MLOAD PUSH32 0x8C379A000000000000000000000000000000000000000000000000000000000 DUP2 MSTORE PUSH1 0x4 ADD PUSH2 0x1297 SWAP1 PUSH2 0x5F2E JUMP JUMPDEST PUSH1 0x40 MLOAD DUP1 SWAP2 SUB SWAP1 REVERT JUMPDEST DUP1 PUSH1 0x17 PUSH1 0x0 PUSH2 0x100 EXP DUP2 SLOAD DUP2 PUSH20 0xFFFFFFFFFFFFFFFFFFFFFFFFFFFFFFFFFFFFFFFF MUL NOT AND SWAP1 DUP4 PUSH20 0xFFFFFFFFFFFFFFFFFFFFFFFFFFFFFFFFFFFFFFFF AND MUL OR SWAP1 SSTORE POP POP JUMP JUMPDEST PUSH1 0x0 PUSH1 0x12 SWAP1 POP SWAP1 JUMP JUMPDEST PUSH2 0x12F5 PUSH2 0x37A6 JUMP JUMPDEST PUSH20 0xFFFFFFFFFFFFFFFFFFFFFFFFFFFFFFFFFFFFFFFF AND PUSH1 0x0 DUP1 SLOAD SWAP1 PUSH2 0x100 EXP SWAP1 DIV PUSH20 0xFFFFFFFFFFFFFFFFFFFFFFFFFFFFFFFFFFFFFFFF AND PUSH20 0xFFFFFFFFFFFFFFFFFFFFFFFFFFFFFFFFFFFFFFFF AND EQ PUSH2 0x1382 JUMPI PUSH1 0x40 MLOAD PUSH32 0x8C379A000000000000000000000000000000000000000000000000000000000 DUP2 MSTORE PUSH1 0x4 ADD PUSH2 0x1379 SWAP1 PUSH2 0x5E9C JUMP JUMPDEST PUSH1 0x40 MLOAD DUP1 SWAP2 SUB SWAP1 REVERT JUMPDEST PUSH1 0x8 PUSH1 0x0 DUP3 PUSH20 0xFFFFFFFFFFFFFFFFFFFFFFFFFFFFFFFFFFFFFFFF AND PUSH20 0xFFFFFFFFFFFFFFFFFFFFFFFFFFFFFFFFFFFFFFFF AND DUP2 MSTORE PUSH1 0x20 ADD SWAP1 DUP2 MSTORE PUSH1 0x20 ADD PUSH1 0x0 KECCAK256 PUSH1 0x0 SWAP1 SLOAD SWAP1 PUSH2 0x100 EXP SWAP1 DIV PUSH1 0xFF AND PUSH2 0x140E JUMPI PUSH1 0x40 MLOAD PUSH32 0x8C379A000000000000000000000000000000000000000000000000000000000 DUP2 MSTORE PUSH1 0x4 ADD PUSH2 0x1405 SWAP1 PUSH2 0x621B JUMP JUMPDEST PUSH1 0x40 MLOAD DUP1 SWAP2 SUB SWAP1 REVERT JUMPDEST PUSH1 0x0 JUMPDEST PUSH1 0x9 DUP1 SLOAD SWAP1 POP DUP2 LT ISZERO PUSH2 0x1637 JUMPI DUP2 PUSH20 0xFFFFFFFFFFFFFFFFFFFFFFFFFFFFFFFFFFFFFFFF AND PUSH1 0x9 DUP3 DUP2 SLOAD DUP2 LT PUSH2 0x1449 JUMPI PUSH2 0x1448 PUSH2 0x623B JUMP JUMPDEST JUMPDEST SWAP1 PUSH1 0x0 MSTORE PUSH1 0x20 PUSH1 0x0 KECCAK256 ADD PUSH1 0x0 SWAP1 SLOAD SWAP1 PUSH2 0x100 EXP SWAP1 DIV PUSH20 0xFFFFFFFFFFFFFFFFFFFFFFFFFFFFFFFFFFFFFFFF AND PUSH20 0xFFFFFFFFFFFFFFFFFFFFFFFFFFFFFFFFFFFFFFFF AND SUB PUSH2 0x1624 JUMPI PUSH1 0x9 PUSH1 0x1 PUSH1 0x9 DUP1 SLOAD SWAP1 POP PUSH2 0x14A3 SWAP2 SWAP1 PUSH2 0x626A JUMP JUMPDEST DUP2 SLOAD DUP2 LT PUSH2 0x14B4 JUMPI PUSH2 0x14B3 PUSH2 0x623B JUMP JUMPDEST JUMPDEST SWAP1 PUSH1 0x0 MSTORE PUSH1 0x20 PUSH1 0x0 KECCAK256 ADD PUSH1 0x0 SWAP1 SLOAD SWAP1 PUSH2 0x100 EXP SWAP1 DIV PUSH20 0xFFFFFFFFFFFFFFFFFFFFFFFFFFFFFFFFFFFFFFFF AND PUSH1 0x9 DUP3 DUP2 SLOAD DUP2 LT PUSH2 0x14F3 JUMPI PUSH2 0x14F2 PUSH2 0x623B JUMP JUMPDEST JUMPDEST SWAP1 PUSH1 0x0 MSTORE PUSH1 0x20 PUSH1 0x0 KECCAK256 ADD PUSH1 0x0 PUSH2 0x100 EXP DUP2 SLOAD DUP2 PUSH20 0xFFFFFFFFFFFFFFFFFFFFFFFFFFFFFFFFFFFFFFFF MUL NOT AND SWAP1 DUP4 PUSH20 0xFFFFFFFFFFFFFFFFFFFFFFFFFFFFFFFFFFFFFFFF AND MUL OR SWAP1 SSTORE POP PUSH1 0x0 PUSH1 0x4 PUSH1 0x0 DUP5 PUSH20 0xFFFFFFFFFFFFFFFFFFFFFFFFFFFFFFFFFFFFFFFF AND PUSH20 0xFFFFFFFFFFFFFFFFFFFFFFFFFFFFFFFFFFFFFFFF AND DUP2 MSTORE PUSH1 0x20 ADD SWAP1 DUP2 MSTORE PUSH1 0x20 ADD PUSH1 0x0 KECCAK256 DUP2 SWAP1 SSTORE POP PUSH1 0x0 PUSH1 0x8 PUSH1 0x0 DUP5 PUSH20 0xFFFFFFFFFFFFFFFFFFFFFFFFFFFFFFFFFFFFFFFF AND PUSH20 0xFFFFFFFFFFFFFFFFFFFFFFFFFFFFFFFFFFFFFFFF AND DUP2 MSTORE PUSH1 0x20 ADD SWAP1 DUP2 MSTORE PUSH1 0x20 ADD PUSH1 0x0 KECCAK256 PUSH1 0x0 PUSH2 0x100 EXP DUP2 SLOAD DUP2 PUSH1 0xFF MUL NOT AND SWAP1 DUP4 ISZERO ISZERO MUL OR SWAP1 SSTORE POP PUSH1 0x9 DUP1 SLOAD DUP1 PUSH2 0x15EA JUMPI PUSH2 0x15E9 PUSH2 0x629E JUMP JUMPDEST JUMPDEST PUSH1 0x1 SWAP1 SUB DUP2 DUP2 SWAP1 PUSH1 0x0 MSTORE PUSH1 0x20 PUSH1 0x0 KECCAK256 ADD PUSH1 0x0 PUSH2 0x100 EXP DUP2 SLOAD SWAP1 PUSH20 0xFFFFFFFFFFFFFFFFFFFFFFFFFFFFFFFFFFFFFFFF MUL NOT AND SWAP1 SSTORE SWAP1 SSTORE PUSH2 0x1637 JUMP JUMPDEST DUP1 DUP1 PUSH2 0x162F SWAP1 PUSH2 0x62CD JUMP JUMPDEST SWAP2 POP POP PUSH2 0x1411 JUMP JUMPDEST POP POP JUMP JUMPDEST PUSH1 0x0 PUSH2 0x16E4 PUSH2 0x1648 PUSH2 0x37A6 JUMP JUMPDEST DUP5 PUSH2 0x16DF DUP6 PUSH1 0x5 PUSH1 0x0 PUSH2 0x1659 PUSH2 0x37A6 JUMP JUMPDEST PUSH20 0xFFFFFFFFFFFFFFFFFFFFFFFFFFFFFFFFFFFFFFFF AND PUSH20 0xFFFFFFFFFFFFFFFFFFFFFFFFFFFFFFFFFFFFFFFF AND DUP2 MSTORE PUSH1 0x20 ADD SWAP1 DUP2 MSTORE PUSH1 0x20 ADD PUSH1 0x0 KECCAK256 PUSH1 0x0 DUP10 PUSH20 0xFFFFFFFFFFFFFFFFFFFFFFFFFFFFFFFFFFFFFFFF AND PUSH20 0xFFFFFFFFFFFFFFFFFFFFFFFFFFFFFFFFFFFFFFFF AND DUP2 MSTORE PUSH1 0x20 ADD SWAP1 DUP2 MSTORE PUSH1 0x20 ADD PUSH1 0x0 KECCAK256 SLOAD PUSH2 0x3BF7 SWAP1 SWAP2 SWAP1 PUSH4 0xFFFFFFFF AND JUMP JUMPDEST PUSH2 0x37AE JUMP JUMPDEST PUSH1 0x1 SWAP1 POP SWAP3 SWAP2 POP POP JUMP JUMPDEST PUSH1 0xD SLOAD DUP2 JUMP JUMPDEST PUSH2 0x16FC PUSH2 0x37A6 JUMP JUMPDEST PUSH20 0xFFFFFFFFFFFFFFFFFFFFFFFFFFFFFFFFFFFFFFFF AND PUSH1 0x0 DUP1 SLOAD SWAP1 PUSH2 0x100 EXP SWAP1 DIV PUSH20 0xFFFFFFFFFFFFFFFFFFFFFFFFFFFFFFFFFFFFFFFF AND PUSH20 0xFFFFFFFFFFFFFFFFFFFFFFFFFFFFFFFFFFFFFFFF AND EQ PUSH2 0x1789 JUMPI PUSH1 0x40 MLOAD PUSH32 0x8C379A000000000000000000000000000000000000000000000000000000000 DUP2 MSTORE PUSH1 0x4 ADD PUSH2 0x1780 SWAP1 PUSH2 0x5E9C JUMP JUMPDEST PUSH1 0x40 MLOAD DUP1 SWAP2 SUB SWAP1 REVERT JUMPDEST PUSH1 0x0 PUSH1 0x7 PUSH1 0x0 DUP4 PUSH20 0xFFFFFFFFFFFFFFFFFFFFFFFFFFFFFFFFFFFFFFFF AND PUSH20 0xFFFFFFFFFFFFFFFFFFFFFFFFFFFFFFFFFFFFFFFF AND DUP2 MSTORE PUSH1 0x20 ADD SWAP1 DUP2 MSTORE PUSH1 0x20 ADD PUSH1 0x0 KECCAK256 PUSH1 0x0 PUSH2 0x100 EXP DUP2 SLOAD DUP2 PUSH1 0xFF MUL NOT AND SWAP1 DUP4 ISZERO ISZERO MUL OR SWAP1 SSTORE POP POP JUMP JUMPDEST PUSH1 0x16 SLOAD DUP2 JUMP JUMPDEST PUSH2 0x17F2 PUSH2 0x37A6 JUMP JUMPDEST PUSH20 0xFFFFFFFFFFFFFFFFFFFFFFFFFFFFFFFFFFFFFFFF AND PUSH1 0x0 DUP1 SLOAD SWAP1 PUSH2 0x100 EXP SWAP1 DIV PUSH20 0xFFFFFFFFFFFFFFFFFFFFFFFFFFFFFFFFFFFFFFFF AND PUSH20 0xFFFFFFFFFFFFFFFFFFFFFFFFFFFFFFFFFFFFFFFF AND EQ PUSH2 0x187F JUMPI PUSH1 0x40 MLOAD PUSH32 0x8C379A000000000000000000000000000000000000000000000000000000000 DUP2 MSTORE PUSH1 0x4 ADD PUSH2 0x1876 SWAP1 PUSH2 0x5E9C JUMP JUMPDEST PUSH1 0x40 MLOAD DUP1 SWAP2 SUB SWAP1 REVERT JUMPDEST PUSH1 0x0 DUP2 SWAP1 POP PUSH1 0x0 DUP2 PUSH20 0xFFFFFFFFFFFFFFFFFFFFFFFFFFFFFFFFFFFFFFFF AND PUSH4 0xC45A0155 PUSH1 0x40 MLOAD DUP2 PUSH4 0xFFFFFFFF AND PUSH1 0xE0 SHL DUP2 MSTORE PUSH1 0x4 ADD PUSH1 0x20 PUSH1 0x40 MLOAD DUP1 DUP4 SUB DUP2 DUP7 GAS STATICCALL ISZERO DUP1 ISZERO PUSH2 0x18D1 JUMPI RETURNDATASIZE PUSH1 0x0 DUP1 RETURNDATACOPY RETURNDATASIZE PUSH1 0x0 REVERT JUMPDEST POP POP POP POP PUSH1 0x40 MLOAD RETURNDATASIZE PUSH1 0x1F NOT PUSH1 0x1F DUP3 ADD AND DUP3 ADD DUP1 PUSH1 0x40 MSTORE POP DUP2 ADD SWAP1 PUSH2 0x18F5 SWAP2 SWAP1 PUSH2 0x632A JUMP JUMPDEST PUSH20 0xFFFFFFFFFFFFFFFFFFFFFFFFFFFFFFFFFFFFFFFF AND PUSH4 0xE6A43905 ADDRESS DUP5 PUSH20 0xFFFFFFFFFFFFFFFFFFFFFFFFFFFFFFFFFFFFFFFF AND PUSH4 0xAD5C4648 PUSH1 0x40 MLOAD DUP2 PUSH4 0xFFFFFFFF AND PUSH1 0xE0 SHL DUP2 MSTORE PUSH1 0x4 ADD PUSH1 0x20 PUSH1 0x40 MLOAD DUP1 DUP4 SUB DUP2 DUP7 GAS STATICCALL ISZERO DUP1 ISZERO PUSH2 0x195C JUMPI RETURNDATASIZE PUSH1 0x0 DUP1 RETURNDATACOPY RETURNDATASIZE PUSH1 0x0 REVERT JUMPDEST POP POP POP POP PUSH1 0x40 MLOAD RETURNDATASIZE PUSH1 0x1F NOT PUSH1 0x1F DUP3 ADD AND DUP3 ADD DUP1 PUSH1 0x40 MSTORE POP DUP2 ADD SWAP1 PUSH2 0x1980 SWAP2 SWAP1 PUSH2 0x632A JUMP JUMPDEST PUSH1 0x40 MLOAD DUP4 PUSH4 0xFFFFFFFF AND PUSH1 0xE0 SHL DUP2 MSTORE PUSH1 0x4 ADD PUSH2 0x199D SWAP3 SWAP2 SWAP1 PUSH2 0x6357 JUMP JUMPDEST PUSH1 0x20 PUSH1 0x40 MLOAD DUP1 DUP4 SUB DUP2 DUP7 GAS STATICCALL ISZERO DUP1 ISZERO PUSH2 0x19BA JUMPI RETURNDATASIZE PUSH1 0x0 DUP1 RETURNDATACOPY RETURNDATASIZE PUSH1 0x0 REVERT JUMPDEST POP POP POP POP PUSH1 0x40 MLOAD RETURNDATASIZE PUSH1 0x1F NOT PUSH1 0x1F DUP3 ADD AND DUP3 ADD DUP1 PUSH1 0x40 MSTORE POP DUP2 ADD SWAP1 PUSH2 0x19DE SWAP2 SWAP1 PUSH2 0x632A JUMP JUMPDEST SWAP1 POP PUSH1 0x0 PUSH20 0xFFFFFFFFFFFFFFFFFFFFFFFFFFFFFFFFFFFFFFFF AND DUP2 PUSH20 0xFFFFFFFFFFFFFFFFFFFFFFFFFFFFFFFFFFFFFFFF AND SUB PUSH2 0x1BB3 JUMPI DUP2 PUSH20 0xFFFFFFFFFFFFFFFFFFFFFFFFFFFFFFFFFFFFFFFF AND PUSH4 0xC45A0155 PUSH1 0x40 MLOAD DUP2 PUSH4 0xFFFFFFFF AND PUSH1 0xE0 SHL DUP2 MSTORE PUSH1 0x4 ADD PUSH1 0x20 PUSH1 0x40 MLOAD DUP1 DUP4 SUB DUP2 DUP7 GAS STATICCALL ISZERO DUP1 ISZERO PUSH2 0x1A5F JUMPI RETURNDATASIZE PUSH1 0x0 DUP1 RETURNDATACOPY RETURNDATASIZE PUSH1 0x0 REVERT JUMPDEST POP POP POP POP PUSH1 0x40 MLOAD RETURNDATASIZE PUSH1 0x1F NOT PUSH1 0x1F DUP3 ADD AND DUP3 ADD DUP1 PUSH1 0x40 MSTORE POP DUP2 ADD SWAP1 PUSH2 0x1A83 SWAP2 SWAP1 PUSH2 0x632A JUMP JUMPDEST PUSH20 0xFFFFFFFFFFFFFFFFFFFFFFFFFFFFFFFFFFFFFFFF AND PUSH4 0xC9C65396 ADDRESS DUP5 PUSH20 0xFFFFFFFFFFFFFFFFFFFFFFFFFFFFFFFFFFFFFFFF AND PUSH4 0xAD5C4648 PUSH1 0x40 MLOAD DUP2 PUSH4 0xFFFFFFFF AND PUSH1 0xE0 SHL DUP2 MSTORE PUSH1 0x4 ADD PUSH1 0x20 PUSH1 0x40 MLOAD DUP1 DUP4 SUB DUP2 DUP7 GAS STATICCALL ISZERO DUP1 ISZERO PUSH2 0x1AEA JUMPI RETURNDATASIZE PUSH1 0x0 DUP1 RETURNDATACOPY RETURNDATASIZE PUSH1 0x0 REVERT JUMPDEST POP POP POP POP PUSH1 0x40 MLOAD RETURNDATASIZE PUSH1 0x1F NOT PUSH1 0x1F DUP3 ADD AND DUP3 ADD DUP1 PUSH1 0x40 MSTORE POP DUP2 ADD SWAP1 PUSH2 0x1B0E SWAP2 SWAP1 PUSH2 0x632A JUMP JUMPDEST PUSH1 0x40 MLOAD DUP4 PUSH4 0xFFFFFFFF AND PUSH1 0xE0 SHL DUP2 MSTORE PUSH1 0x4 ADD PUSH2 0x1B2B SWAP3 SWAP2 SWAP1 PUSH2 0x6357 JUMP JUMPDEST PUSH1 0x20 PUSH1 0x40 MLOAD DUP1 DUP4 SUB DUP2 PUSH1 0x0 DUP8 GAS CALL ISZERO DUP1 ISZERO PUSH2 0x1B4A JUMPI RETURNDATASIZE PUSH1 0x0 DUP1 RETURNDATACOPY RETURNDATASIZE PUSH1 0x0 REVERT JUMPDEST POP POP POP POP PUSH1 0x40 MLOAD RETURNDATASIZE PUSH1 0x1F NOT PUSH1 0x1F DUP3 ADD AND DUP3 ADD DUP1 PUSH1 0x40 MSTORE POP DUP2 ADD SWAP1 PUSH2 0x1B6E SWAP2 SWAP1 PUSH2 0x632A JUMP JUMPDEST PUSH1 0x1A PUSH1 0x0 PUSH2 0x100 EXP DUP2 SLOAD DUP2 PUSH20 0xFFFFFFFFFFFFFFFFFFFFFFFFFFFFFFFFFFFFFFFF MUL NOT AND SWAP1 DUP4 PUSH20 0xFFFFFFFFFFFFFFFFFFFFFFFFFFFFFFFFFFFFFFFF AND MUL OR SWAP1 SSTORE POP PUSH2 0x1BF5 JUMP JUMPDEST DUP1 PUSH1 0x1A PUSH1 0x0 PUSH2 0x100 EXP DUP2 SLOAD DUP2 PUSH20 0xFFFFFFFFFFFFFFFFFFFFFFFFFFFFFFFFFFFFFFFF MUL NOT AND SWAP1 DUP4 PUSH20 0xFFFFFFFFFFFFFFFFFFFFFFFFFFFFFFFFFFFFFFFF AND MUL OR SWAP1 SSTORE POP JUMPDEST DUP2 PUSH1 0x19 PUSH1 0x0 PUSH2 0x100 EXP DUP2 SLOAD DUP2 PUSH20 0xFFFFFFFFFFFFFFFFFFFFFFFFFFFFFFFFFFFFFFFF MUL NOT AND SWAP1 DUP4 PUSH20 0xFFFFFFFFFFFFFFFFFFFFFFFFFFFFFFFFFFFFFFFF AND MUL OR SWAP1 SSTORE POP POP POP POP JUMP JUMPDEST PUSH2 0x1C43 PUSH2 0x37A6 JUMP JUMPDEST PUSH20 0xFFFFFFFFFFFFFFFFFFFFFFFFFFFFFFFFFFFFFFFF AND PUSH1 0x0 DUP1 SLOAD SWAP1 PUSH2 0x100 EXP SWAP1 DIV PUSH20 0xFFFFFFFFFFFFFFFFFFFFFFFFFFFFFFFFFFFFFFFF AND PUSH20 0xFFFFFFFFFFFFFFFFFFFFFFFFFFFFFFFFFFFFFFFF AND EQ PUSH2 0x1CD0 JUMPI PUSH1 0x40 MLOAD PUSH32 0x8C379A000000000000000000000000000000000000000000000000000000000 DUP2 MSTORE PUSH1 0x4 ADD PUSH2 0x1CC7 SWAP1 PUSH2 0x5E9C JUMP JUMPDEST PUSH1 0x40 MLOAD DUP1 SWAP2 SUB SWAP1 REVERT JUMPDEST PUSH1 0x1 PUSH1 0x6 PUSH1 0x0 DUP4 PUSH20 0xFFFFFFFFFFFFFFFFFFFFFFFFFFFFFFFFFFFFFFFF AND PUSH20 0xFFFFFFFFFFFFFFFFFFFFFFFFFFFFFFFFFFFFFFFF AND DUP2 MSTORE PUSH1 0x20 ADD SWAP1 DUP2 MSTORE PUSH1 0x20 ADD PUSH1 0x0 KECCAK256 PUSH1 0x0 PUSH2 0x100 EXP DUP2 SLOAD DUP2 PUSH1 0xFF MUL NOT AND SWAP1 DUP4 ISZERO ISZERO MUL OR SWAP1 SSTORE POP POP JUMP JUMPDEST PUSH1 0x0 PUSH1 0x12 PUSH1 0xA PUSH2 0x1D3B SWAP2 SWAP1 PUSH2 0x60B0 JUMP JUMPDEST PUSH4 0x3C14DC0 PUSH2 0x1D4A SWAP2 SWAP1 PUSH2 0x60FB JUMP JUMPDEST DUP4 GT ISZERO PUSH2 0x1D8C JUMPI PUSH1 0x40 MLOAD PUSH32 0x8C379A000000000000000000000000000000000000000000000000000000000 DUP2 MSTORE PUSH1 0x4 ADD PUSH2 0x1D83 SWAP1 PUSH2 0x63CC JUMP JUMPDEST PUSH1 0x40 MLOAD DUP1 SWAP2 SUB SWAP1 REVERT JUMPDEST DUP2 PUSH2 0x1DAC JUMPI PUSH1 0x0 PUSH2 0x1D9C DUP5 PUSH2 0x3C0D JUMP JUMPDEST POP POP POP POP POP SWAP1 POP DUP1 SWAP2 POP POP PUSH2 0x1DC3 JUMP JUMPDEST PUSH1 0x0 PUSH2 0x1DB7 DUP5 PUSH2 0x3C0D JUMP JUMPDEST POP POP POP POP SWAP2 POP POP DUP1 SWAP2 POP POP JUMPDEST SWAP3 SWAP2 POP POP JUMP JUMPDEST PUSH2 0x1DD1 PUSH2 0x37A6 JUMP JUMPDEST PUSH20 0xFFFFFFFFFFFFFFFFFFFFFFFFFFFFFFFFFFFFFFFF AND PUSH1 0x0 DUP1 SLOAD SWAP1 PUSH2 0x100 EXP SWAP1 DIV PUSH20 0xFFFFFFFFFFFFFFFFFFFFFFFFFFFFFFFFFFFFFFFF AND PUSH20 0xFFFFFFFFFFFFFFFFFFFFFFFFFFFFFFFFFFFFFFFF AND EQ PUSH2 0x1E5E JUMPI PUSH1 0x40 MLOAD PUSH32 0x8C379A000000000000000000000000000000000000000000000000000000000 DUP2 MSTORE PUSH1 0x4 ADD PUSH2 0x1E55 SWAP1 PUSH2 0x5E9C JUMP JUMPDEST PUSH1 0x40 MLOAD DUP1 SWAP2 SUB SWAP1 REVERT JUMPDEST DUP1 PUSH1 0x13 DUP2 SWAP1 SSTORE POP POP JUMP JUMPDEST PUSH1 0x1A PUSH1 0x15 SWAP1 SLOAD SWAP1 PUSH2 0x100 EXP SWAP1 DIV PUSH1 0xFF AND DUP2 JUMP JUMPDEST PUSH1 0x12 PUSH1 0xA PUSH2 0x1E89 SWAP2 SWAP1 PUSH2 0x60B0 JUMP JUMPDEST PUSH4 0x15EF3C0 PUSH2 0x1E98 SWAP2 SWAP1 PUSH2 0x60FB JUMP JUMPDEST DUP2 JUMP JUMPDEST PUSH2 0x1EA3 PUSH2 0x37A6 JUMP JUMPDEST PUSH20 0xFFFFFFFFFFFFFFFFFFFFFFFFFFFFFFFFFFFFFFFF AND PUSH1 0x0 DUP1 SLOAD SWAP1 PUSH2 0x100 EXP SWAP1 DIV PUSH20 0xFFFFFFFFFFFFFFFFFFFFFFFFFFFFFFFFFFFFFFFF AND PUSH20 0xFFFFFFFFFFFFFFFFFFFFFFFFFFFFFFFFFFFFFFFF AND EQ PUSH2 0x1F30 JUMPI PUSH1 0x40 MLOAD PUSH32 0x8C379A000000000000000000000000000000000000000000000000000000000 DUP2 MSTORE PUSH1 0x4 ADD PUSH2 0x1F27 SWAP1 PUSH2 0x5E9C JUMP JUMPDEST PUSH1 0x40 MLOAD DUP1 SWAP2 SUB SWAP1 REVERT JUMPDEST PUSH20 0x10ED43C718714EB63D5AA57B78B54704E256024E PUSH20 0xFFFFFFFFFFFFFFFFFFFFFFFFFFFFFFFFFFFFFFFF AND DUP2 PUSH20 0xFFFFFFFFFFFFFFFFFFFFFFFFFFFFFFFFFFFFFFFF AND SUB PUSH2 0x1FB2 JUMPI PUSH1 0x40 MLOAD PUSH32 0x8C379A000000000000000000000000000000000000000000000000000000000 DUP2 MSTORE PUSH1 0x4 ADD PUSH2 0x1FA9 SWAP1 PUSH2 0x645E JUMP JUMPDEST PUSH1 0x40 MLOAD DUP1 SWAP2 SUB SWAP1 REVERT JUMPDEST PUSH1 0x8 PUSH1 0x0 DUP3 PUSH20 0xFFFFFFFFFFFFFFFFFFFFFFFFFFFFFFFFFFFFFFFF AND PUSH20 0xFFFFFFFFFFFFFFFFFFFFFFFFFFFFFFFFFFFFFFFF AND DUP2 MSTORE PUSH1 0x20 ADD SWAP1 DUP2 MSTORE PUSH1 0x20 ADD PUSH1 0x0 KECCAK256 PUSH1 0x0 SWAP1 SLOAD SWAP1 PUSH2 0x100 EXP SWAP1 DIV PUSH1 0xFF AND ISZERO PUSH2 0x203F JUMPI PUSH1 0x40 MLOAD PUSH32 0x8C379A000000000000000000000000000000000000000000000000000000000 DUP2 MSTORE PUSH1 0x4 ADD PUSH2 0x2036 SWAP1 PUSH2 0x64CA JUMP JUMPDEST PUSH1 0x40 MLOAD DUP1 SWAP2 SUB SWAP1 REVERT JUMPDEST PUSH1 0x0 PUSH1 0x3 PUSH1 0x0 DUP4 PUSH20 0xFFFFFFFFFFFFFFFFFFFFFFFFFFFFFFFFFFFFFFFF AND PUSH20 0xFFFFFFFFFFFFFFFFFFFFFFFFFFFFFFFFFFFFFFFF AND DUP2 MSTORE PUSH1 0x20 ADD SWAP1 DUP2 MSTORE PUSH1 0x20 ADD PUSH1 0x0 KECCAK256 SLOAD GT ISZERO PUSH2 0x2113 JUMPI PUSH2 0x20CF PUSH1 0x3 PUSH1 0x0 DUP4 PUSH20 0xFFFFFFFFFFFFFFFFFFFFFFFFFFFFFFFFFFFFFFFF AND PUSH20 0xFFFFFFFFFFFFFFFFFFFFFFFFFFFFFFFFFFFFFFFF AND DUP2 MSTORE PUSH1 0x20 ADD SWAP1 DUP2 MSTORE PUSH1 0x20 ADD PUSH1 0x0 KECCAK256 SLOAD PUSH2 0x112E JUMP JUMPDEST PUSH1 0x4 PUSH1 0x0 DUP4 PUSH20 0xFFFFFFFFFFFFFFFFFFFFFFFFFFFFFFFFFFFFFFFF AND PUSH20 0xFFFFFFFFFFFFFFFFFFFFFFFFFFFFFFFFFFFFFFFF AND DUP2 MSTORE PUSH1 0x20 ADD SWAP1 DUP2 MSTORE PUSH1 0x20 ADD PUSH1 0x0 KECCAK256 DUP2 SWAP1 SSTORE POP JUMPDEST PUSH1 0x1 PUSH1 0x8 PUSH1 0x0 DUP4 PUSH20 0xFFFFFFFFFFFFFFFFFFFFFFFFFFFFFFFFFFFFFFFF AND PUSH20 0xFFFFFFFFFFFFFFFFFFFFFFFFFFFFFFFFFFFFFFFF AND DUP2 MSTORE PUSH1 0x20 ADD SWAP1 DUP2 MSTORE PUSH1 0x20 ADD PUSH1 0x0 KECCAK256 PUSH1 0x0 PUSH2 0x100 EXP DUP2 SLOAD DUP2 PUSH1 0xFF MUL NOT AND SWAP1 DUP4 ISZERO ISZERO MUL OR SWAP1 SSTORE POP PUSH1 0x9 DUP2 SWAP1 DUP1 PUSH1 0x1 DUP2 SLOAD ADD DUP1 DUP3 SSTORE DUP1 SWAP2 POP POP PUSH1 0x1 SWAP1 SUB SWAP1 PUSH1 0x0 MSTORE PUSH1 0x20 PUSH1 0x0 KECCAK256 ADD PUSH1 0x0 SWAP1 SWAP2 SWAP1 SWAP2 SWAP1 SWAP2 PUSH2 0x100 EXP DUP2 SLOAD DUP2 PUSH20 0xFFFFFFFFFFFFFFFFFFFFFFFFFFFFFFFFFFFFFFFF MUL NOT AND SWAP1 DUP4 PUSH20 0xFFFFFFFFFFFFFFFFFFFFFFFFFFFFFFFFFFFFFFFF AND MUL OR SWAP1 SSTORE POP POP JUMP JUMPDEST PUSH1 0x1A PUSH1 0x0 SWAP1 SLOAD SWAP1 PUSH2 0x100 EXP SWAP1 DIV PUSH20 0xFFFFFFFFFFFFFFFFFFFFFFFFFFFFFFFFFFFFFFFF AND DUP2 JUMP JUMPDEST PUSH1 0x0 PUSH1 0x6 PUSH1 0x0 DUP4 PUSH20 0xFFFFFFFFFFFFFFFFFFFFFFFFFFFFFFFFFFFFFFFF AND PUSH20 0xFFFFFFFFFFFFFFFFFFFFFFFFFFFFFFFFFFFFFFFF AND DUP2 MSTORE PUSH1 0x20 ADD SWAP1 DUP2 MSTORE PUSH1 0x20 ADD PUSH1 0x0 KECCAK256 PUSH1 0x0 SWAP1 SLOAD SWAP1 PUSH2 0x100 EXP SWAP1 DIV PUSH1 0xFF AND SWAP1 POP SWAP2 SWAP1 POP JUMP JUMPDEST PUSH2 0x2255 PUSH2 0x37A6 JUMP JUMPDEST PUSH20 0xFFFFFFFFFFFFFFFFFFFFFFFFFFFFFFFFFFFFFFFF AND PUSH1 0x0 DUP1 SLOAD SWAP1 PUSH2 0x100 EXP SWAP1 DIV PUSH20 0xFFFFFFFFFFFFFFFFFFFFFFFFFFFFFFFFFFFFFFFF AND PUSH20 0xFFFFFFFFFFFFFFFFFFFFFFFFFFFFFFFFFFFFFFFF AND EQ PUSH2 0x22E2 JUMPI PUSH1 0x40 MLOAD PUSH32 0x8C379A000000000000000000000000000000000000000000000000000000000 DUP2 MSTORE PUSH1 0x4 ADD PUSH2 0x22D9 SWAP1 PUSH2 0x5E9C JUMP JUMPDEST PUSH1 0x40 MLOAD DUP1 SWAP2 SUB SWAP1 REVERT JUMPDEST PUSH1 0x1 PUSH1 0x7 PUSH1 0x0 DUP4 PUSH20 0xFFFFFFFFFFFFFFFFFFFFFFFFFFFFFFFFFFFFFFFF AND PUSH20 0xFFFFFFFFFFFFFFFFFFFFFFFFFFFFFFFFFFFFFFFF AND DUP2 MSTORE PUSH1 0x20 ADD SWAP1 DUP2 MSTORE PUSH1 0x20 ADD PUSH1 0x0 KECCAK256 PUSH1 0x0 PUSH2 0x100 EXP DUP2 SLOAD DUP2 PUSH1 0xFF MUL NOT AND SWAP1 DUP4 ISZERO ISZERO MUL OR SWAP1 SSTORE POP POP JUMP JUMPDEST PUSH2 0x2345 PUSH2 0x37A6 JUMP JUMPDEST PUSH20 0xFFFFFFFFFFFFFFFFFFFFFFFFFFFFFFFFFFFFFFFF AND PUSH1 0x0 DUP1 SLOAD SWAP1 PUSH2 0x100 EXP SWAP1 DIV PUSH20 0xFFFFFFFFFFFFFFFFFFFFFFFFFFFFFFFFFFFFFFFF AND PUSH20 0xFFFFFFFFFFFFFFFFFFFFFFFFFFFFFFFFFFFFFFFF AND EQ PUSH2 0x23D2 JUMPI PUSH1 0x40 MLOAD PUSH32 0x8C379A000000000000000000000000000000000000000000000000000000000 DUP2 MSTORE PUSH1 0x4 ADD PUSH2 0x23C9 SWAP1 PUSH2 0x5E9C JUMP JUMPDEST PUSH1 0x40 MLOAD DUP1 SWAP2 SUB SWAP1 REVERT JUMPDEST PUSH2 0x190 PUSH1 0x12 PUSH1 0xA PUSH2 0x23E3 SWAP2 SWAP1 PUSH2 0x60B0 JUMP JUMPDEST PUSH4 0x3C14DC0 PUSH2 0x23F2 SWAP2 SWAP1 PUSH2 0x60FB JUMP JUMPDEST PUSH2 0x23FC SWAP2 SWAP1 PUSH2 0x6519 JUMP JUMPDEST DUP2 GT ISZERO PUSH2 0x243E JUMPI PUSH1 0x40 MLOAD PUSH32 0x8C379A000000000000000000000000000000000000000000000000000000000 DUP2 MSTORE PUSH1 0x4 ADD PUSH2 0x2435 SWAP1 PUSH2 0x6596 JUMP JUMPDEST PUSH1 0x40 MLOAD DUP1 SWAP2 SUB SWAP1 REVERT JUMPDEST DUP1 PUSH1 0xC DUP2 SWAP1 SSTORE POP POP JUMP JUMPDEST PUSH1 0xF SLOAD DUP2 JUMP JUMPDEST PUSH1 0x0 PUSH1 0x7 PUSH1 0x0 DUP4 PUSH20 0xFFFFFFFFFFFFFFFFFFFFFFFFFFFFFFFFFFFFFFFF AND PUSH20 0xFFFFFFFFFFFFFFFFFFFFFFFFFFFFFFFFFFFFFFFF AND DUP2 MSTORE PUSH1 0x20 ADD SWAP1 DUP2 MSTORE PUSH1 0x20 ADD PUSH1 0x0 KECCAK256 PUSH1 0x0 SWAP1 SLOAD SWAP1 PUSH2 0x100 EXP SWAP1 DIV PUSH1 0xFF AND SWAP1 POP SWAP2 SWAP1 POP JUMP JUMPDEST PUSH1 0x0 PUSH1 0x8 PUSH1 0x0 DUP4 PUSH20 0xFFFFFFFFFFFFFFFFFFFFFFFFFFFFFFFFFFFFFFFF AND PUSH20 0xFFFFFFFFFFFFFFFFFFFFFFFFFFFFFFFFFFFFFFFF AND DUP2 MSTORE PUSH1 0x20 ADD SWAP1 DUP2 MSTORE PUSH1 0x20 ADD PUSH1 0x0 KECCAK256 PUSH1 0x0 SWAP1 SLOAD SWAP1 PUSH2 0x100 EXP SWAP1 DIV PUSH1 0xFF AND ISZERO PUSH2 0x253F JUMPI PUSH1 0x4 PUSH1 0x0 DUP4 PUSH20 0xFFFFFFFFFFFFFFFFFFFFFFFFFFFFFFFFFFFFFFFF AND PUSH20 0xFFFFFFFFFFFFFFFFFFFFFFFFFFFFFFFFFFFFFFFF AND DUP2 MSTORE PUSH1 0x20 ADD SWAP1 DUP2 MSTORE PUSH1 0x20 ADD PUSH1 0x0 KECCAK256 SLOAD SWAP1 POP PUSH2 0x258A JUMP JUMPDEST PUSH2 0x2587 PUSH1 0x3 PUSH1 0x0 DUP5 PUSH20 0xFFFFFFFFFFFFFFFFFFFFFFFFFFFFFFFFFFFFFFFF AND PUSH20 0xFFFFFFFFFFFFFFFFFFFFFFFFFFFFFFFFFFFFFFFF AND DUP2 MSTORE PUSH1 0x20 ADD SWAP1 DUP2 MSTORE PUSH1 0x20 ADD PUSH1 0x0 KECCAK256 SLOAD PUSH2 0x112E JUMP JUMPDEST SWAP1 POP JUMPDEST SWAP2 SWAP1 POP JUMP JUMPDEST PUSH2 0x2597 PUSH2 0x37A6 JUMP JUMPDEST PUSH20 0xFFFFFFFFFFFFFFFFFFFFFFFFFFFFFFFFFFFFFFFF AND PUSH1 0x0 DUP1 SLOAD SWAP1 PUSH2 0x100 EXP SWAP1 DIV PUSH20 0xFFFFFFFFFFFFFFFFFFFFFFFFFFFFFFFFFFFFFFFF AND PUSH20 0xFFFFFFFFFFFFFFFFFFFFFFFFFFFFFFFFFFFFFFFF AND EQ PUSH2 0x2624 JUMPI PUSH1 0x40 MLOAD PUSH32 0x8C379A000000000000000000000000000000000000000000000000000000000 DUP2 MSTORE PUSH1 0x4 ADD PUSH2 0x261B SWAP1 PUSH2 0x5E9C JUMP JUMPDEST PUSH1 0x40 MLOAD DUP1 SWAP2 SUB SWAP1 REVERT JUMPDEST PUSH1 0x0 PUSH20 0xFFFFFFFFFFFFFFFFFFFFFFFFFFFFFFFFFFFFFFFF AND PUSH1 0x0 DUP1 SLOAD SWAP1 PUSH2 0x100 EXP SWAP1 DIV PUSH20 0xFFFFFFFFFFFFFFFFFFFFFFFFFFFFFFFFFFFFFFFF AND PUSH20 0xFFFFFFFFFFFFFFFFFFFFFFFFFFFFFFFFFFFFFFFF AND PUSH32 0x8BE0079C531659141344CD1FD0A4F28419497F9722A3DAAFE3B4186F6B6457E0 PUSH1 0x40 MLOAD PUSH1 0x40 MLOAD DUP1 SWAP2 SUB SWAP1 LOG3 PUSH1 0x0 DUP1 PUSH1 0x0 PUSH2 0x100 EXP DUP2 SLOAD DUP2 PUSH20 0xFFFFFFFFFFFFFFFFFFFFFFFFFFFFFFFFFFFFFFFF MUL NOT AND SWAP1 DUP4 PUSH20 0xFFFFFFFFFFFFFFFFFFFFFFFFFFFFFFFFFFFFFFFF AND MUL OR SWAP1 SSTORE POP JUMP JUMPDEST PUSH2 0x26EA PUSH2 0x37A6 JUMP JUMPDEST PUSH20 0xFFFFFFFFFFFFFFFFFFFFFFFFFFFFFFFFFFFFFFFF AND PUSH1 0x0 DUP1 SLOAD SWAP1 PUSH2 0x100 EXP SWAP1 DIV PUSH20 0xFFFFFFFFFFFFFFFFFFFFFFFFFFFFFFFFFFFFFFFF AND PUSH20 0xFFFFFFFFFFFFFFFFFFFFFFFFFFFFFFFFFFFFFFFF AND EQ PUSH2 0x2777 JUMPI PUSH1 0x40 MLOAD PUSH32 0x8C379A000000000000000000000000000000000000000000000000000000000 DUP2 MSTORE PUSH1 0x4 ADD PUSH2 0x276E SWAP1 PUSH2 0x5E9C JUMP JUMPDEST PUSH1 0x40 MLOAD DUP1 SWAP2 SUB SWAP1 REVERT JUMPDEST PUSH1 0x0 PUSH1 0xD DUP2 SWAP1 SSTORE POP PUSH1 0xD SLOAD PUSH1 0xE DUP2 SWAP1 SSTORE POP PUSH1 0x0 PUSH1 0xF DUP2 SWAP1 SSTORE POP PUSH1 0xF SLOAD PUSH1 0x10 DUP2 SWAP1 SSTORE POP PUSH1 0x0 PUSH1 0x11 DUP2 SWAP1 SSTORE POP PUSH1 0x11 SLOAD PUSH1 0x12 DUP2 SWAP1 SSTORE POP PUSH1 0x0 PUSH1 0x13 DUP2 SWAP1 SSTORE POP PUSH1 0x13 SLOAD PUSH1 0x15 DUP2 SWAP1 SSTORE POP PUSH1 0x0 PUSH1 0x16 DUP2 SWAP1 SSTORE POP PUSH1 0x16 SLOAD PUSH1 0x18 DUP2 SWAP1 SSTORE POP PUSH32 0x53726DFCAF90650AA7EB35524F4D3220F07413C8D6CB404CC8C18BF5591BC159 PUSH1 0x0 PUSH1 0x40 MLOAD PUSH2 0x27FC SWAP2 SWAP1 PUSH2 0x5B59 JUMP JUMPDEST PUSH1 0x40 MLOAD DUP1 SWAP2 SUB SWAP1 LOG1 JUMP JUMPDEST PUSH1 0x17 PUSH1 0x0 SWAP1 SLOAD SWAP1 PUSH2 0x100 EXP SWAP1 DIV PUSH20 0xFFFFFFFFFFFFFFFFFFFFFFFFFFFFFFFFFFFFFFFF AND DUP2 JUMP JUMPDEST PUSH1 0x1B SLOAD DUP2 JUMP JUMPDEST PUSH1 0x0 PUSH1 0x8 PUSH1 0x0 DUP4 PUSH20 0xFFFFFFFFFFFFFFFFFFFFFFFFFFFFFFFFFFFFFFFF AND PUSH20 0xFFFFFFFFFFFFFFFFFFFFFFFFFFFFFFFFFFFFFFFF AND DUP2 MSTORE PUSH1 0x20 ADD SWAP1 DUP2 MSTORE PUSH1 0x20 ADD PUSH1 0x0 KECCAK256 PUSH1 0x0 SWAP1 SLOAD SWAP1 PUSH2 0x100 EXP SWAP1 DIV PUSH1 0xFF AND SWAP1 POP SWAP2 SWAP1 POP JUMP JUMPDEST PUSH1 0x0 DUP1 PUSH1 0x0 SWAP1 SLOAD SWAP1 PUSH2 0x100 EXP SWAP1 DIV PUSH20 0xFFFFFFFFFFFFFFFFFFFFFFFFFFFFFFFFFFFFFFFF AND SWAP1 POP SWAP1 JUMP JUMPDEST PUSH2 0x28B9 PUSH2 0x37A6 JUMP JUMPDEST PUSH20 0xFFFFFFFFFFFFFFFFFFFFFFFFFFFFFFFFFFFFFFFF AND PUSH1 0x0 DUP1 SLOAD SWAP1 PUSH2 0x100 EXP SWAP1 DIV PUSH20 0xFFFFFFFFFFFFFFFFFFFFFFFFFFFFFFFFFFFFFFFF AND PUSH20 0xFFFFFFFFFFFFFFFFFFFFFFFFFFFFFFFFFFFFFFFF AND EQ PUSH2 0x2946 JUMPI PUSH1 0x40 MLOAD PUSH32 0x8C379A000000000000000000000000000000000000000000000000000000000 DUP2 MSTORE PUSH1 0x4 ADD PUSH2 0x293D SWAP1 PUSH2 0x5E9C JUMP JUMPDEST PUSH1 0x40 MLOAD DUP1 SWAP2 SUB SWAP1 REVERT JUMPDEST DUP1 PUSH1 0xF DUP2 SWAP1 SSTORE POP POP JUMP JUMPDEST PUSH1 0x0 PUSH2 0x295D PUSH2 0xDEAD PUSH2 0x24A4 JUMP JUMPDEST PUSH1 0x12 PUSH1 0xA PUSH2 0x296B SWAP2 SWAP1 PUSH2 0x60B0 JUMP JUMPDEST PUSH4 0x3C14DC0 PUSH2 0x297A SWAP2 SWAP1 PUSH2 0x60FB JUMP JUMPDEST PUSH2 0x2984 SWAP2 SWAP1 PUSH2 0x626A JUMP JUMPDEST SWAP1 POP SWAP1 JUMP JUMPDEST PUSH1 0x60 PUSH1 0x40 MLOAD DUP1 PUSH1 0x40 ADD PUSH1 0x40 MSTORE DUP1 PUSH1 0x4 DUP2 MSTORE PUSH1 0x20 ADD PUSH32 0x414E4E5400000000000000000000000000000000000000000000000000000000 DUP2 MSTORE POP SWAP1 POP SWAP1 JUMP JUMPDEST PUSH1 0x0 PUSH2 0x2A89 PUSH2 0x29D3 PUSH2 0x37A6 JUMP JUMPDEST DUP5 PUSH2 0x2A84 DUP6 PUSH1 0x40 MLOAD DUP1 PUSH1 0x60 ADD PUSH1 0x40 MSTORE DUP1 PUSH1 0x25 DUP2 MSTORE PUSH1 0x20 ADD PUSH2 0x716C PUSH1 0x25 SWAP2 CODECOPY PUSH1 0x5 PUSH1 0x0 PUSH2 0x29FD PUSH2 0x37A6 JUMP JUMPDEST PUSH20 0xFFFFFFFFFFFFFFFFFFFFFFFFFFFFFFFFFFFFFFFF AND PUSH20 0xFFFFFFFFFFFFFFFFFFFFFFFFFFFFFFFFFFFFFFFF AND DUP2 MSTORE PUSH1 0x20 ADD SWAP1 DUP2 MSTORE PUSH1 0x20 ADD PUSH1 0x0 KECCAK256 PUSH1 0x0 DUP11 PUSH20 0xFFFFFFFFFFFFFFFFFFFFFFFFFFFFFFFFFFFFFFFF AND PUSH20 0xFFFFFFFFFFFFFFFFFFFFFFFFFFFFFFFFFFFFFFFF AND DUP2 MSTORE PUSH1 0x20 ADD SWAP1 DUP2 MSTORE PUSH1 0x20 ADD PUSH1 0x0 KECCAK256 SLOAD PUSH2 0x3B61 SWAP1 SWAP3 SWAP2 SWAP1 PUSH4 0xFFFFFFFF AND JUMP JUMPDEST PUSH2 0x37AE JUMP JUMPDEST PUSH1 0x1 SWAP1 POP SWAP3 SWAP2 POP POP JUMP JUMPDEST PUSH2 0x2A9B PUSH2 0x37A6 JUMP JUMPDEST PUSH20 0xFFFFFFFFFFFFFFFFFFFFFFFFFFFFFFFFFFFFFFFF AND PUSH1 0x0 DUP1 SLOAD SWAP1 PUSH2 0x100 EXP SWAP1 DIV PUSH20 0xFFFFFFFFFFFFFFFFFFFFFFFFFFFFFFFFFFFFFFFF AND PUSH20 0xFFFFFFFFFFFFFFFFFFFFFFFFFFFFFFFFFFFFFFFF AND EQ PUSH2 0x2B28 JUMPI PUSH1 0x40 MLOAD PUSH32 0x8C379A000000000000000000000000000000000000000000000000000000000 DUP2 MSTORE PUSH1 0x4 ADD PUSH2 0x2B1F SWAP1 PUSH2 0x5E9C JUMP JUMPDEST PUSH1 0x40 MLOAD DUP1 SWAP2 SUB SWAP1 REVERT JUMPDEST PUSH1 0x0 PUSH1 0x11 DUP2 SWAP1 SSTORE POP JUMP JUMPDEST PUSH1 0x0 PUSH1 0x12 PUSH1 0xA PUSH2 0x2B42 SWAP2 SWAP1 PUSH2 0x60B0 JUMP JUMPDEST PUSH4 0x15EF3C0 PUSH2 0x2B51 SWAP2 SWAP1 PUSH2 0x60FB JUMP JUMPDEST PUSH2 0x2B5C PUSH2 0xDEAD PUSH2 0x24A4 JUMP JUMPDEST PUSH1 0x12 PUSH1 0xA PUSH2 0x2B6A SWAP2 SWAP1 PUSH2 0x60B0 JUMP JUMPDEST PUSH4 0x3C14DC0 PUSH2 0x2B79 SWAP2 SWAP1 PUSH2 0x60FB JUMP JUMPDEST PUSH2 0x2B83 SWAP2 SWAP1 PUSH2 0x626A JUMP JUMPDEST GT PUSH2 0x2B91 JUMPI PUSH1 0x0 PUSH1 0x11 DUP2 SWAP1 SSTORE POP JUMPDEST ADDRESS PUSH20 0xFFFFFFFFFFFFFFFFFFFFFFFFFFFFFFFFFFFFFFFF AND DUP4 PUSH20 0xFFFFFFFFFFFFFFFFFFFFFFFFFFFFFFFFFFFFFFFF AND SUB PUSH2 0x2BFF JUMPI PUSH1 0x40 MLOAD PUSH32 0x8C379A000000000000000000000000000000000000000000000000000000000 DUP2 MSTORE PUSH1 0x4 ADD PUSH2 0x2BF6 SWAP1 PUSH2 0x6628 JUMP JUMPDEST PUSH1 0x40 MLOAD DUP1 SWAP2 SUB SWAP1 REVERT JUMPDEST PUSH2 0xDEAD PUSH20 0xFFFFFFFFFFFFFFFFFFFFFFFFFFFFFFFFFFFFFFFF AND DUP4 PUSH20 0xFFFFFFFFFFFFFFFFFFFFFFFFFFFFFFFFFFFFFFFF AND SUB PUSH2 0x2CE0 JUMPI PUSH2 0x2C3C PUSH2 0x2888 JUMP JUMPDEST PUSH20 0xFFFFFFFFFFFFFFFFFFFFFFFFFFFFFFFFFFFFFFFF AND CALLER PUSH20 0xFFFFFFFFFFFFFFFFFFFFFFFFFFFFFFFFFFFFFFFF AND EQ DUP1 PUSH2 0x2CA0 JUMPI POP ADDRESS PUSH20 0xFFFFFFFFFFFFFFFFFFFFFFFFFFFFFFFFFFFFFFFF AND CALLER PUSH20 0xFFFFFFFFFFFFFFFFFFFFFFFFFFFFFFFFFFFFFFFF AND EQ JUMPDEST PUSH2 0x2CDF JUMPI PUSH1 0x40 MLOAD PUSH32 0x8C379A000000000000000000000000000000000000000000000000000000000 DUP2 MSTORE PUSH1 0x4 ADD PUSH2 0x2CD6 SWAP1 PUSH2 0x66E0 JUMP JUMPDEST PUSH1 0x40 MLOAD DUP1 SWAP2 SUB SWAP1 REVERT JUMPDEST JUMPDEST PUSH2 0x2CF2 PUSH2 0x2CEB PUSH2 0x37A6 JUMP JUMPDEST DUP5 DUP5 PUSH2 0x3977 JUMP JUMPDEST PUSH1 0x1 SWAP1 POP SWAP3 SWAP2 POP POP JUMP JUMPDEST PUSH2 0x2D04 PUSH2 0x37A6 JUMP JUMPDEST PUSH20 0xFFFFFFFFFFFFFFFFFFFFFFFFFFFFFFFFFFFFFFFF AND PUSH1 0x0 DUP1 SLOAD SWAP1 PUSH2 0x100 EXP SWAP1 DIV PUSH20 0xFFFFFFFFFFFFFFFFFFFFFFFFFFFFFFFFFFFFFFFF AND PUSH20 0xFFFFFFFFFFFFFFFFFFFFFFFFFFFFFFFFFFFFFFFF AND EQ PUSH2 0x2D91 JUMPI PUSH1 0x40 MLOAD PUSH32 0x8C379A000000000000000000000000000000000000000000000000000000000 DUP2 MSTORE PUSH1 0x4 ADD PUSH2 0x2D88 SWAP1 PUSH2 0x5E9C JUMP JUMPDEST PUSH1 0x40 MLOAD DUP1 SWAP2 SUB SWAP1 REVERT JUMPDEST DUP1 PUSH1 0x16 DUP2 SWAP1 SSTORE POP POP JUMP JUMPDEST PUSH1 0x14 PUSH1 0x0 SWAP1 SLOAD SWAP1 PUSH2 0x100 EXP SWAP1 DIV PUSH20 0xFFFFFFFFFFFFFFFFFFFFFFFFFFFFFFFFFFFFFFFF AND DUP2 JUMP JUMPDEST PUSH1 0x11 SLOAD DUP2 JUMP JUMPDEST PUSH2 0x2DCF PUSH2 0x37A6 JUMP JUMPDEST PUSH20 0xFFFFFFFFFFFFFFFFFFFFFFFFFFFFFFFFFFFFFFFF AND PUSH1 0x0 DUP1 SLOAD SWAP1 PUSH2 0x100 EXP SWAP1 DIV PUSH20 0xFFFFFFFFFFFFFFFFFFFFFFFFFFFFFFFFFFFFFFFF AND PUSH20 0xFFFFFFFFFFFFFFFFFFFFFFFFFFFFFFFFFFFFFFFF AND EQ PUSH2 0x2E5C JUMPI PUSH1 0x40 MLOAD PUSH32 0x8C379A000000000000000000000000000000000000000000000000000000000 DUP2 MSTORE PUSH1 0x4 ADD PUSH2 0x2E53 SWAP1 PUSH2 0x5E9C JUMP JUMPDEST PUSH1 0x40 MLOAD DUP1 SWAP2 SUB SWAP1 REVERT JUMPDEST DUP1 PUSH1 0x1A PUSH1 0x15 PUSH2 0x100 EXP DUP2 SLOAD DUP2 PUSH1 0xFF MUL NOT AND SWAP1 DUP4 ISZERO ISZERO MUL OR SWAP1 SSTORE POP PUSH32 0x53726DFCAF90650AA7EB35524F4D3220F07413C8D6CB404CC8C18BF5591BC159 DUP2 PUSH1 0x40 MLOAD PUSH2 0x2EA5 SWAP2 SWAP1 PUSH2 0x5B59 JUMP JUMPDEST PUSH1 0x40 MLOAD DUP1 SWAP2 SUB SWAP1 LOG1 POP JUMP JUMPDEST PUSH2 0x2EB8 PUSH2 0x37A6 JUMP JUMPDEST PUSH20 0xFFFFFFFFFFFFFFFFFFFFFFFFFFFFFFFFFFFFFFFF AND PUSH1 0x0 DUP1 SLOAD SWAP1 PUSH2 0x100 EXP SWAP1 DIV PUSH20 0xFFFFFFFFFFFFFFFFFFFFFFFFFFFFFFFFFFFFFFFF AND PUSH20 0xFFFFFFFFFFFFFFFFFFFFFFFFFFFFFFFFFFFFFFFF AND EQ PUSH2 0x2F45 JUMPI PUSH1 0x40 MLOAD PUSH32 0x8C379A000000000000000000000000000000000000000000000000000000000 DUP2 MSTORE PUSH1 0x4 ADD PUSH2 0x2F3C SWAP1 PUSH2 0x5E9C JUMP JUMPDEST PUSH1 0x40 MLOAD DUP1 SWAP2 SUB SWAP1 REVERT JUMPDEST PUSH1 0x2 DUP1 SLOAD SUB PUSH2 0x2F89 JUMPI PUSH1 0x40 MLOAD PUSH32 0x8C379A000000000000000000000000000000000000000000000000000000000 DUP2 MSTORE PUSH1 0x4 ADD PUSH2 0x2F80 SWAP1 PUSH2 0x674C JUMP JUMPDEST PUSH1 0x40 MLOAD DUP1 SWAP2 SUB SWAP1 REVERT JUMPDEST PUSH1 0x2 DUP1 DUP2 SWAP1 SSTORE POP PUSH1 0x0 PUSH20 0xFFFFFFFFFFFFFFFFFFFFFFFFFFFFFFFFFFFFFFFF AND DUP3 PUSH20 0xFFFFFFFFFFFFFFFFFFFFFFFFFFFFFFFFFFFFFFFF AND SUB PUSH2 0x2FFF JUMPI PUSH1 0x40 MLOAD PUSH32 0x8C379A000000000000000000000000000000000000000000000000000000000 DUP2 MSTORE PUSH1 0x4 ADD PUSH2 0x2FF6 SWAP1 PUSH2 0x67DE JUMP JUMPDEST PUSH1 0x40 MLOAD DUP1 SWAP2 SUB SWAP1 REVERT JUMPDEST SELFBALANCE DUP2 GT ISZERO PUSH2 0x3042 JUMPI PUSH1 0x40 MLOAD PUSH32 0x8C379A000000000000000000000000000000000000000000000000000000000 DUP2 MSTORE PUSH1 0x4 ADD PUSH2 0x3039 SWAP1 PUSH2 0x6870 JUMP JUMPDEST PUSH1 0x40 MLOAD DUP1 SWAP2 SUB SWAP1 REVERT JUMPDEST DUP2 PUSH20 0xFFFFFFFFFFFFFFFFFFFFFFFFFFFFFFFFFFFFFFFF AND PUSH2 0x8FC DUP3 SWAP1 DUP2 ISZERO MUL SWAP1 PUSH1 0x40 MLOAD PUSH1 0x0 PUSH1 0x40 MLOAD DUP1 DUP4 SUB DUP2 DUP6 DUP9 DUP9 CALL SWAP4 POP POP POP POP ISZERO DUP1 ISZERO PUSH2 0x3088 JUMPI RETURNDATASIZE PUSH1 0x0 DUP1 RETURNDATACOPY RETURNDATASIZE PUSH1 0x0 REVERT JUMPDEST POP PUSH1 0x1 PUSH1 0x2 DUP2 SWAP1 SSTORE POP POP POP JUMP JUMPDEST PUSH2 0x309D PUSH2 0x37A6 JUMP JUMPDEST PUSH20 0xFFFFFFFFFFFFFFFFFFFFFFFFFFFFFFFFFFFFFFFF AND PUSH1 0x0 DUP1 SLOAD SWAP1 PUSH2 0x100 EXP SWAP1 DIV PUSH20 0xFFFFFFFFFFFFFFFFFFFFFFFFFFFFFFFFFFFFFFFF AND PUSH20 0xFFFFFFFFFFFFFFFFFFFFFFFFFFFFFFFFFFFFFFFF AND EQ PUSH2 0x312A JUMPI PUSH1 0x40 MLOAD PUSH32 0x8C379A000000000000000000000000000000000000000000000000000000000 DUP2 MSTORE PUSH1 0x4 ADD PUSH2 0x3121 SWAP1 PUSH2 0x5E9C JUMP JUMPDEST PUSH1 0x40 MLOAD DUP1 SWAP2 SUB SWAP1 REVERT JUMPDEST DUP1 PUSH1 0x11 DUP2 SWAP1 SSTORE POP POP JUMP JUMPDEST PUSH1 0x1C SLOAD DUP2 JUMP JUMPDEST PUSH1 0x13 SLOAD DUP2 JUMP JUMPDEST PUSH1 0x0 PUSH1 0x16 SLOAD PUSH1 0x13 SLOAD PUSH1 0x11 SLOAD PUSH1 0xF SLOAD PUSH2 0x3158 SWAP2 SWAP1 PUSH2 0x6890 JUMP JUMPDEST PUSH2 0x3162 SWAP2 SWAP1 PUSH2 0x6890 JUMP JUMPDEST PUSH2 0x316C SWAP2 SWAP1 PUSH2 0x6890 JUMP JUMPDEST SWAP1 POP SWAP1 JUMP JUMPDEST PUSH1 0x0 PUSH2 0x317E PUSH2 0xDEAD PUSH2 0x24A4 JUMP JUMPDEST SWAP1 POP SWAP1 JUMP JUMPDEST PUSH1 0x0 PUSH1 0x5 PUSH1 0x0 DUP5 PUSH20 0xFFFFFFFFFFFFFFFFFFFFFFFFFFFFFFFFFFFFFFFF AND PUSH20 0xFFFFFFFFFFFFFFFFFFFFFFFFFFFFFFFFFFFFFFFF AND DUP2 MSTORE PUSH1 0x20 ADD SWAP1 DUP2 MSTORE PUSH1 0x20 ADD PUSH1 0x0 KECCAK256 PUSH1 0x0 DUP4 PUSH20 0xFFFFFFFFFFFFFFFFFFFFFFFFFFFFFFFFFFFFFFFF AND PUSH20 0xFFFFFFFFFFFFFFFFFFFFFFFFFFFFFFFFFFFFFFFF AND DUP2 MSTORE PUSH1 0x20 ADD SWAP1 DUP2 MSTORE PUSH1 0x20 ADD PUSH1 0x0 KECCAK256 SLOAD SWAP1 POP SWAP3 SWAP2 POP POP JUMP JUMPDEST PUSH1 0x19 PUSH1 0x0 SWAP1 SLOAD SWAP1 PUSH2 0x100 EXP SWAP1 DIV PUSH20 0xFFFFFFFFFFFFFFFFFFFFFFFFFFFFFFFFFFFFFFFF AND DUP2 JUMP JUMPDEST PUSH2 0x3238 PUSH2 0x37A6 JUMP JUMPDEST PUSH20 0xFFFFFFFFFFFFFFFFFFFFFFFFFFFFFFFFFFFFFFFF AND PUSH1 0x0 DUP1 SLOAD SWAP1 PUSH2 0x100 EXP SWAP1 DIV PUSH20 0xFFFFFFFFFFFFFFFFFFFFFFFFFFFFFFFFFFFFFFFF AND PUSH20 0xFFFFFFFFFFFFFFFFFFFFFFFFFFFFFFFFFFFFFFFF AND EQ PUSH2 0x32C5 JUMPI PUSH1 0x40 MLOAD PUSH32 0x8C379A000000000000000000000000000000000000000000000000000000000 DUP2 MSTORE PUSH1 0x4 ADD PUSH2 0x32BC SWAP1 PUSH2 0x5E9C JUMP JUMPDEST PUSH1 0x40 MLOAD DUP1 SWAP2 SUB SWAP1 REVERT JUMPDEST PUSH1 0x0 PUSH1 0x6 PUSH1 0x0 DUP4 PUSH20 0xFFFFFFFFFFFFFFFFFFFFFFFFFFFFFFFFFFFFFFFF AND PUSH20 0xFFFFFFFFFFFFFFFFFFFFFFFFFFFFFFFFFFFFFFFF AND DUP2 MSTORE PUSH1 0x20 ADD SWAP1 DUP2 MSTORE PUSH1 0x20 ADD PUSH1 0x0 KECCAK256 PUSH1 0x0 PUSH2 0x100 EXP DUP2 SLOAD DUP2 PUSH1 0xFF MUL NOT AND SWAP1 DUP4 ISZERO ISZERO MUL OR SWAP1 SSTORE POP POP JUMP JUMPDEST PUSH2 0x3328 PUSH2 0x37A6 JUMP JUMPDEST PUSH20 0xFFFFFFFFFFFFFFFFFFFFFFFFFFFFFFFFFFFFFFFF AND PUSH1 0x0 DUP1 SLOAD SWAP1 PUSH2 0x100 EXP SWAP1 DIV PUSH20 0xFFFFFFFFFFFFFFFFFFFFFFFFFFFFFFFFFFFFFFFF AND PUSH20 0xFFFFFFFFFFFFFFFFFFFFFFFFFFFFFFFFFFFFFFFF AND EQ PUSH2 0x33B5 JUMPI PUSH1 0x40 MLOAD PUSH32 0x8C379A000000000000000000000000000000000000000000000000000000000 DUP2 MSTORE PUSH1 0x4 ADD PUSH2 0x33AC SWAP1 PUSH2 0x5E9C JUMP JUMPDEST PUSH1 0x40 MLOAD DUP1 SWAP2 SUB SWAP1 REVERT JUMPDEST DUP1 PUSH1 0x1B DUP2 SWAP1 SSTORE POP POP JUMP JUMPDEST PUSH2 0x33C7 PUSH2 0x37A6 JUMP JUMPDEST PUSH20 0xFFFFFFFFFFFFFFFFFFFFFFFFFFFFFFFFFFFFFFFF AND PUSH1 0x0 DUP1 SLOAD SWAP1 PUSH2 0x100 EXP SWAP1 DIV PUSH20 0xFFFFFFFFFFFFFFFFFFFFFFFFFFFFFFFFFFFFFFFF AND PUSH20 0xFFFFFFFFFFFFFFFFFFFFFFFFFFFFFFFFFFFFFFFF AND EQ PUSH2 0x3454 JUMPI PUSH1 0x40 MLOAD PUSH32 0x8C379A000000000000000000000000000000000000000000000000000000000 DUP2 MSTORE PUSH1 0x4 ADD PUSH2 0x344B SWAP1 PUSH2 0x5E9C JUMP JUMPDEST PUSH1 0x40 MLOAD DUP1 SWAP2 SUB SWAP1 REVERT JUMPDEST PUSH1 0x12 PUSH1 0xA PUSH2 0x3462 SWAP2 SWAP1 PUSH2 0x60B0 JUMP JUMPDEST PUSH2 0x2710 PUSH2 0x346F SWAP2 SWAP1 PUSH2 0x60FB JUMP JUMPDEST DUP2 GT ISZERO PUSH2 0x34B1 JUMPI PUSH1 0x40 MLOAD PUSH32 0x8C379A000000000000000000000000000000000000000000000000000000000 DUP2 MSTORE PUSH1 0x4 ADD PUSH2 0x34A8 SWAP1 PUSH2 0x6936 JUMP JUMPDEST PUSH1 0x40 MLOAD DUP1 SWAP2 SUB SWAP1 REVERT JUMPDEST DUP1 PUSH1 0x1C DUP2 SWAP1 SSTORE POP POP JUMP JUMPDEST PUSH2 0x34C3 PUSH2 0x37A6 JUMP JUMPDEST PUSH20 0xFFFFFFFFFFFFFFFFFFFFFFFFFFFFFFFFFFFFFFFF AND PUSH1 0x0 DUP1 SLOAD SWAP1 PUSH2 0x100 EXP SWAP1 DIV PUSH20 0xFFFFFFFFFFFFFFFFFFFFFFFFFFFFFFFFFFFFFFFF AND PUSH20 0xFFFFFFFFFFFFFFFFFFFFFFFFFFFFFFFFFFFFFFFF AND EQ PUSH2 0x3550 JUMPI PUSH1 0x40 MLOAD PUSH32 0x8C379A000000000000000000000000000000000000000000000000000000000 DUP2 MSTORE PUSH1 0x4 ADD PUSH2 0x3547 SWAP1 PUSH2 0x5E9C JUMP JUMPDEST PUSH1 0x40 MLOAD DUP1 SWAP2 SUB SWAP1 REVERT JUMPDEST PUSH1 0x0 PUSH20 0xFFFFFFFFFFFFFFFFFFFFFFFFFFFFFFFFFFFFFFFF AND DUP2 PUSH20 0xFFFFFFFFFFFFFFFFFFFFFFFFFFFFFFFFFFFFFFFF AND SUB PUSH2 0x35BF JUMPI PUSH1 0x40 MLOAD PUSH32 0x8C379A000000000000000000000000000000000000000000000000000000000 DUP2 MSTORE PUSH1 0x4 ADD PUSH2 0x35B6 SWAP1 PUSH2 0x69C8 JUMP JUMPDEST PUSH1 0x40 MLOAD DUP1 SWAP2 SUB SWAP1 REVERT JUMPDEST DUP1 PUSH20 0xFFFFFFFFFFFFFFFFFFFFFFFFFFFFFFFFFFFFFFFF AND PUSH1 0x0 DUP1 SLOAD SWAP1 PUSH2 0x100 EXP SWAP1 DIV PUSH20 0xFFFFFFFFFFFFFFFFFFFFFFFFFFFFFFFFFFFFFFFF AND PUSH20 0xFFFFFFFFFFFFFFFFFFFFFFFFFFFFFFFFFFFFFFFF AND PUSH32 0x8BE0079C531659141344CD1FD0A4F28419497F9722A3DAAFE3B4186F6B6457E0 PUSH1 0x40 MLOAD PUSH1 0x40 MLOAD DUP1 SWAP2 SUB SWAP1 LOG3 DUP1 PUSH1 0x0 DUP1 PUSH2 0x100 EXP DUP2 SLOAD DUP2 PUSH20 0xFFFFFFFFFFFFFFFFFFFFFFFFFFFFFFFFFFFFFFFF MUL NOT AND SWAP1 DUP4 PUSH20 0xFFFFFFFFFFFFFFFFFFFFFFFFFFFFFFFFFFFFFFFF AND MUL OR SWAP1 SSTORE POP POP JUMP JUMPDEST PUSH2 0xDEAD DUP2 JUMP JUMPDEST PUSH2 0x368A PUSH2 0x37A6 JUMP JUMPDEST PUSH20 0xFFFFFFFFFFFFFFFFFFFFFFFFFFFFFFFFFFFFFFFF AND PUSH1 0x0 DUP1 SLOAD SWAP1 PUSH2 0x100 EXP SWAP1 DIV PUSH20 0xFFFFFFFFFFFFFFFFFFFFFFFFFFFFFFFFFFFFFFFF AND PUSH20 0xFFFFFFFFFFFFFFFFFFFFFFFFFFFFFFFFFFFFFFFF AND EQ PUSH2 0x3717 JUMPI PUSH1 0x40 MLOAD PUSH32 0x8C379A000000000000000000000000000000000000000000000000000000000 DUP2 MSTORE PUSH1 0x4 ADD PUSH2 0x370E SWAP1 PUSH2 0x5E9C JUMP JUMPDEST PUSH1 0x40 MLOAD DUP1 SWAP2 SUB SWAP1 REVERT JUMPDEST PUSH1 0x0 PUSH1 0xD DUP2 SWAP1 SSTORE POP PUSH1 0xD SLOAD PUSH1 0xE DUP2 SWAP1 SSTORE POP PUSH1 0x3 PUSH1 0xF DUP2 SWAP1 SSTORE POP PUSH1 0xF SLOAD PUSH1 0x10 DUP2 SWAP1 SSTORE POP PUSH1 0x2 PUSH1 0x11 DUP2 SWAP1 SSTORE POP PUSH1 0x11 SLOAD PUSH1 0x12 DUP2 SWAP1 SSTORE POP PUSH1 0x3 PUSH1 0x13 DUP2 SWAP1 SSTORE POP PUSH1 0x13 SLOAD PUSH1 0x15 DUP2 SWAP1 SSTORE POP PUSH1 0x2 PUSH1 0x16 DUP2 SWAP1 SSTORE POP PUSH1 0x16 SLOAD PUSH1 0x18 DUP2 SWAP1 SSTORE POP PUSH32 0x53726DFCAF90650AA7EB35524F4D3220F07413C8D6CB404CC8C18BF5591BC159 PUSH1 0x0 PUSH1 0x40 MLOAD PUSH2 0x379C SWAP2 SWAP1 PUSH2 0x5B59 JUMP JUMPDEST PUSH1 0x40 MLOAD DUP1 SWAP2 SUB SWAP1 LOG1 JUMP JUMPDEST PUSH1 0x0 CALLER SWAP1 POP SWAP1 JUMP JUMPDEST PUSH1 0x0 PUSH20 0xFFFFFFFFFFFFFFFFFFFFFFFFFFFFFFFFFFFFFFFF AND DUP4 PUSH20 0xFFFFFFFFFFFFFFFFFFFFFFFFFFFFFFFFFFFFFFFF AND SUB PUSH2 0x381D JUMPI PUSH1 0x40 MLOAD PUSH32 0x8C379A000000000000000000000000000000000000000000000000000000000 DUP2 MSTORE PUSH1 0x4 ADD PUSH2 0x3814 SWAP1 PUSH2 0x6A5A JUMP JUMPDEST PUSH1 0x40 MLOAD DUP1 SWAP2 SUB SWAP1 REVERT JUMPDEST PUSH1 0x0 PUSH20 0xFFFFFFFFFFFFFFFFFFFFFFFFFFFFFFFFFFFFFFFF AND DUP3 PUSH20 0xFFFFFFFFFFFFFFFFFFFFFFFFFFFFFFFFFFFFFFFF AND SUB PUSH2 0x388C JUMPI PUSH1 0x40 MLOAD PUSH32 0x8C379A000000000000000000000000000000000000000000000000000000000 DUP2 MSTORE PUSH1 0x4 ADD PUSH2 0x3883 SWAP1 PUSH2 0x6AEC JUMP JUMPDEST PUSH1 0x40 MLOAD DUP1 SWAP2 SUB SWAP1 REVERT JUMPDEST DUP1 PUSH1 0x5 PUSH1 0x0 DUP6 PUSH20 0xFFFFFFFFFFFFFFFFFFFFFFFFFFFFFFFFFFFFFFFF AND PUSH20 0xFFFFFFFFFFFFFFFFFFFFFFFFFFFFFFFFFFFFFFFF AND DUP2 MSTORE PUSH1 0x20 ADD SWAP1 DUP2 MSTORE PUSH1 0x20 ADD PUSH1 0x0 KECCAK256 PUSH1 0x0 DUP5 PUSH20 0xFFFFFFFFFFFFFFFFFFFFFFFFFFFFFFFFFFFFFFFF AND PUSH20 0xFFFFFFFFFFFFFFFFFFFFFFFFFFFFFFFFFFFFFFFF AND DUP2 MSTORE PUSH1 0x20 ADD SWAP1 DUP2 MSTORE PUSH1 0x20 ADD PUSH1 0x0 KECCAK256 DUP2 SWAP1 SSTORE POP DUP2 PUSH20 0xFFFFFFFFFFFFFFFFFFFFFFFFFFFFFFFFFFFFFFFF AND DUP4 PUSH20 0xFFFFFFFFFFFFFFFFFFFFFFFFFFFFFFFFFFFFFFFF AND PUSH32 0x8C5BE1E5EBEC7D5BD14F71427D1E84F3DD0314C0F7B2291E5B200AC8C7C3B925 DUP4 PUSH1 0x40 MLOAD PUSH2 0x396A SWAP2 SWAP1 PUSH2 0x5BB0 JUMP JUMPDEST PUSH1 0x40 MLOAD DUP1 SWAP2 SUB SWAP1 LOG3 POP POP POP JUMP JUMPDEST PUSH1 0x0 PUSH20 0xFFFFFFFFFFFFFFFFFFFFFFFFFFFFFFFFFFFFFFFF AND DUP4 PUSH20 0xFFFFFFFFFFFFFFFFFFFFFFFFFFFFFFFFFFFFFFFF AND SUB PUSH2 0x39E6 JUMPI PUSH1 0x40 MLOAD PUSH32 0x8C379A000000000000000000000000000000000000000000000000000000000 DUP2 MSTORE PUSH1 0x4 ADD PUSH2 0x39DD SWAP1 PUSH2 0x6B7E JUMP JUMPDEST PUSH1 0x40 MLOAD DUP1 SWAP2 SUB SWAP1 REVERT JUMPDEST PUSH1 0x0 PUSH20 0xFFFFFFFFFFFFFFFFFFFFFFFFFFFFFFFFFFFFFFFF AND DUP3 PUSH20 0xFFFFFFFFFFFFFFFFFFFFFFFFFFFFFFFFFFFFFFFF AND SUB PUSH2 0x3A55 JUMPI PUSH1 0x40 MLOAD PUSH32 0x8C379A000000000000000000000000000000000000000000000000000000000 DUP2 MSTORE PUSH1 0x4 ADD PUSH2 0x3A4C SWAP1 PUSH2 0x6C10 JUMP JUMPDEST PUSH1 0x40 MLOAD DUP1 SWAP2 SUB SWAP1 REVERT JUMPDEST PUSH1 0x0 DUP2 GT PUSH2 0x3A98 JUMPI PUSH1 0x40 MLOAD PUSH32 0x8C379A000000000000000000000000000000000000000000000000000000000 DUP2 MSTORE PUSH1 0x4 ADD PUSH2 0x3A8F SWAP1 PUSH2 0x6CA2 JUMP JUMPDEST PUSH1 0x40 MLOAD DUP1 SWAP2 SUB SWAP1 REVERT JUMPDEST PUSH1 0x0 PUSH2 0x3AA3 ADDRESS PUSH2 0x24A4 JUMP JUMPDEST SWAP1 POP PUSH1 0x0 PUSH1 0x1C SLOAD DUP3 LT ISZERO SWAP1 POP DUP1 DUP1 ISZERO PUSH2 0x3AC9 JUMPI POP PUSH1 0x1A PUSH1 0x14 SWAP1 SLOAD SWAP1 PUSH2 0x100 EXP SWAP1 DIV PUSH1 0xFF AND ISZERO JUMPDEST DUP1 ISZERO PUSH2 0x3B23 JUMPI POP PUSH1 0x1A PUSH1 0x0 SWAP1 SLOAD SWAP1 PUSH2 0x100 EXP SWAP1 DIV PUSH20 0xFFFFFFFFFFFFFFFFFFFFFFFFFFFFFFFFFFFFFFFF AND PUSH20 0xFFFFFFFFFFFFFFFFFFFFFFFFFFFFFFFFFFFFFFFF AND DUP6 PUSH20 0xFFFFFFFFFFFFFFFFFFFFFFFFFFFFFFFFFFFFFFFF AND EQ ISZERO JUMPDEST DUP1 ISZERO PUSH2 0x3B3B JUMPI POP PUSH1 0x1A PUSH1 0x15 SWAP1 SLOAD SWAP1 PUSH2 0x100 EXP SWAP1 DIV PUSH1 0xFF AND JUMPDEST ISZERO PUSH2 0x3B4F JUMPI PUSH1 0x1C SLOAD SWAP2 POP PUSH2 0x3B4E DUP3 PUSH2 0x3C69 JUMP JUMPDEST JUMPDEST PUSH2 0x3B5A DUP6 DUP6 DUP6 PUSH2 0x3D40 JUMP JUMPDEST POP POP POP POP POP JUMP JUMPDEST PUSH1 0x0 DUP4 DUP4 GT ISZERO DUP3 SWAP1 PUSH2 0x3BA9 JUMPI PUSH1 0x40 MLOAD PUSH32 0x8C379A000000000000000000000000000000000000000000000000000000000 DUP2 MSTORE PUSH1 0x4 ADD PUSH2 0x3BA0 SWAP2 SWAP1 PUSH2 0x5A7E JUMP JUMPDEST PUSH1 0x40 MLOAD DUP1 SWAP2 SUB SWAP1 REVERT JUMPDEST POP DUP3 DUP5 SUB SWAP1 POP SWAP4 SWAP3 POP POP POP JUMP JUMPDEST PUSH1 0x0 DUP1 PUSH1 0x0 PUSH2 0x3BC3 PUSH2 0x4574 JUMP JUMPDEST SWAP2 POP SWAP2 POP PUSH2 0x3BDA DUP2 DUP4 PUSH2 0x3BE1 SWAP1 SWAP2 SWAP1 PUSH4 0xFFFFFFFF AND JUMP JUMPDEST SWAP3 POP POP POP SWAP1 JUMP JUMPDEST PUSH1 0x0 DUP2 DUP4 PUSH2 0x3BEF SWAP2 SWAP1 PUSH2 0x6519 JUMP JUMPDEST SWAP1 POP SWAP3 SWAP2 POP POP JUMP JUMPDEST PUSH1 0x0 DUP2 DUP4 PUSH2 0x3C05 SWAP2 SWAP1 PUSH2 0x6890 JUMP JUMPDEST SWAP1 POP SWAP3 SWAP2 POP POP JUMP JUMPDEST PUSH1 0x0 DUP1 PUSH1 0x0 DUP1 PUSH1 0x0 DUP1 PUSH1 0x0 DUP1 PUSH1 0x0 PUSH2 0x3C24 DUP11 PUSH2 0x488F JUMP JUMPDEST SWAP3 POP SWAP3 POP SWAP3 POP PUSH1 0x0 DUP1 PUSH1 0x0 PUSH2 0x3C42 DUP14 DUP7 DUP7 PUSH2 0x3C3D PUSH2 0x3BB6 JUMP JUMPDEST PUSH2 0x48E9 JUMP JUMPDEST SWAP3 POP SWAP3 POP SWAP3 POP DUP3 DUP3 DUP3 DUP9 DUP9 DUP9 SWAP12 POP SWAP12 POP SWAP12 POP SWAP12 POP SWAP12 POP SWAP12 POP POP POP POP POP POP POP SWAP2 SWAP4 SWAP6 POP SWAP2 SWAP4 SWAP6 JUMP JUMPDEST PUSH1 0x1 PUSH1 0x1A PUSH1 0x14 PUSH2 0x100 EXP DUP2 SLOAD DUP2 PUSH1 0xFF MUL NOT AND SWAP1 DUP4 ISZERO ISZERO MUL OR SWAP1 SSTORE POP PUSH1 0x0 PUSH2 0x3C9A PUSH1 0x2 DUP4 PUSH2 0x3BE1 SWAP1 SWAP2 SWAP1 PUSH4 0xFFFFFFFF AND JUMP JUMPDEST SWAP1 POP PUSH1 0x0 PUSH2 0x3CB1 DUP3 DUP5 PUSH2 0x4972 SWAP1 SWAP2 SWAP1 PUSH4 0xFFFFFFFF AND JUMP JUMPDEST SWAP1 POP PUSH1 0x0 SELFBALANCE SWAP1 POP PUSH2 0x3CC1 DUP4 PUSH2 0x4988 JUMP JUMPDEST POP PUSH1 0x0 PUSH2 0x3CD7 DUP3 SELFBALANCE PUSH2 0x4972 SWAP1 SWAP2 SWAP1 PUSH4 0xFFFFFFFF AND JUMP JUMPDEST SWAP1 POP PUSH2 0x3CE3 DUP4 DUP3 PUSH2 0x4C44 JUMP JUMPDEST PUSH32 0x17BBFB9A6069321B6DED73BD96327C9E6B7212A5CD51FF219CD61370ACAFB561 DUP5 DUP3 DUP6 PUSH1 0x40 MLOAD PUSH2 0x3D16 SWAP4 SWAP3 SWAP2 SWAP1 PUSH2 0x6CC2 JUMP JUMPDEST PUSH1 0x40 MLOAD DUP1 SWAP2 SUB SWAP1 LOG1 POP POP POP POP PUSH1 0x0 PUSH1 0x1A PUSH1 0x14 PUSH2 0x100 EXP DUP2 SLOAD DUP2 PUSH1 0xFF MUL NOT AND SWAP1 DUP4 ISZERO ISZERO MUL OR SWAP1 SSTORE POP POP JUMP JUMPDEST PUSH1 0x12 PUSH1 0xA PUSH2 0x3D4E SWAP2 SWAP1 PUSH2 0x60B0 JUMP JUMPDEST PUSH4 0x15EF3C0 PUSH2 0x3D5D SWAP2 SWAP1 PUSH2 0x60FB JUMP JUMPDEST PUSH2 0x3D68 PUSH2 0xDEAD PUSH2 0x24A4 JUMP JUMPDEST PUSH1 0x12 PUSH1 0xA PUSH2 0x3D76 SWAP2 SWAP1 PUSH2 0x60B0 JUMP JUMPDEST PUSH4 0x3C14DC0 PUSH2 0x3D85 SWAP2 SWAP1 PUSH2 0x60FB JUMP JUMPDEST PUSH2 0x3D8F SWAP2 SWAP1 PUSH2 0x626A JUMP JUMPDEST GT PUSH2 0x3D9D JUMPI PUSH1 0x0 PUSH1 0x11 DUP2 SWAP1 SSTORE POP JUMPDEST PUSH1 0x6 PUSH1 0x0 DUP5 PUSH20 0xFFFFFFFFFFFFFFFFFFFFFFFFFFFFFFFFFFFFFFFF AND PUSH20 0xFFFFFFFFFFFFFFFFFFFFFFFFFFFFFFFFFFFFFFFF AND DUP2 MSTORE PUSH1 0x20 ADD SWAP1 DUP2 MSTORE PUSH1 0x20 ADD PUSH1 0x0 KECCAK256 PUSH1 0x0 SWAP1 SLOAD SWAP1 PUSH2 0x100 EXP SWAP1 DIV PUSH1 0xFF AND DUP1 PUSH2 0x3E3E JUMPI POP PUSH1 0x6 PUSH1 0x0 DUP4 PUSH20 0xFFFFFFFFFFFFFFFFFFFFFFFFFFFFFFFFFFFFFFFF AND PUSH20 0xFFFFFFFFFFFFFFFFFFFFFFFFFFFFFFFFFFFFFFFF AND DUP2 MSTORE PUSH1 0x20 ADD SWAP1 DUP2 MSTORE PUSH1 0x20 ADD PUSH1 0x0 KECCAK256 PUSH1 0x0 SWAP1 SLOAD SWAP1 PUSH2 0x100 EXP SWAP1 DIV PUSH1 0xFF AND JUMPDEST ISZERO PUSH2 0x3E50 JUMPI PUSH2 0x3E4B PUSH2 0x4D5B JUMP JUMPDEST PUSH2 0x3E96 JUMP JUMPDEST PUSH1 0x1B SLOAD DUP2 GT ISZERO PUSH2 0x3E95 JUMPI PUSH1 0x40 MLOAD PUSH32 0x8C379A000000000000000000000000000000000000000000000000000000000 DUP2 MSTORE PUSH1 0x4 ADD PUSH2 0x3E8C SWAP1 PUSH2 0x6D6B JUMP JUMPDEST PUSH1 0x40 MLOAD DUP1 SWAP2 SUB SWAP1 REVERT JUMPDEST JUMPDEST PUSH1 0x1A PUSH1 0x0 SWAP1 SLOAD SWAP1 PUSH2 0x100 EXP SWAP1 DIV PUSH20 0xFFFFFFFFFFFFFFFFFFFFFFFFFFFFFFFFFFFFFFFF AND PUSH20 0xFFFFFFFFFFFFFFFFFFFFFFFFFFFFFFFFFFFFFFFF AND DUP3 PUSH20 0xFFFFFFFFFFFFFFFFFFFFFFFFFFFFFFFFFFFFFFFF AND EQ PUSH2 0x3F98 JUMPI PUSH1 0xC SLOAD DUP2 PUSH2 0x3EF8 DUP5 PUSH2 0x24A4 JUMP JUMPDEST PUSH2 0x3F02 SWAP2 SWAP1 PUSH2 0x6890 JUMP JUMPDEST GT ISZERO DUP1 PUSH2 0x3F58 JUMPI POP PUSH1 0x7 PUSH1 0x0 DUP4 PUSH20 0xFFFFFFFFFFFFFFFFFFFFFFFFFFFFFFFFFFFFFFFF AND PUSH20 0xFFFFFFFFFFFFFFFFFFFFFFFFFFFFFFFFFFFFFFFF AND DUP2 MSTORE PUSH1 0x20 ADD SWAP1 DUP2 MSTORE PUSH1 0x20 ADD PUSH1 0x0 KECCAK256 PUSH1 0x0 SWAP1 SLOAD SWAP1 PUSH2 0x100 EXP SWAP1 DIV PUSH1 0xFF AND JUMPDEST PUSH2 0x3F97 JUMPI PUSH1 0x40 MLOAD PUSH32 0x8C379A000000000000000000000000000000000000000000000000000000000 DUP2 MSTORE PUSH1 0x4 ADD PUSH2 0x3F8E SWAP1 PUSH2 0x6DD7 JUMP JUMPDEST PUSH1 0x40 MLOAD DUP1 SWAP2 SUB SWAP1 REVERT JUMPDEST JUMPDEST PUSH1 0x0 PUSH2 0x3FC2 PUSH1 0x64 PUSH2 0x3FB4 PUSH1 0x11 SLOAD DUP6 PUSH2 0x4D85 SWAP1 SWAP2 SWAP1 PUSH4 0xFFFFFFFF AND JUMP JUMPDEST PUSH2 0x3BE1 SWAP1 SWAP2 SWAP1 PUSH4 0xFFFFFFFF AND JUMP JUMPDEST SWAP1 POP PUSH1 0x0 PUSH2 0x3FEE PUSH1 0x64 PUSH2 0x3FE0 PUSH1 0x13 SLOAD DUP7 PUSH2 0x4D85 SWAP1 SWAP2 SWAP1 PUSH4 0xFFFFFFFF AND JUMP JUMPDEST PUSH2 0x3BE1 SWAP1 SWAP2 SWAP1 PUSH4 0xFFFFFFFF AND JUMP JUMPDEST SWAP1 POP PUSH1 0x0 PUSH2 0x401A PUSH1 0x64 PUSH2 0x400C PUSH1 0x16 SLOAD DUP8 PUSH2 0x4D85 SWAP1 SWAP2 SWAP1 PUSH4 0xFFFFFFFF AND JUMP JUMPDEST PUSH2 0x3BE1 SWAP1 SWAP2 SWAP1 PUSH4 0xFFFFFFFF AND JUMP JUMPDEST SWAP1 POP PUSH1 0x8 PUSH1 0x0 DUP8 PUSH20 0xFFFFFFFFFFFFFFFFFFFFFFFFFFFFFFFFFFFFFFFF AND PUSH20 0xFFFFFFFFFFFFFFFFFFFFFFFFFFFFFFFFFFFFFFFF AND DUP2 MSTORE PUSH1 0x20 ADD SWAP1 DUP2 MSTORE PUSH1 0x20 ADD PUSH1 0x0 KECCAK256 PUSH1 0x0 SWAP1 SLOAD SWAP1 PUSH2 0x100 EXP SWAP1 DIV PUSH1 0xFF AND DUP1 ISZERO PUSH2 0x40BF JUMPI POP PUSH1 0x8 PUSH1 0x0 DUP7 PUSH20 0xFFFFFFFFFFFFFFFFFFFFFFFFFFFFFFFFFFFFFFFF AND PUSH20 0xFFFFFFFFFFFFFFFFFFFFFFFFFFFFFFFFFFFFFFFF AND DUP2 MSTORE PUSH1 0x20 ADD SWAP1 DUP2 MSTORE PUSH1 0x20 ADD PUSH1 0x0 KECCAK256 PUSH1 0x0 SWAP1 SLOAD SWAP1 PUSH2 0x100 EXP SWAP1 DIV PUSH1 0xFF AND ISZERO JUMPDEST ISZERO PUSH2 0x410A JUMPI PUSH2 0x4105 DUP7 DUP7 PUSH2 0x4100 DUP5 PUSH2 0x40F2 DUP8 PUSH2 0x40E4 DUP11 DUP13 PUSH2 0x4972 SWAP1 SWAP2 SWAP1 PUSH4 0xFFFFFFFF AND JUMP JUMPDEST PUSH2 0x4972 SWAP1 SWAP2 SWAP1 PUSH4 0xFFFFFFFF AND JUMP JUMPDEST PUSH2 0x4972 SWAP1 SWAP2 SWAP1 PUSH4 0xFFFFFFFF AND JUMP JUMPDEST PUSH2 0x4D9B JUMP JUMPDEST PUSH2 0x4419 JUMP JUMPDEST PUSH1 0x8 PUSH1 0x0 DUP8 PUSH20 0xFFFFFFFFFFFFFFFFFFFFFFFFFFFFFFFFFFFFFFFF AND PUSH20 0xFFFFFFFFFFFFFFFFFFFFFFFFFFFFFFFFFFFFFFFF AND DUP2 MSTORE PUSH1 0x20 ADD SWAP1 DUP2 MSTORE PUSH1 0x20 ADD PUSH1 0x0 KECCAK256 PUSH1 0x0 SWAP1 SLOAD SWAP1 PUSH2 0x100 EXP SWAP1 DIV PUSH1 0xFF AND ISZERO DUP1 ISZERO PUSH2 0x41AD JUMPI POP PUSH1 0x8 PUSH1 0x0 DUP7 PUSH20 0xFFFFFFFFFFFFFFFFFFFFFFFFFFFFFFFFFFFFFFFF AND PUSH20 0xFFFFFFFFFFFFFFFFFFFFFFFFFFFFFFFFFFFFFFFF AND DUP2 MSTORE PUSH1 0x20 ADD SWAP1 DUP2 MSTORE PUSH1 0x20 ADD PUSH1 0x0 KECCAK256 PUSH1 0x0 SWAP1 SLOAD SWAP1 PUSH2 0x100 EXP SWAP1 DIV PUSH1 0xFF AND JUMPDEST ISZERO PUSH2 0x41F8 JUMPI PUSH2 0x41F3 DUP7 DUP7 PUSH2 0x41EE DUP5 PUSH2 0x41E0 DUP8 PUSH2 0x41D2 DUP11 DUP13 PUSH2 0x4972 SWAP1 SWAP2 SWAP1 PUSH4 0xFFFFFFFF AND JUMP JUMPDEST PUSH2 0x4972 SWAP1 SWAP2 SWAP1 PUSH4 0xFFFFFFFF AND JUMP JUMPDEST PUSH2 0x4972 SWAP1 SWAP2 SWAP1 PUSH4 0xFFFFFFFF AND JUMP JUMPDEST PUSH2 0x4FFB JUMP JUMPDEST PUSH2 0x4418 JUMP JUMPDEST PUSH1 0x8 PUSH1 0x0 DUP8 PUSH20 0xFFFFFFFFFFFFFFFFFFFFFFFFFFFFFFFFFFFFFFFF AND PUSH20 0xFFFFFFFFFFFFFFFFFFFFFFFFFFFFFFFFFFFFFFFF AND DUP2 MSTORE PUSH1 0x20 ADD SWAP1 DUP2 MSTORE PUSH1 0x20 ADD PUSH1 0x0 KECCAK256 PUSH1 0x0 SWAP1 SLOAD SWAP1 PUSH2 0x100 EXP SWAP1 DIV PUSH1 0xFF AND ISZERO DUP1 ISZERO PUSH2 0x429C JUMPI POP PUSH1 0x8 PUSH1 0x0 DUP7 PUSH20 0xFFFFFFFFFFFFFFFFFFFFFFFFFFFFFFFFFFFFFFFF AND PUSH20 0xFFFFFFFFFFFFFFFFFFFFFFFFFFFFFFFFFFFFFFFF AND DUP2 MSTORE PUSH1 0x20 ADD SWAP1 DUP2 MSTORE PUSH1 0x20 ADD PUSH1 0x0 KECCAK256 PUSH1 0x0 SWAP1 SLOAD SWAP1 PUSH2 0x100 EXP SWAP1 DIV PUSH1 0xFF AND ISZERO JUMPDEST ISZERO PUSH2 0x42E7 JUMPI PUSH2 0x42E2 DUP7 DUP7 PUSH2 0x42DD DUP5 PUSH2 0x42CF DUP8 PUSH2 0x42C1 DUP11 DUP13 PUSH2 0x4972 SWAP1 SWAP2 SWAP1 PUSH4 0xFFFFFFFF AND JUMP JUMPDEST PUSH2 0x4972 SWAP1 SWAP2 SWAP1 PUSH4 0xFFFFFFFF AND JUMP JUMPDEST PUSH2 0x4972 SWAP1 SWAP2 SWAP1 PUSH4 0xFFFFFFFF AND JUMP JUMPDEST PUSH2 0x525B JUMP JUMPDEST PUSH2 0x4417 JUMP JUMPDEST PUSH1 0x8 PUSH1 0x0 DUP8 PUSH20 0xFFFFFFFFFFFFFFFFFFFFFFFFFFFFFFFFFFFFFFFF AND PUSH20 0xFFFFFFFFFFFFFFFFFFFFFFFFFFFFFFFFFFFFFFFF AND DUP2 MSTORE PUSH1 0x20 ADD SWAP1 DUP2 MSTORE PUSH1 0x20 ADD PUSH1 0x0 KECCAK256 PUSH1 0x0 SWAP1 SLOAD SWAP1 PUSH2 0x100 EXP SWAP1 DIV PUSH1 0xFF AND DUP1 ISZERO PUSH2 0x4389 JUMPI POP PUSH1 0x8 PUSH1 0x0 DUP7 PUSH20 0xFFFFFFFFFFFFFFFFFFFFFFFFFFFFFFFFFFFFFFFF AND PUSH20 0xFFFFFFFFFFFFFFFFFFFFFFFFFFFFFFFFFFFFFFFF AND DUP2 MSTORE PUSH1 0x20 ADD SWAP1 DUP2 MSTORE PUSH1 0x20 ADD PUSH1 0x0 KECCAK256 PUSH1 0x0 SWAP1 SLOAD SWAP1 PUSH2 0x100 EXP SWAP1 DIV PUSH1 0xFF AND JUMPDEST ISZERO PUSH2 0x43D4 JUMPI PUSH2 0x43CF DUP7 DUP7 PUSH2 0x43CA DUP5 PUSH2 0x43BC DUP8 PUSH2 0x43AE DUP11 DUP13 PUSH2 0x4972 SWAP1 SWAP2 SWAP1 PUSH4 0xFFFFFFFF AND JUMP JUMPDEST PUSH2 0x4972 SWAP1 SWAP2 SWAP1 PUSH4 0xFFFFFFFF AND JUMP JUMPDEST PUSH2 0x4972 SWAP1 SWAP2 SWAP1 PUSH4 0xFFFFFFFF AND JUMP JUMPDEST PUSH2 0x5426 JUMP JUMPDEST PUSH2 0x4416 JUMP JUMPDEST PUSH2 0x4415 DUP7 DUP7 PUSH2 0x4410 DUP5 PUSH2 0x4402 DUP8 PUSH2 0x43F4 DUP11 DUP13 PUSH2 0x4972 SWAP1 SWAP2 SWAP1 PUSH4 0xFFFFFFFF AND JUMP JUMPDEST PUSH2 0x4972 SWAP1 SWAP2 SWAP1 PUSH4 0xFFFFFFFF AND JUMP JUMPDEST PUSH2 0x4972 SWAP1 SWAP2 SWAP1 PUSH4 0xFFFFFFFF AND JUMP JUMPDEST PUSH2 0x525B JUMP JUMPDEST JUMPDEST JUMPDEST JUMPDEST JUMPDEST PUSH1 0x0 PUSH1 0xD DUP2 SWAP1 SSTORE POP PUSH1 0x0 PUSH1 0xF DUP2 SWAP1 SSTORE POP PUSH2 0x4436 DUP7 PUSH2 0xDEAD DUP6 PUSH2 0x525B JUMP JUMPDEST PUSH2 0x444B DUP4 PUSH1 0xA SLOAD PUSH2 0x4972 SWAP1 SWAP2 SWAP1 PUSH4 0xFFFFFFFF AND JUMP JUMPDEST PUSH1 0xA DUP2 SWAP1 SSTORE POP PUSH2 0x447E DUP7 PUSH1 0x14 PUSH1 0x0 SWAP1 SLOAD SWAP1 PUSH2 0x100 EXP SWAP1 DIV PUSH20 0xFFFFFFFFFFFFFFFFFFFFFFFFFFFFFFFFFFFFFFFF AND DUP5 PUSH2 0x525B JUMP JUMPDEST PUSH2 0x44AB DUP7 PUSH1 0x17 PUSH1 0x0 SWAP1 SLOAD SWAP1 PUSH2 0x100 EXP SWAP1 DIV PUSH20 0xFFFFFFFFFFFFFFFFFFFFFFFFFFFFFFFFFFFFFFFF AND DUP4 PUSH2 0x525B JUMP JUMPDEST PUSH1 0xE SLOAD PUSH1 0xD DUP2 SWAP1 SSTORE POP PUSH1 0x10 SLOAD PUSH1 0xF DUP2 SWAP1 SSTORE POP PUSH1 0x6 PUSH1 0x0 DUP8 PUSH20 0xFFFFFFFFFFFFFFFFFFFFFFFFFFFFFFFFFFFFFFFF AND PUSH20 0xFFFFFFFFFFFFFFFFFFFFFFFFFFFFFFFFFFFFFFFF AND DUP2 MSTORE PUSH1 0x20 ADD SWAP1 DUP2 MSTORE PUSH1 0x20 ADD PUSH1 0x0 KECCAK256 PUSH1 0x0 SWAP1 SLOAD SWAP1 PUSH2 0x100 EXP SWAP1 DIV PUSH1 0xFF AND DUP1 PUSH2 0x455E JUMPI POP PUSH1 0x6 PUSH1 0x0 DUP7 PUSH20 0xFFFFFFFFFFFFFFFFFFFFFFFFFFFFFFFFFFFFFFFF AND PUSH20 0xFFFFFFFFFFFFFFFFFFFFFFFFFFFFFFFFFFFFFFFF AND DUP2 MSTORE PUSH1 0x20 ADD SWAP1 DUP2 MSTORE PUSH1 0x20 ADD PUSH1 0x0 KECCAK256 PUSH1 0x0 SWAP1 SLOAD SWAP1 PUSH2 0x100 EXP SWAP1 DIV PUSH1 0xFF AND JUMPDEST ISZERO PUSH2 0x456C JUMPI PUSH2 0x456B PUSH2 0x571B JUMP JUMPDEST JUMPDEST POP POP POP POP POP POP JUMP JUMPDEST PUSH1 0x0 DUP1 PUSH1 0x0 PUSH1 0xA SLOAD SWAP1 POP PUSH1 0x0 PUSH1 0x12 PUSH1 0xA PUSH2 0x458E SWAP2 SWAP1 PUSH2 0x60B0 JUMP JUMPDEST PUSH4 0x3C14DC0 PUSH2 0x459D SWAP2 SWAP1 PUSH2 0x60FB JUMP JUMPDEST SWAP1 POP PUSH1 0x0 JUMPDEST PUSH1 0x9 DUP1 SLOAD SWAP1 POP DUP2 LT ISZERO PUSH2 0x481E JUMPI DUP3 PUSH1 0x3 PUSH1 0x0 PUSH1 0x9 DUP5 DUP2 SLOAD DUP2 LT PUSH2 0x45C8 JUMPI PUSH2 0x45C7 PUSH2 0x623B JUMP JUMPDEST JUMPDEST SWAP1 PUSH1 0x0 MSTORE PUSH1 0x20 PUSH1 0x0 KECCAK256 ADD PUSH1 0x0 SWAP1 SLOAD SWAP1 PUSH2 0x100 EXP SWAP1 DIV PUSH20 0xFFFFFFFFFFFFFFFFFFFFFFFFFFFFFFFFFFFFFFFF AND PUSH20 0xFFFFFFFFFFFFFFFFFFFFFFFFFFFFFFFFFFFFFFFF AND PUSH20 0xFFFFFFFFFFFFFFFFFFFFFFFFFFFFFFFFFFFFFFFF AND DUP2 MSTORE PUSH1 0x20 ADD SWAP1 DUP2 MSTORE PUSH1 0x20 ADD PUSH1 0x0 KECCAK256 SLOAD GT DUP1 PUSH2 0x46B6 JUMPI POP DUP2 PUSH1 0x4 PUSH1 0x0 PUSH1 0x9 DUP5 DUP2 SLOAD DUP2 LT PUSH2 0x464E JUMPI PUSH2 0x464D PUSH2 0x623B JUMP JUMPDEST JUMPDEST SWAP1 PUSH1 0x0 MSTORE PUSH1 0x20 PUSH1 0x0 KECCAK256 ADD PUSH1 0x0 SWAP1 SLOAD SWAP1 PUSH2 0x100 EXP SWAP1 DIV PUSH20 0xFFFFFFFFFFFFFFFFFFFFFFFFFFFFFFFFFFFFFFFF AND PUSH20 0xFFFFFFFFFFFFFFFFFFFFFFFFFFFFFFFFFFFFFFFF AND PUSH20 0xFFFFFFFFFFFFFFFFFFFFFFFFFFFFFFFFFFFFFFFF AND DUP2 MSTORE PUSH1 0x20 ADD SWAP1 DUP2 MSTORE PUSH1 0x20 ADD PUSH1 0x0 KECCAK256 SLOAD GT JUMPDEST ISZERO PUSH2 0x46E7 JUMPI PUSH1 0xA SLOAD PUSH1 0x12 PUSH1 0xA PUSH2 0x46CC SWAP2 SWAP1 PUSH2 0x60B0 JUMP JUMPDEST PUSH4 0x3C14DC0 PUSH2 0x46DB SWAP2 SWAP1 PUSH2 0x60FB JUMP JUMPDEST SWAP5 POP SWAP5 POP POP POP POP PUSH2 0x488B JUMP JUMPDEST PUSH2 0x4777 PUSH1 0x3 PUSH1 0x0 PUSH1 0x9 DUP5 DUP2 SLOAD DUP2 LT PUSH2 0x4702 JUMPI PUSH2 0x4701 PUSH2 0x623B JUMP JUMPDEST JUMPDEST SWAP1 PUSH1 0x0 MSTORE PUSH1 0x20 PUSH1 0x0 KECCAK256 ADD PUSH1 0x0 SWAP1 SLOAD SWAP1 PUSH2 0x100 EXP SWAP1 DIV PUSH20 0xFFFFFFFFFFFFFFFFFFFFFFFFFFFFFFFFFFFFFFFF AND PUSH20 0xFFFFFFFFFFFFFFFFFFFFFFFFFFFFFFFFFFFFFFFF AND PUSH20 0xFFFFFFFFFFFFFFFFFFFFFFFFFFFFFFFFFFFFFFFF AND DUP2 MSTORE PUSH1 0x20 ADD SWAP1 DUP2 MSTORE PUSH1 0x20 ADD PUSH1 0x0 KECCAK256 SLOAD DUP5 PUSH2 0x4972 SWAP1 SWAP2 SWAP1 PUSH4 0xFFFFFFFF AND JUMP JUMPDEST SWAP3 POP PUSH2 0x4809 PUSH1 0x4 PUSH1 0x0 PUSH1 0x9 DUP5 DUP2 SLOAD DUP2 LT PUSH2 0x4794 JUMPI PUSH2 0x4793 PUSH2 0x623B JUMP JUMPDEST JUMPDEST SWAP1 PUSH1 0x0 MSTORE PUSH1 0x20 PUSH1 0x0 KECCAK256 ADD PUSH1 0x0 SWAP1 SLOAD SWAP1 PUSH2 0x100 EXP SWAP1 DIV PUSH20 0xFFFFFFFFFFFFFFFFFFFFFFFFFFFFFFFFFFFFFFFF AND PUSH20 0xFFFFFFFFFFFFFFFFFFFFFFFFFFFFFFFFFFFFFFFF AND PUSH20 0xFFFFFFFFFFFFFFFFFFFFFFFFFFFFFFFFFFFFFFFF AND DUP2 MSTORE PUSH1 0x20 ADD SWAP1 DUP2 MSTORE PUSH1 0x20 ADD PUSH1 0x0 KECCAK256 SLOAD DUP4 PUSH2 0x4972 SWAP1 SWAP2 SWAP1 PUSH4 0xFFFFFFFF AND JUMP JUMPDEST SWAP2 POP DUP1 DUP1 PUSH2 0x4816 SWAP1 PUSH2 0x62CD JUMP JUMPDEST SWAP2 POP POP PUSH2 0x45A2 JUMP JUMPDEST POP PUSH2 0x4850 PUSH1 0x12 PUSH1 0xA PUSH2 0x4830 SWAP2 SWAP1 PUSH2 0x60B0 JUMP JUMPDEST PUSH4 0x3C14DC0 PUSH2 0x483F SWAP2 SWAP1 PUSH2 0x60FB JUMP JUMPDEST PUSH1 0xA SLOAD PUSH2 0x3BE1 SWAP1 SWAP2 SWAP1 PUSH4 0xFFFFFFFF AND JUMP JUMPDEST DUP3 LT ISZERO PUSH2 0x4882 JUMPI PUSH1 0xA SLOAD PUSH1 0x12 PUSH1 0xA PUSH2 0x4868 SWAP2 SWAP1 PUSH2 0x60B0 JUMP JUMPDEST PUSH4 0x3C14DC0 PUSH2 0x4877 SWAP2 SWAP1 PUSH2 0x60FB JUMP JUMPDEST SWAP4 POP SWAP4 POP POP POP PUSH2 0x488B JUMP JUMPDEST DUP2 DUP2 SWAP4 POP SWAP4 POP POP POP JUMPDEST SWAP1 SWAP2 JUMP JUMPDEST PUSH1 0x0 DUP1 PUSH1 0x0 DUP1 PUSH2 0x489E DUP6 PUSH2 0x5745 JUMP JUMPDEST SWAP1 POP PUSH1 0x0 PUSH2 0x48AB DUP7 PUSH2 0x5776 JUMP JUMPDEST SWAP1 POP PUSH1 0x0 PUSH2 0x48D4 DUP3 PUSH2 0x48C6 DUP6 DUP11 PUSH2 0x4972 SWAP1 SWAP2 SWAP1 PUSH4 0xFFFFFFFF AND JUMP JUMPDEST PUSH2 0x4972 SWAP1 SWAP2 SWAP1 PUSH4 0xFFFFFFFF AND JUMP JUMPDEST SWAP1 POP DUP1 DUP4 DUP4 SWAP6 POP SWAP6 POP SWAP6 POP POP POP POP SWAP2 SWAP4 SWAP1 SWAP3 POP JUMP JUMPDEST PUSH1 0x0 DUP1 PUSH1 0x0 DUP1 PUSH2 0x4902 DUP6 DUP10 PUSH2 0x4D85 SWAP1 SWAP2 SWAP1 PUSH4 0xFFFFFFFF AND JUMP JUMPDEST SWAP1 POP PUSH1 0x0 PUSH2 0x4919 DUP7 DUP10 PUSH2 0x4D85 SWAP1 SWAP2 SWAP1 PUSH4 0xFFFFFFFF AND JUMP JUMPDEST SWAP1 POP PUSH1 0x0 PUSH2 0x4930 DUP8 DUP10 PUSH2 0x4D85 SWAP1 SWAP2 SWAP1 PUSH4 0xFFFFFFFF AND JUMP JUMPDEST SWAP1 POP PUSH1 0x0 PUSH2 0x4959 DUP3 PUSH2 0x494B DUP6 DUP8 PUSH2 0x4972 SWAP1 SWAP2 SWAP1 PUSH4 0xFFFFFFFF AND JUMP JUMPDEST PUSH2 0x4972 SWAP1 SWAP2 SWAP1 PUSH4 0xFFFFFFFF AND JUMP JUMPDEST SWAP1 POP DUP4 DUP2 DUP5 SWAP7 POP SWAP7 POP SWAP7 POP POP POP POP POP SWAP5 POP SWAP5 POP SWAP5 SWAP2 POP POP JUMP JUMPDEST PUSH1 0x0 DUP2 DUP4 PUSH2 0x4980 SWAP2 SWAP1 PUSH2 0x626A JUMP JUMPDEST SWAP1 POP SWAP3 SWAP2 POP POP JUMP JUMPDEST PUSH1 0x0 DUP1 PUSH1 0x2 PUSH8 0xFFFFFFFFFFFFFFFF DUP2 GT ISZERO PUSH2 0x49A6 JUMPI PUSH2 0x49A5 PUSH2 0x6DF7 JUMP JUMPDEST JUMPDEST PUSH1 0x40 MLOAD SWAP1 DUP1 DUP3 MSTORE DUP1 PUSH1 0x20 MUL PUSH1 0x20 ADD DUP3 ADD PUSH1 0x40 MSTORE DUP1 ISZERO PUSH2 0x49D4 JUMPI DUP2 PUSH1 0x20 ADD PUSH1 0x20 DUP3 MUL DUP1 CALLDATASIZE DUP4 CALLDATACOPY DUP1 DUP3 ADD SWAP2 POP POP SWAP1 POP JUMPDEST POP SWAP1 POP ADDRESS DUP2 PUSH1 0x0 DUP2 MLOAD DUP2 LT PUSH2 0x49EC JUMPI PUSH2 0x49EB PUSH2 0x623B JUMP JUMPDEST JUMPDEST PUSH1 0x20 MUL PUSH1 0x20 ADD ADD SWAP1 PUSH20 0xFFFFFFFFFFFFFFFFFFFFFFFFFFFFFFFFFFFFFFFF AND SWAP1 DUP2 PUSH20 0xFFFFFFFFFFFFFFFFFFFFFFFFFFFFFFFFFFFFFFFF AND DUP2 MSTORE POP POP PUSH1 0x19 PUSH1 0x0 SWAP1 SLOAD SWAP1 PUSH2 0x100 EXP SWAP1 DIV PUSH20 0xFFFFFFFFFFFFFFFFFFFFFFFFFFFFFFFFFFFFFFFF AND PUSH20 0xFFFFFFFFFFFFFFFFFFFFFFFFFFFFFFFFFFFFFFFF AND PUSH4 0xAD5C4648 PUSH1 0x40 MLOAD DUP2 PUSH4 0xFFFFFFFF AND PUSH1 0xE0 SHL DUP2 MSTORE PUSH1 0x4 ADD PUSH1 0x20 PUSH1 0x40 MLOAD DUP1 DUP4 SUB DUP2 DUP7 GAS STATICCALL ISZERO DUP1 ISZERO PUSH2 0x4A93 JUMPI RETURNDATASIZE PUSH1 0x0 DUP1 RETURNDATACOPY RETURNDATASIZE PUSH1 0x0 REVERT JUMPDEST POP POP POP POP PUSH1 0x40 MLOAD RETURNDATASIZE PUSH1 0x1F NOT PUSH1 0x1F DUP3 ADD AND DUP3 ADD DUP1 PUSH1 0x40 MSTORE POP DUP2 ADD SWAP1 PUSH2 0x4AB7 SWAP2 SWAP1 PUSH2 0x632A JUMP JUMPDEST DUP2 PUSH1 0x1 DUP2 MLOAD DUP2 LT PUSH2 0x4ACB JUMPI PUSH2 0x4ACA PUSH2 0x623B JUMP JUMPDEST JUMPDEST PUSH1 0x20 MUL PUSH1 0x20 ADD ADD SWAP1 PUSH20 0xFFFFFFFFFFFFFFFFFFFFFFFFFFFFFFFFFFFFFFFF AND SWAP1 DUP2 PUSH20 0xFFFFFFFFFFFFFFFFFFFFFFFFFFFFFFFFFFFFFFFF AND DUP2 MSTORE POP POP PUSH2 0x4B32 ADDRESS PUSH1 0x19 PUSH1 0x0 SWAP1 SLOAD SWAP1 PUSH2 0x100 EXP SWAP1 DIV PUSH20 0xFFFFFFFFFFFFFFFFFFFFFFFFFFFFFFFFFFFFFFFF AND DUP6 PUSH2 0x37AE JUMP JUMPDEST PUSH1 0x19 PUSH1 0x0 SWAP1 SLOAD SWAP1 PUSH2 0x100 EXP SWAP1 DIV PUSH20 0xFFFFFFFFFFFFFFFFFFFFFFFFFFFFFFFFFFFFFFFF AND PUSH20 0xFFFFFFFFFFFFFFFFFFFFFFFFFFFFFFFFFFFFFFFF AND PUSH4 0x791AC947 DUP5 PUSH1 0x0 DUP5 ADDRESS TIMESTAMP PUSH1 0x40 MLOAD DUP7 PUSH4 0xFFFFFFFF AND PUSH1 0xE0 SHL DUP2 MSTORE PUSH1 0x4 ADD PUSH2 0x4B96 SWAP6 SWAP5 SWAP4 SWAP3 SWAP2 SWAP1 PUSH2 0x6F1F JUMP JUMPDEST PUSH1 0x0 PUSH1 0x40 MLOAD DUP1 DUP4 SUB DUP2 PUSH1 0x0 DUP8 DUP1 EXTCODESIZE ISZERO DUP1 ISZERO PUSH2 0x4BB0 JUMPI PUSH1 0x0 DUP1 REVERT JUMPDEST POP GAS CALL SWAP3 POP POP POP DUP1 ISZERO PUSH2 0x4BC1 JUMPI POP PUSH1 0x1 JUMPDEST PUSH2 0x4C04 JUMPI PUSH32 0x22B212ABBAC4F28435A37F1253F735D1D9C9B444577FEEE64B691CA091130297 PUSH1 0x40 MLOAD PUSH2 0x4BF2 SWAP1 PUSH2 0x6FC5 JUMP JUMPDEST PUSH1 0x40 MLOAD DUP1 SWAP2 SUB SWAP1 LOG1 PUSH1 0x0 SWAP2 POP POP PUSH2 0x4C3F JUMP JUMPDEST PUSH32 0x22B212ABBAC4F28435A37F1253F735D1D9C9B444577FEEE64B691CA091130297 PUSH1 0x40 MLOAD PUSH2 0x4C31 SWAP1 PUSH2 0x7031 JUMP JUMPDEST PUSH1 0x40 MLOAD DUP1 SWAP2 SUB SWAP1 LOG1 PUSH1 0x1 SWAP2 POP POP JUMPDEST SWAP2 SWAP1 POP JUMP JUMPDEST PUSH2 0x4C71 ADDRESS PUSH1 0x19 PUSH1 0x0 SWAP1 SLOAD SWAP1 PUSH2 0x100 EXP SWAP1 DIV PUSH20 0xFFFFFFFFFFFFFFFFFFFFFFFFFFFFFFFFFFFFFFFF AND DUP5 PUSH2 0x37AE JUMP JUMPDEST PUSH1 0x19 PUSH1 0x0 SWAP1 SLOAD SWAP1 PUSH2 0x100 EXP SWAP1 DIV PUSH20 0xFFFFFFFFFFFFFFFFFFFFFFFFFFFFFFFFFFFFFFFF AND PUSH20 0xFFFFFFFFFFFFFFFFFFFFFFFFFFFFFFFFFFFFFFFF AND PUSH4 0xF305D719 DUP3 ADDRESS DUP6 PUSH1 0x0 DUP1 ADDRESS TIMESTAMP PUSH1 0x40 MLOAD DUP9 PUSH4 0xFFFFFFFF AND PUSH1 0xE0 SHL DUP2 MSTORE PUSH1 0x4 ADD PUSH2 0x4CD8 SWAP7 SWAP6 SWAP5 SWAP4 SWAP3 SWAP2 SWAP1 PUSH2 0x7051 JUMP JUMPDEST PUSH1 0x60 PUSH1 0x40 MLOAD DUP1 DUP4 SUB DUP2 DUP6 DUP9 GAS CALL ISZERO DUP1 ISZERO PUSH2 0x4CF6 JUMPI RETURNDATASIZE PUSH1 0x0 DUP1 RETURNDATACOPY RETURNDATASIZE PUSH1 0x0 REVERT JUMPDEST POP POP POP POP POP PUSH1 0x40 MLOAD RETURNDATASIZE PUSH1 0x1F NOT PUSH1 0x1F DUP3 ADD AND DUP3 ADD DUP1 PUSH1 0x40 MSTORE POP DUP2 ADD SWAP1 PUSH2 0x4D1B SWAP2 SWAP1 PUSH2 0x70C7 JUMP JUMPDEST POP POP POP PUSH32 0x38F8A0C92F4C5B0B6877F878CB4C0C8D348A47B76D716C8E78F425043DF9515B DUP3 DUP3 PUSH1 0x40 MLOAD PUSH2 0x4D4F SWAP3 SWAP2 SWAP1 PUSH2 0x711A JUMP JUMPDEST PUSH1 0x40 MLOAD DUP1 SWAP2 SUB SWAP1 LOG1 POP POP JUMP JUMPDEST PUSH1 0x0 PUSH1 0xD DUP2 SWAP1 SSTORE POP PUSH1 0x0 PUSH1 0xF DUP2 SWAP1 SSTORE POP PUSH1 0x0 PUSH1 0x11 DUP2 SWAP1 SSTORE POP PUSH1 0x0 PUSH1 0x13 DUP2 SWAP1 SSTORE POP PUSH1 0x0 PUSH1 0x16 DUP2 SWAP1 SSTORE POP JUMP JUMPDEST PUSH1 0x0 DUP2 DUP4 PUSH2 0x4D93 SWAP2 SWAP1 PUSH2 0x60FB JUMP JUMPDEST SWAP1 POP SWAP3 SWAP2 POP POP JUMP JUMPDEST PUSH1 0x0 DUP1 PUSH1 0x0 DUP1 PUSH1 0x0 DUP1 PUSH2 0x4DAD DUP8 PUSH2 0x3C0D JUMP JUMPDEST SWAP6 POP SWAP6 POP SWAP6 POP SWAP6 POP SWAP6 POP SWAP6 POP PUSH2 0x4E0B DUP8 PUSH1 0x4 PUSH1 0x0 DUP13 PUSH20 0xFFFFFFFFFFFFFFFFFFFFFFFFFFFFFFFFFFFFFFFF AND PUSH20 0xFFFFFFFFFFFFFFFFFFFFFFFFFFFFFFFFFFFFFFFF AND DUP2 MSTORE PUSH1 0x20 ADD SWAP1 DUP2 MSTORE PUSH1 0x20 ADD PUSH1 0x0 KECCAK256 SLOAD PUSH2 0x4972 SWAP1 SWAP2 SWAP1 PUSH4 0xFFFFFFFF AND JUMP JUMPDEST PUSH1 0x4 PUSH1 0x0 DUP12 PUSH20 0xFFFFFFFFFFFFFFFFFFFFFFFFFFFFFFFFFFFFFFFF AND PUSH20 0xFFFFFFFFFFFFFFFFFFFFFFFFFFFFFFFFFFFFFFFF AND DUP2 MSTORE PUSH1 0x20 ADD SWAP1 DUP2 MSTORE PUSH1 0x20 ADD PUSH1 0x0 KECCAK256 DUP2 SWAP1 SSTORE POP PUSH2 0x4EA0 DUP7 PUSH1 0x3 PUSH1 0x0 DUP13 PUSH20 0xFFFFFFFFFFFFFFFFFFFFFFFFFFFFFFFFFFFFFFFF AND PUSH20 0xFFFFFFFFFFFFFFFFFFFFFFFFFFFFFFFFFFFFFFFF AND DUP2 MSTORE PUSH1 0x20 ADD SWAP1 DUP2 MSTORE PUSH1 0x20 ADD PUSH1 0x0 KECCAK256 SLOAD PUSH2 0x4972 SWAP1 SWAP2 SWAP1 PUSH4 0xFFFFFFFF AND JUMP JUMPDEST PUSH1 0x3 PUSH1 0x0 DUP12 PUSH20 0xFFFFFFFFFFFFFFFFFFFFFFFFFFFFFFFFFFFFFFFF AND PUSH20 0xFFFFFFFFFFFFFFFFFFFFFFFFFFFFFFFFFFFFFFFF AND DUP2 MSTORE PUSH1 0x20 ADD SWAP1 DUP2 MSTORE PUSH1 0x20 ADD PUSH1 0x0 KECCAK256 DUP2 SWAP1 SSTORE POP PUSH2 0x4F35 DUP6 PUSH1 0x3 PUSH1 0x0 DUP12 PUSH20 0xFFFFFFFFFFFFFFFFFFFFFFFFFFFFFFFFFFFFFFFF AND PUSH20 0xFFFFFFFFFFFFFFFFFFFFFFFFFFFFFFFFFFFFFFFF AND DUP2 MSTORE PUSH1 0x20 ADD SWAP1 DUP2 MSTORE PUSH1 0x20 ADD PUSH1 0x0 KECCAK256 SLOAD PUSH2 0x3BF7 SWAP1 SWAP2 SWAP1 PUSH4 0xFFFFFFFF AND JUMP JUMPDEST PUSH1 0x3 PUSH1 0x0 DUP11 PUSH20 0xFFFFFFFFFFFFFFFFFFFFFFFFFFFFFFFFFFFFFFFF AND PUSH20 0xFFFFFFFFFFFFFFFFFFFFFFFFFFFFFFFFFFFFFFFF AND DUP2 MSTORE PUSH1 0x20 ADD SWAP1 DUP2 MSTORE PUSH1 0x20 ADD PUSH1 0x0 KECCAK256 DUP2 SWAP1 SSTORE POP PUSH2 0x4F81 DUP2 PUSH2 0x57A7 JUMP JUMPDEST PUSH2 0x4F8B DUP5 DUP4 PUSH2 0x594C JUMP JUMPDEST DUP8 PUSH20 0xFFFFFFFFFFFFFFFFFFFFFFFFFFFFFFFFFFFFFFFF AND DUP10 PUSH20 0xFFFFFFFFFFFFFFFFFFFFFFFFFFFFFFFFFFFFFFFF AND PUSH32 0xDDF252AD1BE2C89B69C2B068FC378DAA952BA7F163C4A11628F55A4DF523B3EF DUP6 PUSH1 0x40 MLOAD PUSH2 0x4FE8 SWAP2 SWAP1 PUSH2 0x5BB0 JUMP JUMPDEST PUSH1 0x40 MLOAD DUP1 SWAP2 SUB SWAP1 LOG3 POP POP POP POP POP POP POP POP POP JUMP JUMPDEST PUSH1 0x0 DUP1 PUSH1 0x0 DUP1 PUSH1 0x0 DUP1 PUSH2 0x500D DUP8 PUSH2 0x3C0D JUMP JUMPDEST SWAP6 POP SWAP6 POP SWAP6 POP SWAP6 POP SWAP6 POP SWAP6 POP PUSH2 0x506B DUP7 PUSH1 0x3 PUSH1 0x0 DUP13 PUSH20 0xFFFFFFFFFFFFFFFFFFFFFFFFFFFFFFFFFFFFFFFF AND PUSH20 0xFFFFFFFFFFFFFFFFFFFFFFFFFFFFFFFFFFFFFFFF AND DUP2 MSTORE PUSH1 0x20 ADD SWAP1 DUP2 MSTORE PUSH1 0x20 ADD PUSH1 0x0 KECCAK256 SLOAD PUSH2 0x4972 SWAP1 SWAP2 SWAP1 PUSH4 0xFFFFFFFF AND JUMP JUMPDEST PUSH1 0x3 PUSH1 0x0 DUP12 PUSH20 0xFFFFFFFFFFFFFFFFFFFFFFFFFFFFFFFFFFFFFFFF AND PUSH20 0xFFFFFFFFFFFFFFFFFFFFFFFFFFFFFFFFFFFFFFFF AND DUP2 MSTORE PUSH1 0x20 ADD SWAP1 DUP2 MSTORE PUSH1 0x20 ADD PUSH1 0x0 KECCAK256 DUP2 SWAP1 SSTORE POP PUSH2 0x5100 DUP4 PUSH1 0x4 PUSH1 0x0 DUP12 PUSH20 0xFFFFFFFFFFFFFFFFFFFFFFFFFFFFFFFFFFFFFFFF AND PUSH20 0xFFFFFFFFFFFFFFFFFFFFFFFFFFFFFFFFFFFFFFFF AND DUP2 MSTORE PUSH1 0x20 ADD SWAP1 DUP2 MSTORE PUSH1 0x20 ADD PUSH1 0x0 KECCAK256 SLOAD PUSH2 0x3BF7 SWAP1 SWAP2 SWAP1 PUSH4 0xFFFFFFFF AND JUMP JUMPDEST PUSH1 0x4 PUSH1 0x0 DUP11 PUSH20 0xFFFFFFFFFFFFFFFFFFFFFFFFFFFFFFFFFFFFFFFF AND PUSH20 0xFFFFFFFFFFFFFFFFFFFFFFFFFFFFFFFFFFFFFFFF AND DUP2 MSTORE PUSH1 0x20 ADD SWAP1 DUP2 MSTORE PUSH1 0x20 ADD PUSH1 0x0 KECCAK256 DUP2 SWAP1 SSTORE POP PUSH2 0x5195 DUP6 PUSH1 0x3 PUSH1 0x0 DUP12 PUSH20 0xFFFFFFFFFFFFFFFFFFFFFFFFFFFFFFFFFFFFFFFF AND PUSH20 0xFFFFFFFFFFFFFFFFFFFFFFFFFFFFFFFFFFFFFFFF AND DUP2 MSTORE PUSH1 0x20 ADD SWAP1 DUP2 MSTORE PUSH1 0x20 ADD PUSH1 0x0 KECCAK256 SLOAD PUSH2 0x3BF7 SWAP1 SWAP2 SWAP1 PUSH4 0xFFFFFFFF AND JUMP JUMPDEST PUSH1 0x3 PUSH1 0x0 DUP11 PUSH20 0xFFFFFFFFFFFFFFFFFFFFFFFFFFFFFFFFFFFFFFFF AND PUSH20 0xFFFFFFFFFFFFFFFFFFFFFFFFFFFFFFFFFFFFFFFF AND DUP2 MSTORE PUSH1 0x20 ADD SWAP1 DUP2 MSTORE PUSH1 0x20 ADD PUSH1 0x0 KECCAK256 DUP2 SWAP1 SSTORE POP PUSH2 0x51E1 DUP2 PUSH2 0x57A7 JUMP JUMPDEST PUSH2 0x51EB DUP5 DUP4 PUSH2 0x594C JUMP JUMPDEST DUP8 PUSH20 0xFFFFFFFFFFFFFFFFFFFFFFFFFFFFFFFFFFFFFFFF AND DUP10 PUSH20 0xFFFFFFFFFFFFFFFFFFFFFFFFFFFFFFFFFFFFFFFF AND PUSH32 0xDDF252AD1BE2C89B69C2B068FC378DAA952BA7F163C4A11628F55A4DF523B3EF DUP6 PUSH1 0x40 MLOAD PUSH2 0x5248 SWAP2 SWAP1 PUSH2 0x5BB0 JUMP JUMPDEST PUSH1 0x40 MLOAD DUP1 SWAP2 SUB SWAP1 LOG3 POP POP POP POP POP POP POP POP POP JUMP JUMPDEST PUSH1 0x0 DUP1 PUSH1 0x0 DUP1 PUSH1 0x0 DUP1 PUSH2 0x526D DUP8 PUSH2 0x3C0D JUMP JUMPDEST SWAP6 POP SWAP6 POP SWAP6 POP SWAP6 POP SWAP6 POP SWAP6 POP PUSH2 0x52CB DUP7 PUSH1 0x3 PUSH1 0x0 DUP13 PUSH20 0xFFFFFFFFFFFFFFFFFFFFFFFFFFFFFFFFFFFFFFFF AND PUSH20 0xFFFFFFFFFFFFFFFFFFFFFFFFFFFFFFFFFFFFFFFF AND DUP2 MSTORE PUSH1 0x20 ADD SWAP1 DUP2 MSTORE PUSH1 0x20 ADD PUSH1 0x0 KECCAK256 SLOAD PUSH2 0x4972 SWAP1 SWAP2 SWAP1 PUSH4 0xFFFFFFFF AND JUMP JUMPDEST PUSH1 0x3 PUSH1 0x0 DUP12 PUSH20 0xFFFFFFFFFFFFFFFFFFFFFFFFFFFFFFFFFFFFFFFF AND PUSH20 0xFFFFFFFFFFFFFFFFFFFFFFFFFFFFFFFFFFFFFFFF AND DUP2 MSTORE PUSH1 0x20 ADD SWAP1 DUP2 MSTORE PUSH1 0x20 ADD PUSH1 0x0 KECCAK256 DUP2 SWAP1 SSTORE POP PUSH2 0x5360 DUP6 PUSH1 0x3 PUSH1 0x0 DUP12 PUSH20 0xFFFFFFFFFFFFFFFFFFFFFFFFFFFFFFFFFFFFFFFF AND PUSH20 0xFFFFFFFFFFFFFFFFFFFFFFFFFFFFFFFFFFFFFFFF AND DUP2 MSTORE PUSH1 0x20 ADD SWAP1 DUP2 MSTORE PUSH1 0x20 ADD PUSH1 0x0 KECCAK256 SLOAD PUSH2 0x3BF7 SWAP1 SWAP2 SWAP1 PUSH4 0xFFFFFFFF AND JUMP JUMPDEST PUSH1 0x3 PUSH1 0x0 DUP11 PUSH20 0xFFFFFFFFFFFFFFFFFFFFFFFFFFFFFFFFFFFFFFFF AND PUSH20 0xFFFFFFFFFFFFFFFFFFFFFFFFFFFFFFFFFFFFFFFF AND DUP2 MSTORE PUSH1 0x20 ADD SWAP1 DUP2 MSTORE PUSH1 0x20 ADD PUSH1 0x0 KECCAK256 DUP2 SWAP1 SSTORE POP PUSH2 0x53AC DUP2 PUSH2 0x57A7 JUMP JUMPDEST PUSH2 0x53B6 DUP5 DUP4 PUSH2 0x594C JUMP JUMPDEST DUP8 PUSH20 0xFFFFFFFFFFFFFFFFFFFFFFFFFFFFFFFFFFFFFFFF AND DUP10 PUSH20 0xFFFFFFFFFFFFFFFFFFFFFFFFFFFFFFFFFFFFFFFF AND PUSH32 0xDDF252AD1BE2C89B69C2B068FC378DAA952BA7F163C4A11628F55A4DF523B3EF DUP6 PUSH1 0x40 MLOAD PUSH2 0x5413 SWAP2 SWAP1 PUSH2 0x5BB0 JUMP JUMPDEST PUSH1 0x40 MLOAD DUP1 SWAP2 SUB SWAP1 LOG3 POP POP POP POP POP POP POP POP POP JUMP JUMPDEST PUSH1 0x0 DUP1 PUSH1 0x0 DUP1 PUSH1 0x0 DUP1 PUSH2 0x5438 DUP8 PUSH2 0x3C0D JUMP JUMPDEST SWAP6 POP SWAP6 POP SWAP6 POP SWAP6 POP SWAP6 POP SWAP6 POP PUSH2 0x5496 DUP8 PUSH1 0x4 PUSH1 0x0 DUP13 PUSH20 0xFFFFFFFFFFFFFFFFFFFFFFFFFFFFFFFFFFFFFFFF AND PUSH20 0xFFFFFFFFFFFFFFFFFFFFFFFFFFFFFFFFFFFFFFFF AND DUP2 MSTORE PUSH1 0x20 ADD SWAP1 DUP2 MSTORE PUSH1 0x20 ADD PUSH1 0x0 KECCAK256 SLOAD PUSH2 0x4972 SWAP1 SWAP2 SWAP1 PUSH4 0xFFFFFFFF AND JUMP JUMPDEST PUSH1 0x4 PUSH1 0x0 DUP12 PUSH20 0xFFFFFFFFFFFFFFFFFFFFFFFFFFFFFFFFFFFFFFFF AND PUSH20 0xFFFFFFFFFFFFFFFFFFFFFFFFFFFFFFFFFFFFFFFF AND DUP2 MSTORE PUSH1 0x20 ADD SWAP1 DUP2 MSTORE PUSH1 0x20 ADD PUSH1 0x0 KECCAK256 DUP2 SWAP1 SSTORE POP PUSH2 0x552B DUP7 PUSH1 0x3 PUSH1 0x0 DUP13 PUSH20 0xFFFFFFFFFFFFFFFFFFFFFFFFFFFFFFFFFFFFFFFF AND PUSH20 0xFFFFFFFFFFFFFFFFFFFFFFFFFFFFFFFFFFFFFFFF AND DUP2 MSTORE PUSH1 0x20 ADD SWAP1 DUP2 MSTORE PUSH1 0x20 ADD PUSH1 0x0 KECCAK256 SLOAD PUSH2 0x4972 SWAP1 SWAP2 SWAP1 PUSH4 0xFFFFFFFF AND JUMP JUMPDEST PUSH1 0x3 PUSH1 0x0 DUP12 PUSH20 0xFFFFFFFFFFFFFFFFFFFFFFFFFFFFFFFFFFFFFFFF AND PUSH20 0xFFFFFFFFFFFFFFFFFFFFFFFFFFFFFFFFFFFFFFFF AND DUP2 MSTORE PUSH1 0x20 ADD SWAP1 DUP2 MSTORE PUSH1 0x20 ADD PUSH1 0x0 KECCAK256 DUP2 SWAP1 SSTORE POP PUSH2 0x55C0 DUP4 PUSH1 0x4 PUSH1 0x0 DUP12 PUSH20 0xFFFFFFFFFFFFFFFFFFFFFFFFFFFFFFFFFFFFFFFF AND PUSH20 0xFFFFFFFFFFFFFFFFFFFFFFFFFFFFFFFFFFFFFFFF AND DUP2 MSTORE PUSH1 0x20 ADD SWAP1 DUP2 MSTORE PUSH1 0x20 ADD PUSH1 0x0 KECCAK256 SLOAD PUSH2 0x3BF7 SWAP1 SWAP2 SWAP1 PUSH4 0xFFFFFFFF AND JUMP JUMPDEST PUSH1 0x4 PUSH1 0x0 DUP11 PUSH20 0xFFFFFFFFFFFFFFFFFFFFFFFFFFFFFFFFFFFFFFFF AND PUSH20 0xFFFFFFFFFFFFFFFFFFFFFFFFFFFFFFFFFFFFFFFF AND DUP2 MSTORE PUSH1 0x20 ADD SWAP1 DUP2 MSTORE PUSH1 0x20 ADD PUSH1 0x0 KECCAK256 DUP2 SWAP1 SSTORE POP PUSH2 0x5655 DUP6 PUSH1 0x3 PUSH1 0x0 DUP12 PUSH20 0xFFFFFFFFFFFFFFFFFFFFFFFFFFFFFFFFFFFFFFFF AND PUSH20 0xFFFFFFFFFFFFFFFFFFFFFFFFFFFFFFFFFFFFFFFF AND DUP2 MSTORE PUSH1 0x20 ADD SWAP1 DUP2 MSTORE PUSH1 0x20 ADD PUSH1 0x0 KECCAK256 SLOAD PUSH2 0x3BF7 SWAP1 SWAP2 SWAP1 PUSH4 0xFFFFFFFF AND JUMP JUMPDEST PUSH1 0x3 PUSH1 0x0 DUP11 PUSH20 0xFFFFFFFFFFFFFFFFFFFFFFFFFFFFFFFFFFFFFFFF AND PUSH20 0xFFFFFFFFFFFFFFFFFFFFFFFFFFFFFFFFFFFFFFFF AND DUP2 MSTORE PUSH1 0x20 ADD SWAP1 DUP2 MSTORE PUSH1 0x20 ADD PUSH1 0x0 KECCAK256 DUP2 SWAP1 SSTORE POP PUSH2 0x56A1 DUP2 PUSH2 0x57A7 JUMP JUMPDEST PUSH2 0x56AB DUP5 DUP4 PUSH2 0x594C JUMP JUMPDEST DUP8 PUSH20 0xFFFFFFFFFFFFFFFFFFFFFFFFFFFFFFFFFFFFFFFF AND DUP10 PUSH20 0xFFFFFFFFFFFFFFFFFFFFFFFFFFFFFFFFFFFFFFFF AND PUSH32 0xDDF252AD1BE2C89B69C2B068FC378DAA952BA7F163C4A11628F55A4DF523B3EF DUP6 PUSH1 0x40 MLOAD PUSH2 0x5708 SWAP2 SWAP1 PUSH2 0x5BB0 JUMP JUMPDEST PUSH1 0x40 MLOAD DUP1 SWAP2 SUB SWAP1 LOG3 POP POP POP POP POP POP POP POP POP JUMP JUMPDEST PUSH1 0x0 PUSH1 0xD DUP2 SWAP1 SSTORE POP PUSH1 0x3 PUSH1 0xF DUP2 SWAP1 SSTORE POP PUSH1 0x2 PUSH1 0x11 DUP2 SWAP1 SSTORE POP PUSH1 0x3 PUSH1 0x13 DUP2 SWAP1 SSTORE POP PUSH1 0x2 PUSH1 0x16 DUP2 SWAP1 SSTORE POP JUMP JUMPDEST PUSH1 0x0 PUSH2 0x576F PUSH1 0x64 PUSH2 0x5761 PUSH1 0xD SLOAD DUP6 PUSH2 0x4D85 SWAP1 SWAP2 SWAP1 PUSH4 0xFFFFFFFF AND JUMP JUMPDEST PUSH2 0x3BE1 SWAP1 SWAP2 SWAP1 PUSH4 0xFFFFFFFF AND JUMP JUMPDEST SWAP1 POP SWAP2 SWAP1 POP JUMP JUMPDEST PUSH1 0x0 PUSH2 0x57A0 PUSH1 0x64 PUSH2 0x5792 PUSH1 0xF SLOAD DUP6 PUSH2 0x4D85 SWAP1 SWAP2 SWAP1 PUSH4 0xFFFFFFFF AND JUMP JUMPDEST PUSH2 0x3BE1 SWAP1 SWAP2 SWAP1 PUSH4 0xFFFFFFFF AND JUMP JUMPDEST SWAP1 POP SWAP2 SWAP1 POP JUMP JUMPDEST PUSH1 0x0 PUSH2 0x57B1 PUSH2 0x3BB6 JUMP JUMPDEST SWAP1 POP PUSH1 0x0 PUSH2 0x57C8 DUP3 DUP5 PUSH2 0x4D85 SWAP1 SWAP2 SWAP1 PUSH4 0xFFFFFFFF AND JUMP JUMPDEST SWAP1 POP PUSH2 0x581C DUP2 PUSH1 0x3 PUSH1 0x0 ADDRESS PUSH20 0xFFFFFFFFFFFFFFFFFFFFFFFFFFFFFFFFFFFFFFFF AND PUSH20 0xFFFFFFFFFFFFFFFFFFFFFFFFFFFFFFFFFFFFFFFF AND DUP2 MSTORE PUSH1 0x20 ADD SWAP1 DUP2 MSTORE PUSH1 0x20 ADD PUSH1 0x0 KECCAK256 SLOAD PUSH2 0x3BF7 SWAP1 SWAP2 SWAP1 PUSH4 0xFFFFFFFF AND JUMP JUMPDEST PUSH1 0x3 PUSH1 0x0 ADDRESS PUSH20 0xFFFFFFFFFFFFFFFFFFFFFFFFFFFFFFFFFFFFFFFF AND PUSH20 0xFFFFFFFFFFFFFFFFFFFFFFFFFFFFFFFFFFFFFFFF AND DUP2 MSTORE PUSH1 0x20 ADD SWAP1 DUP2 MSTORE PUSH1 0x20 ADD PUSH1 0x0 KECCAK256 DUP2 SWAP1 SSTORE POP PUSH1 0x8 PUSH1 0x0 ADDRESS PUSH20 0xFFFFFFFFFFFFFFFFFFFFFFFFFFFFFFFFFFFFFFFF AND PUSH20 0xFFFFFFFFFFFFFFFFFFFFFFFFFFFFFFFFFFFFFFFF AND DUP2 MSTORE PUSH1 0x20 ADD SWAP1 DUP2 MSTORE PUSH1 0x20 ADD PUSH1 0x0 KECCAK256 PUSH1 0x0 SWAP1 SLOAD SWAP1 PUSH2 0x100 EXP SWAP1 DIV PUSH1 0xFF AND ISZERO PUSH2 0x5947 JUMPI PUSH2 0x5903 DUP4 PUSH1 0x4 PUSH1 0x0 ADDRESS PUSH20 0xFFFFFFFFFFFFFFFFFFFFFFFFFFFFFFFFFFFFFFFF AND PUSH20 0xFFFFFFFFFFFFFFFFFFFFFFFFFFFFFFFFFFFFFFFF AND DUP2 MSTORE PUSH1 0x20 ADD SWAP1 DUP2 MSTORE PUSH1 0x20 ADD PUSH1 0x0 KECCAK256 SLOAD PUSH2 0x3BF7 SWAP1 SWAP2 SWAP1 PUSH4 0xFFFFFFFF AND JUMP JUMPDEST PUSH1 0x4 PUSH1 0x0 ADDRESS PUSH20 0xFFFFFFFFFFFFFFFFFFFFFFFFFFFFFFFFFFFFFFFF AND PUSH20 0xFFFFFFFFFFFFFFFFFFFFFFFFFFFFFFFFFFFFFFFF AND DUP2 MSTORE PUSH1 0x20 ADD SWAP1 DUP2 MSTORE PUSH1 0x20 ADD PUSH1 0x0 KECCAK256 DUP2 SWAP1 SSTORE POP JUMPDEST POP POP POP JUMP JUMPDEST PUSH2 0x5961 DUP3 PUSH1 0xA SLOAD PUSH2 0x4972 SWAP1 SWAP2 SWAP1 PUSH4 0xFFFFFFFF AND JUMP JUMPDEST PUSH1 0xA DUP2 SWAP1 SSTORE POP PUSH2 0x597C DUP2 PUSH1 0xB SLOAD PUSH2 0x3BF7 SWAP1 SWAP2 SWAP1 PUSH4 0xFFFFFFFF AND JUMP JUMPDEST PUSH1 0xB DUP2 SWAP1 SSTORE POP POP POP JUMP JUMPDEST PUSH1 0x0 DUP1 REVERT JUMPDEST PUSH1 0x0 DUP2 SWAP1 POP SWAP2 SWAP1 POP JUMP JUMPDEST PUSH2 0x599E DUP2 PUSH2 0x598B JUMP JUMPDEST DUP2 EQ PUSH2 0x59A9 JUMPI PUSH1 0x0 DUP1 REVERT JUMPDEST POP JUMP JUMPDEST PUSH1 0x0 DUP2 CALLDATALOAD SWAP1 POP PUSH2 0x59BB DUP2 PUSH2 0x5995 JUMP JUMPDEST SWAP3 SWAP2 POP POP JUMP JUMPDEST PUSH1 0x0 PUSH1 0x20 DUP3 DUP5 SUB SLT ISZERO PUSH2 0x59D7 JUMPI PUSH2 0x59D6 PUSH2 0x5986 JUMP JUMPDEST JUMPDEST PUSH1 0x0 PUSH2 0x59E5 DUP5 DUP3 DUP6 ADD PUSH2 0x59AC JUMP JUMPDEST SWAP2 POP POP SWAP3 SWAP2 POP POP JUMP JUMPDEST PUSH1 0x0 DUP2 MLOAD SWAP1 POP SWAP2 SWAP1 POP JUMP JUMPDEST PUSH1 0x0 DUP3 DUP3 MSTORE PUSH1 0x20 DUP3 ADD SWAP1 POP SWAP3 SWAP2 POP POP JUMP JUMPDEST PUSH1 0x0 JUMPDEST DUP4 DUP2 LT ISZERO PUSH2 0x5A28 JUMPI DUP1 DUP3 ADD MLOAD DUP2 DUP5 ADD MSTORE PUSH1 0x20 DUP2 ADD SWAP1 POP PUSH2 0x5A0D JUMP JUMPDEST PUSH1 0x0 DUP5 DUP5 ADD MSTORE POP POP POP POP JUMP JUMPDEST PUSH1 0x0 PUSH1 0x1F NOT PUSH1 0x1F DUP4 ADD AND SWAP1 POP SWAP2 SWAP1 POP JUMP JUMPDEST PUSH1 0x0 PUSH2 0x5A50 DUP3 PUSH2 0x59EE JUMP JUMPDEST PUSH2 0x5A5A DUP2 DUP6 PUSH2 0x59F9 JUMP JUMPDEST SWAP4 POP PUSH2 0x5A6A DUP2 DUP6 PUSH1 0x20 DUP7 ADD PUSH2 0x5A0A JUMP JUMPDEST PUSH2 0x5A73 DUP2 PUSH2 0x5A34 JUMP JUMPDEST DUP5 ADD SWAP2 POP POP SWAP3 SWAP2 POP POP JUMP JUMPDEST PUSH1 0x0 PUSH1 0x20 DUP3 ADD SWAP1 POP DUP2 DUP2 SUB PUSH1 0x0 DUP4 ADD MSTORE PUSH2 0x5A98 DUP2 DUP5 PUSH2 0x5A45 JUMP JUMPDEST SWAP1 POP SWAP3 SWAP2 POP POP JUMP JUMPDEST PUSH1 0x0 PUSH20 0xFFFFFFFFFFFFFFFFFFFFFFFFFFFFFFFFFFFFFFFF DUP3 AND SWAP1 POP SWAP2 SWAP1 POP JUMP JUMPDEST PUSH1 0x0 PUSH2 0x5ACB DUP3 PUSH2 0x5AA0 JUMP JUMPDEST SWAP1 POP SWAP2 SWAP1 POP JUMP JUMPDEST PUSH2 0x5ADB DUP2 PUSH2 0x5AC0 JUMP JUMPDEST DUP2 EQ PUSH2 0x5AE6 JUMPI PUSH1 0x0 DUP1 REVERT JUMPDEST POP JUMP JUMPDEST PUSH1 0x0 DUP2 CALLDATALOAD SWAP1 POP PUSH2 0x5AF8 DUP2 PUSH2 0x5AD2 JUMP JUMPDEST SWAP3 SWAP2 POP POP JUMP JUMPDEST PUSH1 0x0 DUP1 PUSH1 0x40 DUP4 DUP6 SUB SLT ISZERO PUSH2 0x5B15 JUMPI PUSH2 0x5B14 PUSH2 0x5986 JUMP JUMPDEST JUMPDEST PUSH1 0x0 PUSH2 0x5B23 DUP6 DUP3 DUP7 ADD PUSH2 0x5AE9 JUMP JUMPDEST SWAP3 POP POP PUSH1 0x20 PUSH2 0x5B34 DUP6 DUP3 DUP7 ADD PUSH2 0x59AC JUMP JUMPDEST SWAP2 POP POP SWAP3 POP SWAP3 SWAP1 POP JUMP JUMPDEST PUSH1 0x0 DUP2 ISZERO ISZERO SWAP1 POP SWAP2 SWAP1 POP JUMP JUMPDEST PUSH2 0x5B53 DUP2 PUSH2 0x5B3E JUMP JUMPDEST DUP3 MSTORE POP POP JUMP JUMPDEST PUSH1 0x0 PUSH1 0x20 DUP3 ADD SWAP1 POP PUSH2 0x5B6E PUSH1 0x0 DUP4 ADD DUP5 PUSH2 0x5B4A JUMP JUMPDEST SWAP3 SWAP2 POP POP JUMP JUMPDEST PUSH1 0x0 PUSH1 0x20 DUP3 DUP5 SUB SLT ISZERO PUSH2 0x5B8A JUMPI PUSH2 0x5B89 PUSH2 0x5986 JUMP JUMPDEST JUMPDEST PUSH1 0x0 PUSH2 0x5B98 DUP5 DUP3 DUP6 ADD PUSH2 0x5AE9 JUMP JUMPDEST SWAP2 POP POP SWAP3 SWAP2 POP POP JUMP JUMPDEST PUSH2 0x5BAA DUP2 PUSH2 0x598B JUMP JUMPDEST DUP3 MSTORE POP POP JUMP JUMPDEST PUSH1 0x0 PUSH1 0x20 DUP3 ADD SWAP1 POP PUSH2 0x5BC5 PUSH1 0x0 DUP4 ADD DUP5 PUSH2 0x5BA1 JUMP JUMPDEST SWAP3 SWAP2 POP POP JUMP JUMPDEST PUSH1 0x0 DUP1 PUSH1 0x0 PUSH1 0x60 DUP5 DUP7 SUB SLT ISZERO PUSH2 0x5BE4 JUMPI PUSH2 0x5BE3 PUSH2 0x5986 JUMP JUMPDEST JUMPDEST PUSH1 0x0 PUSH2 0x5BF2 DUP7 DUP3 DUP8 ADD PUSH2 0x5AE9 JUMP JUMPDEST SWAP4 POP POP PUSH1 0x20 PUSH2 0x5C03 DUP7 DUP3 DUP8 ADD PUSH2 0x5AE9 JUMP JUMPDEST SWAP3 POP POP PUSH1 0x40 PUSH2 0x5C14 DUP7 DUP3 DUP8 ADD PUSH2 0x59AC JUMP JUMPDEST SWAP2 POP POP SWAP3 POP SWAP3 POP SWAP3 JUMP JUMPDEST PUSH1 0x0 PUSH1 0xFF DUP3 AND SWAP1 POP SWAP2 SWAP1 POP JUMP JUMPDEST PUSH2 0x5C34 DUP2 PUSH2 0x5C1E JUMP JUMPDEST DUP3 MSTORE POP POP JUMP JUMPDEST PUSH1 0x0 PUSH1 0x20 DUP3 ADD SWAP1 POP PUSH2 0x5C4F PUSH1 0x0 DUP4 ADD DUP5 PUSH2 0x5C2B JUMP JUMPDEST SWAP3 SWAP2 POP POP JUMP JUMPDEST PUSH2 0x5C5E DUP2 PUSH2 0x5B3E JUMP JUMPDEST DUP2 EQ PUSH2 0x5C69 JUMPI PUSH1 0x0 DUP1 REVERT JUMPDEST POP JUMP JUMPDEST PUSH1 0x0 DUP2 CALLDATALOAD SWAP1 POP PUSH2 0x5C7B DUP2 PUSH2 0x5C55 JUMP JUMPDEST SWAP3 SWAP2 POP POP JUMP JUMPDEST PUSH1 0x0 DUP1 PUSH1 0x40 DUP4 DUP6 SUB SLT ISZERO PUSH2 0x5C98 JUMPI PUSH2 0x5C97 PUSH2 0x5986 JUMP JUMPDEST JUMPDEST PUSH1 0x0 PUSH2 0x5CA6 DUP6 DUP3 DUP7 ADD PUSH2 0x59AC JUMP JUMPDEST SWAP3 POP POP PUSH1 0x20 PUSH2 0x5CB7 DUP6 DUP3 DUP7 ADD PUSH2 0x5C6C JUMP JUMPDEST SWAP2 POP POP SWAP3 POP SWAP3 SWAP1 POP JUMP JUMPDEST PUSH2 0x5CCA DUP2 PUSH2 0x5AC0 JUMP JUMPDEST DUP3 MSTORE POP POP JUMP JUMPDEST PUSH1 0x0 PUSH1 0x20 DUP3 ADD SWAP1 POP PUSH2 0x5CE5 PUSH1 0x0 DUP4 ADD DUP5 PUSH2 0x5CC1 JUMP JUMPDEST SWAP3 SWAP2 POP POP JUMP JUMPDEST PUSH1 0x0 PUSH1 0x20 DUP3 DUP5 SUB SLT ISZERO PUSH2 0x5D01 JUMPI PUSH2 0x5D00 PUSH2 0x5986 JUMP JUMPDEST JUMPDEST PUSH1 0x0 PUSH2 0x5D0F DUP5 DUP3 DUP6 ADD PUSH2 0x5C6C JUMP JUMPDEST SWAP2 POP POP SWAP3 SWAP2 POP POP JUMP JUMPDEST PUSH1 0x0 PUSH2 0x5D23 DUP3 PUSH2 0x5AA0 JUMP JUMPDEST SWAP1 POP SWAP2 SWAP1 POP JUMP JUMPDEST PUSH2 0x5D33 DUP2 PUSH2 0x5D18 JUMP JUMPDEST DUP2 EQ PUSH2 0x5D3E JUMPI PUSH1 0x0 DUP1 REVERT JUMPDEST POP JUMP JUMPDEST PUSH1 0x0 DUP2 CALLDATALOAD SWAP1 POP PUSH2 0x5D50 DUP2 PUSH2 0x5D2A JUMP JUMPDEST SWAP3 SWAP2 POP POP JUMP JUMPDEST PUSH1 0x0 DUP1 PUSH1 0x40 DUP4 DUP6 SUB SLT ISZERO PUSH2 0x5D6D JUMPI PUSH2 0x5D6C PUSH2 0x5986 JUMP JUMPDEST JUMPDEST PUSH1 0x0 PUSH2 0x5D7B DUP6 DUP3 DUP7 ADD PUSH2 0x5D41 JUMP JUMPDEST SWAP3 POP POP PUSH1 0x20 PUSH2 0x5D8C DUP6 DUP3 DUP7 ADD PUSH2 0x59AC JUMP JUMPDEST SWAP2 POP POP SWAP3 POP SWAP3 SWAP1 POP JUMP JUMPDEST PUSH1 0x0 DUP1 PUSH1 0x40 DUP4 DUP6 SUB SLT ISZERO PUSH2 0x5DAD JUMPI PUSH2 0x5DAC PUSH2 0x5986 JUMP JUMPDEST JUMPDEST PUSH1 0x0 PUSH2 0x5DBB DUP6 DUP3 DUP7 ADD PUSH2 0x5AE9 JUMP JUMPDEST SWAP3 POP POP PUSH1 0x20 PUSH2 0x5DCC DUP6 DUP3 DUP7 ADD PUSH2 0x5AE9 JUMP JUMPDEST SWAP2 POP POP SWAP3 POP SWAP3 SWAP1 POP JUMP JUMPDEST PUSH1 0x0 DUP2 SWAP1 POP SWAP2 SWAP1 POP JUMP JUMPDEST PUSH1 0x0 PUSH2 0x5DFB PUSH2 0x5DF6 PUSH2 0x5DF1 DUP5 PUSH2 0x5AA0 JUMP JUMPDEST PUSH2 0x5DD6 JUMP JUMPDEST PUSH2 0x5AA0 JUMP JUMPDEST SWAP1 POP SWAP2 SWAP1 POP JUMP JUMPDEST PUSH1 0x0 PUSH2 0x5E0D DUP3 PUSH2 0x5DE0 JUMP JUMPDEST SWAP1 POP SWAP2 SWAP1 POP JUMP JUMPDEST PUSH1 0x0 PUSH2 0x5E1F DUP3 PUSH2 0x5E02 JUMP JUMPDEST SWAP1 POP SWAP2 SWAP1 POP JUMP JUMPDEST PUSH2 0x5E2F DUP2 PUSH2 0x5E14 JUMP JUMPDEST DUP3 MSTORE POP POP JUMP JUMPDEST PUSH1 0x0 PUSH1 0x20 DUP3 ADD SWAP1 POP PUSH2 0x5E4A PUSH1 0x0 DUP4 ADD DUP5 PUSH2 0x5E26 JUMP JUMPDEST SWAP3 SWAP2 POP POP JUMP JUMPDEST PUSH32 0x4F776E61626C653A2063616C6C6572206973206E6F7420746865206F776E6572 PUSH1 0x0 DUP3 ADD MSTORE POP JUMP JUMPDEST PUSH1 0x0 PUSH2 0x5E86 PUSH1 0x20 DUP4 PUSH2 0x59F9 JUMP JUMPDEST SWAP2 POP PUSH2 0x5E91 DUP3 PUSH2 0x5E50 JUMP JUMPDEST PUSH1 0x20 DUP3 ADD SWAP1 POP SWAP2 SWAP1 POP JUMP JUMPDEST PUSH1 0x0 PUSH1 0x20 DUP3 ADD SWAP1 POP DUP2 DUP2 SUB PUSH1 0x0 DUP4 ADD MSTORE PUSH2 0x5EB5 DUP2 PUSH2 0x5E79 JUMP JUMPDEST SWAP1 POP SWAP2 SWAP1 POP JUMP JUMPDEST PUSH32 0x42455032303A20746865206E65772077616C6C65742063616E6E6F7420626520 PUSH1 0x0 DUP3 ADD MSTORE PUSH32 0x746865207A65726F20616464726573732E000000000000000000000000000000 PUSH1 0x20 DUP3 ADD MSTORE POP JUMP JUMPDEST PUSH1 0x0 PUSH2 0x5F18 PUSH1 0x31 DUP4 PUSH2 0x59F9 JUMP JUMPDEST SWAP2 POP PUSH2 0x5F23 DUP3 PUSH2 0x5EBC JUMP JUMPDEST PUSH1 0x40 DUP3 ADD SWAP1 POP SWAP2 SWAP1 POP JUMP JUMPDEST PUSH1 0x0 PUSH1 0x20 DUP3 ADD SWAP1 POP DUP2 DUP2 SUB PUSH1 0x0 DUP4 ADD MSTORE PUSH2 0x5F47 DUP2 PUSH2 0x5F0B JUMP JUMPDEST SWAP1 POP SWAP2 SWAP1 POP JUMP JUMPDEST PUSH32 0x4E487B7100000000000000000000000000000000000000000000000000000000 PUSH1 0x0 MSTORE PUSH1 0x11 PUSH1 0x4 MSTORE PUSH1 0x24 PUSH1 0x0 REVERT JUMPDEST PUSH1 0x0 DUP2 PUSH1 0x1 SHR SWAP1 POP SWAP2 SWAP1 POP JUMP JUMPDEST PUSH1 0x0 DUP1 DUP3 SWAP2 POP DUP4 SWAP1 POP JUMPDEST PUSH1 0x1 DUP6 GT ISZERO PUSH2 0x5FD4 JUMPI DUP1 DUP7 DIV DUP2 GT ISZERO PUSH2 0x5FB0 JUMPI PUSH2 0x5FAF PUSH2 0x5F4E JUMP JUMPDEST JUMPDEST PUSH1 0x1 DUP6 AND ISZERO PUSH2 0x5FBF JUMPI DUP1 DUP3 MUL SWAP2 POP JUMPDEST DUP1 DUP2 MUL SWAP1 POP PUSH2 0x5FCD DUP6 PUSH2 0x5F7D JUMP JUMPDEST SWAP5 POP PUSH2 0x5F94 JUMP JUMPDEST SWAP5 POP SWAP5 SWAP3 POP POP POP JUMP JUMPDEST PUSH1 0x0 DUP3 PUSH2 0x5FED JUMPI PUSH1 0x1 SWAP1 POP PUSH2 0x60A9 JUMP JUMPDEST DUP2 PUSH2 0x5FFB JUMPI PUSH1 0x0 SWAP1 POP PUSH2 0x60A9 JUMP JUMPDEST DUP2 PUSH1 0x1 DUP2 EQ PUSH2 0x6011 JUMPI PUSH1 0x2 DUP2 EQ PUSH2 0x601B JUMPI PUSH2 0x604A JUMP JUMPDEST PUSH1 0x1 SWAP2 POP POP PUSH2 0x60A9 JUMP JUMPDEST PUSH1 0xFF DUP5 GT ISZERO PUSH2 0x602D JUMPI PUSH2 0x602C PUSH2 0x5F4E JUMP JUMPDEST JUMPDEST DUP4 PUSH1 0x2 EXP SWAP2 POP DUP5 DUP3 GT ISZERO PUSH2 0x6044 JUMPI PUSH2 0x6043 PUSH2 0x5F4E JUMP JUMPDEST JUMPDEST POP PUSH2 0x60A9 JUMP JUMPDEST POP PUSH1 0x20 DUP4 LT PUSH2 0x133 DUP4 LT AND PUSH1 0x4E DUP5 LT PUSH1 0xB DUP5 LT AND OR ISZERO PUSH2 0x607F JUMPI DUP3 DUP3 EXP SWAP1 POP DUP4 DUP2 GT ISZERO PUSH2 0x607A JUMPI PUSH2 0x6079 PUSH2 0x5F4E JUMP JUMPDEST JUMPDEST PUSH2 0x60A9 JUMP JUMPDEST PUSH2 0x608C DUP5 DUP5 DUP5 PUSH1 0x1 PUSH2 0x5F8A JUMP JUMPDEST SWAP3 POP SWAP1 POP DUP2 DUP5 DIV DUP2 GT ISZERO PUSH2 0x60A3 JUMPI PUSH2 0x60A2 PUSH2 0x5F4E JUMP JUMPDEST JUMPDEST DUP2 DUP2 MUL SWAP1 POP JUMPDEST SWAP4 SWAP3 POP POP POP JUMP JUMPDEST PUSH1 0x0 PUSH2 0x60BB DUP3 PUSH2 0x598B JUMP JUMPDEST SWAP2 POP PUSH2 0x60C6 DUP4 PUSH2 0x5C1E JUMP JUMPDEST SWAP3 POP PUSH2 0x60F3 PUSH32 0xFFFFFFFFFFFFFFFFFFFFFFFFFFFFFFFFFFFFFFFFFFFFFFFFFFFFFFFFFFFFFFFF DUP5 DUP5 PUSH2 0x5FDD JUMP JUMPDEST SWAP1 POP SWAP3 SWAP2 POP POP JUMP JUMPDEST PUSH1 0x0 PUSH2 0x6106 DUP3 PUSH2 0x598B JUMP JUMPDEST SWAP2 POP PUSH2 0x6111 DUP4 PUSH2 0x598B JUMP JUMPDEST SWAP3 POP DUP3 DUP3 MUL PUSH2 0x611F DUP2 PUSH2 0x598B JUMP JUMPDEST SWAP2 POP DUP3 DUP3 DIV DUP5 EQ DUP4 ISZERO OR PUSH2 0x6136 JUMPI PUSH2 0x6135 PUSH2 0x5F4E JUMP JUMPDEST JUMPDEST POP SWAP3 SWAP2 POP POP JUMP JUMPDEST PUSH32 0x416D6F756E74206D757374206265206C657373207468616E20746F74616C2072 PUSH1 0x0 DUP3 ADD MSTORE PUSH32 0x65666C656374696F6E7300000000000000000000000000000000000000000000 PUSH1 0x20 DUP3 ADD MSTORE POP JUMP JUMPDEST PUSH1 0x0 PUSH2 0x6199 PUSH1 0x2A DUP4 PUSH2 0x59F9 JUMP JUMPDEST SWAP2 POP PUSH2 0x61A4 DUP3 PUSH2 0x613D JUMP JUMPDEST PUSH1 0x40 DUP3 ADD SWAP1 POP SWAP2 SWAP1 POP JUMP JUMPDEST PUSH1 0x0 PUSH1 0x20 DUP3 ADD SWAP1 POP DUP2 DUP2 SUB PUSH1 0x0 DUP4 ADD MSTORE PUSH2 0x61C8 DUP2 PUSH2 0x618C JUMP JUMPDEST SWAP1 POP SWAP2 SWAP1 POP JUMP JUMPDEST PUSH32 0x4163636F756E74206973206E6F74206578636C75646564000000000000000000 PUSH1 0x0 DUP3 ADD MSTORE POP JUMP JUMPDEST PUSH1 0x0 PUSH2 0x6205 PUSH1 0x17 DUP4 PUSH2 0x59F9 JUMP JUMPDEST SWAP2 POP PUSH2 0x6210 DUP3 PUSH2 0x61CF JUMP JUMPDEST PUSH1 0x20 DUP3 ADD SWAP1 POP SWAP2 SWAP1 POP JUMP JUMPDEST PUSH1 0x0 PUSH1 0x20 DUP3 ADD SWAP1 POP DUP2 DUP2 SUB PUSH1 0x0 DUP4 ADD MSTORE PUSH2 0x6234 DUP2 PUSH2 0x61F8 JUMP JUMPDEST SWAP1 POP SWAP2 SWAP1 POP JUMP JUMPDEST PUSH32 0x4E487B7100000000000000000000000000000000000000000000000000000000 PUSH1 0x0 MSTORE PUSH1 0x32 PUSH1 0x4 MSTORE PUSH1 0x24 PUSH1 0x0 REVERT JUMPDEST PUSH1 0x0 PUSH2 0x6275 DUP3 PUSH2 0x598B JUMP JUMPDEST SWAP2 POP PUSH2 0x6280 DUP4 PUSH2 0x598B JUMP JUMPDEST SWAP3 POP DUP3 DUP3 SUB SWAP1 POP DUP2 DUP2 GT ISZERO PUSH2 0x6298 JUMPI PUSH2 0x6297 PUSH2 0x5F4E JUMP JUMPDEST JUMPDEST SWAP3 SWAP2 POP POP JUMP JUMPDEST PUSH32 0x4E487B7100000000000000000000000000000000000000000000000000000000 PUSH1 0x0 MSTORE PUSH1 0x31 PUSH1 0x4 MSTORE PUSH1 0x24 PUSH1 0x0 REVERT JUMPDEST PUSH1 0x0 PUSH2 0x62D8 DUP3 PUSH2 0x598B JUMP JUMPDEST SWAP2 POP PUSH32 0xFFFFFFFFFFFFFFFFFFFFFFFFFFFFFFFFFFFFFFFFFFFFFFFFFFFFFFFFFFFFFFFF DUP3 SUB PUSH2 0x630A JUMPI PUSH2 0x6309 PUSH2 0x5F4E JUMP JUMPDEST JUMPDEST PUSH1 0x1 DUP3 ADD SWAP1 POP SWAP2 SWAP1 POP JUMP JUMPDEST PUSH1 0x0 DUP2 MLOAD SWAP1 POP PUSH2 0x6324 DUP2 PUSH2 0x5AD2 JUMP JUMPDEST SWAP3 SWAP2 POP POP JUMP JUMPDEST PUSH1 0x0 PUSH1 0x20 DUP3 DUP5 SUB SLT ISZERO PUSH2 0x6340 JUMPI PUSH2 0x633F PUSH2 0x5986 JUMP JUMPDEST JUMPDEST PUSH1 0x0 PUSH2 0x634E DUP5 DUP3 DUP6 ADD PUSH2 0x6315 JUMP JUMPDEST SWAP2 POP POP SWAP3 SWAP2 POP POP JUMP JUMPDEST PUSH1 0x0 PUSH1 0x40 DUP3 ADD SWAP1 POP PUSH2 0x636C PUSH1 0x0 DUP4 ADD DUP6 PUSH2 0x5CC1 JUMP JUMPDEST PUSH2 0x6379 PUSH1 0x20 DUP4 ADD DUP5 PUSH2 0x5CC1 JUMP JUMPDEST SWAP4 SWAP3 POP POP POP JUMP JUMPDEST PUSH32 0x416D6F756E74206D757374206265206C657373207468616E20737570706C7900 PUSH1 0x0 DUP3 ADD MSTORE POP JUMP JUMPDEST PUSH1 0x0 PUSH2 0x63B6 PUSH1 0x1F DUP4 PUSH2 0x59F9 JUMP JUMPDEST SWAP2 POP PUSH2 0x63C1 DUP3 PUSH2 0x6380 JUMP JUMPDEST PUSH1 0x20 DUP3 ADD SWAP1 POP SWAP2 SWAP1 POP JUMP JUMPDEST PUSH1 0x0 PUSH1 0x20 DUP3 ADD SWAP1 POP DUP2 DUP2 SUB PUSH1 0x0 DUP4 ADD MSTORE PUSH2 0x63E5 DUP2 PUSH2 0x63A9 JUMP JUMPDEST SWAP1 POP SWAP2 SWAP1 POP JUMP JUMPDEST PUSH32 0x57652063616E206E6F74206578636C7564652050616E63616B6520726F757465 PUSH1 0x0 DUP3 ADD MSTORE PUSH32 0x722E000000000000000000000000000000000000000000000000000000000000 PUSH1 0x20 DUP3 ADD MSTORE POP JUMP JUMPDEST PUSH1 0x0 PUSH2 0x6448 PUSH1 0x22 DUP4 PUSH2 0x59F9 JUMP JUMPDEST SWAP2 POP PUSH2 0x6453 DUP3 PUSH2 0x63EC JUMP JUMPDEST PUSH1 0x40 DUP3 ADD SWAP1 POP SWAP2 SWAP1 POP JUMP JUMPDEST PUSH1 0x0 PUSH1 0x20 DUP3 ADD SWAP1 POP DUP2 DUP2 SUB PUSH1 0x0 DUP4 ADD MSTORE PUSH2 0x6477 DUP2 PUSH2 0x643B JUMP JUMPDEST SWAP1 POP SWAP2 SWAP1 POP JUMP JUMPDEST PUSH32 0x4163636F756E7420697320616C7265616479206578636C756465640000000000 PUSH1 0x0 DUP3 ADD MSTORE POP JUMP JUMPDEST PUSH1 0x0 PUSH2 0x64B4 PUSH1 0x1B DUP4 PUSH2 0x59F9 JUMP JUMPDEST SWAP2 POP PUSH2 0x64BF DUP3 PUSH2 0x647E JUMP JUMPDEST PUSH1 0x20 DUP3 ADD SWAP1 POP SWAP2 SWAP1 POP JUMP JUMPDEST PUSH1 0x0 PUSH1 0x20 DUP3 ADD SWAP1 POP DUP2 DUP2 SUB PUSH1 0x0 DUP4 ADD MSTORE PUSH2 0x64E3 DUP2 PUSH2 0x64A7 JUMP JUMPDEST SWAP1 POP SWAP2 SWAP1 POP JUMP JUMPDEST PUSH32 0x4E487B7100000000000000000000000000000000000000000000000000000000 PUSH1 0x0 MSTORE PUSH1 0x12 PUSH1 0x4 MSTORE PUSH1 0x24 PUSH1 0x0 REVERT JUMPDEST PUSH1 0x0 PUSH2 0x6524 DUP3 PUSH2 0x598B JUMP JUMPDEST SWAP2 POP PUSH2 0x652F DUP4 PUSH2 0x598B JUMP JUMPDEST SWAP3 POP DUP3 PUSH2 0x653F JUMPI PUSH2 0x653E PUSH2 0x64EA JUMP JUMPDEST JUMPDEST DUP3 DUP3 DIV SWAP1 POP SWAP3 SWAP2 POP POP JUMP JUMPDEST PUSH32 0x6D61782077616C6C6574206D617820616D6F756E743A20302E32352500000000 PUSH1 0x0 DUP3 ADD MSTORE POP JUMP JUMPDEST PUSH1 0x0 PUSH2 0x6580 PUSH1 0x1C DUP4 PUSH2 0x59F9 JUMP JUMPDEST SWAP2 POP PUSH2 0x658B DUP3 PUSH2 0x654A JUMP JUMPDEST PUSH1 0x20 DUP3 ADD SWAP1 POP SWAP2 SWAP1 POP JUMP JUMPDEST PUSH1 0x0 PUSH1 0x20 DUP3 ADD SWAP1 POP DUP2 DUP2 SUB PUSH1 0x0 DUP4 ADD MSTORE PUSH2 0x65AF DUP2 PUSH2 0x6573 JUMP JUMPDEST SWAP1 POP SWAP2 SWAP1 POP JUMP JUMPDEST PUSH32 0x43616E6E6F74207472616E7366657220746F20636F6E74726163742061646472 PUSH1 0x0 DUP3 ADD MSTORE PUSH32 0x6573730000000000000000000000000000000000000000000000000000000000 PUSH1 0x20 DUP3 ADD MSTORE POP JUMP JUMPDEST PUSH1 0x0 PUSH2 0x6612 PUSH1 0x23 DUP4 PUSH2 0x59F9 JUMP JUMPDEST SWAP2 POP PUSH2 0x661D DUP3 PUSH2 0x65B6 JUMP JUMPDEST PUSH1 0x40 DUP3 ADD SWAP1 POP SWAP2 SWAP1 POP JUMP JUMPDEST PUSH1 0x0 PUSH1 0x20 DUP3 ADD SWAP1 POP DUP2 DUP2 SUB PUSH1 0x0 DUP4 ADD MSTORE PUSH2 0x6641 DUP2 PUSH2 0x6605 JUMP JUMPDEST SWAP1 POP SWAP2 SWAP1 POP JUMP JUMPDEST PUSH32 0x4F6E6C7920636F6E7472616374206F776E6572206F7220636F6E747261637420 PUSH1 0x0 DUP3 ADD MSTORE PUSH32 0x616464726573732063616E207472616E7366657220746F206275726E20616464 PUSH1 0x20 DUP3 ADD MSTORE PUSH32 0x7265737300000000000000000000000000000000000000000000000000000000 PUSH1 0x40 DUP3 ADD MSTORE POP JUMP JUMPDEST PUSH1 0x0 PUSH2 0x66CA PUSH1 0x44 DUP4 PUSH2 0x59F9 JUMP JUMPDEST SWAP2 POP PUSH2 0x66D5 DUP3 PUSH2 0x6648 JUMP JUMPDEST PUSH1 0x60 DUP3 ADD SWAP1 POP SWAP2 SWAP1 POP JUMP JUMPDEST PUSH1 0x0 PUSH1 0x20 DUP3 ADD SWAP1 POP DUP2 DUP2 SUB PUSH1 0x0 DUP4 ADD MSTORE PUSH2 0x66F9 DUP2 PUSH2 0x66BD JUMP JUMPDEST SWAP1 POP SWAP2 SWAP1 POP JUMP JUMPDEST PUSH32 0x5265656E7472616E637947756172643A207265656E7472616E742063616C6C00 PUSH1 0x0 DUP3 ADD MSTORE POP JUMP JUMPDEST PUSH1 0x0 PUSH2 0x6736 PUSH1 0x1F DUP4 PUSH2 0x59F9 JUMP JUMPDEST SWAP2 POP PUSH2 0x6741 DUP3 PUSH2 0x6700 JUMP JUMPDEST PUSH1 0x20 DUP3 ADD SWAP1 POP SWAP2 SWAP1 POP JUMP JUMPDEST PUSH1 0x0 PUSH1 0x20 DUP3 ADD SWAP1 POP DUP2 DUP2 SUB PUSH1 0x0 DUP4 ADD MSTORE PUSH2 0x6765 DUP2 PUSH2 0x6729 JUMP JUMPDEST SWAP1 POP SWAP2 SWAP1 POP JUMP JUMPDEST PUSH32 0x42455032303A20726563697069656E742063616E6E6F7420626520746865207A PUSH1 0x0 DUP3 ADD MSTORE PUSH32 0x65726F2061646472657373000000000000000000000000000000000000000000 PUSH1 0x20 DUP3 ADD MSTORE POP JUMP JUMPDEST PUSH1 0x0 PUSH2 0x67C8 PUSH1 0x2B DUP4 PUSH2 0x59F9 JUMP JUMPDEST SWAP2 POP PUSH2 0x67D3 DUP3 PUSH2 0x676C JUMP JUMPDEST PUSH1 0x40 DUP3 ADD SWAP1 POP SWAP2 SWAP1 POP JUMP JUMPDEST PUSH1 0x0 PUSH1 0x20 DUP3 ADD SWAP1 POP DUP2 DUP2 SUB PUSH1 0x0 DUP4 ADD MSTORE PUSH2 0x67F7 DUP2 PUSH2 0x67BB JUMP JUMPDEST SWAP1 POP SWAP2 SWAP1 POP JUMP JUMPDEST PUSH32 0x42455032303A20616D6F756E742073686F756C64206E6F742065786365656420 PUSH1 0x0 DUP3 ADD MSTORE PUSH32 0x74686520636F6E74726163742062616C616E63652E0000000000000000000000 PUSH1 0x20 DUP3 ADD MSTORE POP JUMP JUMPDEST PUSH1 0x0 PUSH2 0x685A PUSH1 0x35 DUP4 PUSH2 0x59F9 JUMP JUMPDEST SWAP2 POP PUSH2 0x6865 DUP3 PUSH2 0x67FE JUMP JUMPDEST PUSH1 0x40 DUP3 ADD SWAP1 POP SWAP2 SWAP1 POP JUMP JUMPDEST PUSH1 0x0 PUSH1 0x20 DUP3 ADD SWAP1 POP DUP2 DUP2 SUB PUSH1 0x0 DUP4 ADD MSTORE PUSH2 0x6889 DUP2 PUSH2 0x684D JUMP JUMPDEST SWAP1 POP SWAP2 SWAP1 POP JUMP JUMPDEST PUSH1 0x0 PUSH2 0x689B DUP3 PUSH2 0x598B JUMP JUMPDEST SWAP2 POP PUSH2 0x68A6 DUP4 PUSH2 0x598B JUMP JUMPDEST SWAP3 POP DUP3 DUP3 ADD SWAP1 POP DUP1 DUP3 GT ISZERO PUSH2 0x68BE JUMPI PUSH2 0x68BD PUSH2 0x5F4E JUMP JUMPDEST JUMPDEST SWAP3 SWAP2 POP POP JUMP JUMPDEST PUSH32 0x42455032303A2074686520616D6F756E74206D757374206265206C6573736572 PUSH1 0x0 DUP3 ADD MSTORE PUSH32 0x207468616E206F7220657175616C20746F2031304B2E00000000000000000000 PUSH1 0x20 DUP3 ADD MSTORE POP JUMP JUMPDEST PUSH1 0x0 PUSH2 0x6920 PUSH1 0x36 DUP4 PUSH2 0x59F9 JUMP JUMPDEST SWAP2 POP PUSH2 0x692B DUP3 PUSH2 0x68C4 JUMP JUMPDEST PUSH1 0x40 DUP3 ADD SWAP1 POP SWAP2 SWAP1 POP JUMP JUMPDEST PUSH1 0x0 PUSH1 0x20 DUP3 ADD SWAP1 POP DUP2 DUP2 SUB PUSH1 0x0 DUP4 ADD MSTORE PUSH2 0x694F DUP2 PUSH2 0x6913 JUMP JUMPDEST SWAP1 POP SWAP2 SWAP1 POP JUMP JUMPDEST PUSH32 0x4F776E61626C653A206E6577206F776E657220697320746865207A65726F2061 PUSH1 0x0 DUP3 ADD MSTORE PUSH32 0x6464726573730000000000000000000000000000000000000000000000000000 PUSH1 0x20 DUP3 ADD MSTORE POP JUMP JUMPDEST PUSH1 0x0 PUSH2 0x69B2 PUSH1 0x26 DUP4 PUSH2 0x59F9 JUMP JUMPDEST SWAP2 POP PUSH2 0x69BD DUP3 PUSH2 0x6956 JUMP JUMPDEST PUSH1 0x40 DUP3 ADD SWAP1 POP SWAP2 SWAP1 POP JUMP JUMPDEST PUSH1 0x0 PUSH1 0x20 DUP3 ADD SWAP1 POP DUP2 DUP2 SUB PUSH1 0x0 DUP4 ADD MSTORE PUSH2 0x69E1 DUP2 PUSH2 0x69A5 JUMP JUMPDEST SWAP1 POP SWAP2 SWAP1 POP JUMP JUMPDEST PUSH32 0x42455032303A20617070726F76652066726F6D20746865207A65726F20616464 PUSH1 0x0 DUP3 ADD MSTORE PUSH32 0x7265737300000000000000000000000000000000000000000000000000000000 PUSH1 0x20 DUP3 ADD MSTORE POP JUMP JUMPDEST PUSH1 0x0 PUSH2 0x6A44 PUSH1 0x24 DUP4 PUSH2 0x59F9 JUMP JUMPDEST SWAP2 POP PUSH2 0x6A4F DUP3 PUSH2 0x69E8 JUMP JUMPDEST PUSH1 0x40 DUP3 ADD SWAP1 POP SWAP2 SWAP1 POP JUMP JUMPDEST PUSH1 0x0 PUSH1 0x20 DUP3 ADD SWAP1 POP DUP2 DUP2 SUB PUSH1 0x0 DUP4 ADD MSTORE PUSH2 0x6A73 DUP2 PUSH2 0x6A37 JUMP JUMPDEST SWAP1 POP SWAP2 SWAP1 POP JUMP JUMPDEST PUSH32 0x42455032303A20617070726F766520746F20746865207A65726F206164647265 PUSH1 0x0 DUP3 ADD MSTORE PUSH32 0x7373000000000000000000000000000000000000000000000000000000000000 PUSH1 0x20 DUP3 ADD MSTORE POP JUMP JUMPDEST PUSH1 0x0 PUSH2 0x6AD6 PUSH1 0x22 DUP4 PUSH2 0x59F9 JUMP JUMPDEST SWAP2 POP PUSH2 0x6AE1 DUP3 PUSH2 0x6A7A JUMP JUMPDEST PUSH1 0x40 DUP3 ADD SWAP1 POP SWAP2 SWAP1 POP JUMP JUMPDEST PUSH1 0x0 PUSH1 0x20 DUP3 ADD SWAP1 POP DUP2 DUP2 SUB PUSH1 0x0 DUP4 ADD MSTORE PUSH2 0x6B05 DUP2 PUSH2 0x6AC9 JUMP JUMPDEST SWAP1 POP SWAP2 SWAP1 POP JUMP JUMPDEST PUSH32 0x42455032303A207472616E736665722066726F6D20746865207A65726F206164 PUSH1 0x0 DUP3 ADD MSTORE PUSH32 0x6472657373000000000000000000000000000000000000000000000000000000 PUSH1 0x20 DUP3 ADD MSTORE POP JUMP JUMPDEST PUSH1 0x0 PUSH2 0x6B68 PUSH1 0x25 DUP4 PUSH2 0x59F9 JUMP JUMPDEST SWAP2 POP PUSH2 0x6B73 DUP3 PUSH2 0x6B0C JUMP JUMPDEST PUSH1 0x40 DUP3 ADD SWAP1 POP SWAP2 SWAP1 POP JUMP JUMPDEST PUSH1 0x0 PUSH1 0x20 DUP3 ADD SWAP1 POP DUP2 DUP2 SUB PUSH1 0x0 DUP4 ADD MSTORE PUSH2 0x6B97 DUP2 PUSH2 0x6B5B JUMP JUMPDEST SWAP1 POP SWAP2 SWAP1 POP JUMP JUMPDEST PUSH32 0x42455032303A207472616E7366657220746F20746865207A65726F2061646472 PUSH1 0x0 DUP3 ADD MSTORE PUSH32 0x6573730000000000000000000000000000000000000000000000000000000000 PUSH1 0x20 DUP3 ADD MSTORE POP JUMP JUMPDEST PUSH1 0x0 PUSH2 0x6BFA PUSH1 0x23 DUP4 PUSH2 0x59F9 JUMP JUMPDEST SWAP2 POP PUSH2 0x6C05 DUP3 PUSH2 0x6B9E JUMP JUMPDEST PUSH1 0x40 DUP3 ADD SWAP1 POP SWAP2 SWAP1 POP JUMP JUMPDEST PUSH1 0x0 PUSH1 0x20 DUP3 ADD SWAP1 POP DUP2 DUP2 SUB PUSH1 0x0 DUP4 ADD MSTORE PUSH2 0x6C29 DUP2 PUSH2 0x6BED JUMP JUMPDEST SWAP1 POP SWAP2 SWAP1 POP JUMP JUMPDEST PUSH32 0x5472616E7366657220616D6F756E74206D757374206265206772656174657220 PUSH1 0x0 DUP3 ADD MSTORE PUSH32 0x7468616E207A65726F0000000000000000000000000000000000000000000000 PUSH1 0x20 DUP3 ADD MSTORE POP JUMP JUMPDEST PUSH1 0x0 PUSH2 0x6C8C PUSH1 0x29 DUP4 PUSH2 0x59F9 JUMP JUMPDEST SWAP2 POP PUSH2 0x6C97 DUP3 PUSH2 0x6C30 JUMP JUMPDEST PUSH1 0x40 DUP3 ADD SWAP1 POP SWAP2 SWAP1 POP JUMP JUMPDEST PUSH1 0x0 PUSH1 0x20 DUP3 ADD SWAP1 POP DUP2 DUP2 SUB PUSH1 0x0 DUP4 ADD MSTORE PUSH2 0x6CBB DUP2 PUSH2 0x6C7F JUMP JUMPDEST SWAP1 POP SWAP2 SWAP1 POP JUMP JUMPDEST PUSH1 0x0 PUSH1 0x60 DUP3 ADD SWAP1 POP PUSH2 0x6CD7 PUSH1 0x0 DUP4 ADD DUP7 PUSH2 0x5BA1 JUMP JUMPDEST PUSH2 0x6CE4 PUSH1 0x20 DUP4 ADD DUP6 PUSH2 0x5BA1 JUMP JUMPDEST PUSH2 0x6CF1 PUSH1 0x40 DUP4 ADD DUP5 PUSH2 0x5BA1 JUMP JUMPDEST SWAP5 SWAP4 POP POP POP POP JUMP JUMPDEST PUSH32 0x5472616E7366657220616D6F756E74206578636565647320746865206D617854 PUSH1 0x0 DUP3 ADD MSTORE PUSH32 0x78416D6F756E7400000000000000000000000000000000000000000000000000 PUSH1 0x20 DUP3 ADD MSTORE POP JUMP JUMPDEST PUSH1 0x0 PUSH2 0x6D55 PUSH1 0x27 DUP4 PUSH2 0x59F9 JUMP JUMPDEST SWAP2 POP PUSH2 0x6D60 DUP3 PUSH2 0x6CF9 JUMP JUMPDEST PUSH1 0x40 DUP3 ADD SWAP1 POP SWAP2 SWAP1 POP JUMP JUMPDEST PUSH1 0x0 PUSH1 0x20 DUP3 ADD SWAP1 POP DUP2 DUP2 SUB PUSH1 0x0 DUP4 ADD MSTORE PUSH2 0x6D84 DUP2 PUSH2 0x6D48 JUMP JUMPDEST SWAP1 POP SWAP2 SWAP1 POP JUMP JUMPDEST PUSH32 0x6D61782057616C6C6574206C696D697420657863656564656400000000000000 PUSH1 0x0 DUP3 ADD MSTORE POP JUMP JUMPDEST PUSH1 0x0 PUSH2 0x6DC1 PUSH1 0x19 DUP4 PUSH2 0x59F9 JUMP JUMPDEST SWAP2 POP PUSH2 0x6DCC DUP3 PUSH2 0x6D8B JUMP JUMPDEST PUSH1 0x20 DUP3 ADD SWAP1 POP SWAP2 SWAP1 POP JUMP JUMPDEST PUSH1 0x0 PUSH1 0x20 DUP3 ADD SWAP1 POP DUP2 DUP2 SUB PUSH1 0x0 DUP4 ADD MSTORE PUSH2 0x6DF0 DUP2 PUSH2 0x6DB4 JUMP JUMPDEST SWAP1 POP SWAP2 SWAP1 POP JUMP JUMPDEST PUSH32 0x4E487B7100000000000000000000000000000000000000000000000000000000 PUSH1 0x0 MSTORE PUSH1 0x41 PUSH1 0x4 MSTORE PUSH1 0x24 PUSH1 0x0 REVERT JUMPDEST PUSH1 0x0 DUP2 SWAP1 POP SWAP2 SWAP1 POP JUMP JUMPDEST PUSH1 0x0 PUSH2 0x6E4B PUSH2 0x6E46 PUSH2 0x6E41 DUP5 PUSH2 0x6E26 JUMP JUMPDEST PUSH2 0x5DD6 JUMP JUMPDEST PUSH2 0x598B JUMP JUMPDEST SWAP1 POP SWAP2 SWAP1 POP JUMP JUMPDEST PUSH2 0x6E5B DUP2 PUSH2 0x6E30 JUMP JUMPDEST DUP3 MSTORE POP POP JUMP JUMPDEST PUSH1 0x0 DUP2 MLOAD SWAP1 POP SWAP2 SWAP1 POP JUMP JUMPDEST PUSH1 0x0 DUP3 DUP3 MSTORE PUSH1 0x20 DUP3 ADD SWAP1 POP SWAP3 SWAP2 POP POP JUMP JUMPDEST PUSH1 0x0 DUP2 SWAP1 POP PUSH1 0x20 DUP3 ADD SWAP1 POP SWAP2 SWAP1 POP JUMP JUMPDEST PUSH2 0x6E96 DUP2 PUSH2 0x5AC0 JUMP JUMPDEST DUP3 MSTORE POP POP JUMP JUMPDEST PUSH1 0x0 PUSH2 0x6EA8 DUP4 DUP4 PUSH2 0x6E8D JUMP JUMPDEST PUSH1 0x20 DUP4 ADD SWAP1 POP SWAP3 SWAP2 POP POP JUMP JUMPDEST PUSH1 0x0 PUSH1 0x20 DUP3 ADD SWAP1 POP SWAP2 SWAP1 POP JUMP JUMPDEST PUSH1 0x0 PUSH2 0x6ECC DUP3 PUSH2 0x6E61 JUMP JUMPDEST PUSH2 0x6ED6 DUP2 DUP6 PUSH2 0x6E6C JUMP JUMPDEST SWAP4 POP PUSH2 0x6EE1 DUP4 PUSH2 0x6E7D JUMP JUMPDEST DUP1 PUSH1 0x0 JUMPDEST DUP4 DUP2 LT ISZERO PUSH2 0x6F12 JUMPI DUP2 MLOAD PUSH2 0x6EF9 DUP9 DUP3 PUSH2 0x6E9C JUMP JUMPDEST SWAP8 POP PUSH2 0x6F04 DUP4 PUSH2 0x6EB4 JUMP JUMPDEST SWAP3 POP POP PUSH1 0x1 DUP2 ADD SWAP1 POP PUSH2 0x6EE5 JUMP JUMPDEST POP DUP6 SWAP4 POP POP POP POP SWAP3 SWAP2 POP POP JUMP JUMPDEST PUSH1 0x0 PUSH1 0xA0 DUP3 ADD SWAP1 POP PUSH2 0x6F34 PUSH1 0x0 DUP4 ADD DUP9 PUSH2 0x5BA1 JUMP JUMPDEST PUSH2 0x6F41 PUSH1 0x20 DUP4 ADD DUP8 PUSH2 0x6E52 JUMP JUMPDEST DUP2 DUP2 SUB PUSH1 0x40 DUP4 ADD MSTORE PUSH2 0x6F53 DUP2 DUP7 PUSH2 0x6EC1 JUMP JUMPDEST SWAP1 POP PUSH2 0x6F62 PUSH1 0x60 DUP4 ADD DUP6 PUSH2 0x5CC1 JUMP JUMPDEST PUSH2 0x6F6F PUSH1 0x80 DUP4 ADD DUP5 PUSH2 0x5BA1 JUMP JUMPDEST SWAP7 SWAP6 POP POP POP POP POP POP JUMP JUMPDEST PUSH32 0x4661696C65640000000000000000000000000000000000000000000000000000 PUSH1 0x0 DUP3 ADD MSTORE POP JUMP JUMPDEST PUSH1 0x0 PUSH2 0x6FAF PUSH1 0x6 DUP4 PUSH2 0x59F9 JUMP JUMPDEST SWAP2 POP PUSH2 0x6FBA DUP3 PUSH2 0x6F79 JUMP JUMPDEST PUSH1 0x20 DUP3 ADD SWAP1 POP SWAP2 SWAP1 POP JUMP JUMPDEST PUSH1 0x0 PUSH1 0x20 DUP3 ADD SWAP1 POP DUP2 DUP2 SUB PUSH1 0x0 DUP4 ADD MSTORE PUSH2 0x6FDE DUP2 PUSH2 0x6FA2 JUMP JUMPDEST SWAP1 POP SWAP2 SWAP1 POP JUMP JUMPDEST PUSH32 0x5375636365737300000000000000000000000000000000000000000000000000 PUSH1 0x0 DUP3 ADD MSTORE POP JUMP JUMPDEST PUSH1 0x0 PUSH2 0x701B PUSH1 0x7 DUP4 PUSH2 0x59F9 JUMP JUMPDEST SWAP2 POP PUSH2 0x7026 DUP3 PUSH2 0x6FE5 JUMP JUMPDEST PUSH1 0x20 DUP3 ADD SWAP1 POP SWAP2 SWAP1 POP JUMP JUMPDEST PUSH1 0x0 PUSH1 0x20 DUP3 ADD SWAP1 POP DUP2 DUP2 SUB PUSH1 0x0 DUP4 ADD MSTORE PUSH2 0x704A DUP2 PUSH2 0x700E JUMP JUMPDEST SWAP1 POP SWAP2 SWAP1 POP JUMP JUMPDEST PUSH1 0x0 PUSH1 0xC0 DUP3 ADD SWAP1 POP PUSH2 0x7066 PUSH1 0x0 DUP4 ADD DUP10 PUSH2 0x5CC1 JUMP JUMPDEST PUSH2 0x7073 PUSH1 0x20 DUP4 ADD DUP9 PUSH2 0x5BA1 JUMP JUMPDEST PUSH2 0x7080 PUSH1 0x40 DUP4 ADD DUP8 PUSH2 0x6E52 JUMP JUMPDEST PUSH2 0x708D PUSH1 0x60 DUP4 ADD DUP7 PUSH2 0x6E52 JUMP JUMPDEST PUSH2 0x709A PUSH1 0x80 DUP4 ADD DUP6 PUSH2 0x5CC1 JUMP JUMPDEST PUSH2 0x70A7 PUSH1 0xA0 DUP4 ADD DUP5 PUSH2 0x5BA1 JUMP JUMPDEST SWAP8 SWAP7 POP POP POP POP POP POP POP JUMP JUMPDEST PUSH1 0x0 DUP2 MLOAD SWAP1 POP PUSH2 0x70C1 DUP2 PUSH2 0x5995 JUMP JUMPDEST SWAP3 SWAP2 POP POP JUMP JUMPDEST PUSH1 0x0 DUP1 PUSH1 0x0 PUSH1 0x60 DUP5 DUP7 SUB SLT ISZERO PUSH2 0x70E0 JUMPI PUSH2 0x70DF PUSH2 0x5986 JUMP JUMPDEST JUMPDEST PUSH1 0x0 PUSH2 0x70EE DUP7 DUP3 DUP8 ADD PUSH2 0x70B2 JUMP JUMPDEST SWAP4 POP POP PUSH1 0x20 PUSH2 0x70FF DUP7 DUP3 DUP8 ADD PUSH2 0x70B2 JUMP JUMPDEST SWAP3 POP POP PUSH1 0x40 PUSH2 0x7110 DUP7 DUP3 DUP8 ADD PUSH2 0x70B2 JUMP JUMPDEST SWAP2 POP POP SWAP3 POP SWAP3 POP SWAP3 JUMP JUMPDEST PUSH1 0x0 PUSH1 0x40 DUP3 ADD SWAP1 POP PUSH2 0x712F PUSH1 0x0 DUP4 ADD DUP6 PUSH2 0x5BA1 JUMP JUMPDEST PUSH2 0x713C PUSH1 0x20 DUP4 ADD DUP5 PUSH2 0x5BA1 JUMP JUMPDEST SWAP4 SWAP3 POP POP POP JUMP INVALID TIMESTAMP GASLIMIT POP ORIGIN ADDRESS GASPRICE KECCAK256 PUSH21 0x72616E7366657220616D6F756E7420657863656564 PUSH20 0x20616C6C6F77616E636542455032303A20646563 PUSH19 0x656173656420616C6C6F77616E63652062656C PUSH16 0x77207A65726FA2646970667358221220 PUSH8 0xCF98AAC5592A9114 0x5E PUSH3 0xDFAA1 DUP8 0xCC DUP4 0xF7 OR PUSH24 0xABA6F7241787F69337907A8E64736F6C6343000813003300 "
		},
		"gasEstimates": {
			"creation": {
				"codeDepositCost": "5825200",
				"executionCost": "infinite",
				"totalCost": "infinite"
			},
			"external": {
				"BURN_ADDRESS()": "488",
				"MIN_TOTAL_SUPPLY()": "infinite",
				"_burnFee()": "2562",
				"_charityFee()": "2498",
				"_developmentFee()": "2518",
				"_liquidityFee()": "2518",
				"_maxTxAmount()": "2497",
				"_taxFee()": "2541",
				"allowance(address,address)": "infinite",
				"approve(address,uint256)": "infinite",
				"balanceOf(address)": "infinite",
				"charityWallet()": "2627",
				"circulatingSupply()": "infinite",
				"decimals()": "456",
				"decreaseAllowance(address,uint256)": "infinite",
				"developmentWallet()": "2625",
				"disableAllFees()": "64274",
				"enableAllFees()": "201115",
				"excludeFromFee(address)": "27127",
				"excludeFromMaxWallet(address)": "27148",
				"excludeFromReward(address)": "infinite",
				"includeInFee(address)": "27125",
				"includeInMaxWallet(address)": "27148",
				"includeInReward(address)": "infinite",
				"increaseAllowance(address,uint256)": "infinite",
				"isExcludedFromFee(address)": "2995",
				"isExcludedFromMaxWallet(address)": "2994",
				"isExcludedFromReward(address)": "2973",
				"migrateLeftoverBnb(address,uint256)": "infinite",
				"name()": "infinite",
				"numTokensSellToAddToLiquidity()": "2496",
				"owner()": "2634",
				"pancakeswapV2Pair()": "2604",
				"pancakeswapV2Router()": "infinite",
				"reflectionFromToken(uint256,bool)": "infinite",
				"renounceOwnership()": "30360",
				"seDevelopmentWallet(address)": "27028",
				"setBurnFeePercent(uint256)": "24834",
				"setCharityFeePercent(uint256)": "24811",
				"setCharityWallet(address)": "27050",
				"setDevelopmentFeePercent(uint256)": "24812",
				"setLiquidityFeePercent(uint256)": "24856",
				"setMaxTxAmount(uint256)": "24855",
				"setMaxWallet(uint256)": "infinite",
				"setNumTokensSellToAddToLiquidity(uint256)": "infinite",
				"setRouterAddress(address)": "infinite",
				"setSwapAndLiquifyEnabled(bool)": "infinite",
				"setTaxFeePercent(uint256)": "24792",
				"stopAutoBurn()": "7494",
				"swapAndLiquifyEnabled()": "2633",
				"symbol()": "infinite",
				"tokenFromReflection(uint256)": "infinite",
				"totalBurned()": "infinite",
				"totalFees()": "2528",
				"totalFeesPerc()": "infinite",
				"totalSupply()": "infinite",
				"transfer(address,uint256)": "infinite",
				"transferFrom(address,address,uint256)": "infinite",
				"transferOwnership(address)": "30725"
			},
			"internal": {
				"_approve(address,address,uint256)": "infinite",
				"_getCurrentSupply()": "infinite",
				"_getRValues(uint256,uint256,uint256,uint256)": "infinite",
				"_getRate()": "infinite",
				"_getTValues(uint256)": "infinite",
				"_getValues(uint256)": "infinite",
				"_reflectFee(uint256,uint256)": "infinite",
				"_takeLiquidity(uint256)": "infinite",
				"_tokenTransfer(address,address,uint256)": "infinite",
				"_transfer(address,address,uint256)": "infinite",
				"_transferBothExcluded(address,address,uint256)": "infinite",
				"_transferFromExcluded(address,address,uint256)": "infinite",
				"_transferStandard(address,address,uint256)": "infinite",
				"_transferToExcluded(address,address,uint256)": "infinite",
				"addLiquidity(uint256,uint256)": "infinite",
				"calculateLiquidityFee(uint256)": "infinite",
				"calculateTaxFee(uint256)": "infinite",
				"removeAllFee()": "25079",
				"restoreAllFee()": "93479",
				"swapAndLiquify(uint256)": "infinite",
				"swapTokensForBnb(uint256)": "infinite"
			}
		},
		"methodIdentifiers": {
			"BURN_ADDRESS()": "fccc2813",
			"MIN_TOTAL_SUPPLY()": "5122c409",
			"_burnFee()": "c0b0fda2",
			"_charityFee()": "40f8007a",
			"_developmentFee()": "d1475185",
			"_liquidityFee()": "6bc87c3a",
			"_maxTxAmount()": "7d1db4a5",
			"_taxFee()": "3b124fe7",
			"allowance(address,address)": "dd62ed3e",
			"approve(address,uint256)": "095ea7b3",
			"balanceOf(address)": "70a08231",
			"charityWallet()": "7b208769",
			"circulatingSupply()": "9358928b",
			"decimals()": "313ce567",
			"decreaseAllowance(address,uint256)": "a457c2d7",
			"developmentWallet()": "c04a5414",
			"disableAllFees()": "741af87f",
			"enableAllFees()": "ffc78635",
			"excludeFromFee(address)": "437823ec",
			"excludeFromMaxWallet(address)": "5b700d91",
			"excludeFromReward(address)": "52390c02",
			"includeInFee(address)": "ea2f0b37",
			"includeInMaxWallet(address)": "3f33e909",
			"includeInReward(address)": "3685d419",
			"increaseAllowance(address,uint256)": "39509351",
			"isExcludedFromFee(address)": "5342acb4",
			"isExcludedFromMaxWallet(address)": "6dd3d39f",
			"isExcludedFromReward(address)": "88f82020",
			"migrateLeftoverBnb(address,uint256)": "c53b42ba",
			"name()": "06fdde03",
			"numTokensSellToAddToLiquidity()": "d12a7688",
			"owner()": "8da5cb5b",
			"pancakeswapV2Pair()": "52892884",
			"pancakeswapV2Router()": "e5dffed3",
			"reflectionFromToken(uint256,bool)": "4549b039",
			"renounceOwnership()": "715018a6",
			"seDevelopmentWallet(address)": "0b88faa6",
			"setBurnFeePercent(uint256)": "cea26958",
			"setCharityFeePercent(uint256)": "af41063b",
			"setCharityWallet(address)": "30563bd7",
			"setDevelopmentFeePercent(uint256)": "4680ff35",
			"setLiquidityFeePercent(uint256)": "8ee88c53",
			"setMaxTxAmount(uint256)": "ec28438a",
			"setMaxWallet(uint256)": "5d0044ca",
			"setNumTokensSellToAddToLiquidity(uint256)": "f0f165af",
			"setRouterAddress(address)": "41cb87fc",
			"setSwapAndLiquifyEnabled(bool)": "c49b9a80",
			"setTaxFeePercent(uint256)": "061c82d0",
			"stopAutoBurn()": "a51c3695",
			"swapAndLiquifyEnabled()": "4a74bb02",
			"symbol()": "95d89b41",
			"tokenFromReflection(uint256)": "2d838119",
			"totalBurned()": "d89135cd",
			"totalFees()": "13114a9d",
			"totalFeesPerc()": "d5eeca4d",
			"totalSupply()": "18160ddd",
			"transfer(address,uint256)": "a9059cbb",
			"transferFrom(address,address,uint256)": "23b872dd",
			"transferOwnership(address)": "f2fde38b"
		}
	},
	"abi": [
		{
			"inputs": [],
			"stateMutability": "nonpayable",
			"type": "constructor"
		},
		{
			"anonymous": false,
			"inputs": [
				{
					"indexed": true,
					"internalType": "address",
					"name": "owner",
					"type": "address"
				},
				{
					"indexed": true,
					"internalType": "address",
					"name": "spender",
					"type": "address"
				},
				{
					"indexed": false,
					"internalType": "uint256",
					"name": "value",
					"type": "uint256"
				}
			],
			"name": "Approval",
			"type": "event"
		},
		{
			"anonymous": false,
			"inputs": [
				{
					"indexed": true,
					"internalType": "address",
					"name": "burner",
					"type": "address"
				},
				{
					"indexed": false,
					"internalType": "uint256",
					"name": "value",
					"type": "uint256"
				}
			],
			"name": "Burn",
			"type": "event"
		},
		{
			"anonymous": false,
			"inputs": [
				{
					"indexed": false,
					"internalType": "uint256",
					"name": "tokenAmount",
					"type": "uint256"
				},
				{
					"indexed": false,
					"internalType": "uint256",
					"name": "bnbAmount",
					"type": "uint256"
				}
			],
			"name": "LiquidityAdded",
			"type": "event"
		},
		{
			"anonymous": false,
			"inputs": [
				{
					"indexed": true,
					"internalType": "address",
					"name": "previousOwner",
					"type": "address"
				},
				{
					"indexed": true,
					"internalType": "address",
					"name": "newOwner",
					"type": "address"
				}
			],
			"name": "OwnershipTransferred",
			"type": "event"
		},
		{
			"anonymous": false,
			"inputs": [
				{
					"indexed": false,
					"internalType": "uint256",
					"name": "tokensSwapped",
					"type": "uint256"
				},
				{
					"indexed": false,
					"internalType": "uint256",
					"name": "bnbReceived",
					"type": "uint256"
				},
				{
					"indexed": false,
					"internalType": "uint256",
					"name": "tokensIntoLiquidity",
					"type": "uint256"
				}
			],
			"name": "SwapAndLiquify",
			"type": "event"
		},
		{
			"anonymous": false,
			"inputs": [
				{
					"indexed": false,
					"internalType": "bool",
					"name": "enabled",
					"type": "bool"
				}
			],
			"name": "SwapAndLiquifyEnabledUpdated",
			"type": "event"
		},
		{
			"anonymous": false,
			"inputs": [
				{
					"indexed": false,
					"internalType": "string",
					"name": "status",
					"type": "string"
				}
			],
			"name": "SwapAndLiquifyStatus",
			"type": "event"
		},
		{
			"anonymous": false,
			"inputs": [
				{
					"indexed": true,
					"internalType": "address",
					"name": "from",
					"type": "address"
				},
				{
					"indexed": true,
					"internalType": "address",
					"name": "to",
					"type": "address"
				},
				{
					"indexed": false,
					"internalType": "uint256",
					"name": "value",
					"type": "uint256"
				}
			],
			"name": "Transfer",
			"type": "event"
		},
		{
			"inputs": [],
			"name": "BURN_ADDRESS",
			"outputs": [
				{
					"internalType": "address",
					"name": "",
					"type": "address"
				}
			],
			"stateMutability": "view",
			"type": "function"
		},
		{
			"inputs": [],
			"name": "MIN_TOTAL_SUPPLY",
			"outputs": [
				{
					"internalType": "uint256",
					"name": "",
					"type": "uint256"
				}
			],
			"stateMutability": "view",
			"type": "function"
		},
		{
			"inputs": [],
			"name": "_burnFee",
			"outputs": [
				{
					"internalType": "uint256",
					"name": "",
					"type": "uint256"
				}
			],
			"stateMutability": "view",
			"type": "function"
		},
		{
			"inputs": [],
			"name": "_charityFee",
			"outputs": [
				{
					"internalType": "uint256",
					"name": "",
					"type": "uint256"
				}
			],
			"stateMutability": "view",
			"type": "function"
		},
		{
			"inputs": [],
			"name": "_developmentFee",
			"outputs": [
				{
					"internalType": "uint256",
					"name": "",
					"type": "uint256"
				}
			],
			"stateMutability": "view",
			"type": "function"
		},
		{
			"inputs": [],
			"name": "_liquidityFee",
			"outputs": [
				{
					"internalType": "uint256",
					"name": "",
					"type": "uint256"
				}
			],
			"stateMutability": "view",
			"type": "function"
		},
		{
			"inputs": [],
			"name": "_maxTxAmount",
			"outputs": [
				{
					"internalType": "uint256",
					"name": "",
					"type": "uint256"
				}
			],
			"stateMutability": "view",
			"type": "function"
		},
		{
			"inputs": [],
			"name": "_taxFee",
			"outputs": [
				{
					"internalType": "uint256",
					"name": "",
					"type": "uint256"
				}
			],
			"stateMutability": "view",
			"type": "function"
		},
		{
			"inputs": [
				{
					"internalType": "address",
					"name": "owner",
					"type": "address"
				},
				{
					"internalType": "address",
					"name": "spender",
					"type": "address"
				}
			],
			"name": "allowance",
			"outputs": [
				{
					"internalType": "uint256",
					"name": "",
					"type": "uint256"
				}
			],
			"stateMutability": "view",
			"type": "function"
		},
		{
			"inputs": [
				{
					"internalType": "address",
					"name": "spender",
					"type": "address"
				},
				{
					"internalType": "uint256",
					"name": "amount",
					"type": "uint256"
				}
			],
			"name": "approve",
			"outputs": [
				{
					"internalType": "bool",
					"name": "",
					"type": "bool"
				}
			],
			"stateMutability": "nonpayable",
			"type": "function"
		},
		{
			"inputs": [
				{
					"internalType": "address",
					"name": "account",
					"type": "address"
				}
			],
			"name": "balanceOf",
			"outputs": [
				{
					"internalType": "uint256",
					"name": "",
					"type": "uint256"
				}
			],
			"stateMutability": "view",
			"type": "function"
		},
		{
			"inputs": [],
			"name": "charityWallet",
			"outputs": [
				{
					"internalType": "address",
					"name": "",
					"type": "address"
				}
			],
			"stateMutability": "view",
			"type": "function"
		},
		{
			"inputs": [],
			"name": "circulatingSupply",
			"outputs": [
				{
					"internalType": "uint256",
					"name": "",
					"type": "uint256"
				}
			],
			"stateMutability": "view",
			"type": "function"
		},
		{
			"inputs": [],
			"name": "decimals",
			"outputs": [
				{
					"internalType": "uint8",
					"name": "",
					"type": "uint8"
				}
			],
			"stateMutability": "pure",
			"type": "function"
		},
		{
			"inputs": [
				{
					"internalType": "address",
					"name": "spender",
					"type": "address"
				},
				{
					"internalType": "uint256",
					"name": "subtractedValue",
					"type": "uint256"
				}
			],
			"name": "decreaseAllowance",
			"outputs": [
				{
					"internalType": "bool",
					"name": "",
					"type": "bool"
				}
			],
			"stateMutability": "nonpayable",
			"type": "function"
		},
		{
			"inputs": [],
			"name": "developmentWallet",
			"outputs": [
				{
					"internalType": "address",
					"name": "",
					"type": "address"
				}
			],
			"stateMutability": "view",
			"type": "function"
		},
		{
			"inputs": [],
			"name": "disableAllFees",
			"outputs": [],
			"stateMutability": "nonpayable",
			"type": "function"
		},
		{
			"inputs": [],
			"name": "enableAllFees",
			"outputs": [],
			"stateMutability": "nonpayable",
			"type": "function"
		},
		{
			"inputs": [
				{
					"internalType": "address",
					"name": "account",
					"type": "address"
				}
			],
			"name": "excludeFromFee",
			"outputs": [],
			"stateMutability": "nonpayable",
			"type": "function"
		},
		{
			"inputs": [
				{
					"internalType": "address",
					"name": "account",
					"type": "address"
				}
			],
			"name": "excludeFromMaxWallet",
			"outputs": [],
			"stateMutability": "nonpayable",
			"type": "function"
		},
		{
			"inputs": [
				{
					"internalType": "address",
					"name": "account",
					"type": "address"
				}
			],
			"name": "excludeFromReward",
			"outputs": [],
			"stateMutability": "nonpayable",
			"type": "function"
		},
		{
			"inputs": [
				{
					"internalType": "address",
					"name": "account",
					"type": "address"
				}
			],
			"name": "includeInFee",
			"outputs": [],
			"stateMutability": "nonpayable",
			"type": "function"
		},
		{
			"inputs": [
				{
					"internalType": "address",
					"name": "account",
					"type": "address"
				}
			],
			"name": "includeInMaxWallet",
			"outputs": [],
			"stateMutability": "nonpayable",
			"type": "function"
		},
		{
			"inputs": [
				{
					"internalType": "address",
					"name": "account",
					"type": "address"
				}
			],
			"name": "includeInReward",
			"outputs": [],
			"stateMutability": "nonpayable",
			"type": "function"
		},
		{
			"inputs": [
				{
					"internalType": "address",
					"name": "spender",
					"type": "address"
				},
				{
					"internalType": "uint256",
					"name": "addedValue",
					"type": "uint256"
				}
			],
			"name": "increaseAllowance",
			"outputs": [
				{
					"internalType": "bool",
					"name": "",
					"type": "bool"
				}
			],
			"stateMutability": "nonpayable",
			"type": "function"
		},
		{
			"inputs": [
				{
					"internalType": "address",
					"name": "account",
					"type": "address"
				}
			],
			"name": "isExcludedFromFee",
			"outputs": [
				{
					"internalType": "bool",
					"name": "",
					"type": "bool"
				}
			],
			"stateMutability": "view",
			"type": "function"
		},
		{
			"inputs": [
				{
					"internalType": "address",
					"name": "account",
					"type": "address"
				}
			],
			"name": "isExcludedFromMaxWallet",
			"outputs": [
				{
					"internalType": "bool",
					"name": "",
					"type": "bool"
				}
			],
			"stateMutability": "view",
			"type": "function"
		},
		{
			"inputs": [
				{
					"internalType": "address",
					"name": "account",
					"type": "address"
				}
			],
			"name": "isExcludedFromReward",
			"outputs": [
				{
					"internalType": "bool",
					"name": "",
					"type": "bool"
				}
			],
			"stateMutability": "view",
			"type": "function"
		},
		{
			"inputs": [
				{
					"internalType": "address payable",
					"name": "recipient",
					"type": "address"
				},
				{
					"internalType": "uint256",
					"name": "amount",
					"type": "uint256"
				}
			],
			"name": "migrateLeftoverBnb",
			"outputs": [],
			"stateMutability": "nonpayable",
			"type": "function"
		},
		{
			"inputs": [],
			"name": "name",
			"outputs": [
				{
					"internalType": "string",
					"name": "",
					"type": "string"
				}
			],
			"stateMutability": "pure",
			"type": "function"
		},
		{
			"inputs": [],
			"name": "numTokensSellToAddToLiquidity",
			"outputs": [
				{
					"internalType": "uint256",
					"name": "",
					"type": "uint256"
				}
			],
			"stateMutability": "view",
			"type": "function"
		},
		{
			"inputs": [],
			"name": "owner",
			"outputs": [
				{
					"internalType": "address",
					"name": "",
					"type": "address"
				}
			],
			"stateMutability": "view",
			"type": "function"
		},
		{
			"inputs": [],
			"name": "pancakeswapV2Pair",
			"outputs": [
				{
					"internalType": "address",
					"name": "",
					"type": "address"
				}
			],
			"stateMutability": "view",
			"type": "function"
		},
		{
			"inputs": [],
			"name": "pancakeswapV2Router",
			"outputs": [
				{
					"internalType": "contract IPancakeRouter02",
					"name": "",
					"type": "address"
				}
			],
			"stateMutability": "view",
			"type": "function"
		},
		{
			"inputs": [
				{
					"internalType": "uint256",
					"name": "tAmount",
					"type": "uint256"
				},
				{
					"internalType": "bool",
					"name": "deductTransferFee",
					"type": "bool"
				}
			],
			"name": "reflectionFromToken",
			"outputs": [
				{
					"internalType": "uint256",
					"name": "",
					"type": "uint256"
				}
			],
			"stateMutability": "view",
			"type": "function"
		},
		{
			"inputs": [],
			"name": "renounceOwnership",
			"outputs": [],
			"stateMutability": "nonpayable",
			"type": "function"
		},
		{
			"inputs": [
				{
					"internalType": "address",
					"name": "newWallet",
					"type": "address"
				}
			],
			"name": "seDevelopmentWallet",
			"outputs": [],
			"stateMutability": "nonpayable",
			"type": "function"
		},
		{
			"inputs": [
				{
					"internalType": "uint256",
					"name": "burnFee",
					"type": "uint256"
				}
			],
			"name": "setBurnFeePercent",
			"outputs": [],
			"stateMutability": "nonpayable",
			"type": "function"
		},
		{
			"inputs": [
				{
					"internalType": "uint256",
					"name": "charityFee",
					"type": "uint256"
				}
			],
			"name": "setCharityFeePercent",
			"outputs": [],
			"stateMutability": "nonpayable",
			"type": "function"
		},
		{
			"inputs": [
				{
					"internalType": "address",
					"name": "newWallet",
					"type": "address"
				}
			],
			"name": "setCharityWallet",
			"outputs": [],
			"stateMutability": "nonpayable",
			"type": "function"
		},
		{
			"inputs": [
				{
					"internalType": "uint256",
					"name": "developmentFee",
					"type": "uint256"
				}
			],
			"name": "setDevelopmentFeePercent",
			"outputs": [],
			"stateMutability": "nonpayable",
			"type": "function"
		},
		{
			"inputs": [
				{
					"internalType": "uint256",
					"name": "liquidityFee",
					"type": "uint256"
				}
			],
			"name": "setLiquidityFeePercent",
			"outputs": [],
			"stateMutability": "nonpayable",
			"type": "function"
		},
		{
			"inputs": [
				{
					"internalType": "uint256",
					"name": "newAmount",
					"type": "uint256"
				}
			],
			"name": "setMaxTxAmount",
			"outputs": [],
			"stateMutability": "nonpayable",
			"type": "function"
		},
		{
			"inputs": [
				{
					"internalType": "uint256",
					"name": "newAmount",
					"type": "uint256"
				}
			],
			"name": "setMaxWallet",
			"outputs": [],
			"stateMutability": "nonpayable",
			"type": "function"
		},
		{
			"inputs": [
				{
					"internalType": "uint256",
					"name": "newAmount",
					"type": "uint256"
				}
			],
			"name": "setNumTokensSellToAddToLiquidity",
			"outputs": [],
			"stateMutability": "nonpayable",
			"type": "function"
		},
		{
			"inputs": [
				{
					"internalType": "address",
					"name": "newRouter",
					"type": "address"
				}
			],
			"name": "setRouterAddress",
			"outputs": [],
			"stateMutability": "nonpayable",
			"type": "function"
		},
		{
			"inputs": [
				{
					"internalType": "bool",
					"name": "_enabled",
					"type": "bool"
				}
			],
			"name": "setSwapAndLiquifyEnabled",
			"outputs": [],
			"stateMutability": "nonpayable",
			"type": "function"
		},
		{
			"inputs": [
				{
					"internalType": "uint256",
					"name": "taxFee",
					"type": "uint256"
				}
			],
			"name": "setTaxFeePercent",
			"outputs": [],
			"stateMutability": "nonpayable",
			"type": "function"
		},
		{
			"inputs": [],
			"name": "stopAutoBurn",
			"outputs": [],
			"stateMutability": "nonpayable",
			"type": "function"
		},
		{
			"inputs": [],
			"name": "swapAndLiquifyEnabled",
			"outputs": [
				{
					"internalType": "bool",
					"name": "",
					"type": "bool"
				}
			],
			"stateMutability": "view",
			"type": "function"
		},
		{
			"inputs": [],
			"name": "symbol",
			"outputs": [
				{
					"internalType": "string",
					"name": "",
					"type": "string"
				}
			],
			"stateMutability": "pure",
			"type": "function"
		},
		{
			"inputs": [
				{
					"internalType": "uint256",
					"name": "rAmount",
					"type": "uint256"
				}
			],
			"name": "tokenFromReflection",
			"outputs": [
				{
					"internalType": "uint256",
					"name": "",
					"type": "uint256"
				}
			],
			"stateMutability": "view",
			"type": "function"
		},
		{
			"inputs": [],
			"name": "totalBurned",
			"outputs": [
				{
					"internalType": "uint256",
					"name": "",
					"type": "uint256"
				}
			],
			"stateMutability": "view",
			"type": "function"
		},
		{
			"inputs": [],
			"name": "totalFees",
			"outputs": [
				{
					"internalType": "uint256",
					"name": "",
					"type": "uint256"
				}
			],
			"stateMutability": "view",
			"type": "function"
		},
		{
			"inputs": [],
			"name": "totalFeesPerc",
			"outputs": [
				{
					"internalType": "uint256",
					"name": "",
					"type": "uint256"
				}
			],
			"stateMutability": "view",
			"type": "function"
		},
		{
			"inputs": [],
			"name": "totalSupply",
			"outputs": [
				{
					"internalType": "uint256",
					"name": "",
					"type": "uint256"
				}
			],
			"stateMutability": "pure",
			"type": "function"
		},
		{
			"inputs": [
				{
					"internalType": "address",
					"name": "recipient",
					"type": "address"
				},
				{
					"internalType": "uint256",
					"name": "amount",
					"type": "uint256"
				}
			],
			"name": "transfer",
			"outputs": [
				{
					"internalType": "bool",
					"name": "",
					"type": "bool"
				}
			],
			"stateMutability": "nonpayable",
			"type": "function"
		},
		{
			"inputs": [
				{
					"internalType": "address",
					"name": "sender",
					"type": "address"
				},
				{
					"internalType": "address",
					"name": "recipient",
					"type": "address"
				},
				{
					"internalType": "uint256",
					"name": "amount",
					"type": "uint256"
				}
			],
			"name": "transferFrom",
			"outputs": [
				{
					"internalType": "bool",
					"name": "",
					"type": "bool"
				}
			],
			"stateMutability": "nonpayable",
			"type": "function"
		},
		{
			"inputs": [
				{
					"internalType": "address",
					"name": "newOwner",
					"type": "address"
				}
			],
			"name": "transferOwnership",
			"outputs": [],
			"stateMutability": "nonpayable",
			"type": "function"
		},
		{
			"stateMutability": "payable",
			"type": "receive"
		}
	]
}