{
	"data": {
		"bytecode": {
			"linkReferences": {},
			"object": "60806040526001600760006101000a81548160ff021916908315150217905550730e44805772a5f6bd858942276fc20504a5618a79600760016101000a81548173ffffffffffffffffffffffffffffffffffffffff021916908373ffffffffffffffffffffffffffffffffffffffff1602179055506000600960146101000a81548160ff0219169083151502179055503480156200009c57600080fd5b50620000bd620000b16200078f60201b60201c565b6200079760201b60201c565b6001600260003373ffffffffffffffffffffffffffffffffffffffff1673ffffffffffffffffffffffffffffffffffffffff16815260200190815260200160002060006101000a81548160ff0219169083151502179055506038460362000179577310ed43c718714eb63d5aa57b78b54704e256024e600860006101000a81548173ffffffffffffffffffffffffffffffffffffffff021916908373ffffffffffffffffffffffffffffffffffffffff16021790555062000364565b60614603620001dd5773d99d1c33f9fc3444f8101754abc46c52416550d1600860006101000a81548173ffffffffffffffffffffffffffffffffffffffff021916908373ffffffffffffffffffffffffffffffffffffffff16021790555062000363565b6001461480620001ed5750600446145b80620001f95750600346145b156200025a57737a250d5630b4cf539739df2c5dacb4c659f2488d600860006101000a81548173ffffffffffffffffffffffffffffffffffffffff021916908373ffffffffffffffffffffffffffffffffffffffff16021790555062000362565b61a86a4603620002bf577360ae616a2155ee3d9a68541ba4544862310933d4600860006101000a81548173ffffffffffffffffffffffffffffffffffffffff021916908373ffffffffffffffffffffffffffffffffffffffff16021790555062000361565b60fa4603620003235773f491e7b69e4244ad4002bc14e878a34207e38c29600860006101000a81548173ffffffffffffffffffffffffffffffffffffffff021916908373ffffffffffffffffffffffffffffffffffffffff16021790555062000360565b6040517f08c379a0000000000000000000000000000000000000000000000000000000008152600401620003579062000a26565b60405180910390fd5b5b5b5b5b6001600360003373ffffffffffffffffffffffffffffffffffffffff1673ffffffffffffffffffffffffffffffffffffffff16815260200190815260200160002060006101000a81548160ff021916908315150217905550695915a68d88da6a080000600660003373ffffffffffffffffffffffffffffffffffffffff1673ffffffffffffffffffffffffffffffffffffffff168152602001908152602001600020819055503373ffffffffffffffffffffffffffffffffffffffff16600073ffffffffffffffffffffffffffffffffffffffff167fddf252ad1be2c89b69c2b068fc378daa952ba7f163c4a11628f55a4df523b3ef695915a68d88da6a08000060405162000474919062000a63565b60405180910390a3600860009054906101000a900473ffffffffffffffffffffffffffffffffffffffff1673ffffffffffffffffffffffffffffffffffffffff1663c45a01556040518163ffffffff1660e01b8152600401602060405180830381865afa158015620004ea573d6000803e3d6000fd5b505050506040513d601f19601f8201168201806040525081019062000510919062000aea565b73ffffffffffffffffffffffffffffffffffffffff1663c9c65396600860009054906101000a900473ffffffffffffffffffffffffffffffffffffffff1673ffffffffffffffffffffffffffffffffffffffff1663ad5c46486040518163ffffffff1660e01b8152600401602060405180830381865afa15801562000599573d6000803e3d6000fd5b505050506040513d601f19601f82011682018060405250810190620005bf919062000aea565b306040518363ffffffff1660e01b8152600401620005df92919062000b2d565b6020604051808303816000875af1158015620005ff573d6000803e3d6000fd5b505050506040513d601f19601f8201168201806040525081019062000625919062000aea565b600960006101000a81548173ffffffffffffffffffffffffffffffffffffffff021916908373ffffffffffffffffffffffffffffffffffffffff160217905550600160046000600960009054906101000a900473ffffffffffffffffffffffffffffffffffffffff1673ffffffffffffffffffffffffffffffffffffffff1673ffffffffffffffffffffffffffffffffffffffff16815260200190815260200160002060006101000a81548160ff0219169083151502179055506200073433600860009054906101000a900473ffffffffffffffffffffffffffffffffffffffff167fffffffffffffffffffffffffffffffffffffffffffffffffffffffffffffffff6200085b60201b60201c565b6200078930600860009054906101000a900473ffffffffffffffffffffffffffffffffffffffff167fffffffffffffffffffffffffffffffffffffffffffffffffffffffffffffffff6200085b60201b60201c565b62000bcc565b600033905090565b60008060009054906101000a900473ffffffffffffffffffffffffffffffffffffffff169050816000806101000a81548173ffffffffffffffffffffffffffffffffffffffff021916908373ffffffffffffffffffffffffffffffffffffffff1602179055508173ffffffffffffffffffffffffffffffffffffffff168173ffffffffffffffffffffffffffffffffffffffff167f8be0079c531659141344cd1fd0a4f28419497f9722a3daafe3b4186f6b6457e060405160405180910390a35050565b600073ffffffffffffffffffffffffffffffffffffffff168373ffffffffffffffffffffffffffffffffffffffff1603620008cd576040517f08c379a0000000000000000000000000000000000000000000000000000000008152600401620008c49062000baa565b60405180910390fd5b600073ffffffffffffffffffffffffffffffffffffffff168273ffffffffffffffffffffffffffffffffffffffff16036200093f576040517f08c379a0000000000000000000000000000000000000000000000000000000008152600401620009369062000baa565b60405180910390fd5b80600160008573ffffffffffffffffffffffffffffffffffffffff1673ffffffffffffffffffffffffffffffffffffffff16815260200190815260200160002060008473ffffffffffffffffffffffffffffffffffffffff1673ffffffffffffffffffffffffffffffffffffffff16815260200190815260200160002081905550505050565b600082825260208201905092915050565b7f436861696e206e6f742076616c69640000000000000000000000000000000000600082015250565b600062000a0e600f83620009c5565b915062000a1b82620009d6565b602082019050919050565b6000602082019050818103600083015262000a4181620009ff565b9050919050565b6000819050919050565b62000a5d8162000a48565b82525050565b600060208201905062000a7a600083018462000a52565b92915050565b600080fd5b600073ffffffffffffffffffffffffffffffffffffffff82169050919050565b600062000ab28262000a85565b9050919050565b62000ac48162000aa5565b811462000ad057600080fd5b50565b60008151905062000ae48162000ab9565b92915050565b60006020828403121562000b035762000b0262000a80565b5b600062000b138482850162000ad3565b91505092915050565b62000b278162000aa5565b82525050565b600060408201905062000b44600083018562000b1c565b62000b53602083018462000b1c565b9392505050565b7f45524332303a205a65726f204164647265737300000000000000000000000000600082015250565b600062000b92601383620009c5565b915062000b9f8262000b5a565b602082019050919050565b6000602082019050818103600083015262000bc58162000b83565b9050919050565b6131168062000bdc6000396000f3fe6080604052600436106101d15760003560e01c806354de7bee116100f7578063a9059cbb11610095578063dc9d75b011610064578063dc9d75b014610663578063dd62ed3e1461068e578063e9451f5f146106cb578063f2fde38b146106f6576101d8565b8063a9059cbb146105a9578063c31c9c07146105e6578063c4ab12b514610611578063d5914dc01461063a576101d8565b8063893d20e8116100d1578063893d20e8146105115780638a8c523c1461053c5780638da5cb5b1461055357806395d89b411461057e576101d8565b806354de7bee1461049257806370a08231146104bd578063715018a6146104fa576101d8565b806318160ddd1161016f578063313ce5671161013e578063313ce567146103e85780633cd17c96146104135780633eaaf86b1461043c578063452ed4f114610467576101d8565b806318160ddd146103185780631dc369451461034357806323b872dd1461036e57806327889862146103ab576101d8565b806306fdde03116101ab57806306fdde031461025e578063095ea7b3146102895780630faba554146102c6578063111a60b0146102ef576101d8565b806303fd2a45146101dd5780630445b66714610208578063064a59d014610233576101d8565b366101d857005b600080fd5b3480156101e957600080fd5b506101f261071f565b6040516101ff9190612497565b60405180910390f35b34801561021457600080fd5b5061021d610725565b60405161022a91906124cb565b60405180910390f35b34801561023f57600080fd5b50610248610740565b6040516102559190612501565b60405180910390f35b34801561026a57600080fd5b50610273610753565b60405161028091906125ac565b60405180910390f35b34801561029557600080fd5b506102b060048036038101906102ab919061262b565b610790565b6040516102bd9190612501565b60405180910390f35b3480156102d257600080fd5b506102ed60048036038101906102e89190612697565b6107a7565b005b3480156102fb57600080fd5b50610316600480360381019061031191906126d7565b61087e565b005b34801561032457600080fd5b5061032d6109a3565b60405161033a91906124cb565b60405180910390f35b34801561034f57600080fd5b506103586109cb565b60405161036591906124cb565b60405180910390f35b34801561037a57600080fd5b5061039560048036038101906103909190612704565b6109d0565b6040516103a29190612501565b60405180910390f35b3480156103b757600080fd5b506103d260048036038101906103cd9190612757565b610b1d565b6040516103df9190612501565b60405180910390f35b3480156103f457600080fd5b506103fd610b73565b60405161040a91906127a0565b60405180910390f35b34801561041f57600080fd5b5061043a60048036038101906104359190612697565b610b92565b005b34801561044857600080fd5b50610451610de2565b60405161045e91906124cb565b60405180910390f35b34801561047357600080fd5b5061047c610df0565b6040516104899190612497565b60405180910390f35b34801561049e57600080fd5b506104a7610e16565b6040516104b491906124cb565b60405180910390f35b3480156104c957600080fd5b506104e460048036038101906104df9190612757565b610e1b565b6040516104f191906124cb565b60405180910390f35b34801561050657600080fd5b5061050f610e64565b005b34801561051d57600080fd5b50610526610eec565b6040516105339190612497565b60405180910390f35b34801561054857600080fd5b50610551610efb565b005b34801561055f57600080fd5b50610568611010565b6040516105759190612497565b60405180910390f35b34801561058a57600080fd5b50610593611039565b6040516105a091906125ac565b60405180910390f35b3480156105b557600080fd5b506105d060048036038101906105cb919061262b565b611076565b6040516105dd9190612501565b60405180910390f35b3480156105f257600080fd5b506105fb61108e565b604051610608919061281a565b60405180910390f35b34801561061d57600080fd5b5061063860048036038101906106339190612757565b6110b4565b005b34801561064657600080fd5b50610661600480360381019061065c9190612757565b6111ab565b005b34801561066f57600080fd5b506106786112b9565b60405161068591906124cb565b60405180910390f35b34801561069a57600080fd5b506106b560048036038101906106b09190612835565b6112bf565b6040516106c291906124cb565b60405180910390f35b3480156106d757600080fd5b506106e0611346565b6040516106ed91906124cb565b60405180910390f35b34801561070257600080fd5b5061071d60048036038101906107189190612757565b61134b565b005b61dead81565b611388695915a68d88da6a08000061073d91906128d3565b81565b600960149054906101000a900460ff1681565b60606040518060400160405280600781526020017f50696720322e3000000000000000000000000000000000000000000000000000815250905090565b600061079d338484611442565b6001905092915050565b6107af6115a6565b73ffffffffffffffffffffffffffffffffffffffff166107cd611010565b73ffffffffffffffffffffffffffffffffffffffff1614610823576040517f08c379a000000000000000000000000000000000000000000000000000000000815260040161081a90612950565b60405180910390fd5b80600260008473ffffffffffffffffffffffffffffffffffffffff1673ffffffffffffffffffffffffffffffffffffffff16815260200190815260200160002060006101000a81548160ff0219169083151502179055505050565b6108866115a6565b73ffffffffffffffffffffffffffffffffffffffff166108a4611010565b73ffffffffffffffffffffffffffffffffffffffff16146108fa576040517f08c379a00000000000000000000000000000000000000000000000000000000081526004016108f190612950565b60405180910390fd5b801515600760009054906101000a900460ff1615150361094f576040517f08c379a0000000000000000000000000000000000000000000000000000000008152600401610946906129bc565b60405180910390fd5b80600760006101000a81548160ff0219169083151502179055507f4686eea8d0ea8d72497b77f908906325d7bbafd9f1d6753522573258958656e8816040516109989190612501565b60405180910390a150565b600080695915a68d88da6a080000036109bb57600080fd5b695915a68d88da6a080000905090565b600a81565b60007fffffffffffffffffffffffffffffffffffffffffffffffffffffffffffffffff600160008673ffffffffffffffffffffffffffffffffffffffff1673ffffffffffffffffffffffffffffffffffffffff16815260200190815260200160002060003373ffffffffffffffffffffffffffffffffffffffff1673ffffffffffffffffffffffffffffffffffffffff1681526020019081526020016000205414610b095781600160008673ffffffffffffffffffffffffffffffffffffffff1673ffffffffffffffffffffffffffffffffffffffff16815260200190815260200160002060003373ffffffffffffffffffffffffffffffffffffffff1673ffffffffffffffffffffffffffffffffffffffff1681526020019081526020016000206000828254610b0191906129dc565b925050819055505b610b148484846115ae565b90509392505050565b6000600260008373ffffffffffffffffffffffffffffffffffffffff1673ffffffffffffffffffffffffffffffffffffffff16815260200190815260200160002060009054906101000a900460ff169050919050565b600080695915a68d88da6a08000003610b8b57600080fd5b6009905090565b610b9a6115a6565b73ffffffffffffffffffffffffffffffffffffffff16610bb8611010565b73ffffffffffffffffffffffffffffffffffffffff1614610c0e576040517f08c379a0000000000000000000000000000000000000000000000000000000008152600401610c0590612950565b60405180910390fd5b801515600560008473ffffffffffffffffffffffffffffffffffffffff1673ffffffffffffffffffffffffffffffffffffffff16815260200190815260200160002060009054906101000a900460ff16151503610ca0576040517f08c379a0000000000000000000000000000000000000000000000000000000008152600401610c9790612a5c565b60405180910390fd5b80600560008473ffffffffffffffffffffffffffffffffffffffff1673ffffffffffffffffffffffffffffffffffffffff16815260200190815260200160002060006101000a81548160ff02191690831515021790555080600260008473ffffffffffffffffffffffffffffffffffffffff1673ffffffffffffffffffffffffffffffffffffffff16815260200190815260200160002060006101000a81548160ff02191690831515021790555080600360008473ffffffffffffffffffffffffffffffffffffffff1673ffffffffffffffffffffffffffffffffffffffff16815260200190815260200160002060006101000a81548160ff0219169083151502179055507f7f7f90cb020c1deb8939c26cf0790751e539157b1fd2039166fcd09a8b7645138282604051610dd6929190612a7c565b60405180910390a15050565b695915a68d88da6a08000081565b600960009054906101000a900473ffffffffffffffffffffffffffffffffffffffff1681565b600081565b6000600660008373ffffffffffffffffffffffffffffffffffffffff1673ffffffffffffffffffffffffffffffffffffffff168152602001908152602001600020549050919050565b610e6c6115a6565b73ffffffffffffffffffffffffffffffffffffffff16610e8a611010565b73ffffffffffffffffffffffffffffffffffffffff1614610ee0576040517f08c379a0000000000000000000000000000000000000000000000000000000008152600401610ed790612950565b60405180910390fd5b610eea600061199d565b565b6000610ef6611010565b905090565b610f036115a6565b73ffffffffffffffffffffffffffffffffffffffff16610f21611010565b73ffffffffffffffffffffffffffffffffffffffff1614610f77576040517f08c379a0000000000000000000000000000000000000000000000000000000008152600401610f6e90612950565b60405180910390fd5b600960149054906101000a900460ff1615610fc7576040517f08c379a0000000000000000000000000000000000000000000000000000000008152600401610fbe90612af1565b60405180910390fd5b6001600960146101000a81548160ff0219169083151502179055507fa0ac5e19ca3a09af9a3a13c5c51f911c89eefd4b9eb548f4766b991b14ad686860405160405180910390a1565b60008060009054906101000a900473ffffffffffffffffffffffffffffffffffffffff16905090565b60606040518060400160405280600681526020017f504947322e300000000000000000000000000000000000000000000000000000815250905090565b60006110833384846115ae565b506001905092915050565b600860009054906101000a900473ffffffffffffffffffffffffffffffffffffffff1681565b6110bc6115a6565b73ffffffffffffffffffffffffffffffffffffffff166110da611010565b73ffffffffffffffffffffffffffffffffffffffff1614611130576040517f08c379a000000000000000000000000000000000000000000000000000000000815260040161112790612950565b60405180910390fd5b80600760016101000a81548173ffffffffffffffffffffffffffffffffffffffff021916908373ffffffffffffffffffffffffffffffffffffffff1602179055507fb074145dac98cbf04c5e3a6d58501e8e3aa6eb107008ec598af2309ae5179dfe816040516111a09190612497565b60405180910390a150565b6111b36115a6565b73ffffffffffffffffffffffffffffffffffffffff166111d1611010565b73ffffffffffffffffffffffffffffffffffffffff1614611227576040517f08c379a000000000000000000000000000000000000000000000000000000000815260040161121e90612950565b60405180910390fd5b6001600460008373ffffffffffffffffffffffffffffffffffffffff1673ffffffffffffffffffffffffffffffffffffffff16815260200190815260200160002060006101000a81548160ff0219169083151502179055507f03b62011431502c791d443ee6149c9ec9b43632aeb5eb55c621104c128fe02f7816040516112ae9190612497565b60405180910390a150565b6103e881565b6000600160008473ffffffffffffffffffffffffffffffffffffffff1673ffffffffffffffffffffffffffffffffffffffff16815260200190815260200160002060008373ffffffffffffffffffffffffffffffffffffffff1673ffffffffffffffffffffffffffffffffffffffff16815260200190815260200160002054905092915050565b600a81565b6113536115a6565b73ffffffffffffffffffffffffffffffffffffffff16611371611010565b73ffffffffffffffffffffffffffffffffffffffff16146113c7576040517f08c379a00000000000000000000000000000000000000000000000000000000081526004016113be90612950565b60405180910390fd5b600073ffffffffffffffffffffffffffffffffffffffff168173ffffffffffffffffffffffffffffffffffffffff1603611436576040517f08c379a000000000000000000000000000000000000000000000000000000000815260040161142d90612b83565b60405180910390fd5b61143f8161199d565b50565b600073ffffffffffffffffffffffffffffffffffffffff168373ffffffffffffffffffffffffffffffffffffffff16036114b1576040517f08c379a00000000000000000000000000000000000000000000000000000000081526004016114a890612bef565b60405180910390fd5b600073ffffffffffffffffffffffffffffffffffffffff168273ffffffffffffffffffffffffffffffffffffffff1603611520576040517f08c379a000000000000000000000000000000000000000000000000000000000815260040161151790612bef565b60405180910390fd5b80600160008573ffffffffffffffffffffffffffffffffffffffff1673ffffffffffffffffffffffffffffffffffffffff16815260200190815260200160002060008473ffffffffffffffffffffffffffffffffffffffff1673ffffffffffffffffffffffffffffffffffffffff16815260200190815260200160002081905550505050565b600033905090565b60008060019050600073ffffffffffffffffffffffffffffffffffffffff168473ffffffffffffffffffffffffffffffffffffffff1603611624576040517f08c379a000000000000000000000000000000000000000000000000000000000815260040161161b90612c81565b60405180910390fd5b600073ffffffffffffffffffffffffffffffffffffffff168573ffffffffffffffffffffffffffffffffffffffff1603611693576040517f08c379a000000000000000000000000000000000000000000000000000000000815260040161168a90612d13565b60405180910390fd5b600083116116d6576040517f08c379a00000000000000000000000000000000000000000000000000000000081526004016116cd90612da5565b60405180910390fd5b6116e08585611a61565b1561173557600960149054906101000a900460ff16611734576040517f08c379a000000000000000000000000000000000000000000000000000000000815260040161172b90612e11565b60405180910390fd5b5b61173f8585611c7c565b80156117585750600960159054906101000a900460ff16155b801561176a57506117698585611d2e565b5b156117a657600061177a30610e1b565b9050611388695915a68d88da6a08000061179491906128d3565b81106117a4576117a381611df9565b5b505b600260008673ffffffffffffffffffffffffffffffffffffffff1673ffffffffffffffffffffffffffffffffffffffff16815260200190815260200160002060009054906101000a900460ff16806118475750600260008573ffffffffffffffffffffffffffffffffffffffff1673ffffffffffffffffffffffffffffffffffffffff16815260200190815260200160002060009054906101000a900460ff165b1561185157600090505b82600660008773ffffffffffffffffffffffffffffffffffffffff1673ffffffffffffffffffffffffffffffffffffffff16815260200190815260200160002060008282546118a091906129dc565b925050819055506000816118b457836118d3565b6118d2866118c28888612271565b6118cc8989611c7c565b87612323565b5b905080600660008773ffffffffffffffffffffffffffffffffffffffff1673ffffffffffffffffffffffffffffffffffffffff16815260200190815260200160002060008282546119249190612e31565b925050819055508473ffffffffffffffffffffffffffffffffffffffff168673ffffffffffffffffffffffffffffffffffffffff167fddf252ad1be2c89b69c2b068fc378daa952ba7f163c4a11628f55a4df523b3ef8360405161198891906124cb565b60405180910390a36001925050509392505050565b60008060009054906101000a900473ffffffffffffffffffffffffffffffffffffffff169050816000806101000a81548173ffffffffffffffffffffffffffffffffffffffff021916908373ffffffffffffffffffffffffffffffffffffffff1602179055508173ffffffffffffffffffffffffffffffffffffffff168173ffffffffffffffffffffffffffffffffffffffff167f8be0079c531659141344cd1fd0a4f28419497f9722a3daafe3b4186f6b6457e060405160405180910390a35050565b600080611a6c611010565b73ffffffffffffffffffffffffffffffffffffffff168473ffffffffffffffffffffffffffffffffffffffff1614158015611ada5750611aaa611010565b73ffffffffffffffffffffffffffffffffffffffff168373ffffffffffffffffffffffffffffffffffffffff1614155b8015611b195750611ae9611010565b73ffffffffffffffffffffffffffffffffffffffff163373ffffffffffffffffffffffffffffffffffffffff1614155b8015611b6f5750600360008573ffffffffffffffffffffffffffffffffffffffff1673ffffffffffffffffffffffffffffffffffffffff16815260200190815260200160002060009054906101000a900460ff16155b8015611bc55750600360008473ffffffffffffffffffffffffffffffffffffffff1673ffffffffffffffffffffffffffffffffffffffff16815260200190815260200160002060009054906101000a900460ff16155b8015611bff575061dead73ffffffffffffffffffffffffffffffffffffffff168373ffffffffffffffffffffffffffffffffffffffff1614155b8015611c385750600073ffffffffffffffffffffffffffffffffffffffff168373ffffffffffffffffffffffffffffffffffffffff1614155b8015611c7057503073ffffffffffffffffffffffffffffffffffffffff168373ffffffffffffffffffffffffffffffffffffffff1614155b90508091505092915050565b600080600460008473ffffffffffffffffffffffffffffffffffffffff1673ffffffffffffffffffffffffffffffffffffffff16815260200190815260200160002060009054906101000a900460ff168015611d225750600460008573ffffffffffffffffffffffffffffffffffffffff1673ffffffffffffffffffffffffffffffffffffffff16815260200190815260200160002060009054906101000a900460ff16155b90508091505092915050565b600080600760009054906101000a900460ff168015611d975750600560008573ffffffffffffffffffffffffffffffffffffffff1673ffffffffffffffffffffffffffffffffffffffff16815260200190815260200160002060009054906101000a900460ff16155b8015611ded5750600560008473ffffffffffffffffffffffffffffffffffffffff1673ffffffffffffffffffffffffffffffffffffffff16815260200190815260200160002060009054906101000a900460ff16155b90508091505092915050565b6001600960156101000a81548160ff0219169083151502179055506000600267ffffffffffffffff811115611e3157611e30612e65565b5b604051908082528060200260200182016040528015611e5f5781602001602082028036833780820191505090505b5090503081600081518110611e7757611e76612e94565b5b602002602001019073ffffffffffffffffffffffffffffffffffffffff16908173ffffffffffffffffffffffffffffffffffffffff1681525050600860009054906101000a900473ffffffffffffffffffffffffffffffffffffffff1673ffffffffffffffffffffffffffffffffffffffff1663ad5c46486040518163ffffffff1660e01b8152600401602060405180830381865afa158015611f1e573d6000803e3d6000fd5b505050506040513d601f19601f82011682018060405250810190611f429190612ed8565b81600181518110611f5657611f55612e94565b5b602002602001019073ffffffffffffffffffffffffffffffffffffffff16908173ffffffffffffffffffffffffffffffffffffffff16815250507fffffffffffffffffffffffffffffffffffffffffffffffffffffffffffffffff600160003073ffffffffffffffffffffffffffffffffffffffff1673ffffffffffffffffffffffffffffffffffffffff1681526020019081526020016000206000600860009054906101000a900473ffffffffffffffffffffffffffffffffffffffff1673ffffffffffffffffffffffffffffffffffffffff1673ffffffffffffffffffffffffffffffffffffffff1681526020019081526020016000205414612119577fffffffffffffffffffffffffffffffffffffffffffffffffffffffffffffffff600160003073ffffffffffffffffffffffffffffffffffffffff1673ffffffffffffffffffffffffffffffffffffffff1681526020019081526020016000206000600860009054906101000a900473ffffffffffffffffffffffffffffffffffffffff1673ffffffffffffffffffffffffffffffffffffffff1673ffffffffffffffffffffffffffffffffffffffff168152602001908152602001600020819055505b600860009054906101000a900473ffffffffffffffffffffffffffffffffffffffff1673ffffffffffffffffffffffffffffffffffffffff1663791ac9478360008430426040518663ffffffff1660e01b815260040161217d959493929190612ffe565b600060405180830381600087803b15801561219757600080fd5b505af19250505080156121a8575060015b6121b25750612253565b60008047111561225057600760019054906101000a900473ffffffffffffffffffffffffffffffffffffffff1673ffffffffffffffffffffffffffffffffffffffff16476188b89060405161220690613089565b600060405180830381858888f193505050503d8060008114612244576040519150601f19603f3d011682016040523d82523d6000602084013e612249565b606091505b5050809150505b50505b6000600960156101000a81548160ff02191690831515021790555050565b600080600460008473ffffffffffffffffffffffffffffffffffffffff1673ffffffffffffffffffffffffffffffffffffffff16815260200190815260200160002060009054906101000a900460ff161580156123175750600460008573ffffffffffffffffffffffffffffffffffffffff1673ffffffffffffffffffffffffffffffffffffffff16815260200190815260200160002060009054906101000a900460ff165b90508091505092915050565b600080841561233557600a905061234a565b831561234457600a9050612349565b600090505b5b6000810361235b578291505061244e565b60006103e8828561236c919061309e565b61237691906128d3565b9050600081111561243d5780600660003073ffffffffffffffffffffffffffffffffffffffff1673ffffffffffffffffffffffffffffffffffffffff16815260200190815260200160002060008282546123d09190612e31565b925050819055503073ffffffffffffffffffffffffffffffffffffffff168773ffffffffffffffffffffffffffffffffffffffff167fddf252ad1be2c89b69c2b068fc378daa952ba7f163c4a11628f55a4df523b3ef8360405161243491906124cb565b60405180910390a35b808461244991906129dc565b925050505b949350505050565b600073ffffffffffffffffffffffffffffffffffffffff82169050919050565b600061248182612456565b9050919050565b61249181612476565b82525050565b60006020820190506124ac6000830184612488565b92915050565b6000819050919050565b6124c5816124b2565b82525050565b60006020820190506124e060008301846124bc565b92915050565b60008115159050919050565b6124fb816124e6565b82525050565b600060208201905061251660008301846124f2565b92915050565b600081519050919050565b600082825260208201905092915050565b60005b8381101561255657808201518184015260208101905061253b565b60008484015250505050565b6000601f19601f8301169050919050565b600061257e8261251c565b6125888185612527565b9350612598818560208601612538565b6125a181612562565b840191505092915050565b600060208201905081810360008301526125c68184612573565b905092915050565b600080fd5b6125dc81612476565b81146125e757600080fd5b50565b6000813590506125f9816125d3565b92915050565b612608816124b2565b811461261357600080fd5b50565b600081359050612625816125ff565b92915050565b60008060408385031215612642576126416125ce565b5b6000612650858286016125ea565b925050602061266185828601612616565b9150509250929050565b612674816124e6565b811461267f57600080fd5b50565b6000813590506126918161266b565b92915050565b600080604083850312156126ae576126ad6125ce565b5b60006126bc858286016125ea565b92505060206126cd85828601612682565b9150509250929050565b6000602082840312156126ed576126ec6125ce565b5b60006126fb84828501612682565b91505092915050565b60008060006060848603121561271d5761271c6125ce565b5b600061272b868287016125ea565b935050602061273c868287016125ea565b925050604061274d86828701612616565b9150509250925092565b60006020828403121561276d5761276c6125ce565b5b600061277b848285016125ea565b91505092915050565b600060ff82169050919050565b61279a81612784565b82525050565b60006020820190506127b56000830184612791565b92915050565b6000819050919050565b60006127e06127db6127d684612456565b6127bb565b612456565b9050919050565b60006127f2826127c5565b9050919050565b6000612804826127e7565b9050919050565b612814816127f9565b82525050565b600060208201905061282f600083018461280b565b92915050565b6000806040838503121561284c5761284b6125ce565b5b600061285a858286016125ea565b925050602061286b858286016125ea565b9150509250929050565b7f4e487b7100000000000000000000000000000000000000000000000000000000600052601260045260246000fd5b7f4e487b7100000000000000000000000000000000000000000000000000000000600052601160045260246000fd5b60006128de826124b2565b91506128e9836124b2565b9250826128f9576128f8612875565b5b828204905092915050565b7f4f776e61626c653a2063616c6c6572206973206e6f7420746865206f776e6572600082015250565b600061293a602083612527565b915061294582612904565b602082019050919050565b600060208201905081810360008301526129698161292d565b9050919050565b7f426f6f6c206973207468652073616d6500000000000000000000000000000000600082015250565b60006129a6601083612527565b91506129b182612970565b602082019050919050565b600060208201905081810360008301526129d581612999565b9050919050565b60006129e7826124b2565b91506129f2836124b2565b9250828203905081811115612a0a57612a096128a4565b5b92915050565b7f53616d6520626f6f6c0000000000000000000000000000000000000000000000600082015250565b6000612a46600983612527565b9150612a5182612a10565b602082019050919050565b60006020820190508181036000830152612a7581612a39565b9050919050565b6000604082019050612a916000830185612488565b612a9e60208301846124f2565b9392505050565b7f54726164696e6720616c726561647920656e61626c6564000000000000000000600082015250565b6000612adb601783612527565b9150612ae682612aa5565b602082019050919050565b60006020820190508181036000830152612b0a81612ace565b9050919050565b7f4f776e61626c653a206e6577206f776e657220697320746865207a65726f206160008201527f6464726573730000000000000000000000000000000000000000000000000000602082015250565b6000612b6d602683612527565b9150612b7882612b11565b604082019050919050565b60006020820190508181036000830152612b9c81612b60565b9050919050565b7f45524332303a205a65726f204164647265737300000000000000000000000000600082015250565b6000612bd9601383612527565b9150612be482612ba3565b602082019050919050565b60006020820190508181036000830152612c0881612bcc565b9050919050565b7f45524332303a207472616e7366657220746f20746865207a65726f206164647260008201527f6573730000000000000000000000000000000000000000000000000000000000602082015250565b6000612c6b602383612527565b9150612c7682612c0f565b604082019050919050565b60006020820190508181036000830152612c9a81612c5e565b9050919050565b7f45524332303a207472616e736665722066726f6d20746865207a65726f20616460008201527f6472657373000000000000000000000000000000000000000000000000000000602082015250565b6000612cfd602583612527565b9150612d0882612ca1565b604082019050919050565b60006020820190508181036000830152612d2c81612cf0565b9050919050565b7f5472616e7366657220616d6f756e74206d75737420626520677265617465722060008201527f7468616e207a65726f0000000000000000000000000000000000000000000000602082015250565b6000612d8f602983612527565b9150612d9a82612d33565b604082019050919050565b60006020820190508181036000830152612dbe81612d82565b9050919050565b7f54726164696e67206973206e6f7420656e61626c656400000000000000000000600082015250565b6000612dfb601683612527565b9150612e0682612dc5565b602082019050919050565b60006020820190508181036000830152612e2a81612dee565b9050919050565b6000612e3c826124b2565b9150612e47836124b2565b9250828201905080821115612e5f57612e5e6128a4565b5b92915050565b7f4e487b7100000000000000000000000000000000000000000000000000000000600052604160045260246000fd5b7f4e487b7100000000000000000000000000000000000000000000000000000000600052603260045260246000fd5b600081519050612ed2816125d3565b92915050565b600060208284031215612eee57612eed6125ce565b5b6000612efc84828501612ec3565b91505092915050565b6000819050919050565b6000612f2a612f25612f2084612f05565b6127bb565b6124b2565b9050919050565b612f3a81612f0f565b82525050565b600081519050919050565b600082825260208201905092915050565b6000819050602082019050919050565b612f7581612476565b82525050565b6000612f878383612f6c565b60208301905092915050565b6000602082019050919050565b6000612fab82612f40565b612fb58185612f4b565b9350612fc083612f5c565b8060005b83811015612ff1578151612fd88882612f7b565b9750612fe383612f93565b925050600181019050612fc4565b5085935050505092915050565b600060a08201905061301360008301886124bc565b6130206020830187612f31565b81810360408301526130328186612fa0565b90506130416060830185612488565b61304e60808301846124bc565b9695505050505050565b600081905092915050565b50565b6000613073600083613058565b915061307e82613063565b600082019050919050565b600061309482613066565b9150819050919050565b60006130a9826124b2565b91506130b4836124b2565b92508282026130c2816124b2565b915082820484148315176130d9576130d86128a4565b5b509291505056fea264697066735822122044728b2bbf6689d8b0d8b1eebe01c643aac8d46ea0a5513363601b3ecbad5f3864736f6c63430008130033",
			"opcodes": "PUSH1 0x80 PUSH1 0x40 MSTORE PUSH1 0x1 PUSH1 0x7 PUSH1 0x0 PUSH2 0x100 EXP DUP2 SLOAD DUP2 PUSH1 0xFF MUL NOT AND SWAP1 DUP4 ISZERO ISZERO MUL OR SWAP1 SSTORE POP PUSH20 0xE44805772A5F6BD858942276FC20504A5618A79 PUSH1 0x7 PUSH1 0x1 PUSH2 0x100 EXP DUP2 SLOAD DUP2 PUSH20 0xFFFFFFFFFFFFFFFFFFFFFFFFFFFFFFFFFFFFFFFF MUL NOT AND SWAP1 DUP4 PUSH20 0xFFFFFFFFFFFFFFFFFFFFFFFFFFFFFFFFFFFFFFFF AND MUL OR SWAP1 SSTORE POP PUSH1 0x0 PUSH1 0x9 PUSH1 0x14 PUSH2 0x100 EXP DUP2 SLOAD DUP2 PUSH1 0xFF MUL NOT AND SWAP1 DUP4 ISZERO ISZERO MUL OR SWAP1 SSTORE POP CALLVALUE DUP1 ISZERO PUSH3 0x9C JUMPI PUSH1 0x0 DUP1 REVERT JUMPDEST POP PUSH3 0xBD PUSH3 0xB1 PUSH3 0x78F PUSH1 0x20 SHL PUSH1 0x20 SHR JUMP JUMPDEST PUSH3 0x797 PUSH1 0x20 SHL PUSH1 0x20 SHR JUMP JUMPDEST PUSH1 0x1 PUSH1 0x2 PUSH1 0x0 CALLER PUSH20 0xFFFFFFFFFFFFFFFFFFFFFFFFFFFFFFFFFFFFFFFF AND PUSH20 0xFFFFFFFFFFFFFFFFFFFFFFFFFFFFFFFFFFFFFFFF AND DUP2 MSTORE PUSH1 0x20 ADD SWAP1 DUP2 MSTORE PUSH1 0x20 ADD PUSH1 0x0 KECCAK256 PUSH1 0x0 PUSH2 0x100 EXP DUP2 SLOAD DUP2 PUSH1 0xFF MUL NOT AND SWAP1 DUP4 ISZERO ISZERO MUL OR SWAP1 SSTORE POP PUSH1 0x38 CHAINID SUB PUSH3 0x179 JUMPI PUSH20 0x10ED43C718714EB63D5AA57B78B54704E256024E PUSH1 0x8 PUSH1 0x0 PUSH2 0x100 EXP DUP2 SLOAD DUP2 PUSH20 0xFFFFFFFFFFFFFFFFFFFFFFFFFFFFFFFFFFFFFFFF MUL NOT AND SWAP1 DUP4 PUSH20 0xFFFFFFFFFFFFFFFFFFFFFFFFFFFFFFFFFFFFFFFF AND MUL OR SWAP1 SSTORE POP PUSH3 0x364 JUMP JUMPDEST PUSH1 0x61 CHAINID SUB PUSH3 0x1DD JUMPI PUSH20 0xD99D1C33F9FC3444F8101754ABC46C52416550D1 PUSH1 0x8 PUSH1 0x0 PUSH2 0x100 EXP DUP2 SLOAD DUP2 PUSH20 0xFFFFFFFFFFFFFFFFFFFFFFFFFFFFFFFFFFFFFFFF MUL NOT AND SWAP1 DUP4 PUSH20 0xFFFFFFFFFFFFFFFFFFFFFFFFFFFFFFFFFFFFFFFF AND MUL OR SWAP1 SSTORE POP PUSH3 0x363 JUMP JUMPDEST PUSH1 0x1 CHAINID EQ DUP1 PUSH3 0x1ED JUMPI POP PUSH1 0x4 CHAINID EQ JUMPDEST DUP1 PUSH3 0x1F9 JUMPI POP PUSH1 0x3 CHAINID EQ JUMPDEST ISZERO PUSH3 0x25A JUMPI PUSH20 0x7A250D5630B4CF539739DF2C5DACB4C659F2488D PUSH1 0x8 PUSH1 0x0 PUSH2 0x100 EXP DUP2 SLOAD DUP2 PUSH20 0xFFFFFFFFFFFFFFFFFFFFFFFFFFFFFFFFFFFFFFFF MUL NOT AND SWAP1 DUP4 PUSH20 0xFFFFFFFFFFFFFFFFFFFFFFFFFFFFFFFFFFFFFFFF AND MUL OR SWAP1 SSTORE POP PUSH3 0x362 JUMP JUMPDEST PUSH2 0xA86A CHAINID SUB PUSH3 0x2BF JUMPI PUSH20 0x60AE616A2155EE3D9A68541BA4544862310933D4 PUSH1 0x8 PUSH1 0x0 PUSH2 0x100 EXP DUP2 SLOAD DUP2 PUSH20 0xFFFFFFFFFFFFFFFFFFFFFFFFFFFFFFFFFFFFFFFF MUL NOT AND SWAP1 DUP4 PUSH20 0xFFFFFFFFFFFFFFFFFFFFFFFFFFFFFFFFFFFFFFFF AND MUL OR SWAP1 SSTORE POP PUSH3 0x361 JUMP JUMPDEST PUSH1 0xFA CHAINID SUB PUSH3 0x323 JUMPI PUSH20 0xF491E7B69E4244AD4002BC14E878A34207E38C29 PUSH1 0x8 PUSH1 0x0 PUSH2 0x100 EXP DUP2 SLOAD DUP2 PUSH20 0xFFFFFFFFFFFFFFFFFFFFFFFFFFFFFFFFFFFFFFFF MUL NOT AND SWAP1 DUP4 PUSH20 0xFFFFFFFFFFFFFFFFFFFFFFFFFFFFFFFFFFFFFFFF AND MUL OR SWAP1 SSTORE POP PUSH3 0x360 JUMP JUMPDEST PUSH1 0x40 MLOAD PUSH32 0x8C379A000000000000000000000000000000000000000000000000000000000 DUP2 MSTORE PUSH1 0x4 ADD PUSH3 0x357 SWAP1 PUSH3 0xA26 JUMP JUMPDEST PUSH1 0x40 MLOAD DUP1 SWAP2 SUB SWAP1 REVERT JUMPDEST JUMPDEST JUMPDEST JUMPDEST JUMPDEST PUSH1 0x1 PUSH1 0x3 PUSH1 0x0 CALLER PUSH20 0xFFFFFFFFFFFFFFFFFFFFFFFFFFFFFFFFFFFFFFFF AND PUSH20 0xFFFFFFFFFFFFFFFFFFFFFFFFFFFFFFFFFFFFFFFF AND DUP2 MSTORE PUSH1 0x20 ADD SWAP1 DUP2 MSTORE PUSH1 0x20 ADD PUSH1 0x0 KECCAK256 PUSH1 0x0 PUSH2 0x100 EXP DUP2 SLOAD DUP2 PUSH1 0xFF MUL NOT AND SWAP1 DUP4 ISZERO ISZERO MUL OR SWAP1 SSTORE POP PUSH10 0x5915A68D88DA6A080000 PUSH1 0x6 PUSH1 0x0 CALLER PUSH20 0xFFFFFFFFFFFFFFFFFFFFFFFFFFFFFFFFFFFFFFFF AND PUSH20 0xFFFFFFFFFFFFFFFFFFFFFFFFFFFFFFFFFFFFFFFF AND DUP2 MSTORE PUSH1 0x20 ADD SWAP1 DUP2 MSTORE PUSH1 0x20 ADD PUSH1 0x0 KECCAK256 DUP2 SWAP1 SSTORE POP CALLER PUSH20 0xFFFFFFFFFFFFFFFFFFFFFFFFFFFFFFFFFFFFFFFF AND PUSH1 0x0 PUSH20 0xFFFFFFFFFFFFFFFFFFFFFFFFFFFFFFFFFFFFFFFF AND PUSH32 0xDDF252AD1BE2C89B69C2B068FC378DAA952BA7F163C4A11628F55A4DF523B3EF PUSH10 0x5915A68D88DA6A080000 PUSH1 0x40 MLOAD PUSH3 0x474 SWAP2 SWAP1 PUSH3 0xA63 JUMP JUMPDEST PUSH1 0x40 MLOAD DUP1 SWAP2 SUB SWAP1 LOG3 PUSH1 0x8 PUSH1 0x0 SWAP1 SLOAD SWAP1 PUSH2 0x100 EXP SWAP1 DIV PUSH20 0xFFFFFFFFFFFFFFFFFFFFFFFFFFFFFFFFFFFFFFFF AND PUSH20 0xFFFFFFFFFFFFFFFFFFFFFFFFFFFFFFFFFFFFFFFF AND PUSH4 0xC45A0155 PUSH1 0x40 MLOAD DUP2 PUSH4 0xFFFFFFFF AND PUSH1 0xE0 SHL DUP2 MSTORE PUSH1 0x4 ADD PUSH1 0x20 PUSH1 0x40 MLOAD DUP1 DUP4 SUB DUP2 DUP7 GAS STATICCALL ISZERO DUP1 ISZERO PUSH3 0x4EA JUMPI RETURNDATASIZE PUSH1 0x0 DUP1 RETURNDATACOPY RETURNDATASIZE PUSH1 0x0 REVERT JUMPDEST POP POP POP POP PUSH1 0x40 MLOAD RETURNDATASIZE PUSH1 0x1F NOT PUSH1 0x1F DUP3 ADD AND DUP3 ADD DUP1 PUSH1 0x40 MSTORE POP DUP2 ADD SWAP1 PUSH3 0x510 SWAP2 SWAP1 PUSH3 0xAEA JUMP JUMPDEST PUSH20 0xFFFFFFFFFFFFFFFFFFFFFFFFFFFFFFFFFFFFFFFF AND PUSH4 0xC9C65396 PUSH1 0x8 PUSH1 0x0 SWAP1 SLOAD SWAP1 PUSH2 0x100 EXP SWAP1 DIV PUSH20 0xFFFFFFFFFFFFFFFFFFFFFFFFFFFFFFFFFFFFFFFF AND PUSH20 0xFFFFFFFFFFFFFFFFFFFFFFFFFFFFFFFFFFFFFFFF AND PUSH4 0xAD5C4648 PUSH1 0x40 MLOAD DUP2 PUSH4 0xFFFFFFFF AND PUSH1 0xE0 SHL DUP2 MSTORE PUSH1 0x4 ADD PUSH1 0x20 PUSH1 0x40 MLOAD DUP1 DUP4 SUB DUP2 DUP7 GAS STATICCALL ISZERO DUP1 ISZERO PUSH3 0x599 JUMPI RETURNDATASIZE PUSH1 0x0 DUP1 RETURNDATACOPY RETURNDATASIZE PUSH1 0x0 REVERT JUMPDEST POP POP POP POP PUSH1 0x40 MLOAD RETURNDATASIZE PUSH1 0x1F NOT PUSH1 0x1F DUP3 ADD AND DUP3 ADD DUP1 PUSH1 0x40 MSTORE POP DUP2 ADD SWAP1 PUSH3 0x5BF SWAP2 SWAP1 PUSH3 0xAEA JUMP JUMPDEST ADDRESS PUSH1 0x40 MLOAD DUP4 PUSH4 0xFFFFFFFF AND PUSH1 0xE0 SHL DUP2 MSTORE PUSH1 0x4 ADD PUSH3 0x5DF SWAP3 SWAP2 SWAP1 PUSH3 0xB2D JUMP JUMPDEST PUSH1 0x20 PUSH1 0x40 MLOAD DUP1 DUP4 SUB DUP2 PUSH1 0x0 DUP8 GAS CALL ISZERO DUP1 ISZERO PUSH3 0x5FF JUMPI RETURNDATASIZE PUSH1 0x0 DUP1 RETURNDATACOPY RETURNDATASIZE PUSH1 0x0 REVERT JUMPDEST POP POP POP POP PUSH1 0x40 MLOAD RETURNDATASIZE PUSH1 0x1F NOT PUSH1 0x1F DUP3 ADD AND DUP3 ADD DUP1 PUSH1 0x40 MSTORE POP DUP2 ADD SWAP1 PUSH3 0x625 SWAP2 SWAP1 PUSH3 0xAEA JUMP JUMPDEST PUSH1 0x9 PUSH1 0x0 PUSH2 0x100 EXP DUP2 SLOAD DUP2 PUSH20 0xFFFFFFFFFFFFFFFFFFFFFFFFFFFFFFFFFFFFFFFF MUL NOT AND SWAP1 DUP4 PUSH20 0xFFFFFFFFFFFFFFFFFFFFFFFFFFFFFFFFFFFFFFFF AND MUL OR SWAP1 SSTORE POP PUSH1 0x1 PUSH1 0x4 PUSH1 0x0 PUSH1 0x9 PUSH1 0x0 SWAP1 SLOAD SWAP1 PUSH2 0x100 EXP SWAP1 DIV PUSH20 0xFFFFFFFFFFFFFFFFFFFFFFFFFFFFFFFFFFFFFFFF AND PUSH20 0xFFFFFFFFFFFFFFFFFFFFFFFFFFFFFFFFFFFFFFFF AND PUSH20 0xFFFFFFFFFFFFFFFFFFFFFFFFFFFFFFFFFFFFFFFF AND DUP2 MSTORE PUSH1 0x20 ADD SWAP1 DUP2 MSTORE PUSH1 0x20 ADD PUSH1 0x0 KECCAK256 PUSH1 0x0 PUSH2 0x100 EXP DUP2 SLOAD DUP2 PUSH1 0xFF MUL NOT AND SWAP1 DUP4 ISZERO ISZERO MUL OR SWAP1 SSTORE POP PUSH3 0x734 CALLER PUSH1 0x8 PUSH1 0x0 SWAP1 SLOAD SWAP1 PUSH2 0x100 EXP SWAP1 DIV PUSH20 0xFFFFFFFFFFFFFFFFFFFFFFFFFFFFFFFFFFFFFFFF AND PUSH32 0xFFFFFFFFFFFFFFFFFFFFFFFFFFFFFFFFFFFFFFFFFFFFFFFFFFFFFFFFFFFFFFFF PUSH3 0x85B PUSH1 0x20 SHL PUSH1 0x20 SHR JUMP JUMPDEST PUSH3 0x789 ADDRESS PUSH1 0x8 PUSH1 0x0 SWAP1 SLOAD SWAP1 PUSH2 0x100 EXP SWAP1 DIV PUSH20 0xFFFFFFFFFFFFFFFFFFFFFFFFFFFFFFFFFFFFFFFF AND PUSH32 0xFFFFFFFFFFFFFFFFFFFFFFFFFFFFFFFFFFFFFFFFFFFFFFFFFFFFFFFFFFFFFFFF PUSH3 0x85B PUSH1 0x20 SHL PUSH1 0x20 SHR JUMP JUMPDEST PUSH3 0xBCC JUMP JUMPDEST PUSH1 0x0 CALLER SWAP1 POP SWAP1 JUMP JUMPDEST PUSH1 0x0 DUP1 PUSH1 0x0 SWAP1 SLOAD SWAP1 PUSH2 0x100 EXP SWAP1 DIV PUSH20 0xFFFFFFFFFFFFFFFFFFFFFFFFFFFFFFFFFFFFFFFF AND SWAP1 POP DUP2 PUSH1 0x0 DUP1 PUSH2 0x100 EXP DUP2 SLOAD DUP2 PUSH20 0xFFFFFFFFFFFFFFFFFFFFFFFFFFFFFFFFFFFFFFFF MUL NOT AND SWAP1 DUP4 PUSH20 0xFFFFFFFFFFFFFFFFFFFFFFFFFFFFFFFFFFFFFFFF AND MUL OR SWAP1 SSTORE POP DUP2 PUSH20 0xFFFFFFFFFFFFFFFFFFFFFFFFFFFFFFFFFFFFFFFF AND DUP2 PUSH20 0xFFFFFFFFFFFFFFFFFFFFFFFFFFFFFFFFFFFFFFFF AND PUSH32 0x8BE0079C531659141344CD1FD0A4F28419497F9722A3DAAFE3B4186F6B6457E0 PUSH1 0x40 MLOAD PUSH1 0x40 MLOAD DUP1 SWAP2 SUB SWAP1 LOG3 POP POP JUMP JUMPDEST PUSH1 0x0 PUSH20 0xFFFFFFFFFFFFFFFFFFFFFFFFFFFFFFFFFFFFFFFF AND DUP4 PUSH20 0xFFFFFFFFFFFFFFFFFFFFFFFFFFFFFFFFFFFFFFFF AND SUB PUSH3 0x8CD JUMPI PUSH1 0x40 MLOAD PUSH32 0x8C379A000000000000000000000000000000000000000000000000000000000 DUP2 MSTORE PUSH1 0x4 ADD PUSH3 0x8C4 SWAP1 PUSH3 0xBAA JUMP JUMPDEST PUSH1 0x40 MLOAD DUP1 SWAP2 SUB SWAP1 REVERT JUMPDEST PUSH1 0x0 PUSH20 0xFFFFFFFFFFFFFFFFFFFFFFFFFFFFFFFFFFFFFFFF AND DUP3 PUSH20 0xFFFFFFFFFFFFFFFFFFFFFFFFFFFFFFFFFFFFFFFF AND SUB PUSH3 0x93F JUMPI PUSH1 0x40 MLOAD PUSH32 0x8C379A000000000000000000000000000000000000000000000000000000000 DUP2 MSTORE PUSH1 0x4 ADD PUSH3 0x936 SWAP1 PUSH3 0xBAA JUMP JUMPDEST PUSH1 0x40 MLOAD DUP1 SWAP2 SUB SWAP1 REVERT JUMPDEST DUP1 PUSH1 0x1 PUSH1 0x0 DUP6 PUSH20 0xFFFFFFFFFFFFFFFFFFFFFFFFFFFFFFFFFFFFFFFF AND PUSH20 0xFFFFFFFFFFFFFFFFFFFFFFFFFFFFFFFFFFFFFFFF AND DUP2 MSTORE PUSH1 0x20 ADD SWAP1 DUP2 MSTORE PUSH1 0x20 ADD PUSH1 0x0 KECCAK256 PUSH1 0x0 DUP5 PUSH20 0xFFFFFFFFFFFFFFFFFFFFFFFFFFFFFFFFFFFFFFFF AND PUSH20 0xFFFFFFFFFFFFFFFFFFFFFFFFFFFFFFFFFFFFFFFF AND DUP2 MSTORE PUSH1 0x20 ADD SWAP1 DUP2 MSTORE PUSH1 0x20 ADD PUSH1 0x0 KECCAK256 DUP2 SWAP1 SSTORE POP POP POP POP JUMP JUMPDEST PUSH1 0x0 DUP3 DUP3 MSTORE PUSH1 0x20 DUP3 ADD SWAP1 POP SWAP3 SWAP2 POP POP JUMP JUMPDEST PUSH32 0x436861696E206E6F742076616C69640000000000000000000000000000000000 PUSH1 0x0 DUP3 ADD MSTORE POP JUMP JUMPDEST PUSH1 0x0 PUSH3 0xA0E PUSH1 0xF DUP4 PUSH3 0x9C5 JUMP JUMPDEST SWAP2 POP PUSH3 0xA1B DUP3 PUSH3 0x9D6 JUMP JUMPDEST PUSH1 0x20 DUP3 ADD SWAP1 POP SWAP2 SWAP1 POP JUMP JUMPDEST PUSH1 0x0 PUSH1 0x20 DUP3 ADD SWAP1 POP DUP2 DUP2 SUB PUSH1 0x0 DUP4 ADD MSTORE PUSH3 0xA41 DUP2 PUSH3 0x9FF JUMP JUMPDEST SWAP1 POP SWAP2 SWAP1 POP JUMP JUMPDEST PUSH1 0x0 DUP2 SWAP1 POP SWAP2 SWAP1 POP JUMP JUMPDEST PUSH3 0xA5D DUP2 PUSH3 0xA48 JUMP JUMPDEST DUP3 MSTORE POP POP JUMP JUMPDEST PUSH1 0x0 PUSH1 0x20 DUP3 ADD SWAP1 POP PUSH3 0xA7A PUSH1 0x0 DUP4 ADD DUP5 PUSH3 0xA52 JUMP JUMPDEST SWAP3 SWAP2 POP POP JUMP JUMPDEST PUSH1 0x0 DUP1 REVERT JUMPDEST PUSH1 0x0 PUSH20 0xFFFFFFFFFFFFFFFFFFFFFFFFFFFFFFFFFFFFFFFF DUP3 AND SWAP1 POP SWAP2 SWAP1 POP JUMP JUMPDEST PUSH1 0x0 PUSH3 0xAB2 DUP3 PUSH3 0xA85 JUMP JUMPDEST SWAP1 POP SWAP2 SWAP1 POP JUMP JUMPDEST PUSH3 0xAC4 DUP2 PUSH3 0xAA5 JUMP JUMPDEST DUP2 EQ PUSH3 0xAD0 JUMPI PUSH1 0x0 DUP1 REVERT JUMPDEST POP JUMP JUMPDEST PUSH1 0x0 DUP2 MLOAD SWAP1 POP PUSH3 0xAE4 DUP2 PUSH3 0xAB9 JUMP JUMPDEST SWAP3 SWAP2 POP POP JUMP JUMPDEST PUSH1 0x0 PUSH1 0x20 DUP3 DUP5 SUB SLT ISZERO PUSH3 0xB03 JUMPI PUSH3 0xB02 PUSH3 0xA80 JUMP JUMPDEST JUMPDEST PUSH1 0x0 PUSH3 0xB13 DUP5 DUP3 DUP6 ADD PUSH3 0xAD3 JUMP JUMPDEST SWAP2 POP POP SWAP3 SWAP2 POP POP JUMP JUMPDEST PUSH3 0xB27 DUP2 PUSH3 0xAA5 JUMP JUMPDEST DUP3 MSTORE POP POP JUMP JUMPDEST PUSH1 0x0 PUSH1 0x40 DUP3 ADD SWAP1 POP PUSH3 0xB44 PUSH1 0x0 DUP4 ADD DUP6 PUSH3 0xB1C JUMP JUMPDEST PUSH3 0xB53 PUSH1 0x20 DUP4 ADD DUP5 PUSH3 0xB1C JUMP JUMPDEST SWAP4 SWAP3 POP POP POP JUMP JUMPDEST PUSH32 0x45524332303A205A65726F204164647265737300000000000000000000000000 PUSH1 0x0 DUP3 ADD MSTORE POP JUMP JUMPDEST PUSH1 0x0 PUSH3 0xB92 PUSH1 0x13 DUP4 PUSH3 0x9C5 JUMP JUMPDEST SWAP2 POP PUSH3 0xB9F DUP3 PUSH3 0xB5A JUMP JUMPDEST PUSH1 0x20 DUP3 ADD SWAP1 POP SWAP2 SWAP1 POP JUMP JUMPDEST PUSH1 0x0 PUSH1 0x20 DUP3 ADD SWAP1 POP DUP2 DUP2 SUB PUSH1 0x0 DUP4 ADD MSTORE PUSH3 0xBC5 DUP2 PUSH3 0xB83 JUMP JUMPDEST SWAP1 POP SWAP2 SWAP1 POP JUMP JUMPDEST PUSH2 0x3116 DUP1 PUSH3 0xBDC PUSH1 0x0 CODECOPY PUSH1 0x0 RETURN INVALID PUSH1 0x80 PUSH1 0x40 MSTORE PUSH1 0x4 CALLDATASIZE LT PUSH2 0x1D1 JUMPI PUSH1 0x0 CALLDATALOAD PUSH1 0xE0 SHR DUP1 PUSH4 0x54DE7BEE GT PUSH2 0xF7 JUMPI DUP1 PUSH4 0xA9059CBB GT PUSH2 0x95 JUMPI DUP1 PUSH4 0xDC9D75B0 GT PUSH2 0x64 JUMPI DUP1 PUSH4 0xDC9D75B0 EQ PUSH2 0x663 JUMPI DUP1 PUSH4 0xDD62ED3E EQ PUSH2 0x68E JUMPI DUP1 PUSH4 0xE9451F5F EQ PUSH2 0x6CB JUMPI DUP1 PUSH4 0xF2FDE38B EQ PUSH2 0x6F6 JUMPI PUSH2 0x1D8 JUMP JUMPDEST DUP1 PUSH4 0xA9059CBB EQ PUSH2 0x5A9 JUMPI DUP1 PUSH4 0xC31C9C07 EQ PUSH2 0x5E6 JUMPI DUP1 PUSH4 0xC4AB12B5 EQ PUSH2 0x611 JUMPI DUP1 PUSH4 0xD5914DC0 EQ PUSH2 0x63A JUMPI PUSH2 0x1D8 JUMP JUMPDEST DUP1 PUSH4 0x893D20E8 GT PUSH2 0xD1 JUMPI DUP1 PUSH4 0x893D20E8 EQ PUSH2 0x511 JUMPI DUP1 PUSH4 0x8A8C523C EQ PUSH2 0x53C JUMPI DUP1 PUSH4 0x8DA5CB5B EQ PUSH2 0x553 JUMPI DUP1 PUSH4 0x95D89B41 EQ PUSH2 0x57E JUMPI PUSH2 0x1D8 JUMP JUMPDEST DUP1 PUSH4 0x54DE7BEE EQ PUSH2 0x492 JUMPI DUP1 PUSH4 0x70A08231 EQ PUSH2 0x4BD JUMPI DUP1 PUSH4 0x715018A6 EQ PUSH2 0x4FA JUMPI PUSH2 0x1D8 JUMP JUMPDEST DUP1 PUSH4 0x18160DDD GT PUSH2 0x16F JUMPI DUP1 PUSH4 0x313CE567 GT PUSH2 0x13E JUMPI DUP1 PUSH4 0x313CE567 EQ PUSH2 0x3E8 JUMPI DUP1 PUSH4 0x3CD17C96 EQ PUSH2 0x413 JUMPI DUP1 PUSH4 0x3EAAF86B EQ PUSH2 0x43C JUMPI DUP1 PUSH4 0x452ED4F1 EQ PUSH2 0x467 JUMPI PUSH2 0x1D8 JUMP JUMPDEST DUP1 PUSH4 0x18160DDD EQ PUSH2 0x318 JUMPI DUP1 PUSH4 0x1DC36945 EQ PUSH2 0x343 JUMPI DUP1 PUSH4 0x23B872DD EQ PUSH2 0x36E JUMPI DUP1 PUSH4 0x27889862 EQ PUSH2 0x3AB JUMPI PUSH2 0x1D8 JUMP JUMPDEST DUP1 PUSH4 0x6FDDE03 GT PUSH2 0x1AB JUMPI DUP1 PUSH4 0x6FDDE03 EQ PUSH2 0x25E JUMPI DUP1 PUSH4 0x95EA7B3 EQ PUSH2 0x289 JUMPI DUP1 PUSH4 0xFABA554 EQ PUSH2 0x2C6 JUMPI DUP1 PUSH4 0x111A60B0 EQ PUSH2 0x2EF JUMPI PUSH2 0x1D8 JUMP JUMPDEST DUP1 PUSH4 0x3FD2A45 EQ PUSH2 0x1DD JUMPI DUP1 PUSH4 0x445B667 EQ PUSH2 0x208 JUMPI DUP1 PUSH4 0x64A59D0 EQ PUSH2 0x233 JUMPI PUSH2 0x1D8 JUMP JUMPDEST CALLDATASIZE PUSH2 0x1D8 JUMPI STOP JUMPDEST PUSH1 0x0 DUP1 REVERT JUMPDEST CALLVALUE DUP1 ISZERO PUSH2 0x1E9 JUMPI PUSH1 0x0 DUP1 REVERT JUMPDEST POP PUSH2 0x1F2 PUSH2 0x71F JUMP JUMPDEST PUSH1 0x40 MLOAD PUSH2 0x1FF SWAP2 SWAP1 PUSH2 0x2497 JUMP JUMPDEST PUSH1 0x40 MLOAD DUP1 SWAP2 SUB SWAP1 RETURN JUMPDEST CALLVALUE DUP1 ISZERO PUSH2 0x214 JUMPI PUSH1 0x0 DUP1 REVERT JUMPDEST POP PUSH2 0x21D PUSH2 0x725 JUMP JUMPDEST PUSH1 0x40 MLOAD PUSH2 0x22A SWAP2 SWAP1 PUSH2 0x24CB JUMP JUMPDEST PUSH1 0x40 MLOAD DUP1 SWAP2 SUB SWAP1 RETURN JUMPDEST CALLVALUE DUP1 ISZERO PUSH2 0x23F JUMPI PUSH1 0x0 DUP1 REVERT JUMPDEST POP PUSH2 0x248 PUSH2 0x740 JUMP JUMPDEST PUSH1 0x40 MLOAD PUSH2 0x255 SWAP2 SWAP1 PUSH2 0x2501 JUMP JUMPDEST PUSH1 0x40 MLOAD DUP1 SWAP2 SUB SWAP1 RETURN JUMPDEST CALLVALUE DUP1 ISZERO PUSH2 0x26A JUMPI PUSH1 0x0 DUP1 REVERT JUMPDEST POP PUSH2 0x273 PUSH2 0x753 JUMP JUMPDEST PUSH1 0x40 MLOAD PUSH2 0x280 SWAP2 SWAP1 PUSH2 0x25AC JUMP JUMPDEST PUSH1 0x40 MLOAD DUP1 SWAP2 SUB SWAP1 RETURN JUMPDEST CALLVALUE DUP1 ISZERO PUSH2 0x295 JUMPI PUSH1 0x0 DUP1 REVERT JUMPDEST POP PUSH2 0x2B0 PUSH1 0x4 DUP1 CALLDATASIZE SUB DUP2 ADD SWAP1 PUSH2 0x2AB SWAP2 SWAP1 PUSH2 0x262B JUMP JUMPDEST PUSH2 0x790 JUMP JUMPDEST PUSH1 0x40 MLOAD PUSH2 0x2BD SWAP2 SWAP1 PUSH2 0x2501 JUMP JUMPDEST PUSH1 0x40 MLOAD DUP1 SWAP2 SUB SWAP1 RETURN JUMPDEST CALLVALUE DUP1 ISZERO PUSH2 0x2D2 JUMPI PUSH1 0x0 DUP1 REVERT JUMPDEST POP PUSH2 0x2ED PUSH1 0x4 DUP1 CALLDATASIZE SUB DUP2 ADD SWAP1 PUSH2 0x2E8 SWAP2 SWAP1 PUSH2 0x2697 JUMP JUMPDEST PUSH2 0x7A7 JUMP JUMPDEST STOP JUMPDEST CALLVALUE DUP1 ISZERO PUSH2 0x2FB JUMPI PUSH1 0x0 DUP1 REVERT JUMPDEST POP PUSH2 0x316 PUSH1 0x4 DUP1 CALLDATASIZE SUB DUP2 ADD SWAP1 PUSH2 0x311 SWAP2 SWAP1 PUSH2 0x26D7 JUMP JUMPDEST PUSH2 0x87E JUMP JUMPDEST STOP JUMPDEST CALLVALUE DUP1 ISZERO PUSH2 0x324 JUMPI PUSH1 0x0 DUP1 REVERT JUMPDEST POP PUSH2 0x32D PUSH2 0x9A3 JUMP JUMPDEST PUSH1 0x40 MLOAD PUSH2 0x33A SWAP2 SWAP1 PUSH2 0x24CB JUMP JUMPDEST PUSH1 0x40 MLOAD DUP1 SWAP2 SUB SWAP1 RETURN JUMPDEST CALLVALUE DUP1 ISZERO PUSH2 0x34F JUMPI PUSH1 0x0 DUP1 REVERT JUMPDEST POP PUSH2 0x358 PUSH2 0x9CB JUMP JUMPDEST PUSH1 0x40 MLOAD PUSH2 0x365 SWAP2 SWAP1 PUSH2 0x24CB JUMP JUMPDEST PUSH1 0x40 MLOAD DUP1 SWAP2 SUB SWAP1 RETURN JUMPDEST CALLVALUE DUP1 ISZERO PUSH2 0x37A JUMPI PUSH1 0x0 DUP1 REVERT JUMPDEST POP PUSH2 0x395 PUSH1 0x4 DUP1 CALLDATASIZE SUB DUP2 ADD SWAP1 PUSH2 0x390 SWAP2 SWAP1 PUSH2 0x2704 JUMP JUMPDEST PUSH2 0x9D0 JUMP JUMPDEST PUSH1 0x40 MLOAD PUSH2 0x3A2 SWAP2 SWAP1 PUSH2 0x2501 JUMP JUMPDEST PUSH1 0x40 MLOAD DUP1 SWAP2 SUB SWAP1 RETURN JUMPDEST CALLVALUE DUP1 ISZERO PUSH2 0x3B7 JUMPI PUSH1 0x0 DUP1 REVERT JUMPDEST POP PUSH2 0x3D2 PUSH1 0x4 DUP1 CALLDATASIZE SUB DUP2 ADD SWAP1 PUSH2 0x3CD SWAP2 SWAP1 PUSH2 0x2757 JUMP JUMPDEST PUSH2 0xB1D JUMP JUMPDEST PUSH1 0x40 MLOAD PUSH2 0x3DF SWAP2 SWAP1 PUSH2 0x2501 JUMP JUMPDEST PUSH1 0x40 MLOAD DUP1 SWAP2 SUB SWAP1 RETURN JUMPDEST CALLVALUE DUP1 ISZERO PUSH2 0x3F4 JUMPI PUSH1 0x0 DUP1 REVERT JUMPDEST POP PUSH2 0x3FD PUSH2 0xB73 JUMP JUMPDEST PUSH1 0x40 MLOAD PUSH2 0x40A SWAP2 SWAP1 PUSH2 0x27A0 JUMP JUMPDEST PUSH1 0x40 MLOAD DUP1 SWAP2 SUB SWAP1 RETURN JUMPDEST CALLVALUE DUP1 ISZERO PUSH2 0x41F JUMPI PUSH1 0x0 DUP1 REVERT JUMPDEST POP PUSH2 0x43A PUSH1 0x4 DUP1 CALLDATASIZE SUB DUP2 ADD SWAP1 PUSH2 0x435 SWAP2 SWAP1 PUSH2 0x2697 JUMP JUMPDEST PUSH2 0xB92 JUMP JUMPDEST STOP JUMPDEST CALLVALUE DUP1 ISZERO PUSH2 0x448 JUMPI PUSH1 0x0 DUP1 REVERT JUMPDEST POP PUSH2 0x451 PUSH2 0xDE2 JUMP JUMPDEST PUSH1 0x40 MLOAD PUSH2 0x45E SWAP2 SWAP1 PUSH2 0x24CB JUMP JUMPDEST PUSH1 0x40 MLOAD DUP1 SWAP2 SUB SWAP1 RETURN JUMPDEST CALLVALUE DUP1 ISZERO PUSH2 0x473 JUMPI PUSH1 0x0 DUP1 REVERT JUMPDEST POP PUSH2 0x47C PUSH2 0xDF0 JUMP JUMPDEST PUSH1 0x40 MLOAD PUSH2 0x489 SWAP2 SWAP1 PUSH2 0x2497 JUMP JUMPDEST PUSH1 0x40 MLOAD DUP1 SWAP2 SUB SWAP1 RETURN JUMPDEST CALLVALUE DUP1 ISZERO PUSH2 0x49E JUMPI PUSH1 0x0 DUP1 REVERT JUMPDEST POP PUSH2 0x4A7 PUSH2 0xE16 JUMP JUMPDEST PUSH1 0x40 MLOAD PUSH2 0x4B4 SWAP2 SWAP1 PUSH2 0x24CB JUMP JUMPDEST PUSH1 0x40 MLOAD DUP1 SWAP2 SUB SWAP1 RETURN JUMPDEST CALLVALUE DUP1 ISZERO PUSH2 0x4C9 JUMPI PUSH1 0x0 DUP1 REVERT JUMPDEST POP PUSH2 0x4E4 PUSH1 0x4 DUP1 CALLDATASIZE SUB DUP2 ADD SWAP1 PUSH2 0x4DF SWAP2 SWAP1 PUSH2 0x2757 JUMP JUMPDEST PUSH2 0xE1B JUMP JUMPDEST PUSH1 0x40 MLOAD PUSH2 0x4F1 SWAP2 SWAP1 PUSH2 0x24CB JUMP JUMPDEST PUSH1 0x40 MLOAD DUP1 SWAP2 SUB SWAP1 RETURN JUMPDEST CALLVALUE DUP1 ISZERO PUSH2 0x506 JUMPI PUSH1 0x0 DUP1 REVERT JUMPDEST POP PUSH2 0x50F PUSH2 0xE64 JUMP JUMPDEST STOP JUMPDEST CALLVALUE DUP1 ISZERO PUSH2 0x51D JUMPI PUSH1 0x0 DUP1 REVERT JUMPDEST POP PUSH2 0x526 PUSH2 0xEEC JUMP JUMPDEST PUSH1 0x40 MLOAD PUSH2 0x533 SWAP2 SWAP1 PUSH2 0x2497 JUMP JUMPDEST PUSH1 0x40 MLOAD DUP1 SWAP2 SUB SWAP1 RETURN JUMPDEST CALLVALUE DUP1 ISZERO PUSH2 0x548 JUMPI PUSH1 0x0 DUP1 REVERT JUMPDEST POP PUSH2 0x551 PUSH2 0xEFB JUMP JUMPDEST STOP JUMPDEST CALLVALUE DUP1 ISZERO PUSH2 0x55F JUMPI PUSH1 0x0 DUP1 REVERT JUMPDEST POP PUSH2 0x568 PUSH2 0x1010 JUMP JUMPDEST PUSH1 0x40 MLOAD PUSH2 0x575 SWAP2 SWAP1 PUSH2 0x2497 JUMP JUMPDEST PUSH1 0x40 MLOAD DUP1 SWAP2 SUB SWAP1 RETURN JUMPDEST CALLVALUE DUP1 ISZERO PUSH2 0x58A JUMPI PUSH1 0x0 DUP1 REVERT JUMPDEST POP PUSH2 0x593 PUSH2 0x1039 JUMP JUMPDEST PUSH1 0x40 MLOAD PUSH2 0x5A0 SWAP2 SWAP1 PUSH2 0x25AC JUMP JUMPDEST PUSH1 0x40 MLOAD DUP1 SWAP2 SUB SWAP1 RETURN JUMPDEST CALLVALUE DUP1 ISZERO PUSH2 0x5B5 JUMPI PUSH1 0x0 DUP1 REVERT JUMPDEST POP PUSH2 0x5D0 PUSH1 0x4 DUP1 CALLDATASIZE SUB DUP2 ADD SWAP1 PUSH2 0x5CB SWAP2 SWAP1 PUSH2 0x262B JUMP JUMPDEST PUSH2 0x1076 JUMP JUMPDEST PUSH1 0x40 MLOAD PUSH2 0x5DD SWAP2 SWAP1 PUSH2 0x2501 JUMP JUMPDEST PUSH1 0x40 MLOAD DUP1 SWAP2 SUB SWAP1 RETURN JUMPDEST CALLVALUE DUP1 ISZERO PUSH2 0x5F2 JUMPI PUSH1 0x0 DUP1 REVERT JUMPDEST POP PUSH2 0x5FB PUSH2 0x108E JUMP JUMPDEST PUSH1 0x40 MLOAD PUSH2 0x608 SWAP2 SWAP1 PUSH2 0x281A JUMP JUMPDEST PUSH1 0x40 MLOAD DUP1 SWAP2 SUB SWAP1 RETURN JUMPDEST CALLVALUE DUP1 ISZERO PUSH2 0x61D JUMPI PUSH1 0x0 DUP1 REVERT JUMPDEST POP PUSH2 0x638 PUSH1 0x4 DUP1 CALLDATASIZE SUB DUP2 ADD SWAP1 PUSH2 0x633 SWAP2 SWAP1 PUSH2 0x2757 JUMP JUMPDEST PUSH2 0x10B4 JUMP JUMPDEST STOP JUMPDEST CALLVALUE DUP1 ISZERO PUSH2 0x646 JUMPI PUSH1 0x0 DUP1 REVERT JUMPDEST POP PUSH2 0x661 PUSH1 0x4 DUP1 CALLDATASIZE SUB DUP2 ADD SWAP1 PUSH2 0x65C SWAP2 SWAP1 PUSH2 0x2757 JUMP JUMPDEST PUSH2 0x11AB JUMP JUMPDEST STOP JUMPDEST CALLVALUE DUP1 ISZERO PUSH2 0x66F JUMPI PUSH1 0x0 DUP1 REVERT JUMPDEST POP PUSH2 0x678 PUSH2 0x12B9 JUMP JUMPDEST PUSH1 0x40 MLOAD PUSH2 0x685 SWAP2 SWAP1 PUSH2 0x24CB JUMP JUMPDEST PUSH1 0x40 MLOAD DUP1 SWAP2 SUB SWAP1 RETURN JUMPDEST CALLVALUE DUP1 ISZERO PUSH2 0x69A JUMPI PUSH1 0x0 DUP1 REVERT JUMPDEST POP PUSH2 0x6B5 PUSH1 0x4 DUP1 CALLDATASIZE SUB DUP2 ADD SWAP1 PUSH2 0x6B0 SWAP2 SWAP1 PUSH2 0x2835 JUMP JUMPDEST PUSH2 0x12BF JUMP JUMPDEST PUSH1 0x40 MLOAD PUSH2 0x6C2 SWAP2 SWAP1 PUSH2 0x24CB JUMP JUMPDEST PUSH1 0x40 MLOAD DUP1 SWAP2 SUB SWAP1 RETURN JUMPDEST CALLVALUE DUP1 ISZERO PUSH2 0x6D7 JUMPI PUSH1 0x0 DUP1 REVERT JUMPDEST POP PUSH2 0x6E0 PUSH2 0x1346 JUMP JUMPDEST PUSH1 0x40 MLOAD PUSH2 0x6ED SWAP2 SWAP1 PUSH2 0x24CB JUMP JUMPDEST PUSH1 0x40 MLOAD DUP1 SWAP2 SUB SWAP1 RETURN JUMPDEST CALLVALUE DUP1 ISZERO PUSH2 0x702 JUMPI PUSH1 0x0 DUP1 REVERT JUMPDEST POP PUSH2 0x71D PUSH1 0x4 DUP1 CALLDATASIZE SUB DUP2 ADD SWAP1 PUSH2 0x718 SWAP2 SWAP1 PUSH2 0x2757 JUMP JUMPDEST PUSH2 0x134B JUMP JUMPDEST STOP JUMPDEST PUSH2 0xDEAD DUP2 JUMP JUMPDEST PUSH2 0x1388 PUSH10 0x5915A68D88DA6A080000 PUSH2 0x73D SWAP2 SWAP1 PUSH2 0x28D3 JUMP JUMPDEST DUP2 JUMP JUMPDEST PUSH1 0x9 PUSH1 0x14 SWAP1 SLOAD SWAP1 PUSH2 0x100 EXP SWAP1 DIV PUSH1 0xFF AND DUP2 JUMP JUMPDEST PUSH1 0x60 PUSH1 0x40 MLOAD DUP1 PUSH1 0x40 ADD PUSH1 0x40 MSTORE DUP1 PUSH1 0x7 DUP2 MSTORE PUSH1 0x20 ADD PUSH32 0x50696720322E3000000000000000000000000000000000000000000000000000 DUP2 MSTORE POP SWAP1 POP SWAP1 JUMP JUMPDEST PUSH1 0x0 PUSH2 0x79D CALLER DUP5 DUP5 PUSH2 0x1442 JUMP JUMPDEST PUSH1 0x1 SWAP1 POP SWAP3 SWAP2 POP POP JUMP JUMPDEST PUSH2 0x7AF PUSH2 0x15A6 JUMP JUMPDEST PUSH20 0xFFFFFFFFFFFFFFFFFFFFFFFFFFFFFFFFFFFFFFFF AND PUSH2 0x7CD PUSH2 0x1010 JUMP JUMPDEST PUSH20 0xFFFFFFFFFFFFFFFFFFFFFFFFFFFFFFFFFFFFFFFF AND EQ PUSH2 0x823 JUMPI PUSH1 0x40 MLOAD PUSH32 0x8C379A000000000000000000000000000000000000000000000000000000000 DUP2 MSTORE PUSH1 0x4 ADD PUSH2 0x81A SWAP1 PUSH2 0x2950 JUMP JUMPDEST PUSH1 0x40 MLOAD DUP1 SWAP2 SUB SWAP1 REVERT JUMPDEST DUP1 PUSH1 0x2 PUSH1 0x0 DUP5 PUSH20 0xFFFFFFFFFFFFFFFFFFFFFFFFFFFFFFFFFFFFFFFF AND PUSH20 0xFFFFFFFFFFFFFFFFFFFFFFFFFFFFFFFFFFFFFFFF AND DUP2 MSTORE PUSH1 0x20 ADD SWAP1 DUP2 MSTORE PUSH1 0x20 ADD PUSH1 0x0 KECCAK256 PUSH1 0x0 PUSH2 0x100 EXP DUP2 SLOAD DUP2 PUSH1 0xFF MUL NOT AND SWAP1 DUP4 ISZERO ISZERO MUL OR SWAP1 SSTORE POP POP POP JUMP JUMPDEST PUSH2 0x886 PUSH2 0x15A6 JUMP JUMPDEST PUSH20 0xFFFFFFFFFFFFFFFFFFFFFFFFFFFFFFFFFFFFFFFF AND PUSH2 0x8A4 PUSH2 0x1010 JUMP JUMPDEST PUSH20 0xFFFFFFFFFFFFFFFFFFFFFFFFFFFFFFFFFFFFFFFF AND EQ PUSH2 0x8FA JUMPI PUSH1 0x40 MLOAD PUSH32 0x8C379A000000000000000000000000000000000000000000000000000000000 DUP2 MSTORE PUSH1 0x4 ADD PUSH2 0x8F1 SWAP1 PUSH2 0x2950 JUMP JUMPDEST PUSH1 0x40 MLOAD DUP1 SWAP2 SUB SWAP1 REVERT JUMPDEST DUP1 ISZERO ISZERO PUSH1 0x7 PUSH1 0x0 SWAP1 SLOAD SWAP1 PUSH2 0x100 EXP SWAP1 DIV PUSH1 0xFF AND ISZERO ISZERO SUB PUSH2 0x94F JUMPI PUSH1 0x40 MLOAD PUSH32 0x8C379A000000000000000000000000000000000000000000000000000000000 DUP2 MSTORE PUSH1 0x4 ADD PUSH2 0x946 SWAP1 PUSH2 0x29BC JUMP JUMPDEST PUSH1 0x40 MLOAD DUP1 SWAP2 SUB SWAP1 REVERT JUMPDEST DUP1 PUSH1 0x7 PUSH1 0x0 PUSH2 0x100 EXP DUP2 SLOAD DUP2 PUSH1 0xFF MUL NOT AND SWAP1 DUP4 ISZERO ISZERO MUL OR SWAP1 SSTORE POP PUSH32 0x4686EEA8D0EA8D72497B77F908906325D7BBAFD9F1D6753522573258958656E8 DUP2 PUSH1 0x40 MLOAD PUSH2 0x998 SWAP2 SWAP1 PUSH2 0x2501 JUMP JUMPDEST PUSH1 0x40 MLOAD DUP1 SWAP2 SUB SWAP1 LOG1 POP JUMP JUMPDEST PUSH1 0x0 DUP1 PUSH10 0x5915A68D88DA6A080000 SUB PUSH2 0x9BB JUMPI PUSH1 0x0 DUP1 REVERT JUMPDEST PUSH10 0x5915A68D88DA6A080000 SWAP1 POP SWAP1 JUMP JUMPDEST PUSH1 0xA DUP2 JUMP JUMPDEST PUSH1 0x0 PUSH32 0xFFFFFFFFFFFFFFFFFFFFFFFFFFFFFFFFFFFFFFFFFFFFFFFFFFFFFFFFFFFFFFFF PUSH1 0x1 PUSH1 0x0 DUP7 PUSH20 0xFFFFFFFFFFFFFFFFFFFFFFFFFFFFFFFFFFFFFFFF AND PUSH20 0xFFFFFFFFFFFFFFFFFFFFFFFFFFFFFFFFFFFFFFFF AND DUP2 MSTORE PUSH1 0x20 ADD SWAP1 DUP2 MSTORE PUSH1 0x20 ADD PUSH1 0x0 KECCAK256 PUSH1 0x0 CALLER PUSH20 0xFFFFFFFFFFFFFFFFFFFFFFFFFFFFFFFFFFFFFFFF AND PUSH20 0xFFFFFFFFFFFFFFFFFFFFFFFFFFFFFFFFFFFFFFFF AND DUP2 MSTORE PUSH1 0x20 ADD SWAP1 DUP2 MSTORE PUSH1 0x20 ADD PUSH1 0x0 KECCAK256 SLOAD EQ PUSH2 0xB09 JUMPI DUP2 PUSH1 0x1 PUSH1 0x0 DUP7 PUSH20 0xFFFFFFFFFFFFFFFFFFFFFFFFFFFFFFFFFFFFFFFF AND PUSH20 0xFFFFFFFFFFFFFFFFFFFFFFFFFFFFFFFFFFFFFFFF AND DUP2 MSTORE PUSH1 0x20 ADD SWAP1 DUP2 MSTORE PUSH1 0x20 ADD PUSH1 0x0 KECCAK256 PUSH1 0x0 CALLER PUSH20 0xFFFFFFFFFFFFFFFFFFFFFFFFFFFFFFFFFFFFFFFF AND PUSH20 0xFFFFFFFFFFFFFFFFFFFFFFFFFFFFFFFFFFFFFFFF AND DUP2 MSTORE PUSH1 0x20 ADD SWAP1 DUP2 MSTORE PUSH1 0x20 ADD PUSH1 0x0 KECCAK256 PUSH1 0x0 DUP3 DUP3 SLOAD PUSH2 0xB01 SWAP2 SWAP1 PUSH2 0x29DC JUMP JUMPDEST SWAP3 POP POP DUP2 SWAP1 SSTORE POP JUMPDEST PUSH2 0xB14 DUP5 DUP5 DUP5 PUSH2 0x15AE JUMP JUMPDEST SWAP1 POP SWAP4 SWAP3 POP POP POP JUMP JUMPDEST PUSH1 0x0 PUSH1 0x2 PUSH1 0x0 DUP4 PUSH20 0xFFFFFFFFFFFFFFFFFFFFFFFFFFFFFFFFFFFFFFFF AND PUSH20 0xFFFFFFFFFFFFFFFFFFFFFFFFFFFFFFFFFFFFFFFF AND DUP2 MSTORE PUSH1 0x20 ADD SWAP1 DUP2 MSTORE PUSH1 0x20 ADD PUSH1 0x0 KECCAK256 PUSH1 0x0 SWAP1 SLOAD SWAP1 PUSH2 0x100 EXP SWAP1 DIV PUSH1 0xFF AND SWAP1 POP SWAP2 SWAP1 POP JUMP JUMPDEST PUSH1 0x0 DUP1 PUSH10 0x5915A68D88DA6A080000 SUB PUSH2 0xB8B JUMPI PUSH1 0x0 DUP1 REVERT JUMPDEST PUSH1 0x9 SWAP1 POP SWAP1 JUMP JUMPDEST PUSH2 0xB9A PUSH2 0x15A6 JUMP JUMPDEST PUSH20 0xFFFFFFFFFFFFFFFFFFFFFFFFFFFFFFFFFFFFFFFF AND PUSH2 0xBB8 PUSH2 0x1010 JUMP JUMPDEST PUSH20 0xFFFFFFFFFFFFFFFFFFFFFFFFFFFFFFFFFFFFFFFF AND EQ PUSH2 0xC0E JUMPI PUSH1 0x40 MLOAD PUSH32 0x8C379A000000000000000000000000000000000000000000000000000000000 DUP2 MSTORE PUSH1 0x4 ADD PUSH2 0xC05 SWAP1 PUSH2 0x2950 JUMP JUMPDEST PUSH1 0x40 MLOAD DUP1 SWAP2 SUB SWAP1 REVERT JUMPDEST DUP1 ISZERO ISZERO PUSH1 0x5 PUSH1 0x0 DUP5 PUSH20 0xFFFFFFFFFFFFFFFFFFFFFFFFFFFFFFFFFFFFFFFF AND PUSH20 0xFFFFFFFFFFFFFFFFFFFFFFFFFFFFFFFFFFFFFFFF AND DUP2 MSTORE PUSH1 0x20 ADD SWAP1 DUP2 MSTORE PUSH1 0x20 ADD PUSH1 0x0 KECCAK256 PUSH1 0x0 SWAP1 SLOAD SWAP1 PUSH2 0x100 EXP SWAP1 DIV PUSH1 0xFF AND ISZERO ISZERO SUB PUSH2 0xCA0 JUMPI PUSH1 0x40 MLOAD PUSH32 0x8C379A000000000000000000000000000000000000000000000000000000000 DUP2 MSTORE PUSH1 0x4 ADD PUSH2 0xC97 SWAP1 PUSH2 0x2A5C JUMP JUMPDEST PUSH1 0x40 MLOAD DUP1 SWAP2 SUB SWAP1 REVERT JUMPDEST DUP1 PUSH1 0x5 PUSH1 0x0 DUP5 PUSH20 0xFFFFFFFFFFFFFFFFFFFFFFFFFFFFFFFFFFFFFFFF AND PUSH20 0xFFFFFFFFFFFFFFFFFFFFFFFFFFFFFFFFFFFFFFFF AND DUP2 MSTORE PUSH1 0x20 ADD SWAP1 DUP2 MSTORE PUSH1 0x20 ADD PUSH1 0x0 KECCAK256 PUSH1 0x0 PUSH2 0x100 EXP DUP2 SLOAD DUP2 PUSH1 0xFF MUL NOT AND SWAP1 DUP4 ISZERO ISZERO MUL OR SWAP1 SSTORE POP DUP1 PUSH1 0x2 PUSH1 0x0 DUP5 PUSH20 0xFFFFFFFFFFFFFFFFFFFFFFFFFFFFFFFFFFFFFFFF AND PUSH20 0xFFFFFFFFFFFFFFFFFFFFFFFFFFFFFFFFFFFFFFFF AND DUP2 MSTORE PUSH1 0x20 ADD SWAP1 DUP2 MSTORE PUSH1 0x20 ADD PUSH1 0x0 KECCAK256 PUSH1 0x0 PUSH2 0x100 EXP DUP2 SLOAD DUP2 PUSH1 0xFF MUL NOT AND SWAP1 DUP4 ISZERO ISZERO MUL OR SWAP1 SSTORE POP DUP1 PUSH1 0x3 PUSH1 0x0 DUP5 PUSH20 0xFFFFFFFFFFFFFFFFFFFFFFFFFFFFFFFFFFFFFFFF AND PUSH20 0xFFFFFFFFFFFFFFFFFFFFFFFFFFFFFFFFFFFFFFFF AND DUP2 MSTORE PUSH1 0x20 ADD SWAP1 DUP2 MSTORE PUSH1 0x20 ADD PUSH1 0x0 KECCAK256 PUSH1 0x0 PUSH2 0x100 EXP DUP2 SLOAD DUP2 PUSH1 0xFF MUL NOT AND SWAP1 DUP4 ISZERO ISZERO MUL OR SWAP1 SSTORE POP PUSH32 0x7F7F90CB020C1DEB8939C26CF0790751E539157B1FD2039166FCD09A8B764513 DUP3 DUP3 PUSH1 0x40 MLOAD PUSH2 0xDD6 SWAP3 SWAP2 SWAP1 PUSH2 0x2A7C JUMP JUMPDEST PUSH1 0x40 MLOAD DUP1 SWAP2 SUB SWAP1 LOG1 POP POP JUMP JUMPDEST PUSH10 0x5915A68D88DA6A080000 DUP2 JUMP JUMPDEST PUSH1 0x9 PUSH1 0x0 SWAP1 SLOAD SWAP1 PUSH2 0x100 EXP SWAP1 DIV PUSH20 0xFFFFFFFFFFFFFFFFFFFFFFFFFFFFFFFFFFFFFFFF AND DUP2 JUMP JUMPDEST PUSH1 0x0 DUP2 JUMP JUMPDEST PUSH1 0x0 PUSH1 0x6 PUSH1 0x0 DUP4 PUSH20 0xFFFFFFFFFFFFFFFFFFFFFFFFFFFFFFFFFFFFFFFF AND PUSH20 0xFFFFFFFFFFFFFFFFFFFFFFFFFFFFFFFFFFFFFFFF AND DUP2 MSTORE PUSH1 0x20 ADD SWAP1 DUP2 MSTORE PUSH1 0x20 ADD PUSH1 0x0 KECCAK256 SLOAD SWAP1 POP SWAP2 SWAP1 POP JUMP JUMPDEST PUSH2 0xE6C PUSH2 0x15A6 JUMP JUMPDEST PUSH20 0xFFFFFFFFFFFFFFFFFFFFFFFFFFFFFFFFFFFFFFFF AND PUSH2 0xE8A PUSH2 0x1010 JUMP JUMPDEST PUSH20 0xFFFFFFFFFFFFFFFFFFFFFFFFFFFFFFFFFFFFFFFF AND EQ PUSH2 0xEE0 JUMPI PUSH1 0x40 MLOAD PUSH32 0x8C379A000000000000000000000000000000000000000000000000000000000 DUP2 MSTORE PUSH1 0x4 ADD PUSH2 0xED7 SWAP1 PUSH2 0x2950 JUMP JUMPDEST PUSH1 0x40 MLOAD DUP1 SWAP2 SUB SWAP1 REVERT JUMPDEST PUSH2 0xEEA PUSH1 0x0 PUSH2 0x199D JUMP JUMPDEST JUMP JUMPDEST PUSH1 0x0 PUSH2 0xEF6 PUSH2 0x1010 JUMP JUMPDEST SWAP1 POP SWAP1 JUMP JUMPDEST PUSH2 0xF03 PUSH2 0x15A6 JUMP JUMPDEST PUSH20 0xFFFFFFFFFFFFFFFFFFFFFFFFFFFFFFFFFFFFFFFF AND PUSH2 0xF21 PUSH2 0x1010 JUMP JUMPDEST PUSH20 0xFFFFFFFFFFFFFFFFFFFFFFFFFFFFFFFFFFFFFFFF AND EQ PUSH2 0xF77 JUMPI PUSH1 0x40 MLOAD PUSH32 0x8C379A000000000000000000000000000000000000000000000000000000000 DUP2 MSTORE PUSH1 0x4 ADD PUSH2 0xF6E SWAP1 PUSH2 0x2950 JUMP JUMPDEST PUSH1 0x40 MLOAD DUP1 SWAP2 SUB SWAP1 REVERT JUMPDEST PUSH1 0x9 PUSH1 0x14 SWAP1 SLOAD SWAP1 PUSH2 0x100 EXP SWAP1 DIV PUSH1 0xFF AND ISZERO PUSH2 0xFC7 JUMPI PUSH1 0x40 MLOAD PUSH32 0x8C379A000000000000000000000000000000000000000000000000000000000 DUP2 MSTORE PUSH1 0x4 ADD PUSH2 0xFBE SWAP1 PUSH2 0x2AF1 JUMP JUMPDEST PUSH1 0x40 MLOAD DUP1 SWAP2 SUB SWAP1 REVERT JUMPDEST PUSH1 0x1 PUSH1 0x9 PUSH1 0x14 PUSH2 0x100 EXP DUP2 SLOAD DUP2 PUSH1 0xFF MUL NOT AND SWAP1 DUP4 ISZERO ISZERO MUL OR SWAP1 SSTORE POP PUSH32 0xA0AC5E19CA3A09AF9A3A13C5C51F911C89EEFD4B9EB548F4766B991B14AD6868 PUSH1 0x40 MLOAD PUSH1 0x40 MLOAD DUP1 SWAP2 SUB SWAP1 LOG1 JUMP JUMPDEST PUSH1 0x0 DUP1 PUSH1 0x0 SWAP1 SLOAD SWAP1 PUSH2 0x100 EXP SWAP1 DIV PUSH20 0xFFFFFFFFFFFFFFFFFFFFFFFFFFFFFFFFFFFFFFFF AND SWAP1 POP SWAP1 JUMP JUMPDEST PUSH1 0x60 PUSH1 0x40 MLOAD DUP1 PUSH1 0x40 ADD PUSH1 0x40 MSTORE DUP1 PUSH1 0x6 DUP2 MSTORE PUSH1 0x20 ADD PUSH32 0x504947322E300000000000000000000000000000000000000000000000000000 DUP2 MSTORE POP SWAP1 POP SWAP1 JUMP JUMPDEST PUSH1 0x0 PUSH2 0x1083 CALLER DUP5 DUP5 PUSH2 0x15AE JUMP JUMPDEST POP PUSH1 0x1 SWAP1 POP SWAP3 SWAP2 POP POP JUMP JUMPDEST PUSH1 0x8 PUSH1 0x0 SWAP1 SLOAD SWAP1 PUSH2 0x100 EXP SWAP1 DIV PUSH20 0xFFFFFFFFFFFFFFFFFFFFFFFFFFFFFFFFFFFFFFFF AND DUP2 JUMP JUMPDEST PUSH2 0x10BC PUSH2 0x15A6 JUMP JUMPDEST PUSH20 0xFFFFFFFFFFFFFFFFFFFFFFFFFFFFFFFFFFFFFFFF AND PUSH2 0x10DA PUSH2 0x1010 JUMP JUMPDEST PUSH20 0xFFFFFFFFFFFFFFFFFFFFFFFFFFFFFFFFFFFFFFFF AND EQ PUSH2 0x1130 JUMPI PUSH1 0x40 MLOAD PUSH32 0x8C379A000000000000000000000000000000000000000000000000000000000 DUP2 MSTORE PUSH1 0x4 ADD PUSH2 0x1127 SWAP1 PUSH2 0x2950 JUMP JUMPDEST PUSH1 0x40 MLOAD DUP1 SWAP2 SUB SWAP1 REVERT JUMPDEST DUP1 PUSH1 0x7 PUSH1 0x1 PUSH2 0x100 EXP DUP2 SLOAD DUP2 PUSH20 0xFFFFFFFFFFFFFFFFFFFFFFFFFFFFFFFFFFFFFFFF MUL NOT AND SWAP1 DUP4 PUSH20 0xFFFFFFFFFFFFFFFFFFFFFFFFFFFFFFFFFFFFFFFF AND MUL OR SWAP1 SSTORE POP PUSH32 0xB074145DAC98CBF04C5E3A6D58501E8E3AA6EB107008EC598AF2309AE5179DFE DUP2 PUSH1 0x40 MLOAD PUSH2 0x11A0 SWAP2 SWAP1 PUSH2 0x2497 JUMP JUMPDEST PUSH1 0x40 MLOAD DUP1 SWAP2 SUB SWAP1 LOG1 POP JUMP JUMPDEST PUSH2 0x11B3 PUSH2 0x15A6 JUMP JUMPDEST PUSH20 0xFFFFFFFFFFFFFFFFFFFFFFFFFFFFFFFFFFFFFFFF AND PUSH2 0x11D1 PUSH2 0x1010 JUMP JUMPDEST PUSH20 0xFFFFFFFFFFFFFFFFFFFFFFFFFFFFFFFFFFFFFFFF AND EQ PUSH2 0x1227 JUMPI PUSH1 0x40 MLOAD PUSH32 0x8C379A000000000000000000000000000000000000000000000000000000000 DUP2 MSTORE PUSH1 0x4 ADD PUSH2 0x121E SWAP1 PUSH2 0x2950 JUMP JUMPDEST PUSH1 0x40 MLOAD DUP1 SWAP2 SUB SWAP1 REVERT JUMPDEST PUSH1 0x1 PUSH1 0x4 PUSH1 0x0 DUP4 PUSH20 0xFFFFFFFFFFFFFFFFFFFFFFFFFFFFFFFFFFFFFFFF AND PUSH20 0xFFFFFFFFFFFFFFFFFFFFFFFFFFFFFFFFFFFFFFFF AND DUP2 MSTORE PUSH1 0x20 ADD SWAP1 DUP2 MSTORE PUSH1 0x20 ADD PUSH1 0x0 KECCAK256 PUSH1 0x0 PUSH2 0x100 EXP DUP2 SLOAD DUP2 PUSH1 0xFF MUL NOT AND SWAP1 DUP4 ISZERO ISZERO MUL OR SWAP1 SSTORE POP PUSH32 0x3B62011431502C791D443EE6149C9EC9B43632AEB5EB55C621104C128FE02F7 DUP2 PUSH1 0x40 MLOAD PUSH2 0x12AE SWAP2 SWAP1 PUSH2 0x2497 JUMP JUMPDEST PUSH1 0x40 MLOAD DUP1 SWAP2 SUB SWAP1 LOG1 POP JUMP JUMPDEST PUSH2 0x3E8 DUP2 JUMP JUMPDEST PUSH1 0x0 PUSH1 0x1 PUSH1 0x0 DUP5 PUSH20 0xFFFFFFFFFFFFFFFFFFFFFFFFFFFFFFFFFFFFFFFF AND PUSH20 0xFFFFFFFFFFFFFFFFFFFFFFFFFFFFFFFFFFFFFFFF AND DUP2 MSTORE PUSH1 0x20 ADD SWAP1 DUP2 MSTORE PUSH1 0x20 ADD PUSH1 0x0 KECCAK256 PUSH1 0x0 DUP4 PUSH20 0xFFFFFFFFFFFFFFFFFFFFFFFFFFFFFFFFFFFFFFFF AND PUSH20 0xFFFFFFFFFFFFFFFFFFFFFFFFFFFFFFFFFFFFFFFF AND DUP2 MSTORE PUSH1 0x20 ADD SWAP1 DUP2 MSTORE PUSH1 0x20 ADD PUSH1 0x0 KECCAK256 SLOAD SWAP1 POP SWAP3 SWAP2 POP POP JUMP JUMPDEST PUSH1 0xA DUP2 JUMP JUMPDEST PUSH2 0x1353 PUSH2 0x15A6 JUMP JUMPDEST PUSH20 0xFFFFFFFFFFFFFFFFFFFFFFFFFFFFFFFFFFFFFFFF AND PUSH2 0x1371 PUSH2 0x1010 JUMP JUMPDEST PUSH20 0xFFFFFFFFFFFFFFFFFFFFFFFFFFFFFFFFFFFFFFFF AND EQ PUSH2 0x13C7 JUMPI PUSH1 0x40 MLOAD PUSH32 0x8C379A000000000000000000000000000000000000000000000000000000000 DUP2 MSTORE PUSH1 0x4 ADD PUSH2 0x13BE SWAP1 PUSH2 0x2950 JUMP JUMPDEST PUSH1 0x40 MLOAD DUP1 SWAP2 SUB SWAP1 REVERT JUMPDEST PUSH1 0x0 PUSH20 0xFFFFFFFFFFFFFFFFFFFFFFFFFFFFFFFFFFFFFFFF AND DUP2 PUSH20 0xFFFFFFFFFFFFFFFFFFFFFFFFFFFFFFFFFFFFFFFF AND SUB PUSH2 0x1436 JUMPI PUSH1 0x40 MLOAD PUSH32 0x8C379A000000000000000000000000000000000000000000000000000000000 DUP2 MSTORE PUSH1 0x4 ADD PUSH2 0x142D SWAP1 PUSH2 0x2B83 JUMP JUMPDEST PUSH1 0x40 MLOAD DUP1 SWAP2 SUB SWAP1 REVERT JUMPDEST PUSH2 0x143F DUP2 PUSH2 0x199D JUMP JUMPDEST POP JUMP JUMPDEST PUSH1 0x0 PUSH20 0xFFFFFFFFFFFFFFFFFFFFFFFFFFFFFFFFFFFFFFFF AND DUP4 PUSH20 0xFFFFFFFFFFFFFFFFFFFFFFFFFFFFFFFFFFFFFFFF AND SUB PUSH2 0x14B1 JUMPI PUSH1 0x40 MLOAD PUSH32 0x8C379A000000000000000000000000000000000000000000000000000000000 DUP2 MSTORE PUSH1 0x4 ADD PUSH2 0x14A8 SWAP1 PUSH2 0x2BEF JUMP JUMPDEST PUSH1 0x40 MLOAD DUP1 SWAP2 SUB SWAP1 REVERT JUMPDEST PUSH1 0x0 PUSH20 0xFFFFFFFFFFFFFFFFFFFFFFFFFFFFFFFFFFFFFFFF AND DUP3 PUSH20 0xFFFFFFFFFFFFFFFFFFFFFFFFFFFFFFFFFFFFFFFF AND SUB PUSH2 0x1520 JUMPI PUSH1 0x40 MLOAD PUSH32 0x8C379A000000000000000000000000000000000000000000000000000000000 DUP2 MSTORE PUSH1 0x4 ADD PUSH2 0x1517 SWAP1 PUSH2 0x2BEF JUMP JUMPDEST PUSH1 0x40 MLOAD DUP1 SWAP2 SUB SWAP1 REVERT JUMPDEST DUP1 PUSH1 0x1 PUSH1 0x0 DUP6 PUSH20 0xFFFFFFFFFFFFFFFFFFFFFFFFFFFFFFFFFFFFFFFF AND PUSH20 0xFFFFFFFFFFFFFFFFFFFFFFFFFFFFFFFFFFFFFFFF AND DUP2 MSTORE PUSH1 0x20 ADD SWAP1 DUP2 MSTORE PUSH1 0x20 ADD PUSH1 0x0 KECCAK256 PUSH1 0x0 DUP5 PUSH20 0xFFFFFFFFFFFFFFFFFFFFFFFFFFFFFFFFFFFFFFFF AND PUSH20 0xFFFFFFFFFFFFFFFFFFFFFFFFFFFFFFFFFFFFFFFF AND DUP2 MSTORE PUSH1 0x20 ADD SWAP1 DUP2 MSTORE PUSH1 0x20 ADD PUSH1 0x0 KECCAK256 DUP2 SWAP1 SSTORE POP POP POP POP JUMP JUMPDEST PUSH1 0x0 CALLER SWAP1 POP SWAP1 JUMP JUMPDEST PUSH1 0x0 DUP1 PUSH1 0x1 SWAP1 POP PUSH1 0x0 PUSH20 0xFFFFFFFFFFFFFFFFFFFFFFFFFFFFFFFFFFFFFFFF AND DUP5 PUSH20 0xFFFFFFFFFFFFFFFFFFFFFFFFFFFFFFFFFFFFFFFF AND SUB PUSH2 0x1624 JUMPI PUSH1 0x40 MLOAD PUSH32 0x8C379A000000000000000000000000000000000000000000000000000000000 DUP2 MSTORE PUSH1 0x4 ADD PUSH2 0x161B SWAP1 PUSH2 0x2C81 JUMP JUMPDEST PUSH1 0x40 MLOAD DUP1 SWAP2 SUB SWAP1 REVERT JUMPDEST PUSH1 0x0 PUSH20 0xFFFFFFFFFFFFFFFFFFFFFFFFFFFFFFFFFFFFFFFF AND DUP6 PUSH20 0xFFFFFFFFFFFFFFFFFFFFFFFFFFFFFFFFFFFFFFFF AND SUB PUSH2 0x1693 JUMPI PUSH1 0x40 MLOAD PUSH32 0x8C379A000000000000000000000000000000000000000000000000000000000 DUP2 MSTORE PUSH1 0x4 ADD PUSH2 0x168A SWAP1 PUSH2 0x2D13 JUMP JUMPDEST PUSH1 0x40 MLOAD DUP1 SWAP2 SUB SWAP1 REVERT JUMPDEST PUSH1 0x0 DUP4 GT PUSH2 0x16D6 JUMPI PUSH1 0x40 MLOAD PUSH32 0x8C379A000000000000000000000000000000000000000000000000000000000 DUP2 MSTORE PUSH1 0x4 ADD PUSH2 0x16CD SWAP1 PUSH2 0x2DA5 JUMP JUMPDEST PUSH1 0x40 MLOAD DUP1 SWAP2 SUB SWAP1 REVERT JUMPDEST PUSH2 0x16E0 DUP6 DUP6 PUSH2 0x1A61 JUMP JUMPDEST ISZERO PUSH2 0x1735 JUMPI PUSH1 0x9 PUSH1 0x14 SWAP1 SLOAD SWAP1 PUSH2 0x100 EXP SWAP1 DIV PUSH1 0xFF AND PUSH2 0x1734 JUMPI PUSH1 0x40 MLOAD PUSH32 0x8C379A000000000000000000000000000000000000000000000000000000000 DUP2 MSTORE PUSH1 0x4 ADD PUSH2 0x172B SWAP1 PUSH2 0x2E11 JUMP JUMPDEST PUSH1 0x40 MLOAD DUP1 SWAP2 SUB SWAP1 REVERT JUMPDEST JUMPDEST PUSH2 0x173F DUP6 DUP6 PUSH2 0x1C7C JUMP JUMPDEST DUP1 ISZERO PUSH2 0x1758 JUMPI POP PUSH1 0x9 PUSH1 0x15 SWAP1 SLOAD SWAP1 PUSH2 0x100 EXP SWAP1 DIV PUSH1 0xFF AND ISZERO JUMPDEST DUP1 ISZERO PUSH2 0x176A JUMPI POP PUSH2 0x1769 DUP6 DUP6 PUSH2 0x1D2E JUMP JUMPDEST JUMPDEST ISZERO PUSH2 0x17A6 JUMPI PUSH1 0x0 PUSH2 0x177A ADDRESS PUSH2 0xE1B JUMP JUMPDEST SWAP1 POP PUSH2 0x1388 PUSH10 0x5915A68D88DA6A080000 PUSH2 0x1794 SWAP2 SWAP1 PUSH2 0x28D3 JUMP JUMPDEST DUP2 LT PUSH2 0x17A4 JUMPI PUSH2 0x17A3 DUP2 PUSH2 0x1DF9 JUMP JUMPDEST JUMPDEST POP JUMPDEST PUSH1 0x2 PUSH1 0x0 DUP7 PUSH20 0xFFFFFFFFFFFFFFFFFFFFFFFFFFFFFFFFFFFFFFFF AND PUSH20 0xFFFFFFFFFFFFFFFFFFFFFFFFFFFFFFFFFFFFFFFF AND DUP2 MSTORE PUSH1 0x20 ADD SWAP1 DUP2 MSTORE PUSH1 0x20 ADD PUSH1 0x0 KECCAK256 PUSH1 0x0 SWAP1 SLOAD SWAP1 PUSH2 0x100 EXP SWAP1 DIV PUSH1 0xFF AND DUP1 PUSH2 0x1847 JUMPI POP PUSH1 0x2 PUSH1 0x0 DUP6 PUSH20 0xFFFFFFFFFFFFFFFFFFFFFFFFFFFFFFFFFFFFFFFF AND PUSH20 0xFFFFFFFFFFFFFFFFFFFFFFFFFFFFFFFFFFFFFFFF AND DUP2 MSTORE PUSH1 0x20 ADD SWAP1 DUP2 MSTORE PUSH1 0x20 ADD PUSH1 0x0 KECCAK256 PUSH1 0x0 SWAP1 SLOAD SWAP1 PUSH2 0x100 EXP SWAP1 DIV PUSH1 0xFF AND JUMPDEST ISZERO PUSH2 0x1851 JUMPI PUSH1 0x0 SWAP1 POP JUMPDEST DUP3 PUSH1 0x6 PUSH1 0x0 DUP8 PUSH20 0xFFFFFFFFFFFFFFFFFFFFFFFFFFFFFFFFFFFFFFFF AND PUSH20 0xFFFFFFFFFFFFFFFFFFFFFFFFFFFFFFFFFFFFFFFF AND DUP2 MSTORE PUSH1 0x20 ADD SWAP1 DUP2 MSTORE PUSH1 0x20 ADD PUSH1 0x0 KECCAK256 PUSH1 0x0 DUP3 DUP3 SLOAD PUSH2 0x18A0 SWAP2 SWAP1 PUSH2 0x29DC JUMP JUMPDEST SWAP3 POP POP DUP2 SWAP1 SSTORE POP PUSH1 0x0 DUP2 PUSH2 0x18B4 JUMPI DUP4 PUSH2 0x18D3 JUMP JUMPDEST PUSH2 0x18D2 DUP7 PUSH2 0x18C2 DUP9 DUP9 PUSH2 0x2271 JUMP JUMPDEST PUSH2 0x18CC DUP10 DUP10 PUSH2 0x1C7C JUMP JUMPDEST DUP8 PUSH2 0x2323 JUMP JUMPDEST JUMPDEST SWAP1 POP DUP1 PUSH1 0x6 PUSH1 0x0 DUP8 PUSH20 0xFFFFFFFFFFFFFFFFFFFFFFFFFFFFFFFFFFFFFFFF AND PUSH20 0xFFFFFFFFFFFFFFFFFFFFFFFFFFFFFFFFFFFFFFFF AND DUP2 MSTORE PUSH1 0x20 ADD SWAP1 DUP2 MSTORE PUSH1 0x20 ADD PUSH1 0x0 KECCAK256 PUSH1 0x0 DUP3 DUP3 SLOAD PUSH2 0x1924 SWAP2 SWAP1 PUSH2 0x2E31 JUMP JUMPDEST SWAP3 POP POP DUP2 SWAP1 SSTORE POP DUP5 PUSH20 0xFFFFFFFFFFFFFFFFFFFFFFFFFFFFFFFFFFFFFFFF AND DUP7 PUSH20 0xFFFFFFFFFFFFFFFFFFFFFFFFFFFFFFFFFFFFFFFF AND PUSH32 0xDDF252AD1BE2C89B69C2B068FC378DAA952BA7F163C4A11628F55A4DF523B3EF DUP4 PUSH1 0x40 MLOAD PUSH2 0x1988 SWAP2 SWAP1 PUSH2 0x24CB JUMP JUMPDEST PUSH1 0x40 MLOAD DUP1 SWAP2 SUB SWAP1 LOG3 PUSH1 0x1 SWAP3 POP POP POP SWAP4 SWAP3 POP POP POP JUMP JUMPDEST PUSH1 0x0 DUP1 PUSH1 0x0 SWAP1 SLOAD SWAP1 PUSH2 0x100 EXP SWAP1 DIV PUSH20 0xFFFFFFFFFFFFFFFFFFFFFFFFFFFFFFFFFFFFFFFF AND SWAP1 POP DUP2 PUSH1 0x0 DUP1 PUSH2 0x100 EXP DUP2 SLOAD DUP2 PUSH20 0xFFFFFFFFFFFFFFFFFFFFFFFFFFFFFFFFFFFFFFFF MUL NOT AND SWAP1 DUP4 PUSH20 0xFFFFFFFFFFFFFFFFFFFFFFFFFFFFFFFFFFFFFFFF AND MUL OR SWAP1 SSTORE POP DUP2 PUSH20 0xFFFFFFFFFFFFFFFFFFFFFFFFFFFFFFFFFFFFFFFF AND DUP2 PUSH20 0xFFFFFFFFFFFFFFFFFFFFFFFFFFFFFFFFFFFFFFFF AND PUSH32 0x8BE0079C531659141344CD1FD0A4F28419497F9722A3DAAFE3B4186F6B6457E0 PUSH1 0x40 MLOAD PUSH1 0x40 MLOAD DUP1 SWAP2 SUB SWAP1 LOG3 POP POP JUMP JUMPDEST PUSH1 0x0 DUP1 PUSH2 0x1A6C PUSH2 0x1010 JUMP JUMPDEST PUSH20 0xFFFFFFFFFFFFFFFFFFFFFFFFFFFFFFFFFFFFFFFF AND DUP5 PUSH20 0xFFFFFFFFFFFFFFFFFFFFFFFFFFFFFFFFFFFFFFFF AND EQ ISZERO DUP1 ISZERO PUSH2 0x1ADA JUMPI POP PUSH2 0x1AAA PUSH2 0x1010 JUMP JUMPDEST PUSH20 0xFFFFFFFFFFFFFFFFFFFFFFFFFFFFFFFFFFFFFFFF AND DUP4 PUSH20 0xFFFFFFFFFFFFFFFFFFFFFFFFFFFFFFFFFFFFFFFF AND EQ ISZERO JUMPDEST DUP1 ISZERO PUSH2 0x1B19 JUMPI POP PUSH2 0x1AE9 PUSH2 0x1010 JUMP JUMPDEST PUSH20 0xFFFFFFFFFFFFFFFFFFFFFFFFFFFFFFFFFFFFFFFF AND CALLER PUSH20 0xFFFFFFFFFFFFFFFFFFFFFFFFFFFFFFFFFFFFFFFF AND EQ ISZERO JUMPDEST DUP1 ISZERO PUSH2 0x1B6F JUMPI POP PUSH1 0x3 PUSH1 0x0 DUP6 PUSH20 0xFFFFFFFFFFFFFFFFFFFFFFFFFFFFFFFFFFFFFFFF AND PUSH20 0xFFFFFFFFFFFFFFFFFFFFFFFFFFFFFFFFFFFFFFFF AND DUP2 MSTORE PUSH1 0x20 ADD SWAP1 DUP2 MSTORE PUSH1 0x20 ADD PUSH1 0x0 KECCAK256 PUSH1 0x0 SWAP1 SLOAD SWAP1 PUSH2 0x100 EXP SWAP1 DIV PUSH1 0xFF AND ISZERO JUMPDEST DUP1 ISZERO PUSH2 0x1BC5 JUMPI POP PUSH1 0x3 PUSH1 0x0 DUP5 PUSH20 0xFFFFFFFFFFFFFFFFFFFFFFFFFFFFFFFFFFFFFFFF AND PUSH20 0xFFFFFFFFFFFFFFFFFFFFFFFFFFFFFFFFFFFFFFFF AND DUP2 MSTORE PUSH1 0x20 ADD SWAP1 DUP2 MSTORE PUSH1 0x20 ADD PUSH1 0x0 KECCAK256 PUSH1 0x0 SWAP1 SLOAD SWAP1 PUSH2 0x100 EXP SWAP1 DIV PUSH1 0xFF AND ISZERO JUMPDEST DUP1 ISZERO PUSH2 0x1BFF JUMPI POP PUSH2 0xDEAD PUSH20 0xFFFFFFFFFFFFFFFFFFFFFFFFFFFFFFFFFFFFFFFF AND DUP4 PUSH20 0xFFFFFFFFFFFFFFFFFFFFFFFFFFFFFFFFFFFFFFFF AND EQ ISZERO JUMPDEST DUP1 ISZERO PUSH2 0x1C38 JUMPI POP PUSH1 0x0 PUSH20 0xFFFFFFFFFFFFFFFFFFFFFFFFFFFFFFFFFFFFFFFF AND DUP4 PUSH20 0xFFFFFFFFFFFFFFFFFFFFFFFFFFFFFFFFFFFFFFFF AND EQ ISZERO JUMPDEST DUP1 ISZERO PUSH2 0x1C70 JUMPI POP ADDRESS PUSH20 0xFFFFFFFFFFFFFFFFFFFFFFFFFFFFFFFFFFFFFFFF AND DUP4 PUSH20 0xFFFFFFFFFFFFFFFFFFFFFFFFFFFFFFFFFFFFFFFF AND EQ ISZERO JUMPDEST SWAP1 POP DUP1 SWAP2 POP POP SWAP3 SWAP2 POP POP JUMP JUMPDEST PUSH1 0x0 DUP1 PUSH1 0x4 PUSH1 0x0 DUP5 PUSH20 0xFFFFFFFFFFFFFFFFFFFFFFFFFFFFFFFFFFFFFFFF AND PUSH20 0xFFFFFFFFFFFFFFFFFFFFFFFFFFFFFFFFFFFFFFFF AND DUP2 MSTORE PUSH1 0x20 ADD SWAP1 DUP2 MSTORE PUSH1 0x20 ADD PUSH1 0x0 KECCAK256 PUSH1 0x0 SWAP1 SLOAD SWAP1 PUSH2 0x100 EXP SWAP1 DIV PUSH1 0xFF AND DUP1 ISZERO PUSH2 0x1D22 JUMPI POP PUSH1 0x4 PUSH1 0x0 DUP6 PUSH20 0xFFFFFFFFFFFFFFFFFFFFFFFFFFFFFFFFFFFFFFFF AND PUSH20 0xFFFFFFFFFFFFFFFFFFFFFFFFFFFFFFFFFFFFFFFF AND DUP2 MSTORE PUSH1 0x20 ADD SWAP1 DUP2 MSTORE PUSH1 0x20 ADD PUSH1 0x0 KECCAK256 PUSH1 0x0 SWAP1 SLOAD SWAP1 PUSH2 0x100 EXP SWAP1 DIV PUSH1 0xFF AND ISZERO JUMPDEST SWAP1 POP DUP1 SWAP2 POP POP SWAP3 SWAP2 POP POP JUMP JUMPDEST PUSH1 0x0 DUP1 PUSH1 0x7 PUSH1 0x0 SWAP1 SLOAD SWAP1 PUSH2 0x100 EXP SWAP1 DIV PUSH1 0xFF AND DUP1 ISZERO PUSH2 0x1D97 JUMPI POP PUSH1 0x5 PUSH1 0x0 DUP6 PUSH20 0xFFFFFFFFFFFFFFFFFFFFFFFFFFFFFFFFFFFFFFFF AND PUSH20 0xFFFFFFFFFFFFFFFFFFFFFFFFFFFFFFFFFFFFFFFF AND DUP2 MSTORE PUSH1 0x20 ADD SWAP1 DUP2 MSTORE PUSH1 0x20 ADD PUSH1 0x0 KECCAK256 PUSH1 0x0 SWAP1 SLOAD SWAP1 PUSH2 0x100 EXP SWAP1 DIV PUSH1 0xFF AND ISZERO JUMPDEST DUP1 ISZERO PUSH2 0x1DED JUMPI POP PUSH1 0x5 PUSH1 0x0 DUP5 PUSH20 0xFFFFFFFFFFFFFFFFFFFFFFFFFFFFFFFFFFFFFFFF AND PUSH20 0xFFFFFFFFFFFFFFFFFFFFFFFFFFFFFFFFFFFFFFFF AND DUP2 MSTORE PUSH1 0x20 ADD SWAP1 DUP2 MSTORE PUSH1 0x20 ADD PUSH1 0x0 KECCAK256 PUSH1 0x0 SWAP1 SLOAD SWAP1 PUSH2 0x100 EXP SWAP1 DIV PUSH1 0xFF AND ISZERO JUMPDEST SWAP1 POP DUP1 SWAP2 POP POP SWAP3 SWAP2 POP POP JUMP JUMPDEST PUSH1 0x1 PUSH1 0x9 PUSH1 0x15 PUSH2 0x100 EXP DUP2 SLOAD DUP2 PUSH1 0xFF MUL NOT AND SWAP1 DUP4 ISZERO ISZERO MUL OR SWAP1 SSTORE POP PUSH1 0x0 PUSH1 0x2 PUSH8 0xFFFFFFFFFFFFFFFF DUP2 GT ISZERO PUSH2 0x1E31 JUMPI PUSH2 0x1E30 PUSH2 0x2E65 JUMP JUMPDEST JUMPDEST PUSH1 0x40 MLOAD SWAP1 DUP1 DUP3 MSTORE DUP1 PUSH1 0x20 MUL PUSH1 0x20 ADD DUP3 ADD PUSH1 0x40 MSTORE DUP1 ISZERO PUSH2 0x1E5F JUMPI DUP2 PUSH1 0x20 ADD PUSH1 0x20 DUP3 MUL DUP1 CALLDATASIZE DUP4 CALLDATACOPY DUP1 DUP3 ADD SWAP2 POP POP SWAP1 POP JUMPDEST POP SWAP1 POP ADDRESS DUP2 PUSH1 0x0 DUP2 MLOAD DUP2 LT PUSH2 0x1E77 JUMPI PUSH2 0x1E76 PUSH2 0x2E94 JUMP JUMPDEST JUMPDEST PUSH1 0x20 MUL PUSH1 0x20 ADD ADD SWAP1 PUSH20 0xFFFFFFFFFFFFFFFFFFFFFFFFFFFFFFFFFFFFFFFF AND SWAP1 DUP2 PUSH20 0xFFFFFFFFFFFFFFFFFFFFFFFFFFFFFFFFFFFFFFFF AND DUP2 MSTORE POP POP PUSH1 0x8 PUSH1 0x0 SWAP1 SLOAD SWAP1 PUSH2 0x100 EXP SWAP1 DIV PUSH20 0xFFFFFFFFFFFFFFFFFFFFFFFFFFFFFFFFFFFFFFFF AND PUSH20 0xFFFFFFFFFFFFFFFFFFFFFFFFFFFFFFFFFFFFFFFF AND PUSH4 0xAD5C4648 PUSH1 0x40 MLOAD DUP2 PUSH4 0xFFFFFFFF AND PUSH1 0xE0 SHL DUP2 MSTORE PUSH1 0x4 ADD PUSH1 0x20 PUSH1 0x40 MLOAD DUP1 DUP4 SUB DUP2 DUP7 GAS STATICCALL ISZERO DUP1 ISZERO PUSH2 0x1F1E JUMPI RETURNDATASIZE PUSH1 0x0 DUP1 RETURNDATACOPY RETURNDATASIZE PUSH1 0x0 REVERT JUMPDEST POP POP POP POP PUSH1 0x40 MLOAD RETURNDATASIZE PUSH1 0x1F NOT PUSH1 0x1F DUP3 ADD AND DUP3 ADD DUP1 PUSH1 0x40 MSTORE POP DUP2 ADD SWAP1 PUSH2 0x1F42 SWAP2 SWAP1 PUSH2 0x2ED8 JUMP JUMPDEST DUP2 PUSH1 0x1 DUP2 MLOAD DUP2 LT PUSH2 0x1F56 JUMPI PUSH2 0x1F55 PUSH2 0x2E94 JUMP JUMPDEST JUMPDEST PUSH1 0x20 MUL PUSH1 0x20 ADD ADD SWAP1 PUSH20 0xFFFFFFFFFFFFFFFFFFFFFFFFFFFFFFFFFFFFFFFF AND SWAP1 DUP2 PUSH20 0xFFFFFFFFFFFFFFFFFFFFFFFFFFFFFFFFFFFFFFFF AND DUP2 MSTORE POP POP PUSH32 0xFFFFFFFFFFFFFFFFFFFFFFFFFFFFFFFFFFFFFFFFFFFFFFFFFFFFFFFFFFFFFFFF PUSH1 0x1 PUSH1 0x0 ADDRESS PUSH20 0xFFFFFFFFFFFFFFFFFFFFFFFFFFFFFFFFFFFFFFFF AND PUSH20 0xFFFFFFFFFFFFFFFFFFFFFFFFFFFFFFFFFFFFFFFF AND DUP2 MSTORE PUSH1 0x20 ADD SWAP1 DUP2 MSTORE PUSH1 0x20 ADD PUSH1 0x0 KECCAK256 PUSH1 0x0 PUSH1 0x8 PUSH1 0x0 SWAP1 SLOAD SWAP1 PUSH2 0x100 EXP SWAP1 DIV PUSH20 0xFFFFFFFFFFFFFFFFFFFFFFFFFFFFFFFFFFFFFFFF AND PUSH20 0xFFFFFFFFFFFFFFFFFFFFFFFFFFFFFFFFFFFFFFFF AND PUSH20 0xFFFFFFFFFFFFFFFFFFFFFFFFFFFFFFFFFFFFFFFF AND DUP2 MSTORE PUSH1 0x20 ADD SWAP1 DUP2 MSTORE PUSH1 0x20 ADD PUSH1 0x0 KECCAK256 SLOAD EQ PUSH2 0x2119 JUMPI PUSH32 0xFFFFFFFFFFFFFFFFFFFFFFFFFFFFFFFFFFFFFFFFFFFFFFFFFFFFFFFFFFFFFFFF PUSH1 0x1 PUSH1 0x0 ADDRESS PUSH20 0xFFFFFFFFFFFFFFFFFFFFFFFFFFFFFFFFFFFFFFFF AND PUSH20 0xFFFFFFFFFFFFFFFFFFFFFFFFFFFFFFFFFFFFFFFF AND DUP2 MSTORE PUSH1 0x20 ADD SWAP1 DUP2 MSTORE PUSH1 0x20 ADD PUSH1 0x0 KECCAK256 PUSH1 0x0 PUSH1 0x8 PUSH1 0x0 SWAP1 SLOAD SWAP1 PUSH2 0x100 EXP SWAP1 DIV PUSH20 0xFFFFFFFFFFFFFFFFFFFFFFFFFFFFFFFFFFFFFFFF AND PUSH20 0xFFFFFFFFFFFFFFFFFFFFFFFFFFFFFFFFFFFFFFFF AND PUSH20 0xFFFFFFFFFFFFFFFFFFFFFFFFFFFFFFFFFFFFFFFF AND DUP2 MSTORE PUSH1 0x20 ADD SWAP1 DUP2 MSTORE PUSH1 0x20 ADD PUSH1 0x0 KECCAK256 DUP2 SWAP1 SSTORE POP JUMPDEST PUSH1 0x8 PUSH1 0x0 SWAP1 SLOAD SWAP1 PUSH2 0x100 EXP SWAP1 DIV PUSH20 0xFFFFFFFFFFFFFFFFFFFFFFFFFFFFFFFFFFFFFFFF AND PUSH20 0xFFFFFFFFFFFFFFFFFFFFFFFFFFFFFFFFFFFFFFFF AND PUSH4 0x791AC947 DUP4 PUSH1 0x0 DUP5 ADDRESS TIMESTAMP PUSH1 0x40 MLOAD DUP7 PUSH4 0xFFFFFFFF AND PUSH1 0xE0 SHL DUP2 MSTORE PUSH1 0x4 ADD PUSH2 0x217D SWAP6 SWAP5 SWAP4 SWAP3 SWAP2 SWAP1 PUSH2 0x2FFE JUMP JUMPDEST PUSH1 0x0 PUSH1 0x40 MLOAD DUP1 DUP4 SUB DUP2 PUSH1 0x0 DUP8 DUP1 EXTCODESIZE ISZERO DUP1 ISZERO PUSH2 0x2197 JUMPI PUSH1 0x0 DUP1 REVERT JUMPDEST POP GAS CALL SWAP3 POP POP POP DUP1 ISZERO PUSH2 0x21A8 JUMPI POP PUSH1 0x1 JUMPDEST PUSH2 0x21B2 JUMPI POP PUSH2 0x2253 JUMP JUMPDEST PUSH1 0x0 DUP1 SELFBALANCE GT ISZERO PUSH2 0x2250 JUMPI PUSH1 0x7 PUSH1 0x1 SWAP1 SLOAD SWAP1 PUSH2 0x100 EXP SWAP1 DIV PUSH20 0xFFFFFFFFFFFFFFFFFFFFFFFFFFFFFFFFFFFFFFFF AND PUSH20 0xFFFFFFFFFFFFFFFFFFFFFFFFFFFFFFFFFFFFFFFF AND SELFBALANCE PUSH2 0x88B8 SWAP1 PUSH1 0x40 MLOAD PUSH2 0x2206 SWAP1 PUSH2 0x3089 JUMP JUMPDEST PUSH1 0x0 PUSH1 0x40 MLOAD DUP1 DUP4 SUB DUP2 DUP6 DUP9 DUP9 CALL SWAP4 POP POP POP POP RETURNDATASIZE DUP1 PUSH1 0x0 DUP2 EQ PUSH2 0x2244 JUMPI PUSH1 0x40 MLOAD SWAP2 POP PUSH1 0x1F NOT PUSH1 0x3F RETURNDATASIZE ADD AND DUP3 ADD PUSH1 0x40 MSTORE RETURNDATASIZE DUP3 MSTORE RETURNDATASIZE PUSH1 0x0 PUSH1 0x20 DUP5 ADD RETURNDATACOPY PUSH2 0x2249 JUMP JUMPDEST PUSH1 0x60 SWAP2 POP JUMPDEST POP POP DUP1 SWAP2 POP POP JUMPDEST POP POP JUMPDEST PUSH1 0x0 PUSH1 0x9 PUSH1 0x15 PUSH2 0x100 EXP DUP2 SLOAD DUP2 PUSH1 0xFF MUL NOT AND SWAP1 DUP4 ISZERO ISZERO MUL OR SWAP1 SSTORE POP POP JUMP JUMPDEST PUSH1 0x0 DUP1 PUSH1 0x4 PUSH1 0x0 DUP5 PUSH20 0xFFFFFFFFFFFFFFFFFFFFFFFFFFFFFFFFFFFFFFFF AND PUSH20 0xFFFFFFFFFFFFFFFFFFFFFFFFFFFFFFFFFFFFFFFF AND DUP2 MSTORE PUSH1 0x20 ADD SWAP1 DUP2 MSTORE PUSH1 0x20 ADD PUSH1 0x0 KECCAK256 PUSH1 0x0 SWAP1 SLOAD SWAP1 PUSH2 0x100 EXP SWAP1 DIV PUSH1 0xFF AND ISZERO DUP1 ISZERO PUSH2 0x2317 JUMPI POP PUSH1 0x4 PUSH1 0x0 DUP6 PUSH20 0xFFFFFFFFFFFFFFFFFFFFFFFFFFFFFFFFFFFFFFFF AND PUSH20 0xFFFFFFFFFFFFFFFFFFFFFFFFFFFFFFFFFFFFFFFF AND DUP2 MSTORE PUSH1 0x20 ADD SWAP1 DUP2 MSTORE PUSH1 0x20 ADD PUSH1 0x0 KECCAK256 PUSH1 0x0 SWAP1 SLOAD SWAP1 PUSH2 0x100 EXP SWAP1 DIV PUSH1 0xFF AND JUMPDEST SWAP1 POP DUP1 SWAP2 POP POP SWAP3 SWAP2 POP POP JUMP JUMPDEST PUSH1 0x0 DUP1 DUP5 ISZERO PUSH2 0x2335 JUMPI PUSH1 0xA SWAP1 POP PUSH2 0x234A JUMP JUMPDEST DUP4 ISZERO PUSH2 0x2344 JUMPI PUSH1 0xA SWAP1 POP PUSH2 0x2349 JUMP JUMPDEST PUSH1 0x0 SWAP1 POP JUMPDEST JUMPDEST PUSH1 0x0 DUP2 SUB PUSH2 0x235B JUMPI DUP3 SWAP2 POP POP PUSH2 0x244E JUMP JUMPDEST PUSH1 0x0 PUSH2 0x3E8 DUP3 DUP6 PUSH2 0x236C SWAP2 SWAP1 PUSH2 0x309E JUMP JUMPDEST PUSH2 0x2376 SWAP2 SWAP1 PUSH2 0x28D3 JUMP JUMPDEST SWAP1 POP PUSH1 0x0 DUP2 GT ISZERO PUSH2 0x243D JUMPI DUP1 PUSH1 0x6 PUSH1 0x0 ADDRESS PUSH20 0xFFFFFFFFFFFFFFFFFFFFFFFFFFFFFFFFFFFFFFFF AND PUSH20 0xFFFFFFFFFFFFFFFFFFFFFFFFFFFFFFFFFFFFFFFF AND DUP2 MSTORE PUSH1 0x20 ADD SWAP1 DUP2 MSTORE PUSH1 0x20 ADD PUSH1 0x0 KECCAK256 PUSH1 0x0 DUP3 DUP3 SLOAD PUSH2 0x23D0 SWAP2 SWAP1 PUSH2 0x2E31 JUMP JUMPDEST SWAP3 POP POP DUP2 SWAP1 SSTORE POP ADDRESS PUSH20 0xFFFFFFFFFFFFFFFFFFFFFFFFFFFFFFFFFFFFFFFF AND DUP8 PUSH20 0xFFFFFFFFFFFFFFFFFFFFFFFFFFFFFFFFFFFFFFFF AND PUSH32 0xDDF252AD1BE2C89B69C2B068FC378DAA952BA7F163C4A11628F55A4DF523B3EF DUP4 PUSH1 0x40 MLOAD PUSH2 0x2434 SWAP2 SWAP1 PUSH2 0x24CB JUMP JUMPDEST PUSH1 0x40 MLOAD DUP1 SWAP2 SUB SWAP1 LOG3 JUMPDEST DUP1 DUP5 PUSH2 0x2449 SWAP2 SWAP1 PUSH2 0x29DC JUMP JUMPDEST SWAP3 POP POP POP JUMPDEST SWAP5 SWAP4 POP POP POP POP JUMP JUMPDEST PUSH1 0x0 PUSH20 0xFFFFFFFFFFFFFFFFFFFFFFFFFFFFFFFFFFFFFFFF DUP3 AND SWAP1 POP SWAP2 SWAP1 POP JUMP JUMPDEST PUSH1 0x0 PUSH2 0x2481 DUP3 PUSH2 0x2456 JUMP JUMPDEST SWAP1 POP SWAP2 SWAP1 POP JUMP JUMPDEST PUSH2 0x2491 DUP2 PUSH2 0x2476 JUMP JUMPDEST DUP3 MSTORE POP POP JUMP JUMPDEST PUSH1 0x0 PUSH1 0x20 DUP3 ADD SWAP1 POP PUSH2 0x24AC PUSH1 0x0 DUP4 ADD DUP5 PUSH2 0x2488 JUMP JUMPDEST SWAP3 SWAP2 POP POP JUMP JUMPDEST PUSH1 0x0 DUP2 SWAP1 POP SWAP2 SWAP1 POP JUMP JUMPDEST PUSH2 0x24C5 DUP2 PUSH2 0x24B2 JUMP JUMPDEST DUP3 MSTORE POP POP JUMP JUMPDEST PUSH1 0x0 PUSH1 0x20 DUP3 ADD SWAP1 POP PUSH2 0x24E0 PUSH1 0x0 DUP4 ADD DUP5 PUSH2 0x24BC JUMP JUMPDEST SWAP3 SWAP2 POP POP JUMP JUMPDEST PUSH1 0x0 DUP2 ISZERO ISZERO SWAP1 POP SWAP2 SWAP1 POP JUMP JUMPDEST PUSH2 0x24FB DUP2 PUSH2 0x24E6 JUMP JUMPDEST DUP3 MSTORE POP POP JUMP JUMPDEST PUSH1 0x0 PUSH1 0x20 DUP3 ADD SWAP1 POP PUSH2 0x2516 PUSH1 0x0 DUP4 ADD DUP5 PUSH2 0x24F2 JUMP JUMPDEST SWAP3 SWAP2 POP POP JUMP JUMPDEST PUSH1 0x0 DUP2 MLOAD SWAP1 POP SWAP2 SWAP1 POP JUMP JUMPDEST PUSH1 0x0 DUP3 DUP3 MSTORE PUSH1 0x20 DUP3 ADD SWAP1 POP SWAP3 SWAP2 POP POP JUMP JUMPDEST PUSH1 0x0 JUMPDEST DUP4 DUP2 LT ISZERO PUSH2 0x2556 JUMPI DUP1 DUP3 ADD MLOAD DUP2 DUP5 ADD MSTORE PUSH1 0x20 DUP2 ADD SWAP1 POP PUSH2 0x253B JUMP JUMPDEST PUSH1 0x0 DUP5 DUP5 ADD MSTORE POP POP POP POP JUMP JUMPDEST PUSH1 0x0 PUSH1 0x1F NOT PUSH1 0x1F DUP4 ADD AND SWAP1 POP SWAP2 SWAP1 POP JUMP JUMPDEST PUSH1 0x0 PUSH2 0x257E DUP3 PUSH2 0x251C JUMP JUMPDEST PUSH2 0x2588 DUP2 DUP6 PUSH2 0x2527 JUMP JUMPDEST SWAP4 POP PUSH2 0x2598 DUP2 DUP6 PUSH1 0x20 DUP7 ADD PUSH2 0x2538 JUMP JUMPDEST PUSH2 0x25A1 DUP2 PUSH2 0x2562 JUMP JUMPDEST DUP5 ADD SWAP2 POP POP SWAP3 SWAP2 POP POP JUMP JUMPDEST PUSH1 0x0 PUSH1 0x20 DUP3 ADD SWAP1 POP DUP2 DUP2 SUB PUSH1 0x0 DUP4 ADD MSTORE PUSH2 0x25C6 DUP2 DUP5 PUSH2 0x2573 JUMP JUMPDEST SWAP1 POP SWAP3 SWAP2 POP POP JUMP JUMPDEST PUSH1 0x0 DUP1 REVERT JUMPDEST PUSH2 0x25DC DUP2 PUSH2 0x2476 JUMP JUMPDEST DUP2 EQ PUSH2 0x25E7 JUMPI PUSH1 0x0 DUP1 REVERT JUMPDEST POP JUMP JUMPDEST PUSH1 0x0 DUP2 CALLDATALOAD SWAP1 POP PUSH2 0x25F9 DUP2 PUSH2 0x25D3 JUMP JUMPDEST SWAP3 SWAP2 POP POP JUMP JUMPDEST PUSH2 0x2608 DUP2 PUSH2 0x24B2 JUMP JUMPDEST DUP2 EQ PUSH2 0x2613 JUMPI PUSH1 0x0 DUP1 REVERT JUMPDEST POP JUMP JUMPDEST PUSH1 0x0 DUP2 CALLDATALOAD SWAP1 POP PUSH2 0x2625 DUP2 PUSH2 0x25FF JUMP JUMPDEST SWAP3 SWAP2 POP POP JUMP JUMPDEST PUSH1 0x0 DUP1 PUSH1 0x40 DUP4 DUP6 SUB SLT ISZERO PUSH2 0x2642 JUMPI PUSH2 0x2641 PUSH2 0x25CE JUMP JUMPDEST JUMPDEST PUSH1 0x0 PUSH2 0x2650 DUP6 DUP3 DUP7 ADD PUSH2 0x25EA JUMP JUMPDEST SWAP3 POP POP PUSH1 0x20 PUSH2 0x2661 DUP6 DUP3 DUP7 ADD PUSH2 0x2616 JUMP JUMPDEST SWAP2 POP POP SWAP3 POP SWAP3 SWAP1 POP JUMP JUMPDEST PUSH2 0x2674 DUP2 PUSH2 0x24E6 JUMP JUMPDEST DUP2 EQ PUSH2 0x267F JUMPI PUSH1 0x0 DUP1 REVERT JUMPDEST POP JUMP JUMPDEST PUSH1 0x0 DUP2 CALLDATALOAD SWAP1 POP PUSH2 0x2691 DUP2 PUSH2 0x266B JUMP JUMPDEST SWAP3 SWAP2 POP POP JUMP JUMPDEST PUSH1 0x0 DUP1 PUSH1 0x40 DUP4 DUP6 SUB SLT ISZERO PUSH2 0x26AE JUMPI PUSH2 0x26AD PUSH2 0x25CE JUMP JUMPDEST JUMPDEST PUSH1 0x0 PUSH2 0x26BC DUP6 DUP3 DUP7 ADD PUSH2 0x25EA JUMP JUMPDEST SWAP3 POP POP PUSH1 0x20 PUSH2 0x26CD DUP6 DUP3 DUP7 ADD PUSH2 0x2682 JUMP JUMPDEST SWAP2 POP POP SWAP3 POP SWAP3 SWAP1 POP JUMP JUMPDEST PUSH1 0x0 PUSH1 0x20 DUP3 DUP5 SUB SLT ISZERO PUSH2 0x26ED JUMPI PUSH2 0x26EC PUSH2 0x25CE JUMP JUMPDEST JUMPDEST PUSH1 0x0 PUSH2 0x26FB DUP5 DUP3 DUP6 ADD PUSH2 0x2682 JUMP JUMPDEST SWAP2 POP POP SWAP3 SWAP2 POP POP JUMP JUMPDEST PUSH1 0x0 DUP1 PUSH1 0x0 PUSH1 0x60 DUP5 DUP7 SUB SLT ISZERO PUSH2 0x271D JUMPI PUSH2 0x271C PUSH2 0x25CE JUMP JUMPDEST JUMPDEST PUSH1 0x0 PUSH2 0x272B DUP7 DUP3 DUP8 ADD PUSH2 0x25EA JUMP JUMPDEST SWAP4 POP POP PUSH1 0x20 PUSH2 0x273C DUP7 DUP3 DUP8 ADD PUSH2 0x25EA JUMP JUMPDEST SWAP3 POP POP PUSH1 0x40 PUSH2 0x274D DUP7 DUP3 DUP8 ADD PUSH2 0x2616 JUMP JUMPDEST SWAP2 POP POP SWAP3 POP SWAP3 POP SWAP3 JUMP JUMPDEST PUSH1 0x0 PUSH1 0x20 DUP3 DUP5 SUB SLT ISZERO PUSH2 0x276D JUMPI PUSH2 0x276C PUSH2 0x25CE JUMP JUMPDEST JUMPDEST PUSH1 0x0 PUSH2 0x277B DUP5 DUP3 DUP6 ADD PUSH2 0x25EA JUMP JUMPDEST SWAP2 POP POP SWAP3 SWAP2 POP POP JUMP JUMPDEST PUSH1 0x0 PUSH1 0xFF DUP3 AND SWAP1 POP SWAP2 SWAP1 POP JUMP JUMPDEST PUSH2 0x279A DUP2 PUSH2 0x2784 JUMP JUMPDEST DUP3 MSTORE POP POP JUMP JUMPDEST PUSH1 0x0 PUSH1 0x20 DUP3 ADD SWAP1 POP PUSH2 0x27B5 PUSH1 0x0 DUP4 ADD DUP5 PUSH2 0x2791 JUMP JUMPDEST SWAP3 SWAP2 POP POP JUMP JUMPDEST PUSH1 0x0 DUP2 SWAP1 POP SWAP2 SWAP1 POP JUMP JUMPDEST PUSH1 0x0 PUSH2 0x27E0 PUSH2 0x27DB PUSH2 0x27D6 DUP5 PUSH2 0x2456 JUMP JUMPDEST PUSH2 0x27BB JUMP JUMPDEST PUSH2 0x2456 JUMP JUMPDEST SWAP1 POP SWAP2 SWAP1 POP JUMP JUMPDEST PUSH1 0x0 PUSH2 0x27F2 DUP3 PUSH2 0x27C5 JUMP JUMPDEST SWAP1 POP SWAP2 SWAP1 POP JUMP JUMPDEST PUSH1 0x0 PUSH2 0x2804 DUP3 PUSH2 0x27E7 JUMP JUMPDEST SWAP1 POP SWAP2 SWAP1 POP JUMP JUMPDEST PUSH2 0x2814 DUP2 PUSH2 0x27F9 JUMP JUMPDEST DUP3 MSTORE POP POP JUMP JUMPDEST PUSH1 0x0 PUSH1 0x20 DUP3 ADD SWAP1 POP PUSH2 0x282F PUSH1 0x0 DUP4 ADD DUP5 PUSH2 0x280B JUMP JUMPDEST SWAP3 SWAP2 POP POP JUMP JUMPDEST PUSH1 0x0 DUP1 PUSH1 0x40 DUP4 DUP6 SUB SLT ISZERO PUSH2 0x284C JUMPI PUSH2 0x284B PUSH2 0x25CE JUMP JUMPDEST JUMPDEST PUSH1 0x0 PUSH2 0x285A DUP6 DUP3 DUP7 ADD PUSH2 0x25EA JUMP JUMPDEST SWAP3 POP POP PUSH1 0x20 PUSH2 0x286B DUP6 DUP3 DUP7 ADD PUSH2 0x25EA JUMP JUMPDEST SWAP2 POP POP SWAP3 POP SWAP3 SWAP1 POP JUMP JUMPDEST PUSH32 0x4E487B7100000000000000000000000000000000000000000000000000000000 PUSH1 0x0 MSTORE PUSH1 0x12 PUSH1 0x4 MSTORE PUSH1 0x24 PUSH1 0x0 REVERT JUMPDEST PUSH32 0x4E487B7100000000000000000000000000000000000000000000000000000000 PUSH1 0x0 MSTORE PUSH1 0x11 PUSH1 0x4 MSTORE PUSH1 0x24 PUSH1 0x0 REVERT JUMPDEST PUSH1 0x0 PUSH2 0x28DE DUP3 PUSH2 0x24B2 JUMP JUMPDEST SWAP2 POP PUSH2 0x28E9 DUP4 PUSH2 0x24B2 JUMP JUMPDEST SWAP3 POP DUP3 PUSH2 0x28F9 JUMPI PUSH2 0x28F8 PUSH2 0x2875 JUMP JUMPDEST JUMPDEST DUP3 DUP3 DIV SWAP1 POP SWAP3 SWAP2 POP POP JUMP JUMPDEST PUSH32 0x4F776E61626C653A2063616C6C6572206973206E6F7420746865206F776E6572 PUSH1 0x0 DUP3 ADD MSTORE POP JUMP JUMPDEST PUSH1 0x0 PUSH2 0x293A PUSH1 0x20 DUP4 PUSH2 0x2527 JUMP JUMPDEST SWAP2 POP PUSH2 0x2945 DUP3 PUSH2 0x2904 JUMP JUMPDEST PUSH1 0x20 DUP3 ADD SWAP1 POP SWAP2 SWAP1 POP JUMP JUMPDEST PUSH1 0x0 PUSH1 0x20 DUP3 ADD SWAP1 POP DUP2 DUP2 SUB PUSH1 0x0 DUP4 ADD MSTORE PUSH2 0x2969 DUP2 PUSH2 0x292D JUMP JUMPDEST SWAP1 POP SWAP2 SWAP1 POP JUMP JUMPDEST PUSH32 0x426F6F6C206973207468652073616D6500000000000000000000000000000000 PUSH1 0x0 DUP3 ADD MSTORE POP JUMP JUMPDEST PUSH1 0x0 PUSH2 0x29A6 PUSH1 0x10 DUP4 PUSH2 0x2527 JUMP JUMPDEST SWAP2 POP PUSH2 0x29B1 DUP3 PUSH2 0x2970 JUMP JUMPDEST PUSH1 0x20 DUP3 ADD SWAP1 POP SWAP2 SWAP1 POP JUMP JUMPDEST PUSH1 0x0 PUSH1 0x20 DUP3 ADD SWAP1 POP DUP2 DUP2 SUB PUSH1 0x0 DUP4 ADD MSTORE PUSH2 0x29D5 DUP2 PUSH2 0x2999 JUMP JUMPDEST SWAP1 POP SWAP2 SWAP1 POP JUMP JUMPDEST PUSH1 0x0 PUSH2 0x29E7 DUP3 PUSH2 0x24B2 JUMP JUMPDEST SWAP2 POP PUSH2 0x29F2 DUP4 PUSH2 0x24B2 JUMP JUMPDEST SWAP3 POP DUP3 DUP3 SUB SWAP1 POP DUP2 DUP2 GT ISZERO PUSH2 0x2A0A JUMPI PUSH2 0x2A09 PUSH2 0x28A4 JUMP JUMPDEST JUMPDEST SWAP3 SWAP2 POP POP JUMP JUMPDEST PUSH32 0x53616D6520626F6F6C0000000000000000000000000000000000000000000000 PUSH1 0x0 DUP3 ADD MSTORE POP JUMP JUMPDEST PUSH1 0x0 PUSH2 0x2A46 PUSH1 0x9 DUP4 PUSH2 0x2527 JUMP JUMPDEST SWAP2 POP PUSH2 0x2A51 DUP3 PUSH2 0x2A10 JUMP JUMPDEST PUSH1 0x20 DUP3 ADD SWAP1 POP SWAP2 SWAP1 POP JUMP JUMPDEST PUSH1 0x0 PUSH1 0x20 DUP3 ADD SWAP1 POP DUP2 DUP2 SUB PUSH1 0x0 DUP4 ADD MSTORE PUSH2 0x2A75 DUP2 PUSH2 0x2A39 JUMP JUMPDEST SWAP1 POP SWAP2 SWAP1 POP JUMP JUMPDEST PUSH1 0x0 PUSH1 0x40 DUP3 ADD SWAP1 POP PUSH2 0x2A91 PUSH1 0x0 DUP4 ADD DUP6 PUSH2 0x2488 JUMP JUMPDEST PUSH2 0x2A9E PUSH1 0x20 DUP4 ADD DUP5 PUSH2 0x24F2 JUMP JUMPDEST SWAP4 SWAP3 POP POP POP JUMP JUMPDEST PUSH32 0x54726164696E6720616C726561647920656E61626C6564000000000000000000 PUSH1 0x0 DUP3 ADD MSTORE POP JUMP JUMPDEST PUSH1 0x0 PUSH2 0x2ADB PUSH1 0x17 DUP4 PUSH2 0x2527 JUMP JUMPDEST SWAP2 POP PUSH2 0x2AE6 DUP3 PUSH2 0x2AA5 JUMP JUMPDEST PUSH1 0x20 DUP3 ADD SWAP1 POP SWAP2 SWAP1 POP JUMP JUMPDEST PUSH1 0x0 PUSH1 0x20 DUP3 ADD SWAP1 POP DUP2 DUP2 SUB PUSH1 0x0 DUP4 ADD MSTORE PUSH2 0x2B0A DUP2 PUSH2 0x2ACE JUMP JUMPDEST SWAP1 POP SWAP2 SWAP1 POP JUMP JUMPDEST PUSH32 0x4F776E61626C653A206E6577206F776E657220697320746865207A65726F2061 PUSH1 0x0 DUP3 ADD MSTORE PUSH32 0x6464726573730000000000000000000000000000000000000000000000000000 PUSH1 0x20 DUP3 ADD MSTORE POP JUMP JUMPDEST PUSH1 0x0 PUSH2 0x2B6D PUSH1 0x26 DUP4 PUSH2 0x2527 JUMP JUMPDEST SWAP2 POP PUSH2 0x2B78 DUP3 PUSH2 0x2B11 JUMP JUMPDEST PUSH1 0x40 DUP3 ADD SWAP1 POP SWAP2 SWAP1 POP JUMP JUMPDEST PUSH1 0x0 PUSH1 0x20 DUP3 ADD SWAP1 POP DUP2 DUP2 SUB PUSH1 0x0 DUP4 ADD MSTORE PUSH2 0x2B9C DUP2 PUSH2 0x2B60 JUMP JUMPDEST SWAP1 POP SWAP2 SWAP1 POP JUMP JUMPDEST PUSH32 0x45524332303A205A65726F204164647265737300000000000000000000000000 PUSH1 0x0 DUP3 ADD MSTORE POP JUMP JUMPDEST PUSH1 0x0 PUSH2 0x2BD9 PUSH1 0x13 DUP4 PUSH2 0x2527 JUMP JUMPDEST SWAP2 POP PUSH2 0x2BE4 DUP3 PUSH2 0x2BA3 JUMP JUMPDEST PUSH1 0x20 DUP3 ADD SWAP1 POP SWAP2 SWAP1 POP JUMP JUMPDEST PUSH1 0x0 PUSH1 0x20 DUP3 ADD SWAP1 POP DUP2 DUP2 SUB PUSH1 0x0 DUP4 ADD MSTORE PUSH2 0x2C08 DUP2 PUSH2 0x2BCC JUMP JUMPDEST SWAP1 POP SWAP2 SWAP1 POP JUMP JUMPDEST PUSH32 0x45524332303A207472616E7366657220746F20746865207A65726F2061646472 PUSH1 0x0 DUP3 ADD MSTORE PUSH32 0x6573730000000000000000000000000000000000000000000000000000000000 PUSH1 0x20 DUP3 ADD MSTORE POP JUMP JUMPDEST PUSH1 0x0 PUSH2 0x2C6B PUSH1 0x23 DUP4 PUSH2 0x2527 JUMP JUMPDEST SWAP2 POP PUSH2 0x2C76 DUP3 PUSH2 0x2C0F JUMP JUMPDEST PUSH1 0x40 DUP3 ADD SWAP1 POP SWAP2 SWAP1 POP JUMP JUMPDEST PUSH1 0x0 PUSH1 0x20 DUP3 ADD SWAP1 POP DUP2 DUP2 SUB PUSH1 0x0 DUP4 ADD MSTORE PUSH2 0x2C9A DUP2 PUSH2 0x2C5E JUMP JUMPDEST SWAP1 POP SWAP2 SWAP1 POP JUMP JUMPDEST PUSH32 0x45524332303A207472616E736665722066726F6D20746865207A65726F206164 PUSH1 0x0 DUP3 ADD MSTORE PUSH32 0x6472657373000000000000000000000000000000000000000000000000000000 PUSH1 0x20 DUP3 ADD MSTORE POP JUMP JUMPDEST PUSH1 0x0 PUSH2 0x2CFD PUSH1 0x25 DUP4 PUSH2 0x2527 JUMP JUMPDEST SWAP2 POP PUSH2 0x2D08 DUP3 PUSH2 0x2CA1 JUMP JUMPDEST PUSH1 0x40 DUP3 ADD SWAP1 POP SWAP2 SWAP1 POP JUMP JUMPDEST PUSH1 0x0 PUSH1 0x20 DUP3 ADD SWAP1 POP DUP2 DUP2 SUB PUSH1 0x0 DUP4 ADD MSTORE PUSH2 0x2D2C DUP2 PUSH2 0x2CF0 JUMP JUMPDEST SWAP1 POP SWAP2 SWAP1 POP JUMP JUMPDEST PUSH32 0x5472616E7366657220616D6F756E74206D757374206265206772656174657220 PUSH1 0x0 DUP3 ADD MSTORE PUSH32 0x7468616E207A65726F0000000000000000000000000000000000000000000000 PUSH1 0x20 DUP3 ADD MSTORE POP JUMP JUMPDEST PUSH1 0x0 PUSH2 0x2D8F PUSH1 0x29 DUP4 PUSH2 0x2527 JUMP JUMPDEST SWAP2 POP PUSH2 0x2D9A DUP3 PUSH2 0x2D33 JUMP JUMPDEST PUSH1 0x40 DUP3 ADD SWAP1 POP SWAP2 SWAP1 POP JUMP JUMPDEST PUSH1 0x0 PUSH1 0x20 DUP3 ADD SWAP1 POP DUP2 DUP2 SUB PUSH1 0x0 DUP4 ADD MSTORE PUSH2 0x2DBE DUP2 PUSH2 0x2D82 JUMP JUMPDEST SWAP1 POP SWAP2 SWAP1 POP JUMP JUMPDEST PUSH32 0x54726164696E67206973206E6F7420656E61626C656400000000000000000000 PUSH1 0x0 DUP3 ADD MSTORE POP JUMP JUMPDEST PUSH1 0x0 PUSH2 0x2DFB PUSH1 0x16 DUP4 PUSH2 0x2527 JUMP JUMPDEST SWAP2 POP PUSH2 0x2E06 DUP3 PUSH2 0x2DC5 JUMP JUMPDEST PUSH1 0x20 DUP3 ADD SWAP1 POP SWAP2 SWAP1 POP JUMP JUMPDEST PUSH1 0x0 PUSH1 0x20 DUP3 ADD SWAP1 POP DUP2 DUP2 SUB PUSH1 0x0 DUP4 ADD MSTORE PUSH2 0x2E2A DUP2 PUSH2 0x2DEE JUMP JUMPDEST SWAP1 POP SWAP2 SWAP1 POP JUMP JUMPDEST PUSH1 0x0 PUSH2 0x2E3C DUP3 PUSH2 0x24B2 JUMP JUMPDEST SWAP2 POP PUSH2 0x2E47 DUP4 PUSH2 0x24B2 JUMP JUMPDEST SWAP3 POP DUP3 DUP3 ADD SWAP1 POP DUP1 DUP3 GT ISZERO PUSH2 0x2E5F JUMPI PUSH2 0x2E5E PUSH2 0x28A4 JUMP JUMPDEST JUMPDEST SWAP3 SWAP2 POP POP JUMP JUMPDEST PUSH32 0x4E487B7100000000000000000000000000000000000000000000000000000000 PUSH1 0x0 MSTORE PUSH1 0x41 PUSH1 0x4 MSTORE PUSH1 0x24 PUSH1 0x0 REVERT JUMPDEST PUSH32 0x4E487B7100000000000000000000000000000000000000000000000000000000 PUSH1 0x0 MSTORE PUSH1 0x32 PUSH1 0x4 MSTORE PUSH1 0x24 PUSH1 0x0 REVERT JUMPDEST PUSH1 0x0 DUP2 MLOAD SWAP1 POP PUSH2 0x2ED2 DUP2 PUSH2 0x25D3 JUMP JUMPDEST SWAP3 SWAP2 POP POP JUMP JUMPDEST PUSH1 0x0 PUSH1 0x20 DUP3 DUP5 SUB SLT ISZERO PUSH2 0x2EEE JUMPI PUSH2 0x2EED PUSH2 0x25CE JUMP JUMPDEST JUMPDEST PUSH1 0x0 PUSH2 0x2EFC DUP5 DUP3 DUP6 ADD PUSH2 0x2EC3 JUMP JUMPDEST SWAP2 POP POP SWAP3 SWAP2 POP POP JUMP JUMPDEST PUSH1 0x0 DUP2 SWAP1 POP SWAP2 SWAP1 POP JUMP JUMPDEST PUSH1 0x0 PUSH2 0x2F2A PUSH2 0x2F25 PUSH2 0x2F20 DUP5 PUSH2 0x2F05 JUMP JUMPDEST PUSH2 0x27BB JUMP JUMPDEST PUSH2 0x24B2 JUMP JUMPDEST SWAP1 POP SWAP2 SWAP1 POP JUMP JUMPDEST PUSH2 0x2F3A DUP2 PUSH2 0x2F0F JUMP JUMPDEST DUP3 MSTORE POP POP JUMP JUMPDEST PUSH1 0x0 DUP2 MLOAD SWAP1 POP SWAP2 SWAP1 POP JUMP JUMPDEST PUSH1 0x0 DUP3 DUP3 MSTORE PUSH1 0x20 DUP3 ADD SWAP1 POP SWAP3 SWAP2 POP POP JUMP JUMPDEST PUSH1 0x0 DUP2 SWAP1 POP PUSH1 0x20 DUP3 ADD SWAP1 POP SWAP2 SWAP1 POP JUMP JUMPDEST PUSH2 0x2F75 DUP2 PUSH2 0x2476 JUMP JUMPDEST DUP3 MSTORE POP POP JUMP JUMPDEST PUSH1 0x0 PUSH2 0x2F87 DUP4 DUP4 PUSH2 0x2F6C JUMP JUMPDEST PUSH1 0x20 DUP4 ADD SWAP1 POP SWAP3 SWAP2 POP POP JUMP JUMPDEST PUSH1 0x0 PUSH1 0x20 DUP3 ADD SWAP1 POP SWAP2 SWAP1 POP JUMP JUMPDEST PUSH1 0x0 PUSH2 0x2FAB DUP3 PUSH2 0x2F40 JUMP JUMPDEST PUSH2 0x2FB5 DUP2 DUP6 PUSH2 0x2F4B JUMP JUMPDEST SWAP4 POP PUSH2 0x2FC0 DUP4 PUSH2 0x2F5C JUMP JUMPDEST DUP1 PUSH1 0x0 JUMPDEST DUP4 DUP2 LT ISZERO PUSH2 0x2FF1 JUMPI DUP2 MLOAD PUSH2 0x2FD8 DUP9 DUP3 PUSH2 0x2F7B JUMP JUMPDEST SWAP8 POP PUSH2 0x2FE3 DUP4 PUSH2 0x2F93 JUMP JUMPDEST SWAP3 POP POP PUSH1 0x1 DUP2 ADD SWAP1 POP PUSH2 0x2FC4 JUMP JUMPDEST POP DUP6 SWAP4 POP POP POP POP SWAP3 SWAP2 POP POP JUMP JUMPDEST PUSH1 0x0 PUSH1 0xA0 DUP3 ADD SWAP1 POP PUSH2 0x3013 PUSH1 0x0 DUP4 ADD DUP9 PUSH2 0x24BC JUMP JUMPDEST PUSH2 0x3020 PUSH1 0x20 DUP4 ADD DUP8 PUSH2 0x2F31 JUMP JUMPDEST DUP2 DUP2 SUB PUSH1 0x40 DUP4 ADD MSTORE PUSH2 0x3032 DUP2 DUP7 PUSH2 0x2FA0 JUMP JUMPDEST SWAP1 POP PUSH2 0x3041 PUSH1 0x60 DUP4 ADD DUP6 PUSH2 0x2488 JUMP JUMPDEST PUSH2 0x304E PUSH1 0x80 DUP4 ADD DUP5 PUSH2 0x24BC JUMP JUMPDEST SWAP7 SWAP6 POP POP POP POP POP POP JUMP JUMPDEST PUSH1 0x0 DUP2 SWAP1 POP SWAP3 SWAP2 POP POP JUMP JUMPDEST POP JUMP JUMPDEST PUSH1 0x0 PUSH2 0x3073 PUSH1 0x0 DUP4 PUSH2 0x3058 JUMP JUMPDEST SWAP2 POP PUSH2 0x307E DUP3 PUSH2 0x3063 JUMP JUMPDEST PUSH1 0x0 DUP3 ADD SWAP1 POP SWAP2 SWAP1 POP JUMP JUMPDEST PUSH1 0x0 PUSH2 0x3094 DUP3 PUSH2 0x3066 JUMP JUMPDEST SWAP2 POP DUP2 SWAP1 POP SWAP2 SWAP1 POP JUMP JUMPDEST PUSH1 0x0 PUSH2 0x30A9 DUP3 PUSH2 0x24B2 JUMP JUMPDEST SWAP2 POP PUSH2 0x30B4 DUP4 PUSH2 0x24B2 JUMP JUMPDEST SWAP3 POP DUP3 DUP3 MUL PUSH2 0x30C2 DUP2 PUSH2 0x24B2 JUMP JUMPDEST SWAP2 POP DUP3 DUP3 DIV DUP5 EQ DUP4 ISZERO OR PUSH2 0x30D9 JUMPI PUSH2 0x30D8 PUSH2 0x28A4 JUMP JUMPDEST JUMPDEST POP SWAP3 SWAP2 POP POP JUMP INVALID LOG2 PUSH5 0x6970667358 0x22 SLT KECCAK256 PREVRANDAO PUSH19 0x8B2BBF6689D8B0D8B1EEBE01C643AAC8D46EA0 0xA5 MLOAD CALLER PUSH4 0x601B3ECB 0xAD 0x5F CODESIZE PUSH5 0x736F6C6343 STOP ADDMOD SGT STOP CALLER "
		},
		"gasEstimates": {
			"creation": {
				"codeDepositCost": "2513200",
				"executionCost": "infinite",
				"totalCost": "infinite"
			},
			"external": {
				"DEAD()": "425",
				"_totalSupply()": "418",
				"allowance(address,address)": "infinite",
				"approve(address,uint256)": "23300",
				"balanceOf(address)": "2909",
				"buyfee()": "397",
				"changeLpPair(address)": "infinite",
				"changeWallets(address)": "infinite",
				"decimals()": "411",
				"enableTrading()": "29751",
				"fee_denominator()": "373",
				"getOwner()": "2602",
				"isNoFeeWallet(address)": "2995",
				"isTradingEnabled()": "2612",
				"lpPair()": "2625",
				"name()": "infinite",
				"owner()": "2611",
				"renounceOwnership()": "30464",
				"sellfee()": "417",
				"setNoFeeWallet(address,bool)": "27321",
				"setPresaleAddress(address,bool)": "infinite",
				"swapRouter()": "infinite",
				"swapThreshold()": "infinite",
				"symbol()": "infinite",
				"toggleCanSwapFees(bool)": "infinite",
				"totalSupply()": "406",
				"transfer(address,uint256)": "infinite",
				"transferFrom(address,address,uint256)": "infinite",
				"transferOwnership(address)": "30830",
				"transferfee()": "375"
			},
			"internal": {
				"_approve(address,address,uint256)": "infinite",
				"_transfer(address,address,uint256)": "infinite",
				"canSwap(address,address)": "6693",
				"internalSwap(uint256)": "infinite",
				"isLimitedAddress(address,address)": "infinite",
				"is_buy(address,address)": "4529",
				"is_sell(address,address)": "4529",
				"takeTaxes(address,bool,bool,uint256)": "infinite"
			}
		},
		"methodIdentifiers": {
			"DEAD()": "03fd2a45",
			"_totalSupply()": "3eaaf86b",
			"allowance(address,address)": "dd62ed3e",
			"approve(address,uint256)": "095ea7b3",
			"balanceOf(address)": "70a08231",
			"buyfee()": "1dc36945",
			"changeLpPair(address)": "d5914dc0",
			"changeWallets(address)": "c4ab12b5",
			"decimals()": "313ce567",
			"enableTrading()": "8a8c523c",
			"fee_denominator()": "dc9d75b0",
			"getOwner()": "893d20e8",
			"isNoFeeWallet(address)": "27889862",
			"isTradingEnabled()": "064a59d0",
			"lpPair()": "452ed4f1",
			"name()": "06fdde03",
			"owner()": "8da5cb5b",
			"renounceOwnership()": "715018a6",
			"sellfee()": "e9451f5f",
			"setNoFeeWallet(address,bool)": "0faba554",
			"setPresaleAddress(address,bool)": "3cd17c96",
			"swapRouter()": "c31c9c07",
			"swapThreshold()": "0445b667",
			"symbol()": "95d89b41",
			"toggleCanSwapFees(bool)": "111a60b0",
			"totalSupply()": "18160ddd",
			"transfer(address,uint256)": "a9059cbb",
			"transferFrom(address,address,uint256)": "23b872dd",
			"transferOwnership(address)": "f2fde38b",
			"transferfee()": "54de7bee"
		}
	},
	"abi": [
		{
			"inputs": [],
			"stateMutability": "nonpayable",
			"type": "constructor"
		},
		{
			"anonymous": false,
			"inputs": [
				{
					"indexed": true,
					"internalType": "address",
					"name": "owner",
					"type": "address"
				},
				{
					"indexed": true,
					"internalType": "address",
					"name": "spender",
					"type": "address"
				},
				{
					"indexed": false,
					"internalType": "uint256",
					"name": "value",
					"type": "uint256"
				}
			],
			"name": "Approval",
			"type": "event"
		},
		{
			"anonymous": false,
			"inputs": [
				{
					"indexed": true,
					"internalType": "address",
					"name": "previousOwner",
					"type": "address"
				},
				{
					"indexed": true,
					"internalType": "address",
					"name": "newOwner",
					"type": "address"
				}
			],
			"name": "OwnershipTransferred",
			"type": "event"
		},
		{
			"anonymous": false,
			"inputs": [
				{
					"indexed": true,
					"internalType": "address",
					"name": "from",
					"type": "address"
				},
				{
					"indexed": true,
					"internalType": "address",
					"name": "to",
					"type": "address"
				},
				{
					"indexed": false,
					"internalType": "uint256",
					"name": "value",
					"type": "uint256"
				}
			],
			"name": "Transfer",
			"type": "event"
		},
		{
			"anonymous": false,
			"inputs": [
				{
					"indexed": false,
					"internalType": "address",
					"name": "newLpPair",
					"type": "address"
				}
			],
			"name": "_changePair",
			"type": "event"
		},
		{
			"anonymous": false,
			"inputs": [
				{
					"indexed": false,
					"internalType": "address",
					"name": "marketing",
					"type": "address"
				}
			],
			"name": "_changeWallets",
			"type": "event"
		},
		{
			"anonymous": false,
			"inputs": [],
			"name": "_enableTrading",
			"type": "event"
		},
		{
			"anonymous": false,
			"inputs": [
				{
					"indexed": false,
					"internalType": "address",
					"name": "account",
					"type": "address"
				},
				{
					"indexed": false,
					"internalType": "bool",
					"name": "enabled",
					"type": "bool"
				}
			],
			"name": "_setPresaleAddress",
			"type": "event"
		},
		{
			"anonymous": false,
			"inputs": [
				{
					"indexed": false,
					"internalType": "bool",
					"name": "enabled",
					"type": "bool"
				}
			],
			"name": "_toggleCanSwapFees",
			"type": "event"
		},
		{
			"inputs": [],
			"name": "DEAD",
			"outputs": [
				{
					"internalType": "address",
					"name": "",
					"type": "address"
				}
			],
			"stateMutability": "view",
			"type": "function"
		},
		{
			"inputs": [],
			"name": "_totalSupply",
			"outputs": [
				{
					"internalType": "uint256",
					"name": "",
					"type": "uint256"
				}
			],
			"stateMutability": "view",
			"type": "function"
		},
		{
			"inputs": [
				{
					"internalType": "address",
					"name": "holder",
					"type": "address"
				},
				{
					"internalType": "address",
					"name": "spender",
					"type": "address"
				}
			],
			"name": "allowance",
			"outputs": [
				{
					"internalType": "uint256",
					"name": "",
					"type": "uint256"
				}
			],
			"stateMutability": "view",
			"type": "function"
		},
		{
			"inputs": [
				{
					"internalType": "address",
					"name": "spender",
					"type": "address"
				},
				{
					"internalType": "uint256",
					"name": "amount",
					"type": "uint256"
				}
			],
			"name": "approve",
			"outputs": [
				{
					"internalType": "bool",
					"name": "",
					"type": "bool"
				}
			],
			"stateMutability": "nonpayable",
			"type": "function"
		},
		{
			"inputs": [
				{
					"internalType": "address",
					"name": "account",
					"type": "address"
				}
			],
			"name": "balanceOf",
			"outputs": [
				{
					"internalType": "uint256",
					"name": "",
					"type": "uint256"
				}
			],
			"stateMutability": "view",
			"type": "function"
		},
		{
			"inputs": [],
			"name": "buyfee",
			"outputs": [
				{
					"internalType": "uint256",
					"name": "",
					"type": "uint256"
				}
			],
			"stateMutability": "view",
			"type": "function"
		},
		{
			"inputs": [
				{
					"internalType": "address",
					"name": "newPair",
					"type": "address"
				}
			],
			"name": "changeLpPair",
			"outputs": [],
			"stateMutability": "nonpayable",
			"type": "function"
		},
		{
			"inputs": [
				{
					"internalType": "address",
					"name": "marketing",
					"type": "address"
				}
			],
			"name": "changeWallets",
			"outputs": [],
			"stateMutability": "nonpayable",
			"type": "function"
		},
		{
			"inputs": [],
			"name": "decimals",
			"outputs": [
				{
					"internalType": "uint8",
					"name": "",
					"type": "uint8"
				}
			],
			"stateMutability": "pure",
			"type": "function"
		},
		{
			"inputs": [],
			"name": "enableTrading",
			"outputs": [],
			"stateMutability": "nonpayable",
			"type": "function"
		},
		{
			"inputs": [],
			"name": "fee_denominator",
			"outputs": [
				{
					"internalType": "uint256",
					"name": "",
					"type": "uint256"
				}
			],
			"stateMutability": "view",
			"type": "function"
		},
		{
			"inputs": [],
			"name": "getOwner",
			"outputs": [
				{
					"internalType": "address",
					"name": "",
					"type": "address"
				}
			],
			"stateMutability": "view",
			"type": "function"
		},
		{
			"inputs": [
				{
					"internalType": "address",
					"name": "account",
					"type": "address"
				}
			],
			"name": "isNoFeeWallet",
			"outputs": [
				{
					"internalType": "bool",
					"name": "",
					"type": "bool"
				}
			],
			"stateMutability": "view",
			"type": "function"
		},
		{
			"inputs": [],
			"name": "isTradingEnabled",
			"outputs": [
				{
					"internalType": "bool",
					"name": "",
					"type": "bool"
				}
			],
			"stateMutability": "view",
			"type": "function"
		},
		{
			"inputs": [],
			"name": "lpPair",
			"outputs": [
				{
					"internalType": "address",
					"name": "",
					"type": "address"
				}
			],
			"stateMutability": "view",
			"type": "function"
		},
		{
			"inputs": [],
			"name": "name",
			"outputs": [
				{
					"internalType": "string",
					"name": "",
					"type": "string"
				}
			],
			"stateMutability": "pure",
			"type": "function"
		},
		{
			"inputs": [],
			"name": "owner",
			"outputs": [
				{
					"internalType": "address",
					"name": "",
					"type": "address"
				}
			],
			"stateMutability": "view",
			"type": "function"
		},
		{
			"inputs": [],
			"name": "renounceOwnership",
			"outputs": [],
			"stateMutability": "nonpayable",
			"type": "function"
		},
		{
			"inputs": [],
			"name": "sellfee",
			"outputs": [
				{
					"internalType": "uint256",
					"name": "",
					"type": "uint256"
				}
			],
			"stateMutability": "view",
			"type": "function"
		},
		{
			"inputs": [
				{
					"internalType": "address",
					"name": "account",
					"type": "address"
				},
				{
					"internalType": "bool",
					"name": "enabled",
					"type": "bool"
				}
			],
			"name": "setNoFeeWallet",
			"outputs": [],
			"stateMutability": "nonpayable",
			"type": "function"
		},
		{
			"inputs": [
				{
					"internalType": "address",
					"name": "presale",
					"type": "address"
				},
				{
					"internalType": "bool",
					"name": "yesno",
					"type": "bool"
				}
			],
			"name": "setPresaleAddress",
			"outputs": [],
			"stateMutability": "nonpayable",
			"type": "function"
		},
		{
			"inputs": [],
			"name": "swapRouter",
			"outputs": [
				{
					"internalType": "contract IRouter02",
					"name": "",
					"type": "address"
				}
			],
			"stateMutability": "view",
			"type": "function"
		},
		{
			"inputs": [],
			"name": "swapThreshold",
			"outputs": [
				{
					"internalType": "uint256",
					"name": "",
					"type": "uint256"
				}
			],
			"stateMutability": "view",
			"type": "function"
		},
		{
			"inputs": [],
			"name": "symbol",
			"outputs": [
				{
					"internalType": "string",
					"name": "",
					"type": "string"
				}
			],
			"stateMutability": "pure",
			"type": "function"
		},
		{
			"inputs": [
				{
					"internalType": "bool",
					"name": "yesno",
					"type": "bool"
				}
			],
			"name": "toggleCanSwapFees",
			"outputs": [],
			"stateMutability": "nonpayable",
			"type": "function"
		},
		{
			"inputs": [],
			"name": "totalSupply",
			"outputs": [
				{
					"internalType": "uint256",
					"name": "",
					"type": "uint256"
				}
			],
			"stateMutability": "pure",
			"type": "function"
		},
		{
			"inputs": [
				{
					"internalType": "address",
					"name": "recipient",
					"type": "address"
				},
				{
					"internalType": "uint256",
					"name": "amount",
					"type": "uint256"
				}
			],
			"name": "transfer",
			"outputs": [
				{
					"internalType": "bool",
					"name": "",
					"type": "bool"
				}
			],
			"stateMutability": "nonpayable",
			"type": "function"
		},
		{
			"inputs": [
				{
					"internalType": "address",
					"name": "sender",
					"type": "address"
				},
				{
					"internalType": "address",
					"name": "recipient",
					"type": "address"
				},
				{
					"internalType": "uint256",
					"name": "amount",
					"type": "uint256"
				}
			],
			"name": "transferFrom",
			"outputs": [
				{
					"internalType": "bool",
					"name": "",
					"type": "bool"
				}
			],
			"stateMutability": "nonpayable",
			"type": "function"
		},
		{
			"inputs": [
				{
					"internalType": "address",
					"name": "newOwner",
					"type": "address"
				}
			],
			"name": "transferOwnership",
			"outputs": [],
			"stateMutability": "nonpayable",
			"type": "function"
		},
		{
			"inputs": [],
			"name": "transferfee",
			"outputs": [
				{
					"internalType": "uint256",
					"name": "",
					"type": "uint256"
				}
			],
			"stateMutability": "view",
			"type": "function"
		},
		{
			"stateMutability": "payable",
			"type": "receive"
		}
	]
}