{
	"data": {
		"bytecode": {
			"linkReferences": {},
			"object": "60c06040525f600a5f6101000a81548160ff0219169083151502179055505f600a60016101000a81548160ff0219169083151502179055506a52b7d2dcc80cd2e4000000600b55600b545f19620000579190620005ea565b5f196200006591906200064e565b600c556040518060400160405280600f81526020017f53616974616d6120496e7520322e300000000000000000000000000000000000815250600f9081620000ae9190620008e3565b506040518060400160405280600a81526020017f53414954414d41322e300000000000000000000000000000000000000000000081525060109081620000f59190620008e3565b50600960115f6101000a81548160ff021916908360ff1602179055506001601255601254601355605960145560046015556015546016556001601760016101000a81548160ff0219169083151502179055506a1b4c0595a86aa1c10000006018556945e155fa0110fa40000060195534801562000170575f80fd5b505f620001826200058660201b60201c565b9050805f806101000a81548173ffffffffffffffffffffffffffffffffffffffff021916908373ffffffffffffffffffffffffffffffffffffffff1602179055508073ffffffffffffffffffffffffffffffffffffffff165f73ffffffffffffffffffffffffffffffffffffffff167f8be0079c531659141344cd1fd0a4f28419497f9722a3daafe3b4186f6b6457e060405160405180910390a350600c5460035f620002346200058660201b60201c565b73ffffffffffffffffffffffffffffffffffffffff1673ffffffffffffffffffffffffffffffffffffffff1681526020019081526020015f20819055505f737a250d5630b4cf539739df2c5dacb4c659f2488d90508073ffffffffffffffffffffffffffffffffffffffff1663c45a01556040518163ffffffff1660e01b8152600401602060405180830381865afa158015620002d3573d5f803e3d5ffd5b505050506040513d601f19601f82011682018060405250810190620002f9919062000a2c565b73ffffffffffffffffffffffffffffffffffffffff1663c9c65396308373ffffffffffffffffffffffffffffffffffffffff1663ad5c46486040518163ffffffff1660e01b8152600401602060405180830381865afa1580156200035f573d5f803e3d5ffd5b505050506040513d601f19601f8201168201806040525081019062000385919062000a2c565b6040518363ffffffff1660e01b8152600401620003a492919062000a6d565b6020604051808303815f875af1158015620003c1573d5f803e3d5ffd5b505050506040513d601f19601f82011682018060405250810190620003e7919062000a2c565b73ffffffffffffffffffffffffffffffffffffffff1660a08173ffffffffffffffffffffffffffffffffffffffff16815250508073ffffffffffffffffffffffffffffffffffffffff1660808173ffffffffffffffffffffffffffffffffffffffff1681525050600160065f620004636200058d60201b60201c565b73ffffffffffffffffffffffffffffffffffffffff1673ffffffffffffffffffffffffffffffffffffffff1681526020019081526020015f205f6101000a81548160ff021916908315150217905550600160065f3073ffffffffffffffffffffffffffffffffffffffff1673ffffffffffffffffffffffffffffffffffffffff1681526020019081526020015f205f6101000a81548160ff021916908315150217905550620005176200058660201b60201c565b73ffffffffffffffffffffffffffffffffffffffff165f73ffffffffffffffffffffffffffffffffffffffff167fddf252ad1be2c89b69c2b068fc378daa952ba7f163c4a11628f55a4df523b3ef600b5460405162000577919062000aa9565b60405180910390a35062000ac4565b5f33905090565b5f805f9054906101000a900473ffffffffffffffffffffffffffffffffffffffff16905090565b5f819050919050565b7f4e487b71000000000000000000000000000000000000000000000000000000005f52601260045260245ffd5b5f620005f682620005b4565b91506200060383620005b4565b925082620006165762000615620005bd565b5b828206905092915050565b7f4e487b71000000000000000000000000000000000000000000000000000000005f52601160045260245ffd5b5f6200065a82620005b4565b91506200066783620005b4565b925082820390508181111562000682576200068162000621565b5b92915050565b5f81519050919050565b7f4e487b71000000000000000000000000000000000000000000000000000000005f52604160045260245ffd5b7f4e487b71000000000000000000000000000000000000000000000000000000005f52602260045260245ffd5b5f60028204905060018216806200070457607f821691505b6020821081036200071a5762000719620006bf565b5b50919050565b5f819050815f5260205f209050919050565b5f6020601f8301049050919050565b5f82821b905092915050565b5f600883026200077e7fffffffffffffffffffffffffffffffffffffffffffffffffffffffffffffffff8262000741565b6200078a868362000741565b95508019841693508086168417925050509392505050565b5f819050919050565b5f620007cb620007c5620007bf84620005b4565b620007a2565b620005b4565b9050919050565b5f819050919050565b620007e683620007ab565b620007fe620007f582620007d2565b8484546200074d565b825550505050565b5f90565b6200081462000806565b62000821818484620007db565b505050565b5b8181101562000848576200083c5f826200080a565b60018101905062000827565b5050565b601f8211156200089757620008618162000720565b6200086c8462000732565b810160208510156200087c578190505b620008946200088b8562000732565b83018262000826565b50505b505050565b5f82821c905092915050565b5f620008b95f19846008026200089c565b1980831691505092915050565b5f620008d38383620008a8565b9150826002028217905092915050565b620008ee8262000688565b67ffffffffffffffff8111156200090a576200090962000692565b5b620009168254620006ec565b620009238282856200084c565b5f60209050601f83116001811462000959575f841562000944578287015190505b620009508582620008c6565b865550620009bf565b601f198416620009698662000720565b5f5b8281101562000992578489015182556001820191506020850194506020810190506200096b565b86831015620009b25784890151620009ae601f891682620008a8565b8355505b6001600288020188555050505b505050505050565b5f80fd5b5f73ffffffffffffffffffffffffffffffffffffffff82169050919050565b5f620009f682620009cb565b9050919050565b62000a0881620009ea565b811462000a13575f80fd5b50565b5f8151905062000a2681620009fd565b92915050565b5f6020828403121562000a445762000a43620009c7565b5b5f62000a538482850162000a16565b91505092915050565b62000a6781620009ea565b82525050565b5f60408201905062000a825f83018562000a5c565b62000a91602083018462000a5c565b9392505050565b62000aa381620005b4565b82525050565b5f60208201905062000abe5f83018462000a98565b92915050565b60805160a0516169f462000b1e5f395f8181611c62015281816136270152818161374d01526137a401525f8181610ebe0152818161446e0152818161454d015281816145740152818161468101526146a801526169f45ff3fe60806040526004361061031d575f3560e01c80635d098b38116101aa578063a457c2d7116100f6578063d4a3883f11610094578063dd62ed3e1161006e578063dd62ed3e14610b86578063ea2f0b3714610bc2578063ec28438a14610bea578063f2fde38b14610c1257610324565b8063d4a3883f14610b0c578063da6fa55c14610b34578063dd46706414610b5e57610324565b8063a9059cbb116100d0578063a9059cbb14610a54578063b6c5232414610a90578063c49b9a8014610aba578063d12a768814610ae257610324565b8063a457c2d7146109ec578063a633423114610a28578063a69df4b514610a3e57610324565b8063764d72bf116101635780638ba4cc3c1161013d5780638ba4cc3c146109485780638da5cb5b146109705780638ee88c531461099a57806395d89b41146109c257610324565b8063764d72bf146108ba5780637d1db4a5146108e257806388f820201461090c57610324565b80635d098b38146107b057806360d48489146107d85780636bc87c3a1461081457806370a082311461083e578063715018a61461087a57806375f0a8741461089057610324565b80633685d419116102695780634549b0391161022257806349bd5a5e116101fc57806349bd5a5e146106f85780634a74bb021461072257806352390c021461074c5780635342acb41461077457610324565b80634549b0391461067e578063457c194c146106ba57806348c54b9d146106e257610324565b80633685d4191461057857806339509351146105a05780633ae7dc20146105dc5780633b124fe7146106045780633bd5d1731461062e578063437823ec1461065657610324565b806318160ddd116102d65780632a360631116102b05780632a360631146104c05780632d838119146104e85780632f05205c14610524578063313ce5671461054e57610324565b806318160ddd1461043257806323b872dd1461045c57806329e04b4a1461049857610324565b80630305caff14610328578063061c82d01461035057806306fdde0314610378578063095ea7b3146103a257806313114a9d146103de5780631694505e1461040857610324565b3661032457005b5f80fd5b348015610333575f80fd5b5061034e60048036038101906103499190615331565b610c3a565b005b34801561035b575f80fd5b506103766004803603810190610371919061538f565b610d25565b005b348015610383575f80fd5b5061038c610e06565b6040516103999190615444565b60405180910390f35b3480156103ad575f80fd5b506103c860048036038101906103c39190615464565b610e96565b6040516103d591906154bc565b60405180910390f35b3480156103e9575f80fd5b506103f2610eb3565b6040516103ff91906154e4565b60405180910390f35b348015610413575f80fd5b5061041c610ebc565b6040516104299190615558565b60405180910390f35b34801561043d575f80fd5b50610446610ee0565b60405161045391906154e4565b60405180910390f35b348015610467575f80fd5b50610482600480360381019061047d9190615571565b610ee9565b60405161048f91906154bc565b60405180910390f35b3480156104a3575f80fd5b506104be60048036038101906104b9919061538f565b610fbd565b005b3480156104cb575f80fd5b506104e660048036038101906104e19190615331565b6110b0565b005b3480156104f3575f80fd5b5061050e6004803603810190610509919061538f565b61119c565b60405161051b91906154e4565b60405180910390f35b34801561052f575f80fd5b50610538611208565b60405161054591906154bc565b60405180910390f35b348015610559575f80fd5b5061056261121b565b60405161056f91906155dc565b60405180910390f35b348015610583575f80fd5b5061059e60048036038101906105999190615331565b611230565b005b3480156105ab575f80fd5b506105c660048036038101906105c19190615464565b611566565b6040516105d391906154bc565b60405180910390f35b3480156105e7575f80fd5b5061060260048036038101906105fd9190615630565b611614565b005b34801561060f575f80fd5b5061061861179f565b60405161062591906154e4565b60405180910390f35b348015610639575f80fd5b50610654600480360381019061064f919061538f565b6117a5565b005b348015610661575f80fd5b5061067c60048036038101906106779190615331565b611917565b005b348015610689575f80fd5b506106a4600480360381019061069f9190615698565b611a03565b6040516106b191906154e4565b60405180910390f35b3480156106c5575f80fd5b506106e060048036038101906106db919061538f565b611a84565b005b3480156106ed575f80fd5b506106f6611b65565b005b348015610703575f80fd5b5061070c611c60565b60405161071991906156e5565b60405180910390f35b34801561072d575f80fd5b50610736611c84565b60405161074391906154bc565b60405180910390f35b348015610757575f80fd5b50610772600480360381019061076d9190615331565b611c97565b005b34801561077f575f80fd5b5061079a60048036038101906107959190615331565b611f3a565b6040516107a791906154bc565b60405180910390f35b3480156107bb575f80fd5b506107d660048036038101906107d19190615331565b611f8c565b005b3480156107e3575f80fd5b506107fe60048036038101906107f99190615331565b612063565b60405161080b91906154bc565b60405180910390f35b34801561081f575f80fd5b506108286120b5565b60405161083591906154e4565b60405180910390f35b348015610849575f80fd5b50610864600480360381019061085f9190615331565b6120bb565b60405161087191906154e4565b60405180910390f35b348015610885575f80fd5b5061088e61219e565b005b34801561089b575f80fd5b506108a46122ec565b6040516108b191906156e5565b60405180910390f35b3480156108c5575f80fd5b506108e060048036038101906108db9190615739565b612311565b005b3480156108ed575f80fd5b506108f66123ec565b60405161090391906154e4565b60405180910390f35b348015610917575f80fd5b50610932600480360381019061092d9190615331565b6123f2565b60405161093f91906154bc565b60405180910390f35b348015610953575f80fd5b5061096e60048036038101906109699190615464565b612444565b005b34801561097b575f80fd5b5061098461250d565b60405161099191906156e5565b60405180910390f35b3480156109a5575f80fd5b506109c060048036038101906109bb919061538f565b612534565b005b3480156109cd575f80fd5b506109d66125d2565b6040516109e39190615444565b60405180910390f35b3480156109f7575f80fd5b50610a126004803603810190610a0d9190615464565b612662565b604051610a1f91906154bc565b60405180910390f35b348015610a33575f80fd5b50610a3c61272a565b005b348015610a49575f80fd5b50610a526127db565b005b348015610a5f575f80fd5b50610a7a6004803603810190610a759190615464565b6129aa565b604051610a8791906154bc565b60405180910390f35b348015610a9b575f80fd5b50610aa46129c7565b604051610ab191906154e4565b60405180910390f35b348015610ac5575f80fd5b50610ae06004803603810190610adb9190615764565b6129d0565b005b348015610aed575f80fd5b50610af6612ab8565b604051610b0391906154e4565b60405180910390f35b348015610b17575f80fd5b50610b326004803603810190610b2d9190615845565b612abe565b005b348015610b3f575f80fd5b50610b48612c1b565b604051610b5591906154e4565b60405180910390f35b348015610b69575f80fd5b50610b846004803603810190610b7f919061538f565b612c21565b005b348015610b91575f80fd5b50610bac6004803603810190610ba791906158c3565b612de1565b604051610bb991906154e4565b60405180910390f35b348015610bcd575f80fd5b50610be86004803603810190610be39190615331565b612e63565b005b348015610bf5575f80fd5b50610c106004803603810190610c0b919061538f565b612f4e565b005b348015610c1d575f80fd5b50610c386004803603810190610c339190615331565b613041565b005b610c426131fe565b73ffffffffffffffffffffffffffffffffffffffff165f8054906101000a900473ffffffffffffffffffffffffffffffffffffffff1673ffffffffffffffffffffffffffffffffffffffff1614610cce576040517f08c379a0000000000000000000000000000000000000000000000000000000008152600401610cc59061594b565b60405180910390fd5b5f60095f8373ffffffffffffffffffffffffffffffffffffffff1673ffffffffffffffffffffffffffffffffffffffff1681526020019081526020015f205f6101000a81548160ff02191690831515021790555050565b610d2d6131fe565b73ffffffffffffffffffffffffffffffffffffffff165f8054906101000a900473ffffffffffffffffffffffffffffffffffffffff1673ffffffffffffffffffffffffffffffffffffffff1614610db9576040517f08c379a0000000000000000000000000000000000000000000000000000000008152600401610db09061594b565b60405180910390fd5b600a8110610dfc576040517f08c379a0000000000000000000000000000000000000000000000000000000008152600401610df3906159b3565b60405180910390fd5b8060128190555050565b6060600f8054610e15906159fe565b80601f0160208091040260200160405190810160405280929190818152602001828054610e41906159fe565b8015610e8c5780601f10610e6357610100808354040283529160200191610e8c565b820191905f5260205f20905b815481529060010190602001808311610e6f57829003601f168201915b5050505050905090565b5f610ea9610ea26131fe565b8484613205565b6001905092915050565b5f600d54905090565b7f000000000000000000000000000000000000000000000000000000000000000081565b5f600b54905090565b5f610ef58484846133c8565b610fb284610f016131fe565b610fad856040518060600160405280602881526020016169726028913960055f8b73ffffffffffffffffffffffffffffffffffffffff1673ffffffffffffffffffffffffffffffffffffffff1681526020019081526020015f205f610f646131fe565b73ffffffffffffffffffffffffffffffffffffffff1673ffffffffffffffffffffffffffffffffffffffff1681526020019081526020015f20546138109092919063ffffffff16565b613205565b600190509392505050565b610fc56131fe565b73ffffffffffffffffffffffffffffffffffffffff165f8054906101000a900473ffffffffffffffffffffffffffffffffffffffff1673ffffffffffffffffffffffffffffffffffffffff1614611051576040517f08c379a00000000000000000000000000000000000000000000000000000000081526004016110489061594b565b60405180910390fd5b63041cdb408111611097576040517f08c379a000000000000000000000000000000000000000000000000000000000815260040161108e90615a9e565b60405180910390fd5b633b9aca00816110a79190615ae9565b60198190555050565b6110b86131fe565b73ffffffffffffffffffffffffffffffffffffffff165f8054906101000a900473ffffffffffffffffffffffffffffffffffffffff1673ffffffffffffffffffffffffffffffffffffffff1614611144576040517f08c379a000000000000000000000000000000000000000000000000000000000815260040161113b9061594b565b60405180910390fd5b600160095f8373ffffffffffffffffffffffffffffffffffffffff1673ffffffffffffffffffffffffffffffffffffffff1681526020019081526020015f205f6101000a81548160ff02191690831515021790555050565b5f600c548211156111e2576040517f08c379a00000000000000000000000000000000000000000000000000000000081526004016111d990615b9a565b60405180910390fd5b5f6111eb613872565b9050611200818461389b90919063ffffffff16565b915050919050565b600a60019054906101000a900460ff1681565b5f60115f9054906101000a900460ff16905090565b6112386131fe565b73ffffffffffffffffffffffffffffffffffffffff165f8054906101000a900473ffffffffffffffffffffffffffffffffffffffff1673ffffffffffffffffffffffffffffffffffffffff16146112c4576040517f08c379a00000000000000000000000000000000000000000000000000000000081526004016112bb9061594b565b60405180910390fd5b60075f8273ffffffffffffffffffffffffffffffffffffffff1673ffffffffffffffffffffffffffffffffffffffff1681526020019081526020015f205f9054906101000a900460ff1661134d576040517f08c379a000000000000000000000000000000000000000000000000000000000815260040161134490615c02565b60405180910390fd5b5f5b600880549050811015611562578173ffffffffffffffffffffffffffffffffffffffff166008828154811061138757611386615c20565b5b905f5260205f20015f9054906101000a900473ffffffffffffffffffffffffffffffffffffffff1673ffffffffffffffffffffffffffffffffffffffff160361154f57600860016008805490506113de9190615c4d565b815481106113ef576113ee615c20565b5b905f5260205f20015f9054906101000a900473ffffffffffffffffffffffffffffffffffffffff166008828154811061142b5761142a615c20565b5b905f5260205f20015f6101000a81548173ffffffffffffffffffffffffffffffffffffffff021916908373ffffffffffffffffffffffffffffffffffffffff1602179055505f60045f8473ffffffffffffffffffffffffffffffffffffffff1673ffffffffffffffffffffffffffffffffffffffff1681526020019081526020015f20819055505f60075f8473ffffffffffffffffffffffffffffffffffffffff1673ffffffffffffffffffffffffffffffffffffffff1681526020019081526020015f205f6101000a81548160ff021916908315150217905550600880548061151857611517615c80565b5b600190038181905f5260205f20015f6101000a81549073ffffffffffffffffffffffffffffffffffffffff02191690559055611562565b808061155a90615cad565b91505061134f565b5050565b5f61160a6115726131fe565b846116058560055f6115826131fe565b73ffffffffffffffffffffffffffffffffffffffff1673ffffffffffffffffffffffffffffffffffffffff1681526020019081526020015f205f8973ffffffffffffffffffffffffffffffffffffffff1673ffffffffffffffffffffffffffffffffffffffff1681526020019081526020015f20546138e490919063ffffffff16565b613205565b6001905092915050565b61161c6131fe565b73ffffffffffffffffffffffffffffffffffffffff165f8054906101000a900473ffffffffffffffffffffffffffffffffffffffff1673ffffffffffffffffffffffffffffffffffffffff16146116a8576040517f08c379a000000000000000000000000000000000000000000000000000000000815260040161169f9061594b565b60405180910390fd5b8173ffffffffffffffffffffffffffffffffffffffff1663a9059cbb828473ffffffffffffffffffffffffffffffffffffffff166370a08231306040518263ffffffff1660e01b81526004016116fe91906156e5565b602060405180830381865afa158015611719573d5f803e3d5ffd5b505050506040513d601f19601f8201168201806040525081019061173d9190615d08565b6040518363ffffffff1660e01b815260040161175a929190615d33565b6020604051808303815f875af1158015611776573d5f803e3d5ffd5b505050506040513d601f19601f8201168201806040525081019061179a9190615d6e565b505050565b60125481565b5f6117ae6131fe565b905060075f8273ffffffffffffffffffffffffffffffffffffffff1673ffffffffffffffffffffffffffffffffffffffff1681526020019081526020015f205f9054906101000a900460ff161561183a576040517f08c379a000000000000000000000000000000000000000000000000000000000815260040161183190615e09565b60405180910390fd5b5f61184483613941565b5050505050905061189b8160035f8573ffffffffffffffffffffffffffffffffffffffff1673ffffffffffffffffffffffffffffffffffffffff1681526020019081526020015f205461399690919063ffffffff16565b60035f8473ffffffffffffffffffffffffffffffffffffffff1673ffffffffffffffffffffffffffffffffffffffff1681526020019081526020015f20819055506118f181600c5461399690919063ffffffff16565b600c8190555061190c83600d546138e490919063ffffffff16565b600d81905550505050565b61191f6131fe565b73ffffffffffffffffffffffffffffffffffffffff165f8054906101000a900473ffffffffffffffffffffffffffffffffffffffff1673ffffffffffffffffffffffffffffffffffffffff16146119ab576040517f08c379a00000000000000000000000000000000000000000000000000000000081526004016119a29061594b565b60405180910390fd5b600160065f8373ffffffffffffffffffffffffffffffffffffffff1673ffffffffffffffffffffffffffffffffffffffff1681526020019081526020015f205f6101000a81548160ff02191690831515021790555050565b5f600b54831115611a49576040517f08c379a0000000000000000000000000000000000000000000000000000000008152600401611a4090615e71565b60405180910390fd5b81611a68575f611a5884613941565b5050505050905080915050611a7e565b5f611a7284613941565b50505050915050809150505b92915050565b611a8c6131fe565b73ffffffffffffffffffffffffffffffffffffffff165f8054906101000a900473ffffffffffffffffffffffffffffffffffffffff1673ffffffffffffffffffffffffffffffffffffffff1614611b18576040517f08c379a0000000000000000000000000000000000000000000000000000000008152600401611b0f9061594b565b60405180910390fd5b605a8110611b5b576040517f08c379a0000000000000000000000000000000000000000000000000000000008152600401611b5290615eff565b60405180910390fd5b8060148190555050565b611b6d6131fe565b73ffffffffffffffffffffffffffffffffffffffff165f8054906101000a900473ffffffffffffffffffffffffffffffffffffffff1673ffffffffffffffffffffffffffffffffffffffff1614611bf9576040517f08c379a0000000000000000000000000000000000000000000000000000000008152600401611bf09061594b565b60405180910390fd5b600e5f9054906101000a900473ffffffffffffffffffffffffffffffffffffffff1673ffffffffffffffffffffffffffffffffffffffff166108fc4790811502906040515f60405180830381858888f19350505050158015611c5d573d5f803e3d5ffd5b50565b7f000000000000000000000000000000000000000000000000000000000000000081565b601760019054906101000a900460ff1681565b611c9f6131fe565b73ffffffffffffffffffffffffffffffffffffffff165f8054906101000a900473ffffffffffffffffffffffffffffffffffffffff1673ffffffffffffffffffffffffffffffffffffffff1614611d2b576040517f08c379a0000000000000000000000000000000000000000000000000000000008152600401611d229061594b565b60405180910390fd5b60075f8273ffffffffffffffffffffffffffffffffffffffff1673ffffffffffffffffffffffffffffffffffffffff1681526020019081526020015f205f9054906101000a900460ff1615611db5576040517f08c379a0000000000000000000000000000000000000000000000000000000008152600401611dac90615c02565b60405180910390fd5b5f60035f8373ffffffffffffffffffffffffffffffffffffffff1673ffffffffffffffffffffffffffffffffffffffff1681526020019081526020015f20541115611e8257611e4060035f8373ffffffffffffffffffffffffffffffffffffffff1673ffffffffffffffffffffffffffffffffffffffff1681526020019081526020015f205461119c565b60045f8373ffffffffffffffffffffffffffffffffffffffff1673ffffffffffffffffffffffffffffffffffffffff1681526020019081526020015f20819055505b600160075f8373ffffffffffffffffffffffffffffffffffffffff1673ffffffffffffffffffffffffffffffffffffffff1681526020019081526020015f205f6101000a81548160ff021916908315150217905550600881908060018154018082558091505060019003905f5260205f20015f9091909190916101000a81548173ffffffffffffffffffffffffffffffffffffffff021916908373ffffffffffffffffffffffffffffffffffffffff16021790555050565b5f60065f8373ffffffffffffffffffffffffffffffffffffffff1673ffffffffffffffffffffffffffffffffffffffff1681526020019081526020015f205f9054906101000a900460ff169050919050565b611f946131fe565b73ffffffffffffffffffffffffffffffffffffffff165f8054906101000a900473ffffffffffffffffffffffffffffffffffffffff1673ffffffffffffffffffffffffffffffffffffffff1614612020576040517f08c379a00000000000000000000000000000000000000000000000000000000081526004016120179061594b565b60405180910390fd5b80600e5f6101000a81548173ffffffffffffffffffffffffffffffffffffffff021916908373ffffffffffffffffffffffffffffffffffffffff16021790555050565b5f60095f8373ffffffffffffffffffffffffffffffffffffffff1673ffffffffffffffffffffffffffffffffffffffff1681526020019081526020015f205f9054906101000a900460ff169050919050565b60155481565b5f60075f8373ffffffffffffffffffffffffffffffffffffffff1673ffffffffffffffffffffffffffffffffffffffff1681526020019081526020015f205f9054906101000a900460ff16156121505760045f8373ffffffffffffffffffffffffffffffffffffffff1673ffffffffffffffffffffffffffffffffffffffff1681526020019081526020015f20549050612199565b61219660035f8473ffffffffffffffffffffffffffffffffffffffff1673ffffffffffffffffffffffffffffffffffffffff1681526020019081526020015f205461119c565b90505b919050565b6121a66131fe565b73ffffffffffffffffffffffffffffffffffffffff165f8054906101000a900473ffffffffffffffffffffffffffffffffffffffff1673ffffffffffffffffffffffffffffffffffffffff1614612232576040517f08c379a00000000000000000000000000000000000000000000000000000000081526004016122299061594b565b60405180910390fd5b5f73ffffffffffffffffffffffffffffffffffffffff165f8054906101000a900473ffffffffffffffffffffffffffffffffffffffff1673ffffffffffffffffffffffffffffffffffffffff167f8be0079c531659141344cd1fd0a4f28419497f9722a3daafe3b4186f6b6457e060405160405180910390a35f805f6101000a81548173ffffffffffffffffffffffffffffffffffffffff021916908373ffffffffffffffffffffffffffffffffffffffff160217905550565b600e5f9054906101000a900473ffffffffffffffffffffffffffffffffffffffff1681565b6123196131fe565b73ffffffffffffffffffffffffffffffffffffffff165f8054906101000a900473ffffffffffffffffffffffffffffffffffffffff1673ffffffffffffffffffffffffffffffffffffffff16146123a5576040517f08c379a000000000000000000000000000000000000000000000000000000000815260040161239c9061594b565b60405180910390fd5b8073ffffffffffffffffffffffffffffffffffffffff166108fc4790811502906040515f60405180830381858888f193505050501580156123e8573d5f803e3d5ffd5b5050565b60185481565b5f60075f8373ffffffffffffffffffffffffffffffffffffffff1673ffffffffffffffffffffffffffffffffffffffff1681526020019081526020015f205f9054906101000a900460ff169050919050565b61244c6131fe565b73ffffffffffffffffffffffffffffffffffffffff165f8054906101000a900473ffffffffffffffffffffffffffffffffffffffff1673ffffffffffffffffffffffffffffffffffffffff16146124d8576040517f08c379a00000000000000000000000000000000000000000000000000000000081526004016124cf9061594b565b60405180910390fd5b6124e06139df565b6125016124eb6131fe565b83633b9aca00846124fc9190615ae9565b6133c8565b612509613a18565b5050565b5f805f9054906101000a900473ffffffffffffffffffffffffffffffffffffffff16905090565b61253c6131fe565b73ffffffffffffffffffffffffffffffffffffffff165f8054906101000a900473ffffffffffffffffffffffffffffffffffffffff1673ffffffffffffffffffffffffffffffffffffffff16146125c8576040517f08c379a00000000000000000000000000000000000000000000000000000000081526004016125bf9061594b565b60405180910390fd5b8060158190555050565b6060601080546125e1906159fe565b80601f016020809104026020016040519081016040528092919081815260200182805461260d906159fe565b80156126585780601f1061262f57610100808354040283529160200191612658565b820191905f5260205f20905b81548152906001019060200180831161263b57829003601f168201915b5050505050905090565b5f61272061266e6131fe565b8461271b8560405180606001604052806025815260200161699a6025913960055f6126976131fe565b73ffffffffffffffffffffffffffffffffffffffff1673ffffffffffffffffffffffffffffffffffffffff1681526020019081526020015f205f8a73ffffffffffffffffffffffffffffffffffffffff1673ffffffffffffffffffffffffffffffffffffffff1681526020019081526020015f20546138109092919063ffffffff16565b613205565b6001905092915050565b6127326131fe565b73ffffffffffffffffffffffffffffffffffffffff165f8054906101000a900473ffffffffffffffffffffffffffffffffffffffff1673ffffffffffffffffffffffffffffffffffffffff16146127be576040517f08c379a00000000000000000000000000000000000000000000000000000000081526004016127b59061594b565b60405180910390fd5b6001600a60016101000a81548160ff021916908315150217905550565b3373ffffffffffffffffffffffffffffffffffffffff1660015f9054906101000a900473ffffffffffffffffffffffffffffffffffffffff1673ffffffffffffffffffffffffffffffffffffffff161461286a576040517f08c379a000000000000000000000000000000000000000000000000000000000815260040161286190615f8d565b60405180910390fd5b60025442116128ae576040517f08c379a00000000000000000000000000000000000000000000000000000000081526004016128a590615ff5565b60405180910390fd5b60015f9054906101000a900473ffffffffffffffffffffffffffffffffffffffff1673ffffffffffffffffffffffffffffffffffffffff165f8054906101000a900473ffffffffffffffffffffffffffffffffffffffff1673ffffffffffffffffffffffffffffffffffffffff167f8be0079c531659141344cd1fd0a4f28419497f9722a3daafe3b4186f6b6457e060405160405180910390a360015f9054906101000a900473ffffffffffffffffffffffffffffffffffffffff165f806101000a81548173ffffffffffffffffffffffffffffffffffffffff021916908373ffffffffffffffffffffffffffffffffffffffff160217905550565b5f6129bd6129b66131fe565b84846133c8565b6001905092915050565b5f600254905090565b6129d86131fe565b73ffffffffffffffffffffffffffffffffffffffff165f8054906101000a900473ffffffffffffffffffffffffffffffffffffffff1673ffffffffffffffffffffffffffffffffffffffff1614612a64576040517f08c379a0000000000000000000000000000000000000000000000000000000008152600401612a5b9061594b565b60405180910390fd5b80601760016101000a81548160ff0219169083151502179055507f53726dfcaf90650aa7eb35524f4d3220f07413c8d6cb404cc8c18bf5591bc15981604051612aad91906154bc565b60405180910390a150565b60195481565b612ac66131fe565b73ffffffffffffffffffffffffffffffffffffffff165f8054906101000a900473ffffffffffffffffffffffffffffffffffffffff1673ffffffffffffffffffffffffffffffffffffffff1614612b52576040517f08c379a0000000000000000000000000000000000000000000000000000000008152600401612b499061594b565b60405180910390fd5b5f828290508585905014612b9b576040517f08c379a0000000000000000000000000000000000000000000000000000000008152600401612b929061605d565b60405180910390fd5b5b84849050811015612c1457612c00858583818110612bbd57612bbc615c20565b5b9050602002016020810190612bd29190615331565b633b9aca00858585818110612bea57612be9615c20565b5b90506020020135612bfb9190615ae9565b613a2c565b600181612c0d919061607b565b9050612b9c565b5050505050565b60145481565b612c296131fe565b73ffffffffffffffffffffffffffffffffffffffff165f8054906101000a900473ffffffffffffffffffffffffffffffffffffffff1673ffffffffffffffffffffffffffffffffffffffff1614612cb5576040517f08c379a0000000000000000000000000000000000000000000000000000000008152600401612cac9061594b565b60405180910390fd5b5f8054906101000a900473ffffffffffffffffffffffffffffffffffffffff1660015f6101000a81548173ffffffffffffffffffffffffffffffffffffffff021916908373ffffffffffffffffffffffffffffffffffffffff1602179055505f805f6101000a81548173ffffffffffffffffffffffffffffffffffffffff021916908373ffffffffffffffffffffffffffffffffffffffff1602179055508042612d5f919061607b565b6002819055505f73ffffffffffffffffffffffffffffffffffffffff165f8054906101000a900473ffffffffffffffffffffffffffffffffffffffff1673ffffffffffffffffffffffffffffffffffffffff167f8be0079c531659141344cd1fd0a4f28419497f9722a3daafe3b4186f6b6457e060405160405180910390a350565b5f60055f8473ffffffffffffffffffffffffffffffffffffffff1673ffffffffffffffffffffffffffffffffffffffff1681526020019081526020015f205f8373ffffffffffffffffffffffffffffffffffffffff1673ffffffffffffffffffffffffffffffffffffffff1681526020019081526020015f2054905092915050565b612e6b6131fe565b73ffffffffffffffffffffffffffffffffffffffff165f8054906101000a900473ffffffffffffffffffffffffffffffffffffffff1673ffffffffffffffffffffffffffffffffffffffff1614612ef7576040517f08c379a0000000000000000000000000000000000000000000000000000000008152600401612eee9061594b565b60405180910390fd5b5f60065f8373ffffffffffffffffffffffffffffffffffffffff1673ffffffffffffffffffffffffffffffffffffffff1681526020019081526020015f205f6101000a81548160ff02191690831515021790555050565b612f566131fe565b73ffffffffffffffffffffffffffffffffffffffff165f8054906101000a900473ffffffffffffffffffffffffffffffffffffffff1673ffffffffffffffffffffffffffffffffffffffff1614612fe2576040517f08c379a0000000000000000000000000000000000000000000000000000000008152600401612fd99061594b565b60405180910390fd5b63041cdb408111613028576040517f08c379a000000000000000000000000000000000000000000000000000000000815260040161301f9061611e565b60405180910390fd5b633b9aca00816130389190615ae9565b60188190555050565b6130496131fe565b73ffffffffffffffffffffffffffffffffffffffff165f8054906101000a900473ffffffffffffffffffffffffffffffffffffffff1673ffffffffffffffffffffffffffffffffffffffff16146130d5576040517f08c379a00000000000000000000000000000000000000000000000000000000081526004016130cc9061594b565b60405180910390fd5b5f73ffffffffffffffffffffffffffffffffffffffff168173ffffffffffffffffffffffffffffffffffffffff1603613143576040517f08c379a000000000000000000000000000000000000000000000000000000000815260040161313a906161ac565b60405180910390fd5b8073ffffffffffffffffffffffffffffffffffffffff165f8054906101000a900473ffffffffffffffffffffffffffffffffffffffff1673ffffffffffffffffffffffffffffffffffffffff167f8be0079c531659141344cd1fd0a4f28419497f9722a3daafe3b4186f6b6457e060405160405180910390a3805f806101000a81548173ffffffffffffffffffffffffffffffffffffffff021916908373ffffffffffffffffffffffffffffffffffffffff16021790555050565b5f33905090565b5f73ffffffffffffffffffffffffffffffffffffffff168373ffffffffffffffffffffffffffffffffffffffff1603613273576040517f08c379a000000000000000000000000000000000000000000000000000000000815260040161326a9061623a565b60405180910390fd5b5f73ffffffffffffffffffffffffffffffffffffffff168273ffffffffffffffffffffffffffffffffffffffff16036132e1576040517f08c379a00000000000000000000000000000000000000000000000000000000081526004016132d8906162c8565b60405180910390fd5b8060055f8573ffffffffffffffffffffffffffffffffffffffff1673ffffffffffffffffffffffffffffffffffffffff1681526020019081526020015f205f8473ffffffffffffffffffffffffffffffffffffffff1673ffffffffffffffffffffffffffffffffffffffff1681526020019081526020015f20819055508173ffffffffffffffffffffffffffffffffffffffff168373ffffffffffffffffffffffffffffffffffffffff167f8c5be1e5ebec7d5bd14f71427d1e84f3dd0314c0f7b2291e5b200ac8c7c3b925836040516133bb91906154e4565b60405180910390a3505050565b5f73ffffffffffffffffffffffffffffffffffffffff168373ffffffffffffffffffffffffffffffffffffffff1603613436576040517f08c379a000000000000000000000000000000000000000000000000000000000815260040161342d90616356565b60405180910390fd5b5f73ffffffffffffffffffffffffffffffffffffffff168273ffffffffffffffffffffffffffffffffffffffff16036134a4576040517f08c379a000000000000000000000000000000000000000000000000000000000815260040161349b906163e4565b60405180910390fd5b5f81116134e6576040517f08c379a00000000000000000000000000000000000000000000000000000000081526004016134dd90616472565b60405180910390fd5b633b9aca006134f4846120bb565b6134fe9190615c4d565b81111561352057633b9aca00613513846120bb565b61351d9190615c4d565b90505b61352861250d565b73ffffffffffffffffffffffffffffffffffffffff168373ffffffffffffffffffffffffffffffffffffffff1614158015613596575061356661250d565b73ffffffffffffffffffffffffffffffffffffffff168273ffffffffffffffffffffffffffffffffffffffff1614155b156135e1576018548111156135e0576040517f08c379a00000000000000000000000000000000000000000000000000000000081526004016135d790616500565b60405180910390fd5b5b5f6135eb306120bb565b905060185481106135fc5760185490505b5f601954821015905080801561361e575060175f9054906101000a900460ff16155b801561367657507f000000000000000000000000000000000000000000000000000000000000000073ffffffffffffffffffffffffffffffffffffffff168573ffffffffffffffffffffffffffffffffffffffff1614155b801561368e5750601760019054906101000a900460ff165b156136a25760195491506136a182613a52565b5b5f6001905060065f8773ffffffffffffffffffffffffffffffffffffffff1673ffffffffffffffffffffffffffffffffffffffff1681526020019081526020015f205f9054906101000a900460ff1680613742575060065f8673ffffffffffffffffffffffffffffffffffffffff1673ffffffffffffffffffffffffffffffffffffffff1681526020019081526020015f205f9054906101000a900460ff165b1561374b575f90505b7f000000000000000000000000000000000000000000000000000000000000000073ffffffffffffffffffffffffffffffffffffffff168673ffffffffffffffffffffffffffffffffffffffff16141580156137f357507f000000000000000000000000000000000000000000000000000000000000000073ffffffffffffffffffffffffffffffffffffffff168573ffffffffffffffffffffffffffffffffffffffff1614155b156137fc575f90505b61380886868684613bc0565b505050505050565b5f838311158290613857576040517f08c379a000000000000000000000000000000000000000000000000000000000815260040161384e9190615444565b60405180910390fd5b505f83856138659190615c4d565b9050809150509392505050565b5f805f61387d613ffb565b91509150613894818361389b90919063ffffffff16565b9250505090565b5f6138dc83836040518060400160405280601a81526020017f536166654d6174683a206469766973696f6e206279207a65726f000000000000815250614296565b905092915050565b5f8082846138f2919061607b565b905083811015613937576040517f08c379a000000000000000000000000000000000000000000000000000000000815260040161392e90616568565b60405180910390fd5b8091505092915050565b5f805f805f805f805f6139538a6142f7565b9250925092505f805f61396f8d868661396a613872565b61434d565b9250925092508282828888889b509b509b509b509b509b5050505050505091939550919395565b5f6139d783836040518060400160405280601e81526020017f536166654d6174683a207375627472616374696f6e206f766572666c6f770000815250613810565b905092915050565b5f6012541480156139f157505f601554145b613a16576012546013819055506015546016819055505f6012819055505f6015819055505b565b601354601281905550601654601581905550565b613a346139df565b613a46613a3f6131fe565b83836133c8565b613a4e613a18565b5050565b600160175f6101000a81548160ff0219169083151502179055505f613a8160028361389b90919063ffffffff16565b90505f613a97828461399690919063ffffffff16565b90505f479050613aa6836143d1565b5f613aba824761399690919063ffffffff16565b90505f613ae56064613ad76014548561460490919063ffffffff16565b61389b90919063ffffffff16565b9050600e5f9054906101000a900473ffffffffffffffffffffffffffffffffffffffff1673ffffffffffffffffffffffffffffffffffffffff166108fc8290811502906040515f60405180830381858888f19350505050158015613b4b573d5f803e3d5ffd5b508082613b589190615c4d565b9150613b64848361467b565b7f17bbfb9a6069321b6ded73bd96327c9e6b7212a5cd51ff219cd61370acafb561858386604051613b9793929190616586565b60405180910390a150505050505f60175f6101000a81548160ff02191690831515021790555050565b600a60019054906101000a900460ff16613c1357613bdc61250d565b73ffffffffffffffffffffffffffffffffffffffff168473ffffffffffffffffffffffffffffffffffffffff1614613c12575f80fd5b5b60095f8573ffffffffffffffffffffffffffffffffffffffff1673ffffffffffffffffffffffffffffffffffffffff1681526020019081526020015f205f9054906101000a900460ff1680613cae575060095f8473ffffffffffffffffffffffffffffffffffffffff1673ffffffffffffffffffffffffffffffffffffffff1681526020019081526020015f205f9054906101000a900460ff165b15613d0257600a5f9054906101000a900460ff16613d01576040517f08c379a0000000000000000000000000000000000000000000000000000000008152600401613cf890616605565b60405180910390fd5b5b80613d1057613d0f6139df565b5b60075f8573ffffffffffffffffffffffffffffffffffffffff1673ffffffffffffffffffffffffffffffffffffffff1681526020019081526020015f205f9054906101000a900460ff168015613dad575060075f8473ffffffffffffffffffffffffffffffffffffffff1673ffffffffffffffffffffffffffffffffffffffff1681526020019081526020015f205f9054906101000a900460ff16155b15613dc257613dbd848484614759565b613fe7565b60075f8573ffffffffffffffffffffffffffffffffffffffff1673ffffffffffffffffffffffffffffffffffffffff1681526020019081526020015f205f9054906101000a900460ff16158015613e5f575060075f8473ffffffffffffffffffffffffffffffffffffffff1673ffffffffffffffffffffffffffffffffffffffff1681526020019081526020015f205f9054906101000a900460ff165b15613e7457613e6f8484846149aa565b613fe6565b60075f8573ffffffffffffffffffffffffffffffffffffffff1673ffffffffffffffffffffffffffffffffffffffff1681526020019081526020015f205f9054906101000a900460ff16158015613f12575060075f8473ffffffffffffffffffffffffffffffffffffffff1673ffffffffffffffffffffffffffffffffffffffff1681526020019081526020015f205f9054906101000a900460ff16155b15613f2757613f22848484614bfb565b613fe5565b60075f8573ffffffffffffffffffffffffffffffffffffffff1673ffffffffffffffffffffffffffffffffffffffff1681526020019081526020015f205f9054906101000a900460ff168015613fc3575060075f8473ffffffffffffffffffffffffffffffffffffffff1673ffffffffffffffffffffffffffffffffffffffff1681526020019081526020015f205f9054906101000a900460ff165b15613fd857613fd3848484614dbb565b613fe4565b613fe3848484614bfb565b5b5b5b5b80613ff557613ff4613a18565b5b50505050565b5f805f600c5490505f600b5490505f5b600880549050811015614259578260035f600884815481106140305761402f615c20565b5b905f5260205f20015f9054906101000a900473ffffffffffffffffffffffffffffffffffffffff1673ffffffffffffffffffffffffffffffffffffffff1673ffffffffffffffffffffffffffffffffffffffff1681526020019081526020015f2054118061411557508160045f600884815481106140b1576140b0615c20565b5b905f5260205f20015f9054906101000a900473ffffffffffffffffffffffffffffffffffffffff1673ffffffffffffffffffffffffffffffffffffffff1673ffffffffffffffffffffffffffffffffffffffff1681526020019081526020015f2054115b1561412c57600c54600b5494509450505050614292565b6141b760035f6008848154811061414657614145615c20565b5b905f5260205f20015f9054906101000a900473ffffffffffffffffffffffffffffffffffffffff1673ffffffffffffffffffffffffffffffffffffffff1673ffffffffffffffffffffffffffffffffffffffff1681526020019081526020015f20548461399690919063ffffffff16565b925061424460045f600884815481106141d3576141d2615c20565b5b905f5260205f20015f9054906101000a900473ffffffffffffffffffffffffffffffffffffffff1673ffffffffffffffffffffffffffffffffffffffff1673ffffffffffffffffffffffffffffffffffffffff1681526020019081526020015f20548361399690919063ffffffff16565b9150808061425190615cad565b91505061400b565b50614271600b54600c5461389b90919063ffffffff16565b82101561428957600c54600b54935093505050614292565b81819350935050505b9091565b5f80831182906142dc576040517f08c379a00000000000000000000000000000000000000000000000000000000081526004016142d39190615444565b60405180910390fd5b505f83856142ea9190616650565b9050809150509392505050565b5f805f806143048561509d565b90505f614310866150cd565b90505f6143388261432a858a61399690919063ffffffff16565b61399690919063ffffffff16565b90508083839550955095505050509193909250565b5f805f80614364858961460490919063ffffffff16565b90505f61437a868961460490919063ffffffff16565b90505f614390878961460490919063ffffffff16565b90505f6143b8826143aa858761399690919063ffffffff16565b61399690919063ffffffff16565b9050838184965096509650505050509450945094915050565b5f600267ffffffffffffffff8111156143ed576143ec616680565b5b60405190808252806020026020018201604052801561441b5781602001602082028036833780820191505090505b50905030815f8151811061443257614431615c20565b5b602002602001019073ffffffffffffffffffffffffffffffffffffffff16908173ffffffffffffffffffffffffffffffffffffffff16815250507f000000000000000000000000000000000000000000000000000000000000000073ffffffffffffffffffffffffffffffffffffffff1663ad5c46486040518163ffffffff1660e01b8152600401602060405180830381865afa1580156144d5573d5f803e3d5ffd5b505050506040513d601f19601f820116820180604052508101906144f991906166c1565b8160018151811061450d5761450c615c20565b5b602002602001019073ffffffffffffffffffffffffffffffffffffffff16908173ffffffffffffffffffffffffffffffffffffffff1681525050614572307f000000000000000000000000000000000000000000000000000000000000000084613205565b7f000000000000000000000000000000000000000000000000000000000000000073ffffffffffffffffffffffffffffffffffffffff1663791ac947835f8430426040518663ffffffff1660e01b81526004016145d39594939291906167dc565b5f604051808303815f87803b1580156145ea575f80fd5b505af11580156145fc573d5f803e3d5ffd5b505050505050565b5f808303614614575f9050614675565b5f82846146219190615ae9565b90508284826146309190616650565b14614670576040517f08c379a0000000000000000000000000000000000000000000000000000000008152600401614667906168a4565b60405180910390fd5b809150505b92915050565b6146a6307f000000000000000000000000000000000000000000000000000000000000000084613205565b7f000000000000000000000000000000000000000000000000000000000000000073ffffffffffffffffffffffffffffffffffffffff1663f305d7198230855f806146ef61250d565b426040518863ffffffff1660e01b8152600401614711969594939291906168c2565b60606040518083038185885af115801561472d573d5f803e3d5ffd5b50505050506040513d601f19601f820116820180604052508101906147529190616921565b5050505050565b5f805f805f8061476887613941565b9550955095509550955095506147c48760045f8c73ffffffffffffffffffffffffffffffffffffffff1673ffffffffffffffffffffffffffffffffffffffff1681526020019081526020015f205461399690919063ffffffff16565b60045f8b73ffffffffffffffffffffffffffffffffffffffff1673ffffffffffffffffffffffffffffffffffffffff1681526020019081526020015f20819055506148558660035f8c73ffffffffffffffffffffffffffffffffffffffff1673ffffffffffffffffffffffffffffffffffffffff1681526020019081526020015f205461399690919063ffffffff16565b60035f8b73ffffffffffffffffffffffffffffffffffffffff1673ffffffffffffffffffffffffffffffffffffffff1681526020019081526020015f20819055506148e68560035f8b73ffffffffffffffffffffffffffffffffffffffff1673ffffffffffffffffffffffffffffffffffffffff1681526020019081526020015f20546138e490919063ffffffff16565b60035f8a73ffffffffffffffffffffffffffffffffffffffff1673ffffffffffffffffffffffffffffffffffffffff1681526020019081526020015f2081905550614930816150fd565b61493a8483615295565b8773ffffffffffffffffffffffffffffffffffffffff168973ffffffffffffffffffffffffffffffffffffffff167fddf252ad1be2c89b69c2b068fc378daa952ba7f163c4a11628f55a4df523b3ef8560405161499791906154e4565b60405180910390a3505050505050505050565b5f805f805f806149b987613941565b955095509550955095509550614a158660035f8c73ffffffffffffffffffffffffffffffffffffffff1673ffffffffffffffffffffffffffffffffffffffff1681526020019081526020015f205461399690919063ffffffff16565b60035f8b73ffffffffffffffffffffffffffffffffffffffff1673ffffffffffffffffffffffffffffffffffffffff1681526020019081526020015f2081905550614aa68360045f8b73ffffffffffffffffffffffffffffffffffffffff1673ffffffffffffffffffffffffffffffffffffffff1681526020019081526020015f20546138e490919063ffffffff16565b60045f8a73ffffffffffffffffffffffffffffffffffffffff1673ffffffffffffffffffffffffffffffffffffffff1681526020019081526020015f2081905550614b378560035f8b73ffffffffffffffffffffffffffffffffffffffff1673ffffffffffffffffffffffffffffffffffffffff1681526020019081526020015f20546138e490919063ffffffff16565b60035f8a73ffffffffffffffffffffffffffffffffffffffff1673ffffffffffffffffffffffffffffffffffffffff1681526020019081526020015f2081905550614b81816150fd565b614b8b8483615295565b8773ffffffffffffffffffffffffffffffffffffffff168973ffffffffffffffffffffffffffffffffffffffff167fddf252ad1be2c89b69c2b068fc378daa952ba7f163c4a11628f55a4df523b3ef85604051614be891906154e4565b60405180910390a3505050505050505050565b5f805f805f80614c0a87613941565b955095509550955095509550614c668660035f8c73ffffffffffffffffffffffffffffffffffffffff1673ffffffffffffffffffffffffffffffffffffffff1681526020019081526020015f205461399690919063ffffffff16565b60035f8b73ffffffffffffffffffffffffffffffffffffffff1673ffffffffffffffffffffffffffffffffffffffff1681526020019081526020015f2081905550614cf78560035f8b73ffffffffffffffffffffffffffffffffffffffff1673ffffffffffffffffffffffffffffffffffffffff1681526020019081526020015f20546138e490919063ffffffff16565b60035f8a73ffffffffffffffffffffffffffffffffffffffff1673ffffffffffffffffffffffffffffffffffffffff1681526020019081526020015f2081905550614d41816150fd565b614d4b8483615295565b8773ffffffffffffffffffffffffffffffffffffffff168973ffffffffffffffffffffffffffffffffffffffff167fddf252ad1be2c89b69c2b068fc378daa952ba7f163c4a11628f55a4df523b3ef85604051614da891906154e4565b60405180910390a3505050505050505050565b5f805f805f80614dca87613941565b955095509550955095509550614e268760045f8c73ffffffffffffffffffffffffffffffffffffffff1673ffffffffffffffffffffffffffffffffffffffff1681526020019081526020015f205461399690919063ffffffff16565b60045f8b73ffffffffffffffffffffffffffffffffffffffff1673ffffffffffffffffffffffffffffffffffffffff1681526020019081526020015f2081905550614eb78660035f8c73ffffffffffffffffffffffffffffffffffffffff1673ffffffffffffffffffffffffffffffffffffffff1681526020019081526020015f205461399690919063ffffffff16565b60035f8b73ffffffffffffffffffffffffffffffffffffffff1673ffffffffffffffffffffffffffffffffffffffff1681526020019081526020015f2081905550614f488360045f8b73ffffffffffffffffffffffffffffffffffffffff1673ffffffffffffffffffffffffffffffffffffffff1681526020019081526020015f20546138e490919063ffffffff16565b60045f8a73ffffffffffffffffffffffffffffffffffffffff1673ffffffffffffffffffffffffffffffffffffffff1681526020019081526020015f2081905550614fd98560035f8b73ffffffffffffffffffffffffffffffffffffffff1673ffffffffffffffffffffffffffffffffffffffff1681526020019081526020015f20546138e490919063ffffffff16565b60035f8a73ffffffffffffffffffffffffffffffffffffffff1673ffffffffffffffffffffffffffffffffffffffff1681526020019081526020015f2081905550615023816150fd565b61502d8483615295565b8773ffffffffffffffffffffffffffffffffffffffff168973ffffffffffffffffffffffffffffffffffffffff167fddf252ad1be2c89b69c2b068fc378daa952ba7f163c4a11628f55a4df523b3ef8560405161508a91906154e4565b60405180910390a3505050505050505050565b5f6150c660646150b86012548561460490919063ffffffff16565b61389b90919063ffffffff16565b9050919050565b5f6150f660646150e86015548561460490919063ffffffff16565b61389b90919063ffffffff16565b9050919050565b5f615106613872565b90505f61511c828461460490919063ffffffff16565b905061516e8160035f3073ffffffffffffffffffffffffffffffffffffffff1673ffffffffffffffffffffffffffffffffffffffff1681526020019081526020015f20546138e490919063ffffffff16565b60035f3073ffffffffffffffffffffffffffffffffffffffff1673ffffffffffffffffffffffffffffffffffffffff1681526020019081526020015f208190555060075f3073ffffffffffffffffffffffffffffffffffffffff1673ffffffffffffffffffffffffffffffffffffffff1681526020019081526020015f205f9054906101000a900460ff16156152905761524e8360045f3073ffffffffffffffffffffffffffffffffffffffff1673ffffffffffffffffffffffffffffffffffffffff1681526020019081526020015f20546138e490919063ffffffff16565b60045f3073ffffffffffffffffffffffffffffffffffffffff1673ffffffffffffffffffffffffffffffffffffffff1681526020019081526020015f20819055505b505050565b6152aa82600c5461399690919063ffffffff16565b600c819055506152c581600d546138e490919063ffffffff16565b600d819055505050565b5f80fd5b5f80fd5b5f73ffffffffffffffffffffffffffffffffffffffff82169050919050565b5f615300826152d7565b9050919050565b615310816152f6565b811461531a575f80fd5b50565b5f8135905061532b81615307565b92915050565b5f60208284031215615346576153456152cf565b5b5f6153538482850161531d565b91505092915050565b5f819050919050565b61536e8161535c565b8114615378575f80fd5b50565b5f8135905061538981615365565b92915050565b5f602082840312156153a4576153a36152cf565b5b5f6153b18482850161537b565b91505092915050565b5f81519050919050565b5f82825260208201905092915050565b5f5b838110156153f15780820151818401526020810190506153d6565b5f8484015250505050565b5f601f19601f8301169050919050565b5f615416826153ba565b61542081856153c4565b93506154308185602086016153d4565b615439816153fc565b840191505092915050565b5f6020820190508181035f83015261545c818461540c565b905092915050565b5f806040838503121561547a576154796152cf565b5b5f6154878582860161531d565b92505060206154988582860161537b565b9150509250929050565b5f8115159050919050565b6154b6816154a2565b82525050565b5f6020820190506154cf5f8301846154ad565b92915050565b6154de8161535c565b82525050565b5f6020820190506154f75f8301846154d5565b92915050565b5f819050919050565b5f61552061551b615516846152d7565b6154fd565b6152d7565b9050919050565b5f61553182615506565b9050919050565b5f61554282615527565b9050919050565b61555281615538565b82525050565b5f60208201905061556b5f830184615549565b92915050565b5f805f60608486031215615588576155876152cf565b5b5f6155958682870161531d565b93505060206155a68682870161531d565b92505060406155b78682870161537b565b9150509250925092565b5f60ff82169050919050565b6155d6816155c1565b82525050565b5f6020820190506155ef5f8301846155cd565b92915050565b5f6155ff826152f6565b9050919050565b61560f816155f5565b8114615619575f80fd5b50565b5f8135905061562a81615606565b92915050565b5f8060408385031215615646576156456152cf565b5b5f6156538582860161561c565b92505060206156648582860161531d565b9150509250929050565b615677816154a2565b8114615681575f80fd5b50565b5f813590506156928161566e565b92915050565b5f80604083850312156156ae576156ad6152cf565b5b5f6156bb8582860161537b565b92505060206156cc85828601615684565b9150509250929050565b6156df816152f6565b82525050565b5f6020820190506156f85f8301846156d6565b92915050565b5f615708826152d7565b9050919050565b615718816156fe565b8114615722575f80fd5b50565b5f813590506157338161570f565b92915050565b5f6020828403121561574e5761574d6152cf565b5b5f61575b84828501615725565b91505092915050565b5f60208284031215615779576157786152cf565b5b5f61578684828501615684565b91505092915050565b5f80fd5b5f80fd5b5f80fd5b5f8083601f8401126157b0576157af61578f565b5b8235905067ffffffffffffffff8111156157cd576157cc615793565b5b6020830191508360208202830111156157e9576157e8615797565b5b9250929050565b5f8083601f8401126158055761580461578f565b5b8235905067ffffffffffffffff81111561582257615821615793565b5b60208301915083602082028301111561583e5761583d615797565b5b9250929050565b5f805f806040858703121561585d5761585c6152cf565b5b5f85013567ffffffffffffffff81111561587a576158796152d3565b5b6158868782880161579b565b9450945050602085013567ffffffffffffffff8111156158a9576158a86152d3565b5b6158b5878288016157f0565b925092505092959194509250565b5f80604083850312156158d9576158d86152cf565b5b5f6158e68582860161531d565b92505060206158f78582860161531d565b9150509250929050565b7f4f776e61626c653a2063616c6c6572206973206e6f7420746865206f776e65725f82015250565b5f6159356020836153c4565b915061594082615901565b602082019050919050565b5f6020820190508181035f83015261596281615929565b9050919050565b7f546178206665652063616e6e6f74206265206d6f7265207468616e20313025005f82015250565b5f61599d601f836153c4565b91506159a882615969565b602082019050919050565b5f6020820190508181035f8301526159ca81615991565b9050919050565b7f4e487b71000000000000000000000000000000000000000000000000000000005f52602260045260245ffd5b5f6002820490506001821680615a1557607f821691505b602082108103615a2857615a276159d1565b5b50919050565b7f53776170205468726573686f6c6420416d6f756e742063616e6e6f74206265205f8201527f6c657373207468616e203639204d696c6c696f6e000000000000000000000000602082015250565b5f615a886034836153c4565b9150615a9382615a2e565b604082019050919050565b5f6020820190508181035f830152615ab581615a7c565b9050919050565b7f4e487b71000000000000000000000000000000000000000000000000000000005f52601160045260245ffd5b5f615af38261535c565b9150615afe8361535c565b9250828202615b0c8161535c565b91508282048414831517615b2357615b22615abc565b5b5092915050565b7f416d6f756e74206d757374206265206c657373207468616e20746f74616c20725f8201527f65666c656374696f6e7300000000000000000000000000000000000000000000602082015250565b5f615b84602a836153c4565b9150615b8f82615b2a565b604082019050919050565b5f6020820190508181035f830152615bb181615b78565b9050919050565b7f4163636f756e7420697320616c7265616479206578636c7564656400000000005f82015250565b5f615bec601b836153c4565b9150615bf782615bb8565b602082019050919050565b5f6020820190508181035f830152615c1981615be0565b9050919050565b7f4e487b71000000000000000000000000000000000000000000000000000000005f52603260045260245ffd5b5f615c578261535c565b9150615c628361535c565b9250828203905081811115615c7a57615c79615abc565b5b92915050565b7f4e487b71000000000000000000000000000000000000000000000000000000005f52603160045260245ffd5b5f615cb78261535c565b91507fffffffffffffffffffffffffffffffffffffffffffffffffffffffffffffffff8203615ce957615ce8615abc565b5b600182019050919050565b5f81519050615d0281615365565b92915050565b5f60208284031215615d1d57615d1c6152cf565b5b5f615d2a84828501615cf4565b91505092915050565b5f604082019050615d465f8301856156d6565b615d5360208301846154d5565b9392505050565b5f81519050615d688161566e565b92915050565b5f60208284031215615d8357615d826152cf565b5b5f615d9084828501615d5a565b91505092915050565b7f4578636c75646564206164647265737365732063616e6e6f742063616c6c20745f8201527f6869732066756e6374696f6e0000000000000000000000000000000000000000602082015250565b5f615df3602c836153c4565b9150615dfe82615d99565b604082019050919050565b5f6020820190508181035f830152615e2081615de7565b9050919050565b7f416d6f756e74206d757374206265206c657373207468616e20737570706c79005f82015250565b5f615e5b601f836153c4565b9150615e6682615e27565b602082019050919050565b5f6020820190508181035f830152615e8881615e4f565b9050919050565b7f4d61726b6574696e67206665652063616e6e6f74206265206d6f7265207468615f8201527f6e20353025206f66206c69717569646974790000000000000000000000000000602082015250565b5f615ee96032836153c4565b9150615ef482615e8f565b604082019050919050565b5f6020820190508181035f830152615f1681615edd565b9050919050565b7f596f7520646f6e27742068617665207065726d697373696f6e20746f20756e6c5f8201527f6f636b0000000000000000000000000000000000000000000000000000000000602082015250565b5f615f776023836153c4565b9150615f8282615f1d565b604082019050919050565b5f6020820190508181035f830152615fa481615f6b565b9050919050565b7f436f6e7472616374206973206c6f636b656420756e74696c20372064617973005f82015250565b5f615fdf601f836153c4565b9150615fea82615fab565b602082019050919050565b5f6020820190508181035f83015261600c81615fd3565b9050919050565b7f6d757374206265207468652073616d65206c656e6774680000000000000000005f82015250565b5f6160476017836153c4565b915061605282616013565b602082019050919050565b5f6020820190508181035f8301526160748161603b565b9050919050565b5f6160858261535c565b91506160908361535c565b92508282019050808211156160a8576160a7615abc565b5b92915050565b7f4d617820547820416d6f756e742063616e6e6f74206265206c657373207468615f8201527f6e203639204d696c6c696f6e0000000000000000000000000000000000000000602082015250565b5f616108602c836153c4565b9150616113826160ae565b604082019050919050565b5f6020820190508181035f830152616135816160fc565b9050919050565b7f4f776e61626c653a206e6577206f776e657220697320746865207a65726f20615f8201527f6464726573730000000000000000000000000000000000000000000000000000602082015250565b5f6161966026836153c4565b91506161a18261613c565b604082019050919050565b5f6020820190508181035f8301526161c38161618a565b9050919050565b7f45524332303a20617070726f76652066726f6d20746865207a65726f206164645f8201527f7265737300000000000000000000000000000000000000000000000000000000602082015250565b5f6162246024836153c4565b915061622f826161ca565b604082019050919050565b5f6020820190508181035f83015261625181616218565b9050919050565b7f45524332303a20617070726f766520746f20746865207a65726f2061646472655f8201527f7373000000000000000000000000000000000000000000000000000000000000602082015250565b5f6162b26022836153c4565b91506162bd82616258565b604082019050919050565b5f6020820190508181035f8301526162df816162a6565b9050919050565b7f45524332303a207472616e736665722066726f6d20746865207a65726f2061645f8201527f6472657373000000000000000000000000000000000000000000000000000000602082015250565b5f6163406025836153c4565b915061634b826162e6565b604082019050919050565b5f6020820190508181035f83015261636d81616334565b9050919050565b7f45524332303a207472616e7366657220746f20746865207a65726f20616464725f8201527f6573730000000000000000000000000000000000000000000000000000000000602082015250565b5f6163ce6023836153c4565b91506163d982616374565b604082019050919050565b5f6020820190508181035f8301526163fb816163c2565b9050919050565b7f5472616e7366657220616d6f756e74206d7573742062652067726561746572205f8201527f7468616e207a65726f0000000000000000000000000000000000000000000000602082015250565b5f61645c6029836153c4565b915061646782616402565b604082019050919050565b5f6020820190508181035f83015261648981616450565b9050919050565b7f5472616e7366657220616d6f756e74206578636565647320746865206d6178545f8201527f78416d6f756e742e000000000000000000000000000000000000000000000000602082015250565b5f6164ea6028836153c4565b91506164f582616490565b604082019050919050565b5f6020820190508181035f830152616517816164de565b9050919050565b7f536166654d6174683a206164646974696f6e206f766572666c6f7700000000005f82015250565b5f616552601b836153c4565b915061655d8261651e565b602082019050919050565b5f6020820190508181035f83015261657f81616546565b9050919050565b5f6060820190506165995f8301866154d5565b6165a660208301856154d5565b6165b360408301846154d5565b949350505050565b7f626f7473206172656e7420616c6c6f77656420746f20747261646500000000005f82015250565b5f6165ef601b836153c4565b91506165fa826165bb565b602082019050919050565b5f6020820190508181035f83015261661c816165e3565b9050919050565b7f4e487b71000000000000000000000000000000000000000000000000000000005f52601260045260245ffd5b5f61665a8261535c565b91506166658361535c565b92508261667557616674616623565b5b828204905092915050565b7f4e487b71000000000000000000000000000000000000000000000000000000005f52604160045260245ffd5b5f815190506166bb81615307565b92915050565b5f602082840312156166d6576166d56152cf565b5b5f6166e3848285016166ad565b91505092915050565b5f819050919050565b5f61670f61670a616705846166ec565b6154fd565b61535c565b9050919050565b61671f816166f5565b82525050565b5f81519050919050565b5f82825260208201905092915050565b5f819050602082019050919050565b616757816152f6565b82525050565b5f616768838361674e565b60208301905092915050565b5f602082019050919050565b5f61678a82616725565b616794818561672f565b935061679f8361673f565b805f5b838110156167cf5781516167b6888261675d565b97506167c183616774565b9250506001810190506167a2565b5085935050505092915050565b5f60a0820190506167ef5f8301886154d5565b6167fc6020830187616716565b818103604083015261680e8186616780565b905061681d60608301856156d6565b61682a60808301846154d5565b9695505050505050565b7f536166654d6174683a206d756c7469706c69636174696f6e206f766572666c6f5f8201527f7700000000000000000000000000000000000000000000000000000000000000602082015250565b5f61688e6021836153c4565b915061689982616834565b604082019050919050565b5f6020820190508181035f8301526168bb81616882565b9050919050565b5f60c0820190506168d55f8301896156d6565b6168e260208301886154d5565b6168ef6040830187616716565b6168fc6060830186616716565b61690960808301856156d6565b61691660a08301846154d5565b979650505050505050565b5f805f60608486031215616938576169376152cf565b5b5f61694586828701615cf4565b935050602061695686828701615cf4565b925050604061696786828701615cf4565b915050925092509256fe45524332303a207472616e7366657220616d6f756e74206578636565647320616c6c6f77616e636545524332303a2064656372656173656420616c6c6f77616e63652062656c6f77207a65726fa26469706673582212204f33790f10453988a2bd3e3bf8a662b9f8e12031e2bf46cb36badbd52904930164736f6c63430008140033",
			"opcodes": "PUSH1 0xC0 PUSH1 0x40 MSTORE PUSH0 PUSH1 0xA PUSH0 PUSH2 0x100 EXP DUP2 SLOAD DUP2 PUSH1 0xFF MUL NOT AND SWAP1 DUP4 ISZERO ISZERO MUL OR SWAP1 SSTORE POP PUSH0 PUSH1 0xA PUSH1 0x1 PUSH2 0x100 EXP DUP2 SLOAD DUP2 PUSH1 0xFF MUL NOT AND SWAP1 DUP4 ISZERO ISZERO MUL OR SWAP1 SSTORE POP PUSH11 0x52B7D2DCC80CD2E4000000 PUSH1 0xB SSTORE PUSH1 0xB SLOAD PUSH0 NOT PUSH3 0x57 SWAP2 SWAP1 PUSH3 0x5EA JUMP JUMPDEST PUSH0 NOT PUSH3 0x65 SWAP2 SWAP1 PUSH3 0x64E JUMP JUMPDEST PUSH1 0xC SSTORE PUSH1 0x40 MLOAD DUP1 PUSH1 0x40 ADD PUSH1 0x40 MSTORE DUP1 PUSH1 0xF DUP2 MSTORE PUSH1 0x20 ADD PUSH32 0x53616974616D6120496E7520322E300000000000000000000000000000000000 DUP2 MSTORE POP PUSH1 0xF SWAP1 DUP2 PUSH3 0xAE SWAP2 SWAP1 PUSH3 0x8E3 JUMP JUMPDEST POP PUSH1 0x40 MLOAD DUP1 PUSH1 0x40 ADD PUSH1 0x40 MSTORE DUP1 PUSH1 0xA DUP2 MSTORE PUSH1 0x20 ADD PUSH32 0x53414954414D41322E3000000000000000000000000000000000000000000000 DUP2 MSTORE POP PUSH1 0x10 SWAP1 DUP2 PUSH3 0xF5 SWAP2 SWAP1 PUSH3 0x8E3 JUMP JUMPDEST POP PUSH1 0x9 PUSH1 0x11 PUSH0 PUSH2 0x100 EXP DUP2 SLOAD DUP2 PUSH1 0xFF MUL NOT AND SWAP1 DUP4 PUSH1 0xFF AND MUL OR SWAP1 SSTORE POP PUSH1 0x1 PUSH1 0x12 SSTORE PUSH1 0x12 SLOAD PUSH1 0x13 SSTORE PUSH1 0x59 PUSH1 0x14 SSTORE PUSH1 0x4 PUSH1 0x15 SSTORE PUSH1 0x15 SLOAD PUSH1 0x16 SSTORE PUSH1 0x1 PUSH1 0x17 PUSH1 0x1 PUSH2 0x100 EXP DUP2 SLOAD DUP2 PUSH1 0xFF MUL NOT AND SWAP1 DUP4 ISZERO ISZERO MUL OR SWAP1 SSTORE POP PUSH11 0x1B4C0595A86AA1C1000000 PUSH1 0x18 SSTORE PUSH10 0x45E155FA0110FA400000 PUSH1 0x19 SSTORE CALLVALUE DUP1 ISZERO PUSH3 0x170 JUMPI PUSH0 DUP1 REVERT JUMPDEST POP PUSH0 PUSH3 0x182 PUSH3 0x586 PUSH1 0x20 SHL PUSH1 0x20 SHR JUMP JUMPDEST SWAP1 POP DUP1 PUSH0 DUP1 PUSH2 0x100 EXP DUP2 SLOAD DUP2 PUSH20 0xFFFFFFFFFFFFFFFFFFFFFFFFFFFFFFFFFFFFFFFF MUL NOT AND SWAP1 DUP4 PUSH20 0xFFFFFFFFFFFFFFFFFFFFFFFFFFFFFFFFFFFFFFFF AND MUL OR SWAP1 SSTORE POP DUP1 PUSH20 0xFFFFFFFFFFFFFFFFFFFFFFFFFFFFFFFFFFFFFFFF AND PUSH0 PUSH20 0xFFFFFFFFFFFFFFFFFFFFFFFFFFFFFFFFFFFFFFFF AND PUSH32 0x8BE0079C531659141344CD1FD0A4F28419497F9722A3DAAFE3B4186F6B6457E0 PUSH1 0x40 MLOAD PUSH1 0x40 MLOAD DUP1 SWAP2 SUB SWAP1 LOG3 POP PUSH1 0xC SLOAD PUSH1 0x3 PUSH0 PUSH3 0x234 PUSH3 0x586 PUSH1 0x20 SHL PUSH1 0x20 SHR JUMP JUMPDEST PUSH20 0xFFFFFFFFFFFFFFFFFFFFFFFFFFFFFFFFFFFFFFFF AND PUSH20 0xFFFFFFFFFFFFFFFFFFFFFFFFFFFFFFFFFFFFFFFF AND DUP2 MSTORE PUSH1 0x20 ADD SWAP1 DUP2 MSTORE PUSH1 0x20 ADD PUSH0 KECCAK256 DUP2 SWAP1 SSTORE POP PUSH0 PUSH20 0x7A250D5630B4CF539739DF2C5DACB4C659F2488D SWAP1 POP DUP1 PUSH20 0xFFFFFFFFFFFFFFFFFFFFFFFFFFFFFFFFFFFFFFFF AND PUSH4 0xC45A0155 PUSH1 0x40 MLOAD DUP2 PUSH4 0xFFFFFFFF AND PUSH1 0xE0 SHL DUP2 MSTORE PUSH1 0x4 ADD PUSH1 0x20 PUSH1 0x40 MLOAD DUP1 DUP4 SUB DUP2 DUP7 GAS STATICCALL ISZERO DUP1 ISZERO PUSH3 0x2D3 JUMPI RETURNDATASIZE PUSH0 DUP1 RETURNDATACOPY RETURNDATASIZE PUSH0 REVERT JUMPDEST POP POP POP POP PUSH1 0x40 MLOAD RETURNDATASIZE PUSH1 0x1F NOT PUSH1 0x1F DUP3 ADD AND DUP3 ADD DUP1 PUSH1 0x40 MSTORE POP DUP2 ADD SWAP1 PUSH3 0x2F9 SWAP2 SWAP1 PUSH3 0xA2C JUMP JUMPDEST PUSH20 0xFFFFFFFFFFFFFFFFFFFFFFFFFFFFFFFFFFFFFFFF AND PUSH4 0xC9C65396 ADDRESS DUP4 PUSH20 0xFFFFFFFFFFFFFFFFFFFFFFFFFFFFFFFFFFFFFFFF AND PUSH4 0xAD5C4648 PUSH1 0x40 MLOAD DUP2 PUSH4 0xFFFFFFFF AND PUSH1 0xE0 SHL DUP2 MSTORE PUSH1 0x4 ADD PUSH1 0x20 PUSH1 0x40 MLOAD DUP1 DUP4 SUB DUP2 DUP7 GAS STATICCALL ISZERO DUP1 ISZERO PUSH3 0x35F JUMPI RETURNDATASIZE PUSH0 DUP1 RETURNDATACOPY RETURNDATASIZE PUSH0 REVERT JUMPDEST POP POP POP POP PUSH1 0x40 MLOAD RETURNDATASIZE PUSH1 0x1F NOT PUSH1 0x1F DUP3 ADD AND DUP3 ADD DUP1 PUSH1 0x40 MSTORE POP DUP2 ADD SWAP1 PUSH3 0x385 SWAP2 SWAP1 PUSH3 0xA2C JUMP JUMPDEST PUSH1 0x40 MLOAD DUP4 PUSH4 0xFFFFFFFF AND PUSH1 0xE0 SHL DUP2 MSTORE PUSH1 0x4 ADD PUSH3 0x3A4 SWAP3 SWAP2 SWAP1 PUSH3 0xA6D JUMP JUMPDEST PUSH1 0x20 PUSH1 0x40 MLOAD DUP1 DUP4 SUB DUP2 PUSH0 DUP8 GAS CALL ISZERO DUP1 ISZERO PUSH3 0x3C1 JUMPI RETURNDATASIZE PUSH0 DUP1 RETURNDATACOPY RETURNDATASIZE PUSH0 REVERT JUMPDEST POP POP POP POP PUSH1 0x40 MLOAD RETURNDATASIZE PUSH1 0x1F NOT PUSH1 0x1F DUP3 ADD AND DUP3 ADD DUP1 PUSH1 0x40 MSTORE POP DUP2 ADD SWAP1 PUSH3 0x3E7 SWAP2 SWAP1 PUSH3 0xA2C JUMP JUMPDEST PUSH20 0xFFFFFFFFFFFFFFFFFFFFFFFFFFFFFFFFFFFFFFFF AND PUSH1 0xA0 DUP2 PUSH20 0xFFFFFFFFFFFFFFFFFFFFFFFFFFFFFFFFFFFFFFFF AND DUP2 MSTORE POP POP DUP1 PUSH20 0xFFFFFFFFFFFFFFFFFFFFFFFFFFFFFFFFFFFFFFFF AND PUSH1 0x80 DUP2 PUSH20 0xFFFFFFFFFFFFFFFFFFFFFFFFFFFFFFFFFFFFFFFF AND DUP2 MSTORE POP POP PUSH1 0x1 PUSH1 0x6 PUSH0 PUSH3 0x463 PUSH3 0x58D PUSH1 0x20 SHL PUSH1 0x20 SHR JUMP JUMPDEST PUSH20 0xFFFFFFFFFFFFFFFFFFFFFFFFFFFFFFFFFFFFFFFF AND PUSH20 0xFFFFFFFFFFFFFFFFFFFFFFFFFFFFFFFFFFFFFFFF AND DUP2 MSTORE PUSH1 0x20 ADD SWAP1 DUP2 MSTORE PUSH1 0x20 ADD PUSH0 KECCAK256 PUSH0 PUSH2 0x100 EXP DUP2 SLOAD DUP2 PUSH1 0xFF MUL NOT AND SWAP1 DUP4 ISZERO ISZERO MUL OR SWAP1 SSTORE POP PUSH1 0x1 PUSH1 0x6 PUSH0 ADDRESS PUSH20 0xFFFFFFFFFFFFFFFFFFFFFFFFFFFFFFFFFFFFFFFF AND PUSH20 0xFFFFFFFFFFFFFFFFFFFFFFFFFFFFFFFFFFFFFFFF AND DUP2 MSTORE PUSH1 0x20 ADD SWAP1 DUP2 MSTORE PUSH1 0x20 ADD PUSH0 KECCAK256 PUSH0 PUSH2 0x100 EXP DUP2 SLOAD DUP2 PUSH1 0xFF MUL NOT AND SWAP1 DUP4 ISZERO ISZERO MUL OR SWAP1 SSTORE POP PUSH3 0x517 PUSH3 0x586 PUSH1 0x20 SHL PUSH1 0x20 SHR JUMP JUMPDEST PUSH20 0xFFFFFFFFFFFFFFFFFFFFFFFFFFFFFFFFFFFFFFFF AND PUSH0 PUSH20 0xFFFFFFFFFFFFFFFFFFFFFFFFFFFFFFFFFFFFFFFF AND PUSH32 0xDDF252AD1BE2C89B69C2B068FC378DAA952BA7F163C4A11628F55A4DF523B3EF PUSH1 0xB SLOAD PUSH1 0x40 MLOAD PUSH3 0x577 SWAP2 SWAP1 PUSH3 0xAA9 JUMP JUMPDEST PUSH1 0x40 MLOAD DUP1 SWAP2 SUB SWAP1 LOG3 POP PUSH3 0xAC4 JUMP JUMPDEST PUSH0 CALLER SWAP1 POP SWAP1 JUMP JUMPDEST PUSH0 DUP1 PUSH0 SWAP1 SLOAD SWAP1 PUSH2 0x100 EXP SWAP1 DIV PUSH20 0xFFFFFFFFFFFFFFFFFFFFFFFFFFFFFFFFFFFFFFFF AND SWAP1 POP SWAP1 JUMP JUMPDEST PUSH0 DUP2 SWAP1 POP SWAP2 SWAP1 POP JUMP JUMPDEST PUSH32 0x4E487B7100000000000000000000000000000000000000000000000000000000 PUSH0 MSTORE PUSH1 0x12 PUSH1 0x4 MSTORE PUSH1 0x24 PUSH0 REVERT JUMPDEST PUSH0 PUSH3 0x5F6 DUP3 PUSH3 0x5B4 JUMP JUMPDEST SWAP2 POP PUSH3 0x603 DUP4 PUSH3 0x5B4 JUMP JUMPDEST SWAP3 POP DUP3 PUSH3 0x616 JUMPI PUSH3 0x615 PUSH3 0x5BD JUMP JUMPDEST JUMPDEST DUP3 DUP3 MOD SWAP1 POP SWAP3 SWAP2 POP POP JUMP JUMPDEST PUSH32 0x4E487B7100000000000000000000000000000000000000000000000000000000 PUSH0 MSTORE PUSH1 0x11 PUSH1 0x4 MSTORE PUSH1 0x24 PUSH0 REVERT JUMPDEST PUSH0 PUSH3 0x65A DUP3 PUSH3 0x5B4 JUMP JUMPDEST SWAP2 POP PUSH3 0x667 DUP4 PUSH3 0x5B4 JUMP JUMPDEST SWAP3 POP DUP3 DUP3 SUB SWAP1 POP DUP2 DUP2 GT ISZERO PUSH3 0x682 JUMPI PUSH3 0x681 PUSH3 0x621 JUMP JUMPDEST JUMPDEST SWAP3 SWAP2 POP POP JUMP JUMPDEST PUSH0 DUP2 MLOAD SWAP1 POP SWAP2 SWAP1 POP JUMP JUMPDEST PUSH32 0x4E487B7100000000000000000000000000000000000000000000000000000000 PUSH0 MSTORE PUSH1 0x41 PUSH1 0x4 MSTORE PUSH1 0x24 PUSH0 REVERT JUMPDEST PUSH32 0x4E487B7100000000000000000000000000000000000000000000000000000000 PUSH0 MSTORE PUSH1 0x22 PUSH1 0x4 MSTORE PUSH1 0x24 PUSH0 REVERT JUMPDEST PUSH0 PUSH1 0x2 DUP3 DIV SWAP1 POP PUSH1 0x1 DUP3 AND DUP1 PUSH3 0x704 JUMPI PUSH1 0x7F DUP3 AND SWAP2 POP JUMPDEST PUSH1 0x20 DUP3 LT DUP2 SUB PUSH3 0x71A JUMPI PUSH3 0x719 PUSH3 0x6BF JUMP JUMPDEST JUMPDEST POP SWAP2 SWAP1 POP JUMP JUMPDEST PUSH0 DUP2 SWAP1 POP DUP2 PUSH0 MSTORE PUSH1 0x20 PUSH0 KECCAK256 SWAP1 POP SWAP2 SWAP1 POP JUMP JUMPDEST PUSH0 PUSH1 0x20 PUSH1 0x1F DUP4 ADD DIV SWAP1 POP SWAP2 SWAP1 POP JUMP JUMPDEST PUSH0 DUP3 DUP3 SHL SWAP1 POP SWAP3 SWAP2 POP POP JUMP JUMPDEST PUSH0 PUSH1 0x8 DUP4 MUL PUSH3 0x77E PUSH32 0xFFFFFFFFFFFFFFFFFFFFFFFFFFFFFFFFFFFFFFFFFFFFFFFFFFFFFFFFFFFFFFFF DUP3 PUSH3 0x741 JUMP JUMPDEST PUSH3 0x78A DUP7 DUP4 PUSH3 0x741 JUMP JUMPDEST SWAP6 POP DUP1 NOT DUP5 AND SWAP4 POP DUP1 DUP7 AND DUP5 OR SWAP3 POP POP POP SWAP4 SWAP3 POP POP POP JUMP JUMPDEST PUSH0 DUP2 SWAP1 POP SWAP2 SWAP1 POP JUMP JUMPDEST PUSH0 PUSH3 0x7CB PUSH3 0x7C5 PUSH3 0x7BF DUP5 PUSH3 0x5B4 JUMP JUMPDEST PUSH3 0x7A2 JUMP JUMPDEST PUSH3 0x5B4 JUMP JUMPDEST SWAP1 POP SWAP2 SWAP1 POP JUMP JUMPDEST PUSH0 DUP2 SWAP1 POP SWAP2 SWAP1 POP JUMP JUMPDEST PUSH3 0x7E6 DUP4 PUSH3 0x7AB JUMP JUMPDEST PUSH3 0x7FE PUSH3 0x7F5 DUP3 PUSH3 0x7D2 JUMP JUMPDEST DUP5 DUP5 SLOAD PUSH3 0x74D JUMP JUMPDEST DUP3 SSTORE POP POP POP POP JUMP JUMPDEST PUSH0 SWAP1 JUMP JUMPDEST PUSH3 0x814 PUSH3 0x806 JUMP JUMPDEST PUSH3 0x821 DUP2 DUP5 DUP5 PUSH3 0x7DB JUMP JUMPDEST POP POP POP JUMP JUMPDEST JUMPDEST DUP2 DUP2 LT ISZERO PUSH3 0x848 JUMPI PUSH3 0x83C PUSH0 DUP3 PUSH3 0x80A JUMP JUMPDEST PUSH1 0x1 DUP2 ADD SWAP1 POP PUSH3 0x827 JUMP JUMPDEST POP POP JUMP JUMPDEST PUSH1 0x1F DUP3 GT ISZERO PUSH3 0x897 JUMPI PUSH3 0x861 DUP2 PUSH3 0x720 JUMP JUMPDEST PUSH3 0x86C DUP5 PUSH3 0x732 JUMP JUMPDEST DUP2 ADD PUSH1 0x20 DUP6 LT ISZERO PUSH3 0x87C JUMPI DUP2 SWAP1 POP JUMPDEST PUSH3 0x894 PUSH3 0x88B DUP6 PUSH3 0x732 JUMP JUMPDEST DUP4 ADD DUP3 PUSH3 0x826 JUMP JUMPDEST POP POP JUMPDEST POP POP POP JUMP JUMPDEST PUSH0 DUP3 DUP3 SHR SWAP1 POP SWAP3 SWAP2 POP POP JUMP JUMPDEST PUSH0 PUSH3 0x8B9 PUSH0 NOT DUP5 PUSH1 0x8 MUL PUSH3 0x89C JUMP JUMPDEST NOT DUP1 DUP4 AND SWAP2 POP POP SWAP3 SWAP2 POP POP JUMP JUMPDEST PUSH0 PUSH3 0x8D3 DUP4 DUP4 PUSH3 0x8A8 JUMP JUMPDEST SWAP2 POP DUP3 PUSH1 0x2 MUL DUP3 OR SWAP1 POP SWAP3 SWAP2 POP POP JUMP JUMPDEST PUSH3 0x8EE DUP3 PUSH3 0x688 JUMP JUMPDEST PUSH8 0xFFFFFFFFFFFFFFFF DUP2 GT ISZERO PUSH3 0x90A JUMPI PUSH3 0x909 PUSH3 0x692 JUMP JUMPDEST JUMPDEST PUSH3 0x916 DUP3 SLOAD PUSH3 0x6EC JUMP JUMPDEST PUSH3 0x923 DUP3 DUP3 DUP6 PUSH3 0x84C JUMP JUMPDEST PUSH0 PUSH1 0x20 SWAP1 POP PUSH1 0x1F DUP4 GT PUSH1 0x1 DUP2 EQ PUSH3 0x959 JUMPI PUSH0 DUP5 ISZERO PUSH3 0x944 JUMPI DUP3 DUP8 ADD MLOAD SWAP1 POP JUMPDEST PUSH3 0x950 DUP6 DUP3 PUSH3 0x8C6 JUMP JUMPDEST DUP7 SSTORE POP PUSH3 0x9BF JUMP JUMPDEST PUSH1 0x1F NOT DUP5 AND PUSH3 0x969 DUP7 PUSH3 0x720 JUMP JUMPDEST PUSH0 JUMPDEST DUP3 DUP2 LT ISZERO PUSH3 0x992 JUMPI DUP5 DUP10 ADD MLOAD DUP3 SSTORE PUSH1 0x1 DUP3 ADD SWAP2 POP PUSH1 0x20 DUP6 ADD SWAP5 POP PUSH1 0x20 DUP2 ADD SWAP1 POP PUSH3 0x96B JUMP JUMPDEST DUP7 DUP4 LT ISZERO PUSH3 0x9B2 JUMPI DUP5 DUP10 ADD MLOAD PUSH3 0x9AE PUSH1 0x1F DUP10 AND DUP3 PUSH3 0x8A8 JUMP JUMPDEST DUP4 SSTORE POP JUMPDEST PUSH1 0x1 PUSH1 0x2 DUP9 MUL ADD DUP9 SSTORE POP POP POP JUMPDEST POP POP POP POP POP POP JUMP JUMPDEST PUSH0 DUP1 REVERT JUMPDEST PUSH0 PUSH20 0xFFFFFFFFFFFFFFFFFFFFFFFFFFFFFFFFFFFFFFFF DUP3 AND SWAP1 POP SWAP2 SWAP1 POP JUMP JUMPDEST PUSH0 PUSH3 0x9F6 DUP3 PUSH3 0x9CB JUMP JUMPDEST SWAP1 POP SWAP2 SWAP1 POP JUMP JUMPDEST PUSH3 0xA08 DUP2 PUSH3 0x9EA JUMP JUMPDEST DUP2 EQ PUSH3 0xA13 JUMPI PUSH0 DUP1 REVERT JUMPDEST POP JUMP JUMPDEST PUSH0 DUP2 MLOAD SWAP1 POP PUSH3 0xA26 DUP2 PUSH3 0x9FD JUMP JUMPDEST SWAP3 SWAP2 POP POP JUMP JUMPDEST PUSH0 PUSH1 0x20 DUP3 DUP5 SUB SLT ISZERO PUSH3 0xA44 JUMPI PUSH3 0xA43 PUSH3 0x9C7 JUMP JUMPDEST JUMPDEST PUSH0 PUSH3 0xA53 DUP5 DUP3 DUP6 ADD PUSH3 0xA16 JUMP JUMPDEST SWAP2 POP POP SWAP3 SWAP2 POP POP JUMP JUMPDEST PUSH3 0xA67 DUP2 PUSH3 0x9EA JUMP JUMPDEST DUP3 MSTORE POP POP JUMP JUMPDEST PUSH0 PUSH1 0x40 DUP3 ADD SWAP1 POP PUSH3 0xA82 PUSH0 DUP4 ADD DUP6 PUSH3 0xA5C JUMP JUMPDEST PUSH3 0xA91 PUSH1 0x20 DUP4 ADD DUP5 PUSH3 0xA5C JUMP JUMPDEST SWAP4 SWAP3 POP POP POP JUMP JUMPDEST PUSH3 0xAA3 DUP2 PUSH3 0x5B4 JUMP JUMPDEST DUP3 MSTORE POP POP JUMP JUMPDEST PUSH0 PUSH1 0x20 DUP3 ADD SWAP1 POP PUSH3 0xABE PUSH0 DUP4 ADD DUP5 PUSH3 0xA98 JUMP JUMPDEST SWAP3 SWAP2 POP POP JUMP JUMPDEST PUSH1 0x80 MLOAD PUSH1 0xA0 MLOAD PUSH2 0x69F4 PUSH3 0xB1E PUSH0 CODECOPY PUSH0 DUP2 DUP2 PUSH2 0x1C62 ADD MSTORE DUP2 DUP2 PUSH2 0x3627 ADD MSTORE DUP2 DUP2 PUSH2 0x374D ADD MSTORE PUSH2 0x37A4 ADD MSTORE PUSH0 DUP2 DUP2 PUSH2 0xEBE ADD MSTORE DUP2 DUP2 PUSH2 0x446E ADD MSTORE DUP2 DUP2 PUSH2 0x454D ADD MSTORE DUP2 DUP2 PUSH2 0x4574 ADD MSTORE DUP2 DUP2 PUSH2 0x4681 ADD MSTORE PUSH2 0x46A8 ADD MSTORE PUSH2 0x69F4 PUSH0 RETURN INVALID PUSH1 0x80 PUSH1 0x40 MSTORE PUSH1 0x4 CALLDATASIZE LT PUSH2 0x31D JUMPI PUSH0 CALLDATALOAD PUSH1 0xE0 SHR DUP1 PUSH4 0x5D098B38 GT PUSH2 0x1AA JUMPI DUP1 PUSH4 0xA457C2D7 GT PUSH2 0xF6 JUMPI DUP1 PUSH4 0xD4A3883F GT PUSH2 0x94 JUMPI DUP1 PUSH4 0xDD62ED3E GT PUSH2 0x6E JUMPI DUP1 PUSH4 0xDD62ED3E EQ PUSH2 0xB86 JUMPI DUP1 PUSH4 0xEA2F0B37 EQ PUSH2 0xBC2 JUMPI DUP1 PUSH4 0xEC28438A EQ PUSH2 0xBEA JUMPI DUP1 PUSH4 0xF2FDE38B EQ PUSH2 0xC12 JUMPI PUSH2 0x324 JUMP JUMPDEST DUP1 PUSH4 0xD4A3883F EQ PUSH2 0xB0C JUMPI DUP1 PUSH4 0xDA6FA55C EQ PUSH2 0xB34 JUMPI DUP1 PUSH4 0xDD467064 EQ PUSH2 0xB5E JUMPI PUSH2 0x324 JUMP JUMPDEST DUP1 PUSH4 0xA9059CBB GT PUSH2 0xD0 JUMPI DUP1 PUSH4 0xA9059CBB EQ PUSH2 0xA54 JUMPI DUP1 PUSH4 0xB6C52324 EQ PUSH2 0xA90 JUMPI DUP1 PUSH4 0xC49B9A80 EQ PUSH2 0xABA JUMPI DUP1 PUSH4 0xD12A7688 EQ PUSH2 0xAE2 JUMPI PUSH2 0x324 JUMP JUMPDEST DUP1 PUSH4 0xA457C2D7 EQ PUSH2 0x9EC JUMPI DUP1 PUSH4 0xA6334231 EQ PUSH2 0xA28 JUMPI DUP1 PUSH4 0xA69DF4B5 EQ PUSH2 0xA3E JUMPI PUSH2 0x324 JUMP JUMPDEST DUP1 PUSH4 0x764D72BF GT PUSH2 0x163 JUMPI DUP1 PUSH4 0x8BA4CC3C GT PUSH2 0x13D JUMPI DUP1 PUSH4 0x8BA4CC3C EQ PUSH2 0x948 JUMPI DUP1 PUSH4 0x8DA5CB5B EQ PUSH2 0x970 JUMPI DUP1 PUSH4 0x8EE88C53 EQ PUSH2 0x99A JUMPI DUP1 PUSH4 0x95D89B41 EQ PUSH2 0x9C2 JUMPI PUSH2 0x324 JUMP JUMPDEST DUP1 PUSH4 0x764D72BF EQ PUSH2 0x8BA JUMPI DUP1 PUSH4 0x7D1DB4A5 EQ PUSH2 0x8E2 JUMPI DUP1 PUSH4 0x88F82020 EQ PUSH2 0x90C JUMPI PUSH2 0x324 JUMP JUMPDEST DUP1 PUSH4 0x5D098B38 EQ PUSH2 0x7B0 JUMPI DUP1 PUSH4 0x60D48489 EQ PUSH2 0x7D8 JUMPI DUP1 PUSH4 0x6BC87C3A EQ PUSH2 0x814 JUMPI DUP1 PUSH4 0x70A08231 EQ PUSH2 0x83E JUMPI DUP1 PUSH4 0x715018A6 EQ PUSH2 0x87A JUMPI DUP1 PUSH4 0x75F0A874 EQ PUSH2 0x890 JUMPI PUSH2 0x324 JUMP JUMPDEST DUP1 PUSH4 0x3685D419 GT PUSH2 0x269 JUMPI DUP1 PUSH4 0x4549B039 GT PUSH2 0x222 JUMPI DUP1 PUSH4 0x49BD5A5E GT PUSH2 0x1FC JUMPI DUP1 PUSH4 0x49BD5A5E EQ PUSH2 0x6F8 JUMPI DUP1 PUSH4 0x4A74BB02 EQ PUSH2 0x722 JUMPI DUP1 PUSH4 0x52390C02 EQ PUSH2 0x74C JUMPI DUP1 PUSH4 0x5342ACB4 EQ PUSH2 0x774 JUMPI PUSH2 0x324 JUMP JUMPDEST DUP1 PUSH4 0x4549B039 EQ PUSH2 0x67E JUMPI DUP1 PUSH4 0x457C194C EQ PUSH2 0x6BA JUMPI DUP1 PUSH4 0x48C54B9D EQ PUSH2 0x6E2 JUMPI PUSH2 0x324 JUMP JUMPDEST DUP1 PUSH4 0x3685D419 EQ PUSH2 0x578 JUMPI DUP1 PUSH4 0x39509351 EQ PUSH2 0x5A0 JUMPI DUP1 PUSH4 0x3AE7DC20 EQ PUSH2 0x5DC JUMPI DUP1 PUSH4 0x3B124FE7 EQ PUSH2 0x604 JUMPI DUP1 PUSH4 0x3BD5D173 EQ PUSH2 0x62E JUMPI DUP1 PUSH4 0x437823EC EQ PUSH2 0x656 JUMPI PUSH2 0x324 JUMP JUMPDEST DUP1 PUSH4 0x18160DDD GT PUSH2 0x2D6 JUMPI DUP1 PUSH4 0x2A360631 GT PUSH2 0x2B0 JUMPI DUP1 PUSH4 0x2A360631 EQ PUSH2 0x4C0 JUMPI DUP1 PUSH4 0x2D838119 EQ PUSH2 0x4E8 JUMPI DUP1 PUSH4 0x2F05205C EQ PUSH2 0x524 JUMPI DUP1 PUSH4 0x313CE567 EQ PUSH2 0x54E JUMPI PUSH2 0x324 JUMP JUMPDEST DUP1 PUSH4 0x18160DDD EQ PUSH2 0x432 JUMPI DUP1 PUSH4 0x23B872DD EQ PUSH2 0x45C JUMPI DUP1 PUSH4 0x29E04B4A EQ PUSH2 0x498 JUMPI PUSH2 0x324 JUMP JUMPDEST DUP1 PUSH4 0x305CAFF EQ PUSH2 0x328 JUMPI DUP1 PUSH4 0x61C82D0 EQ PUSH2 0x350 JUMPI DUP1 PUSH4 0x6FDDE03 EQ PUSH2 0x378 JUMPI DUP1 PUSH4 0x95EA7B3 EQ PUSH2 0x3A2 JUMPI DUP1 PUSH4 0x13114A9D EQ PUSH2 0x3DE JUMPI DUP1 PUSH4 0x1694505E EQ PUSH2 0x408 JUMPI PUSH2 0x324 JUMP JUMPDEST CALLDATASIZE PUSH2 0x324 JUMPI STOP JUMPDEST PUSH0 DUP1 REVERT JUMPDEST CALLVALUE DUP1 ISZERO PUSH2 0x333 JUMPI PUSH0 DUP1 REVERT JUMPDEST POP PUSH2 0x34E PUSH1 0x4 DUP1 CALLDATASIZE SUB DUP2 ADD SWAP1 PUSH2 0x349 SWAP2 SWAP1 PUSH2 0x5331 JUMP JUMPDEST PUSH2 0xC3A JUMP JUMPDEST STOP JUMPDEST CALLVALUE DUP1 ISZERO PUSH2 0x35B JUMPI PUSH0 DUP1 REVERT JUMPDEST POP PUSH2 0x376 PUSH1 0x4 DUP1 CALLDATASIZE SUB DUP2 ADD SWAP1 PUSH2 0x371 SWAP2 SWAP1 PUSH2 0x538F JUMP JUMPDEST PUSH2 0xD25 JUMP JUMPDEST STOP JUMPDEST CALLVALUE DUP1 ISZERO PUSH2 0x383 JUMPI PUSH0 DUP1 REVERT JUMPDEST POP PUSH2 0x38C PUSH2 0xE06 JUMP JUMPDEST PUSH1 0x40 MLOAD PUSH2 0x399 SWAP2 SWAP1 PUSH2 0x5444 JUMP JUMPDEST PUSH1 0x40 MLOAD DUP1 SWAP2 SUB SWAP1 RETURN JUMPDEST CALLVALUE DUP1 ISZERO PUSH2 0x3AD JUMPI PUSH0 DUP1 REVERT JUMPDEST POP PUSH2 0x3C8 PUSH1 0x4 DUP1 CALLDATASIZE SUB DUP2 ADD SWAP1 PUSH2 0x3C3 SWAP2 SWAP1 PUSH2 0x5464 JUMP JUMPDEST PUSH2 0xE96 JUMP JUMPDEST PUSH1 0x40 MLOAD PUSH2 0x3D5 SWAP2 SWAP1 PUSH2 0x54BC JUMP JUMPDEST PUSH1 0x40 MLOAD DUP1 SWAP2 SUB SWAP1 RETURN JUMPDEST CALLVALUE DUP1 ISZERO PUSH2 0x3E9 JUMPI PUSH0 DUP1 REVERT JUMPDEST POP PUSH2 0x3F2 PUSH2 0xEB3 JUMP JUMPDEST PUSH1 0x40 MLOAD PUSH2 0x3FF SWAP2 SWAP1 PUSH2 0x54E4 JUMP JUMPDEST PUSH1 0x40 MLOAD DUP1 SWAP2 SUB SWAP1 RETURN JUMPDEST CALLVALUE DUP1 ISZERO PUSH2 0x413 JUMPI PUSH0 DUP1 REVERT JUMPDEST POP PUSH2 0x41C PUSH2 0xEBC JUMP JUMPDEST PUSH1 0x40 MLOAD PUSH2 0x429 SWAP2 SWAP1 PUSH2 0x5558 JUMP JUMPDEST PUSH1 0x40 MLOAD DUP1 SWAP2 SUB SWAP1 RETURN JUMPDEST CALLVALUE DUP1 ISZERO PUSH2 0x43D JUMPI PUSH0 DUP1 REVERT JUMPDEST POP PUSH2 0x446 PUSH2 0xEE0 JUMP JUMPDEST PUSH1 0x40 MLOAD PUSH2 0x453 SWAP2 SWAP1 PUSH2 0x54E4 JUMP JUMPDEST PUSH1 0x40 MLOAD DUP1 SWAP2 SUB SWAP1 RETURN JUMPDEST CALLVALUE DUP1 ISZERO PUSH2 0x467 JUMPI PUSH0 DUP1 REVERT JUMPDEST POP PUSH2 0x482 PUSH1 0x4 DUP1 CALLDATASIZE SUB DUP2 ADD SWAP1 PUSH2 0x47D SWAP2 SWAP1 PUSH2 0x5571 JUMP JUMPDEST PUSH2 0xEE9 JUMP JUMPDEST PUSH1 0x40 MLOAD PUSH2 0x48F SWAP2 SWAP1 PUSH2 0x54BC JUMP JUMPDEST PUSH1 0x40 MLOAD DUP1 SWAP2 SUB SWAP1 RETURN JUMPDEST CALLVALUE DUP1 ISZERO PUSH2 0x4A3 JUMPI PUSH0 DUP1 REVERT JUMPDEST POP PUSH2 0x4BE PUSH1 0x4 DUP1 CALLDATASIZE SUB DUP2 ADD SWAP1 PUSH2 0x4B9 SWAP2 SWAP1 PUSH2 0x538F JUMP JUMPDEST PUSH2 0xFBD JUMP JUMPDEST STOP JUMPDEST CALLVALUE DUP1 ISZERO PUSH2 0x4CB JUMPI PUSH0 DUP1 REVERT JUMPDEST POP PUSH2 0x4E6 PUSH1 0x4 DUP1 CALLDATASIZE SUB DUP2 ADD SWAP1 PUSH2 0x4E1 SWAP2 SWAP1 PUSH2 0x5331 JUMP JUMPDEST PUSH2 0x10B0 JUMP JUMPDEST STOP JUMPDEST CALLVALUE DUP1 ISZERO PUSH2 0x4F3 JUMPI PUSH0 DUP1 REVERT JUMPDEST POP PUSH2 0x50E PUSH1 0x4 DUP1 CALLDATASIZE SUB DUP2 ADD SWAP1 PUSH2 0x509 SWAP2 SWAP1 PUSH2 0x538F JUMP JUMPDEST PUSH2 0x119C JUMP JUMPDEST PUSH1 0x40 MLOAD PUSH2 0x51B SWAP2 SWAP1 PUSH2 0x54E4 JUMP JUMPDEST PUSH1 0x40 MLOAD DUP1 SWAP2 SUB SWAP1 RETURN JUMPDEST CALLVALUE DUP1 ISZERO PUSH2 0x52F JUMPI PUSH0 DUP1 REVERT JUMPDEST POP PUSH2 0x538 PUSH2 0x1208 JUMP JUMPDEST PUSH1 0x40 MLOAD PUSH2 0x545 SWAP2 SWAP1 PUSH2 0x54BC JUMP JUMPDEST PUSH1 0x40 MLOAD DUP1 SWAP2 SUB SWAP1 RETURN JUMPDEST CALLVALUE DUP1 ISZERO PUSH2 0x559 JUMPI PUSH0 DUP1 REVERT JUMPDEST POP PUSH2 0x562 PUSH2 0x121B JUMP JUMPDEST PUSH1 0x40 MLOAD PUSH2 0x56F SWAP2 SWAP1 PUSH2 0x55DC JUMP JUMPDEST PUSH1 0x40 MLOAD DUP1 SWAP2 SUB SWAP1 RETURN JUMPDEST CALLVALUE DUP1 ISZERO PUSH2 0x583 JUMPI PUSH0 DUP1 REVERT JUMPDEST POP PUSH2 0x59E PUSH1 0x4 DUP1 CALLDATASIZE SUB DUP2 ADD SWAP1 PUSH2 0x599 SWAP2 SWAP1 PUSH2 0x5331 JUMP JUMPDEST PUSH2 0x1230 JUMP JUMPDEST STOP JUMPDEST CALLVALUE DUP1 ISZERO PUSH2 0x5AB JUMPI PUSH0 DUP1 REVERT JUMPDEST POP PUSH2 0x5C6 PUSH1 0x4 DUP1 CALLDATASIZE SUB DUP2 ADD SWAP1 PUSH2 0x5C1 SWAP2 SWAP1 PUSH2 0x5464 JUMP JUMPDEST PUSH2 0x1566 JUMP JUMPDEST PUSH1 0x40 MLOAD PUSH2 0x5D3 SWAP2 SWAP1 PUSH2 0x54BC JUMP JUMPDEST PUSH1 0x40 MLOAD DUP1 SWAP2 SUB SWAP1 RETURN JUMPDEST CALLVALUE DUP1 ISZERO PUSH2 0x5E7 JUMPI PUSH0 DUP1 REVERT JUMPDEST POP PUSH2 0x602 PUSH1 0x4 DUP1 CALLDATASIZE SUB DUP2 ADD SWAP1 PUSH2 0x5FD SWAP2 SWAP1 PUSH2 0x5630 JUMP JUMPDEST PUSH2 0x1614 JUMP JUMPDEST STOP JUMPDEST CALLVALUE DUP1 ISZERO PUSH2 0x60F JUMPI PUSH0 DUP1 REVERT JUMPDEST POP PUSH2 0x618 PUSH2 0x179F JUMP JUMPDEST PUSH1 0x40 MLOAD PUSH2 0x625 SWAP2 SWAP1 PUSH2 0x54E4 JUMP JUMPDEST PUSH1 0x40 MLOAD DUP1 SWAP2 SUB SWAP1 RETURN JUMPDEST CALLVALUE DUP1 ISZERO PUSH2 0x639 JUMPI PUSH0 DUP1 REVERT JUMPDEST POP PUSH2 0x654 PUSH1 0x4 DUP1 CALLDATASIZE SUB DUP2 ADD SWAP1 PUSH2 0x64F SWAP2 SWAP1 PUSH2 0x538F JUMP JUMPDEST PUSH2 0x17A5 JUMP JUMPDEST STOP JUMPDEST CALLVALUE DUP1 ISZERO PUSH2 0x661 JUMPI PUSH0 DUP1 REVERT JUMPDEST POP PUSH2 0x67C PUSH1 0x4 DUP1 CALLDATASIZE SUB DUP2 ADD SWAP1 PUSH2 0x677 SWAP2 SWAP1 PUSH2 0x5331 JUMP JUMPDEST PUSH2 0x1917 JUMP JUMPDEST STOP JUMPDEST CALLVALUE DUP1 ISZERO PUSH2 0x689 JUMPI PUSH0 DUP1 REVERT JUMPDEST POP PUSH2 0x6A4 PUSH1 0x4 DUP1 CALLDATASIZE SUB DUP2 ADD SWAP1 PUSH2 0x69F SWAP2 SWAP1 PUSH2 0x5698 JUMP JUMPDEST PUSH2 0x1A03 JUMP JUMPDEST PUSH1 0x40 MLOAD PUSH2 0x6B1 SWAP2 SWAP1 PUSH2 0x54E4 JUMP JUMPDEST PUSH1 0x40 MLOAD DUP1 SWAP2 SUB SWAP1 RETURN JUMPDEST CALLVALUE DUP1 ISZERO PUSH2 0x6C5 JUMPI PUSH0 DUP1 REVERT JUMPDEST POP PUSH2 0x6E0 PUSH1 0x4 DUP1 CALLDATASIZE SUB DUP2 ADD SWAP1 PUSH2 0x6DB SWAP2 SWAP1 PUSH2 0x538F JUMP JUMPDEST PUSH2 0x1A84 JUMP JUMPDEST STOP JUMPDEST CALLVALUE DUP1 ISZERO PUSH2 0x6ED JUMPI PUSH0 DUP1 REVERT JUMPDEST POP PUSH2 0x6F6 PUSH2 0x1B65 JUMP JUMPDEST STOP JUMPDEST CALLVALUE DUP1 ISZERO PUSH2 0x703 JUMPI PUSH0 DUP1 REVERT JUMPDEST POP PUSH2 0x70C PUSH2 0x1C60 JUMP JUMPDEST PUSH1 0x40 MLOAD PUSH2 0x719 SWAP2 SWAP1 PUSH2 0x56E5 JUMP JUMPDEST PUSH1 0x40 MLOAD DUP1 SWAP2 SUB SWAP1 RETURN JUMPDEST CALLVALUE DUP1 ISZERO PUSH2 0x72D JUMPI PUSH0 DUP1 REVERT JUMPDEST POP PUSH2 0x736 PUSH2 0x1C84 JUMP JUMPDEST PUSH1 0x40 MLOAD PUSH2 0x743 SWAP2 SWAP1 PUSH2 0x54BC JUMP JUMPDEST PUSH1 0x40 MLOAD DUP1 SWAP2 SUB SWAP1 RETURN JUMPDEST CALLVALUE DUP1 ISZERO PUSH2 0x757 JUMPI PUSH0 DUP1 REVERT JUMPDEST POP PUSH2 0x772 PUSH1 0x4 DUP1 CALLDATASIZE SUB DUP2 ADD SWAP1 PUSH2 0x76D SWAP2 SWAP1 PUSH2 0x5331 JUMP JUMPDEST PUSH2 0x1C97 JUMP JUMPDEST STOP JUMPDEST CALLVALUE DUP1 ISZERO PUSH2 0x77F JUMPI PUSH0 DUP1 REVERT JUMPDEST POP PUSH2 0x79A PUSH1 0x4 DUP1 CALLDATASIZE SUB DUP2 ADD SWAP1 PUSH2 0x795 SWAP2 SWAP1 PUSH2 0x5331 JUMP JUMPDEST PUSH2 0x1F3A JUMP JUMPDEST PUSH1 0x40 MLOAD PUSH2 0x7A7 SWAP2 SWAP1 PUSH2 0x54BC JUMP JUMPDEST PUSH1 0x40 MLOAD DUP1 SWAP2 SUB SWAP1 RETURN JUMPDEST CALLVALUE DUP1 ISZERO PUSH2 0x7BB JUMPI PUSH0 DUP1 REVERT JUMPDEST POP PUSH2 0x7D6 PUSH1 0x4 DUP1 CALLDATASIZE SUB DUP2 ADD SWAP1 PUSH2 0x7D1 SWAP2 SWAP1 PUSH2 0x5331 JUMP JUMPDEST PUSH2 0x1F8C JUMP JUMPDEST STOP JUMPDEST CALLVALUE DUP1 ISZERO PUSH2 0x7E3 JUMPI PUSH0 DUP1 REVERT JUMPDEST POP PUSH2 0x7FE PUSH1 0x4 DUP1 CALLDATASIZE SUB DUP2 ADD SWAP1 PUSH2 0x7F9 SWAP2 SWAP1 PUSH2 0x5331 JUMP JUMPDEST PUSH2 0x2063 JUMP JUMPDEST PUSH1 0x40 MLOAD PUSH2 0x80B SWAP2 SWAP1 PUSH2 0x54BC JUMP JUMPDEST PUSH1 0x40 MLOAD DUP1 SWAP2 SUB SWAP1 RETURN JUMPDEST CALLVALUE DUP1 ISZERO PUSH2 0x81F JUMPI PUSH0 DUP1 REVERT JUMPDEST POP PUSH2 0x828 PUSH2 0x20B5 JUMP JUMPDEST PUSH1 0x40 MLOAD PUSH2 0x835 SWAP2 SWAP1 PUSH2 0x54E4 JUMP JUMPDEST PUSH1 0x40 MLOAD DUP1 SWAP2 SUB SWAP1 RETURN JUMPDEST CALLVALUE DUP1 ISZERO PUSH2 0x849 JUMPI PUSH0 DUP1 REVERT JUMPDEST POP PUSH2 0x864 PUSH1 0x4 DUP1 CALLDATASIZE SUB DUP2 ADD SWAP1 PUSH2 0x85F SWAP2 SWAP1 PUSH2 0x5331 JUMP JUMPDEST PUSH2 0x20BB JUMP JUMPDEST PUSH1 0x40 MLOAD PUSH2 0x871 SWAP2 SWAP1 PUSH2 0x54E4 JUMP JUMPDEST PUSH1 0x40 MLOAD DUP1 SWAP2 SUB SWAP1 RETURN JUMPDEST CALLVALUE DUP1 ISZERO PUSH2 0x885 JUMPI PUSH0 DUP1 REVERT JUMPDEST POP PUSH2 0x88E PUSH2 0x219E JUMP JUMPDEST STOP JUMPDEST CALLVALUE DUP1 ISZERO PUSH2 0x89B JUMPI PUSH0 DUP1 REVERT JUMPDEST POP PUSH2 0x8A4 PUSH2 0x22EC JUMP JUMPDEST PUSH1 0x40 MLOAD PUSH2 0x8B1 SWAP2 SWAP1 PUSH2 0x56E5 JUMP JUMPDEST PUSH1 0x40 MLOAD DUP1 SWAP2 SUB SWAP1 RETURN JUMPDEST CALLVALUE DUP1 ISZERO PUSH2 0x8C5 JUMPI PUSH0 DUP1 REVERT JUMPDEST POP PUSH2 0x8E0 PUSH1 0x4 DUP1 CALLDATASIZE SUB DUP2 ADD SWAP1 PUSH2 0x8DB SWAP2 SWAP1 PUSH2 0x5739 JUMP JUMPDEST PUSH2 0x2311 JUMP JUMPDEST STOP JUMPDEST CALLVALUE DUP1 ISZERO PUSH2 0x8ED JUMPI PUSH0 DUP1 REVERT JUMPDEST POP PUSH2 0x8F6 PUSH2 0x23EC JUMP JUMPDEST PUSH1 0x40 MLOAD PUSH2 0x903 SWAP2 SWAP1 PUSH2 0x54E4 JUMP JUMPDEST PUSH1 0x40 MLOAD DUP1 SWAP2 SUB SWAP1 RETURN JUMPDEST CALLVALUE DUP1 ISZERO PUSH2 0x917 JUMPI PUSH0 DUP1 REVERT JUMPDEST POP PUSH2 0x932 PUSH1 0x4 DUP1 CALLDATASIZE SUB DUP2 ADD SWAP1 PUSH2 0x92D SWAP2 SWAP1 PUSH2 0x5331 JUMP JUMPDEST PUSH2 0x23F2 JUMP JUMPDEST PUSH1 0x40 MLOAD PUSH2 0x93F SWAP2 SWAP1 PUSH2 0x54BC JUMP JUMPDEST PUSH1 0x40 MLOAD DUP1 SWAP2 SUB SWAP1 RETURN JUMPDEST CALLVALUE DUP1 ISZERO PUSH2 0x953 JUMPI PUSH0 DUP1 REVERT JUMPDEST POP PUSH2 0x96E PUSH1 0x4 DUP1 CALLDATASIZE SUB DUP2 ADD SWAP1 PUSH2 0x969 SWAP2 SWAP1 PUSH2 0x5464 JUMP JUMPDEST PUSH2 0x2444 JUMP JUMPDEST STOP JUMPDEST CALLVALUE DUP1 ISZERO PUSH2 0x97B JUMPI PUSH0 DUP1 REVERT JUMPDEST POP PUSH2 0x984 PUSH2 0x250D JUMP JUMPDEST PUSH1 0x40 MLOAD PUSH2 0x991 SWAP2 SWAP1 PUSH2 0x56E5 JUMP JUMPDEST PUSH1 0x40 MLOAD DUP1 SWAP2 SUB SWAP1 RETURN JUMPDEST CALLVALUE DUP1 ISZERO PUSH2 0x9A5 JUMPI PUSH0 DUP1 REVERT JUMPDEST POP PUSH2 0x9C0 PUSH1 0x4 DUP1 CALLDATASIZE SUB DUP2 ADD SWAP1 PUSH2 0x9BB SWAP2 SWAP1 PUSH2 0x538F JUMP JUMPDEST PUSH2 0x2534 JUMP JUMPDEST STOP JUMPDEST CALLVALUE DUP1 ISZERO PUSH2 0x9CD JUMPI PUSH0 DUP1 REVERT JUMPDEST POP PUSH2 0x9D6 PUSH2 0x25D2 JUMP JUMPDEST PUSH1 0x40 MLOAD PUSH2 0x9E3 SWAP2 SWAP1 PUSH2 0x5444 JUMP JUMPDEST PUSH1 0x40 MLOAD DUP1 SWAP2 SUB SWAP1 RETURN JUMPDEST CALLVALUE DUP1 ISZERO PUSH2 0x9F7 JUMPI PUSH0 DUP1 REVERT JUMPDEST POP PUSH2 0xA12 PUSH1 0x4 DUP1 CALLDATASIZE SUB DUP2 ADD SWAP1 PUSH2 0xA0D SWAP2 SWAP1 PUSH2 0x5464 JUMP JUMPDEST PUSH2 0x2662 JUMP JUMPDEST PUSH1 0x40 MLOAD PUSH2 0xA1F SWAP2 SWAP1 PUSH2 0x54BC JUMP JUMPDEST PUSH1 0x40 MLOAD DUP1 SWAP2 SUB SWAP1 RETURN JUMPDEST CALLVALUE DUP1 ISZERO PUSH2 0xA33 JUMPI PUSH0 DUP1 REVERT JUMPDEST POP PUSH2 0xA3C PUSH2 0x272A JUMP JUMPDEST STOP JUMPDEST CALLVALUE DUP1 ISZERO PUSH2 0xA49 JUMPI PUSH0 DUP1 REVERT JUMPDEST POP PUSH2 0xA52 PUSH2 0x27DB JUMP JUMPDEST STOP JUMPDEST CALLVALUE DUP1 ISZERO PUSH2 0xA5F JUMPI PUSH0 DUP1 REVERT JUMPDEST POP PUSH2 0xA7A PUSH1 0x4 DUP1 CALLDATASIZE SUB DUP2 ADD SWAP1 PUSH2 0xA75 SWAP2 SWAP1 PUSH2 0x5464 JUMP JUMPDEST PUSH2 0x29AA JUMP JUMPDEST PUSH1 0x40 MLOAD PUSH2 0xA87 SWAP2 SWAP1 PUSH2 0x54BC JUMP JUMPDEST PUSH1 0x40 MLOAD DUP1 SWAP2 SUB SWAP1 RETURN JUMPDEST CALLVALUE DUP1 ISZERO PUSH2 0xA9B JUMPI PUSH0 DUP1 REVERT JUMPDEST POP PUSH2 0xAA4 PUSH2 0x29C7 JUMP JUMPDEST PUSH1 0x40 MLOAD PUSH2 0xAB1 SWAP2 SWAP1 PUSH2 0x54E4 JUMP JUMPDEST PUSH1 0x40 MLOAD DUP1 SWAP2 SUB SWAP1 RETURN JUMPDEST CALLVALUE DUP1 ISZERO PUSH2 0xAC5 JUMPI PUSH0 DUP1 REVERT JUMPDEST POP PUSH2 0xAE0 PUSH1 0x4 DUP1 CALLDATASIZE SUB DUP2 ADD SWAP1 PUSH2 0xADB SWAP2 SWAP1 PUSH2 0x5764 JUMP JUMPDEST PUSH2 0x29D0 JUMP JUMPDEST STOP JUMPDEST CALLVALUE DUP1 ISZERO PUSH2 0xAED JUMPI PUSH0 DUP1 REVERT JUMPDEST POP PUSH2 0xAF6 PUSH2 0x2AB8 JUMP JUMPDEST PUSH1 0x40 MLOAD PUSH2 0xB03 SWAP2 SWAP1 PUSH2 0x54E4 JUMP JUMPDEST PUSH1 0x40 MLOAD DUP1 SWAP2 SUB SWAP1 RETURN JUMPDEST CALLVALUE DUP1 ISZERO PUSH2 0xB17 JUMPI PUSH0 DUP1 REVERT JUMPDEST POP PUSH2 0xB32 PUSH1 0x4 DUP1 CALLDATASIZE SUB DUP2 ADD SWAP1 PUSH2 0xB2D SWAP2 SWAP1 PUSH2 0x5845 JUMP JUMPDEST PUSH2 0x2ABE JUMP JUMPDEST STOP JUMPDEST CALLVALUE DUP1 ISZERO PUSH2 0xB3F JUMPI PUSH0 DUP1 REVERT JUMPDEST POP PUSH2 0xB48 PUSH2 0x2C1B JUMP JUMPDEST PUSH1 0x40 MLOAD PUSH2 0xB55 SWAP2 SWAP1 PUSH2 0x54E4 JUMP JUMPDEST PUSH1 0x40 MLOAD DUP1 SWAP2 SUB SWAP1 RETURN JUMPDEST CALLVALUE DUP1 ISZERO PUSH2 0xB69 JUMPI PUSH0 DUP1 REVERT JUMPDEST POP PUSH2 0xB84 PUSH1 0x4 DUP1 CALLDATASIZE SUB DUP2 ADD SWAP1 PUSH2 0xB7F SWAP2 SWAP1 PUSH2 0x538F JUMP JUMPDEST PUSH2 0x2C21 JUMP JUMPDEST STOP JUMPDEST CALLVALUE DUP1 ISZERO PUSH2 0xB91 JUMPI PUSH0 DUP1 REVERT JUMPDEST POP PUSH2 0xBAC PUSH1 0x4 DUP1 CALLDATASIZE SUB DUP2 ADD SWAP1 PUSH2 0xBA7 SWAP2 SWAP1 PUSH2 0x58C3 JUMP JUMPDEST PUSH2 0x2DE1 JUMP JUMPDEST PUSH1 0x40 MLOAD PUSH2 0xBB9 SWAP2 SWAP1 PUSH2 0x54E4 JUMP JUMPDEST PUSH1 0x40 MLOAD DUP1 SWAP2 SUB SWAP1 RETURN JUMPDEST CALLVALUE DUP1 ISZERO PUSH2 0xBCD JUMPI PUSH0 DUP1 REVERT JUMPDEST POP PUSH2 0xBE8 PUSH1 0x4 DUP1 CALLDATASIZE SUB DUP2 ADD SWAP1 PUSH2 0xBE3 SWAP2 SWAP1 PUSH2 0x5331 JUMP JUMPDEST PUSH2 0x2E63 JUMP JUMPDEST STOP JUMPDEST CALLVALUE DUP1 ISZERO PUSH2 0xBF5 JUMPI PUSH0 DUP1 REVERT JUMPDEST POP PUSH2 0xC10 PUSH1 0x4 DUP1 CALLDATASIZE SUB DUP2 ADD SWAP1 PUSH2 0xC0B SWAP2 SWAP1 PUSH2 0x538F JUMP JUMPDEST PUSH2 0x2F4E JUMP JUMPDEST STOP JUMPDEST CALLVALUE DUP1 ISZERO PUSH2 0xC1D JUMPI PUSH0 DUP1 REVERT JUMPDEST POP PUSH2 0xC38 PUSH1 0x4 DUP1 CALLDATASIZE SUB DUP2 ADD SWAP1 PUSH2 0xC33 SWAP2 SWAP1 PUSH2 0x5331 JUMP JUMPDEST PUSH2 0x3041 JUMP JUMPDEST STOP JUMPDEST PUSH2 0xC42 PUSH2 0x31FE JUMP JUMPDEST PUSH20 0xFFFFFFFFFFFFFFFFFFFFFFFFFFFFFFFFFFFFFFFF AND PUSH0 DUP1 SLOAD SWAP1 PUSH2 0x100 EXP SWAP1 DIV PUSH20 0xFFFFFFFFFFFFFFFFFFFFFFFFFFFFFFFFFFFFFFFF AND PUSH20 0xFFFFFFFFFFFFFFFFFFFFFFFFFFFFFFFFFFFFFFFF AND EQ PUSH2 0xCCE JUMPI PUSH1 0x40 MLOAD PUSH32 0x8C379A000000000000000000000000000000000000000000000000000000000 DUP2 MSTORE PUSH1 0x4 ADD PUSH2 0xCC5 SWAP1 PUSH2 0x594B JUMP JUMPDEST PUSH1 0x40 MLOAD DUP1 SWAP2 SUB SWAP1 REVERT JUMPDEST PUSH0 PUSH1 0x9 PUSH0 DUP4 PUSH20 0xFFFFFFFFFFFFFFFFFFFFFFFFFFFFFFFFFFFFFFFF AND PUSH20 0xFFFFFFFFFFFFFFFFFFFFFFFFFFFFFFFFFFFFFFFF AND DUP2 MSTORE PUSH1 0x20 ADD SWAP1 DUP2 MSTORE PUSH1 0x20 ADD PUSH0 KECCAK256 PUSH0 PUSH2 0x100 EXP DUP2 SLOAD DUP2 PUSH1 0xFF MUL NOT AND SWAP1 DUP4 ISZERO ISZERO MUL OR SWAP1 SSTORE POP POP JUMP JUMPDEST PUSH2 0xD2D PUSH2 0x31FE JUMP JUMPDEST PUSH20 0xFFFFFFFFFFFFFFFFFFFFFFFFFFFFFFFFFFFFFFFF AND PUSH0 DUP1 SLOAD SWAP1 PUSH2 0x100 EXP SWAP1 DIV PUSH20 0xFFFFFFFFFFFFFFFFFFFFFFFFFFFFFFFFFFFFFFFF AND PUSH20 0xFFFFFFFFFFFFFFFFFFFFFFFFFFFFFFFFFFFFFFFF AND EQ PUSH2 0xDB9 JUMPI PUSH1 0x40 MLOAD PUSH32 0x8C379A000000000000000000000000000000000000000000000000000000000 DUP2 MSTORE PUSH1 0x4 ADD PUSH2 0xDB0 SWAP1 PUSH2 0x594B JUMP JUMPDEST PUSH1 0x40 MLOAD DUP1 SWAP2 SUB SWAP1 REVERT JUMPDEST PUSH1 0xA DUP2 LT PUSH2 0xDFC JUMPI PUSH1 0x40 MLOAD PUSH32 0x8C379A000000000000000000000000000000000000000000000000000000000 DUP2 MSTORE PUSH1 0x4 ADD PUSH2 0xDF3 SWAP1 PUSH2 0x59B3 JUMP JUMPDEST PUSH1 0x40 MLOAD DUP1 SWAP2 SUB SWAP1 REVERT JUMPDEST DUP1 PUSH1 0x12 DUP2 SWAP1 SSTORE POP POP JUMP JUMPDEST PUSH1 0x60 PUSH1 0xF DUP1 SLOAD PUSH2 0xE15 SWAP1 PUSH2 0x59FE JUMP JUMPDEST DUP1 PUSH1 0x1F ADD PUSH1 0x20 DUP1 SWAP2 DIV MUL PUSH1 0x20 ADD PUSH1 0x40 MLOAD SWAP1 DUP2 ADD PUSH1 0x40 MSTORE DUP1 SWAP3 SWAP2 SWAP1 DUP2 DUP2 MSTORE PUSH1 0x20 ADD DUP3 DUP1 SLOAD PUSH2 0xE41 SWAP1 PUSH2 0x59FE JUMP JUMPDEST DUP1 ISZERO PUSH2 0xE8C JUMPI DUP1 PUSH1 0x1F LT PUSH2 0xE63 JUMPI PUSH2 0x100 DUP1 DUP4 SLOAD DIV MUL DUP4 MSTORE SWAP2 PUSH1 0x20 ADD SWAP2 PUSH2 0xE8C JUMP JUMPDEST DUP3 ADD SWAP2 SWAP1 PUSH0 MSTORE PUSH1 0x20 PUSH0 KECCAK256 SWAP1 JUMPDEST DUP2 SLOAD DUP2 MSTORE SWAP1 PUSH1 0x1 ADD SWAP1 PUSH1 0x20 ADD DUP1 DUP4 GT PUSH2 0xE6F JUMPI DUP3 SWAP1 SUB PUSH1 0x1F AND DUP3 ADD SWAP2 JUMPDEST POP POP POP POP POP SWAP1 POP SWAP1 JUMP JUMPDEST PUSH0 PUSH2 0xEA9 PUSH2 0xEA2 PUSH2 0x31FE JUMP JUMPDEST DUP5 DUP5 PUSH2 0x3205 JUMP JUMPDEST PUSH1 0x1 SWAP1 POP SWAP3 SWAP2 POP POP JUMP JUMPDEST PUSH0 PUSH1 0xD SLOAD SWAP1 POP SWAP1 JUMP JUMPDEST PUSH32 0x0 DUP2 JUMP JUMPDEST PUSH0 PUSH1 0xB SLOAD SWAP1 POP SWAP1 JUMP JUMPDEST PUSH0 PUSH2 0xEF5 DUP5 DUP5 DUP5 PUSH2 0x33C8 JUMP JUMPDEST PUSH2 0xFB2 DUP5 PUSH2 0xF01 PUSH2 0x31FE JUMP JUMPDEST PUSH2 0xFAD DUP6 PUSH1 0x40 MLOAD DUP1 PUSH1 0x60 ADD PUSH1 0x40 MSTORE DUP1 PUSH1 0x28 DUP2 MSTORE PUSH1 0x20 ADD PUSH2 0x6972 PUSH1 0x28 SWAP2 CODECOPY PUSH1 0x5 PUSH0 DUP12 PUSH20 0xFFFFFFFFFFFFFFFFFFFFFFFFFFFFFFFFFFFFFFFF AND PUSH20 0xFFFFFFFFFFFFFFFFFFFFFFFFFFFFFFFFFFFFFFFF AND DUP2 MSTORE PUSH1 0x20 ADD SWAP1 DUP2 MSTORE PUSH1 0x20 ADD PUSH0 KECCAK256 PUSH0 PUSH2 0xF64 PUSH2 0x31FE JUMP JUMPDEST PUSH20 0xFFFFFFFFFFFFFFFFFFFFFFFFFFFFFFFFFFFFFFFF AND PUSH20 0xFFFFFFFFFFFFFFFFFFFFFFFFFFFFFFFFFFFFFFFF AND DUP2 MSTORE PUSH1 0x20 ADD SWAP1 DUP2 MSTORE PUSH1 0x20 ADD PUSH0 KECCAK256 SLOAD PUSH2 0x3810 SWAP1 SWAP3 SWAP2 SWAP1 PUSH4 0xFFFFFFFF AND JUMP JUMPDEST PUSH2 0x3205 JUMP JUMPDEST PUSH1 0x1 SWAP1 POP SWAP4 SWAP3 POP POP POP JUMP JUMPDEST PUSH2 0xFC5 PUSH2 0x31FE JUMP JUMPDEST PUSH20 0xFFFFFFFFFFFFFFFFFFFFFFFFFFFFFFFFFFFFFFFF AND PUSH0 DUP1 SLOAD SWAP1 PUSH2 0x100 EXP SWAP1 DIV PUSH20 0xFFFFFFFFFFFFFFFFFFFFFFFFFFFFFFFFFFFFFFFF AND PUSH20 0xFFFFFFFFFFFFFFFFFFFFFFFFFFFFFFFFFFFFFFFF AND EQ PUSH2 0x1051 JUMPI PUSH1 0x40 MLOAD PUSH32 0x8C379A000000000000000000000000000000000000000000000000000000000 DUP2 MSTORE PUSH1 0x4 ADD PUSH2 0x1048 SWAP1 PUSH2 0x594B JUMP JUMPDEST PUSH1 0x40 MLOAD DUP1 SWAP2 SUB SWAP1 REVERT JUMPDEST PUSH4 0x41CDB40 DUP2 GT PUSH2 0x1097 JUMPI PUSH1 0x40 MLOAD PUSH32 0x8C379A000000000000000000000000000000000000000000000000000000000 DUP2 MSTORE PUSH1 0x4 ADD PUSH2 0x108E SWAP1 PUSH2 0x5A9E JUMP JUMPDEST PUSH1 0x40 MLOAD DUP1 SWAP2 SUB SWAP1 REVERT JUMPDEST PUSH4 0x3B9ACA00 DUP2 PUSH2 0x10A7 SWAP2 SWAP1 PUSH2 0x5AE9 JUMP JUMPDEST PUSH1 0x19 DUP2 SWAP1 SSTORE POP POP JUMP JUMPDEST PUSH2 0x10B8 PUSH2 0x31FE JUMP JUMPDEST PUSH20 0xFFFFFFFFFFFFFFFFFFFFFFFFFFFFFFFFFFFFFFFF AND PUSH0 DUP1 SLOAD SWAP1 PUSH2 0x100 EXP SWAP1 DIV PUSH20 0xFFFFFFFFFFFFFFFFFFFFFFFFFFFFFFFFFFFFFFFF AND PUSH20 0xFFFFFFFFFFFFFFFFFFFFFFFFFFFFFFFFFFFFFFFF AND EQ PUSH2 0x1144 JUMPI PUSH1 0x40 MLOAD PUSH32 0x8C379A000000000000000000000000000000000000000000000000000000000 DUP2 MSTORE PUSH1 0x4 ADD PUSH2 0x113B SWAP1 PUSH2 0x594B JUMP JUMPDEST PUSH1 0x40 MLOAD DUP1 SWAP2 SUB SWAP1 REVERT JUMPDEST PUSH1 0x1 PUSH1 0x9 PUSH0 DUP4 PUSH20 0xFFFFFFFFFFFFFFFFFFFFFFFFFFFFFFFFFFFFFFFF AND PUSH20 0xFFFFFFFFFFFFFFFFFFFFFFFFFFFFFFFFFFFFFFFF AND DUP2 MSTORE PUSH1 0x20 ADD SWAP1 DUP2 MSTORE PUSH1 0x20 ADD PUSH0 KECCAK256 PUSH0 PUSH2 0x100 EXP DUP2 SLOAD DUP2 PUSH1 0xFF MUL NOT AND SWAP1 DUP4 ISZERO ISZERO MUL OR SWAP1 SSTORE POP POP JUMP JUMPDEST PUSH0 PUSH1 0xC SLOAD DUP3 GT ISZERO PUSH2 0x11E2 JUMPI PUSH1 0x40 MLOAD PUSH32 0x8C379A000000000000000000000000000000000000000000000000000000000 DUP2 MSTORE PUSH1 0x4 ADD PUSH2 0x11D9 SWAP1 PUSH2 0x5B9A JUMP JUMPDEST PUSH1 0x40 MLOAD DUP1 SWAP2 SUB SWAP1 REVERT JUMPDEST PUSH0 PUSH2 0x11EB PUSH2 0x3872 JUMP JUMPDEST SWAP1 POP PUSH2 0x1200 DUP2 DUP5 PUSH2 0x389B SWAP1 SWAP2 SWAP1 PUSH4 0xFFFFFFFF AND JUMP JUMPDEST SWAP2 POP POP SWAP2 SWAP1 POP JUMP JUMPDEST PUSH1 0xA PUSH1 0x1 SWAP1 SLOAD SWAP1 PUSH2 0x100 EXP SWAP1 DIV PUSH1 0xFF AND DUP2 JUMP JUMPDEST PUSH0 PUSH1 0x11 PUSH0 SWAP1 SLOAD SWAP1 PUSH2 0x100 EXP SWAP1 DIV PUSH1 0xFF AND SWAP1 POP SWAP1 JUMP JUMPDEST PUSH2 0x1238 PUSH2 0x31FE JUMP JUMPDEST PUSH20 0xFFFFFFFFFFFFFFFFFFFFFFFFFFFFFFFFFFFFFFFF AND PUSH0 DUP1 SLOAD SWAP1 PUSH2 0x100 EXP SWAP1 DIV PUSH20 0xFFFFFFFFFFFFFFFFFFFFFFFFFFFFFFFFFFFFFFFF AND PUSH20 0xFFFFFFFFFFFFFFFFFFFFFFFFFFFFFFFFFFFFFFFF AND EQ PUSH2 0x12C4 JUMPI PUSH1 0x40 MLOAD PUSH32 0x8C379A000000000000000000000000000000000000000000000000000000000 DUP2 MSTORE PUSH1 0x4 ADD PUSH2 0x12BB SWAP1 PUSH2 0x594B JUMP JUMPDEST PUSH1 0x40 MLOAD DUP1 SWAP2 SUB SWAP1 REVERT JUMPDEST PUSH1 0x7 PUSH0 DUP3 PUSH20 0xFFFFFFFFFFFFFFFFFFFFFFFFFFFFFFFFFFFFFFFF AND PUSH20 0xFFFFFFFFFFFFFFFFFFFFFFFFFFFFFFFFFFFFFFFF AND DUP2 MSTORE PUSH1 0x20 ADD SWAP1 DUP2 MSTORE PUSH1 0x20 ADD PUSH0 KECCAK256 PUSH0 SWAP1 SLOAD SWAP1 PUSH2 0x100 EXP SWAP1 DIV PUSH1 0xFF AND PUSH2 0x134D JUMPI PUSH1 0x40 MLOAD PUSH32 0x8C379A000000000000000000000000000000000000000000000000000000000 DUP2 MSTORE PUSH1 0x4 ADD PUSH2 0x1344 SWAP1 PUSH2 0x5C02 JUMP JUMPDEST PUSH1 0x40 MLOAD DUP1 SWAP2 SUB SWAP1 REVERT JUMPDEST PUSH0 JUMPDEST PUSH1 0x8 DUP1 SLOAD SWAP1 POP DUP2 LT ISZERO PUSH2 0x1562 JUMPI DUP2 PUSH20 0xFFFFFFFFFFFFFFFFFFFFFFFFFFFFFFFFFFFFFFFF AND PUSH1 0x8 DUP3 DUP2 SLOAD DUP2 LT PUSH2 0x1387 JUMPI PUSH2 0x1386 PUSH2 0x5C20 JUMP JUMPDEST JUMPDEST SWAP1 PUSH0 MSTORE PUSH1 0x20 PUSH0 KECCAK256 ADD PUSH0 SWAP1 SLOAD SWAP1 PUSH2 0x100 EXP SWAP1 DIV PUSH20 0xFFFFFFFFFFFFFFFFFFFFFFFFFFFFFFFFFFFFFFFF AND PUSH20 0xFFFFFFFFFFFFFFFFFFFFFFFFFFFFFFFFFFFFFFFF AND SUB PUSH2 0x154F JUMPI PUSH1 0x8 PUSH1 0x1 PUSH1 0x8 DUP1 SLOAD SWAP1 POP PUSH2 0x13DE SWAP2 SWAP1 PUSH2 0x5C4D JUMP JUMPDEST DUP2 SLOAD DUP2 LT PUSH2 0x13EF JUMPI PUSH2 0x13EE PUSH2 0x5C20 JUMP JUMPDEST JUMPDEST SWAP1 PUSH0 MSTORE PUSH1 0x20 PUSH0 KECCAK256 ADD PUSH0 SWAP1 SLOAD SWAP1 PUSH2 0x100 EXP SWAP1 DIV PUSH20 0xFFFFFFFFFFFFFFFFFFFFFFFFFFFFFFFFFFFFFFFF AND PUSH1 0x8 DUP3 DUP2 SLOAD DUP2 LT PUSH2 0x142B JUMPI PUSH2 0x142A PUSH2 0x5C20 JUMP JUMPDEST JUMPDEST SWAP1 PUSH0 MSTORE PUSH1 0x20 PUSH0 KECCAK256 ADD PUSH0 PUSH2 0x100 EXP DUP2 SLOAD DUP2 PUSH20 0xFFFFFFFFFFFFFFFFFFFFFFFFFFFFFFFFFFFFFFFF MUL NOT AND SWAP1 DUP4 PUSH20 0xFFFFFFFFFFFFFFFFFFFFFFFFFFFFFFFFFFFFFFFF AND MUL OR SWAP1 SSTORE POP PUSH0 PUSH1 0x4 PUSH0 DUP5 PUSH20 0xFFFFFFFFFFFFFFFFFFFFFFFFFFFFFFFFFFFFFFFF AND PUSH20 0xFFFFFFFFFFFFFFFFFFFFFFFFFFFFFFFFFFFFFFFF AND DUP2 MSTORE PUSH1 0x20 ADD SWAP1 DUP2 MSTORE PUSH1 0x20 ADD PUSH0 KECCAK256 DUP2 SWAP1 SSTORE POP PUSH0 PUSH1 0x7 PUSH0 DUP5 PUSH20 0xFFFFFFFFFFFFFFFFFFFFFFFFFFFFFFFFFFFFFFFF AND PUSH20 0xFFFFFFFFFFFFFFFFFFFFFFFFFFFFFFFFFFFFFFFF AND DUP2 MSTORE PUSH1 0x20 ADD SWAP1 DUP2 MSTORE PUSH1 0x20 ADD PUSH0 KECCAK256 PUSH0 PUSH2 0x100 EXP DUP2 SLOAD DUP2 PUSH1 0xFF MUL NOT AND SWAP1 DUP4 ISZERO ISZERO MUL OR SWAP1 SSTORE POP PUSH1 0x8 DUP1 SLOAD DUP1 PUSH2 0x1518 JUMPI PUSH2 0x1517 PUSH2 0x5C80 JUMP JUMPDEST JUMPDEST PUSH1 0x1 SWAP1 SUB DUP2 DUP2 SWAP1 PUSH0 MSTORE PUSH1 0x20 PUSH0 KECCAK256 ADD PUSH0 PUSH2 0x100 EXP DUP2 SLOAD SWAP1 PUSH20 0xFFFFFFFFFFFFFFFFFFFFFFFFFFFFFFFFFFFFFFFF MUL NOT AND SWAP1 SSTORE SWAP1 SSTORE PUSH2 0x1562 JUMP JUMPDEST DUP1 DUP1 PUSH2 0x155A SWAP1 PUSH2 0x5CAD JUMP JUMPDEST SWAP2 POP POP PUSH2 0x134F JUMP JUMPDEST POP POP JUMP JUMPDEST PUSH0 PUSH2 0x160A PUSH2 0x1572 PUSH2 0x31FE JUMP JUMPDEST DUP5 PUSH2 0x1605 DUP6 PUSH1 0x5 PUSH0 PUSH2 0x1582 PUSH2 0x31FE JUMP JUMPDEST PUSH20 0xFFFFFFFFFFFFFFFFFFFFFFFFFFFFFFFFFFFFFFFF AND PUSH20 0xFFFFFFFFFFFFFFFFFFFFFFFFFFFFFFFFFFFFFFFF AND DUP2 MSTORE PUSH1 0x20 ADD SWAP1 DUP2 MSTORE PUSH1 0x20 ADD PUSH0 KECCAK256 PUSH0 DUP10 PUSH20 0xFFFFFFFFFFFFFFFFFFFFFFFFFFFFFFFFFFFFFFFF AND PUSH20 0xFFFFFFFFFFFFFFFFFFFFFFFFFFFFFFFFFFFFFFFF AND DUP2 MSTORE PUSH1 0x20 ADD SWAP1 DUP2 MSTORE PUSH1 0x20 ADD PUSH0 KECCAK256 SLOAD PUSH2 0x38E4 SWAP1 SWAP2 SWAP1 PUSH4 0xFFFFFFFF AND JUMP JUMPDEST PUSH2 0x3205 JUMP JUMPDEST PUSH1 0x1 SWAP1 POP SWAP3 SWAP2 POP POP JUMP JUMPDEST PUSH2 0x161C PUSH2 0x31FE JUMP JUMPDEST PUSH20 0xFFFFFFFFFFFFFFFFFFFFFFFFFFFFFFFFFFFFFFFF AND PUSH0 DUP1 SLOAD SWAP1 PUSH2 0x100 EXP SWAP1 DIV PUSH20 0xFFFFFFFFFFFFFFFFFFFFFFFFFFFFFFFFFFFFFFFF AND PUSH20 0xFFFFFFFFFFFFFFFFFFFFFFFFFFFFFFFFFFFFFFFF AND EQ PUSH2 0x16A8 JUMPI PUSH1 0x40 MLOAD PUSH32 0x8C379A000000000000000000000000000000000000000000000000000000000 DUP2 MSTORE PUSH1 0x4 ADD PUSH2 0x169F SWAP1 PUSH2 0x594B JUMP JUMPDEST PUSH1 0x40 MLOAD DUP1 SWAP2 SUB SWAP1 REVERT JUMPDEST DUP2 PUSH20 0xFFFFFFFFFFFFFFFFFFFFFFFFFFFFFFFFFFFFFFFF AND PUSH4 0xA9059CBB DUP3 DUP5 PUSH20 0xFFFFFFFFFFFFFFFFFFFFFFFFFFFFFFFFFFFFFFFF AND PUSH4 0x70A08231 ADDRESS PUSH1 0x40 MLOAD DUP3 PUSH4 0xFFFFFFFF AND PUSH1 0xE0 SHL DUP2 MSTORE PUSH1 0x4 ADD PUSH2 0x16FE SWAP2 SWAP1 PUSH2 0x56E5 JUMP JUMPDEST PUSH1 0x20 PUSH1 0x40 MLOAD DUP1 DUP4 SUB DUP2 DUP7 GAS STATICCALL ISZERO DUP1 ISZERO PUSH2 0x1719 JUMPI RETURNDATASIZE PUSH0 DUP1 RETURNDATACOPY RETURNDATASIZE PUSH0 REVERT JUMPDEST POP POP POP POP PUSH1 0x40 MLOAD RETURNDATASIZE PUSH1 0x1F NOT PUSH1 0x1F DUP3 ADD AND DUP3 ADD DUP1 PUSH1 0x40 MSTORE POP DUP2 ADD SWAP1 PUSH2 0x173D SWAP2 SWAP1 PUSH2 0x5D08 JUMP JUMPDEST PUSH1 0x40 MLOAD DUP4 PUSH4 0xFFFFFFFF AND PUSH1 0xE0 SHL DUP2 MSTORE PUSH1 0x4 ADD PUSH2 0x175A SWAP3 SWAP2 SWAP1 PUSH2 0x5D33 JUMP JUMPDEST PUSH1 0x20 PUSH1 0x40 MLOAD DUP1 DUP4 SUB DUP2 PUSH0 DUP8 GAS CALL ISZERO DUP1 ISZERO PUSH2 0x1776 JUMPI RETURNDATASIZE PUSH0 DUP1 RETURNDATACOPY RETURNDATASIZE PUSH0 REVERT JUMPDEST POP POP POP POP PUSH1 0x40 MLOAD RETURNDATASIZE PUSH1 0x1F NOT PUSH1 0x1F DUP3 ADD AND DUP3 ADD DUP1 PUSH1 0x40 MSTORE POP DUP2 ADD SWAP1 PUSH2 0x179A SWAP2 SWAP1 PUSH2 0x5D6E JUMP JUMPDEST POP POP POP JUMP JUMPDEST PUSH1 0x12 SLOAD DUP2 JUMP JUMPDEST PUSH0 PUSH2 0x17AE PUSH2 0x31FE JUMP JUMPDEST SWAP1 POP PUSH1 0x7 PUSH0 DUP3 PUSH20 0xFFFFFFFFFFFFFFFFFFFFFFFFFFFFFFFFFFFFFFFF AND PUSH20 0xFFFFFFFFFFFFFFFFFFFFFFFFFFFFFFFFFFFFFFFF AND DUP2 MSTORE PUSH1 0x20 ADD SWAP1 DUP2 MSTORE PUSH1 0x20 ADD PUSH0 KECCAK256 PUSH0 SWAP1 SLOAD SWAP1 PUSH2 0x100 EXP SWAP1 DIV PUSH1 0xFF AND ISZERO PUSH2 0x183A JUMPI PUSH1 0x40 MLOAD PUSH32 0x8C379A000000000000000000000000000000000000000000000000000000000 DUP2 MSTORE PUSH1 0x4 ADD PUSH2 0x1831 SWAP1 PUSH2 0x5E09 JUMP JUMPDEST PUSH1 0x40 MLOAD DUP1 SWAP2 SUB SWAP1 REVERT JUMPDEST PUSH0 PUSH2 0x1844 DUP4 PUSH2 0x3941 JUMP JUMPDEST POP POP POP POP POP SWAP1 POP PUSH2 0x189B DUP2 PUSH1 0x3 PUSH0 DUP6 PUSH20 0xFFFFFFFFFFFFFFFFFFFFFFFFFFFFFFFFFFFFFFFF AND PUSH20 0xFFFFFFFFFFFFFFFFFFFFFFFFFFFFFFFFFFFFFFFF AND DUP2 MSTORE PUSH1 0x20 ADD SWAP1 DUP2 MSTORE PUSH1 0x20 ADD PUSH0 KECCAK256 SLOAD PUSH2 0x3996 SWAP1 SWAP2 SWAP1 PUSH4 0xFFFFFFFF AND JUMP JUMPDEST PUSH1 0x3 PUSH0 DUP5 PUSH20 0xFFFFFFFFFFFFFFFFFFFFFFFFFFFFFFFFFFFFFFFF AND PUSH20 0xFFFFFFFFFFFFFFFFFFFFFFFFFFFFFFFFFFFFFFFF AND DUP2 MSTORE PUSH1 0x20 ADD SWAP1 DUP2 MSTORE PUSH1 0x20 ADD PUSH0 KECCAK256 DUP2 SWAP1 SSTORE POP PUSH2 0x18F1 DUP2 PUSH1 0xC SLOAD PUSH2 0x3996 SWAP1 SWAP2 SWAP1 PUSH4 0xFFFFFFFF AND JUMP JUMPDEST PUSH1 0xC DUP2 SWAP1 SSTORE POP PUSH2 0x190C DUP4 PUSH1 0xD SLOAD PUSH2 0x38E4 SWAP1 SWAP2 SWAP1 PUSH4 0xFFFFFFFF AND JUMP JUMPDEST PUSH1 0xD DUP2 SWAP1 SSTORE POP POP POP POP JUMP JUMPDEST PUSH2 0x191F PUSH2 0x31FE JUMP JUMPDEST PUSH20 0xFFFFFFFFFFFFFFFFFFFFFFFFFFFFFFFFFFFFFFFF AND PUSH0 DUP1 SLOAD SWAP1 PUSH2 0x100 EXP SWAP1 DIV PUSH20 0xFFFFFFFFFFFFFFFFFFFFFFFFFFFFFFFFFFFFFFFF AND PUSH20 0xFFFFFFFFFFFFFFFFFFFFFFFFFFFFFFFFFFFFFFFF AND EQ PUSH2 0x19AB JUMPI PUSH1 0x40 MLOAD PUSH32 0x8C379A000000000000000000000000000000000000000000000000000000000 DUP2 MSTORE PUSH1 0x4 ADD PUSH2 0x19A2 SWAP1 PUSH2 0x594B JUMP JUMPDEST PUSH1 0x40 MLOAD DUP1 SWAP2 SUB SWAP1 REVERT JUMPDEST PUSH1 0x1 PUSH1 0x6 PUSH0 DUP4 PUSH20 0xFFFFFFFFFFFFFFFFFFFFFFFFFFFFFFFFFFFFFFFF AND PUSH20 0xFFFFFFFFFFFFFFFFFFFFFFFFFFFFFFFFFFFFFFFF AND DUP2 MSTORE PUSH1 0x20 ADD SWAP1 DUP2 MSTORE PUSH1 0x20 ADD PUSH0 KECCAK256 PUSH0 PUSH2 0x100 EXP DUP2 SLOAD DUP2 PUSH1 0xFF MUL NOT AND SWAP1 DUP4 ISZERO ISZERO MUL OR SWAP1 SSTORE POP POP JUMP JUMPDEST PUSH0 PUSH1 0xB SLOAD DUP4 GT ISZERO PUSH2 0x1A49 JUMPI PUSH1 0x40 MLOAD PUSH32 0x8C379A000000000000000000000000000000000000000000000000000000000 DUP2 MSTORE PUSH1 0x4 ADD PUSH2 0x1A40 SWAP1 PUSH2 0x5E71 JUMP JUMPDEST PUSH1 0x40 MLOAD DUP1 SWAP2 SUB SWAP1 REVERT JUMPDEST DUP2 PUSH2 0x1A68 JUMPI PUSH0 PUSH2 0x1A58 DUP5 PUSH2 0x3941 JUMP JUMPDEST POP POP POP POP POP SWAP1 POP DUP1 SWAP2 POP POP PUSH2 0x1A7E JUMP JUMPDEST PUSH0 PUSH2 0x1A72 DUP5 PUSH2 0x3941 JUMP JUMPDEST POP POP POP POP SWAP2 POP POP DUP1 SWAP2 POP POP JUMPDEST SWAP3 SWAP2 POP POP JUMP JUMPDEST PUSH2 0x1A8C PUSH2 0x31FE JUMP JUMPDEST PUSH20 0xFFFFFFFFFFFFFFFFFFFFFFFFFFFFFFFFFFFFFFFF AND PUSH0 DUP1 SLOAD SWAP1 PUSH2 0x100 EXP SWAP1 DIV PUSH20 0xFFFFFFFFFFFFFFFFFFFFFFFFFFFFFFFFFFFFFFFF AND PUSH20 0xFFFFFFFFFFFFFFFFFFFFFFFFFFFFFFFFFFFFFFFF AND EQ PUSH2 0x1B18 JUMPI PUSH1 0x40 MLOAD PUSH32 0x8C379A000000000000000000000000000000000000000000000000000000000 DUP2 MSTORE PUSH1 0x4 ADD PUSH2 0x1B0F SWAP1 PUSH2 0x594B JUMP JUMPDEST PUSH1 0x40 MLOAD DUP1 SWAP2 SUB SWAP1 REVERT JUMPDEST PUSH1 0x5A DUP2 LT PUSH2 0x1B5B JUMPI PUSH1 0x40 MLOAD PUSH32 0x8C379A000000000000000000000000000000000000000000000000000000000 DUP2 MSTORE PUSH1 0x4 ADD PUSH2 0x1B52 SWAP1 PUSH2 0x5EFF JUMP JUMPDEST PUSH1 0x40 MLOAD DUP1 SWAP2 SUB SWAP1 REVERT JUMPDEST DUP1 PUSH1 0x14 DUP2 SWAP1 SSTORE POP POP JUMP JUMPDEST PUSH2 0x1B6D PUSH2 0x31FE JUMP JUMPDEST PUSH20 0xFFFFFFFFFFFFFFFFFFFFFFFFFFFFFFFFFFFFFFFF AND PUSH0 DUP1 SLOAD SWAP1 PUSH2 0x100 EXP SWAP1 DIV PUSH20 0xFFFFFFFFFFFFFFFFFFFFFFFFFFFFFFFFFFFFFFFF AND PUSH20 0xFFFFFFFFFFFFFFFFFFFFFFFFFFFFFFFFFFFFFFFF AND EQ PUSH2 0x1BF9 JUMPI PUSH1 0x40 MLOAD PUSH32 0x8C379A000000000000000000000000000000000000000000000000000000000 DUP2 MSTORE PUSH1 0x4 ADD PUSH2 0x1BF0 SWAP1 PUSH2 0x594B JUMP JUMPDEST PUSH1 0x40 MLOAD DUP1 SWAP2 SUB SWAP1 REVERT JUMPDEST PUSH1 0xE PUSH0 SWAP1 SLOAD SWAP1 PUSH2 0x100 EXP SWAP1 DIV PUSH20 0xFFFFFFFFFFFFFFFFFFFFFFFFFFFFFFFFFFFFFFFF AND PUSH20 0xFFFFFFFFFFFFFFFFFFFFFFFFFFFFFFFFFFFFFFFF AND PUSH2 0x8FC SELFBALANCE SWAP1 DUP2 ISZERO MUL SWAP1 PUSH1 0x40 MLOAD PUSH0 PUSH1 0x40 MLOAD DUP1 DUP4 SUB DUP2 DUP6 DUP9 DUP9 CALL SWAP4 POP POP POP POP ISZERO DUP1 ISZERO PUSH2 0x1C5D JUMPI RETURNDATASIZE PUSH0 DUP1 RETURNDATACOPY RETURNDATASIZE PUSH0 REVERT JUMPDEST POP JUMP JUMPDEST PUSH32 0x0 DUP2 JUMP JUMPDEST PUSH1 0x17 PUSH1 0x1 SWAP1 SLOAD SWAP1 PUSH2 0x100 EXP SWAP1 DIV PUSH1 0xFF AND DUP2 JUMP JUMPDEST PUSH2 0x1C9F PUSH2 0x31FE JUMP JUMPDEST PUSH20 0xFFFFFFFFFFFFFFFFFFFFFFFFFFFFFFFFFFFFFFFF AND PUSH0 DUP1 SLOAD SWAP1 PUSH2 0x100 EXP SWAP1 DIV PUSH20 0xFFFFFFFFFFFFFFFFFFFFFFFFFFFFFFFFFFFFFFFF AND PUSH20 0xFFFFFFFFFFFFFFFFFFFFFFFFFFFFFFFFFFFFFFFF AND EQ PUSH2 0x1D2B JUMPI PUSH1 0x40 MLOAD PUSH32 0x8C379A000000000000000000000000000000000000000000000000000000000 DUP2 MSTORE PUSH1 0x4 ADD PUSH2 0x1D22 SWAP1 PUSH2 0x594B JUMP JUMPDEST PUSH1 0x40 MLOAD DUP1 SWAP2 SUB SWAP1 REVERT JUMPDEST PUSH1 0x7 PUSH0 DUP3 PUSH20 0xFFFFFFFFFFFFFFFFFFFFFFFFFFFFFFFFFFFFFFFF AND PUSH20 0xFFFFFFFFFFFFFFFFFFFFFFFFFFFFFFFFFFFFFFFF AND DUP2 MSTORE PUSH1 0x20 ADD SWAP1 DUP2 MSTORE PUSH1 0x20 ADD PUSH0 KECCAK256 PUSH0 SWAP1 SLOAD SWAP1 PUSH2 0x100 EXP SWAP1 DIV PUSH1 0xFF AND ISZERO PUSH2 0x1DB5 JUMPI PUSH1 0x40 MLOAD PUSH32 0x8C379A000000000000000000000000000000000000000000000000000000000 DUP2 MSTORE PUSH1 0x4 ADD PUSH2 0x1DAC SWAP1 PUSH2 0x5C02 JUMP JUMPDEST PUSH1 0x40 MLOAD DUP1 SWAP2 SUB SWAP1 REVERT JUMPDEST PUSH0 PUSH1 0x3 PUSH0 DUP4 PUSH20 0xFFFFFFFFFFFFFFFFFFFFFFFFFFFFFFFFFFFFFFFF AND PUSH20 0xFFFFFFFFFFFFFFFFFFFFFFFFFFFFFFFFFFFFFFFF AND DUP2 MSTORE PUSH1 0x20 ADD SWAP1 DUP2 MSTORE PUSH1 0x20 ADD PUSH0 KECCAK256 SLOAD GT ISZERO PUSH2 0x1E82 JUMPI PUSH2 0x1E40 PUSH1 0x3 PUSH0 DUP4 PUSH20 0xFFFFFFFFFFFFFFFFFFFFFFFFFFFFFFFFFFFFFFFF AND PUSH20 0xFFFFFFFFFFFFFFFFFFFFFFFFFFFFFFFFFFFFFFFF AND DUP2 MSTORE PUSH1 0x20 ADD SWAP1 DUP2 MSTORE PUSH1 0x20 ADD PUSH0 KECCAK256 SLOAD PUSH2 0x119C JUMP JUMPDEST PUSH1 0x4 PUSH0 DUP4 PUSH20 0xFFFFFFFFFFFFFFFFFFFFFFFFFFFFFFFFFFFFFFFF AND PUSH20 0xFFFFFFFFFFFFFFFFFFFFFFFFFFFFFFFFFFFFFFFF AND DUP2 MSTORE PUSH1 0x20 ADD SWAP1 DUP2 MSTORE PUSH1 0x20 ADD PUSH0 KECCAK256 DUP2 SWAP1 SSTORE POP JUMPDEST PUSH1 0x1 PUSH1 0x7 PUSH0 DUP4 PUSH20 0xFFFFFFFFFFFFFFFFFFFFFFFFFFFFFFFFFFFFFFFF AND PUSH20 0xFFFFFFFFFFFFFFFFFFFFFFFFFFFFFFFFFFFFFFFF AND DUP2 MSTORE PUSH1 0x20 ADD SWAP1 DUP2 MSTORE PUSH1 0x20 ADD PUSH0 KECCAK256 PUSH0 PUSH2 0x100 EXP DUP2 SLOAD DUP2 PUSH1 0xFF MUL NOT AND SWAP1 DUP4 ISZERO ISZERO MUL OR SWAP1 SSTORE POP PUSH1 0x8 DUP2 SWAP1 DUP1 PUSH1 0x1 DUP2 SLOAD ADD DUP1 DUP3 SSTORE DUP1 SWAP2 POP POP PUSH1 0x1 SWAP1 SUB SWAP1 PUSH0 MSTORE PUSH1 0x20 PUSH0 KECCAK256 ADD PUSH0 SWAP1 SWAP2 SWAP1 SWAP2 SWAP1 SWAP2 PUSH2 0x100 EXP DUP2 SLOAD DUP2 PUSH20 0xFFFFFFFFFFFFFFFFFFFFFFFFFFFFFFFFFFFFFFFF MUL NOT AND SWAP1 DUP4 PUSH20 0xFFFFFFFFFFFFFFFFFFFFFFFFFFFFFFFFFFFFFFFF AND MUL OR SWAP1 SSTORE POP POP JUMP JUMPDEST PUSH0 PUSH1 0x6 PUSH0 DUP4 PUSH20 0xFFFFFFFFFFFFFFFFFFFFFFFFFFFFFFFFFFFFFFFF AND PUSH20 0xFFFFFFFFFFFFFFFFFFFFFFFFFFFFFFFFFFFFFFFF AND DUP2 MSTORE PUSH1 0x20 ADD SWAP1 DUP2 MSTORE PUSH1 0x20 ADD PUSH0 KECCAK256 PUSH0 SWAP1 SLOAD SWAP1 PUSH2 0x100 EXP SWAP1 DIV PUSH1 0xFF AND SWAP1 POP SWAP2 SWAP1 POP JUMP JUMPDEST PUSH2 0x1F94 PUSH2 0x31FE JUMP JUMPDEST PUSH20 0xFFFFFFFFFFFFFFFFFFFFFFFFFFFFFFFFFFFFFFFF AND PUSH0 DUP1 SLOAD SWAP1 PUSH2 0x100 EXP SWAP1 DIV PUSH20 0xFFFFFFFFFFFFFFFFFFFFFFFFFFFFFFFFFFFFFFFF AND PUSH20 0xFFFFFFFFFFFFFFFFFFFFFFFFFFFFFFFFFFFFFFFF AND EQ PUSH2 0x2020 JUMPI PUSH1 0x40 MLOAD PUSH32 0x8C379A000000000000000000000000000000000000000000000000000000000 DUP2 MSTORE PUSH1 0x4 ADD PUSH2 0x2017 SWAP1 PUSH2 0x594B JUMP JUMPDEST PUSH1 0x40 MLOAD DUP1 SWAP2 SUB SWAP1 REVERT JUMPDEST DUP1 PUSH1 0xE PUSH0 PUSH2 0x100 EXP DUP2 SLOAD DUP2 PUSH20 0xFFFFFFFFFFFFFFFFFFFFFFFFFFFFFFFFFFFFFFFF MUL NOT AND SWAP1 DUP4 PUSH20 0xFFFFFFFFFFFFFFFFFFFFFFFFFFFFFFFFFFFFFFFF AND MUL OR SWAP1 SSTORE POP POP JUMP JUMPDEST PUSH0 PUSH1 0x9 PUSH0 DUP4 PUSH20 0xFFFFFFFFFFFFFFFFFFFFFFFFFFFFFFFFFFFFFFFF AND PUSH20 0xFFFFFFFFFFFFFFFFFFFFFFFFFFFFFFFFFFFFFFFF AND DUP2 MSTORE PUSH1 0x20 ADD SWAP1 DUP2 MSTORE PUSH1 0x20 ADD PUSH0 KECCAK256 PUSH0 SWAP1 SLOAD SWAP1 PUSH2 0x100 EXP SWAP1 DIV PUSH1 0xFF AND SWAP1 POP SWAP2 SWAP1 POP JUMP JUMPDEST PUSH1 0x15 SLOAD DUP2 JUMP JUMPDEST PUSH0 PUSH1 0x7 PUSH0 DUP4 PUSH20 0xFFFFFFFFFFFFFFFFFFFFFFFFFFFFFFFFFFFFFFFF AND PUSH20 0xFFFFFFFFFFFFFFFFFFFFFFFFFFFFFFFFFFFFFFFF AND DUP2 MSTORE PUSH1 0x20 ADD SWAP1 DUP2 MSTORE PUSH1 0x20 ADD PUSH0 KECCAK256 PUSH0 SWAP1 SLOAD SWAP1 PUSH2 0x100 EXP SWAP1 DIV PUSH1 0xFF AND ISZERO PUSH2 0x2150 JUMPI PUSH1 0x4 PUSH0 DUP4 PUSH20 0xFFFFFFFFFFFFFFFFFFFFFFFFFFFFFFFFFFFFFFFF AND PUSH20 0xFFFFFFFFFFFFFFFFFFFFFFFFFFFFFFFFFFFFFFFF AND DUP2 MSTORE PUSH1 0x20 ADD SWAP1 DUP2 MSTORE PUSH1 0x20 ADD PUSH0 KECCAK256 SLOAD SWAP1 POP PUSH2 0x2199 JUMP JUMPDEST PUSH2 0x2196 PUSH1 0x3 PUSH0 DUP5 PUSH20 0xFFFFFFFFFFFFFFFFFFFFFFFFFFFFFFFFFFFFFFFF AND PUSH20 0xFFFFFFFFFFFFFFFFFFFFFFFFFFFFFFFFFFFFFFFF AND DUP2 MSTORE PUSH1 0x20 ADD SWAP1 DUP2 MSTORE PUSH1 0x20 ADD PUSH0 KECCAK256 SLOAD PUSH2 0x119C JUMP JUMPDEST SWAP1 POP JUMPDEST SWAP2 SWAP1 POP JUMP JUMPDEST PUSH2 0x21A6 PUSH2 0x31FE JUMP JUMPDEST PUSH20 0xFFFFFFFFFFFFFFFFFFFFFFFFFFFFFFFFFFFFFFFF AND PUSH0 DUP1 SLOAD SWAP1 PUSH2 0x100 EXP SWAP1 DIV PUSH20 0xFFFFFFFFFFFFFFFFFFFFFFFFFFFFFFFFFFFFFFFF AND PUSH20 0xFFFFFFFFFFFFFFFFFFFFFFFFFFFFFFFFFFFFFFFF AND EQ PUSH2 0x2232 JUMPI PUSH1 0x40 MLOAD PUSH32 0x8C379A000000000000000000000000000000000000000000000000000000000 DUP2 MSTORE PUSH1 0x4 ADD PUSH2 0x2229 SWAP1 PUSH2 0x594B JUMP JUMPDEST PUSH1 0x40 MLOAD DUP1 SWAP2 SUB SWAP1 REVERT JUMPDEST PUSH0 PUSH20 0xFFFFFFFFFFFFFFFFFFFFFFFFFFFFFFFFFFFFFFFF AND PUSH0 DUP1 SLOAD SWAP1 PUSH2 0x100 EXP SWAP1 DIV PUSH20 0xFFFFFFFFFFFFFFFFFFFFFFFFFFFFFFFFFFFFFFFF AND PUSH20 0xFFFFFFFFFFFFFFFFFFFFFFFFFFFFFFFFFFFFFFFF AND PUSH32 0x8BE0079C531659141344CD1FD0A4F28419497F9722A3DAAFE3B4186F6B6457E0 PUSH1 0x40 MLOAD PUSH1 0x40 MLOAD DUP1 SWAP2 SUB SWAP1 LOG3 PUSH0 DUP1 PUSH0 PUSH2 0x100 EXP DUP2 SLOAD DUP2 PUSH20 0xFFFFFFFFFFFFFFFFFFFFFFFFFFFFFFFFFFFFFFFF MUL NOT AND SWAP1 DUP4 PUSH20 0xFFFFFFFFFFFFFFFFFFFFFFFFFFFFFFFFFFFFFFFF AND MUL OR SWAP1 SSTORE POP JUMP JUMPDEST PUSH1 0xE PUSH0 SWAP1 SLOAD SWAP1 PUSH2 0x100 EXP SWAP1 DIV PUSH20 0xFFFFFFFFFFFFFFFFFFFFFFFFFFFFFFFFFFFFFFFF AND DUP2 JUMP JUMPDEST PUSH2 0x2319 PUSH2 0x31FE JUMP JUMPDEST PUSH20 0xFFFFFFFFFFFFFFFFFFFFFFFFFFFFFFFFFFFFFFFF AND PUSH0 DUP1 SLOAD SWAP1 PUSH2 0x100 EXP SWAP1 DIV PUSH20 0xFFFFFFFFFFFFFFFFFFFFFFFFFFFFFFFFFFFFFFFF AND PUSH20 0xFFFFFFFFFFFFFFFFFFFFFFFFFFFFFFFFFFFFFFFF AND EQ PUSH2 0x23A5 JUMPI PUSH1 0x40 MLOAD PUSH32 0x8C379A000000000000000000000000000000000000000000000000000000000 DUP2 MSTORE PUSH1 0x4 ADD PUSH2 0x239C SWAP1 PUSH2 0x594B JUMP JUMPDEST PUSH1 0x40 MLOAD DUP1 SWAP2 SUB SWAP1 REVERT JUMPDEST DUP1 PUSH20 0xFFFFFFFFFFFFFFFFFFFFFFFFFFFFFFFFFFFFFFFF AND PUSH2 0x8FC SELFBALANCE SWAP1 DUP2 ISZERO MUL SWAP1 PUSH1 0x40 MLOAD PUSH0 PUSH1 0x40 MLOAD DUP1 DUP4 SUB DUP2 DUP6 DUP9 DUP9 CALL SWAP4 POP POP POP POP ISZERO DUP1 ISZERO PUSH2 0x23E8 JUMPI RETURNDATASIZE PUSH0 DUP1 RETURNDATACOPY RETURNDATASIZE PUSH0 REVERT JUMPDEST POP POP JUMP JUMPDEST PUSH1 0x18 SLOAD DUP2 JUMP JUMPDEST PUSH0 PUSH1 0x7 PUSH0 DUP4 PUSH20 0xFFFFFFFFFFFFFFFFFFFFFFFFFFFFFFFFFFFFFFFF AND PUSH20 0xFFFFFFFFFFFFFFFFFFFFFFFFFFFFFFFFFFFFFFFF AND DUP2 MSTORE PUSH1 0x20 ADD SWAP1 DUP2 MSTORE PUSH1 0x20 ADD PUSH0 KECCAK256 PUSH0 SWAP1 SLOAD SWAP1 PUSH2 0x100 EXP SWAP1 DIV PUSH1 0xFF AND SWAP1 POP SWAP2 SWAP1 POP JUMP JUMPDEST PUSH2 0x244C PUSH2 0x31FE JUMP JUMPDEST PUSH20 0xFFFFFFFFFFFFFFFFFFFFFFFFFFFFFFFFFFFFFFFF AND PUSH0 DUP1 SLOAD SWAP1 PUSH2 0x100 EXP SWAP1 DIV PUSH20 0xFFFFFFFFFFFFFFFFFFFFFFFFFFFFFFFFFFFFFFFF AND PUSH20 0xFFFFFFFFFFFFFFFFFFFFFFFFFFFFFFFFFFFFFFFF AND EQ PUSH2 0x24D8 JUMPI PUSH1 0x40 MLOAD PUSH32 0x8C379A000000000000000000000000000000000000000000000000000000000 DUP2 MSTORE PUSH1 0x4 ADD PUSH2 0x24CF SWAP1 PUSH2 0x594B JUMP JUMPDEST PUSH1 0x40 MLOAD DUP1 SWAP2 SUB SWAP1 REVERT JUMPDEST PUSH2 0x24E0 PUSH2 0x39DF JUMP JUMPDEST PUSH2 0x2501 PUSH2 0x24EB PUSH2 0x31FE JUMP JUMPDEST DUP4 PUSH4 0x3B9ACA00 DUP5 PUSH2 0x24FC SWAP2 SWAP1 PUSH2 0x5AE9 JUMP JUMPDEST PUSH2 0x33C8 JUMP JUMPDEST PUSH2 0x2509 PUSH2 0x3A18 JUMP JUMPDEST POP POP JUMP JUMPDEST PUSH0 DUP1 PUSH0 SWAP1 SLOAD SWAP1 PUSH2 0x100 EXP SWAP1 DIV PUSH20 0xFFFFFFFFFFFFFFFFFFFFFFFFFFFFFFFFFFFFFFFF AND SWAP1 POP SWAP1 JUMP JUMPDEST PUSH2 0x253C PUSH2 0x31FE JUMP JUMPDEST PUSH20 0xFFFFFFFFFFFFFFFFFFFFFFFFFFFFFFFFFFFFFFFF AND PUSH0 DUP1 SLOAD SWAP1 PUSH2 0x100 EXP SWAP1 DIV PUSH20 0xFFFFFFFFFFFFFFFFFFFFFFFFFFFFFFFFFFFFFFFF AND PUSH20 0xFFFFFFFFFFFFFFFFFFFFFFFFFFFFFFFFFFFFFFFF AND EQ PUSH2 0x25C8 JUMPI PUSH1 0x40 MLOAD PUSH32 0x8C379A000000000000000000000000000000000000000000000000000000000 DUP2 MSTORE PUSH1 0x4 ADD PUSH2 0x25BF SWAP1 PUSH2 0x594B JUMP JUMPDEST PUSH1 0x40 MLOAD DUP1 SWAP2 SUB SWAP1 REVERT JUMPDEST DUP1 PUSH1 0x15 DUP2 SWAP1 SSTORE POP POP JUMP JUMPDEST PUSH1 0x60 PUSH1 0x10 DUP1 SLOAD PUSH2 0x25E1 SWAP1 PUSH2 0x59FE JUMP JUMPDEST DUP1 PUSH1 0x1F ADD PUSH1 0x20 DUP1 SWAP2 DIV MUL PUSH1 0x20 ADD PUSH1 0x40 MLOAD SWAP1 DUP2 ADD PUSH1 0x40 MSTORE DUP1 SWAP3 SWAP2 SWAP1 DUP2 DUP2 MSTORE PUSH1 0x20 ADD DUP3 DUP1 SLOAD PUSH2 0x260D SWAP1 PUSH2 0x59FE JUMP JUMPDEST DUP1 ISZERO PUSH2 0x2658 JUMPI DUP1 PUSH1 0x1F LT PUSH2 0x262F JUMPI PUSH2 0x100 DUP1 DUP4 SLOAD DIV MUL DUP4 MSTORE SWAP2 PUSH1 0x20 ADD SWAP2 PUSH2 0x2658 JUMP JUMPDEST DUP3 ADD SWAP2 SWAP1 PUSH0 MSTORE PUSH1 0x20 PUSH0 KECCAK256 SWAP1 JUMPDEST DUP2 SLOAD DUP2 MSTORE SWAP1 PUSH1 0x1 ADD SWAP1 PUSH1 0x20 ADD DUP1 DUP4 GT PUSH2 0x263B JUMPI DUP3 SWAP1 SUB PUSH1 0x1F AND DUP3 ADD SWAP2 JUMPDEST POP POP POP POP POP SWAP1 POP SWAP1 JUMP JUMPDEST PUSH0 PUSH2 0x2720 PUSH2 0x266E PUSH2 0x31FE JUMP JUMPDEST DUP5 PUSH2 0x271B DUP6 PUSH1 0x40 MLOAD DUP1 PUSH1 0x60 ADD PUSH1 0x40 MSTORE DUP1 PUSH1 0x25 DUP2 MSTORE PUSH1 0x20 ADD PUSH2 0x699A PUSH1 0x25 SWAP2 CODECOPY PUSH1 0x5 PUSH0 PUSH2 0x2697 PUSH2 0x31FE JUMP JUMPDEST PUSH20 0xFFFFFFFFFFFFFFFFFFFFFFFFFFFFFFFFFFFFFFFF AND PUSH20 0xFFFFFFFFFFFFFFFFFFFFFFFFFFFFFFFFFFFFFFFF AND DUP2 MSTORE PUSH1 0x20 ADD SWAP1 DUP2 MSTORE PUSH1 0x20 ADD PUSH0 KECCAK256 PUSH0 DUP11 PUSH20 0xFFFFFFFFFFFFFFFFFFFFFFFFFFFFFFFFFFFFFFFF AND PUSH20 0xFFFFFFFFFFFFFFFFFFFFFFFFFFFFFFFFFFFFFFFF AND DUP2 MSTORE PUSH1 0x20 ADD SWAP1 DUP2 MSTORE PUSH1 0x20 ADD PUSH0 KECCAK256 SLOAD PUSH2 0x3810 SWAP1 SWAP3 SWAP2 SWAP1 PUSH4 0xFFFFFFFF AND JUMP JUMPDEST PUSH2 0x3205 JUMP JUMPDEST PUSH1 0x1 SWAP1 POP SWAP3 SWAP2 POP POP JUMP JUMPDEST PUSH2 0x2732 PUSH2 0x31FE JUMP JUMPDEST PUSH20 0xFFFFFFFFFFFFFFFFFFFFFFFFFFFFFFFFFFFFFFFF AND PUSH0 DUP1 SLOAD SWAP1 PUSH2 0x100 EXP SWAP1 DIV PUSH20 0xFFFFFFFFFFFFFFFFFFFFFFFFFFFFFFFFFFFFFFFF AND PUSH20 0xFFFFFFFFFFFFFFFFFFFFFFFFFFFFFFFFFFFFFFFF AND EQ PUSH2 0x27BE JUMPI PUSH1 0x40 MLOAD PUSH32 0x8C379A000000000000000000000000000000000000000000000000000000000 DUP2 MSTORE PUSH1 0x4 ADD PUSH2 0x27B5 SWAP1 PUSH2 0x594B JUMP JUMPDEST PUSH1 0x40 MLOAD DUP1 SWAP2 SUB SWAP1 REVERT JUMPDEST PUSH1 0x1 PUSH1 0xA PUSH1 0x1 PUSH2 0x100 EXP DUP2 SLOAD DUP2 PUSH1 0xFF MUL NOT AND SWAP1 DUP4 ISZERO ISZERO MUL OR SWAP1 SSTORE POP JUMP JUMPDEST CALLER PUSH20 0xFFFFFFFFFFFFFFFFFFFFFFFFFFFFFFFFFFFFFFFF AND PUSH1 0x1 PUSH0 SWAP1 SLOAD SWAP1 PUSH2 0x100 EXP SWAP1 DIV PUSH20 0xFFFFFFFFFFFFFFFFFFFFFFFFFFFFFFFFFFFFFFFF AND PUSH20 0xFFFFFFFFFFFFFFFFFFFFFFFFFFFFFFFFFFFFFFFF AND EQ PUSH2 0x286A JUMPI PUSH1 0x40 MLOAD PUSH32 0x8C379A000000000000000000000000000000000000000000000000000000000 DUP2 MSTORE PUSH1 0x4 ADD PUSH2 0x2861 SWAP1 PUSH2 0x5F8D JUMP JUMPDEST PUSH1 0x40 MLOAD DUP1 SWAP2 SUB SWAP1 REVERT JUMPDEST PUSH1 0x2 SLOAD TIMESTAMP GT PUSH2 0x28AE JUMPI PUSH1 0x40 MLOAD PUSH32 0x8C379A000000000000000000000000000000000000000000000000000000000 DUP2 MSTORE PUSH1 0x4 ADD PUSH2 0x28A5 SWAP1 PUSH2 0x5FF5 JUMP JUMPDEST PUSH1 0x40 MLOAD DUP1 SWAP2 SUB SWAP1 REVERT JUMPDEST PUSH1 0x1 PUSH0 SWAP1 SLOAD SWAP1 PUSH2 0x100 EXP SWAP1 DIV PUSH20 0xFFFFFFFFFFFFFFFFFFFFFFFFFFFFFFFFFFFFFFFF AND PUSH20 0xFFFFFFFFFFFFFFFFFFFFFFFFFFFFFFFFFFFFFFFF AND PUSH0 DUP1 SLOAD SWAP1 PUSH2 0x100 EXP SWAP1 DIV PUSH20 0xFFFFFFFFFFFFFFFFFFFFFFFFFFFFFFFFFFFFFFFF AND PUSH20 0xFFFFFFFFFFFFFFFFFFFFFFFFFFFFFFFFFFFFFFFF AND PUSH32 0x8BE0079C531659141344CD1FD0A4F28419497F9722A3DAAFE3B4186F6B6457E0 PUSH1 0x40 MLOAD PUSH1 0x40 MLOAD DUP1 SWAP2 SUB SWAP1 LOG3 PUSH1 0x1 PUSH0 SWAP1 SLOAD SWAP1 PUSH2 0x100 EXP SWAP1 DIV PUSH20 0xFFFFFFFFFFFFFFFFFFFFFFFFFFFFFFFFFFFFFFFF AND PUSH0 DUP1 PUSH2 0x100 EXP DUP2 SLOAD DUP2 PUSH20 0xFFFFFFFFFFFFFFFFFFFFFFFFFFFFFFFFFFFFFFFF MUL NOT AND SWAP1 DUP4 PUSH20 0xFFFFFFFFFFFFFFFFFFFFFFFFFFFFFFFFFFFFFFFF AND MUL OR SWAP1 SSTORE POP JUMP JUMPDEST PUSH0 PUSH2 0x29BD PUSH2 0x29B6 PUSH2 0x31FE JUMP JUMPDEST DUP5 DUP5 PUSH2 0x33C8 JUMP JUMPDEST PUSH1 0x1 SWAP1 POP SWAP3 SWAP2 POP POP JUMP JUMPDEST PUSH0 PUSH1 0x2 SLOAD SWAP1 POP SWAP1 JUMP JUMPDEST PUSH2 0x29D8 PUSH2 0x31FE JUMP JUMPDEST PUSH20 0xFFFFFFFFFFFFFFFFFFFFFFFFFFFFFFFFFFFFFFFF AND PUSH0 DUP1 SLOAD SWAP1 PUSH2 0x100 EXP SWAP1 DIV PUSH20 0xFFFFFFFFFFFFFFFFFFFFFFFFFFFFFFFFFFFFFFFF AND PUSH20 0xFFFFFFFFFFFFFFFFFFFFFFFFFFFFFFFFFFFFFFFF AND EQ PUSH2 0x2A64 JUMPI PUSH1 0x40 MLOAD PUSH32 0x8C379A000000000000000000000000000000000000000000000000000000000 DUP2 MSTORE PUSH1 0x4 ADD PUSH2 0x2A5B SWAP1 PUSH2 0x594B JUMP JUMPDEST PUSH1 0x40 MLOAD DUP1 SWAP2 SUB SWAP1 REVERT JUMPDEST DUP1 PUSH1 0x17 PUSH1 0x1 PUSH2 0x100 EXP DUP2 SLOAD DUP2 PUSH1 0xFF MUL NOT AND SWAP1 DUP4 ISZERO ISZERO MUL OR SWAP1 SSTORE POP PUSH32 0x53726DFCAF90650AA7EB35524F4D3220F07413C8D6CB404CC8C18BF5591BC159 DUP2 PUSH1 0x40 MLOAD PUSH2 0x2AAD SWAP2 SWAP1 PUSH2 0x54BC JUMP JUMPDEST PUSH1 0x40 MLOAD DUP1 SWAP2 SUB SWAP1 LOG1 POP JUMP JUMPDEST PUSH1 0x19 SLOAD DUP2 JUMP JUMPDEST PUSH2 0x2AC6 PUSH2 0x31FE JUMP JUMPDEST PUSH20 0xFFFFFFFFFFFFFFFFFFFFFFFFFFFFFFFFFFFFFFFF AND PUSH0 DUP1 SLOAD SWAP1 PUSH2 0x100 EXP SWAP1 DIV PUSH20 0xFFFFFFFFFFFFFFFFFFFFFFFFFFFFFFFFFFFFFFFF AND PUSH20 0xFFFFFFFFFFFFFFFFFFFFFFFFFFFFFFFFFFFFFFFF AND EQ PUSH2 0x2B52 JUMPI PUSH1 0x40 MLOAD PUSH32 0x8C379A000000000000000000000000000000000000000000000000000000000 DUP2 MSTORE PUSH1 0x4 ADD PUSH2 0x2B49 SWAP1 PUSH2 0x594B JUMP JUMPDEST PUSH1 0x40 MLOAD DUP1 SWAP2 SUB SWAP1 REVERT JUMPDEST PUSH0 DUP3 DUP3 SWAP1 POP DUP6 DUP6 SWAP1 POP EQ PUSH2 0x2B9B JUMPI PUSH1 0x40 MLOAD PUSH32 0x8C379A000000000000000000000000000000000000000000000000000000000 DUP2 MSTORE PUSH1 0x4 ADD PUSH2 0x2B92 SWAP1 PUSH2 0x605D JUMP JUMPDEST PUSH1 0x40 MLOAD DUP1 SWAP2 SUB SWAP1 REVERT JUMPDEST JUMPDEST DUP5 DUP5 SWAP1 POP DUP2 LT ISZERO PUSH2 0x2C14 JUMPI PUSH2 0x2C00 DUP6 DUP6 DUP4 DUP2 DUP2 LT PUSH2 0x2BBD JUMPI PUSH2 0x2BBC PUSH2 0x5C20 JUMP JUMPDEST JUMPDEST SWAP1 POP PUSH1 0x20 MUL ADD PUSH1 0x20 DUP2 ADD SWAP1 PUSH2 0x2BD2 SWAP2 SWAP1 PUSH2 0x5331 JUMP JUMPDEST PUSH4 0x3B9ACA00 DUP6 DUP6 DUP6 DUP2 DUP2 LT PUSH2 0x2BEA JUMPI PUSH2 0x2BE9 PUSH2 0x5C20 JUMP JUMPDEST JUMPDEST SWAP1 POP PUSH1 0x20 MUL ADD CALLDATALOAD PUSH2 0x2BFB SWAP2 SWAP1 PUSH2 0x5AE9 JUMP JUMPDEST PUSH2 0x3A2C JUMP JUMPDEST PUSH1 0x1 DUP2 PUSH2 0x2C0D SWAP2 SWAP1 PUSH2 0x607B JUMP JUMPDEST SWAP1 POP PUSH2 0x2B9C JUMP JUMPDEST POP POP POP POP POP JUMP JUMPDEST PUSH1 0x14 SLOAD DUP2 JUMP JUMPDEST PUSH2 0x2C29 PUSH2 0x31FE JUMP JUMPDEST PUSH20 0xFFFFFFFFFFFFFFFFFFFFFFFFFFFFFFFFFFFFFFFF AND PUSH0 DUP1 SLOAD SWAP1 PUSH2 0x100 EXP SWAP1 DIV PUSH20 0xFFFFFFFFFFFFFFFFFFFFFFFFFFFFFFFFFFFFFFFF AND PUSH20 0xFFFFFFFFFFFFFFFFFFFFFFFFFFFFFFFFFFFFFFFF AND EQ PUSH2 0x2CB5 JUMPI PUSH1 0x40 MLOAD PUSH32 0x8C379A000000000000000000000000000000000000000000000000000000000 DUP2 MSTORE PUSH1 0x4 ADD PUSH2 0x2CAC SWAP1 PUSH2 0x594B JUMP JUMPDEST PUSH1 0x40 MLOAD DUP1 SWAP2 SUB SWAP1 REVERT JUMPDEST PUSH0 DUP1 SLOAD SWAP1 PUSH2 0x100 EXP SWAP1 DIV PUSH20 0xFFFFFFFFFFFFFFFFFFFFFFFFFFFFFFFFFFFFFFFF AND PUSH1 0x1 PUSH0 PUSH2 0x100 EXP DUP2 SLOAD DUP2 PUSH20 0xFFFFFFFFFFFFFFFFFFFFFFFFFFFFFFFFFFFFFFFF MUL NOT AND SWAP1 DUP4 PUSH20 0xFFFFFFFFFFFFFFFFFFFFFFFFFFFFFFFFFFFFFFFF AND MUL OR SWAP1 SSTORE POP PUSH0 DUP1 PUSH0 PUSH2 0x100 EXP DUP2 SLOAD DUP2 PUSH20 0xFFFFFFFFFFFFFFFFFFFFFFFFFFFFFFFFFFFFFFFF MUL NOT AND SWAP1 DUP4 PUSH20 0xFFFFFFFFFFFFFFFFFFFFFFFFFFFFFFFFFFFFFFFF AND MUL OR SWAP1 SSTORE POP DUP1 TIMESTAMP PUSH2 0x2D5F SWAP2 SWAP1 PUSH2 0x607B JUMP JUMPDEST PUSH1 0x2 DUP2 SWAP1 SSTORE POP PUSH0 PUSH20 0xFFFFFFFFFFFFFFFFFFFFFFFFFFFFFFFFFFFFFFFF AND PUSH0 DUP1 SLOAD SWAP1 PUSH2 0x100 EXP SWAP1 DIV PUSH20 0xFFFFFFFFFFFFFFFFFFFFFFFFFFFFFFFFFFFFFFFF AND PUSH20 0xFFFFFFFFFFFFFFFFFFFFFFFFFFFFFFFFFFFFFFFF AND PUSH32 0x8BE0079C531659141344CD1FD0A4F28419497F9722A3DAAFE3B4186F6B6457E0 PUSH1 0x40 MLOAD PUSH1 0x40 MLOAD DUP1 SWAP2 SUB SWAP1 LOG3 POP JUMP JUMPDEST PUSH0 PUSH1 0x5 PUSH0 DUP5 PUSH20 0xFFFFFFFFFFFFFFFFFFFFFFFFFFFFFFFFFFFFFFFF AND PUSH20 0xFFFFFFFFFFFFFFFFFFFFFFFFFFFFFFFFFFFFFFFF AND DUP2 MSTORE PUSH1 0x20 ADD SWAP1 DUP2 MSTORE PUSH1 0x20 ADD PUSH0 KECCAK256 PUSH0 DUP4 PUSH20 0xFFFFFFFFFFFFFFFFFFFFFFFFFFFFFFFFFFFFFFFF AND PUSH20 0xFFFFFFFFFFFFFFFFFFFFFFFFFFFFFFFFFFFFFFFF AND DUP2 MSTORE PUSH1 0x20 ADD SWAP1 DUP2 MSTORE PUSH1 0x20 ADD PUSH0 KECCAK256 SLOAD SWAP1 POP SWAP3 SWAP2 POP POP JUMP JUMPDEST PUSH2 0x2E6B PUSH2 0x31FE JUMP JUMPDEST PUSH20 0xFFFFFFFFFFFFFFFFFFFFFFFFFFFFFFFFFFFFFFFF AND PUSH0 DUP1 SLOAD SWAP1 PUSH2 0x100 EXP SWAP1 DIV PUSH20 0xFFFFFFFFFFFFFFFFFFFFFFFFFFFFFFFFFFFFFFFF AND PUSH20 0xFFFFFFFFFFFFFFFFFFFFFFFFFFFFFFFFFFFFFFFF AND EQ PUSH2 0x2EF7 JUMPI PUSH1 0x40 MLOAD PUSH32 0x8C379A000000000000000000000000000000000000000000000000000000000 DUP2 MSTORE PUSH1 0x4 ADD PUSH2 0x2EEE SWAP1 PUSH2 0x594B JUMP JUMPDEST PUSH1 0x40 MLOAD DUP1 SWAP2 SUB SWAP1 REVERT JUMPDEST PUSH0 PUSH1 0x6 PUSH0 DUP4 PUSH20 0xFFFFFFFFFFFFFFFFFFFFFFFFFFFFFFFFFFFFFFFF AND PUSH20 0xFFFFFFFFFFFFFFFFFFFFFFFFFFFFFFFFFFFFFFFF AND DUP2 MSTORE PUSH1 0x20 ADD SWAP1 DUP2 MSTORE PUSH1 0x20 ADD PUSH0 KECCAK256 PUSH0 PUSH2 0x100 EXP DUP2 SLOAD DUP2 PUSH1 0xFF MUL NOT AND SWAP1 DUP4 ISZERO ISZERO MUL OR SWAP1 SSTORE POP POP JUMP JUMPDEST PUSH2 0x2F56 PUSH2 0x31FE JUMP JUMPDEST PUSH20 0xFFFFFFFFFFFFFFFFFFFFFFFFFFFFFFFFFFFFFFFF AND PUSH0 DUP1 SLOAD SWAP1 PUSH2 0x100 EXP SWAP1 DIV PUSH20 0xFFFFFFFFFFFFFFFFFFFFFFFFFFFFFFFFFFFFFFFF AND PUSH20 0xFFFFFFFFFFFFFFFFFFFFFFFFFFFFFFFFFFFFFFFF AND EQ PUSH2 0x2FE2 JUMPI PUSH1 0x40 MLOAD PUSH32 0x8C379A000000000000000000000000000000000000000000000000000000000 DUP2 MSTORE PUSH1 0x4 ADD PUSH2 0x2FD9 SWAP1 PUSH2 0x594B JUMP JUMPDEST PUSH1 0x40 MLOAD DUP1 SWAP2 SUB SWAP1 REVERT JUMPDEST PUSH4 0x41CDB40 DUP2 GT PUSH2 0x3028 JUMPI PUSH1 0x40 MLOAD PUSH32 0x8C379A000000000000000000000000000000000000000000000000000000000 DUP2 MSTORE PUSH1 0x4 ADD PUSH2 0x301F SWAP1 PUSH2 0x611E JUMP JUMPDEST PUSH1 0x40 MLOAD DUP1 SWAP2 SUB SWAP1 REVERT JUMPDEST PUSH4 0x3B9ACA00 DUP2 PUSH2 0x3038 SWAP2 SWAP1 PUSH2 0x5AE9 JUMP JUMPDEST PUSH1 0x18 DUP2 SWAP1 SSTORE POP POP JUMP JUMPDEST PUSH2 0x3049 PUSH2 0x31FE JUMP JUMPDEST PUSH20 0xFFFFFFFFFFFFFFFFFFFFFFFFFFFFFFFFFFFFFFFF AND PUSH0 DUP1 SLOAD SWAP1 PUSH2 0x100 EXP SWAP1 DIV PUSH20 0xFFFFFFFFFFFFFFFFFFFFFFFFFFFFFFFFFFFFFFFF AND PUSH20 0xFFFFFFFFFFFFFFFFFFFFFFFFFFFFFFFFFFFFFFFF AND EQ PUSH2 0x30D5 JUMPI PUSH1 0x40 MLOAD PUSH32 0x8C379A000000000000000000000000000000000000000000000000000000000 DUP2 MSTORE PUSH1 0x4 ADD PUSH2 0x30CC SWAP1 PUSH2 0x594B JUMP JUMPDEST PUSH1 0x40 MLOAD DUP1 SWAP2 SUB SWAP1 REVERT JUMPDEST PUSH0 PUSH20 0xFFFFFFFFFFFFFFFFFFFFFFFFFFFFFFFFFFFFFFFF AND DUP2 PUSH20 0xFFFFFFFFFFFFFFFFFFFFFFFFFFFFFFFFFFFFFFFF AND SUB PUSH2 0x3143 JUMPI PUSH1 0x40 MLOAD PUSH32 0x8C379A000000000000000000000000000000000000000000000000000000000 DUP2 MSTORE PUSH1 0x4 ADD PUSH2 0x313A SWAP1 PUSH2 0x61AC JUMP JUMPDEST PUSH1 0x40 MLOAD DUP1 SWAP2 SUB SWAP1 REVERT JUMPDEST DUP1 PUSH20 0xFFFFFFFFFFFFFFFFFFFFFFFFFFFFFFFFFFFFFFFF AND PUSH0 DUP1 SLOAD SWAP1 PUSH2 0x100 EXP SWAP1 DIV PUSH20 0xFFFFFFFFFFFFFFFFFFFFFFFFFFFFFFFFFFFFFFFF AND PUSH20 0xFFFFFFFFFFFFFFFFFFFFFFFFFFFFFFFFFFFFFFFF AND PUSH32 0x8BE0079C531659141344CD1FD0A4F28419497F9722A3DAAFE3B4186F6B6457E0 PUSH1 0x40 MLOAD PUSH1 0x40 MLOAD DUP1 SWAP2 SUB SWAP1 LOG3 DUP1 PUSH0 DUP1 PUSH2 0x100 EXP DUP2 SLOAD DUP2 PUSH20 0xFFFFFFFFFFFFFFFFFFFFFFFFFFFFFFFFFFFFFFFF MUL NOT AND SWAP1 DUP4 PUSH20 0xFFFFFFFFFFFFFFFFFFFFFFFFFFFFFFFFFFFFFFFF AND MUL OR SWAP1 SSTORE POP POP JUMP JUMPDEST PUSH0 CALLER SWAP1 POP SWAP1 JUMP JUMPDEST PUSH0 PUSH20 0xFFFFFFFFFFFFFFFFFFFFFFFFFFFFFFFFFFFFFFFF AND DUP4 PUSH20 0xFFFFFFFFFFFFFFFFFFFFFFFFFFFFFFFFFFFFFFFF AND SUB PUSH2 0x3273 JUMPI PUSH1 0x40 MLOAD PUSH32 0x8C379A000000000000000000000000000000000000000000000000000000000 DUP2 MSTORE PUSH1 0x4 ADD PUSH2 0x326A SWAP1 PUSH2 0x623A JUMP JUMPDEST PUSH1 0x40 MLOAD DUP1 SWAP2 SUB SWAP1 REVERT JUMPDEST PUSH0 PUSH20 0xFFFFFFFFFFFFFFFFFFFFFFFFFFFFFFFFFFFFFFFF AND DUP3 PUSH20 0xFFFFFFFFFFFFFFFFFFFFFFFFFFFFFFFFFFFFFFFF AND SUB PUSH2 0x32E1 JUMPI PUSH1 0x40 MLOAD PUSH32 0x8C379A000000000000000000000000000000000000000000000000000000000 DUP2 MSTORE PUSH1 0x4 ADD PUSH2 0x32D8 SWAP1 PUSH2 0x62C8 JUMP JUMPDEST PUSH1 0x40 MLOAD DUP1 SWAP2 SUB SWAP1 REVERT JUMPDEST DUP1 PUSH1 0x5 PUSH0 DUP6 PUSH20 0xFFFFFFFFFFFFFFFFFFFFFFFFFFFFFFFFFFFFFFFF AND PUSH20 0xFFFFFFFFFFFFFFFFFFFFFFFFFFFFFFFFFFFFFFFF AND DUP2 MSTORE PUSH1 0x20 ADD SWAP1 DUP2 MSTORE PUSH1 0x20 ADD PUSH0 KECCAK256 PUSH0 DUP5 PUSH20 0xFFFFFFFFFFFFFFFFFFFFFFFFFFFFFFFFFFFFFFFF AND PUSH20 0xFFFFFFFFFFFFFFFFFFFFFFFFFFFFFFFFFFFFFFFF AND DUP2 MSTORE PUSH1 0x20 ADD SWAP1 DUP2 MSTORE PUSH1 0x20 ADD PUSH0 KECCAK256 DUP2 SWAP1 SSTORE POP DUP2 PUSH20 0xFFFFFFFFFFFFFFFFFFFFFFFFFFFFFFFFFFFFFFFF AND DUP4 PUSH20 0xFFFFFFFFFFFFFFFFFFFFFFFFFFFFFFFFFFFFFFFF AND PUSH32 0x8C5BE1E5EBEC7D5BD14F71427D1E84F3DD0314C0F7B2291E5B200AC8C7C3B925 DUP4 PUSH1 0x40 MLOAD PUSH2 0x33BB SWAP2 SWAP1 PUSH2 0x54E4 JUMP JUMPDEST PUSH1 0x40 MLOAD DUP1 SWAP2 SUB SWAP1 LOG3 POP POP POP JUMP JUMPDEST PUSH0 PUSH20 0xFFFFFFFFFFFFFFFFFFFFFFFFFFFFFFFFFFFFFFFF AND DUP4 PUSH20 0xFFFFFFFFFFFFFFFFFFFFFFFFFFFFFFFFFFFFFFFF AND SUB PUSH2 0x3436 JUMPI PUSH1 0x40 MLOAD PUSH32 0x8C379A000000000000000000000000000000000000000000000000000000000 DUP2 MSTORE PUSH1 0x4 ADD PUSH2 0x342D SWAP1 PUSH2 0x6356 JUMP JUMPDEST PUSH1 0x40 MLOAD DUP1 SWAP2 SUB SWAP1 REVERT JUMPDEST PUSH0 PUSH20 0xFFFFFFFFFFFFFFFFFFFFFFFFFFFFFFFFFFFFFFFF AND DUP3 PUSH20 0xFFFFFFFFFFFFFFFFFFFFFFFFFFFFFFFFFFFFFFFF AND SUB PUSH2 0x34A4 JUMPI PUSH1 0x40 MLOAD PUSH32 0x8C379A000000000000000000000000000000000000000000000000000000000 DUP2 MSTORE PUSH1 0x4 ADD PUSH2 0x349B SWAP1 PUSH2 0x63E4 JUMP JUMPDEST PUSH1 0x40 MLOAD DUP1 SWAP2 SUB SWAP1 REVERT JUMPDEST PUSH0 DUP2 GT PUSH2 0x34E6 JUMPI PUSH1 0x40 MLOAD PUSH32 0x8C379A000000000000000000000000000000000000000000000000000000000 DUP2 MSTORE PUSH1 0x4 ADD PUSH2 0x34DD SWAP1 PUSH2 0x6472 JUMP JUMPDEST PUSH1 0x40 MLOAD DUP1 SWAP2 SUB SWAP1 REVERT JUMPDEST PUSH4 0x3B9ACA00 PUSH2 0x34F4 DUP5 PUSH2 0x20BB JUMP JUMPDEST PUSH2 0x34FE SWAP2 SWAP1 PUSH2 0x5C4D JUMP JUMPDEST DUP2 GT ISZERO PUSH2 0x3520 JUMPI PUSH4 0x3B9ACA00 PUSH2 0x3513 DUP5 PUSH2 0x20BB JUMP JUMPDEST PUSH2 0x351D SWAP2 SWAP1 PUSH2 0x5C4D JUMP JUMPDEST SWAP1 POP JUMPDEST PUSH2 0x3528 PUSH2 0x250D JUMP JUMPDEST PUSH20 0xFFFFFFFFFFFFFFFFFFFFFFFFFFFFFFFFFFFFFFFF AND DUP4 PUSH20 0xFFFFFFFFFFFFFFFFFFFFFFFFFFFFFFFFFFFFFFFF AND EQ ISZERO DUP1 ISZERO PUSH2 0x3596 JUMPI POP PUSH2 0x3566 PUSH2 0x250D JUMP JUMPDEST PUSH20 0xFFFFFFFFFFFFFFFFFFFFFFFFFFFFFFFFFFFFFFFF AND DUP3 PUSH20 0xFFFFFFFFFFFFFFFFFFFFFFFFFFFFFFFFFFFFFFFF AND EQ ISZERO JUMPDEST ISZERO PUSH2 0x35E1 JUMPI PUSH1 0x18 SLOAD DUP2 GT ISZERO PUSH2 0x35E0 JUMPI PUSH1 0x40 MLOAD PUSH32 0x8C379A000000000000000000000000000000000000000000000000000000000 DUP2 MSTORE PUSH1 0x4 ADD PUSH2 0x35D7 SWAP1 PUSH2 0x6500 JUMP JUMPDEST PUSH1 0x40 MLOAD DUP1 SWAP2 SUB SWAP1 REVERT JUMPDEST JUMPDEST PUSH0 PUSH2 0x35EB ADDRESS PUSH2 0x20BB JUMP JUMPDEST SWAP1 POP PUSH1 0x18 SLOAD DUP2 LT PUSH2 0x35FC JUMPI PUSH1 0x18 SLOAD SWAP1 POP JUMPDEST PUSH0 PUSH1 0x19 SLOAD DUP3 LT ISZERO SWAP1 POP DUP1 DUP1 ISZERO PUSH2 0x361E JUMPI POP PUSH1 0x17 PUSH0 SWAP1 SLOAD SWAP1 PUSH2 0x100 EXP SWAP1 DIV PUSH1 0xFF AND ISZERO JUMPDEST DUP1 ISZERO PUSH2 0x3676 JUMPI POP PUSH32 0x0 PUSH20 0xFFFFFFFFFFFFFFFFFFFFFFFFFFFFFFFFFFFFFFFF AND DUP6 PUSH20 0xFFFFFFFFFFFFFFFFFFFFFFFFFFFFFFFFFFFFFFFF AND EQ ISZERO JUMPDEST DUP1 ISZERO PUSH2 0x368E JUMPI POP PUSH1 0x17 PUSH1 0x1 SWAP1 SLOAD SWAP1 PUSH2 0x100 EXP SWAP1 DIV PUSH1 0xFF AND JUMPDEST ISZERO PUSH2 0x36A2 JUMPI PUSH1 0x19 SLOAD SWAP2 POP PUSH2 0x36A1 DUP3 PUSH2 0x3A52 JUMP JUMPDEST JUMPDEST PUSH0 PUSH1 0x1 SWAP1 POP PUSH1 0x6 PUSH0 DUP8 PUSH20 0xFFFFFFFFFFFFFFFFFFFFFFFFFFFFFFFFFFFFFFFF AND PUSH20 0xFFFFFFFFFFFFFFFFFFFFFFFFFFFFFFFFFFFFFFFF AND DUP2 MSTORE PUSH1 0x20 ADD SWAP1 DUP2 MSTORE PUSH1 0x20 ADD PUSH0 KECCAK256 PUSH0 SWAP1 SLOAD SWAP1 PUSH2 0x100 EXP SWAP1 DIV PUSH1 0xFF AND DUP1 PUSH2 0x3742 JUMPI POP PUSH1 0x6 PUSH0 DUP7 PUSH20 0xFFFFFFFFFFFFFFFFFFFFFFFFFFFFFFFFFFFFFFFF AND PUSH20 0xFFFFFFFFFFFFFFFFFFFFFFFFFFFFFFFFFFFFFFFF AND DUP2 MSTORE PUSH1 0x20 ADD SWAP1 DUP2 MSTORE PUSH1 0x20 ADD PUSH0 KECCAK256 PUSH0 SWAP1 SLOAD SWAP1 PUSH2 0x100 EXP SWAP1 DIV PUSH1 0xFF AND JUMPDEST ISZERO PUSH2 0x374B JUMPI PUSH0 SWAP1 POP JUMPDEST PUSH32 0x0 PUSH20 0xFFFFFFFFFFFFFFFFFFFFFFFFFFFFFFFFFFFFFFFF AND DUP7 PUSH20 0xFFFFFFFFFFFFFFFFFFFFFFFFFFFFFFFFFFFFFFFF AND EQ ISZERO DUP1 ISZERO PUSH2 0x37F3 JUMPI POP PUSH32 0x0 PUSH20 0xFFFFFFFFFFFFFFFFFFFFFFFFFFFFFFFFFFFFFFFF AND DUP6 PUSH20 0xFFFFFFFFFFFFFFFFFFFFFFFFFFFFFFFFFFFFFFFF AND EQ ISZERO JUMPDEST ISZERO PUSH2 0x37FC JUMPI PUSH0 SWAP1 POP JUMPDEST PUSH2 0x3808 DUP7 DUP7 DUP7 DUP5 PUSH2 0x3BC0 JUMP JUMPDEST POP POP POP POP POP POP JUMP JUMPDEST PUSH0 DUP4 DUP4 GT ISZERO DUP3 SWAP1 PUSH2 0x3857 JUMPI PUSH1 0x40 MLOAD PUSH32 0x8C379A000000000000000000000000000000000000000000000000000000000 DUP2 MSTORE PUSH1 0x4 ADD PUSH2 0x384E SWAP2 SWAP1 PUSH2 0x5444 JUMP JUMPDEST PUSH1 0x40 MLOAD DUP1 SWAP2 SUB SWAP1 REVERT JUMPDEST POP PUSH0 DUP4 DUP6 PUSH2 0x3865 SWAP2 SWAP1 PUSH2 0x5C4D JUMP JUMPDEST SWAP1 POP DUP1 SWAP2 POP POP SWAP4 SWAP3 POP POP POP JUMP JUMPDEST PUSH0 DUP1 PUSH0 PUSH2 0x387D PUSH2 0x3FFB JUMP JUMPDEST SWAP2 POP SWAP2 POP PUSH2 0x3894 DUP2 DUP4 PUSH2 0x389B SWAP1 SWAP2 SWAP1 PUSH4 0xFFFFFFFF AND JUMP JUMPDEST SWAP3 POP POP POP SWAP1 JUMP JUMPDEST PUSH0 PUSH2 0x38DC DUP4 DUP4 PUSH1 0x40 MLOAD DUP1 PUSH1 0x40 ADD PUSH1 0x40 MSTORE DUP1 PUSH1 0x1A DUP2 MSTORE PUSH1 0x20 ADD PUSH32 0x536166654D6174683A206469766973696F6E206279207A65726F000000000000 DUP2 MSTORE POP PUSH2 0x4296 JUMP JUMPDEST SWAP1 POP SWAP3 SWAP2 POP POP JUMP JUMPDEST PUSH0 DUP1 DUP3 DUP5 PUSH2 0x38F2 SWAP2 SWAP1 PUSH2 0x607B JUMP JUMPDEST SWAP1 POP DUP4 DUP2 LT ISZERO PUSH2 0x3937 JUMPI PUSH1 0x40 MLOAD PUSH32 0x8C379A000000000000000000000000000000000000000000000000000000000 DUP2 MSTORE PUSH1 0x4 ADD PUSH2 0x392E SWAP1 PUSH2 0x6568 JUMP JUMPDEST PUSH1 0x40 MLOAD DUP1 SWAP2 SUB SWAP1 REVERT JUMPDEST DUP1 SWAP2 POP POP SWAP3 SWAP2 POP POP JUMP JUMPDEST PUSH0 DUP1 PUSH0 DUP1 PUSH0 DUP1 PUSH0 DUP1 PUSH0 PUSH2 0x3953 DUP11 PUSH2 0x42F7 JUMP JUMPDEST SWAP3 POP SWAP3 POP SWAP3 POP PUSH0 DUP1 PUSH0 PUSH2 0x396F DUP14 DUP7 DUP7 PUSH2 0x396A PUSH2 0x3872 JUMP JUMPDEST PUSH2 0x434D JUMP JUMPDEST SWAP3 POP SWAP3 POP SWAP3 POP DUP3 DUP3 DUP3 DUP9 DUP9 DUP9 SWAP12 POP SWAP12 POP SWAP12 POP SWAP12 POP SWAP12 POP SWAP12 POP POP POP POP POP POP POP SWAP2 SWAP4 SWAP6 POP SWAP2 SWAP4 SWAP6 JUMP JUMPDEST PUSH0 PUSH2 0x39D7 DUP4 DUP4 PUSH1 0x40 MLOAD DUP1 PUSH1 0x40 ADD PUSH1 0x40 MSTORE DUP1 PUSH1 0x1E DUP2 MSTORE PUSH1 0x20 ADD PUSH32 0x536166654D6174683A207375627472616374696F6E206F766572666C6F770000 DUP2 MSTORE POP PUSH2 0x3810 JUMP JUMPDEST SWAP1 POP SWAP3 SWAP2 POP POP JUMP JUMPDEST PUSH0 PUSH1 0x12 SLOAD EQ DUP1 ISZERO PUSH2 0x39F1 JUMPI POP PUSH0 PUSH1 0x15 SLOAD EQ JUMPDEST PUSH2 0x3A16 JUMPI PUSH1 0x12 SLOAD PUSH1 0x13 DUP2 SWAP1 SSTORE POP PUSH1 0x15 SLOAD PUSH1 0x16 DUP2 SWAP1 SSTORE POP PUSH0 PUSH1 0x12 DUP2 SWAP1 SSTORE POP PUSH0 PUSH1 0x15 DUP2 SWAP1 SSTORE POP JUMPDEST JUMP JUMPDEST PUSH1 0x13 SLOAD PUSH1 0x12 DUP2 SWAP1 SSTORE POP PUSH1 0x16 SLOAD PUSH1 0x15 DUP2 SWAP1 SSTORE POP JUMP JUMPDEST PUSH2 0x3A34 PUSH2 0x39DF JUMP JUMPDEST PUSH2 0x3A46 PUSH2 0x3A3F PUSH2 0x31FE JUMP JUMPDEST DUP4 DUP4 PUSH2 0x33C8 JUMP JUMPDEST PUSH2 0x3A4E PUSH2 0x3A18 JUMP JUMPDEST POP POP JUMP JUMPDEST PUSH1 0x1 PUSH1 0x17 PUSH0 PUSH2 0x100 EXP DUP2 SLOAD DUP2 PUSH1 0xFF MUL NOT AND SWAP1 DUP4 ISZERO ISZERO MUL OR SWAP1 SSTORE POP PUSH0 PUSH2 0x3A81 PUSH1 0x2 DUP4 PUSH2 0x389B SWAP1 SWAP2 SWAP1 PUSH4 0xFFFFFFFF AND JUMP JUMPDEST SWAP1 POP PUSH0 PUSH2 0x3A97 DUP3 DUP5 PUSH2 0x3996 SWAP1 SWAP2 SWAP1 PUSH4 0xFFFFFFFF AND JUMP JUMPDEST SWAP1 POP PUSH0 SELFBALANCE SWAP1 POP PUSH2 0x3AA6 DUP4 PUSH2 0x43D1 JUMP JUMPDEST PUSH0 PUSH2 0x3ABA DUP3 SELFBALANCE PUSH2 0x3996 SWAP1 SWAP2 SWAP1 PUSH4 0xFFFFFFFF AND JUMP JUMPDEST SWAP1 POP PUSH0 PUSH2 0x3AE5 PUSH1 0x64 PUSH2 0x3AD7 PUSH1 0x14 SLOAD DUP6 PUSH2 0x4604 SWAP1 SWAP2 SWAP1 PUSH4 0xFFFFFFFF AND JUMP JUMPDEST PUSH2 0x389B SWAP1 SWAP2 SWAP1 PUSH4 0xFFFFFFFF AND JUMP JUMPDEST SWAP1 POP PUSH1 0xE PUSH0 SWAP1 SLOAD SWAP1 PUSH2 0x100 EXP SWAP1 DIV PUSH20 0xFFFFFFFFFFFFFFFFFFFFFFFFFFFFFFFFFFFFFFFF AND PUSH20 0xFFFFFFFFFFFFFFFFFFFFFFFFFFFFFFFFFFFFFFFF AND PUSH2 0x8FC DUP3 SWAP1 DUP2 ISZERO MUL SWAP1 PUSH1 0x40 MLOAD PUSH0 PUSH1 0x40 MLOAD DUP1 DUP4 SUB DUP2 DUP6 DUP9 DUP9 CALL SWAP4 POP POP POP POP ISZERO DUP1 ISZERO PUSH2 0x3B4B JUMPI RETURNDATASIZE PUSH0 DUP1 RETURNDATACOPY RETURNDATASIZE PUSH0 REVERT JUMPDEST POP DUP1 DUP3 PUSH2 0x3B58 SWAP2 SWAP1 PUSH2 0x5C4D JUMP JUMPDEST SWAP2 POP PUSH2 0x3B64 DUP5 DUP4 PUSH2 0x467B JUMP JUMPDEST PUSH32 0x17BBFB9A6069321B6DED73BD96327C9E6B7212A5CD51FF219CD61370ACAFB561 DUP6 DUP4 DUP7 PUSH1 0x40 MLOAD PUSH2 0x3B97 SWAP4 SWAP3 SWAP2 SWAP1 PUSH2 0x6586 JUMP JUMPDEST PUSH1 0x40 MLOAD DUP1 SWAP2 SUB SWAP1 LOG1 POP POP POP POP POP PUSH0 PUSH1 0x17 PUSH0 PUSH2 0x100 EXP DUP2 SLOAD DUP2 PUSH1 0xFF MUL NOT AND SWAP1 DUP4 ISZERO ISZERO MUL OR SWAP1 SSTORE POP POP JUMP JUMPDEST PUSH1 0xA PUSH1 0x1 SWAP1 SLOAD SWAP1 PUSH2 0x100 EXP SWAP1 DIV PUSH1 0xFF AND PUSH2 0x3C13 JUMPI PUSH2 0x3BDC PUSH2 0x250D JUMP JUMPDEST PUSH20 0xFFFFFFFFFFFFFFFFFFFFFFFFFFFFFFFFFFFFFFFF AND DUP5 PUSH20 0xFFFFFFFFFFFFFFFFFFFFFFFFFFFFFFFFFFFFFFFF AND EQ PUSH2 0x3C12 JUMPI PUSH0 DUP1 REVERT JUMPDEST JUMPDEST PUSH1 0x9 PUSH0 DUP6 PUSH20 0xFFFFFFFFFFFFFFFFFFFFFFFFFFFFFFFFFFFFFFFF AND PUSH20 0xFFFFFFFFFFFFFFFFFFFFFFFFFFFFFFFFFFFFFFFF AND DUP2 MSTORE PUSH1 0x20 ADD SWAP1 DUP2 MSTORE PUSH1 0x20 ADD PUSH0 KECCAK256 PUSH0 SWAP1 SLOAD SWAP1 PUSH2 0x100 EXP SWAP1 DIV PUSH1 0xFF AND DUP1 PUSH2 0x3CAE JUMPI POP PUSH1 0x9 PUSH0 DUP5 PUSH20 0xFFFFFFFFFFFFFFFFFFFFFFFFFFFFFFFFFFFFFFFF AND PUSH20 0xFFFFFFFFFFFFFFFFFFFFFFFFFFFFFFFFFFFFFFFF AND DUP2 MSTORE PUSH1 0x20 ADD SWAP1 DUP2 MSTORE PUSH1 0x20 ADD PUSH0 KECCAK256 PUSH0 SWAP1 SLOAD SWAP1 PUSH2 0x100 EXP SWAP1 DIV PUSH1 0xFF AND JUMPDEST ISZERO PUSH2 0x3D02 JUMPI PUSH1 0xA PUSH0 SWAP1 SLOAD SWAP1 PUSH2 0x100 EXP SWAP1 DIV PUSH1 0xFF AND PUSH2 0x3D01 JUMPI PUSH1 0x40 MLOAD PUSH32 0x8C379A000000000000000000000000000000000000000000000000000000000 DUP2 MSTORE PUSH1 0x4 ADD PUSH2 0x3CF8 SWAP1 PUSH2 0x6605 JUMP JUMPDEST PUSH1 0x40 MLOAD DUP1 SWAP2 SUB SWAP1 REVERT JUMPDEST JUMPDEST DUP1 PUSH2 0x3D10 JUMPI PUSH2 0x3D0F PUSH2 0x39DF JUMP JUMPDEST JUMPDEST PUSH1 0x7 PUSH0 DUP6 PUSH20 0xFFFFFFFFFFFFFFFFFFFFFFFFFFFFFFFFFFFFFFFF AND PUSH20 0xFFFFFFFFFFFFFFFFFFFFFFFFFFFFFFFFFFFFFFFF AND DUP2 MSTORE PUSH1 0x20 ADD SWAP1 DUP2 MSTORE PUSH1 0x20 ADD PUSH0 KECCAK256 PUSH0 SWAP1 SLOAD SWAP1 PUSH2 0x100 EXP SWAP1 DIV PUSH1 0xFF AND DUP1 ISZERO PUSH2 0x3DAD JUMPI POP PUSH1 0x7 PUSH0 DUP5 PUSH20 0xFFFFFFFFFFFFFFFFFFFFFFFFFFFFFFFFFFFFFFFF AND PUSH20 0xFFFFFFFFFFFFFFFFFFFFFFFFFFFFFFFFFFFFFFFF AND DUP2 MSTORE PUSH1 0x20 ADD SWAP1 DUP2 MSTORE PUSH1 0x20 ADD PUSH0 KECCAK256 PUSH0 SWAP1 SLOAD SWAP1 PUSH2 0x100 EXP SWAP1 DIV PUSH1 0xFF AND ISZERO JUMPDEST ISZERO PUSH2 0x3DC2 JUMPI PUSH2 0x3DBD DUP5 DUP5 DUP5 PUSH2 0x4759 JUMP JUMPDEST PUSH2 0x3FE7 JUMP JUMPDEST PUSH1 0x7 PUSH0 DUP6 PUSH20 0xFFFFFFFFFFFFFFFFFFFFFFFFFFFFFFFFFFFFFFFF AND PUSH20 0xFFFFFFFFFFFFFFFFFFFFFFFFFFFFFFFFFFFFFFFF AND DUP2 MSTORE PUSH1 0x20 ADD SWAP1 DUP2 MSTORE PUSH1 0x20 ADD PUSH0 KECCAK256 PUSH0 SWAP1 SLOAD SWAP1 PUSH2 0x100 EXP SWAP1 DIV PUSH1 0xFF AND ISZERO DUP1 ISZERO PUSH2 0x3E5F JUMPI POP PUSH1 0x7 PUSH0 DUP5 PUSH20 0xFFFFFFFFFFFFFFFFFFFFFFFFFFFFFFFFFFFFFFFF AND PUSH20 0xFFFFFFFFFFFFFFFFFFFFFFFFFFFFFFFFFFFFFFFF AND DUP2 MSTORE PUSH1 0x20 ADD SWAP1 DUP2 MSTORE PUSH1 0x20 ADD PUSH0 KECCAK256 PUSH0 SWAP1 SLOAD SWAP1 PUSH2 0x100 EXP SWAP1 DIV PUSH1 0xFF AND JUMPDEST ISZERO PUSH2 0x3E74 JUMPI PUSH2 0x3E6F DUP5 DUP5 DUP5 PUSH2 0x49AA JUMP JUMPDEST PUSH2 0x3FE6 JUMP JUMPDEST PUSH1 0x7 PUSH0 DUP6 PUSH20 0xFFFFFFFFFFFFFFFFFFFFFFFFFFFFFFFFFFFFFFFF AND PUSH20 0xFFFFFFFFFFFFFFFFFFFFFFFFFFFFFFFFFFFFFFFF AND DUP2 MSTORE PUSH1 0x20 ADD SWAP1 DUP2 MSTORE PUSH1 0x20 ADD PUSH0 KECCAK256 PUSH0 SWAP1 SLOAD SWAP1 PUSH2 0x100 EXP SWAP1 DIV PUSH1 0xFF AND ISZERO DUP1 ISZERO PUSH2 0x3F12 JUMPI POP PUSH1 0x7 PUSH0 DUP5 PUSH20 0xFFFFFFFFFFFFFFFFFFFFFFFFFFFFFFFFFFFFFFFF AND PUSH20 0xFFFFFFFFFFFFFFFFFFFFFFFFFFFFFFFFFFFFFFFF AND DUP2 MSTORE PUSH1 0x20 ADD SWAP1 DUP2 MSTORE PUSH1 0x20 ADD PUSH0 KECCAK256 PUSH0 SWAP1 SLOAD SWAP1 PUSH2 0x100 EXP SWAP1 DIV PUSH1 0xFF AND ISZERO JUMPDEST ISZERO PUSH2 0x3F27 JUMPI PUSH2 0x3F22 DUP5 DUP5 DUP5 PUSH2 0x4BFB JUMP JUMPDEST PUSH2 0x3FE5 JUMP JUMPDEST PUSH1 0x7 PUSH0 DUP6 PUSH20 0xFFFFFFFFFFFFFFFFFFFFFFFFFFFFFFFFFFFFFFFF AND PUSH20 0xFFFFFFFFFFFFFFFFFFFFFFFFFFFFFFFFFFFFFFFF AND DUP2 MSTORE PUSH1 0x20 ADD SWAP1 DUP2 MSTORE PUSH1 0x20 ADD PUSH0 KECCAK256 PUSH0 SWAP1 SLOAD SWAP1 PUSH2 0x100 EXP SWAP1 DIV PUSH1 0xFF AND DUP1 ISZERO PUSH2 0x3FC3 JUMPI POP PUSH1 0x7 PUSH0 DUP5 PUSH20 0xFFFFFFFFFFFFFFFFFFFFFFFFFFFFFFFFFFFFFFFF AND PUSH20 0xFFFFFFFFFFFFFFFFFFFFFFFFFFFFFFFFFFFFFFFF AND DUP2 MSTORE PUSH1 0x20 ADD SWAP1 DUP2 MSTORE PUSH1 0x20 ADD PUSH0 KECCAK256 PUSH0 SWAP1 SLOAD SWAP1 PUSH2 0x100 EXP SWAP1 DIV PUSH1 0xFF AND JUMPDEST ISZERO PUSH2 0x3FD8 JUMPI PUSH2 0x3FD3 DUP5 DUP5 DUP5 PUSH2 0x4DBB JUMP JUMPDEST PUSH2 0x3FE4 JUMP JUMPDEST PUSH2 0x3FE3 DUP5 DUP5 DUP5 PUSH2 0x4BFB JUMP JUMPDEST JUMPDEST JUMPDEST JUMPDEST JUMPDEST DUP1 PUSH2 0x3FF5 JUMPI PUSH2 0x3FF4 PUSH2 0x3A18 JUMP JUMPDEST JUMPDEST POP POP POP POP JUMP JUMPDEST PUSH0 DUP1 PUSH0 PUSH1 0xC SLOAD SWAP1 POP PUSH0 PUSH1 0xB SLOAD SWAP1 POP PUSH0 JUMPDEST PUSH1 0x8 DUP1 SLOAD SWAP1 POP DUP2 LT ISZERO PUSH2 0x4259 JUMPI DUP3 PUSH1 0x3 PUSH0 PUSH1 0x8 DUP5 DUP2 SLOAD DUP2 LT PUSH2 0x4030 JUMPI PUSH2 0x402F PUSH2 0x5C20 JUMP JUMPDEST JUMPDEST SWAP1 PUSH0 MSTORE PUSH1 0x20 PUSH0 KECCAK256 ADD PUSH0 SWAP1 SLOAD SWAP1 PUSH2 0x100 EXP SWAP1 DIV PUSH20 0xFFFFFFFFFFFFFFFFFFFFFFFFFFFFFFFFFFFFFFFF AND PUSH20 0xFFFFFFFFFFFFFFFFFFFFFFFFFFFFFFFFFFFFFFFF AND PUSH20 0xFFFFFFFFFFFFFFFFFFFFFFFFFFFFFFFFFFFFFFFF AND DUP2 MSTORE PUSH1 0x20 ADD SWAP1 DUP2 MSTORE PUSH1 0x20 ADD PUSH0 KECCAK256 SLOAD GT DUP1 PUSH2 0x4115 JUMPI POP DUP2 PUSH1 0x4 PUSH0 PUSH1 0x8 DUP5 DUP2 SLOAD DUP2 LT PUSH2 0x40B1 JUMPI PUSH2 0x40B0 PUSH2 0x5C20 JUMP JUMPDEST JUMPDEST SWAP1 PUSH0 MSTORE PUSH1 0x20 PUSH0 KECCAK256 ADD PUSH0 SWAP1 SLOAD SWAP1 PUSH2 0x100 EXP SWAP1 DIV PUSH20 0xFFFFFFFFFFFFFFFFFFFFFFFFFFFFFFFFFFFFFFFF AND PUSH20 0xFFFFFFFFFFFFFFFFFFFFFFFFFFFFFFFFFFFFFFFF AND PUSH20 0xFFFFFFFFFFFFFFFFFFFFFFFFFFFFFFFFFFFFFFFF AND DUP2 MSTORE PUSH1 0x20 ADD SWAP1 DUP2 MSTORE PUSH1 0x20 ADD PUSH0 KECCAK256 SLOAD GT JUMPDEST ISZERO PUSH2 0x412C JUMPI PUSH1 0xC SLOAD PUSH1 0xB SLOAD SWAP5 POP SWAP5 POP POP POP POP PUSH2 0x4292 JUMP JUMPDEST PUSH2 0x41B7 PUSH1 0x3 PUSH0 PUSH1 0x8 DUP5 DUP2 SLOAD DUP2 LT PUSH2 0x4146 JUMPI PUSH2 0x4145 PUSH2 0x5C20 JUMP JUMPDEST JUMPDEST SWAP1 PUSH0 MSTORE PUSH1 0x20 PUSH0 KECCAK256 ADD PUSH0 SWAP1 SLOAD SWAP1 PUSH2 0x100 EXP SWAP1 DIV PUSH20 0xFFFFFFFFFFFFFFFFFFFFFFFFFFFFFFFFFFFFFFFF AND PUSH20 0xFFFFFFFFFFFFFFFFFFFFFFFFFFFFFFFFFFFFFFFF AND PUSH20 0xFFFFFFFFFFFFFFFFFFFFFFFFFFFFFFFFFFFFFFFF AND DUP2 MSTORE PUSH1 0x20 ADD SWAP1 DUP2 MSTORE PUSH1 0x20 ADD PUSH0 KECCAK256 SLOAD DUP5 PUSH2 0x3996 SWAP1 SWAP2 SWAP1 PUSH4 0xFFFFFFFF AND JUMP JUMPDEST SWAP3 POP PUSH2 0x4244 PUSH1 0x4 PUSH0 PUSH1 0x8 DUP5 DUP2 SLOAD DUP2 LT PUSH2 0x41D3 JUMPI PUSH2 0x41D2 PUSH2 0x5C20 JUMP JUMPDEST JUMPDEST SWAP1 PUSH0 MSTORE PUSH1 0x20 PUSH0 KECCAK256 ADD PUSH0 SWAP1 SLOAD SWAP1 PUSH2 0x100 EXP SWAP1 DIV PUSH20 0xFFFFFFFFFFFFFFFFFFFFFFFFFFFFFFFFFFFFFFFF AND PUSH20 0xFFFFFFFFFFFFFFFFFFFFFFFFFFFFFFFFFFFFFFFF AND PUSH20 0xFFFFFFFFFFFFFFFFFFFFFFFFFFFFFFFFFFFFFFFF AND DUP2 MSTORE PUSH1 0x20 ADD SWAP1 DUP2 MSTORE PUSH1 0x20 ADD PUSH0 KECCAK256 SLOAD DUP4 PUSH2 0x3996 SWAP1 SWAP2 SWAP1 PUSH4 0xFFFFFFFF AND JUMP JUMPDEST SWAP2 POP DUP1 DUP1 PUSH2 0x4251 SWAP1 PUSH2 0x5CAD JUMP JUMPDEST SWAP2 POP POP PUSH2 0x400B JUMP JUMPDEST POP PUSH2 0x4271 PUSH1 0xB SLOAD PUSH1 0xC SLOAD PUSH2 0x389B SWAP1 SWAP2 SWAP1 PUSH4 0xFFFFFFFF AND JUMP JUMPDEST DUP3 LT ISZERO PUSH2 0x4289 JUMPI PUSH1 0xC SLOAD PUSH1 0xB SLOAD SWAP4 POP SWAP4 POP POP POP PUSH2 0x4292 JUMP JUMPDEST DUP2 DUP2 SWAP4 POP SWAP4 POP POP POP JUMPDEST SWAP1 SWAP2 JUMP JUMPDEST PUSH0 DUP1 DUP4 GT DUP3 SWAP1 PUSH2 0x42DC JUMPI PUSH1 0x40 MLOAD PUSH32 0x8C379A000000000000000000000000000000000000000000000000000000000 DUP2 MSTORE PUSH1 0x4 ADD PUSH2 0x42D3 SWAP2 SWAP1 PUSH2 0x5444 JUMP JUMPDEST PUSH1 0x40 MLOAD DUP1 SWAP2 SUB SWAP1 REVERT JUMPDEST POP PUSH0 DUP4 DUP6 PUSH2 0x42EA SWAP2 SWAP1 PUSH2 0x6650 JUMP JUMPDEST SWAP1 POP DUP1 SWAP2 POP POP SWAP4 SWAP3 POP POP POP JUMP JUMPDEST PUSH0 DUP1 PUSH0 DUP1 PUSH2 0x4304 DUP6 PUSH2 0x509D JUMP JUMPDEST SWAP1 POP PUSH0 PUSH2 0x4310 DUP7 PUSH2 0x50CD JUMP JUMPDEST SWAP1 POP PUSH0 PUSH2 0x4338 DUP3 PUSH2 0x432A DUP6 DUP11 PUSH2 0x3996 SWAP1 SWAP2 SWAP1 PUSH4 0xFFFFFFFF AND JUMP JUMPDEST PUSH2 0x3996 SWAP1 SWAP2 SWAP1 PUSH4 0xFFFFFFFF AND JUMP JUMPDEST SWAP1 POP DUP1 DUP4 DUP4 SWAP6 POP SWAP6 POP SWAP6 POP POP POP POP SWAP2 SWAP4 SWAP1 SWAP3 POP JUMP JUMPDEST PUSH0 DUP1 PUSH0 DUP1 PUSH2 0x4364 DUP6 DUP10 PUSH2 0x4604 SWAP1 SWAP2 SWAP1 PUSH4 0xFFFFFFFF AND JUMP JUMPDEST SWAP1 POP PUSH0 PUSH2 0x437A DUP7 DUP10 PUSH2 0x4604 SWAP1 SWAP2 SWAP1 PUSH4 0xFFFFFFFF AND JUMP JUMPDEST SWAP1 POP PUSH0 PUSH2 0x4390 DUP8 DUP10 PUSH2 0x4604 SWAP1 SWAP2 SWAP1 PUSH4 0xFFFFFFFF AND JUMP JUMPDEST SWAP1 POP PUSH0 PUSH2 0x43B8 DUP3 PUSH2 0x43AA DUP6 DUP8 PUSH2 0x3996 SWAP1 SWAP2 SWAP1 PUSH4 0xFFFFFFFF AND JUMP JUMPDEST PUSH2 0x3996 SWAP1 SWAP2 SWAP1 PUSH4 0xFFFFFFFF AND JUMP JUMPDEST SWAP1 POP DUP4 DUP2 DUP5 SWAP7 POP SWAP7 POP SWAP7 POP POP POP POP POP SWAP5 POP SWAP5 POP SWAP5 SWAP2 POP POP JUMP JUMPDEST PUSH0 PUSH1 0x2 PUSH8 0xFFFFFFFFFFFFFFFF DUP2 GT ISZERO PUSH2 0x43ED JUMPI PUSH2 0x43EC PUSH2 0x6680 JUMP JUMPDEST JUMPDEST PUSH1 0x40 MLOAD SWAP1 DUP1 DUP3 MSTORE DUP1 PUSH1 0x20 MUL PUSH1 0x20 ADD DUP3 ADD PUSH1 0x40 MSTORE DUP1 ISZERO PUSH2 0x441B JUMPI DUP2 PUSH1 0x20 ADD PUSH1 0x20 DUP3 MUL DUP1 CALLDATASIZE DUP4 CALLDATACOPY DUP1 DUP3 ADD SWAP2 POP POP SWAP1 POP JUMPDEST POP SWAP1 POP ADDRESS DUP2 PUSH0 DUP2 MLOAD DUP2 LT PUSH2 0x4432 JUMPI PUSH2 0x4431 PUSH2 0x5C20 JUMP JUMPDEST JUMPDEST PUSH1 0x20 MUL PUSH1 0x20 ADD ADD SWAP1 PUSH20 0xFFFFFFFFFFFFFFFFFFFFFFFFFFFFFFFFFFFFFFFF AND SWAP1 DUP2 PUSH20 0xFFFFFFFFFFFFFFFFFFFFFFFFFFFFFFFFFFFFFFFF AND DUP2 MSTORE POP POP PUSH32 0x0 PUSH20 0xFFFFFFFFFFFFFFFFFFFFFFFFFFFFFFFFFFFFFFFF AND PUSH4 0xAD5C4648 PUSH1 0x40 MLOAD DUP2 PUSH4 0xFFFFFFFF AND PUSH1 0xE0 SHL DUP2 MSTORE PUSH1 0x4 ADD PUSH1 0x20 PUSH1 0x40 MLOAD DUP1 DUP4 SUB DUP2 DUP7 GAS STATICCALL ISZERO DUP1 ISZERO PUSH2 0x44D5 JUMPI RETURNDATASIZE PUSH0 DUP1 RETURNDATACOPY RETURNDATASIZE PUSH0 REVERT JUMPDEST POP POP POP POP PUSH1 0x40 MLOAD RETURNDATASIZE PUSH1 0x1F NOT PUSH1 0x1F DUP3 ADD AND DUP3 ADD DUP1 PUSH1 0x40 MSTORE POP DUP2 ADD SWAP1 PUSH2 0x44F9 SWAP2 SWAP1 PUSH2 0x66C1 JUMP JUMPDEST DUP2 PUSH1 0x1 DUP2 MLOAD DUP2 LT PUSH2 0x450D JUMPI PUSH2 0x450C PUSH2 0x5C20 JUMP JUMPDEST JUMPDEST PUSH1 0x20 MUL PUSH1 0x20 ADD ADD SWAP1 PUSH20 0xFFFFFFFFFFFFFFFFFFFFFFFFFFFFFFFFFFFFFFFF AND SWAP1 DUP2 PUSH20 0xFFFFFFFFFFFFFFFFFFFFFFFFFFFFFFFFFFFFFFFF AND DUP2 MSTORE POP POP PUSH2 0x4572 ADDRESS PUSH32 0x0 DUP5 PUSH2 0x3205 JUMP JUMPDEST PUSH32 0x0 PUSH20 0xFFFFFFFFFFFFFFFFFFFFFFFFFFFFFFFFFFFFFFFF AND PUSH4 0x791AC947 DUP4 PUSH0 DUP5 ADDRESS TIMESTAMP PUSH1 0x40 MLOAD DUP7 PUSH4 0xFFFFFFFF AND PUSH1 0xE0 SHL DUP2 MSTORE PUSH1 0x4 ADD PUSH2 0x45D3 SWAP6 SWAP5 SWAP4 SWAP3 SWAP2 SWAP1 PUSH2 0x67DC JUMP JUMPDEST PUSH0 PUSH1 0x40 MLOAD DUP1 DUP4 SUB DUP2 PUSH0 DUP8 DUP1 EXTCODESIZE ISZERO DUP1 ISZERO PUSH2 0x45EA JUMPI PUSH0 DUP1 REVERT JUMPDEST POP GAS CALL ISZERO DUP1 ISZERO PUSH2 0x45FC JUMPI RETURNDATASIZE PUSH0 DUP1 RETURNDATACOPY RETURNDATASIZE PUSH0 REVERT JUMPDEST POP POP POP POP POP POP JUMP JUMPDEST PUSH0 DUP1 DUP4 SUB PUSH2 0x4614 JUMPI PUSH0 SWAP1 POP PUSH2 0x4675 JUMP JUMPDEST PUSH0 DUP3 DUP5 PUSH2 0x4621 SWAP2 SWAP1 PUSH2 0x5AE9 JUMP JUMPDEST SWAP1 POP DUP3 DUP5 DUP3 PUSH2 0x4630 SWAP2 SWAP1 PUSH2 0x6650 JUMP JUMPDEST EQ PUSH2 0x4670 JUMPI PUSH1 0x40 MLOAD PUSH32 0x8C379A000000000000000000000000000000000000000000000000000000000 DUP2 MSTORE PUSH1 0x4 ADD PUSH2 0x4667 SWAP1 PUSH2 0x68A4 JUMP JUMPDEST PUSH1 0x40 MLOAD DUP1 SWAP2 SUB SWAP1 REVERT JUMPDEST DUP1 SWAP2 POP POP JUMPDEST SWAP3 SWAP2 POP POP JUMP JUMPDEST PUSH2 0x46A6 ADDRESS PUSH32 0x0 DUP5 PUSH2 0x3205 JUMP JUMPDEST PUSH32 0x0 PUSH20 0xFFFFFFFFFFFFFFFFFFFFFFFFFFFFFFFFFFFFFFFF AND PUSH4 0xF305D719 DUP3 ADDRESS DUP6 PUSH0 DUP1 PUSH2 0x46EF PUSH2 0x250D JUMP JUMPDEST TIMESTAMP PUSH1 0x40 MLOAD DUP9 PUSH4 0xFFFFFFFF AND PUSH1 0xE0 SHL DUP2 MSTORE PUSH1 0x4 ADD PUSH2 0x4711 SWAP7 SWAP6 SWAP5 SWAP4 SWAP3 SWAP2 SWAP1 PUSH2 0x68C2 JUMP JUMPDEST PUSH1 0x60 PUSH1 0x40 MLOAD DUP1 DUP4 SUB DUP2 DUP6 DUP9 GAS CALL ISZERO DUP1 ISZERO PUSH2 0x472D JUMPI RETURNDATASIZE PUSH0 DUP1 RETURNDATACOPY RETURNDATASIZE PUSH0 REVERT JUMPDEST POP POP POP POP POP PUSH1 0x40 MLOAD RETURNDATASIZE PUSH1 0x1F NOT PUSH1 0x1F DUP3 ADD AND DUP3 ADD DUP1 PUSH1 0x40 MSTORE POP DUP2 ADD SWAP1 PUSH2 0x4752 SWAP2 SWAP1 PUSH2 0x6921 JUMP JUMPDEST POP POP POP POP POP JUMP JUMPDEST PUSH0 DUP1 PUSH0 DUP1 PUSH0 DUP1 PUSH2 0x4768 DUP8 PUSH2 0x3941 JUMP JUMPDEST SWAP6 POP SWAP6 POP SWAP6 POP SWAP6 POP SWAP6 POP SWAP6 POP PUSH2 0x47C4 DUP8 PUSH1 0x4 PUSH0 DUP13 PUSH20 0xFFFFFFFFFFFFFFFFFFFFFFFFFFFFFFFFFFFFFFFF AND PUSH20 0xFFFFFFFFFFFFFFFFFFFFFFFFFFFFFFFFFFFFFFFF AND DUP2 MSTORE PUSH1 0x20 ADD SWAP1 DUP2 MSTORE PUSH1 0x20 ADD PUSH0 KECCAK256 SLOAD PUSH2 0x3996 SWAP1 SWAP2 SWAP1 PUSH4 0xFFFFFFFF AND JUMP JUMPDEST PUSH1 0x4 PUSH0 DUP12 PUSH20 0xFFFFFFFFFFFFFFFFFFFFFFFFFFFFFFFFFFFFFFFF AND PUSH20 0xFFFFFFFFFFFFFFFFFFFFFFFFFFFFFFFFFFFFFFFF AND DUP2 MSTORE PUSH1 0x20 ADD SWAP1 DUP2 MSTORE PUSH1 0x20 ADD PUSH0 KECCAK256 DUP2 SWAP1 SSTORE POP PUSH2 0x4855 DUP7 PUSH1 0x3 PUSH0 DUP13 PUSH20 0xFFFFFFFFFFFFFFFFFFFFFFFFFFFFFFFFFFFFFFFF AND PUSH20 0xFFFFFFFFFFFFFFFFFFFFFFFFFFFFFFFFFFFFFFFF AND DUP2 MSTORE PUSH1 0x20 ADD SWAP1 DUP2 MSTORE PUSH1 0x20 ADD PUSH0 KECCAK256 SLOAD PUSH2 0x3996 SWAP1 SWAP2 SWAP1 PUSH4 0xFFFFFFFF AND JUMP JUMPDEST PUSH1 0x3 PUSH0 DUP12 PUSH20 0xFFFFFFFFFFFFFFFFFFFFFFFFFFFFFFFFFFFFFFFF AND PUSH20 0xFFFFFFFFFFFFFFFFFFFFFFFFFFFFFFFFFFFFFFFF AND DUP2 MSTORE PUSH1 0x20 ADD SWAP1 DUP2 MSTORE PUSH1 0x20 ADD PUSH0 KECCAK256 DUP2 SWAP1 SSTORE POP PUSH2 0x48E6 DUP6 PUSH1 0x3 PUSH0 DUP12 PUSH20 0xFFFFFFFFFFFFFFFFFFFFFFFFFFFFFFFFFFFFFFFF AND PUSH20 0xFFFFFFFFFFFFFFFFFFFFFFFFFFFFFFFFFFFFFFFF AND DUP2 MSTORE PUSH1 0x20 ADD SWAP1 DUP2 MSTORE PUSH1 0x20 ADD PUSH0 KECCAK256 SLOAD PUSH2 0x38E4 SWAP1 SWAP2 SWAP1 PUSH4 0xFFFFFFFF AND JUMP JUMPDEST PUSH1 0x3 PUSH0 DUP11 PUSH20 0xFFFFFFFFFFFFFFFFFFFFFFFFFFFFFFFFFFFFFFFF AND PUSH20 0xFFFFFFFFFFFFFFFFFFFFFFFFFFFFFFFFFFFFFFFF AND DUP2 MSTORE PUSH1 0x20 ADD SWAP1 DUP2 MSTORE PUSH1 0x20 ADD PUSH0 KECCAK256 DUP2 SWAP1 SSTORE POP PUSH2 0x4930 DUP2 PUSH2 0x50FD JUMP JUMPDEST PUSH2 0x493A DUP5 DUP4 PUSH2 0x5295 JUMP JUMPDEST DUP8 PUSH20 0xFFFFFFFFFFFFFFFFFFFFFFFFFFFFFFFFFFFFFFFF AND DUP10 PUSH20 0xFFFFFFFFFFFFFFFFFFFFFFFFFFFFFFFFFFFFFFFF AND PUSH32 0xDDF252AD1BE2C89B69C2B068FC378DAA952BA7F163C4A11628F55A4DF523B3EF DUP6 PUSH1 0x40 MLOAD PUSH2 0x4997 SWAP2 SWAP1 PUSH2 0x54E4 JUMP JUMPDEST PUSH1 0x40 MLOAD DUP1 SWAP2 SUB SWAP1 LOG3 POP POP POP POP POP POP POP POP POP JUMP JUMPDEST PUSH0 DUP1 PUSH0 DUP1 PUSH0 DUP1 PUSH2 0x49B9 DUP8 PUSH2 0x3941 JUMP JUMPDEST SWAP6 POP SWAP6 POP SWAP6 POP SWAP6 POP SWAP6 POP SWAP6 POP PUSH2 0x4A15 DUP7 PUSH1 0x3 PUSH0 DUP13 PUSH20 0xFFFFFFFFFFFFFFFFFFFFFFFFFFFFFFFFFFFFFFFF AND PUSH20 0xFFFFFFFFFFFFFFFFFFFFFFFFFFFFFFFFFFFFFFFF AND DUP2 MSTORE PUSH1 0x20 ADD SWAP1 DUP2 MSTORE PUSH1 0x20 ADD PUSH0 KECCAK256 SLOAD PUSH2 0x3996 SWAP1 SWAP2 SWAP1 PUSH4 0xFFFFFFFF AND JUMP JUMPDEST PUSH1 0x3 PUSH0 DUP12 PUSH20 0xFFFFFFFFFFFFFFFFFFFFFFFFFFFFFFFFFFFFFFFF AND PUSH20 0xFFFFFFFFFFFFFFFFFFFFFFFFFFFFFFFFFFFFFFFF AND DUP2 MSTORE PUSH1 0x20 ADD SWAP1 DUP2 MSTORE PUSH1 0x20 ADD PUSH0 KECCAK256 DUP2 SWAP1 SSTORE POP PUSH2 0x4AA6 DUP4 PUSH1 0x4 PUSH0 DUP12 PUSH20 0xFFFFFFFFFFFFFFFFFFFFFFFFFFFFFFFFFFFFFFFF AND PUSH20 0xFFFFFFFFFFFFFFFFFFFFFFFFFFFFFFFFFFFFFFFF AND DUP2 MSTORE PUSH1 0x20 ADD SWAP1 DUP2 MSTORE PUSH1 0x20 ADD PUSH0 KECCAK256 SLOAD PUSH2 0x38E4 SWAP1 SWAP2 SWAP1 PUSH4 0xFFFFFFFF AND JUMP JUMPDEST PUSH1 0x4 PUSH0 DUP11 PUSH20 0xFFFFFFFFFFFFFFFFFFFFFFFFFFFFFFFFFFFFFFFF AND PUSH20 0xFFFFFFFFFFFFFFFFFFFFFFFFFFFFFFFFFFFFFFFF AND DUP2 MSTORE PUSH1 0x20 ADD SWAP1 DUP2 MSTORE PUSH1 0x20 ADD PUSH0 KECCAK256 DUP2 SWAP1 SSTORE POP PUSH2 0x4B37 DUP6 PUSH1 0x3 PUSH0 DUP12 PUSH20 0xFFFFFFFFFFFFFFFFFFFFFFFFFFFFFFFFFFFFFFFF AND PUSH20 0xFFFFFFFFFFFFFFFFFFFFFFFFFFFFFFFFFFFFFFFF AND DUP2 MSTORE PUSH1 0x20 ADD SWAP1 DUP2 MSTORE PUSH1 0x20 ADD PUSH0 KECCAK256 SLOAD PUSH2 0x38E4 SWAP1 SWAP2 SWAP1 PUSH4 0xFFFFFFFF AND JUMP JUMPDEST PUSH1 0x3 PUSH0 DUP11 PUSH20 0xFFFFFFFFFFFFFFFFFFFFFFFFFFFFFFFFFFFFFFFF AND PUSH20 0xFFFFFFFFFFFFFFFFFFFFFFFFFFFFFFFFFFFFFFFF AND DUP2 MSTORE PUSH1 0x20 ADD SWAP1 DUP2 MSTORE PUSH1 0x20 ADD PUSH0 KECCAK256 DUP2 SWAP1 SSTORE POP PUSH2 0x4B81 DUP2 PUSH2 0x50FD JUMP JUMPDEST PUSH2 0x4B8B DUP5 DUP4 PUSH2 0x5295 JUMP JUMPDEST DUP8 PUSH20 0xFFFFFFFFFFFFFFFFFFFFFFFFFFFFFFFFFFFFFFFF AND DUP10 PUSH20 0xFFFFFFFFFFFFFFFFFFFFFFFFFFFFFFFFFFFFFFFF AND PUSH32 0xDDF252AD1BE2C89B69C2B068FC378DAA952BA7F163C4A11628F55A4DF523B3EF DUP6 PUSH1 0x40 MLOAD PUSH2 0x4BE8 SWAP2 SWAP1 PUSH2 0x54E4 JUMP JUMPDEST PUSH1 0x40 MLOAD DUP1 SWAP2 SUB SWAP1 LOG3 POP POP POP POP POP POP POP POP POP JUMP JUMPDEST PUSH0 DUP1 PUSH0 DUP1 PUSH0 DUP1 PUSH2 0x4C0A DUP8 PUSH2 0x3941 JUMP JUMPDEST SWAP6 POP SWAP6 POP SWAP6 POP SWAP6 POP SWAP6 POP SWAP6 POP PUSH2 0x4C66 DUP7 PUSH1 0x3 PUSH0 DUP13 PUSH20 0xFFFFFFFFFFFFFFFFFFFFFFFFFFFFFFFFFFFFFFFF AND PUSH20 0xFFFFFFFFFFFFFFFFFFFFFFFFFFFFFFFFFFFFFFFF AND DUP2 MSTORE PUSH1 0x20 ADD SWAP1 DUP2 MSTORE PUSH1 0x20 ADD PUSH0 KECCAK256 SLOAD PUSH2 0x3996 SWAP1 SWAP2 SWAP1 PUSH4 0xFFFFFFFF AND JUMP JUMPDEST PUSH1 0x3 PUSH0 DUP12 PUSH20 0xFFFFFFFFFFFFFFFFFFFFFFFFFFFFFFFFFFFFFFFF AND PUSH20 0xFFFFFFFFFFFFFFFFFFFFFFFFFFFFFFFFFFFFFFFF AND DUP2 MSTORE PUSH1 0x20 ADD SWAP1 DUP2 MSTORE PUSH1 0x20 ADD PUSH0 KECCAK256 DUP2 SWAP1 SSTORE POP PUSH2 0x4CF7 DUP6 PUSH1 0x3 PUSH0 DUP12 PUSH20 0xFFFFFFFFFFFFFFFFFFFFFFFFFFFFFFFFFFFFFFFF AND PUSH20 0xFFFFFFFFFFFFFFFFFFFFFFFFFFFFFFFFFFFFFFFF AND DUP2 MSTORE PUSH1 0x20 ADD SWAP1 DUP2 MSTORE PUSH1 0x20 ADD PUSH0 KECCAK256 SLOAD PUSH2 0x38E4 SWAP1 SWAP2 SWAP1 PUSH4 0xFFFFFFFF AND JUMP JUMPDEST PUSH1 0x3 PUSH0 DUP11 PUSH20 0xFFFFFFFFFFFFFFFFFFFFFFFFFFFFFFFFFFFFFFFF AND PUSH20 0xFFFFFFFFFFFFFFFFFFFFFFFFFFFFFFFFFFFFFFFF AND DUP2 MSTORE PUSH1 0x20 ADD SWAP1 DUP2 MSTORE PUSH1 0x20 ADD PUSH0 KECCAK256 DUP2 SWAP1 SSTORE POP PUSH2 0x4D41 DUP2 PUSH2 0x50FD JUMP JUMPDEST PUSH2 0x4D4B DUP5 DUP4 PUSH2 0x5295 JUMP JUMPDEST DUP8 PUSH20 0xFFFFFFFFFFFFFFFFFFFFFFFFFFFFFFFFFFFFFFFF AND DUP10 PUSH20 0xFFFFFFFFFFFFFFFFFFFFFFFFFFFFFFFFFFFFFFFF AND PUSH32 0xDDF252AD1BE2C89B69C2B068FC378DAA952BA7F163C4A11628F55A4DF523B3EF DUP6 PUSH1 0x40 MLOAD PUSH2 0x4DA8 SWAP2 SWAP1 PUSH2 0x54E4 JUMP JUMPDEST PUSH1 0x40 MLOAD DUP1 SWAP2 SUB SWAP1 LOG3 POP POP POP POP POP POP POP POP POP JUMP JUMPDEST PUSH0 DUP1 PUSH0 DUP1 PUSH0 DUP1 PUSH2 0x4DCA DUP8 PUSH2 0x3941 JUMP JUMPDEST SWAP6 POP SWAP6 POP SWAP6 POP SWAP6 POP SWAP6 POP SWAP6 POP PUSH2 0x4E26 DUP8 PUSH1 0x4 PUSH0 DUP13 PUSH20 0xFFFFFFFFFFFFFFFFFFFFFFFFFFFFFFFFFFFFFFFF AND PUSH20 0xFFFFFFFFFFFFFFFFFFFFFFFFFFFFFFFFFFFFFFFF AND DUP2 MSTORE PUSH1 0x20 ADD SWAP1 DUP2 MSTORE PUSH1 0x20 ADD PUSH0 KECCAK256 SLOAD PUSH2 0x3996 SWAP1 SWAP2 SWAP1 PUSH4 0xFFFFFFFF AND JUMP JUMPDEST PUSH1 0x4 PUSH0 DUP12 PUSH20 0xFFFFFFFFFFFFFFFFFFFFFFFFFFFFFFFFFFFFFFFF AND PUSH20 0xFFFFFFFFFFFFFFFFFFFFFFFFFFFFFFFFFFFFFFFF AND DUP2 MSTORE PUSH1 0x20 ADD SWAP1 DUP2 MSTORE PUSH1 0x20 ADD PUSH0 KECCAK256 DUP2 SWAP1 SSTORE POP PUSH2 0x4EB7 DUP7 PUSH1 0x3 PUSH0 DUP13 PUSH20 0xFFFFFFFFFFFFFFFFFFFFFFFFFFFFFFFFFFFFFFFF AND PUSH20 0xFFFFFFFFFFFFFFFFFFFFFFFFFFFFFFFFFFFFFFFF AND DUP2 MSTORE PUSH1 0x20 ADD SWAP1 DUP2 MSTORE PUSH1 0x20 ADD PUSH0 KECCAK256 SLOAD PUSH2 0x3996 SWAP1 SWAP2 SWAP1 PUSH4 0xFFFFFFFF AND JUMP JUMPDEST PUSH1 0x3 PUSH0 DUP12 PUSH20 0xFFFFFFFFFFFFFFFFFFFFFFFFFFFFFFFFFFFFFFFF AND PUSH20 0xFFFFFFFFFFFFFFFFFFFFFFFFFFFFFFFFFFFFFFFF AND DUP2 MSTORE PUSH1 0x20 ADD SWAP1 DUP2 MSTORE PUSH1 0x20 ADD PUSH0 KECCAK256 DUP2 SWAP1 SSTORE POP PUSH2 0x4F48 DUP4 PUSH1 0x4 PUSH0 DUP12 PUSH20 0xFFFFFFFFFFFFFFFFFFFFFFFFFFFFFFFFFFFFFFFF AND PUSH20 0xFFFFFFFFFFFFFFFFFFFFFFFFFFFFFFFFFFFFFFFF AND DUP2 MSTORE PUSH1 0x20 ADD SWAP1 DUP2 MSTORE PUSH1 0x20 ADD PUSH0 KECCAK256 SLOAD PUSH2 0x38E4 SWAP1 SWAP2 SWAP1 PUSH4 0xFFFFFFFF AND JUMP JUMPDEST PUSH1 0x4 PUSH0 DUP11 PUSH20 0xFFFFFFFFFFFFFFFFFFFFFFFFFFFFFFFFFFFFFFFF AND PUSH20 0xFFFFFFFFFFFFFFFFFFFFFFFFFFFFFFFFFFFFFFFF AND DUP2 MSTORE PUSH1 0x20 ADD SWAP1 DUP2 MSTORE PUSH1 0x20 ADD PUSH0 KECCAK256 DUP2 SWAP1 SSTORE POP PUSH2 0x4FD9 DUP6 PUSH1 0x3 PUSH0 DUP12 PUSH20 0xFFFFFFFFFFFFFFFFFFFFFFFFFFFFFFFFFFFFFFFF AND PUSH20 0xFFFFFFFFFFFFFFFFFFFFFFFFFFFFFFFFFFFFFFFF AND DUP2 MSTORE PUSH1 0x20 ADD SWAP1 DUP2 MSTORE PUSH1 0x20 ADD PUSH0 KECCAK256 SLOAD PUSH2 0x38E4 SWAP1 SWAP2 SWAP1 PUSH4 0xFFFFFFFF AND JUMP JUMPDEST PUSH1 0x3 PUSH0 DUP11 PUSH20 0xFFFFFFFFFFFFFFFFFFFFFFFFFFFFFFFFFFFFFFFF AND PUSH20 0xFFFFFFFFFFFFFFFFFFFFFFFFFFFFFFFFFFFFFFFF AND DUP2 MSTORE PUSH1 0x20 ADD SWAP1 DUP2 MSTORE PUSH1 0x20 ADD PUSH0 KECCAK256 DUP2 SWAP1 SSTORE POP PUSH2 0x5023 DUP2 PUSH2 0x50FD JUMP JUMPDEST PUSH2 0x502D DUP5 DUP4 PUSH2 0x5295 JUMP JUMPDEST DUP8 PUSH20 0xFFFFFFFFFFFFFFFFFFFFFFFFFFFFFFFFFFFFFFFF AND DUP10 PUSH20 0xFFFFFFFFFFFFFFFFFFFFFFFFFFFFFFFFFFFFFFFF AND PUSH32 0xDDF252AD1BE2C89B69C2B068FC378DAA952BA7F163C4A11628F55A4DF523B3EF DUP6 PUSH1 0x40 MLOAD PUSH2 0x508A SWAP2 SWAP1 PUSH2 0x54E4 JUMP JUMPDEST PUSH1 0x40 MLOAD DUP1 SWAP2 SUB SWAP1 LOG3 POP POP POP POP POP POP POP POP POP JUMP JUMPDEST PUSH0 PUSH2 0x50C6 PUSH1 0x64 PUSH2 0x50B8 PUSH1 0x12 SLOAD DUP6 PUSH2 0x4604 SWAP1 SWAP2 SWAP1 PUSH4 0xFFFFFFFF AND JUMP JUMPDEST PUSH2 0x389B SWAP1 SWAP2 SWAP1 PUSH4 0xFFFFFFFF AND JUMP JUMPDEST SWAP1 POP SWAP2 SWAP1 POP JUMP JUMPDEST PUSH0 PUSH2 0x50F6 PUSH1 0x64 PUSH2 0x50E8 PUSH1 0x15 SLOAD DUP6 PUSH2 0x4604 SWAP1 SWAP2 SWAP1 PUSH4 0xFFFFFFFF AND JUMP JUMPDEST PUSH2 0x389B SWAP1 SWAP2 SWAP1 PUSH4 0xFFFFFFFF AND JUMP JUMPDEST SWAP1 POP SWAP2 SWAP1 POP JUMP JUMPDEST PUSH0 PUSH2 0x5106 PUSH2 0x3872 JUMP JUMPDEST SWAP1 POP PUSH0 PUSH2 0x511C DUP3 DUP5 PUSH2 0x4604 SWAP1 SWAP2 SWAP1 PUSH4 0xFFFFFFFF AND JUMP JUMPDEST SWAP1 POP PUSH2 0x516E DUP2 PUSH1 0x3 PUSH0 ADDRESS PUSH20 0xFFFFFFFFFFFFFFFFFFFFFFFFFFFFFFFFFFFFFFFF AND PUSH20 0xFFFFFFFFFFFFFFFFFFFFFFFFFFFFFFFFFFFFFFFF AND DUP2 MSTORE PUSH1 0x20 ADD SWAP1 DUP2 MSTORE PUSH1 0x20 ADD PUSH0 KECCAK256 SLOAD PUSH2 0x38E4 SWAP1 SWAP2 SWAP1 PUSH4 0xFFFFFFFF AND JUMP JUMPDEST PUSH1 0x3 PUSH0 ADDRESS PUSH20 0xFFFFFFFFFFFFFFFFFFFFFFFFFFFFFFFFFFFFFFFF AND PUSH20 0xFFFFFFFFFFFFFFFFFFFFFFFFFFFFFFFFFFFFFFFF AND DUP2 MSTORE PUSH1 0x20 ADD SWAP1 DUP2 MSTORE PUSH1 0x20 ADD PUSH0 KECCAK256 DUP2 SWAP1 SSTORE POP PUSH1 0x7 PUSH0 ADDRESS PUSH20 0xFFFFFFFFFFFFFFFFFFFFFFFFFFFFFFFFFFFFFFFF AND PUSH20 0xFFFFFFFFFFFFFFFFFFFFFFFFFFFFFFFFFFFFFFFF AND DUP2 MSTORE PUSH1 0x20 ADD SWAP1 DUP2 MSTORE PUSH1 0x20 ADD PUSH0 KECCAK256 PUSH0 SWAP1 SLOAD SWAP1 PUSH2 0x100 EXP SWAP1 DIV PUSH1 0xFF AND ISZERO PUSH2 0x5290 JUMPI PUSH2 0x524E DUP4 PUSH1 0x4 PUSH0 ADDRESS PUSH20 0xFFFFFFFFFFFFFFFFFFFFFFFFFFFFFFFFFFFFFFFF AND PUSH20 0xFFFFFFFFFFFFFFFFFFFFFFFFFFFFFFFFFFFFFFFF AND DUP2 MSTORE PUSH1 0x20 ADD SWAP1 DUP2 MSTORE PUSH1 0x20 ADD PUSH0 KECCAK256 SLOAD PUSH2 0x38E4 SWAP1 SWAP2 SWAP1 PUSH4 0xFFFFFFFF AND JUMP JUMPDEST PUSH1 0x4 PUSH0 ADDRESS PUSH20 0xFFFFFFFFFFFFFFFFFFFFFFFFFFFFFFFFFFFFFFFF AND PUSH20 0xFFFFFFFFFFFFFFFFFFFFFFFFFFFFFFFFFFFFFFFF AND DUP2 MSTORE PUSH1 0x20 ADD SWAP1 DUP2 MSTORE PUSH1 0x20 ADD PUSH0 KECCAK256 DUP2 SWAP1 SSTORE POP JUMPDEST POP POP POP JUMP JUMPDEST PUSH2 0x52AA DUP3 PUSH1 0xC SLOAD PUSH2 0x3996 SWAP1 SWAP2 SWAP1 PUSH4 0xFFFFFFFF AND JUMP JUMPDEST PUSH1 0xC DUP2 SWAP1 SSTORE POP PUSH2 0x52C5 DUP2 PUSH1 0xD SLOAD PUSH2 0x38E4 SWAP1 SWAP2 SWAP1 PUSH4 0xFFFFFFFF AND JUMP JUMPDEST PUSH1 0xD DUP2 SWAP1 SSTORE POP POP POP JUMP JUMPDEST PUSH0 DUP1 REVERT JUMPDEST PUSH0 DUP1 REVERT JUMPDEST PUSH0 PUSH20 0xFFFFFFFFFFFFFFFFFFFFFFFFFFFFFFFFFFFFFFFF DUP3 AND SWAP1 POP SWAP2 SWAP1 POP JUMP JUMPDEST PUSH0 PUSH2 0x5300 DUP3 PUSH2 0x52D7 JUMP JUMPDEST SWAP1 POP SWAP2 SWAP1 POP JUMP JUMPDEST PUSH2 0x5310 DUP2 PUSH2 0x52F6 JUMP JUMPDEST DUP2 EQ PUSH2 0x531A JUMPI PUSH0 DUP1 REVERT JUMPDEST POP JUMP JUMPDEST PUSH0 DUP2 CALLDATALOAD SWAP1 POP PUSH2 0x532B DUP2 PUSH2 0x5307 JUMP JUMPDEST SWAP3 SWAP2 POP POP JUMP JUMPDEST PUSH0 PUSH1 0x20 DUP3 DUP5 SUB SLT ISZERO PUSH2 0x5346 JUMPI PUSH2 0x5345 PUSH2 0x52CF JUMP JUMPDEST JUMPDEST PUSH0 PUSH2 0x5353 DUP5 DUP3 DUP6 ADD PUSH2 0x531D JUMP JUMPDEST SWAP2 POP POP SWAP3 SWAP2 POP POP JUMP JUMPDEST PUSH0 DUP2 SWAP1 POP SWAP2 SWAP1 POP JUMP JUMPDEST PUSH2 0x536E DUP2 PUSH2 0x535C JUMP JUMPDEST DUP2 EQ PUSH2 0x5378 JUMPI PUSH0 DUP1 REVERT JUMPDEST POP JUMP JUMPDEST PUSH0 DUP2 CALLDATALOAD SWAP1 POP PUSH2 0x5389 DUP2 PUSH2 0x5365 JUMP JUMPDEST SWAP3 SWAP2 POP POP JUMP JUMPDEST PUSH0 PUSH1 0x20 DUP3 DUP5 SUB SLT ISZERO PUSH2 0x53A4 JUMPI PUSH2 0x53A3 PUSH2 0x52CF JUMP JUMPDEST JUMPDEST PUSH0 PUSH2 0x53B1 DUP5 DUP3 DUP6 ADD PUSH2 0x537B JUMP JUMPDEST SWAP2 POP POP SWAP3 SWAP2 POP POP JUMP JUMPDEST PUSH0 DUP2 MLOAD SWAP1 POP SWAP2 SWAP1 POP JUMP JUMPDEST PUSH0 DUP3 DUP3 MSTORE PUSH1 0x20 DUP3 ADD SWAP1 POP SWAP3 SWAP2 POP POP JUMP JUMPDEST PUSH0 JUMPDEST DUP4 DUP2 LT ISZERO PUSH2 0x53F1 JUMPI DUP1 DUP3 ADD MLOAD DUP2 DUP5 ADD MSTORE PUSH1 0x20 DUP2 ADD SWAP1 POP PUSH2 0x53D6 JUMP JUMPDEST PUSH0 DUP5 DUP5 ADD MSTORE POP POP POP POP JUMP JUMPDEST PUSH0 PUSH1 0x1F NOT PUSH1 0x1F DUP4 ADD AND SWAP1 POP SWAP2 SWAP1 POP JUMP JUMPDEST PUSH0 PUSH2 0x5416 DUP3 PUSH2 0x53BA JUMP JUMPDEST PUSH2 0x5420 DUP2 DUP6 PUSH2 0x53C4 JUMP JUMPDEST SWAP4 POP PUSH2 0x5430 DUP2 DUP6 PUSH1 0x20 DUP7 ADD PUSH2 0x53D4 JUMP JUMPDEST PUSH2 0x5439 DUP2 PUSH2 0x53FC JUMP JUMPDEST DUP5 ADD SWAP2 POP POP SWAP3 SWAP2 POP POP JUMP JUMPDEST PUSH0 PUSH1 0x20 DUP3 ADD SWAP1 POP DUP2 DUP2 SUB PUSH0 DUP4 ADD MSTORE PUSH2 0x545C DUP2 DUP5 PUSH2 0x540C JUMP JUMPDEST SWAP1 POP SWAP3 SWAP2 POP POP JUMP JUMPDEST PUSH0 DUP1 PUSH1 0x40 DUP4 DUP6 SUB SLT ISZERO PUSH2 0x547A JUMPI PUSH2 0x5479 PUSH2 0x52CF JUMP JUMPDEST JUMPDEST PUSH0 PUSH2 0x5487 DUP6 DUP3 DUP7 ADD PUSH2 0x531D JUMP JUMPDEST SWAP3 POP POP PUSH1 0x20 PUSH2 0x5498 DUP6 DUP3 DUP7 ADD PUSH2 0x537B JUMP JUMPDEST SWAP2 POP POP SWAP3 POP SWAP3 SWAP1 POP JUMP JUMPDEST PUSH0 DUP2 ISZERO ISZERO SWAP1 POP SWAP2 SWAP1 POP JUMP JUMPDEST PUSH2 0x54B6 DUP2 PUSH2 0x54A2 JUMP JUMPDEST DUP3 MSTORE POP POP JUMP JUMPDEST PUSH0 PUSH1 0x20 DUP3 ADD SWAP1 POP PUSH2 0x54CF PUSH0 DUP4 ADD DUP5 PUSH2 0x54AD JUMP JUMPDEST SWAP3 SWAP2 POP POP JUMP JUMPDEST PUSH2 0x54DE DUP2 PUSH2 0x535C JUMP JUMPDEST DUP3 MSTORE POP POP JUMP JUMPDEST PUSH0 PUSH1 0x20 DUP3 ADD SWAP1 POP PUSH2 0x54F7 PUSH0 DUP4 ADD DUP5 PUSH2 0x54D5 JUMP JUMPDEST SWAP3 SWAP2 POP POP JUMP JUMPDEST PUSH0 DUP2 SWAP1 POP SWAP2 SWAP1 POP JUMP JUMPDEST PUSH0 PUSH2 0x5520 PUSH2 0x551B PUSH2 0x5516 DUP5 PUSH2 0x52D7 JUMP JUMPDEST PUSH2 0x54FD JUMP JUMPDEST PUSH2 0x52D7 JUMP JUMPDEST SWAP1 POP SWAP2 SWAP1 POP JUMP JUMPDEST PUSH0 PUSH2 0x5531 DUP3 PUSH2 0x5506 JUMP JUMPDEST SWAP1 POP SWAP2 SWAP1 POP JUMP JUMPDEST PUSH0 PUSH2 0x5542 DUP3 PUSH2 0x5527 JUMP JUMPDEST SWAP1 POP SWAP2 SWAP1 POP JUMP JUMPDEST PUSH2 0x5552 DUP2 PUSH2 0x5538 JUMP JUMPDEST DUP3 MSTORE POP POP JUMP JUMPDEST PUSH0 PUSH1 0x20 DUP3 ADD SWAP1 POP PUSH2 0x556B PUSH0 DUP4 ADD DUP5 PUSH2 0x5549 JUMP JUMPDEST SWAP3 SWAP2 POP POP JUMP JUMPDEST PUSH0 DUP1 PUSH0 PUSH1 0x60 DUP5 DUP7 SUB SLT ISZERO PUSH2 0x5588 JUMPI PUSH2 0x5587 PUSH2 0x52CF JUMP JUMPDEST JUMPDEST PUSH0 PUSH2 0x5595 DUP7 DUP3 DUP8 ADD PUSH2 0x531D JUMP JUMPDEST SWAP4 POP POP PUSH1 0x20 PUSH2 0x55A6 DUP7 DUP3 DUP8 ADD PUSH2 0x531D JUMP JUMPDEST SWAP3 POP POP PUSH1 0x40 PUSH2 0x55B7 DUP7 DUP3 DUP8 ADD PUSH2 0x537B JUMP JUMPDEST SWAP2 POP POP SWAP3 POP SWAP3 POP SWAP3 JUMP JUMPDEST PUSH0 PUSH1 0xFF DUP3 AND SWAP1 POP SWAP2 SWAP1 POP JUMP JUMPDEST PUSH2 0x55D6 DUP2 PUSH2 0x55C1 JUMP JUMPDEST DUP3 MSTORE POP POP JUMP JUMPDEST PUSH0 PUSH1 0x20 DUP3 ADD SWAP1 POP PUSH2 0x55EF PUSH0 DUP4 ADD DUP5 PUSH2 0x55CD JUMP JUMPDEST SWAP3 SWAP2 POP POP JUMP JUMPDEST PUSH0 PUSH2 0x55FF DUP3 PUSH2 0x52F6 JUMP JUMPDEST SWAP1 POP SWAP2 SWAP1 POP JUMP JUMPDEST PUSH2 0x560F DUP2 PUSH2 0x55F5 JUMP JUMPDEST DUP2 EQ PUSH2 0x5619 JUMPI PUSH0 DUP1 REVERT JUMPDEST POP JUMP JUMPDEST PUSH0 DUP2 CALLDATALOAD SWAP1 POP PUSH2 0x562A DUP2 PUSH2 0x5606 JUMP JUMPDEST SWAP3 SWAP2 POP POP JUMP JUMPDEST PUSH0 DUP1 PUSH1 0x40 DUP4 DUP6 SUB SLT ISZERO PUSH2 0x5646 JUMPI PUSH2 0x5645 PUSH2 0x52CF JUMP JUMPDEST JUMPDEST PUSH0 PUSH2 0x5653 DUP6 DUP3 DUP7 ADD PUSH2 0x561C JUMP JUMPDEST SWAP3 POP POP PUSH1 0x20 PUSH2 0x5664 DUP6 DUP3 DUP7 ADD PUSH2 0x531D JUMP JUMPDEST SWAP2 POP POP SWAP3 POP SWAP3 SWAP1 POP JUMP JUMPDEST PUSH2 0x5677 DUP2 PUSH2 0x54A2 JUMP JUMPDEST DUP2 EQ PUSH2 0x5681 JUMPI PUSH0 DUP1 REVERT JUMPDEST POP JUMP JUMPDEST PUSH0 DUP2 CALLDATALOAD SWAP1 POP PUSH2 0x5692 DUP2 PUSH2 0x566E JUMP JUMPDEST SWAP3 SWAP2 POP POP JUMP JUMPDEST PUSH0 DUP1 PUSH1 0x40 DUP4 DUP6 SUB SLT ISZERO PUSH2 0x56AE JUMPI PUSH2 0x56AD PUSH2 0x52CF JUMP JUMPDEST JUMPDEST PUSH0 PUSH2 0x56BB DUP6 DUP3 DUP7 ADD PUSH2 0x537B JUMP JUMPDEST SWAP3 POP POP PUSH1 0x20 PUSH2 0x56CC DUP6 DUP3 DUP7 ADD PUSH2 0x5684 JUMP JUMPDEST SWAP2 POP POP SWAP3 POP SWAP3 SWAP1 POP JUMP JUMPDEST PUSH2 0x56DF DUP2 PUSH2 0x52F6 JUMP JUMPDEST DUP3 MSTORE POP POP JUMP JUMPDEST PUSH0 PUSH1 0x20 DUP3 ADD SWAP1 POP PUSH2 0x56F8 PUSH0 DUP4 ADD DUP5 PUSH2 0x56D6 JUMP JUMPDEST SWAP3 SWAP2 POP POP JUMP JUMPDEST PUSH0 PUSH2 0x5708 DUP3 PUSH2 0x52D7 JUMP JUMPDEST SWAP1 POP SWAP2 SWAP1 POP JUMP JUMPDEST PUSH2 0x5718 DUP2 PUSH2 0x56FE JUMP JUMPDEST DUP2 EQ PUSH2 0x5722 JUMPI PUSH0 DUP1 REVERT JUMPDEST POP JUMP JUMPDEST PUSH0 DUP2 CALLDATALOAD SWAP1 POP PUSH2 0x5733 DUP2 PUSH2 0x570F JUMP JUMPDEST SWAP3 SWAP2 POP POP JUMP JUMPDEST PUSH0 PUSH1 0x20 DUP3 DUP5 SUB SLT ISZERO PUSH2 0x574E JUMPI PUSH2 0x574D PUSH2 0x52CF JUMP JUMPDEST JUMPDEST PUSH0 PUSH2 0x575B DUP5 DUP3 DUP6 ADD PUSH2 0x5725 JUMP JUMPDEST SWAP2 POP POP SWAP3 SWAP2 POP POP JUMP JUMPDEST PUSH0 PUSH1 0x20 DUP3 DUP5 SUB SLT ISZERO PUSH2 0x5779 JUMPI PUSH2 0x5778 PUSH2 0x52CF JUMP JUMPDEST JUMPDEST PUSH0 PUSH2 0x5786 DUP5 DUP3 DUP6 ADD PUSH2 0x5684 JUMP JUMPDEST SWAP2 POP POP SWAP3 SWAP2 POP POP JUMP JUMPDEST PUSH0 DUP1 REVERT JUMPDEST PUSH0 DUP1 REVERT JUMPDEST PUSH0 DUP1 REVERT JUMPDEST PUSH0 DUP1 DUP4 PUSH1 0x1F DUP5 ADD SLT PUSH2 0x57B0 JUMPI PUSH2 0x57AF PUSH2 0x578F JUMP JUMPDEST JUMPDEST DUP3 CALLDATALOAD SWAP1 POP PUSH8 0xFFFFFFFFFFFFFFFF DUP2 GT ISZERO PUSH2 0x57CD JUMPI PUSH2 0x57CC PUSH2 0x5793 JUMP JUMPDEST JUMPDEST PUSH1 0x20 DUP4 ADD SWAP2 POP DUP4 PUSH1 0x20 DUP3 MUL DUP4 ADD GT ISZERO PUSH2 0x57E9 JUMPI PUSH2 0x57E8 PUSH2 0x5797 JUMP JUMPDEST JUMPDEST SWAP3 POP SWAP3 SWAP1 POP JUMP JUMPDEST PUSH0 DUP1 DUP4 PUSH1 0x1F DUP5 ADD SLT PUSH2 0x5805 JUMPI PUSH2 0x5804 PUSH2 0x578F JUMP JUMPDEST JUMPDEST DUP3 CALLDATALOAD SWAP1 POP PUSH8 0xFFFFFFFFFFFFFFFF DUP2 GT ISZERO PUSH2 0x5822 JUMPI PUSH2 0x5821 PUSH2 0x5793 JUMP JUMPDEST JUMPDEST PUSH1 0x20 DUP4 ADD SWAP2 POP DUP4 PUSH1 0x20 DUP3 MUL DUP4 ADD GT ISZERO PUSH2 0x583E JUMPI PUSH2 0x583D PUSH2 0x5797 JUMP JUMPDEST JUMPDEST SWAP3 POP SWAP3 SWAP1 POP JUMP JUMPDEST PUSH0 DUP1 PUSH0 DUP1 PUSH1 0x40 DUP6 DUP8 SUB SLT ISZERO PUSH2 0x585D JUMPI PUSH2 0x585C PUSH2 0x52CF JUMP JUMPDEST JUMPDEST PUSH0 DUP6 ADD CALLDATALOAD PUSH8 0xFFFFFFFFFFFFFFFF DUP2 GT ISZERO PUSH2 0x587A JUMPI PUSH2 0x5879 PUSH2 0x52D3 JUMP JUMPDEST JUMPDEST PUSH2 0x5886 DUP8 DUP3 DUP9 ADD PUSH2 0x579B JUMP JUMPDEST SWAP5 POP SWAP5 POP POP PUSH1 0x20 DUP6 ADD CALLDATALOAD PUSH8 0xFFFFFFFFFFFFFFFF DUP2 GT ISZERO PUSH2 0x58A9 JUMPI PUSH2 0x58A8 PUSH2 0x52D3 JUMP JUMPDEST JUMPDEST PUSH2 0x58B5 DUP8 DUP3 DUP9 ADD PUSH2 0x57F0 JUMP JUMPDEST SWAP3 POP SWAP3 POP POP SWAP3 SWAP6 SWAP2 SWAP5 POP SWAP3 POP JUMP JUMPDEST PUSH0 DUP1 PUSH1 0x40 DUP4 DUP6 SUB SLT ISZERO PUSH2 0x58D9 JUMPI PUSH2 0x58D8 PUSH2 0x52CF JUMP JUMPDEST JUMPDEST PUSH0 PUSH2 0x58E6 DUP6 DUP3 DUP7 ADD PUSH2 0x531D JUMP JUMPDEST SWAP3 POP POP PUSH1 0x20 PUSH2 0x58F7 DUP6 DUP3 DUP7 ADD PUSH2 0x531D JUMP JUMPDEST SWAP2 POP POP SWAP3 POP SWAP3 SWAP1 POP JUMP JUMPDEST PUSH32 0x4F776E61626C653A2063616C6C6572206973206E6F7420746865206F776E6572 PUSH0 DUP3 ADD MSTORE POP JUMP JUMPDEST PUSH0 PUSH2 0x5935 PUSH1 0x20 DUP4 PUSH2 0x53C4 JUMP JUMPDEST SWAP2 POP PUSH2 0x5940 DUP3 PUSH2 0x5901 JUMP JUMPDEST PUSH1 0x20 DUP3 ADD SWAP1 POP SWAP2 SWAP1 POP JUMP JUMPDEST PUSH0 PUSH1 0x20 DUP3 ADD SWAP1 POP DUP2 DUP2 SUB PUSH0 DUP4 ADD MSTORE PUSH2 0x5962 DUP2 PUSH2 0x5929 JUMP JUMPDEST SWAP1 POP SWAP2 SWAP1 POP JUMP JUMPDEST PUSH32 0x546178206665652063616E6E6F74206265206D6F7265207468616E2031302500 PUSH0 DUP3 ADD MSTORE POP JUMP JUMPDEST PUSH0 PUSH2 0x599D PUSH1 0x1F DUP4 PUSH2 0x53C4 JUMP JUMPDEST SWAP2 POP PUSH2 0x59A8 DUP3 PUSH2 0x5969 JUMP JUMPDEST PUSH1 0x20 DUP3 ADD SWAP1 POP SWAP2 SWAP1 POP JUMP JUMPDEST PUSH0 PUSH1 0x20 DUP3 ADD SWAP1 POP DUP2 DUP2 SUB PUSH0 DUP4 ADD MSTORE PUSH2 0x59CA DUP2 PUSH2 0x5991 JUMP JUMPDEST SWAP1 POP SWAP2 SWAP1 POP JUMP JUMPDEST PUSH32 0x4E487B7100000000000000000000000000000000000000000000000000000000 PUSH0 MSTORE PUSH1 0x22 PUSH1 0x4 MSTORE PUSH1 0x24 PUSH0 REVERT JUMPDEST PUSH0 PUSH1 0x2 DUP3 DIV SWAP1 POP PUSH1 0x1 DUP3 AND DUP1 PUSH2 0x5A15 JUMPI PUSH1 0x7F DUP3 AND SWAP2 POP JUMPDEST PUSH1 0x20 DUP3 LT DUP2 SUB PUSH2 0x5A28 JUMPI PUSH2 0x5A27 PUSH2 0x59D1 JUMP JUMPDEST JUMPDEST POP SWAP2 SWAP1 POP JUMP JUMPDEST PUSH32 0x53776170205468726573686F6C6420416D6F756E742063616E6E6F7420626520 PUSH0 DUP3 ADD MSTORE PUSH32 0x6C657373207468616E203639204D696C6C696F6E000000000000000000000000 PUSH1 0x20 DUP3 ADD MSTORE POP JUMP JUMPDEST PUSH0 PUSH2 0x5A88 PUSH1 0x34 DUP4 PUSH2 0x53C4 JUMP JUMPDEST SWAP2 POP PUSH2 0x5A93 DUP3 PUSH2 0x5A2E JUMP JUMPDEST PUSH1 0x40 DUP3 ADD SWAP1 POP SWAP2 SWAP1 POP JUMP JUMPDEST PUSH0 PUSH1 0x20 DUP3 ADD SWAP1 POP DUP2 DUP2 SUB PUSH0 DUP4 ADD MSTORE PUSH2 0x5AB5 DUP2 PUSH2 0x5A7C JUMP JUMPDEST SWAP1 POP SWAP2 SWAP1 POP JUMP JUMPDEST PUSH32 0x4E487B7100000000000000000000000000000000000000000000000000000000 PUSH0 MSTORE PUSH1 0x11 PUSH1 0x4 MSTORE PUSH1 0x24 PUSH0 REVERT JUMPDEST PUSH0 PUSH2 0x5AF3 DUP3 PUSH2 0x535C JUMP JUMPDEST SWAP2 POP PUSH2 0x5AFE DUP4 PUSH2 0x535C JUMP JUMPDEST SWAP3 POP DUP3 DUP3 MUL PUSH2 0x5B0C DUP2 PUSH2 0x535C JUMP JUMPDEST SWAP2 POP DUP3 DUP3 DIV DUP5 EQ DUP4 ISZERO OR PUSH2 0x5B23 JUMPI PUSH2 0x5B22 PUSH2 0x5ABC JUMP JUMPDEST JUMPDEST POP SWAP3 SWAP2 POP POP JUMP JUMPDEST PUSH32 0x416D6F756E74206D757374206265206C657373207468616E20746F74616C2072 PUSH0 DUP3 ADD MSTORE PUSH32 0x65666C656374696F6E7300000000000000000000000000000000000000000000 PUSH1 0x20 DUP3 ADD MSTORE POP JUMP JUMPDEST PUSH0 PUSH2 0x5B84 PUSH1 0x2A DUP4 PUSH2 0x53C4 JUMP JUMPDEST SWAP2 POP PUSH2 0x5B8F DUP3 PUSH2 0x5B2A JUMP JUMPDEST PUSH1 0x40 DUP3 ADD SWAP1 POP SWAP2 SWAP1 POP JUMP JUMPDEST PUSH0 PUSH1 0x20 DUP3 ADD SWAP1 POP DUP2 DUP2 SUB PUSH0 DUP4 ADD MSTORE PUSH2 0x5BB1 DUP2 PUSH2 0x5B78 JUMP JUMPDEST SWAP1 POP SWAP2 SWAP1 POP JUMP JUMPDEST PUSH32 0x4163636F756E7420697320616C7265616479206578636C756465640000000000 PUSH0 DUP3 ADD MSTORE POP JUMP JUMPDEST PUSH0 PUSH2 0x5BEC PUSH1 0x1B DUP4 PUSH2 0x53C4 JUMP JUMPDEST SWAP2 POP PUSH2 0x5BF7 DUP3 PUSH2 0x5BB8 JUMP JUMPDEST PUSH1 0x20 DUP3 ADD SWAP1 POP SWAP2 SWAP1 POP JUMP JUMPDEST PUSH0 PUSH1 0x20 DUP3 ADD SWAP1 POP DUP2 DUP2 SUB PUSH0 DUP4 ADD MSTORE PUSH2 0x5C19 DUP2 PUSH2 0x5BE0 JUMP JUMPDEST SWAP1 POP SWAP2 SWAP1 POP JUMP JUMPDEST PUSH32 0x4E487B7100000000000000000000000000000000000000000000000000000000 PUSH0 MSTORE PUSH1 0x32 PUSH1 0x4 MSTORE PUSH1 0x24 PUSH0 REVERT JUMPDEST PUSH0 PUSH2 0x5C57 DUP3 PUSH2 0x535C JUMP JUMPDEST SWAP2 POP PUSH2 0x5C62 DUP4 PUSH2 0x535C JUMP JUMPDEST SWAP3 POP DUP3 DUP3 SUB SWAP1 POP DUP2 DUP2 GT ISZERO PUSH2 0x5C7A JUMPI PUSH2 0x5C79 PUSH2 0x5ABC JUMP JUMPDEST JUMPDEST SWAP3 SWAP2 POP POP JUMP JUMPDEST PUSH32 0x4E487B7100000000000000000000000000000000000000000000000000000000 PUSH0 MSTORE PUSH1 0x31 PUSH1 0x4 MSTORE PUSH1 0x24 PUSH0 REVERT JUMPDEST PUSH0 PUSH2 0x5CB7 DUP3 PUSH2 0x535C JUMP JUMPDEST SWAP2 POP PUSH32 0xFFFFFFFFFFFFFFFFFFFFFFFFFFFFFFFFFFFFFFFFFFFFFFFFFFFFFFFFFFFFFFFF DUP3 SUB PUSH2 0x5CE9 JUMPI PUSH2 0x5CE8 PUSH2 0x5ABC JUMP JUMPDEST JUMPDEST PUSH1 0x1 DUP3 ADD SWAP1 POP SWAP2 SWAP1 POP JUMP JUMPDEST PUSH0 DUP2 MLOAD SWAP1 POP PUSH2 0x5D02 DUP2 PUSH2 0x5365 JUMP JUMPDEST SWAP3 SWAP2 POP POP JUMP JUMPDEST PUSH0 PUSH1 0x20 DUP3 DUP5 SUB SLT ISZERO PUSH2 0x5D1D JUMPI PUSH2 0x5D1C PUSH2 0x52CF JUMP JUMPDEST JUMPDEST PUSH0 PUSH2 0x5D2A DUP5 DUP3 DUP6 ADD PUSH2 0x5CF4 JUMP JUMPDEST SWAP2 POP POP SWAP3 SWAP2 POP POP JUMP JUMPDEST PUSH0 PUSH1 0x40 DUP3 ADD SWAP1 POP PUSH2 0x5D46 PUSH0 DUP4 ADD DUP6 PUSH2 0x56D6 JUMP JUMPDEST PUSH2 0x5D53 PUSH1 0x20 DUP4 ADD DUP5 PUSH2 0x54D5 JUMP JUMPDEST SWAP4 SWAP3 POP POP POP JUMP JUMPDEST PUSH0 DUP2 MLOAD SWAP1 POP PUSH2 0x5D68 DUP2 PUSH2 0x566E JUMP JUMPDEST SWAP3 SWAP2 POP POP JUMP JUMPDEST PUSH0 PUSH1 0x20 DUP3 DUP5 SUB SLT ISZERO PUSH2 0x5D83 JUMPI PUSH2 0x5D82 PUSH2 0x52CF JUMP JUMPDEST JUMPDEST PUSH0 PUSH2 0x5D90 DUP5 DUP3 DUP6 ADD PUSH2 0x5D5A JUMP JUMPDEST SWAP2 POP POP SWAP3 SWAP2 POP POP JUMP JUMPDEST PUSH32 0x4578636C75646564206164647265737365732063616E6E6F742063616C6C2074 PUSH0 DUP3 ADD MSTORE PUSH32 0x6869732066756E6374696F6E0000000000000000000000000000000000000000 PUSH1 0x20 DUP3 ADD MSTORE POP JUMP JUMPDEST PUSH0 PUSH2 0x5DF3 PUSH1 0x2C DUP4 PUSH2 0x53C4 JUMP JUMPDEST SWAP2 POP PUSH2 0x5DFE DUP3 PUSH2 0x5D99 JUMP JUMPDEST PUSH1 0x40 DUP3 ADD SWAP1 POP SWAP2 SWAP1 POP JUMP JUMPDEST PUSH0 PUSH1 0x20 DUP3 ADD SWAP1 POP DUP2 DUP2 SUB PUSH0 DUP4 ADD MSTORE PUSH2 0x5E20 DUP2 PUSH2 0x5DE7 JUMP JUMPDEST SWAP1 POP SWAP2 SWAP1 POP JUMP JUMPDEST PUSH32 0x416D6F756E74206D757374206265206C657373207468616E20737570706C7900 PUSH0 DUP3 ADD MSTORE POP JUMP JUMPDEST PUSH0 PUSH2 0x5E5B PUSH1 0x1F DUP4 PUSH2 0x53C4 JUMP JUMPDEST SWAP2 POP PUSH2 0x5E66 DUP3 PUSH2 0x5E27 JUMP JUMPDEST PUSH1 0x20 DUP3 ADD SWAP1 POP SWAP2 SWAP1 POP JUMP JUMPDEST PUSH0 PUSH1 0x20 DUP3 ADD SWAP1 POP DUP2 DUP2 SUB PUSH0 DUP4 ADD MSTORE PUSH2 0x5E88 DUP2 PUSH2 0x5E4F JUMP JUMPDEST SWAP1 POP SWAP2 SWAP1 POP JUMP JUMPDEST PUSH32 0x4D61726B6574696E67206665652063616E6E6F74206265206D6F726520746861 PUSH0 DUP3 ADD MSTORE PUSH32 0x6E20353025206F66206C69717569646974790000000000000000000000000000 PUSH1 0x20 DUP3 ADD MSTORE POP JUMP JUMPDEST PUSH0 PUSH2 0x5EE9 PUSH1 0x32 DUP4 PUSH2 0x53C4 JUMP JUMPDEST SWAP2 POP PUSH2 0x5EF4 DUP3 PUSH2 0x5E8F JUMP JUMPDEST PUSH1 0x40 DUP3 ADD SWAP1 POP SWAP2 SWAP1 POP JUMP JUMPDEST PUSH0 PUSH1 0x20 DUP3 ADD SWAP1 POP DUP2 DUP2 SUB PUSH0 DUP4 ADD MSTORE PUSH2 0x5F16 DUP2 PUSH2 0x5EDD JUMP JUMPDEST SWAP1 POP SWAP2 SWAP1 POP JUMP JUMPDEST PUSH32 0x596F7520646F6E27742068617665207065726D697373696F6E20746F20756E6C PUSH0 DUP3 ADD MSTORE PUSH32 0x6F636B0000000000000000000000000000000000000000000000000000000000 PUSH1 0x20 DUP3 ADD MSTORE POP JUMP JUMPDEST PUSH0 PUSH2 0x5F77 PUSH1 0x23 DUP4 PUSH2 0x53C4 JUMP JUMPDEST SWAP2 POP PUSH2 0x5F82 DUP3 PUSH2 0x5F1D JUMP JUMPDEST PUSH1 0x40 DUP3 ADD SWAP1 POP SWAP2 SWAP1 POP JUMP JUMPDEST PUSH0 PUSH1 0x20 DUP3 ADD SWAP1 POP DUP2 DUP2 SUB PUSH0 DUP4 ADD MSTORE PUSH2 0x5FA4 DUP2 PUSH2 0x5F6B JUMP JUMPDEST SWAP1 POP SWAP2 SWAP1 POP JUMP JUMPDEST PUSH32 0x436F6E7472616374206973206C6F636B656420756E74696C2037206461797300 PUSH0 DUP3 ADD MSTORE POP JUMP JUMPDEST PUSH0 PUSH2 0x5FDF PUSH1 0x1F DUP4 PUSH2 0x53C4 JUMP JUMPDEST SWAP2 POP PUSH2 0x5FEA DUP3 PUSH2 0x5FAB JUMP JUMPDEST PUSH1 0x20 DUP3 ADD SWAP1 POP SWAP2 SWAP1 POP JUMP JUMPDEST PUSH0 PUSH1 0x20 DUP3 ADD SWAP1 POP DUP2 DUP2 SUB PUSH0 DUP4 ADD MSTORE PUSH2 0x600C DUP2 PUSH2 0x5FD3 JUMP JUMPDEST SWAP1 POP SWAP2 SWAP1 POP JUMP JUMPDEST PUSH32 0x6D757374206265207468652073616D65206C656E677468000000000000000000 PUSH0 DUP3 ADD MSTORE POP JUMP JUMPDEST PUSH0 PUSH2 0x6047 PUSH1 0x17 DUP4 PUSH2 0x53C4 JUMP JUMPDEST SWAP2 POP PUSH2 0x6052 DUP3 PUSH2 0x6013 JUMP JUMPDEST PUSH1 0x20 DUP3 ADD SWAP1 POP SWAP2 SWAP1 POP JUMP JUMPDEST PUSH0 PUSH1 0x20 DUP3 ADD SWAP1 POP DUP2 DUP2 SUB PUSH0 DUP4 ADD MSTORE PUSH2 0x6074 DUP2 PUSH2 0x603B JUMP JUMPDEST SWAP1 POP SWAP2 SWAP1 POP JUMP JUMPDEST PUSH0 PUSH2 0x6085 DUP3 PUSH2 0x535C JUMP JUMPDEST SWAP2 POP PUSH2 0x6090 DUP4 PUSH2 0x535C JUMP JUMPDEST SWAP3 POP DUP3 DUP3 ADD SWAP1 POP DUP1 DUP3 GT ISZERO PUSH2 0x60A8 JUMPI PUSH2 0x60A7 PUSH2 0x5ABC JUMP JUMPDEST JUMPDEST SWAP3 SWAP2 POP POP JUMP JUMPDEST PUSH32 0x4D617820547820416D6F756E742063616E6E6F74206265206C65737320746861 PUSH0 DUP3 ADD MSTORE PUSH32 0x6E203639204D696C6C696F6E0000000000000000000000000000000000000000 PUSH1 0x20 DUP3 ADD MSTORE POP JUMP JUMPDEST PUSH0 PUSH2 0x6108 PUSH1 0x2C DUP4 PUSH2 0x53C4 JUMP JUMPDEST SWAP2 POP PUSH2 0x6113 DUP3 PUSH2 0x60AE JUMP JUMPDEST PUSH1 0x40 DUP3 ADD SWAP1 POP SWAP2 SWAP1 POP JUMP JUMPDEST PUSH0 PUSH1 0x20 DUP3 ADD SWAP1 POP DUP2 DUP2 SUB PUSH0 DUP4 ADD MSTORE PUSH2 0x6135 DUP2 PUSH2 0x60FC JUMP JUMPDEST SWAP1 POP SWAP2 SWAP1 POP JUMP JUMPDEST PUSH32 0x4F776E61626C653A206E6577206F776E657220697320746865207A65726F2061 PUSH0 DUP3 ADD MSTORE PUSH32 0x6464726573730000000000000000000000000000000000000000000000000000 PUSH1 0x20 DUP3 ADD MSTORE POP JUMP JUMPDEST PUSH0 PUSH2 0x6196 PUSH1 0x26 DUP4 PUSH2 0x53C4 JUMP JUMPDEST SWAP2 POP PUSH2 0x61A1 DUP3 PUSH2 0x613C JUMP JUMPDEST PUSH1 0x40 DUP3 ADD SWAP1 POP SWAP2 SWAP1 POP JUMP JUMPDEST PUSH0 PUSH1 0x20 DUP3 ADD SWAP1 POP DUP2 DUP2 SUB PUSH0 DUP4 ADD MSTORE PUSH2 0x61C3 DUP2 PUSH2 0x618A JUMP JUMPDEST SWAP1 POP SWAP2 SWAP1 POP JUMP JUMPDEST PUSH32 0x45524332303A20617070726F76652066726F6D20746865207A65726F20616464 PUSH0 DUP3 ADD MSTORE PUSH32 0x7265737300000000000000000000000000000000000000000000000000000000 PUSH1 0x20 DUP3 ADD MSTORE POP JUMP JUMPDEST PUSH0 PUSH2 0x6224 PUSH1 0x24 DUP4 PUSH2 0x53C4 JUMP JUMPDEST SWAP2 POP PUSH2 0x622F DUP3 PUSH2 0x61CA JUMP JUMPDEST PUSH1 0x40 DUP3 ADD SWAP1 POP SWAP2 SWAP1 POP JUMP JUMPDEST PUSH0 PUSH1 0x20 DUP3 ADD SWAP1 POP DUP2 DUP2 SUB PUSH0 DUP4 ADD MSTORE PUSH2 0x6251 DUP2 PUSH2 0x6218 JUMP JUMPDEST SWAP1 POP SWAP2 SWAP1 POP JUMP JUMPDEST PUSH32 0x45524332303A20617070726F766520746F20746865207A65726F206164647265 PUSH0 DUP3 ADD MSTORE PUSH32 0x7373000000000000000000000000000000000000000000000000000000000000 PUSH1 0x20 DUP3 ADD MSTORE POP JUMP JUMPDEST PUSH0 PUSH2 0x62B2 PUSH1 0x22 DUP4 PUSH2 0x53C4 JUMP JUMPDEST SWAP2 POP PUSH2 0x62BD DUP3 PUSH2 0x6258 JUMP JUMPDEST PUSH1 0x40 DUP3 ADD SWAP1 POP SWAP2 SWAP1 POP JUMP JUMPDEST PUSH0 PUSH1 0x20 DUP3 ADD SWAP1 POP DUP2 DUP2 SUB PUSH0 DUP4 ADD MSTORE PUSH2 0x62DF DUP2 PUSH2 0x62A6 JUMP JUMPDEST SWAP1 POP SWAP2 SWAP1 POP JUMP JUMPDEST PUSH32 0x45524332303A207472616E736665722066726F6D20746865207A65726F206164 PUSH0 DUP3 ADD MSTORE PUSH32 0x6472657373000000000000000000000000000000000000000000000000000000 PUSH1 0x20 DUP3 ADD MSTORE POP JUMP JUMPDEST PUSH0 PUSH2 0x6340 PUSH1 0x25 DUP4 PUSH2 0x53C4 JUMP JUMPDEST SWAP2 POP PUSH2 0x634B DUP3 PUSH2 0x62E6 JUMP JUMPDEST PUSH1 0x40 DUP3 ADD SWAP1 POP SWAP2 SWAP1 POP JUMP JUMPDEST PUSH0 PUSH1 0x20 DUP3 ADD SWAP1 POP DUP2 DUP2 SUB PUSH0 DUP4 ADD MSTORE PUSH2 0x636D DUP2 PUSH2 0x6334 JUMP JUMPDEST SWAP1 POP SWAP2 SWAP1 POP JUMP JUMPDEST PUSH32 0x45524332303A207472616E7366657220746F20746865207A65726F2061646472 PUSH0 DUP3 ADD MSTORE PUSH32 0x6573730000000000000000000000000000000000000000000000000000000000 PUSH1 0x20 DUP3 ADD MSTORE POP JUMP JUMPDEST PUSH0 PUSH2 0x63CE PUSH1 0x23 DUP4 PUSH2 0x53C4 JUMP JUMPDEST SWAP2 POP PUSH2 0x63D9 DUP3 PUSH2 0x6374 JUMP JUMPDEST PUSH1 0x40 DUP3 ADD SWAP1 POP SWAP2 SWAP1 POP JUMP JUMPDEST PUSH0 PUSH1 0x20 DUP3 ADD SWAP1 POP DUP2 DUP2 SUB PUSH0 DUP4 ADD MSTORE PUSH2 0x63FB DUP2 PUSH2 0x63C2 JUMP JUMPDEST SWAP1 POP SWAP2 SWAP1 POP JUMP JUMPDEST PUSH32 0x5472616E7366657220616D6F756E74206D757374206265206772656174657220 PUSH0 DUP3 ADD MSTORE PUSH32 0x7468616E207A65726F0000000000000000000000000000000000000000000000 PUSH1 0x20 DUP3 ADD MSTORE POP JUMP JUMPDEST PUSH0 PUSH2 0x645C PUSH1 0x29 DUP4 PUSH2 0x53C4 JUMP JUMPDEST SWAP2 POP PUSH2 0x6467 DUP3 PUSH2 0x6402 JUMP JUMPDEST PUSH1 0x40 DUP3 ADD SWAP1 POP SWAP2 SWAP1 POP JUMP JUMPDEST PUSH0 PUSH1 0x20 DUP3 ADD SWAP1 POP DUP2 DUP2 SUB PUSH0 DUP4 ADD MSTORE PUSH2 0x6489 DUP2 PUSH2 0x6450 JUMP JUMPDEST SWAP1 POP SWAP2 SWAP1 POP JUMP JUMPDEST PUSH32 0x5472616E7366657220616D6F756E74206578636565647320746865206D617854 PUSH0 DUP3 ADD MSTORE PUSH32 0x78416D6F756E742E000000000000000000000000000000000000000000000000 PUSH1 0x20 DUP3 ADD MSTORE POP JUMP JUMPDEST PUSH0 PUSH2 0x64EA PUSH1 0x28 DUP4 PUSH2 0x53C4 JUMP JUMPDEST SWAP2 POP PUSH2 0x64F5 DUP3 PUSH2 0x6490 JUMP JUMPDEST PUSH1 0x40 DUP3 ADD SWAP1 POP SWAP2 SWAP1 POP JUMP JUMPDEST PUSH0 PUSH1 0x20 DUP3 ADD SWAP1 POP DUP2 DUP2 SUB PUSH0 DUP4 ADD MSTORE PUSH2 0x6517 DUP2 PUSH2 0x64DE JUMP JUMPDEST SWAP1 POP SWAP2 SWAP1 POP JUMP JUMPDEST PUSH32 0x536166654D6174683A206164646974696F6E206F766572666C6F770000000000 PUSH0 DUP3 ADD MSTORE POP JUMP JUMPDEST PUSH0 PUSH2 0x6552 PUSH1 0x1B DUP4 PUSH2 0x53C4 JUMP JUMPDEST SWAP2 POP PUSH2 0x655D DUP3 PUSH2 0x651E JUMP JUMPDEST PUSH1 0x20 DUP3 ADD SWAP1 POP SWAP2 SWAP1 POP JUMP JUMPDEST PUSH0 PUSH1 0x20 DUP3 ADD SWAP1 POP DUP2 DUP2 SUB PUSH0 DUP4 ADD MSTORE PUSH2 0x657F DUP2 PUSH2 0x6546 JUMP JUMPDEST SWAP1 POP SWAP2 SWAP1 POP JUMP JUMPDEST PUSH0 PUSH1 0x60 DUP3 ADD SWAP1 POP PUSH2 0x6599 PUSH0 DUP4 ADD DUP7 PUSH2 0x54D5 JUMP JUMPDEST PUSH2 0x65A6 PUSH1 0x20 DUP4 ADD DUP6 PUSH2 0x54D5 JUMP JUMPDEST PUSH2 0x65B3 PUSH1 0x40 DUP4 ADD DUP5 PUSH2 0x54D5 JUMP JUMPDEST SWAP5 SWAP4 POP POP POP POP JUMP JUMPDEST PUSH32 0x626F7473206172656E7420616C6C6F77656420746F2074726164650000000000 PUSH0 DUP3 ADD MSTORE POP JUMP JUMPDEST PUSH0 PUSH2 0x65EF PUSH1 0x1B DUP4 PUSH2 0x53C4 JUMP JUMPDEST SWAP2 POP PUSH2 0x65FA DUP3 PUSH2 0x65BB JUMP JUMPDEST PUSH1 0x20 DUP3 ADD SWAP1 POP SWAP2 SWAP1 POP JUMP JUMPDEST PUSH0 PUSH1 0x20 DUP3 ADD SWAP1 POP DUP2 DUP2 SUB PUSH0 DUP4 ADD MSTORE PUSH2 0x661C DUP2 PUSH2 0x65E3 JUMP JUMPDEST SWAP1 POP SWAP2 SWAP1 POP JUMP JUMPDEST PUSH32 0x4E487B7100000000000000000000000000000000000000000000000000000000 PUSH0 MSTORE PUSH1 0x12 PUSH1 0x4 MSTORE PUSH1 0x24 PUSH0 REVERT JUMPDEST PUSH0 PUSH2 0x665A DUP3 PUSH2 0x535C JUMP JUMPDEST SWAP2 POP PUSH2 0x6665 DUP4 PUSH2 0x535C JUMP JUMPDEST SWAP3 POP DUP3 PUSH2 0x6675 JUMPI PUSH2 0x6674 PUSH2 0x6623 JUMP JUMPDEST JUMPDEST DUP3 DUP3 DIV SWAP1 POP SWAP3 SWAP2 POP POP JUMP JUMPDEST PUSH32 0x4E487B7100000000000000000000000000000000000000000000000000000000 PUSH0 MSTORE PUSH1 0x41 PUSH1 0x4 MSTORE PUSH1 0x24 PUSH0 REVERT JUMPDEST PUSH0 DUP2 MLOAD SWAP1 POP PUSH2 0x66BB DUP2 PUSH2 0x5307 JUMP JUMPDEST SWAP3 SWAP2 POP POP JUMP JUMPDEST PUSH0 PUSH1 0x20 DUP3 DUP5 SUB SLT ISZERO PUSH2 0x66D6 JUMPI PUSH2 0x66D5 PUSH2 0x52CF JUMP JUMPDEST JUMPDEST PUSH0 PUSH2 0x66E3 DUP5 DUP3 DUP6 ADD PUSH2 0x66AD JUMP JUMPDEST SWAP2 POP POP SWAP3 SWAP2 POP POP JUMP JUMPDEST PUSH0 DUP2 SWAP1 POP SWAP2 SWAP1 POP JUMP JUMPDEST PUSH0 PUSH2 0x670F PUSH2 0x670A PUSH2 0x6705 DUP5 PUSH2 0x66EC JUMP JUMPDEST PUSH2 0x54FD JUMP JUMPDEST PUSH2 0x535C JUMP JUMPDEST SWAP1 POP SWAP2 SWAP1 POP JUMP JUMPDEST PUSH2 0x671F DUP2 PUSH2 0x66F5 JUMP JUMPDEST DUP3 MSTORE POP POP JUMP JUMPDEST PUSH0 DUP2 MLOAD SWAP1 POP SWAP2 SWAP1 POP JUMP JUMPDEST PUSH0 DUP3 DUP3 MSTORE PUSH1 0x20 DUP3 ADD SWAP1 POP SWAP3 SWAP2 POP POP JUMP JUMPDEST PUSH0 DUP2 SWAP1 POP PUSH1 0x20 DUP3 ADD SWAP1 POP SWAP2 SWAP1 POP JUMP JUMPDEST PUSH2 0x6757 DUP2 PUSH2 0x52F6 JUMP JUMPDEST DUP3 MSTORE POP POP JUMP JUMPDEST PUSH0 PUSH2 0x6768 DUP4 DUP4 PUSH2 0x674E JUMP JUMPDEST PUSH1 0x20 DUP4 ADD SWAP1 POP SWAP3 SWAP2 POP POP JUMP JUMPDEST PUSH0 PUSH1 0x20 DUP3 ADD SWAP1 POP SWAP2 SWAP1 POP JUMP JUMPDEST PUSH0 PUSH2 0x678A DUP3 PUSH2 0x6725 JUMP JUMPDEST PUSH2 0x6794 DUP2 DUP6 PUSH2 0x672F JUMP JUMPDEST SWAP4 POP PUSH2 0x679F DUP4 PUSH2 0x673F JUMP JUMPDEST DUP1 PUSH0 JUMPDEST DUP4 DUP2 LT ISZERO PUSH2 0x67CF JUMPI DUP2 MLOAD PUSH2 0x67B6 DUP9 DUP3 PUSH2 0x675D JUMP JUMPDEST SWAP8 POP PUSH2 0x67C1 DUP4 PUSH2 0x6774 JUMP JUMPDEST SWAP3 POP POP PUSH1 0x1 DUP2 ADD SWAP1 POP PUSH2 0x67A2 JUMP JUMPDEST POP DUP6 SWAP4 POP POP POP POP SWAP3 SWAP2 POP POP JUMP JUMPDEST PUSH0 PUSH1 0xA0 DUP3 ADD SWAP1 POP PUSH2 0x67EF PUSH0 DUP4 ADD DUP9 PUSH2 0x54D5 JUMP JUMPDEST PUSH2 0x67FC PUSH1 0x20 DUP4 ADD DUP8 PUSH2 0x6716 JUMP JUMPDEST DUP2 DUP2 SUB PUSH1 0x40 DUP4 ADD MSTORE PUSH2 0x680E DUP2 DUP7 PUSH2 0x6780 JUMP JUMPDEST SWAP1 POP PUSH2 0x681D PUSH1 0x60 DUP4 ADD DUP6 PUSH2 0x56D6 JUMP JUMPDEST PUSH2 0x682A PUSH1 0x80 DUP4 ADD DUP5 PUSH2 0x54D5 JUMP JUMPDEST SWAP7 SWAP6 POP POP POP POP POP POP JUMP JUMPDEST PUSH32 0x536166654D6174683A206D756C7469706C69636174696F6E206F766572666C6F PUSH0 DUP3 ADD MSTORE PUSH32 0x7700000000000000000000000000000000000000000000000000000000000000 PUSH1 0x20 DUP3 ADD MSTORE POP JUMP JUMPDEST PUSH0 PUSH2 0x688E PUSH1 0x21 DUP4 PUSH2 0x53C4 JUMP JUMPDEST SWAP2 POP PUSH2 0x6899 DUP3 PUSH2 0x6834 JUMP JUMPDEST PUSH1 0x40 DUP3 ADD SWAP1 POP SWAP2 SWAP1 POP JUMP JUMPDEST PUSH0 PUSH1 0x20 DUP3 ADD SWAP1 POP DUP2 DUP2 SUB PUSH0 DUP4 ADD MSTORE PUSH2 0x68BB DUP2 PUSH2 0x6882 JUMP JUMPDEST SWAP1 POP SWAP2 SWAP1 POP JUMP JUMPDEST PUSH0 PUSH1 0xC0 DUP3 ADD SWAP1 POP PUSH2 0x68D5 PUSH0 DUP4 ADD DUP10 PUSH2 0x56D6 JUMP JUMPDEST PUSH2 0x68E2 PUSH1 0x20 DUP4 ADD DUP9 PUSH2 0x54D5 JUMP JUMPDEST PUSH2 0x68EF PUSH1 0x40 DUP4 ADD DUP8 PUSH2 0x6716 JUMP JUMPDEST PUSH2 0x68FC PUSH1 0x60 DUP4 ADD DUP7 PUSH2 0x6716 JUMP JUMPDEST PUSH2 0x6909 PUSH1 0x80 DUP4 ADD DUP6 PUSH2 0x56D6 JUMP JUMPDEST PUSH2 0x6916 PUSH1 0xA0 DUP4 ADD DUP5 PUSH2 0x54D5 JUMP JUMPDEST SWAP8 SWAP7 POP POP POP POP POP POP POP JUMP JUMPDEST PUSH0 DUP1 PUSH0 PUSH1 0x60 DUP5 DUP7 SUB SLT ISZERO PUSH2 0x6938 JUMPI PUSH2 0x6937 PUSH2 0x52CF JUMP JUMPDEST JUMPDEST PUSH0 PUSH2 0x6945 DUP7 DUP3 DUP8 ADD PUSH2 0x5CF4 JUMP JUMPDEST SWAP4 POP POP PUSH1 0x20 PUSH2 0x6956 DUP7 DUP3 DUP8 ADD PUSH2 0x5CF4 JUMP JUMPDEST SWAP3 POP POP PUSH1 0x40 PUSH2 0x6967 DUP7 DUP3 DUP8 ADD PUSH2 0x5CF4 JUMP JUMPDEST SWAP2 POP POP SWAP3 POP SWAP3 POP SWAP3 JUMP INVALID GASLIMIT MSTORE NUMBER ORIGIN ADDRESS GASPRICE KECCAK256 PUSH21 0x72616E7366657220616D6F756E7420657863656564 PUSH20 0x20616C6C6F77616E636545524332303A20646563 PUSH19 0x656173656420616C6C6F77616E63652062656C PUSH16 0x77207A65726FA2646970667358221220 0x4F CALLER PUSH26 0xF10453988A2BD3E3BF8A662B9F8E12031E2BF46CB36BADBD529 DIV SWAP4 ADD PUSH5 0x736F6C6343 STOP ADDMOD EQ STOP CALLER "
		},
		"gasEstimates": {
			"creation": {
				"codeDepositCost": "5424800",
				"executionCost": "infinite",
				"totalCost": "infinite"
			},
			"external": {
				"_liquidityFee()": "2515",
				"_maxTxAmount()": "2515",
				"_taxFee()": "2537",
				"addBotWallet(address)": "27071",
				"airdrop(address,uint256)": "infinite",
				"airdropArray(address[],uint256[])": "infinite",
				"allowance(address,address)": "infinite",
				"allowtrading()": "26750",
				"approve(address,uint256)": "infinite",
				"balanceOf(address)": "infinite",
				"canTrade()": "2629",
				"claimOtherTokens(address,address)": "infinite",
				"claimTokens()": "infinite",
				"clearStuckBalance(address)": "infinite",
				"decimals()": "2607",
				"decreaseAllowance(address,uint256)": "infinite",
				"deliver(uint256)": "infinite",
				"excludeFromFee(address)": "27159",
				"excludeFromReward(address)": "infinite",
				"geUnlockTime()": "2521",
				"getBotWalletStatus(address)": "2938",
				"includeInFee(address)": "27090",
				"includeInReward(address)": "infinite",
				"increaseAllowance(address,uint256)": "infinite",
				"isExcludedFromFee(address)": "3003",
				"isExcludedFromReward(address)": "2982",
				"lock(uint256)": "infinite",
				"marketingFeePercent()": "2514",
				"marketingWallet()": "2664",
				"name()": "infinite",
				"numTokensSellToAddToLiquidity()": "2558",
				"owner()": "2604",
				"reflectionFromToken(uint256,bool)": "infinite",
				"removeBotWallet(address)": "27049",
				"renounceOwnership()": "30418",
				"setLiquidityFeePercent(uint256)": "24826",
				"setMarketingFeePercent(uint256)": "24828",
				"setMarketingWallet(address)": "26961",
				"setMaxTxAmount(uint256)": "infinite",
				"setSwapAndLiquifyEnabled(bool)": "infinite",
				"setSwapThresholdAmount(uint256)": "infinite",
				"setTaxFeePercent(uint256)": "24807",
				"swapAndLiquifyEnabled()": "2606",
				"symbol()": "infinite",
				"tokenFromReflection(uint256)": "infinite",
				"totalFees()": "2567",
				"totalSupply()": "2501",
				"transfer(address,uint256)": "infinite",
				"transferFrom(address,address,uint256)": "infinite",
				"transferOwnership(address)": "30758",
				"uniswapV2Pair()": "infinite",
				"uniswapV2Router()": "infinite",
				"unlock()": "36759"
			},
			"internal": {
				"_approve(address,address,uint256)": "infinite",
				"_getCurrentSupply()": "infinite",
				"_getRValues(uint256,uint256,uint256,uint256)": "infinite",
				"_getRate()": "infinite",
				"_getTValues(uint256)": "infinite",
				"_getValues(uint256)": "infinite",
				"_reflectFee(uint256,uint256)": "infinite",
				"_takeLiquidity(uint256)": "infinite",
				"_tokenTransfer(address,address,uint256,bool)": "infinite",
				"_transfer(address,address,uint256)": "infinite",
				"_transferBothExcluded(address,address,uint256)": "infinite",
				"_transferFromExcluded(address,address,uint256)": "infinite",
				"_transferStandard(address,address,uint256)": "infinite",
				"_transferToExcluded(address,address,uint256)": "infinite",
				"addLiquidity(uint256,uint256)": "infinite",
				"airdropInternal(address,uint256)": "infinite",
				"calculateLiquidityFee(uint256)": "infinite",
				"calculateTaxFee(uint256)": "infinite",
				"removeAllFee()": "62715",
				"restoreAllFee()": "48437",
				"swapAndLiquify(uint256)": "infinite",
				"swapTokensForEth(uint256)": "infinite"
			}
		},
		"methodIdentifiers": {
			"_liquidityFee()": "6bc87c3a",
			"_maxTxAmount()": "7d1db4a5",
			"_taxFee()": "3b124fe7",
			"addBotWallet(address)": "2a360631",
			"airdrop(address,uint256)": "8ba4cc3c",
			"airdropArray(address[],uint256[])": "d4a3883f",
			"allowance(address,address)": "dd62ed3e",
			"allowtrading()": "a6334231",
			"approve(address,uint256)": "095ea7b3",
			"balanceOf(address)": "70a08231",
			"canTrade()": "2f05205c",
			"claimOtherTokens(address,address)": "3ae7dc20",
			"claimTokens()": "48c54b9d",
			"clearStuckBalance(address)": "764d72bf",
			"decimals()": "313ce567",
			"decreaseAllowance(address,uint256)": "a457c2d7",
			"deliver(uint256)": "3bd5d173",
			"excludeFromFee(address)": "437823ec",
			"excludeFromReward(address)": "52390c02",
			"geUnlockTime()": "b6c52324",
			"getBotWalletStatus(address)": "60d48489",
			"includeInFee(address)": "ea2f0b37",
			"includeInReward(address)": "3685d419",
			"increaseAllowance(address,uint256)": "39509351",
			"isExcludedFromFee(address)": "5342acb4",
			"isExcludedFromReward(address)": "88f82020",
			"lock(uint256)": "dd467064",
			"marketingFeePercent()": "da6fa55c",
			"marketingWallet()": "75f0a874",
			"name()": "06fdde03",
			"numTokensSellToAddToLiquidity()": "d12a7688",
			"owner()": "8da5cb5b",
			"reflectionFromToken(uint256,bool)": "4549b039",
			"removeBotWallet(address)": "0305caff",
			"renounceOwnership()": "715018a6",
			"setLiquidityFeePercent(uint256)": "8ee88c53",
			"setMarketingFeePercent(uint256)": "457c194c",
			"setMarketingWallet(address)": "5d098b38",
			"setMaxTxAmount(uint256)": "ec28438a",
			"setSwapAndLiquifyEnabled(bool)": "c49b9a80",
			"setSwapThresholdAmount(uint256)": "29e04b4a",
			"setTaxFeePercent(uint256)": "061c82d0",
			"swapAndLiquifyEnabled()": "4a74bb02",
			"symbol()": "95d89b41",
			"tokenFromReflection(uint256)": "2d838119",
			"totalFees()": "13114a9d",
			"totalSupply()": "18160ddd",
			"transfer(address,uint256)": "a9059cbb",
			"transferFrom(address,address,uint256)": "23b872dd",
			"transferOwnership(address)": "f2fde38b",
			"uniswapV2Pair()": "49bd5a5e",
			"uniswapV2Router()": "1694505e",
			"unlock()": "a69df4b5"
		}
	},
	"abi": [
		{
			"inputs": [],
			"stateMutability": "nonpayable",
			"type": "constructor"
		},
		{
			"anonymous": false,
			"inputs": [
				{
					"indexed": true,
					"internalType": "address",
					"name": "owner",
					"type": "address"
				},
				{
					"indexed": true,
					"internalType": "address",
					"name": "spender",
					"type": "address"
				},
				{
					"indexed": false,
					"internalType": "uint256",
					"name": "value",
					"type": "uint256"
				}
			],
			"name": "Approval",
			"type": "event"
		},
		{
			"anonymous": false,
			"inputs": [
				{
					"indexed": false,
					"internalType": "uint256",
					"name": "minTokensBeforeSwap",
					"type": "uint256"
				}
			],
			"name": "MinTokensBeforeSwapUpdated",
			"type": "event"
		},
		{
			"anonymous": false,
			"inputs": [
				{
					"indexed": true,
					"internalType": "address",
					"name": "previousOwner",
					"type": "address"
				},
				{
					"indexed": true,
					"internalType": "address",
					"name": "newOwner",
					"type": "address"
				}
			],
			"name": "OwnershipTransferred",
			"type": "event"
		},
		{
			"anonymous": false,
			"inputs": [
				{
					"indexed": false,
					"internalType": "uint256",
					"name": "tokensSwapped",
					"type": "uint256"
				},
				{
					"indexed": false,
					"internalType": "uint256",
					"name": "ethReceived",
					"type": "uint256"
				},
				{
					"indexed": false,
					"internalType": "uint256",
					"name": "tokensIntoLiqudity",
					"type": "uint256"
				}
			],
			"name": "SwapAndLiquify",
			"type": "event"
		},
		{
			"anonymous": false,
			"inputs": [
				{
					"indexed": false,
					"internalType": "bool",
					"name": "enabled",
					"type": "bool"
				}
			],
			"name": "SwapAndLiquifyEnabledUpdated",
			"type": "event"
		},
		{
			"anonymous": false,
			"inputs": [
				{
					"indexed": true,
					"internalType": "address",
					"name": "from",
					"type": "address"
				},
				{
					"indexed": true,
					"internalType": "address",
					"name": "to",
					"type": "address"
				},
				{
					"indexed": false,
					"internalType": "uint256",
					"name": "value",
					"type": "uint256"
				}
			],
			"name": "Transfer",
			"type": "event"
		},
		{
			"inputs": [],
			"name": "_liquidityFee",
			"outputs": [
				{
					"internalType": "uint256",
					"name": "",
					"type": "uint256"
				}
			],
			"stateMutability": "view",
			"type": "function"
		},
		{
			"inputs": [],
			"name": "_maxTxAmount",
			"outputs": [
				{
					"internalType": "uint256",
					"name": "",
					"type": "uint256"
				}
			],
			"stateMutability": "view",
			"type": "function"
		},
		{
			"inputs": [],
			"name": "_taxFee",
			"outputs": [
				{
					"internalType": "uint256",
					"name": "",
					"type": "uint256"
				}
			],
			"stateMutability": "view",
			"type": "function"
		},
		{
			"inputs": [
				{
					"internalType": "address",
					"name": "botwallet",
					"type": "address"
				}
			],
			"name": "addBotWallet",
			"outputs": [],
			"stateMutability": "nonpayable",
			"type": "function"
		},
		{
			"inputs": [
				{
					"internalType": "address",
					"name": "recipient",
					"type": "address"
				},
				{
					"internalType": "uint256",
					"name": "amount",
					"type": "uint256"
				}
			],
			"name": "airdrop",
			"outputs": [],
			"stateMutability": "nonpayable",
			"type": "function"
		},
		{
			"inputs": [
				{
					"internalType": "address[]",
					"name": "newholders",
					"type": "address[]"
				},
				{
					"internalType": "uint256[]",
					"name": "amounts",
					"type": "uint256[]"
				}
			],
			"name": "airdropArray",
			"outputs": [],
			"stateMutability": "nonpayable",
			"type": "function"
		},
		{
			"inputs": [
				{
					"internalType": "address",
					"name": "owner",
					"type": "address"
				},
				{
					"internalType": "address",
					"name": "spender",
					"type": "address"
				}
			],
			"name": "allowance",
			"outputs": [
				{
					"internalType": "uint256",
					"name": "",
					"type": "uint256"
				}
			],
			"stateMutability": "view",
			"type": "function"
		},
		{
			"inputs": [],
			"name": "allowtrading",
			"outputs": [],
			"stateMutability": "nonpayable",
			"type": "function"
		},
		{
			"inputs": [
				{
					"internalType": "address",
					"name": "spender",
					"type": "address"
				},
				{
					"internalType": "uint256",
					"name": "amount",
					"type": "uint256"
				}
			],
			"name": "approve",
			"outputs": [
				{
					"internalType": "bool",
					"name": "",
					"type": "bool"
				}
			],
			"stateMutability": "nonpayable",
			"type": "function"
		},
		{
			"inputs": [
				{
					"internalType": "address",
					"name": "account",
					"type": "address"
				}
			],
			"name": "balanceOf",
			"outputs": [
				{
					"internalType": "uint256",
					"name": "",
					"type": "uint256"
				}
			],
			"stateMutability": "view",
			"type": "function"
		},
		{
			"inputs": [],
			"name": "canTrade",
			"outputs": [
				{
					"internalType": "bool",
					"name": "",
					"type": "bool"
				}
			],
			"stateMutability": "view",
			"type": "function"
		},
		{
			"inputs": [
				{
					"internalType": "contract IERC20",
					"name": "tokenAddress",
					"type": "address"
				},
				{
					"internalType": "address",
					"name": "walletaddress",
					"type": "address"
				}
			],
			"name": "claimOtherTokens",
			"outputs": [],
			"stateMutability": "nonpayable",
			"type": "function"
		},
		{
			"inputs": [],
			"name": "claimTokens",
			"outputs": [],
			"stateMutability": "nonpayable",
			"type": "function"
		},
		{
			"inputs": [
				{
					"internalType": "address payable",
					"name": "walletaddress",
					"type": "address"
				}
			],
			"name": "clearStuckBalance",
			"outputs": [],
			"stateMutability": "nonpayable",
			"type": "function"
		},
		{
			"inputs": [],
			"name": "decimals",
			"outputs": [
				{
					"internalType": "uint8",
					"name": "",
					"type": "uint8"
				}
			],
			"stateMutability": "view",
			"type": "function"
		},
		{
			"inputs": [
				{
					"internalType": "address",
					"name": "spender",
					"type": "address"
				},
				{
					"internalType": "uint256",
					"name": "subtractedValue",
					"type": "uint256"
				}
			],
			"name": "decreaseAllowance",
			"outputs": [
				{
					"internalType": "bool",
					"name": "",
					"type": "bool"
				}
			],
			"stateMutability": "nonpayable",
			"type": "function"
		},
		{
			"inputs": [
				{
					"internalType": "uint256",
					"name": "tAmount",
					"type": "uint256"
				}
			],
			"name": "deliver",
			"outputs": [],
			"stateMutability": "nonpayable",
			"type": "function"
		},
		{
			"inputs": [
				{
					"internalType": "address",
					"name": "account",
					"type": "address"
				}
			],
			"name": "excludeFromFee",
			"outputs": [],
			"stateMutability": "nonpayable",
			"type": "function"
		},
		{
			"inputs": [
				{
					"internalType": "address",
					"name": "account",
					"type": "address"
				}
			],
			"name": "excludeFromReward",
			"outputs": [],
			"stateMutability": "nonpayable",
			"type": "function"
		},
		{
			"inputs": [],
			"name": "geUnlockTime",
			"outputs": [
				{
					"internalType": "uint256",
					"name": "",
					"type": "uint256"
				}
			],
			"stateMutability": "view",
			"type": "function"
		},
		{
			"inputs": [
				{
					"internalType": "address",
					"name": "botwallet",
					"type": "address"
				}
			],
			"name": "getBotWalletStatus",
			"outputs": [
				{
					"internalType": "bool",
					"name": "",
					"type": "bool"
				}
			],
			"stateMutability": "view",
			"type": "function"
		},
		{
			"inputs": [
				{
					"internalType": "address",
					"name": "account",
					"type": "address"
				}
			],
			"name": "includeInFee",
			"outputs": [],
			"stateMutability": "nonpayable",
			"type": "function"
		},
		{
			"inputs": [
				{
					"internalType": "address",
					"name": "account",
					"type": "address"
				}
			],
			"name": "includeInReward",
			"outputs": [],
			"stateMutability": "nonpayable",
			"type": "function"
		},
		{
			"inputs": [
				{
					"internalType": "address",
					"name": "spender",
					"type": "address"
				},
				{
					"internalType": "uint256",
					"name": "addedValue",
					"type": "uint256"
				}
			],
			"name": "increaseAllowance",
			"outputs": [
				{
					"internalType": "bool",
					"name": "",
					"type": "bool"
				}
			],
			"stateMutability": "nonpayable",
			"type": "function"
		},
		{
			"inputs": [
				{
					"internalType": "address",
					"name": "account",
					"type": "address"
				}
			],
			"name": "isExcludedFromFee",
			"outputs": [
				{
					"internalType": "bool",
					"name": "",
					"type": "bool"
				}
			],
			"stateMutability": "view",
			"type": "function"
		},
		{
			"inputs": [
				{
					"internalType": "address",
					"name": "account",
					"type": "address"
				}
			],
			"name": "isExcludedFromReward",
			"outputs": [
				{
					"internalType": "bool",
					"name": "",
					"type": "bool"
				}
			],
			"stateMutability": "view",
			"type": "function"
		},
		{
			"inputs": [
				{
					"internalType": "uint256",
					"name": "time",
					"type": "uint256"
				}
			],
			"name": "lock",
			"outputs": [],
			"stateMutability": "nonpayable",
			"type": "function"
		},
		{
			"inputs": [],
			"name": "marketingFeePercent",
			"outputs": [
				{
					"internalType": "uint256",
					"name": "",
					"type": "uint256"
				}
			],
			"stateMutability": "view",
			"type": "function"
		},
		{
			"inputs": [],
			"name": "marketingWallet",
			"outputs": [
				{
					"internalType": "address",
					"name": "",
					"type": "address"
				}
			],
			"stateMutability": "view",
			"type": "function"
		},
		{
			"inputs": [],
			"name": "name",
			"outputs": [
				{
					"internalType": "string",
					"name": "",
					"type": "string"
				}
			],
			"stateMutability": "view",
			"type": "function"
		},
		{
			"inputs": [],
			"name": "numTokensSellToAddToLiquidity",
			"outputs": [
				{
					"internalType": "uint256",
					"name": "",
					"type": "uint256"
				}
			],
			"stateMutability": "view",
			"type": "function"
		},
		{
			"inputs": [],
			"name": "owner",
			"outputs": [
				{
					"internalType": "address",
					"name": "",
					"type": "address"
				}
			],
			"stateMutability": "view",
			"type": "function"
		},
		{
			"inputs": [
				{
					"internalType": "uint256",
					"name": "tAmount",
					"type": "uint256"
				},
				{
					"internalType": "bool",
					"name": "deductTransferFee",
					"type": "bool"
				}
			],
			"name": "reflectionFromToken",
			"outputs": [
				{
					"internalType": "uint256",
					"name": "",
					"type": "uint256"
				}
			],
			"stateMutability": "view",
			"type": "function"
		},
		{
			"inputs": [
				{
					"internalType": "address",
					"name": "botwallet",
					"type": "address"
				}
			],
			"name": "removeBotWallet",
			"outputs": [],
			"stateMutability": "nonpayable",
			"type": "function"
		},
		{
			"inputs": [],
			"name": "renounceOwnership",
			"outputs": [],
			"stateMutability": "nonpayable",
			"type": "function"
		},
		{
			"inputs": [
				{
					"internalType": "uint256",
					"name": "liquidityFee",
					"type": "uint256"
				}
			],
			"name": "setLiquidityFeePercent",
			"outputs": [],
			"stateMutability": "nonpayable",
			"type": "function"
		},
		{
			"inputs": [
				{
					"internalType": "uint256",
					"name": "fee",
					"type": "uint256"
				}
			],
			"name": "setMarketingFeePercent",
			"outputs": [],
			"stateMutability": "nonpayable",
			"type": "function"
		},
		{
			"inputs": [
				{
					"internalType": "address",
					"name": "walletAddress",
					"type": "address"
				}
			],
			"name": "setMarketingWallet",
			"outputs": [],
			"stateMutability": "nonpayable",
			"type": "function"
		},
		{
			"inputs": [
				{
					"internalType": "uint256",
					"name": "maxTxAmount",
					"type": "uint256"
				}
			],
			"name": "setMaxTxAmount",
			"outputs": [],
			"stateMutability": "nonpayable",
			"type": "function"
		},
		{
			"inputs": [
				{
					"internalType": "bool",
					"name": "_enabled",
					"type": "bool"
				}
			],
			"name": "setSwapAndLiquifyEnabled",
			"outputs": [],
			"stateMutability": "nonpayable",
			"type": "function"
		},
		{
			"inputs": [
				{
					"internalType": "uint256",
					"name": "SwapThresholdAmount",
					"type": "uint256"
				}
			],
			"name": "setSwapThresholdAmount",
			"outputs": [],
			"stateMutability": "nonpayable",
			"type": "function"
		},
		{
			"inputs": [
				{
					"internalType": "uint256",
					"name": "taxFee",
					"type": "uint256"
				}
			],
			"name": "setTaxFeePercent",
			"outputs": [],
			"stateMutability": "nonpayable",
			"type": "function"
		},
		{
			"inputs": [],
			"name": "swapAndLiquifyEnabled",
			"outputs": [
				{
					"internalType": "bool",
					"name": "",
					"type": "bool"
				}
			],
			"stateMutability": "view",
			"type": "function"
		},
		{
			"inputs": [],
			"name": "symbol",
			"outputs": [
				{
					"internalType": "string",
					"name": "",
					"type": "string"
				}
			],
			"stateMutability": "view",
			"type": "function"
		},
		{
			"inputs": [
				{
					"internalType": "uint256",
					"name": "rAmount",
					"type": "uint256"
				}
			],
			"name": "tokenFromReflection",
			"outputs": [
				{
					"internalType": "uint256",
					"name": "",
					"type": "uint256"
				}
			],
			"stateMutability": "view",
			"type": "function"
		},
		{
			"inputs": [],
			"name": "totalFees",
			"outputs": [
				{
					"internalType": "uint256",
					"name": "",
					"type": "uint256"
				}
			],
			"stateMutability": "view",
			"type": "function"
		},
		{
			"inputs": [],
			"name": "totalSupply",
			"outputs": [
				{
					"internalType": "uint256",
					"name": "",
					"type": "uint256"
				}
			],
			"stateMutability": "view",
			"type": "function"
		},
		{
			"inputs": [
				{
					"internalType": "address",
					"name": "recipient",
					"type": "address"
				},
				{
					"internalType": "uint256",
					"name": "amount",
					"type": "uint256"
				}
			],
			"name": "transfer",
			"outputs": [
				{
					"internalType": "bool",
					"name": "",
					"type": "bool"
				}
			],
			"stateMutability": "nonpayable",
			"type": "function"
		},
		{
			"inputs": [
				{
					"internalType": "address",
					"name": "sender",
					"type": "address"
				},
				{
					"internalType": "address",
					"name": "recipient",
					"type": "address"
				},
				{
					"internalType": "uint256",
					"name": "amount",
					"type": "uint256"
				}
			],
			"name": "transferFrom",
			"outputs": [
				{
					"internalType": "bool",
					"name": "",
					"type": "bool"
				}
			],
			"stateMutability": "nonpayable",
			"type": "function"
		},
		{
			"inputs": [
				{
					"internalType": "address",
					"name": "newOwner",
					"type": "address"
				}
			],
			"name": "transferOwnership",
			"outputs": [],
			"stateMutability": "nonpayable",
			"type": "function"
		},
		{
			"inputs": [],
			"name": "uniswapV2Pair",
			"outputs": [
				{
					"internalType": "address",
					"name": "",
					"type": "address"
				}
			],
			"stateMutability": "view",
			"type": "function"
		},
		{
			"inputs": [],
			"name": "uniswapV2Router",
			"outputs": [
				{
					"internalType": "contract IUniswapV2Router02",
					"name": "",
					"type": "address"
				}
			],
			"stateMutability": "view",
			"type": "function"
		},
		{
			"inputs": [],
			"name": "unlock",
			"outputs": [],
			"stateMutability": "nonpayable",
			"type": "function"
		},
		{
			"stateMutability": "payable",
			"type": "receive"
		}
	]
}