{
	"data": {
		"bytecode": {
			"linkReferences": {},
			"object": "6080604052611388600555600680546001600160a01b0319167316626afb636ca096963420c09e28add5c3a1ebc51790553480156200003d57600080fd5b506200004933620002ce565b336000818152600260209081526040808320805460ff19908116600190811790925530855282852080549091169091179055600780546001600160a01b031916737a250d5630b4cf539739df2c5dacb4c659f2488d179055838352600482528083206a084595161401484a0000009081905590519081527fddf252ad1be2c89b69c2b068fc378daa952ba7f163c4a11628f55a4df523b3ef910160405180910390a3600760009054906101000a90046001600160a01b03166001600160a01b031663c45a01556040518163ffffffff1660e01b8152600401602060405180830381865afa1580156200013f573d6000803e3d6000fd5b505050506040513d601f19601f82011682018060405250810190620001659190620003ea565b6001600160a01b031663c9c65396600760009054906101000a90046001600160a01b03166001600160a01b031663ad5c46486040518163ffffffff1660e01b8152600401602060405180830381865afa158015620001c7573d6000803e3d6000fd5b505050506040513d601f19601f82011682018060405250810190620001ed9190620003ea565b6040516001600160e01b031960e084901b1681526001600160a01b0390911660048201523060248201526044016020604051808303816000875af11580156200023a573d6000803e3d6000fd5b505050506040513d601f19601f82011682018060405250810190620002609190620003ea565b600880546001600160a01b0319166001600160a01b039283169081179091556000908152600360205260409020805460ff19166001179055600754620002ac913391166000196200031e565b600754620002c89030906001600160a01b03166000196200031e565b6200041c565b600080546001600160a01b038381166001600160a01b0319831681178455604051919092169283917f8be0079c531659141344cd1fd0a4f28419497f9722a3daafe3b4186f6b6457e09190a35050565b6001600160a01b038316620003705760405162461bcd60e51b815260206004820152601360248201527245524332303a205a65726f204164647265737360681b60448201526064015b60405180910390fd5b6001600160a01b038216620003be5760405162461bcd60e51b815260206004820152601360248201527245524332303a205a65726f204164647265737360681b604482015260640162000367565b6001600160a01b0392831660009081526001602090815260408083209490951682529290925291902055565b600060208284031215620003fd57600080fd5b81516001600160a01b03811681146200041557600080fd5b9392505050565b611107806200042c6000396000f3fe6080604052600436106101395760003560e01c806370a08231116100ab578063a9059cbb1161006f578063a9059cbb146103a4578063c31c9c07146103c4578063dc9d75b0146103e4578063dd62ed3e146103f9578063e9451f5f1461043f578063f2fde38b1461045457600080fd5b806370a082311461030f578063715018a614610345578063893d20e81461035a5780638da5cb5b1461035a57806395d89b411461037857600080fd5b806323b872dd116100fd57806323b872dd146102395780632788986214610259578063313ce567146102925780633eaaf86b146102ae578063452ed4f1146102cd578063694e80c3146102ed57600080fd5b806303fd2a45146101455780630445b6671461017857806306fdde031461019c578063095ea7b3146101eb57806318160ddd1461021b57600080fd5b3661014057005b600080fd5b34801561015157600080fd5b5061015b61dead81565b6040516001600160a01b0390911681526020015b60405180910390f35b34801561018457600080fd5b5061018e60055481565b60405190815260200161016f565b3480156101a857600080fd5b5060408051808201909152601a81527f4861727279506f747465724f62616d61536f6c616e614d656d6500000000000060208201525b60405161016f9190610e44565b3480156101f757600080fd5b5061020b610206366004610ea7565b610474565b604051901515815260200161016f565b34801561022757600080fd5b506a084595161401484a00000061018e565b34801561024557600080fd5b5061020b610254366004610ed3565b61048b565b34801561026557600080fd5b5061020b610274366004610f14565b6001600160a01b031660009081526002602052604090205460ff1690565b34801561029e57600080fd5b506040516012815260200161016f565b3480156102ba57600080fd5b5061018e6a084595161401484a00000081565b3480156102d957600080fd5b5060085461015b906001600160a01b031681565b3480156102f957600080fd5b5061030d610308366004610f31565b610505565b005b34801561031b57600080fd5b5061018e61032a366004610f14565b6001600160a01b031660009081526004602052604090205490565b34801561035157600080fd5b5061030d6105c4565b34801561036657600080fd5b506000546001600160a01b031661015b565b34801561038457600080fd5b5060408051808201909152600381526214d3d360ea1b60208201526101de565b3480156103b057600080fd5b5061020b6103bf366004610ea7565b6105fa565b3480156103d057600080fd5b5060075461015b906001600160a01b031681565b3480156103f057600080fd5b5061018e606481565b34801561040557600080fd5b5061018e610414366004610f4a565b6001600160a01b03918216600090815260016020908152604080832093909416825291909152205490565b34801561044b57600080fd5b5061018e600181565b34801561046057600080fd5b5061030d61046f366004610f14565b610611565b60006104813384846106ac565b5060015b92915050565b6001600160a01b0383166000908152600160209081526040808320338452909152812054600019146104f0576001600160a01b0384166000908152600160209081526040808320338452909152812080548492906104ea908490610f99565b90915550505b6104fb848484610770565b90505b9392505050565b6000546001600160a01b031633146105385760405162461bcd60e51b815260040161052f90610fac565b60405180910390fd5b60648110156105895760405162461bcd60e51b815260206004820152601a60248201527f416d6f756e74206c6f776572206e6f742061636365707465642e000000000000604482015260640161052f565b60058190556040518181527f2b7ce9cd4278161eef9245955c9a851618488a07e830194c60a88f0224ad3cc09060200160405180910390a150565b6000546001600160a01b031633146105ee5760405162461bcd60e51b815260040161052f90610fac565b6105f86000610a09565b565b6000610607338484610770565b5060019392505050565b6000546001600160a01b0316331461063b5760405162461bcd60e51b815260040161052f90610fac565b6001600160a01b0381166106a05760405162461bcd60e51b815260206004820152602660248201527f4f776e61626c653a206e6577206f776e657220697320746865207a65726f206160448201526564647265737360d01b606482015260840161052f565b6106a981610a09565b50565b6001600160a01b0383166106f85760405162461bcd60e51b815260206004820152601360248201527245524332303a205a65726f204164647265737360681b604482015260640161052f565b6001600160a01b0382166107445760405162461bcd60e51b815260206004820152601360248201527245524332303a205a65726f204164647265737360681b604482015260640161052f565b6001600160a01b0392831660009081526001602090815260408083209490951682529290925291902055565b600060016001600160a01b0384166107d65760405162461bcd60e51b815260206004820152602360248201527f45524332303a207472616e7366657220746f20746865207a65726f206164647260448201526265737360e81b606482015260840161052f565b6001600160a01b03851661083a5760405162461bcd60e51b815260206004820152602560248201527f45524332303a207472616e736665722066726f6d20746865207a65726f206164604482015264647265737360d81b606482015260840161052f565b6000831161089c5760405162461bcd60e51b815260206004820152602960248201527f5472616e7366657220616d6f756e74206d7573742062652067726561746572206044820152687468616e207a65726f60b81b606482015260840161052f565b6108a68585610a59565b80156108bc5750600854600160a01b900460ff16155b156108e5573060009081526004602052604090205460055481106108e3576108e381610aa4565b505b6001600160a01b03851660009081526002602052604090205460ff168061092457506001600160a01b03841660009081526002602052604090205460ff165b1561092d575060005b6001600160a01b03851660009081526004602052604081208054859290610955908490610f99565b909155506000905081610968578361097c565b61097c866109768888610a59565b86610cc7565b6001600160a01b0386166000908152600460205260408120805492935083929091906109a9908490610fe1565b92505081905550846001600160a01b0316866001600160a01b03167fddf252ad1be2c89b69c2b068fc378daa952ba7f163c4a11628f55a4df523b3ef836040516109f591815260200190565b60405180910390a350600195945050505050565b600080546001600160a01b038381166001600160a01b0319831681178455604051919092169283917f8be0079c531659141344cd1fd0a4f28419497f9722a3daafe3b4186f6b6457e09190a35050565b6001600160a01b038116600090815260036020526040812054819060ff168015610a9c57506001600160a01b03841660009081526003602052604090205460ff16155b949350505050565b6008805460ff60a01b1916600160a01b1790556040805160028082526060820183526000926020830190803683370190505090503081600081518110610aec57610aec610ff4565b6001600160a01b03928316602091820292909201810191909152600754604080516315ab88c960e31b81529051919093169263ad5c46489260048083019391928290030181865afa158015610b45573d6000803e3d6000fd5b505050506040513d601f19601f82011682018060405250810190610b69919061100a565b81600181518110610b7c57610b7c610ff4565b6001600160a01b03928316602091820292909201810191909152306000908152600182526040808220600754909416825292909152205460001914610be6573060009081526001602090815260408083206007546001600160a01b03168452909152902060001990555b60075460405163791ac94760e01b81526001600160a01b039091169063791ac94790610c1f908590600090869030904290600401611027565b600060405180830381600087803b158015610c3957600080fd5b505af1925050508015610c4a575060015b610c545750610cb7565b60004715610cb4576006546040516001600160a01b03909116904790600081818185875af1925050503d8060008114610ca9576040519150601f19603f3d011682016040523d82523d6000602084013e610cae565b606091505b50909150505b50505b506008805460ff60a01b19169055565b6000808315610cd4575060015b80600003610ce557829150506104fe565b60006064610cf38386611098565b610cfd91906110af565b90508015610e305760006064610d14600187611098565b610d1e91906110af565b30600090815260046020526040812080549293508492909190610d42908490610fe1565b909155505060405182815230906001600160a01b038916907fddf252ad1be2c89b69c2b068fc378daa952ba7f163c4a11628f55a4df523b3ef9060200160405180910390a38015610e2e573060009081526004602052604081208054839290610dac908490610f99565b909155505061dead600090815260046020527f42c63635470f1fb1d6d4b6441c413cb435b1ebb6fedd1896dd5e25d1399147dd8054839290610def908490610fe1565b909155505060405181815261dead9030907fddf252ad1be2c89b69c2b068fc378daa952ba7f163c4a11628f55a4df523b3ef9060200160405180910390a35b505b610e3a8185610f99565b9695505050505050565b600060208083528351808285015260005b81811015610e7157858101830151858201604001528201610e55565b506000604082860101526040601f19601f8301168501019250505092915050565b6001600160a01b03811681146106a957600080fd5b60008060408385031215610eba57600080fd5b8235610ec581610e92565b946020939093013593505050565b600080600060608486031215610ee857600080fd5b8335610ef381610e92565b92506020840135610f0381610e92565b929592945050506040919091013590565b600060208284031215610f2657600080fd5b81356104fe81610e92565b600060208284031215610f4357600080fd5b5035919050565b60008060408385031215610f5d57600080fd5b8235610f6881610e92565b91506020830135610f7881610e92565b809150509250929050565b634e487b7160e01b600052601160045260246000fd5b8181038181111561048557610485610f83565b6020808252818101527f4f776e61626c653a2063616c6c6572206973206e6f7420746865206f776e6572604082015260600190565b8082018082111561048557610485610f83565b634e487b7160e01b600052603260045260246000fd5b60006020828403121561101c57600080fd5b81516104fe81610e92565b600060a082018783526020878185015260a0604085015281875180845260c086019150828901935060005b818110156110775784516001600160a01b031683529383019391830191600101611052565b50506001600160a01b03969096166060850152505050608001529392505050565b808202811582820484141761048557610485610f83565b6000826110cc57634e487b7160e01b600052601260045260246000fd5b50049056fea2646970667358221220fe05f5717599902b82db87f1728223306c659b3534ff4439a630e876a32c22ee64736f6c63430008130033",
			"opcodes": "PUSH1 0x80 PUSH1 0x40 MSTORE PUSH2 0x1388 PUSH1 0x5 SSTORE PUSH1 0x6 DUP1 SLOAD PUSH1 0x1 PUSH1 0x1 PUSH1 0xA0 SHL SUB NOT AND PUSH20 0x16626AFB636CA096963420C09E28ADD5C3A1EBC5 OR SWAP1 SSTORE CALLVALUE DUP1 ISZERO PUSH3 0x3D JUMPI PUSH1 0x0 DUP1 REVERT JUMPDEST POP PUSH3 0x49 CALLER PUSH3 0x2CE JUMP JUMPDEST CALLER PUSH1 0x0 DUP2 DUP2 MSTORE PUSH1 0x2 PUSH1 0x20 SWAP1 DUP2 MSTORE PUSH1 0x40 DUP1 DUP4 KECCAK256 DUP1 SLOAD PUSH1 0xFF NOT SWAP1 DUP2 AND PUSH1 0x1 SWAP1 DUP2 OR SWAP1 SWAP3 SSTORE ADDRESS DUP6 MSTORE DUP3 DUP6 KECCAK256 DUP1 SLOAD SWAP1 SWAP2 AND SWAP1 SWAP2 OR SWAP1 SSTORE PUSH1 0x7 DUP1 SLOAD PUSH1 0x1 PUSH1 0x1 PUSH1 0xA0 SHL SUB NOT AND PUSH20 0x7A250D5630B4CF539739DF2C5DACB4C659F2488D OR SWAP1 SSTORE DUP4 DUP4 MSTORE PUSH1 0x4 DUP3 MSTORE DUP1 DUP4 KECCAK256 PUSH11 0x84595161401484A000000 SWAP1 DUP2 SWAP1 SSTORE SWAP1 MLOAD SWAP1 DUP2 MSTORE PUSH32 0xDDF252AD1BE2C89B69C2B068FC378DAA952BA7F163C4A11628F55A4DF523B3EF SWAP2 ADD PUSH1 0x40 MLOAD DUP1 SWAP2 SUB SWAP1 LOG3 PUSH1 0x7 PUSH1 0x0 SWAP1 SLOAD SWAP1 PUSH2 0x100 EXP SWAP1 DIV PUSH1 0x1 PUSH1 0x1 PUSH1 0xA0 SHL SUB AND PUSH1 0x1 PUSH1 0x1 PUSH1 0xA0 SHL SUB AND PUSH4 0xC45A0155 PUSH1 0x40 MLOAD DUP2 PUSH4 0xFFFFFFFF AND PUSH1 0xE0 SHL DUP2 MSTORE PUSH1 0x4 ADD PUSH1 0x20 PUSH1 0x40 MLOAD DUP1 DUP4 SUB DUP2 DUP7 GAS STATICCALL ISZERO DUP1 ISZERO PUSH3 0x13F JUMPI RETURNDATASIZE PUSH1 0x0 DUP1 RETURNDATACOPY RETURNDATASIZE PUSH1 0x0 REVERT JUMPDEST POP POP POP POP PUSH1 0x40 MLOAD RETURNDATASIZE PUSH1 0x1F NOT PUSH1 0x1F DUP3 ADD AND DUP3 ADD DUP1 PUSH1 0x40 MSTORE POP DUP2 ADD SWAP1 PUSH3 0x165 SWAP2 SWAP1 PUSH3 0x3EA JUMP JUMPDEST PUSH1 0x1 PUSH1 0x1 PUSH1 0xA0 SHL SUB AND PUSH4 0xC9C65396 PUSH1 0x7 PUSH1 0x0 SWAP1 SLOAD SWAP1 PUSH2 0x100 EXP SWAP1 DIV PUSH1 0x1 PUSH1 0x1 PUSH1 0xA0 SHL SUB AND PUSH1 0x1 PUSH1 0x1 PUSH1 0xA0 SHL SUB AND PUSH4 0xAD5C4648 PUSH1 0x40 MLOAD DUP2 PUSH4 0xFFFFFFFF AND PUSH1 0xE0 SHL DUP2 MSTORE PUSH1 0x4 ADD PUSH1 0x20 PUSH1 0x40 MLOAD DUP1 DUP4 SUB DUP2 DUP7 GAS STATICCALL ISZERO DUP1 ISZERO PUSH3 0x1C7 JUMPI RETURNDATASIZE PUSH1 0x0 DUP1 RETURNDATACOPY RETURNDATASIZE PUSH1 0x0 REVERT JUMPDEST POP POP POP POP PUSH1 0x40 MLOAD RETURNDATASIZE PUSH1 0x1F NOT PUSH1 0x1F DUP3 ADD AND DUP3 ADD DUP1 PUSH1 0x40 MSTORE POP DUP2 ADD SWAP1 PUSH3 0x1ED SWAP2 SWAP1 PUSH3 0x3EA JUMP JUMPDEST PUSH1 0x40 MLOAD PUSH1 0x1 PUSH1 0x1 PUSH1 0xE0 SHL SUB NOT PUSH1 0xE0 DUP5 SWAP1 SHL AND DUP2 MSTORE PUSH1 0x1 PUSH1 0x1 PUSH1 0xA0 SHL SUB SWAP1 SWAP2 AND PUSH1 0x4 DUP3 ADD MSTORE ADDRESS PUSH1 0x24 DUP3 ADD MSTORE PUSH1 0x44 ADD PUSH1 0x20 PUSH1 0x40 MLOAD DUP1 DUP4 SUB DUP2 PUSH1 0x0 DUP8 GAS CALL ISZERO DUP1 ISZERO PUSH3 0x23A JUMPI RETURNDATASIZE PUSH1 0x0 DUP1 RETURNDATACOPY RETURNDATASIZE PUSH1 0x0 REVERT JUMPDEST POP POP POP POP PUSH1 0x40 MLOAD RETURNDATASIZE PUSH1 0x1F NOT PUSH1 0x1F DUP3 ADD AND DUP3 ADD DUP1 PUSH1 0x40 MSTORE POP DUP2 ADD SWAP1 PUSH3 0x260 SWAP2 SWAP1 PUSH3 0x3EA JUMP JUMPDEST PUSH1 0x8 DUP1 SLOAD PUSH1 0x1 PUSH1 0x1 PUSH1 0xA0 SHL SUB NOT AND PUSH1 0x1 PUSH1 0x1 PUSH1 0xA0 SHL SUB SWAP3 DUP4 AND SWAP1 DUP2 OR SWAP1 SWAP2 SSTORE PUSH1 0x0 SWAP1 DUP2 MSTORE PUSH1 0x3 PUSH1 0x20 MSTORE PUSH1 0x40 SWAP1 KECCAK256 DUP1 SLOAD PUSH1 0xFF NOT AND PUSH1 0x1 OR SWAP1 SSTORE PUSH1 0x7 SLOAD PUSH3 0x2AC SWAP2 CALLER SWAP2 AND PUSH1 0x0 NOT PUSH3 0x31E JUMP JUMPDEST PUSH1 0x7 SLOAD PUSH3 0x2C8 SWAP1 ADDRESS SWAP1 PUSH1 0x1 PUSH1 0x1 PUSH1 0xA0 SHL SUB AND PUSH1 0x0 NOT PUSH3 0x31E JUMP JUMPDEST PUSH3 0x41C JUMP JUMPDEST PUSH1 0x0 DUP1 SLOAD PUSH1 0x1 PUSH1 0x1 PUSH1 0xA0 SHL SUB DUP4 DUP2 AND PUSH1 0x1 PUSH1 0x1 PUSH1 0xA0 SHL SUB NOT DUP4 AND DUP2 OR DUP5 SSTORE PUSH1 0x40 MLOAD SWAP2 SWAP1 SWAP3 AND SWAP3 DUP4 SWAP2 PUSH32 0x8BE0079C531659141344CD1FD0A4F28419497F9722A3DAAFE3B4186F6B6457E0 SWAP2 SWAP1 LOG3 POP POP JUMP JUMPDEST PUSH1 0x1 PUSH1 0x1 PUSH1 0xA0 SHL SUB DUP4 AND PUSH3 0x370 JUMPI PUSH1 0x40 MLOAD PUSH3 0x461BCD PUSH1 0xE5 SHL DUP2 MSTORE PUSH1 0x20 PUSH1 0x4 DUP3 ADD MSTORE PUSH1 0x13 PUSH1 0x24 DUP3 ADD MSTORE PUSH19 0x45524332303A205A65726F2041646472657373 PUSH1 0x68 SHL PUSH1 0x44 DUP3 ADD MSTORE PUSH1 0x64 ADD JUMPDEST PUSH1 0x40 MLOAD DUP1 SWAP2 SUB SWAP1 REVERT JUMPDEST PUSH1 0x1 PUSH1 0x1 PUSH1 0xA0 SHL SUB DUP3 AND PUSH3 0x3BE JUMPI PUSH1 0x40 MLOAD PUSH3 0x461BCD PUSH1 0xE5 SHL DUP2 MSTORE PUSH1 0x20 PUSH1 0x4 DUP3 ADD MSTORE PUSH1 0x13 PUSH1 0x24 DUP3 ADD MSTORE PUSH19 0x45524332303A205A65726F2041646472657373 PUSH1 0x68 SHL PUSH1 0x44 DUP3 ADD MSTORE PUSH1 0x64 ADD PUSH3 0x367 JUMP JUMPDEST PUSH1 0x1 PUSH1 0x1 PUSH1 0xA0 SHL SUB SWAP3 DUP4 AND PUSH1 0x0 SWAP1 DUP2 MSTORE PUSH1 0x1 PUSH1 0x20 SWAP1 DUP2 MSTORE PUSH1 0x40 DUP1 DUP4 KECCAK256 SWAP5 SWAP1 SWAP6 AND DUP3 MSTORE SWAP3 SWAP1 SWAP3 MSTORE SWAP2 SWAP1 KECCAK256 SSTORE JUMP JUMPDEST PUSH1 0x0 PUSH1 0x20 DUP3 DUP5 SUB SLT ISZERO PUSH3 0x3FD JUMPI PUSH1 0x0 DUP1 REVERT JUMPDEST DUP2 MLOAD PUSH1 0x1 PUSH1 0x1 PUSH1 0xA0 SHL SUB DUP2 AND DUP2 EQ PUSH3 0x415 JUMPI PUSH1 0x0 DUP1 REVERT JUMPDEST SWAP4 SWAP3 POP POP POP JUMP JUMPDEST PUSH2 0x1107 DUP1 PUSH3 0x42C PUSH1 0x0 CODECOPY PUSH1 0x0 RETURN INVALID PUSH1 0x80 PUSH1 0x40 MSTORE PUSH1 0x4 CALLDATASIZE LT PUSH2 0x139 JUMPI PUSH1 0x0 CALLDATALOAD PUSH1 0xE0 SHR DUP1 PUSH4 0x70A08231 GT PUSH2 0xAB JUMPI DUP1 PUSH4 0xA9059CBB GT PUSH2 0x6F JUMPI DUP1 PUSH4 0xA9059CBB EQ PUSH2 0x3A4 JUMPI DUP1 PUSH4 0xC31C9C07 EQ PUSH2 0x3C4 JUMPI DUP1 PUSH4 0xDC9D75B0 EQ PUSH2 0x3E4 JUMPI DUP1 PUSH4 0xDD62ED3E EQ PUSH2 0x3F9 JUMPI DUP1 PUSH4 0xE9451F5F EQ PUSH2 0x43F JUMPI DUP1 PUSH4 0xF2FDE38B EQ PUSH2 0x454 JUMPI PUSH1 0x0 DUP1 REVERT JUMPDEST DUP1 PUSH4 0x70A08231 EQ PUSH2 0x30F JUMPI DUP1 PUSH4 0x715018A6 EQ PUSH2 0x345 JUMPI DUP1 PUSH4 0x893D20E8 EQ PUSH2 0x35A JUMPI DUP1 PUSH4 0x8DA5CB5B EQ PUSH2 0x35A JUMPI DUP1 PUSH4 0x95D89B41 EQ PUSH2 0x378 JUMPI PUSH1 0x0 DUP1 REVERT JUMPDEST DUP1 PUSH4 0x23B872DD GT PUSH2 0xFD JUMPI DUP1 PUSH4 0x23B872DD EQ PUSH2 0x239 JUMPI DUP1 PUSH4 0x27889862 EQ PUSH2 0x259 JUMPI DUP1 PUSH4 0x313CE567 EQ PUSH2 0x292 JUMPI DUP1 PUSH4 0x3EAAF86B EQ PUSH2 0x2AE JUMPI DUP1 PUSH4 0x452ED4F1 EQ PUSH2 0x2CD JUMPI DUP1 PUSH4 0x694E80C3 EQ PUSH2 0x2ED JUMPI PUSH1 0x0 DUP1 REVERT JUMPDEST DUP1 PUSH4 0x3FD2A45 EQ PUSH2 0x145 JUMPI DUP1 PUSH4 0x445B667 EQ PUSH2 0x178 JUMPI DUP1 PUSH4 0x6FDDE03 EQ PUSH2 0x19C JUMPI DUP1 PUSH4 0x95EA7B3 EQ PUSH2 0x1EB JUMPI DUP1 PUSH4 0x18160DDD EQ PUSH2 0x21B JUMPI PUSH1 0x0 DUP1 REVERT JUMPDEST CALLDATASIZE PUSH2 0x140 JUMPI STOP JUMPDEST PUSH1 0x0 DUP1 REVERT JUMPDEST CALLVALUE DUP1 ISZERO PUSH2 0x151 JUMPI PUSH1 0x0 DUP1 REVERT JUMPDEST POP PUSH2 0x15B PUSH2 0xDEAD DUP2 JUMP JUMPDEST PUSH1 0x40 MLOAD PUSH1 0x1 PUSH1 0x1 PUSH1 0xA0 SHL SUB SWAP1 SWAP2 AND DUP2 MSTORE PUSH1 0x20 ADD JUMPDEST PUSH1 0x40 MLOAD DUP1 SWAP2 SUB SWAP1 RETURN JUMPDEST CALLVALUE DUP1 ISZERO PUSH2 0x184 JUMPI PUSH1 0x0 DUP1 REVERT JUMPDEST POP PUSH2 0x18E PUSH1 0x5 SLOAD DUP2 JUMP JUMPDEST PUSH1 0x40 MLOAD SWAP1 DUP2 MSTORE PUSH1 0x20 ADD PUSH2 0x16F JUMP JUMPDEST CALLVALUE DUP1 ISZERO PUSH2 0x1A8 JUMPI PUSH1 0x0 DUP1 REVERT JUMPDEST POP PUSH1 0x40 DUP1 MLOAD DUP1 DUP3 ADD SWAP1 SWAP2 MSTORE PUSH1 0x1A DUP2 MSTORE PUSH32 0x4861727279506F747465724F62616D61536F6C616E614D656D65000000000000 PUSH1 0x20 DUP3 ADD MSTORE JUMPDEST PUSH1 0x40 MLOAD PUSH2 0x16F SWAP2 SWAP1 PUSH2 0xE44 JUMP JUMPDEST CALLVALUE DUP1 ISZERO PUSH2 0x1F7 JUMPI PUSH1 0x0 DUP1 REVERT JUMPDEST POP PUSH2 0x20B PUSH2 0x206 CALLDATASIZE PUSH1 0x4 PUSH2 0xEA7 JUMP JUMPDEST PUSH2 0x474 JUMP JUMPDEST PUSH1 0x40 MLOAD SWAP1 ISZERO ISZERO DUP2 MSTORE PUSH1 0x20 ADD PUSH2 0x16F JUMP JUMPDEST CALLVALUE DUP1 ISZERO PUSH2 0x227 JUMPI PUSH1 0x0 DUP1 REVERT JUMPDEST POP PUSH11 0x84595161401484A000000 PUSH2 0x18E JUMP JUMPDEST CALLVALUE DUP1 ISZERO PUSH2 0x245 JUMPI PUSH1 0x0 DUP1 REVERT JUMPDEST POP PUSH2 0x20B PUSH2 0x254 CALLDATASIZE PUSH1 0x4 PUSH2 0xED3 JUMP JUMPDEST PUSH2 0x48B JUMP JUMPDEST CALLVALUE DUP1 ISZERO PUSH2 0x265 JUMPI PUSH1 0x0 DUP1 REVERT JUMPDEST POP PUSH2 0x20B PUSH2 0x274 CALLDATASIZE PUSH1 0x4 PUSH2 0xF14 JUMP JUMPDEST PUSH1 0x1 PUSH1 0x1 PUSH1 0xA0 SHL SUB AND PUSH1 0x0 SWAP1 DUP2 MSTORE PUSH1 0x2 PUSH1 0x20 MSTORE PUSH1 0x40 SWAP1 KECCAK256 SLOAD PUSH1 0xFF AND SWAP1 JUMP JUMPDEST CALLVALUE DUP1 ISZERO PUSH2 0x29E JUMPI PUSH1 0x0 DUP1 REVERT JUMPDEST POP PUSH1 0x40 MLOAD PUSH1 0x12 DUP2 MSTORE PUSH1 0x20 ADD PUSH2 0x16F JUMP JUMPDEST CALLVALUE DUP1 ISZERO PUSH2 0x2BA JUMPI PUSH1 0x0 DUP1 REVERT JUMPDEST POP PUSH2 0x18E PUSH11 0x84595161401484A000000 DUP2 JUMP JUMPDEST CALLVALUE DUP1 ISZERO PUSH2 0x2D9 JUMPI PUSH1 0x0 DUP1 REVERT JUMPDEST POP PUSH1 0x8 SLOAD PUSH2 0x15B SWAP1 PUSH1 0x1 PUSH1 0x1 PUSH1 0xA0 SHL SUB AND DUP2 JUMP JUMPDEST CALLVALUE DUP1 ISZERO PUSH2 0x2F9 JUMPI PUSH1 0x0 DUP1 REVERT JUMPDEST POP PUSH2 0x30D PUSH2 0x308 CALLDATASIZE PUSH1 0x4 PUSH2 0xF31 JUMP JUMPDEST PUSH2 0x505 JUMP JUMPDEST STOP JUMPDEST CALLVALUE DUP1 ISZERO PUSH2 0x31B JUMPI PUSH1 0x0 DUP1 REVERT JUMPDEST POP PUSH2 0x18E PUSH2 0x32A CALLDATASIZE PUSH1 0x4 PUSH2 0xF14 JUMP JUMPDEST PUSH1 0x1 PUSH1 0x1 PUSH1 0xA0 SHL SUB AND PUSH1 0x0 SWAP1 DUP2 MSTORE PUSH1 0x4 PUSH1 0x20 MSTORE PUSH1 0x40 SWAP1 KECCAK256 SLOAD SWAP1 JUMP JUMPDEST CALLVALUE DUP1 ISZERO PUSH2 0x351 JUMPI PUSH1 0x0 DUP1 REVERT JUMPDEST POP PUSH2 0x30D PUSH2 0x5C4 JUMP JUMPDEST CALLVALUE DUP1 ISZERO PUSH2 0x366 JUMPI PUSH1 0x0 DUP1 REVERT JUMPDEST POP PUSH1 0x0 SLOAD PUSH1 0x1 PUSH1 0x1 PUSH1 0xA0 SHL SUB AND PUSH2 0x15B JUMP JUMPDEST CALLVALUE DUP1 ISZERO PUSH2 0x384 JUMPI PUSH1 0x0 DUP1 REVERT JUMPDEST POP PUSH1 0x40 DUP1 MLOAD DUP1 DUP3 ADD SWAP1 SWAP2 MSTORE PUSH1 0x3 DUP2 MSTORE PUSH3 0x14D3D3 PUSH1 0xEA SHL PUSH1 0x20 DUP3 ADD MSTORE PUSH2 0x1DE JUMP JUMPDEST CALLVALUE DUP1 ISZERO PUSH2 0x3B0 JUMPI PUSH1 0x0 DUP1 REVERT JUMPDEST POP PUSH2 0x20B PUSH2 0x3BF CALLDATASIZE PUSH1 0x4 PUSH2 0xEA7 JUMP JUMPDEST PUSH2 0x5FA JUMP JUMPDEST CALLVALUE DUP1 ISZERO PUSH2 0x3D0 JUMPI PUSH1 0x0 DUP1 REVERT JUMPDEST POP PUSH1 0x7 SLOAD PUSH2 0x15B SWAP1 PUSH1 0x1 PUSH1 0x1 PUSH1 0xA0 SHL SUB AND DUP2 JUMP JUMPDEST CALLVALUE DUP1 ISZERO PUSH2 0x3F0 JUMPI PUSH1 0x0 DUP1 REVERT JUMPDEST POP PUSH2 0x18E PUSH1 0x64 DUP2 JUMP JUMPDEST CALLVALUE DUP1 ISZERO PUSH2 0x405 JUMPI PUSH1 0x0 DUP1 REVERT JUMPDEST POP PUSH2 0x18E PUSH2 0x414 CALLDATASIZE PUSH1 0x4 PUSH2 0xF4A JUMP JUMPDEST PUSH1 0x1 PUSH1 0x1 PUSH1 0xA0 SHL SUB SWAP2 DUP3 AND PUSH1 0x0 SWAP1 DUP2 MSTORE PUSH1 0x1 PUSH1 0x20 SWAP1 DUP2 MSTORE PUSH1 0x40 DUP1 DUP4 KECCAK256 SWAP4 SWAP1 SWAP5 AND DUP3 MSTORE SWAP2 SWAP1 SWAP2 MSTORE KECCAK256 SLOAD SWAP1 JUMP JUMPDEST CALLVALUE DUP1 ISZERO PUSH2 0x44B JUMPI PUSH1 0x0 DUP1 REVERT JUMPDEST POP PUSH2 0x18E PUSH1 0x1 DUP2 JUMP JUMPDEST CALLVALUE DUP1 ISZERO PUSH2 0x460 JUMPI PUSH1 0x0 DUP1 REVERT JUMPDEST POP PUSH2 0x30D PUSH2 0x46F CALLDATASIZE PUSH1 0x4 PUSH2 0xF14 JUMP JUMPDEST PUSH2 0x611 JUMP JUMPDEST PUSH1 0x0 PUSH2 0x481 CALLER DUP5 DUP5 PUSH2 0x6AC JUMP JUMPDEST POP PUSH1 0x1 JUMPDEST SWAP3 SWAP2 POP POP JUMP JUMPDEST PUSH1 0x1 PUSH1 0x1 PUSH1 0xA0 SHL SUB DUP4 AND PUSH1 0x0 SWAP1 DUP2 MSTORE PUSH1 0x1 PUSH1 0x20 SWAP1 DUP2 MSTORE PUSH1 0x40 DUP1 DUP4 KECCAK256 CALLER DUP5 MSTORE SWAP1 SWAP2 MSTORE DUP2 KECCAK256 SLOAD PUSH1 0x0 NOT EQ PUSH2 0x4F0 JUMPI PUSH1 0x1 PUSH1 0x1 PUSH1 0xA0 SHL SUB DUP5 AND PUSH1 0x0 SWAP1 DUP2 MSTORE PUSH1 0x1 PUSH1 0x20 SWAP1 DUP2 MSTORE PUSH1 0x40 DUP1 DUP4 KECCAK256 CALLER DUP5 MSTORE SWAP1 SWAP2 MSTORE DUP2 KECCAK256 DUP1 SLOAD DUP5 SWAP3 SWAP1 PUSH2 0x4EA SWAP1 DUP5 SWAP1 PUSH2 0xF99 JUMP JUMPDEST SWAP1 SWAP2 SSTORE POP POP JUMPDEST PUSH2 0x4FB DUP5 DUP5 DUP5 PUSH2 0x770 JUMP JUMPDEST SWAP1 POP JUMPDEST SWAP4 SWAP3 POP POP POP JUMP JUMPDEST PUSH1 0x0 SLOAD PUSH1 0x1 PUSH1 0x1 PUSH1 0xA0 SHL SUB AND CALLER EQ PUSH2 0x538 JUMPI PUSH1 0x40 MLOAD PUSH3 0x461BCD PUSH1 0xE5 SHL DUP2 MSTORE PUSH1 0x4 ADD PUSH2 0x52F SWAP1 PUSH2 0xFAC JUMP JUMPDEST PUSH1 0x40 MLOAD DUP1 SWAP2 SUB SWAP1 REVERT JUMPDEST PUSH1 0x64 DUP2 LT ISZERO PUSH2 0x589 JUMPI PUSH1 0x40 MLOAD PUSH3 0x461BCD PUSH1 0xE5 SHL DUP2 MSTORE PUSH1 0x20 PUSH1 0x4 DUP3 ADD MSTORE PUSH1 0x1A PUSH1 0x24 DUP3 ADD MSTORE PUSH32 0x416D6F756E74206C6F776572206E6F742061636365707465642E000000000000 PUSH1 0x44 DUP3 ADD MSTORE PUSH1 0x64 ADD PUSH2 0x52F JUMP JUMPDEST PUSH1 0x5 DUP2 SWAP1 SSTORE PUSH1 0x40 MLOAD DUP2 DUP2 MSTORE PUSH32 0x2B7CE9CD4278161EEF9245955C9A851618488A07E830194C60A88F0224AD3CC0 SWAP1 PUSH1 0x20 ADD PUSH1 0x40 MLOAD DUP1 SWAP2 SUB SWAP1 LOG1 POP JUMP JUMPDEST PUSH1 0x0 SLOAD PUSH1 0x1 PUSH1 0x1 PUSH1 0xA0 SHL SUB AND CALLER EQ PUSH2 0x5EE JUMPI PUSH1 0x40 MLOAD PUSH3 0x461BCD PUSH1 0xE5 SHL DUP2 MSTORE PUSH1 0x4 ADD PUSH2 0x52F SWAP1 PUSH2 0xFAC JUMP JUMPDEST PUSH2 0x5F8 PUSH1 0x0 PUSH2 0xA09 JUMP JUMPDEST JUMP JUMPDEST PUSH1 0x0 PUSH2 0x607 CALLER DUP5 DUP5 PUSH2 0x770 JUMP JUMPDEST POP PUSH1 0x1 SWAP4 SWAP3 POP POP POP JUMP JUMPDEST PUSH1 0x0 SLOAD PUSH1 0x1 PUSH1 0x1 PUSH1 0xA0 SHL SUB AND CALLER EQ PUSH2 0x63B JUMPI PUSH1 0x40 MLOAD PUSH3 0x461BCD PUSH1 0xE5 SHL DUP2 MSTORE PUSH1 0x4 ADD PUSH2 0x52F SWAP1 PUSH2 0xFAC JUMP JUMPDEST PUSH1 0x1 PUSH1 0x1 PUSH1 0xA0 SHL SUB DUP2 AND PUSH2 0x6A0 JUMPI PUSH1 0x40 MLOAD PUSH3 0x461BCD PUSH1 0xE5 SHL DUP2 MSTORE PUSH1 0x20 PUSH1 0x4 DUP3 ADD MSTORE PUSH1 0x26 PUSH1 0x24 DUP3 ADD MSTORE PUSH32 0x4F776E61626C653A206E6577206F776E657220697320746865207A65726F2061 PUSH1 0x44 DUP3 ADD MSTORE PUSH6 0x646472657373 PUSH1 0xD0 SHL PUSH1 0x64 DUP3 ADD MSTORE PUSH1 0x84 ADD PUSH2 0x52F JUMP JUMPDEST PUSH2 0x6A9 DUP2 PUSH2 0xA09 JUMP JUMPDEST POP JUMP JUMPDEST PUSH1 0x1 PUSH1 0x1 PUSH1 0xA0 SHL SUB DUP4 AND PUSH2 0x6F8 JUMPI PUSH1 0x40 MLOAD PUSH3 0x461BCD PUSH1 0xE5 SHL DUP2 MSTORE PUSH1 0x20 PUSH1 0x4 DUP3 ADD MSTORE PUSH1 0x13 PUSH1 0x24 DUP3 ADD MSTORE PUSH19 0x45524332303A205A65726F2041646472657373 PUSH1 0x68 SHL PUSH1 0x44 DUP3 ADD MSTORE PUSH1 0x64 ADD PUSH2 0x52F JUMP JUMPDEST PUSH1 0x1 PUSH1 0x1 PUSH1 0xA0 SHL SUB DUP3 AND PUSH2 0x744 JUMPI PUSH1 0x40 MLOAD PUSH3 0x461BCD PUSH1 0xE5 SHL DUP2 MSTORE PUSH1 0x20 PUSH1 0x4 DUP3 ADD MSTORE PUSH1 0x13 PUSH1 0x24 DUP3 ADD MSTORE PUSH19 0x45524332303A205A65726F2041646472657373 PUSH1 0x68 SHL PUSH1 0x44 DUP3 ADD MSTORE PUSH1 0x64 ADD PUSH2 0x52F JUMP JUMPDEST PUSH1 0x1 PUSH1 0x1 PUSH1 0xA0 SHL SUB SWAP3 DUP4 AND PUSH1 0x0 SWAP1 DUP2 MSTORE PUSH1 0x1 PUSH1 0x20 SWAP1 DUP2 MSTORE PUSH1 0x40 DUP1 DUP4 KECCAK256 SWAP5 SWAP1 SWAP6 AND DUP3 MSTORE SWAP3 SWAP1 SWAP3 MSTORE SWAP2 SWAP1 KECCAK256 SSTORE JUMP JUMPDEST PUSH1 0x0 PUSH1 0x1 PUSH1 0x1 PUSH1 0x1 PUSH1 0xA0 SHL SUB DUP5 AND PUSH2 0x7D6 JUMPI PUSH1 0x40 MLOAD PUSH3 0x461BCD PUSH1 0xE5 SHL DUP2 MSTORE PUSH1 0x20 PUSH1 0x4 DUP3 ADD MSTORE PUSH1 0x23 PUSH1 0x24 DUP3 ADD MSTORE PUSH32 0x45524332303A207472616E7366657220746F20746865207A65726F2061646472 PUSH1 0x44 DUP3 ADD MSTORE PUSH3 0x657373 PUSH1 0xE8 SHL PUSH1 0x64 DUP3 ADD MSTORE PUSH1 0x84 ADD PUSH2 0x52F JUMP JUMPDEST PUSH1 0x1 PUSH1 0x1 PUSH1 0xA0 SHL SUB DUP6 AND PUSH2 0x83A JUMPI PUSH1 0x40 MLOAD PUSH3 0x461BCD PUSH1 0xE5 SHL DUP2 MSTORE PUSH1 0x20 PUSH1 0x4 DUP3 ADD MSTORE PUSH1 0x25 PUSH1 0x24 DUP3 ADD MSTORE PUSH32 0x45524332303A207472616E736665722066726F6D20746865207A65726F206164 PUSH1 0x44 DUP3 ADD MSTORE PUSH5 0x6472657373 PUSH1 0xD8 SHL PUSH1 0x64 DUP3 ADD MSTORE PUSH1 0x84 ADD PUSH2 0x52F JUMP JUMPDEST PUSH1 0x0 DUP4 GT PUSH2 0x89C JUMPI PUSH1 0x40 MLOAD PUSH3 0x461BCD PUSH1 0xE5 SHL DUP2 MSTORE PUSH1 0x20 PUSH1 0x4 DUP3 ADD MSTORE PUSH1 0x29 PUSH1 0x24 DUP3 ADD MSTORE PUSH32 0x5472616E7366657220616D6F756E74206D757374206265206772656174657220 PUSH1 0x44 DUP3 ADD MSTORE PUSH9 0x7468616E207A65726F PUSH1 0xB8 SHL PUSH1 0x64 DUP3 ADD MSTORE PUSH1 0x84 ADD PUSH2 0x52F JUMP JUMPDEST PUSH2 0x8A6 DUP6 DUP6 PUSH2 0xA59 JUMP JUMPDEST DUP1 ISZERO PUSH2 0x8BC JUMPI POP PUSH1 0x8 SLOAD PUSH1 0x1 PUSH1 0xA0 SHL SWAP1 DIV PUSH1 0xFF AND ISZERO JUMPDEST ISZERO PUSH2 0x8E5 JUMPI ADDRESS PUSH1 0x0 SWAP1 DUP2 MSTORE PUSH1 0x4 PUSH1 0x20 MSTORE PUSH1 0x40 SWAP1 KECCAK256 SLOAD PUSH1 0x5 SLOAD DUP2 LT PUSH2 0x8E3 JUMPI PUSH2 0x8E3 DUP2 PUSH2 0xAA4 JUMP JUMPDEST POP JUMPDEST PUSH1 0x1 PUSH1 0x1 PUSH1 0xA0 SHL SUB DUP6 AND PUSH1 0x0 SWAP1 DUP2 MSTORE PUSH1 0x2 PUSH1 0x20 MSTORE PUSH1 0x40 SWAP1 KECCAK256 SLOAD PUSH1 0xFF AND DUP1 PUSH2 0x924 JUMPI POP PUSH1 0x1 PUSH1 0x1 PUSH1 0xA0 SHL SUB DUP5 AND PUSH1 0x0 SWAP1 DUP2 MSTORE PUSH1 0x2 PUSH1 0x20 MSTORE PUSH1 0x40 SWAP1 KECCAK256 SLOAD PUSH1 0xFF AND JUMPDEST ISZERO PUSH2 0x92D JUMPI POP PUSH1 0x0 JUMPDEST PUSH1 0x1 PUSH1 0x1 PUSH1 0xA0 SHL SUB DUP6 AND PUSH1 0x0 SWAP1 DUP2 MSTORE PUSH1 0x4 PUSH1 0x20 MSTORE PUSH1 0x40 DUP2 KECCAK256 DUP1 SLOAD DUP6 SWAP3 SWAP1 PUSH2 0x955 SWAP1 DUP5 SWAP1 PUSH2 0xF99 JUMP JUMPDEST SWAP1 SWAP2 SSTORE POP PUSH1 0x0 SWAP1 POP DUP2 PUSH2 0x968 JUMPI DUP4 PUSH2 0x97C JUMP JUMPDEST PUSH2 0x97C DUP7 PUSH2 0x976 DUP9 DUP9 PUSH2 0xA59 JUMP JUMPDEST DUP7 PUSH2 0xCC7 JUMP JUMPDEST PUSH1 0x1 PUSH1 0x1 PUSH1 0xA0 SHL SUB DUP7 AND PUSH1 0x0 SWAP1 DUP2 MSTORE PUSH1 0x4 PUSH1 0x20 MSTORE PUSH1 0x40 DUP2 KECCAK256 DUP1 SLOAD SWAP3 SWAP4 POP DUP4 SWAP3 SWAP1 SWAP2 SWAP1 PUSH2 0x9A9 SWAP1 DUP5 SWAP1 PUSH2 0xFE1 JUMP JUMPDEST SWAP3 POP POP DUP2 SWAP1 SSTORE POP DUP5 PUSH1 0x1 PUSH1 0x1 PUSH1 0xA0 SHL SUB AND DUP7 PUSH1 0x1 PUSH1 0x1 PUSH1 0xA0 SHL SUB AND PUSH32 0xDDF252AD1BE2C89B69C2B068FC378DAA952BA7F163C4A11628F55A4DF523B3EF DUP4 PUSH1 0x40 MLOAD PUSH2 0x9F5 SWAP2 DUP2 MSTORE PUSH1 0x20 ADD SWAP1 JUMP JUMPDEST PUSH1 0x40 MLOAD DUP1 SWAP2 SUB SWAP1 LOG3 POP PUSH1 0x1 SWAP6 SWAP5 POP POP POP POP POP JUMP JUMPDEST PUSH1 0x0 DUP1 SLOAD PUSH1 0x1 PUSH1 0x1 PUSH1 0xA0 SHL SUB DUP4 DUP2 AND PUSH1 0x1 PUSH1 0x1 PUSH1 0xA0 SHL SUB NOT DUP4 AND DUP2 OR DUP5 SSTORE PUSH1 0x40 MLOAD SWAP2 SWAP1 SWAP3 AND SWAP3 DUP4 SWAP2 PUSH32 0x8BE0079C531659141344CD1FD0A4F28419497F9722A3DAAFE3B4186F6B6457E0 SWAP2 SWAP1 LOG3 POP POP JUMP JUMPDEST PUSH1 0x1 PUSH1 0x1 PUSH1 0xA0 SHL SUB DUP2 AND PUSH1 0x0 SWAP1 DUP2 MSTORE PUSH1 0x3 PUSH1 0x20 MSTORE PUSH1 0x40 DUP2 KECCAK256 SLOAD DUP2 SWAP1 PUSH1 0xFF AND DUP1 ISZERO PUSH2 0xA9C JUMPI POP PUSH1 0x1 PUSH1 0x1 PUSH1 0xA0 SHL SUB DUP5 AND PUSH1 0x0 SWAP1 DUP2 MSTORE PUSH1 0x3 PUSH1 0x20 MSTORE PUSH1 0x40 SWAP1 KECCAK256 SLOAD PUSH1 0xFF AND ISZERO JUMPDEST SWAP5 SWAP4 POP POP POP POP JUMP JUMPDEST PUSH1 0x8 DUP1 SLOAD PUSH1 0xFF PUSH1 0xA0 SHL NOT AND PUSH1 0x1 PUSH1 0xA0 SHL OR SWAP1 SSTORE PUSH1 0x40 DUP1 MLOAD PUSH1 0x2 DUP1 DUP3 MSTORE PUSH1 0x60 DUP3 ADD DUP4 MSTORE PUSH1 0x0 SWAP3 PUSH1 0x20 DUP4 ADD SWAP1 DUP1 CALLDATASIZE DUP4 CALLDATACOPY ADD SWAP1 POP POP SWAP1 POP ADDRESS DUP2 PUSH1 0x0 DUP2 MLOAD DUP2 LT PUSH2 0xAEC JUMPI PUSH2 0xAEC PUSH2 0xFF4 JUMP JUMPDEST PUSH1 0x1 PUSH1 0x1 PUSH1 0xA0 SHL SUB SWAP3 DUP4 AND PUSH1 0x20 SWAP2 DUP3 MUL SWAP3 SWAP1 SWAP3 ADD DUP2 ADD SWAP2 SWAP1 SWAP2 MSTORE PUSH1 0x7 SLOAD PUSH1 0x40 DUP1 MLOAD PUSH4 0x15AB88C9 PUSH1 0xE3 SHL DUP2 MSTORE SWAP1 MLOAD SWAP2 SWAP1 SWAP4 AND SWAP3 PUSH4 0xAD5C4648 SWAP3 PUSH1 0x4 DUP1 DUP4 ADD SWAP4 SWAP2 SWAP3 DUP3 SWAP1 SUB ADD DUP2 DUP7 GAS STATICCALL ISZERO DUP1 ISZERO PUSH2 0xB45 JUMPI RETURNDATASIZE PUSH1 0x0 DUP1 RETURNDATACOPY RETURNDATASIZE PUSH1 0x0 REVERT JUMPDEST POP POP POP POP PUSH1 0x40 MLOAD RETURNDATASIZE PUSH1 0x1F NOT PUSH1 0x1F DUP3 ADD AND DUP3 ADD DUP1 PUSH1 0x40 MSTORE POP DUP2 ADD SWAP1 PUSH2 0xB69 SWAP2 SWAP1 PUSH2 0x100A JUMP JUMPDEST DUP2 PUSH1 0x1 DUP2 MLOAD DUP2 LT PUSH2 0xB7C JUMPI PUSH2 0xB7C PUSH2 0xFF4 JUMP JUMPDEST PUSH1 0x1 PUSH1 0x1 PUSH1 0xA0 SHL SUB SWAP3 DUP4 AND PUSH1 0x20 SWAP2 DUP3 MUL SWAP3 SWAP1 SWAP3 ADD DUP2 ADD SWAP2 SWAP1 SWAP2 MSTORE ADDRESS PUSH1 0x0 SWAP1 DUP2 MSTORE PUSH1 0x1 DUP3 MSTORE PUSH1 0x40 DUP1 DUP3 KECCAK256 PUSH1 0x7 SLOAD SWAP1 SWAP5 AND DUP3 MSTORE SWAP3 SWAP1 SWAP2 MSTORE KECCAK256 SLOAD PUSH1 0x0 NOT EQ PUSH2 0xBE6 JUMPI ADDRESS PUSH1 0x0 SWAP1 DUP2 MSTORE PUSH1 0x1 PUSH1 0x20 SWAP1 DUP2 MSTORE PUSH1 0x40 DUP1 DUP4 KECCAK256 PUSH1 0x7 SLOAD PUSH1 0x1 PUSH1 0x1 PUSH1 0xA0 SHL SUB AND DUP5 MSTORE SWAP1 SWAP2 MSTORE SWAP1 KECCAK256 PUSH1 0x0 NOT SWAP1 SSTORE JUMPDEST PUSH1 0x7 SLOAD PUSH1 0x40 MLOAD PUSH4 0x791AC947 PUSH1 0xE0 SHL DUP2 MSTORE PUSH1 0x1 PUSH1 0x1 PUSH1 0xA0 SHL SUB SWAP1 SWAP2 AND SWAP1 PUSH4 0x791AC947 SWAP1 PUSH2 0xC1F SWAP1 DUP6 SWAP1 PUSH1 0x0 SWAP1 DUP7 SWAP1 ADDRESS SWAP1 TIMESTAMP SWAP1 PUSH1 0x4 ADD PUSH2 0x1027 JUMP JUMPDEST PUSH1 0x0 PUSH1 0x40 MLOAD DUP1 DUP4 SUB DUP2 PUSH1 0x0 DUP8 DUP1 EXTCODESIZE ISZERO DUP1 ISZERO PUSH2 0xC39 JUMPI PUSH1 0x0 DUP1 REVERT JUMPDEST POP GAS CALL SWAP3 POP POP POP DUP1 ISZERO PUSH2 0xC4A JUMPI POP PUSH1 0x1 JUMPDEST PUSH2 0xC54 JUMPI POP PUSH2 0xCB7 JUMP JUMPDEST PUSH1 0x0 SELFBALANCE ISZERO PUSH2 0xCB4 JUMPI PUSH1 0x6 SLOAD PUSH1 0x40 MLOAD PUSH1 0x1 PUSH1 0x1 PUSH1 0xA0 SHL SUB SWAP1 SWAP2 AND SWAP1 SELFBALANCE SWAP1 PUSH1 0x0 DUP2 DUP2 DUP2 DUP6 DUP8 GAS CALL SWAP3 POP POP POP RETURNDATASIZE DUP1 PUSH1 0x0 DUP2 EQ PUSH2 0xCA9 JUMPI PUSH1 0x40 MLOAD SWAP2 POP PUSH1 0x1F NOT PUSH1 0x3F RETURNDATASIZE ADD AND DUP3 ADD PUSH1 0x40 MSTORE RETURNDATASIZE DUP3 MSTORE RETURNDATASIZE PUSH1 0x0 PUSH1 0x20 DUP5 ADD RETURNDATACOPY PUSH2 0xCAE JUMP JUMPDEST PUSH1 0x60 SWAP2 POP JUMPDEST POP SWAP1 SWAP2 POP POP JUMPDEST POP POP JUMPDEST POP PUSH1 0x8 DUP1 SLOAD PUSH1 0xFF PUSH1 0xA0 SHL NOT AND SWAP1 SSTORE JUMP JUMPDEST PUSH1 0x0 DUP1 DUP4 ISZERO PUSH2 0xCD4 JUMPI POP PUSH1 0x1 JUMPDEST DUP1 PUSH1 0x0 SUB PUSH2 0xCE5 JUMPI DUP3 SWAP2 POP POP PUSH2 0x4FE JUMP JUMPDEST PUSH1 0x0 PUSH1 0x64 PUSH2 0xCF3 DUP4 DUP7 PUSH2 0x1098 JUMP JUMPDEST PUSH2 0xCFD SWAP2 SWAP1 PUSH2 0x10AF JUMP JUMPDEST SWAP1 POP DUP1 ISZERO PUSH2 0xE30 JUMPI PUSH1 0x0 PUSH1 0x64 PUSH2 0xD14 PUSH1 0x1 DUP8 PUSH2 0x1098 JUMP JUMPDEST PUSH2 0xD1E SWAP2 SWAP1 PUSH2 0x10AF JUMP JUMPDEST ADDRESS PUSH1 0x0 SWAP1 DUP2 MSTORE PUSH1 0x4 PUSH1 0x20 MSTORE PUSH1 0x40 DUP2 KECCAK256 DUP1 SLOAD SWAP3 SWAP4 POP DUP5 SWAP3 SWAP1 SWAP2 SWAP1 PUSH2 0xD42 SWAP1 DUP5 SWAP1 PUSH2 0xFE1 JUMP JUMPDEST SWAP1 SWAP2 SSTORE POP POP PUSH1 0x40 MLOAD DUP3 DUP2 MSTORE ADDRESS SWAP1 PUSH1 0x1 PUSH1 0x1 PUSH1 0xA0 SHL SUB DUP10 AND SWAP1 PUSH32 0xDDF252AD1BE2C89B69C2B068FC378DAA952BA7F163C4A11628F55A4DF523B3EF SWAP1 PUSH1 0x20 ADD PUSH1 0x40 MLOAD DUP1 SWAP2 SUB SWAP1 LOG3 DUP1 ISZERO PUSH2 0xE2E JUMPI ADDRESS PUSH1 0x0 SWAP1 DUP2 MSTORE PUSH1 0x4 PUSH1 0x20 MSTORE PUSH1 0x40 DUP2 KECCAK256 DUP1 SLOAD DUP4 SWAP3 SWAP1 PUSH2 0xDAC SWAP1 DUP5 SWAP1 PUSH2 0xF99 JUMP JUMPDEST SWAP1 SWAP2 SSTORE POP POP PUSH2 0xDEAD PUSH1 0x0 SWAP1 DUP2 MSTORE PUSH1 0x4 PUSH1 0x20 MSTORE PUSH32 0x42C63635470F1FB1D6D4B6441C413CB435B1EBB6FEDD1896DD5E25D1399147DD DUP1 SLOAD DUP4 SWAP3 SWAP1 PUSH2 0xDEF SWAP1 DUP5 SWAP1 PUSH2 0xFE1 JUMP JUMPDEST SWAP1 SWAP2 SSTORE POP POP PUSH1 0x40 MLOAD DUP2 DUP2 MSTORE PUSH2 0xDEAD SWAP1 ADDRESS SWAP1 PUSH32 0xDDF252AD1BE2C89B69C2B068FC378DAA952BA7F163C4A11628F55A4DF523B3EF SWAP1 PUSH1 0x20 ADD PUSH1 0x40 MLOAD DUP1 SWAP2 SUB SWAP1 LOG3 JUMPDEST POP JUMPDEST PUSH2 0xE3A DUP2 DUP6 PUSH2 0xF99 JUMP JUMPDEST SWAP7 SWAP6 POP POP POP POP POP POP JUMP JUMPDEST PUSH1 0x0 PUSH1 0x20 DUP1 DUP4 MSTORE DUP4 MLOAD DUP1 DUP3 DUP6 ADD MSTORE PUSH1 0x0 JUMPDEST DUP2 DUP2 LT ISZERO PUSH2 0xE71 JUMPI DUP6 DUP2 ADD DUP4 ADD MLOAD DUP6 DUP3 ADD PUSH1 0x40 ADD MSTORE DUP3 ADD PUSH2 0xE55 JUMP JUMPDEST POP PUSH1 0x0 PUSH1 0x40 DUP3 DUP7 ADD ADD MSTORE PUSH1 0x40 PUSH1 0x1F NOT PUSH1 0x1F DUP4 ADD AND DUP6 ADD ADD SWAP3 POP POP POP SWAP3 SWAP2 POP POP JUMP JUMPDEST PUSH1 0x1 PUSH1 0x1 PUSH1 0xA0 SHL SUB DUP2 AND DUP2 EQ PUSH2 0x6A9 JUMPI PUSH1 0x0 DUP1 REVERT JUMPDEST PUSH1 0x0 DUP1 PUSH1 0x40 DUP4 DUP6 SUB SLT ISZERO PUSH2 0xEBA JUMPI PUSH1 0x0 DUP1 REVERT JUMPDEST DUP3 CALLDATALOAD PUSH2 0xEC5 DUP2 PUSH2 0xE92 JUMP JUMPDEST SWAP5 PUSH1 0x20 SWAP4 SWAP1 SWAP4 ADD CALLDATALOAD SWAP4 POP POP POP JUMP JUMPDEST PUSH1 0x0 DUP1 PUSH1 0x0 PUSH1 0x60 DUP5 DUP7 SUB SLT ISZERO PUSH2 0xEE8 JUMPI PUSH1 0x0 DUP1 REVERT JUMPDEST DUP4 CALLDATALOAD PUSH2 0xEF3 DUP2 PUSH2 0xE92 JUMP JUMPDEST SWAP3 POP PUSH1 0x20 DUP5 ADD CALLDATALOAD PUSH2 0xF03 DUP2 PUSH2 0xE92 JUMP JUMPDEST SWAP3 SWAP6 SWAP3 SWAP5 POP POP POP PUSH1 0x40 SWAP2 SWAP1 SWAP2 ADD CALLDATALOAD SWAP1 JUMP JUMPDEST PUSH1 0x0 PUSH1 0x20 DUP3 DUP5 SUB SLT ISZERO PUSH2 0xF26 JUMPI PUSH1 0x0 DUP1 REVERT JUMPDEST DUP2 CALLDATALOAD PUSH2 0x4FE DUP2 PUSH2 0xE92 JUMP JUMPDEST PUSH1 0x0 PUSH1 0x20 DUP3 DUP5 SUB SLT ISZERO PUSH2 0xF43 JUMPI PUSH1 0x0 DUP1 REVERT JUMPDEST POP CALLDATALOAD SWAP2 SWAP1 POP JUMP JUMPDEST PUSH1 0x0 DUP1 PUSH1 0x40 DUP4 DUP6 SUB SLT ISZERO PUSH2 0xF5D JUMPI PUSH1 0x0 DUP1 REVERT JUMPDEST DUP3 CALLDATALOAD PUSH2 0xF68 DUP2 PUSH2 0xE92 JUMP JUMPDEST SWAP2 POP PUSH1 0x20 DUP4 ADD CALLDATALOAD PUSH2 0xF78 DUP2 PUSH2 0xE92 JUMP JUMPDEST DUP1 SWAP2 POP POP SWAP3 POP SWAP3 SWAP1 POP JUMP JUMPDEST PUSH4 0x4E487B71 PUSH1 0xE0 SHL PUSH1 0x0 MSTORE PUSH1 0x11 PUSH1 0x4 MSTORE PUSH1 0x24 PUSH1 0x0 REVERT JUMPDEST DUP2 DUP2 SUB DUP2 DUP2 GT ISZERO PUSH2 0x485 JUMPI PUSH2 0x485 PUSH2 0xF83 JUMP JUMPDEST PUSH1 0x20 DUP1 DUP3 MSTORE DUP2 DUP2 ADD MSTORE PUSH32 0x4F776E61626C653A2063616C6C6572206973206E6F7420746865206F776E6572 PUSH1 0x40 DUP3 ADD MSTORE PUSH1 0x60 ADD SWAP1 JUMP JUMPDEST DUP1 DUP3 ADD DUP1 DUP3 GT ISZERO PUSH2 0x485 JUMPI PUSH2 0x485 PUSH2 0xF83 JUMP JUMPDEST PUSH4 0x4E487B71 PUSH1 0xE0 SHL PUSH1 0x0 MSTORE PUSH1 0x32 PUSH1 0x4 MSTORE PUSH1 0x24 PUSH1 0x0 REVERT JUMPDEST PUSH1 0x0 PUSH1 0x20 DUP3 DUP5 SUB SLT ISZERO PUSH2 0x101C JUMPI PUSH1 0x0 DUP1 REVERT JUMPDEST DUP2 MLOAD PUSH2 0x4FE DUP2 PUSH2 0xE92 JUMP JUMPDEST PUSH1 0x0 PUSH1 0xA0 DUP3 ADD DUP8 DUP4 MSTORE PUSH1 0x20 DUP8 DUP2 DUP6 ADD MSTORE PUSH1 0xA0 PUSH1 0x40 DUP6 ADD MSTORE DUP2 DUP8 MLOAD DUP1 DUP5 MSTORE PUSH1 0xC0 DUP7 ADD SWAP2 POP DUP3 DUP10 ADD SWAP4 POP PUSH1 0x0 JUMPDEST DUP2 DUP2 LT ISZERO PUSH2 0x1077 JUMPI DUP5 MLOAD PUSH1 0x1 PUSH1 0x1 PUSH1 0xA0 SHL SUB AND DUP4 MSTORE SWAP4 DUP4 ADD SWAP4 SWAP2 DUP4 ADD SWAP2 PUSH1 0x1 ADD PUSH2 0x1052 JUMP JUMPDEST POP POP PUSH1 0x1 PUSH1 0x1 PUSH1 0xA0 SHL SUB SWAP7 SWAP1 SWAP7 AND PUSH1 0x60 DUP6 ADD MSTORE POP POP POP PUSH1 0x80 ADD MSTORE SWAP4 SWAP3 POP POP POP JUMP JUMPDEST DUP1 DUP3 MUL DUP2 ISZERO DUP3 DUP3 DIV DUP5 EQ OR PUSH2 0x485 JUMPI PUSH2 0x485 PUSH2 0xF83 JUMP JUMPDEST PUSH1 0x0 DUP3 PUSH2 0x10CC JUMPI PUSH4 0x4E487B71 PUSH1 0xE0 SHL PUSH1 0x0 MSTORE PUSH1 0x12 PUSH1 0x4 MSTORE PUSH1 0x24 PUSH1 0x0 REVERT JUMPDEST POP DIV SWAP1 JUMP INVALID LOG2 PUSH5 0x6970667358 0x22 SLT KECCAK256 INVALID SDIV CREATE2 PUSH18 0x7599902B82DB87F1728223306C659B3534FF PREVRANDAO CODECOPY 0xA6 ADDRESS 0xE8 PUSH23 0xA32C22EE64736F6C634300081300330000000000000000 "
		},
		"gasEstimates": {
			"creation": {
				"codeDepositCost": "871800",
				"executionCost": "infinite",
				"totalCost": "infinite"
			},
			"external": {
				"DEAD()": "229",
				"_totalSupply()": "284",
				"allowance(address,address)": "infinite",
				"approve(address,uint256)": "22871",
				"balanceOf(address)": "2554",
				"changeThreshold(uint256)": "25688",
				"decimals()": "244",
				"fee_denominator()": "261",
				"getOwner()": "2387",
				"isNoFeeWallet(address)": "2588",
				"lpPair()": "2437",
				"name()": "infinite",
				"owner()": "2409",
				"renounceOwnership()": "28159",
				"sellfee()": "305",
				"swapRouter()": "2370",
				"swapThreshold()": "2341",
				"symbol()": "infinite",
				"totalSupply()": "304",
				"transfer(address,uint256)": "infinite",
				"transferFrom(address,address,uint256)": "infinite",
				"transferOwnership(address)": "infinite"
			},
			"internal": {
				"_approve(address,address,uint256)": "infinite",
				"_transfer(address,address,uint256)": "infinite",
				"internalSwap(uint256)": "infinite",
				"is_sell(address,address)": "4452",
				"takeTaxes(address,bool,uint256)": "infinite"
			}
		},
		"methodIdentifiers": {
			"DEAD()": "03fd2a45",
			"_totalSupply()": "3eaaf86b",
			"allowance(address,address)": "dd62ed3e",
			"approve(address,uint256)": "095ea7b3",
			"balanceOf(address)": "70a08231",
			"changeThreshold(uint256)": "694e80c3",
			"decimals()": "313ce567",
			"fee_denominator()": "dc9d75b0",
			"getOwner()": "893d20e8",
			"isNoFeeWallet(address)": "27889862",
			"lpPair()": "452ed4f1",
			"name()": "06fdde03",
			"owner()": "8da5cb5b",
			"renounceOwnership()": "715018a6",
			"sellfee()": "e9451f5f",
			"swapRouter()": "c31c9c07",
			"swapThreshold()": "0445b667",
			"symbol()": "95d89b41",
			"totalSupply()": "18160ddd",
			"transfer(address,uint256)": "a9059cbb",
			"transferFrom(address,address,uint256)": "23b872dd",
			"transferOwnership(address)": "f2fde38b"
		}
	},
	"abi": [
		{
			"inputs": [],
			"stateMutability": "nonpayable",
			"type": "constructor"
		},
		{
			"anonymous": false,
			"inputs": [
				{
					"indexed": true,
					"internalType": "address",
					"name": "owner",
					"type": "address"
				},
				{
					"indexed": true,
					"internalType": "address",
					"name": "spender",
					"type": "address"
				},
				{
					"indexed": false,
					"internalType": "uint256",
					"name": "value",
					"type": "uint256"
				}
			],
			"name": "Approval",
			"type": "event"
		},
		{
			"anonymous": false,
			"inputs": [
				{
					"indexed": true,
					"internalType": "address",
					"name": "previousOwner",
					"type": "address"
				},
				{
					"indexed": true,
					"internalType": "address",
					"name": "newOwner",
					"type": "address"
				}
			],
			"name": "OwnershipTransferred",
			"type": "event"
		},
		{
			"anonymous": false,
			"inputs": [
				{
					"indexed": true,
					"internalType": "address",
					"name": "from",
					"type": "address"
				},
				{
					"indexed": true,
					"internalType": "address",
					"name": "to",
					"type": "address"
				},
				{
					"indexed": false,
					"internalType": "uint256",
					"name": "value",
					"type": "uint256"
				}
			],
			"name": "Transfer",
			"type": "event"
		},
		{
			"anonymous": false,
			"inputs": [
				{
					"indexed": false,
					"internalType": "uint256",
					"name": "amount",
					"type": "uint256"
				}
			],
			"name": "updateThresold",
			"type": "event"
		},
		{
			"inputs": [],
			"name": "DEAD",
			"outputs": [
				{
					"internalType": "address",
					"name": "",
					"type": "address"
				}
			],
			"stateMutability": "view",
			"type": "function"
		},
		{
			"inputs": [],
			"name": "_totalSupply",
			"outputs": [
				{
					"internalType": "uint256",
					"name": "",
					"type": "uint256"
				}
			],
			"stateMutability": "view",
			"type": "function"
		},
		{
			"inputs": [
				{
					"internalType": "address",
					"name": "holder",
					"type": "address"
				},
				{
					"internalType": "address",
					"name": "spender",
					"type": "address"
				}
			],
			"name": "allowance",
			"outputs": [
				{
					"internalType": "uint256",
					"name": "",
					"type": "uint256"
				}
			],
			"stateMutability": "view",
			"type": "function"
		},
		{
			"inputs": [
				{
					"internalType": "address",
					"name": "spender",
					"type": "address"
				},
				{
					"internalType": "uint256",
					"name": "amount",
					"type": "uint256"
				}
			],
			"name": "approve",
			"outputs": [
				{
					"internalType": "bool",
					"name": "",
					"type": "bool"
				}
			],
			"stateMutability": "nonpayable",
			"type": "function"
		},
		{
			"inputs": [
				{
					"internalType": "address",
					"name": "account",
					"type": "address"
				}
			],
			"name": "balanceOf",
			"outputs": [
				{
					"internalType": "uint256",
					"name": "",
					"type": "uint256"
				}
			],
			"stateMutability": "view",
			"type": "function"
		},
		{
			"inputs": [
				{
					"internalType": "uint256",
					"name": "amount",
					"type": "uint256"
				}
			],
			"name": "changeThreshold",
			"outputs": [],
			"stateMutability": "nonpayable",
			"type": "function"
		},
		{
			"inputs": [],
			"name": "decimals",
			"outputs": [
				{
					"internalType": "uint8",
					"name": "",
					"type": "uint8"
				}
			],
			"stateMutability": "pure",
			"type": "function"
		},
		{
			"inputs": [],
			"name": "fee_denominator",
			"outputs": [
				{
					"internalType": "uint256",
					"name": "",
					"type": "uint256"
				}
			],
			"stateMutability": "view",
			"type": "function"
		},
		{
			"inputs": [],
			"name": "getOwner",
			"outputs": [
				{
					"internalType": "address",
					"name": "",
					"type": "address"
				}
			],
			"stateMutability": "view",
			"type": "function"
		},
		{
			"inputs": [
				{
					"internalType": "address",
					"name": "account",
					"type": "address"
				}
			],
			"name": "isNoFeeWallet",
			"outputs": [
				{
					"internalType": "bool",
					"name": "",
					"type": "bool"
				}
			],
			"stateMutability": "view",
			"type": "function"
		},
		{
			"inputs": [],
			"name": "lpPair",
			"outputs": [
				{
					"internalType": "address",
					"name": "",
					"type": "address"
				}
			],
			"stateMutability": "view",
			"type": "function"
		},
		{
			"inputs": [],
			"name": "name",
			"outputs": [
				{
					"internalType": "string",
					"name": "",
					"type": "string"
				}
			],
			"stateMutability": "pure",
			"type": "function"
		},
		{
			"inputs": [],
			"name": "owner",
			"outputs": [
				{
					"internalType": "address",
					"name": "",
					"type": "address"
				}
			],
			"stateMutability": "view",
			"type": "function"
		},
		{
			"inputs": [],
			"name": "renounceOwnership",
			"outputs": [],
			"stateMutability": "nonpayable",
			"type": "function"
		},
		{
			"inputs": [],
			"name": "sellfee",
			"outputs": [
				{
					"internalType": "uint256",
					"name": "",
					"type": "uint256"
				}
			],
			"stateMutability": "view",
			"type": "function"
		},
		{
			"inputs": [],
			"name": "swapRouter",
			"outputs": [
				{
					"internalType": "contract IRouter02",
					"name": "",
					"type": "address"
				}
			],
			"stateMutability": "view",
			"type": "function"
		},
		{
			"inputs": [],
			"name": "swapThreshold",
			"outputs": [
				{
					"internalType": "uint256",
					"name": "",
					"type": "uint256"
				}
			],
			"stateMutability": "view",
			"type": "function"
		},
		{
			"inputs": [],
			"name": "symbol",
			"outputs": [
				{
					"internalType": "string",
					"name": "",
					"type": "string"
				}
			],
			"stateMutability": "pure",
			"type": "function"
		},
		{
			"inputs": [],
			"name": "totalSupply",
			"outputs": [
				{
					"internalType": "uint256",
					"name": "",
					"type": "uint256"
				}
			],
			"stateMutability": "pure",
			"type": "function"
		},
		{
			"inputs": [
				{
					"internalType": "address",
					"name": "recipient",
					"type": "address"
				},
				{
					"internalType": "uint256",
					"name": "amount",
					"type": "uint256"
				}
			],
			"name": "transfer",
			"outputs": [
				{
					"internalType": "bool",
					"name": "",
					"type": "bool"
				}
			],
			"stateMutability": "nonpayable",
			"type": "function"
		},
		{
			"inputs": [
				{
					"internalType": "address",
					"name": "sender",
					"type": "address"
				},
				{
					"internalType": "address",
					"name": "recipient",
					"type": "address"
				},
				{
					"internalType": "uint256",
					"name": "amount",
					"type": "uint256"
				}
			],
			"name": "transferFrom",
			"outputs": [
				{
					"internalType": "bool",
					"name": "",
					"type": "bool"
				}
			],
			"stateMutability": "nonpayable",
			"type": "function"
		},
		{
			"inputs": [
				{
					"internalType": "address",
					"name": "newOwner",
					"type": "address"
				}
			],
			"name": "transferOwnership",
			"outputs": [],
			"stateMutability": "nonpayable",
			"type": "function"
		},
		{
			"stateMutability": "payable",
			"type": "receive"
		}
	]
}