{
	"data": {
		"bytecode": {
			"linkReferences": {},
			"object": "608060405260048054600160a01b600160e01b03191661010360a01b17905560026005819055600655620000366012600a62000394565b6200004690633b9aca00620003ab565b600755620000576012600a62000394565b6200006790633b9aca00620003ab565b6008556103e86200007b6012600a62000394565b6200008b90633b9aca00620003ab565b62000098906001620003ab565b620000a49190620003c5565b6009556064620000b76012600a62000394565b620000c790633b9aca00620003ab565b620000d4906001620003ab565b620000e09190620003c5565b600a55600c805461ffff60a81b19169055348015620000fd575f80fd5b505f80546001600160a01b031916339081178255604051909182917f8be0079c531659141344cd1fd0a4f28419497f9722a3daafe3b4186f6b6457e0908290a350600480546001600160a01b031916331790556200015e6012600a62000394565b6200016e90633b9aca00620003ab565b335f908152600160208190526040822092909255600390620001975f546001600160a01b031690565b6001600160a01b03908116825260208083019390935260409182015f908120805495151560ff1996871617905530815260039093528183208054851660019081179091556004549091168352908220805484168217905561dead9091527f262bb27bbdd95c1cdc8e16957e36e38579ea44f7f6413dd7a9c75939def06b2c8054909216179055620002253390565b6001600160a01b03165f7fddf252ad1be2c89b69c2b068fc378daa952ba7f163c4a11628f55a4df523b3ef6200025e6012600a62000394565b6200026e90633b9aca00620003ab565b60405190815260200160405180910390a3620003e5565b634e487b7160e01b5f52601160045260245ffd5b600181815b80851115620002d957815f1904821115620002bd57620002bd62000285565b80851615620002cb57918102915b93841c93908002906200029e565b509250929050565b5f82620002f1575060016200038e565b81620002ff57505f6200038e565b8160018114620003185760028114620003235762000343565b60019150506200038e565b60ff84111562000337576200033762000285565b50506001821b6200038e565b5060208310610133831016604e8410600b841016171562000368575081810a6200038e565b62000374838362000299565b805f19048211156200038a576200038a62000285565b0290505b92915050565b5f620003a460ff841683620002e1565b9392505050565b80820281158282048414176200038e576200038e62000285565b5f82620003e057634e487b7160e01b5f52601260045260245ffd5b500490565b61171180620003f35f395ff3fe60806040526004361061013f575f3560e01c80637d1db4a5116100b3578063a01ce4081161006d578063a01ce4081461038e578063a9059cbb146103ad578063bf474bed146103cc578063c9567bf9146103e1578063dd62ed3e146103f5578063e89e109d14610439575f80fd5b80637d1db4a5146102d5578063879120fc146102ea5780638da5cb5b146103095780638f9a55c01461033957806395d89b411461034e578063a01c348314610379575f80fd5b8063313ce56711610104578063313ce5671461021557806351bc3c85146102305780635c579404146102465780635e4ae81b1461026557806370a082311461028d578063715018a6146102c1575f80fd5b806306fdde031461014a578063095ea7b3146101905780630faee56f146101bf57806318160ddd146101e257806323b872dd146101f6575f80fd5b3661014657005b5f80fd5b348015610155575f80fd5b5060408051808201909152600c81526b105b9bdb8810dbdb9b9958dd60a21b60208201525b6040516101879190611308565b60405180910390f35b34801561019b575f80fd5b506101af6101aa366004611367565b610458565b6040519015158152602001610187565b3480156101ca575f80fd5b506101d4600a5481565b604051908152602001610187565b3480156101ed575f80fd5b506101d461046e565b348015610201575f80fd5b506101af610210366004611391565b61048e565b348015610220575f80fd5b5060405160128152602001610187565b34801561023b575f80fd5b506102446104f5565b005b348015610251575f80fd5b506102446102603660046113cf565b610546565b348015610270575f80fd5b506004805467ffffffffffffffff60a01b1916600b60a01b179055005b348015610298575f80fd5b506101d46102a73660046113e6565b6001600160a01b03165f9081526001602052604090205490565b3480156102cc575f80fd5b506102446105bc565b3480156102e0575f80fd5b506101d460075481565b3480156102f5575f80fd5b506102446103043660046113e6565b61062d565b348015610314575f80fd5b505f546001600160a01b03165b6040516001600160a01b039091168152602001610187565b348015610344575f80fd5b506101d460085481565b348015610359575f80fd5b50604080518082019091526003815262414e4360e81b602082015261017a565b348015610384575f80fd5b5061032161dead81565b348015610399575f80fd5b506102446103a83660046113cf565b610678565b3480156103b8575f80fd5b506101af6103c7366004611367565b6106b3565b3480156103d7575f80fd5b506101d460095481565b3480156103ec575f80fd5b506102446106bf565b348015610400575f80fd5b506101d461040f366004611401565b6001600160a01b039182165f90815260026020908152604080832093909416825291909152205490565b348015610444575f80fd5b506102446104533660046113cf565b610a68565b5f610464338484610aa1565b5060015b92915050565b5f61047b6012600a61152c565b61048990633b9aca0061153a565b905090565b5f61049a848484610bc4565b6104eb84336104e6856040518060600160405280602881526020016116b4602891396001600160a01b038a165f9081526002602090815260408083203384529091529020549190610f6b565b610aa1565b5060019392505050565b6004546001600160a01b0316336001600160a01b031614610514575f80fd5b305f9081526001602052604090205480156105325761053281610fa3565b478015610542576105428161112c565b5050565b5f546001600160a01b031633146105785760405162461bcd60e51b815260040161056f90611551565b60405180910390fd5b6064816105876012600a61152c565b61059590633b9aca0061153a565b61059f919061153a565b6105a99190611586565b60075560018110156105b9575f80fd5b50565b5f546001600160a01b031633146105e55760405162461bcd60e51b815260040161056f90611551565b5f80546040516001600160a01b03909116907f8be0079c531659141344cd1fd0a4f28419497f9722a3daafe3b4186f6b6457e0908390a35f80546001600160a01b0319169055565b5f546001600160a01b031633146106565760405162461bcd60e51b815260040161056f90611551565b600480546001600160a01b0319166001600160a01b0392909216919091179055565b5f546001600160a01b031633146106a15760405162461bcd60e51b815260040161056f90611551565b600681905560058111156105b9575f80fd5b5f610464338484610bc4565b5f546001600160a01b031633146106e85760405162461bcd60e51b815260040161056f90611551565b600c54600160a01b900460ff16156107425760405162461bcd60e51b815260206004820152601760248201527f74726164696e6720697320616c7265616479206f70656e000000000000000000604482015260640161056f565b600b80546001600160a01b031916737a250d5630b4cf539739df2c5dacb4c659f2488d90811790915561078b90309061077d6012600a61152c565b6104e690633b9aca0061153a565b600b5f9054906101000a90046001600160a01b03166001600160a01b031663c45a01556040518163ffffffff1660e01b8152600401602060405180830381865afa1580156107db573d5f803e3d5ffd5b505050506040513d601f19601f820116820180604052508101906107ff91906115a5565b6001600160a01b031663c9c6539630600b5f9054906101000a90046001600160a01b03166001600160a01b031663ad5c46486040518163ffffffff1660e01b8152600401602060405180830381865afa15801561085e573d5f803e3d5ffd5b505050506040513d601f19601f8201168201806040525081019061088291906115a5565b6040516001600160e01b031960e085901b1681526001600160a01b039283166004820152911660248201526044016020604051808303815f875af11580156108cc573d5f803e3d5ffd5b505050506040513d601f19601f820116820180604052508101906108f091906115a5565b600c80546001600160a01b039283166001600160a01b0319909116179055600b541663f305d7194730610937816001600160a01b03165f9081526001602052604090205490565b5f8061094a5f546001600160a01b031690565b60405160e088901b6001600160e01b03191681526001600160a01b03958616600482015260248101949094526044840192909252606483015290911660848201524260a482015260c40160606040518083038185885af11580156109b0573d5f803e3d5ffd5b50505050506040513d601f19601f820116820180604052508101906109d591906115c0565b5050600c54600b5460405163095ea7b360e01b81526001600160a01b0391821660048201525f1960248201529116915063095ea7b3906044016020604051808303815f875af1158015610a2a573d5f803e3d5ffd5b505050506040513d601f19601f82011682018060405250810190610a4e91906115eb565b50600c805462ff00ff60a01b19166201000160a01b179055565b5f546001600160a01b03163314610a915760405162461bcd60e51b815260040161056f90611551565b60058181558111156105b9575f80fd5b6001600160a01b038316610b035760405162461bcd60e51b8152602060048201526024808201527f45524332303a20617070726f76652066726f6d20746865207a65726f206164646044820152637265737360e01b606482015260840161056f565b6001600160a01b038216610b645760405162461bcd60e51b815260206004820152602260248201527f45524332303a20617070726f766520746f20746865207a65726f206164647265604482015261737360f01b606482015260840161056f565b6001600160a01b038381165f8181526002602090815260408083209487168084529482529182902085905590518481527f8c5be1e5ebec7d5bd14f71427d1e84f3dd0314c0f7b2291e5b200ac8c7c3b925910160405180910390a3505050565b6001600160a01b038316610c285760405162461bcd60e51b815260206004820152602560248201527f45524332303a207472616e736665722066726f6d20746865207a65726f206164604482015264647265737360d81b606482015260840161056f565b6001600160a01b038216610c8a5760405162461bcd60e51b815260206004820152602360248201527f45524332303a207472616e7366657220746f20746865207a65726f206164647260448201526265737360e81b606482015260840161056f565b5f8111610ceb5760405162461bcd60e51b815260206004820152602960248201527f5472616e7366657220616d6f756e74206d7573742062652067726561746572206044820152687468616e207a65726f60b81b606482015260840161056f565b5f80546001600160a01b03858116911614801590610d1657505f546001600160a01b03848116911614155b15610e2e57610d3b6064610d356005548561116390919063ffffffff16565b906111e8565b600c549091506001600160a01b038481169116148015610d6457506001600160a01b0384163014155b15610da05760045460c8600160a01b90910460070b1215610d83575f80fd5b610d9d6064610d356006548561116390919063ffffffff16565b90505b305f90815260016020526040902054600c54600160a81b900460ff16158015610dd65750600c546001600160a01b038581169116145b8015610deb5750600c54600160b01b900460ff165b8015610df8575060095481115b15610e2c57610e1a610e1584610e1084600a54611229565b611229565b610fa3565b478015610e2a57610e2a4761112c565b505b505b8015610ea657305f90815260016020526040902054610e4d908261123d565b305f81815260016020526040908190209290925590516001600160a01b038616907fddf252ad1be2c89b69c2b068fc378daa952ba7f163c4a11628f55a4df523b3ef90610e9d9085815260200190565b60405180910390a35b6001600160a01b0384165f90815260016020526040902054610ec8908361129b565b6001600160a01b0385165f90815260016020526040902055610f0b610eed838361129b565b6001600160a01b0385165f908152600160205260409020549061123d565b6001600160a01b038085165f8181526001602052604090209290925585167fddf252ad1be2c89b69c2b068fc378daa952ba7f163c4a11628f55a4df523b3ef610f54858561129b565b60405190815260200160405180910390a350505050565b5f8184841115610f8e5760405162461bcd60e51b815260040161056f9190611308565b505f610f9a848661160a565b95945050505050565b600c805460ff60a81b1916600160a81b179055801561111c57600c54600160a01b900460ff161561111c576040805160028082526060820183525f9260208301908036833701905050905030815f815181106110015761100161161d565b6001600160a01b03928316602091820292909201810191909152600b54604080516315ab88c960e31b81529051919093169263ad5c46489260048083019391928290030181865afa158015611058573d5f803e3d5ffd5b505050506040513d601f19601f8201168201806040525081019061107c91906115a5565b8160018151811061108f5761108f61161d565b6001600160a01b039283166020918202929092010152600b546110b59130911684610aa1565b600b5460405163791ac94760e01b81526001600160a01b039091169063791ac947906110ed9085905f90869030904290600401611631565b5f604051808303815f87803b158015611104575f80fd5b505af1158015611116573d5f803e3d5ffd5b50505050505b50600c805460ff60a81b19169055565b6004546040516001600160a01b039091169082156108fc029083905f818181858888f19350505050158015610542573d5f803e3d5ffd5b5f825f0361117257505f610468565b5f61117d838561153a565b90508261118a8583611586565b146111e15760405162461bcd60e51b815260206004820152602160248201527f536166654d6174683a206d756c7469706c69636174696f6e206f766572666c6f6044820152607760f81b606482015260840161056f565b9392505050565b5f6111e183836040518060400160405280601a81526020017f536166654d6174683a206469766973696f6e206279207a65726f0000000000008152506112dc565b5f81831161123757826111e1565b50919050565b5f8061124983856116a0565b9050838110156111e15760405162461bcd60e51b815260206004820152601b60248201527f536166654d6174683a206164646974696f6e206f766572666c6f770000000000604482015260640161056f565b5f6111e183836040518060400160405280601e81526020017f536166654d6174683a207375627472616374696f6e206f766572666c6f770000815250610f6b565b5f81836112fc5760405162461bcd60e51b815260040161056f9190611308565b505f610f9a8486611586565b5f6020808352835180828501525f5b8181101561133357858101830151858201604001528201611317565b505f604082860101526040601f19601f8301168501019250505092915050565b6001600160a01b03811681146105b9575f80fd5b5f8060408385031215611378575f80fd5b823561138381611353565b946020939093013593505050565b5f805f606084860312156113a3575f80fd5b83356113ae81611353565b925060208401356113be81611353565b929592945050506040919091013590565b5f602082840312156113df575f80fd5b5035919050565b5f602082840312156113f6575f80fd5b81356111e181611353565b5f8060408385031215611412575f80fd5b823561141d81611353565b9150602083013561142d81611353565b809150509250929050565b634e487b7160e01b5f52601160045260245ffd5b600181815b8085111561148657815f190482111561146c5761146c611438565b8085161561147957918102915b93841c9390800290611451565b509250929050565b5f8261149c57506001610468565b816114a857505f610468565b81600181146114be57600281146114c8576114e4565b6001915050610468565b60ff8411156114d9576114d9611438565b50506001821b610468565b5060208310610133831016604e8410600b8410161715611507575081810a610468565b611511838361144c565b805f190482111561152457611524611438565b029392505050565b5f6111e160ff84168361148e565b808202811582820484141761046857610468611438565b6020808252818101527f4f776e61626c653a2063616c6c6572206973206e6f7420746865206f776e6572604082015260600190565b5f826115a057634e487b7160e01b5f52601260045260245ffd5b500490565b5f602082840312156115b5575f80fd5b81516111e181611353565b5f805f606084860312156115d2575f80fd5b8351925060208401519150604084015190509250925092565b5f602082840312156115fb575f80fd5b815180151581146111e1575f80fd5b8181038181111561046857610468611438565b634e487b7160e01b5f52603260045260245ffd5b5f60a082018783526020878185015260a0604085015281875180845260c08601915082890193505f5b8181101561167f5784516001600160a01b03168352938301939183019160010161165a565b50506001600160a01b03969096166060850152505050608001529392505050565b808201808211156104685761046861143856fe45524332303a207472616e7366657220616d6f756e74206578636565647320616c6c6f77616e6365a2646970667358221220892e5ecbaee8154790bf3a5ce012578b5c586ee1aa2483bf8dc38c6b8624dd4b64736f6c63430008150033",
			"opcodes": "PUSH1 0x80 PUSH1 0x40 MSTORE PUSH1 0x4 DUP1 SLOAD PUSH1 0x1 PUSH1 0xA0 SHL PUSH1 0x1 PUSH1 0xE0 SHL SUB NOT AND PUSH2 0x103 PUSH1 0xA0 SHL OR SWAP1 SSTORE PUSH1 0x2 PUSH1 0x5 DUP2 SWAP1 SSTORE PUSH1 0x6 SSTORE PUSH3 0x36 PUSH1 0x12 PUSH1 0xA PUSH3 0x394 JUMP JUMPDEST PUSH3 0x46 SWAP1 PUSH4 0x3B9ACA00 PUSH3 0x3AB JUMP JUMPDEST PUSH1 0x7 SSTORE PUSH3 0x57 PUSH1 0x12 PUSH1 0xA PUSH3 0x394 JUMP JUMPDEST PUSH3 0x67 SWAP1 PUSH4 0x3B9ACA00 PUSH3 0x3AB JUMP JUMPDEST PUSH1 0x8 SSTORE PUSH2 0x3E8 PUSH3 0x7B PUSH1 0x12 PUSH1 0xA PUSH3 0x394 JUMP JUMPDEST PUSH3 0x8B SWAP1 PUSH4 0x3B9ACA00 PUSH3 0x3AB JUMP JUMPDEST PUSH3 0x98 SWAP1 PUSH1 0x1 PUSH3 0x3AB JUMP JUMPDEST PUSH3 0xA4 SWAP2 SWAP1 PUSH3 0x3C5 JUMP JUMPDEST PUSH1 0x9 SSTORE PUSH1 0x64 PUSH3 0xB7 PUSH1 0x12 PUSH1 0xA PUSH3 0x394 JUMP JUMPDEST PUSH3 0xC7 SWAP1 PUSH4 0x3B9ACA00 PUSH3 0x3AB JUMP JUMPDEST PUSH3 0xD4 SWAP1 PUSH1 0x1 PUSH3 0x3AB JUMP JUMPDEST PUSH3 0xE0 SWAP2 SWAP1 PUSH3 0x3C5 JUMP JUMPDEST PUSH1 0xA SSTORE PUSH1 0xC DUP1 SLOAD PUSH2 0xFFFF PUSH1 0xA8 SHL NOT AND SWAP1 SSTORE CALLVALUE DUP1 ISZERO PUSH3 0xFD JUMPI PUSH0 DUP1 REVERT JUMPDEST POP PUSH0 DUP1 SLOAD PUSH1 0x1 PUSH1 0x1 PUSH1 0xA0 SHL SUB NOT AND CALLER SWAP1 DUP2 OR DUP3 SSTORE PUSH1 0x40 MLOAD SWAP1 SWAP2 DUP3 SWAP2 PUSH32 0x8BE0079C531659141344CD1FD0A4F28419497F9722A3DAAFE3B4186F6B6457E0 SWAP1 DUP3 SWAP1 LOG3 POP PUSH1 0x4 DUP1 SLOAD PUSH1 0x1 PUSH1 0x1 PUSH1 0xA0 SHL SUB NOT AND CALLER OR SWAP1 SSTORE PUSH3 0x15E PUSH1 0x12 PUSH1 0xA PUSH3 0x394 JUMP JUMPDEST PUSH3 0x16E SWAP1 PUSH4 0x3B9ACA00 PUSH3 0x3AB JUMP JUMPDEST CALLER PUSH0 SWAP1 DUP2 MSTORE PUSH1 0x1 PUSH1 0x20 DUP2 SWAP1 MSTORE PUSH1 0x40 DUP3 KECCAK256 SWAP3 SWAP1 SWAP3 SSTORE PUSH1 0x3 SWAP1 PUSH3 0x197 PUSH0 SLOAD PUSH1 0x1 PUSH1 0x1 PUSH1 0xA0 SHL SUB AND SWAP1 JUMP JUMPDEST PUSH1 0x1 PUSH1 0x1 PUSH1 0xA0 SHL SUB SWAP1 DUP2 AND DUP3 MSTORE PUSH1 0x20 DUP1 DUP4 ADD SWAP4 SWAP1 SWAP4 MSTORE PUSH1 0x40 SWAP2 DUP3 ADD PUSH0 SWAP1 DUP2 KECCAK256 DUP1 SLOAD SWAP6 ISZERO ISZERO PUSH1 0xFF NOT SWAP7 DUP8 AND OR SWAP1 SSTORE ADDRESS DUP2 MSTORE PUSH1 0x3 SWAP1 SWAP4 MSTORE DUP2 DUP4 KECCAK256 DUP1 SLOAD DUP6 AND PUSH1 0x1 SWAP1 DUP2 OR SWAP1 SWAP2 SSTORE PUSH1 0x4 SLOAD SWAP1 SWAP2 AND DUP4 MSTORE SWAP1 DUP3 KECCAK256 DUP1 SLOAD DUP5 AND DUP3 OR SWAP1 SSTORE PUSH2 0xDEAD SWAP1 SWAP2 MSTORE PUSH32 0x262BB27BBDD95C1CDC8E16957E36E38579EA44F7F6413DD7A9C75939DEF06B2C DUP1 SLOAD SWAP1 SWAP3 AND OR SWAP1 SSTORE PUSH3 0x225 CALLER SWAP1 JUMP JUMPDEST PUSH1 0x1 PUSH1 0x1 PUSH1 0xA0 SHL SUB AND PUSH0 PUSH32 0xDDF252AD1BE2C89B69C2B068FC378DAA952BA7F163C4A11628F55A4DF523B3EF PUSH3 0x25E PUSH1 0x12 PUSH1 0xA PUSH3 0x394 JUMP JUMPDEST PUSH3 0x26E SWAP1 PUSH4 0x3B9ACA00 PUSH3 0x3AB JUMP JUMPDEST PUSH1 0x40 MLOAD SWAP1 DUP2 MSTORE PUSH1 0x20 ADD PUSH1 0x40 MLOAD DUP1 SWAP2 SUB SWAP1 LOG3 PUSH3 0x3E5 JUMP JUMPDEST PUSH4 0x4E487B71 PUSH1 0xE0 SHL PUSH0 MSTORE PUSH1 0x11 PUSH1 0x4 MSTORE PUSH1 0x24 PUSH0 REVERT JUMPDEST PUSH1 0x1 DUP2 DUP2 JUMPDEST DUP1 DUP6 GT ISZERO PUSH3 0x2D9 JUMPI DUP2 PUSH0 NOT DIV DUP3 GT ISZERO PUSH3 0x2BD JUMPI PUSH3 0x2BD PUSH3 0x285 JUMP JUMPDEST DUP1 DUP6 AND ISZERO PUSH3 0x2CB JUMPI SWAP2 DUP2 MUL SWAP2 JUMPDEST SWAP4 DUP5 SHR SWAP4 SWAP1 DUP1 MUL SWAP1 PUSH3 0x29E JUMP JUMPDEST POP SWAP3 POP SWAP3 SWAP1 POP JUMP JUMPDEST PUSH0 DUP3 PUSH3 0x2F1 JUMPI POP PUSH1 0x1 PUSH3 0x38E JUMP JUMPDEST DUP2 PUSH3 0x2FF JUMPI POP PUSH0 PUSH3 0x38E JUMP JUMPDEST DUP2 PUSH1 0x1 DUP2 EQ PUSH3 0x318 JUMPI PUSH1 0x2 DUP2 EQ PUSH3 0x323 JUMPI PUSH3 0x343 JUMP JUMPDEST PUSH1 0x1 SWAP2 POP POP PUSH3 0x38E JUMP JUMPDEST PUSH1 0xFF DUP5 GT ISZERO PUSH3 0x337 JUMPI PUSH3 0x337 PUSH3 0x285 JUMP JUMPDEST POP POP PUSH1 0x1 DUP3 SHL PUSH3 0x38E JUMP JUMPDEST POP PUSH1 0x20 DUP4 LT PUSH2 0x133 DUP4 LT AND PUSH1 0x4E DUP5 LT PUSH1 0xB DUP5 LT AND OR ISZERO PUSH3 0x368 JUMPI POP DUP2 DUP2 EXP PUSH3 0x38E JUMP JUMPDEST PUSH3 0x374 DUP4 DUP4 PUSH3 0x299 JUMP JUMPDEST DUP1 PUSH0 NOT DIV DUP3 GT ISZERO PUSH3 0x38A JUMPI PUSH3 0x38A PUSH3 0x285 JUMP JUMPDEST MUL SWAP1 POP JUMPDEST SWAP3 SWAP2 POP POP JUMP JUMPDEST PUSH0 PUSH3 0x3A4 PUSH1 0xFF DUP5 AND DUP4 PUSH3 0x2E1 JUMP JUMPDEST SWAP4 SWAP3 POP POP POP JUMP JUMPDEST DUP1 DUP3 MUL DUP2 ISZERO DUP3 DUP3 DIV DUP5 EQ OR PUSH3 0x38E JUMPI PUSH3 0x38E PUSH3 0x285 JUMP JUMPDEST PUSH0 DUP3 PUSH3 0x3E0 JUMPI PUSH4 0x4E487B71 PUSH1 0xE0 SHL PUSH0 MSTORE PUSH1 0x12 PUSH1 0x4 MSTORE PUSH1 0x24 PUSH0 REVERT JUMPDEST POP DIV SWAP1 JUMP JUMPDEST PUSH2 0x1711 DUP1 PUSH3 0x3F3 PUSH0 CODECOPY PUSH0 RETURN INVALID PUSH1 0x80 PUSH1 0x40 MSTORE PUSH1 0x4 CALLDATASIZE LT PUSH2 0x13F JUMPI PUSH0 CALLDATALOAD PUSH1 0xE0 SHR DUP1 PUSH4 0x7D1DB4A5 GT PUSH2 0xB3 JUMPI DUP1 PUSH4 0xA01CE408 GT PUSH2 0x6D JUMPI DUP1 PUSH4 0xA01CE408 EQ PUSH2 0x38E JUMPI DUP1 PUSH4 0xA9059CBB EQ PUSH2 0x3AD JUMPI DUP1 PUSH4 0xBF474BED EQ PUSH2 0x3CC JUMPI DUP1 PUSH4 0xC9567BF9 EQ PUSH2 0x3E1 JUMPI DUP1 PUSH4 0xDD62ED3E EQ PUSH2 0x3F5 JUMPI DUP1 PUSH4 0xE89E109D EQ PUSH2 0x439 JUMPI PUSH0 DUP1 REVERT JUMPDEST DUP1 PUSH4 0x7D1DB4A5 EQ PUSH2 0x2D5 JUMPI DUP1 PUSH4 0x879120FC EQ PUSH2 0x2EA JUMPI DUP1 PUSH4 0x8DA5CB5B EQ PUSH2 0x309 JUMPI DUP1 PUSH4 0x8F9A55C0 EQ PUSH2 0x339 JUMPI DUP1 PUSH4 0x95D89B41 EQ PUSH2 0x34E JUMPI DUP1 PUSH4 0xA01C3483 EQ PUSH2 0x379 JUMPI PUSH0 DUP1 REVERT JUMPDEST DUP1 PUSH4 0x313CE567 GT PUSH2 0x104 JUMPI DUP1 PUSH4 0x313CE567 EQ PUSH2 0x215 JUMPI DUP1 PUSH4 0x51BC3C85 EQ PUSH2 0x230 JUMPI DUP1 PUSH4 0x5C579404 EQ PUSH2 0x246 JUMPI DUP1 PUSH4 0x5E4AE81B EQ PUSH2 0x265 JUMPI DUP1 PUSH4 0x70A08231 EQ PUSH2 0x28D JUMPI DUP1 PUSH4 0x715018A6 EQ PUSH2 0x2C1 JUMPI PUSH0 DUP1 REVERT JUMPDEST DUP1 PUSH4 0x6FDDE03 EQ PUSH2 0x14A JUMPI DUP1 PUSH4 0x95EA7B3 EQ PUSH2 0x190 JUMPI DUP1 PUSH4 0xFAEE56F EQ PUSH2 0x1BF JUMPI DUP1 PUSH4 0x18160DDD EQ PUSH2 0x1E2 JUMPI DUP1 PUSH4 0x23B872DD EQ PUSH2 0x1F6 JUMPI PUSH0 DUP1 REVERT JUMPDEST CALLDATASIZE PUSH2 0x146 JUMPI STOP JUMPDEST PUSH0 DUP1 REVERT JUMPDEST CALLVALUE DUP1 ISZERO PUSH2 0x155 JUMPI PUSH0 DUP1 REVERT JUMPDEST POP PUSH1 0x40 DUP1 MLOAD DUP1 DUP3 ADD SWAP1 SWAP2 MSTORE PUSH1 0xC DUP2 MSTORE PUSH12 0x105B9BDB8810DBDB9B9958DD PUSH1 0xA2 SHL PUSH1 0x20 DUP3 ADD MSTORE JUMPDEST PUSH1 0x40 MLOAD PUSH2 0x187 SWAP2 SWAP1 PUSH2 0x1308 JUMP JUMPDEST PUSH1 0x40 MLOAD DUP1 SWAP2 SUB SWAP1 RETURN JUMPDEST CALLVALUE DUP1 ISZERO PUSH2 0x19B JUMPI PUSH0 DUP1 REVERT JUMPDEST POP PUSH2 0x1AF PUSH2 0x1AA CALLDATASIZE PUSH1 0x4 PUSH2 0x1367 JUMP JUMPDEST PUSH2 0x458 JUMP JUMPDEST PUSH1 0x40 MLOAD SWAP1 ISZERO ISZERO DUP2 MSTORE PUSH1 0x20 ADD PUSH2 0x187 JUMP JUMPDEST CALLVALUE DUP1 ISZERO PUSH2 0x1CA JUMPI PUSH0 DUP1 REVERT JUMPDEST POP PUSH2 0x1D4 PUSH1 0xA SLOAD DUP2 JUMP JUMPDEST PUSH1 0x40 MLOAD SWAP1 DUP2 MSTORE PUSH1 0x20 ADD PUSH2 0x187 JUMP JUMPDEST CALLVALUE DUP1 ISZERO PUSH2 0x1ED JUMPI PUSH0 DUP1 REVERT JUMPDEST POP PUSH2 0x1D4 PUSH2 0x46E JUMP JUMPDEST CALLVALUE DUP1 ISZERO PUSH2 0x201 JUMPI PUSH0 DUP1 REVERT JUMPDEST POP PUSH2 0x1AF PUSH2 0x210 CALLDATASIZE PUSH1 0x4 PUSH2 0x1391 JUMP JUMPDEST PUSH2 0x48E JUMP JUMPDEST CALLVALUE DUP1 ISZERO PUSH2 0x220 JUMPI PUSH0 DUP1 REVERT JUMPDEST POP PUSH1 0x40 MLOAD PUSH1 0x12 DUP2 MSTORE PUSH1 0x20 ADD PUSH2 0x187 JUMP JUMPDEST CALLVALUE DUP1 ISZERO PUSH2 0x23B JUMPI PUSH0 DUP1 REVERT JUMPDEST POP PUSH2 0x244 PUSH2 0x4F5 JUMP JUMPDEST STOP JUMPDEST CALLVALUE DUP1 ISZERO PUSH2 0x251 JUMPI PUSH0 DUP1 REVERT JUMPDEST POP PUSH2 0x244 PUSH2 0x260 CALLDATASIZE PUSH1 0x4 PUSH2 0x13CF JUMP JUMPDEST PUSH2 0x546 JUMP JUMPDEST CALLVALUE DUP1 ISZERO PUSH2 0x270 JUMPI PUSH0 DUP1 REVERT JUMPDEST POP PUSH1 0x4 DUP1 SLOAD PUSH8 0xFFFFFFFFFFFFFFFF PUSH1 0xA0 SHL NOT AND PUSH1 0xB PUSH1 0xA0 SHL OR SWAP1 SSTORE STOP JUMPDEST CALLVALUE DUP1 ISZERO PUSH2 0x298 JUMPI PUSH0 DUP1 REVERT JUMPDEST POP PUSH2 0x1D4 PUSH2 0x2A7 CALLDATASIZE PUSH1 0x4 PUSH2 0x13E6 JUMP JUMPDEST PUSH1 0x1 PUSH1 0x1 PUSH1 0xA0 SHL SUB AND PUSH0 SWAP1 DUP2 MSTORE PUSH1 0x1 PUSH1 0x20 MSTORE PUSH1 0x40 SWAP1 KECCAK256 SLOAD SWAP1 JUMP JUMPDEST CALLVALUE DUP1 ISZERO PUSH2 0x2CC JUMPI PUSH0 DUP1 REVERT JUMPDEST POP PUSH2 0x244 PUSH2 0x5BC JUMP JUMPDEST CALLVALUE DUP1 ISZERO PUSH2 0x2E0 JUMPI PUSH0 DUP1 REVERT JUMPDEST POP PUSH2 0x1D4 PUSH1 0x7 SLOAD DUP2 JUMP JUMPDEST CALLVALUE DUP1 ISZERO PUSH2 0x2F5 JUMPI PUSH0 DUP1 REVERT JUMPDEST POP PUSH2 0x244 PUSH2 0x304 CALLDATASIZE PUSH1 0x4 PUSH2 0x13E6 JUMP JUMPDEST PUSH2 0x62D JUMP JUMPDEST CALLVALUE DUP1 ISZERO PUSH2 0x314 JUMPI PUSH0 DUP1 REVERT JUMPDEST POP PUSH0 SLOAD PUSH1 0x1 PUSH1 0x1 PUSH1 0xA0 SHL SUB AND JUMPDEST PUSH1 0x40 MLOAD PUSH1 0x1 PUSH1 0x1 PUSH1 0xA0 SHL SUB SWAP1 SWAP2 AND DUP2 MSTORE PUSH1 0x20 ADD PUSH2 0x187 JUMP JUMPDEST CALLVALUE DUP1 ISZERO PUSH2 0x344 JUMPI PUSH0 DUP1 REVERT JUMPDEST POP PUSH2 0x1D4 PUSH1 0x8 SLOAD DUP2 JUMP JUMPDEST CALLVALUE DUP1 ISZERO PUSH2 0x359 JUMPI PUSH0 DUP1 REVERT JUMPDEST POP PUSH1 0x40 DUP1 MLOAD DUP1 DUP3 ADD SWAP1 SWAP2 MSTORE PUSH1 0x3 DUP2 MSTORE PUSH3 0x414E43 PUSH1 0xE8 SHL PUSH1 0x20 DUP3 ADD MSTORE PUSH2 0x17A JUMP JUMPDEST CALLVALUE DUP1 ISZERO PUSH2 0x384 JUMPI PUSH0 DUP1 REVERT JUMPDEST POP PUSH2 0x321 PUSH2 0xDEAD DUP2 JUMP JUMPDEST CALLVALUE DUP1 ISZERO PUSH2 0x399 JUMPI PUSH0 DUP1 REVERT JUMPDEST POP PUSH2 0x244 PUSH2 0x3A8 CALLDATASIZE PUSH1 0x4 PUSH2 0x13CF JUMP JUMPDEST PUSH2 0x678 JUMP JUMPDEST CALLVALUE DUP1 ISZERO PUSH2 0x3B8 JUMPI PUSH0 DUP1 REVERT JUMPDEST POP PUSH2 0x1AF PUSH2 0x3C7 CALLDATASIZE PUSH1 0x4 PUSH2 0x1367 JUMP JUMPDEST PUSH2 0x6B3 JUMP JUMPDEST CALLVALUE DUP1 ISZERO PUSH2 0x3D7 JUMPI PUSH0 DUP1 REVERT JUMPDEST POP PUSH2 0x1D4 PUSH1 0x9 SLOAD DUP2 JUMP JUMPDEST CALLVALUE DUP1 ISZERO PUSH2 0x3EC JUMPI PUSH0 DUP1 REVERT JUMPDEST POP PUSH2 0x244 PUSH2 0x6BF JUMP JUMPDEST CALLVALUE DUP1 ISZERO PUSH2 0x400 JUMPI PUSH0 DUP1 REVERT JUMPDEST POP PUSH2 0x1D4 PUSH2 0x40F CALLDATASIZE PUSH1 0x4 PUSH2 0x1401 JUMP JUMPDEST PUSH1 0x1 PUSH1 0x1 PUSH1 0xA0 SHL SUB SWAP2 DUP3 AND PUSH0 SWAP1 DUP2 MSTORE PUSH1 0x2 PUSH1 0x20 SWAP1 DUP2 MSTORE PUSH1 0x40 DUP1 DUP4 KECCAK256 SWAP4 SWAP1 SWAP5 AND DUP3 MSTORE SWAP2 SWAP1 SWAP2 MSTORE KECCAK256 SLOAD SWAP1 JUMP JUMPDEST CALLVALUE DUP1 ISZERO PUSH2 0x444 JUMPI PUSH0 DUP1 REVERT JUMPDEST POP PUSH2 0x244 PUSH2 0x453 CALLDATASIZE PUSH1 0x4 PUSH2 0x13CF JUMP JUMPDEST PUSH2 0xA68 JUMP JUMPDEST PUSH0 PUSH2 0x464 CALLER DUP5 DUP5 PUSH2 0xAA1 JUMP JUMPDEST POP PUSH1 0x1 JUMPDEST SWAP3 SWAP2 POP POP JUMP JUMPDEST PUSH0 PUSH2 0x47B PUSH1 0x12 PUSH1 0xA PUSH2 0x152C JUMP JUMPDEST PUSH2 0x489 SWAP1 PUSH4 0x3B9ACA00 PUSH2 0x153A JUMP JUMPDEST SWAP1 POP SWAP1 JUMP JUMPDEST PUSH0 PUSH2 0x49A DUP5 DUP5 DUP5 PUSH2 0xBC4 JUMP JUMPDEST PUSH2 0x4EB DUP5 CALLER PUSH2 0x4E6 DUP6 PUSH1 0x40 MLOAD DUP1 PUSH1 0x60 ADD PUSH1 0x40 MSTORE DUP1 PUSH1 0x28 DUP2 MSTORE PUSH1 0x20 ADD PUSH2 0x16B4 PUSH1 0x28 SWAP2 CODECOPY PUSH1 0x1 PUSH1 0x1 PUSH1 0xA0 SHL SUB DUP11 AND PUSH0 SWAP1 DUP2 MSTORE PUSH1 0x2 PUSH1 0x20 SWAP1 DUP2 MSTORE PUSH1 0x40 DUP1 DUP4 KECCAK256 CALLER DUP5 MSTORE SWAP1 SWAP2 MSTORE SWAP1 KECCAK256 SLOAD SWAP2 SWAP1 PUSH2 0xF6B JUMP JUMPDEST PUSH2 0xAA1 JUMP JUMPDEST POP PUSH1 0x1 SWAP4 SWAP3 POP POP POP JUMP JUMPDEST PUSH1 0x4 SLOAD PUSH1 0x1 PUSH1 0x1 PUSH1 0xA0 SHL SUB AND CALLER PUSH1 0x1 PUSH1 0x1 PUSH1 0xA0 SHL SUB AND EQ PUSH2 0x514 JUMPI PUSH0 DUP1 REVERT JUMPDEST ADDRESS PUSH0 SWAP1 DUP2 MSTORE PUSH1 0x1 PUSH1 0x20 MSTORE PUSH1 0x40 SWAP1 KECCAK256 SLOAD DUP1 ISZERO PUSH2 0x532 JUMPI PUSH2 0x532 DUP2 PUSH2 0xFA3 JUMP JUMPDEST SELFBALANCE DUP1 ISZERO PUSH2 0x542 JUMPI PUSH2 0x542 DUP2 PUSH2 0x112C JUMP JUMPDEST POP POP JUMP JUMPDEST PUSH0 SLOAD PUSH1 0x1 PUSH1 0x1 PUSH1 0xA0 SHL SUB AND CALLER EQ PUSH2 0x578 JUMPI PUSH1 0x40 MLOAD PUSH3 0x461BCD PUSH1 0xE5 SHL DUP2 MSTORE PUSH1 0x4 ADD PUSH2 0x56F SWAP1 PUSH2 0x1551 JUMP JUMPDEST PUSH1 0x40 MLOAD DUP1 SWAP2 SUB SWAP1 REVERT JUMPDEST PUSH1 0x64 DUP2 PUSH2 0x587 PUSH1 0x12 PUSH1 0xA PUSH2 0x152C JUMP JUMPDEST PUSH2 0x595 SWAP1 PUSH4 0x3B9ACA00 PUSH2 0x153A JUMP JUMPDEST PUSH2 0x59F SWAP2 SWAP1 PUSH2 0x153A JUMP JUMPDEST PUSH2 0x5A9 SWAP2 SWAP1 PUSH2 0x1586 JUMP JUMPDEST PUSH1 0x7 SSTORE PUSH1 0x1 DUP2 LT ISZERO PUSH2 0x5B9 JUMPI PUSH0 DUP1 REVERT JUMPDEST POP JUMP JUMPDEST PUSH0 SLOAD PUSH1 0x1 PUSH1 0x1 PUSH1 0xA0 SHL SUB AND CALLER EQ PUSH2 0x5E5 JUMPI PUSH1 0x40 MLOAD PUSH3 0x461BCD PUSH1 0xE5 SHL DUP2 MSTORE PUSH1 0x4 ADD PUSH2 0x56F SWAP1 PUSH2 0x1551 JUMP JUMPDEST PUSH0 DUP1 SLOAD PUSH1 0x40 MLOAD PUSH1 0x1 PUSH1 0x1 PUSH1 0xA0 SHL SUB SWAP1 SWAP2 AND SWAP1 PUSH32 0x8BE0079C531659141344CD1FD0A4F28419497F9722A3DAAFE3B4186F6B6457E0 SWAP1 DUP4 SWAP1 LOG3 PUSH0 DUP1 SLOAD PUSH1 0x1 PUSH1 0x1 PUSH1 0xA0 SHL SUB NOT AND SWAP1 SSTORE JUMP JUMPDEST PUSH0 SLOAD PUSH1 0x1 PUSH1 0x1 PUSH1 0xA0 SHL SUB AND CALLER EQ PUSH2 0x656 JUMPI PUSH1 0x40 MLOAD PUSH3 0x461BCD PUSH1 0xE5 SHL DUP2 MSTORE PUSH1 0x4 ADD PUSH2 0x56F SWAP1 PUSH2 0x1551 JUMP JUMPDEST PUSH1 0x4 DUP1 SLOAD PUSH1 0x1 PUSH1 0x1 PUSH1 0xA0 SHL SUB NOT AND PUSH1 0x1 PUSH1 0x1 PUSH1 0xA0 SHL SUB SWAP3 SWAP1 SWAP3 AND SWAP2 SWAP1 SWAP2 OR SWAP1 SSTORE JUMP JUMPDEST PUSH0 SLOAD PUSH1 0x1 PUSH1 0x1 PUSH1 0xA0 SHL SUB AND CALLER EQ PUSH2 0x6A1 JUMPI PUSH1 0x40 MLOAD PUSH3 0x461BCD PUSH1 0xE5 SHL DUP2 MSTORE PUSH1 0x4 ADD PUSH2 0x56F SWAP1 PUSH2 0x1551 JUMP JUMPDEST PUSH1 0x6 DUP2 SWAP1 SSTORE PUSH1 0x5 DUP2 GT ISZERO PUSH2 0x5B9 JUMPI PUSH0 DUP1 REVERT JUMPDEST PUSH0 PUSH2 0x464 CALLER DUP5 DUP5 PUSH2 0xBC4 JUMP JUMPDEST PUSH0 SLOAD PUSH1 0x1 PUSH1 0x1 PUSH1 0xA0 SHL SUB AND CALLER EQ PUSH2 0x6E8 JUMPI PUSH1 0x40 MLOAD PUSH3 0x461BCD PUSH1 0xE5 SHL DUP2 MSTORE PUSH1 0x4 ADD PUSH2 0x56F SWAP1 PUSH2 0x1551 JUMP JUMPDEST PUSH1 0xC SLOAD PUSH1 0x1 PUSH1 0xA0 SHL SWAP1 DIV PUSH1 0xFF AND ISZERO PUSH2 0x742 JUMPI PUSH1 0x40 MLOAD PUSH3 0x461BCD PUSH1 0xE5 SHL DUP2 MSTORE PUSH1 0x20 PUSH1 0x4 DUP3 ADD MSTORE PUSH1 0x17 PUSH1 0x24 DUP3 ADD MSTORE PUSH32 0x74726164696E6720697320616C7265616479206F70656E000000000000000000 PUSH1 0x44 DUP3 ADD MSTORE PUSH1 0x64 ADD PUSH2 0x56F JUMP JUMPDEST PUSH1 0xB DUP1 SLOAD PUSH1 0x1 PUSH1 0x1 PUSH1 0xA0 SHL SUB NOT AND PUSH20 0x7A250D5630B4CF539739DF2C5DACB4C659F2488D SWAP1 DUP2 OR SWAP1 SWAP2 SSTORE PUSH2 0x78B SWAP1 ADDRESS SWAP1 PUSH2 0x77D PUSH1 0x12 PUSH1 0xA PUSH2 0x152C JUMP JUMPDEST PUSH2 0x4E6 SWAP1 PUSH4 0x3B9ACA00 PUSH2 0x153A JUMP JUMPDEST PUSH1 0xB PUSH0 SWAP1 SLOAD SWAP1 PUSH2 0x100 EXP SWAP1 DIV PUSH1 0x1 PUSH1 0x1 PUSH1 0xA0 SHL SUB AND PUSH1 0x1 PUSH1 0x1 PUSH1 0xA0 SHL SUB AND PUSH4 0xC45A0155 PUSH1 0x40 MLOAD DUP2 PUSH4 0xFFFFFFFF AND PUSH1 0xE0 SHL DUP2 MSTORE PUSH1 0x4 ADD PUSH1 0x20 PUSH1 0x40 MLOAD DUP1 DUP4 SUB DUP2 DUP7 GAS STATICCALL ISZERO DUP1 ISZERO PUSH2 0x7DB JUMPI RETURNDATASIZE PUSH0 DUP1 RETURNDATACOPY RETURNDATASIZE PUSH0 REVERT JUMPDEST POP POP POP POP PUSH1 0x40 MLOAD RETURNDATASIZE PUSH1 0x1F NOT PUSH1 0x1F DUP3 ADD AND DUP3 ADD DUP1 PUSH1 0x40 MSTORE POP DUP2 ADD SWAP1 PUSH2 0x7FF SWAP2 SWAP1 PUSH2 0x15A5 JUMP JUMPDEST PUSH1 0x1 PUSH1 0x1 PUSH1 0xA0 SHL SUB AND PUSH4 0xC9C65396 ADDRESS PUSH1 0xB PUSH0 SWAP1 SLOAD SWAP1 PUSH2 0x100 EXP SWAP1 DIV PUSH1 0x1 PUSH1 0x1 PUSH1 0xA0 SHL SUB AND PUSH1 0x1 PUSH1 0x1 PUSH1 0xA0 SHL SUB AND PUSH4 0xAD5C4648 PUSH1 0x40 MLOAD DUP2 PUSH4 0xFFFFFFFF AND PUSH1 0xE0 SHL DUP2 MSTORE PUSH1 0x4 ADD PUSH1 0x20 PUSH1 0x40 MLOAD DUP1 DUP4 SUB DUP2 DUP7 GAS STATICCALL ISZERO DUP1 ISZERO PUSH2 0x85E JUMPI RETURNDATASIZE PUSH0 DUP1 RETURNDATACOPY RETURNDATASIZE PUSH0 REVERT JUMPDEST POP POP POP POP PUSH1 0x40 MLOAD RETURNDATASIZE PUSH1 0x1F NOT PUSH1 0x1F DUP3 ADD AND DUP3 ADD DUP1 PUSH1 0x40 MSTORE POP DUP2 ADD SWAP1 PUSH2 0x882 SWAP2 SWAP1 PUSH2 0x15A5 JUMP JUMPDEST PUSH1 0x40 MLOAD PUSH1 0x1 PUSH1 0x1 PUSH1 0xE0 SHL SUB NOT PUSH1 0xE0 DUP6 SWAP1 SHL AND DUP2 MSTORE PUSH1 0x1 PUSH1 0x1 PUSH1 0xA0 SHL SUB SWAP3 DUP4 AND PUSH1 0x4 DUP3 ADD MSTORE SWAP2 AND PUSH1 0x24 DUP3 ADD MSTORE PUSH1 0x44 ADD PUSH1 0x20 PUSH1 0x40 MLOAD DUP1 DUP4 SUB DUP2 PUSH0 DUP8 GAS CALL ISZERO DUP1 ISZERO PUSH2 0x8CC JUMPI RETURNDATASIZE PUSH0 DUP1 RETURNDATACOPY RETURNDATASIZE PUSH0 REVERT JUMPDEST POP POP POP POP PUSH1 0x40 MLOAD RETURNDATASIZE PUSH1 0x1F NOT PUSH1 0x1F DUP3 ADD AND DUP3 ADD DUP1 PUSH1 0x40 MSTORE POP DUP2 ADD SWAP1 PUSH2 0x8F0 SWAP2 SWAP1 PUSH2 0x15A5 JUMP JUMPDEST PUSH1 0xC DUP1 SLOAD PUSH1 0x1 PUSH1 0x1 PUSH1 0xA0 SHL SUB SWAP3 DUP4 AND PUSH1 0x1 PUSH1 0x1 PUSH1 0xA0 SHL SUB NOT SWAP1 SWAP2 AND OR SWAP1 SSTORE PUSH1 0xB SLOAD AND PUSH4 0xF305D719 SELFBALANCE ADDRESS PUSH2 0x937 DUP2 PUSH1 0x1 PUSH1 0x1 PUSH1 0xA0 SHL SUB AND PUSH0 SWAP1 DUP2 MSTORE PUSH1 0x1 PUSH1 0x20 MSTORE PUSH1 0x40 SWAP1 KECCAK256 SLOAD SWAP1 JUMP JUMPDEST PUSH0 DUP1 PUSH2 0x94A PUSH0 SLOAD PUSH1 0x1 PUSH1 0x1 PUSH1 0xA0 SHL SUB AND SWAP1 JUMP JUMPDEST PUSH1 0x40 MLOAD PUSH1 0xE0 DUP9 SWAP1 SHL PUSH1 0x1 PUSH1 0x1 PUSH1 0xE0 SHL SUB NOT AND DUP2 MSTORE PUSH1 0x1 PUSH1 0x1 PUSH1 0xA0 SHL SUB SWAP6 DUP7 AND PUSH1 0x4 DUP3 ADD MSTORE PUSH1 0x24 DUP2 ADD SWAP5 SWAP1 SWAP5 MSTORE PUSH1 0x44 DUP5 ADD SWAP3 SWAP1 SWAP3 MSTORE PUSH1 0x64 DUP4 ADD MSTORE SWAP1 SWAP2 AND PUSH1 0x84 DUP3 ADD MSTORE TIMESTAMP PUSH1 0xA4 DUP3 ADD MSTORE PUSH1 0xC4 ADD PUSH1 0x60 PUSH1 0x40 MLOAD DUP1 DUP4 SUB DUP2 DUP6 DUP9 GAS CALL ISZERO DUP1 ISZERO PUSH2 0x9B0 JUMPI RETURNDATASIZE PUSH0 DUP1 RETURNDATACOPY RETURNDATASIZE PUSH0 REVERT JUMPDEST POP POP POP POP POP PUSH1 0x40 MLOAD RETURNDATASIZE PUSH1 0x1F NOT PUSH1 0x1F DUP3 ADD AND DUP3 ADD DUP1 PUSH1 0x40 MSTORE POP DUP2 ADD SWAP1 PUSH2 0x9D5 SWAP2 SWAP1 PUSH2 0x15C0 JUMP JUMPDEST POP POP PUSH1 0xC SLOAD PUSH1 0xB SLOAD PUSH1 0x40 MLOAD PUSH4 0x95EA7B3 PUSH1 0xE0 SHL DUP2 MSTORE PUSH1 0x1 PUSH1 0x1 PUSH1 0xA0 SHL SUB SWAP2 DUP3 AND PUSH1 0x4 DUP3 ADD MSTORE PUSH0 NOT PUSH1 0x24 DUP3 ADD MSTORE SWAP2 AND SWAP2 POP PUSH4 0x95EA7B3 SWAP1 PUSH1 0x44 ADD PUSH1 0x20 PUSH1 0x40 MLOAD DUP1 DUP4 SUB DUP2 PUSH0 DUP8 GAS CALL ISZERO DUP1 ISZERO PUSH2 0xA2A JUMPI RETURNDATASIZE PUSH0 DUP1 RETURNDATACOPY RETURNDATASIZE PUSH0 REVERT JUMPDEST POP POP POP POP PUSH1 0x40 MLOAD RETURNDATASIZE PUSH1 0x1F NOT PUSH1 0x1F DUP3 ADD AND DUP3 ADD DUP1 PUSH1 0x40 MSTORE POP DUP2 ADD SWAP1 PUSH2 0xA4E SWAP2 SWAP1 PUSH2 0x15EB JUMP JUMPDEST POP PUSH1 0xC DUP1 SLOAD PUSH3 0xFF00FF PUSH1 0xA0 SHL NOT AND PUSH3 0x10001 PUSH1 0xA0 SHL OR SWAP1 SSTORE JUMP JUMPDEST PUSH0 SLOAD PUSH1 0x1 PUSH1 0x1 PUSH1 0xA0 SHL SUB AND CALLER EQ PUSH2 0xA91 JUMPI PUSH1 0x40 MLOAD PUSH3 0x461BCD PUSH1 0xE5 SHL DUP2 MSTORE PUSH1 0x4 ADD PUSH2 0x56F SWAP1 PUSH2 0x1551 JUMP JUMPDEST PUSH1 0x5 DUP2 DUP2 SSTORE DUP2 GT ISZERO PUSH2 0x5B9 JUMPI PUSH0 DUP1 REVERT JUMPDEST PUSH1 0x1 PUSH1 0x1 PUSH1 0xA0 SHL SUB DUP4 AND PUSH2 0xB03 JUMPI PUSH1 0x40 MLOAD PUSH3 0x461BCD PUSH1 0xE5 SHL DUP2 MSTORE PUSH1 0x20 PUSH1 0x4 DUP3 ADD MSTORE PUSH1 0x24 DUP1 DUP3 ADD MSTORE PUSH32 0x45524332303A20617070726F76652066726F6D20746865207A65726F20616464 PUSH1 0x44 DUP3 ADD MSTORE PUSH4 0x72657373 PUSH1 0xE0 SHL PUSH1 0x64 DUP3 ADD MSTORE PUSH1 0x84 ADD PUSH2 0x56F JUMP JUMPDEST PUSH1 0x1 PUSH1 0x1 PUSH1 0xA0 SHL SUB DUP3 AND PUSH2 0xB64 JUMPI PUSH1 0x40 MLOAD PUSH3 0x461BCD PUSH1 0xE5 SHL DUP2 MSTORE PUSH1 0x20 PUSH1 0x4 DUP3 ADD MSTORE PUSH1 0x22 PUSH1 0x24 DUP3 ADD MSTORE PUSH32 0x45524332303A20617070726F766520746F20746865207A65726F206164647265 PUSH1 0x44 DUP3 ADD MSTORE PUSH2 0x7373 PUSH1 0xF0 SHL PUSH1 0x64 DUP3 ADD MSTORE PUSH1 0x84 ADD PUSH2 0x56F JUMP JUMPDEST PUSH1 0x1 PUSH1 0x1 PUSH1 0xA0 SHL SUB DUP4 DUP2 AND PUSH0 DUP2 DUP2 MSTORE PUSH1 0x2 PUSH1 0x20 SWAP1 DUP2 MSTORE PUSH1 0x40 DUP1 DUP4 KECCAK256 SWAP5 DUP8 AND DUP1 DUP5 MSTORE SWAP5 DUP3 MSTORE SWAP2 DUP3 SWAP1 KECCAK256 DUP6 SWAP1 SSTORE SWAP1 MLOAD DUP5 DUP2 MSTORE PUSH32 0x8C5BE1E5EBEC7D5BD14F71427D1E84F3DD0314C0F7B2291E5B200AC8C7C3B925 SWAP2 ADD PUSH1 0x40 MLOAD DUP1 SWAP2 SUB SWAP1 LOG3 POP POP POP JUMP JUMPDEST PUSH1 0x1 PUSH1 0x1 PUSH1 0xA0 SHL SUB DUP4 AND PUSH2 0xC28 JUMPI PUSH1 0x40 MLOAD PUSH3 0x461BCD PUSH1 0xE5 SHL DUP2 MSTORE PUSH1 0x20 PUSH1 0x4 DUP3 ADD MSTORE PUSH1 0x25 PUSH1 0x24 DUP3 ADD MSTORE PUSH32 0x45524332303A207472616E736665722066726F6D20746865207A65726F206164 PUSH1 0x44 DUP3 ADD MSTORE PUSH5 0x6472657373 PUSH1 0xD8 SHL PUSH1 0x64 DUP3 ADD MSTORE PUSH1 0x84 ADD PUSH2 0x56F JUMP JUMPDEST PUSH1 0x1 PUSH1 0x1 PUSH1 0xA0 SHL SUB DUP3 AND PUSH2 0xC8A JUMPI PUSH1 0x40 MLOAD PUSH3 0x461BCD PUSH1 0xE5 SHL DUP2 MSTORE PUSH1 0x20 PUSH1 0x4 DUP3 ADD MSTORE PUSH1 0x23 PUSH1 0x24 DUP3 ADD MSTORE PUSH32 0x45524332303A207472616E7366657220746F20746865207A65726F2061646472 PUSH1 0x44 DUP3 ADD MSTORE PUSH3 0x657373 PUSH1 0xE8 SHL PUSH1 0x64 DUP3 ADD MSTORE PUSH1 0x84 ADD PUSH2 0x56F JUMP JUMPDEST PUSH0 DUP2 GT PUSH2 0xCEB JUMPI PUSH1 0x40 MLOAD PUSH3 0x461BCD PUSH1 0xE5 SHL DUP2 MSTORE PUSH1 0x20 PUSH1 0x4 DUP3 ADD MSTORE PUSH1 0x29 PUSH1 0x24 DUP3 ADD MSTORE PUSH32 0x5472616E7366657220616D6F756E74206D757374206265206772656174657220 PUSH1 0x44 DUP3 ADD MSTORE PUSH9 0x7468616E207A65726F PUSH1 0xB8 SHL PUSH1 0x64 DUP3 ADD MSTORE PUSH1 0x84 ADD PUSH2 0x56F JUMP JUMPDEST PUSH0 DUP1 SLOAD PUSH1 0x1 PUSH1 0x1 PUSH1 0xA0 SHL SUB DUP6 DUP2 AND SWAP2 AND EQ DUP1 ISZERO SWAP1 PUSH2 0xD16 JUMPI POP PUSH0 SLOAD PUSH1 0x1 PUSH1 0x1 PUSH1 0xA0 SHL SUB DUP5 DUP2 AND SWAP2 AND EQ ISZERO JUMPDEST ISZERO PUSH2 0xE2E JUMPI PUSH2 0xD3B PUSH1 0x64 PUSH2 0xD35 PUSH1 0x5 SLOAD DUP6 PUSH2 0x1163 SWAP1 SWAP2 SWAP1 PUSH4 0xFFFFFFFF AND JUMP JUMPDEST SWAP1 PUSH2 0x11E8 JUMP JUMPDEST PUSH1 0xC SLOAD SWAP1 SWAP2 POP PUSH1 0x1 PUSH1 0x1 PUSH1 0xA0 SHL SUB DUP5 DUP2 AND SWAP2 AND EQ DUP1 ISZERO PUSH2 0xD64 JUMPI POP PUSH1 0x1 PUSH1 0x1 PUSH1 0xA0 SHL SUB DUP5 AND ADDRESS EQ ISZERO JUMPDEST ISZERO PUSH2 0xDA0 JUMPI PUSH1 0x4 SLOAD PUSH1 0xC8 PUSH1 0x1 PUSH1 0xA0 SHL SWAP1 SWAP2 DIV PUSH1 0x7 SIGNEXTEND SLT ISZERO PUSH2 0xD83 JUMPI PUSH0 DUP1 REVERT JUMPDEST PUSH2 0xD9D PUSH1 0x64 PUSH2 0xD35 PUSH1 0x6 SLOAD DUP6 PUSH2 0x1163 SWAP1 SWAP2 SWAP1 PUSH4 0xFFFFFFFF AND JUMP JUMPDEST SWAP1 POP JUMPDEST ADDRESS PUSH0 SWAP1 DUP2 MSTORE PUSH1 0x1 PUSH1 0x20 MSTORE PUSH1 0x40 SWAP1 KECCAK256 SLOAD PUSH1 0xC SLOAD PUSH1 0x1 PUSH1 0xA8 SHL SWAP1 DIV PUSH1 0xFF AND ISZERO DUP1 ISZERO PUSH2 0xDD6 JUMPI POP PUSH1 0xC SLOAD PUSH1 0x1 PUSH1 0x1 PUSH1 0xA0 SHL SUB DUP6 DUP2 AND SWAP2 AND EQ JUMPDEST DUP1 ISZERO PUSH2 0xDEB JUMPI POP PUSH1 0xC SLOAD PUSH1 0x1 PUSH1 0xB0 SHL SWAP1 DIV PUSH1 0xFF AND JUMPDEST DUP1 ISZERO PUSH2 0xDF8 JUMPI POP PUSH1 0x9 SLOAD DUP2 GT JUMPDEST ISZERO PUSH2 0xE2C JUMPI PUSH2 0xE1A PUSH2 0xE15 DUP5 PUSH2 0xE10 DUP5 PUSH1 0xA SLOAD PUSH2 0x1229 JUMP JUMPDEST PUSH2 0x1229 JUMP JUMPDEST PUSH2 0xFA3 JUMP JUMPDEST SELFBALANCE DUP1 ISZERO PUSH2 0xE2A JUMPI PUSH2 0xE2A SELFBALANCE PUSH2 0x112C JUMP JUMPDEST POP JUMPDEST POP JUMPDEST DUP1 ISZERO PUSH2 0xEA6 JUMPI ADDRESS PUSH0 SWAP1 DUP2 MSTORE PUSH1 0x1 PUSH1 0x20 MSTORE PUSH1 0x40 SWAP1 KECCAK256 SLOAD PUSH2 0xE4D SWAP1 DUP3 PUSH2 0x123D JUMP JUMPDEST ADDRESS PUSH0 DUP2 DUP2 MSTORE PUSH1 0x1 PUSH1 0x20 MSTORE PUSH1 0x40 SWAP1 DUP2 SWAP1 KECCAK256 SWAP3 SWAP1 SWAP3 SSTORE SWAP1 MLOAD PUSH1 0x1 PUSH1 0x1 PUSH1 0xA0 SHL SUB DUP7 AND SWAP1 PUSH32 0xDDF252AD1BE2C89B69C2B068FC378DAA952BA7F163C4A11628F55A4DF523B3EF SWAP1 PUSH2 0xE9D SWAP1 DUP6 DUP2 MSTORE PUSH1 0x20 ADD SWAP1 JUMP JUMPDEST PUSH1 0x40 MLOAD DUP1 SWAP2 SUB SWAP1 LOG3 JUMPDEST PUSH1 0x1 PUSH1 0x1 PUSH1 0xA0 SHL SUB DUP5 AND PUSH0 SWAP1 DUP2 MSTORE PUSH1 0x1 PUSH1 0x20 MSTORE PUSH1 0x40 SWAP1 KECCAK256 SLOAD PUSH2 0xEC8 SWAP1 DUP4 PUSH2 0x129B JUMP JUMPDEST PUSH1 0x1 PUSH1 0x1 PUSH1 0xA0 SHL SUB DUP6 AND PUSH0 SWAP1 DUP2 MSTORE PUSH1 0x1 PUSH1 0x20 MSTORE PUSH1 0x40 SWAP1 KECCAK256 SSTORE PUSH2 0xF0B PUSH2 0xEED DUP4 DUP4 PUSH2 0x129B JUMP JUMPDEST PUSH1 0x1 PUSH1 0x1 PUSH1 0xA0 SHL SUB DUP6 AND PUSH0 SWAP1 DUP2 MSTORE PUSH1 0x1 PUSH1 0x20 MSTORE PUSH1 0x40 SWAP1 KECCAK256 SLOAD SWAP1 PUSH2 0x123D JUMP JUMPDEST PUSH1 0x1 PUSH1 0x1 PUSH1 0xA0 SHL SUB DUP1 DUP6 AND PUSH0 DUP2 DUP2 MSTORE PUSH1 0x1 PUSH1 0x20 MSTORE PUSH1 0x40 SWAP1 KECCAK256 SWAP3 SWAP1 SWAP3 SSTORE DUP6 AND PUSH32 0xDDF252AD1BE2C89B69C2B068FC378DAA952BA7F163C4A11628F55A4DF523B3EF PUSH2 0xF54 DUP6 DUP6 PUSH2 0x129B JUMP JUMPDEST PUSH1 0x40 MLOAD SWAP1 DUP2 MSTORE PUSH1 0x20 ADD PUSH1 0x40 MLOAD DUP1 SWAP2 SUB SWAP1 LOG3 POP POP POP POP JUMP JUMPDEST PUSH0 DUP2 DUP5 DUP5 GT ISZERO PUSH2 0xF8E JUMPI PUSH1 0x40 MLOAD PUSH3 0x461BCD PUSH1 0xE5 SHL DUP2 MSTORE PUSH1 0x4 ADD PUSH2 0x56F SWAP2 SWAP1 PUSH2 0x1308 JUMP JUMPDEST POP PUSH0 PUSH2 0xF9A DUP5 DUP7 PUSH2 0x160A JUMP JUMPDEST SWAP6 SWAP5 POP POP POP POP POP JUMP JUMPDEST PUSH1 0xC DUP1 SLOAD PUSH1 0xFF PUSH1 0xA8 SHL NOT AND PUSH1 0x1 PUSH1 0xA8 SHL OR SWAP1 SSTORE DUP1 ISZERO PUSH2 0x111C JUMPI PUSH1 0xC SLOAD PUSH1 0x1 PUSH1 0xA0 SHL SWAP1 DIV PUSH1 0xFF AND ISZERO PUSH2 0x111C JUMPI PUSH1 0x40 DUP1 MLOAD PUSH1 0x2 DUP1 DUP3 MSTORE PUSH1 0x60 DUP3 ADD DUP4 MSTORE PUSH0 SWAP3 PUSH1 0x20 DUP4 ADD SWAP1 DUP1 CALLDATASIZE DUP4 CALLDATACOPY ADD SWAP1 POP POP SWAP1 POP ADDRESS DUP2 PUSH0 DUP2 MLOAD DUP2 LT PUSH2 0x1001 JUMPI PUSH2 0x1001 PUSH2 0x161D JUMP JUMPDEST PUSH1 0x1 PUSH1 0x1 PUSH1 0xA0 SHL SUB SWAP3 DUP4 AND PUSH1 0x20 SWAP2 DUP3 MUL SWAP3 SWAP1 SWAP3 ADD DUP2 ADD SWAP2 SWAP1 SWAP2 MSTORE PUSH1 0xB SLOAD PUSH1 0x40 DUP1 MLOAD PUSH4 0x15AB88C9 PUSH1 0xE3 SHL DUP2 MSTORE SWAP1 MLOAD SWAP2 SWAP1 SWAP4 AND SWAP3 PUSH4 0xAD5C4648 SWAP3 PUSH1 0x4 DUP1 DUP4 ADD SWAP4 SWAP2 SWAP3 DUP3 SWAP1 SUB ADD DUP2 DUP7 GAS STATICCALL ISZERO DUP1 ISZERO PUSH2 0x1058 JUMPI RETURNDATASIZE PUSH0 DUP1 RETURNDATACOPY RETURNDATASIZE PUSH0 REVERT JUMPDEST POP POP POP POP PUSH1 0x40 MLOAD RETURNDATASIZE PUSH1 0x1F NOT PUSH1 0x1F DUP3 ADD AND DUP3 ADD DUP1 PUSH1 0x40 MSTORE POP DUP2 ADD SWAP1 PUSH2 0x107C SWAP2 SWAP1 PUSH2 0x15A5 JUMP JUMPDEST DUP2 PUSH1 0x1 DUP2 MLOAD DUP2 LT PUSH2 0x108F JUMPI PUSH2 0x108F PUSH2 0x161D JUMP JUMPDEST PUSH1 0x1 PUSH1 0x1 PUSH1 0xA0 SHL SUB SWAP3 DUP4 AND PUSH1 0x20 SWAP2 DUP3 MUL SWAP3 SWAP1 SWAP3 ADD ADD MSTORE PUSH1 0xB SLOAD PUSH2 0x10B5 SWAP2 ADDRESS SWAP2 AND DUP5 PUSH2 0xAA1 JUMP JUMPDEST PUSH1 0xB SLOAD PUSH1 0x40 MLOAD PUSH4 0x791AC947 PUSH1 0xE0 SHL DUP2 MSTORE PUSH1 0x1 PUSH1 0x1 PUSH1 0xA0 SHL SUB SWAP1 SWAP2 AND SWAP1 PUSH4 0x791AC947 SWAP1 PUSH2 0x10ED SWAP1 DUP6 SWAP1 PUSH0 SWAP1 DUP7 SWAP1 ADDRESS SWAP1 TIMESTAMP SWAP1 PUSH1 0x4 ADD PUSH2 0x1631 JUMP JUMPDEST PUSH0 PUSH1 0x40 MLOAD DUP1 DUP4 SUB DUP2 PUSH0 DUP8 DUP1 EXTCODESIZE ISZERO DUP1 ISZERO PUSH2 0x1104 JUMPI PUSH0 DUP1 REVERT JUMPDEST POP GAS CALL ISZERO DUP1 ISZERO PUSH2 0x1116 JUMPI RETURNDATASIZE PUSH0 DUP1 RETURNDATACOPY RETURNDATASIZE PUSH0 REVERT JUMPDEST POP POP POP POP POP JUMPDEST POP PUSH1 0xC DUP1 SLOAD PUSH1 0xFF PUSH1 0xA8 SHL NOT AND SWAP1 SSTORE JUMP JUMPDEST PUSH1 0x4 SLOAD PUSH1 0x40 MLOAD PUSH1 0x1 PUSH1 0x1 PUSH1 0xA0 SHL SUB SWAP1 SWAP2 AND SWAP1 DUP3 ISZERO PUSH2 0x8FC MUL SWAP1 DUP4 SWAP1 PUSH0 DUP2 DUP2 DUP2 DUP6 DUP9 DUP9 CALL SWAP4 POP POP POP POP ISZERO DUP1 ISZERO PUSH2 0x542 JUMPI RETURNDATASIZE PUSH0 DUP1 RETURNDATACOPY RETURNDATASIZE PUSH0 REVERT JUMPDEST PUSH0 DUP3 PUSH0 SUB PUSH2 0x1172 JUMPI POP PUSH0 PUSH2 0x468 JUMP JUMPDEST PUSH0 PUSH2 0x117D DUP4 DUP6 PUSH2 0x153A JUMP JUMPDEST SWAP1 POP DUP3 PUSH2 0x118A DUP6 DUP4 PUSH2 0x1586 JUMP JUMPDEST EQ PUSH2 0x11E1 JUMPI PUSH1 0x40 MLOAD PUSH3 0x461BCD PUSH1 0xE5 SHL DUP2 MSTORE PUSH1 0x20 PUSH1 0x4 DUP3 ADD MSTORE PUSH1 0x21 PUSH1 0x24 DUP3 ADD MSTORE PUSH32 0x536166654D6174683A206D756C7469706C69636174696F6E206F766572666C6F PUSH1 0x44 DUP3 ADD MSTORE PUSH1 0x77 PUSH1 0xF8 SHL PUSH1 0x64 DUP3 ADD MSTORE PUSH1 0x84 ADD PUSH2 0x56F JUMP JUMPDEST SWAP4 SWAP3 POP POP POP JUMP JUMPDEST PUSH0 PUSH2 0x11E1 DUP4 DUP4 PUSH1 0x40 MLOAD DUP1 PUSH1 0x40 ADD PUSH1 0x40 MSTORE DUP1 PUSH1 0x1A DUP2 MSTORE PUSH1 0x20 ADD PUSH32 0x536166654D6174683A206469766973696F6E206279207A65726F000000000000 DUP2 MSTORE POP PUSH2 0x12DC JUMP JUMPDEST PUSH0 DUP2 DUP4 GT PUSH2 0x1237 JUMPI DUP3 PUSH2 0x11E1 JUMP JUMPDEST POP SWAP2 SWAP1 POP JUMP JUMPDEST PUSH0 DUP1 PUSH2 0x1249 DUP4 DUP6 PUSH2 0x16A0 JUMP JUMPDEST SWAP1 POP DUP4 DUP2 LT ISZERO PUSH2 0x11E1 JUMPI PUSH1 0x40 MLOAD PUSH3 0x461BCD PUSH1 0xE5 SHL DUP2 MSTORE PUSH1 0x20 PUSH1 0x4 DUP3 ADD MSTORE PUSH1 0x1B PUSH1 0x24 DUP3 ADD MSTORE PUSH32 0x536166654D6174683A206164646974696F6E206F766572666C6F770000000000 PUSH1 0x44 DUP3 ADD MSTORE PUSH1 0x64 ADD PUSH2 0x56F JUMP JUMPDEST PUSH0 PUSH2 0x11E1 DUP4 DUP4 PUSH1 0x40 MLOAD DUP1 PUSH1 0x40 ADD PUSH1 0x40 MSTORE DUP1 PUSH1 0x1E DUP2 MSTORE PUSH1 0x20 ADD PUSH32 0x536166654D6174683A207375627472616374696F6E206F766572666C6F770000 DUP2 MSTORE POP PUSH2 0xF6B JUMP JUMPDEST PUSH0 DUP2 DUP4 PUSH2 0x12FC JUMPI PUSH1 0x40 MLOAD PUSH3 0x461BCD PUSH1 0xE5 SHL DUP2 MSTORE PUSH1 0x4 ADD PUSH2 0x56F SWAP2 SWAP1 PUSH2 0x1308 JUMP JUMPDEST POP PUSH0 PUSH2 0xF9A DUP5 DUP7 PUSH2 0x1586 JUMP JUMPDEST PUSH0 PUSH1 0x20 DUP1 DUP4 MSTORE DUP4 MLOAD DUP1 DUP3 DUP6 ADD MSTORE PUSH0 JUMPDEST DUP2 DUP2 LT ISZERO PUSH2 0x1333 JUMPI DUP6 DUP2 ADD DUP4 ADD MLOAD DUP6 DUP3 ADD PUSH1 0x40 ADD MSTORE DUP3 ADD PUSH2 0x1317 JUMP JUMPDEST POP PUSH0 PUSH1 0x40 DUP3 DUP7 ADD ADD MSTORE PUSH1 0x40 PUSH1 0x1F NOT PUSH1 0x1F DUP4 ADD AND DUP6 ADD ADD SWAP3 POP POP POP SWAP3 SWAP2 POP POP JUMP JUMPDEST PUSH1 0x1 PUSH1 0x1 PUSH1 0xA0 SHL SUB DUP2 AND DUP2 EQ PUSH2 0x5B9 JUMPI PUSH0 DUP1 REVERT JUMPDEST PUSH0 DUP1 PUSH1 0x40 DUP4 DUP6 SUB SLT ISZERO PUSH2 0x1378 JUMPI PUSH0 DUP1 REVERT JUMPDEST DUP3 CALLDATALOAD PUSH2 0x1383 DUP2 PUSH2 0x1353 JUMP JUMPDEST SWAP5 PUSH1 0x20 SWAP4 SWAP1 SWAP4 ADD CALLDATALOAD SWAP4 POP POP POP JUMP JUMPDEST PUSH0 DUP1 PUSH0 PUSH1 0x60 DUP5 DUP7 SUB SLT ISZERO PUSH2 0x13A3 JUMPI PUSH0 DUP1 REVERT JUMPDEST DUP4 CALLDATALOAD PUSH2 0x13AE DUP2 PUSH2 0x1353 JUMP JUMPDEST SWAP3 POP PUSH1 0x20 DUP5 ADD CALLDATALOAD PUSH2 0x13BE DUP2 PUSH2 0x1353 JUMP JUMPDEST SWAP3 SWAP6 SWAP3 SWAP5 POP POP POP PUSH1 0x40 SWAP2 SWAP1 SWAP2 ADD CALLDATALOAD SWAP1 JUMP JUMPDEST PUSH0 PUSH1 0x20 DUP3 DUP5 SUB SLT ISZERO PUSH2 0x13DF JUMPI PUSH0 DUP1 REVERT JUMPDEST POP CALLDATALOAD SWAP2 SWAP1 POP JUMP JUMPDEST PUSH0 PUSH1 0x20 DUP3 DUP5 SUB SLT ISZERO PUSH2 0x13F6 JUMPI PUSH0 DUP1 REVERT JUMPDEST DUP2 CALLDATALOAD PUSH2 0x11E1 DUP2 PUSH2 0x1353 JUMP JUMPDEST PUSH0 DUP1 PUSH1 0x40 DUP4 DUP6 SUB SLT ISZERO PUSH2 0x1412 JUMPI PUSH0 DUP1 REVERT JUMPDEST DUP3 CALLDATALOAD PUSH2 0x141D DUP2 PUSH2 0x1353 JUMP JUMPDEST SWAP2 POP PUSH1 0x20 DUP4 ADD CALLDATALOAD PUSH2 0x142D DUP2 PUSH2 0x1353 JUMP JUMPDEST DUP1 SWAP2 POP POP SWAP3 POP SWAP3 SWAP1 POP JUMP JUMPDEST PUSH4 0x4E487B71 PUSH1 0xE0 SHL PUSH0 MSTORE PUSH1 0x11 PUSH1 0x4 MSTORE PUSH1 0x24 PUSH0 REVERT JUMPDEST PUSH1 0x1 DUP2 DUP2 JUMPDEST DUP1 DUP6 GT ISZERO PUSH2 0x1486 JUMPI DUP2 PUSH0 NOT DIV DUP3 GT ISZERO PUSH2 0x146C JUMPI PUSH2 0x146C PUSH2 0x1438 JUMP JUMPDEST DUP1 DUP6 AND ISZERO PUSH2 0x1479 JUMPI SWAP2 DUP2 MUL SWAP2 JUMPDEST SWAP4 DUP5 SHR SWAP4 SWAP1 DUP1 MUL SWAP1 PUSH2 0x1451 JUMP JUMPDEST POP SWAP3 POP SWAP3 SWAP1 POP JUMP JUMPDEST PUSH0 DUP3 PUSH2 0x149C JUMPI POP PUSH1 0x1 PUSH2 0x468 JUMP JUMPDEST DUP2 PUSH2 0x14A8 JUMPI POP PUSH0 PUSH2 0x468 JUMP JUMPDEST DUP2 PUSH1 0x1 DUP2 EQ PUSH2 0x14BE JUMPI PUSH1 0x2 DUP2 EQ PUSH2 0x14C8 JUMPI PUSH2 0x14E4 JUMP JUMPDEST PUSH1 0x1 SWAP2 POP POP PUSH2 0x468 JUMP JUMPDEST PUSH1 0xFF DUP5 GT ISZERO PUSH2 0x14D9 JUMPI PUSH2 0x14D9 PUSH2 0x1438 JUMP JUMPDEST POP POP PUSH1 0x1 DUP3 SHL PUSH2 0x468 JUMP JUMPDEST POP PUSH1 0x20 DUP4 LT PUSH2 0x133 DUP4 LT AND PUSH1 0x4E DUP5 LT PUSH1 0xB DUP5 LT AND OR ISZERO PUSH2 0x1507 JUMPI POP DUP2 DUP2 EXP PUSH2 0x468 JUMP JUMPDEST PUSH2 0x1511 DUP4 DUP4 PUSH2 0x144C JUMP JUMPDEST DUP1 PUSH0 NOT DIV DUP3 GT ISZERO PUSH2 0x1524 JUMPI PUSH2 0x1524 PUSH2 0x1438 JUMP JUMPDEST MUL SWAP4 SWAP3 POP POP POP JUMP JUMPDEST PUSH0 PUSH2 0x11E1 PUSH1 0xFF DUP5 AND DUP4 PUSH2 0x148E JUMP JUMPDEST DUP1 DUP3 MUL DUP2 ISZERO DUP3 DUP3 DIV DUP5 EQ OR PUSH2 0x468 JUMPI PUSH2 0x468 PUSH2 0x1438 JUMP JUMPDEST PUSH1 0x20 DUP1 DUP3 MSTORE DUP2 DUP2 ADD MSTORE PUSH32 0x4F776E61626C653A2063616C6C6572206973206E6F7420746865206F776E6572 PUSH1 0x40 DUP3 ADD MSTORE PUSH1 0x60 ADD SWAP1 JUMP JUMPDEST PUSH0 DUP3 PUSH2 0x15A0 JUMPI PUSH4 0x4E487B71 PUSH1 0xE0 SHL PUSH0 MSTORE PUSH1 0x12 PUSH1 0x4 MSTORE PUSH1 0x24 PUSH0 REVERT JUMPDEST POP DIV SWAP1 JUMP JUMPDEST PUSH0 PUSH1 0x20 DUP3 DUP5 SUB SLT ISZERO PUSH2 0x15B5 JUMPI PUSH0 DUP1 REVERT JUMPDEST DUP2 MLOAD PUSH2 0x11E1 DUP2 PUSH2 0x1353 JUMP JUMPDEST PUSH0 DUP1 PUSH0 PUSH1 0x60 DUP5 DUP7 SUB SLT ISZERO PUSH2 0x15D2 JUMPI PUSH0 DUP1 REVERT JUMPDEST DUP4 MLOAD SWAP3 POP PUSH1 0x20 DUP5 ADD MLOAD SWAP2 POP PUSH1 0x40 DUP5 ADD MLOAD SWAP1 POP SWAP3 POP SWAP3 POP SWAP3 JUMP JUMPDEST PUSH0 PUSH1 0x20 DUP3 DUP5 SUB SLT ISZERO PUSH2 0x15FB JUMPI PUSH0 DUP1 REVERT JUMPDEST DUP2 MLOAD DUP1 ISZERO ISZERO DUP2 EQ PUSH2 0x11E1 JUMPI PUSH0 DUP1 REVERT JUMPDEST DUP2 DUP2 SUB DUP2 DUP2 GT ISZERO PUSH2 0x468 JUMPI PUSH2 0x468 PUSH2 0x1438 JUMP JUMPDEST PUSH4 0x4E487B71 PUSH1 0xE0 SHL PUSH0 MSTORE PUSH1 0x32 PUSH1 0x4 MSTORE PUSH1 0x24 PUSH0 REVERT JUMPDEST PUSH0 PUSH1 0xA0 DUP3 ADD DUP8 DUP4 MSTORE PUSH1 0x20 DUP8 DUP2 DUP6 ADD MSTORE PUSH1 0xA0 PUSH1 0x40 DUP6 ADD MSTORE DUP2 DUP8 MLOAD DUP1 DUP5 MSTORE PUSH1 0xC0 DUP7 ADD SWAP2 POP DUP3 DUP10 ADD SWAP4 POP PUSH0 JUMPDEST DUP2 DUP2 LT ISZERO PUSH2 0x167F JUMPI DUP5 MLOAD PUSH1 0x1 PUSH1 0x1 PUSH1 0xA0 SHL SUB AND DUP4 MSTORE SWAP4 DUP4 ADD SWAP4 SWAP2 DUP4 ADD SWAP2 PUSH1 0x1 ADD PUSH2 0x165A JUMP JUMPDEST POP POP PUSH1 0x1 PUSH1 0x1 PUSH1 0xA0 SHL SUB SWAP7 SWAP1 SWAP7 AND PUSH1 0x60 DUP6 ADD MSTORE POP POP POP PUSH1 0x80 ADD MSTORE SWAP4 SWAP3 POP POP POP JUMP JUMPDEST DUP1 DUP3 ADD DUP1 DUP3 GT ISZERO PUSH2 0x468 JUMPI PUSH2 0x468 PUSH2 0x1438 JUMP INVALID GASLIMIT MSTORE NUMBER ORIGIN ADDRESS GASPRICE KECCAK256 PUSH21 0x72616E7366657220616D6F756E7420657863656564 PUSH20 0x20616C6C6F77616E6365A2646970667358221220 DUP10 0x2E 0x5E 0xCB 0xAE 0xE8 ISZERO SELFBALANCE SWAP1 0xBF GASPRICE 0x5C 0xE0 SLT JUMPI DUP12 0x5C PC PUSH15 0xE1AA2483BF8DC38C6B8624DD4B6473 PUSH16 0x6C634300081500330000000000000000 "
		},
		"gasEstimates": {
			"creation": {
				"codeDepositCost": "1181000",
				"executionCost": "infinite",
				"totalCost": "infinite"
			},
			"external": {
				"DEAD_WALLET()": "348",
				"_maxTaxSwap()": "2362",
				"_maxTxAmount()": "2317",
				"_maxWalletSize()": "2383",
				"_taxSwapThreshold()": "2360",
				"allowance(address,address)": "infinite",
				"approve(address,uint256)": "24633",
				"balanceOf(address)": "2639",
				"decimals()": "199",
				"manualSwap()": "infinite",
				"name()": "infinite",
				"openTrading()": "infinite",
				"owner()": "2385",
				"removelimits()": "24444",
				"renounceOwnership()": "30294",
				"setFeeAddressWallets(address)": "26747",
				"setMaxTXlimit(uint256)": "infinite",
				"symbol()": "infinite",
				"totalSupply()": "infinite",
				"transfer(address,uint256)": "infinite",
				"transferFrom(address,address,uint256)": "infinite",
				"updateFeeSell(uint256)": "24517",
				"update_BuyFee(uint256)": "24624"
			},
			"internal": {
				"_approve(address,address,uint256)": "infinite",
				"_transfer(address,address,uint256)": "infinite",
				"min(uint256,uint256)": "60",
				"sendETHToFee(uint256)": "infinite",
				"swapTokensForEth(uint256)": "infinite"
			}
		},
		"methodIdentifiers": {
			"DEAD_WALLET()": "a01c3483",
			"_maxTaxSwap()": "0faee56f",
			"_maxTxAmount()": "7d1db4a5",
			"_maxWalletSize()": "8f9a55c0",
			"_taxSwapThreshold()": "bf474bed",
			"allowance(address,address)": "dd62ed3e",
			"approve(address,uint256)": "095ea7b3",
			"balanceOf(address)": "70a08231",
			"decimals()": "313ce567",
			"manualSwap()": "51bc3c85",
			"name()": "06fdde03",
			"openTrading()": "c9567bf9",
			"owner()": "8da5cb5b",
			"removelimits()": "5e4ae81b",
			"renounceOwnership()": "715018a6",
			"setFeeAddressWallets(address)": "879120fc",
			"setMaxTXlimit(uint256)": "5c579404",
			"symbol()": "95d89b41",
			"totalSupply()": "18160ddd",
			"transfer(address,uint256)": "a9059cbb",
			"transferFrom(address,address,uint256)": "23b872dd",
			"updateFeeSell(uint256)": "a01ce408",
			"update_BuyFee(uint256)": "e89e109d"
		}
	},
	"abi": [
		{
			"inputs": [],
			"stateMutability": "nonpayable",
			"type": "constructor"
		},
		{
			"anonymous": false,
			"inputs": [
				{
					"indexed": true,
					"internalType": "address",
					"name": "owner",
					"type": "address"
				},
				{
					"indexed": true,
					"internalType": "address",
					"name": "spender",
					"type": "address"
				},
				{
					"indexed": false,
					"internalType": "uint256",
					"name": "value",
					"type": "uint256"
				}
			],
			"name": "Approval",
			"type": "event"
		},
		{
			"anonymous": false,
			"inputs": [
				{
					"indexed": false,
					"internalType": "uint256",
					"name": "_maxTxAmount",
					"type": "uint256"
				}
			],
			"name": "MaxTxAmountUpdated",
			"type": "event"
		},
		{
			"anonymous": false,
			"inputs": [
				{
					"indexed": true,
					"internalType": "address",
					"name": "previousOwner",
					"type": "address"
				},
				{
					"indexed": true,
					"internalType": "address",
					"name": "newOwner",
					"type": "address"
				}
			],
			"name": "OwnershipTransferred",
			"type": "event"
		},
		{
			"anonymous": false,
			"inputs": [
				{
					"indexed": true,
					"internalType": "address",
					"name": "from",
					"type": "address"
				},
				{
					"indexed": true,
					"internalType": "address",
					"name": "to",
					"type": "address"
				},
				{
					"indexed": false,
					"internalType": "uint256",
					"name": "value",
					"type": "uint256"
				}
			],
			"name": "Transfer",
			"type": "event"
		},
		{
			"inputs": [],
			"name": "DEAD_WALLET",
			"outputs": [
				{
					"internalType": "address",
					"name": "",
					"type": "address"
				}
			],
			"stateMutability": "view",
			"type": "function"
		},
		{
			"inputs": [],
			"name": "_maxTaxSwap",
			"outputs": [
				{
					"internalType": "uint256",
					"name": "",
					"type": "uint256"
				}
			],
			"stateMutability": "view",
			"type": "function"
		},
		{
			"inputs": [],
			"name": "_maxTxAmount",
			"outputs": [
				{
					"internalType": "uint256",
					"name": "",
					"type": "uint256"
				}
			],
			"stateMutability": "view",
			"type": "function"
		},
		{
			"inputs": [],
			"name": "_maxWalletSize",
			"outputs": [
				{
					"internalType": "uint256",
					"name": "",
					"type": "uint256"
				}
			],
			"stateMutability": "view",
			"type": "function"
		},
		{
			"inputs": [],
			"name": "_taxSwapThreshold",
			"outputs": [
				{
					"internalType": "uint256",
					"name": "",
					"type": "uint256"
				}
			],
			"stateMutability": "view",
			"type": "function"
		},
		{
			"inputs": [
				{
					"internalType": "address",
					"name": "owner",
					"type": "address"
				},
				{
					"internalType": "address",
					"name": "spender",
					"type": "address"
				}
			],
			"name": "allowance",
			"outputs": [
				{
					"internalType": "uint256",
					"name": "",
					"type": "uint256"
				}
			],
			"stateMutability": "view",
			"type": "function"
		},
		{
			"inputs": [
				{
					"internalType": "address",
					"name": "spender",
					"type": "address"
				},
				{
					"internalType": "uint256",
					"name": "amount",
					"type": "uint256"
				}
			],
			"name": "approve",
			"outputs": [
				{
					"internalType": "bool",
					"name": "",
					"type": "bool"
				}
			],
			"stateMutability": "nonpayable",
			"type": "function"
		},
		{
			"inputs": [
				{
					"internalType": "address",
					"name": "account",
					"type": "address"
				}
			],
			"name": "balanceOf",
			"outputs": [
				{
					"internalType": "uint256",
					"name": "",
					"type": "uint256"
				}
			],
			"stateMutability": "view",
			"type": "function"
		},
		{
			"inputs": [],
			"name": "decimals",
			"outputs": [
				{
					"internalType": "uint8",
					"name": "",
					"type": "uint8"
				}
			],
			"stateMutability": "pure",
			"type": "function"
		},
		{
			"inputs": [],
			"name": "manualSwap",
			"outputs": [],
			"stateMutability": "nonpayable",
			"type": "function"
		},
		{
			"inputs": [],
			"name": "name",
			"outputs": [
				{
					"internalType": "string",
					"name": "",
					"type": "string"
				}
			],
			"stateMutability": "pure",
			"type": "function"
		},
		{
			"inputs": [],
			"name": "openTrading",
			"outputs": [],
			"stateMutability": "nonpayable",
			"type": "function"
		},
		{
			"inputs": [],
			"name": "owner",
			"outputs": [
				{
					"internalType": "address",
					"name": "",
					"type": "address"
				}
			],
			"stateMutability": "view",
			"type": "function"
		},
		{
			"inputs": [],
			"name": "removelimits",
			"outputs": [],
			"stateMutability": "nonpayable",
			"type": "function"
		},
		{
			"inputs": [],
			"name": "renounceOwnership",
			"outputs": [],
			"stateMutability": "nonpayable",
			"type": "function"
		},
		{
			"inputs": [
				{
					"internalType": "address payable",
					"name": "newWallet",
					"type": "address"
				}
			],
			"name": "setFeeAddressWallets",
			"outputs": [],
			"stateMutability": "nonpayable",
			"type": "function"
		},
		{
			"inputs": [
				{
					"internalType": "uint256",
					"name": "newTxAmt",
					"type": "uint256"
				}
			],
			"name": "setMaxTXlimit",
			"outputs": [],
			"stateMutability": "nonpayable",
			"type": "function"
		},
		{
			"inputs": [],
			"name": "symbol",
			"outputs": [
				{
					"internalType": "string",
					"name": "",
					"type": "string"
				}
			],
			"stateMutability": "pure",
			"type": "function"
		},
		{
			"inputs": [],
			"name": "totalSupply",
			"outputs": [
				{
					"internalType": "uint256",
					"name": "",
					"type": "uint256"
				}
			],
			"stateMutability": "pure",
			"type": "function"
		},
		{
			"inputs": [
				{
					"internalType": "address",
					"name": "recipient",
					"type": "address"
				},
				{
					"internalType": "uint256",
					"name": "amount",
					"type": "uint256"
				}
			],
			"name": "transfer",
			"outputs": [
				{
					"internalType": "bool",
					"name": "",
					"type": "bool"
				}
			],
			"stateMutability": "nonpayable",
			"type": "function"
		},
		{
			"inputs": [
				{
					"internalType": "address",
					"name": "sender",
					"type": "address"
				},
				{
					"internalType": "address",
					"name": "recipient",
					"type": "address"
				},
				{
					"internalType": "uint256",
					"name": "amount",
					"type": "uint256"
				}
			],
			"name": "transferFrom",
			"outputs": [
				{
					"internalType": "bool",
					"name": "",
					"type": "bool"
				}
			],
			"stateMutability": "nonpayable",
			"type": "function"
		},
		{
			"inputs": [
				{
					"internalType": "uint256",
					"name": "newSellTax",
					"type": "uint256"
				}
			],
			"name": "updateFeeSell",
			"outputs": [],
			"stateMutability": "nonpayable",
			"type": "function"
		},
		{
			"inputs": [
				{
					"internalType": "uint256",
					"name": "newBuyTax",
					"type": "uint256"
				}
			],
			"name": "update_BuyFee",
			"outputs": [],
			"stateMutability": "nonpayable",
			"type": "function"
		},
		{
			"stateMutability": "payable",
			"type": "receive"
		}
	]
}