{
	"contracts/stakingoat.sol": {
		"OatStaking": {
			"abi": [
				{
					"inputs": [
						{
							"internalType": "address",
							"name": "_tokenAddress",
							"type": "address"
						}
					],
					"stateMutability": "nonpayable",
					"type": "constructor"
				},
				{
					"anonymous": false,
					"inputs": [
						{
							"indexed": true,
							"internalType": "address",
							"name": "previousOwner",
							"type": "address"
						},
						{
							"indexed": true,
							"internalType": "address",
							"name": "newOwner",
							"type": "address"
						}
					],
					"name": "OwnershipTransferred",
					"type": "event"
				},
				{
					"anonymous": false,
					"inputs": [
						{
							"indexed": false,
							"internalType": "address",
							"name": "_address",
							"type": "address"
						},
						{
							"indexed": false,
							"internalType": "uint256",
							"name": "_amount",
							"type": "uint256"
						},
						{
							"indexed": false,
							"internalType": "uint256",
							"name": "_timestamp",
							"type": "uint256"
						}
					],
					"name": "RewardSent",
					"type": "event"
				},
				{
					"inputs": [],
					"name": "_totalStakes",
					"outputs": [
						{
							"internalType": "uint256",
							"name": "",
							"type": "uint256"
						}
					],
					"stateMutability": "view",
					"type": "function"
				},
				{
					"inputs": [],
					"name": "availableTokens",
					"outputs": [
						{
							"internalType": "uint256",
							"name": "",
							"type": "uint256"
						}
					],
					"stateMutability": "view",
					"type": "function"
				},
				{
					"inputs": [
						{
							"internalType": "address",
							"name": "account",
							"type": "address"
						}
					],
					"name": "balanceuser",
					"outputs": [
						{
							"internalType": "uint256",
							"name": "b",
							"type": "uint256"
						}
					],
					"stateMutability": "view",
					"type": "function"
				},
				{
					"inputs": [
						{
							"internalType": "uint256",
							"name": "_stake",
							"type": "uint256"
						},
						{
							"internalType": "uint256",
							"name": "_stakingPackage",
							"type": "uint256"
						},
						{
							"internalType": "address",
							"name": "account",
							"type": "address"
						}
					],
					"name": "canStake",
					"outputs": [
						{
							"internalType": "bool",
							"name": "b",
							"type": "bool"
						}
					],
					"stateMutability": "view",
					"type": "function"
				},
				{
					"inputs": [],
					"name": "claimReward",
					"outputs": [],
					"stateMutability": "nonpayable",
					"type": "function"
				},
				{
					"inputs": [
						{
							"internalType": "uint256",
							"name": "_stake",
							"type": "uint256"
						},
						{
							"internalType": "uint256",
							"name": "_stakingPackage",
							"type": "uint256"
						}
					],
					"name": "createStake",
					"outputs": [],
					"stateMutability": "nonpayable",
					"type": "function"
				},
				{
					"inputs": [],
					"name": "distributeReward",
					"outputs": [],
					"stateMutability": "nonpayable",
					"type": "function"
				},
				{
					"inputs": [],
					"name": "getState",
					"outputs": [
						{
							"internalType": "uint256",
							"name": "",
							"type": "uint256"
						},
						{
							"internalType": "uint256",
							"name": "",
							"type": "uint256"
						},
						{
							"internalType": "uint256",
							"name": "",
							"type": "uint256"
						}
					],
					"stateMutability": "view",
					"type": "function"
				},
				{
					"inputs": [],
					"name": "getTotalStakedAmount",
					"outputs": [
						{
							"internalType": "uint256",
							"name": "",
							"type": "uint256"
						}
					],
					"stateMutability": "view",
					"type": "function"
				},
				{
					"inputs": [],
					"name": "getTotalStakers",
					"outputs": [
						{
							"internalType": "uint256",
							"name": "",
							"type": "uint256"
						}
					],
					"stateMutability": "view",
					"type": "function"
				},
				{
					"inputs": [
						{
							"internalType": "address",
							"name": "_address",
							"type": "address"
						}
					],
					"name": "isStakeholder",
					"outputs": [
						{
							"internalType": "bool",
							"name": "",
							"type": "bool"
						},
						{
							"internalType": "uint256",
							"name": "",
							"type": "uint256"
						}
					],
					"stateMutability": "view",
					"type": "function"
				},
				{
					"inputs": [],
					"name": "owner",
					"outputs": [
						{
							"internalType": "address",
							"name": "",
							"type": "address"
						}
					],
					"stateMutability": "view",
					"type": "function"
				},
				{
					"inputs": [],
					"name": "removeAllMyStakes",
					"outputs": [],
					"stateMutability": "nonpayable",
					"type": "function"
				},
				{
					"inputs": [
						{
							"internalType": "uint256",
							"name": "_stake",
							"type": "uint256"
						}
					],
					"name": "removeSomeStake",
					"outputs": [],
					"stateMutability": "nonpayable",
					"type": "function"
				},
				{
					"inputs": [],
					"name": "renounceOwnership",
					"outputs": [],
					"stateMutability": "nonpayable",
					"type": "function"
				},
				{
					"inputs": [],
					"name": "rewardDistributionIndex",
					"outputs": [
						{
							"internalType": "uint256",
							"name": "",
							"type": "uint256"
						}
					],
					"stateMutability": "view",
					"type": "function"
				},
				{
					"inputs": [
						{
							"internalType": "address",
							"name": "_stakeholder",
							"type": "address"
						}
					],
					"name": "rewardOf",
					"outputs": [
						{
							"internalType": "uint256",
							"name": "",
							"type": "uint256"
						}
					],
					"stateMutability": "view",
					"type": "function"
				},
				{
					"inputs": [
						{
							"internalType": "address",
							"name": "_tokenAddress",
							"type": "address"
						}
					],
					"name": "setAddress",
					"outputs": [],
					"stateMutability": "nonpayable",
					"type": "function"
				},
				{
					"inputs": [
						{
							"internalType": "uint256",
							"name": "_percentage",
							"type": "uint256"
						}
					],
					"name": "setApyPercentage",
					"outputs": [],
					"stateMutability": "nonpayable",
					"type": "function"
				},
				{
					"inputs": [
						{
							"internalType": "address",
							"name": "_stakeholder",
							"type": "address"
						}
					],
					"name": "stakeOf",
					"outputs": [
						{
							"internalType": "uint256",
							"name": "",
							"type": "uint256"
						}
					],
					"stateMutability": "view",
					"type": "function"
				},
				{
					"inputs": [],
					"name": "tokenAddress",
					"outputs": [
						{
							"internalType": "address",
							"name": "",
							"type": "address"
						}
					],
					"stateMutability": "view",
					"type": "function"
				},
				{
					"inputs": [],
					"name": "totalRewardDistributed",
					"outputs": [
						{
							"internalType": "uint256",
							"name": "",
							"type": "uint256"
						}
					],
					"stateMutability": "view",
					"type": "function"
				},
				{
					"inputs": [],
					"name": "totalStakes",
					"outputs": [
						{
							"internalType": "uint256",
							"name": "",
							"type": "uint256"
						}
					],
					"stateMutability": "view",
					"type": "function"
				},
				{
					"inputs": [
						{
							"internalType": "address",
							"name": "newOwner",
							"type": "address"
						}
					],
					"name": "transferOwnership",
					"outputs": [],
					"stateMutability": "nonpayable",
					"type": "function"
				}
			],
			"devdoc": {
				"kind": "dev",
				"methods": {},
				"version": 1
			},
			"evm": {
				"assembly": "    /* \"contracts/stakingoat.sol\":11917:19372  contract OatStaking is Ownable {... */\n  mstore(0x40, 0x80)\n    /* \"contracts/stakingoat.sol\":12134:12135  0 */\n  0x00\n    /* \"contracts/stakingoat.sol\":12093:12135  uint256 public rewardDistributionIndex = 0 */\n  0x04\n  sstore\n    /* \"contracts/stakingoat.sol\":12174:12175  0 */\n  0x00\n    /* \"contracts/stakingoat.sol\":12144:12175  uint256 public _totalStakes = 0 */\n  0x05\n  sstore\n    /* \"contracts/stakingoat.sol\":12209:12215  7 days */\n  0x093a80\n    /* \"contracts/stakingoat.sol\":12182:12215  uint256 private uintTime = 7 days */\n  0x06\n  sstore\n    /* \"contracts/stakingoat.sol\":12262:12263  0 */\n  0x00\n    /* \"contracts/stakingoat.sol\":12222:12263  uint256 public totalRewardDistributed = 0 */\n  0x07\n  sstore\n    /* \"contracts/stakingoat.sol\":12586:12734  constructor(address _tokenAddress) {... */\n  callvalue\n  dup1\n  iszero\n  tag_1\n  jumpi\n  0x00\n  dup1\n  revert\ntag_1:\n  pop\n  mload(0x40)\n  sub(codesize, bytecodeSize)\n  dup1\n  bytecodeSize\n  dup4\n  codecopy\n  dup2\n  dup2\n  add\n  0x40\n  mstore\n  dup2\n  add\n  swap1\n  tag_2\n  swap2\n  swap1\n  tag_3\n  jump\t// in\ntag_2:\n    /* \"contracts/stakingoat.sol\":7286:7303  address msgSender */\n  0x00\n    /* \"contracts/stakingoat.sol\":7306:7318  _msgSender() */\n  tag_7\n    /* \"contracts/stakingoat.sol\":7306:7316  _msgSender */\n  shl(0x20, tag_8)\n    /* \"contracts/stakingoat.sol\":7306:7318  _msgSender() */\n  0x20\n  shr\n  jump\t// in\ntag_7:\n    /* \"contracts/stakingoat.sol\":7286:7318  address msgSender = _msgSender() */\n  swap1\n  pop\n    /* \"contracts/stakingoat.sol\":7338:7347  msgSender */\n  dup1\n    /* \"contracts/stakingoat.sol\":7329:7335  _owner */\n  0x00\n  dup1\n    /* \"contracts/stakingoat.sol\":7329:7347  _owner = msgSender */\n  0x0100\n  exp\n  dup2\n  sload\n  dup2\n  0xffffffffffffffffffffffffffffffffffffffff\n  mul\n  not\n  and\n  swap1\n  dup4\n  0xffffffffffffffffffffffffffffffffffffffff\n  and\n  mul\n  or\n  swap1\n  sstore\n  pop\n    /* \"contracts/stakingoat.sol\":7396:7405  msgSender */\n  dup1\n    /* \"contracts/stakingoat.sol\":7363:7406  OwnershipTransferred(address(0), msgSender) */\n  0xffffffffffffffffffffffffffffffffffffffff\n  and\n    /* \"contracts/stakingoat.sol\":7392:7393  0 */\n  0x00\n    /* \"contracts/stakingoat.sol\":7363:7406  OwnershipTransferred(address(0), msgSender) */\n  0xffffffffffffffffffffffffffffffffffffffff\n  and\n  0x8be0079c531659141344cd1fd0a4f28419497f9722a3daafe3b4186f6b6457e0\n  mload(0x40)\n  mload(0x40)\n  dup1\n  swap2\n  sub\n  swap1\n  log3\n    /* \"contracts/stakingoat.sol\":7275:7414  {... */\n  pop\n    /* \"contracts/stakingoat.sol\":12646:12647  1 */\n  0x01\n    /* \"contracts/stakingoat.sol\":12632:12640  packages */\n  0x0c\n    /* \"contracts/stakingoat.sol\":12632:12643  packages[0] */\n  0x00\n    /* \"contracts/stakingoat.sol\":12641:12642  0 */\n  dup1\n    /* \"contracts/stakingoat.sol\":12632:12643  packages[0] */\n  dup2\n  mstore\n  0x20\n  add\n  swap1\n  dup2\n  mstore\n  0x20\n  add\n  0x00\n  keccak256\n    /* \"contracts/stakingoat.sol\":12632:12647  packages[0] = 1 */\n  dup2\n  swap1\n  sstore\n  pop\n    /* \"contracts/stakingoat.sol\":12673:12686  _tokenAddress */\n  dup1\n    /* \"contracts/stakingoat.sol\":12658:12670  tokenAddress */\n  0x02\n  0x00\n    /* \"contracts/stakingoat.sol\":12658:12686  tokenAddress = _tokenAddress */\n  0x0100\n  exp\n  dup2\n  sload\n  dup2\n  0xffffffffffffffffffffffffffffffffffffffff\n  mul\n  not\n  and\n  swap1\n  dup4\n  0xffffffffffffffffffffffffffffffffffffffff\n  and\n  mul\n  or\n  swap1\n  sstore\n  pop\n    /* \"contracts/stakingoat.sol\":12712:12725  _tokenAddress */\n  dup1\n    /* \"contracts/stakingoat.sol\":12697:12702  token */\n  0x08\n  0x00\n    /* \"contracts/stakingoat.sol\":12697:12726  token = IERC20(_tokenAddress) */\n  0x0100\n  exp\n  dup2\n  sload\n  dup2\n  0xffffffffffffffffffffffffffffffffffffffff\n  mul\n  not\n  and\n  swap1\n  dup4\n  0xffffffffffffffffffffffffffffffffffffffff\n  and\n  mul\n  or\n  swap1\n  sstore\n  pop\n    /* \"contracts/stakingoat.sol\":12586:12734  constructor(address _tokenAddress) {... */\n  pop\n    /* \"contracts/stakingoat.sol\":11917:19372  contract OatStaking is Ownable {... */\n  jump(tag_10)\n    /* \"contracts/stakingoat.sol\":6678:6793  function _msgSender() internal view virtual returns (address payable) {... */\ntag_8:\n    /* \"contracts/stakingoat.sol\":6731:6746  address payable */\n  0x00\n    /* \"contracts/stakingoat.sol\":6774:6784  msg.sender */\n  caller\n    /* \"contracts/stakingoat.sol\":6759:6785  return payable(msg.sender) */\n  swap1\n  pop\n    /* \"contracts/stakingoat.sol\":6678:6793  function _msgSender() internal view virtual returns (address payable) {... */\n  swap1\n  jump\t// out\n    /* \"#utility.yul\":88:205   */\ntag_13:\n    /* \"#utility.yul\":197:198   */\n  0x00\n    /* \"#utility.yul\":194:195   */\n  dup1\n    /* \"#utility.yul\":187:199   */\n  revert\n    /* \"#utility.yul\":334:460   */\ntag_15:\n    /* \"#utility.yul\":371:378   */\n  0x00\n    /* \"#utility.yul\":411:453   */\n  0xffffffffffffffffffffffffffffffffffffffff\n    /* \"#utility.yul\":404:409   */\n  dup3\n    /* \"#utility.yul\":400:454   */\n  and\n    /* \"#utility.yul\":389:454   */\n  swap1\n  pop\n    /* \"#utility.yul\":334:460   */\n  swap2\n  swap1\n  pop\n  jump\t// out\n    /* \"#utility.yul\":466:562   */\ntag_16:\n    /* \"#utility.yul\":503:510   */\n  0x00\n    /* \"#utility.yul\":532:556   */\n  tag_25\n    /* \"#utility.yul\":550:555   */\n  dup3\n    /* \"#utility.yul\":532:556   */\n  tag_15\n  jump\t// in\ntag_25:\n    /* \"#utility.yul\":521:556   */\n  swap1\n  pop\n    /* \"#utility.yul\":466:562   */\n  swap2\n  swap1\n  pop\n  jump\t// out\n    /* \"#utility.yul\":568:690   */\ntag_17:\n    /* \"#utility.yul\":641:665   */\n  tag_27\n    /* \"#utility.yul\":659:664   */\n  dup2\n    /* \"#utility.yul\":641:665   */\n  tag_16\n  jump\t// in\ntag_27:\n    /* \"#utility.yul\":634:639   */\n  dup2\n    /* \"#utility.yul\":631:666   */\n  eq\n    /* \"#utility.yul\":621:684   */\n  tag_28\n  jumpi\n    /* \"#utility.yul\":680:681   */\n  0x00\n    /* \"#utility.yul\":677:678   */\n  dup1\n    /* \"#utility.yul\":670:682   */\n  revert\n    /* \"#utility.yul\":621:684   */\ntag_28:\n    /* \"#utility.yul\":568:690   */\n  pop\n  jump\t// out\n    /* \"#utility.yul\":696:839   */\ntag_18:\n    /* \"#utility.yul\":753:758   */\n  0x00\n    /* \"#utility.yul\":784:790   */\n  dup2\n    /* \"#utility.yul\":778:791   */\n  mload\n    /* \"#utility.yul\":769:791   */\n  swap1\n  pop\n    /* \"#utility.yul\":800:833   */\n  tag_30\n    /* \"#utility.yul\":827:832   */\n  dup2\n    /* \"#utility.yul\":800:833   */\n  tag_17\n  jump\t// in\ntag_30:\n    /* \"#utility.yul\":696:839   */\n  swap3\n  swap2\n  pop\n  pop\n  jump\t// out\n    /* \"#utility.yul\":845:1196   */\ntag_3:\n    /* \"#utility.yul\":915:921   */\n  0x00\n    /* \"#utility.yul\":964:966   */\n  0x20\n    /* \"#utility.yul\":952:961   */\n  dup3\n    /* \"#utility.yul\":943:950   */\n  dup5\n    /* \"#utility.yul\":939:962   */\n  sub\n    /* \"#utility.yul\":935:967   */\n  slt\n    /* \"#utility.yul\":932:1051   */\n  iszero\n  tag_32\n  jumpi\n    /* \"#utility.yul\":970:1049   */\n  tag_33\n  tag_13\n  jump\t// in\ntag_33:\n    /* \"#utility.yul\":932:1051   */\ntag_32:\n    /* \"#utility.yul\":1090:1091   */\n  0x00\n    /* \"#utility.yul\":1115:1179   */\n  tag_34\n    /* \"#utility.yul\":1171:1178   */\n  dup5\n    /* \"#utility.yul\":1162:1168   */\n  dup3\n    /* \"#utility.yul\":1151:1160   */\n  dup6\n    /* \"#utility.yul\":1147:1169   */\n  add\n    /* \"#utility.yul\":1115:1179   */\n  tag_18\n  jump\t// in\ntag_34:\n    /* \"#utility.yul\":1105:1179   */\n  swap2\n  pop\n    /* \"#utility.yul\":1061:1189   */\n  pop\n    /* \"#utility.yul\":845:1196   */\n  swap3\n  swap2\n  pop\n  pop\n  jump\t// out\n    /* \"contracts/stakingoat.sol\":11917:19372  contract OatStaking is Ownable {... */\ntag_10:\n  dataSize(sub_0)\n  dup1\n  dataOffset(sub_0)\n  0x00\n  codecopy\n  0x00\n  return\nstop\n\nsub_0: assembly {\n        /* \"contracts/stakingoat.sol\":11917:19372  contract OatStaking is Ownable {... */\n      mstore(0x40, 0x80)\n      callvalue\n      dup1\n      iszero\n      tag_1\n      jumpi\n      0x00\n      dup1\n      revert\n    tag_1:\n      pop\n      jumpi(tag_2, lt(calldatasize, 0x04))\n      shr(0xe0, calldataload(0x00))\n      dup1\n      0x8da5cb5b\n      gt\n      tag_27\n      jumpi\n      dup1\n      0xbf9befb1\n      gt\n      tag_28\n      jumpi\n      dup1\n      0xbf9befb1\n      eq\n      tag_21\n      jumpi\n      dup1\n      0xc53d425a\n      eq\n      tag_22\n      jumpi\n      dup1\n      0xd7fa023d\n      eq\n      tag_23\n      jumpi\n      dup1\n      0xe30081a0\n      eq\n      tag_24\n      jumpi\n      dup1\n      0xef037b90\n      eq\n      tag_25\n      jumpi\n      dup1\n      0xf2fde38b\n      eq\n      tag_26\n      jumpi\n      jump(tag_2)\n    tag_28:\n      dup1\n      0x8da5cb5b\n      eq\n      tag_15\n      jumpi\n      dup1\n      0x8f73c5ae\n      eq\n      tag_16\n      jumpi\n      dup1\n      0x92504bfa\n      eq\n      tag_17\n      jumpi\n      dup1\n      0x9d76ea58\n      eq\n      tag_18\n      jumpi\n      dup1\n      0xb88a802f\n      eq\n      tag_19\n      jumpi\n      dup1\n      0xbbfa2990\n      eq\n      tag_20\n      jumpi\n      jump(tag_2)\n    tag_27:\n      dup1\n      0x38adb6f0\n      gt\n      tag_29\n      jumpi\n      dup1\n      0x38adb6f0\n      eq\n      tag_9\n      jumpi\n      dup1\n      0x3cc7d2c4\n      eq\n      tag_10\n      jumpi\n      dup1\n      0x42623360\n      eq\n      tag_11\n      jumpi\n      dup1\n      0x6288af1e\n      eq\n      tag_12\n      jumpi\n      dup1\n      0x69bb4dc2\n      eq\n      tag_13\n      jumpi\n      dup1\n      0x715018a6\n      eq\n      tag_14\n      jumpi\n      jump(tag_2)\n    tag_29:\n      dup1\n      0x03fce884\n      eq\n      tag_3\n      jumpi\n      dup1\n      0x0ffde47b\n      eq\n      tag_4\n      jumpi\n      dup1\n      0x1865c57d\n      eq\n      tag_5\n      jumpi\n      dup1\n      0x1d62ebd9\n      eq\n      tag_6\n      jumpi\n      dup1\n      0x30188ee8\n      eq\n      tag_7\n      jumpi\n      dup1\n      0x31ed0db4\n      eq\n      tag_8\n      jumpi\n    tag_2:\n      0x00\n      dup1\n      revert\n        /* \"contracts/stakingoat.sol\":14015:14704  function removeSomeStake(uint256 _stake) public {... */\n    tag_3:\n      tag_30\n      0x04\n      dup1\n      calldatasize\n      sub\n      dup2\n      add\n      swap1\n      tag_31\n      swap2\n      swap1\n      tag_32\n      jump\t// in\n    tag_31:\n      tag_33\n      jump\t// in\n    tag_30:\n      stop\n        /* \"contracts/stakingoat.sol\":12093:12135  uint256 public rewardDistributionIndex = 0 */\n    tag_4:\n      tag_34\n      tag_35\n      jump\t// in\n    tag_34:\n      mload(0x40)\n      tag_36\n      swap2\n      swap1\n      tag_37\n      jump\t// in\n    tag_36:\n      mload(0x40)\n      dup1\n      swap2\n      sub\n      swap1\n      return\n        /* \"contracts/stakingoat.sol\":18932:19153  function getState() public view returns (uint256, uint256, uint256) {... */\n    tag_5:\n      tag_38\n      tag_39\n      jump\t// in\n    tag_38:\n      mload(0x40)\n      tag_40\n      swap4\n      swap3\n      swap2\n      swap1\n      tag_41\n      jump\t// in\n    tag_40:\n      mload(0x40)\n      dup1\n      swap2\n      sub\n      swap1\n      return\n        /* \"contracts/stakingoat.sol\":16170:16333  function rewardOf(address _stakeholder) public view returns (uint256) {... */\n    tag_6:\n      tag_42\n      0x04\n      dup1\n      calldatasize\n      sub\n      dup2\n      add\n      swap1\n      tag_43\n      swap2\n      swap1\n      tag_44\n      jump\t// in\n    tag_43:\n      tag_45\n      jump\t// in\n    tag_42:\n      mload(0x40)\n      tag_46\n      swap2\n      swap1\n      tag_37\n      jump\t// in\n    tag_46:\n      mload(0x40)\n      dup1\n      swap2\n      sub\n      swap1\n      return\n        /* \"contracts/stakingoat.sol\":12222:12263  uint256 public totalRewardDistributed = 0 */\n    tag_7:\n      tag_47\n      tag_48\n      jump\t// in\n    tag_47:\n      mload(0x40)\n      tag_49\n      swap2\n      swap1\n      tag_37\n      jump\t// in\n    tag_49:\n      mload(0x40)\n      dup1\n      swap2\n      sub\n      swap1\n      return\n        /* \"contracts/stakingoat.sol\":19265:19367  function getTotalStakers() public view returns (uint256) {... */\n    tag_8:\n      tag_50\n      tag_51\n      jump\t// in\n    tag_50:\n      mload(0x40)\n      tag_52\n      swap2\n      swap1\n      tag_37\n      jump\t// in\n    tag_52:\n      mload(0x40)\n      dup1\n      swap2\n      sub\n      swap1\n      return\n        /* \"contracts/stakingoat.sol\":19161:19257  function getTotalStakedAmount() public view returns (uint256) {... */\n    tag_9:\n      tag_53\n      tag_54\n      jump\t// in\n    tag_53:\n      mload(0x40)\n      tag_55\n      swap2\n      swap1\n      tag_37\n      jump\t// in\n    tag_55:\n      mload(0x40)\n      dup1\n      swap2\n      sub\n      swap1\n      return\n        /* \"contracts/stakingoat.sol\":14712:14836  function removeAllMyStakes() public {... */\n    tag_10:\n      tag_56\n      tag_57\n      jump\t// in\n    tag_56:\n      stop\n        /* \"contracts/stakingoat.sol\":14844:14959  function stakeOf(address _stakeholder) public view returns (uint256) {... */\n    tag_11:\n      tag_58\n      0x04\n      dup1\n      calldatasize\n      sub\n      dup2\n      add\n      swap1\n      tag_59\n      swap2\n      swap1\n      tag_44\n      jump\t// in\n    tag_59:\n      tag_60\n      jump\t// in\n    tag_58:\n      mload(0x40)\n      tag_61\n      swap2\n      swap1\n      tag_37\n      jump\t// in\n    tag_61:\n      mload(0x40)\n      dup1\n      swap2\n      sub\n      swap1\n      return\n        /* \"contracts/stakingoat.sol\":13767:13887  function balanceuser(address account) public view returns (uint256 b) {... */\n    tag_12:\n      tag_62\n      0x04\n      dup1\n      calldatasize\n      sub\n      dup2\n      add\n      swap1\n      tag_63\n      swap2\n      swap1\n      tag_44\n      jump\t// in\n    tag_63:\n      tag_64\n      jump\t// in\n    tag_62:\n      mload(0x40)\n      tag_65\n      swap2\n      swap1\n      tag_37\n      jump\t// in\n    tag_65:\n      mload(0x40)\n      dup1\n      swap2\n      sub\n      swap1\n      return\n        /* \"contracts/stakingoat.sol\":12742:12870  function availableTokens() public view returns (uint256) {... */\n    tag_13:\n      tag_66\n      tag_67\n      jump\t// in\n    tag_66:\n      mload(0x40)\n      tag_68\n      swap2\n      swap1\n      tag_37\n      jump\t// in\n    tag_68:\n      mload(0x40)\n      dup1\n      swap2\n      sub\n      swap1\n      return\n        /* \"contracts/stakingoat.sol\":7636:7784  function renounceOwnership() public virtual onlyOwner {... */\n    tag_14:\n      tag_69\n      tag_70\n      jump\t// in\n    tag_69:\n      stop\n        /* \"contracts/stakingoat.sol\":7422:7501  function owner() public view returns (address) {... */\n    tag_15:\n      tag_71\n      tag_72\n      jump\t// in\n    tag_71:\n      mload(0x40)\n      tag_73\n      swap2\n      swap1\n      tag_74\n      jump\t// in\n    tag_73:\n      mload(0x40)\n      dup1\n      swap2\n      sub\n      swap1\n      return\n        /* \"contracts/stakingoat.sol\":17887:18582  function distributeReward() public {... */\n    tag_16:\n      tag_75\n      tag_76\n      jump\t// in\n    tag_75:\n      stop\n        /* \"contracts/stakingoat.sol\":12144:12175  uint256 public _totalStakes = 0 */\n    tag_17:\n      tag_77\n      tag_78\n      jump\t// in\n    tag_77:\n      mload(0x40)\n      tag_79\n      swap2\n      swap1\n      tag_37\n      jump\t// in\n    tag_79:\n      mload(0x40)\n      dup1\n      swap2\n      sub\n      swap1\n      return\n        /* \"contracts/stakingoat.sol\":12021:12048  address public tokenAddress */\n    tag_18:\n      tag_80\n      tag_81\n      jump\t// in\n    tag_80:\n      mload(0x40)\n      tag_82\n      swap2\n      swap1\n      tag_74\n      jump\t// in\n    tag_82:\n      mload(0x40)\n      dup1\n      swap2\n      sub\n      swap1\n      return\n        /* \"contracts/stakingoat.sol\":18590:18767  function claimReward() public {... */\n    tag_19:\n      tag_83\n      tag_84\n      jump\t// in\n    tag_83:\n      stop\n        /* \"contracts/stakingoat.sol\":13344:13759  function canStake(... */\n    tag_20:\n      tag_85\n      0x04\n      dup1\n      calldatasize\n      sub\n      dup2\n      add\n      swap1\n      tag_86\n      swap2\n      swap1\n      tag_87\n      jump\t// in\n    tag_86:\n      tag_88\n      jump\t// in\n    tag_85:\n      mload(0x40)\n      tag_89\n      swap2\n      swap1\n      tag_90\n      jump\t// in\n    tag_89:\n      mload(0x40)\n      dup1\n      swap2\n      sub\n      swap1\n      return\n        /* \"contracts/stakingoat.sol\":14967:15058  function totalStakes() public view returns (uint256) {... */\n    tag_21:\n      tag_91\n      tag_92\n      jump\t// in\n    tag_91:\n      mload(0x40)\n      tag_93\n      swap2\n      swap1\n      tag_37\n      jump\t// in\n    tag_93:\n      mload(0x40)\n      dup1\n      swap2\n      sub\n      swap1\n      return\n        /* \"contracts/stakingoat.sol\":13895:14003  function setApyPercentage(uint256 _percentage) public onlyOwner {... */\n    tag_22:\n      tag_94\n      0x04\n      dup1\n      calldatasize\n      sub\n      dup2\n      add\n      swap1\n      tag_95\n      swap2\n      swap1\n      tag_32\n      jump\t// in\n    tag_95:\n      tag_96\n      jump\t// in\n    tag_94:\n      stop\n        /* \"contracts/stakingoat.sol\":12878:13336  function createStake(uint256 _stake, uint256 _stakingPackage) external {... */\n    tag_23:\n      tag_97\n      0x04\n      dup1\n      calldatasize\n      sub\n      dup2\n      add\n      swap1\n      tag_98\n      swap2\n      swap1\n      tag_99\n      jump\t// in\n    tag_98:\n      tag_100\n      jump\t// in\n    tag_97:\n      stop\n        /* \"contracts/stakingoat.sol\":18775:18924  function setAddress(address _tokenAddress) external onlyOwner {... */\n    tag_24:\n      tag_101\n      0x04\n      dup1\n      calldatasize\n      sub\n      dup2\n      add\n      swap1\n      tag_102\n      swap2\n      swap1\n      tag_44\n      jump\t// in\n    tag_102:\n      tag_103\n      jump\t// in\n    tag_101:\n      stop\n        /* \"contracts/stakingoat.sol\":15066:15331  function isStakeholder(... */\n    tag_25:\n      tag_104\n      0x04\n      dup1\n      calldatasize\n      sub\n      dup2\n      add\n      swap1\n      tag_105\n      swap2\n      swap1\n      tag_44\n      jump\t// in\n    tag_105:\n      tag_106\n      jump\t// in\n    tag_104:\n      mload(0x40)\n      tag_107\n      swap3\n      swap2\n      swap1\n      tag_108\n      jump\t// in\n    tag_107:\n      mload(0x40)\n      dup1\n      swap2\n      sub\n      swap1\n      return\n        /* \"contracts/stakingoat.sol\":7792:8073  function transferOwnership(address newOwner) public virtual onlyOwner {... */\n    tag_26:\n      tag_109\n      0x04\n      dup1\n      calldatasize\n      sub\n      dup2\n      add\n      swap1\n      tag_110\n      swap2\n      swap1\n      tag_44\n      jump\t// in\n    tag_110:\n      tag_111\n      jump\t// in\n    tag_109:\n      stop\n        /* \"contracts/stakingoat.sol\":14015:14704  function removeSomeStake(uint256 _stake) public {... */\n    tag_33:\n        /* \"contracts/stakingoat.sol\":14092:14098  stakes */\n      0x09\n        /* \"contracts/stakingoat.sol\":14092:14110  stakes[msg.sender] */\n      0x00\n        /* \"contracts/stakingoat.sol\":14099:14109  msg.sender */\n      caller\n        /* \"contracts/stakingoat.sol\":14092:14110  stakes[msg.sender] */\n      0xffffffffffffffffffffffffffffffffffffffff\n      and\n      0xffffffffffffffffffffffffffffffffffffffff\n      and\n      dup2\n      mstore\n      0x20\n      add\n      swap1\n      dup2\n      mstore\n      0x20\n      add\n      0x00\n      keccak256\n      sload\n        /* \"contracts/stakingoat.sol\":14082:14088  _stake */\n      dup2\n        /* \"contracts/stakingoat.sol\":14082:14110  _stake <= stakes[msg.sender] */\n      gt\n      iszero\n        /* \"contracts/stakingoat.sol\":14074:14137  require(_stake <= stakes[msg.sender], \"Exceeding stake amount\") */\n      tag_113\n      jumpi\n      mload(0x40)\n      0x08c379a000000000000000000000000000000000000000000000000000000000\n      dup2\n      mstore\n      0x04\n      add\n      tag_114\n      swap1\n      tag_115\n      jump\t// in\n    tag_114:\n      mload(0x40)\n      dup1\n      swap2\n      sub\n      swap1\n      revert\n    tag_113:\n        /* \"contracts/stakingoat.sol\":14171:14201  stakes[msg.sender].sub(_stake) */\n      tag_116\n        /* \"contracts/stakingoat.sol\":14194:14200  _stake */\n      dup2\n        /* \"contracts/stakingoat.sol\":14171:14177  stakes */\n      0x09\n        /* \"contracts/stakingoat.sol\":14171:14189  stakes[msg.sender] */\n      0x00\n        /* \"contracts/stakingoat.sol\":14178:14188  msg.sender */\n      caller\n        /* \"contracts/stakingoat.sol\":14171:14189  stakes[msg.sender] */\n      0xffffffffffffffffffffffffffffffffffffffff\n      and\n      0xffffffffffffffffffffffffffffffffffffffff\n      and\n      dup2\n      mstore\n      0x20\n      add\n      swap1\n      dup2\n      mstore\n      0x20\n      add\n      0x00\n      keccak256\n      sload\n        /* \"contracts/stakingoat.sol\":14171:14193  stakes[msg.sender].sub */\n      tag_117\n      swap1\n        /* \"contracts/stakingoat.sol\":14171:14201  stakes[msg.sender].sub(_stake) */\n      swap2\n      swap1\n      0xffffffff\n      and\n      jump\t// in\n    tag_116:\n        /* \"contracts/stakingoat.sol\":14150:14156  stakes */\n      0x09\n        /* \"contracts/stakingoat.sol\":14150:14168  stakes[msg.sender] */\n      0x00\n        /* \"contracts/stakingoat.sol\":14157:14167  msg.sender */\n      caller\n        /* \"contracts/stakingoat.sol\":14150:14168  stakes[msg.sender] */\n      0xffffffffffffffffffffffffffffffffffffffff\n      and\n      0xffffffffffffffffffffffffffffffffffffffff\n      and\n      dup2\n      mstore\n      0x20\n      add\n      swap1\n      dup2\n      mstore\n      0x20\n      add\n      0x00\n      keccak256\n        /* \"contracts/stakingoat.sol\":14150:14201  stakes[msg.sender] = stakes[msg.sender].sub(_stake) */\n      dup2\n      swap1\n      sstore\n      pop\n        /* \"contracts/stakingoat.sol\":14238:14239  0 */\n      0x00\n        /* \"contracts/stakingoat.sol\":14216:14222  stakes */\n      0x09\n        /* \"contracts/stakingoat.sol\":14216:14234  stakes[msg.sender] */\n      0x00\n        /* \"contracts/stakingoat.sol\":14223:14233  msg.sender */\n      caller\n        /* \"contracts/stakingoat.sol\":14216:14234  stakes[msg.sender] */\n      0xffffffffffffffffffffffffffffffffffffffff\n      and\n      0xffffffffffffffffffffffffffffffffffffffff\n      and\n      dup2\n      mstore\n      0x20\n      add\n      swap1\n      dup2\n      mstore\n      0x20\n      add\n      0x00\n      keccak256\n      sload\n        /* \"contracts/stakingoat.sol\":14216:14239  stakes[msg.sender] == 0 */\n      sub\n        /* \"contracts/stakingoat.sol\":14212:14297  if (stakes[msg.sender] == 0) {... */\n      tag_118\n      jumpi\n        /* \"contracts/stakingoat.sol\":14256:14285  removeStakeholder(msg.sender) */\n      tag_119\n        /* \"contracts/stakingoat.sol\":14274:14284  msg.sender */\n      caller\n        /* \"contracts/stakingoat.sol\":14256:14273  removeStakeholder */\n      tag_120\n        /* \"contracts/stakingoat.sol\":14256:14285  removeStakeholder(msg.sender) */\n      jump\t// in\n    tag_119:\n        /* \"contracts/stakingoat.sol\":14212:14297  if (stakes[msg.sender] == 0) {... */\n    tag_118:\n        /* \"contracts/stakingoat.sol\":14309:14323  uint256 period */\n      0x00\n        /* \"contracts/stakingoat.sol\":14326:14340  stakingPackage */\n      0x0b\n        /* \"contracts/stakingoat.sol\":14326:14352  stakingPackage[msg.sender] */\n      0x00\n        /* \"contracts/stakingoat.sol\":14341:14351  msg.sender */\n      caller\n        /* \"contracts/stakingoat.sol\":14326:14352  stakingPackage[msg.sender] */\n      0xffffffffffffffffffffffffffffffffffffffff\n      and\n      0xffffffffffffffffffffffffffffffffffffffff\n      and\n      dup2\n      mstore\n      0x20\n      add\n      swap1\n      dup2\n      mstore\n      0x20\n      add\n      0x00\n      keccak256\n      sload\n        /* \"contracts/stakingoat.sol\":14309:14352  uint256 period = stakingPackage[msg.sender] */\n      swap1\n      pop\n        /* \"contracts/stakingoat.sol\":14363:14386  uint256 stakinTimestamp */\n      0x00\n        /* \"contracts/stakingoat.sol\":14389:14405  stakingTimestamp */\n      0x0a\n        /* \"contracts/stakingoat.sol\":14389:14417  stakingTimestamp[msg.sender] */\n      0x00\n        /* \"contracts/stakingoat.sol\":14406:14416  msg.sender */\n      caller\n        /* \"contracts/stakingoat.sol\":14389:14417  stakingTimestamp[msg.sender] */\n      0xffffffffffffffffffffffffffffffffffffffff\n      and\n      0xffffffffffffffffffffffffffffffffffffffff\n      and\n      dup2\n      mstore\n      0x20\n      add\n      swap1\n      dup2\n      mstore\n      0x20\n      add\n      0x00\n      keccak256\n      sload\n        /* \"contracts/stakingoat.sol\":14363:14417  uint256 stakinTimestamp = stakingTimestamp[msg.sender] */\n      swap1\n      pop\n        /* \"contracts/stakingoat.sol\":14445:14469  _totalStakes.sub(_stake) */\n      tag_121\n        /* \"contracts/stakingoat.sol\":14462:14468  _stake */\n      dup4\n        /* \"contracts/stakingoat.sol\":14445:14457  _totalStakes */\n      sload(0x05)\n        /* \"contracts/stakingoat.sol\":14445:14461  _totalStakes.sub */\n      tag_117\n      swap1\n        /* \"contracts/stakingoat.sol\":14445:14469  _totalStakes.sub(_stake) */\n      swap2\n      swap1\n      0xffffffff\n      and\n      jump\t// in\n    tag_121:\n        /* \"contracts/stakingoat.sol\":14430:14442  _totalStakes */\n      0x05\n        /* \"contracts/stakingoat.sol\":14430:14469  _totalStakes = _totalStakes.sub(_stake) */\n      dup2\n      swap1\n      sstore\n      pop\n        /* \"contracts/stakingoat.sol\":14515:14530  block.timestamp */\n      timestamp\n        /* \"contracts/stakingoat.sol\":14505:14511  period */\n      dup3\n        /* \"contracts/stakingoat.sol\":14487:14502  stakinTimestamp */\n      dup3\n        /* \"contracts/stakingoat.sol\":14487:14511  stakinTimestamp + period */\n      tag_122\n      swap2\n      swap1\n      tag_123\n      jump\t// in\n    tag_122:\n        /* \"contracts/stakingoat.sol\":14486:14530  (stakinTimestamp + period) > block.timestamp */\n      gt\n        /* \"contracts/stakingoat.sol\":14482:14652  if ((stakinTimestamp + period) > block.timestamp) {... */\n      iszero\n      tag_124\n      jumpi\n        /* \"contracts/stakingoat.sol\":14547:14567  uint256 unstakingFee */\n      0x00\n        /* \"contracts/stakingoat.sol\":14570:14592  _stake.mul(5).div(100) */\n      tag_125\n        /* \"contracts/stakingoat.sol\":14588:14591  100 */\n      0x64\n        /* \"contracts/stakingoat.sol\":14570:14583  _stake.mul(5) */\n      tag_126\n        /* \"contracts/stakingoat.sol\":14581:14582  5 */\n      0x05\n        /* \"contracts/stakingoat.sol\":14570:14576  _stake */\n      dup8\n        /* \"contracts/stakingoat.sol\":14570:14580  _stake.mul */\n      tag_127\n      swap1\n        /* \"contracts/stakingoat.sol\":14570:14583  _stake.mul(5) */\n      swap2\n      swap1\n      0xffffffff\n      and\n      jump\t// in\n    tag_126:\n        /* \"contracts/stakingoat.sol\":14570:14587  _stake.mul(5).div */\n      tag_128\n      swap1\n        /* \"contracts/stakingoat.sol\":14570:14592  _stake.mul(5).div(100) */\n      swap2\n      swap1\n      0xffffffff\n      and\n      jump\t// in\n    tag_125:\n        /* \"contracts/stakingoat.sol\":14547:14592  uint256 unstakingFee = _stake.mul(5).div(100) */\n      swap1\n      pop\n        /* \"contracts/stakingoat.sol\":14616:14640  _stake.sub(unstakingFee) */\n      tag_129\n        /* \"contracts/stakingoat.sol\":14627:14639  unstakingFee */\n      dup2\n        /* \"contracts/stakingoat.sol\":14616:14622  _stake */\n      dup6\n        /* \"contracts/stakingoat.sol\":14616:14626  _stake.sub */\n      tag_117\n      swap1\n        /* \"contracts/stakingoat.sol\":14616:14640  _stake.sub(unstakingFee) */\n      swap2\n      swap1\n      0xffffffff\n      and\n      jump\t// in\n    tag_129:\n        /* \"contracts/stakingoat.sol\":14607:14640  _stake = _stake.sub(unstakingFee) */\n      swap4\n      pop\n        /* \"contracts/stakingoat.sol\":14532:14652  {... */\n      pop\n        /* \"contracts/stakingoat.sol\":14482:14652  if ((stakinTimestamp + period) > block.timestamp) {... */\n    tag_124:\n        /* \"contracts/stakingoat.sol\":14662:14667  token */\n      0x08\n      0x00\n      swap1\n      sload\n      swap1\n      0x0100\n      exp\n      swap1\n      div\n      0xffffffffffffffffffffffffffffffffffffffff\n      and\n        /* \"contracts/stakingoat.sol\":14662:14676  token.transfer */\n      0xffffffffffffffffffffffffffffffffffffffff\n      and\n      0xa9059cbb\n        /* \"contracts/stakingoat.sol\":14677:14687  msg.sender */\n      caller\n        /* \"contracts/stakingoat.sol\":14689:14695  _stake */\n      dup6\n        /* \"contracts/stakingoat.sol\":14662:14696  token.transfer(msg.sender, _stake) */\n      mload(0x40)\n      dup4\n      0xffffffff\n      and\n      0xe0\n      shl\n      dup2\n      mstore\n      0x04\n      add\n      tag_130\n      swap3\n      swap2\n      swap1\n      tag_131\n      jump\t// in\n    tag_130:\n      0x20\n      mload(0x40)\n      dup1\n      dup4\n      sub\n      dup2\n      0x00\n      dup8\n      gas\n      call\n      iszero\n      dup1\n      iszero\n      tag_133\n      jumpi\n      returndatasize\n      0x00\n      dup1\n      returndatacopy\n      revert(0x00, returndatasize)\n    tag_133:\n      pop\n      pop\n      pop\n      pop\n      mload(0x40)\n      returndatasize\n      not(0x1f)\n      0x1f\n      dup3\n      add\n      and\n      dup3\n      add\n      dup1\n      0x40\n      mstore\n      pop\n      dup2\n      add\n      swap1\n      tag_134\n      swap2\n      swap1\n      tag_135\n      jump\t// in\n    tag_134:\n      pop\n        /* \"contracts/stakingoat.sol\":14063:14704  {... */\n      pop\n      pop\n        /* \"contracts/stakingoat.sol\":14015:14704  function removeSomeStake(uint256 _stake) public {... */\n      pop\n      jump\t// out\n        /* \"contracts/stakingoat.sol\":12093:12135  uint256 public rewardDistributionIndex = 0 */\n    tag_35:\n      sload(0x04)\n      dup2\n      jump\t// out\n        /* \"contracts/stakingoat.sol\":18932:19153  function getState() public view returns (uint256, uint256, uint256) {... */\n    tag_39:\n        /* \"contracts/stakingoat.sol\":18973:18980  uint256 */\n      0x00\n        /* \"contracts/stakingoat.sol\":18982:18989  uint256 */\n      dup1\n        /* \"contracts/stakingoat.sol\":18991:18998  uint256 */\n      0x00\n        /* \"contracts/stakingoat.sol\":19033:19045  stakeholders */\n      0x03\n        /* \"contracts/stakingoat.sol\":19033:19052  stakeholders.length */\n      dup1\n      sload\n      swap1\n      pop\n        /* \"contracts/stakingoat.sol\":19067:19072  token */\n      0x08\n      0x00\n      swap1\n      sload\n      swap1\n      0x0100\n      exp\n      swap1\n      div\n      0xffffffffffffffffffffffffffffffffffffffff\n      and\n        /* \"contracts/stakingoat.sol\":19067:19082  token.balanceOf */\n      0xffffffffffffffffffffffffffffffffffffffff\n      and\n      0x70a08231\n        /* \"contracts/stakingoat.sol\":19091:19095  this */\n      address\n        /* \"contracts/stakingoat.sol\":19067:19097  token.balanceOf(address(this)) */\n      mload(0x40)\n      dup3\n      0xffffffff\n      and\n      0xe0\n      shl\n      dup2\n      mstore\n      0x04\n      add\n      tag_137\n      swap2\n      swap1\n      tag_74\n      jump\t// in\n    tag_137:\n      0x20\n      mload(0x40)\n      dup1\n      dup4\n      sub\n      dup2\n      dup7\n      gas\n      staticcall\n      iszero\n      dup1\n      iszero\n      tag_139\n      jumpi\n      returndatasize\n      0x00\n      dup1\n      returndatacopy\n      revert(0x00, returndatasize)\n    tag_139:\n      pop\n      pop\n      pop\n      pop\n      mload(0x40)\n      returndatasize\n      not(0x1f)\n      0x1f\n      dup3\n      add\n      and\n      dup3\n      add\n      dup1\n      0x40\n      mstore\n      pop\n      dup2\n      add\n      swap1\n      tag_140\n      swap2\n      swap1\n      tag_141\n      jump\t// in\n    tag_140:\n        /* \"contracts/stakingoat.sol\":19112:19134  totalRewardDistributed */\n      sload(0x07)\n        /* \"contracts/stakingoat.sol\":19011:19145  return (... */\n      swap3\n      pop\n      swap3\n      pop\n      swap3\n      pop\n        /* \"contracts/stakingoat.sol\":18932:19153  function getState() public view returns (uint256, uint256, uint256) {... */\n      swap1\n      swap2\n      swap3\n      jump\t// out\n        /* \"contracts/stakingoat.sol\":16170:16333  function rewardOf(address _stakeholder) public view returns (uint256) {... */\n    tag_45:\n        /* \"contracts/stakingoat.sol\":16231:16238  uint256 */\n      0x00\n        /* \"contracts/stakingoat.sol\":16252:16266  uint256 reward */\n      dup1\n        /* \"contracts/stakingoat.sol\":16272:16301  calculateReward(_stakeholder) */\n      tag_143\n        /* \"contracts/stakingoat.sol\":16288:16300  _stakeholder */\n      dup4\n        /* \"contracts/stakingoat.sol\":16272:16287  calculateReward */\n      tag_144\n        /* \"contracts/stakingoat.sol\":16272:16301  calculateReward(_stakeholder) */\n      jump\t// in\n    tag_143:\n        /* \"contracts/stakingoat.sol\":16251:16301  (uint256 reward, ) = calculateReward(_stakeholder) */\n      pop\n      swap1\n      pop\n        /* \"contracts/stakingoat.sol\":16319:16325  reward */\n      dup1\n        /* \"contracts/stakingoat.sol\":16312:16325  return reward */\n      swap2\n      pop\n      pop\n        /* \"contracts/stakingoat.sol\":16170:16333  function rewardOf(address _stakeholder) public view returns (uint256) {... */\n      swap2\n      swap1\n      pop\n      jump\t// out\n        /* \"contracts/stakingoat.sol\":12222:12263  uint256 public totalRewardDistributed = 0 */\n    tag_48:\n      sload(0x07)\n      dup2\n      jump\t// out\n        /* \"contracts/stakingoat.sol\":19265:19367  function getTotalStakers() public view returns (uint256) {... */\n    tag_51:\n        /* \"contracts/stakingoat.sol\":19313:19320  uint256 */\n      0x00\n        /* \"contracts/stakingoat.sol\":19340:19352  stakeholders */\n      0x03\n        /* \"contracts/stakingoat.sol\":19340:19359  stakeholders.length */\n      dup1\n      sload\n      swap1\n      pop\n        /* \"contracts/stakingoat.sol\":19333:19359  return stakeholders.length */\n      swap1\n      pop\n        /* \"contracts/stakingoat.sol\":19265:19367  function getTotalStakers() public view returns (uint256) {... */\n      swap1\n      jump\t// out\n        /* \"contracts/stakingoat.sol\":19161:19257  function getTotalStakedAmount() public view returns (uint256) {... */\n    tag_54:\n        /* \"contracts/stakingoat.sol\":19214:19221  uint256 */\n      0x00\n        /* \"contracts/stakingoat.sol\":19237:19249  _totalStakes */\n      sload(0x05)\n        /* \"contracts/stakingoat.sol\":19230:19249  return _totalStakes */\n      swap1\n      pop\n        /* \"contracts/stakingoat.sol\":19161:19257  function getTotalStakedAmount() public view returns (uint256) {... */\n      swap1\n      jump\t// out\n        /* \"contracts/stakingoat.sol\":14712:14836  function removeAllMyStakes() public {... */\n    tag_57:\n        /* \"contracts/stakingoat.sol\":14759:14773  uint256 amount */\n      0x00\n        /* \"contracts/stakingoat.sol\":14776:14782  stakes */\n      0x09\n        /* \"contracts/stakingoat.sol\":14776:14794  stakes[msg.sender] */\n      0x00\n        /* \"contracts/stakingoat.sol\":14783:14793  msg.sender */\n      caller\n        /* \"contracts/stakingoat.sol\":14776:14794  stakes[msg.sender] */\n      0xffffffffffffffffffffffffffffffffffffffff\n      and\n      0xffffffffffffffffffffffffffffffffffffffff\n      and\n      dup2\n      mstore\n      0x20\n      add\n      swap1\n      dup2\n      mstore\n      0x20\n      add\n      0x00\n      keccak256\n      sload\n        /* \"contracts/stakingoat.sol\":14759:14794  uint256 amount = stakes[msg.sender] */\n      swap1\n      pop\n        /* \"contracts/stakingoat.sol\":14805:14828  removeSomeStake(amount) */\n      tag_148\n        /* \"contracts/stakingoat.sol\":14821:14827  amount */\n      dup2\n        /* \"contracts/stakingoat.sol\":14805:14820  removeSomeStake */\n      tag_33\n        /* \"contracts/stakingoat.sol\":14805:14828  removeSomeStake(amount) */\n      jump\t// in\n    tag_148:\n        /* \"contracts/stakingoat.sol\":14748:14836  {... */\n      pop\n        /* \"contracts/stakingoat.sol\":14712:14836  function removeAllMyStakes() public {... */\n      jump\t// out\n        /* \"contracts/stakingoat.sol\":14844:14959  function stakeOf(address _stakeholder) public view returns (uint256) {... */\n    tag_60:\n        /* \"contracts/stakingoat.sol\":14904:14911  uint256 */\n      0x00\n        /* \"contracts/stakingoat.sol\":14931:14937  stakes */\n      0x09\n        /* \"contracts/stakingoat.sol\":14931:14951  stakes[_stakeholder] */\n      0x00\n        /* \"contracts/stakingoat.sol\":14938:14950  _stakeholder */\n      dup4\n        /* \"contracts/stakingoat.sol\":14931:14951  stakes[_stakeholder] */\n      0xffffffffffffffffffffffffffffffffffffffff\n      and\n      0xffffffffffffffffffffffffffffffffffffffff\n      and\n      dup2\n      mstore\n      0x20\n      add\n      swap1\n      dup2\n      mstore\n      0x20\n      add\n      0x00\n      keccak256\n      sload\n        /* \"contracts/stakingoat.sol\":14924:14951  return stakes[_stakeholder] */\n      swap1\n      pop\n        /* \"contracts/stakingoat.sol\":14844:14959  function stakeOf(address _stakeholder) public view returns (uint256) {... */\n      swap2\n      swap1\n      pop\n      jump\t// out\n        /* \"contracts/stakingoat.sol\":13767:13887  function balanceuser(address account) public view returns (uint256 b) {... */\n    tag_64:\n        /* \"contracts/stakingoat.sol\":13826:13835  uint256 b */\n      0x00\n        /* \"contracts/stakingoat.sol\":13855:13860  token */\n      0x08\n      0x00\n      swap1\n      sload\n      swap1\n      0x0100\n      exp\n      swap1\n      div\n      0xffffffffffffffffffffffffffffffffffffffff\n      and\n        /* \"contracts/stakingoat.sol\":13855:13870  token.balanceOf */\n      0xffffffffffffffffffffffffffffffffffffffff\n      and\n      0x70a08231\n        /* \"contracts/stakingoat.sol\":13871:13878  account */\n      dup4\n        /* \"contracts/stakingoat.sol\":13855:13879  token.balanceOf(account) */\n      mload(0x40)\n      dup3\n      0xffffffff\n      and\n      0xe0\n      shl\n      dup2\n      mstore\n      0x04\n      add\n      tag_151\n      swap2\n      swap1\n      tag_74\n      jump\t// in\n    tag_151:\n      0x20\n      mload(0x40)\n      dup1\n      dup4\n      sub\n      dup2\n      dup7\n      gas\n      staticcall\n      iszero\n      dup1\n      iszero\n      tag_153\n      jumpi\n      returndatasize\n      0x00\n      dup1\n      returndatacopy\n      revert(0x00, returndatasize)\n    tag_153:\n      pop\n      pop\n      pop\n      pop\n      mload(0x40)\n      returndatasize\n      not(0x1f)\n      0x1f\n      dup3\n      add\n      and\n      dup3\n      add\n      dup1\n      0x40\n      mstore\n      pop\n      dup2\n      add\n      swap1\n      tag_154\n      swap2\n      swap1\n      tag_141\n      jump\t// in\n    tag_154:\n        /* \"contracts/stakingoat.sol\":13848:13879  return token.balanceOf(account) */\n      swap1\n      pop\n        /* \"contracts/stakingoat.sol\":13767:13887  function balanceuser(address account) public view returns (uint256 b) {... */\n      swap2\n      swap1\n      pop\n      jump\t// out\n        /* \"contracts/stakingoat.sol\":12742:12870  function availableTokens() public view returns (uint256) {... */\n    tag_67:\n        /* \"contracts/stakingoat.sol\":12790:12797  uint256 */\n      0x00\n        /* \"contracts/stakingoat.sol\":12824:12836  tokenAddress */\n      0x02\n      0x00\n      swap1\n      sload\n      swap1\n      0x0100\n      exp\n      swap1\n      div\n      0xffffffffffffffffffffffffffffffffffffffff\n      and\n        /* \"contracts/stakingoat.sol\":12817:12847  IERC20(tokenAddress).balanceOf */\n      0xffffffffffffffffffffffffffffffffffffffff\n      and\n      0x70a08231\n        /* \"contracts/stakingoat.sol\":12856:12860  this */\n      address\n        /* \"contracts/stakingoat.sol\":12817:12862  IERC20(tokenAddress).balanceOf(address(this)) */\n      mload(0x40)\n      dup3\n      0xffffffff\n      and\n      0xe0\n      shl\n      dup2\n      mstore\n      0x04\n      add\n      tag_156\n      swap2\n      swap1\n      tag_74\n      jump\t// in\n    tag_156:\n      0x20\n      mload(0x40)\n      dup1\n      dup4\n      sub\n      dup2\n      dup7\n      gas\n      staticcall\n      iszero\n      dup1\n      iszero\n      tag_158\n      jumpi\n      returndatasize\n      0x00\n      dup1\n      returndatacopy\n      revert(0x00, returndatasize)\n    tag_158:\n      pop\n      pop\n      pop\n      pop\n      mload(0x40)\n      returndatasize\n      not(0x1f)\n      0x1f\n      dup3\n      add\n      and\n      dup3\n      add\n      dup1\n      0x40\n      mstore\n      pop\n      dup2\n      add\n      swap1\n      tag_159\n      swap2\n      swap1\n      tag_141\n      jump\t// in\n    tag_159:\n        /* \"contracts/stakingoat.sol\":12810:12862  return IERC20(tokenAddress).balanceOf(address(this)) */\n      swap1\n      pop\n        /* \"contracts/stakingoat.sol\":12742:12870  function availableTokens() public view returns (uint256) {... */\n      swap1\n      jump\t// out\n        /* \"contracts/stakingoat.sol\":7636:7784  function renounceOwnership() public virtual onlyOwner {... */\n    tag_70:\n        /* \"contracts/stakingoat.sol\":7559:7571  _msgSender() */\n      tag_161\n        /* \"contracts/stakingoat.sol\":7559:7569  _msgSender */\n      tag_162\n        /* \"contracts/stakingoat.sol\":7559:7571  _msgSender() */\n      jump\t// in\n    tag_161:\n        /* \"contracts/stakingoat.sol\":7549:7571  _owner == _msgSender() */\n      0xffffffffffffffffffffffffffffffffffffffff\n      and\n        /* \"contracts/stakingoat.sol\":7549:7555  _owner */\n      0x00\n      dup1\n      sload\n      swap1\n      0x0100\n      exp\n      swap1\n      div\n      0xffffffffffffffffffffffffffffffffffffffff\n      and\n        /* \"contracts/stakingoat.sol\":7549:7571  _owner == _msgSender() */\n      0xffffffffffffffffffffffffffffffffffffffff\n      and\n      eq\n        /* \"contracts/stakingoat.sol\":7541:7608  require(_owner == _msgSender(), \"Ownable: caller is not the owner\") */\n      tag_163\n      jumpi\n      mload(0x40)\n      0x08c379a000000000000000000000000000000000000000000000000000000000\n      dup2\n      mstore\n      0x04\n      add\n      tag_164\n      swap1\n      tag_165\n      jump\t// in\n    tag_164:\n      mload(0x40)\n      dup1\n      swap2\n      sub\n      swap1\n      revert\n    tag_163:\n        /* \"contracts/stakingoat.sol\":7743:7744  0 */\n      0x00\n        /* \"contracts/stakingoat.sol\":7706:7746  OwnershipTransferred(_owner, address(0)) */\n      0xffffffffffffffffffffffffffffffffffffffff\n      and\n        /* \"contracts/stakingoat.sol\":7727:7733  _owner */\n      0x00\n      dup1\n      sload\n      swap1\n      0x0100\n      exp\n      swap1\n      div\n      0xffffffffffffffffffffffffffffffffffffffff\n      and\n        /* \"contracts/stakingoat.sol\":7706:7746  OwnershipTransferred(_owner, address(0)) */\n      0xffffffffffffffffffffffffffffffffffffffff\n      and\n      0x8be0079c531659141344cd1fd0a4f28419497f9722a3daafe3b4186f6b6457e0\n      mload(0x40)\n      mload(0x40)\n      dup1\n      swap2\n      sub\n      swap1\n      log3\n        /* \"contracts/stakingoat.sol\":7774:7775  0 */\n      0x00\n        /* \"contracts/stakingoat.sol\":7757:7763  _owner */\n      dup1\n      0x00\n        /* \"contracts/stakingoat.sol\":7757:7776  _owner = address(0) */\n      0x0100\n      exp\n      dup2\n      sload\n      dup2\n      0xffffffffffffffffffffffffffffffffffffffff\n      mul\n      not\n      and\n      swap1\n      dup4\n      0xffffffffffffffffffffffffffffffffffffffff\n      and\n      mul\n      or\n      swap1\n      sstore\n      pop\n        /* \"contracts/stakingoat.sol\":7636:7784  function renounceOwnership() public virtual onlyOwner {... */\n      jump\t// out\n        /* \"contracts/stakingoat.sol\":7422:7501  function owner() public view returns (address) {... */\n    tag_72:\n        /* \"contracts/stakingoat.sol\":7460:7467  address */\n      0x00\n        /* \"contracts/stakingoat.sol\":7487:7493  _owner */\n      dup1\n      0x00\n      swap1\n      sload\n      swap1\n      0x0100\n      exp\n      swap1\n      div\n      0xffffffffffffffffffffffffffffffffffffffff\n      and\n        /* \"contracts/stakingoat.sol\":7480:7493  return _owner */\n      swap1\n      pop\n        /* \"contracts/stakingoat.sol\":7422:7501  function owner() public view returns (address) {... */\n      swap1\n      jump\t// out\n        /* \"contracts/stakingoat.sol\":17887:18582  function distributeReward() public {... */\n    tag_76:\n        /* \"contracts/stakingoat.sol\":17960:17961  0 */\n      0x00\n        /* \"contracts/stakingoat.sol\":17937:17949  stakeholders */\n      0x03\n        /* \"contracts/stakingoat.sol\":17937:17956  stakeholders.length */\n      dup1\n      sload\n      swap1\n      pop\n        /* \"contracts/stakingoat.sol\":17937:17961  stakeholders.length == 0 */\n      sub\n        /* \"contracts/stakingoat.sol\":17933:17996  if (stakeholders.length == 0) {... */\n      iszero\n        /* \"contracts/stakingoat.sol\":17978:17985  return; */\n      tag_168\n        /* \"contracts/stakingoat.sol\":17933:17996  if (stakeholders.length == 0) {... */\n      jumpi\n        /* \"contracts/stakingoat.sol\":18059:18060  1 */\n      0x01\n        /* \"contracts/stakingoat.sol\":18037:18049  stakeholders */\n      0x03\n        /* \"contracts/stakingoat.sol\":18037:18056  stakeholders.length */\n      dup1\n      sload\n      swap1\n      pop\n        /* \"contracts/stakingoat.sol\":18037:18060  stakeholders.length - 1 */\n      tag_170\n      swap2\n      swap1\n      tag_171\n      jump\t// in\n    tag_170:\n        /* \"contracts/stakingoat.sol\":18010:18033  rewardDistributionIndex */\n      sload(0x04)\n        /* \"contracts/stakingoat.sol\":18010:18060  rewardDistributionIndex == stakeholders.length - 1 */\n      sub\n        /* \"contracts/stakingoat.sol\":18006:18116  if (rewardDistributionIndex == stakeholders.length - 1) {... */\n      tag_172\n      jumpi\n        /* \"contracts/stakingoat.sol\":18103:18104  0 */\n      0x00\n        /* \"contracts/stakingoat.sol\":18077:18100  rewardDistributionIndex */\n      0x04\n        /* \"contracts/stakingoat.sol\":18077:18104  rewardDistributionIndex = 0 */\n      dup2\n      swap1\n      sstore\n      pop\n        /* \"contracts/stakingoat.sol\":18006:18116  if (rewardDistributionIndex == stakeholders.length - 1) {... */\n    tag_172:\n        /* \"contracts/stakingoat.sol\":18147:18156  uint256 i */\n      0x00\n        /* \"contracts/stakingoat.sol\":18159:18182  rewardDistributionIndex */\n      sload(0x04)\n        /* \"contracts/stakingoat.sol\":18147:18182  uint256 i = rewardDistributionIndex */\n      swap1\n      pop\n        /* \"contracts/stakingoat.sol\":18128:18575  for (... */\n    tag_173:\n        /* \"contracts/stakingoat.sol\":18201:18213  stakeholders */\n      0x03\n        /* \"contracts/stakingoat.sol\":18201:18220  stakeholders.length */\n      dup1\n      sload\n      swap1\n      pop\n        /* \"contracts/stakingoat.sol\":18197:18198  i */\n      dup2\n        /* \"contracts/stakingoat.sol\":18197:18220  i < stakeholders.length */\n      lt\n        /* \"contracts/stakingoat.sol\":18128:18575  for (... */\n      iszero\n      tag_174\n      jumpi\n        /* \"contracts/stakingoat.sol\":18265:18280  address account */\n      0x00\n        /* \"contracts/stakingoat.sol\":18283:18295  stakeholders */\n      0x03\n        /* \"contracts/stakingoat.sol\":18296:18297  i */\n      dup3\n        /* \"contracts/stakingoat.sol\":18283:18298  stakeholders[i] */\n      dup2\n      sload\n      dup2\n      lt\n      tag_176\n      jumpi\n      tag_177\n      tag_178\n      jump\t// in\n    tag_177:\n    tag_176:\n      swap1\n      0x00\n      mstore\n      keccak256(0x00, 0x20)\n      add\n      0x00\n      swap1\n      sload\n      swap1\n      0x0100\n      exp\n      swap1\n      div\n      0xffffffffffffffffffffffffffffffffffffffff\n      and\n        /* \"contracts/stakingoat.sol\":18265:18298  address account = stakeholders[i] */\n      swap1\n      pop\n        /* \"contracts/stakingoat.sol\":18314:18328  uint256 reward */\n      0x00\n        /* \"contracts/stakingoat.sol\":18334:18358  calculateReward(account) */\n      tag_180\n        /* \"contracts/stakingoat.sol\":18350:18357  account */\n      dup3\n        /* \"contracts/stakingoat.sol\":18334:18349  calculateReward */\n      tag_144\n        /* \"contracts/stakingoat.sol\":18334:18358  calculateReward(account) */\n      jump\t// in\n    tag_180:\n        /* \"contracts/stakingoat.sol\":18313:18358  (uint256 reward, ) = calculateReward(account) */\n      pop\n      swap1\n      pop\n        /* \"contracts/stakingoat.sol\":18399:18400  i */\n      dup3\n        /* \"contracts/stakingoat.sol\":18373:18396  rewardDistributionIndex */\n      0x04\n        /* \"contracts/stakingoat.sol\":18373:18400  rewardDistributionIndex = i */\n      dup2\n      swap1\n      sstore\n      pop\n        /* \"contracts/stakingoat.sol\":18429:18430  0 */\n      0x00\n        /* \"contracts/stakingoat.sol\":18419:18425  reward */\n      dup2\n        /* \"contracts/stakingoat.sol\":18419:18430  reward == 0 */\n      sub\n        /* \"contracts/stakingoat.sol\":18415:18564  if (reward == 0) {... */\n      tag_181\n      jumpi\n        /* \"contracts/stakingoat.sol\":18451:18459  continue */\n      pop\n      pop\n      jump(tag_175)\n        /* \"contracts/stakingoat.sol\":18415:18564  if (reward == 0) {... */\n    tag_181:\n        /* \"contracts/stakingoat.sol\":18500:18524  _withdrawReward(account) */\n      tag_183\n        /* \"contracts/stakingoat.sol\":18516:18523  account */\n      dup3\n        /* \"contracts/stakingoat.sol\":18500:18515  _withdrawReward */\n      tag_184\n        /* \"contracts/stakingoat.sol\":18500:18524  _withdrawReward(account) */\n      jump\t// in\n    tag_183:\n        /* \"contracts/stakingoat.sol\":18543:18548  break */\n      pop\n      pop\n      jump(tag_174)\n        /* \"contracts/stakingoat.sol\":18128:18575  for (... */\n    tag_175:\n        /* \"contracts/stakingoat.sol\":18235:18238  i++ */\n      dup1\n      dup1\n      tag_185\n      swap1\n      tag_186\n      jump\t// in\n    tag_185:\n      swap2\n      pop\n      pop\n        /* \"contracts/stakingoat.sol\":18128:18575  for (... */\n      jump(tag_173)\n    tag_174:\n      pop\n        /* \"contracts/stakingoat.sol\":17887:18582  function distributeReward() public {... */\n    tag_168:\n      jump\t// out\n        /* \"contracts/stakingoat.sol\":12144:12175  uint256 public _totalStakes = 0 */\n    tag_78:\n      sload(0x05)\n      dup2\n      jump\t// out\n        /* \"contracts/stakingoat.sol\":12021:12048  address public tokenAddress */\n    tag_81:\n      0x02\n      0x00\n      swap1\n      sload\n      swap1\n      0x0100\n      exp\n      swap1\n      div\n      0xffffffffffffffffffffffffffffffffffffffff\n      and\n      dup2\n      jump\t// out\n        /* \"contracts/stakingoat.sol\":18590:18767  function claimReward() public {... */\n    tag_84:\n        /* \"contracts/stakingoat.sol\":18632:18646  uint256 reward */\n      0x00\n        /* \"contracts/stakingoat.sol\":18652:18679  calculateReward(msg.sender) */\n      tag_188\n        /* \"contracts/stakingoat.sol\":18668:18678  msg.sender */\n      caller\n        /* \"contracts/stakingoat.sol\":18652:18667  calculateReward */\n      tag_144\n        /* \"contracts/stakingoat.sol\":18652:18679  calculateReward(msg.sender) */\n      jump\t// in\n    tag_188:\n        /* \"contracts/stakingoat.sol\":18631:18679  (uint256 reward, ) = calculateReward(msg.sender) */\n      pop\n      swap1\n      pop\n        /* \"contracts/stakingoat.sol\":18703:18704  0 */\n      0x00\n        /* \"contracts/stakingoat.sol\":18694:18700  reward */\n      dup2\n        /* \"contracts/stakingoat.sol\":18694:18704  reward > 0 */\n      gt\n        /* \"contracts/stakingoat.sol\":18690:18760  if (reward > 0) {... */\n      iszero\n      tag_189\n      jumpi\n        /* \"contracts/stakingoat.sol\":18721:18748  _withdrawReward(msg.sender) */\n      tag_190\n        /* \"contracts/stakingoat.sol\":18737:18747  msg.sender */\n      caller\n        /* \"contracts/stakingoat.sol\":18721:18736  _withdrawReward */\n      tag_184\n        /* \"contracts/stakingoat.sol\":18721:18748  _withdrawReward(msg.sender) */\n      jump\t// in\n    tag_190:\n        /* \"contracts/stakingoat.sol\":18690:18760  if (reward > 0) {... */\n    tag_189:\n        /* \"contracts/stakingoat.sol\":18620:18767  {... */\n      pop\n        /* \"contracts/stakingoat.sol\":18590:18767  function claimReward() public {... */\n      jump\t// out\n        /* \"contracts/stakingoat.sol\":13344:13759  function canStake(... */\n    tag_88:\n        /* \"contracts/stakingoat.sol\":13475:13481  bool b */\n      0x00\n        /* \"contracts/stakingoat.sol\":13541:13542  0 */\n      dup1\n        /* \"contracts/stakingoat.sol\":13512:13520  packages */\n      0x0c\n        /* \"contracts/stakingoat.sol\":13512:13537  packages[_stakingPackage] */\n      0x00\n        /* \"contracts/stakingoat.sol\":13521:13536  _stakingPackage */\n      dup6\n        /* \"contracts/stakingoat.sol\":13512:13537  packages[_stakingPackage] */\n      dup2\n      mstore\n      0x20\n      add\n      swap1\n      dup2\n      mstore\n      0x20\n      add\n      0x00\n      keccak256\n      sload\n        /* \"contracts/stakingoat.sol\":13512:13542  packages[_stakingPackage] >= 0 */\n      lt\n      iszero\n        /* \"contracts/stakingoat.sol\":13512:13593  packages[_stakingPackage] >= 0 &&... */\n      dup1\n      iszero\n      tag_192\n      jumpi\n      pop\n        /* \"contracts/stakingoat.sol\":13569:13574  token */\n      0x08\n      0x00\n      swap1\n      sload\n      swap1\n      0x0100\n      exp\n      swap1\n      div\n      0xffffffffffffffffffffffffffffffffffffffff\n      and\n        /* \"contracts/stakingoat.sol\":13569:13584  token.balanceOf */\n      0xffffffffffffffffffffffffffffffffffffffff\n      and\n      0x70a08231\n        /* \"contracts/stakingoat.sol\":13585:13592  account */\n      dup4\n        /* \"contracts/stakingoat.sol\":13569:13593  token.balanceOf(account) */\n      mload(0x40)\n      dup3\n      0xffffffff\n      and\n      0xe0\n      shl\n      dup2\n      mstore\n      0x04\n      add\n      tag_193\n      swap2\n      swap1\n      tag_74\n      jump\t// in\n    tag_193:\n      0x20\n      mload(0x40)\n      dup1\n      dup4\n      sub\n      dup2\n      dup7\n      gas\n      staticcall\n      iszero\n      dup1\n      iszero\n      tag_195\n      jumpi\n      returndatasize\n      0x00\n      dup1\n      returndatacopy\n      revert(0x00, returndatasize)\n    tag_195:\n      pop\n      pop\n      pop\n      pop\n      mload(0x40)\n      returndatasize\n      not(0x1f)\n      0x1f\n      dup3\n      add\n      and\n      dup3\n      add\n      dup1\n      0x40\n      mstore\n      pop\n      dup2\n      add\n      swap1\n      tag_196\n      swap2\n      swap1\n      tag_141\n      jump\t// in\n    tag_196:\n        /* \"contracts/stakingoat.sol\":13559:13565  _stake */\n      dup5\n        /* \"contracts/stakingoat.sol\":13559:13593  _stake <= token.balanceOf(account) */\n      gt\n      iszero\n        /* \"contracts/stakingoat.sol\":13512:13593  packages[_stakingPackage] >= 0 &&... */\n    tag_192:\n        /* \"contracts/stakingoat.sol\":13512:13630  packages[_stakingPackage] >= 0 &&... */\n      dup1\n      iszero\n      tag_197\n      jumpi\n      pop\n        /* \"contracts/stakingoat.sol\":13629:13630  0 */\n      0x00\n        /* \"contracts/stakingoat.sol\":13610:13616  stakes */\n      0x09\n        /* \"contracts/stakingoat.sol\":13610:13625  stakes[account] */\n      0x00\n        /* \"contracts/stakingoat.sol\":13617:13624  account */\n      dup5\n        /* \"contracts/stakingoat.sol\":13610:13625  stakes[account] */\n      0xffffffffffffffffffffffffffffffffffffffff\n      and\n      0xffffffffffffffffffffffffffffffffffffffff\n      and\n      dup2\n      mstore\n      0x20\n      add\n      swap1\n      dup2\n      mstore\n      0x20\n      add\n      0x00\n      keccak256\n      sload\n        /* \"contracts/stakingoat.sol\":13610:13630  stakes[account] == 0 */\n      eq\n        /* \"contracts/stakingoat.sol\":13512:13630  packages[_stakingPackage] >= 0 &&... */\n    tag_197:\n        /* \"contracts/stakingoat.sol\":13512:13657  packages[_stakingPackage] >= 0 &&... */\n      dup1\n      iszero\n      tag_198\n      jumpi\n      pop\n        /* \"contracts/stakingoat.sol\":13656:13657  0 */\n      0x00\n        /* \"contracts/stakingoat.sol\":13647:13653  _stake */\n      dup5\n        /* \"contracts/stakingoat.sol\":13647:13657  _stake > 0 */\n      gt\n        /* \"contracts/stakingoat.sol\":13512:13657  packages[_stakingPackage] >= 0 &&... */\n    tag_198:\n        /* \"contracts/stakingoat.sol\":13494:13752  if (... */\n      iszero\n      tag_199\n      jumpi\n        /* \"contracts/stakingoat.sol\":13691:13695  true */\n      0x01\n        /* \"contracts/stakingoat.sol\":13684:13695  return true */\n      swap1\n      pop\n      jump(tag_191)\n        /* \"contracts/stakingoat.sol\":13494:13752  if (... */\n    tag_199:\n        /* \"contracts/stakingoat.sol\":13735:13740  false */\n      0x00\n        /* \"contracts/stakingoat.sol\":13728:13740  return false */\n      swap1\n      pop\n        /* \"contracts/stakingoat.sol\":13344:13759  function canStake(... */\n    tag_191:\n      swap4\n      swap3\n      pop\n      pop\n      pop\n      jump\t// out\n        /* \"contracts/stakingoat.sol\":14967:15058  function totalStakes() public view returns (uint256) {... */\n    tag_92:\n        /* \"contracts/stakingoat.sol\":15011:15018  uint256 */\n      0x00\n        /* \"contracts/stakingoat.sol\":15038:15050  _totalStakes */\n      sload(0x05)\n        /* \"contracts/stakingoat.sol\":15031:15050  return _totalStakes */\n      swap1\n      pop\n        /* \"contracts/stakingoat.sol\":14967:15058  function totalStakes() public view returns (uint256) {... */\n      swap1\n      jump\t// out\n        /* \"contracts/stakingoat.sol\":13895:14003  function setApyPercentage(uint256 _percentage) public onlyOwner {... */\n    tag_96:\n        /* \"contracts/stakingoat.sol\":7559:7571  _msgSender() */\n      tag_203\n        /* \"contracts/stakingoat.sol\":7559:7569  _msgSender */\n      tag_162\n        /* \"contracts/stakingoat.sol\":7559:7571  _msgSender() */\n      jump\t// in\n    tag_203:\n        /* \"contracts/stakingoat.sol\":7549:7571  _owner == _msgSender() */\n      0xffffffffffffffffffffffffffffffffffffffff\n      and\n        /* \"contracts/stakingoat.sol\":7549:7555  _owner */\n      0x00\n      dup1\n      sload\n      swap1\n      0x0100\n      exp\n      swap1\n      div\n      0xffffffffffffffffffffffffffffffffffffffff\n      and\n        /* \"contracts/stakingoat.sol\":7549:7571  _owner == _msgSender() */\n      0xffffffffffffffffffffffffffffffffffffffff\n      and\n      eq\n        /* \"contracts/stakingoat.sol\":7541:7608  require(_owner == _msgSender(), \"Ownable: caller is not the owner\") */\n      tag_204\n      jumpi\n      mload(0x40)\n      0x08c379a000000000000000000000000000000000000000000000000000000000\n      dup2\n      mstore\n      0x04\n      add\n      tag_205\n      swap1\n      tag_165\n      jump\t// in\n    tag_205:\n      mload(0x40)\n      dup1\n      swap2\n      sub\n      swap1\n      revert\n    tag_204:\n        /* \"contracts/stakingoat.sol\":13984:13995  _percentage */\n      dup1\n        /* \"contracts/stakingoat.sol\":13970:13978  packages */\n      0x0c\n        /* \"contracts/stakingoat.sol\":13970:13981  packages[0] */\n      0x00\n        /* \"contracts/stakingoat.sol\":13979:13980  0 */\n      dup1\n        /* \"contracts/stakingoat.sol\":13970:13981  packages[0] */\n      dup2\n      mstore\n      0x20\n      add\n      swap1\n      dup2\n      mstore\n      0x20\n      add\n      0x00\n      keccak256\n        /* \"contracts/stakingoat.sol\":13970:13995  packages[0] = _percentage */\n      dup2\n      swap1\n      sstore\n      pop\n        /* \"contracts/stakingoat.sol\":13895:14003  function setApyPercentage(uint256 _percentage) public onlyOwner {... */\n      pop\n      jump\t// out\n        /* \"contracts/stakingoat.sol\":12878:13336  function createStake(uint256 _stake, uint256 _stakingPackage) external {... */\n    tag_100:\n        /* \"contracts/stakingoat.sol\":12978:12979  0 */\n      0x00\n        /* \"contracts/stakingoat.sol\":12960:12979  _stakingPackage = 0 */\n      swap1\n      pop\n        /* \"contracts/stakingoat.sol\":12990:13004  bool _canStake */\n      0x00\n        /* \"contracts/stakingoat.sol\":13007:13052  canStake(_stake, _stakingPackage, msg.sender) */\n      tag_208\n        /* \"contracts/stakingoat.sol\":13016:13022  _stake */\n      dup4\n        /* \"contracts/stakingoat.sol\":13024:13039  _stakingPackage */\n      dup4\n        /* \"contracts/stakingoat.sol\":13041:13051  msg.sender */\n      caller\n        /* \"contracts/stakingoat.sol\":13007:13015  canStake */\n      tag_88\n        /* \"contracts/stakingoat.sol\":13007:13052  canStake(_stake, _stakingPackage, msg.sender) */\n      jump\t// in\n    tag_208:\n        /* \"contracts/stakingoat.sol\":12990:13052  bool _canStake = canStake(_stake, _stakingPackage, msg.sender) */\n      swap1\n      pop\n        /* \"contracts/stakingoat.sol\":13071:13080  _canStake */\n      dup1\n        /* \"contracts/stakingoat.sol\":13063:13097  require(_canStake, \"Cannot Stake\") */\n      tag_209\n      jumpi\n      mload(0x40)\n      0x08c379a000000000000000000000000000000000000000000000000000000000\n      dup2\n      mstore\n      0x04\n      add\n      tag_210\n      swap1\n      tag_211\n      jump\t// in\n    tag_210:\n      mload(0x40)\n      dup1\n      swap2\n      sub\n      swap1\n      revert\n    tag_209:\n        /* \"contracts/stakingoat.sol\":13108:13113  token */\n      0x08\n      0x00\n      swap1\n      sload\n      swap1\n      0x0100\n      exp\n      swap1\n      div\n      0xffffffffffffffffffffffffffffffffffffffff\n      and\n        /* \"contracts/stakingoat.sol\":13108:13126  token.transferFrom */\n      0xffffffffffffffffffffffffffffffffffffffff\n      and\n      0x23b872dd\n        /* \"contracts/stakingoat.sol\":13127:13137  msg.sender */\n      caller\n        /* \"contracts/stakingoat.sol\":13147:13151  this */\n      address\n        /* \"contracts/stakingoat.sol\":13154:13160  _stake */\n      dup7\n        /* \"contracts/stakingoat.sol\":13108:13161  token.transferFrom(msg.sender, address(this), _stake) */\n      mload(0x40)\n      dup5\n      0xffffffff\n      and\n      0xe0\n      shl\n      dup2\n      mstore\n      0x04\n      add\n      tag_212\n      swap4\n      swap3\n      swap2\n      swap1\n      tag_213\n      jump\t// in\n    tag_212:\n      0x20\n      mload(0x40)\n      dup1\n      dup4\n      sub\n      dup2\n      0x00\n      dup8\n      gas\n      call\n      iszero\n      dup1\n      iszero\n      tag_215\n      jumpi\n      returndatasize\n      0x00\n      dup1\n      returndatacopy\n      revert(0x00, returndatasize)\n    tag_215:\n      pop\n      pop\n      pop\n      pop\n      mload(0x40)\n      returndatasize\n      not(0x1f)\n      0x1f\n      dup3\n      add\n      and\n      dup3\n      add\n      dup1\n      0x40\n      mstore\n      pop\n      dup2\n      add\n      swap1\n      tag_216\n      swap2\n      swap1\n      tag_135\n      jump\t// in\n    tag_216:\n      pop\n        /* \"contracts/stakingoat.sol\":13208:13216  uintTime */\n      sload(0x06)\n        /* \"contracts/stakingoat.sol\":13190:13205  _stakingPackage */\n      dup3\n        /* \"contracts/stakingoat.sol\":13190:13216  _stakingPackage * uintTime */\n      tag_217\n      swap2\n      swap1\n      tag_218\n      jump\t// in\n    tag_217:\n        /* \"contracts/stakingoat.sol\":13172:13216  _stakingPackage = _stakingPackage * uintTime */\n      swap2\n      pop\n        /* \"contracts/stakingoat.sol\":13227:13278  addStakeholder(msg.sender, _stake, _stakingPackage) */\n      tag_219\n        /* \"contracts/stakingoat.sol\":13242:13252  msg.sender */\n      caller\n        /* \"contracts/stakingoat.sol\":13254:13260  _stake */\n      dup5\n        /* \"contracts/stakingoat.sol\":13262:13277  _stakingPackage */\n      dup5\n        /* \"contracts/stakingoat.sol\":13227:13241  addStakeholder */\n      tag_220\n        /* \"contracts/stakingoat.sol\":13227:13278  addStakeholder(msg.sender, _stake, _stakingPackage) */\n      jump\t// in\n    tag_219:\n        /* \"contracts/stakingoat.sol\":13304:13328  _totalStakes.add(_stake) */\n      tag_221\n        /* \"contracts/stakingoat.sol\":13321:13327  _stake */\n      dup4\n        /* \"contracts/stakingoat.sol\":13304:13316  _totalStakes */\n      sload(0x05)\n        /* \"contracts/stakingoat.sol\":13304:13320  _totalStakes.add */\n      tag_222\n      swap1\n        /* \"contracts/stakingoat.sol\":13304:13328  _totalStakes.add(_stake) */\n      swap2\n      swap1\n      0xffffffff\n      and\n      jump\t// in\n    tag_221:\n        /* \"contracts/stakingoat.sol\":13289:13301  _totalStakes */\n      0x05\n        /* \"contracts/stakingoat.sol\":13289:13328  _totalStakes = _totalStakes.add(_stake) */\n      dup2\n      swap1\n      sstore\n      pop\n        /* \"contracts/stakingoat.sol\":12949:13336  {... */\n      pop\n        /* \"contracts/stakingoat.sol\":12878:13336  function createStake(uint256 _stake, uint256 _stakingPackage) external {... */\n      pop\n      pop\n      jump\t// out\n        /* \"contracts/stakingoat.sol\":18775:18924  function setAddress(address _tokenAddress) external onlyOwner {... */\n    tag_103:\n        /* \"contracts/stakingoat.sol\":7559:7571  _msgSender() */\n      tag_224\n        /* \"contracts/stakingoat.sol\":7559:7569  _msgSender */\n      tag_162\n        /* \"contracts/stakingoat.sol\":7559:7571  _msgSender() */\n      jump\t// in\n    tag_224:\n        /* \"contracts/stakingoat.sol\":7549:7571  _owner == _msgSender() */\n      0xffffffffffffffffffffffffffffffffffffffff\n      and\n        /* \"contracts/stakingoat.sol\":7549:7555  _owner */\n      0x00\n      dup1\n      sload\n      swap1\n      0x0100\n      exp\n      swap1\n      div\n      0xffffffffffffffffffffffffffffffffffffffff\n      and\n        /* \"contracts/stakingoat.sol\":7549:7571  _owner == _msgSender() */\n      0xffffffffffffffffffffffffffffffffffffffff\n      and\n      eq\n        /* \"contracts/stakingoat.sol\":7541:7608  require(_owner == _msgSender(), \"Ownable: caller is not the owner\") */\n      tag_225\n      jumpi\n      mload(0x40)\n      0x08c379a000000000000000000000000000000000000000000000000000000000\n      dup2\n      mstore\n      0x04\n      add\n      tag_226\n      swap1\n      tag_165\n      jump\t// in\n    tag_226:\n      mload(0x40)\n      dup1\n      swap2\n      sub\n      swap1\n      revert\n    tag_225:\n        /* \"contracts/stakingoat.sol\":18863:18876  _tokenAddress */\n      dup1\n        /* \"contracts/stakingoat.sol\":18848:18853  token */\n      0x08\n      0x00\n        /* \"contracts/stakingoat.sol\":18848:18877  token = IERC20(_tokenAddress) */\n      0x0100\n      exp\n      dup2\n      sload\n      dup2\n      0xffffffffffffffffffffffffffffffffffffffff\n      mul\n      not\n      and\n      swap1\n      dup4\n      0xffffffffffffffffffffffffffffffffffffffff\n      and\n      mul\n      or\n      swap1\n      sstore\n      pop\n        /* \"contracts/stakingoat.sol\":18903:18916  _tokenAddress */\n      dup1\n        /* \"contracts/stakingoat.sol\":18888:18900  tokenAddress */\n      0x02\n      0x00\n        /* \"contracts/stakingoat.sol\":18888:18916  tokenAddress = _tokenAddress */\n      0x0100\n      exp\n      dup2\n      sload\n      dup2\n      0xffffffffffffffffffffffffffffffffffffffff\n      mul\n      not\n      and\n      swap1\n      dup4\n      0xffffffffffffffffffffffffffffffffffffffff\n      and\n      mul\n      or\n      swap1\n      sstore\n      pop\n        /* \"contracts/stakingoat.sol\":18775:18924  function setAddress(address _tokenAddress) external onlyOwner {... */\n      pop\n      jump\t// out\n        /* \"contracts/stakingoat.sol\":15066:15331  function isStakeholder(... */\n    tag_106:\n        /* \"contracts/stakingoat.sol\":15144:15148  bool */\n      0x00\n        /* \"contracts/stakingoat.sol\":15150:15157  uint256 */\n      dup1\n        /* \"contracts/stakingoat.sol\":15175:15184  uint256 s */\n      0x00\n        /* \"contracts/stakingoat.sol\":15170:15296  for (uint256 s = 0; s < stakeholders.length; s++) {... */\n    tag_229:\n        /* \"contracts/stakingoat.sol\":15194:15206  stakeholders */\n      0x03\n        /* \"contracts/stakingoat.sol\":15194:15213  stakeholders.length */\n      dup1\n      sload\n      swap1\n      pop\n        /* \"contracts/stakingoat.sol\":15190:15191  s */\n      dup2\n        /* \"contracts/stakingoat.sol\":15190:15213  s < stakeholders.length */\n      lt\n        /* \"contracts/stakingoat.sol\":15170:15296  for (uint256 s = 0; s < stakeholders.length; s++) {... */\n      iszero\n      tag_230\n      jumpi\n        /* \"contracts/stakingoat.sol\":15251:15263  stakeholders */\n      0x03\n        /* \"contracts/stakingoat.sol\":15264:15265  s */\n      dup2\n        /* \"contracts/stakingoat.sol\":15251:15266  stakeholders[s] */\n      dup2\n      sload\n      dup2\n      lt\n      tag_232\n      jumpi\n      tag_233\n      tag_178\n      jump\t// in\n    tag_233:\n    tag_232:\n      swap1\n      0x00\n      mstore\n      keccak256(0x00, 0x20)\n      add\n      0x00\n      swap1\n      sload\n      swap1\n      0x0100\n      exp\n      swap1\n      div\n      0xffffffffffffffffffffffffffffffffffffffff\n      and\n        /* \"contracts/stakingoat.sol\":15239:15266  _address == stakeholders[s] */\n      0xffffffffffffffffffffffffffffffffffffffff\n      and\n        /* \"contracts/stakingoat.sol\":15239:15247  _address */\n      dup5\n        /* \"contracts/stakingoat.sol\":15239:15266  _address == stakeholders[s] */\n      0xffffffffffffffffffffffffffffffffffffffff\n      and\n      sub\n        /* \"contracts/stakingoat.sol\":15235:15284  if (_address == stakeholders[s]) return (true, s) */\n      tag_235\n      jumpi\n        /* \"contracts/stakingoat.sol\":15276:15280  true */\n      0x01\n        /* \"contracts/stakingoat.sol\":15282:15283  s */\n      dup2\n        /* \"contracts/stakingoat.sol\":15268:15284  return (true, s) */\n      swap3\n      pop\n      swap3\n      pop\n      pop\n      jump(tag_228)\n        /* \"contracts/stakingoat.sol\":15235:15284  if (_address == stakeholders[s]) return (true, s) */\n    tag_235:\n        /* \"contracts/stakingoat.sol\":15215:15218  s++ */\n      dup1\n      dup1\n      tag_236\n      swap1\n      tag_186\n      jump\t// in\n    tag_236:\n      swap2\n      pop\n      pop\n        /* \"contracts/stakingoat.sol\":15170:15296  for (uint256 s = 0; s < stakeholders.length; s++) {... */\n      jump(tag_229)\n    tag_230:\n      pop\n        /* \"contracts/stakingoat.sol\":15314:15319  false */\n      0x00\n        /* \"contracts/stakingoat.sol\":15321:15322  0 */\n      dup1\n        /* \"contracts/stakingoat.sol\":15306:15323  return (false, 0) */\n      swap2\n      pop\n      swap2\n      pop\n        /* \"contracts/stakingoat.sol\":15066:15331  function isStakeholder(... */\n    tag_228:\n      swap2\n      pop\n      swap2\n      jump\t// out\n        /* \"contracts/stakingoat.sol\":7792:8073  function transferOwnership(address newOwner) public virtual onlyOwner {... */\n    tag_111:\n        /* \"contracts/stakingoat.sol\":7559:7571  _msgSender() */\n      tag_238\n        /* \"contracts/stakingoat.sol\":7559:7569  _msgSender */\n      tag_162\n        /* \"contracts/stakingoat.sol\":7559:7571  _msgSender() */\n      jump\t// in\n    tag_238:\n        /* \"contracts/stakingoat.sol\":7549:7571  _owner == _msgSender() */\n      0xffffffffffffffffffffffffffffffffffffffff\n      and\n        /* \"contracts/stakingoat.sol\":7549:7555  _owner */\n      0x00\n      dup1\n      sload\n      swap1\n      0x0100\n      exp\n      swap1\n      div\n      0xffffffffffffffffffffffffffffffffffffffff\n      and\n        /* \"contracts/stakingoat.sol\":7549:7571  _owner == _msgSender() */\n      0xffffffffffffffffffffffffffffffffffffffff\n      and\n      eq\n        /* \"contracts/stakingoat.sol\":7541:7608  require(_owner == _msgSender(), \"Ownable: caller is not the owner\") */\n      tag_239\n      jumpi\n      mload(0x40)\n      0x08c379a000000000000000000000000000000000000000000000000000000000\n      dup2\n      mstore\n      0x04\n      add\n      tag_240\n      swap1\n      tag_165\n      jump\t// in\n    tag_240:\n      mload(0x40)\n      dup1\n      swap2\n      sub\n      swap1\n      revert\n    tag_239:\n        /* \"contracts/stakingoat.sol\":7915:7916  0 */\n      0x00\n        /* \"contracts/stakingoat.sol\":7895:7917  newOwner != address(0) */\n      0xffffffffffffffffffffffffffffffffffffffff\n      and\n        /* \"contracts/stakingoat.sol\":7895:7903  newOwner */\n      dup2\n        /* \"contracts/stakingoat.sol\":7895:7917  newOwner != address(0) */\n      0xffffffffffffffffffffffffffffffffffffffff\n      and\n      sub\n        /* \"contracts/stakingoat.sol\":7873:7983  require(... */\n      tag_242\n      jumpi\n      mload(0x40)\n      0x08c379a000000000000000000000000000000000000000000000000000000000\n      dup2\n      mstore\n      0x04\n      add\n      tag_243\n      swap1\n      tag_244\n      jump\t// in\n    tag_243:\n      mload(0x40)\n      dup1\n      swap2\n      sub\n      swap1\n      revert\n    tag_242:\n        /* \"contracts/stakingoat.sol\":8028:8036  newOwner */\n      dup1\n        /* \"contracts/stakingoat.sol\":7999:8037  OwnershipTransferred(_owner, newOwner) */\n      0xffffffffffffffffffffffffffffffffffffffff\n      and\n        /* \"contracts/stakingoat.sol\":8020:8026  _owner */\n      0x00\n      dup1\n      sload\n      swap1\n      0x0100\n      exp\n      swap1\n      div\n      0xffffffffffffffffffffffffffffffffffffffff\n      and\n        /* \"contracts/stakingoat.sol\":7999:8037  OwnershipTransferred(_owner, newOwner) */\n      0xffffffffffffffffffffffffffffffffffffffff\n      and\n      0x8be0079c531659141344cd1fd0a4f28419497f9722a3daafe3b4186f6b6457e0\n      mload(0x40)\n      mload(0x40)\n      dup1\n      swap2\n      sub\n      swap1\n      log3\n        /* \"contracts/stakingoat.sol\":8057:8065  newOwner */\n      dup1\n        /* \"contracts/stakingoat.sol\":8048:8054  _owner */\n      0x00\n      dup1\n        /* \"contracts/stakingoat.sol\":8048:8065  _owner = newOwner */\n      0x0100\n      exp\n      dup2\n      sload\n      dup2\n      0xffffffffffffffffffffffffffffffffffffffff\n      mul\n      not\n      and\n      swap1\n      dup4\n      0xffffffffffffffffffffffffffffffffffffffff\n      and\n      mul\n      or\n      swap1\n      sstore\n      pop\n        /* \"contracts/stakingoat.sol\":7792:8073  function transferOwnership(address newOwner) public virtual onlyOwner {... */\n      pop\n      jump\t// out\n        /* \"contracts/stakingoat.sol\":9496:9654  function sub(uint256 a, uint256 b) internal pure returns (uint256) {... */\n    tag_117:\n        /* \"contracts/stakingoat.sol\":9554:9561  uint256 */\n      0x00\n        /* \"contracts/stakingoat.sol\":9587:9588  a */\n      dup3\n        /* \"contracts/stakingoat.sol\":9582:9583  b */\n      dup3\n        /* \"contracts/stakingoat.sol\":9582:9588  b <= a */\n      gt\n      iszero\n        /* \"contracts/stakingoat.sol\":9574:9623  require(b <= a, \"SafeMath: subtraction overflow\") */\n      tag_246\n      jumpi\n      mload(0x40)\n      0x08c379a000000000000000000000000000000000000000000000000000000000\n      dup2\n      mstore\n      0x04\n      add\n      tag_247\n      swap1\n      tag_248\n      jump\t// in\n    tag_247:\n      mload(0x40)\n      dup1\n      swap2\n      sub\n      swap1\n      revert\n    tag_246:\n        /* \"contracts/stakingoat.sol\":9645:9646  b */\n      dup2\n        /* \"contracts/stakingoat.sol\":9641:9642  a */\n      dup4\n        /* \"contracts/stakingoat.sol\":9641:9646  a - b */\n      tag_249\n      swap2\n      swap1\n      tag_171\n      jump\t// in\n    tag_249:\n        /* \"contracts/stakingoat.sol\":9634:9646  return a - b */\n      swap1\n      pop\n        /* \"contracts/stakingoat.sol\":9496:9654  function sub(uint256 a, uint256 b) internal pure returns (uint256) {... */\n      swap3\n      swap2\n      pop\n      pop\n      jump\t// out\n        /* \"contracts/stakingoat.sol\":15783:16162  function removeStakeholder(address _stakeholder) private {... */\n    tag_120:\n        /* \"contracts/stakingoat.sol\":15852:15871  bool _isStakeholder */\n      0x00\n        /* \"contracts/stakingoat.sol\":15873:15882  uint256 s */\n      dup1\n        /* \"contracts/stakingoat.sol\":15886:15913  isStakeholder(_stakeholder) */\n      tag_251\n        /* \"contracts/stakingoat.sol\":15900:15912  _stakeholder */\n      dup4\n        /* \"contracts/stakingoat.sol\":15886:15899  isStakeholder */\n      tag_106\n        /* \"contracts/stakingoat.sol\":15886:15913  isStakeholder(_stakeholder) */\n      jump\t// in\n    tag_251:\n        /* \"contracts/stakingoat.sol\":15851:15913  (bool _isStakeholder, uint256 s) = isStakeholder(_stakeholder) */\n      swap2\n      pop\n      swap2\n      pop\n        /* \"contracts/stakingoat.sol\":15928:15942  _isStakeholder */\n      dup2\n        /* \"contracts/stakingoat.sol\":15924:16155  if (_isStakeholder) {... */\n      iszero\n      tag_252\n      jumpi\n        /* \"contracts/stakingoat.sol\":15977:15989  stakeholders */\n      0x03\n        /* \"contracts/stakingoat.sol\":16012:16013  1 */\n      0x01\n        /* \"contracts/stakingoat.sol\":15990:16002  stakeholders */\n      0x03\n        /* \"contracts/stakingoat.sol\":15990:16009  stakeholders.length */\n      dup1\n      sload\n      swap1\n      pop\n        /* \"contracts/stakingoat.sol\":15990:16013  stakeholders.length - 1 */\n      tag_253\n      swap2\n      swap1\n      tag_171\n      jump\t// in\n    tag_253:\n        /* \"contracts/stakingoat.sol\":15977:16014  stakeholders[stakeholders.length - 1] */\n      dup2\n      sload\n      dup2\n      lt\n      tag_254\n      jumpi\n      tag_255\n      tag_178\n      jump\t// in\n    tag_255:\n    tag_254:\n      swap1\n      0x00\n      mstore\n      keccak256(0x00, 0x20)\n      add\n      0x00\n      swap1\n      sload\n      swap1\n      0x0100\n      exp\n      swap1\n      div\n      0xffffffffffffffffffffffffffffffffffffffff\n      and\n        /* \"contracts/stakingoat.sol\":15959:15971  stakeholders */\n      0x03\n        /* \"contracts/stakingoat.sol\":15972:15973  s */\n      dup3\n        /* \"contracts/stakingoat.sol\":15959:15974  stakeholders[s] */\n      dup2\n      sload\n      dup2\n      lt\n      tag_257\n      jumpi\n      tag_258\n      tag_178\n      jump\t// in\n    tag_258:\n    tag_257:\n      swap1\n      0x00\n      mstore\n      keccak256(0x00, 0x20)\n      add\n      0x00\n        /* \"contracts/stakingoat.sol\":15959:16014  stakeholders[s] = stakeholders[stakeholders.length - 1] */\n      0x0100\n      exp\n      dup2\n      sload\n      dup2\n      0xffffffffffffffffffffffffffffffffffffffff\n      mul\n      not\n      and\n      swap1\n      dup4\n      0xffffffffffffffffffffffffffffffffffffffff\n      and\n      mul\n      or\n      swap1\n      sstore\n      pop\n        /* \"contracts/stakingoat.sol\":16029:16041  stakeholders */\n      0x03\n        /* \"contracts/stakingoat.sol\":16029:16047  stakeholders.pop() */\n      dup1\n      sload\n      dup1\n      tag_260\n      jumpi\n      tag_261\n      tag_262\n      jump\t// in\n    tag_261:\n    tag_260:\n      0x01\n      swap1\n      sub\n      dup2\n      dup2\n      swap1\n      0x00\n      mstore\n      keccak256(0x00, 0x20)\n      add\n      exp(0x0100, 0x00)\n      dup2\n      sload\n      swap1\n      0xffffffffffffffffffffffffffffffffffffffff\n      mul\n      not\n      and\n      swap1\n      sstore\n      swap1\n      sstore\n        /* \"contracts/stakingoat.sol\":16095:16096  0 */\n      0x00\n        /* \"contracts/stakingoat.sol\":16062:16078  stakingTimestamp */\n      0x0a\n        /* \"contracts/stakingoat.sol\":16062:16092  stakingTimestamp[_stakeholder] */\n      0x00\n        /* \"contracts/stakingoat.sol\":16079:16091  _stakeholder */\n      dup6\n        /* \"contracts/stakingoat.sol\":16062:16092  stakingTimestamp[_stakeholder] */\n      0xffffffffffffffffffffffffffffffffffffffff\n      and\n      0xffffffffffffffffffffffffffffffffffffffff\n      and\n      dup2\n      mstore\n      0x20\n      add\n      swap1\n      dup2\n      mstore\n      0x20\n      add\n      0x00\n      keccak256\n        /* \"contracts/stakingoat.sol\":16062:16096  stakingTimestamp[_stakeholder] = 0 */\n      dup2\n      swap1\n      sstore\n      pop\n        /* \"contracts/stakingoat.sol\":16142:16143  0 */\n      0x00\n        /* \"contracts/stakingoat.sol\":16111:16125  stakingPackage */\n      0x0b\n        /* \"contracts/stakingoat.sol\":16111:16139  stakingPackage[_stakeholder] */\n      0x00\n        /* \"contracts/stakingoat.sol\":16126:16138  _stakeholder */\n      dup6\n        /* \"contracts/stakingoat.sol\":16111:16139  stakingPackage[_stakeholder] */\n      0xffffffffffffffffffffffffffffffffffffffff\n      and\n      0xffffffffffffffffffffffffffffffffffffffff\n      and\n      dup2\n      mstore\n      0x20\n      add\n      swap1\n      dup2\n      mstore\n      0x20\n      add\n      0x00\n      keccak256\n        /* \"contracts/stakingoat.sol\":16111:16143  stakingPackage[_stakeholder] = 0 */\n      dup2\n      swap1\n      sstore\n      pop\n        /* \"contracts/stakingoat.sol\":15924:16155  if (_isStakeholder) {... */\n    tag_252:\n        /* \"contracts/stakingoat.sol\":15840:16162  {... */\n      pop\n      pop\n        /* \"contracts/stakingoat.sol\":15783:16162  function removeStakeholder(address _stakeholder) private {... */\n      pop\n      jump\t// out\n        /* \"contracts/stakingoat.sol\":9662:9882  function mul(uint256 a, uint256 b) internal pure returns (uint256) {... */\n    tag_127:\n        /* \"contracts/stakingoat.sol\":9720:9727  uint256 */\n      0x00\n        /* \"contracts/stakingoat.sol\":9749:9750  0 */\n      dup1\n        /* \"contracts/stakingoat.sol\":9744:9745  a */\n      dup4\n        /* \"contracts/stakingoat.sol\":9744:9750  a == 0 */\n      sub\n        /* \"contracts/stakingoat.sol\":9740:9760  if (a == 0) return 0 */\n      tag_265\n      jumpi\n        /* \"contracts/stakingoat.sol\":9759:9760  0 */\n      0x00\n        /* \"contracts/stakingoat.sol\":9752:9760  return 0 */\n      swap1\n      pop\n      jump(tag_264)\n        /* \"contracts/stakingoat.sol\":9740:9760  if (a == 0) return 0 */\n    tag_265:\n        /* \"contracts/stakingoat.sol\":9771:9780  uint256 c */\n      0x00\n        /* \"contracts/stakingoat.sol\":9787:9788  b */\n      dup3\n        /* \"contracts/stakingoat.sol\":9783:9784  a */\n      dup5\n        /* \"contracts/stakingoat.sol\":9783:9788  a * b */\n      tag_266\n      swap2\n      swap1\n      tag_218\n      jump\t// in\n    tag_266:\n        /* \"contracts/stakingoat.sol\":9771:9788  uint256 c = a * b */\n      swap1\n      pop\n        /* \"contracts/stakingoat.sol\":9816:9817  b */\n      dup3\n        /* \"contracts/stakingoat.sol\":9811:9812  a */\n      dup5\n        /* \"contracts/stakingoat.sol\":9807:9808  c */\n      dup3\n        /* \"contracts/stakingoat.sol\":9807:9812  c / a */\n      tag_267\n      swap2\n      swap1\n      tag_268\n      jump\t// in\n    tag_267:\n        /* \"contracts/stakingoat.sol\":9807:9817  c / a == b */\n      eq\n        /* \"contracts/stakingoat.sol\":9799:9855  require(c / a == b, \"SafeMath: multiplication overflow\") */\n      tag_269\n      jumpi\n      mload(0x40)\n      0x08c379a000000000000000000000000000000000000000000000000000000000\n      dup2\n      mstore\n      0x04\n      add\n      tag_270\n      swap1\n      tag_271\n      jump\t// in\n    tag_270:\n      mload(0x40)\n      dup1\n      swap2\n      sub\n      swap1\n      revert\n    tag_269:\n        /* \"contracts/stakingoat.sol\":9873:9874  c */\n      dup1\n        /* \"contracts/stakingoat.sol\":9866:9874  return c */\n      swap2\n      pop\n      pop\n        /* \"contracts/stakingoat.sol\":9662:9882  function mul(uint256 a, uint256 b) internal pure returns (uint256) {... */\n    tag_264:\n      swap3\n      swap2\n      pop\n      pop\n      jump\t// out\n        /* \"contracts/stakingoat.sol\":9890:10043  function div(uint256 a, uint256 b) internal pure returns (uint256) {... */\n    tag_128:\n        /* \"contracts/stakingoat.sol\":9948:9955  uint256 */\n      0x00\n        /* \"contracts/stakingoat.sol\":9980:9981  0 */\n      dup1\n        /* \"contracts/stakingoat.sol\":9976:9977  b */\n      dup3\n        /* \"contracts/stakingoat.sol\":9976:9981  b > 0 */\n      gt\n        /* \"contracts/stakingoat.sol\":9968:10012  require(b > 0, \"SafeMath: division by zero\") */\n      tag_273\n      jumpi\n      mload(0x40)\n      0x08c379a000000000000000000000000000000000000000000000000000000000\n      dup2\n      mstore\n      0x04\n      add\n      tag_274\n      swap1\n      tag_275\n      jump\t// in\n    tag_274:\n      mload(0x40)\n      dup1\n      swap2\n      sub\n      swap1\n      revert\n    tag_273:\n        /* \"contracts/stakingoat.sol\":10034:10035  b */\n      dup2\n        /* \"contracts/stakingoat.sol\":10030:10031  a */\n      dup4\n        /* \"contracts/stakingoat.sol\":10030:10035  a / b */\n      tag_276\n      swap2\n      swap1\n      tag_268\n      jump\t// in\n    tag_276:\n        /* \"contracts/stakingoat.sol\":10023:10035  return a / b */\n      swap1\n      pop\n        /* \"contracts/stakingoat.sol\":9890:10043  function div(uint256 a, uint256 b) internal pure returns (uint256) {... */\n      swap3\n      swap2\n      pop\n      pop\n      jump\t// out\n        /* \"contracts/stakingoat.sol\":16341:17248  function calculateReward(... */\n    tag_144:\n        /* \"contracts/stakingoat.sol\":16426:16433  uint256 */\n      0x00\n        /* \"contracts/stakingoat.sol\":16435:16442  uint256 */\n      dup1\n        /* \"contracts/stakingoat.sol\":16455:16475  uint256 stakedAmount */\n      0x00\n        /* \"contracts/stakingoat.sol\":16478:16484  stakes */\n      0x09\n        /* \"contracts/stakingoat.sol\":16478:16498  stakes[_stakeholder] */\n      0x00\n        /* \"contracts/stakingoat.sol\":16485:16497  _stakeholder */\n      dup6\n        /* \"contracts/stakingoat.sol\":16478:16498  stakes[_stakeholder] */\n      0xffffffffffffffffffffffffffffffffffffffff\n      and\n      0xffffffffffffffffffffffffffffffffffffffff\n      and\n      dup2\n      mstore\n      0x20\n      add\n      swap1\n      dup2\n      mstore\n      0x20\n      add\n      0x00\n      keccak256\n      sload\n        /* \"contracts/stakingoat.sol\":16455:16498  uint256 stakedAmount = stakes[_stakeholder] */\n      swap1\n      pop\n        /* \"contracts/stakingoat.sol\":16529:16530  0 */\n      0x00\n        /* \"contracts/stakingoat.sol\":16513:16525  stakedAmount */\n      dup2\n        /* \"contracts/stakingoat.sol\":16513:16530  stakedAmount == 0 */\n      sub\n        /* \"contracts/stakingoat.sol\":16509:16572  if (stakedAmount == 0) {... */\n      tag_278\n      jumpi\n        /* \"contracts/stakingoat.sol\":16555:16556  0 */\n      0x00\n        /* \"contracts/stakingoat.sol\":16558:16559  0 */\n      dup1\n        /* \"contracts/stakingoat.sol\":16547:16560  return (0, 0) */\n      swap3\n      pop\n      swap3\n      pop\n      pop\n      jump(tag_277)\n        /* \"contracts/stakingoat.sol\":16509:16572  if (stakedAmount == 0) {... */\n    tag_278:\n        /* \"contracts/stakingoat.sol\":16582:16607  uint256 _stakingTimestamp */\n      0x00\n        /* \"contracts/stakingoat.sol\":16610:16626  stakingTimestamp */\n      0x0a\n        /* \"contracts/stakingoat.sol\":16610:16640  stakingTimestamp[_stakeholder] */\n      0x00\n        /* \"contracts/stakingoat.sol\":16627:16639  _stakeholder */\n      dup7\n        /* \"contracts/stakingoat.sol\":16610:16640  stakingTimestamp[_stakeholder] */\n      0xffffffffffffffffffffffffffffffffffffffff\n      and\n      0xffffffffffffffffffffffffffffffffffffffff\n      and\n      dup2\n      mstore\n      0x20\n      add\n      swap1\n      dup2\n      mstore\n      0x20\n      add\n      0x00\n      keccak256\n      sload\n        /* \"contracts/stakingoat.sol\":16582:16640  uint256 _stakingTimestamp = stakingTimestamp[_stakeholder] */\n      swap1\n      pop\n        /* \"contracts/stakingoat.sol\":16676:16677  0 */\n      0x00\n        /* \"contracts/stakingoat.sol\":16655:16672  _stakingTimestamp */\n      dup2\n        /* \"contracts/stakingoat.sol\":16655:16677  _stakingTimestamp == 0 */\n      sub\n        /* \"contracts/stakingoat.sol\":16651:16719  if (_stakingTimestamp == 0) {... */\n      tag_279\n      jumpi\n        /* \"contracts/stakingoat.sol\":16702:16703  0 */\n      0x00\n        /* \"contracts/stakingoat.sol\":16705:16706  0 */\n      dup1\n        /* \"contracts/stakingoat.sol\":16694:16707  return (0, 0) */\n      swap4\n      pop\n      swap4\n      pop\n      pop\n      pop\n      jump(tag_277)\n        /* \"contracts/stakingoat.sol\":16651:16719  if (_stakingTimestamp == 0) {... */\n    tag_279:\n        /* \"contracts/stakingoat.sol\":16729:16754  uint256 _currentTimestamp */\n      0x00\n        /* \"contracts/stakingoat.sol\":16757:16772  block.timestamp */\n      timestamp\n        /* \"contracts/stakingoat.sol\":16729:16772  uint256 _currentTimestamp = block.timestamp */\n      swap1\n      pop\n        /* \"contracts/stakingoat.sol\":16783:16796  uint256 _span */\n      0x00\n        /* \"contracts/stakingoat.sol\":16799:16839  _currentTimestamp.sub(_stakingTimestamp) */\n      tag_280\n        /* \"contracts/stakingoat.sol\":16821:16838  _stakingTimestamp */\n      dup4\n        /* \"contracts/stakingoat.sol\":16799:16816  _currentTimestamp */\n      dup4\n        /* \"contracts/stakingoat.sol\":16799:16820  _currentTimestamp.sub */\n      tag_117\n      swap1\n        /* \"contracts/stakingoat.sol\":16799:16839  _currentTimestamp.sub(_stakingTimestamp) */\n      swap2\n      swap1\n      0xffffffff\n      and\n      jump\t// in\n    tag_280:\n        /* \"contracts/stakingoat.sol\":16783:16839  uint256 _span = _currentTimestamp.sub(_stakingTimestamp) */\n      swap1\n      pop\n        /* \"contracts/stakingoat.sol\":16850:16873  uint256 _stakingPackage */\n      0x00\n        /* \"contracts/stakingoat.sol\":16876:16890  stakingPackage */\n      0x0b\n        /* \"contracts/stakingoat.sol\":16876:16904  stakingPackage[_stakeholder] */\n      0x00\n        /* \"contracts/stakingoat.sol\":16891:16903  _stakeholder */\n      dup10\n        /* \"contracts/stakingoat.sol\":16876:16904  stakingPackage[_stakeholder] */\n      0xffffffffffffffffffffffffffffffffffffffff\n      and\n      0xffffffffffffffffffffffffffffffffffffffff\n      and\n      dup2\n      mstore\n      0x20\n      add\n      swap1\n      dup2\n      mstore\n      0x20\n      add\n      0x00\n      keccak256\n      sload\n        /* \"contracts/stakingoat.sol\":16850:16904  uint256 _stakingPackage = stakingPackage[_stakeholder] */\n      swap1\n      pop\n        /* \"contracts/stakingoat.sol\":16927:16942  _stakingPackage */\n      dup1\n        /* \"contracts/stakingoat.sol\":16919:16924  _span */\n      dup3\n        /* \"contracts/stakingoat.sol\":16919:16942  _span < _stakingPackage */\n      lt\n        /* \"contracts/stakingoat.sol\":16915:16984  if (_span < _stakingPackage) {... */\n      iszero\n      tag_281\n      jumpi\n        /* \"contracts/stakingoat.sol\":16967:16968  0 */\n      0x00\n        /* \"contracts/stakingoat.sol\":16970:16971  0 */\n      dup1\n        /* \"contracts/stakingoat.sol\":16959:16972  return (0, 0) */\n      swap7\n      pop\n      swap7\n      pop\n      pop\n      pop\n      pop\n      pop\n      pop\n      jump(tag_277)\n        /* \"contracts/stakingoat.sol\":16915:16984  if (_span < _stakingPackage) {... */\n    tag_281:\n        /* \"contracts/stakingoat.sol\":16994:17008  uint256 _loops */\n      0x00\n        /* \"contracts/stakingoat.sol\":17019:17034  _stakingPackage */\n      dup2\n        /* \"contracts/stakingoat.sol\":17011:17016  _span */\n      dup4\n        /* \"contracts/stakingoat.sol\":17011:17034  _span / _stakingPackage */\n      tag_282\n      swap2\n      swap1\n      tag_268\n      jump\t// in\n    tag_282:\n        /* \"contracts/stakingoat.sol\":16994:17034  uint256 _loops = _span / _stakingPackage */\n      swap1\n      pop\n        /* \"contracts/stakingoat.sol\":17045:17069  uint256 rewardPercentage */\n      0x00\n        /* \"contracts/stakingoat.sol\":17072:17080  packages */\n      0x0c\n        /* \"contracts/stakingoat.sol\":17072:17097  packages[_stakingPackage] */\n      0x00\n        /* \"contracts/stakingoat.sol\":17081:17096  _stakingPackage */\n      dup5\n        /* \"contracts/stakingoat.sol\":17072:17097  packages[_stakingPackage] */\n      dup2\n      mstore\n      0x20\n      add\n      swap1\n      dup2\n      mstore\n      0x20\n      add\n      0x00\n      keccak256\n      sload\n        /* \"contracts/stakingoat.sol\":17045:17097  uint256 rewardPercentage = packages[_stakingPackage] */\n      swap1\n      pop\n        /* \"contracts/stakingoat.sol\":17108:17123  uint256 _reward */\n      0x00\n        /* \"contracts/stakingoat.sol\":17126:17205  stakedAmount.mul(rewardPercentage).mul(_loops).div(... */\n      tag_283\n        /* \"contracts/stakingoat.sol\":17191:17194  100 */\n      0x64\n        /* \"contracts/stakingoat.sol\":17126:17172  stakedAmount.mul(rewardPercentage).mul(_loops) */\n      tag_284\n        /* \"contracts/stakingoat.sol\":17165:17171  _loops */\n      dup6\n        /* \"contracts/stakingoat.sol\":17126:17160  stakedAmount.mul(rewardPercentage) */\n      tag_285\n        /* \"contracts/stakingoat.sol\":17143:17159  rewardPercentage */\n      dup7\n        /* \"contracts/stakingoat.sol\":17126:17138  stakedAmount */\n      dup14\n        /* \"contracts/stakingoat.sol\":17126:17142  stakedAmount.mul */\n      tag_127\n      swap1\n        /* \"contracts/stakingoat.sol\":17126:17160  stakedAmount.mul(rewardPercentage) */\n      swap2\n      swap1\n      0xffffffff\n      and\n      jump\t// in\n    tag_285:\n        /* \"contracts/stakingoat.sol\":17126:17164  stakedAmount.mul(rewardPercentage).mul */\n      tag_127\n      swap1\n        /* \"contracts/stakingoat.sol\":17126:17172  stakedAmount.mul(rewardPercentage).mul(_loops) */\n      swap2\n      swap1\n      0xffffffff\n      and\n      jump\t// in\n    tag_284:\n        /* \"contracts/stakingoat.sol\":17126:17176  stakedAmount.mul(rewardPercentage).mul(_loops).div */\n      tag_128\n      swap1\n        /* \"contracts/stakingoat.sol\":17126:17205  stakedAmount.mul(rewardPercentage).mul(_loops).div(... */\n      swap2\n      swap1\n      0xffffffff\n      and\n      jump\t// in\n    tag_283:\n        /* \"contracts/stakingoat.sol\":17108:17205  uint256 _reward = stakedAmount.mul(rewardPercentage).mul(_loops).div(... */\n      swap1\n      pop\n        /* \"contracts/stakingoat.sol\":17224:17231  _reward */\n      dup1\n        /* \"contracts/stakingoat.sol\":17233:17239  _loops */\n      dup4\n        /* \"contracts/stakingoat.sol\":17216:17240  return (_reward, _loops) */\n      swap10\n      pop\n      swap10\n      pop\n      pop\n      pop\n      pop\n      pop\n      pop\n      pop\n      pop\n      pop\n        /* \"contracts/stakingoat.sol\":16341:17248  function calculateReward(... */\n    tag_277:\n      swap2\n      pop\n      swap2\n      jump\t// out\n        /* \"contracts/stakingoat.sol\":6678:6793  function _msgSender() internal view virtual returns (address payable) {... */\n    tag_162:\n        /* \"contracts/stakingoat.sol\":6731:6746  address payable */\n      0x00\n        /* \"contracts/stakingoat.sol\":6774:6784  msg.sender */\n      caller\n        /* \"contracts/stakingoat.sol\":6759:6785  return payable(msg.sender) */\n      swap1\n      pop\n        /* \"contracts/stakingoat.sol\":6678:6793  function _msgSender() internal view virtual returns (address payable) {... */\n      swap1\n      jump\t// out\n        /* \"contracts/stakingoat.sol\":17336:17875  function _withdrawReward(address _stakeholder) internal {... */\n    tag_184:\n        /* \"contracts/stakingoat.sol\":17404:17418  uint256 reward */\n      0x00\n        /* \"contracts/stakingoat.sol\":17420:17433  uint256 loops */\n      dup1\n        /* \"contracts/stakingoat.sol\":17437:17466  calculateReward(_stakeholder) */\n      tag_288\n        /* \"contracts/stakingoat.sol\":17453:17465  _stakeholder */\n      dup4\n        /* \"contracts/stakingoat.sol\":17437:17452  calculateReward */\n      tag_144\n        /* \"contracts/stakingoat.sol\":17437:17466  calculateReward(_stakeholder) */\n      jump\t// in\n    tag_288:\n        /* \"contracts/stakingoat.sol\":17403:17466  (uint256 reward, uint256 loops) = calculateReward(_stakeholder) */\n      swap2\n      pop\n      swap2\n      pop\n        /* \"contracts/stakingoat.sol\":17491:17492  0 */\n      0x00\n        /* \"contracts/stakingoat.sol\":17481:17487  reward */\n      dup3\n        /* \"contracts/stakingoat.sol\":17481:17492  reward == 0 */\n      sub\n        /* \"contracts/stakingoat.sol\":17477:17527  if (reward == 0) {... */\n      tag_289\n      jumpi\n        /* \"contracts/stakingoat.sol\":17509:17516  return; */\n      pop\n      pop\n      jump(tag_287)\n        /* \"contracts/stakingoat.sol\":17477:17527  if (reward == 0) {... */\n    tag_289:\n        /* \"contracts/stakingoat.sol\":17537:17554  uint256 myPackage */\n      0x00\n        /* \"contracts/stakingoat.sol\":17557:17571  stakingPackage */\n      0x0b\n        /* \"contracts/stakingoat.sol\":17557:17585  stakingPackage[_stakeholder] */\n      0x00\n        /* \"contracts/stakingoat.sol\":17572:17584  _stakeholder */\n      dup6\n        /* \"contracts/stakingoat.sol\":17557:17585  stakingPackage[_stakeholder] */\n      0xffffffffffffffffffffffffffffffffffffffff\n      and\n      0xffffffffffffffffffffffffffffffffffffffff\n      and\n      dup2\n      mstore\n      0x20\n      add\n      swap1\n      dup2\n      mstore\n      0x20\n      add\n      0x00\n      keccak256\n      sload\n        /* \"contracts/stakingoat.sol\":17537:17585  uint256 myPackage = stakingPackage[_stakeholder] */\n      swap1\n      pop\n        /* \"contracts/stakingoat.sol\":17633:17712  (stakingTimestamp[_stakeholder]).add(... */\n      tag_290\n        /* \"contracts/stakingoat.sol\":17696:17701  loops */\n      dup3\n        /* \"contracts/stakingoat.sol\":17684:17693  myPackage */\n      dup3\n        /* \"contracts/stakingoat.sol\":17684:17701  myPackage * loops */\n      tag_291\n      swap2\n      swap1\n      tag_218\n      jump\t// in\n    tag_291:\n        /* \"contracts/stakingoat.sol\":17634:17650  stakingTimestamp */\n      0x0a\n        /* \"contracts/stakingoat.sol\":17634:17664  stakingTimestamp[_stakeholder] */\n      0x00\n        /* \"contracts/stakingoat.sol\":17651:17663  _stakeholder */\n      dup8\n        /* \"contracts/stakingoat.sol\":17634:17664  stakingTimestamp[_stakeholder] */\n      0xffffffffffffffffffffffffffffffffffffffff\n      and\n      0xffffffffffffffffffffffffffffffffffffffff\n      and\n      dup2\n      mstore\n      0x20\n      add\n      swap1\n      dup2\n      mstore\n      0x20\n      add\n      0x00\n      keccak256\n      sload\n        /* \"contracts/stakingoat.sol\":17633:17669  (stakingTimestamp[_stakeholder]).add */\n      tag_222\n      swap1\n        /* \"contracts/stakingoat.sol\":17633:17712  (stakingTimestamp[_stakeholder]).add(... */\n      swap2\n      swap1\n      0xffffffff\n      and\n      jump\t// in\n    tag_290:\n        /* \"contracts/stakingoat.sol\":17600:17616  stakingTimestamp */\n      0x0a\n        /* \"contracts/stakingoat.sol\":17600:17630  stakingTimestamp[_stakeholder] */\n      0x00\n        /* \"contracts/stakingoat.sol\":17617:17629  _stakeholder */\n      dup7\n        /* \"contracts/stakingoat.sol\":17600:17630  stakingTimestamp[_stakeholder] */\n      0xffffffffffffffffffffffffffffffffffffffff\n      and\n      0xffffffffffffffffffffffffffffffffffffffff\n      and\n      dup2\n      mstore\n      0x20\n      add\n      swap1\n      dup2\n      mstore\n      0x20\n      add\n      0x00\n      keccak256\n        /* \"contracts/stakingoat.sol\":17600:17712  stakingTimestamp[_stakeholder] = (stakingTimestamp[_stakeholder]).add(... */\n      dup2\n      swap1\n      sstore\n      pop\n        /* \"contracts/stakingoat.sol\":17725:17730  token */\n      0x08\n      0x00\n      swap1\n      sload\n      swap1\n      0x0100\n      exp\n      swap1\n      div\n      0xffffffffffffffffffffffffffffffffffffffff\n      and\n        /* \"contracts/stakingoat.sol\":17725:17739  token.transfer */\n      0xffffffffffffffffffffffffffffffffffffffff\n      and\n      0xa9059cbb\n        /* \"contracts/stakingoat.sol\":17740:17750  msg.sender */\n      caller\n        /* \"contracts/stakingoat.sol\":17752:17758  reward */\n      dup6\n        /* \"contracts/stakingoat.sol\":17725:17759  token.transfer(msg.sender, reward) */\n      mload(0x40)\n      dup4\n      0xffffffff\n      and\n      0xe0\n      shl\n      dup2\n      mstore\n      0x04\n      add\n      tag_292\n      swap3\n      swap2\n      swap1\n      tag_131\n      jump\t// in\n    tag_292:\n      0x20\n      mload(0x40)\n      dup1\n      dup4\n      sub\n      dup2\n      0x00\n      dup8\n      gas\n      call\n      iszero\n      dup1\n      iszero\n      tag_294\n      jumpi\n      returndatasize\n      0x00\n      dup1\n      returndatacopy\n      revert(0x00, returndatasize)\n    tag_294:\n      pop\n      pop\n      pop\n      pop\n      mload(0x40)\n      returndatasize\n      not(0x1f)\n      0x1f\n      dup3\n      add\n      and\n      dup3\n      add\n      dup1\n      0x40\n      mstore\n      pop\n      dup2\n      add\n      swap1\n      tag_295\n      swap2\n      swap1\n      tag_135\n      jump\t// in\n    tag_295:\n      pop\n        /* \"contracts/stakingoat.sol\":17796:17802  reward */\n      dup3\n        /* \"contracts/stakingoat.sol\":17770:17792  totalRewardDistributed */\n      0x07\n      0x00\n        /* \"contracts/stakingoat.sol\":17770:17802  totalRewardDistributed += reward */\n      dup3\n      dup3\n      sload\n      tag_296\n      swap2\n      swap1\n      tag_123\n      jump\t// in\n    tag_296:\n      swap3\n      pop\n      pop\n      dup2\n      swap1\n      sstore\n      pop\n        /* \"contracts/stakingoat.sol\":17818:17867  RewardSent(_stakeholder, reward, block.timestamp) */\n      0x6379339f0ae63e95e65fad18ca2a7ec4e7e3f05f3cc5f7079f4d8da8cec34faa\n        /* \"contracts/stakingoat.sol\":17829:17841  _stakeholder */\n      dup5\n        /* \"contracts/stakingoat.sol\":17843:17849  reward */\n      dup5\n        /* \"contracts/stakingoat.sol\":17851:17866  block.timestamp */\n      timestamp\n        /* \"contracts/stakingoat.sol\":17818:17867  RewardSent(_stakeholder, reward, block.timestamp) */\n      mload(0x40)\n      tag_297\n      swap4\n      swap3\n      swap2\n      swap1\n      tag_298\n      jump\t// in\n    tag_297:\n      mload(0x40)\n      dup1\n      swap2\n      sub\n      swap1\n      log1\n        /* \"contracts/stakingoat.sol\":17392:17875  {... */\n      pop\n      pop\n      pop\n        /* \"contracts/stakingoat.sol\":17336:17875  function _withdrawReward(address _stakeholder) internal {... */\n    tag_287:\n      pop\n      jump\t// out\n        /* \"contracts/stakingoat.sol\":15339:15775  function addStakeholder(... */\n    tag_220:\n        /* \"contracts/stakingoat.sol\":15473:15492  bool _isStakeholder */\n      0x00\n        /* \"contracts/stakingoat.sol\":15498:15525  isStakeholder(_stakeholder) */\n      tag_300\n        /* \"contracts/stakingoat.sol\":15512:15524  _stakeholder */\n      dup5\n        /* \"contracts/stakingoat.sol\":15498:15511  isStakeholder */\n      tag_106\n        /* \"contracts/stakingoat.sol\":15498:15525  isStakeholder(_stakeholder) */\n      jump\t// in\n    tag_300:\n        /* \"contracts/stakingoat.sol\":15472:15525  (bool _isStakeholder, ) = isStakeholder(_stakeholder) */\n      pop\n      swap1\n      pop\n        /* \"contracts/stakingoat.sol\":15543:15557  _isStakeholder */\n      dup1\n        /* \"contracts/stakingoat.sol\":15538:15617  if (!_isStakeholder) {... */\n      tag_301\n      jumpi\n        /* \"contracts/stakingoat.sol\":15574:15586  stakeholders */\n      0x03\n        /* \"contracts/stakingoat.sol\":15592:15604  _stakeholder */\n      dup5\n        /* \"contracts/stakingoat.sol\":15574:15605  stakeholders.push(_stakeholder) */\n      swap1\n      dup1\n      0x01\n      dup2\n      sload\n      add\n      dup1\n      dup3\n      sstore\n      dup1\n      swap2\n      pop\n      pop\n      0x01\n      swap1\n      sub\n      swap1\n      0x00\n      mstore\n      keccak256(0x00, 0x20)\n      add\n      0x00\n      swap1\n      swap2\n      swap1\n      swap2\n      swap1\n      swap2\n      0x0100\n      exp\n      dup2\n      sload\n      dup2\n      0xffffffffffffffffffffffffffffffffffffffff\n      mul\n      not\n      and\n      swap1\n      dup4\n      0xffffffffffffffffffffffffffffffffffffffff\n      and\n      mul\n      or\n      swap1\n      sstore\n      pop\n        /* \"contracts/stakingoat.sol\":15538:15617  if (!_isStakeholder) {... */\n    tag_301:\n        /* \"contracts/stakingoat.sol\":15662:15677  block.timestamp */\n      timestamp\n        /* \"contracts/stakingoat.sol\":15629:15645  stakingTimestamp */\n      0x0a\n        /* \"contracts/stakingoat.sol\":15629:15659  stakingTimestamp[_stakeholder] */\n      0x00\n        /* \"contracts/stakingoat.sol\":15646:15658  _stakeholder */\n      dup7\n        /* \"contracts/stakingoat.sol\":15629:15659  stakingTimestamp[_stakeholder] */\n      0xffffffffffffffffffffffffffffffffffffffff\n      and\n      0xffffffffffffffffffffffffffffffffffffffff\n      and\n      dup2\n      mstore\n      0x20\n      add\n      swap1\n      dup2\n      mstore\n      0x20\n      add\n      0x00\n      keccak256\n        /* \"contracts/stakingoat.sol\":15629:15677  stakingTimestamp[_stakeholder] = block.timestamp */\n      dup2\n      swap1\n      sstore\n      pop\n        /* \"contracts/stakingoat.sol\":15719:15727  _package */\n      dup2\n        /* \"contracts/stakingoat.sol\":15688:15702  stakingPackage */\n      0x0b\n        /* \"contracts/stakingoat.sol\":15688:15716  stakingPackage[_stakeholder] */\n      0x00\n        /* \"contracts/stakingoat.sol\":15703:15715  _stakeholder */\n      dup7\n        /* \"contracts/stakingoat.sol\":15688:15716  stakingPackage[_stakeholder] */\n      0xffffffffffffffffffffffffffffffffffffffff\n      and\n      0xffffffffffffffffffffffffffffffffffffffff\n      and\n      dup2\n      mstore\n      0x20\n      add\n      swap1\n      dup2\n      mstore\n      0x20\n      add\n      0x00\n      keccak256\n        /* \"contracts/stakingoat.sol\":15688:15727  stakingPackage[_stakeholder] = _package */\n      dup2\n      swap1\n      sstore\n      pop\n        /* \"contracts/stakingoat.sol\":15761:15767  _stake */\n      dup3\n        /* \"contracts/stakingoat.sol\":15738:15744  stakes */\n      0x09\n        /* \"contracts/stakingoat.sol\":15738:15758  stakes[_stakeholder] */\n      0x00\n        /* \"contracts/stakingoat.sol\":15745:15757  _stakeholder */\n      dup7\n        /* \"contracts/stakingoat.sol\":15738:15758  stakes[_stakeholder] */\n      0xffffffffffffffffffffffffffffffffffffffff\n      and\n      0xffffffffffffffffffffffffffffffffffffffff\n      and\n      dup2\n      mstore\n      0x20\n      add\n      swap1\n      dup2\n      mstore\n      0x20\n      add\n      0x00\n      keccak256\n        /* \"contracts/stakingoat.sol\":15738:15767  stakes[_stakeholder] = _stake */\n      dup2\n      swap1\n      sstore\n      pop\n        /* \"contracts/stakingoat.sol\":15461:15775  {... */\n      pop\n        /* \"contracts/stakingoat.sol\":15339:15775  function addStakeholder(... */\n      pop\n      pop\n      pop\n      jump\t// out\n        /* \"contracts/stakingoat.sol\":9309:9488  function add(uint256 a, uint256 b) internal pure returns (uint256) {... */\n    tag_222:\n        /* \"contracts/stakingoat.sol\":9367:9374  uint256 */\n      0x00\n        /* \"contracts/stakingoat.sol\":9387:9396  uint256 c */\n      dup1\n        /* \"contracts/stakingoat.sol\":9403:9404  b */\n      dup3\n        /* \"contracts/stakingoat.sol\":9399:9400  a */\n      dup5\n        /* \"contracts/stakingoat.sol\":9399:9404  a + b */\n      tag_304\n      swap2\n      swap1\n      tag_123\n      jump\t// in\n    tag_304:\n        /* \"contracts/stakingoat.sol\":9387:9404  uint256 c = a + b */\n      swap1\n      pop\n        /* \"contracts/stakingoat.sol\":9428:9429  a */\n      dup4\n        /* \"contracts/stakingoat.sol\":9423:9424  c */\n      dup2\n        /* \"contracts/stakingoat.sol\":9423:9429  c >= a */\n      lt\n      iszero\n        /* \"contracts/stakingoat.sol\":9415:9461  require(c >= a, \"SafeMath: addition overflow\") */\n      tag_305\n      jumpi\n      mload(0x40)\n      0x08c379a000000000000000000000000000000000000000000000000000000000\n      dup2\n      mstore\n      0x04\n      add\n      tag_306\n      swap1\n      tag_307\n      jump\t// in\n    tag_306:\n      mload(0x40)\n      dup1\n      swap2\n      sub\n      swap1\n      revert\n    tag_305:\n        /* \"contracts/stakingoat.sol\":9479:9480  c */\n      dup1\n        /* \"contracts/stakingoat.sol\":9472:9480  return c */\n      swap2\n      pop\n      pop\n        /* \"contracts/stakingoat.sol\":9309:9488  function add(uint256 a, uint256 b) internal pure returns (uint256) {... */\n      swap3\n      swap2\n      pop\n      pop\n      jump\t// out\n        /* \"#utility.yul\":88:205   */\n    tag_309:\n        /* \"#utility.yul\":197:198   */\n      0x00\n        /* \"#utility.yul\":194:195   */\n      dup1\n        /* \"#utility.yul\":187:199   */\n      revert\n        /* \"#utility.yul\":334:411   */\n    tag_311:\n        /* \"#utility.yul\":371:378   */\n      0x00\n        /* \"#utility.yul\":400:405   */\n      dup2\n        /* \"#utility.yul\":389:405   */\n      swap1\n      pop\n        /* \"#utility.yul\":334:411   */\n      swap2\n      swap1\n      pop\n      jump\t// out\n        /* \"#utility.yul\":417:539   */\n    tag_312:\n        /* \"#utility.yul\":490:514   */\n      tag_350\n        /* \"#utility.yul\":508:513   */\n      dup2\n        /* \"#utility.yul\":490:514   */\n      tag_311\n      jump\t// in\n    tag_350:\n        /* \"#utility.yul\":483:488   */\n      dup2\n        /* \"#utility.yul\":480:515   */\n      eq\n        /* \"#utility.yul\":470:533   */\n      tag_351\n      jumpi\n        /* \"#utility.yul\":529:530   */\n      0x00\n        /* \"#utility.yul\":526:527   */\n      dup1\n        /* \"#utility.yul\":519:531   */\n      revert\n        /* \"#utility.yul\":470:533   */\n    tag_351:\n        /* \"#utility.yul\":417:539   */\n      pop\n      jump\t// out\n        /* \"#utility.yul\":545:684   */\n    tag_313:\n        /* \"#utility.yul\":591:596   */\n      0x00\n        /* \"#utility.yul\":629:635   */\n      dup2\n        /* \"#utility.yul\":616:636   */\n      calldataload\n        /* \"#utility.yul\":607:636   */\n      swap1\n      pop\n        /* \"#utility.yul\":645:678   */\n      tag_353\n        /* \"#utility.yul\":672:677   */\n      dup2\n        /* \"#utility.yul\":645:678   */\n      tag_312\n      jump\t// in\n    tag_353:\n        /* \"#utility.yul\":545:684   */\n      swap3\n      swap2\n      pop\n      pop\n      jump\t// out\n        /* \"#utility.yul\":690:1019   */\n    tag_32:\n        /* \"#utility.yul\":749:755   */\n      0x00\n        /* \"#utility.yul\":798:800   */\n      0x20\n        /* \"#utility.yul\":786:795   */\n      dup3\n        /* \"#utility.yul\":777:784   */\n      dup5\n        /* \"#utility.yul\":773:796   */\n      sub\n        /* \"#utility.yul\":769:801   */\n      slt\n        /* \"#utility.yul\":766:885   */\n      iszero\n      tag_355\n      jumpi\n        /* \"#utility.yul\":804:883   */\n      tag_356\n      tag_309\n      jump\t// in\n    tag_356:\n        /* \"#utility.yul\":766:885   */\n    tag_355:\n        /* \"#utility.yul\":924:925   */\n      0x00\n        /* \"#utility.yul\":949:1002   */\n      tag_357\n        /* \"#utility.yul\":994:1001   */\n      dup5\n        /* \"#utility.yul\":985:991   */\n      dup3\n        /* \"#utility.yul\":974:983   */\n      dup6\n        /* \"#utility.yul\":970:992   */\n      add\n        /* \"#utility.yul\":949:1002   */\n      tag_313\n      jump\t// in\n    tag_357:\n        /* \"#utility.yul\":939:1002   */\n      swap2\n      pop\n        /* \"#utility.yul\":895:1012   */\n      pop\n        /* \"#utility.yul\":690:1019   */\n      swap3\n      swap2\n      pop\n      pop\n      jump\t// out\n        /* \"#utility.yul\":1025:1143   */\n    tag_314:\n        /* \"#utility.yul\":1112:1136   */\n      tag_359\n        /* \"#utility.yul\":1130:1135   */\n      dup2\n        /* \"#utility.yul\":1112:1136   */\n      tag_311\n      jump\t// in\n    tag_359:\n        /* \"#utility.yul\":1107:1110   */\n      dup3\n        /* \"#utility.yul\":1100:1137   */\n      mstore\n        /* \"#utility.yul\":1025:1143   */\n      pop\n      pop\n      jump\t// out\n        /* \"#utility.yul\":1149:1371   */\n    tag_37:\n        /* \"#utility.yul\":1242:1246   */\n      0x00\n        /* \"#utility.yul\":1280:1282   */\n      0x20\n        /* \"#utility.yul\":1269:1278   */\n      dup3\n        /* \"#utility.yul\":1265:1283   */\n      add\n        /* \"#utility.yul\":1257:1283   */\n      swap1\n      pop\n        /* \"#utility.yul\":1293:1364   */\n      tag_361\n        /* \"#utility.yul\":1361:1362   */\n      0x00\n        /* \"#utility.yul\":1350:1359   */\n      dup4\n        /* \"#utility.yul\":1346:1363   */\n      add\n        /* \"#utility.yul\":1337:1343   */\n      dup5\n        /* \"#utility.yul\":1293:1364   */\n      tag_314\n      jump\t// in\n    tag_361:\n        /* \"#utility.yul\":1149:1371   */\n      swap3\n      swap2\n      pop\n      pop\n      jump\t// out\n        /* \"#utility.yul\":1377:1819   */\n    tag_41:\n        /* \"#utility.yul\":1526:1530   */\n      0x00\n        /* \"#utility.yul\":1564:1566   */\n      0x60\n        /* \"#utility.yul\":1553:1562   */\n      dup3\n        /* \"#utility.yul\":1549:1567   */\n      add\n        /* \"#utility.yul\":1541:1567   */\n      swap1\n      pop\n        /* \"#utility.yul\":1577:1648   */\n      tag_363\n        /* \"#utility.yul\":1645:1646   */\n      0x00\n        /* \"#utility.yul\":1634:1643   */\n      dup4\n        /* \"#utility.yul\":1630:1647   */\n      add\n        /* \"#utility.yul\":1621:1627   */\n      dup7\n        /* \"#utility.yul\":1577:1648   */\n      tag_314\n      jump\t// in\n    tag_363:\n        /* \"#utility.yul\":1658:1730   */\n      tag_364\n        /* \"#utility.yul\":1726:1728   */\n      0x20\n        /* \"#utility.yul\":1715:1724   */\n      dup4\n        /* \"#utility.yul\":1711:1729   */\n      add\n        /* \"#utility.yul\":1702:1708   */\n      dup6\n        /* \"#utility.yul\":1658:1730   */\n      tag_314\n      jump\t// in\n    tag_364:\n        /* \"#utility.yul\":1740:1812   */\n      tag_365\n        /* \"#utility.yul\":1808:1810   */\n      0x40\n        /* \"#utility.yul\":1797:1806   */\n      dup4\n        /* \"#utility.yul\":1793:1811   */\n      add\n        /* \"#utility.yul\":1784:1790   */\n      dup5\n        /* \"#utility.yul\":1740:1812   */\n      tag_314\n      jump\t// in\n    tag_365:\n        /* \"#utility.yul\":1377:1819   */\n      swap5\n      swap4\n      pop\n      pop\n      pop\n      pop\n      jump\t// out\n        /* \"#utility.yul\":1825:1951   */\n    tag_315:\n        /* \"#utility.yul\":1862:1869   */\n      0x00\n        /* \"#utility.yul\":1902:1944   */\n      0xffffffffffffffffffffffffffffffffffffffff\n        /* \"#utility.yul\":1895:1900   */\n      dup3\n        /* \"#utility.yul\":1891:1945   */\n      and\n        /* \"#utility.yul\":1880:1945   */\n      swap1\n      pop\n        /* \"#utility.yul\":1825:1951   */\n      swap2\n      swap1\n      pop\n      jump\t// out\n        /* \"#utility.yul\":1957:2053   */\n    tag_316:\n        /* \"#utility.yul\":1994:2001   */\n      0x00\n        /* \"#utility.yul\":2023:2047   */\n      tag_368\n        /* \"#utility.yul\":2041:2046   */\n      dup3\n        /* \"#utility.yul\":2023:2047   */\n      tag_315\n      jump\t// in\n    tag_368:\n        /* \"#utility.yul\":2012:2047   */\n      swap1\n      pop\n        /* \"#utility.yul\":1957:2053   */\n      swap2\n      swap1\n      pop\n      jump\t// out\n        /* \"#utility.yul\":2059:2181   */\n    tag_317:\n        /* \"#utility.yul\":2132:2156   */\n      tag_370\n        /* \"#utility.yul\":2150:2155   */\n      dup2\n        /* \"#utility.yul\":2132:2156   */\n      tag_316\n      jump\t// in\n    tag_370:\n        /* \"#utility.yul\":2125:2130   */\n      dup2\n        /* \"#utility.yul\":2122:2157   */\n      eq\n        /* \"#utility.yul\":2112:2175   */\n      tag_371\n      jumpi\n        /* \"#utility.yul\":2171:2172   */\n      0x00\n        /* \"#utility.yul\":2168:2169   */\n      dup1\n        /* \"#utility.yul\":2161:2173   */\n      revert\n        /* \"#utility.yul\":2112:2175   */\n    tag_371:\n        /* \"#utility.yul\":2059:2181   */\n      pop\n      jump\t// out\n        /* \"#utility.yul\":2187:2326   */\n    tag_318:\n        /* \"#utility.yul\":2233:2238   */\n      0x00\n        /* \"#utility.yul\":2271:2277   */\n      dup2\n        /* \"#utility.yul\":2258:2278   */\n      calldataload\n        /* \"#utility.yul\":2249:2278   */\n      swap1\n      pop\n        /* \"#utility.yul\":2287:2320   */\n      tag_373\n        /* \"#utility.yul\":2314:2319   */\n      dup2\n        /* \"#utility.yul\":2287:2320   */\n      tag_317\n      jump\t// in\n    tag_373:\n        /* \"#utility.yul\":2187:2326   */\n      swap3\n      swap2\n      pop\n      pop\n      jump\t// out\n        /* \"#utility.yul\":2332:2661   */\n    tag_44:\n        /* \"#utility.yul\":2391:2397   */\n      0x00\n        /* \"#utility.yul\":2440:2442   */\n      0x20\n        /* \"#utility.yul\":2428:2437   */\n      dup3\n        /* \"#utility.yul\":2419:2426   */\n      dup5\n        /* \"#utility.yul\":2415:2438   */\n      sub\n        /* \"#utility.yul\":2411:2443   */\n      slt\n        /* \"#utility.yul\":2408:2527   */\n      iszero\n      tag_375\n      jumpi\n        /* \"#utility.yul\":2446:2525   */\n      tag_376\n      tag_309\n      jump\t// in\n    tag_376:\n        /* \"#utility.yul\":2408:2527   */\n    tag_375:\n        /* \"#utility.yul\":2566:2567   */\n      0x00\n        /* \"#utility.yul\":2591:2644   */\n      tag_377\n        /* \"#utility.yul\":2636:2643   */\n      dup5\n        /* \"#utility.yul\":2627:2633   */\n      dup3\n        /* \"#utility.yul\":2616:2625   */\n      dup6\n        /* \"#utility.yul\":2612:2634   */\n      add\n        /* \"#utility.yul\":2591:2644   */\n      tag_318\n      jump\t// in\n    tag_377:\n        /* \"#utility.yul\":2581:2644   */\n      swap2\n      pop\n        /* \"#utility.yul\":2537:2654   */\n      pop\n        /* \"#utility.yul\":2332:2661   */\n      swap3\n      swap2\n      pop\n      pop\n      jump\t// out\n        /* \"#utility.yul\":2667:2785   */\n    tag_319:\n        /* \"#utility.yul\":2754:2778   */\n      tag_379\n        /* \"#utility.yul\":2772:2777   */\n      dup2\n        /* \"#utility.yul\":2754:2778   */\n      tag_316\n      jump\t// in\n    tag_379:\n        /* \"#utility.yul\":2749:2752   */\n      dup3\n        /* \"#utility.yul\":2742:2779   */\n      mstore\n        /* \"#utility.yul\":2667:2785   */\n      pop\n      pop\n      jump\t// out\n        /* \"#utility.yul\":2791:3013   */\n    tag_74:\n        /* \"#utility.yul\":2884:2888   */\n      0x00\n        /* \"#utility.yul\":2922:2924   */\n      0x20\n        /* \"#utility.yul\":2911:2920   */\n      dup3\n        /* \"#utility.yul\":2907:2925   */\n      add\n        /* \"#utility.yul\":2899:2925   */\n      swap1\n      pop\n        /* \"#utility.yul\":2935:3006   */\n      tag_381\n        /* \"#utility.yul\":3003:3004   */\n      0x00\n        /* \"#utility.yul\":2992:3001   */\n      dup4\n        /* \"#utility.yul\":2988:3005   */\n      add\n        /* \"#utility.yul\":2979:2985   */\n      dup5\n        /* \"#utility.yul\":2935:3006   */\n      tag_319\n      jump\t// in\n    tag_381:\n        /* \"#utility.yul\":2791:3013   */\n      swap3\n      swap2\n      pop\n      pop\n      jump\t// out\n        /* \"#utility.yul\":3019:3638   */\n    tag_87:\n        /* \"#utility.yul\":3096:3102   */\n      0x00\n        /* \"#utility.yul\":3104:3110   */\n      dup1\n        /* \"#utility.yul\":3112:3118   */\n      0x00\n        /* \"#utility.yul\":3161:3163   */\n      0x60\n        /* \"#utility.yul\":3149:3158   */\n      dup5\n        /* \"#utility.yul\":3140:3147   */\n      dup7\n        /* \"#utility.yul\":3136:3159   */\n      sub\n        /* \"#utility.yul\":3132:3164   */\n      slt\n        /* \"#utility.yul\":3129:3248   */\n      iszero\n      tag_383\n      jumpi\n        /* \"#utility.yul\":3167:3246   */\n      tag_384\n      tag_309\n      jump\t// in\n    tag_384:\n        /* \"#utility.yul\":3129:3248   */\n    tag_383:\n        /* \"#utility.yul\":3287:3288   */\n      0x00\n        /* \"#utility.yul\":3312:3365   */\n      tag_385\n        /* \"#utility.yul\":3357:3364   */\n      dup7\n        /* \"#utility.yul\":3348:3354   */\n      dup3\n        /* \"#utility.yul\":3337:3346   */\n      dup8\n        /* \"#utility.yul\":3333:3355   */\n      add\n        /* \"#utility.yul\":3312:3365   */\n      tag_313\n      jump\t// in\n    tag_385:\n        /* \"#utility.yul\":3302:3365   */\n      swap4\n      pop\n        /* \"#utility.yul\":3258:3375   */\n      pop\n        /* \"#utility.yul\":3414:3416   */\n      0x20\n        /* \"#utility.yul\":3440:3493   */\n      tag_386\n        /* \"#utility.yul\":3485:3492   */\n      dup7\n        /* \"#utility.yul\":3476:3482   */\n      dup3\n        /* \"#utility.yul\":3465:3474   */\n      dup8\n        /* \"#utility.yul\":3461:3483   */\n      add\n        /* \"#utility.yul\":3440:3493   */\n      tag_313\n      jump\t// in\n    tag_386:\n        /* \"#utility.yul\":3430:3493   */\n      swap3\n      pop\n        /* \"#utility.yul\":3385:3503   */\n      pop\n        /* \"#utility.yul\":3542:3544   */\n      0x40\n        /* \"#utility.yul\":3568:3621   */\n      tag_387\n        /* \"#utility.yul\":3613:3620   */\n      dup7\n        /* \"#utility.yul\":3604:3610   */\n      dup3\n        /* \"#utility.yul\":3593:3602   */\n      dup8\n        /* \"#utility.yul\":3589:3611   */\n      add\n        /* \"#utility.yul\":3568:3621   */\n      tag_318\n      jump\t// in\n    tag_387:\n        /* \"#utility.yul\":3558:3621   */\n      swap2\n      pop\n        /* \"#utility.yul\":3513:3631   */\n      pop\n        /* \"#utility.yul\":3019:3638   */\n      swap3\n      pop\n      swap3\n      pop\n      swap3\n      jump\t// out\n        /* \"#utility.yul\":3644:3734   */\n    tag_320:\n        /* \"#utility.yul\":3678:3685   */\n      0x00\n        /* \"#utility.yul\":3721:3726   */\n      dup2\n        /* \"#utility.yul\":3714:3727   */\n      iszero\n        /* \"#utility.yul\":3707:3728   */\n      iszero\n        /* \"#utility.yul\":3696:3728   */\n      swap1\n      pop\n        /* \"#utility.yul\":3644:3734   */\n      swap2\n      swap1\n      pop\n      jump\t// out\n        /* \"#utility.yul\":3740:3849   */\n    tag_321:\n        /* \"#utility.yul\":3821:3842   */\n      tag_390\n        /* \"#utility.yul\":3836:3841   */\n      dup2\n        /* \"#utility.yul\":3821:3842   */\n      tag_320\n      jump\t// in\n    tag_390:\n        /* \"#utility.yul\":3816:3819   */\n      dup3\n        /* \"#utility.yul\":3809:3843   */\n      mstore\n        /* \"#utility.yul\":3740:3849   */\n      pop\n      pop\n      jump\t// out\n        /* \"#utility.yul\":3855:4065   */\n    tag_90:\n        /* \"#utility.yul\":3942:3946   */\n      0x00\n        /* \"#utility.yul\":3980:3982   */\n      0x20\n        /* \"#utility.yul\":3969:3978   */\n      dup3\n        /* \"#utility.yul\":3965:3983   */\n      add\n        /* \"#utility.yul\":3957:3983   */\n      swap1\n      pop\n        /* \"#utility.yul\":3993:4058   */\n      tag_392\n        /* \"#utility.yul\":4055:4056   */\n      0x00\n        /* \"#utility.yul\":4044:4053   */\n      dup4\n        /* \"#utility.yul\":4040:4057   */\n      add\n        /* \"#utility.yul\":4031:4037   */\n      dup5\n        /* \"#utility.yul\":3993:4058   */\n      tag_321\n      jump\t// in\n    tag_392:\n        /* \"#utility.yul\":3855:4065   */\n      swap3\n      swap2\n      pop\n      pop\n      jump\t// out\n        /* \"#utility.yul\":4071:4545   */\n    tag_99:\n        /* \"#utility.yul\":4139:4145   */\n      0x00\n        /* \"#utility.yul\":4147:4153   */\n      dup1\n        /* \"#utility.yul\":4196:4198   */\n      0x40\n        /* \"#utility.yul\":4184:4193   */\n      dup4\n        /* \"#utility.yul\":4175:4182   */\n      dup6\n        /* \"#utility.yul\":4171:4194   */\n      sub\n        /* \"#utility.yul\":4167:4199   */\n      slt\n        /* \"#utility.yul\":4164:4283   */\n      iszero\n      tag_394\n      jumpi\n        /* \"#utility.yul\":4202:4281   */\n      tag_395\n      tag_309\n      jump\t// in\n    tag_395:\n        /* \"#utility.yul\":4164:4283   */\n    tag_394:\n        /* \"#utility.yul\":4322:4323   */\n      0x00\n        /* \"#utility.yul\":4347:4400   */\n      tag_396\n        /* \"#utility.yul\":4392:4399   */\n      dup6\n        /* \"#utility.yul\":4383:4389   */\n      dup3\n        /* \"#utility.yul\":4372:4381   */\n      dup7\n        /* \"#utility.yul\":4368:4390   */\n      add\n        /* \"#utility.yul\":4347:4400   */\n      tag_313\n      jump\t// in\n    tag_396:\n        /* \"#utility.yul\":4337:4400   */\n      swap3\n      pop\n        /* \"#utility.yul\":4293:4410   */\n      pop\n        /* \"#utility.yul\":4449:4451   */\n      0x20\n        /* \"#utility.yul\":4475:4528   */\n      tag_397\n        /* \"#utility.yul\":4520:4527   */\n      dup6\n        /* \"#utility.yul\":4511:4517   */\n      dup3\n        /* \"#utility.yul\":4500:4509   */\n      dup7\n        /* \"#utility.yul\":4496:4518   */\n      add\n        /* \"#utility.yul\":4475:4528   */\n      tag_313\n      jump\t// in\n    tag_397:\n        /* \"#utility.yul\":4465:4528   */\n      swap2\n      pop\n        /* \"#utility.yul\":4420:4538   */\n      pop\n        /* \"#utility.yul\":4071:4545   */\n      swap3\n      pop\n      swap3\n      swap1\n      pop\n      jump\t// out\n        /* \"#utility.yul\":4551:4871   */\n    tag_108:\n        /* \"#utility.yul\":4666:4670   */\n      0x00\n        /* \"#utility.yul\":4704:4706   */\n      0x40\n        /* \"#utility.yul\":4693:4702   */\n      dup3\n        /* \"#utility.yul\":4689:4707   */\n      add\n        /* \"#utility.yul\":4681:4707   */\n      swap1\n      pop\n        /* \"#utility.yul\":4717:4782   */\n      tag_399\n        /* \"#utility.yul\":4779:4780   */\n      0x00\n        /* \"#utility.yul\":4768:4777   */\n      dup4\n        /* \"#utility.yul\":4764:4781   */\n      add\n        /* \"#utility.yul\":4755:4761   */\n      dup6\n        /* \"#utility.yul\":4717:4782   */\n      tag_321\n      jump\t// in\n    tag_399:\n        /* \"#utility.yul\":4792:4864   */\n      tag_400\n        /* \"#utility.yul\":4860:4862   */\n      0x20\n        /* \"#utility.yul\":4849:4858   */\n      dup4\n        /* \"#utility.yul\":4845:4863   */\n      add\n        /* \"#utility.yul\":4836:4842   */\n      dup5\n        /* \"#utility.yul\":4792:4864   */\n      tag_314\n      jump\t// in\n    tag_400:\n        /* \"#utility.yul\":4551:4871   */\n      swap4\n      swap3\n      pop\n      pop\n      pop\n      jump\t// out\n        /* \"#utility.yul\":4877:5046   */\n    tag_322:\n        /* \"#utility.yul\":4961:4972   */\n      0x00\n        /* \"#utility.yul\":4995:5001   */\n      dup3\n        /* \"#utility.yul\":4990:4993   */\n      dup3\n        /* \"#utility.yul\":4983:5002   */\n      mstore\n        /* \"#utility.yul\":5035:5039   */\n      0x20\n        /* \"#utility.yul\":5030:5033   */\n      dup3\n        /* \"#utility.yul\":5026:5040   */\n      add\n        /* \"#utility.yul\":5011:5040   */\n      swap1\n      pop\n        /* \"#utility.yul\":4877:5046   */\n      swap3\n      swap2\n      pop\n      pop\n      jump\t// out\n        /* \"#utility.yul\":5052:5224   */\n    tag_323:\n        /* \"#utility.yul\":5192:5216   */\n      0x457863656564696e67207374616b6520616d6f756e7400000000000000000000\n        /* \"#utility.yul\":5188:5189   */\n      0x00\n        /* \"#utility.yul\":5180:5186   */\n      dup3\n        /* \"#utility.yul\":5176:5190   */\n      add\n        /* \"#utility.yul\":5169:5217   */\n      mstore\n        /* \"#utility.yul\":5052:5224   */\n      pop\n      jump\t// out\n        /* \"#utility.yul\":5230:5596   */\n    tag_324:\n        /* \"#utility.yul\":5372:5375   */\n      0x00\n        /* \"#utility.yul\":5393:5460   */\n      tag_404\n        /* \"#utility.yul\":5457:5459   */\n      0x16\n        /* \"#utility.yul\":5452:5455   */\n      dup4\n        /* \"#utility.yul\":5393:5460   */\n      tag_322\n      jump\t// in\n    tag_404:\n        /* \"#utility.yul\":5386:5460   */\n      swap2\n      pop\n        /* \"#utility.yul\":5469:5562   */\n      tag_405\n        /* \"#utility.yul\":5558:5561   */\n      dup3\n        /* \"#utility.yul\":5469:5562   */\n      tag_323\n      jump\t// in\n    tag_405:\n        /* \"#utility.yul\":5587:5589   */\n      0x20\n        /* \"#utility.yul\":5582:5585   */\n      dup3\n        /* \"#utility.yul\":5578:5590   */\n      add\n        /* \"#utility.yul\":5571:5590   */\n      swap1\n      pop\n        /* \"#utility.yul\":5230:5596   */\n      swap2\n      swap1\n      pop\n      jump\t// out\n        /* \"#utility.yul\":5602:6021   */\n    tag_115:\n        /* \"#utility.yul\":5768:5772   */\n      0x00\n        /* \"#utility.yul\":5806:5808   */\n      0x20\n        /* \"#utility.yul\":5795:5804   */\n      dup3\n        /* \"#utility.yul\":5791:5809   */\n      add\n        /* \"#utility.yul\":5783:5809   */\n      swap1\n      pop\n        /* \"#utility.yul\":5855:5864   */\n      dup2\n        /* \"#utility.yul\":5849:5853   */\n      dup2\n        /* \"#utility.yul\":5845:5865   */\n      sub\n        /* \"#utility.yul\":5841:5842   */\n      0x00\n        /* \"#utility.yul\":5830:5839   */\n      dup4\n        /* \"#utility.yul\":5826:5843   */\n      add\n        /* \"#utility.yul\":5819:5866   */\n      mstore\n        /* \"#utility.yul\":5883:6014   */\n      tag_407\n        /* \"#utility.yul\":6009:6013   */\n      dup2\n        /* \"#utility.yul\":5883:6014   */\n      tag_324\n      jump\t// in\n    tag_407:\n        /* \"#utility.yul\":5875:6014   */\n      swap1\n      pop\n        /* \"#utility.yul\":5602:6021   */\n      swap2\n      swap1\n      pop\n      jump\t// out\n        /* \"#utility.yul\":6027:6207   */\n    tag_325:\n        /* \"#utility.yul\":6075:6152   */\n      0x4e487b7100000000000000000000000000000000000000000000000000000000\n        /* \"#utility.yul\":6072:6073   */\n      0x00\n        /* \"#utility.yul\":6065:6153   */\n      mstore\n        /* \"#utility.yul\":6172:6176   */\n      0x11\n        /* \"#utility.yul\":6169:6170   */\n      0x04\n        /* \"#utility.yul\":6162:6177   */\n      mstore\n        /* \"#utility.yul\":6196:6200   */\n      0x24\n        /* \"#utility.yul\":6193:6194   */\n      0x00\n        /* \"#utility.yul\":6186:6201   */\n      revert\n        /* \"#utility.yul\":6213:6404   */\n    tag_123:\n        /* \"#utility.yul\":6253:6256   */\n      0x00\n        /* \"#utility.yul\":6272:6292   */\n      tag_410\n        /* \"#utility.yul\":6290:6291   */\n      dup3\n        /* \"#utility.yul\":6272:6292   */\n      tag_311\n      jump\t// in\n    tag_410:\n        /* \"#utility.yul\":6267:6292   */\n      swap2\n      pop\n        /* \"#utility.yul\":6306:6326   */\n      tag_411\n        /* \"#utility.yul\":6324:6325   */\n      dup4\n        /* \"#utility.yul\":6306:6326   */\n      tag_311\n      jump\t// in\n    tag_411:\n        /* \"#utility.yul\":6301:6326   */\n      swap3\n      pop\n        /* \"#utility.yul\":6349:6350   */\n      dup3\n        /* \"#utility.yul\":6346:6347   */\n      dup3\n        /* \"#utility.yul\":6342:6351   */\n      add\n        /* \"#utility.yul\":6335:6351   */\n      swap1\n      pop\n        /* \"#utility.yul\":6370:6373   */\n      dup1\n        /* \"#utility.yul\":6367:6368   */\n      dup3\n        /* \"#utility.yul\":6364:6374   */\n      gt\n        /* \"#utility.yul\":6361:6397   */\n      iszero\n      tag_412\n      jumpi\n        /* \"#utility.yul\":6377:6395   */\n      tag_413\n      tag_325\n      jump\t// in\n    tag_413:\n        /* \"#utility.yul\":6361:6397   */\n    tag_412:\n        /* \"#utility.yul\":6213:6404   */\n      swap3\n      swap2\n      pop\n      pop\n      jump\t// out\n        /* \"#utility.yul\":6410:6742   */\n    tag_131:\n        /* \"#utility.yul\":6531:6535   */\n      0x00\n        /* \"#utility.yul\":6569:6571   */\n      0x40\n        /* \"#utility.yul\":6558:6567   */\n      dup3\n        /* \"#utility.yul\":6554:6572   */\n      add\n        /* \"#utility.yul\":6546:6572   */\n      swap1\n      pop\n        /* \"#utility.yul\":6582:6653   */\n      tag_415\n        /* \"#utility.yul\":6650:6651   */\n      0x00\n        /* \"#utility.yul\":6639:6648   */\n      dup4\n        /* \"#utility.yul\":6635:6652   */\n      add\n        /* \"#utility.yul\":6626:6632   */\n      dup6\n        /* \"#utility.yul\":6582:6653   */\n      tag_319\n      jump\t// in\n    tag_415:\n        /* \"#utility.yul\":6663:6735   */\n      tag_416\n        /* \"#utility.yul\":6731:6733   */\n      0x20\n        /* \"#utility.yul\":6720:6729   */\n      dup4\n        /* \"#utility.yul\":6716:6734   */\n      add\n        /* \"#utility.yul\":6707:6713   */\n      dup5\n        /* \"#utility.yul\":6663:6735   */\n      tag_314\n      jump\t// in\n    tag_416:\n        /* \"#utility.yul\":6410:6742   */\n      swap4\n      swap3\n      pop\n      pop\n      pop\n      jump\t// out\n        /* \"#utility.yul\":6748:6864   */\n    tag_326:\n        /* \"#utility.yul\":6818:6839   */\n      tag_418\n        /* \"#utility.yul\":6833:6838   */\n      dup2\n        /* \"#utility.yul\":6818:6839   */\n      tag_320\n      jump\t// in\n    tag_418:\n        /* \"#utility.yul\":6811:6816   */\n      dup2\n        /* \"#utility.yul\":6808:6840   */\n      eq\n        /* \"#utility.yul\":6798:6858   */\n      tag_419\n      jumpi\n        /* \"#utility.yul\":6854:6855   */\n      0x00\n        /* \"#utility.yul\":6851:6852   */\n      dup1\n        /* \"#utility.yul\":6844:6856   */\n      revert\n        /* \"#utility.yul\":6798:6858   */\n    tag_419:\n        /* \"#utility.yul\":6748:6864   */\n      pop\n      jump\t// out\n        /* \"#utility.yul\":6870:7007   */\n    tag_327:\n        /* \"#utility.yul\":6924:6929   */\n      0x00\n        /* \"#utility.yul\":6955:6961   */\n      dup2\n        /* \"#utility.yul\":6949:6962   */\n      mload\n        /* \"#utility.yul\":6940:6962   */\n      swap1\n      pop\n        /* \"#utility.yul\":6971:7001   */\n      tag_421\n        /* \"#utility.yul\":6995:7000   */\n      dup2\n        /* \"#utility.yul\":6971:7001   */\n      tag_326\n      jump\t// in\n    tag_421:\n        /* \"#utility.yul\":6870:7007   */\n      swap3\n      swap2\n      pop\n      pop\n      jump\t// out\n        /* \"#utility.yul\":7013:7358   */\n    tag_135:\n        /* \"#utility.yul\":7080:7086   */\n      0x00\n        /* \"#utility.yul\":7129:7131   */\n      0x20\n        /* \"#utility.yul\":7117:7126   */\n      dup3\n        /* \"#utility.yul\":7108:7115   */\n      dup5\n        /* \"#utility.yul\":7104:7127   */\n      sub\n        /* \"#utility.yul\":7100:7132   */\n      slt\n        /* \"#utility.yul\":7097:7216   */\n      iszero\n      tag_423\n      jumpi\n        /* \"#utility.yul\":7135:7214   */\n      tag_424\n      tag_309\n      jump\t// in\n    tag_424:\n        /* \"#utility.yul\":7097:7216   */\n    tag_423:\n        /* \"#utility.yul\":7255:7256   */\n      0x00\n        /* \"#utility.yul\":7280:7341   */\n      tag_425\n        /* \"#utility.yul\":7333:7340   */\n      dup5\n        /* \"#utility.yul\":7324:7330   */\n      dup3\n        /* \"#utility.yul\":7313:7322   */\n      dup6\n        /* \"#utility.yul\":7309:7331   */\n      add\n        /* \"#utility.yul\":7280:7341   */\n      tag_327\n      jump\t// in\n    tag_425:\n        /* \"#utility.yul\":7270:7341   */\n      swap2\n      pop\n        /* \"#utility.yul\":7226:7351   */\n      pop\n        /* \"#utility.yul\":7013:7358   */\n      swap3\n      swap2\n      pop\n      pop\n      jump\t// out\n        /* \"#utility.yul\":7364:7507   */\n    tag_328:\n        /* \"#utility.yul\":7421:7426   */\n      0x00\n        /* \"#utility.yul\":7452:7458   */\n      dup2\n        /* \"#utility.yul\":7446:7459   */\n      mload\n        /* \"#utility.yul\":7437:7459   */\n      swap1\n      pop\n        /* \"#utility.yul\":7468:7501   */\n      tag_427\n        /* \"#utility.yul\":7495:7500   */\n      dup2\n        /* \"#utility.yul\":7468:7501   */\n      tag_312\n      jump\t// in\n    tag_427:\n        /* \"#utility.yul\":7364:7507   */\n      swap3\n      swap2\n      pop\n      pop\n      jump\t// out\n        /* \"#utility.yul\":7513:7864   */\n    tag_141:\n        /* \"#utility.yul\":7583:7589   */\n      0x00\n        /* \"#utility.yul\":7632:7634   */\n      0x20\n        /* \"#utility.yul\":7620:7629   */\n      dup3\n        /* \"#utility.yul\":7611:7618   */\n      dup5\n        /* \"#utility.yul\":7607:7630   */\n      sub\n        /* \"#utility.yul\":7603:7635   */\n      slt\n        /* \"#utility.yul\":7600:7719   */\n      iszero\n      tag_429\n      jumpi\n        /* \"#utility.yul\":7638:7717   */\n      tag_430\n      tag_309\n      jump\t// in\n    tag_430:\n        /* \"#utility.yul\":7600:7719   */\n    tag_429:\n        /* \"#utility.yul\":7758:7759   */\n      0x00\n        /* \"#utility.yul\":7783:7847   */\n      tag_431\n        /* \"#utility.yul\":7839:7846   */\n      dup5\n        /* \"#utility.yul\":7830:7836   */\n      dup3\n        /* \"#utility.yul\":7819:7828   */\n      dup6\n        /* \"#utility.yul\":7815:7837   */\n      add\n        /* \"#utility.yul\":7783:7847   */\n      tag_328\n      jump\t// in\n    tag_431:\n        /* \"#utility.yul\":7773:7847   */\n      swap2\n      pop\n        /* \"#utility.yul\":7729:7857   */\n      pop\n        /* \"#utility.yul\":7513:7864   */\n      swap3\n      swap2\n      pop\n      pop\n      jump\t// out\n        /* \"#utility.yul\":7870:8052   */\n    tag_329:\n        /* \"#utility.yul\":8010:8044   */\n      0x4f776e61626c653a2063616c6c6572206973206e6f7420746865206f776e6572\n        /* \"#utility.yul\":8006:8007   */\n      0x00\n        /* \"#utility.yul\":7998:8004   */\n      dup3\n        /* \"#utility.yul\":7994:8008   */\n      add\n        /* \"#utility.yul\":7987:8045   */\n      mstore\n        /* \"#utility.yul\":7870:8052   */\n      pop\n      jump\t// out\n        /* \"#utility.yul\":8058:8424   */\n    tag_330:\n        /* \"#utility.yul\":8200:8203   */\n      0x00\n        /* \"#utility.yul\":8221:8288   */\n      tag_434\n        /* \"#utility.yul\":8285:8287   */\n      0x20\n        /* \"#utility.yul\":8280:8283   */\n      dup4\n        /* \"#utility.yul\":8221:8288   */\n      tag_322\n      jump\t// in\n    tag_434:\n        /* \"#utility.yul\":8214:8288   */\n      swap2\n      pop\n        /* \"#utility.yul\":8297:8390   */\n      tag_435\n        /* \"#utility.yul\":8386:8389   */\n      dup3\n        /* \"#utility.yul\":8297:8390   */\n      tag_329\n      jump\t// in\n    tag_435:\n        /* \"#utility.yul\":8415:8417   */\n      0x20\n        /* \"#utility.yul\":8410:8413   */\n      dup3\n        /* \"#utility.yul\":8406:8418   */\n      add\n        /* \"#utility.yul\":8399:8418   */\n      swap1\n      pop\n        /* \"#utility.yul\":8058:8424   */\n      swap2\n      swap1\n      pop\n      jump\t// out\n        /* \"#utility.yul\":8430:8849   */\n    tag_165:\n        /* \"#utility.yul\":8596:8600   */\n      0x00\n        /* \"#utility.yul\":8634:8636   */\n      0x20\n        /* \"#utility.yul\":8623:8632   */\n      dup3\n        /* \"#utility.yul\":8619:8637   */\n      add\n        /* \"#utility.yul\":8611:8637   */\n      swap1\n      pop\n        /* \"#utility.yul\":8683:8692   */\n      dup2\n        /* \"#utility.yul\":8677:8681   */\n      dup2\n        /* \"#utility.yul\":8673:8693   */\n      sub\n        /* \"#utility.yul\":8669:8670   */\n      0x00\n        /* \"#utility.yul\":8658:8667   */\n      dup4\n        /* \"#utility.yul\":8654:8671   */\n      add\n        /* \"#utility.yul\":8647:8694   */\n      mstore\n        /* \"#utility.yul\":8711:8842   */\n      tag_437\n        /* \"#utility.yul\":8837:8841   */\n      dup2\n        /* \"#utility.yul\":8711:8842   */\n      tag_330\n      jump\t// in\n    tag_437:\n        /* \"#utility.yul\":8703:8842   */\n      swap1\n      pop\n        /* \"#utility.yul\":8430:8849   */\n      swap2\n      swap1\n      pop\n      jump\t// out\n        /* \"#utility.yul\":8855:9049   */\n    tag_171:\n        /* \"#utility.yul\":8895:8899   */\n      0x00\n        /* \"#utility.yul\":8915:8935   */\n      tag_439\n        /* \"#utility.yul\":8933:8934   */\n      dup3\n        /* \"#utility.yul\":8915:8935   */\n      tag_311\n      jump\t// in\n    tag_439:\n        /* \"#utility.yul\":8910:8935   */\n      swap2\n      pop\n        /* \"#utility.yul\":8949:8969   */\n      tag_440\n        /* \"#utility.yul\":8967:8968   */\n      dup4\n        /* \"#utility.yul\":8949:8969   */\n      tag_311\n      jump\t// in\n    tag_440:\n        /* \"#utility.yul\":8944:8969   */\n      swap3\n      pop\n        /* \"#utility.yul\":8993:8994   */\n      dup3\n        /* \"#utility.yul\":8990:8991   */\n      dup3\n        /* \"#utility.yul\":8986:8995   */\n      sub\n        /* \"#utility.yul\":8978:8995   */\n      swap1\n      pop\n        /* \"#utility.yul\":9017:9018   */\n      dup2\n        /* \"#utility.yul\":9011:9015   */\n      dup2\n        /* \"#utility.yul\":9008:9019   */\n      gt\n        /* \"#utility.yul\":9005:9042   */\n      iszero\n      tag_441\n      jumpi\n        /* \"#utility.yul\":9022:9040   */\n      tag_442\n      tag_325\n      jump\t// in\n    tag_442:\n        /* \"#utility.yul\":9005:9042   */\n    tag_441:\n        /* \"#utility.yul\":8855:9049   */\n      swap3\n      swap2\n      pop\n      pop\n      jump\t// out\n        /* \"#utility.yul\":9055:9235   */\n    tag_178:\n        /* \"#utility.yul\":9103:9180   */\n      0x4e487b7100000000000000000000000000000000000000000000000000000000\n        /* \"#utility.yul\":9100:9101   */\n      0x00\n        /* \"#utility.yul\":9093:9181   */\n      mstore\n        /* \"#utility.yul\":9200:9204   */\n      0x32\n        /* \"#utility.yul\":9197:9198   */\n      0x04\n        /* \"#utility.yul\":9190:9205   */\n      mstore\n        /* \"#utility.yul\":9224:9228   */\n      0x24\n        /* \"#utility.yul\":9221:9222   */\n      0x00\n        /* \"#utility.yul\":9214:9229   */\n      revert\n        /* \"#utility.yul\":9241:9474   */\n    tag_186:\n        /* \"#utility.yul\":9280:9283   */\n      0x00\n        /* \"#utility.yul\":9303:9327   */\n      tag_445\n        /* \"#utility.yul\":9321:9326   */\n      dup3\n        /* \"#utility.yul\":9303:9327   */\n      tag_311\n      jump\t// in\n    tag_445:\n        /* \"#utility.yul\":9294:9327   */\n      swap2\n      pop\n        /* \"#utility.yul\":9349:9415   */\n      0xffffffffffffffffffffffffffffffffffffffffffffffffffffffffffffffff\n        /* \"#utility.yul\":9342:9347   */\n      dup3\n        /* \"#utility.yul\":9339:9416   */\n      sub\n        /* \"#utility.yul\":9336:9439   */\n      tag_446\n      jumpi\n        /* \"#utility.yul\":9419:9437   */\n      tag_447\n      tag_325\n      jump\t// in\n    tag_447:\n        /* \"#utility.yul\":9336:9439   */\n    tag_446:\n        /* \"#utility.yul\":9466:9467   */\n      0x01\n        /* \"#utility.yul\":9459:9464   */\n      dup3\n        /* \"#utility.yul\":9455:9468   */\n      add\n        /* \"#utility.yul\":9448:9468   */\n      swap1\n      pop\n        /* \"#utility.yul\":9241:9474   */\n      swap2\n      swap1\n      pop\n      jump\t// out\n        /* \"#utility.yul\":9480:9642   */\n    tag_331:\n        /* \"#utility.yul\":9620:9634   */\n      0x43616e6e6f74205374616b650000000000000000000000000000000000000000\n        /* \"#utility.yul\":9616:9617   */\n      0x00\n        /* \"#utility.yul\":9608:9614   */\n      dup3\n        /* \"#utility.yul\":9604:9618   */\n      add\n        /* \"#utility.yul\":9597:9635   */\n      mstore\n        /* \"#utility.yul\":9480:9642   */\n      pop\n      jump\t// out\n        /* \"#utility.yul\":9648:10014   */\n    tag_332:\n        /* \"#utility.yul\":9790:9793   */\n      0x00\n        /* \"#utility.yul\":9811:9878   */\n      tag_450\n        /* \"#utility.yul\":9875:9877   */\n      0x0c\n        /* \"#utility.yul\":9870:9873   */\n      dup4\n        /* \"#utility.yul\":9811:9878   */\n      tag_322\n      jump\t// in\n    tag_450:\n        /* \"#utility.yul\":9804:9878   */\n      swap2\n      pop\n        /* \"#utility.yul\":9887:9980   */\n      tag_451\n        /* \"#utility.yul\":9976:9979   */\n      dup3\n        /* \"#utility.yul\":9887:9980   */\n      tag_331\n      jump\t// in\n    tag_451:\n        /* \"#utility.yul\":10005:10007   */\n      0x20\n        /* \"#utility.yul\":10000:10003   */\n      dup3\n        /* \"#utility.yul\":9996:10008   */\n      add\n        /* \"#utility.yul\":9989:10008   */\n      swap1\n      pop\n        /* \"#utility.yul\":9648:10014   */\n      swap2\n      swap1\n      pop\n      jump\t// out\n        /* \"#utility.yul\":10020:10439   */\n    tag_211:\n        /* \"#utility.yul\":10186:10190   */\n      0x00\n        /* \"#utility.yul\":10224:10226   */\n      0x20\n        /* \"#utility.yul\":10213:10222   */\n      dup3\n        /* \"#utility.yul\":10209:10227   */\n      add\n        /* \"#utility.yul\":10201:10227   */\n      swap1\n      pop\n        /* \"#utility.yul\":10273:10282   */\n      dup2\n        /* \"#utility.yul\":10267:10271   */\n      dup2\n        /* \"#utility.yul\":10263:10283   */\n      sub\n        /* \"#utility.yul\":10259:10260   */\n      0x00\n        /* \"#utility.yul\":10248:10257   */\n      dup4\n        /* \"#utility.yul\":10244:10261   */\n      add\n        /* \"#utility.yul\":10237:10284   */\n      mstore\n        /* \"#utility.yul\":10301:10432   */\n      tag_453\n        /* \"#utility.yul\":10427:10431   */\n      dup2\n        /* \"#utility.yul\":10301:10432   */\n      tag_332\n      jump\t// in\n    tag_453:\n        /* \"#utility.yul\":10293:10432   */\n      swap1\n      pop\n        /* \"#utility.yul\":10020:10439   */\n      swap2\n      swap1\n      pop\n      jump\t// out\n        /* \"#utility.yul\":10445:10887   */\n    tag_213:\n        /* \"#utility.yul\":10594:10598   */\n      0x00\n        /* \"#utility.yul\":10632:10634   */\n      0x60\n        /* \"#utility.yul\":10621:10630   */\n      dup3\n        /* \"#utility.yul\":10617:10635   */\n      add\n        /* \"#utility.yul\":10609:10635   */\n      swap1\n      pop\n        /* \"#utility.yul\":10645:10716   */\n      tag_455\n        /* \"#utility.yul\":10713:10714   */\n      0x00\n        /* \"#utility.yul\":10702:10711   */\n      dup4\n        /* \"#utility.yul\":10698:10715   */\n      add\n        /* \"#utility.yul\":10689:10695   */\n      dup7\n        /* \"#utility.yul\":10645:10716   */\n      tag_319\n      jump\t// in\n    tag_455:\n        /* \"#utility.yul\":10726:10798   */\n      tag_456\n        /* \"#utility.yul\":10794:10796   */\n      0x20\n        /* \"#utility.yul\":10783:10792   */\n      dup4\n        /* \"#utility.yul\":10779:10797   */\n      add\n        /* \"#utility.yul\":10770:10776   */\n      dup6\n        /* \"#utility.yul\":10726:10798   */\n      tag_319\n      jump\t// in\n    tag_456:\n        /* \"#utility.yul\":10808:10880   */\n      tag_457\n        /* \"#utility.yul\":10876:10878   */\n      0x40\n        /* \"#utility.yul\":10865:10874   */\n      dup4\n        /* \"#utility.yul\":10861:10879   */\n      add\n        /* \"#utility.yul\":10852:10858   */\n      dup5\n        /* \"#utility.yul\":10808:10880   */\n      tag_314\n      jump\t// in\n    tag_457:\n        /* \"#utility.yul\":10445:10887   */\n      swap5\n      swap4\n      pop\n      pop\n      pop\n      pop\n      jump\t// out\n        /* \"#utility.yul\":10893:11303   */\n    tag_218:\n        /* \"#utility.yul\":10933:10940   */\n      0x00\n        /* \"#utility.yul\":10956:10976   */\n      tag_459\n        /* \"#utility.yul\":10974:10975   */\n      dup3\n        /* \"#utility.yul\":10956:10976   */\n      tag_311\n      jump\t// in\n    tag_459:\n        /* \"#utility.yul\":10951:10976   */\n      swap2\n      pop\n        /* \"#utility.yul\":10990:11010   */\n      tag_460\n        /* \"#utility.yul\":11008:11009   */\n      dup4\n        /* \"#utility.yul\":10990:11010   */\n      tag_311\n      jump\t// in\n    tag_460:\n        /* \"#utility.yul\":10985:11010   */\n      swap3\n      pop\n        /* \"#utility.yul\":11045:11046   */\n      dup3\n        /* \"#utility.yul\":11042:11043   */\n      dup3\n        /* \"#utility.yul\":11038:11047   */\n      mul\n        /* \"#utility.yul\":11067:11097   */\n      tag_461\n        /* \"#utility.yul\":11085:11096   */\n      dup2\n        /* \"#utility.yul\":11067:11097   */\n      tag_311\n      jump\t// in\n    tag_461:\n        /* \"#utility.yul\":11056:11097   */\n      swap2\n      pop\n        /* \"#utility.yul\":11246:11247   */\n      dup3\n        /* \"#utility.yul\":11237:11244   */\n      dup3\n        /* \"#utility.yul\":11233:11248   */\n      div\n        /* \"#utility.yul\":11230:11231   */\n      dup5\n        /* \"#utility.yul\":11227:11249   */\n      eq\n        /* \"#utility.yul\":11207:11208   */\n      dup4\n        /* \"#utility.yul\":11200:11209   */\n      iszero\n        /* \"#utility.yul\":11180:11263   */\n      or\n        /* \"#utility.yul\":11157:11296   */\n      tag_462\n      jumpi\n        /* \"#utility.yul\":11276:11294   */\n      tag_463\n      tag_325\n      jump\t// in\n    tag_463:\n        /* \"#utility.yul\":11157:11296   */\n    tag_462:\n        /* \"#utility.yul\":10941:11303   */\n      pop\n        /* \"#utility.yul\":10893:11303   */\n      swap3\n      swap2\n      pop\n      pop\n      jump\t// out\n        /* \"#utility.yul\":11309:11534   */\n    tag_333:\n        /* \"#utility.yul\":11449:11483   */\n      0x4f776e61626c653a206e6577206f776e657220697320746865207a65726f2061\n        /* \"#utility.yul\":11445:11446   */\n      0x00\n        /* \"#utility.yul\":11437:11443   */\n      dup3\n        /* \"#utility.yul\":11433:11447   */\n      add\n        /* \"#utility.yul\":11426:11484   */\n      mstore\n        /* \"#utility.yul\":11518:11526   */\n      0x6464726573730000000000000000000000000000000000000000000000000000\n        /* \"#utility.yul\":11513:11515   */\n      0x20\n        /* \"#utility.yul\":11505:11511   */\n      dup3\n        /* \"#utility.yul\":11501:11516   */\n      add\n        /* \"#utility.yul\":11494:11527   */\n      mstore\n        /* \"#utility.yul\":11309:11534   */\n      pop\n      jump\t// out\n        /* \"#utility.yul\":11540:11906   */\n    tag_334:\n        /* \"#utility.yul\":11682:11685   */\n      0x00\n        /* \"#utility.yul\":11703:11770   */\n      tag_466\n        /* \"#utility.yul\":11767:11769   */\n      0x26\n        /* \"#utility.yul\":11762:11765   */\n      dup4\n        /* \"#utility.yul\":11703:11770   */\n      tag_322\n      jump\t// in\n    tag_466:\n        /* \"#utility.yul\":11696:11770   */\n      swap2\n      pop\n        /* \"#utility.yul\":11779:11872   */\n      tag_467\n        /* \"#utility.yul\":11868:11871   */\n      dup3\n        /* \"#utility.yul\":11779:11872   */\n      tag_333\n      jump\t// in\n    tag_467:\n        /* \"#utility.yul\":11897:11899   */\n      0x40\n        /* \"#utility.yul\":11892:11895   */\n      dup3\n        /* \"#utility.yul\":11888:11900   */\n      add\n        /* \"#utility.yul\":11881:11900   */\n      swap1\n      pop\n        /* \"#utility.yul\":11540:11906   */\n      swap2\n      swap1\n      pop\n      jump\t// out\n        /* \"#utility.yul\":11912:12331   */\n    tag_244:\n        /* \"#utility.yul\":12078:12082   */\n      0x00\n        /* \"#utility.yul\":12116:12118   */\n      0x20\n        /* \"#utility.yul\":12105:12114   */\n      dup3\n        /* \"#utility.yul\":12101:12119   */\n      add\n        /* \"#utility.yul\":12093:12119   */\n      swap1\n      pop\n        /* \"#utility.yul\":12165:12174   */\n      dup2\n        /* \"#utility.yul\":12159:12163   */\n      dup2\n        /* \"#utility.yul\":12155:12175   */\n      sub\n        /* \"#utility.yul\":12151:12152   */\n      0x00\n        /* \"#utility.yul\":12140:12149   */\n      dup4\n        /* \"#utility.yul\":12136:12153   */\n      add\n        /* \"#utility.yul\":12129:12176   */\n      mstore\n        /* \"#utility.yul\":12193:12324   */\n      tag_469\n        /* \"#utility.yul\":12319:12323   */\n      dup2\n        /* \"#utility.yul\":12193:12324   */\n      tag_334\n      jump\t// in\n    tag_469:\n        /* \"#utility.yul\":12185:12324   */\n      swap1\n      pop\n        /* \"#utility.yul\":11912:12331   */\n      swap2\n      swap1\n      pop\n      jump\t// out\n        /* \"#utility.yul\":12337:12517   */\n    tag_335:\n        /* \"#utility.yul\":12477:12509   */\n      0x536166654d6174683a207375627472616374696f6e206f766572666c6f770000\n        /* \"#utility.yul\":12473:12474   */\n      0x00\n        /* \"#utility.yul\":12465:12471   */\n      dup3\n        /* \"#utility.yul\":12461:12475   */\n      add\n        /* \"#utility.yul\":12454:12510   */\n      mstore\n        /* \"#utility.yul\":12337:12517   */\n      pop\n      jump\t// out\n        /* \"#utility.yul\":12523:12889   */\n    tag_336:\n        /* \"#utility.yul\":12665:12668   */\n      0x00\n        /* \"#utility.yul\":12686:12753   */\n      tag_472\n        /* \"#utility.yul\":12750:12752   */\n      0x1e\n        /* \"#utility.yul\":12745:12748   */\n      dup4\n        /* \"#utility.yul\":12686:12753   */\n      tag_322\n      jump\t// in\n    tag_472:\n        /* \"#utility.yul\":12679:12753   */\n      swap2\n      pop\n        /* \"#utility.yul\":12762:12855   */\n      tag_473\n        /* \"#utility.yul\":12851:12854   */\n      dup3\n        /* \"#utility.yul\":12762:12855   */\n      tag_335\n      jump\t// in\n    tag_473:\n        /* \"#utility.yul\":12880:12882   */\n      0x20\n        /* \"#utility.yul\":12875:12878   */\n      dup3\n        /* \"#utility.yul\":12871:12883   */\n      add\n        /* \"#utility.yul\":12864:12883   */\n      swap1\n      pop\n        /* \"#utility.yul\":12523:12889   */\n      swap2\n      swap1\n      pop\n      jump\t// out\n        /* \"#utility.yul\":12895:13314   */\n    tag_248:\n        /* \"#utility.yul\":13061:13065   */\n      0x00\n        /* \"#utility.yul\":13099:13101   */\n      0x20\n        /* \"#utility.yul\":13088:13097   */\n      dup3\n        /* \"#utility.yul\":13084:13102   */\n      add\n        /* \"#utility.yul\":13076:13102   */\n      swap1\n      pop\n        /* \"#utility.yul\":13148:13157   */\n      dup2\n        /* \"#utility.yul\":13142:13146   */\n      dup2\n        /* \"#utility.yul\":13138:13158   */\n      sub\n        /* \"#utility.yul\":13134:13135   */\n      0x00\n        /* \"#utility.yul\":13123:13132   */\n      dup4\n        /* \"#utility.yul\":13119:13136   */\n      add\n        /* \"#utility.yul\":13112:13159   */\n      mstore\n        /* \"#utility.yul\":13176:13307   */\n      tag_475\n        /* \"#utility.yul\":13302:13306   */\n      dup2\n        /* \"#utility.yul\":13176:13307   */\n      tag_336\n      jump\t// in\n    tag_475:\n        /* \"#utility.yul\":13168:13307   */\n      swap1\n      pop\n        /* \"#utility.yul\":12895:13314   */\n      swap2\n      swap1\n      pop\n      jump\t// out\n        /* \"#utility.yul\":13320:13500   */\n    tag_262:\n        /* \"#utility.yul\":13368:13445   */\n      0x4e487b7100000000000000000000000000000000000000000000000000000000\n        /* \"#utility.yul\":13365:13366   */\n      0x00\n        /* \"#utility.yul\":13358:13446   */\n      mstore\n        /* \"#utility.yul\":13465:13469   */\n      0x31\n        /* \"#utility.yul\":13462:13463   */\n      0x04\n        /* \"#utility.yul\":13455:13470   */\n      mstore\n        /* \"#utility.yul\":13489:13493   */\n      0x24\n        /* \"#utility.yul\":13486:13487   */\n      0x00\n        /* \"#utility.yul\":13479:13494   */\n      revert\n        /* \"#utility.yul\":13506:13686   */\n    tag_337:\n        /* \"#utility.yul\":13554:13631   */\n      0x4e487b7100000000000000000000000000000000000000000000000000000000\n        /* \"#utility.yul\":13551:13552   */\n      0x00\n        /* \"#utility.yul\":13544:13632   */\n      mstore\n        /* \"#utility.yul\":13651:13655   */\n      0x12\n        /* \"#utility.yul\":13648:13649   */\n      0x04\n        /* \"#utility.yul\":13641:13656   */\n      mstore\n        /* \"#utility.yul\":13675:13679   */\n      0x24\n        /* \"#utility.yul\":13672:13673   */\n      0x00\n        /* \"#utility.yul\":13665:13680   */\n      revert\n        /* \"#utility.yul\":13692:13877   */\n    tag_268:\n        /* \"#utility.yul\":13732:13733   */\n      0x00\n        /* \"#utility.yul\":13749:13769   */\n      tag_479\n        /* \"#utility.yul\":13767:13768   */\n      dup3\n        /* \"#utility.yul\":13749:13769   */\n      tag_311\n      jump\t// in\n    tag_479:\n        /* \"#utility.yul\":13744:13769   */\n      swap2\n      pop\n        /* \"#utility.yul\":13783:13803   */\n      tag_480\n        /* \"#utility.yul\":13801:13802   */\n      dup4\n        /* \"#utility.yul\":13783:13803   */\n      tag_311\n      jump\t// in\n    tag_480:\n        /* \"#utility.yul\":13778:13803   */\n      swap3\n      pop\n        /* \"#utility.yul\":13822:13823   */\n      dup3\n        /* \"#utility.yul\":13812:13847   */\n      tag_481\n      jumpi\n        /* \"#utility.yul\":13827:13845   */\n      tag_482\n      tag_337\n      jump\t// in\n    tag_482:\n        /* \"#utility.yul\":13812:13847   */\n    tag_481:\n        /* \"#utility.yul\":13869:13870   */\n      dup3\n        /* \"#utility.yul\":13866:13867   */\n      dup3\n        /* \"#utility.yul\":13862:13871   */\n      div\n        /* \"#utility.yul\":13857:13871   */\n      swap1\n      pop\n        /* \"#utility.yul\":13692:13877   */\n      swap3\n      swap2\n      pop\n      pop\n      jump\t// out\n        /* \"#utility.yul\":13883:14103   */\n    tag_338:\n        /* \"#utility.yul\":14023:14057   */\n      0x536166654d6174683a206d756c7469706c69636174696f6e206f766572666c6f\n        /* \"#utility.yul\":14019:14020   */\n      0x00\n        /* \"#utility.yul\":14011:14017   */\n      dup3\n        /* \"#utility.yul\":14007:14021   */\n      add\n        /* \"#utility.yul\":14000:14058   */\n      mstore\n        /* \"#utility.yul\":14092:14095   */\n      0x7700000000000000000000000000000000000000000000000000000000000000\n        /* \"#utility.yul\":14087:14089   */\n      0x20\n        /* \"#utility.yul\":14079:14085   */\n      dup3\n        /* \"#utility.yul\":14075:14090   */\n      add\n        /* \"#utility.yul\":14068:14096   */\n      mstore\n        /* \"#utility.yul\":13883:14103   */\n      pop\n      jump\t// out\n        /* \"#utility.yul\":14109:14475   */\n    tag_339:\n        /* \"#utility.yul\":14251:14254   */\n      0x00\n        /* \"#utility.yul\":14272:14339   */\n      tag_485\n        /* \"#utility.yul\":14336:14338   */\n      0x21\n        /* \"#utility.yul\":14331:14334   */\n      dup4\n        /* \"#utility.yul\":14272:14339   */\n      tag_322\n      jump\t// in\n    tag_485:\n        /* \"#utility.yul\":14265:14339   */\n      swap2\n      pop\n        /* \"#utility.yul\":14348:14441   */\n      tag_486\n        /* \"#utility.yul\":14437:14440   */\n      dup3\n        /* \"#utility.yul\":14348:14441   */\n      tag_338\n      jump\t// in\n    tag_486:\n        /* \"#utility.yul\":14466:14468   */\n      0x40\n        /* \"#utility.yul\":14461:14464   */\n      dup3\n        /* \"#utility.yul\":14457:14469   */\n      add\n        /* \"#utility.yul\":14450:14469   */\n      swap1\n      pop\n        /* \"#utility.yul\":14109:14475   */\n      swap2\n      swap1\n      pop\n      jump\t// out\n        /* \"#utility.yul\":14481:14900   */\n    tag_271:\n        /* \"#utility.yul\":14647:14651   */\n      0x00\n        /* \"#utility.yul\":14685:14687   */\n      0x20\n        /* \"#utility.yul\":14674:14683   */\n      dup3\n        /* \"#utility.yul\":14670:14688   */\n      add\n        /* \"#utility.yul\":14662:14688   */\n      swap1\n      pop\n        /* \"#utility.yul\":14734:14743   */\n      dup2\n        /* \"#utility.yul\":14728:14732   */\n      dup2\n        /* \"#utility.yul\":14724:14744   */\n      sub\n        /* \"#utility.yul\":14720:14721   */\n      0x00\n        /* \"#utility.yul\":14709:14718   */\n      dup4\n        /* \"#utility.yul\":14705:14722   */\n      add\n        /* \"#utility.yul\":14698:14745   */\n      mstore\n        /* \"#utility.yul\":14762:14893   */\n      tag_488\n        /* \"#utility.yul\":14888:14892   */\n      dup2\n        /* \"#utility.yul\":14762:14893   */\n      tag_339\n      jump\t// in\n    tag_488:\n        /* \"#utility.yul\":14754:14893   */\n      swap1\n      pop\n        /* \"#utility.yul\":14481:14900   */\n      swap2\n      swap1\n      pop\n      jump\t// out\n        /* \"#utility.yul\":14906:15082   */\n    tag_340:\n        /* \"#utility.yul\":15046:15074   */\n      0x536166654d6174683a206469766973696f6e206279207a65726f000000000000\n        /* \"#utility.yul\":15042:15043   */\n      0x00\n        /* \"#utility.yul\":15034:15040   */\n      dup3\n        /* \"#utility.yul\":15030:15044   */\n      add\n        /* \"#utility.yul\":15023:15075   */\n      mstore\n        /* \"#utility.yul\":14906:15082   */\n      pop\n      jump\t// out\n        /* \"#utility.yul\":15088:15454   */\n    tag_341:\n        /* \"#utility.yul\":15230:15233   */\n      0x00\n        /* \"#utility.yul\":15251:15318   */\n      tag_491\n        /* \"#utility.yul\":15315:15317   */\n      0x1a\n        /* \"#utility.yul\":15310:15313   */\n      dup4\n        /* \"#utility.yul\":15251:15318   */\n      tag_322\n      jump\t// in\n    tag_491:\n        /* \"#utility.yul\":15244:15318   */\n      swap2\n      pop\n        /* \"#utility.yul\":15327:15420   */\n      tag_492\n        /* \"#utility.yul\":15416:15419   */\n      dup3\n        /* \"#utility.yul\":15327:15420   */\n      tag_340\n      jump\t// in\n    tag_492:\n        /* \"#utility.yul\":15445:15447   */\n      0x20\n        /* \"#utility.yul\":15440:15443   */\n      dup3\n        /* \"#utility.yul\":15436:15448   */\n      add\n        /* \"#utility.yul\":15429:15448   */\n      swap1\n      pop\n        /* \"#utility.yul\":15088:15454   */\n      swap2\n      swap1\n      pop\n      jump\t// out\n        /* \"#utility.yul\":15460:15879   */\n    tag_275:\n        /* \"#utility.yul\":15626:15630   */\n      0x00\n        /* \"#utility.yul\":15664:15666   */\n      0x20\n        /* \"#utility.yul\":15653:15662   */\n      dup3\n        /* \"#utility.yul\":15649:15667   */\n      add\n        /* \"#utility.yul\":15641:15667   */\n      swap1\n      pop\n        /* \"#utility.yul\":15713:15722   */\n      dup2\n        /* \"#utility.yul\":15707:15711   */\n      dup2\n        /* \"#utility.yul\":15703:15723   */\n      sub\n        /* \"#utility.yul\":15699:15700   */\n      0x00\n        /* \"#utility.yul\":15688:15697   */\n      dup4\n        /* \"#utility.yul\":15684:15701   */\n      add\n        /* \"#utility.yul\":15677:15724   */\n      mstore\n        /* \"#utility.yul\":15741:15872   */\n      tag_494\n        /* \"#utility.yul\":15867:15871   */\n      dup2\n        /* \"#utility.yul\":15741:15872   */\n      tag_341\n      jump\t// in\n    tag_494:\n        /* \"#utility.yul\":15733:15872   */\n      swap1\n      pop\n        /* \"#utility.yul\":15460:15879   */\n      swap2\n      swap1\n      pop\n      jump\t// out\n        /* \"#utility.yul\":15885:16327   */\n    tag_298:\n        /* \"#utility.yul\":16034:16038   */\n      0x00\n        /* \"#utility.yul\":16072:16074   */\n      0x60\n        /* \"#utility.yul\":16061:16070   */\n      dup3\n        /* \"#utility.yul\":16057:16075   */\n      add\n        /* \"#utility.yul\":16049:16075   */\n      swap1\n      pop\n        /* \"#utility.yul\":16085:16156   */\n      tag_496\n        /* \"#utility.yul\":16153:16154   */\n      0x00\n        /* \"#utility.yul\":16142:16151   */\n      dup4\n        /* \"#utility.yul\":16138:16155   */\n      add\n        /* \"#utility.yul\":16129:16135   */\n      dup7\n        /* \"#utility.yul\":16085:16156   */\n      tag_319\n      jump\t// in\n    tag_496:\n        /* \"#utility.yul\":16166:16238   */\n      tag_497\n        /* \"#utility.yul\":16234:16236   */\n      0x20\n        /* \"#utility.yul\":16223:16232   */\n      dup4\n        /* \"#utility.yul\":16219:16237   */\n      add\n        /* \"#utility.yul\":16210:16216   */\n      dup6\n        /* \"#utility.yul\":16166:16238   */\n      tag_314\n      jump\t// in\n    tag_497:\n        /* \"#utility.yul\":16248:16320   */\n      tag_498\n        /* \"#utility.yul\":16316:16318   */\n      0x40\n        /* \"#utility.yul\":16305:16314   */\n      dup4\n        /* \"#utility.yul\":16301:16319   */\n      add\n        /* \"#utility.yul\":16292:16298   */\n      dup5\n        /* \"#utility.yul\":16248:16320   */\n      tag_314\n      jump\t// in\n    tag_498:\n        /* \"#utility.yul\":15885:16327   */\n      swap5\n      swap4\n      pop\n      pop\n      pop\n      pop\n      jump\t// out\n        /* \"#utility.yul\":16333:16510   */\n    tag_342:\n        /* \"#utility.yul\":16473:16502   */\n      0x536166654d6174683a206164646974696f6e206f766572666c6f770000000000\n        /* \"#utility.yul\":16469:16470   */\n      0x00\n        /* \"#utility.yul\":16461:16467   */\n      dup3\n        /* \"#utility.yul\":16457:16471   */\n      add\n        /* \"#utility.yul\":16450:16503   */\n      mstore\n        /* \"#utility.yul\":16333:16510   */\n      pop\n      jump\t// out\n        /* \"#utility.yul\":16516:16882   */\n    tag_343:\n        /* \"#utility.yul\":16658:16661   */\n      0x00\n        /* \"#utility.yul\":16679:16746   */\n      tag_501\n        /* \"#utility.yul\":16743:16745   */\n      0x1b\n        /* \"#utility.yul\":16738:16741   */\n      dup4\n        /* \"#utility.yul\":16679:16746   */\n      tag_322\n      jump\t// in\n    tag_501:\n        /* \"#utility.yul\":16672:16746   */\n      swap2\n      pop\n        /* \"#utility.yul\":16755:16848   */\n      tag_502\n        /* \"#utility.yul\":16844:16847   */\n      dup3\n        /* \"#utility.yul\":16755:16848   */\n      tag_342\n      jump\t// in\n    tag_502:\n        /* \"#utility.yul\":16873:16875   */\n      0x20\n        /* \"#utility.yul\":16868:16871   */\n      dup3\n        /* \"#utility.yul\":16864:16876   */\n      add\n        /* \"#utility.yul\":16857:16876   */\n      swap1\n      pop\n        /* \"#utility.yul\":16516:16882   */\n      swap2\n      swap1\n      pop\n      jump\t// out\n        /* \"#utility.yul\":16888:17307   */\n    tag_307:\n        /* \"#utility.yul\":17054:17058   */\n      0x00\n        /* \"#utility.yul\":17092:17094   */\n      0x20\n        /* \"#utility.yul\":17081:17090   */\n      dup3\n        /* \"#utility.yul\":17077:17095   */\n      add\n        /* \"#utility.yul\":17069:17095   */\n      swap1\n      pop\n        /* \"#utility.yul\":17141:17150   */\n      dup2\n        /* \"#utility.yul\":17135:17139   */\n      dup2\n        /* \"#utility.yul\":17131:17151   */\n      sub\n        /* \"#utility.yul\":17127:17128   */\n      0x00\n        /* \"#utility.yul\":17116:17125   */\n      dup4\n        /* \"#utility.yul\":17112:17129   */\n      add\n        /* \"#utility.yul\":17105:17152   */\n      mstore\n        /* \"#utility.yul\":17169:17300   */\n      tag_504\n        /* \"#utility.yul\":17295:17299   */\n      dup2\n        /* \"#utility.yul\":17169:17300   */\n      tag_343\n      jump\t// in\n    tag_504:\n        /* \"#utility.yul\":17161:17300   */\n      swap1\n      pop\n        /* \"#utility.yul\":16888:17307   */\n      swap2\n      swap1\n      pop\n      jump\t// out\n\n    auxdata: 0xa264697066735822122091e246dcdd10f415ba69b17fe769150b1aba2618215d41d9bcbf458dfb3e61d364736f6c63430008140033\n}\n",
				"bytecode": {
					"linkReferences": {},
					"object": "60806040525f6004555f60055562093a806006555f60075534801562000023575f80fd5b506040516200261d3803806200261d833981810160405281019062000049919062000200565b5f6200005a6200019460201b60201c565b9050805f806101000a81548173ffffffffffffffffffffffffffffffffffffffff021916908373ffffffffffffffffffffffffffffffffffffffff1602179055508073ffffffffffffffffffffffffffffffffffffffff165f73ffffffffffffffffffffffffffffffffffffffff167f8be0079c531659141344cd1fd0a4f28419497f9722a3daafe3b4186f6b6457e060405160405180910390a3506001600c5f8081526020019081526020015f20819055508060025f6101000a81548173ffffffffffffffffffffffffffffffffffffffff021916908373ffffffffffffffffffffffffffffffffffffffff1602179055508060085f6101000a81548173ffffffffffffffffffffffffffffffffffffffff021916908373ffffffffffffffffffffffffffffffffffffffff1602179055505062000230565b5f33905090565b5f80fd5b5f73ffffffffffffffffffffffffffffffffffffffff82169050919050565b5f620001ca826200019f565b9050919050565b620001dc81620001be565b8114620001e7575f80fd5b50565b5f81519050620001fa81620001d1565b92915050565b5f602082840312156200021857620002176200019b565b5b5f6200022784828501620001ea565b91505092915050565b6123df806200023e5f395ff3fe608060405234801561000f575f80fd5b5060043610610156575f3560e01c80638da5cb5b116100c1578063bf9befb11161007a578063bf9befb11461036e578063c53d425a1461038c578063d7fa023d146103a8578063e30081a0146103c4578063ef037b90146103e0578063f2fde38b1461041157610156565b80638da5cb5b146102d05780638f73c5ae146102ee57806392504bfa146102f85780639d76ea5814610316578063b88a802f14610334578063bbfa29901461033e57610156565b806338adb6f01161011357806338adb6f0146102205780633cc7d2c41461023e57806342623360146102485780636288af1e1461027857806369bb4dc2146102a8578063715018a6146102c657610156565b806303fce8841461015a5780630ffde47b146101765780631865c57d146101945780631d62ebd9146101b457806330188ee8146101e457806331ed0db414610202575b5f80fd5b610174600480360381019061016f9190611af9565b61042d565b005b61017e61071f565b60405161018b9190611b33565b60405180910390f35b61019c610725565b6040516101ab93929190611b4c565b60405180910390f35b6101ce60048036038101906101c99190611bdb565b6107d5565b6040516101db9190611b33565b60405180910390f35b6101ec6107ec565b6040516101f99190611b33565b60405180910390f35b61020a6107f2565b6040516102179190611b33565b60405180910390f35b6102286107fe565b6040516102359190611b33565b60405180910390f35b610246610807565b005b610262600480360381019061025d9190611bdb565b610854565b60405161026f9190611b33565b60405180910390f35b610292600480360381019061028d9190611bdb565b61089a565b60405161029f9190611b33565b60405180910390f35b6102b061093b565b6040516102bd9190611b33565b60405180910390f35b6102ce6109da565b005b6102d8610b28565b6040516102e59190611c15565b60405180910390f35b6102f6610b4f565b005b610300610c1a565b60405161030d9190611b33565b60405180910390f35b61031e610c20565b60405161032b9190611c15565b60405180910390f35b61033c610c45565b005b61035860048036038101906103539190611c2e565b610c67565b6040516103659190611c98565b60405180910390f35b610376610d8d565b6040516103839190611b33565b60405180910390f35b6103a660048036038101906103a19190611af9565b610d96565b005b6103c260048036038101906103bd9190611cb1565b610e43565b005b6103de60048036038101906103d99190611bdb565b610f6e565b005b6103fa60048036038101906103f59190611bdb565b611085565b604051610408929190611cef565b60405180910390f35b61042b60048036038101906104269190611bdb565b611131565b005b60095f3373ffffffffffffffffffffffffffffffffffffffff1673ffffffffffffffffffffffffffffffffffffffff1681526020019081526020015f20548111156104ad576040517f08c379a00000000000000000000000000000000000000000000000000000000081526004016104a490611d70565b60405180910390fd5b6104fd8160095f3373ffffffffffffffffffffffffffffffffffffffff1673ffffffffffffffffffffffffffffffffffffffff1681526020019081526020015f20546112ee90919063ffffffff16565b60095f3373ffffffffffffffffffffffffffffffffffffffff1673ffffffffffffffffffffffffffffffffffffffff1681526020019081526020015f20819055505f60095f3373ffffffffffffffffffffffffffffffffffffffff1673ffffffffffffffffffffffffffffffffffffffff1681526020019081526020015f20540361058c5761058b33611346565b5b5f600b5f3373ffffffffffffffffffffffffffffffffffffffff1673ffffffffffffffffffffffffffffffffffffffff1681526020019081526020015f205490505f600a5f3373ffffffffffffffffffffffffffffffffffffffff1673ffffffffffffffffffffffffffffffffffffffff1681526020019081526020015f20549050610623836005546112ee90919063ffffffff16565b6005819055504282826106369190611dbb565b111561067d575f61066460646106566005876114cf90919063ffffffff16565b61154690919063ffffffff16565b905061067981856112ee90919063ffffffff16565b9350505b60085f9054906101000a900473ffffffffffffffffffffffffffffffffffffffff1673ffffffffffffffffffffffffffffffffffffffff1663a9059cbb33856040518363ffffffff1660e01b81526004016106d9929190611dee565b6020604051808303815f875af11580156106f5573d5f803e3d5ffd5b505050506040513d601f19601f820116820180604052508101906107199190611e3f565b50505050565b60045481565b5f805f60038054905060085f9054906101000a900473ffffffffffffffffffffffffffffffffffffffff1673ffffffffffffffffffffffffffffffffffffffff166370a08231306040518263ffffffff1660e01b81526004016107889190611c15565b602060405180830381865afa1580156107a3573d5f803e3d5ffd5b505050506040513d601f19601f820116820180604052508101906107c79190611e7e565b600754925092509250909192565b5f806107e08361159d565b50905080915050919050565b60075481565b5f600380549050905090565b5f600554905090565b5f60095f3373ffffffffffffffffffffffffffffffffffffffff1673ffffffffffffffffffffffffffffffffffffffff1681526020019081526020015f205490506108518161042d565b50565b5f60095f8373ffffffffffffffffffffffffffffffffffffffff1673ffffffffffffffffffffffffffffffffffffffff1681526020019081526020015f20549050919050565b5f60085f9054906101000a900473ffffffffffffffffffffffffffffffffffffffff1673ffffffffffffffffffffffffffffffffffffffff166370a08231836040518263ffffffff1660e01b81526004016108f59190611c15565b602060405180830381865afa158015610910573d5f803e3d5ffd5b505050506040513d601f19601f820116820180604052508101906109349190611e7e565b9050919050565b5f60025f9054906101000a900473ffffffffffffffffffffffffffffffffffffffff1673ffffffffffffffffffffffffffffffffffffffff166370a08231306040518263ffffffff1660e01b81526004016109969190611c15565b602060405180830381865afa1580156109b1573d5f803e3d5ffd5b505050506040513d601f19601f820116820180604052508101906109d59190611e7e565b905090565b6109e261172e565b73ffffffffffffffffffffffffffffffffffffffff165f8054906101000a900473ffffffffffffffffffffffffffffffffffffffff1673ffffffffffffffffffffffffffffffffffffffff1614610a6e576040517f08c379a0000000000000000000000000000000000000000000000000000000008152600401610a6590611ef3565b60405180910390fd5b5f73ffffffffffffffffffffffffffffffffffffffff165f8054906101000a900473ffffffffffffffffffffffffffffffffffffffff1673ffffffffffffffffffffffffffffffffffffffff167f8be0079c531659141344cd1fd0a4f28419497f9722a3daafe3b4186f6b6457e060405160405180910390a35f805f6101000a81548173ffffffffffffffffffffffffffffffffffffffff021916908373ffffffffffffffffffffffffffffffffffffffff160217905550565b5f805f9054906101000a900473ffffffffffffffffffffffffffffffffffffffff16905090565b5f6003805490500315610c18576001600380549050610b6e9190611f11565b60045403610b7e575f6004819055505b5f60045490505b600380549050811015610c16575f60038281548110610ba757610ba6611f44565b5b905f5260205f20015f9054906101000a900473ffffffffffffffffffffffffffffffffffffffff1690505f610bdb8261159d565b509050826004819055505f8103610bf3575050610c03565b610bfc82611735565b5050610c16565b8080610c0e90611f71565b915050610b85565b505b565b60055481565b60025f9054906101000a900473ffffffffffffffffffffffffffffffffffffffff1681565b5f610c4f3361159d565b5090505f811115610c6457610c6333611735565b5b50565b5f80600c5f8581526020019081526020015f205410158015610d21575060085f9054906101000a900473ffffffffffffffffffffffffffffffffffffffff1673ffffffffffffffffffffffffffffffffffffffff166370a08231836040518263ffffffff1660e01b8152600401610cde9190611c15565b602060405180830381865afa158015610cf9573d5f803e3d5ffd5b505050506040513d601f19601f82011682018060405250810190610d1d9190611e7e565b8411155b8015610d6957505f60095f8473ffffffffffffffffffffffffffffffffffffffff1673ffffffffffffffffffffffffffffffffffffffff1681526020019081526020015f2054145b8015610d7457505f84115b15610d825760019050610d86565b5f90505b9392505050565b5f600554905090565b610d9e61172e565b73ffffffffffffffffffffffffffffffffffffffff165f8054906101000a900473ffffffffffffffffffffffffffffffffffffffff1673ffffffffffffffffffffffffffffffffffffffff1614610e2a576040517f08c379a0000000000000000000000000000000000000000000000000000000008152600401610e2190611ef3565b60405180910390fd5b80600c5f8081526020019081526020015f208190555050565b5f90505f610e52838333610c67565b905080610e94576040517f08c379a0000000000000000000000000000000000000000000000000000000008152600401610e8b90612002565b60405180910390fd5b60085f9054906101000a900473ffffffffffffffffffffffffffffffffffffffff1673ffffffffffffffffffffffffffffffffffffffff166323b872dd3330866040518463ffffffff1660e01b8152600401610ef293929190612020565b6020604051808303815f875af1158015610f0e573d5f803e3d5ffd5b505050506040513d601f19601f82011682018060405250810190610f329190611e3f565b5060065482610f419190612055565b9150610f4e338484611926565b610f6383600554611a6590919063ffffffff16565b600581905550505050565b610f7661172e565b73ffffffffffffffffffffffffffffffffffffffff165f8054906101000a900473ffffffffffffffffffffffffffffffffffffffff1673ffffffffffffffffffffffffffffffffffffffff1614611002576040517f08c379a0000000000000000000000000000000000000000000000000000000008152600401610ff990611ef3565b60405180910390fd5b8060085f6101000a81548173ffffffffffffffffffffffffffffffffffffffff021916908373ffffffffffffffffffffffffffffffffffffffff1602179055508060025f6101000a81548173ffffffffffffffffffffffffffffffffffffffff021916908373ffffffffffffffffffffffffffffffffffffffff16021790555050565b5f805f5b60038054905081101561112457600381815481106110aa576110a9611f44565b5b905f5260205f20015f9054906101000a900473ffffffffffffffffffffffffffffffffffffffff1673ffffffffffffffffffffffffffffffffffffffff168473ffffffffffffffffffffffffffffffffffffffff160361111157600181925092505061112c565b808061111c90611f71565b915050611089565b505f80915091505b915091565b61113961172e565b73ffffffffffffffffffffffffffffffffffffffff165f8054906101000a900473ffffffffffffffffffffffffffffffffffffffff1673ffffffffffffffffffffffffffffffffffffffff16146111c5576040517f08c379a00000000000000000000000000000000000000000000000000000000081526004016111bc90611ef3565b60405180910390fd5b5f73ffffffffffffffffffffffffffffffffffffffff168173ffffffffffffffffffffffffffffffffffffffff1603611233576040517f08c379a000000000000000000000000000000000000000000000000000000000815260040161122a90612106565b60405180910390fd5b8073ffffffffffffffffffffffffffffffffffffffff165f8054906101000a900473ffffffffffffffffffffffffffffffffffffffff1673ffffffffffffffffffffffffffffffffffffffff167f8be0079c531659141344cd1fd0a4f28419497f9722a3daafe3b4186f6b6457e060405160405180910390a3805f806101000a81548173ffffffffffffffffffffffffffffffffffffffff021916908373ffffffffffffffffffffffffffffffffffffffff16021790555050565b5f82821115611332576040517f08c379a00000000000000000000000000000000000000000000000000000000081526004016113299061216e565b60405180910390fd5b818361133e9190611f11565b905092915050565b5f8061135183611085565b9150915081156114ca576003600160038054905061136f9190611f11565b815481106113805761137f611f44565b5b905f5260205f20015f9054906101000a900473ffffffffffffffffffffffffffffffffffffffff16600382815481106113bc576113bb611f44565b5b905f5260205f20015f6101000a81548173ffffffffffffffffffffffffffffffffffffffff021916908373ffffffffffffffffffffffffffffffffffffffff16021790555060038054806114135761141261218c565b5b600190038181905f5260205f20015f6101000a81549073ffffffffffffffffffffffffffffffffffffffff021916905590555f600a5f8573ffffffffffffffffffffffffffffffffffffffff1673ffffffffffffffffffffffffffffffffffffffff1681526020019081526020015f20819055505f600b5f8573ffffffffffffffffffffffffffffffffffffffff1673ffffffffffffffffffffffffffffffffffffffff1681526020019081526020015f20819055505b505050565b5f8083036114df575f9050611540565b5f82846114ec9190612055565b90508284826114fb91906121e6565b1461153b576040517f08c379a000000000000000000000000000000000000000000000000000000000815260040161153290612286565b60405180910390fd5b809150505b92915050565b5f808211611589576040517f08c379a0000000000000000000000000000000000000000000000000000000008152600401611580906122ee565b60405180910390fd5b818361159591906121e6565b905092915050565b5f805f60095f8573ffffffffffffffffffffffffffffffffffffffff1673ffffffffffffffffffffffffffffffffffffffff1681526020019081526020015f205490505f81036115f3575f809250925050611729565b5f600a5f8673ffffffffffffffffffffffffffffffffffffffff1673ffffffffffffffffffffffffffffffffffffffff1681526020019081526020015f205490505f8103611648575f80935093505050611729565b5f4290505f61166083836112ee90919063ffffffff16565b90505f600b5f8973ffffffffffffffffffffffffffffffffffffffff1673ffffffffffffffffffffffffffffffffffffffff1681526020019081526020015f20549050808210156116bb575f80965096505050505050611729565b5f81836116c891906121e6565b90505f600c5f8481526020019081526020015f205490505f611718606461170a856116fc868d6114cf90919063ffffffff16565b6114cf90919063ffffffff16565b61154690919063ffffffff16565b905080839950995050505050505050505b915091565b5f33905090565b5f806117408361159d565b915091505f8203611752575050611923565b5f600b5f8573ffffffffffffffffffffffffffffffffffffffff1673ffffffffffffffffffffffffffffffffffffffff1681526020019081526020015f205490506117ee82826117a29190612055565b600a5f8773ffffffffffffffffffffffffffffffffffffffff1673ffffffffffffffffffffffffffffffffffffffff1681526020019081526020015f2054611a6590919063ffffffff16565b600a5f8673ffffffffffffffffffffffffffffffffffffffff1673ffffffffffffffffffffffffffffffffffffffff1681526020019081526020015f208190555060085f9054906101000a900473ffffffffffffffffffffffffffffffffffffffff1673ffffffffffffffffffffffffffffffffffffffff1663a9059cbb33856040518363ffffffff1660e01b815260040161188b929190611dee565b6020604051808303815f875af11580156118a7573d5f803e3d5ffd5b505050506040513d601f19601f820116820180604052508101906118cb9190611e3f565b508260075f8282546118dd9190611dbb565b925050819055507f6379339f0ae63e95e65fad18ca2a7ec4e7e3f05f3cc5f7079f4d8da8cec34faa8484426040516119179392919061230c565b60405180910390a15050505b50565b5f61193084611085565b5090508061199957600384908060018154018082558091505060019003905f5260205f20015f9091909190916101000a81548173ffffffffffffffffffffffffffffffffffffffff021916908373ffffffffffffffffffffffffffffffffffffffff1602179055505b42600a5f8673ffffffffffffffffffffffffffffffffffffffff1673ffffffffffffffffffffffffffffffffffffffff1681526020019081526020015f208190555081600b5f8673ffffffffffffffffffffffffffffffffffffffff1673ffffffffffffffffffffffffffffffffffffffff1681526020019081526020015f20819055508260095f8673ffffffffffffffffffffffffffffffffffffffff1673ffffffffffffffffffffffffffffffffffffffff1681526020019081526020015f208190555050505050565b5f808284611a739190611dbb565b905083811015611ab8576040517f08c379a0000000000000000000000000000000000000000000000000000000008152600401611aaf9061238b565b60405180910390fd5b8091505092915050565b5f80fd5b5f819050919050565b611ad881611ac6565b8114611ae2575f80fd5b50565b5f81359050611af381611acf565b92915050565b5f60208284031215611b0e57611b0d611ac2565b5b5f611b1b84828501611ae5565b91505092915050565b611b2d81611ac6565b82525050565b5f602082019050611b465f830184611b24565b92915050565b5f606082019050611b5f5f830186611b24565b611b6c6020830185611b24565b611b796040830184611b24565b949350505050565b5f73ffffffffffffffffffffffffffffffffffffffff82169050919050565b5f611baa82611b81565b9050919050565b611bba81611ba0565b8114611bc4575f80fd5b50565b5f81359050611bd581611bb1565b92915050565b5f60208284031215611bf057611bef611ac2565b5b5f611bfd84828501611bc7565b91505092915050565b611c0f81611ba0565b82525050565b5f602082019050611c285f830184611c06565b92915050565b5f805f60608486031215611c4557611c44611ac2565b5b5f611c5286828701611ae5565b9350506020611c6386828701611ae5565b9250506040611c7486828701611bc7565b9150509250925092565b5f8115159050919050565b611c9281611c7e565b82525050565b5f602082019050611cab5f830184611c89565b92915050565b5f8060408385031215611cc757611cc6611ac2565b5b5f611cd485828601611ae5565b9250506020611ce585828601611ae5565b9150509250929050565b5f604082019050611d025f830185611c89565b611d0f6020830184611b24565b9392505050565b5f82825260208201905092915050565b7f457863656564696e67207374616b6520616d6f756e74000000000000000000005f82015250565b5f611d5a601683611d16565b9150611d6582611d26565b602082019050919050565b5f6020820190508181035f830152611d8781611d4e565b9050919050565b7f4e487b71000000000000000000000000000000000000000000000000000000005f52601160045260245ffd5b5f611dc582611ac6565b9150611dd083611ac6565b9250828201905080821115611de857611de7611d8e565b5b92915050565b5f604082019050611e015f830185611c06565b611e0e6020830184611b24565b9392505050565b611e1e81611c7e565b8114611e28575f80fd5b50565b5f81519050611e3981611e15565b92915050565b5f60208284031215611e5457611e53611ac2565b5b5f611e6184828501611e2b565b91505092915050565b5f81519050611e7881611acf565b92915050565b5f60208284031215611e9357611e92611ac2565b5b5f611ea084828501611e6a565b91505092915050565b7f4f776e61626c653a2063616c6c6572206973206e6f7420746865206f776e65725f82015250565b5f611edd602083611d16565b9150611ee882611ea9565b602082019050919050565b5f6020820190508181035f830152611f0a81611ed1565b9050919050565b5f611f1b82611ac6565b9150611f2683611ac6565b9250828203905081811115611f3e57611f3d611d8e565b5b92915050565b7f4e487b71000000000000000000000000000000000000000000000000000000005f52603260045260245ffd5b5f611f7b82611ac6565b91507fffffffffffffffffffffffffffffffffffffffffffffffffffffffffffffffff8203611fad57611fac611d8e565b5b600182019050919050565b7f43616e6e6f74205374616b6500000000000000000000000000000000000000005f82015250565b5f611fec600c83611d16565b9150611ff782611fb8565b602082019050919050565b5f6020820190508181035f83015261201981611fe0565b9050919050565b5f6060820190506120335f830186611c06565b6120406020830185611c06565b61204d6040830184611b24565b949350505050565b5f61205f82611ac6565b915061206a83611ac6565b925082820261207881611ac6565b9150828204841483151761208f5761208e611d8e565b5b5092915050565b7f4f776e61626c653a206e6577206f776e657220697320746865207a65726f20615f8201527f6464726573730000000000000000000000000000000000000000000000000000602082015250565b5f6120f0602683611d16565b91506120fb82612096565b604082019050919050565b5f6020820190508181035f83015261211d816120e4565b9050919050565b7f536166654d6174683a207375627472616374696f6e206f766572666c6f7700005f82015250565b5f612158601e83611d16565b915061216382612124565b602082019050919050565b5f6020820190508181035f8301526121858161214c565b9050919050565b7f4e487b71000000000000000000000000000000000000000000000000000000005f52603160045260245ffd5b7f4e487b71000000000000000000000000000000000000000000000000000000005f52601260045260245ffd5b5f6121f082611ac6565b91506121fb83611ac6565b92508261220b5761220a6121b9565b5b828204905092915050565b7f536166654d6174683a206d756c7469706c69636174696f6e206f766572666c6f5f8201527f7700000000000000000000000000000000000000000000000000000000000000602082015250565b5f612270602183611d16565b915061227b82612216565b604082019050919050565b5f6020820190508181035f83015261229d81612264565b9050919050565b7f536166654d6174683a206469766973696f6e206279207a65726f0000000000005f82015250565b5f6122d8601a83611d16565b91506122e3826122a4565b602082019050919050565b5f6020820190508181035f830152612305816122cc565b9050919050565b5f60608201905061231f5f830186611c06565b61232c6020830185611b24565b6123396040830184611b24565b949350505050565b7f536166654d6174683a206164646974696f6e206f766572666c6f7700000000005f82015250565b5f612375601b83611d16565b915061238082612341565b602082019050919050565b5f6020820190508181035f8301526123a281612369565b905091905056fea264697066735822122091e246dcdd10f415ba69b17fe769150b1aba2618215d41d9bcbf458dfb3e61d364736f6c63430008140033",
					"opcodes": "PUSH1 0x80 PUSH1 0x40 MSTORE PUSH0 PUSH1 0x4 SSTORE PUSH0 PUSH1 0x5 SSTORE PUSH3 0x93A80 PUSH1 0x6 SSTORE PUSH0 PUSH1 0x7 SSTORE CALLVALUE DUP1 ISZERO PUSH3 0x23 JUMPI PUSH0 DUP1 REVERT JUMPDEST POP PUSH1 0x40 MLOAD PUSH3 0x261D CODESIZE SUB DUP1 PUSH3 0x261D DUP4 CODECOPY DUP2 DUP2 ADD PUSH1 0x40 MSTORE DUP2 ADD SWAP1 PUSH3 0x49 SWAP2 SWAP1 PUSH3 0x200 JUMP JUMPDEST PUSH0 PUSH3 0x5A PUSH3 0x194 PUSH1 0x20 SHL PUSH1 0x20 SHR JUMP JUMPDEST SWAP1 POP DUP1 PUSH0 DUP1 PUSH2 0x100 EXP DUP2 SLOAD DUP2 PUSH20 0xFFFFFFFFFFFFFFFFFFFFFFFFFFFFFFFFFFFFFFFF MUL NOT AND SWAP1 DUP4 PUSH20 0xFFFFFFFFFFFFFFFFFFFFFFFFFFFFFFFFFFFFFFFF AND MUL OR SWAP1 SSTORE POP DUP1 PUSH20 0xFFFFFFFFFFFFFFFFFFFFFFFFFFFFFFFFFFFFFFFF AND PUSH0 PUSH20 0xFFFFFFFFFFFFFFFFFFFFFFFFFFFFFFFFFFFFFFFF AND PUSH32 0x8BE0079C531659141344CD1FD0A4F28419497F9722A3DAAFE3B4186F6B6457E0 PUSH1 0x40 MLOAD PUSH1 0x40 MLOAD DUP1 SWAP2 SUB SWAP1 LOG3 POP PUSH1 0x1 PUSH1 0xC PUSH0 DUP1 DUP2 MSTORE PUSH1 0x20 ADD SWAP1 DUP2 MSTORE PUSH1 0x20 ADD PUSH0 KECCAK256 DUP2 SWAP1 SSTORE POP DUP1 PUSH1 0x2 PUSH0 PUSH2 0x100 EXP DUP2 SLOAD DUP2 PUSH20 0xFFFFFFFFFFFFFFFFFFFFFFFFFFFFFFFFFFFFFFFF MUL NOT AND SWAP1 DUP4 PUSH20 0xFFFFFFFFFFFFFFFFFFFFFFFFFFFFFFFFFFFFFFFF AND MUL OR SWAP1 SSTORE POP DUP1 PUSH1 0x8 PUSH0 PUSH2 0x100 EXP DUP2 SLOAD DUP2 PUSH20 0xFFFFFFFFFFFFFFFFFFFFFFFFFFFFFFFFFFFFFFFF MUL NOT AND SWAP1 DUP4 PUSH20 0xFFFFFFFFFFFFFFFFFFFFFFFFFFFFFFFFFFFFFFFF AND MUL OR SWAP1 SSTORE POP POP PUSH3 0x230 JUMP JUMPDEST PUSH0 CALLER SWAP1 POP SWAP1 JUMP JUMPDEST PUSH0 DUP1 REVERT JUMPDEST PUSH0 PUSH20 0xFFFFFFFFFFFFFFFFFFFFFFFFFFFFFFFFFFFFFFFF DUP3 AND SWAP1 POP SWAP2 SWAP1 POP JUMP JUMPDEST PUSH0 PUSH3 0x1CA DUP3 PUSH3 0x19F JUMP JUMPDEST SWAP1 POP SWAP2 SWAP1 POP JUMP JUMPDEST PUSH3 0x1DC DUP2 PUSH3 0x1BE JUMP JUMPDEST DUP2 EQ PUSH3 0x1E7 JUMPI PUSH0 DUP1 REVERT JUMPDEST POP JUMP JUMPDEST PUSH0 DUP2 MLOAD SWAP1 POP PUSH3 0x1FA DUP2 PUSH3 0x1D1 JUMP JUMPDEST SWAP3 SWAP2 POP POP JUMP JUMPDEST PUSH0 PUSH1 0x20 DUP3 DUP5 SUB SLT ISZERO PUSH3 0x218 JUMPI PUSH3 0x217 PUSH3 0x19B JUMP JUMPDEST JUMPDEST PUSH0 PUSH3 0x227 DUP5 DUP3 DUP6 ADD PUSH3 0x1EA JUMP JUMPDEST SWAP2 POP POP SWAP3 SWAP2 POP POP JUMP JUMPDEST PUSH2 0x23DF DUP1 PUSH3 0x23E PUSH0 CODECOPY PUSH0 RETURN INVALID PUSH1 0x80 PUSH1 0x40 MSTORE CALLVALUE DUP1 ISZERO PUSH2 0xF JUMPI PUSH0 DUP1 REVERT JUMPDEST POP PUSH1 0x4 CALLDATASIZE LT PUSH2 0x156 JUMPI PUSH0 CALLDATALOAD PUSH1 0xE0 SHR DUP1 PUSH4 0x8DA5CB5B GT PUSH2 0xC1 JUMPI DUP1 PUSH4 0xBF9BEFB1 GT PUSH2 0x7A JUMPI DUP1 PUSH4 0xBF9BEFB1 EQ PUSH2 0x36E JUMPI DUP1 PUSH4 0xC53D425A EQ PUSH2 0x38C JUMPI DUP1 PUSH4 0xD7FA023D EQ PUSH2 0x3A8 JUMPI DUP1 PUSH4 0xE30081A0 EQ PUSH2 0x3C4 JUMPI DUP1 PUSH4 0xEF037B90 EQ PUSH2 0x3E0 JUMPI DUP1 PUSH4 0xF2FDE38B EQ PUSH2 0x411 JUMPI PUSH2 0x156 JUMP JUMPDEST DUP1 PUSH4 0x8DA5CB5B EQ PUSH2 0x2D0 JUMPI DUP1 PUSH4 0x8F73C5AE EQ PUSH2 0x2EE JUMPI DUP1 PUSH4 0x92504BFA EQ PUSH2 0x2F8 JUMPI DUP1 PUSH4 0x9D76EA58 EQ PUSH2 0x316 JUMPI DUP1 PUSH4 0xB88A802F EQ PUSH2 0x334 JUMPI DUP1 PUSH4 0xBBFA2990 EQ PUSH2 0x33E JUMPI PUSH2 0x156 JUMP JUMPDEST DUP1 PUSH4 0x38ADB6F0 GT PUSH2 0x113 JUMPI DUP1 PUSH4 0x38ADB6F0 EQ PUSH2 0x220 JUMPI DUP1 PUSH4 0x3CC7D2C4 EQ PUSH2 0x23E JUMPI DUP1 PUSH4 0x42623360 EQ PUSH2 0x248 JUMPI DUP1 PUSH4 0x6288AF1E EQ PUSH2 0x278 JUMPI DUP1 PUSH4 0x69BB4DC2 EQ PUSH2 0x2A8 JUMPI DUP1 PUSH4 0x715018A6 EQ PUSH2 0x2C6 JUMPI PUSH2 0x156 JUMP JUMPDEST DUP1 PUSH4 0x3FCE884 EQ PUSH2 0x15A JUMPI DUP1 PUSH4 0xFFDE47B EQ PUSH2 0x176 JUMPI DUP1 PUSH4 0x1865C57D EQ PUSH2 0x194 JUMPI DUP1 PUSH4 0x1D62EBD9 EQ PUSH2 0x1B4 JUMPI DUP1 PUSH4 0x30188EE8 EQ PUSH2 0x1E4 JUMPI DUP1 PUSH4 0x31ED0DB4 EQ PUSH2 0x202 JUMPI JUMPDEST PUSH0 DUP1 REVERT JUMPDEST PUSH2 0x174 PUSH1 0x4 DUP1 CALLDATASIZE SUB DUP2 ADD SWAP1 PUSH2 0x16F SWAP2 SWAP1 PUSH2 0x1AF9 JUMP JUMPDEST PUSH2 0x42D JUMP JUMPDEST STOP JUMPDEST PUSH2 0x17E PUSH2 0x71F JUMP JUMPDEST PUSH1 0x40 MLOAD PUSH2 0x18B SWAP2 SWAP1 PUSH2 0x1B33 JUMP JUMPDEST PUSH1 0x40 MLOAD DUP1 SWAP2 SUB SWAP1 RETURN JUMPDEST PUSH2 0x19C PUSH2 0x725 JUMP JUMPDEST PUSH1 0x40 MLOAD PUSH2 0x1AB SWAP4 SWAP3 SWAP2 SWAP1 PUSH2 0x1B4C JUMP JUMPDEST PUSH1 0x40 MLOAD DUP1 SWAP2 SUB SWAP1 RETURN JUMPDEST PUSH2 0x1CE PUSH1 0x4 DUP1 CALLDATASIZE SUB DUP2 ADD SWAP1 PUSH2 0x1C9 SWAP2 SWAP1 PUSH2 0x1BDB JUMP JUMPDEST PUSH2 0x7D5 JUMP JUMPDEST PUSH1 0x40 MLOAD PUSH2 0x1DB SWAP2 SWAP1 PUSH2 0x1B33 JUMP JUMPDEST PUSH1 0x40 MLOAD DUP1 SWAP2 SUB SWAP1 RETURN JUMPDEST PUSH2 0x1EC PUSH2 0x7EC JUMP JUMPDEST PUSH1 0x40 MLOAD PUSH2 0x1F9 SWAP2 SWAP1 PUSH2 0x1B33 JUMP JUMPDEST PUSH1 0x40 MLOAD DUP1 SWAP2 SUB SWAP1 RETURN JUMPDEST PUSH2 0x20A PUSH2 0x7F2 JUMP JUMPDEST PUSH1 0x40 MLOAD PUSH2 0x217 SWAP2 SWAP1 PUSH2 0x1B33 JUMP JUMPDEST PUSH1 0x40 MLOAD DUP1 SWAP2 SUB SWAP1 RETURN JUMPDEST PUSH2 0x228 PUSH2 0x7FE JUMP JUMPDEST PUSH1 0x40 MLOAD PUSH2 0x235 SWAP2 SWAP1 PUSH2 0x1B33 JUMP JUMPDEST PUSH1 0x40 MLOAD DUP1 SWAP2 SUB SWAP1 RETURN JUMPDEST PUSH2 0x246 PUSH2 0x807 JUMP JUMPDEST STOP JUMPDEST PUSH2 0x262 PUSH1 0x4 DUP1 CALLDATASIZE SUB DUP2 ADD SWAP1 PUSH2 0x25D SWAP2 SWAP1 PUSH2 0x1BDB JUMP JUMPDEST PUSH2 0x854 JUMP JUMPDEST PUSH1 0x40 MLOAD PUSH2 0x26F SWAP2 SWAP1 PUSH2 0x1B33 JUMP JUMPDEST PUSH1 0x40 MLOAD DUP1 SWAP2 SUB SWAP1 RETURN JUMPDEST PUSH2 0x292 PUSH1 0x4 DUP1 CALLDATASIZE SUB DUP2 ADD SWAP1 PUSH2 0x28D SWAP2 SWAP1 PUSH2 0x1BDB JUMP JUMPDEST PUSH2 0x89A JUMP JUMPDEST PUSH1 0x40 MLOAD PUSH2 0x29F SWAP2 SWAP1 PUSH2 0x1B33 JUMP JUMPDEST PUSH1 0x40 MLOAD DUP1 SWAP2 SUB SWAP1 RETURN JUMPDEST PUSH2 0x2B0 PUSH2 0x93B JUMP JUMPDEST PUSH1 0x40 MLOAD PUSH2 0x2BD SWAP2 SWAP1 PUSH2 0x1B33 JUMP JUMPDEST PUSH1 0x40 MLOAD DUP1 SWAP2 SUB SWAP1 RETURN JUMPDEST PUSH2 0x2CE PUSH2 0x9DA JUMP JUMPDEST STOP JUMPDEST PUSH2 0x2D8 PUSH2 0xB28 JUMP JUMPDEST PUSH1 0x40 MLOAD PUSH2 0x2E5 SWAP2 SWAP1 PUSH2 0x1C15 JUMP JUMPDEST PUSH1 0x40 MLOAD DUP1 SWAP2 SUB SWAP1 RETURN JUMPDEST PUSH2 0x2F6 PUSH2 0xB4F JUMP JUMPDEST STOP JUMPDEST PUSH2 0x300 PUSH2 0xC1A JUMP JUMPDEST PUSH1 0x40 MLOAD PUSH2 0x30D SWAP2 SWAP1 PUSH2 0x1B33 JUMP JUMPDEST PUSH1 0x40 MLOAD DUP1 SWAP2 SUB SWAP1 RETURN JUMPDEST PUSH2 0x31E PUSH2 0xC20 JUMP JUMPDEST PUSH1 0x40 MLOAD PUSH2 0x32B SWAP2 SWAP1 PUSH2 0x1C15 JUMP JUMPDEST PUSH1 0x40 MLOAD DUP1 SWAP2 SUB SWAP1 RETURN JUMPDEST PUSH2 0x33C PUSH2 0xC45 JUMP JUMPDEST STOP JUMPDEST PUSH2 0x358 PUSH1 0x4 DUP1 CALLDATASIZE SUB DUP2 ADD SWAP1 PUSH2 0x353 SWAP2 SWAP1 PUSH2 0x1C2E JUMP JUMPDEST PUSH2 0xC67 JUMP JUMPDEST PUSH1 0x40 MLOAD PUSH2 0x365 SWAP2 SWAP1 PUSH2 0x1C98 JUMP JUMPDEST PUSH1 0x40 MLOAD DUP1 SWAP2 SUB SWAP1 RETURN JUMPDEST PUSH2 0x376 PUSH2 0xD8D JUMP JUMPDEST PUSH1 0x40 MLOAD PUSH2 0x383 SWAP2 SWAP1 PUSH2 0x1B33 JUMP JUMPDEST PUSH1 0x40 MLOAD DUP1 SWAP2 SUB SWAP1 RETURN JUMPDEST PUSH2 0x3A6 PUSH1 0x4 DUP1 CALLDATASIZE SUB DUP2 ADD SWAP1 PUSH2 0x3A1 SWAP2 SWAP1 PUSH2 0x1AF9 JUMP JUMPDEST PUSH2 0xD96 JUMP JUMPDEST STOP JUMPDEST PUSH2 0x3C2 PUSH1 0x4 DUP1 CALLDATASIZE SUB DUP2 ADD SWAP1 PUSH2 0x3BD SWAP2 SWAP1 PUSH2 0x1CB1 JUMP JUMPDEST PUSH2 0xE43 JUMP JUMPDEST STOP JUMPDEST PUSH2 0x3DE PUSH1 0x4 DUP1 CALLDATASIZE SUB DUP2 ADD SWAP1 PUSH2 0x3D9 SWAP2 SWAP1 PUSH2 0x1BDB JUMP JUMPDEST PUSH2 0xF6E JUMP JUMPDEST STOP JUMPDEST PUSH2 0x3FA PUSH1 0x4 DUP1 CALLDATASIZE SUB DUP2 ADD SWAP1 PUSH2 0x3F5 SWAP2 SWAP1 PUSH2 0x1BDB JUMP JUMPDEST PUSH2 0x1085 JUMP JUMPDEST PUSH1 0x40 MLOAD PUSH2 0x408 SWAP3 SWAP2 SWAP1 PUSH2 0x1CEF JUMP JUMPDEST PUSH1 0x40 MLOAD DUP1 SWAP2 SUB SWAP1 RETURN JUMPDEST PUSH2 0x42B PUSH1 0x4 DUP1 CALLDATASIZE SUB DUP2 ADD SWAP1 PUSH2 0x426 SWAP2 SWAP1 PUSH2 0x1BDB JUMP JUMPDEST PUSH2 0x1131 JUMP JUMPDEST STOP JUMPDEST PUSH1 0x9 PUSH0 CALLER PUSH20 0xFFFFFFFFFFFFFFFFFFFFFFFFFFFFFFFFFFFFFFFF AND PUSH20 0xFFFFFFFFFFFFFFFFFFFFFFFFFFFFFFFFFFFFFFFF AND DUP2 MSTORE PUSH1 0x20 ADD SWAP1 DUP2 MSTORE PUSH1 0x20 ADD PUSH0 KECCAK256 SLOAD DUP2 GT ISZERO PUSH2 0x4AD JUMPI PUSH1 0x40 MLOAD PUSH32 0x8C379A000000000000000000000000000000000000000000000000000000000 DUP2 MSTORE PUSH1 0x4 ADD PUSH2 0x4A4 SWAP1 PUSH2 0x1D70 JUMP JUMPDEST PUSH1 0x40 MLOAD DUP1 SWAP2 SUB SWAP1 REVERT JUMPDEST PUSH2 0x4FD DUP2 PUSH1 0x9 PUSH0 CALLER PUSH20 0xFFFFFFFFFFFFFFFFFFFFFFFFFFFFFFFFFFFFFFFF AND PUSH20 0xFFFFFFFFFFFFFFFFFFFFFFFFFFFFFFFFFFFFFFFF AND DUP2 MSTORE PUSH1 0x20 ADD SWAP1 DUP2 MSTORE PUSH1 0x20 ADD PUSH0 KECCAK256 SLOAD PUSH2 0x12EE SWAP1 SWAP2 SWAP1 PUSH4 0xFFFFFFFF AND JUMP JUMPDEST PUSH1 0x9 PUSH0 CALLER PUSH20 0xFFFFFFFFFFFFFFFFFFFFFFFFFFFFFFFFFFFFFFFF AND PUSH20 0xFFFFFFFFFFFFFFFFFFFFFFFFFFFFFFFFFFFFFFFF AND DUP2 MSTORE PUSH1 0x20 ADD SWAP1 DUP2 MSTORE PUSH1 0x20 ADD PUSH0 KECCAK256 DUP2 SWAP1 SSTORE POP PUSH0 PUSH1 0x9 PUSH0 CALLER PUSH20 0xFFFFFFFFFFFFFFFFFFFFFFFFFFFFFFFFFFFFFFFF AND PUSH20 0xFFFFFFFFFFFFFFFFFFFFFFFFFFFFFFFFFFFFFFFF AND DUP2 MSTORE PUSH1 0x20 ADD SWAP1 DUP2 MSTORE PUSH1 0x20 ADD PUSH0 KECCAK256 SLOAD SUB PUSH2 0x58C JUMPI PUSH2 0x58B CALLER PUSH2 0x1346 JUMP JUMPDEST JUMPDEST PUSH0 PUSH1 0xB PUSH0 CALLER PUSH20 0xFFFFFFFFFFFFFFFFFFFFFFFFFFFFFFFFFFFFFFFF AND PUSH20 0xFFFFFFFFFFFFFFFFFFFFFFFFFFFFFFFFFFFFFFFF AND DUP2 MSTORE PUSH1 0x20 ADD SWAP1 DUP2 MSTORE PUSH1 0x20 ADD PUSH0 KECCAK256 SLOAD SWAP1 POP PUSH0 PUSH1 0xA PUSH0 CALLER PUSH20 0xFFFFFFFFFFFFFFFFFFFFFFFFFFFFFFFFFFFFFFFF AND PUSH20 0xFFFFFFFFFFFFFFFFFFFFFFFFFFFFFFFFFFFFFFFF AND DUP2 MSTORE PUSH1 0x20 ADD SWAP1 DUP2 MSTORE PUSH1 0x20 ADD PUSH0 KECCAK256 SLOAD SWAP1 POP PUSH2 0x623 DUP4 PUSH1 0x5 SLOAD PUSH2 0x12EE SWAP1 SWAP2 SWAP1 PUSH4 0xFFFFFFFF AND JUMP JUMPDEST PUSH1 0x5 DUP2 SWAP1 SSTORE POP TIMESTAMP DUP3 DUP3 PUSH2 0x636 SWAP2 SWAP1 PUSH2 0x1DBB JUMP JUMPDEST GT ISZERO PUSH2 0x67D JUMPI PUSH0 PUSH2 0x664 PUSH1 0x64 PUSH2 0x656 PUSH1 0x5 DUP8 PUSH2 0x14CF SWAP1 SWAP2 SWAP1 PUSH4 0xFFFFFFFF AND JUMP JUMPDEST PUSH2 0x1546 SWAP1 SWAP2 SWAP1 PUSH4 0xFFFFFFFF AND JUMP JUMPDEST SWAP1 POP PUSH2 0x679 DUP2 DUP6 PUSH2 0x12EE SWAP1 SWAP2 SWAP1 PUSH4 0xFFFFFFFF AND JUMP JUMPDEST SWAP4 POP POP JUMPDEST PUSH1 0x8 PUSH0 SWAP1 SLOAD SWAP1 PUSH2 0x100 EXP SWAP1 DIV PUSH20 0xFFFFFFFFFFFFFFFFFFFFFFFFFFFFFFFFFFFFFFFF AND PUSH20 0xFFFFFFFFFFFFFFFFFFFFFFFFFFFFFFFFFFFFFFFF AND PUSH4 0xA9059CBB CALLER DUP6 PUSH1 0x40 MLOAD DUP4 PUSH4 0xFFFFFFFF AND PUSH1 0xE0 SHL DUP2 MSTORE PUSH1 0x4 ADD PUSH2 0x6D9 SWAP3 SWAP2 SWAP1 PUSH2 0x1DEE JUMP JUMPDEST PUSH1 0x20 PUSH1 0x40 MLOAD DUP1 DUP4 SUB DUP2 PUSH0 DUP8 GAS CALL ISZERO DUP1 ISZERO PUSH2 0x6F5 JUMPI RETURNDATASIZE PUSH0 DUP1 RETURNDATACOPY RETURNDATASIZE PUSH0 REVERT JUMPDEST POP POP POP POP PUSH1 0x40 MLOAD RETURNDATASIZE PUSH1 0x1F NOT PUSH1 0x1F DUP3 ADD AND DUP3 ADD DUP1 PUSH1 0x40 MSTORE POP DUP2 ADD SWAP1 PUSH2 0x719 SWAP2 SWAP1 PUSH2 0x1E3F JUMP JUMPDEST POP POP POP POP JUMP JUMPDEST PUSH1 0x4 SLOAD DUP2 JUMP JUMPDEST PUSH0 DUP1 PUSH0 PUSH1 0x3 DUP1 SLOAD SWAP1 POP PUSH1 0x8 PUSH0 SWAP1 SLOAD SWAP1 PUSH2 0x100 EXP SWAP1 DIV PUSH20 0xFFFFFFFFFFFFFFFFFFFFFFFFFFFFFFFFFFFFFFFF AND PUSH20 0xFFFFFFFFFFFFFFFFFFFFFFFFFFFFFFFFFFFFFFFF AND PUSH4 0x70A08231 ADDRESS PUSH1 0x40 MLOAD DUP3 PUSH4 0xFFFFFFFF AND PUSH1 0xE0 SHL DUP2 MSTORE PUSH1 0x4 ADD PUSH2 0x788 SWAP2 SWAP1 PUSH2 0x1C15 JUMP JUMPDEST PUSH1 0x20 PUSH1 0x40 MLOAD DUP1 DUP4 SUB DUP2 DUP7 GAS STATICCALL ISZERO DUP1 ISZERO PUSH2 0x7A3 JUMPI RETURNDATASIZE PUSH0 DUP1 RETURNDATACOPY RETURNDATASIZE PUSH0 REVERT JUMPDEST POP POP POP POP PUSH1 0x40 MLOAD RETURNDATASIZE PUSH1 0x1F NOT PUSH1 0x1F DUP3 ADD AND DUP3 ADD DUP1 PUSH1 0x40 MSTORE POP DUP2 ADD SWAP1 PUSH2 0x7C7 SWAP2 SWAP1 PUSH2 0x1E7E JUMP JUMPDEST PUSH1 0x7 SLOAD SWAP3 POP SWAP3 POP SWAP3 POP SWAP1 SWAP2 SWAP3 JUMP JUMPDEST PUSH0 DUP1 PUSH2 0x7E0 DUP4 PUSH2 0x159D JUMP JUMPDEST POP SWAP1 POP DUP1 SWAP2 POP POP SWAP2 SWAP1 POP JUMP JUMPDEST PUSH1 0x7 SLOAD DUP2 JUMP JUMPDEST PUSH0 PUSH1 0x3 DUP1 SLOAD SWAP1 POP SWAP1 POP SWAP1 JUMP JUMPDEST PUSH0 PUSH1 0x5 SLOAD SWAP1 POP SWAP1 JUMP JUMPDEST PUSH0 PUSH1 0x9 PUSH0 CALLER PUSH20 0xFFFFFFFFFFFFFFFFFFFFFFFFFFFFFFFFFFFFFFFF AND PUSH20 0xFFFFFFFFFFFFFFFFFFFFFFFFFFFFFFFFFFFFFFFF AND DUP2 MSTORE PUSH1 0x20 ADD SWAP1 DUP2 MSTORE PUSH1 0x20 ADD PUSH0 KECCAK256 SLOAD SWAP1 POP PUSH2 0x851 DUP2 PUSH2 0x42D JUMP JUMPDEST POP JUMP JUMPDEST PUSH0 PUSH1 0x9 PUSH0 DUP4 PUSH20 0xFFFFFFFFFFFFFFFFFFFFFFFFFFFFFFFFFFFFFFFF AND PUSH20 0xFFFFFFFFFFFFFFFFFFFFFFFFFFFFFFFFFFFFFFFF AND DUP2 MSTORE PUSH1 0x20 ADD SWAP1 DUP2 MSTORE PUSH1 0x20 ADD PUSH0 KECCAK256 SLOAD SWAP1 POP SWAP2 SWAP1 POP JUMP JUMPDEST PUSH0 PUSH1 0x8 PUSH0 SWAP1 SLOAD SWAP1 PUSH2 0x100 EXP SWAP1 DIV PUSH20 0xFFFFFFFFFFFFFFFFFFFFFFFFFFFFFFFFFFFFFFFF AND PUSH20 0xFFFFFFFFFFFFFFFFFFFFFFFFFFFFFFFFFFFFFFFF AND PUSH4 0x70A08231 DUP4 PUSH1 0x40 MLOAD DUP3 PUSH4 0xFFFFFFFF AND PUSH1 0xE0 SHL DUP2 MSTORE PUSH1 0x4 ADD PUSH2 0x8F5 SWAP2 SWAP1 PUSH2 0x1C15 JUMP JUMPDEST PUSH1 0x20 PUSH1 0x40 MLOAD DUP1 DUP4 SUB DUP2 DUP7 GAS STATICCALL ISZERO DUP1 ISZERO PUSH2 0x910 JUMPI RETURNDATASIZE PUSH0 DUP1 RETURNDATACOPY RETURNDATASIZE PUSH0 REVERT JUMPDEST POP POP POP POP PUSH1 0x40 MLOAD RETURNDATASIZE PUSH1 0x1F NOT PUSH1 0x1F DUP3 ADD AND DUP3 ADD DUP1 PUSH1 0x40 MSTORE POP DUP2 ADD SWAP1 PUSH2 0x934 SWAP2 SWAP1 PUSH2 0x1E7E JUMP JUMPDEST SWAP1 POP SWAP2 SWAP1 POP JUMP JUMPDEST PUSH0 PUSH1 0x2 PUSH0 SWAP1 SLOAD SWAP1 PUSH2 0x100 EXP SWAP1 DIV PUSH20 0xFFFFFFFFFFFFFFFFFFFFFFFFFFFFFFFFFFFFFFFF AND PUSH20 0xFFFFFFFFFFFFFFFFFFFFFFFFFFFFFFFFFFFFFFFF AND PUSH4 0x70A08231 ADDRESS PUSH1 0x40 MLOAD DUP3 PUSH4 0xFFFFFFFF AND PUSH1 0xE0 SHL DUP2 MSTORE PUSH1 0x4 ADD PUSH2 0x996 SWAP2 SWAP1 PUSH2 0x1C15 JUMP JUMPDEST PUSH1 0x20 PUSH1 0x40 MLOAD DUP1 DUP4 SUB DUP2 DUP7 GAS STATICCALL ISZERO DUP1 ISZERO PUSH2 0x9B1 JUMPI RETURNDATASIZE PUSH0 DUP1 RETURNDATACOPY RETURNDATASIZE PUSH0 REVERT JUMPDEST POP POP POP POP PUSH1 0x40 MLOAD RETURNDATASIZE PUSH1 0x1F NOT PUSH1 0x1F DUP3 ADD AND DUP3 ADD DUP1 PUSH1 0x40 MSTORE POP DUP2 ADD SWAP1 PUSH2 0x9D5 SWAP2 SWAP1 PUSH2 0x1E7E JUMP JUMPDEST SWAP1 POP SWAP1 JUMP JUMPDEST PUSH2 0x9E2 PUSH2 0x172E JUMP JUMPDEST PUSH20 0xFFFFFFFFFFFFFFFFFFFFFFFFFFFFFFFFFFFFFFFF AND PUSH0 DUP1 SLOAD SWAP1 PUSH2 0x100 EXP SWAP1 DIV PUSH20 0xFFFFFFFFFFFFFFFFFFFFFFFFFFFFFFFFFFFFFFFF AND PUSH20 0xFFFFFFFFFFFFFFFFFFFFFFFFFFFFFFFFFFFFFFFF AND EQ PUSH2 0xA6E JUMPI PUSH1 0x40 MLOAD PUSH32 0x8C379A000000000000000000000000000000000000000000000000000000000 DUP2 MSTORE PUSH1 0x4 ADD PUSH2 0xA65 SWAP1 PUSH2 0x1EF3 JUMP JUMPDEST PUSH1 0x40 MLOAD DUP1 SWAP2 SUB SWAP1 REVERT JUMPDEST PUSH0 PUSH20 0xFFFFFFFFFFFFFFFFFFFFFFFFFFFFFFFFFFFFFFFF AND PUSH0 DUP1 SLOAD SWAP1 PUSH2 0x100 EXP SWAP1 DIV PUSH20 0xFFFFFFFFFFFFFFFFFFFFFFFFFFFFFFFFFFFFFFFF AND PUSH20 0xFFFFFFFFFFFFFFFFFFFFFFFFFFFFFFFFFFFFFFFF AND PUSH32 0x8BE0079C531659141344CD1FD0A4F28419497F9722A3DAAFE3B4186F6B6457E0 PUSH1 0x40 MLOAD PUSH1 0x40 MLOAD DUP1 SWAP2 SUB SWAP1 LOG3 PUSH0 DUP1 PUSH0 PUSH2 0x100 EXP DUP2 SLOAD DUP2 PUSH20 0xFFFFFFFFFFFFFFFFFFFFFFFFFFFFFFFFFFFFFFFF MUL NOT AND SWAP1 DUP4 PUSH20 0xFFFFFFFFFFFFFFFFFFFFFFFFFFFFFFFFFFFFFFFF AND MUL OR SWAP1 SSTORE POP JUMP JUMPDEST PUSH0 DUP1 PUSH0 SWAP1 SLOAD SWAP1 PUSH2 0x100 EXP SWAP1 DIV PUSH20 0xFFFFFFFFFFFFFFFFFFFFFFFFFFFFFFFFFFFFFFFF AND SWAP1 POP SWAP1 JUMP JUMPDEST PUSH0 PUSH1 0x3 DUP1 SLOAD SWAP1 POP SUB ISZERO PUSH2 0xC18 JUMPI PUSH1 0x1 PUSH1 0x3 DUP1 SLOAD SWAP1 POP PUSH2 0xB6E SWAP2 SWAP1 PUSH2 0x1F11 JUMP JUMPDEST PUSH1 0x4 SLOAD SUB PUSH2 0xB7E JUMPI PUSH0 PUSH1 0x4 DUP2 SWAP1 SSTORE POP JUMPDEST PUSH0 PUSH1 0x4 SLOAD SWAP1 POP JUMPDEST PUSH1 0x3 DUP1 SLOAD SWAP1 POP DUP2 LT ISZERO PUSH2 0xC16 JUMPI PUSH0 PUSH1 0x3 DUP3 DUP2 SLOAD DUP2 LT PUSH2 0xBA7 JUMPI PUSH2 0xBA6 PUSH2 0x1F44 JUMP JUMPDEST JUMPDEST SWAP1 PUSH0 MSTORE PUSH1 0x20 PUSH0 KECCAK256 ADD PUSH0 SWAP1 SLOAD SWAP1 PUSH2 0x100 EXP SWAP1 DIV PUSH20 0xFFFFFFFFFFFFFFFFFFFFFFFFFFFFFFFFFFFFFFFF AND SWAP1 POP PUSH0 PUSH2 0xBDB DUP3 PUSH2 0x159D JUMP JUMPDEST POP SWAP1 POP DUP3 PUSH1 0x4 DUP2 SWAP1 SSTORE POP PUSH0 DUP2 SUB PUSH2 0xBF3 JUMPI POP POP PUSH2 0xC03 JUMP JUMPDEST PUSH2 0xBFC DUP3 PUSH2 0x1735 JUMP JUMPDEST POP POP PUSH2 0xC16 JUMP JUMPDEST DUP1 DUP1 PUSH2 0xC0E SWAP1 PUSH2 0x1F71 JUMP JUMPDEST SWAP2 POP POP PUSH2 0xB85 JUMP JUMPDEST POP JUMPDEST JUMP JUMPDEST PUSH1 0x5 SLOAD DUP2 JUMP JUMPDEST PUSH1 0x2 PUSH0 SWAP1 SLOAD SWAP1 PUSH2 0x100 EXP SWAP1 DIV PUSH20 0xFFFFFFFFFFFFFFFFFFFFFFFFFFFFFFFFFFFFFFFF AND DUP2 JUMP JUMPDEST PUSH0 PUSH2 0xC4F CALLER PUSH2 0x159D JUMP JUMPDEST POP SWAP1 POP PUSH0 DUP2 GT ISZERO PUSH2 0xC64 JUMPI PUSH2 0xC63 CALLER PUSH2 0x1735 JUMP JUMPDEST JUMPDEST POP JUMP JUMPDEST PUSH0 DUP1 PUSH1 0xC PUSH0 DUP6 DUP2 MSTORE PUSH1 0x20 ADD SWAP1 DUP2 MSTORE PUSH1 0x20 ADD PUSH0 KECCAK256 SLOAD LT ISZERO DUP1 ISZERO PUSH2 0xD21 JUMPI POP PUSH1 0x8 PUSH0 SWAP1 SLOAD SWAP1 PUSH2 0x100 EXP SWAP1 DIV PUSH20 0xFFFFFFFFFFFFFFFFFFFFFFFFFFFFFFFFFFFFFFFF AND PUSH20 0xFFFFFFFFFFFFFFFFFFFFFFFFFFFFFFFFFFFFFFFF AND PUSH4 0x70A08231 DUP4 PUSH1 0x40 MLOAD DUP3 PUSH4 0xFFFFFFFF AND PUSH1 0xE0 SHL DUP2 MSTORE PUSH1 0x4 ADD PUSH2 0xCDE SWAP2 SWAP1 PUSH2 0x1C15 JUMP JUMPDEST PUSH1 0x20 PUSH1 0x40 MLOAD DUP1 DUP4 SUB DUP2 DUP7 GAS STATICCALL ISZERO DUP1 ISZERO PUSH2 0xCF9 JUMPI RETURNDATASIZE PUSH0 DUP1 RETURNDATACOPY RETURNDATASIZE PUSH0 REVERT JUMPDEST POP POP POP POP PUSH1 0x40 MLOAD RETURNDATASIZE PUSH1 0x1F NOT PUSH1 0x1F DUP3 ADD AND DUP3 ADD DUP1 PUSH1 0x40 MSTORE POP DUP2 ADD SWAP1 PUSH2 0xD1D SWAP2 SWAP1 PUSH2 0x1E7E JUMP JUMPDEST DUP5 GT ISZERO JUMPDEST DUP1 ISZERO PUSH2 0xD69 JUMPI POP PUSH0 PUSH1 0x9 PUSH0 DUP5 PUSH20 0xFFFFFFFFFFFFFFFFFFFFFFFFFFFFFFFFFFFFFFFF AND PUSH20 0xFFFFFFFFFFFFFFFFFFFFFFFFFFFFFFFFFFFFFFFF AND DUP2 MSTORE PUSH1 0x20 ADD SWAP1 DUP2 MSTORE PUSH1 0x20 ADD PUSH0 KECCAK256 SLOAD EQ JUMPDEST DUP1 ISZERO PUSH2 0xD74 JUMPI POP PUSH0 DUP5 GT JUMPDEST ISZERO PUSH2 0xD82 JUMPI PUSH1 0x1 SWAP1 POP PUSH2 0xD86 JUMP JUMPDEST PUSH0 SWAP1 POP JUMPDEST SWAP4 SWAP3 POP POP POP JUMP JUMPDEST PUSH0 PUSH1 0x5 SLOAD SWAP1 POP SWAP1 JUMP JUMPDEST PUSH2 0xD9E PUSH2 0x172E JUMP JUMPDEST PUSH20 0xFFFFFFFFFFFFFFFFFFFFFFFFFFFFFFFFFFFFFFFF AND PUSH0 DUP1 SLOAD SWAP1 PUSH2 0x100 EXP SWAP1 DIV PUSH20 0xFFFFFFFFFFFFFFFFFFFFFFFFFFFFFFFFFFFFFFFF AND PUSH20 0xFFFFFFFFFFFFFFFFFFFFFFFFFFFFFFFFFFFFFFFF AND EQ PUSH2 0xE2A JUMPI PUSH1 0x40 MLOAD PUSH32 0x8C379A000000000000000000000000000000000000000000000000000000000 DUP2 MSTORE PUSH1 0x4 ADD PUSH2 0xE21 SWAP1 PUSH2 0x1EF3 JUMP JUMPDEST PUSH1 0x40 MLOAD DUP1 SWAP2 SUB SWAP1 REVERT JUMPDEST DUP1 PUSH1 0xC PUSH0 DUP1 DUP2 MSTORE PUSH1 0x20 ADD SWAP1 DUP2 MSTORE PUSH1 0x20 ADD PUSH0 KECCAK256 DUP2 SWAP1 SSTORE POP POP JUMP JUMPDEST PUSH0 SWAP1 POP PUSH0 PUSH2 0xE52 DUP4 DUP4 CALLER PUSH2 0xC67 JUMP JUMPDEST SWAP1 POP DUP1 PUSH2 0xE94 JUMPI PUSH1 0x40 MLOAD PUSH32 0x8C379A000000000000000000000000000000000000000000000000000000000 DUP2 MSTORE PUSH1 0x4 ADD PUSH2 0xE8B SWAP1 PUSH2 0x2002 JUMP JUMPDEST PUSH1 0x40 MLOAD DUP1 SWAP2 SUB SWAP1 REVERT JUMPDEST PUSH1 0x8 PUSH0 SWAP1 SLOAD SWAP1 PUSH2 0x100 EXP SWAP1 DIV PUSH20 0xFFFFFFFFFFFFFFFFFFFFFFFFFFFFFFFFFFFFFFFF AND PUSH20 0xFFFFFFFFFFFFFFFFFFFFFFFFFFFFFFFFFFFFFFFF AND PUSH4 0x23B872DD CALLER ADDRESS DUP7 PUSH1 0x40 MLOAD DUP5 PUSH4 0xFFFFFFFF AND PUSH1 0xE0 SHL DUP2 MSTORE PUSH1 0x4 ADD PUSH2 0xEF2 SWAP4 SWAP3 SWAP2 SWAP1 PUSH2 0x2020 JUMP JUMPDEST PUSH1 0x20 PUSH1 0x40 MLOAD DUP1 DUP4 SUB DUP2 PUSH0 DUP8 GAS CALL ISZERO DUP1 ISZERO PUSH2 0xF0E JUMPI RETURNDATASIZE PUSH0 DUP1 RETURNDATACOPY RETURNDATASIZE PUSH0 REVERT JUMPDEST POP POP POP POP PUSH1 0x40 MLOAD RETURNDATASIZE PUSH1 0x1F NOT PUSH1 0x1F DUP3 ADD AND DUP3 ADD DUP1 PUSH1 0x40 MSTORE POP DUP2 ADD SWAP1 PUSH2 0xF32 SWAP2 SWAP1 PUSH2 0x1E3F JUMP JUMPDEST POP PUSH1 0x6 SLOAD DUP3 PUSH2 0xF41 SWAP2 SWAP1 PUSH2 0x2055 JUMP JUMPDEST SWAP2 POP PUSH2 0xF4E CALLER DUP5 DUP5 PUSH2 0x1926 JUMP JUMPDEST PUSH2 0xF63 DUP4 PUSH1 0x5 SLOAD PUSH2 0x1A65 SWAP1 SWAP2 SWAP1 PUSH4 0xFFFFFFFF AND JUMP JUMPDEST PUSH1 0x5 DUP2 SWAP1 SSTORE POP POP POP POP JUMP JUMPDEST PUSH2 0xF76 PUSH2 0x172E JUMP JUMPDEST PUSH20 0xFFFFFFFFFFFFFFFFFFFFFFFFFFFFFFFFFFFFFFFF AND PUSH0 DUP1 SLOAD SWAP1 PUSH2 0x100 EXP SWAP1 DIV PUSH20 0xFFFFFFFFFFFFFFFFFFFFFFFFFFFFFFFFFFFFFFFF AND PUSH20 0xFFFFFFFFFFFFFFFFFFFFFFFFFFFFFFFFFFFFFFFF AND EQ PUSH2 0x1002 JUMPI PUSH1 0x40 MLOAD PUSH32 0x8C379A000000000000000000000000000000000000000000000000000000000 DUP2 MSTORE PUSH1 0x4 ADD PUSH2 0xFF9 SWAP1 PUSH2 0x1EF3 JUMP JUMPDEST PUSH1 0x40 MLOAD DUP1 SWAP2 SUB SWAP1 REVERT JUMPDEST DUP1 PUSH1 0x8 PUSH0 PUSH2 0x100 EXP DUP2 SLOAD DUP2 PUSH20 0xFFFFFFFFFFFFFFFFFFFFFFFFFFFFFFFFFFFFFFFF MUL NOT AND SWAP1 DUP4 PUSH20 0xFFFFFFFFFFFFFFFFFFFFFFFFFFFFFFFFFFFFFFFF AND MUL OR SWAP1 SSTORE POP DUP1 PUSH1 0x2 PUSH0 PUSH2 0x100 EXP DUP2 SLOAD DUP2 PUSH20 0xFFFFFFFFFFFFFFFFFFFFFFFFFFFFFFFFFFFFFFFF MUL NOT AND SWAP1 DUP4 PUSH20 0xFFFFFFFFFFFFFFFFFFFFFFFFFFFFFFFFFFFFFFFF AND MUL OR SWAP1 SSTORE POP POP JUMP JUMPDEST PUSH0 DUP1 PUSH0 JUMPDEST PUSH1 0x3 DUP1 SLOAD SWAP1 POP DUP2 LT ISZERO PUSH2 0x1124 JUMPI PUSH1 0x3 DUP2 DUP2 SLOAD DUP2 LT PUSH2 0x10AA JUMPI PUSH2 0x10A9 PUSH2 0x1F44 JUMP JUMPDEST JUMPDEST SWAP1 PUSH0 MSTORE PUSH1 0x20 PUSH0 KECCAK256 ADD PUSH0 SWAP1 SLOAD SWAP1 PUSH2 0x100 EXP SWAP1 DIV PUSH20 0xFFFFFFFFFFFFFFFFFFFFFFFFFFFFFFFFFFFFFFFF AND PUSH20 0xFFFFFFFFFFFFFFFFFFFFFFFFFFFFFFFFFFFFFFFF AND DUP5 PUSH20 0xFFFFFFFFFFFFFFFFFFFFFFFFFFFFFFFFFFFFFFFF AND SUB PUSH2 0x1111 JUMPI PUSH1 0x1 DUP2 SWAP3 POP SWAP3 POP POP PUSH2 0x112C JUMP JUMPDEST DUP1 DUP1 PUSH2 0x111C SWAP1 PUSH2 0x1F71 JUMP JUMPDEST SWAP2 POP POP PUSH2 0x1089 JUMP JUMPDEST POP PUSH0 DUP1 SWAP2 POP SWAP2 POP JUMPDEST SWAP2 POP SWAP2 JUMP JUMPDEST PUSH2 0x1139 PUSH2 0x172E JUMP JUMPDEST PUSH20 0xFFFFFFFFFFFFFFFFFFFFFFFFFFFFFFFFFFFFFFFF AND PUSH0 DUP1 SLOAD SWAP1 PUSH2 0x100 EXP SWAP1 DIV PUSH20 0xFFFFFFFFFFFFFFFFFFFFFFFFFFFFFFFFFFFFFFFF AND PUSH20 0xFFFFFFFFFFFFFFFFFFFFFFFFFFFFFFFFFFFFFFFF AND EQ PUSH2 0x11C5 JUMPI PUSH1 0x40 MLOAD PUSH32 0x8C379A000000000000000000000000000000000000000000000000000000000 DUP2 MSTORE PUSH1 0x4 ADD PUSH2 0x11BC SWAP1 PUSH2 0x1EF3 JUMP JUMPDEST PUSH1 0x40 MLOAD DUP1 SWAP2 SUB SWAP1 REVERT JUMPDEST PUSH0 PUSH20 0xFFFFFFFFFFFFFFFFFFFFFFFFFFFFFFFFFFFFFFFF AND DUP2 PUSH20 0xFFFFFFFFFFFFFFFFFFFFFFFFFFFFFFFFFFFFFFFF AND SUB PUSH2 0x1233 JUMPI PUSH1 0x40 MLOAD PUSH32 0x8C379A000000000000000000000000000000000000000000000000000000000 DUP2 MSTORE PUSH1 0x4 ADD PUSH2 0x122A SWAP1 PUSH2 0x2106 JUMP JUMPDEST PUSH1 0x40 MLOAD DUP1 SWAP2 SUB SWAP1 REVERT JUMPDEST DUP1 PUSH20 0xFFFFFFFFFFFFFFFFFFFFFFFFFFFFFFFFFFFFFFFF AND PUSH0 DUP1 SLOAD SWAP1 PUSH2 0x100 EXP SWAP1 DIV PUSH20 0xFFFFFFFFFFFFFFFFFFFFFFFFFFFFFFFFFFFFFFFF AND PUSH20 0xFFFFFFFFFFFFFFFFFFFFFFFFFFFFFFFFFFFFFFFF AND PUSH32 0x8BE0079C531659141344CD1FD0A4F28419497F9722A3DAAFE3B4186F6B6457E0 PUSH1 0x40 MLOAD PUSH1 0x40 MLOAD DUP1 SWAP2 SUB SWAP1 LOG3 DUP1 PUSH0 DUP1 PUSH2 0x100 EXP DUP2 SLOAD DUP2 PUSH20 0xFFFFFFFFFFFFFFFFFFFFFFFFFFFFFFFFFFFFFFFF MUL NOT AND SWAP1 DUP4 PUSH20 0xFFFFFFFFFFFFFFFFFFFFFFFFFFFFFFFFFFFFFFFF AND MUL OR SWAP1 SSTORE POP POP JUMP JUMPDEST PUSH0 DUP3 DUP3 GT ISZERO PUSH2 0x1332 JUMPI PUSH1 0x40 MLOAD PUSH32 0x8C379A000000000000000000000000000000000000000000000000000000000 DUP2 MSTORE PUSH1 0x4 ADD PUSH2 0x1329 SWAP1 PUSH2 0x216E JUMP JUMPDEST PUSH1 0x40 MLOAD DUP1 SWAP2 SUB SWAP1 REVERT JUMPDEST DUP2 DUP4 PUSH2 0x133E SWAP2 SWAP1 PUSH2 0x1F11 JUMP JUMPDEST SWAP1 POP SWAP3 SWAP2 POP POP JUMP JUMPDEST PUSH0 DUP1 PUSH2 0x1351 DUP4 PUSH2 0x1085 JUMP JUMPDEST SWAP2 POP SWAP2 POP DUP2 ISZERO PUSH2 0x14CA JUMPI PUSH1 0x3 PUSH1 0x1 PUSH1 0x3 DUP1 SLOAD SWAP1 POP PUSH2 0x136F SWAP2 SWAP1 PUSH2 0x1F11 JUMP JUMPDEST DUP2 SLOAD DUP2 LT PUSH2 0x1380 JUMPI PUSH2 0x137F PUSH2 0x1F44 JUMP JUMPDEST JUMPDEST SWAP1 PUSH0 MSTORE PUSH1 0x20 PUSH0 KECCAK256 ADD PUSH0 SWAP1 SLOAD SWAP1 PUSH2 0x100 EXP SWAP1 DIV PUSH20 0xFFFFFFFFFFFFFFFFFFFFFFFFFFFFFFFFFFFFFFFF AND PUSH1 0x3 DUP3 DUP2 SLOAD DUP2 LT PUSH2 0x13BC JUMPI PUSH2 0x13BB PUSH2 0x1F44 JUMP JUMPDEST JUMPDEST SWAP1 PUSH0 MSTORE PUSH1 0x20 PUSH0 KECCAK256 ADD PUSH0 PUSH2 0x100 EXP DUP2 SLOAD DUP2 PUSH20 0xFFFFFFFFFFFFFFFFFFFFFFFFFFFFFFFFFFFFFFFF MUL NOT AND SWAP1 DUP4 PUSH20 0xFFFFFFFFFFFFFFFFFFFFFFFFFFFFFFFFFFFFFFFF AND MUL OR SWAP1 SSTORE POP PUSH1 0x3 DUP1 SLOAD DUP1 PUSH2 0x1413 JUMPI PUSH2 0x1412 PUSH2 0x218C JUMP JUMPDEST JUMPDEST PUSH1 0x1 SWAP1 SUB DUP2 DUP2 SWAP1 PUSH0 MSTORE PUSH1 0x20 PUSH0 KECCAK256 ADD PUSH0 PUSH2 0x100 EXP DUP2 SLOAD SWAP1 PUSH20 0xFFFFFFFFFFFFFFFFFFFFFFFFFFFFFFFFFFFFFFFF MUL NOT AND SWAP1 SSTORE SWAP1 SSTORE PUSH0 PUSH1 0xA PUSH0 DUP6 PUSH20 0xFFFFFFFFFFFFFFFFFFFFFFFFFFFFFFFFFFFFFFFF AND PUSH20 0xFFFFFFFFFFFFFFFFFFFFFFFFFFFFFFFFFFFFFFFF AND DUP2 MSTORE PUSH1 0x20 ADD SWAP1 DUP2 MSTORE PUSH1 0x20 ADD PUSH0 KECCAK256 DUP2 SWAP1 SSTORE POP PUSH0 PUSH1 0xB PUSH0 DUP6 PUSH20 0xFFFFFFFFFFFFFFFFFFFFFFFFFFFFFFFFFFFFFFFF AND PUSH20 0xFFFFFFFFFFFFFFFFFFFFFFFFFFFFFFFFFFFFFFFF AND DUP2 MSTORE PUSH1 0x20 ADD SWAP1 DUP2 MSTORE PUSH1 0x20 ADD PUSH0 KECCAK256 DUP2 SWAP1 SSTORE POP JUMPDEST POP POP POP JUMP JUMPDEST PUSH0 DUP1 DUP4 SUB PUSH2 0x14DF JUMPI PUSH0 SWAP1 POP PUSH2 0x1540 JUMP JUMPDEST PUSH0 DUP3 DUP5 PUSH2 0x14EC SWAP2 SWAP1 PUSH2 0x2055 JUMP JUMPDEST SWAP1 POP DUP3 DUP5 DUP3 PUSH2 0x14FB SWAP2 SWAP1 PUSH2 0x21E6 JUMP JUMPDEST EQ PUSH2 0x153B JUMPI PUSH1 0x40 MLOAD PUSH32 0x8C379A000000000000000000000000000000000000000000000000000000000 DUP2 MSTORE PUSH1 0x4 ADD PUSH2 0x1532 SWAP1 PUSH2 0x2286 JUMP JUMPDEST PUSH1 0x40 MLOAD DUP1 SWAP2 SUB SWAP1 REVERT JUMPDEST DUP1 SWAP2 POP POP JUMPDEST SWAP3 SWAP2 POP POP JUMP JUMPDEST PUSH0 DUP1 DUP3 GT PUSH2 0x1589 JUMPI PUSH1 0x40 MLOAD PUSH32 0x8C379A000000000000000000000000000000000000000000000000000000000 DUP2 MSTORE PUSH1 0x4 ADD PUSH2 0x1580 SWAP1 PUSH2 0x22EE JUMP JUMPDEST PUSH1 0x40 MLOAD DUP1 SWAP2 SUB SWAP1 REVERT JUMPDEST DUP2 DUP4 PUSH2 0x1595 SWAP2 SWAP1 PUSH2 0x21E6 JUMP JUMPDEST SWAP1 POP SWAP3 SWAP2 POP POP JUMP JUMPDEST PUSH0 DUP1 PUSH0 PUSH1 0x9 PUSH0 DUP6 PUSH20 0xFFFFFFFFFFFFFFFFFFFFFFFFFFFFFFFFFFFFFFFF AND PUSH20 0xFFFFFFFFFFFFFFFFFFFFFFFFFFFFFFFFFFFFFFFF AND DUP2 MSTORE PUSH1 0x20 ADD SWAP1 DUP2 MSTORE PUSH1 0x20 ADD PUSH0 KECCAK256 SLOAD SWAP1 POP PUSH0 DUP2 SUB PUSH2 0x15F3 JUMPI PUSH0 DUP1 SWAP3 POP SWAP3 POP POP PUSH2 0x1729 JUMP JUMPDEST PUSH0 PUSH1 0xA PUSH0 DUP7 PUSH20 0xFFFFFFFFFFFFFFFFFFFFFFFFFFFFFFFFFFFFFFFF AND PUSH20 0xFFFFFFFFFFFFFFFFFFFFFFFFFFFFFFFFFFFFFFFF AND DUP2 MSTORE PUSH1 0x20 ADD SWAP1 DUP2 MSTORE PUSH1 0x20 ADD PUSH0 KECCAK256 SLOAD SWAP1 POP PUSH0 DUP2 SUB PUSH2 0x1648 JUMPI PUSH0 DUP1 SWAP4 POP SWAP4 POP POP POP PUSH2 0x1729 JUMP JUMPDEST PUSH0 TIMESTAMP SWAP1 POP PUSH0 PUSH2 0x1660 DUP4 DUP4 PUSH2 0x12EE SWAP1 SWAP2 SWAP1 PUSH4 0xFFFFFFFF AND JUMP JUMPDEST SWAP1 POP PUSH0 PUSH1 0xB PUSH0 DUP10 PUSH20 0xFFFFFFFFFFFFFFFFFFFFFFFFFFFFFFFFFFFFFFFF AND PUSH20 0xFFFFFFFFFFFFFFFFFFFFFFFFFFFFFFFFFFFFFFFF AND DUP2 MSTORE PUSH1 0x20 ADD SWAP1 DUP2 MSTORE PUSH1 0x20 ADD PUSH0 KECCAK256 SLOAD SWAP1 POP DUP1 DUP3 LT ISZERO PUSH2 0x16BB JUMPI PUSH0 DUP1 SWAP7 POP SWAP7 POP POP POP POP POP POP PUSH2 0x1729 JUMP JUMPDEST PUSH0 DUP2 DUP4 PUSH2 0x16C8 SWAP2 SWAP1 PUSH2 0x21E6 JUMP JUMPDEST SWAP1 POP PUSH0 PUSH1 0xC PUSH0 DUP5 DUP2 MSTORE PUSH1 0x20 ADD SWAP1 DUP2 MSTORE PUSH1 0x20 ADD PUSH0 KECCAK256 SLOAD SWAP1 POP PUSH0 PUSH2 0x1718 PUSH1 0x64 PUSH2 0x170A DUP6 PUSH2 0x16FC DUP7 DUP14 PUSH2 0x14CF SWAP1 SWAP2 SWAP1 PUSH4 0xFFFFFFFF AND JUMP JUMPDEST PUSH2 0x14CF SWAP1 SWAP2 SWAP1 PUSH4 0xFFFFFFFF AND JUMP JUMPDEST PUSH2 0x1546 SWAP1 SWAP2 SWAP1 PUSH4 0xFFFFFFFF AND JUMP JUMPDEST SWAP1 POP DUP1 DUP4 SWAP10 POP SWAP10 POP POP POP POP POP POP POP POP POP JUMPDEST SWAP2 POP SWAP2 JUMP JUMPDEST PUSH0 CALLER SWAP1 POP SWAP1 JUMP JUMPDEST PUSH0 DUP1 PUSH2 0x1740 DUP4 PUSH2 0x159D JUMP JUMPDEST SWAP2 POP SWAP2 POP PUSH0 DUP3 SUB PUSH2 0x1752 JUMPI POP POP PUSH2 0x1923 JUMP JUMPDEST PUSH0 PUSH1 0xB PUSH0 DUP6 PUSH20 0xFFFFFFFFFFFFFFFFFFFFFFFFFFFFFFFFFFFFFFFF AND PUSH20 0xFFFFFFFFFFFFFFFFFFFFFFFFFFFFFFFFFFFFFFFF AND DUP2 MSTORE PUSH1 0x20 ADD SWAP1 DUP2 MSTORE PUSH1 0x20 ADD PUSH0 KECCAK256 SLOAD SWAP1 POP PUSH2 0x17EE DUP3 DUP3 PUSH2 0x17A2 SWAP2 SWAP1 PUSH2 0x2055 JUMP JUMPDEST PUSH1 0xA PUSH0 DUP8 PUSH20 0xFFFFFFFFFFFFFFFFFFFFFFFFFFFFFFFFFFFFFFFF AND PUSH20 0xFFFFFFFFFFFFFFFFFFFFFFFFFFFFFFFFFFFFFFFF AND DUP2 MSTORE PUSH1 0x20 ADD SWAP1 DUP2 MSTORE PUSH1 0x20 ADD PUSH0 KECCAK256 SLOAD PUSH2 0x1A65 SWAP1 SWAP2 SWAP1 PUSH4 0xFFFFFFFF AND JUMP JUMPDEST PUSH1 0xA PUSH0 DUP7 PUSH20 0xFFFFFFFFFFFFFFFFFFFFFFFFFFFFFFFFFFFFFFFF AND PUSH20 0xFFFFFFFFFFFFFFFFFFFFFFFFFFFFFFFFFFFFFFFF AND DUP2 MSTORE PUSH1 0x20 ADD SWAP1 DUP2 MSTORE PUSH1 0x20 ADD PUSH0 KECCAK256 DUP2 SWAP1 SSTORE POP PUSH1 0x8 PUSH0 SWAP1 SLOAD SWAP1 PUSH2 0x100 EXP SWAP1 DIV PUSH20 0xFFFFFFFFFFFFFFFFFFFFFFFFFFFFFFFFFFFFFFFF AND PUSH20 0xFFFFFFFFFFFFFFFFFFFFFFFFFFFFFFFFFFFFFFFF AND PUSH4 0xA9059CBB CALLER DUP6 PUSH1 0x40 MLOAD DUP4 PUSH4 0xFFFFFFFF AND PUSH1 0xE0 SHL DUP2 MSTORE PUSH1 0x4 ADD PUSH2 0x188B SWAP3 SWAP2 SWAP1 PUSH2 0x1DEE JUMP JUMPDEST PUSH1 0x20 PUSH1 0x40 MLOAD DUP1 DUP4 SUB DUP2 PUSH0 DUP8 GAS CALL ISZERO DUP1 ISZERO PUSH2 0x18A7 JUMPI RETURNDATASIZE PUSH0 DUP1 RETURNDATACOPY RETURNDATASIZE PUSH0 REVERT JUMPDEST POP POP POP POP PUSH1 0x40 MLOAD RETURNDATASIZE PUSH1 0x1F NOT PUSH1 0x1F DUP3 ADD AND DUP3 ADD DUP1 PUSH1 0x40 MSTORE POP DUP2 ADD SWAP1 PUSH2 0x18CB SWAP2 SWAP1 PUSH2 0x1E3F JUMP JUMPDEST POP DUP3 PUSH1 0x7 PUSH0 DUP3 DUP3 SLOAD PUSH2 0x18DD SWAP2 SWAP1 PUSH2 0x1DBB JUMP JUMPDEST SWAP3 POP POP DUP2 SWAP1 SSTORE POP PUSH32 0x6379339F0AE63E95E65FAD18CA2A7EC4E7E3F05F3CC5F7079F4D8DA8CEC34FAA DUP5 DUP5 TIMESTAMP PUSH1 0x40 MLOAD PUSH2 0x1917 SWAP4 SWAP3 SWAP2 SWAP1 PUSH2 0x230C JUMP JUMPDEST PUSH1 0x40 MLOAD DUP1 SWAP2 SUB SWAP1 LOG1 POP POP POP JUMPDEST POP JUMP JUMPDEST PUSH0 PUSH2 0x1930 DUP5 PUSH2 0x1085 JUMP JUMPDEST POP SWAP1 POP DUP1 PUSH2 0x1999 JUMPI PUSH1 0x3 DUP5 SWAP1 DUP1 PUSH1 0x1 DUP2 SLOAD ADD DUP1 DUP3 SSTORE DUP1 SWAP2 POP POP PUSH1 0x1 SWAP1 SUB SWAP1 PUSH0 MSTORE PUSH1 0x20 PUSH0 KECCAK256 ADD PUSH0 SWAP1 SWAP2 SWAP1 SWAP2 SWAP1 SWAP2 PUSH2 0x100 EXP DUP2 SLOAD DUP2 PUSH20 0xFFFFFFFFFFFFFFFFFFFFFFFFFFFFFFFFFFFFFFFF MUL NOT AND SWAP1 DUP4 PUSH20 0xFFFFFFFFFFFFFFFFFFFFFFFFFFFFFFFFFFFFFFFF AND MUL OR SWAP1 SSTORE POP JUMPDEST TIMESTAMP PUSH1 0xA PUSH0 DUP7 PUSH20 0xFFFFFFFFFFFFFFFFFFFFFFFFFFFFFFFFFFFFFFFF AND PUSH20 0xFFFFFFFFFFFFFFFFFFFFFFFFFFFFFFFFFFFFFFFF AND DUP2 MSTORE PUSH1 0x20 ADD SWAP1 DUP2 MSTORE PUSH1 0x20 ADD PUSH0 KECCAK256 DUP2 SWAP1 SSTORE POP DUP2 PUSH1 0xB PUSH0 DUP7 PUSH20 0xFFFFFFFFFFFFFFFFFFFFFFFFFFFFFFFFFFFFFFFF AND PUSH20 0xFFFFFFFFFFFFFFFFFFFFFFFFFFFFFFFFFFFFFFFF AND DUP2 MSTORE PUSH1 0x20 ADD SWAP1 DUP2 MSTORE PUSH1 0x20 ADD PUSH0 KECCAK256 DUP2 SWAP1 SSTORE POP DUP3 PUSH1 0x9 PUSH0 DUP7 PUSH20 0xFFFFFFFFFFFFFFFFFFFFFFFFFFFFFFFFFFFFFFFF AND PUSH20 0xFFFFFFFFFFFFFFFFFFFFFFFFFFFFFFFFFFFFFFFF AND DUP2 MSTORE PUSH1 0x20 ADD SWAP1 DUP2 MSTORE PUSH1 0x20 ADD PUSH0 KECCAK256 DUP2 SWAP1 SSTORE POP POP POP POP POP JUMP JUMPDEST PUSH0 DUP1 DUP3 DUP5 PUSH2 0x1A73 SWAP2 SWAP1 PUSH2 0x1DBB JUMP JUMPDEST SWAP1 POP DUP4 DUP2 LT ISZERO PUSH2 0x1AB8 JUMPI PUSH1 0x40 MLOAD PUSH32 0x8C379A000000000000000000000000000000000000000000000000000000000 DUP2 MSTORE PUSH1 0x4 ADD PUSH2 0x1AAF SWAP1 PUSH2 0x238B JUMP JUMPDEST PUSH1 0x40 MLOAD DUP1 SWAP2 SUB SWAP1 REVERT JUMPDEST DUP1 SWAP2 POP POP SWAP3 SWAP2 POP POP JUMP JUMPDEST PUSH0 DUP1 REVERT JUMPDEST PUSH0 DUP2 SWAP1 POP SWAP2 SWAP1 POP JUMP JUMPDEST PUSH2 0x1AD8 DUP2 PUSH2 0x1AC6 JUMP JUMPDEST DUP2 EQ PUSH2 0x1AE2 JUMPI PUSH0 DUP1 REVERT JUMPDEST POP JUMP JUMPDEST PUSH0 DUP2 CALLDATALOAD SWAP1 POP PUSH2 0x1AF3 DUP2 PUSH2 0x1ACF JUMP JUMPDEST SWAP3 SWAP2 POP POP JUMP JUMPDEST PUSH0 PUSH1 0x20 DUP3 DUP5 SUB SLT ISZERO PUSH2 0x1B0E JUMPI PUSH2 0x1B0D PUSH2 0x1AC2 JUMP JUMPDEST JUMPDEST PUSH0 PUSH2 0x1B1B DUP5 DUP3 DUP6 ADD PUSH2 0x1AE5 JUMP JUMPDEST SWAP2 POP POP SWAP3 SWAP2 POP POP JUMP JUMPDEST PUSH2 0x1B2D DUP2 PUSH2 0x1AC6 JUMP JUMPDEST DUP3 MSTORE POP POP JUMP JUMPDEST PUSH0 PUSH1 0x20 DUP3 ADD SWAP1 POP PUSH2 0x1B46 PUSH0 DUP4 ADD DUP5 PUSH2 0x1B24 JUMP JUMPDEST SWAP3 SWAP2 POP POP JUMP JUMPDEST PUSH0 PUSH1 0x60 DUP3 ADD SWAP1 POP PUSH2 0x1B5F PUSH0 DUP4 ADD DUP7 PUSH2 0x1B24 JUMP JUMPDEST PUSH2 0x1B6C PUSH1 0x20 DUP4 ADD DUP6 PUSH2 0x1B24 JUMP JUMPDEST PUSH2 0x1B79 PUSH1 0x40 DUP4 ADD DUP5 PUSH2 0x1B24 JUMP JUMPDEST SWAP5 SWAP4 POP POP POP POP JUMP JUMPDEST PUSH0 PUSH20 0xFFFFFFFFFFFFFFFFFFFFFFFFFFFFFFFFFFFFFFFF DUP3 AND SWAP1 POP SWAP2 SWAP1 POP JUMP JUMPDEST PUSH0 PUSH2 0x1BAA DUP3 PUSH2 0x1B81 JUMP JUMPDEST SWAP1 POP SWAP2 SWAP1 POP JUMP JUMPDEST PUSH2 0x1BBA DUP2 PUSH2 0x1BA0 JUMP JUMPDEST DUP2 EQ PUSH2 0x1BC4 JUMPI PUSH0 DUP1 REVERT JUMPDEST POP JUMP JUMPDEST PUSH0 DUP2 CALLDATALOAD SWAP1 POP PUSH2 0x1BD5 DUP2 PUSH2 0x1BB1 JUMP JUMPDEST SWAP3 SWAP2 POP POP JUMP JUMPDEST PUSH0 PUSH1 0x20 DUP3 DUP5 SUB SLT ISZERO PUSH2 0x1BF0 JUMPI PUSH2 0x1BEF PUSH2 0x1AC2 JUMP JUMPDEST JUMPDEST PUSH0 PUSH2 0x1BFD DUP5 DUP3 DUP6 ADD PUSH2 0x1BC7 JUMP JUMPDEST SWAP2 POP POP SWAP3 SWAP2 POP POP JUMP JUMPDEST PUSH2 0x1C0F DUP2 PUSH2 0x1BA0 JUMP JUMPDEST DUP3 MSTORE POP POP JUMP JUMPDEST PUSH0 PUSH1 0x20 DUP3 ADD SWAP1 POP PUSH2 0x1C28 PUSH0 DUP4 ADD DUP5 PUSH2 0x1C06 JUMP JUMPDEST SWAP3 SWAP2 POP POP JUMP JUMPDEST PUSH0 DUP1 PUSH0 PUSH1 0x60 DUP5 DUP7 SUB SLT ISZERO PUSH2 0x1C45 JUMPI PUSH2 0x1C44 PUSH2 0x1AC2 JUMP JUMPDEST JUMPDEST PUSH0 PUSH2 0x1C52 DUP7 DUP3 DUP8 ADD PUSH2 0x1AE5 JUMP JUMPDEST SWAP4 POP POP PUSH1 0x20 PUSH2 0x1C63 DUP7 DUP3 DUP8 ADD PUSH2 0x1AE5 JUMP JUMPDEST SWAP3 POP POP PUSH1 0x40 PUSH2 0x1C74 DUP7 DUP3 DUP8 ADD PUSH2 0x1BC7 JUMP JUMPDEST SWAP2 POP POP SWAP3 POP SWAP3 POP SWAP3 JUMP JUMPDEST PUSH0 DUP2 ISZERO ISZERO SWAP1 POP SWAP2 SWAP1 POP JUMP JUMPDEST PUSH2 0x1C92 DUP2 PUSH2 0x1C7E JUMP JUMPDEST DUP3 MSTORE POP POP JUMP JUMPDEST PUSH0 PUSH1 0x20 DUP3 ADD SWAP1 POP PUSH2 0x1CAB PUSH0 DUP4 ADD DUP5 PUSH2 0x1C89 JUMP JUMPDEST SWAP3 SWAP2 POP POP JUMP JUMPDEST PUSH0 DUP1 PUSH1 0x40 DUP4 DUP6 SUB SLT ISZERO PUSH2 0x1CC7 JUMPI PUSH2 0x1CC6 PUSH2 0x1AC2 JUMP JUMPDEST JUMPDEST PUSH0 PUSH2 0x1CD4 DUP6 DUP3 DUP7 ADD PUSH2 0x1AE5 JUMP JUMPDEST SWAP3 POP POP PUSH1 0x20 PUSH2 0x1CE5 DUP6 DUP3 DUP7 ADD PUSH2 0x1AE5 JUMP JUMPDEST SWAP2 POP POP SWAP3 POP SWAP3 SWAP1 POP JUMP JUMPDEST PUSH0 PUSH1 0x40 DUP3 ADD SWAP1 POP PUSH2 0x1D02 PUSH0 DUP4 ADD DUP6 PUSH2 0x1C89 JUMP JUMPDEST PUSH2 0x1D0F PUSH1 0x20 DUP4 ADD DUP5 PUSH2 0x1B24 JUMP JUMPDEST SWAP4 SWAP3 POP POP POP JUMP JUMPDEST PUSH0 DUP3 DUP3 MSTORE PUSH1 0x20 DUP3 ADD SWAP1 POP SWAP3 SWAP2 POP POP JUMP JUMPDEST PUSH32 0x457863656564696E67207374616B6520616D6F756E7400000000000000000000 PUSH0 DUP3 ADD MSTORE POP JUMP JUMPDEST PUSH0 PUSH2 0x1D5A PUSH1 0x16 DUP4 PUSH2 0x1D16 JUMP JUMPDEST SWAP2 POP PUSH2 0x1D65 DUP3 PUSH2 0x1D26 JUMP JUMPDEST PUSH1 0x20 DUP3 ADD SWAP1 POP SWAP2 SWAP1 POP JUMP JUMPDEST PUSH0 PUSH1 0x20 DUP3 ADD SWAP1 POP DUP2 DUP2 SUB PUSH0 DUP4 ADD MSTORE PUSH2 0x1D87 DUP2 PUSH2 0x1D4E JUMP JUMPDEST SWAP1 POP SWAP2 SWAP1 POP JUMP JUMPDEST PUSH32 0x4E487B7100000000000000000000000000000000000000000000000000000000 PUSH0 MSTORE PUSH1 0x11 PUSH1 0x4 MSTORE PUSH1 0x24 PUSH0 REVERT JUMPDEST PUSH0 PUSH2 0x1DC5 DUP3 PUSH2 0x1AC6 JUMP JUMPDEST SWAP2 POP PUSH2 0x1DD0 DUP4 PUSH2 0x1AC6 JUMP JUMPDEST SWAP3 POP DUP3 DUP3 ADD SWAP1 POP DUP1 DUP3 GT ISZERO PUSH2 0x1DE8 JUMPI PUSH2 0x1DE7 PUSH2 0x1D8E JUMP JUMPDEST JUMPDEST SWAP3 SWAP2 POP POP JUMP JUMPDEST PUSH0 PUSH1 0x40 DUP3 ADD SWAP1 POP PUSH2 0x1E01 PUSH0 DUP4 ADD DUP6 PUSH2 0x1C06 JUMP JUMPDEST PUSH2 0x1E0E PUSH1 0x20 DUP4 ADD DUP5 PUSH2 0x1B24 JUMP JUMPDEST SWAP4 SWAP3 POP POP POP JUMP JUMPDEST PUSH2 0x1E1E DUP2 PUSH2 0x1C7E JUMP JUMPDEST DUP2 EQ PUSH2 0x1E28 JUMPI PUSH0 DUP1 REVERT JUMPDEST POP JUMP JUMPDEST PUSH0 DUP2 MLOAD SWAP1 POP PUSH2 0x1E39 DUP2 PUSH2 0x1E15 JUMP JUMPDEST SWAP3 SWAP2 POP POP JUMP JUMPDEST PUSH0 PUSH1 0x20 DUP3 DUP5 SUB SLT ISZERO PUSH2 0x1E54 JUMPI PUSH2 0x1E53 PUSH2 0x1AC2 JUMP JUMPDEST JUMPDEST PUSH0 PUSH2 0x1E61 DUP5 DUP3 DUP6 ADD PUSH2 0x1E2B JUMP JUMPDEST SWAP2 POP POP SWAP3 SWAP2 POP POP JUMP JUMPDEST PUSH0 DUP2 MLOAD SWAP1 POP PUSH2 0x1E78 DUP2 PUSH2 0x1ACF JUMP JUMPDEST SWAP3 SWAP2 POP POP JUMP JUMPDEST PUSH0 PUSH1 0x20 DUP3 DUP5 SUB SLT ISZERO PUSH2 0x1E93 JUMPI PUSH2 0x1E92 PUSH2 0x1AC2 JUMP JUMPDEST JUMPDEST PUSH0 PUSH2 0x1EA0 DUP5 DUP3 DUP6 ADD PUSH2 0x1E6A JUMP JUMPDEST SWAP2 POP POP SWAP3 SWAP2 POP POP JUMP JUMPDEST PUSH32 0x4F776E61626C653A2063616C6C6572206973206E6F7420746865206F776E6572 PUSH0 DUP3 ADD MSTORE POP JUMP JUMPDEST PUSH0 PUSH2 0x1EDD PUSH1 0x20 DUP4 PUSH2 0x1D16 JUMP JUMPDEST SWAP2 POP PUSH2 0x1EE8 DUP3 PUSH2 0x1EA9 JUMP JUMPDEST PUSH1 0x20 DUP3 ADD SWAP1 POP SWAP2 SWAP1 POP JUMP JUMPDEST PUSH0 PUSH1 0x20 DUP3 ADD SWAP1 POP DUP2 DUP2 SUB PUSH0 DUP4 ADD MSTORE PUSH2 0x1F0A DUP2 PUSH2 0x1ED1 JUMP JUMPDEST SWAP1 POP SWAP2 SWAP1 POP JUMP JUMPDEST PUSH0 PUSH2 0x1F1B DUP3 PUSH2 0x1AC6 JUMP JUMPDEST SWAP2 POP PUSH2 0x1F26 DUP4 PUSH2 0x1AC6 JUMP JUMPDEST SWAP3 POP DUP3 DUP3 SUB SWAP1 POP DUP2 DUP2 GT ISZERO PUSH2 0x1F3E JUMPI PUSH2 0x1F3D PUSH2 0x1D8E JUMP JUMPDEST JUMPDEST SWAP3 SWAP2 POP POP JUMP JUMPDEST PUSH32 0x4E487B7100000000000000000000000000000000000000000000000000000000 PUSH0 MSTORE PUSH1 0x32 PUSH1 0x4 MSTORE PUSH1 0x24 PUSH0 REVERT JUMPDEST PUSH0 PUSH2 0x1F7B DUP3 PUSH2 0x1AC6 JUMP JUMPDEST SWAP2 POP PUSH32 0xFFFFFFFFFFFFFFFFFFFFFFFFFFFFFFFFFFFFFFFFFFFFFFFFFFFFFFFFFFFFFFFF DUP3 SUB PUSH2 0x1FAD JUMPI PUSH2 0x1FAC PUSH2 0x1D8E JUMP JUMPDEST JUMPDEST PUSH1 0x1 DUP3 ADD SWAP1 POP SWAP2 SWAP1 POP JUMP JUMPDEST PUSH32 0x43616E6E6F74205374616B650000000000000000000000000000000000000000 PUSH0 DUP3 ADD MSTORE POP JUMP JUMPDEST PUSH0 PUSH2 0x1FEC PUSH1 0xC DUP4 PUSH2 0x1D16 JUMP JUMPDEST SWAP2 POP PUSH2 0x1FF7 DUP3 PUSH2 0x1FB8 JUMP JUMPDEST PUSH1 0x20 DUP3 ADD SWAP1 POP SWAP2 SWAP1 POP JUMP JUMPDEST PUSH0 PUSH1 0x20 DUP3 ADD SWAP1 POP DUP2 DUP2 SUB PUSH0 DUP4 ADD MSTORE PUSH2 0x2019 DUP2 PUSH2 0x1FE0 JUMP JUMPDEST SWAP1 POP SWAP2 SWAP1 POP JUMP JUMPDEST PUSH0 PUSH1 0x60 DUP3 ADD SWAP1 POP PUSH2 0x2033 PUSH0 DUP4 ADD DUP7 PUSH2 0x1C06 JUMP JUMPDEST PUSH2 0x2040 PUSH1 0x20 DUP4 ADD DUP6 PUSH2 0x1C06 JUMP JUMPDEST PUSH2 0x204D PUSH1 0x40 DUP4 ADD DUP5 PUSH2 0x1B24 JUMP JUMPDEST SWAP5 SWAP4 POP POP POP POP JUMP JUMPDEST PUSH0 PUSH2 0x205F DUP3 PUSH2 0x1AC6 JUMP JUMPDEST SWAP2 POP PUSH2 0x206A DUP4 PUSH2 0x1AC6 JUMP JUMPDEST SWAP3 POP DUP3 DUP3 MUL PUSH2 0x2078 DUP2 PUSH2 0x1AC6 JUMP JUMPDEST SWAP2 POP DUP3 DUP3 DIV DUP5 EQ DUP4 ISZERO OR PUSH2 0x208F JUMPI PUSH2 0x208E PUSH2 0x1D8E JUMP JUMPDEST JUMPDEST POP SWAP3 SWAP2 POP POP JUMP JUMPDEST PUSH32 0x4F776E61626C653A206E6577206F776E657220697320746865207A65726F2061 PUSH0 DUP3 ADD MSTORE PUSH32 0x6464726573730000000000000000000000000000000000000000000000000000 PUSH1 0x20 DUP3 ADD MSTORE POP JUMP JUMPDEST PUSH0 PUSH2 0x20F0 PUSH1 0x26 DUP4 PUSH2 0x1D16 JUMP JUMPDEST SWAP2 POP PUSH2 0x20FB DUP3 PUSH2 0x2096 JUMP JUMPDEST PUSH1 0x40 DUP3 ADD SWAP1 POP SWAP2 SWAP1 POP JUMP JUMPDEST PUSH0 PUSH1 0x20 DUP3 ADD SWAP1 POP DUP2 DUP2 SUB PUSH0 DUP4 ADD MSTORE PUSH2 0x211D DUP2 PUSH2 0x20E4 JUMP JUMPDEST SWAP1 POP SWAP2 SWAP1 POP JUMP JUMPDEST PUSH32 0x536166654D6174683A207375627472616374696F6E206F766572666C6F770000 PUSH0 DUP3 ADD MSTORE POP JUMP JUMPDEST PUSH0 PUSH2 0x2158 PUSH1 0x1E DUP4 PUSH2 0x1D16 JUMP JUMPDEST SWAP2 POP PUSH2 0x2163 DUP3 PUSH2 0x2124 JUMP JUMPDEST PUSH1 0x20 DUP3 ADD SWAP1 POP SWAP2 SWAP1 POP JUMP JUMPDEST PUSH0 PUSH1 0x20 DUP3 ADD SWAP1 POP DUP2 DUP2 SUB PUSH0 DUP4 ADD MSTORE PUSH2 0x2185 DUP2 PUSH2 0x214C JUMP JUMPDEST SWAP1 POP SWAP2 SWAP1 POP JUMP JUMPDEST PUSH32 0x4E487B7100000000000000000000000000000000000000000000000000000000 PUSH0 MSTORE PUSH1 0x31 PUSH1 0x4 MSTORE PUSH1 0x24 PUSH0 REVERT JUMPDEST PUSH32 0x4E487B7100000000000000000000000000000000000000000000000000000000 PUSH0 MSTORE PUSH1 0x12 PUSH1 0x4 MSTORE PUSH1 0x24 PUSH0 REVERT JUMPDEST PUSH0 PUSH2 0x21F0 DUP3 PUSH2 0x1AC6 JUMP JUMPDEST SWAP2 POP PUSH2 0x21FB DUP4 PUSH2 0x1AC6 JUMP JUMPDEST SWAP3 POP DUP3 PUSH2 0x220B JUMPI PUSH2 0x220A PUSH2 0x21B9 JUMP JUMPDEST JUMPDEST DUP3 DUP3 DIV SWAP1 POP SWAP3 SWAP2 POP POP JUMP JUMPDEST PUSH32 0x536166654D6174683A206D756C7469706C69636174696F6E206F766572666C6F PUSH0 DUP3 ADD MSTORE PUSH32 0x7700000000000000000000000000000000000000000000000000000000000000 PUSH1 0x20 DUP3 ADD MSTORE POP JUMP JUMPDEST PUSH0 PUSH2 0x2270 PUSH1 0x21 DUP4 PUSH2 0x1D16 JUMP JUMPDEST SWAP2 POP PUSH2 0x227B DUP3 PUSH2 0x2216 JUMP JUMPDEST PUSH1 0x40 DUP3 ADD SWAP1 POP SWAP2 SWAP1 POP JUMP JUMPDEST PUSH0 PUSH1 0x20 DUP3 ADD SWAP1 POP DUP2 DUP2 SUB PUSH0 DUP4 ADD MSTORE PUSH2 0x229D DUP2 PUSH2 0x2264 JUMP JUMPDEST SWAP1 POP SWAP2 SWAP1 POP JUMP JUMPDEST PUSH32 0x536166654D6174683A206469766973696F6E206279207A65726F000000000000 PUSH0 DUP3 ADD MSTORE POP JUMP JUMPDEST PUSH0 PUSH2 0x22D8 PUSH1 0x1A DUP4 PUSH2 0x1D16 JUMP JUMPDEST SWAP2 POP PUSH2 0x22E3 DUP3 PUSH2 0x22A4 JUMP JUMPDEST PUSH1 0x20 DUP3 ADD SWAP1 POP SWAP2 SWAP1 POP JUMP JUMPDEST PUSH0 PUSH1 0x20 DUP3 ADD SWAP1 POP DUP2 DUP2 SUB PUSH0 DUP4 ADD MSTORE PUSH2 0x2305 DUP2 PUSH2 0x22CC JUMP JUMPDEST SWAP1 POP SWAP2 SWAP1 POP JUMP JUMPDEST PUSH0 PUSH1 0x60 DUP3 ADD SWAP1 POP PUSH2 0x231F PUSH0 DUP4 ADD DUP7 PUSH2 0x1C06 JUMP JUMPDEST PUSH2 0x232C PUSH1 0x20 DUP4 ADD DUP6 PUSH2 0x1B24 JUMP JUMPDEST PUSH2 0x2339 PUSH1 0x40 DUP4 ADD DUP5 PUSH2 0x1B24 JUMP JUMPDEST SWAP5 SWAP4 POP POP POP POP JUMP JUMPDEST PUSH32 0x536166654D6174683A206164646974696F6E206F766572666C6F770000000000 PUSH0 DUP3 ADD MSTORE POP JUMP JUMPDEST PUSH0 PUSH2 0x2375 PUSH1 0x1B DUP4 PUSH2 0x1D16 JUMP JUMPDEST SWAP2 POP PUSH2 0x2380 DUP3 PUSH2 0x2341 JUMP JUMPDEST PUSH1 0x20 DUP3 ADD SWAP1 POP SWAP2 SWAP1 POP JUMP JUMPDEST PUSH0 PUSH1 0x20 DUP3 ADD SWAP1 POP DUP2 DUP2 SUB PUSH0 DUP4 ADD MSTORE PUSH2 0x23A2 DUP2 PUSH2 0x2369 JUMP JUMPDEST SWAP1 POP SWAP2 SWAP1 POP JUMP INVALID LOG2 PUSH5 0x6970667358 0x22 SLT KECCAK256 SWAP2 0xE2 CHAINID 0xDC 0xDD LT DELEGATECALL ISZERO 0xBA PUSH10 0xB17FE769150B1ABA2618 0x21 0x5D COINBASE 0xD9 0xBC 0xBF GASLIMIT DUP14 0xFB RETURNDATACOPY PUSH2 0xD364 PUSH20 0x6F6C634300081400330000000000000000000000 "
				},
				"gasEstimates": {
					"creation": {
						"codeDepositCost": "1836600",
						"executionCost": "infinite",
						"totalCost": "infinite"
					},
					"external": {
						"_totalStakes()": "2492",
						"availableTokens()": "infinite",
						"balanceuser(address)": "infinite",
						"canStake(uint256,uint256,address)": "infinite",
						"claimReward()": "infinite",
						"createStake(uint256,uint256)": "infinite",
						"distributeReward()": "infinite",
						"getState()": "infinite",
						"getTotalStakedAmount()": "2455",
						"getTotalStakers()": "2574",
						"isStakeholder(address)": "infinite",
						"owner()": "2538",
						"removeAllMyStakes()": "infinite",
						"removeSomeStake(uint256)": "infinite",
						"renounceOwnership()": "30417",
						"rewardDistributionIndex()": "2471",
						"rewardOf(address)": "infinite",
						"setAddress(address)": "51269",
						"setApyPercentage(uint256)": "24835",
						"stakeOf(address)": "2896",
						"tokenAddress()": "2597",
						"totalRewardDistributed()": "2537",
						"totalStakes()": "2454",
						"transferOwnership(address)": "30758"
					},
					"internal": {
						"_withdrawReward(address)": "infinite",
						"addStakeholder(address,uint256,uint256)": "infinite",
						"calculateReward(address)": "infinite",
						"removeStakeholder(address)": "infinite"
					}
				},
				"methodIdentifiers": {
					"_totalStakes()": "92504bfa",
					"availableTokens()": "69bb4dc2",
					"balanceuser(address)": "6288af1e",
					"canStake(uint256,uint256,address)": "bbfa2990",
					"claimReward()": "b88a802f",
					"createStake(uint256,uint256)": "d7fa023d",
					"distributeReward()": "8f73c5ae",
					"getState()": "1865c57d",
					"getTotalStakedAmount()": "38adb6f0",
					"getTotalStakers()": "31ed0db4",
					"isStakeholder(address)": "ef037b90",
					"owner()": "8da5cb5b",
					"removeAllMyStakes()": "3cc7d2c4",
					"removeSomeStake(uint256)": "03fce884",
					"renounceOwnership()": "715018a6",
					"rewardDistributionIndex()": "0ffde47b",
					"rewardOf(address)": "1d62ebd9",
					"setAddress(address)": "e30081a0",
					"setApyPercentage(uint256)": "c53d425a",
					"stakeOf(address)": "42623360",
					"tokenAddress()": "9d76ea58",
					"totalRewardDistributed()": "30188ee8",
					"totalStakes()": "bf9befb1",
					"transferOwnership(address)": "f2fde38b"
				}
			},
			"storageLayout": {
				"storage": [
					{
						"astId": 527,
						"contract": "contracts/stakingoat.sol:OatStaking",
						"label": "_owner",
						"offset": 0,
						"slot": "0",
						"type": "t_address"
					},
					{
						"astId": 529,
						"contract": "contracts/stakingoat.sol:OatStaking",
						"label": "_previousOwner",
						"offset": 0,
						"slot": "1",
						"type": "t_address"
					},
					{
						"astId": 1024,
						"contract": "contracts/stakingoat.sol:OatStaking",
						"label": "tokenAddress",
						"offset": 0,
						"slot": "2",
						"type": "t_address"
					},
					{
						"astId": 1027,
						"contract": "contracts/stakingoat.sol:OatStaking",
						"label": "stakeholders",
						"offset": 0,
						"slot": "3",
						"type": "t_array(t_address)dyn_storage"
					},
					{
						"astId": 1030,
						"contract": "contracts/stakingoat.sol:OatStaking",
						"label": "rewardDistributionIndex",
						"offset": 0,
						"slot": "4",
						"type": "t_uint256"
					},
					{
						"astId": 1033,
						"contract": "contracts/stakingoat.sol:OatStaking",
						"label": "_totalStakes",
						"offset": 0,
						"slot": "5",
						"type": "t_uint256"
					},
					{
						"astId": 1036,
						"contract": "contracts/stakingoat.sol:OatStaking",
						"label": "uintTime",
						"offset": 0,
						"slot": "6",
						"type": "t_uint256"
					},
					{
						"astId": 1039,
						"contract": "contracts/stakingoat.sol:OatStaking",
						"label": "totalRewardDistributed",
						"offset": 0,
						"slot": "7",
						"type": "t_uint256"
					},
					{
						"astId": 1042,
						"contract": "contracts/stakingoat.sol:OatStaking",
						"label": "token",
						"offset": 0,
						"slot": "8",
						"type": "t_contract(IERC20)692"
					},
					{
						"astId": 1046,
						"contract": "contracts/stakingoat.sol:OatStaking",
						"label": "stakes",
						"offset": 0,
						"slot": "9",
						"type": "t_mapping(t_address,t_uint256)"
					},
					{
						"astId": 1050,
						"contract": "contracts/stakingoat.sol:OatStaking",
						"label": "stakingTimestamp",
						"offset": 0,
						"slot": "10",
						"type": "t_mapping(t_address,t_uint256)"
					},
					{
						"astId": 1054,
						"contract": "contracts/stakingoat.sol:OatStaking",
						"label": "stakingPackage",
						"offset": 0,
						"slot": "11",
						"type": "t_mapping(t_address,t_uint256)"
					},
					{
						"astId": 1058,
						"contract": "contracts/stakingoat.sol:OatStaking",
						"label": "packages",
						"offset": 0,
						"slot": "12",
						"type": "t_mapping(t_uint256,t_uint256)"
					}
				],
				"types": {
					"t_address": {
						"encoding": "inplace",
						"label": "address",
						"numberOfBytes": "20"
					},
					"t_array(t_address)dyn_storage": {
						"base": "t_address",
						"encoding": "dynamic_array",
						"label": "address[]",
						"numberOfBytes": "32"
					},
					"t_contract(IERC20)692": {
						"encoding": "inplace",
						"label": "contract IERC20",
						"numberOfBytes": "20"
					},
					"t_mapping(t_address,t_uint256)": {
						"encoding": "mapping",
						"key": "t_address",
						"label": "mapping(address => uint256)",
						"numberOfBytes": "32",
						"value": "t_uint256"
					},
					"t_mapping(t_uint256,t_uint256)": {
						"encoding": "mapping",
						"key": "t_uint256",
						"label": "mapping(uint256 => uint256)",
						"numberOfBytes": "32",
						"value": "t_uint256"
					},
					"t_uint256": {
						"encoding": "inplace",
						"label": "uint256",
						"numberOfBytes": "32"
					}
				}
			},
			"userdoc": {
				"kind": "user",
				"methods": {},
				"version": 1
			}
		}
	}
}