{
	"contracts/oatfinalprod.sol": {
		"OneAnonataTime": {
			"abi": [
				{
					"inputs": [],
					"stateMutability": "nonpayable",
					"type": "constructor"
				},
				{
					"anonymous": false,
					"inputs": [
						{
							"indexed": true,
							"internalType": "address",
							"name": "owner",
							"type": "address"
						},
						{
							"indexed": true,
							"internalType": "address",
							"name": "spender",
							"type": "address"
						},
						{
							"indexed": false,
							"internalType": "uint256",
							"name": "value",
							"type": "uint256"
						}
					],
					"name": "Approval",
					"type": "event"
				},
				{
					"anonymous": false,
					"inputs": [
						{
							"indexed": true,
							"internalType": "address",
							"name": "previousOwner",
							"type": "address"
						},
						{
							"indexed": true,
							"internalType": "address",
							"name": "newOwner",
							"type": "address"
						}
					],
					"name": "OwnershipTransferred",
					"type": "event"
				},
				{
					"anonymous": false,
					"inputs": [
						{
							"indexed": true,
							"internalType": "address",
							"name": "from",
							"type": "address"
						},
						{
							"indexed": true,
							"internalType": "address",
							"name": "to",
							"type": "address"
						},
						{
							"indexed": false,
							"internalType": "uint256",
							"name": "value",
							"type": "uint256"
						}
					],
					"name": "Transfer",
					"type": "event"
				},
				{
					"anonymous": false,
					"inputs": [
						{
							"indexed": false,
							"internalType": "uint256",
							"name": "amount",
							"type": "uint256"
						}
					],
					"name": "updateThresold",
					"type": "event"
				},
				{
					"inputs": [],
					"name": "DEAD_WALLET",
					"outputs": [
						{
							"internalType": "address",
							"name": "",
							"type": "address"
						}
					],
					"stateMutability": "view",
					"type": "function"
				},
				{
					"inputs": [],
					"name": "_maxTxAmount",
					"outputs": [
						{
							"internalType": "uint256",
							"name": "",
							"type": "uint256"
						}
					],
					"stateMutability": "view",
					"type": "function"
				},
				{
					"inputs": [],
					"name": "_maxWalletSize",
					"outputs": [
						{
							"internalType": "uint256",
							"name": "",
							"type": "uint256"
						}
					],
					"stateMutability": "view",
					"type": "function"
				},
				{
					"inputs": [
						{
							"internalType": "address",
							"name": "jaredAddress",
							"type": "address"
						}
					],
					"name": "addJaredAddress",
					"outputs": [],
					"stateMutability": "nonpayable",
					"type": "function"
				},
				{
					"inputs": [
						{
							"internalType": "address",
							"name": "noFeeAddress",
							"type": "address"
						}
					],
					"name": "addtoNofee",
					"outputs": [],
					"stateMutability": "nonpayable",
					"type": "function"
				},
				{
					"inputs": [
						{
							"internalType": "address",
							"name": "holder",
							"type": "address"
						},
						{
							"internalType": "address",
							"name": "spender",
							"type": "address"
						}
					],
					"name": "allowance",
					"outputs": [
						{
							"internalType": "uint256",
							"name": "",
							"type": "uint256"
						}
					],
					"stateMutability": "view",
					"type": "function"
				},
				{
					"inputs": [
						{
							"internalType": "address",
							"name": "spender",
							"type": "address"
						},
						{
							"internalType": "uint256",
							"name": "amount",
							"type": "uint256"
						}
					],
					"name": "approve",
					"outputs": [
						{
							"internalType": "bool",
							"name": "",
							"type": "bool"
						}
					],
					"stateMutability": "nonpayable",
					"type": "function"
				},
				{
					"inputs": [
						{
							"internalType": "address",
							"name": "account",
							"type": "address"
						}
					],
					"name": "balanceOf",
					"outputs": [
						{
							"internalType": "uint256",
							"name": "",
							"type": "uint256"
						}
					],
					"stateMutability": "view",
					"type": "function"
				},
				{
					"inputs": [
						{
							"internalType": "uint256",
							"name": "amount",
							"type": "uint256"
						}
					],
					"name": "changeThreshold",
					"outputs": [],
					"stateMutability": "nonpayable",
					"type": "function"
				},
				{
					"inputs": [],
					"name": "decimals",
					"outputs": [
						{
							"internalType": "uint8",
							"name": "",
							"type": "uint8"
						}
					],
					"stateMutability": "pure",
					"type": "function"
				},
				{
					"inputs": [],
					"name": "fee_denominator",
					"outputs": [
						{
							"internalType": "uint256",
							"name": "",
							"type": "uint256"
						}
					],
					"stateMutability": "view",
					"type": "function"
				},
				{
					"inputs": [],
					"name": "getCirculatingSupply",
					"outputs": [
						{
							"internalType": "uint256",
							"name": "",
							"type": "uint256"
						}
					],
					"stateMutability": "view",
					"type": "function"
				},
				{
					"inputs": [],
					"name": "getOwner",
					"outputs": [
						{
							"internalType": "address",
							"name": "",
							"type": "address"
						}
					],
					"stateMutability": "view",
					"type": "function"
				},
				{
					"inputs": [
						{
							"internalType": "address",
							"name": "jaredAddress",
							"type": "address"
						}
					],
					"name": "isJaredAddress",
					"outputs": [
						{
							"internalType": "bool",
							"name": "",
							"type": "bool"
						}
					],
					"stateMutability": "view",
					"type": "function"
				},
				{
					"inputs": [
						{
							"internalType": "address",
							"name": "account",
							"type": "address"
						}
					],
					"name": "isNoFeeWallet",
					"outputs": [
						{
							"internalType": "bool",
							"name": "",
							"type": "bool"
						}
					],
					"stateMutability": "view",
					"type": "function"
				},
				{
					"inputs": [
						{
							"internalType": "address",
							"name": "noFeeAddress",
							"type": "address"
						}
					],
					"name": "isNofeeAddress",
					"outputs": [
						{
							"internalType": "bool",
							"name": "",
							"type": "bool"
						}
					],
					"stateMutability": "view",
					"type": "function"
				},
				{
					"inputs": [],
					"name": "lpPair",
					"outputs": [
						{
							"internalType": "address",
							"name": "",
							"type": "address"
						}
					],
					"stateMutability": "view",
					"type": "function"
				},
				{
					"inputs": [],
					"name": "manualSwap",
					"outputs": [],
					"stateMutability": "nonpayable",
					"type": "function"
				},
				{
					"inputs": [],
					"name": "name",
					"outputs": [
						{
							"internalType": "string",
							"name": "",
							"type": "string"
						}
					],
					"stateMutability": "pure",
					"type": "function"
				},
				{
					"inputs": [],
					"name": "owner",
					"outputs": [
						{
							"internalType": "address",
							"name": "",
							"type": "address"
						}
					],
					"stateMutability": "view",
					"type": "function"
				},
				{
					"inputs": [
						{
							"internalType": "address",
							"name": "jaredAddress",
							"type": "address"
						}
					],
					"name": "removeJaredAddress",
					"outputs": [],
					"stateMutability": "nonpayable",
					"type": "function"
				},
				{
					"inputs": [
						{
							"internalType": "address",
							"name": "noFeeAddress",
							"type": "address"
						}
					],
					"name": "removefromtNofee",
					"outputs": [],
					"stateMutability": "nonpayable",
					"type": "function"
				},
				{
					"inputs": [],
					"name": "renounceOwnership",
					"outputs": [],
					"stateMutability": "nonpayable",
					"type": "function"
				},
				{
					"inputs": [],
					"name": "sellfee",
					"outputs": [
						{
							"internalType": "uint256",
							"name": "",
							"type": "uint256"
						}
					],
					"stateMutability": "view",
					"type": "function"
				},
				{
					"inputs": [
						{
							"internalType": "uint256",
							"name": "newFee",
							"type": "uint256"
						}
					],
					"name": "setJaredSellFee",
					"outputs": [],
					"stateMutability": "nonpayable",
					"type": "function"
				},
				{
					"inputs": [],
					"name": "swapRouter",
					"outputs": [
						{
							"internalType": "contract IRouter02",
							"name": "",
							"type": "address"
						}
					],
					"stateMutability": "view",
					"type": "function"
				},
				{
					"inputs": [],
					"name": "swapThreshold",
					"outputs": [
						{
							"internalType": "uint256",
							"name": "",
							"type": "uint256"
						}
					],
					"stateMutability": "view",
					"type": "function"
				},
				{
					"inputs": [],
					"name": "symbol",
					"outputs": [
						{
							"internalType": "string",
							"name": "",
							"type": "string"
						}
					],
					"stateMutability": "pure",
					"type": "function"
				},
				{
					"inputs": [],
					"name": "tempsellfee",
					"outputs": [
						{
							"internalType": "uint256",
							"name": "",
							"type": "uint256"
						}
					],
					"stateMutability": "view",
					"type": "function"
				},
				{
					"inputs": [],
					"name": "totalSupply",
					"outputs": [
						{
							"internalType": "uint256",
							"name": "",
							"type": "uint256"
						}
					],
					"stateMutability": "pure",
					"type": "function"
				},
				{
					"inputs": [
						{
							"internalType": "address",
							"name": "recipient",
							"type": "address"
						},
						{
							"internalType": "uint256",
							"name": "amount",
							"type": "uint256"
						}
					],
					"name": "transfer",
					"outputs": [
						{
							"internalType": "bool",
							"name": "",
							"type": "bool"
						}
					],
					"stateMutability": "nonpayable",
					"type": "function"
				},
				{
					"inputs": [],
					"name": "transferDelayEnabled",
					"outputs": [
						{
							"internalType": "bool",
							"name": "",
							"type": "bool"
						}
					],
					"stateMutability": "view",
					"type": "function"
				},
				{
					"inputs": [
						{
							"internalType": "address",
							"name": "sender",
							"type": "address"
						},
						{
							"internalType": "address",
							"name": "recipient",
							"type": "address"
						},
						{
							"internalType": "uint256",
							"name": "amount",
							"type": "uint256"
						}
					],
					"name": "transferFrom",
					"outputs": [
						{
							"internalType": "bool",
							"name": "",
							"type": "bool"
						}
					],
					"stateMutability": "nonpayable",
					"type": "function"
				},
				{
					"inputs": [
						{
							"internalType": "address",
							"name": "newOwner",
							"type": "address"
						}
					],
					"name": "transferOwnership",
					"outputs": [],
					"stateMutability": "nonpayable",
					"type": "function"
				},
				{
					"stateMutability": "payable",
					"type": "receive"
				}
			],
			"devdoc": {
				"kind": "dev",
				"methods": {},
				"version": 1
			},
			"evm": {
				"assembly": "    /* \"contracts/oatfinalprod.sol\":6071:16527  contract OneAnonataTime is Context, Ownable, IERC20 {... */\n  mstore(0x40, 0x80)\n    /* \"contracts/oatfinalprod.sol\":7434:7439  false */\n  0x00\n    /* \"contracts/oatfinalprod.sol\":7399:7439  bool public transferDelayEnabled = false */\n  0x07\n  exp(0x0100, 0x00)\n  dup2\n  sload\n  dup2\n  0xff\n  mul\n  not\n  and\n  swap1\n  dup4\n  iszero\n  iszero\n  mul\n  or\n  swap1\n  sstore\n  pop\n    /* \"contracts/oatfinalprod.sol\":7543:7548  5_000 */\n  0x1388\n    /* \"contracts/oatfinalprod.sol\":7512:7548  uint256 public swapThreshold = 5_000 */\n  0x08\n  sstore\n    /* \"contracts/oatfinalprod.sol\":7579:7580  2 */\n  0x02\n    /* \"contracts/oatfinalprod.sol\":7554:7580  uint256 public sellfee = 2 */\n  0x09\n  sstore\n    /* \"contracts/oatfinalprod.sol\":7615:7617  20 */\n  0x14\n    /* \"contracts/oatfinalprod.sol\":7586:7617  uint256 public tempsellfee = 20 */\n  0x0a\n  sstore\n    /* \"contracts/oatfinalprod.sol\":7656:7658  90 */\n  0x5a\n    /* \"contracts/oatfinalprod.sol\":7625:7658  uint256 private jaredsellfee = 90 */\n  0x0b\n  sstore\n    /* \"contracts/oatfinalprod.sol\":7877:7919  0x16626AFb636ca096963420c09E28add5C3A1ebC5 */\n  0x16626afb636ca096963420c09e28add5c3a1ebc5\n    /* \"contracts/oatfinalprod.sol\":7827:7920  address payable private _oatFee =... */\n  0x0f\n  exp(0x0100, 0x00)\n  dup2\n  sload\n  dup2\n  0xffffffffffffffffffffffffffffffffffffffff\n  mul\n  not\n  and\n  swap1\n  dup4\n  0xffffffffffffffffffffffffffffffffffffffff\n  and\n  mul\n  or\n  swap1\n  sstore\n  pop\n    /* \"contracts/oatfinalprod.sol\":8598:9623  constructor() {... */\n  callvalue\n  dup1\n  iszero\n  tag_1\n  jumpi\n  0x00\n  dup1\n  revert\ntag_1:\n  pop\n    /* \"contracts/oatfinalprod.sol\":1662:1685  _setOwner(_msgSender()) */\n  tag_7\n    /* \"contracts/oatfinalprod.sol\":1672:1684  _msgSender() */\n  tag_8\n    /* \"contracts/oatfinalprod.sol\":1672:1682  _msgSender */\n  shl(0x20, tag_9)\n    /* \"contracts/oatfinalprod.sol\":1672:1684  _msgSender() */\n  0x20\n  shr\n  jump\t// in\ntag_8:\n    /* \"contracts/oatfinalprod.sol\":1662:1671  _setOwner */\n  shl(0x20, tag_10)\n    /* \"contracts/oatfinalprod.sol\":1662:1685  _setOwner(_msgSender()) */\n  0x20\n  shr\n  jump\t// in\ntag_7:\n    /* \"contracts/oatfinalprod.sol\":8667:8692  uint256 circulatingSupply */\n  0x00\n    /* \"contracts/oatfinalprod.sol\":8710:8717  balance */\n  0x04\n    /* \"contracts/oatfinalprod.sol\":8710:8730  balance[DEAD_WALLET] */\n  0x00\n    /* \"contracts/oatfinalprod.sol\":8157:8199  0x000000000000000000000000000000000000dEaD */\n  0xdead\n    /* \"contracts/oatfinalprod.sol\":8710:8730  balance[DEAD_WALLET] */\n  0xffffffffffffffffffffffffffffffffffffffff\n  and\n  0xffffffffffffffffffffffffffffffffffffffff\n  and\n  dup2\n  mstore\n  0x20\n  add\n  swap1\n  dup2\n  mstore\n  0x20\n  add\n  0x00\n  keccak256\n  sload\n    /* \"contracts/oatfinalprod.sol\":7486:7506  200_000_000 * 10**18 */\n  0xa56fa5b99019a5c8000000\n    /* \"contracts/oatfinalprod.sol\":8695:8730  _totalSupply - balance[DEAD_WALLET] */\n  tag_12\n  swap2\n  swap1\n  tag_13\n  jump\t// in\ntag_12:\n    /* \"contracts/oatfinalprod.sol\":8667:8730  uint256 circulatingSupply = _totalSupply - balance[DEAD_WALLET] */\n  swap1\n  pop\n    /* \"contracts/oatfinalprod.sol\":8857:8860  200 */\n  0xc8\n    /* \"contracts/oatfinalprod.sol\":8837:8854  circulatingSupply */\n  dup2\n    /* \"contracts/oatfinalprod.sol\":8837:8860  circulatingSupply / 200 */\n  tag_14\n  swap2\n  swap1\n  tag_15\n  jump\t// in\ntag_14:\n    /* \"contracts/oatfinalprod.sol\":8822:8834  _maxTxAmount */\n  0x0d\n    /* \"contracts/oatfinalprod.sol\":8822:8860  _maxTxAmount = circulatingSupply / 200 */\n  dup2\n  swap1\n  sstore\n  pop\n    /* \"contracts/oatfinalprod.sol\":8903:8906  200 */\n  0xc8\n    /* \"contracts/oatfinalprod.sol\":8883:8900  circulatingSupply */\n  dup2\n    /* \"contracts/oatfinalprod.sol\":8883:8906  circulatingSupply / 200 */\n  tag_16\n  swap2\n  swap1\n  tag_15\n  jump\t// in\ntag_16:\n    /* \"contracts/oatfinalprod.sol\":8866:8880  _maxWalletSize */\n  0x0e\n    /* \"contracts/oatfinalprod.sol\":8866:8906  _maxWalletSize = circulatingSupply / 200 */\n  dup2\n  swap1\n  sstore\n  pop\n    /* \"contracts/oatfinalprod.sol\":8938:8942  true */\n  0x01\n    /* \"contracts/oatfinalprod.sol\":8917:8923  _noFee */\n  0x02\n    /* \"contracts/oatfinalprod.sol\":8917:8935  _noFee[msg.sender] */\n  0x00\n    /* \"contracts/oatfinalprod.sol\":8924:8934  msg.sender */\n  caller\n    /* \"contracts/oatfinalprod.sol\":8917:8935  _noFee[msg.sender] */\n  0xffffffffffffffffffffffffffffffffffffffff\n  and\n  0xffffffffffffffffffffffffffffffffffffffff\n  and\n  dup2\n  mstore\n  0x20\n  add\n  swap1\n  dup2\n  mstore\n  0x20\n  add\n  0x00\n  keccak256\n  0x00\n    /* \"contracts/oatfinalprod.sol\":8917:8942  _noFee[msg.sender] = true */\n  0x0100\n  exp\n  dup2\n  sload\n  dup2\n  0xff\n  mul\n  not\n  and\n  swap1\n  dup4\n  iszero\n  iszero\n  mul\n  or\n  swap1\n  sstore\n  pop\n    /* \"contracts/oatfinalprod.sol\":8976:8980  true */\n  0x01\n    /* \"contracts/oatfinalprod.sol\":8952:8958  _noFee */\n  0x02\n    /* \"contracts/oatfinalprod.sol\":8952:8973  _noFee[address(this)] */\n  0x00\n    /* \"contracts/oatfinalprod.sol\":8967:8971  this */\n  address\n    /* \"contracts/oatfinalprod.sol\":8952:8973  _noFee[address(this)] */\n  0xffffffffffffffffffffffffffffffffffffffff\n  and\n  0xffffffffffffffffffffffffffffffffffffffff\n  and\n  dup2\n  mstore\n  0x20\n  add\n  swap1\n  dup2\n  mstore\n  0x20\n  add\n  0x00\n  keccak256\n  0x00\n    /* \"contracts/oatfinalprod.sol\":8952:8980  _noFee[address(this)] = true */\n  0x0100\n  exp\n  dup2\n  sload\n  dup2\n  0xff\n  mul\n  not\n  and\n  swap1\n  dup4\n  iszero\n  iszero\n  mul\n  or\n  swap1\n  sstore\n  pop\n    /* \"contracts/oatfinalprod.sol\":9008:9012  true */\n  0x01\n    /* \"contracts/oatfinalprod.sol\":8990:8996  _noFee */\n  0x02\n    /* \"contracts/oatfinalprod.sol\":8990:9005  _noFee[_oatFee] */\n  0x00\n    /* \"contracts/oatfinalprod.sol\":8997:9004  _oatFee */\n  0x0f\n  0x00\n  swap1\n  sload\n  swap1\n  0x0100\n  exp\n  swap1\n  div\n  0xffffffffffffffffffffffffffffffffffffffff\n  and\n    /* \"contracts/oatfinalprod.sol\":8990:9005  _noFee[_oatFee] */\n  0xffffffffffffffffffffffffffffffffffffffff\n  and\n  0xffffffffffffffffffffffffffffffffffffffff\n  and\n  dup2\n  mstore\n  0x20\n  add\n  swap1\n  dup2\n  mstore\n  0x20\n  add\n  0x00\n  keccak256\n  0x00\n    /* \"contracts/oatfinalprod.sol\":8990:9012  _noFee[_oatFee] = true */\n  0x0100\n  exp\n  dup2\n  sload\n  dup2\n  0xff\n  mul\n  not\n  and\n  swap1\n  dup4\n  iszero\n  iszero\n  mul\n  or\n  swap1\n  sstore\n  pop\n    /* \"contracts/oatfinalprod.sol\":9044:9048  true */\n  0x01\n    /* \"contracts/oatfinalprod.sol\":9022:9028  _noFee */\n  0x02\n    /* \"contracts/oatfinalprod.sol\":9022:9041  _noFee[DEAD_WALLET] */\n  0x00\n    /* \"contracts/oatfinalprod.sol\":8157:8199  0x000000000000000000000000000000000000dEaD */\n  0xdead\n    /* \"contracts/oatfinalprod.sol\":9022:9041  _noFee[DEAD_WALLET] */\n  0xffffffffffffffffffffffffffffffffffffffff\n  and\n  0xffffffffffffffffffffffffffffffffffffffff\n  and\n  dup2\n  mstore\n  0x20\n  add\n  swap1\n  dup2\n  mstore\n  0x20\n  add\n  0x00\n  keccak256\n  0x00\n    /* \"contracts/oatfinalprod.sol\":9022:9048  _noFee[DEAD_WALLET] = true */\n  0x0100\n  exp\n  dup2\n  sload\n  dup2\n  0xff\n  mul\n  not\n  and\n  swap1\n  dup4\n  iszero\n  iszero\n  mul\n  or\n  swap1\n  sstore\n  pop\n    /* \"contracts/oatfinalprod.sol\":9083:9087  true */\n  0x01\n    /* \"contracts/oatfinalprod.sol\":9059:9066  _jareDs */\n  0x06\n    /* \"contracts/oatfinalprod.sol\":9059:9080  _jareDs[jared_MEVBOT] */\n  0x00\n    /* \"contracts/oatfinalprod.sol\":8399:8441  0x6b75d8AF000000e20B7a7DDf000Ba900b4009A80 */\n  0x6b75d8af000000e20b7a7ddf000ba900b4009a80\n    /* \"contracts/oatfinalprod.sol\":9059:9080  _jareDs[jared_MEVBOT] */\n  0xffffffffffffffffffffffffffffffffffffffff\n  and\n  0xffffffffffffffffffffffffffffffffffffffff\n  and\n  dup2\n  mstore\n  0x20\n  add\n  swap1\n  dup2\n  mstore\n  0x20\n  add\n  0x00\n  keccak256\n  0x00\n    /* \"contracts/oatfinalprod.sol\":9059:9087  _jareDs[jared_MEVBOT] = true */\n  0x0100\n  exp\n  dup2\n  sload\n  dup2\n  0xff\n  mul\n  not\n  and\n  swap1\n  dup4\n  iszero\n  iszero\n  mul\n  or\n  swap1\n  sstore\n  pop\n    /* \"contracts/oatfinalprod.sol\":9122:9126  true */\n  0x01\n    /* \"contracts/oatfinalprod.sol\":9097:9104  _jareDs */\n  0x06\n    /* \"contracts/oatfinalprod.sol\":9097:9119  _jareDs[jared_ADDRESS] */\n  0x00\n    /* \"contracts/oatfinalprod.sol\":8505:8547  0xae2Fc483527B8EF99EB5D9B44875F005ba1FaE13 */\n  0xae2fc483527b8ef99eb5d9b44875f005ba1fae13\n    /* \"contracts/oatfinalprod.sol\":9097:9119  _jareDs[jared_ADDRESS] */\n  0xffffffffffffffffffffffffffffffffffffffff\n  and\n  0xffffffffffffffffffffffffffffffffffffffff\n  and\n  dup2\n  mstore\n  0x20\n  add\n  swap1\n  dup2\n  mstore\n  0x20\n  add\n  0x00\n  keccak256\n  0x00\n    /* \"contracts/oatfinalprod.sol\":9097:9126  _jareDs[jared_ADDRESS] = true */\n  0x0100\n  exp\n  dup2\n  sload\n  dup2\n  0xff\n  mul\n  not\n  and\n  swap1\n  dup4\n  iszero\n  iszero\n  mul\n  or\n  swap1\n  sstore\n  pop\n    /* \"contracts/oatfinalprod.sol\":9160:9202  0x7a250d5630B4cF539739dF2C5dAcb4c659F2488D */\n  0x7a250d5630b4cf539739df2c5dacb4c659f2488d\n    /* \"contracts/oatfinalprod.sol\":9137:9147  swapRouter */\n  0x10\n  0x00\n    /* \"contracts/oatfinalprod.sol\":9137:9203  swapRouter = IRouter02(0x7a250d5630B4cF539739dF2C5dAcb4c659F2488D) */\n  0x0100\n  exp\n  dup2\n  sload\n  dup2\n  0xffffffffffffffffffffffffffffffffffffffff\n  mul\n  not\n  and\n  swap1\n  dup4\n  0xffffffffffffffffffffffffffffffffffffffff\n  and\n  mul\n  or\n  swap1\n  sstore\n  pop\n    /* \"contracts/oatfinalprod.sol\":7486:7506  200_000_000 * 10**18 */\n  0xa56fa5b99019a5c8000000\n    /* \"contracts/oatfinalprod.sol\":9214:9221  balance */\n  0x04\n    /* \"contracts/oatfinalprod.sol\":9214:9233  balance[msg.sender] */\n  0x00\n    /* \"contracts/oatfinalprod.sol\":9222:9232  msg.sender */\n  caller\n    /* \"contracts/oatfinalprod.sol\":9214:9233  balance[msg.sender] */\n  0xffffffffffffffffffffffffffffffffffffffff\n  and\n  0xffffffffffffffffffffffffffffffffffffffff\n  and\n  dup2\n  mstore\n  0x20\n  add\n  swap1\n  dup2\n  mstore\n  0x20\n  add\n  0x00\n  keccak256\n    /* \"contracts/oatfinalprod.sol\":9214:9248  balance[msg.sender] = _totalSupply */\n  dup2\n  swap1\n  sstore\n  pop\n    /* \"contracts/oatfinalprod.sol\":9284:9294  msg.sender */\n  caller\n    /* \"contracts/oatfinalprod.sol\":9263:9309  Transfer(address(0), msg.sender, _totalSupply) */\n  0xffffffffffffffffffffffffffffffffffffffff\n  and\n    /* \"contracts/oatfinalprod.sol\":9280:9281  0 */\n  0x00\n    /* \"contracts/oatfinalprod.sol\":9263:9309  Transfer(address(0), msg.sender, _totalSupply) */\n  0xffffffffffffffffffffffffffffffffffffffff\n  and\n  0xddf252ad1be2c89b69c2b068fc378daa952ba7f163c4a11628f55a4df523b3ef\n    /* \"contracts/oatfinalprod.sol\":7486:7506  200_000_000 * 10**18 */\n  0xa56fa5b99019a5c8000000\n    /* \"contracts/oatfinalprod.sol\":9263:9309  Transfer(address(0), msg.sender, _totalSupply) */\n  mload(0x40)\n  tag_17\n  swap2\n  swap1\n  tag_18\n  jump\t// in\ntag_17:\n  mload(0x40)\n  dup1\n  swap2\n  sub\n  swap1\n  log3\n    /* \"contracts/oatfinalprod.sol\":9340:9350  swapRouter */\n  0x10\n  0x00\n  swap1\n  sload\n  swap1\n  0x0100\n  exp\n  swap1\n  div\n  0xffffffffffffffffffffffffffffffffffffffff\n  and\n    /* \"contracts/oatfinalprod.sol\":9340:9358  swapRouter.factory */\n  0xffffffffffffffffffffffffffffffffffffffff\n  and\n  0xc45a0155\n    /* \"contracts/oatfinalprod.sol\":9340:9360  swapRouter.factory() */\n  mload(0x40)\n  dup2\n  0xffffffff\n  and\n  0xe0\n  shl\n  dup2\n  mstore\n  0x04\n  add\n  0x20\n  mload(0x40)\n  dup1\n  dup4\n  sub\n  dup2\n  dup7\n  gas\n  staticcall\n  iszero\n  dup1\n  iszero\n  tag_20\n  jumpi\n  returndatasize\n  0x00\n  dup1\n  returndatacopy\n  revert(0x00, returndatasize)\ntag_20:\n  pop\n  pop\n  pop\n  pop\n  mload(0x40)\n  returndatasize\n  not(0x1f)\n  0x1f\n  dup3\n  add\n  and\n  dup3\n  add\n  dup1\n  0x40\n  mstore\n  pop\n  dup2\n  add\n  swap1\n  tag_21\n  swap2\n  swap1\n  tag_22\n  jump\t// in\ntag_21:\n    /* \"contracts/oatfinalprod.sol\":9329:9372  IFactoryV2(swapRouter.factory()).createPair */\n  0xffffffffffffffffffffffffffffffffffffffff\n  and\n  0xc9c65396\n    /* \"contracts/oatfinalprod.sol\":9386:9396  swapRouter */\n  0x10\n  0x00\n  swap1\n  sload\n  swap1\n  0x0100\n  exp\n  swap1\n  div\n  0xffffffffffffffffffffffffffffffffffffffff\n  and\n    /* \"contracts/oatfinalprod.sol\":9386:9401  swapRouter.WETH */\n  0xffffffffffffffffffffffffffffffffffffffff\n  and\n  0xad5c4648\n    /* \"contracts/oatfinalprod.sol\":9386:9403  swapRouter.WETH() */\n  mload(0x40)\n  dup2\n  0xffffffff\n  and\n  0xe0\n  shl\n  dup2\n  mstore\n  0x04\n  add\n  0x20\n  mload(0x40)\n  dup1\n  dup4\n  sub\n  dup2\n  dup7\n  gas\n  staticcall\n  iszero\n  dup1\n  iszero\n  tag_24\n  jumpi\n  returndatasize\n  0x00\n  dup1\n  returndatacopy\n  revert(0x00, returndatasize)\ntag_24:\n  pop\n  pop\n  pop\n  pop\n  mload(0x40)\n  returndatasize\n  not(0x1f)\n  0x1f\n  dup3\n  add\n  and\n  dup3\n  add\n  dup1\n  0x40\n  mstore\n  pop\n  dup2\n  add\n  swap1\n  tag_25\n  swap2\n  swap1\n  tag_22\n  jump\t// in\ntag_25:\n    /* \"contracts/oatfinalprod.sol\":9425:9429  this */\n  address\n    /* \"contracts/oatfinalprod.sol\":9329:9440  IFactoryV2(swapRouter.factory()).createPair(... */\n  mload(0x40)\n  dup4\n  0xffffffff\n  and\n  0xe0\n  shl\n  dup2\n  mstore\n  0x04\n  add\n  tag_26\n  swap3\n  swap2\n  swap1\n  tag_27\n  jump\t// in\ntag_26:\n  0x20\n  mload(0x40)\n  dup1\n  dup4\n  sub\n  dup2\n  0x00\n  dup8\n  gas\n  call\n  iszero\n  dup1\n  iszero\n  tag_29\n  jumpi\n  returndatasize\n  0x00\n  dup1\n  returndatacopy\n  revert(0x00, returndatasize)\ntag_29:\n  pop\n  pop\n  pop\n  pop\n  mload(0x40)\n  returndatasize\n  not(0x1f)\n  0x1f\n  dup3\n  add\n  and\n  dup3\n  add\n  dup1\n  0x40\n  mstore\n  pop\n  dup2\n  add\n  swap1\n  tag_30\n  swap2\n  swap1\n  tag_22\n  jump\t// in\ntag_30:\n    /* \"contracts/oatfinalprod.sol\":9320:9326  lpPair */\n  0x11\n  0x00\n    /* \"contracts/oatfinalprod.sol\":9320:9440  lpPair = IFactoryV2(swapRouter.factory()).createPair(... */\n  0x0100\n  exp\n  dup2\n  sload\n  dup2\n  0xffffffffffffffffffffffffffffffffffffffff\n  mul\n  not\n  and\n  swap1\n  dup4\n  0xffffffffffffffffffffffffffffffffffffffff\n  and\n  mul\n  or\n  swap1\n  sstore\n  pop\n    /* \"contracts/oatfinalprod.sol\":9469:9473  true */\n  0x01\n    /* \"contracts/oatfinalprod.sol\":9450:9458  isLpPair */\n  0x03\n    /* \"contracts/oatfinalprod.sol\":9450:9466  isLpPair[lpPair] */\n  0x00\n    /* \"contracts/oatfinalprod.sol\":9459:9465  lpPair */\n  0x11\n  0x00\n  swap1\n  sload\n  swap1\n  0x0100\n  exp\n  swap1\n  div\n  0xffffffffffffffffffffffffffffffffffffffff\n  and\n    /* \"contracts/oatfinalprod.sol\":9450:9466  isLpPair[lpPair] */\n  0xffffffffffffffffffffffffffffffffffffffff\n  and\n  0xffffffffffffffffffffffffffffffffffffffff\n  and\n  dup2\n  mstore\n  0x20\n  add\n  swap1\n  dup2\n  mstore\n  0x20\n  add\n  0x00\n  keccak256\n  0x00\n    /* \"contracts/oatfinalprod.sol\":9450:9473  isLpPair[lpPair] = true */\n  0x0100\n  exp\n  dup2\n  sload\n  dup2\n  0xff\n  mul\n  not\n  and\n  swap1\n  dup4\n  iszero\n  iszero\n  mul\n  or\n  swap1\n  sstore\n  pop\n    /* \"contracts/oatfinalprod.sol\":9483:9543  _approve(msg.sender, address(swapRouter), type(uint256).max) */\n  tag_31\n    /* \"contracts/oatfinalprod.sol\":9492:9502  msg.sender */\n  caller\n    /* \"contracts/oatfinalprod.sol\":9512:9522  swapRouter */\n  0x10\n  0x00\n  swap1\n  sload\n  swap1\n  0x0100\n  exp\n  swap1\n  div\n  0xffffffffffffffffffffffffffffffffffffffff\n  and\n    /* \"contracts/oatfinalprod.sol\":9525:9542  type(uint256).max */\n  0xffffffffffffffffffffffffffffffffffffffffffffffffffffffffffffffff\n    /* \"contracts/oatfinalprod.sol\":9483:9491  _approve */\n  shl(0x20, tag_32)\n    /* \"contracts/oatfinalprod.sol\":9483:9543  _approve(msg.sender, address(swapRouter), type(uint256).max) */\n  0x20\n  shr\n  jump\t// in\ntag_31:\n    /* \"contracts/oatfinalprod.sol\":9553:9616  _approve(address(this), address(swapRouter), type(uint256).max) */\n  tag_33\n    /* \"contracts/oatfinalprod.sol\":9570:9574  this */\n  address\n    /* \"contracts/oatfinalprod.sol\":9585:9595  swapRouter */\n  0x10\n  0x00\n  swap1\n  sload\n  swap1\n  0x0100\n  exp\n  swap1\n  div\n  0xffffffffffffffffffffffffffffffffffffffff\n  and\n    /* \"contracts/oatfinalprod.sol\":9598:9615  type(uint256).max */\n  0xffffffffffffffffffffffffffffffffffffffffffffffffffffffffffffffff\n    /* \"contracts/oatfinalprod.sol\":9553:9561  _approve */\n  shl(0x20, tag_32)\n    /* \"contracts/oatfinalprod.sol\":9553:9616  _approve(address(this), address(swapRouter), type(uint256).max) */\n  0x20\n  shr\n  jump\t// in\ntag_33:\n    /* \"contracts/oatfinalprod.sol\":8612:9623  {... */\n  pop\n    /* \"contracts/oatfinalprod.sol\":6071:16527  contract OneAnonataTime is Context, Ownable, IERC20 {... */\n  jump(tag_34)\n    /* \"contracts/oatfinalprod.sol\":1236:1341  function _msgSender() internal view returns (address payable) {... */\ntag_9:\n    /* \"contracts/oatfinalprod.sol\":1281:1296  address payable */\n  0x00\n    /* \"contracts/oatfinalprod.sol\":1323:1333  msg.sender */\n  caller\n    /* \"contracts/oatfinalprod.sol\":1308:1334  return payable(msg.sender) */\n  swap1\n  pop\n    /* \"contracts/oatfinalprod.sol\":1236:1341  function _msgSender() internal view returns (address payable) {... */\n  swap1\n  jump\t// out\n    /* \"contracts/oatfinalprod.sol\":2239:2408  function _setOwner(address newOwner) private {... */\ntag_10:\n    /* \"contracts/oatfinalprod.sol\":2294:2310  address oldOwner */\n  0x00\n    /* \"contracts/oatfinalprod.sol\":2313:2319  _owner */\n  dup1\n  0x00\n  swap1\n  sload\n  swap1\n  0x0100\n  exp\n  swap1\n  div\n  0xffffffffffffffffffffffffffffffffffffffff\n  and\n    /* \"contracts/oatfinalprod.sol\":2294:2319  address oldOwner = _owner */\n  swap1\n  pop\n    /* \"contracts/oatfinalprod.sol\":2338:2346  newOwner */\n  dup2\n    /* \"contracts/oatfinalprod.sol\":2329:2335  _owner */\n  0x00\n  dup1\n    /* \"contracts/oatfinalprod.sol\":2329:2346  _owner = newOwner */\n  0x0100\n  exp\n  dup2\n  sload\n  dup2\n  0xffffffffffffffffffffffffffffffffffffffff\n  mul\n  not\n  and\n  swap1\n  dup4\n  0xffffffffffffffffffffffffffffffffffffffff\n  and\n  mul\n  or\n  swap1\n  sstore\n  pop\n    /* \"contracts/oatfinalprod.sol\":2392:2400  newOwner */\n  dup2\n    /* \"contracts/oatfinalprod.sol\":2361:2401  OwnershipTransferred(oldOwner, newOwner) */\n  0xffffffffffffffffffffffffffffffffffffffff\n  and\n    /* \"contracts/oatfinalprod.sol\":2382:2390  oldOwner */\n  dup2\n    /* \"contracts/oatfinalprod.sol\":2361:2401  OwnershipTransferred(oldOwner, newOwner) */\n  0xffffffffffffffffffffffffffffffffffffffff\n  and\n  0x8be0079c531659141344cd1fd0a4f28419497f9722a3daafe3b4186f6b6457e0\n  mload(0x40)\n  mload(0x40)\n  dup1\n  swap2\n  sub\n  swap1\n  log3\n    /* \"contracts/oatfinalprod.sol\":2284:2408  {... */\n  pop\n    /* \"contracts/oatfinalprod.sol\":2239:2408  function _setOwner(address newOwner) private {... */\n  pop\n  jump\t// out\n    /* \"contracts/oatfinalprod.sol\":10178:10463  function _approve(... */\ntag_32:\n    /* \"contracts/oatfinalprod.sol\":10320:10321  0 */\n  0x00\n    /* \"contracts/oatfinalprod.sol\":10302:10322  sender != address(0) */\n  0xffffffffffffffffffffffffffffffffffffffff\n  and\n    /* \"contracts/oatfinalprod.sol\":10302:10308  sender */\n  dup4\n    /* \"contracts/oatfinalprod.sol\":10302:10322  sender != address(0) */\n  0xffffffffffffffffffffffffffffffffffffffff\n  and\n  sub\n    /* \"contracts/oatfinalprod.sol\":10294:10346  require(sender != address(0), \"ERC20: Zero Address\") */\n  tag_38\n  jumpi\n  mload(0x40)\n  0x08c379a000000000000000000000000000000000000000000000000000000000\n  dup2\n  mstore\n  0x04\n  add\n  tag_39\n  swap1\n  tag_40\n  jump\t// in\ntag_39:\n  mload(0x40)\n  dup1\n  swap2\n  sub\n  swap1\n  revert\ntag_38:\n    /* \"contracts/oatfinalprod.sol\":10383:10384  0 */\n  0x00\n    /* \"contracts/oatfinalprod.sol\":10364:10385  spender != address(0) */\n  0xffffffffffffffffffffffffffffffffffffffff\n  and\n    /* \"contracts/oatfinalprod.sol\":10364:10371  spender */\n  dup3\n    /* \"contracts/oatfinalprod.sol\":10364:10385  spender != address(0) */\n  0xffffffffffffffffffffffffffffffffffffffff\n  and\n  sub\n    /* \"contracts/oatfinalprod.sol\":10356:10409  require(spender != address(0), \"ERC20: Zero Address\") */\n  tag_41\n  jumpi\n  mload(0x40)\n  0x08c379a000000000000000000000000000000000000000000000000000000000\n  dup2\n  mstore\n  0x04\n  add\n  tag_42\n  swap1\n  tag_40\n  jump\t// in\ntag_42:\n  mload(0x40)\n  dup1\n  swap2\n  sub\n  swap1\n  revert\ntag_41:\n    /* \"contracts/oatfinalprod.sol\":10450:10456  amount */\n  dup1\n    /* \"contracts/oatfinalprod.sol\":10419:10430  _allowances */\n  0x01\n    /* \"contracts/oatfinalprod.sol\":10419:10438  _allowances[sender] */\n  0x00\n    /* \"contracts/oatfinalprod.sol\":10431:10437  sender */\n  dup6\n    /* \"contracts/oatfinalprod.sol\":10419:10438  _allowances[sender] */\n  0xffffffffffffffffffffffffffffffffffffffff\n  and\n  0xffffffffffffffffffffffffffffffffffffffff\n  and\n  dup2\n  mstore\n  0x20\n  add\n  swap1\n  dup2\n  mstore\n  0x20\n  add\n  0x00\n  keccak256\n    /* \"contracts/oatfinalprod.sol\":10419:10447  _allowances[sender][spender] */\n  0x00\n    /* \"contracts/oatfinalprod.sol\":10439:10446  spender */\n  dup5\n    /* \"contracts/oatfinalprod.sol\":10419:10447  _allowances[sender][spender] */\n  0xffffffffffffffffffffffffffffffffffffffff\n  and\n  0xffffffffffffffffffffffffffffffffffffffff\n  and\n  dup2\n  mstore\n  0x20\n  add\n  swap1\n  dup2\n  mstore\n  0x20\n  add\n  0x00\n  keccak256\n    /* \"contracts/oatfinalprod.sol\":10419:10456  _allowances[sender][spender] = amount */\n  dup2\n  swap1\n  sstore\n  pop\n    /* \"contracts/oatfinalprod.sol\":10178:10463  function _approve(... */\n  pop\n  pop\n  pop\n  jump\t// out\n    /* \"#utility.yul\":7:84   */\ntag_43:\n    /* \"#utility.yul\":44:51   */\n  0x00\n    /* \"#utility.yul\":73:78   */\n  dup2\n    /* \"#utility.yul\":62:78   */\n  swap1\n  pop\n    /* \"#utility.yul\":7:84   */\n  swap2\n  swap1\n  pop\n  jump\t// out\n    /* \"#utility.yul\":90:270   */\ntag_44:\n    /* \"#utility.yul\":138:215   */\n  0x4e487b7100000000000000000000000000000000000000000000000000000000\n    /* \"#utility.yul\":135:136   */\n  0x00\n    /* \"#utility.yul\":128:216   */\n  mstore\n    /* \"#utility.yul\":235:239   */\n  0x11\n    /* \"#utility.yul\":232:233   */\n  0x04\n    /* \"#utility.yul\":225:240   */\n  mstore\n    /* \"#utility.yul\":259:263   */\n  0x24\n    /* \"#utility.yul\":256:257   */\n  0x00\n    /* \"#utility.yul\":249:264   */\n  revert\n    /* \"#utility.yul\":276:470   */\ntag_13:\n    /* \"#utility.yul\":316:320   */\n  0x00\n    /* \"#utility.yul\":336:356   */\n  tag_62\n    /* \"#utility.yul\":354:355   */\n  dup3\n    /* \"#utility.yul\":336:356   */\n  tag_43\n  jump\t// in\ntag_62:\n    /* \"#utility.yul\":331:356   */\n  swap2\n  pop\n    /* \"#utility.yul\":370:390   */\n  tag_63\n    /* \"#utility.yul\":388:389   */\n  dup4\n    /* \"#utility.yul\":370:390   */\n  tag_43\n  jump\t// in\ntag_63:\n    /* \"#utility.yul\":365:390   */\n  swap3\n  pop\n    /* \"#utility.yul\":414:415   */\n  dup3\n    /* \"#utility.yul\":411:412   */\n  dup3\n    /* \"#utility.yul\":407:416   */\n  sub\n    /* \"#utility.yul\":399:416   */\n  swap1\n  pop\n    /* \"#utility.yul\":438:439   */\n  dup2\n    /* \"#utility.yul\":432:436   */\n  dup2\n    /* \"#utility.yul\":429:440   */\n  gt\n    /* \"#utility.yul\":426:463   */\n  iszero\n  tag_64\n  jumpi\n    /* \"#utility.yul\":443:461   */\n  tag_65\n  tag_44\n  jump\t// in\ntag_65:\n    /* \"#utility.yul\":426:463   */\ntag_64:\n    /* \"#utility.yul\":276:470   */\n  swap3\n  swap2\n  pop\n  pop\n  jump\t// out\n    /* \"#utility.yul\":476:656   */\ntag_45:\n    /* \"#utility.yul\":524:601   */\n  0x4e487b7100000000000000000000000000000000000000000000000000000000\n    /* \"#utility.yul\":521:522   */\n  0x00\n    /* \"#utility.yul\":514:602   */\n  mstore\n    /* \"#utility.yul\":621:625   */\n  0x12\n    /* \"#utility.yul\":618:619   */\n  0x04\n    /* \"#utility.yul\":611:626   */\n  mstore\n    /* \"#utility.yul\":645:649   */\n  0x24\n    /* \"#utility.yul\":642:643   */\n  0x00\n    /* \"#utility.yul\":635:650   */\n  revert\n    /* \"#utility.yul\":662:847   */\ntag_15:\n    /* \"#utility.yul\":702:703   */\n  0x00\n    /* \"#utility.yul\":719:739   */\n  tag_68\n    /* \"#utility.yul\":737:738   */\n  dup3\n    /* \"#utility.yul\":719:739   */\n  tag_43\n  jump\t// in\ntag_68:\n    /* \"#utility.yul\":714:739   */\n  swap2\n  pop\n    /* \"#utility.yul\":753:773   */\n  tag_69\n    /* \"#utility.yul\":771:772   */\n  dup4\n    /* \"#utility.yul\":753:773   */\n  tag_43\n  jump\t// in\ntag_69:\n    /* \"#utility.yul\":748:773   */\n  swap3\n  pop\n    /* \"#utility.yul\":792:793   */\n  dup3\n    /* \"#utility.yul\":782:817   */\n  tag_70\n  jumpi\n    /* \"#utility.yul\":797:815   */\n  tag_71\n  tag_45\n  jump\t// in\ntag_71:\n    /* \"#utility.yul\":782:817   */\ntag_70:\n    /* \"#utility.yul\":839:840   */\n  dup3\n    /* \"#utility.yul\":836:837   */\n  dup3\n    /* \"#utility.yul\":832:841   */\n  div\n    /* \"#utility.yul\":827:841   */\n  swap1\n  pop\n    /* \"#utility.yul\":662:847   */\n  swap3\n  swap2\n  pop\n  pop\n  jump\t// out\n    /* \"#utility.yul\":853:971   */\ntag_46:\n    /* \"#utility.yul\":940:964   */\n  tag_73\n    /* \"#utility.yul\":958:963   */\n  dup2\n    /* \"#utility.yul\":940:964   */\n  tag_43\n  jump\t// in\ntag_73:\n    /* \"#utility.yul\":935:938   */\n  dup3\n    /* \"#utility.yul\":928:965   */\n  mstore\n    /* \"#utility.yul\":853:971   */\n  pop\n  pop\n  jump\t// out\n    /* \"#utility.yul\":977:1199   */\ntag_18:\n    /* \"#utility.yul\":1070:1074   */\n  0x00\n    /* \"#utility.yul\":1108:1110   */\n  0x20\n    /* \"#utility.yul\":1097:1106   */\n  dup3\n    /* \"#utility.yul\":1093:1111   */\n  add\n    /* \"#utility.yul\":1085:1111   */\n  swap1\n  pop\n    /* \"#utility.yul\":1121:1192   */\n  tag_75\n    /* \"#utility.yul\":1189:1190   */\n  0x00\n    /* \"#utility.yul\":1178:1187   */\n  dup4\n    /* \"#utility.yul\":1174:1191   */\n  add\n    /* \"#utility.yul\":1165:1171   */\n  dup5\n    /* \"#utility.yul\":1121:1192   */\n  tag_46\n  jump\t// in\ntag_75:\n    /* \"#utility.yul\":977:1199   */\n  swap3\n  swap2\n  pop\n  pop\n  jump\t// out\n    /* \"#utility.yul\":1286:1403   */\ntag_48:\n    /* \"#utility.yul\":1395:1396   */\n  0x00\n    /* \"#utility.yul\":1392:1393   */\n  dup1\n    /* \"#utility.yul\":1385:1397   */\n  revert\n    /* \"#utility.yul\":1532:1658   */\ntag_50:\n    /* \"#utility.yul\":1569:1576   */\n  0x00\n    /* \"#utility.yul\":1609:1651   */\n  0xffffffffffffffffffffffffffffffffffffffff\n    /* \"#utility.yul\":1602:1607   */\n  dup3\n    /* \"#utility.yul\":1598:1652   */\n  and\n    /* \"#utility.yul\":1587:1652   */\n  swap1\n  pop\n    /* \"#utility.yul\":1532:1658   */\n  swap2\n  swap1\n  pop\n  jump\t// out\n    /* \"#utility.yul\":1664:1760   */\ntag_51:\n    /* \"#utility.yul\":1701:1708   */\n  0x00\n    /* \"#utility.yul\":1730:1754   */\n  tag_81\n    /* \"#utility.yul\":1748:1753   */\n  dup3\n    /* \"#utility.yul\":1730:1754   */\n  tag_50\n  jump\t// in\ntag_81:\n    /* \"#utility.yul\":1719:1754   */\n  swap1\n  pop\n    /* \"#utility.yul\":1664:1760   */\n  swap2\n  swap1\n  pop\n  jump\t// out\n    /* \"#utility.yul\":1766:1888   */\ntag_52:\n    /* \"#utility.yul\":1839:1863   */\n  tag_83\n    /* \"#utility.yul\":1857:1862   */\n  dup2\n    /* \"#utility.yul\":1839:1863   */\n  tag_51\n  jump\t// in\ntag_83:\n    /* \"#utility.yul\":1832:1837   */\n  dup2\n    /* \"#utility.yul\":1829:1864   */\n  eq\n    /* \"#utility.yul\":1819:1882   */\n  tag_84\n  jumpi\n    /* \"#utility.yul\":1878:1879   */\n  0x00\n    /* \"#utility.yul\":1875:1876   */\n  dup1\n    /* \"#utility.yul\":1868:1880   */\n  revert\n    /* \"#utility.yul\":1819:1882   */\ntag_84:\n    /* \"#utility.yul\":1766:1888   */\n  pop\n  jump\t// out\n    /* \"#utility.yul\":1894:2037   */\ntag_53:\n    /* \"#utility.yul\":1951:1956   */\n  0x00\n    /* \"#utility.yul\":1982:1988   */\n  dup2\n    /* \"#utility.yul\":1976:1989   */\n  mload\n    /* \"#utility.yul\":1967:1989   */\n  swap1\n  pop\n    /* \"#utility.yul\":1998:2031   */\n  tag_86\n    /* \"#utility.yul\":2025:2030   */\n  dup2\n    /* \"#utility.yul\":1998:2031   */\n  tag_52\n  jump\t// in\ntag_86:\n    /* \"#utility.yul\":1894:2037   */\n  swap3\n  swap2\n  pop\n  pop\n  jump\t// out\n    /* \"#utility.yul\":2043:2394   */\ntag_22:\n    /* \"#utility.yul\":2113:2119   */\n  0x00\n    /* \"#utility.yul\":2162:2164   */\n  0x20\n    /* \"#utility.yul\":2150:2159   */\n  dup3\n    /* \"#utility.yul\":2141:2148   */\n  dup5\n    /* \"#utility.yul\":2137:2160   */\n  sub\n    /* \"#utility.yul\":2133:2165   */\n  slt\n    /* \"#utility.yul\":2130:2249   */\n  iszero\n  tag_88\n  jumpi\n    /* \"#utility.yul\":2168:2247   */\n  tag_89\n  tag_48\n  jump\t// in\ntag_89:\n    /* \"#utility.yul\":2130:2249   */\ntag_88:\n    /* \"#utility.yul\":2288:2289   */\n  0x00\n    /* \"#utility.yul\":2313:2377   */\n  tag_90\n    /* \"#utility.yul\":2369:2376   */\n  dup5\n    /* \"#utility.yul\":2360:2366   */\n  dup3\n    /* \"#utility.yul\":2349:2358   */\n  dup6\n    /* \"#utility.yul\":2345:2367   */\n  add\n    /* \"#utility.yul\":2313:2377   */\n  tag_53\n  jump\t// in\ntag_90:\n    /* \"#utility.yul\":2303:2377   */\n  swap2\n  pop\n    /* \"#utility.yul\":2259:2387   */\n  pop\n    /* \"#utility.yul\":2043:2394   */\n  swap3\n  swap2\n  pop\n  pop\n  jump\t// out\n    /* \"#utility.yul\":2400:2518   */\ntag_54:\n    /* \"#utility.yul\":2487:2511   */\n  tag_92\n    /* \"#utility.yul\":2505:2510   */\n  dup2\n    /* \"#utility.yul\":2487:2511   */\n  tag_51\n  jump\t// in\ntag_92:\n    /* \"#utility.yul\":2482:2485   */\n  dup3\n    /* \"#utility.yul\":2475:2512   */\n  mstore\n    /* \"#utility.yul\":2400:2518   */\n  pop\n  pop\n  jump\t// out\n    /* \"#utility.yul\":2524:2856   */\ntag_27:\n    /* \"#utility.yul\":2645:2649   */\n  0x00\n    /* \"#utility.yul\":2683:2685   */\n  0x40\n    /* \"#utility.yul\":2672:2681   */\n  dup3\n    /* \"#utility.yul\":2668:2686   */\n  add\n    /* \"#utility.yul\":2660:2686   */\n  swap1\n  pop\n    /* \"#utility.yul\":2696:2767   */\n  tag_94\n    /* \"#utility.yul\":2764:2765   */\n  0x00\n    /* \"#utility.yul\":2753:2762   */\n  dup4\n    /* \"#utility.yul\":2749:2766   */\n  add\n    /* \"#utility.yul\":2740:2746   */\n  dup6\n    /* \"#utility.yul\":2696:2767   */\n  tag_54\n  jump\t// in\ntag_94:\n    /* \"#utility.yul\":2777:2849   */\n  tag_95\n    /* \"#utility.yul\":2845:2847   */\n  0x20\n    /* \"#utility.yul\":2834:2843   */\n  dup4\n    /* \"#utility.yul\":2830:2848   */\n  add\n    /* \"#utility.yul\":2821:2827   */\n  dup5\n    /* \"#utility.yul\":2777:2849   */\n  tag_54\n  jump\t// in\ntag_95:\n    /* \"#utility.yul\":2524:2856   */\n  swap4\n  swap3\n  pop\n  pop\n  pop\n  jump\t// out\n    /* \"#utility.yul\":2862:3031   */\ntag_55:\n    /* \"#utility.yul\":2946:2957   */\n  0x00\n    /* \"#utility.yul\":2980:2986   */\n  dup3\n    /* \"#utility.yul\":2975:2978   */\n  dup3\n    /* \"#utility.yul\":2968:2987   */\n  mstore\n    /* \"#utility.yul\":3020:3024   */\n  0x20\n    /* \"#utility.yul\":3015:3018   */\n  dup3\n    /* \"#utility.yul\":3011:3025   */\n  add\n    /* \"#utility.yul\":2996:3025   */\n  swap1\n  pop\n    /* \"#utility.yul\":2862:3031   */\n  swap3\n  swap2\n  pop\n  pop\n  jump\t// out\n    /* \"#utility.yul\":3037:3206   */\ntag_56:\n    /* \"#utility.yul\":3177:3198   */\n  0x45524332303a205a65726f204164647265737300000000000000000000000000\n    /* \"#utility.yul\":3173:3174   */\n  0x00\n    /* \"#utility.yul\":3165:3171   */\n  dup3\n    /* \"#utility.yul\":3161:3175   */\n  add\n    /* \"#utility.yul\":3154:3199   */\n  mstore\n    /* \"#utility.yul\":3037:3206   */\n  pop\n  jump\t// out\n    /* \"#utility.yul\":3212:3578   */\ntag_57:\n    /* \"#utility.yul\":3354:3357   */\n  0x00\n    /* \"#utility.yul\":3375:3442   */\n  tag_99\n    /* \"#utility.yul\":3439:3441   */\n  0x13\n    /* \"#utility.yul\":3434:3437   */\n  dup4\n    /* \"#utility.yul\":3375:3442   */\n  tag_55\n  jump\t// in\ntag_99:\n    /* \"#utility.yul\":3368:3442   */\n  swap2\n  pop\n    /* \"#utility.yul\":3451:3544   */\n  tag_100\n    /* \"#utility.yul\":3540:3543   */\n  dup3\n    /* \"#utility.yul\":3451:3544   */\n  tag_56\n  jump\t// in\ntag_100:\n    /* \"#utility.yul\":3569:3571   */\n  0x20\n    /* \"#utility.yul\":3564:3567   */\n  dup3\n    /* \"#utility.yul\":3560:3572   */\n  add\n    /* \"#utility.yul\":3553:3572   */\n  swap1\n  pop\n    /* \"#utility.yul\":3212:3578   */\n  swap2\n  swap1\n  pop\n  jump\t// out\n    /* \"#utility.yul\":3584:4003   */\ntag_40:\n    /* \"#utility.yul\":3750:3754   */\n  0x00\n    /* \"#utility.yul\":3788:3790   */\n  0x20\n    /* \"#utility.yul\":3777:3786   */\n  dup3\n    /* \"#utility.yul\":3773:3791   */\n  add\n    /* \"#utility.yul\":3765:3791   */\n  swap1\n  pop\n    /* \"#utility.yul\":3837:3846   */\n  dup2\n    /* \"#utility.yul\":3831:3835   */\n  dup2\n    /* \"#utility.yul\":3827:3847   */\n  sub\n    /* \"#utility.yul\":3823:3824   */\n  0x00\n    /* \"#utility.yul\":3812:3821   */\n  dup4\n    /* \"#utility.yul\":3808:3825   */\n  add\n    /* \"#utility.yul\":3801:3848   */\n  mstore\n    /* \"#utility.yul\":3865:3996   */\n  tag_102\n    /* \"#utility.yul\":3991:3995   */\n  dup2\n    /* \"#utility.yul\":3865:3996   */\n  tag_57\n  jump\t// in\ntag_102:\n    /* \"#utility.yul\":3857:3996   */\n  swap1\n  pop\n    /* \"#utility.yul\":3584:4003   */\n  swap2\n  swap1\n  pop\n  jump\t// out\n    /* \"contracts/oatfinalprod.sol\":6071:16527  contract OneAnonataTime is Context, Ownable, IERC20 {... */\ntag_34:\n  dataSize(sub_0)\n  dup1\n  dataOffset(sub_0)\n  0x00\n  codecopy\n  0x00\n  return\nstop\n\nsub_0: assembly {\n        /* \"contracts/oatfinalprod.sol\":6071:16527  contract OneAnonataTime is Context, Ownable, IERC20 {... */\n      mstore(0x40, 0x80)\n      jumpi(tag_1, lt(calldatasize, 0x04))\n      shr(0xe0, calldataload(0x00))\n      dup1\n      0x893d20e8\n      gt\n      tag_37\n      jumpi\n      dup1\n      0xc226de76\n      gt\n      tag_38\n      jumpi\n      dup1\n      0xce004a07\n      gt\n      tag_39\n      jumpi\n      dup1\n      0xce004a07\n      eq\n      tag_32\n      jumpi\n      dup1\n      0xdc9d75b0\n      eq\n      tag_33\n      jumpi\n      dup1\n      0xdd62ed3e\n      eq\n      tag_34\n      jumpi\n      dup1\n      0xe9451f5f\n      eq\n      tag_35\n      jumpi\n      dup1\n      0xf2fde38b\n      eq\n      tag_36\n      jumpi\n      jump(tag_2)\n    tag_39:\n      dup1\n      0xc226de76\n      eq\n      tag_28\n      jumpi\n      dup1\n      0xc2e4ef79\n      eq\n      tag_29\n      jumpi\n      dup1\n      0xc31c9c07\n      eq\n      tag_30\n      jumpi\n      dup1\n      0xc876d0b9\n      eq\n      tag_31\n      jumpi\n      jump(tag_2)\n    tag_38:\n      dup1\n      0xa01c3483\n      gt\n      tag_40\n      jumpi\n      dup1\n      0xa01c3483\n      eq\n      tag_24\n      jumpi\n      dup1\n      0xa07d38dc\n      eq\n      tag_25\n      jumpi\n      dup1\n      0xa2747da2\n      eq\n      tag_26\n      jumpi\n      dup1\n      0xa9059cbb\n      eq\n      tag_27\n      jumpi\n      jump(tag_2)\n    tag_40:\n      dup1\n      0x893d20e8\n      eq\n      tag_20\n      jumpi\n      dup1\n      0x8da5cb5b\n      eq\n      tag_21\n      jumpi\n      dup1\n      0x8f9a55c0\n      eq\n      tag_22\n      jumpi\n      dup1\n      0x95d89b41\n      eq\n      tag_23\n      jumpi\n      jump(tag_2)\n    tag_37:\n      dup1\n      0x313ce567\n      gt\n      tag_41\n      jumpi\n      dup1\n      0x694e80c3\n      gt\n      tag_42\n      jumpi\n      dup1\n      0x694e80c3\n      eq\n      tag_15\n      jumpi\n      dup1\n      0x70a08231\n      eq\n      tag_16\n      jumpi\n      dup1\n      0x715018a6\n      eq\n      tag_17\n      jumpi\n      dup1\n      0x771af866\n      eq\n      tag_18\n      jumpi\n      dup1\n      0x7d1db4a5\n      eq\n      tag_19\n      jumpi\n      jump(tag_2)\n    tag_42:\n      dup1\n      0x313ce567\n      eq\n      tag_11\n      jumpi\n      dup1\n      0x452ed4f1\n      eq\n      tag_12\n      jumpi\n      dup1\n      0x4c1b4031\n      eq\n      tag_13\n      jumpi\n      dup1\n      0x51bc3c85\n      eq\n      tag_14\n      jumpi\n      jump(tag_2)\n    tag_41:\n      dup1\n      0x23b872dd\n      gt\n      tag_43\n      jumpi\n      dup1\n      0x23b872dd\n      eq\n      tag_7\n      jumpi\n      dup1\n      0x27889862\n      eq\n      tag_8\n      jumpi\n      dup1\n      0x2b112e49\n      eq\n      tag_9\n      jumpi\n      dup1\n      0x30db2c12\n      eq\n      tag_10\n      jumpi\n      jump(tag_2)\n    tag_43:\n      dup1\n      0x0445b667\n      eq\n      tag_3\n      jumpi\n      dup1\n      0x06fdde03\n      eq\n      tag_4\n      jumpi\n      dup1\n      0x095ea7b3\n      eq\n      tag_5\n      jumpi\n      dup1\n      0x18160ddd\n      eq\n      tag_6\n      jumpi\n      jump(tag_2)\n    tag_1:\n      jumpi(tag_2, calldatasize)\n      stop\n    tag_2:\n      0x00\n      dup1\n      revert\n        /* \"contracts/oatfinalprod.sol\":7512:7548  uint256 public swapThreshold = 5_000 */\n    tag_3:\n      callvalue\n      dup1\n      iszero\n      tag_46\n      jumpi\n      0x00\n      dup1\n      revert\n    tag_46:\n      pop\n      tag_47\n      tag_48\n      jump\t// in\n    tag_47:\n      mload(0x40)\n      tag_49\n      swap2\n      swap1\n      tag_50\n      jump\t// in\n    tag_49:\n      mload(0x40)\n      dup1\n      swap2\n      sub\n      swap1\n      return\n        /* \"contracts/oatfinalprod.sol\":6565:6657  function name() external pure override returns (string memory) {... */\n    tag_4:\n      callvalue\n      dup1\n      iszero\n      tag_51\n      jumpi\n      0x00\n      dup1\n      revert\n    tag_51:\n      pop\n      tag_52\n      tag_53\n      jump\t// in\n    tag_52:\n      mload(0x40)\n      tag_54\n      swap2\n      swap1\n      tag_55\n      jump\t// in\n    tag_54:\n      mload(0x40)\n      dup1\n      swap2\n      sub\n      swap1\n      return\n        /* \"contracts/oatfinalprod.sol\":9986:10172  function approve(address spender, uint256 amount)... */\n    tag_5:\n      callvalue\n      dup1\n      iszero\n      tag_56\n      jumpi\n      0x00\n      dup1\n      revert\n    tag_56:\n      pop\n      tag_57\n      0x04\n      dup1\n      calldatasize\n      sub\n      dup2\n      add\n      swap1\n      tag_58\n      swap2\n      swap1\n      tag_59\n      jump\t// in\n    tag_58:\n      tag_60\n      jump\t// in\n    tag_57:\n      mload(0x40)\n      tag_61\n      swap2\n      swap1\n      tag_62\n      jump\t// in\n    tag_61:\n      mload(0x40)\n      dup1\n      swap2\n      sub\n      swap1\n      return\n        /* \"contracts/oatfinalprod.sol\":6129:6294  function totalSupply() external pure override returns (uint256) {... */\n    tag_6:\n      callvalue\n      dup1\n      iszero\n      tag_63\n      jumpi\n      0x00\n      dup1\n      revert\n    tag_63:\n      pop\n      tag_64\n      tag_65\n      jump\t// in\n    tag_64:\n      mload(0x40)\n      tag_66\n      swap2\n      swap1\n      tag_50\n      jump\t// in\n    tag_66:\n      mload(0x40)\n      dup1\n      swap2\n      sub\n      swap1\n      return\n        /* \"contracts/oatfinalprod.sol\":10469:10799  function transferFrom(... */\n    tag_7:\n      callvalue\n      dup1\n      iszero\n      tag_67\n      jumpi\n      0x00\n      dup1\n      revert\n    tag_67:\n      pop\n      tag_68\n      0x04\n      dup1\n      calldatasize\n      sub\n      dup2\n      add\n      swap1\n      tag_69\n      swap2\n      swap1\n      tag_70\n      jump\t// in\n    tag_69:\n      tag_71\n      jump\t// in\n    tag_68:\n      mload(0x40)\n      tag_72\n      swap2\n      swap1\n      tag_62\n      jump\t// in\n    tag_72:\n      mload(0x40)\n      dup1\n      swap2\n      sub\n      swap1\n      return\n        /* \"contracts/oatfinalprod.sol\":10805:10913  function isNoFeeWallet(address account) external view returns (bool) {... */\n    tag_8:\n      callvalue\n      dup1\n      iszero\n      tag_73\n      jumpi\n      0x00\n      dup1\n      revert\n    tag_73:\n      pop\n      tag_74\n      0x04\n      dup1\n      calldatasize\n      sub\n      dup2\n      add\n      swap1\n      tag_75\n      swap2\n      swap1\n      tag_76\n      jump\t// in\n    tag_75:\n      tag_77\n      jump\t// in\n    tag_74:\n      mload(0x40)\n      tag_78\n      swap2\n      swap1\n      tag_62\n      jump\t// in\n    tag_78:\n      mload(0x40)\n      dup1\n      swap2\n      sub\n      swap1\n      return\n        /* \"contracts/oatfinalprod.sol\":9629:9747  function getCirculatingSupply() public view returns (uint256) {... */\n    tag_9:\n      callvalue\n      dup1\n      iszero\n      tag_79\n      jumpi\n      0x00\n      dup1\n      revert\n    tag_79:\n      pop\n      tag_80\n      tag_81\n      jump\t// in\n    tag_80:\n      mload(0x40)\n      tag_82\n      swap2\n      swap1\n      tag_50\n      jump\t// in\n    tag_82:\n      mload(0x40)\n      dup1\n      swap2\n      sub\n      swap1\n      return\n        /* \"contracts/oatfinalprod.sol\":15548:15816  function setJaredSellFee(uint256 newFee) external {... */\n    tag_10:\n      callvalue\n      dup1\n      iszero\n      tag_83\n      jumpi\n      0x00\n      dup1\n      revert\n    tag_83:\n      pop\n      tag_84\n      0x04\n      dup1\n      calldatasize\n      sub\n      dup2\n      add\n      swap1\n      tag_85\n      swap2\n      swap1\n      tag_86\n      jump\t// in\n    tag_85:\n      tag_87\n      jump\t// in\n    tag_84:\n      stop\n        /* \"contracts/oatfinalprod.sol\":6300:6457  function decimals() external pure override returns (uint8) {... */\n    tag_11:\n      callvalue\n      dup1\n      iszero\n      tag_88\n      jumpi\n      0x00\n      dup1\n      revert\n    tag_88:\n      pop\n      tag_89\n      tag_90\n      jump\t// in\n    tag_89:\n      mload(0x40)\n      tag_91\n      swap2\n      swap1\n      tag_92\n      jump\t// in\n    tag_91:\n      mload(0x40)\n      dup1\n      swap2\n      sub\n      swap1\n      return\n        /* \"contracts/oatfinalprod.sol\":8205:8226  address public lpPair */\n    tag_12:\n      callvalue\n      dup1\n      iszero\n      tag_93\n      jumpi\n      0x00\n      dup1\n      revert\n    tag_93:\n      pop\n      tag_94\n      tag_95\n      jump\t// in\n    tag_94:\n      mload(0x40)\n      tag_96\n      swap2\n      swap1\n      tag_97\n      jump\t// in\n    tag_96:\n      mload(0x40)\n      dup1\n      swap2\n      sub\n      swap1\n      return\n        /* \"contracts/oatfinalprod.sol\":16068:16251  function removefromtNofee(address noFeeAddress) external {... */\n    tag_13:\n      callvalue\n      dup1\n      iszero\n      tag_98\n      jumpi\n      0x00\n      dup1\n      revert\n    tag_98:\n      pop\n      tag_99\n      0x04\n      dup1\n      calldatasize\n      sub\n      dup2\n      add\n      swap1\n      tag_100\n      swap2\n      swap1\n      tag_76\n      jump\t// in\n    tag_100:\n      tag_101\n      jump\t// in\n    tag_99:\n      stop\n        /* \"contracts/oatfinalprod.sol\":16257:16525  function manualSwap() external {... */\n    tag_14:\n      callvalue\n      dup1\n      iszero\n      tag_102\n      jumpi\n      0x00\n      dup1\n      revert\n    tag_102:\n      pop\n      tag_103\n      tag_104\n      jump\t// in\n    tag_103:\n      stop\n        /* \"contracts/oatfinalprod.sol\":14827:15098  function changeThreshold(uint256 amount) external {... */\n    tag_15:\n      callvalue\n      dup1\n      iszero\n      tag_105\n      jumpi\n      0x00\n      dup1\n      revert\n    tag_105:\n      pop\n      tag_106\n      0x04\n      dup1\n      calldatasize\n      sub\n      dup2\n      add\n      swap1\n      tag_107\n      swap2\n      swap1\n      tag_86\n      jump\t// in\n    tag_107:\n      tag_108\n      jump\t// in\n    tag_106:\n      stop\n        /* \"contracts/oatfinalprod.sol\":6948:7063  function balanceOf(address account) public view override returns (uint256) {... */\n    tag_16:\n      callvalue\n      dup1\n      iszero\n      tag_109\n      jumpi\n      0x00\n      dup1\n      revert\n    tag_109:\n      pop\n      tag_110\n      0x04\n      dup1\n      calldatasize\n      sub\n      dup2\n      add\n      swap1\n      tag_111\n      swap2\n      swap1\n      tag_76\n      jump\t// in\n    tag_111:\n      tag_112\n      jump\t// in\n    tag_110:\n      mload(0x40)\n      tag_113\n      swap2\n      swap1\n      tag_50\n      jump\t// in\n    tag_113:\n      mload(0x40)\n      dup1\n      swap2\n      sub\n      swap1\n      return\n        /* \"contracts/oatfinalprod.sol\":1912:2004  function renounceOwnership() public virtual onlyOwner {... */\n    tag_17:\n      callvalue\n      dup1\n      iszero\n      tag_114\n      jumpi\n      0x00\n      dup1\n      revert\n    tag_114:\n      pop\n      tag_115\n      tag_116\n      jump\t// in\n    tag_115:\n      stop\n        /* \"contracts/oatfinalprod.sol\":15356:15542  function removeJaredAddress(address jaredAddress) external {... */\n    tag_18:\n      callvalue\n      dup1\n      iszero\n      tag_117\n      jumpi\n      0x00\n      dup1\n      revert\n    tag_117:\n      pop\n      tag_118\n      0x04\n      dup1\n      calldatasize\n      sub\n      dup2\n      add\n      swap1\n      tag_119\n      swap2\n      swap1\n      tag_76\n      jump\t// in\n    tag_119:\n      tag_120\n      jump\t// in\n    tag_118:\n      stop\n        /* \"contracts/oatfinalprod.sol\":7758:7785  uint256 public _maxTxAmount */\n    tag_19:\n      callvalue\n      dup1\n      iszero\n      tag_121\n      jumpi\n      0x00\n      dup1\n      revert\n    tag_121:\n      pop\n      tag_122\n      tag_123\n      jump\t// in\n    tag_122:\n      mload(0x40)\n      tag_124\n      swap2\n      swap1\n      tag_50\n      jump\t// in\n    tag_124:\n      mload(0x40)\n      dup1\n      swap2\n      sub\n      swap1\n      return\n        /* \"contracts/oatfinalprod.sol\":6663:6755  function getOwner() external view override returns (address) {... */\n    tag_20:\n      callvalue\n      dup1\n      iszero\n      tag_125\n      jumpi\n      0x00\n      dup1\n      revert\n    tag_125:\n      pop\n      tag_126\n      tag_127\n      jump\t// in\n    tag_126:\n      mload(0x40)\n      tag_128\n      swap2\n      swap1\n      tag_97\n      jump\t// in\n    tag_128:\n      mload(0x40)\n      dup1\n      swap2\n      sub\n      swap1\n      return\n        /* \"contracts/oatfinalprod.sol\":1698:1783  function owner() public view virtual returns (address) {... */\n    tag_21:\n      callvalue\n      dup1\n      iszero\n      tag_129\n      jumpi\n      0x00\n      dup1\n      revert\n    tag_129:\n      pop\n      tag_130\n      tag_131\n      jump\t// in\n    tag_130:\n      mload(0x40)\n      tag_132\n      swap2\n      swap1\n      tag_97\n      jump\t// in\n    tag_132:\n      mload(0x40)\n      dup1\n      swap2\n      sub\n      swap1\n      return\n        /* \"contracts/oatfinalprod.sol\":7791:7820  uint256 public _maxWalletSize */\n    tag_22:\n      callvalue\n      dup1\n      iszero\n      tag_133\n      jumpi\n      0x00\n      dup1\n      revert\n    tag_133:\n      pop\n      tag_134\n      tag_135\n      jump\t// in\n    tag_134:\n      mload(0x40)\n      tag_136\n      swap2\n      swap1\n      tag_50\n      jump\t// in\n    tag_136:\n      mload(0x40)\n      dup1\n      swap2\n      sub\n      swap1\n      return\n        /* \"contracts/oatfinalprod.sol\":6463:6559  function symbol() external pure override returns (string memory) {... */\n    tag_23:\n      callvalue\n      dup1\n      iszero\n      tag_137\n      jumpi\n      0x00\n      dup1\n      revert\n    tag_137:\n      pop\n      tag_138\n      tag_139\n      jump\t// in\n    tag_138:\n      mload(0x40)\n      tag_140\n      swap2\n      swap1\n      tag_55\n      jump\t// in\n    tag_140:\n      mload(0x40)\n      dup1\n      swap2\n      sub\n      swap1\n      return\n        /* \"contracts/oatfinalprod.sol\":8111:8199  address public constant DEAD_WALLET =... */\n    tag_24:\n      callvalue\n      dup1\n      iszero\n      tag_141\n      jumpi\n      0x00\n      dup1\n      revert\n    tag_141:\n      pop\n      tag_142\n      tag_143\n      jump\t// in\n    tag_142:\n      mload(0x40)\n      tag_144\n      swap2\n      swap1\n      tag_97\n      jump\t// in\n    tag_144:\n      mload(0x40)\n      dup1\n      swap2\n      sub\n      swap1\n      return\n        /* \"contracts/oatfinalprod.sol\":7586:7617  uint256 public tempsellfee = 20 */\n    tag_25:\n      callvalue\n      dup1\n      iszero\n      tag_145\n      jumpi\n      0x00\n      dup1\n      revert\n    tag_145:\n      pop\n      tag_146\n      tag_147\n      jump\t// in\n    tag_146:\n      mload(0x40)\n      tag_148\n      swap2\n      swap1\n      tag_50\n      jump\t// in\n    tag_148:\n      mload(0x40)\n      dup1\n      swap2\n      sub\n      swap1\n      return\n        /* \"contracts/oatfinalprod.sol\":15104:15350  function addJaredAddress(address jaredAddress) external {... */\n    tag_26:\n      callvalue\n      dup1\n      iszero\n      tag_149\n      jumpi\n      0x00\n      dup1\n      revert\n    tag_149:\n      pop\n      tag_150\n      0x04\n      dup1\n      calldatasize\n      sub\n      dup2\n      add\n      swap1\n      tag_151\n      swap2\n      swap1\n      tag_76\n      jump\t// in\n    tag_151:\n      tag_152\n      jump\t// in\n    tag_150:\n      stop\n        /* \"contracts/oatfinalprod.sol\":9790:9980  function transfer(address recipient, uint256 amount)... */\n    tag_27:\n      callvalue\n      dup1\n      iszero\n      tag_153\n      jumpi\n      0x00\n      dup1\n      revert\n    tag_153:\n      pop\n      tag_154\n      0x04\n      dup1\n      calldatasize\n      sub\n      dup2\n      add\n      swap1\n      tag_155\n      swap2\n      swap1\n      tag_59\n      jump\t// in\n    tag_155:\n      tag_156\n      jump\t// in\n    tag_154:\n      mload(0x40)\n      tag_157\n      swap2\n      swap1\n      tag_62\n      jump\t// in\n    tag_157:\n      mload(0x40)\n      dup1\n      swap2\n      sub\n      swap1\n      return\n        /* \"contracts/oatfinalprod.sol\":11043:11160  function isNofeeAddress(address noFeeAddress) public view returns (bool) {... */\n    tag_28:\n      callvalue\n      dup1\n      iszero\n      tag_158\n      jumpi\n      0x00\n      dup1\n      revert\n    tag_158:\n      pop\n      tag_159\n      0x04\n      dup1\n      calldatasize\n      sub\n      dup2\n      add\n      swap1\n      tag_160\n      swap2\n      swap1\n      tag_76\n      jump\t// in\n    tag_160:\n      tag_161\n      jump\t// in\n    tag_159:\n      mload(0x40)\n      tag_162\n      swap2\n      swap1\n      tag_62\n      jump\t// in\n    tag_162:\n      mload(0x40)\n      dup1\n      swap2\n      sub\n      swap1\n      return\n        /* \"contracts/oatfinalprod.sol\":10919:11037  function isJaredAddress(address jaredAddress) public view returns (bool) {... */\n    tag_29:\n      callvalue\n      dup1\n      iszero\n      tag_163\n      jumpi\n      0x00\n      dup1\n      revert\n    tag_163:\n      pop\n      tag_164\n      0x04\n      dup1\n      calldatasize\n      sub\n      dup2\n      add\n      swap1\n      tag_165\n      swap2\n      swap1\n      tag_76\n      jump\t// in\n    tag_165:\n      tag_166\n      jump\t// in\n    tag_164:\n      mload(0x40)\n      tag_167\n      swap2\n      swap1\n      tag_62\n      jump\t// in\n    tag_167:\n      mload(0x40)\n      dup1\n      swap2\n      sub\n      swap1\n      return\n        /* \"contracts/oatfinalprod.sol\":7927:7954  IRouter02 public swapRouter */\n    tag_30:\n      callvalue\n      dup1\n      iszero\n      tag_168\n      jumpi\n      0x00\n      dup1\n      revert\n    tag_168:\n      pop\n      tag_169\n      tag_170\n      jump\t// in\n    tag_169:\n      mload(0x40)\n      tag_171\n      swap2\n      swap1\n      tag_172\n      jump\t// in\n    tag_171:\n      mload(0x40)\n      dup1\n      swap2\n      sub\n      swap1\n      return\n        /* \"contracts/oatfinalprod.sol\":7399:7439  bool public transferDelayEnabled = false */\n    tag_31:\n      callvalue\n      dup1\n      iszero\n      tag_173\n      jumpi\n      0x00\n      dup1\n      revert\n    tag_173:\n      pop\n      tag_174\n      tag_175\n      jump\t// in\n    tag_174:\n      mload(0x40)\n      tag_176\n      swap2\n      swap1\n      tag_62\n      jump\t// in\n    tag_176:\n      mload(0x40)\n      dup1\n      swap2\n      sub\n      swap1\n      return\n        /* \"contracts/oatfinalprod.sol\":15822:16062  function addtoNofee(address noFeeAddress) external {... */\n    tag_32:\n      callvalue\n      dup1\n      iszero\n      tag_177\n      jumpi\n      0x00\n      dup1\n      revert\n    tag_177:\n      pop\n      tag_178\n      0x04\n      dup1\n      calldatasize\n      sub\n      dup2\n      add\n      swap1\n      tag_179\n      swap2\n      swap1\n      tag_76\n      jump\t// in\n    tag_179:\n      tag_180\n      jump\t// in\n    tag_178:\n      stop\n        /* \"contracts/oatfinalprod.sol\":7706:7751  uint256 public constant fee_denominator = 100 */\n    tag_33:\n      callvalue\n      dup1\n      iszero\n      tag_181\n      jumpi\n      0x00\n      dup1\n      revert\n    tag_181:\n      pop\n      tag_182\n      tag_183\n      jump\t// in\n    tag_182:\n      mload(0x40)\n      tag_184\n      swap2\n      swap1\n      tag_50\n      jump\t// in\n    tag_184:\n      mload(0x40)\n      dup1\n      swap2\n      sub\n      swap1\n      return\n        /* \"contracts/oatfinalprod.sol\":6761:6942  function allowance(address holder, address spender)... */\n    tag_34:\n      callvalue\n      dup1\n      iszero\n      tag_185\n      jumpi\n      0x00\n      dup1\n      revert\n    tag_185:\n      pop\n      tag_186\n      0x04\n      dup1\n      calldatasize\n      sub\n      dup2\n      add\n      swap1\n      tag_187\n      swap2\n      swap1\n      tag_188\n      jump\t// in\n    tag_187:\n      tag_189\n      jump\t// in\n    tag_186:\n      mload(0x40)\n      tag_190\n      swap2\n      swap1\n      tag_50\n      jump\t// in\n    tag_190:\n      mload(0x40)\n      dup1\n      swap2\n      sub\n      swap1\n      return\n        /* \"contracts/oatfinalprod.sol\":7554:7580  uint256 public sellfee = 2 */\n    tag_35:\n      callvalue\n      dup1\n      iszero\n      tag_191\n      jumpi\n      0x00\n      dup1\n      revert\n    tag_191:\n      pop\n      tag_192\n      tag_193\n      jump\t// in\n    tag_192:\n      mload(0x40)\n      tag_194\n      swap2\n      swap1\n      tag_50\n      jump\t// in\n    tag_194:\n      mload(0x40)\n      dup1\n      swap2\n      sub\n      swap1\n      return\n        /* \"contracts/oatfinalprod.sol\":2010:2233  function transferOwnership(address newOwner) public virtual onlyOwner {... */\n    tag_36:\n      callvalue\n      dup1\n      iszero\n      tag_195\n      jumpi\n      0x00\n      dup1\n      revert\n    tag_195:\n      pop\n      tag_196\n      0x04\n      dup1\n      calldatasize\n      sub\n      dup2\n      add\n      swap1\n      tag_197\n      swap2\n      swap1\n      tag_76\n      jump\t// in\n    tag_197:\n      tag_198\n      jump\t// in\n    tag_196:\n      stop\n        /* \"contracts/oatfinalprod.sol\":7512:7548  uint256 public swapThreshold = 5_000 */\n    tag_48:\n      sload(0x08)\n      dup2\n      jump\t// out\n        /* \"contracts/oatfinalprod.sol\":6565:6657  function name() external pure override returns (string memory) {... */\n    tag_53:\n        /* \"contracts/oatfinalprod.sol\":6613:6626  string memory */\n      0x60\n        /* \"contracts/oatfinalprod.sol\":6645:6650  _name */\n      mload(0x40)\n      dup1\n      0x40\n      add\n      0x40\n      mstore\n      dup1\n      0x08\n      dup2\n      mstore\n      0x20\n      add\n      0x4f6e6520416e6f6e000000000000000000000000000000000000000000000000\n      dup2\n      mstore\n      pop\n        /* \"contracts/oatfinalprod.sol\":6638:6650  return _name */\n      swap1\n      pop\n        /* \"contracts/oatfinalprod.sol\":6565:6657  function name() external pure override returns (string memory) {... */\n      swap1\n      jump\t// out\n        /* \"contracts/oatfinalprod.sol\":9986:10172  function approve(address spender, uint256 amount)... */\n    tag_60:\n        /* \"contracts/oatfinalprod.sol\":10087:10091  bool */\n      0x00\n        /* \"contracts/oatfinalprod.sol\":10107:10144  _approve(msg.sender, spender, amount) */\n      tag_201\n        /* \"contracts/oatfinalprod.sol\":10116:10126  msg.sender */\n      caller\n        /* \"contracts/oatfinalprod.sol\":10128:10135  spender */\n      dup5\n        /* \"contracts/oatfinalprod.sol\":10137:10143  amount */\n      dup5\n        /* \"contracts/oatfinalprod.sol\":10107:10115  _approve */\n      tag_202\n        /* \"contracts/oatfinalprod.sol\":10107:10144  _approve(msg.sender, spender, amount) */\n      jump\t// in\n    tag_201:\n        /* \"contracts/oatfinalprod.sol\":10161:10165  true */\n      0x01\n        /* \"contracts/oatfinalprod.sol\":10154:10165  return true */\n      swap1\n      pop\n        /* \"contracts/oatfinalprod.sol\":9986:10172  function approve(address spender, uint256 amount)... */\n      swap3\n      swap2\n      pop\n      pop\n      jump\t// out\n        /* \"contracts/oatfinalprod.sol\":6129:6294  function totalSupply() external pure override returns (uint256) {... */\n    tag_65:\n        /* \"contracts/oatfinalprod.sol\":6184:6191  uint256 */\n      0x00\n        /* \"contracts/oatfinalprod.sol\":6223:6224  0 */\n      dup1\n        /* \"contracts/oatfinalprod.sol\":7486:7506  200_000_000 * 10**18 */\n      0xa56fa5b99019a5c8000000\n        /* \"contracts/oatfinalprod.sol\":6207:6224  _totalSupply == 0 */\n      sub\n        /* \"contracts/oatfinalprod.sol\":6203:6259  if (_totalSupply == 0) {... */\n      tag_204\n      jumpi\n        /* \"contracts/oatfinalprod.sol\":6240:6248  revert() */\n      0x00\n      dup1\n      revert\n        /* \"contracts/oatfinalprod.sol\":6203:6259  if (_totalSupply == 0) {... */\n    tag_204:\n        /* \"contracts/oatfinalprod.sol\":7486:7506  200_000_000 * 10**18 */\n      0xa56fa5b99019a5c8000000\n        /* \"contracts/oatfinalprod.sol\":6268:6287  return _totalSupply */\n      swap1\n      pop\n        /* \"contracts/oatfinalprod.sol\":6129:6294  function totalSupply() external pure override returns (uint256) {... */\n      swap1\n      jump\t// out\n        /* \"contracts/oatfinalprod.sol\":10469:10799  function transferFrom(... */\n    tag_71:\n        /* \"contracts/oatfinalprod.sol\":10599:10603  bool */\n      0x00\n        /* \"contracts/oatfinalprod.sol\":10654:10671  type(uint256).max */\n      0xffffffffffffffffffffffffffffffffffffffffffffffffffffffffffffffff\n        /* \"contracts/oatfinalprod.sol\":10619:10630  _allowances */\n      0x01\n        /* \"contracts/oatfinalprod.sol\":10619:10638  _allowances[sender] */\n      0x00\n        /* \"contracts/oatfinalprod.sol\":10631:10637  sender */\n      dup7\n        /* \"contracts/oatfinalprod.sol\":10619:10638  _allowances[sender] */\n      0xffffffffffffffffffffffffffffffffffffffff\n      and\n      0xffffffffffffffffffffffffffffffffffffffff\n      and\n      dup2\n      mstore\n      0x20\n      add\n      swap1\n      dup2\n      mstore\n      0x20\n      add\n      0x00\n      keccak256\n        /* \"contracts/oatfinalprod.sol\":10619:10650  _allowances[sender][msg.sender] */\n      0x00\n        /* \"contracts/oatfinalprod.sol\":10639:10649  msg.sender */\n      caller\n        /* \"contracts/oatfinalprod.sol\":10619:10650  _allowances[sender][msg.sender] */\n      0xffffffffffffffffffffffffffffffffffffffff\n      and\n      0xffffffffffffffffffffffffffffffffffffffff\n      and\n      dup2\n      mstore\n      0x20\n      add\n      swap1\n      dup2\n      mstore\n      0x20\n      add\n      0x00\n      keccak256\n      sload\n        /* \"contracts/oatfinalprod.sol\":10619:10671  _allowances[sender][msg.sender] != type(uint256).max */\n      eq\n        /* \"contracts/oatfinalprod.sol\":10615:10739  if (_allowances[sender][msg.sender] != type(uint256).max) {... */\n      tag_206\n      jumpi\n        /* \"contracts/oatfinalprod.sol\":10722:10728  amount */\n      dup2\n        /* \"contracts/oatfinalprod.sol\":10687:10698  _allowances */\n      0x01\n        /* \"contracts/oatfinalprod.sol\":10687:10706  _allowances[sender] */\n      0x00\n        /* \"contracts/oatfinalprod.sol\":10699:10705  sender */\n      dup7\n        /* \"contracts/oatfinalprod.sol\":10687:10706  _allowances[sender] */\n      0xffffffffffffffffffffffffffffffffffffffff\n      and\n      0xffffffffffffffffffffffffffffffffffffffff\n      and\n      dup2\n      mstore\n      0x20\n      add\n      swap1\n      dup2\n      mstore\n      0x20\n      add\n      0x00\n      keccak256\n        /* \"contracts/oatfinalprod.sol\":10687:10718  _allowances[sender][msg.sender] */\n      0x00\n        /* \"contracts/oatfinalprod.sol\":10707:10717  msg.sender */\n      caller\n        /* \"contracts/oatfinalprod.sol\":10687:10718  _allowances[sender][msg.sender] */\n      0xffffffffffffffffffffffffffffffffffffffff\n      and\n      0xffffffffffffffffffffffffffffffffffffffff\n      and\n      dup2\n      mstore\n      0x20\n      add\n      swap1\n      dup2\n      mstore\n      0x20\n      add\n      0x00\n      keccak256\n      0x00\n        /* \"contracts/oatfinalprod.sol\":10687:10728  _allowances[sender][msg.sender] -= amount */\n      dup3\n      dup3\n      sload\n      tag_207\n      swap2\n      swap1\n      tag_208\n      jump\t// in\n    tag_207:\n      swap3\n      pop\n      pop\n      dup2\n      swap1\n      sstore\n      pop\n        /* \"contracts/oatfinalprod.sol\":10615:10739  if (_allowances[sender][msg.sender] != type(uint256).max) {... */\n    tag_206:\n        /* \"contracts/oatfinalprod.sol\":10756:10792  _transfer(sender, recipient, amount) */\n      tag_209\n        /* \"contracts/oatfinalprod.sol\":10766:10772  sender */\n      dup5\n        /* \"contracts/oatfinalprod.sol\":10774:10783  recipient */\n      dup5\n        /* \"contracts/oatfinalprod.sol\":10785:10791  amount */\n      dup5\n        /* \"contracts/oatfinalprod.sol\":10756:10765  _transfer */\n      tag_210\n        /* \"contracts/oatfinalprod.sol\":10756:10792  _transfer(sender, recipient, amount) */\n      jump\t// in\n    tag_209:\n        /* \"contracts/oatfinalprod.sol\":10749:10792  return _transfer(sender, recipient, amount) */\n      swap1\n      pop\n        /* \"contracts/oatfinalprod.sol\":10469:10799  function transferFrom(... */\n      swap4\n      swap3\n      pop\n      pop\n      pop\n      jump\t// out\n        /* \"contracts/oatfinalprod.sol\":10805:10913  function isNoFeeWallet(address account) external view returns (bool) {... */\n    tag_77:\n        /* \"contracts/oatfinalprod.sol\":10868:10872  bool */\n      0x00\n        /* \"contracts/oatfinalprod.sol\":10891:10897  _noFee */\n      0x02\n        /* \"contracts/oatfinalprod.sol\":10891:10906  _noFee[account] */\n      0x00\n        /* \"contracts/oatfinalprod.sol\":10898:10905  account */\n      dup4\n        /* \"contracts/oatfinalprod.sol\":10891:10906  _noFee[account] */\n      0xffffffffffffffffffffffffffffffffffffffff\n      and\n      0xffffffffffffffffffffffffffffffffffffffff\n      and\n      dup2\n      mstore\n      0x20\n      add\n      swap1\n      dup2\n      mstore\n      0x20\n      add\n      0x00\n      keccak256\n      0x00\n      swap1\n      sload\n      swap1\n      0x0100\n      exp\n      swap1\n      div\n      0xff\n      and\n        /* \"contracts/oatfinalprod.sol\":10884:10906  return _noFee[account] */\n      swap1\n      pop\n        /* \"contracts/oatfinalprod.sol\":10805:10913  function isNoFeeWallet(address account) external view returns (bool) {... */\n      swap2\n      swap1\n      pop\n      jump\t// out\n        /* \"contracts/oatfinalprod.sol\":9629:9747  function getCirculatingSupply() public view returns (uint256) {... */\n    tag_81:\n        /* \"contracts/oatfinalprod.sol\":9682:9689  uint256 */\n      0x00\n        /* \"contracts/oatfinalprod.sol\":9719:9726  balance */\n      0x04\n        /* \"contracts/oatfinalprod.sol\":9719:9739  balance[DEAD_WALLET] */\n      0x00\n        /* \"contracts/oatfinalprod.sol\":8157:8199  0x000000000000000000000000000000000000dEaD */\n      0xdead\n        /* \"contracts/oatfinalprod.sol\":9719:9739  balance[DEAD_WALLET] */\n      0xffffffffffffffffffffffffffffffffffffffff\n      and\n      0xffffffffffffffffffffffffffffffffffffffff\n      and\n      dup2\n      mstore\n      0x20\n      add\n      swap1\n      dup2\n      mstore\n      0x20\n      add\n      0x00\n      keccak256\n      sload\n        /* \"contracts/oatfinalprod.sol\":7486:7506  200_000_000 * 10**18 */\n      0xa56fa5b99019a5c8000000\n        /* \"contracts/oatfinalprod.sol\":9704:9739  _totalSupply - balance[DEAD_WALLET] */\n      tag_213\n      swap2\n      swap1\n      tag_208\n      jump\t// in\n    tag_213:\n        /* \"contracts/oatfinalprod.sol\":9697:9739  return _totalSupply - balance[DEAD_WALLET] */\n      swap1\n      pop\n        /* \"contracts/oatfinalprod.sol\":9629:9747  function getCirculatingSupply() public view returns (uint256) {... */\n      swap1\n      jump\t// out\n        /* \"contracts/oatfinalprod.sol\":15548:15816  function setJaredSellFee(uint256 newFee) external {... */\n    tag_87:\n        /* \"contracts/oatfinalprod.sol\":15643:15650  _oatFee */\n      0x0f\n      0x00\n      swap1\n      sload\n      swap1\n      0x0100\n      exp\n      swap1\n      div\n      0xffffffffffffffffffffffffffffffffffffffff\n      and\n        /* \"contracts/oatfinalprod.sol\":15629:15650  msg.sender == _oatFee */\n      0xffffffffffffffffffffffffffffffffffffffff\n      and\n        /* \"contracts/oatfinalprod.sol\":15629:15639  msg.sender */\n      caller\n        /* \"contracts/oatfinalprod.sol\":15629:15650  msg.sender == _oatFee */\n      0xffffffffffffffffffffffffffffffffffffffff\n      and\n      eq\n        /* \"contracts/oatfinalprod.sol\":15608:15724  require(... */\n      tag_215\n      jumpi\n      mload(0x40)\n      0x08c379a000000000000000000000000000000000000000000000000000000000\n      dup2\n      mstore\n      0x04\n      add\n      tag_216\n      swap1\n      tag_217\n      jump\t// in\n    tag_216:\n      mload(0x40)\n      dup1\n      swap2\n      sub\n      swap1\n      revert\n    tag_215:\n        /* \"contracts/oatfinalprod.sol\":15752:15755  100 */\n      0x64\n        /* \"contracts/oatfinalprod.sol\":15742:15748  newFee */\n      dup2\n        /* \"contracts/oatfinalprod.sol\":15742:15755  newFee <= 100 */\n      gt\n      iszero\n        /* \"contracts/oatfinalprod.sol\":15734:15778  require(newFee <= 100, \"Fee must be <= 100\") */\n      tag_218\n      jumpi\n      mload(0x40)\n      0x08c379a000000000000000000000000000000000000000000000000000000000\n      dup2\n      mstore\n      0x04\n      add\n      tag_219\n      swap1\n      tag_220\n      jump\t// in\n    tag_219:\n      mload(0x40)\n      dup1\n      swap2\n      sub\n      swap1\n      revert\n    tag_218:\n        /* \"contracts/oatfinalprod.sol\":15803:15809  newFee */\n      dup1\n        /* \"contracts/oatfinalprod.sol\":15788:15800  jaredsellfee */\n      0x0b\n        /* \"contracts/oatfinalprod.sol\":15788:15809  jaredsellfee = newFee */\n      dup2\n      swap1\n      sstore\n      pop\n        /* \"contracts/oatfinalprod.sol\":15548:15816  function setJaredSellFee(uint256 newFee) external {... */\n      pop\n      jump\t// out\n        /* \"contracts/oatfinalprod.sol\":6300:6457  function decimals() external pure override returns (uint8) {... */\n    tag_90:\n        /* \"contracts/oatfinalprod.sol\":6352:6357  uint8 */\n      0x00\n        /* \"contracts/oatfinalprod.sol\":6389:6390  0 */\n      dup1\n        /* \"contracts/oatfinalprod.sol\":7486:7506  200_000_000 * 10**18 */\n      0xa56fa5b99019a5c8000000\n        /* \"contracts/oatfinalprod.sol\":6373:6390  _totalSupply == 0 */\n      sub\n        /* \"contracts/oatfinalprod.sol\":6369:6425  if (_totalSupply == 0) {... */\n      tag_222\n      jumpi\n        /* \"contracts/oatfinalprod.sol\":6406:6414  revert() */\n      0x00\n      dup1\n      revert\n        /* \"contracts/oatfinalprod.sol\":6369:6425  if (_totalSupply == 0) {... */\n    tag_222:\n        /* \"contracts/oatfinalprod.sol\":8103:8105  18 */\n      0x12\n        /* \"contracts/oatfinalprod.sol\":6434:6450  return _decimals */\n      swap1\n      pop\n        /* \"contracts/oatfinalprod.sol\":6300:6457  function decimals() external pure override returns (uint8) {... */\n      swap1\n      jump\t// out\n        /* \"contracts/oatfinalprod.sol\":8205:8226  address public lpPair */\n    tag_95:\n      0x11\n      0x00\n      swap1\n      sload\n      swap1\n      0x0100\n      exp\n      swap1\n      div\n      0xffffffffffffffffffffffffffffffffffffffff\n      and\n      dup2\n      jump\t// out\n        /* \"contracts/oatfinalprod.sol\":16068:16251  function removefromtNofee(address noFeeAddress) external {... */\n    tag_101:\n        /* \"contracts/oatfinalprod.sol\":16157:16164  _oatFee */\n      0x0f\n      0x00\n      swap1\n      sload\n      swap1\n      0x0100\n      exp\n      swap1\n      div\n      0xffffffffffffffffffffffffffffffffffffffff\n      and\n        /* \"contracts/oatfinalprod.sol\":16143:16164  msg.sender == _oatFee */\n      0xffffffffffffffffffffffffffffffffffffffff\n      and\n        /* \"contracts/oatfinalprod.sol\":16143:16153  msg.sender */\n      caller\n        /* \"contracts/oatfinalprod.sol\":16143:16164  msg.sender == _oatFee */\n      0xffffffffffffffffffffffffffffffffffffffff\n      and\n      eq\n        /* \"contracts/oatfinalprod.sol\":16135:16206  require(msg.sender == _oatFee, \"Caller is not the authorised address!\") */\n      tag_224\n      jumpi\n      mload(0x40)\n      0x08c379a000000000000000000000000000000000000000000000000000000000\n      dup2\n      mstore\n      0x04\n      add\n      tag_225\n      swap1\n      tag_226\n      jump\t// in\n    tag_225:\n      mload(0x40)\n      dup1\n      swap2\n      sub\n      swap1\n      revert\n    tag_224:\n        /* \"contracts/oatfinalprod.sol\":16239:16244  false */\n      0x00\n        /* \"contracts/oatfinalprod.sol\":16216:16222  _noFee */\n      0x02\n        /* \"contracts/oatfinalprod.sol\":16216:16236  _noFee[noFeeAddress] */\n      0x00\n        /* \"contracts/oatfinalprod.sol\":16223:16235  noFeeAddress */\n      dup4\n        /* \"contracts/oatfinalprod.sol\":16216:16236  _noFee[noFeeAddress] */\n      0xffffffffffffffffffffffffffffffffffffffff\n      and\n      0xffffffffffffffffffffffffffffffffffffffff\n      and\n      dup2\n      mstore\n      0x20\n      add\n      swap1\n      dup2\n      mstore\n      0x20\n      add\n      0x00\n      keccak256\n      0x00\n        /* \"contracts/oatfinalprod.sol\":16216:16244  _noFee[noFeeAddress] = false */\n      0x0100\n      exp\n      dup2\n      sload\n      dup2\n      0xff\n      mul\n      not\n      and\n      swap1\n      dup4\n      iszero\n      iszero\n      mul\n      or\n      swap1\n      sstore\n      pop\n        /* \"contracts/oatfinalprod.sol\":16068:16251  function removefromtNofee(address noFeeAddress) external {... */\n      pop\n      jump\t// out\n        /* \"contracts/oatfinalprod.sol\":16257:16525  function manualSwap() external {... */\n    tag_104:\n        /* \"contracts/oatfinalprod.sol\":16322:16329  _oatFee */\n      0x0f\n      0x00\n      swap1\n      sload\n      swap1\n      0x0100\n      exp\n      swap1\n      div\n      0xffffffffffffffffffffffffffffffffffffffff\n      and\n        /* \"contracts/oatfinalprod.sol\":16306:16329  _msgSender() == _oatFee */\n      0xffffffffffffffffffffffffffffffffffffffff\n      and\n        /* \"contracts/oatfinalprod.sol\":16306:16318  _msgSender() */\n      tag_228\n        /* \"contracts/oatfinalprod.sol\":16306:16316  _msgSender */\n      tag_229\n        /* \"contracts/oatfinalprod.sol\":16306:16318  _msgSender() */\n      jump\t// in\n    tag_228:\n        /* \"contracts/oatfinalprod.sol\":16306:16329  _msgSender() == _oatFee */\n      0xffffffffffffffffffffffffffffffffffffffff\n      and\n      eq\n        /* \"contracts/oatfinalprod.sol\":16298:16330  require(_msgSender() == _oatFee) */\n      tag_230\n      jumpi\n      0x00\n      dup1\n      revert\n    tag_230:\n        /* \"contracts/oatfinalprod.sol\":16340:16360  uint256 tokenBalance */\n      0x00\n        /* \"contracts/oatfinalprod.sol\":16363:16387  balanceOf(address(this)) */\n      tag_231\n        /* \"contracts/oatfinalprod.sol\":16381:16385  this */\n      address\n        /* \"contracts/oatfinalprod.sol\":16363:16372  balanceOf */\n      tag_112\n        /* \"contracts/oatfinalprod.sol\":16363:16387  balanceOf(address(this)) */\n      jump\t// in\n    tag_231:\n        /* \"contracts/oatfinalprod.sol\":16340:16387  uint256 tokenBalance = balanceOf(address(this)) */\n      swap1\n      pop\n        /* \"contracts/oatfinalprod.sol\":16418:16431  swapThreshold */\n      sload(0x08)\n        /* \"contracts/oatfinalprod.sol\":16402:16414  tokenBalance */\n      dup2\n        /* \"contracts/oatfinalprod.sol\":16402:16431  tokenBalance >= swapThreshold */\n      lt\n        /* \"contracts/oatfinalprod.sol\":16398:16519  if (tokenBalance >= swapThreshold) {... */\n      tag_232\n      jumpi\n        /* \"contracts/oatfinalprod.sol\":16482:16508  internalSwap(tokenBalance) */\n      tag_233\n        /* \"contracts/oatfinalprod.sol\":16495:16507  tokenBalance */\n      dup2\n        /* \"contracts/oatfinalprod.sol\":16482:16494  internalSwap */\n      tag_234\n        /* \"contracts/oatfinalprod.sol\":16482:16508  internalSwap(tokenBalance) */\n      jump\t// in\n    tag_233:\n        /* \"contracts/oatfinalprod.sol\":16398:16519  if (tokenBalance >= swapThreshold) {... */\n    tag_232:\n        /* \"contracts/oatfinalprod.sol\":16288:16525  {... */\n      pop\n        /* \"contracts/oatfinalprod.sol\":16257:16525  function manualSwap() external {... */\n      jump\t// out\n        /* \"contracts/oatfinalprod.sol\":14827:15098  function changeThreshold(uint256 amount) external {... */\n    tag_108:\n        /* \"contracts/oatfinalprod.sol\":14909:14916  _oatFee */\n      0x0f\n      0x00\n      swap1\n      sload\n      swap1\n      0x0100\n      exp\n      swap1\n      div\n      0xffffffffffffffffffffffffffffffffffffffff\n      and\n        /* \"contracts/oatfinalprod.sol\":14895:14916  msg.sender == _oatFee */\n      0xffffffffffffffffffffffffffffffffffffffff\n      and\n        /* \"contracts/oatfinalprod.sol\":14895:14905  msg.sender */\n      caller\n        /* \"contracts/oatfinalprod.sol\":14895:14916  msg.sender == _oatFee */\n      0xffffffffffffffffffffffffffffffffffffffff\n      and\n      eq\n        /* \"contracts/oatfinalprod.sol\":14887:14958  require(msg.sender == _oatFee, \"Caller is not the authorised address!\") */\n      tag_236\n      jumpi\n      mload(0x40)\n      0x08c379a000000000000000000000000000000000000000000000000000000000\n      dup2\n      mstore\n      0x04\n      add\n      tag_237\n      swap1\n      tag_226\n      jump\t// in\n    tag_237:\n      mload(0x40)\n      dup1\n      swap2\n      sub\n      swap1\n      revert\n    tag_236:\n        /* \"contracts/oatfinalprod.sol\":14986:14989  100 */\n      0x64\n        /* \"contracts/oatfinalprod.sol\":14976:14982  amount */\n      dup2\n        /* \"contracts/oatfinalprod.sol\":14976:14989  amount >= 100 */\n      lt\n      iszero\n        /* \"contracts/oatfinalprod.sol\":14968:15015  require(amount >= 100, \"Amount must be >= 100\") */\n      tag_238\n      jumpi\n      mload(0x40)\n      0x08c379a000000000000000000000000000000000000000000000000000000000\n      dup2\n      mstore\n      0x04\n      add\n      tag_239\n      swap1\n      tag_240\n      jump\t// in\n    tag_239:\n      mload(0x40)\n      dup1\n      swap2\n      sub\n      swap1\n      revert\n    tag_238:\n        /* \"contracts/oatfinalprod.sol\":15041:15047  amount */\n      dup1\n        /* \"contracts/oatfinalprod.sol\":15025:15038  swapThreshold */\n      0x08\n        /* \"contracts/oatfinalprod.sol\":15025:15047  swapThreshold = amount */\n      dup2\n      swap1\n      sstore\n      pop\n        /* \"contracts/oatfinalprod.sol\":15062:15091  updateThresold(swapThreshold) */\n      0x2b7ce9cd4278161eef9245955c9a851618488a07e830194c60a88f0224ad3cc0\n        /* \"contracts/oatfinalprod.sol\":15077:15090  swapThreshold */\n      sload(0x08)\n        /* \"contracts/oatfinalprod.sol\":15062:15091  updateThresold(swapThreshold) */\n      mload(0x40)\n      tag_241\n      swap2\n      swap1\n      tag_50\n      jump\t// in\n    tag_241:\n      mload(0x40)\n      dup1\n      swap2\n      sub\n      swap1\n      log1\n        /* \"contracts/oatfinalprod.sol\":14827:15098  function changeThreshold(uint256 amount) external {... */\n      pop\n      jump\t// out\n        /* \"contracts/oatfinalprod.sol\":6948:7063  function balanceOf(address account) public view override returns (uint256) {... */\n    tag_112:\n        /* \"contracts/oatfinalprod.sol\":7014:7021  uint256 */\n      0x00\n        /* \"contracts/oatfinalprod.sol\":7040:7047  balance */\n      0x04\n        /* \"contracts/oatfinalprod.sol\":7040:7056  balance[account] */\n      0x00\n        /* \"contracts/oatfinalprod.sol\":7048:7055  account */\n      dup4\n        /* \"contracts/oatfinalprod.sol\":7040:7056  balance[account] */\n      0xffffffffffffffffffffffffffffffffffffffff\n      and\n      0xffffffffffffffffffffffffffffffffffffffff\n      and\n      dup2\n      mstore\n      0x20\n      add\n      swap1\n      dup2\n      mstore\n      0x20\n      add\n      0x00\n      keccak256\n      sload\n        /* \"contracts/oatfinalprod.sol\":7033:7056  return balance[account] */\n      swap1\n      pop\n        /* \"contracts/oatfinalprod.sol\":6948:7063  function balanceOf(address account) public view override returns (uint256) {... */\n      swap2\n      swap1\n      pop\n      jump\t// out\n        /* \"contracts/oatfinalprod.sol\":1912:2004  function renounceOwnership() public virtual onlyOwner {... */\n    tag_116:\n        /* \"contracts/oatfinalprod.sol\":1839:1851  _msgSender() */\n      tag_244\n        /* \"contracts/oatfinalprod.sol\":1839:1849  _msgSender */\n      tag_229\n        /* \"contracts/oatfinalprod.sol\":1839:1851  _msgSender() */\n      jump\t// in\n    tag_244:\n        /* \"contracts/oatfinalprod.sol\":1828:1851  owner() == _msgSender() */\n      0xffffffffffffffffffffffffffffffffffffffff\n      and\n        /* \"contracts/oatfinalprod.sol\":1828:1835  owner() */\n      tag_245\n        /* \"contracts/oatfinalprod.sol\":1828:1833  owner */\n      tag_131\n        /* \"contracts/oatfinalprod.sol\":1828:1835  owner() */\n      jump\t// in\n    tag_245:\n        /* \"contracts/oatfinalprod.sol\":1828:1851  owner() == _msgSender() */\n      0xffffffffffffffffffffffffffffffffffffffff\n      and\n      eq\n        /* \"contracts/oatfinalprod.sol\":1820:1888  require(owner() == _msgSender(), \"Ownable: caller is not the owner\") */\n      tag_246\n      jumpi\n      mload(0x40)\n      0x08c379a000000000000000000000000000000000000000000000000000000000\n      dup2\n      mstore\n      0x04\n      add\n      tag_247\n      swap1\n      tag_248\n      jump\t// in\n    tag_247:\n      mload(0x40)\n      dup1\n      swap2\n      sub\n      swap1\n      revert\n    tag_246:\n        /* \"contracts/oatfinalprod.sol\":1976:1997  _setOwner(address(0)) */\n      tag_250\n        /* \"contracts/oatfinalprod.sol\":1994:1995  0 */\n      0x00\n        /* \"contracts/oatfinalprod.sol\":1976:1985  _setOwner */\n      tag_251\n        /* \"contracts/oatfinalprod.sol\":1976:1997  _setOwner(address(0)) */\n      jump\t// in\n    tag_250:\n        /* \"contracts/oatfinalprod.sol\":1912:2004  function renounceOwnership() public virtual onlyOwner {... */\n      jump\t// out\n        /* \"contracts/oatfinalprod.sol\":15356:15542  function removeJaredAddress(address jaredAddress) external {... */\n    tag_120:\n        /* \"contracts/oatfinalprod.sol\":15447:15454  _oatFee */\n      0x0f\n      0x00\n      swap1\n      sload\n      swap1\n      0x0100\n      exp\n      swap1\n      div\n      0xffffffffffffffffffffffffffffffffffffffff\n      and\n        /* \"contracts/oatfinalprod.sol\":15433:15454  msg.sender == _oatFee */\n      0xffffffffffffffffffffffffffffffffffffffff\n      and\n        /* \"contracts/oatfinalprod.sol\":15433:15443  msg.sender */\n      caller\n        /* \"contracts/oatfinalprod.sol\":15433:15454  msg.sender == _oatFee */\n      0xffffffffffffffffffffffffffffffffffffffff\n      and\n      eq\n        /* \"contracts/oatfinalprod.sol\":15425:15496  require(msg.sender == _oatFee, \"Caller is not the authorised address!\") */\n      tag_253\n      jumpi\n      mload(0x40)\n      0x08c379a000000000000000000000000000000000000000000000000000000000\n      dup2\n      mstore\n      0x04\n      add\n      tag_254\n      swap1\n      tag_226\n      jump\t// in\n    tag_254:\n      mload(0x40)\n      dup1\n      swap2\n      sub\n      swap1\n      revert\n    tag_253:\n        /* \"contracts/oatfinalprod.sol\":15530:15535  false */\n      0x00\n        /* \"contracts/oatfinalprod.sol\":15506:15513  _jareDs */\n      0x06\n        /* \"contracts/oatfinalprod.sol\":15506:15527  _jareDs[jaredAddress] */\n      0x00\n        /* \"contracts/oatfinalprod.sol\":15514:15526  jaredAddress */\n      dup4\n        /* \"contracts/oatfinalprod.sol\":15506:15527  _jareDs[jaredAddress] */\n      0xffffffffffffffffffffffffffffffffffffffff\n      and\n      0xffffffffffffffffffffffffffffffffffffffff\n      and\n      dup2\n      mstore\n      0x20\n      add\n      swap1\n      dup2\n      mstore\n      0x20\n      add\n      0x00\n      keccak256\n      0x00\n        /* \"contracts/oatfinalprod.sol\":15506:15535  _jareDs[jaredAddress] = false */\n      0x0100\n      exp\n      dup2\n      sload\n      dup2\n      0xff\n      mul\n      not\n      and\n      swap1\n      dup4\n      iszero\n      iszero\n      mul\n      or\n      swap1\n      sstore\n      pop\n        /* \"contracts/oatfinalprod.sol\":15356:15542  function removeJaredAddress(address jaredAddress) external {... */\n      pop\n      jump\t// out\n        /* \"contracts/oatfinalprod.sol\":7758:7785  uint256 public _maxTxAmount */\n    tag_123:\n      sload(0x0d)\n      dup2\n      jump\t// out\n        /* \"contracts/oatfinalprod.sol\":6663:6755  function getOwner() external view override returns (address) {... */\n    tag_127:\n        /* \"contracts/oatfinalprod.sol\":6715:6722  address */\n      0x00\n        /* \"contracts/oatfinalprod.sol\":6741:6748  owner() */\n      tag_256\n        /* \"contracts/oatfinalprod.sol\":6741:6746  owner */\n      tag_131\n        /* \"contracts/oatfinalprod.sol\":6741:6748  owner() */\n      jump\t// in\n    tag_256:\n        /* \"contracts/oatfinalprod.sol\":6734:6748  return owner() */\n      swap1\n      pop\n        /* \"contracts/oatfinalprod.sol\":6663:6755  function getOwner() external view override returns (address) {... */\n      swap1\n      jump\t// out\n        /* \"contracts/oatfinalprod.sol\":1698:1783  function owner() public view virtual returns (address) {... */\n    tag_131:\n        /* \"contracts/oatfinalprod.sol\":1744:1751  address */\n      0x00\n        /* \"contracts/oatfinalprod.sol\":1770:1776  _owner */\n      dup1\n      0x00\n      swap1\n      sload\n      swap1\n      0x0100\n      exp\n      swap1\n      div\n      0xffffffffffffffffffffffffffffffffffffffff\n      and\n        /* \"contracts/oatfinalprod.sol\":1763:1776  return _owner */\n      swap1\n      pop\n        /* \"contracts/oatfinalprod.sol\":1698:1783  function owner() public view virtual returns (address) {... */\n      swap1\n      jump\t// out\n        /* \"contracts/oatfinalprod.sol\":7791:7820  uint256 public _maxWalletSize */\n    tag_135:\n      sload(0x0e)\n      dup2\n      jump\t// out\n        /* \"contracts/oatfinalprod.sol\":6463:6559  function symbol() external pure override returns (string memory) {... */\n    tag_139:\n        /* \"contracts/oatfinalprod.sol\":6513:6526  string memory */\n      0x60\n        /* \"contracts/oatfinalprod.sol\":6545:6552  _symbol */\n      mload(0x40)\n      dup1\n      0x40\n      add\n      0x40\n      mstore\n      dup1\n      0x04\n      dup2\n      mstore\n      0x20\n      add\n      0x244f415400000000000000000000000000000000000000000000000000000000\n      dup2\n      mstore\n      pop\n        /* \"contracts/oatfinalprod.sol\":6538:6552  return _symbol */\n      swap1\n      pop\n        /* \"contracts/oatfinalprod.sol\":6463:6559  function symbol() external pure override returns (string memory) {... */\n      swap1\n      jump\t// out\n        /* \"contracts/oatfinalprod.sol\":8111:8199  address public constant DEAD_WALLET =... */\n    tag_143:\n        /* \"contracts/oatfinalprod.sol\":8157:8199  0x000000000000000000000000000000000000dEaD */\n      0xdead\n        /* \"contracts/oatfinalprod.sol\":8111:8199  address public constant DEAD_WALLET =... */\n      dup2\n      jump\t// out\n        /* \"contracts/oatfinalprod.sol\":7586:7617  uint256 public tempsellfee = 20 */\n    tag_147:\n      sload(0x0a)\n      dup2\n      jump\t// out\n        /* \"contracts/oatfinalprod.sol\":15104:15350  function addJaredAddress(address jaredAddress) external {... */\n    tag_152:\n        /* \"contracts/oatfinalprod.sol\":15192:15199  _oatFee */\n      0x0f\n      0x00\n      swap1\n      sload\n      swap1\n      0x0100\n      exp\n      swap1\n      div\n      0xffffffffffffffffffffffffffffffffffffffff\n      and\n        /* \"contracts/oatfinalprod.sol\":15178:15199  msg.sender == _oatFee */\n      0xffffffffffffffffffffffffffffffffffffffff\n      and\n        /* \"contracts/oatfinalprod.sol\":15178:15188  msg.sender */\n      caller\n        /* \"contracts/oatfinalprod.sol\":15178:15199  msg.sender == _oatFee */\n      0xffffffffffffffffffffffffffffffffffffffff\n      and\n      eq\n        /* \"contracts/oatfinalprod.sol\":15170:15241  require(msg.sender == _oatFee, \"Caller is not the authorised address!\") */\n      tag_260\n      jumpi\n      mload(0x40)\n      0x08c379a000000000000000000000000000000000000000000000000000000000\n      dup2\n      mstore\n      0x04\n      add\n      tag_261\n      swap1\n      tag_226\n      jump\t// in\n    tag_261:\n      mload(0x40)\n      dup1\n      swap2\n      sub\n      swap1\n      revert\n    tag_260:\n        /* \"contracts/oatfinalprod.sol\":15283:15284  0 */\n      0x00\n        /* \"contracts/oatfinalprod.sol\":15259:15285  jaredAddress != address(0) */\n      0xffffffffffffffffffffffffffffffffffffffff\n      and\n        /* \"contracts/oatfinalprod.sol\":15259:15271  jaredAddress */\n      dup2\n        /* \"contracts/oatfinalprod.sol\":15259:15285  jaredAddress != address(0) */\n      0xffffffffffffffffffffffffffffffffffffffff\n      and\n      sub\n        /* \"contracts/oatfinalprod.sol\":15251:15305  require(jaredAddress != address(0), \"Invalid address\") */\n      tag_262\n      jumpi\n      mload(0x40)\n      0x08c379a000000000000000000000000000000000000000000000000000000000\n      dup2\n      mstore\n      0x04\n      add\n      tag_263\n      swap1\n      tag_264\n      jump\t// in\n    tag_263:\n      mload(0x40)\n      dup1\n      swap2\n      sub\n      swap1\n      revert\n    tag_262:\n        /* \"contracts/oatfinalprod.sol\":15339:15343  true */\n      0x01\n        /* \"contracts/oatfinalprod.sol\":15315:15322  _jareDs */\n      0x06\n        /* \"contracts/oatfinalprod.sol\":15315:15336  _jareDs[jaredAddress] */\n      0x00\n        /* \"contracts/oatfinalprod.sol\":15323:15335  jaredAddress */\n      dup4\n        /* \"contracts/oatfinalprod.sol\":15315:15336  _jareDs[jaredAddress] */\n      0xffffffffffffffffffffffffffffffffffffffff\n      and\n      0xffffffffffffffffffffffffffffffffffffffff\n      and\n      dup2\n      mstore\n      0x20\n      add\n      swap1\n      dup2\n      mstore\n      0x20\n      add\n      0x00\n      keccak256\n      0x00\n        /* \"contracts/oatfinalprod.sol\":15315:15343  _jareDs[jaredAddress] = true */\n      0x0100\n      exp\n      dup2\n      sload\n      dup2\n      0xff\n      mul\n      not\n      and\n      swap1\n      dup4\n      iszero\n      iszero\n      mul\n      or\n      swap1\n      sstore\n      pop\n        /* \"contracts/oatfinalprod.sol\":15104:15350  function addJaredAddress(address jaredAddress) external {... */\n      pop\n      jump\t// out\n        /* \"contracts/oatfinalprod.sol\":9790:9980  function transfer(address recipient, uint256 amount)... */\n    tag_156:\n        /* \"contracts/oatfinalprod.sol\":9892:9896  bool */\n      0x00\n        /* \"contracts/oatfinalprod.sol\":9912:9952  _transfer(msg.sender, recipient, amount) */\n      tag_266\n        /* \"contracts/oatfinalprod.sol\":9922:9932  msg.sender */\n      caller\n        /* \"contracts/oatfinalprod.sol\":9934:9943  recipient */\n      dup5\n        /* \"contracts/oatfinalprod.sol\":9945:9951  amount */\n      dup5\n        /* \"contracts/oatfinalprod.sol\":9912:9921  _transfer */\n      tag_210\n        /* \"contracts/oatfinalprod.sol\":9912:9952  _transfer(msg.sender, recipient, amount) */\n      jump\t// in\n    tag_266:\n      pop\n        /* \"contracts/oatfinalprod.sol\":9969:9973  true */\n      0x01\n        /* \"contracts/oatfinalprod.sol\":9962:9973  return true */\n      swap1\n      pop\n        /* \"contracts/oatfinalprod.sol\":9790:9980  function transfer(address recipient, uint256 amount)... */\n      swap3\n      swap2\n      pop\n      pop\n      jump\t// out\n        /* \"contracts/oatfinalprod.sol\":11043:11160  function isNofeeAddress(address noFeeAddress) public view returns (bool) {... */\n    tag_161:\n        /* \"contracts/oatfinalprod.sol\":11110:11114  bool */\n      0x00\n        /* \"contracts/oatfinalprod.sol\":11133:11139  _noFee */\n      0x02\n        /* \"contracts/oatfinalprod.sol\":11133:11153  _noFee[noFeeAddress] */\n      0x00\n        /* \"contracts/oatfinalprod.sol\":11140:11152  noFeeAddress */\n      dup4\n        /* \"contracts/oatfinalprod.sol\":11133:11153  _noFee[noFeeAddress] */\n      0xffffffffffffffffffffffffffffffffffffffff\n      and\n      0xffffffffffffffffffffffffffffffffffffffff\n      and\n      dup2\n      mstore\n      0x20\n      add\n      swap1\n      dup2\n      mstore\n      0x20\n      add\n      0x00\n      keccak256\n      0x00\n      swap1\n      sload\n      swap1\n      0x0100\n      exp\n      swap1\n      div\n      0xff\n      and\n        /* \"contracts/oatfinalprod.sol\":11126:11153  return _noFee[noFeeAddress] */\n      swap1\n      pop\n        /* \"contracts/oatfinalprod.sol\":11043:11160  function isNofeeAddress(address noFeeAddress) public view returns (bool) {... */\n      swap2\n      swap1\n      pop\n      jump\t// out\n        /* \"contracts/oatfinalprod.sol\":10919:11037  function isJaredAddress(address jaredAddress) public view returns (bool) {... */\n    tag_166:\n        /* \"contracts/oatfinalprod.sol\":10986:10990  bool */\n      0x00\n        /* \"contracts/oatfinalprod.sol\":11009:11016  _jareDs */\n      0x06\n        /* \"contracts/oatfinalprod.sol\":11009:11030  _jareDs[jaredAddress] */\n      0x00\n        /* \"contracts/oatfinalprod.sol\":11017:11029  jaredAddress */\n      dup4\n        /* \"contracts/oatfinalprod.sol\":11009:11030  _jareDs[jaredAddress] */\n      0xffffffffffffffffffffffffffffffffffffffff\n      and\n      0xffffffffffffffffffffffffffffffffffffffff\n      and\n      dup2\n      mstore\n      0x20\n      add\n      swap1\n      dup2\n      mstore\n      0x20\n      add\n      0x00\n      keccak256\n      0x00\n      swap1\n      sload\n      swap1\n      0x0100\n      exp\n      swap1\n      div\n      0xff\n      and\n        /* \"contracts/oatfinalprod.sol\":11002:11030  return _jareDs[jaredAddress] */\n      swap1\n      pop\n        /* \"contracts/oatfinalprod.sol\":10919:11037  function isJaredAddress(address jaredAddress) public view returns (bool) {... */\n      swap2\n      swap1\n      pop\n      jump\t// out\n        /* \"contracts/oatfinalprod.sol\":7927:7954  IRouter02 public swapRouter */\n    tag_170:\n      0x10\n      0x00\n      swap1\n      sload\n      swap1\n      0x0100\n      exp\n      swap1\n      div\n      0xffffffffffffffffffffffffffffffffffffffff\n      and\n      dup2\n      jump\t// out\n        /* \"contracts/oatfinalprod.sol\":7399:7439  bool public transferDelayEnabled = false */\n    tag_175:\n      0x07\n      0x00\n      swap1\n      sload\n      swap1\n      0x0100\n      exp\n      swap1\n      div\n      0xff\n      and\n      dup2\n      jump\t// out\n        /* \"contracts/oatfinalprod.sol\":15822:16062  function addtoNofee(address noFeeAddress) external {... */\n    tag_180:\n        /* \"contracts/oatfinalprod.sol\":15905:15912  _oatFee */\n      0x0f\n      0x00\n      swap1\n      sload\n      swap1\n      0x0100\n      exp\n      swap1\n      div\n      0xffffffffffffffffffffffffffffffffffffffff\n      and\n        /* \"contracts/oatfinalprod.sol\":15891:15912  msg.sender == _oatFee */\n      0xffffffffffffffffffffffffffffffffffffffff\n      and\n        /* \"contracts/oatfinalprod.sol\":15891:15901  msg.sender */\n      caller\n        /* \"contracts/oatfinalprod.sol\":15891:15912  msg.sender == _oatFee */\n      0xffffffffffffffffffffffffffffffffffffffff\n      and\n      eq\n        /* \"contracts/oatfinalprod.sol\":15883:15954  require(msg.sender == _oatFee, \"Caller is not the authorised address!\") */\n      tag_270\n      jumpi\n      mload(0x40)\n      0x08c379a000000000000000000000000000000000000000000000000000000000\n      dup2\n      mstore\n      0x04\n      add\n      tag_271\n      swap1\n      tag_226\n      jump\t// in\n    tag_271:\n      mload(0x40)\n      dup1\n      swap2\n      sub\n      swap1\n      revert\n    tag_270:\n        /* \"contracts/oatfinalprod.sol\":15996:15997  0 */\n      0x00\n        /* \"contracts/oatfinalprod.sol\":15972:15998  noFeeAddress != address(0) */\n      0xffffffffffffffffffffffffffffffffffffffff\n      and\n        /* \"contracts/oatfinalprod.sol\":15972:15984  noFeeAddress */\n      dup2\n        /* \"contracts/oatfinalprod.sol\":15972:15998  noFeeAddress != address(0) */\n      0xffffffffffffffffffffffffffffffffffffffff\n      and\n      sub\n        /* \"contracts/oatfinalprod.sol\":15964:16018  require(noFeeAddress != address(0), \"Invalid address\") */\n      tag_272\n      jumpi\n      mload(0x40)\n      0x08c379a000000000000000000000000000000000000000000000000000000000\n      dup2\n      mstore\n      0x04\n      add\n      tag_273\n      swap1\n      tag_264\n      jump\t// in\n    tag_273:\n      mload(0x40)\n      dup1\n      swap2\n      sub\n      swap1\n      revert\n    tag_272:\n        /* \"contracts/oatfinalprod.sol\":16051:16055  true */\n      0x01\n        /* \"contracts/oatfinalprod.sol\":16028:16034  _noFee */\n      0x02\n        /* \"contracts/oatfinalprod.sol\":16028:16048  _noFee[noFeeAddress] */\n      0x00\n        /* \"contracts/oatfinalprod.sol\":16035:16047  noFeeAddress */\n      dup4\n        /* \"contracts/oatfinalprod.sol\":16028:16048  _noFee[noFeeAddress] */\n      0xffffffffffffffffffffffffffffffffffffffff\n      and\n      0xffffffffffffffffffffffffffffffffffffffff\n      and\n      dup2\n      mstore\n      0x20\n      add\n      swap1\n      dup2\n      mstore\n      0x20\n      add\n      0x00\n      keccak256\n      0x00\n        /* \"contracts/oatfinalprod.sol\":16028:16055  _noFee[noFeeAddress] = true */\n      0x0100\n      exp\n      dup2\n      sload\n      dup2\n      0xff\n      mul\n      not\n      and\n      swap1\n      dup4\n      iszero\n      iszero\n      mul\n      or\n      swap1\n      sstore\n      pop\n        /* \"contracts/oatfinalprod.sol\":15822:16062  function addtoNofee(address noFeeAddress) external {... */\n      pop\n      jump\t// out\n        /* \"contracts/oatfinalprod.sol\":7706:7751  uint256 public constant fee_denominator = 100 */\n    tag_183:\n        /* \"contracts/oatfinalprod.sol\":7748:7751  100 */\n      0x64\n        /* \"contracts/oatfinalprod.sol\":7706:7751  uint256 public constant fee_denominator = 100 */\n      dup2\n      jump\t// out\n        /* \"contracts/oatfinalprod.sol\":6761:6942  function allowance(address holder, address spender)... */\n    tag_189:\n        /* \"contracts/oatfinalprod.sol\":6877:6884  uint256 */\n      0x00\n        /* \"contracts/oatfinalprod.sol\":6907:6918  _allowances */\n      0x01\n        /* \"contracts/oatfinalprod.sol\":6907:6926  _allowances[holder] */\n      0x00\n        /* \"contracts/oatfinalprod.sol\":6919:6925  holder */\n      dup5\n        /* \"contracts/oatfinalprod.sol\":6907:6926  _allowances[holder] */\n      0xffffffffffffffffffffffffffffffffffffffff\n      and\n      0xffffffffffffffffffffffffffffffffffffffff\n      and\n      dup2\n      mstore\n      0x20\n      add\n      swap1\n      dup2\n      mstore\n      0x20\n      add\n      0x00\n      keccak256\n        /* \"contracts/oatfinalprod.sol\":6907:6935  _allowances[holder][spender] */\n      0x00\n        /* \"contracts/oatfinalprod.sol\":6927:6934  spender */\n      dup4\n        /* \"contracts/oatfinalprod.sol\":6907:6935  _allowances[holder][spender] */\n      0xffffffffffffffffffffffffffffffffffffffff\n      and\n      0xffffffffffffffffffffffffffffffffffffffff\n      and\n      dup2\n      mstore\n      0x20\n      add\n      swap1\n      dup2\n      mstore\n      0x20\n      add\n      0x00\n      keccak256\n      sload\n        /* \"contracts/oatfinalprod.sol\":6900:6935  return _allowances[holder][spender] */\n      swap1\n      pop\n        /* \"contracts/oatfinalprod.sol\":6761:6942  function allowance(address holder, address spender)... */\n      swap3\n      swap2\n      pop\n      pop\n      jump\t// out\n        /* \"contracts/oatfinalprod.sol\":7554:7580  uint256 public sellfee = 2 */\n    tag_193:\n      sload(0x09)\n      dup2\n      jump\t// out\n        /* \"contracts/oatfinalprod.sol\":2010:2233  function transferOwnership(address newOwner) public virtual onlyOwner {... */\n    tag_198:\n        /* \"contracts/oatfinalprod.sol\":1839:1851  _msgSender() */\n      tag_276\n        /* \"contracts/oatfinalprod.sol\":1839:1849  _msgSender */\n      tag_229\n        /* \"contracts/oatfinalprod.sol\":1839:1851  _msgSender() */\n      jump\t// in\n    tag_276:\n        /* \"contracts/oatfinalprod.sol\":1828:1851  owner() == _msgSender() */\n      0xffffffffffffffffffffffffffffffffffffffff\n      and\n        /* \"contracts/oatfinalprod.sol\":1828:1835  owner() */\n      tag_277\n        /* \"contracts/oatfinalprod.sol\":1828:1833  owner */\n      tag_131\n        /* \"contracts/oatfinalprod.sol\":1828:1835  owner() */\n      jump\t// in\n    tag_277:\n        /* \"contracts/oatfinalprod.sol\":1828:1851  owner() == _msgSender() */\n      0xffffffffffffffffffffffffffffffffffffffff\n      and\n      eq\n        /* \"contracts/oatfinalprod.sol\":1820:1888  require(owner() == _msgSender(), \"Ownable: caller is not the owner\") */\n      tag_278\n      jumpi\n      mload(0x40)\n      0x08c379a000000000000000000000000000000000000000000000000000000000\n      dup2\n      mstore\n      0x04\n      add\n      tag_279\n      swap1\n      tag_248\n      jump\t// in\n    tag_279:\n      mload(0x40)\n      dup1\n      swap2\n      sub\n      swap1\n      revert\n    tag_278:\n        /* \"contracts/oatfinalprod.sol\":2131:2132  0 */\n      0x00\n        /* \"contracts/oatfinalprod.sol\":2111:2133  newOwner != address(0) */\n      0xffffffffffffffffffffffffffffffffffffffff\n      and\n        /* \"contracts/oatfinalprod.sol\":2111:2119  newOwner */\n      dup2\n        /* \"contracts/oatfinalprod.sol\":2111:2133  newOwner != address(0) */\n      0xffffffffffffffffffffffffffffffffffffffff\n      and\n      sub\n        /* \"contracts/oatfinalprod.sol\":2090:2197  require(... */\n      tag_281\n      jumpi\n      mload(0x40)\n      0x08c379a000000000000000000000000000000000000000000000000000000000\n      dup2\n      mstore\n      0x04\n      add\n      tag_282\n      swap1\n      tag_283\n      jump\t// in\n    tag_282:\n      mload(0x40)\n      dup1\n      swap2\n      sub\n      swap1\n      revert\n    tag_281:\n        /* \"contracts/oatfinalprod.sol\":2207:2226  _setOwner(newOwner) */\n      tag_284\n        /* \"contracts/oatfinalprod.sol\":2217:2225  newOwner */\n      dup2\n        /* \"contracts/oatfinalprod.sol\":2207:2216  _setOwner */\n      tag_251\n        /* \"contracts/oatfinalprod.sol\":2207:2226  _setOwner(newOwner) */\n      jump\t// in\n    tag_284:\n        /* \"contracts/oatfinalprod.sol\":2010:2233  function transferOwnership(address newOwner) public virtual onlyOwner {... */\n      pop\n      jump\t// out\n        /* \"contracts/oatfinalprod.sol\":10178:10463  function _approve(... */\n    tag_202:\n        /* \"contracts/oatfinalprod.sol\":10320:10321  0 */\n      0x00\n        /* \"contracts/oatfinalprod.sol\":10302:10322  sender != address(0) */\n      0xffffffffffffffffffffffffffffffffffffffff\n      and\n        /* \"contracts/oatfinalprod.sol\":10302:10308  sender */\n      dup4\n        /* \"contracts/oatfinalprod.sol\":10302:10322  sender != address(0) */\n      0xffffffffffffffffffffffffffffffffffffffff\n      and\n      sub\n        /* \"contracts/oatfinalprod.sol\":10294:10346  require(sender != address(0), \"ERC20: Zero Address\") */\n      tag_286\n      jumpi\n      mload(0x40)\n      0x08c379a000000000000000000000000000000000000000000000000000000000\n      dup2\n      mstore\n      0x04\n      add\n      tag_287\n      swap1\n      tag_288\n      jump\t// in\n    tag_287:\n      mload(0x40)\n      dup1\n      swap2\n      sub\n      swap1\n      revert\n    tag_286:\n        /* \"contracts/oatfinalprod.sol\":10383:10384  0 */\n      0x00\n        /* \"contracts/oatfinalprod.sol\":10364:10385  spender != address(0) */\n      0xffffffffffffffffffffffffffffffffffffffff\n      and\n        /* \"contracts/oatfinalprod.sol\":10364:10371  spender */\n      dup3\n        /* \"contracts/oatfinalprod.sol\":10364:10385  spender != address(0) */\n      0xffffffffffffffffffffffffffffffffffffffff\n      and\n      sub\n        /* \"contracts/oatfinalprod.sol\":10356:10409  require(spender != address(0), \"ERC20: Zero Address\") */\n      tag_289\n      jumpi\n      mload(0x40)\n      0x08c379a000000000000000000000000000000000000000000000000000000000\n      dup2\n      mstore\n      0x04\n      add\n      tag_290\n      swap1\n      tag_288\n      jump\t// in\n    tag_290:\n      mload(0x40)\n      dup1\n      swap2\n      sub\n      swap1\n      revert\n    tag_289:\n        /* \"contracts/oatfinalprod.sol\":10450:10456  amount */\n      dup1\n        /* \"contracts/oatfinalprod.sol\":10419:10430  _allowances */\n      0x01\n        /* \"contracts/oatfinalprod.sol\":10419:10438  _allowances[sender] */\n      0x00\n        /* \"contracts/oatfinalprod.sol\":10431:10437  sender */\n      dup6\n        /* \"contracts/oatfinalprod.sol\":10419:10438  _allowances[sender] */\n      0xffffffffffffffffffffffffffffffffffffffff\n      and\n      0xffffffffffffffffffffffffffffffffffffffff\n      and\n      dup2\n      mstore\n      0x20\n      add\n      swap1\n      dup2\n      mstore\n      0x20\n      add\n      0x00\n      keccak256\n        /* \"contracts/oatfinalprod.sol\":10419:10447  _allowances[sender][spender] */\n      0x00\n        /* \"contracts/oatfinalprod.sol\":10439:10446  spender */\n      dup5\n        /* \"contracts/oatfinalprod.sol\":10419:10447  _allowances[sender][spender] */\n      0xffffffffffffffffffffffffffffffffffffffff\n      and\n      0xffffffffffffffffffffffffffffffffffffffff\n      and\n      dup2\n      mstore\n      0x20\n      add\n      swap1\n      dup2\n      mstore\n      0x20\n      add\n      0x00\n      keccak256\n        /* \"contracts/oatfinalprod.sol\":10419:10456  _allowances[sender][spender] = amount */\n      dup2\n      swap1\n      sstore\n      pop\n        /* \"contracts/oatfinalprod.sol\":10178:10463  function _approve(... */\n      pop\n      pop\n      pop\n      jump\t// out\n        /* \"contracts/oatfinalprod.sol\":11334:13269  function _transfer(... */\n    tag_210:\n        /* \"contracts/oatfinalprod.sol\":11443:11447  bool */\n      0x00\n        /* \"contracts/oatfinalprod.sol\":11459:11471  bool takeFee */\n      dup1\n        /* \"contracts/oatfinalprod.sol\":11474:11478  true */\n      0x01\n        /* \"contracts/oatfinalprod.sol\":11459:11478  bool takeFee = true */\n      swap1\n      pop\n        /* \"contracts/oatfinalprod.sol\":11510:11511  0 */\n      0x00\n        /* \"contracts/oatfinalprod.sol\":11496:11512  to != address(0) */\n      0xffffffffffffffffffffffffffffffffffffffff\n      and\n        /* \"contracts/oatfinalprod.sol\":11496:11498  to */\n      dup5\n        /* \"contracts/oatfinalprod.sol\":11496:11512  to != address(0) */\n      0xffffffffffffffffffffffffffffffffffffffff\n      and\n      sub\n        /* \"contracts/oatfinalprod.sol\":11488:11552  require(to != address(0), \"ERC20: transfer to the zero address\") */\n      tag_292\n      jumpi\n      mload(0x40)\n      0x08c379a000000000000000000000000000000000000000000000000000000000\n      dup2\n      mstore\n      0x04\n      add\n      tag_293\n      swap1\n      tag_294\n      jump\t// in\n    tag_293:\n      mload(0x40)\n      dup1\n      swap2\n      sub\n      swap1\n      revert\n    tag_292:\n        /* \"contracts/oatfinalprod.sol\":11586:11587  0 */\n      0x00\n        /* \"contracts/oatfinalprod.sol\":11570:11588  from != address(0) */\n      0xffffffffffffffffffffffffffffffffffffffff\n      and\n        /* \"contracts/oatfinalprod.sol\":11570:11574  from */\n      dup6\n        /* \"contracts/oatfinalprod.sol\":11570:11588  from != address(0) */\n      0xffffffffffffffffffffffffffffffffffffffff\n      and\n      sub\n        /* \"contracts/oatfinalprod.sol\":11562:11630  require(from != address(0), \"ERC20: transfer from the zero address\") */\n      tag_295\n      jumpi\n      mload(0x40)\n      0x08c379a000000000000000000000000000000000000000000000000000000000\n      dup2\n      mstore\n      0x04\n      add\n      tag_296\n      swap1\n      tag_297\n      jump\t// in\n    tag_296:\n      mload(0x40)\n      dup1\n      swap2\n      sub\n      swap1\n      revert\n    tag_295:\n        /* \"contracts/oatfinalprod.sol\":11657:11658  0 */\n      0x00\n        /* \"contracts/oatfinalprod.sol\":11648:11654  amount */\n      dup4\n        /* \"contracts/oatfinalprod.sol\":11648:11658  amount > 0 */\n      gt\n        /* \"contracts/oatfinalprod.sol\":11640:11704  require(amount > 0, \"Transfer amount must be greater than zero\") */\n      tag_298\n      jumpi\n      mload(0x40)\n      0x08c379a000000000000000000000000000000000000000000000000000000000\n      dup2\n      mstore\n      0x04\n      add\n      tag_299\n      swap1\n      tag_300\n      jump\t// in\n    tag_299:\n      mload(0x40)\n      dup1\n      swap2\n      sub\n      swap1\n      revert\n    tag_298:\n        /* \"contracts/oatfinalprod.sol\":11727:11734  owner() */\n      tag_301\n        /* \"contracts/oatfinalprod.sol\":11727:11732  owner */\n      tag_131\n        /* \"contracts/oatfinalprod.sol\":11727:11734  owner() */\n      jump\t// in\n    tag_301:\n        /* \"contracts/oatfinalprod.sol\":11719:11734  from != owner() */\n      0xffffffffffffffffffffffffffffffffffffffff\n      and\n        /* \"contracts/oatfinalprod.sol\":11719:11723  from */\n      dup6\n        /* \"contracts/oatfinalprod.sol\":11719:11734  from != owner() */\n      0xffffffffffffffffffffffffffffffffffffffff\n      and\n      eq\n      iszero\n        /* \"contracts/oatfinalprod.sol\":11719:11751  from != owner() && to != owner() */\n      dup1\n      iszero\n      tag_302\n      jumpi\n      pop\n        /* \"contracts/oatfinalprod.sol\":11744:11751  owner() */\n      tag_303\n        /* \"contracts/oatfinalprod.sol\":11744:11749  owner */\n      tag_131\n        /* \"contracts/oatfinalprod.sol\":11744:11751  owner() */\n      jump\t// in\n    tag_303:\n        /* \"contracts/oatfinalprod.sol\":11738:11751  to != owner() */\n      0xffffffffffffffffffffffffffffffffffffffff\n      and\n        /* \"contracts/oatfinalprod.sol\":11738:11740  to */\n      dup5\n        /* \"contracts/oatfinalprod.sol\":11738:11751  to != owner() */\n      0xffffffffffffffffffffffffffffffffffffffff\n      and\n      eq\n      iszero\n        /* \"contracts/oatfinalprod.sol\":11719:11751  from != owner() && to != owner() */\n    tag_302:\n        /* \"contracts/oatfinalprod.sol\":11715:13242  if (from != owner() && to != owner()) {... */\n      iszero\n      tag_304\n      jumpi\n        /* \"contracts/oatfinalprod.sol\":11771:11791  transferDelayEnabled */\n      0x07\n      0x00\n      swap1\n      sload\n      swap1\n      0x0100\n      exp\n      swap1\n      div\n      0xff\n      and\n        /* \"contracts/oatfinalprod.sol\":11767:12171  if (transferDelayEnabled) {... */\n      iszero\n      tag_305\n      jumpi\n        /* \"contracts/oatfinalprod.sol\":11829:11839  swapRouter */\n      0x10\n      0x00\n      swap1\n      sload\n      swap1\n      0x0100\n      exp\n      swap1\n      div\n      0xffffffffffffffffffffffffffffffffffffffff\n      and\n        /* \"contracts/oatfinalprod.sol\":11815:11840  to != address(swapRouter) */\n      0xffffffffffffffffffffffffffffffffffffffff\n      and\n        /* \"contracts/oatfinalprod.sol\":11815:11817  to */\n      dup5\n        /* \"contracts/oatfinalprod.sol\":11815:11840  to != address(swapRouter) */\n      0xffffffffffffffffffffffffffffffffffffffff\n      and\n      eq\n      iszero\n        /* \"contracts/oatfinalprod.sol\":11815:11865  to != address(swapRouter) && to != address(lpPair) */\n      dup1\n      iszero\n      tag_306\n      jumpi\n      pop\n        /* \"contracts/oatfinalprod.sol\":11858:11864  lpPair */\n      0x11\n      0x00\n      swap1\n      sload\n      swap1\n      0x0100\n      exp\n      swap1\n      div\n      0xffffffffffffffffffffffffffffffffffffffff\n      and\n        /* \"contracts/oatfinalprod.sol\":11844:11865  to != address(lpPair) */\n      0xffffffffffffffffffffffffffffffffffffffff\n      and\n        /* \"contracts/oatfinalprod.sol\":11844:11846  to */\n      dup5\n        /* \"contracts/oatfinalprod.sol\":11844:11865  to != address(lpPair) */\n      0xffffffffffffffffffffffffffffffffffffffff\n      and\n      eq\n      iszero\n        /* \"contracts/oatfinalprod.sol\":11815:11865  to != address(swapRouter) && to != address(lpPair) */\n    tag_306:\n        /* \"contracts/oatfinalprod.sol\":11811:12157  if (to != address(swapRouter) && to != address(lpPair)) {... */\n      iszero\n      tag_307\n      jumpi\n        /* \"contracts/oatfinalprod.sol\":11964:11976  block.number */\n      number\n        /* \"contracts/oatfinalprod.sol\":11922:11950  _holderLastTransferTimestamp */\n      0x05\n        /* \"contracts/oatfinalprod.sol\":11922:11961  _holderLastTransferTimestamp[tx.origin] */\n      0x00\n        /* \"contracts/oatfinalprod.sol\":11951:11960  tx.origin */\n      origin\n        /* \"contracts/oatfinalprod.sol\":11922:11961  _holderLastTransferTimestamp[tx.origin] */\n      0xffffffffffffffffffffffffffffffffffffffff\n      and\n      0xffffffffffffffffffffffffffffffffffffffff\n      and\n      dup2\n      mstore\n      0x20\n      add\n      swap1\n      dup2\n      mstore\n      0x20\n      add\n      0x00\n      keccak256\n      sload\n        /* \"contracts/oatfinalprod.sol\":11922:11976  _holderLastTransferTimestamp[tx.origin] < block.number */\n      lt\n        /* \"contracts/oatfinalprod.sol\":11889:12062  require(... */\n      tag_308\n      jumpi\n      mload(0x40)\n      0x08c379a000000000000000000000000000000000000000000000000000000000\n      dup2\n      mstore\n      0x04\n      add\n      tag_309\n      swap1\n      tag_310\n      jump\t// in\n    tag_309:\n      mload(0x40)\n      dup1\n      swap2\n      sub\n      swap1\n      revert\n    tag_308:\n        /* \"contracts/oatfinalprod.sol\":12126:12138  block.number */\n      number\n        /* \"contracts/oatfinalprod.sol\":12084:12112  _holderLastTransferTimestamp */\n      0x05\n        /* \"contracts/oatfinalprod.sol\":12084:12123  _holderLastTransferTimestamp[tx.origin] */\n      0x00\n        /* \"contracts/oatfinalprod.sol\":12113:12122  tx.origin */\n      origin\n        /* \"contracts/oatfinalprod.sol\":12084:12123  _holderLastTransferTimestamp[tx.origin] */\n      0xffffffffffffffffffffffffffffffffffffffff\n      and\n      0xffffffffffffffffffffffffffffffffffffffff\n      and\n      dup2\n      mstore\n      0x20\n      add\n      swap1\n      dup2\n      mstore\n      0x20\n      add\n      0x00\n      keccak256\n        /* \"contracts/oatfinalprod.sol\":12084:12138  _holderLastTransferTimestamp[tx.origin] = block.number */\n      dup2\n      swap1\n      sstore\n      pop\n        /* \"contracts/oatfinalprod.sol\":11811:12157  if (to != address(swapRouter) && to != address(lpPair)) {... */\n    tag_307:\n        /* \"contracts/oatfinalprod.sol\":11767:12171  if (transferDelayEnabled) {... */\n    tag_305:\n        /* \"contracts/oatfinalprod.sol\":12214:12220  lpPair */\n      0x11\n      0x00\n      swap1\n      sload\n      swap1\n      0x0100\n      exp\n      swap1\n      div\n      0xffffffffffffffffffffffffffffffffffffffff\n      and\n        /* \"contracts/oatfinalprod.sol\":12206:12220  from == lpPair */\n      0xffffffffffffffffffffffffffffffffffffffff\n      and\n        /* \"contracts/oatfinalprod.sol\":12206:12210  from */\n      dup6\n        /* \"contracts/oatfinalprod.sol\":12206:12220  from == lpPair */\n      0xffffffffffffffffffffffffffffffffffffffff\n      and\n      eq\n        /* \"contracts/oatfinalprod.sol\":12206:12265  from == lpPair &&... */\n      dup1\n      iszero\n      tag_311\n      jumpi\n      pop\n        /* \"contracts/oatfinalprod.sol\":12254:12264  swapRouter */\n      0x10\n      0x00\n      swap1\n      sload\n      swap1\n      0x0100\n      exp\n      swap1\n      div\n      0xffffffffffffffffffffffffffffffffffffffff\n      and\n        /* \"contracts/oatfinalprod.sol\":12240:12265  to != address(swapRouter) */\n      0xffffffffffffffffffffffffffffffffffffffff\n      and\n        /* \"contracts/oatfinalprod.sol\":12240:12242  to */\n      dup5\n        /* \"contracts/oatfinalprod.sol\":12240:12265  to != address(swapRouter) */\n      0xffffffffffffffffffffffffffffffffffffffff\n      and\n      eq\n      iszero\n        /* \"contracts/oatfinalprod.sol\":12206:12265  from == lpPair &&... */\n    tag_311:\n        /* \"contracts/oatfinalprod.sol\":12206:12306  from == lpPair &&... */\n      dup1\n      iszero\n      tag_312\n      jumpi\n      pop\n        /* \"contracts/oatfinalprod.sol\":12299:12305  lpPair */\n      0x11\n      0x00\n      swap1\n      sload\n      swap1\n      0x0100\n      exp\n      swap1\n      div\n      0xffffffffffffffffffffffffffffffffffffffff\n      and\n        /* \"contracts/oatfinalprod.sol\":12285:12306  to != address(lpPair) */\n      0xffffffffffffffffffffffffffffffffffffffff\n      and\n        /* \"contracts/oatfinalprod.sol\":12285:12287  to */\n      dup5\n        /* \"contracts/oatfinalprod.sol\":12285:12306  to != address(lpPair) */\n      0xffffffffffffffffffffffffffffffffffffffff\n      and\n      eq\n      iszero\n        /* \"contracts/oatfinalprod.sol\":12206:12306  from == lpPair &&... */\n    tag_312:\n        /* \"contracts/oatfinalprod.sol\":12206:12337  from == lpPair &&... */\n      dup1\n      iszero\n      tag_313\n      jumpi\n      pop\n        /* \"contracts/oatfinalprod.sol\":12327:12333  _noFee */\n      0x02\n        /* \"contracts/oatfinalprod.sol\":12327:12337  _noFee[to] */\n      0x00\n        /* \"contracts/oatfinalprod.sol\":12334:12336  to */\n      dup6\n        /* \"contracts/oatfinalprod.sol\":12327:12337  _noFee[to] */\n      0xffffffffffffffffffffffffffffffffffffffff\n      and\n      0xffffffffffffffffffffffffffffffffffffffff\n      and\n      dup2\n      mstore\n      0x20\n      add\n      swap1\n      dup2\n      mstore\n      0x20\n      add\n      0x00\n      keccak256\n      0x00\n      swap1\n      sload\n      swap1\n      0x0100\n      exp\n      swap1\n      div\n      0xff\n      and\n        /* \"contracts/oatfinalprod.sol\":12326:12337  !_noFee[to] */\n      iszero\n        /* \"contracts/oatfinalprod.sol\":12206:12337  from == lpPair &&... */\n    tag_313:\n        /* \"contracts/oatfinalprod.sol\":12185:12600  if (... */\n      iszero\n      tag_314\n      jumpi\n        /* \"contracts/oatfinalprod.sol\":12388:12400  _maxTxAmount */\n      sload(0x0d)\n        /* \"contracts/oatfinalprod.sol\":12378:12384  amount */\n      dup4\n        /* \"contracts/oatfinalprod.sol\":12378:12400  amount <= _maxTxAmount */\n      gt\n      iszero\n        /* \"contracts/oatfinalprod.sol\":12370:12430  require(amount <= _maxTxAmount, \"Exceeds the _maxTxAmount.\") */\n      tag_315\n      jumpi\n      mload(0x40)\n      0x08c379a000000000000000000000000000000000000000000000000000000000\n      dup2\n      mstore\n      0x04\n      add\n      tag_316\n      swap1\n      tag_317\n      jump\t// in\n    tag_316:\n      mload(0x40)\n      dup1\n      swap2\n      sub\n      swap1\n      revert\n    tag_315:\n        /* \"contracts/oatfinalprod.sol\":12503:12517  _maxWalletSize */\n      sload(0x0e)\n        /* \"contracts/oatfinalprod.sol\":12493:12499  amount */\n      dup4\n        /* \"contracts/oatfinalprod.sol\":12477:12490  balanceOf(to) */\n      tag_318\n        /* \"contracts/oatfinalprod.sol\":12487:12489  to */\n      dup7\n        /* \"contracts/oatfinalprod.sol\":12477:12486  balanceOf */\n      tag_112\n        /* \"contracts/oatfinalprod.sol\":12477:12490  balanceOf(to) */\n      jump\t// in\n    tag_318:\n        /* \"contracts/oatfinalprod.sol\":12477:12499  balanceOf(to) + amount */\n      tag_319\n      swap2\n      swap1\n      tag_320\n      jump\t// in\n    tag_319:\n        /* \"contracts/oatfinalprod.sol\":12477:12517  balanceOf(to) + amount <= _maxWalletSize */\n      gt\n      iszero\n        /* \"contracts/oatfinalprod.sol\":12448:12585  require(... */\n      tag_321\n      jumpi\n      mload(0x40)\n      0x08c379a000000000000000000000000000000000000000000000000000000000\n      dup2\n      mstore\n      0x04\n      add\n      tag_322\n      swap1\n      tag_323\n      jump\t// in\n    tag_322:\n      mload(0x40)\n      dup1\n      swap2\n      sub\n      swap1\n      revert\n    tag_321:\n        /* \"contracts/oatfinalprod.sol\":12185:12600  if (... */\n    tag_314:\n        /* \"contracts/oatfinalprod.sol\":12618:12635  is_sell(from, to) */\n      tag_324\n        /* \"contracts/oatfinalprod.sol\":12626:12630  from */\n      dup6\n        /* \"contracts/oatfinalprod.sol\":12632:12634  to */\n      dup6\n        /* \"contracts/oatfinalprod.sol\":12618:12625  is_sell */\n      tag_325\n        /* \"contracts/oatfinalprod.sol\":12618:12635  is_sell(from, to) */\n      jump\t// in\n    tag_324:\n        /* \"contracts/oatfinalprod.sol\":12618:12646  is_sell(from, to) && !inSwap */\n      dup1\n      iszero\n      tag_326\n      jumpi\n      pop\n        /* \"contracts/oatfinalprod.sol\":12640:12646  inSwap */\n      0x11\n      0x14\n      swap1\n      sload\n      swap1\n      0x0100\n      exp\n      swap1\n      div\n      0xff\n      and\n        /* \"contracts/oatfinalprod.sol\":12639:12646  !inSwap */\n      iszero\n        /* \"contracts/oatfinalprod.sol\":12618:12646  is_sell(from, to) && !inSwap */\n    tag_326:\n        /* \"contracts/oatfinalprod.sol\":12614:12871  if (is_sell(from, to) && !inSwap) {... */\n      iszero\n      tag_327\n      jumpi\n        /* \"contracts/oatfinalprod.sol\":12666:12694  uint256 contractTokenBalance */\n      0x00\n        /* \"contracts/oatfinalprod.sol\":12697:12721  balanceOf(address(this)) */\n      tag_328\n        /* \"contracts/oatfinalprod.sol\":12715:12719  this */\n      address\n        /* \"contracts/oatfinalprod.sol\":12697:12706  balanceOf */\n      tag_112\n        /* \"contracts/oatfinalprod.sol\":12697:12721  balanceOf(address(this)) */\n      jump\t// in\n    tag_328:\n        /* \"contracts/oatfinalprod.sol\":12666:12721  uint256 contractTokenBalance = balanceOf(address(this)) */\n      swap1\n      pop\n        /* \"contracts/oatfinalprod.sol\":12767:12780  swapThreshold */\n      sload(0x08)\n        /* \"contracts/oatfinalprod.sol\":12743:12763  contractTokenBalance */\n      dup2\n        /* \"contracts/oatfinalprod.sol\":12743:12780  contractTokenBalance >= swapThreshold */\n      lt\n        /* \"contracts/oatfinalprod.sol\":12739:12857  if (contractTokenBalance >= swapThreshold) {... */\n      tag_329\n      jumpi\n        /* \"contracts/oatfinalprod.sol\":12804:12838  internalSwap(contractTokenBalance) */\n      tag_330\n        /* \"contracts/oatfinalprod.sol\":12817:12837  contractTokenBalance */\n      dup2\n        /* \"contracts/oatfinalprod.sol\":12804:12816  internalSwap */\n      tag_234\n        /* \"contracts/oatfinalprod.sol\":12804:12838  internalSwap(contractTokenBalance) */\n      jump\t// in\n    tag_330:\n        /* \"contracts/oatfinalprod.sol\":12739:12857  if (contractTokenBalance >= swapThreshold) {... */\n    tag_329:\n        /* \"contracts/oatfinalprod.sol\":12648:12871  {... */\n      pop\n        /* \"contracts/oatfinalprod.sol\":12614:12871  if (is_sell(from, to) && !inSwap) {... */\n    tag_327:\n        /* \"contracts/oatfinalprod.sol\":12889:12895  _noFee */\n      0x02\n        /* \"contracts/oatfinalprod.sol\":12889:12901  _noFee[from] */\n      0x00\n        /* \"contracts/oatfinalprod.sol\":12896:12900  from */\n      dup7\n        /* \"contracts/oatfinalprod.sol\":12889:12901  _noFee[from] */\n      0xffffffffffffffffffffffffffffffffffffffff\n      and\n      0xffffffffffffffffffffffffffffffffffffffff\n      and\n      dup2\n      mstore\n      0x20\n      add\n      swap1\n      dup2\n      mstore\n      0x20\n      add\n      0x00\n      keccak256\n      0x00\n      swap1\n      sload\n      swap1\n      0x0100\n      exp\n      swap1\n      div\n      0xff\n      and\n        /* \"contracts/oatfinalprod.sol\":12889:12915  _noFee[from] || _noFee[to] */\n      dup1\n      tag_331\n      jumpi\n      pop\n        /* \"contracts/oatfinalprod.sol\":12905:12911  _noFee */\n      0x02\n        /* \"contracts/oatfinalprod.sol\":12905:12915  _noFee[to] */\n      0x00\n        /* \"contracts/oatfinalprod.sol\":12912:12914  to */\n      dup6\n        /* \"contracts/oatfinalprod.sol\":12905:12915  _noFee[to] */\n      0xffffffffffffffffffffffffffffffffffffffff\n      and\n      0xffffffffffffffffffffffffffffffffffffffff\n      and\n      dup2\n      mstore\n      0x20\n      add\n      swap1\n      dup2\n      mstore\n      0x20\n      add\n      0x00\n      keccak256\n      0x00\n      swap1\n      sload\n      swap1\n      0x0100\n      exp\n      swap1\n      div\n      0xff\n      and\n        /* \"contracts/oatfinalprod.sol\":12889:12915  _noFee[from] || _noFee[to] */\n    tag_331:\n        /* \"contracts/oatfinalprod.sol\":12885:12965  if (_noFee[from] || _noFee[to]) {... */\n      iszero\n      tag_332\n      jumpi\n        /* \"contracts/oatfinalprod.sol\":12945:12950  false */\n      0x00\n        /* \"contracts/oatfinalprod.sol\":12935:12950  takeFee = false */\n      swap1\n      pop\n        /* \"contracts/oatfinalprod.sol\":12885:12965  if (_noFee[from] || _noFee[to]) {... */\n    tag_332:\n        /* \"contracts/oatfinalprod.sol\":12995:13001  amount */\n      dup3\n        /* \"contracts/oatfinalprod.sol\":12978:12985  balance */\n      0x04\n        /* \"contracts/oatfinalprod.sol\":12978:12991  balance[from] */\n      0x00\n        /* \"contracts/oatfinalprod.sol\":12986:12990  from */\n      dup8\n        /* \"contracts/oatfinalprod.sol\":12978:12991  balance[from] */\n      0xffffffffffffffffffffffffffffffffffffffff\n      and\n      0xffffffffffffffffffffffffffffffffffffffff\n      and\n      dup2\n      mstore\n      0x20\n      add\n      swap1\n      dup2\n      mstore\n      0x20\n      add\n      0x00\n      keccak256\n      0x00\n        /* \"contracts/oatfinalprod.sol\":12978:13001  balance[from] -= amount */\n      dup3\n      dup3\n      sload\n      tag_333\n      swap2\n      swap1\n      tag_208\n      jump\t// in\n    tag_333:\n      swap3\n      pop\n      pop\n      dup2\n      swap1\n      sstore\n      pop\n        /* \"contracts/oatfinalprod.sol\":13015:13037  uint256 amountAfterFee */\n      0x00\n        /* \"contracts/oatfinalprod.sol\":13041:13048  takeFee */\n      dup2\n        /* \"contracts/oatfinalprod.sol\":13040:13135  (takeFee)... */\n      tag_334\n      jumpi\n        /* \"contracts/oatfinalprod.sol\":13129:13135  amount */\n      dup4\n        /* \"contracts/oatfinalprod.sol\":13040:13135  (takeFee)... */\n      jump(tag_335)\n    tag_334:\n        /* \"contracts/oatfinalprod.sol\":13068:13110  takeTaxes(from, is_sell(from, to), amount) */\n      tag_336\n        /* \"contracts/oatfinalprod.sol\":13078:13082  from */\n      dup7\n        /* \"contracts/oatfinalprod.sol\":13084:13101  is_sell(from, to) */\n      tag_337\n        /* \"contracts/oatfinalprod.sol\":13092:13096  from */\n      dup9\n        /* \"contracts/oatfinalprod.sol\":13098:13100  to */\n      dup9\n        /* \"contracts/oatfinalprod.sol\":13084:13091  is_sell */\n      tag_325\n        /* \"contracts/oatfinalprod.sol\":13084:13101  is_sell(from, to) */\n      jump\t// in\n    tag_337:\n        /* \"contracts/oatfinalprod.sol\":13103:13109  amount */\n      dup7\n        /* \"contracts/oatfinalprod.sol\":13068:13077  takeTaxes */\n      tag_338\n        /* \"contracts/oatfinalprod.sol\":13068:13110  takeTaxes(from, is_sell(from, to), amount) */\n      jump\t// in\n    tag_336:\n        /* \"contracts/oatfinalprod.sol\":13040:13135  (takeFee)... */\n    tag_335:\n        /* \"contracts/oatfinalprod.sol\":13015:13135  uint256 amountAfterFee = (takeFee)... */\n      swap1\n      pop\n        /* \"contracts/oatfinalprod.sol\":13164:13178  amountAfterFee */\n      dup1\n        /* \"contracts/oatfinalprod.sol\":13149:13156  balance */\n      0x04\n        /* \"contracts/oatfinalprod.sol\":13149:13160  balance[to] */\n      0x00\n        /* \"contracts/oatfinalprod.sol\":13157:13159  to */\n      dup8\n        /* \"contracts/oatfinalprod.sol\":13149:13160  balance[to] */\n      0xffffffffffffffffffffffffffffffffffffffff\n      and\n      0xffffffffffffffffffffffffffffffffffffffff\n      and\n      dup2\n      mstore\n      0x20\n      add\n      swap1\n      dup2\n      mstore\n      0x20\n      add\n      0x00\n      keccak256\n      0x00\n        /* \"contracts/oatfinalprod.sol\":13149:13178  balance[to] += amountAfterFee */\n      dup3\n      dup3\n      sload\n      tag_339\n      swap2\n      swap1\n      tag_320\n      jump\t// in\n    tag_339:\n      swap3\n      pop\n      pop\n      dup2\n      swap1\n      sstore\n      pop\n        /* \"contracts/oatfinalprod.sol\":13212:13214  to */\n      dup5\n        /* \"contracts/oatfinalprod.sol\":13197:13231  Transfer(from, to, amountAfterFee) */\n      0xffffffffffffffffffffffffffffffffffffffff\n      and\n        /* \"contracts/oatfinalprod.sol\":13206:13210  from */\n      dup7\n        /* \"contracts/oatfinalprod.sol\":13197:13231  Transfer(from, to, amountAfterFee) */\n      0xffffffffffffffffffffffffffffffffffffffff\n      and\n      0xddf252ad1be2c89b69c2b068fc378daa952ba7f163c4a11628f55a4df523b3ef\n        /* \"contracts/oatfinalprod.sol\":13216:13230  amountAfterFee */\n      dup4\n        /* \"contracts/oatfinalprod.sol\":13197:13231  Transfer(from, to, amountAfterFee) */\n      mload(0x40)\n      tag_340\n      swap2\n      swap1\n      tag_50\n      jump\t// in\n    tag_340:\n      mload(0x40)\n      dup1\n      swap2\n      sub\n      swap1\n      log3\n        /* \"contracts/oatfinalprod.sol\":11753:13242  {... */\n      pop\n        /* \"contracts/oatfinalprod.sol\":11715:13242  if (from != owner() && to != owner()) {... */\n    tag_304:\n        /* \"contracts/oatfinalprod.sol\":13258:13262  true */\n      0x01\n        /* \"contracts/oatfinalprod.sol\":13251:13262  return true */\n      swap2\n      pop\n      pop\n        /* \"contracts/oatfinalprod.sol\":11334:13269  function _transfer(... */\n      swap4\n      swap3\n      pop\n      pop\n      pop\n      jump\t// out\n        /* \"contracts/oatfinalprod.sol\":1236:1341  function _msgSender() internal view returns (address payable) {... */\n    tag_229:\n        /* \"contracts/oatfinalprod.sol\":1281:1296  address payable */\n      0x00\n        /* \"contracts/oatfinalprod.sol\":1323:1333  msg.sender */\n      caller\n        /* \"contracts/oatfinalprod.sol\":1308:1334  return payable(msg.sender) */\n      swap1\n      pop\n        /* \"contracts/oatfinalprod.sol\":1236:1341  function _msgSender() internal view returns (address payable) {... */\n      swap1\n      jump\t// out\n        /* \"contracts/oatfinalprod.sol\":13995:14821  function internalSwap(uint256 contractTokenBalance) internal inSwapFlag {... */\n    tag_234:\n        /* \"contracts/oatfinalprod.sol\":8299:8303  true */\n      0x01\n        /* \"contracts/oatfinalprod.sol\":8290:8296  inSwap */\n      0x11\n      0x14\n        /* \"contracts/oatfinalprod.sol\":8290:8303  inSwap = true */\n      0x0100\n      exp\n      dup2\n      sload\n      dup2\n      0xff\n      mul\n      not\n      and\n      swap1\n      dup4\n      iszero\n      iszero\n      mul\n      or\n      swap1\n      sstore\n      pop\n        /* \"contracts/oatfinalprod.sol\":14077:14098  address[] memory path */\n      0x00\n        /* \"contracts/oatfinalprod.sol\":14115:14116  2 */\n      0x02\n        /* \"contracts/oatfinalprod.sol\":14101:14117  new address[](2) */\n      0xffffffffffffffff\n      dup2\n      gt\n      iszero\n      tag_344\n      jumpi\n      tag_345\n      tag_346\n      jump\t// in\n    tag_345:\n    tag_344:\n      mload(0x40)\n      swap1\n      dup1\n      dup3\n      mstore\n      dup1\n      0x20\n      mul\n      0x20\n      add\n      dup3\n      add\n      0x40\n      mstore\n      dup1\n      iszero\n      tag_347\n      jumpi\n      dup2\n      0x20\n      add\n      0x20\n      dup3\n      mul\n      dup1\n      calldatasize\n      dup4\n      calldatacopy\n      dup1\n      dup3\n      add\n      swap2\n      pop\n      pop\n      swap1\n      pop\n    tag_347:\n      pop\n        /* \"contracts/oatfinalprod.sol\":14077:14117  address[] memory path = new address[](2) */\n      swap1\n      pop\n        /* \"contracts/oatfinalprod.sol\":14145:14149  this */\n      address\n        /* \"contracts/oatfinalprod.sol\":14127:14131  path */\n      dup2\n        /* \"contracts/oatfinalprod.sol\":14132:14133  0 */\n      0x00\n        /* \"contracts/oatfinalprod.sol\":14127:14134  path[0] */\n      dup2\n      mload\n      dup2\n      lt\n      tag_348\n      jumpi\n      tag_349\n      tag_350\n      jump\t// in\n    tag_349:\n    tag_348:\n      0x20\n      mul\n      0x20\n      add\n      add\n        /* \"contracts/oatfinalprod.sol\":14127:14150  path[0] = address(this) */\n      swap1\n      0xffffffffffffffffffffffffffffffffffffffff\n      and\n      swap1\n      dup2\n      0xffffffffffffffffffffffffffffffffffffffff\n      and\n      dup2\n      mstore\n      pop\n      pop\n        /* \"contracts/oatfinalprod.sol\":14170:14180  swapRouter */\n      0x10\n      0x00\n      swap1\n      sload\n      swap1\n      0x0100\n      exp\n      swap1\n      div\n      0xffffffffffffffffffffffffffffffffffffffff\n      and\n        /* \"contracts/oatfinalprod.sol\":14170:14185  swapRouter.WETH */\n      0xffffffffffffffffffffffffffffffffffffffff\n      and\n      0xad5c4648\n        /* \"contracts/oatfinalprod.sol\":14170:14187  swapRouter.WETH() */\n      mload(0x40)\n      dup2\n      0xffffffff\n      and\n      0xe0\n      shl\n      dup2\n      mstore\n      0x04\n      add\n      0x20\n      mload(0x40)\n      dup1\n      dup4\n      sub\n      dup2\n      dup7\n      gas\n      staticcall\n      iszero\n      dup1\n      iszero\n      tag_352\n      jumpi\n      returndatasize\n      0x00\n      dup1\n      returndatacopy\n      revert(0x00, returndatasize)\n    tag_352:\n      pop\n      pop\n      pop\n      pop\n      mload(0x40)\n      returndatasize\n      not(0x1f)\n      0x1f\n      dup3\n      add\n      and\n      dup3\n      add\n      dup1\n      0x40\n      mstore\n      pop\n      dup2\n      add\n      swap1\n      tag_353\n      swap2\n      swap1\n      tag_354\n      jump\t// in\n    tag_353:\n        /* \"contracts/oatfinalprod.sol\":14160:14164  path */\n      dup2\n        /* \"contracts/oatfinalprod.sol\":14165:14166  1 */\n      0x01\n        /* \"contracts/oatfinalprod.sol\":14160:14167  path[1] */\n      dup2\n      mload\n      dup2\n      lt\n      tag_355\n      jumpi\n      tag_356\n      tag_350\n      jump\t// in\n    tag_356:\n    tag_355:\n      0x20\n      mul\n      0x20\n      add\n      add\n        /* \"contracts/oatfinalprod.sol\":14160:14187  path[1] = swapRouter.WETH() */\n      swap1\n      0xffffffffffffffffffffffffffffffffffffffff\n      and\n      swap1\n      dup2\n      0xffffffffffffffffffffffffffffffffffffffff\n      and\n      dup2\n      mstore\n      pop\n      pop\n        /* \"contracts/oatfinalprod.sol\":14266:14283  type(uint256).max */\n      0xffffffffffffffffffffffffffffffffffffffffffffffffffffffffffffffff\n        /* \"contracts/oatfinalprod.sol\":14215:14226  _allowances */\n      0x01\n        /* \"contracts/oatfinalprod.sol\":14215:14241  _allowances[address(this)] */\n      0x00\n        /* \"contracts/oatfinalprod.sol\":14235:14239  this */\n      address\n        /* \"contracts/oatfinalprod.sol\":14215:14241  _allowances[address(this)] */\n      0xffffffffffffffffffffffffffffffffffffffff\n      and\n      0xffffffffffffffffffffffffffffffffffffffff\n      and\n      dup2\n      mstore\n      0x20\n      add\n      swap1\n      dup2\n      mstore\n      0x20\n      add\n      0x00\n      keccak256\n        /* \"contracts/oatfinalprod.sol\":14215:14262  _allowances[address(this)][address(swapRouter)] */\n      0x00\n        /* \"contracts/oatfinalprod.sol\":14250:14260  swapRouter */\n      0x10\n      0x00\n      swap1\n      sload\n      swap1\n      0x0100\n      exp\n      swap1\n      div\n      0xffffffffffffffffffffffffffffffffffffffff\n      and\n        /* \"contracts/oatfinalprod.sol\":14215:14262  _allowances[address(this)][address(swapRouter)] */\n      0xffffffffffffffffffffffffffffffffffffffff\n      and\n      0xffffffffffffffffffffffffffffffffffffffff\n      and\n      dup2\n      mstore\n      0x20\n      add\n      swap1\n      dup2\n      mstore\n      0x20\n      add\n      0x00\n      keccak256\n      sload\n        /* \"contracts/oatfinalprod.sol\":14215:14283  _allowances[address(this)][address(swapRouter)] != type(uint256).max */\n      eq\n        /* \"contracts/oatfinalprod.sol\":14198:14386  if (... */\n      tag_357\n      jumpi\n        /* \"contracts/oatfinalprod.sol\":14358:14375  type(uint256).max */\n      0xffffffffffffffffffffffffffffffffffffffffffffffffffffffffffffffff\n        /* \"contracts/oatfinalprod.sol\":14308:14319  _allowances */\n      0x01\n        /* \"contracts/oatfinalprod.sol\":14308:14334  _allowances[address(this)] */\n      0x00\n        /* \"contracts/oatfinalprod.sol\":14328:14332  this */\n      address\n        /* \"contracts/oatfinalprod.sol\":14308:14334  _allowances[address(this)] */\n      0xffffffffffffffffffffffffffffffffffffffff\n      and\n      0xffffffffffffffffffffffffffffffffffffffff\n      and\n      dup2\n      mstore\n      0x20\n      add\n      swap1\n      dup2\n      mstore\n      0x20\n      add\n      0x00\n      keccak256\n        /* \"contracts/oatfinalprod.sol\":14308:14355  _allowances[address(this)][address(swapRouter)] */\n      0x00\n        /* \"contracts/oatfinalprod.sol\":14343:14353  swapRouter */\n      0x10\n      0x00\n      swap1\n      sload\n      swap1\n      0x0100\n      exp\n      swap1\n      div\n      0xffffffffffffffffffffffffffffffffffffffff\n      and\n        /* \"contracts/oatfinalprod.sol\":14308:14355  _allowances[address(this)][address(swapRouter)] */\n      0xffffffffffffffffffffffffffffffffffffffff\n      and\n      0xffffffffffffffffffffffffffffffffffffffff\n      and\n      dup2\n      mstore\n      0x20\n      add\n      swap1\n      dup2\n      mstore\n      0x20\n      add\n      0x00\n      keccak256\n        /* \"contracts/oatfinalprod.sol\":14308:14375  _allowances[address(this)][address(swapRouter)] = type(uint256).max */\n      dup2\n      swap1\n      sstore\n      pop\n        /* \"contracts/oatfinalprod.sol\":14198:14386  if (... */\n    tag_357:\n        /* \"contracts/oatfinalprod.sol\":14412:14422  swapRouter */\n      0x10\n      0x00\n      swap1\n      sload\n      swap1\n      0x0100\n      exp\n      swap1\n      div\n      0xffffffffffffffffffffffffffffffffffffffff\n      and\n        /* \"contracts/oatfinalprod.sol\":14412:14473  swapRouter.swapExactTokensForETHSupportingFeeOnTransferTokens */\n      0xffffffffffffffffffffffffffffffffffffffff\n      and\n      0x791ac947\n        /* \"contracts/oatfinalprod.sol\":14491:14511  contractTokenBalance */\n      dup4\n        /* \"contracts/oatfinalprod.sol\":14529:14530  0 */\n      0x00\n        /* \"contracts/oatfinalprod.sol\":14548:14552  path */\n      dup5\n        /* \"contracts/oatfinalprod.sol\":14578:14582  this */\n      address\n        /* \"contracts/oatfinalprod.sol\":14601:14616  block.timestamp */\n      timestamp\n        /* \"contracts/oatfinalprod.sol\":14412:14630  swapRouter.swapExactTokensForETHSupportingFeeOnTransferTokens(... */\n      mload(0x40)\n      dup7\n      0xffffffff\n      and\n      0xe0\n      shl\n      dup2\n      mstore\n      0x04\n      add\n      tag_358\n      swap6\n      swap5\n      swap4\n      swap3\n      swap2\n      swap1\n      tag_359\n      jump\t// in\n    tag_358:\n      0x00\n      mload(0x40)\n      dup1\n      dup4\n      sub\n      dup2\n      0x00\n      dup8\n      dup1\n      extcodesize\n      iszero\n      dup1\n      iszero\n      tag_360\n      jumpi\n      0x00\n      dup1\n      revert\n    tag_360:\n      pop\n      gas\n      call\n      swap3\n      pop\n      pop\n      pop\n      dup1\n      iszero\n      tag_361\n      jumpi\n      pop\n      0x01\n    tag_361:\n        /* \"contracts/oatfinalprod.sol\":14396:14679  try... */\n      tag_362\n      jumpi\n        /* \"contracts/oatfinalprod.sol\":14662:14669  return; */\n      pop\n      jump(tag_343)\n        /* \"contracts/oatfinalprod.sol\":14396:14679  try... */\n    tag_362:\n        /* \"contracts/oatfinalprod.sol\":14688:14700  bool success */\n      0x00\n        /* \"contracts/oatfinalprod.sol\":14739:14740  0 */\n      dup1\n        /* \"contracts/oatfinalprod.sol\":14715:14736  address(this).balance */\n      selfbalance\n        /* \"contracts/oatfinalprod.sol\":14715:14740  address(this).balance > 0 */\n      gt\n        /* \"contracts/oatfinalprod.sol\":14711:14814  if (address(this).balance > 0)... */\n      iszero\n      tag_367\n      jumpi\n        /* \"contracts/oatfinalprod.sol\":14768:14775  _oatFee */\n      0x0f\n      0x00\n      swap1\n      sload\n      swap1\n      0x0100\n      exp\n      swap1\n      div\n      0xffffffffffffffffffffffffffffffffffffffff\n      and\n        /* \"contracts/oatfinalprod.sol\":14768:14780  _oatFee.call */\n      0xffffffffffffffffffffffffffffffffffffffff\n      and\n        /* \"contracts/oatfinalprod.sol\":14788:14809  address(this).balance */\n      selfbalance\n        /* \"contracts/oatfinalprod.sol\":14768:14814  _oatFee.call{value: address(this).balance}(\"\") */\n      mload(0x40)\n      tag_368\n      swap1\n      tag_369\n      jump\t// in\n    tag_368:\n      0x00\n      mload(0x40)\n      dup1\n      dup4\n      sub\n      dup2\n      dup6\n      dup8\n      gas\n      call\n      swap3\n      pop\n      pop\n      pop\n      returndatasize\n      dup1\n      0x00\n      dup2\n      eq\n      tag_372\n      jumpi\n      mload(0x40)\n      swap2\n      pop\n      and(add(returndatasize, 0x3f), not(0x1f))\n      dup3\n      add\n      0x40\n      mstore\n      returndatasize\n      dup3\n      mstore\n      returndatasize\n      0x00\n      0x20\n      dup5\n      add\n      returndatacopy\n      jump(tag_371)\n    tag_372:\n      0x60\n      swap2\n      pop\n    tag_371:\n      pop\n        /* \"contracts/oatfinalprod.sol\":14754:14814  (success, ) = _oatFee.call{value: address(this).balance}(\"\") */\n      pop\n      dup1\n      swap2\n      pop\n      pop\n        /* \"contracts/oatfinalprod.sol\":14711:14814  if (address(this).balance > 0)... */\n    tag_367:\n        /* \"contracts/oatfinalprod.sol\":14067:14821  {... */\n      pop\n      pop\n        /* \"contracts/oatfinalprod.sol\":8313:8314  _ */\n    tag_343:\n        /* \"contracts/oatfinalprod.sol\":8333:8338  false */\n      0x00\n        /* \"contracts/oatfinalprod.sol\":8324:8330  inSwap */\n      0x11\n      0x14\n        /* \"contracts/oatfinalprod.sol\":8324:8338  inSwap = false */\n      0x0100\n      exp\n      dup2\n      sload\n      dup2\n      0xff\n      mul\n      not\n      and\n      swap1\n      dup4\n      iszero\n      iszero\n      mul\n      or\n      swap1\n      sstore\n      pop\n        /* \"contracts/oatfinalprod.sol\":13995:14821  function internalSwap(uint256 contractTokenBalance) internal inSwapFlag {... */\n      pop\n      jump\t// out\n        /* \"contracts/oatfinalprod.sol\":2239:2408  function _setOwner(address newOwner) private {... */\n    tag_251:\n        /* \"contracts/oatfinalprod.sol\":2294:2310  address oldOwner */\n      0x00\n        /* \"contracts/oatfinalprod.sol\":2313:2319  _owner */\n      dup1\n      0x00\n      swap1\n      sload\n      swap1\n      0x0100\n      exp\n      swap1\n      div\n      0xffffffffffffffffffffffffffffffffffffffff\n      and\n        /* \"contracts/oatfinalprod.sol\":2294:2319  address oldOwner = _owner */\n      swap1\n      pop\n        /* \"contracts/oatfinalprod.sol\":2338:2346  newOwner */\n      dup2\n        /* \"contracts/oatfinalprod.sol\":2329:2335  _owner */\n      0x00\n      dup1\n        /* \"contracts/oatfinalprod.sol\":2329:2346  _owner = newOwner */\n      0x0100\n      exp\n      dup2\n      sload\n      dup2\n      0xffffffffffffffffffffffffffffffffffffffff\n      mul\n      not\n      and\n      swap1\n      dup4\n      0xffffffffffffffffffffffffffffffffffffffff\n      and\n      mul\n      or\n      swap1\n      sstore\n      pop\n        /* \"contracts/oatfinalprod.sol\":2392:2400  newOwner */\n      dup2\n        /* \"contracts/oatfinalprod.sol\":2361:2401  OwnershipTransferred(oldOwner, newOwner) */\n      0xffffffffffffffffffffffffffffffffffffffff\n      and\n        /* \"contracts/oatfinalprod.sol\":2382:2390  oldOwner */\n      dup2\n        /* \"contracts/oatfinalprod.sol\":2361:2401  OwnershipTransferred(oldOwner, newOwner) */\n      0xffffffffffffffffffffffffffffffffffffffff\n      and\n      0x8be0079c531659141344cd1fd0a4f28419497f9722a3daafe3b4186f6b6457e0\n      mload(0x40)\n      mload(0x40)\n      dup1\n      swap2\n      sub\n      swap1\n      log3\n        /* \"contracts/oatfinalprod.sol\":2284:2408  {... */\n      pop\n        /* \"contracts/oatfinalprod.sol\":2239:2408  function _setOwner(address newOwner) private {... */\n      pop\n      jump\t// out\n        /* \"contracts/oatfinalprod.sol\":11166:11327  function is_sell(address ins, address out) internal view returns (bool) {... */\n    tag_325:\n        /* \"contracts/oatfinalprod.sol\":11232:11236  bool */\n      0x00\n        /* \"contracts/oatfinalprod.sol\":11248:11261  bool _is_sell */\n      dup1\n        /* \"contracts/oatfinalprod.sol\":11264:11272  isLpPair */\n      0x03\n        /* \"contracts/oatfinalprod.sol\":11264:11277  isLpPair[out] */\n      0x00\n        /* \"contracts/oatfinalprod.sol\":11273:11276  out */\n      dup5\n        /* \"contracts/oatfinalprod.sol\":11264:11277  isLpPair[out] */\n      0xffffffffffffffffffffffffffffffffffffffff\n      and\n      0xffffffffffffffffffffffffffffffffffffffff\n      and\n      dup2\n      mstore\n      0x20\n      add\n      swap1\n      dup2\n      mstore\n      0x20\n      add\n      0x00\n      keccak256\n      0x00\n      swap1\n      sload\n      swap1\n      0x0100\n      exp\n      swap1\n      div\n      0xff\n      and\n        /* \"contracts/oatfinalprod.sol\":11264:11295  isLpPair[out] && !isLpPair[ins] */\n      dup1\n      iszero\n      tag_375\n      jumpi\n      pop\n        /* \"contracts/oatfinalprod.sol\":11282:11290  isLpPair */\n      0x03\n        /* \"contracts/oatfinalprod.sol\":11282:11295  isLpPair[ins] */\n      0x00\n        /* \"contracts/oatfinalprod.sol\":11291:11294  ins */\n      dup6\n        /* \"contracts/oatfinalprod.sol\":11282:11295  isLpPair[ins] */\n      0xffffffffffffffffffffffffffffffffffffffff\n      and\n      0xffffffffffffffffffffffffffffffffffffffff\n      and\n      dup2\n      mstore\n      0x20\n      add\n      swap1\n      dup2\n      mstore\n      0x20\n      add\n      0x00\n      keccak256\n      0x00\n      swap1\n      sload\n      swap1\n      0x0100\n      exp\n      swap1\n      div\n      0xff\n      and\n        /* \"contracts/oatfinalprod.sol\":11281:11295  !isLpPair[ins] */\n      iszero\n        /* \"contracts/oatfinalprod.sol\":11264:11295  isLpPair[out] && !isLpPair[ins] */\n    tag_375:\n        /* \"contracts/oatfinalprod.sol\":11248:11295  bool _is_sell = isLpPair[out] && !isLpPair[ins] */\n      swap1\n      pop\n        /* \"contracts/oatfinalprod.sol\":11312:11320  _is_sell */\n      dup1\n        /* \"contracts/oatfinalprod.sol\":11305:11320  return _is_sell */\n      swap2\n      pop\n      pop\n        /* \"contracts/oatfinalprod.sol\":11166:11327  function is_sell(address ins, address out) internal view returns (bool) {... */\n      swap3\n      swap2\n      pop\n      pop\n      jump\t// out\n        /* \"contracts/oatfinalprod.sol\":13275:13746  function takeTaxes(... */\n    tag_338:\n        /* \"contracts/oatfinalprod.sol\":13385:13392  uint256 */\n      0x00\n        /* \"contracts/oatfinalprod.sol\":13400:13411  uint256 fee */\n      dup1\n        /* \"contracts/oatfinalprod.sol\":13414:13420  issell */\n      dup4\n        /* \"contracts/oatfinalprod.sol\":13414:13485  issell ? (isJaredAddress(from) ? jaredsellfee : calculateSellFee()) : 0 */\n      tag_377\n      jumpi\n        /* \"contracts/oatfinalprod.sol\":13484:13485  0 */\n      0x00\n        /* \"contracts/oatfinalprod.sol\":13414:13485  issell ? (isJaredAddress(from) ? jaredsellfee : calculateSellFee()) : 0 */\n      jump(tag_378)\n    tag_377:\n        /* \"contracts/oatfinalprod.sol\":13424:13444  isJaredAddress(from) */\n      tag_379\n        /* \"contracts/oatfinalprod.sol\":13439:13443  from */\n      dup6\n        /* \"contracts/oatfinalprod.sol\":13424:13438  isJaredAddress */\n      tag_166\n        /* \"contracts/oatfinalprod.sol\":13424:13444  isJaredAddress(from) */\n      jump\t// in\n    tag_379:\n        /* \"contracts/oatfinalprod.sol\":13424:13480  isJaredAddress(from) ? jaredsellfee : calculateSellFee() */\n      tag_380\n      jumpi\n        /* \"contracts/oatfinalprod.sol\":13462:13480  calculateSellFee() */\n      tag_381\n        /* \"contracts/oatfinalprod.sol\":13462:13478  calculateSellFee */\n      tag_382\n        /* \"contracts/oatfinalprod.sol\":13462:13480  calculateSellFee() */\n      jump\t// in\n    tag_381:\n        /* \"contracts/oatfinalprod.sol\":13424:13480  isJaredAddress(from) ? jaredsellfee : calculateSellFee() */\n      jump(tag_383)\n    tag_380:\n        /* \"contracts/oatfinalprod.sol\":13447:13459  jaredsellfee */\n      sload(0x0b)\n        /* \"contracts/oatfinalprod.sol\":13424:13480  isJaredAddress(from) ? jaredsellfee : calculateSellFee() */\n    tag_383:\n        /* \"contracts/oatfinalprod.sol\":13414:13485  issell ? (isJaredAddress(from) ? jaredsellfee : calculateSellFee()) : 0 */\n    tag_378:\n        /* \"contracts/oatfinalprod.sol\":13400:13485  uint256 fee = issell ? (isJaredAddress(from) ? jaredsellfee : calculateSellFee()) : 0 */\n      swap1\n      pop\n        /* \"contracts/oatfinalprod.sol\":13502:13503  0 */\n      0x00\n        /* \"contracts/oatfinalprod.sol\":13495:13498  fee */\n      dup2\n        /* \"contracts/oatfinalprod.sol\":13495:13503  fee == 0 */\n      sub\n        /* \"contracts/oatfinalprod.sol\":13491:13518  if (fee == 0) return amount */\n      tag_384\n      jumpi\n        /* \"contracts/oatfinalprod.sol\":13512:13518  amount */\n      dup3\n        /* \"contracts/oatfinalprod.sol\":13505:13518  return amount */\n      swap2\n      pop\n      pop\n      jump(tag_376)\n        /* \"contracts/oatfinalprod.sol\":13491:13518  if (fee == 0) return amount */\n    tag_384:\n        /* \"contracts/oatfinalprod.sol\":13525:13542  uint256 feeAmount */\n      0x00\n        /* \"contracts/oatfinalprod.sol\":7748:7751  100 */\n      0x64\n        /* \"contracts/oatfinalprod.sol\":13555:13558  fee */\n      dup3\n        /* \"contracts/oatfinalprod.sol\":13546:13552  amount */\n      dup6\n        /* \"contracts/oatfinalprod.sol\":13546:13558  amount * fee */\n      tag_385\n      swap2\n      swap1\n      tag_386\n      jump\t// in\n    tag_385:\n        /* \"contracts/oatfinalprod.sol\":13545:13577  (amount * fee) / fee_denominator */\n      tag_387\n      swap2\n      swap1\n      tag_388\n      jump\t// in\n    tag_387:\n        /* \"contracts/oatfinalprod.sol\":13525:13577  uint256 feeAmount = (amount * fee) / fee_denominator */\n      swap1\n      pop\n        /* \"contracts/oatfinalprod.sol\":13599:13600  0 */\n      0x00\n        /* \"contracts/oatfinalprod.sol\":13587:13596  feeAmount */\n      dup2\n        /* \"contracts/oatfinalprod.sol\":13587:13600  feeAmount > 0 */\n      gt\n        /* \"contracts/oatfinalprod.sol\":13583:13709  if (feeAmount > 0) {... */\n      iszero\n      tag_389\n      jumpi\n        /* \"contracts/oatfinalprod.sol\":13638:13647  feeAmount */\n      dup1\n        /* \"contracts/oatfinalprod.sol\":13612:13619  balance */\n      0x04\n        /* \"contracts/oatfinalprod.sol\":13612:13634  balance[address(this)] */\n      0x00\n        /* \"contracts/oatfinalprod.sol\":13628:13632  this */\n      address\n        /* \"contracts/oatfinalprod.sol\":13612:13634  balance[address(this)] */\n      0xffffffffffffffffffffffffffffffffffffffff\n      and\n      0xffffffffffffffffffffffffffffffffffffffff\n      and\n      dup2\n      mstore\n      0x20\n      add\n      swap1\n      dup2\n      mstore\n      0x20\n      add\n      0x00\n      keccak256\n      0x00\n        /* \"contracts/oatfinalprod.sol\":13612:13647  balance[address(this)] += feeAmount */\n      dup3\n      dup3\n      sload\n      tag_390\n      swap2\n      swap1\n      tag_320\n      jump\t// in\n    tag_390:\n      swap3\n      pop\n      pop\n      dup2\n      swap1\n      sstore\n      pop\n        /* \"contracts/oatfinalprod.sol\":13685:13689  this */\n      address\n        /* \"contracts/oatfinalprod.sol\":13662:13702  Transfer(from, address(this), feeAmount) */\n      0xffffffffffffffffffffffffffffffffffffffff\n      and\n        /* \"contracts/oatfinalprod.sol\":13671:13675  from */\n      dup7\n        /* \"contracts/oatfinalprod.sol\":13662:13702  Transfer(from, address(this), feeAmount) */\n      0xffffffffffffffffffffffffffffffffffffffff\n      and\n      0xddf252ad1be2c89b69c2b068fc378daa952ba7f163c4a11628f55a4df523b3ef\n        /* \"contracts/oatfinalprod.sol\":13692:13701  feeAmount */\n      dup4\n        /* \"contracts/oatfinalprod.sol\":13662:13702  Transfer(from, address(this), feeAmount) */\n      mload(0x40)\n      tag_391\n      swap2\n      swap1\n      tag_50\n      jump\t// in\n    tag_391:\n      mload(0x40)\n      dup1\n      swap2\n      sub\n      swap1\n      log3\n        /* \"contracts/oatfinalprod.sol\":13583:13709  if (feeAmount > 0) {... */\n    tag_389:\n        /* \"contracts/oatfinalprod.sol\":13730:13739  feeAmount */\n      dup1\n        /* \"contracts/oatfinalprod.sol\":13721:13727  amount */\n      dup5\n        /* \"contracts/oatfinalprod.sol\":13721:13739  amount - feeAmount */\n      tag_392\n      swap2\n      swap1\n      tag_208\n      jump\t// in\n    tag_392:\n        /* \"contracts/oatfinalprod.sol\":13714:13739  return amount - feeAmount */\n      swap3\n      pop\n      pop\n      pop\n        /* \"contracts/oatfinalprod.sol\":13275:13746  function takeTaxes(... */\n    tag_376:\n      swap4\n      swap3\n      pop\n      pop\n      pop\n      jump\t// out\n        /* \"contracts/oatfinalprod.sol\":13752:13989  function calculateSellFee() internal view returns (uint256) {... */\n    tag_382:\n        /* \"contracts/oatfinalprod.sol\":13803:13810  uint256 */\n      0x00\n        /* \"contracts/oatfinalprod.sol\":13907:13913  7 days */\n      0x093a80\n        /* \"contracts/oatfinalprod.sol\":13886:13904  contractDeployTime */\n      sload(0x0c)\n        /* \"contracts/oatfinalprod.sol\":13886:13913  contractDeployTime + 7 days */\n      tag_394\n      swap2\n      swap1\n      tag_320\n      jump\t// in\n    tag_394:\n        /* \"contracts/oatfinalprod.sol\":13867:13882  block.timestamp */\n      timestamp\n        /* \"contracts/oatfinalprod.sol\":13867:13913  block.timestamp <= contractDeployTime + 7 days */\n      gt\n        /* \"contracts/oatfinalprod.sol\":13863:13987  if (block.timestamp <= contractDeployTime + 7 days) {... */\n      tag_395\n      jumpi\n        /* \"contracts/oatfinalprod.sol\":13932:13943  tempsellfee */\n      sload(0x0a)\n        /* \"contracts/oatfinalprod.sol\":13925:13943  return tempsellfee */\n      swap1\n      pop\n      jump(tag_393)\n        /* \"contracts/oatfinalprod.sol\":13863:13987  if (block.timestamp <= contractDeployTime + 7 days) {... */\n    tag_395:\n        /* \"contracts/oatfinalprod.sol\":13973:13980  sellfee */\n      sload(0x09)\n        /* \"contracts/oatfinalprod.sol\":13966:13980  return sellfee */\n      swap1\n      pop\n        /* \"contracts/oatfinalprod.sol\":13752:13989  function calculateSellFee() internal view returns (uint256) {... */\n    tag_393:\n      swap1\n      jump\t// out\n        /* \"#utility.yul\":7:84   */\n    tag_397:\n        /* \"#utility.yul\":44:51   */\n      0x00\n        /* \"#utility.yul\":73:78   */\n      dup2\n        /* \"#utility.yul\":62:78   */\n      swap1\n      pop\n        /* \"#utility.yul\":7:84   */\n      swap2\n      swap1\n      pop\n      jump\t// out\n        /* \"#utility.yul\":90:208   */\n    tag_398:\n        /* \"#utility.yul\":177:201   */\n      tag_470\n        /* \"#utility.yul\":195:200   */\n      dup2\n        /* \"#utility.yul\":177:201   */\n      tag_397\n      jump\t// in\n    tag_470:\n        /* \"#utility.yul\":172:175   */\n      dup3\n        /* \"#utility.yul\":165:202   */\n      mstore\n        /* \"#utility.yul\":90:208   */\n      pop\n      pop\n      jump\t// out\n        /* \"#utility.yul\":214:436   */\n    tag_50:\n        /* \"#utility.yul\":307:311   */\n      0x00\n        /* \"#utility.yul\":345:347   */\n      0x20\n        /* \"#utility.yul\":334:343   */\n      dup3\n        /* \"#utility.yul\":330:348   */\n      add\n        /* \"#utility.yul\":322:348   */\n      swap1\n      pop\n        /* \"#utility.yul\":358:429   */\n      tag_472\n        /* \"#utility.yul\":426:427   */\n      0x00\n        /* \"#utility.yul\":415:424   */\n      dup4\n        /* \"#utility.yul\":411:428   */\n      add\n        /* \"#utility.yul\":402:408   */\n      dup5\n        /* \"#utility.yul\":358:429   */\n      tag_398\n      jump\t// in\n    tag_472:\n        /* \"#utility.yul\":214:436   */\n      swap3\n      swap2\n      pop\n      pop\n      jump\t// out\n        /* \"#utility.yul\":442:541   */\n    tag_399:\n        /* \"#utility.yul\":494:500   */\n      0x00\n        /* \"#utility.yul\":528:533   */\n      dup2\n        /* \"#utility.yul\":522:534   */\n      mload\n        /* \"#utility.yul\":512:534   */\n      swap1\n      pop\n        /* \"#utility.yul\":442:541   */\n      swap2\n      swap1\n      pop\n      jump\t// out\n        /* \"#utility.yul\":547:716   */\n    tag_400:\n        /* \"#utility.yul\":631:642   */\n      0x00\n        /* \"#utility.yul\":665:671   */\n      dup3\n        /* \"#utility.yul\":660:663   */\n      dup3\n        /* \"#utility.yul\":653:672   */\n      mstore\n        /* \"#utility.yul\":705:709   */\n      0x20\n        /* \"#utility.yul\":700:703   */\n      dup3\n        /* \"#utility.yul\":696:710   */\n      add\n        /* \"#utility.yul\":681:710   */\n      swap1\n      pop\n        /* \"#utility.yul\":547:716   */\n      swap3\n      swap2\n      pop\n      pop\n      jump\t// out\n        /* \"#utility.yul\":722:968   */\n    tag_401:\n        /* \"#utility.yul\":803:804   */\n      0x00\n        /* \"#utility.yul\":813:926   */\n    tag_476:\n        /* \"#utility.yul\":827:833   */\n      dup4\n        /* \"#utility.yul\":824:825   */\n      dup2\n        /* \"#utility.yul\":821:834   */\n      lt\n        /* \"#utility.yul\":813:926   */\n      iszero\n      tag_478\n      jumpi\n        /* \"#utility.yul\":912:913   */\n      dup1\n        /* \"#utility.yul\":907:910   */\n      dup3\n        /* \"#utility.yul\":903:914   */\n      add\n        /* \"#utility.yul\":897:915   */\n      mload\n        /* \"#utility.yul\":893:894   */\n      dup2\n        /* \"#utility.yul\":888:891   */\n      dup5\n        /* \"#utility.yul\":884:895   */\n      add\n        /* \"#utility.yul\":877:916   */\n      mstore\n        /* \"#utility.yul\":849:851   */\n      0x20\n        /* \"#utility.yul\":846:847   */\n      dup2\n        /* \"#utility.yul\":842:852   */\n      add\n        /* \"#utility.yul\":837:852   */\n      swap1\n      pop\n        /* \"#utility.yul\":813:926   */\n      jump(tag_476)\n    tag_478:\n        /* \"#utility.yul\":960:961   */\n      0x00\n        /* \"#utility.yul\":951:957   */\n      dup5\n        /* \"#utility.yul\":946:949   */\n      dup5\n        /* \"#utility.yul\":942:958   */\n      add\n        /* \"#utility.yul\":935:962   */\n      mstore\n        /* \"#utility.yul\":784:968   */\n      pop\n        /* \"#utility.yul\":722:968   */\n      pop\n      pop\n      pop\n      jump\t// out\n        /* \"#utility.yul\":974:1076   */\n    tag_402:\n        /* \"#utility.yul\":1015:1021   */\n      0x00\n        /* \"#utility.yul\":1066:1068   */\n      0x1f\n        /* \"#utility.yul\":1062:1069   */\n      not\n        /* \"#utility.yul\":1057:1059   */\n      0x1f\n        /* \"#utility.yul\":1050:1055   */\n      dup4\n        /* \"#utility.yul\":1046:1060   */\n      add\n        /* \"#utility.yul\":1042:1070   */\n      and\n        /* \"#utility.yul\":1032:1070   */\n      swap1\n      pop\n        /* \"#utility.yul\":974:1076   */\n      swap2\n      swap1\n      pop\n      jump\t// out\n        /* \"#utility.yul\":1082:1459   */\n    tag_403:\n        /* \"#utility.yul\":1170:1173   */\n      0x00\n        /* \"#utility.yul\":1198:1237   */\n      tag_481\n        /* \"#utility.yul\":1231:1236   */\n      dup3\n        /* \"#utility.yul\":1198:1237   */\n      tag_399\n      jump\t// in\n    tag_481:\n        /* \"#utility.yul\":1253:1324   */\n      tag_482\n        /* \"#utility.yul\":1317:1323   */\n      dup2\n        /* \"#utility.yul\":1312:1315   */\n      dup6\n        /* \"#utility.yul\":1253:1324   */\n      tag_400\n      jump\t// in\n    tag_482:\n        /* \"#utility.yul\":1246:1324   */\n      swap4\n      pop\n        /* \"#utility.yul\":1333:1398   */\n      tag_483\n        /* \"#utility.yul\":1391:1397   */\n      dup2\n        /* \"#utility.yul\":1386:1389   */\n      dup6\n        /* \"#utility.yul\":1379:1383   */\n      0x20\n        /* \"#utility.yul\":1372:1377   */\n      dup7\n        /* \"#utility.yul\":1368:1384   */\n      add\n        /* \"#utility.yul\":1333:1398   */\n      tag_401\n      jump\t// in\n    tag_483:\n        /* \"#utility.yul\":1423:1452   */\n      tag_484\n        /* \"#utility.yul\":1445:1451   */\n      dup2\n        /* \"#utility.yul\":1423:1452   */\n      tag_402\n      jump\t// in\n    tag_484:\n        /* \"#utility.yul\":1418:1421   */\n      dup5\n        /* \"#utility.yul\":1414:1453   */\n      add\n        /* \"#utility.yul\":1407:1453   */\n      swap2\n      pop\n        /* \"#utility.yul\":1174:1459   */\n      pop\n        /* \"#utility.yul\":1082:1459   */\n      swap3\n      swap2\n      pop\n      pop\n      jump\t// out\n        /* \"#utility.yul\":1465:1778   */\n    tag_55:\n        /* \"#utility.yul\":1578:1582   */\n      0x00\n        /* \"#utility.yul\":1616:1618   */\n      0x20\n        /* \"#utility.yul\":1605:1614   */\n      dup3\n        /* \"#utility.yul\":1601:1619   */\n      add\n        /* \"#utility.yul\":1593:1619   */\n      swap1\n      pop\n        /* \"#utility.yul\":1665:1674   */\n      dup2\n        /* \"#utility.yul\":1659:1663   */\n      dup2\n        /* \"#utility.yul\":1655:1675   */\n      sub\n        /* \"#utility.yul\":1651:1652   */\n      0x00\n        /* \"#utility.yul\":1640:1649   */\n      dup4\n        /* \"#utility.yul\":1636:1653   */\n      add\n        /* \"#utility.yul\":1629:1676   */\n      mstore\n        /* \"#utility.yul\":1693:1771   */\n      tag_486\n        /* \"#utility.yul\":1766:1770   */\n      dup2\n        /* \"#utility.yul\":1757:1763   */\n      dup5\n        /* \"#utility.yul\":1693:1771   */\n      tag_403\n      jump\t// in\n    tag_486:\n        /* \"#utility.yul\":1685:1771   */\n      swap1\n      pop\n        /* \"#utility.yul\":1465:1778   */\n      swap3\n      swap2\n      pop\n      pop\n      jump\t// out\n        /* \"#utility.yul\":1865:1982   */\n    tag_405:\n        /* \"#utility.yul\":1974:1975   */\n      0x00\n        /* \"#utility.yul\":1971:1972   */\n      dup1\n        /* \"#utility.yul\":1964:1976   */\n      revert\n        /* \"#utility.yul\":2111:2237   */\n    tag_407:\n        /* \"#utility.yul\":2148:2155   */\n      0x00\n        /* \"#utility.yul\":2188:2230   */\n      0xffffffffffffffffffffffffffffffffffffffff\n        /* \"#utility.yul\":2181:2186   */\n      dup3\n        /* \"#utility.yul\":2177:2231   */\n      and\n        /* \"#utility.yul\":2166:2231   */\n      swap1\n      pop\n        /* \"#utility.yul\":2111:2237   */\n      swap2\n      swap1\n      pop\n      jump\t// out\n        /* \"#utility.yul\":2243:2339   */\n    tag_408:\n        /* \"#utility.yul\":2280:2287   */\n      0x00\n        /* \"#utility.yul\":2309:2333   */\n      tag_492\n        /* \"#utility.yul\":2327:2332   */\n      dup3\n        /* \"#utility.yul\":2309:2333   */\n      tag_407\n      jump\t// in\n    tag_492:\n        /* \"#utility.yul\":2298:2333   */\n      swap1\n      pop\n        /* \"#utility.yul\":2243:2339   */\n      swap2\n      swap1\n      pop\n      jump\t// out\n        /* \"#utility.yul\":2345:2467   */\n    tag_409:\n        /* \"#utility.yul\":2418:2442   */\n      tag_494\n        /* \"#utility.yul\":2436:2441   */\n      dup2\n        /* \"#utility.yul\":2418:2442   */\n      tag_408\n      jump\t// in\n    tag_494:\n        /* \"#utility.yul\":2411:2416   */\n      dup2\n        /* \"#utility.yul\":2408:2443   */\n      eq\n        /* \"#utility.yul\":2398:2461   */\n      tag_495\n      jumpi\n        /* \"#utility.yul\":2457:2458   */\n      0x00\n        /* \"#utility.yul\":2454:2455   */\n      dup1\n        /* \"#utility.yul\":2447:2459   */\n      revert\n        /* \"#utility.yul\":2398:2461   */\n    tag_495:\n        /* \"#utility.yul\":2345:2467   */\n      pop\n      jump\t// out\n        /* \"#utility.yul\":2473:2612   */\n    tag_410:\n        /* \"#utility.yul\":2519:2524   */\n      0x00\n        /* \"#utility.yul\":2557:2563   */\n      dup2\n        /* \"#utility.yul\":2544:2564   */\n      calldataload\n        /* \"#utility.yul\":2535:2564   */\n      swap1\n      pop\n        /* \"#utility.yul\":2573:2606   */\n      tag_497\n        /* \"#utility.yul\":2600:2605   */\n      dup2\n        /* \"#utility.yul\":2573:2606   */\n      tag_409\n      jump\t// in\n    tag_497:\n        /* \"#utility.yul\":2473:2612   */\n      swap3\n      swap2\n      pop\n      pop\n      jump\t// out\n        /* \"#utility.yul\":2618:2740   */\n    tag_411:\n        /* \"#utility.yul\":2691:2715   */\n      tag_499\n        /* \"#utility.yul\":2709:2714   */\n      dup2\n        /* \"#utility.yul\":2691:2715   */\n      tag_397\n      jump\t// in\n    tag_499:\n        /* \"#utility.yul\":2684:2689   */\n      dup2\n        /* \"#utility.yul\":2681:2716   */\n      eq\n        /* \"#utility.yul\":2671:2734   */\n      tag_500\n      jumpi\n        /* \"#utility.yul\":2730:2731   */\n      0x00\n        /* \"#utility.yul\":2727:2728   */\n      dup1\n        /* \"#utility.yul\":2720:2732   */\n      revert\n        /* \"#utility.yul\":2671:2734   */\n    tag_500:\n        /* \"#utility.yul\":2618:2740   */\n      pop\n      jump\t// out\n        /* \"#utility.yul\":2746:2885   */\n    tag_412:\n        /* \"#utility.yul\":2792:2797   */\n      0x00\n        /* \"#utility.yul\":2830:2836   */\n      dup2\n        /* \"#utility.yul\":2817:2837   */\n      calldataload\n        /* \"#utility.yul\":2808:2837   */\n      swap1\n      pop\n        /* \"#utility.yul\":2846:2879   */\n      tag_502\n        /* \"#utility.yul\":2873:2878   */\n      dup2\n        /* \"#utility.yul\":2846:2879   */\n      tag_411\n      jump\t// in\n    tag_502:\n        /* \"#utility.yul\":2746:2885   */\n      swap3\n      swap2\n      pop\n      pop\n      jump\t// out\n        /* \"#utility.yul\":2891:3365   */\n    tag_59:\n        /* \"#utility.yul\":2959:2965   */\n      0x00\n        /* \"#utility.yul\":2967:2973   */\n      dup1\n        /* \"#utility.yul\":3016:3018   */\n      0x40\n        /* \"#utility.yul\":3004:3013   */\n      dup4\n        /* \"#utility.yul\":2995:3002   */\n      dup6\n        /* \"#utility.yul\":2991:3014   */\n      sub\n        /* \"#utility.yul\":2987:3019   */\n      slt\n        /* \"#utility.yul\":2984:3103   */\n      iszero\n      tag_504\n      jumpi\n        /* \"#utility.yul\":3022:3101   */\n      tag_505\n      tag_405\n      jump\t// in\n    tag_505:\n        /* \"#utility.yul\":2984:3103   */\n    tag_504:\n        /* \"#utility.yul\":3142:3143   */\n      0x00\n        /* \"#utility.yul\":3167:3220   */\n      tag_506\n        /* \"#utility.yul\":3212:3219   */\n      dup6\n        /* \"#utility.yul\":3203:3209   */\n      dup3\n        /* \"#utility.yul\":3192:3201   */\n      dup7\n        /* \"#utility.yul\":3188:3210   */\n      add\n        /* \"#utility.yul\":3167:3220   */\n      tag_410\n      jump\t// in\n    tag_506:\n        /* \"#utility.yul\":3157:3220   */\n      swap3\n      pop\n        /* \"#utility.yul\":3113:3230   */\n      pop\n        /* \"#utility.yul\":3269:3271   */\n      0x20\n        /* \"#utility.yul\":3295:3348   */\n      tag_507\n        /* \"#utility.yul\":3340:3347   */\n      dup6\n        /* \"#utility.yul\":3331:3337   */\n      dup3\n        /* \"#utility.yul\":3320:3329   */\n      dup7\n        /* \"#utility.yul\":3316:3338   */\n      add\n        /* \"#utility.yul\":3295:3348   */\n      tag_412\n      jump\t// in\n    tag_507:\n        /* \"#utility.yul\":3285:3348   */\n      swap2\n      pop\n        /* \"#utility.yul\":3240:3358   */\n      pop\n        /* \"#utility.yul\":2891:3365   */\n      swap3\n      pop\n      swap3\n      swap1\n      pop\n      jump\t// out\n        /* \"#utility.yul\":3371:3461   */\n    tag_413:\n        /* \"#utility.yul\":3405:3412   */\n      0x00\n        /* \"#utility.yul\":3448:3453   */\n      dup2\n        /* \"#utility.yul\":3441:3454   */\n      iszero\n        /* \"#utility.yul\":3434:3455   */\n      iszero\n        /* \"#utility.yul\":3423:3455   */\n      swap1\n      pop\n        /* \"#utility.yul\":3371:3461   */\n      swap2\n      swap1\n      pop\n      jump\t// out\n        /* \"#utility.yul\":3467:3576   */\n    tag_414:\n        /* \"#utility.yul\":3548:3569   */\n      tag_510\n        /* \"#utility.yul\":3563:3568   */\n      dup2\n        /* \"#utility.yul\":3548:3569   */\n      tag_413\n      jump\t// in\n    tag_510:\n        /* \"#utility.yul\":3543:3546   */\n      dup3\n        /* \"#utility.yul\":3536:3570   */\n      mstore\n        /* \"#utility.yul\":3467:3576   */\n      pop\n      pop\n      jump\t// out\n        /* \"#utility.yul\":3582:3792   */\n    tag_62:\n        /* \"#utility.yul\":3669:3673   */\n      0x00\n        /* \"#utility.yul\":3707:3709   */\n      0x20\n        /* \"#utility.yul\":3696:3705   */\n      dup3\n        /* \"#utility.yul\":3692:3710   */\n      add\n        /* \"#utility.yul\":3684:3710   */\n      swap1\n      pop\n        /* \"#utility.yul\":3720:3785   */\n      tag_512\n        /* \"#utility.yul\":3782:3783   */\n      0x00\n        /* \"#utility.yul\":3771:3780   */\n      dup4\n        /* \"#utility.yul\":3767:3784   */\n      add\n        /* \"#utility.yul\":3758:3764   */\n      dup5\n        /* \"#utility.yul\":3720:3785   */\n      tag_414\n      jump\t// in\n    tag_512:\n        /* \"#utility.yul\":3582:3792   */\n      swap3\n      swap2\n      pop\n      pop\n      jump\t// out\n        /* \"#utility.yul\":3798:4417   */\n    tag_70:\n        /* \"#utility.yul\":3875:3881   */\n      0x00\n        /* \"#utility.yul\":3883:3889   */\n      dup1\n        /* \"#utility.yul\":3891:3897   */\n      0x00\n        /* \"#utility.yul\":3940:3942   */\n      0x60\n        /* \"#utility.yul\":3928:3937   */\n      dup5\n        /* \"#utility.yul\":3919:3926   */\n      dup7\n        /* \"#utility.yul\":3915:3938   */\n      sub\n        /* \"#utility.yul\":3911:3943   */\n      slt\n        /* \"#utility.yul\":3908:4027   */\n      iszero\n      tag_514\n      jumpi\n        /* \"#utility.yul\":3946:4025   */\n      tag_515\n      tag_405\n      jump\t// in\n    tag_515:\n        /* \"#utility.yul\":3908:4027   */\n    tag_514:\n        /* \"#utility.yul\":4066:4067   */\n      0x00\n        /* \"#utility.yul\":4091:4144   */\n      tag_516\n        /* \"#utility.yul\":4136:4143   */\n      dup7\n        /* \"#utility.yul\":4127:4133   */\n      dup3\n        /* \"#utility.yul\":4116:4125   */\n      dup8\n        /* \"#utility.yul\":4112:4134   */\n      add\n        /* \"#utility.yul\":4091:4144   */\n      tag_410\n      jump\t// in\n    tag_516:\n        /* \"#utility.yul\":4081:4144   */\n      swap4\n      pop\n        /* \"#utility.yul\":4037:4154   */\n      pop\n        /* \"#utility.yul\":4193:4195   */\n      0x20\n        /* \"#utility.yul\":4219:4272   */\n      tag_517\n        /* \"#utility.yul\":4264:4271   */\n      dup7\n        /* \"#utility.yul\":4255:4261   */\n      dup3\n        /* \"#utility.yul\":4244:4253   */\n      dup8\n        /* \"#utility.yul\":4240:4262   */\n      add\n        /* \"#utility.yul\":4219:4272   */\n      tag_410\n      jump\t// in\n    tag_517:\n        /* \"#utility.yul\":4209:4272   */\n      swap3\n      pop\n        /* \"#utility.yul\":4164:4282   */\n      pop\n        /* \"#utility.yul\":4321:4323   */\n      0x40\n        /* \"#utility.yul\":4347:4400   */\n      tag_518\n        /* \"#utility.yul\":4392:4399   */\n      dup7\n        /* \"#utility.yul\":4383:4389   */\n      dup3\n        /* \"#utility.yul\":4372:4381   */\n      dup8\n        /* \"#utility.yul\":4368:4390   */\n      add\n        /* \"#utility.yul\":4347:4400   */\n      tag_412\n      jump\t// in\n    tag_518:\n        /* \"#utility.yul\":4337:4400   */\n      swap2\n      pop\n        /* \"#utility.yul\":4292:4410   */\n      pop\n        /* \"#utility.yul\":3798:4417   */\n      swap3\n      pop\n      swap3\n      pop\n      swap3\n      jump\t// out\n        /* \"#utility.yul\":4423:4752   */\n    tag_76:\n        /* \"#utility.yul\":4482:4488   */\n      0x00\n        /* \"#utility.yul\":4531:4533   */\n      0x20\n        /* \"#utility.yul\":4519:4528   */\n      dup3\n        /* \"#utility.yul\":4510:4517   */\n      dup5\n        /* \"#utility.yul\":4506:4529   */\n      sub\n        /* \"#utility.yul\":4502:4534   */\n      slt\n        /* \"#utility.yul\":4499:4618   */\n      iszero\n      tag_520\n      jumpi\n        /* \"#utility.yul\":4537:4616   */\n      tag_521\n      tag_405\n      jump\t// in\n    tag_521:\n        /* \"#utility.yul\":4499:4618   */\n    tag_520:\n        /* \"#utility.yul\":4657:4658   */\n      0x00\n        /* \"#utility.yul\":4682:4735   */\n      tag_522\n        /* \"#utility.yul\":4727:4734   */\n      dup5\n        /* \"#utility.yul\":4718:4724   */\n      dup3\n        /* \"#utility.yul\":4707:4716   */\n      dup6\n        /* \"#utility.yul\":4703:4725   */\n      add\n        /* \"#utility.yul\":4682:4735   */\n      tag_410\n      jump\t// in\n    tag_522:\n        /* \"#utility.yul\":4672:4735   */\n      swap2\n      pop\n        /* \"#utility.yul\":4628:4745   */\n      pop\n        /* \"#utility.yul\":4423:4752   */\n      swap3\n      swap2\n      pop\n      pop\n      jump\t// out\n        /* \"#utility.yul\":4758:5087   */\n    tag_86:\n        /* \"#utility.yul\":4817:4823   */\n      0x00\n        /* \"#utility.yul\":4866:4868   */\n      0x20\n        /* \"#utility.yul\":4854:4863   */\n      dup3\n        /* \"#utility.yul\":4845:4852   */\n      dup5\n        /* \"#utility.yul\":4841:4864   */\n      sub\n        /* \"#utility.yul\":4837:4869   */\n      slt\n        /* \"#utility.yul\":4834:4953   */\n      iszero\n      tag_524\n      jumpi\n        /* \"#utility.yul\":4872:4951   */\n      tag_525\n      tag_405\n      jump\t// in\n    tag_525:\n        /* \"#utility.yul\":4834:4953   */\n    tag_524:\n        /* \"#utility.yul\":4992:4993   */\n      0x00\n        /* \"#utility.yul\":5017:5070   */\n      tag_526\n        /* \"#utility.yul\":5062:5069   */\n      dup5\n        /* \"#utility.yul\":5053:5059   */\n      dup3\n        /* \"#utility.yul\":5042:5051   */\n      dup6\n        /* \"#utility.yul\":5038:5060   */\n      add\n        /* \"#utility.yul\":5017:5070   */\n      tag_412\n      jump\t// in\n    tag_526:\n        /* \"#utility.yul\":5007:5070   */\n      swap2\n      pop\n        /* \"#utility.yul\":4963:5080   */\n      pop\n        /* \"#utility.yul\":4758:5087   */\n      swap3\n      swap2\n      pop\n      pop\n      jump\t// out\n        /* \"#utility.yul\":5093:5179   */\n    tag_415:\n        /* \"#utility.yul\":5128:5135   */\n      0x00\n        /* \"#utility.yul\":5168:5172   */\n      0xff\n        /* \"#utility.yul\":5161:5166   */\n      dup3\n        /* \"#utility.yul\":5157:5173   */\n      and\n        /* \"#utility.yul\":5146:5173   */\n      swap1\n      pop\n        /* \"#utility.yul\":5093:5179   */\n      swap2\n      swap1\n      pop\n      jump\t// out\n        /* \"#utility.yul\":5185:5297   */\n    tag_416:\n        /* \"#utility.yul\":5268:5290   */\n      tag_529\n        /* \"#utility.yul\":5284:5289   */\n      dup2\n        /* \"#utility.yul\":5268:5290   */\n      tag_415\n      jump\t// in\n    tag_529:\n        /* \"#utility.yul\":5263:5266   */\n      dup3\n        /* \"#utility.yul\":5256:5291   */\n      mstore\n        /* \"#utility.yul\":5185:5297   */\n      pop\n      pop\n      jump\t// out\n        /* \"#utility.yul\":5303:5517   */\n    tag_92:\n        /* \"#utility.yul\":5392:5396   */\n      0x00\n        /* \"#utility.yul\":5430:5432   */\n      0x20\n        /* \"#utility.yul\":5419:5428   */\n      dup3\n        /* \"#utility.yul\":5415:5433   */\n      add\n        /* \"#utility.yul\":5407:5433   */\n      swap1\n      pop\n        /* \"#utility.yul\":5443:5510   */\n      tag_531\n        /* \"#utility.yul\":5507:5508   */\n      0x00\n        /* \"#utility.yul\":5496:5505   */\n      dup4\n        /* \"#utility.yul\":5492:5509   */\n      add\n        /* \"#utility.yul\":5483:5489   */\n      dup5\n        /* \"#utility.yul\":5443:5510   */\n      tag_416\n      jump\t// in\n    tag_531:\n        /* \"#utility.yul\":5303:5517   */\n      swap3\n      swap2\n      pop\n      pop\n      jump\t// out\n        /* \"#utility.yul\":5523:5641   */\n    tag_417:\n        /* \"#utility.yul\":5610:5634   */\n      tag_533\n        /* \"#utility.yul\":5628:5633   */\n      dup2\n        /* \"#utility.yul\":5610:5634   */\n      tag_408\n      jump\t// in\n    tag_533:\n        /* \"#utility.yul\":5605:5608   */\n      dup3\n        /* \"#utility.yul\":5598:5635   */\n      mstore\n        /* \"#utility.yul\":5523:5641   */\n      pop\n      pop\n      jump\t// out\n        /* \"#utility.yul\":5647:5869   */\n    tag_97:\n        /* \"#utility.yul\":5740:5744   */\n      0x00\n        /* \"#utility.yul\":5778:5780   */\n      0x20\n        /* \"#utility.yul\":5767:5776   */\n      dup3\n        /* \"#utility.yul\":5763:5781   */\n      add\n        /* \"#utility.yul\":5755:5781   */\n      swap1\n      pop\n        /* \"#utility.yul\":5791:5862   */\n      tag_535\n        /* \"#utility.yul\":5859:5860   */\n      0x00\n        /* \"#utility.yul\":5848:5857   */\n      dup4\n        /* \"#utility.yul\":5844:5861   */\n      add\n        /* \"#utility.yul\":5835:5841   */\n      dup5\n        /* \"#utility.yul\":5791:5862   */\n      tag_417\n      jump\t// in\n    tag_535:\n        /* \"#utility.yul\":5647:5869   */\n      swap3\n      swap2\n      pop\n      pop\n      jump\t// out\n        /* \"#utility.yul\":5875:5935   */\n    tag_418:\n        /* \"#utility.yul\":5903:5906   */\n      0x00\n        /* \"#utility.yul\":5924:5929   */\n      dup2\n        /* \"#utility.yul\":5917:5929   */\n      swap1\n      pop\n        /* \"#utility.yul\":5875:5935   */\n      swap2\n      swap1\n      pop\n      jump\t// out\n        /* \"#utility.yul\":5941:6083   */\n    tag_419:\n        /* \"#utility.yul\":5991:6000   */\n      0x00\n        /* \"#utility.yul\":6024:6077   */\n      tag_538\n        /* \"#utility.yul\":6042:6076   */\n      tag_539\n        /* \"#utility.yul\":6051:6075   */\n      tag_540\n        /* \"#utility.yul\":6069:6074   */\n      dup5\n        /* \"#utility.yul\":6051:6075   */\n      tag_407\n      jump\t// in\n    tag_540:\n        /* \"#utility.yul\":6042:6076   */\n      tag_418\n      jump\t// in\n    tag_539:\n        /* \"#utility.yul\":6024:6077   */\n      tag_407\n      jump\t// in\n    tag_538:\n        /* \"#utility.yul\":6011:6077   */\n      swap1\n      pop\n        /* \"#utility.yul\":5941:6083   */\n      swap2\n      swap1\n      pop\n      jump\t// out\n        /* \"#utility.yul\":6089:6215   */\n    tag_420:\n        /* \"#utility.yul\":6139:6148   */\n      0x00\n        /* \"#utility.yul\":6172:6209   */\n      tag_542\n        /* \"#utility.yul\":6203:6208   */\n      dup3\n        /* \"#utility.yul\":6172:6209   */\n      tag_419\n      jump\t// in\n    tag_542:\n        /* \"#utility.yul\":6159:6209   */\n      swap1\n      pop\n        /* \"#utility.yul\":6089:6215   */\n      swap2\n      swap1\n      pop\n      jump\t// out\n        /* \"#utility.yul\":6221:6364   */\n    tag_421:\n        /* \"#utility.yul\":6288:6297   */\n      0x00\n        /* \"#utility.yul\":6321:6358   */\n      tag_544\n        /* \"#utility.yul\":6352:6357   */\n      dup3\n        /* \"#utility.yul\":6321:6358   */\n      tag_420\n      jump\t// in\n    tag_544:\n        /* \"#utility.yul\":6308:6358   */\n      swap1\n      pop\n        /* \"#utility.yul\":6221:6364   */\n      swap2\n      swap1\n      pop\n      jump\t// out\n        /* \"#utility.yul\":6370:6535   */\n    tag_422:\n        /* \"#utility.yul\":6474:6528   */\n      tag_546\n        /* \"#utility.yul\":6522:6527   */\n      dup2\n        /* \"#utility.yul\":6474:6528   */\n      tag_421\n      jump\t// in\n    tag_546:\n        /* \"#utility.yul\":6469:6472   */\n      dup3\n        /* \"#utility.yul\":6462:6529   */\n      mstore\n        /* \"#utility.yul\":6370:6535   */\n      pop\n      pop\n      jump\t// out\n        /* \"#utility.yul\":6541:6797   */\n    tag_172:\n        /* \"#utility.yul\":6651:6655   */\n      0x00\n        /* \"#utility.yul\":6689:6691   */\n      0x20\n        /* \"#utility.yul\":6678:6687   */\n      dup3\n        /* \"#utility.yul\":6674:6692   */\n      add\n        /* \"#utility.yul\":6666:6692   */\n      swap1\n      pop\n        /* \"#utility.yul\":6702:6790   */\n      tag_548\n        /* \"#utility.yul\":6787:6788   */\n      0x00\n        /* \"#utility.yul\":6776:6785   */\n      dup4\n        /* \"#utility.yul\":6772:6789   */\n      add\n        /* \"#utility.yul\":6763:6769   */\n      dup5\n        /* \"#utility.yul\":6702:6790   */\n      tag_422\n      jump\t// in\n    tag_548:\n        /* \"#utility.yul\":6541:6797   */\n      swap3\n      swap2\n      pop\n      pop\n      jump\t// out\n        /* \"#utility.yul\":6803:7277   */\n    tag_188:\n        /* \"#utility.yul\":6871:6877   */\n      0x00\n        /* \"#utility.yul\":6879:6885   */\n      dup1\n        /* \"#utility.yul\":6928:6930   */\n      0x40\n        /* \"#utility.yul\":6916:6925   */\n      dup4\n        /* \"#utility.yul\":6907:6914   */\n      dup6\n        /* \"#utility.yul\":6903:6926   */\n      sub\n        /* \"#utility.yul\":6899:6931   */\n      slt\n        /* \"#utility.yul\":6896:7015   */\n      iszero\n      tag_550\n      jumpi\n        /* \"#utility.yul\":6934:7013   */\n      tag_551\n      tag_405\n      jump\t// in\n    tag_551:\n        /* \"#utility.yul\":6896:7015   */\n    tag_550:\n        /* \"#utility.yul\":7054:7055   */\n      0x00\n        /* \"#utility.yul\":7079:7132   */\n      tag_552\n        /* \"#utility.yul\":7124:7131   */\n      dup6\n        /* \"#utility.yul\":7115:7121   */\n      dup3\n        /* \"#utility.yul\":7104:7113   */\n      dup7\n        /* \"#utility.yul\":7100:7122   */\n      add\n        /* \"#utility.yul\":7079:7132   */\n      tag_410\n      jump\t// in\n    tag_552:\n        /* \"#utility.yul\":7069:7132   */\n      swap3\n      pop\n        /* \"#utility.yul\":7025:7142   */\n      pop\n        /* \"#utility.yul\":7181:7183   */\n      0x20\n        /* \"#utility.yul\":7207:7260   */\n      tag_553\n        /* \"#utility.yul\":7252:7259   */\n      dup6\n        /* \"#utility.yul\":7243:7249   */\n      dup3\n        /* \"#utility.yul\":7232:7241   */\n      dup7\n        /* \"#utility.yul\":7228:7250   */\n      add\n        /* \"#utility.yul\":7207:7260   */\n      tag_410\n      jump\t// in\n    tag_553:\n        /* \"#utility.yul\":7197:7260   */\n      swap2\n      pop\n        /* \"#utility.yul\":7152:7270   */\n      pop\n        /* \"#utility.yul\":6803:7277   */\n      swap3\n      pop\n      swap3\n      swap1\n      pop\n      jump\t// out\n        /* \"#utility.yul\":7283:7463   */\n    tag_423:\n        /* \"#utility.yul\":7331:7408   */\n      0x4e487b7100000000000000000000000000000000000000000000000000000000\n        /* \"#utility.yul\":7328:7329   */\n      0x00\n        /* \"#utility.yul\":7321:7409   */\n      mstore\n        /* \"#utility.yul\":7428:7432   */\n      0x11\n        /* \"#utility.yul\":7425:7426   */\n      0x04\n        /* \"#utility.yul\":7418:7433   */\n      mstore\n        /* \"#utility.yul\":7452:7456   */\n      0x24\n        /* \"#utility.yul\":7449:7450   */\n      0x00\n        /* \"#utility.yul\":7442:7457   */\n      revert\n        /* \"#utility.yul\":7469:7663   */\n    tag_208:\n        /* \"#utility.yul\":7509:7513   */\n      0x00\n        /* \"#utility.yul\":7529:7549   */\n      tag_556\n        /* \"#utility.yul\":7547:7548   */\n      dup3\n        /* \"#utility.yul\":7529:7549   */\n      tag_397\n      jump\t// in\n    tag_556:\n        /* \"#utility.yul\":7524:7549   */\n      swap2\n      pop\n        /* \"#utility.yul\":7563:7583   */\n      tag_557\n        /* \"#utility.yul\":7581:7582   */\n      dup4\n        /* \"#utility.yul\":7563:7583   */\n      tag_397\n      jump\t// in\n    tag_557:\n        /* \"#utility.yul\":7558:7583   */\n      swap3\n      pop\n        /* \"#utility.yul\":7607:7608   */\n      dup3\n        /* \"#utility.yul\":7604:7605   */\n      dup3\n        /* \"#utility.yul\":7600:7609   */\n      sub\n        /* \"#utility.yul\":7592:7609   */\n      swap1\n      pop\n        /* \"#utility.yul\":7631:7632   */\n      dup2\n        /* \"#utility.yul\":7625:7629   */\n      dup2\n        /* \"#utility.yul\":7622:7633   */\n      gt\n        /* \"#utility.yul\":7619:7656   */\n      iszero\n      tag_558\n      jumpi\n        /* \"#utility.yul\":7636:7654   */\n      tag_559\n      tag_423\n      jump\t// in\n    tag_559:\n        /* \"#utility.yul\":7619:7656   */\n    tag_558:\n        /* \"#utility.yul\":7469:7663   */\n      swap3\n      swap2\n      pop\n      pop\n      jump\t// out\n        /* \"#utility.yul\":7669:7904   */\n    tag_424:\n        /* \"#utility.yul\":7809:7843   */\n      0x4f6e6c7920417574686f726973656420616464726573732063616e206d6f6469\n        /* \"#utility.yul\":7805:7806   */\n      0x00\n        /* \"#utility.yul\":7797:7803   */\n      dup3\n        /* \"#utility.yul\":7793:7807   */\n      add\n        /* \"#utility.yul\":7786:7844   */\n      mstore\n        /* \"#utility.yul\":7878:7896   */\n      0x667920746865204a617265646665652100000000000000000000000000000000\n        /* \"#utility.yul\":7873:7875   */\n      0x20\n        /* \"#utility.yul\":7865:7871   */\n      dup3\n        /* \"#utility.yul\":7861:7876   */\n      add\n        /* \"#utility.yul\":7854:7897   */\n      mstore\n        /* \"#utility.yul\":7669:7904   */\n      pop\n      jump\t// out\n        /* \"#utility.yul\":7910:8276   */\n    tag_425:\n        /* \"#utility.yul\":8052:8055   */\n      0x00\n        /* \"#utility.yul\":8073:8140   */\n      tag_562\n        /* \"#utility.yul\":8137:8139   */\n      0x30\n        /* \"#utility.yul\":8132:8135   */\n      dup4\n        /* \"#utility.yul\":8073:8140   */\n      tag_400\n      jump\t// in\n    tag_562:\n        /* \"#utility.yul\":8066:8140   */\n      swap2\n      pop\n        /* \"#utility.yul\":8149:8242   */\n      tag_563\n        /* \"#utility.yul\":8238:8241   */\n      dup3\n        /* \"#utility.yul\":8149:8242   */\n      tag_424\n      jump\t// in\n    tag_563:\n        /* \"#utility.yul\":8267:8269   */\n      0x40\n        /* \"#utility.yul\":8262:8265   */\n      dup3\n        /* \"#utility.yul\":8258:8270   */\n      add\n        /* \"#utility.yul\":8251:8270   */\n      swap1\n      pop\n        /* \"#utility.yul\":7910:8276   */\n      swap2\n      swap1\n      pop\n      jump\t// out\n        /* \"#utility.yul\":8282:8701   */\n    tag_217:\n        /* \"#utility.yul\":8448:8452   */\n      0x00\n        /* \"#utility.yul\":8486:8488   */\n      0x20\n        /* \"#utility.yul\":8475:8484   */\n      dup3\n        /* \"#utility.yul\":8471:8489   */\n      add\n        /* \"#utility.yul\":8463:8489   */\n      swap1\n      pop\n        /* \"#utility.yul\":8535:8544   */\n      dup2\n        /* \"#utility.yul\":8529:8533   */\n      dup2\n        /* \"#utility.yul\":8525:8545   */\n      sub\n        /* \"#utility.yul\":8521:8522   */\n      0x00\n        /* \"#utility.yul\":8510:8519   */\n      dup4\n        /* \"#utility.yul\":8506:8523   */\n      add\n        /* \"#utility.yul\":8499:8546   */\n      mstore\n        /* \"#utility.yul\":8563:8694   */\n      tag_565\n        /* \"#utility.yul\":8689:8693   */\n      dup2\n        /* \"#utility.yul\":8563:8694   */\n      tag_425\n      jump\t// in\n    tag_565:\n        /* \"#utility.yul\":8555:8694   */\n      swap1\n      pop\n        /* \"#utility.yul\":8282:8701   */\n      swap2\n      swap1\n      pop\n      jump\t// out\n        /* \"#utility.yul\":8707:8875   */\n    tag_426:\n        /* \"#utility.yul\":8847:8867   */\n      0x466565206d757374206265203c3d203130300000000000000000000000000000\n        /* \"#utility.yul\":8843:8844   */\n      0x00\n        /* \"#utility.yul\":8835:8841   */\n      dup3\n        /* \"#utility.yul\":8831:8845   */\n      add\n        /* \"#utility.yul\":8824:8868   */\n      mstore\n        /* \"#utility.yul\":8707:8875   */\n      pop\n      jump\t// out\n        /* \"#utility.yul\":8881:9247   */\n    tag_427:\n        /* \"#utility.yul\":9023:9026   */\n      0x00\n        /* \"#utility.yul\":9044:9111   */\n      tag_568\n        /* \"#utility.yul\":9108:9110   */\n      0x12\n        /* \"#utility.yul\":9103:9106   */\n      dup4\n        /* \"#utility.yul\":9044:9111   */\n      tag_400\n      jump\t// in\n    tag_568:\n        /* \"#utility.yul\":9037:9111   */\n      swap2\n      pop\n        /* \"#utility.yul\":9120:9213   */\n      tag_569\n        /* \"#utility.yul\":9209:9212   */\n      dup3\n        /* \"#utility.yul\":9120:9213   */\n      tag_426\n      jump\t// in\n    tag_569:\n        /* \"#utility.yul\":9238:9240   */\n      0x20\n        /* \"#utility.yul\":9233:9236   */\n      dup3\n        /* \"#utility.yul\":9229:9241   */\n      add\n        /* \"#utility.yul\":9222:9241   */\n      swap1\n      pop\n        /* \"#utility.yul\":8881:9247   */\n      swap2\n      swap1\n      pop\n      jump\t// out\n        /* \"#utility.yul\":9253:9672   */\n    tag_220:\n        /* \"#utility.yul\":9419:9423   */\n      0x00\n        /* \"#utility.yul\":9457:9459   */\n      0x20\n        /* \"#utility.yul\":9446:9455   */\n      dup3\n        /* \"#utility.yul\":9442:9460   */\n      add\n        /* \"#utility.yul\":9434:9460   */\n      swap1\n      pop\n        /* \"#utility.yul\":9506:9515   */\n      dup2\n        /* \"#utility.yul\":9500:9504   */\n      dup2\n        /* \"#utility.yul\":9496:9516   */\n      sub\n        /* \"#utility.yul\":9492:9493   */\n      0x00\n        /* \"#utility.yul\":9481:9490   */\n      dup4\n        /* \"#utility.yul\":9477:9494   */\n      add\n        /* \"#utility.yul\":9470:9517   */\n      mstore\n        /* \"#utility.yul\":9534:9665   */\n      tag_571\n        /* \"#utility.yul\":9660:9664   */\n      dup2\n        /* \"#utility.yul\":9534:9665   */\n      tag_427\n      jump\t// in\n    tag_571:\n        /* \"#utility.yul\":9526:9665   */\n      swap1\n      pop\n        /* \"#utility.yul\":9253:9672   */\n      swap2\n      swap1\n      pop\n      jump\t// out\n        /* \"#utility.yul\":9678:9902   */\n    tag_428:\n        /* \"#utility.yul\":9818:9852   */\n      0x43616c6c6572206973206e6f742074686520617574686f726973656420616464\n        /* \"#utility.yul\":9814:9815   */\n      0x00\n        /* \"#utility.yul\":9806:9812   */\n      dup3\n        /* \"#utility.yul\":9802:9816   */\n      add\n        /* \"#utility.yul\":9795:9853   */\n      mstore\n        /* \"#utility.yul\":9887:9894   */\n      0x7265737321000000000000000000000000000000000000000000000000000000\n        /* \"#utility.yul\":9882:9884   */\n      0x20\n        /* \"#utility.yul\":9874:9880   */\n      dup3\n        /* \"#utility.yul\":9870:9885   */\n      add\n        /* \"#utility.yul\":9863:9895   */\n      mstore\n        /* \"#utility.yul\":9678:9902   */\n      pop\n      jump\t// out\n        /* \"#utility.yul\":9908:10274   */\n    tag_429:\n        /* \"#utility.yul\":10050:10053   */\n      0x00\n        /* \"#utility.yul\":10071:10138   */\n      tag_574\n        /* \"#utility.yul\":10135:10137   */\n      0x25\n        /* \"#utility.yul\":10130:10133   */\n      dup4\n        /* \"#utility.yul\":10071:10138   */\n      tag_400\n      jump\t// in\n    tag_574:\n        /* \"#utility.yul\":10064:10138   */\n      swap2\n      pop\n        /* \"#utility.yul\":10147:10240   */\n      tag_575\n        /* \"#utility.yul\":10236:10239   */\n      dup3\n        /* \"#utility.yul\":10147:10240   */\n      tag_428\n      jump\t// in\n    tag_575:\n        /* \"#utility.yul\":10265:10267   */\n      0x40\n        /* \"#utility.yul\":10260:10263   */\n      dup3\n        /* \"#utility.yul\":10256:10268   */\n      add\n        /* \"#utility.yul\":10249:10268   */\n      swap1\n      pop\n        /* \"#utility.yul\":9908:10274   */\n      swap2\n      swap1\n      pop\n      jump\t// out\n        /* \"#utility.yul\":10280:10699   */\n    tag_226:\n        /* \"#utility.yul\":10446:10450   */\n      0x00\n        /* \"#utility.yul\":10484:10486   */\n      0x20\n        /* \"#utility.yul\":10473:10482   */\n      dup3\n        /* \"#utility.yul\":10469:10487   */\n      add\n        /* \"#utility.yul\":10461:10487   */\n      swap1\n      pop\n        /* \"#utility.yul\":10533:10542   */\n      dup2\n        /* \"#utility.yul\":10527:10531   */\n      dup2\n        /* \"#utility.yul\":10523:10543   */\n      sub\n        /* \"#utility.yul\":10519:10520   */\n      0x00\n        /* \"#utility.yul\":10508:10517   */\n      dup4\n        /* \"#utility.yul\":10504:10521   */\n      add\n        /* \"#utility.yul\":10497:10544   */\n      mstore\n        /* \"#utility.yul\":10561:10692   */\n      tag_577\n        /* \"#utility.yul\":10687:10691   */\n      dup2\n        /* \"#utility.yul\":10561:10692   */\n      tag_429\n      jump\t// in\n    tag_577:\n        /* \"#utility.yul\":10553:10692   */\n      swap1\n      pop\n        /* \"#utility.yul\":10280:10699   */\n      swap2\n      swap1\n      pop\n      jump\t// out\n        /* \"#utility.yul\":10705:10876   */\n    tag_430:\n        /* \"#utility.yul\":10845:10868   */\n      0x416d6f756e74206d757374206265203e3d203130300000000000000000000000\n        /* \"#utility.yul\":10841:10842   */\n      0x00\n        /* \"#utility.yul\":10833:10839   */\n      dup3\n        /* \"#utility.yul\":10829:10843   */\n      add\n        /* \"#utility.yul\":10822:10869   */\n      mstore\n        /* \"#utility.yul\":10705:10876   */\n      pop\n      jump\t// out\n        /* \"#utility.yul\":10882:11248   */\n    tag_431:\n        /* \"#utility.yul\":11024:11027   */\n      0x00\n        /* \"#utility.yul\":11045:11112   */\n      tag_580\n        /* \"#utility.yul\":11109:11111   */\n      0x15\n        /* \"#utility.yul\":11104:11107   */\n      dup4\n        /* \"#utility.yul\":11045:11112   */\n      tag_400\n      jump\t// in\n    tag_580:\n        /* \"#utility.yul\":11038:11112   */\n      swap2\n      pop\n        /* \"#utility.yul\":11121:11214   */\n      tag_581\n        /* \"#utility.yul\":11210:11213   */\n      dup3\n        /* \"#utility.yul\":11121:11214   */\n      tag_430\n      jump\t// in\n    tag_581:\n        /* \"#utility.yul\":11239:11241   */\n      0x20\n        /* \"#utility.yul\":11234:11237   */\n      dup3\n        /* \"#utility.yul\":11230:11242   */\n      add\n        /* \"#utility.yul\":11223:11242   */\n      swap1\n      pop\n        /* \"#utility.yul\":10882:11248   */\n      swap2\n      swap1\n      pop\n      jump\t// out\n        /* \"#utility.yul\":11254:11673   */\n    tag_240:\n        /* \"#utility.yul\":11420:11424   */\n      0x00\n        /* \"#utility.yul\":11458:11460   */\n      0x20\n        /* \"#utility.yul\":11447:11456   */\n      dup3\n        /* \"#utility.yul\":11443:11461   */\n      add\n        /* \"#utility.yul\":11435:11461   */\n      swap1\n      pop\n        /* \"#utility.yul\":11507:11516   */\n      dup2\n        /* \"#utility.yul\":11501:11505   */\n      dup2\n        /* \"#utility.yul\":11497:11517   */\n      sub\n        /* \"#utility.yul\":11493:11494   */\n      0x00\n        /* \"#utility.yul\":11482:11491   */\n      dup4\n        /* \"#utility.yul\":11478:11495   */\n      add\n        /* \"#utility.yul\":11471:11518   */\n      mstore\n        /* \"#utility.yul\":11535:11666   */\n      tag_583\n        /* \"#utility.yul\":11661:11665   */\n      dup2\n        /* \"#utility.yul\":11535:11666   */\n      tag_431\n      jump\t// in\n    tag_583:\n        /* \"#utility.yul\":11527:11666   */\n      swap1\n      pop\n        /* \"#utility.yul\":11254:11673   */\n      swap2\n      swap1\n      pop\n      jump\t// out\n        /* \"#utility.yul\":11679:11861   */\n    tag_432:\n        /* \"#utility.yul\":11819:11853   */\n      0x4f776e61626c653a2063616c6c6572206973206e6f7420746865206f776e6572\n        /* \"#utility.yul\":11815:11816   */\n      0x00\n        /* \"#utility.yul\":11807:11813   */\n      dup3\n        /* \"#utility.yul\":11803:11817   */\n      add\n        /* \"#utility.yul\":11796:11854   */\n      mstore\n        /* \"#utility.yul\":11679:11861   */\n      pop\n      jump\t// out\n        /* \"#utility.yul\":11867:12233   */\n    tag_433:\n        /* \"#utility.yul\":12009:12012   */\n      0x00\n        /* \"#utility.yul\":12030:12097   */\n      tag_586\n        /* \"#utility.yul\":12094:12096   */\n      0x20\n        /* \"#utility.yul\":12089:12092   */\n      dup4\n        /* \"#utility.yul\":12030:12097   */\n      tag_400\n      jump\t// in\n    tag_586:\n        /* \"#utility.yul\":12023:12097   */\n      swap2\n      pop\n        /* \"#utility.yul\":12106:12199   */\n      tag_587\n        /* \"#utility.yul\":12195:12198   */\n      dup3\n        /* \"#utility.yul\":12106:12199   */\n      tag_432\n      jump\t// in\n    tag_587:\n        /* \"#utility.yul\":12224:12226   */\n      0x20\n        /* \"#utility.yul\":12219:12222   */\n      dup3\n        /* \"#utility.yul\":12215:12227   */\n      add\n        /* \"#utility.yul\":12208:12227   */\n      swap1\n      pop\n        /* \"#utility.yul\":11867:12233   */\n      swap2\n      swap1\n      pop\n      jump\t// out\n        /* \"#utility.yul\":12239:12658   */\n    tag_248:\n        /* \"#utility.yul\":12405:12409   */\n      0x00\n        /* \"#utility.yul\":12443:12445   */\n      0x20\n        /* \"#utility.yul\":12432:12441   */\n      dup3\n        /* \"#utility.yul\":12428:12446   */\n      add\n        /* \"#utility.yul\":12420:12446   */\n      swap1\n      pop\n        /* \"#utility.yul\":12492:12501   */\n      dup2\n        /* \"#utility.yul\":12486:12490   */\n      dup2\n        /* \"#utility.yul\":12482:12502   */\n      sub\n        /* \"#utility.yul\":12478:12479   */\n      0x00\n        /* \"#utility.yul\":12467:12476   */\n      dup4\n        /* \"#utility.yul\":12463:12480   */\n      add\n        /* \"#utility.yul\":12456:12503   */\n      mstore\n        /* \"#utility.yul\":12520:12651   */\n      tag_589\n        /* \"#utility.yul\":12646:12650   */\n      dup2\n        /* \"#utility.yul\":12520:12651   */\n      tag_433\n      jump\t// in\n    tag_589:\n        /* \"#utility.yul\":12512:12651   */\n      swap1\n      pop\n        /* \"#utility.yul\":12239:12658   */\n      swap2\n      swap1\n      pop\n      jump\t// out\n        /* \"#utility.yul\":12664:12829   */\n    tag_434:\n        /* \"#utility.yul\":12804:12821   */\n      0x496e76616c696420616464726573730000000000000000000000000000000000\n        /* \"#utility.yul\":12800:12801   */\n      0x00\n        /* \"#utility.yul\":12792:12798   */\n      dup3\n        /* \"#utility.yul\":12788:12802   */\n      add\n        /* \"#utility.yul\":12781:12822   */\n      mstore\n        /* \"#utility.yul\":12664:12829   */\n      pop\n      jump\t// out\n        /* \"#utility.yul\":12835:13201   */\n    tag_435:\n        /* \"#utility.yul\":12977:12980   */\n      0x00\n        /* \"#utility.yul\":12998:13065   */\n      tag_592\n        /* \"#utility.yul\":13062:13064   */\n      0x0f\n        /* \"#utility.yul\":13057:13060   */\n      dup4\n        /* \"#utility.yul\":12998:13065   */\n      tag_400\n      jump\t// in\n    tag_592:\n        /* \"#utility.yul\":12991:13065   */\n      swap2\n      pop\n        /* \"#utility.yul\":13074:13167   */\n      tag_593\n        /* \"#utility.yul\":13163:13166   */\n      dup3\n        /* \"#utility.yul\":13074:13167   */\n      tag_434\n      jump\t// in\n    tag_593:\n        /* \"#utility.yul\":13192:13194   */\n      0x20\n        /* \"#utility.yul\":13187:13190   */\n      dup3\n        /* \"#utility.yul\":13183:13195   */\n      add\n        /* \"#utility.yul\":13176:13195   */\n      swap1\n      pop\n        /* \"#utility.yul\":12835:13201   */\n      swap2\n      swap1\n      pop\n      jump\t// out\n        /* \"#utility.yul\":13207:13626   */\n    tag_264:\n        /* \"#utility.yul\":13373:13377   */\n      0x00\n        /* \"#utility.yul\":13411:13413   */\n      0x20\n        /* \"#utility.yul\":13400:13409   */\n      dup3\n        /* \"#utility.yul\":13396:13414   */\n      add\n        /* \"#utility.yul\":13388:13414   */\n      swap1\n      pop\n        /* \"#utility.yul\":13460:13469   */\n      dup2\n        /* \"#utility.yul\":13454:13458   */\n      dup2\n        /* \"#utility.yul\":13450:13470   */\n      sub\n        /* \"#utility.yul\":13446:13447   */\n      0x00\n        /* \"#utility.yul\":13435:13444   */\n      dup4\n        /* \"#utility.yul\":13431:13448   */\n      add\n        /* \"#utility.yul\":13424:13471   */\n      mstore\n        /* \"#utility.yul\":13488:13619   */\n      tag_595\n        /* \"#utility.yul\":13614:13618   */\n      dup2\n        /* \"#utility.yul\":13488:13619   */\n      tag_435\n      jump\t// in\n    tag_595:\n        /* \"#utility.yul\":13480:13619   */\n      swap1\n      pop\n        /* \"#utility.yul\":13207:13626   */\n      swap2\n      swap1\n      pop\n      jump\t// out\n        /* \"#utility.yul\":13632:13857   */\n    tag_436:\n        /* \"#utility.yul\":13772:13806   */\n      0x4f776e61626c653a206e6577206f776e657220697320746865207a65726f2061\n        /* \"#utility.yul\":13768:13769   */\n      0x00\n        /* \"#utility.yul\":13760:13766   */\n      dup3\n        /* \"#utility.yul\":13756:13770   */\n      add\n        /* \"#utility.yul\":13749:13807   */\n      mstore\n        /* \"#utility.yul\":13841:13849   */\n      0x6464726573730000000000000000000000000000000000000000000000000000\n        /* \"#utility.yul\":13836:13838   */\n      0x20\n        /* \"#utility.yul\":13828:13834   */\n      dup3\n        /* \"#utility.yul\":13824:13839   */\n      add\n        /* \"#utility.yul\":13817:13850   */\n      mstore\n        /* \"#utility.yul\":13632:13857   */\n      pop\n      jump\t// out\n        /* \"#utility.yul\":13863:14229   */\n    tag_437:\n        /* \"#utility.yul\":14005:14008   */\n      0x00\n        /* \"#utility.yul\":14026:14093   */\n      tag_598\n        /* \"#utility.yul\":14090:14092   */\n      0x26\n        /* \"#utility.yul\":14085:14088   */\n      dup4\n        /* \"#utility.yul\":14026:14093   */\n      tag_400\n      jump\t// in\n    tag_598:\n        /* \"#utility.yul\":14019:14093   */\n      swap2\n      pop\n        /* \"#utility.yul\":14102:14195   */\n      tag_599\n        /* \"#utility.yul\":14191:14194   */\n      dup3\n        /* \"#utility.yul\":14102:14195   */\n      tag_436\n      jump\t// in\n    tag_599:\n        /* \"#utility.yul\":14220:14222   */\n      0x40\n        /* \"#utility.yul\":14215:14218   */\n      dup3\n        /* \"#utility.yul\":14211:14223   */\n      add\n        /* \"#utility.yul\":14204:14223   */\n      swap1\n      pop\n        /* \"#utility.yul\":13863:14229   */\n      swap2\n      swap1\n      pop\n      jump\t// out\n        /* \"#utility.yul\":14235:14654   */\n    tag_283:\n        /* \"#utility.yul\":14401:14405   */\n      0x00\n        /* \"#utility.yul\":14439:14441   */\n      0x20\n        /* \"#utility.yul\":14428:14437   */\n      dup3\n        /* \"#utility.yul\":14424:14442   */\n      add\n        /* \"#utility.yul\":14416:14442   */\n      swap1\n      pop\n        /* \"#utility.yul\":14488:14497   */\n      dup2\n        /* \"#utility.yul\":14482:14486   */\n      dup2\n        /* \"#utility.yul\":14478:14498   */\n      sub\n        /* \"#utility.yul\":14474:14475   */\n      0x00\n        /* \"#utility.yul\":14463:14472   */\n      dup4\n        /* \"#utility.yul\":14459:14476   */\n      add\n        /* \"#utility.yul\":14452:14499   */\n      mstore\n        /* \"#utility.yul\":14516:14647   */\n      tag_601\n        /* \"#utility.yul\":14642:14646   */\n      dup2\n        /* \"#utility.yul\":14516:14647   */\n      tag_437\n      jump\t// in\n    tag_601:\n        /* \"#utility.yul\":14508:14647   */\n      swap1\n      pop\n        /* \"#utility.yul\":14235:14654   */\n      swap2\n      swap1\n      pop\n      jump\t// out\n        /* \"#utility.yul\":14660:14829   */\n    tag_438:\n        /* \"#utility.yul\":14800:14821   */\n      0x45524332303a205a65726f204164647265737300000000000000000000000000\n        /* \"#utility.yul\":14796:14797   */\n      0x00\n        /* \"#utility.yul\":14788:14794   */\n      dup3\n        /* \"#utility.yul\":14784:14798   */\n      add\n        /* \"#utility.yul\":14777:14822   */\n      mstore\n        /* \"#utility.yul\":14660:14829   */\n      pop\n      jump\t// out\n        /* \"#utility.yul\":14835:15201   */\n    tag_439:\n        /* \"#utility.yul\":14977:14980   */\n      0x00\n        /* \"#utility.yul\":14998:15065   */\n      tag_604\n        /* \"#utility.yul\":15062:15064   */\n      0x13\n        /* \"#utility.yul\":15057:15060   */\n      dup4\n        /* \"#utility.yul\":14998:15065   */\n      tag_400\n      jump\t// in\n    tag_604:\n        /* \"#utility.yul\":14991:15065   */\n      swap2\n      pop\n        /* \"#utility.yul\":15074:15167   */\n      tag_605\n        /* \"#utility.yul\":15163:15166   */\n      dup3\n        /* \"#utility.yul\":15074:15167   */\n      tag_438\n      jump\t// in\n    tag_605:\n        /* \"#utility.yul\":15192:15194   */\n      0x20\n        /* \"#utility.yul\":15187:15190   */\n      dup3\n        /* \"#utility.yul\":15183:15195   */\n      add\n        /* \"#utility.yul\":15176:15195   */\n      swap1\n      pop\n        /* \"#utility.yul\":14835:15201   */\n      swap2\n      swap1\n      pop\n      jump\t// out\n        /* \"#utility.yul\":15207:15626   */\n    tag_288:\n        /* \"#utility.yul\":15373:15377   */\n      0x00\n        /* \"#utility.yul\":15411:15413   */\n      0x20\n        /* \"#utility.yul\":15400:15409   */\n      dup3\n        /* \"#utility.yul\":15396:15414   */\n      add\n        /* \"#utility.yul\":15388:15414   */\n      swap1\n      pop\n        /* \"#utility.yul\":15460:15469   */\n      dup2\n        /* \"#utility.yul\":15454:15458   */\n      dup2\n        /* \"#utility.yul\":15450:15470   */\n      sub\n        /* \"#utility.yul\":15446:15447   */\n      0x00\n        /* \"#utility.yul\":15435:15444   */\n      dup4\n        /* \"#utility.yul\":15431:15448   */\n      add\n        /* \"#utility.yul\":15424:15471   */\n      mstore\n        /* \"#utility.yul\":15488:15619   */\n      tag_607\n        /* \"#utility.yul\":15614:15618   */\n      dup2\n        /* \"#utility.yul\":15488:15619   */\n      tag_439\n      jump\t// in\n    tag_607:\n        /* \"#utility.yul\":15480:15619   */\n      swap1\n      pop\n        /* \"#utility.yul\":15207:15626   */\n      swap2\n      swap1\n      pop\n      jump\t// out\n        /* \"#utility.yul\":15632:15854   */\n    tag_440:\n        /* \"#utility.yul\":15772:15806   */\n      0x45524332303a207472616e7366657220746f20746865207a65726f2061646472\n        /* \"#utility.yul\":15768:15769   */\n      0x00\n        /* \"#utility.yul\":15760:15766   */\n      dup3\n        /* \"#utility.yul\":15756:15770   */\n      add\n        /* \"#utility.yul\":15749:15807   */\n      mstore\n        /* \"#utility.yul\":15841:15846   */\n      0x6573730000000000000000000000000000000000000000000000000000000000\n        /* \"#utility.yul\":15836:15838   */\n      0x20\n        /* \"#utility.yul\":15828:15834   */\n      dup3\n        /* \"#utility.yul\":15824:15839   */\n      add\n        /* \"#utility.yul\":15817:15847   */\n      mstore\n        /* \"#utility.yul\":15632:15854   */\n      pop\n      jump\t// out\n        /* \"#utility.yul\":15860:16226   */\n    tag_441:\n        /* \"#utility.yul\":16002:16005   */\n      0x00\n        /* \"#utility.yul\":16023:16090   */\n      tag_610\n        /* \"#utility.yul\":16087:16089   */\n      0x23\n        /* \"#utility.yul\":16082:16085   */\n      dup4\n        /* \"#utility.yul\":16023:16090   */\n      tag_400\n      jump\t// in\n    tag_610:\n        /* \"#utility.yul\":16016:16090   */\n      swap2\n      pop\n        /* \"#utility.yul\":16099:16192   */\n      tag_611\n        /* \"#utility.yul\":16188:16191   */\n      dup3\n        /* \"#utility.yul\":16099:16192   */\n      tag_440\n      jump\t// in\n    tag_611:\n        /* \"#utility.yul\":16217:16219   */\n      0x40\n        /* \"#utility.yul\":16212:16215   */\n      dup3\n        /* \"#utility.yul\":16208:16220   */\n      add\n        /* \"#utility.yul\":16201:16220   */\n      swap1\n      pop\n        /* \"#utility.yul\":15860:16226   */\n      swap2\n      swap1\n      pop\n      jump\t// out\n        /* \"#utility.yul\":16232:16651   */\n    tag_294:\n        /* \"#utility.yul\":16398:16402   */\n      0x00\n        /* \"#utility.yul\":16436:16438   */\n      0x20\n        /* \"#utility.yul\":16425:16434   */\n      dup3\n        /* \"#utility.yul\":16421:16439   */\n      add\n        /* \"#utility.yul\":16413:16439   */\n      swap1\n      pop\n        /* \"#utility.yul\":16485:16494   */\n      dup2\n        /* \"#utility.yul\":16479:16483   */\n      dup2\n        /* \"#utility.yul\":16475:16495   */\n      sub\n        /* \"#utility.yul\":16471:16472   */\n      0x00\n        /* \"#utility.yul\":16460:16469   */\n      dup4\n        /* \"#utility.yul\":16456:16473   */\n      add\n        /* \"#utility.yul\":16449:16496   */\n      mstore\n        /* \"#utility.yul\":16513:16644   */\n      tag_613\n        /* \"#utility.yul\":16639:16643   */\n      dup2\n        /* \"#utility.yul\":16513:16644   */\n      tag_441\n      jump\t// in\n    tag_613:\n        /* \"#utility.yul\":16505:16644   */\n      swap1\n      pop\n        /* \"#utility.yul\":16232:16651   */\n      swap2\n      swap1\n      pop\n      jump\t// out\n        /* \"#utility.yul\":16657:16881   */\n    tag_442:\n        /* \"#utility.yul\":16797:16831   */\n      0x45524332303a207472616e736665722066726f6d20746865207a65726f206164\n        /* \"#utility.yul\":16793:16794   */\n      0x00\n        /* \"#utility.yul\":16785:16791   */\n      dup3\n        /* \"#utility.yul\":16781:16795   */\n      add\n        /* \"#utility.yul\":16774:16832   */\n      mstore\n        /* \"#utility.yul\":16866:16873   */\n      0x6472657373000000000000000000000000000000000000000000000000000000\n        /* \"#utility.yul\":16861:16863   */\n      0x20\n        /* \"#utility.yul\":16853:16859   */\n      dup3\n        /* \"#utility.yul\":16849:16864   */\n      add\n        /* \"#utility.yul\":16842:16874   */\n      mstore\n        /* \"#utility.yul\":16657:16881   */\n      pop\n      jump\t// out\n        /* \"#utility.yul\":16887:17253   */\n    tag_443:\n        /* \"#utility.yul\":17029:17032   */\n      0x00\n        /* \"#utility.yul\":17050:17117   */\n      tag_616\n        /* \"#utility.yul\":17114:17116   */\n      0x25\n        /* \"#utility.yul\":17109:17112   */\n      dup4\n        /* \"#utility.yul\":17050:17117   */\n      tag_400\n      jump\t// in\n    tag_616:\n        /* \"#utility.yul\":17043:17117   */\n      swap2\n      pop\n        /* \"#utility.yul\":17126:17219   */\n      tag_617\n        /* \"#utility.yul\":17215:17218   */\n      dup3\n        /* \"#utility.yul\":17126:17219   */\n      tag_442\n      jump\t// in\n    tag_617:\n        /* \"#utility.yul\":17244:17246   */\n      0x40\n        /* \"#utility.yul\":17239:17242   */\n      dup3\n        /* \"#utility.yul\":17235:17247   */\n      add\n        /* \"#utility.yul\":17228:17247   */\n      swap1\n      pop\n        /* \"#utility.yul\":16887:17253   */\n      swap2\n      swap1\n      pop\n      jump\t// out\n        /* \"#utility.yul\":17259:17678   */\n    tag_297:\n        /* \"#utility.yul\":17425:17429   */\n      0x00\n        /* \"#utility.yul\":17463:17465   */\n      0x20\n        /* \"#utility.yul\":17452:17461   */\n      dup3\n        /* \"#utility.yul\":17448:17466   */\n      add\n        /* \"#utility.yul\":17440:17466   */\n      swap1\n      pop\n        /* \"#utility.yul\":17512:17521   */\n      dup2\n        /* \"#utility.yul\":17506:17510   */\n      dup2\n        /* \"#utility.yul\":17502:17522   */\n      sub\n        /* \"#utility.yul\":17498:17499   */\n      0x00\n        /* \"#utility.yul\":17487:17496   */\n      dup4\n        /* \"#utility.yul\":17483:17500   */\n      add\n        /* \"#utility.yul\":17476:17523   */\n      mstore\n        /* \"#utility.yul\":17540:17671   */\n      tag_619\n        /* \"#utility.yul\":17666:17670   */\n      dup2\n        /* \"#utility.yul\":17540:17671   */\n      tag_443\n      jump\t// in\n    tag_619:\n        /* \"#utility.yul\":17532:17671   */\n      swap1\n      pop\n        /* \"#utility.yul\":17259:17678   */\n      swap2\n      swap1\n      pop\n      jump\t// out\n        /* \"#utility.yul\":17684:17912   */\n    tag_444:\n        /* \"#utility.yul\":17824:17858   */\n      0x5472616e7366657220616d6f756e74206d757374206265206772656174657220\n        /* \"#utility.yul\":17820:17821   */\n      0x00\n        /* \"#utility.yul\":17812:17818   */\n      dup3\n        /* \"#utility.yul\":17808:17822   */\n      add\n        /* \"#utility.yul\":17801:17859   */\n      mstore\n        /* \"#utility.yul\":17893:17904   */\n      0x7468616e207a65726f0000000000000000000000000000000000000000000000\n        /* \"#utility.yul\":17888:17890   */\n      0x20\n        /* \"#utility.yul\":17880:17886   */\n      dup3\n        /* \"#utility.yul\":17876:17891   */\n      add\n        /* \"#utility.yul\":17869:17905   */\n      mstore\n        /* \"#utility.yul\":17684:17912   */\n      pop\n      jump\t// out\n        /* \"#utility.yul\":17918:18284   */\n    tag_445:\n        /* \"#utility.yul\":18060:18063   */\n      0x00\n        /* \"#utility.yul\":18081:18148   */\n      tag_622\n        /* \"#utility.yul\":18145:18147   */\n      0x29\n        /* \"#utility.yul\":18140:18143   */\n      dup4\n        /* \"#utility.yul\":18081:18148   */\n      tag_400\n      jump\t// in\n    tag_622:\n        /* \"#utility.yul\":18074:18148   */\n      swap2\n      pop\n        /* \"#utility.yul\":18157:18250   */\n      tag_623\n        /* \"#utility.yul\":18246:18249   */\n      dup3\n        /* \"#utility.yul\":18157:18250   */\n      tag_444\n      jump\t// in\n    tag_623:\n        /* \"#utility.yul\":18275:18277   */\n      0x40\n        /* \"#utility.yul\":18270:18273   */\n      dup3\n        /* \"#utility.yul\":18266:18278   */\n      add\n        /* \"#utility.yul\":18259:18278   */\n      swap1\n      pop\n        /* \"#utility.yul\":17918:18284   */\n      swap2\n      swap1\n      pop\n      jump\t// out\n        /* \"#utility.yul\":18290:18709   */\n    tag_300:\n        /* \"#utility.yul\":18456:18460   */\n      0x00\n        /* \"#utility.yul\":18494:18496   */\n      0x20\n        /* \"#utility.yul\":18483:18492   */\n      dup3\n        /* \"#utility.yul\":18479:18497   */\n      add\n        /* \"#utility.yul\":18471:18497   */\n      swap1\n      pop\n        /* \"#utility.yul\":18543:18552   */\n      dup2\n        /* \"#utility.yul\":18537:18541   */\n      dup2\n        /* \"#utility.yul\":18533:18553   */\n      sub\n        /* \"#utility.yul\":18529:18530   */\n      0x00\n        /* \"#utility.yul\":18518:18527   */\n      dup4\n        /* \"#utility.yul\":18514:18531   */\n      add\n        /* \"#utility.yul\":18507:18554   */\n      mstore\n        /* \"#utility.yul\":18571:18702   */\n      tag_625\n        /* \"#utility.yul\":18697:18701   */\n      dup2\n        /* \"#utility.yul\":18571:18702   */\n      tag_445\n      jump\t// in\n    tag_625:\n        /* \"#utility.yul\":18563:18702   */\n      swap1\n      pop\n        /* \"#utility.yul\":18290:18709   */\n      swap2\n      swap1\n      pop\n      jump\t// out\n        /* \"#utility.yul\":18715:18938   */\n    tag_446:\n        /* \"#utility.yul\":18855:18889   */\n      0x4f6e6c79206f6e65207472616e736665722070657220626c6f636b20616c6c6f\n        /* \"#utility.yul\":18851:18852   */\n      0x00\n        /* \"#utility.yul\":18843:18849   */\n      dup3\n        /* \"#utility.yul\":18839:18853   */\n      add\n        /* \"#utility.yul\":18832:18890   */\n      mstore\n        /* \"#utility.yul\":18924:18930   */\n      0x7765642e00000000000000000000000000000000000000000000000000000000\n        /* \"#utility.yul\":18919:18921   */\n      0x20\n        /* \"#utility.yul\":18911:18917   */\n      dup3\n        /* \"#utility.yul\":18907:18922   */\n      add\n        /* \"#utility.yul\":18900:18931   */\n      mstore\n        /* \"#utility.yul\":18715:18938   */\n      pop\n      jump\t// out\n        /* \"#utility.yul\":18944:19310   */\n    tag_447:\n        /* \"#utility.yul\":19086:19089   */\n      0x00\n        /* \"#utility.yul\":19107:19174   */\n      tag_628\n        /* \"#utility.yul\":19171:19173   */\n      0x24\n        /* \"#utility.yul\":19166:19169   */\n      dup4\n        /* \"#utility.yul\":19107:19174   */\n      tag_400\n      jump\t// in\n    tag_628:\n        /* \"#utility.yul\":19100:19174   */\n      swap2\n      pop\n        /* \"#utility.yul\":19183:19276   */\n      tag_629\n        /* \"#utility.yul\":19272:19275   */\n      dup3\n        /* \"#utility.yul\":19183:19276   */\n      tag_446\n      jump\t// in\n    tag_629:\n        /* \"#utility.yul\":19301:19303   */\n      0x40\n        /* \"#utility.yul\":19296:19299   */\n      dup3\n        /* \"#utility.yul\":19292:19304   */\n      add\n        /* \"#utility.yul\":19285:19304   */\n      swap1\n      pop\n        /* \"#utility.yul\":18944:19310   */\n      swap2\n      swap1\n      pop\n      jump\t// out\n        /* \"#utility.yul\":19316:19735   */\n    tag_310:\n        /* \"#utility.yul\":19482:19486   */\n      0x00\n        /* \"#utility.yul\":19520:19522   */\n      0x20\n        /* \"#utility.yul\":19509:19518   */\n      dup3\n        /* \"#utility.yul\":19505:19523   */\n      add\n        /* \"#utility.yul\":19497:19523   */\n      swap1\n      pop\n        /* \"#utility.yul\":19569:19578   */\n      dup2\n        /* \"#utility.yul\":19563:19567   */\n      dup2\n        /* \"#utility.yul\":19559:19579   */\n      sub\n        /* \"#utility.yul\":19555:19556   */\n      0x00\n        /* \"#utility.yul\":19544:19553   */\n      dup4\n        /* \"#utility.yul\":19540:19557   */\n      add\n        /* \"#utility.yul\":19533:19580   */\n      mstore\n        /* \"#utility.yul\":19597:19728   */\n      tag_631\n        /* \"#utility.yul\":19723:19727   */\n      dup2\n        /* \"#utility.yul\":19597:19728   */\n      tag_447\n      jump\t// in\n    tag_631:\n        /* \"#utility.yul\":19589:19728   */\n      swap1\n      pop\n        /* \"#utility.yul\":19316:19735   */\n      swap2\n      swap1\n      pop\n      jump\t// out\n        /* \"#utility.yul\":19741:19916   */\n    tag_448:\n        /* \"#utility.yul\":19881:19908   */\n      0x4578636565647320746865205f6d61785478416d6f756e742e00000000000000\n        /* \"#utility.yul\":19877:19878   */\n      0x00\n        /* \"#utility.yul\":19869:19875   */\n      dup3\n        /* \"#utility.yul\":19865:19879   */\n      add\n        /* \"#utility.yul\":19858:19909   */\n      mstore\n        /* \"#utility.yul\":19741:19916   */\n      pop\n      jump\t// out\n        /* \"#utility.yul\":19922:20288   */\n    tag_449:\n        /* \"#utility.yul\":20064:20067   */\n      0x00\n        /* \"#utility.yul\":20085:20152   */\n      tag_634\n        /* \"#utility.yul\":20149:20151   */\n      0x19\n        /* \"#utility.yul\":20144:20147   */\n      dup4\n        /* \"#utility.yul\":20085:20152   */\n      tag_400\n      jump\t// in\n    tag_634:\n        /* \"#utility.yul\":20078:20152   */\n      swap2\n      pop\n        /* \"#utility.yul\":20161:20254   */\n      tag_635\n        /* \"#utility.yul\":20250:20253   */\n      dup3\n        /* \"#utility.yul\":20161:20254   */\n      tag_448\n      jump\t// in\n    tag_635:\n        /* \"#utility.yul\":20279:20281   */\n      0x20\n        /* \"#utility.yul\":20274:20277   */\n      dup3\n        /* \"#utility.yul\":20270:20282   */\n      add\n        /* \"#utility.yul\":20263:20282   */\n      swap1\n      pop\n        /* \"#utility.yul\":19922:20288   */\n      swap2\n      swap1\n      pop\n      jump\t// out\n        /* \"#utility.yul\":20294:20713   */\n    tag_317:\n        /* \"#utility.yul\":20460:20464   */\n      0x00\n        /* \"#utility.yul\":20498:20500   */\n      0x20\n        /* \"#utility.yul\":20487:20496   */\n      dup3\n        /* \"#utility.yul\":20483:20501   */\n      add\n        /* \"#utility.yul\":20475:20501   */\n      swap1\n      pop\n        /* \"#utility.yul\":20547:20556   */\n      dup2\n        /* \"#utility.yul\":20541:20545   */\n      dup2\n        /* \"#utility.yul\":20537:20557   */\n      sub\n        /* \"#utility.yul\":20533:20534   */\n      0x00\n        /* \"#utility.yul\":20522:20531   */\n      dup4\n        /* \"#utility.yul\":20518:20535   */\n      add\n        /* \"#utility.yul\":20511:20558   */\n      mstore\n        /* \"#utility.yul\":20575:20706   */\n      tag_637\n        /* \"#utility.yul\":20701:20705   */\n      dup2\n        /* \"#utility.yul\":20575:20706   */\n      tag_449\n      jump\t// in\n    tag_637:\n        /* \"#utility.yul\":20567:20706   */\n      swap1\n      pop\n        /* \"#utility.yul\":20294:20713   */\n      swap2\n      swap1\n      pop\n      jump\t// out\n        /* \"#utility.yul\":20719:20910   */\n    tag_320:\n        /* \"#utility.yul\":20759:20762   */\n      0x00\n        /* \"#utility.yul\":20778:20798   */\n      tag_639\n        /* \"#utility.yul\":20796:20797   */\n      dup3\n        /* \"#utility.yul\":20778:20798   */\n      tag_397\n      jump\t// in\n    tag_639:\n        /* \"#utility.yul\":20773:20798   */\n      swap2\n      pop\n        /* \"#utility.yul\":20812:20832   */\n      tag_640\n        /* \"#utility.yul\":20830:20831   */\n      dup4\n        /* \"#utility.yul\":20812:20832   */\n      tag_397\n      jump\t// in\n    tag_640:\n        /* \"#utility.yul\":20807:20832   */\n      swap3\n      pop\n        /* \"#utility.yul\":20855:20856   */\n      dup3\n        /* \"#utility.yul\":20852:20853   */\n      dup3\n        /* \"#utility.yul\":20848:20857   */\n      add\n        /* \"#utility.yul\":20841:20857   */\n      swap1\n      pop\n        /* \"#utility.yul\":20876:20879   */\n      dup1\n        /* \"#utility.yul\":20873:20874   */\n      dup3\n        /* \"#utility.yul\":20870:20880   */\n      gt\n        /* \"#utility.yul\":20867:20903   */\n      iszero\n      tag_641\n      jumpi\n        /* \"#utility.yul\":20883:20901   */\n      tag_642\n      tag_423\n      jump\t// in\n    tag_642:\n        /* \"#utility.yul\":20867:20903   */\n    tag_641:\n        /* \"#utility.yul\":20719:20910   */\n      swap3\n      swap2\n      pop\n      pop\n      jump\t// out\n        /* \"#utility.yul\":20916:21092   */\n    tag_450:\n        /* \"#utility.yul\":21056:21084   */\n      0x4578636565647320746865206d617857616c6c657453697a652e000000000000\n        /* \"#utility.yul\":21052:21053   */\n      0x00\n        /* \"#utility.yul\":21044:21050   */\n      dup3\n        /* \"#utility.yul\":21040:21054   */\n      add\n        /* \"#utility.yul\":21033:21085   */\n      mstore\n        /* \"#utility.yul\":20916:21092   */\n      pop\n      jump\t// out\n        /* \"#utility.yul\":21098:21464   */\n    tag_451:\n        /* \"#utility.yul\":21240:21243   */\n      0x00\n        /* \"#utility.yul\":21261:21328   */\n      tag_645\n        /* \"#utility.yul\":21325:21327   */\n      0x1a\n        /* \"#utility.yul\":21320:21323   */\n      dup4\n        /* \"#utility.yul\":21261:21328   */\n      tag_400\n      jump\t// in\n    tag_645:\n        /* \"#utility.yul\":21254:21328   */\n      swap2\n      pop\n        /* \"#utility.yul\":21337:21430   */\n      tag_646\n        /* \"#utility.yul\":21426:21429   */\n      dup3\n        /* \"#utility.yul\":21337:21430   */\n      tag_450\n      jump\t// in\n    tag_646:\n        /* \"#utility.yul\":21455:21457   */\n      0x20\n        /* \"#utility.yul\":21450:21453   */\n      dup3\n        /* \"#utility.yul\":21446:21458   */\n      add\n        /* \"#utility.yul\":21439:21458   */\n      swap1\n      pop\n        /* \"#utility.yul\":21098:21464   */\n      swap2\n      swap1\n      pop\n      jump\t// out\n        /* \"#utility.yul\":21470:21889   */\n    tag_323:\n        /* \"#utility.yul\":21636:21640   */\n      0x00\n        /* \"#utility.yul\":21674:21676   */\n      0x20\n        /* \"#utility.yul\":21663:21672   */\n      dup3\n        /* \"#utility.yul\":21659:21677   */\n      add\n        /* \"#utility.yul\":21651:21677   */\n      swap1\n      pop\n        /* \"#utility.yul\":21723:21732   */\n      dup2\n        /* \"#utility.yul\":21717:21721   */\n      dup2\n        /* \"#utility.yul\":21713:21733   */\n      sub\n        /* \"#utility.yul\":21709:21710   */\n      0x00\n        /* \"#utility.yul\":21698:21707   */\n      dup4\n        /* \"#utility.yul\":21694:21711   */\n      add\n        /* \"#utility.yul\":21687:21734   */\n      mstore\n        /* \"#utility.yul\":21751:21882   */\n      tag_648\n        /* \"#utility.yul\":21877:21881   */\n      dup2\n        /* \"#utility.yul\":21751:21882   */\n      tag_451\n      jump\t// in\n    tag_648:\n        /* \"#utility.yul\":21743:21882   */\n      swap1\n      pop\n        /* \"#utility.yul\":21470:21889   */\n      swap2\n      swap1\n      pop\n      jump\t// out\n        /* \"#utility.yul\":21895:22075   */\n    tag_346:\n        /* \"#utility.yul\":21943:22020   */\n      0x4e487b7100000000000000000000000000000000000000000000000000000000\n        /* \"#utility.yul\":21940:21941   */\n      0x00\n        /* \"#utility.yul\":21933:22021   */\n      mstore\n        /* \"#utility.yul\":22040:22044   */\n      0x41\n        /* \"#utility.yul\":22037:22038   */\n      0x04\n        /* \"#utility.yul\":22030:22045   */\n      mstore\n        /* \"#utility.yul\":22064:22068   */\n      0x24\n        /* \"#utility.yul\":22061:22062   */\n      0x00\n        /* \"#utility.yul\":22054:22069   */\n      revert\n        /* \"#utility.yul\":22081:22261   */\n    tag_350:\n        /* \"#utility.yul\":22129:22206   */\n      0x4e487b7100000000000000000000000000000000000000000000000000000000\n        /* \"#utility.yul\":22126:22127   */\n      0x00\n        /* \"#utility.yul\":22119:22207   */\n      mstore\n        /* \"#utility.yul\":22226:22230   */\n      0x32\n        /* \"#utility.yul\":22223:22224   */\n      0x04\n        /* \"#utility.yul\":22216:22231   */\n      mstore\n        /* \"#utility.yul\":22250:22254   */\n      0x24\n        /* \"#utility.yul\":22247:22248   */\n      0x00\n        /* \"#utility.yul\":22240:22255   */\n      revert\n        /* \"#utility.yul\":22267:22410   */\n    tag_452:\n        /* \"#utility.yul\":22324:22329   */\n      0x00\n        /* \"#utility.yul\":22355:22361   */\n      dup2\n        /* \"#utility.yul\":22349:22362   */\n      mload\n        /* \"#utility.yul\":22340:22362   */\n      swap1\n      pop\n        /* \"#utility.yul\":22371:22404   */\n      tag_652\n        /* \"#utility.yul\":22398:22403   */\n      dup2\n        /* \"#utility.yul\":22371:22404   */\n      tag_409\n      jump\t// in\n    tag_652:\n        /* \"#utility.yul\":22267:22410   */\n      swap3\n      swap2\n      pop\n      pop\n      jump\t// out\n        /* \"#utility.yul\":22416:22767   */\n    tag_354:\n        /* \"#utility.yul\":22486:22492   */\n      0x00\n        /* \"#utility.yul\":22535:22537   */\n      0x20\n        /* \"#utility.yul\":22523:22532   */\n      dup3\n        /* \"#utility.yul\":22514:22521   */\n      dup5\n        /* \"#utility.yul\":22510:22533   */\n      sub\n        /* \"#utility.yul\":22506:22538   */\n      slt\n        /* \"#utility.yul\":22503:22622   */\n      iszero\n      tag_654\n      jumpi\n        /* \"#utility.yul\":22541:22620   */\n      tag_655\n      tag_405\n      jump\t// in\n    tag_655:\n        /* \"#utility.yul\":22503:22622   */\n    tag_654:\n        /* \"#utility.yul\":22661:22662   */\n      0x00\n        /* \"#utility.yul\":22686:22750   */\n      tag_656\n        /* \"#utility.yul\":22742:22749   */\n      dup5\n        /* \"#utility.yul\":22733:22739   */\n      dup3\n        /* \"#utility.yul\":22722:22731   */\n      dup6\n        /* \"#utility.yul\":22718:22740   */\n      add\n        /* \"#utility.yul\":22686:22750   */\n      tag_452\n      jump\t// in\n    tag_656:\n        /* \"#utility.yul\":22676:22750   */\n      swap2\n      pop\n        /* \"#utility.yul\":22632:22760   */\n      pop\n        /* \"#utility.yul\":22416:22767   */\n      swap3\n      swap2\n      pop\n      pop\n      jump\t// out\n        /* \"#utility.yul\":22773:22858   */\n    tag_453:\n        /* \"#utility.yul\":22818:22825   */\n      0x00\n        /* \"#utility.yul\":22847:22852   */\n      dup2\n        /* \"#utility.yul\":22836:22852   */\n      swap1\n      pop\n        /* \"#utility.yul\":22773:22858   */\n      swap2\n      swap1\n      pop\n      jump\t// out\n        /* \"#utility.yul\":22864:23022   */\n    tag_454:\n        /* \"#utility.yul\":22922:22931   */\n      0x00\n        /* \"#utility.yul\":22955:23016   */\n      tag_659\n        /* \"#utility.yul\":22973:23015   */\n      tag_660\n        /* \"#utility.yul\":22982:23014   */\n      tag_661\n        /* \"#utility.yul\":23008:23013   */\n      dup5\n        /* \"#utility.yul\":22982:23014   */\n      tag_453\n      jump\t// in\n    tag_661:\n        /* \"#utility.yul\":22973:23015   */\n      tag_418\n      jump\t// in\n    tag_660:\n        /* \"#utility.yul\":22955:23016   */\n      tag_397\n      jump\t// in\n    tag_659:\n        /* \"#utility.yul\":22942:23016   */\n      swap1\n      pop\n        /* \"#utility.yul\":22864:23022   */\n      swap2\n      swap1\n      pop\n      jump\t// out\n        /* \"#utility.yul\":23028:23175   */\n    tag_455:\n        /* \"#utility.yul\":23123:23168   */\n      tag_663\n        /* \"#utility.yul\":23162:23167   */\n      dup2\n        /* \"#utility.yul\":23123:23168   */\n      tag_454\n      jump\t// in\n    tag_663:\n        /* \"#utility.yul\":23118:23121   */\n      dup3\n        /* \"#utility.yul\":23111:23169   */\n      mstore\n        /* \"#utility.yul\":23028:23175   */\n      pop\n      pop\n      jump\t// out\n        /* \"#utility.yul\":23181:23295   */\n    tag_456:\n        /* \"#utility.yul\":23248:23254   */\n      0x00\n        /* \"#utility.yul\":23282:23287   */\n      dup2\n        /* \"#utility.yul\":23276:23288   */\n      mload\n        /* \"#utility.yul\":23266:23288   */\n      swap1\n      pop\n        /* \"#utility.yul\":23181:23295   */\n      swap2\n      swap1\n      pop\n      jump\t// out\n        /* \"#utility.yul\":23301:23485   */\n    tag_457:\n        /* \"#utility.yul\":23400:23411   */\n      0x00\n        /* \"#utility.yul\":23434:23440   */\n      dup3\n        /* \"#utility.yul\":23429:23432   */\n      dup3\n        /* \"#utility.yul\":23422:23441   */\n      mstore\n        /* \"#utility.yul\":23474:23478   */\n      0x20\n        /* \"#utility.yul\":23469:23472   */\n      dup3\n        /* \"#utility.yul\":23465:23479   */\n      add\n        /* \"#utility.yul\":23450:23479   */\n      swap1\n      pop\n        /* \"#utility.yul\":23301:23485   */\n      swap3\n      swap2\n      pop\n      pop\n      jump\t// out\n        /* \"#utility.yul\":23491:23623   */\n    tag_458:\n        /* \"#utility.yul\":23558:23562   */\n      0x00\n        /* \"#utility.yul\":23581:23584   */\n      dup2\n        /* \"#utility.yul\":23573:23584   */\n      swap1\n      pop\n        /* \"#utility.yul\":23611:23615   */\n      0x20\n        /* \"#utility.yul\":23606:23609   */\n      dup3\n        /* \"#utility.yul\":23602:23616   */\n      add\n        /* \"#utility.yul\":23594:23616   */\n      swap1\n      pop\n        /* \"#utility.yul\":23491:23623   */\n      swap2\n      swap1\n      pop\n      jump\t// out\n        /* \"#utility.yul\":23629:23737   */\n    tag_459:\n        /* \"#utility.yul\":23706:23730   */\n      tag_668\n        /* \"#utility.yul\":23724:23729   */\n      dup2\n        /* \"#utility.yul\":23706:23730   */\n      tag_408\n      jump\t// in\n    tag_668:\n        /* \"#utility.yul\":23701:23704   */\n      dup3\n        /* \"#utility.yul\":23694:23731   */\n      mstore\n        /* \"#utility.yul\":23629:23737   */\n      pop\n      pop\n      jump\t// out\n        /* \"#utility.yul\":23743:23922   */\n    tag_460:\n        /* \"#utility.yul\":23812:23822   */\n      0x00\n        /* \"#utility.yul\":23833:23879   */\n      tag_670\n        /* \"#utility.yul\":23875:23878   */\n      dup4\n        /* \"#utility.yul\":23867:23873   */\n      dup4\n        /* \"#utility.yul\":23833:23879   */\n      tag_459\n      jump\t// in\n    tag_670:\n        /* \"#utility.yul\":23911:23915   */\n      0x20\n        /* \"#utility.yul\":23906:23909   */\n      dup4\n        /* \"#utility.yul\":23902:23916   */\n      add\n        /* \"#utility.yul\":23888:23916   */\n      swap1\n      pop\n        /* \"#utility.yul\":23743:23922   */\n      swap3\n      swap2\n      pop\n      pop\n      jump\t// out\n        /* \"#utility.yul\":23928:24041   */\n    tag_461:\n        /* \"#utility.yul\":23998:24002   */\n      0x00\n        /* \"#utility.yul\":24030:24034   */\n      0x20\n        /* \"#utility.yul\":24025:24028   */\n      dup3\n        /* \"#utility.yul\":24021:24035   */\n      add\n        /* \"#utility.yul\":24013:24035   */\n      swap1\n      pop\n        /* \"#utility.yul\":23928:24041   */\n      swap2\n      swap1\n      pop\n      jump\t// out\n        /* \"#utility.yul\":24077:24809   */\n    tag_462:\n        /* \"#utility.yul\":24196:24199   */\n      0x00\n        /* \"#utility.yul\":24225:24279   */\n      tag_673\n        /* \"#utility.yul\":24273:24278   */\n      dup3\n        /* \"#utility.yul\":24225:24279   */\n      tag_456\n      jump\t// in\n    tag_673:\n        /* \"#utility.yul\":24295:24381   */\n      tag_674\n        /* \"#utility.yul\":24374:24380   */\n      dup2\n        /* \"#utility.yul\":24369:24372   */\n      dup6\n        /* \"#utility.yul\":24295:24381   */\n      tag_457\n      jump\t// in\n    tag_674:\n        /* \"#utility.yul\":24288:24381   */\n      swap4\n      pop\n        /* \"#utility.yul\":24405:24461   */\n      tag_675\n        /* \"#utility.yul\":24455:24460   */\n      dup4\n        /* \"#utility.yul\":24405:24461   */\n      tag_458\n      jump\t// in\n    tag_675:\n        /* \"#utility.yul\":24484:24491   */\n      dup1\n        /* \"#utility.yul\":24515:24516   */\n      0x00\n        /* \"#utility.yul\":24500:24784   */\n    tag_676:\n        /* \"#utility.yul\":24525:24531   */\n      dup4\n        /* \"#utility.yul\":24522:24523   */\n      dup2\n        /* \"#utility.yul\":24519:24532   */\n      lt\n        /* \"#utility.yul\":24500:24784   */\n      iszero\n      tag_678\n      jumpi\n        /* \"#utility.yul\":24601:24607   */\n      dup2\n        /* \"#utility.yul\":24595:24608   */\n      mload\n        /* \"#utility.yul\":24628:24691   */\n      tag_679\n        /* \"#utility.yul\":24687:24690   */\n      dup9\n        /* \"#utility.yul\":24672:24685   */\n      dup3\n        /* \"#utility.yul\":24628:24691   */\n      tag_460\n      jump\t// in\n    tag_679:\n        /* \"#utility.yul\":24621:24691   */\n      swap8\n      pop\n        /* \"#utility.yul\":24714:24774   */\n      tag_680\n        /* \"#utility.yul\":24767:24773   */\n      dup4\n        /* \"#utility.yul\":24714:24774   */\n      tag_461\n      jump\t// in\n    tag_680:\n        /* \"#utility.yul\":24704:24774   */\n      swap3\n      pop\n        /* \"#utility.yul\":24560:24784   */\n      pop\n        /* \"#utility.yul\":24547:24548   */\n      0x01\n        /* \"#utility.yul\":24544:24545   */\n      dup2\n        /* \"#utility.yul\":24540:24549   */\n      add\n        /* \"#utility.yul\":24535:24549   */\n      swap1\n      pop\n        /* \"#utility.yul\":24500:24784   */\n      jump(tag_676)\n    tag_678:\n        /* \"#utility.yul\":24504:24518   */\n      pop\n        /* \"#utility.yul\":24800:24803   */\n      dup6\n        /* \"#utility.yul\":24793:24803   */\n      swap4\n      pop\n        /* \"#utility.yul\":24201:24809   */\n      pop\n      pop\n      pop\n        /* \"#utility.yul\":24077:24809   */\n      swap3\n      swap2\n      pop\n      pop\n      jump\t// out\n        /* \"#utility.yul\":24815:25646   */\n    tag_359:\n        /* \"#utility.yul\":25078:25082   */\n      0x00\n        /* \"#utility.yul\":25116:25119   */\n      0xa0\n        /* \"#utility.yul\":25105:25114   */\n      dup3\n        /* \"#utility.yul\":25101:25120   */\n      add\n        /* \"#utility.yul\":25093:25120   */\n      swap1\n      pop\n        /* \"#utility.yul\":25130:25201   */\n      tag_682\n        /* \"#utility.yul\":25198:25199   */\n      0x00\n        /* \"#utility.yul\":25187:25196   */\n      dup4\n        /* \"#utility.yul\":25183:25200   */\n      add\n        /* \"#utility.yul\":25174:25180   */\n      dup9\n        /* \"#utility.yul\":25130:25201   */\n      tag_398\n      jump\t// in\n    tag_682:\n        /* \"#utility.yul\":25211:25291   */\n      tag_683\n        /* \"#utility.yul\":25287:25289   */\n      0x20\n        /* \"#utility.yul\":25276:25285   */\n      dup4\n        /* \"#utility.yul\":25272:25290   */\n      add\n        /* \"#utility.yul\":25263:25269   */\n      dup8\n        /* \"#utility.yul\":25211:25291   */\n      tag_455\n      jump\t// in\n    tag_683:\n        /* \"#utility.yul\":25338:25347   */\n      dup2\n        /* \"#utility.yul\":25332:25336   */\n      dup2\n        /* \"#utility.yul\":25328:25348   */\n      sub\n        /* \"#utility.yul\":25323:25325   */\n      0x40\n        /* \"#utility.yul\":25312:25321   */\n      dup4\n        /* \"#utility.yul\":25308:25326   */\n      add\n        /* \"#utility.yul\":25301:25349   */\n      mstore\n        /* \"#utility.yul\":25366:25474   */\n      tag_684\n        /* \"#utility.yul\":25469:25473   */\n      dup2\n        /* \"#utility.yul\":25460:25466   */\n      dup7\n        /* \"#utility.yul\":25366:25474   */\n      tag_462\n      jump\t// in\n    tag_684:\n        /* \"#utility.yul\":25358:25474   */\n      swap1\n      pop\n        /* \"#utility.yul\":25484:25556   */\n      tag_685\n        /* \"#utility.yul\":25552:25554   */\n      0x60\n        /* \"#utility.yul\":25541:25550   */\n      dup4\n        /* \"#utility.yul\":25537:25555   */\n      add\n        /* \"#utility.yul\":25528:25534   */\n      dup6\n        /* \"#utility.yul\":25484:25556   */\n      tag_417\n      jump\t// in\n    tag_685:\n        /* \"#utility.yul\":25566:25639   */\n      tag_686\n        /* \"#utility.yul\":25634:25637   */\n      0x80\n        /* \"#utility.yul\":25623:25632   */\n      dup4\n        /* \"#utility.yul\":25619:25638   */\n      add\n        /* \"#utility.yul\":25610:25616   */\n      dup5\n        /* \"#utility.yul\":25566:25639   */\n      tag_398\n      jump\t// in\n    tag_686:\n        /* \"#utility.yul\":24815:25646   */\n      swap7\n      swap6\n      pop\n      pop\n      pop\n      pop\n      pop\n      pop\n      jump\t// out\n        /* \"#utility.yul\":25652:25799   */\n    tag_463:\n        /* \"#utility.yul\":25753:25764   */\n      0x00\n        /* \"#utility.yul\":25790:25793   */\n      dup2\n        /* \"#utility.yul\":25775:25793   */\n      swap1\n      pop\n        /* \"#utility.yul\":25652:25799   */\n      swap3\n      swap2\n      pop\n      pop\n      jump\t// out\n        /* \"#utility.yul\":25805:25919   */\n    tag_464:\n      pop\n      jump\t// out\n        /* \"#utility.yul\":25925:26323   */\n    tag_465:\n        /* \"#utility.yul\":26084:26087   */\n      0x00\n        /* \"#utility.yul\":26105:26188   */\n      tag_690\n        /* \"#utility.yul\":26186:26187   */\n      0x00\n        /* \"#utility.yul\":26181:26184   */\n      dup4\n        /* \"#utility.yul\":26105:26188   */\n      tag_463\n      jump\t// in\n    tag_690:\n        /* \"#utility.yul\":26098:26188   */\n      swap2\n      pop\n        /* \"#utility.yul\":26197:26290   */\n      tag_691\n        /* \"#utility.yul\":26286:26289   */\n      dup3\n        /* \"#utility.yul\":26197:26290   */\n      tag_464\n      jump\t// in\n    tag_691:\n        /* \"#utility.yul\":26315:26316   */\n      0x00\n        /* \"#utility.yul\":26310:26313   */\n      dup3\n        /* \"#utility.yul\":26306:26317   */\n      add\n        /* \"#utility.yul\":26299:26317   */\n      swap1\n      pop\n        /* \"#utility.yul\":25925:26323   */\n      swap2\n      swap1\n      pop\n      jump\t// out\n        /* \"#utility.yul\":26329:26708   */\n    tag_369:\n        /* \"#utility.yul\":26513:26516   */\n      0x00\n        /* \"#utility.yul\":26535:26682   */\n      tag_693\n        /* \"#utility.yul\":26678:26681   */\n      dup3\n        /* \"#utility.yul\":26535:26682   */\n      tag_465\n      jump\t// in\n    tag_693:\n        /* \"#utility.yul\":26528:26682   */\n      swap2\n      pop\n        /* \"#utility.yul\":26699:26702   */\n      dup2\n        /* \"#utility.yul\":26692:26702   */\n      swap1\n      pop\n        /* \"#utility.yul\":26329:26708   */\n      swap2\n      swap1\n      pop\n      jump\t// out\n        /* \"#utility.yul\":26714:27124   */\n    tag_386:\n        /* \"#utility.yul\":26754:26761   */\n      0x00\n        /* \"#utility.yul\":26777:26797   */\n      tag_695\n        /* \"#utility.yul\":26795:26796   */\n      dup3\n        /* \"#utility.yul\":26777:26797   */\n      tag_397\n      jump\t// in\n    tag_695:\n        /* \"#utility.yul\":26772:26797   */\n      swap2\n      pop\n        /* \"#utility.yul\":26811:26831   */\n      tag_696\n        /* \"#utility.yul\":26829:26830   */\n      dup4\n        /* \"#utility.yul\":26811:26831   */\n      tag_397\n      jump\t// in\n    tag_696:\n        /* \"#utility.yul\":26806:26831   */\n      swap3\n      pop\n        /* \"#utility.yul\":26866:26867   */\n      dup3\n        /* \"#utility.yul\":26863:26864   */\n      dup3\n        /* \"#utility.yul\":26859:26868   */\n      mul\n        /* \"#utility.yul\":26888:26918   */\n      tag_697\n        /* \"#utility.yul\":26906:26917   */\n      dup2\n        /* \"#utility.yul\":26888:26918   */\n      tag_397\n      jump\t// in\n    tag_697:\n        /* \"#utility.yul\":26877:26918   */\n      swap2\n      pop\n        /* \"#utility.yul\":27067:27068   */\n      dup3\n        /* \"#utility.yul\":27058:27065   */\n      dup3\n        /* \"#utility.yul\":27054:27069   */\n      div\n        /* \"#utility.yul\":27051:27052   */\n      dup5\n        /* \"#utility.yul\":27048:27070   */\n      eq\n        /* \"#utility.yul\":27028:27029   */\n      dup4\n        /* \"#utility.yul\":27021:27030   */\n      iszero\n        /* \"#utility.yul\":27001:27084   */\n      or\n        /* \"#utility.yul\":26978:27117   */\n      tag_698\n      jumpi\n        /* \"#utility.yul\":27097:27115   */\n      tag_699\n      tag_423\n      jump\t// in\n    tag_699:\n        /* \"#utility.yul\":26978:27117   */\n    tag_698:\n        /* \"#utility.yul\":26762:27124   */\n      pop\n        /* \"#utility.yul\":26714:27124   */\n      swap3\n      swap2\n      pop\n      pop\n      jump\t// out\n        /* \"#utility.yul\":27130:27310   */\n    tag_466:\n        /* \"#utility.yul\":27178:27255   */\n      0x4e487b7100000000000000000000000000000000000000000000000000000000\n        /* \"#utility.yul\":27175:27176   */\n      0x00\n        /* \"#utility.yul\":27168:27256   */\n      mstore\n        /* \"#utility.yul\":27275:27279   */\n      0x12\n        /* \"#utility.yul\":27272:27273   */\n      0x04\n        /* \"#utility.yul\":27265:27280   */\n      mstore\n        /* \"#utility.yul\":27299:27303   */\n      0x24\n        /* \"#utility.yul\":27296:27297   */\n      0x00\n        /* \"#utility.yul\":27289:27304   */\n      revert\n        /* \"#utility.yul\":27316:27501   */\n    tag_388:\n        /* \"#utility.yul\":27356:27357   */\n      0x00\n        /* \"#utility.yul\":27373:27393   */\n      tag_702\n        /* \"#utility.yul\":27391:27392   */\n      dup3\n        /* \"#utility.yul\":27373:27393   */\n      tag_397\n      jump\t// in\n    tag_702:\n        /* \"#utility.yul\":27368:27393   */\n      swap2\n      pop\n        /* \"#utility.yul\":27407:27427   */\n      tag_703\n        /* \"#utility.yul\":27425:27426   */\n      dup4\n        /* \"#utility.yul\":27407:27427   */\n      tag_397\n      jump\t// in\n    tag_703:\n        /* \"#utility.yul\":27402:27427   */\n      swap3\n      pop\n        /* \"#utility.yul\":27446:27447   */\n      dup3\n        /* \"#utility.yul\":27436:27471   */\n      tag_704\n      jumpi\n        /* \"#utility.yul\":27451:27469   */\n      tag_705\n      tag_466\n      jump\t// in\n    tag_705:\n        /* \"#utility.yul\":27436:27471   */\n    tag_704:\n        /* \"#utility.yul\":27493:27494   */\n      dup3\n        /* \"#utility.yul\":27490:27491   */\n      dup3\n        /* \"#utility.yul\":27486:27495   */\n      div\n        /* \"#utility.yul\":27481:27495   */\n      swap1\n      pop\n        /* \"#utility.yul\":27316:27501   */\n      swap3\n      swap2\n      pop\n      pop\n      jump\t// out\n\n    auxdata: 0xa26469706673582212208936f44df532cd2779baac527f84f3a3481e8dacc09ee58986a2c54cc703965264736f6c63430008130033\n}\n",
				"bytecode": {
					"linkReferences": {},
					"object": "60806040526000600760006101000a81548160ff02191690831515021790555061138860085560026009556014600a55605a600b557316626afb636ca096963420c09e28add5c3a1ebc5600f60006101000a81548173ffffffffffffffffffffffffffffffffffffffff021916908373ffffffffffffffffffffffffffffffffffffffff1602179055503480156200009657600080fd5b50620000b7620000ab620007c660201b60201c565b620007ce60201b60201c565b60006004600061dead73ffffffffffffffffffffffffffffffffffffffff1673ffffffffffffffffffffffffffffffffffffffff168152602001908152602001600020546aa56fa5b99019a5c800000062000113919062000a35565b905060c88162000124919062000a9f565b600d8190555060c88162000139919062000a9f565b600e819055506001600260003373ffffffffffffffffffffffffffffffffffffffff1673ffffffffffffffffffffffffffffffffffffffff16815260200190815260200160002060006101000a81548160ff0219169083151502179055506001600260003073ffffffffffffffffffffffffffffffffffffffff1673ffffffffffffffffffffffffffffffffffffffff16815260200190815260200160002060006101000a81548160ff021916908315150217905550600160026000600f60009054906101000a900473ffffffffffffffffffffffffffffffffffffffff1673ffffffffffffffffffffffffffffffffffffffff1673ffffffffffffffffffffffffffffffffffffffff16815260200190815260200160002060006101000a81548160ff02191690831515021790555060016002600061dead73ffffffffffffffffffffffffffffffffffffffff1673ffffffffffffffffffffffffffffffffffffffff16815260200190815260200160002060006101000a81548160ff021916908315150217905550600160066000736b75d8af000000e20b7a7ddf000ba900b4009a8073ffffffffffffffffffffffffffffffffffffffff1673ffffffffffffffffffffffffffffffffffffffff16815260200190815260200160002060006101000a81548160ff02191690831515021790555060016006600073ae2fc483527b8ef99eb5d9b44875f005ba1fae1373ffffffffffffffffffffffffffffffffffffffff1673ffffffffffffffffffffffffffffffffffffffff16815260200190815260200160002060006101000a81548160ff021916908315150217905550737a250d5630b4cf539739df2c5dacb4c659f2488d601060006101000a81548173ffffffffffffffffffffffffffffffffffffffff021916908373ffffffffffffffffffffffffffffffffffffffff1602179055506aa56fa5b99019a5c8000000600460003373ffffffffffffffffffffffffffffffffffffffff1673ffffffffffffffffffffffffffffffffffffffff168152602001908152602001600020819055503373ffffffffffffffffffffffffffffffffffffffff16600073ffffffffffffffffffffffffffffffffffffffff167fddf252ad1be2c89b69c2b068fc378daa952ba7f163c4a11628f55a4df523b3ef6aa56fa5b99019a5c8000000604051620004aa919062000ae8565b60405180910390a3601060009054906101000a900473ffffffffffffffffffffffffffffffffffffffff1673ffffffffffffffffffffffffffffffffffffffff1663c45a01556040518163ffffffff1660e01b8152600401602060405180830381865afa15801562000520573d6000803e3d6000fd5b505050506040513d601f19601f8201168201806040525081019062000546919062000b6f565b73ffffffffffffffffffffffffffffffffffffffff1663c9c65396601060009054906101000a900473ffffffffffffffffffffffffffffffffffffffff1673ffffffffffffffffffffffffffffffffffffffff1663ad5c46486040518163ffffffff1660e01b8152600401602060405180830381865afa158015620005cf573d6000803e3d6000fd5b505050506040513d601f19601f82011682018060405250810190620005f5919062000b6f565b306040518363ffffffff1660e01b81526004016200061592919062000bb2565b6020604051808303816000875af115801562000635573d6000803e3d6000fd5b505050506040513d601f19601f820116820180604052508101906200065b919062000b6f565b601160006101000a81548173ffffffffffffffffffffffffffffffffffffffff021916908373ffffffffffffffffffffffffffffffffffffffff160217905550600160036000601160009054906101000a900473ffffffffffffffffffffffffffffffffffffffff1673ffffffffffffffffffffffffffffffffffffffff1673ffffffffffffffffffffffffffffffffffffffff16815260200190815260200160002060006101000a81548160ff0219169083151502179055506200076a33601060009054906101000a900473ffffffffffffffffffffffffffffffffffffffff167fffffffffffffffffffffffffffffffffffffffffffffffffffffffffffffffff6200089260201b60201c565b620007bf30601060009054906101000a900473ffffffffffffffffffffffffffffffffffffffff167fffffffffffffffffffffffffffffffffffffffffffffffffffffffffffffffff6200089260201b60201c565b5062000c62565b600033905090565b60008060009054906101000a900473ffffffffffffffffffffffffffffffffffffffff169050816000806101000a81548173ffffffffffffffffffffffffffffffffffffffff021916908373ffffffffffffffffffffffffffffffffffffffff1602179055508173ffffffffffffffffffffffffffffffffffffffff168173ffffffffffffffffffffffffffffffffffffffff167f8be0079c531659141344cd1fd0a4f28419497f9722a3daafe3b4186f6b6457e060405160405180910390a35050565b600073ffffffffffffffffffffffffffffffffffffffff168373ffffffffffffffffffffffffffffffffffffffff160362000904576040517f08c379a0000000000000000000000000000000000000000000000000000000008152600401620008fb9062000c40565b60405180910390fd5b600073ffffffffffffffffffffffffffffffffffffffff168273ffffffffffffffffffffffffffffffffffffffff160362000976576040517f08c379a00000000000000000000000000000000000000000000000000000000081526004016200096d9062000c40565b60405180910390fd5b80600160008573ffffffffffffffffffffffffffffffffffffffff1673ffffffffffffffffffffffffffffffffffffffff16815260200190815260200160002060008473ffffffffffffffffffffffffffffffffffffffff1673ffffffffffffffffffffffffffffffffffffffff16815260200190815260200160002081905550505050565b6000819050919050565b7f4e487b7100000000000000000000000000000000000000000000000000000000600052601160045260246000fd5b600062000a4282620009fc565b915062000a4f83620009fc565b925082820390508181111562000a6a5762000a6962000a06565b5b92915050565b7f4e487b7100000000000000000000000000000000000000000000000000000000600052601260045260246000fd5b600062000aac82620009fc565b915062000ab983620009fc565b92508262000acc5762000acb62000a70565b5b828204905092915050565b62000ae281620009fc565b82525050565b600060208201905062000aff600083018462000ad7565b92915050565b600080fd5b600073ffffffffffffffffffffffffffffffffffffffff82169050919050565b600062000b378262000b0a565b9050919050565b62000b498162000b2a565b811462000b5557600080fd5b50565b60008151905062000b698162000b3e565b92915050565b60006020828403121562000b885762000b8762000b05565b5b600062000b988482850162000b58565b91505092915050565b62000bac8162000b2a565b82525050565b600060408201905062000bc9600083018562000ba1565b62000bd8602083018462000ba1565b9392505050565b600082825260208201905092915050565b7f45524332303a205a65726f204164647265737300000000000000000000000000600082015250565b600062000c2860138362000bdf565b915062000c358262000bf0565b602082019050919050565b6000602082019050818103600083015262000c5b8162000c19565b9050919050565b61343a8062000c726000396000f3fe6080604052600436106101fd5760003560e01c8063893d20e81161010d578063c226de76116100a0578063ce004a071161006f578063ce004a0714610734578063dc9d75b01461075d578063dd62ed3e14610788578063e9451f5f146107c5578063f2fde38b146107f057610204565b8063c226de7614610664578063c2e4ef79146106a1578063c31c9c07146106de578063c876d0b91461070957610204565b8063a01c3483116100dc578063a01c3483146105a8578063a07d38dc146105d3578063a2747da2146105fe578063a9059cbb1461062757610204565b8063893d20e8146104fc5780638da5cb5b146105275780638f9a55c01461055257806395d89b411461057d57610204565b8063313ce56711610190578063694e80c31161015f578063694e80c31461042b57806370a0823114610454578063715018a614610491578063771af866146104a85780637d1db4a5146104d157610204565b8063313ce56714610395578063452ed4f1146103c05780634c1b4031146103eb57806351bc3c851461041457610204565b806323b872dd116101cc57806323b872dd146102c757806327889862146103045780632b112e491461034157806330db2c121461036c57610204565b80630445b6671461020957806306fdde0314610234578063095ea7b31461025f57806318160ddd1461029c57610204565b3661020457005b600080fd5b34801561021557600080fd5b5061021e610819565b60405161022b9190612606565b60405180910390f35b34801561024057600080fd5b5061024961081f565b60405161025691906126b1565b60405180910390f35b34801561026b57600080fd5b5061028660048036038101906102819190612762565b61085c565b60405161029391906127bd565b60405180910390f35b3480156102a857600080fd5b506102b1610873565b6040516102be9190612606565b60405180910390f35b3480156102d357600080fd5b506102ee60048036038101906102e991906127d8565b61089d565b6040516102fb91906127bd565b60405180910390f35b34801561031057600080fd5b5061032b6004803603810190610326919061282b565b6109ea565b60405161033891906127bd565b60405180910390f35b34801561034d57600080fd5b50610356610a40565b6040516103639190612606565b60405180910390f35b34801561037857600080fd5b50610393600480360381019061038e9190612858565b610a9f565b005b3480156103a157600080fd5b506103aa610b7d565b6040516103b791906128a1565b60405180910390f35b3480156103cc57600080fd5b506103d5610b9d565b6040516103e291906128cb565b60405180910390f35b3480156103f757600080fd5b50610412600480360381019061040d919061282b565b610bc3565b005b34801561042057600080fd5b50610429610cae565b005b34801561043757600080fd5b50610452600480360381019061044d9190612858565b610d32565b005b34801561046057600080fd5b5061047b6004803603810190610476919061282b565b610e49565b6040516104889190612606565b60405180910390f35b34801561049d57600080fd5b506104a6610e92565b005b3480156104b457600080fd5b506104cf60048036038101906104ca919061282b565b610f1a565b005b3480156104dd57600080fd5b506104e6611005565b6040516104f39190612606565b60405180910390f35b34801561050857600080fd5b5061051161100b565b60405161051e91906128cb565b60405180910390f35b34801561053357600080fd5b5061053c61101a565b60405161054991906128cb565b60405180910390f35b34801561055e57600080fd5b50610567611043565b6040516105749190612606565b60405180910390f35b34801561058957600080fd5b50610592611049565b60405161059f91906126b1565b60405180910390f35b3480156105b457600080fd5b506105bd611086565b6040516105ca91906128cb565b60405180910390f35b3480156105df57600080fd5b506105e861108c565b6040516105f59190612606565b60405180910390f35b34801561060a57600080fd5b506106256004803603810190610620919061282b565b611092565b005b34801561063357600080fd5b5061064e60048036038101906106499190612762565b6111ec565b60405161065b91906127bd565b60405180910390f35b34801561067057600080fd5b5061068b6004803603810190610686919061282b565b611204565b60405161069891906127bd565b60405180910390f35b3480156106ad57600080fd5b506106c860048036038101906106c3919061282b565b61125a565b6040516106d591906127bd565b60405180910390f35b3480156106ea57600080fd5b506106f36112b0565b6040516107009190612945565b60405180910390f35b34801561071557600080fd5b5061071e6112d6565b60405161072b91906127bd565b60405180910390f35b34801561074057600080fd5b5061075b6004803603810190610756919061282b565b6112e9565b005b34801561076957600080fd5b50610772611443565b60405161077f9190612606565b60405180910390f35b34801561079457600080fd5b506107af60048036038101906107aa9190612960565b611448565b6040516107bc9190612606565b60405180910390f35b3480156107d157600080fd5b506107da6114cf565b6040516107e79190612606565b60405180910390f35b3480156107fc57600080fd5b506108176004803603810190610812919061282b565b6114d5565b005b60085481565b60606040518060400160405280600881526020017f4f6e6520416e6f6e000000000000000000000000000000000000000000000000815250905090565b60006108693384846115cc565b6001905092915050565b6000806aa56fa5b99019a5c80000000361088c57600080fd5b6aa56fa5b99019a5c8000000905090565b60007fffffffffffffffffffffffffffffffffffffffffffffffffffffffffffffffff600160008673ffffffffffffffffffffffffffffffffffffffff1673ffffffffffffffffffffffffffffffffffffffff16815260200190815260200160002060003373ffffffffffffffffffffffffffffffffffffffff1673ffffffffffffffffffffffffffffffffffffffff16815260200190815260200160002054146109d65781600160008673ffffffffffffffffffffffffffffffffffffffff1673ffffffffffffffffffffffffffffffffffffffff16815260200190815260200160002060003373ffffffffffffffffffffffffffffffffffffffff1673ffffffffffffffffffffffffffffffffffffffff16815260200190815260200160002060008282546109ce91906129cf565b925050819055505b6109e1848484611730565b90509392505050565b6000600260008373ffffffffffffffffffffffffffffffffffffffff1673ffffffffffffffffffffffffffffffffffffffff16815260200190815260200160002060009054906101000a900460ff169050919050565b60006004600061dead73ffffffffffffffffffffffffffffffffffffffff1673ffffffffffffffffffffffffffffffffffffffff168152602001908152602001600020546aa56fa5b99019a5c8000000610a9a91906129cf565b905090565b600f60009054906101000a900473ffffffffffffffffffffffffffffffffffffffff1673ffffffffffffffffffffffffffffffffffffffff163373ffffffffffffffffffffffffffffffffffffffff1614610b2f576040517f08c379a0000000000000000000000000000000000000000000000000000000008152600401610b2690612a75565b60405180910390fd5b6064811115610b73576040517f08c379a0000000000000000000000000000000000000000000000000000000008152600401610b6a90612ae1565b60405180910390fd5b80600b8190555050565b6000806aa56fa5b99019a5c800000003610b9657600080fd5b6012905090565b601160009054906101000a900473ffffffffffffffffffffffffffffffffffffffff1681565b600f60009054906101000a900473ffffffffffffffffffffffffffffffffffffffff1673ffffffffffffffffffffffffffffffffffffffff163373ffffffffffffffffffffffffffffffffffffffff1614610c53576040517f08c379a0000000000000000000000000000000000000000000000000000000008152600401610c4a90612b73565b60405180910390fd5b6000600260008373ffffffffffffffffffffffffffffffffffffffff1673ffffffffffffffffffffffffffffffffffffffff16815260200190815260200160002060006101000a81548160ff02191690831515021790555050565b600f60009054906101000a900473ffffffffffffffffffffffffffffffffffffffff1673ffffffffffffffffffffffffffffffffffffffff16610cef611e96565b73ffffffffffffffffffffffffffffffffffffffff1614610d0f57600080fd5b6000610d1a30610e49565b90506008548110610d2f57610d2e81611e9e565b5b50565b600f60009054906101000a900473ffffffffffffffffffffffffffffffffffffffff1673ffffffffffffffffffffffffffffffffffffffff163373ffffffffffffffffffffffffffffffffffffffff1614610dc2576040517f08c379a0000000000000000000000000000000000000000000000000000000008152600401610db990612b73565b60405180910390fd5b6064811015610e06576040517f08c379a0000000000000000000000000000000000000000000000000000000008152600401610dfd90612bdf565b60405180910390fd5b806008819055507f2b7ce9cd4278161eef9245955c9a851618488a07e830194c60a88f0224ad3cc0600854604051610e3e9190612606565b60405180910390a150565b6000600460008373ffffffffffffffffffffffffffffffffffffffff1673ffffffffffffffffffffffffffffffffffffffff168152602001908152602001600020549050919050565b610e9a611e96565b73ffffffffffffffffffffffffffffffffffffffff16610eb861101a565b73ffffffffffffffffffffffffffffffffffffffff1614610f0e576040517f08c379a0000000000000000000000000000000000000000000000000000000008152600401610f0590612c4b565b60405180910390fd5b610f186000612311565b565b600f60009054906101000a900473ffffffffffffffffffffffffffffffffffffffff1673ffffffffffffffffffffffffffffffffffffffff163373ffffffffffffffffffffffffffffffffffffffff1614610faa576040517f08c379a0000000000000000000000000000000000000000000000000000000008152600401610fa190612b73565b60405180910390fd5b6000600660008373ffffffffffffffffffffffffffffffffffffffff1673ffffffffffffffffffffffffffffffffffffffff16815260200190815260200160002060006101000a81548160ff02191690831515021790555050565b600d5481565b600061101561101a565b905090565b60008060009054906101000a900473ffffffffffffffffffffffffffffffffffffffff16905090565b600e5481565b60606040518060400160405280600481526020017f244f415400000000000000000000000000000000000000000000000000000000815250905090565b61dead81565b600a5481565b600f60009054906101000a900473ffffffffffffffffffffffffffffffffffffffff1673ffffffffffffffffffffffffffffffffffffffff163373ffffffffffffffffffffffffffffffffffffffff1614611122576040517f08c379a000000000000000000000000000000000000000000000000000000000815260040161111990612b73565b60405180910390fd5b600073ffffffffffffffffffffffffffffffffffffffff168173ffffffffffffffffffffffffffffffffffffffff1603611191576040517f08c379a000000000000000000000000000000000000000000000000000000000815260040161118890612cb7565b60405180910390fd5b6001600660008373ffffffffffffffffffffffffffffffffffffffff1673ffffffffffffffffffffffffffffffffffffffff16815260200190815260200160002060006101000a81548160ff02191690831515021790555050565b60006111f9338484611730565b506001905092915050565b6000600260008373ffffffffffffffffffffffffffffffffffffffff1673ffffffffffffffffffffffffffffffffffffffff16815260200190815260200160002060009054906101000a900460ff169050919050565b6000600660008373ffffffffffffffffffffffffffffffffffffffff1673ffffffffffffffffffffffffffffffffffffffff16815260200190815260200160002060009054906101000a900460ff169050919050565b601060009054906101000a900473ffffffffffffffffffffffffffffffffffffffff1681565b600760009054906101000a900460ff1681565b600f60009054906101000a900473ffffffffffffffffffffffffffffffffffffffff1673ffffffffffffffffffffffffffffffffffffffff163373ffffffffffffffffffffffffffffffffffffffff1614611379576040517f08c379a000000000000000000000000000000000000000000000000000000000815260040161137090612b73565b60405180910390fd5b600073ffffffffffffffffffffffffffffffffffffffff168173ffffffffffffffffffffffffffffffffffffffff16036113e8576040517f08c379a00000000000000000000000000000000000000000000000000000000081526004016113df90612cb7565b60405180910390fd5b6001600260008373ffffffffffffffffffffffffffffffffffffffff1673ffffffffffffffffffffffffffffffffffffffff16815260200190815260200160002060006101000a81548160ff02191690831515021790555050565b606481565b6000600160008473ffffffffffffffffffffffffffffffffffffffff1673ffffffffffffffffffffffffffffffffffffffff16815260200190815260200160002060008373ffffffffffffffffffffffffffffffffffffffff1673ffffffffffffffffffffffffffffffffffffffff16815260200190815260200160002054905092915050565b60095481565b6114dd611e96565b73ffffffffffffffffffffffffffffffffffffffff166114fb61101a565b73ffffffffffffffffffffffffffffffffffffffff1614611551576040517f08c379a000000000000000000000000000000000000000000000000000000000815260040161154890612c4b565b60405180910390fd5b600073ffffffffffffffffffffffffffffffffffffffff168173ffffffffffffffffffffffffffffffffffffffff16036115c0576040517f08c379a00000000000000000000000000000000000000000000000000000000081526004016115b790612d49565b60405180910390fd5b6115c981612311565b50565b600073ffffffffffffffffffffffffffffffffffffffff168373ffffffffffffffffffffffffffffffffffffffff160361163b576040517f08c379a000000000000000000000000000000000000000000000000000000000815260040161163290612db5565b60405180910390fd5b600073ffffffffffffffffffffffffffffffffffffffff168273ffffffffffffffffffffffffffffffffffffffff16036116aa576040517f08c379a00000000000000000000000000000000000000000000000000000000081526004016116a190612db5565b60405180910390fd5b80600160008573ffffffffffffffffffffffffffffffffffffffff1673ffffffffffffffffffffffffffffffffffffffff16815260200190815260200160002060008473ffffffffffffffffffffffffffffffffffffffff1673ffffffffffffffffffffffffffffffffffffffff16815260200190815260200160002081905550505050565b60008060019050600073ffffffffffffffffffffffffffffffffffffffff168473ffffffffffffffffffffffffffffffffffffffff16036117a6576040517f08c379a000000000000000000000000000000000000000000000000000000000815260040161179d90612e47565b60405180910390fd5b600073ffffffffffffffffffffffffffffffffffffffff168573ffffffffffffffffffffffffffffffffffffffff1603611815576040517f08c379a000000000000000000000000000000000000000000000000000000000815260040161180c90612ed9565b60405180910390fd5b60008311611858576040517f08c379a000000000000000000000000000000000000000000000000000000000815260040161184f90612f6b565b60405180910390fd5b61186061101a565b73ffffffffffffffffffffffffffffffffffffffff168573ffffffffffffffffffffffffffffffffffffffff16141580156118ce575061189e61101a565b73ffffffffffffffffffffffffffffffffffffffff168473ffffffffffffffffffffffffffffffffffffffff1614155b15611e8a57600760009054906101000a900460ff1615611a6057601060009054906101000a900473ffffffffffffffffffffffffffffffffffffffff1673ffffffffffffffffffffffffffffffffffffffff168473ffffffffffffffffffffffffffffffffffffffff16141580156119945750601160009054906101000a900473ffffffffffffffffffffffffffffffffffffffff1673ffffffffffffffffffffffffffffffffffffffff168473ffffffffffffffffffffffffffffffffffffffff1614155b15611a5f5743600560003273ffffffffffffffffffffffffffffffffffffffff1673ffffffffffffffffffffffffffffffffffffffff1681526020019081526020016000205410611a1a576040517f08c379a0000000000000000000000000000000000000000000000000000000008152600401611a1190612ffd565b60405180910390fd5b43600560003273ffffffffffffffffffffffffffffffffffffffff1673ffffffffffffffffffffffffffffffffffffffff168152602001908152602001600020819055505b5b601160009054906101000a900473ffffffffffffffffffffffffffffffffffffffff1673ffffffffffffffffffffffffffffffffffffffff168573ffffffffffffffffffffffffffffffffffffffff16148015611b0b5750601060009054906101000a900473ffffffffffffffffffffffffffffffffffffffff1673ffffffffffffffffffffffffffffffffffffffff168473ffffffffffffffffffffffffffffffffffffffff1614155b8015611b655750601160009054906101000a900473ffffffffffffffffffffffffffffffffffffffff1673ffffffffffffffffffffffffffffffffffffffff168473ffffffffffffffffffffffffffffffffffffffff1614155b8015611bbb5750600260008573ffffffffffffffffffffffffffffffffffffffff1673ffffffffffffffffffffffffffffffffffffffff16815260200190815260200160002060009054906101000a900460ff16155b15611c5e57600d54831115611c05576040517f08c379a0000000000000000000000000000000000000000000000000000000008152600401611bfc90613069565b60405180910390fd5b600e5483611c1286610e49565b611c1c9190613089565b1115611c5d576040517f08c379a0000000000000000000000000000000000000000000000000000000008152600401611c5490613109565b60405180910390fd5b5b611c6885856123d5565b8015611c815750601160149054906101000a900460ff16155b15611ca8576000611c9130610e49565b90506008548110611ca657611ca581611e9e565b5b505b600260008673ffffffffffffffffffffffffffffffffffffffff1673ffffffffffffffffffffffffffffffffffffffff16815260200190815260200160002060009054906101000a900460ff1680611d495750600260008573ffffffffffffffffffffffffffffffffffffffff1673ffffffffffffffffffffffffffffffffffffffff16815260200190815260200160002060009054906101000a900460ff165b15611d5357600090505b82600460008773ffffffffffffffffffffffffffffffffffffffff1673ffffffffffffffffffffffffffffffffffffffff1681526020019081526020016000206000828254611da291906129cf565b92505081905550600081611db65783611dcb565b611dca86611dc488886123d5565b86612487565b5b905080600460008773ffffffffffffffffffffffffffffffffffffffff1673ffffffffffffffffffffffffffffffffffffffff1681526020019081526020016000206000828254611e1c9190613089565b925050819055508473ffffffffffffffffffffffffffffffffffffffff168673ffffffffffffffffffffffffffffffffffffffff167fddf252ad1be2c89b69c2b068fc378daa952ba7f163c4a11628f55a4df523b3ef83604051611e809190612606565b60405180910390a3505b60019150509392505050565b600033905090565b6001601160146101000a81548160ff0219169083151502179055506000600267ffffffffffffffff811115611ed657611ed5613129565b5b604051908082528060200260200182016040528015611f045781602001602082028036833780820191505090505b5090503081600081518110611f1c57611f1b613158565b5b602002602001019073ffffffffffffffffffffffffffffffffffffffff16908173ffffffffffffffffffffffffffffffffffffffff1681525050601060009054906101000a900473ffffffffffffffffffffffffffffffffffffffff1673ffffffffffffffffffffffffffffffffffffffff1663ad5c46486040518163ffffffff1660e01b8152600401602060405180830381865afa158015611fc3573d6000803e3d6000fd5b505050506040513d601f19601f82011682018060405250810190611fe7919061319c565b81600181518110611ffb57611ffa613158565b5b602002602001019073ffffffffffffffffffffffffffffffffffffffff16908173ffffffffffffffffffffffffffffffffffffffff16815250507fffffffffffffffffffffffffffffffffffffffffffffffffffffffffffffffff600160003073ffffffffffffffffffffffffffffffffffffffff1673ffffffffffffffffffffffffffffffffffffffff1681526020019081526020016000206000601060009054906101000a900473ffffffffffffffffffffffffffffffffffffffff1673ffffffffffffffffffffffffffffffffffffffff1673ffffffffffffffffffffffffffffffffffffffff16815260200190815260200160002054146121be577fffffffffffffffffffffffffffffffffffffffffffffffffffffffffffffffff600160003073ffffffffffffffffffffffffffffffffffffffff1673ffffffffffffffffffffffffffffffffffffffff1681526020019081526020016000206000601060009054906101000a900473ffffffffffffffffffffffffffffffffffffffff1673ffffffffffffffffffffffffffffffffffffffff1673ffffffffffffffffffffffffffffffffffffffff168152602001908152602001600020819055505b601060009054906101000a900473ffffffffffffffffffffffffffffffffffffffff1673ffffffffffffffffffffffffffffffffffffffff1663791ac9478360008430426040518663ffffffff1660e01b81526004016122229594939291906132c2565b600060405180830381600087803b15801561223c57600080fd5b505af192505050801561224d575060015b61225757506122f3565b6000804711156122f057600f60009054906101000a900473ffffffffffffffffffffffffffffffffffffffff1673ffffffffffffffffffffffffffffffffffffffff16476040516122a79061334d565b60006040518083038185875af1925050503d80600081146122e4576040519150601f19603f3d011682016040523d82523d6000602084013e6122e9565b606091505b5050809150505b50505b6000601160146101000a81548160ff02191690831515021790555050565b60008060009054906101000a900473ffffffffffffffffffffffffffffffffffffffff169050816000806101000a81548173ffffffffffffffffffffffffffffffffffffffff021916908373ffffffffffffffffffffffffffffffffffffffff1602179055508173ffffffffffffffffffffffffffffffffffffffff168173ffffffffffffffffffffffffffffffffffffffff167f8be0079c531659141344cd1fd0a4f28419497f9722a3daafe3b4186f6b6457e060405160405180910390a35050565b600080600360008473ffffffffffffffffffffffffffffffffffffffff1673ffffffffffffffffffffffffffffffffffffffff16815260200190815260200160002060009054906101000a900460ff16801561247b5750600360008573ffffffffffffffffffffffffffffffffffffffff1673ffffffffffffffffffffffffffffffffffffffff16815260200190815260200160002060009054906101000a900460ff16155b90508091505092915050565b600080836124965760006124b5565b61249f8561125a565b6124b0576124ab6125c1565b6124b4565b600b545b5b9050600081036124c857829150506125ba565b6000606482856124d89190613362565b6124e291906133d3565b905060008111156125a95780600460003073ffffffffffffffffffffffffffffffffffffffff1673ffffffffffffffffffffffffffffffffffffffff168152602001908152602001600020600082825461253c9190613089565b925050819055503073ffffffffffffffffffffffffffffffffffffffff168673ffffffffffffffffffffffffffffffffffffffff167fddf252ad1be2c89b69c2b068fc378daa952ba7f163c4a11628f55a4df523b3ef836040516125a09190612606565b60405180910390a35b80846125b591906129cf565b925050505b9392505050565b600062093a80600c546125d49190613089565b42116125e457600a5490506125ea565b60095490505b90565b6000819050919050565b612600816125ed565b82525050565b600060208201905061261b60008301846125f7565b92915050565b600081519050919050565b600082825260208201905092915050565b60005b8381101561265b578082015181840152602081019050612640565b60008484015250505050565b6000601f19601f8301169050919050565b600061268382612621565b61268d818561262c565b935061269d81856020860161263d565b6126a681612667565b840191505092915050565b600060208201905081810360008301526126cb8184612678565b905092915050565b600080fd5b600073ffffffffffffffffffffffffffffffffffffffff82169050919050565b6000612703826126d8565b9050919050565b612713816126f8565b811461271e57600080fd5b50565b6000813590506127308161270a565b92915050565b61273f816125ed565b811461274a57600080fd5b50565b60008135905061275c81612736565b92915050565b60008060408385031215612779576127786126d3565b5b600061278785828601612721565b92505060206127988582860161274d565b9150509250929050565b60008115159050919050565b6127b7816127a2565b82525050565b60006020820190506127d260008301846127ae565b92915050565b6000806000606084860312156127f1576127f06126d3565b5b60006127ff86828701612721565b935050602061281086828701612721565b92505060406128218682870161274d565b9150509250925092565b600060208284031215612841576128406126d3565b5b600061284f84828501612721565b91505092915050565b60006020828403121561286e5761286d6126d3565b5b600061287c8482850161274d565b91505092915050565b600060ff82169050919050565b61289b81612885565b82525050565b60006020820190506128b66000830184612892565b92915050565b6128c5816126f8565b82525050565b60006020820190506128e060008301846128bc565b92915050565b6000819050919050565b600061290b612906612901846126d8565b6128e6565b6126d8565b9050919050565b600061291d826128f0565b9050919050565b600061292f82612912565b9050919050565b61293f81612924565b82525050565b600060208201905061295a6000830184612936565b92915050565b60008060408385031215612977576129766126d3565b5b600061298585828601612721565b925050602061299685828601612721565b9150509250929050565b7f4e487b7100000000000000000000000000000000000000000000000000000000600052601160045260246000fd5b60006129da826125ed565b91506129e5836125ed565b92508282039050818111156129fd576129fc6129a0565b5b92915050565b7f4f6e6c7920417574686f726973656420616464726573732063616e206d6f646960008201527f667920746865204a617265646665652100000000000000000000000000000000602082015250565b6000612a5f60308361262c565b9150612a6a82612a03565b604082019050919050565b60006020820190508181036000830152612a8e81612a52565b9050919050565b7f466565206d757374206265203c3d203130300000000000000000000000000000600082015250565b6000612acb60128361262c565b9150612ad682612a95565b602082019050919050565b60006020820190508181036000830152612afa81612abe565b9050919050565b7f43616c6c6572206973206e6f742074686520617574686f72697365642061646460008201527f7265737321000000000000000000000000000000000000000000000000000000602082015250565b6000612b5d60258361262c565b9150612b6882612b01565b604082019050919050565b60006020820190508181036000830152612b8c81612b50565b9050919050565b7f416d6f756e74206d757374206265203e3d203130300000000000000000000000600082015250565b6000612bc960158361262c565b9150612bd482612b93565b602082019050919050565b60006020820190508181036000830152612bf881612bbc565b9050919050565b7f4f776e61626c653a2063616c6c6572206973206e6f7420746865206f776e6572600082015250565b6000612c3560208361262c565b9150612c4082612bff565b602082019050919050565b60006020820190508181036000830152612c6481612c28565b9050919050565b7f496e76616c696420616464726573730000000000000000000000000000000000600082015250565b6000612ca1600f8361262c565b9150612cac82612c6b565b602082019050919050565b60006020820190508181036000830152612cd081612c94565b9050919050565b7f4f776e61626c653a206e6577206f776e657220697320746865207a65726f206160008201527f6464726573730000000000000000000000000000000000000000000000000000602082015250565b6000612d3360268361262c565b9150612d3e82612cd7565b604082019050919050565b60006020820190508181036000830152612d6281612d26565b9050919050565b7f45524332303a205a65726f204164647265737300000000000000000000000000600082015250565b6000612d9f60138361262c565b9150612daa82612d69565b602082019050919050565b60006020820190508181036000830152612dce81612d92565b9050919050565b7f45524332303a207472616e7366657220746f20746865207a65726f206164647260008201527f6573730000000000000000000000000000000000000000000000000000000000602082015250565b6000612e3160238361262c565b9150612e3c82612dd5565b604082019050919050565b60006020820190508181036000830152612e6081612e24565b9050919050565b7f45524332303a207472616e736665722066726f6d20746865207a65726f20616460008201527f6472657373000000000000000000000000000000000000000000000000000000602082015250565b6000612ec360258361262c565b9150612ece82612e67565b604082019050919050565b60006020820190508181036000830152612ef281612eb6565b9050919050565b7f5472616e7366657220616d6f756e74206d75737420626520677265617465722060008201527f7468616e207a65726f0000000000000000000000000000000000000000000000602082015250565b6000612f5560298361262c565b9150612f6082612ef9565b604082019050919050565b60006020820190508181036000830152612f8481612f48565b9050919050565b7f4f6e6c79206f6e65207472616e736665722070657220626c6f636b20616c6c6f60008201527f7765642e00000000000000000000000000000000000000000000000000000000602082015250565b6000612fe760248361262c565b9150612ff282612f8b565b604082019050919050565b6000602082019050818103600083015261301681612fda565b9050919050565b7f4578636565647320746865205f6d61785478416d6f756e742e00000000000000600082015250565b600061305360198361262c565b915061305e8261301d565b602082019050919050565b6000602082019050818103600083015261308281613046565b9050919050565b6000613094826125ed565b915061309f836125ed565b92508282019050808211156130b7576130b66129a0565b5b92915050565b7f4578636565647320746865206d617857616c6c657453697a652e000000000000600082015250565b60006130f3601a8361262c565b91506130fe826130bd565b602082019050919050565b60006020820190508181036000830152613122816130e6565b9050919050565b7f4e487b7100000000000000000000000000000000000000000000000000000000600052604160045260246000fd5b7f4e487b7100000000000000000000000000000000000000000000000000000000600052603260045260246000fd5b6000815190506131968161270a565b92915050565b6000602082840312156131b2576131b16126d3565b5b60006131c084828501613187565b91505092915050565b6000819050919050565b60006131ee6131e96131e4846131c9565b6128e6565b6125ed565b9050919050565b6131fe816131d3565b82525050565b600081519050919050565b600082825260208201905092915050565b6000819050602082019050919050565b613239816126f8565b82525050565b600061324b8383613230565b60208301905092915050565b6000602082019050919050565b600061326f82613204565b613279818561320f565b935061328483613220565b8060005b838110156132b557815161329c888261323f565b97506132a783613257565b925050600181019050613288565b5085935050505092915050565b600060a0820190506132d760008301886125f7565b6132e460208301876131f5565b81810360408301526132f68186613264565b905061330560608301856128bc565b61331260808301846125f7565b9695505050505050565b600081905092915050565b50565b600061333760008361331c565b915061334282613327565b600082019050919050565b60006133588261332a565b9150819050919050565b600061336d826125ed565b9150613378836125ed565b9250828202613386816125ed565b9150828204841483151761339d5761339c6129a0565b5b5092915050565b7f4e487b7100000000000000000000000000000000000000000000000000000000600052601260045260246000fd5b60006133de826125ed565b91506133e9836125ed565b9250826133f9576133f86133a4565b5b82820490509291505056fea26469706673582212208936f44df532cd2779baac527f84f3a3481e8dacc09ee58986a2c54cc703965264736f6c63430008130033",
					"opcodes": "PUSH1 0x80 PUSH1 0x40 MSTORE PUSH1 0x0 PUSH1 0x7 PUSH1 0x0 PUSH2 0x100 EXP DUP2 SLOAD DUP2 PUSH1 0xFF MUL NOT AND SWAP1 DUP4 ISZERO ISZERO MUL OR SWAP1 SSTORE POP PUSH2 0x1388 PUSH1 0x8 SSTORE PUSH1 0x2 PUSH1 0x9 SSTORE PUSH1 0x14 PUSH1 0xA SSTORE PUSH1 0x5A PUSH1 0xB SSTORE PUSH20 0x16626AFB636CA096963420C09E28ADD5C3A1EBC5 PUSH1 0xF PUSH1 0x0 PUSH2 0x100 EXP DUP2 SLOAD DUP2 PUSH20 0xFFFFFFFFFFFFFFFFFFFFFFFFFFFFFFFFFFFFFFFF MUL NOT AND SWAP1 DUP4 PUSH20 0xFFFFFFFFFFFFFFFFFFFFFFFFFFFFFFFFFFFFFFFF AND MUL OR SWAP1 SSTORE POP CALLVALUE DUP1 ISZERO PUSH3 0x96 JUMPI PUSH1 0x0 DUP1 REVERT JUMPDEST POP PUSH3 0xB7 PUSH3 0xAB PUSH3 0x7C6 PUSH1 0x20 SHL PUSH1 0x20 SHR JUMP JUMPDEST PUSH3 0x7CE PUSH1 0x20 SHL PUSH1 0x20 SHR JUMP JUMPDEST PUSH1 0x0 PUSH1 0x4 PUSH1 0x0 PUSH2 0xDEAD PUSH20 0xFFFFFFFFFFFFFFFFFFFFFFFFFFFFFFFFFFFFFFFF AND PUSH20 0xFFFFFFFFFFFFFFFFFFFFFFFFFFFFFFFFFFFFFFFF AND DUP2 MSTORE PUSH1 0x20 ADD SWAP1 DUP2 MSTORE PUSH1 0x20 ADD PUSH1 0x0 KECCAK256 SLOAD PUSH11 0xA56FA5B99019A5C8000000 PUSH3 0x113 SWAP2 SWAP1 PUSH3 0xA35 JUMP JUMPDEST SWAP1 POP PUSH1 0xC8 DUP2 PUSH3 0x124 SWAP2 SWAP1 PUSH3 0xA9F JUMP JUMPDEST PUSH1 0xD DUP2 SWAP1 SSTORE POP PUSH1 0xC8 DUP2 PUSH3 0x139 SWAP2 SWAP1 PUSH3 0xA9F JUMP JUMPDEST PUSH1 0xE DUP2 SWAP1 SSTORE POP PUSH1 0x1 PUSH1 0x2 PUSH1 0x0 CALLER PUSH20 0xFFFFFFFFFFFFFFFFFFFFFFFFFFFFFFFFFFFFFFFF AND PUSH20 0xFFFFFFFFFFFFFFFFFFFFFFFFFFFFFFFFFFFFFFFF AND DUP2 MSTORE PUSH1 0x20 ADD SWAP1 DUP2 MSTORE PUSH1 0x20 ADD PUSH1 0x0 KECCAK256 PUSH1 0x0 PUSH2 0x100 EXP DUP2 SLOAD DUP2 PUSH1 0xFF MUL NOT AND SWAP1 DUP4 ISZERO ISZERO MUL OR SWAP1 SSTORE POP PUSH1 0x1 PUSH1 0x2 PUSH1 0x0 ADDRESS PUSH20 0xFFFFFFFFFFFFFFFFFFFFFFFFFFFFFFFFFFFFFFFF AND PUSH20 0xFFFFFFFFFFFFFFFFFFFFFFFFFFFFFFFFFFFFFFFF AND DUP2 MSTORE PUSH1 0x20 ADD SWAP1 DUP2 MSTORE PUSH1 0x20 ADD PUSH1 0x0 KECCAK256 PUSH1 0x0 PUSH2 0x100 EXP DUP2 SLOAD DUP2 PUSH1 0xFF MUL NOT AND SWAP1 DUP4 ISZERO ISZERO MUL OR SWAP1 SSTORE POP PUSH1 0x1 PUSH1 0x2 PUSH1 0x0 PUSH1 0xF PUSH1 0x0 SWAP1 SLOAD SWAP1 PUSH2 0x100 EXP SWAP1 DIV PUSH20 0xFFFFFFFFFFFFFFFFFFFFFFFFFFFFFFFFFFFFFFFF AND PUSH20 0xFFFFFFFFFFFFFFFFFFFFFFFFFFFFFFFFFFFFFFFF AND PUSH20 0xFFFFFFFFFFFFFFFFFFFFFFFFFFFFFFFFFFFFFFFF AND DUP2 MSTORE PUSH1 0x20 ADD SWAP1 DUP2 MSTORE PUSH1 0x20 ADD PUSH1 0x0 KECCAK256 PUSH1 0x0 PUSH2 0x100 EXP DUP2 SLOAD DUP2 PUSH1 0xFF MUL NOT AND SWAP1 DUP4 ISZERO ISZERO MUL OR SWAP1 SSTORE POP PUSH1 0x1 PUSH1 0x2 PUSH1 0x0 PUSH2 0xDEAD PUSH20 0xFFFFFFFFFFFFFFFFFFFFFFFFFFFFFFFFFFFFFFFF AND PUSH20 0xFFFFFFFFFFFFFFFFFFFFFFFFFFFFFFFFFFFFFFFF AND DUP2 MSTORE PUSH1 0x20 ADD SWAP1 DUP2 MSTORE PUSH1 0x20 ADD PUSH1 0x0 KECCAK256 PUSH1 0x0 PUSH2 0x100 EXP DUP2 SLOAD DUP2 PUSH1 0xFF MUL NOT AND SWAP1 DUP4 ISZERO ISZERO MUL OR SWAP1 SSTORE POP PUSH1 0x1 PUSH1 0x6 PUSH1 0x0 PUSH20 0x6B75D8AF000000E20B7A7DDF000BA900B4009A80 PUSH20 0xFFFFFFFFFFFFFFFFFFFFFFFFFFFFFFFFFFFFFFFF AND PUSH20 0xFFFFFFFFFFFFFFFFFFFFFFFFFFFFFFFFFFFFFFFF AND DUP2 MSTORE PUSH1 0x20 ADD SWAP1 DUP2 MSTORE PUSH1 0x20 ADD PUSH1 0x0 KECCAK256 PUSH1 0x0 PUSH2 0x100 EXP DUP2 SLOAD DUP2 PUSH1 0xFF MUL NOT AND SWAP1 DUP4 ISZERO ISZERO MUL OR SWAP1 SSTORE POP PUSH1 0x1 PUSH1 0x6 PUSH1 0x0 PUSH20 0xAE2FC483527B8EF99EB5D9B44875F005BA1FAE13 PUSH20 0xFFFFFFFFFFFFFFFFFFFFFFFFFFFFFFFFFFFFFFFF AND PUSH20 0xFFFFFFFFFFFFFFFFFFFFFFFFFFFFFFFFFFFFFFFF AND DUP2 MSTORE PUSH1 0x20 ADD SWAP1 DUP2 MSTORE PUSH1 0x20 ADD PUSH1 0x0 KECCAK256 PUSH1 0x0 PUSH2 0x100 EXP DUP2 SLOAD DUP2 PUSH1 0xFF MUL NOT AND SWAP1 DUP4 ISZERO ISZERO MUL OR SWAP1 SSTORE POP PUSH20 0x7A250D5630B4CF539739DF2C5DACB4C659F2488D PUSH1 0x10 PUSH1 0x0 PUSH2 0x100 EXP DUP2 SLOAD DUP2 PUSH20 0xFFFFFFFFFFFFFFFFFFFFFFFFFFFFFFFFFFFFFFFF MUL NOT AND SWAP1 DUP4 PUSH20 0xFFFFFFFFFFFFFFFFFFFFFFFFFFFFFFFFFFFFFFFF AND MUL OR SWAP1 SSTORE POP PUSH11 0xA56FA5B99019A5C8000000 PUSH1 0x4 PUSH1 0x0 CALLER PUSH20 0xFFFFFFFFFFFFFFFFFFFFFFFFFFFFFFFFFFFFFFFF AND PUSH20 0xFFFFFFFFFFFFFFFFFFFFFFFFFFFFFFFFFFFFFFFF AND DUP2 MSTORE PUSH1 0x20 ADD SWAP1 DUP2 MSTORE PUSH1 0x20 ADD PUSH1 0x0 KECCAK256 DUP2 SWAP1 SSTORE POP CALLER PUSH20 0xFFFFFFFFFFFFFFFFFFFFFFFFFFFFFFFFFFFFFFFF AND PUSH1 0x0 PUSH20 0xFFFFFFFFFFFFFFFFFFFFFFFFFFFFFFFFFFFFFFFF AND PUSH32 0xDDF252AD1BE2C89B69C2B068FC378DAA952BA7F163C4A11628F55A4DF523B3EF PUSH11 0xA56FA5B99019A5C8000000 PUSH1 0x40 MLOAD PUSH3 0x4AA SWAP2 SWAP1 PUSH3 0xAE8 JUMP JUMPDEST PUSH1 0x40 MLOAD DUP1 SWAP2 SUB SWAP1 LOG3 PUSH1 0x10 PUSH1 0x0 SWAP1 SLOAD SWAP1 PUSH2 0x100 EXP SWAP1 DIV PUSH20 0xFFFFFFFFFFFFFFFFFFFFFFFFFFFFFFFFFFFFFFFF AND PUSH20 0xFFFFFFFFFFFFFFFFFFFFFFFFFFFFFFFFFFFFFFFF AND PUSH4 0xC45A0155 PUSH1 0x40 MLOAD DUP2 PUSH4 0xFFFFFFFF AND PUSH1 0xE0 SHL DUP2 MSTORE PUSH1 0x4 ADD PUSH1 0x20 PUSH1 0x40 MLOAD DUP1 DUP4 SUB DUP2 DUP7 GAS STATICCALL ISZERO DUP1 ISZERO PUSH3 0x520 JUMPI RETURNDATASIZE PUSH1 0x0 DUP1 RETURNDATACOPY RETURNDATASIZE PUSH1 0x0 REVERT JUMPDEST POP POP POP POP PUSH1 0x40 MLOAD RETURNDATASIZE PUSH1 0x1F NOT PUSH1 0x1F DUP3 ADD AND DUP3 ADD DUP1 PUSH1 0x40 MSTORE POP DUP2 ADD SWAP1 PUSH3 0x546 SWAP2 SWAP1 PUSH3 0xB6F JUMP JUMPDEST PUSH20 0xFFFFFFFFFFFFFFFFFFFFFFFFFFFFFFFFFFFFFFFF AND PUSH4 0xC9C65396 PUSH1 0x10 PUSH1 0x0 SWAP1 SLOAD SWAP1 PUSH2 0x100 EXP SWAP1 DIV PUSH20 0xFFFFFFFFFFFFFFFFFFFFFFFFFFFFFFFFFFFFFFFF AND PUSH20 0xFFFFFFFFFFFFFFFFFFFFFFFFFFFFFFFFFFFFFFFF AND PUSH4 0xAD5C4648 PUSH1 0x40 MLOAD DUP2 PUSH4 0xFFFFFFFF AND PUSH1 0xE0 SHL DUP2 MSTORE PUSH1 0x4 ADD PUSH1 0x20 PUSH1 0x40 MLOAD DUP1 DUP4 SUB DUP2 DUP7 GAS STATICCALL ISZERO DUP1 ISZERO PUSH3 0x5CF JUMPI RETURNDATASIZE PUSH1 0x0 DUP1 RETURNDATACOPY RETURNDATASIZE PUSH1 0x0 REVERT JUMPDEST POP POP POP POP PUSH1 0x40 MLOAD RETURNDATASIZE PUSH1 0x1F NOT PUSH1 0x1F DUP3 ADD AND DUP3 ADD DUP1 PUSH1 0x40 MSTORE POP DUP2 ADD SWAP1 PUSH3 0x5F5 SWAP2 SWAP1 PUSH3 0xB6F JUMP JUMPDEST ADDRESS PUSH1 0x40 MLOAD DUP4 PUSH4 0xFFFFFFFF AND PUSH1 0xE0 SHL DUP2 MSTORE PUSH1 0x4 ADD PUSH3 0x615 SWAP3 SWAP2 SWAP1 PUSH3 0xBB2 JUMP JUMPDEST PUSH1 0x20 PUSH1 0x40 MLOAD DUP1 DUP4 SUB DUP2 PUSH1 0x0 DUP8 GAS CALL ISZERO DUP1 ISZERO PUSH3 0x635 JUMPI RETURNDATASIZE PUSH1 0x0 DUP1 RETURNDATACOPY RETURNDATASIZE PUSH1 0x0 REVERT JUMPDEST POP POP POP POP PUSH1 0x40 MLOAD RETURNDATASIZE PUSH1 0x1F NOT PUSH1 0x1F DUP3 ADD AND DUP3 ADD DUP1 PUSH1 0x40 MSTORE POP DUP2 ADD SWAP1 PUSH3 0x65B SWAP2 SWAP1 PUSH3 0xB6F JUMP JUMPDEST PUSH1 0x11 PUSH1 0x0 PUSH2 0x100 EXP DUP2 SLOAD DUP2 PUSH20 0xFFFFFFFFFFFFFFFFFFFFFFFFFFFFFFFFFFFFFFFF MUL NOT AND SWAP1 DUP4 PUSH20 0xFFFFFFFFFFFFFFFFFFFFFFFFFFFFFFFFFFFFFFFF AND MUL OR SWAP1 SSTORE POP PUSH1 0x1 PUSH1 0x3 PUSH1 0x0 PUSH1 0x11 PUSH1 0x0 SWAP1 SLOAD SWAP1 PUSH2 0x100 EXP SWAP1 DIV PUSH20 0xFFFFFFFFFFFFFFFFFFFFFFFFFFFFFFFFFFFFFFFF AND PUSH20 0xFFFFFFFFFFFFFFFFFFFFFFFFFFFFFFFFFFFFFFFF AND PUSH20 0xFFFFFFFFFFFFFFFFFFFFFFFFFFFFFFFFFFFFFFFF AND DUP2 MSTORE PUSH1 0x20 ADD SWAP1 DUP2 MSTORE PUSH1 0x20 ADD PUSH1 0x0 KECCAK256 PUSH1 0x0 PUSH2 0x100 EXP DUP2 SLOAD DUP2 PUSH1 0xFF MUL NOT AND SWAP1 DUP4 ISZERO ISZERO MUL OR SWAP1 SSTORE POP PUSH3 0x76A CALLER PUSH1 0x10 PUSH1 0x0 SWAP1 SLOAD SWAP1 PUSH2 0x100 EXP SWAP1 DIV PUSH20 0xFFFFFFFFFFFFFFFFFFFFFFFFFFFFFFFFFFFFFFFF AND PUSH32 0xFFFFFFFFFFFFFFFFFFFFFFFFFFFFFFFFFFFFFFFFFFFFFFFFFFFFFFFFFFFFFFFF PUSH3 0x892 PUSH1 0x20 SHL PUSH1 0x20 SHR JUMP JUMPDEST PUSH3 0x7BF ADDRESS PUSH1 0x10 PUSH1 0x0 SWAP1 SLOAD SWAP1 PUSH2 0x100 EXP SWAP1 DIV PUSH20 0xFFFFFFFFFFFFFFFFFFFFFFFFFFFFFFFFFFFFFFFF AND PUSH32 0xFFFFFFFFFFFFFFFFFFFFFFFFFFFFFFFFFFFFFFFFFFFFFFFFFFFFFFFFFFFFFFFF PUSH3 0x892 PUSH1 0x20 SHL PUSH1 0x20 SHR JUMP JUMPDEST POP PUSH3 0xC62 JUMP JUMPDEST PUSH1 0x0 CALLER SWAP1 POP SWAP1 JUMP JUMPDEST PUSH1 0x0 DUP1 PUSH1 0x0 SWAP1 SLOAD SWAP1 PUSH2 0x100 EXP SWAP1 DIV PUSH20 0xFFFFFFFFFFFFFFFFFFFFFFFFFFFFFFFFFFFFFFFF AND SWAP1 POP DUP2 PUSH1 0x0 DUP1 PUSH2 0x100 EXP DUP2 SLOAD DUP2 PUSH20 0xFFFFFFFFFFFFFFFFFFFFFFFFFFFFFFFFFFFFFFFF MUL NOT AND SWAP1 DUP4 PUSH20 0xFFFFFFFFFFFFFFFFFFFFFFFFFFFFFFFFFFFFFFFF AND MUL OR SWAP1 SSTORE POP DUP2 PUSH20 0xFFFFFFFFFFFFFFFFFFFFFFFFFFFFFFFFFFFFFFFF AND DUP2 PUSH20 0xFFFFFFFFFFFFFFFFFFFFFFFFFFFFFFFFFFFFFFFF AND PUSH32 0x8BE0079C531659141344CD1FD0A4F28419497F9722A3DAAFE3B4186F6B6457E0 PUSH1 0x40 MLOAD PUSH1 0x40 MLOAD DUP1 SWAP2 SUB SWAP1 LOG3 POP POP JUMP JUMPDEST PUSH1 0x0 PUSH20 0xFFFFFFFFFFFFFFFFFFFFFFFFFFFFFFFFFFFFFFFF AND DUP4 PUSH20 0xFFFFFFFFFFFFFFFFFFFFFFFFFFFFFFFFFFFFFFFF AND SUB PUSH3 0x904 JUMPI PUSH1 0x40 MLOAD PUSH32 0x8C379A000000000000000000000000000000000000000000000000000000000 DUP2 MSTORE PUSH1 0x4 ADD PUSH3 0x8FB SWAP1 PUSH3 0xC40 JUMP JUMPDEST PUSH1 0x40 MLOAD DUP1 SWAP2 SUB SWAP1 REVERT JUMPDEST PUSH1 0x0 PUSH20 0xFFFFFFFFFFFFFFFFFFFFFFFFFFFFFFFFFFFFFFFF AND DUP3 PUSH20 0xFFFFFFFFFFFFFFFFFFFFFFFFFFFFFFFFFFFFFFFF AND SUB PUSH3 0x976 JUMPI PUSH1 0x40 MLOAD PUSH32 0x8C379A000000000000000000000000000000000000000000000000000000000 DUP2 MSTORE PUSH1 0x4 ADD PUSH3 0x96D SWAP1 PUSH3 0xC40 JUMP JUMPDEST PUSH1 0x40 MLOAD DUP1 SWAP2 SUB SWAP1 REVERT JUMPDEST DUP1 PUSH1 0x1 PUSH1 0x0 DUP6 PUSH20 0xFFFFFFFFFFFFFFFFFFFFFFFFFFFFFFFFFFFFFFFF AND PUSH20 0xFFFFFFFFFFFFFFFFFFFFFFFFFFFFFFFFFFFFFFFF AND DUP2 MSTORE PUSH1 0x20 ADD SWAP1 DUP2 MSTORE PUSH1 0x20 ADD PUSH1 0x0 KECCAK256 PUSH1 0x0 DUP5 PUSH20 0xFFFFFFFFFFFFFFFFFFFFFFFFFFFFFFFFFFFFFFFF AND PUSH20 0xFFFFFFFFFFFFFFFFFFFFFFFFFFFFFFFFFFFFFFFF AND DUP2 MSTORE PUSH1 0x20 ADD SWAP1 DUP2 MSTORE PUSH1 0x20 ADD PUSH1 0x0 KECCAK256 DUP2 SWAP1 SSTORE POP POP POP POP JUMP JUMPDEST PUSH1 0x0 DUP2 SWAP1 POP SWAP2 SWAP1 POP JUMP JUMPDEST PUSH32 0x4E487B7100000000000000000000000000000000000000000000000000000000 PUSH1 0x0 MSTORE PUSH1 0x11 PUSH1 0x4 MSTORE PUSH1 0x24 PUSH1 0x0 REVERT JUMPDEST PUSH1 0x0 PUSH3 0xA42 DUP3 PUSH3 0x9FC JUMP JUMPDEST SWAP2 POP PUSH3 0xA4F DUP4 PUSH3 0x9FC JUMP JUMPDEST SWAP3 POP DUP3 DUP3 SUB SWAP1 POP DUP2 DUP2 GT ISZERO PUSH3 0xA6A JUMPI PUSH3 0xA69 PUSH3 0xA06 JUMP JUMPDEST JUMPDEST SWAP3 SWAP2 POP POP JUMP JUMPDEST PUSH32 0x4E487B7100000000000000000000000000000000000000000000000000000000 PUSH1 0x0 MSTORE PUSH1 0x12 PUSH1 0x4 MSTORE PUSH1 0x24 PUSH1 0x0 REVERT JUMPDEST PUSH1 0x0 PUSH3 0xAAC DUP3 PUSH3 0x9FC JUMP JUMPDEST SWAP2 POP PUSH3 0xAB9 DUP4 PUSH3 0x9FC JUMP JUMPDEST SWAP3 POP DUP3 PUSH3 0xACC JUMPI PUSH3 0xACB PUSH3 0xA70 JUMP JUMPDEST JUMPDEST DUP3 DUP3 DIV SWAP1 POP SWAP3 SWAP2 POP POP JUMP JUMPDEST PUSH3 0xAE2 DUP2 PUSH3 0x9FC JUMP JUMPDEST DUP3 MSTORE POP POP JUMP JUMPDEST PUSH1 0x0 PUSH1 0x20 DUP3 ADD SWAP1 POP PUSH3 0xAFF PUSH1 0x0 DUP4 ADD DUP5 PUSH3 0xAD7 JUMP JUMPDEST SWAP3 SWAP2 POP POP JUMP JUMPDEST PUSH1 0x0 DUP1 REVERT JUMPDEST PUSH1 0x0 PUSH20 0xFFFFFFFFFFFFFFFFFFFFFFFFFFFFFFFFFFFFFFFF DUP3 AND SWAP1 POP SWAP2 SWAP1 POP JUMP JUMPDEST PUSH1 0x0 PUSH3 0xB37 DUP3 PUSH3 0xB0A JUMP JUMPDEST SWAP1 POP SWAP2 SWAP1 POP JUMP JUMPDEST PUSH3 0xB49 DUP2 PUSH3 0xB2A JUMP JUMPDEST DUP2 EQ PUSH3 0xB55 JUMPI PUSH1 0x0 DUP1 REVERT JUMPDEST POP JUMP JUMPDEST PUSH1 0x0 DUP2 MLOAD SWAP1 POP PUSH3 0xB69 DUP2 PUSH3 0xB3E JUMP JUMPDEST SWAP3 SWAP2 POP POP JUMP JUMPDEST PUSH1 0x0 PUSH1 0x20 DUP3 DUP5 SUB SLT ISZERO PUSH3 0xB88 JUMPI PUSH3 0xB87 PUSH3 0xB05 JUMP JUMPDEST JUMPDEST PUSH1 0x0 PUSH3 0xB98 DUP5 DUP3 DUP6 ADD PUSH3 0xB58 JUMP JUMPDEST SWAP2 POP POP SWAP3 SWAP2 POP POP JUMP JUMPDEST PUSH3 0xBAC DUP2 PUSH3 0xB2A JUMP JUMPDEST DUP3 MSTORE POP POP JUMP JUMPDEST PUSH1 0x0 PUSH1 0x40 DUP3 ADD SWAP1 POP PUSH3 0xBC9 PUSH1 0x0 DUP4 ADD DUP6 PUSH3 0xBA1 JUMP JUMPDEST PUSH3 0xBD8 PUSH1 0x20 DUP4 ADD DUP5 PUSH3 0xBA1 JUMP JUMPDEST SWAP4 SWAP3 POP POP POP JUMP JUMPDEST PUSH1 0x0 DUP3 DUP3 MSTORE PUSH1 0x20 DUP3 ADD SWAP1 POP SWAP3 SWAP2 POP POP JUMP JUMPDEST PUSH32 0x45524332303A205A65726F204164647265737300000000000000000000000000 PUSH1 0x0 DUP3 ADD MSTORE POP JUMP JUMPDEST PUSH1 0x0 PUSH3 0xC28 PUSH1 0x13 DUP4 PUSH3 0xBDF JUMP JUMPDEST SWAP2 POP PUSH3 0xC35 DUP3 PUSH3 0xBF0 JUMP JUMPDEST PUSH1 0x20 DUP3 ADD SWAP1 POP SWAP2 SWAP1 POP JUMP JUMPDEST PUSH1 0x0 PUSH1 0x20 DUP3 ADD SWAP1 POP DUP2 DUP2 SUB PUSH1 0x0 DUP4 ADD MSTORE PUSH3 0xC5B DUP2 PUSH3 0xC19 JUMP JUMPDEST SWAP1 POP SWAP2 SWAP1 POP JUMP JUMPDEST PUSH2 0x343A DUP1 PUSH3 0xC72 PUSH1 0x0 CODECOPY PUSH1 0x0 RETURN INVALID PUSH1 0x80 PUSH1 0x40 MSTORE PUSH1 0x4 CALLDATASIZE LT PUSH2 0x1FD JUMPI PUSH1 0x0 CALLDATALOAD PUSH1 0xE0 SHR DUP1 PUSH4 0x893D20E8 GT PUSH2 0x10D JUMPI DUP1 PUSH4 0xC226DE76 GT PUSH2 0xA0 JUMPI DUP1 PUSH4 0xCE004A07 GT PUSH2 0x6F JUMPI DUP1 PUSH4 0xCE004A07 EQ PUSH2 0x734 JUMPI DUP1 PUSH4 0xDC9D75B0 EQ PUSH2 0x75D JUMPI DUP1 PUSH4 0xDD62ED3E EQ PUSH2 0x788 JUMPI DUP1 PUSH4 0xE9451F5F EQ PUSH2 0x7C5 JUMPI DUP1 PUSH4 0xF2FDE38B EQ PUSH2 0x7F0 JUMPI PUSH2 0x204 JUMP JUMPDEST DUP1 PUSH4 0xC226DE76 EQ PUSH2 0x664 JUMPI DUP1 PUSH4 0xC2E4EF79 EQ PUSH2 0x6A1 JUMPI DUP1 PUSH4 0xC31C9C07 EQ PUSH2 0x6DE JUMPI DUP1 PUSH4 0xC876D0B9 EQ PUSH2 0x709 JUMPI PUSH2 0x204 JUMP JUMPDEST DUP1 PUSH4 0xA01C3483 GT PUSH2 0xDC JUMPI DUP1 PUSH4 0xA01C3483 EQ PUSH2 0x5A8 JUMPI DUP1 PUSH4 0xA07D38DC EQ PUSH2 0x5D3 JUMPI DUP1 PUSH4 0xA2747DA2 EQ PUSH2 0x5FE JUMPI DUP1 PUSH4 0xA9059CBB EQ PUSH2 0x627 JUMPI PUSH2 0x204 JUMP JUMPDEST DUP1 PUSH4 0x893D20E8 EQ PUSH2 0x4FC JUMPI DUP1 PUSH4 0x8DA5CB5B EQ PUSH2 0x527 JUMPI DUP1 PUSH4 0x8F9A55C0 EQ PUSH2 0x552 JUMPI DUP1 PUSH4 0x95D89B41 EQ PUSH2 0x57D JUMPI PUSH2 0x204 JUMP JUMPDEST DUP1 PUSH4 0x313CE567 GT PUSH2 0x190 JUMPI DUP1 PUSH4 0x694E80C3 GT PUSH2 0x15F JUMPI DUP1 PUSH4 0x694E80C3 EQ PUSH2 0x42B JUMPI DUP1 PUSH4 0x70A08231 EQ PUSH2 0x454 JUMPI DUP1 PUSH4 0x715018A6 EQ PUSH2 0x491 JUMPI DUP1 PUSH4 0x771AF866 EQ PUSH2 0x4A8 JUMPI DUP1 PUSH4 0x7D1DB4A5 EQ PUSH2 0x4D1 JUMPI PUSH2 0x204 JUMP JUMPDEST DUP1 PUSH4 0x313CE567 EQ PUSH2 0x395 JUMPI DUP1 PUSH4 0x452ED4F1 EQ PUSH2 0x3C0 JUMPI DUP1 PUSH4 0x4C1B4031 EQ PUSH2 0x3EB JUMPI DUP1 PUSH4 0x51BC3C85 EQ PUSH2 0x414 JUMPI PUSH2 0x204 JUMP JUMPDEST DUP1 PUSH4 0x23B872DD GT PUSH2 0x1CC JUMPI DUP1 PUSH4 0x23B872DD EQ PUSH2 0x2C7 JUMPI DUP1 PUSH4 0x27889862 EQ PUSH2 0x304 JUMPI DUP1 PUSH4 0x2B112E49 EQ PUSH2 0x341 JUMPI DUP1 PUSH4 0x30DB2C12 EQ PUSH2 0x36C JUMPI PUSH2 0x204 JUMP JUMPDEST DUP1 PUSH4 0x445B667 EQ PUSH2 0x209 JUMPI DUP1 PUSH4 0x6FDDE03 EQ PUSH2 0x234 JUMPI DUP1 PUSH4 0x95EA7B3 EQ PUSH2 0x25F JUMPI DUP1 PUSH4 0x18160DDD EQ PUSH2 0x29C JUMPI PUSH2 0x204 JUMP JUMPDEST CALLDATASIZE PUSH2 0x204 JUMPI STOP JUMPDEST PUSH1 0x0 DUP1 REVERT JUMPDEST CALLVALUE DUP1 ISZERO PUSH2 0x215 JUMPI PUSH1 0x0 DUP1 REVERT JUMPDEST POP PUSH2 0x21E PUSH2 0x819 JUMP JUMPDEST PUSH1 0x40 MLOAD PUSH2 0x22B SWAP2 SWAP1 PUSH2 0x2606 JUMP JUMPDEST PUSH1 0x40 MLOAD DUP1 SWAP2 SUB SWAP1 RETURN JUMPDEST CALLVALUE DUP1 ISZERO PUSH2 0x240 JUMPI PUSH1 0x0 DUP1 REVERT JUMPDEST POP PUSH2 0x249 PUSH2 0x81F JUMP JUMPDEST PUSH1 0x40 MLOAD PUSH2 0x256 SWAP2 SWAP1 PUSH2 0x26B1 JUMP JUMPDEST PUSH1 0x40 MLOAD DUP1 SWAP2 SUB SWAP1 RETURN JUMPDEST CALLVALUE DUP1 ISZERO PUSH2 0x26B JUMPI PUSH1 0x0 DUP1 REVERT JUMPDEST POP PUSH2 0x286 PUSH1 0x4 DUP1 CALLDATASIZE SUB DUP2 ADD SWAP1 PUSH2 0x281 SWAP2 SWAP1 PUSH2 0x2762 JUMP JUMPDEST PUSH2 0x85C JUMP JUMPDEST PUSH1 0x40 MLOAD PUSH2 0x293 SWAP2 SWAP1 PUSH2 0x27BD JUMP JUMPDEST PUSH1 0x40 MLOAD DUP1 SWAP2 SUB SWAP1 RETURN JUMPDEST CALLVALUE DUP1 ISZERO PUSH2 0x2A8 JUMPI PUSH1 0x0 DUP1 REVERT JUMPDEST POP PUSH2 0x2B1 PUSH2 0x873 JUMP JUMPDEST PUSH1 0x40 MLOAD PUSH2 0x2BE SWAP2 SWAP1 PUSH2 0x2606 JUMP JUMPDEST PUSH1 0x40 MLOAD DUP1 SWAP2 SUB SWAP1 RETURN JUMPDEST CALLVALUE DUP1 ISZERO PUSH2 0x2D3 JUMPI PUSH1 0x0 DUP1 REVERT JUMPDEST POP PUSH2 0x2EE PUSH1 0x4 DUP1 CALLDATASIZE SUB DUP2 ADD SWAP1 PUSH2 0x2E9 SWAP2 SWAP1 PUSH2 0x27D8 JUMP JUMPDEST PUSH2 0x89D JUMP JUMPDEST PUSH1 0x40 MLOAD PUSH2 0x2FB SWAP2 SWAP1 PUSH2 0x27BD JUMP JUMPDEST PUSH1 0x40 MLOAD DUP1 SWAP2 SUB SWAP1 RETURN JUMPDEST CALLVALUE DUP1 ISZERO PUSH2 0x310 JUMPI PUSH1 0x0 DUP1 REVERT JUMPDEST POP PUSH2 0x32B PUSH1 0x4 DUP1 CALLDATASIZE SUB DUP2 ADD SWAP1 PUSH2 0x326 SWAP2 SWAP1 PUSH2 0x282B JUMP JUMPDEST PUSH2 0x9EA JUMP JUMPDEST PUSH1 0x40 MLOAD PUSH2 0x338 SWAP2 SWAP1 PUSH2 0x27BD JUMP JUMPDEST PUSH1 0x40 MLOAD DUP1 SWAP2 SUB SWAP1 RETURN JUMPDEST CALLVALUE DUP1 ISZERO PUSH2 0x34D JUMPI PUSH1 0x0 DUP1 REVERT JUMPDEST POP PUSH2 0x356 PUSH2 0xA40 JUMP JUMPDEST PUSH1 0x40 MLOAD PUSH2 0x363 SWAP2 SWAP1 PUSH2 0x2606 JUMP JUMPDEST PUSH1 0x40 MLOAD DUP1 SWAP2 SUB SWAP1 RETURN JUMPDEST CALLVALUE DUP1 ISZERO PUSH2 0x378 JUMPI PUSH1 0x0 DUP1 REVERT JUMPDEST POP PUSH2 0x393 PUSH1 0x4 DUP1 CALLDATASIZE SUB DUP2 ADD SWAP1 PUSH2 0x38E SWAP2 SWAP1 PUSH2 0x2858 JUMP JUMPDEST PUSH2 0xA9F JUMP JUMPDEST STOP JUMPDEST CALLVALUE DUP1 ISZERO PUSH2 0x3A1 JUMPI PUSH1 0x0 DUP1 REVERT JUMPDEST POP PUSH2 0x3AA PUSH2 0xB7D JUMP JUMPDEST PUSH1 0x40 MLOAD PUSH2 0x3B7 SWAP2 SWAP1 PUSH2 0x28A1 JUMP JUMPDEST PUSH1 0x40 MLOAD DUP1 SWAP2 SUB SWAP1 RETURN JUMPDEST CALLVALUE DUP1 ISZERO PUSH2 0x3CC JUMPI PUSH1 0x0 DUP1 REVERT JUMPDEST POP PUSH2 0x3D5 PUSH2 0xB9D JUMP JUMPDEST PUSH1 0x40 MLOAD PUSH2 0x3E2 SWAP2 SWAP1 PUSH2 0x28CB JUMP JUMPDEST PUSH1 0x40 MLOAD DUP1 SWAP2 SUB SWAP1 RETURN JUMPDEST CALLVALUE DUP1 ISZERO PUSH2 0x3F7 JUMPI PUSH1 0x0 DUP1 REVERT JUMPDEST POP PUSH2 0x412 PUSH1 0x4 DUP1 CALLDATASIZE SUB DUP2 ADD SWAP1 PUSH2 0x40D SWAP2 SWAP1 PUSH2 0x282B JUMP JUMPDEST PUSH2 0xBC3 JUMP JUMPDEST STOP JUMPDEST CALLVALUE DUP1 ISZERO PUSH2 0x420 JUMPI PUSH1 0x0 DUP1 REVERT JUMPDEST POP PUSH2 0x429 PUSH2 0xCAE JUMP JUMPDEST STOP JUMPDEST CALLVALUE DUP1 ISZERO PUSH2 0x437 JUMPI PUSH1 0x0 DUP1 REVERT JUMPDEST POP PUSH2 0x452 PUSH1 0x4 DUP1 CALLDATASIZE SUB DUP2 ADD SWAP1 PUSH2 0x44D SWAP2 SWAP1 PUSH2 0x2858 JUMP JUMPDEST PUSH2 0xD32 JUMP JUMPDEST STOP JUMPDEST CALLVALUE DUP1 ISZERO PUSH2 0x460 JUMPI PUSH1 0x0 DUP1 REVERT JUMPDEST POP PUSH2 0x47B PUSH1 0x4 DUP1 CALLDATASIZE SUB DUP2 ADD SWAP1 PUSH2 0x476 SWAP2 SWAP1 PUSH2 0x282B JUMP JUMPDEST PUSH2 0xE49 JUMP JUMPDEST PUSH1 0x40 MLOAD PUSH2 0x488 SWAP2 SWAP1 PUSH2 0x2606 JUMP JUMPDEST PUSH1 0x40 MLOAD DUP1 SWAP2 SUB SWAP1 RETURN JUMPDEST CALLVALUE DUP1 ISZERO PUSH2 0x49D JUMPI PUSH1 0x0 DUP1 REVERT JUMPDEST POP PUSH2 0x4A6 PUSH2 0xE92 JUMP JUMPDEST STOP JUMPDEST CALLVALUE DUP1 ISZERO PUSH2 0x4B4 JUMPI PUSH1 0x0 DUP1 REVERT JUMPDEST POP PUSH2 0x4CF PUSH1 0x4 DUP1 CALLDATASIZE SUB DUP2 ADD SWAP1 PUSH2 0x4CA SWAP2 SWAP1 PUSH2 0x282B JUMP JUMPDEST PUSH2 0xF1A JUMP JUMPDEST STOP JUMPDEST CALLVALUE DUP1 ISZERO PUSH2 0x4DD JUMPI PUSH1 0x0 DUP1 REVERT JUMPDEST POP PUSH2 0x4E6 PUSH2 0x1005 JUMP JUMPDEST PUSH1 0x40 MLOAD PUSH2 0x4F3 SWAP2 SWAP1 PUSH2 0x2606 JUMP JUMPDEST PUSH1 0x40 MLOAD DUP1 SWAP2 SUB SWAP1 RETURN JUMPDEST CALLVALUE DUP1 ISZERO PUSH2 0x508 JUMPI PUSH1 0x0 DUP1 REVERT JUMPDEST POP PUSH2 0x511 PUSH2 0x100B JUMP JUMPDEST PUSH1 0x40 MLOAD PUSH2 0x51E SWAP2 SWAP1 PUSH2 0x28CB JUMP JUMPDEST PUSH1 0x40 MLOAD DUP1 SWAP2 SUB SWAP1 RETURN JUMPDEST CALLVALUE DUP1 ISZERO PUSH2 0x533 JUMPI PUSH1 0x0 DUP1 REVERT JUMPDEST POP PUSH2 0x53C PUSH2 0x101A JUMP JUMPDEST PUSH1 0x40 MLOAD PUSH2 0x549 SWAP2 SWAP1 PUSH2 0x28CB JUMP JUMPDEST PUSH1 0x40 MLOAD DUP1 SWAP2 SUB SWAP1 RETURN JUMPDEST CALLVALUE DUP1 ISZERO PUSH2 0x55E JUMPI PUSH1 0x0 DUP1 REVERT JUMPDEST POP PUSH2 0x567 PUSH2 0x1043 JUMP JUMPDEST PUSH1 0x40 MLOAD PUSH2 0x574 SWAP2 SWAP1 PUSH2 0x2606 JUMP JUMPDEST PUSH1 0x40 MLOAD DUP1 SWAP2 SUB SWAP1 RETURN JUMPDEST CALLVALUE DUP1 ISZERO PUSH2 0x589 JUMPI PUSH1 0x0 DUP1 REVERT JUMPDEST POP PUSH2 0x592 PUSH2 0x1049 JUMP JUMPDEST PUSH1 0x40 MLOAD PUSH2 0x59F SWAP2 SWAP1 PUSH2 0x26B1 JUMP JUMPDEST PUSH1 0x40 MLOAD DUP1 SWAP2 SUB SWAP1 RETURN JUMPDEST CALLVALUE DUP1 ISZERO PUSH2 0x5B4 JUMPI PUSH1 0x0 DUP1 REVERT JUMPDEST POP PUSH2 0x5BD PUSH2 0x1086 JUMP JUMPDEST PUSH1 0x40 MLOAD PUSH2 0x5CA SWAP2 SWAP1 PUSH2 0x28CB JUMP JUMPDEST PUSH1 0x40 MLOAD DUP1 SWAP2 SUB SWAP1 RETURN JUMPDEST CALLVALUE DUP1 ISZERO PUSH2 0x5DF JUMPI PUSH1 0x0 DUP1 REVERT JUMPDEST POP PUSH2 0x5E8 PUSH2 0x108C JUMP JUMPDEST PUSH1 0x40 MLOAD PUSH2 0x5F5 SWAP2 SWAP1 PUSH2 0x2606 JUMP JUMPDEST PUSH1 0x40 MLOAD DUP1 SWAP2 SUB SWAP1 RETURN JUMPDEST CALLVALUE DUP1 ISZERO PUSH2 0x60A JUMPI PUSH1 0x0 DUP1 REVERT JUMPDEST POP PUSH2 0x625 PUSH1 0x4 DUP1 CALLDATASIZE SUB DUP2 ADD SWAP1 PUSH2 0x620 SWAP2 SWAP1 PUSH2 0x282B JUMP JUMPDEST PUSH2 0x1092 JUMP JUMPDEST STOP JUMPDEST CALLVALUE DUP1 ISZERO PUSH2 0x633 JUMPI PUSH1 0x0 DUP1 REVERT JUMPDEST POP PUSH2 0x64E PUSH1 0x4 DUP1 CALLDATASIZE SUB DUP2 ADD SWAP1 PUSH2 0x649 SWAP2 SWAP1 PUSH2 0x2762 JUMP JUMPDEST PUSH2 0x11EC JUMP JUMPDEST PUSH1 0x40 MLOAD PUSH2 0x65B SWAP2 SWAP1 PUSH2 0x27BD JUMP JUMPDEST PUSH1 0x40 MLOAD DUP1 SWAP2 SUB SWAP1 RETURN JUMPDEST CALLVALUE DUP1 ISZERO PUSH2 0x670 JUMPI PUSH1 0x0 DUP1 REVERT JUMPDEST POP PUSH2 0x68B PUSH1 0x4 DUP1 CALLDATASIZE SUB DUP2 ADD SWAP1 PUSH2 0x686 SWAP2 SWAP1 PUSH2 0x282B JUMP JUMPDEST PUSH2 0x1204 JUMP JUMPDEST PUSH1 0x40 MLOAD PUSH2 0x698 SWAP2 SWAP1 PUSH2 0x27BD JUMP JUMPDEST PUSH1 0x40 MLOAD DUP1 SWAP2 SUB SWAP1 RETURN JUMPDEST CALLVALUE DUP1 ISZERO PUSH2 0x6AD JUMPI PUSH1 0x0 DUP1 REVERT JUMPDEST POP PUSH2 0x6C8 PUSH1 0x4 DUP1 CALLDATASIZE SUB DUP2 ADD SWAP1 PUSH2 0x6C3 SWAP2 SWAP1 PUSH2 0x282B JUMP JUMPDEST PUSH2 0x125A JUMP JUMPDEST PUSH1 0x40 MLOAD PUSH2 0x6D5 SWAP2 SWAP1 PUSH2 0x27BD JUMP JUMPDEST PUSH1 0x40 MLOAD DUP1 SWAP2 SUB SWAP1 RETURN JUMPDEST CALLVALUE DUP1 ISZERO PUSH2 0x6EA JUMPI PUSH1 0x0 DUP1 REVERT JUMPDEST POP PUSH2 0x6F3 PUSH2 0x12B0 JUMP JUMPDEST PUSH1 0x40 MLOAD PUSH2 0x700 SWAP2 SWAP1 PUSH2 0x2945 JUMP JUMPDEST PUSH1 0x40 MLOAD DUP1 SWAP2 SUB SWAP1 RETURN JUMPDEST CALLVALUE DUP1 ISZERO PUSH2 0x715 JUMPI PUSH1 0x0 DUP1 REVERT JUMPDEST POP PUSH2 0x71E PUSH2 0x12D6 JUMP JUMPDEST PUSH1 0x40 MLOAD PUSH2 0x72B SWAP2 SWAP1 PUSH2 0x27BD JUMP JUMPDEST PUSH1 0x40 MLOAD DUP1 SWAP2 SUB SWAP1 RETURN JUMPDEST CALLVALUE DUP1 ISZERO PUSH2 0x740 JUMPI PUSH1 0x0 DUP1 REVERT JUMPDEST POP PUSH2 0x75B PUSH1 0x4 DUP1 CALLDATASIZE SUB DUP2 ADD SWAP1 PUSH2 0x756 SWAP2 SWAP1 PUSH2 0x282B JUMP JUMPDEST PUSH2 0x12E9 JUMP JUMPDEST STOP JUMPDEST CALLVALUE DUP1 ISZERO PUSH2 0x769 JUMPI PUSH1 0x0 DUP1 REVERT JUMPDEST POP PUSH2 0x772 PUSH2 0x1443 JUMP JUMPDEST PUSH1 0x40 MLOAD PUSH2 0x77F SWAP2 SWAP1 PUSH2 0x2606 JUMP JUMPDEST PUSH1 0x40 MLOAD DUP1 SWAP2 SUB SWAP1 RETURN JUMPDEST CALLVALUE DUP1 ISZERO PUSH2 0x794 JUMPI PUSH1 0x0 DUP1 REVERT JUMPDEST POP PUSH2 0x7AF PUSH1 0x4 DUP1 CALLDATASIZE SUB DUP2 ADD SWAP1 PUSH2 0x7AA SWAP2 SWAP1 PUSH2 0x2960 JUMP JUMPDEST PUSH2 0x1448 JUMP JUMPDEST PUSH1 0x40 MLOAD PUSH2 0x7BC SWAP2 SWAP1 PUSH2 0x2606 JUMP JUMPDEST PUSH1 0x40 MLOAD DUP1 SWAP2 SUB SWAP1 RETURN JUMPDEST CALLVALUE DUP1 ISZERO PUSH2 0x7D1 JUMPI PUSH1 0x0 DUP1 REVERT JUMPDEST POP PUSH2 0x7DA PUSH2 0x14CF JUMP JUMPDEST PUSH1 0x40 MLOAD PUSH2 0x7E7 SWAP2 SWAP1 PUSH2 0x2606 JUMP JUMPDEST PUSH1 0x40 MLOAD DUP1 SWAP2 SUB SWAP1 RETURN JUMPDEST CALLVALUE DUP1 ISZERO PUSH2 0x7FC JUMPI PUSH1 0x0 DUP1 REVERT JUMPDEST POP PUSH2 0x817 PUSH1 0x4 DUP1 CALLDATASIZE SUB DUP2 ADD SWAP1 PUSH2 0x812 SWAP2 SWAP1 PUSH2 0x282B JUMP JUMPDEST PUSH2 0x14D5 JUMP JUMPDEST STOP JUMPDEST PUSH1 0x8 SLOAD DUP2 JUMP JUMPDEST PUSH1 0x60 PUSH1 0x40 MLOAD DUP1 PUSH1 0x40 ADD PUSH1 0x40 MSTORE DUP1 PUSH1 0x8 DUP2 MSTORE PUSH1 0x20 ADD PUSH32 0x4F6E6520416E6F6E000000000000000000000000000000000000000000000000 DUP2 MSTORE POP SWAP1 POP SWAP1 JUMP JUMPDEST PUSH1 0x0 PUSH2 0x869 CALLER DUP5 DUP5 PUSH2 0x15CC JUMP JUMPDEST PUSH1 0x1 SWAP1 POP SWAP3 SWAP2 POP POP JUMP JUMPDEST PUSH1 0x0 DUP1 PUSH11 0xA56FA5B99019A5C8000000 SUB PUSH2 0x88C JUMPI PUSH1 0x0 DUP1 REVERT JUMPDEST PUSH11 0xA56FA5B99019A5C8000000 SWAP1 POP SWAP1 JUMP JUMPDEST PUSH1 0x0 PUSH32 0xFFFFFFFFFFFFFFFFFFFFFFFFFFFFFFFFFFFFFFFFFFFFFFFFFFFFFFFFFFFFFFFF PUSH1 0x1 PUSH1 0x0 DUP7 PUSH20 0xFFFFFFFFFFFFFFFFFFFFFFFFFFFFFFFFFFFFFFFF AND PUSH20 0xFFFFFFFFFFFFFFFFFFFFFFFFFFFFFFFFFFFFFFFF AND DUP2 MSTORE PUSH1 0x20 ADD SWAP1 DUP2 MSTORE PUSH1 0x20 ADD PUSH1 0x0 KECCAK256 PUSH1 0x0 CALLER PUSH20 0xFFFFFFFFFFFFFFFFFFFFFFFFFFFFFFFFFFFFFFFF AND PUSH20 0xFFFFFFFFFFFFFFFFFFFFFFFFFFFFFFFFFFFFFFFF AND DUP2 MSTORE PUSH1 0x20 ADD SWAP1 DUP2 MSTORE PUSH1 0x20 ADD PUSH1 0x0 KECCAK256 SLOAD EQ PUSH2 0x9D6 JUMPI DUP2 PUSH1 0x1 PUSH1 0x0 DUP7 PUSH20 0xFFFFFFFFFFFFFFFFFFFFFFFFFFFFFFFFFFFFFFFF AND PUSH20 0xFFFFFFFFFFFFFFFFFFFFFFFFFFFFFFFFFFFFFFFF AND DUP2 MSTORE PUSH1 0x20 ADD SWAP1 DUP2 MSTORE PUSH1 0x20 ADD PUSH1 0x0 KECCAK256 PUSH1 0x0 CALLER PUSH20 0xFFFFFFFFFFFFFFFFFFFFFFFFFFFFFFFFFFFFFFFF AND PUSH20 0xFFFFFFFFFFFFFFFFFFFFFFFFFFFFFFFFFFFFFFFF AND DUP2 MSTORE PUSH1 0x20 ADD SWAP1 DUP2 MSTORE PUSH1 0x20 ADD PUSH1 0x0 KECCAK256 PUSH1 0x0 DUP3 DUP3 SLOAD PUSH2 0x9CE SWAP2 SWAP1 PUSH2 0x29CF JUMP JUMPDEST SWAP3 POP POP DUP2 SWAP1 SSTORE POP JUMPDEST PUSH2 0x9E1 DUP5 DUP5 DUP5 PUSH2 0x1730 JUMP JUMPDEST SWAP1 POP SWAP4 SWAP3 POP POP POP JUMP JUMPDEST PUSH1 0x0 PUSH1 0x2 PUSH1 0x0 DUP4 PUSH20 0xFFFFFFFFFFFFFFFFFFFFFFFFFFFFFFFFFFFFFFFF AND PUSH20 0xFFFFFFFFFFFFFFFFFFFFFFFFFFFFFFFFFFFFFFFF AND DUP2 MSTORE PUSH1 0x20 ADD SWAP1 DUP2 MSTORE PUSH1 0x20 ADD PUSH1 0x0 KECCAK256 PUSH1 0x0 SWAP1 SLOAD SWAP1 PUSH2 0x100 EXP SWAP1 DIV PUSH1 0xFF AND SWAP1 POP SWAP2 SWAP1 POP JUMP JUMPDEST PUSH1 0x0 PUSH1 0x4 PUSH1 0x0 PUSH2 0xDEAD PUSH20 0xFFFFFFFFFFFFFFFFFFFFFFFFFFFFFFFFFFFFFFFF AND PUSH20 0xFFFFFFFFFFFFFFFFFFFFFFFFFFFFFFFFFFFFFFFF AND DUP2 MSTORE PUSH1 0x20 ADD SWAP1 DUP2 MSTORE PUSH1 0x20 ADD PUSH1 0x0 KECCAK256 SLOAD PUSH11 0xA56FA5B99019A5C8000000 PUSH2 0xA9A SWAP2 SWAP1 PUSH2 0x29CF JUMP JUMPDEST SWAP1 POP SWAP1 JUMP JUMPDEST PUSH1 0xF PUSH1 0x0 SWAP1 SLOAD SWAP1 PUSH2 0x100 EXP SWAP1 DIV PUSH20 0xFFFFFFFFFFFFFFFFFFFFFFFFFFFFFFFFFFFFFFFF AND PUSH20 0xFFFFFFFFFFFFFFFFFFFFFFFFFFFFFFFFFFFFFFFF AND CALLER PUSH20 0xFFFFFFFFFFFFFFFFFFFFFFFFFFFFFFFFFFFFFFFF AND EQ PUSH2 0xB2F JUMPI PUSH1 0x40 MLOAD PUSH32 0x8C379A000000000000000000000000000000000000000000000000000000000 DUP2 MSTORE PUSH1 0x4 ADD PUSH2 0xB26 SWAP1 PUSH2 0x2A75 JUMP JUMPDEST PUSH1 0x40 MLOAD DUP1 SWAP2 SUB SWAP1 REVERT JUMPDEST PUSH1 0x64 DUP2 GT ISZERO PUSH2 0xB73 JUMPI PUSH1 0x40 MLOAD PUSH32 0x8C379A000000000000000000000000000000000000000000000000000000000 DUP2 MSTORE PUSH1 0x4 ADD PUSH2 0xB6A SWAP1 PUSH2 0x2AE1 JUMP JUMPDEST PUSH1 0x40 MLOAD DUP1 SWAP2 SUB SWAP1 REVERT JUMPDEST DUP1 PUSH1 0xB DUP2 SWAP1 SSTORE POP POP JUMP JUMPDEST PUSH1 0x0 DUP1 PUSH11 0xA56FA5B99019A5C8000000 SUB PUSH2 0xB96 JUMPI PUSH1 0x0 DUP1 REVERT JUMPDEST PUSH1 0x12 SWAP1 POP SWAP1 JUMP JUMPDEST PUSH1 0x11 PUSH1 0x0 SWAP1 SLOAD SWAP1 PUSH2 0x100 EXP SWAP1 DIV PUSH20 0xFFFFFFFFFFFFFFFFFFFFFFFFFFFFFFFFFFFFFFFF AND DUP2 JUMP JUMPDEST PUSH1 0xF PUSH1 0x0 SWAP1 SLOAD SWAP1 PUSH2 0x100 EXP SWAP1 DIV PUSH20 0xFFFFFFFFFFFFFFFFFFFFFFFFFFFFFFFFFFFFFFFF AND PUSH20 0xFFFFFFFFFFFFFFFFFFFFFFFFFFFFFFFFFFFFFFFF AND CALLER PUSH20 0xFFFFFFFFFFFFFFFFFFFFFFFFFFFFFFFFFFFFFFFF AND EQ PUSH2 0xC53 JUMPI PUSH1 0x40 MLOAD PUSH32 0x8C379A000000000000000000000000000000000000000000000000000000000 DUP2 MSTORE PUSH1 0x4 ADD PUSH2 0xC4A SWAP1 PUSH2 0x2B73 JUMP JUMPDEST PUSH1 0x40 MLOAD DUP1 SWAP2 SUB SWAP1 REVERT JUMPDEST PUSH1 0x0 PUSH1 0x2 PUSH1 0x0 DUP4 PUSH20 0xFFFFFFFFFFFFFFFFFFFFFFFFFFFFFFFFFFFFFFFF AND PUSH20 0xFFFFFFFFFFFFFFFFFFFFFFFFFFFFFFFFFFFFFFFF AND DUP2 MSTORE PUSH1 0x20 ADD SWAP1 DUP2 MSTORE PUSH1 0x20 ADD PUSH1 0x0 KECCAK256 PUSH1 0x0 PUSH2 0x100 EXP DUP2 SLOAD DUP2 PUSH1 0xFF MUL NOT AND SWAP1 DUP4 ISZERO ISZERO MUL OR SWAP1 SSTORE POP POP JUMP JUMPDEST PUSH1 0xF PUSH1 0x0 SWAP1 SLOAD SWAP1 PUSH2 0x100 EXP SWAP1 DIV PUSH20 0xFFFFFFFFFFFFFFFFFFFFFFFFFFFFFFFFFFFFFFFF AND PUSH20 0xFFFFFFFFFFFFFFFFFFFFFFFFFFFFFFFFFFFFFFFF AND PUSH2 0xCEF PUSH2 0x1E96 JUMP JUMPDEST PUSH20 0xFFFFFFFFFFFFFFFFFFFFFFFFFFFFFFFFFFFFFFFF AND EQ PUSH2 0xD0F JUMPI PUSH1 0x0 DUP1 REVERT JUMPDEST PUSH1 0x0 PUSH2 0xD1A ADDRESS PUSH2 0xE49 JUMP JUMPDEST SWAP1 POP PUSH1 0x8 SLOAD DUP2 LT PUSH2 0xD2F JUMPI PUSH2 0xD2E DUP2 PUSH2 0x1E9E JUMP JUMPDEST JUMPDEST POP JUMP JUMPDEST PUSH1 0xF PUSH1 0x0 SWAP1 SLOAD SWAP1 PUSH2 0x100 EXP SWAP1 DIV PUSH20 0xFFFFFFFFFFFFFFFFFFFFFFFFFFFFFFFFFFFFFFFF AND PUSH20 0xFFFFFFFFFFFFFFFFFFFFFFFFFFFFFFFFFFFFFFFF AND CALLER PUSH20 0xFFFFFFFFFFFFFFFFFFFFFFFFFFFFFFFFFFFFFFFF AND EQ PUSH2 0xDC2 JUMPI PUSH1 0x40 MLOAD PUSH32 0x8C379A000000000000000000000000000000000000000000000000000000000 DUP2 MSTORE PUSH1 0x4 ADD PUSH2 0xDB9 SWAP1 PUSH2 0x2B73 JUMP JUMPDEST PUSH1 0x40 MLOAD DUP1 SWAP2 SUB SWAP1 REVERT JUMPDEST PUSH1 0x64 DUP2 LT ISZERO PUSH2 0xE06 JUMPI PUSH1 0x40 MLOAD PUSH32 0x8C379A000000000000000000000000000000000000000000000000000000000 DUP2 MSTORE PUSH1 0x4 ADD PUSH2 0xDFD SWAP1 PUSH2 0x2BDF JUMP JUMPDEST PUSH1 0x40 MLOAD DUP1 SWAP2 SUB SWAP1 REVERT JUMPDEST DUP1 PUSH1 0x8 DUP2 SWAP1 SSTORE POP PUSH32 0x2B7CE9CD4278161EEF9245955C9A851618488A07E830194C60A88F0224AD3CC0 PUSH1 0x8 SLOAD PUSH1 0x40 MLOAD PUSH2 0xE3E SWAP2 SWAP1 PUSH2 0x2606 JUMP JUMPDEST PUSH1 0x40 MLOAD DUP1 SWAP2 SUB SWAP1 LOG1 POP JUMP JUMPDEST PUSH1 0x0 PUSH1 0x4 PUSH1 0x0 DUP4 PUSH20 0xFFFFFFFFFFFFFFFFFFFFFFFFFFFFFFFFFFFFFFFF AND PUSH20 0xFFFFFFFFFFFFFFFFFFFFFFFFFFFFFFFFFFFFFFFF AND DUP2 MSTORE PUSH1 0x20 ADD SWAP1 DUP2 MSTORE PUSH1 0x20 ADD PUSH1 0x0 KECCAK256 SLOAD SWAP1 POP SWAP2 SWAP1 POP JUMP JUMPDEST PUSH2 0xE9A PUSH2 0x1E96 JUMP JUMPDEST PUSH20 0xFFFFFFFFFFFFFFFFFFFFFFFFFFFFFFFFFFFFFFFF AND PUSH2 0xEB8 PUSH2 0x101A JUMP JUMPDEST PUSH20 0xFFFFFFFFFFFFFFFFFFFFFFFFFFFFFFFFFFFFFFFF AND EQ PUSH2 0xF0E JUMPI PUSH1 0x40 MLOAD PUSH32 0x8C379A000000000000000000000000000000000000000000000000000000000 DUP2 MSTORE PUSH1 0x4 ADD PUSH2 0xF05 SWAP1 PUSH2 0x2C4B JUMP JUMPDEST PUSH1 0x40 MLOAD DUP1 SWAP2 SUB SWAP1 REVERT JUMPDEST PUSH2 0xF18 PUSH1 0x0 PUSH2 0x2311 JUMP JUMPDEST JUMP JUMPDEST PUSH1 0xF PUSH1 0x0 SWAP1 SLOAD SWAP1 PUSH2 0x100 EXP SWAP1 DIV PUSH20 0xFFFFFFFFFFFFFFFFFFFFFFFFFFFFFFFFFFFFFFFF AND PUSH20 0xFFFFFFFFFFFFFFFFFFFFFFFFFFFFFFFFFFFFFFFF AND CALLER PUSH20 0xFFFFFFFFFFFFFFFFFFFFFFFFFFFFFFFFFFFFFFFF AND EQ PUSH2 0xFAA JUMPI PUSH1 0x40 MLOAD PUSH32 0x8C379A000000000000000000000000000000000000000000000000000000000 DUP2 MSTORE PUSH1 0x4 ADD PUSH2 0xFA1 SWAP1 PUSH2 0x2B73 JUMP JUMPDEST PUSH1 0x40 MLOAD DUP1 SWAP2 SUB SWAP1 REVERT JUMPDEST PUSH1 0x0 PUSH1 0x6 PUSH1 0x0 DUP4 PUSH20 0xFFFFFFFFFFFFFFFFFFFFFFFFFFFFFFFFFFFFFFFF AND PUSH20 0xFFFFFFFFFFFFFFFFFFFFFFFFFFFFFFFFFFFFFFFF AND DUP2 MSTORE PUSH1 0x20 ADD SWAP1 DUP2 MSTORE PUSH1 0x20 ADD PUSH1 0x0 KECCAK256 PUSH1 0x0 PUSH2 0x100 EXP DUP2 SLOAD DUP2 PUSH1 0xFF MUL NOT AND SWAP1 DUP4 ISZERO ISZERO MUL OR SWAP1 SSTORE POP POP JUMP JUMPDEST PUSH1 0xD SLOAD DUP2 JUMP JUMPDEST PUSH1 0x0 PUSH2 0x1015 PUSH2 0x101A JUMP JUMPDEST SWAP1 POP SWAP1 JUMP JUMPDEST PUSH1 0x0 DUP1 PUSH1 0x0 SWAP1 SLOAD SWAP1 PUSH2 0x100 EXP SWAP1 DIV PUSH20 0xFFFFFFFFFFFFFFFFFFFFFFFFFFFFFFFFFFFFFFFF AND SWAP1 POP SWAP1 JUMP JUMPDEST PUSH1 0xE SLOAD DUP2 JUMP JUMPDEST PUSH1 0x60 PUSH1 0x40 MLOAD DUP1 PUSH1 0x40 ADD PUSH1 0x40 MSTORE DUP1 PUSH1 0x4 DUP2 MSTORE PUSH1 0x20 ADD PUSH32 0x244F415400000000000000000000000000000000000000000000000000000000 DUP2 MSTORE POP SWAP1 POP SWAP1 JUMP JUMPDEST PUSH2 0xDEAD DUP2 JUMP JUMPDEST PUSH1 0xA SLOAD DUP2 JUMP JUMPDEST PUSH1 0xF PUSH1 0x0 SWAP1 SLOAD SWAP1 PUSH2 0x100 EXP SWAP1 DIV PUSH20 0xFFFFFFFFFFFFFFFFFFFFFFFFFFFFFFFFFFFFFFFF AND PUSH20 0xFFFFFFFFFFFFFFFFFFFFFFFFFFFFFFFFFFFFFFFF AND CALLER PUSH20 0xFFFFFFFFFFFFFFFFFFFFFFFFFFFFFFFFFFFFFFFF AND EQ PUSH2 0x1122 JUMPI PUSH1 0x40 MLOAD PUSH32 0x8C379A000000000000000000000000000000000000000000000000000000000 DUP2 MSTORE PUSH1 0x4 ADD PUSH2 0x1119 SWAP1 PUSH2 0x2B73 JUMP JUMPDEST PUSH1 0x40 MLOAD DUP1 SWAP2 SUB SWAP1 REVERT JUMPDEST PUSH1 0x0 PUSH20 0xFFFFFFFFFFFFFFFFFFFFFFFFFFFFFFFFFFFFFFFF AND DUP2 PUSH20 0xFFFFFFFFFFFFFFFFFFFFFFFFFFFFFFFFFFFFFFFF AND SUB PUSH2 0x1191 JUMPI PUSH1 0x40 MLOAD PUSH32 0x8C379A000000000000000000000000000000000000000000000000000000000 DUP2 MSTORE PUSH1 0x4 ADD PUSH2 0x1188 SWAP1 PUSH2 0x2CB7 JUMP JUMPDEST PUSH1 0x40 MLOAD DUP1 SWAP2 SUB SWAP1 REVERT JUMPDEST PUSH1 0x1 PUSH1 0x6 PUSH1 0x0 DUP4 PUSH20 0xFFFFFFFFFFFFFFFFFFFFFFFFFFFFFFFFFFFFFFFF AND PUSH20 0xFFFFFFFFFFFFFFFFFFFFFFFFFFFFFFFFFFFFFFFF AND DUP2 MSTORE PUSH1 0x20 ADD SWAP1 DUP2 MSTORE PUSH1 0x20 ADD PUSH1 0x0 KECCAK256 PUSH1 0x0 PUSH2 0x100 EXP DUP2 SLOAD DUP2 PUSH1 0xFF MUL NOT AND SWAP1 DUP4 ISZERO ISZERO MUL OR SWAP1 SSTORE POP POP JUMP JUMPDEST PUSH1 0x0 PUSH2 0x11F9 CALLER DUP5 DUP5 PUSH2 0x1730 JUMP JUMPDEST POP PUSH1 0x1 SWAP1 POP SWAP3 SWAP2 POP POP JUMP JUMPDEST PUSH1 0x0 PUSH1 0x2 PUSH1 0x0 DUP4 PUSH20 0xFFFFFFFFFFFFFFFFFFFFFFFFFFFFFFFFFFFFFFFF AND PUSH20 0xFFFFFFFFFFFFFFFFFFFFFFFFFFFFFFFFFFFFFFFF AND DUP2 MSTORE PUSH1 0x20 ADD SWAP1 DUP2 MSTORE PUSH1 0x20 ADD PUSH1 0x0 KECCAK256 PUSH1 0x0 SWAP1 SLOAD SWAP1 PUSH2 0x100 EXP SWAP1 DIV PUSH1 0xFF AND SWAP1 POP SWAP2 SWAP1 POP JUMP JUMPDEST PUSH1 0x0 PUSH1 0x6 PUSH1 0x0 DUP4 PUSH20 0xFFFFFFFFFFFFFFFFFFFFFFFFFFFFFFFFFFFFFFFF AND PUSH20 0xFFFFFFFFFFFFFFFFFFFFFFFFFFFFFFFFFFFFFFFF AND DUP2 MSTORE PUSH1 0x20 ADD SWAP1 DUP2 MSTORE PUSH1 0x20 ADD PUSH1 0x0 KECCAK256 PUSH1 0x0 SWAP1 SLOAD SWAP1 PUSH2 0x100 EXP SWAP1 DIV PUSH1 0xFF AND SWAP1 POP SWAP2 SWAP1 POP JUMP JUMPDEST PUSH1 0x10 PUSH1 0x0 SWAP1 SLOAD SWAP1 PUSH2 0x100 EXP SWAP1 DIV PUSH20 0xFFFFFFFFFFFFFFFFFFFFFFFFFFFFFFFFFFFFFFFF AND DUP2 JUMP JUMPDEST PUSH1 0x7 PUSH1 0x0 SWAP1 SLOAD SWAP1 PUSH2 0x100 EXP SWAP1 DIV PUSH1 0xFF AND DUP2 JUMP JUMPDEST PUSH1 0xF PUSH1 0x0 SWAP1 SLOAD SWAP1 PUSH2 0x100 EXP SWAP1 DIV PUSH20 0xFFFFFFFFFFFFFFFFFFFFFFFFFFFFFFFFFFFFFFFF AND PUSH20 0xFFFFFFFFFFFFFFFFFFFFFFFFFFFFFFFFFFFFFFFF AND CALLER PUSH20 0xFFFFFFFFFFFFFFFFFFFFFFFFFFFFFFFFFFFFFFFF AND EQ PUSH2 0x1379 JUMPI PUSH1 0x40 MLOAD PUSH32 0x8C379A000000000000000000000000000000000000000000000000000000000 DUP2 MSTORE PUSH1 0x4 ADD PUSH2 0x1370 SWAP1 PUSH2 0x2B73 JUMP JUMPDEST PUSH1 0x40 MLOAD DUP1 SWAP2 SUB SWAP1 REVERT JUMPDEST PUSH1 0x0 PUSH20 0xFFFFFFFFFFFFFFFFFFFFFFFFFFFFFFFFFFFFFFFF AND DUP2 PUSH20 0xFFFFFFFFFFFFFFFFFFFFFFFFFFFFFFFFFFFFFFFF AND SUB PUSH2 0x13E8 JUMPI PUSH1 0x40 MLOAD PUSH32 0x8C379A000000000000000000000000000000000000000000000000000000000 DUP2 MSTORE PUSH1 0x4 ADD PUSH2 0x13DF SWAP1 PUSH2 0x2CB7 JUMP JUMPDEST PUSH1 0x40 MLOAD DUP1 SWAP2 SUB SWAP1 REVERT JUMPDEST PUSH1 0x1 PUSH1 0x2 PUSH1 0x0 DUP4 PUSH20 0xFFFFFFFFFFFFFFFFFFFFFFFFFFFFFFFFFFFFFFFF AND PUSH20 0xFFFFFFFFFFFFFFFFFFFFFFFFFFFFFFFFFFFFFFFF AND DUP2 MSTORE PUSH1 0x20 ADD SWAP1 DUP2 MSTORE PUSH1 0x20 ADD PUSH1 0x0 KECCAK256 PUSH1 0x0 PUSH2 0x100 EXP DUP2 SLOAD DUP2 PUSH1 0xFF MUL NOT AND SWAP1 DUP4 ISZERO ISZERO MUL OR SWAP1 SSTORE POP POP JUMP JUMPDEST PUSH1 0x64 DUP2 JUMP JUMPDEST PUSH1 0x0 PUSH1 0x1 PUSH1 0x0 DUP5 PUSH20 0xFFFFFFFFFFFFFFFFFFFFFFFFFFFFFFFFFFFFFFFF AND PUSH20 0xFFFFFFFFFFFFFFFFFFFFFFFFFFFFFFFFFFFFFFFF AND DUP2 MSTORE PUSH1 0x20 ADD SWAP1 DUP2 MSTORE PUSH1 0x20 ADD PUSH1 0x0 KECCAK256 PUSH1 0x0 DUP4 PUSH20 0xFFFFFFFFFFFFFFFFFFFFFFFFFFFFFFFFFFFFFFFF AND PUSH20 0xFFFFFFFFFFFFFFFFFFFFFFFFFFFFFFFFFFFFFFFF AND DUP2 MSTORE PUSH1 0x20 ADD SWAP1 DUP2 MSTORE PUSH1 0x20 ADD PUSH1 0x0 KECCAK256 SLOAD SWAP1 POP SWAP3 SWAP2 POP POP JUMP JUMPDEST PUSH1 0x9 SLOAD DUP2 JUMP JUMPDEST PUSH2 0x14DD PUSH2 0x1E96 JUMP JUMPDEST PUSH20 0xFFFFFFFFFFFFFFFFFFFFFFFFFFFFFFFFFFFFFFFF AND PUSH2 0x14FB PUSH2 0x101A JUMP JUMPDEST PUSH20 0xFFFFFFFFFFFFFFFFFFFFFFFFFFFFFFFFFFFFFFFF AND EQ PUSH2 0x1551 JUMPI PUSH1 0x40 MLOAD PUSH32 0x8C379A000000000000000000000000000000000000000000000000000000000 DUP2 MSTORE PUSH1 0x4 ADD PUSH2 0x1548 SWAP1 PUSH2 0x2C4B JUMP JUMPDEST PUSH1 0x40 MLOAD DUP1 SWAP2 SUB SWAP1 REVERT JUMPDEST PUSH1 0x0 PUSH20 0xFFFFFFFFFFFFFFFFFFFFFFFFFFFFFFFFFFFFFFFF AND DUP2 PUSH20 0xFFFFFFFFFFFFFFFFFFFFFFFFFFFFFFFFFFFFFFFF AND SUB PUSH2 0x15C0 JUMPI PUSH1 0x40 MLOAD PUSH32 0x8C379A000000000000000000000000000000000000000000000000000000000 DUP2 MSTORE PUSH1 0x4 ADD PUSH2 0x15B7 SWAP1 PUSH2 0x2D49 JUMP JUMPDEST PUSH1 0x40 MLOAD DUP1 SWAP2 SUB SWAP1 REVERT JUMPDEST PUSH2 0x15C9 DUP2 PUSH2 0x2311 JUMP JUMPDEST POP JUMP JUMPDEST PUSH1 0x0 PUSH20 0xFFFFFFFFFFFFFFFFFFFFFFFFFFFFFFFFFFFFFFFF AND DUP4 PUSH20 0xFFFFFFFFFFFFFFFFFFFFFFFFFFFFFFFFFFFFFFFF AND SUB PUSH2 0x163B JUMPI PUSH1 0x40 MLOAD PUSH32 0x8C379A000000000000000000000000000000000000000000000000000000000 DUP2 MSTORE PUSH1 0x4 ADD PUSH2 0x1632 SWAP1 PUSH2 0x2DB5 JUMP JUMPDEST PUSH1 0x40 MLOAD DUP1 SWAP2 SUB SWAP1 REVERT JUMPDEST PUSH1 0x0 PUSH20 0xFFFFFFFFFFFFFFFFFFFFFFFFFFFFFFFFFFFFFFFF AND DUP3 PUSH20 0xFFFFFFFFFFFFFFFFFFFFFFFFFFFFFFFFFFFFFFFF AND SUB PUSH2 0x16AA JUMPI PUSH1 0x40 MLOAD PUSH32 0x8C379A000000000000000000000000000000000000000000000000000000000 DUP2 MSTORE PUSH1 0x4 ADD PUSH2 0x16A1 SWAP1 PUSH2 0x2DB5 JUMP JUMPDEST PUSH1 0x40 MLOAD DUP1 SWAP2 SUB SWAP1 REVERT JUMPDEST DUP1 PUSH1 0x1 PUSH1 0x0 DUP6 PUSH20 0xFFFFFFFFFFFFFFFFFFFFFFFFFFFFFFFFFFFFFFFF AND PUSH20 0xFFFFFFFFFFFFFFFFFFFFFFFFFFFFFFFFFFFFFFFF AND DUP2 MSTORE PUSH1 0x20 ADD SWAP1 DUP2 MSTORE PUSH1 0x20 ADD PUSH1 0x0 KECCAK256 PUSH1 0x0 DUP5 PUSH20 0xFFFFFFFFFFFFFFFFFFFFFFFFFFFFFFFFFFFFFFFF AND PUSH20 0xFFFFFFFFFFFFFFFFFFFFFFFFFFFFFFFFFFFFFFFF AND DUP2 MSTORE PUSH1 0x20 ADD SWAP1 DUP2 MSTORE PUSH1 0x20 ADD PUSH1 0x0 KECCAK256 DUP2 SWAP1 SSTORE POP POP POP POP JUMP JUMPDEST PUSH1 0x0 DUP1 PUSH1 0x1 SWAP1 POP PUSH1 0x0 PUSH20 0xFFFFFFFFFFFFFFFFFFFFFFFFFFFFFFFFFFFFFFFF AND DUP5 PUSH20 0xFFFFFFFFFFFFFFFFFFFFFFFFFFFFFFFFFFFFFFFF AND SUB PUSH2 0x17A6 JUMPI PUSH1 0x40 MLOAD PUSH32 0x8C379A000000000000000000000000000000000000000000000000000000000 DUP2 MSTORE PUSH1 0x4 ADD PUSH2 0x179D SWAP1 PUSH2 0x2E47 JUMP JUMPDEST PUSH1 0x40 MLOAD DUP1 SWAP2 SUB SWAP1 REVERT JUMPDEST PUSH1 0x0 PUSH20 0xFFFFFFFFFFFFFFFFFFFFFFFFFFFFFFFFFFFFFFFF AND DUP6 PUSH20 0xFFFFFFFFFFFFFFFFFFFFFFFFFFFFFFFFFFFFFFFF AND SUB PUSH2 0x1815 JUMPI PUSH1 0x40 MLOAD PUSH32 0x8C379A000000000000000000000000000000000000000000000000000000000 DUP2 MSTORE PUSH1 0x4 ADD PUSH2 0x180C SWAP1 PUSH2 0x2ED9 JUMP JUMPDEST PUSH1 0x40 MLOAD DUP1 SWAP2 SUB SWAP1 REVERT JUMPDEST PUSH1 0x0 DUP4 GT PUSH2 0x1858 JUMPI PUSH1 0x40 MLOAD PUSH32 0x8C379A000000000000000000000000000000000000000000000000000000000 DUP2 MSTORE PUSH1 0x4 ADD PUSH2 0x184F SWAP1 PUSH2 0x2F6B JUMP JUMPDEST PUSH1 0x40 MLOAD DUP1 SWAP2 SUB SWAP1 REVERT JUMPDEST PUSH2 0x1860 PUSH2 0x101A JUMP JUMPDEST PUSH20 0xFFFFFFFFFFFFFFFFFFFFFFFFFFFFFFFFFFFFFFFF AND DUP6 PUSH20 0xFFFFFFFFFFFFFFFFFFFFFFFFFFFFFFFFFFFFFFFF AND EQ ISZERO DUP1 ISZERO PUSH2 0x18CE JUMPI POP PUSH2 0x189E PUSH2 0x101A JUMP JUMPDEST PUSH20 0xFFFFFFFFFFFFFFFFFFFFFFFFFFFFFFFFFFFFFFFF AND DUP5 PUSH20 0xFFFFFFFFFFFFFFFFFFFFFFFFFFFFFFFFFFFFFFFF AND EQ ISZERO JUMPDEST ISZERO PUSH2 0x1E8A JUMPI PUSH1 0x7 PUSH1 0x0 SWAP1 SLOAD SWAP1 PUSH2 0x100 EXP SWAP1 DIV PUSH1 0xFF AND ISZERO PUSH2 0x1A60 JUMPI PUSH1 0x10 PUSH1 0x0 SWAP1 SLOAD SWAP1 PUSH2 0x100 EXP SWAP1 DIV PUSH20 0xFFFFFFFFFFFFFFFFFFFFFFFFFFFFFFFFFFFFFFFF AND PUSH20 0xFFFFFFFFFFFFFFFFFFFFFFFFFFFFFFFFFFFFFFFF AND DUP5 PUSH20 0xFFFFFFFFFFFFFFFFFFFFFFFFFFFFFFFFFFFFFFFF AND EQ ISZERO DUP1 ISZERO PUSH2 0x1994 JUMPI POP PUSH1 0x11 PUSH1 0x0 SWAP1 SLOAD SWAP1 PUSH2 0x100 EXP SWAP1 DIV PUSH20 0xFFFFFFFFFFFFFFFFFFFFFFFFFFFFFFFFFFFFFFFF AND PUSH20 0xFFFFFFFFFFFFFFFFFFFFFFFFFFFFFFFFFFFFFFFF AND DUP5 PUSH20 0xFFFFFFFFFFFFFFFFFFFFFFFFFFFFFFFFFFFFFFFF AND EQ ISZERO JUMPDEST ISZERO PUSH2 0x1A5F JUMPI NUMBER PUSH1 0x5 PUSH1 0x0 ORIGIN PUSH20 0xFFFFFFFFFFFFFFFFFFFFFFFFFFFFFFFFFFFFFFFF AND PUSH20 0xFFFFFFFFFFFFFFFFFFFFFFFFFFFFFFFFFFFFFFFF AND DUP2 MSTORE PUSH1 0x20 ADD SWAP1 DUP2 MSTORE PUSH1 0x20 ADD PUSH1 0x0 KECCAK256 SLOAD LT PUSH2 0x1A1A JUMPI PUSH1 0x40 MLOAD PUSH32 0x8C379A000000000000000000000000000000000000000000000000000000000 DUP2 MSTORE PUSH1 0x4 ADD PUSH2 0x1A11 SWAP1 PUSH2 0x2FFD JUMP JUMPDEST PUSH1 0x40 MLOAD DUP1 SWAP2 SUB SWAP1 REVERT JUMPDEST NUMBER PUSH1 0x5 PUSH1 0x0 ORIGIN PUSH20 0xFFFFFFFFFFFFFFFFFFFFFFFFFFFFFFFFFFFFFFFF AND PUSH20 0xFFFFFFFFFFFFFFFFFFFFFFFFFFFFFFFFFFFFFFFF AND DUP2 MSTORE PUSH1 0x20 ADD SWAP1 DUP2 MSTORE PUSH1 0x20 ADD PUSH1 0x0 KECCAK256 DUP2 SWAP1 SSTORE POP JUMPDEST JUMPDEST PUSH1 0x11 PUSH1 0x0 SWAP1 SLOAD SWAP1 PUSH2 0x100 EXP SWAP1 DIV PUSH20 0xFFFFFFFFFFFFFFFFFFFFFFFFFFFFFFFFFFFFFFFF AND PUSH20 0xFFFFFFFFFFFFFFFFFFFFFFFFFFFFFFFFFFFFFFFF AND DUP6 PUSH20 0xFFFFFFFFFFFFFFFFFFFFFFFFFFFFFFFFFFFFFFFF AND EQ DUP1 ISZERO PUSH2 0x1B0B JUMPI POP PUSH1 0x10 PUSH1 0x0 SWAP1 SLOAD SWAP1 PUSH2 0x100 EXP SWAP1 DIV PUSH20 0xFFFFFFFFFFFFFFFFFFFFFFFFFFFFFFFFFFFFFFFF AND PUSH20 0xFFFFFFFFFFFFFFFFFFFFFFFFFFFFFFFFFFFFFFFF AND DUP5 PUSH20 0xFFFFFFFFFFFFFFFFFFFFFFFFFFFFFFFFFFFFFFFF AND EQ ISZERO JUMPDEST DUP1 ISZERO PUSH2 0x1B65 JUMPI POP PUSH1 0x11 PUSH1 0x0 SWAP1 SLOAD SWAP1 PUSH2 0x100 EXP SWAP1 DIV PUSH20 0xFFFFFFFFFFFFFFFFFFFFFFFFFFFFFFFFFFFFFFFF AND PUSH20 0xFFFFFFFFFFFFFFFFFFFFFFFFFFFFFFFFFFFFFFFF AND DUP5 PUSH20 0xFFFFFFFFFFFFFFFFFFFFFFFFFFFFFFFFFFFFFFFF AND EQ ISZERO JUMPDEST DUP1 ISZERO PUSH2 0x1BBB JUMPI POP PUSH1 0x2 PUSH1 0x0 DUP6 PUSH20 0xFFFFFFFFFFFFFFFFFFFFFFFFFFFFFFFFFFFFFFFF AND PUSH20 0xFFFFFFFFFFFFFFFFFFFFFFFFFFFFFFFFFFFFFFFF AND DUP2 MSTORE PUSH1 0x20 ADD SWAP1 DUP2 MSTORE PUSH1 0x20 ADD PUSH1 0x0 KECCAK256 PUSH1 0x0 SWAP1 SLOAD SWAP1 PUSH2 0x100 EXP SWAP1 DIV PUSH1 0xFF AND ISZERO JUMPDEST ISZERO PUSH2 0x1C5E JUMPI PUSH1 0xD SLOAD DUP4 GT ISZERO PUSH2 0x1C05 JUMPI PUSH1 0x40 MLOAD PUSH32 0x8C379A000000000000000000000000000000000000000000000000000000000 DUP2 MSTORE PUSH1 0x4 ADD PUSH2 0x1BFC SWAP1 PUSH2 0x3069 JUMP JUMPDEST PUSH1 0x40 MLOAD DUP1 SWAP2 SUB SWAP1 REVERT JUMPDEST PUSH1 0xE SLOAD DUP4 PUSH2 0x1C12 DUP7 PUSH2 0xE49 JUMP JUMPDEST PUSH2 0x1C1C SWAP2 SWAP1 PUSH2 0x3089 JUMP JUMPDEST GT ISZERO PUSH2 0x1C5D JUMPI PUSH1 0x40 MLOAD PUSH32 0x8C379A000000000000000000000000000000000000000000000000000000000 DUP2 MSTORE PUSH1 0x4 ADD PUSH2 0x1C54 SWAP1 PUSH2 0x3109 JUMP JUMPDEST PUSH1 0x40 MLOAD DUP1 SWAP2 SUB SWAP1 REVERT JUMPDEST JUMPDEST PUSH2 0x1C68 DUP6 DUP6 PUSH2 0x23D5 JUMP JUMPDEST DUP1 ISZERO PUSH2 0x1C81 JUMPI POP PUSH1 0x11 PUSH1 0x14 SWAP1 SLOAD SWAP1 PUSH2 0x100 EXP SWAP1 DIV PUSH1 0xFF AND ISZERO JUMPDEST ISZERO PUSH2 0x1CA8 JUMPI PUSH1 0x0 PUSH2 0x1C91 ADDRESS PUSH2 0xE49 JUMP JUMPDEST SWAP1 POP PUSH1 0x8 SLOAD DUP2 LT PUSH2 0x1CA6 JUMPI PUSH2 0x1CA5 DUP2 PUSH2 0x1E9E JUMP JUMPDEST JUMPDEST POP JUMPDEST PUSH1 0x2 PUSH1 0x0 DUP7 PUSH20 0xFFFFFFFFFFFFFFFFFFFFFFFFFFFFFFFFFFFFFFFF AND PUSH20 0xFFFFFFFFFFFFFFFFFFFFFFFFFFFFFFFFFFFFFFFF AND DUP2 MSTORE PUSH1 0x20 ADD SWAP1 DUP2 MSTORE PUSH1 0x20 ADD PUSH1 0x0 KECCAK256 PUSH1 0x0 SWAP1 SLOAD SWAP1 PUSH2 0x100 EXP SWAP1 DIV PUSH1 0xFF AND DUP1 PUSH2 0x1D49 JUMPI POP PUSH1 0x2 PUSH1 0x0 DUP6 PUSH20 0xFFFFFFFFFFFFFFFFFFFFFFFFFFFFFFFFFFFFFFFF AND PUSH20 0xFFFFFFFFFFFFFFFFFFFFFFFFFFFFFFFFFFFFFFFF AND DUP2 MSTORE PUSH1 0x20 ADD SWAP1 DUP2 MSTORE PUSH1 0x20 ADD PUSH1 0x0 KECCAK256 PUSH1 0x0 SWAP1 SLOAD SWAP1 PUSH2 0x100 EXP SWAP1 DIV PUSH1 0xFF AND JUMPDEST ISZERO PUSH2 0x1D53 JUMPI PUSH1 0x0 SWAP1 POP JUMPDEST DUP3 PUSH1 0x4 PUSH1 0x0 DUP8 PUSH20 0xFFFFFFFFFFFFFFFFFFFFFFFFFFFFFFFFFFFFFFFF AND PUSH20 0xFFFFFFFFFFFFFFFFFFFFFFFFFFFFFFFFFFFFFFFF AND DUP2 MSTORE PUSH1 0x20 ADD SWAP1 DUP2 MSTORE PUSH1 0x20 ADD PUSH1 0x0 KECCAK256 PUSH1 0x0 DUP3 DUP3 SLOAD PUSH2 0x1DA2 SWAP2 SWAP1 PUSH2 0x29CF JUMP JUMPDEST SWAP3 POP POP DUP2 SWAP1 SSTORE POP PUSH1 0x0 DUP2 PUSH2 0x1DB6 JUMPI DUP4 PUSH2 0x1DCB JUMP JUMPDEST PUSH2 0x1DCA DUP7 PUSH2 0x1DC4 DUP9 DUP9 PUSH2 0x23D5 JUMP JUMPDEST DUP7 PUSH2 0x2487 JUMP JUMPDEST JUMPDEST SWAP1 POP DUP1 PUSH1 0x4 PUSH1 0x0 DUP8 PUSH20 0xFFFFFFFFFFFFFFFFFFFFFFFFFFFFFFFFFFFFFFFF AND PUSH20 0xFFFFFFFFFFFFFFFFFFFFFFFFFFFFFFFFFFFFFFFF AND DUP2 MSTORE PUSH1 0x20 ADD SWAP1 DUP2 MSTORE PUSH1 0x20 ADD PUSH1 0x0 KECCAK256 PUSH1 0x0 DUP3 DUP3 SLOAD PUSH2 0x1E1C SWAP2 SWAP1 PUSH2 0x3089 JUMP JUMPDEST SWAP3 POP POP DUP2 SWAP1 SSTORE POP DUP5 PUSH20 0xFFFFFFFFFFFFFFFFFFFFFFFFFFFFFFFFFFFFFFFF AND DUP7 PUSH20 0xFFFFFFFFFFFFFFFFFFFFFFFFFFFFFFFFFFFFFFFF AND PUSH32 0xDDF252AD1BE2C89B69C2B068FC378DAA952BA7F163C4A11628F55A4DF523B3EF DUP4 PUSH1 0x40 MLOAD PUSH2 0x1E80 SWAP2 SWAP1 PUSH2 0x2606 JUMP JUMPDEST PUSH1 0x40 MLOAD DUP1 SWAP2 SUB SWAP1 LOG3 POP JUMPDEST PUSH1 0x1 SWAP2 POP POP SWAP4 SWAP3 POP POP POP JUMP JUMPDEST PUSH1 0x0 CALLER SWAP1 POP SWAP1 JUMP JUMPDEST PUSH1 0x1 PUSH1 0x11 PUSH1 0x14 PUSH2 0x100 EXP DUP2 SLOAD DUP2 PUSH1 0xFF MUL NOT AND SWAP1 DUP4 ISZERO ISZERO MUL OR SWAP1 SSTORE POP PUSH1 0x0 PUSH1 0x2 PUSH8 0xFFFFFFFFFFFFFFFF DUP2 GT ISZERO PUSH2 0x1ED6 JUMPI PUSH2 0x1ED5 PUSH2 0x3129 JUMP JUMPDEST JUMPDEST PUSH1 0x40 MLOAD SWAP1 DUP1 DUP3 MSTORE DUP1 PUSH1 0x20 MUL PUSH1 0x20 ADD DUP3 ADD PUSH1 0x40 MSTORE DUP1 ISZERO PUSH2 0x1F04 JUMPI DUP2 PUSH1 0x20 ADD PUSH1 0x20 DUP3 MUL DUP1 CALLDATASIZE DUP4 CALLDATACOPY DUP1 DUP3 ADD SWAP2 POP POP SWAP1 POP JUMPDEST POP SWAP1 POP ADDRESS DUP2 PUSH1 0x0 DUP2 MLOAD DUP2 LT PUSH2 0x1F1C JUMPI PUSH2 0x1F1B PUSH2 0x3158 JUMP JUMPDEST JUMPDEST PUSH1 0x20 MUL PUSH1 0x20 ADD ADD SWAP1 PUSH20 0xFFFFFFFFFFFFFFFFFFFFFFFFFFFFFFFFFFFFFFFF AND SWAP1 DUP2 PUSH20 0xFFFFFFFFFFFFFFFFFFFFFFFFFFFFFFFFFFFFFFFF AND DUP2 MSTORE POP POP PUSH1 0x10 PUSH1 0x0 SWAP1 SLOAD SWAP1 PUSH2 0x100 EXP SWAP1 DIV PUSH20 0xFFFFFFFFFFFFFFFFFFFFFFFFFFFFFFFFFFFFFFFF AND PUSH20 0xFFFFFFFFFFFFFFFFFFFFFFFFFFFFFFFFFFFFFFFF AND PUSH4 0xAD5C4648 PUSH1 0x40 MLOAD DUP2 PUSH4 0xFFFFFFFF AND PUSH1 0xE0 SHL DUP2 MSTORE PUSH1 0x4 ADD PUSH1 0x20 PUSH1 0x40 MLOAD DUP1 DUP4 SUB DUP2 DUP7 GAS STATICCALL ISZERO DUP1 ISZERO PUSH2 0x1FC3 JUMPI RETURNDATASIZE PUSH1 0x0 DUP1 RETURNDATACOPY RETURNDATASIZE PUSH1 0x0 REVERT JUMPDEST POP POP POP POP PUSH1 0x40 MLOAD RETURNDATASIZE PUSH1 0x1F NOT PUSH1 0x1F DUP3 ADD AND DUP3 ADD DUP1 PUSH1 0x40 MSTORE POP DUP2 ADD SWAP1 PUSH2 0x1FE7 SWAP2 SWAP1 PUSH2 0x319C JUMP JUMPDEST DUP2 PUSH1 0x1 DUP2 MLOAD DUP2 LT PUSH2 0x1FFB JUMPI PUSH2 0x1FFA PUSH2 0x3158 JUMP JUMPDEST JUMPDEST PUSH1 0x20 MUL PUSH1 0x20 ADD ADD SWAP1 PUSH20 0xFFFFFFFFFFFFFFFFFFFFFFFFFFFFFFFFFFFFFFFF AND SWAP1 DUP2 PUSH20 0xFFFFFFFFFFFFFFFFFFFFFFFFFFFFFFFFFFFFFFFF AND DUP2 MSTORE POP POP PUSH32 0xFFFFFFFFFFFFFFFFFFFFFFFFFFFFFFFFFFFFFFFFFFFFFFFFFFFFFFFFFFFFFFFF PUSH1 0x1 PUSH1 0x0 ADDRESS PUSH20 0xFFFFFFFFFFFFFFFFFFFFFFFFFFFFFFFFFFFFFFFF AND PUSH20 0xFFFFFFFFFFFFFFFFFFFFFFFFFFFFFFFFFFFFFFFF AND DUP2 MSTORE PUSH1 0x20 ADD SWAP1 DUP2 MSTORE PUSH1 0x20 ADD PUSH1 0x0 KECCAK256 PUSH1 0x0 PUSH1 0x10 PUSH1 0x0 SWAP1 SLOAD SWAP1 PUSH2 0x100 EXP SWAP1 DIV PUSH20 0xFFFFFFFFFFFFFFFFFFFFFFFFFFFFFFFFFFFFFFFF AND PUSH20 0xFFFFFFFFFFFFFFFFFFFFFFFFFFFFFFFFFFFFFFFF AND PUSH20 0xFFFFFFFFFFFFFFFFFFFFFFFFFFFFFFFFFFFFFFFF AND DUP2 MSTORE PUSH1 0x20 ADD SWAP1 DUP2 MSTORE PUSH1 0x20 ADD PUSH1 0x0 KECCAK256 SLOAD EQ PUSH2 0x21BE JUMPI PUSH32 0xFFFFFFFFFFFFFFFFFFFFFFFFFFFFFFFFFFFFFFFFFFFFFFFFFFFFFFFFFFFFFFFF PUSH1 0x1 PUSH1 0x0 ADDRESS PUSH20 0xFFFFFFFFFFFFFFFFFFFFFFFFFFFFFFFFFFFFFFFF AND PUSH20 0xFFFFFFFFFFFFFFFFFFFFFFFFFFFFFFFFFFFFFFFF AND DUP2 MSTORE PUSH1 0x20 ADD SWAP1 DUP2 MSTORE PUSH1 0x20 ADD PUSH1 0x0 KECCAK256 PUSH1 0x0 PUSH1 0x10 PUSH1 0x0 SWAP1 SLOAD SWAP1 PUSH2 0x100 EXP SWAP1 DIV PUSH20 0xFFFFFFFFFFFFFFFFFFFFFFFFFFFFFFFFFFFFFFFF AND PUSH20 0xFFFFFFFFFFFFFFFFFFFFFFFFFFFFFFFFFFFFFFFF AND PUSH20 0xFFFFFFFFFFFFFFFFFFFFFFFFFFFFFFFFFFFFFFFF AND DUP2 MSTORE PUSH1 0x20 ADD SWAP1 DUP2 MSTORE PUSH1 0x20 ADD PUSH1 0x0 KECCAK256 DUP2 SWAP1 SSTORE POP JUMPDEST PUSH1 0x10 PUSH1 0x0 SWAP1 SLOAD SWAP1 PUSH2 0x100 EXP SWAP1 DIV PUSH20 0xFFFFFFFFFFFFFFFFFFFFFFFFFFFFFFFFFFFFFFFF AND PUSH20 0xFFFFFFFFFFFFFFFFFFFFFFFFFFFFFFFFFFFFFFFF AND PUSH4 0x791AC947 DUP4 PUSH1 0x0 DUP5 ADDRESS TIMESTAMP PUSH1 0x40 MLOAD DUP7 PUSH4 0xFFFFFFFF AND PUSH1 0xE0 SHL DUP2 MSTORE PUSH1 0x4 ADD PUSH2 0x2222 SWAP6 SWAP5 SWAP4 SWAP3 SWAP2 SWAP1 PUSH2 0x32C2 JUMP JUMPDEST PUSH1 0x0 PUSH1 0x40 MLOAD DUP1 DUP4 SUB DUP2 PUSH1 0x0 DUP8 DUP1 EXTCODESIZE ISZERO DUP1 ISZERO PUSH2 0x223C JUMPI PUSH1 0x0 DUP1 REVERT JUMPDEST POP GAS CALL SWAP3 POP POP POP DUP1 ISZERO PUSH2 0x224D JUMPI POP PUSH1 0x1 JUMPDEST PUSH2 0x2257 JUMPI POP PUSH2 0x22F3 JUMP JUMPDEST PUSH1 0x0 DUP1 SELFBALANCE GT ISZERO PUSH2 0x22F0 JUMPI PUSH1 0xF PUSH1 0x0 SWAP1 SLOAD SWAP1 PUSH2 0x100 EXP SWAP1 DIV PUSH20 0xFFFFFFFFFFFFFFFFFFFFFFFFFFFFFFFFFFFFFFFF AND PUSH20 0xFFFFFFFFFFFFFFFFFFFFFFFFFFFFFFFFFFFFFFFF AND SELFBALANCE PUSH1 0x40 MLOAD PUSH2 0x22A7 SWAP1 PUSH2 0x334D JUMP JUMPDEST PUSH1 0x0 PUSH1 0x40 MLOAD DUP1 DUP4 SUB DUP2 DUP6 DUP8 GAS CALL SWAP3 POP POP POP RETURNDATASIZE DUP1 PUSH1 0x0 DUP2 EQ PUSH2 0x22E4 JUMPI PUSH1 0x40 MLOAD SWAP2 POP PUSH1 0x1F NOT PUSH1 0x3F RETURNDATASIZE ADD AND DUP3 ADD PUSH1 0x40 MSTORE RETURNDATASIZE DUP3 MSTORE RETURNDATASIZE PUSH1 0x0 PUSH1 0x20 DUP5 ADD RETURNDATACOPY PUSH2 0x22E9 JUMP JUMPDEST PUSH1 0x60 SWAP2 POP JUMPDEST POP POP DUP1 SWAP2 POP POP JUMPDEST POP POP JUMPDEST PUSH1 0x0 PUSH1 0x11 PUSH1 0x14 PUSH2 0x100 EXP DUP2 SLOAD DUP2 PUSH1 0xFF MUL NOT AND SWAP1 DUP4 ISZERO ISZERO MUL OR SWAP1 SSTORE POP POP JUMP JUMPDEST PUSH1 0x0 DUP1 PUSH1 0x0 SWAP1 SLOAD SWAP1 PUSH2 0x100 EXP SWAP1 DIV PUSH20 0xFFFFFFFFFFFFFFFFFFFFFFFFFFFFFFFFFFFFFFFF AND SWAP1 POP DUP2 PUSH1 0x0 DUP1 PUSH2 0x100 EXP DUP2 SLOAD DUP2 PUSH20 0xFFFFFFFFFFFFFFFFFFFFFFFFFFFFFFFFFFFFFFFF MUL NOT AND SWAP1 DUP4 PUSH20 0xFFFFFFFFFFFFFFFFFFFFFFFFFFFFFFFFFFFFFFFF AND MUL OR SWAP1 SSTORE POP DUP2 PUSH20 0xFFFFFFFFFFFFFFFFFFFFFFFFFFFFFFFFFFFFFFFF AND DUP2 PUSH20 0xFFFFFFFFFFFFFFFFFFFFFFFFFFFFFFFFFFFFFFFF AND PUSH32 0x8BE0079C531659141344CD1FD0A4F28419497F9722A3DAAFE3B4186F6B6457E0 PUSH1 0x40 MLOAD PUSH1 0x40 MLOAD DUP1 SWAP2 SUB SWAP1 LOG3 POP POP JUMP JUMPDEST PUSH1 0x0 DUP1 PUSH1 0x3 PUSH1 0x0 DUP5 PUSH20 0xFFFFFFFFFFFFFFFFFFFFFFFFFFFFFFFFFFFFFFFF AND PUSH20 0xFFFFFFFFFFFFFFFFFFFFFFFFFFFFFFFFFFFFFFFF AND DUP2 MSTORE PUSH1 0x20 ADD SWAP1 DUP2 MSTORE PUSH1 0x20 ADD PUSH1 0x0 KECCAK256 PUSH1 0x0 SWAP1 SLOAD SWAP1 PUSH2 0x100 EXP SWAP1 DIV PUSH1 0xFF AND DUP1 ISZERO PUSH2 0x247B JUMPI POP PUSH1 0x3 PUSH1 0x0 DUP6 PUSH20 0xFFFFFFFFFFFFFFFFFFFFFFFFFFFFFFFFFFFFFFFF AND PUSH20 0xFFFFFFFFFFFFFFFFFFFFFFFFFFFFFFFFFFFFFFFF AND DUP2 MSTORE PUSH1 0x20 ADD SWAP1 DUP2 MSTORE PUSH1 0x20 ADD PUSH1 0x0 KECCAK256 PUSH1 0x0 SWAP1 SLOAD SWAP1 PUSH2 0x100 EXP SWAP1 DIV PUSH1 0xFF AND ISZERO JUMPDEST SWAP1 POP DUP1 SWAP2 POP POP SWAP3 SWAP2 POP POP JUMP JUMPDEST PUSH1 0x0 DUP1 DUP4 PUSH2 0x2496 JUMPI PUSH1 0x0 PUSH2 0x24B5 JUMP JUMPDEST PUSH2 0x249F DUP6 PUSH2 0x125A JUMP JUMPDEST PUSH2 0x24B0 JUMPI PUSH2 0x24AB PUSH2 0x25C1 JUMP JUMPDEST PUSH2 0x24B4 JUMP JUMPDEST PUSH1 0xB SLOAD JUMPDEST JUMPDEST SWAP1 POP PUSH1 0x0 DUP2 SUB PUSH2 0x24C8 JUMPI DUP3 SWAP2 POP POP PUSH2 0x25BA JUMP JUMPDEST PUSH1 0x0 PUSH1 0x64 DUP3 DUP6 PUSH2 0x24D8 SWAP2 SWAP1 PUSH2 0x3362 JUMP JUMPDEST PUSH2 0x24E2 SWAP2 SWAP1 PUSH2 0x33D3 JUMP JUMPDEST SWAP1 POP PUSH1 0x0 DUP2 GT ISZERO PUSH2 0x25A9 JUMPI DUP1 PUSH1 0x4 PUSH1 0x0 ADDRESS PUSH20 0xFFFFFFFFFFFFFFFFFFFFFFFFFFFFFFFFFFFFFFFF AND PUSH20 0xFFFFFFFFFFFFFFFFFFFFFFFFFFFFFFFFFFFFFFFF AND DUP2 MSTORE PUSH1 0x20 ADD SWAP1 DUP2 MSTORE PUSH1 0x20 ADD PUSH1 0x0 KECCAK256 PUSH1 0x0 DUP3 DUP3 SLOAD PUSH2 0x253C SWAP2 SWAP1 PUSH2 0x3089 JUMP JUMPDEST SWAP3 POP POP DUP2 SWAP1 SSTORE POP ADDRESS PUSH20 0xFFFFFFFFFFFFFFFFFFFFFFFFFFFFFFFFFFFFFFFF AND DUP7 PUSH20 0xFFFFFFFFFFFFFFFFFFFFFFFFFFFFFFFFFFFFFFFF AND PUSH32 0xDDF252AD1BE2C89B69C2B068FC378DAA952BA7F163C4A11628F55A4DF523B3EF DUP4 PUSH1 0x40 MLOAD PUSH2 0x25A0 SWAP2 SWAP1 PUSH2 0x2606 JUMP JUMPDEST PUSH1 0x40 MLOAD DUP1 SWAP2 SUB SWAP1 LOG3 JUMPDEST DUP1 DUP5 PUSH2 0x25B5 SWAP2 SWAP1 PUSH2 0x29CF JUMP JUMPDEST SWAP3 POP POP POP JUMPDEST SWAP4 SWAP3 POP POP POP JUMP JUMPDEST PUSH1 0x0 PUSH3 0x93A80 PUSH1 0xC SLOAD PUSH2 0x25D4 SWAP2 SWAP1 PUSH2 0x3089 JUMP JUMPDEST TIMESTAMP GT PUSH2 0x25E4 JUMPI PUSH1 0xA SLOAD SWAP1 POP PUSH2 0x25EA JUMP JUMPDEST PUSH1 0x9 SLOAD SWAP1 POP JUMPDEST SWAP1 JUMP JUMPDEST PUSH1 0x0 DUP2 SWAP1 POP SWAP2 SWAP1 POP JUMP JUMPDEST PUSH2 0x2600 DUP2 PUSH2 0x25ED JUMP JUMPDEST DUP3 MSTORE POP POP JUMP JUMPDEST PUSH1 0x0 PUSH1 0x20 DUP3 ADD SWAP1 POP PUSH2 0x261B PUSH1 0x0 DUP4 ADD DUP5 PUSH2 0x25F7 JUMP JUMPDEST SWAP3 SWAP2 POP POP JUMP JUMPDEST PUSH1 0x0 DUP2 MLOAD SWAP1 POP SWAP2 SWAP1 POP JUMP JUMPDEST PUSH1 0x0 DUP3 DUP3 MSTORE PUSH1 0x20 DUP3 ADD SWAP1 POP SWAP3 SWAP2 POP POP JUMP JUMPDEST PUSH1 0x0 JUMPDEST DUP4 DUP2 LT ISZERO PUSH2 0x265B JUMPI DUP1 DUP3 ADD MLOAD DUP2 DUP5 ADD MSTORE PUSH1 0x20 DUP2 ADD SWAP1 POP PUSH2 0x2640 JUMP JUMPDEST PUSH1 0x0 DUP5 DUP5 ADD MSTORE POP POP POP POP JUMP JUMPDEST PUSH1 0x0 PUSH1 0x1F NOT PUSH1 0x1F DUP4 ADD AND SWAP1 POP SWAP2 SWAP1 POP JUMP JUMPDEST PUSH1 0x0 PUSH2 0x2683 DUP3 PUSH2 0x2621 JUMP JUMPDEST PUSH2 0x268D DUP2 DUP6 PUSH2 0x262C JUMP JUMPDEST SWAP4 POP PUSH2 0x269D DUP2 DUP6 PUSH1 0x20 DUP7 ADD PUSH2 0x263D JUMP JUMPDEST PUSH2 0x26A6 DUP2 PUSH2 0x2667 JUMP JUMPDEST DUP5 ADD SWAP2 POP POP SWAP3 SWAP2 POP POP JUMP JUMPDEST PUSH1 0x0 PUSH1 0x20 DUP3 ADD SWAP1 POP DUP2 DUP2 SUB PUSH1 0x0 DUP4 ADD MSTORE PUSH2 0x26CB DUP2 DUP5 PUSH2 0x2678 JUMP JUMPDEST SWAP1 POP SWAP3 SWAP2 POP POP JUMP JUMPDEST PUSH1 0x0 DUP1 REVERT JUMPDEST PUSH1 0x0 PUSH20 0xFFFFFFFFFFFFFFFFFFFFFFFFFFFFFFFFFFFFFFFF DUP3 AND SWAP1 POP SWAP2 SWAP1 POP JUMP JUMPDEST PUSH1 0x0 PUSH2 0x2703 DUP3 PUSH2 0x26D8 JUMP JUMPDEST SWAP1 POP SWAP2 SWAP1 POP JUMP JUMPDEST PUSH2 0x2713 DUP2 PUSH2 0x26F8 JUMP JUMPDEST DUP2 EQ PUSH2 0x271E JUMPI PUSH1 0x0 DUP1 REVERT JUMPDEST POP JUMP JUMPDEST PUSH1 0x0 DUP2 CALLDATALOAD SWAP1 POP PUSH2 0x2730 DUP2 PUSH2 0x270A JUMP JUMPDEST SWAP3 SWAP2 POP POP JUMP JUMPDEST PUSH2 0x273F DUP2 PUSH2 0x25ED JUMP JUMPDEST DUP2 EQ PUSH2 0x274A JUMPI PUSH1 0x0 DUP1 REVERT JUMPDEST POP JUMP JUMPDEST PUSH1 0x0 DUP2 CALLDATALOAD SWAP1 POP PUSH2 0x275C DUP2 PUSH2 0x2736 JUMP JUMPDEST SWAP3 SWAP2 POP POP JUMP JUMPDEST PUSH1 0x0 DUP1 PUSH1 0x40 DUP4 DUP6 SUB SLT ISZERO PUSH2 0x2779 JUMPI PUSH2 0x2778 PUSH2 0x26D3 JUMP JUMPDEST JUMPDEST PUSH1 0x0 PUSH2 0x2787 DUP6 DUP3 DUP7 ADD PUSH2 0x2721 JUMP JUMPDEST SWAP3 POP POP PUSH1 0x20 PUSH2 0x2798 DUP6 DUP3 DUP7 ADD PUSH2 0x274D JUMP JUMPDEST SWAP2 POP POP SWAP3 POP SWAP3 SWAP1 POP JUMP JUMPDEST PUSH1 0x0 DUP2 ISZERO ISZERO SWAP1 POP SWAP2 SWAP1 POP JUMP JUMPDEST PUSH2 0x27B7 DUP2 PUSH2 0x27A2 JUMP JUMPDEST DUP3 MSTORE POP POP JUMP JUMPDEST PUSH1 0x0 PUSH1 0x20 DUP3 ADD SWAP1 POP PUSH2 0x27D2 PUSH1 0x0 DUP4 ADD DUP5 PUSH2 0x27AE JUMP JUMPDEST SWAP3 SWAP2 POP POP JUMP JUMPDEST PUSH1 0x0 DUP1 PUSH1 0x0 PUSH1 0x60 DUP5 DUP7 SUB SLT ISZERO PUSH2 0x27F1 JUMPI PUSH2 0x27F0 PUSH2 0x26D3 JUMP JUMPDEST JUMPDEST PUSH1 0x0 PUSH2 0x27FF DUP7 DUP3 DUP8 ADD PUSH2 0x2721 JUMP JUMPDEST SWAP4 POP POP PUSH1 0x20 PUSH2 0x2810 DUP7 DUP3 DUP8 ADD PUSH2 0x2721 JUMP JUMPDEST SWAP3 POP POP PUSH1 0x40 PUSH2 0x2821 DUP7 DUP3 DUP8 ADD PUSH2 0x274D JUMP JUMPDEST SWAP2 POP POP SWAP3 POP SWAP3 POP SWAP3 JUMP JUMPDEST PUSH1 0x0 PUSH1 0x20 DUP3 DUP5 SUB SLT ISZERO PUSH2 0x2841 JUMPI PUSH2 0x2840 PUSH2 0x26D3 JUMP JUMPDEST JUMPDEST PUSH1 0x0 PUSH2 0x284F DUP5 DUP3 DUP6 ADD PUSH2 0x2721 JUMP JUMPDEST SWAP2 POP POP SWAP3 SWAP2 POP POP JUMP JUMPDEST PUSH1 0x0 PUSH1 0x20 DUP3 DUP5 SUB SLT ISZERO PUSH2 0x286E JUMPI PUSH2 0x286D PUSH2 0x26D3 JUMP JUMPDEST JUMPDEST PUSH1 0x0 PUSH2 0x287C DUP5 DUP3 DUP6 ADD PUSH2 0x274D JUMP JUMPDEST SWAP2 POP POP SWAP3 SWAP2 POP POP JUMP JUMPDEST PUSH1 0x0 PUSH1 0xFF DUP3 AND SWAP1 POP SWAP2 SWAP1 POP JUMP JUMPDEST PUSH2 0x289B DUP2 PUSH2 0x2885 JUMP JUMPDEST DUP3 MSTORE POP POP JUMP JUMPDEST PUSH1 0x0 PUSH1 0x20 DUP3 ADD SWAP1 POP PUSH2 0x28B6 PUSH1 0x0 DUP4 ADD DUP5 PUSH2 0x2892 JUMP JUMPDEST SWAP3 SWAP2 POP POP JUMP JUMPDEST PUSH2 0x28C5 DUP2 PUSH2 0x26F8 JUMP JUMPDEST DUP3 MSTORE POP POP JUMP JUMPDEST PUSH1 0x0 PUSH1 0x20 DUP3 ADD SWAP1 POP PUSH2 0x28E0 PUSH1 0x0 DUP4 ADD DUP5 PUSH2 0x28BC JUMP JUMPDEST SWAP3 SWAP2 POP POP JUMP JUMPDEST PUSH1 0x0 DUP2 SWAP1 POP SWAP2 SWAP1 POP JUMP JUMPDEST PUSH1 0x0 PUSH2 0x290B PUSH2 0x2906 PUSH2 0x2901 DUP5 PUSH2 0x26D8 JUMP JUMPDEST PUSH2 0x28E6 JUMP JUMPDEST PUSH2 0x26D8 JUMP JUMPDEST SWAP1 POP SWAP2 SWAP1 POP JUMP JUMPDEST PUSH1 0x0 PUSH2 0x291D DUP3 PUSH2 0x28F0 JUMP JUMPDEST SWAP1 POP SWAP2 SWAP1 POP JUMP JUMPDEST PUSH1 0x0 PUSH2 0x292F DUP3 PUSH2 0x2912 JUMP JUMPDEST SWAP1 POP SWAP2 SWAP1 POP JUMP JUMPDEST PUSH2 0x293F DUP2 PUSH2 0x2924 JUMP JUMPDEST DUP3 MSTORE POP POP JUMP JUMPDEST PUSH1 0x0 PUSH1 0x20 DUP3 ADD SWAP1 POP PUSH2 0x295A PUSH1 0x0 DUP4 ADD DUP5 PUSH2 0x2936 JUMP JUMPDEST SWAP3 SWAP2 POP POP JUMP JUMPDEST PUSH1 0x0 DUP1 PUSH1 0x40 DUP4 DUP6 SUB SLT ISZERO PUSH2 0x2977 JUMPI PUSH2 0x2976 PUSH2 0x26D3 JUMP JUMPDEST JUMPDEST PUSH1 0x0 PUSH2 0x2985 DUP6 DUP3 DUP7 ADD PUSH2 0x2721 JUMP JUMPDEST SWAP3 POP POP PUSH1 0x20 PUSH2 0x2996 DUP6 DUP3 DUP7 ADD PUSH2 0x2721 JUMP JUMPDEST SWAP2 POP POP SWAP3 POP SWAP3 SWAP1 POP JUMP JUMPDEST PUSH32 0x4E487B7100000000000000000000000000000000000000000000000000000000 PUSH1 0x0 MSTORE PUSH1 0x11 PUSH1 0x4 MSTORE PUSH1 0x24 PUSH1 0x0 REVERT JUMPDEST PUSH1 0x0 PUSH2 0x29DA DUP3 PUSH2 0x25ED JUMP JUMPDEST SWAP2 POP PUSH2 0x29E5 DUP4 PUSH2 0x25ED JUMP JUMPDEST SWAP3 POP DUP3 DUP3 SUB SWAP1 POP DUP2 DUP2 GT ISZERO PUSH2 0x29FD JUMPI PUSH2 0x29FC PUSH2 0x29A0 JUMP JUMPDEST JUMPDEST SWAP3 SWAP2 POP POP JUMP JUMPDEST PUSH32 0x4F6E6C7920417574686F726973656420616464726573732063616E206D6F6469 PUSH1 0x0 DUP3 ADD MSTORE PUSH32 0x667920746865204A617265646665652100000000000000000000000000000000 PUSH1 0x20 DUP3 ADD MSTORE POP JUMP JUMPDEST PUSH1 0x0 PUSH2 0x2A5F PUSH1 0x30 DUP4 PUSH2 0x262C JUMP JUMPDEST SWAP2 POP PUSH2 0x2A6A DUP3 PUSH2 0x2A03 JUMP JUMPDEST PUSH1 0x40 DUP3 ADD SWAP1 POP SWAP2 SWAP1 POP JUMP JUMPDEST PUSH1 0x0 PUSH1 0x20 DUP3 ADD SWAP1 POP DUP2 DUP2 SUB PUSH1 0x0 DUP4 ADD MSTORE PUSH2 0x2A8E DUP2 PUSH2 0x2A52 JUMP JUMPDEST SWAP1 POP SWAP2 SWAP1 POP JUMP JUMPDEST PUSH32 0x466565206D757374206265203C3D203130300000000000000000000000000000 PUSH1 0x0 DUP3 ADD MSTORE POP JUMP JUMPDEST PUSH1 0x0 PUSH2 0x2ACB PUSH1 0x12 DUP4 PUSH2 0x262C JUMP JUMPDEST SWAP2 POP PUSH2 0x2AD6 DUP3 PUSH2 0x2A95 JUMP JUMPDEST PUSH1 0x20 DUP3 ADD SWAP1 POP SWAP2 SWAP1 POP JUMP JUMPDEST PUSH1 0x0 PUSH1 0x20 DUP3 ADD SWAP1 POP DUP2 DUP2 SUB PUSH1 0x0 DUP4 ADD MSTORE PUSH2 0x2AFA DUP2 PUSH2 0x2ABE JUMP JUMPDEST SWAP1 POP SWAP2 SWAP1 POP JUMP JUMPDEST PUSH32 0x43616C6C6572206973206E6F742074686520617574686F726973656420616464 PUSH1 0x0 DUP3 ADD MSTORE PUSH32 0x7265737321000000000000000000000000000000000000000000000000000000 PUSH1 0x20 DUP3 ADD MSTORE POP JUMP JUMPDEST PUSH1 0x0 PUSH2 0x2B5D PUSH1 0x25 DUP4 PUSH2 0x262C JUMP JUMPDEST SWAP2 POP PUSH2 0x2B68 DUP3 PUSH2 0x2B01 JUMP JUMPDEST PUSH1 0x40 DUP3 ADD SWAP1 POP SWAP2 SWAP1 POP JUMP JUMPDEST PUSH1 0x0 PUSH1 0x20 DUP3 ADD SWAP1 POP DUP2 DUP2 SUB PUSH1 0x0 DUP4 ADD MSTORE PUSH2 0x2B8C DUP2 PUSH2 0x2B50 JUMP JUMPDEST SWAP1 POP SWAP2 SWAP1 POP JUMP JUMPDEST PUSH32 0x416D6F756E74206D757374206265203E3D203130300000000000000000000000 PUSH1 0x0 DUP3 ADD MSTORE POP JUMP JUMPDEST PUSH1 0x0 PUSH2 0x2BC9 PUSH1 0x15 DUP4 PUSH2 0x262C JUMP JUMPDEST SWAP2 POP PUSH2 0x2BD4 DUP3 PUSH2 0x2B93 JUMP JUMPDEST PUSH1 0x20 DUP3 ADD SWAP1 POP SWAP2 SWAP1 POP JUMP JUMPDEST PUSH1 0x0 PUSH1 0x20 DUP3 ADD SWAP1 POP DUP2 DUP2 SUB PUSH1 0x0 DUP4 ADD MSTORE PUSH2 0x2BF8 DUP2 PUSH2 0x2BBC JUMP JUMPDEST SWAP1 POP SWAP2 SWAP1 POP JUMP JUMPDEST PUSH32 0x4F776E61626C653A2063616C6C6572206973206E6F7420746865206F776E6572 PUSH1 0x0 DUP3 ADD MSTORE POP JUMP JUMPDEST PUSH1 0x0 PUSH2 0x2C35 PUSH1 0x20 DUP4 PUSH2 0x262C JUMP JUMPDEST SWAP2 POP PUSH2 0x2C40 DUP3 PUSH2 0x2BFF JUMP JUMPDEST PUSH1 0x20 DUP3 ADD SWAP1 POP SWAP2 SWAP1 POP JUMP JUMPDEST PUSH1 0x0 PUSH1 0x20 DUP3 ADD SWAP1 POP DUP2 DUP2 SUB PUSH1 0x0 DUP4 ADD MSTORE PUSH2 0x2C64 DUP2 PUSH2 0x2C28 JUMP JUMPDEST SWAP1 POP SWAP2 SWAP1 POP JUMP JUMPDEST PUSH32 0x496E76616C696420616464726573730000000000000000000000000000000000 PUSH1 0x0 DUP3 ADD MSTORE POP JUMP JUMPDEST PUSH1 0x0 PUSH2 0x2CA1 PUSH1 0xF DUP4 PUSH2 0x262C JUMP JUMPDEST SWAP2 POP PUSH2 0x2CAC DUP3 PUSH2 0x2C6B JUMP JUMPDEST PUSH1 0x20 DUP3 ADD SWAP1 POP SWAP2 SWAP1 POP JUMP JUMPDEST PUSH1 0x0 PUSH1 0x20 DUP3 ADD SWAP1 POP DUP2 DUP2 SUB PUSH1 0x0 DUP4 ADD MSTORE PUSH2 0x2CD0 DUP2 PUSH2 0x2C94 JUMP JUMPDEST SWAP1 POP SWAP2 SWAP1 POP JUMP JUMPDEST PUSH32 0x4F776E61626C653A206E6577206F776E657220697320746865207A65726F2061 PUSH1 0x0 DUP3 ADD MSTORE PUSH32 0x6464726573730000000000000000000000000000000000000000000000000000 PUSH1 0x20 DUP3 ADD MSTORE POP JUMP JUMPDEST PUSH1 0x0 PUSH2 0x2D33 PUSH1 0x26 DUP4 PUSH2 0x262C JUMP JUMPDEST SWAP2 POP PUSH2 0x2D3E DUP3 PUSH2 0x2CD7 JUMP JUMPDEST PUSH1 0x40 DUP3 ADD SWAP1 POP SWAP2 SWAP1 POP JUMP JUMPDEST PUSH1 0x0 PUSH1 0x20 DUP3 ADD SWAP1 POP DUP2 DUP2 SUB PUSH1 0x0 DUP4 ADD MSTORE PUSH2 0x2D62 DUP2 PUSH2 0x2D26 JUMP JUMPDEST SWAP1 POP SWAP2 SWAP1 POP JUMP JUMPDEST PUSH32 0x45524332303A205A65726F204164647265737300000000000000000000000000 PUSH1 0x0 DUP3 ADD MSTORE POP JUMP JUMPDEST PUSH1 0x0 PUSH2 0x2D9F PUSH1 0x13 DUP4 PUSH2 0x262C JUMP JUMPDEST SWAP2 POP PUSH2 0x2DAA DUP3 PUSH2 0x2D69 JUMP JUMPDEST PUSH1 0x20 DUP3 ADD SWAP1 POP SWAP2 SWAP1 POP JUMP JUMPDEST PUSH1 0x0 PUSH1 0x20 DUP3 ADD SWAP1 POP DUP2 DUP2 SUB PUSH1 0x0 DUP4 ADD MSTORE PUSH2 0x2DCE DUP2 PUSH2 0x2D92 JUMP JUMPDEST SWAP1 POP SWAP2 SWAP1 POP JUMP JUMPDEST PUSH32 0x45524332303A207472616E7366657220746F20746865207A65726F2061646472 PUSH1 0x0 DUP3 ADD MSTORE PUSH32 0x6573730000000000000000000000000000000000000000000000000000000000 PUSH1 0x20 DUP3 ADD MSTORE POP JUMP JUMPDEST PUSH1 0x0 PUSH2 0x2E31 PUSH1 0x23 DUP4 PUSH2 0x262C JUMP JUMPDEST SWAP2 POP PUSH2 0x2E3C DUP3 PUSH2 0x2DD5 JUMP JUMPDEST PUSH1 0x40 DUP3 ADD SWAP1 POP SWAP2 SWAP1 POP JUMP JUMPDEST PUSH1 0x0 PUSH1 0x20 DUP3 ADD SWAP1 POP DUP2 DUP2 SUB PUSH1 0x0 DUP4 ADD MSTORE PUSH2 0x2E60 DUP2 PUSH2 0x2E24 JUMP JUMPDEST SWAP1 POP SWAP2 SWAP1 POP JUMP JUMPDEST PUSH32 0x45524332303A207472616E736665722066726F6D20746865207A65726F206164 PUSH1 0x0 DUP3 ADD MSTORE PUSH32 0x6472657373000000000000000000000000000000000000000000000000000000 PUSH1 0x20 DUP3 ADD MSTORE POP JUMP JUMPDEST PUSH1 0x0 PUSH2 0x2EC3 PUSH1 0x25 DUP4 PUSH2 0x262C JUMP JUMPDEST SWAP2 POP PUSH2 0x2ECE DUP3 PUSH2 0x2E67 JUMP JUMPDEST PUSH1 0x40 DUP3 ADD SWAP1 POP SWAP2 SWAP1 POP JUMP JUMPDEST PUSH1 0x0 PUSH1 0x20 DUP3 ADD SWAP1 POP DUP2 DUP2 SUB PUSH1 0x0 DUP4 ADD MSTORE PUSH2 0x2EF2 DUP2 PUSH2 0x2EB6 JUMP JUMPDEST SWAP1 POP SWAP2 SWAP1 POP JUMP JUMPDEST PUSH32 0x5472616E7366657220616D6F756E74206D757374206265206772656174657220 PUSH1 0x0 DUP3 ADD MSTORE PUSH32 0x7468616E207A65726F0000000000000000000000000000000000000000000000 PUSH1 0x20 DUP3 ADD MSTORE POP JUMP JUMPDEST PUSH1 0x0 PUSH2 0x2F55 PUSH1 0x29 DUP4 PUSH2 0x262C JUMP JUMPDEST SWAP2 POP PUSH2 0x2F60 DUP3 PUSH2 0x2EF9 JUMP JUMPDEST PUSH1 0x40 DUP3 ADD SWAP1 POP SWAP2 SWAP1 POP JUMP JUMPDEST PUSH1 0x0 PUSH1 0x20 DUP3 ADD SWAP1 POP DUP2 DUP2 SUB PUSH1 0x0 DUP4 ADD MSTORE PUSH2 0x2F84 DUP2 PUSH2 0x2F48 JUMP JUMPDEST SWAP1 POP SWAP2 SWAP1 POP JUMP JUMPDEST PUSH32 0x4F6E6C79206F6E65207472616E736665722070657220626C6F636B20616C6C6F PUSH1 0x0 DUP3 ADD MSTORE PUSH32 0x7765642E00000000000000000000000000000000000000000000000000000000 PUSH1 0x20 DUP3 ADD MSTORE POP JUMP JUMPDEST PUSH1 0x0 PUSH2 0x2FE7 PUSH1 0x24 DUP4 PUSH2 0x262C JUMP JUMPDEST SWAP2 POP PUSH2 0x2FF2 DUP3 PUSH2 0x2F8B JUMP JUMPDEST PUSH1 0x40 DUP3 ADD SWAP1 POP SWAP2 SWAP1 POP JUMP JUMPDEST PUSH1 0x0 PUSH1 0x20 DUP3 ADD SWAP1 POP DUP2 DUP2 SUB PUSH1 0x0 DUP4 ADD MSTORE PUSH2 0x3016 DUP2 PUSH2 0x2FDA JUMP JUMPDEST SWAP1 POP SWAP2 SWAP1 POP JUMP JUMPDEST PUSH32 0x4578636565647320746865205F6D61785478416D6F756E742E00000000000000 PUSH1 0x0 DUP3 ADD MSTORE POP JUMP JUMPDEST PUSH1 0x0 PUSH2 0x3053 PUSH1 0x19 DUP4 PUSH2 0x262C JUMP JUMPDEST SWAP2 POP PUSH2 0x305E DUP3 PUSH2 0x301D JUMP JUMPDEST PUSH1 0x20 DUP3 ADD SWAP1 POP SWAP2 SWAP1 POP JUMP JUMPDEST PUSH1 0x0 PUSH1 0x20 DUP3 ADD SWAP1 POP DUP2 DUP2 SUB PUSH1 0x0 DUP4 ADD MSTORE PUSH2 0x3082 DUP2 PUSH2 0x3046 JUMP JUMPDEST SWAP1 POP SWAP2 SWAP1 POP JUMP JUMPDEST PUSH1 0x0 PUSH2 0x3094 DUP3 PUSH2 0x25ED JUMP JUMPDEST SWAP2 POP PUSH2 0x309F DUP4 PUSH2 0x25ED JUMP JUMPDEST SWAP3 POP DUP3 DUP3 ADD SWAP1 POP DUP1 DUP3 GT ISZERO PUSH2 0x30B7 JUMPI PUSH2 0x30B6 PUSH2 0x29A0 JUMP JUMPDEST JUMPDEST SWAP3 SWAP2 POP POP JUMP JUMPDEST PUSH32 0x4578636565647320746865206D617857616C6C657453697A652E000000000000 PUSH1 0x0 DUP3 ADD MSTORE POP JUMP JUMPDEST PUSH1 0x0 PUSH2 0x30F3 PUSH1 0x1A DUP4 PUSH2 0x262C JUMP JUMPDEST SWAP2 POP PUSH2 0x30FE DUP3 PUSH2 0x30BD JUMP JUMPDEST PUSH1 0x20 DUP3 ADD SWAP1 POP SWAP2 SWAP1 POP JUMP JUMPDEST PUSH1 0x0 PUSH1 0x20 DUP3 ADD SWAP1 POP DUP2 DUP2 SUB PUSH1 0x0 DUP4 ADD MSTORE PUSH2 0x3122 DUP2 PUSH2 0x30E6 JUMP JUMPDEST SWAP1 POP SWAP2 SWAP1 POP JUMP JUMPDEST PUSH32 0x4E487B7100000000000000000000000000000000000000000000000000000000 PUSH1 0x0 MSTORE PUSH1 0x41 PUSH1 0x4 MSTORE PUSH1 0x24 PUSH1 0x0 REVERT JUMPDEST PUSH32 0x4E487B7100000000000000000000000000000000000000000000000000000000 PUSH1 0x0 MSTORE PUSH1 0x32 PUSH1 0x4 MSTORE PUSH1 0x24 PUSH1 0x0 REVERT JUMPDEST PUSH1 0x0 DUP2 MLOAD SWAP1 POP PUSH2 0x3196 DUP2 PUSH2 0x270A JUMP JUMPDEST SWAP3 SWAP2 POP POP JUMP JUMPDEST PUSH1 0x0 PUSH1 0x20 DUP3 DUP5 SUB SLT ISZERO PUSH2 0x31B2 JUMPI PUSH2 0x31B1 PUSH2 0x26D3 JUMP JUMPDEST JUMPDEST PUSH1 0x0 PUSH2 0x31C0 DUP5 DUP3 DUP6 ADD PUSH2 0x3187 JUMP JUMPDEST SWAP2 POP POP SWAP3 SWAP2 POP POP JUMP JUMPDEST PUSH1 0x0 DUP2 SWAP1 POP SWAP2 SWAP1 POP JUMP JUMPDEST PUSH1 0x0 PUSH2 0x31EE PUSH2 0x31E9 PUSH2 0x31E4 DUP5 PUSH2 0x31C9 JUMP JUMPDEST PUSH2 0x28E6 JUMP JUMPDEST PUSH2 0x25ED JUMP JUMPDEST SWAP1 POP SWAP2 SWAP1 POP JUMP JUMPDEST PUSH2 0x31FE DUP2 PUSH2 0x31D3 JUMP JUMPDEST DUP3 MSTORE POP POP JUMP JUMPDEST PUSH1 0x0 DUP2 MLOAD SWAP1 POP SWAP2 SWAP1 POP JUMP JUMPDEST PUSH1 0x0 DUP3 DUP3 MSTORE PUSH1 0x20 DUP3 ADD SWAP1 POP SWAP3 SWAP2 POP POP JUMP JUMPDEST PUSH1 0x0 DUP2 SWAP1 POP PUSH1 0x20 DUP3 ADD SWAP1 POP SWAP2 SWAP1 POP JUMP JUMPDEST PUSH2 0x3239 DUP2 PUSH2 0x26F8 JUMP JUMPDEST DUP3 MSTORE POP POP JUMP JUMPDEST PUSH1 0x0 PUSH2 0x324B DUP4 DUP4 PUSH2 0x3230 JUMP JUMPDEST PUSH1 0x20 DUP4 ADD SWAP1 POP SWAP3 SWAP2 POP POP JUMP JUMPDEST PUSH1 0x0 PUSH1 0x20 DUP3 ADD SWAP1 POP SWAP2 SWAP1 POP JUMP JUMPDEST PUSH1 0x0 PUSH2 0x326F DUP3 PUSH2 0x3204 JUMP JUMPDEST PUSH2 0x3279 DUP2 DUP6 PUSH2 0x320F JUMP JUMPDEST SWAP4 POP PUSH2 0x3284 DUP4 PUSH2 0x3220 JUMP JUMPDEST DUP1 PUSH1 0x0 JUMPDEST DUP4 DUP2 LT ISZERO PUSH2 0x32B5 JUMPI DUP2 MLOAD PUSH2 0x329C DUP9 DUP3 PUSH2 0x323F JUMP JUMPDEST SWAP8 POP PUSH2 0x32A7 DUP4 PUSH2 0x3257 JUMP JUMPDEST SWAP3 POP POP PUSH1 0x1 DUP2 ADD SWAP1 POP PUSH2 0x3288 JUMP JUMPDEST POP DUP6 SWAP4 POP POP POP POP SWAP3 SWAP2 POP POP JUMP JUMPDEST PUSH1 0x0 PUSH1 0xA0 DUP3 ADD SWAP1 POP PUSH2 0x32D7 PUSH1 0x0 DUP4 ADD DUP9 PUSH2 0x25F7 JUMP JUMPDEST PUSH2 0x32E4 PUSH1 0x20 DUP4 ADD DUP8 PUSH2 0x31F5 JUMP JUMPDEST DUP2 DUP2 SUB PUSH1 0x40 DUP4 ADD MSTORE PUSH2 0x32F6 DUP2 DUP7 PUSH2 0x3264 JUMP JUMPDEST SWAP1 POP PUSH2 0x3305 PUSH1 0x60 DUP4 ADD DUP6 PUSH2 0x28BC JUMP JUMPDEST PUSH2 0x3312 PUSH1 0x80 DUP4 ADD DUP5 PUSH2 0x25F7 JUMP JUMPDEST SWAP7 SWAP6 POP POP POP POP POP POP JUMP JUMPDEST PUSH1 0x0 DUP2 SWAP1 POP SWAP3 SWAP2 POP POP JUMP JUMPDEST POP JUMP JUMPDEST PUSH1 0x0 PUSH2 0x3337 PUSH1 0x0 DUP4 PUSH2 0x331C JUMP JUMPDEST SWAP2 POP PUSH2 0x3342 DUP3 PUSH2 0x3327 JUMP JUMPDEST PUSH1 0x0 DUP3 ADD SWAP1 POP SWAP2 SWAP1 POP JUMP JUMPDEST PUSH1 0x0 PUSH2 0x3358 DUP3 PUSH2 0x332A JUMP JUMPDEST SWAP2 POP DUP2 SWAP1 POP SWAP2 SWAP1 POP JUMP JUMPDEST PUSH1 0x0 PUSH2 0x336D DUP3 PUSH2 0x25ED JUMP JUMPDEST SWAP2 POP PUSH2 0x3378 DUP4 PUSH2 0x25ED JUMP JUMPDEST SWAP3 POP DUP3 DUP3 MUL PUSH2 0x3386 DUP2 PUSH2 0x25ED JUMP JUMPDEST SWAP2 POP DUP3 DUP3 DIV DUP5 EQ DUP4 ISZERO OR PUSH2 0x339D JUMPI PUSH2 0x339C PUSH2 0x29A0 JUMP JUMPDEST JUMPDEST POP SWAP3 SWAP2 POP POP JUMP JUMPDEST PUSH32 0x4E487B7100000000000000000000000000000000000000000000000000000000 PUSH1 0x0 MSTORE PUSH1 0x12 PUSH1 0x4 MSTORE PUSH1 0x24 PUSH1 0x0 REVERT JUMPDEST PUSH1 0x0 PUSH2 0x33DE DUP3 PUSH2 0x25ED JUMP JUMPDEST SWAP2 POP PUSH2 0x33E9 DUP4 PUSH2 0x25ED JUMP JUMPDEST SWAP3 POP DUP3 PUSH2 0x33F9 JUMPI PUSH2 0x33F8 PUSH2 0x33A4 JUMP JUMPDEST JUMPDEST DUP3 DUP3 DIV SWAP1 POP SWAP3 SWAP2 POP POP JUMP INVALID LOG2 PUSH5 0x6970667358 0x22 SLT KECCAK256 DUP10 CALLDATASIZE DELEGATECALL 0x4D CREATE2 ORIGIN 0xCD 0x27 PUSH26 0xBAAC527F84F3A3481E8DACC09EE58986A2C54CC703965264736F PUSH13 0x63430008130033000000000000 "
				},
				"gasEstimates": {
					"creation": {
						"codeDepositCost": "2674000",
						"executionCost": "infinite",
						"totalCost": "infinite"
					},
					"external": {
						"DEAD_WALLET()": "423",
						"_maxTxAmount()": "2562",
						"_maxWalletSize()": "2519",
						"addJaredAddress(address)": "27106",
						"addtoNofee(address)": "27061",
						"allowance(address,address)": "infinite",
						"approve(address,uint256)": "23323",
						"balanceOf(address)": "2908",
						"changeThreshold(uint256)": "infinite",
						"decimals()": "412",
						"fee_denominator()": "395",
						"getCirculatingSupply()": "infinite",
						"getOwner()": "2603",
						"isJaredAddress(address)": "2950",
						"isNoFeeWallet(address)": "2951",
						"isNofeeAddress(address)": "2928",
						"lpPair()": "2582",
						"manualSwap()": "infinite",
						"name()": "infinite",
						"owner()": "2590",
						"removeJaredAddress(address)": "27093",
						"removefromtNofee(address)": "27072",
						"renounceOwnership()": "30463",
						"sellfee()": "2539",
						"setJaredSellFee(uint256)": "24828",
						"swapRouter()": "infinite",
						"swapThreshold()": "2476",
						"symbol()": "infinite",
						"tempsellfee()": "2496",
						"totalSupply()": "473",
						"transfer(address,uint256)": "infinite",
						"transferDelayEnabled()": "2582",
						"transferFrom(address,address,uint256)": "infinite",
						"transferOwnership(address)": "30852"
					},
					"internal": {
						"_approve(address,address,uint256)": "infinite",
						"_transfer(address,address,uint256)": "infinite",
						"calculateSellFee()": "infinite",
						"internalSwap(uint256)": "infinite",
						"is_sell(address,address)": "4529",
						"takeTaxes(address,bool,uint256)": "infinite"
					}
				},
				"methodIdentifiers": {
					"DEAD_WALLET()": "a01c3483",
					"_maxTxAmount()": "7d1db4a5",
					"_maxWalletSize()": "8f9a55c0",
					"addJaredAddress(address)": "a2747da2",
					"addtoNofee(address)": "ce004a07",
					"allowance(address,address)": "dd62ed3e",
					"approve(address,uint256)": "095ea7b3",
					"balanceOf(address)": "70a08231",
					"changeThreshold(uint256)": "694e80c3",
					"decimals()": "313ce567",
					"fee_denominator()": "dc9d75b0",
					"getCirculatingSupply()": "2b112e49",
					"getOwner()": "893d20e8",
					"isJaredAddress(address)": "c2e4ef79",
					"isNoFeeWallet(address)": "27889862",
					"isNofeeAddress(address)": "c226de76",
					"lpPair()": "452ed4f1",
					"manualSwap()": "51bc3c85",
					"name()": "06fdde03",
					"owner()": "8da5cb5b",
					"removeJaredAddress(address)": "771af866",
					"removefromtNofee(address)": "4c1b4031",
					"renounceOwnership()": "715018a6",
					"sellfee()": "e9451f5f",
					"setJaredSellFee(uint256)": "30db2c12",
					"swapRouter()": "c31c9c07",
					"swapThreshold()": "0445b667",
					"symbol()": "95d89b41",
					"tempsellfee()": "a07d38dc",
					"totalSupply()": "18160ddd",
					"transfer(address,uint256)": "a9059cbb",
					"transferDelayEnabled()": "c876d0b9",
					"transferFrom(address,address,uint256)": "23b872dd",
					"transferOwnership(address)": "f2fde38b"
				}
			},
			"storageLayout": {
				"storage": [
					{
						"astId": 33,
						"contract": "contracts/oatfinalprod.sol:OneAnonataTime",
						"label": "_owner",
						"offset": 0,
						"slot": "0",
						"type": "t_address"
					},
					{
						"astId": 498,
						"contract": "contracts/oatfinalprod.sol:OneAnonataTime",
						"label": "_allowances",
						"offset": 0,
						"slot": "1",
						"type": "t_mapping(t_address,t_mapping(t_address,t_uint256))"
					},
					{
						"astId": 502,
						"contract": "contracts/oatfinalprod.sol:OneAnonataTime",
						"label": "_noFee",
						"offset": 0,
						"slot": "2",
						"type": "t_mapping(t_address,t_bool)"
					},
					{
						"astId": 506,
						"contract": "contracts/oatfinalprod.sol:OneAnonataTime",
						"label": "isLpPair",
						"offset": 0,
						"slot": "3",
						"type": "t_mapping(t_address,t_bool)"
					},
					{
						"astId": 510,
						"contract": "contracts/oatfinalprod.sol:OneAnonataTime",
						"label": "balance",
						"offset": 0,
						"slot": "4",
						"type": "t_mapping(t_address,t_uint256)"
					},
					{
						"astId": 514,
						"contract": "contracts/oatfinalprod.sol:OneAnonataTime",
						"label": "_holderLastTransferTimestamp",
						"offset": 0,
						"slot": "5",
						"type": "t_mapping(t_address,t_uint256)"
					},
					{
						"astId": 518,
						"contract": "contracts/oatfinalprod.sol:OneAnonataTime",
						"label": "_jareDs",
						"offset": 0,
						"slot": "6",
						"type": "t_mapping(t_address,t_bool)"
					},
					{
						"astId": 521,
						"contract": "contracts/oatfinalprod.sol:OneAnonataTime",
						"label": "transferDelayEnabled",
						"offset": 0,
						"slot": "7",
						"type": "t_bool"
					},
					{
						"astId": 531,
						"contract": "contracts/oatfinalprod.sol:OneAnonataTime",
						"label": "swapThreshold",
						"offset": 0,
						"slot": "8",
						"type": "t_uint256"
					},
					{
						"astId": 534,
						"contract": "contracts/oatfinalprod.sol:OneAnonataTime",
						"label": "sellfee",
						"offset": 0,
						"slot": "9",
						"type": "t_uint256"
					},
					{
						"astId": 537,
						"contract": "contracts/oatfinalprod.sol:OneAnonataTime",
						"label": "tempsellfee",
						"offset": 0,
						"slot": "10",
						"type": "t_uint256"
					},
					{
						"astId": 540,
						"contract": "contracts/oatfinalprod.sol:OneAnonataTime",
						"label": "jaredsellfee",
						"offset": 0,
						"slot": "11",
						"type": "t_uint256"
					},
					{
						"astId": 542,
						"contract": "contracts/oatfinalprod.sol:OneAnonataTime",
						"label": "contractDeployTime",
						"offset": 0,
						"slot": "12",
						"type": "t_uint256"
					},
					{
						"astId": 547,
						"contract": "contracts/oatfinalprod.sol:OneAnonataTime",
						"label": "_maxTxAmount",
						"offset": 0,
						"slot": "13",
						"type": "t_uint256"
					},
					{
						"astId": 549,
						"contract": "contracts/oatfinalprod.sol:OneAnonataTime",
						"label": "_maxWalletSize",
						"offset": 0,
						"slot": "14",
						"type": "t_uint256"
					},
					{
						"astId": 555,
						"contract": "contracts/oatfinalprod.sol:OneAnonataTime",
						"label": "_oatFee",
						"offset": 0,
						"slot": "15",
						"type": "t_address_payable"
					},
					{
						"astId": 558,
						"contract": "contracts/oatfinalprod.sol:OneAnonataTime",
						"label": "swapRouter",
						"offset": 0,
						"slot": "16",
						"type": "t_contract(IRouter02)307"
					},
					{
						"astId": 572,
						"contract": "contracts/oatfinalprod.sol:OneAnonataTime",
						"label": "lpPair",
						"offset": 0,
						"slot": "17",
						"type": "t_address"
					},
					{
						"astId": 574,
						"contract": "contracts/oatfinalprod.sol:OneAnonataTime",
						"label": "inSwap",
						"offset": 20,
						"slot": "17",
						"type": "t_bool"
					}
				],
				"types": {
					"t_address": {
						"encoding": "inplace",
						"label": "address",
						"numberOfBytes": "20"
					},
					"t_address_payable": {
						"encoding": "inplace",
						"label": "address payable",
						"numberOfBytes": "20"
					},
					"t_bool": {
						"encoding": "inplace",
						"label": "bool",
						"numberOfBytes": "1"
					},
					"t_contract(IRouter02)307": {
						"encoding": "inplace",
						"label": "contract IRouter02",
						"numberOfBytes": "20"
					},
					"t_mapping(t_address,t_bool)": {
						"encoding": "mapping",
						"key": "t_address",
						"label": "mapping(address => bool)",
						"numberOfBytes": "32",
						"value": "t_bool"
					},
					"t_mapping(t_address,t_mapping(t_address,t_uint256))": {
						"encoding": "mapping",
						"key": "t_address",
						"label": "mapping(address => mapping(address => uint256))",
						"numberOfBytes": "32",
						"value": "t_mapping(t_address,t_uint256)"
					},
					"t_mapping(t_address,t_uint256)": {
						"encoding": "mapping",
						"key": "t_address",
						"label": "mapping(address => uint256)",
						"numberOfBytes": "32",
						"value": "t_uint256"
					},
					"t_uint256": {
						"encoding": "inplace",
						"label": "uint256",
						"numberOfBytes": "32"
					}
				}
			},
			"userdoc": {
				"kind": "user",
				"methods": {},
				"version": 1
			}
		}
	}
}