{
	"contracts/staking2.sol": {
		"TokenStaking": {
			"abi": [
				{
					"anonymous": false,
					"inputs": [
						{
							"indexed": true,
							"internalType": "address",
							"name": "user",
							"type": "address"
						},
						{
							"indexed": false,
							"internalType": "uint256",
							"name": "amount",
							"type": "uint256"
						}
					],
					"name": "ClaimReward",
					"type": "event"
				},
				{
					"anonymous": false,
					"inputs": [
						{
							"indexed": true,
							"internalType": "address",
							"name": "user",
							"type": "address"
						},
						{
							"indexed": false,
							"internalType": "uint256",
							"name": "amount",
							"type": "uint256"
						}
					],
					"name": "EarlyUnStakeFee",
					"type": "event"
				},
				{
					"anonymous": false,
					"inputs": [
						{
							"indexed": false,
							"internalType": "uint8",
							"name": "version",
							"type": "uint8"
						}
					],
					"name": "Initialized",
					"type": "event"
				},
				{
					"anonymous": false,
					"inputs": [
						{
							"indexed": true,
							"internalType": "address",
							"name": "previousOwner",
							"type": "address"
						},
						{
							"indexed": true,
							"internalType": "address",
							"name": "newOwner",
							"type": "address"
						}
					],
					"name": "OwnershipTransferred",
					"type": "event"
				},
				{
					"anonymous": false,
					"inputs": [
						{
							"indexed": true,
							"internalType": "address",
							"name": "user",
							"type": "address"
						},
						{
							"indexed": false,
							"internalType": "uint256",
							"name": "amount",
							"type": "uint256"
						}
					],
					"name": "Stake",
					"type": "event"
				},
				{
					"anonymous": false,
					"inputs": [
						{
							"indexed": true,
							"internalType": "address",
							"name": "user",
							"type": "address"
						},
						{
							"indexed": false,
							"internalType": "uint256",
							"name": "amount",
							"type": "uint256"
						}
					],
					"name": "UnStake",
					"type": "event"
				},
				{
					"inputs": [],
					"name": "APY_RATE_CHANGE_THRESHOLD",
					"outputs": [
						{
							"internalType": "uint256",
							"name": "",
							"type": "uint256"
						}
					],
					"stateMutability": "view",
					"type": "function"
				},
				{
					"inputs": [],
					"name": "PERCENTAGE_DENOMINATOR",
					"outputs": [
						{
							"internalType": "uint256",
							"name": "",
							"type": "uint256"
						}
					],
					"stateMutability": "view",
					"type": "function"
				},
				{
					"inputs": [],
					"name": "claimReward",
					"outputs": [],
					"stateMutability": "nonpayable",
					"type": "function"
				},
				{
					"inputs": [],
					"name": "getAPY",
					"outputs": [
						{
							"internalType": "uint256",
							"name": "",
							"type": "uint256"
						}
					],
					"stateMutability": "view",
					"type": "function"
				},
				{
					"inputs": [],
					"name": "getEarlyUnstakeFeePercentage",
					"outputs": [
						{
							"internalType": "uint256",
							"name": "",
							"type": "uint256"
						}
					],
					"stateMutability": "view",
					"type": "function"
				},
				{
					"inputs": [],
					"name": "getMaxStakingTokenLimit",
					"outputs": [
						{
							"internalType": "uint256",
							"name": "",
							"type": "uint256"
						}
					],
					"stateMutability": "view",
					"type": "function"
				},
				{
					"inputs": [],
					"name": "getMinimumStakingAmount",
					"outputs": [
						{
							"internalType": "uint256",
							"name": "",
							"type": "uint256"
						}
					],
					"stateMutability": "view",
					"type": "function"
				},
				{
					"inputs": [],
					"name": "getStakeDays",
					"outputs": [
						{
							"internalType": "uint256",
							"name": "",
							"type": "uint256"
						}
					],
					"stateMutability": "view",
					"type": "function"
				},
				{
					"inputs": [],
					"name": "getStakeEndDate",
					"outputs": [
						{
							"internalType": "uint256",
							"name": "",
							"type": "uint256"
						}
					],
					"stateMutability": "view",
					"type": "function"
				},
				{
					"inputs": [],
					"name": "getStakeStartDate",
					"outputs": [
						{
							"internalType": "uint256",
							"name": "",
							"type": "uint256"
						}
					],
					"stateMutability": "view",
					"type": "function"
				},
				{
					"inputs": [],
					"name": "getStakingStatus",
					"outputs": [
						{
							"internalType": "bool",
							"name": "",
							"type": "bool"
						}
					],
					"stateMutability": "view",
					"type": "function"
				},
				{
					"inputs": [],
					"name": "getTotalStakedTokens",
					"outputs": [
						{
							"internalType": "uint256",
							"name": "",
							"type": "uint256"
						}
					],
					"stateMutability": "view",
					"type": "function"
				},
				{
					"inputs": [],
					"name": "getTotalUsers",
					"outputs": [
						{
							"internalType": "uint256",
							"name": "",
							"type": "uint256"
						}
					],
					"stateMutability": "view",
					"type": "function"
				},
				{
					"inputs": [
						{
							"internalType": "address",
							"name": "userAddress",
							"type": "address"
						}
					],
					"name": "getUser",
					"outputs": [
						{
							"components": [
								{
									"internalType": "uint256",
									"name": "stakeAmount",
									"type": "uint256"
								},
								{
									"internalType": "uint256",
									"name": "rewardAmount",
									"type": "uint256"
								},
								{
									"internalType": "uint256",
									"name": "lastStakeTime",
									"type": "uint256"
								},
								{
									"internalType": "uint256",
									"name": "lastRewardCalculationTime",
									"type": "uint256"
								},
								{
									"internalType": "uint256",
									"name": "rewardsClaimedSoFar",
									"type": "uint256"
								}
							],
							"internalType": "struct TokenStaking.User",
							"name": "",
							"type": "tuple"
						}
					],
					"stateMutability": "view",
					"type": "function"
				},
				{
					"inputs": [],
					"name": "getUserEstimatedRewards",
					"outputs": [
						{
							"internalType": "uint256",
							"name": "",
							"type": "uint256"
						}
					],
					"stateMutability": "view",
					"type": "function"
				},
				{
					"inputs": [],
					"name": "getWithdrawableAmount",
					"outputs": [
						{
							"internalType": "uint256",
							"name": "",
							"type": "uint256"
						}
					],
					"stateMutability": "view",
					"type": "function"
				},
				{
					"inputs": [
						{
							"internalType": "address",
							"name": "owner_",
							"type": "address"
						},
						{
							"internalType": "address",
							"name": "tokenAddress_",
							"type": "address"
						},
						{
							"internalType": "uint256",
							"name": "apyRate_",
							"type": "uint256"
						},
						{
							"internalType": "uint256",
							"name": "minimumStakingAmount_",
							"type": "uint256"
						},
						{
							"internalType": "uint256",
							"name": "maxStakeTokenLimit_",
							"type": "uint256"
						},
						{
							"internalType": "uint256",
							"name": "stakeStartDate_",
							"type": "uint256"
						},
						{
							"internalType": "uint256",
							"name": "stakeEndDate_",
							"type": "uint256"
						},
						{
							"internalType": "uint256",
							"name": "stakeDays_",
							"type": "uint256"
						},
						{
							"internalType": "uint256",
							"name": "earlyUnstakeFeePercentage_",
							"type": "uint256"
						}
					],
					"name": "initialize",
					"outputs": [],
					"stateMutability": "nonpayable",
					"type": "function"
				},
				{
					"inputs": [
						{
							"internalType": "address",
							"name": "_user",
							"type": "address"
						}
					],
					"name": "isStakeHolder",
					"outputs": [
						{
							"internalType": "bool",
							"name": "",
							"type": "bool"
						}
					],
					"stateMutability": "view",
					"type": "function"
				},
				{
					"inputs": [],
					"name": "owner",
					"outputs": [
						{
							"internalType": "address",
							"name": "",
							"type": "address"
						}
					],
					"stateMutability": "view",
					"type": "function"
				},
				{
					"inputs": [],
					"name": "renounceOwnership",
					"outputs": [],
					"stateMutability": "nonpayable",
					"type": "function"
				},
				{
					"inputs": [
						{
							"internalType": "uint256",
							"name": "_amount",
							"type": "uint256"
						}
					],
					"name": "stake",
					"outputs": [],
					"stateMutability": "nonpayable",
					"type": "function"
				},
				{
					"inputs": [
						{
							"internalType": "uint256",
							"name": "amount",
							"type": "uint256"
						},
						{
							"internalType": "address",
							"name": "user",
							"type": "address"
						}
					],
					"name": "stakeForUser",
					"outputs": [],
					"stateMutability": "nonpayable",
					"type": "function"
				},
				{
					"inputs": [],
					"name": "toggleStakingStatus",
					"outputs": [],
					"stateMutability": "nonpayable",
					"type": "function"
				},
				{
					"inputs": [
						{
							"internalType": "address",
							"name": "newOwner",
							"type": "address"
						}
					],
					"name": "transferOwnership",
					"outputs": [],
					"stateMutability": "nonpayable",
					"type": "function"
				},
				{
					"inputs": [
						{
							"internalType": "uint256",
							"name": "_amount",
							"type": "uint256"
						}
					],
					"name": "unstake",
					"outputs": [],
					"stateMutability": "nonpayable",
					"type": "function"
				},
				{
					"inputs": [
						{
							"internalType": "uint256",
							"name": "newPercentage",
							"type": "uint256"
						}
					],
					"name": "updateEarlyUnstakeFeePercentage",
					"outputs": [],
					"stateMutability": "nonpayable",
					"type": "function"
				},
				{
					"inputs": [
						{
							"internalType": "uint256",
							"name": "newAmount",
							"type": "uint256"
						}
					],
					"name": "updateMaximumStakingAmount",
					"outputs": [],
					"stateMutability": "nonpayable",
					"type": "function"
				},
				{
					"inputs": [
						{
							"internalType": "uint256",
							"name": "newAmount",
							"type": "uint256"
						}
					],
					"name": "updateMinimumStakingAmount",
					"outputs": [],
					"stateMutability": "nonpayable",
					"type": "function"
				},
				{
					"inputs": [
						{
							"internalType": "uint256",
							"name": "newDate",
							"type": "uint256"
						}
					],
					"name": "updateStakingEndDate",
					"outputs": [],
					"stateMutability": "nonpayable",
					"type": "function"
				},
				{
					"inputs": [
						{
							"internalType": "uint256",
							"name": "amount",
							"type": "uint256"
						}
					],
					"name": "withdraw",
					"outputs": [],
					"stateMutability": "nonpayable",
					"type": "function"
				}
			],
			"devdoc": {
				"events": {
					"Initialized(uint8)": {
						"details": "Triggered when the contract has been initialized or reinitialized."
					}
				},
				"kind": "dev",
				"methods": {
					"getAPY()": {
						"returns": {
							"_0": "Current APY Rate"
						}
					},
					"getUser(address)": {
						"params": {
							"userAddress": "User's address to get details of"
						},
						"returns": {
							"_0": "User Struct"
						}
					},
					"getUserEstimatedRewards()": {
						"returns": {
							"_0": "msg.sender's estimated reward amount"
						}
					},
					"isStakeHolder(address)": {
						"params": {
							"_user": "Address of the user to check"
						},
						"returns": {
							"_0": "True if user is a stakeholder, false otherwise"
						}
					},
					"owner()": {
						"details": "Returns the address of the current owner."
					},
					"renounceOwnership()": {
						"details": "Leaves the contract without owner. It will not be possible to call `onlyOwner` functions anymore. Can only be called by the current owner. NOTE: Renouncing ownership will leave the contract without an owner, thereby removing any functionality that is only available to the owner."
					},
					"stake(uint256)": {
						"params": {
							"_amount": "Amount of tokens to be staked"
						}
					},
					"stakeForUser(uint256,address)": {
						"details": "This function can be used to stake tokens for specific user",
						"params": {
							"amount": "the amount to stake",
							"user": "user's address"
						}
					},
					"toggleStakingStatus()": {
						"details": "This function can be used to toggle staking status"
					},
					"transferOwnership(address)": {
						"details": "Transfers ownership of the contract to a new account (`newOwner`). Can only be called by the current owner."
					},
					"unstake(uint256)": {
						"params": {
							"_amount": "Amount of tokens to be unstaked"
						}
					},
					"withdraw(uint256)": {
						"details": "This function can be used to withdraw the available tokens with this contract to the caller",
						"params": {
							"amount": "the amount to withdraw"
						}
					}
				},
				"version": 1
			},
			"evm": {
				"assembly": "    /* \"contracts/staking2.sol\":23671:37707  contract TokenStaking is Ownable, ReentrancyGuard, Initializable {... */\n  mstore(0x40, 0x80)\n  callvalue\n  dup1\n  iszero\n  tag_1\n  jumpi\n  0x00\n  dup1\n  revert\ntag_1:\n  pop\n    /* \"contracts/staking2.sol\":18982:19014  _transferOwnership(_msgSender()) */\n  tag_5\n    /* \"contracts/staking2.sol\":19001:19013  _msgSender() */\n  tag_6\n    /* \"contracts/staking2.sol\":19001:19011  _msgSender */\n  shl(0x20, tag_7)\n    /* \"contracts/staking2.sol\":19001:19013  _msgSender() */\n  0x20\n  shr\n  jump\t// in\ntag_6:\n    /* \"contracts/staking2.sol\":18982:19000  _transferOwnership */\n  shl(0x20, tag_8)\n    /* \"contracts/staking2.sol\":18982:19014  _transferOwnership(_msgSender()) */\n  0x20\n  shr\n  jump\t// in\ntag_5:\n    /* \"contracts/staking2.sol\":16142:16143  1 */\n  0x01\n    /* \"contracts/staking2.sol\":16253:16260  _status */\n  dup1\n    /* \"contracts/staking2.sol\":16253:16275  _status = _NOT_ENTERED */\n  dup2\n  swap1\n  sstore\n  pop\n    /* \"contracts/staking2.sol\":23671:37707  contract TokenStaking is Ownable, ReentrancyGuard, Initializable {... */\n  jump(tag_10)\n    /* \"contracts/staking2.sol\":17812:17910  function _msgSender() internal view virtual returns (address) {... */\ntag_7:\n    /* \"contracts/staking2.sol\":17865:17872  address */\n  0x00\n    /* \"contracts/staking2.sol\":17892:17902  msg.sender */\n  caller\n    /* \"contracts/staking2.sol\":17885:17902  return msg.sender */\n  swap1\n  pop\n    /* \"contracts/staking2.sol\":17812:17910  function _msgSender() internal view virtual returns (address) {... */\n  swap1\n  jump\t// out\n    /* \"contracts/staking2.sol\":20528:20719  function _transferOwnership(address newOwner) internal virtual {... */\ntag_8:\n    /* \"contracts/staking2.sol\":20602:20618  address oldOwner */\n  0x00\n    /* \"contracts/staking2.sol\":20621:20627  _owner */\n  dup1\n  0x00\n  swap1\n  sload\n  swap1\n  0x0100\n  exp\n  swap1\n  div\n  0xffffffffffffffffffffffffffffffffffffffff\n  and\n    /* \"contracts/staking2.sol\":20602:20627  address oldOwner = _owner */\n  swap1\n  pop\n    /* \"contracts/staking2.sol\":20647:20655  newOwner */\n  dup2\n    /* \"contracts/staking2.sol\":20638:20644  _owner */\n  0x00\n  dup1\n    /* \"contracts/staking2.sol\":20638:20655  _owner = newOwner */\n  0x0100\n  exp\n  dup2\n  sload\n  dup2\n  0xffffffffffffffffffffffffffffffffffffffff\n  mul\n  not\n  and\n  swap1\n  dup4\n  0xffffffffffffffffffffffffffffffffffffffff\n  and\n  mul\n  or\n  swap1\n  sstore\n  pop\n    /* \"contracts/staking2.sol\":20702:20710  newOwner */\n  dup2\n    /* \"contracts/staking2.sol\":20671:20711  OwnershipTransferred(oldOwner, newOwner) */\n  0xffffffffffffffffffffffffffffffffffffffff\n  and\n    /* \"contracts/staking2.sol\":20692:20700  oldOwner */\n  dup2\n    /* \"contracts/staking2.sol\":20671:20711  OwnershipTransferred(oldOwner, newOwner) */\n  0xffffffffffffffffffffffffffffffffffffffff\n  and\n  0x8be0079c531659141344cd1fd0a4f28419497f9722a3daafe3b4186f6b6457e0\n  mload(0x40)\n  mload(0x40)\n  dup1\n  swap2\n  sub\n  swap1\n  log3\n    /* \"contracts/staking2.sol\":20591:20719  {... */\n  pop\n    /* \"contracts/staking2.sol\":20528:20719  function _transferOwnership(address newOwner) internal virtual {... */\n  pop\n  jump\t// out\n    /* \"contracts/staking2.sol\":23671:37707  contract TokenStaking is Ownable, ReentrancyGuard, Initializable {... */\ntag_10:\n  dataSize(sub_0)\n  dup1\n  dataOffset(sub_0)\n  0x00\n  codecopy\n  0x00\n  return\nstop\n\nsub_0: assembly {\n        /* \"contracts/staking2.sol\":23671:37707  contract TokenStaking is Ownable, ReentrancyGuard, Initializable {... */\n      mstore(0x40, 0x80)\n      callvalue\n      dup1\n      iszero\n      tag_1\n      jumpi\n      0x00\n      dup1\n      revert\n    tag_1:\n      pop\n      jumpi(tag_2, lt(calldatasize, 0x04))\n      shr(0xe0, calldataload(0x00))\n      dup1\n      0x845738cb\n      gt\n      tag_33\n      jumpi\n      dup1\n      0xb88a802f\n      gt\n      tag_34\n      jumpi\n      dup1\n      0xd2cbf7ad\n      gt\n      tag_35\n      jumpi\n      dup1\n      0xd2cbf7ad\n      eq\n      tag_29\n      jumpi\n      dup1\n      0xf0116b74\n      eq\n      tag_30\n      jumpi\n      dup1\n      0xf18cce76\n      eq\n      tag_31\n      jumpi\n      dup1\n      0xf2fde38b\n      eq\n      tag_32\n      jumpi\n      jump(tag_2)\n    tag_35:\n      dup1\n      0xb88a802f\n      eq\n      tag_25\n      jumpi\n      dup1\n      0xbb8febc6\n      eq\n      tag_26\n      jumpi\n      dup1\n      0xc5d62b18\n      eq\n      tag_27\n      jumpi\n      dup1\n      0xcab9b8fb\n      eq\n      tag_28\n      jumpi\n      jump(tag_2)\n    tag_34:\n      dup1\n      0x90be10cc\n      gt\n      tag_36\n      jumpi\n      dup1\n      0x90be10cc\n      eq\n      tag_21\n      jumpi\n      dup1\n      0x9be572f6\n      eq\n      tag_22\n      jumpi\n      dup1\n      0xa694fc3a\n      eq\n      tag_23\n      jumpi\n      dup1\n      0xb3cd4254\n      eq\n      tag_24\n      jumpi\n      jump(tag_2)\n    tag_36:\n      dup1\n      0x845738cb\n      eq\n      tag_18\n      jumpi\n      dup1\n      0x8585d138\n      eq\n      tag_19\n      jumpi\n      dup1\n      0x8da5cb5b\n      eq\n      tag_20\n      jumpi\n      jump(tag_2)\n    tag_33:\n      dup1\n      0x51d18598\n      gt\n      tag_37\n      jumpi\n      dup1\n      0x6f77926b\n      gt\n      tag_38\n      jumpi\n      dup1\n      0x6f77926b\n      eq\n      tag_14\n      jumpi\n      dup1\n      0x70607f5d\n      eq\n      tag_15\n      jumpi\n      dup1\n      0x715018a6\n      eq\n      tag_16\n      jumpi\n      dup1\n      0x7bb9769d\n      eq\n      tag_17\n      jumpi\n      jump(tag_2)\n    tag_38:\n      dup1\n      0x51d18598\n      eq\n      tag_10\n      jumpi\n      dup1\n      0x55f0fe42\n      eq\n      tag_11\n      jumpi\n      dup1\n      0x5e39cd75\n      eq\n      tag_12\n      jumpi\n      dup1\n      0x63512159\n      eq\n      tag_13\n      jumpi\n      jump(tag_2)\n    tag_37:\n      dup1\n      0x2e1a7d4d\n      gt\n      tag_39\n      jumpi\n      dup1\n      0x2e1a7d4d\n      eq\n      tag_6\n      jumpi\n      dup1\n      0x3e093572\n      eq\n      tag_7\n      jumpi\n      dup1\n      0x42a23945\n      eq\n      tag_8\n      jumpi\n      dup1\n      0x4d55b178\n      eq\n      tag_9\n      jumpi\n      jump(tag_2)\n    tag_39:\n      dup1\n      0x8e3252\n      eq\n      tag_3\n      jumpi\n      dup1\n      0x0c4ca4a6\n      eq\n      tag_4\n      jumpi\n      dup1\n      0x2e17de78\n      eq\n      tag_5\n      jumpi\n    tag_2:\n      0x00\n      dup1\n      revert\n        /* \"contracts/staking2.sol\":27879:27981  function getStakeStartDate() external view returns (uint256) {... */\n    tag_3:\n      tag_40\n      tag_41\n      jump\t// in\n    tag_40:\n      mload(0x40)\n      tag_42\n      swap2\n      swap1\n      tag_43\n      jump\t// in\n    tag_42:\n      mload(0x40)\n      dup1\n      swap2\n      sub\n      swap1\n      return\n        /* \"contracts/staking2.sol\":31017:31141  function updateMaximumStakingAmount(uint256 newAmount) external onlyOwner {... */\n    tag_4:\n      tag_44\n      0x04\n      dup1\n      calldatasize\n      sub\n      dup2\n      add\n      swap1\n      tag_45\n      swap2\n      swap1\n      tag_46\n      jump\t// in\n    tag_45:\n      tag_47\n      jump\t// in\n    tag_44:\n      stop\n        /* \"contracts/staking2.sol\":34415:35597  function unstake(uint256 _amount) external nonReentrant whenTreasuryHasBalance(_amount) {... */\n    tag_5:\n      tag_48\n      0x04\n      dup1\n      calldatasize\n      sub\n      dup2\n      add\n      swap1\n      tag_49\n      swap2\n      swap1\n      tag_46\n      jump\t// in\n    tag_49:\n      tag_50\n      jump\t// in\n    tag_48:\n      stop\n        /* \"contracts/staking2.sol\":32440:32681  function withdraw(uint256 amount) external onlyOwner nonReentrant {... */\n    tag_6:\n      tag_51\n      0x04\n      dup1\n      calldatasize\n      sub\n      dup2\n      add\n      swap1\n      tag_52\n      swap2\n      swap1\n      tag_46\n      jump\t// in\n    tag_52:\n      tag_53\n      jump\t// in\n    tag_51:\n      stop\n        /* \"contracts/staking2.sol\":31232:31340  function updateStakingEndDate(uint256 newDate) external onlyOwner {... */\n    tag_7:\n      tag_54\n      0x04\n      dup1\n      calldatasize\n      sub\n      dup2\n      add\n      swap1\n      tag_55\n      swap2\n      swap1\n      tag_46\n      jump\t// in\n    tag_55:\n      tag_56\n      jump\t// in\n    tag_54:\n      stop\n        /* \"contracts/staking2.sol\":27432:27546  function getMinimumStakingAmount() external view returns (uint256) {... */\n    tag_8:\n      tag_57\n      tag_58\n      jump\t// in\n    tag_57:\n      mload(0x40)\n      tag_59\n      swap2\n      swap1\n      tag_43\n      jump\t// in\n    tag_59:\n      mload(0x40)\n      dup1\n      swap2\n      sub\n      swap1\n      return\n        /* \"contracts/staking2.sol\":29541:29742  function getUserEstimatedRewards() external view returns (uint256) {... */\n    tag_9:\n      tag_60\n      tag_61\n      jump\t// in\n    tag_60:\n      mload(0x40)\n      tag_62\n      swap2\n      swap1\n      tag_43\n      jump\t// in\n    tag_62:\n      mload(0x40)\n      dup1\n      swap2\n      sub\n      swap1\n      return\n        /* \"contracts/staking2.sol\":28293:28401  function getTotalStakedTokens() external view returns (uint256) {... */\n    tag_10:\n      tag_63\n      tag_64\n      jump\t// in\n    tag_63:\n      mload(0x40)\n      tag_65\n      swap2\n      swap1\n      tag_43\n      jump\t// in\n    tag_65:\n      mload(0x40)\n      dup1\n      swap2\n      sub\n      swap1\n      return\n        /* \"contracts/staking2.sol\":30794:30920  function updateMinimumStakingAmount(uint256 newAmount) external onlyOwner {... */\n    tag_11:\n      tag_66\n      0x04\n      dup1\n      calldatasize\n      sub\n      dup2\n      add\n      swap1\n      tag_67\n      swap2\n      swap1\n      tag_46\n      jump\t// in\n    tag_67:\n      tag_68\n      jump\t// in\n    tag_66:\n      stop\n        /* \"contracts/staking2.sol\":28862:28986  function getEarlyUnstakeFeePercentage() external view returns (uint256) {... */\n    tag_12:\n      tag_69\n      tag_70\n      jump\t// in\n    tag_69:\n      mload(0x40)\n      tag_71\n      swap2\n      swap1\n      tag_43\n      jump\t// in\n    tag_71:\n      mload(0x40)\n      dup1\n      swap2\n      sub\n      swap1\n      return\n        /* \"contracts/staking2.sol\":30511:30634  function isStakeHolder(address _user) external view returns (bool) {... */\n    tag_13:\n      tag_72\n      0x04\n      dup1\n      calldatasize\n      sub\n      dup2\n      add\n      swap1\n      tag_73\n      swap2\n      swap1\n      tag_74\n      jump\t// in\n    tag_73:\n      tag_75\n      jump\t// in\n    tag_72:\n      mload(0x40)\n      tag_76\n      swap2\n      swap1\n      tag_77\n      jump\t// in\n    tag_76:\n      mload(0x40)\n      dup1\n      swap2\n      sub\n      swap1\n      return\n        /* \"contracts/staking2.sol\":30179:30298  function getUser(address userAddress) external view returns (User memory) {... */\n    tag_14:\n      tag_78\n      0x04\n      dup1\n      calldatasize\n      sub\n      dup2\n      add\n      swap1\n      tag_79\n      swap2\n      swap1\n      tag_74\n      jump\t// in\n    tag_79:\n      tag_80\n      jump\t// in\n    tag_78:\n      mload(0x40)\n      tag_81\n      swap2\n      swap1\n      tag_82\n      jump\t// in\n    tag_81:\n      mload(0x40)\n      dup1\n      swap2\n      sub\n      swap1\n      return\n        /* \"contracts/staking2.sol\":31818:31947  function stakeForUser(uint256 amount, address user) external onlyOwner nonReentrant {... */\n    tag_15:\n      tag_83\n      0x04\n      dup1\n      calldatasize\n      sub\n      dup2\n      add\n      swap1\n      tag_84\n      swap2\n      swap1\n      tag_85\n      jump\t// in\n    tag_84:\n      tag_86\n      jump\t// in\n    tag_83:\n      stop\n        /* \"contracts/staking2.sol\":19909:20012  function renounceOwnership() public virtual onlyOwner {... */\n    tag_16:\n      tag_87\n      tag_88\n      jump\t// in\n    tag_87:\n      stop\n        /* \"contracts/staking2.sol\":31443:31587  function updateEarlyUnstakeFeePercentage(uint256 newPercentage) external onlyOwner {... */\n    tag_17:\n      tag_89\n      0x04\n      dup1\n      calldatasize\n      sub\n      dup2\n      add\n      swap1\n      tag_90\n      swap2\n      swap1\n      tag_46\n      jump\t// in\n    tag_90:\n      tag_91\n      jump\t// in\n    tag_89:\n      stop\n        /* \"contracts/staking2.sol\":25449:26130  function initialize(... */\n    tag_18:\n      tag_92\n      0x04\n      dup1\n      calldatasize\n      sub\n      dup2\n      add\n      swap1\n      tag_93\n      swap2\n      swap1\n      tag_94\n      jump\t// in\n    tag_93:\n      tag_95\n      jump\t// in\n    tag_92:\n      stop\n        /* \"contracts/staking2.sol\":24824:24878  uint256 public constant APY_RATE_CHANGE_THRESHOLD = 10 */\n    tag_19:\n      tag_96\n      tag_97\n      jump\t// in\n    tag_96:\n      mload(0x40)\n      tag_98\n      swap2\n      swap1\n      tag_43\n      jump\t// in\n    tag_98:\n      mload(0x40)\n      dup1\n      swap2\n      sub\n      swap1\n      return\n        /* \"contracts/staking2.sol\":19261:19348  function owner() public view virtual returns (address) {... */\n    tag_20:\n      tag_99\n      tag_100\n      jump\t// in\n    tag_99:\n      mload(0x40)\n      tag_101\n      swap2\n      swap1\n      tag_102\n      jump\t// in\n    tag_101:\n      mload(0x40)\n      dup1\n      swap2\n      sub\n      swap1\n      return\n        /* \"contracts/staking2.sol\":29847:30005  function getWithdrawableAmount() external view returns (uint256) {... */\n    tag_21:\n      tag_103\n      tag_104\n      jump\t// in\n    tag_103:\n      mload(0x40)\n      tag_105\n      swap2\n      swap1\n      tag_43\n      jump\t// in\n    tag_105:\n      mload(0x40)\n      dup1\n      swap2\n      sub\n      swap1\n      return\n        /* \"contracts/staking2.sol\":28494:28588  function getTotalUsers() external view returns (uint256) {... */\n    tag_22:\n      tag_106\n      tag_107\n      jump\t// in\n    tag_106:\n      mload(0x40)\n      tag_108\n      swap2\n      swap1\n      tag_43\n      jump\t// in\n    tag_108:\n      mload(0x40)\n      dup1\n      swap2\n      sub\n      swap1\n      return\n        /* \"contracts/staking2.sol\":32877:32983  function stake(uint256 _amount) external nonReentrant {... */\n    tag_23:\n      tag_109\n      0x04\n      dup1\n      calldatasize\n      sub\n      dup2\n      add\n      swap1\n      tag_110\n      swap2\n      swap1\n      tag_46\n      jump\t// in\n    tag_110:\n      tag_111\n      jump\t// in\n    tag_109:\n      stop\n        /* \"contracts/staking2.sol\":24763:24817  uint256 public constant PERCENTAGE_DENOMINATOR = 10000 */\n    tag_24:\n      tag_112\n      tag_113\n      jump\t// in\n    tag_112:\n      mload(0x40)\n      tag_114\n      swap2\n      swap1\n      tag_43\n      jump\t// in\n    tag_114:\n      mload(0x40)\n      dup1\n      swap2\n      sub\n      swap1\n      return\n        /* \"contracts/staking2.sol\":35685:36255  function claimReward() external nonReentrant whenTreasuryHasBalance(_users[msg.sender].rewardAmount) {... */\n    tag_25:\n      tag_115\n      tag_116\n      jump\t// in\n    tag_115:\n      stop\n        /* \"contracts/staking2.sol\":27661:27773  function getMaxStakingTokenLimit() external view returns (uint256) {... */\n    tag_26:\n      tag_117\n      tag_118\n      jump\t// in\n    tag_117:\n      mload(0x40)\n      tag_119\n      swap2\n      swap1\n      tag_43\n      jump\t// in\n    tag_119:\n      mload(0x40)\n      dup1\n      swap2\n      sub\n      swap1\n      return\n        /* \"contracts/staking2.sol\":32076:32181  function toggleStakingStatus() external onlyOwner {... */\n    tag_27:\n      tag_120\n      tag_121\n      jump\t// in\n    tag_120:\n      stop\n        /* \"contracts/staking2.sol\":29072:29171  function getStakingStatus() external view returns (bool) {... */\n    tag_28:\n      tag_122\n      tag_123\n      jump\t// in\n    tag_122:\n      mload(0x40)\n      tag_124\n      swap2\n      swap1\n      tag_77\n      jump\t// in\n    tag_124:\n      mload(0x40)\n      dup1\n      swap2\n      sub\n      swap1\n      return\n        /* \"contracts/staking2.sol\":29296:29380  function getAPY() external view returns (uint256) {... */\n    tag_29:\n      tag_125\n      tag_126\n      jump\t// in\n    tag_125:\n      mload(0x40)\n      tag_127\n      swap2\n      swap1\n      tag_43\n      jump\t// in\n    tag_127:\n      mload(0x40)\n      dup1\n      swap2\n      sub\n      swap1\n      return\n        /* \"contracts/staking2.sol\":28085:28183  function getStakeEndDate() external view returns (uint256) {... */\n    tag_30:\n      tag_128\n      tag_129\n      jump\t// in\n    tag_128:\n      mload(0x40)\n      tag_130\n      swap2\n      swap1\n      tag_43\n      jump\t// in\n    tag_130:\n      mload(0x40)\n      dup1\n      swap2\n      sub\n      swap1\n      return\n        /* \"contracts/staking2.sol\":28670:28762  function getStakeDays() external view returns (uint256) {... */\n    tag_31:\n      tag_131\n      tag_132\n      jump\t// in\n    tag_131:\n      mload(0x40)\n      tag_133\n      swap2\n      swap1\n      tag_43\n      jump\t// in\n    tag_133:\n      mload(0x40)\n      dup1\n      swap2\n      sub\n      swap1\n      return\n        /* \"contracts/staking2.sol\":20167:20368  function transferOwnership(address newOwner) public virtual onlyOwner {... */\n    tag_32:\n      tag_134\n      0x04\n      dup1\n      calldatasize\n      sub\n      dup2\n      add\n      swap1\n      tag_135\n      swap2\n      swap1\n      tag_74\n      jump\t// in\n    tag_135:\n      tag_136\n      jump\t// in\n    tag_134:\n      stop\n        /* \"contracts/staking2.sol\":27879:27981  function getStakeStartDate() external view returns (uint256) {... */\n    tag_41:\n        /* \"contracts/staking2.sol\":27931:27938  uint256 */\n      0x00\n        /* \"contracts/staking2.sol\":27958:27973  _stakeStartDate */\n      sload(0x06)\n        /* \"contracts/staking2.sol\":27951:27973  return _stakeStartDate */\n      swap1\n      pop\n        /* \"contracts/staking2.sol\":27879:27981  function getStakeStartDate() external view returns (uint256) {... */\n      swap1\n      jump\t// out\n        /* \"contracts/staking2.sol\":31017:31141  function updateMaximumStakingAmount(uint256 newAmount) external onlyOwner {... */\n    tag_47:\n        /* \"contracts/staking2.sol\":19147:19160  _checkOwner() */\n      tag_139\n        /* \"contracts/staking2.sol\":19147:19158  _checkOwner */\n      tag_140\n        /* \"contracts/staking2.sol\":19147:19160  _checkOwner() */\n      jump\t// in\n    tag_139:\n        /* \"contracts/staking2.sol\":31124:31133  newAmount */\n      dup1\n        /* \"contracts/staking2.sol\":31102:31121  _maxStakeTokenLimit */\n      0x04\n        /* \"contracts/staking2.sol\":31102:31133  _maxStakeTokenLimit = newAmount */\n      dup2\n      swap1\n      sstore\n      pop\n        /* \"contracts/staking2.sol\":31017:31141  function updateMaximumStakingAmount(uint256 newAmount) external onlyOwner {... */\n      pop\n      jump\t// out\n        /* \"contracts/staking2.sol\":34415:35597  function unstake(uint256 _amount) external nonReentrant whenTreasuryHasBalance(_amount) {... */\n    tag_50:\n        /* \"contracts/staking2.sol\":16186:16187  2 */\n      0x02\n        /* \"contracts/staking2.sol\":16784:16791  _status */\n      sload(0x01)\n        /* \"contracts/staking2.sol\":16784:16803  _status != _ENTERED */\n      sub\n        /* \"contracts/staking2.sol\":16776:16839  require(_status != _ENTERED, \"ReentrancyGuard: reentrant call\") */\n      tag_143\n      jumpi\n      mload(0x40)\n      0x08c379a000000000000000000000000000000000000000000000000000000000\n      dup2\n      mstore\n      0x04\n      add\n      tag_144\n      swap1\n      tag_145\n      jump\t// in\n    tag_144:\n      mload(0x40)\n      dup1\n      swap2\n      sub\n      swap1\n      revert\n    tag_143:\n        /* \"contracts/staking2.sol\":16186:16187  2 */\n      0x02\n        /* \"contracts/staking2.sol\":16917:16924  _status */\n      0x01\n        /* \"contracts/staking2.sol\":16917:16935  _status = _ENTERED */\n      dup2\n      swap1\n      sstore\n      pop\n        /* \"contracts/staking2.sol\":34494:34501  _amount */\n      dup1\n        /* \"contracts/staking2.sol\":25339:25345  amount */\n      dup1\n        /* \"contracts/staking2.sol\":25296:25309  _tokenAddress */\n      0x0b\n      0x01\n      swap1\n      sload\n      swap1\n      0x0100\n      exp\n      swap1\n      div\n      0xffffffffffffffffffffffffffffffffffffffff\n      and\n        /* \"contracts/staking2.sol\":25289:25320  IERC20(_tokenAddress).balanceOf */\n      0xffffffffffffffffffffffffffffffffffffffff\n      and\n      0x70a08231\n        /* \"contracts/staking2.sol\":25329:25333  this */\n      address\n        /* \"contracts/staking2.sol\":25289:25335  IERC20(_tokenAddress).balanceOf(address(this)) */\n      mload(0x40)\n      dup3\n      0xffffffff\n      and\n      0xe0\n      shl\n      dup2\n      mstore\n      0x04\n      add\n      tag_147\n      swap2\n      swap1\n      tag_102\n      jump\t// in\n    tag_147:\n      0x20\n      mload(0x40)\n      dup1\n      dup4\n      sub\n      dup2\n      dup7\n      gas\n      staticcall\n      iszero\n      dup1\n      iszero\n      tag_149\n      jumpi\n      returndatasize\n      0x00\n      dup1\n      returndatacopy\n      revert(0x00, returndatasize)\n    tag_149:\n      pop\n      pop\n      pop\n      pop\n      mload(0x40)\n      returndatasize\n      not(0x1f)\n      0x1f\n      dup3\n      add\n      and\n      dup3\n      add\n      dup1\n      0x40\n      mstore\n      pop\n      dup2\n      add\n      swap1\n      tag_150\n      swap2\n      swap1\n      tag_151\n      jump\t// in\n    tag_150:\n        /* \"contracts/staking2.sol\":25289:25345  IERC20(_tokenAddress).balanceOf(address(this)) >= amount */\n      lt\n      iszero\n        /* \"contracts/staking2.sol\":25267:25421  require(... */\n      tag_152\n      jumpi\n      mload(0x40)\n      0x08c379a000000000000000000000000000000000000000000000000000000000\n      dup2\n      mstore\n      0x04\n      add\n      tag_153\n      swap1\n      tag_154\n      jump\t// in\n    tag_153:\n      mload(0x40)\n      dup1\n      swap2\n      sub\n      swap1\n      revert\n    tag_152:\n        /* \"contracts/staking2.sol\":34514:34526  address user */\n      0x00\n        /* \"contracts/staking2.sol\":34529:34539  msg.sender */\n      caller\n        /* \"contracts/staking2.sol\":34514:34539  address user = msg.sender */\n      swap1\n      pop\n        /* \"contracts/staking2.sol\":34571:34572  0 */\n      0x00\n        /* \"contracts/staking2.sol\":34560:34567  _amount */\n      dup4\n        /* \"contracts/staking2.sol\":34560:34572  _amount != 0 */\n      sub\n        /* \"contracts/staking2.sol\":34552:34616  require(_amount != 0, \"TokenStaking: amount should be non-zero\") */\n      tag_156\n      jumpi\n      mload(0x40)\n      0x08c379a000000000000000000000000000000000000000000000000000000000\n      dup2\n      mstore\n      0x04\n      add\n      tag_157\n      swap1\n      tag_158\n      jump\t// in\n    tag_157:\n      mload(0x40)\n      dup1\n      swap2\n      sub\n      swap1\n      revert\n    tag_156:\n        /* \"contracts/staking2.sol\":34635:34639  this */\n      address\n        /* \"contracts/staking2.sol\":34635:34653  this.isStakeHolder */\n      0xffffffffffffffffffffffffffffffffffffffff\n      and\n      0x63512159\n        /* \"contracts/staking2.sol\":34654:34658  user */\n      dup3\n        /* \"contracts/staking2.sol\":34635:34659  this.isStakeHolder(user) */\n      mload(0x40)\n      dup3\n      0xffffffff\n      and\n      0xe0\n      shl\n      dup2\n      mstore\n      0x04\n      add\n      tag_159\n      swap2\n      swap1\n      tag_102\n      jump\t// in\n    tag_159:\n      0x20\n      mload(0x40)\n      dup1\n      dup4\n      sub\n      dup2\n      dup7\n      gas\n      staticcall\n      iszero\n      dup1\n      iszero\n      tag_161\n      jumpi\n      returndatasize\n      0x00\n      dup1\n      returndatacopy\n      revert(0x00, returndatasize)\n    tag_161:\n      pop\n      pop\n      pop\n      pop\n      mload(0x40)\n      returndatasize\n      not(0x1f)\n      0x1f\n      dup3\n      add\n      and\n      dup3\n      add\n      dup1\n      0x40\n      mstore\n      pop\n      dup2\n      add\n      swap1\n      tag_162\n      swap2\n      swap1\n      tag_163\n      jump\t// in\n    tag_162:\n        /* \"contracts/staking2.sol\":34627:34695  require(this.isStakeHolder(user), \"TokenStaking: not a stakeholder\") */\n      tag_164\n      jumpi\n      mload(0x40)\n      0x08c379a000000000000000000000000000000000000000000000000000000000\n      dup2\n      mstore\n      0x04\n      add\n      tag_165\n      swap1\n      tag_166\n      jump\t// in\n    tag_165:\n      mload(0x40)\n      dup1\n      swap2\n      sub\n      swap1\n      revert\n    tag_164:\n        /* \"contracts/staking2.sol\":34742:34749  _amount */\n      dup3\n        /* \"contracts/staking2.sol\":34714:34720  _users */\n      0x0d\n        /* \"contracts/staking2.sol\":34714:34726  _users[user] */\n      0x00\n        /* \"contracts/staking2.sol\":34721:34725  user */\n      dup4\n        /* \"contracts/staking2.sol\":34714:34726  _users[user] */\n      0xffffffffffffffffffffffffffffffffffffffff\n      and\n      0xffffffffffffffffffffffffffffffffffffffff\n      and\n      dup2\n      mstore\n      0x20\n      add\n      swap1\n      dup2\n      mstore\n      0x20\n      add\n      0x00\n      keccak256\n        /* \"contracts/staking2.sol\":34714:34738  _users[user].stakeAmount */\n      0x00\n      add\n      sload\n        /* \"contracts/staking2.sol\":34714:34749  _users[user].stakeAmount >= _amount */\n      lt\n      iszero\n        /* \"contracts/staking2.sol\":34706:34795  require(_users[user].stakeAmount >= _amount, \"TokenStaking: not enough stake to unstake\") */\n      tag_167\n      jumpi\n      mload(0x40)\n      0x08c379a000000000000000000000000000000000000000000000000000000000\n      dup2\n      mstore\n      0x04\n      add\n      tag_168\n      swap1\n      tag_169\n      jump\t// in\n    tag_168:\n      mload(0x40)\n      dup1\n      swap2\n      sub\n      swap1\n      revert\n    tag_167:\n        /* \"contracts/staking2.sol\":34855:34878  _calculateRewards(user) */\n      tag_170\n        /* \"contracts/staking2.sol\":34873:34877  user */\n      dup2\n        /* \"contracts/staking2.sol\":34855:34872  _calculateRewards */\n      tag_171\n        /* \"contracts/staking2.sol\":34855:34878  _calculateRewards(user) */\n      jump\t// in\n    tag_170:\n        /* \"contracts/staking2.sol\":34891:34914  uint256 feeEarlyUnstake */\n      0x00\n        /* \"contracts/staking2.sol\":34980:34990  _stakeDays */\n      sload(0x09)\n        /* \"contracts/staking2.sol\":34951:34957  _users */\n      0x0d\n        /* \"contracts/staking2.sol\":34951:34963  _users[user] */\n      0x00\n        /* \"contracts/staking2.sol\":34958:34962  user */\n      dup5\n        /* \"contracts/staking2.sol\":34951:34963  _users[user] */\n      0xffffffffffffffffffffffffffffffffffffffff\n      and\n      0xffffffffffffffffffffffffffffffffffffffff\n      and\n      dup2\n      mstore\n      0x20\n      add\n      swap1\n      dup2\n      mstore\n      0x20\n      add\n      0x00\n      keccak256\n        /* \"contracts/staking2.sol\":34951:34977  _users[user].lastStakeTime */\n      0x02\n      add\n      sload\n        /* \"contracts/staking2.sol\":34951:34990  _users[user].lastStakeTime + _stakeDays */\n      tag_172\n      swap2\n      swap1\n      tag_173\n      jump\t// in\n    tag_172:\n        /* \"contracts/staking2.sol\":34931:34947  getCurrentTime() */\n      tag_174\n        /* \"contracts/staking2.sol\":34931:34945  getCurrentTime */\n      tag_175\n        /* \"contracts/staking2.sol\":34931:34947  getCurrentTime() */\n      jump\t// in\n    tag_174:\n        /* \"contracts/staking2.sol\":34931:34990  getCurrentTime() <= _users[user].lastStakeTime + _stakeDays */\n      gt\n        /* \"contracts/staking2.sol\":34927:35160  if (getCurrentTime() <= _users[user].lastStakeTime + _stakeDays) {... */\n      tag_176\n      jumpi\n        /* \"contracts/staking2.sol\":24812:24817  10000 */\n      0x2710\n        /* \"contracts/staking2.sol\":35037:35063  _earlyUnstakeFeePercentage */\n      sload(0x0a)\n        /* \"contracts/staking2.sol\":35027:35034  _amount */\n      dup6\n        /* \"contracts/staking2.sol\":35027:35063  _amount * _earlyUnstakeFeePercentage */\n      tag_177\n      swap2\n      swap1\n      tag_178\n      jump\t// in\n    tag_177:\n        /* \"contracts/staking2.sol\":35026:35089  (_amount * _earlyUnstakeFeePercentage) / PERCENTAGE_DENOMINATOR */\n      tag_179\n      swap2\n      swap1\n      tag_180\n      jump\t// in\n    tag_179:\n        /* \"contracts/staking2.sol\":35007:35090  feeEarlyUnstake = ((_amount * _earlyUnstakeFeePercentage) / PERCENTAGE_DENOMINATOR) */\n      swap1\n      pop\n        /* \"contracts/staking2.sol\":35126:35130  user */\n      dup2\n        /* \"contracts/staking2.sol\":35110:35148  EarlyUnStakeFee(user, feeEarlyUnstake) */\n      0xffffffffffffffffffffffffffffffffffffffff\n      and\n      0x547c747d3878b7637a9d040b5479a58c43382aac8e5aa9a30a053c1a0cffb4f2\n        /* \"contracts/staking2.sol\":35132:35147  feeEarlyUnstake */\n      dup3\n        /* \"contracts/staking2.sol\":35110:35148  EarlyUnStakeFee(user, feeEarlyUnstake) */\n      mload(0x40)\n      tag_181\n      swap2\n      swap1\n      tag_43\n      jump\t// in\n    tag_181:\n      mload(0x40)\n      dup1\n      swap2\n      sub\n      swap1\n      log2\n        /* \"contracts/staking2.sol\":34927:35160  if (getCurrentTime() <= _users[user].lastStakeTime + _stakeDays) {... */\n    tag_176:\n        /* \"contracts/staking2.sol\":35172:35195  uint256 amountToUnstake */\n      0x00\n        /* \"contracts/staking2.sol\":35208:35223  feeEarlyUnstake */\n      dup2\n        /* \"contracts/staking2.sol\":35198:35205  _amount */\n      dup6\n        /* \"contracts/staking2.sol\":35198:35223  _amount - feeEarlyUnstake */\n      tag_182\n      swap2\n      swap1\n      tag_183\n      jump\t// in\n    tag_182:\n        /* \"contracts/staking2.sol\":35172:35223  uint256 amountToUnstake = _amount - feeEarlyUnstake */\n      swap1\n      pop\n        /* \"contracts/staking2.sol\":35264:35271  _amount */\n      dup5\n        /* \"contracts/staking2.sol\":35236:35242  _users */\n      0x0d\n        /* \"contracts/staking2.sol\":35236:35248  _users[user] */\n      0x00\n        /* \"contracts/staking2.sol\":35243:35247  user */\n      dup6\n        /* \"contracts/staking2.sol\":35236:35248  _users[user] */\n      0xffffffffffffffffffffffffffffffffffffffff\n      and\n      0xffffffffffffffffffffffffffffffffffffffff\n      and\n      dup2\n      mstore\n      0x20\n      add\n      swap1\n      dup2\n      mstore\n      0x20\n      add\n      0x00\n      keccak256\n        /* \"contracts/staking2.sol\":35236:35260  _users[user].stakeAmount */\n      0x00\n      add\n      0x00\n        /* \"contracts/staking2.sol\":35236:35271  _users[user].stakeAmount -= _amount */\n      dup3\n      dup3\n      sload\n      tag_184\n      swap2\n      swap1\n      tag_183\n      jump\t// in\n    tag_184:\n      swap3\n      pop\n      pop\n      dup2\n      swap1\n      sstore\n      pop\n        /* \"contracts/staking2.sol\":35306:35313  _amount */\n      dup5\n        /* \"contracts/staking2.sol\":35284:35302  _totalStakedTokens */\n      0x07\n      0x00\n        /* \"contracts/staking2.sol\":35284:35313  _totalStakedTokens -= _amount */\n      dup3\n      dup3\n      sload\n      tag_185\n      swap2\n      swap1\n      tag_183\n      jump\t// in\n    tag_185:\n      swap3\n      pop\n      pop\n      dup2\n      swap1\n      sstore\n      pop\n        /* \"contracts/staking2.sol\":35358:35359  0 */\n      0x00\n        /* \"contracts/staking2.sol\":35330:35336  _users */\n      0x0d\n        /* \"contracts/staking2.sol\":35330:35342  _users[user] */\n      0x00\n        /* \"contracts/staking2.sol\":35337:35341  user */\n      dup6\n        /* \"contracts/staking2.sol\":35330:35342  _users[user] */\n      0xffffffffffffffffffffffffffffffffffffffff\n      and\n      0xffffffffffffffffffffffffffffffffffffffff\n      and\n      dup2\n      mstore\n      0x20\n      add\n      swap1\n      dup2\n      mstore\n      0x20\n      add\n      0x00\n      keccak256\n        /* \"contracts/staking2.sol\":35330:35354  _users[user].stakeAmount */\n      0x00\n      add\n      sload\n        /* \"contracts/staking2.sol\":35330:35359  _users[user].stakeAmount == 0 */\n      sub\n        /* \"contracts/staking2.sol\":35326:35441  if (_users[user].stakeAmount == 0) {... */\n      tag_186\n      jumpi\n        /* \"contracts/staking2.sol\":35428:35429  1 */\n      0x01\n        /* \"contracts/staking2.sol\":35413:35424  _totalUsers */\n      0x08\n      0x00\n        /* \"contracts/staking2.sol\":35413:35429  _totalUsers -= 1 */\n      dup3\n      dup3\n      sload\n      tag_187\n      swap2\n      swap1\n      tag_183\n      jump\t// in\n    tag_187:\n      swap3\n      pop\n      pop\n      dup2\n      swap1\n      sstore\n      pop\n        /* \"contracts/staking2.sol\":35326:35441  if (_users[user].stakeAmount == 0) {... */\n    tag_186:\n        /* \"contracts/staking2.sol\":35468:35481  _tokenAddress */\n      0x0b\n      0x01\n      swap1\n      sload\n      swap1\n      0x0100\n      exp\n      swap1\n      div\n      0xffffffffffffffffffffffffffffffffffffffff\n      and\n        /* \"contracts/staking2.sol\":35461:35491  IERC20(_tokenAddress).transfer */\n      0xffffffffffffffffffffffffffffffffffffffff\n      and\n      0xa9059cbb\n        /* \"contracts/staking2.sol\":35492:35496  user */\n      dup5\n        /* \"contracts/staking2.sol\":35498:35513  amountToUnstake */\n      dup4\n        /* \"contracts/staking2.sol\":35461:35514  IERC20(_tokenAddress).transfer(user, amountToUnstake) */\n      mload(0x40)\n      dup4\n      0xffffffff\n      and\n      0xe0\n      shl\n      dup2\n      mstore\n      0x04\n      add\n      tag_188\n      swap3\n      swap2\n      swap1\n      tag_189\n      jump\t// in\n    tag_188:\n      0x20\n      mload(0x40)\n      dup1\n      dup4\n      sub\n      dup2\n      0x00\n      dup8\n      gas\n      call\n      iszero\n      dup1\n      iszero\n      tag_191\n      jumpi\n      returndatasize\n      0x00\n      dup1\n      returndatacopy\n      revert(0x00, returndatasize)\n    tag_191:\n      pop\n      pop\n      pop\n      pop\n      mload(0x40)\n      returndatasize\n      not(0x1f)\n      0x1f\n      dup3\n      add\n      and\n      dup3\n      add\n      dup1\n      0x40\n      mstore\n      pop\n      dup2\n      add\n      swap1\n      tag_192\n      swap2\n      swap1\n      tag_163\n      jump\t// in\n    tag_192:\n        /* \"contracts/staking2.sol\":35453:35551  require(IERC20(_tokenAddress).transfer(user, amountToUnstake), \"TokenStaking: failed to transfer\") */\n      tag_193\n      jumpi\n      mload(0x40)\n      0x08c379a000000000000000000000000000000000000000000000000000000000\n      dup2\n      mstore\n      0x04\n      add\n      tag_194\n      swap1\n      tag_195\n      jump\t// in\n    tag_194:\n      mload(0x40)\n      dup1\n      swap2\n      sub\n      swap1\n      revert\n    tag_193:\n        /* \"contracts/staking2.sol\":35575:35579  user */\n      dup3\n        /* \"contracts/staking2.sol\":35567:35589  UnStake(user, _amount) */\n      0xffffffffffffffffffffffffffffffffffffffff\n      and\n      0xb24546d975e2628748efc9aced80665e0fad66272033e5c0ea25fd3afac99795\n        /* \"contracts/staking2.sol\":35581:35588  _amount */\n      dup7\n        /* \"contracts/staking2.sol\":35567:35589  UnStake(user, _amount) */\n      mload(0x40)\n      tag_196\n      swap2\n      swap1\n      tag_43\n      jump\t// in\n    tag_196:\n      mload(0x40)\n      dup1\n      swap2\n      sub\n      swap1\n      log2\n        /* \"contracts/staking2.sol\":34503:35597  {... */\n      pop\n      pop\n      pop\n        /* \"contracts/staking2.sol\":16948:16949  _ */\n      pop\n        /* \"contracts/staking2.sol\":16142:16143  1 */\n      0x01\n        /* \"contracts/staking2.sol\":17096:17103  _status */\n      dup1\n        /* \"contracts/staking2.sol\":17096:17118  _status = _NOT_ENTERED */\n      dup2\n      swap1\n      sstore\n      pop\n        /* \"contracts/staking2.sol\":34415:35597  function unstake(uint256 _amount) external nonReentrant whenTreasuryHasBalance(_amount) {... */\n      pop\n      jump\t// out\n        /* \"contracts/staking2.sol\":32440:32681  function withdraw(uint256 amount) external onlyOwner nonReentrant {... */\n    tag_53:\n        /* \"contracts/staking2.sol\":19147:19160  _checkOwner() */\n      tag_198\n        /* \"contracts/staking2.sol\":19147:19158  _checkOwner */\n      tag_140\n        /* \"contracts/staking2.sol\":19147:19160  _checkOwner() */\n      jump\t// in\n    tag_198:\n        /* \"contracts/staking2.sol\":16186:16187  2 */\n      0x02\n        /* \"contracts/staking2.sol\":16784:16791  _status */\n      sload(0x01)\n        /* \"contracts/staking2.sol\":16784:16803  _status != _ENTERED */\n      sub\n        /* \"contracts/staking2.sol\":16776:16839  require(_status != _ENTERED, \"ReentrancyGuard: reentrant call\") */\n      tag_200\n      jumpi\n      mload(0x40)\n      0x08c379a000000000000000000000000000000000000000000000000000000000\n      dup2\n      mstore\n      0x04\n      add\n      tag_201\n      swap1\n      tag_145\n      jump\t// in\n    tag_201:\n      mload(0x40)\n      dup1\n      swap2\n      sub\n      swap1\n      revert\n    tag_200:\n        /* \"contracts/staking2.sol\":16186:16187  2 */\n      0x02\n        /* \"contracts/staking2.sol\":16917:16924  _status */\n      0x01\n        /* \"contracts/staking2.sol\":16917:16935  _status = _ENTERED */\n      dup2\n      swap1\n      sstore\n      pop\n        /* \"contracts/staking2.sol\":32557:32563  amount */\n      dup1\n        /* \"contracts/staking2.sol\":32525:32529  this */\n      address\n        /* \"contracts/staking2.sol\":32525:32551  this.getWithdrawableAmount */\n      0xffffffffffffffffffffffffffffffffffffffff\n      and\n      0x90be10cc\n        /* \"contracts/staking2.sol\":32525:32553  this.getWithdrawableAmount() */\n      mload(0x40)\n      dup2\n      0xffffffff\n      and\n      0xe0\n      shl\n      dup2\n      mstore\n      0x04\n      add\n      0x20\n      mload(0x40)\n      dup1\n      dup4\n      sub\n      dup2\n      dup7\n      gas\n      staticcall\n      iszero\n      dup1\n      iszero\n      tag_204\n      jumpi\n      returndatasize\n      0x00\n      dup1\n      returndatacopy\n      revert(0x00, returndatasize)\n    tag_204:\n      pop\n      pop\n      pop\n      pop\n      mload(0x40)\n      returndatasize\n      not(0x1f)\n      0x1f\n      dup3\n      add\n      and\n      dup3\n      add\n      dup1\n      0x40\n      mstore\n      pop\n      dup2\n      add\n      swap1\n      tag_205\n      swap2\n      swap1\n      tag_151\n      jump\t// in\n    tag_205:\n        /* \"contracts/staking2.sol\":32525:32563  this.getWithdrawableAmount() >= amount */\n      lt\n      iszero\n        /* \"contracts/staking2.sol\":32517:32612  require(this.getWithdrawableAmount() >= amount, \"TokenStaking: not enough withdrawable tokens\") */\n      tag_206\n      jumpi\n      mload(0x40)\n      0x08c379a000000000000000000000000000000000000000000000000000000000\n      dup2\n      mstore\n      0x04\n      add\n      tag_207\n      swap1\n      tag_208\n      jump\t// in\n    tag_207:\n      mload(0x40)\n      dup1\n      swap2\n      sub\n      swap1\n      revert\n    tag_206:\n        /* \"contracts/staking2.sol\":32630:32643  _tokenAddress */\n      0x0b\n      0x01\n      swap1\n      sload\n      swap1\n      0x0100\n      exp\n      swap1\n      div\n      0xffffffffffffffffffffffffffffffffffffffff\n      and\n        /* \"contracts/staking2.sol\":32623:32653  IERC20(_tokenAddress).transfer */\n      0xffffffffffffffffffffffffffffffffffffffff\n      and\n      0xa9059cbb\n        /* \"contracts/staking2.sol\":32654:32664  msg.sender */\n      caller\n        /* \"contracts/staking2.sol\":32666:32672  amount */\n      dup4\n        /* \"contracts/staking2.sol\":32623:32673  IERC20(_tokenAddress).transfer(msg.sender, amount) */\n      mload(0x40)\n      dup4\n      0xffffffff\n      and\n      0xe0\n      shl\n      dup2\n      mstore\n      0x04\n      add\n      tag_209\n      swap3\n      swap2\n      swap1\n      tag_189\n      jump\t// in\n    tag_209:\n      0x20\n      mload(0x40)\n      dup1\n      dup4\n      sub\n      dup2\n      0x00\n      dup8\n      gas\n      call\n      iszero\n      dup1\n      iszero\n      tag_211\n      jumpi\n      returndatasize\n      0x00\n      dup1\n      returndatacopy\n      revert(0x00, returndatasize)\n    tag_211:\n      pop\n      pop\n      pop\n      pop\n      mload(0x40)\n      returndatasize\n      not(0x1f)\n      0x1f\n      dup3\n      add\n      and\n      dup3\n      add\n      dup1\n      0x40\n      mstore\n      pop\n      dup2\n      add\n      swap1\n      tag_212\n      swap2\n      swap1\n      tag_163\n      jump\t// in\n    tag_212:\n      pop\n        /* \"contracts/staking2.sol\":16142:16143  1 */\n      0x01\n        /* \"contracts/staking2.sol\":17096:17103  _status */\n      dup1\n        /* \"contracts/staking2.sol\":17096:17118  _status = _NOT_ENTERED */\n      dup2\n      swap1\n      sstore\n      pop\n        /* \"contracts/staking2.sol\":32440:32681  function withdraw(uint256 amount) external onlyOwner nonReentrant {... */\n      pop\n      jump\t// out\n        /* \"contracts/staking2.sol\":31232:31340  function updateStakingEndDate(uint256 newDate) external onlyOwner {... */\n    tag_56:\n        /* \"contracts/staking2.sol\":19147:19160  _checkOwner() */\n      tag_214\n        /* \"contracts/staking2.sol\":19147:19158  _checkOwner */\n      tag_140\n        /* \"contracts/staking2.sol\":19147:19160  _checkOwner() */\n      jump\t// in\n    tag_214:\n        /* \"contracts/staking2.sol\":31325:31332  newDate */\n      dup1\n        /* \"contracts/staking2.sol\":31309:31322  _stakeEndDate */\n      0x05\n        /* \"contracts/staking2.sol\":31309:31332  _stakeEndDate = newDate */\n      dup2\n      swap1\n      sstore\n      pop\n        /* \"contracts/staking2.sol\":31232:31340  function updateStakingEndDate(uint256 newDate) external onlyOwner {... */\n      pop\n      jump\t// out\n        /* \"contracts/staking2.sol\":27432:27546  function getMinimumStakingAmount() external view returns (uint256) {... */\n    tag_58:\n        /* \"contracts/staking2.sol\":27490:27497  uint256 */\n      0x00\n        /* \"contracts/staking2.sol\":27517:27538  _minimumStakingAmount */\n      sload(0x03)\n        /* \"contracts/staking2.sol\":27510:27538  return _minimumStakingAmount */\n      swap1\n      pop\n        /* \"contracts/staking2.sol\":27432:27546  function getMinimumStakingAmount() external view returns (uint256) {... */\n      swap1\n      jump\t// out\n        /* \"contracts/staking2.sol\":29541:29742  function getUserEstimatedRewards() external view returns (uint256) {... */\n    tag_61:\n        /* \"contracts/staking2.sol\":29599:29606  uint256 */\n      0x00\n        /* \"contracts/staking2.sol\":29620:29634  uint256 amount */\n      dup1\n        /* \"contracts/staking2.sol\":29640:29676  _getUserEstimatedRewards(msg.sender) */\n      tag_218\n        /* \"contracts/staking2.sol\":29665:29675  msg.sender */\n      caller\n        /* \"contracts/staking2.sol\":29640:29664  _getUserEstimatedRewards */\n      tag_219\n        /* \"contracts/staking2.sol\":29640:29676  _getUserEstimatedRewards(msg.sender) */\n      jump\t// in\n    tag_218:\n        /* \"contracts/staking2.sol\":29619:29676  (uint256 amount, ) = _getUserEstimatedRewards(msg.sender) */\n      pop\n      swap1\n      pop\n        /* \"contracts/staking2.sol\":29728:29734  amount */\n      dup1\n        /* \"contracts/staking2.sol\":29694:29700  _users */\n      0x0d\n        /* \"contracts/staking2.sol\":29694:29712  _users[msg.sender] */\n      0x00\n        /* \"contracts/staking2.sol\":29701:29711  msg.sender */\n      caller\n        /* \"contracts/staking2.sol\":29694:29712  _users[msg.sender] */\n      0xffffffffffffffffffffffffffffffffffffffff\n      and\n      0xffffffffffffffffffffffffffffffffffffffff\n      and\n      dup2\n      mstore\n      0x20\n      add\n      swap1\n      dup2\n      mstore\n      0x20\n      add\n      0x00\n      keccak256\n        /* \"contracts/staking2.sol\":29694:29725  _users[msg.sender].rewardAmount */\n      0x01\n      add\n      sload\n        /* \"contracts/staking2.sol\":29694:29734  _users[msg.sender].rewardAmount + amount */\n      tag_220\n      swap2\n      swap1\n      tag_173\n      jump\t// in\n    tag_220:\n        /* \"contracts/staking2.sol\":29687:29734  return _users[msg.sender].rewardAmount + amount */\n      swap2\n      pop\n      pop\n        /* \"contracts/staking2.sol\":29541:29742  function getUserEstimatedRewards() external view returns (uint256) {... */\n      swap1\n      jump\t// out\n        /* \"contracts/staking2.sol\":28293:28401  function getTotalStakedTokens() external view returns (uint256) {... */\n    tag_64:\n        /* \"contracts/staking2.sol\":28348:28355  uint256 */\n      0x00\n        /* \"contracts/staking2.sol\":28375:28393  _totalStakedTokens */\n      sload(0x07)\n        /* \"contracts/staking2.sol\":28368:28393  return _totalStakedTokens */\n      swap1\n      pop\n        /* \"contracts/staking2.sol\":28293:28401  function getTotalStakedTokens() external view returns (uint256) {... */\n      swap1\n      jump\t// out\n        /* \"contracts/staking2.sol\":30794:30920  function updateMinimumStakingAmount(uint256 newAmount) external onlyOwner {... */\n    tag_68:\n        /* \"contracts/staking2.sol\":19147:19160  _checkOwner() */\n      tag_223\n        /* \"contracts/staking2.sol\":19147:19158  _checkOwner */\n      tag_140\n        /* \"contracts/staking2.sol\":19147:19160  _checkOwner() */\n      jump\t// in\n    tag_223:\n        /* \"contracts/staking2.sol\":30903:30912  newAmount */\n      dup1\n        /* \"contracts/staking2.sol\":30879:30900  _minimumStakingAmount */\n      0x03\n        /* \"contracts/staking2.sol\":30879:30912  _minimumStakingAmount = newAmount */\n      dup2\n      swap1\n      sstore\n      pop\n        /* \"contracts/staking2.sol\":30794:30920  function updateMinimumStakingAmount(uint256 newAmount) external onlyOwner {... */\n      pop\n      jump\t// out\n        /* \"contracts/staking2.sol\":28862:28986  function getEarlyUnstakeFeePercentage() external view returns (uint256) {... */\n    tag_70:\n        /* \"contracts/staking2.sol\":28925:28932  uint256 */\n      0x00\n        /* \"contracts/staking2.sol\":28952:28978  _earlyUnstakeFeePercentage */\n      sload(0x0a)\n        /* \"contracts/staking2.sol\":28945:28978  return _earlyUnstakeFeePercentage */\n      swap1\n      pop\n        /* \"contracts/staking2.sol\":28862:28986  function getEarlyUnstakeFeePercentage() external view returns (uint256) {... */\n      swap1\n      jump\t// out\n        /* \"contracts/staking2.sol\":30511:30634  function isStakeHolder(address _user) external view returns (bool) {... */\n    tag_75:\n        /* \"contracts/staking2.sol\":30572:30576  bool */\n      0x00\n        /* \"contracts/staking2.sol\":30625:30626  0 */\n      dup1\n        /* \"contracts/staking2.sol\":30596:30602  _users */\n      0x0d\n        /* \"contracts/staking2.sol\":30596:30609  _users[_user] */\n      0x00\n        /* \"contracts/staking2.sol\":30603:30608  _user */\n      dup5\n        /* \"contracts/staking2.sol\":30596:30609  _users[_user] */\n      0xffffffffffffffffffffffffffffffffffffffff\n      and\n      0xffffffffffffffffffffffffffffffffffffffff\n      and\n      dup2\n      mstore\n      0x20\n      add\n      swap1\n      dup2\n      mstore\n      0x20\n      add\n      0x00\n      keccak256\n        /* \"contracts/staking2.sol\":30596:30621  _users[_user].stakeAmount */\n      0x00\n      add\n      sload\n        /* \"contracts/staking2.sol\":30596:30626  _users[_user].stakeAmount != 0 */\n      eq\n      iszero\n        /* \"contracts/staking2.sol\":30589:30626  return _users[_user].stakeAmount != 0 */\n      swap1\n      pop\n        /* \"contracts/staking2.sol\":30511:30634  function isStakeHolder(address _user) external view returns (bool) {... */\n      swap2\n      swap1\n      pop\n      jump\t// out\n        /* \"contracts/staking2.sol\":30179:30298  function getUser(address userAddress) external view returns (User memory) {... */\n    tag_80:\n        /* \"contracts/staking2.sol\":30240:30251  User memory */\n      tag_227\n      tag_228\n      jump\t// in\n    tag_227:\n        /* \"contracts/staking2.sol\":30271:30277  _users */\n      0x0d\n        /* \"contracts/staking2.sol\":30271:30290  _users[userAddress] */\n      0x00\n        /* \"contracts/staking2.sol\":30278:30289  userAddress */\n      dup4\n        /* \"contracts/staking2.sol\":30271:30290  _users[userAddress] */\n      0xffffffffffffffffffffffffffffffffffffffff\n      and\n      0xffffffffffffffffffffffffffffffffffffffff\n      and\n      dup2\n      mstore\n      0x20\n      add\n      swap1\n      dup2\n      mstore\n      0x20\n      add\n      0x00\n      keccak256\n        /* \"contracts/staking2.sol\":30264:30290  return _users[userAddress] */\n      mload(0x40)\n      dup1\n      0xa0\n      add\n      0x40\n      mstore\n      swap1\n      dup2\n      0x00\n      dup3\n      add\n      sload\n      dup2\n      mstore\n      0x20\n      add\n      0x01\n      dup3\n      add\n      sload\n      dup2\n      mstore\n      0x20\n      add\n      0x02\n      dup3\n      add\n      sload\n      dup2\n      mstore\n      0x20\n      add\n      0x03\n      dup3\n      add\n      sload\n      dup2\n      mstore\n      0x20\n      add\n      0x04\n      dup3\n      add\n      sload\n      dup2\n      mstore\n      pop\n      pop\n      swap1\n      pop\n        /* \"contracts/staking2.sol\":30179:30298  function getUser(address userAddress) external view returns (User memory) {... */\n      swap2\n      swap1\n      pop\n      jump\t// out\n        /* \"contracts/staking2.sol\":31818:31947  function stakeForUser(uint256 amount, address user) external onlyOwner nonReentrant {... */\n    tag_86:\n        /* \"contracts/staking2.sol\":19147:19160  _checkOwner() */\n      tag_231\n        /* \"contracts/staking2.sol\":19147:19158  _checkOwner */\n      tag_140\n        /* \"contracts/staking2.sol\":19147:19160  _checkOwner() */\n      jump\t// in\n    tag_231:\n        /* \"contracts/staking2.sol\":16186:16187  2 */\n      0x02\n        /* \"contracts/staking2.sol\":16784:16791  _status */\n      sload(0x01)\n        /* \"contracts/staking2.sol\":16784:16803  _status != _ENTERED */\n      sub\n        /* \"contracts/staking2.sol\":16776:16839  require(_status != _ENTERED, \"ReentrancyGuard: reentrant call\") */\n      tag_233\n      jumpi\n      mload(0x40)\n      0x08c379a000000000000000000000000000000000000000000000000000000000\n      dup2\n      mstore\n      0x04\n      add\n      tag_234\n      swap1\n      tag_145\n      jump\t// in\n    tag_234:\n      mload(0x40)\n      dup1\n      swap2\n      sub\n      swap1\n      revert\n    tag_233:\n        /* \"contracts/staking2.sol\":16186:16187  2 */\n      0x02\n        /* \"contracts/staking2.sol\":16917:16924  _status */\n      0x01\n        /* \"contracts/staking2.sol\":16917:16935  _status = _ENTERED */\n      dup2\n      swap1\n      sstore\n      pop\n        /* \"contracts/staking2.sol\":31913:31939  _stakeTokens(amount, user) */\n      tag_236\n        /* \"contracts/staking2.sol\":31926:31932  amount */\n      dup3\n        /* \"contracts/staking2.sol\":31934:31938  user */\n      dup3\n        /* \"contracts/staking2.sol\":31913:31925  _stakeTokens */\n      tag_237\n        /* \"contracts/staking2.sol\":31913:31939  _stakeTokens(amount, user) */\n      jump\t// in\n    tag_236:\n        /* \"contracts/staking2.sol\":16142:16143  1 */\n      0x01\n        /* \"contracts/staking2.sol\":17096:17103  _status */\n      dup1\n        /* \"contracts/staking2.sol\":17096:17118  _status = _NOT_ENTERED */\n      dup2\n      swap1\n      sstore\n      pop\n        /* \"contracts/staking2.sol\":31818:31947  function stakeForUser(uint256 amount, address user) external onlyOwner nonReentrant {... */\n      pop\n      pop\n      jump\t// out\n        /* \"contracts/staking2.sol\":19909:20012  function renounceOwnership() public virtual onlyOwner {... */\n    tag_88:\n        /* \"contracts/staking2.sol\":19147:19160  _checkOwner() */\n      tag_239\n        /* \"contracts/staking2.sol\":19147:19158  _checkOwner */\n      tag_140\n        /* \"contracts/staking2.sol\":19147:19160  _checkOwner() */\n      jump\t// in\n    tag_239:\n        /* \"contracts/staking2.sol\":19974:20004  _transferOwnership(address(0)) */\n      tag_241\n        /* \"contracts/staking2.sol\":20001:20002  0 */\n      0x00\n        /* \"contracts/staking2.sol\":19974:19992  _transferOwnership */\n      tag_242\n        /* \"contracts/staking2.sol\":19974:20004  _transferOwnership(address(0)) */\n      jump\t// in\n    tag_241:\n        /* \"contracts/staking2.sol\":19909:20012  function renounceOwnership() public virtual onlyOwner {... */\n      jump\t// out\n        /* \"contracts/staking2.sol\":31443:31587  function updateEarlyUnstakeFeePercentage(uint256 newPercentage) external onlyOwner {... */\n    tag_91:\n        /* \"contracts/staking2.sol\":19147:19160  _checkOwner() */\n      tag_244\n        /* \"contracts/staking2.sol\":19147:19158  _checkOwner */\n      tag_140\n        /* \"contracts/staking2.sol\":19147:19160  _checkOwner() */\n      jump\t// in\n    tag_244:\n        /* \"contracts/staking2.sol\":31566:31579  newPercentage */\n      dup1\n        /* \"contracts/staking2.sol\":31537:31563  _earlyUnstakeFeePercentage */\n      0x0a\n        /* \"contracts/staking2.sol\":31537:31579  _earlyUnstakeFeePercentage = newPercentage */\n      dup2\n      swap1\n      sstore\n      pop\n        /* \"contracts/staking2.sol\":31443:31587  function updateEarlyUnstakeFeePercentage(uint256 newPercentage) external onlyOwner {... */\n      pop\n      jump\t// out\n        /* \"contracts/staking2.sol\":25449:26130  function initialize(... */\n    tag_95:\n        /* \"contracts/staking2.sol\":11764:11783  bool isTopLevelCall */\n      0x00\n        /* \"contracts/staking2.sol\":11787:11800  _initializing */\n      0x02\n      0x01\n      swap1\n      sload\n      swap1\n      0x0100\n      exp\n      swap1\n      div\n      0xff\n      and\n        /* \"contracts/staking2.sol\":11786:11800  !_initializing */\n      iszero\n        /* \"contracts/staking2.sol\":11764:11800  bool isTopLevelCall = !_initializing */\n      swap1\n      pop\n        /* \"contracts/staking2.sol\":11834:11848  isTopLevelCall */\n      dup1\n        /* \"contracts/staking2.sol\":11834:11868  isTopLevelCall && _initialized < 1 */\n      dup1\n      iszero\n      tag_247\n      jumpi\n      pop\n        /* \"contracts/staking2.sol\":11867:11868  1 */\n      0x01\n        /* \"contracts/staking2.sol\":11852:11864  _initialized */\n      0x02\n      0x00\n      swap1\n      sload\n      swap1\n      0x0100\n      exp\n      swap1\n      div\n      0xff\n      and\n        /* \"contracts/staking2.sol\":11852:11868  _initialized < 1 */\n      0xff\n      and\n      lt\n        /* \"contracts/staking2.sol\":11834:11868  isTopLevelCall && _initialized < 1 */\n    tag_247:\n        /* \"contracts/staking2.sol\":11833:11930  (isTopLevelCall && _initialized < 1) || (!Address.isContract(address(this)) && _initialized == 1) */\n      dup1\n      tag_248\n      jumpi\n      pop\n        /* \"contracts/staking2.sol\":11875:11908  Address.isContract(address(this)) */\n      tag_249\n        /* \"contracts/staking2.sol\":11902:11906  this */\n      address\n        /* \"contracts/staking2.sol\":11875:11893  Address.isContract */\n      tag_250\n        /* \"contracts/staking2.sol\":11875:11908  Address.isContract(address(this)) */\n      jump\t// in\n    tag_249:\n        /* \"contracts/staking2.sol\":11874:11908  !Address.isContract(address(this)) */\n      iszero\n        /* \"contracts/staking2.sol\":11874:11929  !Address.isContract(address(this)) && _initialized == 1 */\n      dup1\n      iszero\n      tag_251\n      jumpi\n      pop\n        /* \"contracts/staking2.sol\":11928:11929  1 */\n      0x01\n        /* \"contracts/staking2.sol\":11912:11924  _initialized */\n      0x02\n      0x00\n      swap1\n      sload\n      swap1\n      0x0100\n      exp\n      swap1\n      div\n      0xff\n      and\n        /* \"contracts/staking2.sol\":11912:11929  _initialized == 1 */\n      0xff\n      and\n      eq\n        /* \"contracts/staking2.sol\":11874:11929  !Address.isContract(address(this)) && _initialized == 1 */\n    tag_251:\n        /* \"contracts/staking2.sol\":11833:11930  (isTopLevelCall && _initialized < 1) || (!Address.isContract(address(this)) && _initialized == 1) */\n    tag_248:\n        /* \"contracts/staking2.sol\":11811:12004  require(... */\n      tag_252\n      jumpi\n      mload(0x40)\n      0x08c379a000000000000000000000000000000000000000000000000000000000\n      dup2\n      mstore\n      0x04\n      add\n      tag_253\n      swap1\n      tag_254\n      jump\t// in\n    tag_253:\n      mload(0x40)\n      dup1\n      swap2\n      sub\n      swap1\n      revert\n    tag_252:\n        /* \"contracts/staking2.sol\":12030:12031  1 */\n      0x01\n        /* \"contracts/staking2.sol\":12015:12027  _initialized */\n      0x02\n      0x00\n        /* \"contracts/staking2.sol\":12015:12031  _initialized = 1 */\n      0x0100\n      exp\n      dup2\n      sload\n      dup2\n      0xff\n      mul\n      not\n      and\n      swap1\n      dup4\n      0xff\n      and\n      mul\n      or\n      swap1\n      sstore\n      pop\n        /* \"contracts/staking2.sol\":12046:12060  isTopLevelCall */\n      dup1\n        /* \"contracts/staking2.sol\":12042:12109  if (isTopLevelCall) {... */\n      iszero\n      tag_255\n      jumpi\n        /* \"contracts/staking2.sol\":12093:12097  true */\n      0x01\n        /* \"contracts/staking2.sol\":12077:12090  _initializing */\n      0x02\n      0x01\n        /* \"contracts/staking2.sol\":12077:12097  _initializing = true */\n      0x0100\n      exp\n      dup2\n      sload\n      dup2\n      0xff\n      mul\n      not\n      and\n      swap1\n      dup4\n      iszero\n      iszero\n      mul\n      or\n      swap1\n      sstore\n      pop\n        /* \"contracts/staking2.sol\":12042:12109  if (isTopLevelCall) {... */\n    tag_255:\n        /* \"contracts/staking2.sol\":25816:26122  __TokenStaking_init_unchained(... */\n      tag_257\n        /* \"contracts/staking2.sol\":25860:25866  owner_ */\n      dup11\n        /* \"contracts/staking2.sol\":25881:25894  tokenAddress_ */\n      dup11\n        /* \"contracts/staking2.sol\":25909:25917  apyRate_ */\n      dup11\n        /* \"contracts/staking2.sol\":25932:25953  minimumStakingAmount_ */\n      dup11\n        /* \"contracts/staking2.sol\":25968:25987  maxStakeTokenLimit_ */\n      dup11\n        /* \"contracts/staking2.sol\":26002:26017  stakeStartDate_ */\n      dup11\n        /* \"contracts/staking2.sol\":26032:26045  stakeEndDate_ */\n      dup11\n        /* \"contracts/staking2.sol\":26060:26070  stakeDays_ */\n      dup11\n        /* \"contracts/staking2.sol\":26085:26111  earlyUnstakeFeePercentage_ */\n      dup11\n        /* \"contracts/staking2.sol\":25816:25845  __TokenStaking_init_unchained */\n      tag_258\n        /* \"contracts/staking2.sol\":25816:26122  __TokenStaking_init_unchained(... */\n      jump\t// in\n    tag_257:\n        /* \"contracts/staking2.sol\":12135:12149  isTopLevelCall */\n      dup1\n        /* \"contracts/staking2.sol\":12131:12233  if (isTopLevelCall) {... */\n      iszero\n      tag_259\n      jumpi\n        /* \"contracts/staking2.sol\":12182:12187  false */\n      0x00\n        /* \"contracts/staking2.sol\":12166:12179  _initializing */\n      0x02\n      0x01\n        /* \"contracts/staking2.sol\":12166:12187  _initializing = false */\n      0x0100\n      exp\n      dup2\n      sload\n      dup2\n      0xff\n      mul\n      not\n      and\n      swap1\n      dup4\n      iszero\n      iszero\n      mul\n      or\n      swap1\n      sstore\n      pop\n        /* \"contracts/staking2.sol\":12207:12221  Initialized(1) */\n      0x7f26b83ff96e1f2b6a682f133852f6798a09c465da95921460cefb3847402498\n        /* \"contracts/staking2.sol\":12219:12220  1 */\n      0x01\n        /* \"contracts/staking2.sol\":12207:12221  Initialized(1) */\n      mload(0x40)\n      tag_260\n      swap2\n      swap1\n      tag_261\n      jump\t// in\n    tag_260:\n      mload(0x40)\n      dup1\n      swap2\n      sub\n      swap1\n      log1\n        /* \"contracts/staking2.sol\":12131:12233  if (isTopLevelCall) {... */\n    tag_259:\n        /* \"contracts/staking2.sol\":11753:12240  {... */\n      pop\n        /* \"contracts/staking2.sol\":25449:26130  function initialize(... */\n      pop\n      pop\n      pop\n      pop\n      pop\n      pop\n      pop\n      pop\n      pop\n      jump\t// out\n        /* \"contracts/staking2.sol\":24824:24878  uint256 public constant APY_RATE_CHANGE_THRESHOLD = 10 */\n    tag_97:\n        /* \"contracts/staking2.sol\":24876:24878  10 */\n      0x0a\n        /* \"contracts/staking2.sol\":24824:24878  uint256 public constant APY_RATE_CHANGE_THRESHOLD = 10 */\n      dup2\n      jump\t// out\n        /* \"contracts/staking2.sol\":19261:19348  function owner() public view virtual returns (address) {... */\n    tag_100:\n        /* \"contracts/staking2.sol\":19307:19314  address */\n      0x00\n        /* \"contracts/staking2.sol\":19334:19340  _owner */\n      dup1\n      0x00\n      swap1\n      sload\n      swap1\n      0x0100\n      exp\n      swap1\n      div\n      0xffffffffffffffffffffffffffffffffffffffff\n      and\n        /* \"contracts/staking2.sol\":19327:19340  return _owner */\n      swap1\n      pop\n        /* \"contracts/staking2.sol\":19261:19348  function owner() public view virtual returns (address) {... */\n      swap1\n      jump\t// out\n        /* \"contracts/staking2.sol\":29847:30005  function getWithdrawableAmount() external view returns (uint256) {... */\n    tag_104:\n        /* \"contracts/staking2.sol\":29903:29910  uint256 */\n      0x00\n        /* \"contracts/staking2.sol\":29979:29997  _totalStakedTokens */\n      sload(0x07)\n        /* \"contracts/staking2.sol\":29937:29950  _tokenAddress */\n      0x0b\n      0x01\n      swap1\n      sload\n      swap1\n      0x0100\n      exp\n      swap1\n      div\n      0xffffffffffffffffffffffffffffffffffffffff\n      and\n        /* \"contracts/staking2.sol\":29930:29961  IERC20(_tokenAddress).balanceOf */\n      0xffffffffffffffffffffffffffffffffffffffff\n      and\n      0x70a08231\n        /* \"contracts/staking2.sol\":29970:29974  this */\n      address\n        /* \"contracts/staking2.sol\":29930:29976  IERC20(_tokenAddress).balanceOf(address(this)) */\n      mload(0x40)\n      dup3\n      0xffffffff\n      and\n      0xe0\n      shl\n      dup2\n      mstore\n      0x04\n      add\n      tag_264\n      swap2\n      swap1\n      tag_102\n      jump\t// in\n    tag_264:\n      0x20\n      mload(0x40)\n      dup1\n      dup4\n      sub\n      dup2\n      dup7\n      gas\n      staticcall\n      iszero\n      dup1\n      iszero\n      tag_266\n      jumpi\n      returndatasize\n      0x00\n      dup1\n      returndatacopy\n      revert(0x00, returndatasize)\n    tag_266:\n      pop\n      pop\n      pop\n      pop\n      mload(0x40)\n      returndatasize\n      not(0x1f)\n      0x1f\n      dup3\n      add\n      and\n      dup3\n      add\n      dup1\n      0x40\n      mstore\n      pop\n      dup2\n      add\n      swap1\n      tag_267\n      swap2\n      swap1\n      tag_151\n      jump\t// in\n    tag_267:\n        /* \"contracts/staking2.sol\":29930:29997  IERC20(_tokenAddress).balanceOf(address(this)) - _totalStakedTokens */\n      tag_268\n      swap2\n      swap1\n      tag_183\n      jump\t// in\n    tag_268:\n        /* \"contracts/staking2.sol\":29923:29997  return IERC20(_tokenAddress).balanceOf(address(this)) - _totalStakedTokens */\n      swap1\n      pop\n        /* \"contracts/staking2.sol\":29847:30005  function getWithdrawableAmount() external view returns (uint256) {... */\n      swap1\n      jump\t// out\n        /* \"contracts/staking2.sol\":28494:28588  function getTotalUsers() external view returns (uint256) {... */\n    tag_107:\n        /* \"contracts/staking2.sol\":28542:28549  uint256 */\n      0x00\n        /* \"contracts/staking2.sol\":28569:28580  _totalUsers */\n      sload(0x08)\n        /* \"contracts/staking2.sol\":28562:28580  return _totalUsers */\n      swap1\n      pop\n        /* \"contracts/staking2.sol\":28494:28588  function getTotalUsers() external view returns (uint256) {... */\n      swap1\n      jump\t// out\n        /* \"contracts/staking2.sol\":32877:32983  function stake(uint256 _amount) external nonReentrant {... */\n    tag_111:\n        /* \"contracts/staking2.sol\":16186:16187  2 */\n      0x02\n        /* \"contracts/staking2.sol\":16784:16791  _status */\n      sload(0x01)\n        /* \"contracts/staking2.sol\":16784:16803  _status != _ENTERED */\n      sub\n        /* \"contracts/staking2.sol\":16776:16839  require(_status != _ENTERED, \"ReentrancyGuard: reentrant call\") */\n      tag_271\n      jumpi\n      mload(0x40)\n      0x08c379a000000000000000000000000000000000000000000000000000000000\n      dup2\n      mstore\n      0x04\n      add\n      tag_272\n      swap1\n      tag_145\n      jump\t// in\n    tag_272:\n      mload(0x40)\n      dup1\n      swap2\n      sub\n      swap1\n      revert\n    tag_271:\n        /* \"contracts/staking2.sol\":16186:16187  2 */\n      0x02\n        /* \"contracts/staking2.sol\":16917:16924  _status */\n      0x01\n        /* \"contracts/staking2.sol\":16917:16935  _status = _ENTERED */\n      dup2\n      swap1\n      sstore\n      pop\n        /* \"contracts/staking2.sol\":32942:32975  _stakeTokens(_amount, msg.sender) */\n      tag_274\n        /* \"contracts/staking2.sol\":32955:32962  _amount */\n      dup2\n        /* \"contracts/staking2.sol\":32964:32974  msg.sender */\n      caller\n        /* \"contracts/staking2.sol\":32942:32954  _stakeTokens */\n      tag_237\n        /* \"contracts/staking2.sol\":32942:32975  _stakeTokens(_amount, msg.sender) */\n      jump\t// in\n    tag_274:\n        /* \"contracts/staking2.sol\":16142:16143  1 */\n      0x01\n        /* \"contracts/staking2.sol\":17096:17103  _status */\n      dup1\n        /* \"contracts/staking2.sol\":17096:17118  _status = _NOT_ENTERED */\n      dup2\n      swap1\n      sstore\n      pop\n        /* \"contracts/staking2.sol\":32877:32983  function stake(uint256 _amount) external nonReentrant {... */\n      pop\n      jump\t// out\n        /* \"contracts/staking2.sol\":24763:24817  uint256 public constant PERCENTAGE_DENOMINATOR = 10000 */\n    tag_113:\n        /* \"contracts/staking2.sol\":24812:24817  10000 */\n      0x2710\n        /* \"contracts/staking2.sol\":24763:24817  uint256 public constant PERCENTAGE_DENOMINATOR = 10000 */\n      dup2\n      jump\t// out\n        /* \"contracts/staking2.sol\":35685:36255  function claimReward() external nonReentrant whenTreasuryHasBalance(_users[msg.sender].rewardAmount) {... */\n    tag_116:\n        /* \"contracts/staking2.sol\":16186:16187  2 */\n      0x02\n        /* \"contracts/staking2.sol\":16784:16791  _status */\n      sload(0x01)\n        /* \"contracts/staking2.sol\":16784:16803  _status != _ENTERED */\n      sub\n        /* \"contracts/staking2.sol\":16776:16839  require(_status != _ENTERED, \"ReentrancyGuard: reentrant call\") */\n      tag_276\n      jumpi\n      mload(0x40)\n      0x08c379a000000000000000000000000000000000000000000000000000000000\n      dup2\n      mstore\n      0x04\n      add\n      tag_277\n      swap1\n      tag_145\n      jump\t// in\n    tag_277:\n      mload(0x40)\n      dup1\n      swap2\n      sub\n      swap1\n      revert\n    tag_276:\n        /* \"contracts/staking2.sol\":16186:16187  2 */\n      0x02\n        /* \"contracts/staking2.sol\":16917:16924  _status */\n      0x01\n        /* \"contracts/staking2.sol\":16917:16935  _status = _ENTERED */\n      dup2\n      swap1\n      sstore\n      pop\n        /* \"contracts/staking2.sol\":35753:35759  _users */\n      0x0d\n        /* \"contracts/staking2.sol\":35753:35771  _users[msg.sender] */\n      0x00\n        /* \"contracts/staking2.sol\":35760:35770  msg.sender */\n      caller\n        /* \"contracts/staking2.sol\":35753:35771  _users[msg.sender] */\n      0xffffffffffffffffffffffffffffffffffffffff\n      and\n      0xffffffffffffffffffffffffffffffffffffffff\n      and\n      dup2\n      mstore\n      0x20\n      add\n      swap1\n      dup2\n      mstore\n      0x20\n      add\n      0x00\n      keccak256\n        /* \"contracts/staking2.sol\":35753:35784  _users[msg.sender].rewardAmount */\n      0x01\n      add\n      sload\n        /* \"contracts/staking2.sol\":25339:25345  amount */\n      dup1\n        /* \"contracts/staking2.sol\":25296:25309  _tokenAddress */\n      0x0b\n      0x01\n      swap1\n      sload\n      swap1\n      0x0100\n      exp\n      swap1\n      div\n      0xffffffffffffffffffffffffffffffffffffffff\n      and\n        /* \"contracts/staking2.sol\":25289:25320  IERC20(_tokenAddress).balanceOf */\n      0xffffffffffffffffffffffffffffffffffffffff\n      and\n      0x70a08231\n        /* \"contracts/staking2.sol\":25329:25333  this */\n      address\n        /* \"contracts/staking2.sol\":25289:25335  IERC20(_tokenAddress).balanceOf(address(this)) */\n      mload(0x40)\n      dup3\n      0xffffffff\n      and\n      0xe0\n      shl\n      dup2\n      mstore\n      0x04\n      add\n      tag_279\n      swap2\n      swap1\n      tag_102\n      jump\t// in\n    tag_279:\n      0x20\n      mload(0x40)\n      dup1\n      dup4\n      sub\n      dup2\n      dup7\n      gas\n      staticcall\n      iszero\n      dup1\n      iszero\n      tag_281\n      jumpi\n      returndatasize\n      0x00\n      dup1\n      returndatacopy\n      revert(0x00, returndatasize)\n    tag_281:\n      pop\n      pop\n      pop\n      pop\n      mload(0x40)\n      returndatasize\n      not(0x1f)\n      0x1f\n      dup3\n      add\n      and\n      dup3\n      add\n      dup1\n      0x40\n      mstore\n      pop\n      dup2\n      add\n      swap1\n      tag_282\n      swap2\n      swap1\n      tag_151\n      jump\t// in\n    tag_282:\n        /* \"contracts/staking2.sol\":25289:25345  IERC20(_tokenAddress).balanceOf(address(this)) >= amount */\n      lt\n      iszero\n        /* \"contracts/staking2.sol\":25267:25421  require(... */\n      tag_283\n      jumpi\n      mload(0x40)\n      0x08c379a000000000000000000000000000000000000000000000000000000000\n      dup2\n      mstore\n      0x04\n      add\n      tag_284\n      swap1\n      tag_154\n      jump\t// in\n    tag_284:\n      mload(0x40)\n      dup1\n      swap2\n      sub\n      swap1\n      revert\n    tag_283:\n        /* \"contracts/staking2.sol\":35797:35826  _calculateRewards(msg.sender) */\n      tag_286\n        /* \"contracts/staking2.sol\":35815:35825  msg.sender */\n      caller\n        /* \"contracts/staking2.sol\":35797:35814  _calculateRewards */\n      tag_171\n        /* \"contracts/staking2.sol\":35797:35826  _calculateRewards(msg.sender) */\n      jump\t// in\n    tag_286:\n        /* \"contracts/staking2.sol\":35837:35857  uint256 rewardAmount */\n      0x00\n        /* \"contracts/staking2.sol\":35860:35866  _users */\n      0x0d\n        /* \"contracts/staking2.sol\":35860:35878  _users[msg.sender] */\n      0x00\n        /* \"contracts/staking2.sol\":35867:35877  msg.sender */\n      caller\n        /* \"contracts/staking2.sol\":35860:35878  _users[msg.sender] */\n      0xffffffffffffffffffffffffffffffffffffffff\n      and\n      0xffffffffffffffffffffffffffffffffffffffff\n      and\n      dup2\n      mstore\n      0x20\n      add\n      swap1\n      dup2\n      mstore\n      0x20\n      add\n      0x00\n      keccak256\n        /* \"contracts/staking2.sol\":35860:35891  _users[msg.sender].rewardAmount */\n      0x01\n      add\n      sload\n        /* \"contracts/staking2.sol\":35837:35891  uint256 rewardAmount = _users[msg.sender].rewardAmount */\n      swap1\n      pop\n        /* \"contracts/staking2.sol\":35927:35928  0 */\n      0x00\n        /* \"contracts/staking2.sol\":35912:35924  rewardAmount */\n      dup2\n        /* \"contracts/staking2.sol\":35912:35928  rewardAmount > 0 */\n      gt\n        /* \"contracts/staking2.sol\":35904:35965  require(rewardAmount > 0, \"TokenStaking: no reward to claim\") */\n      tag_287\n      jumpi\n      mload(0x40)\n      0x08c379a000000000000000000000000000000000000000000000000000000000\n      dup2\n      mstore\n      0x04\n      add\n      tag_288\n      swap1\n      tag_289\n      jump\t// in\n    tag_288:\n      mload(0x40)\n      dup1\n      swap2\n      sub\n      swap1\n      revert\n    tag_287:\n        /* \"contracts/staking2.sol\":35993:36006  _tokenAddress */\n      0x0b\n      0x01\n      swap1\n      sload\n      swap1\n      0x0100\n      exp\n      swap1\n      div\n      0xffffffffffffffffffffffffffffffffffffffff\n      and\n        /* \"contracts/staking2.sol\":35986:36016  IERC20(_tokenAddress).transfer */\n      0xffffffffffffffffffffffffffffffffffffffff\n      and\n      0xa9059cbb\n        /* \"contracts/staking2.sol\":36017:36027  msg.sender */\n      caller\n        /* \"contracts/staking2.sol\":36029:36041  rewardAmount */\n      dup4\n        /* \"contracts/staking2.sol\":35986:36042  IERC20(_tokenAddress).transfer(msg.sender, rewardAmount) */\n      mload(0x40)\n      dup4\n      0xffffffff\n      and\n      0xe0\n      shl\n      dup2\n      mstore\n      0x04\n      add\n      tag_290\n      swap3\n      swap2\n      swap1\n      tag_189\n      jump\t// in\n    tag_290:\n      0x20\n      mload(0x40)\n      dup1\n      dup4\n      sub\n      dup2\n      0x00\n      dup8\n      gas\n      call\n      iszero\n      dup1\n      iszero\n      tag_292\n      jumpi\n      returndatasize\n      0x00\n      dup1\n      returndatacopy\n      revert(0x00, returndatasize)\n    tag_292:\n      pop\n      pop\n      pop\n      pop\n      mload(0x40)\n      returndatasize\n      not(0x1f)\n      0x1f\n      dup3\n      add\n      and\n      dup3\n      add\n      dup1\n      0x40\n      mstore\n      pop\n      dup2\n      add\n      swap1\n      tag_293\n      swap2\n      swap1\n      tag_163\n      jump\t// in\n    tag_293:\n        /* \"contracts/staking2.sol\":35978:36079  require(IERC20(_tokenAddress).transfer(msg.sender, rewardAmount), \"TokenStaking: failed to transfer\") */\n      tag_294\n      jumpi\n      mload(0x40)\n      0x08c379a000000000000000000000000000000000000000000000000000000000\n      dup2\n      mstore\n      0x04\n      add\n      tag_295\n      swap1\n      tag_195\n      jump\t// in\n    tag_295:\n      mload(0x40)\n      dup1\n      swap2\n      sub\n      swap1\n      revert\n    tag_294:\n        /* \"contracts/staking2.sol\":36126:36127  0 */\n      0x00\n        /* \"contracts/staking2.sol\":36092:36098  _users */\n      0x0d\n        /* \"contracts/staking2.sol\":36092:36110  _users[msg.sender] */\n      0x00\n        /* \"contracts/staking2.sol\":36099:36109  msg.sender */\n      caller\n        /* \"contracts/staking2.sol\":36092:36110  _users[msg.sender] */\n      0xffffffffffffffffffffffffffffffffffffffff\n      and\n      0xffffffffffffffffffffffffffffffffffffffff\n      and\n      dup2\n      mstore\n      0x20\n      add\n      swap1\n      dup2\n      mstore\n      0x20\n      add\n      0x00\n      keccak256\n        /* \"contracts/staking2.sol\":36092:36123  _users[msg.sender].rewardAmount */\n      0x01\n      add\n        /* \"contracts/staking2.sol\":36092:36127  _users[msg.sender].rewardAmount = 0 */\n      dup2\n      swap1\n      sstore\n      pop\n        /* \"contracts/staking2.sol\":36180:36192  rewardAmount */\n      dup1\n        /* \"contracts/staking2.sol\":36138:36144  _users */\n      0x0d\n        /* \"contracts/staking2.sol\":36138:36156  _users[msg.sender] */\n      0x00\n        /* \"contracts/staking2.sol\":36145:36155  msg.sender */\n      caller\n        /* \"contracts/staking2.sol\":36138:36156  _users[msg.sender] */\n      0xffffffffffffffffffffffffffffffffffffffff\n      and\n      0xffffffffffffffffffffffffffffffffffffffff\n      and\n      dup2\n      mstore\n      0x20\n      add\n      swap1\n      dup2\n      mstore\n      0x20\n      add\n      0x00\n      keccak256\n        /* \"contracts/staking2.sol\":36138:36176  _users[msg.sender].rewardsClaimedSoFar */\n      0x04\n      add\n      0x00\n        /* \"contracts/staking2.sol\":36138:36192  _users[msg.sender].rewardsClaimedSoFar += rewardAmount */\n      dup3\n      dup3\n      sload\n      tag_296\n      swap2\n      swap1\n      tag_173\n      jump\t// in\n    tag_296:\n      swap3\n      pop\n      pop\n      dup2\n      swap1\n      sstore\n      pop\n        /* \"contracts/staking2.sol\":36222:36232  msg.sender */\n      caller\n        /* \"contracts/staking2.sol\":36210:36247  ClaimReward(msg.sender, rewardAmount) */\n      0xffffffffffffffffffffffffffffffffffffffff\n      and\n      0xba8de60c3403ec381d1d484652ea1980e3c3e56359195c92525bff4ce47ad98e\n        /* \"contracts/staking2.sol\":36234:36246  rewardAmount */\n      dup3\n        /* \"contracts/staking2.sol\":36210:36247  ClaimReward(msg.sender, rewardAmount) */\n      mload(0x40)\n      tag_297\n      swap2\n      swap1\n      tag_43\n      jump\t// in\n    tag_297:\n      mload(0x40)\n      dup1\n      swap2\n      sub\n      swap1\n      log2\n        /* \"contracts/staking2.sol\":35786:36255  {... */\n      pop\n        /* \"contracts/staking2.sol\":16948:16949  _ */\n      pop\n        /* \"contracts/staking2.sol\":16142:16143  1 */\n      0x01\n        /* \"contracts/staking2.sol\":17096:17103  _status */\n      dup1\n        /* \"contracts/staking2.sol\":17096:17118  _status = _NOT_ENTERED */\n      dup2\n      swap1\n      sstore\n      pop\n        /* \"contracts/staking2.sol\":35685:36255  function claimReward() external nonReentrant whenTreasuryHasBalance(_users[msg.sender].rewardAmount) {... */\n      jump\t// out\n        /* \"contracts/staking2.sol\":27661:27773  function getMaxStakingTokenLimit() external view returns (uint256) {... */\n    tag_118:\n        /* \"contracts/staking2.sol\":27719:27726  uint256 */\n      0x00\n        /* \"contracts/staking2.sol\":27746:27765  _maxStakeTokenLimit */\n      sload(0x04)\n        /* \"contracts/staking2.sol\":27739:27765  return _maxStakeTokenLimit */\n      swap1\n      pop\n        /* \"contracts/staking2.sol\":27661:27773  function getMaxStakingTokenLimit() external view returns (uint256) {... */\n      swap1\n      jump\t// out\n        /* \"contracts/staking2.sol\":32076:32181  function toggleStakingStatus() external onlyOwner {... */\n    tag_121:\n        /* \"contracts/staking2.sol\":19147:19160  _checkOwner() */\n      tag_300\n        /* \"contracts/staking2.sol\":19147:19158  _checkOwner */\n      tag_140\n        /* \"contracts/staking2.sol\":19147:19160  _checkOwner() */\n      jump\t// in\n    tag_300:\n        /* \"contracts/staking2.sol\":32157:32173  _isStakingPaused */\n      0x0b\n      0x00\n      swap1\n      sload\n      swap1\n      0x0100\n      exp\n      swap1\n      div\n      0xff\n      and\n        /* \"contracts/staking2.sol\":32156:32173  !_isStakingPaused */\n      iszero\n        /* \"contracts/staking2.sol\":32137:32153  _isStakingPaused */\n      0x0b\n      0x00\n        /* \"contracts/staking2.sol\":32137:32173  _isStakingPaused = !_isStakingPaused */\n      0x0100\n      exp\n      dup2\n      sload\n      dup2\n      0xff\n      mul\n      not\n      and\n      swap1\n      dup4\n      iszero\n      iszero\n      mul\n      or\n      swap1\n      sstore\n      pop\n        /* \"contracts/staking2.sol\":32076:32181  function toggleStakingStatus() external onlyOwner {... */\n      jump\t// out\n        /* \"contracts/staking2.sol\":29072:29171  function getStakingStatus() external view returns (bool) {... */\n    tag_123:\n        /* \"contracts/staking2.sol\":29123:29127  bool */\n      0x00\n        /* \"contracts/staking2.sol\":29147:29163  _isStakingPaused */\n      0x0b\n      0x00\n      swap1\n      sload\n      swap1\n      0x0100\n      exp\n      swap1\n      div\n      0xff\n      and\n        /* \"contracts/staking2.sol\":29140:29163  return _isStakingPaused */\n      swap1\n      pop\n        /* \"contracts/staking2.sol\":29072:29171  function getStakingStatus() external view returns (bool) {... */\n      swap1\n      jump\t// out\n        /* \"contracts/staking2.sol\":29296:29380  function getAPY() external view returns (uint256) {... */\n    tag_126:\n        /* \"contracts/staking2.sol\":29337:29344  uint256 */\n      0x00\n        /* \"contracts/staking2.sol\":29364:29372  _apyRate */\n      sload(0x0c)\n        /* \"contracts/staking2.sol\":29357:29372  return _apyRate */\n      swap1\n      pop\n        /* \"contracts/staking2.sol\":29296:29380  function getAPY() external view returns (uint256) {... */\n      swap1\n      jump\t// out\n        /* \"contracts/staking2.sol\":28085:28183  function getStakeEndDate() external view returns (uint256) {... */\n    tag_129:\n        /* \"contracts/staking2.sol\":28135:28142  uint256 */\n      0x00\n        /* \"contracts/staking2.sol\":28162:28175  _stakeEndDate */\n      sload(0x05)\n        /* \"contracts/staking2.sol\":28155:28175  return _stakeEndDate */\n      swap1\n      pop\n        /* \"contracts/staking2.sol\":28085:28183  function getStakeEndDate() external view returns (uint256) {... */\n      swap1\n      jump\t// out\n        /* \"contracts/staking2.sol\":28670:28762  function getStakeDays() external view returns (uint256) {... */\n    tag_132:\n        /* \"contracts/staking2.sol\":28717:28724  uint256 */\n      0x00\n        /* \"contracts/staking2.sol\":28744:28754  _stakeDays */\n      sload(0x09)\n        /* \"contracts/staking2.sol\":28737:28754  return _stakeDays */\n      swap1\n      pop\n        /* \"contracts/staking2.sol\":28670:28762  function getStakeDays() external view returns (uint256) {... */\n      swap1\n      jump\t// out\n        /* \"contracts/staking2.sol\":20167:20368  function transferOwnership(address newOwner) public virtual onlyOwner {... */\n    tag_136:\n        /* \"contracts/staking2.sol\":19147:19160  _checkOwner() */\n      tag_307\n        /* \"contracts/staking2.sol\":19147:19158  _checkOwner */\n      tag_140\n        /* \"contracts/staking2.sol\":19147:19160  _checkOwner() */\n      jump\t// in\n    tag_307:\n        /* \"contracts/staking2.sol\":20276:20277  0 */\n      0x00\n        /* \"contracts/staking2.sol\":20256:20278  newOwner != address(0) */\n      0xffffffffffffffffffffffffffffffffffffffff\n      and\n        /* \"contracts/staking2.sol\":20256:20264  newOwner */\n      dup2\n        /* \"contracts/staking2.sol\":20256:20278  newOwner != address(0) */\n      0xffffffffffffffffffffffffffffffffffffffff\n      and\n      sub\n        /* \"contracts/staking2.sol\":20248:20321  require(newOwner != address(0), \"Ownable: new owner is the zero address\") */\n      tag_309\n      jumpi\n      mload(0x40)\n      0x08c379a000000000000000000000000000000000000000000000000000000000\n      dup2\n      mstore\n      0x04\n      add\n      tag_310\n      swap1\n      tag_311\n      jump\t// in\n    tag_310:\n      mload(0x40)\n      dup1\n      swap2\n      sub\n      swap1\n      revert\n    tag_309:\n        /* \"contracts/staking2.sol\":20332:20360  _transferOwnership(newOwner) */\n      tag_312\n        /* \"contracts/staking2.sol\":20351:20359  newOwner */\n      dup2\n        /* \"contracts/staking2.sol\":20332:20350  _transferOwnership */\n      tag_242\n        /* \"contracts/staking2.sol\":20332:20360  _transferOwnership(newOwner) */\n      jump\t// in\n    tag_312:\n        /* \"contracts/staking2.sol\":20167:20368  function transferOwnership(address newOwner) public virtual onlyOwner {... */\n      pop\n      jump\t// out\n        /* \"contracts/staking2.sol\":19426:19558  function _checkOwner() internal view virtual {... */\n    tag_140:\n        /* \"contracts/staking2.sol\":19501:19513  _msgSender() */\n      tag_314\n        /* \"contracts/staking2.sol\":19501:19511  _msgSender */\n      tag_315\n        /* \"contracts/staking2.sol\":19501:19513  _msgSender() */\n      jump\t// in\n    tag_314:\n        /* \"contracts/staking2.sol\":19490:19513  owner() == _msgSender() */\n      0xffffffffffffffffffffffffffffffffffffffff\n      and\n        /* \"contracts/staking2.sol\":19490:19497  owner() */\n      tag_316\n        /* \"contracts/staking2.sol\":19490:19495  owner */\n      tag_100\n        /* \"contracts/staking2.sol\":19490:19497  owner() */\n      jump\t// in\n    tag_316:\n        /* \"contracts/staking2.sol\":19490:19513  owner() == _msgSender() */\n      0xffffffffffffffffffffffffffffffffffffffff\n      and\n      eq\n        /* \"contracts/staking2.sol\":19482:19550  require(owner() == _msgSender(), \"Ownable: caller is not the owner\") */\n      tag_317\n      jumpi\n      mload(0x40)\n      0x08c379a000000000000000000000000000000000000000000000000000000000\n      dup2\n      mstore\n      0x04\n      add\n      tag_318\n      swap1\n      tag_319\n      jump\t// in\n    tag_318:\n      mload(0x40)\n      dup1\n      swap2\n      sub\n      swap1\n      revert\n    tag_317:\n        /* \"contracts/staking2.sol\":19426:19558  function _checkOwner() internal view virtual {... */\n      jump\t// out\n        /* \"contracts/staking2.sol\":36464:36725  function _calculateRewards(address _user) private {... */\n    tag_171:\n        /* \"contracts/staking2.sol\":36526:36544  uint256 userReward */\n      0x00\n        /* \"contracts/staking2.sol\":36546:36565  uint256 currentTime */\n      dup1\n        /* \"contracts/staking2.sol\":36569:36600  _getUserEstimatedRewards(_user) */\n      tag_321\n        /* \"contracts/staking2.sol\":36594:36599  _user */\n      dup4\n        /* \"contracts/staking2.sol\":36569:36593  _getUserEstimatedRewards */\n      tag_219\n        /* \"contracts/staking2.sol\":36569:36600  _getUserEstimatedRewards(_user) */\n      jump\t// in\n    tag_321:\n        /* \"contracts/staking2.sol\":36525:36600  (uint256 userReward, uint256 currentTime) = _getUserEstimatedRewards(_user) */\n      swap2\n      pop\n      swap2\n      pop\n        /* \"contracts/staking2.sol\":36643:36653  userReward */\n      dup2\n        /* \"contracts/staking2.sol\":36613:36619  _users */\n      0x0d\n        /* \"contracts/staking2.sol\":36613:36626  _users[_user] */\n      0x00\n        /* \"contracts/staking2.sol\":36620:36625  _user */\n      dup6\n        /* \"contracts/staking2.sol\":36613:36626  _users[_user] */\n      0xffffffffffffffffffffffffffffffffffffffff\n      and\n      0xffffffffffffffffffffffffffffffffffffffff\n      and\n      dup2\n      mstore\n      0x20\n      add\n      swap1\n      dup2\n      mstore\n      0x20\n      add\n      0x00\n      keccak256\n        /* \"contracts/staking2.sol\":36613:36639  _users[_user].rewardAmount */\n      0x01\n      add\n      0x00\n        /* \"contracts/staking2.sol\":36613:36653  _users[_user].rewardAmount += userReward */\n      dup3\n      dup3\n      sload\n      tag_322\n      swap2\n      swap1\n      tag_173\n      jump\t// in\n    tag_322:\n      swap3\n      pop\n      pop\n      dup2\n      swap1\n      sstore\n      pop\n        /* \"contracts/staking2.sol\":36706:36717  currentTime */\n      dup1\n        /* \"contracts/staking2.sol\":36664:36670  _users */\n      0x0d\n        /* \"contracts/staking2.sol\":36664:36677  _users[_user] */\n      0x00\n        /* \"contracts/staking2.sol\":36671:36676  _user */\n      dup6\n        /* \"contracts/staking2.sol\":36664:36677  _users[_user] */\n      0xffffffffffffffffffffffffffffffffffffffff\n      and\n      0xffffffffffffffffffffffffffffffffffffffff\n      and\n      dup2\n      mstore\n      0x20\n      add\n      swap1\n      dup2\n      mstore\n      0x20\n      add\n      0x00\n      keccak256\n        /* \"contracts/staking2.sol\":36664:36703  _users[_user].lastRewardCalculationTime */\n      0x03\n      add\n        /* \"contracts/staking2.sol\":36664:36717  _users[_user].lastRewardCalculationTime = currentTime */\n      dup2\n      swap1\n      sstore\n      pop\n        /* \"contracts/staking2.sol\":36514:36725  {... */\n      pop\n      pop\n        /* \"contracts/staking2.sol\":36464:36725  function _calculateRewards(address _user) private {... */\n      pop\n      jump\t// out\n        /* \"contracts/staking2.sol\":37597:37704  function getCurrentTime() internal view virtual returns (uint256) {... */\n    tag_175:\n        /* \"contracts/staking2.sol\":37654:37661  uint256 */\n      0x00\n        /* \"contracts/staking2.sol\":37681:37696  block.timestamp */\n      timestamp\n        /* \"contracts/staking2.sol\":37674:37696  return block.timestamp */\n      swap1\n      pop\n        /* \"contracts/staking2.sol\":37597:37704  function getCurrentTime() internal view virtual returns (uint256) {... */\n      swap1\n      jump\t// out\n        /* \"contracts/staking2.sol\":36913:37549  function _getUserEstimatedRewards(address _user) private view returns (uint256, uint256) {... */\n    tag_219:\n        /* \"contracts/staking2.sol\":36984:36991  uint256 */\n      0x00\n        /* \"contracts/staking2.sol\":36993:37000  uint256 */\n      dup1\n        /* \"contracts/staking2.sol\":37013:37031  uint256 userReward */\n      0x00\n        /* \"contracts/staking2.sol\":37042:37063  uint256 userTimestamp */\n      dup1\n        /* \"contracts/staking2.sol\":37066:37072  _users */\n      0x0d\n        /* \"contracts/staking2.sol\":37066:37079  _users[_user] */\n      0x00\n        /* \"contracts/staking2.sol\":37073:37078  _user */\n      dup7\n        /* \"contracts/staking2.sol\":37066:37079  _users[_user] */\n      0xffffffffffffffffffffffffffffffffffffffff\n      and\n      0xffffffffffffffffffffffffffffffffffffffff\n      and\n      dup2\n      mstore\n      0x20\n      add\n      swap1\n      dup2\n      mstore\n      0x20\n      add\n      0x00\n      keccak256\n        /* \"contracts/staking2.sol\":37066:37105  _users[_user].lastRewardCalculationTime */\n      0x03\n      add\n      sload\n        /* \"contracts/staking2.sol\":37042:37105  uint256 userTimestamp = _users[_user].lastRewardCalculationTime */\n      swap1\n      pop\n        /* \"contracts/staking2.sol\":37118:37137  uint256 currentTime */\n      0x00\n        /* \"contracts/staking2.sol\":37140:37156  getCurrentTime() */\n      tag_325\n        /* \"contracts/staking2.sol\":37140:37154  getCurrentTime */\n      tag_175\n        /* \"contracts/staking2.sol\":37140:37156  getCurrentTime() */\n      jump\t// in\n    tag_325:\n        /* \"contracts/staking2.sol\":37118:37156  uint256 currentTime = getCurrentTime() */\n      swap1\n      pop\n        /* \"contracts/staking2.sol\":37217:37227  _stakeDays */\n      sload(0x09)\n        /* \"contracts/staking2.sol\":37187:37193  _users */\n      0x0d\n        /* \"contracts/staking2.sol\":37187:37200  _users[_user] */\n      0x00\n        /* \"contracts/staking2.sol\":37194:37199  _user */\n      dup9\n        /* \"contracts/staking2.sol\":37187:37200  _users[_user] */\n      0xffffffffffffffffffffffffffffffffffffffff\n      and\n      0xffffffffffffffffffffffffffffffffffffffff\n      and\n      dup2\n      mstore\n      0x20\n      add\n      swap1\n      dup2\n      mstore\n      0x20\n      add\n      0x00\n      keccak256\n        /* \"contracts/staking2.sol\":37187:37214  _users[_user].lastStakeTime */\n      0x02\n      add\n      sload\n        /* \"contracts/staking2.sol\":37187:37227  _users[_user].lastStakeTime + _stakeDays */\n      tag_326\n      swap2\n      swap1\n      tag_173\n      jump\t// in\n    tag_326:\n        /* \"contracts/staking2.sol\":37173:37184  currentTime */\n      dup2\n        /* \"contracts/staking2.sol\":37173:37227  currentTime > _users[_user].lastStakeTime + _stakeDays */\n      gt\n        /* \"contracts/staking2.sol\":37169:37310  if (currentTime > _users[_user].lastStakeTime + _stakeDays) {... */\n      iszero\n      tag_327\n      jumpi\n        /* \"contracts/staking2.sol\":37288:37298  _stakeDays */\n      sload(0x09)\n        /* \"contracts/staking2.sol\":37258:37264  _users */\n      0x0d\n        /* \"contracts/staking2.sol\":37258:37271  _users[_user] */\n      0x00\n        /* \"contracts/staking2.sol\":37265:37270  _user */\n      dup9\n        /* \"contracts/staking2.sol\":37258:37271  _users[_user] */\n      0xffffffffffffffffffffffffffffffffffffffff\n      and\n      0xffffffffffffffffffffffffffffffffffffffff\n      and\n      dup2\n      mstore\n      0x20\n      add\n      swap1\n      dup2\n      mstore\n      0x20\n      add\n      0x00\n      keccak256\n        /* \"contracts/staking2.sol\":37258:37285  _users[_user].lastStakeTime */\n      0x02\n      add\n      sload\n        /* \"contracts/staking2.sol\":37258:37298  _users[_user].lastStakeTime + _stakeDays */\n      tag_328\n      swap2\n      swap1\n      tag_173\n      jump\t// in\n    tag_328:\n        /* \"contracts/staking2.sol\":37244:37298  currentTime = _users[_user].lastStakeTime + _stakeDays */\n      swap1\n      pop\n        /* \"contracts/staking2.sol\":37169:37310  if (currentTime > _users[_user].lastStakeTime + _stakeDays) {... */\n    tag_327:\n        /* \"contracts/staking2.sol\":37322:37345  uint256 totalStakedTime */\n      0x00\n        /* \"contracts/staking2.sol\":37362:37375  userTimestamp */\n      dup3\n        /* \"contracts/staking2.sol\":37348:37359  currentTime */\n      dup3\n        /* \"contracts/staking2.sol\":37348:37375  currentTime - userTimestamp */\n      tag_329\n      swap2\n      swap1\n      tag_183\n      jump\t// in\n    tag_329:\n        /* \"contracts/staking2.sol\":37322:37375  uint256 totalStakedTime = currentTime - userTimestamp */\n      swap1\n      pop\n        /* \"contracts/staking2.sol\":24812:24817  10000 */\n      0x2710\n        /* \"contracts/staking2.sol\":37462:37470  365 days */\n      0x01e13380\n        /* \"contracts/staking2.sol\":37450:37458  _apyRate */\n      sload(0x0c)\n        /* \"contracts/staking2.sol\":37422:37428  _users */\n      0x0d\n        /* \"contracts/staking2.sol\":37422:37435  _users[_user] */\n      0x00\n        /* \"contracts/staking2.sol\":37429:37434  _user */\n      dup12\n        /* \"contracts/staking2.sol\":37422:37435  _users[_user] */\n      0xffffffffffffffffffffffffffffffffffffffff\n      and\n      0xffffffffffffffffffffffffffffffffffffffff\n      and\n      dup2\n      mstore\n      0x20\n      add\n      swap1\n      dup2\n      mstore\n      0x20\n      add\n      0x00\n      keccak256\n        /* \"contracts/staking2.sol\":37422:37447  _users[_user].stakeAmount */\n      0x00\n      add\n      sload\n        /* \"contracts/staking2.sol\":37404:37419  totalStakedTime */\n      dup5\n        /* \"contracts/staking2.sol\":37404:37447  totalStakedTime * _users[_user].stakeAmount */\n      tag_330\n      swap2\n      swap1\n      tag_178\n      jump\t// in\n    tag_330:\n        /* \"contracts/staking2.sol\":37404:37458  totalStakedTime * _users[_user].stakeAmount * _apyRate */\n      tag_331\n      swap2\n      swap1\n      tag_178\n      jump\t// in\n    tag_331:\n        /* \"contracts/staking2.sol\":37403:37470  (totalStakedTime * _users[_user].stakeAmount * _apyRate) / 365 days */\n      tag_332\n      swap2\n      swap1\n      tag_180\n      jump\t// in\n    tag_332:\n        /* \"contracts/staking2.sol\":37402:37496  ((totalStakedTime * _users[_user].stakeAmount * _apyRate) / 365 days) / PERCENTAGE_DENOMINATOR */\n      tag_333\n      swap2\n      swap1\n      tag_180\n      jump\t// in\n    tag_333:\n        /* \"contracts/staking2.sol\":37388:37496  userReward += ((totalStakedTime * _users[_user].stakeAmount * _apyRate) / 365 days) / PERCENTAGE_DENOMINATOR */\n      dup5\n      tag_334\n      swap2\n      swap1\n      tag_173\n      jump\t// in\n    tag_334:\n      swap4\n      pop\n        /* \"contracts/staking2.sol\":37517:37527  userReward */\n      dup4\n        /* \"contracts/staking2.sol\":37529:37540  currentTime */\n      dup3\n        /* \"contracts/staking2.sol\":37509:37541  return (userReward, currentTime) */\n      swap6\n      pop\n      swap6\n      pop\n      pop\n      pop\n      pop\n      pop\n        /* \"contracts/staking2.sol\":36913:37549  function _getUserEstimatedRewards(address _user) private view returns (uint256, uint256) {... */\n      swap2\n      pop\n      swap2\n      jump\t// out\n        /* \"contracts/staking2.sol\":32991:34278  function _stakeTokens(uint256 _amount, address user_) private {... */\n    tag_237:\n        /* \"contracts/staking2.sol\":33073:33089  _isStakingPaused */\n      0x0b\n      0x00\n      swap1\n      sload\n      swap1\n      0x0100\n      exp\n      swap1\n      div\n      0xff\n      and\n        /* \"contracts/staking2.sol\":33072:33089  !_isStakingPaused */\n      iszero\n        /* \"contracts/staking2.sol\":33064:33125  require(!_isStakingPaused, \"TokenStaking: staking is paused\") */\n      tag_336\n      jumpi\n      mload(0x40)\n      0x08c379a000000000000000000000000000000000000000000000000000000000\n      dup2\n      mstore\n      0x04\n      add\n      tag_337\n      swap1\n      tag_338\n      jump\t// in\n    tag_337:\n      mload(0x40)\n      dup1\n      swap2\n      sub\n      swap1\n      revert\n    tag_336:\n        /* \"contracts/staking2.sol\":33138:33157  uint256 currentTime */\n      0x00\n        /* \"contracts/staking2.sol\":33160:33176  getCurrentTime() */\n      tag_339\n        /* \"contracts/staking2.sol\":33160:33174  getCurrentTime */\n      tag_175\n        /* \"contracts/staking2.sol\":33160:33176  getCurrentTime() */\n      jump\t// in\n    tag_339:\n        /* \"contracts/staking2.sol\":33138:33176  uint256 currentTime = getCurrentTime() */\n      swap1\n      pop\n        /* \"contracts/staking2.sol\":33209:33224  _stakeStartDate */\n      sload(0x06)\n        /* \"contracts/staking2.sol\":33195:33206  currentTime */\n      dup2\n        /* \"contracts/staking2.sol\":33195:33224  currentTime > _stakeStartDate */\n      gt\n        /* \"contracts/staking2.sol\":33187:33266  require(currentTime > _stakeStartDate, \"TokenStaking: staking not started yet\") */\n      tag_340\n      jumpi\n      mload(0x40)\n      0x08c379a000000000000000000000000000000000000000000000000000000000\n      dup2\n      mstore\n      0x04\n      add\n      tag_341\n      swap1\n      tag_342\n      jump\t// in\n    tag_341:\n      mload(0x40)\n      dup1\n      swap2\n      sub\n      swap1\n      revert\n    tag_340:\n        /* \"contracts/staking2.sol\":33299:33312  _stakeEndDate */\n      sload(0x05)\n        /* \"contracts/staking2.sol\":33285:33296  currentTime */\n      dup2\n        /* \"contracts/staking2.sol\":33285:33312  currentTime < _stakeEndDate */\n      lt\n        /* \"contracts/staking2.sol\":33277:33344  require(currentTime < _stakeEndDate, \"TokenStaking: staking ended\") */\n      tag_343\n      jumpi\n      mload(0x40)\n      0x08c379a000000000000000000000000000000000000000000000000000000000\n      dup2\n      mstore\n      0x04\n      add\n      tag_344\n      swap1\n      tag_345\n      jump\t// in\n    tag_344:\n      mload(0x40)\n      dup1\n      swap2\n      sub\n      swap1\n      revert\n    tag_343:\n        /* \"contracts/staking2.sol\":33395:33414  _maxStakeTokenLimit */\n      sload(0x04)\n        /* \"contracts/staking2.sol\":33384:33391  _amount */\n      dup4\n        /* \"contracts/staking2.sol\":33363:33381  _totalStakedTokens */\n      sload(0x07)\n        /* \"contracts/staking2.sol\":33363:33391  _totalStakedTokens + _amount */\n      tag_346\n      swap2\n      swap1\n      tag_173\n      jump\t// in\n    tag_346:\n        /* \"contracts/staking2.sol\":33363:33414  _totalStakedTokens + _amount <= _maxStakeTokenLimit */\n      gt\n      iszero\n        /* \"contracts/staking2.sol\":33355:33464  require(_totalStakedTokens + _amount <= _maxStakeTokenLimit, \"TokenStaking: max staking token limit reached\") */\n      tag_347\n      jumpi\n      mload(0x40)\n      0x08c379a000000000000000000000000000000000000000000000000000000000\n      dup2\n      mstore\n      0x04\n      add\n      tag_348\n      swap1\n      tag_349\n      jump\t// in\n    tag_348:\n      mload(0x40)\n      dup1\n      swap2\n      sub\n      swap1\n      revert\n    tag_347:\n        /* \"contracts/staking2.sol\":33493:33494  0 */\n      0x00\n        /* \"contracts/staking2.sol\":33483:33490  _amount */\n      dup4\n        /* \"contracts/staking2.sol\":33483:33494  _amount > 0 */\n      gt\n        /* \"contracts/staking2.sol\":33475:33542  require(_amount > 0, \"TokenStaking: stake amount must be non-zero\") */\n      tag_350\n      jumpi\n      mload(0x40)\n      0x08c379a000000000000000000000000000000000000000000000000000000000\n      dup2\n      mstore\n      0x04\n      add\n      tag_351\n      swap1\n      tag_352\n      jump\t// in\n    tag_351:\n      mload(0x40)\n      dup1\n      swap2\n      sub\n      swap1\n      revert\n    tag_350:\n        /* \"contracts/staking2.sol\":33586:33607  _minimumStakingAmount */\n      sload(0x03)\n        /* \"contracts/staking2.sol\":33575:33582  _amount */\n      dup4\n        /* \"contracts/staking2.sol\":33575:33607  _amount >= _minimumStakingAmount */\n      lt\n      iszero\n        /* \"contracts/staking2.sol\":33553:33702  require(... */\n      tag_353\n      jumpi\n      mload(0x40)\n      0x08c379a000000000000000000000000000000000000000000000000000000000\n      dup2\n      mstore\n      0x04\n      add\n      tag_354\n      swap1\n      tag_355\n      jump\t// in\n    tag_354:\n      mload(0x40)\n      dup1\n      swap2\n      sub\n      swap1\n      revert\n    tag_353:\n        /* \"contracts/staking2.sol\":33748:33749  0 */\n      0x00\n        /* \"contracts/staking2.sol\":33719:33725  _users */\n      0x0d\n        /* \"contracts/staking2.sol\":33719:33732  _users[user_] */\n      0x00\n        /* \"contracts/staking2.sol\":33726:33731  user_ */\n      dup5\n        /* \"contracts/staking2.sol\":33719:33732  _users[user_] */\n      0xffffffffffffffffffffffffffffffffffffffff\n      and\n      0xffffffffffffffffffffffffffffffffffffffff\n      and\n      dup2\n      mstore\n      0x20\n      add\n      swap1\n      dup2\n      mstore\n      0x20\n      add\n      0x00\n      keccak256\n        /* \"contracts/staking2.sol\":33719:33744  _users[user_].stakeAmount */\n      0x00\n      add\n      sload\n        /* \"contracts/staking2.sol\":33719:33749  _users[user_].stakeAmount != 0 */\n      eq\n        /* \"contracts/staking2.sol\":33715:33919  if (_users[user_].stakeAmount != 0) {... */\n      tag_356\n      jumpi\n        /* \"contracts/staking2.sol\":33766:33790  _calculateRewards(user_) */\n      tag_357\n        /* \"contracts/staking2.sol\":33784:33789  user_ */\n      dup3\n        /* \"contracts/staking2.sol\":33766:33783  _calculateRewards */\n      tag_171\n        /* \"contracts/staking2.sol\":33766:33790  _calculateRewards(user_) */\n      jump\t// in\n    tag_357:\n        /* \"contracts/staking2.sol\":33715:33919  if (_users[user_].stakeAmount != 0) {... */\n      jump(tag_358)\n    tag_356:\n        /* \"contracts/staking2.sol\":33865:33876  currentTime */\n      dup1\n        /* \"contracts/staking2.sol\":33823:33829  _users */\n      0x0d\n        /* \"contracts/staking2.sol\":33823:33836  _users[user_] */\n      0x00\n        /* \"contracts/staking2.sol\":33830:33835  user_ */\n      dup5\n        /* \"contracts/staking2.sol\":33823:33836  _users[user_] */\n      0xffffffffffffffffffffffffffffffffffffffff\n      and\n      0xffffffffffffffffffffffffffffffffffffffff\n      and\n      dup2\n      mstore\n      0x20\n      add\n      swap1\n      dup2\n      mstore\n      0x20\n      add\n      0x00\n      keccak256\n        /* \"contracts/staking2.sol\":33823:33862  _users[user_].lastRewardCalculationTime */\n      0x03\n      add\n        /* \"contracts/staking2.sol\":33823:33876  _users[user_].lastRewardCalculationTime = currentTime */\n      dup2\n      swap1\n      sstore\n      pop\n        /* \"contracts/staking2.sol\":33906:33907  1 */\n      0x01\n        /* \"contracts/staking2.sol\":33891:33902  _totalUsers */\n      0x08\n      0x00\n        /* \"contracts/staking2.sol\":33891:33907  _totalUsers += 1 */\n      dup3\n      dup3\n      sload\n      tag_359\n      swap2\n      swap1\n      tag_173\n      jump\t// in\n    tag_359:\n      swap3\n      pop\n      pop\n      dup2\n      swap1\n      sstore\n      pop\n        /* \"contracts/staking2.sol\":33715:33919  if (_users[user_].stakeAmount != 0) {... */\n    tag_358:\n        /* \"contracts/staking2.sol\":33960:33967  _amount */\n      dup3\n        /* \"contracts/staking2.sol\":33931:33937  _users */\n      0x0d\n        /* \"contracts/staking2.sol\":33931:33944  _users[user_] */\n      0x00\n        /* \"contracts/staking2.sol\":33938:33943  user_ */\n      dup5\n        /* \"contracts/staking2.sol\":33931:33944  _users[user_] */\n      0xffffffffffffffffffffffffffffffffffffffff\n      and\n      0xffffffffffffffffffffffffffffffffffffffff\n      and\n      dup2\n      mstore\n      0x20\n      add\n      swap1\n      dup2\n      mstore\n      0x20\n      add\n      0x00\n      keccak256\n        /* \"contracts/staking2.sol\":33931:33956  _users[user_].stakeAmount */\n      0x00\n      add\n      0x00\n        /* \"contracts/staking2.sol\":33931:33967  _users[user_].stakeAmount += _amount */\n      dup3\n      dup3\n      sload\n      tag_360\n      swap2\n      swap1\n      tag_173\n      jump\t// in\n    tag_360:\n      swap3\n      pop\n      pop\n      dup2\n      swap1\n      sstore\n      pop\n        /* \"contracts/staking2.sol\":34008:34019  currentTime */\n      dup1\n        /* \"contracts/staking2.sol\":33978:33984  _users */\n      0x0d\n        /* \"contracts/staking2.sol\":33978:33991  _users[user_] */\n      0x00\n        /* \"contracts/staking2.sol\":33985:33990  user_ */\n      dup5\n        /* \"contracts/staking2.sol\":33978:33991  _users[user_] */\n      0xffffffffffffffffffffffffffffffffffffffff\n      and\n      0xffffffffffffffffffffffffffffffffffffffff\n      and\n      dup2\n      mstore\n      0x20\n      add\n      swap1\n      dup2\n      mstore\n      0x20\n      add\n      0x00\n      keccak256\n        /* \"contracts/staking2.sol\":33978:34005  _users[user_].lastStakeTime */\n      0x02\n      add\n        /* \"contracts/staking2.sol\":33978:34019  _users[user_].lastStakeTime = currentTime */\n      dup2\n      swap1\n      sstore\n      pop\n        /* \"contracts/staking2.sol\":34054:34061  _amount */\n      dup3\n        /* \"contracts/staking2.sol\":34032:34050  _totalStakedTokens */\n      0x07\n      0x00\n        /* \"contracts/staking2.sol\":34032:34061  _totalStakedTokens += _amount */\n      dup3\n      dup3\n      sload\n      tag_361\n      swap2\n      swap1\n      tag_173\n      jump\t// in\n    tag_361:\n      swap3\n      pop\n      pop\n      dup2\n      swap1\n      sstore\n      pop\n        /* \"contracts/staking2.sol\":34103:34116  _tokenAddress */\n      0x0b\n      0x01\n      swap1\n      sload\n      swap1\n      0x0100\n      exp\n      swap1\n      div\n      0xffffffffffffffffffffffffffffffffffffffff\n      and\n        /* \"contracts/staking2.sol\":34096:34130  IERC20(_tokenAddress).transferFrom */\n      0xffffffffffffffffffffffffffffffffffffffff\n      and\n      0x23b872dd\n        /* \"contracts/staking2.sol\":34131:34141  msg.sender */\n      caller\n        /* \"contracts/staking2.sol\":34151:34155  this */\n      address\n        /* \"contracts/staking2.sol\":34158:34165  _amount */\n      dup7\n        /* \"contracts/staking2.sol\":34096:34166  IERC20(_tokenAddress).transferFrom(msg.sender, address(this), _amount) */\n      mload(0x40)\n      dup5\n      0xffffffff\n      and\n      0xe0\n      shl\n      dup2\n      mstore\n      0x04\n      add\n      tag_362\n      swap4\n      swap3\n      swap2\n      swap1\n      tag_363\n      jump\t// in\n    tag_362:\n      0x20\n      mload(0x40)\n      dup1\n      dup4\n      sub\n      dup2\n      0x00\n      dup8\n      gas\n      call\n      iszero\n      dup1\n      iszero\n      tag_365\n      jumpi\n      returndatasize\n      0x00\n      dup1\n      returndatacopy\n      revert(0x00, returndatasize)\n    tag_365:\n      pop\n      pop\n      pop\n      pop\n      mload(0x40)\n      returndatasize\n      not(0x1f)\n      0x1f\n      dup3\n      add\n      and\n      dup3\n      add\n      dup1\n      0x40\n      mstore\n      pop\n      dup2\n      add\n      swap1\n      tag_366\n      swap2\n      swap1\n      tag_163\n      jump\t// in\n    tag_366:\n        /* \"contracts/staking2.sol\":34074:34233  require(... */\n      tag_367\n      jumpi\n      mload(0x40)\n      0x08c379a000000000000000000000000000000000000000000000000000000000\n      dup2\n      mstore\n      0x04\n      add\n      tag_368\n      swap1\n      tag_369\n      jump\t// in\n    tag_368:\n      mload(0x40)\n      dup1\n      swap2\n      sub\n      swap1\n      revert\n    tag_367:\n        /* \"contracts/staking2.sol\":34255:34260  user_ */\n      dup2\n        /* \"contracts/staking2.sol\":34249:34270  Stake(user_, _amount) */\n      0xffffffffffffffffffffffffffffffffffffffff\n      and\n      0xebedb8b3c678666e7f36970bc8f57abf6d8fa2e828c0da91ea5b75bf68ed101a\n        /* \"contracts/staking2.sol\":34262:34269  _amount */\n      dup5\n        /* \"contracts/staking2.sol\":34249:34270  Stake(user_, _amount) */\n      mload(0x40)\n      tag_370\n      swap2\n      swap1\n      tag_43\n      jump\t// in\n    tag_370:\n      mload(0x40)\n      dup1\n      swap2\n      sub\n      swap1\n      log2\n        /* \"contracts/staking2.sol\":33053:34278  {... */\n      pop\n        /* \"contracts/staking2.sol\":32991:34278  function _stakeTokens(uint256 _amount, address user_) private {... */\n      pop\n      pop\n      jump\t// out\n        /* \"contracts/staking2.sol\":20528:20719  function _transferOwnership(address newOwner) internal virtual {... */\n    tag_242:\n        /* \"contracts/staking2.sol\":20602:20618  address oldOwner */\n      0x00\n        /* \"contracts/staking2.sol\":20621:20627  _owner */\n      dup1\n      0x00\n      swap1\n      sload\n      swap1\n      0x0100\n      exp\n      swap1\n      div\n      0xffffffffffffffffffffffffffffffffffffffff\n      and\n        /* \"contracts/staking2.sol\":20602:20627  address oldOwner = _owner */\n      swap1\n      pop\n        /* \"contracts/staking2.sol\":20647:20655  newOwner */\n      dup2\n        /* \"contracts/staking2.sol\":20638:20644  _owner */\n      0x00\n      dup1\n        /* \"contracts/staking2.sol\":20638:20655  _owner = newOwner */\n      0x0100\n      exp\n      dup2\n      sload\n      dup2\n      0xffffffffffffffffffffffffffffffffffffffff\n      mul\n      not\n      and\n      swap1\n      dup4\n      0xffffffffffffffffffffffffffffffffffffffff\n      and\n      mul\n      or\n      swap1\n      sstore\n      pop\n        /* \"contracts/staking2.sol\":20702:20710  newOwner */\n      dup2\n        /* \"contracts/staking2.sol\":20671:20711  OwnershipTransferred(oldOwner, newOwner) */\n      0xffffffffffffffffffffffffffffffffffffffff\n      and\n        /* \"contracts/staking2.sol\":20692:20700  oldOwner */\n      dup2\n        /* \"contracts/staking2.sol\":20671:20711  OwnershipTransferred(oldOwner, newOwner) */\n      0xffffffffffffffffffffffffffffffffffffffff\n      and\n      0x8be0079c531659141344cd1fd0a4f28419497f9722a3daafe3b4186f6b6457e0\n      mload(0x40)\n      mload(0x40)\n      dup1\n      swap2\n      sub\n      swap1\n      log3\n        /* \"contracts/staking2.sol\":20591:20719  {... */\n      pop\n        /* \"contracts/staking2.sol\":20528:20719  function _transferOwnership(address newOwner) internal virtual {... */\n      pop\n      jump\t// out\n        /* \"contracts/staking2.sol\":1266:1592  function isContract(address account) internal view returns (bool) {... */\n    tag_250:\n        /* \"contracts/staking2.sol\":1326:1330  bool */\n      0x00\n        /* \"contracts/staking2.sol\":1583:1584  0 */\n      dup1\n        /* \"contracts/staking2.sol\":1561:1568  account */\n      dup3\n        /* \"contracts/staking2.sol\":1561:1580  account.code.length */\n      0xffffffffffffffffffffffffffffffffffffffff\n      and\n      extcodesize\n        /* \"contracts/staking2.sol\":1561:1584  account.code.length > 0 */\n      gt\n        /* \"contracts/staking2.sol\":1554:1584  return account.code.length > 0 */\n      swap1\n      pop\n        /* \"contracts/staking2.sol\":1266:1592  function isContract(address account) internal view returns (bool) {... */\n      swap2\n      swap1\n      pop\n      jump\t// out\n        /* \"contracts/staking2.sol\":26138:27302  function __TokenStaking_init_unchained(... */\n    tag_258:\n        /* \"contracts/staking2.sol\":13594:13607  _initializing */\n      0x02\n      0x01\n      swap1\n      sload\n      swap1\n      0x0100\n      exp\n      swap1\n      div\n      0xff\n      and\n        /* \"contracts/staking2.sol\":13586:13655  require(_initializing, \"Initializable: contract is not initializing\") */\n      tag_374\n      jumpi\n      mload(0x40)\n      0x08c379a000000000000000000000000000000000000000000000000000000000\n      dup2\n      mstore\n      0x04\n      add\n      tag_375\n      swap1\n      tag_376\n      jump\t// in\n    tag_375:\n      mload(0x40)\n      dup1\n      swap2\n      sub\n      swap1\n      revert\n    tag_374:\n        /* \"contracts/staking2.sol\":26543:26548  10000 */\n      0x2710\n        /* \"contracts/staking2.sol\":26531:26539  _apyRate */\n      sload(0x0c)\n        /* \"contracts/staking2.sol\":26531:26548  _apyRate <= 10000 */\n      gt\n      iszero\n        /* \"contracts/staking2.sol\":26523:26601  require(_apyRate <= 10000, \"TokenStaking: apy rate should be less than 10000\") */\n      tag_378\n      jumpi\n      mload(0x40)\n      0x08c379a000000000000000000000000000000000000000000000000000000000\n      dup2\n      mstore\n      0x04\n      add\n      tag_379\n      swap1\n      tag_380\n      jump\t// in\n    tag_379:\n      mload(0x40)\n      dup1\n      swap2\n      sub\n      swap1\n      revert\n    tag_378:\n        /* \"contracts/staking2.sol\":26633:26634  0 */\n      0x00\n        /* \"contracts/staking2.sol\":26620:26630  stakeDays_ */\n      dup3\n        /* \"contracts/staking2.sol\":26620:26634  stakeDays_ > 0 */\n      gt\n        /* \"contracts/staking2.sol\":26612:26680  require(stakeDays_ > 0, \"TokenStaking: stake days must be non-zero\") */\n      tag_381\n      jumpi\n      mload(0x40)\n      0x08c379a000000000000000000000000000000000000000000000000000000000\n      dup2\n      mstore\n      0x04\n      add\n      tag_382\n      swap1\n      tag_383\n      jump\t// in\n    tag_382:\n      mload(0x40)\n      dup1\n      swap2\n      sub\n      swap1\n      revert\n    tag_381:\n        /* \"contracts/staking2.sol\":26724:26725  0 */\n      0x00\n        /* \"contracts/staking2.sol\":26699:26726  tokenAddress_ != address(0) */\n      0xffffffffffffffffffffffffffffffffffffffff\n      and\n        /* \"contracts/staking2.sol\":26699:26712  tokenAddress_ */\n      dup9\n        /* \"contracts/staking2.sol\":26699:26726  tokenAddress_ != address(0) */\n      0xffffffffffffffffffffffffffffffffffffffff\n      and\n      sub\n        /* \"contracts/staking2.sol\":26691:26778  require(tokenAddress_ != address(0), \"TokenStaking: token address cannot be 0 address\") */\n      tag_384\n      jumpi\n      mload(0x40)\n      0x08c379a000000000000000000000000000000000000000000000000000000000\n      dup2\n      mstore\n      0x04\n      add\n      tag_385\n      swap1\n      tag_386\n      jump\t// in\n    tag_385:\n      mload(0x40)\n      dup1\n      swap2\n      sub\n      swap1\n      revert\n    tag_384:\n        /* \"contracts/staking2.sol\":26815:26828  stakeEndDate_ */\n      dup3\n        /* \"contracts/staking2.sol\":26797:26812  stakeStartDate_ */\n      dup5\n        /* \"contracts/staking2.sol\":26797:26828  stakeStartDate_ < stakeEndDate_ */\n      lt\n        /* \"contracts/staking2.sol\":26789:26884  require(stakeStartDate_ < stakeEndDate_, \"TokenStaking: start date must be less than end date\") */\n      tag_387\n      jumpi\n      mload(0x40)\n      0x08c379a000000000000000000000000000000000000000000000000000000000\n      dup2\n      mstore\n      0x04\n      add\n      tag_388\n      swap1\n      tag_389\n      jump\t// in\n    tag_388:\n      mload(0x40)\n      dup1\n      swap2\n      sub\n      swap1\n      revert\n    tag_387:\n        /* \"contracts/staking2.sol\":26897:26923  _transferOwnership(owner_) */\n      tag_390\n        /* \"contracts/staking2.sol\":26916:26922  owner_ */\n      dup10\n        /* \"contracts/staking2.sol\":26897:26915  _transferOwnership */\n      tag_242\n        /* \"contracts/staking2.sol\":26897:26923  _transferOwnership(owner_) */\n      jump\t// in\n    tag_390:\n        /* \"contracts/staking2.sol\":26950:26963  tokenAddress_ */\n      dup8\n        /* \"contracts/staking2.sol\":26934:26947  _tokenAddress */\n      0x0b\n      0x01\n        /* \"contracts/staking2.sol\":26934:26963  _tokenAddress = tokenAddress_ */\n      0x0100\n      exp\n      dup2\n      sload\n      dup2\n      0xffffffffffffffffffffffffffffffffffffffff\n      mul\n      not\n      and\n      swap1\n      dup4\n      0xffffffffffffffffffffffffffffffffffffffff\n      and\n      mul\n      or\n      swap1\n      sstore\n      pop\n        /* \"contracts/staking2.sol\":26985:26993  apyRate_ */\n      dup7\n        /* \"contracts/staking2.sol\":26974:26982  _apyRate */\n      0x0c\n        /* \"contracts/staking2.sol\":26974:26993  _apyRate = apyRate_ */\n      dup2\n      swap1\n      sstore\n      pop\n        /* \"contracts/staking2.sol\":27028:27049  minimumStakingAmount_ */\n      dup6\n        /* \"contracts/staking2.sol\":27004:27025  _minimumStakingAmount */\n      0x03\n        /* \"contracts/staking2.sol\":27004:27049  _minimumStakingAmount = minimumStakingAmount_ */\n      dup2\n      swap1\n      sstore\n      pop\n        /* \"contracts/staking2.sol\":27082:27101  maxStakeTokenLimit_ */\n      dup5\n        /* \"contracts/staking2.sol\":27060:27079  _maxStakeTokenLimit */\n      0x04\n        /* \"contracts/staking2.sol\":27060:27101  _maxStakeTokenLimit = maxStakeTokenLimit_ */\n      dup2\n      swap1\n      sstore\n      pop\n        /* \"contracts/staking2.sol\":27130:27145  stakeStartDate_ */\n      dup4\n        /* \"contracts/staking2.sol\":27112:27127  _stakeStartDate */\n      0x06\n        /* \"contracts/staking2.sol\":27112:27145  _stakeStartDate = stakeStartDate_ */\n      dup2\n      swap1\n      sstore\n      pop\n        /* \"contracts/staking2.sol\":27172:27185  stakeEndDate_ */\n      dup3\n        /* \"contracts/staking2.sol\":27156:27169  _stakeEndDate */\n      0x05\n        /* \"contracts/staking2.sol\":27156:27185  _stakeEndDate = stakeEndDate_ */\n      dup2\n      swap1\n      sstore\n      pop\n        /* \"contracts/staking2.sol\":27222:27228  1 days */\n      0x015180\n        /* \"contracts/staking2.sol\":27209:27219  stakeDays_ */\n      dup3\n        /* \"contracts/staking2.sol\":27209:27228  stakeDays_ * 1 days */\n      tag_391\n      swap2\n      swap1\n      tag_178\n      jump\t// in\n    tag_391:\n        /* \"contracts/staking2.sol\":27196:27206  _stakeDays */\n      0x09\n        /* \"contracts/staking2.sol\":27196:27228  _stakeDays = stakeDays_ * 1 days */\n      dup2\n      swap1\n      sstore\n      pop\n        /* \"contracts/staking2.sol\":27268:27294  earlyUnstakeFeePercentage_ */\n      dup1\n        /* \"contracts/staking2.sol\":27239:27265  _earlyUnstakeFeePercentage */\n      0x0a\n        /* \"contracts/staking2.sol\":27239:27294  _earlyUnstakeFeePercentage = earlyUnstakeFeePercentage_ */\n      dup2\n      swap1\n      sstore\n      pop\n        /* \"contracts/staking2.sol\":26138:27302  function __TokenStaking_init_unchained(... */\n      pop\n      pop\n      pop\n      pop\n      pop\n      pop\n      pop\n      pop\n      pop\n      jump\t// out\n        /* \"contracts/staking2.sol\":17812:17910  function _msgSender() internal view virtual returns (address) {... */\n    tag_315:\n        /* \"contracts/staking2.sol\":17865:17872  address */\n      0x00\n        /* \"contracts/staking2.sol\":17892:17902  msg.sender */\n      caller\n        /* \"contracts/staking2.sol\":17885:17902  return msg.sender */\n      swap1\n      pop\n        /* \"contracts/staking2.sol\":17812:17910  function _msgSender() internal view virtual returns (address) {... */\n      swap1\n      jump\t// out\n    tag_228:\n      mload(0x40)\n      dup1\n      0xa0\n      add\n      0x40\n      mstore\n      dup1\n      0x00\n      dup2\n      mstore\n      0x20\n      add\n      0x00\n      dup2\n      mstore\n      0x20\n      add\n      0x00\n      dup2\n      mstore\n      0x20\n      add\n      0x00\n      dup2\n      mstore\n      0x20\n      add\n      0x00\n      dup2\n      mstore\n      pop\n      swap1\n      jump\t// out\n        /* \"#utility.yul\":7:84   */\n    tag_393:\n        /* \"#utility.yul\":44:51   */\n      0x00\n        /* \"#utility.yul\":73:78   */\n      dup2\n        /* \"#utility.yul\":62:78   */\n      swap1\n      pop\n        /* \"#utility.yul\":7:84   */\n      swap2\n      swap1\n      pop\n      jump\t// out\n        /* \"#utility.yul\":90:208   */\n    tag_394:\n        /* \"#utility.yul\":177:201   */\n      tag_469\n        /* \"#utility.yul\":195:200   */\n      dup2\n        /* \"#utility.yul\":177:201   */\n      tag_393\n      jump\t// in\n    tag_469:\n        /* \"#utility.yul\":172:175   */\n      dup3\n        /* \"#utility.yul\":165:202   */\n      mstore\n        /* \"#utility.yul\":90:208   */\n      pop\n      pop\n      jump\t// out\n        /* \"#utility.yul\":214:436   */\n    tag_43:\n        /* \"#utility.yul\":307:311   */\n      0x00\n        /* \"#utility.yul\":345:347   */\n      0x20\n        /* \"#utility.yul\":334:343   */\n      dup3\n        /* \"#utility.yul\":330:348   */\n      add\n        /* \"#utility.yul\":322:348   */\n      swap1\n      pop\n        /* \"#utility.yul\":358:429   */\n      tag_471\n        /* \"#utility.yul\":426:427   */\n      0x00\n        /* \"#utility.yul\":415:424   */\n      dup4\n        /* \"#utility.yul\":411:428   */\n      add\n        /* \"#utility.yul\":402:408   */\n      dup5\n        /* \"#utility.yul\":358:429   */\n      tag_394\n      jump\t// in\n    tag_471:\n        /* \"#utility.yul\":214:436   */\n      swap3\n      swap2\n      pop\n      pop\n      jump\t// out\n        /* \"#utility.yul\":523:640   */\n    tag_396:\n        /* \"#utility.yul\":632:633   */\n      0x00\n        /* \"#utility.yul\":629:630   */\n      dup1\n        /* \"#utility.yul\":622:634   */\n      revert\n        /* \"#utility.yul\":769:891   */\n    tag_398:\n        /* \"#utility.yul\":842:866   */\n      tag_476\n        /* \"#utility.yul\":860:865   */\n      dup2\n        /* \"#utility.yul\":842:866   */\n      tag_393\n      jump\t// in\n    tag_476:\n        /* \"#utility.yul\":835:840   */\n      dup2\n        /* \"#utility.yul\":832:867   */\n      eq\n        /* \"#utility.yul\":822:885   */\n      tag_477\n      jumpi\n        /* \"#utility.yul\":881:882   */\n      0x00\n        /* \"#utility.yul\":878:879   */\n      dup1\n        /* \"#utility.yul\":871:883   */\n      revert\n        /* \"#utility.yul\":822:885   */\n    tag_477:\n        /* \"#utility.yul\":769:891   */\n      pop\n      jump\t// out\n        /* \"#utility.yul\":897:1036   */\n    tag_399:\n        /* \"#utility.yul\":943:948   */\n      0x00\n        /* \"#utility.yul\":981:987   */\n      dup2\n        /* \"#utility.yul\":968:988   */\n      calldataload\n        /* \"#utility.yul\":959:988   */\n      swap1\n      pop\n        /* \"#utility.yul\":997:1030   */\n      tag_479\n        /* \"#utility.yul\":1024:1029   */\n      dup2\n        /* \"#utility.yul\":997:1030   */\n      tag_398\n      jump\t// in\n    tag_479:\n        /* \"#utility.yul\":897:1036   */\n      swap3\n      swap2\n      pop\n      pop\n      jump\t// out\n        /* \"#utility.yul\":1042:1371   */\n    tag_46:\n        /* \"#utility.yul\":1101:1107   */\n      0x00\n        /* \"#utility.yul\":1150:1152   */\n      0x20\n        /* \"#utility.yul\":1138:1147   */\n      dup3\n        /* \"#utility.yul\":1129:1136   */\n      dup5\n        /* \"#utility.yul\":1125:1148   */\n      sub\n        /* \"#utility.yul\":1121:1153   */\n      slt\n        /* \"#utility.yul\":1118:1237   */\n      iszero\n      tag_481\n      jumpi\n        /* \"#utility.yul\":1156:1235   */\n      tag_482\n      tag_396\n      jump\t// in\n    tag_482:\n        /* \"#utility.yul\":1118:1237   */\n    tag_481:\n        /* \"#utility.yul\":1276:1277   */\n      0x00\n        /* \"#utility.yul\":1301:1354   */\n      tag_483\n        /* \"#utility.yul\":1346:1353   */\n      dup5\n        /* \"#utility.yul\":1337:1343   */\n      dup3\n        /* \"#utility.yul\":1326:1335   */\n      dup6\n        /* \"#utility.yul\":1322:1344   */\n      add\n        /* \"#utility.yul\":1301:1354   */\n      tag_399\n      jump\t// in\n    tag_483:\n        /* \"#utility.yul\":1291:1354   */\n      swap2\n      pop\n        /* \"#utility.yul\":1247:1364   */\n      pop\n        /* \"#utility.yul\":1042:1371   */\n      swap3\n      swap2\n      pop\n      pop\n      jump\t// out\n        /* \"#utility.yul\":1377:1503   */\n    tag_400:\n        /* \"#utility.yul\":1414:1421   */\n      0x00\n        /* \"#utility.yul\":1454:1496   */\n      0xffffffffffffffffffffffffffffffffffffffff\n        /* \"#utility.yul\":1447:1452   */\n      dup3\n        /* \"#utility.yul\":1443:1497   */\n      and\n        /* \"#utility.yul\":1432:1497   */\n      swap1\n      pop\n        /* \"#utility.yul\":1377:1503   */\n      swap2\n      swap1\n      pop\n      jump\t// out\n        /* \"#utility.yul\":1509:1605   */\n    tag_401:\n        /* \"#utility.yul\":1546:1553   */\n      0x00\n        /* \"#utility.yul\":1575:1599   */\n      tag_486\n        /* \"#utility.yul\":1593:1598   */\n      dup3\n        /* \"#utility.yul\":1575:1599   */\n      tag_400\n      jump\t// in\n    tag_486:\n        /* \"#utility.yul\":1564:1599   */\n      swap1\n      pop\n        /* \"#utility.yul\":1509:1605   */\n      swap2\n      swap1\n      pop\n      jump\t// out\n        /* \"#utility.yul\":1611:1733   */\n    tag_402:\n        /* \"#utility.yul\":1684:1708   */\n      tag_488\n        /* \"#utility.yul\":1702:1707   */\n      dup2\n        /* \"#utility.yul\":1684:1708   */\n      tag_401\n      jump\t// in\n    tag_488:\n        /* \"#utility.yul\":1677:1682   */\n      dup2\n        /* \"#utility.yul\":1674:1709   */\n      eq\n        /* \"#utility.yul\":1664:1727   */\n      tag_489\n      jumpi\n        /* \"#utility.yul\":1723:1724   */\n      0x00\n        /* \"#utility.yul\":1720:1721   */\n      dup1\n        /* \"#utility.yul\":1713:1725   */\n      revert\n        /* \"#utility.yul\":1664:1727   */\n    tag_489:\n        /* \"#utility.yul\":1611:1733   */\n      pop\n      jump\t// out\n        /* \"#utility.yul\":1739:1878   */\n    tag_403:\n        /* \"#utility.yul\":1785:1790   */\n      0x00\n        /* \"#utility.yul\":1823:1829   */\n      dup2\n        /* \"#utility.yul\":1810:1830   */\n      calldataload\n        /* \"#utility.yul\":1801:1830   */\n      swap1\n      pop\n        /* \"#utility.yul\":1839:1872   */\n      tag_491\n        /* \"#utility.yul\":1866:1871   */\n      dup2\n        /* \"#utility.yul\":1839:1872   */\n      tag_402\n      jump\t// in\n    tag_491:\n        /* \"#utility.yul\":1739:1878   */\n      swap3\n      swap2\n      pop\n      pop\n      jump\t// out\n        /* \"#utility.yul\":1884:2213   */\n    tag_74:\n        /* \"#utility.yul\":1943:1949   */\n      0x00\n        /* \"#utility.yul\":1992:1994   */\n      0x20\n        /* \"#utility.yul\":1980:1989   */\n      dup3\n        /* \"#utility.yul\":1971:1978   */\n      dup5\n        /* \"#utility.yul\":1967:1990   */\n      sub\n        /* \"#utility.yul\":1963:1995   */\n      slt\n        /* \"#utility.yul\":1960:2079   */\n      iszero\n      tag_493\n      jumpi\n        /* \"#utility.yul\":1998:2077   */\n      tag_494\n      tag_396\n      jump\t// in\n    tag_494:\n        /* \"#utility.yul\":1960:2079   */\n    tag_493:\n        /* \"#utility.yul\":2118:2119   */\n      0x00\n        /* \"#utility.yul\":2143:2196   */\n      tag_495\n        /* \"#utility.yul\":2188:2195   */\n      dup5\n        /* \"#utility.yul\":2179:2185   */\n      dup3\n        /* \"#utility.yul\":2168:2177   */\n      dup6\n        /* \"#utility.yul\":2164:2186   */\n      add\n        /* \"#utility.yul\":2143:2196   */\n      tag_403\n      jump\t// in\n    tag_495:\n        /* \"#utility.yul\":2133:2196   */\n      swap2\n      pop\n        /* \"#utility.yul\":2089:2206   */\n      pop\n        /* \"#utility.yul\":1884:2213   */\n      swap3\n      swap2\n      pop\n      pop\n      jump\t// out\n        /* \"#utility.yul\":2219:2309   */\n    tag_404:\n        /* \"#utility.yul\":2253:2260   */\n      0x00\n        /* \"#utility.yul\":2296:2301   */\n      dup2\n        /* \"#utility.yul\":2289:2302   */\n      iszero\n        /* \"#utility.yul\":2282:2303   */\n      iszero\n        /* \"#utility.yul\":2271:2303   */\n      swap1\n      pop\n        /* \"#utility.yul\":2219:2309   */\n      swap2\n      swap1\n      pop\n      jump\t// out\n        /* \"#utility.yul\":2315:2424   */\n    tag_405:\n        /* \"#utility.yul\":2396:2417   */\n      tag_498\n        /* \"#utility.yul\":2411:2416   */\n      dup2\n        /* \"#utility.yul\":2396:2417   */\n      tag_404\n      jump\t// in\n    tag_498:\n        /* \"#utility.yul\":2391:2394   */\n      dup3\n        /* \"#utility.yul\":2384:2418   */\n      mstore\n        /* \"#utility.yul\":2315:2424   */\n      pop\n      pop\n      jump\t// out\n        /* \"#utility.yul\":2430:2640   */\n    tag_77:\n        /* \"#utility.yul\":2517:2521   */\n      0x00\n        /* \"#utility.yul\":2555:2557   */\n      0x20\n        /* \"#utility.yul\":2544:2553   */\n      dup3\n        /* \"#utility.yul\":2540:2558   */\n      add\n        /* \"#utility.yul\":2532:2558   */\n      swap1\n      pop\n        /* \"#utility.yul\":2568:2633   */\n      tag_500\n        /* \"#utility.yul\":2630:2631   */\n      0x00\n        /* \"#utility.yul\":2619:2628   */\n      dup4\n        /* \"#utility.yul\":2615:2632   */\n      add\n        /* \"#utility.yul\":2606:2612   */\n      dup5\n        /* \"#utility.yul\":2568:2633   */\n      tag_405\n      jump\t// in\n    tag_500:\n        /* \"#utility.yul\":2430:2640   */\n      swap3\n      swap2\n      pop\n      pop\n      jump\t// out\n        /* \"#utility.yul\":2646:2754   */\n    tag_406:\n        /* \"#utility.yul\":2723:2747   */\n      tag_502\n        /* \"#utility.yul\":2741:2746   */\n      dup2\n        /* \"#utility.yul\":2723:2747   */\n      tag_393\n      jump\t// in\n    tag_502:\n        /* \"#utility.yul\":2718:2721   */\n      dup3\n        /* \"#utility.yul\":2711:2748   */\n      mstore\n        /* \"#utility.yul\":2646:2754   */\n      pop\n      pop\n      jump\t// out\n        /* \"#utility.yul\":2820:3901   */\n    tag_407:\n        /* \"#utility.yul\":2959:2963   */\n      0xa0\n        /* \"#utility.yul\":2954:2957   */\n      dup3\n        /* \"#utility.yul\":2950:2964   */\n      add\n        /* \"#utility.yul\":3053:3057   */\n      0x00\n        /* \"#utility.yul\":3046:3051   */\n      dup3\n        /* \"#utility.yul\":3042:3058   */\n      add\n        /* \"#utility.yul\":3036:3059   */\n      mload\n        /* \"#utility.yul\":3072:3135   */\n      tag_504\n        /* \"#utility.yul\":3129:3133   */\n      0x00\n        /* \"#utility.yul\":3124:3127   */\n      dup6\n        /* \"#utility.yul\":3120:3134   */\n      add\n        /* \"#utility.yul\":3106:3118   */\n      dup3\n        /* \"#utility.yul\":3072:3135   */\n      tag_406\n      jump\t// in\n    tag_504:\n        /* \"#utility.yul\":2974:3145   */\n      pop\n        /* \"#utility.yul\":3235:3239   */\n      0x20\n        /* \"#utility.yul\":3228:3233   */\n      dup3\n        /* \"#utility.yul\":3224:3240   */\n      add\n        /* \"#utility.yul\":3218:3241   */\n      mload\n        /* \"#utility.yul\":3254:3317   */\n      tag_505\n        /* \"#utility.yul\":3311:3315   */\n      0x20\n        /* \"#utility.yul\":3306:3309   */\n      dup6\n        /* \"#utility.yul\":3302:3316   */\n      add\n        /* \"#utility.yul\":3288:3300   */\n      dup3\n        /* \"#utility.yul\":3254:3317   */\n      tag_406\n      jump\t// in\n    tag_505:\n        /* \"#utility.yul\":3155:3327   */\n      pop\n        /* \"#utility.yul\":3418:3422   */\n      0x40\n        /* \"#utility.yul\":3411:3416   */\n      dup3\n        /* \"#utility.yul\":3407:3423   */\n      add\n        /* \"#utility.yul\":3401:3424   */\n      mload\n        /* \"#utility.yul\":3437:3500   */\n      tag_506\n        /* \"#utility.yul\":3494:3498   */\n      0x40\n        /* \"#utility.yul\":3489:3492   */\n      dup6\n        /* \"#utility.yul\":3485:3499   */\n      add\n        /* \"#utility.yul\":3471:3483   */\n      dup3\n        /* \"#utility.yul\":3437:3500   */\n      tag_406\n      jump\t// in\n    tag_506:\n        /* \"#utility.yul\":3337:3510   */\n      pop\n        /* \"#utility.yul\":3613:3617   */\n      0x60\n        /* \"#utility.yul\":3606:3611   */\n      dup3\n        /* \"#utility.yul\":3602:3618   */\n      add\n        /* \"#utility.yul\":3596:3619   */\n      mload\n        /* \"#utility.yul\":3632:3695   */\n      tag_507\n        /* \"#utility.yul\":3689:3693   */\n      0x60\n        /* \"#utility.yul\":3684:3687   */\n      dup6\n        /* \"#utility.yul\":3680:3694   */\n      add\n        /* \"#utility.yul\":3666:3678   */\n      dup3\n        /* \"#utility.yul\":3632:3695   */\n      tag_406\n      jump\t// in\n    tag_507:\n        /* \"#utility.yul\":3520:3705   */\n      pop\n        /* \"#utility.yul\":3802:3806   */\n      0x80\n        /* \"#utility.yul\":3795:3800   */\n      dup3\n        /* \"#utility.yul\":3791:3807   */\n      add\n        /* \"#utility.yul\":3785:3808   */\n      mload\n        /* \"#utility.yul\":3821:3884   */\n      tag_508\n        /* \"#utility.yul\":3878:3882   */\n      0x80\n        /* \"#utility.yul\":3873:3876   */\n      dup6\n        /* \"#utility.yul\":3869:3883   */\n      add\n        /* \"#utility.yul\":3855:3867   */\n      dup3\n        /* \"#utility.yul\":3821:3884   */\n      tag_406\n      jump\t// in\n    tag_508:\n        /* \"#utility.yul\":3715:3894   */\n      pop\n        /* \"#utility.yul\":2928:3901   */\n      pop\n        /* \"#utility.yul\":2820:3901   */\n      pop\n      pop\n      jump\t// out\n        /* \"#utility.yul\":3907:4214   */\n    tag_82:\n        /* \"#utility.yul\":4042:4046   */\n      0x00\n        /* \"#utility.yul\":4080:4083   */\n      0xa0\n        /* \"#utility.yul\":4069:4078   */\n      dup3\n        /* \"#utility.yul\":4065:4084   */\n      add\n        /* \"#utility.yul\":4057:4084   */\n      swap1\n      pop\n        /* \"#utility.yul\":4094:4207   */\n      tag_510\n        /* \"#utility.yul\":4204:4205   */\n      0x00\n        /* \"#utility.yul\":4193:4202   */\n      dup4\n        /* \"#utility.yul\":4189:4206   */\n      add\n        /* \"#utility.yul\":4180:4186   */\n      dup5\n        /* \"#utility.yul\":4094:4207   */\n      tag_407\n      jump\t// in\n    tag_510:\n        /* \"#utility.yul\":3907:4214   */\n      swap3\n      swap2\n      pop\n      pop\n      jump\t// out\n        /* \"#utility.yul\":4220:4694   */\n    tag_85:\n        /* \"#utility.yul\":4288:4294   */\n      0x00\n        /* \"#utility.yul\":4296:4302   */\n      dup1\n        /* \"#utility.yul\":4345:4347   */\n      0x40\n        /* \"#utility.yul\":4333:4342   */\n      dup4\n        /* \"#utility.yul\":4324:4331   */\n      dup6\n        /* \"#utility.yul\":4320:4343   */\n      sub\n        /* \"#utility.yul\":4316:4348   */\n      slt\n        /* \"#utility.yul\":4313:4432   */\n      iszero\n      tag_512\n      jumpi\n        /* \"#utility.yul\":4351:4430   */\n      tag_513\n      tag_396\n      jump\t// in\n    tag_513:\n        /* \"#utility.yul\":4313:4432   */\n    tag_512:\n        /* \"#utility.yul\":4471:4472   */\n      0x00\n        /* \"#utility.yul\":4496:4549   */\n      tag_514\n        /* \"#utility.yul\":4541:4548   */\n      dup6\n        /* \"#utility.yul\":4532:4538   */\n      dup3\n        /* \"#utility.yul\":4521:4530   */\n      dup7\n        /* \"#utility.yul\":4517:4539   */\n      add\n        /* \"#utility.yul\":4496:4549   */\n      tag_399\n      jump\t// in\n    tag_514:\n        /* \"#utility.yul\":4486:4549   */\n      swap3\n      pop\n        /* \"#utility.yul\":4442:4559   */\n      pop\n        /* \"#utility.yul\":4598:4600   */\n      0x20\n        /* \"#utility.yul\":4624:4677   */\n      tag_515\n        /* \"#utility.yul\":4669:4676   */\n      dup6\n        /* \"#utility.yul\":4660:4666   */\n      dup3\n        /* \"#utility.yul\":4649:4658   */\n      dup7\n        /* \"#utility.yul\":4645:4667   */\n      add\n        /* \"#utility.yul\":4624:4677   */\n      tag_403\n      jump\t// in\n    tag_515:\n        /* \"#utility.yul\":4614:4677   */\n      swap2\n      pop\n        /* \"#utility.yul\":4569:4687   */\n      pop\n        /* \"#utility.yul\":4220:4694   */\n      swap3\n      pop\n      swap3\n      swap1\n      pop\n      jump\t// out\n        /* \"#utility.yul\":4700:6195   */\n    tag_94:\n        /* \"#utility.yul\":4831:4837   */\n      0x00\n        /* \"#utility.yul\":4839:4845   */\n      dup1\n        /* \"#utility.yul\":4847:4853   */\n      0x00\n        /* \"#utility.yul\":4855:4861   */\n      dup1\n        /* \"#utility.yul\":4863:4869   */\n      0x00\n        /* \"#utility.yul\":4871:4877   */\n      dup1\n        /* \"#utility.yul\":4879:4885   */\n      0x00\n        /* \"#utility.yul\":4887:4893   */\n      dup1\n        /* \"#utility.yul\":4895:4901   */\n      0x00\n        /* \"#utility.yul\":4944:4947   */\n      0x0120\n        /* \"#utility.yul\":4932:4941   */\n      dup11\n        /* \"#utility.yul\":4923:4930   */\n      dup13\n        /* \"#utility.yul\":4919:4942   */\n      sub\n        /* \"#utility.yul\":4915:4948   */\n      slt\n        /* \"#utility.yul\":4912:5032   */\n      iszero\n      tag_517\n      jumpi\n        /* \"#utility.yul\":4951:5030   */\n      tag_518\n      tag_396\n      jump\t// in\n    tag_518:\n        /* \"#utility.yul\":4912:5032   */\n    tag_517:\n        /* \"#utility.yul\":5071:5072   */\n      0x00\n        /* \"#utility.yul\":5096:5149   */\n      tag_519\n        /* \"#utility.yul\":5141:5148   */\n      dup13\n        /* \"#utility.yul\":5132:5138   */\n      dup3\n        /* \"#utility.yul\":5121:5130   */\n      dup14\n        /* \"#utility.yul\":5117:5139   */\n      add\n        /* \"#utility.yul\":5096:5149   */\n      tag_403\n      jump\t// in\n    tag_519:\n        /* \"#utility.yul\":5086:5149   */\n      swap10\n      pop\n        /* \"#utility.yul\":5042:5159   */\n      pop\n        /* \"#utility.yul\":5198:5200   */\n      0x20\n        /* \"#utility.yul\":5224:5277   */\n      tag_520\n        /* \"#utility.yul\":5269:5276   */\n      dup13\n        /* \"#utility.yul\":5260:5266   */\n      dup3\n        /* \"#utility.yul\":5249:5258   */\n      dup14\n        /* \"#utility.yul\":5245:5267   */\n      add\n        /* \"#utility.yul\":5224:5277   */\n      tag_403\n      jump\t// in\n    tag_520:\n        /* \"#utility.yul\":5214:5277   */\n      swap9\n      pop\n        /* \"#utility.yul\":5169:5287   */\n      pop\n        /* \"#utility.yul\":5326:5328   */\n      0x40\n        /* \"#utility.yul\":5352:5405   */\n      tag_521\n        /* \"#utility.yul\":5397:5404   */\n      dup13\n        /* \"#utility.yul\":5388:5394   */\n      dup3\n        /* \"#utility.yul\":5377:5386   */\n      dup14\n        /* \"#utility.yul\":5373:5395   */\n      add\n        /* \"#utility.yul\":5352:5405   */\n      tag_399\n      jump\t// in\n    tag_521:\n        /* \"#utility.yul\":5342:5405   */\n      swap8\n      pop\n        /* \"#utility.yul\":5297:5415   */\n      pop\n        /* \"#utility.yul\":5454:5456   */\n      0x60\n        /* \"#utility.yul\":5480:5533   */\n      tag_522\n        /* \"#utility.yul\":5525:5532   */\n      dup13\n        /* \"#utility.yul\":5516:5522   */\n      dup3\n        /* \"#utility.yul\":5505:5514   */\n      dup14\n        /* \"#utility.yul\":5501:5523   */\n      add\n        /* \"#utility.yul\":5480:5533   */\n      tag_399\n      jump\t// in\n    tag_522:\n        /* \"#utility.yul\":5470:5533   */\n      swap7\n      pop\n        /* \"#utility.yul\":5425:5543   */\n      pop\n        /* \"#utility.yul\":5582:5585   */\n      0x80\n        /* \"#utility.yul\":5609:5662   */\n      tag_523\n        /* \"#utility.yul\":5654:5661   */\n      dup13\n        /* \"#utility.yul\":5645:5651   */\n      dup3\n        /* \"#utility.yul\":5634:5643   */\n      dup14\n        /* \"#utility.yul\":5630:5652   */\n      add\n        /* \"#utility.yul\":5609:5662   */\n      tag_399\n      jump\t// in\n    tag_523:\n        /* \"#utility.yul\":5599:5662   */\n      swap6\n      pop\n        /* \"#utility.yul\":5553:5672   */\n      pop\n        /* \"#utility.yul\":5711:5714   */\n      0xa0\n        /* \"#utility.yul\":5738:5791   */\n      tag_524\n        /* \"#utility.yul\":5783:5790   */\n      dup13\n        /* \"#utility.yul\":5774:5780   */\n      dup3\n        /* \"#utility.yul\":5763:5772   */\n      dup14\n        /* \"#utility.yul\":5759:5781   */\n      add\n        /* \"#utility.yul\":5738:5791   */\n      tag_399\n      jump\t// in\n    tag_524:\n        /* \"#utility.yul\":5728:5791   */\n      swap5\n      pop\n        /* \"#utility.yul\":5682:5801   */\n      pop\n        /* \"#utility.yul\":5840:5843   */\n      0xc0\n        /* \"#utility.yul\":5867:5920   */\n      tag_525\n        /* \"#utility.yul\":5912:5919   */\n      dup13\n        /* \"#utility.yul\":5903:5909   */\n      dup3\n        /* \"#utility.yul\":5892:5901   */\n      dup14\n        /* \"#utility.yul\":5888:5910   */\n      add\n        /* \"#utility.yul\":5867:5920   */\n      tag_399\n      jump\t// in\n    tag_525:\n        /* \"#utility.yul\":5857:5920   */\n      swap4\n      pop\n        /* \"#utility.yul\":5811:5930   */\n      pop\n        /* \"#utility.yul\":5969:5972   */\n      0xe0\n        /* \"#utility.yul\":5996:6049   */\n      tag_526\n        /* \"#utility.yul\":6041:6048   */\n      dup13\n        /* \"#utility.yul\":6032:6038   */\n      dup3\n        /* \"#utility.yul\":6021:6030   */\n      dup14\n        /* \"#utility.yul\":6017:6039   */\n      add\n        /* \"#utility.yul\":5996:6049   */\n      tag_399\n      jump\t// in\n    tag_526:\n        /* \"#utility.yul\":5986:6049   */\n      swap3\n      pop\n        /* \"#utility.yul\":5940:6059   */\n      pop\n        /* \"#utility.yul\":6098:6101   */\n      0x0100\n        /* \"#utility.yul\":6125:6178   */\n      tag_527\n        /* \"#utility.yul\":6170:6177   */\n      dup13\n        /* \"#utility.yul\":6161:6167   */\n      dup3\n        /* \"#utility.yul\":6150:6159   */\n      dup14\n        /* \"#utility.yul\":6146:6168   */\n      add\n        /* \"#utility.yul\":6125:6178   */\n      tag_399\n      jump\t// in\n    tag_527:\n        /* \"#utility.yul\":6115:6178   */\n      swap2\n      pop\n        /* \"#utility.yul\":6069:6188   */\n      pop\n        /* \"#utility.yul\":4700:6195   */\n      swap3\n      swap6\n      swap9\n      pop\n      swap3\n      swap6\n      swap9\n      pop\n      swap3\n      swap6\n      swap9\n      jump\t// out\n        /* \"#utility.yul\":6201:6319   */\n    tag_408:\n        /* \"#utility.yul\":6288:6312   */\n      tag_529\n        /* \"#utility.yul\":6306:6311   */\n      dup2\n        /* \"#utility.yul\":6288:6312   */\n      tag_401\n      jump\t// in\n    tag_529:\n        /* \"#utility.yul\":6283:6286   */\n      dup3\n        /* \"#utility.yul\":6276:6313   */\n      mstore\n        /* \"#utility.yul\":6201:6319   */\n      pop\n      pop\n      jump\t// out\n        /* \"#utility.yul\":6325:6547   */\n    tag_102:\n        /* \"#utility.yul\":6418:6422   */\n      0x00\n        /* \"#utility.yul\":6456:6458   */\n      0x20\n        /* \"#utility.yul\":6445:6454   */\n      dup3\n        /* \"#utility.yul\":6441:6459   */\n      add\n        /* \"#utility.yul\":6433:6459   */\n      swap1\n      pop\n        /* \"#utility.yul\":6469:6540   */\n      tag_531\n        /* \"#utility.yul\":6537:6538   */\n      0x00\n        /* \"#utility.yul\":6526:6535   */\n      dup4\n        /* \"#utility.yul\":6522:6539   */\n      add\n        /* \"#utility.yul\":6513:6519   */\n      dup5\n        /* \"#utility.yul\":6469:6540   */\n      tag_408\n      jump\t// in\n    tag_531:\n        /* \"#utility.yul\":6325:6547   */\n      swap3\n      swap2\n      pop\n      pop\n      jump\t// out\n        /* \"#utility.yul\":6553:6722   */\n    tag_409:\n        /* \"#utility.yul\":6637:6648   */\n      0x00\n        /* \"#utility.yul\":6671:6677   */\n      dup3\n        /* \"#utility.yul\":6666:6669   */\n      dup3\n        /* \"#utility.yul\":6659:6678   */\n      mstore\n        /* \"#utility.yul\":6711:6715   */\n      0x20\n        /* \"#utility.yul\":6706:6709   */\n      dup3\n        /* \"#utility.yul\":6702:6716   */\n      add\n        /* \"#utility.yul\":6687:6716   */\n      swap1\n      pop\n        /* \"#utility.yul\":6553:6722   */\n      swap3\n      swap2\n      pop\n      pop\n      jump\t// out\n        /* \"#utility.yul\":6728:6909   */\n    tag_410:\n        /* \"#utility.yul\":6868:6901   */\n      0x5265656e7472616e637947756172643a207265656e7472616e742063616c6c00\n        /* \"#utility.yul\":6864:6865   */\n      0x00\n        /* \"#utility.yul\":6856:6862   */\n      dup3\n        /* \"#utility.yul\":6852:6866   */\n      add\n        /* \"#utility.yul\":6845:6902   */\n      mstore\n        /* \"#utility.yul\":6728:6909   */\n      pop\n      jump\t// out\n        /* \"#utility.yul\":6915:7281   */\n    tag_411:\n        /* \"#utility.yul\":7057:7060   */\n      0x00\n        /* \"#utility.yul\":7078:7145   */\n      tag_535\n        /* \"#utility.yul\":7142:7144   */\n      0x1f\n        /* \"#utility.yul\":7137:7140   */\n      dup4\n        /* \"#utility.yul\":7078:7145   */\n      tag_409\n      jump\t// in\n    tag_535:\n        /* \"#utility.yul\":7071:7145   */\n      swap2\n      pop\n        /* \"#utility.yul\":7154:7247   */\n      tag_536\n        /* \"#utility.yul\":7243:7246   */\n      dup3\n        /* \"#utility.yul\":7154:7247   */\n      tag_410\n      jump\t// in\n    tag_536:\n        /* \"#utility.yul\":7272:7274   */\n      0x20\n        /* \"#utility.yul\":7267:7270   */\n      dup3\n        /* \"#utility.yul\":7263:7275   */\n      add\n        /* \"#utility.yul\":7256:7275   */\n      swap1\n      pop\n        /* \"#utility.yul\":6915:7281   */\n      swap2\n      swap1\n      pop\n      jump\t// out\n        /* \"#utility.yul\":7287:7706   */\n    tag_145:\n        /* \"#utility.yul\":7453:7457   */\n      0x00\n        /* \"#utility.yul\":7491:7493   */\n      0x20\n        /* \"#utility.yul\":7480:7489   */\n      dup3\n        /* \"#utility.yul\":7476:7494   */\n      add\n        /* \"#utility.yul\":7468:7494   */\n      swap1\n      pop\n        /* \"#utility.yul\":7540:7549   */\n      dup2\n        /* \"#utility.yul\":7534:7538   */\n      dup2\n        /* \"#utility.yul\":7530:7550   */\n      sub\n        /* \"#utility.yul\":7526:7527   */\n      0x00\n        /* \"#utility.yul\":7515:7524   */\n      dup4\n        /* \"#utility.yul\":7511:7528   */\n      add\n        /* \"#utility.yul\":7504:7551   */\n      mstore\n        /* \"#utility.yul\":7568:7699   */\n      tag_538\n        /* \"#utility.yul\":7694:7698   */\n      dup2\n        /* \"#utility.yul\":7568:7699   */\n      tag_411\n      jump\t// in\n    tag_538:\n        /* \"#utility.yul\":7560:7699   */\n      swap1\n      pop\n        /* \"#utility.yul\":7287:7706   */\n      swap2\n      swap1\n      pop\n      jump\t// out\n        /* \"#utility.yul\":7712:7855   */\n    tag_412:\n        /* \"#utility.yul\":7769:7774   */\n      0x00\n        /* \"#utility.yul\":7800:7806   */\n      dup2\n        /* \"#utility.yul\":7794:7807   */\n      mload\n        /* \"#utility.yul\":7785:7807   */\n      swap1\n      pop\n        /* \"#utility.yul\":7816:7849   */\n      tag_540\n        /* \"#utility.yul\":7843:7848   */\n      dup2\n        /* \"#utility.yul\":7816:7849   */\n      tag_398\n      jump\t// in\n    tag_540:\n        /* \"#utility.yul\":7712:7855   */\n      swap3\n      swap2\n      pop\n      pop\n      jump\t// out\n        /* \"#utility.yul\":7861:8212   */\n    tag_151:\n        /* \"#utility.yul\":7931:7937   */\n      0x00\n        /* \"#utility.yul\":7980:7982   */\n      0x20\n        /* \"#utility.yul\":7968:7977   */\n      dup3\n        /* \"#utility.yul\":7959:7966   */\n      dup5\n        /* \"#utility.yul\":7955:7978   */\n      sub\n        /* \"#utility.yul\":7951:7983   */\n      slt\n        /* \"#utility.yul\":7948:8067   */\n      iszero\n      tag_542\n      jumpi\n        /* \"#utility.yul\":7986:8065   */\n      tag_543\n      tag_396\n      jump\t// in\n    tag_543:\n        /* \"#utility.yul\":7948:8067   */\n    tag_542:\n        /* \"#utility.yul\":8106:8107   */\n      0x00\n        /* \"#utility.yul\":8131:8195   */\n      tag_544\n        /* \"#utility.yul\":8187:8194   */\n      dup5\n        /* \"#utility.yul\":8178:8184   */\n      dup3\n        /* \"#utility.yul\":8167:8176   */\n      dup6\n        /* \"#utility.yul\":8163:8185   */\n      add\n        /* \"#utility.yul\":8131:8195   */\n      tag_412\n      jump\t// in\n    tag_544:\n        /* \"#utility.yul\":8121:8195   */\n      swap2\n      pop\n        /* \"#utility.yul\":8077:8205   */\n      pop\n        /* \"#utility.yul\":7861:8212   */\n      swap3\n      swap2\n      pop\n      pop\n      jump\t// out\n        /* \"#utility.yul\":8218:8453   */\n    tag_413:\n        /* \"#utility.yul\":8358:8392   */\n      0x546f6b656e5374616b696e673a20696e73756666696369656e742066756e6473\n        /* \"#utility.yul\":8354:8355   */\n      0x00\n        /* \"#utility.yul\":8346:8352   */\n      dup3\n        /* \"#utility.yul\":8342:8356   */\n      add\n        /* \"#utility.yul\":8335:8393   */\n      mstore\n        /* \"#utility.yul\":8427:8445   */\n      0x20696e2074686520747265617375727900000000000000000000000000000000\n        /* \"#utility.yul\":8422:8424   */\n      0x20\n        /* \"#utility.yul\":8414:8420   */\n      dup3\n        /* \"#utility.yul\":8410:8425   */\n      add\n        /* \"#utility.yul\":8403:8446   */\n      mstore\n        /* \"#utility.yul\":8218:8453   */\n      pop\n      jump\t// out\n        /* \"#utility.yul\":8459:8825   */\n    tag_414:\n        /* \"#utility.yul\":8601:8604   */\n      0x00\n        /* \"#utility.yul\":8622:8689   */\n      tag_547\n        /* \"#utility.yul\":8686:8688   */\n      0x30\n        /* \"#utility.yul\":8681:8684   */\n      dup4\n        /* \"#utility.yul\":8622:8689   */\n      tag_409\n      jump\t// in\n    tag_547:\n        /* \"#utility.yul\":8615:8689   */\n      swap2\n      pop\n        /* \"#utility.yul\":8698:8791   */\n      tag_548\n        /* \"#utility.yul\":8787:8790   */\n      dup3\n        /* \"#utility.yul\":8698:8791   */\n      tag_413\n      jump\t// in\n    tag_548:\n        /* \"#utility.yul\":8816:8818   */\n      0x40\n        /* \"#utility.yul\":8811:8814   */\n      dup3\n        /* \"#utility.yul\":8807:8819   */\n      add\n        /* \"#utility.yul\":8800:8819   */\n      swap1\n      pop\n        /* \"#utility.yul\":8459:8825   */\n      swap2\n      swap1\n      pop\n      jump\t// out\n        /* \"#utility.yul\":8831:9250   */\n    tag_154:\n        /* \"#utility.yul\":8997:9001   */\n      0x00\n        /* \"#utility.yul\":9035:9037   */\n      0x20\n        /* \"#utility.yul\":9024:9033   */\n      dup3\n        /* \"#utility.yul\":9020:9038   */\n      add\n        /* \"#utility.yul\":9012:9038   */\n      swap1\n      pop\n        /* \"#utility.yul\":9084:9093   */\n      dup2\n        /* \"#utility.yul\":9078:9082   */\n      dup2\n        /* \"#utility.yul\":9074:9094   */\n      sub\n        /* \"#utility.yul\":9070:9071   */\n      0x00\n        /* \"#utility.yul\":9059:9068   */\n      dup4\n        /* \"#utility.yul\":9055:9072   */\n      add\n        /* \"#utility.yul\":9048:9095   */\n      mstore\n        /* \"#utility.yul\":9112:9243   */\n      tag_550\n        /* \"#utility.yul\":9238:9242   */\n      dup2\n        /* \"#utility.yul\":9112:9243   */\n      tag_414\n      jump\t// in\n    tag_550:\n        /* \"#utility.yul\":9104:9243   */\n      swap1\n      pop\n        /* \"#utility.yul\":8831:9250   */\n      swap2\n      swap1\n      pop\n      jump\t// out\n        /* \"#utility.yul\":9256:9482   */\n    tag_415:\n        /* \"#utility.yul\":9396:9430   */\n      0x546f6b656e5374616b696e673a20616d6f756e742073686f756c64206265206e\n        /* \"#utility.yul\":9392:9393   */\n      0x00\n        /* \"#utility.yul\":9384:9390   */\n      dup3\n        /* \"#utility.yul\":9380:9394   */\n      add\n        /* \"#utility.yul\":9373:9431   */\n      mstore\n        /* \"#utility.yul\":9465:9474   */\n      0x6f6e2d7a65726f00000000000000000000000000000000000000000000000000\n        /* \"#utility.yul\":9460:9462   */\n      0x20\n        /* \"#utility.yul\":9452:9458   */\n      dup3\n        /* \"#utility.yul\":9448:9463   */\n      add\n        /* \"#utility.yul\":9441:9475   */\n      mstore\n        /* \"#utility.yul\":9256:9482   */\n      pop\n      jump\t// out\n        /* \"#utility.yul\":9488:9854   */\n    tag_416:\n        /* \"#utility.yul\":9630:9633   */\n      0x00\n        /* \"#utility.yul\":9651:9718   */\n      tag_553\n        /* \"#utility.yul\":9715:9717   */\n      0x27\n        /* \"#utility.yul\":9710:9713   */\n      dup4\n        /* \"#utility.yul\":9651:9718   */\n      tag_409\n      jump\t// in\n    tag_553:\n        /* \"#utility.yul\":9644:9718   */\n      swap2\n      pop\n        /* \"#utility.yul\":9727:9820   */\n      tag_554\n        /* \"#utility.yul\":9816:9819   */\n      dup3\n        /* \"#utility.yul\":9727:9820   */\n      tag_415\n      jump\t// in\n    tag_554:\n        /* \"#utility.yul\":9845:9847   */\n      0x40\n        /* \"#utility.yul\":9840:9843   */\n      dup3\n        /* \"#utility.yul\":9836:9848   */\n      add\n        /* \"#utility.yul\":9829:9848   */\n      swap1\n      pop\n        /* \"#utility.yul\":9488:9854   */\n      swap2\n      swap1\n      pop\n      jump\t// out\n        /* \"#utility.yul\":9860:10279   */\n    tag_158:\n        /* \"#utility.yul\":10026:10030   */\n      0x00\n        /* \"#utility.yul\":10064:10066   */\n      0x20\n        /* \"#utility.yul\":10053:10062   */\n      dup3\n        /* \"#utility.yul\":10049:10067   */\n      add\n        /* \"#utility.yul\":10041:10067   */\n      swap1\n      pop\n        /* \"#utility.yul\":10113:10122   */\n      dup2\n        /* \"#utility.yul\":10107:10111   */\n      dup2\n        /* \"#utility.yul\":10103:10123   */\n      sub\n        /* \"#utility.yul\":10099:10100   */\n      0x00\n        /* \"#utility.yul\":10088:10097   */\n      dup4\n        /* \"#utility.yul\":10084:10101   */\n      add\n        /* \"#utility.yul\":10077:10124   */\n      mstore\n        /* \"#utility.yul\":10141:10272   */\n      tag_556\n        /* \"#utility.yul\":10267:10271   */\n      dup2\n        /* \"#utility.yul\":10141:10272   */\n      tag_416\n      jump\t// in\n    tag_556:\n        /* \"#utility.yul\":10133:10272   */\n      swap1\n      pop\n        /* \"#utility.yul\":9860:10279   */\n      swap2\n      swap1\n      pop\n      jump\t// out\n        /* \"#utility.yul\":10285:10401   */\n    tag_417:\n        /* \"#utility.yul\":10355:10376   */\n      tag_558\n        /* \"#utility.yul\":10370:10375   */\n      dup2\n        /* \"#utility.yul\":10355:10376   */\n      tag_404\n      jump\t// in\n    tag_558:\n        /* \"#utility.yul\":10348:10353   */\n      dup2\n        /* \"#utility.yul\":10345:10377   */\n      eq\n        /* \"#utility.yul\":10335:10395   */\n      tag_559\n      jumpi\n        /* \"#utility.yul\":10391:10392   */\n      0x00\n        /* \"#utility.yul\":10388:10389   */\n      dup1\n        /* \"#utility.yul\":10381:10393   */\n      revert\n        /* \"#utility.yul\":10335:10395   */\n    tag_559:\n        /* \"#utility.yul\":10285:10401   */\n      pop\n      jump\t// out\n        /* \"#utility.yul\":10407:10544   */\n    tag_418:\n        /* \"#utility.yul\":10461:10466   */\n      0x00\n        /* \"#utility.yul\":10492:10498   */\n      dup2\n        /* \"#utility.yul\":10486:10499   */\n      mload\n        /* \"#utility.yul\":10477:10499   */\n      swap1\n      pop\n        /* \"#utility.yul\":10508:10538   */\n      tag_561\n        /* \"#utility.yul\":10532:10537   */\n      dup2\n        /* \"#utility.yul\":10508:10538   */\n      tag_417\n      jump\t// in\n    tag_561:\n        /* \"#utility.yul\":10407:10544   */\n      swap3\n      swap2\n      pop\n      pop\n      jump\t// out\n        /* \"#utility.yul\":10550:10895   */\n    tag_163:\n        /* \"#utility.yul\":10617:10623   */\n      0x00\n        /* \"#utility.yul\":10666:10668   */\n      0x20\n        /* \"#utility.yul\":10654:10663   */\n      dup3\n        /* \"#utility.yul\":10645:10652   */\n      dup5\n        /* \"#utility.yul\":10641:10664   */\n      sub\n        /* \"#utility.yul\":10637:10669   */\n      slt\n        /* \"#utility.yul\":10634:10753   */\n      iszero\n      tag_563\n      jumpi\n        /* \"#utility.yul\":10672:10751   */\n      tag_564\n      tag_396\n      jump\t// in\n    tag_564:\n        /* \"#utility.yul\":10634:10753   */\n    tag_563:\n        /* \"#utility.yul\":10792:10793   */\n      0x00\n        /* \"#utility.yul\":10817:10878   */\n      tag_565\n        /* \"#utility.yul\":10870:10877   */\n      dup5\n        /* \"#utility.yul\":10861:10867   */\n      dup3\n        /* \"#utility.yul\":10850:10859   */\n      dup6\n        /* \"#utility.yul\":10846:10868   */\n      add\n        /* \"#utility.yul\":10817:10878   */\n      tag_418\n      jump\t// in\n    tag_565:\n        /* \"#utility.yul\":10807:10878   */\n      swap2\n      pop\n        /* \"#utility.yul\":10763:10888   */\n      pop\n        /* \"#utility.yul\":10550:10895   */\n      swap3\n      swap2\n      pop\n      pop\n      jump\t// out\n        /* \"#utility.yul\":10901:11082   */\n    tag_419:\n        /* \"#utility.yul\":11041:11074   */\n      0x546f6b656e5374616b696e673a206e6f742061207374616b65686f6c64657200\n        /* \"#utility.yul\":11037:11038   */\n      0x00\n        /* \"#utility.yul\":11029:11035   */\n      dup3\n        /* \"#utility.yul\":11025:11039   */\n      add\n        /* \"#utility.yul\":11018:11075   */\n      mstore\n        /* \"#utility.yul\":10901:11082   */\n      pop\n      jump\t// out\n        /* \"#utility.yul\":11088:11454   */\n    tag_420:\n        /* \"#utility.yul\":11230:11233   */\n      0x00\n        /* \"#utility.yul\":11251:11318   */\n      tag_568\n        /* \"#utility.yul\":11315:11317   */\n      0x1f\n        /* \"#utility.yul\":11310:11313   */\n      dup4\n        /* \"#utility.yul\":11251:11318   */\n      tag_409\n      jump\t// in\n    tag_568:\n        /* \"#utility.yul\":11244:11318   */\n      swap2\n      pop\n        /* \"#utility.yul\":11327:11420   */\n      tag_569\n        /* \"#utility.yul\":11416:11419   */\n      dup3\n        /* \"#utility.yul\":11327:11420   */\n      tag_419\n      jump\t// in\n    tag_569:\n        /* \"#utility.yul\":11445:11447   */\n      0x20\n        /* \"#utility.yul\":11440:11443   */\n      dup3\n        /* \"#utility.yul\":11436:11448   */\n      add\n        /* \"#utility.yul\":11429:11448   */\n      swap1\n      pop\n        /* \"#utility.yul\":11088:11454   */\n      swap2\n      swap1\n      pop\n      jump\t// out\n        /* \"#utility.yul\":11460:11879   */\n    tag_166:\n        /* \"#utility.yul\":11626:11630   */\n      0x00\n        /* \"#utility.yul\":11664:11666   */\n      0x20\n        /* \"#utility.yul\":11653:11662   */\n      dup3\n        /* \"#utility.yul\":11649:11667   */\n      add\n        /* \"#utility.yul\":11641:11667   */\n      swap1\n      pop\n        /* \"#utility.yul\":11713:11722   */\n      dup2\n        /* \"#utility.yul\":11707:11711   */\n      dup2\n        /* \"#utility.yul\":11703:11723   */\n      sub\n        /* \"#utility.yul\":11699:11700   */\n      0x00\n        /* \"#utility.yul\":11688:11697   */\n      dup4\n        /* \"#utility.yul\":11684:11701   */\n      add\n        /* \"#utility.yul\":11677:11724   */\n      mstore\n        /* \"#utility.yul\":11741:11872   */\n      tag_571\n        /* \"#utility.yul\":11867:11871   */\n      dup2\n        /* \"#utility.yul\":11741:11872   */\n      tag_420\n      jump\t// in\n    tag_571:\n        /* \"#utility.yul\":11733:11872   */\n      swap1\n      pop\n        /* \"#utility.yul\":11460:11879   */\n      swap2\n      swap1\n      pop\n      jump\t// out\n        /* \"#utility.yul\":11885:12113   */\n    tag_421:\n        /* \"#utility.yul\":12025:12059   */\n      0x546f6b656e5374616b696e673a206e6f7420656e6f756768207374616b652074\n        /* \"#utility.yul\":12021:12022   */\n      0x00\n        /* \"#utility.yul\":12013:12019   */\n      dup3\n        /* \"#utility.yul\":12009:12023   */\n      add\n        /* \"#utility.yul\":12002:12060   */\n      mstore\n        /* \"#utility.yul\":12094:12105   */\n      0x6f20756e7374616b650000000000000000000000000000000000000000000000\n        /* \"#utility.yul\":12089:12091   */\n      0x20\n        /* \"#utility.yul\":12081:12087   */\n      dup3\n        /* \"#utility.yul\":12077:12092   */\n      add\n        /* \"#utility.yul\":12070:12106   */\n      mstore\n        /* \"#utility.yul\":11885:12113   */\n      pop\n      jump\t// out\n        /* \"#utility.yul\":12119:12485   */\n    tag_422:\n        /* \"#utility.yul\":12261:12264   */\n      0x00\n        /* \"#utility.yul\":12282:12349   */\n      tag_574\n        /* \"#utility.yul\":12346:12348   */\n      0x29\n        /* \"#utility.yul\":12341:12344   */\n      dup4\n        /* \"#utility.yul\":12282:12349   */\n      tag_409\n      jump\t// in\n    tag_574:\n        /* \"#utility.yul\":12275:12349   */\n      swap2\n      pop\n        /* \"#utility.yul\":12358:12451   */\n      tag_575\n        /* \"#utility.yul\":12447:12450   */\n      dup3\n        /* \"#utility.yul\":12358:12451   */\n      tag_421\n      jump\t// in\n    tag_575:\n        /* \"#utility.yul\":12476:12478   */\n      0x40\n        /* \"#utility.yul\":12471:12474   */\n      dup3\n        /* \"#utility.yul\":12467:12479   */\n      add\n        /* \"#utility.yul\":12460:12479   */\n      swap1\n      pop\n        /* \"#utility.yul\":12119:12485   */\n      swap2\n      swap1\n      pop\n      jump\t// out\n        /* \"#utility.yul\":12491:12910   */\n    tag_169:\n        /* \"#utility.yul\":12657:12661   */\n      0x00\n        /* \"#utility.yul\":12695:12697   */\n      0x20\n        /* \"#utility.yul\":12684:12693   */\n      dup3\n        /* \"#utility.yul\":12680:12698   */\n      add\n        /* \"#utility.yul\":12672:12698   */\n      swap1\n      pop\n        /* \"#utility.yul\":12744:12753   */\n      dup2\n        /* \"#utility.yul\":12738:12742   */\n      dup2\n        /* \"#utility.yul\":12734:12754   */\n      sub\n        /* \"#utility.yul\":12730:12731   */\n      0x00\n        /* \"#utility.yul\":12719:12728   */\n      dup4\n        /* \"#utility.yul\":12715:12732   */\n      add\n        /* \"#utility.yul\":12708:12755   */\n      mstore\n        /* \"#utility.yul\":12772:12903   */\n      tag_577\n        /* \"#utility.yul\":12898:12902   */\n      dup2\n        /* \"#utility.yul\":12772:12903   */\n      tag_422\n      jump\t// in\n    tag_577:\n        /* \"#utility.yul\":12764:12903   */\n      swap1\n      pop\n        /* \"#utility.yul\":12491:12910   */\n      swap2\n      swap1\n      pop\n      jump\t// out\n        /* \"#utility.yul\":12916:13096   */\n    tag_423:\n        /* \"#utility.yul\":12964:13041   */\n      0x4e487b7100000000000000000000000000000000000000000000000000000000\n        /* \"#utility.yul\":12961:12962   */\n      0x00\n        /* \"#utility.yul\":12954:13042   */\n      mstore\n        /* \"#utility.yul\":13061:13065   */\n      0x11\n        /* \"#utility.yul\":13058:13059   */\n      0x04\n        /* \"#utility.yul\":13051:13066   */\n      mstore\n        /* \"#utility.yul\":13085:13089   */\n      0x24\n        /* \"#utility.yul\":13082:13083   */\n      0x00\n        /* \"#utility.yul\":13075:13090   */\n      revert\n        /* \"#utility.yul\":13102:13293   */\n    tag_173:\n        /* \"#utility.yul\":13142:13145   */\n      0x00\n        /* \"#utility.yul\":13161:13181   */\n      tag_580\n        /* \"#utility.yul\":13179:13180   */\n      dup3\n        /* \"#utility.yul\":13161:13181   */\n      tag_393\n      jump\t// in\n    tag_580:\n        /* \"#utility.yul\":13156:13181   */\n      swap2\n      pop\n        /* \"#utility.yul\":13195:13215   */\n      tag_581\n        /* \"#utility.yul\":13213:13214   */\n      dup4\n        /* \"#utility.yul\":13195:13215   */\n      tag_393\n      jump\t// in\n    tag_581:\n        /* \"#utility.yul\":13190:13215   */\n      swap3\n      pop\n        /* \"#utility.yul\":13238:13239   */\n      dup3\n        /* \"#utility.yul\":13235:13236   */\n      dup3\n        /* \"#utility.yul\":13231:13240   */\n      add\n        /* \"#utility.yul\":13224:13240   */\n      swap1\n      pop\n        /* \"#utility.yul\":13259:13262   */\n      dup1\n        /* \"#utility.yul\":13256:13257   */\n      dup3\n        /* \"#utility.yul\":13253:13263   */\n      gt\n        /* \"#utility.yul\":13250:13286   */\n      iszero\n      tag_582\n      jumpi\n        /* \"#utility.yul\":13266:13284   */\n      tag_583\n      tag_423\n      jump\t// in\n    tag_583:\n        /* \"#utility.yul\":13250:13286   */\n    tag_582:\n        /* \"#utility.yul\":13102:13293   */\n      swap3\n      swap2\n      pop\n      pop\n      jump\t// out\n        /* \"#utility.yul\":13299:13709   */\n    tag_178:\n        /* \"#utility.yul\":13339:13346   */\n      0x00\n        /* \"#utility.yul\":13362:13382   */\n      tag_585\n        /* \"#utility.yul\":13380:13381   */\n      dup3\n        /* \"#utility.yul\":13362:13382   */\n      tag_393\n      jump\t// in\n    tag_585:\n        /* \"#utility.yul\":13357:13382   */\n      swap2\n      pop\n        /* \"#utility.yul\":13396:13416   */\n      tag_586\n        /* \"#utility.yul\":13414:13415   */\n      dup4\n        /* \"#utility.yul\":13396:13416   */\n      tag_393\n      jump\t// in\n    tag_586:\n        /* \"#utility.yul\":13391:13416   */\n      swap3\n      pop\n        /* \"#utility.yul\":13451:13452   */\n      dup3\n        /* \"#utility.yul\":13448:13449   */\n      dup3\n        /* \"#utility.yul\":13444:13453   */\n      mul\n        /* \"#utility.yul\":13473:13503   */\n      tag_587\n        /* \"#utility.yul\":13491:13502   */\n      dup2\n        /* \"#utility.yul\":13473:13503   */\n      tag_393\n      jump\t// in\n    tag_587:\n        /* \"#utility.yul\":13462:13503   */\n      swap2\n      pop\n        /* \"#utility.yul\":13652:13653   */\n      dup3\n        /* \"#utility.yul\":13643:13650   */\n      dup3\n        /* \"#utility.yul\":13639:13654   */\n      div\n        /* \"#utility.yul\":13636:13637   */\n      dup5\n        /* \"#utility.yul\":13633:13655   */\n      eq\n        /* \"#utility.yul\":13613:13614   */\n      dup4\n        /* \"#utility.yul\":13606:13615   */\n      iszero\n        /* \"#utility.yul\":13586:13669   */\n      or\n        /* \"#utility.yul\":13563:13702   */\n      tag_588\n      jumpi\n        /* \"#utility.yul\":13682:13700   */\n      tag_589\n      tag_423\n      jump\t// in\n    tag_589:\n        /* \"#utility.yul\":13563:13702   */\n    tag_588:\n        /* \"#utility.yul\":13347:13709   */\n      pop\n        /* \"#utility.yul\":13299:13709   */\n      swap3\n      swap2\n      pop\n      pop\n      jump\t// out\n        /* \"#utility.yul\":13715:13895   */\n    tag_424:\n        /* \"#utility.yul\":13763:13840   */\n      0x4e487b7100000000000000000000000000000000000000000000000000000000\n        /* \"#utility.yul\":13760:13761   */\n      0x00\n        /* \"#utility.yul\":13753:13841   */\n      mstore\n        /* \"#utility.yul\":13860:13864   */\n      0x12\n        /* \"#utility.yul\":13857:13858   */\n      0x04\n        /* \"#utility.yul\":13850:13865   */\n      mstore\n        /* \"#utility.yul\":13884:13888   */\n      0x24\n        /* \"#utility.yul\":13881:13882   */\n      0x00\n        /* \"#utility.yul\":13874:13889   */\n      revert\n        /* \"#utility.yul\":13901:14086   */\n    tag_180:\n        /* \"#utility.yul\":13941:13942   */\n      0x00\n        /* \"#utility.yul\":13958:13978   */\n      tag_592\n        /* \"#utility.yul\":13976:13977   */\n      dup3\n        /* \"#utility.yul\":13958:13978   */\n      tag_393\n      jump\t// in\n    tag_592:\n        /* \"#utility.yul\":13953:13978   */\n      swap2\n      pop\n        /* \"#utility.yul\":13992:14012   */\n      tag_593\n        /* \"#utility.yul\":14010:14011   */\n      dup4\n        /* \"#utility.yul\":13992:14012   */\n      tag_393\n      jump\t// in\n    tag_593:\n        /* \"#utility.yul\":13987:14012   */\n      swap3\n      pop\n        /* \"#utility.yul\":14031:14032   */\n      dup3\n        /* \"#utility.yul\":14021:14056   */\n      tag_594\n      jumpi\n        /* \"#utility.yul\":14036:14054   */\n      tag_595\n      tag_424\n      jump\t// in\n    tag_595:\n        /* \"#utility.yul\":14021:14056   */\n    tag_594:\n        /* \"#utility.yul\":14078:14079   */\n      dup3\n        /* \"#utility.yul\":14075:14076   */\n      dup3\n        /* \"#utility.yul\":14071:14080   */\n      div\n        /* \"#utility.yul\":14066:14080   */\n      swap1\n      pop\n        /* \"#utility.yul\":13901:14086   */\n      swap3\n      swap2\n      pop\n      pop\n      jump\t// out\n        /* \"#utility.yul\":14092:14286   */\n    tag_183:\n        /* \"#utility.yul\":14132:14136   */\n      0x00\n        /* \"#utility.yul\":14152:14172   */\n      tag_597\n        /* \"#utility.yul\":14170:14171   */\n      dup3\n        /* \"#utility.yul\":14152:14172   */\n      tag_393\n      jump\t// in\n    tag_597:\n        /* \"#utility.yul\":14147:14172   */\n      swap2\n      pop\n        /* \"#utility.yul\":14186:14206   */\n      tag_598\n        /* \"#utility.yul\":14204:14205   */\n      dup4\n        /* \"#utility.yul\":14186:14206   */\n      tag_393\n      jump\t// in\n    tag_598:\n        /* \"#utility.yul\":14181:14206   */\n      swap3\n      pop\n        /* \"#utility.yul\":14230:14231   */\n      dup3\n        /* \"#utility.yul\":14227:14228   */\n      dup3\n        /* \"#utility.yul\":14223:14232   */\n      sub\n        /* \"#utility.yul\":14215:14232   */\n      swap1\n      pop\n        /* \"#utility.yul\":14254:14255   */\n      dup2\n        /* \"#utility.yul\":14248:14252   */\n      dup2\n        /* \"#utility.yul\":14245:14256   */\n      gt\n        /* \"#utility.yul\":14242:14279   */\n      iszero\n      tag_599\n      jumpi\n        /* \"#utility.yul\":14259:14277   */\n      tag_600\n      tag_423\n      jump\t// in\n    tag_600:\n        /* \"#utility.yul\":14242:14279   */\n    tag_599:\n        /* \"#utility.yul\":14092:14286   */\n      swap3\n      swap2\n      pop\n      pop\n      jump\t// out\n        /* \"#utility.yul\":14292:14624   */\n    tag_189:\n        /* \"#utility.yul\":14413:14417   */\n      0x00\n        /* \"#utility.yul\":14451:14453   */\n      0x40\n        /* \"#utility.yul\":14440:14449   */\n      dup3\n        /* \"#utility.yul\":14436:14454   */\n      add\n        /* \"#utility.yul\":14428:14454   */\n      swap1\n      pop\n        /* \"#utility.yul\":14464:14535   */\n      tag_602\n        /* \"#utility.yul\":14532:14533   */\n      0x00\n        /* \"#utility.yul\":14521:14530   */\n      dup4\n        /* \"#utility.yul\":14517:14534   */\n      add\n        /* \"#utility.yul\":14508:14514   */\n      dup6\n        /* \"#utility.yul\":14464:14535   */\n      tag_408\n      jump\t// in\n    tag_602:\n        /* \"#utility.yul\":14545:14617   */\n      tag_603\n        /* \"#utility.yul\":14613:14615   */\n      0x20\n        /* \"#utility.yul\":14602:14611   */\n      dup4\n        /* \"#utility.yul\":14598:14616   */\n      add\n        /* \"#utility.yul\":14589:14595   */\n      dup5\n        /* \"#utility.yul\":14545:14617   */\n      tag_394\n      jump\t// in\n    tag_603:\n        /* \"#utility.yul\":14292:14624   */\n      swap4\n      swap3\n      pop\n      pop\n      pop\n      jump\t// out\n        /* \"#utility.yul\":14630:14812   */\n    tag_425:\n        /* \"#utility.yul\":14770:14804   */\n      0x546f6b656e5374616b696e673a206661696c656420746f207472616e73666572\n        /* \"#utility.yul\":14766:14767   */\n      0x00\n        /* \"#utility.yul\":14758:14764   */\n      dup3\n        /* \"#utility.yul\":14754:14768   */\n      add\n        /* \"#utility.yul\":14747:14805   */\n      mstore\n        /* \"#utility.yul\":14630:14812   */\n      pop\n      jump\t// out\n        /* \"#utility.yul\":14818:15184   */\n    tag_426:\n        /* \"#utility.yul\":14960:14963   */\n      0x00\n        /* \"#utility.yul\":14981:15048   */\n      tag_606\n        /* \"#utility.yul\":15045:15047   */\n      0x20\n        /* \"#utility.yul\":15040:15043   */\n      dup4\n        /* \"#utility.yul\":14981:15048   */\n      tag_409\n      jump\t// in\n    tag_606:\n        /* \"#utility.yul\":14974:15048   */\n      swap2\n      pop\n        /* \"#utility.yul\":15057:15150   */\n      tag_607\n        /* \"#utility.yul\":15146:15149   */\n      dup3\n        /* \"#utility.yul\":15057:15150   */\n      tag_425\n      jump\t// in\n    tag_607:\n        /* \"#utility.yul\":15175:15177   */\n      0x20\n        /* \"#utility.yul\":15170:15173   */\n      dup3\n        /* \"#utility.yul\":15166:15178   */\n      add\n        /* \"#utility.yul\":15159:15178   */\n      swap1\n      pop\n        /* \"#utility.yul\":14818:15184   */\n      swap2\n      swap1\n      pop\n      jump\t// out\n        /* \"#utility.yul\":15190:15609   */\n    tag_195:\n        /* \"#utility.yul\":15356:15360   */\n      0x00\n        /* \"#utility.yul\":15394:15396   */\n      0x20\n        /* \"#utility.yul\":15383:15392   */\n      dup3\n        /* \"#utility.yul\":15379:15397   */\n      add\n        /* \"#utility.yul\":15371:15397   */\n      swap1\n      pop\n        /* \"#utility.yul\":15443:15452   */\n      dup2\n        /* \"#utility.yul\":15437:15441   */\n      dup2\n        /* \"#utility.yul\":15433:15453   */\n      sub\n        /* \"#utility.yul\":15429:15430   */\n      0x00\n        /* \"#utility.yul\":15418:15427   */\n      dup4\n        /* \"#utility.yul\":15414:15431   */\n      add\n        /* \"#utility.yul\":15407:15454   */\n      mstore\n        /* \"#utility.yul\":15471:15602   */\n      tag_609\n        /* \"#utility.yul\":15597:15601   */\n      dup2\n        /* \"#utility.yul\":15471:15602   */\n      tag_426\n      jump\t// in\n    tag_609:\n        /* \"#utility.yul\":15463:15602   */\n      swap1\n      pop\n        /* \"#utility.yul\":15190:15609   */\n      swap2\n      swap1\n      pop\n      jump\t// out\n        /* \"#utility.yul\":15615:15846   */\n    tag_427:\n        /* \"#utility.yul\":15755:15789   */\n      0x546f6b656e5374616b696e673a206e6f7420656e6f7567682077697468647261\n        /* \"#utility.yul\":15751:15752   */\n      0x00\n        /* \"#utility.yul\":15743:15749   */\n      dup3\n        /* \"#utility.yul\":15739:15753   */\n      add\n        /* \"#utility.yul\":15732:15790   */\n      mstore\n        /* \"#utility.yul\":15824:15838   */\n      0x7761626c6520746f6b656e730000000000000000000000000000000000000000\n        /* \"#utility.yul\":15819:15821   */\n      0x20\n        /* \"#utility.yul\":15811:15817   */\n      dup3\n        /* \"#utility.yul\":15807:15822   */\n      add\n        /* \"#utility.yul\":15800:15839   */\n      mstore\n        /* \"#utility.yul\":15615:15846   */\n      pop\n      jump\t// out\n        /* \"#utility.yul\":15852:16218   */\n    tag_428:\n        /* \"#utility.yul\":15994:15997   */\n      0x00\n        /* \"#utility.yul\":16015:16082   */\n      tag_612\n        /* \"#utility.yul\":16079:16081   */\n      0x2c\n        /* \"#utility.yul\":16074:16077   */\n      dup4\n        /* \"#utility.yul\":16015:16082   */\n      tag_409\n      jump\t// in\n    tag_612:\n        /* \"#utility.yul\":16008:16082   */\n      swap2\n      pop\n        /* \"#utility.yul\":16091:16184   */\n      tag_613\n        /* \"#utility.yul\":16180:16183   */\n      dup3\n        /* \"#utility.yul\":16091:16184   */\n      tag_427\n      jump\t// in\n    tag_613:\n        /* \"#utility.yul\":16209:16211   */\n      0x40\n        /* \"#utility.yul\":16204:16207   */\n      dup3\n        /* \"#utility.yul\":16200:16212   */\n      add\n        /* \"#utility.yul\":16193:16212   */\n      swap1\n      pop\n        /* \"#utility.yul\":15852:16218   */\n      swap2\n      swap1\n      pop\n      jump\t// out\n        /* \"#utility.yul\":16224:16643   */\n    tag_208:\n        /* \"#utility.yul\":16390:16394   */\n      0x00\n        /* \"#utility.yul\":16428:16430   */\n      0x20\n        /* \"#utility.yul\":16417:16426   */\n      dup3\n        /* \"#utility.yul\":16413:16431   */\n      add\n        /* \"#utility.yul\":16405:16431   */\n      swap1\n      pop\n        /* \"#utility.yul\":16477:16486   */\n      dup2\n        /* \"#utility.yul\":16471:16475   */\n      dup2\n        /* \"#utility.yul\":16467:16487   */\n      sub\n        /* \"#utility.yul\":16463:16464   */\n      0x00\n        /* \"#utility.yul\":16452:16461   */\n      dup4\n        /* \"#utility.yul\":16448:16465   */\n      add\n        /* \"#utility.yul\":16441:16488   */\n      mstore\n        /* \"#utility.yul\":16505:16636   */\n      tag_615\n        /* \"#utility.yul\":16631:16635   */\n      dup2\n        /* \"#utility.yul\":16505:16636   */\n      tag_428\n      jump\t// in\n    tag_615:\n        /* \"#utility.yul\":16497:16636   */\n      swap1\n      pop\n        /* \"#utility.yul\":16224:16643   */\n      swap2\n      swap1\n      pop\n      jump\t// out\n        /* \"#utility.yul\":16649:16882   */\n    tag_429:\n        /* \"#utility.yul\":16789:16823   */\n      0x496e697469616c697a61626c653a20636f6e747261637420697320616c726561\n        /* \"#utility.yul\":16785:16786   */\n      0x00\n        /* \"#utility.yul\":16777:16783   */\n      dup3\n        /* \"#utility.yul\":16773:16787   */\n      add\n        /* \"#utility.yul\":16766:16824   */\n      mstore\n        /* \"#utility.yul\":16858:16874   */\n      0x647920696e697469616c697a6564000000000000000000000000000000000000\n        /* \"#utility.yul\":16853:16855   */\n      0x20\n        /* \"#utility.yul\":16845:16851   */\n      dup3\n        /* \"#utility.yul\":16841:16856   */\n      add\n        /* \"#utility.yul\":16834:16875   */\n      mstore\n        /* \"#utility.yul\":16649:16882   */\n      pop\n      jump\t// out\n        /* \"#utility.yul\":16888:17254   */\n    tag_430:\n        /* \"#utility.yul\":17030:17033   */\n      0x00\n        /* \"#utility.yul\":17051:17118   */\n      tag_618\n        /* \"#utility.yul\":17115:17117   */\n      0x2e\n        /* \"#utility.yul\":17110:17113   */\n      dup4\n        /* \"#utility.yul\":17051:17118   */\n      tag_409\n      jump\t// in\n    tag_618:\n        /* \"#utility.yul\":17044:17118   */\n      swap2\n      pop\n        /* \"#utility.yul\":17127:17220   */\n      tag_619\n        /* \"#utility.yul\":17216:17219   */\n      dup3\n        /* \"#utility.yul\":17127:17220   */\n      tag_429\n      jump\t// in\n    tag_619:\n        /* \"#utility.yul\":17245:17247   */\n      0x40\n        /* \"#utility.yul\":17240:17243   */\n      dup3\n        /* \"#utility.yul\":17236:17248   */\n      add\n        /* \"#utility.yul\":17229:17248   */\n      swap1\n      pop\n        /* \"#utility.yul\":16888:17254   */\n      swap2\n      swap1\n      pop\n      jump\t// out\n        /* \"#utility.yul\":17260:17679   */\n    tag_254:\n        /* \"#utility.yul\":17426:17430   */\n      0x00\n        /* \"#utility.yul\":17464:17466   */\n      0x20\n        /* \"#utility.yul\":17453:17462   */\n      dup3\n        /* \"#utility.yul\":17449:17467   */\n      add\n        /* \"#utility.yul\":17441:17467   */\n      swap1\n      pop\n        /* \"#utility.yul\":17513:17522   */\n      dup2\n        /* \"#utility.yul\":17507:17511   */\n      dup2\n        /* \"#utility.yul\":17503:17523   */\n      sub\n        /* \"#utility.yul\":17499:17500   */\n      0x00\n        /* \"#utility.yul\":17488:17497   */\n      dup4\n        /* \"#utility.yul\":17484:17501   */\n      add\n        /* \"#utility.yul\":17477:17524   */\n      mstore\n        /* \"#utility.yul\":17541:17672   */\n      tag_621\n        /* \"#utility.yul\":17667:17671   */\n      dup2\n        /* \"#utility.yul\":17541:17672   */\n      tag_430\n      jump\t// in\n    tag_621:\n        /* \"#utility.yul\":17533:17672   */\n      swap1\n      pop\n        /* \"#utility.yul\":17260:17679   */\n      swap2\n      swap1\n      pop\n      jump\t// out\n        /* \"#utility.yul\":17685:17770   */\n    tag_431:\n        /* \"#utility.yul\":17730:17737   */\n      0x00\n        /* \"#utility.yul\":17759:17764   */\n      dup2\n        /* \"#utility.yul\":17748:17764   */\n      swap1\n      pop\n        /* \"#utility.yul\":17685:17770   */\n      swap2\n      swap1\n      pop\n      jump\t// out\n        /* \"#utility.yul\":17776:17862   */\n    tag_432:\n        /* \"#utility.yul\":17811:17818   */\n      0x00\n        /* \"#utility.yul\":17851:17855   */\n      0xff\n        /* \"#utility.yul\":17844:17849   */\n      dup3\n        /* \"#utility.yul\":17840:17856   */\n      and\n        /* \"#utility.yul\":17829:17856   */\n      swap1\n      pop\n        /* \"#utility.yul\":17776:17862   */\n      swap2\n      swap1\n      pop\n      jump\t// out\n        /* \"#utility.yul\":17868:17928   */\n    tag_433:\n        /* \"#utility.yul\":17896:17899   */\n      0x00\n        /* \"#utility.yul\":17917:17922   */\n      dup2\n        /* \"#utility.yul\":17910:17922   */\n      swap1\n      pop\n        /* \"#utility.yul\":17868:17928   */\n      swap2\n      swap1\n      pop\n      jump\t// out\n        /* \"#utility.yul\":17934:18088   */\n    tag_434:\n        /* \"#utility.yul\":17990:17999   */\n      0x00\n        /* \"#utility.yul\":18023:18082   */\n      tag_626\n        /* \"#utility.yul\":18039:18081   */\n      tag_627\n        /* \"#utility.yul\":18048:18080   */\n      tag_628\n        /* \"#utility.yul\":18074:18079   */\n      dup5\n        /* \"#utility.yul\":18048:18080   */\n      tag_431\n      jump\t// in\n    tag_628:\n        /* \"#utility.yul\":18039:18081   */\n      tag_433\n      jump\t// in\n    tag_627:\n        /* \"#utility.yul\":18023:18082   */\n      tag_432\n      jump\t// in\n    tag_626:\n        /* \"#utility.yul\":18010:18082   */\n      swap1\n      pop\n        /* \"#utility.yul\":17934:18088   */\n      swap2\n      swap1\n      pop\n      jump\t// out\n        /* \"#utility.yul\":18094:18237   */\n    tag_435:\n        /* \"#utility.yul\":18187:18230   */\n      tag_630\n        /* \"#utility.yul\":18224:18229   */\n      dup2\n        /* \"#utility.yul\":18187:18230   */\n      tag_434\n      jump\t// in\n    tag_630:\n        /* \"#utility.yul\":18182:18185   */\n      dup3\n        /* \"#utility.yul\":18175:18231   */\n      mstore\n        /* \"#utility.yul\":18094:18237   */\n      pop\n      pop\n      jump\t// out\n        /* \"#utility.yul\":18243:18477   */\n    tag_261:\n        /* \"#utility.yul\":18342:18346   */\n      0x00\n        /* \"#utility.yul\":18380:18382   */\n      0x20\n        /* \"#utility.yul\":18369:18378   */\n      dup3\n        /* \"#utility.yul\":18365:18383   */\n      add\n        /* \"#utility.yul\":18357:18383   */\n      swap1\n      pop\n        /* \"#utility.yul\":18393:18470   */\n      tag_632\n        /* \"#utility.yul\":18467:18468   */\n      0x00\n        /* \"#utility.yul\":18456:18465   */\n      dup4\n        /* \"#utility.yul\":18452:18469   */\n      add\n        /* \"#utility.yul\":18443:18449   */\n      dup5\n        /* \"#utility.yul\":18393:18470   */\n      tag_435\n      jump\t// in\n    tag_632:\n        /* \"#utility.yul\":18243:18477   */\n      swap3\n      swap2\n      pop\n      pop\n      jump\t// out\n        /* \"#utility.yul\":18483:18665   */\n    tag_436:\n        /* \"#utility.yul\":18623:18657   */\n      0x546f6b656e5374616b696e673a206e6f2072657761726420746f20636c61696d\n        /* \"#utility.yul\":18619:18620   */\n      0x00\n        /* \"#utility.yul\":18611:18617   */\n      dup3\n        /* \"#utility.yul\":18607:18621   */\n      add\n        /* \"#utility.yul\":18600:18658   */\n      mstore\n        /* \"#utility.yul\":18483:18665   */\n      pop\n      jump\t// out\n        /* \"#utility.yul\":18671:19037   */\n    tag_437:\n        /* \"#utility.yul\":18813:18816   */\n      0x00\n        /* \"#utility.yul\":18834:18901   */\n      tag_635\n        /* \"#utility.yul\":18898:18900   */\n      0x20\n        /* \"#utility.yul\":18893:18896   */\n      dup4\n        /* \"#utility.yul\":18834:18901   */\n      tag_409\n      jump\t// in\n    tag_635:\n        /* \"#utility.yul\":18827:18901   */\n      swap2\n      pop\n        /* \"#utility.yul\":18910:19003   */\n      tag_636\n        /* \"#utility.yul\":18999:19002   */\n      dup3\n        /* \"#utility.yul\":18910:19003   */\n      tag_436\n      jump\t// in\n    tag_636:\n        /* \"#utility.yul\":19028:19030   */\n      0x20\n        /* \"#utility.yul\":19023:19026   */\n      dup3\n        /* \"#utility.yul\":19019:19031   */\n      add\n        /* \"#utility.yul\":19012:19031   */\n      swap1\n      pop\n        /* \"#utility.yul\":18671:19037   */\n      swap2\n      swap1\n      pop\n      jump\t// out\n        /* \"#utility.yul\":19043:19462   */\n    tag_289:\n        /* \"#utility.yul\":19209:19213   */\n      0x00\n        /* \"#utility.yul\":19247:19249   */\n      0x20\n        /* \"#utility.yul\":19236:19245   */\n      dup3\n        /* \"#utility.yul\":19232:19250   */\n      add\n        /* \"#utility.yul\":19224:19250   */\n      swap1\n      pop\n        /* \"#utility.yul\":19296:19305   */\n      dup2\n        /* \"#utility.yul\":19290:19294   */\n      dup2\n        /* \"#utility.yul\":19286:19306   */\n      sub\n        /* \"#utility.yul\":19282:19283   */\n      0x00\n        /* \"#utility.yul\":19271:19280   */\n      dup4\n        /* \"#utility.yul\":19267:19284   */\n      add\n        /* \"#utility.yul\":19260:19307   */\n      mstore\n        /* \"#utility.yul\":19324:19455   */\n      tag_638\n        /* \"#utility.yul\":19450:19454   */\n      dup2\n        /* \"#utility.yul\":19324:19455   */\n      tag_437\n      jump\t// in\n    tag_638:\n        /* \"#utility.yul\":19316:19455   */\n      swap1\n      pop\n        /* \"#utility.yul\":19043:19462   */\n      swap2\n      swap1\n      pop\n      jump\t// out\n        /* \"#utility.yul\":19468:19693   */\n    tag_438:\n        /* \"#utility.yul\":19608:19642   */\n      0x4f776e61626c653a206e6577206f776e657220697320746865207a65726f2061\n        /* \"#utility.yul\":19604:19605   */\n      0x00\n        /* \"#utility.yul\":19596:19602   */\n      dup3\n        /* \"#utility.yul\":19592:19606   */\n      add\n        /* \"#utility.yul\":19585:19643   */\n      mstore\n        /* \"#utility.yul\":19677:19685   */\n      0x6464726573730000000000000000000000000000000000000000000000000000\n        /* \"#utility.yul\":19672:19674   */\n      0x20\n        /* \"#utility.yul\":19664:19670   */\n      dup3\n        /* \"#utility.yul\":19660:19675   */\n      add\n        /* \"#utility.yul\":19653:19686   */\n      mstore\n        /* \"#utility.yul\":19468:19693   */\n      pop\n      jump\t// out\n        /* \"#utility.yul\":19699:20065   */\n    tag_439:\n        /* \"#utility.yul\":19841:19844   */\n      0x00\n        /* \"#utility.yul\":19862:19929   */\n      tag_641\n        /* \"#utility.yul\":19926:19928   */\n      0x26\n        /* \"#utility.yul\":19921:19924   */\n      dup4\n        /* \"#utility.yul\":19862:19929   */\n      tag_409\n      jump\t// in\n    tag_641:\n        /* \"#utility.yul\":19855:19929   */\n      swap2\n      pop\n        /* \"#utility.yul\":19938:20031   */\n      tag_642\n        /* \"#utility.yul\":20027:20030   */\n      dup3\n        /* \"#utility.yul\":19938:20031   */\n      tag_438\n      jump\t// in\n    tag_642:\n        /* \"#utility.yul\":20056:20058   */\n      0x40\n        /* \"#utility.yul\":20051:20054   */\n      dup3\n        /* \"#utility.yul\":20047:20059   */\n      add\n        /* \"#utility.yul\":20040:20059   */\n      swap1\n      pop\n        /* \"#utility.yul\":19699:20065   */\n      swap2\n      swap1\n      pop\n      jump\t// out\n        /* \"#utility.yul\":20071:20490   */\n    tag_311:\n        /* \"#utility.yul\":20237:20241   */\n      0x00\n        /* \"#utility.yul\":20275:20277   */\n      0x20\n        /* \"#utility.yul\":20264:20273   */\n      dup3\n        /* \"#utility.yul\":20260:20278   */\n      add\n        /* \"#utility.yul\":20252:20278   */\n      swap1\n      pop\n        /* \"#utility.yul\":20324:20333   */\n      dup2\n        /* \"#utility.yul\":20318:20322   */\n      dup2\n        /* \"#utility.yul\":20314:20334   */\n      sub\n        /* \"#utility.yul\":20310:20311   */\n      0x00\n        /* \"#utility.yul\":20299:20308   */\n      dup4\n        /* \"#utility.yul\":20295:20312   */\n      add\n        /* \"#utility.yul\":20288:20335   */\n      mstore\n        /* \"#utility.yul\":20352:20483   */\n      tag_644\n        /* \"#utility.yul\":20478:20482   */\n      dup2\n        /* \"#utility.yul\":20352:20483   */\n      tag_439\n      jump\t// in\n    tag_644:\n        /* \"#utility.yul\":20344:20483   */\n      swap1\n      pop\n        /* \"#utility.yul\":20071:20490   */\n      swap2\n      swap1\n      pop\n      jump\t// out\n        /* \"#utility.yul\":20496:20678   */\n    tag_440:\n        /* \"#utility.yul\":20636:20670   */\n      0x4f776e61626c653a2063616c6c6572206973206e6f7420746865206f776e6572\n        /* \"#utility.yul\":20632:20633   */\n      0x00\n        /* \"#utility.yul\":20624:20630   */\n      dup3\n        /* \"#utility.yul\":20620:20634   */\n      add\n        /* \"#utility.yul\":20613:20671   */\n      mstore\n        /* \"#utility.yul\":20496:20678   */\n      pop\n      jump\t// out\n        /* \"#utility.yul\":20684:21050   */\n    tag_441:\n        /* \"#utility.yul\":20826:20829   */\n      0x00\n        /* \"#utility.yul\":20847:20914   */\n      tag_647\n        /* \"#utility.yul\":20911:20913   */\n      0x20\n        /* \"#utility.yul\":20906:20909   */\n      dup4\n        /* \"#utility.yul\":20847:20914   */\n      tag_409\n      jump\t// in\n    tag_647:\n        /* \"#utility.yul\":20840:20914   */\n      swap2\n      pop\n        /* \"#utility.yul\":20923:21016   */\n      tag_648\n        /* \"#utility.yul\":21012:21015   */\n      dup3\n        /* \"#utility.yul\":20923:21016   */\n      tag_440\n      jump\t// in\n    tag_648:\n        /* \"#utility.yul\":21041:21043   */\n      0x20\n        /* \"#utility.yul\":21036:21039   */\n      dup3\n        /* \"#utility.yul\":21032:21044   */\n      add\n        /* \"#utility.yul\":21025:21044   */\n      swap1\n      pop\n        /* \"#utility.yul\":20684:21050   */\n      swap2\n      swap1\n      pop\n      jump\t// out\n        /* \"#utility.yul\":21056:21475   */\n    tag_319:\n        /* \"#utility.yul\":21222:21226   */\n      0x00\n        /* \"#utility.yul\":21260:21262   */\n      0x20\n        /* \"#utility.yul\":21249:21258   */\n      dup3\n        /* \"#utility.yul\":21245:21263   */\n      add\n        /* \"#utility.yul\":21237:21263   */\n      swap1\n      pop\n        /* \"#utility.yul\":21309:21318   */\n      dup2\n        /* \"#utility.yul\":21303:21307   */\n      dup2\n        /* \"#utility.yul\":21299:21319   */\n      sub\n        /* \"#utility.yul\":21295:21296   */\n      0x00\n        /* \"#utility.yul\":21284:21293   */\n      dup4\n        /* \"#utility.yul\":21280:21297   */\n      add\n        /* \"#utility.yul\":21273:21320   */\n      mstore\n        /* \"#utility.yul\":21337:21468   */\n      tag_650\n        /* \"#utility.yul\":21463:21467   */\n      dup2\n        /* \"#utility.yul\":21337:21468   */\n      tag_441\n      jump\t// in\n    tag_650:\n        /* \"#utility.yul\":21329:21468   */\n      swap1\n      pop\n        /* \"#utility.yul\":21056:21475   */\n      swap2\n      swap1\n      pop\n      jump\t// out\n        /* \"#utility.yul\":21481:21662   */\n    tag_442:\n        /* \"#utility.yul\":21621:21654   */\n      0x546f6b656e5374616b696e673a207374616b696e672069732070617573656400\n        /* \"#utility.yul\":21617:21618   */\n      0x00\n        /* \"#utility.yul\":21609:21615   */\n      dup3\n        /* \"#utility.yul\":21605:21619   */\n      add\n        /* \"#utility.yul\":21598:21655   */\n      mstore\n        /* \"#utility.yul\":21481:21662   */\n      pop\n      jump\t// out\n        /* \"#utility.yul\":21668:22034   */\n    tag_443:\n        /* \"#utility.yul\":21810:21813   */\n      0x00\n        /* \"#utility.yul\":21831:21898   */\n      tag_653\n        /* \"#utility.yul\":21895:21897   */\n      0x1f\n        /* \"#utility.yul\":21890:21893   */\n      dup4\n        /* \"#utility.yul\":21831:21898   */\n      tag_409\n      jump\t// in\n    tag_653:\n        /* \"#utility.yul\":21824:21898   */\n      swap2\n      pop\n        /* \"#utility.yul\":21907:22000   */\n      tag_654\n        /* \"#utility.yul\":21996:21999   */\n      dup3\n        /* \"#utility.yul\":21907:22000   */\n      tag_442\n      jump\t// in\n    tag_654:\n        /* \"#utility.yul\":22025:22027   */\n      0x20\n        /* \"#utility.yul\":22020:22023   */\n      dup3\n        /* \"#utility.yul\":22016:22028   */\n      add\n        /* \"#utility.yul\":22009:22028   */\n      swap1\n      pop\n        /* \"#utility.yul\":21668:22034   */\n      swap2\n      swap1\n      pop\n      jump\t// out\n        /* \"#utility.yul\":22040:22459   */\n    tag_338:\n        /* \"#utility.yul\":22206:22210   */\n      0x00\n        /* \"#utility.yul\":22244:22246   */\n      0x20\n        /* \"#utility.yul\":22233:22242   */\n      dup3\n        /* \"#utility.yul\":22229:22247   */\n      add\n        /* \"#utility.yul\":22221:22247   */\n      swap1\n      pop\n        /* \"#utility.yul\":22293:22302   */\n      dup2\n        /* \"#utility.yul\":22287:22291   */\n      dup2\n        /* \"#utility.yul\":22283:22303   */\n      sub\n        /* \"#utility.yul\":22279:22280   */\n      0x00\n        /* \"#utility.yul\":22268:22277   */\n      dup4\n        /* \"#utility.yul\":22264:22281   */\n      add\n        /* \"#utility.yul\":22257:22304   */\n      mstore\n        /* \"#utility.yul\":22321:22452   */\n      tag_656\n        /* \"#utility.yul\":22447:22451   */\n      dup2\n        /* \"#utility.yul\":22321:22452   */\n      tag_443\n      jump\t// in\n    tag_656:\n        /* \"#utility.yul\":22313:22452   */\n      swap1\n      pop\n        /* \"#utility.yul\":22040:22459   */\n      swap2\n      swap1\n      pop\n      jump\t// out\n        /* \"#utility.yul\":22465:22689   */\n    tag_444:\n        /* \"#utility.yul\":22605:22639   */\n      0x546f6b656e5374616b696e673a207374616b696e67206e6f7420737461727465\n        /* \"#utility.yul\":22601:22602   */\n      0x00\n        /* \"#utility.yul\":22593:22599   */\n      dup3\n        /* \"#utility.yul\":22589:22603   */\n      add\n        /* \"#utility.yul\":22582:22640   */\n      mstore\n        /* \"#utility.yul\":22674:22681   */\n      0x6420796574000000000000000000000000000000000000000000000000000000\n        /* \"#utility.yul\":22669:22671   */\n      0x20\n        /* \"#utility.yul\":22661:22667   */\n      dup3\n        /* \"#utility.yul\":22657:22672   */\n      add\n        /* \"#utility.yul\":22650:22682   */\n      mstore\n        /* \"#utility.yul\":22465:22689   */\n      pop\n      jump\t// out\n        /* \"#utility.yul\":22695:23061   */\n    tag_445:\n        /* \"#utility.yul\":22837:22840   */\n      0x00\n        /* \"#utility.yul\":22858:22925   */\n      tag_659\n        /* \"#utility.yul\":22922:22924   */\n      0x25\n        /* \"#utility.yul\":22917:22920   */\n      dup4\n        /* \"#utility.yul\":22858:22925   */\n      tag_409\n      jump\t// in\n    tag_659:\n        /* \"#utility.yul\":22851:22925   */\n      swap2\n      pop\n        /* \"#utility.yul\":22934:23027   */\n      tag_660\n        /* \"#utility.yul\":23023:23026   */\n      dup3\n        /* \"#utility.yul\":22934:23027   */\n      tag_444\n      jump\t// in\n    tag_660:\n        /* \"#utility.yul\":23052:23054   */\n      0x40\n        /* \"#utility.yul\":23047:23050   */\n      dup3\n        /* \"#utility.yul\":23043:23055   */\n      add\n        /* \"#utility.yul\":23036:23055   */\n      swap1\n      pop\n        /* \"#utility.yul\":22695:23061   */\n      swap2\n      swap1\n      pop\n      jump\t// out\n        /* \"#utility.yul\":23067:23486   */\n    tag_342:\n        /* \"#utility.yul\":23233:23237   */\n      0x00\n        /* \"#utility.yul\":23271:23273   */\n      0x20\n        /* \"#utility.yul\":23260:23269   */\n      dup3\n        /* \"#utility.yul\":23256:23274   */\n      add\n        /* \"#utility.yul\":23248:23274   */\n      swap1\n      pop\n        /* \"#utility.yul\":23320:23329   */\n      dup2\n        /* \"#utility.yul\":23314:23318   */\n      dup2\n        /* \"#utility.yul\":23310:23330   */\n      sub\n        /* \"#utility.yul\":23306:23307   */\n      0x00\n        /* \"#utility.yul\":23295:23304   */\n      dup4\n        /* \"#utility.yul\":23291:23308   */\n      add\n        /* \"#utility.yul\":23284:23331   */\n      mstore\n        /* \"#utility.yul\":23348:23479   */\n      tag_662\n        /* \"#utility.yul\":23474:23478   */\n      dup2\n        /* \"#utility.yul\":23348:23479   */\n      tag_445\n      jump\t// in\n    tag_662:\n        /* \"#utility.yul\":23340:23479   */\n      swap1\n      pop\n        /* \"#utility.yul\":23067:23486   */\n      swap2\n      swap1\n      pop\n      jump\t// out\n        /* \"#utility.yul\":23492:23669   */\n    tag_446:\n        /* \"#utility.yul\":23632:23661   */\n      0x546f6b656e5374616b696e673a207374616b696e6720656e6465640000000000\n        /* \"#utility.yul\":23628:23629   */\n      0x00\n        /* \"#utility.yul\":23620:23626   */\n      dup3\n        /* \"#utility.yul\":23616:23630   */\n      add\n        /* \"#utility.yul\":23609:23662   */\n      mstore\n        /* \"#utility.yul\":23492:23669   */\n      pop\n      jump\t// out\n        /* \"#utility.yul\":23675:24041   */\n    tag_447:\n        /* \"#utility.yul\":23817:23820   */\n      0x00\n        /* \"#utility.yul\":23838:23905   */\n      tag_665\n        /* \"#utility.yul\":23902:23904   */\n      0x1b\n        /* \"#utility.yul\":23897:23900   */\n      dup4\n        /* \"#utility.yul\":23838:23905   */\n      tag_409\n      jump\t// in\n    tag_665:\n        /* \"#utility.yul\":23831:23905   */\n      swap2\n      pop\n        /* \"#utility.yul\":23914:24007   */\n      tag_666\n        /* \"#utility.yul\":24003:24006   */\n      dup3\n        /* \"#utility.yul\":23914:24007   */\n      tag_446\n      jump\t// in\n    tag_666:\n        /* \"#utility.yul\":24032:24034   */\n      0x20\n        /* \"#utility.yul\":24027:24030   */\n      dup3\n        /* \"#utility.yul\":24023:24035   */\n      add\n        /* \"#utility.yul\":24016:24035   */\n      swap1\n      pop\n        /* \"#utility.yul\":23675:24041   */\n      swap2\n      swap1\n      pop\n      jump\t// out\n        /* \"#utility.yul\":24047:24466   */\n    tag_345:\n        /* \"#utility.yul\":24213:24217   */\n      0x00\n        /* \"#utility.yul\":24251:24253   */\n      0x20\n        /* \"#utility.yul\":24240:24249   */\n      dup3\n        /* \"#utility.yul\":24236:24254   */\n      add\n        /* \"#utility.yul\":24228:24254   */\n      swap1\n      pop\n        /* \"#utility.yul\":24300:24309   */\n      dup2\n        /* \"#utility.yul\":24294:24298   */\n      dup2\n        /* \"#utility.yul\":24290:24310   */\n      sub\n        /* \"#utility.yul\":24286:24287   */\n      0x00\n        /* \"#utility.yul\":24275:24284   */\n      dup4\n        /* \"#utility.yul\":24271:24288   */\n      add\n        /* \"#utility.yul\":24264:24311   */\n      mstore\n        /* \"#utility.yul\":24328:24459   */\n      tag_668\n        /* \"#utility.yul\":24454:24458   */\n      dup2\n        /* \"#utility.yul\":24328:24459   */\n      tag_447\n      jump\t// in\n    tag_668:\n        /* \"#utility.yul\":24320:24459   */\n      swap1\n      pop\n        /* \"#utility.yul\":24047:24466   */\n      swap2\n      swap1\n      pop\n      jump\t// out\n        /* \"#utility.yul\":24472:24704   */\n    tag_448:\n        /* \"#utility.yul\":24612:24646   */\n      0x546f6b656e5374616b696e673a206d6178207374616b696e6720746f6b656e20\n        /* \"#utility.yul\":24608:24609   */\n      0x00\n        /* \"#utility.yul\":24600:24606   */\n      dup3\n        /* \"#utility.yul\":24596:24610   */\n      add\n        /* \"#utility.yul\":24589:24647   */\n      mstore\n        /* \"#utility.yul\":24681:24696   */\n      0x6c696d6974207265616368656400000000000000000000000000000000000000\n        /* \"#utility.yul\":24676:24678   */\n      0x20\n        /* \"#utility.yul\":24668:24674   */\n      dup3\n        /* \"#utility.yul\":24664:24679   */\n      add\n        /* \"#utility.yul\":24657:24697   */\n      mstore\n        /* \"#utility.yul\":24472:24704   */\n      pop\n      jump\t// out\n        /* \"#utility.yul\":24710:25076   */\n    tag_449:\n        /* \"#utility.yul\":24852:24855   */\n      0x00\n        /* \"#utility.yul\":24873:24940   */\n      tag_671\n        /* \"#utility.yul\":24937:24939   */\n      0x2d\n        /* \"#utility.yul\":24932:24935   */\n      dup4\n        /* \"#utility.yul\":24873:24940   */\n      tag_409\n      jump\t// in\n    tag_671:\n        /* \"#utility.yul\":24866:24940   */\n      swap2\n      pop\n        /* \"#utility.yul\":24949:25042   */\n      tag_672\n        /* \"#utility.yul\":25038:25041   */\n      dup3\n        /* \"#utility.yul\":24949:25042   */\n      tag_448\n      jump\t// in\n    tag_672:\n        /* \"#utility.yul\":25067:25069   */\n      0x40\n        /* \"#utility.yul\":25062:25065   */\n      dup3\n        /* \"#utility.yul\":25058:25070   */\n      add\n        /* \"#utility.yul\":25051:25070   */\n      swap1\n      pop\n        /* \"#utility.yul\":24710:25076   */\n      swap2\n      swap1\n      pop\n      jump\t// out\n        /* \"#utility.yul\":25082:25501   */\n    tag_349:\n        /* \"#utility.yul\":25248:25252   */\n      0x00\n        /* \"#utility.yul\":25286:25288   */\n      0x20\n        /* \"#utility.yul\":25275:25284   */\n      dup3\n        /* \"#utility.yul\":25271:25289   */\n      add\n        /* \"#utility.yul\":25263:25289   */\n      swap1\n      pop\n        /* \"#utility.yul\":25335:25344   */\n      dup2\n        /* \"#utility.yul\":25329:25333   */\n      dup2\n        /* \"#utility.yul\":25325:25345   */\n      sub\n        /* \"#utility.yul\":25321:25322   */\n      0x00\n        /* \"#utility.yul\":25310:25319   */\n      dup4\n        /* \"#utility.yul\":25306:25323   */\n      add\n        /* \"#utility.yul\":25299:25346   */\n      mstore\n        /* \"#utility.yul\":25363:25494   */\n      tag_674\n        /* \"#utility.yul\":25489:25493   */\n      dup2\n        /* \"#utility.yul\":25363:25494   */\n      tag_449\n      jump\t// in\n    tag_674:\n        /* \"#utility.yul\":25355:25494   */\n      swap1\n      pop\n        /* \"#utility.yul\":25082:25501   */\n      swap2\n      swap1\n      pop\n      jump\t// out\n        /* \"#utility.yul\":25507:25737   */\n    tag_450:\n        /* \"#utility.yul\":25647:25681   */\n      0x546f6b656e5374616b696e673a207374616b6520616d6f756e74206d75737420\n        /* \"#utility.yul\":25643:25644   */\n      0x00\n        /* \"#utility.yul\":25635:25641   */\n      dup3\n        /* \"#utility.yul\":25631:25645   */\n      add\n        /* \"#utility.yul\":25624:25682   */\n      mstore\n        /* \"#utility.yul\":25716:25729   */\n      0x6265206e6f6e2d7a65726f000000000000000000000000000000000000000000\n        /* \"#utility.yul\":25711:25713   */\n      0x20\n        /* \"#utility.yul\":25703:25709   */\n      dup3\n        /* \"#utility.yul\":25699:25714   */\n      add\n        /* \"#utility.yul\":25692:25730   */\n      mstore\n        /* \"#utility.yul\":25507:25737   */\n      pop\n      jump\t// out\n        /* \"#utility.yul\":25743:26109   */\n    tag_451:\n        /* \"#utility.yul\":25885:25888   */\n      0x00\n        /* \"#utility.yul\":25906:25973   */\n      tag_677\n        /* \"#utility.yul\":25970:25972   */\n      0x2b\n        /* \"#utility.yul\":25965:25968   */\n      dup4\n        /* \"#utility.yul\":25906:25973   */\n      tag_409\n      jump\t// in\n    tag_677:\n        /* \"#utility.yul\":25899:25973   */\n      swap2\n      pop\n        /* \"#utility.yul\":25982:26075   */\n      tag_678\n        /* \"#utility.yul\":26071:26074   */\n      dup3\n        /* \"#utility.yul\":25982:26075   */\n      tag_450\n      jump\t// in\n    tag_678:\n        /* \"#utility.yul\":26100:26102   */\n      0x40\n        /* \"#utility.yul\":26095:26098   */\n      dup3\n        /* \"#utility.yul\":26091:26103   */\n      add\n        /* \"#utility.yul\":26084:26103   */\n      swap1\n      pop\n        /* \"#utility.yul\":25743:26109   */\n      swap2\n      swap1\n      pop\n      jump\t// out\n        /* \"#utility.yul\":26115:26534   */\n    tag_352:\n        /* \"#utility.yul\":26281:26285   */\n      0x00\n        /* \"#utility.yul\":26319:26321   */\n      0x20\n        /* \"#utility.yul\":26308:26317   */\n      dup3\n        /* \"#utility.yul\":26304:26322   */\n      add\n        /* \"#utility.yul\":26296:26322   */\n      swap1\n      pop\n        /* \"#utility.yul\":26368:26377   */\n      dup2\n        /* \"#utility.yul\":26362:26366   */\n      dup2\n        /* \"#utility.yul\":26358:26378   */\n      sub\n        /* \"#utility.yul\":26354:26355   */\n      0x00\n        /* \"#utility.yul\":26343:26352   */\n      dup4\n        /* \"#utility.yul\":26339:26356   */\n      add\n        /* \"#utility.yul\":26332:26379   */\n      mstore\n        /* \"#utility.yul\":26396:26527   */\n      tag_680\n        /* \"#utility.yul\":26522:26526   */\n      dup2\n        /* \"#utility.yul\":26396:26527   */\n      tag_451\n      jump\t// in\n    tag_680:\n        /* \"#utility.yul\":26388:26527   */\n      swap1\n      pop\n        /* \"#utility.yul\":26115:26534   */\n      swap2\n      swap1\n      pop\n      jump\t// out\n        /* \"#utility.yul\":26540:26831   */\n    tag_452:\n        /* \"#utility.yul\":26680:26714   */\n      0x546f6b656e5374616b696e673a207374616b6520616d6f756e74206d75737420\n        /* \"#utility.yul\":26676:26677   */\n      0x00\n        /* \"#utility.yul\":26668:26674   */\n      dup3\n        /* \"#utility.yul\":26664:26678   */\n      add\n        /* \"#utility.yul\":26657:26715   */\n      mstore\n        /* \"#utility.yul\":26749:26783   */\n      0x67726561746572207468616e206d696e696d756d20616d6f756e7420616c6c6f\n        /* \"#utility.yul\":26744:26746   */\n      0x20\n        /* \"#utility.yul\":26736:26742   */\n      dup3\n        /* \"#utility.yul\":26732:26747   */\n      add\n        /* \"#utility.yul\":26725:26784   */\n      mstore\n        /* \"#utility.yul\":26818:26823   */\n      0x7765640000000000000000000000000000000000000000000000000000000000\n        /* \"#utility.yul\":26813:26815   */\n      0x40\n        /* \"#utility.yul\":26805:26811   */\n      dup3\n        /* \"#utility.yul\":26801:26816   */\n      add\n        /* \"#utility.yul\":26794:26824   */\n      mstore\n        /* \"#utility.yul\":26540:26831   */\n      pop\n      jump\t// out\n        /* \"#utility.yul\":26837:27203   */\n    tag_453:\n        /* \"#utility.yul\":26979:26982   */\n      0x00\n        /* \"#utility.yul\":27000:27067   */\n      tag_683\n        /* \"#utility.yul\":27064:27066   */\n      0x43\n        /* \"#utility.yul\":27059:27062   */\n      dup4\n        /* \"#utility.yul\":27000:27067   */\n      tag_409\n      jump\t// in\n    tag_683:\n        /* \"#utility.yul\":26993:27067   */\n      swap2\n      pop\n        /* \"#utility.yul\":27076:27169   */\n      tag_684\n        /* \"#utility.yul\":27165:27168   */\n      dup3\n        /* \"#utility.yul\":27076:27169   */\n      tag_452\n      jump\t// in\n    tag_684:\n        /* \"#utility.yul\":27194:27196   */\n      0x60\n        /* \"#utility.yul\":27189:27192   */\n      dup3\n        /* \"#utility.yul\":27185:27197   */\n      add\n        /* \"#utility.yul\":27178:27197   */\n      swap1\n      pop\n        /* \"#utility.yul\":26837:27203   */\n      swap2\n      swap1\n      pop\n      jump\t// out\n        /* \"#utility.yul\":27209:27628   */\n    tag_355:\n        /* \"#utility.yul\":27375:27379   */\n      0x00\n        /* \"#utility.yul\":27413:27415   */\n      0x20\n        /* \"#utility.yul\":27402:27411   */\n      dup3\n        /* \"#utility.yul\":27398:27416   */\n      add\n        /* \"#utility.yul\":27390:27416   */\n      swap1\n      pop\n        /* \"#utility.yul\":27462:27471   */\n      dup2\n        /* \"#utility.yul\":27456:27460   */\n      dup2\n        /* \"#utility.yul\":27452:27472   */\n      sub\n        /* \"#utility.yul\":27448:27449   */\n      0x00\n        /* \"#utility.yul\":27437:27446   */\n      dup4\n        /* \"#utility.yul\":27433:27450   */\n      add\n        /* \"#utility.yul\":27426:27473   */\n      mstore\n        /* \"#utility.yul\":27490:27621   */\n      tag_686\n        /* \"#utility.yul\":27616:27620   */\n      dup2\n        /* \"#utility.yul\":27490:27621   */\n      tag_453\n      jump\t// in\n    tag_686:\n        /* \"#utility.yul\":27482:27621   */\n      swap1\n      pop\n        /* \"#utility.yul\":27209:27628   */\n      swap2\n      swap1\n      pop\n      jump\t// out\n        /* \"#utility.yul\":27634:28076   */\n    tag_363:\n        /* \"#utility.yul\":27783:27787   */\n      0x00\n        /* \"#utility.yul\":27821:27823   */\n      0x60\n        /* \"#utility.yul\":27810:27819   */\n      dup3\n        /* \"#utility.yul\":27806:27824   */\n      add\n        /* \"#utility.yul\":27798:27824   */\n      swap1\n      pop\n        /* \"#utility.yul\":27834:27905   */\n      tag_688\n        /* \"#utility.yul\":27902:27903   */\n      0x00\n        /* \"#utility.yul\":27891:27900   */\n      dup4\n        /* \"#utility.yul\":27887:27904   */\n      add\n        /* \"#utility.yul\":27878:27884   */\n      dup7\n        /* \"#utility.yul\":27834:27905   */\n      tag_408\n      jump\t// in\n    tag_688:\n        /* \"#utility.yul\":27915:27987   */\n      tag_689\n        /* \"#utility.yul\":27983:27985   */\n      0x20\n        /* \"#utility.yul\":27972:27981   */\n      dup4\n        /* \"#utility.yul\":27968:27986   */\n      add\n        /* \"#utility.yul\":27959:27965   */\n      dup6\n        /* \"#utility.yul\":27915:27987   */\n      tag_408\n      jump\t// in\n    tag_689:\n        /* \"#utility.yul\":27997:28069   */\n      tag_690\n        /* \"#utility.yul\":28065:28067   */\n      0x40\n        /* \"#utility.yul\":28054:28063   */\n      dup4\n        /* \"#utility.yul\":28050:28068   */\n      add\n        /* \"#utility.yul\":28041:28047   */\n      dup5\n        /* \"#utility.yul\":27997:28069   */\n      tag_394\n      jump\t// in\n    tag_690:\n        /* \"#utility.yul\":27634:28076   */\n      swap5\n      swap4\n      pop\n      pop\n      pop\n      pop\n      jump\t// out\n        /* \"#utility.yul\":28082:28308   */\n    tag_454:\n        /* \"#utility.yul\":28222:28256   */\n      0x546f6b656e5374616b696e673a206661696c656420746f207472616e73666572\n        /* \"#utility.yul\":28218:28219   */\n      0x00\n        /* \"#utility.yul\":28210:28216   */\n      dup3\n        /* \"#utility.yul\":28206:28220   */\n      add\n        /* \"#utility.yul\":28199:28257   */\n      mstore\n        /* \"#utility.yul\":28291:28300   */\n      0x20746f6b656e7300000000000000000000000000000000000000000000000000\n        /* \"#utility.yul\":28286:28288   */\n      0x20\n        /* \"#utility.yul\":28278:28284   */\n      dup3\n        /* \"#utility.yul\":28274:28289   */\n      add\n        /* \"#utility.yul\":28267:28301   */\n      mstore\n        /* \"#utility.yul\":28082:28308   */\n      pop\n      jump\t// out\n        /* \"#utility.yul\":28314:28680   */\n    tag_455:\n        /* \"#utility.yul\":28456:28459   */\n      0x00\n        /* \"#utility.yul\":28477:28544   */\n      tag_693\n        /* \"#utility.yul\":28541:28543   */\n      0x27\n        /* \"#utility.yul\":28536:28539   */\n      dup4\n        /* \"#utility.yul\":28477:28544   */\n      tag_409\n      jump\t// in\n    tag_693:\n        /* \"#utility.yul\":28470:28544   */\n      swap2\n      pop\n        /* \"#utility.yul\":28553:28646   */\n      tag_694\n        /* \"#utility.yul\":28642:28645   */\n      dup3\n        /* \"#utility.yul\":28553:28646   */\n      tag_454\n      jump\t// in\n    tag_694:\n        /* \"#utility.yul\":28671:28673   */\n      0x40\n        /* \"#utility.yul\":28666:28669   */\n      dup3\n        /* \"#utility.yul\":28662:28674   */\n      add\n        /* \"#utility.yul\":28655:28674   */\n      swap1\n      pop\n        /* \"#utility.yul\":28314:28680   */\n      swap2\n      swap1\n      pop\n      jump\t// out\n        /* \"#utility.yul\":28686:29105   */\n    tag_369:\n        /* \"#utility.yul\":28852:28856   */\n      0x00\n        /* \"#utility.yul\":28890:28892   */\n      0x20\n        /* \"#utility.yul\":28879:28888   */\n      dup3\n        /* \"#utility.yul\":28875:28893   */\n      add\n        /* \"#utility.yul\":28867:28893   */\n      swap1\n      pop\n        /* \"#utility.yul\":28939:28948   */\n      dup2\n        /* \"#utility.yul\":28933:28937   */\n      dup2\n        /* \"#utility.yul\":28929:28949   */\n      sub\n        /* \"#utility.yul\":28925:28926   */\n      0x00\n        /* \"#utility.yul\":28914:28923   */\n      dup4\n        /* \"#utility.yul\":28910:28927   */\n      add\n        /* \"#utility.yul\":28903:28950   */\n      mstore\n        /* \"#utility.yul\":28967:29098   */\n      tag_696\n        /* \"#utility.yul\":29093:29097   */\n      dup2\n        /* \"#utility.yul\":28967:29098   */\n      tag_455\n      jump\t// in\n    tag_696:\n        /* \"#utility.yul\":28959:29098   */\n      swap1\n      pop\n        /* \"#utility.yul\":28686:29105   */\n      swap2\n      swap1\n      pop\n      jump\t// out\n        /* \"#utility.yul\":29111:29341   */\n    tag_456:\n        /* \"#utility.yul\":29251:29285   */\n      0x496e697469616c697a61626c653a20636f6e7472616374206973206e6f742069\n        /* \"#utility.yul\":29247:29248   */\n      0x00\n        /* \"#utility.yul\":29239:29245   */\n      dup3\n        /* \"#utility.yul\":29235:29249   */\n      add\n        /* \"#utility.yul\":29228:29286   */\n      mstore\n        /* \"#utility.yul\":29320:29333   */\n      0x6e697469616c697a696e67000000000000000000000000000000000000000000\n        /* \"#utility.yul\":29315:29317   */\n      0x20\n        /* \"#utility.yul\":29307:29313   */\n      dup3\n        /* \"#utility.yul\":29303:29318   */\n      add\n        /* \"#utility.yul\":29296:29334   */\n      mstore\n        /* \"#utility.yul\":29111:29341   */\n      pop\n      jump\t// out\n        /* \"#utility.yul\":29347:29713   */\n    tag_457:\n        /* \"#utility.yul\":29489:29492   */\n      0x00\n        /* \"#utility.yul\":29510:29577   */\n      tag_699\n        /* \"#utility.yul\":29574:29576   */\n      0x2b\n        /* \"#utility.yul\":29569:29572   */\n      dup4\n        /* \"#utility.yul\":29510:29577   */\n      tag_409\n      jump\t// in\n    tag_699:\n        /* \"#utility.yul\":29503:29577   */\n      swap2\n      pop\n        /* \"#utility.yul\":29586:29679   */\n      tag_700\n        /* \"#utility.yul\":29675:29678   */\n      dup3\n        /* \"#utility.yul\":29586:29679   */\n      tag_456\n      jump\t// in\n    tag_700:\n        /* \"#utility.yul\":29704:29706   */\n      0x40\n        /* \"#utility.yul\":29699:29702   */\n      dup3\n        /* \"#utility.yul\":29695:29707   */\n      add\n        /* \"#utility.yul\":29688:29707   */\n      swap1\n      pop\n        /* \"#utility.yul\":29347:29713   */\n      swap2\n      swap1\n      pop\n      jump\t// out\n        /* \"#utility.yul\":29719:30138   */\n    tag_376:\n        /* \"#utility.yul\":29885:29889   */\n      0x00\n        /* \"#utility.yul\":29923:29925   */\n      0x20\n        /* \"#utility.yul\":29912:29921   */\n      dup3\n        /* \"#utility.yul\":29908:29926   */\n      add\n        /* \"#utility.yul\":29900:29926   */\n      swap1\n      pop\n        /* \"#utility.yul\":29972:29981   */\n      dup2\n        /* \"#utility.yul\":29966:29970   */\n      dup2\n        /* \"#utility.yul\":29962:29982   */\n      sub\n        /* \"#utility.yul\":29958:29959   */\n      0x00\n        /* \"#utility.yul\":29947:29956   */\n      dup4\n        /* \"#utility.yul\":29943:29960   */\n      add\n        /* \"#utility.yul\":29936:29983   */\n      mstore\n        /* \"#utility.yul\":30000:30131   */\n      tag_702\n        /* \"#utility.yul\":30126:30130   */\n      dup2\n        /* \"#utility.yul\":30000:30131   */\n      tag_457\n      jump\t// in\n    tag_702:\n        /* \"#utility.yul\":29992:30131   */\n      swap1\n      pop\n        /* \"#utility.yul\":29719:30138   */\n      swap2\n      swap1\n      pop\n      jump\t// out\n        /* \"#utility.yul\":30144:30379   */\n    tag_458:\n        /* \"#utility.yul\":30284:30318   */\n      0x546f6b656e5374616b696e673a2061707920726174652073686f756c64206265\n        /* \"#utility.yul\":30280:30281   */\n      0x00\n        /* \"#utility.yul\":30272:30278   */\n      dup3\n        /* \"#utility.yul\":30268:30282   */\n      add\n        /* \"#utility.yul\":30261:30319   */\n      mstore\n        /* \"#utility.yul\":30353:30371   */\n      0x206c657373207468616e20313030303000000000000000000000000000000000\n        /* \"#utility.yul\":30348:30350   */\n      0x20\n        /* \"#utility.yul\":30340:30346   */\n      dup3\n        /* \"#utility.yul\":30336:30351   */\n      add\n        /* \"#utility.yul\":30329:30372   */\n      mstore\n        /* \"#utility.yul\":30144:30379   */\n      pop\n      jump\t// out\n        /* \"#utility.yul\":30385:30751   */\n    tag_459:\n        /* \"#utility.yul\":30527:30530   */\n      0x00\n        /* \"#utility.yul\":30548:30615   */\n      tag_705\n        /* \"#utility.yul\":30612:30614   */\n      0x30\n        /* \"#utility.yul\":30607:30610   */\n      dup4\n        /* \"#utility.yul\":30548:30615   */\n      tag_409\n      jump\t// in\n    tag_705:\n        /* \"#utility.yul\":30541:30615   */\n      swap2\n      pop\n        /* \"#utility.yul\":30624:30717   */\n      tag_706\n        /* \"#utility.yul\":30713:30716   */\n      dup3\n        /* \"#utility.yul\":30624:30717   */\n      tag_458\n      jump\t// in\n    tag_706:\n        /* \"#utility.yul\":30742:30744   */\n      0x40\n        /* \"#utility.yul\":30737:30740   */\n      dup3\n        /* \"#utility.yul\":30733:30745   */\n      add\n        /* \"#utility.yul\":30726:30745   */\n      swap1\n      pop\n        /* \"#utility.yul\":30385:30751   */\n      swap2\n      swap1\n      pop\n      jump\t// out\n        /* \"#utility.yul\":30757:31176   */\n    tag_380:\n        /* \"#utility.yul\":30923:30927   */\n      0x00\n        /* \"#utility.yul\":30961:30963   */\n      0x20\n        /* \"#utility.yul\":30950:30959   */\n      dup3\n        /* \"#utility.yul\":30946:30964   */\n      add\n        /* \"#utility.yul\":30938:30964   */\n      swap1\n      pop\n        /* \"#utility.yul\":31010:31019   */\n      dup2\n        /* \"#utility.yul\":31004:31008   */\n      dup2\n        /* \"#utility.yul\":31000:31020   */\n      sub\n        /* \"#utility.yul\":30996:30997   */\n      0x00\n        /* \"#utility.yul\":30985:30994   */\n      dup4\n        /* \"#utility.yul\":30981:30998   */\n      add\n        /* \"#utility.yul\":30974:31021   */\n      mstore\n        /* \"#utility.yul\":31038:31169   */\n      tag_708\n        /* \"#utility.yul\":31164:31168   */\n      dup2\n        /* \"#utility.yul\":31038:31169   */\n      tag_459\n      jump\t// in\n    tag_708:\n        /* \"#utility.yul\":31030:31169   */\n      swap1\n      pop\n        /* \"#utility.yul\":30757:31176   */\n      swap2\n      swap1\n      pop\n      jump\t// out\n        /* \"#utility.yul\":31182:31410   */\n    tag_460:\n        /* \"#utility.yul\":31322:31356   */\n      0x546f6b656e5374616b696e673a207374616b652064617973206d757374206265\n        /* \"#utility.yul\":31318:31319   */\n      0x00\n        /* \"#utility.yul\":31310:31316   */\n      dup3\n        /* \"#utility.yul\":31306:31320   */\n      add\n        /* \"#utility.yul\":31299:31357   */\n      mstore\n        /* \"#utility.yul\":31391:31402   */\n      0x206e6f6e2d7a65726f0000000000000000000000000000000000000000000000\n        /* \"#utility.yul\":31386:31388   */\n      0x20\n        /* \"#utility.yul\":31378:31384   */\n      dup3\n        /* \"#utility.yul\":31374:31389   */\n      add\n        /* \"#utility.yul\":31367:31403   */\n      mstore\n        /* \"#utility.yul\":31182:31410   */\n      pop\n      jump\t// out\n        /* \"#utility.yul\":31416:31782   */\n    tag_461:\n        /* \"#utility.yul\":31558:31561   */\n      0x00\n        /* \"#utility.yul\":31579:31646   */\n      tag_711\n        /* \"#utility.yul\":31643:31645   */\n      0x29\n        /* \"#utility.yul\":31638:31641   */\n      dup4\n        /* \"#utility.yul\":31579:31646   */\n      tag_409\n      jump\t// in\n    tag_711:\n        /* \"#utility.yul\":31572:31646   */\n      swap2\n      pop\n        /* \"#utility.yul\":31655:31748   */\n      tag_712\n        /* \"#utility.yul\":31744:31747   */\n      dup3\n        /* \"#utility.yul\":31655:31748   */\n      tag_460\n      jump\t// in\n    tag_712:\n        /* \"#utility.yul\":31773:31775   */\n      0x40\n        /* \"#utility.yul\":31768:31771   */\n      dup3\n        /* \"#utility.yul\":31764:31776   */\n      add\n        /* \"#utility.yul\":31757:31776   */\n      swap1\n      pop\n        /* \"#utility.yul\":31416:31782   */\n      swap2\n      swap1\n      pop\n      jump\t// out\n        /* \"#utility.yul\":31788:32207   */\n    tag_383:\n        /* \"#utility.yul\":31954:31958   */\n      0x00\n        /* \"#utility.yul\":31992:31994   */\n      0x20\n        /* \"#utility.yul\":31981:31990   */\n      dup3\n        /* \"#utility.yul\":31977:31995   */\n      add\n        /* \"#utility.yul\":31969:31995   */\n      swap1\n      pop\n        /* \"#utility.yul\":32041:32050   */\n      dup2\n        /* \"#utility.yul\":32035:32039   */\n      dup2\n        /* \"#utility.yul\":32031:32051   */\n      sub\n        /* \"#utility.yul\":32027:32028   */\n      0x00\n        /* \"#utility.yul\":32016:32025   */\n      dup4\n        /* \"#utility.yul\":32012:32029   */\n      add\n        /* \"#utility.yul\":32005:32052   */\n      mstore\n        /* \"#utility.yul\":32069:32200   */\n      tag_714\n        /* \"#utility.yul\":32195:32199   */\n      dup2\n        /* \"#utility.yul\":32069:32200   */\n      tag_461\n      jump\t// in\n    tag_714:\n        /* \"#utility.yul\":32061:32200   */\n      swap1\n      pop\n        /* \"#utility.yul\":31788:32207   */\n      swap2\n      swap1\n      pop\n      jump\t// out\n        /* \"#utility.yul\":32213:32447   */\n    tag_462:\n        /* \"#utility.yul\":32353:32387   */\n      0x546f6b656e5374616b696e673a20746f6b656e20616464726573732063616e6e\n        /* \"#utility.yul\":32349:32350   */\n      0x00\n        /* \"#utility.yul\":32341:32347   */\n      dup3\n        /* \"#utility.yul\":32337:32351   */\n      add\n        /* \"#utility.yul\":32330:32388   */\n      mstore\n        /* \"#utility.yul\":32422:32439   */\n      0x6f74206265203020616464726573730000000000000000000000000000000000\n        /* \"#utility.yul\":32417:32419   */\n      0x20\n        /* \"#utility.yul\":32409:32415   */\n      dup3\n        /* \"#utility.yul\":32405:32420   */\n      add\n        /* \"#utility.yul\":32398:32440   */\n      mstore\n        /* \"#utility.yul\":32213:32447   */\n      pop\n      jump\t// out\n        /* \"#utility.yul\":32453:32819   */\n    tag_463:\n        /* \"#utility.yul\":32595:32598   */\n      0x00\n        /* \"#utility.yul\":32616:32683   */\n      tag_717\n        /* \"#utility.yul\":32680:32682   */\n      0x2f\n        /* \"#utility.yul\":32675:32678   */\n      dup4\n        /* \"#utility.yul\":32616:32683   */\n      tag_409\n      jump\t// in\n    tag_717:\n        /* \"#utility.yul\":32609:32683   */\n      swap2\n      pop\n        /* \"#utility.yul\":32692:32785   */\n      tag_718\n        /* \"#utility.yul\":32781:32784   */\n      dup3\n        /* \"#utility.yul\":32692:32785   */\n      tag_462\n      jump\t// in\n    tag_718:\n        /* \"#utility.yul\":32810:32812   */\n      0x40\n        /* \"#utility.yul\":32805:32808   */\n      dup3\n        /* \"#utility.yul\":32801:32813   */\n      add\n        /* \"#utility.yul\":32794:32813   */\n      swap1\n      pop\n        /* \"#utility.yul\":32453:32819   */\n      swap2\n      swap1\n      pop\n      jump\t// out\n        /* \"#utility.yul\":32825:33244   */\n    tag_386:\n        /* \"#utility.yul\":32991:32995   */\n      0x00\n        /* \"#utility.yul\":33029:33031   */\n      0x20\n        /* \"#utility.yul\":33018:33027   */\n      dup3\n        /* \"#utility.yul\":33014:33032   */\n      add\n        /* \"#utility.yul\":33006:33032   */\n      swap1\n      pop\n        /* \"#utility.yul\":33078:33087   */\n      dup2\n        /* \"#utility.yul\":33072:33076   */\n      dup2\n        /* \"#utility.yul\":33068:33088   */\n      sub\n        /* \"#utility.yul\":33064:33065   */\n      0x00\n        /* \"#utility.yul\":33053:33062   */\n      dup4\n        /* \"#utility.yul\":33049:33066   */\n      add\n        /* \"#utility.yul\":33042:33089   */\n      mstore\n        /* \"#utility.yul\":33106:33237   */\n      tag_720\n        /* \"#utility.yul\":33232:33236   */\n      dup2\n        /* \"#utility.yul\":33106:33237   */\n      tag_463\n      jump\t// in\n    tag_720:\n        /* \"#utility.yul\":33098:33237   */\n      swap1\n      pop\n        /* \"#utility.yul\":32825:33244   */\n      swap2\n      swap1\n      pop\n      jump\t// out\n        /* \"#utility.yul\":33250:33488   */\n    tag_464:\n        /* \"#utility.yul\":33390:33424   */\n      0x546f6b656e5374616b696e673a2073746172742064617465206d757374206265\n        /* \"#utility.yul\":33386:33387   */\n      0x00\n        /* \"#utility.yul\":33378:33384   */\n      dup3\n        /* \"#utility.yul\":33374:33388   */\n      add\n        /* \"#utility.yul\":33367:33425   */\n      mstore\n        /* \"#utility.yul\":33459:33480   */\n      0x206c657373207468616e20656e64206461746500000000000000000000000000\n        /* \"#utility.yul\":33454:33456   */\n      0x20\n        /* \"#utility.yul\":33446:33452   */\n      dup3\n        /* \"#utility.yul\":33442:33457   */\n      add\n        /* \"#utility.yul\":33435:33481   */\n      mstore\n        /* \"#utility.yul\":33250:33488   */\n      pop\n      jump\t// out\n        /* \"#utility.yul\":33494:33860   */\n    tag_465:\n        /* \"#utility.yul\":33636:33639   */\n      0x00\n        /* \"#utility.yul\":33657:33724   */\n      tag_723\n        /* \"#utility.yul\":33721:33723   */\n      0x33\n        /* \"#utility.yul\":33716:33719   */\n      dup4\n        /* \"#utility.yul\":33657:33724   */\n      tag_409\n      jump\t// in\n    tag_723:\n        /* \"#utility.yul\":33650:33724   */\n      swap2\n      pop\n        /* \"#utility.yul\":33733:33826   */\n      tag_724\n        /* \"#utility.yul\":33822:33825   */\n      dup3\n        /* \"#utility.yul\":33733:33826   */\n      tag_464\n      jump\t// in\n    tag_724:\n        /* \"#utility.yul\":33851:33853   */\n      0x40\n        /* \"#utility.yul\":33846:33849   */\n      dup3\n        /* \"#utility.yul\":33842:33854   */\n      add\n        /* \"#utility.yul\":33835:33854   */\n      swap1\n      pop\n        /* \"#utility.yul\":33494:33860   */\n      swap2\n      swap1\n      pop\n      jump\t// out\n        /* \"#utility.yul\":33866:34285   */\n    tag_389:\n        /* \"#utility.yul\":34032:34036   */\n      0x00\n        /* \"#utility.yul\":34070:34072   */\n      0x20\n        /* \"#utility.yul\":34059:34068   */\n      dup3\n        /* \"#utility.yul\":34055:34073   */\n      add\n        /* \"#utility.yul\":34047:34073   */\n      swap1\n      pop\n        /* \"#utility.yul\":34119:34128   */\n      dup2\n        /* \"#utility.yul\":34113:34117   */\n      dup2\n        /* \"#utility.yul\":34109:34129   */\n      sub\n        /* \"#utility.yul\":34105:34106   */\n      0x00\n        /* \"#utility.yul\":34094:34103   */\n      dup4\n        /* \"#utility.yul\":34090:34107   */\n      add\n        /* \"#utility.yul\":34083:34130   */\n      mstore\n        /* \"#utility.yul\":34147:34278   */\n      tag_726\n        /* \"#utility.yul\":34273:34277   */\n      dup2\n        /* \"#utility.yul\":34147:34278   */\n      tag_465\n      jump\t// in\n    tag_726:\n        /* \"#utility.yul\":34139:34278   */\n      swap1\n      pop\n        /* \"#utility.yul\":33866:34285   */\n      swap2\n      swap1\n      pop\n      jump\t// out\n\n    auxdata: 0xa2646970667358221220bbe1c61e9a2da8766e66ba83e267e7b725046cb0bb07c7f74152041687c8072164736f6c63430008120033\n}\n",
				"bytecode": {
					"linkReferences": {},
					"object": "60806040523480156200001157600080fd5b5062000032620000266200003f60201b60201c565b6200004760201b60201c565b600180819055506200010b565b600033905090565b60008060009054906101000a900473ffffffffffffffffffffffffffffffffffffffff169050816000806101000a81548173ffffffffffffffffffffffffffffffffffffffff021916908373ffffffffffffffffffffffffffffffffffffffff1602179055508173ffffffffffffffffffffffffffffffffffffffff168173ffffffffffffffffffffffffffffffffffffffff167f8be0079c531659141344cd1fd0a4f28419497f9722a3daafe3b4186f6b6457e060405160405180910390a35050565b6132eb806200011b6000396000f3fe608060405234801561001057600080fd5b50600436106101d95760003560e01c8063845738cb11610104578063b88a802f116100a2578063d2cbf7ad11610071578063d2cbf7ad146104c0578063f0116b74146104de578063f18cce76146104fc578063f2fde38b1461051a576101d9565b8063b88a802f14610470578063bb8febc61461047a578063c5d62b1814610498578063cab9b8fb146104a2576101d9565b806390be10cc116100de57806390be10cc146103fa5780639be572f614610418578063a694fc3a14610436578063b3cd425414610452576101d9565b8063845738cb146103a25780638585d138146103be5780638da5cb5b146103dc576101d9565b806351d185981161017c5780636f77926b1161014b5780636f77926b1461033057806370607f5d14610360578063715018a61461037c5780637bb9769d14610386576101d9565b806351d18598146102a857806355f0fe42146102c65780635e39cd75146102e25780636351215914610300576101d9565b80632e1a7d4d116101b85780632e1a7d4d146102345780633e0935721461025057806342a239451461026c5780634d55b1781461028a576101d9565b80628e3252146101de5780630c4ca4a6146101fc5780632e17de7814610218575b600080fd5b6101e6610536565b6040516101f391906120c9565b60405180910390f35b61021660048036038101906102119190612115565b610540565b005b610232600480360381019061022d9190612115565b610552565b005b61024e60048036038101906102499190612115565b610afa565b005b61026a60048036038101906102659190612115565b610cab565b005b610274610cbd565b60405161028191906120c9565b60405180910390f35b610292610cc7565b60405161029f91906120c9565b60405180910390f35b6102b0610d2a565b6040516102bd91906120c9565b60405180910390f35b6102e060048036038101906102db9190612115565b610d34565b005b6102ea610d46565b6040516102f791906120c9565b60405180910390f35b61031a600480360381019061031591906121a0565b610d50565b60405161032791906121e8565b60405180910390f35b61034a600480360381019061034591906121a0565b610d9f565b604051610357919061227a565b60405180910390f35b61037a60048036038101906103759190612295565b610e2a565b005b610384610e94565b005b6103a0600480360381019061039b9190612115565b610ea8565b005b6103bc60048036038101906103b791906122d5565b610eba565b005b6103c6611011565b6040516103d391906120c9565b60405180910390f35b6103e4611016565b6040516103f191906123ae565b60405180910390f35b61040261103f565b60405161040f91906120c9565b60405180910390f35b6104206110ef565b60405161042d91906120c9565b60405180910390f35b610450600480360381019061044b9190612115565b6110f9565b005b61045a61115a565b60405161046791906120c9565b60405180910390f35b610478611160565b005b61048261153a565b60405161048f91906120c9565b60405180910390f35b6104a0611544565b005b6104aa611578565b6040516104b791906121e8565b60405180910390f35b6104c861158f565b6040516104d591906120c9565b60405180910390f35b6104e6611599565b6040516104f391906120c9565b60405180910390f35b6105046115a3565b60405161051191906120c9565b60405180910390f35b610534600480360381019061052f91906121a0565b6115ad565b005b6000600654905090565b610548611630565b8060048190555050565b600260015403610597576040517f08c379a000000000000000000000000000000000000000000000000000000000815260040161058e90612426565b60405180910390fd5b60026001819055508080600b60019054906101000a900473ffffffffffffffffffffffffffffffffffffffff1673ffffffffffffffffffffffffffffffffffffffff166370a08231306040518263ffffffff1660e01b81526004016105fc91906123ae565b602060405180830381865afa158015610619573d6000803e3d6000fd5b505050506040513d601f19601f8201168201806040525081019061063d919061245b565b101561067e576040517f08c379a0000000000000000000000000000000000000000000000000000000008152600401610675906124fa565b60405180910390fd5b6000339050600083036106c6576040517f08c379a00000000000000000000000000000000000000000000000000000000081526004016106bd9061258c565b60405180910390fd5b3073ffffffffffffffffffffffffffffffffffffffff166363512159826040518263ffffffff1660e01b81526004016106ff91906123ae565b602060405180830381865afa15801561071c573d6000803e3d6000fd5b505050506040513d601f19601f8201168201806040525081019061074091906125d8565b61077f576040517f08c379a000000000000000000000000000000000000000000000000000000000815260040161077690612651565b60405180910390fd5b82600d60008373ffffffffffffffffffffffffffffffffffffffff1673ffffffffffffffffffffffffffffffffffffffff168152602001908152602001600020600001541015610804576040517f08c379a00000000000000000000000000000000000000000000000000000000081526004016107fb906126e3565b60405180910390fd5b61080d816116ae565b6000600954600d60008473ffffffffffffffffffffffffffffffffffffffff1673ffffffffffffffffffffffffffffffffffffffff1681526020019081526020016000206002015461085f9190612732565b610867611763565b116108d857612710600a548561087d9190612766565b61088791906127d7565b90508173ffffffffffffffffffffffffffffffffffffffff167f547c747d3878b7637a9d040b5479a58c43382aac8e5aa9a30a053c1a0cffb4f2826040516108cf91906120c9565b60405180910390a25b600081856108e69190612808565b905084600d60008573ffffffffffffffffffffffffffffffffffffffff1673ffffffffffffffffffffffffffffffffffffffff168152602001908152602001600020600001600082825461093a9190612808565b9250508190555084600760008282546109539190612808565b925050819055506000600d60008573ffffffffffffffffffffffffffffffffffffffff1673ffffffffffffffffffffffffffffffffffffffff16815260200190815260200160002060000154036109bf576001600860008282546109b79190612808565b925050819055505b600b60019054906101000a900473ffffffffffffffffffffffffffffffffffffffff1673ffffffffffffffffffffffffffffffffffffffff1663a9059cbb84836040518363ffffffff1660e01b8152600401610a1c92919061283c565b6020604051808303816000875af1158015610a3b573d6000803e3d6000fd5b505050506040513d601f19601f82011682018060405250810190610a5f91906125d8565b610a9e576040517f08c379a0000000000000000000000000000000000000000000000000000000008152600401610a95906128b1565b60405180910390fd5b8273ffffffffffffffffffffffffffffffffffffffff167fb24546d975e2628748efc9aced80665e0fad66272033e5c0ea25fd3afac9979586604051610ae491906120c9565b60405180910390a2505050506001808190555050565b610b02611630565b600260015403610b47576040517f08c379a0000000000000000000000000000000000000000000000000000000008152600401610b3e90612426565b60405180910390fd5b6002600181905550803073ffffffffffffffffffffffffffffffffffffffff166390be10cc6040518163ffffffff1660e01b8152600401602060405180830381865afa158015610b9b573d6000803e3d6000fd5b505050506040513d601f19601f82011682018060405250810190610bbf919061245b565b1015610c00576040517f08c379a0000000000000000000000000000000000000000000000000000000008152600401610bf790612943565b60405180910390fd5b600b60019054906101000a900473ffffffffffffffffffffffffffffffffffffffff1673ffffffffffffffffffffffffffffffffffffffff1663a9059cbb33836040518363ffffffff1660e01b8152600401610c5d92919061283c565b6020604051808303816000875af1158015610c7c573d6000803e3d6000fd5b505050506040513d601f19601f82011682018060405250810190610ca091906125d8565b506001808190555050565b610cb3611630565b8060058190555050565b6000600354905090565b600080610cd33361176b565b50905080600d60003373ffffffffffffffffffffffffffffffffffffffff1673ffffffffffffffffffffffffffffffffffffffff16815260200190815260200160002060010154610d249190612732565b91505090565b6000600754905090565b610d3c611630565b8060038190555050565b6000600a54905090565b600080600d60008473ffffffffffffffffffffffffffffffffffffffff1673ffffffffffffffffffffffffffffffffffffffff1681526020019081526020016000206000015414159050919050565b610da7612081565b600d60008373ffffffffffffffffffffffffffffffffffffffff1673ffffffffffffffffffffffffffffffffffffffff1681526020019081526020016000206040518060a0016040529081600082015481526020016001820154815260200160028201548152602001600382015481526020016004820154815250509050919050565b610e32611630565b600260015403610e77576040517f08c379a0000000000000000000000000000000000000000000000000000000008152600401610e6e90612426565b60405180910390fd5b6002600181905550610e89828261190f565b600180819055505050565b610e9c611630565b610ea66000611d74565b565b610eb0611630565b80600a8190555050565b6000600260019054906101000a900460ff16159050808015610eee57506001600260009054906101000a900460ff1660ff16105b80610f1d5750610efd30611e38565b158015610f1c57506001600260009054906101000a900460ff1660ff16145b5b610f5c576040517f08c379a0000000000000000000000000000000000000000000000000000000008152600401610f53906129d5565b60405180910390fd5b6001600260006101000a81548160ff021916908360ff1602179055508015610f9a576001600260016101000a81548160ff0219169083151502179055505b610fab8a8a8a8a8a8a8a8a8a611e5b565b8015611005576000600260016101000a81548160ff0219169083151502179055507f7f26b83ff96e1f2b6a682f133852f6798a09c465da95921460cefb38474024986001604051610ffc9190612a47565b60405180910390a15b50505050505050505050565b600a81565b60008060009054906101000a900473ffffffffffffffffffffffffffffffffffffffff16905090565b6000600754600b60019054906101000a900473ffffffffffffffffffffffffffffffffffffffff1673ffffffffffffffffffffffffffffffffffffffff166370a08231306040518263ffffffff1660e01b815260040161109f91906123ae565b602060405180830381865afa1580156110bc573d6000803e3d6000fd5b505050506040513d601f19601f820116820180604052508101906110e0919061245b565b6110ea9190612808565b905090565b6000600854905090565b60026001540361113e576040517f08c379a000000000000000000000000000000000000000000000000000000000815260040161113590612426565b60405180910390fd5b6002600181905550611150813361190f565b6001808190555050565b61271081565b6002600154036111a5576040517f08c379a000000000000000000000000000000000000000000000000000000000815260040161119c90612426565b60405180910390fd5b6002600181905550600d60003373ffffffffffffffffffffffffffffffffffffffff1673ffffffffffffffffffffffffffffffffffffffff1681526020019081526020016000206001015480600b60019054906101000a900473ffffffffffffffffffffffffffffffffffffffff1673ffffffffffffffffffffffffffffffffffffffff166370a08231306040518263ffffffff1660e01b815260040161124c91906123ae565b602060405180830381865afa158015611269573d6000803e3d6000fd5b505050506040513d601f19601f8201168201806040525081019061128d919061245b565b10156112ce576040517f08c379a00000000000000000000000000000000000000000000000000000000081526004016112c5906124fa565b60405180910390fd5b6112d7336116ae565b6000600d60003373ffffffffffffffffffffffffffffffffffffffff1673ffffffffffffffffffffffffffffffffffffffff16815260200190815260200160002060010154905060008111611361576040517f08c379a000000000000000000000000000000000000000000000000000000000815260040161135890612aae565b60405180910390fd5b600b60019054906101000a900473ffffffffffffffffffffffffffffffffffffffff1673ffffffffffffffffffffffffffffffffffffffff1663a9059cbb33836040518363ffffffff1660e01b81526004016113be92919061283c565b6020604051808303816000875af11580156113dd573d6000803e3d6000fd5b505050506040513d601f19601f8201168201806040525081019061140191906125d8565b611440576040517f08c379a0000000000000000000000000000000000000000000000000000000008152600401611437906128b1565b60405180910390fd5b6000600d60003373ffffffffffffffffffffffffffffffffffffffff1673ffffffffffffffffffffffffffffffffffffffff1681526020019081526020016000206001018190555080600d60003373ffffffffffffffffffffffffffffffffffffffff1673ffffffffffffffffffffffffffffffffffffffff16815260200190815260200160002060040160008282546114da9190612732565b925050819055503373ffffffffffffffffffffffffffffffffffffffff167fba8de60c3403ec381d1d484652ea1980e3c3e56359195c92525bff4ce47ad98e8260405161152791906120c9565b60405180910390a2505060018081905550565b6000600454905090565b61154c611630565b600b60009054906101000a900460ff1615600b60006101000a81548160ff021916908315150217905550565b6000600b60009054906101000a900460ff16905090565b6000600c54905090565b6000600554905090565b6000600954905090565b6115b5611630565b600073ffffffffffffffffffffffffffffffffffffffff168173ffffffffffffffffffffffffffffffffffffffff1603611624576040517f08c379a000000000000000000000000000000000000000000000000000000000815260040161161b90612b40565b60405180910390fd5b61162d81611d74565b50565b611638612079565b73ffffffffffffffffffffffffffffffffffffffff16611656611016565b73ffffffffffffffffffffffffffffffffffffffff16146116ac576040517f08c379a00000000000000000000000000000000000000000000000000000000081526004016116a390612bac565b60405180910390fd5b565b6000806116ba8361176b565b9150915081600d60008573ffffffffffffffffffffffffffffffffffffffff1673ffffffffffffffffffffffffffffffffffffffff16815260200190815260200160002060010160008282546117109190612732565b9250508190555080600d60008573ffffffffffffffffffffffffffffffffffffffff1673ffffffffffffffffffffffffffffffffffffffff16815260200190815260200160002060030181905550505050565b600042905090565b600080600080600d60008673ffffffffffffffffffffffffffffffffffffffff1673ffffffffffffffffffffffffffffffffffffffff16815260200190815260200160002060030154905060006117c0611763565b9050600954600d60008873ffffffffffffffffffffffffffffffffffffffff1673ffffffffffffffffffffffffffffffffffffffff168152602001908152602001600020600201546118129190612732565b81111561186c57600954600d60008873ffffffffffffffffffffffffffffffffffffffff1673ffffffffffffffffffffffffffffffffffffffff168152602001908152602001600020600201546118699190612732565b90505b6000828261187a9190612808565b90506127106301e13380600c54600d60008b73ffffffffffffffffffffffffffffffffffffffff1673ffffffffffffffffffffffffffffffffffffffff16815260200190815260200160002060000154846118d59190612766565b6118df9190612766565b6118e991906127d7565b6118f391906127d7565b846118fe9190612732565b935083829550955050505050915091565b600b60009054906101000a900460ff161561195f576040517f08c379a000000000000000000000000000000000000000000000000000000000815260040161195690612c18565b60405180910390fd5b6000611969611763565b905060065481116119af576040517f08c379a00000000000000000000000000000000000000000000000000000000081526004016119a690612caa565b60405180910390fd5b60055481106119f3576040517f08c379a00000000000000000000000000000000000000000000000000000000081526004016119ea90612d16565b60405180910390fd5b60045483600754611a049190612732565b1115611a45576040517f08c379a0000000000000000000000000000000000000000000000000000000008152600401611a3c90612da8565b60405180910390fd5b60008311611a88576040517f08c379a0000000000000000000000000000000000000000000000000000000008152600401611a7f90612e3a565b60405180910390fd5b600354831015611acd576040517f08c379a0000000000000000000000000000000000000000000000000000000008152600401611ac490612ef2565b60405180910390fd5b6000600d60008473ffffffffffffffffffffffffffffffffffffffff1673ffffffffffffffffffffffffffffffffffffffff1681526020019081526020016000206000015414611b2557611b20826116ae565b611b87565b80600d60008473ffffffffffffffffffffffffffffffffffffffff1673ffffffffffffffffffffffffffffffffffffffff16815260200190815260200160002060030181905550600160086000828254611b7f9190612732565b925050819055505b82600d60008473ffffffffffffffffffffffffffffffffffffffff1673ffffffffffffffffffffffffffffffffffffffff1681526020019081526020016000206000016000828254611bd99190612732565b9250508190555080600d60008473ffffffffffffffffffffffffffffffffffffffff1673ffffffffffffffffffffffffffffffffffffffff168152602001908152602001600020600201819055508260076000828254611c399190612732565b92505081905550600b60019054906101000a900473ffffffffffffffffffffffffffffffffffffffff1673ffffffffffffffffffffffffffffffffffffffff166323b872dd3330866040518463ffffffff1660e01b8152600401611c9f93929190612f12565b6020604051808303816000875af1158015611cbe573d6000803e3d6000fd5b505050506040513d601f19601f82011682018060405250810190611ce291906125d8565b611d21576040517f08c379a0000000000000000000000000000000000000000000000000000000008152600401611d1890612fbb565b60405180910390fd5b8173ffffffffffffffffffffffffffffffffffffffff167febedb8b3c678666e7f36970bc8f57abf6d8fa2e828c0da91ea5b75bf68ed101a84604051611d6791906120c9565b60405180910390a2505050565b60008060009054906101000a900473ffffffffffffffffffffffffffffffffffffffff169050816000806101000a81548173ffffffffffffffffffffffffffffffffffffffff021916908373ffffffffffffffffffffffffffffffffffffffff1602179055508173ffffffffffffffffffffffffffffffffffffffff168173ffffffffffffffffffffffffffffffffffffffff167f8be0079c531659141344cd1fd0a4f28419497f9722a3daafe3b4186f6b6457e060405160405180910390a35050565b6000808273ffffffffffffffffffffffffffffffffffffffff163b119050919050565b600260019054906101000a900460ff16611eaa576040517f08c379a0000000000000000000000000000000000000000000000000000000008152600401611ea19061304d565b60405180910390fd5b612710600c541115611ef1576040517f08c379a0000000000000000000000000000000000000000000000000000000008152600401611ee8906130df565b60405180910390fd5b60008211611f34576040517f08c379a0000000000000000000000000000000000000000000000000000000008152600401611f2b90613171565b60405180910390fd5b600073ffffffffffffffffffffffffffffffffffffffff168873ffffffffffffffffffffffffffffffffffffffff1603611fa3576040517f08c379a0000000000000000000000000000000000000000000000000000000008152600401611f9a90613203565b60405180910390fd5b828410611fe5576040517f08c379a0000000000000000000000000000000000000000000000000000000008152600401611fdc90613295565b60405180910390fd5b611fee89611d74565b87600b60016101000a81548173ffffffffffffffffffffffffffffffffffffffff021916908373ffffffffffffffffffffffffffffffffffffffff16021790555086600c819055508560038190555084600481905550836006819055508260058190555062015180826120619190612766565b60098190555080600a81905550505050505050505050565b600033905090565b6040518060a0016040528060008152602001600081526020016000815260200160008152602001600081525090565b6000819050919050565b6120c3816120b0565b82525050565b60006020820190506120de60008301846120ba565b92915050565b600080fd5b6120f2816120b0565b81146120fd57600080fd5b50565b60008135905061210f816120e9565b92915050565b60006020828403121561212b5761212a6120e4565b5b600061213984828501612100565b91505092915050565b600073ffffffffffffffffffffffffffffffffffffffff82169050919050565b600061216d82612142565b9050919050565b61217d81612162565b811461218857600080fd5b50565b60008135905061219a81612174565b92915050565b6000602082840312156121b6576121b56120e4565b5b60006121c48482850161218b565b91505092915050565b60008115159050919050565b6121e2816121cd565b82525050565b60006020820190506121fd60008301846121d9565b92915050565b61220c816120b0565b82525050565b60a0820160008201516122286000850182612203565b50602082015161223b6020850182612203565b50604082015161224e6040850182612203565b5060608201516122616060850182612203565b5060808201516122746080850182612203565b50505050565b600060a08201905061228f6000830184612212565b92915050565b600080604083850312156122ac576122ab6120e4565b5b60006122ba85828601612100565b92505060206122cb8582860161218b565b9150509250929050565b60008060008060008060008060006101208a8c0312156122f8576122f76120e4565b5b60006123068c828d0161218b565b99505060206123178c828d0161218b565b98505060406123288c828d01612100565b97505060606123398c828d01612100565b965050608061234a8c828d01612100565b95505060a061235b8c828d01612100565b94505060c061236c8c828d01612100565b93505060e061237d8c828d01612100565b92505061010061238f8c828d01612100565b9150509295985092959850929598565b6123a881612162565b82525050565b60006020820190506123c3600083018461239f565b92915050565b600082825260208201905092915050565b7f5265656e7472616e637947756172643a207265656e7472616e742063616c6c00600082015250565b6000612410601f836123c9565b915061241b826123da565b602082019050919050565b6000602082019050818103600083015261243f81612403565b9050919050565b600081519050612455816120e9565b92915050565b600060208284031215612471576124706120e4565b5b600061247f84828501612446565b91505092915050565b7f546f6b656e5374616b696e673a20696e73756666696369656e742066756e647360008201527f20696e2074686520747265617375727900000000000000000000000000000000602082015250565b60006124e46030836123c9565b91506124ef82612488565b604082019050919050565b60006020820190508181036000830152612513816124d7565b9050919050565b7f546f6b656e5374616b696e673a20616d6f756e742073686f756c64206265206e60008201527f6f6e2d7a65726f00000000000000000000000000000000000000000000000000602082015250565b60006125766027836123c9565b91506125818261251a565b604082019050919050565b600060208201905081810360008301526125a581612569565b9050919050565b6125b5816121cd565b81146125c057600080fd5b50565b6000815190506125d2816125ac565b92915050565b6000602082840312156125ee576125ed6120e4565b5b60006125fc848285016125c3565b91505092915050565b7f546f6b656e5374616b696e673a206e6f742061207374616b65686f6c64657200600082015250565b600061263b601f836123c9565b915061264682612605565b602082019050919050565b6000602082019050818103600083015261266a8161262e565b9050919050565b7f546f6b656e5374616b696e673a206e6f7420656e6f756768207374616b65207460008201527f6f20756e7374616b650000000000000000000000000000000000000000000000602082015250565b60006126cd6029836123c9565b91506126d882612671565b604082019050919050565b600060208201905081810360008301526126fc816126c0565b9050919050565b7f4e487b7100000000000000000000000000000000000000000000000000000000600052601160045260246000fd5b600061273d826120b0565b9150612748836120b0565b92508282019050808211156127605761275f612703565b5b92915050565b6000612771826120b0565b915061277c836120b0565b925082820261278a816120b0565b915082820484148315176127a1576127a0612703565b5b5092915050565b7f4e487b7100000000000000000000000000000000000000000000000000000000600052601260045260246000fd5b60006127e2826120b0565b91506127ed836120b0565b9250826127fd576127fc6127a8565b5b828204905092915050565b6000612813826120b0565b915061281e836120b0565b925082820390508181111561283657612835612703565b5b92915050565b6000604082019050612851600083018561239f565b61285e60208301846120ba565b9392505050565b7f546f6b656e5374616b696e673a206661696c656420746f207472616e73666572600082015250565b600061289b6020836123c9565b91506128a682612865565b602082019050919050565b600060208201905081810360008301526128ca8161288e565b9050919050565b7f546f6b656e5374616b696e673a206e6f7420656e6f756768207769746864726160008201527f7761626c6520746f6b656e730000000000000000000000000000000000000000602082015250565b600061292d602c836123c9565b9150612938826128d1565b604082019050919050565b6000602082019050818103600083015261295c81612920565b9050919050565b7f496e697469616c697a61626c653a20636f6e747261637420697320616c72656160008201527f647920696e697469616c697a6564000000000000000000000000000000000000602082015250565b60006129bf602e836123c9565b91506129ca82612963565b604082019050919050565b600060208201905081810360008301526129ee816129b2565b9050919050565b6000819050919050565b600060ff82169050919050565b6000819050919050565b6000612a31612a2c612a27846129f5565b612a0c565b6129ff565b9050919050565b612a4181612a16565b82525050565b6000602082019050612a5c6000830184612a38565b92915050565b7f546f6b656e5374616b696e673a206e6f2072657761726420746f20636c61696d600082015250565b6000612a986020836123c9565b9150612aa382612a62565b602082019050919050565b60006020820190508181036000830152612ac781612a8b565b9050919050565b7f4f776e61626c653a206e6577206f776e657220697320746865207a65726f206160008201527f6464726573730000000000000000000000000000000000000000000000000000602082015250565b6000612b2a6026836123c9565b9150612b3582612ace565b604082019050919050565b60006020820190508181036000830152612b5981612b1d565b9050919050565b7f4f776e61626c653a2063616c6c6572206973206e6f7420746865206f776e6572600082015250565b6000612b966020836123c9565b9150612ba182612b60565b602082019050919050565b60006020820190508181036000830152612bc581612b89565b9050919050565b7f546f6b656e5374616b696e673a207374616b696e672069732070617573656400600082015250565b6000612c02601f836123c9565b9150612c0d82612bcc565b602082019050919050565b60006020820190508181036000830152612c3181612bf5565b9050919050565b7f546f6b656e5374616b696e673a207374616b696e67206e6f742073746172746560008201527f6420796574000000000000000000000000000000000000000000000000000000602082015250565b6000612c946025836123c9565b9150612c9f82612c38565b604082019050919050565b60006020820190508181036000830152612cc381612c87565b9050919050565b7f546f6b656e5374616b696e673a207374616b696e6720656e6465640000000000600082015250565b6000612d00601b836123c9565b9150612d0b82612cca565b602082019050919050565b60006020820190508181036000830152612d2f81612cf3565b9050919050565b7f546f6b656e5374616b696e673a206d6178207374616b696e6720746f6b656e2060008201527f6c696d6974207265616368656400000000000000000000000000000000000000602082015250565b6000612d92602d836123c9565b9150612d9d82612d36565b604082019050919050565b60006020820190508181036000830152612dc181612d85565b9050919050565b7f546f6b656e5374616b696e673a207374616b6520616d6f756e74206d7573742060008201527f6265206e6f6e2d7a65726f000000000000000000000000000000000000000000602082015250565b6000612e24602b836123c9565b9150612e2f82612dc8565b604082019050919050565b60006020820190508181036000830152612e5381612e17565b9050919050565b7f546f6b656e5374616b696e673a207374616b6520616d6f756e74206d7573742060008201527f67726561746572207468616e206d696e696d756d20616d6f756e7420616c6c6f60208201527f7765640000000000000000000000000000000000000000000000000000000000604082015250565b6000612edc6043836123c9565b9150612ee782612e5a565b606082019050919050565b60006020820190508181036000830152612f0b81612ecf565b9050919050565b6000606082019050612f27600083018661239f565b612f34602083018561239f565b612f4160408301846120ba565b949350505050565b7f546f6b656e5374616b696e673a206661696c656420746f207472616e7366657260008201527f20746f6b656e7300000000000000000000000000000000000000000000000000602082015250565b6000612fa56027836123c9565b9150612fb082612f49565b604082019050919050565b60006020820190508181036000830152612fd481612f98565b9050919050565b7f496e697469616c697a61626c653a20636f6e7472616374206973206e6f74206960008201527f6e697469616c697a696e67000000000000000000000000000000000000000000602082015250565b6000613037602b836123c9565b915061304282612fdb565b604082019050919050565b600060208201905081810360008301526130668161302a565b9050919050565b7f546f6b656e5374616b696e673a2061707920726174652073686f756c6420626560008201527f206c657373207468616e20313030303000000000000000000000000000000000602082015250565b60006130c96030836123c9565b91506130d48261306d565b604082019050919050565b600060208201905081810360008301526130f8816130bc565b9050919050565b7f546f6b656e5374616b696e673a207374616b652064617973206d75737420626560008201527f206e6f6e2d7a65726f0000000000000000000000000000000000000000000000602082015250565b600061315b6029836123c9565b9150613166826130ff565b604082019050919050565b6000602082019050818103600083015261318a8161314e565b9050919050565b7f546f6b656e5374616b696e673a20746f6b656e20616464726573732063616e6e60008201527f6f74206265203020616464726573730000000000000000000000000000000000602082015250565b60006131ed602f836123c9565b91506131f882613191565b604082019050919050565b6000602082019050818103600083015261321c816131e0565b9050919050565b7f546f6b656e5374616b696e673a2073746172742064617465206d75737420626560008201527f206c657373207468616e20656e64206461746500000000000000000000000000602082015250565b600061327f6033836123c9565b915061328a82613223565b604082019050919050565b600060208201905081810360008301526132ae81613272565b905091905056fea2646970667358221220bbe1c61e9a2da8766e66ba83e267e7b725046cb0bb07c7f74152041687c8072164736f6c63430008120033",
					"opcodes": "PUSH1 0x80 PUSH1 0x40 MSTORE CALLVALUE DUP1 ISZERO PUSH3 0x11 JUMPI PUSH1 0x0 DUP1 REVERT JUMPDEST POP PUSH3 0x32 PUSH3 0x26 PUSH3 0x3F PUSH1 0x20 SHL PUSH1 0x20 SHR JUMP JUMPDEST PUSH3 0x47 PUSH1 0x20 SHL PUSH1 0x20 SHR JUMP JUMPDEST PUSH1 0x1 DUP1 DUP2 SWAP1 SSTORE POP PUSH3 0x10B JUMP JUMPDEST PUSH1 0x0 CALLER SWAP1 POP SWAP1 JUMP JUMPDEST PUSH1 0x0 DUP1 PUSH1 0x0 SWAP1 SLOAD SWAP1 PUSH2 0x100 EXP SWAP1 DIV PUSH20 0xFFFFFFFFFFFFFFFFFFFFFFFFFFFFFFFFFFFFFFFF AND SWAP1 POP DUP2 PUSH1 0x0 DUP1 PUSH2 0x100 EXP DUP2 SLOAD DUP2 PUSH20 0xFFFFFFFFFFFFFFFFFFFFFFFFFFFFFFFFFFFFFFFF MUL NOT AND SWAP1 DUP4 PUSH20 0xFFFFFFFFFFFFFFFFFFFFFFFFFFFFFFFFFFFFFFFF AND MUL OR SWAP1 SSTORE POP DUP2 PUSH20 0xFFFFFFFFFFFFFFFFFFFFFFFFFFFFFFFFFFFFFFFF AND DUP2 PUSH20 0xFFFFFFFFFFFFFFFFFFFFFFFFFFFFFFFFFFFFFFFF AND PUSH32 0x8BE0079C531659141344CD1FD0A4F28419497F9722A3DAAFE3B4186F6B6457E0 PUSH1 0x40 MLOAD PUSH1 0x40 MLOAD DUP1 SWAP2 SUB SWAP1 LOG3 POP POP JUMP JUMPDEST PUSH2 0x32EB DUP1 PUSH3 0x11B PUSH1 0x0 CODECOPY PUSH1 0x0 RETURN INVALID PUSH1 0x80 PUSH1 0x40 MSTORE CALLVALUE DUP1 ISZERO PUSH2 0x10 JUMPI PUSH1 0x0 DUP1 REVERT JUMPDEST POP PUSH1 0x4 CALLDATASIZE LT PUSH2 0x1D9 JUMPI PUSH1 0x0 CALLDATALOAD PUSH1 0xE0 SHR DUP1 PUSH4 0x845738CB GT PUSH2 0x104 JUMPI DUP1 PUSH4 0xB88A802F GT PUSH2 0xA2 JUMPI DUP1 PUSH4 0xD2CBF7AD GT PUSH2 0x71 JUMPI DUP1 PUSH4 0xD2CBF7AD EQ PUSH2 0x4C0 JUMPI DUP1 PUSH4 0xF0116B74 EQ PUSH2 0x4DE JUMPI DUP1 PUSH4 0xF18CCE76 EQ PUSH2 0x4FC JUMPI DUP1 PUSH4 0xF2FDE38B EQ PUSH2 0x51A JUMPI PUSH2 0x1D9 JUMP JUMPDEST DUP1 PUSH4 0xB88A802F EQ PUSH2 0x470 JUMPI DUP1 PUSH4 0xBB8FEBC6 EQ PUSH2 0x47A JUMPI DUP1 PUSH4 0xC5D62B18 EQ PUSH2 0x498 JUMPI DUP1 PUSH4 0xCAB9B8FB EQ PUSH2 0x4A2 JUMPI PUSH2 0x1D9 JUMP JUMPDEST DUP1 PUSH4 0x90BE10CC GT PUSH2 0xDE JUMPI DUP1 PUSH4 0x90BE10CC EQ PUSH2 0x3FA JUMPI DUP1 PUSH4 0x9BE572F6 EQ PUSH2 0x418 JUMPI DUP1 PUSH4 0xA694FC3A EQ PUSH2 0x436 JUMPI DUP1 PUSH4 0xB3CD4254 EQ PUSH2 0x452 JUMPI PUSH2 0x1D9 JUMP JUMPDEST DUP1 PUSH4 0x845738CB EQ PUSH2 0x3A2 JUMPI DUP1 PUSH4 0x8585D138 EQ PUSH2 0x3BE JUMPI DUP1 PUSH4 0x8DA5CB5B EQ PUSH2 0x3DC JUMPI PUSH2 0x1D9 JUMP JUMPDEST DUP1 PUSH4 0x51D18598 GT PUSH2 0x17C JUMPI DUP1 PUSH4 0x6F77926B GT PUSH2 0x14B JUMPI DUP1 PUSH4 0x6F77926B EQ PUSH2 0x330 JUMPI DUP1 PUSH4 0x70607F5D EQ PUSH2 0x360 JUMPI DUP1 PUSH4 0x715018A6 EQ PUSH2 0x37C JUMPI DUP1 PUSH4 0x7BB9769D EQ PUSH2 0x386 JUMPI PUSH2 0x1D9 JUMP JUMPDEST DUP1 PUSH4 0x51D18598 EQ PUSH2 0x2A8 JUMPI DUP1 PUSH4 0x55F0FE42 EQ PUSH2 0x2C6 JUMPI DUP1 PUSH4 0x5E39CD75 EQ PUSH2 0x2E2 JUMPI DUP1 PUSH4 0x63512159 EQ PUSH2 0x300 JUMPI PUSH2 0x1D9 JUMP JUMPDEST DUP1 PUSH4 0x2E1A7D4D GT PUSH2 0x1B8 JUMPI DUP1 PUSH4 0x2E1A7D4D EQ PUSH2 0x234 JUMPI DUP1 PUSH4 0x3E093572 EQ PUSH2 0x250 JUMPI DUP1 PUSH4 0x42A23945 EQ PUSH2 0x26C JUMPI DUP1 PUSH4 0x4D55B178 EQ PUSH2 0x28A JUMPI PUSH2 0x1D9 JUMP JUMPDEST DUP1 PUSH3 0x8E3252 EQ PUSH2 0x1DE JUMPI DUP1 PUSH4 0xC4CA4A6 EQ PUSH2 0x1FC JUMPI DUP1 PUSH4 0x2E17DE78 EQ PUSH2 0x218 JUMPI JUMPDEST PUSH1 0x0 DUP1 REVERT JUMPDEST PUSH2 0x1E6 PUSH2 0x536 JUMP JUMPDEST PUSH1 0x40 MLOAD PUSH2 0x1F3 SWAP2 SWAP1 PUSH2 0x20C9 JUMP JUMPDEST PUSH1 0x40 MLOAD DUP1 SWAP2 SUB SWAP1 RETURN JUMPDEST PUSH2 0x216 PUSH1 0x4 DUP1 CALLDATASIZE SUB DUP2 ADD SWAP1 PUSH2 0x211 SWAP2 SWAP1 PUSH2 0x2115 JUMP JUMPDEST PUSH2 0x540 JUMP JUMPDEST STOP JUMPDEST PUSH2 0x232 PUSH1 0x4 DUP1 CALLDATASIZE SUB DUP2 ADD SWAP1 PUSH2 0x22D SWAP2 SWAP1 PUSH2 0x2115 JUMP JUMPDEST PUSH2 0x552 JUMP JUMPDEST STOP JUMPDEST PUSH2 0x24E PUSH1 0x4 DUP1 CALLDATASIZE SUB DUP2 ADD SWAP1 PUSH2 0x249 SWAP2 SWAP1 PUSH2 0x2115 JUMP JUMPDEST PUSH2 0xAFA JUMP JUMPDEST STOP JUMPDEST PUSH2 0x26A PUSH1 0x4 DUP1 CALLDATASIZE SUB DUP2 ADD SWAP1 PUSH2 0x265 SWAP2 SWAP1 PUSH2 0x2115 JUMP JUMPDEST PUSH2 0xCAB JUMP JUMPDEST STOP JUMPDEST PUSH2 0x274 PUSH2 0xCBD JUMP JUMPDEST PUSH1 0x40 MLOAD PUSH2 0x281 SWAP2 SWAP1 PUSH2 0x20C9 JUMP JUMPDEST PUSH1 0x40 MLOAD DUP1 SWAP2 SUB SWAP1 RETURN JUMPDEST PUSH2 0x292 PUSH2 0xCC7 JUMP JUMPDEST PUSH1 0x40 MLOAD PUSH2 0x29F SWAP2 SWAP1 PUSH2 0x20C9 JUMP JUMPDEST PUSH1 0x40 MLOAD DUP1 SWAP2 SUB SWAP1 RETURN JUMPDEST PUSH2 0x2B0 PUSH2 0xD2A JUMP JUMPDEST PUSH1 0x40 MLOAD PUSH2 0x2BD SWAP2 SWAP1 PUSH2 0x20C9 JUMP JUMPDEST PUSH1 0x40 MLOAD DUP1 SWAP2 SUB SWAP1 RETURN JUMPDEST PUSH2 0x2E0 PUSH1 0x4 DUP1 CALLDATASIZE SUB DUP2 ADD SWAP1 PUSH2 0x2DB SWAP2 SWAP1 PUSH2 0x2115 JUMP JUMPDEST PUSH2 0xD34 JUMP JUMPDEST STOP JUMPDEST PUSH2 0x2EA PUSH2 0xD46 JUMP JUMPDEST PUSH1 0x40 MLOAD PUSH2 0x2F7 SWAP2 SWAP1 PUSH2 0x20C9 JUMP JUMPDEST PUSH1 0x40 MLOAD DUP1 SWAP2 SUB SWAP1 RETURN JUMPDEST PUSH2 0x31A PUSH1 0x4 DUP1 CALLDATASIZE SUB DUP2 ADD SWAP1 PUSH2 0x315 SWAP2 SWAP1 PUSH2 0x21A0 JUMP JUMPDEST PUSH2 0xD50 JUMP JUMPDEST PUSH1 0x40 MLOAD PUSH2 0x327 SWAP2 SWAP1 PUSH2 0x21E8 JUMP JUMPDEST PUSH1 0x40 MLOAD DUP1 SWAP2 SUB SWAP1 RETURN JUMPDEST PUSH2 0x34A PUSH1 0x4 DUP1 CALLDATASIZE SUB DUP2 ADD SWAP1 PUSH2 0x345 SWAP2 SWAP1 PUSH2 0x21A0 JUMP JUMPDEST PUSH2 0xD9F JUMP JUMPDEST PUSH1 0x40 MLOAD PUSH2 0x357 SWAP2 SWAP1 PUSH2 0x227A JUMP JUMPDEST PUSH1 0x40 MLOAD DUP1 SWAP2 SUB SWAP1 RETURN JUMPDEST PUSH2 0x37A PUSH1 0x4 DUP1 CALLDATASIZE SUB DUP2 ADD SWAP1 PUSH2 0x375 SWAP2 SWAP1 PUSH2 0x2295 JUMP JUMPDEST PUSH2 0xE2A JUMP JUMPDEST STOP JUMPDEST PUSH2 0x384 PUSH2 0xE94 JUMP JUMPDEST STOP JUMPDEST PUSH2 0x3A0 PUSH1 0x4 DUP1 CALLDATASIZE SUB DUP2 ADD SWAP1 PUSH2 0x39B SWAP2 SWAP1 PUSH2 0x2115 JUMP JUMPDEST PUSH2 0xEA8 JUMP JUMPDEST STOP JUMPDEST PUSH2 0x3BC PUSH1 0x4 DUP1 CALLDATASIZE SUB DUP2 ADD SWAP1 PUSH2 0x3B7 SWAP2 SWAP1 PUSH2 0x22D5 JUMP JUMPDEST PUSH2 0xEBA JUMP JUMPDEST STOP JUMPDEST PUSH2 0x3C6 PUSH2 0x1011 JUMP JUMPDEST PUSH1 0x40 MLOAD PUSH2 0x3D3 SWAP2 SWAP1 PUSH2 0x20C9 JUMP JUMPDEST PUSH1 0x40 MLOAD DUP1 SWAP2 SUB SWAP1 RETURN JUMPDEST PUSH2 0x3E4 PUSH2 0x1016 JUMP JUMPDEST PUSH1 0x40 MLOAD PUSH2 0x3F1 SWAP2 SWAP1 PUSH2 0x23AE JUMP JUMPDEST PUSH1 0x40 MLOAD DUP1 SWAP2 SUB SWAP1 RETURN JUMPDEST PUSH2 0x402 PUSH2 0x103F JUMP JUMPDEST PUSH1 0x40 MLOAD PUSH2 0x40F SWAP2 SWAP1 PUSH2 0x20C9 JUMP JUMPDEST PUSH1 0x40 MLOAD DUP1 SWAP2 SUB SWAP1 RETURN JUMPDEST PUSH2 0x420 PUSH2 0x10EF JUMP JUMPDEST PUSH1 0x40 MLOAD PUSH2 0x42D SWAP2 SWAP1 PUSH2 0x20C9 JUMP JUMPDEST PUSH1 0x40 MLOAD DUP1 SWAP2 SUB SWAP1 RETURN JUMPDEST PUSH2 0x450 PUSH1 0x4 DUP1 CALLDATASIZE SUB DUP2 ADD SWAP1 PUSH2 0x44B SWAP2 SWAP1 PUSH2 0x2115 JUMP JUMPDEST PUSH2 0x10F9 JUMP JUMPDEST STOP JUMPDEST PUSH2 0x45A PUSH2 0x115A JUMP JUMPDEST PUSH1 0x40 MLOAD PUSH2 0x467 SWAP2 SWAP1 PUSH2 0x20C9 JUMP JUMPDEST PUSH1 0x40 MLOAD DUP1 SWAP2 SUB SWAP1 RETURN JUMPDEST PUSH2 0x478 PUSH2 0x1160 JUMP JUMPDEST STOP JUMPDEST PUSH2 0x482 PUSH2 0x153A JUMP JUMPDEST PUSH1 0x40 MLOAD PUSH2 0x48F SWAP2 SWAP1 PUSH2 0x20C9 JUMP JUMPDEST PUSH1 0x40 MLOAD DUP1 SWAP2 SUB SWAP1 RETURN JUMPDEST PUSH2 0x4A0 PUSH2 0x1544 JUMP JUMPDEST STOP JUMPDEST PUSH2 0x4AA PUSH2 0x1578 JUMP JUMPDEST PUSH1 0x40 MLOAD PUSH2 0x4B7 SWAP2 SWAP1 PUSH2 0x21E8 JUMP JUMPDEST PUSH1 0x40 MLOAD DUP1 SWAP2 SUB SWAP1 RETURN JUMPDEST PUSH2 0x4C8 PUSH2 0x158F JUMP JUMPDEST PUSH1 0x40 MLOAD PUSH2 0x4D5 SWAP2 SWAP1 PUSH2 0x20C9 JUMP JUMPDEST PUSH1 0x40 MLOAD DUP1 SWAP2 SUB SWAP1 RETURN JUMPDEST PUSH2 0x4E6 PUSH2 0x1599 JUMP JUMPDEST PUSH1 0x40 MLOAD PUSH2 0x4F3 SWAP2 SWAP1 PUSH2 0x20C9 JUMP JUMPDEST PUSH1 0x40 MLOAD DUP1 SWAP2 SUB SWAP1 RETURN JUMPDEST PUSH2 0x504 PUSH2 0x15A3 JUMP JUMPDEST PUSH1 0x40 MLOAD PUSH2 0x511 SWAP2 SWAP1 PUSH2 0x20C9 JUMP JUMPDEST PUSH1 0x40 MLOAD DUP1 SWAP2 SUB SWAP1 RETURN JUMPDEST PUSH2 0x534 PUSH1 0x4 DUP1 CALLDATASIZE SUB DUP2 ADD SWAP1 PUSH2 0x52F SWAP2 SWAP1 PUSH2 0x21A0 JUMP JUMPDEST PUSH2 0x15AD JUMP JUMPDEST STOP JUMPDEST PUSH1 0x0 PUSH1 0x6 SLOAD SWAP1 POP SWAP1 JUMP JUMPDEST PUSH2 0x548 PUSH2 0x1630 JUMP JUMPDEST DUP1 PUSH1 0x4 DUP2 SWAP1 SSTORE POP POP JUMP JUMPDEST PUSH1 0x2 PUSH1 0x1 SLOAD SUB PUSH2 0x597 JUMPI PUSH1 0x40 MLOAD PUSH32 0x8C379A000000000000000000000000000000000000000000000000000000000 DUP2 MSTORE PUSH1 0x4 ADD PUSH2 0x58E SWAP1 PUSH2 0x2426 JUMP JUMPDEST PUSH1 0x40 MLOAD DUP1 SWAP2 SUB SWAP1 REVERT JUMPDEST PUSH1 0x2 PUSH1 0x1 DUP2 SWAP1 SSTORE POP DUP1 DUP1 PUSH1 0xB PUSH1 0x1 SWAP1 SLOAD SWAP1 PUSH2 0x100 EXP SWAP1 DIV PUSH20 0xFFFFFFFFFFFFFFFFFFFFFFFFFFFFFFFFFFFFFFFF AND PUSH20 0xFFFFFFFFFFFFFFFFFFFFFFFFFFFFFFFFFFFFFFFF AND PUSH4 0x70A08231 ADDRESS PUSH1 0x40 MLOAD DUP3 PUSH4 0xFFFFFFFF AND PUSH1 0xE0 SHL DUP2 MSTORE PUSH1 0x4 ADD PUSH2 0x5FC SWAP2 SWAP1 PUSH2 0x23AE JUMP JUMPDEST PUSH1 0x20 PUSH1 0x40 MLOAD DUP1 DUP4 SUB DUP2 DUP7 GAS STATICCALL ISZERO DUP1 ISZERO PUSH2 0x619 JUMPI RETURNDATASIZE PUSH1 0x0 DUP1 RETURNDATACOPY RETURNDATASIZE PUSH1 0x0 REVERT JUMPDEST POP POP POP POP PUSH1 0x40 MLOAD RETURNDATASIZE PUSH1 0x1F NOT PUSH1 0x1F DUP3 ADD AND DUP3 ADD DUP1 PUSH1 0x40 MSTORE POP DUP2 ADD SWAP1 PUSH2 0x63D SWAP2 SWAP1 PUSH2 0x245B JUMP JUMPDEST LT ISZERO PUSH2 0x67E JUMPI PUSH1 0x40 MLOAD PUSH32 0x8C379A000000000000000000000000000000000000000000000000000000000 DUP2 MSTORE PUSH1 0x4 ADD PUSH2 0x675 SWAP1 PUSH2 0x24FA JUMP JUMPDEST PUSH1 0x40 MLOAD DUP1 SWAP2 SUB SWAP1 REVERT JUMPDEST PUSH1 0x0 CALLER SWAP1 POP PUSH1 0x0 DUP4 SUB PUSH2 0x6C6 JUMPI PUSH1 0x40 MLOAD PUSH32 0x8C379A000000000000000000000000000000000000000000000000000000000 DUP2 MSTORE PUSH1 0x4 ADD PUSH2 0x6BD SWAP1 PUSH2 0x258C JUMP JUMPDEST PUSH1 0x40 MLOAD DUP1 SWAP2 SUB SWAP1 REVERT JUMPDEST ADDRESS PUSH20 0xFFFFFFFFFFFFFFFFFFFFFFFFFFFFFFFFFFFFFFFF AND PUSH4 0x63512159 DUP3 PUSH1 0x40 MLOAD DUP3 PUSH4 0xFFFFFFFF AND PUSH1 0xE0 SHL DUP2 MSTORE PUSH1 0x4 ADD PUSH2 0x6FF SWAP2 SWAP1 PUSH2 0x23AE JUMP JUMPDEST PUSH1 0x20 PUSH1 0x40 MLOAD DUP1 DUP4 SUB DUP2 DUP7 GAS STATICCALL ISZERO DUP1 ISZERO PUSH2 0x71C JUMPI RETURNDATASIZE PUSH1 0x0 DUP1 RETURNDATACOPY RETURNDATASIZE PUSH1 0x0 REVERT JUMPDEST POP POP POP POP PUSH1 0x40 MLOAD RETURNDATASIZE PUSH1 0x1F NOT PUSH1 0x1F DUP3 ADD AND DUP3 ADD DUP1 PUSH1 0x40 MSTORE POP DUP2 ADD SWAP1 PUSH2 0x740 SWAP2 SWAP1 PUSH2 0x25D8 JUMP JUMPDEST PUSH2 0x77F JUMPI PUSH1 0x40 MLOAD PUSH32 0x8C379A000000000000000000000000000000000000000000000000000000000 DUP2 MSTORE PUSH1 0x4 ADD PUSH2 0x776 SWAP1 PUSH2 0x2651 JUMP JUMPDEST PUSH1 0x40 MLOAD DUP1 SWAP2 SUB SWAP1 REVERT JUMPDEST DUP3 PUSH1 0xD PUSH1 0x0 DUP4 PUSH20 0xFFFFFFFFFFFFFFFFFFFFFFFFFFFFFFFFFFFFFFFF AND PUSH20 0xFFFFFFFFFFFFFFFFFFFFFFFFFFFFFFFFFFFFFFFF AND DUP2 MSTORE PUSH1 0x20 ADD SWAP1 DUP2 MSTORE PUSH1 0x20 ADD PUSH1 0x0 KECCAK256 PUSH1 0x0 ADD SLOAD LT ISZERO PUSH2 0x804 JUMPI PUSH1 0x40 MLOAD PUSH32 0x8C379A000000000000000000000000000000000000000000000000000000000 DUP2 MSTORE PUSH1 0x4 ADD PUSH2 0x7FB SWAP1 PUSH2 0x26E3 JUMP JUMPDEST PUSH1 0x40 MLOAD DUP1 SWAP2 SUB SWAP1 REVERT JUMPDEST PUSH2 0x80D DUP2 PUSH2 0x16AE JUMP JUMPDEST PUSH1 0x0 PUSH1 0x9 SLOAD PUSH1 0xD PUSH1 0x0 DUP5 PUSH20 0xFFFFFFFFFFFFFFFFFFFFFFFFFFFFFFFFFFFFFFFF AND PUSH20 0xFFFFFFFFFFFFFFFFFFFFFFFFFFFFFFFFFFFFFFFF AND DUP2 MSTORE PUSH1 0x20 ADD SWAP1 DUP2 MSTORE PUSH1 0x20 ADD PUSH1 0x0 KECCAK256 PUSH1 0x2 ADD SLOAD PUSH2 0x85F SWAP2 SWAP1 PUSH2 0x2732 JUMP JUMPDEST PUSH2 0x867 PUSH2 0x1763 JUMP JUMPDEST GT PUSH2 0x8D8 JUMPI PUSH2 0x2710 PUSH1 0xA SLOAD DUP6 PUSH2 0x87D SWAP2 SWAP1 PUSH2 0x2766 JUMP JUMPDEST PUSH2 0x887 SWAP2 SWAP1 PUSH2 0x27D7 JUMP JUMPDEST SWAP1 POP DUP2 PUSH20 0xFFFFFFFFFFFFFFFFFFFFFFFFFFFFFFFFFFFFFFFF AND PUSH32 0x547C747D3878B7637A9D040B5479A58C43382AAC8E5AA9A30A053C1A0CFFB4F2 DUP3 PUSH1 0x40 MLOAD PUSH2 0x8CF SWAP2 SWAP1 PUSH2 0x20C9 JUMP JUMPDEST PUSH1 0x40 MLOAD DUP1 SWAP2 SUB SWAP1 LOG2 JUMPDEST PUSH1 0x0 DUP2 DUP6 PUSH2 0x8E6 SWAP2 SWAP1 PUSH2 0x2808 JUMP JUMPDEST SWAP1 POP DUP5 PUSH1 0xD PUSH1 0x0 DUP6 PUSH20 0xFFFFFFFFFFFFFFFFFFFFFFFFFFFFFFFFFFFFFFFF AND PUSH20 0xFFFFFFFFFFFFFFFFFFFFFFFFFFFFFFFFFFFFFFFF AND DUP2 MSTORE PUSH1 0x20 ADD SWAP1 DUP2 MSTORE PUSH1 0x20 ADD PUSH1 0x0 KECCAK256 PUSH1 0x0 ADD PUSH1 0x0 DUP3 DUP3 SLOAD PUSH2 0x93A SWAP2 SWAP1 PUSH2 0x2808 JUMP JUMPDEST SWAP3 POP POP DUP2 SWAP1 SSTORE POP DUP5 PUSH1 0x7 PUSH1 0x0 DUP3 DUP3 SLOAD PUSH2 0x953 SWAP2 SWAP1 PUSH2 0x2808 JUMP JUMPDEST SWAP3 POP POP DUP2 SWAP1 SSTORE POP PUSH1 0x0 PUSH1 0xD PUSH1 0x0 DUP6 PUSH20 0xFFFFFFFFFFFFFFFFFFFFFFFFFFFFFFFFFFFFFFFF AND PUSH20 0xFFFFFFFFFFFFFFFFFFFFFFFFFFFFFFFFFFFFFFFF AND DUP2 MSTORE PUSH1 0x20 ADD SWAP1 DUP2 MSTORE PUSH1 0x20 ADD PUSH1 0x0 KECCAK256 PUSH1 0x0 ADD SLOAD SUB PUSH2 0x9BF JUMPI PUSH1 0x1 PUSH1 0x8 PUSH1 0x0 DUP3 DUP3 SLOAD PUSH2 0x9B7 SWAP2 SWAP1 PUSH2 0x2808 JUMP JUMPDEST SWAP3 POP POP DUP2 SWAP1 SSTORE POP JUMPDEST PUSH1 0xB PUSH1 0x1 SWAP1 SLOAD SWAP1 PUSH2 0x100 EXP SWAP1 DIV PUSH20 0xFFFFFFFFFFFFFFFFFFFFFFFFFFFFFFFFFFFFFFFF AND PUSH20 0xFFFFFFFFFFFFFFFFFFFFFFFFFFFFFFFFFFFFFFFF AND PUSH4 0xA9059CBB DUP5 DUP4 PUSH1 0x40 MLOAD DUP4 PUSH4 0xFFFFFFFF AND PUSH1 0xE0 SHL DUP2 MSTORE PUSH1 0x4 ADD PUSH2 0xA1C SWAP3 SWAP2 SWAP1 PUSH2 0x283C JUMP JUMPDEST PUSH1 0x20 PUSH1 0x40 MLOAD DUP1 DUP4 SUB DUP2 PUSH1 0x0 DUP8 GAS CALL ISZERO DUP1 ISZERO PUSH2 0xA3B JUMPI RETURNDATASIZE PUSH1 0x0 DUP1 RETURNDATACOPY RETURNDATASIZE PUSH1 0x0 REVERT JUMPDEST POP POP POP POP PUSH1 0x40 MLOAD RETURNDATASIZE PUSH1 0x1F NOT PUSH1 0x1F DUP3 ADD AND DUP3 ADD DUP1 PUSH1 0x40 MSTORE POP DUP2 ADD SWAP1 PUSH2 0xA5F SWAP2 SWAP1 PUSH2 0x25D8 JUMP JUMPDEST PUSH2 0xA9E JUMPI PUSH1 0x40 MLOAD PUSH32 0x8C379A000000000000000000000000000000000000000000000000000000000 DUP2 MSTORE PUSH1 0x4 ADD PUSH2 0xA95 SWAP1 PUSH2 0x28B1 JUMP JUMPDEST PUSH1 0x40 MLOAD DUP1 SWAP2 SUB SWAP1 REVERT JUMPDEST DUP3 PUSH20 0xFFFFFFFFFFFFFFFFFFFFFFFFFFFFFFFFFFFFFFFF AND PUSH32 0xB24546D975E2628748EFC9ACED80665E0FAD66272033E5C0EA25FD3AFAC99795 DUP7 PUSH1 0x40 MLOAD PUSH2 0xAE4 SWAP2 SWAP1 PUSH2 0x20C9 JUMP JUMPDEST PUSH1 0x40 MLOAD DUP1 SWAP2 SUB SWAP1 LOG2 POP POP POP POP PUSH1 0x1 DUP1 DUP2 SWAP1 SSTORE POP POP JUMP JUMPDEST PUSH2 0xB02 PUSH2 0x1630 JUMP JUMPDEST PUSH1 0x2 PUSH1 0x1 SLOAD SUB PUSH2 0xB47 JUMPI PUSH1 0x40 MLOAD PUSH32 0x8C379A000000000000000000000000000000000000000000000000000000000 DUP2 MSTORE PUSH1 0x4 ADD PUSH2 0xB3E SWAP1 PUSH2 0x2426 JUMP JUMPDEST PUSH1 0x40 MLOAD DUP1 SWAP2 SUB SWAP1 REVERT JUMPDEST PUSH1 0x2 PUSH1 0x1 DUP2 SWAP1 SSTORE POP DUP1 ADDRESS PUSH20 0xFFFFFFFFFFFFFFFFFFFFFFFFFFFFFFFFFFFFFFFF AND PUSH4 0x90BE10CC PUSH1 0x40 MLOAD DUP2 PUSH4 0xFFFFFFFF AND PUSH1 0xE0 SHL DUP2 MSTORE PUSH1 0x4 ADD PUSH1 0x20 PUSH1 0x40 MLOAD DUP1 DUP4 SUB DUP2 DUP7 GAS STATICCALL ISZERO DUP1 ISZERO PUSH2 0xB9B JUMPI RETURNDATASIZE PUSH1 0x0 DUP1 RETURNDATACOPY RETURNDATASIZE PUSH1 0x0 REVERT JUMPDEST POP POP POP POP PUSH1 0x40 MLOAD RETURNDATASIZE PUSH1 0x1F NOT PUSH1 0x1F DUP3 ADD AND DUP3 ADD DUP1 PUSH1 0x40 MSTORE POP DUP2 ADD SWAP1 PUSH2 0xBBF SWAP2 SWAP1 PUSH2 0x245B JUMP JUMPDEST LT ISZERO PUSH2 0xC00 JUMPI PUSH1 0x40 MLOAD PUSH32 0x8C379A000000000000000000000000000000000000000000000000000000000 DUP2 MSTORE PUSH1 0x4 ADD PUSH2 0xBF7 SWAP1 PUSH2 0x2943 JUMP JUMPDEST PUSH1 0x40 MLOAD DUP1 SWAP2 SUB SWAP1 REVERT JUMPDEST PUSH1 0xB PUSH1 0x1 SWAP1 SLOAD SWAP1 PUSH2 0x100 EXP SWAP1 DIV PUSH20 0xFFFFFFFFFFFFFFFFFFFFFFFFFFFFFFFFFFFFFFFF AND PUSH20 0xFFFFFFFFFFFFFFFFFFFFFFFFFFFFFFFFFFFFFFFF AND PUSH4 0xA9059CBB CALLER DUP4 PUSH1 0x40 MLOAD DUP4 PUSH4 0xFFFFFFFF AND PUSH1 0xE0 SHL DUP2 MSTORE PUSH1 0x4 ADD PUSH2 0xC5D SWAP3 SWAP2 SWAP1 PUSH2 0x283C JUMP JUMPDEST PUSH1 0x20 PUSH1 0x40 MLOAD DUP1 DUP4 SUB DUP2 PUSH1 0x0 DUP8 GAS CALL ISZERO DUP1 ISZERO PUSH2 0xC7C JUMPI RETURNDATASIZE PUSH1 0x0 DUP1 RETURNDATACOPY RETURNDATASIZE PUSH1 0x0 REVERT JUMPDEST POP POP POP POP PUSH1 0x40 MLOAD RETURNDATASIZE PUSH1 0x1F NOT PUSH1 0x1F DUP3 ADD AND DUP3 ADD DUP1 PUSH1 0x40 MSTORE POP DUP2 ADD SWAP1 PUSH2 0xCA0 SWAP2 SWAP1 PUSH2 0x25D8 JUMP JUMPDEST POP PUSH1 0x1 DUP1 DUP2 SWAP1 SSTORE POP POP JUMP JUMPDEST PUSH2 0xCB3 PUSH2 0x1630 JUMP JUMPDEST DUP1 PUSH1 0x5 DUP2 SWAP1 SSTORE POP POP JUMP JUMPDEST PUSH1 0x0 PUSH1 0x3 SLOAD SWAP1 POP SWAP1 JUMP JUMPDEST PUSH1 0x0 DUP1 PUSH2 0xCD3 CALLER PUSH2 0x176B JUMP JUMPDEST POP SWAP1 POP DUP1 PUSH1 0xD PUSH1 0x0 CALLER PUSH20 0xFFFFFFFFFFFFFFFFFFFFFFFFFFFFFFFFFFFFFFFF AND PUSH20 0xFFFFFFFFFFFFFFFFFFFFFFFFFFFFFFFFFFFFFFFF AND DUP2 MSTORE PUSH1 0x20 ADD SWAP1 DUP2 MSTORE PUSH1 0x20 ADD PUSH1 0x0 KECCAK256 PUSH1 0x1 ADD SLOAD PUSH2 0xD24 SWAP2 SWAP1 PUSH2 0x2732 JUMP JUMPDEST SWAP2 POP POP SWAP1 JUMP JUMPDEST PUSH1 0x0 PUSH1 0x7 SLOAD SWAP1 POP SWAP1 JUMP JUMPDEST PUSH2 0xD3C PUSH2 0x1630 JUMP JUMPDEST DUP1 PUSH1 0x3 DUP2 SWAP1 SSTORE POP POP JUMP JUMPDEST PUSH1 0x0 PUSH1 0xA SLOAD SWAP1 POP SWAP1 JUMP JUMPDEST PUSH1 0x0 DUP1 PUSH1 0xD PUSH1 0x0 DUP5 PUSH20 0xFFFFFFFFFFFFFFFFFFFFFFFFFFFFFFFFFFFFFFFF AND PUSH20 0xFFFFFFFFFFFFFFFFFFFFFFFFFFFFFFFFFFFFFFFF AND DUP2 MSTORE PUSH1 0x20 ADD SWAP1 DUP2 MSTORE PUSH1 0x20 ADD PUSH1 0x0 KECCAK256 PUSH1 0x0 ADD SLOAD EQ ISZERO SWAP1 POP SWAP2 SWAP1 POP JUMP JUMPDEST PUSH2 0xDA7 PUSH2 0x2081 JUMP JUMPDEST PUSH1 0xD PUSH1 0x0 DUP4 PUSH20 0xFFFFFFFFFFFFFFFFFFFFFFFFFFFFFFFFFFFFFFFF AND PUSH20 0xFFFFFFFFFFFFFFFFFFFFFFFFFFFFFFFFFFFFFFFF AND DUP2 MSTORE PUSH1 0x20 ADD SWAP1 DUP2 MSTORE PUSH1 0x20 ADD PUSH1 0x0 KECCAK256 PUSH1 0x40 MLOAD DUP1 PUSH1 0xA0 ADD PUSH1 0x40 MSTORE SWAP1 DUP2 PUSH1 0x0 DUP3 ADD SLOAD DUP2 MSTORE PUSH1 0x20 ADD PUSH1 0x1 DUP3 ADD SLOAD DUP2 MSTORE PUSH1 0x20 ADD PUSH1 0x2 DUP3 ADD SLOAD DUP2 MSTORE PUSH1 0x20 ADD PUSH1 0x3 DUP3 ADD SLOAD DUP2 MSTORE PUSH1 0x20 ADD PUSH1 0x4 DUP3 ADD SLOAD DUP2 MSTORE POP POP SWAP1 POP SWAP2 SWAP1 POP JUMP JUMPDEST PUSH2 0xE32 PUSH2 0x1630 JUMP JUMPDEST PUSH1 0x2 PUSH1 0x1 SLOAD SUB PUSH2 0xE77 JUMPI PUSH1 0x40 MLOAD PUSH32 0x8C379A000000000000000000000000000000000000000000000000000000000 DUP2 MSTORE PUSH1 0x4 ADD PUSH2 0xE6E SWAP1 PUSH2 0x2426 JUMP JUMPDEST PUSH1 0x40 MLOAD DUP1 SWAP2 SUB SWAP1 REVERT JUMPDEST PUSH1 0x2 PUSH1 0x1 DUP2 SWAP1 SSTORE POP PUSH2 0xE89 DUP3 DUP3 PUSH2 0x190F JUMP JUMPDEST PUSH1 0x1 DUP1 DUP2 SWAP1 SSTORE POP POP POP JUMP JUMPDEST PUSH2 0xE9C PUSH2 0x1630 JUMP JUMPDEST PUSH2 0xEA6 PUSH1 0x0 PUSH2 0x1D74 JUMP JUMPDEST JUMP JUMPDEST PUSH2 0xEB0 PUSH2 0x1630 JUMP JUMPDEST DUP1 PUSH1 0xA DUP2 SWAP1 SSTORE POP POP JUMP JUMPDEST PUSH1 0x0 PUSH1 0x2 PUSH1 0x1 SWAP1 SLOAD SWAP1 PUSH2 0x100 EXP SWAP1 DIV PUSH1 0xFF AND ISZERO SWAP1 POP DUP1 DUP1 ISZERO PUSH2 0xEEE JUMPI POP PUSH1 0x1 PUSH1 0x2 PUSH1 0x0 SWAP1 SLOAD SWAP1 PUSH2 0x100 EXP SWAP1 DIV PUSH1 0xFF AND PUSH1 0xFF AND LT JUMPDEST DUP1 PUSH2 0xF1D JUMPI POP PUSH2 0xEFD ADDRESS PUSH2 0x1E38 JUMP JUMPDEST ISZERO DUP1 ISZERO PUSH2 0xF1C JUMPI POP PUSH1 0x1 PUSH1 0x2 PUSH1 0x0 SWAP1 SLOAD SWAP1 PUSH2 0x100 EXP SWAP1 DIV PUSH1 0xFF AND PUSH1 0xFF AND EQ JUMPDEST JUMPDEST PUSH2 0xF5C JUMPI PUSH1 0x40 MLOAD PUSH32 0x8C379A000000000000000000000000000000000000000000000000000000000 DUP2 MSTORE PUSH1 0x4 ADD PUSH2 0xF53 SWAP1 PUSH2 0x29D5 JUMP JUMPDEST PUSH1 0x40 MLOAD DUP1 SWAP2 SUB SWAP1 REVERT JUMPDEST PUSH1 0x1 PUSH1 0x2 PUSH1 0x0 PUSH2 0x100 EXP DUP2 SLOAD DUP2 PUSH1 0xFF MUL NOT AND SWAP1 DUP4 PUSH1 0xFF AND MUL OR SWAP1 SSTORE POP DUP1 ISZERO PUSH2 0xF9A JUMPI PUSH1 0x1 PUSH1 0x2 PUSH1 0x1 PUSH2 0x100 EXP DUP2 SLOAD DUP2 PUSH1 0xFF MUL NOT AND SWAP1 DUP4 ISZERO ISZERO MUL OR SWAP1 SSTORE POP JUMPDEST PUSH2 0xFAB DUP11 DUP11 DUP11 DUP11 DUP11 DUP11 DUP11 DUP11 DUP11 PUSH2 0x1E5B JUMP JUMPDEST DUP1 ISZERO PUSH2 0x1005 JUMPI PUSH1 0x0 PUSH1 0x2 PUSH1 0x1 PUSH2 0x100 EXP DUP2 SLOAD DUP2 PUSH1 0xFF MUL NOT AND SWAP1 DUP4 ISZERO ISZERO MUL OR SWAP1 SSTORE POP PUSH32 0x7F26B83FF96E1F2B6A682F133852F6798A09C465DA95921460CEFB3847402498 PUSH1 0x1 PUSH1 0x40 MLOAD PUSH2 0xFFC SWAP2 SWAP1 PUSH2 0x2A47 JUMP JUMPDEST PUSH1 0x40 MLOAD DUP1 SWAP2 SUB SWAP1 LOG1 JUMPDEST POP POP POP POP POP POP POP POP POP POP JUMP JUMPDEST PUSH1 0xA DUP2 JUMP JUMPDEST PUSH1 0x0 DUP1 PUSH1 0x0 SWAP1 SLOAD SWAP1 PUSH2 0x100 EXP SWAP1 DIV PUSH20 0xFFFFFFFFFFFFFFFFFFFFFFFFFFFFFFFFFFFFFFFF AND SWAP1 POP SWAP1 JUMP JUMPDEST PUSH1 0x0 PUSH1 0x7 SLOAD PUSH1 0xB PUSH1 0x1 SWAP1 SLOAD SWAP1 PUSH2 0x100 EXP SWAP1 DIV PUSH20 0xFFFFFFFFFFFFFFFFFFFFFFFFFFFFFFFFFFFFFFFF AND PUSH20 0xFFFFFFFFFFFFFFFFFFFFFFFFFFFFFFFFFFFFFFFF AND PUSH4 0x70A08231 ADDRESS PUSH1 0x40 MLOAD DUP3 PUSH4 0xFFFFFFFF AND PUSH1 0xE0 SHL DUP2 MSTORE PUSH1 0x4 ADD PUSH2 0x109F SWAP2 SWAP1 PUSH2 0x23AE JUMP JUMPDEST PUSH1 0x20 PUSH1 0x40 MLOAD DUP1 DUP4 SUB DUP2 DUP7 GAS STATICCALL ISZERO DUP1 ISZERO PUSH2 0x10BC JUMPI RETURNDATASIZE PUSH1 0x0 DUP1 RETURNDATACOPY RETURNDATASIZE PUSH1 0x0 REVERT JUMPDEST POP POP POP POP PUSH1 0x40 MLOAD RETURNDATASIZE PUSH1 0x1F NOT PUSH1 0x1F DUP3 ADD AND DUP3 ADD DUP1 PUSH1 0x40 MSTORE POP DUP2 ADD SWAP1 PUSH2 0x10E0 SWAP2 SWAP1 PUSH2 0x245B JUMP JUMPDEST PUSH2 0x10EA SWAP2 SWAP1 PUSH2 0x2808 JUMP JUMPDEST SWAP1 POP SWAP1 JUMP JUMPDEST PUSH1 0x0 PUSH1 0x8 SLOAD SWAP1 POP SWAP1 JUMP JUMPDEST PUSH1 0x2 PUSH1 0x1 SLOAD SUB PUSH2 0x113E JUMPI PUSH1 0x40 MLOAD PUSH32 0x8C379A000000000000000000000000000000000000000000000000000000000 DUP2 MSTORE PUSH1 0x4 ADD PUSH2 0x1135 SWAP1 PUSH2 0x2426 JUMP JUMPDEST PUSH1 0x40 MLOAD DUP1 SWAP2 SUB SWAP1 REVERT JUMPDEST PUSH1 0x2 PUSH1 0x1 DUP2 SWAP1 SSTORE POP PUSH2 0x1150 DUP2 CALLER PUSH2 0x190F JUMP JUMPDEST PUSH1 0x1 DUP1 DUP2 SWAP1 SSTORE POP POP JUMP JUMPDEST PUSH2 0x2710 DUP2 JUMP JUMPDEST PUSH1 0x2 PUSH1 0x1 SLOAD SUB PUSH2 0x11A5 JUMPI PUSH1 0x40 MLOAD PUSH32 0x8C379A000000000000000000000000000000000000000000000000000000000 DUP2 MSTORE PUSH1 0x4 ADD PUSH2 0x119C SWAP1 PUSH2 0x2426 JUMP JUMPDEST PUSH1 0x40 MLOAD DUP1 SWAP2 SUB SWAP1 REVERT JUMPDEST PUSH1 0x2 PUSH1 0x1 DUP2 SWAP1 SSTORE POP PUSH1 0xD PUSH1 0x0 CALLER PUSH20 0xFFFFFFFFFFFFFFFFFFFFFFFFFFFFFFFFFFFFFFFF AND PUSH20 0xFFFFFFFFFFFFFFFFFFFFFFFFFFFFFFFFFFFFFFFF AND DUP2 MSTORE PUSH1 0x20 ADD SWAP1 DUP2 MSTORE PUSH1 0x20 ADD PUSH1 0x0 KECCAK256 PUSH1 0x1 ADD SLOAD DUP1 PUSH1 0xB PUSH1 0x1 SWAP1 SLOAD SWAP1 PUSH2 0x100 EXP SWAP1 DIV PUSH20 0xFFFFFFFFFFFFFFFFFFFFFFFFFFFFFFFFFFFFFFFF AND PUSH20 0xFFFFFFFFFFFFFFFFFFFFFFFFFFFFFFFFFFFFFFFF AND PUSH4 0x70A08231 ADDRESS PUSH1 0x40 MLOAD DUP3 PUSH4 0xFFFFFFFF AND PUSH1 0xE0 SHL DUP2 MSTORE PUSH1 0x4 ADD PUSH2 0x124C SWAP2 SWAP1 PUSH2 0x23AE JUMP JUMPDEST PUSH1 0x20 PUSH1 0x40 MLOAD DUP1 DUP4 SUB DUP2 DUP7 GAS STATICCALL ISZERO DUP1 ISZERO PUSH2 0x1269 JUMPI RETURNDATASIZE PUSH1 0x0 DUP1 RETURNDATACOPY RETURNDATASIZE PUSH1 0x0 REVERT JUMPDEST POP POP POP POP PUSH1 0x40 MLOAD RETURNDATASIZE PUSH1 0x1F NOT PUSH1 0x1F DUP3 ADD AND DUP3 ADD DUP1 PUSH1 0x40 MSTORE POP DUP2 ADD SWAP1 PUSH2 0x128D SWAP2 SWAP1 PUSH2 0x245B JUMP JUMPDEST LT ISZERO PUSH2 0x12CE JUMPI PUSH1 0x40 MLOAD PUSH32 0x8C379A000000000000000000000000000000000000000000000000000000000 DUP2 MSTORE PUSH1 0x4 ADD PUSH2 0x12C5 SWAP1 PUSH2 0x24FA JUMP JUMPDEST PUSH1 0x40 MLOAD DUP1 SWAP2 SUB SWAP1 REVERT JUMPDEST PUSH2 0x12D7 CALLER PUSH2 0x16AE JUMP JUMPDEST PUSH1 0x0 PUSH1 0xD PUSH1 0x0 CALLER PUSH20 0xFFFFFFFFFFFFFFFFFFFFFFFFFFFFFFFFFFFFFFFF AND PUSH20 0xFFFFFFFFFFFFFFFFFFFFFFFFFFFFFFFFFFFFFFFF AND DUP2 MSTORE PUSH1 0x20 ADD SWAP1 DUP2 MSTORE PUSH1 0x20 ADD PUSH1 0x0 KECCAK256 PUSH1 0x1 ADD SLOAD SWAP1 POP PUSH1 0x0 DUP2 GT PUSH2 0x1361 JUMPI PUSH1 0x40 MLOAD PUSH32 0x8C379A000000000000000000000000000000000000000000000000000000000 DUP2 MSTORE PUSH1 0x4 ADD PUSH2 0x1358 SWAP1 PUSH2 0x2AAE JUMP JUMPDEST PUSH1 0x40 MLOAD DUP1 SWAP2 SUB SWAP1 REVERT JUMPDEST PUSH1 0xB PUSH1 0x1 SWAP1 SLOAD SWAP1 PUSH2 0x100 EXP SWAP1 DIV PUSH20 0xFFFFFFFFFFFFFFFFFFFFFFFFFFFFFFFFFFFFFFFF AND PUSH20 0xFFFFFFFFFFFFFFFFFFFFFFFFFFFFFFFFFFFFFFFF AND PUSH4 0xA9059CBB CALLER DUP4 PUSH1 0x40 MLOAD DUP4 PUSH4 0xFFFFFFFF AND PUSH1 0xE0 SHL DUP2 MSTORE PUSH1 0x4 ADD PUSH2 0x13BE SWAP3 SWAP2 SWAP1 PUSH2 0x283C JUMP JUMPDEST PUSH1 0x20 PUSH1 0x40 MLOAD DUP1 DUP4 SUB DUP2 PUSH1 0x0 DUP8 GAS CALL ISZERO DUP1 ISZERO PUSH2 0x13DD JUMPI RETURNDATASIZE PUSH1 0x0 DUP1 RETURNDATACOPY RETURNDATASIZE PUSH1 0x0 REVERT JUMPDEST POP POP POP POP PUSH1 0x40 MLOAD RETURNDATASIZE PUSH1 0x1F NOT PUSH1 0x1F DUP3 ADD AND DUP3 ADD DUP1 PUSH1 0x40 MSTORE POP DUP2 ADD SWAP1 PUSH2 0x1401 SWAP2 SWAP1 PUSH2 0x25D8 JUMP JUMPDEST PUSH2 0x1440 JUMPI PUSH1 0x40 MLOAD PUSH32 0x8C379A000000000000000000000000000000000000000000000000000000000 DUP2 MSTORE PUSH1 0x4 ADD PUSH2 0x1437 SWAP1 PUSH2 0x28B1 JUMP JUMPDEST PUSH1 0x40 MLOAD DUP1 SWAP2 SUB SWAP1 REVERT JUMPDEST PUSH1 0x0 PUSH1 0xD PUSH1 0x0 CALLER PUSH20 0xFFFFFFFFFFFFFFFFFFFFFFFFFFFFFFFFFFFFFFFF AND PUSH20 0xFFFFFFFFFFFFFFFFFFFFFFFFFFFFFFFFFFFFFFFF AND DUP2 MSTORE PUSH1 0x20 ADD SWAP1 DUP2 MSTORE PUSH1 0x20 ADD PUSH1 0x0 KECCAK256 PUSH1 0x1 ADD DUP2 SWAP1 SSTORE POP DUP1 PUSH1 0xD PUSH1 0x0 CALLER PUSH20 0xFFFFFFFFFFFFFFFFFFFFFFFFFFFFFFFFFFFFFFFF AND PUSH20 0xFFFFFFFFFFFFFFFFFFFFFFFFFFFFFFFFFFFFFFFF AND DUP2 MSTORE PUSH1 0x20 ADD SWAP1 DUP2 MSTORE PUSH1 0x20 ADD PUSH1 0x0 KECCAK256 PUSH1 0x4 ADD PUSH1 0x0 DUP3 DUP3 SLOAD PUSH2 0x14DA SWAP2 SWAP1 PUSH2 0x2732 JUMP JUMPDEST SWAP3 POP POP DUP2 SWAP1 SSTORE POP CALLER PUSH20 0xFFFFFFFFFFFFFFFFFFFFFFFFFFFFFFFFFFFFFFFF AND PUSH32 0xBA8DE60C3403EC381D1D484652EA1980E3C3E56359195C92525BFF4CE47AD98E DUP3 PUSH1 0x40 MLOAD PUSH2 0x1527 SWAP2 SWAP1 PUSH2 0x20C9 JUMP JUMPDEST PUSH1 0x40 MLOAD DUP1 SWAP2 SUB SWAP1 LOG2 POP POP PUSH1 0x1 DUP1 DUP2 SWAP1 SSTORE POP JUMP JUMPDEST PUSH1 0x0 PUSH1 0x4 SLOAD SWAP1 POP SWAP1 JUMP JUMPDEST PUSH2 0x154C PUSH2 0x1630 JUMP JUMPDEST PUSH1 0xB PUSH1 0x0 SWAP1 SLOAD SWAP1 PUSH2 0x100 EXP SWAP1 DIV PUSH1 0xFF AND ISZERO PUSH1 0xB PUSH1 0x0 PUSH2 0x100 EXP DUP2 SLOAD DUP2 PUSH1 0xFF MUL NOT AND SWAP1 DUP4 ISZERO ISZERO MUL OR SWAP1 SSTORE POP JUMP JUMPDEST PUSH1 0x0 PUSH1 0xB PUSH1 0x0 SWAP1 SLOAD SWAP1 PUSH2 0x100 EXP SWAP1 DIV PUSH1 0xFF AND SWAP1 POP SWAP1 JUMP JUMPDEST PUSH1 0x0 PUSH1 0xC SLOAD SWAP1 POP SWAP1 JUMP JUMPDEST PUSH1 0x0 PUSH1 0x5 SLOAD SWAP1 POP SWAP1 JUMP JUMPDEST PUSH1 0x0 PUSH1 0x9 SLOAD SWAP1 POP SWAP1 JUMP JUMPDEST PUSH2 0x15B5 PUSH2 0x1630 JUMP JUMPDEST PUSH1 0x0 PUSH20 0xFFFFFFFFFFFFFFFFFFFFFFFFFFFFFFFFFFFFFFFF AND DUP2 PUSH20 0xFFFFFFFFFFFFFFFFFFFFFFFFFFFFFFFFFFFFFFFF AND SUB PUSH2 0x1624 JUMPI PUSH1 0x40 MLOAD PUSH32 0x8C379A000000000000000000000000000000000000000000000000000000000 DUP2 MSTORE PUSH1 0x4 ADD PUSH2 0x161B SWAP1 PUSH2 0x2B40 JUMP JUMPDEST PUSH1 0x40 MLOAD DUP1 SWAP2 SUB SWAP1 REVERT JUMPDEST PUSH2 0x162D DUP2 PUSH2 0x1D74 JUMP JUMPDEST POP JUMP JUMPDEST PUSH2 0x1638 PUSH2 0x2079 JUMP JUMPDEST PUSH20 0xFFFFFFFFFFFFFFFFFFFFFFFFFFFFFFFFFFFFFFFF AND PUSH2 0x1656 PUSH2 0x1016 JUMP JUMPDEST PUSH20 0xFFFFFFFFFFFFFFFFFFFFFFFFFFFFFFFFFFFFFFFF AND EQ PUSH2 0x16AC JUMPI PUSH1 0x40 MLOAD PUSH32 0x8C379A000000000000000000000000000000000000000000000000000000000 DUP2 MSTORE PUSH1 0x4 ADD PUSH2 0x16A3 SWAP1 PUSH2 0x2BAC JUMP JUMPDEST PUSH1 0x40 MLOAD DUP1 SWAP2 SUB SWAP1 REVERT JUMPDEST JUMP JUMPDEST PUSH1 0x0 DUP1 PUSH2 0x16BA DUP4 PUSH2 0x176B JUMP JUMPDEST SWAP2 POP SWAP2 POP DUP2 PUSH1 0xD PUSH1 0x0 DUP6 PUSH20 0xFFFFFFFFFFFFFFFFFFFFFFFFFFFFFFFFFFFFFFFF AND PUSH20 0xFFFFFFFFFFFFFFFFFFFFFFFFFFFFFFFFFFFFFFFF AND DUP2 MSTORE PUSH1 0x20 ADD SWAP1 DUP2 MSTORE PUSH1 0x20 ADD PUSH1 0x0 KECCAK256 PUSH1 0x1 ADD PUSH1 0x0 DUP3 DUP3 SLOAD PUSH2 0x1710 SWAP2 SWAP1 PUSH2 0x2732 JUMP JUMPDEST SWAP3 POP POP DUP2 SWAP1 SSTORE POP DUP1 PUSH1 0xD PUSH1 0x0 DUP6 PUSH20 0xFFFFFFFFFFFFFFFFFFFFFFFFFFFFFFFFFFFFFFFF AND PUSH20 0xFFFFFFFFFFFFFFFFFFFFFFFFFFFFFFFFFFFFFFFF AND DUP2 MSTORE PUSH1 0x20 ADD SWAP1 DUP2 MSTORE PUSH1 0x20 ADD PUSH1 0x0 KECCAK256 PUSH1 0x3 ADD DUP2 SWAP1 SSTORE POP POP POP POP JUMP JUMPDEST PUSH1 0x0 TIMESTAMP SWAP1 POP SWAP1 JUMP JUMPDEST PUSH1 0x0 DUP1 PUSH1 0x0 DUP1 PUSH1 0xD PUSH1 0x0 DUP7 PUSH20 0xFFFFFFFFFFFFFFFFFFFFFFFFFFFFFFFFFFFFFFFF AND PUSH20 0xFFFFFFFFFFFFFFFFFFFFFFFFFFFFFFFFFFFFFFFF AND DUP2 MSTORE PUSH1 0x20 ADD SWAP1 DUP2 MSTORE PUSH1 0x20 ADD PUSH1 0x0 KECCAK256 PUSH1 0x3 ADD SLOAD SWAP1 POP PUSH1 0x0 PUSH2 0x17C0 PUSH2 0x1763 JUMP JUMPDEST SWAP1 POP PUSH1 0x9 SLOAD PUSH1 0xD PUSH1 0x0 DUP9 PUSH20 0xFFFFFFFFFFFFFFFFFFFFFFFFFFFFFFFFFFFFFFFF AND PUSH20 0xFFFFFFFFFFFFFFFFFFFFFFFFFFFFFFFFFFFFFFFF AND DUP2 MSTORE PUSH1 0x20 ADD SWAP1 DUP2 MSTORE PUSH1 0x20 ADD PUSH1 0x0 KECCAK256 PUSH1 0x2 ADD SLOAD PUSH2 0x1812 SWAP2 SWAP1 PUSH2 0x2732 JUMP JUMPDEST DUP2 GT ISZERO PUSH2 0x186C JUMPI PUSH1 0x9 SLOAD PUSH1 0xD PUSH1 0x0 DUP9 PUSH20 0xFFFFFFFFFFFFFFFFFFFFFFFFFFFFFFFFFFFFFFFF AND PUSH20 0xFFFFFFFFFFFFFFFFFFFFFFFFFFFFFFFFFFFFFFFF AND DUP2 MSTORE PUSH1 0x20 ADD SWAP1 DUP2 MSTORE PUSH1 0x20 ADD PUSH1 0x0 KECCAK256 PUSH1 0x2 ADD SLOAD PUSH2 0x1869 SWAP2 SWAP1 PUSH2 0x2732 JUMP JUMPDEST SWAP1 POP JUMPDEST PUSH1 0x0 DUP3 DUP3 PUSH2 0x187A SWAP2 SWAP1 PUSH2 0x2808 JUMP JUMPDEST SWAP1 POP PUSH2 0x2710 PUSH4 0x1E13380 PUSH1 0xC SLOAD PUSH1 0xD PUSH1 0x0 DUP12 PUSH20 0xFFFFFFFFFFFFFFFFFFFFFFFFFFFFFFFFFFFFFFFF AND PUSH20 0xFFFFFFFFFFFFFFFFFFFFFFFFFFFFFFFFFFFFFFFF AND DUP2 MSTORE PUSH1 0x20 ADD SWAP1 DUP2 MSTORE PUSH1 0x20 ADD PUSH1 0x0 KECCAK256 PUSH1 0x0 ADD SLOAD DUP5 PUSH2 0x18D5 SWAP2 SWAP1 PUSH2 0x2766 JUMP JUMPDEST PUSH2 0x18DF SWAP2 SWAP1 PUSH2 0x2766 JUMP JUMPDEST PUSH2 0x18E9 SWAP2 SWAP1 PUSH2 0x27D7 JUMP JUMPDEST PUSH2 0x18F3 SWAP2 SWAP1 PUSH2 0x27D7 JUMP JUMPDEST DUP5 PUSH2 0x18FE SWAP2 SWAP1 PUSH2 0x2732 JUMP JUMPDEST SWAP4 POP DUP4 DUP3 SWAP6 POP SWAP6 POP POP POP POP POP SWAP2 POP SWAP2 JUMP JUMPDEST PUSH1 0xB PUSH1 0x0 SWAP1 SLOAD SWAP1 PUSH2 0x100 EXP SWAP1 DIV PUSH1 0xFF AND ISZERO PUSH2 0x195F JUMPI PUSH1 0x40 MLOAD PUSH32 0x8C379A000000000000000000000000000000000000000000000000000000000 DUP2 MSTORE PUSH1 0x4 ADD PUSH2 0x1956 SWAP1 PUSH2 0x2C18 JUMP JUMPDEST PUSH1 0x40 MLOAD DUP1 SWAP2 SUB SWAP1 REVERT JUMPDEST PUSH1 0x0 PUSH2 0x1969 PUSH2 0x1763 JUMP JUMPDEST SWAP1 POP PUSH1 0x6 SLOAD DUP2 GT PUSH2 0x19AF JUMPI PUSH1 0x40 MLOAD PUSH32 0x8C379A000000000000000000000000000000000000000000000000000000000 DUP2 MSTORE PUSH1 0x4 ADD PUSH2 0x19A6 SWAP1 PUSH2 0x2CAA JUMP JUMPDEST PUSH1 0x40 MLOAD DUP1 SWAP2 SUB SWAP1 REVERT JUMPDEST PUSH1 0x5 SLOAD DUP2 LT PUSH2 0x19F3 JUMPI PUSH1 0x40 MLOAD PUSH32 0x8C379A000000000000000000000000000000000000000000000000000000000 DUP2 MSTORE PUSH1 0x4 ADD PUSH2 0x19EA SWAP1 PUSH2 0x2D16 JUMP JUMPDEST PUSH1 0x40 MLOAD DUP1 SWAP2 SUB SWAP1 REVERT JUMPDEST PUSH1 0x4 SLOAD DUP4 PUSH1 0x7 SLOAD PUSH2 0x1A04 SWAP2 SWAP1 PUSH2 0x2732 JUMP JUMPDEST GT ISZERO PUSH2 0x1A45 JUMPI PUSH1 0x40 MLOAD PUSH32 0x8C379A000000000000000000000000000000000000000000000000000000000 DUP2 MSTORE PUSH1 0x4 ADD PUSH2 0x1A3C SWAP1 PUSH2 0x2DA8 JUMP JUMPDEST PUSH1 0x40 MLOAD DUP1 SWAP2 SUB SWAP1 REVERT JUMPDEST PUSH1 0x0 DUP4 GT PUSH2 0x1A88 JUMPI PUSH1 0x40 MLOAD PUSH32 0x8C379A000000000000000000000000000000000000000000000000000000000 DUP2 MSTORE PUSH1 0x4 ADD PUSH2 0x1A7F SWAP1 PUSH2 0x2E3A JUMP JUMPDEST PUSH1 0x40 MLOAD DUP1 SWAP2 SUB SWAP1 REVERT JUMPDEST PUSH1 0x3 SLOAD DUP4 LT ISZERO PUSH2 0x1ACD JUMPI PUSH1 0x40 MLOAD PUSH32 0x8C379A000000000000000000000000000000000000000000000000000000000 DUP2 MSTORE PUSH1 0x4 ADD PUSH2 0x1AC4 SWAP1 PUSH2 0x2EF2 JUMP JUMPDEST PUSH1 0x40 MLOAD DUP1 SWAP2 SUB SWAP1 REVERT JUMPDEST PUSH1 0x0 PUSH1 0xD PUSH1 0x0 DUP5 PUSH20 0xFFFFFFFFFFFFFFFFFFFFFFFFFFFFFFFFFFFFFFFF AND PUSH20 0xFFFFFFFFFFFFFFFFFFFFFFFFFFFFFFFFFFFFFFFF AND DUP2 MSTORE PUSH1 0x20 ADD SWAP1 DUP2 MSTORE PUSH1 0x20 ADD PUSH1 0x0 KECCAK256 PUSH1 0x0 ADD SLOAD EQ PUSH2 0x1B25 JUMPI PUSH2 0x1B20 DUP3 PUSH2 0x16AE JUMP JUMPDEST PUSH2 0x1B87 JUMP JUMPDEST DUP1 PUSH1 0xD PUSH1 0x0 DUP5 PUSH20 0xFFFFFFFFFFFFFFFFFFFFFFFFFFFFFFFFFFFFFFFF AND PUSH20 0xFFFFFFFFFFFFFFFFFFFFFFFFFFFFFFFFFFFFFFFF AND DUP2 MSTORE PUSH1 0x20 ADD SWAP1 DUP2 MSTORE PUSH1 0x20 ADD PUSH1 0x0 KECCAK256 PUSH1 0x3 ADD DUP2 SWAP1 SSTORE POP PUSH1 0x1 PUSH1 0x8 PUSH1 0x0 DUP3 DUP3 SLOAD PUSH2 0x1B7F SWAP2 SWAP1 PUSH2 0x2732 JUMP JUMPDEST SWAP3 POP POP DUP2 SWAP1 SSTORE POP JUMPDEST DUP3 PUSH1 0xD PUSH1 0x0 DUP5 PUSH20 0xFFFFFFFFFFFFFFFFFFFFFFFFFFFFFFFFFFFFFFFF AND PUSH20 0xFFFFFFFFFFFFFFFFFFFFFFFFFFFFFFFFFFFFFFFF AND DUP2 MSTORE PUSH1 0x20 ADD SWAP1 DUP2 MSTORE PUSH1 0x20 ADD PUSH1 0x0 KECCAK256 PUSH1 0x0 ADD PUSH1 0x0 DUP3 DUP3 SLOAD PUSH2 0x1BD9 SWAP2 SWAP1 PUSH2 0x2732 JUMP JUMPDEST SWAP3 POP POP DUP2 SWAP1 SSTORE POP DUP1 PUSH1 0xD PUSH1 0x0 DUP5 PUSH20 0xFFFFFFFFFFFFFFFFFFFFFFFFFFFFFFFFFFFFFFFF AND PUSH20 0xFFFFFFFFFFFFFFFFFFFFFFFFFFFFFFFFFFFFFFFF AND DUP2 MSTORE PUSH1 0x20 ADD SWAP1 DUP2 MSTORE PUSH1 0x20 ADD PUSH1 0x0 KECCAK256 PUSH1 0x2 ADD DUP2 SWAP1 SSTORE POP DUP3 PUSH1 0x7 PUSH1 0x0 DUP3 DUP3 SLOAD PUSH2 0x1C39 SWAP2 SWAP1 PUSH2 0x2732 JUMP JUMPDEST SWAP3 POP POP DUP2 SWAP1 SSTORE POP PUSH1 0xB PUSH1 0x1 SWAP1 SLOAD SWAP1 PUSH2 0x100 EXP SWAP1 DIV PUSH20 0xFFFFFFFFFFFFFFFFFFFFFFFFFFFFFFFFFFFFFFFF AND PUSH20 0xFFFFFFFFFFFFFFFFFFFFFFFFFFFFFFFFFFFFFFFF AND PUSH4 0x23B872DD CALLER ADDRESS DUP7 PUSH1 0x40 MLOAD DUP5 PUSH4 0xFFFFFFFF AND PUSH1 0xE0 SHL DUP2 MSTORE PUSH1 0x4 ADD PUSH2 0x1C9F SWAP4 SWAP3 SWAP2 SWAP1 PUSH2 0x2F12 JUMP JUMPDEST PUSH1 0x20 PUSH1 0x40 MLOAD DUP1 DUP4 SUB DUP2 PUSH1 0x0 DUP8 GAS CALL ISZERO DUP1 ISZERO PUSH2 0x1CBE JUMPI RETURNDATASIZE PUSH1 0x0 DUP1 RETURNDATACOPY RETURNDATASIZE PUSH1 0x0 REVERT JUMPDEST POP POP POP POP PUSH1 0x40 MLOAD RETURNDATASIZE PUSH1 0x1F NOT PUSH1 0x1F DUP3 ADD AND DUP3 ADD DUP1 PUSH1 0x40 MSTORE POP DUP2 ADD SWAP1 PUSH2 0x1CE2 SWAP2 SWAP1 PUSH2 0x25D8 JUMP JUMPDEST PUSH2 0x1D21 JUMPI PUSH1 0x40 MLOAD PUSH32 0x8C379A000000000000000000000000000000000000000000000000000000000 DUP2 MSTORE PUSH1 0x4 ADD PUSH2 0x1D18 SWAP1 PUSH2 0x2FBB JUMP JUMPDEST PUSH1 0x40 MLOAD DUP1 SWAP2 SUB SWAP1 REVERT JUMPDEST DUP2 PUSH20 0xFFFFFFFFFFFFFFFFFFFFFFFFFFFFFFFFFFFFFFFF AND PUSH32 0xEBEDB8B3C678666E7F36970BC8F57ABF6D8FA2E828C0DA91EA5B75BF68ED101A DUP5 PUSH1 0x40 MLOAD PUSH2 0x1D67 SWAP2 SWAP1 PUSH2 0x20C9 JUMP JUMPDEST PUSH1 0x40 MLOAD DUP1 SWAP2 SUB SWAP1 LOG2 POP POP POP JUMP JUMPDEST PUSH1 0x0 DUP1 PUSH1 0x0 SWAP1 SLOAD SWAP1 PUSH2 0x100 EXP SWAP1 DIV PUSH20 0xFFFFFFFFFFFFFFFFFFFFFFFFFFFFFFFFFFFFFFFF AND SWAP1 POP DUP2 PUSH1 0x0 DUP1 PUSH2 0x100 EXP DUP2 SLOAD DUP2 PUSH20 0xFFFFFFFFFFFFFFFFFFFFFFFFFFFFFFFFFFFFFFFF MUL NOT AND SWAP1 DUP4 PUSH20 0xFFFFFFFFFFFFFFFFFFFFFFFFFFFFFFFFFFFFFFFF AND MUL OR SWAP1 SSTORE POP DUP2 PUSH20 0xFFFFFFFFFFFFFFFFFFFFFFFFFFFFFFFFFFFFFFFF AND DUP2 PUSH20 0xFFFFFFFFFFFFFFFFFFFFFFFFFFFFFFFFFFFFFFFF AND PUSH32 0x8BE0079C531659141344CD1FD0A4F28419497F9722A3DAAFE3B4186F6B6457E0 PUSH1 0x40 MLOAD PUSH1 0x40 MLOAD DUP1 SWAP2 SUB SWAP1 LOG3 POP POP JUMP JUMPDEST PUSH1 0x0 DUP1 DUP3 PUSH20 0xFFFFFFFFFFFFFFFFFFFFFFFFFFFFFFFFFFFFFFFF AND EXTCODESIZE GT SWAP1 POP SWAP2 SWAP1 POP JUMP JUMPDEST PUSH1 0x2 PUSH1 0x1 SWAP1 SLOAD SWAP1 PUSH2 0x100 EXP SWAP1 DIV PUSH1 0xFF AND PUSH2 0x1EAA JUMPI PUSH1 0x40 MLOAD PUSH32 0x8C379A000000000000000000000000000000000000000000000000000000000 DUP2 MSTORE PUSH1 0x4 ADD PUSH2 0x1EA1 SWAP1 PUSH2 0x304D JUMP JUMPDEST PUSH1 0x40 MLOAD DUP1 SWAP2 SUB SWAP1 REVERT JUMPDEST PUSH2 0x2710 PUSH1 0xC SLOAD GT ISZERO PUSH2 0x1EF1 JUMPI PUSH1 0x40 MLOAD PUSH32 0x8C379A000000000000000000000000000000000000000000000000000000000 DUP2 MSTORE PUSH1 0x4 ADD PUSH2 0x1EE8 SWAP1 PUSH2 0x30DF JUMP JUMPDEST PUSH1 0x40 MLOAD DUP1 SWAP2 SUB SWAP1 REVERT JUMPDEST PUSH1 0x0 DUP3 GT PUSH2 0x1F34 JUMPI PUSH1 0x40 MLOAD PUSH32 0x8C379A000000000000000000000000000000000000000000000000000000000 DUP2 MSTORE PUSH1 0x4 ADD PUSH2 0x1F2B SWAP1 PUSH2 0x3171 JUMP JUMPDEST PUSH1 0x40 MLOAD DUP1 SWAP2 SUB SWAP1 REVERT JUMPDEST PUSH1 0x0 PUSH20 0xFFFFFFFFFFFFFFFFFFFFFFFFFFFFFFFFFFFFFFFF AND DUP9 PUSH20 0xFFFFFFFFFFFFFFFFFFFFFFFFFFFFFFFFFFFFFFFF AND SUB PUSH2 0x1FA3 JUMPI PUSH1 0x40 MLOAD PUSH32 0x8C379A000000000000000000000000000000000000000000000000000000000 DUP2 MSTORE PUSH1 0x4 ADD PUSH2 0x1F9A SWAP1 PUSH2 0x3203 JUMP JUMPDEST PUSH1 0x40 MLOAD DUP1 SWAP2 SUB SWAP1 REVERT JUMPDEST DUP3 DUP5 LT PUSH2 0x1FE5 JUMPI PUSH1 0x40 MLOAD PUSH32 0x8C379A000000000000000000000000000000000000000000000000000000000 DUP2 MSTORE PUSH1 0x4 ADD PUSH2 0x1FDC SWAP1 PUSH2 0x3295 JUMP JUMPDEST PUSH1 0x40 MLOAD DUP1 SWAP2 SUB SWAP1 REVERT JUMPDEST PUSH2 0x1FEE DUP10 PUSH2 0x1D74 JUMP JUMPDEST DUP8 PUSH1 0xB PUSH1 0x1 PUSH2 0x100 EXP DUP2 SLOAD DUP2 PUSH20 0xFFFFFFFFFFFFFFFFFFFFFFFFFFFFFFFFFFFFFFFF MUL NOT AND SWAP1 DUP4 PUSH20 0xFFFFFFFFFFFFFFFFFFFFFFFFFFFFFFFFFFFFFFFF AND MUL OR SWAP1 SSTORE POP DUP7 PUSH1 0xC DUP2 SWAP1 SSTORE POP DUP6 PUSH1 0x3 DUP2 SWAP1 SSTORE POP DUP5 PUSH1 0x4 DUP2 SWAP1 SSTORE POP DUP4 PUSH1 0x6 DUP2 SWAP1 SSTORE POP DUP3 PUSH1 0x5 DUP2 SWAP1 SSTORE POP PUSH3 0x15180 DUP3 PUSH2 0x2061 SWAP2 SWAP1 PUSH2 0x2766 JUMP JUMPDEST PUSH1 0x9 DUP2 SWAP1 SSTORE POP DUP1 PUSH1 0xA DUP2 SWAP1 SSTORE POP POP POP POP POP POP POP POP POP POP JUMP JUMPDEST PUSH1 0x0 CALLER SWAP1 POP SWAP1 JUMP JUMPDEST PUSH1 0x40 MLOAD DUP1 PUSH1 0xA0 ADD PUSH1 0x40 MSTORE DUP1 PUSH1 0x0 DUP2 MSTORE PUSH1 0x20 ADD PUSH1 0x0 DUP2 MSTORE PUSH1 0x20 ADD PUSH1 0x0 DUP2 MSTORE PUSH1 0x20 ADD PUSH1 0x0 DUP2 MSTORE PUSH1 0x20 ADD PUSH1 0x0 DUP2 MSTORE POP SWAP1 JUMP JUMPDEST PUSH1 0x0 DUP2 SWAP1 POP SWAP2 SWAP1 POP JUMP JUMPDEST PUSH2 0x20C3 DUP2 PUSH2 0x20B0 JUMP JUMPDEST DUP3 MSTORE POP POP JUMP JUMPDEST PUSH1 0x0 PUSH1 0x20 DUP3 ADD SWAP1 POP PUSH2 0x20DE PUSH1 0x0 DUP4 ADD DUP5 PUSH2 0x20BA JUMP JUMPDEST SWAP3 SWAP2 POP POP JUMP JUMPDEST PUSH1 0x0 DUP1 REVERT JUMPDEST PUSH2 0x20F2 DUP2 PUSH2 0x20B0 JUMP JUMPDEST DUP2 EQ PUSH2 0x20FD JUMPI PUSH1 0x0 DUP1 REVERT JUMPDEST POP JUMP JUMPDEST PUSH1 0x0 DUP2 CALLDATALOAD SWAP1 POP PUSH2 0x210F DUP2 PUSH2 0x20E9 JUMP JUMPDEST SWAP3 SWAP2 POP POP JUMP JUMPDEST PUSH1 0x0 PUSH1 0x20 DUP3 DUP5 SUB SLT ISZERO PUSH2 0x212B JUMPI PUSH2 0x212A PUSH2 0x20E4 JUMP JUMPDEST JUMPDEST PUSH1 0x0 PUSH2 0x2139 DUP5 DUP3 DUP6 ADD PUSH2 0x2100 JUMP JUMPDEST SWAP2 POP POP SWAP3 SWAP2 POP POP JUMP JUMPDEST PUSH1 0x0 PUSH20 0xFFFFFFFFFFFFFFFFFFFFFFFFFFFFFFFFFFFFFFFF DUP3 AND SWAP1 POP SWAP2 SWAP1 POP JUMP JUMPDEST PUSH1 0x0 PUSH2 0x216D DUP3 PUSH2 0x2142 JUMP JUMPDEST SWAP1 POP SWAP2 SWAP1 POP JUMP JUMPDEST PUSH2 0x217D DUP2 PUSH2 0x2162 JUMP JUMPDEST DUP2 EQ PUSH2 0x2188 JUMPI PUSH1 0x0 DUP1 REVERT JUMPDEST POP JUMP JUMPDEST PUSH1 0x0 DUP2 CALLDATALOAD SWAP1 POP PUSH2 0x219A DUP2 PUSH2 0x2174 JUMP JUMPDEST SWAP3 SWAP2 POP POP JUMP JUMPDEST PUSH1 0x0 PUSH1 0x20 DUP3 DUP5 SUB SLT ISZERO PUSH2 0x21B6 JUMPI PUSH2 0x21B5 PUSH2 0x20E4 JUMP JUMPDEST JUMPDEST PUSH1 0x0 PUSH2 0x21C4 DUP5 DUP3 DUP6 ADD PUSH2 0x218B JUMP JUMPDEST SWAP2 POP POP SWAP3 SWAP2 POP POP JUMP JUMPDEST PUSH1 0x0 DUP2 ISZERO ISZERO SWAP1 POP SWAP2 SWAP1 POP JUMP JUMPDEST PUSH2 0x21E2 DUP2 PUSH2 0x21CD JUMP JUMPDEST DUP3 MSTORE POP POP JUMP JUMPDEST PUSH1 0x0 PUSH1 0x20 DUP3 ADD SWAP1 POP PUSH2 0x21FD PUSH1 0x0 DUP4 ADD DUP5 PUSH2 0x21D9 JUMP JUMPDEST SWAP3 SWAP2 POP POP JUMP JUMPDEST PUSH2 0x220C DUP2 PUSH2 0x20B0 JUMP JUMPDEST DUP3 MSTORE POP POP JUMP JUMPDEST PUSH1 0xA0 DUP3 ADD PUSH1 0x0 DUP3 ADD MLOAD PUSH2 0x2228 PUSH1 0x0 DUP6 ADD DUP3 PUSH2 0x2203 JUMP JUMPDEST POP PUSH1 0x20 DUP3 ADD MLOAD PUSH2 0x223B PUSH1 0x20 DUP6 ADD DUP3 PUSH2 0x2203 JUMP JUMPDEST POP PUSH1 0x40 DUP3 ADD MLOAD PUSH2 0x224E PUSH1 0x40 DUP6 ADD DUP3 PUSH2 0x2203 JUMP JUMPDEST POP PUSH1 0x60 DUP3 ADD MLOAD PUSH2 0x2261 PUSH1 0x60 DUP6 ADD DUP3 PUSH2 0x2203 JUMP JUMPDEST POP PUSH1 0x80 DUP3 ADD MLOAD PUSH2 0x2274 PUSH1 0x80 DUP6 ADD DUP3 PUSH2 0x2203 JUMP JUMPDEST POP POP POP POP JUMP JUMPDEST PUSH1 0x0 PUSH1 0xA0 DUP3 ADD SWAP1 POP PUSH2 0x228F PUSH1 0x0 DUP4 ADD DUP5 PUSH2 0x2212 JUMP JUMPDEST SWAP3 SWAP2 POP POP JUMP JUMPDEST PUSH1 0x0 DUP1 PUSH1 0x40 DUP4 DUP6 SUB SLT ISZERO PUSH2 0x22AC JUMPI PUSH2 0x22AB PUSH2 0x20E4 JUMP JUMPDEST JUMPDEST PUSH1 0x0 PUSH2 0x22BA DUP6 DUP3 DUP7 ADD PUSH2 0x2100 JUMP JUMPDEST SWAP3 POP POP PUSH1 0x20 PUSH2 0x22CB DUP6 DUP3 DUP7 ADD PUSH2 0x218B JUMP JUMPDEST SWAP2 POP POP SWAP3 POP SWAP3 SWAP1 POP JUMP JUMPDEST PUSH1 0x0 DUP1 PUSH1 0x0 DUP1 PUSH1 0x0 DUP1 PUSH1 0x0 DUP1 PUSH1 0x0 PUSH2 0x120 DUP11 DUP13 SUB SLT ISZERO PUSH2 0x22F8 JUMPI PUSH2 0x22F7 PUSH2 0x20E4 JUMP JUMPDEST JUMPDEST PUSH1 0x0 PUSH2 0x2306 DUP13 DUP3 DUP14 ADD PUSH2 0x218B JUMP JUMPDEST SWAP10 POP POP PUSH1 0x20 PUSH2 0x2317 DUP13 DUP3 DUP14 ADD PUSH2 0x218B JUMP JUMPDEST SWAP9 POP POP PUSH1 0x40 PUSH2 0x2328 DUP13 DUP3 DUP14 ADD PUSH2 0x2100 JUMP JUMPDEST SWAP8 POP POP PUSH1 0x60 PUSH2 0x2339 DUP13 DUP3 DUP14 ADD PUSH2 0x2100 JUMP JUMPDEST SWAP7 POP POP PUSH1 0x80 PUSH2 0x234A DUP13 DUP3 DUP14 ADD PUSH2 0x2100 JUMP JUMPDEST SWAP6 POP POP PUSH1 0xA0 PUSH2 0x235B DUP13 DUP3 DUP14 ADD PUSH2 0x2100 JUMP JUMPDEST SWAP5 POP POP PUSH1 0xC0 PUSH2 0x236C DUP13 DUP3 DUP14 ADD PUSH2 0x2100 JUMP JUMPDEST SWAP4 POP POP PUSH1 0xE0 PUSH2 0x237D DUP13 DUP3 DUP14 ADD PUSH2 0x2100 JUMP JUMPDEST SWAP3 POP POP PUSH2 0x100 PUSH2 0x238F DUP13 DUP3 DUP14 ADD PUSH2 0x2100 JUMP JUMPDEST SWAP2 POP POP SWAP3 SWAP6 SWAP9 POP SWAP3 SWAP6 SWAP9 POP SWAP3 SWAP6 SWAP9 JUMP JUMPDEST PUSH2 0x23A8 DUP2 PUSH2 0x2162 JUMP JUMPDEST DUP3 MSTORE POP POP JUMP JUMPDEST PUSH1 0x0 PUSH1 0x20 DUP3 ADD SWAP1 POP PUSH2 0x23C3 PUSH1 0x0 DUP4 ADD DUP5 PUSH2 0x239F JUMP JUMPDEST SWAP3 SWAP2 POP POP JUMP JUMPDEST PUSH1 0x0 DUP3 DUP3 MSTORE PUSH1 0x20 DUP3 ADD SWAP1 POP SWAP3 SWAP2 POP POP JUMP JUMPDEST PUSH32 0x5265656E7472616E637947756172643A207265656E7472616E742063616C6C00 PUSH1 0x0 DUP3 ADD MSTORE POP JUMP JUMPDEST PUSH1 0x0 PUSH2 0x2410 PUSH1 0x1F DUP4 PUSH2 0x23C9 JUMP JUMPDEST SWAP2 POP PUSH2 0x241B DUP3 PUSH2 0x23DA JUMP JUMPDEST PUSH1 0x20 DUP3 ADD SWAP1 POP SWAP2 SWAP1 POP JUMP JUMPDEST PUSH1 0x0 PUSH1 0x20 DUP3 ADD SWAP1 POP DUP2 DUP2 SUB PUSH1 0x0 DUP4 ADD MSTORE PUSH2 0x243F DUP2 PUSH2 0x2403 JUMP JUMPDEST SWAP1 POP SWAP2 SWAP1 POP JUMP JUMPDEST PUSH1 0x0 DUP2 MLOAD SWAP1 POP PUSH2 0x2455 DUP2 PUSH2 0x20E9 JUMP JUMPDEST SWAP3 SWAP2 POP POP JUMP JUMPDEST PUSH1 0x0 PUSH1 0x20 DUP3 DUP5 SUB SLT ISZERO PUSH2 0x2471 JUMPI PUSH2 0x2470 PUSH2 0x20E4 JUMP JUMPDEST JUMPDEST PUSH1 0x0 PUSH2 0x247F DUP5 DUP3 DUP6 ADD PUSH2 0x2446 JUMP JUMPDEST SWAP2 POP POP SWAP3 SWAP2 POP POP JUMP JUMPDEST PUSH32 0x546F6B656E5374616B696E673A20696E73756666696369656E742066756E6473 PUSH1 0x0 DUP3 ADD MSTORE PUSH32 0x20696E2074686520747265617375727900000000000000000000000000000000 PUSH1 0x20 DUP3 ADD MSTORE POP JUMP JUMPDEST PUSH1 0x0 PUSH2 0x24E4 PUSH1 0x30 DUP4 PUSH2 0x23C9 JUMP JUMPDEST SWAP2 POP PUSH2 0x24EF DUP3 PUSH2 0x2488 JUMP JUMPDEST PUSH1 0x40 DUP3 ADD SWAP1 POP SWAP2 SWAP1 POP JUMP JUMPDEST PUSH1 0x0 PUSH1 0x20 DUP3 ADD SWAP1 POP DUP2 DUP2 SUB PUSH1 0x0 DUP4 ADD MSTORE PUSH2 0x2513 DUP2 PUSH2 0x24D7 JUMP JUMPDEST SWAP1 POP SWAP2 SWAP1 POP JUMP JUMPDEST PUSH32 0x546F6B656E5374616B696E673A20616D6F756E742073686F756C64206265206E PUSH1 0x0 DUP3 ADD MSTORE PUSH32 0x6F6E2D7A65726F00000000000000000000000000000000000000000000000000 PUSH1 0x20 DUP3 ADD MSTORE POP JUMP JUMPDEST PUSH1 0x0 PUSH2 0x2576 PUSH1 0x27 DUP4 PUSH2 0x23C9 JUMP JUMPDEST SWAP2 POP PUSH2 0x2581 DUP3 PUSH2 0x251A JUMP JUMPDEST PUSH1 0x40 DUP3 ADD SWAP1 POP SWAP2 SWAP1 POP JUMP JUMPDEST PUSH1 0x0 PUSH1 0x20 DUP3 ADD SWAP1 POP DUP2 DUP2 SUB PUSH1 0x0 DUP4 ADD MSTORE PUSH2 0x25A5 DUP2 PUSH2 0x2569 JUMP JUMPDEST SWAP1 POP SWAP2 SWAP1 POP JUMP JUMPDEST PUSH2 0x25B5 DUP2 PUSH2 0x21CD JUMP JUMPDEST DUP2 EQ PUSH2 0x25C0 JUMPI PUSH1 0x0 DUP1 REVERT JUMPDEST POP JUMP JUMPDEST PUSH1 0x0 DUP2 MLOAD SWAP1 POP PUSH2 0x25D2 DUP2 PUSH2 0x25AC JUMP JUMPDEST SWAP3 SWAP2 POP POP JUMP JUMPDEST PUSH1 0x0 PUSH1 0x20 DUP3 DUP5 SUB SLT ISZERO PUSH2 0x25EE JUMPI PUSH2 0x25ED PUSH2 0x20E4 JUMP JUMPDEST JUMPDEST PUSH1 0x0 PUSH2 0x25FC DUP5 DUP3 DUP6 ADD PUSH2 0x25C3 JUMP JUMPDEST SWAP2 POP POP SWAP3 SWAP2 POP POP JUMP JUMPDEST PUSH32 0x546F6B656E5374616B696E673A206E6F742061207374616B65686F6C64657200 PUSH1 0x0 DUP3 ADD MSTORE POP JUMP JUMPDEST PUSH1 0x0 PUSH2 0x263B PUSH1 0x1F DUP4 PUSH2 0x23C9 JUMP JUMPDEST SWAP2 POP PUSH2 0x2646 DUP3 PUSH2 0x2605 JUMP JUMPDEST PUSH1 0x20 DUP3 ADD SWAP1 POP SWAP2 SWAP1 POP JUMP JUMPDEST PUSH1 0x0 PUSH1 0x20 DUP3 ADD SWAP1 POP DUP2 DUP2 SUB PUSH1 0x0 DUP4 ADD MSTORE PUSH2 0x266A DUP2 PUSH2 0x262E JUMP JUMPDEST SWAP1 POP SWAP2 SWAP1 POP JUMP JUMPDEST PUSH32 0x546F6B656E5374616B696E673A206E6F7420656E6F756768207374616B652074 PUSH1 0x0 DUP3 ADD MSTORE PUSH32 0x6F20756E7374616B650000000000000000000000000000000000000000000000 PUSH1 0x20 DUP3 ADD MSTORE POP JUMP JUMPDEST PUSH1 0x0 PUSH2 0x26CD PUSH1 0x29 DUP4 PUSH2 0x23C9 JUMP JUMPDEST SWAP2 POP PUSH2 0x26D8 DUP3 PUSH2 0x2671 JUMP JUMPDEST PUSH1 0x40 DUP3 ADD SWAP1 POP SWAP2 SWAP1 POP JUMP JUMPDEST PUSH1 0x0 PUSH1 0x20 DUP3 ADD SWAP1 POP DUP2 DUP2 SUB PUSH1 0x0 DUP4 ADD MSTORE PUSH2 0x26FC DUP2 PUSH2 0x26C0 JUMP JUMPDEST SWAP1 POP SWAP2 SWAP1 POP JUMP JUMPDEST PUSH32 0x4E487B7100000000000000000000000000000000000000000000000000000000 PUSH1 0x0 MSTORE PUSH1 0x11 PUSH1 0x4 MSTORE PUSH1 0x24 PUSH1 0x0 REVERT JUMPDEST PUSH1 0x0 PUSH2 0x273D DUP3 PUSH2 0x20B0 JUMP JUMPDEST SWAP2 POP PUSH2 0x2748 DUP4 PUSH2 0x20B0 JUMP JUMPDEST SWAP3 POP DUP3 DUP3 ADD SWAP1 POP DUP1 DUP3 GT ISZERO PUSH2 0x2760 JUMPI PUSH2 0x275F PUSH2 0x2703 JUMP JUMPDEST JUMPDEST SWAP3 SWAP2 POP POP JUMP JUMPDEST PUSH1 0x0 PUSH2 0x2771 DUP3 PUSH2 0x20B0 JUMP JUMPDEST SWAP2 POP PUSH2 0x277C DUP4 PUSH2 0x20B0 JUMP JUMPDEST SWAP3 POP DUP3 DUP3 MUL PUSH2 0x278A DUP2 PUSH2 0x20B0 JUMP JUMPDEST SWAP2 POP DUP3 DUP3 DIV DUP5 EQ DUP4 ISZERO OR PUSH2 0x27A1 JUMPI PUSH2 0x27A0 PUSH2 0x2703 JUMP JUMPDEST JUMPDEST POP SWAP3 SWAP2 POP POP JUMP JUMPDEST PUSH32 0x4E487B7100000000000000000000000000000000000000000000000000000000 PUSH1 0x0 MSTORE PUSH1 0x12 PUSH1 0x4 MSTORE PUSH1 0x24 PUSH1 0x0 REVERT JUMPDEST PUSH1 0x0 PUSH2 0x27E2 DUP3 PUSH2 0x20B0 JUMP JUMPDEST SWAP2 POP PUSH2 0x27ED DUP4 PUSH2 0x20B0 JUMP JUMPDEST SWAP3 POP DUP3 PUSH2 0x27FD JUMPI PUSH2 0x27FC PUSH2 0x27A8 JUMP JUMPDEST JUMPDEST DUP3 DUP3 DIV SWAP1 POP SWAP3 SWAP2 POP POP JUMP JUMPDEST PUSH1 0x0 PUSH2 0x2813 DUP3 PUSH2 0x20B0 JUMP JUMPDEST SWAP2 POP PUSH2 0x281E DUP4 PUSH2 0x20B0 JUMP JUMPDEST SWAP3 POP DUP3 DUP3 SUB SWAP1 POP DUP2 DUP2 GT ISZERO PUSH2 0x2836 JUMPI PUSH2 0x2835 PUSH2 0x2703 JUMP JUMPDEST JUMPDEST SWAP3 SWAP2 POP POP JUMP JUMPDEST PUSH1 0x0 PUSH1 0x40 DUP3 ADD SWAP1 POP PUSH2 0x2851 PUSH1 0x0 DUP4 ADD DUP6 PUSH2 0x239F JUMP JUMPDEST PUSH2 0x285E PUSH1 0x20 DUP4 ADD DUP5 PUSH2 0x20BA JUMP JUMPDEST SWAP4 SWAP3 POP POP POP JUMP JUMPDEST PUSH32 0x546F6B656E5374616B696E673A206661696C656420746F207472616E73666572 PUSH1 0x0 DUP3 ADD MSTORE POP JUMP JUMPDEST PUSH1 0x0 PUSH2 0x289B PUSH1 0x20 DUP4 PUSH2 0x23C9 JUMP JUMPDEST SWAP2 POP PUSH2 0x28A6 DUP3 PUSH2 0x2865 JUMP JUMPDEST PUSH1 0x20 DUP3 ADD SWAP1 POP SWAP2 SWAP1 POP JUMP JUMPDEST PUSH1 0x0 PUSH1 0x20 DUP3 ADD SWAP1 POP DUP2 DUP2 SUB PUSH1 0x0 DUP4 ADD MSTORE PUSH2 0x28CA DUP2 PUSH2 0x288E JUMP JUMPDEST SWAP1 POP SWAP2 SWAP1 POP JUMP JUMPDEST PUSH32 0x546F6B656E5374616B696E673A206E6F7420656E6F7567682077697468647261 PUSH1 0x0 DUP3 ADD MSTORE PUSH32 0x7761626C6520746F6B656E730000000000000000000000000000000000000000 PUSH1 0x20 DUP3 ADD MSTORE POP JUMP JUMPDEST PUSH1 0x0 PUSH2 0x292D PUSH1 0x2C DUP4 PUSH2 0x23C9 JUMP JUMPDEST SWAP2 POP PUSH2 0x2938 DUP3 PUSH2 0x28D1 JUMP JUMPDEST PUSH1 0x40 DUP3 ADD SWAP1 POP SWAP2 SWAP1 POP JUMP JUMPDEST PUSH1 0x0 PUSH1 0x20 DUP3 ADD SWAP1 POP DUP2 DUP2 SUB PUSH1 0x0 DUP4 ADD MSTORE PUSH2 0x295C DUP2 PUSH2 0x2920 JUMP JUMPDEST SWAP1 POP SWAP2 SWAP1 POP JUMP JUMPDEST PUSH32 0x496E697469616C697A61626C653A20636F6E747261637420697320616C726561 PUSH1 0x0 DUP3 ADD MSTORE PUSH32 0x647920696E697469616C697A6564000000000000000000000000000000000000 PUSH1 0x20 DUP3 ADD MSTORE POP JUMP JUMPDEST PUSH1 0x0 PUSH2 0x29BF PUSH1 0x2E DUP4 PUSH2 0x23C9 JUMP JUMPDEST SWAP2 POP PUSH2 0x29CA DUP3 PUSH2 0x2963 JUMP JUMPDEST PUSH1 0x40 DUP3 ADD SWAP1 POP SWAP2 SWAP1 POP JUMP JUMPDEST PUSH1 0x0 PUSH1 0x20 DUP3 ADD SWAP1 POP DUP2 DUP2 SUB PUSH1 0x0 DUP4 ADD MSTORE PUSH2 0x29EE DUP2 PUSH2 0x29B2 JUMP JUMPDEST SWAP1 POP SWAP2 SWAP1 POP JUMP JUMPDEST PUSH1 0x0 DUP2 SWAP1 POP SWAP2 SWAP1 POP JUMP JUMPDEST PUSH1 0x0 PUSH1 0xFF DUP3 AND SWAP1 POP SWAP2 SWAP1 POP JUMP JUMPDEST PUSH1 0x0 DUP2 SWAP1 POP SWAP2 SWAP1 POP JUMP JUMPDEST PUSH1 0x0 PUSH2 0x2A31 PUSH2 0x2A2C PUSH2 0x2A27 DUP5 PUSH2 0x29F5 JUMP JUMPDEST PUSH2 0x2A0C JUMP JUMPDEST PUSH2 0x29FF JUMP JUMPDEST SWAP1 POP SWAP2 SWAP1 POP JUMP JUMPDEST PUSH2 0x2A41 DUP2 PUSH2 0x2A16 JUMP JUMPDEST DUP3 MSTORE POP POP JUMP JUMPDEST PUSH1 0x0 PUSH1 0x20 DUP3 ADD SWAP1 POP PUSH2 0x2A5C PUSH1 0x0 DUP4 ADD DUP5 PUSH2 0x2A38 JUMP JUMPDEST SWAP3 SWAP2 POP POP JUMP JUMPDEST PUSH32 0x546F6B656E5374616B696E673A206E6F2072657761726420746F20636C61696D PUSH1 0x0 DUP3 ADD MSTORE POP JUMP JUMPDEST PUSH1 0x0 PUSH2 0x2A98 PUSH1 0x20 DUP4 PUSH2 0x23C9 JUMP JUMPDEST SWAP2 POP PUSH2 0x2AA3 DUP3 PUSH2 0x2A62 JUMP JUMPDEST PUSH1 0x20 DUP3 ADD SWAP1 POP SWAP2 SWAP1 POP JUMP JUMPDEST PUSH1 0x0 PUSH1 0x20 DUP3 ADD SWAP1 POP DUP2 DUP2 SUB PUSH1 0x0 DUP4 ADD MSTORE PUSH2 0x2AC7 DUP2 PUSH2 0x2A8B JUMP JUMPDEST SWAP1 POP SWAP2 SWAP1 POP JUMP JUMPDEST PUSH32 0x4F776E61626C653A206E6577206F776E657220697320746865207A65726F2061 PUSH1 0x0 DUP3 ADD MSTORE PUSH32 0x6464726573730000000000000000000000000000000000000000000000000000 PUSH1 0x20 DUP3 ADD MSTORE POP JUMP JUMPDEST PUSH1 0x0 PUSH2 0x2B2A PUSH1 0x26 DUP4 PUSH2 0x23C9 JUMP JUMPDEST SWAP2 POP PUSH2 0x2B35 DUP3 PUSH2 0x2ACE JUMP JUMPDEST PUSH1 0x40 DUP3 ADD SWAP1 POP SWAP2 SWAP1 POP JUMP JUMPDEST PUSH1 0x0 PUSH1 0x20 DUP3 ADD SWAP1 POP DUP2 DUP2 SUB PUSH1 0x0 DUP4 ADD MSTORE PUSH2 0x2B59 DUP2 PUSH2 0x2B1D JUMP JUMPDEST SWAP1 POP SWAP2 SWAP1 POP JUMP JUMPDEST PUSH32 0x4F776E61626C653A2063616C6C6572206973206E6F7420746865206F776E6572 PUSH1 0x0 DUP3 ADD MSTORE POP JUMP JUMPDEST PUSH1 0x0 PUSH2 0x2B96 PUSH1 0x20 DUP4 PUSH2 0x23C9 JUMP JUMPDEST SWAP2 POP PUSH2 0x2BA1 DUP3 PUSH2 0x2B60 JUMP JUMPDEST PUSH1 0x20 DUP3 ADD SWAP1 POP SWAP2 SWAP1 POP JUMP JUMPDEST PUSH1 0x0 PUSH1 0x20 DUP3 ADD SWAP1 POP DUP2 DUP2 SUB PUSH1 0x0 DUP4 ADD MSTORE PUSH2 0x2BC5 DUP2 PUSH2 0x2B89 JUMP JUMPDEST SWAP1 POP SWAP2 SWAP1 POP JUMP JUMPDEST PUSH32 0x546F6B656E5374616B696E673A207374616B696E672069732070617573656400 PUSH1 0x0 DUP3 ADD MSTORE POP JUMP JUMPDEST PUSH1 0x0 PUSH2 0x2C02 PUSH1 0x1F DUP4 PUSH2 0x23C9 JUMP JUMPDEST SWAP2 POP PUSH2 0x2C0D DUP3 PUSH2 0x2BCC JUMP JUMPDEST PUSH1 0x20 DUP3 ADD SWAP1 POP SWAP2 SWAP1 POP JUMP JUMPDEST PUSH1 0x0 PUSH1 0x20 DUP3 ADD SWAP1 POP DUP2 DUP2 SUB PUSH1 0x0 DUP4 ADD MSTORE PUSH2 0x2C31 DUP2 PUSH2 0x2BF5 JUMP JUMPDEST SWAP1 POP SWAP2 SWAP1 POP JUMP JUMPDEST PUSH32 0x546F6B656E5374616B696E673A207374616B696E67206E6F7420737461727465 PUSH1 0x0 DUP3 ADD MSTORE PUSH32 0x6420796574000000000000000000000000000000000000000000000000000000 PUSH1 0x20 DUP3 ADD MSTORE POP JUMP JUMPDEST PUSH1 0x0 PUSH2 0x2C94 PUSH1 0x25 DUP4 PUSH2 0x23C9 JUMP JUMPDEST SWAP2 POP PUSH2 0x2C9F DUP3 PUSH2 0x2C38 JUMP JUMPDEST PUSH1 0x40 DUP3 ADD SWAP1 POP SWAP2 SWAP1 POP JUMP JUMPDEST PUSH1 0x0 PUSH1 0x20 DUP3 ADD SWAP1 POP DUP2 DUP2 SUB PUSH1 0x0 DUP4 ADD MSTORE PUSH2 0x2CC3 DUP2 PUSH2 0x2C87 JUMP JUMPDEST SWAP1 POP SWAP2 SWAP1 POP JUMP JUMPDEST PUSH32 0x546F6B656E5374616B696E673A207374616B696E6720656E6465640000000000 PUSH1 0x0 DUP3 ADD MSTORE POP JUMP JUMPDEST PUSH1 0x0 PUSH2 0x2D00 PUSH1 0x1B DUP4 PUSH2 0x23C9 JUMP JUMPDEST SWAP2 POP PUSH2 0x2D0B DUP3 PUSH2 0x2CCA JUMP JUMPDEST PUSH1 0x20 DUP3 ADD SWAP1 POP SWAP2 SWAP1 POP JUMP JUMPDEST PUSH1 0x0 PUSH1 0x20 DUP3 ADD SWAP1 POP DUP2 DUP2 SUB PUSH1 0x0 DUP4 ADD MSTORE PUSH2 0x2D2F DUP2 PUSH2 0x2CF3 JUMP JUMPDEST SWAP1 POP SWAP2 SWAP1 POP JUMP JUMPDEST PUSH32 0x546F6B656E5374616B696E673A206D6178207374616B696E6720746F6B656E20 PUSH1 0x0 DUP3 ADD MSTORE PUSH32 0x6C696D6974207265616368656400000000000000000000000000000000000000 PUSH1 0x20 DUP3 ADD MSTORE POP JUMP JUMPDEST PUSH1 0x0 PUSH2 0x2D92 PUSH1 0x2D DUP4 PUSH2 0x23C9 JUMP JUMPDEST SWAP2 POP PUSH2 0x2D9D DUP3 PUSH2 0x2D36 JUMP JUMPDEST PUSH1 0x40 DUP3 ADD SWAP1 POP SWAP2 SWAP1 POP JUMP JUMPDEST PUSH1 0x0 PUSH1 0x20 DUP3 ADD SWAP1 POP DUP2 DUP2 SUB PUSH1 0x0 DUP4 ADD MSTORE PUSH2 0x2DC1 DUP2 PUSH2 0x2D85 JUMP JUMPDEST SWAP1 POP SWAP2 SWAP1 POP JUMP JUMPDEST PUSH32 0x546F6B656E5374616B696E673A207374616B6520616D6F756E74206D75737420 PUSH1 0x0 DUP3 ADD MSTORE PUSH32 0x6265206E6F6E2D7A65726F000000000000000000000000000000000000000000 PUSH1 0x20 DUP3 ADD MSTORE POP JUMP JUMPDEST PUSH1 0x0 PUSH2 0x2E24 PUSH1 0x2B DUP4 PUSH2 0x23C9 JUMP JUMPDEST SWAP2 POP PUSH2 0x2E2F DUP3 PUSH2 0x2DC8 JUMP JUMPDEST PUSH1 0x40 DUP3 ADD SWAP1 POP SWAP2 SWAP1 POP JUMP JUMPDEST PUSH1 0x0 PUSH1 0x20 DUP3 ADD SWAP1 POP DUP2 DUP2 SUB PUSH1 0x0 DUP4 ADD MSTORE PUSH2 0x2E53 DUP2 PUSH2 0x2E17 JUMP JUMPDEST SWAP1 POP SWAP2 SWAP1 POP JUMP JUMPDEST PUSH32 0x546F6B656E5374616B696E673A207374616B6520616D6F756E74206D75737420 PUSH1 0x0 DUP3 ADD MSTORE PUSH32 0x67726561746572207468616E206D696E696D756D20616D6F756E7420616C6C6F PUSH1 0x20 DUP3 ADD MSTORE PUSH32 0x7765640000000000000000000000000000000000000000000000000000000000 PUSH1 0x40 DUP3 ADD MSTORE POP JUMP JUMPDEST PUSH1 0x0 PUSH2 0x2EDC PUSH1 0x43 DUP4 PUSH2 0x23C9 JUMP JUMPDEST SWAP2 POP PUSH2 0x2EE7 DUP3 PUSH2 0x2E5A JUMP JUMPDEST PUSH1 0x60 DUP3 ADD SWAP1 POP SWAP2 SWAP1 POP JUMP JUMPDEST PUSH1 0x0 PUSH1 0x20 DUP3 ADD SWAP1 POP DUP2 DUP2 SUB PUSH1 0x0 DUP4 ADD MSTORE PUSH2 0x2F0B DUP2 PUSH2 0x2ECF JUMP JUMPDEST SWAP1 POP SWAP2 SWAP1 POP JUMP JUMPDEST PUSH1 0x0 PUSH1 0x60 DUP3 ADD SWAP1 POP PUSH2 0x2F27 PUSH1 0x0 DUP4 ADD DUP7 PUSH2 0x239F JUMP JUMPDEST PUSH2 0x2F34 PUSH1 0x20 DUP4 ADD DUP6 PUSH2 0x239F JUMP JUMPDEST PUSH2 0x2F41 PUSH1 0x40 DUP4 ADD DUP5 PUSH2 0x20BA JUMP JUMPDEST SWAP5 SWAP4 POP POP POP POP JUMP JUMPDEST PUSH32 0x546F6B656E5374616B696E673A206661696C656420746F207472616E73666572 PUSH1 0x0 DUP3 ADD MSTORE PUSH32 0x20746F6B656E7300000000000000000000000000000000000000000000000000 PUSH1 0x20 DUP3 ADD MSTORE POP JUMP JUMPDEST PUSH1 0x0 PUSH2 0x2FA5 PUSH1 0x27 DUP4 PUSH2 0x23C9 JUMP JUMPDEST SWAP2 POP PUSH2 0x2FB0 DUP3 PUSH2 0x2F49 JUMP JUMPDEST PUSH1 0x40 DUP3 ADD SWAP1 POP SWAP2 SWAP1 POP JUMP JUMPDEST PUSH1 0x0 PUSH1 0x20 DUP3 ADD SWAP1 POP DUP2 DUP2 SUB PUSH1 0x0 DUP4 ADD MSTORE PUSH2 0x2FD4 DUP2 PUSH2 0x2F98 JUMP JUMPDEST SWAP1 POP SWAP2 SWAP1 POP JUMP JUMPDEST PUSH32 0x496E697469616C697A61626C653A20636F6E7472616374206973206E6F742069 PUSH1 0x0 DUP3 ADD MSTORE PUSH32 0x6E697469616C697A696E67000000000000000000000000000000000000000000 PUSH1 0x20 DUP3 ADD MSTORE POP JUMP JUMPDEST PUSH1 0x0 PUSH2 0x3037 PUSH1 0x2B DUP4 PUSH2 0x23C9 JUMP JUMPDEST SWAP2 POP PUSH2 0x3042 DUP3 PUSH2 0x2FDB JUMP JUMPDEST PUSH1 0x40 DUP3 ADD SWAP1 POP SWAP2 SWAP1 POP JUMP JUMPDEST PUSH1 0x0 PUSH1 0x20 DUP3 ADD SWAP1 POP DUP2 DUP2 SUB PUSH1 0x0 DUP4 ADD MSTORE PUSH2 0x3066 DUP2 PUSH2 0x302A JUMP JUMPDEST SWAP1 POP SWAP2 SWAP1 POP JUMP JUMPDEST PUSH32 0x546F6B656E5374616B696E673A2061707920726174652073686F756C64206265 PUSH1 0x0 DUP3 ADD MSTORE PUSH32 0x206C657373207468616E20313030303000000000000000000000000000000000 PUSH1 0x20 DUP3 ADD MSTORE POP JUMP JUMPDEST PUSH1 0x0 PUSH2 0x30C9 PUSH1 0x30 DUP4 PUSH2 0x23C9 JUMP JUMPDEST SWAP2 POP PUSH2 0x30D4 DUP3 PUSH2 0x306D JUMP JUMPDEST PUSH1 0x40 DUP3 ADD SWAP1 POP SWAP2 SWAP1 POP JUMP JUMPDEST PUSH1 0x0 PUSH1 0x20 DUP3 ADD SWAP1 POP DUP2 DUP2 SUB PUSH1 0x0 DUP4 ADD MSTORE PUSH2 0x30F8 DUP2 PUSH2 0x30BC JUMP JUMPDEST SWAP1 POP SWAP2 SWAP1 POP JUMP JUMPDEST PUSH32 0x546F6B656E5374616B696E673A207374616B652064617973206D757374206265 PUSH1 0x0 DUP3 ADD MSTORE PUSH32 0x206E6F6E2D7A65726F0000000000000000000000000000000000000000000000 PUSH1 0x20 DUP3 ADD MSTORE POP JUMP JUMPDEST PUSH1 0x0 PUSH2 0x315B PUSH1 0x29 DUP4 PUSH2 0x23C9 JUMP JUMPDEST SWAP2 POP PUSH2 0x3166 DUP3 PUSH2 0x30FF JUMP JUMPDEST PUSH1 0x40 DUP3 ADD SWAP1 POP SWAP2 SWAP1 POP JUMP JUMPDEST PUSH1 0x0 PUSH1 0x20 DUP3 ADD SWAP1 POP DUP2 DUP2 SUB PUSH1 0x0 DUP4 ADD MSTORE PUSH2 0x318A DUP2 PUSH2 0x314E JUMP JUMPDEST SWAP1 POP SWAP2 SWAP1 POP JUMP JUMPDEST PUSH32 0x546F6B656E5374616B696E673A20746F6B656E20616464726573732063616E6E PUSH1 0x0 DUP3 ADD MSTORE PUSH32 0x6F74206265203020616464726573730000000000000000000000000000000000 PUSH1 0x20 DUP3 ADD MSTORE POP JUMP JUMPDEST PUSH1 0x0 PUSH2 0x31ED PUSH1 0x2F DUP4 PUSH2 0x23C9 JUMP JUMPDEST SWAP2 POP PUSH2 0x31F8 DUP3 PUSH2 0x3191 JUMP JUMPDEST PUSH1 0x40 DUP3 ADD SWAP1 POP SWAP2 SWAP1 POP JUMP JUMPDEST PUSH1 0x0 PUSH1 0x20 DUP3 ADD SWAP1 POP DUP2 DUP2 SUB PUSH1 0x0 DUP4 ADD MSTORE PUSH2 0x321C DUP2 PUSH2 0x31E0 JUMP JUMPDEST SWAP1 POP SWAP2 SWAP1 POP JUMP JUMPDEST PUSH32 0x546F6B656E5374616B696E673A2073746172742064617465206D757374206265 PUSH1 0x0 DUP3 ADD MSTORE PUSH32 0x206C657373207468616E20656E64206461746500000000000000000000000000 PUSH1 0x20 DUP3 ADD MSTORE POP JUMP JUMPDEST PUSH1 0x0 PUSH2 0x327F PUSH1 0x33 DUP4 PUSH2 0x23C9 JUMP JUMPDEST SWAP2 POP PUSH2 0x328A DUP3 PUSH2 0x3223 JUMP JUMPDEST PUSH1 0x40 DUP3 ADD SWAP1 POP SWAP2 SWAP1 POP JUMP JUMPDEST PUSH1 0x0 PUSH1 0x20 DUP3 ADD SWAP1 POP DUP2 DUP2 SUB PUSH1 0x0 DUP4 ADD MSTORE PUSH2 0x32AE DUP2 PUSH2 0x3272 JUMP JUMPDEST SWAP1 POP SWAP2 SWAP1 POP JUMP INVALID LOG2 PUSH5 0x6970667358 0x22 SLT KECCAK256 0xBB 0xE1 0xC6 0x1E SWAP11 0x2D 0xA8 PUSH23 0x6E66BA83E267E7B725046CB0BB07C7F74152041687C807 0x21 PUSH5 0x736F6C6343 STOP ADDMOD SLT STOP CALLER "
				},
				"gasEstimates": {
					"creation": {
						"codeDepositCost": "2607000",
						"executionCost": "infinite",
						"totalCost": "infinite"
					},
					"external": {
						"APY_RATE_CHANGE_THRESHOLD()": "397",
						"PERCENTAGE_DENOMINATOR()": "440",
						"claimReward()": "infinite",
						"getAPY()": "2481",
						"getEarlyUnstakeFeePercentage()": "2527",
						"getMaxStakingTokenLimit()": "2504",
						"getMinimumStakingAmount()": "2527",
						"getStakeDays()": "2525",
						"getStakeEndDate()": "2503",
						"getStakeStartDate()": "2484",
						"getStakingStatus()": "2590",
						"getTotalStakedTokens()": "2483",
						"getTotalUsers()": "2504",
						"getUser(address)": "infinite",
						"getUserEstimatedRewards()": "infinite",
						"getWithdrawableAmount()": "infinite",
						"initialize(address,address,uint256,uint256,uint256,uint256,uint256,uint256,uint256)": "infinite",
						"isStakeHolder(address)": "2974",
						"owner()": "2612",
						"renounceOwnership()": "30487",
						"stake(uint256)": "infinite",
						"stakeForUser(uint256,address)": "infinite",
						"toggleStakingStatus()": "28903",
						"transferOwnership(address)": "30854",
						"unstake(uint256)": "infinite",
						"updateEarlyUnstakeFeePercentage(uint256)": "24895",
						"updateMaximumStakingAmount(uint256)": "24853",
						"updateMinimumStakingAmount(uint256)": "24852",
						"updateStakingEndDate(uint256)": "24852",
						"withdraw(uint256)": "infinite"
					},
					"internal": {
						"__TokenStaking_init_unchained(address,address,uint256,uint256,uint256,uint256,uint256,uint256,uint256)": "infinite",
						"_calculateRewards(address)": "infinite",
						"_getUserEstimatedRewards(address)": "infinite",
						"_stakeTokens(uint256,address)": "infinite",
						"getCurrentTime()": "22"
					}
				},
				"methodIdentifiers": {
					"APY_RATE_CHANGE_THRESHOLD()": "8585d138",
					"PERCENTAGE_DENOMINATOR()": "b3cd4254",
					"claimReward()": "b88a802f",
					"getAPY()": "d2cbf7ad",
					"getEarlyUnstakeFeePercentage()": "5e39cd75",
					"getMaxStakingTokenLimit()": "bb8febc6",
					"getMinimumStakingAmount()": "42a23945",
					"getStakeDays()": "f18cce76",
					"getStakeEndDate()": "f0116b74",
					"getStakeStartDate()": "008e3252",
					"getStakingStatus()": "cab9b8fb",
					"getTotalStakedTokens()": "51d18598",
					"getTotalUsers()": "9be572f6",
					"getUser(address)": "6f77926b",
					"getUserEstimatedRewards()": "4d55b178",
					"getWithdrawableAmount()": "90be10cc",
					"initialize(address,address,uint256,uint256,uint256,uint256,uint256,uint256,uint256)": "845738cb",
					"isStakeHolder(address)": "63512159",
					"owner()": "8da5cb5b",
					"renounceOwnership()": "715018a6",
					"stake(uint256)": "a694fc3a",
					"stakeForUser(uint256,address)": "70607f5d",
					"toggleStakingStatus()": "c5d62b18",
					"transferOwnership(address)": "f2fde38b",
					"unstake(uint256)": "2e17de78",
					"updateEarlyUnstakeFeePercentage(uint256)": "7bb9769d",
					"updateMaximumStakingAmount(uint256)": "0c4ca4a6",
					"updateMinimumStakingAmount(uint256)": "55f0fe42",
					"updateStakingEndDate(uint256)": "3e093572",
					"withdraw(uint256)": "2e1a7d4d"
				}
			},
			"storageLayout": {
				"storage": [
					{
						"astId": 509,
						"contract": "contracts/staking2.sol:TokenStaking",
						"label": "_owner",
						"offset": 0,
						"slot": "0",
						"type": "t_address"
					},
					{
						"astId": 453,
						"contract": "contracts/staking2.sol:TokenStaking",
						"label": "_status",
						"offset": 0,
						"slot": "1",
						"type": "t_uint256"
					},
					{
						"astId": 299,
						"contract": "contracts/staking2.sol:TokenStaking",
						"label": "_initialized",
						"offset": 0,
						"slot": "2",
						"type": "t_uint8"
					},
					{
						"astId": 302,
						"contract": "contracts/staking2.sol:TokenStaking",
						"label": "_initializing",
						"offset": 1,
						"slot": "2",
						"type": "t_bool"
					},
					{
						"astId": 711,
						"contract": "contracts/staking2.sol:TokenStaking",
						"label": "_minimumStakingAmount",
						"offset": 0,
						"slot": "3",
						"type": "t_uint256"
					},
					{
						"astId": 713,
						"contract": "contracts/staking2.sol:TokenStaking",
						"label": "_maxStakeTokenLimit",
						"offset": 0,
						"slot": "4",
						"type": "t_uint256"
					},
					{
						"astId": 715,
						"contract": "contracts/staking2.sol:TokenStaking",
						"label": "_stakeEndDate",
						"offset": 0,
						"slot": "5",
						"type": "t_uint256"
					},
					{
						"astId": 717,
						"contract": "contracts/staking2.sol:TokenStaking",
						"label": "_stakeStartDate",
						"offset": 0,
						"slot": "6",
						"type": "t_uint256"
					},
					{
						"astId": 719,
						"contract": "contracts/staking2.sol:TokenStaking",
						"label": "_totalStakedTokens",
						"offset": 0,
						"slot": "7",
						"type": "t_uint256"
					},
					{
						"astId": 721,
						"contract": "contracts/staking2.sol:TokenStaking",
						"label": "_totalUsers",
						"offset": 0,
						"slot": "8",
						"type": "t_uint256"
					},
					{
						"astId": 723,
						"contract": "contracts/staking2.sol:TokenStaking",
						"label": "_stakeDays",
						"offset": 0,
						"slot": "9",
						"type": "t_uint256"
					},
					{
						"astId": 725,
						"contract": "contracts/staking2.sol:TokenStaking",
						"label": "_earlyUnstakeFeePercentage",
						"offset": 0,
						"slot": "10",
						"type": "t_uint256"
					},
					{
						"astId": 727,
						"contract": "contracts/staking2.sol:TokenStaking",
						"label": "_isStakingPaused",
						"offset": 0,
						"slot": "11",
						"type": "t_bool"
					},
					{
						"astId": 729,
						"contract": "contracts/staking2.sol:TokenStaking",
						"label": "_tokenAddress",
						"offset": 1,
						"slot": "11",
						"type": "t_address"
					},
					{
						"astId": 731,
						"contract": "contracts/staking2.sol:TokenStaking",
						"label": "_apyRate",
						"offset": 0,
						"slot": "12",
						"type": "t_uint256"
					},
					{
						"astId": 742,
						"contract": "contracts/staking2.sol:TokenStaking",
						"label": "_users",
						"offset": 0,
						"slot": "13",
						"type": "t_mapping(t_address,t_struct(User)709_storage)"
					}
				],
				"types": {
					"t_address": {
						"encoding": "inplace",
						"label": "address",
						"numberOfBytes": "20"
					},
					"t_bool": {
						"encoding": "inplace",
						"label": "bool",
						"numberOfBytes": "1"
					},
					"t_mapping(t_address,t_struct(User)709_storage)": {
						"encoding": "mapping",
						"key": "t_address",
						"label": "mapping(address => struct TokenStaking.User)",
						"numberOfBytes": "32",
						"value": "t_struct(User)709_storage"
					},
					"t_struct(User)709_storage": {
						"encoding": "inplace",
						"label": "struct TokenStaking.User",
						"members": [
							{
								"astId": 700,
								"contract": "contracts/staking2.sol:TokenStaking",
								"label": "stakeAmount",
								"offset": 0,
								"slot": "0",
								"type": "t_uint256"
							},
							{
								"astId": 702,
								"contract": "contracts/staking2.sol:TokenStaking",
								"label": "rewardAmount",
								"offset": 0,
								"slot": "1",
								"type": "t_uint256"
							},
							{
								"astId": 704,
								"contract": "contracts/staking2.sol:TokenStaking",
								"label": "lastStakeTime",
								"offset": 0,
								"slot": "2",
								"type": "t_uint256"
							},
							{
								"astId": 706,
								"contract": "contracts/staking2.sol:TokenStaking",
								"label": "lastRewardCalculationTime",
								"offset": 0,
								"slot": "3",
								"type": "t_uint256"
							},
							{
								"astId": 708,
								"contract": "contracts/staking2.sol:TokenStaking",
								"label": "rewardsClaimedSoFar",
								"offset": 0,
								"slot": "4",
								"type": "t_uint256"
							}
						],
						"numberOfBytes": "160"
					},
					"t_uint256": {
						"encoding": "inplace",
						"label": "uint256",
						"numberOfBytes": "32"
					},
					"t_uint8": {
						"encoding": "inplace",
						"label": "uint8",
						"numberOfBytes": "1"
					}
				}
			},
			"userdoc": {
				"kind": "user",
				"methods": {
					"claimReward()": {
						"notice": "This function is used to claim user's rewards"
					},
					"getAPY()": {
						"notice": "This function is used to get the current APY Rate"
					},
					"getEarlyUnstakeFeePercentage()": {
						"notice": "This function is used to get early unstake fee percentage"
					},
					"getMaxStakingTokenLimit()": {
						"notice": "This function is used to get the maximum staking token limit for program"
					},
					"getMinimumStakingAmount()": {
						"notice": "This function is used to get the minimum staking amount"
					},
					"getStakeDays()": {
						"notice": "This function is used to get stake days"
					},
					"getStakeEndDate()": {
						"notice": "This function is used to get the staking end date for program"
					},
					"getStakeStartDate()": {
						"notice": "This function is used to get the staking start date for program"
					},
					"getStakingStatus()": {
						"notice": "This function is used to get staking status"
					},
					"getTotalStakedTokens()": {
						"notice": "This function is used to get the total no of tokens that are staked"
					},
					"getTotalUsers()": {
						"notice": "This function is used to get the total no of users"
					},
					"getUser(address)": {
						"notice": "This function is used to get User's details"
					},
					"getUserEstimatedRewards()": {
						"notice": "This function is used to get msg.sender's estimated reward amount"
					},
					"getWithdrawableAmount()": {
						"notice": "This function is used to get withdrawable amount from contract"
					},
					"isStakeHolder(address)": {
						"notice": "This function is used to check if a user is a stakeholder"
					},
					"stake(uint256)": {
						"notice": "This function is used to stake tokens"
					},
					"stakeForUser(uint256,address)": {
						"notice": "stake tokens for specific user"
					},
					"toggleStakingStatus()": {
						"notice": "enable/disable staking"
					},
					"unstake(uint256)": {
						"notice": "This function is used to unstake tokens"
					},
					"updateEarlyUnstakeFeePercentage(uint256)": {
						"notice": "This function is used to update early unstake fee percentage"
					},
					"updateMaximumStakingAmount(uint256)": {
						"notice": "This function is used to update maximum staking amount"
					},
					"updateMinimumStakingAmount(uint256)": {
						"notice": "This function is used to update minimum staking amount"
					},
					"updateStakingEndDate(uint256)": {
						"notice": "This function is used to update staking end date"
					},
					"withdraw(uint256)": {
						"notice": "Withdraw the specified amount if possible."
					}
				},
				"version": 1
			}
		}
	}
}