{
	"contracts/oatlocker.sol": {
		"OatV1Locker": {
			"abi": [
				{
					"inputs": [
						{
							"internalType": "contract IUniFactory",
							"name": "_uniswapFactory",
							"type": "address"
						}
					],
					"stateMutability": "nonpayable",
					"type": "constructor"
				},
				{
					"anonymous": false,
					"inputs": [
						{
							"indexed": true,
							"internalType": "address",
							"name": "previousOwner",
							"type": "address"
						},
						{
							"indexed": true,
							"internalType": "address",
							"name": "newOwner",
							"type": "address"
						}
					],
					"name": "OwnershipTransferred",
					"type": "event"
				},
				{
					"anonymous": false,
					"inputs": [
						{
							"indexed": false,
							"internalType": "address",
							"name": "lpToken",
							"type": "address"
						},
						{
							"indexed": false,
							"internalType": "address",
							"name": "user",
							"type": "address"
						},
						{
							"indexed": false,
							"internalType": "uint256",
							"name": "amount",
							"type": "uint256"
						},
						{
							"indexed": false,
							"internalType": "uint256",
							"name": "lockDate",
							"type": "uint256"
						},
						{
							"indexed": false,
							"internalType": "uint256",
							"name": "unlockDate",
							"type": "uint256"
						}
					],
					"name": "onDeposit",
					"type": "event"
				},
				{
					"anonymous": false,
					"inputs": [
						{
							"indexed": false,
							"internalType": "address",
							"name": "lpToken",
							"type": "address"
						},
						{
							"indexed": false,
							"internalType": "uint256",
							"name": "amount",
							"type": "uint256"
						}
					],
					"name": "onWithdraw",
					"type": "event"
				},
				{
					"inputs": [],
					"name": "gFees",
					"outputs": [
						{
							"internalType": "uint256",
							"name": "ethFee",
							"type": "uint256"
						},
						{
							"internalType": "contract IERCBurn",
							"name": "secondaryFeeToken",
							"type": "address"
						},
						{
							"internalType": "uint256",
							"name": "secondaryTokenFee",
							"type": "uint256"
						},
						{
							"internalType": "uint256",
							"name": "secondaryTokenDiscount",
							"type": "uint256"
						},
						{
							"internalType": "uint256",
							"name": "liquidityFee",
							"type": "uint256"
						},
						{
							"internalType": "uint256",
							"name": "referralPercent",
							"type": "uint256"
						},
						{
							"internalType": "contract IERCBurn",
							"name": "referralToken",
							"type": "address"
						},
						{
							"internalType": "uint256",
							"name": "referralHold",
							"type": "uint256"
						},
						{
							"internalType": "uint256",
							"name": "referralDiscount",
							"type": "uint256"
						}
					],
					"stateMutability": "view",
					"type": "function"
				},
				{
					"inputs": [
						{
							"internalType": "uint256",
							"name": "_index",
							"type": "uint256"
						}
					],
					"name": "getLockedTokenAtIndex",
					"outputs": [
						{
							"internalType": "address",
							"name": "",
							"type": "address"
						}
					],
					"stateMutability": "view",
					"type": "function"
				},
				{
					"inputs": [],
					"name": "getNumLockedTokens",
					"outputs": [
						{
							"internalType": "uint256",
							"name": "",
							"type": "uint256"
						}
					],
					"stateMutability": "view",
					"type": "function"
				},
				{
					"inputs": [
						{
							"internalType": "address",
							"name": "_lpToken",
							"type": "address"
						}
					],
					"name": "getNumLocksForToken",
					"outputs": [
						{
							"internalType": "uint256",
							"name": "",
							"type": "uint256"
						}
					],
					"stateMutability": "view",
					"type": "function"
				},
				{
					"inputs": [
						{
							"internalType": "address",
							"name": "_user",
							"type": "address"
						},
						{
							"internalType": "address",
							"name": "_lpToken",
							"type": "address"
						},
						{
							"internalType": "uint256",
							"name": "_index",
							"type": "uint256"
						}
					],
					"name": "getUserLockForTokenAtIndex",
					"outputs": [
						{
							"internalType": "uint256",
							"name": "",
							"type": "uint256"
						},
						{
							"internalType": "uint256",
							"name": "",
							"type": "uint256"
						},
						{
							"internalType": "uint256",
							"name": "",
							"type": "uint256"
						},
						{
							"internalType": "uint256",
							"name": "",
							"type": "uint256"
						},
						{
							"internalType": "uint256",
							"name": "",
							"type": "uint256"
						},
						{
							"internalType": "address",
							"name": "",
							"type": "address"
						}
					],
					"stateMutability": "view",
					"type": "function"
				},
				{
					"inputs": [
						{
							"internalType": "address",
							"name": "_user",
							"type": "address"
						},
						{
							"internalType": "uint256",
							"name": "_index",
							"type": "uint256"
						}
					],
					"name": "getUserLockedTokenAtIndex",
					"outputs": [
						{
							"internalType": "address",
							"name": "",
							"type": "address"
						}
					],
					"stateMutability": "view",
					"type": "function"
				},
				{
					"inputs": [
						{
							"internalType": "address",
							"name": "_user",
							"type": "address"
						}
					],
					"name": "getUserNumLockedTokens",
					"outputs": [
						{
							"internalType": "uint256",
							"name": "",
							"type": "uint256"
						}
					],
					"stateMutability": "view",
					"type": "function"
				},
				{
					"inputs": [
						{
							"internalType": "address",
							"name": "_user",
							"type": "address"
						},
						{
							"internalType": "address",
							"name": "_lpToken",
							"type": "address"
						}
					],
					"name": "getUserNumLocksForToken",
					"outputs": [
						{
							"internalType": "uint256",
							"name": "",
							"type": "uint256"
						}
					],
					"stateMutability": "view",
					"type": "function"
				},
				{
					"inputs": [
						{
							"internalType": "address",
							"name": "_user",
							"type": "address"
						}
					],
					"name": "getUserWhitelistStatus",
					"outputs": [
						{
							"internalType": "bool",
							"name": "",
							"type": "bool"
						}
					],
					"stateMutability": "view",
					"type": "function"
				},
				{
					"inputs": [
						{
							"internalType": "uint256",
							"name": "_index",
							"type": "uint256"
						}
					],
					"name": "getWhitelistedUserAtIndex",
					"outputs": [
						{
							"internalType": "address",
							"name": "",
							"type": "address"
						}
					],
					"stateMutability": "view",
					"type": "function"
				},
				{
					"inputs": [],
					"name": "getWhitelistedUsersLength",
					"outputs": [
						{
							"internalType": "uint256",
							"name": "",
							"type": "uint256"
						}
					],
					"stateMutability": "view",
					"type": "function"
				},
				{
					"inputs": [
						{
							"internalType": "address",
							"name": "_lpToken",
							"type": "address"
						},
						{
							"internalType": "uint256",
							"name": "_index",
							"type": "uint256"
						},
						{
							"internalType": "uint256",
							"name": "_lockID",
							"type": "uint256"
						},
						{
							"internalType": "uint256",
							"name": "_amount",
							"type": "uint256"
						}
					],
					"name": "incrementLock",
					"outputs": [],
					"stateMutability": "nonpayable",
					"type": "function"
				},
				{
					"inputs": [
						{
							"internalType": "address",
							"name": "_lpToken",
							"type": "address"
						},
						{
							"internalType": "uint256",
							"name": "_amount",
							"type": "uint256"
						},
						{
							"internalType": "uint256",
							"name": "_unlock_date",
							"type": "uint256"
						},
						{
							"internalType": "address payable",
							"name": "_referral",
							"type": "address"
						},
						{
							"internalType": "bool",
							"name": "_fee_in_eth",
							"type": "bool"
						},
						{
							"internalType": "address payable",
							"name": "_withdrawer",
							"type": "address"
						}
					],
					"name": "lockLPToken",
					"outputs": [],
					"stateMutability": "payable",
					"type": "function"
				},
				{
					"inputs": [
						{
							"internalType": "address",
							"name": "_lpToken",
							"type": "address"
						},
						{
							"internalType": "uint256",
							"name": "_index",
							"type": "uint256"
						},
						{
							"internalType": "uint256",
							"name": "_lockID",
							"type": "uint256"
						},
						{
							"internalType": "uint256",
							"name": "_amount",
							"type": "uint256"
						}
					],
					"name": "migrate",
					"outputs": [],
					"stateMutability": "nonpayable",
					"type": "function"
				},
				{
					"inputs": [],
					"name": "owner",
					"outputs": [
						{
							"internalType": "address",
							"name": "",
							"type": "address"
						}
					],
					"stateMutability": "view",
					"type": "function"
				},
				{
					"inputs": [
						{
							"internalType": "address",
							"name": "_lpToken",
							"type": "address"
						},
						{
							"internalType": "uint256",
							"name": "_index",
							"type": "uint256"
						},
						{
							"internalType": "uint256",
							"name": "_lockID",
							"type": "uint256"
						},
						{
							"internalType": "uint256",
							"name": "_unlock_date",
							"type": "uint256"
						}
					],
					"name": "relock",
					"outputs": [],
					"stateMutability": "nonpayable",
					"type": "function"
				},
				{
					"inputs": [],
					"name": "renounceOwnership",
					"outputs": [],
					"stateMutability": "nonpayable",
					"type": "function"
				},
				{
					"inputs": [
						{
							"internalType": "address payable",
							"name": "_devaddr",
							"type": "address"
						}
					],
					"name": "setDev",
					"outputs": [],
					"stateMutability": "nonpayable",
					"type": "function"
				},
				{
					"inputs": [
						{
							"internalType": "uint256",
							"name": "_referralPercent",
							"type": "uint256"
						},
						{
							"internalType": "uint256",
							"name": "_referralDiscount",
							"type": "uint256"
						},
						{
							"internalType": "uint256",
							"name": "_ethFee",
							"type": "uint256"
						},
						{
							"internalType": "uint256",
							"name": "_secondaryTokenFee",
							"type": "uint256"
						},
						{
							"internalType": "uint256",
							"name": "_secondaryTokenDiscount",
							"type": "uint256"
						},
						{
							"internalType": "uint256",
							"name": "_liquidityFee",
							"type": "uint256"
						}
					],
					"name": "setFees",
					"outputs": [],
					"stateMutability": "nonpayable",
					"type": "function"
				},
				{
					"inputs": [
						{
							"internalType": "contract IMigrator",
							"name": "_migrator",
							"type": "address"
						}
					],
					"name": "setMigrator",
					"outputs": [],
					"stateMutability": "nonpayable",
					"type": "function"
				},
				{
					"inputs": [
						{
							"internalType": "contract IERCBurn",
							"name": "_referralToken",
							"type": "address"
						},
						{
							"internalType": "uint256",
							"name": "_hold",
							"type": "uint256"
						}
					],
					"name": "setReferralTokenAndHold",
					"outputs": [],
					"stateMutability": "nonpayable",
					"type": "function"
				},
				{
					"inputs": [
						{
							"internalType": "address",
							"name": "_secondaryFeeToken",
							"type": "address"
						}
					],
					"name": "setSecondaryFeeToken",
					"outputs": [],
					"stateMutability": "nonpayable",
					"type": "function"
				},
				{
					"inputs": [
						{
							"internalType": "address",
							"name": "_lpToken",
							"type": "address"
						},
						{
							"internalType": "uint256",
							"name": "_index",
							"type": "uint256"
						},
						{
							"internalType": "uint256",
							"name": "_lockID",
							"type": "uint256"
						},
						{
							"internalType": "uint256",
							"name": "_amount",
							"type": "uint256"
						}
					],
					"name": "splitLock",
					"outputs": [],
					"stateMutability": "payable",
					"type": "function"
				},
				{
					"inputs": [
						{
							"internalType": "address",
							"name": "",
							"type": "address"
						},
						{
							"internalType": "uint256",
							"name": "",
							"type": "uint256"
						}
					],
					"name": "tokenLocks",
					"outputs": [
						{
							"internalType": "uint256",
							"name": "lockDate",
							"type": "uint256"
						},
						{
							"internalType": "uint256",
							"name": "amount",
							"type": "uint256"
						},
						{
							"internalType": "uint256",
							"name": "initialAmount",
							"type": "uint256"
						},
						{
							"internalType": "uint256",
							"name": "unlockDate",
							"type": "uint256"
						},
						{
							"internalType": "uint256",
							"name": "lockID",
							"type": "uint256"
						},
						{
							"internalType": "address",
							"name": "owner",
							"type": "address"
						}
					],
					"stateMutability": "view",
					"type": "function"
				},
				{
					"inputs": [
						{
							"internalType": "address",
							"name": "_lpToken",
							"type": "address"
						},
						{
							"internalType": "uint256",
							"name": "_index",
							"type": "uint256"
						},
						{
							"internalType": "uint256",
							"name": "_lockID",
							"type": "uint256"
						},
						{
							"internalType": "address payable",
							"name": "_newOwner",
							"type": "address"
						}
					],
					"name": "transferLockOwnership",
					"outputs": [],
					"stateMutability": "nonpayable",
					"type": "function"
				},
				{
					"inputs": [
						{
							"internalType": "address",
							"name": "newOwner",
							"type": "address"
						}
					],
					"name": "transferOwnership",
					"outputs": [],
					"stateMutability": "nonpayable",
					"type": "function"
				},
				{
					"inputs": [],
					"name": "uniswapFactory",
					"outputs": [
						{
							"internalType": "contract IUniFactory",
							"name": "",
							"type": "address"
						}
					],
					"stateMutability": "view",
					"type": "function"
				},
				{
					"inputs": [
						{
							"internalType": "address",
							"name": "_user",
							"type": "address"
						},
						{
							"internalType": "bool",
							"name": "_add",
							"type": "bool"
						}
					],
					"name": "whitelistFeeAccount",
					"outputs": [],
					"stateMutability": "nonpayable",
					"type": "function"
				},
				{
					"inputs": [
						{
							"internalType": "address",
							"name": "_lpToken",
							"type": "address"
						},
						{
							"internalType": "uint256",
							"name": "_index",
							"type": "uint256"
						},
						{
							"internalType": "uint256",
							"name": "_lockID",
							"type": "uint256"
						},
						{
							"internalType": "uint256",
							"name": "_amount",
							"type": "uint256"
						}
					],
					"name": "withdraw",
					"outputs": [],
					"stateMutability": "nonpayable",
					"type": "function"
				}
			],
			"devdoc": {
				"kind": "dev",
				"methods": {
					"lockLPToken(address,uint256,uint256,address,bool,address)": {
						"params": {
							"_amount": "amount of LP tokens to lock",
							"_fee_in_eth": "fees can be paid in eth or in a secondary token such as UNCX with a discount on univ2 tokens",
							"_lpToken": "the univ2 token address",
							"_referral": "the referrer address if any or address(0) for none",
							"_unlock_date": "the unix timestamp (in seconds) until unlock",
							"_withdrawer": "the user who can withdraw liquidity once the lock expires."
						}
					},
					"owner()": {
						"details": "Returns the address of the current owner."
					},
					"renounceOwnership()": {
						"details": "Leaves the contract without owner. It will not be possible to call `onlyOwner` functions anymore. Can only be called by the current owner. NOTE: Renouncing ownership will leave the contract without an owner, thereby removing any functionality that is only available to the owner."
					},
					"transferOwnership(address)": {
						"details": "Transfers ownership of the contract to a new account (`newOwner`). Can only be called by the current owner."
					}
				},
				"version": 1
			},
			"evm": {
				"assembly": "    /* \"contracts/oatlocker.sol\":1228:18134  contract OatV1Locker is Ownable, ReentrancyGuard {\r... */\n  mstore(0x40, 0x80)\n    /* \"contracts/oatlocker.sol\":3139:3524  constructor(IUniFactory _uniswapFactory) public {\r... */\n  callvalue\n  dup1\n  iszero\n  tag_1\n  jumpi\n  0x00\n  dup1\n  revert\ntag_1:\n  pop\n  mload(0x40)\n  sub(codesize, bytecodeSize)\n  dup1\n  bytecodeSize\n  dup4\n  codecopy\n  dup2\n  dup2\n  add\n  0x40\n  mstore\n  0x20\n  dup2\n  lt\n  iszero\n  tag_2\n  jumpi\n  0x00\n  dup1\n  revert\ntag_2:\n  dup2\n  add\n  swap1\n  dup1\n  dup1\n  mload\n  swap1\n  0x20\n  add\n  swap1\n  swap3\n  swap2\n  swap1\n  pop\n  pop\n  pop\n    /* \"contracts/Ownable.sol\":1042:1059  address msgSender */\n  0x00\n    /* \"contracts/Ownable.sol\":1062:1074  _msgSender() */\n  tag_7\n    /* \"contracts/Ownable.sol\":1062:1072  _msgSender */\n  shl(0x20, tag_8)\n    /* \"contracts/Ownable.sol\":1062:1074  _msgSender() */\n  0x20\n  shr\n  jump\t// in\ntag_7:\n    /* \"contracts/Ownable.sol\":1042:1074  address msgSender = _msgSender() */\n  swap1\n  pop\n    /* \"contracts/Ownable.sol\":1094:1103  msgSender */\n  dup1\n    /* \"contracts/Ownable.sol\":1085:1091  _owner */\n  0x00\n  dup1\n    /* \"contracts/Ownable.sol\":1085:1103  _owner = msgSender */\n  0x0100\n  exp\n  dup2\n  sload\n  dup2\n  0xffffffffffffffffffffffffffffffffffffffff\n  mul\n  not\n  and\n  swap1\n  dup4\n  0xffffffffffffffffffffffffffffffffffffffff\n  and\n  mul\n  or\n  swap1\n  sstore\n  pop\n    /* \"contracts/Ownable.sol\":1152:1161  msgSender */\n  dup1\n    /* \"contracts/Ownable.sol\":1119:1162  OwnershipTransferred(address(0), msgSender) */\n  0xffffffffffffffffffffffffffffffffffffffff\n  and\n    /* \"contracts/Ownable.sol\":1148:1149  0 */\n  0x00\n    /* \"contracts/Ownable.sol\":1119:1162  OwnershipTransferred(address(0), msgSender) */\n  0xffffffffffffffffffffffffffffffffffffffff\n  and\n  0x8be0079c531659141344cd1fd0a4f28419497f9722a3daafe3b4186f6b6457e0\n  mload(0x40)\n  mload(0x40)\n  dup1\n  swap2\n  sub\n  swap1\n  log3\n    /* \"contracts/Ownable.sol\":1007:1170  constructor () internal {\r... */\n  pop\n    /* \"contracts/ReentrancyGuard.sol\":1823:1824  1 */\n  0x01\n    /* \"contracts/ReentrancyGuard.sol\":1944:1951  _status */\n  dup1\n    /* \"contracts/ReentrancyGuard.sol\":1944:1966  _status = _NOT_ENTERED */\n  dup2\n  swap1\n  sstore\n  pop\n    /* \"contracts/oatlocker.sol\":3204:3214  msg.sender */\n  caller\n    /* \"contracts/oatlocker.sol\":3194:3201  devaddr */\n  0x12\n  0x00\n    /* \"contracts/oatlocker.sol\":3194:3214  devaddr = msg.sender */\n  0x0100\n  exp\n  dup2\n  sload\n  dup2\n  0xffffffffffffffffffffffffffffffffffffffff\n  mul\n  not\n  and\n  swap1\n  dup4\n  0xffffffffffffffffffffffffffffffffffffffff\n  and\n  mul\n  or\n  swap1\n  sstore\n  pop\n    /* \"contracts/oatlocker.sol\":3245:3248  250 */\n  0xfa\n    /* \"contracts/oatlocker.sol\":3221:3226  gFees */\n  0x07\n    /* \"contracts/oatlocker.sol\":3221:3242  gFees.referralPercent */\n  0x05\n  add\n    /* \"contracts/oatlocker.sol\":3221:3248  gFees.referralPercent = 250 */\n  dup2\n  swap1\n  sstore\n  pop\n    /* \"contracts/oatlocker.sol\":3277:3281  1e18 */\n  0x0de0b6b3a7640000\n    /* \"contracts/oatlocker.sol\":3262:3267  gFees */\n  0x07\n    /* \"contracts/oatlocker.sol\":3262:3274  gFees.ethFee */\n  0x00\n  add\n    /* \"contracts/oatlocker.sol\":3262:3281  gFees.ethFee = 1e18 */\n  dup2\n  swap1\n  sstore\n  pop\n    /* \"contracts/oatlocker.sol\":3314:3320  100e18 */\n  0x056bc75e2d63100000\n    /* \"contracts/oatlocker.sol\":3288:3293  gFees */\n  0x07\n    /* \"contracts/oatlocker.sol\":3288:3311  gFees.secondaryTokenFee */\n  0x02\n  add\n    /* \"contracts/oatlocker.sol\":3288:3320  gFees.secondaryTokenFee = 100e18 */\n  dup2\n  swap1\n  sstore\n  pop\n    /* \"contracts/oatlocker.sol\":3358:3361  200 */\n  0xc8\n    /* \"contracts/oatlocker.sol\":3327:3332  gFees */\n  0x07\n    /* \"contracts/oatlocker.sol\":3327:3355  gFees.secondaryTokenDiscount */\n  0x03\n  add\n    /* \"contracts/oatlocker.sol\":3327:3361  gFees.secondaryTokenDiscount = 200 */\n  dup2\n  swap1\n  sstore\n  pop\n    /* \"contracts/oatlocker.sol\":3396:3398  10 */\n  0x0a\n    /* \"contracts/oatlocker.sol\":3375:3380  gFees */\n  0x07\n    /* \"contracts/oatlocker.sol\":3375:3393  gFees.liquidityFee */\n  0x04\n  add\n    /* \"contracts/oatlocker.sol\":3375:3398  gFees.liquidityFee = 10 */\n  dup2\n  swap1\n  sstore\n  pop\n    /* \"contracts/oatlocker.sol\":3432:3437  10e18 */\n  0x8ac7230489e80000\n    /* \"contracts/oatlocker.sol\":3411:3416  gFees */\n  0x07\n    /* \"contracts/oatlocker.sol\":3411:3429  gFees.referralHold */\n  dup1\n  add\n    /* \"contracts/oatlocker.sol\":3411:3437  gFees.referralHold = 10e18 */\n  dup2\n  swap1\n  sstore\n  pop\n    /* \"contracts/oatlocker.sol\":3469:3472  100 */\n  0x64\n    /* \"contracts/oatlocker.sol\":3444:3449  gFees */\n  0x07\n    /* \"contracts/oatlocker.sol\":3444:3466  gFees.referralDiscount */\n  0x08\n  add\n    /* \"contracts/oatlocker.sol\":3444:3472  gFees.referralDiscount = 100 */\n  dup2\n  swap1\n  sstore\n  pop\n    /* \"contracts/oatlocker.sol\":3503:3518  _uniswapFactory */\n  dup1\n    /* \"contracts/oatlocker.sol\":3486:3500  uniswapFactory */\n  0x02\n  0x00\n    /* \"contracts/oatlocker.sol\":3486:3518  uniswapFactory = _uniswapFactory */\n  0x0100\n  exp\n  dup2\n  sload\n  dup2\n  0xffffffffffffffffffffffffffffffffffffffff\n  mul\n  not\n  and\n  swap1\n  dup4\n  0xffffffffffffffffffffffffffffffffffffffff\n  and\n  mul\n  or\n  swap1\n  sstore\n  pop\n    /* \"contracts/oatlocker.sol\":3139:3524  constructor(IUniFactory _uniswapFactory) public {\r... */\n  pop\n    /* \"contracts/oatlocker.sol\":1228:18134  contract OatV1Locker is Ownable, ReentrancyGuard {\r... */\n  jump(tag_11)\n    /* \"contracts/Context.sol\":749:855  function _msgSender() internal view virtual returns (address payable) {\r... */\ntag_8:\n    /* \"contracts/Context.sol\":802:817  address payable */\n  0x00\n    /* \"contracts/Context.sol\":837:847  msg.sender */\n  caller\n    /* \"contracts/Context.sol\":830:847  return msg.sender */\n  swap1\n  pop\n    /* \"contracts/Context.sol\":749:855  function _msgSender() internal view virtual returns (address payable) {\r... */\n  swap1\n  jump\t// out\n    /* \"contracts/oatlocker.sol\":1228:18134  contract OatV1Locker is Ownable, ReentrancyGuard {\r... */\ntag_11:\n  dataSize(sub_0)\n  dup1\n  dataOffset(sub_0)\n  0x00\n  codecopy\n  0x00\n  return\nstop\n\nsub_0: assembly {\n        /* \"contracts/oatlocker.sol\":1228:18134  contract OatV1Locker is Ownable, ReentrancyGuard {\r... */\n      mstore(0x40, 0x80)\n      jumpi(tag_1, lt(calldatasize, 0x04))\n      shr(0xe0, calldataload(0x00))\n      dup1\n      0x8da5cb5b\n      gt\n      tag_31\n      jumpi\n      dup1\n      0xb9863a44\n      gt\n      tag_32\n      jumpi\n      dup1\n      0xd4ff493f\n      gt\n      tag_33\n      jumpi\n      dup1\n      0xd4ff493f\n      eq\n      tag_27\n      jumpi\n      dup1\n      0xee424278\n      eq\n      tag_28\n      jumpi\n      dup1\n      0xf02c2643\n      eq\n      tag_29\n      jumpi\n      dup1\n      0xf2fde38b\n      eq\n      tag_30\n      jumpi\n      jump(tag_1)\n    tag_33:\n      dup1\n      0xb9863a44\n      eq\n      tag_23\n      jumpi\n      dup1\n      0xbef497fd\n      eq\n      tag_24\n      jumpi\n      dup1\n      0xccebfa3f\n      eq\n      tag_25\n      jumpi\n      dup1\n      0xd477f05f\n      eq\n      tag_26\n      jumpi\n      jump(tag_1)\n    tag_32:\n      dup1\n      0x91ff1eb1\n      gt\n      tag_34\n      jumpi\n      dup1\n      0x91ff1eb1\n      eq\n      tag_19\n      jumpi\n      dup1\n      0xa3969815\n      eq\n      tag_20\n      jumpi\n      dup1\n      0xa69d9c4f\n      eq\n      tag_21\n      jumpi\n      dup1\n      0xa9b07cea\n      eq\n      tag_22\n      jumpi\n      jump(tag_1)\n    tag_34:\n      dup1\n      0x8da5cb5b\n      eq\n      tag_16\n      jumpi\n      dup1\n      0x903df806\n      eq\n      tag_17\n      jumpi\n      dup1\n      0x90e1a003\n      eq\n      tag_18\n      jumpi\n      jump(tag_1)\n    tag_31:\n      dup1\n      0x715018a6\n      gt\n      tag_35\n      jumpi\n      dup1\n      0x8931a4be\n      gt\n      tag_36\n      jumpi\n      dup1\n      0x8931a4be\n      eq\n      tag_12\n      jumpi\n      dup1\n      0x8af416f6\n      eq\n      tag_13\n      jumpi\n      dup1\n      0x8bdb2afa\n      eq\n      tag_14\n      jumpi\n      dup1\n      0x8c301df8\n      eq\n      tag_15\n      jumpi\n      jump(tag_1)\n    tag_36:\n      dup1\n      0x715018a6\n      eq\n      tag_9\n      jumpi\n      dup1\n      0x783451e8\n      eq\n      tag_10\n      jumpi\n      dup1\n      0x86f6c3c1\n      eq\n      tag_11\n      jumpi\n      jump(tag_1)\n    tag_35:\n      dup1\n      0x4532d776\n      gt\n      tag_37\n      jumpi\n      dup1\n      0x4532d776\n      eq\n      tag_5\n      jumpi\n      dup1\n      0x4bb18e3f\n      eq\n      tag_6\n      jumpi\n      dup1\n      0x582d5adc\n      eq\n      tag_7\n      jumpi\n      dup1\n      0x60491d24\n      eq\n      tag_8\n      jumpi\n      jump(tag_1)\n    tag_37:\n      dup1\n      0x14dd79a3\n      eq\n      tag_2\n      jumpi\n      dup1\n      0x1f2a1d2f\n      eq\n      tag_3\n      jumpi\n      dup1\n      0x23cf3118\n      eq\n      tag_4\n      jumpi\n    tag_1:\n      0x00\n      dup1\n      revert\n        /* \"contracts/oatlocker.sol\":16556:16679  function getLockedTokenAtIndex (uint256 _index) external view returns (address) {\r... */\n    tag_2:\n      callvalue\n      dup1\n      iszero\n      tag_38\n      jumpi\n      0x00\n      dup1\n      revert\n    tag_38:\n      pop\n      tag_39\n      0x04\n      dup1\n      calldatasize\n      sub\n      0x20\n      dup2\n      lt\n      iszero\n      tag_40\n      jumpi\n      0x00\n      dup1\n      revert\n    tag_40:\n      dup2\n      add\n      swap1\n      dup1\n      dup1\n      calldataload\n      swap1\n      0x20\n      add\n      swap1\n      swap3\n      swap2\n      swap1\n      pop\n      pop\n      pop\n      tag_41\n      jump\t// in\n    tag_39:\n      mload(0x40)\n      dup1\n      dup3\n      0xffffffffffffffffffffffffffffffffffffffff\n      and\n      dup2\n      mstore\n      0x20\n      add\n      swap2\n      pop\n      pop\n      mload(0x40)\n      dup1\n      swap2\n      sub\n      swap1\n      return\n        /* \"contracts/oatlocker.sol\":16309:16436  function getNumLocksForToken (address _lpToken) external view returns (uint256) {\r... */\n    tag_3:\n      callvalue\n      dup1\n      iszero\n      tag_42\n      jumpi\n      0x00\n      dup1\n      revert\n    tag_42:\n      pop\n      tag_43\n      0x04\n      dup1\n      calldatasize\n      sub\n      0x20\n      dup2\n      lt\n      iszero\n      tag_44\n      jumpi\n      0x00\n      dup1\n      revert\n    tag_44:\n      dup2\n      add\n      swap1\n      dup1\n      dup1\n      calldataload\n      0xffffffffffffffffffffffffffffffffffffffff\n      and\n      swap1\n      0x20\n      add\n      swap1\n      swap3\n      swap2\n      swap1\n      pop\n      pop\n      pop\n      tag_45\n      jump\t// in\n    tag_43:\n      mload(0x40)\n      dup1\n      dup3\n      dup2\n      mstore\n      0x20\n      add\n      swap2\n      pop\n      pop\n      mload(0x40)\n      dup1\n      swap2\n      sub\n      swap1\n      return\n        /* \"contracts/oatlocker.sol\":3743:3835  function setMigrator(IMigrator _migrator) public onlyOwner {\r... */\n    tag_4:\n      callvalue\n      dup1\n      iszero\n      tag_46\n      jumpi\n      0x00\n      dup1\n      revert\n    tag_46:\n      pop\n      tag_47\n      0x04\n      dup1\n      calldatasize\n      sub\n      0x20\n      dup2\n      lt\n      iszero\n      tag_48\n      jumpi\n      0x00\n      dup1\n      revert\n    tag_48:\n      dup2\n      add\n      swap1\n      dup1\n      dup1\n      calldataload\n      0xffffffffffffffffffffffffffffffffffffffff\n      and\n      swap1\n      0x20\n      add\n      swap1\n      swap3\n      swap2\n      swap1\n      pop\n      pop\n      pop\n      tag_49\n      jump\t// in\n    tag_47:\n      stop\n        /* \"contracts/oatlocker.sol\":10642:11624  function withdraw (address _lpToken, uint256 _index, uint256 _lockID, uint256 _amount) external nonReentrant {\r... */\n    tag_5:\n      callvalue\n      dup1\n      iszero\n      tag_50\n      jumpi\n      0x00\n      dup1\n      revert\n    tag_50:\n      pop\n      tag_51\n      0x04\n      dup1\n      calldatasize\n      sub\n      0x80\n      dup2\n      lt\n      iszero\n      tag_52\n      jumpi\n      0x00\n      dup1\n      revert\n    tag_52:\n      dup2\n      add\n      swap1\n      dup1\n      dup1\n      calldataload\n      0xffffffffffffffffffffffffffffffffffffffff\n      and\n      swap1\n      0x20\n      add\n      swap1\n      swap3\n      swap2\n      swap1\n      dup1\n      calldataload\n      swap1\n      0x20\n      add\n      swap1\n      swap3\n      swap2\n      swap1\n      dup1\n      calldataload\n      swap1\n      0x20\n      add\n      swap1\n      swap3\n      swap2\n      swap1\n      dup1\n      calldataload\n      swap1\n      0x20\n      add\n      swap1\n      swap3\n      swap2\n      swap1\n      pop\n      pop\n      pop\n      tag_53\n      jump\t// in\n    tag_51:\n      stop\n        /* \"contracts/oatlocker.sol\":17752:17863  function getWhitelistedUsersLength () external view returns (uint256) {\r... */\n    tag_6:\n      callvalue\n      dup1\n      iszero\n      tag_54\n      jumpi\n      0x00\n      dup1\n      revert\n    tag_54:\n      pop\n      tag_55\n      tag_56\n      jump\t// in\n    tag_55:\n      mload(0x40)\n      dup1\n      dup3\n      dup2\n      mstore\n      0x20\n      add\n      swap2\n      pop\n      pop\n      mload(0x40)\n      dup1\n      swap2\n      sub\n      swap1\n      return\n        /* \"contracts/oatlocker.sol\":12914:14076  function splitLock (address _lpToken, uint256 _index, uint256 _lockID, uint256 _amount) external payable nonReentrant {\r... */\n    tag_7:\n      tag_57\n      0x04\n      dup1\n      calldatasize\n      sub\n      0x80\n      dup2\n      lt\n      iszero\n      tag_58\n      jumpi\n      0x00\n      dup1\n      revert\n    tag_58:\n      dup2\n      add\n      swap1\n      dup1\n      dup1\n      calldataload\n      0xffffffffffffffffffffffffffffffffffffffff\n      and\n      swap1\n      0x20\n      add\n      swap1\n      swap3\n      swap2\n      swap1\n      dup1\n      calldataload\n      swap1\n      0x20\n      add\n      swap1\n      swap3\n      swap2\n      swap1\n      dup1\n      calldataload\n      swap1\n      0x20\n      add\n      swap1\n      swap3\n      swap2\n      swap1\n      dup1\n      calldataload\n      swap1\n      0x20\n      add\n      swap1\n      swap3\n      swap2\n      swap1\n      pop\n      pop\n      pop\n      tag_59\n      jump\t// in\n    tag_57:\n      stop\n        /* \"contracts/oatlocker.sol\":9508:10408  function relock (address _lpToken, uint256 _index, uint256 _lockID, uint256 _unlock_date) external nonReentrant {\r... */\n    tag_8:\n      callvalue\n      dup1\n      iszero\n      tag_60\n      jumpi\n      0x00\n      dup1\n      revert\n    tag_60:\n      pop\n      tag_61\n      0x04\n      dup1\n      calldatasize\n      sub\n      0x80\n      dup2\n      lt\n      iszero\n      tag_62\n      jumpi\n      0x00\n      dup1\n      revert\n    tag_62:\n      dup2\n      add\n      swap1\n      dup1\n      dup1\n      calldataload\n      0xffffffffffffffffffffffffffffffffffffffff\n      and\n      swap1\n      0x20\n      add\n      swap1\n      swap3\n      swap2\n      swap1\n      dup1\n      calldataload\n      swap1\n      0x20\n      add\n      swap1\n      swap3\n      swap2\n      swap1\n      dup1\n      calldataload\n      swap1\n      0x20\n      add\n      swap1\n      swap3\n      swap2\n      swap1\n      dup1\n      calldataload\n      swap1\n      0x20\n      add\n      swap1\n      swap3\n      swap2\n      swap1\n      pop\n      pop\n      pop\n      tag_63\n      jump\t// in\n    tag_61:\n      stop\n        /* \"contracts/Ownable.sol\":1893:2041  function renounceOwnership() public virtual onlyOwner {\r... */\n    tag_9:\n      callvalue\n      dup1\n      iszero\n      tag_64\n      jumpi\n      0x00\n      dup1\n      revert\n    tag_64:\n      pop\n      tag_65\n      tag_66\n      jump\t// in\n    tag_65:\n      stop\n        /* \"contracts/oatlocker.sol\":16444:16548  function getNumLockedTokens () external view returns (uint256) {\r... */\n    tag_10:\n      callvalue\n      dup1\n      iszero\n      tag_67\n      jumpi\n      0x00\n      dup1\n      revert\n    tag_67:\n      pop\n      tag_68\n      tag_69\n      jump\t// in\n    tag_68:\n      mload(0x40)\n      dup1\n      dup3\n      dup2\n      mstore\n      0x20\n      add\n      swap2\n      pop\n      pop\n      mload(0x40)\n      dup1\n      swap2\n      sub\n      swap1\n      return\n        /* \"contracts/oatlocker.sol\":4293:4765  function setFees(uint256 _referralPercent, uint256 _referralDiscount, uint256 _ethFee, uint256 _secondaryTokenFee, uint256 _secondaryTokenDiscount, uint256 _liquidityFee) public onlyOwner {\r... */\n    tag_11:\n      callvalue\n      dup1\n      iszero\n      tag_70\n      jumpi\n      0x00\n      dup1\n      revert\n    tag_70:\n      pop\n      tag_71\n      0x04\n      dup1\n      calldatasize\n      sub\n      0xc0\n      dup2\n      lt\n      iszero\n      tag_72\n      jumpi\n      0x00\n      dup1\n      revert\n    tag_72:\n      dup2\n      add\n      swap1\n      dup1\n      dup1\n      calldataload\n      swap1\n      0x20\n      add\n      swap1\n      swap3\n      swap2\n      swap1\n      dup1\n      calldataload\n      swap1\n      0x20\n      add\n      swap1\n      swap3\n      swap2\n      swap1\n      dup1\n      calldataload\n      swap1\n      0x20\n      add\n      swap1\n      swap3\n      swap2\n      swap1\n      dup1\n      calldataload\n      swap1\n      0x20\n      add\n      swap1\n      swap3\n      swap2\n      swap1\n      dup1\n      calldataload\n      swap1\n      0x20\n      add\n      swap1\n      swap3\n      swap2\n      swap1\n      dup1\n      calldataload\n      swap1\n      0x20\n      add\n      swap1\n      swap3\n      swap2\n      swap1\n      pop\n      pop\n      pop\n      tag_73\n      jump\t// in\n    tag_71:\n      stop\n        /* \"contracts/oatlocker.sol\":3843:3985  function setSecondaryFeeToken(address _secondaryFeeToken) public onlyOwner {\r... */\n    tag_12:\n      callvalue\n      dup1\n      iszero\n      tag_74\n      jumpi\n      0x00\n      dup1\n      revert\n    tag_74:\n      pop\n      tag_75\n      0x04\n      dup1\n      calldatasize\n      sub\n      0x20\n      dup2\n      lt\n      iszero\n      tag_76\n      jumpi\n      0x00\n      dup1\n      revert\n    tag_76:\n      dup2\n      add\n      swap1\n      dup1\n      dup1\n      calldataload\n      0xffffffffffffffffffffffffffffffffffffffff\n      and\n      swap1\n      0x20\n      add\n      swap1\n      swap3\n      swap2\n      swap1\n      pop\n      pop\n      pop\n      tag_77\n      jump\t// in\n    tag_75:\n      stop\n        /* \"contracts/oatlocker.sol\":5534:9277  function lockLPToken (address _lpToken, uint256 _amount, uint256 _unlock_date, address payable _referral, bool _fee_in_eth, address payable _withdrawer) external payable nonReentrant {\r... */\n    tag_13:\n      tag_78\n      0x04\n      dup1\n      calldatasize\n      sub\n      0xc0\n      dup2\n      lt\n      iszero\n      tag_79\n      jumpi\n      0x00\n      dup1\n      revert\n    tag_79:\n      dup2\n      add\n      swap1\n      dup1\n      dup1\n      calldataload\n      0xffffffffffffffffffffffffffffffffffffffff\n      and\n      swap1\n      0x20\n      add\n      swap1\n      swap3\n      swap2\n      swap1\n      dup1\n      calldataload\n      swap1\n      0x20\n      add\n      swap1\n      swap3\n      swap2\n      swap1\n      dup1\n      calldataload\n      swap1\n      0x20\n      add\n      swap1\n      swap3\n      swap2\n      swap1\n      dup1\n      calldataload\n      0xffffffffffffffffffffffffffffffffffffffff\n      and\n      swap1\n      0x20\n      add\n      swap1\n      swap3\n      swap2\n      swap1\n      dup1\n      calldataload\n      iszero\n      iszero\n      swap1\n      0x20\n      add\n      swap1\n      swap3\n      swap2\n      swap1\n      dup1\n      calldataload\n      0xffffffffffffffffffffffffffffffffffffffff\n      and\n      swap1\n      0x20\n      add\n      swap1\n      swap3\n      swap2\n      swap1\n      pop\n      pop\n      pop\n      tag_80\n      jump\t// in\n    tag_78:\n      stop\n        /* \"contracts/oatlocker.sol\":1368:1401  IUniFactory public uniswapFactory */\n    tag_14:\n      callvalue\n      dup1\n      iszero\n      tag_81\n      jumpi\n      0x00\n      dup1\n      revert\n    tag_81:\n      pop\n      tag_82\n      tag_83\n      jump\t// in\n    tag_82:\n      mload(0x40)\n      dup1\n      dup3\n      0xffffffffffffffffffffffffffffffffffffffff\n      and\n      dup2\n      mstore\n      0x20\n      add\n      swap2\n      pop\n      pop\n      mload(0x40)\n      dup1\n      swap2\n      sub\n      swap1\n      return\n        /* \"contracts/oatlocker.sol\":17871:17998  function getWhitelistedUserAtIndex (uint256 _index) external view returns (address) {\r... */\n    tag_15:\n      callvalue\n      dup1\n      iszero\n      tag_84\n      jumpi\n      0x00\n      dup1\n      revert\n    tag_84:\n      pop\n      tag_85\n      0x04\n      dup1\n      calldatasize\n      sub\n      0x20\n      dup2\n      lt\n      iszero\n      tag_86\n      jumpi\n      0x00\n      dup1\n      revert\n    tag_86:\n      dup2\n      add\n      swap1\n      dup1\n      dup1\n      calldataload\n      swap1\n      0x20\n      add\n      swap1\n      swap3\n      swap2\n      swap1\n      pop\n      pop\n      pop\n      tag_87\n      jump\t// in\n    tag_85:\n      mload(0x40)\n      dup1\n      dup3\n      0xffffffffffffffffffffffffffffffffffffffff\n      and\n      dup2\n      mstore\n      0x20\n      add\n      swap2\n      pop\n      pop\n      mload(0x40)\n      dup1\n      swap2\n      sub\n      swap1\n      return\n        /* \"contracts/Ownable.sol\":1251:1330  function owner() public view returns (address) {\r... */\n    tag_16:\n      callvalue\n      dup1\n      iszero\n      tag_88\n      jumpi\n      0x00\n      dup1\n      revert\n    tag_88:\n      pop\n      tag_89\n      tag_90\n      jump\t// in\n    tag_89:\n      mload(0x40)\n      dup1\n      dup3\n      0xffffffffffffffffffffffffffffffffffffffff\n      and\n      dup2\n      mstore\n      0x20\n      add\n      swap2\n      pop\n      pop\n      mload(0x40)\n      dup1\n      swap2\n      sub\n      swap1\n      return\n        /* \"contracts/oatlocker.sol\":16885:17075  function getUserLockedTokenAtIndex (address _user, uint256 _index) external view returns (address) {\r... */\n    tag_17:\n      callvalue\n      dup1\n      iszero\n      tag_91\n      jumpi\n      0x00\n      dup1\n      revert\n    tag_91:\n      pop\n      tag_92\n      0x04\n      dup1\n      calldatasize\n      sub\n      0x40\n      dup2\n      lt\n      iszero\n      tag_93\n      jumpi\n      0x00\n      dup1\n      revert\n    tag_93:\n      dup2\n      add\n      swap1\n      dup1\n      dup1\n      calldataload\n      0xffffffffffffffffffffffffffffffffffffffff\n      and\n      swap1\n      0x20\n      add\n      swap1\n      swap3\n      swap2\n      swap1\n      dup1\n      calldataload\n      swap1\n      0x20\n      add\n      swap1\n      swap3\n      swap2\n      swap1\n      pop\n      pop\n      pop\n      tag_94\n      jump\t// in\n    tag_92:\n      mload(0x40)\n      dup1\n      dup3\n      0xffffffffffffffffffffffffffffffffffffffff\n      and\n      dup2\n      mstore\n      0x20\n      add\n      swap2\n      pop\n      pop\n      mload(0x40)\n      dup1\n      swap2\n      sub\n      swap1\n      return\n        /* \"contracts/oatlocker.sol\":2840:2862  FeeStruct public gFees */\n    tag_18:\n      callvalue\n      dup1\n      iszero\n      tag_95\n      jumpi\n      0x00\n      dup1\n      revert\n    tag_95:\n      pop\n      tag_96\n      tag_97\n      jump\t// in\n    tag_96:\n      mload(0x40)\n      dup1\n      dup11\n      dup2\n      mstore\n      0x20\n      add\n      dup10\n      0xffffffffffffffffffffffffffffffffffffffff\n      and\n      dup2\n      mstore\n      0x20\n      add\n      dup9\n      dup2\n      mstore\n      0x20\n      add\n      dup8\n      dup2\n      mstore\n      0x20\n      add\n      dup7\n      dup2\n      mstore\n      0x20\n      add\n      dup6\n      dup2\n      mstore\n      0x20\n      add\n      dup5\n      0xffffffffffffffffffffffffffffffffffffffff\n      and\n      dup2\n      mstore\n      0x20\n      add\n      dup4\n      dup2\n      mstore\n      0x20\n      add\n      dup3\n      dup2\n      mstore\n      0x20\n      add\n      swap10\n      pop\n      pop\n      pop\n      pop\n      pop\n      pop\n      pop\n      pop\n      pop\n      pop\n      mload(0x40)\n      dup1\n      swap2\n      sub\n      swap1\n      return\n        /* \"contracts/oatlocker.sol\":4856:5039  function whitelistFeeAccount(address _user, bool _add) public onlyOwner {\r... */\n    tag_19:\n      callvalue\n      dup1\n      iszero\n      tag_98\n      jumpi\n      0x00\n      dup1\n      revert\n    tag_98:\n      pop\n      tag_99\n      0x04\n      dup1\n      calldatasize\n      sub\n      0x40\n      dup2\n      lt\n      iszero\n      tag_100\n      jumpi\n      0x00\n      dup1\n      revert\n    tag_100:\n      dup2\n      add\n      swap1\n      dup1\n      dup1\n      calldataload\n      0xffffffffffffffffffffffffffffffffffffffff\n      and\n      swap1\n      0x20\n      add\n      swap1\n      swap3\n      swap2\n      swap1\n      dup1\n      calldataload\n      iszero\n      iszero\n      swap1\n      0x20\n      add\n      swap1\n      swap3\n      swap2\n      swap1\n      pop\n      pop\n      pop\n      tag_101\n      jump\t// in\n    tag_99:\n      stop\n        /* \"contracts/oatlocker.sol\":16708:16877  function getUserNumLockedTokens (address _user) external view returns (uint256) {\r... */\n    tag_20:\n      callvalue\n      dup1\n      iszero\n      tag_102\n      jumpi\n      0x00\n      dup1\n      revert\n    tag_102:\n      pop\n      tag_103\n      0x04\n      dup1\n      calldatasize\n      sub\n      0x20\n      dup2\n      lt\n      iszero\n      tag_104\n      jumpi\n      0x00\n      dup1\n      revert\n    tag_104:\n      dup2\n      add\n      swap1\n      dup1\n      dup1\n      calldataload\n      0xffffffffffffffffffffffffffffffffffffffff\n      and\n      swap1\n      0x20\n      add\n      swap1\n      swap3\n      swap2\n      swap1\n      pop\n      pop\n      pop\n      tag_105\n      jump\t// in\n    tag_103:\n      mload(0x40)\n      dup1\n      dup3\n      dup2\n      mstore\n      0x20\n      add\n      swap2\n      pop\n      pop\n      mload(0x40)\n      dup1\n      swap2\n      sub\n      swap1\n      return\n        /* \"contracts/oatlocker.sol\":17083:17280  function getUserNumLocksForToken (address _user, address _lpToken) external view returns (uint256) {\r... */\n    tag_21:\n      callvalue\n      dup1\n      iszero\n      tag_106\n      jumpi\n      0x00\n      dup1\n      revert\n    tag_106:\n      pop\n      tag_107\n      0x04\n      dup1\n      calldatasize\n      sub\n      0x40\n      dup2\n      lt\n      iszero\n      tag_108\n      jumpi\n      0x00\n      dup1\n      revert\n    tag_108:\n      dup2\n      add\n      swap1\n      dup1\n      dup1\n      calldataload\n      0xffffffffffffffffffffffffffffffffffffffff\n      and\n      swap1\n      0x20\n      add\n      swap1\n      swap3\n      swap2\n      swap1\n      dup1\n      calldataload\n      0xffffffffffffffffffffffffffffffffffffffff\n      and\n      swap1\n      0x20\n      add\n      swap1\n      swap3\n      swap2\n      swap1\n      pop\n      pop\n      pop\n      tag_109\n      jump\t// in\n    tag_107:\n      mload(0x40)\n      dup1\n      dup3\n      dup2\n      mstore\n      0x20\n      add\n      swap2\n      pop\n      pop\n      mload(0x40)\n      dup1\n      swap2\n      sub\n      swap1\n      return\n        /* \"contracts/oatlocker.sol\":11811:12731  function incrementLock (address _lpToken, uint256 _index, uint256 _lockID, uint256 _amount) external nonReentrant {\r... */\n    tag_22:\n      callvalue\n      dup1\n      iszero\n      tag_110\n      jumpi\n      0x00\n      dup1\n      revert\n    tag_110:\n      pop\n      tag_111\n      0x04\n      dup1\n      calldatasize\n      sub\n      0x80\n      dup2\n      lt\n      iszero\n      tag_112\n      jumpi\n      0x00\n      dup1\n      revert\n    tag_112:\n      dup2\n      add\n      swap1\n      dup1\n      dup1\n      calldataload\n      0xffffffffffffffffffffffffffffffffffffffff\n      and\n      swap1\n      0x20\n      add\n      swap1\n      swap3\n      swap2\n      swap1\n      dup1\n      calldataload\n      swap1\n      0x20\n      add\n      swap1\n      swap3\n      swap2\n      swap1\n      dup1\n      calldataload\n      swap1\n      0x20\n      add\n      swap1\n      swap3\n      swap2\n      swap1\n      dup1\n      calldataload\n      swap1\n      0x20\n      add\n      swap1\n      swap3\n      swap2\n      swap1\n      pop\n      pop\n      pop\n      tag_113\n      jump\t// in\n    tag_111:\n      stop\n        /* \"contracts/oatlocker.sol\":18006:18131  function getUserWhitelistStatus (address _user) external view returns (bool) {\r... */\n    tag_23:\n      callvalue\n      dup1\n      iszero\n      tag_114\n      jumpi\n      0x00\n      dup1\n      revert\n    tag_114:\n      pop\n      tag_115\n      0x04\n      dup1\n      calldatasize\n      sub\n      0x20\n      dup2\n      lt\n      iszero\n      tag_116\n      jumpi\n      0x00\n      dup1\n      revert\n    tag_116:\n      dup2\n      add\n      swap1\n      dup1\n      dup1\n      calldataload\n      0xffffffffffffffffffffffffffffffffffffffff\n      and\n      swap1\n      0x20\n      add\n      swap1\n      swap3\n      swap2\n      swap1\n      pop\n      pop\n      pop\n      tag_117\n      jump\t// in\n    tag_115:\n      mload(0x40)\n      dup1\n      dup3\n      iszero\n      iszero\n      dup2\n      mstore\n      0x20\n      add\n      swap2\n      pop\n      pop\n      mload(0x40)\n      dup1\n      swap2\n      sub\n      swap1\n      return\n        /* \"contracts/oatlocker.sol\":14182:15211  function transferLockOwnership (address _lpToken, uint256 _index, uint256 _lockID, address payable _newOwner) external {\r... */\n    tag_24:\n      callvalue\n      dup1\n      iszero\n      tag_118\n      jumpi\n      0x00\n      dup1\n      revert\n    tag_118:\n      pop\n      tag_119\n      0x04\n      dup1\n      calldatasize\n      sub\n      0x80\n      dup2\n      lt\n      iszero\n      tag_120\n      jumpi\n      0x00\n      dup1\n      revert\n    tag_120:\n      dup2\n      add\n      swap1\n      dup1\n      dup1\n      calldataload\n      0xffffffffffffffffffffffffffffffffffffffff\n      and\n      swap1\n      0x20\n      add\n      swap1\n      swap3\n      swap2\n      swap1\n      dup1\n      calldataload\n      swap1\n      0x20\n      add\n      swap1\n      swap3\n      swap2\n      swap1\n      dup1\n      calldataload\n      swap1\n      0x20\n      add\n      swap1\n      swap3\n      swap2\n      swap1\n      dup1\n      calldataload\n      0xffffffffffffffffffffffffffffffffffffffff\n      and\n      swap1\n      0x20\n      add\n      swap1\n      swap3\n      swap2\n      swap1\n      pop\n      pop\n      pop\n      tag_121\n      jump\t// in\n    tag_119:\n      stop\n        /* \"contracts/oatlocker.sol\":2083:2132  mapping(address => TokenLock[]) public tokenLocks */\n    tag_25:\n      callvalue\n      dup1\n      iszero\n      tag_122\n      jumpi\n      0x00\n      dup1\n      revert\n    tag_122:\n      pop\n      tag_123\n      0x04\n      dup1\n      calldatasize\n      sub\n      0x40\n      dup2\n      lt\n      iszero\n      tag_124\n      jumpi\n      0x00\n      dup1\n      revert\n    tag_124:\n      dup2\n      add\n      swap1\n      dup1\n      dup1\n      calldataload\n      0xffffffffffffffffffffffffffffffffffffffff\n      and\n      swap1\n      0x20\n      add\n      swap1\n      swap3\n      swap2\n      swap1\n      dup1\n      calldataload\n      swap1\n      0x20\n      add\n      swap1\n      swap3\n      swap2\n      swap1\n      pop\n      pop\n      pop\n      tag_125\n      jump\t// in\n    tag_123:\n      mload(0x40)\n      dup1\n      dup8\n      dup2\n      mstore\n      0x20\n      add\n      dup7\n      dup2\n      mstore\n      0x20\n      add\n      dup6\n      dup2\n      mstore\n      0x20\n      add\n      dup5\n      dup2\n      mstore\n      0x20\n      add\n      dup4\n      dup2\n      mstore\n      0x20\n      add\n      dup3\n      0xffffffffffffffffffffffffffffffffffffffff\n      and\n      dup2\n      mstore\n      0x20\n      add\n      swap7\n      pop\n      pop\n      pop\n      pop\n      pop\n      pop\n      pop\n      mload(0x40)\n      dup1\n      swap2\n      sub\n      swap1\n      return\n        /* \"contracts/oatlocker.sol\":3532:3622  function setDev(address payable _devaddr) public onlyOwner {\r... */\n    tag_26:\n      callvalue\n      dup1\n      iszero\n      tag_126\n      jumpi\n      0x00\n      dup1\n      revert\n    tag_126:\n      pop\n      tag_127\n      0x04\n      dup1\n      calldatasize\n      sub\n      0x20\n      dup2\n      lt\n      iszero\n      tag_128\n      jumpi\n      0x00\n      dup1\n      revert\n    tag_128:\n      dup2\n      add\n      swap1\n      dup1\n      dup1\n      calldataload\n      0xffffffffffffffffffffffffffffffffffffffff\n      and\n      swap1\n      0x20\n      add\n      swap1\n      swap3\n      swap2\n      swap1\n      pop\n      pop\n      pop\n      tag_129\n      jump\t// in\n    tag_127:\n      stop\n        /* \"contracts/oatlocker.sol\":17288:17728  function getUserLockForTokenAtIndex (address _user, address _lpToken, uint256 _index) external view \r... */\n    tag_27:\n      callvalue\n      dup1\n      iszero\n      tag_130\n      jumpi\n      0x00\n      dup1\n      revert\n    tag_130:\n      pop\n      tag_131\n      0x04\n      dup1\n      calldatasize\n      sub\n      0x60\n      dup2\n      lt\n      iszero\n      tag_132\n      jumpi\n      0x00\n      dup1\n      revert\n    tag_132:\n      dup2\n      add\n      swap1\n      dup1\n      dup1\n      calldataload\n      0xffffffffffffffffffffffffffffffffffffffff\n      and\n      swap1\n      0x20\n      add\n      swap1\n      swap3\n      swap2\n      swap1\n      dup1\n      calldataload\n      0xffffffffffffffffffffffffffffffffffffffff\n      and\n      swap1\n      0x20\n      add\n      swap1\n      swap3\n      swap2\n      swap1\n      dup1\n      calldataload\n      swap1\n      0x20\n      add\n      swap1\n      swap3\n      swap2\n      swap1\n      pop\n      pop\n      pop\n      tag_133\n      jump\t// in\n    tag_131:\n      mload(0x40)\n      dup1\n      dup8\n      dup2\n      mstore\n      0x20\n      add\n      dup7\n      dup2\n      mstore\n      0x20\n      add\n      dup6\n      dup2\n      mstore\n      0x20\n      add\n      dup5\n      dup2\n      mstore\n      0x20\n      add\n      dup4\n      dup2\n      mstore\n      0x20\n      add\n      dup3\n      0xffffffffffffffffffffffffffffffffffffffff\n      and\n      dup2\n      mstore\n      0x20\n      add\n      swap7\n      pop\n      pop\n      pop\n      pop\n      pop\n      pop\n      pop\n      mload(0x40)\n      dup1\n      swap2\n      sub\n      swap1\n      return\n        /* \"contracts/oatlocker.sol\":15280:16301  function migrate (address _lpToken, uint256 _index, uint256 _lockID, uint256 _amount) external nonReentrant {\r... */\n    tag_28:\n      callvalue\n      dup1\n      iszero\n      tag_134\n      jumpi\n      0x00\n      dup1\n      revert\n    tag_134:\n      pop\n      tag_135\n      0x04\n      dup1\n      calldatasize\n      sub\n      0x80\n      dup2\n      lt\n      iszero\n      tag_136\n      jumpi\n      0x00\n      dup1\n      revert\n    tag_136:\n      dup2\n      add\n      swap1\n      dup1\n      dup1\n      calldataload\n      0xffffffffffffffffffffffffffffffffffffffff\n      and\n      swap1\n      0x20\n      add\n      swap1\n      swap3\n      swap2\n      swap1\n      dup1\n      calldataload\n      swap1\n      0x20\n      add\n      swap1\n      swap3\n      swap2\n      swap1\n      dup1\n      calldataload\n      swap1\n      0x20\n      add\n      swap1\n      swap3\n      swap2\n      swap1\n      dup1\n      calldataload\n      swap1\n      0x20\n      add\n      swap1\n      swap3\n      swap2\n      swap1\n      pop\n      pop\n      pop\n      tag_137\n      jump\t// in\n    tag_135:\n      stop\n        /* \"contracts/oatlocker.sol\":4113:4285  function setReferralTokenAndHold(IERCBurn _referralToken, uint256 _hold) public onlyOwner {\r... */\n    tag_29:\n      callvalue\n      dup1\n      iszero\n      tag_138\n      jumpi\n      0x00\n      dup1\n      revert\n    tag_138:\n      pop\n      tag_139\n      0x04\n      dup1\n      calldatasize\n      sub\n      0x40\n      dup2\n      lt\n      iszero\n      tag_140\n      jumpi\n      0x00\n      dup1\n      revert\n    tag_140:\n      dup2\n      add\n      swap1\n      dup1\n      dup1\n      calldataload\n      0xffffffffffffffffffffffffffffffffffffffff\n      and\n      swap1\n      0x20\n      add\n      swap1\n      swap3\n      swap2\n      swap1\n      dup1\n      calldataload\n      swap1\n      0x20\n      add\n      swap1\n      swap3\n      swap2\n      swap1\n      pop\n      pop\n      pop\n      tag_141\n      jump\t// in\n    tag_139:\n      stop\n        /* \"contracts/Ownable.sol\":2196:2440  function transferOwnership(address newOwner) public virtual onlyOwner {\r... */\n    tag_30:\n      callvalue\n      dup1\n      iszero\n      tag_142\n      jumpi\n      0x00\n      dup1\n      revert\n    tag_142:\n      pop\n      tag_143\n      0x04\n      dup1\n      calldatasize\n      sub\n      0x20\n      dup2\n      lt\n      iszero\n      tag_144\n      jumpi\n      0x00\n      dup1\n      revert\n    tag_144:\n      dup2\n      add\n      swap1\n      dup1\n      dup1\n      calldataload\n      0xffffffffffffffffffffffffffffffffffffffff\n      and\n      swap1\n      0x20\n      add\n      swap1\n      swap3\n      swap2\n      swap1\n      pop\n      pop\n      pop\n      tag_145\n      jump\t// in\n    tag_143:\n      stop\n        /* \"contracts/oatlocker.sol\":16556:16679  function getLockedTokenAtIndex (uint256 _index) external view returns (address) {\r... */\n    tag_41:\n        /* \"contracts/oatlocker.sol\":16627:16634  address */\n      0x00\n        /* \"contracts/oatlocker.sol\":16650:16673  lockedTokens.at(_index) */\n      tag_147\n        /* \"contracts/oatlocker.sol\":16666:16672  _index */\n      dup3\n        /* \"contracts/oatlocker.sol\":16650:16662  lockedTokens */\n      0x04\n        /* \"contracts/oatlocker.sol\":16650:16665  lockedTokens.at */\n      tag_148\n      swap1\n        /* \"contracts/oatlocker.sol\":16650:16673  lockedTokens.at(_index) */\n      swap2\n      swap1\n      0xffffffff\n      and\n      jump\t// in\n    tag_147:\n        /* \"contracts/oatlocker.sol\":16643:16673  return lockedTokens.at(_index) */\n      swap1\n      pop\n        /* \"contracts/oatlocker.sol\":16556:16679  function getLockedTokenAtIndex (uint256 _index) external view returns (address) {\r... */\n      swap2\n      swap1\n      pop\n      jump\t// out\n        /* \"contracts/oatlocker.sol\":16309:16436  function getNumLocksForToken (address _lpToken) external view returns (uint256) {\r... */\n    tag_45:\n        /* \"contracts/oatlocker.sol\":16380:16387  uint256 */\n      0x00\n        /* \"contracts/oatlocker.sol\":16403:16413  tokenLocks */\n      0x06\n        /* \"contracts/oatlocker.sol\":16403:16423  tokenLocks[_lpToken] */\n      0x00\n        /* \"contracts/oatlocker.sol\":16414:16422  _lpToken */\n      dup4\n        /* \"contracts/oatlocker.sol\":16403:16423  tokenLocks[_lpToken] */\n      0xffffffffffffffffffffffffffffffffffffffff\n      and\n      0xffffffffffffffffffffffffffffffffffffffff\n      and\n      dup2\n      mstore\n      0x20\n      add\n      swap1\n      dup2\n      mstore\n      0x20\n      add\n      0x00\n      keccak256\n        /* \"contracts/oatlocker.sol\":16403:16430  tokenLocks[_lpToken].length */\n      dup1\n      sload\n      swap1\n      pop\n        /* \"contracts/oatlocker.sol\":16396:16430  return tokenLocks[_lpToken].length */\n      swap1\n      pop\n        /* \"contracts/oatlocker.sol\":16309:16436  function getNumLocksForToken (address _lpToken) external view returns (uint256) {\r... */\n      swap2\n      swap1\n      pop\n      jump\t// out\n        /* \"contracts/oatlocker.sol\":3743:3835  function setMigrator(IMigrator _migrator) public onlyOwner {\r... */\n    tag_49:\n        /* \"contracts/Ownable.sol\":1473:1485  _msgSender() */\n      tag_151\n        /* \"contracts/Ownable.sol\":1473:1483  _msgSender */\n      tag_152\n        /* \"contracts/Ownable.sol\":1473:1485  _msgSender() */\n      jump\t// in\n    tag_151:\n        /* \"contracts/Ownable.sol\":1463:1485  _owner == _msgSender() */\n      0xffffffffffffffffffffffffffffffffffffffff\n      and\n        /* \"contracts/Ownable.sol\":1463:1469  _owner */\n      0x00\n      dup1\n      sload\n      swap1\n      0x0100\n      exp\n      swap1\n      div\n      0xffffffffffffffffffffffffffffffffffffffff\n      and\n        /* \"contracts/Ownable.sol\":1463:1485  _owner == _msgSender() */\n      0xffffffffffffffffffffffffffffffffffffffff\n      and\n      eq\n        /* \"contracts/Ownable.sol\":1455:1522  require(_owner == _msgSender(), \"Ownable: caller is not the owner\") */\n      tag_153\n      jumpi\n      mload(0x40)\n      0x08c379a000000000000000000000000000000000000000000000000000000000\n      dup2\n      mstore\n      0x04\n      add\n      dup1\n      dup1\n      0x20\n      add\n      dup3\n      dup2\n      sub\n      dup3\n      mstore\n      0x20\n      dup2\n      mstore\n      0x20\n      add\n      dup1\n      0x4f776e61626c653a2063616c6c6572206973206e6f7420746865206f776e6572\n      dup2\n      mstore\n      pop\n      0x20\n      add\n      swap2\n      pop\n      pop\n      mload(0x40)\n      dup1\n      swap2\n      sub\n      swap1\n      revert\n    tag_153:\n        /* \"contracts/oatlocker.sol\":3820:3829  _migrator */\n      dup1\n        /* \"contracts/oatlocker.sol\":3809:3817  migrator */\n      0x13\n      0x00\n        /* \"contracts/oatlocker.sol\":3809:3829  migrator = _migrator */\n      0x0100\n      exp\n      dup2\n      sload\n      dup2\n      0xffffffffffffffffffffffffffffffffffffffff\n      mul\n      not\n      and\n      swap1\n      dup4\n      0xffffffffffffffffffffffffffffffffffffffff\n      and\n      mul\n      or\n      swap1\n      sstore\n      pop\n        /* \"contracts/oatlocker.sol\":3743:3835  function setMigrator(IMigrator _migrator) public onlyOwner {\r... */\n      pop\n      jump\t// out\n        /* \"contracts/oatlocker.sol\":10642:11624  function withdraw (address _lpToken, uint256 _index, uint256 _lockID, uint256 _amount) external nonReentrant {\r... */\n    tag_53:\n        /* \"contracts/ReentrancyGuard.sol\":1867:1868  2 */\n      0x02\n        /* \"contracts/ReentrancyGuard.sol\":2473:2480  _status */\n      sload(0x01)\n        /* \"contracts/ReentrancyGuard.sol\":2473:2492  _status != _ENTERED */\n      eq\n      iszero\n        /* \"contracts/ReentrancyGuard.sol\":2465:2528  require(_status != _ENTERED, \"ReentrancyGuard: reentrant call\") */\n      tag_156\n      jumpi\n      mload(0x40)\n      0x08c379a000000000000000000000000000000000000000000000000000000000\n      dup2\n      mstore\n      0x04\n      add\n      dup1\n      dup1\n      0x20\n      add\n      dup3\n      dup2\n      sub\n      dup3\n      mstore\n      0x1f\n      dup2\n      mstore\n      0x20\n      add\n      dup1\n      0x5265656e7472616e637947756172643a207265656e7472616e742063616c6c00\n      dup2\n      mstore\n      pop\n      0x20\n      add\n      swap2\n      pop\n      pop\n      mload(0x40)\n      dup1\n      swap2\n      sub\n      swap1\n      revert\n    tag_156:\n        /* \"contracts/ReentrancyGuard.sol\":1867:1868  2 */\n      0x02\n        /* \"contracts/ReentrancyGuard.sol\":2606:2613  _status */\n      0x01\n        /* \"contracts/ReentrancyGuard.sol\":2606:2624  _status = _ENTERED */\n      dup2\n      swap1\n      sstore\n      pop\n        /* \"contracts/oatlocker.sol\":10776:10777  0 */\n      0x00\n        /* \"contracts/oatlocker.sol\":10766:10773  _amount */\n      dup2\n        /* \"contracts/oatlocker.sol\":10766:10777  _amount > 0 */\n      gt\n        /* \"contracts/oatlocker.sol\":10758:10796  require(_amount > 0, 'ZERO WITHDRAWL') */\n      tag_158\n      jumpi\n      mload(0x40)\n      0x08c379a000000000000000000000000000000000000000000000000000000000\n      dup2\n      mstore\n      0x04\n      add\n      dup1\n      dup1\n      0x20\n      add\n      dup3\n      dup2\n      sub\n      dup3\n      mstore\n      0x0e\n      dup2\n      mstore\n      0x20\n      add\n      dup1\n      0x5a45524f2057495448445241574c000000000000000000000000000000000000\n      dup2\n      mstore\n      pop\n      0x20\n      add\n      swap2\n      pop\n      pop\n      mload(0x40)\n      dup1\n      swap2\n      sub\n      swap1\n      revert\n    tag_158:\n        /* \"contracts/oatlocker.sol\":10803:10817  uint256 lockID */\n      0x00\n        /* \"contracts/oatlocker.sol\":10820:10825  users */\n      0x03\n        /* \"contracts/oatlocker.sol\":10820:10837  users[msg.sender] */\n      0x00\n        /* \"contracts/oatlocker.sol\":10826:10836  msg.sender */\n      caller\n        /* \"contracts/oatlocker.sol\":10820:10837  users[msg.sender] */\n      0xffffffffffffffffffffffffffffffffffffffff\n      and\n      0xffffffffffffffffffffffffffffffffffffffff\n      and\n      dup2\n      mstore\n      0x20\n      add\n      swap1\n      dup2\n      mstore\n      0x20\n      add\n      0x00\n      keccak256\n        /* \"contracts/oatlocker.sol\":10820:10851  users[msg.sender].locksForToken */\n      0x02\n      add\n        /* \"contracts/oatlocker.sol\":10820:10861  users[msg.sender].locksForToken[_lpToken] */\n      0x00\n        /* \"contracts/oatlocker.sol\":10852:10860  _lpToken */\n      dup7\n        /* \"contracts/oatlocker.sol\":10820:10861  users[msg.sender].locksForToken[_lpToken] */\n      0xffffffffffffffffffffffffffffffffffffffff\n      and\n      0xffffffffffffffffffffffffffffffffffffffff\n      and\n      dup2\n      mstore\n      0x20\n      add\n      swap1\n      dup2\n      mstore\n      0x20\n      add\n      0x00\n      keccak256\n        /* \"contracts/oatlocker.sol\":10862:10868  _index */\n      dup5\n        /* \"contracts/oatlocker.sol\":10820:10869  users[msg.sender].locksForToken[_lpToken][_index] */\n      dup2\n      sload\n      dup2\n      lt\n      tag_159\n      jumpi\n      invalid\n    tag_159:\n      swap1\n      0x00\n      mstore\n      keccak256(0x00, 0x20)\n      add\n      sload\n        /* \"contracts/oatlocker.sol\":10803:10869  uint256 lockID = users[msg.sender].locksForToken[_lpToken][_index] */\n      swap1\n      pop\n        /* \"contracts/oatlocker.sol\":10876:10902  TokenLock storage userLock */\n      0x00\n        /* \"contracts/oatlocker.sol\":10905:10915  tokenLocks */\n      0x06\n        /* \"contracts/oatlocker.sol\":10905:10925  tokenLocks[_lpToken] */\n      0x00\n        /* \"contracts/oatlocker.sol\":10916:10924  _lpToken */\n      dup8\n        /* \"contracts/oatlocker.sol\":10905:10925  tokenLocks[_lpToken] */\n      0xffffffffffffffffffffffffffffffffffffffff\n      and\n      0xffffffffffffffffffffffffffffffffffffffff\n      and\n      dup2\n      mstore\n      0x20\n      add\n      swap1\n      dup2\n      mstore\n      0x20\n      add\n      0x00\n      keccak256\n        /* \"contracts/oatlocker.sol\":10926:10932  lockID */\n      dup3\n        /* \"contracts/oatlocker.sol\":10905:10933  tokenLocks[_lpToken][lockID] */\n      dup2\n      sload\n      dup2\n      lt\n      tag_161\n      jumpi\n      invalid\n    tag_161:\n      swap1\n      0x00\n      mstore\n      keccak256(0x00, 0x20)\n      swap1\n      0x06\n      mul\n      add\n        /* \"contracts/oatlocker.sol\":10876:10933  TokenLock storage userLock = tokenLocks[_lpToken][lockID] */\n      swap1\n      pop\n        /* \"contracts/oatlocker.sol\":10958:10965  _lockID */\n      dup4\n        /* \"contracts/oatlocker.sol\":10948:10954  lockID */\n      dup3\n        /* \"contracts/oatlocker.sol\":10948:10965  lockID == _lockID */\n      eq\n        /* \"contracts/oatlocker.sol\":10948:10997  lockID == _lockID && userLock.owner == msg.sender */\n      dup1\n      iszero\n      tag_163\n      jumpi\n      pop\n        /* \"contracts/oatlocker.sol\":10987:10997  msg.sender */\n      caller\n        /* \"contracts/oatlocker.sol\":10969:10997  userLock.owner == msg.sender */\n      0xffffffffffffffffffffffffffffffffffffffff\n      and\n        /* \"contracts/oatlocker.sol\":10969:10977  userLock */\n      dup2\n        /* \"contracts/oatlocker.sol\":10969:10983  userLock.owner */\n      0x05\n      add\n      0x00\n      swap1\n      sload\n      swap1\n      0x0100\n      exp\n      swap1\n      div\n      0xffffffffffffffffffffffffffffffffffffffff\n      and\n        /* \"contracts/oatlocker.sol\":10969:10997  userLock.owner == msg.sender */\n      0xffffffffffffffffffffffffffffffffffffffff\n      and\n      eq\n        /* \"contracts/oatlocker.sol\":10948:10997  lockID == _lockID && userLock.owner == msg.sender */\n    tag_163:\n        /* \"contracts/oatlocker.sol\":10940:11015  require(lockID == _lockID && userLock.owner == msg.sender, 'LOCK MISMATCH') */\n      tag_164\n      jumpi\n      mload(0x40)\n      0x08c379a000000000000000000000000000000000000000000000000000000000\n      dup2\n      mstore\n      0x04\n      add\n      dup1\n      dup1\n      0x20\n      add\n      dup3\n      dup2\n      sub\n      dup3\n      mstore\n      0x0d\n      dup2\n      mstore\n      0x20\n      add\n      dup1\n      0x4c4f434b204d49534d4154434800000000000000000000000000000000000000\n      dup2\n      mstore\n      pop\n      0x20\n      add\n      swap2\n      pop\n      pop\n      mload(0x40)\n      dup1\n      swap2\n      sub\n      swap1\n      revert\n    tag_164:\n        /* \"contracts/oatlocker.sol\":11088:11103  block.timestamp */\n      timestamp\n        /* \"contracts/oatlocker.sol\":11066:11074  userLock */\n      dup2\n        /* \"contracts/oatlocker.sol\":11066:11085  userLock.unlockDate */\n      0x03\n      add\n      sload\n        /* \"contracts/oatlocker.sol\":11066:11103  userLock.unlockDate < block.timestamp */\n      lt\n        /* \"contracts/oatlocker.sol\":11058:11115  require(userLock.unlockDate < block.timestamp, 'NOT YET') */\n      tag_165\n      jumpi\n      mload(0x40)\n      0x08c379a000000000000000000000000000000000000000000000000000000000\n      dup2\n      mstore\n      0x04\n      add\n      dup1\n      dup1\n      0x20\n      add\n      dup3\n      dup2\n      sub\n      dup3\n      mstore\n      0x07\n      dup2\n      mstore\n      0x20\n      add\n      dup1\n      0x4e4f542059455400000000000000000000000000000000000000000000000000\n      dup2\n      mstore\n      pop\n      0x20\n      add\n      swap2\n      pop\n      pop\n      mload(0x40)\n      dup1\n      swap2\n      sub\n      swap1\n      revert\n    tag_165:\n        /* \"contracts/oatlocker.sol\":11140:11168  userLock.amount.sub(_amount) */\n      tag_166\n        /* \"contracts/oatlocker.sol\":11160:11167  _amount */\n      dup4\n        /* \"contracts/oatlocker.sol\":11140:11148  userLock */\n      dup3\n        /* \"contracts/oatlocker.sol\":11140:11155  userLock.amount */\n      0x01\n      add\n      sload\n        /* \"contracts/oatlocker.sol\":11140:11159  userLock.amount.sub */\n      tag_167\n      swap1\n        /* \"contracts/oatlocker.sol\":11140:11168  userLock.amount.sub(_amount) */\n      swap2\n      swap1\n      0xffffffff\n      and\n      jump\t// in\n    tag_166:\n        /* \"contracts/oatlocker.sol\":11122:11130  userLock */\n      dup2\n        /* \"contracts/oatlocker.sol\":11122:11137  userLock.amount */\n      0x01\n      add\n        /* \"contracts/oatlocker.sol\":11122:11168  userLock.amount = userLock.amount.sub(_amount) */\n      dup2\n      swap1\n      sstore\n      pop\n        /* \"contracts/oatlocker.sol\":11231:11232  0 */\n      0x00\n        /* \"contracts/oatlocker.sol\":11212:11220  userLock */\n      dup2\n        /* \"contracts/oatlocker.sol\":11212:11227  userLock.amount */\n      0x01\n      add\n      sload\n        /* \"contracts/oatlocker.sol\":11212:11232  userLock.amount == 0 */\n      eq\n        /* \"contracts/oatlocker.sol\":11208:11507  if (userLock.amount == 0) {\r... */\n      iszero\n      tag_168\n      jumpi\n        /* \"contracts/oatlocker.sol\":11243:11270  uint256[] storage userLocks */\n      0x00\n        /* \"contracts/oatlocker.sol\":11273:11278  users */\n      0x03\n        /* \"contracts/oatlocker.sol\":11273:11290  users[msg.sender] */\n      0x00\n        /* \"contracts/oatlocker.sol\":11279:11289  msg.sender */\n      caller\n        /* \"contracts/oatlocker.sol\":11273:11290  users[msg.sender] */\n      0xffffffffffffffffffffffffffffffffffffffff\n      and\n      0xffffffffffffffffffffffffffffffffffffffff\n      and\n      dup2\n      mstore\n      0x20\n      add\n      swap1\n      dup2\n      mstore\n      0x20\n      add\n      0x00\n      keccak256\n        /* \"contracts/oatlocker.sol\":11273:11304  users[msg.sender].locksForToken */\n      0x02\n      add\n        /* \"contracts/oatlocker.sol\":11273:11314  users[msg.sender].locksForToken[_lpToken] */\n      0x00\n        /* \"contracts/oatlocker.sol\":11305:11313  _lpToken */\n      dup9\n        /* \"contracts/oatlocker.sol\":11273:11314  users[msg.sender].locksForToken[_lpToken] */\n      0xffffffffffffffffffffffffffffffffffffffff\n      and\n      0xffffffffffffffffffffffffffffffffffffffff\n      and\n      dup2\n      mstore\n      0x20\n      add\n      swap1\n      dup2\n      mstore\n      0x20\n      add\n      0x00\n      keccak256\n        /* \"contracts/oatlocker.sol\":11243:11314  uint256[] storage userLocks = users[msg.sender].locksForToken[_lpToken] */\n      swap1\n      pop\n        /* \"contracts/oatlocker.sol\":11343:11352  userLocks */\n      dup1\n        /* \"contracts/oatlocker.sol\":11370:11371  1 */\n      0x01\n        /* \"contracts/oatlocker.sol\":11353:11362  userLocks */\n      dup3\n        /* \"contracts/oatlocker.sol\":11353:11369  userLocks.length */\n      dup1\n      sload\n      swap1\n      pop\n        /* \"contracts/oatlocker.sol\":11353:11371  userLocks.length-1 */\n      sub\n        /* \"contracts/oatlocker.sol\":11343:11372  userLocks[userLocks.length-1] */\n      dup2\n      sload\n      dup2\n      lt\n      tag_169\n      jumpi\n      invalid\n    tag_169:\n      swap1\n      0x00\n      mstore\n      keccak256(0x00, 0x20)\n      add\n      sload\n        /* \"contracts/oatlocker.sol\":11323:11332  userLocks */\n      dup2\n        /* \"contracts/oatlocker.sol\":11333:11339  _index */\n      dup8\n        /* \"contracts/oatlocker.sol\":11323:11340  userLocks[_index] */\n      dup2\n      sload\n      dup2\n      lt\n      tag_171\n      jumpi\n      invalid\n    tag_171:\n      swap1\n      0x00\n      mstore\n      keccak256(0x00, 0x20)\n      add\n        /* \"contracts/oatlocker.sol\":11323:11372  userLocks[_index] = userLocks[userLocks.length-1] */\n      dup2\n      swap1\n      sstore\n      pop\n        /* \"contracts/oatlocker.sol\":11381:11390  userLocks */\n      dup1\n        /* \"contracts/oatlocker.sol\":11381:11396  userLocks.pop() */\n      dup1\n      sload\n      dup1\n      tag_173\n      jumpi\n      invalid\n    tag_173:\n      0x01\n      swap1\n      sub\n      dup2\n      dup2\n      swap1\n      0x00\n      mstore\n      keccak256(0x00, 0x20)\n      add\n      0x00\n      swap1\n      sstore\n      swap1\n      sstore\n        /* \"contracts/oatlocker.sol\":11429:11430  0 */\n      0x00\n        /* \"contracts/oatlocker.sol\":11409:11418  userLocks */\n      dup2\n        /* \"contracts/oatlocker.sol\":11409:11425  userLocks.length */\n      dup1\n      sload\n      swap1\n      pop\n        /* \"contracts/oatlocker.sol\":11409:11430  userLocks.length == 0 */\n      eq\n        /* \"contracts/oatlocker.sol\":11405:11500  if (userLocks.length == 0) {\r... */\n      iszero\n      tag_175\n      jumpi\n        /* \"contracts/oatlocker.sol\":11443:11490  users[msg.sender].lockedTokens.remove(_lpToken) */\n      tag_176\n        /* \"contracts/oatlocker.sol\":11481:11489  _lpToken */\n      dup8\n        /* \"contracts/oatlocker.sol\":11443:11448  users */\n      0x03\n        /* \"contracts/oatlocker.sol\":11443:11460  users[msg.sender] */\n      0x00\n        /* \"contracts/oatlocker.sol\":11449:11459  msg.sender */\n      caller\n        /* \"contracts/oatlocker.sol\":11443:11460  users[msg.sender] */\n      0xffffffffffffffffffffffffffffffffffffffff\n      and\n      0xffffffffffffffffffffffffffffffffffffffff\n      and\n      dup2\n      mstore\n      0x20\n      add\n      swap1\n      dup2\n      mstore\n      0x20\n      add\n      0x00\n      keccak256\n        /* \"contracts/oatlocker.sol\":11443:11473  users[msg.sender].lockedTokens */\n      0x00\n      add\n        /* \"contracts/oatlocker.sol\":11443:11480  users[msg.sender].lockedTokens.remove */\n      tag_177\n      swap1\n        /* \"contracts/oatlocker.sol\":11443:11490  users[msg.sender].lockedTokens.remove(_lpToken) */\n      swap2\n      swap1\n      0xffffffff\n      and\n      jump\t// in\n    tag_176:\n      pop\n        /* \"contracts/oatlocker.sol\":11405:11500  if (userLocks.length == 0) {\r... */\n    tag_175:\n        /* \"contracts/oatlocker.sol\":11208:11507  if (userLock.amount == 0) {\r... */\n      pop\n    tag_168:\n        /* \"contracts/oatlocker.sol\":11519:11577  TransferHelper.safeTransfer(_lpToken, msg.sender, _amount) */\n      tag_178\n        /* \"contracts/oatlocker.sol\":11547:11555  _lpToken */\n      dup7\n        /* \"contracts/oatlocker.sol\":11557:11567  msg.sender */\n      caller\n        /* \"contracts/oatlocker.sol\":11569:11576  _amount */\n      dup6\n        /* \"contracts/oatlocker.sol\":11519:11546  TransferHelper.safeTransfer */\n      tag_179\n        /* \"contracts/oatlocker.sol\":11519:11577  TransferHelper.safeTransfer(_lpToken, msg.sender, _amount) */\n      jump\t// in\n    tag_178:\n        /* \"contracts/oatlocker.sol\":11589:11618  onWithdraw(_lpToken, _amount) */\n      0xccad973dcd043c7d680389db4378bd6b9775db7124092e9e0422c9e46d7985dc\n        /* \"contracts/oatlocker.sol\":11600:11608  _lpToken */\n      dup7\n        /* \"contracts/oatlocker.sol\":11610:11617  _amount */\n      dup5\n        /* \"contracts/oatlocker.sol\":11589:11618  onWithdraw(_lpToken, _amount) */\n      mload(0x40)\n      dup1\n      dup4\n      0xffffffffffffffffffffffffffffffffffffffff\n      and\n      dup2\n      mstore\n      0x20\n      add\n      dup3\n      dup2\n      mstore\n      0x20\n      add\n      swap3\n      pop\n      pop\n      pop\n      mload(0x40)\n      dup1\n      swap2\n      sub\n      swap1\n      log1\n        /* \"contracts/ReentrancyGuard.sol\":2637:2638  _ */\n      pop\n      pop\n        /* \"contracts/ReentrancyGuard.sol\":1823:1824  1 */\n      0x01\n        /* \"contracts/ReentrancyGuard.sol\":2785:2792  _status */\n      dup1\n        /* \"contracts/ReentrancyGuard.sol\":2785:2807  _status = _NOT_ENTERED */\n      dup2\n      swap1\n      sstore\n      pop\n        /* \"contracts/oatlocker.sol\":10642:11624  function withdraw (address _lpToken, uint256 _index, uint256 _lockID, uint256 _amount) external nonReentrant {\r... */\n      pop\n      pop\n      pop\n      pop\n      jump\t// out\n        /* \"contracts/oatlocker.sol\":17752:17863  function getWhitelistedUsersLength () external view returns (uint256) {\r... */\n    tag_56:\n        /* \"contracts/oatlocker.sol\":17813:17820  uint256 */\n      0x00\n        /* \"contracts/oatlocker.sol\":17836:17857  feeWhitelist.length() */\n      tag_181\n        /* \"contracts/oatlocker.sol\":17836:17848  feeWhitelist */\n      0x10\n        /* \"contracts/oatlocker.sol\":17836:17855  feeWhitelist.length */\n      tag_182\n        /* \"contracts/oatlocker.sol\":17836:17857  feeWhitelist.length() */\n      jump\t// in\n    tag_181:\n        /* \"contracts/oatlocker.sol\":17829:17857  return feeWhitelist.length() */\n      swap1\n      pop\n        /* \"contracts/oatlocker.sol\":17752:17863  function getWhitelistedUsersLength () external view returns (uint256) {\r... */\n      swap1\n      jump\t// out\n        /* \"contracts/oatlocker.sol\":12914:14076  function splitLock (address _lpToken, uint256 _index, uint256 _lockID, uint256 _amount) external payable nonReentrant {\r... */\n    tag_59:\n        /* \"contracts/ReentrancyGuard.sol\":1867:1868  2 */\n      0x02\n        /* \"contracts/ReentrancyGuard.sol\":2473:2480  _status */\n      sload(0x01)\n        /* \"contracts/ReentrancyGuard.sol\":2473:2492  _status != _ENTERED */\n      eq\n      iszero\n        /* \"contracts/ReentrancyGuard.sol\":2465:2528  require(_status != _ENTERED, \"ReentrancyGuard: reentrant call\") */\n      tag_184\n      jumpi\n      mload(0x40)\n      0x08c379a000000000000000000000000000000000000000000000000000000000\n      dup2\n      mstore\n      0x04\n      add\n      dup1\n      dup1\n      0x20\n      add\n      dup3\n      dup2\n      sub\n      dup3\n      mstore\n      0x1f\n      dup2\n      mstore\n      0x20\n      add\n      dup1\n      0x5265656e7472616e637947756172643a207265656e7472616e742063616c6c00\n      dup2\n      mstore\n      pop\n      0x20\n      add\n      swap2\n      pop\n      pop\n      mload(0x40)\n      dup1\n      swap2\n      sub\n      swap1\n      revert\n    tag_184:\n        /* \"contracts/ReentrancyGuard.sol\":1867:1868  2 */\n      0x02\n        /* \"contracts/ReentrancyGuard.sol\":2606:2613  _status */\n      0x01\n        /* \"contracts/ReentrancyGuard.sol\":2606:2624  _status = _ENTERED */\n      dup2\n      swap1\n      sstore\n      pop\n        /* \"contracts/oatlocker.sol\":13057:13058  0 */\n      0x00\n        /* \"contracts/oatlocker.sol\":13047:13054  _amount */\n      dup2\n        /* \"contracts/oatlocker.sol\":13047:13058  _amount > 0 */\n      gt\n        /* \"contracts/oatlocker.sol\":13039:13074  require(_amount > 0, 'ZERO AMOUNT') */\n      tag_186\n      jumpi\n      mload(0x40)\n      0x08c379a000000000000000000000000000000000000000000000000000000000\n      dup2\n      mstore\n      0x04\n      add\n      dup1\n      dup1\n      0x20\n      add\n      dup3\n      dup2\n      sub\n      dup3\n      mstore\n      0x0b\n      dup2\n      mstore\n      0x20\n      add\n      dup1\n      0x5a45524f20414d4f554e54000000000000000000000000000000000000000000\n      dup2\n      mstore\n      pop\n      0x20\n      add\n      swap2\n      pop\n      pop\n      mload(0x40)\n      dup1\n      swap2\n      sub\n      swap1\n      revert\n    tag_186:\n        /* \"contracts/oatlocker.sol\":13081:13095  uint256 lockID */\n      0x00\n        /* \"contracts/oatlocker.sol\":13098:13103  users */\n      0x03\n        /* \"contracts/oatlocker.sol\":13098:13115  users[msg.sender] */\n      0x00\n        /* \"contracts/oatlocker.sol\":13104:13114  msg.sender */\n      caller\n        /* \"contracts/oatlocker.sol\":13098:13115  users[msg.sender] */\n      0xffffffffffffffffffffffffffffffffffffffff\n      and\n      0xffffffffffffffffffffffffffffffffffffffff\n      and\n      dup2\n      mstore\n      0x20\n      add\n      swap1\n      dup2\n      mstore\n      0x20\n      add\n      0x00\n      keccak256\n        /* \"contracts/oatlocker.sol\":13098:13129  users[msg.sender].locksForToken */\n      0x02\n      add\n        /* \"contracts/oatlocker.sol\":13098:13139  users[msg.sender].locksForToken[_lpToken] */\n      0x00\n        /* \"contracts/oatlocker.sol\":13130:13138  _lpToken */\n      dup7\n        /* \"contracts/oatlocker.sol\":13098:13139  users[msg.sender].locksForToken[_lpToken] */\n      0xffffffffffffffffffffffffffffffffffffffff\n      and\n      0xffffffffffffffffffffffffffffffffffffffff\n      and\n      dup2\n      mstore\n      0x20\n      add\n      swap1\n      dup2\n      mstore\n      0x20\n      add\n      0x00\n      keccak256\n        /* \"contracts/oatlocker.sol\":13140:13146  _index */\n      dup5\n        /* \"contracts/oatlocker.sol\":13098:13147  users[msg.sender].locksForToken[_lpToken][_index] */\n      dup2\n      sload\n      dup2\n      lt\n      tag_187\n      jumpi\n      invalid\n    tag_187:\n      swap1\n      0x00\n      mstore\n      keccak256(0x00, 0x20)\n      add\n      sload\n        /* \"contracts/oatlocker.sol\":13081:13147  uint256 lockID = users[msg.sender].locksForToken[_lpToken][_index] */\n      swap1\n      pop\n        /* \"contracts/oatlocker.sol\":13154:13180  TokenLock storage userLock */\n      0x00\n        /* \"contracts/oatlocker.sol\":13183:13193  tokenLocks */\n      0x06\n        /* \"contracts/oatlocker.sol\":13183:13203  tokenLocks[_lpToken] */\n      0x00\n        /* \"contracts/oatlocker.sol\":13194:13202  _lpToken */\n      dup8\n        /* \"contracts/oatlocker.sol\":13183:13203  tokenLocks[_lpToken] */\n      0xffffffffffffffffffffffffffffffffffffffff\n      and\n      0xffffffffffffffffffffffffffffffffffffffff\n      and\n      dup2\n      mstore\n      0x20\n      add\n      swap1\n      dup2\n      mstore\n      0x20\n      add\n      0x00\n      keccak256\n        /* \"contracts/oatlocker.sol\":13204:13210  lockID */\n      dup3\n        /* \"contracts/oatlocker.sol\":13183:13211  tokenLocks[_lpToken][lockID] */\n      dup2\n      sload\n      dup2\n      lt\n      tag_189\n      jumpi\n      invalid\n    tag_189:\n      swap1\n      0x00\n      mstore\n      keccak256(0x00, 0x20)\n      swap1\n      0x06\n      mul\n      add\n        /* \"contracts/oatlocker.sol\":13154:13211  TokenLock storage userLock = tokenLocks[_lpToken][lockID] */\n      swap1\n      pop\n        /* \"contracts/oatlocker.sol\":13236:13243  _lockID */\n      dup4\n        /* \"contracts/oatlocker.sol\":13226:13232  lockID */\n      dup3\n        /* \"contracts/oatlocker.sol\":13226:13243  lockID == _lockID */\n      eq\n        /* \"contracts/oatlocker.sol\":13226:13275  lockID == _lockID && userLock.owner == msg.sender */\n      dup1\n      iszero\n      tag_191\n      jumpi\n      pop\n        /* \"contracts/oatlocker.sol\":13265:13275  msg.sender */\n      caller\n        /* \"contracts/oatlocker.sol\":13247:13275  userLock.owner == msg.sender */\n      0xffffffffffffffffffffffffffffffffffffffff\n      and\n        /* \"contracts/oatlocker.sol\":13247:13255  userLock */\n      dup2\n        /* \"contracts/oatlocker.sol\":13247:13261  userLock.owner */\n      0x05\n      add\n      0x00\n      swap1\n      sload\n      swap1\n      0x0100\n      exp\n      swap1\n      div\n      0xffffffffffffffffffffffffffffffffffffffff\n      and\n        /* \"contracts/oatlocker.sol\":13247:13275  userLock.owner == msg.sender */\n      0xffffffffffffffffffffffffffffffffffffffff\n      and\n      eq\n        /* \"contracts/oatlocker.sol\":13226:13275  lockID == _lockID && userLock.owner == msg.sender */\n    tag_191:\n        /* \"contracts/oatlocker.sol\":13218:13293  require(lockID == _lockID && userLock.owner == msg.sender, 'LOCK MISMATCH') */\n      tag_192\n      jumpi\n      mload(0x40)\n      0x08c379a000000000000000000000000000000000000000000000000000000000\n      dup2\n      mstore\n      0x04\n      add\n      dup1\n      dup1\n      0x20\n      add\n      dup3\n      dup2\n      sub\n      dup3\n      mstore\n      0x0d\n      dup2\n      mstore\n      0x20\n      add\n      dup1\n      0x4c4f434b204d49534d4154434800000000000000000000000000000000000000\n      dup2\n      mstore\n      pop\n      0x20\n      add\n      swap2\n      pop\n      pop\n      mload(0x40)\n      dup1\n      swap2\n      sub\n      swap1\n      revert\n    tag_192:\n        /* \"contracts/oatlocker.sol\":13363:13368  gFees */\n      0x07\n        /* \"contracts/oatlocker.sol\":13363:13375  gFees.ethFee */\n      0x00\n      add\n      sload\n        /* \"contracts/oatlocker.sol\":13350:13359  msg.value */\n      callvalue\n        /* \"contracts/oatlocker.sol\":13350:13375  msg.value == gFees.ethFee */\n      eq\n        /* \"contracts/oatlocker.sol\":13342:13391  require(msg.value == gFees.ethFee, 'FEE NOT MET') */\n      tag_193\n      jumpi\n      mload(0x40)\n      0x08c379a000000000000000000000000000000000000000000000000000000000\n      dup2\n      mstore\n      0x04\n      add\n      dup1\n      dup1\n      0x20\n      add\n      dup3\n      dup2\n      sub\n      dup3\n      mstore\n      0x0b\n      dup2\n      mstore\n      0x20\n      add\n      dup1\n      0x464545204e4f54204d4554000000000000000000000000000000000000000000\n      dup2\n      mstore\n      pop\n      0x20\n      add\n      swap2\n      pop\n      pop\n      mload(0x40)\n      dup1\n      swap2\n      sub\n      swap1\n      revert\n    tag_193:\n        /* \"contracts/oatlocker.sol\":13398:13405  devaddr */\n      0x12\n      0x00\n      swap1\n      sload\n      swap1\n      0x0100\n      exp\n      swap1\n      div\n      0xffffffffffffffffffffffffffffffffffffffff\n      and\n        /* \"contracts/oatlocker.sol\":13398:13414  devaddr.transfer */\n      0xffffffffffffffffffffffffffffffffffffffff\n      and\n        /* \"contracts/oatlocker.sol\":13398:13428  devaddr.transfer(gFees.ethFee) */\n      0x08fc\n        /* \"contracts/oatlocker.sol\":13415:13420  gFees */\n      0x07\n        /* \"contracts/oatlocker.sol\":13415:13427  gFees.ethFee */\n      0x00\n      add\n      sload\n        /* \"contracts/oatlocker.sol\":13398:13428  devaddr.transfer(gFees.ethFee) */\n      swap1\n      dup2\n      iszero\n      mul\n      swap1\n      mload(0x40)\n      0x00\n      mload(0x40)\n      dup1\n      dup4\n      sub\n      dup2\n      dup6\n      dup9\n      dup9\n      call\n      swap4\n      pop\n      pop\n      pop\n      pop\n      iszero\n      dup1\n      iszero\n      tag_195\n      jumpi\n      returndatasize\n      0x00\n      dup1\n      returndatacopy\n      revert(0x00, returndatasize)\n    tag_195:\n      pop\n        /* \"contracts/oatlocker.sol\":13459:13487  userLock.amount.sub(_amount) */\n      tag_196\n        /* \"contracts/oatlocker.sol\":13479:13486  _amount */\n      dup4\n        /* \"contracts/oatlocker.sol\":13459:13467  userLock */\n      dup3\n        /* \"contracts/oatlocker.sol\":13459:13474  userLock.amount */\n      0x01\n      add\n      sload\n        /* \"contracts/oatlocker.sol\":13459:13478  userLock.amount.sub */\n      tag_167\n      swap1\n        /* \"contracts/oatlocker.sol\":13459:13487  userLock.amount.sub(_amount) */\n      swap2\n      swap1\n      0xffffffff\n      and\n      jump\t// in\n    tag_196:\n        /* \"contracts/oatlocker.sol\":13441:13449  userLock */\n      dup2\n        /* \"contracts/oatlocker.sol\":13441:13456  userLock.amount */\n      0x01\n      add\n        /* \"contracts/oatlocker.sol\":13441:13487  userLock.amount = userLock.amount.sub(_amount) */\n      dup2\n      swap1\n      sstore\n      pop\n        /* \"contracts/oatlocker.sol\":13500:13527  TokenLock memory token_lock */\n      tag_197\n      tag_198\n      jump\t// in\n    tag_197:\n        /* \"contracts/oatlocker.sol\":13556:13564  userLock */\n      dup2\n        /* \"contracts/oatlocker.sol\":13556:13573  userLock.lockDate */\n      0x00\n      add\n      sload\n        /* \"contracts/oatlocker.sol\":13534:13544  token_lock */\n      dup2\n        /* \"contracts/oatlocker.sol\":13534:13553  token_lock.lockDate */\n      0x00\n      add\n        /* \"contracts/oatlocker.sol\":13534:13573  token_lock.lockDate = userLock.lockDate */\n      dup2\n      dup2\n      mstore\n      pop\n      pop\n        /* \"contracts/oatlocker.sol\":13600:13607  _amount */\n      dup4\n        /* \"contracts/oatlocker.sol\":13580:13590  token_lock */\n      dup2\n        /* \"contracts/oatlocker.sol\":13580:13597  token_lock.amount */\n      0x20\n      add\n        /* \"contracts/oatlocker.sol\":13580:13607  token_lock.amount = _amount */\n      dup2\n      dup2\n      mstore\n      pop\n      pop\n        /* \"contracts/oatlocker.sol\":13641:13648  _amount */\n      dup4\n        /* \"contracts/oatlocker.sol\":13614:13624  token_lock */\n      dup2\n        /* \"contracts/oatlocker.sol\":13614:13638  token_lock.initialAmount */\n      0x40\n      add\n        /* \"contracts/oatlocker.sol\":13614:13648  token_lock.initialAmount = _amount */\n      dup2\n      dup2\n      mstore\n      pop\n      pop\n        /* \"contracts/oatlocker.sol\":13679:13687  userLock */\n      dup2\n        /* \"contracts/oatlocker.sol\":13679:13698  userLock.unlockDate */\n      0x03\n      add\n      sload\n        /* \"contracts/oatlocker.sol\":13655:13665  token_lock */\n      dup2\n        /* \"contracts/oatlocker.sol\":13655:13676  token_lock.unlockDate */\n      0x60\n      add\n        /* \"contracts/oatlocker.sol\":13655:13698  token_lock.unlockDate = userLock.unlockDate */\n      dup2\n      dup2\n      mstore\n      pop\n      pop\n        /* \"contracts/oatlocker.sol\":13725:13735  tokenLocks */\n      0x06\n        /* \"contracts/oatlocker.sol\":13725:13745  tokenLocks[_lpToken] */\n      0x00\n        /* \"contracts/oatlocker.sol\":13736:13744  _lpToken */\n      dup9\n        /* \"contracts/oatlocker.sol\":13725:13745  tokenLocks[_lpToken] */\n      0xffffffffffffffffffffffffffffffffffffffff\n      and\n      0xffffffffffffffffffffffffffffffffffffffff\n      and\n      dup2\n      mstore\n      0x20\n      add\n      swap1\n      dup2\n      mstore\n      0x20\n      add\n      0x00\n      keccak256\n        /* \"contracts/oatlocker.sol\":13725:13752  tokenLocks[_lpToken].length */\n      dup1\n      sload\n      swap1\n      pop\n        /* \"contracts/oatlocker.sol\":13705:13715  token_lock */\n      dup2\n        /* \"contracts/oatlocker.sol\":13705:13722  token_lock.lockID */\n      0x80\n      add\n        /* \"contracts/oatlocker.sol\":13705:13752  token_lock.lockID = tokenLocks[_lpToken].length */\n      dup2\n      dup2\n      mstore\n      pop\n      pop\n        /* \"contracts/oatlocker.sol\":13778:13788  msg.sender */\n      caller\n        /* \"contracts/oatlocker.sol\":13759:13769  token_lock */\n      dup2\n        /* \"contracts/oatlocker.sol\":13759:13775  token_lock.owner */\n      0xa0\n      add\n        /* \"contracts/oatlocker.sol\":13759:13788  token_lock.owner = msg.sender */\n      swap1\n      0xffffffffffffffffffffffffffffffffffffffff\n      and\n      swap1\n      dup2\n      0xffffffffffffffffffffffffffffffffffffffff\n      and\n      dup2\n      mstore\n      pop\n      pop\n        /* \"contracts/oatlocker.sol\":13839:13849  tokenLocks */\n      0x06\n        /* \"contracts/oatlocker.sol\":13839:13859  tokenLocks[_lpToken] */\n      0x00\n        /* \"contracts/oatlocker.sol\":13850:13858  _lpToken */\n      dup9\n        /* \"contracts/oatlocker.sol\":13839:13859  tokenLocks[_lpToken] */\n      0xffffffffffffffffffffffffffffffffffffffff\n      and\n      0xffffffffffffffffffffffffffffffffffffffff\n      and\n      dup2\n      mstore\n      0x20\n      add\n      swap1\n      dup2\n      mstore\n      0x20\n      add\n      0x00\n      keccak256\n        /* \"contracts/oatlocker.sol\":13865:13875  token_lock */\n      dup2\n        /* \"contracts/oatlocker.sol\":13839:13876  tokenLocks[_lpToken].push(token_lock) */\n      swap1\n      dup1\n      0x01\n      dup2\n      sload\n      add\n      dup1\n      dup3\n      sstore\n      dup1\n      swap2\n      pop\n      pop\n      0x01\n      swap1\n      sub\n      swap1\n      0x00\n      mstore\n      keccak256(0x00, 0x20)\n      swap1\n      0x06\n      mul\n      add\n      0x00\n      swap1\n      swap2\n      swap1\n      swap2\n      swap1\n      swap2\n      pop\n      0x00\n      dup3\n      add\n      mload\n      dup2\n      0x00\n      add\n      sstore\n      0x20\n      dup3\n      add\n      mload\n      dup2\n      0x01\n      add\n      sstore\n      0x40\n      dup3\n      add\n      mload\n      dup2\n      0x02\n      add\n      sstore\n      0x60\n      dup3\n      add\n      mload\n      dup2\n      0x03\n      add\n      sstore\n      0x80\n      dup3\n      add\n      mload\n      dup2\n      0x04\n      add\n      sstore\n      0xa0\n      dup3\n      add\n      mload\n      dup2\n      0x05\n      add\n      exp(0x0100, 0x00)\n      dup2\n      sload\n      dup2\n      0xffffffffffffffffffffffffffffffffffffffff\n      mul\n      not\n      and\n      swap1\n      dup4\n      0xffffffffffffffffffffffffffffffffffffffff\n      and\n      mul\n      or\n      swap1\n      sstore\n      pop\n      pop\n      pop\n        /* \"contracts/oatlocker.sol\":13922:13943  UserInfo storage user */\n      0x00\n        /* \"contracts/oatlocker.sol\":13946:13951  users */\n      0x03\n        /* \"contracts/oatlocker.sol\":13946:13963  users[msg.sender] */\n      0x00\n        /* \"contracts/oatlocker.sol\":13952:13962  msg.sender */\n      caller\n        /* \"contracts/oatlocker.sol\":13946:13963  users[msg.sender] */\n      0xffffffffffffffffffffffffffffffffffffffff\n      and\n      0xffffffffffffffffffffffffffffffffffffffff\n      and\n      dup2\n      mstore\n      0x20\n      add\n      swap1\n      dup2\n      mstore\n      0x20\n      add\n      0x00\n      keccak256\n        /* \"contracts/oatlocker.sol\":13922:13963  UserInfo storage user = users[msg.sender] */\n      swap1\n      pop\n        /* \"contracts/oatlocker.sol\":13970:13998  uint256[] storage user_locks */\n      0x00\n        /* \"contracts/oatlocker.sol\":14001:14005  user */\n      dup2\n        /* \"contracts/oatlocker.sol\":14001:14019  user.locksForToken */\n      0x02\n      add\n        /* \"contracts/oatlocker.sol\":14001:14029  user.locksForToken[_lpToken] */\n      0x00\n        /* \"contracts/oatlocker.sol\":14020:14028  _lpToken */\n      dup11\n        /* \"contracts/oatlocker.sol\":14001:14029  user.locksForToken[_lpToken] */\n      0xffffffffffffffffffffffffffffffffffffffff\n      and\n      0xffffffffffffffffffffffffffffffffffffffff\n      and\n      dup2\n      mstore\n      0x20\n      add\n      swap1\n      dup2\n      mstore\n      0x20\n      add\n      0x00\n      keccak256\n        /* \"contracts/oatlocker.sol\":13970:14029  uint256[] storage user_locks = user.locksForToken[_lpToken] */\n      swap1\n      pop\n        /* \"contracts/oatlocker.sol\":14036:14046  user_locks */\n      dup1\n        /* \"contracts/oatlocker.sol\":14052:14062  token_lock */\n      dup4\n        /* \"contracts/oatlocker.sol\":14052:14069  token_lock.lockID */\n      0x80\n      add\n      mload\n        /* \"contracts/oatlocker.sol\":14036:14070  user_locks.push(token_lock.lockID) */\n      swap1\n      dup1\n      0x01\n      dup2\n      sload\n      add\n      dup1\n      dup3\n      sstore\n      dup1\n      swap2\n      pop\n      pop\n      0x01\n      swap1\n      sub\n      swap1\n      0x00\n      mstore\n      keccak256(0x00, 0x20)\n      add\n      0x00\n      swap1\n      swap2\n      swap1\n      swap2\n      swap1\n      swap2\n      pop\n      sstore\n        /* \"contracts/ReentrancyGuard.sol\":2637:2638  _ */\n      pop\n      pop\n      pop\n      pop\n      pop\n        /* \"contracts/ReentrancyGuard.sol\":1823:1824  1 */\n      0x01\n        /* \"contracts/ReentrancyGuard.sol\":2785:2792  _status */\n      dup1\n        /* \"contracts/ReentrancyGuard.sol\":2785:2807  _status = _NOT_ENTERED */\n      dup2\n      swap1\n      sstore\n      pop\n        /* \"contracts/oatlocker.sol\":12914:14076  function splitLock (address _lpToken, uint256 _index, uint256 _lockID, uint256 _amount) external payable nonReentrant {\r... */\n      pop\n      pop\n      pop\n      pop\n      jump\t// out\n        /* \"contracts/oatlocker.sol\":9508:10408  function relock (address _lpToken, uint256 _index, uint256 _lockID, uint256 _unlock_date) external nonReentrant {\r... */\n    tag_63:\n        /* \"contracts/ReentrancyGuard.sol\":1867:1868  2 */\n      0x02\n        /* \"contracts/ReentrancyGuard.sol\":2473:2480  _status */\n      sload(0x01)\n        /* \"contracts/ReentrancyGuard.sol\":2473:2492  _status != _ENTERED */\n      eq\n      iszero\n        /* \"contracts/ReentrancyGuard.sol\":2465:2528  require(_status != _ENTERED, \"ReentrancyGuard: reentrant call\") */\n      tag_202\n      jumpi\n      mload(0x40)\n      0x08c379a000000000000000000000000000000000000000000000000000000000\n      dup2\n      mstore\n      0x04\n      add\n      dup1\n      dup1\n      0x20\n      add\n      dup3\n      dup2\n      sub\n      dup3\n      mstore\n      0x1f\n      dup2\n      mstore\n      0x20\n      add\n      dup1\n      0x5265656e7472616e637947756172643a207265656e7472616e742063616c6c00\n      dup2\n      mstore\n      pop\n      0x20\n      add\n      swap2\n      pop\n      pop\n      mload(0x40)\n      dup1\n      swap2\n      sub\n      swap1\n      revert\n    tag_202:\n        /* \"contracts/ReentrancyGuard.sol\":1867:1868  2 */\n      0x02\n        /* \"contracts/ReentrancyGuard.sol\":2606:2613  _status */\n      0x01\n        /* \"contracts/ReentrancyGuard.sol\":2606:2624  _status = _ENTERED */\n      dup2\n      swap1\n      sstore\n      pop\n        /* \"contracts/oatlocker.sol\":9650:9661  10000000000 */\n      0x02540be400\n        /* \"contracts/oatlocker.sol\":9635:9647  _unlock_date */\n      dup2\n        /* \"contracts/oatlocker.sol\":9635:9661  _unlock_date < 10000000000 */\n      lt\n        /* \"contracts/oatlocker.sol\":9627:9683  require(_unlock_date < 10000000000, 'TIMESTAMP INVALID') */\n      tag_204\n      jumpi\n      mload(0x40)\n      0x08c379a000000000000000000000000000000000000000000000000000000000\n      dup2\n      mstore\n      0x04\n      add\n      dup1\n      dup1\n      0x20\n      add\n      dup3\n      dup2\n      sub\n      dup3\n      mstore\n      0x11\n      dup2\n      mstore\n      0x20\n      add\n      dup1\n      0x54494d455354414d5020494e56414c4944000000000000000000000000000000\n      dup2\n      mstore\n      pop\n      0x20\n      add\n      swap2\n      pop\n      pop\n      mload(0x40)\n      dup1\n      swap2\n      sub\n      swap1\n      revert\n    tag_204:\n        /* \"contracts/oatlocker.sol\":9748:9762  uint256 lockID */\n      0x00\n        /* \"contracts/oatlocker.sol\":9765:9770  users */\n      0x03\n        /* \"contracts/oatlocker.sol\":9765:9782  users[msg.sender] */\n      0x00\n        /* \"contracts/oatlocker.sol\":9771:9781  msg.sender */\n      caller\n        /* \"contracts/oatlocker.sol\":9765:9782  users[msg.sender] */\n      0xffffffffffffffffffffffffffffffffffffffff\n      and\n      0xffffffffffffffffffffffffffffffffffffffff\n      and\n      dup2\n      mstore\n      0x20\n      add\n      swap1\n      dup2\n      mstore\n      0x20\n      add\n      0x00\n      keccak256\n        /* \"contracts/oatlocker.sol\":9765:9796  users[msg.sender].locksForToken */\n      0x02\n      add\n        /* \"contracts/oatlocker.sol\":9765:9806  users[msg.sender].locksForToken[_lpToken] */\n      0x00\n        /* \"contracts/oatlocker.sol\":9797:9805  _lpToken */\n      dup7\n        /* \"contracts/oatlocker.sol\":9765:9806  users[msg.sender].locksForToken[_lpToken] */\n      0xffffffffffffffffffffffffffffffffffffffff\n      and\n      0xffffffffffffffffffffffffffffffffffffffff\n      and\n      dup2\n      mstore\n      0x20\n      add\n      swap1\n      dup2\n      mstore\n      0x20\n      add\n      0x00\n      keccak256\n        /* \"contracts/oatlocker.sol\":9807:9813  _index */\n      dup5\n        /* \"contracts/oatlocker.sol\":9765:9814  users[msg.sender].locksForToken[_lpToken][_index] */\n      dup2\n      sload\n      dup2\n      lt\n      tag_205\n      jumpi\n      invalid\n    tag_205:\n      swap1\n      0x00\n      mstore\n      keccak256(0x00, 0x20)\n      add\n      sload\n        /* \"contracts/oatlocker.sol\":9748:9814  uint256 lockID = users[msg.sender].locksForToken[_lpToken][_index] */\n      swap1\n      pop\n        /* \"contracts/oatlocker.sol\":9821:9847  TokenLock storage userLock */\n      0x00\n        /* \"contracts/oatlocker.sol\":9850:9860  tokenLocks */\n      0x06\n        /* \"contracts/oatlocker.sol\":9850:9870  tokenLocks[_lpToken] */\n      0x00\n        /* \"contracts/oatlocker.sol\":9861:9869  _lpToken */\n      dup8\n        /* \"contracts/oatlocker.sol\":9850:9870  tokenLocks[_lpToken] */\n      0xffffffffffffffffffffffffffffffffffffffff\n      and\n      0xffffffffffffffffffffffffffffffffffffffff\n      and\n      dup2\n      mstore\n      0x20\n      add\n      swap1\n      dup2\n      mstore\n      0x20\n      add\n      0x00\n      keccak256\n        /* \"contracts/oatlocker.sol\":9871:9877  lockID */\n      dup3\n        /* \"contracts/oatlocker.sol\":9850:9878  tokenLocks[_lpToken][lockID] */\n      dup2\n      sload\n      dup2\n      lt\n      tag_207\n      jumpi\n      invalid\n    tag_207:\n      swap1\n      0x00\n      mstore\n      keccak256(0x00, 0x20)\n      swap1\n      0x06\n      mul\n      add\n        /* \"contracts/oatlocker.sol\":9821:9878  TokenLock storage userLock = tokenLocks[_lpToken][lockID] */\n      swap1\n      pop\n        /* \"contracts/oatlocker.sol\":9903:9910  _lockID */\n      dup4\n        /* \"contracts/oatlocker.sol\":9893:9899  lockID */\n      dup3\n        /* \"contracts/oatlocker.sol\":9893:9910  lockID == _lockID */\n      eq\n        /* \"contracts/oatlocker.sol\":9893:9942  lockID == _lockID && userLock.owner == msg.sender */\n      dup1\n      iszero\n      tag_209\n      jumpi\n      pop\n        /* \"contracts/oatlocker.sol\":9932:9942  msg.sender */\n      caller\n        /* \"contracts/oatlocker.sol\":9914:9942  userLock.owner == msg.sender */\n      0xffffffffffffffffffffffffffffffffffffffff\n      and\n        /* \"contracts/oatlocker.sol\":9914:9922  userLock */\n      dup2\n        /* \"contracts/oatlocker.sol\":9914:9928  userLock.owner */\n      0x05\n      add\n      0x00\n      swap1\n      sload\n      swap1\n      0x0100\n      exp\n      swap1\n      div\n      0xffffffffffffffffffffffffffffffffffffffff\n      and\n        /* \"contracts/oatlocker.sol\":9914:9942  userLock.owner == msg.sender */\n      0xffffffffffffffffffffffffffffffffffffffff\n      and\n      eq\n        /* \"contracts/oatlocker.sol\":9893:9942  lockID == _lockID && userLock.owner == msg.sender */\n    tag_209:\n        /* \"contracts/oatlocker.sol\":9885:9960  require(lockID == _lockID && userLock.owner == msg.sender, 'LOCK MISMATCH') */\n      tag_210\n      jumpi\n      mload(0x40)\n      0x08c379a000000000000000000000000000000000000000000000000000000000\n      dup2\n      mstore\n      0x04\n      add\n      dup1\n      dup1\n      0x20\n      add\n      dup3\n      dup2\n      sub\n      dup3\n      mstore\n      0x0d\n      dup2\n      mstore\n      0x20\n      add\n      dup1\n      0x4c4f434b204d49534d4154434800000000000000000000000000000000000000\n      dup2\n      mstore\n      pop\n      0x20\n      add\n      swap2\n      pop\n      pop\n      mload(0x40)\n      dup1\n      swap2\n      sub\n      swap1\n      revert\n    tag_210:\n        /* \"contracts/oatlocker.sol\":10033:10045  _unlock_date */\n      dup3\n        /* \"contracts/oatlocker.sol\":10011:10019  userLock */\n      dup2\n        /* \"contracts/oatlocker.sol\":10011:10030  userLock.unlockDate */\n      0x03\n      add\n      sload\n        /* \"contracts/oatlocker.sol\":10011:10045  userLock.unlockDate < _unlock_date */\n      lt\n        /* \"contracts/oatlocker.sol\":10003:10063  require(userLock.unlockDate < _unlock_date, 'UNLOCK BEFORE') */\n      tag_211\n      jumpi\n      mload(0x40)\n      0x08c379a000000000000000000000000000000000000000000000000000000000\n      dup2\n      mstore\n      0x04\n      add\n      dup1\n      dup1\n      0x20\n      add\n      dup3\n      dup2\n      sub\n      dup3\n      mstore\n      0x0d\n      dup2\n      mstore\n      0x20\n      add\n      dup1\n      0x554e4c4f434b204245464f524500000000000000000000000000000000000000\n      dup2\n      mstore\n      pop\n      0x20\n      add\n      swap2\n      pop\n      pop\n      mload(0x40)\n      dup1\n      swap2\n      sub\n      swap1\n      revert\n    tag_211:\n        /* \"contracts/oatlocker.sol\":10076:10096  uint256 liquidityFee */\n      0x00\n        /* \"contracts/oatlocker.sol\":10099:10148  userLock.amount.mul(gFees.liquidityFee).div(1000) */\n      tag_212\n        /* \"contracts/oatlocker.sol\":10143:10147  1000 */\n      0x03e8\n        /* \"contracts/oatlocker.sol\":10099:10138  userLock.amount.mul(gFees.liquidityFee) */\n      tag_213\n        /* \"contracts/oatlocker.sol\":10119:10124  gFees */\n      0x07\n        /* \"contracts/oatlocker.sol\":10119:10137  gFees.liquidityFee */\n      0x04\n      add\n      sload\n        /* \"contracts/oatlocker.sol\":10099:10107  userLock */\n      dup6\n        /* \"contracts/oatlocker.sol\":10099:10114  userLock.amount */\n      0x01\n      add\n      sload\n        /* \"contracts/oatlocker.sol\":10099:10118  userLock.amount.mul */\n      tag_214\n      swap1\n        /* \"contracts/oatlocker.sol\":10099:10138  userLock.amount.mul(gFees.liquidityFee) */\n      swap2\n      swap1\n      0xffffffff\n      and\n      jump\t// in\n    tag_213:\n        /* \"contracts/oatlocker.sol\":10099:10142  userLock.amount.mul(gFees.liquidityFee).div */\n      tag_215\n      swap1\n        /* \"contracts/oatlocker.sol\":10099:10148  userLock.amount.mul(gFees.liquidityFee).div(1000) */\n      swap2\n      swap1\n      0xffffffff\n      and\n      jump\t// in\n    tag_212:\n        /* \"contracts/oatlocker.sol\":10076:10148  uint256 liquidityFee = userLock.amount.mul(gFees.liquidityFee).div(1000) */\n      swap1\n      pop\n        /* \"contracts/oatlocker.sol\":10155:10175  uint256 amountLocked */\n      0x00\n        /* \"contracts/oatlocker.sol\":10178:10211  userLock.amount.sub(liquidityFee) */\n      tag_216\n        /* \"contracts/oatlocker.sol\":10198:10210  liquidityFee */\n      dup3\n        /* \"contracts/oatlocker.sol\":10178:10186  userLock */\n      dup5\n        /* \"contracts/oatlocker.sol\":10178:10193  userLock.amount */\n      0x01\n      add\n      sload\n        /* \"contracts/oatlocker.sol\":10178:10197  userLock.amount.sub */\n      tag_167\n      swap1\n        /* \"contracts/oatlocker.sol\":10178:10211  userLock.amount.sub(liquidityFee) */\n      swap2\n      swap1\n      0xffffffff\n      and\n      jump\t// in\n    tag_216:\n        /* \"contracts/oatlocker.sol\":10155:10211  uint256 amountLocked = userLock.amount.sub(liquidityFee) */\n      swap1\n      pop\n        /* \"contracts/oatlocker.sol\":10242:10254  amountLocked */\n      dup1\n        /* \"contracts/oatlocker.sol\":10224:10232  userLock */\n      dup4\n        /* \"contracts/oatlocker.sol\":10224:10239  userLock.amount */\n      0x01\n      add\n        /* \"contracts/oatlocker.sol\":10224:10254  userLock.amount = amountLocked */\n      dup2\n      swap1\n      sstore\n      pop\n        /* \"contracts/oatlocker.sol\":10283:10295  _unlock_date */\n      dup5\n        /* \"contracts/oatlocker.sol\":10261:10269  userLock */\n      dup4\n        /* \"contracts/oatlocker.sol\":10261:10280  userLock.unlockDate */\n      0x03\n      add\n        /* \"contracts/oatlocker.sol\":10261:10295  userLock.unlockDate = _unlock_date */\n      dup2\n      swap1\n      sstore\n      pop\n        /* \"contracts/oatlocker.sol\":10342:10402  TransferHelper.safeTransfer(_lpToken, devaddr, liquidityFee) */\n      tag_217\n        /* \"contracts/oatlocker.sol\":10370:10378  _lpToken */\n      dup9\n        /* \"contracts/oatlocker.sol\":10380:10387  devaddr */\n      0x12\n      0x00\n      swap1\n      sload\n      swap1\n      0x0100\n      exp\n      swap1\n      div\n      0xffffffffffffffffffffffffffffffffffffffff\n      and\n        /* \"contracts/oatlocker.sol\":10389:10401  liquidityFee */\n      dup5\n        /* \"contracts/oatlocker.sol\":10342:10369  TransferHelper.safeTransfer */\n      tag_179\n        /* \"contracts/oatlocker.sol\":10342:10402  TransferHelper.safeTransfer(_lpToken, devaddr, liquidityFee) */\n      jump\t// in\n    tag_217:\n        /* \"contracts/ReentrancyGuard.sol\":2637:2638  _ */\n      pop\n      pop\n      pop\n      pop\n        /* \"contracts/ReentrancyGuard.sol\":1823:1824  1 */\n      0x01\n        /* \"contracts/ReentrancyGuard.sol\":2785:2792  _status */\n      dup1\n        /* \"contracts/ReentrancyGuard.sol\":2785:2807  _status = _NOT_ENTERED */\n      dup2\n      swap1\n      sstore\n      pop\n        /* \"contracts/oatlocker.sol\":9508:10408  function relock (address _lpToken, uint256 _index, uint256 _lockID, uint256 _unlock_date) external nonReentrant {\r... */\n      pop\n      pop\n      pop\n      pop\n      jump\t// out\n        /* \"contracts/Ownable.sol\":1893:2041  function renounceOwnership() public virtual onlyOwner {\r... */\n    tag_66:\n        /* \"contracts/Ownable.sol\":1473:1485  _msgSender() */\n      tag_219\n        /* \"contracts/Ownable.sol\":1473:1483  _msgSender */\n      tag_152\n        /* \"contracts/Ownable.sol\":1473:1485  _msgSender() */\n      jump\t// in\n    tag_219:\n        /* \"contracts/Ownable.sol\":1463:1485  _owner == _msgSender() */\n      0xffffffffffffffffffffffffffffffffffffffff\n      and\n        /* \"contracts/Ownable.sol\":1463:1469  _owner */\n      0x00\n      dup1\n      sload\n      swap1\n      0x0100\n      exp\n      swap1\n      div\n      0xffffffffffffffffffffffffffffffffffffffff\n      and\n        /* \"contracts/Ownable.sol\":1463:1485  _owner == _msgSender() */\n      0xffffffffffffffffffffffffffffffffffffffff\n      and\n      eq\n        /* \"contracts/Ownable.sol\":1455:1522  require(_owner == _msgSender(), \"Ownable: caller is not the owner\") */\n      tag_220\n      jumpi\n      mload(0x40)\n      0x08c379a000000000000000000000000000000000000000000000000000000000\n      dup2\n      mstore\n      0x04\n      add\n      dup1\n      dup1\n      0x20\n      add\n      dup3\n      dup2\n      sub\n      dup3\n      mstore\n      0x20\n      dup2\n      mstore\n      0x20\n      add\n      dup1\n      0x4f776e61626c653a2063616c6c6572206973206e6f7420746865206f776e6572\n      dup2\n      mstore\n      pop\n      0x20\n      add\n      swap2\n      pop\n      pop\n      mload(0x40)\n      dup1\n      swap2\n      sub\n      swap1\n      revert\n    tag_220:\n        /* \"contracts/Ownable.sol\":2000:2001  0 */\n      0x00\n        /* \"contracts/Ownable.sol\":1963:2003  OwnershipTransferred(_owner, address(0)) */\n      0xffffffffffffffffffffffffffffffffffffffff\n      and\n        /* \"contracts/Ownable.sol\":1984:1990  _owner */\n      0x00\n      dup1\n      sload\n      swap1\n      0x0100\n      exp\n      swap1\n      div\n      0xffffffffffffffffffffffffffffffffffffffff\n      and\n        /* \"contracts/Ownable.sol\":1963:2003  OwnershipTransferred(_owner, address(0)) */\n      0xffffffffffffffffffffffffffffffffffffffff\n      and\n      0x8be0079c531659141344cd1fd0a4f28419497f9722a3daafe3b4186f6b6457e0\n      mload(0x40)\n      mload(0x40)\n      dup1\n      swap2\n      sub\n      swap1\n      log3\n        /* \"contracts/Ownable.sol\":2031:2032  0 */\n      0x00\n        /* \"contracts/Ownable.sol\":2014:2020  _owner */\n      dup1\n      0x00\n        /* \"contracts/Ownable.sol\":2014:2033  _owner = address(0) */\n      0x0100\n      exp\n      dup2\n      sload\n      dup2\n      0xffffffffffffffffffffffffffffffffffffffff\n      mul\n      not\n      and\n      swap1\n      dup4\n      0xffffffffffffffffffffffffffffffffffffffff\n      and\n      mul\n      or\n      swap1\n      sstore\n      pop\n        /* \"contracts/Ownable.sol\":1893:2041  function renounceOwnership() public virtual onlyOwner {\r... */\n      jump\t// out\n        /* \"contracts/oatlocker.sol\":16444:16548  function getNumLockedTokens () external view returns (uint256) {\r... */\n    tag_69:\n        /* \"contracts/oatlocker.sol\":16498:16505  uint256 */\n      0x00\n        /* \"contracts/oatlocker.sol\":16521:16542  lockedTokens.length() */\n      tag_223\n        /* \"contracts/oatlocker.sol\":16521:16533  lockedTokens */\n      0x04\n        /* \"contracts/oatlocker.sol\":16521:16540  lockedTokens.length */\n      tag_182\n        /* \"contracts/oatlocker.sol\":16521:16542  lockedTokens.length() */\n      jump\t// in\n    tag_223:\n        /* \"contracts/oatlocker.sol\":16514:16542  return lockedTokens.length() */\n      swap1\n      pop\n        /* \"contracts/oatlocker.sol\":16444:16548  function getNumLockedTokens () external view returns (uint256) {\r... */\n      swap1\n      jump\t// out\n        /* \"contracts/oatlocker.sol\":4293:4765  function setFees(uint256 _referralPercent, uint256 _referralDiscount, uint256 _ethFee, uint256 _secondaryTokenFee, uint256 _secondaryTokenDiscount, uint256 _liquidityFee) public onlyOwner {\r... */\n    tag_73:\n        /* \"contracts/Ownable.sol\":1473:1485  _msgSender() */\n      tag_225\n        /* \"contracts/Ownable.sol\":1473:1483  _msgSender */\n      tag_152\n        /* \"contracts/Ownable.sol\":1473:1485  _msgSender() */\n      jump\t// in\n    tag_225:\n        /* \"contracts/Ownable.sol\":1463:1485  _owner == _msgSender() */\n      0xffffffffffffffffffffffffffffffffffffffff\n      and\n        /* \"contracts/Ownable.sol\":1463:1469  _owner */\n      0x00\n      dup1\n      sload\n      swap1\n      0x0100\n      exp\n      swap1\n      div\n      0xffffffffffffffffffffffffffffffffffffffff\n      and\n        /* \"contracts/Ownable.sol\":1463:1485  _owner == _msgSender() */\n      0xffffffffffffffffffffffffffffffffffffffff\n      and\n      eq\n        /* \"contracts/Ownable.sol\":1455:1522  require(_owner == _msgSender(), \"Ownable: caller is not the owner\") */\n      tag_226\n      jumpi\n      mload(0x40)\n      0x08c379a000000000000000000000000000000000000000000000000000000000\n      dup2\n      mstore\n      0x04\n      add\n      dup1\n      dup1\n      0x20\n      add\n      dup3\n      dup2\n      sub\n      dup3\n      mstore\n      0x20\n      dup2\n      mstore\n      0x20\n      add\n      dup1\n      0x4f776e61626c653a2063616c6c6572206973206e6f7420746865206f776e6572\n      dup2\n      mstore\n      pop\n      0x20\n      add\n      swap2\n      pop\n      pop\n      mload(0x40)\n      dup1\n      swap2\n      sub\n      swap1\n      revert\n    tag_226:\n        /* \"contracts/oatlocker.sol\":4512:4528  _referralPercent */\n      dup6\n        /* \"contracts/oatlocker.sol\":4488:4493  gFees */\n      0x07\n        /* \"contracts/oatlocker.sol\":4488:4509  gFees.referralPercent */\n      0x05\n      add\n        /* \"contracts/oatlocker.sol\":4488:4528  gFees.referralPercent = _referralPercent */\n      dup2\n      swap1\n      sstore\n      pop\n        /* \"contracts/oatlocker.sol\":4560:4577  _referralDiscount */\n      dup5\n        /* \"contracts/oatlocker.sol\":4535:4540  gFees */\n      0x07\n        /* \"contracts/oatlocker.sol\":4535:4557  gFees.referralDiscount */\n      0x08\n      add\n        /* \"contracts/oatlocker.sol\":4535:4577  gFees.referralDiscount = _referralDiscount */\n      dup2\n      swap1\n      sstore\n      pop\n        /* \"contracts/oatlocker.sol\":4599:4606  _ethFee */\n      dup4\n        /* \"contracts/oatlocker.sol\":4584:4589  gFees */\n      0x07\n        /* \"contracts/oatlocker.sol\":4584:4596  gFees.ethFee */\n      0x00\n      add\n        /* \"contracts/oatlocker.sol\":4584:4606  gFees.ethFee = _ethFee */\n      dup2\n      swap1\n      sstore\n      pop\n        /* \"contracts/oatlocker.sol\":4639:4657  _secondaryTokenFee */\n      dup3\n        /* \"contracts/oatlocker.sol\":4613:4618  gFees */\n      0x07\n        /* \"contracts/oatlocker.sol\":4613:4636  gFees.secondaryTokenFee */\n      0x02\n      add\n        /* \"contracts/oatlocker.sol\":4613:4657  gFees.secondaryTokenFee = _secondaryTokenFee */\n      dup2\n      swap1\n      sstore\n      pop\n        /* \"contracts/oatlocker.sol\":4695:4718  _secondaryTokenDiscount */\n      dup2\n        /* \"contracts/oatlocker.sol\":4664:4669  gFees */\n      0x07\n        /* \"contracts/oatlocker.sol\":4664:4692  gFees.secondaryTokenDiscount */\n      0x03\n      add\n        /* \"contracts/oatlocker.sol\":4664:4718  gFees.secondaryTokenDiscount = _secondaryTokenDiscount */\n      dup2\n      swap1\n      sstore\n      pop\n        /* \"contracts/oatlocker.sol\":4746:4759  _liquidityFee */\n      dup1\n        /* \"contracts/oatlocker.sol\":4725:4730  gFees */\n      0x07\n        /* \"contracts/oatlocker.sol\":4725:4743  gFees.liquidityFee */\n      0x04\n      add\n        /* \"contracts/oatlocker.sol\":4725:4759  gFees.liquidityFee = _liquidityFee */\n      dup2\n      swap1\n      sstore\n      pop\n        /* \"contracts/oatlocker.sol\":4293:4765  function setFees(uint256 _referralPercent, uint256 _referralDiscount, uint256 _ethFee, uint256 _secondaryTokenFee, uint256 _secondaryTokenDiscount, uint256 _liquidityFee) public onlyOwner {\r... */\n      pop\n      pop\n      pop\n      pop\n      pop\n      pop\n      jump\t// out\n        /* \"contracts/oatlocker.sol\":3843:3985  function setSecondaryFeeToken(address _secondaryFeeToken) public onlyOwner {\r... */\n    tag_77:\n        /* \"contracts/Ownable.sol\":1473:1485  _msgSender() */\n      tag_229\n        /* \"contracts/Ownable.sol\":1473:1483  _msgSender */\n      tag_152\n        /* \"contracts/Ownable.sol\":1473:1485  _msgSender() */\n      jump\t// in\n    tag_229:\n        /* \"contracts/Ownable.sol\":1463:1485  _owner == _msgSender() */\n      0xffffffffffffffffffffffffffffffffffffffff\n      and\n        /* \"contracts/Ownable.sol\":1463:1469  _owner */\n      0x00\n      dup1\n      sload\n      swap1\n      0x0100\n      exp\n      swap1\n      div\n      0xffffffffffffffffffffffffffffffffffffffff\n      and\n        /* \"contracts/Ownable.sol\":1463:1485  _owner == _msgSender() */\n      0xffffffffffffffffffffffffffffffffffffffff\n      and\n      eq\n        /* \"contracts/Ownable.sol\":1455:1522  require(_owner == _msgSender(), \"Ownable: caller is not the owner\") */\n      tag_230\n      jumpi\n      mload(0x40)\n      0x08c379a000000000000000000000000000000000000000000000000000000000\n      dup2\n      mstore\n      0x04\n      add\n      dup1\n      dup1\n      0x20\n      add\n      dup3\n      dup2\n      sub\n      dup3\n      mstore\n      0x20\n      dup2\n      mstore\n      0x20\n      add\n      dup1\n      0x4f776e61626c653a2063616c6c6572206973206e6f7420746865206f776e6572\n      dup2\n      mstore\n      pop\n      0x20\n      add\n      swap2\n      pop\n      pop\n      mload(0x40)\n      dup1\n      swap2\n      sub\n      swap1\n      revert\n    tag_230:\n        /* \"contracts/oatlocker.sol\":3960:3978  _secondaryFeeToken */\n      dup1\n        /* \"contracts/oatlocker.sol\":3925:3930  gFees */\n      0x07\n        /* \"contracts/oatlocker.sol\":3925:3948  gFees.secondaryFeeToken */\n      0x01\n      add\n      0x00\n        /* \"contracts/oatlocker.sol\":3925:3979  gFees.secondaryFeeToken = IERCBurn(_secondaryFeeToken) */\n      0x0100\n      exp\n      dup2\n      sload\n      dup2\n      0xffffffffffffffffffffffffffffffffffffffff\n      mul\n      not\n      and\n      swap1\n      dup4\n      0xffffffffffffffffffffffffffffffffffffffff\n      and\n      mul\n      or\n      swap1\n      sstore\n      pop\n        /* \"contracts/oatlocker.sol\":3843:3985  function setSecondaryFeeToken(address _secondaryFeeToken) public onlyOwner {\r... */\n      pop\n      jump\t// out\n        /* \"contracts/oatlocker.sol\":5534:9277  function lockLPToken (address _lpToken, uint256 _amount, uint256 _unlock_date, address payable _referral, bool _fee_in_eth, address payable _withdrawer) external payable nonReentrant {\r... */\n    tag_80:\n        /* \"contracts/ReentrancyGuard.sol\":1867:1868  2 */\n      0x02\n        /* \"contracts/ReentrancyGuard.sol\":2473:2480  _status */\n      sload(0x01)\n        /* \"contracts/ReentrancyGuard.sol\":2473:2492  _status != _ENTERED */\n      eq\n      iszero\n        /* \"contracts/ReentrancyGuard.sol\":2465:2528  require(_status != _ENTERED, \"ReentrancyGuard: reentrant call\") */\n      tag_233\n      jumpi\n      mload(0x40)\n      0x08c379a000000000000000000000000000000000000000000000000000000000\n      dup2\n      mstore\n      0x04\n      add\n      dup1\n      dup1\n      0x20\n      add\n      dup3\n      dup2\n      sub\n      dup3\n      mstore\n      0x1f\n      dup2\n      mstore\n      0x20\n      add\n      dup1\n      0x5265656e7472616e637947756172643a207265656e7472616e742063616c6c00\n      dup2\n      mstore\n      pop\n      0x20\n      add\n      swap2\n      pop\n      pop\n      mload(0x40)\n      dup1\n      swap2\n      sub\n      swap1\n      revert\n    tag_233:\n        /* \"contracts/ReentrancyGuard.sol\":1867:1868  2 */\n      0x02\n        /* \"contracts/ReentrancyGuard.sol\":2606:2613  _status */\n      0x01\n        /* \"contracts/ReentrancyGuard.sol\":2606:2624  _status = _ENTERED */\n      dup2\n      swap1\n      sstore\n      pop\n        /* \"contracts/oatlocker.sol\":5747:5758  10000000000 */\n      0x02540be400\n        /* \"contracts/oatlocker.sol\":5732:5744  _unlock_date */\n      dup5\n        /* \"contracts/oatlocker.sol\":5732:5758  _unlock_date < 10000000000 */\n      lt\n        /* \"contracts/oatlocker.sol\":5724:5780  require(_unlock_date < 10000000000, 'TIMESTAMP INVALID') */\n      tag_235\n      jumpi\n      mload(0x40)\n      0x08c379a000000000000000000000000000000000000000000000000000000000\n      dup2\n      mstore\n      0x04\n      add\n      dup1\n      dup1\n      0x20\n      add\n      dup3\n      dup2\n      sub\n      dup3\n      mstore\n      0x11\n      dup2\n      mstore\n      0x20\n      add\n      dup1\n      0x54494d455354414d5020494e56414c4944000000000000000000000000000000\n      dup2\n      mstore\n      pop\n      0x20\n      add\n      swap2\n      pop\n      pop\n      mload(0x40)\n      dup1\n      swap2\n      sub\n      swap1\n      revert\n    tag_235:\n        /* \"contracts/oatlocker.sol\":5863:5864  0 */\n      0x00\n        /* \"contracts/oatlocker.sol\":5853:5860  _amount */\n      dup6\n        /* \"contracts/oatlocker.sol\":5853:5864  _amount > 0 */\n      gt\n        /* \"contracts/oatlocker.sol\":5845:5881  require(_amount > 0, 'INSUFFICIENT') */\n      tag_236\n      jumpi\n      mload(0x40)\n      0x08c379a000000000000000000000000000000000000000000000000000000000\n      dup2\n      mstore\n      0x04\n      add\n      dup1\n      dup1\n      0x20\n      add\n      dup3\n      dup2\n      sub\n      dup3\n      mstore\n      0x0c\n      dup2\n      mstore\n      0x20\n      add\n      dup1\n      0x494e53554646494349454e540000000000000000000000000000000000000000\n      dup2\n      mstore\n      pop\n      0x20\n      add\n      swap2\n      pop\n      pop\n      mload(0x40)\n      dup1\n      swap2\n      sub\n      swap1\n      revert\n    tag_236:\n        /* \"contracts/oatlocker.sol\":5955:5975  IUniswapV2Pair lpair */\n      0x00\n        /* \"contracts/oatlocker.sol\":6001:6009  _lpToken */\n      dup7\n        /* \"contracts/oatlocker.sol\":5955:6011  IUniswapV2Pair lpair = IUniswapV2Pair(address(_lpToken)) */\n      swap1\n      pop\n        /* \"contracts/oatlocker.sol\":6018:6044  address factoryPairAddress */\n      0x00\n        /* \"contracts/oatlocker.sol\":6047:6061  uniswapFactory */\n      0x02\n      0x00\n      swap1\n      sload\n      swap1\n      0x0100\n      exp\n      swap1\n      div\n      0xffffffffffffffffffffffffffffffffffffffff\n      and\n        /* \"contracts/oatlocker.sol\":6047:6069  uniswapFactory.getPair */\n      0xffffffffffffffffffffffffffffffffffffffff\n      and\n      0xe6a43905\n        /* \"contracts/oatlocker.sol\":6070:6075  lpair */\n      dup4\n        /* \"contracts/oatlocker.sol\":6070:6082  lpair.token0 */\n      0xffffffffffffffffffffffffffffffffffffffff\n      and\n      0x0dfe1681\n        /* \"contracts/oatlocker.sol\":6070:6084  lpair.token0() */\n      mload(0x40)\n      dup2\n      0xffffffff\n      and\n      0xe0\n      shl\n      dup2\n      mstore\n      0x04\n      add\n      0x20\n      mload(0x40)\n      dup1\n      dup4\n      sub\n      dup2\n      dup7\n      dup1\n      extcodesize\n      iszero\n      dup1\n      iszero\n      tag_237\n      jumpi\n      0x00\n      dup1\n      revert\n    tag_237:\n      pop\n      gas\n      staticcall\n      iszero\n      dup1\n      iszero\n      tag_239\n      jumpi\n      returndatasize\n      0x00\n      dup1\n      returndatacopy\n      revert(0x00, returndatasize)\n    tag_239:\n      pop\n      pop\n      pop\n      pop\n      mload(0x40)\n      returndatasize\n      0x20\n      dup2\n      lt\n      iszero\n      tag_240\n      jumpi\n      0x00\n      dup1\n      revert\n    tag_240:\n      dup2\n      add\n      swap1\n      dup1\n      dup1\n      mload\n      swap1\n      0x20\n      add\n      swap1\n      swap3\n      swap2\n      swap1\n      pop\n      pop\n      pop\n        /* \"contracts/oatlocker.sol\":6086:6091  lpair */\n      dup5\n        /* \"contracts/oatlocker.sol\":6086:6098  lpair.token1 */\n      0xffffffffffffffffffffffffffffffffffffffff\n      and\n      0xd21220a7\n        /* \"contracts/oatlocker.sol\":6086:6100  lpair.token1() */\n      mload(0x40)\n      dup2\n      0xffffffff\n      and\n      0xe0\n      shl\n      dup2\n      mstore\n      0x04\n      add\n      0x20\n      mload(0x40)\n      dup1\n      dup4\n      sub\n      dup2\n      dup7\n      dup1\n      extcodesize\n      iszero\n      dup1\n      iszero\n      tag_241\n      jumpi\n      0x00\n      dup1\n      revert\n    tag_241:\n      pop\n      gas\n      staticcall\n      iszero\n      dup1\n      iszero\n      tag_243\n      jumpi\n      returndatasize\n      0x00\n      dup1\n      returndatacopy\n      revert(0x00, returndatasize)\n    tag_243:\n      pop\n      pop\n      pop\n      pop\n      mload(0x40)\n      returndatasize\n      0x20\n      dup2\n      lt\n      iszero\n      tag_244\n      jumpi\n      0x00\n      dup1\n      revert\n    tag_244:\n      dup2\n      add\n      swap1\n      dup1\n      dup1\n      mload\n      swap1\n      0x20\n      add\n      swap1\n      swap3\n      swap2\n      swap1\n      pop\n      pop\n      pop\n        /* \"contracts/oatlocker.sol\":6047:6101  uniswapFactory.getPair(lpair.token0(), lpair.token1()) */\n      mload(0x40)\n      dup4\n      0xffffffff\n      and\n      0xe0\n      shl\n      dup2\n      mstore\n      0x04\n      add\n      dup1\n      dup4\n      0xffffffffffffffffffffffffffffffffffffffff\n      and\n      dup2\n      mstore\n      0x20\n      add\n      dup3\n      0xffffffffffffffffffffffffffffffffffffffff\n      and\n      dup2\n      mstore\n      0x20\n      add\n      swap3\n      pop\n      pop\n      pop\n      0x20\n      mload(0x40)\n      dup1\n      dup4\n      sub\n      dup2\n      dup7\n      dup1\n      extcodesize\n      iszero\n      dup1\n      iszero\n      tag_245\n      jumpi\n      0x00\n      dup1\n      revert\n    tag_245:\n      pop\n      gas\n      staticcall\n      iszero\n      dup1\n      iszero\n      tag_247\n      jumpi\n      returndatasize\n      0x00\n      dup1\n      returndatacopy\n      revert(0x00, returndatasize)\n    tag_247:\n      pop\n      pop\n      pop\n      pop\n      mload(0x40)\n      returndatasize\n      0x20\n      dup2\n      lt\n      iszero\n      tag_248\n      jumpi\n      0x00\n      dup1\n      revert\n    tag_248:\n      dup2\n      add\n      swap1\n      dup1\n      dup1\n      mload\n      swap1\n      0x20\n      add\n      swap1\n      swap3\n      swap2\n      swap1\n      pop\n      pop\n      pop\n        /* \"contracts/oatlocker.sol\":6018:6101  address factoryPairAddress = uniswapFactory.getPair(lpair.token0(), lpair.token1()) */\n      swap1\n      pop\n        /* \"contracts/oatlocker.sol\":6146:6154  _lpToken */\n      dup8\n        /* \"contracts/oatlocker.sol\":6116:6155  factoryPairAddress == address(_lpToken) */\n      0xffffffffffffffffffffffffffffffffffffffff\n      and\n        /* \"contracts/oatlocker.sol\":6116:6134  factoryPairAddress */\n      dup2\n        /* \"contracts/oatlocker.sol\":6116:6155  factoryPairAddress == address(_lpToken) */\n      0xffffffffffffffffffffffffffffffffffffffff\n      and\n      eq\n        /* \"contracts/oatlocker.sol\":6108:6169  require(factoryPairAddress == address(_lpToken), 'NOT UNIV2') */\n      tag_249\n      jumpi\n      mload(0x40)\n      0x08c379a000000000000000000000000000000000000000000000000000000000\n      dup2\n      mstore\n      0x04\n      add\n      dup1\n      dup1\n      0x20\n      add\n      dup3\n      dup2\n      sub\n      dup3\n      mstore\n      0x09\n      dup2\n      mstore\n      0x20\n      add\n      dup1\n      0x4e4f5420554e4956320000000000000000000000000000000000000000000000\n      dup2\n      mstore\n      pop\n      0x20\n      add\n      swap2\n      pop\n      pop\n      mload(0x40)\n      dup1\n      swap2\n      sub\n      swap1\n      revert\n    tag_249:\n        /* \"contracts/oatlocker.sol\":6178:6264  TransferHelper.safeTransferFrom(_lpToken, address(msg.sender), address(this), _amount) */\n      tag_250\n        /* \"contracts/oatlocker.sol\":6210:6218  _lpToken */\n      dup9\n        /* \"contracts/oatlocker.sol\":6228:6238  msg.sender */\n      caller\n        /* \"contracts/oatlocker.sol\":6249:6253  this */\n      address\n        /* \"contracts/oatlocker.sol\":6256:6263  _amount */\n      dup11\n        /* \"contracts/oatlocker.sol\":6178:6209  TransferHelper.safeTransferFrom */\n      tag_251\n        /* \"contracts/oatlocker.sol\":6178:6264  TransferHelper.safeTransferFrom(_lpToken, address(msg.sender), address(this), _amount) */\n      jump\t// in\n    tag_250:\n        /* \"contracts/oatlocker.sol\":6302:6303  0 */\n      0x00\n        /* \"contracts/oatlocker.sol\":6281:6304  _referral != address(0) */\n      0xffffffffffffffffffffffffffffffffffffffff\n      and\n        /* \"contracts/oatlocker.sol\":6281:6290  _referral */\n      dup6\n        /* \"contracts/oatlocker.sol\":6281:6304  _referral != address(0) */\n      0xffffffffffffffffffffffffffffffffffffffff\n      and\n      eq\n      iszero\n        /* \"contracts/oatlocker.sol\":6281:6350  _referral != address(0) && address(gFees.referralToken) != address(0) */\n      dup1\n      iszero\n      tag_252\n      jumpi\n      pop\n        /* \"contracts/oatlocker.sol\":6348:6349  0 */\n      0x00\n        /* \"contracts/oatlocker.sol\":6308:6350  address(gFees.referralToken) != address(0) */\n      0xffffffffffffffffffffffffffffffffffffffff\n      and\n        /* \"contracts/oatlocker.sol\":6316:6321  gFees */\n      0x07\n        /* \"contracts/oatlocker.sol\":6316:6335  gFees.referralToken */\n      0x06\n      add\n      0x00\n      swap1\n      sload\n      swap1\n      0x0100\n      exp\n      swap1\n      div\n      0xffffffffffffffffffffffffffffffffffffffff\n      and\n        /* \"contracts/oatlocker.sol\":6308:6350  address(gFees.referralToken) != address(0) */\n      0xffffffffffffffffffffffffffffffffffffffff\n      and\n      eq\n      iszero\n        /* \"contracts/oatlocker.sol\":6281:6350  _referral != address(0) && address(gFees.referralToken) != address(0) */\n    tag_252:\n        /* \"contracts/oatlocker.sol\":6277:6462  if (_referral != address(0) && address(gFees.referralToken) != address(0)) {\r... */\n      iszero\n      tag_253\n      jumpi\n        /* \"contracts/oatlocker.sol\":6413:6418  gFees */\n      0x07\n        /* \"contracts/oatlocker.sol\":6413:6431  gFees.referralHold */\n      dup1\n      add\n      sload\n        /* \"contracts/oatlocker.sol\":6369:6374  gFees */\n      0x07\n        /* \"contracts/oatlocker.sol\":6369:6388  gFees.referralToken */\n      0x06\n      add\n      0x00\n      swap1\n      sload\n      swap1\n      0x0100\n      exp\n      swap1\n      div\n      0xffffffffffffffffffffffffffffffffffffffff\n      and\n        /* \"contracts/oatlocker.sol\":6369:6398  gFees.referralToken.balanceOf */\n      0xffffffffffffffffffffffffffffffffffffffff\n      and\n      0x70a08231\n        /* \"contracts/oatlocker.sol\":6399:6408  _referral */\n      dup8\n        /* \"contracts/oatlocker.sol\":6369:6409  gFees.referralToken.balanceOf(_referral) */\n      mload(0x40)\n      dup3\n      0xffffffff\n      and\n      0xe0\n      shl\n      dup2\n      mstore\n      0x04\n      add\n      dup1\n      dup3\n      0xffffffffffffffffffffffffffffffffffffffff\n      and\n      dup2\n      mstore\n      0x20\n      add\n      swap2\n      pop\n      pop\n      0x20\n      mload(0x40)\n      dup1\n      dup4\n      sub\n      dup2\n      dup7\n      dup1\n      extcodesize\n      iszero\n      dup1\n      iszero\n      tag_254\n      jumpi\n      0x00\n      dup1\n      revert\n    tag_254:\n      pop\n      gas\n      staticcall\n      iszero\n      dup1\n      iszero\n      tag_256\n      jumpi\n      returndatasize\n      0x00\n      dup1\n      returndatacopy\n      revert(0x00, returndatasize)\n    tag_256:\n      pop\n      pop\n      pop\n      pop\n      mload(0x40)\n      returndatasize\n      0x20\n      dup2\n      lt\n      iszero\n      tag_257\n      jumpi\n      0x00\n      dup1\n      revert\n    tag_257:\n      dup2\n      add\n      swap1\n      dup1\n      dup1\n      mload\n      swap1\n      0x20\n      add\n      swap1\n      swap3\n      swap2\n      swap1\n      pop\n      pop\n      pop\n        /* \"contracts/oatlocker.sol\":6369:6431  gFees.referralToken.balanceOf(_referral) >= gFees.referralHold */\n      lt\n      iszero\n        /* \"contracts/oatlocker.sol\":6361:6454  require(gFees.referralToken.balanceOf(_referral) >= gFees.referralHold, 'INADEQUATE BALANCE') */\n      tag_258\n      jumpi\n      mload(0x40)\n      0x08c379a000000000000000000000000000000000000000000000000000000000\n      dup2\n      mstore\n      0x04\n      add\n      dup1\n      dup1\n      0x20\n      add\n      dup3\n      dup2\n      sub\n      dup3\n      mstore\n      0x12\n      dup2\n      mstore\n      0x20\n      add\n      dup1\n      0x494e41444551554154452042414c414e43450000000000000000000000000000\n      dup2\n      mstore\n      pop\n      0x20\n      add\n      swap2\n      pop\n      pop\n      mload(0x40)\n      dup1\n      swap2\n      sub\n      swap1\n      revert\n    tag_258:\n        /* \"contracts/oatlocker.sol\":6277:6462  if (_referral != address(0) && address(gFees.referralToken) != address(0)) {\r... */\n    tag_253:\n        /* \"contracts/oatlocker.sol\":6501:6534  feeWhitelist.contains(msg.sender) */\n      tag_259\n        /* \"contracts/oatlocker.sol\":6523:6533  msg.sender */\n      caller\n        /* \"contracts/oatlocker.sol\":6501:6513  feeWhitelist */\n      0x10\n        /* \"contracts/oatlocker.sol\":6501:6522  feeWhitelist.contains */\n      tag_260\n      swap1\n        /* \"contracts/oatlocker.sol\":6501:6534  feeWhitelist.contains(msg.sender) */\n      swap2\n      swap1\n      0xffffffff\n      and\n      jump\t// in\n    tag_259:\n        /* \"contracts/oatlocker.sol\":6496:8075  if (!feeWhitelist.contains(msg.sender)) {\r... */\n      tag_261\n      jumpi\n        /* \"contracts/oatlocker.sol\":6549:6560  _fee_in_eth */\n      dup4\n        /* \"contracts/oatlocker.sol\":6545:7933  if (_fee_in_eth) { // charge fee in eth\r... */\n      iszero\n      tag_262\n      jumpi\n        /* \"contracts/oatlocker.sol\":6594:6608  uint256 ethFee */\n      0x00\n        /* \"contracts/oatlocker.sol\":6611:6616  gFees */\n      0x07\n        /* \"contracts/oatlocker.sol\":6611:6623  gFees.ethFee */\n      0x00\n      add\n      sload\n        /* \"contracts/oatlocker.sol\":6594:6623  uint256 ethFee = gFees.ethFee */\n      swap1\n      pop\n        /* \"contracts/oatlocker.sol\":6659:6660  0 */\n      0x00\n        /* \"contracts/oatlocker.sol\":6638:6661  _referral != address(0) */\n      0xffffffffffffffffffffffffffffffffffffffff\n      and\n        /* \"contracts/oatlocker.sol\":6638:6647  _referral */\n      dup7\n        /* \"contracts/oatlocker.sol\":6638:6661  _referral != address(0) */\n      0xffffffffffffffffffffffffffffffffffffffff\n      and\n      eq\n        /* \"contracts/oatlocker.sol\":6634:6748  if (_referral != address(0)) {\r... */\n      tag_263\n      jumpi\n        /* \"contracts/oatlocker.sol\":6685:6736  ethFee.mul(1000 - gFees.referralDiscount).div(1000) */\n      tag_264\n        /* \"contracts/oatlocker.sol\":6731:6735  1000 */\n      0x03e8\n        /* \"contracts/oatlocker.sol\":6685:6726  ethFee.mul(1000 - gFees.referralDiscount) */\n      tag_265\n        /* \"contracts/oatlocker.sol\":6703:6708  gFees */\n      0x07\n        /* \"contracts/oatlocker.sol\":6703:6725  gFees.referralDiscount */\n      0x08\n      add\n      sload\n        /* \"contracts/oatlocker.sol\":6696:6700  1000 */\n      0x03e8\n        /* \"contracts/oatlocker.sol\":6696:6725  1000 - gFees.referralDiscount */\n      sub\n        /* \"contracts/oatlocker.sol\":6685:6691  ethFee */\n      dup5\n        /* \"contracts/oatlocker.sol\":6685:6695  ethFee.mul */\n      tag_214\n      swap1\n        /* \"contracts/oatlocker.sol\":6685:6726  ethFee.mul(1000 - gFees.referralDiscount) */\n      swap2\n      swap1\n      0xffffffff\n      and\n      jump\t// in\n    tag_265:\n        /* \"contracts/oatlocker.sol\":6685:6730  ethFee.mul(1000 - gFees.referralDiscount).div */\n      tag_215\n      swap1\n        /* \"contracts/oatlocker.sol\":6685:6736  ethFee.mul(1000 - gFees.referralDiscount).div(1000) */\n      swap2\n      swap1\n      0xffffffff\n      and\n      jump\t// in\n    tag_264:\n        /* \"contracts/oatlocker.sol\":6676:6736  ethFee = ethFee.mul(1000 - gFees.referralDiscount).div(1000) */\n      swap1\n      pop\n        /* \"contracts/oatlocker.sol\":6634:6748  if (_referral != address(0)) {\r... */\n    tag_263:\n        /* \"contracts/oatlocker.sol\":6779:6785  ethFee */\n      dup1\n        /* \"contracts/oatlocker.sol\":6766:6775  msg.value */\n      callvalue\n        /* \"contracts/oatlocker.sol\":6766:6785  msg.value == ethFee */\n      eq\n        /* \"contracts/oatlocker.sol\":6758:6801  require(msg.value == ethFee, 'FEE NOT MET') */\n      tag_266\n      jumpi\n      mload(0x40)\n      0x08c379a000000000000000000000000000000000000000000000000000000000\n      dup2\n      mstore\n      0x04\n      add\n      dup1\n      dup1\n      0x20\n      add\n      dup3\n      dup2\n      sub\n      dup3\n      mstore\n      0x0b\n      dup2\n      mstore\n      0x20\n      add\n      dup1\n      0x464545204e4f54204d4554000000000000000000000000000000000000000000\n      dup2\n      mstore\n      pop\n      0x20\n      add\n      swap2\n      pop\n      pop\n      mload(0x40)\n      dup1\n      swap2\n      sub\n      swap1\n      revert\n    tag_266:\n        /* \"contracts/oatlocker.sol\":6812:6826  uint256 devFee */\n      0x00\n        /* \"contracts/oatlocker.sol\":6829:6835  ethFee */\n      dup2\n        /* \"contracts/oatlocker.sol\":6812:6835  uint256 devFee = ethFee */\n      swap1\n      pop\n        /* \"contracts/oatlocker.sol\":6860:6861  0 */\n      0x00\n        /* \"contracts/oatlocker.sol\":6850:6856  ethFee */\n      dup3\n        /* \"contracts/oatlocker.sol\":6850:6861  ethFee != 0 */\n      eq\n      iszero\n        /* \"contracts/oatlocker.sol\":6850:6888  ethFee != 0 && _referral != address(0) */\n      dup1\n      iszero\n      tag_267\n      jumpi\n      pop\n        /* \"contracts/oatlocker.sol\":6886:6887  0 */\n      0x00\n        /* \"contracts/oatlocker.sol\":6865:6888  _referral != address(0) */\n      0xffffffffffffffffffffffffffffffffffffffff\n      and\n        /* \"contracts/oatlocker.sol\":6865:6874  _referral */\n      dup8\n        /* \"contracts/oatlocker.sol\":6865:6888  _referral != address(0) */\n      0xffffffffffffffffffffffffffffffffffffffff\n      and\n      eq\n      iszero\n        /* \"contracts/oatlocker.sol\":6850:6888  ethFee != 0 && _referral != address(0) */\n    tag_267:\n        /* \"contracts/oatlocker.sol\":6846:7085  if (ethFee != 0 && _referral != address(0)) { // referral fee\r... */\n      iszero\n      tag_268\n      jumpi\n        /* \"contracts/oatlocker.sol\":6919:6938  uint256 referralFee */\n      0x00\n        /* \"contracts/oatlocker.sol\":6941:6984  devFee.mul(gFees.referralPercent).div(1000) */\n      tag_269\n        /* \"contracts/oatlocker.sol\":6979:6983  1000 */\n      0x03e8\n        /* \"contracts/oatlocker.sol\":6941:6974  devFee.mul(gFees.referralPercent) */\n      tag_270\n        /* \"contracts/oatlocker.sol\":6952:6957  gFees */\n      0x07\n        /* \"contracts/oatlocker.sol\":6952:6973  gFees.referralPercent */\n      0x05\n      add\n      sload\n        /* \"contracts/oatlocker.sol\":6941:6947  devFee */\n      dup6\n        /* \"contracts/oatlocker.sol\":6941:6951  devFee.mul */\n      tag_214\n      swap1\n        /* \"contracts/oatlocker.sol\":6941:6974  devFee.mul(gFees.referralPercent) */\n      swap2\n      swap1\n      0xffffffff\n      and\n      jump\t// in\n    tag_270:\n        /* \"contracts/oatlocker.sol\":6941:6978  devFee.mul(gFees.referralPercent).div */\n      tag_215\n      swap1\n        /* \"contracts/oatlocker.sol\":6941:6984  devFee.mul(gFees.referralPercent).div(1000) */\n      swap2\n      swap1\n      0xffffffff\n      and\n      jump\t// in\n    tag_269:\n        /* \"contracts/oatlocker.sol\":6919:6984  uint256 referralFee = devFee.mul(gFees.referralPercent).div(1000) */\n      swap1\n      pop\n        /* \"contracts/oatlocker.sol\":6997:7006  _referral */\n      dup8\n        /* \"contracts/oatlocker.sol\":6997:7015  _referral.transfer */\n      0xffffffffffffffffffffffffffffffffffffffff\n      and\n        /* \"contracts/oatlocker.sol\":6997:7028  _referral.transfer(referralFee) */\n      0x08fc\n        /* \"contracts/oatlocker.sol\":7016:7027  referralFee */\n      dup3\n        /* \"contracts/oatlocker.sol\":6997:7028  _referral.transfer(referralFee) */\n      swap1\n      dup2\n      iszero\n      mul\n      swap1\n      mload(0x40)\n      0x00\n      mload(0x40)\n      dup1\n      dup4\n      sub\n      dup2\n      dup6\n      dup9\n      dup9\n      call\n      swap4\n      pop\n      pop\n      pop\n      pop\n      iszero\n      dup1\n      iszero\n      tag_272\n      jumpi\n      returndatasize\n      0x00\n      dup1\n      returndatacopy\n      revert(0x00, returndatasize)\n    tag_272:\n      pop\n        /* \"contracts/oatlocker.sol\":7050:7073  devFee.sub(referralFee) */\n      tag_273\n        /* \"contracts/oatlocker.sol\":7061:7072  referralFee */\n      dup2\n        /* \"contracts/oatlocker.sol\":7050:7056  devFee */\n      dup4\n        /* \"contracts/oatlocker.sol\":7050:7060  devFee.sub */\n      tag_167\n      swap1\n        /* \"contracts/oatlocker.sol\":7050:7073  devFee.sub(referralFee) */\n      swap2\n      swap1\n      0xffffffff\n      and\n      jump\t// in\n    tag_273:\n        /* \"contracts/oatlocker.sol\":7041:7073  devFee = devFee.sub(referralFee) */\n      swap2\n      pop\n        /* \"contracts/oatlocker.sol\":6846:7085  if (ethFee != 0 && _referral != address(0)) { // referral fee\r... */\n      pop\n    tag_268:\n        /* \"contracts/oatlocker.sol\":7095:7102  devaddr */\n      0x12\n      0x00\n      swap1\n      sload\n      swap1\n      0x0100\n      exp\n      swap1\n      div\n      0xffffffffffffffffffffffffffffffffffffffff\n      and\n        /* \"contracts/oatlocker.sol\":7095:7111  devaddr.transfer */\n      0xffffffffffffffffffffffffffffffffffffffff\n      and\n        /* \"contracts/oatlocker.sol\":7095:7119  devaddr.transfer(devFee) */\n      0x08fc\n        /* \"contracts/oatlocker.sol\":7112:7118  devFee */\n      dup3\n        /* \"contracts/oatlocker.sol\":7095:7119  devaddr.transfer(devFee) */\n      swap1\n      dup2\n      iszero\n      mul\n      swap1\n      mload(0x40)\n      0x00\n      mload(0x40)\n      dup1\n      dup4\n      sub\n      dup2\n      dup6\n      dup9\n      dup9\n      call\n      swap4\n      pop\n      pop\n      pop\n      pop\n      iszero\n      dup1\n      iszero\n      tag_275\n      jumpi\n      returndatasize\n      0x00\n      dup1\n      returndatacopy\n      revert(0x00, returndatasize)\n    tag_275:\n      pop\n        /* \"contracts/oatlocker.sol\":6545:7933  if (_fee_in_eth) { // charge fee in eth\r... */\n      pop\n      pop\n      jump(tag_276)\n    tag_262:\n        /* \"contracts/oatlocker.sol\":7169:7184  uint256 burnFee */\n      0x00\n        /* \"contracts/oatlocker.sol\":7187:7192  gFees */\n      0x07\n        /* \"contracts/oatlocker.sol\":7187:7210  gFees.secondaryTokenFee */\n      0x02\n      add\n      sload\n        /* \"contracts/oatlocker.sol\":7169:7210  uint256 burnFee = gFees.secondaryTokenFee */\n      swap1\n      pop\n        /* \"contracts/oatlocker.sol\":7246:7247  0 */\n      0x00\n        /* \"contracts/oatlocker.sol\":7225:7248  _referral != address(0) */\n      0xffffffffffffffffffffffffffffffffffffffff\n      and\n        /* \"contracts/oatlocker.sol\":7225:7234  _referral */\n      dup7\n        /* \"contracts/oatlocker.sol\":7225:7248  _referral != address(0) */\n      0xffffffffffffffffffffffffffffffffffffffff\n      and\n      eq\n        /* \"contracts/oatlocker.sol\":7221:7337  if (_referral != address(0)) {\r... */\n      tag_277\n      jumpi\n        /* \"contracts/oatlocker.sol\":7273:7325  burnFee.mul(1000 - gFees.referralDiscount).div(1000) */\n      tag_278\n        /* \"contracts/oatlocker.sol\":7320:7324  1000 */\n      0x03e8\n        /* \"contracts/oatlocker.sol\":7273:7315  burnFee.mul(1000 - gFees.referralDiscount) */\n      tag_279\n        /* \"contracts/oatlocker.sol\":7292:7297  gFees */\n      0x07\n        /* \"contracts/oatlocker.sol\":7292:7314  gFees.referralDiscount */\n      0x08\n      add\n      sload\n        /* \"contracts/oatlocker.sol\":7285:7289  1000 */\n      0x03e8\n        /* \"contracts/oatlocker.sol\":7285:7314  1000 - gFees.referralDiscount */\n      sub\n        /* \"contracts/oatlocker.sol\":7273:7280  burnFee */\n      dup5\n        /* \"contracts/oatlocker.sol\":7273:7284  burnFee.mul */\n      tag_214\n      swap1\n        /* \"contracts/oatlocker.sol\":7273:7315  burnFee.mul(1000 - gFees.referralDiscount) */\n      swap2\n      swap1\n      0xffffffff\n      and\n      jump\t// in\n    tag_279:\n        /* \"contracts/oatlocker.sol\":7273:7319  burnFee.mul(1000 - gFees.referralDiscount).div */\n      tag_215\n      swap1\n        /* \"contracts/oatlocker.sol\":7273:7325  burnFee.mul(1000 - gFees.referralDiscount).div(1000) */\n      swap2\n      swap1\n      0xffffffff\n      and\n      jump\t// in\n    tag_278:\n        /* \"contracts/oatlocker.sol\":7263:7325  burnFee = burnFee.mul(1000 - gFees.referralDiscount).div(1000) */\n      swap1\n      pop\n        /* \"contracts/oatlocker.sol\":7221:7337  if (_referral != address(0)) {\r... */\n    tag_277:\n        /* \"contracts/oatlocker.sol\":7347:7457  TransferHelper.safeTransferFrom(address(gFees.secondaryFeeToken), address(msg.sender), address(this), burnFee) */\n      tag_280\n        /* \"contracts/oatlocker.sol\":7387:7392  gFees */\n      0x07\n        /* \"contracts/oatlocker.sol\":7387:7410  gFees.secondaryFeeToken */\n      0x01\n      add\n      0x00\n      swap1\n      sload\n      swap1\n      0x0100\n      exp\n      swap1\n      div\n      0xffffffffffffffffffffffffffffffffffffffff\n      and\n        /* \"contracts/oatlocker.sol\":7421:7431  msg.sender */\n      caller\n        /* \"contracts/oatlocker.sol\":7442:7446  this */\n      address\n        /* \"contracts/oatlocker.sol\":7449:7456  burnFee */\n      dup5\n        /* \"contracts/oatlocker.sol\":7347:7378  TransferHelper.safeTransferFrom */\n      tag_251\n        /* \"contracts/oatlocker.sol\":7347:7457  TransferHelper.safeTransferFrom(address(gFees.secondaryFeeToken), address(msg.sender), address(this), burnFee) */\n      jump\t// in\n    tag_280:\n        /* \"contracts/oatlocker.sol\":7497:7498  0 */\n      0x00\n        /* \"contracts/oatlocker.sol\":7472:7477  gFees */\n      0x07\n        /* \"contracts/oatlocker.sol\":7472:7493  gFees.referralPercent */\n      0x05\n      add\n      sload\n        /* \"contracts/oatlocker.sol\":7472:7498  gFees.referralPercent != 0 */\n      eq\n      iszero\n        /* \"contracts/oatlocker.sol\":7472:7525  gFees.referralPercent != 0 && _referral != address(0) */\n      dup1\n      iszero\n      tag_281\n      jumpi\n      pop\n        /* \"contracts/oatlocker.sol\":7523:7524  0 */\n      0x00\n        /* \"contracts/oatlocker.sol\":7502:7525  _referral != address(0) */\n      0xffffffffffffffffffffffffffffffffffffffff\n      and\n        /* \"contracts/oatlocker.sol\":7502:7511  _referral */\n      dup7\n        /* \"contracts/oatlocker.sol\":7502:7525  _referral != address(0) */\n      0xffffffffffffffffffffffffffffffffffffffff\n      and\n      eq\n      iszero\n        /* \"contracts/oatlocker.sol\":7472:7525  gFees.referralPercent != 0 && _referral != address(0) */\n    tag_281:\n        /* \"contracts/oatlocker.sol\":7468:7876  if (gFees.referralPercent != 0 && _referral != address(0)) { // referral fee\r... */\n      iszero\n      tag_282\n      jumpi\n        /* \"contracts/oatlocker.sol\":7556:7575  uint256 referralFee */\n      0x00\n        /* \"contracts/oatlocker.sol\":7578:7622  burnFee.mul(gFees.referralPercent).div(1000) */\n      tag_283\n        /* \"contracts/oatlocker.sol\":7617:7621  1000 */\n      0x03e8\n        /* \"contracts/oatlocker.sol\":7578:7612  burnFee.mul(gFees.referralPercent) */\n      tag_284\n        /* \"contracts/oatlocker.sol\":7590:7595  gFees */\n      0x07\n        /* \"contracts/oatlocker.sol\":7590:7611  gFees.referralPercent */\n      0x05\n      add\n      sload\n        /* \"contracts/oatlocker.sol\":7578:7585  burnFee */\n      dup6\n        /* \"contracts/oatlocker.sol\":7578:7589  burnFee.mul */\n      tag_214\n      swap1\n        /* \"contracts/oatlocker.sol\":7578:7612  burnFee.mul(gFees.referralPercent) */\n      swap2\n      swap1\n      0xffffffff\n      and\n      jump\t// in\n    tag_284:\n        /* \"contracts/oatlocker.sol\":7578:7616  burnFee.mul(gFees.referralPercent).div */\n      tag_215\n      swap1\n        /* \"contracts/oatlocker.sol\":7578:7622  burnFee.mul(gFees.referralPercent).div(1000) */\n      swap2\n      swap1\n      0xffffffff\n      and\n      jump\t// in\n    tag_283:\n        /* \"contracts/oatlocker.sol\":7556:7622  uint256 referralFee = burnFee.mul(gFees.referralPercent).div(1000) */\n      swap1\n      pop\n        /* \"contracts/oatlocker.sol\":7635:7719  TransferHelper.safeApprove(address(gFees.secondaryFeeToken), _referral, referralFee) */\n      tag_285\n        /* \"contracts/oatlocker.sol\":7670:7675  gFees */\n      0x07\n        /* \"contracts/oatlocker.sol\":7670:7693  gFees.secondaryFeeToken */\n      0x01\n      add\n      0x00\n      swap1\n      sload\n      swap1\n      0x0100\n      exp\n      swap1\n      div\n      0xffffffffffffffffffffffffffffffffffffffff\n      and\n        /* \"contracts/oatlocker.sol\":7696:7705  _referral */\n      dup9\n        /* \"contracts/oatlocker.sol\":7707:7718  referralFee */\n      dup4\n        /* \"contracts/oatlocker.sol\":7635:7661  TransferHelper.safeApprove */\n      tag_286\n        /* \"contracts/oatlocker.sol\":7635:7719  TransferHelper.safeApprove(address(gFees.secondaryFeeToken), _referral, referralFee) */\n      jump\t// in\n    tag_285:\n        /* \"contracts/oatlocker.sol\":7732:7817  TransferHelper.safeTransfer(address(gFees.secondaryFeeToken), _referral, referralFee) */\n      tag_287\n        /* \"contracts/oatlocker.sol\":7768:7773  gFees */\n      0x07\n        /* \"contracts/oatlocker.sol\":7768:7791  gFees.secondaryFeeToken */\n      0x01\n      add\n      0x00\n      swap1\n      sload\n      swap1\n      0x0100\n      exp\n      swap1\n      div\n      0xffffffffffffffffffffffffffffffffffffffff\n      and\n        /* \"contracts/oatlocker.sol\":7794:7803  _referral */\n      dup9\n        /* \"contracts/oatlocker.sol\":7805:7816  referralFee */\n      dup4\n        /* \"contracts/oatlocker.sol\":7732:7759  TransferHelper.safeTransfer */\n      tag_179\n        /* \"contracts/oatlocker.sol\":7732:7817  TransferHelper.safeTransfer(address(gFees.secondaryFeeToken), _referral, referralFee) */\n      jump\t// in\n    tag_287:\n        /* \"contracts/oatlocker.sol\":7840:7864  burnFee.sub(referralFee) */\n      tag_288\n        /* \"contracts/oatlocker.sol\":7852:7863  referralFee */\n      dup2\n        /* \"contracts/oatlocker.sol\":7840:7847  burnFee */\n      dup4\n        /* \"contracts/oatlocker.sol\":7840:7851  burnFee.sub */\n      tag_167\n      swap1\n        /* \"contracts/oatlocker.sol\":7840:7864  burnFee.sub(referralFee) */\n      swap2\n      swap1\n      0xffffffff\n      and\n      jump\t// in\n    tag_288:\n        /* \"contracts/oatlocker.sol\":7830:7864  burnFee = burnFee.sub(referralFee) */\n      swap2\n      pop\n        /* \"contracts/oatlocker.sol\":7468:7876  if (gFees.referralPercent != 0 && _referral != address(0)) { // referral fee\r... */\n      pop\n    tag_282:\n        /* \"contracts/oatlocker.sol\":7886:7891  gFees */\n      0x07\n        /* \"contracts/oatlocker.sol\":7886:7909  gFees.secondaryFeeToken */\n      0x01\n      add\n      0x00\n      swap1\n      sload\n      swap1\n      0x0100\n      exp\n      swap1\n      div\n      0xffffffffffffffffffffffffffffffffffffffff\n      and\n        /* \"contracts/oatlocker.sol\":7886:7914  gFees.secondaryFeeToken.burn */\n      0xffffffffffffffffffffffffffffffffffffffff\n      and\n      0x42966c68\n        /* \"contracts/oatlocker.sol\":7915:7922  burnFee */\n      dup3\n        /* \"contracts/oatlocker.sol\":7886:7923  gFees.secondaryFeeToken.burn(burnFee) */\n      mload(0x40)\n      dup3\n      0xffffffff\n      and\n      0xe0\n      shl\n      dup2\n      mstore\n      0x04\n      add\n      dup1\n      dup3\n      dup2\n      mstore\n      0x20\n      add\n      swap2\n      pop\n      pop\n      0x00\n      mload(0x40)\n      dup1\n      dup4\n      sub\n      dup2\n      0x00\n      dup8\n      dup1\n      extcodesize\n      iszero\n      dup1\n      iszero\n      tag_289\n      jumpi\n      0x00\n      dup1\n      revert\n    tag_289:\n      pop\n      gas\n      call\n      iszero\n      dup1\n      iszero\n      tag_291\n      jumpi\n      returndatasize\n      0x00\n      dup1\n      returndatacopy\n      revert(0x00, returndatasize)\n    tag_291:\n      pop\n      pop\n      pop\n      pop\n        /* \"contracts/oatlocker.sol\":6545:7933  if (_fee_in_eth) { // charge fee in eth\r... */\n      pop\n    tag_276:\n        /* \"contracts/oatlocker.sol\":6496:8075  if (!feeWhitelist.contains(msg.sender)) {\r... */\n      jump(tag_292)\n    tag_261:\n        /* \"contracts/oatlocker.sol\":7962:7963  0 */\n      0x00\n        /* \"contracts/oatlocker.sol\":7950:7959  msg.value */\n      callvalue\n        /* \"contracts/oatlocker.sol\":7950:7963  msg.value > 0 */\n      gt\n        /* \"contracts/oatlocker.sol\":7946:8075  if (msg.value > 0){\r... */\n      iszero\n      tag_293\n      jumpi\n        /* \"contracts/oatlocker.sol\":8037:8047  msg.sender */\n      caller\n        /* \"contracts/oatlocker.sol\":8037:8056  msg.sender.transfer */\n      0xffffffffffffffffffffffffffffffffffffffff\n      and\n        /* \"contracts/oatlocker.sol\":8037:8067  msg.sender.transfer(msg.value) */\n      0x08fc\n        /* \"contracts/oatlocker.sol\":8057:8066  msg.value */\n      callvalue\n        /* \"contracts/oatlocker.sol\":8037:8067  msg.sender.transfer(msg.value) */\n      swap1\n      dup2\n      iszero\n      mul\n      swap1\n      mload(0x40)\n      0x00\n      mload(0x40)\n      dup1\n      dup4\n      sub\n      dup2\n      dup6\n      dup9\n      dup9\n      call\n      swap4\n      pop\n      pop\n      pop\n      pop\n      iszero\n      dup1\n      iszero\n      tag_295\n      jumpi\n      returndatasize\n      0x00\n      dup1\n      returndatacopy\n      revert(0x00, returndatasize)\n    tag_295:\n      pop\n        /* \"contracts/oatlocker.sol\":7946:8075  if (msg.value > 0){\r... */\n    tag_293:\n        /* \"contracts/oatlocker.sol\":6496:8075  if (!feeWhitelist.contains(msg.sender)) {\r... */\n    tag_292:\n        /* \"contracts/oatlocker.sol\":8107:8127  uint256 liquidityFee */\n      0x00\n        /* \"contracts/oatlocker.sol\":8130:8171  _amount.mul(gFees.liquidityFee).div(1000) */\n      tag_296\n        /* \"contracts/oatlocker.sol\":8166:8170  1000 */\n      0x03e8\n        /* \"contracts/oatlocker.sol\":8130:8161  _amount.mul(gFees.liquidityFee) */\n      tag_297\n        /* \"contracts/oatlocker.sol\":8142:8147  gFees */\n      0x07\n        /* \"contracts/oatlocker.sol\":8142:8160  gFees.liquidityFee */\n      0x04\n      add\n      sload\n        /* \"contracts/oatlocker.sol\":8130:8137  _amount */\n      dup12\n        /* \"contracts/oatlocker.sol\":8130:8141  _amount.mul */\n      tag_214\n      swap1\n        /* \"contracts/oatlocker.sol\":8130:8161  _amount.mul(gFees.liquidityFee) */\n      swap2\n      swap1\n      0xffffffff\n      and\n      jump\t// in\n    tag_297:\n        /* \"contracts/oatlocker.sol\":8130:8165  _amount.mul(gFees.liquidityFee).div */\n      tag_215\n      swap1\n        /* \"contracts/oatlocker.sol\":8130:8171  _amount.mul(gFees.liquidityFee).div(1000) */\n      swap2\n      swap1\n      0xffffffff\n      and\n      jump\t// in\n    tag_296:\n        /* \"contracts/oatlocker.sol\":8107:8171  uint256 liquidityFee = _amount.mul(gFees.liquidityFee).div(1000) */\n      swap1\n      pop\n        /* \"contracts/oatlocker.sol\":8183:8194  _fee_in_eth */\n      dup5\n        /* \"contracts/oatlocker.sol\":8182:8194  !_fee_in_eth */\n      iszero\n        /* \"contracts/oatlocker.sol\":8182:8232  !_fee_in_eth && !feeWhitelist.contains(msg.sender) */\n      dup1\n      iszero\n      tag_298\n      jumpi\n      pop\n        /* \"contracts/oatlocker.sol\":8199:8232  feeWhitelist.contains(msg.sender) */\n      tag_299\n        /* \"contracts/oatlocker.sol\":8221:8231  msg.sender */\n      caller\n        /* \"contracts/oatlocker.sol\":8199:8211  feeWhitelist */\n      0x10\n        /* \"contracts/oatlocker.sol\":8199:8220  feeWhitelist.contains */\n      tag_260\n      swap1\n        /* \"contracts/oatlocker.sol\":8199:8232  feeWhitelist.contains(msg.sender) */\n      swap2\n      swap1\n      0xffffffff\n      and\n      jump\t// in\n    tag_299:\n        /* \"contracts/oatlocker.sol\":8198:8232  !feeWhitelist.contains(msg.sender) */\n      iszero\n        /* \"contracts/oatlocker.sol\":8182:8232  !_fee_in_eth && !feeWhitelist.contains(msg.sender) */\n    tag_298:\n        /* \"contracts/oatlocker.sol\":8178:8385  if (!_fee_in_eth && !feeWhitelist.contains(msg.sender)) { // fee discount for large lockers using secondary token\r... */\n      iszero\n      tag_300\n      jumpi\n        /* \"contracts/oatlocker.sol\":8314:8377  liquidityFee.mul(1000 - gFees.secondaryTokenDiscount).div(1000) */\n      tag_301\n        /* \"contracts/oatlocker.sol\":8372:8376  1000 */\n      0x03e8\n        /* \"contracts/oatlocker.sol\":8314:8367  liquidityFee.mul(1000 - gFees.secondaryTokenDiscount) */\n      tag_302\n        /* \"contracts/oatlocker.sol\":8338:8343  gFees */\n      0x07\n        /* \"contracts/oatlocker.sol\":8338:8366  gFees.secondaryTokenDiscount */\n      0x03\n      add\n      sload\n        /* \"contracts/oatlocker.sol\":8331:8335  1000 */\n      0x03e8\n        /* \"contracts/oatlocker.sol\":8331:8366  1000 - gFees.secondaryTokenDiscount */\n      sub\n        /* \"contracts/oatlocker.sol\":8314:8326  liquidityFee */\n      dup5\n        /* \"contracts/oatlocker.sol\":8314:8330  liquidityFee.mul */\n      tag_214\n      swap1\n        /* \"contracts/oatlocker.sol\":8314:8367  liquidityFee.mul(1000 - gFees.secondaryTokenDiscount) */\n      swap2\n      swap1\n      0xffffffff\n      and\n      jump\t// in\n    tag_302:\n        /* \"contracts/oatlocker.sol\":8314:8371  liquidityFee.mul(1000 - gFees.secondaryTokenDiscount).div */\n      tag_215\n      swap1\n        /* \"contracts/oatlocker.sol\":8314:8377  liquidityFee.mul(1000 - gFees.secondaryTokenDiscount).div(1000) */\n      swap2\n      swap1\n      0xffffffff\n      and\n      jump\t// in\n    tag_301:\n        /* \"contracts/oatlocker.sol\":8299:8377  liquidityFee = liquidityFee.mul(1000 - gFees.secondaryTokenDiscount).div(1000) */\n      swap1\n      pop\n        /* \"contracts/oatlocker.sol\":8178:8385  if (!_fee_in_eth && !feeWhitelist.contains(msg.sender)) { // fee discount for large lockers using secondary token\r... */\n    tag_300:\n        /* \"contracts/oatlocker.sol\":8391:8451  TransferHelper.safeTransfer(_lpToken, devaddr, liquidityFee) */\n      tag_303\n        /* \"contracts/oatlocker.sol\":8419:8427  _lpToken */\n      dup10\n        /* \"contracts/oatlocker.sol\":8429:8436  devaddr */\n      0x12\n      0x00\n      swap1\n      sload\n      swap1\n      0x0100\n      exp\n      swap1\n      div\n      0xffffffffffffffffffffffffffffffffffffffff\n      and\n        /* \"contracts/oatlocker.sol\":8438:8450  liquidityFee */\n      dup4\n        /* \"contracts/oatlocker.sol\":8391:8418  TransferHelper.safeTransfer */\n      tag_179\n        /* \"contracts/oatlocker.sol\":8391:8451  TransferHelper.safeTransfer(_lpToken, devaddr, liquidityFee) */\n      jump\t// in\n    tag_303:\n        /* \"contracts/oatlocker.sol\":8458:8478  uint256 amountLocked */\n      0x00\n        /* \"contracts/oatlocker.sol\":8481:8506  _amount.sub(liquidityFee) */\n      tag_304\n        /* \"contracts/oatlocker.sol\":8493:8505  liquidityFee */\n      dup3\n        /* \"contracts/oatlocker.sol\":8481:8488  _amount */\n      dup11\n        /* \"contracts/oatlocker.sol\":8481:8492  _amount.sub */\n      tag_167\n      swap1\n        /* \"contracts/oatlocker.sol\":8481:8506  _amount.sub(liquidityFee) */\n      swap2\n      swap1\n      0xffffffff\n      and\n      jump\t// in\n    tag_304:\n        /* \"contracts/oatlocker.sol\":8458:8506  uint256 amountLocked = _amount.sub(liquidityFee) */\n      swap1\n      pop\n        /* \"contracts/oatlocker.sol\":8515:8542  TokenLock memory token_lock */\n      tag_305\n      tag_198\n      jump\t// in\n    tag_305:\n        /* \"contracts/oatlocker.sol\":8571:8586  block.timestamp */\n      timestamp\n        /* \"contracts/oatlocker.sol\":8549:8559  token_lock */\n      dup2\n        /* \"contracts/oatlocker.sol\":8549:8568  token_lock.lockDate */\n      0x00\n      add\n        /* \"contracts/oatlocker.sol\":8549:8586  token_lock.lockDate = block.timestamp */\n      dup2\n      dup2\n      mstore\n      pop\n      pop\n        /* \"contracts/oatlocker.sol\":8613:8625  amountLocked */\n      dup2\n        /* \"contracts/oatlocker.sol\":8593:8603  token_lock */\n      dup2\n        /* \"contracts/oatlocker.sol\":8593:8610  token_lock.amount */\n      0x20\n      add\n        /* \"contracts/oatlocker.sol\":8593:8625  token_lock.amount = amountLocked */\n      dup2\n      dup2\n      mstore\n      pop\n      pop\n        /* \"contracts/oatlocker.sol\":8659:8671  amountLocked */\n      dup2\n        /* \"contracts/oatlocker.sol\":8632:8642  token_lock */\n      dup2\n        /* \"contracts/oatlocker.sol\":8632:8656  token_lock.initialAmount */\n      0x40\n      add\n        /* \"contracts/oatlocker.sol\":8632:8671  token_lock.initialAmount = amountLocked */\n      dup2\n      dup2\n      mstore\n      pop\n      pop\n        /* \"contracts/oatlocker.sol\":8702:8714  _unlock_date */\n      dup9\n        /* \"contracts/oatlocker.sol\":8678:8688  token_lock */\n      dup2\n        /* \"contracts/oatlocker.sol\":8678:8699  token_lock.unlockDate */\n      0x60\n      add\n        /* \"contracts/oatlocker.sol\":8678:8714  token_lock.unlockDate = _unlock_date */\n      dup2\n      dup2\n      mstore\n      pop\n      pop\n        /* \"contracts/oatlocker.sol\":8741:8751  tokenLocks */\n      0x06\n        /* \"contracts/oatlocker.sol\":8741:8761  tokenLocks[_lpToken] */\n      0x00\n        /* \"contracts/oatlocker.sol\":8752:8760  _lpToken */\n      dup13\n        /* \"contracts/oatlocker.sol\":8741:8761  tokenLocks[_lpToken] */\n      0xffffffffffffffffffffffffffffffffffffffff\n      and\n      0xffffffffffffffffffffffffffffffffffffffff\n      and\n      dup2\n      mstore\n      0x20\n      add\n      swap1\n      dup2\n      mstore\n      0x20\n      add\n      0x00\n      keccak256\n        /* \"contracts/oatlocker.sol\":8741:8768  tokenLocks[_lpToken].length */\n      dup1\n      sload\n      swap1\n      pop\n        /* \"contracts/oatlocker.sol\":8721:8731  token_lock */\n      dup2\n        /* \"contracts/oatlocker.sol\":8721:8738  token_lock.lockID */\n      0x80\n      add\n        /* \"contracts/oatlocker.sol\":8721:8768  token_lock.lockID = tokenLocks[_lpToken].length */\n      dup2\n      dup2\n      mstore\n      pop\n      pop\n        /* \"contracts/oatlocker.sol\":8794:8805  _withdrawer */\n      dup6\n        /* \"contracts/oatlocker.sol\":8775:8785  token_lock */\n      dup2\n        /* \"contracts/oatlocker.sol\":8775:8791  token_lock.owner */\n      0xa0\n      add\n        /* \"contracts/oatlocker.sol\":8775:8805  token_lock.owner = _withdrawer */\n      swap1\n      0xffffffffffffffffffffffffffffffffffffffff\n      and\n      swap1\n      dup2\n      0xffffffffffffffffffffffffffffffffffffffff\n      and\n      dup2\n      mstore\n      pop\n      pop\n        /* \"contracts/oatlocker.sol\":8856:8866  tokenLocks */\n      0x06\n        /* \"contracts/oatlocker.sol\":8856:8876  tokenLocks[_lpToken] */\n      0x00\n        /* \"contracts/oatlocker.sol\":8867:8875  _lpToken */\n      dup13\n        /* \"contracts/oatlocker.sol\":8856:8876  tokenLocks[_lpToken] */\n      0xffffffffffffffffffffffffffffffffffffffff\n      and\n      0xffffffffffffffffffffffffffffffffffffffff\n      and\n      dup2\n      mstore\n      0x20\n      add\n      swap1\n      dup2\n      mstore\n      0x20\n      add\n      0x00\n      keccak256\n        /* \"contracts/oatlocker.sol\":8882:8892  token_lock */\n      dup2\n        /* \"contracts/oatlocker.sol\":8856:8893  tokenLocks[_lpToken].push(token_lock) */\n      swap1\n      dup1\n      0x01\n      dup2\n      sload\n      add\n      dup1\n      dup3\n      sstore\n      dup1\n      swap2\n      pop\n      pop\n      0x01\n      swap1\n      sub\n      swap1\n      0x00\n      mstore\n      keccak256(0x00, 0x20)\n      swap1\n      0x06\n      mul\n      add\n      0x00\n      swap1\n      swap2\n      swap1\n      swap2\n      swap1\n      swap2\n      pop\n      0x00\n      dup3\n      add\n      mload\n      dup2\n      0x00\n      add\n      sstore\n      0x20\n      dup3\n      add\n      mload\n      dup2\n      0x01\n      add\n      sstore\n      0x40\n      dup3\n      add\n      mload\n      dup2\n      0x02\n      add\n      sstore\n      0x60\n      dup3\n      add\n      mload\n      dup2\n      0x03\n      add\n      sstore\n      0x80\n      dup3\n      add\n      mload\n      dup2\n      0x04\n      add\n      sstore\n      0xa0\n      dup3\n      add\n      mload\n      dup2\n      0x05\n      add\n      exp(0x0100, 0x00)\n      dup2\n      sload\n      dup2\n      0xffffffffffffffffffffffffffffffffffffffff\n      mul\n      not\n      and\n      swap1\n      dup4\n      0xffffffffffffffffffffffffffffffffffffffff\n      and\n      mul\n      or\n      swap1\n      sstore\n      pop\n      pop\n      pop\n        /* \"contracts/oatlocker.sol\":8900:8926  lockedTokens.add(_lpToken) */\n      tag_307\n        /* \"contracts/oatlocker.sol\":8917:8925  _lpToken */\n      dup12\n        /* \"contracts/oatlocker.sol\":8900:8912  lockedTokens */\n      0x04\n        /* \"contracts/oatlocker.sol\":8900:8916  lockedTokens.add */\n      tag_308\n      swap1\n        /* \"contracts/oatlocker.sol\":8900:8926  lockedTokens.add(_lpToken) */\n      swap2\n      swap1\n      0xffffffff\n      and\n      jump\t// in\n    tag_307:\n      pop\n        /* \"contracts/oatlocker.sol\":8972:8993  UserInfo storage user */\n      0x00\n        /* \"contracts/oatlocker.sol\":8996:9001  users */\n      0x03\n        /* \"contracts/oatlocker.sol\":8996:9014  users[_withdrawer] */\n      0x00\n        /* \"contracts/oatlocker.sol\":9002:9013  _withdrawer */\n      dup9\n        /* \"contracts/oatlocker.sol\":8996:9014  users[_withdrawer] */\n      0xffffffffffffffffffffffffffffffffffffffff\n      and\n      0xffffffffffffffffffffffffffffffffffffffff\n      and\n      dup2\n      mstore\n      0x20\n      add\n      swap1\n      dup2\n      mstore\n      0x20\n      add\n      0x00\n      keccak256\n        /* \"contracts/oatlocker.sol\":8972:9014  UserInfo storage user = users[_withdrawer] */\n      swap1\n      pop\n        /* \"contracts/oatlocker.sol\":9021:9052  user.lockedTokens.add(_lpToken) */\n      tag_309\n        /* \"contracts/oatlocker.sol\":9043:9051  _lpToken */\n      dup13\n        /* \"contracts/oatlocker.sol\":9021:9025  user */\n      dup3\n        /* \"contracts/oatlocker.sol\":9021:9038  user.lockedTokens */\n      0x00\n      add\n        /* \"contracts/oatlocker.sol\":9021:9042  user.lockedTokens.add */\n      tag_308\n      swap1\n        /* \"contracts/oatlocker.sol\":9021:9052  user.lockedTokens.add(_lpToken) */\n      swap2\n      swap1\n      0xffffffff\n      and\n      jump\t// in\n    tag_309:\n      pop\n        /* \"contracts/oatlocker.sol\":9059:9087  uint256[] storage user_locks */\n      0x00\n        /* \"contracts/oatlocker.sol\":9090:9094  user */\n      dup2\n        /* \"contracts/oatlocker.sol\":9090:9108  user.locksForToken */\n      0x02\n      add\n        /* \"contracts/oatlocker.sol\":9090:9118  user.locksForToken[_lpToken] */\n      0x00\n        /* \"contracts/oatlocker.sol\":9109:9117  _lpToken */\n      dup15\n        /* \"contracts/oatlocker.sol\":9090:9118  user.locksForToken[_lpToken] */\n      0xffffffffffffffffffffffffffffffffffffffff\n      and\n      0xffffffffffffffffffffffffffffffffffffffff\n      and\n      dup2\n      mstore\n      0x20\n      add\n      swap1\n      dup2\n      mstore\n      0x20\n      add\n      0x00\n      keccak256\n        /* \"contracts/oatlocker.sol\":9059:9118  uint256[] storage user_locks = user.locksForToken[_lpToken] */\n      swap1\n      pop\n        /* \"contracts/oatlocker.sol\":9125:9135  user_locks */\n      dup1\n        /* \"contracts/oatlocker.sol\":9141:9151  token_lock */\n      dup4\n        /* \"contracts/oatlocker.sol\":9141:9158  token_lock.lockID */\n      0x80\n      add\n      mload\n        /* \"contracts/oatlocker.sol\":9125:9159  user_locks.push(token_lock.lockID) */\n      swap1\n      dup1\n      0x01\n      dup2\n      sload\n      add\n      dup1\n      dup3\n      sstore\n      dup1\n      swap2\n      pop\n      pop\n      0x01\n      swap1\n      sub\n      swap1\n      0x00\n      mstore\n      keccak256(0x00, 0x20)\n      add\n      0x00\n      swap1\n      swap2\n      swap1\n      swap2\n      swap1\n      swap2\n      pop\n      sstore\n        /* \"contracts/oatlocker.sol\":9177:9271  onDeposit(_lpToken, msg.sender, token_lock.amount, token_lock.lockDate, token_lock.unlockDate) */\n      0x830357565da6ecfc26d8d9f69df488ed6f70361af9a07e570544aeb5c5e765e5\n        /* \"contracts/oatlocker.sol\":9187:9195  _lpToken */\n      dup14\n        /* \"contracts/oatlocker.sol\":9197:9207  msg.sender */\n      caller\n        /* \"contracts/oatlocker.sol\":9209:9219  token_lock */\n      dup6\n        /* \"contracts/oatlocker.sol\":9209:9226  token_lock.amount */\n      0x20\n      add\n      mload\n        /* \"contracts/oatlocker.sol\":9228:9238  token_lock */\n      dup7\n        /* \"contracts/oatlocker.sol\":9228:9247  token_lock.lockDate */\n      0x00\n      add\n      mload\n        /* \"contracts/oatlocker.sol\":9249:9259  token_lock */\n      dup8\n        /* \"contracts/oatlocker.sol\":9249:9270  token_lock.unlockDate */\n      0x60\n      add\n      mload\n        /* \"contracts/oatlocker.sol\":9177:9271  onDeposit(_lpToken, msg.sender, token_lock.amount, token_lock.lockDate, token_lock.unlockDate) */\n      mload(0x40)\n      dup1\n      dup7\n      0xffffffffffffffffffffffffffffffffffffffff\n      and\n      dup2\n      mstore\n      0x20\n      add\n      dup6\n      0xffffffffffffffffffffffffffffffffffffffff\n      and\n      dup2\n      mstore\n      0x20\n      add\n      dup5\n      dup2\n      mstore\n      0x20\n      add\n      dup4\n      dup2\n      mstore\n      0x20\n      add\n      dup3\n      dup2\n      mstore\n      0x20\n      add\n      swap6\n      pop\n      pop\n      pop\n      pop\n      pop\n      pop\n      mload(0x40)\n      dup1\n      swap2\n      sub\n      swap1\n      log1\n        /* \"contracts/ReentrancyGuard.sol\":2637:2638  _ */\n      pop\n      pop\n      pop\n      pop\n      pop\n      pop\n      pop\n        /* \"contracts/ReentrancyGuard.sol\":1823:1824  1 */\n      0x01\n        /* \"contracts/ReentrancyGuard.sol\":2785:2792  _status */\n      dup1\n        /* \"contracts/ReentrancyGuard.sol\":2785:2807  _status = _NOT_ENTERED */\n      dup2\n      swap1\n      sstore\n      pop\n        /* \"contracts/oatlocker.sol\":5534:9277  function lockLPToken (address _lpToken, uint256 _amount, uint256 _unlock_date, address payable _referral, bool _fee_in_eth, address payable _withdrawer) external payable nonReentrant {\r... */\n      pop\n      pop\n      pop\n      pop\n      pop\n      pop\n      jump\t// out\n        /* \"contracts/oatlocker.sol\":1368:1401  IUniFactory public uniswapFactory */\n    tag_83:\n      0x02\n      0x00\n      swap1\n      sload\n      swap1\n      0x0100\n      exp\n      swap1\n      div\n      0xffffffffffffffffffffffffffffffffffffffff\n      and\n      dup2\n      jump\t// out\n        /* \"contracts/oatlocker.sol\":17871:17998  function getWhitelistedUserAtIndex (uint256 _index) external view returns (address) {\r... */\n    tag_87:\n        /* \"contracts/oatlocker.sol\":17946:17953  address */\n      0x00\n        /* \"contracts/oatlocker.sol\":17969:17992  feeWhitelist.at(_index) */\n      tag_312\n        /* \"contracts/oatlocker.sol\":17985:17991  _index */\n      dup3\n        /* \"contracts/oatlocker.sol\":17969:17981  feeWhitelist */\n      0x10\n        /* \"contracts/oatlocker.sol\":17969:17984  feeWhitelist.at */\n      tag_148\n      swap1\n        /* \"contracts/oatlocker.sol\":17969:17992  feeWhitelist.at(_index) */\n      swap2\n      swap1\n      0xffffffff\n      and\n      jump\t// in\n    tag_312:\n        /* \"contracts/oatlocker.sol\":17962:17992  return feeWhitelist.at(_index) */\n      swap1\n      pop\n        /* \"contracts/oatlocker.sol\":17871:17998  function getWhitelistedUserAtIndex (uint256 _index) external view returns (address) {\r... */\n      swap2\n      swap1\n      pop\n      jump\t// out\n        /* \"contracts/Ownable.sol\":1251:1330  function owner() public view returns (address) {\r... */\n    tag_90:\n        /* \"contracts/Ownable.sol\":1289:1296  address */\n      0x00\n        /* \"contracts/Ownable.sol\":1316:1322  _owner */\n      dup1\n      0x00\n      swap1\n      sload\n      swap1\n      0x0100\n      exp\n      swap1\n      div\n      0xffffffffffffffffffffffffffffffffffffffff\n      and\n        /* \"contracts/Ownable.sol\":1309:1322  return _owner */\n      swap1\n      pop\n        /* \"contracts/Ownable.sol\":1251:1330  function owner() public view returns (address) {\r... */\n      swap1\n      jump\t// out\n        /* \"contracts/oatlocker.sol\":16885:17075  function getUserLockedTokenAtIndex (address _user, uint256 _index) external view returns (address) {\r... */\n    tag_94:\n        /* \"contracts/oatlocker.sol\":16975:16982  address */\n      0x00\n        /* \"contracts/oatlocker.sol\":16991:17012  UserInfo storage user */\n      dup1\n        /* \"contracts/oatlocker.sol\":17015:17020  users */\n      0x03\n        /* \"contracts/oatlocker.sol\":17015:17027  users[_user] */\n      0x00\n        /* \"contracts/oatlocker.sol\":17021:17026  _user */\n      dup6\n        /* \"contracts/oatlocker.sol\":17015:17027  users[_user] */\n      0xffffffffffffffffffffffffffffffffffffffff\n      and\n      0xffffffffffffffffffffffffffffffffffffffff\n      and\n      dup2\n      mstore\n      0x20\n      add\n      swap1\n      dup2\n      mstore\n      0x20\n      add\n      0x00\n      keccak256\n        /* \"contracts/oatlocker.sol\":16991:17027  UserInfo storage user = users[_user] */\n      swap1\n      pop\n        /* \"contracts/oatlocker.sol\":17041:17069  user.lockedTokens.at(_index) */\n      tag_315\n        /* \"contracts/oatlocker.sol\":17062:17068  _index */\n      dup4\n        /* \"contracts/oatlocker.sol\":17041:17045  user */\n      dup3\n        /* \"contracts/oatlocker.sol\":17041:17058  user.lockedTokens */\n      0x00\n      add\n        /* \"contracts/oatlocker.sol\":17041:17061  user.lockedTokens.at */\n      tag_148\n      swap1\n        /* \"contracts/oatlocker.sol\":17041:17069  user.lockedTokens.at(_index) */\n      swap2\n      swap1\n      0xffffffff\n      and\n      jump\t// in\n    tag_315:\n        /* \"contracts/oatlocker.sol\":17034:17069  return user.lockedTokens.at(_index) */\n      swap2\n      pop\n      pop\n        /* \"contracts/oatlocker.sol\":16885:17075  function getUserLockedTokenAtIndex (address _user, uint256 _index) external view returns (address) {\r... */\n      swap3\n      swap2\n      pop\n      pop\n      jump\t// out\n        /* \"contracts/oatlocker.sol\":2840:2862  FeeStruct public gFees */\n    tag_97:\n      0x07\n      dup1\n      0x00\n      add\n      sload\n      swap1\n      dup1\n      0x01\n      add\n      0x00\n      swap1\n      sload\n      swap1\n      0x0100\n      exp\n      swap1\n      div\n      0xffffffffffffffffffffffffffffffffffffffff\n      and\n      swap1\n      dup1\n      0x02\n      add\n      sload\n      swap1\n      dup1\n      0x03\n      add\n      sload\n      swap1\n      dup1\n      0x04\n      add\n      sload\n      swap1\n      dup1\n      0x05\n      add\n      sload\n      swap1\n      dup1\n      0x06\n      add\n      0x00\n      swap1\n      sload\n      swap1\n      0x0100\n      exp\n      swap1\n      div\n      0xffffffffffffffffffffffffffffffffffffffff\n      and\n      swap1\n      dup1\n      0x07\n      add\n      sload\n      swap1\n      dup1\n      0x08\n      add\n      sload\n      swap1\n      pop\n      dup10\n      jump\t// out\n        /* \"contracts/oatlocker.sol\":4856:5039  function whitelistFeeAccount(address _user, bool _add) public onlyOwner {\r... */\n    tag_101:\n        /* \"contracts/Ownable.sol\":1473:1485  _msgSender() */\n      tag_317\n        /* \"contracts/Ownable.sol\":1473:1483  _msgSender */\n      tag_152\n        /* \"contracts/Ownable.sol\":1473:1485  _msgSender() */\n      jump\t// in\n    tag_317:\n        /* \"contracts/Ownable.sol\":1463:1485  _owner == _msgSender() */\n      0xffffffffffffffffffffffffffffffffffffffff\n      and\n        /* \"contracts/Ownable.sol\":1463:1469  _owner */\n      0x00\n      dup1\n      sload\n      swap1\n      0x0100\n      exp\n      swap1\n      div\n      0xffffffffffffffffffffffffffffffffffffffff\n      and\n        /* \"contracts/Ownable.sol\":1463:1485  _owner == _msgSender() */\n      0xffffffffffffffffffffffffffffffffffffffff\n      and\n      eq\n        /* \"contracts/Ownable.sol\":1455:1522  require(_owner == _msgSender(), \"Ownable: caller is not the owner\") */\n      tag_318\n      jumpi\n      mload(0x40)\n      0x08c379a000000000000000000000000000000000000000000000000000000000\n      dup2\n      mstore\n      0x04\n      add\n      dup1\n      dup1\n      0x20\n      add\n      dup3\n      dup2\n      sub\n      dup3\n      mstore\n      0x20\n      dup2\n      mstore\n      0x20\n      add\n      dup1\n      0x4f776e61626c653a2063616c6c6572206973206e6f7420746865206f776e6572\n      dup2\n      mstore\n      pop\n      0x20\n      add\n      swap2\n      pop\n      pop\n      mload(0x40)\n      dup1\n      swap2\n      sub\n      swap1\n      revert\n    tag_318:\n        /* \"contracts/oatlocker.sol\":4939:4943  _add */\n      dup1\n        /* \"contracts/oatlocker.sol\":4935:5034  if (_add) {\r... */\n      iszero\n      tag_320\n      jumpi\n        /* \"contracts/oatlocker.sol\":4954:4977  feeWhitelist.add(_user) */\n      tag_321\n        /* \"contracts/oatlocker.sol\":4971:4976  _user */\n      dup3\n        /* \"contracts/oatlocker.sol\":4954:4966  feeWhitelist */\n      0x10\n        /* \"contracts/oatlocker.sol\":4954:4970  feeWhitelist.add */\n      tag_308\n      swap1\n        /* \"contracts/oatlocker.sol\":4954:4977  feeWhitelist.add(_user) */\n      swap2\n      swap1\n      0xffffffff\n      and\n      jump\t// in\n    tag_321:\n      pop\n        /* \"contracts/oatlocker.sol\":4935:5034  if (_add) {\r... */\n      jump(tag_322)\n    tag_320:\n        /* \"contracts/oatlocker.sol\":5000:5026  feeWhitelist.remove(_user) */\n      tag_323\n        /* \"contracts/oatlocker.sol\":5020:5025  _user */\n      dup3\n        /* \"contracts/oatlocker.sol\":5000:5012  feeWhitelist */\n      0x10\n        /* \"contracts/oatlocker.sol\":5000:5019  feeWhitelist.remove */\n      tag_177\n      swap1\n        /* \"contracts/oatlocker.sol\":5000:5026  feeWhitelist.remove(_user) */\n      swap2\n      swap1\n      0xffffffff\n      and\n      jump\t// in\n    tag_323:\n      pop\n        /* \"contracts/oatlocker.sol\":4935:5034  if (_add) {\r... */\n    tag_322:\n        /* \"contracts/oatlocker.sol\":4856:5039  function whitelistFeeAccount(address _user, bool _add) public onlyOwner {\r... */\n      pop\n      pop\n      jump\t// out\n        /* \"contracts/oatlocker.sol\":16708:16877  function getUserNumLockedTokens (address _user) external view returns (uint256) {\r... */\n    tag_105:\n        /* \"contracts/oatlocker.sol\":16779:16786  uint256 */\n      0x00\n        /* \"contracts/oatlocker.sol\":16795:16816  UserInfo storage user */\n      dup1\n        /* \"contracts/oatlocker.sol\":16819:16824  users */\n      0x03\n        /* \"contracts/oatlocker.sol\":16819:16831  users[_user] */\n      0x00\n        /* \"contracts/oatlocker.sol\":16825:16830  _user */\n      dup5\n        /* \"contracts/oatlocker.sol\":16819:16831  users[_user] */\n      0xffffffffffffffffffffffffffffffffffffffff\n      and\n      0xffffffffffffffffffffffffffffffffffffffff\n      and\n      dup2\n      mstore\n      0x20\n      add\n      swap1\n      dup2\n      mstore\n      0x20\n      add\n      0x00\n      keccak256\n        /* \"contracts/oatlocker.sol\":16795:16831  UserInfo storage user = users[_user] */\n      swap1\n      pop\n        /* \"contracts/oatlocker.sol\":16845:16871  user.lockedTokens.length() */\n      tag_325\n        /* \"contracts/oatlocker.sol\":16845:16849  user */\n      dup2\n        /* \"contracts/oatlocker.sol\":16845:16862  user.lockedTokens */\n      0x00\n      add\n        /* \"contracts/oatlocker.sol\":16845:16869  user.lockedTokens.length */\n      tag_182\n        /* \"contracts/oatlocker.sol\":16845:16871  user.lockedTokens.length() */\n      jump\t// in\n    tag_325:\n        /* \"contracts/oatlocker.sol\":16838:16871  return user.lockedTokens.length() */\n      swap2\n      pop\n      pop\n        /* \"contracts/oatlocker.sol\":16708:16877  function getUserNumLockedTokens (address _user) external view returns (uint256) {\r... */\n      swap2\n      swap1\n      pop\n      jump\t// out\n        /* \"contracts/oatlocker.sol\":17083:17280  function getUserNumLocksForToken (address _user, address _lpToken) external view returns (uint256) {\r... */\n    tag_109:\n        /* \"contracts/oatlocker.sol\":17173:17180  uint256 */\n      0x00\n        /* \"contracts/oatlocker.sol\":17189:17210  UserInfo storage user */\n      dup1\n        /* \"contracts/oatlocker.sol\":17213:17218  users */\n      0x03\n        /* \"contracts/oatlocker.sol\":17213:17225  users[_user] */\n      0x00\n        /* \"contracts/oatlocker.sol\":17219:17224  _user */\n      dup6\n        /* \"contracts/oatlocker.sol\":17213:17225  users[_user] */\n      0xffffffffffffffffffffffffffffffffffffffff\n      and\n      0xffffffffffffffffffffffffffffffffffffffff\n      and\n      dup2\n      mstore\n      0x20\n      add\n      swap1\n      dup2\n      mstore\n      0x20\n      add\n      0x00\n      keccak256\n        /* \"contracts/oatlocker.sol\":17189:17225  UserInfo storage user = users[_user] */\n      swap1\n      pop\n        /* \"contracts/oatlocker.sol\":17239:17243  user */\n      dup1\n        /* \"contracts/oatlocker.sol\":17239:17257  user.locksForToken */\n      0x02\n      add\n        /* \"contracts/oatlocker.sol\":17239:17267  user.locksForToken[_lpToken] */\n      0x00\n        /* \"contracts/oatlocker.sol\":17258:17266  _lpToken */\n      dup5\n        /* \"contracts/oatlocker.sol\":17239:17267  user.locksForToken[_lpToken] */\n      0xffffffffffffffffffffffffffffffffffffffff\n      and\n      0xffffffffffffffffffffffffffffffffffffffff\n      and\n      dup2\n      mstore\n      0x20\n      add\n      swap1\n      dup2\n      mstore\n      0x20\n      add\n      0x00\n      keccak256\n        /* \"contracts/oatlocker.sol\":17239:17274  user.locksForToken[_lpToken].length */\n      dup1\n      sload\n      swap1\n      pop\n        /* \"contracts/oatlocker.sol\":17232:17274  return user.locksForToken[_lpToken].length */\n      swap2\n      pop\n      pop\n        /* \"contracts/oatlocker.sol\":17083:17280  function getUserNumLocksForToken (address _user, address _lpToken) external view returns (uint256) {\r... */\n      swap3\n      swap2\n      pop\n      pop\n      jump\t// out\n        /* \"contracts/oatlocker.sol\":11811:12731  function incrementLock (address _lpToken, uint256 _index, uint256 _lockID, uint256 _amount) external nonReentrant {\r... */\n    tag_113:\n        /* \"contracts/ReentrancyGuard.sol\":1867:1868  2 */\n      0x02\n        /* \"contracts/ReentrancyGuard.sol\":2473:2480  _status */\n      sload(0x01)\n        /* \"contracts/ReentrancyGuard.sol\":2473:2492  _status != _ENTERED */\n      eq\n      iszero\n        /* \"contracts/ReentrancyGuard.sol\":2465:2528  require(_status != _ENTERED, \"ReentrancyGuard: reentrant call\") */\n      tag_328\n      jumpi\n      mload(0x40)\n      0x08c379a000000000000000000000000000000000000000000000000000000000\n      dup2\n      mstore\n      0x04\n      add\n      dup1\n      dup1\n      0x20\n      add\n      dup3\n      dup2\n      sub\n      dup3\n      mstore\n      0x1f\n      dup2\n      mstore\n      0x20\n      add\n      dup1\n      0x5265656e7472616e637947756172643a207265656e7472616e742063616c6c00\n      dup2\n      mstore\n      pop\n      0x20\n      add\n      swap2\n      pop\n      pop\n      mload(0x40)\n      dup1\n      swap2\n      sub\n      swap1\n      revert\n    tag_328:\n        /* \"contracts/ReentrancyGuard.sol\":1867:1868  2 */\n      0x02\n        /* \"contracts/ReentrancyGuard.sol\":2606:2613  _status */\n      0x01\n        /* \"contracts/ReentrancyGuard.sol\":2606:2624  _status = _ENTERED */\n      dup2\n      swap1\n      sstore\n      pop\n        /* \"contracts/oatlocker.sol\":11950:11951  0 */\n      0x00\n        /* \"contracts/oatlocker.sol\":11940:11947  _amount */\n      dup2\n        /* \"contracts/oatlocker.sol\":11940:11951  _amount > 0 */\n      gt\n        /* \"contracts/oatlocker.sol\":11932:11967  require(_amount > 0, 'ZERO AMOUNT') */\n      tag_330\n      jumpi\n      mload(0x40)\n      0x08c379a000000000000000000000000000000000000000000000000000000000\n      dup2\n      mstore\n      0x04\n      add\n      dup1\n      dup1\n      0x20\n      add\n      dup3\n      dup2\n      sub\n      dup3\n      mstore\n      0x0b\n      dup2\n      mstore\n      0x20\n      add\n      dup1\n      0x5a45524f20414d4f554e54000000000000000000000000000000000000000000\n      dup2\n      mstore\n      pop\n      0x20\n      add\n      swap2\n      pop\n      pop\n      mload(0x40)\n      dup1\n      swap2\n      sub\n      swap1\n      revert\n    tag_330:\n        /* \"contracts/oatlocker.sol\":11974:11988  uint256 lockID */\n      0x00\n        /* \"contracts/oatlocker.sol\":11991:11996  users */\n      0x03\n        /* \"contracts/oatlocker.sol\":11991:12008  users[msg.sender] */\n      0x00\n        /* \"contracts/oatlocker.sol\":11997:12007  msg.sender */\n      caller\n        /* \"contracts/oatlocker.sol\":11991:12008  users[msg.sender] */\n      0xffffffffffffffffffffffffffffffffffffffff\n      and\n      0xffffffffffffffffffffffffffffffffffffffff\n      and\n      dup2\n      mstore\n      0x20\n      add\n      swap1\n      dup2\n      mstore\n      0x20\n      add\n      0x00\n      keccak256\n        /* \"contracts/oatlocker.sol\":11991:12022  users[msg.sender].locksForToken */\n      0x02\n      add\n        /* \"contracts/oatlocker.sol\":11991:12032  users[msg.sender].locksForToken[_lpToken] */\n      0x00\n        /* \"contracts/oatlocker.sol\":12023:12031  _lpToken */\n      dup7\n        /* \"contracts/oatlocker.sol\":11991:12032  users[msg.sender].locksForToken[_lpToken] */\n      0xffffffffffffffffffffffffffffffffffffffff\n      and\n      0xffffffffffffffffffffffffffffffffffffffff\n      and\n      dup2\n      mstore\n      0x20\n      add\n      swap1\n      dup2\n      mstore\n      0x20\n      add\n      0x00\n      keccak256\n        /* \"contracts/oatlocker.sol\":12033:12039  _index */\n      dup5\n        /* \"contracts/oatlocker.sol\":11991:12040  users[msg.sender].locksForToken[_lpToken][_index] */\n      dup2\n      sload\n      dup2\n      lt\n      tag_331\n      jumpi\n      invalid\n    tag_331:\n      swap1\n      0x00\n      mstore\n      keccak256(0x00, 0x20)\n      add\n      sload\n        /* \"contracts/oatlocker.sol\":11974:12040  uint256 lockID = users[msg.sender].locksForToken[_lpToken][_index] */\n      swap1\n      pop\n        /* \"contracts/oatlocker.sol\":12047:12073  TokenLock storage userLock */\n      0x00\n        /* \"contracts/oatlocker.sol\":12076:12086  tokenLocks */\n      0x06\n        /* \"contracts/oatlocker.sol\":12076:12096  tokenLocks[_lpToken] */\n      0x00\n        /* \"contracts/oatlocker.sol\":12087:12095  _lpToken */\n      dup8\n        /* \"contracts/oatlocker.sol\":12076:12096  tokenLocks[_lpToken] */\n      0xffffffffffffffffffffffffffffffffffffffff\n      and\n      0xffffffffffffffffffffffffffffffffffffffff\n      and\n      dup2\n      mstore\n      0x20\n      add\n      swap1\n      dup2\n      mstore\n      0x20\n      add\n      0x00\n      keccak256\n        /* \"contracts/oatlocker.sol\":12097:12103  lockID */\n      dup3\n        /* \"contracts/oatlocker.sol\":12076:12104  tokenLocks[_lpToken][lockID] */\n      dup2\n      sload\n      dup2\n      lt\n      tag_333\n      jumpi\n      invalid\n    tag_333:\n      swap1\n      0x00\n      mstore\n      keccak256(0x00, 0x20)\n      swap1\n      0x06\n      mul\n      add\n        /* \"contracts/oatlocker.sol\":12047:12104  TokenLock storage userLock = tokenLocks[_lpToken][lockID] */\n      swap1\n      pop\n        /* \"contracts/oatlocker.sol\":12129:12136  _lockID */\n      dup4\n        /* \"contracts/oatlocker.sol\":12119:12125  lockID */\n      dup3\n        /* \"contracts/oatlocker.sol\":12119:12136  lockID == _lockID */\n      eq\n        /* \"contracts/oatlocker.sol\":12119:12168  lockID == _lockID && userLock.owner == msg.sender */\n      dup1\n      iszero\n      tag_335\n      jumpi\n      pop\n        /* \"contracts/oatlocker.sol\":12158:12168  msg.sender */\n      caller\n        /* \"contracts/oatlocker.sol\":12140:12168  userLock.owner == msg.sender */\n      0xffffffffffffffffffffffffffffffffffffffff\n      and\n        /* \"contracts/oatlocker.sol\":12140:12148  userLock */\n      dup2\n        /* \"contracts/oatlocker.sol\":12140:12154  userLock.owner */\n      0x05\n      add\n      0x00\n      swap1\n      sload\n      swap1\n      0x0100\n      exp\n      swap1\n      div\n      0xffffffffffffffffffffffffffffffffffffffff\n      and\n        /* \"contracts/oatlocker.sol\":12140:12168  userLock.owner == msg.sender */\n      0xffffffffffffffffffffffffffffffffffffffff\n      and\n      eq\n        /* \"contracts/oatlocker.sol\":12119:12168  lockID == _lockID && userLock.owner == msg.sender */\n    tag_335:\n        /* \"contracts/oatlocker.sol\":12111:12186  require(lockID == _lockID && userLock.owner == msg.sender, 'LOCK MISMATCH') */\n      tag_336\n      jumpi\n      mload(0x40)\n      0x08c379a000000000000000000000000000000000000000000000000000000000\n      dup2\n      mstore\n      0x04\n      add\n      dup1\n      dup1\n      0x20\n      add\n      dup3\n      dup2\n      sub\n      dup3\n      mstore\n      0x0d\n      dup2\n      mstore\n      0x20\n      add\n      dup1\n      0x4c4f434b204d49534d4154434800000000000000000000000000000000000000\n      dup2\n      mstore\n      pop\n      0x20\n      add\n      swap2\n      pop\n      pop\n      mload(0x40)\n      dup1\n      swap2\n      sub\n      swap1\n      revert\n    tag_336:\n        /* \"contracts/oatlocker.sol\":12235:12321  TransferHelper.safeTransferFrom(_lpToken, address(msg.sender), address(this), _amount) */\n      tag_337\n        /* \"contracts/oatlocker.sol\":12267:12275  _lpToken */\n      dup7\n        /* \"contracts/oatlocker.sol\":12285:12295  msg.sender */\n      caller\n        /* \"contracts/oatlocker.sol\":12306:12310  this */\n      address\n        /* \"contracts/oatlocker.sol\":12313:12320  _amount */\n      dup7\n        /* \"contracts/oatlocker.sol\":12235:12266  TransferHelper.safeTransferFrom */\n      tag_251\n        /* \"contracts/oatlocker.sol\":12235:12321  TransferHelper.safeTransferFrom(_lpToken, address(msg.sender), address(this), _amount) */\n      jump\t// in\n    tag_337:\n        /* \"contracts/oatlocker.sol\":12372:12392  uint256 liquidityFee */\n      0x00\n        /* \"contracts/oatlocker.sol\":12395:12436  _amount.mul(gFees.liquidityFee).div(1000) */\n      tag_338\n        /* \"contracts/oatlocker.sol\":12431:12435  1000 */\n      0x03e8\n        /* \"contracts/oatlocker.sol\":12395:12426  _amount.mul(gFees.liquidityFee) */\n      tag_339\n        /* \"contracts/oatlocker.sol\":12407:12412  gFees */\n      0x07\n        /* \"contracts/oatlocker.sol\":12407:12425  gFees.liquidityFee */\n      0x04\n      add\n      sload\n        /* \"contracts/oatlocker.sol\":12395:12402  _amount */\n      dup8\n        /* \"contracts/oatlocker.sol\":12395:12406  _amount.mul */\n      tag_214\n      swap1\n        /* \"contracts/oatlocker.sol\":12395:12426  _amount.mul(gFees.liquidityFee) */\n      swap2\n      swap1\n      0xffffffff\n      and\n      jump\t// in\n    tag_339:\n        /* \"contracts/oatlocker.sol\":12395:12430  _amount.mul(gFees.liquidityFee).div */\n      tag_215\n      swap1\n        /* \"contracts/oatlocker.sol\":12395:12436  _amount.mul(gFees.liquidityFee).div(1000) */\n      swap2\n      swap1\n      0xffffffff\n      and\n      jump\t// in\n    tag_338:\n        /* \"contracts/oatlocker.sol\":12372:12436  uint256 liquidityFee = _amount.mul(gFees.liquidityFee).div(1000) */\n      swap1\n      pop\n        /* \"contracts/oatlocker.sol\":12443:12503  TransferHelper.safeTransfer(_lpToken, devaddr, liquidityFee) */\n      tag_340\n        /* \"contracts/oatlocker.sol\":12471:12479  _lpToken */\n      dup8\n        /* \"contracts/oatlocker.sol\":12481:12488  devaddr */\n      0x12\n      0x00\n      swap1\n      sload\n      swap1\n      0x0100\n      exp\n      swap1\n      div\n      0xffffffffffffffffffffffffffffffffffffffff\n      and\n        /* \"contracts/oatlocker.sol\":12490:12502  liquidityFee */\n      dup4\n        /* \"contracts/oatlocker.sol\":12443:12470  TransferHelper.safeTransfer */\n      tag_179\n        /* \"contracts/oatlocker.sol\":12443:12503  TransferHelper.safeTransfer(_lpToken, devaddr, liquidityFee) */\n      jump\t// in\n    tag_340:\n        /* \"contracts/oatlocker.sol\":12510:12530  uint256 amountLocked */\n      0x00\n        /* \"contracts/oatlocker.sol\":12533:12558  _amount.sub(liquidityFee) */\n      tag_341\n        /* \"contracts/oatlocker.sol\":12545:12557  liquidityFee */\n      dup3\n        /* \"contracts/oatlocker.sol\":12533:12540  _amount */\n      dup7\n        /* \"contracts/oatlocker.sol\":12533:12544  _amount.sub */\n      tag_167\n      swap1\n        /* \"contracts/oatlocker.sol\":12533:12558  _amount.sub(liquidityFee) */\n      swap2\n      swap1\n      0xffffffff\n      and\n      jump\t// in\n    tag_341:\n        /* \"contracts/oatlocker.sol\":12510:12558  uint256 amountLocked = _amount.sub(liquidityFee) */\n      swap1\n      pop\n        /* \"contracts/oatlocker.sol\":12589:12622  userLock.amount.add(amountLocked) */\n      tag_342\n        /* \"contracts/oatlocker.sol\":12609:12621  amountLocked */\n      dup2\n        /* \"contracts/oatlocker.sol\":12589:12597  userLock */\n      dup5\n        /* \"contracts/oatlocker.sol\":12589:12604  userLock.amount */\n      0x01\n      add\n      sload\n        /* \"contracts/oatlocker.sol\":12589:12608  userLock.amount.add */\n      tag_343\n      swap1\n        /* \"contracts/oatlocker.sol\":12589:12622  userLock.amount.add(amountLocked) */\n      swap2\n      swap1\n      0xffffffff\n      and\n      jump\t// in\n    tag_342:\n        /* \"contracts/oatlocker.sol\":12571:12579  userLock */\n      dup4\n        /* \"contracts/oatlocker.sol\":12571:12586  userLock.amount */\n      0x01\n      add\n        /* \"contracts/oatlocker.sol\":12571:12622  userLock.amount = userLock.amount.add(amountLocked) */\n      dup2\n      swap1\n      sstore\n      pop\n        /* \"contracts/oatlocker.sol\":12640:12725  onDeposit(_lpToken, msg.sender, amountLocked, userLock.lockDate, userLock.unlockDate) */\n      0x830357565da6ecfc26d8d9f69df488ed6f70361af9a07e570544aeb5c5e765e5\n        /* \"contracts/oatlocker.sol\":12650:12658  _lpToken */\n      dup9\n        /* \"contracts/oatlocker.sol\":12660:12670  msg.sender */\n      caller\n        /* \"contracts/oatlocker.sol\":12672:12684  amountLocked */\n      dup4\n        /* \"contracts/oatlocker.sol\":12686:12694  userLock */\n      dup7\n        /* \"contracts/oatlocker.sol\":12686:12703  userLock.lockDate */\n      0x00\n      add\n      sload\n        /* \"contracts/oatlocker.sol\":12705:12713  userLock */\n      dup8\n        /* \"contracts/oatlocker.sol\":12705:12724  userLock.unlockDate */\n      0x03\n      add\n      sload\n        /* \"contracts/oatlocker.sol\":12640:12725  onDeposit(_lpToken, msg.sender, amountLocked, userLock.lockDate, userLock.unlockDate) */\n      mload(0x40)\n      dup1\n      dup7\n      0xffffffffffffffffffffffffffffffffffffffff\n      and\n      dup2\n      mstore\n      0x20\n      add\n      dup6\n      0xffffffffffffffffffffffffffffffffffffffff\n      and\n      dup2\n      mstore\n      0x20\n      add\n      dup5\n      dup2\n      mstore\n      0x20\n      add\n      dup4\n      dup2\n      mstore\n      0x20\n      add\n      dup3\n      dup2\n      mstore\n      0x20\n      add\n      swap6\n      pop\n      pop\n      pop\n      pop\n      pop\n      pop\n      mload(0x40)\n      dup1\n      swap2\n      sub\n      swap1\n      log1\n        /* \"contracts/ReentrancyGuard.sol\":2637:2638  _ */\n      pop\n      pop\n      pop\n      pop\n        /* \"contracts/ReentrancyGuard.sol\":1823:1824  1 */\n      0x01\n        /* \"contracts/ReentrancyGuard.sol\":2785:2792  _status */\n      dup1\n        /* \"contracts/ReentrancyGuard.sol\":2785:2807  _status = _NOT_ENTERED */\n      dup2\n      swap1\n      sstore\n      pop\n        /* \"contracts/oatlocker.sol\":11811:12731  function incrementLock (address _lpToken, uint256 _index, uint256 _lockID, uint256 _amount) external nonReentrant {\r... */\n      pop\n      pop\n      pop\n      pop\n      jump\t// out\n        /* \"contracts/oatlocker.sol\":18006:18131  function getUserWhitelistStatus (address _user) external view returns (bool) {\r... */\n    tag_117:\n        /* \"contracts/oatlocker.sol\":18077:18081  bool */\n      0x00\n        /* \"contracts/oatlocker.sol\":18097:18125  feeWhitelist.contains(_user) */\n      tag_345\n        /* \"contracts/oatlocker.sol\":18119:18124  _user */\n      dup3\n        /* \"contracts/oatlocker.sol\":18097:18109  feeWhitelist */\n      0x10\n        /* \"contracts/oatlocker.sol\":18097:18118  feeWhitelist.contains */\n      tag_260\n      swap1\n        /* \"contracts/oatlocker.sol\":18097:18125  feeWhitelist.contains(_user) */\n      swap2\n      swap1\n      0xffffffff\n      and\n      jump\t// in\n    tag_345:\n        /* \"contracts/oatlocker.sol\":18090:18125  return feeWhitelist.contains(_user) */\n      swap1\n      pop\n        /* \"contracts/oatlocker.sol\":18006:18131  function getUserWhitelistStatus (address _user) external view returns (bool) {\r... */\n      swap2\n      swap1\n      pop\n      jump\t// out\n        /* \"contracts/oatlocker.sol\":14182:15211  function transferLockOwnership (address _lpToken, uint256 _index, uint256 _lockID, address payable _newOwner) external {\r... */\n    tag_121:\n        /* \"contracts/oatlocker.sol\":14330:14339  _newOwner */\n      dup1\n        /* \"contracts/oatlocker.sol\":14316:14339  msg.sender != _newOwner */\n      0xffffffffffffffffffffffffffffffffffffffff\n      and\n        /* \"contracts/oatlocker.sol\":14316:14326  msg.sender */\n      caller\n        /* \"contracts/oatlocker.sol\":14316:14339  msg.sender != _newOwner */\n      0xffffffffffffffffffffffffffffffffffffffff\n      and\n      eq\n      iszero\n        /* \"contracts/oatlocker.sol\":14308:14349  require(msg.sender != _newOwner, 'OWNER') */\n      tag_347\n      jumpi\n      mload(0x40)\n      0x08c379a000000000000000000000000000000000000000000000000000000000\n      dup2\n      mstore\n      0x04\n      add\n      dup1\n      dup1\n      0x20\n      add\n      dup3\n      dup2\n      sub\n      dup3\n      mstore\n      0x05\n      dup2\n      mstore\n      0x20\n      add\n      dup1\n      0x4f574e4552000000000000000000000000000000000000000000000000000000\n      dup2\n      mstore\n      pop\n      0x20\n      add\n      swap2\n      pop\n      pop\n      mload(0x40)\n      dup1\n      swap2\n      sub\n      swap1\n      revert\n    tag_347:\n        /* \"contracts/oatlocker.sol\":14356:14370  uint256 lockID */\n      0x00\n        /* \"contracts/oatlocker.sol\":14373:14378  users */\n      0x03\n        /* \"contracts/oatlocker.sol\":14373:14390  users[msg.sender] */\n      0x00\n        /* \"contracts/oatlocker.sol\":14379:14389  msg.sender */\n      caller\n        /* \"contracts/oatlocker.sol\":14373:14390  users[msg.sender] */\n      0xffffffffffffffffffffffffffffffffffffffff\n      and\n      0xffffffffffffffffffffffffffffffffffffffff\n      and\n      dup2\n      mstore\n      0x20\n      add\n      swap1\n      dup2\n      mstore\n      0x20\n      add\n      0x00\n      keccak256\n        /* \"contracts/oatlocker.sol\":14373:14404  users[msg.sender].locksForToken */\n      0x02\n      add\n        /* \"contracts/oatlocker.sol\":14373:14414  users[msg.sender].locksForToken[_lpToken] */\n      0x00\n        /* \"contracts/oatlocker.sol\":14405:14413  _lpToken */\n      dup7\n        /* \"contracts/oatlocker.sol\":14373:14414  users[msg.sender].locksForToken[_lpToken] */\n      0xffffffffffffffffffffffffffffffffffffffff\n      and\n      0xffffffffffffffffffffffffffffffffffffffff\n      and\n      dup2\n      mstore\n      0x20\n      add\n      swap1\n      dup2\n      mstore\n      0x20\n      add\n      0x00\n      keccak256\n        /* \"contracts/oatlocker.sol\":14415:14421  _index */\n      dup5\n        /* \"contracts/oatlocker.sol\":14373:14422  users[msg.sender].locksForToken[_lpToken][_index] */\n      dup2\n      sload\n      dup2\n      lt\n      tag_348\n      jumpi\n      invalid\n    tag_348:\n      swap1\n      0x00\n      mstore\n      keccak256(0x00, 0x20)\n      add\n      sload\n        /* \"contracts/oatlocker.sol\":14356:14422  uint256 lockID = users[msg.sender].locksForToken[_lpToken][_index] */\n      swap1\n      pop\n        /* \"contracts/oatlocker.sol\":14429:14462  TokenLock storage transferredLock */\n      0x00\n        /* \"contracts/oatlocker.sol\":14465:14475  tokenLocks */\n      0x06\n        /* \"contracts/oatlocker.sol\":14465:14485  tokenLocks[_lpToken] */\n      0x00\n        /* \"contracts/oatlocker.sol\":14476:14484  _lpToken */\n      dup8\n        /* \"contracts/oatlocker.sol\":14465:14485  tokenLocks[_lpToken] */\n      0xffffffffffffffffffffffffffffffffffffffff\n      and\n      0xffffffffffffffffffffffffffffffffffffffff\n      and\n      dup2\n      mstore\n      0x20\n      add\n      swap1\n      dup2\n      mstore\n      0x20\n      add\n      0x00\n      keccak256\n        /* \"contracts/oatlocker.sol\":14486:14492  lockID */\n      dup3\n        /* \"contracts/oatlocker.sol\":14465:14493  tokenLocks[_lpToken][lockID] */\n      dup2\n      sload\n      dup2\n      lt\n      tag_350\n      jumpi\n      invalid\n    tag_350:\n      swap1\n      0x00\n      mstore\n      keccak256(0x00, 0x20)\n      swap1\n      0x06\n      mul\n      add\n        /* \"contracts/oatlocker.sol\":14429:14493  TokenLock storage transferredLock = tokenLocks[_lpToken][lockID] */\n      swap1\n      pop\n        /* \"contracts/oatlocker.sol\":14518:14525  _lockID */\n      dup4\n        /* \"contracts/oatlocker.sol\":14508:14514  lockID */\n      dup3\n        /* \"contracts/oatlocker.sol\":14508:14525  lockID == _lockID */\n      eq\n        /* \"contracts/oatlocker.sol\":14508:14564  lockID == _lockID && transferredLock.owner == msg.sender */\n      dup1\n      iszero\n      tag_352\n      jumpi\n      pop\n        /* \"contracts/oatlocker.sol\":14554:14564  msg.sender */\n      caller\n        /* \"contracts/oatlocker.sol\":14529:14564  transferredLock.owner == msg.sender */\n      0xffffffffffffffffffffffffffffffffffffffff\n      and\n        /* \"contracts/oatlocker.sol\":14529:14544  transferredLock */\n      dup2\n        /* \"contracts/oatlocker.sol\":14529:14550  transferredLock.owner */\n      0x05\n      add\n      0x00\n      swap1\n      sload\n      swap1\n      0x0100\n      exp\n      swap1\n      div\n      0xffffffffffffffffffffffffffffffffffffffff\n      and\n        /* \"contracts/oatlocker.sol\":14529:14564  transferredLock.owner == msg.sender */\n      0xffffffffffffffffffffffffffffffffffffffff\n      and\n      eq\n        /* \"contracts/oatlocker.sol\":14508:14564  lockID == _lockID && transferredLock.owner == msg.sender */\n    tag_352:\n        /* \"contracts/oatlocker.sol\":14500:14582  require(lockID == _lockID && transferredLock.owner == msg.sender, 'LOCK MISMATCH') */\n      tag_353\n      jumpi\n      mload(0x40)\n      0x08c379a000000000000000000000000000000000000000000000000000000000\n      dup2\n      mstore\n      0x04\n      add\n      dup1\n      dup1\n      0x20\n      add\n      dup3\n      dup2\n      sub\n      dup3\n      mstore\n      0x0d\n      dup2\n      mstore\n      0x20\n      add\n      dup1\n      0x4c4f434b204d49534d4154434800000000000000000000000000000000000000\n      dup2\n      mstore\n      pop\n      0x20\n      add\n      swap2\n      pop\n      pop\n      mload(0x40)\n      dup1\n      swap2\n      sub\n      swap1\n      revert\n    tag_353:\n        /* \"contracts/oatlocker.sol\":14673:14694  UserInfo storage user */\n      0x00\n        /* \"contracts/oatlocker.sol\":14697:14702  users */\n      0x03\n        /* \"contracts/oatlocker.sol\":14697:14713  users[_newOwner] */\n      0x00\n        /* \"contracts/oatlocker.sol\":14703:14712  _newOwner */\n      dup6\n        /* \"contracts/oatlocker.sol\":14697:14713  users[_newOwner] */\n      0xffffffffffffffffffffffffffffffffffffffff\n      and\n      0xffffffffffffffffffffffffffffffffffffffff\n      and\n      dup2\n      mstore\n      0x20\n      add\n      swap1\n      dup2\n      mstore\n      0x20\n      add\n      0x00\n      keccak256\n        /* \"contracts/oatlocker.sol\":14673:14713  UserInfo storage user = users[_newOwner] */\n      swap1\n      pop\n        /* \"contracts/oatlocker.sol\":14720:14751  user.lockedTokens.add(_lpToken) */\n      tag_354\n        /* \"contracts/oatlocker.sol\":14742:14750  _lpToken */\n      dup8\n        /* \"contracts/oatlocker.sol\":14720:14724  user */\n      dup3\n        /* \"contracts/oatlocker.sol\":14720:14737  user.lockedTokens */\n      0x00\n      add\n        /* \"contracts/oatlocker.sol\":14720:14741  user.lockedTokens.add */\n      tag_308\n      swap1\n        /* \"contracts/oatlocker.sol\":14720:14751  user.lockedTokens.add(_lpToken) */\n      swap2\n      swap1\n      0xffffffff\n      and\n      jump\t// in\n    tag_354:\n      pop\n        /* \"contracts/oatlocker.sol\":14758:14786  uint256[] storage user_locks */\n      0x00\n        /* \"contracts/oatlocker.sol\":14789:14793  user */\n      dup2\n        /* \"contracts/oatlocker.sol\":14789:14807  user.locksForToken */\n      0x02\n      add\n        /* \"contracts/oatlocker.sol\":14789:14817  user.locksForToken[_lpToken] */\n      0x00\n        /* \"contracts/oatlocker.sol\":14808:14816  _lpToken */\n      dup10\n        /* \"contracts/oatlocker.sol\":14789:14817  user.locksForToken[_lpToken] */\n      0xffffffffffffffffffffffffffffffffffffffff\n      and\n      0xffffffffffffffffffffffffffffffffffffffff\n      and\n      dup2\n      mstore\n      0x20\n      add\n      swap1\n      dup2\n      mstore\n      0x20\n      add\n      0x00\n      keccak256\n        /* \"contracts/oatlocker.sol\":14758:14817  uint256[] storage user_locks = user.locksForToken[_lpToken] */\n      swap1\n      pop\n        /* \"contracts/oatlocker.sol\":14824:14834  user_locks */\n      dup1\n        /* \"contracts/oatlocker.sol\":14840:14855  transferredLock */\n      dup4\n        /* \"contracts/oatlocker.sol\":14840:14862  transferredLock.lockID */\n      0x04\n      add\n      sload\n        /* \"contracts/oatlocker.sol\":14824:14863  user_locks.push(transferredLock.lockID) */\n      swap1\n      dup1\n      0x01\n      dup2\n      sload\n      add\n      dup1\n      dup3\n      sstore\n      dup1\n      swap2\n      pop\n      pop\n      0x01\n      swap1\n      sub\n      swap1\n      0x00\n      mstore\n      keccak256(0x00, 0x20)\n      add\n      0x00\n      swap1\n      swap2\n      swap1\n      swap2\n      swap1\n      swap2\n      pop\n      sstore\n        /* \"contracts/oatlocker.sol\":14919:14946  uint256[] storage userLocks */\n      0x00\n        /* \"contracts/oatlocker.sol\":14949:14954  users */\n      0x03\n        /* \"contracts/oatlocker.sol\":14949:14966  users[msg.sender] */\n      0x00\n        /* \"contracts/oatlocker.sol\":14955:14965  msg.sender */\n      caller\n        /* \"contracts/oatlocker.sol\":14949:14966  users[msg.sender] */\n      0xffffffffffffffffffffffffffffffffffffffff\n      and\n      0xffffffffffffffffffffffffffffffffffffffff\n      and\n      dup2\n      mstore\n      0x20\n      add\n      swap1\n      dup2\n      mstore\n      0x20\n      add\n      0x00\n      keccak256\n        /* \"contracts/oatlocker.sol\":14949:14980  users[msg.sender].locksForToken */\n      0x02\n      add\n        /* \"contracts/oatlocker.sol\":14949:14990  users[msg.sender].locksForToken[_lpToken] */\n      0x00\n        /* \"contracts/oatlocker.sol\":14981:14989  _lpToken */\n      dup11\n        /* \"contracts/oatlocker.sol\":14949:14990  users[msg.sender].locksForToken[_lpToken] */\n      0xffffffffffffffffffffffffffffffffffffffff\n      and\n      0xffffffffffffffffffffffffffffffffffffffff\n      and\n      dup2\n      mstore\n      0x20\n      add\n      swap1\n      dup2\n      mstore\n      0x20\n      add\n      0x00\n      keccak256\n        /* \"contracts/oatlocker.sol\":14919:14990  uint256[] storage userLocks = users[msg.sender].locksForToken[_lpToken] */\n      swap1\n      pop\n        /* \"contracts/oatlocker.sol\":15017:15026  userLocks */\n      dup1\n        /* \"contracts/oatlocker.sol\":15044:15045  1 */\n      0x01\n        /* \"contracts/oatlocker.sol\":15027:15036  userLocks */\n      dup3\n        /* \"contracts/oatlocker.sol\":15027:15043  userLocks.length */\n      dup1\n      sload\n      swap1\n      pop\n        /* \"contracts/oatlocker.sol\":15027:15045  userLocks.length-1 */\n      sub\n        /* \"contracts/oatlocker.sol\":15017:15046  userLocks[userLocks.length-1] */\n      dup2\n      sload\n      dup2\n      lt\n      tag_356\n      jumpi\n      invalid\n    tag_356:\n      swap1\n      0x00\n      mstore\n      keccak256(0x00, 0x20)\n      add\n      sload\n        /* \"contracts/oatlocker.sol\":14997:15006  userLocks */\n      dup2\n        /* \"contracts/oatlocker.sol\":15007:15013  _index */\n      dup10\n        /* \"contracts/oatlocker.sol\":14997:15014  userLocks[_index] */\n      dup2\n      sload\n      dup2\n      lt\n      tag_358\n      jumpi\n      invalid\n    tag_358:\n      swap1\n      0x00\n      mstore\n      keccak256(0x00, 0x20)\n      add\n        /* \"contracts/oatlocker.sol\":14997:15046  userLocks[_index] = userLocks[userLocks.length-1] */\n      dup2\n      swap1\n      sstore\n      pop\n        /* \"contracts/oatlocker.sol\":15053:15062  userLocks */\n      dup1\n        /* \"contracts/oatlocker.sol\":15053:15068  userLocks.pop() */\n      dup1\n      sload\n      dup1\n      tag_360\n      jumpi\n      invalid\n    tag_360:\n      0x01\n      swap1\n      sub\n      dup2\n      dup2\n      swap1\n      0x00\n      mstore\n      keccak256(0x00, 0x20)\n      add\n      0x00\n      swap1\n      sstore\n      swap1\n      sstore\n        /* \"contracts/oatlocker.sol\":15099:15100  0 */\n      0x00\n        /* \"contracts/oatlocker.sol\":15079:15088  userLocks */\n      dup2\n        /* \"contracts/oatlocker.sol\":15079:15095  userLocks.length */\n      dup1\n      sload\n      swap1\n      pop\n        /* \"contracts/oatlocker.sol\":15079:15100  userLocks.length == 0 */\n      eq\n        /* \"contracts/oatlocker.sol\":15075:15166  if (userLocks.length == 0) {\r... */\n      iszero\n      tag_362\n      jumpi\n        /* \"contracts/oatlocker.sol\":15111:15158  users[msg.sender].lockedTokens.remove(_lpToken) */\n      tag_363\n        /* \"contracts/oatlocker.sol\":15149:15157  _lpToken */\n      dup10\n        /* \"contracts/oatlocker.sol\":15111:15116  users */\n      0x03\n        /* \"contracts/oatlocker.sol\":15111:15128  users[msg.sender] */\n      0x00\n        /* \"contracts/oatlocker.sol\":15117:15127  msg.sender */\n      caller\n        /* \"contracts/oatlocker.sol\":15111:15128  users[msg.sender] */\n      0xffffffffffffffffffffffffffffffffffffffff\n      and\n      0xffffffffffffffffffffffffffffffffffffffff\n      and\n      dup2\n      mstore\n      0x20\n      add\n      swap1\n      dup2\n      mstore\n      0x20\n      add\n      0x00\n      keccak256\n        /* \"contracts/oatlocker.sol\":15111:15141  users[msg.sender].lockedTokens */\n      0x00\n      add\n        /* \"contracts/oatlocker.sol\":15111:15148  users[msg.sender].lockedTokens.remove */\n      tag_177\n      swap1\n        /* \"contracts/oatlocker.sol\":15111:15158  users[msg.sender].lockedTokens.remove(_lpToken) */\n      swap2\n      swap1\n      0xffffffff\n      and\n      jump\t// in\n    tag_363:\n      pop\n        /* \"contracts/oatlocker.sol\":15075:15166  if (userLocks.length == 0) {\r... */\n    tag_362:\n        /* \"contracts/oatlocker.sol\":15196:15205  _newOwner */\n      dup6\n        /* \"contracts/oatlocker.sol\":15172:15187  transferredLock */\n      dup5\n        /* \"contracts/oatlocker.sol\":15172:15193  transferredLock.owner */\n      0x05\n      add\n      0x00\n        /* \"contracts/oatlocker.sol\":15172:15205  transferredLock.owner = _newOwner */\n      0x0100\n      exp\n      dup2\n      sload\n      dup2\n      0xffffffffffffffffffffffffffffffffffffffff\n      mul\n      not\n      and\n      swap1\n      dup4\n      0xffffffffffffffffffffffffffffffffffffffff\n      and\n      mul\n      or\n      swap1\n      sstore\n      pop\n        /* \"contracts/oatlocker.sol\":14182:15211  function transferLockOwnership (address _lpToken, uint256 _index, uint256 _lockID, address payable _newOwner) external {\r... */\n      pop\n      pop\n      pop\n      pop\n      pop\n      pop\n      pop\n      pop\n      pop\n      jump\t// out\n        /* \"contracts/oatlocker.sol\":2083:2132  mapping(address => TokenLock[]) public tokenLocks */\n    tag_125:\n      mstore(0x20, 0x06)\n      dup2\n      0x00\n      mstore\n      keccak256(0x00, 0x40)\n      dup2\n      dup2\n      sload\n      dup2\n      lt\n      tag_364\n      jumpi\n      invalid\n    tag_364:\n      swap1\n      0x00\n      mstore\n      keccak256(0x00, 0x20)\n      swap1\n      0x06\n      mul\n      add\n      0x00\n      swap2\n      pop\n      swap2\n      pop\n      pop\n      dup1\n      0x00\n      add\n      sload\n      swap1\n      dup1\n      0x01\n      add\n      sload\n      swap1\n      dup1\n      0x02\n      add\n      sload\n      swap1\n      dup1\n      0x03\n      add\n      sload\n      swap1\n      dup1\n      0x04\n      add\n      sload\n      swap1\n      dup1\n      0x05\n      add\n      0x00\n      swap1\n      sload\n      swap1\n      0x0100\n      exp\n      swap1\n      div\n      0xffffffffffffffffffffffffffffffffffffffff\n      and\n      swap1\n      pop\n      dup7\n      jump\t// out\n        /* \"contracts/oatlocker.sol\":3532:3622  function setDev(address payable _devaddr) public onlyOwner {\r... */\n    tag_129:\n        /* \"contracts/Ownable.sol\":1473:1485  _msgSender() */\n      tag_367\n        /* \"contracts/Ownable.sol\":1473:1483  _msgSender */\n      tag_152\n        /* \"contracts/Ownable.sol\":1473:1485  _msgSender() */\n      jump\t// in\n    tag_367:\n        /* \"contracts/Ownable.sol\":1463:1485  _owner == _msgSender() */\n      0xffffffffffffffffffffffffffffffffffffffff\n      and\n        /* \"contracts/Ownable.sol\":1463:1469  _owner */\n      0x00\n      dup1\n      sload\n      swap1\n      0x0100\n      exp\n      swap1\n      div\n      0xffffffffffffffffffffffffffffffffffffffff\n      and\n        /* \"contracts/Ownable.sol\":1463:1485  _owner == _msgSender() */\n      0xffffffffffffffffffffffffffffffffffffffff\n      and\n      eq\n        /* \"contracts/Ownable.sol\":1455:1522  require(_owner == _msgSender(), \"Ownable: caller is not the owner\") */\n      tag_368\n      jumpi\n      mload(0x40)\n      0x08c379a000000000000000000000000000000000000000000000000000000000\n      dup2\n      mstore\n      0x04\n      add\n      dup1\n      dup1\n      0x20\n      add\n      dup3\n      dup2\n      sub\n      dup3\n      mstore\n      0x20\n      dup2\n      mstore\n      0x20\n      add\n      dup1\n      0x4f776e61626c653a2063616c6c6572206973206e6f7420746865206f776e6572\n      dup2\n      mstore\n      pop\n      0x20\n      add\n      swap2\n      pop\n      pop\n      mload(0x40)\n      dup1\n      swap2\n      sub\n      swap1\n      revert\n    tag_368:\n        /* \"contracts/oatlocker.sol\":3608:3616  _devaddr */\n      dup1\n        /* \"contracts/oatlocker.sol\":3598:3605  devaddr */\n      0x12\n      0x00\n        /* \"contracts/oatlocker.sol\":3598:3616  devaddr = _devaddr */\n      0x0100\n      exp\n      dup2\n      sload\n      dup2\n      0xffffffffffffffffffffffffffffffffffffffff\n      mul\n      not\n      and\n      swap1\n      dup4\n      0xffffffffffffffffffffffffffffffffffffffff\n      and\n      mul\n      or\n      swap1\n      sstore\n      pop\n        /* \"contracts/oatlocker.sol\":3532:3622  function setDev(address payable _devaddr) public onlyOwner {\r... */\n      pop\n      jump\t// out\n        /* \"contracts/oatlocker.sol\":17288:17728  function getUserLockForTokenAtIndex (address _user, address _lpToken, uint256 _index) external view \r... */\n    tag_133:\n        /* \"contracts/oatlocker.sol\":17401:17408  uint256 */\n      0x00\n        /* \"contracts/oatlocker.sol\":17410:17417  uint256 */\n      dup1\n        /* \"contracts/oatlocker.sol\":17419:17426  uint256 */\n      0x00\n        /* \"contracts/oatlocker.sol\":17428:17435  uint256 */\n      dup1\n        /* \"contracts/oatlocker.sol\":17437:17444  uint256 */\n      0x00\n        /* \"contracts/oatlocker.sol\":17446:17453  address */\n      dup1\n        /* \"contracts/oatlocker.sol\":17462:17476  uint256 lockID */\n      0x00\n        /* \"contracts/oatlocker.sol\":17479:17484  users */\n      0x03\n        /* \"contracts/oatlocker.sol\":17479:17491  users[_user] */\n      0x00\n        /* \"contracts/oatlocker.sol\":17485:17490  _user */\n      dup12\n        /* \"contracts/oatlocker.sol\":17479:17491  users[_user] */\n      0xffffffffffffffffffffffffffffffffffffffff\n      and\n      0xffffffffffffffffffffffffffffffffffffffff\n      and\n      dup2\n      mstore\n      0x20\n      add\n      swap1\n      dup2\n      mstore\n      0x20\n      add\n      0x00\n      keccak256\n        /* \"contracts/oatlocker.sol\":17479:17505  users[_user].locksForToken */\n      0x02\n      add\n        /* \"contracts/oatlocker.sol\":17479:17515  users[_user].locksForToken[_lpToken] */\n      0x00\n        /* \"contracts/oatlocker.sol\":17506:17514  _lpToken */\n      dup11\n        /* \"contracts/oatlocker.sol\":17479:17515  users[_user].locksForToken[_lpToken] */\n      0xffffffffffffffffffffffffffffffffffffffff\n      and\n      0xffffffffffffffffffffffffffffffffffffffff\n      and\n      dup2\n      mstore\n      0x20\n      add\n      swap1\n      dup2\n      mstore\n      0x20\n      add\n      0x00\n      keccak256\n        /* \"contracts/oatlocker.sol\":17516:17522  _index */\n      dup9\n        /* \"contracts/oatlocker.sol\":17479:17523  users[_user].locksForToken[_lpToken][_index] */\n      dup2\n      sload\n      dup2\n      lt\n      tag_371\n      jumpi\n      invalid\n    tag_371:\n      swap1\n      0x00\n      mstore\n      keccak256(0x00, 0x20)\n      add\n      sload\n        /* \"contracts/oatlocker.sol\":17462:17523  uint256 lockID = users[_user].locksForToken[_lpToken][_index] */\n      swap1\n      pop\n        /* \"contracts/oatlocker.sol\":17530:17557  TokenLock storage tokenLock */\n      0x00\n        /* \"contracts/oatlocker.sol\":17560:17570  tokenLocks */\n      0x06\n        /* \"contracts/oatlocker.sol\":17560:17580  tokenLocks[_lpToken] */\n      0x00\n        /* \"contracts/oatlocker.sol\":17571:17579  _lpToken */\n      dup12\n        /* \"contracts/oatlocker.sol\":17560:17580  tokenLocks[_lpToken] */\n      0xffffffffffffffffffffffffffffffffffffffff\n      and\n      0xffffffffffffffffffffffffffffffffffffffff\n      and\n      dup2\n      mstore\n      0x20\n      add\n      swap1\n      dup2\n      mstore\n      0x20\n      add\n      0x00\n      keccak256\n        /* \"contracts/oatlocker.sol\":17581:17587  lockID */\n      dup3\n        /* \"contracts/oatlocker.sol\":17560:17588  tokenLocks[_lpToken][lockID] */\n      dup2\n      sload\n      dup2\n      lt\n      tag_373\n      jumpi\n      invalid\n    tag_373:\n      swap1\n      0x00\n      mstore\n      keccak256(0x00, 0x20)\n      swap1\n      0x06\n      mul\n      add\n        /* \"contracts/oatlocker.sol\":17530:17588  TokenLock storage tokenLock = tokenLocks[_lpToken][lockID] */\n      swap1\n      pop\n        /* \"contracts/oatlocker.sol\":17603:17612  tokenLock */\n      dup1\n        /* \"contracts/oatlocker.sol\":17603:17621  tokenLock.lockDate */\n      0x00\n      add\n      sload\n        /* \"contracts/oatlocker.sol\":17623:17632  tokenLock */\n      dup2\n        /* \"contracts/oatlocker.sol\":17623:17639  tokenLock.amount */\n      0x01\n      add\n      sload\n        /* \"contracts/oatlocker.sol\":17641:17650  tokenLock */\n      dup3\n        /* \"contracts/oatlocker.sol\":17641:17664  tokenLock.initialAmount */\n      0x02\n      add\n      sload\n        /* \"contracts/oatlocker.sol\":17666:17675  tokenLock */\n      dup4\n        /* \"contracts/oatlocker.sol\":17666:17686  tokenLock.unlockDate */\n      0x03\n      add\n      sload\n        /* \"contracts/oatlocker.sol\":17688:17697  tokenLock */\n      dup5\n        /* \"contracts/oatlocker.sol\":17688:17704  tokenLock.lockID */\n      0x04\n      add\n      sload\n        /* \"contracts/oatlocker.sol\":17706:17715  tokenLock */\n      dup6\n        /* \"contracts/oatlocker.sol\":17706:17721  tokenLock.owner */\n      0x05\n      add\n      0x00\n      swap1\n      sload\n      swap1\n      0x0100\n      exp\n      swap1\n      div\n      0xffffffffffffffffffffffffffffffffffffffff\n      and\n        /* \"contracts/oatlocker.sol\":17595:17722  return (tokenLock.lockDate, tokenLock.amount, tokenLock.initialAmount, tokenLock.unlockDate, tokenLock.lockID, tokenLock.owner) */\n      swap8\n      pop\n      swap8\n      pop\n      swap8\n      pop\n      swap8\n      pop\n      swap8\n      pop\n      swap8\n      pop\n      pop\n      pop\n        /* \"contracts/oatlocker.sol\":17288:17728  function getUserLockForTokenAtIndex (address _user, address _lpToken, uint256 _index) external view \r... */\n      swap4\n      swap8\n      pop\n      swap4\n      swap8\n      swap2\n      swap6\n      pop\n      swap4\n      pop\n      jump\t// out\n        /* \"contracts/oatlocker.sol\":15280:16301  function migrate (address _lpToken, uint256 _index, uint256 _lockID, uint256 _amount) external nonReentrant {\r... */\n    tag_137:\n        /* \"contracts/ReentrancyGuard.sol\":1867:1868  2 */\n      0x02\n        /* \"contracts/ReentrancyGuard.sol\":2473:2480  _status */\n      sload(0x01)\n        /* \"contracts/ReentrancyGuard.sol\":2473:2492  _status != _ENTERED */\n      eq\n      iszero\n        /* \"contracts/ReentrancyGuard.sol\":2465:2528  require(_status != _ENTERED, \"ReentrancyGuard: reentrant call\") */\n      tag_376\n      jumpi\n      mload(0x40)\n      0x08c379a000000000000000000000000000000000000000000000000000000000\n      dup2\n      mstore\n      0x04\n      add\n      dup1\n      dup1\n      0x20\n      add\n      dup3\n      dup2\n      sub\n      dup3\n      mstore\n      0x1f\n      dup2\n      mstore\n      0x20\n      add\n      dup1\n      0x5265656e7472616e637947756172643a207265656e7472616e742063616c6c00\n      dup2\n      mstore\n      pop\n      0x20\n      add\n      swap2\n      pop\n      pop\n      mload(0x40)\n      dup1\n      swap2\n      sub\n      swap1\n      revert\n    tag_376:\n        /* \"contracts/ReentrancyGuard.sol\":1867:1868  2 */\n      0x02\n        /* \"contracts/ReentrancyGuard.sol\":2606:2613  _status */\n      0x01\n        /* \"contracts/ReentrancyGuard.sol\":2606:2624  _status = _ENTERED */\n      dup2\n      swap1\n      sstore\n      pop\n        /* \"contracts/oatlocker.sol\":15432:15433  0 */\n      0x00\n        /* \"contracts/oatlocker.sol\":15403:15434  address(migrator) != address(0) */\n      0xffffffffffffffffffffffffffffffffffffffff\n      and\n        /* \"contracts/oatlocker.sol\":15411:15419  migrator */\n      0x13\n      0x00\n      swap1\n      sload\n      swap1\n      0x0100\n      exp\n      swap1\n      div\n      0xffffffffffffffffffffffffffffffffffffffff\n      and\n        /* \"contracts/oatlocker.sol\":15403:15434  address(migrator) != address(0) */\n      0xffffffffffffffffffffffffffffffffffffffff\n      and\n      eq\n      iszero\n        /* \"contracts/oatlocker.sol\":15395:15446  require(address(migrator) != address(0), \"NOT SET\") */\n      tag_378\n      jumpi\n      mload(0x40)\n      0x08c379a000000000000000000000000000000000000000000000000000000000\n      dup2\n      mstore\n      0x04\n      add\n      dup1\n      dup1\n      0x20\n      add\n      dup3\n      dup2\n      sub\n      dup3\n      mstore\n      0x07\n      dup2\n      mstore\n      0x20\n      add\n      dup1\n      0x4e4f542053455400000000000000000000000000000000000000000000000000\n      dup2\n      mstore\n      pop\n      0x20\n      add\n      swap2\n      pop\n      pop\n      mload(0x40)\n      dup1\n      swap2\n      sub\n      swap1\n      revert\n    tag_378:\n        /* \"contracts/oatlocker.sol\":15471:15472  0 */\n      0x00\n        /* \"contracts/oatlocker.sol\":15461:15468  _amount */\n      dup2\n        /* \"contracts/oatlocker.sol\":15461:15472  _amount > 0 */\n      gt\n        /* \"contracts/oatlocker.sol\":15453:15491  require(_amount > 0, 'ZERO MIGRATION') */\n      tag_379\n      jumpi\n      mload(0x40)\n      0x08c379a000000000000000000000000000000000000000000000000000000000\n      dup2\n      mstore\n      0x04\n      add\n      dup1\n      dup1\n      0x20\n      add\n      dup3\n      dup2\n      sub\n      dup3\n      mstore\n      0x0e\n      dup2\n      mstore\n      0x20\n      add\n      dup1\n      0x5a45524f204d4947524154494f4e000000000000000000000000000000000000\n      dup2\n      mstore\n      pop\n      0x20\n      add\n      swap2\n      pop\n      pop\n      mload(0x40)\n      dup1\n      swap2\n      sub\n      swap1\n      revert\n    tag_379:\n        /* \"contracts/oatlocker.sol\":15504:15518  uint256 lockID */\n      0x00\n        /* \"contracts/oatlocker.sol\":15521:15526  users */\n      0x03\n        /* \"contracts/oatlocker.sol\":15521:15538  users[msg.sender] */\n      0x00\n        /* \"contracts/oatlocker.sol\":15527:15537  msg.sender */\n      caller\n        /* \"contracts/oatlocker.sol\":15521:15538  users[msg.sender] */\n      0xffffffffffffffffffffffffffffffffffffffff\n      and\n      0xffffffffffffffffffffffffffffffffffffffff\n      and\n      dup2\n      mstore\n      0x20\n      add\n      swap1\n      dup2\n      mstore\n      0x20\n      add\n      0x00\n      keccak256\n        /* \"contracts/oatlocker.sol\":15521:15552  users[msg.sender].locksForToken */\n      0x02\n      add\n        /* \"contracts/oatlocker.sol\":15521:15562  users[msg.sender].locksForToken[_lpToken] */\n      0x00\n        /* \"contracts/oatlocker.sol\":15553:15561  _lpToken */\n      dup7\n        /* \"contracts/oatlocker.sol\":15521:15562  users[msg.sender].locksForToken[_lpToken] */\n      0xffffffffffffffffffffffffffffffffffffffff\n      and\n      0xffffffffffffffffffffffffffffffffffffffff\n      and\n      dup2\n      mstore\n      0x20\n      add\n      swap1\n      dup2\n      mstore\n      0x20\n      add\n      0x00\n      keccak256\n        /* \"contracts/oatlocker.sol\":15563:15569  _index */\n      dup5\n        /* \"contracts/oatlocker.sol\":15521:15570  users[msg.sender].locksForToken[_lpToken][_index] */\n      dup2\n      sload\n      dup2\n      lt\n      tag_380\n      jumpi\n      invalid\n    tag_380:\n      swap1\n      0x00\n      mstore\n      keccak256(0x00, 0x20)\n      add\n      sload\n        /* \"contracts/oatlocker.sol\":15504:15570  uint256 lockID = users[msg.sender].locksForToken[_lpToken][_index] */\n      swap1\n      pop\n        /* \"contracts/oatlocker.sol\":15577:15603  TokenLock storage userLock */\n      0x00\n        /* \"contracts/oatlocker.sol\":15606:15616  tokenLocks */\n      0x06\n        /* \"contracts/oatlocker.sol\":15606:15626  tokenLocks[_lpToken] */\n      0x00\n        /* \"contracts/oatlocker.sol\":15617:15625  _lpToken */\n      dup8\n        /* \"contracts/oatlocker.sol\":15606:15626  tokenLocks[_lpToken] */\n      0xffffffffffffffffffffffffffffffffffffffff\n      and\n      0xffffffffffffffffffffffffffffffffffffffff\n      and\n      dup2\n      mstore\n      0x20\n      add\n      swap1\n      dup2\n      mstore\n      0x20\n      add\n      0x00\n      keccak256\n        /* \"contracts/oatlocker.sol\":15627:15633  lockID */\n      dup3\n        /* \"contracts/oatlocker.sol\":15606:15634  tokenLocks[_lpToken][lockID] */\n      dup2\n      sload\n      dup2\n      lt\n      tag_382\n      jumpi\n      invalid\n    tag_382:\n      swap1\n      0x00\n      mstore\n      keccak256(0x00, 0x20)\n      swap1\n      0x06\n      mul\n      add\n        /* \"contracts/oatlocker.sol\":15577:15634  TokenLock storage userLock = tokenLocks[_lpToken][lockID] */\n      swap1\n      pop\n        /* \"contracts/oatlocker.sol\":15659:15666  _lockID */\n      dup4\n        /* \"contracts/oatlocker.sol\":15649:15655  lockID */\n      dup3\n        /* \"contracts/oatlocker.sol\":15649:15666  lockID == _lockID */\n      eq\n        /* \"contracts/oatlocker.sol\":15649:15698  lockID == _lockID && userLock.owner == msg.sender */\n      dup1\n      iszero\n      tag_384\n      jumpi\n      pop\n        /* \"contracts/oatlocker.sol\":15688:15698  msg.sender */\n      caller\n        /* \"contracts/oatlocker.sol\":15670:15698  userLock.owner == msg.sender */\n      0xffffffffffffffffffffffffffffffffffffffff\n      and\n        /* \"contracts/oatlocker.sol\":15670:15678  userLock */\n      dup2\n        /* \"contracts/oatlocker.sol\":15670:15684  userLock.owner */\n      0x05\n      add\n      0x00\n      swap1\n      sload\n      swap1\n      0x0100\n      exp\n      swap1\n      div\n      0xffffffffffffffffffffffffffffffffffffffff\n      and\n        /* \"contracts/oatlocker.sol\":15670:15698  userLock.owner == msg.sender */\n      0xffffffffffffffffffffffffffffffffffffffff\n      and\n      eq\n        /* \"contracts/oatlocker.sol\":15649:15698  lockID == _lockID && userLock.owner == msg.sender */\n    tag_384:\n        /* \"contracts/oatlocker.sol\":15641:15716  require(lockID == _lockID && userLock.owner == msg.sender, 'LOCK MISMATCH') */\n      tag_385\n      jumpi\n      mload(0x40)\n      0x08c379a000000000000000000000000000000000000000000000000000000000\n      dup2\n      mstore\n      0x04\n      add\n      dup1\n      dup1\n      0x20\n      add\n      dup3\n      dup2\n      sub\n      dup3\n      mstore\n      0x0d\n      dup2\n      mstore\n      0x20\n      add\n      dup1\n      0x4c4f434b204d49534d4154434800000000000000000000000000000000000000\n      dup2\n      mstore\n      pop\n      0x20\n      add\n      swap2\n      pop\n      pop\n      mload(0x40)\n      dup1\n      swap2\n      sub\n      swap1\n      revert\n    tag_385:\n        /* \"contracts/oatlocker.sol\":15777:15805  userLock.amount.sub(_amount) */\n      tag_386\n        /* \"contracts/oatlocker.sol\":15797:15804  _amount */\n      dup4\n        /* \"contracts/oatlocker.sol\":15777:15785  userLock */\n      dup3\n        /* \"contracts/oatlocker.sol\":15777:15792  userLock.amount */\n      0x01\n      add\n      sload\n        /* \"contracts/oatlocker.sol\":15777:15796  userLock.amount.sub */\n      tag_167\n      swap1\n        /* \"contracts/oatlocker.sol\":15777:15805  userLock.amount.sub(_amount) */\n      swap2\n      swap1\n      0xffffffff\n      and\n      jump\t// in\n    tag_386:\n        /* \"contracts/oatlocker.sol\":15759:15767  userLock */\n      dup2\n        /* \"contracts/oatlocker.sol\":15759:15774  userLock.amount */\n      0x01\n      add\n        /* \"contracts/oatlocker.sol\":15759:15805  userLock.amount = userLock.amount.sub(_amount) */\n      dup2\n      swap1\n      sstore\n      pop\n        /* \"contracts/oatlocker.sol\":15868:15869  0 */\n      0x00\n        /* \"contracts/oatlocker.sol\":15849:15857  userLock */\n      dup2\n        /* \"contracts/oatlocker.sol\":15849:15864  userLock.amount */\n      0x01\n      add\n      sload\n        /* \"contracts/oatlocker.sol\":15849:15869  userLock.amount == 0 */\n      eq\n        /* \"contracts/oatlocker.sol\":15845:16144  if (userLock.amount == 0) {\r... */\n      iszero\n      tag_387\n      jumpi\n        /* \"contracts/oatlocker.sol\":15880:15907  uint256[] storage userLocks */\n      0x00\n        /* \"contracts/oatlocker.sol\":15910:15915  users */\n      0x03\n        /* \"contracts/oatlocker.sol\":15910:15927  users[msg.sender] */\n      0x00\n        /* \"contracts/oatlocker.sol\":15916:15926  msg.sender */\n      caller\n        /* \"contracts/oatlocker.sol\":15910:15927  users[msg.sender] */\n      0xffffffffffffffffffffffffffffffffffffffff\n      and\n      0xffffffffffffffffffffffffffffffffffffffff\n      and\n      dup2\n      mstore\n      0x20\n      add\n      swap1\n      dup2\n      mstore\n      0x20\n      add\n      0x00\n      keccak256\n        /* \"contracts/oatlocker.sol\":15910:15941  users[msg.sender].locksForToken */\n      0x02\n      add\n        /* \"contracts/oatlocker.sol\":15910:15951  users[msg.sender].locksForToken[_lpToken] */\n      0x00\n        /* \"contracts/oatlocker.sol\":15942:15950  _lpToken */\n      dup9\n        /* \"contracts/oatlocker.sol\":15910:15951  users[msg.sender].locksForToken[_lpToken] */\n      0xffffffffffffffffffffffffffffffffffffffff\n      and\n      0xffffffffffffffffffffffffffffffffffffffff\n      and\n      dup2\n      mstore\n      0x20\n      add\n      swap1\n      dup2\n      mstore\n      0x20\n      add\n      0x00\n      keccak256\n        /* \"contracts/oatlocker.sol\":15880:15951  uint256[] storage userLocks = users[msg.sender].locksForToken[_lpToken] */\n      swap1\n      pop\n        /* \"contracts/oatlocker.sol\":15980:15989  userLocks */\n      dup1\n        /* \"contracts/oatlocker.sol\":16007:16008  1 */\n      0x01\n        /* \"contracts/oatlocker.sol\":15990:15999  userLocks */\n      dup3\n        /* \"contracts/oatlocker.sol\":15990:16006  userLocks.length */\n      dup1\n      sload\n      swap1\n      pop\n        /* \"contracts/oatlocker.sol\":15990:16008  userLocks.length-1 */\n      sub\n        /* \"contracts/oatlocker.sol\":15980:16009  userLocks[userLocks.length-1] */\n      dup2\n      sload\n      dup2\n      lt\n      tag_388\n      jumpi\n      invalid\n    tag_388:\n      swap1\n      0x00\n      mstore\n      keccak256(0x00, 0x20)\n      add\n      sload\n        /* \"contracts/oatlocker.sol\":15960:15969  userLocks */\n      dup2\n        /* \"contracts/oatlocker.sol\":15970:15976  _index */\n      dup8\n        /* \"contracts/oatlocker.sol\":15960:15977  userLocks[_index] */\n      dup2\n      sload\n      dup2\n      lt\n      tag_390\n      jumpi\n      invalid\n    tag_390:\n      swap1\n      0x00\n      mstore\n      keccak256(0x00, 0x20)\n      add\n        /* \"contracts/oatlocker.sol\":15960:16009  userLocks[_index] = userLocks[userLocks.length-1] */\n      dup2\n      swap1\n      sstore\n      pop\n        /* \"contracts/oatlocker.sol\":16018:16027  userLocks */\n      dup1\n        /* \"contracts/oatlocker.sol\":16018:16033  userLocks.pop() */\n      dup1\n      sload\n      dup1\n      tag_392\n      jumpi\n      invalid\n    tag_392:\n      0x01\n      swap1\n      sub\n      dup2\n      dup2\n      swap1\n      0x00\n      mstore\n      keccak256(0x00, 0x20)\n      add\n      0x00\n      swap1\n      sstore\n      swap1\n      sstore\n        /* \"contracts/oatlocker.sol\":16066:16067  0 */\n      0x00\n        /* \"contracts/oatlocker.sol\":16046:16055  userLocks */\n      dup2\n        /* \"contracts/oatlocker.sol\":16046:16062  userLocks.length */\n      dup1\n      sload\n      swap1\n      pop\n        /* \"contracts/oatlocker.sol\":16046:16067  userLocks.length == 0 */\n      eq\n        /* \"contracts/oatlocker.sol\":16042:16137  if (userLocks.length == 0) {\r... */\n      iszero\n      tag_394\n      jumpi\n        /* \"contracts/oatlocker.sol\":16080:16127  users[msg.sender].lockedTokens.remove(_lpToken) */\n      tag_395\n        /* \"contracts/oatlocker.sol\":16118:16126  _lpToken */\n      dup8\n        /* \"contracts/oatlocker.sol\":16080:16085  users */\n      0x03\n        /* \"contracts/oatlocker.sol\":16080:16097  users[msg.sender] */\n      0x00\n        /* \"contracts/oatlocker.sol\":16086:16096  msg.sender */\n      caller\n        /* \"contracts/oatlocker.sol\":16080:16097  users[msg.sender] */\n      0xffffffffffffffffffffffffffffffffffffffff\n      and\n      0xffffffffffffffffffffffffffffffffffffffff\n      and\n      dup2\n      mstore\n      0x20\n      add\n      swap1\n      dup2\n      mstore\n      0x20\n      add\n      0x00\n      keccak256\n        /* \"contracts/oatlocker.sol\":16080:16110  users[msg.sender].lockedTokens */\n      0x00\n      add\n        /* \"contracts/oatlocker.sol\":16080:16117  users[msg.sender].lockedTokens.remove */\n      tag_177\n      swap1\n        /* \"contracts/oatlocker.sol\":16080:16127  users[msg.sender].lockedTokens.remove(_lpToken) */\n      swap2\n      swap1\n      0xffffffff\n      and\n      jump\t// in\n    tag_395:\n      pop\n        /* \"contracts/oatlocker.sol\":16042:16137  if (userLocks.length == 0) {\r... */\n    tag_394:\n        /* \"contracts/oatlocker.sol\":15845:16144  if (userLock.amount == 0) {\r... */\n      pop\n    tag_387:\n        /* \"contracts/oatlocker.sol\":16156:16220  TransferHelper.safeApprove(_lpToken, address(migrator), _amount) */\n      tag_396\n        /* \"contracts/oatlocker.sol\":16183:16191  _lpToken */\n      dup7\n        /* \"contracts/oatlocker.sol\":16201:16209  migrator */\n      0x13\n      0x00\n      swap1\n      sload\n      swap1\n      0x0100\n      exp\n      swap1\n      div\n      0xffffffffffffffffffffffffffffffffffffffff\n      and\n        /* \"contracts/oatlocker.sol\":16212:16219  _amount */\n      dup6\n        /* \"contracts/oatlocker.sol\":16156:16182  TransferHelper.safeApprove */\n      tag_286\n        /* \"contracts/oatlocker.sol\":16156:16220  TransferHelper.safeApprove(_lpToken, address(migrator), _amount) */\n      jump\t// in\n    tag_396:\n        /* \"contracts/oatlocker.sol\":16227:16235  migrator */\n      0x13\n      0x00\n      swap1\n      sload\n      swap1\n      0x0100\n      exp\n      swap1\n      div\n      0xffffffffffffffffffffffffffffffffffffffff\n      and\n        /* \"contracts/oatlocker.sol\":16227:16243  migrator.migrate */\n      0xffffffffffffffffffffffffffffffffffffffff\n      and\n      0xdb5ecd3f\n        /* \"contracts/oatlocker.sol\":16244:16252  _lpToken */\n      dup8\n        /* \"contracts/oatlocker.sol\":16254:16261  _amount */\n      dup6\n        /* \"contracts/oatlocker.sol\":16263:16271  userLock */\n      dup5\n        /* \"contracts/oatlocker.sol\":16263:16282  userLock.unlockDate */\n      0x03\n      add\n      sload\n        /* \"contracts/oatlocker.sol\":16284:16294  msg.sender */\n      caller\n        /* \"contracts/oatlocker.sol\":16227:16295  migrator.migrate(_lpToken, _amount, userLock.unlockDate, msg.sender) */\n      mload(0x40)\n      dup6\n      0xffffffff\n      and\n      0xe0\n      shl\n      dup2\n      mstore\n      0x04\n      add\n      dup1\n      dup6\n      0xffffffffffffffffffffffffffffffffffffffff\n      and\n      dup2\n      mstore\n      0x20\n      add\n      dup5\n      dup2\n      mstore\n      0x20\n      add\n      dup4\n      dup2\n      mstore\n      0x20\n      add\n      dup3\n      0xffffffffffffffffffffffffffffffffffffffff\n      and\n      dup2\n      mstore\n      0x20\n      add\n      swap5\n      pop\n      pop\n      pop\n      pop\n      pop\n      0x20\n      mload(0x40)\n      dup1\n      dup4\n      sub\n      dup2\n      0x00\n      dup8\n      dup1\n      extcodesize\n      iszero\n      dup1\n      iszero\n      tag_397\n      jumpi\n      0x00\n      dup1\n      revert\n    tag_397:\n      pop\n      gas\n      call\n      iszero\n      dup1\n      iszero\n      tag_399\n      jumpi\n      returndatasize\n      0x00\n      dup1\n      returndatacopy\n      revert(0x00, returndatasize)\n    tag_399:\n      pop\n      pop\n      pop\n      pop\n      mload(0x40)\n      returndatasize\n      0x20\n      dup2\n      lt\n      iszero\n      tag_400\n      jumpi\n      0x00\n      dup1\n      revert\n    tag_400:\n      dup2\n      add\n      swap1\n      dup1\n      dup1\n      mload\n      swap1\n      0x20\n      add\n      swap1\n      swap3\n      swap2\n      swap1\n      pop\n      pop\n      pop\n      pop\n        /* \"contracts/ReentrancyGuard.sol\":2637:2638  _ */\n      pop\n      pop\n        /* \"contracts/ReentrancyGuard.sol\":1823:1824  1 */\n      0x01\n        /* \"contracts/ReentrancyGuard.sol\":2785:2792  _status */\n      dup1\n        /* \"contracts/ReentrancyGuard.sol\":2785:2807  _status = _NOT_ENTERED */\n      dup2\n      swap1\n      sstore\n      pop\n        /* \"contracts/oatlocker.sol\":15280:16301  function migrate (address _lpToken, uint256 _index, uint256 _lockID, uint256 _amount) external nonReentrant {\r... */\n      pop\n      pop\n      pop\n      pop\n      jump\t// out\n        /* \"contracts/oatlocker.sol\":4113:4285  function setReferralTokenAndHold(IERCBurn _referralToken, uint256 _hold) public onlyOwner {\r... */\n    tag_141:\n        /* \"contracts/Ownable.sol\":1473:1485  _msgSender() */\n      tag_402\n        /* \"contracts/Ownable.sol\":1473:1483  _msgSender */\n      tag_152\n        /* \"contracts/Ownable.sol\":1473:1485  _msgSender() */\n      jump\t// in\n    tag_402:\n        /* \"contracts/Ownable.sol\":1463:1485  _owner == _msgSender() */\n      0xffffffffffffffffffffffffffffffffffffffff\n      and\n        /* \"contracts/Ownable.sol\":1463:1469  _owner */\n      0x00\n      dup1\n      sload\n      swap1\n      0x0100\n      exp\n      swap1\n      div\n      0xffffffffffffffffffffffffffffffffffffffff\n      and\n        /* \"contracts/Ownable.sol\":1463:1485  _owner == _msgSender() */\n      0xffffffffffffffffffffffffffffffffffffffff\n      and\n      eq\n        /* \"contracts/Ownable.sol\":1455:1522  require(_owner == _msgSender(), \"Ownable: caller is not the owner\") */\n      tag_403\n      jumpi\n      mload(0x40)\n      0x08c379a000000000000000000000000000000000000000000000000000000000\n      dup2\n      mstore\n      0x04\n      add\n      dup1\n      dup1\n      0x20\n      add\n      dup3\n      dup2\n      sub\n      dup3\n      mstore\n      0x20\n      dup2\n      mstore\n      0x20\n      add\n      dup1\n      0x4f776e61626c653a2063616c6c6572206973206e6f7420746865206f776e6572\n      dup2\n      mstore\n      pop\n      0x20\n      add\n      swap2\n      pop\n      pop\n      mload(0x40)\n      dup1\n      swap2\n      sub\n      swap1\n      revert\n    tag_403:\n        /* \"contracts/oatlocker.sol\":4232:4246  _referralToken */\n      dup2\n        /* \"contracts/oatlocker.sol\":4210:4215  gFees */\n      0x07\n        /* \"contracts/oatlocker.sol\":4210:4229  gFees.referralToken */\n      0x06\n      add\n      0x00\n        /* \"contracts/oatlocker.sol\":4210:4246  gFees.referralToken = _referralToken */\n      0x0100\n      exp\n      dup2\n      sload\n      dup2\n      0xffffffffffffffffffffffffffffffffffffffff\n      mul\n      not\n      and\n      swap1\n      dup4\n      0xffffffffffffffffffffffffffffffffffffffff\n      and\n      mul\n      or\n      swap1\n      sstore\n      pop\n        /* \"contracts/oatlocker.sol\":4274:4279  _hold */\n      dup1\n        /* \"contracts/oatlocker.sol\":4253:4258  gFees */\n      0x07\n        /* \"contracts/oatlocker.sol\":4253:4271  gFees.referralHold */\n      dup1\n      add\n        /* \"contracts/oatlocker.sol\":4253:4279  gFees.referralHold = _hold */\n      dup2\n      swap1\n      sstore\n      pop\n        /* \"contracts/oatlocker.sol\":4113:4285  function setReferralTokenAndHold(IERCBurn _referralToken, uint256 _hold) public onlyOwner {\r... */\n      pop\n      pop\n      jump\t// out\n        /* \"contracts/Ownable.sol\":2196:2440  function transferOwnership(address newOwner) public virtual onlyOwner {\r... */\n    tag_145:\n        /* \"contracts/Ownable.sol\":1473:1485  _msgSender() */\n      tag_406\n        /* \"contracts/Ownable.sol\":1473:1483  _msgSender */\n      tag_152\n        /* \"contracts/Ownable.sol\":1473:1485  _msgSender() */\n      jump\t// in\n    tag_406:\n        /* \"contracts/Ownable.sol\":1463:1485  _owner == _msgSender() */\n      0xffffffffffffffffffffffffffffffffffffffff\n      and\n        /* \"contracts/Ownable.sol\":1463:1469  _owner */\n      0x00\n      dup1\n      sload\n      swap1\n      0x0100\n      exp\n      swap1\n      div\n      0xffffffffffffffffffffffffffffffffffffffff\n      and\n        /* \"contracts/Ownable.sol\":1463:1485  _owner == _msgSender() */\n      0xffffffffffffffffffffffffffffffffffffffff\n      and\n      eq\n        /* \"contracts/Ownable.sol\":1455:1522  require(_owner == _msgSender(), \"Ownable: caller is not the owner\") */\n      tag_407\n      jumpi\n      mload(0x40)\n      0x08c379a000000000000000000000000000000000000000000000000000000000\n      dup2\n      mstore\n      0x04\n      add\n      dup1\n      dup1\n      0x20\n      add\n      dup3\n      dup2\n      sub\n      dup3\n      mstore\n      0x20\n      dup2\n      mstore\n      0x20\n      add\n      dup1\n      0x4f776e61626c653a2063616c6c6572206973206e6f7420746865206f776e6572\n      dup2\n      mstore\n      pop\n      0x20\n      add\n      swap2\n      pop\n      pop\n      mload(0x40)\n      dup1\n      swap2\n      sub\n      swap1\n      revert\n    tag_407:\n        /* \"contracts/Ownable.sol\":2305:2306  0 */\n      0x00\n        /* \"contracts/Ownable.sol\":2285:2307  newOwner != address(0) */\n      0xffffffffffffffffffffffffffffffffffffffff\n      and\n        /* \"contracts/Ownable.sol\":2285:2293  newOwner */\n      dup2\n        /* \"contracts/Ownable.sol\":2285:2307  newOwner != address(0) */\n      0xffffffffffffffffffffffffffffffffffffffff\n      and\n      eq\n      iszero\n        /* \"contracts/Ownable.sol\":2277:2350  require(newOwner != address(0), \"Ownable: new owner is the zero address\") */\n      tag_409\n      jumpi\n      mload(0x40)\n      0x08c379a000000000000000000000000000000000000000000000000000000000\n      dup2\n      mstore\n      0x04\n      add\n      dup1\n      dup1\n      0x20\n      add\n      dup3\n      dup2\n      sub\n      dup3\n      mstore\n      0x26\n      dup2\n      mstore\n      0x20\n      add\n      dup1\n      data_245f15ff17f551913a7a18385165551503906a406f905ac1c2437281a7cd0cfe\n      0x26\n      swap2\n      codecopy\n      0x40\n      add\n      swap2\n      pop\n      pop\n      mload(0x40)\n      dup1\n      swap2\n      sub\n      swap1\n      revert\n    tag_409:\n        /* \"contracts/Ownable.sol\":2395:2403  newOwner */\n      dup1\n        /* \"contracts/Ownable.sol\":2366:2404  OwnershipTransferred(_owner, newOwner) */\n      0xffffffffffffffffffffffffffffffffffffffff\n      and\n        /* \"contracts/Ownable.sol\":2387:2393  _owner */\n      0x00\n      dup1\n      sload\n      swap1\n      0x0100\n      exp\n      swap1\n      div\n      0xffffffffffffffffffffffffffffffffffffffff\n      and\n        /* \"contracts/Ownable.sol\":2366:2404  OwnershipTransferred(_owner, newOwner) */\n      0xffffffffffffffffffffffffffffffffffffffff\n      and\n      0x8be0079c531659141344cd1fd0a4f28419497f9722a3daafe3b4186f6b6457e0\n      mload(0x40)\n      mload(0x40)\n      dup1\n      swap2\n      sub\n      swap1\n      log3\n        /* \"contracts/Ownable.sol\":2424:2432  newOwner */\n      dup1\n        /* \"contracts/Ownable.sol\":2415:2421  _owner */\n      0x00\n      dup1\n        /* \"contracts/Ownable.sol\":2415:2432  _owner = newOwner */\n      0x0100\n      exp\n      dup2\n      sload\n      dup2\n      0xffffffffffffffffffffffffffffffffffffffff\n      mul\n      not\n      and\n      swap1\n      dup4\n      0xffffffffffffffffffffffffffffffffffffffff\n      and\n      mul\n      or\n      swap1\n      sstore\n      pop\n        /* \"contracts/Ownable.sol\":2196:2440  function transferOwnership(address newOwner) public virtual onlyOwner {\r... */\n      pop\n      jump\t// out\n        /* \"contracts/EnumerableSet.sol\":8032:8181  function at(AddressSet storage set, uint256 index) internal view returns (address) {\r... */\n    tag_148:\n        /* \"contracts/EnumerableSet.sol\":8106:8113  address */\n      0x00\n        /* \"contracts/EnumerableSet.sol\":8149:8171  _at(set._inner, index) */\n      tag_411\n        /* \"contracts/EnumerableSet.sol\":8153:8156  set */\n      dup4\n        /* \"contracts/EnumerableSet.sol\":8153:8163  set._inner */\n      0x00\n      add\n        /* \"contracts/EnumerableSet.sol\":8165:8170  index */\n      dup4\n        /* \"contracts/EnumerableSet.sol\":8149:8152  _at */\n      tag_412\n        /* \"contracts/EnumerableSet.sol\":8149:8171  _at(set._inner, index) */\n      jump\t// in\n    tag_411:\n        /* \"contracts/EnumerableSet.sol\":8141:8172  uint256(_at(set._inner, index)) */\n      0x00\n      shr\n        /* \"contracts/EnumerableSet.sol\":8126:8173  return address(uint256(_at(set._inner, index))) */\n      swap1\n      pop\n        /* \"contracts/EnumerableSet.sol\":8032:8181  function at(AddressSet storage set, uint256 index) internal view returns (address) {\r... */\n      swap3\n      swap2\n      pop\n      pop\n      jump\t// out\n        /* \"contracts/Context.sol\":749:855  function _msgSender() internal view virtual returns (address payable) {\r... */\n    tag_152:\n        /* \"contracts/Context.sol\":802:817  address payable */\n      0x00\n        /* \"contracts/Context.sol\":837:847  msg.sender */\n      caller\n        /* \"contracts/Context.sol\":830:847  return msg.sender */\n      swap1\n      pop\n        /* \"contracts/Context.sol\":749:855  function _msgSender() internal view virtual returns (address payable) {\r... */\n      swap1\n      jump\t// out\n        /* \"contracts/SafeMath.sol\":1512:1648  function sub(uint256 a, uint256 b) internal pure returns (uint256) {\r... */\n    tag_167:\n        /* \"contracts/SafeMath.sol\":1570:1577  uint256 */\n      0x00\n        /* \"contracts/SafeMath.sol\":1597:1640  sub(a, b, \"SafeMath: subtraction overflow\") */\n      tag_415\n        /* \"contracts/SafeMath.sol\":1601:1602  a */\n      dup4\n        /* \"contracts/SafeMath.sol\":1604:1605  b */\n      dup4\n        /* \"contracts/SafeMath.sol\":1597:1640  sub(a, b, \"SafeMath: subtraction overflow\") */\n      mload(0x40)\n      dup1\n      0x40\n      add\n      0x40\n      mstore\n      dup1\n      0x1e\n      dup2\n      mstore\n      0x20\n      add\n      0x536166654d6174683a207375627472616374696f6e206f766572666c6f770000\n      dup2\n      mstore\n      pop\n        /* \"contracts/SafeMath.sol\":1597:1600  sub */\n      tag_416\n        /* \"contracts/SafeMath.sol\":1597:1640  sub(a, b, \"SafeMath: subtraction overflow\") */\n      jump\t// in\n    tag_415:\n        /* \"contracts/SafeMath.sol\":1590:1640  return sub(a, b, \"SafeMath: subtraction overflow\") */\n      swap1\n      pop\n        /* \"contracts/SafeMath.sol\":1512:1648  function sub(uint256 a, uint256 b) internal pure returns (uint256) {\r... */\n      swap3\n      swap2\n      pop\n      pop\n      jump\t// out\n        /* \"contracts/EnumerableSet.sol\":7092:7241  function remove(AddressSet storage set, address value) internal returns (bool) {\r... */\n    tag_177:\n        /* \"contracts/EnumerableSet.sol\":7165:7169  bool */\n      0x00\n        /* \"contracts/EnumerableSet.sol\":7189:7233  _remove(set._inner, bytes32(uint256(value))) */\n      tag_418\n        /* \"contracts/EnumerableSet.sol\":7197:7200  set */\n      dup4\n        /* \"contracts/EnumerableSet.sol\":7197:7207  set._inner */\n      0x00\n      add\n        /* \"contracts/EnumerableSet.sol\":7225:7230  value */\n      dup4\n        /* \"contracts/EnumerableSet.sol\":7217:7231  uint256(value) */\n      0xffffffffffffffffffffffffffffffffffffffff\n      and\n        /* \"contracts/EnumerableSet.sol\":7209:7232  bytes32(uint256(value)) */\n      0x00\n      shl\n        /* \"contracts/EnumerableSet.sol\":7189:7196  _remove */\n      tag_419\n        /* \"contracts/EnumerableSet.sol\":7189:7233  _remove(set._inner, bytes32(uint256(value))) */\n      jump\t// in\n    tag_418:\n        /* \"contracts/EnumerableSet.sol\":7182:7233  return _remove(set._inner, bytes32(uint256(value))) */\n      swap1\n      pop\n        /* \"contracts/EnumerableSet.sol\":7092:7241  function remove(AddressSet storage set, address value) internal returns (bool) {\r... */\n      swap3\n      swap2\n      pop\n      pop\n      jump\t// out\n        /* \"contracts/TransferHelper.sol\":497:791  function safeTransfer(address token, address to, uint value) internal {\r... */\n    tag_179:\n        /* \"contracts/TransferHelper.sol\":579:591  bool success */\n      0x00\n        /* \"contracts/TransferHelper.sol\":593:610  bytes memory data */\n      0x60\n        /* \"contracts/TransferHelper.sol\":614:619  token */\n      dup5\n        /* \"contracts/TransferHelper.sol\":614:624  token.call */\n      0xffffffffffffffffffffffffffffffffffffffff\n      and\n        /* \"contracts/TransferHelper.sol\":648:658  0xa9059cbb */\n      0xa9059cbb\n        /* \"contracts/TransferHelper.sol\":660:662  to */\n      dup6\n        /* \"contracts/TransferHelper.sol\":664:669  value */\n      dup6\n        /* \"contracts/TransferHelper.sol\":625:670  abi.encodeWithSelector(0xa9059cbb, to, value) */\n      add(0x24, mload(0x40))\n      dup1\n      dup4\n      0xffffffffffffffffffffffffffffffffffffffff\n      and\n      dup2\n      mstore\n      0x20\n      add\n      dup3\n      dup2\n      mstore\n      0x20\n      add\n      swap3\n      pop\n      pop\n      pop\n      mload(0x40)\n      0x20\n      dup2\n      dup4\n      sub\n      sub\n      dup2\n      mstore\n      swap1\n      0x40\n      mstore\n      swap1\n      0xe0\n      shl\n      0x20\n      dup3\n      add\n      dup1\n      mload\n      0xffffffffffffffffffffffffffffffffffffffffffffffffffffffff\n      dup4\n      dup2\n      dup4\n      and\n      or\n      dup4\n      mstore\n      pop\n      pop\n      pop\n      pop\n        /* \"contracts/TransferHelper.sol\":614:671  token.call(abi.encodeWithSelector(0xa9059cbb, to, value)) */\n      mload(0x40)\n      dup1\n      dup3\n      dup1\n      mload\n      swap1\n      0x20\n      add\n      swap1\n      dup1\n      dup4\n      dup4\n    tag_421:\n      0x20\n      dup4\n      lt\n      tag_423\n      jumpi\n      dup1\n      mload\n      dup3\n      mstore\n      0x20\n      dup3\n      add\n      swap2\n      pop\n      0x20\n      dup2\n      add\n      swap1\n      pop\n      0x20\n      dup4\n      sub\n      swap3\n      pop\n      jump(tag_421)\n    tag_423:\n      0x01\n      dup4\n      0x20\n      sub\n      0x0100\n      exp\n      sub\n      dup1\n      not\n      dup3\n      mload\n      and\n      dup2\n      dup5\n      mload\n      and\n      dup1\n      dup3\n      or\n      dup6\n      mstore\n      pop\n      pop\n      pop\n      pop\n      pop\n      pop\n      swap1\n      pop\n      add\n      swap2\n      pop\n      pop\n      0x00\n      mload(0x40)\n      dup1\n      dup4\n      sub\n      dup2\n      0x00\n      dup7\n      gas\n      call\n      swap2\n      pop\n      pop\n      returndatasize\n      dup1\n      0x00\n      dup2\n      eq\n      tag_426\n      jumpi\n      mload(0x40)\n      swap2\n      pop\n      and(add(returndatasize, 0x3f), not(0x1f))\n      dup3\n      add\n      0x40\n      mstore\n      returndatasize\n      dup3\n      mstore\n      returndatasize\n      0x00\n      0x20\n      dup5\n      add\n      returndatacopy\n      jump(tag_425)\n    tag_426:\n      0x60\n      swap2\n      pop\n    tag_425:\n      pop\n        /* \"contracts/TransferHelper.sol\":578:671  (bool success, bytes memory data) = token.call(abi.encodeWithSelector(0xa9059cbb, to, value)) */\n      swap2\n      pop\n      swap2\n      pop\n        /* \"contracts/TransferHelper.sol\":690:697  success */\n      dup2\n        /* \"contracts/TransferHelper.sol\":690:747  success && (data.length == 0 || abi.decode(data, (bool))) */\n      dup1\n      iszero\n      tag_427\n      jumpi\n      pop\n        /* \"contracts/TransferHelper.sol\":717:718  0 */\n      0x00\n        /* \"contracts/TransferHelper.sol\":702:706  data */\n      dup2\n        /* \"contracts/TransferHelper.sol\":702:713  data.length */\n      mload\n        /* \"contracts/TransferHelper.sol\":702:718  data.length == 0 */\n      eq\n        /* \"contracts/TransferHelper.sol\":702:746  data.length == 0 || abi.decode(data, (bool)) */\n      dup1\n      tag_428\n      jumpi\n      pop\n        /* \"contracts/TransferHelper.sol\":733:737  data */\n      dup1\n        /* \"contracts/TransferHelper.sol\":722:746  abi.decode(data, (bool)) */\n      dup1\n      0x20\n      add\n      swap1\n      mload\n      0x20\n      dup2\n      lt\n      iszero\n      tag_429\n      jumpi\n      0x00\n      dup1\n      revert\n    tag_429:\n      dup2\n      add\n      swap1\n      dup1\n      dup1\n      mload\n      swap1\n      0x20\n      add\n      swap1\n      swap3\n      swap2\n      swap1\n      pop\n      pop\n      pop\n        /* \"contracts/TransferHelper.sol\":702:746  data.length == 0 || abi.decode(data, (bool)) */\n    tag_428:\n        /* \"contracts/TransferHelper.sol\":690:747  success && (data.length == 0 || abi.decode(data, (bool))) */\n    tag_427:\n        /* \"contracts/TransferHelper.sol\":682:783  require(success && (data.length == 0 || abi.decode(data, (bool))), 'TransferHelper: TRANSFER_FAILED') */\n      tag_430\n      jumpi\n      mload(0x40)\n      0x08c379a000000000000000000000000000000000000000000000000000000000\n      dup2\n      mstore\n      0x04\n      add\n      dup1\n      dup1\n      0x20\n      add\n      dup3\n      dup2\n      sub\n      dup3\n      mstore\n      0x1f\n      dup2\n      mstore\n      0x20\n      add\n      dup1\n      0x5472616e7366657248656c7065723a205452414e534645525f4641494c454400\n      dup2\n      mstore\n      pop\n      0x20\n      add\n      swap2\n      pop\n      pop\n      mload(0x40)\n      dup1\n      swap2\n      sub\n      swap1\n      revert\n    tag_430:\n        /* \"contracts/TransferHelper.sol\":497:791  function safeTransfer(address token, address to, uint value) internal {\r... */\n      pop\n      pop\n      pop\n      pop\n      pop\n      jump\t// out\n        /* \"contracts/EnumerableSet.sol\":7571:7688  function length(AddressSet storage set) internal view returns (uint256) {\r... */\n    tag_182:\n        /* \"contracts/EnumerableSet.sol\":7634:7641  uint256 */\n      0x00\n        /* \"contracts/EnumerableSet.sol\":7661:7680  _length(set._inner) */\n      tag_432\n        /* \"contracts/EnumerableSet.sol\":7669:7672  set */\n      dup3\n        /* \"contracts/EnumerableSet.sol\":7669:7679  set._inner */\n      0x00\n      add\n        /* \"contracts/EnumerableSet.sol\":7661:7668  _length */\n      tag_433\n        /* \"contracts/EnumerableSet.sol\":7661:7680  _length(set._inner) */\n      jump\t// in\n    tag_432:\n        /* \"contracts/EnumerableSet.sol\":7654:7680  return _length(set._inner) */\n      swap1\n      pop\n        /* \"contracts/EnumerableSet.sol\":7571:7688  function length(AddressSet storage set) internal view returns (uint256) {\r... */\n      swap2\n      swap1\n      pop\n      jump\t// out\n        /* \"contracts/SafeMath.sol\":2402:2873  function mul(uint256 a, uint256 b) internal pure returns (uint256) {\r... */\n    tag_214:\n        /* \"contracts/SafeMath.sol\":2460:2467  uint256 */\n      0x00\n        /* \"contracts/SafeMath.sol\":2710:2711  0 */\n      dup1\n        /* \"contracts/SafeMath.sol\":2705:2706  a */\n      dup4\n        /* \"contracts/SafeMath.sol\":2705:2711  a == 0 */\n      eq\n        /* \"contracts/SafeMath.sol\":2701:2748  if (a == 0) {\r... */\n      iszero\n      tag_435\n      jumpi\n        /* \"contracts/SafeMath.sol\":2735:2736  0 */\n      0x00\n        /* \"contracts/SafeMath.sol\":2728:2736  return 0 */\n      swap1\n      pop\n      jump(tag_434)\n        /* \"contracts/SafeMath.sol\":2701:2748  if (a == 0) {\r... */\n    tag_435:\n        /* \"contracts/SafeMath.sol\":2760:2769  uint256 c */\n      0x00\n        /* \"contracts/SafeMath.sol\":2776:2777  b */\n      dup3\n        /* \"contracts/SafeMath.sol\":2772:2773  a */\n      dup5\n        /* \"contracts/SafeMath.sol\":2772:2777  a * b */\n      mul\n        /* \"contracts/SafeMath.sol\":2760:2777  uint256 c = a * b */\n      swap1\n      pop\n        /* \"contracts/SafeMath.sol\":2805:2806  b */\n      dup3\n        /* \"contracts/SafeMath.sol\":2800:2801  a */\n      dup5\n        /* \"contracts/SafeMath.sol\":2796:2797  c */\n      dup3\n        /* \"contracts/SafeMath.sol\":2796:2801  c / a */\n      dup2\n      tag_436\n      jumpi\n      invalid\n    tag_436:\n      div\n        /* \"contracts/SafeMath.sol\":2796:2806  c / a == b */\n      eq\n        /* \"contracts/SafeMath.sol\":2788:2844  require(c / a == b, \"SafeMath: multiplication overflow\") */\n      tag_437\n      jumpi\n      mload(0x40)\n      0x08c379a000000000000000000000000000000000000000000000000000000000\n      dup2\n      mstore\n      0x04\n      add\n      dup1\n      dup1\n      0x20\n      add\n      dup3\n      dup2\n      sub\n      dup3\n      mstore\n      0x21\n      dup2\n      mstore\n      0x20\n      add\n      dup1\n      data_9113bb53c2876a3805b2c9242029423fc540a728243ce887ab24c82cf119fba3\n      0x21\n      swap2\n      codecopy\n      0x40\n      add\n      swap2\n      pop\n      pop\n      mload(0x40)\n      dup1\n      swap2\n      sub\n      swap1\n      revert\n    tag_437:\n        /* \"contracts/SafeMath.sol\":2864:2865  c */\n      dup1\n        /* \"contracts/SafeMath.sol\":2857:2865  return c */\n      swap2\n      pop\n      pop\n        /* \"contracts/SafeMath.sol\":2402:2873  function mul(uint256 a, uint256 b) internal pure returns (uint256) {\r... */\n    tag_434:\n      swap3\n      swap2\n      pop\n      pop\n      jump\t// out\n        /* \"contracts/SafeMath.sol\":3349:3481  function div(uint256 a, uint256 b) internal pure returns (uint256) {\r... */\n    tag_215:\n        /* \"contracts/SafeMath.sol\":3407:3414  uint256 */\n      0x00\n        /* \"contracts/SafeMath.sol\":3434:3473  div(a, b, \"SafeMath: division by zero\") */\n      tag_439\n        /* \"contracts/SafeMath.sol\":3438:3439  a */\n      dup4\n        /* \"contracts/SafeMath.sol\":3441:3442  b */\n      dup4\n        /* \"contracts/SafeMath.sol\":3434:3473  div(a, b, \"SafeMath: division by zero\") */\n      mload(0x40)\n      dup1\n      0x40\n      add\n      0x40\n      mstore\n      dup1\n      0x1a\n      dup2\n      mstore\n      0x20\n      add\n      0x536166654d6174683a206469766973696f6e206279207a65726f000000000000\n      dup2\n      mstore\n      pop\n        /* \"contracts/SafeMath.sol\":3434:3437  div */\n      tag_440\n        /* \"contracts/SafeMath.sol\":3434:3473  div(a, b, \"SafeMath: division by zero\") */\n      jump\t// in\n    tag_439:\n        /* \"contracts/SafeMath.sol\":3427:3473  return div(a, b, \"SafeMath: division by zero\") */\n      swap1\n      pop\n        /* \"contracts/SafeMath.sol\":3349:3481  function div(uint256 a, uint256 b) internal pure returns (uint256) {\r... */\n      swap3\n      swap2\n      pop\n      pop\n      jump\t// out\n        /* \"contracts/TransferHelper.sol\":799:1122  function safeTransferFrom(address token, address from, address to, uint value) internal {\r... */\n    tag_251:\n        /* \"contracts/TransferHelper.sol\":899:911  bool success */\n      0x00\n        /* \"contracts/TransferHelper.sol\":913:930  bytes memory data */\n      0x60\n        /* \"contracts/TransferHelper.sol\":934:939  token */\n      dup6\n        /* \"contracts/TransferHelper.sol\":934:944  token.call */\n      0xffffffffffffffffffffffffffffffffffffffff\n      and\n        /* \"contracts/TransferHelper.sol\":968:978  0x23b872dd */\n      0x23b872dd\n        /* \"contracts/TransferHelper.sol\":980:984  from */\n      dup7\n        /* \"contracts/TransferHelper.sol\":986:988  to */\n      dup7\n        /* \"contracts/TransferHelper.sol\":990:995  value */\n      dup7\n        /* \"contracts/TransferHelper.sol\":945:996  abi.encodeWithSelector(0x23b872dd, from, to, value) */\n      add(0x24, mload(0x40))\n      dup1\n      dup5\n      0xffffffffffffffffffffffffffffffffffffffff\n      and\n      dup2\n      mstore\n      0x20\n      add\n      dup4\n      0xffffffffffffffffffffffffffffffffffffffff\n      and\n      dup2\n      mstore\n      0x20\n      add\n      dup3\n      dup2\n      mstore\n      0x20\n      add\n      swap4\n      pop\n      pop\n      pop\n      pop\n      mload(0x40)\n      0x20\n      dup2\n      dup4\n      sub\n      sub\n      dup2\n      mstore\n      swap1\n      0x40\n      mstore\n      swap1\n      0xe0\n      shl\n      0x20\n      dup3\n      add\n      dup1\n      mload\n      0xffffffffffffffffffffffffffffffffffffffffffffffffffffffff\n      dup4\n      dup2\n      dup4\n      and\n      or\n      dup4\n      mstore\n      pop\n      pop\n      pop\n      pop\n        /* \"contracts/TransferHelper.sol\":934:997  token.call(abi.encodeWithSelector(0x23b872dd, from, to, value)) */\n      mload(0x40)\n      dup1\n      dup3\n      dup1\n      mload\n      swap1\n      0x20\n      add\n      swap1\n      dup1\n      dup4\n      dup4\n    tag_442:\n      0x20\n      dup4\n      lt\n      tag_444\n      jumpi\n      dup1\n      mload\n      dup3\n      mstore\n      0x20\n      dup3\n      add\n      swap2\n      pop\n      0x20\n      dup2\n      add\n      swap1\n      pop\n      0x20\n      dup4\n      sub\n      swap3\n      pop\n      jump(tag_442)\n    tag_444:\n      0x01\n      dup4\n      0x20\n      sub\n      0x0100\n      exp\n      sub\n      dup1\n      not\n      dup3\n      mload\n      and\n      dup2\n      dup5\n      mload\n      and\n      dup1\n      dup3\n      or\n      dup6\n      mstore\n      pop\n      pop\n      pop\n      pop\n      pop\n      pop\n      swap1\n      pop\n      add\n      swap2\n      pop\n      pop\n      0x00\n      mload(0x40)\n      dup1\n      dup4\n      sub\n      dup2\n      0x00\n      dup7\n      gas\n      call\n      swap2\n      pop\n      pop\n      returndatasize\n      dup1\n      0x00\n      dup2\n      eq\n      tag_447\n      jumpi\n      mload(0x40)\n      swap2\n      pop\n      and(add(returndatasize, 0x3f), not(0x1f))\n      dup3\n      add\n      0x40\n      mstore\n      returndatasize\n      dup3\n      mstore\n      returndatasize\n      0x00\n      0x20\n      dup5\n      add\n      returndatacopy\n      jump(tag_446)\n    tag_447:\n      0x60\n      swap2\n      pop\n    tag_446:\n      pop\n        /* \"contracts/TransferHelper.sol\":898:997  (bool success, bytes memory data) = token.call(abi.encodeWithSelector(0x23b872dd, from, to, value)) */\n      swap2\n      pop\n      swap2\n      pop\n        /* \"contracts/TransferHelper.sol\":1016:1023  success */\n      dup2\n        /* \"contracts/TransferHelper.sol\":1016:1073  success && (data.length == 0 || abi.decode(data, (bool))) */\n      dup1\n      iszero\n      tag_448\n      jumpi\n      pop\n        /* \"contracts/TransferHelper.sol\":1043:1044  0 */\n      0x00\n        /* \"contracts/TransferHelper.sol\":1028:1032  data */\n      dup2\n        /* \"contracts/TransferHelper.sol\":1028:1039  data.length */\n      mload\n        /* \"contracts/TransferHelper.sol\":1028:1044  data.length == 0 */\n      eq\n        /* \"contracts/TransferHelper.sol\":1028:1072  data.length == 0 || abi.decode(data, (bool)) */\n      dup1\n      tag_449\n      jumpi\n      pop\n        /* \"contracts/TransferHelper.sol\":1059:1063  data */\n      dup1\n        /* \"contracts/TransferHelper.sol\":1048:1072  abi.decode(data, (bool)) */\n      dup1\n      0x20\n      add\n      swap1\n      mload\n      0x20\n      dup2\n      lt\n      iszero\n      tag_450\n      jumpi\n      0x00\n      dup1\n      revert\n    tag_450:\n      dup2\n      add\n      swap1\n      dup1\n      dup1\n      mload\n      swap1\n      0x20\n      add\n      swap1\n      swap3\n      swap2\n      swap1\n      pop\n      pop\n      pop\n        /* \"contracts/TransferHelper.sol\":1028:1072  data.length == 0 || abi.decode(data, (bool)) */\n    tag_449:\n        /* \"contracts/TransferHelper.sol\":1016:1073  success && (data.length == 0 || abi.decode(data, (bool))) */\n    tag_448:\n        /* \"contracts/TransferHelper.sol\":1008:1114  require(success && (data.length == 0 || abi.decode(data, (bool))), 'TransferHelper: TRANSFER_FROM_FAILED') */\n      tag_451\n      jumpi\n      mload(0x40)\n      0x08c379a000000000000000000000000000000000000000000000000000000000\n      dup2\n      mstore\n      0x04\n      add\n      dup1\n      dup1\n      0x20\n      add\n      dup3\n      dup2\n      sub\n      dup3\n      mstore\n      0x24\n      dup2\n      mstore\n      0x20\n      add\n      dup1\n      data_eb2904bf3c0c9ae693b53eb0188a703c388998a9c405b7965ca678cef9a51d18\n      0x24\n      swap2\n      codecopy\n      0x40\n      add\n      swap2\n      pop\n      pop\n      mload(0x40)\n      dup1\n      swap2\n      sub\n      swap1\n      revert\n    tag_451:\n        /* \"contracts/TransferHelper.sol\":799:1122  function safeTransferFrom(address token, address from, address to, uint value) internal {\r... */\n      pop\n      pop\n      pop\n      pop\n      pop\n      pop\n      jump\t// out\n        /* \"contracts/EnumerableSet.sol\":7327:7485  function contains(AddressSet storage set, address value) internal view returns (bool) {\r... */\n    tag_260:\n        /* \"contracts/EnumerableSet.sol\":7407:7411  bool */\n      0x00\n        /* \"contracts/EnumerableSet.sol\":7431:7477  _contains(set._inner, bytes32(uint256(value))) */\n      tag_453\n        /* \"contracts/EnumerableSet.sol\":7441:7444  set */\n      dup4\n        /* \"contracts/EnumerableSet.sol\":7441:7451  set._inner */\n      0x00\n      add\n        /* \"contracts/EnumerableSet.sol\":7469:7474  value */\n      dup4\n        /* \"contracts/EnumerableSet.sol\":7461:7475  uint256(value) */\n      0xffffffffffffffffffffffffffffffffffffffff\n      and\n        /* \"contracts/EnumerableSet.sol\":7453:7476  bytes32(uint256(value)) */\n      0x00\n      shl\n        /* \"contracts/EnumerableSet.sol\":7431:7440  _contains */\n      tag_454\n        /* \"contracts/EnumerableSet.sol\":7431:7477  _contains(set._inner, bytes32(uint256(value))) */\n      jump\t// in\n    tag_453:\n        /* \"contracts/EnumerableSet.sol\":7424:7477  return _contains(set._inner, bytes32(uint256(value))) */\n      swap1\n      pop\n        /* \"contracts/EnumerableSet.sol\":7327:7485  function contains(AddressSet storage set, address value) internal view returns (bool) {\r... */\n      swap3\n      swap2\n      pop\n      pop\n      jump\t// out\n        /* \"contracts/TransferHelper.sol\":197:489  function safeApprove(address token, address to, uint value) internal {\r... */\n    tag_286:\n        /* \"contracts/TransferHelper.sol\":278:290  bool success */\n      0x00\n        /* \"contracts/TransferHelper.sol\":292:309  bytes memory data */\n      0x60\n        /* \"contracts/TransferHelper.sol\":313:318  token */\n      dup5\n        /* \"contracts/TransferHelper.sol\":313:323  token.call */\n      0xffffffffffffffffffffffffffffffffffffffff\n      and\n        /* \"contracts/TransferHelper.sol\":347:357  0x095ea7b3 */\n      0x095ea7b3\n        /* \"contracts/TransferHelper.sol\":359:361  to */\n      dup6\n        /* \"contracts/TransferHelper.sol\":363:368  value */\n      dup6\n        /* \"contracts/TransferHelper.sol\":324:369  abi.encodeWithSelector(0x095ea7b3, to, value) */\n      add(0x24, mload(0x40))\n      dup1\n      dup4\n      0xffffffffffffffffffffffffffffffffffffffff\n      and\n      dup2\n      mstore\n      0x20\n      add\n      dup3\n      dup2\n      mstore\n      0x20\n      add\n      swap3\n      pop\n      pop\n      pop\n      mload(0x40)\n      0x20\n      dup2\n      dup4\n      sub\n      sub\n      dup2\n      mstore\n      swap1\n      0x40\n      mstore\n      swap1\n      0xe0\n      shl\n      0x20\n      dup3\n      add\n      dup1\n      mload\n      0xffffffffffffffffffffffffffffffffffffffffffffffffffffffff\n      dup4\n      dup2\n      dup4\n      and\n      or\n      dup4\n      mstore\n      pop\n      pop\n      pop\n      pop\n        /* \"contracts/TransferHelper.sol\":313:370  token.call(abi.encodeWithSelector(0x095ea7b3, to, value)) */\n      mload(0x40)\n      dup1\n      dup3\n      dup1\n      mload\n      swap1\n      0x20\n      add\n      swap1\n      dup1\n      dup4\n      dup4\n    tag_456:\n      0x20\n      dup4\n      lt\n      tag_458\n      jumpi\n      dup1\n      mload\n      dup3\n      mstore\n      0x20\n      dup3\n      add\n      swap2\n      pop\n      0x20\n      dup2\n      add\n      swap1\n      pop\n      0x20\n      dup4\n      sub\n      swap3\n      pop\n      jump(tag_456)\n    tag_458:\n      0x01\n      dup4\n      0x20\n      sub\n      0x0100\n      exp\n      sub\n      dup1\n      not\n      dup3\n      mload\n      and\n      dup2\n      dup5\n      mload\n      and\n      dup1\n      dup3\n      or\n      dup6\n      mstore\n      pop\n      pop\n      pop\n      pop\n      pop\n      pop\n      swap1\n      pop\n      add\n      swap2\n      pop\n      pop\n      0x00\n      mload(0x40)\n      dup1\n      dup4\n      sub\n      dup2\n      0x00\n      dup7\n      gas\n      call\n      swap2\n      pop\n      pop\n      returndatasize\n      dup1\n      0x00\n      dup2\n      eq\n      tag_461\n      jumpi\n      mload(0x40)\n      swap2\n      pop\n      and(add(returndatasize, 0x3f), not(0x1f))\n      dup3\n      add\n      0x40\n      mstore\n      returndatasize\n      dup3\n      mstore\n      returndatasize\n      0x00\n      0x20\n      dup5\n      add\n      returndatacopy\n      jump(tag_460)\n    tag_461:\n      0x60\n      swap2\n      pop\n    tag_460:\n      pop\n        /* \"contracts/TransferHelper.sol\":277:370  (bool success, bytes memory data) = token.call(abi.encodeWithSelector(0x095ea7b3, to, value)) */\n      swap2\n      pop\n      swap2\n      pop\n        /* \"contracts/TransferHelper.sol\":389:396  success */\n      dup2\n        /* \"contracts/TransferHelper.sol\":389:446  success && (data.length == 0 || abi.decode(data, (bool))) */\n      dup1\n      iszero\n      tag_462\n      jumpi\n      pop\n        /* \"contracts/TransferHelper.sol\":416:417  0 */\n      0x00\n        /* \"contracts/TransferHelper.sol\":401:405  data */\n      dup2\n        /* \"contracts/TransferHelper.sol\":401:412  data.length */\n      mload\n        /* \"contracts/TransferHelper.sol\":401:417  data.length == 0 */\n      eq\n        /* \"contracts/TransferHelper.sol\":401:445  data.length == 0 || abi.decode(data, (bool)) */\n      dup1\n      tag_463\n      jumpi\n      pop\n        /* \"contracts/TransferHelper.sol\":432:436  data */\n      dup1\n        /* \"contracts/TransferHelper.sol\":421:445  abi.decode(data, (bool)) */\n      dup1\n      0x20\n      add\n      swap1\n      mload\n      0x20\n      dup2\n      lt\n      iszero\n      tag_464\n      jumpi\n      0x00\n      dup1\n      revert\n    tag_464:\n      dup2\n      add\n      swap1\n      dup1\n      dup1\n      mload\n      swap1\n      0x20\n      add\n      swap1\n      swap3\n      swap2\n      swap1\n      pop\n      pop\n      pop\n        /* \"contracts/TransferHelper.sol\":401:445  data.length == 0 || abi.decode(data, (bool)) */\n    tag_463:\n        /* \"contracts/TransferHelper.sol\":389:446  success && (data.length == 0 || abi.decode(data, (bool))) */\n    tag_462:\n        /* \"contracts/TransferHelper.sol\":381:481  require(success && (data.length == 0 || abi.decode(data, (bool))), 'TransferHelper: APPROVE_FAILED') */\n      tag_465\n      jumpi\n      mload(0x40)\n      0x08c379a000000000000000000000000000000000000000000000000000000000\n      dup2\n      mstore\n      0x04\n      add\n      dup1\n      dup1\n      0x20\n      add\n      dup3\n      dup2\n      sub\n      dup3\n      mstore\n      0x1e\n      dup2\n      mstore\n      0x20\n      add\n      dup1\n      0x5472616e7366657248656c7065723a20415050524f56455f4641494c45440000\n      dup2\n      mstore\n      pop\n      0x20\n      add\n      swap2\n      pop\n      pop\n      mload(0x40)\n      dup1\n      swap2\n      sub\n      swap1\n      revert\n    tag_465:\n        /* \"contracts/TransferHelper.sol\":197:489  function safeApprove(address token, address to, uint value) internal {\r... */\n      pop\n      pop\n      pop\n      pop\n      pop\n      jump\t// out\n        /* \"contracts/EnumerableSet.sol\":6773:6916  function add(AddressSet storage set, address value) internal returns (bool) {\r... */\n    tag_308:\n        /* \"contracts/EnumerableSet.sol\":6843:6847  bool */\n      0x00\n        /* \"contracts/EnumerableSet.sol\":6867:6908  _add(set._inner, bytes32(uint256(value))) */\n      tag_467\n        /* \"contracts/EnumerableSet.sol\":6872:6875  set */\n      dup4\n        /* \"contracts/EnumerableSet.sol\":6872:6882  set._inner */\n      0x00\n      add\n        /* \"contracts/EnumerableSet.sol\":6900:6905  value */\n      dup4\n        /* \"contracts/EnumerableSet.sol\":6892:6906  uint256(value) */\n      0xffffffffffffffffffffffffffffffffffffffff\n      and\n        /* \"contracts/EnumerableSet.sol\":6884:6907  bytes32(uint256(value)) */\n      0x00\n      shl\n        /* \"contracts/EnumerableSet.sol\":6867:6871  _add */\n      tag_468\n        /* \"contracts/EnumerableSet.sol\":6867:6908  _add(set._inner, bytes32(uint256(value))) */\n      jump\t// in\n    tag_467:\n        /* \"contracts/EnumerableSet.sol\":6860:6908  return _add(set._inner, bytes32(uint256(value))) */\n      swap1\n      pop\n        /* \"contracts/EnumerableSet.sol\":6773:6916  function add(AddressSet storage set, address value) internal returns (bool) {\r... */\n      swap3\n      swap2\n      pop\n      pop\n      jump\t// out\n        /* \"contracts/SafeMath.sol\":1048:1229  function add(uint256 a, uint256 b) internal pure returns (uint256) {\r... */\n    tag_343:\n        /* \"contracts/SafeMath.sol\":1106:1113  uint256 */\n      0x00\n        /* \"contracts/SafeMath.sol\":1126:1135  uint256 c */\n      dup1\n        /* \"contracts/SafeMath.sol\":1142:1143  b */\n      dup3\n        /* \"contracts/SafeMath.sol\":1138:1139  a */\n      dup5\n        /* \"contracts/SafeMath.sol\":1138:1143  a + b */\n      add\n        /* \"contracts/SafeMath.sol\":1126:1143  uint256 c = a + b */\n      swap1\n      pop\n        /* \"contracts/SafeMath.sol\":1167:1168  a */\n      dup4\n        /* \"contracts/SafeMath.sol\":1162:1163  c */\n      dup2\n        /* \"contracts/SafeMath.sol\":1162:1168  c >= a */\n      lt\n      iszero\n        /* \"contracts/SafeMath.sol\":1154:1200  require(c >= a, \"SafeMath: addition overflow\") */\n      tag_470\n      jumpi\n      mload(0x40)\n      0x08c379a000000000000000000000000000000000000000000000000000000000\n      dup2\n      mstore\n      0x04\n      add\n      dup1\n      dup1\n      0x20\n      add\n      dup3\n      dup2\n      sub\n      dup3\n      mstore\n      0x1b\n      dup2\n      mstore\n      0x20\n      add\n      dup1\n      0x536166654d6174683a206164646974696f6e206f766572666c6f770000000000\n      dup2\n      mstore\n      pop\n      0x20\n      add\n      swap2\n      pop\n      pop\n      mload(0x40)\n      dup1\n      swap2\n      sub\n      swap1\n      revert\n    tag_470:\n        /* \"contracts/SafeMath.sol\":1220:1221  c */\n      dup1\n        /* \"contracts/SafeMath.sol\":1213:1221  return c */\n      swap2\n      pop\n      pop\n        /* \"contracts/SafeMath.sol\":1048:1229  function add(uint256 a, uint256 b) internal pure returns (uint256) {\r... */\n      swap3\n      swap2\n      pop\n      pop\n      jump\t// out\n        /* \"contracts/EnumerableSet.sol\":4725:4929  function _at(Set storage set, uint256 index) private view returns (bytes32) {\r... */\n    tag_412:\n        /* \"contracts/EnumerableSet.sol\":4792:4799  bytes32 */\n      0x00\n        /* \"contracts/EnumerableSet.sol\":4841:4846  index */\n      dup2\n        /* \"contracts/EnumerableSet.sol\":4820:4823  set */\n      dup4\n        /* \"contracts/EnumerableSet.sol\":4820:4831  set._values */\n      0x00\n      add\n        /* \"contracts/EnumerableSet.sol\":4820:4838  set._values.length */\n      dup1\n      sload\n      swap1\n      pop\n        /* \"contracts/EnumerableSet.sol\":4820:4846  set._values.length > index */\n      gt\n        /* \"contracts/EnumerableSet.sol\":4812:4885  require(set._values.length > index, \"EnumerableSet: index out of bounds\") */\n      tag_472\n      jumpi\n      mload(0x40)\n      0x08c379a000000000000000000000000000000000000000000000000000000000\n      dup2\n      mstore\n      0x04\n      add\n      dup1\n      dup1\n      0x20\n      add\n      dup3\n      dup2\n      sub\n      dup3\n      mstore\n      0x22\n      dup2\n      mstore\n      0x20\n      add\n      dup1\n      data_045d6834e6193a687012a3ad777f612279e549b6945364d9d2324f48610d3cbb\n      0x22\n      swap2\n      codecopy\n      0x40\n      add\n      swap2\n      pop\n      pop\n      mload(0x40)\n      dup1\n      swap2\n      sub\n      swap1\n      revert\n    tag_472:\n        /* \"contracts/EnumerableSet.sol\":4903:4906  set */\n      dup3\n        /* \"contracts/EnumerableSet.sol\":4903:4914  set._values */\n      0x00\n      add\n        /* \"contracts/EnumerableSet.sol\":4915:4920  index */\n      dup3\n        /* \"contracts/EnumerableSet.sol\":4903:4921  set._values[index] */\n      dup2\n      sload\n      dup2\n      lt\n      tag_473\n      jumpi\n      invalid\n    tag_473:\n      swap1\n      0x00\n      mstore\n      keccak256(0x00, 0x20)\n      add\n      sload\n        /* \"contracts/EnumerableSet.sol\":4896:4921  return set._values[index] */\n      swap1\n      pop\n        /* \"contracts/EnumerableSet.sol\":4725:4929  function _at(Set storage set, uint256 index) private view returns (bytes32) {\r... */\n      swap3\n      swap2\n      pop\n      pop\n      jump\t// out\n        /* \"contracts/SafeMath.sol\":1951:2143  function sub(uint256 a, uint256 b, string memory errorMessage) internal pure returns (uint256) {\r... */\n    tag_416:\n        /* \"contracts/SafeMath.sol\":2037:2044  uint256 */\n      0x00\n        /* \"contracts/SafeMath.sol\":2070:2071  a */\n      dup4\n        /* \"contracts/SafeMath.sol\":2065:2066  b */\n      dup4\n        /* \"contracts/SafeMath.sol\":2065:2071  b <= a */\n      gt\n      iszero\n        /* \"contracts/SafeMath.sol\":2073:2085  errorMessage */\n      dup3\n        /* \"contracts/SafeMath.sol\":2057:2086  require(b <= a, errorMessage) */\n      swap1\n      tag_476\n      jumpi\n      mload(0x40)\n      0x08c379a000000000000000000000000000000000000000000000000000000000\n      dup2\n      mstore\n      0x04\n      add\n      dup1\n      dup1\n      0x20\n      add\n      dup3\n      dup2\n      sub\n      dup3\n      mstore\n      dup4\n      dup2\n      dup2\n      mload\n      dup2\n      mstore\n      0x20\n      add\n      swap2\n      pop\n      dup1\n      mload\n      swap1\n      0x20\n      add\n      swap1\n      dup1\n      dup4\n      dup4\n      0x00\n    tag_477:\n      dup4\n      dup2\n      lt\n      iszero\n      tag_479\n      jumpi\n      dup1\n      dup3\n      add\n      mload\n      dup2\n      dup5\n      add\n      mstore\n      0x20\n      dup2\n      add\n      swap1\n      pop\n      jump(tag_477)\n    tag_479:\n      pop\n      pop\n      pop\n      pop\n      swap1\n      pop\n      swap1\n      dup2\n      add\n      swap1\n      0x1f\n      and\n      dup1\n      iszero\n      tag_480\n      jumpi\n      dup1\n      dup3\n      sub\n      dup1\n      mload\n      0x01\n      dup4\n      0x20\n      sub\n      0x0100\n      exp\n      sub\n      not\n      and\n      dup2\n      mstore\n      0x20\n      add\n      swap2\n      pop\n    tag_480:\n      pop\n      swap3\n      pop\n      pop\n      pop\n      mload(0x40)\n      dup1\n      swap2\n      sub\n      swap1\n      revert\n    tag_476:\n      pop\n        /* \"contracts/SafeMath.sol\":2097:2106  uint256 c */\n      0x00\n        /* \"contracts/SafeMath.sol\":2113:2114  b */\n      dup4\n        /* \"contracts/SafeMath.sol\":2109:2110  a */\n      dup6\n        /* \"contracts/SafeMath.sol\":2109:2114  a - b */\n      sub\n        /* \"contracts/SafeMath.sol\":2097:2114  uint256 c = a - b */\n      swap1\n      pop\n        /* \"contracts/SafeMath.sol\":2134:2135  c */\n      dup1\n        /* \"contracts/SafeMath.sol\":2127:2135  return c */\n      swap2\n      pop\n      pop\n        /* \"contracts/SafeMath.sol\":1951:2143  function sub(uint256 a, uint256 b, string memory errorMessage) internal pure returns (uint256) {\r... */\n      swap4\n      swap3\n      pop\n      pop\n      pop\n      jump\t// out\n        /* \"contracts/EnumerableSet.sol\":2427:3971  function _remove(Set storage set, bytes32 value) private returns (bool) {\r... */\n    tag_419:\n        /* \"contracts/EnumerableSet.sol\":2493:2497  bool */\n      0x00\n        /* \"contracts/EnumerableSet.sol\":2611:2629  uint256 valueIndex */\n      dup1\n        /* \"contracts/EnumerableSet.sol\":2632:2635  set */\n      dup4\n        /* \"contracts/EnumerableSet.sol\":2632:2644  set._indexes */\n      0x01\n      add\n        /* \"contracts/EnumerableSet.sol\":2632:2651  set._indexes[value] */\n      0x00\n        /* \"contracts/EnumerableSet.sol\":2645:2650  value */\n      dup5\n        /* \"contracts/EnumerableSet.sol\":2632:2651  set._indexes[value] */\n      dup2\n      mstore\n      0x20\n      add\n      swap1\n      dup2\n      mstore\n      0x20\n      add\n      0x00\n      keccak256\n      sload\n        /* \"contracts/EnumerableSet.sol\":2611:2651  uint256 valueIndex = set._indexes[value] */\n      swap1\n      pop\n        /* \"contracts/EnumerableSet.sol\":2682:2683  0 */\n      0x00\n        /* \"contracts/EnumerableSet.sol\":2668:2678  valueIndex */\n      dup2\n        /* \"contracts/EnumerableSet.sol\":2668:2683  valueIndex != 0 */\n      eq\n        /* \"contracts/EnumerableSet.sol\":2664:3964  if (valueIndex != 0) { // Equivalent to contains(set, value)\r... */\n      tag_482\n      jumpi\n        /* \"contracts/EnumerableSet.sol\":3030:3051  uint256 toDeleteIndex */\n      0x00\n        /* \"contracts/EnumerableSet.sol\":3067:3068  1 */\n      0x01\n        /* \"contracts/EnumerableSet.sol\":3054:3064  valueIndex */\n      dup3\n        /* \"contracts/EnumerableSet.sol\":3054:3068  valueIndex - 1 */\n      sub\n        /* \"contracts/EnumerableSet.sol\":3030:3068  uint256 toDeleteIndex = valueIndex - 1 */\n      swap1\n      pop\n        /* \"contracts/EnumerableSet.sol\":3083:3100  uint256 lastIndex */\n      0x00\n        /* \"contracts/EnumerableSet.sol\":3124:3125  1 */\n      0x01\n        /* \"contracts/EnumerableSet.sol\":3103:3106  set */\n      dup7\n        /* \"contracts/EnumerableSet.sol\":3103:3114  set._values */\n      0x00\n      add\n        /* \"contracts/EnumerableSet.sol\":3103:3121  set._values.length */\n      dup1\n      sload\n      swap1\n      pop\n        /* \"contracts/EnumerableSet.sol\":3103:3125  set._values.length - 1 */\n      sub\n        /* \"contracts/EnumerableSet.sol\":3083:3125  uint256 lastIndex = set._values.length - 1 */\n      swap1\n      pop\n        /* \"contracts/EnumerableSet.sol\":3370:3387  bytes32 lastvalue */\n      0x00\n        /* \"contracts/EnumerableSet.sol\":3390:3393  set */\n      dup7\n        /* \"contracts/EnumerableSet.sol\":3390:3401  set._values */\n      0x00\n      add\n        /* \"contracts/EnumerableSet.sol\":3402:3411  lastIndex */\n      dup3\n        /* \"contracts/EnumerableSet.sol\":3390:3412  set._values[lastIndex] */\n      dup2\n      sload\n      dup2\n      lt\n      tag_483\n      jumpi\n      invalid\n    tag_483:\n      swap1\n      0x00\n      mstore\n      keccak256(0x00, 0x20)\n      add\n      sload\n        /* \"contracts/EnumerableSet.sol\":3370:3412  bytes32 lastvalue = set._values[lastIndex] */\n      swap1\n      pop\n        /* \"contracts/EnumerableSet.sol\":3536:3545  lastvalue */\n      dup1\n        /* \"contracts/EnumerableSet.sol\":3507:3510  set */\n      dup8\n        /* \"contracts/EnumerableSet.sol\":3507:3518  set._values */\n      0x00\n      add\n        /* \"contracts/EnumerableSet.sol\":3519:3532  toDeleteIndex */\n      dup5\n        /* \"contracts/EnumerableSet.sol\":3507:3533  set._values[toDeleteIndex] */\n      dup2\n      sload\n      dup2\n      lt\n      tag_485\n      jumpi\n      invalid\n    tag_485:\n      swap1\n      0x00\n      mstore\n      keccak256(0x00, 0x20)\n      add\n        /* \"contracts/EnumerableSet.sol\":3507:3545  set._values[toDeleteIndex] = lastvalue */\n      dup2\n      swap1\n      sstore\n      pop\n        /* \"contracts/EnumerableSet.sol\":3655:3656  1 */\n      0x01\n        /* \"contracts/EnumerableSet.sol\":3639:3652  toDeleteIndex */\n      dup4\n        /* \"contracts/EnumerableSet.sol\":3639:3656  toDeleteIndex + 1 */\n      add\n        /* \"contracts/EnumerableSet.sol\":3613:3616  set */\n      dup8\n        /* \"contracts/EnumerableSet.sol\":3613:3625  set._indexes */\n      0x01\n      add\n        /* \"contracts/EnumerableSet.sol\":3613:3636  set._indexes[lastvalue] */\n      0x00\n        /* \"contracts/EnumerableSet.sol\":3626:3635  lastvalue */\n      dup4\n        /* \"contracts/EnumerableSet.sol\":3613:3636  set._indexes[lastvalue] */\n      dup2\n      mstore\n      0x20\n      add\n      swap1\n      dup2\n      mstore\n      0x20\n      add\n      0x00\n      keccak256\n        /* \"contracts/EnumerableSet.sol\":3613:3656  set._indexes[lastvalue] = toDeleteIndex + 1 */\n      dup2\n      swap1\n      sstore\n      pop\n        /* \"contracts/EnumerableSet.sol\":3765:3768  set */\n      dup7\n        /* \"contracts/EnumerableSet.sol\":3765:3776  set._values */\n      0x00\n      add\n        /* \"contracts/EnumerableSet.sol\":3765:3782  set._values.pop() */\n      dup1\n      sload\n      dup1\n      tag_487\n      jumpi\n      invalid\n    tag_487:\n      0x01\n      swap1\n      sub\n      dup2\n      dup2\n      swap1\n      0x00\n      mstore\n      keccak256(0x00, 0x20)\n      add\n      0x00\n      swap1\n      sstore\n      swap1\n      sstore\n        /* \"contracts/EnumerableSet.sol\":3860:3863  set */\n      dup7\n        /* \"contracts/EnumerableSet.sol\":3860:3872  set._indexes */\n      0x01\n      add\n        /* \"contracts/EnumerableSet.sol\":3860:3879  set._indexes[value] */\n      0x00\n        /* \"contracts/EnumerableSet.sol\":3873:3878  value */\n      dup8\n        /* \"contracts/EnumerableSet.sol\":3860:3879  set._indexes[value] */\n      dup2\n      mstore\n      0x20\n      add\n      swap1\n      dup2\n      mstore\n      0x20\n      add\n      0x00\n      keccak256\n        /* \"contracts/EnumerableSet.sol\":3853:3879  delete set._indexes[value] */\n      0x00\n      swap1\n      sstore\n        /* \"contracts/EnumerableSet.sol\":3903:3907  true */\n      0x01\n        /* \"contracts/EnumerableSet.sol\":3896:3907  return true */\n      swap5\n      pop\n      pop\n      pop\n      pop\n      pop\n      jump(tag_481)\n        /* \"contracts/EnumerableSet.sol\":2664:3964  if (valueIndex != 0) { // Equivalent to contains(set, value)\r... */\n    tag_482:\n        /* \"contracts/EnumerableSet.sol\":3947:3952  false */\n      0x00\n        /* \"contracts/EnumerableSet.sol\":3940:3952  return false */\n      swap2\n      pop\n      pop\n        /* \"contracts/EnumerableSet.sol\":2427:3971  function _remove(Set storage set, bytes32 value) private returns (bool) {\r... */\n    tag_481:\n      swap3\n      swap2\n      pop\n      pop\n      jump\t// out\n        /* \"contracts/EnumerableSet.sol\":4272:4381  function _length(Set storage set) private view returns (uint256) {\r... */\n    tag_433:\n        /* \"contracts/EnumerableSet.sol\":4328:4335  uint256 */\n      0x00\n        /* \"contracts/EnumerableSet.sol\":4355:4358  set */\n      dup2\n        /* \"contracts/EnumerableSet.sol\":4355:4366  set._values */\n      0x00\n      add\n        /* \"contracts/EnumerableSet.sol\":4355:4373  set._values.length */\n      dup1\n      sload\n      swap1\n      pop\n        /* \"contracts/EnumerableSet.sol\":4348:4373  return set._values.length */\n      swap1\n      pop\n        /* \"contracts/EnumerableSet.sol\":4272:4381  function _length(Set storage set) private view returns (uint256) {\r... */\n      swap2\n      swap1\n      pop\n      jump\t// out\n        /* \"contracts/SafeMath.sol\":3977:4255  function div(uint256 a, uint256 b, string memory errorMessage) internal pure returns (uint256) {\r... */\n    tag_440:\n        /* \"contracts/SafeMath.sol\":4063:4070  uint256 */\n      0x00\n        /* \"contracts/SafeMath.sol\":4095:4096  0 */\n      dup1\n        /* \"contracts/SafeMath.sol\":4091:4092  b */\n      dup4\n        /* \"contracts/SafeMath.sol\":4091:4096  b > 0 */\n      gt\n        /* \"contracts/SafeMath.sol\":4098:4110  errorMessage */\n      dup3\n        /* \"contracts/SafeMath.sol\":4083:4111  require(b > 0, errorMessage) */\n      swap1\n      tag_492\n      jumpi\n      mload(0x40)\n      0x08c379a000000000000000000000000000000000000000000000000000000000\n      dup2\n      mstore\n      0x04\n      add\n      dup1\n      dup1\n      0x20\n      add\n      dup3\n      dup2\n      sub\n      dup3\n      mstore\n      dup4\n      dup2\n      dup2\n      mload\n      dup2\n      mstore\n      0x20\n      add\n      swap2\n      pop\n      dup1\n      mload\n      swap1\n      0x20\n      add\n      swap1\n      dup1\n      dup4\n      dup4\n      0x00\n    tag_493:\n      dup4\n      dup2\n      lt\n      iszero\n      tag_495\n      jumpi\n      dup1\n      dup3\n      add\n      mload\n      dup2\n      dup5\n      add\n      mstore\n      0x20\n      dup2\n      add\n      swap1\n      pop\n      jump(tag_493)\n    tag_495:\n      pop\n      pop\n      pop\n      pop\n      swap1\n      pop\n      swap1\n      dup2\n      add\n      swap1\n      0x1f\n      and\n      dup1\n      iszero\n      tag_496\n      jumpi\n      dup1\n      dup3\n      sub\n      dup1\n      mload\n      0x01\n      dup4\n      0x20\n      sub\n      0x0100\n      exp\n      sub\n      not\n      and\n      dup2\n      mstore\n      0x20\n      add\n      swap2\n      pop\n    tag_496:\n      pop\n      swap3\n      pop\n      pop\n      pop\n      mload(0x40)\n      dup1\n      swap2\n      sub\n      swap1\n      revert\n    tag_492:\n      pop\n        /* \"contracts/SafeMath.sol\":4122:4131  uint256 c */\n      0x00\n        /* \"contracts/SafeMath.sol\":4138:4139  b */\n      dup4\n        /* \"contracts/SafeMath.sol\":4134:4135  a */\n      dup6\n        /* \"contracts/SafeMath.sol\":4134:4139  a / b */\n      dup2\n      tag_497\n      jumpi\n      invalid\n    tag_497:\n      div\n        /* \"contracts/SafeMath.sol\":4122:4139  uint256 c = a / b */\n      swap1\n      pop\n        /* \"contracts/SafeMath.sol\":4246:4247  c */\n      dup1\n        /* \"contracts/SafeMath.sol\":4239:4247  return c */\n      swap2\n      pop\n      pop\n        /* \"contracts/SafeMath.sol\":3977:4255  function div(uint256 a, uint256 b, string memory errorMessage) internal pure returns (uint256) {\r... */\n      swap4\n      swap3\n      pop\n      pop\n      pop\n      jump\t// out\n        /* \"contracts/EnumerableSet.sol\":4057:4186  function _contains(Set storage set, bytes32 value) private view returns (bool) {\r... */\n    tag_454:\n        /* \"contracts/EnumerableSet.sol\":4130:4134  bool */\n      0x00\n        /* \"contracts/EnumerableSet.sol\":4177:4178  0 */\n      dup1\n        /* \"contracts/EnumerableSet.sol\":4154:4157  set */\n      dup4\n        /* \"contracts/EnumerableSet.sol\":4154:4166  set._indexes */\n      0x01\n      add\n        /* \"contracts/EnumerableSet.sol\":4154:4173  set._indexes[value] */\n      0x00\n        /* \"contracts/EnumerableSet.sol\":4167:4172  value */\n      dup5\n        /* \"contracts/EnumerableSet.sol\":4154:4173  set._indexes[value] */\n      dup2\n      mstore\n      0x20\n      add\n      swap1\n      dup2\n      mstore\n      0x20\n      add\n      0x00\n      keccak256\n      sload\n        /* \"contracts/EnumerableSet.sol\":4154:4178  set._indexes[value] != 0 */\n      eq\n      iszero\n        /* \"contracts/EnumerableSet.sol\":4147:4178  return set._indexes[value] != 0 */\n      swap1\n      pop\n        /* \"contracts/EnumerableSet.sol\":4057:4186  function _contains(Set storage set, bytes32 value) private view returns (bool) {\r... */\n      swap3\n      swap2\n      pop\n      pop\n      jump\t// out\n        /* \"contracts/EnumerableSet.sol\":1837:2251  function _add(Set storage set, bytes32 value) private returns (bool) {\r... */\n    tag_468:\n        /* \"contracts/EnumerableSet.sol\":1900:1904  bool */\n      0x00\n        /* \"contracts/EnumerableSet.sol\":1922:1943  _contains(set, value) */\n      tag_500\n        /* \"contracts/EnumerableSet.sol\":1932:1935  set */\n      dup4\n        /* \"contracts/EnumerableSet.sol\":1937:1942  value */\n      dup4\n        /* \"contracts/EnumerableSet.sol\":1922:1931  _contains */\n      tag_454\n        /* \"contracts/EnumerableSet.sol\":1922:1943  _contains(set, value) */\n      jump\t// in\n    tag_500:\n        /* \"contracts/EnumerableSet.sol\":1917:2244  if (!_contains(set, value)) {\r... */\n      tag_501\n      jumpi\n        /* \"contracts/EnumerableSet.sol\":1960:1963  set */\n      dup3\n        /* \"contracts/EnumerableSet.sol\":1960:1971  set._values */\n      0x00\n      add\n        /* \"contracts/EnumerableSet.sol\":1977:1982  value */\n      dup3\n        /* \"contracts/EnumerableSet.sol\":1960:1983  set._values.push(value) */\n      swap1\n      dup1\n      0x01\n      dup2\n      sload\n      add\n      dup1\n      dup3\n      sstore\n      dup1\n      swap2\n      pop\n      pop\n      0x01\n      swap1\n      sub\n      swap1\n      0x00\n      mstore\n      keccak256(0x00, 0x20)\n      add\n      0x00\n      swap1\n      swap2\n      swap1\n      swap2\n      swap1\n      swap2\n      pop\n      sstore\n        /* \"contracts/EnumerableSet.sol\":2143:2146  set */\n      dup3\n        /* \"contracts/EnumerableSet.sol\":2143:2154  set._values */\n      0x00\n      add\n        /* \"contracts/EnumerableSet.sol\":2143:2161  set._values.length */\n      dup1\n      sload\n      swap1\n      pop\n        /* \"contracts/EnumerableSet.sol\":2121:2124  set */\n      dup4\n        /* \"contracts/EnumerableSet.sol\":2121:2133  set._indexes */\n      0x01\n      add\n        /* \"contracts/EnumerableSet.sol\":2121:2140  set._indexes[value] */\n      0x00\n        /* \"contracts/EnumerableSet.sol\":2134:2139  value */\n      dup5\n        /* \"contracts/EnumerableSet.sol\":2121:2140  set._indexes[value] */\n      dup2\n      mstore\n      0x20\n      add\n      swap1\n      dup2\n      mstore\n      0x20\n      add\n      0x00\n      keccak256\n        /* \"contracts/EnumerableSet.sol\":2121:2161  set._indexes[value] = set._values.length */\n      dup2\n      swap1\n      sstore\n      pop\n        /* \"contracts/EnumerableSet.sol\":2183:2187  true */\n      0x01\n        /* \"contracts/EnumerableSet.sol\":2176:2187  return true */\n      swap1\n      pop\n      jump(tag_499)\n        /* \"contracts/EnumerableSet.sol\":1917:2244  if (!_contains(set, value)) {\r... */\n    tag_501:\n        /* \"contracts/EnumerableSet.sol\":2227:2232  false */\n      0x00\n        /* \"contracts/EnumerableSet.sol\":2220:2232  return false */\n      swap1\n      pop\n        /* \"contracts/EnumerableSet.sol\":1837:2251  function _add(Set storage set, bytes32 value) private returns (bool) {\r... */\n    tag_499:\n      swap3\n      swap2\n      pop\n      pop\n      jump\t// out\n    tag_198:\n      mload(0x40)\n      dup1\n      0xc0\n      add\n      0x40\n      mstore\n      dup1\n      0x00\n      dup2\n      mstore\n      0x20\n      add\n      0x00\n      dup2\n      mstore\n      0x20\n      add\n      0x00\n      dup2\n      mstore\n      0x20\n      add\n      0x00\n      dup2\n      mstore\n      0x20\n      add\n      0x00\n      dup2\n      mstore\n      0x20\n      add\n      and(0xffffffffffffffffffffffffffffffffffffffff, 0x00)\n      dup2\n      mstore\n      pop\n      swap1\n      jump\t// out\n    stop\n    data_045d6834e6193a687012a3ad777f612279e549b6945364d9d2324f48610d3cbb 456e756d657261626c655365743a20696e646578206f7574206f6620626f756e6473\n    data_245f15ff17f551913a7a18385165551503906a406f905ac1c2437281a7cd0cfe 4f776e61626c653a206e6577206f776e657220697320746865207a65726f2061646472657373\n    data_9113bb53c2876a3805b2c9242029423fc540a728243ce887ab24c82cf119fba3 536166654d6174683a206d756c7469706c69636174696f6e206f766572666c6f77\n    data_eb2904bf3c0c9ae693b53eb0188a703c388998a9c405b7965ca678cef9a51d18 5472616e7366657248656c7065723a205452414e534645525f46524f4d5f4641494c4544\n\n    auxdata: 0xa2646970667358221220ce3645883748c9ea0bc9290b95ae1d582c95d1ccf1cca8429b0b7b75d2ec436e64736f6c634300060c0033\n}\n",
				"bytecode": {
					"linkReferences": {},
					"object": "60806040523480156200001157600080fd5b506040516200571e3803806200571e833981810160405260208110156200003757600080fd5b810190808051906020019092919050505060006200005a620001ea60201b60201c565b9050806000806101000a81548173ffffffffffffffffffffffffffffffffffffffff021916908373ffffffffffffffffffffffffffffffffffffffff1602179055508073ffffffffffffffffffffffffffffffffffffffff16600073ffffffffffffffffffffffffffffffffffffffff167f8be0079c531659141344cd1fd0a4f28419497f9722a3daafe3b4186f6b6457e060405160405180910390a3506001808190555033601260006101000a81548173ffffffffffffffffffffffffffffffffffffffff021916908373ffffffffffffffffffffffffffffffffffffffff16021790555060fa600760050181905550670de0b6b3a764000060076000018190555068056bc75e2d6310000060076002018190555060c8600760030181905550600a600760040181905550678ac7230489e800006007800181905550606460076008018190555080600260006101000a81548173ffffffffffffffffffffffffffffffffffffffff021916908373ffffffffffffffffffffffffffffffffffffffff16021790555050620001f2565b600033905090565b61551c80620002026000396000f3fe6080604052600436106101c25760003560e01c80638da5cb5b116100f7578063b9863a4411610095578063d4ff493f11610064578063d4ff493f14610b87578063ee42427814610c4f578063f02c264314610cbe578063f2fde38b14610d19576101c2565b8063b9863a44146109a2578063bef497fd14610a09578063ccebfa3f14610a8e578063d477f05f14610b36576101c2565b806391ff1eb1116100d157806391ff1eb1146107ec578063a396981514610849578063a69d9c4f146108ae578063a9b07cea14610933576101c2565b80638da5cb5b14610697578063903df806146106d857806390e1a0031461075d576101c2565b8063715018a6116101645780638931a4be1161013e5780638931a4be146104fc5780638af416f61461054d5780638bdb2afa146105f15780638c301df814610632576101c2565b8063715018a61461044d578063783451e81461046457806386f6c3c11461048f576101c2565b80634532d776116101a05780634532d776146102e25780634bb18e3f14610351578063582d5adc1461037c57806360491d24146103de576101c2565b806314dd79a3146101c75780631f2a1d2f1461022c57806323cf311814610291575b600080fd5b3480156101d357600080fd5b50610200600480360360208110156101ea57600080fd5b8101908080359060200190929190505050610d6a565b604051808273ffffffffffffffffffffffffffffffffffffffff16815260200191505060405180910390f35b34801561023857600080fd5b5061027b6004803603602081101561024f57600080fd5b81019080803573ffffffffffffffffffffffffffffffffffffffff169060200190929190505050610d87565b6040518082815260200191505060405180910390f35b34801561029d57600080fd5b506102e0600480360360208110156102b457600080fd5b81019080803573ffffffffffffffffffffffffffffffffffffffff169060200190929190505050610dd3565b005b3480156102ee57600080fd5b5061034f6004803603608081101561030557600080fd5b81019080803573ffffffffffffffffffffffffffffffffffffffff169060200190929190803590602001909291908035906020019092919080359060200190929190505050610edf565b005b34801561035d57600080fd5b506103666113ef565b6040518082815260200191505060405180910390f35b6103dc6004803603608081101561039257600080fd5b81019080803573ffffffffffffffffffffffffffffffffffffffff169060200190929190803590602001909291908035906020019092919080359060200190929190505050611400565b005b3480156103ea57600080fd5b5061044b6004803603608081101561040157600080fd5b81019080803573ffffffffffffffffffffffffffffffffffffffff169060200190929190803590602001909291908035906020019092919080359060200190929190505050611a29565b005b34801561045957600080fd5b50610462611e01565b005b34801561047057600080fd5b50610479611f87565b6040518082815260200191505060405180910390f35b34801561049b57600080fd5b506104fa600480360360c08110156104b257600080fd5b81019080803590602001909291908035906020019092919080359060200190929190803590602001909291908035906020019092919080359060200190929190505050611f98565b005b34801561050857600080fd5b5061054b6004803603602081101561051f57600080fd5b81019080803573ffffffffffffffffffffffffffffffffffffffff1690602001909291905050506120a4565b005b6105ef600480360360c081101561056357600080fd5b81019080803573ffffffffffffffffffffffffffffffffffffffff1690602001909291908035906020019092919080359060200190929190803573ffffffffffffffffffffffffffffffffffffffff169060200190929190803515159060200190929190803573ffffffffffffffffffffffffffffffffffffffff1690602001909291905050506121b3565b005b3480156105fd57600080fd5b5061060661303d565b604051808273ffffffffffffffffffffffffffffffffffffffff16815260200191505060405180910390f35b34801561063e57600080fd5b5061066b6004803603602081101561065557600080fd5b8101908080359060200190929190505050613063565b604051808273ffffffffffffffffffffffffffffffffffffffff16815260200191505060405180910390f35b3480156106a357600080fd5b506106ac613080565b604051808273ffffffffffffffffffffffffffffffffffffffff16815260200191505060405180910390f35b3480156106e457600080fd5b50610731600480360360408110156106fb57600080fd5b81019080803573ffffffffffffffffffffffffffffffffffffffff169060200190929190803590602001909291905050506130a9565b604051808273ffffffffffffffffffffffffffffffffffffffff16815260200191505060405180910390f35b34801561076957600080fd5b5061077261310c565b604051808a81526020018973ffffffffffffffffffffffffffffffffffffffff1681526020018881526020018781526020018681526020018581526020018473ffffffffffffffffffffffffffffffffffffffff168152602001838152602001828152602001995050505050505050505060405180910390f35b3480156107f857600080fd5b506108476004803603604081101561080f57600080fd5b81019080803573ffffffffffffffffffffffffffffffffffffffff169060200190929190803515159060200190929190505050613188565b005b34801561085557600080fd5b506108986004803603602081101561086c57600080fd5b81019080803573ffffffffffffffffffffffffffffffffffffffff16906020019092919050505061328a565b6040518082815260200191505060405180910390f35b3480156108ba57600080fd5b5061091d600480360360408110156108d157600080fd5b81019080803573ffffffffffffffffffffffffffffffffffffffff169060200190929190803573ffffffffffffffffffffffffffffffffffffffff1690602001909291905050506132e2565b6040518082815260200191505060405180910390f35b34801561093f57600080fd5b506109a06004803603608081101561095657600080fd5b81019080803573ffffffffffffffffffffffffffffffffffffffff169060200190929190803590602001909291908035906020019092919080359060200190929190505050613374565b005b3480156109ae57600080fd5b506109f1600480360360208110156109c557600080fd5b81019080803573ffffffffffffffffffffffffffffffffffffffff16906020019092919050505061376b565b60405180821515815260200191505060405180910390f35b348015610a1557600080fd5b50610a8c60048036036080811015610a2c57600080fd5b81019080803573ffffffffffffffffffffffffffffffffffffffff1690602001909291908035906020019092919080359060200190929190803573ffffffffffffffffffffffffffffffffffffffff169060200190929190505050613788565b005b348015610a9a57600080fd5b50610ae760048036036040811015610ab157600080fd5b81019080803573ffffffffffffffffffffffffffffffffffffffff16906020019092919080359060200190929190505050613c46565b604051808781526020018681526020018581526020018481526020018381526020018273ffffffffffffffffffffffffffffffffffffffff168152602001965050505050505060405180910390f35b348015610b4257600080fd5b50610b8560048036036020811015610b5957600080fd5b81019080803573ffffffffffffffffffffffffffffffffffffffff169060200190929190505050613cbc565b005b348015610b9357600080fd5b50610c0060048036036060811015610baa57600080fd5b81019080803573ffffffffffffffffffffffffffffffffffffffff169060200190929190803573ffffffffffffffffffffffffffffffffffffffff16906020019092919080359060200190929190505050613dc8565b604051808781526020018681526020018581526020018481526020018381526020018273ffffffffffffffffffffffffffffffffffffffff168152602001965050505050505060405180910390f35b348015610c5b57600080fd5b50610cbc60048036036080811015610c7257600080fd5b81019080803573ffffffffffffffffffffffffffffffffffffffff169060200190929190803590602001909291908035906020019092919080359060200190929190505050613f1e565b005b348015610cca57600080fd5b50610d1760048036036040811015610ce157600080fd5b81019080803573ffffffffffffffffffffffffffffffffffffffff16906020019092919080359060200190929190505050614540565b005b348015610d2557600080fd5b50610d6860048036036020811015610d3c57600080fd5b81019080803573ffffffffffffffffffffffffffffffffffffffff169060200190929190505050614659565b005b6000610d8082600461486490919063ffffffff16565b9050919050565b6000600660008373ffffffffffffffffffffffffffffffffffffffff1673ffffffffffffffffffffffffffffffffffffffff168152602001908152602001600020805490509050919050565b610ddb61487e565b73ffffffffffffffffffffffffffffffffffffffff1660008054906101000a900473ffffffffffffffffffffffffffffffffffffffff1673ffffffffffffffffffffffffffffffffffffffff1614610e9b576040517f08c379a00000000000000000000000000000000000000000000000000000000081526004018080602001828103825260208152602001807f4f776e61626c653a2063616c6c6572206973206e6f7420746865206f776e657281525060200191505060405180910390fd5b80601360006101000a81548173ffffffffffffffffffffffffffffffffffffffff021916908373ffffffffffffffffffffffffffffffffffffffff16021790555050565b60026001541415610f58576040517f08c379a000000000000000000000000000000000000000000000000000000000815260040180806020018281038252601f8152602001807f5265656e7472616e637947756172643a207265656e7472616e742063616c6c0081525060200191505060405180910390fd5b600260018190555060008111610fd6576040517f08c379a000000000000000000000000000000000000000000000000000000000815260040180806020018281038252600e8152602001807f5a45524f2057495448445241574c00000000000000000000000000000000000081525060200191505060405180910390fd5b6000600360003373ffffffffffffffffffffffffffffffffffffffff1673ffffffffffffffffffffffffffffffffffffffff16815260200190815260200160002060020160008673ffffffffffffffffffffffffffffffffffffffff1673ffffffffffffffffffffffffffffffffffffffff168152602001908152602001600020848154811061106257fe5b906000526020600020015490506000600660008773ffffffffffffffffffffffffffffffffffffffff1673ffffffffffffffffffffffffffffffffffffffff16815260200190815260200160002082815481106110bb57fe5b90600052602060002090600602019050838214801561112957503373ffffffffffffffffffffffffffffffffffffffff168160050160009054906101000a900473ffffffffffffffffffffffffffffffffffffffff1673ffffffffffffffffffffffffffffffffffffffff16145b61119b576040517f08c379a000000000000000000000000000000000000000000000000000000000815260040180806020018281038252600d8152602001807f4c4f434b204d49534d415443480000000000000000000000000000000000000081525060200191505060405180910390fd5b42816003015410611214576040517f08c379a00000000000000000000000000000000000000000000000000000000081526004018080602001828103825260078152602001807f4e4f54205945540000000000000000000000000000000000000000000000000081525060200191505060405180910390fd5b61122b83826001015461488690919063ffffffff16565b8160010181905550600081600101541415611380576000600360003373ffffffffffffffffffffffffffffffffffffffff1673ffffffffffffffffffffffffffffffffffffffff16815260200190815260200160002060020160008873ffffffffffffffffffffffffffffffffffffffff1673ffffffffffffffffffffffffffffffffffffffff1681526020019081526020016000209050806001828054905003815481106112d657fe5b90600052602060002001548187815481106112ed57fe5b90600052602060002001819055508080548061130557fe5b6001900381819060005260206000200160009055905560008180549050141561137e5761137c87600360003373ffffffffffffffffffffffffffffffffffffffff1673ffffffffffffffffffffffffffffffffffffffff1681526020019081526020016000206000016148d090919063ffffffff16565b505b505b61138b863385614900565b7fccad973dcd043c7d680389db4378bd6b9775db7124092e9e0422c9e46d7985dc8684604051808373ffffffffffffffffffffffffffffffffffffffff1681526020018281526020019250505060405180910390a150506001808190555050505050565b60006113fb6010614ae3565b905090565b60026001541415611479576040517f08c379a000000000000000000000000000000000000000000000000000000000815260040180806020018281038252601f8152602001807f5265656e7472616e637947756172643a207265656e7472616e742063616c6c0081525060200191505060405180910390fd5b6002600181905550600081116114f7576040517f08c379a000000000000000000000000000000000000000000000000000000000815260040180806020018281038252600b8152602001807f5a45524f20414d4f554e5400000000000000000000000000000000000000000081525060200191505060405180910390fd5b6000600360003373ffffffffffffffffffffffffffffffffffffffff1673ffffffffffffffffffffffffffffffffffffffff16815260200190815260200160002060020160008673ffffffffffffffffffffffffffffffffffffffff1673ffffffffffffffffffffffffffffffffffffffff168152602001908152602001600020848154811061158357fe5b906000526020600020015490506000600660008773ffffffffffffffffffffffffffffffffffffffff1673ffffffffffffffffffffffffffffffffffffffff16815260200190815260200160002082815481106115dc57fe5b90600052602060002090600602019050838214801561164a57503373ffffffffffffffffffffffffffffffffffffffff168160050160009054906101000a900473ffffffffffffffffffffffffffffffffffffffff1673ffffffffffffffffffffffffffffffffffffffff16145b6116bc576040517f08c379a000000000000000000000000000000000000000000000000000000000815260040180806020018281038252600d8152602001807f4c4f434b204d49534d415443480000000000000000000000000000000000000081525060200191505060405180910390fd5b6007600001543414611736576040517f08c379a000000000000000000000000000000000000000000000000000000000815260040180806020018281038252600b8152602001807f464545204e4f54204d455400000000000000000000000000000000000000000081525060200191505060405180910390fd5b601260009054906101000a900473ffffffffffffffffffffffffffffffffffffffff1673ffffffffffffffffffffffffffffffffffffffff166108fc6007600001549081150290604051600060405180830381858888f193505050501580156117a3573d6000803e3d6000fd5b506117bb83826001015461488690919063ffffffff16565b81600101819055506117cb61540d565b816000015481600001818152505083816020018181525050838160400181815250508160030154816060018181525050600660008873ffffffffffffffffffffffffffffffffffffffff1673ffffffffffffffffffffffffffffffffffffffff16815260200190815260200160002080549050816080018181525050338160a0019073ffffffffffffffffffffffffffffffffffffffff16908173ffffffffffffffffffffffffffffffffffffffff1681525050600660008873ffffffffffffffffffffffffffffffffffffffff1673ffffffffffffffffffffffffffffffffffffffff168152602001908152602001600020819080600181540180825580915050600190039060005260206000209060060201600090919091909150600082015181600001556020820151816001015560408201518160020155606082015181600301556080820151816004015560a08201518160050160006101000a81548173ffffffffffffffffffffffffffffffffffffffff021916908373ffffffffffffffffffffffffffffffffffffffff16021790555050506000600360003373ffffffffffffffffffffffffffffffffffffffff1673ffffffffffffffffffffffffffffffffffffffff168152602001908152602001600020905060008160020160008a73ffffffffffffffffffffffffffffffffffffffff1673ffffffffffffffffffffffffffffffffffffffff1681526020019081526020016000209050808360800151908060018154018082558091505060019003906000526020600020016000909190919091505550505050506001808190555050505050565b60026001541415611aa2576040517f08c379a000000000000000000000000000000000000000000000000000000000815260040180806020018281038252601f8152602001807f5265656e7472616e637947756172643a207265656e7472616e742063616c6c0081525060200191505060405180910390fd5b60026001819055506402540be4008110611b24576040517f08c379a00000000000000000000000000000000000000000000000000000000081526004018080602001828103825260118152602001807f54494d455354414d5020494e56414c494400000000000000000000000000000081525060200191505060405180910390fd5b6000600360003373ffffffffffffffffffffffffffffffffffffffff1673ffffffffffffffffffffffffffffffffffffffff16815260200190815260200160002060020160008673ffffffffffffffffffffffffffffffffffffffff1673ffffffffffffffffffffffffffffffffffffffff1681526020019081526020016000208481548110611bb057fe5b906000526020600020015490506000600660008773ffffffffffffffffffffffffffffffffffffffff1673ffffffffffffffffffffffffffffffffffffffff1681526020019081526020016000208281548110611c0957fe5b906000526020600020906006020190508382148015611c7757503373ffffffffffffffffffffffffffffffffffffffff168160050160009054906101000a900473ffffffffffffffffffffffffffffffffffffffff1673ffffffffffffffffffffffffffffffffffffffff16145b611ce9576040517f08c379a000000000000000000000000000000000000000000000000000000000815260040180806020018281038252600d8152602001807f4c4f434b204d49534d415443480000000000000000000000000000000000000081525060200191505060405180910390fd5b82816003015410611d62576040517f08c379a000000000000000000000000000000000000000000000000000000000815260040180806020018281038252600d8152602001807f554e4c4f434b204245464f52450000000000000000000000000000000000000081525060200191505060405180910390fd5b6000611d946103e8611d866007600401548560010154614af890919063ffffffff16565b614b7e90919063ffffffff16565b90506000611daf82846001015461488690919063ffffffff16565b9050808360010181905550848360030181905550611df088601260009054906101000a900473ffffffffffffffffffffffffffffffffffffffff1684614900565b505050506001808190555050505050565b611e0961487e565b73ffffffffffffffffffffffffffffffffffffffff1660008054906101000a900473ffffffffffffffffffffffffffffffffffffffff1673ffffffffffffffffffffffffffffffffffffffff1614611ec9576040517f08c379a00000000000000000000000000000000000000000000000000000000081526004018080602001828103825260208152602001807f4f776e61626c653a2063616c6c6572206973206e6f7420746865206f776e657281525060200191505060405180910390fd5b600073ffffffffffffffffffffffffffffffffffffffff1660008054906101000a900473ffffffffffffffffffffffffffffffffffffffff1673ffffffffffffffffffffffffffffffffffffffff167f8be0079c531659141344cd1fd0a4f28419497f9722a3daafe3b4186f6b6457e060405160405180910390a360008060006101000a81548173ffffffffffffffffffffffffffffffffffffffff021916908373ffffffffffffffffffffffffffffffffffffffff160217905550565b6000611f936004614ae3565b905090565b611fa061487e565b73ffffffffffffffffffffffffffffffffffffffff1660008054906101000a900473ffffffffffffffffffffffffffffffffffffffff1673ffffffffffffffffffffffffffffffffffffffff1614612060576040517f08c379a00000000000000000000000000000000000000000000000000000000081526004018080602001828103825260208152602001807f4f776e61626c653a2063616c6c6572206973206e6f7420746865206f776e657281525060200191505060405180910390fd5b856007600501819055508460076008018190555083600760000181905550826007600201819055508160076003018190555080600760040181905550505050505050565b6120ac61487e565b73ffffffffffffffffffffffffffffffffffffffff1660008054906101000a900473ffffffffffffffffffffffffffffffffffffffff1673ffffffffffffffffffffffffffffffffffffffff161461216c576040517f08c379a00000000000000000000000000000000000000000000000000000000081526004018080602001828103825260208152602001807f4f776e61626c653a2063616c6c6572206973206e6f7420746865206f776e657281525060200191505060405180910390fd5b80600760010160006101000a81548173ffffffffffffffffffffffffffffffffffffffff021916908373ffffffffffffffffffffffffffffffffffffffff16021790555050565b6002600154141561222c576040517f08c379a000000000000000000000000000000000000000000000000000000000815260040180806020018281038252601f8152602001807f5265656e7472616e637947756172643a207265656e7472616e742063616c6c0081525060200191505060405180910390fd5b60026001819055506402540be40084106122ae576040517f08c379a00000000000000000000000000000000000000000000000000000000081526004018080602001828103825260118152602001807f54494d455354414d5020494e56414c494400000000000000000000000000000081525060200191505060405180910390fd5b60008511612324576040517f08c379a000000000000000000000000000000000000000000000000000000000815260040180806020018281038252600c8152602001807f494e53554646494349454e54000000000000000000000000000000000000000081525060200191505060405180910390fd5b60008690506000600260009054906101000a900473ffffffffffffffffffffffffffffffffffffffff1673ffffffffffffffffffffffffffffffffffffffff1663e6a439058373ffffffffffffffffffffffffffffffffffffffff16630dfe16816040518163ffffffff1660e01b815260040160206040518083038186803b1580156123af57600080fd5b505afa1580156123c3573d6000803e3d6000fd5b505050506040513d60208110156123d957600080fd5b81019080805190602001909291905050508473ffffffffffffffffffffffffffffffffffffffff1663d21220a76040518163ffffffff1660e01b815260040160206040518083038186803b15801561243057600080fd5b505afa158015612444573d6000803e3d6000fd5b505050506040513d602081101561245a57600080fd5b81019080805190602001909291905050506040518363ffffffff1660e01b8152600401808373ffffffffffffffffffffffffffffffffffffffff1681526020018273ffffffffffffffffffffffffffffffffffffffff1681526020019250505060206040518083038186803b1580156124d257600080fd5b505afa1580156124e6573d6000803e3d6000fd5b505050506040513d60208110156124fc57600080fd5b810190808051906020019092919050505090508773ffffffffffffffffffffffffffffffffffffffff168173ffffffffffffffffffffffffffffffffffffffff16146125b0576040517f08c379a00000000000000000000000000000000000000000000000000000000081526004018080602001828103825260098152602001807f4e4f5420554e495632000000000000000000000000000000000000000000000081525060200191505060405180910390fd5b6125bc8833308a614bc8565b600073ffffffffffffffffffffffffffffffffffffffff168573ffffffffffffffffffffffffffffffffffffffff161415801561264b5750600073ffffffffffffffffffffffffffffffffffffffff16600760060160009054906101000a900473ffffffffffffffffffffffffffffffffffffffff1673ffffffffffffffffffffffffffffffffffffffff1614155b15612791576007800154600760060160009054906101000a900473ffffffffffffffffffffffffffffffffffffffff1673ffffffffffffffffffffffffffffffffffffffff166370a08231876040518263ffffffff1660e01b8152600401808273ffffffffffffffffffffffffffffffffffffffff16815260200191505060206040518083038186803b1580156126e157600080fd5b505afa1580156126f5573d6000803e3d6000fd5b505050506040513d602081101561270b57600080fd5b81019080805190602001909291905050501015612790576040517f08c379a00000000000000000000000000000000000000000000000000000000081526004018080602001828103825260128152602001807f494e41444551554154452042414c414e4345000000000000000000000000000081525060200191505060405180910390fd5b5b6127a5336010614dad90919063ffffffff16565b612c035783156129db5760006007600001549050600073ffffffffffffffffffffffffffffffffffffffff168673ffffffffffffffffffffffffffffffffffffffff16146128205761281d6103e861280f6007600801546103e80384614af890919063ffffffff16565b614b7e90919063ffffffff16565b90505b803414612895576040517f08c379a000000000000000000000000000000000000000000000000000000000815260040180806020018281038252600b8152602001807f464545204e4f54204d455400000000000000000000000000000000000000000081525060200191505060405180910390fd5b6000819050600082141580156128d85750600073ffffffffffffffffffffffffffffffffffffffff168773ffffffffffffffffffffffffffffffffffffffff1614155b1561296b57600061290b6103e86128fd60076005015485614af890919063ffffffff16565b614b7e90919063ffffffff16565b90508773ffffffffffffffffffffffffffffffffffffffff166108fc829081150290604051600060405180830381858888f19350505050158015612953573d6000803e3d6000fd5b50612967818361488690919063ffffffff16565b9150505b601260009054906101000a900473ffffffffffffffffffffffffffffffffffffffff1673ffffffffffffffffffffffffffffffffffffffff166108fc829081150290604051600060405180830381858888f193505050501580156129d3573d6000803e3d6000fd5b505050612bfe565b60006007600201549050600073ffffffffffffffffffffffffffffffffffffffff168673ffffffffffffffffffffffffffffffffffffffff1614612a4c57612a496103e8612a3b6007600801546103e80384614af890919063ffffffff16565b614b7e90919063ffffffff16565b90505b612a7d600760010160009054906101000a900473ffffffffffffffffffffffffffffffffffffffff16333084614bc8565b600060076005015414158015612ac05750600073ffffffffffffffffffffffffffffffffffffffff168673ffffffffffffffffffffffffffffffffffffffff1614155b15612b6c576000612af36103e8612ae560076005015485614af890919063ffffffff16565b614b7e90919063ffffffff16565b9050612b25600760010160009054906101000a900473ffffffffffffffffffffffffffffffffffffffff168883614ddd565b612b55600760010160009054906101000a900473ffffffffffffffffffffffffffffffffffffffff168883614900565b612b68818361488690919063ffffffff16565b9150505b600760010160009054906101000a900473ffffffffffffffffffffffffffffffffffffffff1673ffffffffffffffffffffffffffffffffffffffff166342966c68826040518263ffffffff1660e01b815260040180828152602001915050600060405180830381600087803b158015612be457600080fd5b505af1158015612bf8573d6000803e3d6000fd5b50505050505b612c55565b6000341115612c54573373ffffffffffffffffffffffffffffffffffffffff166108fc349081150290604051600060405180830381858888f19350505050158015612c52573d6000803e3d6000fd5b505b5b6000612c836103e8612c756007600401548b614af890919063ffffffff16565b614b7e90919063ffffffff16565b905084158015612ca45750612ca2336010614dad90919063ffffffff16565b155b15612cdc57612cd96103e8612ccb6007600301546103e80384614af890919063ffffffff16565b614b7e90919063ffffffff16565b90505b612d0989601260009054906101000a900473ffffffffffffffffffffffffffffffffffffffff1683614900565b6000612d1e828a61488690919063ffffffff16565b9050612d2861540d565b42816000018181525050818160200181815250508181604001818152505088816060018181525050600660008c73ffffffffffffffffffffffffffffffffffffffff1673ffffffffffffffffffffffffffffffffffffffff16815260200190815260200160002080549050816080018181525050858160a0019073ffffffffffffffffffffffffffffffffffffffff16908173ffffffffffffffffffffffffffffffffffffffff1681525050600660008c73ffffffffffffffffffffffffffffffffffffffff1673ffffffffffffffffffffffffffffffffffffffff168152602001908152602001600020819080600181540180825580915050600190039060005260206000209060060201600090919091909150600082015181600001556020820151816001015560408201518160020155606082015181600301556080820151816004015560a08201518160050160006101000a81548173ffffffffffffffffffffffffffffffffffffffff021916908373ffffffffffffffffffffffffffffffffffffffff1602179055505050612ecc8b6004614fc090919063ffffffff16565b506000600360008873ffffffffffffffffffffffffffffffffffffffff1673ffffffffffffffffffffffffffffffffffffffff1681526020019081526020016000209050612f268c82600001614fc090919063ffffffff16565b5060008160020160008e73ffffffffffffffffffffffffffffffffffffffff1673ffffffffffffffffffffffffffffffffffffffff168152602001908152602001600020905080836080015190806001815401808255809150506001900390600052602060002001600090919091909150557f830357565da6ecfc26d8d9f69df488ed6f70361af9a07e570544aeb5c5e765e58d33856020015186600001518760600151604051808673ffffffffffffffffffffffffffffffffffffffff1681526020018573ffffffffffffffffffffffffffffffffffffffff1681526020018481526020018381526020018281526020019550505050505060405180910390a15050505050505060018081905550505050505050565b600260009054906101000a900473ffffffffffffffffffffffffffffffffffffffff1681565b600061307982601061486490919063ffffffff16565b9050919050565b60008060009054906101000a900473ffffffffffffffffffffffffffffffffffffffff16905090565b600080600360008573ffffffffffffffffffffffffffffffffffffffff1673ffffffffffffffffffffffffffffffffffffffff1681526020019081526020016000209050613103838260000161486490919063ffffffff16565b91505092915050565b60078060000154908060010160009054906101000a900473ffffffffffffffffffffffffffffffffffffffff16908060020154908060030154908060040154908060050154908060060160009054906101000a900473ffffffffffffffffffffffffffffffffffffffff16908060070154908060080154905089565b61319061487e565b73ffffffffffffffffffffffffffffffffffffffff1660008054906101000a900473ffffffffffffffffffffffffffffffffffffffff1673ffffffffffffffffffffffffffffffffffffffff1614613250576040517f08c379a00000000000000000000000000000000000000000000000000000000081526004018080602001828103825260208152602001807f4f776e61626c653a2063616c6c6572206973206e6f7420746865206f776e657281525060200191505060405180910390fd5b80156132705761326a826010614fc090919063ffffffff16565b50613286565b6132848260106148d090919063ffffffff16565b505b5050565b600080600360008473ffffffffffffffffffffffffffffffffffffffff1673ffffffffffffffffffffffffffffffffffffffff16815260200190815260200160002090506132da81600001614ae3565b915050919050565b600080600360008573ffffffffffffffffffffffffffffffffffffffff1673ffffffffffffffffffffffffffffffffffffffff16815260200190815260200160002090508060020160008473ffffffffffffffffffffffffffffffffffffffff1673ffffffffffffffffffffffffffffffffffffffff1681526020019081526020016000208054905091505092915050565b600260015414156133ed576040517f08c379a000000000000000000000000000000000000000000000000000000000815260040180806020018281038252601f8152602001807f5265656e7472616e637947756172643a207265656e7472616e742063616c6c0081525060200191505060405180910390fd5b60026001819055506000811161346b576040517f08c379a000000000000000000000000000000000000000000000000000000000815260040180806020018281038252600b8152602001807f5a45524f20414d4f554e5400000000000000000000000000000000000000000081525060200191505060405180910390fd5b6000600360003373ffffffffffffffffffffffffffffffffffffffff1673ffffffffffffffffffffffffffffffffffffffff16815260200190815260200160002060020160008673ffffffffffffffffffffffffffffffffffffffff1673ffffffffffffffffffffffffffffffffffffffff16815260200190815260200160002084815481106134f757fe5b906000526020600020015490506000600660008773ffffffffffffffffffffffffffffffffffffffff1673ffffffffffffffffffffffffffffffffffffffff168152602001908152602001600020828154811061355057fe5b9060005260206000209060060201905083821480156135be57503373ffffffffffffffffffffffffffffffffffffffff168160050160009054906101000a900473ffffffffffffffffffffffffffffffffffffffff1673ffffffffffffffffffffffffffffffffffffffff16145b613630576040517f08c379a000000000000000000000000000000000000000000000000000000000815260040180806020018281038252600d8152602001807f4c4f434b204d49534d415443480000000000000000000000000000000000000081525060200191505060405180910390fd5b61363c86333086614bc8565b600061366a6103e861365c60076004015487614af890919063ffffffff16565b614b7e90919063ffffffff16565b905061369987601260009054906101000a900473ffffffffffffffffffffffffffffffffffffffff1683614900565b60006136ae828661488690919063ffffffff16565b90506136c7818460010154614ff090919063ffffffff16565b83600101819055507f830357565da6ecfc26d8d9f69df488ed6f70361af9a07e570544aeb5c5e765e588338386600001548760030154604051808673ffffffffffffffffffffffffffffffffffffffff1681526020018573ffffffffffffffffffffffffffffffffffffffff1681526020018481526020018381526020018281526020019550505050505060405180910390a1505050506001808190555050505050565b6000613781826010614dad90919063ffffffff16565b9050919050565b8073ffffffffffffffffffffffffffffffffffffffff163373ffffffffffffffffffffffffffffffffffffffff16141561382a576040517f08c379a00000000000000000000000000000000000000000000000000000000081526004018080602001828103825260058152602001807f4f574e455200000000000000000000000000000000000000000000000000000081525060200191505060405180910390fd5b6000600360003373ffffffffffffffffffffffffffffffffffffffff1673ffffffffffffffffffffffffffffffffffffffff16815260200190815260200160002060020160008673ffffffffffffffffffffffffffffffffffffffff1673ffffffffffffffffffffffffffffffffffffffff16815260200190815260200160002084815481106138b657fe5b906000526020600020015490506000600660008773ffffffffffffffffffffffffffffffffffffffff1673ffffffffffffffffffffffffffffffffffffffff168152602001908152602001600020828154811061390f57fe5b90600052602060002090600602019050838214801561397d57503373ffffffffffffffffffffffffffffffffffffffff168160050160009054906101000a900473ffffffffffffffffffffffffffffffffffffffff1673ffffffffffffffffffffffffffffffffffffffff16145b6139ef576040517f08c379a000000000000000000000000000000000000000000000000000000000815260040180806020018281038252600d8152602001807f4c4f434b204d49534d415443480000000000000000000000000000000000000081525060200191505060405180910390fd5b6000600360008573ffffffffffffffffffffffffffffffffffffffff1673ffffffffffffffffffffffffffffffffffffffff1681526020019081526020016000209050613a488782600001614fc090919063ffffffff16565b5060008160020160008973ffffffffffffffffffffffffffffffffffffffff1673ffffffffffffffffffffffffffffffffffffffff168152602001908152602001600020905080836004015490806001815401808255809150506001900390600052602060002001600090919091909150556000600360003373ffffffffffffffffffffffffffffffffffffffff1673ffffffffffffffffffffffffffffffffffffffff16815260200190815260200160002060020160008a73ffffffffffffffffffffffffffffffffffffffff1673ffffffffffffffffffffffffffffffffffffffff168152602001908152602001600020905080600182805490500381548110613b5057fe5b9060005260206000200154818981548110613b6757fe5b906000526020600020018190555080805480613b7f57fe5b60019003818190600052602060002001600090559055600081805490501415613bf857613bf689600360003373ffffffffffffffffffffffffffffffffffffffff1673ffffffffffffffffffffffffffffffffffffffff1681526020019081526020016000206000016148d090919063ffffffff16565b505b858460050160006101000a81548173ffffffffffffffffffffffffffffffffffffffff021916908373ffffffffffffffffffffffffffffffffffffffff160217905550505050505050505050565b60066020528160005260406000208181548110613c5f57fe5b9060005260206000209060060201600091509150508060000154908060010154908060020154908060030154908060040154908060050160009054906101000a900473ffffffffffffffffffffffffffffffffffffffff16905086565b613cc461487e565b73ffffffffffffffffffffffffffffffffffffffff1660008054906101000a900473ffffffffffffffffffffffffffffffffffffffff1673ffffffffffffffffffffffffffffffffffffffff1614613d84576040517f08c379a00000000000000000000000000000000000000000000000000000000081526004018080602001828103825260208152602001807f4f776e61626c653a2063616c6c6572206973206e6f7420746865206f776e657281525060200191505060405180910390fd5b80601260006101000a81548173ffffffffffffffffffffffffffffffffffffffff021916908373ffffffffffffffffffffffffffffffffffffffff16021790555050565b6000806000806000806000600360008b73ffffffffffffffffffffffffffffffffffffffff1673ffffffffffffffffffffffffffffffffffffffff16815260200190815260200160002060020160008a73ffffffffffffffffffffffffffffffffffffffff1673ffffffffffffffffffffffffffffffffffffffff1681526020019081526020016000208881548110613e5d57fe5b906000526020600020015490506000600660008b73ffffffffffffffffffffffffffffffffffffffff1673ffffffffffffffffffffffffffffffffffffffff1681526020019081526020016000208281548110613eb657fe5b90600052602060002090600602019050806000015481600101548260020154836003015484600401548560050160009054906101000a900473ffffffffffffffffffffffffffffffffffffffff16975097509750975097509750505093975093979195509350565b60026001541415613f97576040517f08c379a000000000000000000000000000000000000000000000000000000000815260040180806020018281038252601f8152602001807f5265656e7472616e637947756172643a207265656e7472616e742063616c6c0081525060200191505060405180910390fd5b6002600181905550600073ffffffffffffffffffffffffffffffffffffffff16601360009054906101000a900473ffffffffffffffffffffffffffffffffffffffff1673ffffffffffffffffffffffffffffffffffffffff161415614064576040517f08c379a00000000000000000000000000000000000000000000000000000000081526004018080602001828103825260078152602001807f4e4f54205345540000000000000000000000000000000000000000000000000081525060200191505060405180910390fd5b600081116140da576040517f08c379a000000000000000000000000000000000000000000000000000000000815260040180806020018281038252600e8152602001807f5a45524f204d4947524154494f4e00000000000000000000000000000000000081525060200191505060405180910390fd5b6000600360003373ffffffffffffffffffffffffffffffffffffffff1673ffffffffffffffffffffffffffffffffffffffff16815260200190815260200160002060020160008673ffffffffffffffffffffffffffffffffffffffff1673ffffffffffffffffffffffffffffffffffffffff168152602001908152602001600020848154811061416657fe5b906000526020600020015490506000600660008773ffffffffffffffffffffffffffffffffffffffff1673ffffffffffffffffffffffffffffffffffffffff16815260200190815260200160002082815481106141bf57fe5b90600052602060002090600602019050838214801561422d57503373ffffffffffffffffffffffffffffffffffffffff168160050160009054906101000a900473ffffffffffffffffffffffffffffffffffffffff1673ffffffffffffffffffffffffffffffffffffffff16145b61429f576040517f08c379a000000000000000000000000000000000000000000000000000000000815260040180806020018281038252600d8152602001807f4c4f434b204d49534d415443480000000000000000000000000000000000000081525060200191505060405180910390fd5b6142b683826001015461488690919063ffffffff16565b816001018190555060008160010154141561440b576000600360003373ffffffffffffffffffffffffffffffffffffffff1673ffffffffffffffffffffffffffffffffffffffff16815260200190815260200160002060020160008873ffffffffffffffffffffffffffffffffffffffff1673ffffffffffffffffffffffffffffffffffffffff16815260200190815260200160002090508060018280549050038154811061436157fe5b906000526020600020015481878154811061437857fe5b90600052602060002001819055508080548061439057fe5b600190038181906000526020600020016000905590556000818054905014156144095761440787600360003373ffffffffffffffffffffffffffffffffffffffff1673ffffffffffffffffffffffffffffffffffffffff1681526020019081526020016000206000016148d090919063ffffffff16565b505b505b61443886601360009054906101000a900473ffffffffffffffffffffffffffffffffffffffff1685614ddd565b601360009054906101000a900473ffffffffffffffffffffffffffffffffffffffff1673ffffffffffffffffffffffffffffffffffffffff1663db5ecd3f87858460030154336040518563ffffffff1660e01b8152600401808573ffffffffffffffffffffffffffffffffffffffff1681526020018481526020018381526020018273ffffffffffffffffffffffffffffffffffffffff168152602001945050505050602060405180830381600087803b1580156144f557600080fd5b505af1158015614509573d6000803e3d6000fd5b505050506040513d602081101561451f57600080fd5b81019080805190602001909291905050505050506001808190555050505050565b61454861487e565b73ffffffffffffffffffffffffffffffffffffffff1660008054906101000a900473ffffffffffffffffffffffffffffffffffffffff1673ffffffffffffffffffffffffffffffffffffffff1614614608576040517f08c379a00000000000000000000000000000000000000000000000000000000081526004018080602001828103825260208152602001807f4f776e61626c653a2063616c6c6572206973206e6f7420746865206f776e657281525060200191505060405180910390fd5b81600760060160006101000a81548173ffffffffffffffffffffffffffffffffffffffff021916908373ffffffffffffffffffffffffffffffffffffffff1602179055508060078001819055505050565b61466161487e565b73ffffffffffffffffffffffffffffffffffffffff1660008054906101000a900473ffffffffffffffffffffffffffffffffffffffff1673ffffffffffffffffffffffffffffffffffffffff1614614721576040517f08c379a00000000000000000000000000000000000000000000000000000000081526004018080602001828103825260208152602001807f4f776e61626c653a2063616c6c6572206973206e6f7420746865206f776e657281525060200191505060405180910390fd5b600073ffffffffffffffffffffffffffffffffffffffff168173ffffffffffffffffffffffffffffffffffffffff1614156147a7576040517f08c379a000000000000000000000000000000000000000000000000000000000815260040180806020018281038252602681526020018061547c6026913960400191505060405180910390fd5b8073ffffffffffffffffffffffffffffffffffffffff1660008054906101000a900473ffffffffffffffffffffffffffffffffffffffff1673ffffffffffffffffffffffffffffffffffffffff167f8be0079c531659141344cd1fd0a4f28419497f9722a3daafe3b4186f6b6457e060405160405180910390a3806000806101000a81548173ffffffffffffffffffffffffffffffffffffffff021916908373ffffffffffffffffffffffffffffffffffffffff16021790555050565b60006148738360000183615078565b60001c905092915050565b600033905090565b60006148c883836040518060400160405280601e81526020017f536166654d6174683a207375627472616374696f6e206f766572666c6f7700008152506150fb565b905092915050565b60006148f8836000018373ffffffffffffffffffffffffffffffffffffffff1660001b6151bb565b905092915050565b600060608473ffffffffffffffffffffffffffffffffffffffff1663a9059cbb8585604051602401808373ffffffffffffffffffffffffffffffffffffffff168152602001828152602001925050506040516020818303038152906040529060e01b6020820180517bffffffffffffffffffffffffffffffffffffffffffffffffffffffff83818316178352505050506040518082805190602001908083835b602083106149c357805182526020820191506020810190506020830392506149a0565b6001836020036101000a0380198251168184511680821785525050505050509050019150506000604051808303816000865af19150503d8060008114614a25576040519150601f19603f3d011682016040523d82523d6000602084013e614a2a565b606091505b5091509150818015614a6a5750600081511480614a695750808060200190516020811015614a5757600080fd5b81019080805190602001909291905050505b5b614adc576040517f08c379a000000000000000000000000000000000000000000000000000000000815260040180806020018281038252601f8152602001807f5472616e7366657248656c7065723a205452414e534645525f4641494c45440081525060200191505060405180910390fd5b5050505050565b6000614af1826000016152a3565b9050919050565b600080831415614b0b5760009050614b78565b6000828402905082848281614b1c57fe5b0414614b73576040517f08c379a00000000000000000000000000000000000000000000000000000000081526004018080602001828103825260218152602001806154a26021913960400191505060405180910390fd5b809150505b92915050565b6000614bc083836040518060400160405280601a81526020017f536166654d6174683a206469766973696f6e206279207a65726f0000000000008152506152b4565b905092915050565b600060608573ffffffffffffffffffffffffffffffffffffffff166323b872dd868686604051602401808473ffffffffffffffffffffffffffffffffffffffff1681526020018373ffffffffffffffffffffffffffffffffffffffff16815260200182815260200193505050506040516020818303038152906040529060e01b6020820180517bffffffffffffffffffffffffffffffffffffffffffffffffffffffff83818316178352505050506040518082805190602001908083835b60208310614ca95780518252602082019150602081019050602083039250614c86565b6001836020036101000a0380198251168184511680821785525050505050509050019150506000604051808303816000865af19150503d8060008114614d0b576040519150601f19603f3d011682016040523d82523d6000602084013e614d10565b606091505b5091509150818015614d505750600081511480614d4f5750808060200190516020811015614d3d57600080fd5b81019080805190602001909291905050505b5b614da5576040517f08c379a00000000000000000000000000000000000000000000000000000000081526004018080602001828103825260248152602001806154c36024913960400191505060405180910390fd5b505050505050565b6000614dd5836000018373ffffffffffffffffffffffffffffffffffffffff1660001b61537a565b905092915050565b600060608473ffffffffffffffffffffffffffffffffffffffff1663095ea7b38585604051602401808373ffffffffffffffffffffffffffffffffffffffff168152602001828152602001925050506040516020818303038152906040529060e01b6020820180517bffffffffffffffffffffffffffffffffffffffffffffffffffffffff83818316178352505050506040518082805190602001908083835b60208310614ea05780518252602082019150602081019050602083039250614e7d565b6001836020036101000a0380198251168184511680821785525050505050509050019150506000604051808303816000865af19150503d8060008114614f02576040519150601f19603f3d011682016040523d82523d6000602084013e614f07565b606091505b5091509150818015614f475750600081511480614f465750808060200190516020811015614f3457600080fd5b81019080805190602001909291905050505b5b614fb9576040517f08c379a000000000000000000000000000000000000000000000000000000000815260040180806020018281038252601e8152602001807f5472616e7366657248656c7065723a20415050524f56455f4641494c4544000081525060200191505060405180910390fd5b5050505050565b6000614fe8836000018373ffffffffffffffffffffffffffffffffffffffff1660001b61539d565b905092915050565b60008082840190508381101561506e576040517f08c379a000000000000000000000000000000000000000000000000000000000815260040180806020018281038252601b8152602001807f536166654d6174683a206164646974696f6e206f766572666c6f77000000000081525060200191505060405180910390fd5b8091505092915050565b6000818360000180549050116150d9576040517f08c379a000000000000000000000000000000000000000000000000000000000815260040180806020018281038252602281526020018061545a6022913960400191505060405180910390fd5b8260000182815481106150e857fe5b9060005260206000200154905092915050565b60008383111582906151a8576040517f08c379a00000000000000000000000000000000000000000000000000000000081526004018080602001828103825283818151815260200191508051906020019080838360005b8381101561516d578082015181840152602081019050615152565b50505050905090810190601f16801561519a5780820380516001836020036101000a031916815260200191505b509250505060405180910390fd5b5060008385039050809150509392505050565b60008083600101600084815260200190815260200160002054905060008114615297576000600182039050600060018660000180549050039050600086600001828154811061520657fe5b906000526020600020015490508087600001848154811061522357fe5b906000526020600020018190555060018301876001016000838152602001908152602001600020819055508660000180548061525b57fe5b6001900381819060005260206000200160009055905586600101600087815260200190815260200160002060009055600194505050505061529d565b60009150505b92915050565b600081600001805490509050919050565b60008083118290615360576040517f08c379a00000000000000000000000000000000000000000000000000000000081526004018080602001828103825283818151815260200191508051906020019080838360005b8381101561532557808201518184015260208101905061530a565b50505050905090810190601f1680156153525780820380516001836020036101000a031916815260200191505b509250505060405180910390fd5b50600083858161536c57fe5b049050809150509392505050565b600080836001016000848152602001908152602001600020541415905092915050565b60006153a9838361537a565b615402578260000182908060018154018082558091505060019003906000526020600020016000909190919091505582600001805490508360010160008481526020019081526020016000208190555060019050615407565b600090505b92915050565b6040518060c001604052806000815260200160008152602001600081526020016000815260200160008152602001600073ffffffffffffffffffffffffffffffffffffffff168152509056fe456e756d657261626c655365743a20696e646578206f7574206f6620626f756e64734f776e61626c653a206e6577206f776e657220697320746865207a65726f2061646472657373536166654d6174683a206d756c7469706c69636174696f6e206f766572666c6f775472616e7366657248656c7065723a205452414e534645525f46524f4d5f4641494c4544a2646970667358221220ce3645883748c9ea0bc9290b95ae1d582c95d1ccf1cca8429b0b7b75d2ec436e64736f6c634300060c0033",
					"opcodes": "PUSH1 0x80 PUSH1 0x40 MSTORE CALLVALUE DUP1 ISZERO PUSH3 0x11 JUMPI PUSH1 0x0 DUP1 REVERT JUMPDEST POP PUSH1 0x40 MLOAD PUSH3 0x571E CODESIZE SUB DUP1 PUSH3 0x571E DUP4 CODECOPY DUP2 DUP2 ADD PUSH1 0x40 MSTORE PUSH1 0x20 DUP2 LT ISZERO PUSH3 0x37 JUMPI PUSH1 0x0 DUP1 REVERT JUMPDEST DUP2 ADD SWAP1 DUP1 DUP1 MLOAD SWAP1 PUSH1 0x20 ADD SWAP1 SWAP3 SWAP2 SWAP1 POP POP POP PUSH1 0x0 PUSH3 0x5A PUSH3 0x1EA PUSH1 0x20 SHL PUSH1 0x20 SHR JUMP JUMPDEST SWAP1 POP DUP1 PUSH1 0x0 DUP1 PUSH2 0x100 EXP DUP2 SLOAD DUP2 PUSH20 0xFFFFFFFFFFFFFFFFFFFFFFFFFFFFFFFFFFFFFFFF MUL NOT AND SWAP1 DUP4 PUSH20 0xFFFFFFFFFFFFFFFFFFFFFFFFFFFFFFFFFFFFFFFF AND MUL OR SWAP1 SSTORE POP DUP1 PUSH20 0xFFFFFFFFFFFFFFFFFFFFFFFFFFFFFFFFFFFFFFFF AND PUSH1 0x0 PUSH20 0xFFFFFFFFFFFFFFFFFFFFFFFFFFFFFFFFFFFFFFFF AND PUSH32 0x8BE0079C531659141344CD1FD0A4F28419497F9722A3DAAFE3B4186F6B6457E0 PUSH1 0x40 MLOAD PUSH1 0x40 MLOAD DUP1 SWAP2 SUB SWAP1 LOG3 POP PUSH1 0x1 DUP1 DUP2 SWAP1 SSTORE POP CALLER PUSH1 0x12 PUSH1 0x0 PUSH2 0x100 EXP DUP2 SLOAD DUP2 PUSH20 0xFFFFFFFFFFFFFFFFFFFFFFFFFFFFFFFFFFFFFFFF MUL NOT AND SWAP1 DUP4 PUSH20 0xFFFFFFFFFFFFFFFFFFFFFFFFFFFFFFFFFFFFFFFF AND MUL OR SWAP1 SSTORE POP PUSH1 0xFA PUSH1 0x7 PUSH1 0x5 ADD DUP2 SWAP1 SSTORE POP PUSH8 0xDE0B6B3A7640000 PUSH1 0x7 PUSH1 0x0 ADD DUP2 SWAP1 SSTORE POP PUSH9 0x56BC75E2D63100000 PUSH1 0x7 PUSH1 0x2 ADD DUP2 SWAP1 SSTORE POP PUSH1 0xC8 PUSH1 0x7 PUSH1 0x3 ADD DUP2 SWAP1 SSTORE POP PUSH1 0xA PUSH1 0x7 PUSH1 0x4 ADD DUP2 SWAP1 SSTORE POP PUSH8 0x8AC7230489E80000 PUSH1 0x7 DUP1 ADD DUP2 SWAP1 SSTORE POP PUSH1 0x64 PUSH1 0x7 PUSH1 0x8 ADD DUP2 SWAP1 SSTORE POP DUP1 PUSH1 0x2 PUSH1 0x0 PUSH2 0x100 EXP DUP2 SLOAD DUP2 PUSH20 0xFFFFFFFFFFFFFFFFFFFFFFFFFFFFFFFFFFFFFFFF MUL NOT AND SWAP1 DUP4 PUSH20 0xFFFFFFFFFFFFFFFFFFFFFFFFFFFFFFFFFFFFFFFF AND MUL OR SWAP1 SSTORE POP POP PUSH3 0x1F2 JUMP JUMPDEST PUSH1 0x0 CALLER SWAP1 POP SWAP1 JUMP JUMPDEST PUSH2 0x551C DUP1 PUSH3 0x202 PUSH1 0x0 CODECOPY PUSH1 0x0 RETURN INVALID PUSH1 0x80 PUSH1 0x40 MSTORE PUSH1 0x4 CALLDATASIZE LT PUSH2 0x1C2 JUMPI PUSH1 0x0 CALLDATALOAD PUSH1 0xE0 SHR DUP1 PUSH4 0x8DA5CB5B GT PUSH2 0xF7 JUMPI DUP1 PUSH4 0xB9863A44 GT PUSH2 0x95 JUMPI DUP1 PUSH4 0xD4FF493F GT PUSH2 0x64 JUMPI DUP1 PUSH4 0xD4FF493F EQ PUSH2 0xB87 JUMPI DUP1 PUSH4 0xEE424278 EQ PUSH2 0xC4F JUMPI DUP1 PUSH4 0xF02C2643 EQ PUSH2 0xCBE JUMPI DUP1 PUSH4 0xF2FDE38B EQ PUSH2 0xD19 JUMPI PUSH2 0x1C2 JUMP JUMPDEST DUP1 PUSH4 0xB9863A44 EQ PUSH2 0x9A2 JUMPI DUP1 PUSH4 0xBEF497FD EQ PUSH2 0xA09 JUMPI DUP1 PUSH4 0xCCEBFA3F EQ PUSH2 0xA8E JUMPI DUP1 PUSH4 0xD477F05F EQ PUSH2 0xB36 JUMPI PUSH2 0x1C2 JUMP JUMPDEST DUP1 PUSH4 0x91FF1EB1 GT PUSH2 0xD1 JUMPI DUP1 PUSH4 0x91FF1EB1 EQ PUSH2 0x7EC JUMPI DUP1 PUSH4 0xA3969815 EQ PUSH2 0x849 JUMPI DUP1 PUSH4 0xA69D9C4F EQ PUSH2 0x8AE JUMPI DUP1 PUSH4 0xA9B07CEA EQ PUSH2 0x933 JUMPI PUSH2 0x1C2 JUMP JUMPDEST DUP1 PUSH4 0x8DA5CB5B EQ PUSH2 0x697 JUMPI DUP1 PUSH4 0x903DF806 EQ PUSH2 0x6D8 JUMPI DUP1 PUSH4 0x90E1A003 EQ PUSH2 0x75D JUMPI PUSH2 0x1C2 JUMP JUMPDEST DUP1 PUSH4 0x715018A6 GT PUSH2 0x164 JUMPI DUP1 PUSH4 0x8931A4BE GT PUSH2 0x13E JUMPI DUP1 PUSH4 0x8931A4BE EQ PUSH2 0x4FC JUMPI DUP1 PUSH4 0x8AF416F6 EQ PUSH2 0x54D JUMPI DUP1 PUSH4 0x8BDB2AFA EQ PUSH2 0x5F1 JUMPI DUP1 PUSH4 0x8C301DF8 EQ PUSH2 0x632 JUMPI PUSH2 0x1C2 JUMP JUMPDEST DUP1 PUSH4 0x715018A6 EQ PUSH2 0x44D JUMPI DUP1 PUSH4 0x783451E8 EQ PUSH2 0x464 JUMPI DUP1 PUSH4 0x86F6C3C1 EQ PUSH2 0x48F JUMPI PUSH2 0x1C2 JUMP JUMPDEST DUP1 PUSH4 0x4532D776 GT PUSH2 0x1A0 JUMPI DUP1 PUSH4 0x4532D776 EQ PUSH2 0x2E2 JUMPI DUP1 PUSH4 0x4BB18E3F EQ PUSH2 0x351 JUMPI DUP1 PUSH4 0x582D5ADC EQ PUSH2 0x37C JUMPI DUP1 PUSH4 0x60491D24 EQ PUSH2 0x3DE JUMPI PUSH2 0x1C2 JUMP JUMPDEST DUP1 PUSH4 0x14DD79A3 EQ PUSH2 0x1C7 JUMPI DUP1 PUSH4 0x1F2A1D2F EQ PUSH2 0x22C JUMPI DUP1 PUSH4 0x23CF3118 EQ PUSH2 0x291 JUMPI JUMPDEST PUSH1 0x0 DUP1 REVERT JUMPDEST CALLVALUE DUP1 ISZERO PUSH2 0x1D3 JUMPI PUSH1 0x0 DUP1 REVERT JUMPDEST POP PUSH2 0x200 PUSH1 0x4 DUP1 CALLDATASIZE SUB PUSH1 0x20 DUP2 LT ISZERO PUSH2 0x1EA JUMPI PUSH1 0x0 DUP1 REVERT JUMPDEST DUP2 ADD SWAP1 DUP1 DUP1 CALLDATALOAD SWAP1 PUSH1 0x20 ADD SWAP1 SWAP3 SWAP2 SWAP1 POP POP POP PUSH2 0xD6A JUMP JUMPDEST PUSH1 0x40 MLOAD DUP1 DUP3 PUSH20 0xFFFFFFFFFFFFFFFFFFFFFFFFFFFFFFFFFFFFFFFF AND DUP2 MSTORE PUSH1 0x20 ADD SWAP2 POP POP PUSH1 0x40 MLOAD DUP1 SWAP2 SUB SWAP1 RETURN JUMPDEST CALLVALUE DUP1 ISZERO PUSH2 0x238 JUMPI PUSH1 0x0 DUP1 REVERT JUMPDEST POP PUSH2 0x27B PUSH1 0x4 DUP1 CALLDATASIZE SUB PUSH1 0x20 DUP2 LT ISZERO PUSH2 0x24F JUMPI PUSH1 0x0 DUP1 REVERT JUMPDEST DUP2 ADD SWAP1 DUP1 DUP1 CALLDATALOAD PUSH20 0xFFFFFFFFFFFFFFFFFFFFFFFFFFFFFFFFFFFFFFFF AND SWAP1 PUSH1 0x20 ADD SWAP1 SWAP3 SWAP2 SWAP1 POP POP POP PUSH2 0xD87 JUMP JUMPDEST PUSH1 0x40 MLOAD DUP1 DUP3 DUP2 MSTORE PUSH1 0x20 ADD SWAP2 POP POP PUSH1 0x40 MLOAD DUP1 SWAP2 SUB SWAP1 RETURN JUMPDEST CALLVALUE DUP1 ISZERO PUSH2 0x29D JUMPI PUSH1 0x0 DUP1 REVERT JUMPDEST POP PUSH2 0x2E0 PUSH1 0x4 DUP1 CALLDATASIZE SUB PUSH1 0x20 DUP2 LT ISZERO PUSH2 0x2B4 JUMPI PUSH1 0x0 DUP1 REVERT JUMPDEST DUP2 ADD SWAP1 DUP1 DUP1 CALLDATALOAD PUSH20 0xFFFFFFFFFFFFFFFFFFFFFFFFFFFFFFFFFFFFFFFF AND SWAP1 PUSH1 0x20 ADD SWAP1 SWAP3 SWAP2 SWAP1 POP POP POP PUSH2 0xDD3 JUMP JUMPDEST STOP JUMPDEST CALLVALUE DUP1 ISZERO PUSH2 0x2EE JUMPI PUSH1 0x0 DUP1 REVERT JUMPDEST POP PUSH2 0x34F PUSH1 0x4 DUP1 CALLDATASIZE SUB PUSH1 0x80 DUP2 LT ISZERO PUSH2 0x305 JUMPI PUSH1 0x0 DUP1 REVERT JUMPDEST DUP2 ADD SWAP1 DUP1 DUP1 CALLDATALOAD PUSH20 0xFFFFFFFFFFFFFFFFFFFFFFFFFFFFFFFFFFFFFFFF AND SWAP1 PUSH1 0x20 ADD SWAP1 SWAP3 SWAP2 SWAP1 DUP1 CALLDATALOAD SWAP1 PUSH1 0x20 ADD SWAP1 SWAP3 SWAP2 SWAP1 DUP1 CALLDATALOAD SWAP1 PUSH1 0x20 ADD SWAP1 SWAP3 SWAP2 SWAP1 DUP1 CALLDATALOAD SWAP1 PUSH1 0x20 ADD SWAP1 SWAP3 SWAP2 SWAP1 POP POP POP PUSH2 0xEDF JUMP JUMPDEST STOP JUMPDEST CALLVALUE DUP1 ISZERO PUSH2 0x35D JUMPI PUSH1 0x0 DUP1 REVERT JUMPDEST POP PUSH2 0x366 PUSH2 0x13EF JUMP JUMPDEST PUSH1 0x40 MLOAD DUP1 DUP3 DUP2 MSTORE PUSH1 0x20 ADD SWAP2 POP POP PUSH1 0x40 MLOAD DUP1 SWAP2 SUB SWAP1 RETURN JUMPDEST PUSH2 0x3DC PUSH1 0x4 DUP1 CALLDATASIZE SUB PUSH1 0x80 DUP2 LT ISZERO PUSH2 0x392 JUMPI PUSH1 0x0 DUP1 REVERT JUMPDEST DUP2 ADD SWAP1 DUP1 DUP1 CALLDATALOAD PUSH20 0xFFFFFFFFFFFFFFFFFFFFFFFFFFFFFFFFFFFFFFFF AND SWAP1 PUSH1 0x20 ADD SWAP1 SWAP3 SWAP2 SWAP1 DUP1 CALLDATALOAD SWAP1 PUSH1 0x20 ADD SWAP1 SWAP3 SWAP2 SWAP1 DUP1 CALLDATALOAD SWAP1 PUSH1 0x20 ADD SWAP1 SWAP3 SWAP2 SWAP1 DUP1 CALLDATALOAD SWAP1 PUSH1 0x20 ADD SWAP1 SWAP3 SWAP2 SWAP1 POP POP POP PUSH2 0x1400 JUMP JUMPDEST STOP JUMPDEST CALLVALUE DUP1 ISZERO PUSH2 0x3EA JUMPI PUSH1 0x0 DUP1 REVERT JUMPDEST POP PUSH2 0x44B PUSH1 0x4 DUP1 CALLDATASIZE SUB PUSH1 0x80 DUP2 LT ISZERO PUSH2 0x401 JUMPI PUSH1 0x0 DUP1 REVERT JUMPDEST DUP2 ADD SWAP1 DUP1 DUP1 CALLDATALOAD PUSH20 0xFFFFFFFFFFFFFFFFFFFFFFFFFFFFFFFFFFFFFFFF AND SWAP1 PUSH1 0x20 ADD SWAP1 SWAP3 SWAP2 SWAP1 DUP1 CALLDATALOAD SWAP1 PUSH1 0x20 ADD SWAP1 SWAP3 SWAP2 SWAP1 DUP1 CALLDATALOAD SWAP1 PUSH1 0x20 ADD SWAP1 SWAP3 SWAP2 SWAP1 DUP1 CALLDATALOAD SWAP1 PUSH1 0x20 ADD SWAP1 SWAP3 SWAP2 SWAP1 POP POP POP PUSH2 0x1A29 JUMP JUMPDEST STOP JUMPDEST CALLVALUE DUP1 ISZERO PUSH2 0x459 JUMPI PUSH1 0x0 DUP1 REVERT JUMPDEST POP PUSH2 0x462 PUSH2 0x1E01 JUMP JUMPDEST STOP JUMPDEST CALLVALUE DUP1 ISZERO PUSH2 0x470 JUMPI PUSH1 0x0 DUP1 REVERT JUMPDEST POP PUSH2 0x479 PUSH2 0x1F87 JUMP JUMPDEST PUSH1 0x40 MLOAD DUP1 DUP3 DUP2 MSTORE PUSH1 0x20 ADD SWAP2 POP POP PUSH1 0x40 MLOAD DUP1 SWAP2 SUB SWAP1 RETURN JUMPDEST CALLVALUE DUP1 ISZERO PUSH2 0x49B JUMPI PUSH1 0x0 DUP1 REVERT JUMPDEST POP PUSH2 0x4FA PUSH1 0x4 DUP1 CALLDATASIZE SUB PUSH1 0xC0 DUP2 LT ISZERO PUSH2 0x4B2 JUMPI PUSH1 0x0 DUP1 REVERT JUMPDEST DUP2 ADD SWAP1 DUP1 DUP1 CALLDATALOAD SWAP1 PUSH1 0x20 ADD SWAP1 SWAP3 SWAP2 SWAP1 DUP1 CALLDATALOAD SWAP1 PUSH1 0x20 ADD SWAP1 SWAP3 SWAP2 SWAP1 DUP1 CALLDATALOAD SWAP1 PUSH1 0x20 ADD SWAP1 SWAP3 SWAP2 SWAP1 DUP1 CALLDATALOAD SWAP1 PUSH1 0x20 ADD SWAP1 SWAP3 SWAP2 SWAP1 DUP1 CALLDATALOAD SWAP1 PUSH1 0x20 ADD SWAP1 SWAP3 SWAP2 SWAP1 DUP1 CALLDATALOAD SWAP1 PUSH1 0x20 ADD SWAP1 SWAP3 SWAP2 SWAP1 POP POP POP PUSH2 0x1F98 JUMP JUMPDEST STOP JUMPDEST CALLVALUE DUP1 ISZERO PUSH2 0x508 JUMPI PUSH1 0x0 DUP1 REVERT JUMPDEST POP PUSH2 0x54B PUSH1 0x4 DUP1 CALLDATASIZE SUB PUSH1 0x20 DUP2 LT ISZERO PUSH2 0x51F JUMPI PUSH1 0x0 DUP1 REVERT JUMPDEST DUP2 ADD SWAP1 DUP1 DUP1 CALLDATALOAD PUSH20 0xFFFFFFFFFFFFFFFFFFFFFFFFFFFFFFFFFFFFFFFF AND SWAP1 PUSH1 0x20 ADD SWAP1 SWAP3 SWAP2 SWAP1 POP POP POP PUSH2 0x20A4 JUMP JUMPDEST STOP JUMPDEST PUSH2 0x5EF PUSH1 0x4 DUP1 CALLDATASIZE SUB PUSH1 0xC0 DUP2 LT ISZERO PUSH2 0x563 JUMPI PUSH1 0x0 DUP1 REVERT JUMPDEST DUP2 ADD SWAP1 DUP1 DUP1 CALLDATALOAD PUSH20 0xFFFFFFFFFFFFFFFFFFFFFFFFFFFFFFFFFFFFFFFF AND SWAP1 PUSH1 0x20 ADD SWAP1 SWAP3 SWAP2 SWAP1 DUP1 CALLDATALOAD SWAP1 PUSH1 0x20 ADD SWAP1 SWAP3 SWAP2 SWAP1 DUP1 CALLDATALOAD SWAP1 PUSH1 0x20 ADD SWAP1 SWAP3 SWAP2 SWAP1 DUP1 CALLDATALOAD PUSH20 0xFFFFFFFFFFFFFFFFFFFFFFFFFFFFFFFFFFFFFFFF AND SWAP1 PUSH1 0x20 ADD SWAP1 SWAP3 SWAP2 SWAP1 DUP1 CALLDATALOAD ISZERO ISZERO SWAP1 PUSH1 0x20 ADD SWAP1 SWAP3 SWAP2 SWAP1 DUP1 CALLDATALOAD PUSH20 0xFFFFFFFFFFFFFFFFFFFFFFFFFFFFFFFFFFFFFFFF AND SWAP1 PUSH1 0x20 ADD SWAP1 SWAP3 SWAP2 SWAP1 POP POP POP PUSH2 0x21B3 JUMP JUMPDEST STOP JUMPDEST CALLVALUE DUP1 ISZERO PUSH2 0x5FD JUMPI PUSH1 0x0 DUP1 REVERT JUMPDEST POP PUSH2 0x606 PUSH2 0x303D JUMP JUMPDEST PUSH1 0x40 MLOAD DUP1 DUP3 PUSH20 0xFFFFFFFFFFFFFFFFFFFFFFFFFFFFFFFFFFFFFFFF AND DUP2 MSTORE PUSH1 0x20 ADD SWAP2 POP POP PUSH1 0x40 MLOAD DUP1 SWAP2 SUB SWAP1 RETURN JUMPDEST CALLVALUE DUP1 ISZERO PUSH2 0x63E JUMPI PUSH1 0x0 DUP1 REVERT JUMPDEST POP PUSH2 0x66B PUSH1 0x4 DUP1 CALLDATASIZE SUB PUSH1 0x20 DUP2 LT ISZERO PUSH2 0x655 JUMPI PUSH1 0x0 DUP1 REVERT JUMPDEST DUP2 ADD SWAP1 DUP1 DUP1 CALLDATALOAD SWAP1 PUSH1 0x20 ADD SWAP1 SWAP3 SWAP2 SWAP1 POP POP POP PUSH2 0x3063 JUMP JUMPDEST PUSH1 0x40 MLOAD DUP1 DUP3 PUSH20 0xFFFFFFFFFFFFFFFFFFFFFFFFFFFFFFFFFFFFFFFF AND DUP2 MSTORE PUSH1 0x20 ADD SWAP2 POP POP PUSH1 0x40 MLOAD DUP1 SWAP2 SUB SWAP1 RETURN JUMPDEST CALLVALUE DUP1 ISZERO PUSH2 0x6A3 JUMPI PUSH1 0x0 DUP1 REVERT JUMPDEST POP PUSH2 0x6AC PUSH2 0x3080 JUMP JUMPDEST PUSH1 0x40 MLOAD DUP1 DUP3 PUSH20 0xFFFFFFFFFFFFFFFFFFFFFFFFFFFFFFFFFFFFFFFF AND DUP2 MSTORE PUSH1 0x20 ADD SWAP2 POP POP PUSH1 0x40 MLOAD DUP1 SWAP2 SUB SWAP1 RETURN JUMPDEST CALLVALUE DUP1 ISZERO PUSH2 0x6E4 JUMPI PUSH1 0x0 DUP1 REVERT JUMPDEST POP PUSH2 0x731 PUSH1 0x4 DUP1 CALLDATASIZE SUB PUSH1 0x40 DUP2 LT ISZERO PUSH2 0x6FB JUMPI PUSH1 0x0 DUP1 REVERT JUMPDEST DUP2 ADD SWAP1 DUP1 DUP1 CALLDATALOAD PUSH20 0xFFFFFFFFFFFFFFFFFFFFFFFFFFFFFFFFFFFFFFFF AND SWAP1 PUSH1 0x20 ADD SWAP1 SWAP3 SWAP2 SWAP1 DUP1 CALLDATALOAD SWAP1 PUSH1 0x20 ADD SWAP1 SWAP3 SWAP2 SWAP1 POP POP POP PUSH2 0x30A9 JUMP JUMPDEST PUSH1 0x40 MLOAD DUP1 DUP3 PUSH20 0xFFFFFFFFFFFFFFFFFFFFFFFFFFFFFFFFFFFFFFFF AND DUP2 MSTORE PUSH1 0x20 ADD SWAP2 POP POP PUSH1 0x40 MLOAD DUP1 SWAP2 SUB SWAP1 RETURN JUMPDEST CALLVALUE DUP1 ISZERO PUSH2 0x769 JUMPI PUSH1 0x0 DUP1 REVERT JUMPDEST POP PUSH2 0x772 PUSH2 0x310C JUMP JUMPDEST PUSH1 0x40 MLOAD DUP1 DUP11 DUP2 MSTORE PUSH1 0x20 ADD DUP10 PUSH20 0xFFFFFFFFFFFFFFFFFFFFFFFFFFFFFFFFFFFFFFFF AND DUP2 MSTORE PUSH1 0x20 ADD DUP9 DUP2 MSTORE PUSH1 0x20 ADD DUP8 DUP2 MSTORE PUSH1 0x20 ADD DUP7 DUP2 MSTORE PUSH1 0x20 ADD DUP6 DUP2 MSTORE PUSH1 0x20 ADD DUP5 PUSH20 0xFFFFFFFFFFFFFFFFFFFFFFFFFFFFFFFFFFFFFFFF AND DUP2 MSTORE PUSH1 0x20 ADD DUP4 DUP2 MSTORE PUSH1 0x20 ADD DUP3 DUP2 MSTORE PUSH1 0x20 ADD SWAP10 POP POP POP POP POP POP POP POP POP POP PUSH1 0x40 MLOAD DUP1 SWAP2 SUB SWAP1 RETURN JUMPDEST CALLVALUE DUP1 ISZERO PUSH2 0x7F8 JUMPI PUSH1 0x0 DUP1 REVERT JUMPDEST POP PUSH2 0x847 PUSH1 0x4 DUP1 CALLDATASIZE SUB PUSH1 0x40 DUP2 LT ISZERO PUSH2 0x80F JUMPI PUSH1 0x0 DUP1 REVERT JUMPDEST DUP2 ADD SWAP1 DUP1 DUP1 CALLDATALOAD PUSH20 0xFFFFFFFFFFFFFFFFFFFFFFFFFFFFFFFFFFFFFFFF AND SWAP1 PUSH1 0x20 ADD SWAP1 SWAP3 SWAP2 SWAP1 DUP1 CALLDATALOAD ISZERO ISZERO SWAP1 PUSH1 0x20 ADD SWAP1 SWAP3 SWAP2 SWAP1 POP POP POP PUSH2 0x3188 JUMP JUMPDEST STOP JUMPDEST CALLVALUE DUP1 ISZERO PUSH2 0x855 JUMPI PUSH1 0x0 DUP1 REVERT JUMPDEST POP PUSH2 0x898 PUSH1 0x4 DUP1 CALLDATASIZE SUB PUSH1 0x20 DUP2 LT ISZERO PUSH2 0x86C JUMPI PUSH1 0x0 DUP1 REVERT JUMPDEST DUP2 ADD SWAP1 DUP1 DUP1 CALLDATALOAD PUSH20 0xFFFFFFFFFFFFFFFFFFFFFFFFFFFFFFFFFFFFFFFF AND SWAP1 PUSH1 0x20 ADD SWAP1 SWAP3 SWAP2 SWAP1 POP POP POP PUSH2 0x328A JUMP JUMPDEST PUSH1 0x40 MLOAD DUP1 DUP3 DUP2 MSTORE PUSH1 0x20 ADD SWAP2 POP POP PUSH1 0x40 MLOAD DUP1 SWAP2 SUB SWAP1 RETURN JUMPDEST CALLVALUE DUP1 ISZERO PUSH2 0x8BA JUMPI PUSH1 0x0 DUP1 REVERT JUMPDEST POP PUSH2 0x91D PUSH1 0x4 DUP1 CALLDATASIZE SUB PUSH1 0x40 DUP2 LT ISZERO PUSH2 0x8D1 JUMPI PUSH1 0x0 DUP1 REVERT JUMPDEST DUP2 ADD SWAP1 DUP1 DUP1 CALLDATALOAD PUSH20 0xFFFFFFFFFFFFFFFFFFFFFFFFFFFFFFFFFFFFFFFF AND SWAP1 PUSH1 0x20 ADD SWAP1 SWAP3 SWAP2 SWAP1 DUP1 CALLDATALOAD PUSH20 0xFFFFFFFFFFFFFFFFFFFFFFFFFFFFFFFFFFFFFFFF AND SWAP1 PUSH1 0x20 ADD SWAP1 SWAP3 SWAP2 SWAP1 POP POP POP PUSH2 0x32E2 JUMP JUMPDEST PUSH1 0x40 MLOAD DUP1 DUP3 DUP2 MSTORE PUSH1 0x20 ADD SWAP2 POP POP PUSH1 0x40 MLOAD DUP1 SWAP2 SUB SWAP1 RETURN JUMPDEST CALLVALUE DUP1 ISZERO PUSH2 0x93F JUMPI PUSH1 0x0 DUP1 REVERT JUMPDEST POP PUSH2 0x9A0 PUSH1 0x4 DUP1 CALLDATASIZE SUB PUSH1 0x80 DUP2 LT ISZERO PUSH2 0x956 JUMPI PUSH1 0x0 DUP1 REVERT JUMPDEST DUP2 ADD SWAP1 DUP1 DUP1 CALLDATALOAD PUSH20 0xFFFFFFFFFFFFFFFFFFFFFFFFFFFFFFFFFFFFFFFF AND SWAP1 PUSH1 0x20 ADD SWAP1 SWAP3 SWAP2 SWAP1 DUP1 CALLDATALOAD SWAP1 PUSH1 0x20 ADD SWAP1 SWAP3 SWAP2 SWAP1 DUP1 CALLDATALOAD SWAP1 PUSH1 0x20 ADD SWAP1 SWAP3 SWAP2 SWAP1 DUP1 CALLDATALOAD SWAP1 PUSH1 0x20 ADD SWAP1 SWAP3 SWAP2 SWAP1 POP POP POP PUSH2 0x3374 JUMP JUMPDEST STOP JUMPDEST CALLVALUE DUP1 ISZERO PUSH2 0x9AE JUMPI PUSH1 0x0 DUP1 REVERT JUMPDEST POP PUSH2 0x9F1 PUSH1 0x4 DUP1 CALLDATASIZE SUB PUSH1 0x20 DUP2 LT ISZERO PUSH2 0x9C5 JUMPI PUSH1 0x0 DUP1 REVERT JUMPDEST DUP2 ADD SWAP1 DUP1 DUP1 CALLDATALOAD PUSH20 0xFFFFFFFFFFFFFFFFFFFFFFFFFFFFFFFFFFFFFFFF AND SWAP1 PUSH1 0x20 ADD SWAP1 SWAP3 SWAP2 SWAP1 POP POP POP PUSH2 0x376B JUMP JUMPDEST PUSH1 0x40 MLOAD DUP1 DUP3 ISZERO ISZERO DUP2 MSTORE PUSH1 0x20 ADD SWAP2 POP POP PUSH1 0x40 MLOAD DUP1 SWAP2 SUB SWAP1 RETURN JUMPDEST CALLVALUE DUP1 ISZERO PUSH2 0xA15 JUMPI PUSH1 0x0 DUP1 REVERT JUMPDEST POP PUSH2 0xA8C PUSH1 0x4 DUP1 CALLDATASIZE SUB PUSH1 0x80 DUP2 LT ISZERO PUSH2 0xA2C JUMPI PUSH1 0x0 DUP1 REVERT JUMPDEST DUP2 ADD SWAP1 DUP1 DUP1 CALLDATALOAD PUSH20 0xFFFFFFFFFFFFFFFFFFFFFFFFFFFFFFFFFFFFFFFF AND SWAP1 PUSH1 0x20 ADD SWAP1 SWAP3 SWAP2 SWAP1 DUP1 CALLDATALOAD SWAP1 PUSH1 0x20 ADD SWAP1 SWAP3 SWAP2 SWAP1 DUP1 CALLDATALOAD SWAP1 PUSH1 0x20 ADD SWAP1 SWAP3 SWAP2 SWAP1 DUP1 CALLDATALOAD PUSH20 0xFFFFFFFFFFFFFFFFFFFFFFFFFFFFFFFFFFFFFFFF AND SWAP1 PUSH1 0x20 ADD SWAP1 SWAP3 SWAP2 SWAP1 POP POP POP PUSH2 0x3788 JUMP JUMPDEST STOP JUMPDEST CALLVALUE DUP1 ISZERO PUSH2 0xA9A JUMPI PUSH1 0x0 DUP1 REVERT JUMPDEST POP PUSH2 0xAE7 PUSH1 0x4 DUP1 CALLDATASIZE SUB PUSH1 0x40 DUP2 LT ISZERO PUSH2 0xAB1 JUMPI PUSH1 0x0 DUP1 REVERT JUMPDEST DUP2 ADD SWAP1 DUP1 DUP1 CALLDATALOAD PUSH20 0xFFFFFFFFFFFFFFFFFFFFFFFFFFFFFFFFFFFFFFFF AND SWAP1 PUSH1 0x20 ADD SWAP1 SWAP3 SWAP2 SWAP1 DUP1 CALLDATALOAD SWAP1 PUSH1 0x20 ADD SWAP1 SWAP3 SWAP2 SWAP1 POP POP POP PUSH2 0x3C46 JUMP JUMPDEST PUSH1 0x40 MLOAD DUP1 DUP8 DUP2 MSTORE PUSH1 0x20 ADD DUP7 DUP2 MSTORE PUSH1 0x20 ADD DUP6 DUP2 MSTORE PUSH1 0x20 ADD DUP5 DUP2 MSTORE PUSH1 0x20 ADD DUP4 DUP2 MSTORE PUSH1 0x20 ADD DUP3 PUSH20 0xFFFFFFFFFFFFFFFFFFFFFFFFFFFFFFFFFFFFFFFF AND DUP2 MSTORE PUSH1 0x20 ADD SWAP7 POP POP POP POP POP POP POP PUSH1 0x40 MLOAD DUP1 SWAP2 SUB SWAP1 RETURN JUMPDEST CALLVALUE DUP1 ISZERO PUSH2 0xB42 JUMPI PUSH1 0x0 DUP1 REVERT JUMPDEST POP PUSH2 0xB85 PUSH1 0x4 DUP1 CALLDATASIZE SUB PUSH1 0x20 DUP2 LT ISZERO PUSH2 0xB59 JUMPI PUSH1 0x0 DUP1 REVERT JUMPDEST DUP2 ADD SWAP1 DUP1 DUP1 CALLDATALOAD PUSH20 0xFFFFFFFFFFFFFFFFFFFFFFFFFFFFFFFFFFFFFFFF AND SWAP1 PUSH1 0x20 ADD SWAP1 SWAP3 SWAP2 SWAP1 POP POP POP PUSH2 0x3CBC JUMP JUMPDEST STOP JUMPDEST CALLVALUE DUP1 ISZERO PUSH2 0xB93 JUMPI PUSH1 0x0 DUP1 REVERT JUMPDEST POP PUSH2 0xC00 PUSH1 0x4 DUP1 CALLDATASIZE SUB PUSH1 0x60 DUP2 LT ISZERO PUSH2 0xBAA JUMPI PUSH1 0x0 DUP1 REVERT JUMPDEST DUP2 ADD SWAP1 DUP1 DUP1 CALLDATALOAD PUSH20 0xFFFFFFFFFFFFFFFFFFFFFFFFFFFFFFFFFFFFFFFF AND SWAP1 PUSH1 0x20 ADD SWAP1 SWAP3 SWAP2 SWAP1 DUP1 CALLDATALOAD PUSH20 0xFFFFFFFFFFFFFFFFFFFFFFFFFFFFFFFFFFFFFFFF AND SWAP1 PUSH1 0x20 ADD SWAP1 SWAP3 SWAP2 SWAP1 DUP1 CALLDATALOAD SWAP1 PUSH1 0x20 ADD SWAP1 SWAP3 SWAP2 SWAP1 POP POP POP PUSH2 0x3DC8 JUMP JUMPDEST PUSH1 0x40 MLOAD DUP1 DUP8 DUP2 MSTORE PUSH1 0x20 ADD DUP7 DUP2 MSTORE PUSH1 0x20 ADD DUP6 DUP2 MSTORE PUSH1 0x20 ADD DUP5 DUP2 MSTORE PUSH1 0x20 ADD DUP4 DUP2 MSTORE PUSH1 0x20 ADD DUP3 PUSH20 0xFFFFFFFFFFFFFFFFFFFFFFFFFFFFFFFFFFFFFFFF AND DUP2 MSTORE PUSH1 0x20 ADD SWAP7 POP POP POP POP POP POP POP PUSH1 0x40 MLOAD DUP1 SWAP2 SUB SWAP1 RETURN JUMPDEST CALLVALUE DUP1 ISZERO PUSH2 0xC5B JUMPI PUSH1 0x0 DUP1 REVERT JUMPDEST POP PUSH2 0xCBC PUSH1 0x4 DUP1 CALLDATASIZE SUB PUSH1 0x80 DUP2 LT ISZERO PUSH2 0xC72 JUMPI PUSH1 0x0 DUP1 REVERT JUMPDEST DUP2 ADD SWAP1 DUP1 DUP1 CALLDATALOAD PUSH20 0xFFFFFFFFFFFFFFFFFFFFFFFFFFFFFFFFFFFFFFFF AND SWAP1 PUSH1 0x20 ADD SWAP1 SWAP3 SWAP2 SWAP1 DUP1 CALLDATALOAD SWAP1 PUSH1 0x20 ADD SWAP1 SWAP3 SWAP2 SWAP1 DUP1 CALLDATALOAD SWAP1 PUSH1 0x20 ADD SWAP1 SWAP3 SWAP2 SWAP1 DUP1 CALLDATALOAD SWAP1 PUSH1 0x20 ADD SWAP1 SWAP3 SWAP2 SWAP1 POP POP POP PUSH2 0x3F1E JUMP JUMPDEST STOP JUMPDEST CALLVALUE DUP1 ISZERO PUSH2 0xCCA JUMPI PUSH1 0x0 DUP1 REVERT JUMPDEST POP PUSH2 0xD17 PUSH1 0x4 DUP1 CALLDATASIZE SUB PUSH1 0x40 DUP2 LT ISZERO PUSH2 0xCE1 JUMPI PUSH1 0x0 DUP1 REVERT JUMPDEST DUP2 ADD SWAP1 DUP1 DUP1 CALLDATALOAD PUSH20 0xFFFFFFFFFFFFFFFFFFFFFFFFFFFFFFFFFFFFFFFF AND SWAP1 PUSH1 0x20 ADD SWAP1 SWAP3 SWAP2 SWAP1 DUP1 CALLDATALOAD SWAP1 PUSH1 0x20 ADD SWAP1 SWAP3 SWAP2 SWAP1 POP POP POP PUSH2 0x4540 JUMP JUMPDEST STOP JUMPDEST CALLVALUE DUP1 ISZERO PUSH2 0xD25 JUMPI PUSH1 0x0 DUP1 REVERT JUMPDEST POP PUSH2 0xD68 PUSH1 0x4 DUP1 CALLDATASIZE SUB PUSH1 0x20 DUP2 LT ISZERO PUSH2 0xD3C JUMPI PUSH1 0x0 DUP1 REVERT JUMPDEST DUP2 ADD SWAP1 DUP1 DUP1 CALLDATALOAD PUSH20 0xFFFFFFFFFFFFFFFFFFFFFFFFFFFFFFFFFFFFFFFF AND SWAP1 PUSH1 0x20 ADD SWAP1 SWAP3 SWAP2 SWAP1 POP POP POP PUSH2 0x4659 JUMP JUMPDEST STOP JUMPDEST PUSH1 0x0 PUSH2 0xD80 DUP3 PUSH1 0x4 PUSH2 0x4864 SWAP1 SWAP2 SWAP1 PUSH4 0xFFFFFFFF AND JUMP JUMPDEST SWAP1 POP SWAP2 SWAP1 POP JUMP JUMPDEST PUSH1 0x0 PUSH1 0x6 PUSH1 0x0 DUP4 PUSH20 0xFFFFFFFFFFFFFFFFFFFFFFFFFFFFFFFFFFFFFFFF AND PUSH20 0xFFFFFFFFFFFFFFFFFFFFFFFFFFFFFFFFFFFFFFFF AND DUP2 MSTORE PUSH1 0x20 ADD SWAP1 DUP2 MSTORE PUSH1 0x20 ADD PUSH1 0x0 KECCAK256 DUP1 SLOAD SWAP1 POP SWAP1 POP SWAP2 SWAP1 POP JUMP JUMPDEST PUSH2 0xDDB PUSH2 0x487E JUMP JUMPDEST PUSH20 0xFFFFFFFFFFFFFFFFFFFFFFFFFFFFFFFFFFFFFFFF AND PUSH1 0x0 DUP1 SLOAD SWAP1 PUSH2 0x100 EXP SWAP1 DIV PUSH20 0xFFFFFFFFFFFFFFFFFFFFFFFFFFFFFFFFFFFFFFFF AND PUSH20 0xFFFFFFFFFFFFFFFFFFFFFFFFFFFFFFFFFFFFFFFF AND EQ PUSH2 0xE9B JUMPI PUSH1 0x40 MLOAD PUSH32 0x8C379A000000000000000000000000000000000000000000000000000000000 DUP2 MSTORE PUSH1 0x4 ADD DUP1 DUP1 PUSH1 0x20 ADD DUP3 DUP2 SUB DUP3 MSTORE PUSH1 0x20 DUP2 MSTORE PUSH1 0x20 ADD DUP1 PUSH32 0x4F776E61626C653A2063616C6C6572206973206E6F7420746865206F776E6572 DUP2 MSTORE POP PUSH1 0x20 ADD SWAP2 POP POP PUSH1 0x40 MLOAD DUP1 SWAP2 SUB SWAP1 REVERT JUMPDEST DUP1 PUSH1 0x13 PUSH1 0x0 PUSH2 0x100 EXP DUP2 SLOAD DUP2 PUSH20 0xFFFFFFFFFFFFFFFFFFFFFFFFFFFFFFFFFFFFFFFF MUL NOT AND SWAP1 DUP4 PUSH20 0xFFFFFFFFFFFFFFFFFFFFFFFFFFFFFFFFFFFFFFFF AND MUL OR SWAP1 SSTORE POP POP JUMP JUMPDEST PUSH1 0x2 PUSH1 0x1 SLOAD EQ ISZERO PUSH2 0xF58 JUMPI PUSH1 0x40 MLOAD PUSH32 0x8C379A000000000000000000000000000000000000000000000000000000000 DUP2 MSTORE PUSH1 0x4 ADD DUP1 DUP1 PUSH1 0x20 ADD DUP3 DUP2 SUB DUP3 MSTORE PUSH1 0x1F DUP2 MSTORE PUSH1 0x20 ADD DUP1 PUSH32 0x5265656E7472616E637947756172643A207265656E7472616E742063616C6C00 DUP2 MSTORE POP PUSH1 0x20 ADD SWAP2 POP POP PUSH1 0x40 MLOAD DUP1 SWAP2 SUB SWAP1 REVERT JUMPDEST PUSH1 0x2 PUSH1 0x1 DUP2 SWAP1 SSTORE POP PUSH1 0x0 DUP2 GT PUSH2 0xFD6 JUMPI PUSH1 0x40 MLOAD PUSH32 0x8C379A000000000000000000000000000000000000000000000000000000000 DUP2 MSTORE PUSH1 0x4 ADD DUP1 DUP1 PUSH1 0x20 ADD DUP3 DUP2 SUB DUP3 MSTORE PUSH1 0xE DUP2 MSTORE PUSH1 0x20 ADD DUP1 PUSH32 0x5A45524F2057495448445241574C000000000000000000000000000000000000 DUP2 MSTORE POP PUSH1 0x20 ADD SWAP2 POP POP PUSH1 0x40 MLOAD DUP1 SWAP2 SUB SWAP1 REVERT JUMPDEST PUSH1 0x0 PUSH1 0x3 PUSH1 0x0 CALLER PUSH20 0xFFFFFFFFFFFFFFFFFFFFFFFFFFFFFFFFFFFFFFFF AND PUSH20 0xFFFFFFFFFFFFFFFFFFFFFFFFFFFFFFFFFFFFFFFF AND DUP2 MSTORE PUSH1 0x20 ADD SWAP1 DUP2 MSTORE PUSH1 0x20 ADD PUSH1 0x0 KECCAK256 PUSH1 0x2 ADD PUSH1 0x0 DUP7 PUSH20 0xFFFFFFFFFFFFFFFFFFFFFFFFFFFFFFFFFFFFFFFF AND PUSH20 0xFFFFFFFFFFFFFFFFFFFFFFFFFFFFFFFFFFFFFFFF AND DUP2 MSTORE PUSH1 0x20 ADD SWAP1 DUP2 MSTORE PUSH1 0x20 ADD PUSH1 0x0 KECCAK256 DUP5 DUP2 SLOAD DUP2 LT PUSH2 0x1062 JUMPI INVALID JUMPDEST SWAP1 PUSH1 0x0 MSTORE PUSH1 0x20 PUSH1 0x0 KECCAK256 ADD SLOAD SWAP1 POP PUSH1 0x0 PUSH1 0x6 PUSH1 0x0 DUP8 PUSH20 0xFFFFFFFFFFFFFFFFFFFFFFFFFFFFFFFFFFFFFFFF AND PUSH20 0xFFFFFFFFFFFFFFFFFFFFFFFFFFFFFFFFFFFFFFFF AND DUP2 MSTORE PUSH1 0x20 ADD SWAP1 DUP2 MSTORE PUSH1 0x20 ADD PUSH1 0x0 KECCAK256 DUP3 DUP2 SLOAD DUP2 LT PUSH2 0x10BB JUMPI INVALID JUMPDEST SWAP1 PUSH1 0x0 MSTORE PUSH1 0x20 PUSH1 0x0 KECCAK256 SWAP1 PUSH1 0x6 MUL ADD SWAP1 POP DUP4 DUP3 EQ DUP1 ISZERO PUSH2 0x1129 JUMPI POP CALLER PUSH20 0xFFFFFFFFFFFFFFFFFFFFFFFFFFFFFFFFFFFFFFFF AND DUP2 PUSH1 0x5 ADD PUSH1 0x0 SWAP1 SLOAD SWAP1 PUSH2 0x100 EXP SWAP1 DIV PUSH20 0xFFFFFFFFFFFFFFFFFFFFFFFFFFFFFFFFFFFFFFFF AND PUSH20 0xFFFFFFFFFFFFFFFFFFFFFFFFFFFFFFFFFFFFFFFF AND EQ JUMPDEST PUSH2 0x119B JUMPI PUSH1 0x40 MLOAD PUSH32 0x8C379A000000000000000000000000000000000000000000000000000000000 DUP2 MSTORE PUSH1 0x4 ADD DUP1 DUP1 PUSH1 0x20 ADD DUP3 DUP2 SUB DUP3 MSTORE PUSH1 0xD DUP2 MSTORE PUSH1 0x20 ADD DUP1 PUSH32 0x4C4F434B204D49534D4154434800000000000000000000000000000000000000 DUP2 MSTORE POP PUSH1 0x20 ADD SWAP2 POP POP PUSH1 0x40 MLOAD DUP1 SWAP2 SUB SWAP1 REVERT JUMPDEST TIMESTAMP DUP2 PUSH1 0x3 ADD SLOAD LT PUSH2 0x1214 JUMPI PUSH1 0x40 MLOAD PUSH32 0x8C379A000000000000000000000000000000000000000000000000000000000 DUP2 MSTORE PUSH1 0x4 ADD DUP1 DUP1 PUSH1 0x20 ADD DUP3 DUP2 SUB DUP3 MSTORE PUSH1 0x7 DUP2 MSTORE PUSH1 0x20 ADD DUP1 PUSH32 0x4E4F542059455400000000000000000000000000000000000000000000000000 DUP2 MSTORE POP PUSH1 0x20 ADD SWAP2 POP POP PUSH1 0x40 MLOAD DUP1 SWAP2 SUB SWAP1 REVERT JUMPDEST PUSH2 0x122B DUP4 DUP3 PUSH1 0x1 ADD SLOAD PUSH2 0x4886 SWAP1 SWAP2 SWAP1 PUSH4 0xFFFFFFFF AND JUMP JUMPDEST DUP2 PUSH1 0x1 ADD DUP2 SWAP1 SSTORE POP PUSH1 0x0 DUP2 PUSH1 0x1 ADD SLOAD EQ ISZERO PUSH2 0x1380 JUMPI PUSH1 0x0 PUSH1 0x3 PUSH1 0x0 CALLER PUSH20 0xFFFFFFFFFFFFFFFFFFFFFFFFFFFFFFFFFFFFFFFF AND PUSH20 0xFFFFFFFFFFFFFFFFFFFFFFFFFFFFFFFFFFFFFFFF AND DUP2 MSTORE PUSH1 0x20 ADD SWAP1 DUP2 MSTORE PUSH1 0x20 ADD PUSH1 0x0 KECCAK256 PUSH1 0x2 ADD PUSH1 0x0 DUP9 PUSH20 0xFFFFFFFFFFFFFFFFFFFFFFFFFFFFFFFFFFFFFFFF AND PUSH20 0xFFFFFFFFFFFFFFFFFFFFFFFFFFFFFFFFFFFFFFFF AND DUP2 MSTORE PUSH1 0x20 ADD SWAP1 DUP2 MSTORE PUSH1 0x20 ADD PUSH1 0x0 KECCAK256 SWAP1 POP DUP1 PUSH1 0x1 DUP3 DUP1 SLOAD SWAP1 POP SUB DUP2 SLOAD DUP2 LT PUSH2 0x12D6 JUMPI INVALID JUMPDEST SWAP1 PUSH1 0x0 MSTORE PUSH1 0x20 PUSH1 0x0 KECCAK256 ADD SLOAD DUP2 DUP8 DUP2 SLOAD DUP2 LT PUSH2 0x12ED JUMPI INVALID JUMPDEST SWAP1 PUSH1 0x0 MSTORE PUSH1 0x20 PUSH1 0x0 KECCAK256 ADD DUP2 SWAP1 SSTORE POP DUP1 DUP1 SLOAD DUP1 PUSH2 0x1305 JUMPI INVALID JUMPDEST PUSH1 0x1 SWAP1 SUB DUP2 DUP2 SWAP1 PUSH1 0x0 MSTORE PUSH1 0x20 PUSH1 0x0 KECCAK256 ADD PUSH1 0x0 SWAP1 SSTORE SWAP1 SSTORE PUSH1 0x0 DUP2 DUP1 SLOAD SWAP1 POP EQ ISZERO PUSH2 0x137E JUMPI PUSH2 0x137C DUP8 PUSH1 0x3 PUSH1 0x0 CALLER PUSH20 0xFFFFFFFFFFFFFFFFFFFFFFFFFFFFFFFFFFFFFFFF AND PUSH20 0xFFFFFFFFFFFFFFFFFFFFFFFFFFFFFFFFFFFFFFFF AND DUP2 MSTORE PUSH1 0x20 ADD SWAP1 DUP2 MSTORE PUSH1 0x20 ADD PUSH1 0x0 KECCAK256 PUSH1 0x0 ADD PUSH2 0x48D0 SWAP1 SWAP2 SWAP1 PUSH4 0xFFFFFFFF AND JUMP JUMPDEST POP JUMPDEST POP JUMPDEST PUSH2 0x138B DUP7 CALLER DUP6 PUSH2 0x4900 JUMP JUMPDEST PUSH32 0xCCAD973DCD043C7D680389DB4378BD6B9775DB7124092E9E0422C9E46D7985DC DUP7 DUP5 PUSH1 0x40 MLOAD DUP1 DUP4 PUSH20 0xFFFFFFFFFFFFFFFFFFFFFFFFFFFFFFFFFFFFFFFF AND DUP2 MSTORE PUSH1 0x20 ADD DUP3 DUP2 MSTORE PUSH1 0x20 ADD SWAP3 POP POP POP PUSH1 0x40 MLOAD DUP1 SWAP2 SUB SWAP1 LOG1 POP POP PUSH1 0x1 DUP1 DUP2 SWAP1 SSTORE POP POP POP POP POP JUMP JUMPDEST PUSH1 0x0 PUSH2 0x13FB PUSH1 0x10 PUSH2 0x4AE3 JUMP JUMPDEST SWAP1 POP SWAP1 JUMP JUMPDEST PUSH1 0x2 PUSH1 0x1 SLOAD EQ ISZERO PUSH2 0x1479 JUMPI PUSH1 0x40 MLOAD PUSH32 0x8C379A000000000000000000000000000000000000000000000000000000000 DUP2 MSTORE PUSH1 0x4 ADD DUP1 DUP1 PUSH1 0x20 ADD DUP3 DUP2 SUB DUP3 MSTORE PUSH1 0x1F DUP2 MSTORE PUSH1 0x20 ADD DUP1 PUSH32 0x5265656E7472616E637947756172643A207265656E7472616E742063616C6C00 DUP2 MSTORE POP PUSH1 0x20 ADD SWAP2 POP POP PUSH1 0x40 MLOAD DUP1 SWAP2 SUB SWAP1 REVERT JUMPDEST PUSH1 0x2 PUSH1 0x1 DUP2 SWAP1 SSTORE POP PUSH1 0x0 DUP2 GT PUSH2 0x14F7 JUMPI PUSH1 0x40 MLOAD PUSH32 0x8C379A000000000000000000000000000000000000000000000000000000000 DUP2 MSTORE PUSH1 0x4 ADD DUP1 DUP1 PUSH1 0x20 ADD DUP3 DUP2 SUB DUP3 MSTORE PUSH1 0xB DUP2 MSTORE PUSH1 0x20 ADD DUP1 PUSH32 0x5A45524F20414D4F554E54000000000000000000000000000000000000000000 DUP2 MSTORE POP PUSH1 0x20 ADD SWAP2 POP POP PUSH1 0x40 MLOAD DUP1 SWAP2 SUB SWAP1 REVERT JUMPDEST PUSH1 0x0 PUSH1 0x3 PUSH1 0x0 CALLER PUSH20 0xFFFFFFFFFFFFFFFFFFFFFFFFFFFFFFFFFFFFFFFF AND PUSH20 0xFFFFFFFFFFFFFFFFFFFFFFFFFFFFFFFFFFFFFFFF AND DUP2 MSTORE PUSH1 0x20 ADD SWAP1 DUP2 MSTORE PUSH1 0x20 ADD PUSH1 0x0 KECCAK256 PUSH1 0x2 ADD PUSH1 0x0 DUP7 PUSH20 0xFFFFFFFFFFFFFFFFFFFFFFFFFFFFFFFFFFFFFFFF AND PUSH20 0xFFFFFFFFFFFFFFFFFFFFFFFFFFFFFFFFFFFFFFFF AND DUP2 MSTORE PUSH1 0x20 ADD SWAP1 DUP2 MSTORE PUSH1 0x20 ADD PUSH1 0x0 KECCAK256 DUP5 DUP2 SLOAD DUP2 LT PUSH2 0x1583 JUMPI INVALID JUMPDEST SWAP1 PUSH1 0x0 MSTORE PUSH1 0x20 PUSH1 0x0 KECCAK256 ADD SLOAD SWAP1 POP PUSH1 0x0 PUSH1 0x6 PUSH1 0x0 DUP8 PUSH20 0xFFFFFFFFFFFFFFFFFFFFFFFFFFFFFFFFFFFFFFFF AND PUSH20 0xFFFFFFFFFFFFFFFFFFFFFFFFFFFFFFFFFFFFFFFF AND DUP2 MSTORE PUSH1 0x20 ADD SWAP1 DUP2 MSTORE PUSH1 0x20 ADD PUSH1 0x0 KECCAK256 DUP3 DUP2 SLOAD DUP2 LT PUSH2 0x15DC JUMPI INVALID JUMPDEST SWAP1 PUSH1 0x0 MSTORE PUSH1 0x20 PUSH1 0x0 KECCAK256 SWAP1 PUSH1 0x6 MUL ADD SWAP1 POP DUP4 DUP3 EQ DUP1 ISZERO PUSH2 0x164A JUMPI POP CALLER PUSH20 0xFFFFFFFFFFFFFFFFFFFFFFFFFFFFFFFFFFFFFFFF AND DUP2 PUSH1 0x5 ADD PUSH1 0x0 SWAP1 SLOAD SWAP1 PUSH2 0x100 EXP SWAP1 DIV PUSH20 0xFFFFFFFFFFFFFFFFFFFFFFFFFFFFFFFFFFFFFFFF AND PUSH20 0xFFFFFFFFFFFFFFFFFFFFFFFFFFFFFFFFFFFFFFFF AND EQ JUMPDEST PUSH2 0x16BC JUMPI PUSH1 0x40 MLOAD PUSH32 0x8C379A000000000000000000000000000000000000000000000000000000000 DUP2 MSTORE PUSH1 0x4 ADD DUP1 DUP1 PUSH1 0x20 ADD DUP3 DUP2 SUB DUP3 MSTORE PUSH1 0xD DUP2 MSTORE PUSH1 0x20 ADD DUP1 PUSH32 0x4C4F434B204D49534D4154434800000000000000000000000000000000000000 DUP2 MSTORE POP PUSH1 0x20 ADD SWAP2 POP POP PUSH1 0x40 MLOAD DUP1 SWAP2 SUB SWAP1 REVERT JUMPDEST PUSH1 0x7 PUSH1 0x0 ADD SLOAD CALLVALUE EQ PUSH2 0x1736 JUMPI PUSH1 0x40 MLOAD PUSH32 0x8C379A000000000000000000000000000000000000000000000000000000000 DUP2 MSTORE PUSH1 0x4 ADD DUP1 DUP1 PUSH1 0x20 ADD DUP3 DUP2 SUB DUP3 MSTORE PUSH1 0xB DUP2 MSTORE PUSH1 0x20 ADD DUP1 PUSH32 0x464545204E4F54204D4554000000000000000000000000000000000000000000 DUP2 MSTORE POP PUSH1 0x20 ADD SWAP2 POP POP PUSH1 0x40 MLOAD DUP1 SWAP2 SUB SWAP1 REVERT JUMPDEST PUSH1 0x12 PUSH1 0x0 SWAP1 SLOAD SWAP1 PUSH2 0x100 EXP SWAP1 DIV PUSH20 0xFFFFFFFFFFFFFFFFFFFFFFFFFFFFFFFFFFFFFFFF AND PUSH20 0xFFFFFFFFFFFFFFFFFFFFFFFFFFFFFFFFFFFFFFFF AND PUSH2 0x8FC PUSH1 0x7 PUSH1 0x0 ADD SLOAD SWAP1 DUP2 ISZERO MUL SWAP1 PUSH1 0x40 MLOAD PUSH1 0x0 PUSH1 0x40 MLOAD DUP1 DUP4 SUB DUP2 DUP6 DUP9 DUP9 CALL SWAP4 POP POP POP POP ISZERO DUP1 ISZERO PUSH2 0x17A3 JUMPI RETURNDATASIZE PUSH1 0x0 DUP1 RETURNDATACOPY RETURNDATASIZE PUSH1 0x0 REVERT JUMPDEST POP PUSH2 0x17BB DUP4 DUP3 PUSH1 0x1 ADD SLOAD PUSH2 0x4886 SWAP1 SWAP2 SWAP1 PUSH4 0xFFFFFFFF AND JUMP JUMPDEST DUP2 PUSH1 0x1 ADD DUP2 SWAP1 SSTORE POP PUSH2 0x17CB PUSH2 0x540D JUMP JUMPDEST DUP2 PUSH1 0x0 ADD SLOAD DUP2 PUSH1 0x0 ADD DUP2 DUP2 MSTORE POP POP DUP4 DUP2 PUSH1 0x20 ADD DUP2 DUP2 MSTORE POP POP DUP4 DUP2 PUSH1 0x40 ADD DUP2 DUP2 MSTORE POP POP DUP2 PUSH1 0x3 ADD SLOAD DUP2 PUSH1 0x60 ADD DUP2 DUP2 MSTORE POP POP PUSH1 0x6 PUSH1 0x0 DUP9 PUSH20 0xFFFFFFFFFFFFFFFFFFFFFFFFFFFFFFFFFFFFFFFF AND PUSH20 0xFFFFFFFFFFFFFFFFFFFFFFFFFFFFFFFFFFFFFFFF AND DUP2 MSTORE PUSH1 0x20 ADD SWAP1 DUP2 MSTORE PUSH1 0x20 ADD PUSH1 0x0 KECCAK256 DUP1 SLOAD SWAP1 POP DUP2 PUSH1 0x80 ADD DUP2 DUP2 MSTORE POP POP CALLER DUP2 PUSH1 0xA0 ADD SWAP1 PUSH20 0xFFFFFFFFFFFFFFFFFFFFFFFFFFFFFFFFFFFFFFFF AND SWAP1 DUP2 PUSH20 0xFFFFFFFFFFFFFFFFFFFFFFFFFFFFFFFFFFFFFFFF AND DUP2 MSTORE POP POP PUSH1 0x6 PUSH1 0x0 DUP9 PUSH20 0xFFFFFFFFFFFFFFFFFFFFFFFFFFFFFFFFFFFFFFFF AND PUSH20 0xFFFFFFFFFFFFFFFFFFFFFFFFFFFFFFFFFFFFFFFF AND DUP2 MSTORE PUSH1 0x20 ADD SWAP1 DUP2 MSTORE PUSH1 0x20 ADD PUSH1 0x0 KECCAK256 DUP2 SWAP1 DUP1 PUSH1 0x1 DUP2 SLOAD ADD DUP1 DUP3 SSTORE DUP1 SWAP2 POP POP PUSH1 0x1 SWAP1 SUB SWAP1 PUSH1 0x0 MSTORE PUSH1 0x20 PUSH1 0x0 KECCAK256 SWAP1 PUSH1 0x6 MUL ADD PUSH1 0x0 SWAP1 SWAP2 SWAP1 SWAP2 SWAP1 SWAP2 POP PUSH1 0x0 DUP3 ADD MLOAD DUP2 PUSH1 0x0 ADD SSTORE PUSH1 0x20 DUP3 ADD MLOAD DUP2 PUSH1 0x1 ADD SSTORE PUSH1 0x40 DUP3 ADD MLOAD DUP2 PUSH1 0x2 ADD SSTORE PUSH1 0x60 DUP3 ADD MLOAD DUP2 PUSH1 0x3 ADD SSTORE PUSH1 0x80 DUP3 ADD MLOAD DUP2 PUSH1 0x4 ADD SSTORE PUSH1 0xA0 DUP3 ADD MLOAD DUP2 PUSH1 0x5 ADD PUSH1 0x0 PUSH2 0x100 EXP DUP2 SLOAD DUP2 PUSH20 0xFFFFFFFFFFFFFFFFFFFFFFFFFFFFFFFFFFFFFFFF MUL NOT AND SWAP1 DUP4 PUSH20 0xFFFFFFFFFFFFFFFFFFFFFFFFFFFFFFFFFFFFFFFF AND MUL OR SWAP1 SSTORE POP POP POP PUSH1 0x0 PUSH1 0x3 PUSH1 0x0 CALLER PUSH20 0xFFFFFFFFFFFFFFFFFFFFFFFFFFFFFFFFFFFFFFFF AND PUSH20 0xFFFFFFFFFFFFFFFFFFFFFFFFFFFFFFFFFFFFFFFF AND DUP2 MSTORE PUSH1 0x20 ADD SWAP1 DUP2 MSTORE PUSH1 0x20 ADD PUSH1 0x0 KECCAK256 SWAP1 POP PUSH1 0x0 DUP2 PUSH1 0x2 ADD PUSH1 0x0 DUP11 PUSH20 0xFFFFFFFFFFFFFFFFFFFFFFFFFFFFFFFFFFFFFFFF AND PUSH20 0xFFFFFFFFFFFFFFFFFFFFFFFFFFFFFFFFFFFFFFFF AND DUP2 MSTORE PUSH1 0x20 ADD SWAP1 DUP2 MSTORE PUSH1 0x20 ADD PUSH1 0x0 KECCAK256 SWAP1 POP DUP1 DUP4 PUSH1 0x80 ADD MLOAD SWAP1 DUP1 PUSH1 0x1 DUP2 SLOAD ADD DUP1 DUP3 SSTORE DUP1 SWAP2 POP POP PUSH1 0x1 SWAP1 SUB SWAP1 PUSH1 0x0 MSTORE PUSH1 0x20 PUSH1 0x0 KECCAK256 ADD PUSH1 0x0 SWAP1 SWAP2 SWAP1 SWAP2 SWAP1 SWAP2 POP SSTORE POP POP POP POP POP PUSH1 0x1 DUP1 DUP2 SWAP1 SSTORE POP POP POP POP POP JUMP JUMPDEST PUSH1 0x2 PUSH1 0x1 SLOAD EQ ISZERO PUSH2 0x1AA2 JUMPI PUSH1 0x40 MLOAD PUSH32 0x8C379A000000000000000000000000000000000000000000000000000000000 DUP2 MSTORE PUSH1 0x4 ADD DUP1 DUP1 PUSH1 0x20 ADD DUP3 DUP2 SUB DUP3 MSTORE PUSH1 0x1F DUP2 MSTORE PUSH1 0x20 ADD DUP1 PUSH32 0x5265656E7472616E637947756172643A207265656E7472616E742063616C6C00 DUP2 MSTORE POP PUSH1 0x20 ADD SWAP2 POP POP PUSH1 0x40 MLOAD DUP1 SWAP2 SUB SWAP1 REVERT JUMPDEST PUSH1 0x2 PUSH1 0x1 DUP2 SWAP1 SSTORE POP PUSH5 0x2540BE400 DUP2 LT PUSH2 0x1B24 JUMPI PUSH1 0x40 MLOAD PUSH32 0x8C379A000000000000000000000000000000000000000000000000000000000 DUP2 MSTORE PUSH1 0x4 ADD DUP1 DUP1 PUSH1 0x20 ADD DUP3 DUP2 SUB DUP3 MSTORE PUSH1 0x11 DUP2 MSTORE PUSH1 0x20 ADD DUP1 PUSH32 0x54494D455354414D5020494E56414C4944000000000000000000000000000000 DUP2 MSTORE POP PUSH1 0x20 ADD SWAP2 POP POP PUSH1 0x40 MLOAD DUP1 SWAP2 SUB SWAP1 REVERT JUMPDEST PUSH1 0x0 PUSH1 0x3 PUSH1 0x0 CALLER PUSH20 0xFFFFFFFFFFFFFFFFFFFFFFFFFFFFFFFFFFFFFFFF AND PUSH20 0xFFFFFFFFFFFFFFFFFFFFFFFFFFFFFFFFFFFFFFFF AND DUP2 MSTORE PUSH1 0x20 ADD SWAP1 DUP2 MSTORE PUSH1 0x20 ADD PUSH1 0x0 KECCAK256 PUSH1 0x2 ADD PUSH1 0x0 DUP7 PUSH20 0xFFFFFFFFFFFFFFFFFFFFFFFFFFFFFFFFFFFFFFFF AND PUSH20 0xFFFFFFFFFFFFFFFFFFFFFFFFFFFFFFFFFFFFFFFF AND DUP2 MSTORE PUSH1 0x20 ADD SWAP1 DUP2 MSTORE PUSH1 0x20 ADD PUSH1 0x0 KECCAK256 DUP5 DUP2 SLOAD DUP2 LT PUSH2 0x1BB0 JUMPI INVALID JUMPDEST SWAP1 PUSH1 0x0 MSTORE PUSH1 0x20 PUSH1 0x0 KECCAK256 ADD SLOAD SWAP1 POP PUSH1 0x0 PUSH1 0x6 PUSH1 0x0 DUP8 PUSH20 0xFFFFFFFFFFFFFFFFFFFFFFFFFFFFFFFFFFFFFFFF AND PUSH20 0xFFFFFFFFFFFFFFFFFFFFFFFFFFFFFFFFFFFFFFFF AND DUP2 MSTORE PUSH1 0x20 ADD SWAP1 DUP2 MSTORE PUSH1 0x20 ADD PUSH1 0x0 KECCAK256 DUP3 DUP2 SLOAD DUP2 LT PUSH2 0x1C09 JUMPI INVALID JUMPDEST SWAP1 PUSH1 0x0 MSTORE PUSH1 0x20 PUSH1 0x0 KECCAK256 SWAP1 PUSH1 0x6 MUL ADD SWAP1 POP DUP4 DUP3 EQ DUP1 ISZERO PUSH2 0x1C77 JUMPI POP CALLER PUSH20 0xFFFFFFFFFFFFFFFFFFFFFFFFFFFFFFFFFFFFFFFF AND DUP2 PUSH1 0x5 ADD PUSH1 0x0 SWAP1 SLOAD SWAP1 PUSH2 0x100 EXP SWAP1 DIV PUSH20 0xFFFFFFFFFFFFFFFFFFFFFFFFFFFFFFFFFFFFFFFF AND PUSH20 0xFFFFFFFFFFFFFFFFFFFFFFFFFFFFFFFFFFFFFFFF AND EQ JUMPDEST PUSH2 0x1CE9 JUMPI PUSH1 0x40 MLOAD PUSH32 0x8C379A000000000000000000000000000000000000000000000000000000000 DUP2 MSTORE PUSH1 0x4 ADD DUP1 DUP1 PUSH1 0x20 ADD DUP3 DUP2 SUB DUP3 MSTORE PUSH1 0xD DUP2 MSTORE PUSH1 0x20 ADD DUP1 PUSH32 0x4C4F434B204D49534D4154434800000000000000000000000000000000000000 DUP2 MSTORE POP PUSH1 0x20 ADD SWAP2 POP POP PUSH1 0x40 MLOAD DUP1 SWAP2 SUB SWAP1 REVERT JUMPDEST DUP3 DUP2 PUSH1 0x3 ADD SLOAD LT PUSH2 0x1D62 JUMPI PUSH1 0x40 MLOAD PUSH32 0x8C379A000000000000000000000000000000000000000000000000000000000 DUP2 MSTORE PUSH1 0x4 ADD DUP1 DUP1 PUSH1 0x20 ADD DUP3 DUP2 SUB DUP3 MSTORE PUSH1 0xD DUP2 MSTORE PUSH1 0x20 ADD DUP1 PUSH32 0x554E4C4F434B204245464F524500000000000000000000000000000000000000 DUP2 MSTORE POP PUSH1 0x20 ADD SWAP2 POP POP PUSH1 0x40 MLOAD DUP1 SWAP2 SUB SWAP1 REVERT JUMPDEST PUSH1 0x0 PUSH2 0x1D94 PUSH2 0x3E8 PUSH2 0x1D86 PUSH1 0x7 PUSH1 0x4 ADD SLOAD DUP6 PUSH1 0x1 ADD SLOAD PUSH2 0x4AF8 SWAP1 SWAP2 SWAP1 PUSH4 0xFFFFFFFF AND JUMP JUMPDEST PUSH2 0x4B7E SWAP1 SWAP2 SWAP1 PUSH4 0xFFFFFFFF AND JUMP JUMPDEST SWAP1 POP PUSH1 0x0 PUSH2 0x1DAF DUP3 DUP5 PUSH1 0x1 ADD SLOAD PUSH2 0x4886 SWAP1 SWAP2 SWAP1 PUSH4 0xFFFFFFFF AND JUMP JUMPDEST SWAP1 POP DUP1 DUP4 PUSH1 0x1 ADD DUP2 SWAP1 SSTORE POP DUP5 DUP4 PUSH1 0x3 ADD DUP2 SWAP1 SSTORE POP PUSH2 0x1DF0 DUP9 PUSH1 0x12 PUSH1 0x0 SWAP1 SLOAD SWAP1 PUSH2 0x100 EXP SWAP1 DIV PUSH20 0xFFFFFFFFFFFFFFFFFFFFFFFFFFFFFFFFFFFFFFFF AND DUP5 PUSH2 0x4900 JUMP JUMPDEST POP POP POP POP PUSH1 0x1 DUP1 DUP2 SWAP1 SSTORE POP POP POP POP POP JUMP JUMPDEST PUSH2 0x1E09 PUSH2 0x487E JUMP JUMPDEST PUSH20 0xFFFFFFFFFFFFFFFFFFFFFFFFFFFFFFFFFFFFFFFF AND PUSH1 0x0 DUP1 SLOAD SWAP1 PUSH2 0x100 EXP SWAP1 DIV PUSH20 0xFFFFFFFFFFFFFFFFFFFFFFFFFFFFFFFFFFFFFFFF AND PUSH20 0xFFFFFFFFFFFFFFFFFFFFFFFFFFFFFFFFFFFFFFFF AND EQ PUSH2 0x1EC9 JUMPI PUSH1 0x40 MLOAD PUSH32 0x8C379A000000000000000000000000000000000000000000000000000000000 DUP2 MSTORE PUSH1 0x4 ADD DUP1 DUP1 PUSH1 0x20 ADD DUP3 DUP2 SUB DUP3 MSTORE PUSH1 0x20 DUP2 MSTORE PUSH1 0x20 ADD DUP1 PUSH32 0x4F776E61626C653A2063616C6C6572206973206E6F7420746865206F776E6572 DUP2 MSTORE POP PUSH1 0x20 ADD SWAP2 POP POP PUSH1 0x40 MLOAD DUP1 SWAP2 SUB SWAP1 REVERT JUMPDEST PUSH1 0x0 PUSH20 0xFFFFFFFFFFFFFFFFFFFFFFFFFFFFFFFFFFFFFFFF AND PUSH1 0x0 DUP1 SLOAD SWAP1 PUSH2 0x100 EXP SWAP1 DIV PUSH20 0xFFFFFFFFFFFFFFFFFFFFFFFFFFFFFFFFFFFFFFFF AND PUSH20 0xFFFFFFFFFFFFFFFFFFFFFFFFFFFFFFFFFFFFFFFF AND PUSH32 0x8BE0079C531659141344CD1FD0A4F28419497F9722A3DAAFE3B4186F6B6457E0 PUSH1 0x40 MLOAD PUSH1 0x40 MLOAD DUP1 SWAP2 SUB SWAP1 LOG3 PUSH1 0x0 DUP1 PUSH1 0x0 PUSH2 0x100 EXP DUP2 SLOAD DUP2 PUSH20 0xFFFFFFFFFFFFFFFFFFFFFFFFFFFFFFFFFFFFFFFF MUL NOT AND SWAP1 DUP4 PUSH20 0xFFFFFFFFFFFFFFFFFFFFFFFFFFFFFFFFFFFFFFFF AND MUL OR SWAP1 SSTORE POP JUMP JUMPDEST PUSH1 0x0 PUSH2 0x1F93 PUSH1 0x4 PUSH2 0x4AE3 JUMP JUMPDEST SWAP1 POP SWAP1 JUMP JUMPDEST PUSH2 0x1FA0 PUSH2 0x487E JUMP JUMPDEST PUSH20 0xFFFFFFFFFFFFFFFFFFFFFFFFFFFFFFFFFFFFFFFF AND PUSH1 0x0 DUP1 SLOAD SWAP1 PUSH2 0x100 EXP SWAP1 DIV PUSH20 0xFFFFFFFFFFFFFFFFFFFFFFFFFFFFFFFFFFFFFFFF AND PUSH20 0xFFFFFFFFFFFFFFFFFFFFFFFFFFFFFFFFFFFFFFFF AND EQ PUSH2 0x2060 JUMPI PUSH1 0x40 MLOAD PUSH32 0x8C379A000000000000000000000000000000000000000000000000000000000 DUP2 MSTORE PUSH1 0x4 ADD DUP1 DUP1 PUSH1 0x20 ADD DUP3 DUP2 SUB DUP3 MSTORE PUSH1 0x20 DUP2 MSTORE PUSH1 0x20 ADD DUP1 PUSH32 0x4F776E61626C653A2063616C6C6572206973206E6F7420746865206F776E6572 DUP2 MSTORE POP PUSH1 0x20 ADD SWAP2 POP POP PUSH1 0x40 MLOAD DUP1 SWAP2 SUB SWAP1 REVERT JUMPDEST DUP6 PUSH1 0x7 PUSH1 0x5 ADD DUP2 SWAP1 SSTORE POP DUP5 PUSH1 0x7 PUSH1 0x8 ADD DUP2 SWAP1 SSTORE POP DUP4 PUSH1 0x7 PUSH1 0x0 ADD DUP2 SWAP1 SSTORE POP DUP3 PUSH1 0x7 PUSH1 0x2 ADD DUP2 SWAP1 SSTORE POP DUP2 PUSH1 0x7 PUSH1 0x3 ADD DUP2 SWAP1 SSTORE POP DUP1 PUSH1 0x7 PUSH1 0x4 ADD DUP2 SWAP1 SSTORE POP POP POP POP POP POP POP JUMP JUMPDEST PUSH2 0x20AC PUSH2 0x487E JUMP JUMPDEST PUSH20 0xFFFFFFFFFFFFFFFFFFFFFFFFFFFFFFFFFFFFFFFF AND PUSH1 0x0 DUP1 SLOAD SWAP1 PUSH2 0x100 EXP SWAP1 DIV PUSH20 0xFFFFFFFFFFFFFFFFFFFFFFFFFFFFFFFFFFFFFFFF AND PUSH20 0xFFFFFFFFFFFFFFFFFFFFFFFFFFFFFFFFFFFFFFFF AND EQ PUSH2 0x216C JUMPI PUSH1 0x40 MLOAD PUSH32 0x8C379A000000000000000000000000000000000000000000000000000000000 DUP2 MSTORE PUSH1 0x4 ADD DUP1 DUP1 PUSH1 0x20 ADD DUP3 DUP2 SUB DUP3 MSTORE PUSH1 0x20 DUP2 MSTORE PUSH1 0x20 ADD DUP1 PUSH32 0x4F776E61626C653A2063616C6C6572206973206E6F7420746865206F776E6572 DUP2 MSTORE POP PUSH1 0x20 ADD SWAP2 POP POP PUSH1 0x40 MLOAD DUP1 SWAP2 SUB SWAP1 REVERT JUMPDEST DUP1 PUSH1 0x7 PUSH1 0x1 ADD PUSH1 0x0 PUSH2 0x100 EXP DUP2 SLOAD DUP2 PUSH20 0xFFFFFFFFFFFFFFFFFFFFFFFFFFFFFFFFFFFFFFFF MUL NOT AND SWAP1 DUP4 PUSH20 0xFFFFFFFFFFFFFFFFFFFFFFFFFFFFFFFFFFFFFFFF AND MUL OR SWAP1 SSTORE POP POP JUMP JUMPDEST PUSH1 0x2 PUSH1 0x1 SLOAD EQ ISZERO PUSH2 0x222C JUMPI PUSH1 0x40 MLOAD PUSH32 0x8C379A000000000000000000000000000000000000000000000000000000000 DUP2 MSTORE PUSH1 0x4 ADD DUP1 DUP1 PUSH1 0x20 ADD DUP3 DUP2 SUB DUP3 MSTORE PUSH1 0x1F DUP2 MSTORE PUSH1 0x20 ADD DUP1 PUSH32 0x5265656E7472616E637947756172643A207265656E7472616E742063616C6C00 DUP2 MSTORE POP PUSH1 0x20 ADD SWAP2 POP POP PUSH1 0x40 MLOAD DUP1 SWAP2 SUB SWAP1 REVERT JUMPDEST PUSH1 0x2 PUSH1 0x1 DUP2 SWAP1 SSTORE POP PUSH5 0x2540BE400 DUP5 LT PUSH2 0x22AE JUMPI PUSH1 0x40 MLOAD PUSH32 0x8C379A000000000000000000000000000000000000000000000000000000000 DUP2 MSTORE PUSH1 0x4 ADD DUP1 DUP1 PUSH1 0x20 ADD DUP3 DUP2 SUB DUP3 MSTORE PUSH1 0x11 DUP2 MSTORE PUSH1 0x20 ADD DUP1 PUSH32 0x54494D455354414D5020494E56414C4944000000000000000000000000000000 DUP2 MSTORE POP PUSH1 0x20 ADD SWAP2 POP POP PUSH1 0x40 MLOAD DUP1 SWAP2 SUB SWAP1 REVERT JUMPDEST PUSH1 0x0 DUP6 GT PUSH2 0x2324 JUMPI PUSH1 0x40 MLOAD PUSH32 0x8C379A000000000000000000000000000000000000000000000000000000000 DUP2 MSTORE PUSH1 0x4 ADD DUP1 DUP1 PUSH1 0x20 ADD DUP3 DUP2 SUB DUP3 MSTORE PUSH1 0xC DUP2 MSTORE PUSH1 0x20 ADD DUP1 PUSH32 0x494E53554646494349454E540000000000000000000000000000000000000000 DUP2 MSTORE POP PUSH1 0x20 ADD SWAP2 POP POP PUSH1 0x40 MLOAD DUP1 SWAP2 SUB SWAP1 REVERT JUMPDEST PUSH1 0x0 DUP7 SWAP1 POP PUSH1 0x0 PUSH1 0x2 PUSH1 0x0 SWAP1 SLOAD SWAP1 PUSH2 0x100 EXP SWAP1 DIV PUSH20 0xFFFFFFFFFFFFFFFFFFFFFFFFFFFFFFFFFFFFFFFF AND PUSH20 0xFFFFFFFFFFFFFFFFFFFFFFFFFFFFFFFFFFFFFFFF AND PUSH4 0xE6A43905 DUP4 PUSH20 0xFFFFFFFFFFFFFFFFFFFFFFFFFFFFFFFFFFFFFFFF AND PUSH4 0xDFE1681 PUSH1 0x40 MLOAD DUP2 PUSH4 0xFFFFFFFF AND PUSH1 0xE0 SHL DUP2 MSTORE PUSH1 0x4 ADD PUSH1 0x20 PUSH1 0x40 MLOAD DUP1 DUP4 SUB DUP2 DUP7 DUP1 EXTCODESIZE ISZERO DUP1 ISZERO PUSH2 0x23AF JUMPI PUSH1 0x0 DUP1 REVERT JUMPDEST POP GAS STATICCALL ISZERO DUP1 ISZERO PUSH2 0x23C3 JUMPI RETURNDATASIZE PUSH1 0x0 DUP1 RETURNDATACOPY RETURNDATASIZE PUSH1 0x0 REVERT JUMPDEST POP POP POP POP PUSH1 0x40 MLOAD RETURNDATASIZE PUSH1 0x20 DUP2 LT ISZERO PUSH2 0x23D9 JUMPI PUSH1 0x0 DUP1 REVERT JUMPDEST DUP2 ADD SWAP1 DUP1 DUP1 MLOAD SWAP1 PUSH1 0x20 ADD SWAP1 SWAP3 SWAP2 SWAP1 POP POP POP DUP5 PUSH20 0xFFFFFFFFFFFFFFFFFFFFFFFFFFFFFFFFFFFFFFFF AND PUSH4 0xD21220A7 PUSH1 0x40 MLOAD DUP2 PUSH4 0xFFFFFFFF AND PUSH1 0xE0 SHL DUP2 MSTORE PUSH1 0x4 ADD PUSH1 0x20 PUSH1 0x40 MLOAD DUP1 DUP4 SUB DUP2 DUP7 DUP1 EXTCODESIZE ISZERO DUP1 ISZERO PUSH2 0x2430 JUMPI PUSH1 0x0 DUP1 REVERT JUMPDEST POP GAS STATICCALL ISZERO DUP1 ISZERO PUSH2 0x2444 JUMPI RETURNDATASIZE PUSH1 0x0 DUP1 RETURNDATACOPY RETURNDATASIZE PUSH1 0x0 REVERT JUMPDEST POP POP POP POP PUSH1 0x40 MLOAD RETURNDATASIZE PUSH1 0x20 DUP2 LT ISZERO PUSH2 0x245A JUMPI PUSH1 0x0 DUP1 REVERT JUMPDEST DUP2 ADD SWAP1 DUP1 DUP1 MLOAD SWAP1 PUSH1 0x20 ADD SWAP1 SWAP3 SWAP2 SWAP1 POP POP POP PUSH1 0x40 MLOAD DUP4 PUSH4 0xFFFFFFFF AND PUSH1 0xE0 SHL DUP2 MSTORE PUSH1 0x4 ADD DUP1 DUP4 PUSH20 0xFFFFFFFFFFFFFFFFFFFFFFFFFFFFFFFFFFFFFFFF AND DUP2 MSTORE PUSH1 0x20 ADD DUP3 PUSH20 0xFFFFFFFFFFFFFFFFFFFFFFFFFFFFFFFFFFFFFFFF AND DUP2 MSTORE PUSH1 0x20 ADD SWAP3 POP POP POP PUSH1 0x20 PUSH1 0x40 MLOAD DUP1 DUP4 SUB DUP2 DUP7 DUP1 EXTCODESIZE ISZERO DUP1 ISZERO PUSH2 0x24D2 JUMPI PUSH1 0x0 DUP1 REVERT JUMPDEST POP GAS STATICCALL ISZERO DUP1 ISZERO PUSH2 0x24E6 JUMPI RETURNDATASIZE PUSH1 0x0 DUP1 RETURNDATACOPY RETURNDATASIZE PUSH1 0x0 REVERT JUMPDEST POP POP POP POP PUSH1 0x40 MLOAD RETURNDATASIZE PUSH1 0x20 DUP2 LT ISZERO PUSH2 0x24FC JUMPI PUSH1 0x0 DUP1 REVERT JUMPDEST DUP2 ADD SWAP1 DUP1 DUP1 MLOAD SWAP1 PUSH1 0x20 ADD SWAP1 SWAP3 SWAP2 SWAP1 POP POP POP SWAP1 POP DUP8 PUSH20 0xFFFFFFFFFFFFFFFFFFFFFFFFFFFFFFFFFFFFFFFF AND DUP2 PUSH20 0xFFFFFFFFFFFFFFFFFFFFFFFFFFFFFFFFFFFFFFFF AND EQ PUSH2 0x25B0 JUMPI PUSH1 0x40 MLOAD PUSH32 0x8C379A000000000000000000000000000000000000000000000000000000000 DUP2 MSTORE PUSH1 0x4 ADD DUP1 DUP1 PUSH1 0x20 ADD DUP3 DUP2 SUB DUP3 MSTORE PUSH1 0x9 DUP2 MSTORE PUSH1 0x20 ADD DUP1 PUSH32 0x4E4F5420554E4956320000000000000000000000000000000000000000000000 DUP2 MSTORE POP PUSH1 0x20 ADD SWAP2 POP POP PUSH1 0x40 MLOAD DUP1 SWAP2 SUB SWAP1 REVERT JUMPDEST PUSH2 0x25BC DUP9 CALLER ADDRESS DUP11 PUSH2 0x4BC8 JUMP JUMPDEST PUSH1 0x0 PUSH20 0xFFFFFFFFFFFFFFFFFFFFFFFFFFFFFFFFFFFFFFFF AND DUP6 PUSH20 0xFFFFFFFFFFFFFFFFFFFFFFFFFFFFFFFFFFFFFFFF AND EQ ISZERO DUP1 ISZERO PUSH2 0x264B JUMPI POP PUSH1 0x0 PUSH20 0xFFFFFFFFFFFFFFFFFFFFFFFFFFFFFFFFFFFFFFFF AND PUSH1 0x7 PUSH1 0x6 ADD PUSH1 0x0 SWAP1 SLOAD SWAP1 PUSH2 0x100 EXP SWAP1 DIV PUSH20 0xFFFFFFFFFFFFFFFFFFFFFFFFFFFFFFFFFFFFFFFF AND PUSH20 0xFFFFFFFFFFFFFFFFFFFFFFFFFFFFFFFFFFFFFFFF AND EQ ISZERO JUMPDEST ISZERO PUSH2 0x2791 JUMPI PUSH1 0x7 DUP1 ADD SLOAD PUSH1 0x7 PUSH1 0x6 ADD PUSH1 0x0 SWAP1 SLOAD SWAP1 PUSH2 0x100 EXP SWAP1 DIV PUSH20 0xFFFFFFFFFFFFFFFFFFFFFFFFFFFFFFFFFFFFFFFF AND PUSH20 0xFFFFFFFFFFFFFFFFFFFFFFFFFFFFFFFFFFFFFFFF AND PUSH4 0x70A08231 DUP8 PUSH1 0x40 MLOAD DUP3 PUSH4 0xFFFFFFFF AND PUSH1 0xE0 SHL DUP2 MSTORE PUSH1 0x4 ADD DUP1 DUP3 PUSH20 0xFFFFFFFFFFFFFFFFFFFFFFFFFFFFFFFFFFFFFFFF AND DUP2 MSTORE PUSH1 0x20 ADD SWAP2 POP POP PUSH1 0x20 PUSH1 0x40 MLOAD DUP1 DUP4 SUB DUP2 DUP7 DUP1 EXTCODESIZE ISZERO DUP1 ISZERO PUSH2 0x26E1 JUMPI PUSH1 0x0 DUP1 REVERT JUMPDEST POP GAS STATICCALL ISZERO DUP1 ISZERO PUSH2 0x26F5 JUMPI RETURNDATASIZE PUSH1 0x0 DUP1 RETURNDATACOPY RETURNDATASIZE PUSH1 0x0 REVERT JUMPDEST POP POP POP POP PUSH1 0x40 MLOAD RETURNDATASIZE PUSH1 0x20 DUP2 LT ISZERO PUSH2 0x270B JUMPI PUSH1 0x0 DUP1 REVERT JUMPDEST DUP2 ADD SWAP1 DUP1 DUP1 MLOAD SWAP1 PUSH1 0x20 ADD SWAP1 SWAP3 SWAP2 SWAP1 POP POP POP LT ISZERO PUSH2 0x2790 JUMPI PUSH1 0x40 MLOAD PUSH32 0x8C379A000000000000000000000000000000000000000000000000000000000 DUP2 MSTORE PUSH1 0x4 ADD DUP1 DUP1 PUSH1 0x20 ADD DUP3 DUP2 SUB DUP3 MSTORE PUSH1 0x12 DUP2 MSTORE PUSH1 0x20 ADD DUP1 PUSH32 0x494E41444551554154452042414C414E43450000000000000000000000000000 DUP2 MSTORE POP PUSH1 0x20 ADD SWAP2 POP POP PUSH1 0x40 MLOAD DUP1 SWAP2 SUB SWAP1 REVERT JUMPDEST JUMPDEST PUSH2 0x27A5 CALLER PUSH1 0x10 PUSH2 0x4DAD SWAP1 SWAP2 SWAP1 PUSH4 0xFFFFFFFF AND JUMP JUMPDEST PUSH2 0x2C03 JUMPI DUP4 ISZERO PUSH2 0x29DB JUMPI PUSH1 0x0 PUSH1 0x7 PUSH1 0x0 ADD SLOAD SWAP1 POP PUSH1 0x0 PUSH20 0xFFFFFFFFFFFFFFFFFFFFFFFFFFFFFFFFFFFFFFFF AND DUP7 PUSH20 0xFFFFFFFFFFFFFFFFFFFFFFFFFFFFFFFFFFFFFFFF AND EQ PUSH2 0x2820 JUMPI PUSH2 0x281D PUSH2 0x3E8 PUSH2 0x280F PUSH1 0x7 PUSH1 0x8 ADD SLOAD PUSH2 0x3E8 SUB DUP5 PUSH2 0x4AF8 SWAP1 SWAP2 SWAP1 PUSH4 0xFFFFFFFF AND JUMP JUMPDEST PUSH2 0x4B7E SWAP1 SWAP2 SWAP1 PUSH4 0xFFFFFFFF AND JUMP JUMPDEST SWAP1 POP JUMPDEST DUP1 CALLVALUE EQ PUSH2 0x2895 JUMPI PUSH1 0x40 MLOAD PUSH32 0x8C379A000000000000000000000000000000000000000000000000000000000 DUP2 MSTORE PUSH1 0x4 ADD DUP1 DUP1 PUSH1 0x20 ADD DUP3 DUP2 SUB DUP3 MSTORE PUSH1 0xB DUP2 MSTORE PUSH1 0x20 ADD DUP1 PUSH32 0x464545204E4F54204D4554000000000000000000000000000000000000000000 DUP2 MSTORE POP PUSH1 0x20 ADD SWAP2 POP POP PUSH1 0x40 MLOAD DUP1 SWAP2 SUB SWAP1 REVERT JUMPDEST PUSH1 0x0 DUP2 SWAP1 POP PUSH1 0x0 DUP3 EQ ISZERO DUP1 ISZERO PUSH2 0x28D8 JUMPI POP PUSH1 0x0 PUSH20 0xFFFFFFFFFFFFFFFFFFFFFFFFFFFFFFFFFFFFFFFF AND DUP8 PUSH20 0xFFFFFFFFFFFFFFFFFFFFFFFFFFFFFFFFFFFFFFFF AND EQ ISZERO JUMPDEST ISZERO PUSH2 0x296B JUMPI PUSH1 0x0 PUSH2 0x290B PUSH2 0x3E8 PUSH2 0x28FD PUSH1 0x7 PUSH1 0x5 ADD SLOAD DUP6 PUSH2 0x4AF8 SWAP1 SWAP2 SWAP1 PUSH4 0xFFFFFFFF AND JUMP JUMPDEST PUSH2 0x4B7E SWAP1 SWAP2 SWAP1 PUSH4 0xFFFFFFFF AND JUMP JUMPDEST SWAP1 POP DUP8 PUSH20 0xFFFFFFFFFFFFFFFFFFFFFFFFFFFFFFFFFFFFFFFF AND PUSH2 0x8FC DUP3 SWAP1 DUP2 ISZERO MUL SWAP1 PUSH1 0x40 MLOAD PUSH1 0x0 PUSH1 0x40 MLOAD DUP1 DUP4 SUB DUP2 DUP6 DUP9 DUP9 CALL SWAP4 POP POP POP POP ISZERO DUP1 ISZERO PUSH2 0x2953 JUMPI RETURNDATASIZE PUSH1 0x0 DUP1 RETURNDATACOPY RETURNDATASIZE PUSH1 0x0 REVERT JUMPDEST POP PUSH2 0x2967 DUP2 DUP4 PUSH2 0x4886 SWAP1 SWAP2 SWAP1 PUSH4 0xFFFFFFFF AND JUMP JUMPDEST SWAP2 POP POP JUMPDEST PUSH1 0x12 PUSH1 0x0 SWAP1 SLOAD SWAP1 PUSH2 0x100 EXP SWAP1 DIV PUSH20 0xFFFFFFFFFFFFFFFFFFFFFFFFFFFFFFFFFFFFFFFF AND PUSH20 0xFFFFFFFFFFFFFFFFFFFFFFFFFFFFFFFFFFFFFFFF AND PUSH2 0x8FC DUP3 SWAP1 DUP2 ISZERO MUL SWAP1 PUSH1 0x40 MLOAD PUSH1 0x0 PUSH1 0x40 MLOAD DUP1 DUP4 SUB DUP2 DUP6 DUP9 DUP9 CALL SWAP4 POP POP POP POP ISZERO DUP1 ISZERO PUSH2 0x29D3 JUMPI RETURNDATASIZE PUSH1 0x0 DUP1 RETURNDATACOPY RETURNDATASIZE PUSH1 0x0 REVERT JUMPDEST POP POP POP PUSH2 0x2BFE JUMP JUMPDEST PUSH1 0x0 PUSH1 0x7 PUSH1 0x2 ADD SLOAD SWAP1 POP PUSH1 0x0 PUSH20 0xFFFFFFFFFFFFFFFFFFFFFFFFFFFFFFFFFFFFFFFF AND DUP7 PUSH20 0xFFFFFFFFFFFFFFFFFFFFFFFFFFFFFFFFFFFFFFFF AND EQ PUSH2 0x2A4C JUMPI PUSH2 0x2A49 PUSH2 0x3E8 PUSH2 0x2A3B PUSH1 0x7 PUSH1 0x8 ADD SLOAD PUSH2 0x3E8 SUB DUP5 PUSH2 0x4AF8 SWAP1 SWAP2 SWAP1 PUSH4 0xFFFFFFFF AND JUMP JUMPDEST PUSH2 0x4B7E SWAP1 SWAP2 SWAP1 PUSH4 0xFFFFFFFF AND JUMP JUMPDEST SWAP1 POP JUMPDEST PUSH2 0x2A7D PUSH1 0x7 PUSH1 0x1 ADD PUSH1 0x0 SWAP1 SLOAD SWAP1 PUSH2 0x100 EXP SWAP1 DIV PUSH20 0xFFFFFFFFFFFFFFFFFFFFFFFFFFFFFFFFFFFFFFFF AND CALLER ADDRESS DUP5 PUSH2 0x4BC8 JUMP JUMPDEST PUSH1 0x0 PUSH1 0x7 PUSH1 0x5 ADD SLOAD EQ ISZERO DUP1 ISZERO PUSH2 0x2AC0 JUMPI POP PUSH1 0x0 PUSH20 0xFFFFFFFFFFFFFFFFFFFFFFFFFFFFFFFFFFFFFFFF AND DUP7 PUSH20 0xFFFFFFFFFFFFFFFFFFFFFFFFFFFFFFFFFFFFFFFF AND EQ ISZERO JUMPDEST ISZERO PUSH2 0x2B6C JUMPI PUSH1 0x0 PUSH2 0x2AF3 PUSH2 0x3E8 PUSH2 0x2AE5 PUSH1 0x7 PUSH1 0x5 ADD SLOAD DUP6 PUSH2 0x4AF8 SWAP1 SWAP2 SWAP1 PUSH4 0xFFFFFFFF AND JUMP JUMPDEST PUSH2 0x4B7E SWAP1 SWAP2 SWAP1 PUSH4 0xFFFFFFFF AND JUMP JUMPDEST SWAP1 POP PUSH2 0x2B25 PUSH1 0x7 PUSH1 0x1 ADD PUSH1 0x0 SWAP1 SLOAD SWAP1 PUSH2 0x100 EXP SWAP1 DIV PUSH20 0xFFFFFFFFFFFFFFFFFFFFFFFFFFFFFFFFFFFFFFFF AND DUP9 DUP4 PUSH2 0x4DDD JUMP JUMPDEST PUSH2 0x2B55 PUSH1 0x7 PUSH1 0x1 ADD PUSH1 0x0 SWAP1 SLOAD SWAP1 PUSH2 0x100 EXP SWAP1 DIV PUSH20 0xFFFFFFFFFFFFFFFFFFFFFFFFFFFFFFFFFFFFFFFF AND DUP9 DUP4 PUSH2 0x4900 JUMP JUMPDEST PUSH2 0x2B68 DUP2 DUP4 PUSH2 0x4886 SWAP1 SWAP2 SWAP1 PUSH4 0xFFFFFFFF AND JUMP JUMPDEST SWAP2 POP POP JUMPDEST PUSH1 0x7 PUSH1 0x1 ADD PUSH1 0x0 SWAP1 SLOAD SWAP1 PUSH2 0x100 EXP SWAP1 DIV PUSH20 0xFFFFFFFFFFFFFFFFFFFFFFFFFFFFFFFFFFFFFFFF AND PUSH20 0xFFFFFFFFFFFFFFFFFFFFFFFFFFFFFFFFFFFFFFFF AND PUSH4 0x42966C68 DUP3 PUSH1 0x40 MLOAD DUP3 PUSH4 0xFFFFFFFF AND PUSH1 0xE0 SHL DUP2 MSTORE PUSH1 0x4 ADD DUP1 DUP3 DUP2 MSTORE PUSH1 0x20 ADD SWAP2 POP POP PUSH1 0x0 PUSH1 0x40 MLOAD DUP1 DUP4 SUB DUP2 PUSH1 0x0 DUP8 DUP1 EXTCODESIZE ISZERO DUP1 ISZERO PUSH2 0x2BE4 JUMPI PUSH1 0x0 DUP1 REVERT JUMPDEST POP GAS CALL ISZERO DUP1 ISZERO PUSH2 0x2BF8 JUMPI RETURNDATASIZE PUSH1 0x0 DUP1 RETURNDATACOPY RETURNDATASIZE PUSH1 0x0 REVERT JUMPDEST POP POP POP POP POP JUMPDEST PUSH2 0x2C55 JUMP JUMPDEST PUSH1 0x0 CALLVALUE GT ISZERO PUSH2 0x2C54 JUMPI CALLER PUSH20 0xFFFFFFFFFFFFFFFFFFFFFFFFFFFFFFFFFFFFFFFF AND PUSH2 0x8FC CALLVALUE SWAP1 DUP2 ISZERO MUL SWAP1 PUSH1 0x40 MLOAD PUSH1 0x0 PUSH1 0x40 MLOAD DUP1 DUP4 SUB DUP2 DUP6 DUP9 DUP9 CALL SWAP4 POP POP POP POP ISZERO DUP1 ISZERO PUSH2 0x2C52 JUMPI RETURNDATASIZE PUSH1 0x0 DUP1 RETURNDATACOPY RETURNDATASIZE PUSH1 0x0 REVERT JUMPDEST POP JUMPDEST JUMPDEST PUSH1 0x0 PUSH2 0x2C83 PUSH2 0x3E8 PUSH2 0x2C75 PUSH1 0x7 PUSH1 0x4 ADD SLOAD DUP12 PUSH2 0x4AF8 SWAP1 SWAP2 SWAP1 PUSH4 0xFFFFFFFF AND JUMP JUMPDEST PUSH2 0x4B7E SWAP1 SWAP2 SWAP1 PUSH4 0xFFFFFFFF AND JUMP JUMPDEST SWAP1 POP DUP5 ISZERO DUP1 ISZERO PUSH2 0x2CA4 JUMPI POP PUSH2 0x2CA2 CALLER PUSH1 0x10 PUSH2 0x4DAD SWAP1 SWAP2 SWAP1 PUSH4 0xFFFFFFFF AND JUMP JUMPDEST ISZERO JUMPDEST ISZERO PUSH2 0x2CDC JUMPI PUSH2 0x2CD9 PUSH2 0x3E8 PUSH2 0x2CCB PUSH1 0x7 PUSH1 0x3 ADD SLOAD PUSH2 0x3E8 SUB DUP5 PUSH2 0x4AF8 SWAP1 SWAP2 SWAP1 PUSH4 0xFFFFFFFF AND JUMP JUMPDEST PUSH2 0x4B7E SWAP1 SWAP2 SWAP1 PUSH4 0xFFFFFFFF AND JUMP JUMPDEST SWAP1 POP JUMPDEST PUSH2 0x2D09 DUP10 PUSH1 0x12 PUSH1 0x0 SWAP1 SLOAD SWAP1 PUSH2 0x100 EXP SWAP1 DIV PUSH20 0xFFFFFFFFFFFFFFFFFFFFFFFFFFFFFFFFFFFFFFFF AND DUP4 PUSH2 0x4900 JUMP JUMPDEST PUSH1 0x0 PUSH2 0x2D1E DUP3 DUP11 PUSH2 0x4886 SWAP1 SWAP2 SWAP1 PUSH4 0xFFFFFFFF AND JUMP JUMPDEST SWAP1 POP PUSH2 0x2D28 PUSH2 0x540D JUMP JUMPDEST TIMESTAMP DUP2 PUSH1 0x0 ADD DUP2 DUP2 MSTORE POP POP DUP2 DUP2 PUSH1 0x20 ADD DUP2 DUP2 MSTORE POP POP DUP2 DUP2 PUSH1 0x40 ADD DUP2 DUP2 MSTORE POP POP DUP9 DUP2 PUSH1 0x60 ADD DUP2 DUP2 MSTORE POP POP PUSH1 0x6 PUSH1 0x0 DUP13 PUSH20 0xFFFFFFFFFFFFFFFFFFFFFFFFFFFFFFFFFFFFFFFF AND PUSH20 0xFFFFFFFFFFFFFFFFFFFFFFFFFFFFFFFFFFFFFFFF AND DUP2 MSTORE PUSH1 0x20 ADD SWAP1 DUP2 MSTORE PUSH1 0x20 ADD PUSH1 0x0 KECCAK256 DUP1 SLOAD SWAP1 POP DUP2 PUSH1 0x80 ADD DUP2 DUP2 MSTORE POP POP DUP6 DUP2 PUSH1 0xA0 ADD SWAP1 PUSH20 0xFFFFFFFFFFFFFFFFFFFFFFFFFFFFFFFFFFFFFFFF AND SWAP1 DUP2 PUSH20 0xFFFFFFFFFFFFFFFFFFFFFFFFFFFFFFFFFFFFFFFF AND DUP2 MSTORE POP POP PUSH1 0x6 PUSH1 0x0 DUP13 PUSH20 0xFFFFFFFFFFFFFFFFFFFFFFFFFFFFFFFFFFFFFFFF AND PUSH20 0xFFFFFFFFFFFFFFFFFFFFFFFFFFFFFFFFFFFFFFFF AND DUP2 MSTORE PUSH1 0x20 ADD SWAP1 DUP2 MSTORE PUSH1 0x20 ADD PUSH1 0x0 KECCAK256 DUP2 SWAP1 DUP1 PUSH1 0x1 DUP2 SLOAD ADD DUP1 DUP3 SSTORE DUP1 SWAP2 POP POP PUSH1 0x1 SWAP1 SUB SWAP1 PUSH1 0x0 MSTORE PUSH1 0x20 PUSH1 0x0 KECCAK256 SWAP1 PUSH1 0x6 MUL ADD PUSH1 0x0 SWAP1 SWAP2 SWAP1 SWAP2 SWAP1 SWAP2 POP PUSH1 0x0 DUP3 ADD MLOAD DUP2 PUSH1 0x0 ADD SSTORE PUSH1 0x20 DUP3 ADD MLOAD DUP2 PUSH1 0x1 ADD SSTORE PUSH1 0x40 DUP3 ADD MLOAD DUP2 PUSH1 0x2 ADD SSTORE PUSH1 0x60 DUP3 ADD MLOAD DUP2 PUSH1 0x3 ADD SSTORE PUSH1 0x80 DUP3 ADD MLOAD DUP2 PUSH1 0x4 ADD SSTORE PUSH1 0xA0 DUP3 ADD MLOAD DUP2 PUSH1 0x5 ADD PUSH1 0x0 PUSH2 0x100 EXP DUP2 SLOAD DUP2 PUSH20 0xFFFFFFFFFFFFFFFFFFFFFFFFFFFFFFFFFFFFFFFF MUL NOT AND SWAP1 DUP4 PUSH20 0xFFFFFFFFFFFFFFFFFFFFFFFFFFFFFFFFFFFFFFFF AND MUL OR SWAP1 SSTORE POP POP POP PUSH2 0x2ECC DUP12 PUSH1 0x4 PUSH2 0x4FC0 SWAP1 SWAP2 SWAP1 PUSH4 0xFFFFFFFF AND JUMP JUMPDEST POP PUSH1 0x0 PUSH1 0x3 PUSH1 0x0 DUP9 PUSH20 0xFFFFFFFFFFFFFFFFFFFFFFFFFFFFFFFFFFFFFFFF AND PUSH20 0xFFFFFFFFFFFFFFFFFFFFFFFFFFFFFFFFFFFFFFFF AND DUP2 MSTORE PUSH1 0x20 ADD SWAP1 DUP2 MSTORE PUSH1 0x20 ADD PUSH1 0x0 KECCAK256 SWAP1 POP PUSH2 0x2F26 DUP13 DUP3 PUSH1 0x0 ADD PUSH2 0x4FC0 SWAP1 SWAP2 SWAP1 PUSH4 0xFFFFFFFF AND JUMP JUMPDEST POP PUSH1 0x0 DUP2 PUSH1 0x2 ADD PUSH1 0x0 DUP15 PUSH20 0xFFFFFFFFFFFFFFFFFFFFFFFFFFFFFFFFFFFFFFFF AND PUSH20 0xFFFFFFFFFFFFFFFFFFFFFFFFFFFFFFFFFFFFFFFF AND DUP2 MSTORE PUSH1 0x20 ADD SWAP1 DUP2 MSTORE PUSH1 0x20 ADD PUSH1 0x0 KECCAK256 SWAP1 POP DUP1 DUP4 PUSH1 0x80 ADD MLOAD SWAP1 DUP1 PUSH1 0x1 DUP2 SLOAD ADD DUP1 DUP3 SSTORE DUP1 SWAP2 POP POP PUSH1 0x1 SWAP1 SUB SWAP1 PUSH1 0x0 MSTORE PUSH1 0x20 PUSH1 0x0 KECCAK256 ADD PUSH1 0x0 SWAP1 SWAP2 SWAP1 SWAP2 SWAP1 SWAP2 POP SSTORE PUSH32 0x830357565DA6ECFC26D8D9F69DF488ED6F70361AF9A07E570544AEB5C5E765E5 DUP14 CALLER DUP6 PUSH1 0x20 ADD MLOAD DUP7 PUSH1 0x0 ADD MLOAD DUP8 PUSH1 0x60 ADD MLOAD PUSH1 0x40 MLOAD DUP1 DUP7 PUSH20 0xFFFFFFFFFFFFFFFFFFFFFFFFFFFFFFFFFFFFFFFF AND DUP2 MSTORE PUSH1 0x20 ADD DUP6 PUSH20 0xFFFFFFFFFFFFFFFFFFFFFFFFFFFFFFFFFFFFFFFF AND DUP2 MSTORE PUSH1 0x20 ADD DUP5 DUP2 MSTORE PUSH1 0x20 ADD DUP4 DUP2 MSTORE PUSH1 0x20 ADD DUP3 DUP2 MSTORE PUSH1 0x20 ADD SWAP6 POP POP POP POP POP POP PUSH1 0x40 MLOAD DUP1 SWAP2 SUB SWAP1 LOG1 POP POP POP POP POP POP POP PUSH1 0x1 DUP1 DUP2 SWAP1 SSTORE POP POP POP POP POP POP POP JUMP JUMPDEST PUSH1 0x2 PUSH1 0x0 SWAP1 SLOAD SWAP1 PUSH2 0x100 EXP SWAP1 DIV PUSH20 0xFFFFFFFFFFFFFFFFFFFFFFFFFFFFFFFFFFFFFFFF AND DUP2 JUMP JUMPDEST PUSH1 0x0 PUSH2 0x3079 DUP3 PUSH1 0x10 PUSH2 0x4864 SWAP1 SWAP2 SWAP1 PUSH4 0xFFFFFFFF AND JUMP JUMPDEST SWAP1 POP SWAP2 SWAP1 POP JUMP JUMPDEST PUSH1 0x0 DUP1 PUSH1 0x0 SWAP1 SLOAD SWAP1 PUSH2 0x100 EXP SWAP1 DIV PUSH20 0xFFFFFFFFFFFFFFFFFFFFFFFFFFFFFFFFFFFFFFFF AND SWAP1 POP SWAP1 JUMP JUMPDEST PUSH1 0x0 DUP1 PUSH1 0x3 PUSH1 0x0 DUP6 PUSH20 0xFFFFFFFFFFFFFFFFFFFFFFFFFFFFFFFFFFFFFFFF AND PUSH20 0xFFFFFFFFFFFFFFFFFFFFFFFFFFFFFFFFFFFFFFFF AND DUP2 MSTORE PUSH1 0x20 ADD SWAP1 DUP2 MSTORE PUSH1 0x20 ADD PUSH1 0x0 KECCAK256 SWAP1 POP PUSH2 0x3103 DUP4 DUP3 PUSH1 0x0 ADD PUSH2 0x4864 SWAP1 SWAP2 SWAP1 PUSH4 0xFFFFFFFF AND JUMP JUMPDEST SWAP2 POP POP SWAP3 SWAP2 POP POP JUMP JUMPDEST PUSH1 0x7 DUP1 PUSH1 0x0 ADD SLOAD SWAP1 DUP1 PUSH1 0x1 ADD PUSH1 0x0 SWAP1 SLOAD SWAP1 PUSH2 0x100 EXP SWAP1 DIV PUSH20 0xFFFFFFFFFFFFFFFFFFFFFFFFFFFFFFFFFFFFFFFF AND SWAP1 DUP1 PUSH1 0x2 ADD SLOAD SWAP1 DUP1 PUSH1 0x3 ADD SLOAD SWAP1 DUP1 PUSH1 0x4 ADD SLOAD SWAP1 DUP1 PUSH1 0x5 ADD SLOAD SWAP1 DUP1 PUSH1 0x6 ADD PUSH1 0x0 SWAP1 SLOAD SWAP1 PUSH2 0x100 EXP SWAP1 DIV PUSH20 0xFFFFFFFFFFFFFFFFFFFFFFFFFFFFFFFFFFFFFFFF AND SWAP1 DUP1 PUSH1 0x7 ADD SLOAD SWAP1 DUP1 PUSH1 0x8 ADD SLOAD SWAP1 POP DUP10 JUMP JUMPDEST PUSH2 0x3190 PUSH2 0x487E JUMP JUMPDEST PUSH20 0xFFFFFFFFFFFFFFFFFFFFFFFFFFFFFFFFFFFFFFFF AND PUSH1 0x0 DUP1 SLOAD SWAP1 PUSH2 0x100 EXP SWAP1 DIV PUSH20 0xFFFFFFFFFFFFFFFFFFFFFFFFFFFFFFFFFFFFFFFF AND PUSH20 0xFFFFFFFFFFFFFFFFFFFFFFFFFFFFFFFFFFFFFFFF AND EQ PUSH2 0x3250 JUMPI PUSH1 0x40 MLOAD PUSH32 0x8C379A000000000000000000000000000000000000000000000000000000000 DUP2 MSTORE PUSH1 0x4 ADD DUP1 DUP1 PUSH1 0x20 ADD DUP3 DUP2 SUB DUP3 MSTORE PUSH1 0x20 DUP2 MSTORE PUSH1 0x20 ADD DUP1 PUSH32 0x4F776E61626C653A2063616C6C6572206973206E6F7420746865206F776E6572 DUP2 MSTORE POP PUSH1 0x20 ADD SWAP2 POP POP PUSH1 0x40 MLOAD DUP1 SWAP2 SUB SWAP1 REVERT JUMPDEST DUP1 ISZERO PUSH2 0x3270 JUMPI PUSH2 0x326A DUP3 PUSH1 0x10 PUSH2 0x4FC0 SWAP1 SWAP2 SWAP1 PUSH4 0xFFFFFFFF AND JUMP JUMPDEST POP PUSH2 0x3286 JUMP JUMPDEST PUSH2 0x3284 DUP3 PUSH1 0x10 PUSH2 0x48D0 SWAP1 SWAP2 SWAP1 PUSH4 0xFFFFFFFF AND JUMP JUMPDEST POP JUMPDEST POP POP JUMP JUMPDEST PUSH1 0x0 DUP1 PUSH1 0x3 PUSH1 0x0 DUP5 PUSH20 0xFFFFFFFFFFFFFFFFFFFFFFFFFFFFFFFFFFFFFFFF AND PUSH20 0xFFFFFFFFFFFFFFFFFFFFFFFFFFFFFFFFFFFFFFFF AND DUP2 MSTORE PUSH1 0x20 ADD SWAP1 DUP2 MSTORE PUSH1 0x20 ADD PUSH1 0x0 KECCAK256 SWAP1 POP PUSH2 0x32DA DUP2 PUSH1 0x0 ADD PUSH2 0x4AE3 JUMP JUMPDEST SWAP2 POP POP SWAP2 SWAP1 POP JUMP JUMPDEST PUSH1 0x0 DUP1 PUSH1 0x3 PUSH1 0x0 DUP6 PUSH20 0xFFFFFFFFFFFFFFFFFFFFFFFFFFFFFFFFFFFFFFFF AND PUSH20 0xFFFFFFFFFFFFFFFFFFFFFFFFFFFFFFFFFFFFFFFF AND DUP2 MSTORE PUSH1 0x20 ADD SWAP1 DUP2 MSTORE PUSH1 0x20 ADD PUSH1 0x0 KECCAK256 SWAP1 POP DUP1 PUSH1 0x2 ADD PUSH1 0x0 DUP5 PUSH20 0xFFFFFFFFFFFFFFFFFFFFFFFFFFFFFFFFFFFFFFFF AND PUSH20 0xFFFFFFFFFFFFFFFFFFFFFFFFFFFFFFFFFFFFFFFF AND DUP2 MSTORE PUSH1 0x20 ADD SWAP1 DUP2 MSTORE PUSH1 0x20 ADD PUSH1 0x0 KECCAK256 DUP1 SLOAD SWAP1 POP SWAP2 POP POP SWAP3 SWAP2 POP POP JUMP JUMPDEST PUSH1 0x2 PUSH1 0x1 SLOAD EQ ISZERO PUSH2 0x33ED JUMPI PUSH1 0x40 MLOAD PUSH32 0x8C379A000000000000000000000000000000000000000000000000000000000 DUP2 MSTORE PUSH1 0x4 ADD DUP1 DUP1 PUSH1 0x20 ADD DUP3 DUP2 SUB DUP3 MSTORE PUSH1 0x1F DUP2 MSTORE PUSH1 0x20 ADD DUP1 PUSH32 0x5265656E7472616E637947756172643A207265656E7472616E742063616C6C00 DUP2 MSTORE POP PUSH1 0x20 ADD SWAP2 POP POP PUSH1 0x40 MLOAD DUP1 SWAP2 SUB SWAP1 REVERT JUMPDEST PUSH1 0x2 PUSH1 0x1 DUP2 SWAP1 SSTORE POP PUSH1 0x0 DUP2 GT PUSH2 0x346B JUMPI PUSH1 0x40 MLOAD PUSH32 0x8C379A000000000000000000000000000000000000000000000000000000000 DUP2 MSTORE PUSH1 0x4 ADD DUP1 DUP1 PUSH1 0x20 ADD DUP3 DUP2 SUB DUP3 MSTORE PUSH1 0xB DUP2 MSTORE PUSH1 0x20 ADD DUP1 PUSH32 0x5A45524F20414D4F554E54000000000000000000000000000000000000000000 DUP2 MSTORE POP PUSH1 0x20 ADD SWAP2 POP POP PUSH1 0x40 MLOAD DUP1 SWAP2 SUB SWAP1 REVERT JUMPDEST PUSH1 0x0 PUSH1 0x3 PUSH1 0x0 CALLER PUSH20 0xFFFFFFFFFFFFFFFFFFFFFFFFFFFFFFFFFFFFFFFF AND PUSH20 0xFFFFFFFFFFFFFFFFFFFFFFFFFFFFFFFFFFFFFFFF AND DUP2 MSTORE PUSH1 0x20 ADD SWAP1 DUP2 MSTORE PUSH1 0x20 ADD PUSH1 0x0 KECCAK256 PUSH1 0x2 ADD PUSH1 0x0 DUP7 PUSH20 0xFFFFFFFFFFFFFFFFFFFFFFFFFFFFFFFFFFFFFFFF AND PUSH20 0xFFFFFFFFFFFFFFFFFFFFFFFFFFFFFFFFFFFFFFFF AND DUP2 MSTORE PUSH1 0x20 ADD SWAP1 DUP2 MSTORE PUSH1 0x20 ADD PUSH1 0x0 KECCAK256 DUP5 DUP2 SLOAD DUP2 LT PUSH2 0x34F7 JUMPI INVALID JUMPDEST SWAP1 PUSH1 0x0 MSTORE PUSH1 0x20 PUSH1 0x0 KECCAK256 ADD SLOAD SWAP1 POP PUSH1 0x0 PUSH1 0x6 PUSH1 0x0 DUP8 PUSH20 0xFFFFFFFFFFFFFFFFFFFFFFFFFFFFFFFFFFFFFFFF AND PUSH20 0xFFFFFFFFFFFFFFFFFFFFFFFFFFFFFFFFFFFFFFFF AND DUP2 MSTORE PUSH1 0x20 ADD SWAP1 DUP2 MSTORE PUSH1 0x20 ADD PUSH1 0x0 KECCAK256 DUP3 DUP2 SLOAD DUP2 LT PUSH2 0x3550 JUMPI INVALID JUMPDEST SWAP1 PUSH1 0x0 MSTORE PUSH1 0x20 PUSH1 0x0 KECCAK256 SWAP1 PUSH1 0x6 MUL ADD SWAP1 POP DUP4 DUP3 EQ DUP1 ISZERO PUSH2 0x35BE JUMPI POP CALLER PUSH20 0xFFFFFFFFFFFFFFFFFFFFFFFFFFFFFFFFFFFFFFFF AND DUP2 PUSH1 0x5 ADD PUSH1 0x0 SWAP1 SLOAD SWAP1 PUSH2 0x100 EXP SWAP1 DIV PUSH20 0xFFFFFFFFFFFFFFFFFFFFFFFFFFFFFFFFFFFFFFFF AND PUSH20 0xFFFFFFFFFFFFFFFFFFFFFFFFFFFFFFFFFFFFFFFF AND EQ JUMPDEST PUSH2 0x3630 JUMPI PUSH1 0x40 MLOAD PUSH32 0x8C379A000000000000000000000000000000000000000000000000000000000 DUP2 MSTORE PUSH1 0x4 ADD DUP1 DUP1 PUSH1 0x20 ADD DUP3 DUP2 SUB DUP3 MSTORE PUSH1 0xD DUP2 MSTORE PUSH1 0x20 ADD DUP1 PUSH32 0x4C4F434B204D49534D4154434800000000000000000000000000000000000000 DUP2 MSTORE POP PUSH1 0x20 ADD SWAP2 POP POP PUSH1 0x40 MLOAD DUP1 SWAP2 SUB SWAP1 REVERT JUMPDEST PUSH2 0x363C DUP7 CALLER ADDRESS DUP7 PUSH2 0x4BC8 JUMP JUMPDEST PUSH1 0x0 PUSH2 0x366A PUSH2 0x3E8 PUSH2 0x365C PUSH1 0x7 PUSH1 0x4 ADD SLOAD DUP8 PUSH2 0x4AF8 SWAP1 SWAP2 SWAP1 PUSH4 0xFFFFFFFF AND JUMP JUMPDEST PUSH2 0x4B7E SWAP1 SWAP2 SWAP1 PUSH4 0xFFFFFFFF AND JUMP JUMPDEST SWAP1 POP PUSH2 0x3699 DUP8 PUSH1 0x12 PUSH1 0x0 SWAP1 SLOAD SWAP1 PUSH2 0x100 EXP SWAP1 DIV PUSH20 0xFFFFFFFFFFFFFFFFFFFFFFFFFFFFFFFFFFFFFFFF AND DUP4 PUSH2 0x4900 JUMP JUMPDEST PUSH1 0x0 PUSH2 0x36AE DUP3 DUP7 PUSH2 0x4886 SWAP1 SWAP2 SWAP1 PUSH4 0xFFFFFFFF AND JUMP JUMPDEST SWAP1 POP PUSH2 0x36C7 DUP2 DUP5 PUSH1 0x1 ADD SLOAD PUSH2 0x4FF0 SWAP1 SWAP2 SWAP1 PUSH4 0xFFFFFFFF AND JUMP JUMPDEST DUP4 PUSH1 0x1 ADD DUP2 SWAP1 SSTORE POP PUSH32 0x830357565DA6ECFC26D8D9F69DF488ED6F70361AF9A07E570544AEB5C5E765E5 DUP9 CALLER DUP4 DUP7 PUSH1 0x0 ADD SLOAD DUP8 PUSH1 0x3 ADD SLOAD PUSH1 0x40 MLOAD DUP1 DUP7 PUSH20 0xFFFFFFFFFFFFFFFFFFFFFFFFFFFFFFFFFFFFFFFF AND DUP2 MSTORE PUSH1 0x20 ADD DUP6 PUSH20 0xFFFFFFFFFFFFFFFFFFFFFFFFFFFFFFFFFFFFFFFF AND DUP2 MSTORE PUSH1 0x20 ADD DUP5 DUP2 MSTORE PUSH1 0x20 ADD DUP4 DUP2 MSTORE PUSH1 0x20 ADD DUP3 DUP2 MSTORE PUSH1 0x20 ADD SWAP6 POP POP POP POP POP POP PUSH1 0x40 MLOAD DUP1 SWAP2 SUB SWAP1 LOG1 POP POP POP POP PUSH1 0x1 DUP1 DUP2 SWAP1 SSTORE POP POP POP POP POP JUMP JUMPDEST PUSH1 0x0 PUSH2 0x3781 DUP3 PUSH1 0x10 PUSH2 0x4DAD SWAP1 SWAP2 SWAP1 PUSH4 0xFFFFFFFF AND JUMP JUMPDEST SWAP1 POP SWAP2 SWAP1 POP JUMP JUMPDEST DUP1 PUSH20 0xFFFFFFFFFFFFFFFFFFFFFFFFFFFFFFFFFFFFFFFF AND CALLER PUSH20 0xFFFFFFFFFFFFFFFFFFFFFFFFFFFFFFFFFFFFFFFF AND EQ ISZERO PUSH2 0x382A JUMPI PUSH1 0x40 MLOAD PUSH32 0x8C379A000000000000000000000000000000000000000000000000000000000 DUP2 MSTORE PUSH1 0x4 ADD DUP1 DUP1 PUSH1 0x20 ADD DUP3 DUP2 SUB DUP3 MSTORE PUSH1 0x5 DUP2 MSTORE PUSH1 0x20 ADD DUP1 PUSH32 0x4F574E4552000000000000000000000000000000000000000000000000000000 DUP2 MSTORE POP PUSH1 0x20 ADD SWAP2 POP POP PUSH1 0x40 MLOAD DUP1 SWAP2 SUB SWAP1 REVERT JUMPDEST PUSH1 0x0 PUSH1 0x3 PUSH1 0x0 CALLER PUSH20 0xFFFFFFFFFFFFFFFFFFFFFFFFFFFFFFFFFFFFFFFF AND PUSH20 0xFFFFFFFFFFFFFFFFFFFFFFFFFFFFFFFFFFFFFFFF AND DUP2 MSTORE PUSH1 0x20 ADD SWAP1 DUP2 MSTORE PUSH1 0x20 ADD PUSH1 0x0 KECCAK256 PUSH1 0x2 ADD PUSH1 0x0 DUP7 PUSH20 0xFFFFFFFFFFFFFFFFFFFFFFFFFFFFFFFFFFFFFFFF AND PUSH20 0xFFFFFFFFFFFFFFFFFFFFFFFFFFFFFFFFFFFFFFFF AND DUP2 MSTORE PUSH1 0x20 ADD SWAP1 DUP2 MSTORE PUSH1 0x20 ADD PUSH1 0x0 KECCAK256 DUP5 DUP2 SLOAD DUP2 LT PUSH2 0x38B6 JUMPI INVALID JUMPDEST SWAP1 PUSH1 0x0 MSTORE PUSH1 0x20 PUSH1 0x0 KECCAK256 ADD SLOAD SWAP1 POP PUSH1 0x0 PUSH1 0x6 PUSH1 0x0 DUP8 PUSH20 0xFFFFFFFFFFFFFFFFFFFFFFFFFFFFFFFFFFFFFFFF AND PUSH20 0xFFFFFFFFFFFFFFFFFFFFFFFFFFFFFFFFFFFFFFFF AND DUP2 MSTORE PUSH1 0x20 ADD SWAP1 DUP2 MSTORE PUSH1 0x20 ADD PUSH1 0x0 KECCAK256 DUP3 DUP2 SLOAD DUP2 LT PUSH2 0x390F JUMPI INVALID JUMPDEST SWAP1 PUSH1 0x0 MSTORE PUSH1 0x20 PUSH1 0x0 KECCAK256 SWAP1 PUSH1 0x6 MUL ADD SWAP1 POP DUP4 DUP3 EQ DUP1 ISZERO PUSH2 0x397D JUMPI POP CALLER PUSH20 0xFFFFFFFFFFFFFFFFFFFFFFFFFFFFFFFFFFFFFFFF AND DUP2 PUSH1 0x5 ADD PUSH1 0x0 SWAP1 SLOAD SWAP1 PUSH2 0x100 EXP SWAP1 DIV PUSH20 0xFFFFFFFFFFFFFFFFFFFFFFFFFFFFFFFFFFFFFFFF AND PUSH20 0xFFFFFFFFFFFFFFFFFFFFFFFFFFFFFFFFFFFFFFFF AND EQ JUMPDEST PUSH2 0x39EF JUMPI PUSH1 0x40 MLOAD PUSH32 0x8C379A000000000000000000000000000000000000000000000000000000000 DUP2 MSTORE PUSH1 0x4 ADD DUP1 DUP1 PUSH1 0x20 ADD DUP3 DUP2 SUB DUP3 MSTORE PUSH1 0xD DUP2 MSTORE PUSH1 0x20 ADD DUP1 PUSH32 0x4C4F434B204D49534D4154434800000000000000000000000000000000000000 DUP2 MSTORE POP PUSH1 0x20 ADD SWAP2 POP POP PUSH1 0x40 MLOAD DUP1 SWAP2 SUB SWAP1 REVERT JUMPDEST PUSH1 0x0 PUSH1 0x3 PUSH1 0x0 DUP6 PUSH20 0xFFFFFFFFFFFFFFFFFFFFFFFFFFFFFFFFFFFFFFFF AND PUSH20 0xFFFFFFFFFFFFFFFFFFFFFFFFFFFFFFFFFFFFFFFF AND DUP2 MSTORE PUSH1 0x20 ADD SWAP1 DUP2 MSTORE PUSH1 0x20 ADD PUSH1 0x0 KECCAK256 SWAP1 POP PUSH2 0x3A48 DUP8 DUP3 PUSH1 0x0 ADD PUSH2 0x4FC0 SWAP1 SWAP2 SWAP1 PUSH4 0xFFFFFFFF AND JUMP JUMPDEST POP PUSH1 0x0 DUP2 PUSH1 0x2 ADD PUSH1 0x0 DUP10 PUSH20 0xFFFFFFFFFFFFFFFFFFFFFFFFFFFFFFFFFFFFFFFF AND PUSH20 0xFFFFFFFFFFFFFFFFFFFFFFFFFFFFFFFFFFFFFFFF AND DUP2 MSTORE PUSH1 0x20 ADD SWAP1 DUP2 MSTORE PUSH1 0x20 ADD PUSH1 0x0 KECCAK256 SWAP1 POP DUP1 DUP4 PUSH1 0x4 ADD SLOAD SWAP1 DUP1 PUSH1 0x1 DUP2 SLOAD ADD DUP1 DUP3 SSTORE DUP1 SWAP2 POP POP PUSH1 0x1 SWAP1 SUB SWAP1 PUSH1 0x0 MSTORE PUSH1 0x20 PUSH1 0x0 KECCAK256 ADD PUSH1 0x0 SWAP1 SWAP2 SWAP1 SWAP2 SWAP1 SWAP2 POP SSTORE PUSH1 0x0 PUSH1 0x3 PUSH1 0x0 CALLER PUSH20 0xFFFFFFFFFFFFFFFFFFFFFFFFFFFFFFFFFFFFFFFF AND PUSH20 0xFFFFFFFFFFFFFFFFFFFFFFFFFFFFFFFFFFFFFFFF AND DUP2 MSTORE PUSH1 0x20 ADD SWAP1 DUP2 MSTORE PUSH1 0x20 ADD PUSH1 0x0 KECCAK256 PUSH1 0x2 ADD PUSH1 0x0 DUP11 PUSH20 0xFFFFFFFFFFFFFFFFFFFFFFFFFFFFFFFFFFFFFFFF AND PUSH20 0xFFFFFFFFFFFFFFFFFFFFFFFFFFFFFFFFFFFFFFFF AND DUP2 MSTORE PUSH1 0x20 ADD SWAP1 DUP2 MSTORE PUSH1 0x20 ADD PUSH1 0x0 KECCAK256 SWAP1 POP DUP1 PUSH1 0x1 DUP3 DUP1 SLOAD SWAP1 POP SUB DUP2 SLOAD DUP2 LT PUSH2 0x3B50 JUMPI INVALID JUMPDEST SWAP1 PUSH1 0x0 MSTORE PUSH1 0x20 PUSH1 0x0 KECCAK256 ADD SLOAD DUP2 DUP10 DUP2 SLOAD DUP2 LT PUSH2 0x3B67 JUMPI INVALID JUMPDEST SWAP1 PUSH1 0x0 MSTORE PUSH1 0x20 PUSH1 0x0 KECCAK256 ADD DUP2 SWAP1 SSTORE POP DUP1 DUP1 SLOAD DUP1 PUSH2 0x3B7F JUMPI INVALID JUMPDEST PUSH1 0x1 SWAP1 SUB DUP2 DUP2 SWAP1 PUSH1 0x0 MSTORE PUSH1 0x20 PUSH1 0x0 KECCAK256 ADD PUSH1 0x0 SWAP1 SSTORE SWAP1 SSTORE PUSH1 0x0 DUP2 DUP1 SLOAD SWAP1 POP EQ ISZERO PUSH2 0x3BF8 JUMPI PUSH2 0x3BF6 DUP10 PUSH1 0x3 PUSH1 0x0 CALLER PUSH20 0xFFFFFFFFFFFFFFFFFFFFFFFFFFFFFFFFFFFFFFFF AND PUSH20 0xFFFFFFFFFFFFFFFFFFFFFFFFFFFFFFFFFFFFFFFF AND DUP2 MSTORE PUSH1 0x20 ADD SWAP1 DUP2 MSTORE PUSH1 0x20 ADD PUSH1 0x0 KECCAK256 PUSH1 0x0 ADD PUSH2 0x48D0 SWAP1 SWAP2 SWAP1 PUSH4 0xFFFFFFFF AND JUMP JUMPDEST POP JUMPDEST DUP6 DUP5 PUSH1 0x5 ADD PUSH1 0x0 PUSH2 0x100 EXP DUP2 SLOAD DUP2 PUSH20 0xFFFFFFFFFFFFFFFFFFFFFFFFFFFFFFFFFFFFFFFF MUL NOT AND SWAP1 DUP4 PUSH20 0xFFFFFFFFFFFFFFFFFFFFFFFFFFFFFFFFFFFFFFFF AND MUL OR SWAP1 SSTORE POP POP POP POP POP POP POP POP POP POP JUMP JUMPDEST PUSH1 0x6 PUSH1 0x20 MSTORE DUP2 PUSH1 0x0 MSTORE PUSH1 0x40 PUSH1 0x0 KECCAK256 DUP2 DUP2 SLOAD DUP2 LT PUSH2 0x3C5F JUMPI INVALID JUMPDEST SWAP1 PUSH1 0x0 MSTORE PUSH1 0x20 PUSH1 0x0 KECCAK256 SWAP1 PUSH1 0x6 MUL ADD PUSH1 0x0 SWAP2 POP SWAP2 POP POP DUP1 PUSH1 0x0 ADD SLOAD SWAP1 DUP1 PUSH1 0x1 ADD SLOAD SWAP1 DUP1 PUSH1 0x2 ADD SLOAD SWAP1 DUP1 PUSH1 0x3 ADD SLOAD SWAP1 DUP1 PUSH1 0x4 ADD SLOAD SWAP1 DUP1 PUSH1 0x5 ADD PUSH1 0x0 SWAP1 SLOAD SWAP1 PUSH2 0x100 EXP SWAP1 DIV PUSH20 0xFFFFFFFFFFFFFFFFFFFFFFFFFFFFFFFFFFFFFFFF AND SWAP1 POP DUP7 JUMP JUMPDEST PUSH2 0x3CC4 PUSH2 0x487E JUMP JUMPDEST PUSH20 0xFFFFFFFFFFFFFFFFFFFFFFFFFFFFFFFFFFFFFFFF AND PUSH1 0x0 DUP1 SLOAD SWAP1 PUSH2 0x100 EXP SWAP1 DIV PUSH20 0xFFFFFFFFFFFFFFFFFFFFFFFFFFFFFFFFFFFFFFFF AND PUSH20 0xFFFFFFFFFFFFFFFFFFFFFFFFFFFFFFFFFFFFFFFF AND EQ PUSH2 0x3D84 JUMPI PUSH1 0x40 MLOAD PUSH32 0x8C379A000000000000000000000000000000000000000000000000000000000 DUP2 MSTORE PUSH1 0x4 ADD DUP1 DUP1 PUSH1 0x20 ADD DUP3 DUP2 SUB DUP3 MSTORE PUSH1 0x20 DUP2 MSTORE PUSH1 0x20 ADD DUP1 PUSH32 0x4F776E61626C653A2063616C6C6572206973206E6F7420746865206F776E6572 DUP2 MSTORE POP PUSH1 0x20 ADD SWAP2 POP POP PUSH1 0x40 MLOAD DUP1 SWAP2 SUB SWAP1 REVERT JUMPDEST DUP1 PUSH1 0x12 PUSH1 0x0 PUSH2 0x100 EXP DUP2 SLOAD DUP2 PUSH20 0xFFFFFFFFFFFFFFFFFFFFFFFFFFFFFFFFFFFFFFFF MUL NOT AND SWAP1 DUP4 PUSH20 0xFFFFFFFFFFFFFFFFFFFFFFFFFFFFFFFFFFFFFFFF AND MUL OR SWAP1 SSTORE POP POP JUMP JUMPDEST PUSH1 0x0 DUP1 PUSH1 0x0 DUP1 PUSH1 0x0 DUP1 PUSH1 0x0 PUSH1 0x3 PUSH1 0x0 DUP12 PUSH20 0xFFFFFFFFFFFFFFFFFFFFFFFFFFFFFFFFFFFFFFFF AND PUSH20 0xFFFFFFFFFFFFFFFFFFFFFFFFFFFFFFFFFFFFFFFF AND DUP2 MSTORE PUSH1 0x20 ADD SWAP1 DUP2 MSTORE PUSH1 0x20 ADD PUSH1 0x0 KECCAK256 PUSH1 0x2 ADD PUSH1 0x0 DUP11 PUSH20 0xFFFFFFFFFFFFFFFFFFFFFFFFFFFFFFFFFFFFFFFF AND PUSH20 0xFFFFFFFFFFFFFFFFFFFFFFFFFFFFFFFFFFFFFFFF AND DUP2 MSTORE PUSH1 0x20 ADD SWAP1 DUP2 MSTORE PUSH1 0x20 ADD PUSH1 0x0 KECCAK256 DUP9 DUP2 SLOAD DUP2 LT PUSH2 0x3E5D JUMPI INVALID JUMPDEST SWAP1 PUSH1 0x0 MSTORE PUSH1 0x20 PUSH1 0x0 KECCAK256 ADD SLOAD SWAP1 POP PUSH1 0x0 PUSH1 0x6 PUSH1 0x0 DUP12 PUSH20 0xFFFFFFFFFFFFFFFFFFFFFFFFFFFFFFFFFFFFFFFF AND PUSH20 0xFFFFFFFFFFFFFFFFFFFFFFFFFFFFFFFFFFFFFFFF AND DUP2 MSTORE PUSH1 0x20 ADD SWAP1 DUP2 MSTORE PUSH1 0x20 ADD PUSH1 0x0 KECCAK256 DUP3 DUP2 SLOAD DUP2 LT PUSH2 0x3EB6 JUMPI INVALID JUMPDEST SWAP1 PUSH1 0x0 MSTORE PUSH1 0x20 PUSH1 0x0 KECCAK256 SWAP1 PUSH1 0x6 MUL ADD SWAP1 POP DUP1 PUSH1 0x0 ADD SLOAD DUP2 PUSH1 0x1 ADD SLOAD DUP3 PUSH1 0x2 ADD SLOAD DUP4 PUSH1 0x3 ADD SLOAD DUP5 PUSH1 0x4 ADD SLOAD DUP6 PUSH1 0x5 ADD PUSH1 0x0 SWAP1 SLOAD SWAP1 PUSH2 0x100 EXP SWAP1 DIV PUSH20 0xFFFFFFFFFFFFFFFFFFFFFFFFFFFFFFFFFFFFFFFF AND SWAP8 POP SWAP8 POP SWAP8 POP SWAP8 POP SWAP8 POP SWAP8 POP POP POP SWAP4 SWAP8 POP SWAP4 SWAP8 SWAP2 SWAP6 POP SWAP4 POP JUMP JUMPDEST PUSH1 0x2 PUSH1 0x1 SLOAD EQ ISZERO PUSH2 0x3F97 JUMPI PUSH1 0x40 MLOAD PUSH32 0x8C379A000000000000000000000000000000000000000000000000000000000 DUP2 MSTORE PUSH1 0x4 ADD DUP1 DUP1 PUSH1 0x20 ADD DUP3 DUP2 SUB DUP3 MSTORE PUSH1 0x1F DUP2 MSTORE PUSH1 0x20 ADD DUP1 PUSH32 0x5265656E7472616E637947756172643A207265656E7472616E742063616C6C00 DUP2 MSTORE POP PUSH1 0x20 ADD SWAP2 POP POP PUSH1 0x40 MLOAD DUP1 SWAP2 SUB SWAP1 REVERT JUMPDEST PUSH1 0x2 PUSH1 0x1 DUP2 SWAP1 SSTORE POP PUSH1 0x0 PUSH20 0xFFFFFFFFFFFFFFFFFFFFFFFFFFFFFFFFFFFFFFFF AND PUSH1 0x13 PUSH1 0x0 SWAP1 SLOAD SWAP1 PUSH2 0x100 EXP SWAP1 DIV PUSH20 0xFFFFFFFFFFFFFFFFFFFFFFFFFFFFFFFFFFFFFFFF AND PUSH20 0xFFFFFFFFFFFFFFFFFFFFFFFFFFFFFFFFFFFFFFFF AND EQ ISZERO PUSH2 0x4064 JUMPI PUSH1 0x40 MLOAD PUSH32 0x8C379A000000000000000000000000000000000000000000000000000000000 DUP2 MSTORE PUSH1 0x4 ADD DUP1 DUP1 PUSH1 0x20 ADD DUP3 DUP2 SUB DUP3 MSTORE PUSH1 0x7 DUP2 MSTORE PUSH1 0x20 ADD DUP1 PUSH32 0x4E4F542053455400000000000000000000000000000000000000000000000000 DUP2 MSTORE POP PUSH1 0x20 ADD SWAP2 POP POP PUSH1 0x40 MLOAD DUP1 SWAP2 SUB SWAP1 REVERT JUMPDEST PUSH1 0x0 DUP2 GT PUSH2 0x40DA JUMPI PUSH1 0x40 MLOAD PUSH32 0x8C379A000000000000000000000000000000000000000000000000000000000 DUP2 MSTORE PUSH1 0x4 ADD DUP1 DUP1 PUSH1 0x20 ADD DUP3 DUP2 SUB DUP3 MSTORE PUSH1 0xE DUP2 MSTORE PUSH1 0x20 ADD DUP1 PUSH32 0x5A45524F204D4947524154494F4E000000000000000000000000000000000000 DUP2 MSTORE POP PUSH1 0x20 ADD SWAP2 POP POP PUSH1 0x40 MLOAD DUP1 SWAP2 SUB SWAP1 REVERT JUMPDEST PUSH1 0x0 PUSH1 0x3 PUSH1 0x0 CALLER PUSH20 0xFFFFFFFFFFFFFFFFFFFFFFFFFFFFFFFFFFFFFFFF AND PUSH20 0xFFFFFFFFFFFFFFFFFFFFFFFFFFFFFFFFFFFFFFFF AND DUP2 MSTORE PUSH1 0x20 ADD SWAP1 DUP2 MSTORE PUSH1 0x20 ADD PUSH1 0x0 KECCAK256 PUSH1 0x2 ADD PUSH1 0x0 DUP7 PUSH20 0xFFFFFFFFFFFFFFFFFFFFFFFFFFFFFFFFFFFFFFFF AND PUSH20 0xFFFFFFFFFFFFFFFFFFFFFFFFFFFFFFFFFFFFFFFF AND DUP2 MSTORE PUSH1 0x20 ADD SWAP1 DUP2 MSTORE PUSH1 0x20 ADD PUSH1 0x0 KECCAK256 DUP5 DUP2 SLOAD DUP2 LT PUSH2 0x4166 JUMPI INVALID JUMPDEST SWAP1 PUSH1 0x0 MSTORE PUSH1 0x20 PUSH1 0x0 KECCAK256 ADD SLOAD SWAP1 POP PUSH1 0x0 PUSH1 0x6 PUSH1 0x0 DUP8 PUSH20 0xFFFFFFFFFFFFFFFFFFFFFFFFFFFFFFFFFFFFFFFF AND PUSH20 0xFFFFFFFFFFFFFFFFFFFFFFFFFFFFFFFFFFFFFFFF AND DUP2 MSTORE PUSH1 0x20 ADD SWAP1 DUP2 MSTORE PUSH1 0x20 ADD PUSH1 0x0 KECCAK256 DUP3 DUP2 SLOAD DUP2 LT PUSH2 0x41BF JUMPI INVALID JUMPDEST SWAP1 PUSH1 0x0 MSTORE PUSH1 0x20 PUSH1 0x0 KECCAK256 SWAP1 PUSH1 0x6 MUL ADD SWAP1 POP DUP4 DUP3 EQ DUP1 ISZERO PUSH2 0x422D JUMPI POP CALLER PUSH20 0xFFFFFFFFFFFFFFFFFFFFFFFFFFFFFFFFFFFFFFFF AND DUP2 PUSH1 0x5 ADD PUSH1 0x0 SWAP1 SLOAD SWAP1 PUSH2 0x100 EXP SWAP1 DIV PUSH20 0xFFFFFFFFFFFFFFFFFFFFFFFFFFFFFFFFFFFFFFFF AND PUSH20 0xFFFFFFFFFFFFFFFFFFFFFFFFFFFFFFFFFFFFFFFF AND EQ JUMPDEST PUSH2 0x429F JUMPI PUSH1 0x40 MLOAD PUSH32 0x8C379A000000000000000000000000000000000000000000000000000000000 DUP2 MSTORE PUSH1 0x4 ADD DUP1 DUP1 PUSH1 0x20 ADD DUP3 DUP2 SUB DUP3 MSTORE PUSH1 0xD DUP2 MSTORE PUSH1 0x20 ADD DUP1 PUSH32 0x4C4F434B204D49534D4154434800000000000000000000000000000000000000 DUP2 MSTORE POP PUSH1 0x20 ADD SWAP2 POP POP PUSH1 0x40 MLOAD DUP1 SWAP2 SUB SWAP1 REVERT JUMPDEST PUSH2 0x42B6 DUP4 DUP3 PUSH1 0x1 ADD SLOAD PUSH2 0x4886 SWAP1 SWAP2 SWAP1 PUSH4 0xFFFFFFFF AND JUMP JUMPDEST DUP2 PUSH1 0x1 ADD DUP2 SWAP1 SSTORE POP PUSH1 0x0 DUP2 PUSH1 0x1 ADD SLOAD EQ ISZERO PUSH2 0x440B JUMPI PUSH1 0x0 PUSH1 0x3 PUSH1 0x0 CALLER PUSH20 0xFFFFFFFFFFFFFFFFFFFFFFFFFFFFFFFFFFFFFFFF AND PUSH20 0xFFFFFFFFFFFFFFFFFFFFFFFFFFFFFFFFFFFFFFFF AND DUP2 MSTORE PUSH1 0x20 ADD SWAP1 DUP2 MSTORE PUSH1 0x20 ADD PUSH1 0x0 KECCAK256 PUSH1 0x2 ADD PUSH1 0x0 DUP9 PUSH20 0xFFFFFFFFFFFFFFFFFFFFFFFFFFFFFFFFFFFFFFFF AND PUSH20 0xFFFFFFFFFFFFFFFFFFFFFFFFFFFFFFFFFFFFFFFF AND DUP2 MSTORE PUSH1 0x20 ADD SWAP1 DUP2 MSTORE PUSH1 0x20 ADD PUSH1 0x0 KECCAK256 SWAP1 POP DUP1 PUSH1 0x1 DUP3 DUP1 SLOAD SWAP1 POP SUB DUP2 SLOAD DUP2 LT PUSH2 0x4361 JUMPI INVALID JUMPDEST SWAP1 PUSH1 0x0 MSTORE PUSH1 0x20 PUSH1 0x0 KECCAK256 ADD SLOAD DUP2 DUP8 DUP2 SLOAD DUP2 LT PUSH2 0x4378 JUMPI INVALID JUMPDEST SWAP1 PUSH1 0x0 MSTORE PUSH1 0x20 PUSH1 0x0 KECCAK256 ADD DUP2 SWAP1 SSTORE POP DUP1 DUP1 SLOAD DUP1 PUSH2 0x4390 JUMPI INVALID JUMPDEST PUSH1 0x1 SWAP1 SUB DUP2 DUP2 SWAP1 PUSH1 0x0 MSTORE PUSH1 0x20 PUSH1 0x0 KECCAK256 ADD PUSH1 0x0 SWAP1 SSTORE SWAP1 SSTORE PUSH1 0x0 DUP2 DUP1 SLOAD SWAP1 POP EQ ISZERO PUSH2 0x4409 JUMPI PUSH2 0x4407 DUP8 PUSH1 0x3 PUSH1 0x0 CALLER PUSH20 0xFFFFFFFFFFFFFFFFFFFFFFFFFFFFFFFFFFFFFFFF AND PUSH20 0xFFFFFFFFFFFFFFFFFFFFFFFFFFFFFFFFFFFFFFFF AND DUP2 MSTORE PUSH1 0x20 ADD SWAP1 DUP2 MSTORE PUSH1 0x20 ADD PUSH1 0x0 KECCAK256 PUSH1 0x0 ADD PUSH2 0x48D0 SWAP1 SWAP2 SWAP1 PUSH4 0xFFFFFFFF AND JUMP JUMPDEST POP JUMPDEST POP JUMPDEST PUSH2 0x4438 DUP7 PUSH1 0x13 PUSH1 0x0 SWAP1 SLOAD SWAP1 PUSH2 0x100 EXP SWAP1 DIV PUSH20 0xFFFFFFFFFFFFFFFFFFFFFFFFFFFFFFFFFFFFFFFF AND DUP6 PUSH2 0x4DDD JUMP JUMPDEST PUSH1 0x13 PUSH1 0x0 SWAP1 SLOAD SWAP1 PUSH2 0x100 EXP SWAP1 DIV PUSH20 0xFFFFFFFFFFFFFFFFFFFFFFFFFFFFFFFFFFFFFFFF AND PUSH20 0xFFFFFFFFFFFFFFFFFFFFFFFFFFFFFFFFFFFFFFFF AND PUSH4 0xDB5ECD3F DUP8 DUP6 DUP5 PUSH1 0x3 ADD SLOAD CALLER PUSH1 0x40 MLOAD DUP6 PUSH4 0xFFFFFFFF AND PUSH1 0xE0 SHL DUP2 MSTORE PUSH1 0x4 ADD DUP1 DUP6 PUSH20 0xFFFFFFFFFFFFFFFFFFFFFFFFFFFFFFFFFFFFFFFF AND DUP2 MSTORE PUSH1 0x20 ADD DUP5 DUP2 MSTORE PUSH1 0x20 ADD DUP4 DUP2 MSTORE PUSH1 0x20 ADD DUP3 PUSH20 0xFFFFFFFFFFFFFFFFFFFFFFFFFFFFFFFFFFFFFFFF AND DUP2 MSTORE PUSH1 0x20 ADD SWAP5 POP POP POP POP POP PUSH1 0x20 PUSH1 0x40 MLOAD DUP1 DUP4 SUB DUP2 PUSH1 0x0 DUP8 DUP1 EXTCODESIZE ISZERO DUP1 ISZERO PUSH2 0x44F5 JUMPI PUSH1 0x0 DUP1 REVERT JUMPDEST POP GAS CALL ISZERO DUP1 ISZERO PUSH2 0x4509 JUMPI RETURNDATASIZE PUSH1 0x0 DUP1 RETURNDATACOPY RETURNDATASIZE PUSH1 0x0 REVERT JUMPDEST POP POP POP POP PUSH1 0x40 MLOAD RETURNDATASIZE PUSH1 0x20 DUP2 LT ISZERO PUSH2 0x451F JUMPI PUSH1 0x0 DUP1 REVERT JUMPDEST DUP2 ADD SWAP1 DUP1 DUP1 MLOAD SWAP1 PUSH1 0x20 ADD SWAP1 SWAP3 SWAP2 SWAP1 POP POP POP POP POP POP PUSH1 0x1 DUP1 DUP2 SWAP1 SSTORE POP POP POP POP POP JUMP JUMPDEST PUSH2 0x4548 PUSH2 0x487E JUMP JUMPDEST PUSH20 0xFFFFFFFFFFFFFFFFFFFFFFFFFFFFFFFFFFFFFFFF AND PUSH1 0x0 DUP1 SLOAD SWAP1 PUSH2 0x100 EXP SWAP1 DIV PUSH20 0xFFFFFFFFFFFFFFFFFFFFFFFFFFFFFFFFFFFFFFFF AND PUSH20 0xFFFFFFFFFFFFFFFFFFFFFFFFFFFFFFFFFFFFFFFF AND EQ PUSH2 0x4608 JUMPI PUSH1 0x40 MLOAD PUSH32 0x8C379A000000000000000000000000000000000000000000000000000000000 DUP2 MSTORE PUSH1 0x4 ADD DUP1 DUP1 PUSH1 0x20 ADD DUP3 DUP2 SUB DUP3 MSTORE PUSH1 0x20 DUP2 MSTORE PUSH1 0x20 ADD DUP1 PUSH32 0x4F776E61626C653A2063616C6C6572206973206E6F7420746865206F776E6572 DUP2 MSTORE POP PUSH1 0x20 ADD SWAP2 POP POP PUSH1 0x40 MLOAD DUP1 SWAP2 SUB SWAP1 REVERT JUMPDEST DUP2 PUSH1 0x7 PUSH1 0x6 ADD PUSH1 0x0 PUSH2 0x100 EXP DUP2 SLOAD DUP2 PUSH20 0xFFFFFFFFFFFFFFFFFFFFFFFFFFFFFFFFFFFFFFFF MUL NOT AND SWAP1 DUP4 PUSH20 0xFFFFFFFFFFFFFFFFFFFFFFFFFFFFFFFFFFFFFFFF AND MUL OR SWAP1 SSTORE POP DUP1 PUSH1 0x7 DUP1 ADD DUP2 SWAP1 SSTORE POP POP POP JUMP JUMPDEST PUSH2 0x4661 PUSH2 0x487E JUMP JUMPDEST PUSH20 0xFFFFFFFFFFFFFFFFFFFFFFFFFFFFFFFFFFFFFFFF AND PUSH1 0x0 DUP1 SLOAD SWAP1 PUSH2 0x100 EXP SWAP1 DIV PUSH20 0xFFFFFFFFFFFFFFFFFFFFFFFFFFFFFFFFFFFFFFFF AND PUSH20 0xFFFFFFFFFFFFFFFFFFFFFFFFFFFFFFFFFFFFFFFF AND EQ PUSH2 0x4721 JUMPI PUSH1 0x40 MLOAD PUSH32 0x8C379A000000000000000000000000000000000000000000000000000000000 DUP2 MSTORE PUSH1 0x4 ADD DUP1 DUP1 PUSH1 0x20 ADD DUP3 DUP2 SUB DUP3 MSTORE PUSH1 0x20 DUP2 MSTORE PUSH1 0x20 ADD DUP1 PUSH32 0x4F776E61626C653A2063616C6C6572206973206E6F7420746865206F776E6572 DUP2 MSTORE POP PUSH1 0x20 ADD SWAP2 POP POP PUSH1 0x40 MLOAD DUP1 SWAP2 SUB SWAP1 REVERT JUMPDEST PUSH1 0x0 PUSH20 0xFFFFFFFFFFFFFFFFFFFFFFFFFFFFFFFFFFFFFFFF AND DUP2 PUSH20 0xFFFFFFFFFFFFFFFFFFFFFFFFFFFFFFFFFFFFFFFF AND EQ ISZERO PUSH2 0x47A7 JUMPI PUSH1 0x40 MLOAD PUSH32 0x8C379A000000000000000000000000000000000000000000000000000000000 DUP2 MSTORE PUSH1 0x4 ADD DUP1 DUP1 PUSH1 0x20 ADD DUP3 DUP2 SUB DUP3 MSTORE PUSH1 0x26 DUP2 MSTORE PUSH1 0x20 ADD DUP1 PUSH2 0x547C PUSH1 0x26 SWAP2 CODECOPY PUSH1 0x40 ADD SWAP2 POP POP PUSH1 0x40 MLOAD DUP1 SWAP2 SUB SWAP1 REVERT JUMPDEST DUP1 PUSH20 0xFFFFFFFFFFFFFFFFFFFFFFFFFFFFFFFFFFFFFFFF AND PUSH1 0x0 DUP1 SLOAD SWAP1 PUSH2 0x100 EXP SWAP1 DIV PUSH20 0xFFFFFFFFFFFFFFFFFFFFFFFFFFFFFFFFFFFFFFFF AND PUSH20 0xFFFFFFFFFFFFFFFFFFFFFFFFFFFFFFFFFFFFFFFF AND PUSH32 0x8BE0079C531659141344CD1FD0A4F28419497F9722A3DAAFE3B4186F6B6457E0 PUSH1 0x40 MLOAD PUSH1 0x40 MLOAD DUP1 SWAP2 SUB SWAP1 LOG3 DUP1 PUSH1 0x0 DUP1 PUSH2 0x100 EXP DUP2 SLOAD DUP2 PUSH20 0xFFFFFFFFFFFFFFFFFFFFFFFFFFFFFFFFFFFFFFFF MUL NOT AND SWAP1 DUP4 PUSH20 0xFFFFFFFFFFFFFFFFFFFFFFFFFFFFFFFFFFFFFFFF AND MUL OR SWAP1 SSTORE POP POP JUMP JUMPDEST PUSH1 0x0 PUSH2 0x4873 DUP4 PUSH1 0x0 ADD DUP4 PUSH2 0x5078 JUMP JUMPDEST PUSH1 0x0 SHR SWAP1 POP SWAP3 SWAP2 POP POP JUMP JUMPDEST PUSH1 0x0 CALLER SWAP1 POP SWAP1 JUMP JUMPDEST PUSH1 0x0 PUSH2 0x48C8 DUP4 DUP4 PUSH1 0x40 MLOAD DUP1 PUSH1 0x40 ADD PUSH1 0x40 MSTORE DUP1 PUSH1 0x1E DUP2 MSTORE PUSH1 0x20 ADD PUSH32 0x536166654D6174683A207375627472616374696F6E206F766572666C6F770000 DUP2 MSTORE POP PUSH2 0x50FB JUMP JUMPDEST SWAP1 POP SWAP3 SWAP2 POP POP JUMP JUMPDEST PUSH1 0x0 PUSH2 0x48F8 DUP4 PUSH1 0x0 ADD DUP4 PUSH20 0xFFFFFFFFFFFFFFFFFFFFFFFFFFFFFFFFFFFFFFFF AND PUSH1 0x0 SHL PUSH2 0x51BB JUMP JUMPDEST SWAP1 POP SWAP3 SWAP2 POP POP JUMP JUMPDEST PUSH1 0x0 PUSH1 0x60 DUP5 PUSH20 0xFFFFFFFFFFFFFFFFFFFFFFFFFFFFFFFFFFFFFFFF AND PUSH4 0xA9059CBB DUP6 DUP6 PUSH1 0x40 MLOAD PUSH1 0x24 ADD DUP1 DUP4 PUSH20 0xFFFFFFFFFFFFFFFFFFFFFFFFFFFFFFFFFFFFFFFF AND DUP2 MSTORE PUSH1 0x20 ADD DUP3 DUP2 MSTORE PUSH1 0x20 ADD SWAP3 POP POP POP PUSH1 0x40 MLOAD PUSH1 0x20 DUP2 DUP4 SUB SUB DUP2 MSTORE SWAP1 PUSH1 0x40 MSTORE SWAP1 PUSH1 0xE0 SHL PUSH1 0x20 DUP3 ADD DUP1 MLOAD PUSH28 0xFFFFFFFFFFFFFFFFFFFFFFFFFFFFFFFFFFFFFFFFFFFFFFFFFFFFFFFF DUP4 DUP2 DUP4 AND OR DUP4 MSTORE POP POP POP POP PUSH1 0x40 MLOAD DUP1 DUP3 DUP1 MLOAD SWAP1 PUSH1 0x20 ADD SWAP1 DUP1 DUP4 DUP4 JUMPDEST PUSH1 0x20 DUP4 LT PUSH2 0x49C3 JUMPI DUP1 MLOAD DUP3 MSTORE PUSH1 0x20 DUP3 ADD SWAP2 POP PUSH1 0x20 DUP2 ADD SWAP1 POP PUSH1 0x20 DUP4 SUB SWAP3 POP PUSH2 0x49A0 JUMP JUMPDEST PUSH1 0x1 DUP4 PUSH1 0x20 SUB PUSH2 0x100 EXP SUB DUP1 NOT DUP3 MLOAD AND DUP2 DUP5 MLOAD AND DUP1 DUP3 OR DUP6 MSTORE POP POP POP POP POP POP SWAP1 POP ADD SWAP2 POP POP PUSH1 0x0 PUSH1 0x40 MLOAD DUP1 DUP4 SUB DUP2 PUSH1 0x0 DUP7 GAS CALL SWAP2 POP POP RETURNDATASIZE DUP1 PUSH1 0x0 DUP2 EQ PUSH2 0x4A25 JUMPI PUSH1 0x40 MLOAD SWAP2 POP PUSH1 0x1F NOT PUSH1 0x3F RETURNDATASIZE ADD AND DUP3 ADD PUSH1 0x40 MSTORE RETURNDATASIZE DUP3 MSTORE RETURNDATASIZE PUSH1 0x0 PUSH1 0x20 DUP5 ADD RETURNDATACOPY PUSH2 0x4A2A JUMP JUMPDEST PUSH1 0x60 SWAP2 POP JUMPDEST POP SWAP2 POP SWAP2 POP DUP2 DUP1 ISZERO PUSH2 0x4A6A JUMPI POP PUSH1 0x0 DUP2 MLOAD EQ DUP1 PUSH2 0x4A69 JUMPI POP DUP1 DUP1 PUSH1 0x20 ADD SWAP1 MLOAD PUSH1 0x20 DUP2 LT ISZERO PUSH2 0x4A57 JUMPI PUSH1 0x0 DUP1 REVERT JUMPDEST DUP2 ADD SWAP1 DUP1 DUP1 MLOAD SWAP1 PUSH1 0x20 ADD SWAP1 SWAP3 SWAP2 SWAP1 POP POP POP JUMPDEST JUMPDEST PUSH2 0x4ADC JUMPI PUSH1 0x40 MLOAD PUSH32 0x8C379A000000000000000000000000000000000000000000000000000000000 DUP2 MSTORE PUSH1 0x4 ADD DUP1 DUP1 PUSH1 0x20 ADD DUP3 DUP2 SUB DUP3 MSTORE PUSH1 0x1F DUP2 MSTORE PUSH1 0x20 ADD DUP1 PUSH32 0x5472616E7366657248656C7065723A205452414E534645525F4641494C454400 DUP2 MSTORE POP PUSH1 0x20 ADD SWAP2 POP POP PUSH1 0x40 MLOAD DUP1 SWAP2 SUB SWAP1 REVERT JUMPDEST POP POP POP POP POP JUMP JUMPDEST PUSH1 0x0 PUSH2 0x4AF1 DUP3 PUSH1 0x0 ADD PUSH2 0x52A3 JUMP JUMPDEST SWAP1 POP SWAP2 SWAP1 POP JUMP JUMPDEST PUSH1 0x0 DUP1 DUP4 EQ ISZERO PUSH2 0x4B0B JUMPI PUSH1 0x0 SWAP1 POP PUSH2 0x4B78 JUMP JUMPDEST PUSH1 0x0 DUP3 DUP5 MUL SWAP1 POP DUP3 DUP5 DUP3 DUP2 PUSH2 0x4B1C JUMPI INVALID JUMPDEST DIV EQ PUSH2 0x4B73 JUMPI PUSH1 0x40 MLOAD PUSH32 0x8C379A000000000000000000000000000000000000000000000000000000000 DUP2 MSTORE PUSH1 0x4 ADD DUP1 DUP1 PUSH1 0x20 ADD DUP3 DUP2 SUB DUP3 MSTORE PUSH1 0x21 DUP2 MSTORE PUSH1 0x20 ADD DUP1 PUSH2 0x54A2 PUSH1 0x21 SWAP2 CODECOPY PUSH1 0x40 ADD SWAP2 POP POP PUSH1 0x40 MLOAD DUP1 SWAP2 SUB SWAP1 REVERT JUMPDEST DUP1 SWAP2 POP POP JUMPDEST SWAP3 SWAP2 POP POP JUMP JUMPDEST PUSH1 0x0 PUSH2 0x4BC0 DUP4 DUP4 PUSH1 0x40 MLOAD DUP1 PUSH1 0x40 ADD PUSH1 0x40 MSTORE DUP1 PUSH1 0x1A DUP2 MSTORE PUSH1 0x20 ADD PUSH32 0x536166654D6174683A206469766973696F6E206279207A65726F000000000000 DUP2 MSTORE POP PUSH2 0x52B4 JUMP JUMPDEST SWAP1 POP SWAP3 SWAP2 POP POP JUMP JUMPDEST PUSH1 0x0 PUSH1 0x60 DUP6 PUSH20 0xFFFFFFFFFFFFFFFFFFFFFFFFFFFFFFFFFFFFFFFF AND PUSH4 0x23B872DD DUP7 DUP7 DUP7 PUSH1 0x40 MLOAD PUSH1 0x24 ADD DUP1 DUP5 PUSH20 0xFFFFFFFFFFFFFFFFFFFFFFFFFFFFFFFFFFFFFFFF AND DUP2 MSTORE PUSH1 0x20 ADD DUP4 PUSH20 0xFFFFFFFFFFFFFFFFFFFFFFFFFFFFFFFFFFFFFFFF AND DUP2 MSTORE PUSH1 0x20 ADD DUP3 DUP2 MSTORE PUSH1 0x20 ADD SWAP4 POP POP POP POP PUSH1 0x40 MLOAD PUSH1 0x20 DUP2 DUP4 SUB SUB DUP2 MSTORE SWAP1 PUSH1 0x40 MSTORE SWAP1 PUSH1 0xE0 SHL PUSH1 0x20 DUP3 ADD DUP1 MLOAD PUSH28 0xFFFFFFFFFFFFFFFFFFFFFFFFFFFFFFFFFFFFFFFFFFFFFFFFFFFFFFFF DUP4 DUP2 DUP4 AND OR DUP4 MSTORE POP POP POP POP PUSH1 0x40 MLOAD DUP1 DUP3 DUP1 MLOAD SWAP1 PUSH1 0x20 ADD SWAP1 DUP1 DUP4 DUP4 JUMPDEST PUSH1 0x20 DUP4 LT PUSH2 0x4CA9 JUMPI DUP1 MLOAD DUP3 MSTORE PUSH1 0x20 DUP3 ADD SWAP2 POP PUSH1 0x20 DUP2 ADD SWAP1 POP PUSH1 0x20 DUP4 SUB SWAP3 POP PUSH2 0x4C86 JUMP JUMPDEST PUSH1 0x1 DUP4 PUSH1 0x20 SUB PUSH2 0x100 EXP SUB DUP1 NOT DUP3 MLOAD AND DUP2 DUP5 MLOAD AND DUP1 DUP3 OR DUP6 MSTORE POP POP POP POP POP POP SWAP1 POP ADD SWAP2 POP POP PUSH1 0x0 PUSH1 0x40 MLOAD DUP1 DUP4 SUB DUP2 PUSH1 0x0 DUP7 GAS CALL SWAP2 POP POP RETURNDATASIZE DUP1 PUSH1 0x0 DUP2 EQ PUSH2 0x4D0B JUMPI PUSH1 0x40 MLOAD SWAP2 POP PUSH1 0x1F NOT PUSH1 0x3F RETURNDATASIZE ADD AND DUP3 ADD PUSH1 0x40 MSTORE RETURNDATASIZE DUP3 MSTORE RETURNDATASIZE PUSH1 0x0 PUSH1 0x20 DUP5 ADD RETURNDATACOPY PUSH2 0x4D10 JUMP JUMPDEST PUSH1 0x60 SWAP2 POP JUMPDEST POP SWAP2 POP SWAP2 POP DUP2 DUP1 ISZERO PUSH2 0x4D50 JUMPI POP PUSH1 0x0 DUP2 MLOAD EQ DUP1 PUSH2 0x4D4F JUMPI POP DUP1 DUP1 PUSH1 0x20 ADD SWAP1 MLOAD PUSH1 0x20 DUP2 LT ISZERO PUSH2 0x4D3D JUMPI PUSH1 0x0 DUP1 REVERT JUMPDEST DUP2 ADD SWAP1 DUP1 DUP1 MLOAD SWAP1 PUSH1 0x20 ADD SWAP1 SWAP3 SWAP2 SWAP1 POP POP POP JUMPDEST JUMPDEST PUSH2 0x4DA5 JUMPI PUSH1 0x40 MLOAD PUSH32 0x8C379A000000000000000000000000000000000000000000000000000000000 DUP2 MSTORE PUSH1 0x4 ADD DUP1 DUP1 PUSH1 0x20 ADD DUP3 DUP2 SUB DUP3 MSTORE PUSH1 0x24 DUP2 MSTORE PUSH1 0x20 ADD DUP1 PUSH2 0x54C3 PUSH1 0x24 SWAP2 CODECOPY PUSH1 0x40 ADD SWAP2 POP POP PUSH1 0x40 MLOAD DUP1 SWAP2 SUB SWAP1 REVERT JUMPDEST POP POP POP POP POP POP JUMP JUMPDEST PUSH1 0x0 PUSH2 0x4DD5 DUP4 PUSH1 0x0 ADD DUP4 PUSH20 0xFFFFFFFFFFFFFFFFFFFFFFFFFFFFFFFFFFFFFFFF AND PUSH1 0x0 SHL PUSH2 0x537A JUMP JUMPDEST SWAP1 POP SWAP3 SWAP2 POP POP JUMP JUMPDEST PUSH1 0x0 PUSH1 0x60 DUP5 PUSH20 0xFFFFFFFFFFFFFFFFFFFFFFFFFFFFFFFFFFFFFFFF AND PUSH4 0x95EA7B3 DUP6 DUP6 PUSH1 0x40 MLOAD PUSH1 0x24 ADD DUP1 DUP4 PUSH20 0xFFFFFFFFFFFFFFFFFFFFFFFFFFFFFFFFFFFFFFFF AND DUP2 MSTORE PUSH1 0x20 ADD DUP3 DUP2 MSTORE PUSH1 0x20 ADD SWAP3 POP POP POP PUSH1 0x40 MLOAD PUSH1 0x20 DUP2 DUP4 SUB SUB DUP2 MSTORE SWAP1 PUSH1 0x40 MSTORE SWAP1 PUSH1 0xE0 SHL PUSH1 0x20 DUP3 ADD DUP1 MLOAD PUSH28 0xFFFFFFFFFFFFFFFFFFFFFFFFFFFFFFFFFFFFFFFFFFFFFFFFFFFFFFFF DUP4 DUP2 DUP4 AND OR DUP4 MSTORE POP POP POP POP PUSH1 0x40 MLOAD DUP1 DUP3 DUP1 MLOAD SWAP1 PUSH1 0x20 ADD SWAP1 DUP1 DUP4 DUP4 JUMPDEST PUSH1 0x20 DUP4 LT PUSH2 0x4EA0 JUMPI DUP1 MLOAD DUP3 MSTORE PUSH1 0x20 DUP3 ADD SWAP2 POP PUSH1 0x20 DUP2 ADD SWAP1 POP PUSH1 0x20 DUP4 SUB SWAP3 POP PUSH2 0x4E7D JUMP JUMPDEST PUSH1 0x1 DUP4 PUSH1 0x20 SUB PUSH2 0x100 EXP SUB DUP1 NOT DUP3 MLOAD AND DUP2 DUP5 MLOAD AND DUP1 DUP3 OR DUP6 MSTORE POP POP POP POP POP POP SWAP1 POP ADD SWAP2 POP POP PUSH1 0x0 PUSH1 0x40 MLOAD DUP1 DUP4 SUB DUP2 PUSH1 0x0 DUP7 GAS CALL SWAP2 POP POP RETURNDATASIZE DUP1 PUSH1 0x0 DUP2 EQ PUSH2 0x4F02 JUMPI PUSH1 0x40 MLOAD SWAP2 POP PUSH1 0x1F NOT PUSH1 0x3F RETURNDATASIZE ADD AND DUP3 ADD PUSH1 0x40 MSTORE RETURNDATASIZE DUP3 MSTORE RETURNDATASIZE PUSH1 0x0 PUSH1 0x20 DUP5 ADD RETURNDATACOPY PUSH2 0x4F07 JUMP JUMPDEST PUSH1 0x60 SWAP2 POP JUMPDEST POP SWAP2 POP SWAP2 POP DUP2 DUP1 ISZERO PUSH2 0x4F47 JUMPI POP PUSH1 0x0 DUP2 MLOAD EQ DUP1 PUSH2 0x4F46 JUMPI POP DUP1 DUP1 PUSH1 0x20 ADD SWAP1 MLOAD PUSH1 0x20 DUP2 LT ISZERO PUSH2 0x4F34 JUMPI PUSH1 0x0 DUP1 REVERT JUMPDEST DUP2 ADD SWAP1 DUP1 DUP1 MLOAD SWAP1 PUSH1 0x20 ADD SWAP1 SWAP3 SWAP2 SWAP1 POP POP POP JUMPDEST JUMPDEST PUSH2 0x4FB9 JUMPI PUSH1 0x40 MLOAD PUSH32 0x8C379A000000000000000000000000000000000000000000000000000000000 DUP2 MSTORE PUSH1 0x4 ADD DUP1 DUP1 PUSH1 0x20 ADD DUP3 DUP2 SUB DUP3 MSTORE PUSH1 0x1E DUP2 MSTORE PUSH1 0x20 ADD DUP1 PUSH32 0x5472616E7366657248656C7065723A20415050524F56455F4641494C45440000 DUP2 MSTORE POP PUSH1 0x20 ADD SWAP2 POP POP PUSH1 0x40 MLOAD DUP1 SWAP2 SUB SWAP1 REVERT JUMPDEST POP POP POP POP POP JUMP JUMPDEST PUSH1 0x0 PUSH2 0x4FE8 DUP4 PUSH1 0x0 ADD DUP4 PUSH20 0xFFFFFFFFFFFFFFFFFFFFFFFFFFFFFFFFFFFFFFFF AND PUSH1 0x0 SHL PUSH2 0x539D JUMP JUMPDEST SWAP1 POP SWAP3 SWAP2 POP POP JUMP JUMPDEST PUSH1 0x0 DUP1 DUP3 DUP5 ADD SWAP1 POP DUP4 DUP2 LT ISZERO PUSH2 0x506E JUMPI PUSH1 0x40 MLOAD PUSH32 0x8C379A000000000000000000000000000000000000000000000000000000000 DUP2 MSTORE PUSH1 0x4 ADD DUP1 DUP1 PUSH1 0x20 ADD DUP3 DUP2 SUB DUP3 MSTORE PUSH1 0x1B DUP2 MSTORE PUSH1 0x20 ADD DUP1 PUSH32 0x536166654D6174683A206164646974696F6E206F766572666C6F770000000000 DUP2 MSTORE POP PUSH1 0x20 ADD SWAP2 POP POP PUSH1 0x40 MLOAD DUP1 SWAP2 SUB SWAP1 REVERT JUMPDEST DUP1 SWAP2 POP POP SWAP3 SWAP2 POP POP JUMP JUMPDEST PUSH1 0x0 DUP2 DUP4 PUSH1 0x0 ADD DUP1 SLOAD SWAP1 POP GT PUSH2 0x50D9 JUMPI PUSH1 0x40 MLOAD PUSH32 0x8C379A000000000000000000000000000000000000000000000000000000000 DUP2 MSTORE PUSH1 0x4 ADD DUP1 DUP1 PUSH1 0x20 ADD DUP3 DUP2 SUB DUP3 MSTORE PUSH1 0x22 DUP2 MSTORE PUSH1 0x20 ADD DUP1 PUSH2 0x545A PUSH1 0x22 SWAP2 CODECOPY PUSH1 0x40 ADD SWAP2 POP POP PUSH1 0x40 MLOAD DUP1 SWAP2 SUB SWAP1 REVERT JUMPDEST DUP3 PUSH1 0x0 ADD DUP3 DUP2 SLOAD DUP2 LT PUSH2 0x50E8 JUMPI INVALID JUMPDEST SWAP1 PUSH1 0x0 MSTORE PUSH1 0x20 PUSH1 0x0 KECCAK256 ADD SLOAD SWAP1 POP SWAP3 SWAP2 POP POP JUMP JUMPDEST PUSH1 0x0 DUP4 DUP4 GT ISZERO DUP3 SWAP1 PUSH2 0x51A8 JUMPI PUSH1 0x40 MLOAD PUSH32 0x8C379A000000000000000000000000000000000000000000000000000000000 DUP2 MSTORE PUSH1 0x4 ADD DUP1 DUP1 PUSH1 0x20 ADD DUP3 DUP2 SUB DUP3 MSTORE DUP4 DUP2 DUP2 MLOAD DUP2 MSTORE PUSH1 0x20 ADD SWAP2 POP DUP1 MLOAD SWAP1 PUSH1 0x20 ADD SWAP1 DUP1 DUP4 DUP4 PUSH1 0x0 JUMPDEST DUP4 DUP2 LT ISZERO PUSH2 0x516D JUMPI DUP1 DUP3 ADD MLOAD DUP2 DUP5 ADD MSTORE PUSH1 0x20 DUP2 ADD SWAP1 POP PUSH2 0x5152 JUMP JUMPDEST POP POP POP POP SWAP1 POP SWAP1 DUP2 ADD SWAP1 PUSH1 0x1F AND DUP1 ISZERO PUSH2 0x519A JUMPI DUP1 DUP3 SUB DUP1 MLOAD PUSH1 0x1 DUP4 PUSH1 0x20 SUB PUSH2 0x100 EXP SUB NOT AND DUP2 MSTORE PUSH1 0x20 ADD SWAP2 POP JUMPDEST POP SWAP3 POP POP POP PUSH1 0x40 MLOAD DUP1 SWAP2 SUB SWAP1 REVERT JUMPDEST POP PUSH1 0x0 DUP4 DUP6 SUB SWAP1 POP DUP1 SWAP2 POP POP SWAP4 SWAP3 POP POP POP JUMP JUMPDEST PUSH1 0x0 DUP1 DUP4 PUSH1 0x1 ADD PUSH1 0x0 DUP5 DUP2 MSTORE PUSH1 0x20 ADD SWAP1 DUP2 MSTORE PUSH1 0x20 ADD PUSH1 0x0 KECCAK256 SLOAD SWAP1 POP PUSH1 0x0 DUP2 EQ PUSH2 0x5297 JUMPI PUSH1 0x0 PUSH1 0x1 DUP3 SUB SWAP1 POP PUSH1 0x0 PUSH1 0x1 DUP7 PUSH1 0x0 ADD DUP1 SLOAD SWAP1 POP SUB SWAP1 POP PUSH1 0x0 DUP7 PUSH1 0x0 ADD DUP3 DUP2 SLOAD DUP2 LT PUSH2 0x5206 JUMPI INVALID JUMPDEST SWAP1 PUSH1 0x0 MSTORE PUSH1 0x20 PUSH1 0x0 KECCAK256 ADD SLOAD SWAP1 POP DUP1 DUP8 PUSH1 0x0 ADD DUP5 DUP2 SLOAD DUP2 LT PUSH2 0x5223 JUMPI INVALID JUMPDEST SWAP1 PUSH1 0x0 MSTORE PUSH1 0x20 PUSH1 0x0 KECCAK256 ADD DUP2 SWAP1 SSTORE POP PUSH1 0x1 DUP4 ADD DUP8 PUSH1 0x1 ADD PUSH1 0x0 DUP4 DUP2 MSTORE PUSH1 0x20 ADD SWAP1 DUP2 MSTORE PUSH1 0x20 ADD PUSH1 0x0 KECCAK256 DUP2 SWAP1 SSTORE POP DUP7 PUSH1 0x0 ADD DUP1 SLOAD DUP1 PUSH2 0x525B JUMPI INVALID JUMPDEST PUSH1 0x1 SWAP1 SUB DUP2 DUP2 SWAP1 PUSH1 0x0 MSTORE PUSH1 0x20 PUSH1 0x0 KECCAK256 ADD PUSH1 0x0 SWAP1 SSTORE SWAP1 SSTORE DUP7 PUSH1 0x1 ADD PUSH1 0x0 DUP8 DUP2 MSTORE PUSH1 0x20 ADD SWAP1 DUP2 MSTORE PUSH1 0x20 ADD PUSH1 0x0 KECCAK256 PUSH1 0x0 SWAP1 SSTORE PUSH1 0x1 SWAP5 POP POP POP POP POP PUSH2 0x529D JUMP JUMPDEST PUSH1 0x0 SWAP2 POP POP JUMPDEST SWAP3 SWAP2 POP POP JUMP JUMPDEST PUSH1 0x0 DUP2 PUSH1 0x0 ADD DUP1 SLOAD SWAP1 POP SWAP1 POP SWAP2 SWAP1 POP JUMP JUMPDEST PUSH1 0x0 DUP1 DUP4 GT DUP3 SWAP1 PUSH2 0x5360 JUMPI PUSH1 0x40 MLOAD PUSH32 0x8C379A000000000000000000000000000000000000000000000000000000000 DUP2 MSTORE PUSH1 0x4 ADD DUP1 DUP1 PUSH1 0x20 ADD DUP3 DUP2 SUB DUP3 MSTORE DUP4 DUP2 DUP2 MLOAD DUP2 MSTORE PUSH1 0x20 ADD SWAP2 POP DUP1 MLOAD SWAP1 PUSH1 0x20 ADD SWAP1 DUP1 DUP4 DUP4 PUSH1 0x0 JUMPDEST DUP4 DUP2 LT ISZERO PUSH2 0x5325 JUMPI DUP1 DUP3 ADD MLOAD DUP2 DUP5 ADD MSTORE PUSH1 0x20 DUP2 ADD SWAP1 POP PUSH2 0x530A JUMP JUMPDEST POP POP POP POP SWAP1 POP SWAP1 DUP2 ADD SWAP1 PUSH1 0x1F AND DUP1 ISZERO PUSH2 0x5352 JUMPI DUP1 DUP3 SUB DUP1 MLOAD PUSH1 0x1 DUP4 PUSH1 0x20 SUB PUSH2 0x100 EXP SUB NOT AND DUP2 MSTORE PUSH1 0x20 ADD SWAP2 POP JUMPDEST POP SWAP3 POP POP POP PUSH1 0x40 MLOAD DUP1 SWAP2 SUB SWAP1 REVERT JUMPDEST POP PUSH1 0x0 DUP4 DUP6 DUP2 PUSH2 0x536C JUMPI INVALID JUMPDEST DIV SWAP1 POP DUP1 SWAP2 POP POP SWAP4 SWAP3 POP POP POP JUMP JUMPDEST PUSH1 0x0 DUP1 DUP4 PUSH1 0x1 ADD PUSH1 0x0 DUP5 DUP2 MSTORE PUSH1 0x20 ADD SWAP1 DUP2 MSTORE PUSH1 0x20 ADD PUSH1 0x0 KECCAK256 SLOAD EQ ISZERO SWAP1 POP SWAP3 SWAP2 POP POP JUMP JUMPDEST PUSH1 0x0 PUSH2 0x53A9 DUP4 DUP4 PUSH2 0x537A JUMP JUMPDEST PUSH2 0x5402 JUMPI DUP3 PUSH1 0x0 ADD DUP3 SWAP1 DUP1 PUSH1 0x1 DUP2 SLOAD ADD DUP1 DUP3 SSTORE DUP1 SWAP2 POP POP PUSH1 0x1 SWAP1 SUB SWAP1 PUSH1 0x0 MSTORE PUSH1 0x20 PUSH1 0x0 KECCAK256 ADD PUSH1 0x0 SWAP1 SWAP2 SWAP1 SWAP2 SWAP1 SWAP2 POP SSTORE DUP3 PUSH1 0x0 ADD DUP1 SLOAD SWAP1 POP DUP4 PUSH1 0x1 ADD PUSH1 0x0 DUP5 DUP2 MSTORE PUSH1 0x20 ADD SWAP1 DUP2 MSTORE PUSH1 0x20 ADD PUSH1 0x0 KECCAK256 DUP2 SWAP1 SSTORE POP PUSH1 0x1 SWAP1 POP PUSH2 0x5407 JUMP JUMPDEST PUSH1 0x0 SWAP1 POP JUMPDEST SWAP3 SWAP2 POP POP JUMP JUMPDEST PUSH1 0x40 MLOAD DUP1 PUSH1 0xC0 ADD PUSH1 0x40 MSTORE DUP1 PUSH1 0x0 DUP2 MSTORE PUSH1 0x20 ADD PUSH1 0x0 DUP2 MSTORE PUSH1 0x20 ADD PUSH1 0x0 DUP2 MSTORE PUSH1 0x20 ADD PUSH1 0x0 DUP2 MSTORE PUSH1 0x20 ADD PUSH1 0x0 DUP2 MSTORE PUSH1 0x20 ADD PUSH1 0x0 PUSH20 0xFFFFFFFFFFFFFFFFFFFFFFFFFFFFFFFFFFFFFFFF AND DUP2 MSTORE POP SWAP1 JUMP INVALID GASLIMIT PUSH15 0x756D657261626C655365743A20696E PUSH5 0x6578206F75 PUSH21 0x206F6620626F756E64734F776E61626C653A206E65 PUSH24 0x206F776E657220697320746865207A65726F206164647265 PUSH20 0x73536166654D6174683A206D756C7469706C6963 PUSH2 0x7469 PUSH16 0x6E206F766572666C6F775472616E7366 PUSH6 0x7248656C7065 PUSH19 0x3A205452414E534645525F46524F4D5F464149 0x4C GASLIMIT DIFFICULTY LOG2 PUSH5 0x6970667358 0x22 SLT KECCAK256 0xCE CALLDATASIZE GASLIMIT DUP9 CALLDATACOPY 0x48 0xC9 0xEA SIGNEXTEND 0xC9 0x29 SIGNEXTEND SWAP6 0xAE SAR PC 0x2C SWAP6 0xD1 0xCC CALL 0xCC 0xA8 TIMESTAMP SWAP12 SIGNEXTEND PUSH28 0x75D2EC436E64736F6C634300060C0033000000000000000000000000 "
				},
				"gasEstimates": {
					"creation": {
						"codeDepositCost": "4357600",
						"executionCost": "infinite",
						"totalCost": "infinite"
					},
					"external": {
						"gFees()": "7849",
						"getLockedTokenAtIndex(uint256)": "infinite",
						"getNumLockedTokens()": "1187",
						"getNumLocksForToken(address)": "1273",
						"getUserLockForTokenAtIndex(address,address,uint256)": "8335",
						"getUserLockedTokenAtIndex(address,uint256)": "infinite",
						"getUserNumLockedTokens(address)": "1388",
						"getUserNumLocksForToken(address,address)": "1437",
						"getUserWhitelistStatus(address)": "infinite",
						"getWhitelistedUserAtIndex(uint256)": "infinite",
						"getWhitelistedUsersLength()": "1187",
						"incrementLock(address,uint256,uint256,uint256)": "infinite",
						"lockLPToken(address,uint256,uint256,address,bool,address)": "infinite",
						"migrate(address,uint256,uint256,uint256)": "infinite",
						"owner()": "1101",
						"relock(address,uint256,uint256,uint256)": "infinite",
						"renounceOwnership()": "24337",
						"setDev(address)": "22114",
						"setFees(uint256,uint256,uint256,uint256,uint256,uint256)": "121485",
						"setMigrator(address)": "22094",
						"setReferralTokenAndHold(address,uint256)": "42146",
						"setSecondaryFeeToken(address)": "22054",
						"splitLock(address,uint256,uint256,uint256)": "infinite",
						"tokenLocks(address,uint256)": "6394",
						"transferLockOwnership(address,uint256,uint256,address)": "infinite",
						"transferOwnership(address)": "infinite",
						"uniswapFactory()": "1136",
						"whitelistFeeAccount(address,bool)": "infinite",
						"withdraw(address,uint256,uint256,uint256)": "infinite"
					}
				},
				"methodIdentifiers": {
					"gFees()": "90e1a003",
					"getLockedTokenAtIndex(uint256)": "14dd79a3",
					"getNumLockedTokens()": "783451e8",
					"getNumLocksForToken(address)": "1f2a1d2f",
					"getUserLockForTokenAtIndex(address,address,uint256)": "d4ff493f",
					"getUserLockedTokenAtIndex(address,uint256)": "903df806",
					"getUserNumLockedTokens(address)": "a3969815",
					"getUserNumLocksForToken(address,address)": "a69d9c4f",
					"getUserWhitelistStatus(address)": "b9863a44",
					"getWhitelistedUserAtIndex(uint256)": "8c301df8",
					"getWhitelistedUsersLength()": "4bb18e3f",
					"incrementLock(address,uint256,uint256,uint256)": "a9b07cea",
					"lockLPToken(address,uint256,uint256,address,bool,address)": "8af416f6",
					"migrate(address,uint256,uint256,uint256)": "ee424278",
					"owner()": "8da5cb5b",
					"relock(address,uint256,uint256,uint256)": "60491d24",
					"renounceOwnership()": "715018a6",
					"setDev(address)": "d477f05f",
					"setFees(uint256,uint256,uint256,uint256,uint256,uint256)": "86f6c3c1",
					"setMigrator(address)": "23cf3118",
					"setReferralTokenAndHold(address,uint256)": "f02c2643",
					"setSecondaryFeeToken(address)": "8931a4be",
					"splitLock(address,uint256,uint256,uint256)": "582d5adc",
					"tokenLocks(address,uint256)": "ccebfa3f",
					"transferLockOwnership(address,uint256,uint256,address)": "bef497fd",
					"transferOwnership(address)": "f2fde38b",
					"uniswapFactory()": "8bdb2afa",
					"whitelistFeeAccount(address,bool)": "91ff1eb1",
					"withdraw(address,uint256,uint256,uint256)": "4532d776"
				}
			},
			"storageLayout": {
				"storage": [
					{
						"astId": 510,
						"contract": "contracts/oatlocker.sol:OatV1Locker",
						"label": "_owner",
						"offset": 0,
						"slot": "0",
						"type": "t_address"
					},
					{
						"astId": 622,
						"contract": "contracts/oatlocker.sol:OatV1Locker",
						"label": "_status",
						"offset": 0,
						"slot": "1",
						"type": "t_uint256"
					},
					{
						"astId": 1072,
						"contract": "contracts/oatlocker.sol:OatV1Locker",
						"label": "uniswapFactory",
						"offset": 0,
						"slot": "2",
						"type": "t_contract(IUniFactory)1046"
					},
					{
						"astId": 1097,
						"contract": "contracts/oatlocker.sol:OatV1Locker",
						"label": "users",
						"offset": 0,
						"slot": "3",
						"type": "t_mapping(t_address,t_struct(UserInfo)1080_storage)"
					},
					{
						"astId": 1099,
						"contract": "contracts/oatlocker.sol:OatV1Locker",
						"label": "lockedTokens",
						"offset": 0,
						"slot": "4",
						"type": "t_struct(AddressSet)298_storage"
					},
					{
						"astId": 1104,
						"contract": "contracts/oatlocker.sol:OatV1Locker",
						"label": "tokenLocks",
						"offset": 0,
						"slot": "6",
						"type": "t_mapping(t_address,t_array(t_struct(TokenLock)1093_storage)dyn_storage)"
					},
					{
						"astId": 1125,
						"contract": "contracts/oatlocker.sol:OatV1Locker",
						"label": "gFees",
						"offset": 0,
						"slot": "7",
						"type": "t_struct(FeeStruct)1123_storage"
					},
					{
						"astId": 1127,
						"contract": "contracts/oatlocker.sol:OatV1Locker",
						"label": "feeWhitelist",
						"offset": 0,
						"slot": "16",
						"type": "t_struct(AddressSet)298_storage"
					},
					{
						"astId": 1129,
						"contract": "contracts/oatlocker.sol:OatV1Locker",
						"label": "devaddr",
						"offset": 0,
						"slot": "18",
						"type": "t_address_payable"
					},
					{
						"astId": 1131,
						"contract": "contracts/oatlocker.sol:OatV1Locker",
						"label": "migrator",
						"offset": 0,
						"slot": "19",
						"type": "t_contract(IMigrator)1060"
					}
				],
				"types": {
					"t_address": {
						"encoding": "inplace",
						"label": "address",
						"numberOfBytes": "20"
					},
					"t_address_payable": {
						"encoding": "inplace",
						"label": "address payable",
						"numberOfBytes": "20"
					},
					"t_array(t_bytes32)dyn_storage": {
						"base": "t_bytes32",
						"encoding": "dynamic_array",
						"label": "bytes32[]",
						"numberOfBytes": "32"
					},
					"t_array(t_struct(TokenLock)1093_storage)dyn_storage": {
						"base": "t_struct(TokenLock)1093_storage",
						"encoding": "dynamic_array",
						"label": "struct OatV1Locker.TokenLock[]",
						"numberOfBytes": "32"
					},
					"t_array(t_uint256)dyn_storage": {
						"base": "t_uint256",
						"encoding": "dynamic_array",
						"label": "uint256[]",
						"numberOfBytes": "32"
					},
					"t_bytes32": {
						"encoding": "inplace",
						"label": "bytes32",
						"numberOfBytes": "32"
					},
					"t_contract(IERCBurn)1036": {
						"encoding": "inplace",
						"label": "contract IERCBurn",
						"numberOfBytes": "20"
					},
					"t_contract(IMigrator)1060": {
						"encoding": "inplace",
						"label": "contract IMigrator",
						"numberOfBytes": "20"
					},
					"t_contract(IUniFactory)1046": {
						"encoding": "inplace",
						"label": "contract IUniFactory",
						"numberOfBytes": "20"
					},
					"t_mapping(t_address,t_array(t_struct(TokenLock)1093_storage)dyn_storage)": {
						"encoding": "mapping",
						"key": "t_address",
						"label": "mapping(address => struct OatV1Locker.TokenLock[])",
						"numberOfBytes": "32",
						"value": "t_array(t_struct(TokenLock)1093_storage)dyn_storage"
					},
					"t_mapping(t_address,t_array(t_uint256)dyn_storage)": {
						"encoding": "mapping",
						"key": "t_address",
						"label": "mapping(address => uint256[])",
						"numberOfBytes": "32",
						"value": "t_array(t_uint256)dyn_storage"
					},
					"t_mapping(t_address,t_struct(UserInfo)1080_storage)": {
						"encoding": "mapping",
						"key": "t_address",
						"label": "mapping(address => struct OatV1Locker.UserInfo)",
						"numberOfBytes": "32",
						"value": "t_struct(UserInfo)1080_storage"
					},
					"t_mapping(t_bytes32,t_uint256)": {
						"encoding": "mapping",
						"key": "t_bytes32",
						"label": "mapping(bytes32 => uint256)",
						"numberOfBytes": "32",
						"value": "t_uint256"
					},
					"t_struct(AddressSet)298_storage": {
						"encoding": "inplace",
						"label": "struct EnumerableSet.AddressSet",
						"members": [
							{
								"astId": 297,
								"contract": "contracts/oatlocker.sol:OatV1Locker",
								"label": "_inner",
								"offset": 0,
								"slot": "0",
								"type": "t_struct(Set)33_storage"
							}
						],
						"numberOfBytes": "64"
					},
					"t_struct(FeeStruct)1123_storage": {
						"encoding": "inplace",
						"label": "struct OatV1Locker.FeeStruct",
						"members": [
							{
								"astId": 1106,
								"contract": "contracts/oatlocker.sol:OatV1Locker",
								"label": "ethFee",
								"offset": 0,
								"slot": "0",
								"type": "t_uint256"
							},
							{
								"astId": 1108,
								"contract": "contracts/oatlocker.sol:OatV1Locker",
								"label": "secondaryFeeToken",
								"offset": 0,
								"slot": "1",
								"type": "t_contract(IERCBurn)1036"
							},
							{
								"astId": 1110,
								"contract": "contracts/oatlocker.sol:OatV1Locker",
								"label": "secondaryTokenFee",
								"offset": 0,
								"slot": "2",
								"type": "t_uint256"
							},
							{
								"astId": 1112,
								"contract": "contracts/oatlocker.sol:OatV1Locker",
								"label": "secondaryTokenDiscount",
								"offset": 0,
								"slot": "3",
								"type": "t_uint256"
							},
							{
								"astId": 1114,
								"contract": "contracts/oatlocker.sol:OatV1Locker",
								"label": "liquidityFee",
								"offset": 0,
								"slot": "4",
								"type": "t_uint256"
							},
							{
								"astId": 1116,
								"contract": "contracts/oatlocker.sol:OatV1Locker",
								"label": "referralPercent",
								"offset": 0,
								"slot": "5",
								"type": "t_uint256"
							},
							{
								"astId": 1118,
								"contract": "contracts/oatlocker.sol:OatV1Locker",
								"label": "referralToken",
								"offset": 0,
								"slot": "6",
								"type": "t_contract(IERCBurn)1036"
							},
							{
								"astId": 1120,
								"contract": "contracts/oatlocker.sol:OatV1Locker",
								"label": "referralHold",
								"offset": 0,
								"slot": "7",
								"type": "t_uint256"
							},
							{
								"astId": 1122,
								"contract": "contracts/oatlocker.sol:OatV1Locker",
								"label": "referralDiscount",
								"offset": 0,
								"slot": "8",
								"type": "t_uint256"
							}
						],
						"numberOfBytes": "288"
					},
					"t_struct(Set)33_storage": {
						"encoding": "inplace",
						"label": "struct EnumerableSet.Set",
						"members": [
							{
								"astId": 28,
								"contract": "contracts/oatlocker.sol:OatV1Locker",
								"label": "_values",
								"offset": 0,
								"slot": "0",
								"type": "t_array(t_bytes32)dyn_storage"
							},
							{
								"astId": 32,
								"contract": "contracts/oatlocker.sol:OatV1Locker",
								"label": "_indexes",
								"offset": 0,
								"slot": "1",
								"type": "t_mapping(t_bytes32,t_uint256)"
							}
						],
						"numberOfBytes": "64"
					},
					"t_struct(TokenLock)1093_storage": {
						"encoding": "inplace",
						"label": "struct OatV1Locker.TokenLock",
						"members": [
							{
								"astId": 1082,
								"contract": "contracts/oatlocker.sol:OatV1Locker",
								"label": "lockDate",
								"offset": 0,
								"slot": "0",
								"type": "t_uint256"
							},
							{
								"astId": 1084,
								"contract": "contracts/oatlocker.sol:OatV1Locker",
								"label": "amount",
								"offset": 0,
								"slot": "1",
								"type": "t_uint256"
							},
							{
								"astId": 1086,
								"contract": "contracts/oatlocker.sol:OatV1Locker",
								"label": "initialAmount",
								"offset": 0,
								"slot": "2",
								"type": "t_uint256"
							},
							{
								"astId": 1088,
								"contract": "contracts/oatlocker.sol:OatV1Locker",
								"label": "unlockDate",
								"offset": 0,
								"slot": "3",
								"type": "t_uint256"
							},
							{
								"astId": 1090,
								"contract": "contracts/oatlocker.sol:OatV1Locker",
								"label": "lockID",
								"offset": 0,
								"slot": "4",
								"type": "t_uint256"
							},
							{
								"astId": 1092,
								"contract": "contracts/oatlocker.sol:OatV1Locker",
								"label": "owner",
								"offset": 0,
								"slot": "5",
								"type": "t_address"
							}
						],
						"numberOfBytes": "192"
					},
					"t_struct(UserInfo)1080_storage": {
						"encoding": "inplace",
						"label": "struct OatV1Locker.UserInfo",
						"members": [
							{
								"astId": 1074,
								"contract": "contracts/oatlocker.sol:OatV1Locker",
								"label": "lockedTokens",
								"offset": 0,
								"slot": "0",
								"type": "t_struct(AddressSet)298_storage"
							},
							{
								"astId": 1079,
								"contract": "contracts/oatlocker.sol:OatV1Locker",
								"label": "locksForToken",
								"offset": 0,
								"slot": "2",
								"type": "t_mapping(t_address,t_array(t_uint256)dyn_storage)"
							}
						],
						"numberOfBytes": "96"
					},
					"t_uint256": {
						"encoding": "inplace",
						"label": "uint256",
						"numberOfBytes": "32"
					}
				}
			},
			"userdoc": {
				"kind": "user",
				"methods": {
					"incrementLock(address,uint256,uint256,uint256)": {
						"notice": "increase the amount of tokens per a specific lock, this is preferable to creating a new lock, less fees, and faster loading on our live block explorer"
					},
					"lockLPToken(address,uint256,uint256,address,bool,address)": {
						"notice": "Creates a new lock"
					},
					"migrate(address,uint256,uint256,uint256)": {
						"notice": "migrates liquidity to uniswap v3"
					},
					"relock(address,uint256,uint256,uint256)": {
						"notice": "extend a lock with a new unlock date, _index and _lockID ensure the correct lock is changed this prevents errors when a user performs multiple tx per block possibly with varying gas prices"
					},
					"setMigrator(address)": {
						"notice": "set the migrator contract which allows locked lp tokens to be migrated to uniswap v3"
					},
					"setReferralTokenAndHold(address,uint256)": {
						"notice": "referrers need to hold the specified token and hold amount to be elegible for referral fees"
					},
					"splitLock(address,uint256,uint256,uint256)": {
						"notice": "split a lock into two seperate locks, useful when a lock is about to expire and youd like to relock a portion and withdraw a smaller portion"
					},
					"transferLockOwnership(address,uint256,uint256,address)": {
						"notice": "transfer a lock to a new owner, e.g. presale project -> project owner"
					},
					"whitelistFeeAccount(address,bool)": {
						"notice": "whitelisted accounts dont pay flatrate fees on locking"
					},
					"withdraw(address,uint256,uint256,uint256)": {
						"notice": "withdraw a specified amount from a lock. _index and _lockID ensure the correct lock is changed this prevents errors when a user performs multiple tx per block possibly with varying gas prices"
					}
				},
				"version": 1
			}
		}
	}
}