{
	"data": {
		"bytecode": {
			"linkReferences": {},
			"object": "60806040525f6004555f60055562093a806006555f60075534801562000023575f80fd5b506040516200261d3803806200261d833981810160405281019062000049919062000200565b5f6200005a6200019460201b60201c565b9050805f806101000a81548173ffffffffffffffffffffffffffffffffffffffff021916908373ffffffffffffffffffffffffffffffffffffffff1602179055508073ffffffffffffffffffffffffffffffffffffffff165f73ffffffffffffffffffffffffffffffffffffffff167f8be0079c531659141344cd1fd0a4f28419497f9722a3daafe3b4186f6b6457e060405160405180910390a3506001600c5f8081526020019081526020015f20819055508060025f6101000a81548173ffffffffffffffffffffffffffffffffffffffff021916908373ffffffffffffffffffffffffffffffffffffffff1602179055508060085f6101000a81548173ffffffffffffffffffffffffffffffffffffffff021916908373ffffffffffffffffffffffffffffffffffffffff1602179055505062000230565b5f33905090565b5f80fd5b5f73ffffffffffffffffffffffffffffffffffffffff82169050919050565b5f620001ca826200019f565b9050919050565b620001dc81620001be565b8114620001e7575f80fd5b50565b5f81519050620001fa81620001d1565b92915050565b5f602082840312156200021857620002176200019b565b5b5f6200022784828501620001ea565b91505092915050565b6123df806200023e5f395ff3fe608060405234801561000f575f80fd5b5060043610610156575f3560e01c80638da5cb5b116100c1578063bf9befb11161007a578063bf9befb11461036e578063c53d425a1461038c578063d7fa023d146103a8578063e30081a0146103c4578063ef037b90146103e0578063f2fde38b1461041157610156565b80638da5cb5b146102d05780638f73c5ae146102ee57806392504bfa146102f85780639d76ea5814610316578063b88a802f14610334578063bbfa29901461033e57610156565b806338adb6f01161011357806338adb6f0146102205780633cc7d2c41461023e57806342623360146102485780636288af1e1461027857806369bb4dc2146102a8578063715018a6146102c657610156565b806303fce8841461015a5780630ffde47b146101765780631865c57d146101945780631d62ebd9146101b457806330188ee8146101e457806331ed0db414610202575b5f80fd5b610174600480360381019061016f9190611af9565b61042d565b005b61017e61071f565b60405161018b9190611b33565b60405180910390f35b61019c610725565b6040516101ab93929190611b4c565b60405180910390f35b6101ce60048036038101906101c99190611bdb565b6107d5565b6040516101db9190611b33565b60405180910390f35b6101ec6107ec565b6040516101f99190611b33565b60405180910390f35b61020a6107f2565b6040516102179190611b33565b60405180910390f35b6102286107fe565b6040516102359190611b33565b60405180910390f35b610246610807565b005b610262600480360381019061025d9190611bdb565b610854565b60405161026f9190611b33565b60405180910390f35b610292600480360381019061028d9190611bdb565b61089a565b60405161029f9190611b33565b60405180910390f35b6102b061093b565b6040516102bd9190611b33565b60405180910390f35b6102ce6109da565b005b6102d8610b28565b6040516102e59190611c15565b60405180910390f35b6102f6610b4f565b005b610300610c1a565b60405161030d9190611b33565b60405180910390f35b61031e610c20565b60405161032b9190611c15565b60405180910390f35b61033c610c45565b005b61035860048036038101906103539190611c2e565b610c67565b6040516103659190611c98565b60405180910390f35b610376610d8d565b6040516103839190611b33565b60405180910390f35b6103a660048036038101906103a19190611af9565b610d96565b005b6103c260048036038101906103bd9190611cb1565b610e43565b005b6103de60048036038101906103d99190611bdb565b610f6e565b005b6103fa60048036038101906103f59190611bdb565b611085565b604051610408929190611cef565b60405180910390f35b61042b60048036038101906104269190611bdb565b611131565b005b60095f3373ffffffffffffffffffffffffffffffffffffffff1673ffffffffffffffffffffffffffffffffffffffff1681526020019081526020015f20548111156104ad576040517f08c379a00000000000000000000000000000000000000000000000000000000081526004016104a490611d70565b60405180910390fd5b6104fd8160095f3373ffffffffffffffffffffffffffffffffffffffff1673ffffffffffffffffffffffffffffffffffffffff1681526020019081526020015f20546112ee90919063ffffffff16565b60095f3373ffffffffffffffffffffffffffffffffffffffff1673ffffffffffffffffffffffffffffffffffffffff1681526020019081526020015f20819055505f60095f3373ffffffffffffffffffffffffffffffffffffffff1673ffffffffffffffffffffffffffffffffffffffff1681526020019081526020015f20540361058c5761058b33611346565b5b5f600b5f3373ffffffffffffffffffffffffffffffffffffffff1673ffffffffffffffffffffffffffffffffffffffff1681526020019081526020015f205490505f600a5f3373ffffffffffffffffffffffffffffffffffffffff1673ffffffffffffffffffffffffffffffffffffffff1681526020019081526020015f20549050610623836005546112ee90919063ffffffff16565b6005819055504282826106369190611dbb565b111561067d575f61066460646106566005876114cf90919063ffffffff16565b61154690919063ffffffff16565b905061067981856112ee90919063ffffffff16565b9350505b60085f9054906101000a900473ffffffffffffffffffffffffffffffffffffffff1673ffffffffffffffffffffffffffffffffffffffff1663a9059cbb33856040518363ffffffff1660e01b81526004016106d9929190611dee565b6020604051808303815f875af11580156106f5573d5f803e3d5ffd5b505050506040513d601f19601f820116820180604052508101906107199190611e3f565b50505050565b60045481565b5f805f60038054905060085f9054906101000a900473ffffffffffffffffffffffffffffffffffffffff1673ffffffffffffffffffffffffffffffffffffffff166370a08231306040518263ffffffff1660e01b81526004016107889190611c15565b602060405180830381865afa1580156107a3573d5f803e3d5ffd5b505050506040513d601f19601f820116820180604052508101906107c79190611e7e565b600754925092509250909192565b5f806107e08361159d565b50905080915050919050565b60075481565b5f600380549050905090565b5f600554905090565b5f60095f3373ffffffffffffffffffffffffffffffffffffffff1673ffffffffffffffffffffffffffffffffffffffff1681526020019081526020015f205490506108518161042d565b50565b5f60095f8373ffffffffffffffffffffffffffffffffffffffff1673ffffffffffffffffffffffffffffffffffffffff1681526020019081526020015f20549050919050565b5f60085f9054906101000a900473ffffffffffffffffffffffffffffffffffffffff1673ffffffffffffffffffffffffffffffffffffffff166370a08231836040518263ffffffff1660e01b81526004016108f59190611c15565b602060405180830381865afa158015610910573d5f803e3d5ffd5b505050506040513d601f19601f820116820180604052508101906109349190611e7e565b9050919050565b5f60025f9054906101000a900473ffffffffffffffffffffffffffffffffffffffff1673ffffffffffffffffffffffffffffffffffffffff166370a08231306040518263ffffffff1660e01b81526004016109969190611c15565b602060405180830381865afa1580156109b1573d5f803e3d5ffd5b505050506040513d601f19601f820116820180604052508101906109d59190611e7e565b905090565b6109e261172e565b73ffffffffffffffffffffffffffffffffffffffff165f8054906101000a900473ffffffffffffffffffffffffffffffffffffffff1673ffffffffffffffffffffffffffffffffffffffff1614610a6e576040517f08c379a0000000000000000000000000000000000000000000000000000000008152600401610a6590611ef3565b60405180910390fd5b5f73ffffffffffffffffffffffffffffffffffffffff165f8054906101000a900473ffffffffffffffffffffffffffffffffffffffff1673ffffffffffffffffffffffffffffffffffffffff167f8be0079c531659141344cd1fd0a4f28419497f9722a3daafe3b4186f6b6457e060405160405180910390a35f805f6101000a81548173ffffffffffffffffffffffffffffffffffffffff021916908373ffffffffffffffffffffffffffffffffffffffff160217905550565b5f805f9054906101000a900473ffffffffffffffffffffffffffffffffffffffff16905090565b5f6003805490500315610c18576001600380549050610b6e9190611f11565b60045403610b7e575f6004819055505b5f60045490505b600380549050811015610c16575f60038281548110610ba757610ba6611f44565b5b905f5260205f20015f9054906101000a900473ffffffffffffffffffffffffffffffffffffffff1690505f610bdb8261159d565b509050826004819055505f8103610bf3575050610c03565b610bfc82611735565b5050610c16565b8080610c0e90611f71565b915050610b85565b505b565b60055481565b60025f9054906101000a900473ffffffffffffffffffffffffffffffffffffffff1681565b5f610c4f3361159d565b5090505f811115610c6457610c6333611735565b5b50565b5f80600c5f8581526020019081526020015f205410158015610d21575060085f9054906101000a900473ffffffffffffffffffffffffffffffffffffffff1673ffffffffffffffffffffffffffffffffffffffff166370a08231836040518263ffffffff1660e01b8152600401610cde9190611c15565b602060405180830381865afa158015610cf9573d5f803e3d5ffd5b505050506040513d601f19601f82011682018060405250810190610d1d9190611e7e565b8411155b8015610d6957505f60095f8473ffffffffffffffffffffffffffffffffffffffff1673ffffffffffffffffffffffffffffffffffffffff1681526020019081526020015f2054145b8015610d7457505f84115b15610d825760019050610d86565b5f90505b9392505050565b5f600554905090565b610d9e61172e565b73ffffffffffffffffffffffffffffffffffffffff165f8054906101000a900473ffffffffffffffffffffffffffffffffffffffff1673ffffffffffffffffffffffffffffffffffffffff1614610e2a576040517f08c379a0000000000000000000000000000000000000000000000000000000008152600401610e2190611ef3565b60405180910390fd5b80600c5f8081526020019081526020015f208190555050565b5f90505f610e52838333610c67565b905080610e94576040517f08c379a0000000000000000000000000000000000000000000000000000000008152600401610e8b90612002565b60405180910390fd5b60085f9054906101000a900473ffffffffffffffffffffffffffffffffffffffff1673ffffffffffffffffffffffffffffffffffffffff166323b872dd3330866040518463ffffffff1660e01b8152600401610ef293929190612020565b6020604051808303815f875af1158015610f0e573d5f803e3d5ffd5b505050506040513d601f19601f82011682018060405250810190610f329190611e3f565b5060065482610f419190612055565b9150610f4e338484611926565b610f6383600554611a6590919063ffffffff16565b600581905550505050565b610f7661172e565b73ffffffffffffffffffffffffffffffffffffffff165f8054906101000a900473ffffffffffffffffffffffffffffffffffffffff1673ffffffffffffffffffffffffffffffffffffffff1614611002576040517f08c379a0000000000000000000000000000000000000000000000000000000008152600401610ff990611ef3565b60405180910390fd5b8060085f6101000a81548173ffffffffffffffffffffffffffffffffffffffff021916908373ffffffffffffffffffffffffffffffffffffffff1602179055508060025f6101000a81548173ffffffffffffffffffffffffffffffffffffffff021916908373ffffffffffffffffffffffffffffffffffffffff16021790555050565b5f805f5b60038054905081101561112457600381815481106110aa576110a9611f44565b5b905f5260205f20015f9054906101000a900473ffffffffffffffffffffffffffffffffffffffff1673ffffffffffffffffffffffffffffffffffffffff168473ffffffffffffffffffffffffffffffffffffffff160361111157600181925092505061112c565b808061111c90611f71565b915050611089565b505f80915091505b915091565b61113961172e565b73ffffffffffffffffffffffffffffffffffffffff165f8054906101000a900473ffffffffffffffffffffffffffffffffffffffff1673ffffffffffffffffffffffffffffffffffffffff16146111c5576040517f08c379a00000000000000000000000000000000000000000000000000000000081526004016111bc90611ef3565b60405180910390fd5b5f73ffffffffffffffffffffffffffffffffffffffff168173ffffffffffffffffffffffffffffffffffffffff1603611233576040517f08c379a000000000000000000000000000000000000000000000000000000000815260040161122a90612106565b60405180910390fd5b8073ffffffffffffffffffffffffffffffffffffffff165f8054906101000a900473ffffffffffffffffffffffffffffffffffffffff1673ffffffffffffffffffffffffffffffffffffffff167f8be0079c531659141344cd1fd0a4f28419497f9722a3daafe3b4186f6b6457e060405160405180910390a3805f806101000a81548173ffffffffffffffffffffffffffffffffffffffff021916908373ffffffffffffffffffffffffffffffffffffffff16021790555050565b5f82821115611332576040517f08c379a00000000000000000000000000000000000000000000000000000000081526004016113299061216e565b60405180910390fd5b818361133e9190611f11565b905092915050565b5f8061135183611085565b9150915081156114ca576003600160038054905061136f9190611f11565b815481106113805761137f611f44565b5b905f5260205f20015f9054906101000a900473ffffffffffffffffffffffffffffffffffffffff16600382815481106113bc576113bb611f44565b5b905f5260205f20015f6101000a81548173ffffffffffffffffffffffffffffffffffffffff021916908373ffffffffffffffffffffffffffffffffffffffff16021790555060038054806114135761141261218c565b5b600190038181905f5260205f20015f6101000a81549073ffffffffffffffffffffffffffffffffffffffff021916905590555f600a5f8573ffffffffffffffffffffffffffffffffffffffff1673ffffffffffffffffffffffffffffffffffffffff1681526020019081526020015f20819055505f600b5f8573ffffffffffffffffffffffffffffffffffffffff1673ffffffffffffffffffffffffffffffffffffffff1681526020019081526020015f20819055505b505050565b5f8083036114df575f9050611540565b5f82846114ec9190612055565b90508284826114fb91906121e6565b1461153b576040517f08c379a000000000000000000000000000000000000000000000000000000000815260040161153290612286565b60405180910390fd5b809150505b92915050565b5f808211611589576040517f08c379a0000000000000000000000000000000000000000000000000000000008152600401611580906122ee565b60405180910390fd5b818361159591906121e6565b905092915050565b5f805f60095f8573ffffffffffffffffffffffffffffffffffffffff1673ffffffffffffffffffffffffffffffffffffffff1681526020019081526020015f205490505f81036115f3575f809250925050611729565b5f600a5f8673ffffffffffffffffffffffffffffffffffffffff1673ffffffffffffffffffffffffffffffffffffffff1681526020019081526020015f205490505f8103611648575f80935093505050611729565b5f4290505f61166083836112ee90919063ffffffff16565b90505f600b5f8973ffffffffffffffffffffffffffffffffffffffff1673ffffffffffffffffffffffffffffffffffffffff1681526020019081526020015f20549050808210156116bb575f80965096505050505050611729565b5f81836116c891906121e6565b90505f600c5f8481526020019081526020015f205490505f611718606461170a856116fc868d6114cf90919063ffffffff16565b6114cf90919063ffffffff16565b61154690919063ffffffff16565b905080839950995050505050505050505b915091565b5f33905090565b5f806117408361159d565b915091505f8203611752575050611923565b5f600b5f8573ffffffffffffffffffffffffffffffffffffffff1673ffffffffffffffffffffffffffffffffffffffff1681526020019081526020015f205490506117ee82826117a29190612055565b600a5f8773ffffffffffffffffffffffffffffffffffffffff1673ffffffffffffffffffffffffffffffffffffffff1681526020019081526020015f2054611a6590919063ffffffff16565b600a5f8673ffffffffffffffffffffffffffffffffffffffff1673ffffffffffffffffffffffffffffffffffffffff1681526020019081526020015f208190555060085f9054906101000a900473ffffffffffffffffffffffffffffffffffffffff1673ffffffffffffffffffffffffffffffffffffffff1663a9059cbb33856040518363ffffffff1660e01b815260040161188b929190611dee565b6020604051808303815f875af11580156118a7573d5f803e3d5ffd5b505050506040513d601f19601f820116820180604052508101906118cb9190611e3f565b508260075f8282546118dd9190611dbb565b925050819055507f6379339f0ae63e95e65fad18ca2a7ec4e7e3f05f3cc5f7079f4d8da8cec34faa8484426040516119179392919061230c565b60405180910390a15050505b50565b5f61193084611085565b5090508061199957600384908060018154018082558091505060019003905f5260205f20015f9091909190916101000a81548173ffffffffffffffffffffffffffffffffffffffff021916908373ffffffffffffffffffffffffffffffffffffffff1602179055505b42600a5f8673ffffffffffffffffffffffffffffffffffffffff1673ffffffffffffffffffffffffffffffffffffffff1681526020019081526020015f208190555081600b5f8673ffffffffffffffffffffffffffffffffffffffff1673ffffffffffffffffffffffffffffffffffffffff1681526020019081526020015f20819055508260095f8673ffffffffffffffffffffffffffffffffffffffff1673ffffffffffffffffffffffffffffffffffffffff1681526020019081526020015f208190555050505050565b5f808284611a739190611dbb565b905083811015611ab8576040517f08c379a0000000000000000000000000000000000000000000000000000000008152600401611aaf9061238b565b60405180910390fd5b8091505092915050565b5f80fd5b5f819050919050565b611ad881611ac6565b8114611ae2575f80fd5b50565b5f81359050611af381611acf565b92915050565b5f60208284031215611b0e57611b0d611ac2565b5b5f611b1b84828501611ae5565b91505092915050565b611b2d81611ac6565b82525050565b5f602082019050611b465f830184611b24565b92915050565b5f606082019050611b5f5f830186611b24565b611b6c6020830185611b24565b611b796040830184611b24565b949350505050565b5f73ffffffffffffffffffffffffffffffffffffffff82169050919050565b5f611baa82611b81565b9050919050565b611bba81611ba0565b8114611bc4575f80fd5b50565b5f81359050611bd581611bb1565b92915050565b5f60208284031215611bf057611bef611ac2565b5b5f611bfd84828501611bc7565b91505092915050565b611c0f81611ba0565b82525050565b5f602082019050611c285f830184611c06565b92915050565b5f805f60608486031215611c4557611c44611ac2565b5b5f611c5286828701611ae5565b9350506020611c6386828701611ae5565b9250506040611c7486828701611bc7565b9150509250925092565b5f8115159050919050565b611c9281611c7e565b82525050565b5f602082019050611cab5f830184611c89565b92915050565b5f8060408385031215611cc757611cc6611ac2565b5b5f611cd485828601611ae5565b9250506020611ce585828601611ae5565b9150509250929050565b5f604082019050611d025f830185611c89565b611d0f6020830184611b24565b9392505050565b5f82825260208201905092915050565b7f457863656564696e67207374616b6520616d6f756e74000000000000000000005f82015250565b5f611d5a601683611d16565b9150611d6582611d26565b602082019050919050565b5f6020820190508181035f830152611d8781611d4e565b9050919050565b7f4e487b71000000000000000000000000000000000000000000000000000000005f52601160045260245ffd5b5f611dc582611ac6565b9150611dd083611ac6565b9250828201905080821115611de857611de7611d8e565b5b92915050565b5f604082019050611e015f830185611c06565b611e0e6020830184611b24565b9392505050565b611e1e81611c7e565b8114611e28575f80fd5b50565b5f81519050611e3981611e15565b92915050565b5f60208284031215611e5457611e53611ac2565b5b5f611e6184828501611e2b565b91505092915050565b5f81519050611e7881611acf565b92915050565b5f60208284031215611e9357611e92611ac2565b5b5f611ea084828501611e6a565b91505092915050565b7f4f776e61626c653a2063616c6c6572206973206e6f7420746865206f776e65725f82015250565b5f611edd602083611d16565b9150611ee882611ea9565b602082019050919050565b5f6020820190508181035f830152611f0a81611ed1565b9050919050565b5f611f1b82611ac6565b9150611f2683611ac6565b9250828203905081811115611f3e57611f3d611d8e565b5b92915050565b7f4e487b71000000000000000000000000000000000000000000000000000000005f52603260045260245ffd5b5f611f7b82611ac6565b91507fffffffffffffffffffffffffffffffffffffffffffffffffffffffffffffffff8203611fad57611fac611d8e565b5b600182019050919050565b7f43616e6e6f74205374616b6500000000000000000000000000000000000000005f82015250565b5f611fec600c83611d16565b9150611ff782611fb8565b602082019050919050565b5f6020820190508181035f83015261201981611fe0565b9050919050565b5f6060820190506120335f830186611c06565b6120406020830185611c06565b61204d6040830184611b24565b949350505050565b5f61205f82611ac6565b915061206a83611ac6565b925082820261207881611ac6565b9150828204841483151761208f5761208e611d8e565b5b5092915050565b7f4f776e61626c653a206e6577206f776e657220697320746865207a65726f20615f8201527f6464726573730000000000000000000000000000000000000000000000000000602082015250565b5f6120f0602683611d16565b91506120fb82612096565b604082019050919050565b5f6020820190508181035f83015261211d816120e4565b9050919050565b7f536166654d6174683a207375627472616374696f6e206f766572666c6f7700005f82015250565b5f612158601e83611d16565b915061216382612124565b602082019050919050565b5f6020820190508181035f8301526121858161214c565b9050919050565b7f4e487b71000000000000000000000000000000000000000000000000000000005f52603160045260245ffd5b7f4e487b71000000000000000000000000000000000000000000000000000000005f52601260045260245ffd5b5f6121f082611ac6565b91506121fb83611ac6565b92508261220b5761220a6121b9565b5b828204905092915050565b7f536166654d6174683a206d756c7469706c69636174696f6e206f766572666c6f5f8201527f7700000000000000000000000000000000000000000000000000000000000000602082015250565b5f612270602183611d16565b915061227b82612216565b604082019050919050565b5f6020820190508181035f83015261229d81612264565b9050919050565b7f536166654d6174683a206469766973696f6e206279207a65726f0000000000005f82015250565b5f6122d8601a83611d16565b91506122e3826122a4565b602082019050919050565b5f6020820190508181035f830152612305816122cc565b9050919050565b5f60608201905061231f5f830186611c06565b61232c6020830185611b24565b6123396040830184611b24565b949350505050565b7f536166654d6174683a206164646974696f6e206f766572666c6f7700000000005f82015250565b5f612375601b83611d16565b915061238082612341565b602082019050919050565b5f6020820190508181035f8301526123a281612369565b905091905056fea264697066735822122091e246dcdd10f415ba69b17fe769150b1aba2618215d41d9bcbf458dfb3e61d364736f6c63430008140033",
			"opcodes": "PUSH1 0x80 PUSH1 0x40 MSTORE PUSH0 PUSH1 0x4 SSTORE PUSH0 PUSH1 0x5 SSTORE PUSH3 0x93A80 PUSH1 0x6 SSTORE PUSH0 PUSH1 0x7 SSTORE CALLVALUE DUP1 ISZERO PUSH3 0x23 JUMPI PUSH0 DUP1 REVERT JUMPDEST POP PUSH1 0x40 MLOAD PUSH3 0x261D CODESIZE SUB DUP1 PUSH3 0x261D DUP4 CODECOPY DUP2 DUP2 ADD PUSH1 0x40 MSTORE DUP2 ADD SWAP1 PUSH3 0x49 SWAP2 SWAP1 PUSH3 0x200 JUMP JUMPDEST PUSH0 PUSH3 0x5A PUSH3 0x194 PUSH1 0x20 SHL PUSH1 0x20 SHR JUMP JUMPDEST SWAP1 POP DUP1 PUSH0 DUP1 PUSH2 0x100 EXP DUP2 SLOAD DUP2 PUSH20 0xFFFFFFFFFFFFFFFFFFFFFFFFFFFFFFFFFFFFFFFF MUL NOT AND SWAP1 DUP4 PUSH20 0xFFFFFFFFFFFFFFFFFFFFFFFFFFFFFFFFFFFFFFFF AND MUL OR SWAP1 SSTORE POP DUP1 PUSH20 0xFFFFFFFFFFFFFFFFFFFFFFFFFFFFFFFFFFFFFFFF AND PUSH0 PUSH20 0xFFFFFFFFFFFFFFFFFFFFFFFFFFFFFFFFFFFFFFFF AND PUSH32 0x8BE0079C531659141344CD1FD0A4F28419497F9722A3DAAFE3B4186F6B6457E0 PUSH1 0x40 MLOAD PUSH1 0x40 MLOAD DUP1 SWAP2 SUB SWAP1 LOG3 POP PUSH1 0x1 PUSH1 0xC PUSH0 DUP1 DUP2 MSTORE PUSH1 0x20 ADD SWAP1 DUP2 MSTORE PUSH1 0x20 ADD PUSH0 KECCAK256 DUP2 SWAP1 SSTORE POP DUP1 PUSH1 0x2 PUSH0 PUSH2 0x100 EXP DUP2 SLOAD DUP2 PUSH20 0xFFFFFFFFFFFFFFFFFFFFFFFFFFFFFFFFFFFFFFFF MUL NOT AND SWAP1 DUP4 PUSH20 0xFFFFFFFFFFFFFFFFFFFFFFFFFFFFFFFFFFFFFFFF AND MUL OR SWAP1 SSTORE POP DUP1 PUSH1 0x8 PUSH0 PUSH2 0x100 EXP DUP2 SLOAD DUP2 PUSH20 0xFFFFFFFFFFFFFFFFFFFFFFFFFFFFFFFFFFFFFFFF MUL NOT AND SWAP1 DUP4 PUSH20 0xFFFFFFFFFFFFFFFFFFFFFFFFFFFFFFFFFFFFFFFF AND MUL OR SWAP1 SSTORE POP POP PUSH3 0x230 JUMP JUMPDEST PUSH0 CALLER SWAP1 POP SWAP1 JUMP JUMPDEST PUSH0 DUP1 REVERT JUMPDEST PUSH0 PUSH20 0xFFFFFFFFFFFFFFFFFFFFFFFFFFFFFFFFFFFFFFFF DUP3 AND SWAP1 POP SWAP2 SWAP1 POP JUMP JUMPDEST PUSH0 PUSH3 0x1CA DUP3 PUSH3 0x19F JUMP JUMPDEST SWAP1 POP SWAP2 SWAP1 POP JUMP JUMPDEST PUSH3 0x1DC DUP2 PUSH3 0x1BE JUMP JUMPDEST DUP2 EQ PUSH3 0x1E7 JUMPI PUSH0 DUP1 REVERT JUMPDEST POP JUMP JUMPDEST PUSH0 DUP2 MLOAD SWAP1 POP PUSH3 0x1FA DUP2 PUSH3 0x1D1 JUMP JUMPDEST SWAP3 SWAP2 POP POP JUMP JUMPDEST PUSH0 PUSH1 0x20 DUP3 DUP5 SUB SLT ISZERO PUSH3 0x218 JUMPI PUSH3 0x217 PUSH3 0x19B JUMP JUMPDEST JUMPDEST PUSH0 PUSH3 0x227 DUP5 DUP3 DUP6 ADD PUSH3 0x1EA JUMP JUMPDEST SWAP2 POP POP SWAP3 SWAP2 POP POP JUMP JUMPDEST PUSH2 0x23DF DUP1 PUSH3 0x23E PUSH0 CODECOPY PUSH0 RETURN INVALID PUSH1 0x80 PUSH1 0x40 MSTORE CALLVALUE DUP1 ISZERO PUSH2 0xF JUMPI PUSH0 DUP1 REVERT JUMPDEST POP PUSH1 0x4 CALLDATASIZE LT PUSH2 0x156 JUMPI PUSH0 CALLDATALOAD PUSH1 0xE0 SHR DUP1 PUSH4 0x8DA5CB5B GT PUSH2 0xC1 JUMPI DUP1 PUSH4 0xBF9BEFB1 GT PUSH2 0x7A JUMPI DUP1 PUSH4 0xBF9BEFB1 EQ PUSH2 0x36E JUMPI DUP1 PUSH4 0xC53D425A EQ PUSH2 0x38C JUMPI DUP1 PUSH4 0xD7FA023D EQ PUSH2 0x3A8 JUMPI DUP1 PUSH4 0xE30081A0 EQ PUSH2 0x3C4 JUMPI DUP1 PUSH4 0xEF037B90 EQ PUSH2 0x3E0 JUMPI DUP1 PUSH4 0xF2FDE38B EQ PUSH2 0x411 JUMPI PUSH2 0x156 JUMP JUMPDEST DUP1 PUSH4 0x8DA5CB5B EQ PUSH2 0x2D0 JUMPI DUP1 PUSH4 0x8F73C5AE EQ PUSH2 0x2EE JUMPI DUP1 PUSH4 0x92504BFA EQ PUSH2 0x2F8 JUMPI DUP1 PUSH4 0x9D76EA58 EQ PUSH2 0x316 JUMPI DUP1 PUSH4 0xB88A802F EQ PUSH2 0x334 JUMPI DUP1 PUSH4 0xBBFA2990 EQ PUSH2 0x33E JUMPI PUSH2 0x156 JUMP JUMPDEST DUP1 PUSH4 0x38ADB6F0 GT PUSH2 0x113 JUMPI DUP1 PUSH4 0x38ADB6F0 EQ PUSH2 0x220 JUMPI DUP1 PUSH4 0x3CC7D2C4 EQ PUSH2 0x23E JUMPI DUP1 PUSH4 0x42623360 EQ PUSH2 0x248 JUMPI DUP1 PUSH4 0x6288AF1E EQ PUSH2 0x278 JUMPI DUP1 PUSH4 0x69BB4DC2 EQ PUSH2 0x2A8 JUMPI DUP1 PUSH4 0x715018A6 EQ PUSH2 0x2C6 JUMPI PUSH2 0x156 JUMP JUMPDEST DUP1 PUSH4 0x3FCE884 EQ PUSH2 0x15A JUMPI DUP1 PUSH4 0xFFDE47B EQ PUSH2 0x176 JUMPI DUP1 PUSH4 0x1865C57D EQ PUSH2 0x194 JUMPI DUP1 PUSH4 0x1D62EBD9 EQ PUSH2 0x1B4 JUMPI DUP1 PUSH4 0x30188EE8 EQ PUSH2 0x1E4 JUMPI DUP1 PUSH4 0x31ED0DB4 EQ PUSH2 0x202 JUMPI JUMPDEST PUSH0 DUP1 REVERT JUMPDEST PUSH2 0x174 PUSH1 0x4 DUP1 CALLDATASIZE SUB DUP2 ADD SWAP1 PUSH2 0x16F SWAP2 SWAP1 PUSH2 0x1AF9 JUMP JUMPDEST PUSH2 0x42D JUMP JUMPDEST STOP JUMPDEST PUSH2 0x17E PUSH2 0x71F JUMP JUMPDEST PUSH1 0x40 MLOAD PUSH2 0x18B SWAP2 SWAP1 PUSH2 0x1B33 JUMP JUMPDEST PUSH1 0x40 MLOAD DUP1 SWAP2 SUB SWAP1 RETURN JUMPDEST PUSH2 0x19C PUSH2 0x725 JUMP JUMPDEST PUSH1 0x40 MLOAD PUSH2 0x1AB SWAP4 SWAP3 SWAP2 SWAP1 PUSH2 0x1B4C JUMP JUMPDEST PUSH1 0x40 MLOAD DUP1 SWAP2 SUB SWAP1 RETURN JUMPDEST PUSH2 0x1CE PUSH1 0x4 DUP1 CALLDATASIZE SUB DUP2 ADD SWAP1 PUSH2 0x1C9 SWAP2 SWAP1 PUSH2 0x1BDB JUMP JUMPDEST PUSH2 0x7D5 JUMP JUMPDEST PUSH1 0x40 MLOAD PUSH2 0x1DB SWAP2 SWAP1 PUSH2 0x1B33 JUMP JUMPDEST PUSH1 0x40 MLOAD DUP1 SWAP2 SUB SWAP1 RETURN JUMPDEST PUSH2 0x1EC PUSH2 0x7EC JUMP JUMPDEST PUSH1 0x40 MLOAD PUSH2 0x1F9 SWAP2 SWAP1 PUSH2 0x1B33 JUMP JUMPDEST PUSH1 0x40 MLOAD DUP1 SWAP2 SUB SWAP1 RETURN JUMPDEST PUSH2 0x20A PUSH2 0x7F2 JUMP JUMPDEST PUSH1 0x40 MLOAD PUSH2 0x217 SWAP2 SWAP1 PUSH2 0x1B33 JUMP JUMPDEST PUSH1 0x40 MLOAD DUP1 SWAP2 SUB SWAP1 RETURN JUMPDEST PUSH2 0x228 PUSH2 0x7FE JUMP JUMPDEST PUSH1 0x40 MLOAD PUSH2 0x235 SWAP2 SWAP1 PUSH2 0x1B33 JUMP JUMPDEST PUSH1 0x40 MLOAD DUP1 SWAP2 SUB SWAP1 RETURN JUMPDEST PUSH2 0x246 PUSH2 0x807 JUMP JUMPDEST STOP JUMPDEST PUSH2 0x262 PUSH1 0x4 DUP1 CALLDATASIZE SUB DUP2 ADD SWAP1 PUSH2 0x25D SWAP2 SWAP1 PUSH2 0x1BDB JUMP JUMPDEST PUSH2 0x854 JUMP JUMPDEST PUSH1 0x40 MLOAD PUSH2 0x26F SWAP2 SWAP1 PUSH2 0x1B33 JUMP JUMPDEST PUSH1 0x40 MLOAD DUP1 SWAP2 SUB SWAP1 RETURN JUMPDEST PUSH2 0x292 PUSH1 0x4 DUP1 CALLDATASIZE SUB DUP2 ADD SWAP1 PUSH2 0x28D SWAP2 SWAP1 PUSH2 0x1BDB JUMP JUMPDEST PUSH2 0x89A JUMP JUMPDEST PUSH1 0x40 MLOAD PUSH2 0x29F SWAP2 SWAP1 PUSH2 0x1B33 JUMP JUMPDEST PUSH1 0x40 MLOAD DUP1 SWAP2 SUB SWAP1 RETURN JUMPDEST PUSH2 0x2B0 PUSH2 0x93B JUMP JUMPDEST PUSH1 0x40 MLOAD PUSH2 0x2BD SWAP2 SWAP1 PUSH2 0x1B33 JUMP JUMPDEST PUSH1 0x40 MLOAD DUP1 SWAP2 SUB SWAP1 RETURN JUMPDEST PUSH2 0x2CE PUSH2 0x9DA JUMP JUMPDEST STOP JUMPDEST PUSH2 0x2D8 PUSH2 0xB28 JUMP JUMPDEST PUSH1 0x40 MLOAD PUSH2 0x2E5 SWAP2 SWAP1 PUSH2 0x1C15 JUMP JUMPDEST PUSH1 0x40 MLOAD DUP1 SWAP2 SUB SWAP1 RETURN JUMPDEST PUSH2 0x2F6 PUSH2 0xB4F JUMP JUMPDEST STOP JUMPDEST PUSH2 0x300 PUSH2 0xC1A JUMP JUMPDEST PUSH1 0x40 MLOAD PUSH2 0x30D SWAP2 SWAP1 PUSH2 0x1B33 JUMP JUMPDEST PUSH1 0x40 MLOAD DUP1 SWAP2 SUB SWAP1 RETURN JUMPDEST PUSH2 0x31E PUSH2 0xC20 JUMP JUMPDEST PUSH1 0x40 MLOAD PUSH2 0x32B SWAP2 SWAP1 PUSH2 0x1C15 JUMP JUMPDEST PUSH1 0x40 MLOAD DUP1 SWAP2 SUB SWAP1 RETURN JUMPDEST PUSH2 0x33C PUSH2 0xC45 JUMP JUMPDEST STOP JUMPDEST PUSH2 0x358 PUSH1 0x4 DUP1 CALLDATASIZE SUB DUP2 ADD SWAP1 PUSH2 0x353 SWAP2 SWAP1 PUSH2 0x1C2E JUMP JUMPDEST PUSH2 0xC67 JUMP JUMPDEST PUSH1 0x40 MLOAD PUSH2 0x365 SWAP2 SWAP1 PUSH2 0x1C98 JUMP JUMPDEST PUSH1 0x40 MLOAD DUP1 SWAP2 SUB SWAP1 RETURN JUMPDEST PUSH2 0x376 PUSH2 0xD8D JUMP JUMPDEST PUSH1 0x40 MLOAD PUSH2 0x383 SWAP2 SWAP1 PUSH2 0x1B33 JUMP JUMPDEST PUSH1 0x40 MLOAD DUP1 SWAP2 SUB SWAP1 RETURN JUMPDEST PUSH2 0x3A6 PUSH1 0x4 DUP1 CALLDATASIZE SUB DUP2 ADD SWAP1 PUSH2 0x3A1 SWAP2 SWAP1 PUSH2 0x1AF9 JUMP JUMPDEST PUSH2 0xD96 JUMP JUMPDEST STOP JUMPDEST PUSH2 0x3C2 PUSH1 0x4 DUP1 CALLDATASIZE SUB DUP2 ADD SWAP1 PUSH2 0x3BD SWAP2 SWAP1 PUSH2 0x1CB1 JUMP JUMPDEST PUSH2 0xE43 JUMP JUMPDEST STOP JUMPDEST PUSH2 0x3DE PUSH1 0x4 DUP1 CALLDATASIZE SUB DUP2 ADD SWAP1 PUSH2 0x3D9 SWAP2 SWAP1 PUSH2 0x1BDB JUMP JUMPDEST PUSH2 0xF6E JUMP JUMPDEST STOP JUMPDEST PUSH2 0x3FA PUSH1 0x4 DUP1 CALLDATASIZE SUB DUP2 ADD SWAP1 PUSH2 0x3F5 SWAP2 SWAP1 PUSH2 0x1BDB JUMP JUMPDEST PUSH2 0x1085 JUMP JUMPDEST PUSH1 0x40 MLOAD PUSH2 0x408 SWAP3 SWAP2 SWAP1 PUSH2 0x1CEF JUMP JUMPDEST PUSH1 0x40 MLOAD DUP1 SWAP2 SUB SWAP1 RETURN JUMPDEST PUSH2 0x42B PUSH1 0x4 DUP1 CALLDATASIZE SUB DUP2 ADD SWAP1 PUSH2 0x426 SWAP2 SWAP1 PUSH2 0x1BDB JUMP JUMPDEST PUSH2 0x1131 JUMP JUMPDEST STOP JUMPDEST PUSH1 0x9 PUSH0 CALLER PUSH20 0xFFFFFFFFFFFFFFFFFFFFFFFFFFFFFFFFFFFFFFFF AND PUSH20 0xFFFFFFFFFFFFFFFFFFFFFFFFFFFFFFFFFFFFFFFF AND DUP2 MSTORE PUSH1 0x20 ADD SWAP1 DUP2 MSTORE PUSH1 0x20 ADD PUSH0 KECCAK256 SLOAD DUP2 GT ISZERO PUSH2 0x4AD JUMPI PUSH1 0x40 MLOAD PUSH32 0x8C379A000000000000000000000000000000000000000000000000000000000 DUP2 MSTORE PUSH1 0x4 ADD PUSH2 0x4A4 SWAP1 PUSH2 0x1D70 JUMP JUMPDEST PUSH1 0x40 MLOAD DUP1 SWAP2 SUB SWAP1 REVERT JUMPDEST PUSH2 0x4FD DUP2 PUSH1 0x9 PUSH0 CALLER PUSH20 0xFFFFFFFFFFFFFFFFFFFFFFFFFFFFFFFFFFFFFFFF AND PUSH20 0xFFFFFFFFFFFFFFFFFFFFFFFFFFFFFFFFFFFFFFFF AND DUP2 MSTORE PUSH1 0x20 ADD SWAP1 DUP2 MSTORE PUSH1 0x20 ADD PUSH0 KECCAK256 SLOAD PUSH2 0x12EE SWAP1 SWAP2 SWAP1 PUSH4 0xFFFFFFFF AND JUMP JUMPDEST PUSH1 0x9 PUSH0 CALLER PUSH20 0xFFFFFFFFFFFFFFFFFFFFFFFFFFFFFFFFFFFFFFFF AND PUSH20 0xFFFFFFFFFFFFFFFFFFFFFFFFFFFFFFFFFFFFFFFF AND DUP2 MSTORE PUSH1 0x20 ADD SWAP1 DUP2 MSTORE PUSH1 0x20 ADD PUSH0 KECCAK256 DUP2 SWAP1 SSTORE POP PUSH0 PUSH1 0x9 PUSH0 CALLER PUSH20 0xFFFFFFFFFFFFFFFFFFFFFFFFFFFFFFFFFFFFFFFF AND PUSH20 0xFFFFFFFFFFFFFFFFFFFFFFFFFFFFFFFFFFFFFFFF AND DUP2 MSTORE PUSH1 0x20 ADD SWAP1 DUP2 MSTORE PUSH1 0x20 ADD PUSH0 KECCAK256 SLOAD SUB PUSH2 0x58C JUMPI PUSH2 0x58B CALLER PUSH2 0x1346 JUMP JUMPDEST JUMPDEST PUSH0 PUSH1 0xB PUSH0 CALLER PUSH20 0xFFFFFFFFFFFFFFFFFFFFFFFFFFFFFFFFFFFFFFFF AND PUSH20 0xFFFFFFFFFFFFFFFFFFFFFFFFFFFFFFFFFFFFFFFF AND DUP2 MSTORE PUSH1 0x20 ADD SWAP1 DUP2 MSTORE PUSH1 0x20 ADD PUSH0 KECCAK256 SLOAD SWAP1 POP PUSH0 PUSH1 0xA PUSH0 CALLER PUSH20 0xFFFFFFFFFFFFFFFFFFFFFFFFFFFFFFFFFFFFFFFF AND PUSH20 0xFFFFFFFFFFFFFFFFFFFFFFFFFFFFFFFFFFFFFFFF AND DUP2 MSTORE PUSH1 0x20 ADD SWAP1 DUP2 MSTORE PUSH1 0x20 ADD PUSH0 KECCAK256 SLOAD SWAP1 POP PUSH2 0x623 DUP4 PUSH1 0x5 SLOAD PUSH2 0x12EE SWAP1 SWAP2 SWAP1 PUSH4 0xFFFFFFFF AND JUMP JUMPDEST PUSH1 0x5 DUP2 SWAP1 SSTORE POP TIMESTAMP DUP3 DUP3 PUSH2 0x636 SWAP2 SWAP1 PUSH2 0x1DBB JUMP JUMPDEST GT ISZERO PUSH2 0x67D JUMPI PUSH0 PUSH2 0x664 PUSH1 0x64 PUSH2 0x656 PUSH1 0x5 DUP8 PUSH2 0x14CF SWAP1 SWAP2 SWAP1 PUSH4 0xFFFFFFFF AND JUMP JUMPDEST PUSH2 0x1546 SWAP1 SWAP2 SWAP1 PUSH4 0xFFFFFFFF AND JUMP JUMPDEST SWAP1 POP PUSH2 0x679 DUP2 DUP6 PUSH2 0x12EE SWAP1 SWAP2 SWAP1 PUSH4 0xFFFFFFFF AND JUMP JUMPDEST SWAP4 POP POP JUMPDEST PUSH1 0x8 PUSH0 SWAP1 SLOAD SWAP1 PUSH2 0x100 EXP SWAP1 DIV PUSH20 0xFFFFFFFFFFFFFFFFFFFFFFFFFFFFFFFFFFFFFFFF AND PUSH20 0xFFFFFFFFFFFFFFFFFFFFFFFFFFFFFFFFFFFFFFFF AND PUSH4 0xA9059CBB CALLER DUP6 PUSH1 0x40 MLOAD DUP4 PUSH4 0xFFFFFFFF AND PUSH1 0xE0 SHL DUP2 MSTORE PUSH1 0x4 ADD PUSH2 0x6D9 SWAP3 SWAP2 SWAP1 PUSH2 0x1DEE JUMP JUMPDEST PUSH1 0x20 PUSH1 0x40 MLOAD DUP1 DUP4 SUB DUP2 PUSH0 DUP8 GAS CALL ISZERO DUP1 ISZERO PUSH2 0x6F5 JUMPI RETURNDATASIZE PUSH0 DUP1 RETURNDATACOPY RETURNDATASIZE PUSH0 REVERT JUMPDEST POP POP POP POP PUSH1 0x40 MLOAD RETURNDATASIZE PUSH1 0x1F NOT PUSH1 0x1F DUP3 ADD AND DUP3 ADD DUP1 PUSH1 0x40 MSTORE POP DUP2 ADD SWAP1 PUSH2 0x719 SWAP2 SWAP1 PUSH2 0x1E3F JUMP JUMPDEST POP POP POP POP JUMP JUMPDEST PUSH1 0x4 SLOAD DUP2 JUMP JUMPDEST PUSH0 DUP1 PUSH0 PUSH1 0x3 DUP1 SLOAD SWAP1 POP PUSH1 0x8 PUSH0 SWAP1 SLOAD SWAP1 PUSH2 0x100 EXP SWAP1 DIV PUSH20 0xFFFFFFFFFFFFFFFFFFFFFFFFFFFFFFFFFFFFFFFF AND PUSH20 0xFFFFFFFFFFFFFFFFFFFFFFFFFFFFFFFFFFFFFFFF AND PUSH4 0x70A08231 ADDRESS PUSH1 0x40 MLOAD DUP3 PUSH4 0xFFFFFFFF AND PUSH1 0xE0 SHL DUP2 MSTORE PUSH1 0x4 ADD PUSH2 0x788 SWAP2 SWAP1 PUSH2 0x1C15 JUMP JUMPDEST PUSH1 0x20 PUSH1 0x40 MLOAD DUP1 DUP4 SUB DUP2 DUP7 GAS STATICCALL ISZERO DUP1 ISZERO PUSH2 0x7A3 JUMPI RETURNDATASIZE PUSH0 DUP1 RETURNDATACOPY RETURNDATASIZE PUSH0 REVERT JUMPDEST POP POP POP POP PUSH1 0x40 MLOAD RETURNDATASIZE PUSH1 0x1F NOT PUSH1 0x1F DUP3 ADD AND DUP3 ADD DUP1 PUSH1 0x40 MSTORE POP DUP2 ADD SWAP1 PUSH2 0x7C7 SWAP2 SWAP1 PUSH2 0x1E7E JUMP JUMPDEST PUSH1 0x7 SLOAD SWAP3 POP SWAP3 POP SWAP3 POP SWAP1 SWAP2 SWAP3 JUMP JUMPDEST PUSH0 DUP1 PUSH2 0x7E0 DUP4 PUSH2 0x159D JUMP JUMPDEST POP SWAP1 POP DUP1 SWAP2 POP POP SWAP2 SWAP1 POP JUMP JUMPDEST PUSH1 0x7 SLOAD DUP2 JUMP JUMPDEST PUSH0 PUSH1 0x3 DUP1 SLOAD SWAP1 POP SWAP1 POP SWAP1 JUMP JUMPDEST PUSH0 PUSH1 0x5 SLOAD SWAP1 POP SWAP1 JUMP JUMPDEST PUSH0 PUSH1 0x9 PUSH0 CALLER PUSH20 0xFFFFFFFFFFFFFFFFFFFFFFFFFFFFFFFFFFFFFFFF AND PUSH20 0xFFFFFFFFFFFFFFFFFFFFFFFFFFFFFFFFFFFFFFFF AND DUP2 MSTORE PUSH1 0x20 ADD SWAP1 DUP2 MSTORE PUSH1 0x20 ADD PUSH0 KECCAK256 SLOAD SWAP1 POP PUSH2 0x851 DUP2 PUSH2 0x42D JUMP JUMPDEST POP JUMP JUMPDEST PUSH0 PUSH1 0x9 PUSH0 DUP4 PUSH20 0xFFFFFFFFFFFFFFFFFFFFFFFFFFFFFFFFFFFFFFFF AND PUSH20 0xFFFFFFFFFFFFFFFFFFFFFFFFFFFFFFFFFFFFFFFF AND DUP2 MSTORE PUSH1 0x20 ADD SWAP1 DUP2 MSTORE PUSH1 0x20 ADD PUSH0 KECCAK256 SLOAD SWAP1 POP SWAP2 SWAP1 POP JUMP JUMPDEST PUSH0 PUSH1 0x8 PUSH0 SWAP1 SLOAD SWAP1 PUSH2 0x100 EXP SWAP1 DIV PUSH20 0xFFFFFFFFFFFFFFFFFFFFFFFFFFFFFFFFFFFFFFFF AND PUSH20 0xFFFFFFFFFFFFFFFFFFFFFFFFFFFFFFFFFFFFFFFF AND PUSH4 0x70A08231 DUP4 PUSH1 0x40 MLOAD DUP3 PUSH4 0xFFFFFFFF AND PUSH1 0xE0 SHL DUP2 MSTORE PUSH1 0x4 ADD PUSH2 0x8F5 SWAP2 SWAP1 PUSH2 0x1C15 JUMP JUMPDEST PUSH1 0x20 PUSH1 0x40 MLOAD DUP1 DUP4 SUB DUP2 DUP7 GAS STATICCALL ISZERO DUP1 ISZERO PUSH2 0x910 JUMPI RETURNDATASIZE PUSH0 DUP1 RETURNDATACOPY RETURNDATASIZE PUSH0 REVERT JUMPDEST POP POP POP POP PUSH1 0x40 MLOAD RETURNDATASIZE PUSH1 0x1F NOT PUSH1 0x1F DUP3 ADD AND DUP3 ADD DUP1 PUSH1 0x40 MSTORE POP DUP2 ADD SWAP1 PUSH2 0x934 SWAP2 SWAP1 PUSH2 0x1E7E JUMP JUMPDEST SWAP1 POP SWAP2 SWAP1 POP JUMP JUMPDEST PUSH0 PUSH1 0x2 PUSH0 SWAP1 SLOAD SWAP1 PUSH2 0x100 EXP SWAP1 DIV PUSH20 0xFFFFFFFFFFFFFFFFFFFFFFFFFFFFFFFFFFFFFFFF AND PUSH20 0xFFFFFFFFFFFFFFFFFFFFFFFFFFFFFFFFFFFFFFFF AND PUSH4 0x70A08231 ADDRESS PUSH1 0x40 MLOAD DUP3 PUSH4 0xFFFFFFFF AND PUSH1 0xE0 SHL DUP2 MSTORE PUSH1 0x4 ADD PUSH2 0x996 SWAP2 SWAP1 PUSH2 0x1C15 JUMP JUMPDEST PUSH1 0x20 PUSH1 0x40 MLOAD DUP1 DUP4 SUB DUP2 DUP7 GAS STATICCALL ISZERO DUP1 ISZERO PUSH2 0x9B1 JUMPI RETURNDATASIZE PUSH0 DUP1 RETURNDATACOPY RETURNDATASIZE PUSH0 REVERT JUMPDEST POP POP POP POP PUSH1 0x40 MLOAD RETURNDATASIZE PUSH1 0x1F NOT PUSH1 0x1F DUP3 ADD AND DUP3 ADD DUP1 PUSH1 0x40 MSTORE POP DUP2 ADD SWAP1 PUSH2 0x9D5 SWAP2 SWAP1 PUSH2 0x1E7E JUMP JUMPDEST SWAP1 POP SWAP1 JUMP JUMPDEST PUSH2 0x9E2 PUSH2 0x172E JUMP JUMPDEST PUSH20 0xFFFFFFFFFFFFFFFFFFFFFFFFFFFFFFFFFFFFFFFF AND PUSH0 DUP1 SLOAD SWAP1 PUSH2 0x100 EXP SWAP1 DIV PUSH20 0xFFFFFFFFFFFFFFFFFFFFFFFFFFFFFFFFFFFFFFFF AND PUSH20 0xFFFFFFFFFFFFFFFFFFFFFFFFFFFFFFFFFFFFFFFF AND EQ PUSH2 0xA6E JUMPI PUSH1 0x40 MLOAD PUSH32 0x8C379A000000000000000000000000000000000000000000000000000000000 DUP2 MSTORE PUSH1 0x4 ADD PUSH2 0xA65 SWAP1 PUSH2 0x1EF3 JUMP JUMPDEST PUSH1 0x40 MLOAD DUP1 SWAP2 SUB SWAP1 REVERT JUMPDEST PUSH0 PUSH20 0xFFFFFFFFFFFFFFFFFFFFFFFFFFFFFFFFFFFFFFFF AND PUSH0 DUP1 SLOAD SWAP1 PUSH2 0x100 EXP SWAP1 DIV PUSH20 0xFFFFFFFFFFFFFFFFFFFFFFFFFFFFFFFFFFFFFFFF AND PUSH20 0xFFFFFFFFFFFFFFFFFFFFFFFFFFFFFFFFFFFFFFFF AND PUSH32 0x8BE0079C531659141344CD1FD0A4F28419497F9722A3DAAFE3B4186F6B6457E0 PUSH1 0x40 MLOAD PUSH1 0x40 MLOAD DUP1 SWAP2 SUB SWAP1 LOG3 PUSH0 DUP1 PUSH0 PUSH2 0x100 EXP DUP2 SLOAD DUP2 PUSH20 0xFFFFFFFFFFFFFFFFFFFFFFFFFFFFFFFFFFFFFFFF MUL NOT AND SWAP1 DUP4 PUSH20 0xFFFFFFFFFFFFFFFFFFFFFFFFFFFFFFFFFFFFFFFF AND MUL OR SWAP1 SSTORE POP JUMP JUMPDEST PUSH0 DUP1 PUSH0 SWAP1 SLOAD SWAP1 PUSH2 0x100 EXP SWAP1 DIV PUSH20 0xFFFFFFFFFFFFFFFFFFFFFFFFFFFFFFFFFFFFFFFF AND SWAP1 POP SWAP1 JUMP JUMPDEST PUSH0 PUSH1 0x3 DUP1 SLOAD SWAP1 POP SUB ISZERO PUSH2 0xC18 JUMPI PUSH1 0x1 PUSH1 0x3 DUP1 SLOAD SWAP1 POP PUSH2 0xB6E SWAP2 SWAP1 PUSH2 0x1F11 JUMP JUMPDEST PUSH1 0x4 SLOAD SUB PUSH2 0xB7E JUMPI PUSH0 PUSH1 0x4 DUP2 SWAP1 SSTORE POP JUMPDEST PUSH0 PUSH1 0x4 SLOAD SWAP1 POP JUMPDEST PUSH1 0x3 DUP1 SLOAD SWAP1 POP DUP2 LT ISZERO PUSH2 0xC16 JUMPI PUSH0 PUSH1 0x3 DUP3 DUP2 SLOAD DUP2 LT PUSH2 0xBA7 JUMPI PUSH2 0xBA6 PUSH2 0x1F44 JUMP JUMPDEST JUMPDEST SWAP1 PUSH0 MSTORE PUSH1 0x20 PUSH0 KECCAK256 ADD PUSH0 SWAP1 SLOAD SWAP1 PUSH2 0x100 EXP SWAP1 DIV PUSH20 0xFFFFFFFFFFFFFFFFFFFFFFFFFFFFFFFFFFFFFFFF AND SWAP1 POP PUSH0 PUSH2 0xBDB DUP3 PUSH2 0x159D JUMP JUMPDEST POP SWAP1 POP DUP3 PUSH1 0x4 DUP2 SWAP1 SSTORE POP PUSH0 DUP2 SUB PUSH2 0xBF3 JUMPI POP POP PUSH2 0xC03 JUMP JUMPDEST PUSH2 0xBFC DUP3 PUSH2 0x1735 JUMP JUMPDEST POP POP PUSH2 0xC16 JUMP JUMPDEST DUP1 DUP1 PUSH2 0xC0E SWAP1 PUSH2 0x1F71 JUMP JUMPDEST SWAP2 POP POP PUSH2 0xB85 JUMP JUMPDEST POP JUMPDEST JUMP JUMPDEST PUSH1 0x5 SLOAD DUP2 JUMP JUMPDEST PUSH1 0x2 PUSH0 SWAP1 SLOAD SWAP1 PUSH2 0x100 EXP SWAP1 DIV PUSH20 0xFFFFFFFFFFFFFFFFFFFFFFFFFFFFFFFFFFFFFFFF AND DUP2 JUMP JUMPDEST PUSH0 PUSH2 0xC4F CALLER PUSH2 0x159D JUMP JUMPDEST POP SWAP1 POP PUSH0 DUP2 GT ISZERO PUSH2 0xC64 JUMPI PUSH2 0xC63 CALLER PUSH2 0x1735 JUMP JUMPDEST JUMPDEST POP JUMP JUMPDEST PUSH0 DUP1 PUSH1 0xC PUSH0 DUP6 DUP2 MSTORE PUSH1 0x20 ADD SWAP1 DUP2 MSTORE PUSH1 0x20 ADD PUSH0 KECCAK256 SLOAD LT ISZERO DUP1 ISZERO PUSH2 0xD21 JUMPI POP PUSH1 0x8 PUSH0 SWAP1 SLOAD SWAP1 PUSH2 0x100 EXP SWAP1 DIV PUSH20 0xFFFFFFFFFFFFFFFFFFFFFFFFFFFFFFFFFFFFFFFF AND PUSH20 0xFFFFFFFFFFFFFFFFFFFFFFFFFFFFFFFFFFFFFFFF AND PUSH4 0x70A08231 DUP4 PUSH1 0x40 MLOAD DUP3 PUSH4 0xFFFFFFFF AND PUSH1 0xE0 SHL DUP2 MSTORE PUSH1 0x4 ADD PUSH2 0xCDE SWAP2 SWAP1 PUSH2 0x1C15 JUMP JUMPDEST PUSH1 0x20 PUSH1 0x40 MLOAD DUP1 DUP4 SUB DUP2 DUP7 GAS STATICCALL ISZERO DUP1 ISZERO PUSH2 0xCF9 JUMPI RETURNDATASIZE PUSH0 DUP1 RETURNDATACOPY RETURNDATASIZE PUSH0 REVERT JUMPDEST POP POP POP POP PUSH1 0x40 MLOAD RETURNDATASIZE PUSH1 0x1F NOT PUSH1 0x1F DUP3 ADD AND DUP3 ADD DUP1 PUSH1 0x40 MSTORE POP DUP2 ADD SWAP1 PUSH2 0xD1D SWAP2 SWAP1 PUSH2 0x1E7E JUMP JUMPDEST DUP5 GT ISZERO JUMPDEST DUP1 ISZERO PUSH2 0xD69 JUMPI POP PUSH0 PUSH1 0x9 PUSH0 DUP5 PUSH20 0xFFFFFFFFFFFFFFFFFFFFFFFFFFFFFFFFFFFFFFFF AND PUSH20 0xFFFFFFFFFFFFFFFFFFFFFFFFFFFFFFFFFFFFFFFF AND DUP2 MSTORE PUSH1 0x20 ADD SWAP1 DUP2 MSTORE PUSH1 0x20 ADD PUSH0 KECCAK256 SLOAD EQ JUMPDEST DUP1 ISZERO PUSH2 0xD74 JUMPI POP PUSH0 DUP5 GT JUMPDEST ISZERO PUSH2 0xD82 JUMPI PUSH1 0x1 SWAP1 POP PUSH2 0xD86 JUMP JUMPDEST PUSH0 SWAP1 POP JUMPDEST SWAP4 SWAP3 POP POP POP JUMP JUMPDEST PUSH0 PUSH1 0x5 SLOAD SWAP1 POP SWAP1 JUMP JUMPDEST PUSH2 0xD9E PUSH2 0x172E JUMP JUMPDEST PUSH20 0xFFFFFFFFFFFFFFFFFFFFFFFFFFFFFFFFFFFFFFFF AND PUSH0 DUP1 SLOAD SWAP1 PUSH2 0x100 EXP SWAP1 DIV PUSH20 0xFFFFFFFFFFFFFFFFFFFFFFFFFFFFFFFFFFFFFFFF AND PUSH20 0xFFFFFFFFFFFFFFFFFFFFFFFFFFFFFFFFFFFFFFFF AND EQ PUSH2 0xE2A JUMPI PUSH1 0x40 MLOAD PUSH32 0x8C379A000000000000000000000000000000000000000000000000000000000 DUP2 MSTORE PUSH1 0x4 ADD PUSH2 0xE21 SWAP1 PUSH2 0x1EF3 JUMP JUMPDEST PUSH1 0x40 MLOAD DUP1 SWAP2 SUB SWAP1 REVERT JUMPDEST DUP1 PUSH1 0xC PUSH0 DUP1 DUP2 MSTORE PUSH1 0x20 ADD SWAP1 DUP2 MSTORE PUSH1 0x20 ADD PUSH0 KECCAK256 DUP2 SWAP1 SSTORE POP POP JUMP JUMPDEST PUSH0 SWAP1 POP PUSH0 PUSH2 0xE52 DUP4 DUP4 CALLER PUSH2 0xC67 JUMP JUMPDEST SWAP1 POP DUP1 PUSH2 0xE94 JUMPI PUSH1 0x40 MLOAD PUSH32 0x8C379A000000000000000000000000000000000000000000000000000000000 DUP2 MSTORE PUSH1 0x4 ADD PUSH2 0xE8B SWAP1 PUSH2 0x2002 JUMP JUMPDEST PUSH1 0x40 MLOAD DUP1 SWAP2 SUB SWAP1 REVERT JUMPDEST PUSH1 0x8 PUSH0 SWAP1 SLOAD SWAP1 PUSH2 0x100 EXP SWAP1 DIV PUSH20 0xFFFFFFFFFFFFFFFFFFFFFFFFFFFFFFFFFFFFFFFF AND PUSH20 0xFFFFFFFFFFFFFFFFFFFFFFFFFFFFFFFFFFFFFFFF AND PUSH4 0x23B872DD CALLER ADDRESS DUP7 PUSH1 0x40 MLOAD DUP5 PUSH4 0xFFFFFFFF AND PUSH1 0xE0 SHL DUP2 MSTORE PUSH1 0x4 ADD PUSH2 0xEF2 SWAP4 SWAP3 SWAP2 SWAP1 PUSH2 0x2020 JUMP JUMPDEST PUSH1 0x20 PUSH1 0x40 MLOAD DUP1 DUP4 SUB DUP2 PUSH0 DUP8 GAS CALL ISZERO DUP1 ISZERO PUSH2 0xF0E JUMPI RETURNDATASIZE PUSH0 DUP1 RETURNDATACOPY RETURNDATASIZE PUSH0 REVERT JUMPDEST POP POP POP POP PUSH1 0x40 MLOAD RETURNDATASIZE PUSH1 0x1F NOT PUSH1 0x1F DUP3 ADD AND DUP3 ADD DUP1 PUSH1 0x40 MSTORE POP DUP2 ADD SWAP1 PUSH2 0xF32 SWAP2 SWAP1 PUSH2 0x1E3F JUMP JUMPDEST POP PUSH1 0x6 SLOAD DUP3 PUSH2 0xF41 SWAP2 SWAP1 PUSH2 0x2055 JUMP JUMPDEST SWAP2 POP PUSH2 0xF4E CALLER DUP5 DUP5 PUSH2 0x1926 JUMP JUMPDEST PUSH2 0xF63 DUP4 PUSH1 0x5 SLOAD PUSH2 0x1A65 SWAP1 SWAP2 SWAP1 PUSH4 0xFFFFFFFF AND JUMP JUMPDEST PUSH1 0x5 DUP2 SWAP1 SSTORE POP POP POP POP JUMP JUMPDEST PUSH2 0xF76 PUSH2 0x172E JUMP JUMPDEST PUSH20 0xFFFFFFFFFFFFFFFFFFFFFFFFFFFFFFFFFFFFFFFF AND PUSH0 DUP1 SLOAD SWAP1 PUSH2 0x100 EXP SWAP1 DIV PUSH20 0xFFFFFFFFFFFFFFFFFFFFFFFFFFFFFFFFFFFFFFFF AND PUSH20 0xFFFFFFFFFFFFFFFFFFFFFFFFFFFFFFFFFFFFFFFF AND EQ PUSH2 0x1002 JUMPI PUSH1 0x40 MLOAD PUSH32 0x8C379A000000000000000000000000000000000000000000000000000000000 DUP2 MSTORE PUSH1 0x4 ADD PUSH2 0xFF9 SWAP1 PUSH2 0x1EF3 JUMP JUMPDEST PUSH1 0x40 MLOAD DUP1 SWAP2 SUB SWAP1 REVERT JUMPDEST DUP1 PUSH1 0x8 PUSH0 PUSH2 0x100 EXP DUP2 SLOAD DUP2 PUSH20 0xFFFFFFFFFFFFFFFFFFFFFFFFFFFFFFFFFFFFFFFF MUL NOT AND SWAP1 DUP4 PUSH20 0xFFFFFFFFFFFFFFFFFFFFFFFFFFFFFFFFFFFFFFFF AND MUL OR SWAP1 SSTORE POP DUP1 PUSH1 0x2 PUSH0 PUSH2 0x100 EXP DUP2 SLOAD DUP2 PUSH20 0xFFFFFFFFFFFFFFFFFFFFFFFFFFFFFFFFFFFFFFFF MUL NOT AND SWAP1 DUP4 PUSH20 0xFFFFFFFFFFFFFFFFFFFFFFFFFFFFFFFFFFFFFFFF AND MUL OR SWAP1 SSTORE POP POP JUMP JUMPDEST PUSH0 DUP1 PUSH0 JUMPDEST PUSH1 0x3 DUP1 SLOAD SWAP1 POP DUP2 LT ISZERO PUSH2 0x1124 JUMPI PUSH1 0x3 DUP2 DUP2 SLOAD DUP2 LT PUSH2 0x10AA JUMPI PUSH2 0x10A9 PUSH2 0x1F44 JUMP JUMPDEST JUMPDEST SWAP1 PUSH0 MSTORE PUSH1 0x20 PUSH0 KECCAK256 ADD PUSH0 SWAP1 SLOAD SWAP1 PUSH2 0x100 EXP SWAP1 DIV PUSH20 0xFFFFFFFFFFFFFFFFFFFFFFFFFFFFFFFFFFFFFFFF AND PUSH20 0xFFFFFFFFFFFFFFFFFFFFFFFFFFFFFFFFFFFFFFFF AND DUP5 PUSH20 0xFFFFFFFFFFFFFFFFFFFFFFFFFFFFFFFFFFFFFFFF AND SUB PUSH2 0x1111 JUMPI PUSH1 0x1 DUP2 SWAP3 POP SWAP3 POP POP PUSH2 0x112C JUMP JUMPDEST DUP1 DUP1 PUSH2 0x111C SWAP1 PUSH2 0x1F71 JUMP JUMPDEST SWAP2 POP POP PUSH2 0x1089 JUMP JUMPDEST POP PUSH0 DUP1 SWAP2 POP SWAP2 POP JUMPDEST SWAP2 POP SWAP2 JUMP JUMPDEST PUSH2 0x1139 PUSH2 0x172E JUMP JUMPDEST PUSH20 0xFFFFFFFFFFFFFFFFFFFFFFFFFFFFFFFFFFFFFFFF AND PUSH0 DUP1 SLOAD SWAP1 PUSH2 0x100 EXP SWAP1 DIV PUSH20 0xFFFFFFFFFFFFFFFFFFFFFFFFFFFFFFFFFFFFFFFF AND PUSH20 0xFFFFFFFFFFFFFFFFFFFFFFFFFFFFFFFFFFFFFFFF AND EQ PUSH2 0x11C5 JUMPI PUSH1 0x40 MLOAD PUSH32 0x8C379A000000000000000000000000000000000000000000000000000000000 DUP2 MSTORE PUSH1 0x4 ADD PUSH2 0x11BC SWAP1 PUSH2 0x1EF3 JUMP JUMPDEST PUSH1 0x40 MLOAD DUP1 SWAP2 SUB SWAP1 REVERT JUMPDEST PUSH0 PUSH20 0xFFFFFFFFFFFFFFFFFFFFFFFFFFFFFFFFFFFFFFFF AND DUP2 PUSH20 0xFFFFFFFFFFFFFFFFFFFFFFFFFFFFFFFFFFFFFFFF AND SUB PUSH2 0x1233 JUMPI PUSH1 0x40 MLOAD PUSH32 0x8C379A000000000000000000000000000000000000000000000000000000000 DUP2 MSTORE PUSH1 0x4 ADD PUSH2 0x122A SWAP1 PUSH2 0x2106 JUMP JUMPDEST PUSH1 0x40 MLOAD DUP1 SWAP2 SUB SWAP1 REVERT JUMPDEST DUP1 PUSH20 0xFFFFFFFFFFFFFFFFFFFFFFFFFFFFFFFFFFFFFFFF AND PUSH0 DUP1 SLOAD SWAP1 PUSH2 0x100 EXP SWAP1 DIV PUSH20 0xFFFFFFFFFFFFFFFFFFFFFFFFFFFFFFFFFFFFFFFF AND PUSH20 0xFFFFFFFFFFFFFFFFFFFFFFFFFFFFFFFFFFFFFFFF AND PUSH32 0x8BE0079C531659141344CD1FD0A4F28419497F9722A3DAAFE3B4186F6B6457E0 PUSH1 0x40 MLOAD PUSH1 0x40 MLOAD DUP1 SWAP2 SUB SWAP1 LOG3 DUP1 PUSH0 DUP1 PUSH2 0x100 EXP DUP2 SLOAD DUP2 PUSH20 0xFFFFFFFFFFFFFFFFFFFFFFFFFFFFFFFFFFFFFFFF MUL NOT AND SWAP1 DUP4 PUSH20 0xFFFFFFFFFFFFFFFFFFFFFFFFFFFFFFFFFFFFFFFF AND MUL OR SWAP1 SSTORE POP POP JUMP JUMPDEST PUSH0 DUP3 DUP3 GT ISZERO PUSH2 0x1332 JUMPI PUSH1 0x40 MLOAD PUSH32 0x8C379A000000000000000000000000000000000000000000000000000000000 DUP2 MSTORE PUSH1 0x4 ADD PUSH2 0x1329 SWAP1 PUSH2 0x216E JUMP JUMPDEST PUSH1 0x40 MLOAD DUP1 SWAP2 SUB SWAP1 REVERT JUMPDEST DUP2 DUP4 PUSH2 0x133E SWAP2 SWAP1 PUSH2 0x1F11 JUMP JUMPDEST SWAP1 POP SWAP3 SWAP2 POP POP JUMP JUMPDEST PUSH0 DUP1 PUSH2 0x1351 DUP4 PUSH2 0x1085 JUMP JUMPDEST SWAP2 POP SWAP2 POP DUP2 ISZERO PUSH2 0x14CA JUMPI PUSH1 0x3 PUSH1 0x1 PUSH1 0x3 DUP1 SLOAD SWAP1 POP PUSH2 0x136F SWAP2 SWAP1 PUSH2 0x1F11 JUMP JUMPDEST DUP2 SLOAD DUP2 LT PUSH2 0x1380 JUMPI PUSH2 0x137F PUSH2 0x1F44 JUMP JUMPDEST JUMPDEST SWAP1 PUSH0 MSTORE PUSH1 0x20 PUSH0 KECCAK256 ADD PUSH0 SWAP1 SLOAD SWAP1 PUSH2 0x100 EXP SWAP1 DIV PUSH20 0xFFFFFFFFFFFFFFFFFFFFFFFFFFFFFFFFFFFFFFFF AND PUSH1 0x3 DUP3 DUP2 SLOAD DUP2 LT PUSH2 0x13BC JUMPI PUSH2 0x13BB PUSH2 0x1F44 JUMP JUMPDEST JUMPDEST SWAP1 PUSH0 MSTORE PUSH1 0x20 PUSH0 KECCAK256 ADD PUSH0 PUSH2 0x100 EXP DUP2 SLOAD DUP2 PUSH20 0xFFFFFFFFFFFFFFFFFFFFFFFFFFFFFFFFFFFFFFFF MUL NOT AND SWAP1 DUP4 PUSH20 0xFFFFFFFFFFFFFFFFFFFFFFFFFFFFFFFFFFFFFFFF AND MUL OR SWAP1 SSTORE POP PUSH1 0x3 DUP1 SLOAD DUP1 PUSH2 0x1413 JUMPI PUSH2 0x1412 PUSH2 0x218C JUMP JUMPDEST JUMPDEST PUSH1 0x1 SWAP1 SUB DUP2 DUP2 SWAP1 PUSH0 MSTORE PUSH1 0x20 PUSH0 KECCAK256 ADD PUSH0 PUSH2 0x100 EXP DUP2 SLOAD SWAP1 PUSH20 0xFFFFFFFFFFFFFFFFFFFFFFFFFFFFFFFFFFFFFFFF MUL NOT AND SWAP1 SSTORE SWAP1 SSTORE PUSH0 PUSH1 0xA PUSH0 DUP6 PUSH20 0xFFFFFFFFFFFFFFFFFFFFFFFFFFFFFFFFFFFFFFFF AND PUSH20 0xFFFFFFFFFFFFFFFFFFFFFFFFFFFFFFFFFFFFFFFF AND DUP2 MSTORE PUSH1 0x20 ADD SWAP1 DUP2 MSTORE PUSH1 0x20 ADD PUSH0 KECCAK256 DUP2 SWAP1 SSTORE POP PUSH0 PUSH1 0xB PUSH0 DUP6 PUSH20 0xFFFFFFFFFFFFFFFFFFFFFFFFFFFFFFFFFFFFFFFF AND PUSH20 0xFFFFFFFFFFFFFFFFFFFFFFFFFFFFFFFFFFFFFFFF AND DUP2 MSTORE PUSH1 0x20 ADD SWAP1 DUP2 MSTORE PUSH1 0x20 ADD PUSH0 KECCAK256 DUP2 SWAP1 SSTORE POP JUMPDEST POP POP POP JUMP JUMPDEST PUSH0 DUP1 DUP4 SUB PUSH2 0x14DF JUMPI PUSH0 SWAP1 POP PUSH2 0x1540 JUMP JUMPDEST PUSH0 DUP3 DUP5 PUSH2 0x14EC SWAP2 SWAP1 PUSH2 0x2055 JUMP JUMPDEST SWAP1 POP DUP3 DUP5 DUP3 PUSH2 0x14FB SWAP2 SWAP1 PUSH2 0x21E6 JUMP JUMPDEST EQ PUSH2 0x153B JUMPI PUSH1 0x40 MLOAD PUSH32 0x8C379A000000000000000000000000000000000000000000000000000000000 DUP2 MSTORE PUSH1 0x4 ADD PUSH2 0x1532 SWAP1 PUSH2 0x2286 JUMP JUMPDEST PUSH1 0x40 MLOAD DUP1 SWAP2 SUB SWAP1 REVERT JUMPDEST DUP1 SWAP2 POP POP JUMPDEST SWAP3 SWAP2 POP POP JUMP JUMPDEST PUSH0 DUP1 DUP3 GT PUSH2 0x1589 JUMPI PUSH1 0x40 MLOAD PUSH32 0x8C379A000000000000000000000000000000000000000000000000000000000 DUP2 MSTORE PUSH1 0x4 ADD PUSH2 0x1580 SWAP1 PUSH2 0x22EE JUMP JUMPDEST PUSH1 0x40 MLOAD DUP1 SWAP2 SUB SWAP1 REVERT JUMPDEST DUP2 DUP4 PUSH2 0x1595 SWAP2 SWAP1 PUSH2 0x21E6 JUMP JUMPDEST SWAP1 POP SWAP3 SWAP2 POP POP JUMP JUMPDEST PUSH0 DUP1 PUSH0 PUSH1 0x9 PUSH0 DUP6 PUSH20 0xFFFFFFFFFFFFFFFFFFFFFFFFFFFFFFFFFFFFFFFF AND PUSH20 0xFFFFFFFFFFFFFFFFFFFFFFFFFFFFFFFFFFFFFFFF AND DUP2 MSTORE PUSH1 0x20 ADD SWAP1 DUP2 MSTORE PUSH1 0x20 ADD PUSH0 KECCAK256 SLOAD SWAP1 POP PUSH0 DUP2 SUB PUSH2 0x15F3 JUMPI PUSH0 DUP1 SWAP3 POP SWAP3 POP POP PUSH2 0x1729 JUMP JUMPDEST PUSH0 PUSH1 0xA PUSH0 DUP7 PUSH20 0xFFFFFFFFFFFFFFFFFFFFFFFFFFFFFFFFFFFFFFFF AND PUSH20 0xFFFFFFFFFFFFFFFFFFFFFFFFFFFFFFFFFFFFFFFF AND DUP2 MSTORE PUSH1 0x20 ADD SWAP1 DUP2 MSTORE PUSH1 0x20 ADD PUSH0 KECCAK256 SLOAD SWAP1 POP PUSH0 DUP2 SUB PUSH2 0x1648 JUMPI PUSH0 DUP1 SWAP4 POP SWAP4 POP POP POP PUSH2 0x1729 JUMP JUMPDEST PUSH0 TIMESTAMP SWAP1 POP PUSH0 PUSH2 0x1660 DUP4 DUP4 PUSH2 0x12EE SWAP1 SWAP2 SWAP1 PUSH4 0xFFFFFFFF AND JUMP JUMPDEST SWAP1 POP PUSH0 PUSH1 0xB PUSH0 DUP10 PUSH20 0xFFFFFFFFFFFFFFFFFFFFFFFFFFFFFFFFFFFFFFFF AND PUSH20 0xFFFFFFFFFFFFFFFFFFFFFFFFFFFFFFFFFFFFFFFF AND DUP2 MSTORE PUSH1 0x20 ADD SWAP1 DUP2 MSTORE PUSH1 0x20 ADD PUSH0 KECCAK256 SLOAD SWAP1 POP DUP1 DUP3 LT ISZERO PUSH2 0x16BB JUMPI PUSH0 DUP1 SWAP7 POP SWAP7 POP POP POP POP POP POP PUSH2 0x1729 JUMP JUMPDEST PUSH0 DUP2 DUP4 PUSH2 0x16C8 SWAP2 SWAP1 PUSH2 0x21E6 JUMP JUMPDEST SWAP1 POP PUSH0 PUSH1 0xC PUSH0 DUP5 DUP2 MSTORE PUSH1 0x20 ADD SWAP1 DUP2 MSTORE PUSH1 0x20 ADD PUSH0 KECCAK256 SLOAD SWAP1 POP PUSH0 PUSH2 0x1718 PUSH1 0x64 PUSH2 0x170A DUP6 PUSH2 0x16FC DUP7 DUP14 PUSH2 0x14CF SWAP1 SWAP2 SWAP1 PUSH4 0xFFFFFFFF AND JUMP JUMPDEST PUSH2 0x14CF SWAP1 SWAP2 SWAP1 PUSH4 0xFFFFFFFF AND JUMP JUMPDEST PUSH2 0x1546 SWAP1 SWAP2 SWAP1 PUSH4 0xFFFFFFFF AND JUMP JUMPDEST SWAP1 POP DUP1 DUP4 SWAP10 POP SWAP10 POP POP POP POP POP POP POP POP POP JUMPDEST SWAP2 POP SWAP2 JUMP JUMPDEST PUSH0 CALLER SWAP1 POP SWAP1 JUMP JUMPDEST PUSH0 DUP1 PUSH2 0x1740 DUP4 PUSH2 0x159D JUMP JUMPDEST SWAP2 POP SWAP2 POP PUSH0 DUP3 SUB PUSH2 0x1752 JUMPI POP POP PUSH2 0x1923 JUMP JUMPDEST PUSH0 PUSH1 0xB PUSH0 DUP6 PUSH20 0xFFFFFFFFFFFFFFFFFFFFFFFFFFFFFFFFFFFFFFFF AND PUSH20 0xFFFFFFFFFFFFFFFFFFFFFFFFFFFFFFFFFFFFFFFF AND DUP2 MSTORE PUSH1 0x20 ADD SWAP1 DUP2 MSTORE PUSH1 0x20 ADD PUSH0 KECCAK256 SLOAD SWAP1 POP PUSH2 0x17EE DUP3 DUP3 PUSH2 0x17A2 SWAP2 SWAP1 PUSH2 0x2055 JUMP JUMPDEST PUSH1 0xA PUSH0 DUP8 PUSH20 0xFFFFFFFFFFFFFFFFFFFFFFFFFFFFFFFFFFFFFFFF AND PUSH20 0xFFFFFFFFFFFFFFFFFFFFFFFFFFFFFFFFFFFFFFFF AND DUP2 MSTORE PUSH1 0x20 ADD SWAP1 DUP2 MSTORE PUSH1 0x20 ADD PUSH0 KECCAK256 SLOAD PUSH2 0x1A65 SWAP1 SWAP2 SWAP1 PUSH4 0xFFFFFFFF AND JUMP JUMPDEST PUSH1 0xA PUSH0 DUP7 PUSH20 0xFFFFFFFFFFFFFFFFFFFFFFFFFFFFFFFFFFFFFFFF AND PUSH20 0xFFFFFFFFFFFFFFFFFFFFFFFFFFFFFFFFFFFFFFFF AND DUP2 MSTORE PUSH1 0x20 ADD SWAP1 DUP2 MSTORE PUSH1 0x20 ADD PUSH0 KECCAK256 DUP2 SWAP1 SSTORE POP PUSH1 0x8 PUSH0 SWAP1 SLOAD SWAP1 PUSH2 0x100 EXP SWAP1 DIV PUSH20 0xFFFFFFFFFFFFFFFFFFFFFFFFFFFFFFFFFFFFFFFF AND PUSH20 0xFFFFFFFFFFFFFFFFFFFFFFFFFFFFFFFFFFFFFFFF AND PUSH4 0xA9059CBB CALLER DUP6 PUSH1 0x40 MLOAD DUP4 PUSH4 0xFFFFFFFF AND PUSH1 0xE0 SHL DUP2 MSTORE PUSH1 0x4 ADD PUSH2 0x188B SWAP3 SWAP2 SWAP1 PUSH2 0x1DEE JUMP JUMPDEST PUSH1 0x20 PUSH1 0x40 MLOAD DUP1 DUP4 SUB DUP2 PUSH0 DUP8 GAS CALL ISZERO DUP1 ISZERO PUSH2 0x18A7 JUMPI RETURNDATASIZE PUSH0 DUP1 RETURNDATACOPY RETURNDATASIZE PUSH0 REVERT JUMPDEST POP POP POP POP PUSH1 0x40 MLOAD RETURNDATASIZE PUSH1 0x1F NOT PUSH1 0x1F DUP3 ADD AND DUP3 ADD DUP1 PUSH1 0x40 MSTORE POP DUP2 ADD SWAP1 PUSH2 0x18CB SWAP2 SWAP1 PUSH2 0x1E3F JUMP JUMPDEST POP DUP3 PUSH1 0x7 PUSH0 DUP3 DUP3 SLOAD PUSH2 0x18DD SWAP2 SWAP1 PUSH2 0x1DBB JUMP JUMPDEST SWAP3 POP POP DUP2 SWAP1 SSTORE POP PUSH32 0x6379339F0AE63E95E65FAD18CA2A7EC4E7E3F05F3CC5F7079F4D8DA8CEC34FAA DUP5 DUP5 TIMESTAMP PUSH1 0x40 MLOAD PUSH2 0x1917 SWAP4 SWAP3 SWAP2 SWAP1 PUSH2 0x230C JUMP JUMPDEST PUSH1 0x40 MLOAD DUP1 SWAP2 SUB SWAP1 LOG1 POP POP POP JUMPDEST POP JUMP JUMPDEST PUSH0 PUSH2 0x1930 DUP5 PUSH2 0x1085 JUMP JUMPDEST POP SWAP1 POP DUP1 PUSH2 0x1999 JUMPI PUSH1 0x3 DUP5 SWAP1 DUP1 PUSH1 0x1 DUP2 SLOAD ADD DUP1 DUP3 SSTORE DUP1 SWAP2 POP POP PUSH1 0x1 SWAP1 SUB SWAP1 PUSH0 MSTORE PUSH1 0x20 PUSH0 KECCAK256 ADD PUSH0 SWAP1 SWAP2 SWAP1 SWAP2 SWAP1 SWAP2 PUSH2 0x100 EXP DUP2 SLOAD DUP2 PUSH20 0xFFFFFFFFFFFFFFFFFFFFFFFFFFFFFFFFFFFFFFFF MUL NOT AND SWAP1 DUP4 PUSH20 0xFFFFFFFFFFFFFFFFFFFFFFFFFFFFFFFFFFFFFFFF AND MUL OR SWAP1 SSTORE POP JUMPDEST TIMESTAMP PUSH1 0xA PUSH0 DUP7 PUSH20 0xFFFFFFFFFFFFFFFFFFFFFFFFFFFFFFFFFFFFFFFF AND PUSH20 0xFFFFFFFFFFFFFFFFFFFFFFFFFFFFFFFFFFFFFFFF AND DUP2 MSTORE PUSH1 0x20 ADD SWAP1 DUP2 MSTORE PUSH1 0x20 ADD PUSH0 KECCAK256 DUP2 SWAP1 SSTORE POP DUP2 PUSH1 0xB PUSH0 DUP7 PUSH20 0xFFFFFFFFFFFFFFFFFFFFFFFFFFFFFFFFFFFFFFFF AND PUSH20 0xFFFFFFFFFFFFFFFFFFFFFFFFFFFFFFFFFFFFFFFF AND DUP2 MSTORE PUSH1 0x20 ADD SWAP1 DUP2 MSTORE PUSH1 0x20 ADD PUSH0 KECCAK256 DUP2 SWAP1 SSTORE POP DUP3 PUSH1 0x9 PUSH0 DUP7 PUSH20 0xFFFFFFFFFFFFFFFFFFFFFFFFFFFFFFFFFFFFFFFF AND PUSH20 0xFFFFFFFFFFFFFFFFFFFFFFFFFFFFFFFFFFFFFFFF AND DUP2 MSTORE PUSH1 0x20 ADD SWAP1 DUP2 MSTORE PUSH1 0x20 ADD PUSH0 KECCAK256 DUP2 SWAP1 SSTORE POP POP POP POP POP JUMP JUMPDEST PUSH0 DUP1 DUP3 DUP5 PUSH2 0x1A73 SWAP2 SWAP1 PUSH2 0x1DBB JUMP JUMPDEST SWAP1 POP DUP4 DUP2 LT ISZERO PUSH2 0x1AB8 JUMPI PUSH1 0x40 MLOAD PUSH32 0x8C379A000000000000000000000000000000000000000000000000000000000 DUP2 MSTORE PUSH1 0x4 ADD PUSH2 0x1AAF SWAP1 PUSH2 0x238B JUMP JUMPDEST PUSH1 0x40 MLOAD DUP1 SWAP2 SUB SWAP1 REVERT JUMPDEST DUP1 SWAP2 POP POP SWAP3 SWAP2 POP POP JUMP JUMPDEST PUSH0 DUP1 REVERT JUMPDEST PUSH0 DUP2 SWAP1 POP SWAP2 SWAP1 POP JUMP JUMPDEST PUSH2 0x1AD8 DUP2 PUSH2 0x1AC6 JUMP JUMPDEST DUP2 EQ PUSH2 0x1AE2 JUMPI PUSH0 DUP1 REVERT JUMPDEST POP JUMP JUMPDEST PUSH0 DUP2 CALLDATALOAD SWAP1 POP PUSH2 0x1AF3 DUP2 PUSH2 0x1ACF JUMP JUMPDEST SWAP3 SWAP2 POP POP JUMP JUMPDEST PUSH0 PUSH1 0x20 DUP3 DUP5 SUB SLT ISZERO PUSH2 0x1B0E JUMPI PUSH2 0x1B0D PUSH2 0x1AC2 JUMP JUMPDEST JUMPDEST PUSH0 PUSH2 0x1B1B DUP5 DUP3 DUP6 ADD PUSH2 0x1AE5 JUMP JUMPDEST SWAP2 POP POP SWAP3 SWAP2 POP POP JUMP JUMPDEST PUSH2 0x1B2D DUP2 PUSH2 0x1AC6 JUMP JUMPDEST DUP3 MSTORE POP POP JUMP JUMPDEST PUSH0 PUSH1 0x20 DUP3 ADD SWAP1 POP PUSH2 0x1B46 PUSH0 DUP4 ADD DUP5 PUSH2 0x1B24 JUMP JUMPDEST SWAP3 SWAP2 POP POP JUMP JUMPDEST PUSH0 PUSH1 0x60 DUP3 ADD SWAP1 POP PUSH2 0x1B5F PUSH0 DUP4 ADD DUP7 PUSH2 0x1B24 JUMP JUMPDEST PUSH2 0x1B6C PUSH1 0x20 DUP4 ADD DUP6 PUSH2 0x1B24 JUMP JUMPDEST PUSH2 0x1B79 PUSH1 0x40 DUP4 ADD DUP5 PUSH2 0x1B24 JUMP JUMPDEST SWAP5 SWAP4 POP POP POP POP JUMP JUMPDEST PUSH0 PUSH20 0xFFFFFFFFFFFFFFFFFFFFFFFFFFFFFFFFFFFFFFFF DUP3 AND SWAP1 POP SWAP2 SWAP1 POP JUMP JUMPDEST PUSH0 PUSH2 0x1BAA DUP3 PUSH2 0x1B81 JUMP JUMPDEST SWAP1 POP SWAP2 SWAP1 POP JUMP JUMPDEST PUSH2 0x1BBA DUP2 PUSH2 0x1BA0 JUMP JUMPDEST DUP2 EQ PUSH2 0x1BC4 JUMPI PUSH0 DUP1 REVERT JUMPDEST POP JUMP JUMPDEST PUSH0 DUP2 CALLDATALOAD SWAP1 POP PUSH2 0x1BD5 DUP2 PUSH2 0x1BB1 JUMP JUMPDEST SWAP3 SWAP2 POP POP JUMP JUMPDEST PUSH0 PUSH1 0x20 DUP3 DUP5 SUB SLT ISZERO PUSH2 0x1BF0 JUMPI PUSH2 0x1BEF PUSH2 0x1AC2 JUMP JUMPDEST JUMPDEST PUSH0 PUSH2 0x1BFD DUP5 DUP3 DUP6 ADD PUSH2 0x1BC7 JUMP JUMPDEST SWAP2 POP POP SWAP3 SWAP2 POP POP JUMP JUMPDEST PUSH2 0x1C0F DUP2 PUSH2 0x1BA0 JUMP JUMPDEST DUP3 MSTORE POP POP JUMP JUMPDEST PUSH0 PUSH1 0x20 DUP3 ADD SWAP1 POP PUSH2 0x1C28 PUSH0 DUP4 ADD DUP5 PUSH2 0x1C06 JUMP JUMPDEST SWAP3 SWAP2 POP POP JUMP JUMPDEST PUSH0 DUP1 PUSH0 PUSH1 0x60 DUP5 DUP7 SUB SLT ISZERO PUSH2 0x1C45 JUMPI PUSH2 0x1C44 PUSH2 0x1AC2 JUMP JUMPDEST JUMPDEST PUSH0 PUSH2 0x1C52 DUP7 DUP3 DUP8 ADD PUSH2 0x1AE5 JUMP JUMPDEST SWAP4 POP POP PUSH1 0x20 PUSH2 0x1C63 DUP7 DUP3 DUP8 ADD PUSH2 0x1AE5 JUMP JUMPDEST SWAP3 POP POP PUSH1 0x40 PUSH2 0x1C74 DUP7 DUP3 DUP8 ADD PUSH2 0x1BC7 JUMP JUMPDEST SWAP2 POP POP SWAP3 POP SWAP3 POP SWAP3 JUMP JUMPDEST PUSH0 DUP2 ISZERO ISZERO SWAP1 POP SWAP2 SWAP1 POP JUMP JUMPDEST PUSH2 0x1C92 DUP2 PUSH2 0x1C7E JUMP JUMPDEST DUP3 MSTORE POP POP JUMP JUMPDEST PUSH0 PUSH1 0x20 DUP3 ADD SWAP1 POP PUSH2 0x1CAB PUSH0 DUP4 ADD DUP5 PUSH2 0x1C89 JUMP JUMPDEST SWAP3 SWAP2 POP POP JUMP JUMPDEST PUSH0 DUP1 PUSH1 0x40 DUP4 DUP6 SUB SLT ISZERO PUSH2 0x1CC7 JUMPI PUSH2 0x1CC6 PUSH2 0x1AC2 JUMP JUMPDEST JUMPDEST PUSH0 PUSH2 0x1CD4 DUP6 DUP3 DUP7 ADD PUSH2 0x1AE5 JUMP JUMPDEST SWAP3 POP POP PUSH1 0x20 PUSH2 0x1CE5 DUP6 DUP3 DUP7 ADD PUSH2 0x1AE5 JUMP JUMPDEST SWAP2 POP POP SWAP3 POP SWAP3 SWAP1 POP JUMP JUMPDEST PUSH0 PUSH1 0x40 DUP3 ADD SWAP1 POP PUSH2 0x1D02 PUSH0 DUP4 ADD DUP6 PUSH2 0x1C89 JUMP JUMPDEST PUSH2 0x1D0F PUSH1 0x20 DUP4 ADD DUP5 PUSH2 0x1B24 JUMP JUMPDEST SWAP4 SWAP3 POP POP POP JUMP JUMPDEST PUSH0 DUP3 DUP3 MSTORE PUSH1 0x20 DUP3 ADD SWAP1 POP SWAP3 SWAP2 POP POP JUMP JUMPDEST PUSH32 0x457863656564696E67207374616B6520616D6F756E7400000000000000000000 PUSH0 DUP3 ADD MSTORE POP JUMP JUMPDEST PUSH0 PUSH2 0x1D5A PUSH1 0x16 DUP4 PUSH2 0x1D16 JUMP JUMPDEST SWAP2 POP PUSH2 0x1D65 DUP3 PUSH2 0x1D26 JUMP JUMPDEST PUSH1 0x20 DUP3 ADD SWAP1 POP SWAP2 SWAP1 POP JUMP JUMPDEST PUSH0 PUSH1 0x20 DUP3 ADD SWAP1 POP DUP2 DUP2 SUB PUSH0 DUP4 ADD MSTORE PUSH2 0x1D87 DUP2 PUSH2 0x1D4E JUMP JUMPDEST SWAP1 POP SWAP2 SWAP1 POP JUMP JUMPDEST PUSH32 0x4E487B7100000000000000000000000000000000000000000000000000000000 PUSH0 MSTORE PUSH1 0x11 PUSH1 0x4 MSTORE PUSH1 0x24 PUSH0 REVERT JUMPDEST PUSH0 PUSH2 0x1DC5 DUP3 PUSH2 0x1AC6 JUMP JUMPDEST SWAP2 POP PUSH2 0x1DD0 DUP4 PUSH2 0x1AC6 JUMP JUMPDEST SWAP3 POP DUP3 DUP3 ADD SWAP1 POP DUP1 DUP3 GT ISZERO PUSH2 0x1DE8 JUMPI PUSH2 0x1DE7 PUSH2 0x1D8E JUMP JUMPDEST JUMPDEST SWAP3 SWAP2 POP POP JUMP JUMPDEST PUSH0 PUSH1 0x40 DUP3 ADD SWAP1 POP PUSH2 0x1E01 PUSH0 DUP4 ADD DUP6 PUSH2 0x1C06 JUMP JUMPDEST PUSH2 0x1E0E PUSH1 0x20 DUP4 ADD DUP5 PUSH2 0x1B24 JUMP JUMPDEST SWAP4 SWAP3 POP POP POP JUMP JUMPDEST PUSH2 0x1E1E DUP2 PUSH2 0x1C7E JUMP JUMPDEST DUP2 EQ PUSH2 0x1E28 JUMPI PUSH0 DUP1 REVERT JUMPDEST POP JUMP JUMPDEST PUSH0 DUP2 MLOAD SWAP1 POP PUSH2 0x1E39 DUP2 PUSH2 0x1E15 JUMP JUMPDEST SWAP3 SWAP2 POP POP JUMP JUMPDEST PUSH0 PUSH1 0x20 DUP3 DUP5 SUB SLT ISZERO PUSH2 0x1E54 JUMPI PUSH2 0x1E53 PUSH2 0x1AC2 JUMP JUMPDEST JUMPDEST PUSH0 PUSH2 0x1E61 DUP5 DUP3 DUP6 ADD PUSH2 0x1E2B JUMP JUMPDEST SWAP2 POP POP SWAP3 SWAP2 POP POP JUMP JUMPDEST PUSH0 DUP2 MLOAD SWAP1 POP PUSH2 0x1E78 DUP2 PUSH2 0x1ACF JUMP JUMPDEST SWAP3 SWAP2 POP POP JUMP JUMPDEST PUSH0 PUSH1 0x20 DUP3 DUP5 SUB SLT ISZERO PUSH2 0x1E93 JUMPI PUSH2 0x1E92 PUSH2 0x1AC2 JUMP JUMPDEST JUMPDEST PUSH0 PUSH2 0x1EA0 DUP5 DUP3 DUP6 ADD PUSH2 0x1E6A JUMP JUMPDEST SWAP2 POP POP SWAP3 SWAP2 POP POP JUMP JUMPDEST PUSH32 0x4F776E61626C653A2063616C6C6572206973206E6F7420746865206F776E6572 PUSH0 DUP3 ADD MSTORE POP JUMP JUMPDEST PUSH0 PUSH2 0x1EDD PUSH1 0x20 DUP4 PUSH2 0x1D16 JUMP JUMPDEST SWAP2 POP PUSH2 0x1EE8 DUP3 PUSH2 0x1EA9 JUMP JUMPDEST PUSH1 0x20 DUP3 ADD SWAP1 POP SWAP2 SWAP1 POP JUMP JUMPDEST PUSH0 PUSH1 0x20 DUP3 ADD SWAP1 POP DUP2 DUP2 SUB PUSH0 DUP4 ADD MSTORE PUSH2 0x1F0A DUP2 PUSH2 0x1ED1 JUMP JUMPDEST SWAP1 POP SWAP2 SWAP1 POP JUMP JUMPDEST PUSH0 PUSH2 0x1F1B DUP3 PUSH2 0x1AC6 JUMP JUMPDEST SWAP2 POP PUSH2 0x1F26 DUP4 PUSH2 0x1AC6 JUMP JUMPDEST SWAP3 POP DUP3 DUP3 SUB SWAP1 POP DUP2 DUP2 GT ISZERO PUSH2 0x1F3E JUMPI PUSH2 0x1F3D PUSH2 0x1D8E JUMP JUMPDEST JUMPDEST SWAP3 SWAP2 POP POP JUMP JUMPDEST PUSH32 0x4E487B7100000000000000000000000000000000000000000000000000000000 PUSH0 MSTORE PUSH1 0x32 PUSH1 0x4 MSTORE PUSH1 0x24 PUSH0 REVERT JUMPDEST PUSH0 PUSH2 0x1F7B DUP3 PUSH2 0x1AC6 JUMP JUMPDEST SWAP2 POP PUSH32 0xFFFFFFFFFFFFFFFFFFFFFFFFFFFFFFFFFFFFFFFFFFFFFFFFFFFFFFFFFFFFFFFF DUP3 SUB PUSH2 0x1FAD JUMPI PUSH2 0x1FAC PUSH2 0x1D8E JUMP JUMPDEST JUMPDEST PUSH1 0x1 DUP3 ADD SWAP1 POP SWAP2 SWAP1 POP JUMP JUMPDEST PUSH32 0x43616E6E6F74205374616B650000000000000000000000000000000000000000 PUSH0 DUP3 ADD MSTORE POP JUMP JUMPDEST PUSH0 PUSH2 0x1FEC PUSH1 0xC DUP4 PUSH2 0x1D16 JUMP JUMPDEST SWAP2 POP PUSH2 0x1FF7 DUP3 PUSH2 0x1FB8 JUMP JUMPDEST PUSH1 0x20 DUP3 ADD SWAP1 POP SWAP2 SWAP1 POP JUMP JUMPDEST PUSH0 PUSH1 0x20 DUP3 ADD SWAP1 POP DUP2 DUP2 SUB PUSH0 DUP4 ADD MSTORE PUSH2 0x2019 DUP2 PUSH2 0x1FE0 JUMP JUMPDEST SWAP1 POP SWAP2 SWAP1 POP JUMP JUMPDEST PUSH0 PUSH1 0x60 DUP3 ADD SWAP1 POP PUSH2 0x2033 PUSH0 DUP4 ADD DUP7 PUSH2 0x1C06 JUMP JUMPDEST PUSH2 0x2040 PUSH1 0x20 DUP4 ADD DUP6 PUSH2 0x1C06 JUMP JUMPDEST PUSH2 0x204D PUSH1 0x40 DUP4 ADD DUP5 PUSH2 0x1B24 JUMP JUMPDEST SWAP5 SWAP4 POP POP POP POP JUMP JUMPDEST PUSH0 PUSH2 0x205F DUP3 PUSH2 0x1AC6 JUMP JUMPDEST SWAP2 POP PUSH2 0x206A DUP4 PUSH2 0x1AC6 JUMP JUMPDEST SWAP3 POP DUP3 DUP3 MUL PUSH2 0x2078 DUP2 PUSH2 0x1AC6 JUMP JUMPDEST SWAP2 POP DUP3 DUP3 DIV DUP5 EQ DUP4 ISZERO OR PUSH2 0x208F JUMPI PUSH2 0x208E PUSH2 0x1D8E JUMP JUMPDEST JUMPDEST POP SWAP3 SWAP2 POP POP JUMP JUMPDEST PUSH32 0x4F776E61626C653A206E6577206F776E657220697320746865207A65726F2061 PUSH0 DUP3 ADD MSTORE PUSH32 0x6464726573730000000000000000000000000000000000000000000000000000 PUSH1 0x20 DUP3 ADD MSTORE POP JUMP JUMPDEST PUSH0 PUSH2 0x20F0 PUSH1 0x26 DUP4 PUSH2 0x1D16 JUMP JUMPDEST SWAP2 POP PUSH2 0x20FB DUP3 PUSH2 0x2096 JUMP JUMPDEST PUSH1 0x40 DUP3 ADD SWAP1 POP SWAP2 SWAP1 POP JUMP JUMPDEST PUSH0 PUSH1 0x20 DUP3 ADD SWAP1 POP DUP2 DUP2 SUB PUSH0 DUP4 ADD MSTORE PUSH2 0x211D DUP2 PUSH2 0x20E4 JUMP JUMPDEST SWAP1 POP SWAP2 SWAP1 POP JUMP JUMPDEST PUSH32 0x536166654D6174683A207375627472616374696F6E206F766572666C6F770000 PUSH0 DUP3 ADD MSTORE POP JUMP JUMPDEST PUSH0 PUSH2 0x2158 PUSH1 0x1E DUP4 PUSH2 0x1D16 JUMP JUMPDEST SWAP2 POP PUSH2 0x2163 DUP3 PUSH2 0x2124 JUMP JUMPDEST PUSH1 0x20 DUP3 ADD SWAP1 POP SWAP2 SWAP1 POP JUMP JUMPDEST PUSH0 PUSH1 0x20 DUP3 ADD SWAP1 POP DUP2 DUP2 SUB PUSH0 DUP4 ADD MSTORE PUSH2 0x2185 DUP2 PUSH2 0x214C JUMP JUMPDEST SWAP1 POP SWAP2 SWAP1 POP JUMP JUMPDEST PUSH32 0x4E487B7100000000000000000000000000000000000000000000000000000000 PUSH0 MSTORE PUSH1 0x31 PUSH1 0x4 MSTORE PUSH1 0x24 PUSH0 REVERT JUMPDEST PUSH32 0x4E487B7100000000000000000000000000000000000000000000000000000000 PUSH0 MSTORE PUSH1 0x12 PUSH1 0x4 MSTORE PUSH1 0x24 PUSH0 REVERT JUMPDEST PUSH0 PUSH2 0x21F0 DUP3 PUSH2 0x1AC6 JUMP JUMPDEST SWAP2 POP PUSH2 0x21FB DUP4 PUSH2 0x1AC6 JUMP JUMPDEST SWAP3 POP DUP3 PUSH2 0x220B JUMPI PUSH2 0x220A PUSH2 0x21B9 JUMP JUMPDEST JUMPDEST DUP3 DUP3 DIV SWAP1 POP SWAP3 SWAP2 POP POP JUMP JUMPDEST PUSH32 0x536166654D6174683A206D756C7469706C69636174696F6E206F766572666C6F PUSH0 DUP3 ADD MSTORE PUSH32 0x7700000000000000000000000000000000000000000000000000000000000000 PUSH1 0x20 DUP3 ADD MSTORE POP JUMP JUMPDEST PUSH0 PUSH2 0x2270 PUSH1 0x21 DUP4 PUSH2 0x1D16 JUMP JUMPDEST SWAP2 POP PUSH2 0x227B DUP3 PUSH2 0x2216 JUMP JUMPDEST PUSH1 0x40 DUP3 ADD SWAP1 POP SWAP2 SWAP1 POP JUMP JUMPDEST PUSH0 PUSH1 0x20 DUP3 ADD SWAP1 POP DUP2 DUP2 SUB PUSH0 DUP4 ADD MSTORE PUSH2 0x229D DUP2 PUSH2 0x2264 JUMP JUMPDEST SWAP1 POP SWAP2 SWAP1 POP JUMP JUMPDEST PUSH32 0x536166654D6174683A206469766973696F6E206279207A65726F000000000000 PUSH0 DUP3 ADD MSTORE POP JUMP JUMPDEST PUSH0 PUSH2 0x22D8 PUSH1 0x1A DUP4 PUSH2 0x1D16 JUMP JUMPDEST SWAP2 POP PUSH2 0x22E3 DUP3 PUSH2 0x22A4 JUMP JUMPDEST PUSH1 0x20 DUP3 ADD SWAP1 POP SWAP2 SWAP1 POP JUMP JUMPDEST PUSH0 PUSH1 0x20 DUP3 ADD SWAP1 POP DUP2 DUP2 SUB PUSH0 DUP4 ADD MSTORE PUSH2 0x2305 DUP2 PUSH2 0x22CC JUMP JUMPDEST SWAP1 POP SWAP2 SWAP1 POP JUMP JUMPDEST PUSH0 PUSH1 0x60 DUP3 ADD SWAP1 POP PUSH2 0x231F PUSH0 DUP4 ADD DUP7 PUSH2 0x1C06 JUMP JUMPDEST PUSH2 0x232C PUSH1 0x20 DUP4 ADD DUP6 PUSH2 0x1B24 JUMP JUMPDEST PUSH2 0x2339 PUSH1 0x40 DUP4 ADD DUP5 PUSH2 0x1B24 JUMP JUMPDEST SWAP5 SWAP4 POP POP POP POP JUMP JUMPDEST PUSH32 0x536166654D6174683A206164646974696F6E206F766572666C6F770000000000 PUSH0 DUP3 ADD MSTORE POP JUMP JUMPDEST PUSH0 PUSH2 0x2375 PUSH1 0x1B DUP4 PUSH2 0x1D16 JUMP JUMPDEST SWAP2 POP PUSH2 0x2380 DUP3 PUSH2 0x2341 JUMP JUMPDEST PUSH1 0x20 DUP3 ADD SWAP1 POP SWAP2 SWAP1 POP JUMP JUMPDEST PUSH0 PUSH1 0x20 DUP3 ADD SWAP1 POP DUP2 DUP2 SUB PUSH0 DUP4 ADD MSTORE PUSH2 0x23A2 DUP2 PUSH2 0x2369 JUMP JUMPDEST SWAP1 POP SWAP2 SWAP1 POP JUMP INVALID LOG2 PUSH5 0x6970667358 0x22 SLT KECCAK256 SWAP2 0xE2 CHAINID 0xDC 0xDD LT DELEGATECALL ISZERO 0xBA PUSH10 0xB17FE769150B1ABA2618 0x21 0x5D COINBASE 0xD9 0xBC 0xBF GASLIMIT DUP14 0xFB RETURNDATACOPY PUSH2 0xD364 PUSH20 0x6F6C634300081400330000000000000000000000 "
		},
		"gasEstimates": {
			"creation": {
				"codeDepositCost": "1836600",
				"executionCost": "infinite",
				"totalCost": "infinite"
			},
			"external": {
				"_totalStakes()": "2492",
				"availableTokens()": "infinite",
				"balanceuser(address)": "infinite",
				"canStake(uint256,uint256,address)": "infinite",
				"claimReward()": "infinite",
				"createStake(uint256,uint256)": "infinite",
				"distributeReward()": "infinite",
				"getState()": "infinite",
				"getTotalStakedAmount()": "2455",
				"getTotalStakers()": "2574",
				"isStakeholder(address)": "infinite",
				"owner()": "2538",
				"removeAllMyStakes()": "infinite",
				"removeSomeStake(uint256)": "infinite",
				"renounceOwnership()": "30417",
				"rewardDistributionIndex()": "2471",
				"rewardOf(address)": "infinite",
				"setAddress(address)": "51269",
				"setApyPercentage(uint256)": "24835",
				"stakeOf(address)": "2896",
				"tokenAddress()": "2597",
				"totalRewardDistributed()": "2537",
				"totalStakes()": "2454",
				"transferOwnership(address)": "30758"
			},
			"internal": {
				"_withdrawReward(address)": "infinite",
				"addStakeholder(address,uint256,uint256)": "infinite",
				"calculateReward(address)": "infinite",
				"removeStakeholder(address)": "infinite"
			}
		},
		"methodIdentifiers": {
			"_totalStakes()": "92504bfa",
			"availableTokens()": "69bb4dc2",
			"balanceuser(address)": "6288af1e",
			"canStake(uint256,uint256,address)": "bbfa2990",
			"claimReward()": "b88a802f",
			"createStake(uint256,uint256)": "d7fa023d",
			"distributeReward()": "8f73c5ae",
			"getState()": "1865c57d",
			"getTotalStakedAmount()": "38adb6f0",
			"getTotalStakers()": "31ed0db4",
			"isStakeholder(address)": "ef037b90",
			"owner()": "8da5cb5b",
			"removeAllMyStakes()": "3cc7d2c4",
			"removeSomeStake(uint256)": "03fce884",
			"renounceOwnership()": "715018a6",
			"rewardDistributionIndex()": "0ffde47b",
			"rewardOf(address)": "1d62ebd9",
			"setAddress(address)": "e30081a0",
			"setApyPercentage(uint256)": "c53d425a",
			"stakeOf(address)": "42623360",
			"tokenAddress()": "9d76ea58",
			"totalRewardDistributed()": "30188ee8",
			"totalStakes()": "bf9befb1",
			"transferOwnership(address)": "f2fde38b"
		}
	},
	"abi": [
		{
			"inputs": [
				{
					"internalType": "address",
					"name": "_tokenAddress",
					"type": "address"
				}
			],
			"stateMutability": "nonpayable",
			"type": "constructor"
		},
		{
			"anonymous": false,
			"inputs": [
				{
					"indexed": true,
					"internalType": "address",
					"name": "previousOwner",
					"type": "address"
				},
				{
					"indexed": true,
					"internalType": "address",
					"name": "newOwner",
					"type": "address"
				}
			],
			"name": "OwnershipTransferred",
			"type": "event"
		},
		{
			"anonymous": false,
			"inputs": [
				{
					"indexed": false,
					"internalType": "address",
					"name": "_address",
					"type": "address"
				},
				{
					"indexed": false,
					"internalType": "uint256",
					"name": "_amount",
					"type": "uint256"
				},
				{
					"indexed": false,
					"internalType": "uint256",
					"name": "_timestamp",
					"type": "uint256"
				}
			],
			"name": "RewardSent",
			"type": "event"
		},
		{
			"inputs": [],
			"name": "_totalStakes",
			"outputs": [
				{
					"internalType": "uint256",
					"name": "",
					"type": "uint256"
				}
			],
			"stateMutability": "view",
			"type": "function"
		},
		{
			"inputs": [],
			"name": "availableTokens",
			"outputs": [
				{
					"internalType": "uint256",
					"name": "",
					"type": "uint256"
				}
			],
			"stateMutability": "view",
			"type": "function"
		},
		{
			"inputs": [
				{
					"internalType": "address",
					"name": "account",
					"type": "address"
				}
			],
			"name": "balanceuser",
			"outputs": [
				{
					"internalType": "uint256",
					"name": "b",
					"type": "uint256"
				}
			],
			"stateMutability": "view",
			"type": "function"
		},
		{
			"inputs": [
				{
					"internalType": "uint256",
					"name": "_stake",
					"type": "uint256"
				},
				{
					"internalType": "uint256",
					"name": "_stakingPackage",
					"type": "uint256"
				},
				{
					"internalType": "address",
					"name": "account",
					"type": "address"
				}
			],
			"name": "canStake",
			"outputs": [
				{
					"internalType": "bool",
					"name": "b",
					"type": "bool"
				}
			],
			"stateMutability": "view",
			"type": "function"
		},
		{
			"inputs": [],
			"name": "claimReward",
			"outputs": [],
			"stateMutability": "nonpayable",
			"type": "function"
		},
		{
			"inputs": [
				{
					"internalType": "uint256",
					"name": "_stake",
					"type": "uint256"
				},
				{
					"internalType": "uint256",
					"name": "_stakingPackage",
					"type": "uint256"
				}
			],
			"name": "createStake",
			"outputs": [],
			"stateMutability": "nonpayable",
			"type": "function"
		},
		{
			"inputs": [],
			"name": "distributeReward",
			"outputs": [],
			"stateMutability": "nonpayable",
			"type": "function"
		},
		{
			"inputs": [],
			"name": "getState",
			"outputs": [
				{
					"internalType": "uint256",
					"name": "",
					"type": "uint256"
				},
				{
					"internalType": "uint256",
					"name": "",
					"type": "uint256"
				},
				{
					"internalType": "uint256",
					"name": "",
					"type": "uint256"
				}
			],
			"stateMutability": "view",
			"type": "function"
		},
		{
			"inputs": [],
			"name": "getTotalStakedAmount",
			"outputs": [
				{
					"internalType": "uint256",
					"name": "",
					"type": "uint256"
				}
			],
			"stateMutability": "view",
			"type": "function"
		},
		{
			"inputs": [],
			"name": "getTotalStakers",
			"outputs": [
				{
					"internalType": "uint256",
					"name": "",
					"type": "uint256"
				}
			],
			"stateMutability": "view",
			"type": "function"
		},
		{
			"inputs": [
				{
					"internalType": "address",
					"name": "_address",
					"type": "address"
				}
			],
			"name": "isStakeholder",
			"outputs": [
				{
					"internalType": "bool",
					"name": "",
					"type": "bool"
				},
				{
					"internalType": "uint256",
					"name": "",
					"type": "uint256"
				}
			],
			"stateMutability": "view",
			"type": "function"
		},
		{
			"inputs": [],
			"name": "owner",
			"outputs": [
				{
					"internalType": "address",
					"name": "",
					"type": "address"
				}
			],
			"stateMutability": "view",
			"type": "function"
		},
		{
			"inputs": [],
			"name": "removeAllMyStakes",
			"outputs": [],
			"stateMutability": "nonpayable",
			"type": "function"
		},
		{
			"inputs": [
				{
					"internalType": "uint256",
					"name": "_stake",
					"type": "uint256"
				}
			],
			"name": "removeSomeStake",
			"outputs": [],
			"stateMutability": "nonpayable",
			"type": "function"
		},
		{
			"inputs": [],
			"name": "renounceOwnership",
			"outputs": [],
			"stateMutability": "nonpayable",
			"type": "function"
		},
		{
			"inputs": [],
			"name": "rewardDistributionIndex",
			"outputs": [
				{
					"internalType": "uint256",
					"name": "",
					"type": "uint256"
				}
			],
			"stateMutability": "view",
			"type": "function"
		},
		{
			"inputs": [
				{
					"internalType": "address",
					"name": "_stakeholder",
					"type": "address"
				}
			],
			"name": "rewardOf",
			"outputs": [
				{
					"internalType": "uint256",
					"name": "",
					"type": "uint256"
				}
			],
			"stateMutability": "view",
			"type": "function"
		},
		{
			"inputs": [
				{
					"internalType": "address",
					"name": "_tokenAddress",
					"type": "address"
				}
			],
			"name": "setAddress",
			"outputs": [],
			"stateMutability": "nonpayable",
			"type": "function"
		},
		{
			"inputs": [
				{
					"internalType": "uint256",
					"name": "_percentage",
					"type": "uint256"
				}
			],
			"name": "setApyPercentage",
			"outputs": [],
			"stateMutability": "nonpayable",
			"type": "function"
		},
		{
			"inputs": [
				{
					"internalType": "address",
					"name": "_stakeholder",
					"type": "address"
				}
			],
			"name": "stakeOf",
			"outputs": [
				{
					"internalType": "uint256",
					"name": "",
					"type": "uint256"
				}
			],
			"stateMutability": "view",
			"type": "function"
		},
		{
			"inputs": [],
			"name": "tokenAddress",
			"outputs": [
				{
					"internalType": "address",
					"name": "",
					"type": "address"
				}
			],
			"stateMutability": "view",
			"type": "function"
		},
		{
			"inputs": [],
			"name": "totalRewardDistributed",
			"outputs": [
				{
					"internalType": "uint256",
					"name": "",
					"type": "uint256"
				}
			],
			"stateMutability": "view",
			"type": "function"
		},
		{
			"inputs": [],
			"name": "totalStakes",
			"outputs": [
				{
					"internalType": "uint256",
					"name": "",
					"type": "uint256"
				}
			],
			"stateMutability": "view",
			"type": "function"
		},
		{
			"inputs": [
				{
					"internalType": "address",
					"name": "newOwner",
					"type": "address"
				}
			],
			"name": "transferOwnership",
			"outputs": [],
			"stateMutability": "nonpayable",
			"type": "function"
		}
	]
}