{
	"data": {
		"bytecode": {
			"linkReferences": {},
			"object": "608060405234801561000f575f80fd5b50613a3c8061001d5f395ff3fe608060405234801561000f575f80fd5b50600436106101c6575f3560e01c8063a57e3141116100fe578063d3cac8851161009e578063e3676f881161006e578063e3676f8814610428578063eb80bdae1461043b578063eeacf7861461044e578063fd981c6614610461575f80fd5b8063d3cac88514610381578063da1d8cff14610394578063e0da83ce146103a7578063e1444fd6146103c7575f80fd5b8063b3b9aa48116100d9578063b3b9aa4814610340578063b982922e14610353578063cb645e321461035b578063cd83eadc1461036e575f80fd5b8063a57e314114610307578063aec640c61461031a578063aef0e5401461032d575f80fd5b80635a04fb69116101695780636dbdeab3116101445780636dbdeab3146102a157806376c12822146102b45780637e6706d3146102d4578063a20b8c18146102f4575f80fd5b80635a04fb6914610266578063618df7a31461027b5780636198e3391461028e575f80fd5b80630d4f581a116101a45780630d4f581a146102235780631982242c14610236578063332f26d71461023e578063475831c81461025e575f80fd5b806307279357146101ca57806307873ef1146101f057806308f1247014610203575b5f80fd5b6101dd6101d8366004613100565b610468565b6040519081526020015b60405180910390f35b6101dd6101fe366004613181565b6105a9565b61021661021136600461319c565b6105cf565b6040516101e791906132aa565b61021661023136600461319c565b61071d565b6101dd610737565b61025161024c3660046132bc565b610757565b6040516101e791906132ee565b6101dd610898565b61027961027436600461334e565b6108a3565b005b61021661028936600461337c565b610a2e565b61027961029c36600461319c565b610aa2565b6101dd6102af36600461319c565b610b28565b6102c76102c23660046133a6565b610b3e565b6040516101e791906133c6565b6102e76102e236600461319c565b610c8d565b6040516101e79190613435565b6102e761030236600461319c565b610d01565b61027961031536600461319c565b610d2b565b6102c76103283660046133a6565b610d38565b61025161033b366004613181565b610e7c565b61027961034e366004613464565b610f5e565b6101dd6111f0565b6101dd61036936600461348d565b6111fb565b6101dd61037c366004613181565b61143d565b61027961038f36600461352b565b61145a565b6102516103a2366004613181565b611507565b6103ba6103b53660046135b5565b6115e1565b6040516101e79190613689565b6104026103d5366004613181565b60076020525f90815260409020805460018201546002909201546001600160a01b03918216929091169083565b604080516001600160a01b039485168152939092166020840152908201526060016101e7565b6101dd610436366004613181565b6117ed565b6101dd610449366004613181565b61180d565b61021661045c36600461337c565b61182d565b5f546101dd565b5f6001600160a01b0386166104985760405162461bcd60e51b815260040161048f906136c0565b60405180910390fd5b5f84116104e75760405162461bcd60e51b815260206004820152601f60248201527f416d6f756e742073686f756c642062652067726561746572207468616e203000604482015260640161048f565b4283116105425760405162461bcd60e51b815260206004820152602360248201527f556e6c6f636b20646174652073686f756c6420626520696e207468652066757460448201526275726560e81b606482015260840161048f565b61055387878787875f805f8a6118a1565b9050610561863330876118eb565b807f694af1cc8727cdd0afbdd53d9b87b69248bd490224e9dd090e788546506e076f8789878760405161059794939291906136e7565b60405180910390a29695505050505050565b6001600160a01b0381165f9081526001602052604081206105c990611a3a565b92915050565b6105d7612fc6565b5f6105e183611a43565b815481106105f1576105f1613710565b5f9182526020918290206040805161016081018252600b9093029091018054835260018101546001600160a01b03908116948401949094526002810154909316908201526003820154606082015260048201546080820152600582015460a0820152600682015460c0820152600782015460e082015260088201546101008201526009820154610120820152600a820180549192916101408401919061069690613724565b80601f01602080910402602001604051908101604052809291908181526020018280546106c290613724565b801561070d5780601f106106e45761010080835404028352916020019161070d565b820191905f5260205f20905b8154815290600101906020018083116106f057829003601f168201915b5050505050815250509050919050565b610725612fc6565b5f82815481106105f1576105f1613710565b5f610740610898565b6107486111f0565b6107529190613770565b905090565b6001600160a01b0383165f90815260086020526040902060609061077a90611a3a565b82106107b0576001600160a01b0384165f9081526008602052604090206001906107a390611a3a565b6107ad9190613783565b91505b5f6107bb8484613783565b6107c6906001613770565b90505f816001600160401b038111156107e1576107e1613064565b60405190808252806020026020018201604052801561081a57816020015b610807612fc6565b8152602001906001900390816107ff5790505b5090505f855b85811161088a576001600160a01b0388165f90815260086020526040902061084c906102119083611adc565b83838151811061085e5761085e613710565b6020026020010181905250818061087490613796565b925050808061088290613796565b915050610820565b5090925050505b9392505050565b5f6107526005611a3a565b816108ad81611a43565b505f806108b985611a43565b815481106108c9576108c9613710565b5f9182526020909120600b9091020160028101549091506001600160a01b03163381146109085760405162461bcd60e51b815260040161048f906137ae565b6002820180546001600160a01b0319166001600160a01b038681169190911790915560018084015482165f9081526007602052604090209081015490911615801590610997576001600160a01b0383165f90815260016020526040902061096f9088611ae7565b506001600160a01b0386165f9081526001602052604090206109919088611af2565b506109dc565b6001600160a01b0383165f9081526002602052604090206109b89088611ae7565b506001600160a01b0386165f9081526002602052604090206109da9088611af2565b505b604080518881526001600160a01b03858116602083015288168183015290517f9075ad040756c0d8743a1fed927066a92c4755071615bf61e04b17583d961caf9181900360600190a150505050505050565b610a36612fc6565b81610a408461180d565b11610a7d5760405162461bcd60e51b815260206004820152600d60248201526c092dcecc2d8d2c840d2dcc8caf609b1b604482015260640161048f565b6001600160a01b0383165f908152600260205260409020610891906102119084611adc565b80610aac81611a43565b505f80610ab884611a43565b81548110610ac857610ac8613710565b5f91825260209091206002600b90920201908101549091506001600160a01b03163314610b075760405162461bcd60e51b815260040161048f906137ae565b600681015415610b1f57610b1a81611afd565b505050565b610b1a81611e87565b5f80610b33836105cf565b9050610891816120a0565b6060610b4a6005611a3a565b8210610b69576001610b5c6005611a3a565b610b669190613783565b91505b5f610b748484613783565b610b7f906001613770565b90505f816001600160401b03811115610b9a57610b9a613064565b604051908082528060200260200182016040528015610be357816020015b604080516060810182525f80825260208083018290529282015282525f19909201910181610bb85790505b5090505f855b858111610c825760075f610bfe600584611adc565b6001600160a01b03908116825260208083019390935260409182015f208251606081018452815483168152600182015490921693820193909352600290920154908201528351849084908110610c5657610c56613710565b60200260200101819052508180610c6c90613796565b9250508080610c7a90613796565b915050610be9565b509095945050505050565b604080516060810182525f808252602082018190529181019190915260075f610cb7600585611adc565b6001600160a01b03908116825260208083019390935260409182015f2082516060810184528154831681526001820154909216938201939093526002909201549082015292915050565b604080516060810182525f808252602082018190529181019190915260075f610cb7600385611adc565b610d35815f6108a3565b50565b6060610d446003611a3a565b8210610d63576001610d566003611a3a565b610d609190613783565b91505b5f610d6e8484613783565b610d79906001613770565b90505f816001600160401b03811115610d9457610d94613064565b604051908082528060200260200182016040528015610ddd57816020015b604080516060810182525f80825260208083018290529282015282525f19909201910181610db25790505b5090505f855b858111610c825760075f610df8600384611adc565b6001600160a01b03908116825260208083019390935260409182015f208251606081018452815483168152600182015490921693820193909352600290920154908201528351849084908110610e5057610e50613710565b60200260200101819052508180610e6690613796565b9250508080610e7490613796565b915050610de3565b6001600160a01b0381165f90815260016020526040812060609190610ea090611a3a565b90505f816001600160401b03811115610ebb57610ebb613064565b604051908082528060200260200182016040528015610ef457816020015b610ee1612fc6565b815260200190600190039081610ed95790505b5090505f5b82811015610f56576001600160a01b0385165f908152600160205260409020610f26906102119083611adc565b828281518110610f3857610f38613710565b60200260200101819052508080610f4e90613796565b915050610ef9565b509392505050565b82610f6881611a43565b505f80610f7486611a43565b81548110610f8457610f84613710565b5f91825260209091206002600b90920201908101549091506001600160a01b03163314610fc35760405162461bcd60e51b815260040161048f906137ae565b6009810154156110095760405162461bcd60e51b8152602060048201526011602482015270131bd8dac81dd85cc81d5b9b1bd8dad959607a1b604482015260640161048f565b82156110aa578060050154831015801561102257504283115b6110a25760405162461bcd60e51b8152602060048201526044602482018190527f4e657720756e6c6f636b2074696d652073686f756c64206e6f74206265206265908201527f666f7265206f6c6420756e6c6f636b2074696d65206f722063757272656e742060648201526374696d6560e01b608482015260a40161048f565b600581018390555b831561118c57806003015484101561111e5760405162461bcd60e51b815260206004820152603160248201527f4e657720616d6f756e742073686f756c64206e6f74206265206c657373207468604482015270185b8818dd5c9c995b9d08185b5bdd5b9d607a1b606482015260840161048f565b5f81600301548561112f9190613783565b9050801561118a576003820185905560018201546001600160a01b03165f9081526007602052604090206002810154611169908390613770565b60028201556001830154611188906001600160a01b03163330856118eb565b505b505b805460018201546002830154600384015460058501546040517fa8b26360df8d5e154ffa5a8a7e894e85f781acfbbef0b744fb9551d8fd0fd36c946111e1946001600160a01b039182169491169290916136e7565b60405180910390a25050505050565b5f6107526003611a3a565b5f6001600160a01b0389166112225760405162461bcd60e51b815260040161048f906136c0565b5f87116112715760405162461bcd60e51b815260206004820152601f60248201527f416d6f756e742073686f756c642062652067726561746572207468616e203000604482015260640161048f565b4286116112c05760405162461bcd60e51b815260206004820181905260248201527f54474520646174652073686f756c6420626520696e2074686520667574757265604482015260640161048f565b5f84116112ff5760405162461bcd60e51b815260206004820152600d60248201526c496e76616c6964206379636c6560981b604482015260640161048f565b5f8511801561130f575061271085105b6113525760405162461bcd60e51b8152602060048201526014602482015273496e76616c6964206269707320666f722054474560601b604482015260640161048f565b5f83118015611362575061271083105b6113a75760405162461bcd60e51b8152602060048201526016602482015275496e76616c6964206269707320666f72206379636c6560501b604482015260640161048f565b6127106113b48487613770565b11156113d25760405162461bcd60e51b815260040161048f906137f0565b6113e38a8a8a8a8a8a8a8a8a6118a1565b90506113f18933308a6118eb565b807f694af1cc8727cdd0afbdd53d9b87b69248bd490224e9dd090e788546506e076f8a8c8a8a60405161142794939291906136e7565b60405180910390a25b9998505050505050505050565b5f611447826105a9565b6114508361180d565b6105c99190613770565b8161146481611a43565b505f8061147085611a43565b8154811061148057611480613710565b5f91825260209091206002600b90920201908101549091506001600160a01b031633146114bf5760405162461bcd60e51b815260040161048f906137ae565b600a81016114cd8482613887565b506040518481527fe4a1120fd509c50aec65802fd3c3c9a4b72bf746fe9a552396185c6de928e8aa9060200160405180910390a150505050565b6001600160a01b0381165f9081526002602052604081206060919061152b90611a3a565b90505f816001600160401b0381111561154657611546613064565b60405190808252806020026020018201604052801561157f57816020015b61156c612fc6565b8152602001906001900390816115645790505b5090505f5b82811015610f56576001600160a01b0385165f9081526002602052604090206115b1906102119083611adc565b8282815181106115c3576115c3613710565b602002602001018190525080806115d990613796565b915050611584565b60606001600160a01b0388166116095760405162461bcd60e51b815260040161048f906136c0565b8a891461164c5760405162461bcd60e51b815260206004820152601160248201527013195b99dd1a081b5a5cdb585d18da1959607a1b604482015260640161048f565b42861161169b5760405162461bcd60e51b815260206004820181905260248201527f54474520646174652073686f756c6420626520696e2074686520667574757265604482015260640161048f565b5f84116116da5760405162461bcd60e51b815260206004820152600d60248201526c496e76616c6964206379636c6560981b604482015260640161048f565b5f851180156116ea575061271085105b61172d5760405162461bcd60e51b8152602060048201526014602482015273496e76616c6964206269707320666f722054474560601b604482015260640161048f565b5f8311801561173d575061271083105b6117825760405162461bcd60e51b8152602060048201526016602482015275496e76616c6964206269707320666f72206379636c6560501b604482015260640161048f565b61271061178f8487613770565b11156117ad5760405162461bcd60e51b815260040161048f906137f0565b6117dd8c8c8c8c8c8c60405180608001604052808e81526020018d81526020018c81526020018b815250896121a9565b9c9b505050505050505050505050565b6001600160a01b0381165f9081526008602052604081206105c990611a3a565b6001600160a01b0381165f9081526002602052604081206105c990611a3a565b611835612fc6565b8161183f846105a9565b1161187c5760405162461bcd60e51b815260206004820152600d60248201526c092dcecc2d8d2c840d2dcc8caf609b1b604482015260640161048f565b6001600160a01b0383165f908152600160205260409020610891906102119084611adc565b5f87156118cd575f6118b28a61239a565b90506118c58b8b838b8b8b8b8b8b6124ad565b915050611430565b6118dd8a8a898989898989612582565b9a9950505050505050505050565b6040516370a0823160e01b81526001600160a01b0383811660048301525f91908616906370a0823190602401602060405180830381865afa158015611932573d5f803e3d5ffd5b505050506040513d601f19601f820116820180604052508101906119569190613942565b905061196d6001600160a01b038616858585612650565b6040516370a0823160e01b81526001600160a01b0384811660048301525f91908716906370a0823190602401602060405180830381865afa1580156119b4573d5f803e3d5ffd5b505050506040513d601f19601f820116820180604052508101906119d89190613942565b9050826119e58383613783565b14611a325760405162461bcd60e51b815260206004820152601f60248201527f4e6f7420656e6f75676820746f6b656e20776173207472616e73666572656400604482015260640161048f565b505050505050565b5f6105c9825490565b5f620f4240821015611a895760405162461bcd60e51b815260206004820152600f60248201526e125b9d985b1a59081b1bd8dac81a59608a1b604482015260640161048f565b5f611a97620f424084613783565b5f5490915081106105c95760405162461bcd60e51b815260206004820152600f60248201526e125b9d985b1a59081b1bd8dac81a59608a1b604482015260640161048f565b5f61089183836126c1565b5f61089183836126e7565b5f61089183836127ca565b60408051610160810182528254815260018301546001600160a01b039081166020830152600284015416918101919091526003820154606082015260048201546080820152600582015460a0820152600682015460c0820152600782015460e082015260088201546101008201526009820154610120820152600a820180545f92611c1a9290918591610140840191611b9590613724565b80601f0160208091040260200160405190810160405280929190818152602001828054611bc190613724565b8015611c0c5780601f10611be357610100808354040283529160200191611c0c565b820191905f5260205f20905b815481529060010190602001808311611bef57829003601f168201915b5050505050815250506120a0565b90505f818360090154611c2d9190613770565b90505f82118015611c42575082600301548111155b611c825760405162461bcd60e51b81526020600482015260116024820152704e6f7468696e6720746f20756e6c6f636b60781b604482015260640161048f565b6001808401546001600160a01b039081165f90815260076020526040902091820154600386015491161515908303611d6b578015611cd9578454335f908152600160205260409020611cd391611ae7565b50611cf4565b8454335f908152600260205260409020611cf291611ae7565b505b845460018601546001600160a01b03165f908152600860205260409020611d1a91611ae7565b50845460018601546040517fc6532367992b32e42a62dd89fc3574876d97d081a263aa6e030f34b79b7e6e8b91611d62916001600160a01b03909116903390889042906136e7565b60405180910390a25b83826002015411611d81575f6002830155611d97565b838260020154611d919190613783565b60028301555b81600201545f03611de4578015611dc8576001850154611dc2906003906001600160a01b0316612816565b50611de4565b6001850154611de2906005906001600160a01b0316612816565b505b6009850183905560028501546001860154611e0c916001600160a01b0391821691168661282a565b84546001860154600987015460038801547ff93385ffdf40b698b13993c059834b8e91d0ca8e7abf827a34001ca03c03f6ff926001600160a01b03169133918991611e5691613783565b604080516001600160a01b03958616815294909316602085015291830152606082015242608082015260a0016111e1565b8060050154421015611edb5760405162461bcd60e51b815260206004820152601860248201527f4974206973206e6f742074696d6520746f20756e6c6f636b0000000000000000604482015260640161048f565b600981015415611f215760405162461bcd60e51b81526020600482015260116024820152704e6f7468696e6720746f20756e6c6f636b60781b604482015260640161048f565b6001808201546001600160a01b039081165f908152600760205260409020918201541615801590611f6b578254335f908152600160205260409020611f6591611ae7565b50611f86565b8254335f908152600260205260409020611f8491611ae7565b505b600383015460028301548110611fa1575f6002840155611fb7565b808360020154611fb19190613783565b60028401555b82600201545f03612004578115611fe8576001840154611fe2906003906001600160a01b0316612816565b50612004565b6001840154612002906005906001600160a01b0316612816565b505b60098401819055835460018501546001600160a01b03165f90815260086020526040902061203191611ae7565b50600184015461204b906001600160a01b0316338361282a565b835460018501546040517fc6532367992b32e42a62dd89fc3574876d97d081a263aa6e030f34b79b7e6e8b91612092916001600160a01b03909116903390869042906136e7565b60405180910390a250505050565b5f81606001515f036120b357505f919050565b8160600151826101200151106120ca57505f919050565b8160a001514210156120dd57505f919050565b8160e001515f036120ef57505f919050565b5f61210583606001518460c0015161271061285a565b90505f61211e846060015185610100015161271061285a565b90505f8460a0015142106121645782828660e001518760a00151426121439190613783565b61214d9190613959565b6121579190613978565b6121619190613770565b90505b5f856060015182111561218d5785610120015186606001516121869190613783565b90506121a0565b61012086015161219d9083613783565b90505b95945050505050565b60606001600160a01b0385166121d15760405162461bcd60e51b815260040161048f906136c0565b5f6121dc8888612900565b9050885f816001600160401b038111156121f8576121f8613064565b604051908082528060200260200182016040528015612221578160200160208202803683370190505b5090505f5b8281101561237e576122a38d8d8381811061224357612243613710565b90506020020160208101906122589190613181565b8a8a8e8e8681811061226c5761226c613710565b905060200201358b5f6004811061228557612285613710565b60209081029190910151908d015160408e015160608f01518e6118a1565b8282815181106122b5576122b5613710565b6020026020010181815250508181815181106122d3576122d3613710565b60200260200101517f694af1cc8727cdd0afbdd53d9b87b69248bd490224e9dd090e788546506e076f8a8f8f8581811061230f5761230f613710565b90506020020160208101906123249190613181565b8e8e8681811061233657612336613710565b905060200201358b5f6004811061234f5761234f613710565b602002015160405161236494939291906136e7565b60405180910390a28061237681613796565b915050612226565b5061238b883330866118eb565b9b9a5050505050505050505050565b5f80826001600160a01b031663c45a01556040518163ffffffff1660e01b8152600401602060405180830381865afa9250505080156123f6575060408051601f3d908101601f191682019092526123f39181019061398f565b60015b6124425760405162461bcd60e51b815260206004820152601c60248201527f5468697320746f6b656e206973206e6f742061204c5020746f6b656e00000000604482015260640161048f565b90506001600160a01b03811615801590612461575061246183826129a1565b6105c95760405162461bcd60e51b815260206004820152601d60248201527f5468697320746f6b656e206973206e6f742061204c5020746f6b656e2e000000604482015260640161048f565b5f6124be8a8a898989898989612afc565b6001600160a01b038b165f9081526001602052604090209091506124e29082611af2565b506124ee60038a612d65565b506001600160a01b03808a165f908152600760205260409020805490911661253d5780546001600160a01b03808c166001600160a01b0319928316178355600183018054918c16919092161790555b87816002015461254d9190613770565b60028201556001600160a01b038a165f9081526008602052604090206125739083611af2565b50509998505050505050505050565b5f6125938989898989898989612afc565b6001600160a01b038a165f9081526002602052604090209091506125b79082611af2565b506125c3600589612d65565b506001600160a01b038089165f908152600760205260409020805490911661260c5780546001600160a01b038a166001600160a01b031991821617825560018201805490911690555b87816002015461261c9190613770565b60028201556001600160a01b0389165f9081526008602052604090206126429083611af2565b505098975050505050505050565b6040516001600160a01b03808516602483015283166044820152606481018290526126bb9085906323b872dd60e01b906084015b60408051601f198184030181529190526020810180516001600160e01b03166001600160e01b031990931692909217909152612d79565b50505050565b5f825f0182815481106126d6576126d6613710565b905f5260205f200154905092915050565b5f81815260018301602052604081205480156127c1575f612709600183613783565b85549091505f9061271c90600190613783565b905081811461277b575f865f01828154811061273a5761273a613710565b905f5260205f200154905080875f01848154811061275a5761275a613710565b5f918252602080832090910192909255918252600188019052604090208390555b855486908061278c5761278c6139aa565b600190038181905f5260205f20015f90559055856001015f8681526020019081526020015f205f9055600193505050506105c9565b5f9150506105c9565b5f81815260018301602052604081205461280f57508154600181810184555f8481526020808220909301849055845484825282860190935260409020919091556105c9565b505f6105c9565b5f610891836001600160a01b0384166126e7565b6040516001600160a01b038316602482015260448101829052610b1a90849063a9059cbb60e01b90606401612684565b5f80805f19858709858702925082811083820303915050805f0361288e575f8411612883575f80fd5b508290049050610891565b808411612899575f80fd5b5f8486880960026001871981018816978890046003810283188082028403028082028403028082028403028082028403028082028403029081029092039091025f889003889004909101858311909403939093029303949094049190911702949350505050565b5f80805b83811015610f565784848281811061291e5761291e613710565b905060200201355f036129695760405162461bcd60e51b8152602060048201526013602482015272416d6f756e742063616e74206265207a65726f60681b604482015260640161048f565b84848281811061297b5761297b613710565b905060200201358261298d9190613770565b91508061299981613796565b915050612904565b5f808390505f836001600160a01b031663e6a43905836001600160a01b0316630dfe16816040518163ffffffff1660e01b8152600401602060405180830381865afa1580156129f2573d5f803e3d5ffd5b505050506040513d601f19601f82011682018060405250810190612a16919061398f565b846001600160a01b031663d21220a76040518163ffffffff1660e01b8152600401602060405180830381865afa158015612a52573d5f803e3d5ffd5b505050506040513d601f19601f82011682018060405250810190612a76919061398f565b6040516001600160e01b031960e085901b1681526001600160a01b03928316600482015291166024820152604401602060405180830381865afa158015612abf573d5f803e3d5ffd5b505050506040513d601f19601f82011682018060405250810190612ae3919061398f565b6001600160a01b03908116908616149250505092915050565b5f8054612b0d90620f424090613770565b60408051610160810182528281526001600160a01b03808c16602083019081528d8216938301938452606083018c8152426080850190815260a085018d815260c086018d815260e087018d815261010088018d81525f6101208a018181526101408b018f815282546001810184559280528b51600b9093027f290decd9548b62a8d60345a988386fc84ba6bc95484008f6362f93160ef3e563810193845599517f290decd9548b62a8d60345a988386fc84ba6bc95484008f6362f93160ef3e5648b018054918d166001600160a01b03199283161790559c517f290decd9548b62a8d60345a988386fc84ba6bc95484008f6362f93160ef3e5658b01805491909c169d169c909c1790995595517f290decd9548b62a8d60345a988386fc84ba6bc95484008f6362f93160ef3e56688015593517f290decd9548b62a8d60345a988386fc84ba6bc95484008f6362f93160ef3e56787015591517f290decd9548b62a8d60345a988386fc84ba6bc95484008f6362f93160ef3e568860155517f290decd9548b62a8d60345a988386fc84ba6bc95484008f6362f93160ef3e569850155517f290decd9548b62a8d60345a988386fc84ba6bc95484008f6362f93160ef3e56a840155517f290decd9548b62a8d60345a988386fc84ba6bc95484008f6362f93160ef3e56b83015591517f290decd9548b62a8d60345a988386fc84ba6bc95484008f6362f93160ef3e56c8201559251939450909283927f290decd9548b62a8d60345a988386fc84ba6bc95484008f6362f93160ef3e56d0190612d559082613887565b5050505098975050505050505050565b5f610891836001600160a01b0384166127ca565b5f612dcd826040518060400160405280602081526020017f5361666545524332303a206c6f772d6c6576656c2063616c6c206661696c6564815250856001600160a01b0316612e4a9092919063ffffffff16565b805190915015610b1a5780806020019051810190612deb91906139be565b610b1a5760405162461bcd60e51b815260206004820152602a60248201527f5361666545524332303a204552433230206f7065726174696f6e20646964206e6044820152691bdd081cdd58d8d9595960b21b606482015260840161048f565b6060612e5884845f85612e60565b949350505050565b606082471015612ec15760405162461bcd60e51b815260206004820152602660248201527f416464726573733a20696e73756666696369656e742062616c616e636520666f6044820152651c8818d85b1b60d21b606482015260840161048f565b6001600160a01b0385163b612f185760405162461bcd60e51b815260206004820152601d60248201527f416464726573733a2063616c6c20746f206e6f6e2d636f6e7472616374000000604482015260640161048f565b5f80866001600160a01b03168587604051612f3391906139d9565b5f6040518083038185875af1925050503d805f8114612f6d576040519150601f19603f3d011682016040523d82523d5f602084013e612f72565b606091505b5091509150612f82828286612f8d565b979650505050505050565b60608315612f9c575081610891565b825115612fac5782518084602001fd5b8160405162461bcd60e51b815260040161048f91906139f4565b6040518061016001604052805f81526020015f6001600160a01b031681526020015f6001600160a01b031681526020015f81526020015f81526020015f81526020015f81526020015f81526020015f81526020015f8152602001606081525090565b6001600160a01b0381168114610d35575f80fd5b803561304781613028565b919050565b8015158114610d35575f80fd5b80356130478161304c565b634e487b7160e01b5f52604160045260245ffd5b5f82601f830112613087575f80fd5b81356001600160401b03808211156130a1576130a1613064565b604051601f8301601f19908116603f011681019082821181831017156130c9576130c9613064565b816040528381528660208588010111156130e1575f80fd5b836020870160208301375f602085830101528094505050505092915050565b5f805f805f8060c08789031215613115575f80fd5b863561312081613028565b9550602087013561313081613028565b945060408701356131408161304c565b9350606087013592506080870135915060a08701356001600160401b03811115613168575f80fd5b61317489828a01613078565b9150509295509295509295565b5f60208284031215613191575f80fd5b813561089181613028565b5f602082840312156131ac575f80fd5b5035919050565b5f5b838110156131cd5781810151838201526020016131b5565b50505f910152565b5f81518084526131ec8160208601602086016131b3565b601f01601f19169290920160200192915050565b5f61016082518452602083015161322260208601826001600160a01b03169052565b50604083015161323d60408601826001600160a01b03169052565b50606083015160608501526080830151608085015260a083015160a085015260c083015160c085015260e083015160e08501526101008084015181860152506101208084015181860152506101408084015182828701526132a0838701826131d5565b9695505050505050565b602081525f6108916020830184613200565b5f805f606084860312156132ce575f80fd5b83356132d981613028565b95602085013595506040909401359392505050565b5f602080830181845280855180835260408601915060408160051b87010192508387015f5b8281101561334157603f1988860301845261332f858351613200565b94509285019290850190600101613313565b5092979650505050505050565b5f806040838503121561335f575f80fd5b82359150602083013561337181613028565b809150509250929050565b5f806040838503121561338d575f80fd5b823561339881613028565b946020939093013593505050565b5f80604083850312156133b7575f80fd5b50508035926020909101359150565b602080825282518282018190525f9190848201906040850190845b818110156134295761341683855180516001600160a01b03908116835260208083015190911690830152604090810151910152565b92840192606092909201916001016133e1565b50909695505050505050565b81516001600160a01b0390811682526020808401519091169082015260408083015190820152606081016105c9565b5f805f60608486031215613476575f80fd5b505081359360208301359350604090920135919050565b5f805f805f805f805f6101208a8c0312156134a6575f80fd5b89356134b181613028565b985060208a01356134c181613028565b975060408a01356134d18161304c565b965060608a0135955060808a0135945060a08a0135935060c08a0135925060e08a013591506101008a01356001600160401b0381111561350f575f80fd5b61351b8c828d01613078565b9150509295985092959850929598565b5f806040838503121561353c575f80fd5b8235915060208301356001600160401b03811115613558575f80fd5b61356485828601613078565b9150509250929050565b5f8083601f84011261357e575f80fd5b5081356001600160401b03811115613594575f80fd5b6020830191508360208260051b85010111156135ae575f80fd5b9250929050565b5f805f805f805f805f805f6101208c8e0312156135d0575f80fd5b6001600160401b03808d3511156135e5575f80fd5b6135f28e8e358f0161356e565b909c509a5060208d0135811015613607575f80fd5b6136178e60208f01358f0161356e565b909a50985061362860408e0161303c565b975061363660608e01613059565b965060808d0135955060a08d0135945060c08d0135935060e08d01359250806101008e01351115613665575f80fd5b506136778d6101008e01358e01613078565b90509295989b509295989b9093969950565b602080825282518282018190525f9190848201906040850190845b81811015613429578351835292840192918401916001016136a4565b6020808252600d908201526c24b73b30b634b2103a37b5b2b760991b604082015260600190565b6001600160a01b0394851681529290931660208301526040820152606081019190915260800190565b634e487b7160e01b5f52603260045260245ffd5b600181811c9082168061373857607f821691505b60208210810361375657634e487b7160e01b5f52602260045260245ffd5b50919050565b634e487b7160e01b5f52601160045260245ffd5b808201808211156105c9576105c961375c565b818103818111156105c9576105c961375c565b5f600182016137a7576137a761375c565b5060010190565b60208082526022908201527f596f7520617265206e6f7420746865206f776e6572206f662074686973206c6f604082015261636b60f01b606082015260800190565b60208082526032908201527f53756d206f66205447452062707320616e64206379636c652073686f756c642060408201527106265206c657373207468616e2031303030360741b606082015260800190565b601f821115610b1a575f81815260208120601f850160051c810160208610156138685750805b601f850160051c820191505b81811015611a3257828155600101613874565b81516001600160401b038111156138a0576138a0613064565b6138b4816138ae8454613724565b84613842565b602080601f8311600181146138e7575f84156138d05750858301515b5f19600386901b1c1916600185901b178555611a32565b5f85815260208120601f198616915b82811015613915578886015182559484019460019091019084016138f6565b508582101561393257878501515f19600388901b60f8161c191681555b5050505050600190811b01905550565b5f60208284031215613952575f80fd5b5051919050565b5f8261397357634e487b7160e01b5f52601260045260245ffd5b500490565b80820281158282048414176105c9576105c961375c565b5f6020828403121561399f575f80fd5b815161089181613028565b634e487b7160e01b5f52603160045260245ffd5b5f602082840312156139ce575f80fd5b81516108918161304c565b5f82516139ea8184602087016131b3565b9190910192915050565b602081525f61089160208301846131d556fea2646970667358221220ef58093f91a43e245ff6fe95bcd407717b606183e266d4cd8dc6e7cb46a4c1d764736f6c63430008140033",
			"opcodes": "PUSH1 0x80 PUSH1 0x40 MSTORE CALLVALUE DUP1 ISZERO PUSH2 0xF JUMPI PUSH0 DUP1 REVERT JUMPDEST POP PUSH2 0x3A3C DUP1 PUSH2 0x1D PUSH0 CODECOPY PUSH0 RETURN INVALID PUSH1 0x80 PUSH1 0x40 MSTORE CALLVALUE DUP1 ISZERO PUSH2 0xF JUMPI PUSH0 DUP1 REVERT JUMPDEST POP PUSH1 0x4 CALLDATASIZE LT PUSH2 0x1C6 JUMPI PUSH0 CALLDATALOAD PUSH1 0xE0 SHR DUP1 PUSH4 0xA57E3141 GT PUSH2 0xFE JUMPI DUP1 PUSH4 0xD3CAC885 GT PUSH2 0x9E JUMPI DUP1 PUSH4 0xE3676F88 GT PUSH2 0x6E JUMPI DUP1 PUSH4 0xE3676F88 EQ PUSH2 0x428 JUMPI DUP1 PUSH4 0xEB80BDAE EQ PUSH2 0x43B JUMPI DUP1 PUSH4 0xEEACF786 EQ PUSH2 0x44E JUMPI DUP1 PUSH4 0xFD981C66 EQ PUSH2 0x461 JUMPI PUSH0 DUP1 REVERT JUMPDEST DUP1 PUSH4 0xD3CAC885 EQ PUSH2 0x381 JUMPI DUP1 PUSH4 0xDA1D8CFF EQ PUSH2 0x394 JUMPI DUP1 PUSH4 0xE0DA83CE EQ PUSH2 0x3A7 JUMPI DUP1 PUSH4 0xE1444FD6 EQ PUSH2 0x3C7 JUMPI PUSH0 DUP1 REVERT JUMPDEST DUP1 PUSH4 0xB3B9AA48 GT PUSH2 0xD9 JUMPI DUP1 PUSH4 0xB3B9AA48 EQ PUSH2 0x340 JUMPI DUP1 PUSH4 0xB982922E EQ PUSH2 0x353 JUMPI DUP1 PUSH4 0xCB645E32 EQ PUSH2 0x35B JUMPI DUP1 PUSH4 0xCD83EADC EQ PUSH2 0x36E JUMPI PUSH0 DUP1 REVERT JUMPDEST DUP1 PUSH4 0xA57E3141 EQ PUSH2 0x307 JUMPI DUP1 PUSH4 0xAEC640C6 EQ PUSH2 0x31A JUMPI DUP1 PUSH4 0xAEF0E540 EQ PUSH2 0x32D JUMPI PUSH0 DUP1 REVERT JUMPDEST DUP1 PUSH4 0x5A04FB69 GT PUSH2 0x169 JUMPI DUP1 PUSH4 0x6DBDEAB3 GT PUSH2 0x144 JUMPI DUP1 PUSH4 0x6DBDEAB3 EQ PUSH2 0x2A1 JUMPI DUP1 PUSH4 0x76C12822 EQ PUSH2 0x2B4 JUMPI DUP1 PUSH4 0x7E6706D3 EQ PUSH2 0x2D4 JUMPI DUP1 PUSH4 0xA20B8C18 EQ PUSH2 0x2F4 JUMPI PUSH0 DUP1 REVERT JUMPDEST DUP1 PUSH4 0x5A04FB69 EQ PUSH2 0x266 JUMPI DUP1 PUSH4 0x618DF7A3 EQ PUSH2 0x27B JUMPI DUP1 PUSH4 0x6198E339 EQ PUSH2 0x28E JUMPI PUSH0 DUP1 REVERT JUMPDEST DUP1 PUSH4 0xD4F581A GT PUSH2 0x1A4 JUMPI DUP1 PUSH4 0xD4F581A EQ PUSH2 0x223 JUMPI DUP1 PUSH4 0x1982242C EQ PUSH2 0x236 JUMPI DUP1 PUSH4 0x332F26D7 EQ PUSH2 0x23E JUMPI DUP1 PUSH4 0x475831C8 EQ PUSH2 0x25E JUMPI PUSH0 DUP1 REVERT JUMPDEST DUP1 PUSH4 0x7279357 EQ PUSH2 0x1CA JUMPI DUP1 PUSH4 0x7873EF1 EQ PUSH2 0x1F0 JUMPI DUP1 PUSH4 0x8F12470 EQ PUSH2 0x203 JUMPI JUMPDEST PUSH0 DUP1 REVERT JUMPDEST PUSH2 0x1DD PUSH2 0x1D8 CALLDATASIZE PUSH1 0x4 PUSH2 0x3100 JUMP JUMPDEST PUSH2 0x468 JUMP JUMPDEST PUSH1 0x40 MLOAD SWAP1 DUP2 MSTORE PUSH1 0x20 ADD JUMPDEST PUSH1 0x40 MLOAD DUP1 SWAP2 SUB SWAP1 RETURN JUMPDEST PUSH2 0x1DD PUSH2 0x1FE CALLDATASIZE PUSH1 0x4 PUSH2 0x3181 JUMP JUMPDEST PUSH2 0x5A9 JUMP JUMPDEST PUSH2 0x216 PUSH2 0x211 CALLDATASIZE PUSH1 0x4 PUSH2 0x319C JUMP JUMPDEST PUSH2 0x5CF JUMP JUMPDEST PUSH1 0x40 MLOAD PUSH2 0x1E7 SWAP2 SWAP1 PUSH2 0x32AA JUMP JUMPDEST PUSH2 0x216 PUSH2 0x231 CALLDATASIZE PUSH1 0x4 PUSH2 0x319C JUMP JUMPDEST PUSH2 0x71D JUMP JUMPDEST PUSH2 0x1DD PUSH2 0x737 JUMP JUMPDEST PUSH2 0x251 PUSH2 0x24C CALLDATASIZE PUSH1 0x4 PUSH2 0x32BC JUMP JUMPDEST PUSH2 0x757 JUMP JUMPDEST PUSH1 0x40 MLOAD PUSH2 0x1E7 SWAP2 SWAP1 PUSH2 0x32EE JUMP JUMPDEST PUSH2 0x1DD PUSH2 0x898 JUMP JUMPDEST PUSH2 0x279 PUSH2 0x274 CALLDATASIZE PUSH1 0x4 PUSH2 0x334E JUMP JUMPDEST PUSH2 0x8A3 JUMP JUMPDEST STOP JUMPDEST PUSH2 0x216 PUSH2 0x289 CALLDATASIZE PUSH1 0x4 PUSH2 0x337C JUMP JUMPDEST PUSH2 0xA2E JUMP JUMPDEST PUSH2 0x279 PUSH2 0x29C CALLDATASIZE PUSH1 0x4 PUSH2 0x319C JUMP JUMPDEST PUSH2 0xAA2 JUMP JUMPDEST PUSH2 0x1DD PUSH2 0x2AF CALLDATASIZE PUSH1 0x4 PUSH2 0x319C JUMP JUMPDEST PUSH2 0xB28 JUMP JUMPDEST PUSH2 0x2C7 PUSH2 0x2C2 CALLDATASIZE PUSH1 0x4 PUSH2 0x33A6 JUMP JUMPDEST PUSH2 0xB3E JUMP JUMPDEST PUSH1 0x40 MLOAD PUSH2 0x1E7 SWAP2 SWAP1 PUSH2 0x33C6 JUMP JUMPDEST PUSH2 0x2E7 PUSH2 0x2E2 CALLDATASIZE PUSH1 0x4 PUSH2 0x319C JUMP JUMPDEST PUSH2 0xC8D JUMP JUMPDEST PUSH1 0x40 MLOAD PUSH2 0x1E7 SWAP2 SWAP1 PUSH2 0x3435 JUMP JUMPDEST PUSH2 0x2E7 PUSH2 0x302 CALLDATASIZE PUSH1 0x4 PUSH2 0x319C JUMP JUMPDEST PUSH2 0xD01 JUMP JUMPDEST PUSH2 0x279 PUSH2 0x315 CALLDATASIZE PUSH1 0x4 PUSH2 0x319C JUMP JUMPDEST PUSH2 0xD2B JUMP JUMPDEST PUSH2 0x2C7 PUSH2 0x328 CALLDATASIZE PUSH1 0x4 PUSH2 0x33A6 JUMP JUMPDEST PUSH2 0xD38 JUMP JUMPDEST PUSH2 0x251 PUSH2 0x33B CALLDATASIZE PUSH1 0x4 PUSH2 0x3181 JUMP JUMPDEST PUSH2 0xE7C JUMP JUMPDEST PUSH2 0x279 PUSH2 0x34E CALLDATASIZE PUSH1 0x4 PUSH2 0x3464 JUMP JUMPDEST PUSH2 0xF5E JUMP JUMPDEST PUSH2 0x1DD PUSH2 0x11F0 JUMP JUMPDEST PUSH2 0x1DD PUSH2 0x369 CALLDATASIZE PUSH1 0x4 PUSH2 0x348D JUMP JUMPDEST PUSH2 0x11FB JUMP JUMPDEST PUSH2 0x1DD PUSH2 0x37C CALLDATASIZE PUSH1 0x4 PUSH2 0x3181 JUMP JUMPDEST PUSH2 0x143D JUMP JUMPDEST PUSH2 0x279 PUSH2 0x38F CALLDATASIZE PUSH1 0x4 PUSH2 0x352B JUMP JUMPDEST PUSH2 0x145A JUMP JUMPDEST PUSH2 0x251 PUSH2 0x3A2 CALLDATASIZE PUSH1 0x4 PUSH2 0x3181 JUMP JUMPDEST PUSH2 0x1507 JUMP JUMPDEST PUSH2 0x3BA PUSH2 0x3B5 CALLDATASIZE PUSH1 0x4 PUSH2 0x35B5 JUMP JUMPDEST PUSH2 0x15E1 JUMP JUMPDEST PUSH1 0x40 MLOAD PUSH2 0x1E7 SWAP2 SWAP1 PUSH2 0x3689 JUMP JUMPDEST PUSH2 0x402 PUSH2 0x3D5 CALLDATASIZE PUSH1 0x4 PUSH2 0x3181 JUMP JUMPDEST PUSH1 0x7 PUSH1 0x20 MSTORE PUSH0 SWAP1 DUP2 MSTORE PUSH1 0x40 SWAP1 KECCAK256 DUP1 SLOAD PUSH1 0x1 DUP3 ADD SLOAD PUSH1 0x2 SWAP1 SWAP3 ADD SLOAD PUSH1 0x1 PUSH1 0x1 PUSH1 0xA0 SHL SUB SWAP2 DUP3 AND SWAP3 SWAP1 SWAP2 AND SWAP1 DUP4 JUMP JUMPDEST PUSH1 0x40 DUP1 MLOAD PUSH1 0x1 PUSH1 0x1 PUSH1 0xA0 SHL SUB SWAP5 DUP6 AND DUP2 MSTORE SWAP4 SWAP1 SWAP3 AND PUSH1 0x20 DUP5 ADD MSTORE SWAP1 DUP3 ADD MSTORE PUSH1 0x60 ADD PUSH2 0x1E7 JUMP JUMPDEST PUSH2 0x1DD PUSH2 0x436 CALLDATASIZE PUSH1 0x4 PUSH2 0x3181 JUMP JUMPDEST PUSH2 0x17ED JUMP JUMPDEST PUSH2 0x1DD PUSH2 0x449 CALLDATASIZE PUSH1 0x4 PUSH2 0x3181 JUMP JUMPDEST PUSH2 0x180D JUMP JUMPDEST PUSH2 0x216 PUSH2 0x45C CALLDATASIZE PUSH1 0x4 PUSH2 0x337C JUMP JUMPDEST PUSH2 0x182D JUMP JUMPDEST PUSH0 SLOAD PUSH2 0x1DD JUMP JUMPDEST PUSH0 PUSH1 0x1 PUSH1 0x1 PUSH1 0xA0 SHL SUB DUP7 AND PUSH2 0x498 JUMPI PUSH1 0x40 MLOAD PUSH3 0x461BCD PUSH1 0xE5 SHL DUP2 MSTORE PUSH1 0x4 ADD PUSH2 0x48F SWAP1 PUSH2 0x36C0 JUMP JUMPDEST PUSH1 0x40 MLOAD DUP1 SWAP2 SUB SWAP1 REVERT JUMPDEST PUSH0 DUP5 GT PUSH2 0x4E7 JUMPI PUSH1 0x40 MLOAD PUSH3 0x461BCD PUSH1 0xE5 SHL DUP2 MSTORE PUSH1 0x20 PUSH1 0x4 DUP3 ADD MSTORE PUSH1 0x1F PUSH1 0x24 DUP3 ADD MSTORE PUSH32 0x416D6F756E742073686F756C642062652067726561746572207468616E203000 PUSH1 0x44 DUP3 ADD MSTORE PUSH1 0x64 ADD PUSH2 0x48F JUMP JUMPDEST TIMESTAMP DUP4 GT PUSH2 0x542 JUMPI PUSH1 0x40 MLOAD PUSH3 0x461BCD PUSH1 0xE5 SHL DUP2 MSTORE PUSH1 0x20 PUSH1 0x4 DUP3 ADD MSTORE PUSH1 0x23 PUSH1 0x24 DUP3 ADD MSTORE PUSH32 0x556E6C6F636B20646174652073686F756C6420626520696E2074686520667574 PUSH1 0x44 DUP3 ADD MSTORE PUSH3 0x757265 PUSH1 0xE8 SHL PUSH1 0x64 DUP3 ADD MSTORE PUSH1 0x84 ADD PUSH2 0x48F JUMP JUMPDEST PUSH2 0x553 DUP8 DUP8 DUP8 DUP8 DUP8 PUSH0 DUP1 PUSH0 DUP11 PUSH2 0x18A1 JUMP JUMPDEST SWAP1 POP PUSH2 0x561 DUP7 CALLER ADDRESS DUP8 PUSH2 0x18EB JUMP JUMPDEST DUP1 PUSH32 0x694AF1CC8727CDD0AFBDD53D9B87B69248BD490224E9DD090E788546506E076F DUP8 DUP10 DUP8 DUP8 PUSH1 0x40 MLOAD PUSH2 0x597 SWAP5 SWAP4 SWAP3 SWAP2 SWAP1 PUSH2 0x36E7 JUMP JUMPDEST PUSH1 0x40 MLOAD DUP1 SWAP2 SUB SWAP1 LOG2 SWAP7 SWAP6 POP POP POP POP POP POP JUMP JUMPDEST PUSH1 0x1 PUSH1 0x1 PUSH1 0xA0 SHL SUB DUP2 AND PUSH0 SWAP1 DUP2 MSTORE PUSH1 0x1 PUSH1 0x20 MSTORE PUSH1 0x40 DUP2 KECCAK256 PUSH2 0x5C9 SWAP1 PUSH2 0x1A3A JUMP JUMPDEST SWAP3 SWAP2 POP POP JUMP JUMPDEST PUSH2 0x5D7 PUSH2 0x2FC6 JUMP JUMPDEST PUSH0 PUSH2 0x5E1 DUP4 PUSH2 0x1A43 JUMP JUMPDEST DUP2 SLOAD DUP2 LT PUSH2 0x5F1 JUMPI PUSH2 0x5F1 PUSH2 0x3710 JUMP JUMPDEST PUSH0 SWAP2 DUP3 MSTORE PUSH1 0x20 SWAP2 DUP3 SWAP1 KECCAK256 PUSH1 0x40 DUP1 MLOAD PUSH2 0x160 DUP2 ADD DUP3 MSTORE PUSH1 0xB SWAP1 SWAP4 MUL SWAP1 SWAP2 ADD DUP1 SLOAD DUP4 MSTORE PUSH1 0x1 DUP2 ADD SLOAD PUSH1 0x1 PUSH1 0x1 PUSH1 0xA0 SHL SUB SWAP1 DUP2 AND SWAP5 DUP5 ADD SWAP5 SWAP1 SWAP5 MSTORE PUSH1 0x2 DUP2 ADD SLOAD SWAP1 SWAP4 AND SWAP1 DUP3 ADD MSTORE PUSH1 0x3 DUP3 ADD SLOAD PUSH1 0x60 DUP3 ADD MSTORE PUSH1 0x4 DUP3 ADD SLOAD PUSH1 0x80 DUP3 ADD MSTORE PUSH1 0x5 DUP3 ADD SLOAD PUSH1 0xA0 DUP3 ADD MSTORE PUSH1 0x6 DUP3 ADD SLOAD PUSH1 0xC0 DUP3 ADD MSTORE PUSH1 0x7 DUP3 ADD SLOAD PUSH1 0xE0 DUP3 ADD MSTORE PUSH1 0x8 DUP3 ADD SLOAD PUSH2 0x100 DUP3 ADD MSTORE PUSH1 0x9 DUP3 ADD SLOAD PUSH2 0x120 DUP3 ADD MSTORE PUSH1 0xA DUP3 ADD DUP1 SLOAD SWAP2 SWAP3 SWAP2 PUSH2 0x140 DUP5 ADD SWAP2 SWAP1 PUSH2 0x696 SWAP1 PUSH2 0x3724 JUMP JUMPDEST DUP1 PUSH1 0x1F ADD PUSH1 0x20 DUP1 SWAP2 DIV MUL PUSH1 0x20 ADD PUSH1 0x40 MLOAD SWAP1 DUP2 ADD PUSH1 0x40 MSTORE DUP1 SWAP3 SWAP2 SWAP1 DUP2 DUP2 MSTORE PUSH1 0x20 ADD DUP3 DUP1 SLOAD PUSH2 0x6C2 SWAP1 PUSH2 0x3724 JUMP JUMPDEST DUP1 ISZERO PUSH2 0x70D JUMPI DUP1 PUSH1 0x1F LT PUSH2 0x6E4 JUMPI PUSH2 0x100 DUP1 DUP4 SLOAD DIV MUL DUP4 MSTORE SWAP2 PUSH1 0x20 ADD SWAP2 PUSH2 0x70D JUMP JUMPDEST DUP3 ADD SWAP2 SWAP1 PUSH0 MSTORE PUSH1 0x20 PUSH0 KECCAK256 SWAP1 JUMPDEST DUP2 SLOAD DUP2 MSTORE SWAP1 PUSH1 0x1 ADD SWAP1 PUSH1 0x20 ADD DUP1 DUP4 GT PUSH2 0x6F0 JUMPI DUP3 SWAP1 SUB PUSH1 0x1F AND DUP3 ADD SWAP2 JUMPDEST POP POP POP POP POP DUP2 MSTORE POP POP SWAP1 POP SWAP2 SWAP1 POP JUMP JUMPDEST PUSH2 0x725 PUSH2 0x2FC6 JUMP JUMPDEST PUSH0 DUP3 DUP2 SLOAD DUP2 LT PUSH2 0x5F1 JUMPI PUSH2 0x5F1 PUSH2 0x3710 JUMP JUMPDEST PUSH0 PUSH2 0x740 PUSH2 0x898 JUMP JUMPDEST PUSH2 0x748 PUSH2 0x11F0 JUMP JUMPDEST PUSH2 0x752 SWAP2 SWAP1 PUSH2 0x3770 JUMP JUMPDEST SWAP1 POP SWAP1 JUMP JUMPDEST PUSH1 0x1 PUSH1 0x1 PUSH1 0xA0 SHL SUB DUP4 AND PUSH0 SWAP1 DUP2 MSTORE PUSH1 0x8 PUSH1 0x20 MSTORE PUSH1 0x40 SWAP1 KECCAK256 PUSH1 0x60 SWAP1 PUSH2 0x77A SWAP1 PUSH2 0x1A3A JUMP JUMPDEST DUP3 LT PUSH2 0x7B0 JUMPI PUSH1 0x1 PUSH1 0x1 PUSH1 0xA0 SHL SUB DUP5 AND PUSH0 SWAP1 DUP2 MSTORE PUSH1 0x8 PUSH1 0x20 MSTORE PUSH1 0x40 SWAP1 KECCAK256 PUSH1 0x1 SWAP1 PUSH2 0x7A3 SWAP1 PUSH2 0x1A3A JUMP JUMPDEST PUSH2 0x7AD SWAP2 SWAP1 PUSH2 0x3783 JUMP JUMPDEST SWAP2 POP JUMPDEST PUSH0 PUSH2 0x7BB DUP5 DUP5 PUSH2 0x3783 JUMP JUMPDEST PUSH2 0x7C6 SWAP1 PUSH1 0x1 PUSH2 0x3770 JUMP JUMPDEST SWAP1 POP PUSH0 DUP2 PUSH1 0x1 PUSH1 0x1 PUSH1 0x40 SHL SUB DUP2 GT ISZERO PUSH2 0x7E1 JUMPI PUSH2 0x7E1 PUSH2 0x3064 JUMP JUMPDEST PUSH1 0x40 MLOAD SWAP1 DUP1 DUP3 MSTORE DUP1 PUSH1 0x20 MUL PUSH1 0x20 ADD DUP3 ADD PUSH1 0x40 MSTORE DUP1 ISZERO PUSH2 0x81A JUMPI DUP2 PUSH1 0x20 ADD JUMPDEST PUSH2 0x807 PUSH2 0x2FC6 JUMP JUMPDEST DUP2 MSTORE PUSH1 0x20 ADD SWAP1 PUSH1 0x1 SWAP1 SUB SWAP1 DUP2 PUSH2 0x7FF JUMPI SWAP1 POP JUMPDEST POP SWAP1 POP PUSH0 DUP6 JUMPDEST DUP6 DUP2 GT PUSH2 0x88A JUMPI PUSH1 0x1 PUSH1 0x1 PUSH1 0xA0 SHL SUB DUP9 AND PUSH0 SWAP1 DUP2 MSTORE PUSH1 0x8 PUSH1 0x20 MSTORE PUSH1 0x40 SWAP1 KECCAK256 PUSH2 0x84C SWAP1 PUSH2 0x211 SWAP1 DUP4 PUSH2 0x1ADC JUMP JUMPDEST DUP4 DUP4 DUP2 MLOAD DUP2 LT PUSH2 0x85E JUMPI PUSH2 0x85E PUSH2 0x3710 JUMP JUMPDEST PUSH1 0x20 MUL PUSH1 0x20 ADD ADD DUP2 SWAP1 MSTORE POP DUP2 DUP1 PUSH2 0x874 SWAP1 PUSH2 0x3796 JUMP JUMPDEST SWAP3 POP POP DUP1 DUP1 PUSH2 0x882 SWAP1 PUSH2 0x3796 JUMP JUMPDEST SWAP2 POP POP PUSH2 0x820 JUMP JUMPDEST POP SWAP1 SWAP3 POP POP POP JUMPDEST SWAP4 SWAP3 POP POP POP JUMP JUMPDEST PUSH0 PUSH2 0x752 PUSH1 0x5 PUSH2 0x1A3A JUMP JUMPDEST DUP2 PUSH2 0x8AD DUP2 PUSH2 0x1A43 JUMP JUMPDEST POP PUSH0 DUP1 PUSH2 0x8B9 DUP6 PUSH2 0x1A43 JUMP JUMPDEST DUP2 SLOAD DUP2 LT PUSH2 0x8C9 JUMPI PUSH2 0x8C9 PUSH2 0x3710 JUMP JUMPDEST PUSH0 SWAP2 DUP3 MSTORE PUSH1 0x20 SWAP1 SWAP2 KECCAK256 PUSH1 0xB SWAP1 SWAP2 MUL ADD PUSH1 0x2 DUP2 ADD SLOAD SWAP1 SWAP2 POP PUSH1 0x1 PUSH1 0x1 PUSH1 0xA0 SHL SUB AND CALLER DUP2 EQ PUSH2 0x908 JUMPI PUSH1 0x40 MLOAD PUSH3 0x461BCD PUSH1 0xE5 SHL DUP2 MSTORE PUSH1 0x4 ADD PUSH2 0x48F SWAP1 PUSH2 0x37AE JUMP JUMPDEST PUSH1 0x2 DUP3 ADD DUP1 SLOAD PUSH1 0x1 PUSH1 0x1 PUSH1 0xA0 SHL SUB NOT AND PUSH1 0x1 PUSH1 0x1 PUSH1 0xA0 SHL SUB DUP7 DUP2 AND SWAP2 SWAP1 SWAP2 OR SWAP1 SWAP2 SSTORE PUSH1 0x1 DUP1 DUP5 ADD SLOAD DUP3 AND PUSH0 SWAP1 DUP2 MSTORE PUSH1 0x7 PUSH1 0x20 MSTORE PUSH1 0x40 SWAP1 KECCAK256 SWAP1 DUP2 ADD SLOAD SWAP1 SWAP2 AND ISZERO DUP1 ISZERO SWAP1 PUSH2 0x997 JUMPI PUSH1 0x1 PUSH1 0x1 PUSH1 0xA0 SHL SUB DUP4 AND PUSH0 SWAP1 DUP2 MSTORE PUSH1 0x1 PUSH1 0x20 MSTORE PUSH1 0x40 SWAP1 KECCAK256 PUSH2 0x96F SWAP1 DUP9 PUSH2 0x1AE7 JUMP JUMPDEST POP PUSH1 0x1 PUSH1 0x1 PUSH1 0xA0 SHL SUB DUP7 AND PUSH0 SWAP1 DUP2 MSTORE PUSH1 0x1 PUSH1 0x20 MSTORE PUSH1 0x40 SWAP1 KECCAK256 PUSH2 0x991 SWAP1 DUP9 PUSH2 0x1AF2 JUMP JUMPDEST POP PUSH2 0x9DC JUMP JUMPDEST PUSH1 0x1 PUSH1 0x1 PUSH1 0xA0 SHL SUB DUP4 AND PUSH0 SWAP1 DUP2 MSTORE PUSH1 0x2 PUSH1 0x20 MSTORE PUSH1 0x40 SWAP1 KECCAK256 PUSH2 0x9B8 SWAP1 DUP9 PUSH2 0x1AE7 JUMP JUMPDEST POP PUSH1 0x1 PUSH1 0x1 PUSH1 0xA0 SHL SUB DUP7 AND PUSH0 SWAP1 DUP2 MSTORE PUSH1 0x2 PUSH1 0x20 MSTORE PUSH1 0x40 SWAP1 KECCAK256 PUSH2 0x9DA SWAP1 DUP9 PUSH2 0x1AF2 JUMP JUMPDEST POP JUMPDEST PUSH1 0x40 DUP1 MLOAD DUP9 DUP2 MSTORE PUSH1 0x1 PUSH1 0x1 PUSH1 0xA0 SHL SUB DUP6 DUP2 AND PUSH1 0x20 DUP4 ADD MSTORE DUP9 AND DUP2 DUP4 ADD MSTORE SWAP1 MLOAD PUSH32 0x9075AD040756C0D8743A1FED927066A92C4755071615BF61E04B17583D961CAF SWAP2 DUP2 SWAP1 SUB PUSH1 0x60 ADD SWAP1 LOG1 POP POP POP POP POP POP POP JUMP JUMPDEST PUSH2 0xA36 PUSH2 0x2FC6 JUMP JUMPDEST DUP2 PUSH2 0xA40 DUP5 PUSH2 0x180D JUMP JUMPDEST GT PUSH2 0xA7D JUMPI PUSH1 0x40 MLOAD PUSH3 0x461BCD PUSH1 0xE5 SHL DUP2 MSTORE PUSH1 0x20 PUSH1 0x4 DUP3 ADD MSTORE PUSH1 0xD PUSH1 0x24 DUP3 ADD MSTORE PUSH13 0x92DCECC2D8D2C840D2DCC8CAF PUSH1 0x9B SHL PUSH1 0x44 DUP3 ADD MSTORE PUSH1 0x64 ADD PUSH2 0x48F JUMP JUMPDEST PUSH1 0x1 PUSH1 0x1 PUSH1 0xA0 SHL SUB DUP4 AND PUSH0 SWAP1 DUP2 MSTORE PUSH1 0x2 PUSH1 0x20 MSTORE PUSH1 0x40 SWAP1 KECCAK256 PUSH2 0x891 SWAP1 PUSH2 0x211 SWAP1 DUP5 PUSH2 0x1ADC JUMP JUMPDEST DUP1 PUSH2 0xAAC DUP2 PUSH2 0x1A43 JUMP JUMPDEST POP PUSH0 DUP1 PUSH2 0xAB8 DUP5 PUSH2 0x1A43 JUMP JUMPDEST DUP2 SLOAD DUP2 LT PUSH2 0xAC8 JUMPI PUSH2 0xAC8 PUSH2 0x3710 JUMP JUMPDEST PUSH0 SWAP2 DUP3 MSTORE PUSH1 0x20 SWAP1 SWAP2 KECCAK256 PUSH1 0x2 PUSH1 0xB SWAP1 SWAP3 MUL ADD SWAP1 DUP2 ADD SLOAD SWAP1 SWAP2 POP PUSH1 0x1 PUSH1 0x1 PUSH1 0xA0 SHL SUB AND CALLER EQ PUSH2 0xB07 JUMPI PUSH1 0x40 MLOAD PUSH3 0x461BCD PUSH1 0xE5 SHL DUP2 MSTORE PUSH1 0x4 ADD PUSH2 0x48F SWAP1 PUSH2 0x37AE JUMP JUMPDEST PUSH1 0x6 DUP2 ADD SLOAD ISZERO PUSH2 0xB1F JUMPI PUSH2 0xB1A DUP2 PUSH2 0x1AFD JUMP JUMPDEST POP POP POP JUMP JUMPDEST PUSH2 0xB1A DUP2 PUSH2 0x1E87 JUMP JUMPDEST PUSH0 DUP1 PUSH2 0xB33 DUP4 PUSH2 0x5CF JUMP JUMPDEST SWAP1 POP PUSH2 0x891 DUP2 PUSH2 0x20A0 JUMP JUMPDEST PUSH1 0x60 PUSH2 0xB4A PUSH1 0x5 PUSH2 0x1A3A JUMP JUMPDEST DUP3 LT PUSH2 0xB69 JUMPI PUSH1 0x1 PUSH2 0xB5C PUSH1 0x5 PUSH2 0x1A3A JUMP JUMPDEST PUSH2 0xB66 SWAP2 SWAP1 PUSH2 0x3783 JUMP JUMPDEST SWAP2 POP JUMPDEST PUSH0 PUSH2 0xB74 DUP5 DUP5 PUSH2 0x3783 JUMP JUMPDEST PUSH2 0xB7F SWAP1 PUSH1 0x1 PUSH2 0x3770 JUMP JUMPDEST SWAP1 POP PUSH0 DUP2 PUSH1 0x1 PUSH1 0x1 PUSH1 0x40 SHL SUB DUP2 GT ISZERO PUSH2 0xB9A JUMPI PUSH2 0xB9A PUSH2 0x3064 JUMP JUMPDEST PUSH1 0x40 MLOAD SWAP1 DUP1 DUP3 MSTORE DUP1 PUSH1 0x20 MUL PUSH1 0x20 ADD DUP3 ADD PUSH1 0x40 MSTORE DUP1 ISZERO PUSH2 0xBE3 JUMPI DUP2 PUSH1 0x20 ADD JUMPDEST PUSH1 0x40 DUP1 MLOAD PUSH1 0x60 DUP2 ADD DUP3 MSTORE PUSH0 DUP1 DUP3 MSTORE PUSH1 0x20 DUP1 DUP4 ADD DUP3 SWAP1 MSTORE SWAP3 DUP3 ADD MSTORE DUP3 MSTORE PUSH0 NOT SWAP1 SWAP3 ADD SWAP2 ADD DUP2 PUSH2 0xBB8 JUMPI SWAP1 POP JUMPDEST POP SWAP1 POP PUSH0 DUP6 JUMPDEST DUP6 DUP2 GT PUSH2 0xC82 JUMPI PUSH1 0x7 PUSH0 PUSH2 0xBFE PUSH1 0x5 DUP5 PUSH2 0x1ADC JUMP JUMPDEST PUSH1 0x1 PUSH1 0x1 PUSH1 0xA0 SHL SUB SWAP1 DUP2 AND DUP3 MSTORE PUSH1 0x20 DUP1 DUP4 ADD SWAP4 SWAP1 SWAP4 MSTORE PUSH1 0x40 SWAP2 DUP3 ADD PUSH0 KECCAK256 DUP3 MLOAD PUSH1 0x60 DUP2 ADD DUP5 MSTORE DUP2 SLOAD DUP4 AND DUP2 MSTORE PUSH1 0x1 DUP3 ADD SLOAD SWAP1 SWAP3 AND SWAP4 DUP3 ADD SWAP4 SWAP1 SWAP4 MSTORE PUSH1 0x2 SWAP1 SWAP3 ADD SLOAD SWAP1 DUP3 ADD MSTORE DUP4 MLOAD DUP5 SWAP1 DUP5 SWAP1 DUP2 LT PUSH2 0xC56 JUMPI PUSH2 0xC56 PUSH2 0x3710 JUMP JUMPDEST PUSH1 0x20 MUL PUSH1 0x20 ADD ADD DUP2 SWAP1 MSTORE POP DUP2 DUP1 PUSH2 0xC6C SWAP1 PUSH2 0x3796 JUMP JUMPDEST SWAP3 POP POP DUP1 DUP1 PUSH2 0xC7A SWAP1 PUSH2 0x3796 JUMP JUMPDEST SWAP2 POP POP PUSH2 0xBE9 JUMP JUMPDEST POP SWAP1 SWAP6 SWAP5 POP POP POP POP POP JUMP JUMPDEST PUSH1 0x40 DUP1 MLOAD PUSH1 0x60 DUP2 ADD DUP3 MSTORE PUSH0 DUP1 DUP3 MSTORE PUSH1 0x20 DUP3 ADD DUP2 SWAP1 MSTORE SWAP2 DUP2 ADD SWAP2 SWAP1 SWAP2 MSTORE PUSH1 0x7 PUSH0 PUSH2 0xCB7 PUSH1 0x5 DUP6 PUSH2 0x1ADC JUMP JUMPDEST PUSH1 0x1 PUSH1 0x1 PUSH1 0xA0 SHL SUB SWAP1 DUP2 AND DUP3 MSTORE PUSH1 0x20 DUP1 DUP4 ADD SWAP4 SWAP1 SWAP4 MSTORE PUSH1 0x40 SWAP2 DUP3 ADD PUSH0 KECCAK256 DUP3 MLOAD PUSH1 0x60 DUP2 ADD DUP5 MSTORE DUP2 SLOAD DUP4 AND DUP2 MSTORE PUSH1 0x1 DUP3 ADD SLOAD SWAP1 SWAP3 AND SWAP4 DUP3 ADD SWAP4 SWAP1 SWAP4 MSTORE PUSH1 0x2 SWAP1 SWAP3 ADD SLOAD SWAP1 DUP3 ADD MSTORE SWAP3 SWAP2 POP POP JUMP JUMPDEST PUSH1 0x40 DUP1 MLOAD PUSH1 0x60 DUP2 ADD DUP3 MSTORE PUSH0 DUP1 DUP3 MSTORE PUSH1 0x20 DUP3 ADD DUP2 SWAP1 MSTORE SWAP2 DUP2 ADD SWAP2 SWAP1 SWAP2 MSTORE PUSH1 0x7 PUSH0 PUSH2 0xCB7 PUSH1 0x3 DUP6 PUSH2 0x1ADC JUMP JUMPDEST PUSH2 0xD35 DUP2 PUSH0 PUSH2 0x8A3 JUMP JUMPDEST POP JUMP JUMPDEST PUSH1 0x60 PUSH2 0xD44 PUSH1 0x3 PUSH2 0x1A3A JUMP JUMPDEST DUP3 LT PUSH2 0xD63 JUMPI PUSH1 0x1 PUSH2 0xD56 PUSH1 0x3 PUSH2 0x1A3A JUMP JUMPDEST PUSH2 0xD60 SWAP2 SWAP1 PUSH2 0x3783 JUMP JUMPDEST SWAP2 POP JUMPDEST PUSH0 PUSH2 0xD6E DUP5 DUP5 PUSH2 0x3783 JUMP JUMPDEST PUSH2 0xD79 SWAP1 PUSH1 0x1 PUSH2 0x3770 JUMP JUMPDEST SWAP1 POP PUSH0 DUP2 PUSH1 0x1 PUSH1 0x1 PUSH1 0x40 SHL SUB DUP2 GT ISZERO PUSH2 0xD94 JUMPI PUSH2 0xD94 PUSH2 0x3064 JUMP JUMPDEST PUSH1 0x40 MLOAD SWAP1 DUP1 DUP3 MSTORE DUP1 PUSH1 0x20 MUL PUSH1 0x20 ADD DUP3 ADD PUSH1 0x40 MSTORE DUP1 ISZERO PUSH2 0xDDD JUMPI DUP2 PUSH1 0x20 ADD JUMPDEST PUSH1 0x40 DUP1 MLOAD PUSH1 0x60 DUP2 ADD DUP3 MSTORE PUSH0 DUP1 DUP3 MSTORE PUSH1 0x20 DUP1 DUP4 ADD DUP3 SWAP1 MSTORE SWAP3 DUP3 ADD MSTORE DUP3 MSTORE PUSH0 NOT SWAP1 SWAP3 ADD SWAP2 ADD DUP2 PUSH2 0xDB2 JUMPI SWAP1 POP JUMPDEST POP SWAP1 POP PUSH0 DUP6 JUMPDEST DUP6 DUP2 GT PUSH2 0xC82 JUMPI PUSH1 0x7 PUSH0 PUSH2 0xDF8 PUSH1 0x3 DUP5 PUSH2 0x1ADC JUMP JUMPDEST PUSH1 0x1 PUSH1 0x1 PUSH1 0xA0 SHL SUB SWAP1 DUP2 AND DUP3 MSTORE PUSH1 0x20 DUP1 DUP4 ADD SWAP4 SWAP1 SWAP4 MSTORE PUSH1 0x40 SWAP2 DUP3 ADD PUSH0 KECCAK256 DUP3 MLOAD PUSH1 0x60 DUP2 ADD DUP5 MSTORE DUP2 SLOAD DUP4 AND DUP2 MSTORE PUSH1 0x1 DUP3 ADD SLOAD SWAP1 SWAP3 AND SWAP4 DUP3 ADD SWAP4 SWAP1 SWAP4 MSTORE PUSH1 0x2 SWAP1 SWAP3 ADD SLOAD SWAP1 DUP3 ADD MSTORE DUP4 MLOAD DUP5 SWAP1 DUP5 SWAP1 DUP2 LT PUSH2 0xE50 JUMPI PUSH2 0xE50 PUSH2 0x3710 JUMP JUMPDEST PUSH1 0x20 MUL PUSH1 0x20 ADD ADD DUP2 SWAP1 MSTORE POP DUP2 DUP1 PUSH2 0xE66 SWAP1 PUSH2 0x3796 JUMP JUMPDEST SWAP3 POP POP DUP1 DUP1 PUSH2 0xE74 SWAP1 PUSH2 0x3796 JUMP JUMPDEST SWAP2 POP POP PUSH2 0xDE3 JUMP JUMPDEST PUSH1 0x1 PUSH1 0x1 PUSH1 0xA0 SHL SUB DUP2 AND PUSH0 SWAP1 DUP2 MSTORE PUSH1 0x1 PUSH1 0x20 MSTORE PUSH1 0x40 DUP2 KECCAK256 PUSH1 0x60 SWAP2 SWAP1 PUSH2 0xEA0 SWAP1 PUSH2 0x1A3A JUMP JUMPDEST SWAP1 POP PUSH0 DUP2 PUSH1 0x1 PUSH1 0x1 PUSH1 0x40 SHL SUB DUP2 GT ISZERO PUSH2 0xEBB JUMPI PUSH2 0xEBB PUSH2 0x3064 JUMP JUMPDEST PUSH1 0x40 MLOAD SWAP1 DUP1 DUP3 MSTORE DUP1 PUSH1 0x20 MUL PUSH1 0x20 ADD DUP3 ADD PUSH1 0x40 MSTORE DUP1 ISZERO PUSH2 0xEF4 JUMPI DUP2 PUSH1 0x20 ADD JUMPDEST PUSH2 0xEE1 PUSH2 0x2FC6 JUMP JUMPDEST DUP2 MSTORE PUSH1 0x20 ADD SWAP1 PUSH1 0x1 SWAP1 SUB SWAP1 DUP2 PUSH2 0xED9 JUMPI SWAP1 POP JUMPDEST POP SWAP1 POP PUSH0 JUMPDEST DUP3 DUP2 LT ISZERO PUSH2 0xF56 JUMPI PUSH1 0x1 PUSH1 0x1 PUSH1 0xA0 SHL SUB DUP6 AND PUSH0 SWAP1 DUP2 MSTORE PUSH1 0x1 PUSH1 0x20 MSTORE PUSH1 0x40 SWAP1 KECCAK256 PUSH2 0xF26 SWAP1 PUSH2 0x211 SWAP1 DUP4 PUSH2 0x1ADC JUMP JUMPDEST DUP3 DUP3 DUP2 MLOAD DUP2 LT PUSH2 0xF38 JUMPI PUSH2 0xF38 PUSH2 0x3710 JUMP JUMPDEST PUSH1 0x20 MUL PUSH1 0x20 ADD ADD DUP2 SWAP1 MSTORE POP DUP1 DUP1 PUSH2 0xF4E SWAP1 PUSH2 0x3796 JUMP JUMPDEST SWAP2 POP POP PUSH2 0xEF9 JUMP JUMPDEST POP SWAP4 SWAP3 POP POP POP JUMP JUMPDEST DUP3 PUSH2 0xF68 DUP2 PUSH2 0x1A43 JUMP JUMPDEST POP PUSH0 DUP1 PUSH2 0xF74 DUP7 PUSH2 0x1A43 JUMP JUMPDEST DUP2 SLOAD DUP2 LT PUSH2 0xF84 JUMPI PUSH2 0xF84 PUSH2 0x3710 JUMP JUMPDEST PUSH0 SWAP2 DUP3 MSTORE PUSH1 0x20 SWAP1 SWAP2 KECCAK256 PUSH1 0x2 PUSH1 0xB SWAP1 SWAP3 MUL ADD SWAP1 DUP2 ADD SLOAD SWAP1 SWAP2 POP PUSH1 0x1 PUSH1 0x1 PUSH1 0xA0 SHL SUB AND CALLER EQ PUSH2 0xFC3 JUMPI PUSH1 0x40 MLOAD PUSH3 0x461BCD PUSH1 0xE5 SHL DUP2 MSTORE PUSH1 0x4 ADD PUSH2 0x48F SWAP1 PUSH2 0x37AE JUMP JUMPDEST PUSH1 0x9 DUP2 ADD SLOAD ISZERO PUSH2 0x1009 JUMPI PUSH1 0x40 MLOAD PUSH3 0x461BCD PUSH1 0xE5 SHL DUP2 MSTORE PUSH1 0x20 PUSH1 0x4 DUP3 ADD MSTORE PUSH1 0x11 PUSH1 0x24 DUP3 ADD MSTORE PUSH17 0x131BD8DAC81DD85CC81D5B9B1BD8DAD959 PUSH1 0x7A SHL PUSH1 0x44 DUP3 ADD MSTORE PUSH1 0x64 ADD PUSH2 0x48F JUMP JUMPDEST DUP3 ISZERO PUSH2 0x10AA JUMPI DUP1 PUSH1 0x5 ADD SLOAD DUP4 LT ISZERO DUP1 ISZERO PUSH2 0x1022 JUMPI POP TIMESTAMP DUP4 GT JUMPDEST PUSH2 0x10A2 JUMPI PUSH1 0x40 MLOAD PUSH3 0x461BCD PUSH1 0xE5 SHL DUP2 MSTORE PUSH1 0x20 PUSH1 0x4 DUP3 ADD MSTORE PUSH1 0x44 PUSH1 0x24 DUP3 ADD DUP2 SWAP1 MSTORE PUSH32 0x4E657720756E6C6F636B2074696D652073686F756C64206E6F74206265206265 SWAP1 DUP3 ADD MSTORE PUSH32 0x666F7265206F6C6420756E6C6F636B2074696D65206F722063757272656E7420 PUSH1 0x64 DUP3 ADD MSTORE PUSH4 0x74696D65 PUSH1 0xE0 SHL PUSH1 0x84 DUP3 ADD MSTORE PUSH1 0xA4 ADD PUSH2 0x48F JUMP JUMPDEST PUSH1 0x5 DUP2 ADD DUP4 SWAP1 SSTORE JUMPDEST DUP4 ISZERO PUSH2 0x118C JUMPI DUP1 PUSH1 0x3 ADD SLOAD DUP5 LT ISZERO PUSH2 0x111E JUMPI PUSH1 0x40 MLOAD PUSH3 0x461BCD PUSH1 0xE5 SHL DUP2 MSTORE PUSH1 0x20 PUSH1 0x4 DUP3 ADD MSTORE PUSH1 0x31 PUSH1 0x24 DUP3 ADD MSTORE PUSH32 0x4E657720616D6F756E742073686F756C64206E6F74206265206C657373207468 PUSH1 0x44 DUP3 ADD MSTORE PUSH17 0x185B8818DD5C9C995B9D08185B5BDD5B9D PUSH1 0x7A SHL PUSH1 0x64 DUP3 ADD MSTORE PUSH1 0x84 ADD PUSH2 0x48F JUMP JUMPDEST PUSH0 DUP2 PUSH1 0x3 ADD SLOAD DUP6 PUSH2 0x112F SWAP2 SWAP1 PUSH2 0x3783 JUMP JUMPDEST SWAP1 POP DUP1 ISZERO PUSH2 0x118A JUMPI PUSH1 0x3 DUP3 ADD DUP6 SWAP1 SSTORE PUSH1 0x1 DUP3 ADD SLOAD PUSH1 0x1 PUSH1 0x1 PUSH1 0xA0 SHL SUB AND PUSH0 SWAP1 DUP2 MSTORE PUSH1 0x7 PUSH1 0x20 MSTORE PUSH1 0x40 SWAP1 KECCAK256 PUSH1 0x2 DUP2 ADD SLOAD PUSH2 0x1169 SWAP1 DUP4 SWAP1 PUSH2 0x3770 JUMP JUMPDEST PUSH1 0x2 DUP3 ADD SSTORE PUSH1 0x1 DUP4 ADD SLOAD PUSH2 0x1188 SWAP1 PUSH1 0x1 PUSH1 0x1 PUSH1 0xA0 SHL SUB AND CALLER ADDRESS DUP6 PUSH2 0x18EB JUMP JUMPDEST POP JUMPDEST POP JUMPDEST DUP1 SLOAD PUSH1 0x1 DUP3 ADD SLOAD PUSH1 0x2 DUP4 ADD SLOAD PUSH1 0x3 DUP5 ADD SLOAD PUSH1 0x5 DUP6 ADD SLOAD PUSH1 0x40 MLOAD PUSH32 0xA8B26360DF8D5E154FFA5A8A7E894E85F781ACFBBEF0B744FB9551D8FD0FD36C SWAP5 PUSH2 0x11E1 SWAP5 PUSH1 0x1 PUSH1 0x1 PUSH1 0xA0 SHL SUB SWAP2 DUP3 AND SWAP5 SWAP2 AND SWAP3 SWAP1 SWAP2 PUSH2 0x36E7 JUMP JUMPDEST PUSH1 0x40 MLOAD DUP1 SWAP2 SUB SWAP1 LOG2 POP POP POP POP POP JUMP JUMPDEST PUSH0 PUSH2 0x752 PUSH1 0x3 PUSH2 0x1A3A JUMP JUMPDEST PUSH0 PUSH1 0x1 PUSH1 0x1 PUSH1 0xA0 SHL SUB DUP10 AND PUSH2 0x1222 JUMPI PUSH1 0x40 MLOAD PUSH3 0x461BCD PUSH1 0xE5 SHL DUP2 MSTORE PUSH1 0x4 ADD PUSH2 0x48F SWAP1 PUSH2 0x36C0 JUMP JUMPDEST PUSH0 DUP8 GT PUSH2 0x1271 JUMPI PUSH1 0x40 MLOAD PUSH3 0x461BCD PUSH1 0xE5 SHL DUP2 MSTORE PUSH1 0x20 PUSH1 0x4 DUP3 ADD MSTORE PUSH1 0x1F PUSH1 0x24 DUP3 ADD MSTORE PUSH32 0x416D6F756E742073686F756C642062652067726561746572207468616E203000 PUSH1 0x44 DUP3 ADD MSTORE PUSH1 0x64 ADD PUSH2 0x48F JUMP JUMPDEST TIMESTAMP DUP7 GT PUSH2 0x12C0 JUMPI PUSH1 0x40 MLOAD PUSH3 0x461BCD PUSH1 0xE5 SHL DUP2 MSTORE PUSH1 0x20 PUSH1 0x4 DUP3 ADD DUP2 SWAP1 MSTORE PUSH1 0x24 DUP3 ADD MSTORE PUSH32 0x54474520646174652073686F756C6420626520696E2074686520667574757265 PUSH1 0x44 DUP3 ADD MSTORE PUSH1 0x64 ADD PUSH2 0x48F JUMP JUMPDEST PUSH0 DUP5 GT PUSH2 0x12FF JUMPI PUSH1 0x40 MLOAD PUSH3 0x461BCD PUSH1 0xE5 SHL DUP2 MSTORE PUSH1 0x20 PUSH1 0x4 DUP3 ADD MSTORE PUSH1 0xD PUSH1 0x24 DUP3 ADD MSTORE PUSH13 0x496E76616C6964206379636C65 PUSH1 0x98 SHL PUSH1 0x44 DUP3 ADD MSTORE PUSH1 0x64 ADD PUSH2 0x48F JUMP JUMPDEST PUSH0 DUP6 GT DUP1 ISZERO PUSH2 0x130F JUMPI POP PUSH2 0x2710 DUP6 LT JUMPDEST PUSH2 0x1352 JUMPI PUSH1 0x40 MLOAD PUSH3 0x461BCD PUSH1 0xE5 SHL DUP2 MSTORE PUSH1 0x20 PUSH1 0x4 DUP3 ADD MSTORE PUSH1 0x14 PUSH1 0x24 DUP3 ADD MSTORE PUSH20 0x496E76616C6964206269707320666F7220544745 PUSH1 0x60 SHL PUSH1 0x44 DUP3 ADD MSTORE PUSH1 0x64 ADD PUSH2 0x48F JUMP JUMPDEST PUSH0 DUP4 GT DUP1 ISZERO PUSH2 0x1362 JUMPI POP PUSH2 0x2710 DUP4 LT JUMPDEST PUSH2 0x13A7 JUMPI PUSH1 0x40 MLOAD PUSH3 0x461BCD PUSH1 0xE5 SHL DUP2 MSTORE PUSH1 0x20 PUSH1 0x4 DUP3 ADD MSTORE PUSH1 0x16 PUSH1 0x24 DUP3 ADD MSTORE PUSH22 0x496E76616C6964206269707320666F72206379636C65 PUSH1 0x50 SHL PUSH1 0x44 DUP3 ADD MSTORE PUSH1 0x64 ADD PUSH2 0x48F JUMP JUMPDEST PUSH2 0x2710 PUSH2 0x13B4 DUP5 DUP8 PUSH2 0x3770 JUMP JUMPDEST GT ISZERO PUSH2 0x13D2 JUMPI PUSH1 0x40 MLOAD PUSH3 0x461BCD PUSH1 0xE5 SHL DUP2 MSTORE PUSH1 0x4 ADD PUSH2 0x48F SWAP1 PUSH2 0x37F0 JUMP JUMPDEST PUSH2 0x13E3 DUP11 DUP11 DUP11 DUP11 DUP11 DUP11 DUP11 DUP11 DUP11 PUSH2 0x18A1 JUMP JUMPDEST SWAP1 POP PUSH2 0x13F1 DUP10 CALLER ADDRESS DUP11 PUSH2 0x18EB JUMP JUMPDEST DUP1 PUSH32 0x694AF1CC8727CDD0AFBDD53D9B87B69248BD490224E9DD090E788546506E076F DUP11 DUP13 DUP11 DUP11 PUSH1 0x40 MLOAD PUSH2 0x1427 SWAP5 SWAP4 SWAP3 SWAP2 SWAP1 PUSH2 0x36E7 JUMP JUMPDEST PUSH1 0x40 MLOAD DUP1 SWAP2 SUB SWAP1 LOG2 JUMPDEST SWAP10 SWAP9 POP POP POP POP POP POP POP POP POP JUMP JUMPDEST PUSH0 PUSH2 0x1447 DUP3 PUSH2 0x5A9 JUMP JUMPDEST PUSH2 0x1450 DUP4 PUSH2 0x180D JUMP JUMPDEST PUSH2 0x5C9 SWAP2 SWAP1 PUSH2 0x3770 JUMP JUMPDEST DUP2 PUSH2 0x1464 DUP2 PUSH2 0x1A43 JUMP JUMPDEST POP PUSH0 DUP1 PUSH2 0x1470 DUP6 PUSH2 0x1A43 JUMP JUMPDEST DUP2 SLOAD DUP2 LT PUSH2 0x1480 JUMPI PUSH2 0x1480 PUSH2 0x3710 JUMP JUMPDEST PUSH0 SWAP2 DUP3 MSTORE PUSH1 0x20 SWAP1 SWAP2 KECCAK256 PUSH1 0x2 PUSH1 0xB SWAP1 SWAP3 MUL ADD SWAP1 DUP2 ADD SLOAD SWAP1 SWAP2 POP PUSH1 0x1 PUSH1 0x1 PUSH1 0xA0 SHL SUB AND CALLER EQ PUSH2 0x14BF JUMPI PUSH1 0x40 MLOAD PUSH3 0x461BCD PUSH1 0xE5 SHL DUP2 MSTORE PUSH1 0x4 ADD PUSH2 0x48F SWAP1 PUSH2 0x37AE JUMP JUMPDEST PUSH1 0xA DUP2 ADD PUSH2 0x14CD DUP5 DUP3 PUSH2 0x3887 JUMP JUMPDEST POP PUSH1 0x40 MLOAD DUP5 DUP2 MSTORE PUSH32 0xE4A1120FD509C50AEC65802FD3C3C9A4B72BF746FE9A552396185C6DE928E8AA SWAP1 PUSH1 0x20 ADD PUSH1 0x40 MLOAD DUP1 SWAP2 SUB SWAP1 LOG1 POP POP POP POP JUMP JUMPDEST PUSH1 0x1 PUSH1 0x1 PUSH1 0xA0 SHL SUB DUP2 AND PUSH0 SWAP1 DUP2 MSTORE PUSH1 0x2 PUSH1 0x20 MSTORE PUSH1 0x40 DUP2 KECCAK256 PUSH1 0x60 SWAP2 SWAP1 PUSH2 0x152B SWAP1 PUSH2 0x1A3A JUMP JUMPDEST SWAP1 POP PUSH0 DUP2 PUSH1 0x1 PUSH1 0x1 PUSH1 0x40 SHL SUB DUP2 GT ISZERO PUSH2 0x1546 JUMPI PUSH2 0x1546 PUSH2 0x3064 JUMP JUMPDEST PUSH1 0x40 MLOAD SWAP1 DUP1 DUP3 MSTORE DUP1 PUSH1 0x20 MUL PUSH1 0x20 ADD DUP3 ADD PUSH1 0x40 MSTORE DUP1 ISZERO PUSH2 0x157F JUMPI DUP2 PUSH1 0x20 ADD JUMPDEST PUSH2 0x156C PUSH2 0x2FC6 JUMP JUMPDEST DUP2 MSTORE PUSH1 0x20 ADD SWAP1 PUSH1 0x1 SWAP1 SUB SWAP1 DUP2 PUSH2 0x1564 JUMPI SWAP1 POP JUMPDEST POP SWAP1 POP PUSH0 JUMPDEST DUP3 DUP2 LT ISZERO PUSH2 0xF56 JUMPI PUSH1 0x1 PUSH1 0x1 PUSH1 0xA0 SHL SUB DUP6 AND PUSH0 SWAP1 DUP2 MSTORE PUSH1 0x2 PUSH1 0x20 MSTORE PUSH1 0x40 SWAP1 KECCAK256 PUSH2 0x15B1 SWAP1 PUSH2 0x211 SWAP1 DUP4 PUSH2 0x1ADC JUMP JUMPDEST DUP3 DUP3 DUP2 MLOAD DUP2 LT PUSH2 0x15C3 JUMPI PUSH2 0x15C3 PUSH2 0x3710 JUMP JUMPDEST PUSH1 0x20 MUL PUSH1 0x20 ADD ADD DUP2 SWAP1 MSTORE POP DUP1 DUP1 PUSH2 0x15D9 SWAP1 PUSH2 0x3796 JUMP JUMPDEST SWAP2 POP POP PUSH2 0x1584 JUMP JUMPDEST PUSH1 0x60 PUSH1 0x1 PUSH1 0x1 PUSH1 0xA0 SHL SUB DUP9 AND PUSH2 0x1609 JUMPI PUSH1 0x40 MLOAD PUSH3 0x461BCD PUSH1 0xE5 SHL DUP2 MSTORE PUSH1 0x4 ADD PUSH2 0x48F SWAP1 PUSH2 0x36C0 JUMP JUMPDEST DUP11 DUP10 EQ PUSH2 0x164C JUMPI PUSH1 0x40 MLOAD PUSH3 0x461BCD PUSH1 0xE5 SHL DUP2 MSTORE PUSH1 0x20 PUSH1 0x4 DUP3 ADD MSTORE PUSH1 0x11 PUSH1 0x24 DUP3 ADD MSTORE PUSH17 0x13195B99DD1A081B5A5CDB585D18DA1959 PUSH1 0x7A SHL PUSH1 0x44 DUP3 ADD MSTORE PUSH1 0x64 ADD PUSH2 0x48F JUMP JUMPDEST TIMESTAMP DUP7 GT PUSH2 0x169B JUMPI PUSH1 0x40 MLOAD PUSH3 0x461BCD PUSH1 0xE5 SHL DUP2 MSTORE PUSH1 0x20 PUSH1 0x4 DUP3 ADD DUP2 SWAP1 MSTORE PUSH1 0x24 DUP3 ADD MSTORE PUSH32 0x54474520646174652073686F756C6420626520696E2074686520667574757265 PUSH1 0x44 DUP3 ADD MSTORE PUSH1 0x64 ADD PUSH2 0x48F JUMP JUMPDEST PUSH0 DUP5 GT PUSH2 0x16DA JUMPI PUSH1 0x40 MLOAD PUSH3 0x461BCD PUSH1 0xE5 SHL DUP2 MSTORE PUSH1 0x20 PUSH1 0x4 DUP3 ADD MSTORE PUSH1 0xD PUSH1 0x24 DUP3 ADD MSTORE PUSH13 0x496E76616C6964206379636C65 PUSH1 0x98 SHL PUSH1 0x44 DUP3 ADD MSTORE PUSH1 0x64 ADD PUSH2 0x48F JUMP JUMPDEST PUSH0 DUP6 GT DUP1 ISZERO PUSH2 0x16EA JUMPI POP PUSH2 0x2710 DUP6 LT JUMPDEST PUSH2 0x172D JUMPI PUSH1 0x40 MLOAD PUSH3 0x461BCD PUSH1 0xE5 SHL DUP2 MSTORE PUSH1 0x20 PUSH1 0x4 DUP3 ADD MSTORE PUSH1 0x14 PUSH1 0x24 DUP3 ADD MSTORE PUSH20 0x496E76616C6964206269707320666F7220544745 PUSH1 0x60 SHL PUSH1 0x44 DUP3 ADD MSTORE PUSH1 0x64 ADD PUSH2 0x48F JUMP JUMPDEST PUSH0 DUP4 GT DUP1 ISZERO PUSH2 0x173D JUMPI POP PUSH2 0x2710 DUP4 LT JUMPDEST PUSH2 0x1782 JUMPI PUSH1 0x40 MLOAD PUSH3 0x461BCD PUSH1 0xE5 SHL DUP2 MSTORE PUSH1 0x20 PUSH1 0x4 DUP3 ADD MSTORE PUSH1 0x16 PUSH1 0x24 DUP3 ADD MSTORE PUSH22 0x496E76616C6964206269707320666F72206379636C65 PUSH1 0x50 SHL PUSH1 0x44 DUP3 ADD MSTORE PUSH1 0x64 ADD PUSH2 0x48F JUMP JUMPDEST PUSH2 0x2710 PUSH2 0x178F DUP5 DUP8 PUSH2 0x3770 JUMP JUMPDEST GT ISZERO PUSH2 0x17AD JUMPI PUSH1 0x40 MLOAD PUSH3 0x461BCD PUSH1 0xE5 SHL DUP2 MSTORE PUSH1 0x4 ADD PUSH2 0x48F SWAP1 PUSH2 0x37F0 JUMP JUMPDEST PUSH2 0x17DD DUP13 DUP13 DUP13 DUP13 DUP13 DUP13 PUSH1 0x40 MLOAD DUP1 PUSH1 0x80 ADD PUSH1 0x40 MSTORE DUP1 DUP15 DUP2 MSTORE PUSH1 0x20 ADD DUP14 DUP2 MSTORE PUSH1 0x20 ADD DUP13 DUP2 MSTORE PUSH1 0x20 ADD DUP12 DUP2 MSTORE POP DUP10 PUSH2 0x21A9 JUMP JUMPDEST SWAP13 SWAP12 POP POP POP POP POP POP POP POP POP POP POP POP JUMP JUMPDEST PUSH1 0x1 PUSH1 0x1 PUSH1 0xA0 SHL SUB DUP2 AND PUSH0 SWAP1 DUP2 MSTORE PUSH1 0x8 PUSH1 0x20 MSTORE PUSH1 0x40 DUP2 KECCAK256 PUSH2 0x5C9 SWAP1 PUSH2 0x1A3A JUMP JUMPDEST PUSH1 0x1 PUSH1 0x1 PUSH1 0xA0 SHL SUB DUP2 AND PUSH0 SWAP1 DUP2 MSTORE PUSH1 0x2 PUSH1 0x20 MSTORE PUSH1 0x40 DUP2 KECCAK256 PUSH2 0x5C9 SWAP1 PUSH2 0x1A3A JUMP JUMPDEST PUSH2 0x1835 PUSH2 0x2FC6 JUMP JUMPDEST DUP2 PUSH2 0x183F DUP5 PUSH2 0x5A9 JUMP JUMPDEST GT PUSH2 0x187C JUMPI PUSH1 0x40 MLOAD PUSH3 0x461BCD PUSH1 0xE5 SHL DUP2 MSTORE PUSH1 0x20 PUSH1 0x4 DUP3 ADD MSTORE PUSH1 0xD PUSH1 0x24 DUP3 ADD MSTORE PUSH13 0x92DCECC2D8D2C840D2DCC8CAF PUSH1 0x9B SHL PUSH1 0x44 DUP3 ADD MSTORE PUSH1 0x64 ADD PUSH2 0x48F JUMP JUMPDEST PUSH1 0x1 PUSH1 0x1 PUSH1 0xA0 SHL SUB DUP4 AND PUSH0 SWAP1 DUP2 MSTORE PUSH1 0x1 PUSH1 0x20 MSTORE PUSH1 0x40 SWAP1 KECCAK256 PUSH2 0x891 SWAP1 PUSH2 0x211 SWAP1 DUP5 PUSH2 0x1ADC JUMP JUMPDEST PUSH0 DUP8 ISZERO PUSH2 0x18CD JUMPI PUSH0 PUSH2 0x18B2 DUP11 PUSH2 0x239A JUMP JUMPDEST SWAP1 POP PUSH2 0x18C5 DUP12 DUP12 DUP4 DUP12 DUP12 DUP12 DUP12 DUP12 DUP12 PUSH2 0x24AD JUMP JUMPDEST SWAP2 POP POP PUSH2 0x1430 JUMP JUMPDEST PUSH2 0x18DD DUP11 DUP11 DUP10 DUP10 DUP10 DUP10 DUP10 DUP10 PUSH2 0x2582 JUMP JUMPDEST SWAP11 SWAP10 POP POP POP POP POP POP POP POP POP POP JUMP JUMPDEST PUSH1 0x40 MLOAD PUSH4 0x70A08231 PUSH1 0xE0 SHL DUP2 MSTORE PUSH1 0x1 PUSH1 0x1 PUSH1 0xA0 SHL SUB DUP4 DUP2 AND PUSH1 0x4 DUP4 ADD MSTORE PUSH0 SWAP2 SWAP1 DUP7 AND SWAP1 PUSH4 0x70A08231 SWAP1 PUSH1 0x24 ADD PUSH1 0x20 PUSH1 0x40 MLOAD DUP1 DUP4 SUB DUP2 DUP7 GAS STATICCALL ISZERO DUP1 ISZERO PUSH2 0x1932 JUMPI RETURNDATASIZE PUSH0 DUP1 RETURNDATACOPY RETURNDATASIZE PUSH0 REVERT JUMPDEST POP POP POP POP PUSH1 0x40 MLOAD RETURNDATASIZE PUSH1 0x1F NOT PUSH1 0x1F DUP3 ADD AND DUP3 ADD DUP1 PUSH1 0x40 MSTORE POP DUP2 ADD SWAP1 PUSH2 0x1956 SWAP2 SWAP1 PUSH2 0x3942 JUMP JUMPDEST SWAP1 POP PUSH2 0x196D PUSH1 0x1 PUSH1 0x1 PUSH1 0xA0 SHL SUB DUP7 AND DUP6 DUP6 DUP6 PUSH2 0x2650 JUMP JUMPDEST PUSH1 0x40 MLOAD PUSH4 0x70A08231 PUSH1 0xE0 SHL DUP2 MSTORE PUSH1 0x1 PUSH1 0x1 PUSH1 0xA0 SHL SUB DUP5 DUP2 AND PUSH1 0x4 DUP4 ADD MSTORE PUSH0 SWAP2 SWAP1 DUP8 AND SWAP1 PUSH4 0x70A08231 SWAP1 PUSH1 0x24 ADD PUSH1 0x20 PUSH1 0x40 MLOAD DUP1 DUP4 SUB DUP2 DUP7 GAS STATICCALL ISZERO DUP1 ISZERO PUSH2 0x19B4 JUMPI RETURNDATASIZE PUSH0 DUP1 RETURNDATACOPY RETURNDATASIZE PUSH0 REVERT JUMPDEST POP POP POP POP PUSH1 0x40 MLOAD RETURNDATASIZE PUSH1 0x1F NOT PUSH1 0x1F DUP3 ADD AND DUP3 ADD DUP1 PUSH1 0x40 MSTORE POP DUP2 ADD SWAP1 PUSH2 0x19D8 SWAP2 SWAP1 PUSH2 0x3942 JUMP JUMPDEST SWAP1 POP DUP3 PUSH2 0x19E5 DUP4 DUP4 PUSH2 0x3783 JUMP JUMPDEST EQ PUSH2 0x1A32 JUMPI PUSH1 0x40 MLOAD PUSH3 0x461BCD PUSH1 0xE5 SHL DUP2 MSTORE PUSH1 0x20 PUSH1 0x4 DUP3 ADD MSTORE PUSH1 0x1F PUSH1 0x24 DUP3 ADD MSTORE PUSH32 0x4E6F7420656E6F75676820746F6B656E20776173207472616E73666572656400 PUSH1 0x44 DUP3 ADD MSTORE PUSH1 0x64 ADD PUSH2 0x48F JUMP JUMPDEST POP POP POP POP POP POP JUMP JUMPDEST PUSH0 PUSH2 0x5C9 DUP3 SLOAD SWAP1 JUMP JUMPDEST PUSH0 PUSH3 0xF4240 DUP3 LT ISZERO PUSH2 0x1A89 JUMPI PUSH1 0x40 MLOAD PUSH3 0x461BCD PUSH1 0xE5 SHL DUP2 MSTORE PUSH1 0x20 PUSH1 0x4 DUP3 ADD MSTORE PUSH1 0xF PUSH1 0x24 DUP3 ADD MSTORE PUSH15 0x125B9D985B1A59081B1BD8DAC81A59 PUSH1 0x8A SHL PUSH1 0x44 DUP3 ADD MSTORE PUSH1 0x64 ADD PUSH2 0x48F JUMP JUMPDEST PUSH0 PUSH2 0x1A97 PUSH3 0xF4240 DUP5 PUSH2 0x3783 JUMP JUMPDEST PUSH0 SLOAD SWAP1 SWAP2 POP DUP2 LT PUSH2 0x5C9 JUMPI PUSH1 0x40 MLOAD PUSH3 0x461BCD PUSH1 0xE5 SHL DUP2 MSTORE PUSH1 0x20 PUSH1 0x4 DUP3 ADD MSTORE PUSH1 0xF PUSH1 0x24 DUP3 ADD MSTORE PUSH15 0x125B9D985B1A59081B1BD8DAC81A59 PUSH1 0x8A SHL PUSH1 0x44 DUP3 ADD MSTORE PUSH1 0x64 ADD PUSH2 0x48F JUMP JUMPDEST PUSH0 PUSH2 0x891 DUP4 DUP4 PUSH2 0x26C1 JUMP JUMPDEST PUSH0 PUSH2 0x891 DUP4 DUP4 PUSH2 0x26E7 JUMP JUMPDEST PUSH0 PUSH2 0x891 DUP4 DUP4 PUSH2 0x27CA JUMP JUMPDEST PUSH1 0x40 DUP1 MLOAD PUSH2 0x160 DUP2 ADD DUP3 MSTORE DUP3 SLOAD DUP2 MSTORE PUSH1 0x1 DUP4 ADD SLOAD PUSH1 0x1 PUSH1 0x1 PUSH1 0xA0 SHL SUB SWAP1 DUP2 AND PUSH1 0x20 DUP4 ADD MSTORE PUSH1 0x2 DUP5 ADD SLOAD AND SWAP2 DUP2 ADD SWAP2 SWAP1 SWAP2 MSTORE PUSH1 0x3 DUP3 ADD SLOAD PUSH1 0x60 DUP3 ADD MSTORE PUSH1 0x4 DUP3 ADD SLOAD PUSH1 0x80 DUP3 ADD MSTORE PUSH1 0x5 DUP3 ADD SLOAD PUSH1 0xA0 DUP3 ADD MSTORE PUSH1 0x6 DUP3 ADD SLOAD PUSH1 0xC0 DUP3 ADD MSTORE PUSH1 0x7 DUP3 ADD SLOAD PUSH1 0xE0 DUP3 ADD MSTORE PUSH1 0x8 DUP3 ADD SLOAD PUSH2 0x100 DUP3 ADD MSTORE PUSH1 0x9 DUP3 ADD SLOAD PUSH2 0x120 DUP3 ADD MSTORE PUSH1 0xA DUP3 ADD DUP1 SLOAD PUSH0 SWAP3 PUSH2 0x1C1A SWAP3 SWAP1 SWAP2 DUP6 SWAP2 PUSH2 0x140 DUP5 ADD SWAP2 PUSH2 0x1B95 SWAP1 PUSH2 0x3724 JUMP JUMPDEST DUP1 PUSH1 0x1F ADD PUSH1 0x20 DUP1 SWAP2 DIV MUL PUSH1 0x20 ADD PUSH1 0x40 MLOAD SWAP1 DUP2 ADD PUSH1 0x40 MSTORE DUP1 SWAP3 SWAP2 SWAP1 DUP2 DUP2 MSTORE PUSH1 0x20 ADD DUP3 DUP1 SLOAD PUSH2 0x1BC1 SWAP1 PUSH2 0x3724 JUMP JUMPDEST DUP1 ISZERO PUSH2 0x1C0C JUMPI DUP1 PUSH1 0x1F LT PUSH2 0x1BE3 JUMPI PUSH2 0x100 DUP1 DUP4 SLOAD DIV MUL DUP4 MSTORE SWAP2 PUSH1 0x20 ADD SWAP2 PUSH2 0x1C0C JUMP JUMPDEST DUP3 ADD SWAP2 SWAP1 PUSH0 MSTORE PUSH1 0x20 PUSH0 KECCAK256 SWAP1 JUMPDEST DUP2 SLOAD DUP2 MSTORE SWAP1 PUSH1 0x1 ADD SWAP1 PUSH1 0x20 ADD DUP1 DUP4 GT PUSH2 0x1BEF JUMPI DUP3 SWAP1 SUB PUSH1 0x1F AND DUP3 ADD SWAP2 JUMPDEST POP POP POP POP POP DUP2 MSTORE POP POP PUSH2 0x20A0 JUMP JUMPDEST SWAP1 POP PUSH0 DUP2 DUP4 PUSH1 0x9 ADD SLOAD PUSH2 0x1C2D SWAP2 SWAP1 PUSH2 0x3770 JUMP JUMPDEST SWAP1 POP PUSH0 DUP3 GT DUP1 ISZERO PUSH2 0x1C42 JUMPI POP DUP3 PUSH1 0x3 ADD SLOAD DUP2 GT ISZERO JUMPDEST PUSH2 0x1C82 JUMPI PUSH1 0x40 MLOAD PUSH3 0x461BCD PUSH1 0xE5 SHL DUP2 MSTORE PUSH1 0x20 PUSH1 0x4 DUP3 ADD MSTORE PUSH1 0x11 PUSH1 0x24 DUP3 ADD MSTORE PUSH17 0x4E6F7468696E6720746F20756E6C6F636B PUSH1 0x78 SHL PUSH1 0x44 DUP3 ADD MSTORE PUSH1 0x64 ADD PUSH2 0x48F JUMP JUMPDEST PUSH1 0x1 DUP1 DUP5 ADD SLOAD PUSH1 0x1 PUSH1 0x1 PUSH1 0xA0 SHL SUB SWAP1 DUP2 AND PUSH0 SWAP1 DUP2 MSTORE PUSH1 0x7 PUSH1 0x20 MSTORE PUSH1 0x40 SWAP1 KECCAK256 SWAP2 DUP3 ADD SLOAD PUSH1 0x3 DUP7 ADD SLOAD SWAP2 AND ISZERO ISZERO SWAP1 DUP4 SUB PUSH2 0x1D6B JUMPI DUP1 ISZERO PUSH2 0x1CD9 JUMPI DUP5 SLOAD CALLER PUSH0 SWAP1 DUP2 MSTORE PUSH1 0x1 PUSH1 0x20 MSTORE PUSH1 0x40 SWAP1 KECCAK256 PUSH2 0x1CD3 SWAP2 PUSH2 0x1AE7 JUMP JUMPDEST POP PUSH2 0x1CF4 JUMP JUMPDEST DUP5 SLOAD CALLER PUSH0 SWAP1 DUP2 MSTORE PUSH1 0x2 PUSH1 0x20 MSTORE PUSH1 0x40 SWAP1 KECCAK256 PUSH2 0x1CF2 SWAP2 PUSH2 0x1AE7 JUMP JUMPDEST POP JUMPDEST DUP5 SLOAD PUSH1 0x1 DUP7 ADD SLOAD PUSH1 0x1 PUSH1 0x1 PUSH1 0xA0 SHL SUB AND PUSH0 SWAP1 DUP2 MSTORE PUSH1 0x8 PUSH1 0x20 MSTORE PUSH1 0x40 SWAP1 KECCAK256 PUSH2 0x1D1A SWAP2 PUSH2 0x1AE7 JUMP JUMPDEST POP DUP5 SLOAD PUSH1 0x1 DUP7 ADD SLOAD PUSH1 0x40 MLOAD PUSH32 0xC6532367992B32E42A62DD89FC3574876D97D081A263AA6E030F34B79B7E6E8B SWAP2 PUSH2 0x1D62 SWAP2 PUSH1 0x1 PUSH1 0x1 PUSH1 0xA0 SHL SUB SWAP1 SWAP2 AND SWAP1 CALLER SWAP1 DUP9 SWAP1 TIMESTAMP SWAP1 PUSH2 0x36E7 JUMP JUMPDEST PUSH1 0x40 MLOAD DUP1 SWAP2 SUB SWAP1 LOG2 JUMPDEST DUP4 DUP3 PUSH1 0x2 ADD SLOAD GT PUSH2 0x1D81 JUMPI PUSH0 PUSH1 0x2 DUP4 ADD SSTORE PUSH2 0x1D97 JUMP JUMPDEST DUP4 DUP3 PUSH1 0x2 ADD SLOAD PUSH2 0x1D91 SWAP2 SWAP1 PUSH2 0x3783 JUMP JUMPDEST PUSH1 0x2 DUP4 ADD SSTORE JUMPDEST DUP2 PUSH1 0x2 ADD SLOAD PUSH0 SUB PUSH2 0x1DE4 JUMPI DUP1 ISZERO PUSH2 0x1DC8 JUMPI PUSH1 0x1 DUP6 ADD SLOAD PUSH2 0x1DC2 SWAP1 PUSH1 0x3 SWAP1 PUSH1 0x1 PUSH1 0x1 PUSH1 0xA0 SHL SUB AND PUSH2 0x2816 JUMP JUMPDEST POP PUSH2 0x1DE4 JUMP JUMPDEST PUSH1 0x1 DUP6 ADD SLOAD PUSH2 0x1DE2 SWAP1 PUSH1 0x5 SWAP1 PUSH1 0x1 PUSH1 0x1 PUSH1 0xA0 SHL SUB AND PUSH2 0x2816 JUMP JUMPDEST POP JUMPDEST PUSH1 0x9 DUP6 ADD DUP4 SWAP1 SSTORE PUSH1 0x2 DUP6 ADD SLOAD PUSH1 0x1 DUP7 ADD SLOAD PUSH2 0x1E0C SWAP2 PUSH1 0x1 PUSH1 0x1 PUSH1 0xA0 SHL SUB SWAP2 DUP3 AND SWAP2 AND DUP7 PUSH2 0x282A JUMP JUMPDEST DUP5 SLOAD PUSH1 0x1 DUP7 ADD SLOAD PUSH1 0x9 DUP8 ADD SLOAD PUSH1 0x3 DUP9 ADD SLOAD PUSH32 0xF93385FFDF40B698B13993C059834B8E91D0CA8E7ABF827A34001CA03C03F6FF SWAP3 PUSH1 0x1 PUSH1 0x1 PUSH1 0xA0 SHL SUB AND SWAP2 CALLER SWAP2 DUP10 SWAP2 PUSH2 0x1E56 SWAP2 PUSH2 0x3783 JUMP JUMPDEST PUSH1 0x40 DUP1 MLOAD PUSH1 0x1 PUSH1 0x1 PUSH1 0xA0 SHL SUB SWAP6 DUP7 AND DUP2 MSTORE SWAP5 SWAP1 SWAP4 AND PUSH1 0x20 DUP6 ADD MSTORE SWAP2 DUP4 ADD MSTORE PUSH1 0x60 DUP3 ADD MSTORE TIMESTAMP PUSH1 0x80 DUP3 ADD MSTORE PUSH1 0xA0 ADD PUSH2 0x11E1 JUMP JUMPDEST DUP1 PUSH1 0x5 ADD SLOAD TIMESTAMP LT ISZERO PUSH2 0x1EDB JUMPI PUSH1 0x40 MLOAD PUSH3 0x461BCD PUSH1 0xE5 SHL DUP2 MSTORE PUSH1 0x20 PUSH1 0x4 DUP3 ADD MSTORE PUSH1 0x18 PUSH1 0x24 DUP3 ADD MSTORE PUSH32 0x4974206973206E6F742074696D6520746F20756E6C6F636B0000000000000000 PUSH1 0x44 DUP3 ADD MSTORE PUSH1 0x64 ADD PUSH2 0x48F JUMP JUMPDEST PUSH1 0x9 DUP2 ADD SLOAD ISZERO PUSH2 0x1F21 JUMPI PUSH1 0x40 MLOAD PUSH3 0x461BCD PUSH1 0xE5 SHL DUP2 MSTORE PUSH1 0x20 PUSH1 0x4 DUP3 ADD MSTORE PUSH1 0x11 PUSH1 0x24 DUP3 ADD MSTORE PUSH17 0x4E6F7468696E6720746F20756E6C6F636B PUSH1 0x78 SHL PUSH1 0x44 DUP3 ADD MSTORE PUSH1 0x64 ADD PUSH2 0x48F JUMP JUMPDEST PUSH1 0x1 DUP1 DUP3 ADD SLOAD PUSH1 0x1 PUSH1 0x1 PUSH1 0xA0 SHL SUB SWAP1 DUP2 AND PUSH0 SWAP1 DUP2 MSTORE PUSH1 0x7 PUSH1 0x20 MSTORE PUSH1 0x40 SWAP1 KECCAK256 SWAP2 DUP3 ADD SLOAD AND ISZERO DUP1 ISZERO SWAP1 PUSH2 0x1F6B JUMPI DUP3 SLOAD CALLER PUSH0 SWAP1 DUP2 MSTORE PUSH1 0x1 PUSH1 0x20 MSTORE PUSH1 0x40 SWAP1 KECCAK256 PUSH2 0x1F65 SWAP2 PUSH2 0x1AE7 JUMP JUMPDEST POP PUSH2 0x1F86 JUMP JUMPDEST DUP3 SLOAD CALLER PUSH0 SWAP1 DUP2 MSTORE PUSH1 0x2 PUSH1 0x20 MSTORE PUSH1 0x40 SWAP1 KECCAK256 PUSH2 0x1F84 SWAP2 PUSH2 0x1AE7 JUMP JUMPDEST POP JUMPDEST PUSH1 0x3 DUP4 ADD SLOAD PUSH1 0x2 DUP4 ADD SLOAD DUP2 LT PUSH2 0x1FA1 JUMPI PUSH0 PUSH1 0x2 DUP5 ADD SSTORE PUSH2 0x1FB7 JUMP JUMPDEST DUP1 DUP4 PUSH1 0x2 ADD SLOAD PUSH2 0x1FB1 SWAP2 SWAP1 PUSH2 0x3783 JUMP JUMPDEST PUSH1 0x2 DUP5 ADD SSTORE JUMPDEST DUP3 PUSH1 0x2 ADD SLOAD PUSH0 SUB PUSH2 0x2004 JUMPI DUP2 ISZERO PUSH2 0x1FE8 JUMPI PUSH1 0x1 DUP5 ADD SLOAD PUSH2 0x1FE2 SWAP1 PUSH1 0x3 SWAP1 PUSH1 0x1 PUSH1 0x1 PUSH1 0xA0 SHL SUB AND PUSH2 0x2816 JUMP JUMPDEST POP PUSH2 0x2004 JUMP JUMPDEST PUSH1 0x1 DUP5 ADD SLOAD PUSH2 0x2002 SWAP1 PUSH1 0x5 SWAP1 PUSH1 0x1 PUSH1 0x1 PUSH1 0xA0 SHL SUB AND PUSH2 0x2816 JUMP JUMPDEST POP JUMPDEST PUSH1 0x9 DUP5 ADD DUP2 SWAP1 SSTORE DUP4 SLOAD PUSH1 0x1 DUP6 ADD SLOAD PUSH1 0x1 PUSH1 0x1 PUSH1 0xA0 SHL SUB AND PUSH0 SWAP1 DUP2 MSTORE PUSH1 0x8 PUSH1 0x20 MSTORE PUSH1 0x40 SWAP1 KECCAK256 PUSH2 0x2031 SWAP2 PUSH2 0x1AE7 JUMP JUMPDEST POP PUSH1 0x1 DUP5 ADD SLOAD PUSH2 0x204B SWAP1 PUSH1 0x1 PUSH1 0x1 PUSH1 0xA0 SHL SUB AND CALLER DUP4 PUSH2 0x282A JUMP JUMPDEST DUP4 SLOAD PUSH1 0x1 DUP6 ADD SLOAD PUSH1 0x40 MLOAD PUSH32 0xC6532367992B32E42A62DD89FC3574876D97D081A263AA6E030F34B79B7E6E8B SWAP2 PUSH2 0x2092 SWAP2 PUSH1 0x1 PUSH1 0x1 PUSH1 0xA0 SHL SUB SWAP1 SWAP2 AND SWAP1 CALLER SWAP1 DUP7 SWAP1 TIMESTAMP SWAP1 PUSH2 0x36E7 JUMP JUMPDEST PUSH1 0x40 MLOAD DUP1 SWAP2 SUB SWAP1 LOG2 POP POP POP POP JUMP JUMPDEST PUSH0 DUP2 PUSH1 0x60 ADD MLOAD PUSH0 SUB PUSH2 0x20B3 JUMPI POP PUSH0 SWAP2 SWAP1 POP JUMP JUMPDEST DUP2 PUSH1 0x60 ADD MLOAD DUP3 PUSH2 0x120 ADD MLOAD LT PUSH2 0x20CA JUMPI POP PUSH0 SWAP2 SWAP1 POP JUMP JUMPDEST DUP2 PUSH1 0xA0 ADD MLOAD TIMESTAMP LT ISZERO PUSH2 0x20DD JUMPI POP PUSH0 SWAP2 SWAP1 POP JUMP JUMPDEST DUP2 PUSH1 0xE0 ADD MLOAD PUSH0 SUB PUSH2 0x20EF JUMPI POP PUSH0 SWAP2 SWAP1 POP JUMP JUMPDEST PUSH0 PUSH2 0x2105 DUP4 PUSH1 0x60 ADD MLOAD DUP5 PUSH1 0xC0 ADD MLOAD PUSH2 0x2710 PUSH2 0x285A JUMP JUMPDEST SWAP1 POP PUSH0 PUSH2 0x211E DUP5 PUSH1 0x60 ADD MLOAD DUP6 PUSH2 0x100 ADD MLOAD PUSH2 0x2710 PUSH2 0x285A JUMP JUMPDEST SWAP1 POP PUSH0 DUP5 PUSH1 0xA0 ADD MLOAD TIMESTAMP LT PUSH2 0x2164 JUMPI DUP3 DUP3 DUP7 PUSH1 0xE0 ADD MLOAD DUP8 PUSH1 0xA0 ADD MLOAD TIMESTAMP PUSH2 0x2143 SWAP2 SWAP1 PUSH2 0x3783 JUMP JUMPDEST PUSH2 0x214D SWAP2 SWAP1 PUSH2 0x3959 JUMP JUMPDEST PUSH2 0x2157 SWAP2 SWAP1 PUSH2 0x3978 JUMP JUMPDEST PUSH2 0x2161 SWAP2 SWAP1 PUSH2 0x3770 JUMP JUMPDEST SWAP1 POP JUMPDEST PUSH0 DUP6 PUSH1 0x60 ADD MLOAD DUP3 GT ISZERO PUSH2 0x218D JUMPI DUP6 PUSH2 0x120 ADD MLOAD DUP7 PUSH1 0x60 ADD MLOAD PUSH2 0x2186 SWAP2 SWAP1 PUSH2 0x3783 JUMP JUMPDEST SWAP1 POP PUSH2 0x21A0 JUMP JUMPDEST PUSH2 0x120 DUP7 ADD MLOAD PUSH2 0x219D SWAP1 DUP4 PUSH2 0x3783 JUMP JUMPDEST SWAP1 POP JUMPDEST SWAP6 SWAP5 POP POP POP POP POP JUMP JUMPDEST PUSH1 0x60 PUSH1 0x1 PUSH1 0x1 PUSH1 0xA0 SHL SUB DUP6 AND PUSH2 0x21D1 JUMPI PUSH1 0x40 MLOAD PUSH3 0x461BCD PUSH1 0xE5 SHL DUP2 MSTORE PUSH1 0x4 ADD PUSH2 0x48F SWAP1 PUSH2 0x36C0 JUMP JUMPDEST PUSH0 PUSH2 0x21DC DUP9 DUP9 PUSH2 0x2900 JUMP JUMPDEST SWAP1 POP DUP9 PUSH0 DUP2 PUSH1 0x1 PUSH1 0x1 PUSH1 0x40 SHL SUB DUP2 GT ISZERO PUSH2 0x21F8 JUMPI PUSH2 0x21F8 PUSH2 0x3064 JUMP JUMPDEST PUSH1 0x40 MLOAD SWAP1 DUP1 DUP3 MSTORE DUP1 PUSH1 0x20 MUL PUSH1 0x20 ADD DUP3 ADD PUSH1 0x40 MSTORE DUP1 ISZERO PUSH2 0x2221 JUMPI DUP2 PUSH1 0x20 ADD PUSH1 0x20 DUP3 MUL DUP1 CALLDATASIZE DUP4 CALLDATACOPY ADD SWAP1 POP JUMPDEST POP SWAP1 POP PUSH0 JUMPDEST DUP3 DUP2 LT ISZERO PUSH2 0x237E JUMPI PUSH2 0x22A3 DUP14 DUP14 DUP4 DUP2 DUP2 LT PUSH2 0x2243 JUMPI PUSH2 0x2243 PUSH2 0x3710 JUMP JUMPDEST SWAP1 POP PUSH1 0x20 MUL ADD PUSH1 0x20 DUP2 ADD SWAP1 PUSH2 0x2258 SWAP2 SWAP1 PUSH2 0x3181 JUMP JUMPDEST DUP11 DUP11 DUP15 DUP15 DUP7 DUP2 DUP2 LT PUSH2 0x226C JUMPI PUSH2 0x226C PUSH2 0x3710 JUMP JUMPDEST SWAP1 POP PUSH1 0x20 MUL ADD CALLDATALOAD DUP12 PUSH0 PUSH1 0x4 DUP2 LT PUSH2 0x2285 JUMPI PUSH2 0x2285 PUSH2 0x3710 JUMP JUMPDEST PUSH1 0x20 SWAP1 DUP2 MUL SWAP2 SWAP1 SWAP2 ADD MLOAD SWAP1 DUP14 ADD MLOAD PUSH1 0x40 DUP15 ADD MLOAD PUSH1 0x60 DUP16 ADD MLOAD DUP15 PUSH2 0x18A1 JUMP JUMPDEST DUP3 DUP3 DUP2 MLOAD DUP2 LT PUSH2 0x22B5 JUMPI PUSH2 0x22B5 PUSH2 0x3710 JUMP JUMPDEST PUSH1 0x20 MUL PUSH1 0x20 ADD ADD DUP2 DUP2 MSTORE POP POP DUP2 DUP2 DUP2 MLOAD DUP2 LT PUSH2 0x22D3 JUMPI PUSH2 0x22D3 PUSH2 0x3710 JUMP JUMPDEST PUSH1 0x20 MUL PUSH1 0x20 ADD ADD MLOAD PUSH32 0x694AF1CC8727CDD0AFBDD53D9B87B69248BD490224E9DD090E788546506E076F DUP11 DUP16 DUP16 DUP6 DUP2 DUP2 LT PUSH2 0x230F JUMPI PUSH2 0x230F PUSH2 0x3710 JUMP JUMPDEST SWAP1 POP PUSH1 0x20 MUL ADD PUSH1 0x20 DUP2 ADD SWAP1 PUSH2 0x2324 SWAP2 SWAP1 PUSH2 0x3181 JUMP JUMPDEST DUP15 DUP15 DUP7 DUP2 DUP2 LT PUSH2 0x2336 JUMPI PUSH2 0x2336 PUSH2 0x3710 JUMP JUMPDEST SWAP1 POP PUSH1 0x20 MUL ADD CALLDATALOAD DUP12 PUSH0 PUSH1 0x4 DUP2 LT PUSH2 0x234F JUMPI PUSH2 0x234F PUSH2 0x3710 JUMP JUMPDEST PUSH1 0x20 MUL ADD MLOAD PUSH1 0x40 MLOAD PUSH2 0x2364 SWAP5 SWAP4 SWAP3 SWAP2 SWAP1 PUSH2 0x36E7 JUMP JUMPDEST PUSH1 0x40 MLOAD DUP1 SWAP2 SUB SWAP1 LOG2 DUP1 PUSH2 0x2376 DUP2 PUSH2 0x3796 JUMP JUMPDEST SWAP2 POP POP PUSH2 0x2226 JUMP JUMPDEST POP PUSH2 0x238B DUP9 CALLER ADDRESS DUP7 PUSH2 0x18EB JUMP JUMPDEST SWAP12 SWAP11 POP POP POP POP POP POP POP POP POP POP POP JUMP JUMPDEST PUSH0 DUP1 DUP3 PUSH1 0x1 PUSH1 0x1 PUSH1 0xA0 SHL SUB AND PUSH4 0xC45A0155 PUSH1 0x40 MLOAD DUP2 PUSH4 0xFFFFFFFF AND PUSH1 0xE0 SHL DUP2 MSTORE PUSH1 0x4 ADD PUSH1 0x20 PUSH1 0x40 MLOAD DUP1 DUP4 SUB DUP2 DUP7 GAS STATICCALL SWAP3 POP POP POP DUP1 ISZERO PUSH2 0x23F6 JUMPI POP PUSH1 0x40 DUP1 MLOAD PUSH1 0x1F RETURNDATASIZE SWAP1 DUP2 ADD PUSH1 0x1F NOT AND DUP3 ADD SWAP1 SWAP3 MSTORE PUSH2 0x23F3 SWAP2 DUP2 ADD SWAP1 PUSH2 0x398F JUMP JUMPDEST PUSH1 0x1 JUMPDEST PUSH2 0x2442 JUMPI PUSH1 0x40 MLOAD PUSH3 0x461BCD PUSH1 0xE5 SHL DUP2 MSTORE PUSH1 0x20 PUSH1 0x4 DUP3 ADD MSTORE PUSH1 0x1C PUSH1 0x24 DUP3 ADD MSTORE PUSH32 0x5468697320746F6B656E206973206E6F742061204C5020746F6B656E00000000 PUSH1 0x44 DUP3 ADD MSTORE PUSH1 0x64 ADD PUSH2 0x48F JUMP JUMPDEST SWAP1 POP PUSH1 0x1 PUSH1 0x1 PUSH1 0xA0 SHL SUB DUP2 AND ISZERO DUP1 ISZERO SWAP1 PUSH2 0x2461 JUMPI POP PUSH2 0x2461 DUP4 DUP3 PUSH2 0x29A1 JUMP JUMPDEST PUSH2 0x5C9 JUMPI PUSH1 0x40 MLOAD PUSH3 0x461BCD PUSH1 0xE5 SHL DUP2 MSTORE PUSH1 0x20 PUSH1 0x4 DUP3 ADD MSTORE PUSH1 0x1D PUSH1 0x24 DUP3 ADD MSTORE PUSH32 0x5468697320746F6B656E206973206E6F742061204C5020746F6B656E2E000000 PUSH1 0x44 DUP3 ADD MSTORE PUSH1 0x64 ADD PUSH2 0x48F JUMP JUMPDEST PUSH0 PUSH2 0x24BE DUP11 DUP11 DUP10 DUP10 DUP10 DUP10 DUP10 DUP10 PUSH2 0x2AFC JUMP JUMPDEST PUSH1 0x1 PUSH1 0x1 PUSH1 0xA0 SHL SUB DUP12 AND PUSH0 SWAP1 DUP2 MSTORE PUSH1 0x1 PUSH1 0x20 MSTORE PUSH1 0x40 SWAP1 KECCAK256 SWAP1 SWAP2 POP PUSH2 0x24E2 SWAP1 DUP3 PUSH2 0x1AF2 JUMP JUMPDEST POP PUSH2 0x24EE PUSH1 0x3 DUP11 PUSH2 0x2D65 JUMP JUMPDEST POP PUSH1 0x1 PUSH1 0x1 PUSH1 0xA0 SHL SUB DUP1 DUP11 AND PUSH0 SWAP1 DUP2 MSTORE PUSH1 0x7 PUSH1 0x20 MSTORE PUSH1 0x40 SWAP1 KECCAK256 DUP1 SLOAD SWAP1 SWAP2 AND PUSH2 0x253D JUMPI DUP1 SLOAD PUSH1 0x1 PUSH1 0x1 PUSH1 0xA0 SHL SUB DUP1 DUP13 AND PUSH1 0x1 PUSH1 0x1 PUSH1 0xA0 SHL SUB NOT SWAP3 DUP4 AND OR DUP4 SSTORE PUSH1 0x1 DUP4 ADD DUP1 SLOAD SWAP2 DUP13 AND SWAP2 SWAP1 SWAP3 AND OR SWAP1 SSTORE JUMPDEST DUP8 DUP2 PUSH1 0x2 ADD SLOAD PUSH2 0x254D SWAP2 SWAP1 PUSH2 0x3770 JUMP JUMPDEST PUSH1 0x2 DUP3 ADD SSTORE PUSH1 0x1 PUSH1 0x1 PUSH1 0xA0 SHL SUB DUP11 AND PUSH0 SWAP1 DUP2 MSTORE PUSH1 0x8 PUSH1 0x20 MSTORE PUSH1 0x40 SWAP1 KECCAK256 PUSH2 0x2573 SWAP1 DUP4 PUSH2 0x1AF2 JUMP JUMPDEST POP POP SWAP10 SWAP9 POP POP POP POP POP POP POP POP POP JUMP JUMPDEST PUSH0 PUSH2 0x2593 DUP10 DUP10 DUP10 DUP10 DUP10 DUP10 DUP10 DUP10 PUSH2 0x2AFC JUMP JUMPDEST PUSH1 0x1 PUSH1 0x1 PUSH1 0xA0 SHL SUB DUP11 AND PUSH0 SWAP1 DUP2 MSTORE PUSH1 0x2 PUSH1 0x20 MSTORE PUSH1 0x40 SWAP1 KECCAK256 SWAP1 SWAP2 POP PUSH2 0x25B7 SWAP1 DUP3 PUSH2 0x1AF2 JUMP JUMPDEST POP PUSH2 0x25C3 PUSH1 0x5 DUP10 PUSH2 0x2D65 JUMP JUMPDEST POP PUSH1 0x1 PUSH1 0x1 PUSH1 0xA0 SHL SUB DUP1 DUP10 AND PUSH0 SWAP1 DUP2 MSTORE PUSH1 0x7 PUSH1 0x20 MSTORE PUSH1 0x40 SWAP1 KECCAK256 DUP1 SLOAD SWAP1 SWAP2 AND PUSH2 0x260C JUMPI DUP1 SLOAD PUSH1 0x1 PUSH1 0x1 PUSH1 0xA0 SHL SUB DUP11 AND PUSH1 0x1 PUSH1 0x1 PUSH1 0xA0 SHL SUB NOT SWAP2 DUP3 AND OR DUP3 SSTORE PUSH1 0x1 DUP3 ADD DUP1 SLOAD SWAP1 SWAP2 AND SWAP1 SSTORE JUMPDEST DUP8 DUP2 PUSH1 0x2 ADD SLOAD PUSH2 0x261C SWAP2 SWAP1 PUSH2 0x3770 JUMP JUMPDEST PUSH1 0x2 DUP3 ADD SSTORE PUSH1 0x1 PUSH1 0x1 PUSH1 0xA0 SHL SUB DUP10 AND PUSH0 SWAP1 DUP2 MSTORE PUSH1 0x8 PUSH1 0x20 MSTORE PUSH1 0x40 SWAP1 KECCAK256 PUSH2 0x2642 SWAP1 DUP4 PUSH2 0x1AF2 JUMP JUMPDEST POP POP SWAP9 SWAP8 POP POP POP POP POP POP POP POP JUMP JUMPDEST PUSH1 0x40 MLOAD PUSH1 0x1 PUSH1 0x1 PUSH1 0xA0 SHL SUB DUP1 DUP6 AND PUSH1 0x24 DUP4 ADD MSTORE DUP4 AND PUSH1 0x44 DUP3 ADD MSTORE PUSH1 0x64 DUP2 ADD DUP3 SWAP1 MSTORE PUSH2 0x26BB SWAP1 DUP6 SWAP1 PUSH4 0x23B872DD PUSH1 0xE0 SHL SWAP1 PUSH1 0x84 ADD JUMPDEST PUSH1 0x40 DUP1 MLOAD PUSH1 0x1F NOT DUP2 DUP5 SUB ADD DUP2 MSTORE SWAP2 SWAP1 MSTORE PUSH1 0x20 DUP2 ADD DUP1 MLOAD PUSH1 0x1 PUSH1 0x1 PUSH1 0xE0 SHL SUB AND PUSH1 0x1 PUSH1 0x1 PUSH1 0xE0 SHL SUB NOT SWAP1 SWAP4 AND SWAP3 SWAP1 SWAP3 OR SWAP1 SWAP2 MSTORE PUSH2 0x2D79 JUMP JUMPDEST POP POP POP POP JUMP JUMPDEST PUSH0 DUP3 PUSH0 ADD DUP3 DUP2 SLOAD DUP2 LT PUSH2 0x26D6 JUMPI PUSH2 0x26D6 PUSH2 0x3710 JUMP JUMPDEST SWAP1 PUSH0 MSTORE PUSH1 0x20 PUSH0 KECCAK256 ADD SLOAD SWAP1 POP SWAP3 SWAP2 POP POP JUMP JUMPDEST PUSH0 DUP2 DUP2 MSTORE PUSH1 0x1 DUP4 ADD PUSH1 0x20 MSTORE PUSH1 0x40 DUP2 KECCAK256 SLOAD DUP1 ISZERO PUSH2 0x27C1 JUMPI PUSH0 PUSH2 0x2709 PUSH1 0x1 DUP4 PUSH2 0x3783 JUMP JUMPDEST DUP6 SLOAD SWAP1 SWAP2 POP PUSH0 SWAP1 PUSH2 0x271C SWAP1 PUSH1 0x1 SWAP1 PUSH2 0x3783 JUMP JUMPDEST SWAP1 POP DUP2 DUP2 EQ PUSH2 0x277B JUMPI PUSH0 DUP7 PUSH0 ADD DUP3 DUP2 SLOAD DUP2 LT PUSH2 0x273A JUMPI PUSH2 0x273A PUSH2 0x3710 JUMP JUMPDEST SWAP1 PUSH0 MSTORE PUSH1 0x20 PUSH0 KECCAK256 ADD SLOAD SWAP1 POP DUP1 DUP8 PUSH0 ADD DUP5 DUP2 SLOAD DUP2 LT PUSH2 0x275A JUMPI PUSH2 0x275A PUSH2 0x3710 JUMP JUMPDEST PUSH0 SWAP2 DUP3 MSTORE PUSH1 0x20 DUP1 DUP4 KECCAK256 SWAP1 SWAP2 ADD SWAP3 SWAP1 SWAP3 SSTORE SWAP2 DUP3 MSTORE PUSH1 0x1 DUP9 ADD SWAP1 MSTORE PUSH1 0x40 SWAP1 KECCAK256 DUP4 SWAP1 SSTORE JUMPDEST DUP6 SLOAD DUP7 SWAP1 DUP1 PUSH2 0x278C JUMPI PUSH2 0x278C PUSH2 0x39AA JUMP JUMPDEST PUSH1 0x1 SWAP1 SUB DUP2 DUP2 SWAP1 PUSH0 MSTORE PUSH1 0x20 PUSH0 KECCAK256 ADD PUSH0 SWAP1 SSTORE SWAP1 SSTORE DUP6 PUSH1 0x1 ADD PUSH0 DUP7 DUP2 MSTORE PUSH1 0x20 ADD SWAP1 DUP2 MSTORE PUSH1 0x20 ADD PUSH0 KECCAK256 PUSH0 SWAP1 SSTORE PUSH1 0x1 SWAP4 POP POP POP POP PUSH2 0x5C9 JUMP JUMPDEST PUSH0 SWAP2 POP POP PUSH2 0x5C9 JUMP JUMPDEST PUSH0 DUP2 DUP2 MSTORE PUSH1 0x1 DUP4 ADD PUSH1 0x20 MSTORE PUSH1 0x40 DUP2 KECCAK256 SLOAD PUSH2 0x280F JUMPI POP DUP2 SLOAD PUSH1 0x1 DUP2 DUP2 ADD DUP5 SSTORE PUSH0 DUP5 DUP2 MSTORE PUSH1 0x20 DUP1 DUP3 KECCAK256 SWAP1 SWAP4 ADD DUP5 SWAP1 SSTORE DUP5 SLOAD DUP5 DUP3 MSTORE DUP3 DUP7 ADD SWAP1 SWAP4 MSTORE PUSH1 0x40 SWAP1 KECCAK256 SWAP2 SWAP1 SWAP2 SSTORE PUSH2 0x5C9 JUMP JUMPDEST POP PUSH0 PUSH2 0x5C9 JUMP JUMPDEST PUSH0 PUSH2 0x891 DUP4 PUSH1 0x1 PUSH1 0x1 PUSH1 0xA0 SHL SUB DUP5 AND PUSH2 0x26E7 JUMP JUMPDEST PUSH1 0x40 MLOAD PUSH1 0x1 PUSH1 0x1 PUSH1 0xA0 SHL SUB DUP4 AND PUSH1 0x24 DUP3 ADD MSTORE PUSH1 0x44 DUP2 ADD DUP3 SWAP1 MSTORE PUSH2 0xB1A SWAP1 DUP5 SWAP1 PUSH4 0xA9059CBB PUSH1 0xE0 SHL SWAP1 PUSH1 0x64 ADD PUSH2 0x2684 JUMP JUMPDEST PUSH0 DUP1 DUP1 PUSH0 NOT DUP6 DUP8 MULMOD DUP6 DUP8 MUL SWAP3 POP DUP3 DUP2 LT DUP4 DUP3 SUB SUB SWAP2 POP POP DUP1 PUSH0 SUB PUSH2 0x288E JUMPI PUSH0 DUP5 GT PUSH2 0x2883 JUMPI PUSH0 DUP1 REVERT JUMPDEST POP DUP3 SWAP1 DIV SWAP1 POP PUSH2 0x891 JUMP JUMPDEST DUP1 DUP5 GT PUSH2 0x2899 JUMPI PUSH0 DUP1 REVERT JUMPDEST PUSH0 DUP5 DUP7 DUP9 MULMOD PUSH1 0x2 PUSH1 0x1 DUP8 NOT DUP2 ADD DUP9 AND SWAP8 DUP9 SWAP1 DIV PUSH1 0x3 DUP2 MUL DUP4 XOR DUP1 DUP3 MUL DUP5 SUB MUL DUP1 DUP3 MUL DUP5 SUB MUL DUP1 DUP3 MUL DUP5 SUB MUL DUP1 DUP3 MUL DUP5 SUB MUL DUP1 DUP3 MUL DUP5 SUB MUL SWAP1 DUP2 MUL SWAP1 SWAP3 SUB SWAP1 SWAP2 MUL PUSH0 DUP9 SWAP1 SUB DUP9 SWAP1 DIV SWAP1 SWAP2 ADD DUP6 DUP4 GT SWAP1 SWAP5 SUB SWAP4 SWAP1 SWAP4 MUL SWAP4 SUB SWAP5 SWAP1 SWAP5 DIV SWAP2 SWAP1 SWAP2 OR MUL SWAP5 SWAP4 POP POP POP POP JUMP JUMPDEST PUSH0 DUP1 DUP1 JUMPDEST DUP4 DUP2 LT ISZERO PUSH2 0xF56 JUMPI DUP5 DUP5 DUP3 DUP2 DUP2 LT PUSH2 0x291E JUMPI PUSH2 0x291E PUSH2 0x3710 JUMP JUMPDEST SWAP1 POP PUSH1 0x20 MUL ADD CALLDATALOAD PUSH0 SUB PUSH2 0x2969 JUMPI PUSH1 0x40 MLOAD PUSH3 0x461BCD PUSH1 0xE5 SHL DUP2 MSTORE PUSH1 0x20 PUSH1 0x4 DUP3 ADD MSTORE PUSH1 0x13 PUSH1 0x24 DUP3 ADD MSTORE PUSH19 0x416D6F756E742063616E74206265207A65726F PUSH1 0x68 SHL PUSH1 0x44 DUP3 ADD MSTORE PUSH1 0x64 ADD PUSH2 0x48F JUMP JUMPDEST DUP5 DUP5 DUP3 DUP2 DUP2 LT PUSH2 0x297B JUMPI PUSH2 0x297B PUSH2 0x3710 JUMP JUMPDEST SWAP1 POP PUSH1 0x20 MUL ADD CALLDATALOAD DUP3 PUSH2 0x298D SWAP2 SWAP1 PUSH2 0x3770 JUMP JUMPDEST SWAP2 POP DUP1 PUSH2 0x2999 DUP2 PUSH2 0x3796 JUMP JUMPDEST SWAP2 POP POP PUSH2 0x2904 JUMP JUMPDEST PUSH0 DUP1 DUP4 SWAP1 POP PUSH0 DUP4 PUSH1 0x1 PUSH1 0x1 PUSH1 0xA0 SHL SUB AND PUSH4 0xE6A43905 DUP4 PUSH1 0x1 PUSH1 0x1 PUSH1 0xA0 SHL SUB AND PUSH4 0xDFE1681 PUSH1 0x40 MLOAD DUP2 PUSH4 0xFFFFFFFF AND PUSH1 0xE0 SHL DUP2 MSTORE PUSH1 0x4 ADD PUSH1 0x20 PUSH1 0x40 MLOAD DUP1 DUP4 SUB DUP2 DUP7 GAS STATICCALL ISZERO DUP1 ISZERO PUSH2 0x29F2 JUMPI RETURNDATASIZE PUSH0 DUP1 RETURNDATACOPY RETURNDATASIZE PUSH0 REVERT JUMPDEST POP POP POP POP PUSH1 0x40 MLOAD RETURNDATASIZE PUSH1 0x1F NOT PUSH1 0x1F DUP3 ADD AND DUP3 ADD DUP1 PUSH1 0x40 MSTORE POP DUP2 ADD SWAP1 PUSH2 0x2A16 SWAP2 SWAP1 PUSH2 0x398F JUMP JUMPDEST DUP5 PUSH1 0x1 PUSH1 0x1 PUSH1 0xA0 SHL SUB AND PUSH4 0xD21220A7 PUSH1 0x40 MLOAD DUP2 PUSH4 0xFFFFFFFF AND PUSH1 0xE0 SHL DUP2 MSTORE PUSH1 0x4 ADD PUSH1 0x20 PUSH1 0x40 MLOAD DUP1 DUP4 SUB DUP2 DUP7 GAS STATICCALL ISZERO DUP1 ISZERO PUSH2 0x2A52 JUMPI RETURNDATASIZE PUSH0 DUP1 RETURNDATACOPY RETURNDATASIZE PUSH0 REVERT JUMPDEST POP POP POP POP PUSH1 0x40 MLOAD RETURNDATASIZE PUSH1 0x1F NOT PUSH1 0x1F DUP3 ADD AND DUP3 ADD DUP1 PUSH1 0x40 MSTORE POP DUP2 ADD SWAP1 PUSH2 0x2A76 SWAP2 SWAP1 PUSH2 0x398F JUMP JUMPDEST PUSH1 0x40 MLOAD PUSH1 0x1 PUSH1 0x1 PUSH1 0xE0 SHL SUB NOT PUSH1 0xE0 DUP6 SWAP1 SHL AND DUP2 MSTORE PUSH1 0x1 PUSH1 0x1 PUSH1 0xA0 SHL SUB SWAP3 DUP4 AND PUSH1 0x4 DUP3 ADD MSTORE SWAP2 AND PUSH1 0x24 DUP3 ADD MSTORE PUSH1 0x44 ADD PUSH1 0x20 PUSH1 0x40 MLOAD DUP1 DUP4 SUB DUP2 DUP7 GAS STATICCALL ISZERO DUP1 ISZERO PUSH2 0x2ABF JUMPI RETURNDATASIZE PUSH0 DUP1 RETURNDATACOPY RETURNDATASIZE PUSH0 REVERT JUMPDEST POP POP POP POP PUSH1 0x40 MLOAD RETURNDATASIZE PUSH1 0x1F NOT PUSH1 0x1F DUP3 ADD AND DUP3 ADD DUP1 PUSH1 0x40 MSTORE POP DUP2 ADD SWAP1 PUSH2 0x2AE3 SWAP2 SWAP1 PUSH2 0x398F JUMP JUMPDEST PUSH1 0x1 PUSH1 0x1 PUSH1 0xA0 SHL SUB SWAP1 DUP2 AND SWAP1 DUP7 AND EQ SWAP3 POP POP POP SWAP3 SWAP2 POP POP JUMP JUMPDEST PUSH0 DUP1 SLOAD PUSH2 0x2B0D SWAP1 PUSH3 0xF4240 SWAP1 PUSH2 0x3770 JUMP JUMPDEST PUSH1 0x40 DUP1 MLOAD PUSH2 0x160 DUP2 ADD DUP3 MSTORE DUP3 DUP2 MSTORE PUSH1 0x1 PUSH1 0x1 PUSH1 0xA0 SHL SUB DUP1 DUP13 AND PUSH1 0x20 DUP4 ADD SWAP1 DUP2 MSTORE DUP14 DUP3 AND SWAP4 DUP4 ADD SWAP4 DUP5 MSTORE PUSH1 0x60 DUP4 ADD DUP13 DUP2 MSTORE TIMESTAMP PUSH1 0x80 DUP6 ADD SWAP1 DUP2 MSTORE PUSH1 0xA0 DUP6 ADD DUP14 DUP2 MSTORE PUSH1 0xC0 DUP7 ADD DUP14 DUP2 MSTORE PUSH1 0xE0 DUP8 ADD DUP14 DUP2 MSTORE PUSH2 0x100 DUP9 ADD DUP14 DUP2 MSTORE PUSH0 PUSH2 0x120 DUP11 ADD DUP2 DUP2 MSTORE PUSH2 0x140 DUP12 ADD DUP16 DUP2 MSTORE DUP3 SLOAD PUSH1 0x1 DUP2 ADD DUP5 SSTORE SWAP3 DUP1 MSTORE DUP12 MLOAD PUSH1 0xB SWAP1 SWAP4 MUL PUSH32 0x290DECD9548B62A8D60345A988386FC84BA6BC95484008F6362F93160EF3E563 DUP2 ADD SWAP4 DUP5 SSTORE SWAP10 MLOAD PUSH32 0x290DECD9548B62A8D60345A988386FC84BA6BC95484008F6362F93160EF3E564 DUP12 ADD DUP1 SLOAD SWAP2 DUP14 AND PUSH1 0x1 PUSH1 0x1 PUSH1 0xA0 SHL SUB NOT SWAP3 DUP4 AND OR SWAP1 SSTORE SWAP13 MLOAD PUSH32 0x290DECD9548B62A8D60345A988386FC84BA6BC95484008F6362F93160EF3E565 DUP12 ADD DUP1 SLOAD SWAP2 SWAP1 SWAP13 AND SWAP14 AND SWAP13 SWAP1 SWAP13 OR SWAP1 SWAP10 SSTORE SWAP6 MLOAD PUSH32 0x290DECD9548B62A8D60345A988386FC84BA6BC95484008F6362F93160EF3E566 DUP9 ADD SSTORE SWAP4 MLOAD PUSH32 0x290DECD9548B62A8D60345A988386FC84BA6BC95484008F6362F93160EF3E567 DUP8 ADD SSTORE SWAP2 MLOAD PUSH32 0x290DECD9548B62A8D60345A988386FC84BA6BC95484008F6362F93160EF3E568 DUP7 ADD SSTORE MLOAD PUSH32 0x290DECD9548B62A8D60345A988386FC84BA6BC95484008F6362F93160EF3E569 DUP6 ADD SSTORE MLOAD PUSH32 0x290DECD9548B62A8D60345A988386FC84BA6BC95484008F6362F93160EF3E56A DUP5 ADD SSTORE MLOAD PUSH32 0x290DECD9548B62A8D60345A988386FC84BA6BC95484008F6362F93160EF3E56B DUP4 ADD SSTORE SWAP2 MLOAD PUSH32 0x290DECD9548B62A8D60345A988386FC84BA6BC95484008F6362F93160EF3E56C DUP3 ADD SSTORE SWAP3 MLOAD SWAP4 SWAP5 POP SWAP1 SWAP3 DUP4 SWAP3 PUSH32 0x290DECD9548B62A8D60345A988386FC84BA6BC95484008F6362F93160EF3E56D ADD SWAP1 PUSH2 0x2D55 SWAP1 DUP3 PUSH2 0x3887 JUMP JUMPDEST POP POP POP POP SWAP9 SWAP8 POP POP POP POP POP POP POP POP JUMP JUMPDEST PUSH0 PUSH2 0x891 DUP4 PUSH1 0x1 PUSH1 0x1 PUSH1 0xA0 SHL SUB DUP5 AND PUSH2 0x27CA JUMP JUMPDEST PUSH0 PUSH2 0x2DCD DUP3 PUSH1 0x40 MLOAD DUP1 PUSH1 0x40 ADD PUSH1 0x40 MSTORE DUP1 PUSH1 0x20 DUP2 MSTORE PUSH1 0x20 ADD PUSH32 0x5361666545524332303A206C6F772D6C6576656C2063616C6C206661696C6564 DUP2 MSTORE POP DUP6 PUSH1 0x1 PUSH1 0x1 PUSH1 0xA0 SHL SUB AND PUSH2 0x2E4A SWAP1 SWAP3 SWAP2 SWAP1 PUSH4 0xFFFFFFFF AND JUMP JUMPDEST DUP1 MLOAD SWAP1 SWAP2 POP ISZERO PUSH2 0xB1A JUMPI DUP1 DUP1 PUSH1 0x20 ADD SWAP1 MLOAD DUP2 ADD SWAP1 PUSH2 0x2DEB SWAP2 SWAP1 PUSH2 0x39BE JUMP JUMPDEST PUSH2 0xB1A JUMPI PUSH1 0x40 MLOAD PUSH3 0x461BCD PUSH1 0xE5 SHL DUP2 MSTORE PUSH1 0x20 PUSH1 0x4 DUP3 ADD MSTORE PUSH1 0x2A PUSH1 0x24 DUP3 ADD MSTORE PUSH32 0x5361666545524332303A204552433230206F7065726174696F6E20646964206E PUSH1 0x44 DUP3 ADD MSTORE PUSH10 0x1BDD081CDD58D8D95959 PUSH1 0xB2 SHL PUSH1 0x64 DUP3 ADD MSTORE PUSH1 0x84 ADD PUSH2 0x48F JUMP JUMPDEST PUSH1 0x60 PUSH2 0x2E58 DUP5 DUP5 PUSH0 DUP6 PUSH2 0x2E60 JUMP JUMPDEST SWAP5 SWAP4 POP POP POP POP JUMP JUMPDEST PUSH1 0x60 DUP3 SELFBALANCE LT ISZERO PUSH2 0x2EC1 JUMPI PUSH1 0x40 MLOAD PUSH3 0x461BCD PUSH1 0xE5 SHL DUP2 MSTORE PUSH1 0x20 PUSH1 0x4 DUP3 ADD MSTORE PUSH1 0x26 PUSH1 0x24 DUP3 ADD MSTORE PUSH32 0x416464726573733A20696E73756666696369656E742062616C616E636520666F PUSH1 0x44 DUP3 ADD MSTORE PUSH6 0x1C8818D85B1B PUSH1 0xD2 SHL PUSH1 0x64 DUP3 ADD MSTORE PUSH1 0x84 ADD PUSH2 0x48F JUMP JUMPDEST PUSH1 0x1 PUSH1 0x1 PUSH1 0xA0 SHL SUB DUP6 AND EXTCODESIZE PUSH2 0x2F18 JUMPI PUSH1 0x40 MLOAD PUSH3 0x461BCD PUSH1 0xE5 SHL DUP2 MSTORE PUSH1 0x20 PUSH1 0x4 DUP3 ADD MSTORE PUSH1 0x1D PUSH1 0x24 DUP3 ADD MSTORE PUSH32 0x416464726573733A2063616C6C20746F206E6F6E2D636F6E7472616374000000 PUSH1 0x44 DUP3 ADD MSTORE PUSH1 0x64 ADD PUSH2 0x48F JUMP JUMPDEST PUSH0 DUP1 DUP7 PUSH1 0x1 PUSH1 0x1 PUSH1 0xA0 SHL SUB AND DUP6 DUP8 PUSH1 0x40 MLOAD PUSH2 0x2F33 SWAP2 SWAP1 PUSH2 0x39D9 JUMP JUMPDEST PUSH0 PUSH1 0x40 MLOAD DUP1 DUP4 SUB DUP2 DUP6 DUP8 GAS CALL SWAP3 POP POP POP RETURNDATASIZE DUP1 PUSH0 DUP2 EQ PUSH2 0x2F6D JUMPI PUSH1 0x40 MLOAD SWAP2 POP PUSH1 0x1F NOT PUSH1 0x3F RETURNDATASIZE ADD AND DUP3 ADD PUSH1 0x40 MSTORE RETURNDATASIZE DUP3 MSTORE RETURNDATASIZE PUSH0 PUSH1 0x20 DUP5 ADD RETURNDATACOPY PUSH2 0x2F72 JUMP JUMPDEST PUSH1 0x60 SWAP2 POP JUMPDEST POP SWAP2 POP SWAP2 POP PUSH2 0x2F82 DUP3 DUP3 DUP7 PUSH2 0x2F8D JUMP JUMPDEST SWAP8 SWAP7 POP POP POP POP POP POP POP JUMP JUMPDEST PUSH1 0x60 DUP4 ISZERO PUSH2 0x2F9C JUMPI POP DUP2 PUSH2 0x891 JUMP JUMPDEST DUP3 MLOAD ISZERO PUSH2 0x2FAC JUMPI DUP3 MLOAD DUP1 DUP5 PUSH1 0x20 ADD REVERT JUMPDEST DUP2 PUSH1 0x40 MLOAD PUSH3 0x461BCD PUSH1 0xE5 SHL DUP2 MSTORE PUSH1 0x4 ADD PUSH2 0x48F SWAP2 SWAP1 PUSH2 0x39F4 JUMP JUMPDEST PUSH1 0x40 MLOAD DUP1 PUSH2 0x160 ADD PUSH1 0x40 MSTORE DUP1 PUSH0 DUP2 MSTORE PUSH1 0x20 ADD PUSH0 PUSH1 0x1 PUSH1 0x1 PUSH1 0xA0 SHL SUB AND DUP2 MSTORE PUSH1 0x20 ADD PUSH0 PUSH1 0x1 PUSH1 0x1 PUSH1 0xA0 SHL SUB AND DUP2 MSTORE PUSH1 0x20 ADD PUSH0 DUP2 MSTORE PUSH1 0x20 ADD PUSH0 DUP2 MSTORE PUSH1 0x20 ADD PUSH0 DUP2 MSTORE PUSH1 0x20 ADD PUSH0 DUP2 MSTORE PUSH1 0x20 ADD PUSH0 DUP2 MSTORE PUSH1 0x20 ADD PUSH0 DUP2 MSTORE PUSH1 0x20 ADD PUSH0 DUP2 MSTORE PUSH1 0x20 ADD PUSH1 0x60 DUP2 MSTORE POP SWAP1 JUMP JUMPDEST PUSH1 0x1 PUSH1 0x1 PUSH1 0xA0 SHL SUB DUP2 AND DUP2 EQ PUSH2 0xD35 JUMPI PUSH0 DUP1 REVERT JUMPDEST DUP1 CALLDATALOAD PUSH2 0x3047 DUP2 PUSH2 0x3028 JUMP JUMPDEST SWAP2 SWAP1 POP JUMP JUMPDEST DUP1 ISZERO ISZERO DUP2 EQ PUSH2 0xD35 JUMPI PUSH0 DUP1 REVERT JUMPDEST DUP1 CALLDATALOAD PUSH2 0x3047 DUP2 PUSH2 0x304C JUMP JUMPDEST PUSH4 0x4E487B71 PUSH1 0xE0 SHL PUSH0 MSTORE PUSH1 0x41 PUSH1 0x4 MSTORE PUSH1 0x24 PUSH0 REVERT JUMPDEST PUSH0 DUP3 PUSH1 0x1F DUP4 ADD SLT PUSH2 0x3087 JUMPI PUSH0 DUP1 REVERT JUMPDEST DUP2 CALLDATALOAD PUSH1 0x1 PUSH1 0x1 PUSH1 0x40 SHL SUB DUP1 DUP3 GT ISZERO PUSH2 0x30A1 JUMPI PUSH2 0x30A1 PUSH2 0x3064 JUMP JUMPDEST PUSH1 0x40 MLOAD PUSH1 0x1F DUP4 ADD PUSH1 0x1F NOT SWAP1 DUP2 AND PUSH1 0x3F ADD AND DUP2 ADD SWAP1 DUP3 DUP3 GT DUP2 DUP4 LT OR ISZERO PUSH2 0x30C9 JUMPI PUSH2 0x30C9 PUSH2 0x3064 JUMP JUMPDEST DUP2 PUSH1 0x40 MSTORE DUP4 DUP2 MSTORE DUP7 PUSH1 0x20 DUP6 DUP9 ADD ADD GT ISZERO PUSH2 0x30E1 JUMPI PUSH0 DUP1 REVERT JUMPDEST DUP4 PUSH1 0x20 DUP8 ADD PUSH1 0x20 DUP4 ADD CALLDATACOPY PUSH0 PUSH1 0x20 DUP6 DUP4 ADD ADD MSTORE DUP1 SWAP5 POP POP POP POP POP SWAP3 SWAP2 POP POP JUMP JUMPDEST PUSH0 DUP1 PUSH0 DUP1 PUSH0 DUP1 PUSH1 0xC0 DUP8 DUP10 SUB SLT ISZERO PUSH2 0x3115 JUMPI PUSH0 DUP1 REVERT JUMPDEST DUP7 CALLDATALOAD PUSH2 0x3120 DUP2 PUSH2 0x3028 JUMP JUMPDEST SWAP6 POP PUSH1 0x20 DUP8 ADD CALLDATALOAD PUSH2 0x3130 DUP2 PUSH2 0x3028 JUMP JUMPDEST SWAP5 POP PUSH1 0x40 DUP8 ADD CALLDATALOAD PUSH2 0x3140 DUP2 PUSH2 0x304C JUMP JUMPDEST SWAP4 POP PUSH1 0x60 DUP8 ADD CALLDATALOAD SWAP3 POP PUSH1 0x80 DUP8 ADD CALLDATALOAD SWAP2 POP PUSH1 0xA0 DUP8 ADD CALLDATALOAD PUSH1 0x1 PUSH1 0x1 PUSH1 0x40 SHL SUB DUP2 GT ISZERO PUSH2 0x3168 JUMPI PUSH0 DUP1 REVERT JUMPDEST PUSH2 0x3174 DUP10 DUP3 DUP11 ADD PUSH2 0x3078 JUMP JUMPDEST SWAP2 POP POP SWAP3 SWAP6 POP SWAP3 SWAP6 POP SWAP3 SWAP6 JUMP JUMPDEST PUSH0 PUSH1 0x20 DUP3 DUP5 SUB SLT ISZERO PUSH2 0x3191 JUMPI PUSH0 DUP1 REVERT JUMPDEST DUP2 CALLDATALOAD PUSH2 0x891 DUP2 PUSH2 0x3028 JUMP JUMPDEST PUSH0 PUSH1 0x20 DUP3 DUP5 SUB SLT ISZERO PUSH2 0x31AC JUMPI PUSH0 DUP1 REVERT JUMPDEST POP CALLDATALOAD SWAP2 SWAP1 POP JUMP JUMPDEST PUSH0 JUMPDEST DUP4 DUP2 LT ISZERO PUSH2 0x31CD JUMPI DUP2 DUP2 ADD MLOAD DUP4 DUP3 ADD MSTORE PUSH1 0x20 ADD PUSH2 0x31B5 JUMP JUMPDEST POP POP PUSH0 SWAP2 ADD MSTORE JUMP JUMPDEST PUSH0 DUP2 MLOAD DUP1 DUP5 MSTORE PUSH2 0x31EC DUP2 PUSH1 0x20 DUP7 ADD PUSH1 0x20 DUP7 ADD PUSH2 0x31B3 JUMP JUMPDEST PUSH1 0x1F ADD PUSH1 0x1F NOT AND SWAP3 SWAP1 SWAP3 ADD PUSH1 0x20 ADD SWAP3 SWAP2 POP POP JUMP JUMPDEST PUSH0 PUSH2 0x160 DUP3 MLOAD DUP5 MSTORE PUSH1 0x20 DUP4 ADD MLOAD PUSH2 0x3222 PUSH1 0x20 DUP7 ADD DUP3 PUSH1 0x1 PUSH1 0x1 PUSH1 0xA0 SHL SUB AND SWAP1 MSTORE JUMP JUMPDEST POP PUSH1 0x40 DUP4 ADD MLOAD PUSH2 0x323D PUSH1 0x40 DUP7 ADD DUP3 PUSH1 0x1 PUSH1 0x1 PUSH1 0xA0 SHL SUB AND SWAP1 MSTORE JUMP JUMPDEST POP PUSH1 0x60 DUP4 ADD MLOAD PUSH1 0x60 DUP6 ADD MSTORE PUSH1 0x80 DUP4 ADD MLOAD PUSH1 0x80 DUP6 ADD MSTORE PUSH1 0xA0 DUP4 ADD MLOAD PUSH1 0xA0 DUP6 ADD MSTORE PUSH1 0xC0 DUP4 ADD MLOAD PUSH1 0xC0 DUP6 ADD MSTORE PUSH1 0xE0 DUP4 ADD MLOAD PUSH1 0xE0 DUP6 ADD MSTORE PUSH2 0x100 DUP1 DUP5 ADD MLOAD DUP2 DUP7 ADD MSTORE POP PUSH2 0x120 DUP1 DUP5 ADD MLOAD DUP2 DUP7 ADD MSTORE POP PUSH2 0x140 DUP1 DUP5 ADD MLOAD DUP3 DUP3 DUP8 ADD MSTORE PUSH2 0x32A0 DUP4 DUP8 ADD DUP3 PUSH2 0x31D5 JUMP JUMPDEST SWAP7 SWAP6 POP POP POP POP POP POP JUMP JUMPDEST PUSH1 0x20 DUP2 MSTORE PUSH0 PUSH2 0x891 PUSH1 0x20 DUP4 ADD DUP5 PUSH2 0x3200 JUMP JUMPDEST PUSH0 DUP1 PUSH0 PUSH1 0x60 DUP5 DUP7 SUB SLT ISZERO PUSH2 0x32CE JUMPI PUSH0 DUP1 REVERT JUMPDEST DUP4 CALLDATALOAD PUSH2 0x32D9 DUP2 PUSH2 0x3028 JUMP JUMPDEST SWAP6 PUSH1 0x20 DUP6 ADD CALLDATALOAD SWAP6 POP PUSH1 0x40 SWAP1 SWAP5 ADD CALLDATALOAD SWAP4 SWAP3 POP POP POP JUMP JUMPDEST PUSH0 PUSH1 0x20 DUP1 DUP4 ADD DUP2 DUP5 MSTORE DUP1 DUP6 MLOAD DUP1 DUP4 MSTORE PUSH1 0x40 DUP7 ADD SWAP2 POP PUSH1 0x40 DUP2 PUSH1 0x5 SHL DUP8 ADD ADD SWAP3 POP DUP4 DUP8 ADD PUSH0 JUMPDEST DUP3 DUP2 LT ISZERO PUSH2 0x3341 JUMPI PUSH1 0x3F NOT DUP9 DUP7 SUB ADD DUP5 MSTORE PUSH2 0x332F DUP6 DUP4 MLOAD PUSH2 0x3200 JUMP JUMPDEST SWAP5 POP SWAP3 DUP6 ADD SWAP3 SWAP1 DUP6 ADD SWAP1 PUSH1 0x1 ADD PUSH2 0x3313 JUMP JUMPDEST POP SWAP3 SWAP8 SWAP7 POP POP POP POP POP POP POP JUMP JUMPDEST PUSH0 DUP1 PUSH1 0x40 DUP4 DUP6 SUB SLT ISZERO PUSH2 0x335F JUMPI PUSH0 DUP1 REVERT JUMPDEST DUP3 CALLDATALOAD SWAP2 POP PUSH1 0x20 DUP4 ADD CALLDATALOAD PUSH2 0x3371 DUP2 PUSH2 0x3028 JUMP JUMPDEST DUP1 SWAP2 POP POP SWAP3 POP SWAP3 SWAP1 POP JUMP JUMPDEST PUSH0 DUP1 PUSH1 0x40 DUP4 DUP6 SUB SLT ISZERO PUSH2 0x338D JUMPI PUSH0 DUP1 REVERT JUMPDEST DUP3 CALLDATALOAD PUSH2 0x3398 DUP2 PUSH2 0x3028 JUMP JUMPDEST SWAP5 PUSH1 0x20 SWAP4 SWAP1 SWAP4 ADD CALLDATALOAD SWAP4 POP POP POP JUMP JUMPDEST PUSH0 DUP1 PUSH1 0x40 DUP4 DUP6 SUB SLT ISZERO PUSH2 0x33B7 JUMPI PUSH0 DUP1 REVERT JUMPDEST POP POP DUP1 CALLDATALOAD SWAP3 PUSH1 0x20 SWAP1 SWAP2 ADD CALLDATALOAD SWAP2 POP JUMP JUMPDEST PUSH1 0x20 DUP1 DUP3 MSTORE DUP3 MLOAD DUP3 DUP3 ADD DUP2 SWAP1 MSTORE PUSH0 SWAP2 SWAP1 DUP5 DUP3 ADD SWAP1 PUSH1 0x40 DUP6 ADD SWAP1 DUP5 JUMPDEST DUP2 DUP2 LT ISZERO PUSH2 0x3429 JUMPI PUSH2 0x3416 DUP4 DUP6 MLOAD DUP1 MLOAD PUSH1 0x1 PUSH1 0x1 PUSH1 0xA0 SHL SUB SWAP1 DUP2 AND DUP4 MSTORE PUSH1 0x20 DUP1 DUP4 ADD MLOAD SWAP1 SWAP2 AND SWAP1 DUP4 ADD MSTORE PUSH1 0x40 SWAP1 DUP2 ADD MLOAD SWAP2 ADD MSTORE JUMP JUMPDEST SWAP3 DUP5 ADD SWAP3 PUSH1 0x60 SWAP3 SWAP1 SWAP3 ADD SWAP2 PUSH1 0x1 ADD PUSH2 0x33E1 JUMP JUMPDEST POP SWAP1 SWAP7 SWAP6 POP POP POP POP POP POP JUMP JUMPDEST DUP2 MLOAD PUSH1 0x1 PUSH1 0x1 PUSH1 0xA0 SHL SUB SWAP1 DUP2 AND DUP3 MSTORE PUSH1 0x20 DUP1 DUP5 ADD MLOAD SWAP1 SWAP2 AND SWAP1 DUP3 ADD MSTORE PUSH1 0x40 DUP1 DUP4 ADD MLOAD SWAP1 DUP3 ADD MSTORE PUSH1 0x60 DUP2 ADD PUSH2 0x5C9 JUMP JUMPDEST PUSH0 DUP1 PUSH0 PUSH1 0x60 DUP5 DUP7 SUB SLT ISZERO PUSH2 0x3476 JUMPI PUSH0 DUP1 REVERT JUMPDEST POP POP DUP2 CALLDATALOAD SWAP4 PUSH1 0x20 DUP4 ADD CALLDATALOAD SWAP4 POP PUSH1 0x40 SWAP1 SWAP3 ADD CALLDATALOAD SWAP2 SWAP1 POP JUMP JUMPDEST PUSH0 DUP1 PUSH0 DUP1 PUSH0 DUP1 PUSH0 DUP1 PUSH0 PUSH2 0x120 DUP11 DUP13 SUB SLT ISZERO PUSH2 0x34A6 JUMPI PUSH0 DUP1 REVERT JUMPDEST DUP10 CALLDATALOAD PUSH2 0x34B1 DUP2 PUSH2 0x3028 JUMP JUMPDEST SWAP9 POP PUSH1 0x20 DUP11 ADD CALLDATALOAD PUSH2 0x34C1 DUP2 PUSH2 0x3028 JUMP JUMPDEST SWAP8 POP PUSH1 0x40 DUP11 ADD CALLDATALOAD PUSH2 0x34D1 DUP2 PUSH2 0x304C JUMP JUMPDEST SWAP7 POP PUSH1 0x60 DUP11 ADD CALLDATALOAD SWAP6 POP PUSH1 0x80 DUP11 ADD CALLDATALOAD SWAP5 POP PUSH1 0xA0 DUP11 ADD CALLDATALOAD SWAP4 POP PUSH1 0xC0 DUP11 ADD CALLDATALOAD SWAP3 POP PUSH1 0xE0 DUP11 ADD CALLDATALOAD SWAP2 POP PUSH2 0x100 DUP11 ADD CALLDATALOAD PUSH1 0x1 PUSH1 0x1 PUSH1 0x40 SHL SUB DUP2 GT ISZERO PUSH2 0x350F JUMPI PUSH0 DUP1 REVERT JUMPDEST PUSH2 0x351B DUP13 DUP3 DUP14 ADD PUSH2 0x3078 JUMP JUMPDEST SWAP2 POP POP SWAP3 SWAP6 SWAP9 POP SWAP3 SWAP6 SWAP9 POP SWAP3 SWAP6 SWAP9 JUMP JUMPDEST PUSH0 DUP1 PUSH1 0x40 DUP4 DUP6 SUB SLT ISZERO PUSH2 0x353C JUMPI PUSH0 DUP1 REVERT JUMPDEST DUP3 CALLDATALOAD SWAP2 POP PUSH1 0x20 DUP4 ADD CALLDATALOAD PUSH1 0x1 PUSH1 0x1 PUSH1 0x40 SHL SUB DUP2 GT ISZERO PUSH2 0x3558 JUMPI PUSH0 DUP1 REVERT JUMPDEST PUSH2 0x3564 DUP6 DUP3 DUP7 ADD PUSH2 0x3078 JUMP JUMPDEST SWAP2 POP POP SWAP3 POP SWAP3 SWAP1 POP JUMP JUMPDEST PUSH0 DUP1 DUP4 PUSH1 0x1F DUP5 ADD SLT PUSH2 0x357E JUMPI PUSH0 DUP1 REVERT JUMPDEST POP DUP2 CALLDATALOAD PUSH1 0x1 PUSH1 0x1 PUSH1 0x40 SHL SUB DUP2 GT ISZERO PUSH2 0x3594 JUMPI PUSH0 DUP1 REVERT JUMPDEST PUSH1 0x20 DUP4 ADD SWAP2 POP DUP4 PUSH1 0x20 DUP3 PUSH1 0x5 SHL DUP6 ADD ADD GT ISZERO PUSH2 0x35AE JUMPI PUSH0 DUP1 REVERT JUMPDEST SWAP3 POP SWAP3 SWAP1 POP JUMP JUMPDEST PUSH0 DUP1 PUSH0 DUP1 PUSH0 DUP1 PUSH0 DUP1 PUSH0 DUP1 PUSH0 PUSH2 0x120 DUP13 DUP15 SUB SLT ISZERO PUSH2 0x35D0 JUMPI PUSH0 DUP1 REVERT JUMPDEST PUSH1 0x1 PUSH1 0x1 PUSH1 0x40 SHL SUB DUP1 DUP14 CALLDATALOAD GT ISZERO PUSH2 0x35E5 JUMPI PUSH0 DUP1 REVERT JUMPDEST PUSH2 0x35F2 DUP15 DUP15 CALLDATALOAD DUP16 ADD PUSH2 0x356E JUMP JUMPDEST SWAP1 SWAP13 POP SWAP11 POP PUSH1 0x20 DUP14 ADD CALLDATALOAD DUP2 LT ISZERO PUSH2 0x3607 JUMPI PUSH0 DUP1 REVERT JUMPDEST PUSH2 0x3617 DUP15 PUSH1 0x20 DUP16 ADD CALLDATALOAD DUP16 ADD PUSH2 0x356E JUMP JUMPDEST SWAP1 SWAP11 POP SWAP9 POP PUSH2 0x3628 PUSH1 0x40 DUP15 ADD PUSH2 0x303C JUMP JUMPDEST SWAP8 POP PUSH2 0x3636 PUSH1 0x60 DUP15 ADD PUSH2 0x3059 JUMP JUMPDEST SWAP7 POP PUSH1 0x80 DUP14 ADD CALLDATALOAD SWAP6 POP PUSH1 0xA0 DUP14 ADD CALLDATALOAD SWAP5 POP PUSH1 0xC0 DUP14 ADD CALLDATALOAD SWAP4 POP PUSH1 0xE0 DUP14 ADD CALLDATALOAD SWAP3 POP DUP1 PUSH2 0x100 DUP15 ADD CALLDATALOAD GT ISZERO PUSH2 0x3665 JUMPI PUSH0 DUP1 REVERT JUMPDEST POP PUSH2 0x3677 DUP14 PUSH2 0x100 DUP15 ADD CALLDATALOAD DUP15 ADD PUSH2 0x3078 JUMP JUMPDEST SWAP1 POP SWAP3 SWAP6 SWAP9 SWAP12 POP SWAP3 SWAP6 SWAP9 SWAP12 SWAP1 SWAP4 SWAP7 SWAP10 POP JUMP JUMPDEST PUSH1 0x20 DUP1 DUP3 MSTORE DUP3 MLOAD DUP3 DUP3 ADD DUP2 SWAP1 MSTORE PUSH0 SWAP2 SWAP1 DUP5 DUP3 ADD SWAP1 PUSH1 0x40 DUP6 ADD SWAP1 DUP5 JUMPDEST DUP2 DUP2 LT ISZERO PUSH2 0x3429 JUMPI DUP4 MLOAD DUP4 MSTORE SWAP3 DUP5 ADD SWAP3 SWAP2 DUP5 ADD SWAP2 PUSH1 0x1 ADD PUSH2 0x36A4 JUMP JUMPDEST PUSH1 0x20 DUP1 DUP3 MSTORE PUSH1 0xD SWAP1 DUP3 ADD MSTORE PUSH13 0x24B73B30B634B2103A37B5B2B7 PUSH1 0x99 SHL PUSH1 0x40 DUP3 ADD MSTORE PUSH1 0x60 ADD SWAP1 JUMP JUMPDEST PUSH1 0x1 PUSH1 0x1 PUSH1 0xA0 SHL SUB SWAP5 DUP6 AND DUP2 MSTORE SWAP3 SWAP1 SWAP4 AND PUSH1 0x20 DUP4 ADD MSTORE PUSH1 0x40 DUP3 ADD MSTORE PUSH1 0x60 DUP2 ADD SWAP2 SWAP1 SWAP2 MSTORE PUSH1 0x80 ADD SWAP1 JUMP JUMPDEST PUSH4 0x4E487B71 PUSH1 0xE0 SHL PUSH0 MSTORE PUSH1 0x32 PUSH1 0x4 MSTORE PUSH1 0x24 PUSH0 REVERT JUMPDEST PUSH1 0x1 DUP2 DUP2 SHR SWAP1 DUP3 AND DUP1 PUSH2 0x3738 JUMPI PUSH1 0x7F DUP3 AND SWAP2 POP JUMPDEST PUSH1 0x20 DUP3 LT DUP2 SUB PUSH2 0x3756 JUMPI PUSH4 0x4E487B71 PUSH1 0xE0 SHL PUSH0 MSTORE PUSH1 0x22 PUSH1 0x4 MSTORE PUSH1 0x24 PUSH0 REVERT JUMPDEST POP SWAP2 SWAP1 POP JUMP JUMPDEST PUSH4 0x4E487B71 PUSH1 0xE0 SHL PUSH0 MSTORE PUSH1 0x11 PUSH1 0x4 MSTORE PUSH1 0x24 PUSH0 REVERT JUMPDEST DUP1 DUP3 ADD DUP1 DUP3 GT ISZERO PUSH2 0x5C9 JUMPI PUSH2 0x5C9 PUSH2 0x375C JUMP JUMPDEST DUP2 DUP2 SUB DUP2 DUP2 GT ISZERO PUSH2 0x5C9 JUMPI PUSH2 0x5C9 PUSH2 0x375C JUMP JUMPDEST PUSH0 PUSH1 0x1 DUP3 ADD PUSH2 0x37A7 JUMPI PUSH2 0x37A7 PUSH2 0x375C JUMP JUMPDEST POP PUSH1 0x1 ADD SWAP1 JUMP JUMPDEST PUSH1 0x20 DUP1 DUP3 MSTORE PUSH1 0x22 SWAP1 DUP3 ADD MSTORE PUSH32 0x596F7520617265206E6F7420746865206F776E6572206F662074686973206C6F PUSH1 0x40 DUP3 ADD MSTORE PUSH2 0x636B PUSH1 0xF0 SHL PUSH1 0x60 DUP3 ADD MSTORE PUSH1 0x80 ADD SWAP1 JUMP JUMPDEST PUSH1 0x20 DUP1 DUP3 MSTORE PUSH1 0x32 SWAP1 DUP3 ADD MSTORE PUSH32 0x53756D206F66205447452062707320616E64206379636C652073686F756C6420 PUSH1 0x40 DUP3 ADD MSTORE PUSH18 0x6265206C657373207468616E20313030303 PUSH1 0x74 SHL PUSH1 0x60 DUP3 ADD MSTORE PUSH1 0x80 ADD SWAP1 JUMP JUMPDEST PUSH1 0x1F DUP3 GT ISZERO PUSH2 0xB1A JUMPI PUSH0 DUP2 DUP2 MSTORE PUSH1 0x20 DUP2 KECCAK256 PUSH1 0x1F DUP6 ADD PUSH1 0x5 SHR DUP2 ADD PUSH1 0x20 DUP7 LT ISZERO PUSH2 0x3868 JUMPI POP DUP1 JUMPDEST PUSH1 0x1F DUP6 ADD PUSH1 0x5 SHR DUP3 ADD SWAP2 POP JUMPDEST DUP2 DUP2 LT ISZERO PUSH2 0x1A32 JUMPI DUP3 DUP2 SSTORE PUSH1 0x1 ADD PUSH2 0x3874 JUMP JUMPDEST DUP2 MLOAD PUSH1 0x1 PUSH1 0x1 PUSH1 0x40 SHL SUB DUP2 GT ISZERO PUSH2 0x38A0 JUMPI PUSH2 0x38A0 PUSH2 0x3064 JUMP JUMPDEST PUSH2 0x38B4 DUP2 PUSH2 0x38AE DUP5 SLOAD PUSH2 0x3724 JUMP JUMPDEST DUP5 PUSH2 0x3842 JUMP JUMPDEST PUSH1 0x20 DUP1 PUSH1 0x1F DUP4 GT PUSH1 0x1 DUP2 EQ PUSH2 0x38E7 JUMPI PUSH0 DUP5 ISZERO PUSH2 0x38D0 JUMPI POP DUP6 DUP4 ADD MLOAD JUMPDEST PUSH0 NOT PUSH1 0x3 DUP7 SWAP1 SHL SHR NOT AND PUSH1 0x1 DUP6 SWAP1 SHL OR DUP6 SSTORE PUSH2 0x1A32 JUMP JUMPDEST PUSH0 DUP6 DUP2 MSTORE PUSH1 0x20 DUP2 KECCAK256 PUSH1 0x1F NOT DUP7 AND SWAP2 JUMPDEST DUP3 DUP2 LT ISZERO PUSH2 0x3915 JUMPI DUP9 DUP7 ADD MLOAD DUP3 SSTORE SWAP5 DUP5 ADD SWAP5 PUSH1 0x1 SWAP1 SWAP2 ADD SWAP1 DUP5 ADD PUSH2 0x38F6 JUMP JUMPDEST POP DUP6 DUP3 LT ISZERO PUSH2 0x3932 JUMPI DUP8 DUP6 ADD MLOAD PUSH0 NOT PUSH1 0x3 DUP9 SWAP1 SHL PUSH1 0xF8 AND SHR NOT AND DUP2 SSTORE JUMPDEST POP POP POP POP POP PUSH1 0x1 SWAP1 DUP2 SHL ADD SWAP1 SSTORE POP JUMP JUMPDEST PUSH0 PUSH1 0x20 DUP3 DUP5 SUB SLT ISZERO PUSH2 0x3952 JUMPI PUSH0 DUP1 REVERT JUMPDEST POP MLOAD SWAP2 SWAP1 POP JUMP JUMPDEST PUSH0 DUP3 PUSH2 0x3973 JUMPI PUSH4 0x4E487B71 PUSH1 0xE0 SHL PUSH0 MSTORE PUSH1 0x12 PUSH1 0x4 MSTORE PUSH1 0x24 PUSH0 REVERT JUMPDEST POP DIV SWAP1 JUMP JUMPDEST DUP1 DUP3 MUL DUP2 ISZERO DUP3 DUP3 DIV DUP5 EQ OR PUSH2 0x5C9 JUMPI PUSH2 0x5C9 PUSH2 0x375C JUMP JUMPDEST PUSH0 PUSH1 0x20 DUP3 DUP5 SUB SLT ISZERO PUSH2 0x399F JUMPI PUSH0 DUP1 REVERT JUMPDEST DUP2 MLOAD PUSH2 0x891 DUP2 PUSH2 0x3028 JUMP JUMPDEST PUSH4 0x4E487B71 PUSH1 0xE0 SHL PUSH0 MSTORE PUSH1 0x31 PUSH1 0x4 MSTORE PUSH1 0x24 PUSH0 REVERT JUMPDEST PUSH0 PUSH1 0x20 DUP3 DUP5 SUB SLT ISZERO PUSH2 0x39CE JUMPI PUSH0 DUP1 REVERT JUMPDEST DUP2 MLOAD PUSH2 0x891 DUP2 PUSH2 0x304C JUMP JUMPDEST PUSH0 DUP3 MLOAD PUSH2 0x39EA DUP2 DUP5 PUSH1 0x20 DUP8 ADD PUSH2 0x31B3 JUMP JUMPDEST SWAP2 SWAP1 SWAP2 ADD SWAP3 SWAP2 POP POP JUMP JUMPDEST PUSH1 0x20 DUP2 MSTORE PUSH0 PUSH2 0x891 PUSH1 0x20 DUP4 ADD DUP5 PUSH2 0x31D5 JUMP INVALID LOG2 PUSH5 0x6970667358 0x22 SLT KECCAK256 0xEF PC MULMOD EXTCODEHASH SWAP2 LOG4 RETURNDATACOPY 0x24 PUSH0 0xF6 INVALID SWAP6 0xBC 0xD4 SMOD PUSH18 0x7B606183E266D4CD8DC6E7CB46A4C1D76473 PUSH16 0x6C634300081400330000000000000000 "
		},
		"gasEstimates": {
			"creation": {
				"codeDepositCost": "2981600",
				"executionCost": "3269",
				"totalCost": "2984869"
			},
			"external": {
				"allLpTokenLockedCount()": "2423",
				"allNormalTokenLockedCount()": "2468",
				"cumulativeLockInfo(address)": "6950",
				"editLock(uint256,uint256,uint256)": "infinite",
				"editLockDescription(uint256,string)": "infinite",
				"getCumulativeLpTokenLockInfo(uint256,uint256)": "infinite",
				"getCumulativeLpTokenLockInfoAt(uint256)": "11519",
				"getCumulativeNormalTokenLockInfo(uint256,uint256)": "infinite",
				"getCumulativeNormalTokenLockInfoAt(uint256)": "11497",
				"getLockAt(uint256)": "infinite",
				"getLockById(uint256)": "infinite",
				"getLocksForToken(address,uint256,uint256)": "infinite",
				"getTotalLockCount()": "2389",
				"lock(address,address,bool,uint256,uint256,string)": "infinite",
				"lpLockCountForUser(address)": "infinite",
				"lpLockForUserAtIndex(address,uint256)": "infinite",
				"lpLocksForUser(address)": "infinite",
				"multipleVestingLock(address[],uint256[],address,bool,uint256,uint256,uint256,uint256,string)": "infinite",
				"normalLockCountForUser(address)": "infinite",
				"normalLockForUserAtIndex(address,uint256)": "infinite",
				"normalLocksForUser(address)": "infinite",
				"renounceLockOwnership(uint256)": "infinite",
				"totalLockCountForToken(address)": "infinite",
				"totalLockCountForUser(address)": "infinite",
				"totalTokenLockedCount()": "infinite",
				"transferLockOwnership(uint256,address)": "infinite",
				"unlock(uint256)": "infinite",
				"vestingLock(address,address,bool,uint256,uint256,uint256,uint256,uint256,string)": "infinite",
				"withdrawableTokens(uint256)": "infinite"
			},
			"internal": {
				"_createLock(address,address,bool,uint256,uint256,uint256,uint256,uint256,string memory)": "infinite",
				"_getActualIndex(uint256)": "infinite",
				"_isValidLpToken(address,address)": "infinite",
				"_lockLpToken(address,address,address,uint256,uint256,uint256,uint256,uint256,string memory)": "infinite",
				"_lockNormalToken(address,address,uint256,uint256,uint256,uint256,uint256,string memory)": "infinite",
				"_multipleVestingLock(address[] calldata,uint256[] calldata,address,bool,uint256[4] memory,string memory)": "infinite",
				"_normalUnlock(struct PinkLock02.Lock storage pointer)": "infinite",
				"_parseFactoryAddress(address)": "infinite",
				"_registerLock(address,address,uint256,uint256,uint256,uint256,uint256,string memory)": "infinite",
				"_safeTransferFromEnsureExactAmount(address,address,address,uint256)": "infinite",
				"_sumAmount(uint256[] calldata)": "infinite",
				"_vestingUnlock(struct PinkLock02.Lock storage pointer)": "infinite",
				"_withdrawableTokens(struct PinkLock02.Lock memory)": "infinite"
			}
		},
		"methodIdentifiers": {
			"allLpTokenLockedCount()": "b982922e",
			"allNormalTokenLockedCount()": "475831c8",
			"cumulativeLockInfo(address)": "e1444fd6",
			"editLock(uint256,uint256,uint256)": "b3b9aa48",
			"editLockDescription(uint256,string)": "d3cac885",
			"getCumulativeLpTokenLockInfo(uint256,uint256)": "aec640c6",
			"getCumulativeLpTokenLockInfoAt(uint256)": "a20b8c18",
			"getCumulativeNormalTokenLockInfo(uint256,uint256)": "76c12822",
			"getCumulativeNormalTokenLockInfoAt(uint256)": "7e6706d3",
			"getLockAt(uint256)": "0d4f581a",
			"getLockById(uint256)": "08f12470",
			"getLocksForToken(address,uint256,uint256)": "332f26d7",
			"getTotalLockCount()": "fd981c66",
			"lock(address,address,bool,uint256,uint256,string)": "07279357",
			"lpLockCountForUser(address)": "07873ef1",
			"lpLockForUserAtIndex(address,uint256)": "eeacf786",
			"lpLocksForUser(address)": "aef0e540",
			"multipleVestingLock(address[],uint256[],address,bool,uint256,uint256,uint256,uint256,string)": "e0da83ce",
			"normalLockCountForUser(address)": "eb80bdae",
			"normalLockForUserAtIndex(address,uint256)": "618df7a3",
			"normalLocksForUser(address)": "da1d8cff",
			"renounceLockOwnership(uint256)": "a57e3141",
			"totalLockCountForToken(address)": "e3676f88",
			"totalLockCountForUser(address)": "cd83eadc",
			"totalTokenLockedCount()": "1982242c",
			"transferLockOwnership(uint256,address)": "5a04fb69",
			"unlock(uint256)": "6198e339",
			"vestingLock(address,address,bool,uint256,uint256,uint256,uint256,uint256,string)": "cb645e32",
			"withdrawableTokens(uint256)": "6dbdeab3"
		}
	},
	"abi": [
		{
			"anonymous": false,
			"inputs": [
				{
					"indexed": true,
					"internalType": "uint256",
					"name": "id",
					"type": "uint256"
				},
				{
					"indexed": false,
					"internalType": "address",
					"name": "token",
					"type": "address"
				},
				{
					"indexed": false,
					"internalType": "address",
					"name": "owner",
					"type": "address"
				},
				{
					"indexed": false,
					"internalType": "uint256",
					"name": "amount",
					"type": "uint256"
				},
				{
					"indexed": false,
					"internalType": "uint256",
					"name": "unlockDate",
					"type": "uint256"
				}
			],
			"name": "LockAdded",
			"type": "event"
		},
		{
			"anonymous": false,
			"inputs": [
				{
					"indexed": false,
					"internalType": "uint256",
					"name": "lockId",
					"type": "uint256"
				}
			],
			"name": "LockDescriptionChanged",
			"type": "event"
		},
		{
			"anonymous": false,
			"inputs": [
				{
					"indexed": false,
					"internalType": "uint256",
					"name": "lockId",
					"type": "uint256"
				},
				{
					"indexed": false,
					"internalType": "address",
					"name": "owner",
					"type": "address"
				},
				{
					"indexed": false,
					"internalType": "address",
					"name": "newOwner",
					"type": "address"
				}
			],
			"name": "LockOwnerChanged",
			"type": "event"
		},
		{
			"anonymous": false,
			"inputs": [
				{
					"indexed": true,
					"internalType": "uint256",
					"name": "id",
					"type": "uint256"
				},
				{
					"indexed": false,
					"internalType": "address",
					"name": "token",
					"type": "address"
				},
				{
					"indexed": false,
					"internalType": "address",
					"name": "owner",
					"type": "address"
				},
				{
					"indexed": false,
					"internalType": "uint256",
					"name": "amount",
					"type": "uint256"
				},
				{
					"indexed": false,
					"internalType": "uint256",
					"name": "unlockedAt",
					"type": "uint256"
				}
			],
			"name": "LockRemoved",
			"type": "event"
		},
		{
			"anonymous": false,
			"inputs": [
				{
					"indexed": true,
					"internalType": "uint256",
					"name": "id",
					"type": "uint256"
				},
				{
					"indexed": false,
					"internalType": "address",
					"name": "token",
					"type": "address"
				},
				{
					"indexed": false,
					"internalType": "address",
					"name": "owner",
					"type": "address"
				},
				{
					"indexed": false,
					"internalType": "uint256",
					"name": "newAmount",
					"type": "uint256"
				},
				{
					"indexed": false,
					"internalType": "uint256",
					"name": "newUnlockDate",
					"type": "uint256"
				}
			],
			"name": "LockUpdated",
			"type": "event"
		},
		{
			"anonymous": false,
			"inputs": [
				{
					"indexed": true,
					"internalType": "uint256",
					"name": "id",
					"type": "uint256"
				},
				{
					"indexed": false,
					"internalType": "address",
					"name": "token",
					"type": "address"
				},
				{
					"indexed": false,
					"internalType": "address",
					"name": "owner",
					"type": "address"
				},
				{
					"indexed": false,
					"internalType": "uint256",
					"name": "amount",
					"type": "uint256"
				},
				{
					"indexed": false,
					"internalType": "uint256",
					"name": "remaining",
					"type": "uint256"
				},
				{
					"indexed": false,
					"internalType": "uint256",
					"name": "timestamp",
					"type": "uint256"
				}
			],
			"name": "LockVested",
			"type": "event"
		},
		{
			"inputs": [],
			"name": "allLpTokenLockedCount",
			"outputs": [
				{
					"internalType": "uint256",
					"name": "",
					"type": "uint256"
				}
			],
			"stateMutability": "view",
			"type": "function"
		},
		{
			"inputs": [],
			"name": "allNormalTokenLockedCount",
			"outputs": [
				{
					"internalType": "uint256",
					"name": "",
					"type": "uint256"
				}
			],
			"stateMutability": "view",
			"type": "function"
		},
		{
			"inputs": [
				{
					"internalType": "address",
					"name": "",
					"type": "address"
				}
			],
			"name": "cumulativeLockInfo",
			"outputs": [
				{
					"internalType": "address",
					"name": "token",
					"type": "address"
				},
				{
					"internalType": "address",
					"name": "factory",
					"type": "address"
				},
				{
					"internalType": "uint256",
					"name": "amount",
					"type": "uint256"
				}
			],
			"stateMutability": "view",
			"type": "function"
		},
		{
			"inputs": [
				{
					"internalType": "uint256",
					"name": "lockId",
					"type": "uint256"
				},
				{
					"internalType": "uint256",
					"name": "newAmount",
					"type": "uint256"
				},
				{
					"internalType": "uint256",
					"name": "newUnlockDate",
					"type": "uint256"
				}
			],
			"name": "editLock",
			"outputs": [],
			"stateMutability": "nonpayable",
			"type": "function"
		},
		{
			"inputs": [
				{
					"internalType": "uint256",
					"name": "lockId",
					"type": "uint256"
				},
				{
					"internalType": "string",
					"name": "description",
					"type": "string"
				}
			],
			"name": "editLockDescription",
			"outputs": [],
			"stateMutability": "nonpayable",
			"type": "function"
		},
		{
			"inputs": [
				{
					"internalType": "uint256",
					"name": "start",
					"type": "uint256"
				},
				{
					"internalType": "uint256",
					"name": "end",
					"type": "uint256"
				}
			],
			"name": "getCumulativeLpTokenLockInfo",
			"outputs": [
				{
					"components": [
						{
							"internalType": "address",
							"name": "token",
							"type": "address"
						},
						{
							"internalType": "address",
							"name": "factory",
							"type": "address"
						},
						{
							"internalType": "uint256",
							"name": "amount",
							"type": "uint256"
						}
					],
					"internalType": "struct PinkLock02.CumulativeLockInfo[]",
					"name": "",
					"type": "tuple[]"
				}
			],
			"stateMutability": "view",
			"type": "function"
		},
		{
			"inputs": [
				{
					"internalType": "uint256",
					"name": "index",
					"type": "uint256"
				}
			],
			"name": "getCumulativeLpTokenLockInfoAt",
			"outputs": [
				{
					"components": [
						{
							"internalType": "address",
							"name": "token",
							"type": "address"
						},
						{
							"internalType": "address",
							"name": "factory",
							"type": "address"
						},
						{
							"internalType": "uint256",
							"name": "amount",
							"type": "uint256"
						}
					],
					"internalType": "struct PinkLock02.CumulativeLockInfo",
					"name": "",
					"type": "tuple"
				}
			],
			"stateMutability": "view",
			"type": "function"
		},
		{
			"inputs": [
				{
					"internalType": "uint256",
					"name": "start",
					"type": "uint256"
				},
				{
					"internalType": "uint256",
					"name": "end",
					"type": "uint256"
				}
			],
			"name": "getCumulativeNormalTokenLockInfo",
			"outputs": [
				{
					"components": [
						{
							"internalType": "address",
							"name": "token",
							"type": "address"
						},
						{
							"internalType": "address",
							"name": "factory",
							"type": "address"
						},
						{
							"internalType": "uint256",
							"name": "amount",
							"type": "uint256"
						}
					],
					"internalType": "struct PinkLock02.CumulativeLockInfo[]",
					"name": "",
					"type": "tuple[]"
				}
			],
			"stateMutability": "view",
			"type": "function"
		},
		{
			"inputs": [
				{
					"internalType": "uint256",
					"name": "index",
					"type": "uint256"
				}
			],
			"name": "getCumulativeNormalTokenLockInfoAt",
			"outputs": [
				{
					"components": [
						{
							"internalType": "address",
							"name": "token",
							"type": "address"
						},
						{
							"internalType": "address",
							"name": "factory",
							"type": "address"
						},
						{
							"internalType": "uint256",
							"name": "amount",
							"type": "uint256"
						}
					],
					"internalType": "struct PinkLock02.CumulativeLockInfo",
					"name": "",
					"type": "tuple"
				}
			],
			"stateMutability": "view",
			"type": "function"
		},
		{
			"inputs": [
				{
					"internalType": "uint256",
					"name": "index",
					"type": "uint256"
				}
			],
			"name": "getLockAt",
			"outputs": [
				{
					"components": [
						{
							"internalType": "uint256",
							"name": "id",
							"type": "uint256"
						},
						{
							"internalType": "address",
							"name": "token",
							"type": "address"
						},
						{
							"internalType": "address",
							"name": "owner",
							"type": "address"
						},
						{
							"internalType": "uint256",
							"name": "amount",
							"type": "uint256"
						},
						{
							"internalType": "uint256",
							"name": "lockDate",
							"type": "uint256"
						},
						{
							"internalType": "uint256",
							"name": "tgeDate",
							"type": "uint256"
						},
						{
							"internalType": "uint256",
							"name": "tgeBps",
							"type": "uint256"
						},
						{
							"internalType": "uint256",
							"name": "cycle",
							"type": "uint256"
						},
						{
							"internalType": "uint256",
							"name": "cycleBps",
							"type": "uint256"
						},
						{
							"internalType": "uint256",
							"name": "unlockedAmount",
							"type": "uint256"
						},
						{
							"internalType": "string",
							"name": "description",
							"type": "string"
						}
					],
					"internalType": "struct PinkLock02.Lock",
					"name": "",
					"type": "tuple"
				}
			],
			"stateMutability": "view",
			"type": "function"
		},
		{
			"inputs": [
				{
					"internalType": "uint256",
					"name": "lockId",
					"type": "uint256"
				}
			],
			"name": "getLockById",
			"outputs": [
				{
					"components": [
						{
							"internalType": "uint256",
							"name": "id",
							"type": "uint256"
						},
						{
							"internalType": "address",
							"name": "token",
							"type": "address"
						},
						{
							"internalType": "address",
							"name": "owner",
							"type": "address"
						},
						{
							"internalType": "uint256",
							"name": "amount",
							"type": "uint256"
						},
						{
							"internalType": "uint256",
							"name": "lockDate",
							"type": "uint256"
						},
						{
							"internalType": "uint256",
							"name": "tgeDate",
							"type": "uint256"
						},
						{
							"internalType": "uint256",
							"name": "tgeBps",
							"type": "uint256"
						},
						{
							"internalType": "uint256",
							"name": "cycle",
							"type": "uint256"
						},
						{
							"internalType": "uint256",
							"name": "cycleBps",
							"type": "uint256"
						},
						{
							"internalType": "uint256",
							"name": "unlockedAmount",
							"type": "uint256"
						},
						{
							"internalType": "string",
							"name": "description",
							"type": "string"
						}
					],
					"internalType": "struct PinkLock02.Lock",
					"name": "",
					"type": "tuple"
				}
			],
			"stateMutability": "view",
			"type": "function"
		},
		{
			"inputs": [
				{
					"internalType": "address",
					"name": "token",
					"type": "address"
				},
				{
					"internalType": "uint256",
					"name": "start",
					"type": "uint256"
				},
				{
					"internalType": "uint256",
					"name": "end",
					"type": "uint256"
				}
			],
			"name": "getLocksForToken",
			"outputs": [
				{
					"components": [
						{
							"internalType": "uint256",
							"name": "id",
							"type": "uint256"
						},
						{
							"internalType": "address",
							"name": "token",
							"type": "address"
						},
						{
							"internalType": "address",
							"name": "owner",
							"type": "address"
						},
						{
							"internalType": "uint256",
							"name": "amount",
							"type": "uint256"
						},
						{
							"internalType": "uint256",
							"name": "lockDate",
							"type": "uint256"
						},
						{
							"internalType": "uint256",
							"name": "tgeDate",
							"type": "uint256"
						},
						{
							"internalType": "uint256",
							"name": "tgeBps",
							"type": "uint256"
						},
						{
							"internalType": "uint256",
							"name": "cycle",
							"type": "uint256"
						},
						{
							"internalType": "uint256",
							"name": "cycleBps",
							"type": "uint256"
						},
						{
							"internalType": "uint256",
							"name": "unlockedAmount",
							"type": "uint256"
						},
						{
							"internalType": "string",
							"name": "description",
							"type": "string"
						}
					],
					"internalType": "struct PinkLock02.Lock[]",
					"name": "",
					"type": "tuple[]"
				}
			],
			"stateMutability": "view",
			"type": "function"
		},
		{
			"inputs": [],
			"name": "getTotalLockCount",
			"outputs": [
				{
					"internalType": "uint256",
					"name": "",
					"type": "uint256"
				}
			],
			"stateMutability": "view",
			"type": "function"
		},
		{
			"inputs": [
				{
					"internalType": "address",
					"name": "owner",
					"type": "address"
				},
				{
					"internalType": "address",
					"name": "token",
					"type": "address"
				},
				{
					"internalType": "bool",
					"name": "isLpToken",
					"type": "bool"
				},
				{
					"internalType": "uint256",
					"name": "amount",
					"type": "uint256"
				},
				{
					"internalType": "uint256",
					"name": "unlockDate",
					"type": "uint256"
				},
				{
					"internalType": "string",
					"name": "description",
					"type": "string"
				}
			],
			"name": "lock",
			"outputs": [
				{
					"internalType": "uint256",
					"name": "id",
					"type": "uint256"
				}
			],
			"stateMutability": "nonpayable",
			"type": "function"
		},
		{
			"inputs": [
				{
					"internalType": "address",
					"name": "user",
					"type": "address"
				}
			],
			"name": "lpLockCountForUser",
			"outputs": [
				{
					"internalType": "uint256",
					"name": "",
					"type": "uint256"
				}
			],
			"stateMutability": "view",
			"type": "function"
		},
		{
			"inputs": [
				{
					"internalType": "address",
					"name": "user",
					"type": "address"
				},
				{
					"internalType": "uint256",
					"name": "index",
					"type": "uint256"
				}
			],
			"name": "lpLockForUserAtIndex",
			"outputs": [
				{
					"components": [
						{
							"internalType": "uint256",
							"name": "id",
							"type": "uint256"
						},
						{
							"internalType": "address",
							"name": "token",
							"type": "address"
						},
						{
							"internalType": "address",
							"name": "owner",
							"type": "address"
						},
						{
							"internalType": "uint256",
							"name": "amount",
							"type": "uint256"
						},
						{
							"internalType": "uint256",
							"name": "lockDate",
							"type": "uint256"
						},
						{
							"internalType": "uint256",
							"name": "tgeDate",
							"type": "uint256"
						},
						{
							"internalType": "uint256",
							"name": "tgeBps",
							"type": "uint256"
						},
						{
							"internalType": "uint256",
							"name": "cycle",
							"type": "uint256"
						},
						{
							"internalType": "uint256",
							"name": "cycleBps",
							"type": "uint256"
						},
						{
							"internalType": "uint256",
							"name": "unlockedAmount",
							"type": "uint256"
						},
						{
							"internalType": "string",
							"name": "description",
							"type": "string"
						}
					],
					"internalType": "struct PinkLock02.Lock",
					"name": "",
					"type": "tuple"
				}
			],
			"stateMutability": "view",
			"type": "function"
		},
		{
			"inputs": [
				{
					"internalType": "address",
					"name": "user",
					"type": "address"
				}
			],
			"name": "lpLocksForUser",
			"outputs": [
				{
					"components": [
						{
							"internalType": "uint256",
							"name": "id",
							"type": "uint256"
						},
						{
							"internalType": "address",
							"name": "token",
							"type": "address"
						},
						{
							"internalType": "address",
							"name": "owner",
							"type": "address"
						},
						{
							"internalType": "uint256",
							"name": "amount",
							"type": "uint256"
						},
						{
							"internalType": "uint256",
							"name": "lockDate",
							"type": "uint256"
						},
						{
							"internalType": "uint256",
							"name": "tgeDate",
							"type": "uint256"
						},
						{
							"internalType": "uint256",
							"name": "tgeBps",
							"type": "uint256"
						},
						{
							"internalType": "uint256",
							"name": "cycle",
							"type": "uint256"
						},
						{
							"internalType": "uint256",
							"name": "cycleBps",
							"type": "uint256"
						},
						{
							"internalType": "uint256",
							"name": "unlockedAmount",
							"type": "uint256"
						},
						{
							"internalType": "string",
							"name": "description",
							"type": "string"
						}
					],
					"internalType": "struct PinkLock02.Lock[]",
					"name": "",
					"type": "tuple[]"
				}
			],
			"stateMutability": "view",
			"type": "function"
		},
		{
			"inputs": [
				{
					"internalType": "address[]",
					"name": "owners",
					"type": "address[]"
				},
				{
					"internalType": "uint256[]",
					"name": "amounts",
					"type": "uint256[]"
				},
				{
					"internalType": "address",
					"name": "token",
					"type": "address"
				},
				{
					"internalType": "bool",
					"name": "isLpToken",
					"type": "bool"
				},
				{
					"internalType": "uint256",
					"name": "tgeDate",
					"type": "uint256"
				},
				{
					"internalType": "uint256",
					"name": "tgeBps",
					"type": "uint256"
				},
				{
					"internalType": "uint256",
					"name": "cycle",
					"type": "uint256"
				},
				{
					"internalType": "uint256",
					"name": "cycleBps",
					"type": "uint256"
				},
				{
					"internalType": "string",
					"name": "description",
					"type": "string"
				}
			],
			"name": "multipleVestingLock",
			"outputs": [
				{
					"internalType": "uint256[]",
					"name": "",
					"type": "uint256[]"
				}
			],
			"stateMutability": "nonpayable",
			"type": "function"
		},
		{
			"inputs": [
				{
					"internalType": "address",
					"name": "user",
					"type": "address"
				}
			],
			"name": "normalLockCountForUser",
			"outputs": [
				{
					"internalType": "uint256",
					"name": "",
					"type": "uint256"
				}
			],
			"stateMutability": "view",
			"type": "function"
		},
		{
			"inputs": [
				{
					"internalType": "address",
					"name": "user",
					"type": "address"
				},
				{
					"internalType": "uint256",
					"name": "index",
					"type": "uint256"
				}
			],
			"name": "normalLockForUserAtIndex",
			"outputs": [
				{
					"components": [
						{
							"internalType": "uint256",
							"name": "id",
							"type": "uint256"
						},
						{
							"internalType": "address",
							"name": "token",
							"type": "address"
						},
						{
							"internalType": "address",
							"name": "owner",
							"type": "address"
						},
						{
							"internalType": "uint256",
							"name": "amount",
							"type": "uint256"
						},
						{
							"internalType": "uint256",
							"name": "lockDate",
							"type": "uint256"
						},
						{
							"internalType": "uint256",
							"name": "tgeDate",
							"type": "uint256"
						},
						{
							"internalType": "uint256",
							"name": "tgeBps",
							"type": "uint256"
						},
						{
							"internalType": "uint256",
							"name": "cycle",
							"type": "uint256"
						},
						{
							"internalType": "uint256",
							"name": "cycleBps",
							"type": "uint256"
						},
						{
							"internalType": "uint256",
							"name": "unlockedAmount",
							"type": "uint256"
						},
						{
							"internalType": "string",
							"name": "description",
							"type": "string"
						}
					],
					"internalType": "struct PinkLock02.Lock",
					"name": "",
					"type": "tuple"
				}
			],
			"stateMutability": "view",
			"type": "function"
		},
		{
			"inputs": [
				{
					"internalType": "address",
					"name": "user",
					"type": "address"
				}
			],
			"name": "normalLocksForUser",
			"outputs": [
				{
					"components": [
						{
							"internalType": "uint256",
							"name": "id",
							"type": "uint256"
						},
						{
							"internalType": "address",
							"name": "token",
							"type": "address"
						},
						{
							"internalType": "address",
							"name": "owner",
							"type": "address"
						},
						{
							"internalType": "uint256",
							"name": "amount",
							"type": "uint256"
						},
						{
							"internalType": "uint256",
							"name": "lockDate",
							"type": "uint256"
						},
						{
							"internalType": "uint256",
							"name": "tgeDate",
							"type": "uint256"
						},
						{
							"internalType": "uint256",
							"name": "tgeBps",
							"type": "uint256"
						},
						{
							"internalType": "uint256",
							"name": "cycle",
							"type": "uint256"
						},
						{
							"internalType": "uint256",
							"name": "cycleBps",
							"type": "uint256"
						},
						{
							"internalType": "uint256",
							"name": "unlockedAmount",
							"type": "uint256"
						},
						{
							"internalType": "string",
							"name": "description",
							"type": "string"
						}
					],
					"internalType": "struct PinkLock02.Lock[]",
					"name": "",
					"type": "tuple[]"
				}
			],
			"stateMutability": "view",
			"type": "function"
		},
		{
			"inputs": [
				{
					"internalType": "uint256",
					"name": "lockId",
					"type": "uint256"
				}
			],
			"name": "renounceLockOwnership",
			"outputs": [],
			"stateMutability": "nonpayable",
			"type": "function"
		},
		{
			"inputs": [
				{
					"internalType": "address",
					"name": "token",
					"type": "address"
				}
			],
			"name": "totalLockCountForToken",
			"outputs": [
				{
					"internalType": "uint256",
					"name": "",
					"type": "uint256"
				}
			],
			"stateMutability": "view",
			"type": "function"
		},
		{
			"inputs": [
				{
					"internalType": "address",
					"name": "user",
					"type": "address"
				}
			],
			"name": "totalLockCountForUser",
			"outputs": [
				{
					"internalType": "uint256",
					"name": "",
					"type": "uint256"
				}
			],
			"stateMutability": "view",
			"type": "function"
		},
		{
			"inputs": [],
			"name": "totalTokenLockedCount",
			"outputs": [
				{
					"internalType": "uint256",
					"name": "",
					"type": "uint256"
				}
			],
			"stateMutability": "view",
			"type": "function"
		},
		{
			"inputs": [
				{
					"internalType": "uint256",
					"name": "lockId",
					"type": "uint256"
				},
				{
					"internalType": "address",
					"name": "newOwner",
					"type": "address"
				}
			],
			"name": "transferLockOwnership",
			"outputs": [],
			"stateMutability": "nonpayable",
			"type": "function"
		},
		{
			"inputs": [
				{
					"internalType": "uint256",
					"name": "lockId",
					"type": "uint256"
				}
			],
			"name": "unlock",
			"outputs": [],
			"stateMutability": "nonpayable",
			"type": "function"
		},
		{
			"inputs": [
				{
					"internalType": "address",
					"name": "owner",
					"type": "address"
				},
				{
					"internalType": "address",
					"name": "token",
					"type": "address"
				},
				{
					"internalType": "bool",
					"name": "isLpToken",
					"type": "bool"
				},
				{
					"internalType": "uint256",
					"name": "amount",
					"type": "uint256"
				},
				{
					"internalType": "uint256",
					"name": "tgeDate",
					"type": "uint256"
				},
				{
					"internalType": "uint256",
					"name": "tgeBps",
					"type": "uint256"
				},
				{
					"internalType": "uint256",
					"name": "cycle",
					"type": "uint256"
				},
				{
					"internalType": "uint256",
					"name": "cycleBps",
					"type": "uint256"
				},
				{
					"internalType": "string",
					"name": "description",
					"type": "string"
				}
			],
			"name": "vestingLock",
			"outputs": [
				{
					"internalType": "uint256",
					"name": "id",
					"type": "uint256"
				}
			],
			"stateMutability": "nonpayable",
			"type": "function"
		},
		{
			"inputs": [
				{
					"internalType": "uint256",
					"name": "lockId",
					"type": "uint256"
				}
			],
			"name": "withdrawableTokens",
			"outputs": [
				{
					"internalType": "uint256",
					"name": "",
					"type": "uint256"
				}
			],
			"stateMutability": "view",
			"type": "function"
		}
	]
}